# 0x7FFFFFF0 - Zone Events

## Common Data

| Field            | Value                          |
|------------------|--------------------------------|
| Zone             | King Ranperre's Tomb (ID: 190) |
| Block Size       | 2576 bytes                     |
| Total Events     | 25                             |
| References Count | 103                            |

## List of Events

| Event ID                   | Entrypoint   |   Size |   Instructions |
|----------------------------|--------------|--------|----------------|
| [65535](#event-65535)      | 0x0000       |      1 |              1 |
| [65535.1](#event-655351)   | 0x0001       |     37 |              5 |
| [65535.2](#event-655352)   | 0x0026       |    185 |             37 |
| [9](#event-9)              | 0x00DF       |    132 |             18 |
| [10](#event-10)            | 0x0163       |    171 |             27 |
| [0](#event-0)              | 0x020E       |      1 |              1 |
| [65534](#event-65534)      | 0x020F       |      1 |              1 |
| [65535.3](#event-655353)   | 0x0210       |     10 |              2 |
| [65535.4](#event-655354)   | 0x021A       |     10 |              2 |
| [65535.5](#event-655355)   | 0x0224       |     10 |              2 |
| [65535.6](#event-655356)   | 0x022E       |     34 |              8 |
| [65535.7](#event-655357)   | 0x0250       |     14 |              4 |
| [65535.8](#event-655358)   | 0x025E       |     14 |              4 |
| [65535.9](#event-655359)   | 0x026C       |      6 |              2 |
| [65535.10](#event-6553510) | 0x0272       |      6 |              2 |
| [65535.11](#event-6553511) | 0x0278       |      6 |              2 |
| [65535.12](#event-6553512) | 0x027E       |      6 |              2 |
| [65535.13](#event-6553513) | 0x0284       |      6 |              2 |
| [65535.14](#event-6553514) | 0x028A       |     10 |              2 |
| [65535.15](#event-6553515) | 0x0294       |     10 |              2 |
| [65535.16](#event-6553516) | 0x029E       |     58 |             14 |
| [65535.17](#event-6553517) | 0x02D8       |     20 |              3 |
| [6](#event-6)              | 0x02EC       |    230 |             30 |
| [7](#event-7)              | 0x03D2       |    230 |             30 |
| [8](#event-8)              | 0x04B8       |    837 |            103 |

## DAT References (imed_data)

|   Index | Hex Value   |   Dec Value |
|---------|-------------|-------------|
|       0 | 0x0005      |           5 |
|       1 | 0x0001      |           1 |
|       2 | 0x0002      |           2 |
|       3 | 0x000A      |          10 |
|       4 | 0x0009      |           9 |
|       5 | 0x0046      |          70 |
|       6 | 0x008C      |         140 |
|       7 | 0x00D2      |         210 |
|       8 | 0x0003      |           3 |
|       9 | 0x0000      |           0 |
|      10 | 0x0078      |         120 |
|      11 | 0x003C      |          60 |
|      12 | 0x00C8      |         200 |
|      13 | 0xFFFEC398  |  4294886296 |
|      14 | 0xFFFE886F  |  4294871151 |
|      15 | 0xFFFFFC18  |  4294966296 |
|      16 | 0x0BCA      |        3018 |
|      17 | 0x1C9C      |        7324 |
|      18 | 0x0064      |         100 |
|      19 | 0xFFFEC1A4  |  4294885796 |
|      20 | 0xFFFE0C50  |  4294839376 |
|      21 | 0x1C81      |        7297 |
|      22 | 0x0475      |        1141 |
|      23 | 0x03A8      |         936 |
|      24 | 0xFFFE768A  |  4294866570 |
|      25 | 0xFFFFFF07  |  4294967047 |
|      26 | 0x0400      |        1024 |
|      27 | 0x04E7      |        1255 |
|      28 | 0xFFFE60D9  |  4294861017 |
|      29 | 0xFFFFFF06  |  4294967046 |
|      30 | 0x0331      |         817 |
|      31 | 0xFFFFF88B  |  4294965387 |
|      32 | 0xFFFE741A  |  4294865946 |
|      33 | 0x0F5A      |        3930 |
|      34 | 0x000D      |          13 |
|      35 | 0xFFFFF8BF  |  4294965439 |
|      36 | 0xFFFE75A4  |  4294866340 |
|      37 | 0xFFFFF831  |  4294965297 |
|      38 | 0xFFFE6158  |  4294861144 |
|      39 | 0x0204      |         516 |
|      40 | 0xFFFE5FA9  |  4294860713 |
|      41 | 0xFFFFFB96  |  4294966166 |
|      42 | 0xFFFE761B  |  4294866459 |
|      43 | 0xFFFFFCDF  |  4294966495 |
|      44 | 0xFFFE5EF3  |  4294860531 |
|      45 | 0xFFFF7C2E  |  4294933550 |
|      46 | 0x4378      |       17272 |
|      47 | 0x1C35      |        7221 |
|      48 | 0x09D4      |        2516 |
|      49 | 0xFFFF36D9  |  4294915801 |
|      50 | 0x4528      |       17704 |
|      51 | 0x2328      |        9000 |
|      52 | 0x0724      |        1828 |
|      53 | 0x005A      |          90 |
|      54 | 0x0028      |          40 |
|      55 | 0xFFFF4013  |  4294918163 |
|      56 | 0x43A4      |       17316 |
|      57 | 0x2327      |        8999 |
|      58 | 0xFFFF4E1F  |  4294921759 |
|      59 | 0x4828      |       18472 |
|      60 | 0x2134      |        8500 |
|      61 | 0xFFFF60F0  |  4294926576 |
|      62 | 0x4E07      |       19975 |
|      63 | 0x1F3F      |        7999 |
|      64 | 0xFFFF6C3E  |  4294929470 |
|      65 | 0x519D      |       20893 |
|      66 | 0x1E45      |        7749 |
|      67 | 0xFFFF71C8  |  4294930888 |
|      68 | 0x5426      |       21542 |
|      69 | 0x1D4B      |        7499 |
|      70 | 0x0548      |        1352 |
|      71 | 0x1C9F      |        7327 |
|      72 | 0x0013      |          19 |
|      73 | 0xFFFF5D24  |  4294925604 |
|      74 | 0x4E0D      |       19981 |
|      75 | 0x1F40      |        8000 |
|      76 | 0x0800      |        2048 |
|      77 | 0xFFFF7263  |  4294931043 |
|      78 | 0x4D72      |       19826 |
|      79 | 0x082A      |        2090 |
|      80 | 0x00D1      |         209 |
|      81 | 0x1CA0      |        7328 |
|      82 | 0x000F      |          15 |
|      83 | 0xFFFEE770  |  4294895472 |
|      84 | 0x4E76      |       20086 |
|      85 | 0x222E      |        8750 |
|      86 | 0x07D7      |        2007 |
|      87 | 0x010D      |         269 |
|      88 | 0x1CA3      |        7331 |
|      89 | 0x007F      |         127 |
|      90 | 0x1CA4      |        7332 |
|      91 | 0x1CA5      |        7333 |
|      92 | 0x1CA6      |        7334 |
|      93 | 0x001E      |          30 |
|      94 | 0xFFFEEB0A  |  4294896394 |
|      95 | 0x5349      |       21321 |
|      96 | 0x222D      |        8749 |
|      97 | 0x1CA7      |        7335 |
|      98 | 0x1CA8      |        7336 |
|      99 | 0x1CA9      |        7337 |
|     100 | 0x1CAA      |        7338 |
|     101 | 0x1CAB      |        7339 |
|     102 | 0x1CAC      |        7340 |

## String References

- **7324**: Enter? [Yes./No.]
- **7327**: Enter through the door? [Yes./No.]
- **7328**: Leave through the door? [Yes./No.]
- **7331**: You find $6, but you are unable to decipher it.
- **7332**: Ah, now I see. Who would've thought a tomb was hidden here?

## Events

### Event 65535

#### Metadata

| Field        | Value   |
|--------------|---------|
| Entrypoint   | 0x0000  |
| Data Size    | 1 bytes |
| Instructions | 1       |

```
      00 01 02 03 04 05 06 07  08 09 0A 0B 0C 0D 0E 0F
      -- -- -- -- -- -- -- --  -- -- -- -- -- -- -- --
0000: 00                                                .               
```

#### Opcodes

```
  0: 0x0000 [0x00] END_REQSTACK()
```

### Event 65535.1

#### Metadata

| Field        | Value    |
|--------------|----------|
| Entrypoint   | 0x0001   |
| Data Size    | 37 bytes |
| Instructions | 5        |

```
      00 01 02 03 04 05 06 07  08 09 0A 0B 0C 0D 0E 0F
      -- -- -- -- -- -- -- --  -- -- -- -- -- -- -- --
0000:    03 00 00 07 7F 1A 4B  00 66 01 00 F8 FF FF 7F   ......K.f......
0010: F8 FF FF 7F 73 68 61 30  53 F8 FF FF 7F F8 FF FF  ....sha0S.......
0020: 7F 73 68 61 30 00                                 .sha0.          
```

#### Opcodes

```
  0: 0x0001 [0x03] ExtData[1]->WorkLocal[0] = Entity->Race
  1: 0x0006 [0x1A] CALL_SUBROUTINE(address=0x004B)
  2: 0x0009 [0x66] LOAD_EXT_SCHEDULER_MAIN: Load scheduler "sha0" with entities [EventEntity, EventEntity], work=ExtData[1]->WorkLocal[1]
  3: 0x0018 [0x53] WAIT_SCHEDULER_TASK: Wait for scheduler "sha0" with entities [EventEntity, EventEntity]
  4: 0x0025 [0x00] END_REQSTACK()
```

### Event 65535.2

#### Metadata

| Field        | Value     |
|--------------|-----------|
| Entrypoint   | 0x0026    |
| Data Size    | 185 bytes |
| Instructions | 13        |

```
      00 01 02 03 04 05 06 07  08 09 0A 0B 0C 0D 0E 0F
      -- -- -- -- -- -- -- --  -- -- -- -- -- -- -- --
0020:                   03 00  00 07 7F 1A 4B 00 66 01        ......K.f.
0030: 00 F8 FF FF 7F F8 FF FF  7F 73 68 61 31 53 F8 FF  .........sha1S..
0040: FF 7F F8 FF FF 7F 73 68  61 31 00 03 01 00 00 00  ......sha1......
0050: 02 01 00 00 80 05 60 00  08 01 00 01 80 01 65 00  ......`.......e.
0060: 08 01 00 02 80 14 01 00  03 80 07 01 00 04 80 1B  ................
0070: 03 01 00 00 00 02 01 00  00 80 05 85 00 08 01 00  ................
0080: 01 80 01 8A 00 08 01 00  02 80 14 01 00 03 80 07  ................
0090: 01 00 05 80 1B 03 01 00  00 00 02 01 00 00 80 05  ................
00A0: AA 00 08 01 00 01 80 01  AF 00 08 01 00 02 80 14  ................
00B0: 01 00 03 80 07 01 00 06  80 1B 03 01 00 00 00 02  ................
00C0: 01 00 00 80 05 CF 00 08  01 00 01 80 01 D4 00 08  ................
00D0: 01 00 02 80 14 01 00 03  80 07 01 00 07 80 1B     ............... 
```

#### Opcodes

```
  0: 0x0026 [0x03] ExtData[1]->WorkLocal[0] = Entity->Race
  1: 0x002B [0x1A] CALL_SUBROUTINE(address=0x004B)
  2: 0x002E [0x66] LOAD_EXT_SCHEDULER_MAIN: Load scheduler "sha1" with entities [EventEntity, EventEntity], work=ExtData[1]->WorkLocal[1]
  3: 0x003D [0x53] WAIT_SCHEDULER_TASK: Wait for scheduler "sha1" with entities [EventEntity, EventEntity]
  4: 0x004A [0x00] END_REQSTACK()

SUBROUTINE_004B:
  5: 0x004B [0x03] ExtData[1]->WorkLocal[1] = ExtData[1]->WorkLocal[0]
  6: 0x0050 [0x02] IF !(ExtData[1]->WorkLocal[1] > 5*) GOTO 0x0060
  7: 0x0058 [0x08] ExtData[1]->WorkLocal[1] -= 1*
  8: 0x005D [0x01] GOTO 0x0065
  9: 0x0060 [0x08] ExtData[1]->WorkLocal[1] -= 2*

SUBROUTINE_0065:
 10: 0x0065 [0x14] ExtData[1]->WorkLocal[1] *= 10*
 11: 0x006A [0x07] ExtData[1]->WorkLocal[1] += 9*
 12: 0x006F [0x1B] RETURN
```

#### Data or dead code:

```
# Dead code (unreachable instructions):
     0x0070 [0x03] ExtData[1]->WorkLocal[1] = ExtData[1]->WorkLocal[0]
     0x0075 [0x02] IF !(ExtData[1]->WorkLocal[1] > 5*) GOTO 0x0085
     0x007D [0x08] ExtData[1]->WorkLocal[1] -= 1*
     0x0082 [0x01] GOTO 0x008A
     0x0085 [0x08] ExtData[1]->WorkLocal[1] -= 2*
     0x008A [0x14] ExtData[1]->WorkLocal[1] *= 10*
     0x008F [0x07] ExtData[1]->WorkLocal[1] += 70*
     0x0094 [0x1B] RETURN
     0x0095 [0x03] ExtData[1]->WorkLocal[1] = ExtData[1]->WorkLocal[0]
     0x009A [0x02] IF !(ExtData[1]->WorkLocal[1] > 5*) GOTO 0x00AA
     0x00A2 [0x08] ExtData[1]->WorkLocal[1] -= 1*
     0x00A7 [0x01] GOTO 0x00AF
     0x00AA [0x08] ExtData[1]->WorkLocal[1] -= 2*
     0x00AF [0x14] ExtData[1]->WorkLocal[1] *= 10*
     0x00B4 [0x07] ExtData[1]->WorkLocal[1] += 140*
     0x00B9 [0x1B] RETURN
     0x00BA [0x03] ExtData[1]->WorkLocal[1] = ExtData[1]->WorkLocal[0]
     0x00BF [0x02] IF !(ExtData[1]->WorkLocal[1] > 5*) GOTO 0x00CF
     0x00C7 [0x08] ExtData[1]->WorkLocal[1] -= 1*
     0x00CC [0x01] GOTO 0x00D4
     0x00CF [0x08] ExtData[1]->WorkLocal[1] -= 2*
     0x00D4 [0x14] ExtData[1]->WorkLocal[1] *= 10*
     0x00D9 [0x07] ExtData[1]->WorkLocal[1] += 210*
     0x00DE [0x1B] RETURN
```

### Event 9

#### Metadata

| Field        | Value     |
|--------------|-----------|
| Entrypoint   | 0x00DF    |
| Data Size    | 132 bytes |
| Instructions | 18        |

```
      00 01 02 03 04 05 06 07  08 09 0A 0B 0C 0D 0E 0F
      -- -- -- -- -- -- -- --  -- -- -- -- -- -- -- --
00D0:                                               42                 B
00E0: 46 01 38 08 80 62 01 80  F0 FF FF 7F F0 FF FF 7F  F.8..b..........
00F0: 6D 61 69 6E 09 80 1C 0A  80 92 01 F8 FF FF 7F 1C  main............
0100: 0B 80 45 0C 80 F0 FF FF  7F F0 FF FF 7F 66 64 6F  ..E..........fdo
0110: 31 09 80 55 0C 80 F0 FF  FF 7F F0 FF FF 7F 66 64  1..U..........fd
0120: 6F 31 47 00 0D 80 0E 80  0F 80 10 80 47 01 37 0D  o1G.........G.7.
0130: 80 0E 80 0F 80 10 80 62  02 80 F0 FF FF 7F F0 FF  .......b........
0140: FF 7F 6D 61 69 6E 09 80  92 01 F8 FF FF 7F 45 0C  ..main........E.
0150: 80 F0 FF FF 7F F0 FF FF  7F 66 64 69 32 09 80 46  .........fdi2..F
0160: 00 21 00                                          .!.             
```

#### Opcodes

```
  0: 0x00DF [0x42] SET_CLI_EVENT_CANCEL_DATA()
  1: 0x00E0 [0x46] CAMERA_CONTROL: Disable user control
  2: 0x00E2 [0x38] SET_CLIENT_EVENT_MODE(mode=3*)
  3: 0x00E5 [0x62] LOAD_EVENT_SCHEDULER: Load scheduler "main" with entities [LocalPlayer, LocalPlayer], work=[1*, 0*]
  4: 0x00F6 [0x1C] WAIT(120* ticks)
  5: 0x00F9 [0x92] EventEntity->Render.Flags3 ^= 0x01
  6: 0x00FF [0x1C] WAIT(60* ticks)
  7: 0x0102 [0x45] LOAD_SCHEDULED_TASK: Load scheduler "fdo1" with entities [LocalPlayer, LocalPlayer], work=[200*, 0*]
  8: 0x0113 [0x55] WAIT_LOAD_SCHEDULER: Wait for scheduler "fdo1" with entities [LocalPlayer, LocalPlayer], work=200*
  9: 0x0122 [0x47] UPDATE_PLAYER_POS(-81.000*, -96.145*, -1.000*, yaw=265.2°*)
 10: 0x012C [0x47] WAIT_PLAYER_POS_UPDATE
 11: 0x012E [0x37] UPDATE_EVENT_POSITION_AND_DIR: x=-81.000*, z=-96.145*, y=-1.000*, direction=265.2°*
 12: 0x0137 [0x62] LOAD_EVENT_SCHEDULER: Load scheduler "main" with entities [LocalPlayer, LocalPlayer], work=[2*, 0*]
 13: 0x0148 [0x92] EventEntity->Render.Flags3 ^= 0x01
 14: 0x014E [0x45] LOAD_SCHEDULED_TASK: Load scheduler "fdi2" with entities [LocalPlayer, LocalPlayer], work=[200*, 0*]
 15: 0x015F [0x46] CAMERA_CONTROL: Restore default settings
 16: 0x0161 [0x21] END_EVENT
 17: 0x0162 [0x00] END_REQSTACK()
```

### Event 10

#### Metadata

| Field        | Value     |
|--------------|-----------|
| Entrypoint   | 0x0163    |
| Data Size    | 171 bytes |
| Instructions | 27        |

```
      00 01 02 03 04 05 06 07  08 09 0A 0B 0C 0D 0E 0F
      -- -- -- -- -- -- -- --  -- -- -- -- -- -- -- --
0160:          24 11 80 01 80  09 80 25 02 00 10 09 80     $......%.....
0170: 00 0C 02 06 02 10 03 01  10 12 80 43 00 43 01 02  ...........C.C..
0180: 02 10 12 80 00 09 02 42  46 01 38 08 80 62 01 80  .......BF.8..b..
0190: F0 FF FF 7F F0 FF FF 7F  6D 61 69 6E 09 80 1C 0A  ........main....
01A0: 80 92 01 F8 FF FF 7F 1C  0B 80 45 0C 80 F0 FF FF  ..........E.....
01B0: 7F F0 FF FF 7F 66 64 6F  31 09 80 55 0C 80 F0 FF  .....fdo1..U....
01C0: FF 7F F0 FF FF 7F 66 64  6F 31 47 00 13 80 14 80  ......fdo1G.....
01D0: 15 80 16 80 47 01 37 13  80 14 80 15 80 16 80 62  ....G.7........b
01E0: 02 80 F0 FF FF 7F F0 FF  FF 7F 6D 61 69 6E 09 80  ..........main..
01F0: 92 00 F8 FF FF 7F 45 0C  80 F0 FF FF 7F F0 FF FF  ......E.........
0200: 7F 66 64 69 32 09 80 46  00 01 0C 02 21 00        .fdi2..F....!.  
```

#### Opcodes

```
  0: 0x0163 [0x24] CREATE_DIALOG(message_id=7324*, default_option=1*, option_flags=0*)
    → "Enter? [Yes./No.]"
  1: 0x016A [0x25] WAIT_DIALOG_SELECT()
  2: 0x016B [0x02] IF !(Work_Zone[0] == 0*) GOTO 0x020C
  3: 0x0173 [0x06] Work_Zone[2] = 0
  4: 0x0176 [0x03] Work_Zone[1] = 100*
  5: 0x017B [0x43] SEND_EVENT_UPDATE: Send pending tag to server (packet 0x005B)
  6: 0x017D [0x43] SEND_EVENT_UPDATE: Check pending flag (skip if not pending)
  7: 0x017F [0x02] IF !(Work_Zone[2] == 100*) GOTO 0x0209
  8: 0x0187 [0x42] SET_CLI_EVENT_CANCEL_DATA()
  9: 0x0188 [0x46] CAMERA_CONTROL: Disable user control
 10: 0x018A [0x38] SET_CLIENT_EVENT_MODE(mode=3*)
 11: 0x018D [0x62] LOAD_EVENT_SCHEDULER: Load scheduler "main" with entities [LocalPlayer, LocalPlayer], work=[1*, 0*]
 12: 0x019E [0x1C] WAIT(120* ticks)
 13: 0x01A1 [0x92] EventEntity->Render.Flags3 ^= 0x01
 14: 0x01A7 [0x1C] WAIT(60* ticks)
 15: 0x01AA [0x45] LOAD_SCHEDULED_TASK: Load scheduler "fdo1" with entities [LocalPlayer, LocalPlayer], work=[200*, 0*]
 16: 0x01BB [0x55] WAIT_LOAD_SCHEDULER: Wait for scheduler "fdo1" with entities [LocalPlayer, LocalPlayer], work=200*
 17: 0x01CA [0x47] UPDATE_PLAYER_POS(-81.500*, -127.920*, 7.297*, yaw=100.3°*)
 18: 0x01D4 [0x47] WAIT_PLAYER_POS_UPDATE
 19: 0x01D6 [0x37] UPDATE_EVENT_POSITION_AND_DIR: x=-81.500*, z=-127.920*, y=7.297*, direction=100.3°*
 20: 0x01DF [0x62] LOAD_EVENT_SCHEDULER: Load scheduler "main" with entities [LocalPlayer, LocalPlayer], work=[2*, 0*]
 21: 0x01F0 [0x92] EventEntity->Render.Flags3 = Flags3  // No change (flag=0)
 22: 0x01F6 [0x45] LOAD_SCHEDULED_TASK: Load scheduler "fdi2" with entities [LocalPlayer, LocalPlayer], work=[200*, 0*]
 23: 0x0207 [0x46] CAMERA_CONTROL: Restore default settings
 24: 0x0209 [0x01] GOTO 0x020C

SUBROUTINE_020C:
 25: 0x020C [0x21] END_EVENT
 26: 0x020D [0x00] END_REQSTACK()
```

### Event 0

#### Metadata

| Field        | Value   |
|--------------|---------|
| Entrypoint   | 0x020E  |
| Data Size    | 1 bytes |
| Instructions | 1       |

```
      00 01 02 03 04 05 06 07  08 09 0A 0B 0C 0D 0E 0F
      -- -- -- -- -- -- -- --  -- -- -- -- -- -- -- --
0200:                                            00                   . 
```

#### Opcodes

```
  0: 0x020E [0x00] END_REQSTACK()
```

### Event 65534

#### Metadata

| Field        | Value   |
|--------------|---------|
| Entrypoint   | 0x020F  |
| Data Size    | 1 bytes |
| Instructions | 1       |

```
      00 01 02 03 04 05 06 07  08 09 0A 0B 0C 0D 0E 0F
      -- -- -- -- -- -- -- --  -- -- -- -- -- -- -- --
0200:                                               00                 .
```

#### Opcodes

```
  0: 0x020F [0x00] END_REQSTACK()
```

### Event 65535.3

#### Metadata

| Field        | Value    |
|--------------|----------|
| Entrypoint   | 0x0210   |
| Data Size    | 10 bytes |
| Instructions | 2        |

```
      00 01 02 03 04 05 06 07  08 09 0A 0B 0C 0D 0E 0F
      -- -- -- -- -- -- -- --  -- -- -- -- -- -- -- --
0210: 37 17 80 18 80 19 80 1A  80 00                    7.........      
```

#### Opcodes

```
  0: 0x0210 [0x37] UPDATE_EVENT_POSITION_AND_DIR: x=0.936*, z=-100.726*, y=-0.249*, direction=90.0°*
  1: 0x0219 [0x00] END_REQSTACK()
```

### Event 65535.4

#### Metadata

| Field        | Value    |
|--------------|----------|
| Entrypoint   | 0x021A   |
| Data Size    | 10 bytes |
| Instructions | 2        |

```
      00 01 02 03 04 05 06 07  08 09 0A 0B 0C 0D 0E 0F
      -- -- -- -- -- -- -- --  -- -- -- -- -- -- -- --
0210:                                37 1B 80 1C 80 1D            7.....
0220: 80 1E 80 00                                       ....            
```

#### Opcodes

```
  0: 0x021A [0x37] UPDATE_EVENT_POSITION_AND_DIR: x=1.255*, z=-106.279*, y=-0.250*, direction=71.8°*
  1: 0x0223 [0x00] END_REQSTACK()
```

### Event 65535.5

#### Metadata

| Field        | Value    |
|--------------|----------|
| Entrypoint   | 0x0224   |
| Data Size    | 10 bytes |
| Instructions | 2        |

```
      00 01 02 03 04 05 06 07  08 09 0A 0B 0C 0D 0E 0F
      -- -- -- -- -- -- -- --  -- -- -- -- -- -- -- --
0220:             37 1F 80 20  80 1D 80 21 80 00            7.. ...!..  
```

#### Opcodes

```
  0: 0x0224 [0x37] UPDATE_EVENT_POSITION_AND_DIR: x=-1.909*, z=-101.350*, y=-0.250*, direction=345.4°*
  1: 0x022D [0x00] END_REQSTACK()
```

### Event 65535.6

#### Metadata

| Field        | Value    |
|--------------|----------|
| Entrypoint   | 0x022E   |
| Data Size    | 34 bytes |
| Instructions | 8        |

```
      00 01 02 03 04 05 06 07  08 09 0A 0B 0C 0D 0E 0F
      -- -- -- -- -- -- -- --  -- -- -- -- -- -- -- --
0220:                                            32 22                2"
0230: 80 1F 00 23 80 24 80 19  80 1F 01 1F 00 25 80 26  ...#.$.......%.&
0240: 80 19 80 1F 01 1F 00 27  80 28 80 19 80 1F 01 00  .......'.(......
```

#### Opcodes

```
  0: 0x022E [0x32] ExtData[1]->MainSpeed = 13* * 0.1
  1: 0x0231 [0x1F] MOVE_ENTITY: EventEntity moves to X=-1.857*, Z=-100.956*, Y=-0.249*
  2: 0x0239 [0x1F] MOVE_ENTITY: Update entity position (mode=1)
  3: 0x023B [0x1F] MOVE_ENTITY: EventEntity moves to X=-1.999*, Z=-106.152*, Y=-0.249*
  4: 0x0243 [0x1F] MOVE_ENTITY: Update entity position (mode=1)
  5: 0x0245 [0x1F] MOVE_ENTITY: EventEntity moves to X=0.516*, Z=-106.583*, Y=-0.249*
  6: 0x024D [0x1F] MOVE_ENTITY: Update entity position (mode=1)
  7: 0x024F [0x00] END_REQSTACK()
```

### Event 65535.7

#### Metadata

| Field        | Value    |
|--------------|----------|
| Entrypoint   | 0x0250   |
| Data Size    | 14 bytes |
| Instructions | 4        |

```
      00 01 02 03 04 05 06 07  08 09 0A 0B 0C 0D 0E 0F
      -- -- -- -- -- -- -- --  -- -- -- -- -- -- -- --
0250: 32 22 80 1F 00 29 80 2A  80 1D 80 1F 01 00        2"...).*......  
```

#### Opcodes

```
  0: 0x0250 [0x32] ExtData[1]->MainSpeed = 13* * 0.1
  1: 0x0253 [0x1F] MOVE_ENTITY: EventEntity moves to X=-1.130*, Z=-100.837*, Y=-0.250*
  2: 0x025B [0x1F] MOVE_ENTITY: Update entity position (mode=1)
  3: 0x025D [0x00] END_REQSTACK()
```

### Event 65535.8

#### Metadata

| Field        | Value    |
|--------------|----------|
| Entrypoint   | 0x025E   |
| Data Size    | 14 bytes |
| Instructions | 4        |

```
      00 01 02 03 04 05 06 07  08 09 0A 0B 0C 0D 0E 0F
      -- -- -- -- -- -- -- --  -- -- -- -- -- -- -- --
0250:                                            32 22                2"
0260: 80 1F 00 2B 80 2C 80 19  80 1F 01 00              ...+.,......    
```

#### Opcodes

```
  0: 0x025E [0x32] ExtData[1]->MainSpeed = 13* * 0.1
  1: 0x0261 [0x1F] MOVE_ENTITY: EventEntity moves to X=-0.801*, Z=-106.765*, Y=-0.249*
  2: 0x0269 [0x1F] MOVE_ENTITY: Update entity position (mode=1)
  3: 0x026B [0x00] END_REQSTACK()
```

### Event 65535.9

#### Metadata

| Field        | Value   |
|--------------|---------|
| Entrypoint   | 0x026C  |
| Data Size    | 6 bytes |
| Instructions | 2       |

```
      00 01 02 03 04 05 06 07  08 09 0A 0B 0C 0D 0E 0F
      -- -- -- -- -- -- -- --  -- -- -- -- -- -- -- --
0260:                                      03 02 10 0B              ....
0270: 7F 00                                             ..              
```

#### Opcodes

```
  0: 0x026C [0x03] Work_Zone[2] = (Entity->Render.Flags01 >> 25) & 1
  1: 0x0271 [0x00] END_REQSTACK()
```

### Event 65535.10

#### Metadata

| Field        | Value   |
|--------------|---------|
| Entrypoint   | 0x0272  |
| Data Size    | 6 bytes |
| Instructions | 2       |

```
      00 01 02 03 04 05 06 07  08 09 0A 0B 0C 0D 0E 0F
      -- -- -- -- -- -- -- --  -- -- -- -- -- -- -- --
0270:       03 02 10 07 7F 00                             ......        
```

#### Opcodes

```
  0: 0x0272 [0x03] Work_Zone[2] = Entity->Race
  1: 0x0277 [0x00] END_REQSTACK()
```

### Event 65535.11

#### Metadata

| Field        | Value   |
|--------------|---------|
| Entrypoint   | 0x0278  |
| Data Size    | 6 bytes |
| Instructions | 2       |

```
      00 01 02 03 04 05 06 07  08 09 0A 0B 0C 0D 0E 0F
      -- -- -- -- -- -- -- --  -- -- -- -- -- -- -- --
0270:                          03 09 10 07 7F 00                ......  
```

#### Opcodes

```
  0: 0x0278 [0x03] Work_Zone[9] = Entity->Race
  1: 0x027D [0x00] END_REQSTACK()
```

### Event 65535.12

#### Metadata

| Field        | Value   |
|--------------|---------|
| Entrypoint   | 0x027E  |
| Data Size    | 6 bytes |
| Instructions | 2       |

```
      00 01 02 03 04 05 06 07  08 09 0A 0B 0C 0D 0E 0F
      -- -- -- -- -- -- -- --  -- -- -- -- -- -- -- --
0270:                                            03 09                ..
0280: 10 06 7F 00                                       ....            
```

#### Opcodes

```
  0: 0x027E [0x03] Work_Zone[9] = Entity->JobId (if LocalPlayer)
  1: 0x0283 [0x00] END_REQSTACK()
```

### Event 65535.13

#### Metadata

| Field        | Value   |
|--------------|---------|
| Entrypoint   | 0x0284  |
| Data Size    | 6 bytes |
| Instructions | 2       |

```
      00 01 02 03 04 05 06 07  08 09 0A 0B 0C 0D 0E 0F
      -- -- -- -- -- -- -- --  -- -- -- -- -- -- -- --
0280:             03 08 10 06  7F 00                        ......      
```

#### Opcodes

```
  0: 0x0284 [0x03] Work_Zone[8] = Entity->JobId (if LocalPlayer)
  1: 0x0289 [0x00] END_REQSTACK()
```

### Event 65535.14

#### Metadata

| Field        | Value    |
|--------------|----------|
| Entrypoint   | 0x028A   |
| Data Size    | 10 bytes |
| Instructions | 2        |

```
      00 01 02 03 04 05 06 07  08 09 0A 0B 0C 0D 0E 0F
      -- -- -- -- -- -- -- --  -- -- -- -- -- -- -- --
0280:                                37 2D 80 2E 80 2F            7-.../
0290: 80 30 80 00                                       .0..            
```

#### Opcodes

```
  0: 0x028A [0x37] UPDATE_EVENT_POSITION_AND_DIR: x=-33.746*, z=17.272*, y=7.221*, direction=221.1°*
  1: 0x0293 [0x00] END_REQSTACK()
```

### Event 65535.15

#### Metadata

| Field        | Value    |
|--------------|----------|
| Entrypoint   | 0x0294   |
| Data Size    | 10 bytes |
| Instructions | 2        |

```
      00 01 02 03 04 05 06 07  08 09 0A 0B 0C 0D 0E 0F
      -- -- -- -- -- -- -- --  -- -- -- -- -- -- -- --
0290:             37 31 80 32  80 33 80 34 80 00            71.2.3.4..  
```

#### Opcodes

```
  0: 0x0294 [0x37] UPDATE_EVENT_POSITION_AND_DIR: x=-51.495*, z=17.704*, y=9.000*, direction=160.7°*
  1: 0x029D [0x00] END_REQSTACK()
```

### Event 65535.16

#### Metadata

| Field        | Value    |
|--------------|----------|
| Entrypoint   | 0x029E   |
| Data Size    | 58 bytes |
| Instructions | 14       |

```
      00 01 02 03 04 05 06 07  08 09 0A 0B 0C 0D 0E 0F
      -- -- -- -- -- -- -- --  -- -- -- -- -- -- -- --
0290:                                            7B F8                {.
02A0: FF FF 7F 1C 35 80 32 36  80 1F 00 37 80 38 80 39  ....5.26...7.8.9
02B0: 80 1F 01 1F 00 3A 80 3B  80 3C 80 1F 01 1F 00 3D  .....:.;.<.....=
02C0: 80 3E 80 3F 80 1F 01 1F  00 40 80 41 80 42 80 1F  .>.?.....@.A.B..
02D0: 01 6F 1E 21 E2 0B 01 00                           .o.!....        
```

#### Opcodes

```
  0: 0x029E [0x7B] EventEntity stops talking
  1: 0x02A3 [0x1C] WAIT(90* ticks)
  2: 0x02A6 [0x32] ExtData[1]->MainSpeed = 40* * 0.1
  3: 0x02A9 [0x1F] MOVE_ENTITY: EventEntity moves to X=-49.133*, Z=17.316*, Y=8.999*
  4: 0x02B1 [0x1F] MOVE_ENTITY: Update entity position (mode=1)
  5: 0x02B3 [0x1F] MOVE_ENTITY: EventEntity moves to X=-45.537*, Z=18.472*, Y=8.500*
  6: 0x02BB [0x1F] MOVE_ENTITY: Update entity position (mode=1)
  7: 0x02BD [0x1F] MOVE_ENTITY: EventEntity moves to X=-40.720*, Z=19.975*, Y=7.999*
  8: 0x02C5 [0x1F] MOVE_ENTITY: Update entity position (mode=1)
  9: 0x02C7 [0x1F] MOVE_ENTITY: EventEntity moves to X=-37.826*, Z=20.893*, Y=7.749*
 10: 0x02CF [0x1F] MOVE_ENTITY: Update entity position (mode=1)
 11: 0x02D1 [0x6F] WAIT_FRAME_DELAY: Yield until WaitTime reaches zero
 12: 0x02D2 [0x1E] EventEntity looks at Rahal (ID: 17556001/0x010BE221) and starts talking
 13: 0x02D7 [0x00] END_REQSTACK()
```

### Event 65535.17

#### Metadata

| Field        | Value    |
|--------------|----------|
| Entrypoint   | 0x02D8   |
| Data Size    | 20 bytes |
| Instructions | 3        |

```
      00 01 02 03 04 05 06 07  08 09 0A 0B 0C 0D 0E 0F
      -- -- -- -- -- -- -- --  -- -- -- -- -- -- -- --
02D0:                          37 43 80 44 80 45 80 46          7C.D.E.F
02E0: 80 79 00 F8 FF FF 7F 1B  E2 0B 01 00              .y..........    
```

#### Opcodes

```
  0: 0x02D8 [0x37] UPDATE_EVENT_POSITION_AND_DIR: x=-36.408*, z=21.542*, y=7.499*, direction=118.8°*
  1: 0x02E1 [0x79] EventEntity looks at Destin (ID: 17555995/0x010BE21B) (Basic look)
  2: 0x02EB [0x00] END_REQSTACK()
```

### Event 6

#### Metadata

| Field        | Value     |
|--------------|-----------|
| Entrypoint   | 0x02EC    |
| Data Size    | 230 bytes |
| Instructions | 30        |

```
      00 01 02 03 04 05 06 07  08 09 0A 0B 0C 0D 0E 0F
      -- -- -- -- -- -- -- --  -- -- -- -- -- -- -- --
02E0:                                      24 47 80 01              $G..
02F0: 80 09 80 25 02 00 10 09  80 00 D0 03 20 01 46 01  ...%........ .F.
0300: 42 45 0C 80 F0 FF FF 7F  F0 FF FF 7F 66 64 6F 31  BE..........fdo1
0310: 09 80 55 0C 80 F0 FF FF  7F F0 FF FF 7F 66 64 6F  ..U..........fdo
0320: 31 38 48 80 47 00 49 80  4A 80 4B 80 4C 80 47 01  18H.G.I.J.K.L.G.
0330: 37 4D 80 4E 80 45 80 4F  80 45 50 80 F0 FF FF 7F  7M.N.E.O.EP.....
0340: F0 FF FF 7F 79 30 30 31  09 80 55 50 80 F0 FF FF  ....y001..UP....
0350: 7F F0 FF FF 7F 79 30 30  31 45 0C 80 F0 FF FF 7F  .....y001E......
0360: F0 FF FF 7F 66 64 69 31  09 80 55 0C 80 F0 FF FF  ....fdi1..U.....
0370: 7F F0 FF FF 7F 66 64 69  31 27 03 16 E2 0B 01 03  .....fdi1'......
0380: 1C 0B 80 32 22 80 1F 00  49 80 4A 80 4B 80 1F 01  ...2"...I.J.K...
0390: 27 03 16 E2 0B 01 04 1C  0B 80 45 0C 80 F0 FF FF  '.........E.....
03A0: 7F F0 FF FF 7F 66 64 6F  32 09 80 55 0C 80 F0 FF  .....fdo2..U....
03B0: FF 7F F0 FF FF 7F 66 64  6F 32 46 00 45 0C 80 F0  ......fdo2F.E...
03C0: FF FF 7F F0 FF FF 7F 66  64 69 32 09 80 01 D0 03  .......fdi2.....
03D0: 21 00                                             !.              
```

#### Opcodes

```
  0: 0x02EC [0x24] CREATE_DIALOG(message_id=7327*, default_option=1*, option_flags=0*)
    → "Enter through the door? [Yes./No.]"
  1: 0x02F3 [0x25] WAIT_DIALOG_SELECT()
  2: 0x02F4 [0x02] IF !(Work_Zone[0] == 0*) GOTO 0x03D0
  3: 0x02FC [0x20] SET_CLI_EVENT_UC_FLAG: Lock player control
  4: 0x02FE [0x46] CAMERA_CONTROL: Disable user control
  5: 0x0300 [0x42] SET_CLI_EVENT_CANCEL_DATA()
  6: 0x0301 [0x45] LOAD_SCHEDULED_TASK: Load scheduler "fdo1" with entities [LocalPlayer, LocalPlayer], work=[200*, 0*]
  7: 0x0312 [0x55] WAIT_LOAD_SCHEDULER: Wait for scheduler "fdo1" with entities [LocalPlayer, LocalPlayer], work=200*
  8: 0x0321 [0x38] SET_CLIENT_EVENT_MODE(mode=19*)
  9: 0x0324 [0x47] UPDATE_PLAYER_POS(-41.692*, 19.981*, 8.000*, yaw=180.0°*)
 10: 0x032E [0x47] WAIT_PLAYER_POS_UPDATE
 11: 0x0330 [0x37] UPDATE_EVENT_POSITION_AND_DIR: x=-36.253*, z=19.826*, y=7.499*, direction=183.7°*
 12: 0x0339 [0x45] LOAD_SCHEDULED_TASK: Load scheduler "y001" with entities [LocalPlayer, LocalPlayer], work=[209*, 0*]
 13: 0x034A [0x55] WAIT_LOAD_SCHEDULER: Wait for scheduler "y001" with entities [LocalPlayer, LocalPlayer], work=209*
 14: 0x0359 [0x45] LOAD_SCHEDULED_TASK: Load scheduler "fdi1" with entities [LocalPlayer, LocalPlayer], work=[200*, 0*]
 15: 0x036A [0x55] WAIT_LOAD_SCHEDULER: Wait for scheduler "fdi1" with entities [LocalPlayer, LocalPlayer], work=200*
 16: 0x0379 [0x27] REQ_SET(priority=0x03, entity_id=Heavy Stone Door (ID: 17555990/0x010BE216), tag_num=0x03)
 17: 0x0380 [0x1C] WAIT(60* ticks)
 18: 0x0383 [0x32] ExtData[1]->MainSpeed = 13* * 0.1
 19: 0x0386 [0x1F] MOVE_ENTITY: EventEntity moves to X=-41.692*, Z=19.981*, Y=8.000*
 20: 0x038E [0x1F] MOVE_ENTITY: Update entity position (mode=1)
 21: 0x0390 [0x27] REQ_SET(priority=0x03, entity_id=Heavy Stone Door (ID: 17555990/0x010BE216), tag_num=0x04)
 22: 0x0397 [0x1C] WAIT(60* ticks)
 23: 0x039A [0x45] LOAD_SCHEDULED_TASK: Load scheduler "fdo2" with entities [LocalPlayer, LocalPlayer], work=[200*, 0*]
 24: 0x03AB [0x55] WAIT_LOAD_SCHEDULER: Wait for scheduler "fdo2" with entities [LocalPlayer, LocalPlayer], work=200*
 25: 0x03BA [0x46] CAMERA_CONTROL: Restore default settings
 26: 0x03BC [0x45] LOAD_SCHEDULED_TASK: Load scheduler "fdi2" with entities [LocalPlayer, LocalPlayer], work=[200*, 0*]
 27: 0x03CD [0x01] GOTO 0x03D0

SUBROUTINE_03D0:
 28: 0x03D0 [0x21] END_EVENT
 29: 0x03D1 [0x00] END_REQSTACK()
```

### Event 7

#### Metadata

| Field        | Value     |
|--------------|-----------|
| Entrypoint   | 0x03D2    |
| Data Size    | 230 bytes |
| Instructions | 30        |

```
      00 01 02 03 04 05 06 07  08 09 0A 0B 0C 0D 0E 0F
      -- -- -- -- -- -- -- --  -- -- -- -- -- -- -- --
03D0:       24 51 80 01 80 09  80 25 02 00 10 09 80 00    $Q.....%......
03E0: B6 04 20 01 46 01 42 45  0C 80 F0 FF FF 7F F0 FF  .. .F.BE........
03F0: FF 7F 66 64 6F 31 09 80  55 0C 80 F0 FF FF 7F F0  ..fdo1..U.......
0400: FF FF 7F 66 64 6F 31 38  48 80 47 00 4D 80 4E 80  ...fdo18H.G.M.N.
0410: 45 80 09 80 47 01 37 49  80 4A 80 4B 80 52 80 45  E...G.7I.J.K.R.E
0420: 50 80 F0 FF FF 7F F0 FF  FF 7F 79 30 30 30 09 80  P.........y000..
0430: 55 50 80 F0 FF FF 7F F0  FF FF 7F 79 30 30 30 45  UP.........y000E
0440: 0C 80 F0 FF FF 7F F0 FF  FF 7F 66 64 69 31 09 80  ..........fdi1..
0450: 55 0C 80 F0 FF FF 7F F0  FF FF 7F 66 64 69 31 27  U..........fdi1'
0460: 03 16 E2 0B 01 03 1C 0B  80 32 22 80 1F 00 4D 80  .........2"...M.
0470: 4E 80 45 80 1F 01 27 03  16 E2 0B 01 04 1C 0B 80  N.E...'.........
0480: 45 0C 80 F0 FF FF 7F F0  FF FF 7F 66 64 6F 32 09  E..........fdo2.
0490: 80 55 0C 80 F0 FF FF 7F  F0 FF FF 7F 66 64 6F 32  .U..........fdo2
04A0: 46 00 45 0C 80 F0 FF FF  7F F0 FF FF 7F 66 64 69  F.E..........fdi
04B0: 32 09 80 01 B6 04 21 00                           2.....!.        
```

#### Opcodes

```
  0: 0x03D2 [0x24] CREATE_DIALOG(message_id=7328*, default_option=1*, option_flags=0*)
    → "Leave through the door? [Yes./No.]"
  1: 0x03D9 [0x25] WAIT_DIALOG_SELECT()
  2: 0x03DA [0x02] IF !(Work_Zone[0] == 0*) GOTO 0x04B6
  3: 0x03E2 [0x20] SET_CLI_EVENT_UC_FLAG: Lock player control
  4: 0x03E4 [0x46] CAMERA_CONTROL: Disable user control
  5: 0x03E6 [0x42] SET_CLI_EVENT_CANCEL_DATA()
  6: 0x03E7 [0x45] LOAD_SCHEDULED_TASK: Load scheduler "fdo1" with entities [LocalPlayer, LocalPlayer], work=[200*, 0*]
  7: 0x03F8 [0x55] WAIT_LOAD_SCHEDULER: Wait for scheduler "fdo1" with entities [LocalPlayer, LocalPlayer], work=200*
  8: 0x0407 [0x38] SET_CLIENT_EVENT_MODE(mode=19*)
  9: 0x040A [0x47] UPDATE_PLAYER_POS(-36.253*, 19.826*, 7.499*, yaw=0.0°*)
 10: 0x0414 [0x47] WAIT_PLAYER_POS_UPDATE
 11: 0x0416 [0x37] UPDATE_EVENT_POSITION_AND_DIR: x=-41.692*, z=19.981*, y=8.000*, direction=1.3°*
 12: 0x041F [0x45] LOAD_SCHEDULED_TASK: Load scheduler "y000" with entities [LocalPlayer, LocalPlayer], work=[209*, 0*]
 13: 0x0430 [0x55] WAIT_LOAD_SCHEDULER: Wait for scheduler "y000" with entities [LocalPlayer, LocalPlayer], work=209*
 14: 0x043F [0x45] LOAD_SCHEDULED_TASK: Load scheduler "fdi1" with entities [LocalPlayer, LocalPlayer], work=[200*, 0*]
 15: 0x0450 [0x55] WAIT_LOAD_SCHEDULER: Wait for scheduler "fdi1" with entities [LocalPlayer, LocalPlayer], work=200*
 16: 0x045F [0x27] REQ_SET(priority=0x03, entity_id=Heavy Stone Door (ID: 17555990/0x010BE216), tag_num=0x03)
 17: 0x0466 [0x1C] WAIT(60* ticks)
 18: 0x0469 [0x32] ExtData[1]->MainSpeed = 13* * 0.1
 19: 0x046C [0x1F] MOVE_ENTITY: EventEntity moves to X=-36.253*, Z=19.826*, Y=7.499*
 20: 0x0474 [0x1F] MOVE_ENTITY: Update entity position (mode=1)
 21: 0x0476 [0x27] REQ_SET(priority=0x03, entity_id=Heavy Stone Door (ID: 17555990/0x010BE216), tag_num=0x04)
 22: 0x047D [0x1C] WAIT(60* ticks)
 23: 0x0480 [0x45] LOAD_SCHEDULED_TASK: Load scheduler "fdo2" with entities [LocalPlayer, LocalPlayer], work=[200*, 0*]
 24: 0x0491 [0x55] WAIT_LOAD_SCHEDULER: Wait for scheduler "fdo2" with entities [LocalPlayer, LocalPlayer], work=200*
 25: 0x04A0 [0x46] CAMERA_CONTROL: Restore default settings
 26: 0x04A2 [0x45] LOAD_SCHEDULED_TASK: Load scheduler "fdi2" with entities [LocalPlayer, LocalPlayer], work=[200*, 0*]
 27: 0x04B3 [0x01] GOTO 0x04B6

SUBROUTINE_04B6:
 28: 0x04B6 [0x21] END_EVENT
 29: 0x04B7 [0x00] END_REQSTACK()
```

### Event 8

#### Metadata

| Field        | Value     |
|--------------|-----------|
| Entrypoint   | 0x04B8    |
| Data Size    | 837 bytes |
| Instructions | 103       |

```
      00 01 02 03 04 05 06 07  08 09 0A 0B 0C 0D 0E 0F
      -- -- -- -- -- -- -- --  -- -- -- -- -- -- -- --
04B0:                          20 01 46 01 42 45 0C 80           .F.BE..
04C0: F0 FF FF 7F F0 FF FF 7F  66 64 6F 31 09 80 55 0C  ........fdo1..U.
04D0: 80 F0 FF FF 7F F0 FF FF  7F 66 64 6F 31 38 48 80  .........fdo18H.
04E0: 37 53 80 54 80 55 80 56  80 45 50 80 F0 FF FF 7F  7S.T.U.V.EP.....
04F0: F0 FF FF 7F 78 30 30 30  09 80 55 50 80 F0 FF FF  ....x000..UP....
0500: 7F F0 FF FF 7F 78 30 30  30 2F 00 23 E2 0B 01 4E  .....x000/.#...N
0510: 00 23 E2 0B 01 80 23 E2  0B 01 2C F8 FF FF 7F F8  .#....#...,.....
0520: FF FF 7F 72 65 73 30 53  F8 FF FF 7F F8 FF FF 7F  ...res0S........
0530: 72 65 73 30 45 0C 80 F0  FF FF 7F F0 FF FF 7F 66  res0E..........f
0540: 64 69 31 09 80 55 0C 80  F0 FF FF 7F F0 FF FF 7F  di1..U..........
0550: 66 64 69 31 1C 0B 80 2C  F8 FF FF 7F F8 FF FF 7F  fdi1...,........
0560: 72 65 73 32 53 F8 FF FF  7F F8 FF FF 7F 72 65 73  res2S........res
0570: 32 03 09 10 57 80 48 58  80 23 1C 0B 80 27 03 16  2...W.HX.#...'..
0580: E2 0B 01 03 5C 00 59 80  5C 01 59 80 48 5A 80 23  ....\.Y.\.Y.HZ.#
0590: 4A F0 FF FF 7F 23 E2 0B  01 6F 76 F0 FF FF 7F 27  J....#...ov....'
05A0: 04 16 E2 0B 01 04 45 50  80 F0 FF FF 7F F0 FF FF  ......EP........
05B0: 7F 78 30 30 31 09 80 55  50 80 F0 FF FF 7F F0 FF  .x001..UP.......
05C0: FF 7F 78 30 30 31 29 03  23 E2 0B 01 06 2B 23 E2  ..x001).#....+#.
05D0: 0B 01 5B 80 23 45 50 80  F0 FF FF 7F F0 FF FF 7F  ..[.#EP.........
05E0: 78 30 30 32 09 80 27 04  23 E2 0B 01 07 2B 23 E2  x002..'.#....+#.
05F0: 0B 01 5C 80 23 2A 04 23  E2 0B 01 55 50 80 F0 FF  ..\.#*.#...UP...
0600: FF 7F F0 FF FF 7F 78 30  30 32 27 04 23 E2 0B 01  ......x002'.#...
0610: 08 1C 5D 80 45 50 80 F0  FF FF 7F F0 FF FF 7F 78  ..].EP.........x
0620: 30 30 33 09 80 32 22 80  1F 00 5E 80 5F 80 60 80  003..2"...^._.`.
0630: 1F 01 6F 4A F0 FF FF 7F  23 E2 0B 01 6F 76 F0 FF  ..oJ....#...ov..
0640: FF 7F 55 50 80 F0 FF FF  7F F0 FF FF 7F 78 30 30  ..UP.........x00
0650: 33 2A 04 23 E2 0B 01 45  50 80 F0 FF FF 7F F0 FF  3*.#...EP.......
0660: FF 7F 78 30 30 34 09 80  2B 23 E2 0B 01 61 80 23  ..x004..+#...a.#
0670: 2B 23 E2 0B 01 62 80 23  2B 23 E2 0B 01 63 80 23  +#...b.#+#...c.#
0680: 1C 03 80 2C 23 E2 0B 01  23 E2 0B 01 72 65 73 32  ...,#...#...res2
0690: 53 23 E2 0B 01 23 E2 0B  01 72 65 73 32 4A 23 E2  S#...#...res2J#.
06A0: 0B 01 F0 FF FF 7F 1C 5D  80 52 50 80 F0 FF FF 7F  .......].RP.....
06B0: F0 FF FF 7F 78 30 30 34  45 50 80 F0 FF FF 7F F0  ....x004EP......
06C0: FF FF 7F 78 30 30 35 09  80 55 50 80 F0 FF FF 7F  ...x005..UP.....
06D0: F0 FF FF 7F 78 30 30 35  2B 23 E2 0B 01 64 80 23  ....x005+#...d.#
06E0: 45 0C 80 F0 FF FF 7F F0  FF FF 7F 66 64 6F 32 09  E..........fdo2.
06F0: 80 55 0C 80 F0 FF FF 7F  F0 FF FF 7F 66 64 6F 32  .U..........fdo2
0700: 1C 5D 80 27 03 23 E2 0B  01 09 1C 0B 80 45 50 80  .].'.#.......EP.
0710: F0 FF FF 7F F0 FF FF 7F  78 30 30 36 09 80 55 50  ........x006..UP
0720: 80 F0 FF FF 7F F0 FF FF  7F 78 30 30 36 45 0C 80  .........x006E..
0730: F0 FF FF 7F F0 FF FF 7F  66 64 69 31 09 80 55 0C  ........fdi1..U.
0740: 80 F0 FF FF 7F F0 FF FF  7F 66 64 69 31 2B 23 E2  .........fdi1+#.
0750: 0B 01 65 80 23 2A 03 23  E2 0B 01 45 50 80 F0 FF  ..e.#*.#...EP...
0760: FF 7F F0 FF FF 7F 78 30  30 37 09 80 29 03 23 E2  ......x007..).#.
0770: 0B 01 0A 55 50 80 F0 FF  FF 7F F0 FF FF 7F 78 30  ...UP.........x0
0780: 30 37 2B 23 E2 0B 01 66  80 23 27 04 23 E2 0B 01  07+#...f.#'.#...
0790: 0B 1C 0A 80 4A F0 FF FF  7F 23 E2 0B 01 45 50 80  ....J....#...EP.
07A0: F0 FF FF 7F F0 FF FF 7F  78 30 30 38 09 80 55 50  ........x008..UP
07B0: 80 F0 FF FF 7F F0 FF FF  7F 78 30 30 38 1C 0A 80  .........x008...
07C0: 45 0C 80 F0 FF FF 7F F0  FF FF 7F 66 64 6F 32 09  E..........fdo2.
07D0: 80 55 0C 80 F0 FF FF 7F  F0 FF FF 7F 66 64 6F 32  .U..........fdo2
07E0: 5C 00 09 80 5C 01 09 80  46 00 45 0C 80 F0 FF FF  \...\...F.E.....
07F0: 7F F0 FF FF 7F 66 64 69  32 09 80 21 00           .....fdi2..!.   
```

#### Opcodes

```
  0: 0x04B8 [0x20] SET_CLI_EVENT_UC_FLAG: Lock player control
  1: 0x04BA [0x46] CAMERA_CONTROL: Disable user control
  2: 0x04BC [0x42] SET_CLI_EVENT_CANCEL_DATA()
  3: 0x04BD [0x45] LOAD_SCHEDULED_TASK: Load scheduler "fdo1" with entities [LocalPlayer, LocalPlayer], work=[200*, 0*]
  4: 0x04CE [0x55] WAIT_LOAD_SCHEDULER: Wait for scheduler "fdo1" with entities [LocalPlayer, LocalPlayer], work=200*
  5: 0x04DD [0x38] SET_CLIENT_EVENT_MODE(mode=19*)
  6: 0x04E0 [0x37] UPDATE_EVENT_POSITION_AND_DIR: x=-71.824*, z=20.086*, y=8.750*, direction=176.4°*
  7: 0x04E9 [0x45] LOAD_SCHEDULED_TASK: Load scheduler "x000" with entities [LocalPlayer, LocalPlayer], work=[209*, 0*]
  8: 0x04FA [0x55] WAIT_LOAD_SCHEDULER: Wait for scheduler "x000" with entities [LocalPlayer, LocalPlayer], work=209*
  9: 0x0509 [0x2F] Rochefogne (ID: 17556003/0x010BE223)->Render.Flags0 &= ~0x80000 // Bit 19
 10: 0x050F [0x4E] SET_ENTITY_HIDE_FLAG: Show Rochefogne (ID: 17556003/0x010BE223)
 11: 0x0515 [0x80] LOAD_WAIT(entity=Rochefogne (ID: 17556003/0x010BE223))
 12: 0x051A [0x2C] CREATE_SCHEDULER_TASK: Create scheduler "res0" with entities [EventEntity, EventEntity]
 13: 0x0527 [0x53] WAIT_SCHEDULER_TASK: Wait for scheduler "res0" with entities [EventEntity, EventEntity]
 14: 0x0534 [0x45] LOAD_SCHEDULED_TASK: Load scheduler "fdi1" with entities [LocalPlayer, LocalPlayer], work=[200*, 0*]
 15: 0x0545 [0x55] WAIT_LOAD_SCHEDULER: Wait for scheduler "fdi1" with entities [LocalPlayer, LocalPlayer], work=200*
 16: 0x0554 [0x1C] WAIT(60* ticks)
 17: 0x0557 [0x2C] CREATE_SCHEDULER_TASK: Create scheduler "res2" with entities [EventEntity, EventEntity]
 18: 0x0564 [0x53] WAIT_SCHEDULER_TASK: Wait for scheduler "res2" with entities [EventEntity, EventEntity]
 19: 0x0571 [0x03] Work_Zone[9] = 269*
 20: 0x0576 [0x48] [System] [7331*]:
    → "You find $6, but you are unable to decipher it."
 21: 0x0579 [0x23] WAIT_FOR_DIALOG_INTERACTION
 22: 0x057A [0x1C] WAIT(60* ticks)
 23: 0x057D [0x27] REQ_SET(priority=0x03, entity_id=Heavy Stone Door (ID: 17555990/0x010BE216), tag_num=0x03)
 24: 0x0584 [0x5C] MUSIC_CONTROL: Set Idle (Day) music to song 127*
 25: 0x0588 [0x5C] MUSIC_CONTROL: Set Idle (Night) music to song 127*
 26: 0x058C [0x48] [System] [7332*]:
    → "Ah, now I see. Who would've thought a tomb was hidden here?"
 27: 0x058F [0x23] WAIT_FOR_DIALOG_INTERACTION
 28: 0x0590 [0x4A] LocalPlayer looks at Rochefogne (ID: 17556003/0x010BE223)
 29: 0x0599 [0x6F] WAIT_FRAME_DELAY: Yield until WaitTime reaches zero
 30: 0x059A [0x76] CHECK_ENTITY_RENDER_FLAGS: Wait until LocalPlayer Render.Flags0 and Render.Flags3 conditions are met
 31: 0x059F [0x27] REQ_SET(priority=0x04, entity_id=Heavy Stone Door (ID: 17555990/0x010BE216), tag_num=0x04)
 32: 0x05A6 [0x45] LOAD_SCHEDULED_TASK: Load scheduler "x001" with entities [LocalPlayer, LocalPlayer], work=[209*, 0*]
 33: 0x05B7 [0x55] WAIT_LOAD_SCHEDULER: Wait for scheduler "x001" with entities [LocalPlayer, LocalPlayer], work=209*
 34: 0x05C6 [0x29] REQ_SET_WAIT(priority=0x03, entity_id=Rochefogne (ID: 17556003/0x010BE223), tag_num=0x06)
 35: 0x05CD [0x2B] Rochefogne (ID: 17556003/0x010BE223) [7333*]:
    → "I was afraid I had dropped it then."
 36: 0x05D4 [0x23] WAIT_FOR_DIALOG_INTERACTION
 37: 0x05D5 [0x45] LOAD_SCHEDULED_TASK: Load scheduler "x002" with entities [LocalPlayer, LocalPlayer], work=[209*, 0*]
 38: 0x05E6 [0x27] REQ_SET(priority=0x04, entity_id=Rochefogne (ID: 17556003/0x010BE223), tag_num=0x07)
 39: 0x05ED [0x2B] Rochefogne (ID: 17556003/0x010BE223) [7334*]:
    → "But how fortunate that you retrieved it! The dwellers of d'Oraguille still do not know, do they?"
 40: 0x05F4 [0x23] WAIT_FOR_DIALOG_INTERACTION
 41: 0x05F5 [0x2A] GET_REQ_LEVEL(level=4, entity_id=Rochefogne (ID: 17556003/0x010BE223))
 42: 0x05FB [0x55] WAIT_LOAD_SCHEDULER: Wait for scheduler "x002" with entities [LocalPlayer, LocalPlayer], work=209*
 43: 0x060A [0x27] REQ_SET(priority=0x04, entity_id=Rochefogne (ID: 17556003/0x010BE223), tag_num=0x08)
 44: 0x0611 [0x1C] WAIT(30* ticks)
 45: 0x0614 [0x45] LOAD_SCHEDULED_TASK: Load scheduler "x003" with entities [LocalPlayer, LocalPlayer], work=[209*, 0*]
 46: 0x0625 [0x32] ExtData[1]->MainSpeed = 13* * 0.1
 47: 0x0628 [0x1F] MOVE_ENTITY: EventEntity moves to X=-70.902*, Z=21.321*, Y=8.749*
 48: 0x0630 [0x1F] MOVE_ENTITY: Update entity position (mode=1)
 49: 0x0632 [0x6F] WAIT_FRAME_DELAY: Yield until WaitTime reaches zero
 50: 0x0633 [0x4A] LocalPlayer looks at Rochefogne (ID: 17556003/0x010BE223)
 51: 0x063C [0x6F] WAIT_FRAME_DELAY: Yield until WaitTime reaches zero
 52: 0x063D [0x76] CHECK_ENTITY_RENDER_FLAGS: Wait until LocalPlayer Render.Flags0 and Render.Flags3 conditions are met
 53: 0x0642 [0x55] WAIT_LOAD_SCHEDULER: Wait for scheduler "x003" with entities [LocalPlayer, LocalPlayer], work=209*
 54: 0x0651 [0x2A] GET_REQ_LEVEL(level=4, entity_id=Rochefogne (ID: 17556003/0x010BE223))
 55: 0x0657 [0x45] LOAD_SCHEDULED_TASK: Load scheduler "x004" with entities [LocalPlayer, LocalPlayer], work=[209*, 0*]
 56: 0x0668 [0x2B] Rochefogne (ID: 17556003/0x010BE223) [7335*]:
    → "King Ranperre, at long last I find your tomb! But much distance separates us now, ironically."
 57: 0x066F [0x23] WAIT_FOR_DIALOG_INTERACTION
 58: 0x0670 [0x2B] Rochefogne (ID: 17556003/0x010BE223) [7336*]:
    → "Please...please watch over me. No, I am no longer of such status. Not anymore..."
 59: 0x0677 [0x23] WAIT_FOR_DIALOG_INTERACTION
 60: 0x0678 [0x2B] Rochefogne (ID: 17556003/0x010BE223) [7337*]:
    → "Please, at least judge my actions for what they are! I still deserve salvation, great king of dragons!"
 61: 0x067F [0x23] WAIT_FOR_DIALOG_INTERACTION
 62: 0x0680 [0x1C] WAIT(10* ticks)
 63: 0x0683 [0x2C] CREATE_SCHEDULER_TASK: Create scheduler "res2" with entities [Rochefogne (ID: 17556003/0x010BE223), Rochefogne (ID: 17556003/0x010BE223)]
 64: 0x0690 [0x53] WAIT_SCHEDULER_TASK: Wait for scheduler "res2" with entities [Rochefogne (ID: 17556003/0x010BE223), Rochefogne (ID: 17556003/0x010BE223)]
 65: 0x069D [0x4A] Rochefogne (ID: 17556003/0x010BE223) looks at LocalPlayer
 66: 0x06A6 [0x1C] WAIT(30* ticks)
 67: 0x06A9 [0x52] END_LOAD_SCHEDULER: End scheduler "x004" with entities [LocalPlayer, LocalPlayer], work=209*
 68: 0x06B8 [0x45] LOAD_SCHEDULED_TASK: Load scheduler "x005" with entities [LocalPlayer, LocalPlayer], work=[209*, 0*]
 69: 0x06C9 [0x55] WAIT_LOAD_SCHEDULER: Wait for scheduler "x005" with entities [LocalPlayer, LocalPlayer], work=209*
 70: 0x06D8 [0x2B] Rochefogne (ID: 17556003/0x010BE223) [7338*]:
    → "Could you show me that for a moment? I promise not to take it. After all, you wouldn't have found this place without me, would you?"
 71: 0x06DF [0x23] WAIT_FOR_DIALOG_INTERACTION
 72: 0x06E0 [0x45] LOAD_SCHEDULED_TASK: Load scheduler "fdo2" with entities [LocalPlayer, LocalPlayer], work=[200*, 0*]
 73: 0x06F1 [0x55] WAIT_LOAD_SCHEDULER: Wait for scheduler "fdo2" with entities [LocalPlayer, LocalPlayer], work=200*
 74: 0x0700 [0x1C] WAIT(30* ticks)
 75: 0x0703 [0x27] REQ_SET(priority=0x03, entity_id=Rochefogne (ID: 17556003/0x010BE223), tag_num=0x09)
 76: 0x070A [0x1C] WAIT(60* ticks)
 77: 0x070D [0x45] LOAD_SCHEDULED_TASK: Load scheduler "x006" with entities [LocalPlayer, LocalPlayer], work=[209*, 0*]
 78: 0x071E [0x55] WAIT_LOAD_SCHEDULER: Wait for scheduler "x006" with entities [LocalPlayer, LocalPlayer], work=209*
 79: 0x072D [0x45] LOAD_SCHEDULED_TASK: Load scheduler "fdi1" with entities [LocalPlayer, LocalPlayer], work=[200*, 0*]
 80: 0x073E [0x55] WAIT_LOAD_SCHEDULER: Wait for scheduler "fdi1" with entities [LocalPlayer, LocalPlayer], work=200*
 81: 0x074D [0x2B] Rochefogne (ID: 17556003/0x010BE223) [7339*]:
    → "Thank you. Hmm, it seems to be written in code. Yet, the writing is in ancient San d'Orian. I suppose I never had any part in it."
 82: 0x0754 [0x23] WAIT_FOR_DIALOG_INTERACTION
 83: 0x0755 [0x2A] GET_REQ_LEVEL(level=3, entity_id=Rochefogne (ID: 17556003/0x010BE223))
 84: 0x075B [0x45] LOAD_SCHEDULED_TASK: Load scheduler "x007" with entities [LocalPlayer, LocalPlayer], work=[209*, 0*]
 85: 0x076C [0x29] REQ_SET_WAIT(priority=0x03, entity_id=Rochefogne (ID: 17556003/0x010BE223), tag_num=0x0A)
 86: 0x0773 [0x55] WAIT_LOAD_SCHEDULER: Wait for scheduler "x007" with entities [LocalPlayer, LocalPlayer], work=209*
 87: 0x0782 [0x2B] Rochefogne (ID: 17556003/0x010BE223) [7340*]:
    → "But it seems the tome is the only thing here. Hmm..."
 88: 0x0789 [0x23] WAIT_FOR_DIALOG_INTERACTION
 89: 0x078A [0x27] REQ_SET(priority=0x04, entity_id=Rochefogne (ID: 17556003/0x010BE223), tag_num=0x0B)
 90: 0x0791 [0x1C] WAIT(120* ticks)
 91: 0x0794 [0x4A] LocalPlayer looks at Rochefogne (ID: 17556003/0x010BE223)
 92: 0x079D [0x45] LOAD_SCHEDULED_TASK: Load scheduler "x008" with entities [LocalPlayer, LocalPlayer], work=[209*, 0*]
 93: 0x07AE [0x55] WAIT_LOAD_SCHEDULER: Wait for scheduler "x008" with entities [LocalPlayer, LocalPlayer], work=209*
 94: 0x07BD [0x1C] WAIT(120* ticks)
 95: 0x07C0 [0x45] LOAD_SCHEDULED_TASK: Load scheduler "fdo2" with entities [LocalPlayer, LocalPlayer], work=[200*, 0*]
 96: 0x07D1 [0x55] WAIT_LOAD_SCHEDULER: Wait for scheduler "fdo2" with entities [LocalPlayer, LocalPlayer], work=200*
 97: 0x07E0 [0x5C] MUSIC_CONTROL: Set Idle (Day) music to song 0*
 98: 0x07E4 [0x5C] MUSIC_CONTROL: Set Idle (Night) music to song 0*
 99: 0x07E8 [0x46] CAMERA_CONTROL: Restore default settings
100: 0x07EA [0x45] LOAD_SCHEDULED_TASK: Load scheduler "fdi2" with entities [LocalPlayer, LocalPlayer], work=[200*, 0*]
101: 0x07FB [0x21] END_EVENT
102: 0x07FC [0x00] END_REQSTACK()
```
