# 17367813

## Common Data

| Field            | Value                      |
|------------------|----------------------------|
| Zone             | Waughroon Shrine (ID: 144) |
| Block Size       | 1116 bytes                 |
| Total Events     | 3                          |
| References Count | 24                         |

## List of Events

| Event ID              | Entrypoint   |   Size |   Instructions |
|-----------------------|--------------|--------|----------------|
| [65535](#event-65535) | 0x0000       |      1 |              1 |
| [2](#event-2)         | 0x0001       |    330 |             57 |
| [3](#event-3)         | 0x014B       |    658 |             62 |

## DAT References (imed_data)

|   Index | Hex Value   |   Dec Value |
|---------|-------------|-------------|
|       0 | 0x0013      |          19 |
|       1 | 0x009D      |         157 |
|       2 | 0x0060      |          96 |
|       3 | 0x0078      |         120 |
|       4 | 0x005A      |          90 |
|       5 | 0x00D8      |         216 |
|       6 | 0x0000      |           0 |
|       7 | 0x00C8      |         200 |
|       8 | 0x1DF5      |        7669 |
|       9 | 0x1DF6      |        7670 |
|      10 | 0x1DF7      |        7671 |
|      11 | 0x1DF8      |        7672 |
|      12 | 0x1DF9      |        7673 |
|      13 | 0x0003      |           3 |
|      14 | 0x003C      |          60 |
|      15 | 0x00B4      |         180 |
|      16 | 0x1DFA      |        7674 |
|      17 | 0x002D      |          45 |
|      18 | 0x007F      |         127 |
|      19 | 0x00C9      |         201 |
|      20 | 0x0001      |           1 |
|      21 | 0x0002      |           2 |
|      22 | 0x001E      |          30 |
|      23 | 0x00D7      |         215 |

## String References

- **7674**: He has lost consciousness.

## Events

### Event 65535

#### Metadata

| Field        | Value   |
|--------------|---------|
| Entrypoint   | 0x0000  |
| Data Size    | 1 bytes |
| Instructions | 1       |

```
      00 01 02 03 04 05 06 07  08 09 0A 0B 0C 0D 0E 0F
      -- -- -- -- -- -- -- --  -- -- -- -- -- -- -- --
0000: 00                                                .               
```

#### Opcodes

```
  0: 0x0000 [0x00] END_REQSTACK()
```

### Event 2

#### Metadata

| Field        | Value     |
|--------------|-----------|
| Entrypoint   | 0x0001    |
| Data Size    | 330 bytes |
| Instructions | 57        |

```
      00 01 02 03 04 05 06 07  08 09 0A 0B 0C 0D 0E 0F
      -- -- -- -- -- -- -- --  -- -- -- -- -- -- -- --
0000:    42 1A 6D 01 46 01 38  00 80 4E 00 F0 FF FF 7F   B.m.F.8..N.....
0010: 80 F0 FF FF 7F 29 10 00  03 09 01 04 29 10 00 03  .....)......)...
0020: 09 01 0B 29 10 F0 FF FF  7F 08 5C 00 01 80 5C 01  ...)......\...\.
0030: 01 80 5C 02 01 80 5C 03  01 80 9A 5D 02 80 03 80  ..\...\....]....
0040: 81 00 00 03 09 01 2C 00  03 09 01 00 03 09 01 64  ......,........d
0050: 65 61 64 1C 04 80 27 10  F0 FF FF 7F 09 45 05 80  ead...'......E..
0060: F0 FF FF 7F F0 FF FF 7F  61 70 30 31 06 80 45 07  ........ap01..E.
0070: 80 F0 FF FF 7F F0 FF FF  7F 66 64 69 32 06 80 2A  .........fdi2..*
0080: 10 F0 FF FF 7F 79 00 F0  FF FF 7F 00 03 09 01 55  .....y.........U
0090: 05 80 F0 FF FF 7F F0 FF  FF 7F 61 70 30 31 2B 00  ..........ap01+.
00A0: 03 09 01 08 80 23 45 05  80 F0 FF FF 7F F0 FF FF  .....#E.........
00B0: 7F 61 70 30 32 06 80 2B  00 03 09 01 09 80 23 2B  .ap02..+......#+
00C0: 00 03 09 01 0A 80 23 2B  00 03 09 01 0B 80 23 7C  ......#+......#|
00D0: 00 00 03 09 01 2B 00 03  09 01 0C 80 23 52 05 80  .....+......#R..
00E0: F0 FF FF 7F F0 FF FF 7F  61 70 30 32 45 05 80 F0  ........ap02E...
00F0: FF FF 7F F0 FF FF 7F 61  70 30 33 06 80 6E F0 FF  .......ap03..n..
0100: FF 7F 0D 80 99 F0 FF FF  7F 99 F0 FF FF 7F 1C 0E  ................
0110: 80 5D 06 80 0F 80 48 10  80 23 1A AF 01 1C 11 80  .]....H..#......
0120: 5C 00 06 80 5C 01 06 80  5C 02 06 80 5C 03 06 80  \...\...\...\...
0130: 9A 5D 12 80 03 80 46 00  45 07 80 F0 FF FF 7F F0  .]....F.E.......
0140: FF FF 7F 66 64 69 32 06  80 21 00                 ...fdi2..!.     
```

#### Opcodes

```
  0: 0x0001 [0x42] SET_CLI_EVENT_CANCEL_DATA()
  1: 0x0002 [0x1A] CALL_SUBROUTINE(address=0x016D)
  2: 0x0005 [0x46] CAMERA_CONTROL: Disable user control
  3: 0x0007 [0x38] SET_CLIENT_EVENT_MODE(mode=19*)
  4: 0x000A [0x4E] SET_ENTITY_HIDE_FLAG: Show LocalPlayer
  5: 0x0010 [0x80] LOAD_WAIT(entity=LocalPlayer)
  6: 0x0015 [0x29] REQ_SET_WAIT(priority=0x10, entity_id=Ren (ID: 17367808/0x01090300), tag_num=0x04)
  7: 0x001C [0x29] REQ_SET_WAIT(priority=0x10, entity_id=Ren (ID: 17367808/0x01090300), tag_num=0x0B)
  8: 0x0023 [0x29] REQ_SET_WAIT(priority=0x10, entity_id=LocalPlayer, tag_num=0x08)
  9: 0x002A [0x5C] MUSIC_CONTROL: Set Idle (Day) music to song 157*
 10: 0x002E [0x5C] MUSIC_CONTROL: Set Idle (Night) music to song 157*
 11: 0x0032 [0x5C] MUSIC_CONTROL: Set Combat (Solo) music to song 157*
 12: 0x0036 [0x5C] MUSIC_CONTROL: Set Combat (Party) music to song 157*
 13: 0x003A [0x9A] WAIT_MUSIC_SERVER()
 14: 0x003B [0x5D] SET_MUSIC_VOLUME(volume=96*, fade_time=120*)
 15: 0x0040 [0x81] SET_ENTITY_BLINKING(blink_flag=0x00, entity=Ren (ID: 17367808/0x01090300))
 16: 0x0046 [0x2C] CREATE_SCHEDULER_TASK: Create scheduler "dead" with entities [Ren (ID: 17367808/0x01090300), Ren (ID: 17367808/0x01090300)]
 17: 0x0053 [0x1C] WAIT(90* ticks)
 18: 0x0056 [0x27] REQ_SET(priority=0x10, entity_id=LocalPlayer, tag_num=0x09)
 19: 0x005D [0x45] LOAD_SCHEDULED_TASK: Load scheduler "ap01" with entities [LocalPlayer, LocalPlayer], work=[216*, 0*]
 20: 0x006E [0x45] LOAD_SCHEDULED_TASK: Load scheduler "fdi2" with entities [LocalPlayer, LocalPlayer], work=[200*, 0*]
 21: 0x007F [0x2A] GET_REQ_LEVEL(level=16, entity_id=LocalPlayer)
 22: 0x0085 [0x79] LocalPlayer looks at Ren (ID: 17367808/0x01090300) (Basic look)
 23: 0x008F [0x55] WAIT_LOAD_SCHEDULER: Wait for scheduler "ap01" with entities [LocalPlayer, LocalPlayer], work=216*
 24: 0x009E [0x2B] Ren (ID: 17367808/0x01090300) [7669*]:
    → "I-it's you..."
 25: 0x00A5 [0x23] WAIT_FOR_DIALOG_INTERACTION
 26: 0x00A6 [0x45] LOAD_SCHEDULED_TASK: Load scheduler "ap02" with entities [LocalPlayer, LocalPlayer], work=[216*, 0*]
 27: 0x00B7 [0x2B] Ren (ID: 17367808/0x01090300) [7670*]:
    → "We're too...late. He's already...passed through the...portal. The seal...on the helmet...won't hold much...longer."
 28: 0x00BE [0x23] WAIT_FOR_DIALOG_INTERACTION
 29: 0x00BF [0x2B] Ren (ID: 17367808/0x01090300) [7671*]:
    → "Unless you want to end up...like me, don't...touch the burning circle. It's protected...by a powerful curse."
 30: 0x00C6 [0x23] WAIT_FOR_DIALOG_INTERACTION
 31: 0x00C7 [0x2B] Ren (ID: 17367808/0x01090300) [7672*]:
    → "Hurry...back to Norg and tell...them what's happened. Get something to...break the curse...keep the demon...from escaping..."
 32: 0x00CE [0x23] WAIT_FOR_DIALOG_INTERACTION
 33: 0x00CF [0x7C] Ren (ID: 17367808/0x01090300)->Render.Flags2 |= 0x00
 34: 0x00D5 [0x2B] Ren (ID: 17367808/0x01090300) [7673*]:
    → "........."
 35: 0x00DC [0x23] WAIT_FOR_DIALOG_INTERACTION
 36: 0x00DD [0x52] END_LOAD_SCHEDULER: End scheduler "ap02" with entities [LocalPlayer, LocalPlayer], work=216*
 37: 0x00EC [0x45] LOAD_SCHEDULED_TASK: Load scheduler "ap03" with entities [LocalPlayer, LocalPlayer], work=[216*, 0*]
 38: 0x00FD [0x6E] LocalPlayer uses emote 3*
 39: 0x0104 [0x99] Wait for LocalPlayer animation to complete
 40: 0x0109 [0x99] Wait for LocalPlayer animation to complete
 41: 0x010E [0x1C] WAIT(60* ticks)
 42: 0x0111 [0x5D] SET_MUSIC_VOLUME(volume=0*, fade_time=180*)
 43: 0x0116 [0x48] [System] [7674*]:
    → "He has lost consciousness."
 44: 0x0119 [0x23] WAIT_FOR_DIALOG_INTERACTION
 45: 0x011A [0x1A] CALL_SUBROUTINE(address=0x01AF)
 46: 0x011D [0x1C] WAIT(45* ticks)
 47: 0x0120 [0x5C] MUSIC_CONTROL: Set Idle (Day) music to song 0*
 48: 0x0124 [0x5C] MUSIC_CONTROL: Set Idle (Night) music to song 0*
 49: 0x0128 [0x5C] MUSIC_CONTROL: Set Combat (Solo) music to song 0*
 50: 0x012C [0x5C] MUSIC_CONTROL: Set Combat (Party) music to song 0*
 51: 0x0130 [0x9A] WAIT_MUSIC_SERVER()
 52: 0x0131 [0x5D] SET_MUSIC_VOLUME(volume=127*, fade_time=120*)
 53: 0x0136 [0x46] CAMERA_CONTROL: Restore default settings
 54: 0x0138 [0x45] LOAD_SCHEDULED_TASK: Load scheduler "fdi2" with entities [LocalPlayer, LocalPlayer], work=[200*, 0*]
 55: 0x0149 [0x21] END_EVENT
 56: 0x014A [0x00] END_REQSTACK()
```

### Event 3

#### Metadata

| Field        | Value     |
|--------------|-----------|
| Entrypoint   | 0x014B    |
| Data Size    | 658 bytes |
| Instructions | 1         |

```
      00 01 02 03 04 05 06 07  08 09 0A 0B 0C 0D 0E 0F
      -- -- -- -- -- -- -- --  -- -- -- -- -- -- -- --
0140:                                   00 45 07 80 F0             .E...
0150: FF FF 7F F0 FF FF 7F 66  64 69 30 06 80 55 07 80  .......fdi0..U..
0160: F0 FF FF 7F F0 FF FF 7F  66 64 69 30 1B 45 07 80  ........fdi0.E..
0170: F0 FF FF 7F F0 FF FF 7F  66 64 6F 30 06 80 55 07  ........fdo0..U.
0180: 80 F0 FF FF 7F F0 FF FF  7F 66 64 6F 30 1B 45 07  .........fdo0.E.
0190: 80 F0 FF FF 7F F0 FF FF  7F 66 64 69 31 06 80 55  .........fdi1..U
01A0: 07 80 F0 FF FF 7F F0 FF  FF 7F 66 64 69 31 1B 45  ..........fdi1.E
01B0: 07 80 F0 FF FF 7F F0 FF  FF 7F 66 64 6F 31 06 80  ..........fdo1..
01C0: 55 07 80 F0 FF FF 7F F0  FF FF 7F 66 64 6F 31 1B  U..........fdo1.
01D0: 45 13 80 F0 FF FF 7F F0  FF FF 7F 77 68 69 31 06  E..........whi1.
01E0: 80 55 13 80 F0 FF FF 7F  F0 FF FF 7F 77 68 69 31  .U..........whi1
01F0: 1B 45 13 80 F0 FF FF 7F  F0 FF FF 7F 77 68 6F 31  .E..........who1
0200: 06 80 55 13 80 F0 FF FF  7F F0 FF FF 7F 77 68 6F  ..U..........who
0210: 31 1B 45 13 80 F0 FF FF  7F F0 FF FF 7F 77 68 6F  1.E..........who
0220: 32 06 80 55 13 80 F0 FF  FF 7F F0 FF FF 7F 77 68  2..U..........wh
0230: 6F 32 1B 45 13 80 F0 FF  FF 7F F0 FF FF 7F 77 68  o2.E..........wh
0240: 6F 33 06 80 55 13 80 F0  FF FF 7F F0 FF FF 7F 77  o3..U..........w
0250: 68 6F 33 1B 62 14 80 F0  FF FF 7F F0 FF FF 7F 6D  ho3.b..........m
0260: 61 69 6E 06 80 1C 11 80  45 07 80 F0 FF FF 7F F0  ain.....E.......
0270: FF FF 7F 66 64 6F 31 06  80 55 07 80 F0 FF FF 7F  ...fdo1..U......
0280: F0 FF FF 7F 66 64 6F 31  1B 45 07 80 F0 FF FF 7F  ....fdo1.E......
0290: F0 FF FF 7F 66 64 69 31  06 80 62 15 80 F0 FF FF  ....fdi1..b.....
02A0: 7F F0 FF FF 7F 6D 61 69  6E 06 80 1C 16 80 55 07  .....main.....U.
02B0: 80 F0 FF FF 7F F0 FF FF  7F 66 64 69 31 1B 45 07  .........fdi1.E.
02C0: 80 F0 FF FF 7F F0 FF FF  7F 62 6C 6F 6E 06 80 45  .........blon..E
02D0: 13 80 F0 FF FF 7F F0 FF  FF 7F 62 6C 6F 6E 06 80  ..........blon..
02E0: 1B 45 13 80 F0 FF FF 7F  F0 FF FF 7F 77 68 69 30  .E..........whi0
02F0: 06 80 55 13 80 F0 FF FF  7F F0 FF FF 7F 77 68 69  ..U..........whi
0300: 30 1B 45 13 80 F0 FF FF  7F F0 FF FF 7F 77 68 6F  0.E..........who
0310: 30 06 80 55 13 80 F0 FF  FF 7F F0 FF FF 7F 77 68  0..U..........wh
0320: 6F 30 1B 45 17 80 F0 FF  FF 7F F0 FF FF 7F 65 66  o0.E..........ef
0330: 6F 6E 06 80 55 17 80 F0  FF FF 7F F0 FF FF 7F 65  on..U..........e
0340: 66 6F 6E 1B 45 07 80 F0  FF FF 7F F0 FF FF 7F 66  fon.E..........f
0350: 64 69 73 06 80 1B 45 07  80 F0 FF FF 7F F0 FF FF  dis...E.........
0360: 7F 66 64 6F 73 06 80 55  07 80 F0 FF FF 7F F0 FF  .fdos..U........
0370: FF 7F 66 64 6F 73 1B 45  07 80 F0 FF FF 7F F0 FF  ..fdos.E........
0380: FF 7F 66 64 69 66 06 80  1B 45 07 80 F0 FF FF 7F  ..fdif...E......
0390: F0 FF FF 7F 66 64 6F 66  06 80 55 07 80 F0 FF FF  ....fdof..U.....
03A0: 7F F0 FF FF 7F 66 64 6F  66 1B 45 07 80 F0 FF FF  .....fdof.E.....
03B0: 7F F0 FF FF 7F 66 64 69  70 06 80 1B 45 07 80 F0  .....fdip...E...
03C0: FF FF 7F F0 FF FF 7F 66  64 6F 70 06 80 55 07 80  .......fdop..U..
03D0: F0 FF FF 7F F0 FF FF 7F  66 64 6F 70 1B           ........fdop.   
```

#### Opcodes

```
  0: 0x014B [0x00] END_REQSTACK()
```

#### Data or dead code:

```
# Dead code (unreachable instructions):
     0x014C [0x45] LOAD_SCHEDULED_TASK: Load scheduler "fdi0" with entities [LocalPlayer, LocalPlayer], work=[200*, 0*]
     0x015D [0x55] WAIT_LOAD_SCHEDULER: Wait for scheduler "fdi0" with entities [LocalPlayer, LocalPlayer], work=200*
     0x016C [0x1B] RETURN
     0x016D [0x45] LOAD_SCHEDULED_TASK: Load scheduler "fdo0" with entities [LocalPlayer, LocalPlayer], work=[200*, 0*]
     0x017E [0x55] WAIT_LOAD_SCHEDULER: Wait for scheduler "fdo0" with entities [LocalPlayer, LocalPlayer], work=200*
     0x018D [0x1B] RETURN
     0x018E [0x45] LOAD_SCHEDULED_TASK: Load scheduler "fdi1" with entities [LocalPlayer, LocalPlayer], work=[200*, 0*]
     0x019F [0x55] WAIT_LOAD_SCHEDULER: Wait for scheduler "fdi1" with entities [LocalPlayer, LocalPlayer], work=200*
     0x01AE [0x1B] RETURN
     0x01AF [0x45] LOAD_SCHEDULED_TASK: Load scheduler "fdo1" with entities [LocalPlayer, LocalPlayer], work=[200*, 0*]
     0x01C0 [0x55] WAIT_LOAD_SCHEDULER: Wait for scheduler "fdo1" with entities [LocalPlayer, LocalPlayer], work=200*
     0x01CF [0x1B] RETURN
     0x01D0 [0x45] LOAD_SCHEDULED_TASK: Load scheduler "whi1" with entities [LocalPlayer, LocalPlayer], work=[201*, 0*]
     0x01E1 [0x55] WAIT_LOAD_SCHEDULER: Wait for scheduler "whi1" with entities [LocalPlayer, LocalPlayer], work=201*
     0x01F0 [0x1B] RETURN
     0x01F1 [0x45] LOAD_SCHEDULED_TASK: Load scheduler "who1" with entities [LocalPlayer, LocalPlayer], work=[201*, 0*]
     0x0202 [0x55] WAIT_LOAD_SCHEDULER: Wait for scheduler "who1" with entities [LocalPlayer, LocalPlayer], work=201*
     0x0211 [0x1B] RETURN
     0x0212 [0x45] LOAD_SCHEDULED_TASK: Load scheduler "who2" with entities [LocalPlayer, LocalPlayer], work=[201*, 0*]
     0x0223 [0x55] WAIT_LOAD_SCHEDULER: Wait for scheduler "who2" with entities [LocalPlayer, LocalPlayer], work=201*
     0x0232 [0x1B] RETURN
     0x0233 [0x45] LOAD_SCHEDULED_TASK: Load scheduler "who3" with entities [LocalPlayer, LocalPlayer], work=[201*, 0*]
     0x0244 [0x55] WAIT_LOAD_SCHEDULER: Wait for scheduler "who3" with entities [LocalPlayer, LocalPlayer], work=201*
     0x0253 [0x1B] RETURN
     0x0254 [0x62] LOAD_EVENT_SCHEDULER: Load scheduler "main" with entities [LocalPlayer, LocalPlayer], work=[1*, 0*]
     0x0265 [0x1C] WAIT(45* ticks)
     0x0268 [0x45] LOAD_SCHEDULED_TASK: Load scheduler "fdo1" with entities [LocalPlayer, LocalPlayer], work=[200*, 0*]
     0x0279 [0x55] WAIT_LOAD_SCHEDULER: Wait for scheduler "fdo1" with entities [LocalPlayer, LocalPlayer], work=200*
     0x0288 [0x1B] RETURN
     0x0289 [0x45] LOAD_SCHEDULED_TASK: Load scheduler "fdi1" with entities [LocalPlayer, LocalPlayer], work=[200*, 0*]
     0x029A [0x62] LOAD_EVENT_SCHEDULER: Load scheduler "main" with entities [LocalPlayer, LocalPlayer], work=[2*, 0*]
     0x02AB [0x1C] WAIT(30* ticks)
     0x02AE [0x55] WAIT_LOAD_SCHEDULER: Wait for scheduler "fdi1" with entities [LocalPlayer, LocalPlayer], work=200*
     0x02BD [0x1B] RETURN
     0x02BE [0x45] LOAD_SCHEDULED_TASK: Load scheduler "blon" with entities [LocalPlayer, LocalPlayer], work=[200*, 0*]
     0x02CF [0x45] LOAD_SCHEDULED_TASK: Load scheduler "blon" with entities [LocalPlayer, LocalPlayer], work=[201*, 0*]
     0x02E0 [0x1B] RETURN
     0x02E1 [0x45] LOAD_SCHEDULED_TASK: Load scheduler "whi0" with entities [LocalPlayer, LocalPlayer], work=[201*, 0*]
     0x02F2 [0x55] WAIT_LOAD_SCHEDULER: Wait for scheduler "whi0" with entities [LocalPlayer, LocalPlayer], work=201*
     0x0301 [0x1B] RETURN
     0x0302 [0x45] LOAD_SCHEDULED_TASK: Load scheduler "who0" with entities [LocalPlayer, LocalPlayer], work=[201*, 0*]
     0x0313 [0x55] WAIT_LOAD_SCHEDULER: Wait for scheduler "who0" with entities [LocalPlayer, LocalPlayer], work=201*
     0x0322 [0x1B] RETURN
     0x0323 [0x45] LOAD_SCHEDULED_TASK: Load scheduler "efon" with entities [LocalPlayer, LocalPlayer], work=[215*, 0*]
     0x0334 [0x55] WAIT_LOAD_SCHEDULER: Wait for scheduler "efon" with entities [LocalPlayer, LocalPlayer], work=215*
     0x0343 [0x1B] RETURN
     0x0344 [0x45] LOAD_SCHEDULED_TASK: Load scheduler "fdis" with entities [LocalPlayer, LocalPlayer], work=[200*, 0*]
     0x0355 [0x1B] RETURN
     0x0356 [0x45] LOAD_SCHEDULED_TASK: Load scheduler "fdos" with entities [LocalPlayer, LocalPlayer], work=[200*, 0*]
     0x0367 [0x55] WAIT_LOAD_SCHEDULER: Wait for scheduler "fdos" with entities [LocalPlayer, LocalPlayer], work=200*
     0x0376 [0x1B] RETURN
     0x0377 [0x45] LOAD_SCHEDULED_TASK: Load scheduler "fdif" with entities [LocalPlayer, LocalPlayer], work=[200*, 0*]
     0x0388 [0x1B] RETURN
     0x0389 [0x45] LOAD_SCHEDULED_TASK: Load scheduler "fdof" with entities [LocalPlayer, LocalPlayer], work=[200*, 0*]
     0x039A [0x55] WAIT_LOAD_SCHEDULER: Wait for scheduler "fdof" with entities [LocalPlayer, LocalPlayer], work=200*
     0x03A9 [0x1B] RETURN
     0x03AA [0x45] LOAD_SCHEDULED_TASK: Load scheduler "fdip" with entities [LocalPlayer, LocalPlayer], work=[200*, 0*]
     0x03BB [0x1B] RETURN
     0x03BC [0x45] LOAD_SCHEDULED_TASK: Load scheduler "fdop" with entities [LocalPlayer, LocalPlayer], work=[200*, 0*]
     0x03CD [0x55] WAIT_LOAD_SCHEDULER: Wait for scheduler "fdop" with entities [LocalPlayer, LocalPlayer], work=200*
     0x03DC [0x1B] RETURN
```
