# 17367817 - Atori-Tutori

## Common Data

| Field            | Value                      |
|------------------|----------------------------|
| Zone             | Waughroon Shrine (ID: 144) |
| Block Size       | 120 bytes                  |
| Total Events     | 5                          |
| References Count | 10                         |

## List of Events

| Event ID                 | Entrypoint   |   Size |   Instructions |
|--------------------------|--------------|--------|----------------|
| [65535](#event-65535)    | 0x0000       |      1 |              1 |
| [32001](#event-32001)    | 0x0001       |      1 |              1 |
| [65535.1](#event-655351) | 0x0002       |     14 |              4 |
| [65535.2](#event-655352) | 0x0010       |     14 |              4 |
| [65535.3](#event-655353) | 0x001E       |     14 |              4 |

## DAT References (imed_data)

|   Index | Hex Value   |   Dec Value |
|---------|-------------|-------------|
|       0 | 0x000D      |          13 |
|       1 | 0xFFFD2C67  |  4294782055 |
|       2 | 0xFFFDD44E  |  4294825038 |
|       3 | 0xE874      |       59508 |
|       4 | 0xFFFD1E64  |  4294778468 |
|       5 | 0xFFFDD500  |  4294825216 |
|       6 | 0xE813      |       59411 |
|       7 | 0xFFFD0B0B  |  4294773515 |
|       8 | 0xFFFDD574  |  4294825332 |
|       9 | 0xE819      |       59417 |

## Events

### Event 65535

#### Metadata

| Field        | Value   |
|--------------|---------|
| Entrypoint   | 0x0000  |
| Data Size    | 1 bytes |
| Instructions | 1       |

```
      00 01 02 03 04 05 06 07  08 09 0A 0B 0C 0D 0E 0F
      -- -- -- -- -- -- -- --  -- -- -- -- -- -- -- --
0000: 00                                                .               
```

#### Opcodes

```
  0: 0x0000 [0x00] END_REQSTACK()
```

### Event 32001

#### Metadata

| Field        | Value   |
|--------------|---------|
| Entrypoint   | 0x0001  |
| Data Size    | 1 bytes |
| Instructions | 1       |

```
      00 01 02 03 04 05 06 07  08 09 0A 0B 0C 0D 0E 0F
      -- -- -- -- -- -- -- --  -- -- -- -- -- -- -- --
0000:    00                                              .              
```

#### Opcodes

```
  0: 0x0001 [0x00] END_REQSTACK()
```

### Event 65535.1

#### Metadata

| Field        | Value    |
|--------------|----------|
| Entrypoint   | 0x0002   |
| Data Size    | 14 bytes |
| Instructions | 4        |

```
      00 01 02 03 04 05 06 07  08 09 0A 0B 0C 0D 0E 0F
      -- -- -- -- -- -- -- --  -- -- -- -- -- -- -- --
0000:       32 00 80 1F 00 01  80 02 80 03 80 1F 01 00    2.............
```

#### Opcodes

```
  0: 0x0002 [0x32] ExtData[1]->MainSpeed = 13* * 0.1
  1: 0x0005 [0x1F] MOVE_ENTITY: EventEntity moves to X=-185.241*, Z=-142.258*, Y=59.508*
  2: 0x000D [0x1F] MOVE_ENTITY: Update entity position (mode=1)
  3: 0x000F [0x00] END_REQSTACK()
```

### Event 65535.2

#### Metadata

| Field        | Value    |
|--------------|----------|
| Entrypoint   | 0x0010   |
| Data Size    | 14 bytes |
| Instructions | 4        |

```
      00 01 02 03 04 05 06 07  08 09 0A 0B 0C 0D 0E 0F
      -- -- -- -- -- -- -- --  -- -- -- -- -- -- -- --
0010: 32 00 80 1F 00 04 80 05  80 06 80 1F 01 00        2.............  
```

#### Opcodes

```
  0: 0x0010 [0x32] ExtData[1]->MainSpeed = 13* * 0.1
  1: 0x0013 [0x1F] MOVE_ENTITY: EventEntity moves to X=-188.828*, Z=-142.080*, Y=59.411*
  2: 0x001B [0x1F] MOVE_ENTITY: Update entity position (mode=1)
  3: 0x001D [0x00] END_REQSTACK()
```

### Event 65535.3

#### Metadata

| Field        | Value    |
|--------------|----------|
| Entrypoint   | 0x001E   |
| Data Size    | 14 bytes |
| Instructions | 4        |

```
      00 01 02 03 04 05 06 07  08 09 0A 0B 0C 0D 0E 0F
      -- -- -- -- -- -- -- --  -- -- -- -- -- -- -- --
0010:                                            32 00                2.
0020: 80 1F 00 07 80 08 80 09  80 1F 01 00              ............    
```

#### Opcodes

```
  0: 0x001E [0x32] ExtData[1]->MainSpeed = 13* * 0.1
  1: 0x0021 [0x1F] MOVE_ENTITY: EventEntity moves to X=-193.781*, Z=-141.964*, Y=59.417*
  2: 0x0029 [0x1F] MOVE_ENTITY: Update entity position (mode=1)
  3: 0x002B [0x00] END_REQSTACK()
```
