# 17367796 - Ayame

## Common Data

| Field            | Value                      |
|------------------|----------------------------|
| Zone             | Waughroon Shrine (ID: 144) |
| Block Size       | 192 bytes                  |
| Total Events     | 6                          |
| References Count | 15                         |

## List of Events

| Event ID                 | Entrypoint   |   Size |   Instructions |
|--------------------------|--------------|--------|----------------|
| [65535](#event-65535)    | 0x0000       |      1 |              1 |
| [32000](#event-32000)    | 0x0001       |     31 |              4 |
| [32001](#event-32001)    | 0x0020       |     18 |              4 |
| [65535.1](#event-655351) | 0x0032       |     24 |              7 |
| [65535.2](#event-655352) | 0x004A       |     10 |              2 |
| [65535.3](#event-655353) | 0x0054       |      6 |              2 |

## DAT References (imed_data)

|   Index | Hex Value   |   Dec Value |
|---------|-------------|-------------|
|       0 | 0xFFFD331B  |  4294783771 |
|       1 | 0xFFFDD553  |  4294825299 |
|       2 | 0xE9F8      |       59896 |
|       3 | 0x0FDF      |        4063 |
|       4 | 0x000B      |          11 |
|       5 | 0xFFFD2BD9  |  4294781913 |
|       6 | 0xFFFDEC46  |  4294831174 |
|       7 | 0xE9A7      |       59815 |
|       8 | 0x023D      |         573 |
|       9 | 0x0034      |          52 |
|      10 | 0xFFFD3DF6  |  4294786550 |
|      11 | 0xFFFDD5A9  |  4294825385 |
|      12 | 0xEB87      |       60295 |
|      13 | 0x0000      |           0 |
|      14 | 0x0096      |         150 |

## Events

### Event 65535

#### Metadata

| Field        | Value   |
|--------------|---------|
| Entrypoint   | 0x0000  |
| Data Size    | 1 bytes |
| Instructions | 1       |

```
      00 01 02 03 04 05 06 07  08 09 0A 0B 0C 0D 0E 0F
      -- -- -- -- -- -- -- --  -- -- -- -- -- -- -- --
0000: 00                                                .               
```

#### Opcodes

```
  0: 0x0000 [0x00] END_REQSTACK()
```

### Event 32000

#### Metadata

| Field        | Value    |
|--------------|----------|
| Entrypoint   | 0x0001   |
| Data Size    | 31 bytes |
| Instructions | 4        |

```
      00 01 02 03 04 05 06 07  08 09 0A 0B 0C 0D 0E 0F
      -- -- -- -- -- -- -- --  -- -- -- -- -- -- -- --
0000:    2F 00 F8 FF FF 7F 37  00 80 01 80 02 80 03 80   /.....7........
0010: 66 04 80 F8 FF FF 7F F8  FF FF 7F 62 74 6C 30 00  f..........btl0.
```

#### Opcodes

```
  0: 0x0001 [0x2F] EventEntity->Render.Flags0 &= ~0x80000 // Bit 19
  1: 0x0007 [0x37] UPDATE_EVENT_POSITION_AND_DIR: x=-183.525*, z=-141.997*, y=59.896*, direction=357.1°*
  2: 0x0010 [0x66] LOAD_EXT_SCHEDULER_MAIN: Load scheduler "btl0" with entities [EventEntity, EventEntity], work=11*
  3: 0x001F [0x00] END_REQSTACK()
```

### Event 32001

#### Metadata

| Field        | Value    |
|--------------|----------|
| Entrypoint   | 0x0020   |
| Data Size    | 18 bytes |
| Instructions | 4        |

```
      00 01 02 03 04 05 06 07  08 09 0A 0B 0C 0D 0E 0F
      -- -- -- -- -- -- -- --  -- -- -- -- -- -- -- --
0020: 22 01 2F 00 F8 FF FF 7F  37 05 80 06 80 07 80 08  "./.....7.......
0030: 80 00                                             ..              
```

#### Opcodes

```
  0: 0x0020 [0x22] ENTITY_HIDE_FLAG(enabled=0x01)
  1: 0x0022 [0x2F] EventEntity->Render.Flags0 &= ~0x80000 // Bit 19
  2: 0x0028 [0x37] UPDATE_EVENT_POSITION_AND_DIR: x=-185.383*, z=-136.122*, y=59.815*, direction=50.4°*
  3: 0x0031 [0x00] END_REQSTACK()
```

### Event 65535.1

#### Metadata

| Field        | Value    |
|--------------|----------|
| Entrypoint   | 0x0032   |
| Data Size    | 24 bytes |
| Instructions | 7        |

```
      00 01 02 03 04 05 06 07  08 09 0A 0B 0C 0D 0E 0F
      -- -- -- -- -- -- -- --  -- -- -- -- -- -- -- --
0030:       4E 01 F3 02 09 01  22 00 32 09 80 1F 00 0A    N.....".2.....
0040: 80 0B 80 0C 80 1F 01 22  01 00                    ......."..      
```

#### Opcodes

```
  0: 0x0032 [0x4E] SET_ENTITY_HIDE_FLAG: Hide Ayame (ID: 17367795/0x010902F3)
  1: 0x0038 [0x22] ENTITY_HIDE_FLAG(enabled=0x00)
  2: 0x003A [0x32] ExtData[1]->MainSpeed = 52* * 0.1
  3: 0x003D [0x1F] MOVE_ENTITY: EventEntity moves to X=-180.746*, Z=-141.911*, Y=60.295*
  4: 0x0045 [0x1F] MOVE_ENTITY: Update entity position (mode=1)
  5: 0x0047 [0x22] ENTITY_HIDE_FLAG(enabled=0x01)
  6: 0x0049 [0x00] END_REQSTACK()
```

### Event 65535.2

#### Metadata

| Field        | Value    |
|--------------|----------|
| Entrypoint   | 0x004A   |
| Data Size    | 10 bytes |
| Instructions | 2        |

```
      00 01 02 03 04 05 06 07  08 09 0A 0B 0C 0D 0E 0F
      -- -- -- -- -- -- -- --  -- -- -- -- -- -- -- --
0040:                                6C F8 FF FF 7F 0D            l.....
0050: 80 0E 80 00                                       ....            
```

#### Opcodes

```
  0: 0x004A [0x6C] FADE_ENTITY_COLOR(entity_id=EventEntity, end_alpha=0*, fade_time=150*)
  1: 0x0053 [0x00] END_REQSTACK()
```

### Event 65535.3

#### Metadata

| Field        | Value   |
|--------------|---------|
| Entrypoint   | 0x0054  |
| Data Size    | 6 bytes |
| Instructions | 2       |

```
      00 01 02 03 04 05 06 07  08 09 0A 0B 0C 0D 0E 0F
      -- -- -- -- -- -- -- --  -- -- -- -- -- -- -- --
0050:             5E 69 64 6C  31 00                        ^idl1.      
```

#### Opcodes

```
  0: 0x0054 [0x5E] EventEntity goes idle (kills current action) (animation: "idl1")
  1: 0x0059 [0x00] END_REQSTACK()
```
