# 17367795 - Ayame

## Common Data

| Field            | Value                      |
|------------------|----------------------------|
| Zone             | Waughroon Shrine (ID: 144) |
| Block Size       | 188 bytes                  |
| Total Events     | 4                          |
| References Count | 14                         |

## List of Events

| Event ID                 | Entrypoint   |   Size |   Instructions |
|--------------------------|--------------|--------|----------------|
| [65535](#event-65535)    | 0x0000       |      1 |              1 |
| [32000](#event-32000)    | 0x0001       |      9 |              3 |
| [32001](#event-32001)    | 0x000A       |     25 |              4 |
| [65535.1](#event-655351) | 0x0023       |     65 |              8 |

## DAT References (imed_data)

|   Index | Hex Value   |   Dec Value |
|---------|-------------|-------------|
|       0 | 0x0000      |           0 |
|       1 | 0x0001      |           1 |
|       2 | 0xFFFD2BD9  |  4294781913 |
|       3 | 0xFFFDEC46  |  4294831174 |
|       4 | 0xE9A7      |       59815 |
|       5 | 0x023D      |         573 |
|       6 | 0xFFFD3DF6  |  4294786550 |
|       7 | 0xFFFDD5A9  |  4294825385 |
|       8 | 0xEB87      |       60295 |
|       9 | 0x0FF6      |        4086 |
|      10 | 0x002C      |          44 |
|      11 | 0x000B      |          11 |
|      12 | 0x001E      |          30 |
|      13 | 0x0199      |         409 |

## Events

### Event 65535

#### Metadata

| Field        | Value   |
|--------------|---------|
| Entrypoint   | 0x0000  |
| Data Size    | 1 bytes |
| Instructions | 1       |

```
      00 01 02 03 04 05 06 07  08 09 0A 0B 0C 0D 0E 0F
      -- -- -- -- -- -- -- --  -- -- -- -- -- -- -- --
0000: 00                                                .               
```

#### Opcodes

```
  0: 0x0000 [0x00] END_REQSTACK()
```

### Event 32000

#### Metadata

| Field        | Value   |
|--------------|---------|
| Entrypoint   | 0x0001  |
| Data Size    | 9 bytes |
| Instructions | 3       |

```
      00 01 02 03 04 05 06 07  08 09 0A 0B 0C 0D 0E 0F
      -- -- -- -- -- -- -- --  -- -- -- -- -- -- -- --
0000:    22 00 2F 00 F8 FF FF  7F 00                     "./......      
```

#### Opcodes

```
  0: 0x0001 [0x22] ENTITY_HIDE_FLAG(enabled=0x00)
  1: 0x0003 [0x2F] EventEntity->Render.Flags0 &= ~0x80000 // Bit 19
  2: 0x0009 [0x00] END_REQSTACK()
```

### Event 32001

#### Metadata

| Field        | Value    |
|--------------|----------|
| Entrypoint   | 0x000A   |
| Data Size    | 25 bytes |
| Instructions | 4        |

```
      00 01 02 03 04 05 06 07  08 09 0A 0B 0C 0D 0E 0F
      -- -- -- -- -- -- -- --  -- -- -- -- -- -- -- --
0000:                                2F 00 F8 FF FF 7F            /.....
0010: 6C F8 FF FF 7F 00 80 01  80 37 02 80 03 80 04 80  l........7......
0020: 05 80 00                                          ...             
```

#### Opcodes

```
  0: 0x000A [0x2F] EventEntity->Render.Flags0 &= ~0x80000 // Bit 19
  1: 0x0010 [0x6C] FADE_ENTITY_COLOR(entity_id=EventEntity, end_alpha=0*, fade_time=1*)
  2: 0x0019 [0x37] UPDATE_EVENT_POSITION_AND_DIR: x=-185.383*, z=-136.122*, y=59.815*, direction=50.4°*
  3: 0x0022 [0x00] END_REQSTACK()
```

### Event 65535.1

#### Metadata

| Field        | Value    |
|--------------|----------|
| Entrypoint   | 0x0023   |
| Data Size    | 65 bytes |
| Instructions | 8        |

```
      00 01 02 03 04 05 06 07  08 09 0A 0B 0C 0D 0E 0F
      -- -- -- -- -- -- -- --  -- -- -- -- -- -- -- --
0020:          37 06 80 07 80  08 80 09 80 22 00 1C 01     7........"...
0030: 80 45 0A 80 F0 FF FF 7F  F0 FF FF 7F 73 67 31 39  .E..........sg19
0040: 00 80 66 0B 80 F3 02 09  01 F3 02 09 01 61 74 30  ..f..........at0
0050: 31 1C 0C 80 5B 0D 80 F1  02 09 01 F1 02 09 01 64  1...[..........d
0060: 61 6D 30 00                                       am0.            
```

#### Opcodes

```
  0: 0x0023 [0x37] UPDATE_EVENT_POSITION_AND_DIR: x=-180.746*, z=-141.911*, y=60.295*, direction=359.1°*
  1: 0x002C [0x22] ENTITY_HIDE_FLAG(enabled=0x00)
  2: 0x002E [0x1C] WAIT(1* ticks)
  3: 0x0031 [0x45] LOAD_SCHEDULED_TASK: Load scheduler "sg19" with entities [LocalPlayer, LocalPlayer], work=[44*, 0*]
  4: 0x0042 [0x66] LOAD_EXT_SCHEDULER_MAIN: Load scheduler "at01" with entities [Ayame (ID: 17367795/0x010902F3), Ayame (ID: 17367795/0x010902F3)], work=11*
  5: 0x0051 [0x1C] WAIT(30* ticks)
  6: 0x0054 [0x5B] LOAD_EXT_SCHEDULER: Load scheduler "dam0" with entities [Dark Dragon (ID: 17367793/0x010902F1), Dark Dragon (ID: 17367793/0x010902F1)], work=409*
  7: 0x0063 [0x00] END_REQSTACK()
```
