# 0x7FFFFFF0 - Zone Events

## Common Data

| Field            | Value                      |
|------------------|----------------------------|
| Zone             | Waughroon Shrine (ID: 144) |
| Block Size       | 11784 bytes                |
| Total Events     | 15                         |
| References Count | 315                        |

## List of Events

| Event ID                 | Entrypoint   |   Size |   Instructions |
|--------------------------|--------------|--------|----------------|
| [65535](#event-65535)    | 0x0000       |      1 |              1 |
| [65534](#event-65534)    | 0x0001       |      1 |              1 |
| [65535.1](#event-655351) | 0x0002       |     23 |              5 |
| [65535.2](#event-655352) | 0x0019       |     37 |              7 |
| [32000](#event-32000)    | 0x003E       |   2116 |            412 |
| [32002](#event-32002)    | 0x0882       |    494 |             83 |
| [32001](#event-32001)    | 0x0A70       |   1033 |            179 |
| [32003](#event-32003)    | 0x0E79       |    435 |             77 |
| [65535.3](#event-655353) | 0x102C       |     10 |              2 |
| [65535.4](#event-655354) | 0x1036       |     15 |              5 |
| [65535.5](#event-655355) | 0x1045       |     10 |              2 |
| [65535.6](#event-655356) | 0x104F       |      7 |              3 |
| [65535.7](#event-655357) | 0x1056       |      7 |              3 |
| [65535.8](#event-655358) | 0x105D       |     24 |              4 |
| [65535.9](#event-655359) | 0x1075       |   6232 |            822 |

## DAT References (imed_data)

|   Index | Hex Value   |   Dec Value |
|---------|-------------|-------------|
|       0 | 0xFFFD5C0E  |  4294794254 |
|       1 | 0xFFFDD4E1  |  4294825185 |
|       2 | 0xEB87      |       60295 |
|       3 | 0x0832      |        2098 |
|       4 | 0x000C      |          12 |
|       5 | 0xFFFD5280  |  4294791808 |
|       6 | 0xFFFDD71F  |  4294825759 |
|       7 | 0xEB22      |       60194 |
|       8 | 0xFFFD3445  |  4294784069 |
|       9 | 0xFFFDDE5D  |  4294827613 |
|      10 | 0xEA05      |       59909 |
|      11 | 0x0A0F      |        2575 |
|      12 | 0xFFFD2EFB  |  4294782715 |
|      13 | 0xFFFDE6D2  |  4294829778 |
|      14 | 0xE9A7      |       59815 |
|      15 | 0x0000      |           0 |
|      16 | 0x000F      |          15 |
|      17 | 0x0010      |          16 |
|      18 | 0x001F      |          31 |
|      19 | 0xFFFFFFFF  |  4294967295 |
|      20 | 0x0001      |           1 |
|      21 | 0x1DB6      |        7606 |
|      22 | 0x1DA8      |        7592 |
|      23 | 0x0005      |           5 |
|      24 | 0x0002      |           2 |
|      25 | 0x0003      |           3 |
|      26 | 0x0004      |           4 |
|      27 | 0x1C3B      |        7227 |
|      28 | 0x00FF      |         255 |
|      29 | 0x00C8      |         200 |
|      30 | 0x0013      |          19 |
|      31 | 0x0008      |           8 |
|      32 | 0x0009      |           9 |
|      33 | 0x000B      |          11 |
|      34 | 0x1C46      |        7238 |
|      35 | 0x1C47      |        7239 |
|      36 | 0x1C48      |        7240 |
|      37 | 0x1C49      |        7241 |
|      38 | 0x1C6D      |        7277 |
|      39 | 0x0006      |           6 |
|      40 | 0x0007      |           7 |
|      41 | 0x000A      |          10 |
|      42 | 0x0012      |          18 |
|      43 | 0x000D      |          13 |
|      44 | 0x000E      |          14 |
|      45 | 0x0011      |          17 |
|      46 | 0x0014      |          20 |
|      47 | 0x0015      |          21 |
|      48 | 0x0016      |          22 |
|      49 | 0x0017      |          23 |
|      50 | 0x0018      |          24 |
|      51 | 0x0019      |          25 |
|      52 | 0x001A      |          26 |
|      53 | 0x001B      |          27 |
|      54 | 0x001C      |          28 |
|      55 | 0x001D      |          29 |
|      56 | 0x001E      |          30 |
|      57 | 0x1DA2      |        7586 |
|      58 | 0x1DA7      |        7591 |
|      59 | 0x1DA6      |        7590 |
|      60 | 0x003C      |          60 |
|      61 | 0x1DB4      |        7604 |
|      62 | 0x1DB3      |        7603 |
|      63 | 0x0064      |         100 |
|      64 | 0x1D8E      |        7566 |
|      65 | 0x007D      |         125 |
|      66 | 0x1C3E      |        7230 |
|      67 | 0x00C9      |         201 |
|      68 | 0x2BE00     |      179712 |
|      69 | 0x5163E     |      333374 |
|      70 | 0x2EBC      |       11964 |
|      71 | 0x03C9      |         969 |
|      72 | 0x00B4      |         180 |
|      73 | 0xFFF6C42B  |  4294362155 |
|      74 | 0x752B9     |      479929 |
|      75 | 0xFFFFA767  |  4294944615 |
|      76 | 0x03E0      |         992 |
|      77 | 0xFFFBFE43  |  4294704707 |
|      78 | 0x5C401     |      377857 |
|      79 | 0xFFFDE79F  |  4294829983 |
|      80 | 0x0D92      |        3474 |
|      81 | 0x47AC      |       18348 |
|      82 | 0x76E1C     |      486940 |
|      83 | 0xFFFC93B2  |  4294742962 |
|      84 | 0x00C2      |         194 |
|      85 | 0x388A9     |      231593 |
|      86 | 0x57E9E     |      360094 |
|      87 | 0xFFFD59FC  |  4294793724 |
|      88 | 0x0726      |        1830 |
|      89 | 0x872C0     |      553664 |
|      90 | 0x7FEA3     |      523939 |
|      91 | 0xFFFF6AC3  |  4294929091 |
|      92 | 0x0A65      |        2661 |
|      93 | 0xFFFA99C8  |  4294613448 |
|      94 | 0xFFFC072E  |  4294706990 |
|      95 | 0x196CC     |      104140 |
|      96 | 0x0825      |        2085 |
|      97 | 0xFFF2A593  |  4294092179 |
|      98 | 0xFFFF548C  |  4294923404 |
|      99 | 0xFFFF442C  |  4294919212 |
|     100 | 0x0201      |         513 |
|     101 | 0xFFF478D5  |  4294211797 |
|     102 | 0x89AEB     |      563947 |
|     103 | 0xFFFE4A5D  |  4294855261 |
|     104 | 0x0DEF      |        3567 |
|     105 | 0x1E173     |      123251 |
|     106 | 0xB8221     |      754209 |
|     107 | 0xFFFD5FA4  |  4294795172 |
|     108 | 0x01B8      |         440 |
|     109 | 0xFFF81ECC  |  4294450892 |
|     110 | 0xFFF3BE05  |  4294163973 |
|     111 | 0x5E8E      |       24206 |
|     112 | 0x01B5      |         437 |
|     113 | 0x012C      |         300 |
|     114 | 0x0080      |         128 |
|     115 | 0xFFF690A7  |  4294348967 |
|     116 | 0xFFF62CE4  |  4294323428 |
|     117 | 0xFFFF9B33  |  4294941491 |
|     118 | 0x0EB1      |        3761 |
|     119 | 0xFFFAEE7D  |  4294635133 |
|     120 | 0xFFF941C6  |  4294525382 |
|     121 | 0xFFFE8CB1  |  4294872241 |
|     122 | 0x0EB0      |        3760 |
|     123 | 0xFFFFCF50  |  4294954832 |
|     124 | 0xFFF61B47  |  4294318919 |
|     125 | 0xFFFD07BB  |  4294772667 |
|     126 | 0x0EBA      |        3770 |
|     127 | 0x4EF35     |      323381 |
|     128 | 0xFFF93A6F  |  4294523503 |
|     129 | 0xFFFE5868  |  4294858856 |
|     130 | 0x0EA0      |        3744 |
|     131 | 0x92763     |      599907 |
|     132 | 0xFFF5AB97  |  4294290327 |
|     133 | 0xFFFFA837  |  4294944823 |
|     134 | 0x0EB3      |        3763 |
|     135 | 0x52CEB     |      339179 |
|     136 | 0x3EBAC     |      256940 |
|     137 | 0xFFFE3E61  |  4294852193 |
|     138 | 0x0C16      |        3094 |
|     139 | 0x00A8      |         168 |
|     140 | 0x30D7B     |      200059 |
|     141 | 0xFFFFAA3A  |  4294945338 |
|     142 | 0xFFFFFF06  |  4294967046 |
|     143 | 0x0411      |        1041 |
|     144 | 0x00CA      |         202 |
|     145 | 0x837EC     |      538604 |
|     146 | 0x7A88C     |      501900 |
|     147 | 0xFFFFC98A  |  4294953354 |
|     148 | 0x0CBC      |        3260 |
|     149 | 0x00CB      |         203 |
|     150 | 0x870F5     |      553205 |
|     151 | 0x8FF41     |      589633 |
|     152 | 0xFFFFFFEB  |  4294967275 |
|     153 | 0x0587      |        1415 |
|     154 | 0x00D3      |         211 |
|     155 | 0x8AF88     |      569224 |
|     156 | 0x85E6E     |      548462 |
|     157 | 0x8FE5      |       36837 |
|     158 | 0x02A1      |         673 |
|     159 | 0x0024      |          36 |
|     160 | 0x1D90      |        7568 |
|     161 | 0x1D8F      |        7567 |
|     162 | 0x1DB2      |        7602 |
|     163 | 0x1D92      |        7570 |
|     164 | 0x1D91      |        7569 |
|     165 | 0xFFFAAC71  |  4294618225 |
|     166 | 0xFFFC07A5  |  4294707109 |
|     167 | 0x1975D     |      104285 |
|     168 | 0x0025      |          37 |
|     169 | 0xFFFAC189  |  4294623625 |
|     170 | 0xFFFC0525  |  4294706469 |
|     171 | 0x19919     |      104729 |
|     172 | 0xFFFD4E42  |  4294790722 |
|     173 | 0xFFFDCFDC  |  4294823900 |
|     174 | 0xEB1A      |       60186 |
|     175 | 0x0B62      |        2914 |
|     176 | 0x0046      |          70 |
|     177 | 0x008C      |         140 |
|     178 | 0x00D2      |         210 |
|     179 | 0x0199      |         409 |
|     180 | 0x002C      |          44 |
|     181 | 0xFFFABDFA  |  4294622714 |
|     182 | 0xFFFC062F  |  4294706735 |
|     183 | 0x198ED     |      104685 |
|     184 | 0x0FEB      |        4075 |
|     185 | 0xFFFAD018  |  4294627352 |
|     186 | 0xFFFC0700  |  4294706944 |
|     187 | 0x19770     |      104304 |
|     188 | 0x07F8      |        2040 |
|     189 | 0x1DBD      |        7613 |
|     190 | 0x1DBE      |        7614 |
|     191 | 0x1DBF      |        7615 |
|     192 | 0x1DC0      |        7616 |
|     193 | 0x1DC1      |        7617 |
|     194 | 0x1DC2      |        7618 |
|     195 | 0x1DC3      |        7619 |
|     196 | 0x0069      |         105 |
|     197 | 0x1DD6      |        7638 |
|     198 | 0x1DD7      |        7639 |
|     199 | 0xFFFC0005  |  4294705157 |
|     200 | 0xFFFDDDA9  |  4294827433 |
|     201 | 0xEB90      |       60304 |
|     202 | 0xFFFF0E57  |  4294905431 |
|     203 | 0x4E85      |       20101 |
|     204 | 0x0130      |         304 |
|     205 | 0x0FF7      |        4087 |
|     206 | 0x21B65     |      138085 |
|     207 | 0x22333     |      140083 |
|     208 | 0xFFFF16D1  |  4294907601 |
|     209 | 0x0FEE      |        4078 |
|     210 | 0x00D8      |         216 |
|     211 | 0x1DFB      |        7675 |
|     212 | 0x1DFC      |        7676 |
|     213 | 0x1DFD      |        7677 |
|     214 | 0x1DFE      |        7678 |
|     215 | 0x1DFF      |        7679 |
|     216 | 0x002D      |          45 |
|     217 | 0xFFFD37BA  |  4294784954 |
|     218 | 0xFFFDD4EA  |  4294825194 |
|     219 | 0x0144      |         324 |
|     220 | 0xFFFD4A9E  |  4294789790 |
|     221 | 0xFFFDD4A6  |  4294825126 |
|     222 | 0xEB10      |       60176 |
|     223 | 0x083C      |        2108 |
|     224 | 0x022B      |         555 |
|     225 | 0x1E2F      |        7727 |
|     226 | 0x0075      |         117 |
|     227 | 0x007E      |         126 |
|     228 | 0x1E30      |        7728 |
|     229 | 0x0032      |          50 |
|     230 | 0x009D      |         157 |
|     231 | 0x005F      |          95 |
|     232 | 0x0060      |          96 |
|     233 | 0xFFFD5E9D  |  4294794909 |
|     234 | 0xFFFDD0EC  |  4294824172 |
|     235 | 0xEB1D      |       60189 |
|     236 | 0x0ED6      |        3798 |
|     237 | 0x1DC4      |        7620 |
|     238 | 0xFFFD6211  |  4294795793 |
|     239 | 0xFFFDD346  |  4294824774 |
|     240 | 0xEA7A      |       60026 |
|     241 | 0x0F5E      |        3934 |
|     242 | 0x1DC5      |        7621 |
|     243 | 0x1DC6      |        7622 |
|     244 | 0x1DC7      |        7623 |
|     245 | 0x1DC8      |        7624 |
|     246 | 0x1DC9      |        7625 |
|     247 | 0x1DCA      |        7626 |
|     248 | 0x1DCB      |        7627 |
|     249 | 0x1DCC      |        7628 |
|     250 | 0x1DCD      |        7629 |
|     251 | 0x1DCE      |        7630 |
|     252 | 0x1DCF      |        7631 |
|     253 | 0x1DD0      |        7632 |
|     254 | 0x1DD1      |        7633 |
|     255 | 0x1DD2      |        7634 |
|     256 | 0x1DD3      |        7635 |
|     257 | 0x1DD4      |        7636 |
|     258 | 0x1DD5      |        7637 |
|     259 | 0x007A      |         122 |
|     260 | 0xFFFD53D9  |  4294792153 |
|     261 | 0xFFFDDB36  |  4294826806 |
|     262 | 0x0D5D      |        3421 |
|     263 | 0x00ED      |         237 |
|     264 | 0x1DD8      |        7640 |
|     265 | 0x1DD9      |        7641 |
|     266 | 0x1DDA      |        7642 |
|     267 | 0x1DDB      |        7643 |
|     268 | 0x1DDC      |        7644 |
|     269 | 0x1DDD      |        7645 |
|     270 | 0x0078      |         120 |
|     271 | 0xFFFD1E64  |  4294778468 |
|     272 | 0xFFFDD500  |  4294825216 |
|     273 | 0xE813      |       59411 |
|     274 | 0xFFFD1B6C  |  4294777708 |
|     275 | 0xFFFDCC34  |  4294822964 |
|     276 | 0xE82B      |       59435 |
|     277 | 0x0031      |          49 |
|     278 | 0x0062      |          98 |
|     279 | 0x0023      |          35 |
|     280 | 0x005A      |          90 |
|     281 | 0x0804      |        2052 |
|     282 | 0x1E31      |        7729 |
|     283 | 0x1E32      |        7730 |
|     284 | 0x1E33      |        7731 |
|     285 | 0x1E34      |        7732 |
|     286 | 0x0020      |          32 |
|     287 | 0x1E35      |        7733 |
|     288 | 0x1E36      |        7734 |
|     289 | 0x0805      |        2053 |
|     290 | 0x1E37      |        7735 |
|     291 | 0x0050      |          80 |
|     292 | 0x1E38      |        7736 |
|     293 | 0x1E39      |        7737 |
|     294 | 0x1E3A      |        7738 |
|     295 | 0x1E3B      |        7739 |
|     296 | 0x1E3C      |        7740 |
|     297 | 0x362C      |       13868 |
|     298 | 0x1E00      |        7680 |
|     299 | 0x1E01      |        7681 |
|     300 | 0x010E      |         270 |
|     301 | 0x1E02      |        7682 |
|     302 | 0x1E03      |        7683 |
|     303 | 0x1C3C      |        7228 |
|     304 | 0x0800      |        2048 |
|     305 | 0x0065      |         101 |
|     306 | 0x0068      |         104 |
|     307 | 0x006B      |         107 |
|     308 | 0x007F      |         127 |
|     309 | 0x0067      |         103 |
|     310 | 0x006A      |         106 |
|     311 | 0x006D      |         109 |
|     312 | 0x0077      |         119 |
|     313 | 0x0081      |         129 |
|     314 | 0x00D7      |         215 |

## String References

- **7227**: Enter the battlefield? [Enter./Decline.]
- **7228**: Leave the battlefield? [Run away./Stay.]
- **7230**: You cannot enter the battlefield at present. Please wait a little longer.
- **7238**: You are cleared to enter the battlefield, but you cannot while party members are engaged in combat.
- **7239**: You are cleared to enter the battlefield, but you cannot while party members are engaged in combat.
- **7240**: You are cleared to enter the battlefield, but you cannot while party members are engaged in combat.
- **7241**: You are cleared to enter the battlefield, but you cannot while party members are engaged in combat.
- **7277**: You do not meet the requirements to enter the battlefield. Access is denied.
- **7566**: Skip the event? [Yes./No.]
- **7567**: Battlefield clear time: $3 second[/s]!
- **7568**: Battlefield clear time: $3 minute[/s], $2 second[/s]!
- **7569**: The current battlefield clear time record is $3 second[/s].
- **7570**: The current battlefield clear time record is $3 minute[/s] $2 second[/s].
- **7586**: Only $3 [member/members] have clearance to enter the battlefield. This room has reached its maximum capacity.
- **7590**: That record is held by $5 adventurers, including %0!
- **7591**: That record is held by %0!
- **7592**: Select difficulty. [Very difficult. (Level: ???)/Difficult. (Level: ???)/Normal. (Level: $18)/Easy. (Level: $17)/Very Easy. (Level: $16)/Leave.]
- **7602**: You have broken the clear time record for [The Rank 2 Final Mission/The Worm's Tail/Grimshell Shocktroopers/On My Way/A Thief in Norg!?/3,2,1.../Shattering Start (RDM)/Shattering Stars (THF)/Shattering Stars (BST)/ Birds of a Feather/Crustacean Conundrum/Grove Guardians/The Hills are Alive/Royal Jelly/The Final Bout/Up in Arms/Copycat/Operation Desert Swarm/Prehistoric Pigeons/The Palborough Project/Shell Shocked/Beyond Infinity/$26The Worm's Tail/$26Grimshell Shocktroopers/A Feast Most Dire/A.M.A.N. Trove (Mars)/A.M.A.N. Trove (Venus)/Invitation from Naji/Invitation from Naji and Co.]!
- **7603**: The current battlefield clear time record for "[The Rank 2 Final Mission/The Worm's Turn/Grimshell Shocktroopers/On My Way/A Thief in Norg!?/3, 2, 1.../Shattering Stars (RDM)/Shattering Stars (THF)/Shattering Stars (BST)/Birds of a Feather/Crustacean Conundrum/Grove Guardians/The Hills are Alive/Royal Jelly/The Final Bout/Up in Arms/Copycat/Operation Desert Swarm/Prehistoric Pigeons/The Palborough Project/Shell Shocked/Beyond Infinity/$26The Worm's Tail/$26Grimshell Shocktroopers/A Feast Most Dire/A.M.A.N. Trove (Mars)/A.M.A.N. Trove (Venus)/Invitation from Naji/Invitation from Naji and Co.]" is $3 second[/s].
- **7604**: The current battlefield clear time record for "[The Rank 2 Final Mission/The Worm's Turn/Grimshell Shocktroopers/On My Way/A Thief in Norg!?/3, 2, 1.../Shattering Stars (RDM)/Shattering Stars (THF)/Shattering Stars (BST)/Birds of a Feather/Crustacean Conundrum/Grove Guardians/The Hills are Alive/Royal Jelly/The Final Bout/Up in Arms/Copycat/Operation Desert Swarm/Prehistoric Pigeons/The Palborough Project/Shell Shocked/Beyond Infinity/$26The Worm's Tail/$26Grimshell Shocktroopers/A Feast Most Dire/A.M.A.N. Trove (Mars)/A.M.A.N. Trove (Venus)/Invitation from Naji/Invitation from Naji and Co.]" is $3 minute[/s] $2 second[/s].
- **7606**: Which battlefield will you enter? [None./The Rank 2 Final Mission./The Worm's Turn./Grimshell Shocktroopers./On My Way./A Thief in Norg!?", 2, 1.../Shattering Stars (RDM)./Shattering Stars (THF)./Shattering Stars (BST)./Birds of a Feather./Crustacean Conundrum./Grove Guardians./The Hills are Alive./Royal Jelly./The Final Bout./Up in Arms./Copycat./Operation Desert Swarm./Prehistoric Pigeons./The Palborough Project./Shell Shocked./Beyond Infinity./$26The Worm's Tail/$26Grimshell Shocktroopers/A Feast Most Dire./A.M.A.N. Trove (Mars)./A.M.A.N. Trove (Venus)./Invitation form Naji./Invitation from Naji and Co././././]
- **7639**: You thought you heard a call for help.
- **7729**: The $3 dematerializes before your eyes!

## Events

### Event 65535

#### Metadata

| Field        | Value   |
|--------------|---------|
| Entrypoint   | 0x0000  |
| Data Size    | 1 bytes |
| Instructions | 1       |

```
      00 01 02 03 04 05 06 07  08 09 0A 0B 0C 0D 0E 0F
      -- -- -- -- -- -- -- --  -- -- -- -- -- -- -- --
0000: 00                                                .               
```

#### Opcodes

```
  0: 0x0000 [0x00] END_REQSTACK()
```

### Event 65534

#### Metadata

| Field        | Value   |
|--------------|---------|
| Entrypoint   | 0x0001  |
| Data Size    | 1 bytes |
| Instructions | 1       |

```
      00 01 02 03 04 05 06 07  08 09 0A 0B 0C 0D 0E 0F
      -- -- -- -- -- -- -- --  -- -- -- -- -- -- -- --
0000:    00                                              .              
```

#### Opcodes

```
  0: 0x0001 [0x00] END_REQSTACK()
```

### Event 65535.1

#### Metadata

| Field        | Value    |
|--------------|----------|
| Entrypoint   | 0x0002   |
| Data Size    | 23 bytes |
| Instructions | 5        |

```
      00 01 02 03 04 05 06 07  08 09 0A 0B 0C 0D 0E 0F
      -- -- -- -- -- -- -- --  -- -- -- -- -- -- -- --
0000:       37 00 80 01 80 02  80 03 80 32 04 80 1F 00    7........2....
0010: 05 80 06 80 07 80 1F 01  00                       .........       
```

#### Opcodes

```
  0: 0x0002 [0x37] UPDATE_EVENT_POSITION_AND_DIR: x=-173.042*, z=-142.111*, y=60.295*, direction=184.4°*
  1: 0x000B [0x32] ExtData[1]->MainSpeed = 12* * 0.1
  2: 0x000E [0x1F] MOVE_ENTITY: EventEntity moves to X=-175.488*, Z=-141.537*, Y=60.194*
  3: 0x0016 [0x1F] MOVE_ENTITY: Update entity position (mode=1)
  4: 0x0018 [0x00] END_REQSTACK()
```

### Event 65535.2

#### Metadata

| Field        | Value    |
|--------------|----------|
| Entrypoint   | 0x0019   |
| Data Size    | 37 bytes |
| Instructions | 7        |

```
      00 01 02 03 04 05 06 07  08 09 0A 0B 0C 0D 0E 0F
      -- -- -- -- -- -- -- --  -- -- -- -- -- -- -- --
0010:                             37 08 80 09 80 0A 80           7......
0020: 0B 80 32 04 80 1F 00 0C  80 0D 80 0E 80 1F 01 6F  ..2............o
0030: 2C F0 FF FF 7F F0 FF FF  7F 72 65 73 30 00        ,........res0.  
```

#### Opcodes

```
  0: 0x0019 [0x37] UPDATE_EVENT_POSITION_AND_DIR: x=-183.227*, z=-139.683*, y=59.909*, direction=226.3°*
  1: 0x0022 [0x32] ExtData[1]->MainSpeed = 12* * 0.1
  2: 0x0025 [0x1F] MOVE_ENTITY: EventEntity moves to X=-184.581*, Z=-137.518*, Y=59.815*
  3: 0x002D [0x1F] MOVE_ENTITY: Update entity position (mode=1)
  4: 0x002F [0x6F] WAIT_FRAME_DELAY: Yield until WaitTime reaches zero
  5: 0x0030 [0x2C] CREATE_SCHEDULER_TASK: Create scheduler "res0" with entities [LocalPlayer, LocalPlayer]
  6: 0x003D [0x00] END_REQSTACK()
```

### Event 32000

#### Metadata

| Field        | Value      |
|--------------|------------|
| Entrypoint   | 0x003E     |
| Data Size    | 2116 bytes |
| Instructions | 279        |

```
      00 01 02 03 04 05 06 07  08 09 0A 0B 0C 0D 0E 0F
      -- -- -- -- -- -- -- --  -- -- -- -- -- -- -- --
0030:                                            20 01                 .
0040: 79 00 F0 FF FF 7F F0 FF  FF 7F 03 02 00 02 10 03  y...............
0050: 03 00 03 10 03 05 00 04  10 03 06 00 05 10 03 0F  ................
0060: 00 06 10 03 10 00 07 10  03 11 00 08 10 41 0F 80  .............A..
0070: 10 80 09 10 07 00 41 11  80 12 80 09 10 06 10 06  ......A.........
0080: 01 00 02 07 00 0F 80 00  81 01 03 08 00 13 80 0F  ................
0090: 08 00 06 00 10 08 00 14  80 24 15 80 0F 80 08 00  .........$......
00A0: 25 02 00 10 0F 80 00 AF  00 01 67 08 01 81 01 03  %.........g.....
00B0: 03 00 00 10 0C 03 00 06  16 00 06 13 00 3E 0F 00  .............>..
00C0: 03 00 5D 01 06 0F 00 06  08 00 3E 11 00 03 00 D4  ..].......>.....
00D0: 00 01 DB 00 3C 08 00 0F  80 14 80 3E 10 00 03 00  ....<......>....
00E0: E5 00 01 EC 00 3C 08 00  14 80 14 80 1A 76 25 24  .....<.......v%$
00F0: 16 80 17 80 08 00 25 02  00 10 0F 80 00 07 01 03  ......%.........
0100: 0F 00 14 80 01 5A 01 02  00 10 14 80 00 17 01 03  .....Z..........
0110: 0F 00 18 80 01 5A 01 02  00 10 18 80 00 27 01 03  .....Z.......'..
0120: 0F 00 19 80 01 5A 01 02  00 10 19 80 00 37 01 03  .....Z.......7..
0130: 0F 00 1A 80 01 5A 01 02  00 10 1A 80 00 47 01 03  .....Z.......G..
0140: 0F 00 17 80 01 5A 01 02  00 10 17 80 00 55 01 01  .....Z.......U..
0150: 67 08 01 5A 01 03 0F 00  19 80 01 81 01 06 0F 00  g..Z............
0160: 1A 81 08 02 16 00 14 80  00 81 01 24 1B 80 14 80  ...........$....
0170: 0F 80 25 02 00 10 14 80  00 81 01 01 67 08 01 81  ..%.........g...
0180: 01 42 03 01 10 1C 80 43  00 43 01 06 01 10 45 1D  .B.....C.C....E.
0190: 80 F0 FF FF 7F F0 FF FF  7F 66 64 6F 31 0F 80 55  .........fdo1..U
01A0: 1D 80 F0 FF FF 7F F0 FF  FF 7F 66 64 6F 31 3B F0  ..........fdo1;.
01B0: FF FF 7F 20 10 21 10 22  10 38 1E 80 02 07 00 14  ... .!.".8......
01C0: 80 00 DB 01 03 00 00 14  80 03 04 00 03 00 03 02  ................
01D0: 00 0F 80 03 1C 00 0F 80  01 9B 05 03 00 00 14 80  ................
01E0: 02 00 00 19 80 05 30 08  02 0F 80 14 80 00 F5 01  ......0.........
01F0: 03 00 00 05 00 40 0F 80  19 80 01 10 00 00 40 1A  .....@........@.
0200: 80 1F 80 01 10 03 00 40  20 80 21 80 01 10 0F 00  .......@ .!.....
0210: 06 02 10 06 03 10 06 04  10 1A 50 28 47 00 09 00  ..........P(G...
0220: 0A 00 0B 00 0C 00 47 01  03 04 00 03 10 03 02 00  ......G.........
0230: 04 10 03 1A 00 05 10 03  0D 00 06 10 03 0E 00 07  ................
0240: 10 03 1C 00 09 10 02 02  10 14 80 80 51 02 01 1D  ............Q...
0250: 08 02 02 10 1A 80 80 9B  02 02 00 00 14 80 80 68  ...............h
0260: 02 48 22 80 23 01 95 02  02 00 00 18 80 80 77 02  .H".#.........w.
0270: 48 23 80 23 01 95 02 02  00 00 19 80 80 86 02 48  H#.#...........H
0280: 24 80 23 01 95 02 02 00  00 1A 80 80 95 02 48 25  $.#...........H%
0290: 80 23 01 95 02 01 34 08  01 1D 08 02 02 10 17 80  .#....4.........
02A0: 80 AD 02 48 26 80 23 01  34 08 01 1D 08 02 02 10  ...H&.#.4.......
02B0: 27 80 80 AF 04 02 04 00  0F 80 80 C5 02 03 05 10  '...............
02C0: 27 80 01 A5 04 02 04 00  14 80 80 D5 02 03 05 10  '...............
02D0: 27 80 01 A5 04 02 04 00  18 80 80 E5 02 03 05 10  '...............
02E0: 27 80 01 A5 04 02 04 00  19 80 80 F5 02 03 05 10  '...............
02F0: 27 80 01 A5 04 02 04 00  1A 80 80 05 03 03 05 10  '...............
0300: 27 80 01 A5 04 02 04 00  17 80 80 15 03 03 05 10  '...............
0310: 27 80 01 A5 04 02 04 00  27 80 80 25 03 03 05 10  '.......'..%....
0320: 14 80 01 A5 04 02 04 00  28 80 80 35 03 03 05 10  ........(..5....
0330: 14 80 01 A5 04 02 04 00  1F 80 80 45 03 03 05 10  ...........E....
0340: 14 80 01 A5 04 02 04 00  20 80 80 55 03 03 05 10  ........ ..U....
0350: 19 80 01 A5 04 02 04 00  29 80 80 65 03 03 05 10  ........)..e....
0360: 19 80 01 A5 04 02 04 00  21 80 80 75 03 03 05 10  ........!..u....
0370: 27 80 01 A5 04 02 04 00  04 80 80 85 03 03 05 10  '...............
0380: 2A 80 01 A5 04 02 04 00  2B 80 80 95 03 03 05 10  *.......+.......
0390: 19 80 01 A5 04 02 04 00  2C 80 80 A5 03 03 05 10  ........,.......
03A0: 19 80 01 A5 04 02 04 00  10 80 80 B5 03 03 05 10  ................
03B0: 19 80 01 A5 04 02 04 00  11 80 80 C5 03 03 05 10  ................
03C0: 27 80 01 A5 04 02 04 00  2D 80 80 D5 03 03 05 10  '.......-.......
03D0: 27 80 01 A5 04 02 04 00  2A 80 80 E5 03 03 05 10  '.......*.......
03E0: 27 80 01 A5 04 02 04 00  1E 80 80 F5 03 03 05 10  '...............
03F0: 19 80 01 A5 04 02 04 00  2E 80 80 05 04 03 05 10  ................
0400: 27 80 01 A5 04 02 04 00  2F 80 80 15 04 03 05 10  '......./.......
0410: 27 80 01 A5 04 02 04 00  30 80 80 25 04 03 05 10  '.......0..%....
0420: 27 80 01 A5 04 02 04 00  31 80 80 35 04 03 05 10  '.......1..5....
0430: 27 80 01 A5 04 02 04 00  32 80 80 45 04 03 05 10  '.......2..E....
0440: 27 80 01 A5 04 02 04 00  33 80 80 55 04 03 05 10  '.......3..U....
0450: 27 80 01 A5 04 02 04 00  34 80 80 65 04 03 05 10  '.......4..e....
0460: 27 80 01 A5 04 02 04 00  35 80 80 75 04 03 05 10  '.......5..u....
0470: 27 80 01 A5 04 02 04 00  36 80 80 85 04 03 05 10  '.......6.......
0480: 27 80 01 A5 04 02 04 00  37 80 80 95 04 03 05 10  '.......7.......
0490: 0F 80 01 A5 04 02 04 00  38 80 80 A5 04 03 05 10  ........8.......
04A0: 0F 80 01 A5 04 48 39 80  23 01 34 08 01 1D 08 02  .....H9.#.4.....
04B0: 02 10 19 80 80 BD 04 01  DB 01 01 1D 08 02 02 10  ................
04C0: 18 80 80 1D 08 02 0D 00  0F 80 01 51 05 02 13 00  ...........Q....
04D0: 0F 80 01 05 05 03 05 10  1A 00 02 1A 00 0F 80 02  ................
04E0: E2 04 02 0D 00 14 80 05  F1 04 48 3A 80 23 01 02  ..........H:.#..
04F0: 05 03 06 10 0D 00 0C 06  10 03 07 10 0D 00 48 3B  ..............H;
0500: 80 23 01 51 05 03 05 10  1A 00 02 1A 00 0F 80 02  .#.Q............
0510: 31 05 02 1A 00 3C 80 04  2D 05 3F 04 10 05 10 3C  1....<..-.?....<
0520: 80 15 05 10 3C 80 48 3D  80 23 01 31 05 48 3E 80  ....<.H=.#.1.H>.
0530: 23 02 0D 00 14 80 05 40  05 48 3A 80 23 01 51 05  #......@.H:.#.Q.
0540: 03 06 10 0D 00 0C 06 10  03 07 10 0D 00 48 3B 80  .............H;.
0550: 23 03 03 00 04 00 03 14  00 3F 80 07 14 00 03 00  #........?......
0560: 02 02 00 14 00 00 70 05  03 02 00 14 80 01 75 05  ......p.......u.
0570: 03 02 00 0F 80 02 02 00  0F 80 00 9B 05 02 0E 00  ................
0580: 14 80 00 9B 05 24 40 80  14 80 0F 80 25 02 00 10  .....$@.....%...
0590: 0F 80 00 9B 05 05 02 00  01 9B 05 06 15 00 02 04  ................
05A0: 00 0F 80 80 AE 05 03 15  00 0F 80 01 93 07 02 04  ................
05B0: 00 14 80 80 BE 05 03 15  00 0F 80 01 93 07 02 04  ................
05C0: 00 18 80 80 CE 05 03 15  00 0F 80 01 93 07 02 04  ................
05D0: 00 19 80 80 DE 05 03 15  00 0F 80 01 93 07 02 04  ................
05E0: 00 1A 80 80 EE 05 03 15  00 0F 80 01 93 07 02 04  ................
05F0: 00 17 80 80 FE 05 03 15  00 0F 80 01 93 07 02 04  ................
0600: 00 27 80 80 0E 06 03 15  00 0F 80 01 93 07 02 04  .'..............
0610: 00 28 80 80 1E 06 03 15  00 0F 80 01 93 07 02 04  .(..............
0620: 00 1F 80 80 2E 06 03 15  00 0F 80 01 93 07 02 04  ................
0630: 00 20 80 80 3E 06 03 15  00 0F 80 01 93 07 02 04  . ..>...........
0640: 00 29 80 80 4E 06 03 15  00 0F 80 01 93 07 02 04  .)..N...........
0650: 00 21 80 80 5E 06 03 15  00 0F 80 01 93 07 02 04  .!..^...........
0660: 00 04 80 80 6E 06 03 15  00 0F 80 01 93 07 02 04  ....n...........
0670: 00 2B 80 80 7E 06 03 15  00 0F 80 01 93 07 02 04  .+..~...........
0680: 00 2C 80 80 8E 06 03 15  00 0F 80 01 93 07 02 04  .,..............
0690: 00 10 80 80 9E 06 03 15  00 0F 80 01 93 07 02 04  ................
06A0: 00 11 80 80 AE 06 03 15  00 0F 80 01 93 07 02 04  ................
06B0: 00 2D 80 80 BE 06 03 15  00 0F 80 01 93 07 02 04  .-..............
06C0: 00 2A 80 80 CE 06 03 15  00 0F 80 01 93 07 02 04  .*..............
06D0: 00 1E 80 80 DE 06 03 15  00 0F 80 01 93 07 02 04  ................
06E0: 00 2E 80 80 EE 06 03 15  00 0F 80 01 93 07 02 04  ................
06F0: 00 2F 80 80 FE 06 03 15  00 0F 80 01 93 07 02 04  ./..............
0700: 00 30 80 80 0E 07 03 15  00 0F 80 01 93 07 02 04  .0..............
0710: 00 31 80 80 1E 07 03 15  00 0F 80 01 93 07 02 04  .1..............
0720: 00 32 80 80 2E 07 03 15  00 0F 80 01 93 07 02 04  .2..............
0730: 00 33 80 80 3E 07 03 15  00 0F 80 01 93 07 02 04  .3..>...........
0740: 00 34 80 80 4E 07 03 15  00 0F 80 01 93 07 02 04  .4..N...........
0750: 00 35 80 80 5E 07 03 15  00 0F 80 01 93 07 02 04  .5..^...........
0760: 00 36 80 80 6E 07 03 15  00 0F 80 01 93 07 02 04  .6..n...........
0770: 00 37 80 80 7E 07 03 15  00 0F 80 01 93 07 02 04  .7..~...........
0780: 00 38 80 80 8E 07 03 15  00 0F 80 01 93 07 03 15  .8..............
0790: 00 0F 80 02 02 00 14 80  00 AE 07 5C 00 41 80 5C  ...........\.A.\
07A0: 01 41 80 5C 02 41 80 5C  03 41 80 01 C6 07 02 15  .A.\.A.\.A......
07B0: 00 0F 80 00 C6 07 5C 00  41 80 5C 01 41 80 5C 02  ......\.A.\.A.\.
07C0: 41 80 5C 03 41 80 02 02  00 0F 80 00 D4 07 1A 38  A.\.A..........8
07D0: 11 01 0D 08 6C F0 FF FF  7F 0F 80 14 80 62 18 80  ....l........b..
07E0: F0 FF FF 7F F0 FF FF 7F  6D 61 69 6E 0F 80 45 1D  ........main..E.
07F0: 80 F0 FF FF 7F F0 FF FF  7F 6F 76 6C 31 0F 80 46  .........ovl1..F
0800: 02 12 00 02 12 00 0F 80  00 0D 08 46 00 03 01 10  ...........F....
0810: 3F 80 07 01 10 03 00 01  34 08 01 1D 08 0B 00 00  ?.......4.......
0820: 02 0F 80 14 80 00 2D 08  03 00 00 1A 80 01 E0 01  ......-.........
0830: 48 42 80 23 45 43 80 F0  FF FF 7F F0 FF FF 7F 77  HB.#EC.........w
0840: 68 69 31 0F 80 45 1D 80  F0 FF FF 7F F0 FF FF 7F  hi1..E..........
0850: 62 6C 6F 66 0F 80 45 1D  80 F0 FF FF 7F F0 FF FF  blof..E.........
0860: 7F 66 64 69 30 0F 80 02  07 00 14 80 00 7F 08 5C  .fdi0..........\
0870: 00 0F 80 5C 01 0F 80 5C  02 41 80 5C 03 41 80 21  ...\...\.A.\.A.!
0880: 00 1B                                             ..              
```

#### Opcodes

```
  0: 0x003E [0x20] SET_CLI_EVENT_UC_FLAG: Lock player control
  1: 0x0040 [0x79] LocalPlayer looks at LocalPlayer (Basic look)
  2: 0x004A [0x03] ExtData[1]->WorkLocal[2] = Work_Zone[2]
  3: 0x004F [0x03] ExtData[1]->WorkLocal[3] = Work_Zone[3]
  4: 0x0054 [0x03] ExtData[1]->WorkLocal[5] = Work_Zone[4]
  5: 0x0059 [0x03] ExtData[1]->WorkLocal[6] = Work_Zone[5]
  6: 0x005E [0x03] ExtData[1]->WorkLocal[15] = Work_Zone[6]
  7: 0x0063 [0x03] ExtData[1]->WorkLocal[16] = Work_Zone[7]
  8: 0x0068 [0x03] ExtData[1]->WorkLocal[17] = Work_Zone[8]
  9: 0x006D [0x41] ExtData[1]->WorkLocal[7] = Work_Zone[9] (bits 0*-15*)
 10: 0x0076 [0x41] Work_Zone[6] = Work_Zone[9] (bits 16*-31*)
 11: 0x007F [0x06] ExtData[1]->WorkLocal[1] = 0
 12: 0x0082 [0x02] IF !(ExtData[1]->WorkLocal[7] == 0*) GOTO 0x0181
 13: 0x008A [0x03] ExtData[1]->WorkLocal[8] = 4294967295*
 14: 0x008F [0x0F] ExtData[1]->WorkLocal[8] ^= ExtData[1]->WorkLocal[6]
 15: 0x0094 [0x10] ExtData[1]->WorkLocal[8] <<= 1*
 16: 0x0099 [0x24] CREATE_DIALOG(message_id=7606*, default_option=0*, option_flags=ExtData[1]->WorkLocal[8])
    → "Which battlefield will you enter? [None./The Rank 2 Final Mission./The Worm's Turn./Grimshell Shocktroopers./On My Way./A Thief in Norg!?", 2, 1.../Shattering Stars (RDM)./Shattering Stars (THF)./Shattering Stars (BST)./Birds of a Feather./Crustacean Conundrum./Grove Guardians./The Hills are Alive./Royal Jelly./The Final Bout./Up in Arms./Copycat./Operation Desert Swarm./Prehistoric Pigeons./The Palborough Project./Shell Shocked./Beyond Infinity./$26The Worm's Tail/$26Grimshell Shocktroopers/A Feast Most Dire./A.M.A.N. Trove (Mars)./A.M.A.N. Trove (Venus)./Invitation form Naji./Invitation from Naji and Co././././]"
 17: 0x00A0 [0x25] WAIT_DIALOG_SELECT()
 18: 0x00A1 [0x02] IF !(Work_Zone[0] == 0*) GOTO 0x00AF
 19: 0x00A9 [0x01] GOTO 0x0867

SUBROUTINE_00DB:
 20: 0x00DB [0x3E] IF !(ExtData[1]->WorkLocal[16] bit ExtData[1]->WorkLocal[3]) GOTO 0x00E5
 21: 0x00E2 [0x01] GOTO 0x00EC
 22: 0x00E5 [0x3C] SET_BIT_FLAG_CONDITIONAL(target_work_offset=ExtData[1]->WorkLocal[8], bit_index_work_offset=1*, condition_work_offset=1*)

SUBROUTINE_00EC:
 23: 0x00EC [0x1A] CALL_SUBROUTINE(address=0x2576)
 24: 0x00EF [0x24] CREATE_DIALOG(message_id=7592*, default_option=5*, option_flags=ExtData[1]->WorkLocal[8])
    → "Select difficulty. [Very difficult. (Level: ???)/Difficult. (Level: ???)/Normal. (Level: $18)/Easy. (Level: $17)/Very Easy. (Level: $16)/Leave.]"
 25: 0x00F6 [0x25] WAIT_DIALOG_SELECT()
 26: 0x00F7 [0x02] IF !(Work_Zone[0] == 0*) GOTO 0x0107
 27: 0x00FF [0x03] ExtData[1]->WorkLocal[15] = 1*
 28: 0x0104 [0x01] GOTO 0x015A
 29: 0x0107 [0x02] IF !(Work_Zone[0] == 1*) GOTO 0x0117
 30: 0x010F [0x03] ExtData[1]->WorkLocal[15] = 2*
 31: 0x0114 [0x01] GOTO 0x015A
 32: 0x0117 [0x02] IF !(Work_Zone[0] == 2*) GOTO 0x0127
 33: 0x011F [0x03] ExtData[1]->WorkLocal[15] = 3*
 34: 0x0124 [0x01] GOTO 0x015A
 35: 0x0127 [0x02] IF !(Work_Zone[0] == 3*) GOTO 0x0137
 36: 0x012F [0x03] ExtData[1]->WorkLocal[15] = 4*
 37: 0x0134 [0x01] GOTO 0x015A
 38: 0x0137 [0x02] IF !(Work_Zone[0] == 4*) GOTO 0x0147
 39: 0x013F [0x03] ExtData[1]->WorkLocal[15] = 5*
 40: 0x0144 [0x01] GOTO 0x015A
 41: 0x0147 [0x02] IF !(Work_Zone[0] == 5*) GOTO 0x0155
 42: 0x014F [0x01] GOTO 0x0867

SUBROUTINE_015A:
 43: 0x015A [0x01] GOTO 0x0181
 44: 0x015D [0x06] ExtData[1]->WorkLocal[15] = 0
 45: 0x0160 [0x1A] CALL_SUBROUTINE(address=0x0881)
 46: 0x0163 [0x02] IF !(ExtData[1]->WorkLocal[22] == 1*) GOTO 0x0181
 47: 0x016B [0x24] CREATE_DIALOG(message_id=7227*, default_option=1*, option_flags=0*)
    → "Enter the battlefield? [Enter./Decline.]"
 48: 0x0172 [0x25] WAIT_DIALOG_SELECT()
 49: 0x0173 [0x02] IF !(Work_Zone[0] == 1*) GOTO 0x0181
 50: 0x017B [0x01] GOTO 0x0867

SUBROUTINE_0181:
 51: 0x0181 [0x42] SET_CLI_EVENT_CANCEL_DATA()
 52: 0x0182 [0x03] Work_Zone[1] = 255*
 53: 0x0187 [0x43] SEND_EVENT_UPDATE: Send pending tag to server (packet 0x005B)
 54: 0x0189 [0x43] SEND_EVENT_UPDATE: Check pending flag (skip if not pending)
 55: 0x018B [0x06] Work_Zone[1] = 0
 56: 0x018E [0x45] LOAD_SCHEDULED_TASK: Load scheduler "fdo1" with entities [LocalPlayer, LocalPlayer], work=[200*, 0*]
 57: 0x019F [0x55] WAIT_LOAD_SCHEDULER: Wait for scheduler "fdo1" with entities [LocalPlayer, LocalPlayer], work=200*
 58: 0x01AE [0x3B] GET_ENTITY_POSITION(entity=LocalPlayer, x_destination=Work_Zone[32], y_destination=Work_Zone[33], z_destination=Work_Zone[34])
 59: 0x01B9 [0x38] SET_CLIENT_EVENT_MODE(mode=19*)
 60: 0x01BC [0x02] IF !(ExtData[1]->WorkLocal[7] == 1*) GOTO 0x01DB
 61: 0x01C4 [0x03] ExtData[1]->WorkLocal[0] = 1*
 62: 0x01C9 [0x03] ExtData[1]->WorkLocal[4] = ExtData[1]->WorkLocal[3]
 63: 0x01CE [0x03] ExtData[1]->WorkLocal[2] = 0*
 64: 0x01D3 [0x03] ExtData[1]->WorkLocal[28] = 0*
 65: 0x01D8 [0x01] GOTO 0x059B

SUBROUTINE_01DB:
 66: 0x01DB [0x03] ExtData[1]->WorkLocal[0] = 1*

SUBROUTINE_01E0:
 67: 0x01E0 [0x02] IF !(ExtData[1]->WorkLocal[0] > 3*) GOTO 0x0830
 68: 0x01E8 [0x02] IF !(0* == 1*) GOTO 0x01F5
 69: 0x01F0 [0x03] ExtData[1]->WorkLocal[0] = ExtData[1]->WorkLocal[5]
 70: 0x01F5 [0x40] SET_BIT_WORK_RANGE(start_bit=0*, end_bit=3*, target=Work_Zone[1], source=ExtData[1]->WorkLocal[0])
 71: 0x01FE [0x40] SET_BIT_WORK_RANGE(start_bit=4*, end_bit=8*, target=Work_Zone[1], source=ExtData[1]->WorkLocal[3])
 72: 0x0207 [0x40] SET_BIT_WORK_RANGE(start_bit=9*, end_bit=11*, target=Work_Zone[1], source=ExtData[1]->WorkLocal[15])
 73: 0x0210 [0x06] Work_Zone[2] = 0
 74: 0x0213 [0x06] Work_Zone[3] = 0
 75: 0x0216 [0x06] Work_Zone[4] = 0
 76: 0x0219 [0x1A] CALL_SUBROUTINE(address=0x2850)
 77: 0x021C [0x47] UPDATE_PLAYER_POS(ExtData[1]->WorkLocal[9], ExtData[1]->WorkLocal[10], ExtData[1]->WorkLocal[11], yaw=ExtData[1]->WorkLocal[12])
 78: 0x0226 [0x47] WAIT_PLAYER_POS_UPDATE
 79: 0x0228 [0x03] ExtData[1]->WorkLocal[4] = Work_Zone[3]
 80: 0x022D [0x03] ExtData[1]->WorkLocal[2] = Work_Zone[4]
 81: 0x0232 [0x03] ExtData[1]->WorkLocal[26] = Work_Zone[5]
 82: 0x0237 [0x03] ExtData[1]->WorkLocal[13] = Work_Zone[6]
 83: 0x023C [0x03] ExtData[1]->WorkLocal[14] = Work_Zone[7]
 84: 0x0241 [0x03] ExtData[1]->WorkLocal[28] = Work_Zone[9]
 85: 0x0246 [0x02] IF !(Work_Zone[2] == 1*) GOTO 0x0251
 86: 0x024E [0x01] GOTO 0x081D
 87: 0x0251 [0x02] IF !(Work_Zone[2] == 4*) GOTO 0x029B
 88: 0x0259 [0x02] IF !(ExtData[1]->WorkLocal[0] == 1*) GOTO 0x0268
 89: 0x0261 [0x48] [System] [7238*]:
    → "You are cleared to enter the battlefield, but you cannot while party members are engaged in combat."
 90: 0x0264 [0x23] WAIT_FOR_DIALOG_INTERACTION
 91: 0x0265 [0x01] GOTO 0x0295
 92: 0x0268 [0x02] IF !(ExtData[1]->WorkLocal[0] == 2*) GOTO 0x0277
 93: 0x0270 [0x48] [System] [7239*]:
    → "You are cleared to enter the battlefield, but you cannot while party members are engaged in combat."
 94: 0x0273 [0x23] WAIT_FOR_DIALOG_INTERACTION
 95: 0x0274 [0x01] GOTO 0x0295
 96: 0x0277 [0x02] IF !(ExtData[1]->WorkLocal[0] == 3*) GOTO 0x0286
 97: 0x027F [0x48] [System] [7240*]:
    → "You are cleared to enter the battlefield, but you cannot while party members are engaged in combat."
 98: 0x0282 [0x23] WAIT_FOR_DIALOG_INTERACTION
 99: 0x0283 [0x01] GOTO 0x0295
100: 0x0286 [0x02] IF !(ExtData[1]->WorkLocal[0] == 4*) GOTO 0x0295
101: 0x028E [0x48] [System] [7241*]:
    → "You are cleared to enter the battlefield, but you cannot while party members are engaged in combat."
102: 0x0291 [0x23] WAIT_FOR_DIALOG_INTERACTION
103: 0x0292 [0x01] GOTO 0x0295

SUBROUTINE_0295:
104: 0x0295 [0x01] GOTO 0x0834

SUBROUTINE_04A5:
105: 0x04A5 [0x48] [System] [7586*]:
    → "Only $3 [member/members] have clearance to enter the battlefield. This room has reached its maximum capacity."
106: 0x04A8 [0x23] WAIT_FOR_DIALOG_INTERACTION
107: 0x04A9 [0x01] GOTO 0x0834

SUBROUTINE_0502:
108: 0x0502 [0x01] GOTO 0x0551
109: 0x0505 [0x03] Work_Zone[5] = ExtData[1]->WorkLocal[26]
110: 0x050A [0x02] IF !(ExtData[1]->WorkLocal[26] <= 0*) GOTO 0x0531
111: 0x0512 [0x02] IF !(ExtData[1]->WorkLocal[26] < 60*) GOTO 0x052D
112: 0x051A [0x3F] Work_Zone[4] = Work_Zone[5] % 60*
113: 0x0521 [0x15] Work_Zone[5] /= 60*
114: 0x0526 [0x48] [System] [7604*]:
    → "The current battlefield clear time record for "[The Rank 2 Final Mission/The Worm's Turn/Grimshell Shocktroopers/On My Way/A Thief in Norg!?/3, 2, 1.../Shattering Stars (RDM)/Shattering Stars (THF)/Shattering Stars (BST)/Birds of a Feather/Crustacean Conundrum/Grove Guardians/The Hills are Alive/Royal Jelly/The Final Bout/Up in Arms/Copycat/Operation Desert Swarm/Prehistoric Pigeons/The Palborough Project/Shell Shocked/Beyond Infinity/$26The Worm's Tail/$26Grimshell Shocktroopers/A Feast Most Dire/A.M.A.N. Trove (Mars)/A.M.A.N. Trove (Venus)/Invitation from Naji/Invitation from Naji and Co.]" is $3 minute[/s] $2 second[/s]."
115: 0x0529 [0x23] WAIT_FOR_DIALOG_INTERACTION
116: 0x052A [0x01] GOTO 0x0531
117: 0x052D [0x48] [System] [7603*]:
    → "The current battlefield clear time record for "[The Rank 2 Final Mission/The Worm's Turn/Grimshell Shocktroopers/On My Way/A Thief in Norg!?/3, 2, 1.../Shattering Stars (RDM)/Shattering Stars (THF)/Shattering Stars (BST)/Birds of a Feather/Crustacean Conundrum/Grove Guardians/The Hills are Alive/Royal Jelly/The Final Bout/Up in Arms/Copycat/Operation Desert Swarm/Prehistoric Pigeons/The Palborough Project/Shell Shocked/Beyond Infinity/$26The Worm's Tail/$26Grimshell Shocktroopers/A Feast Most Dire/A.M.A.N. Trove (Mars)/A.M.A.N. Trove (Venus)/Invitation from Naji/Invitation from Naji and Co.]" is $3 second[/s]."
118: 0x0530 [0x23] WAIT_FOR_DIALOG_INTERACTION

SUBROUTINE_0531:
119: 0x0531 [0x02] IF !(ExtData[1]->WorkLocal[13] > 1*) GOTO 0x0540
120: 0x0539 [0x48] [System] [7591*]:
    → "That record is held by %0!"
121: 0x053C [0x23] WAIT_FOR_DIALOG_INTERACTION
122: 0x053D [0x01] GOTO 0x0551
123: 0x0540 [0x03] Work_Zone[6] = ExtData[1]->WorkLocal[13]
124: 0x0545 [0x0C] Work_Zone[6]--
125: 0x0548 [0x03] Work_Zone[7] = ExtData[1]->WorkLocal[13]
126: 0x054D [0x48] [System] [7590*]:
    → "That record is held by $5 adventurers, including %0!"
127: 0x0550 [0x23] WAIT_FOR_DIALOG_INTERACTION

SUBROUTINE_0551:
128: 0x0551 [0x03] ExtData[1]->WorkLocal[3] = ExtData[1]->WorkLocal[4]
129: 0x0556 [0x03] ExtData[1]->WorkLocal[20] = 100*
130: 0x055B [0x07] ExtData[1]->WorkLocal[20] += ExtData[1]->WorkLocal[3]
131: 0x0560 [0x02] IF !(ExtData[1]->WorkLocal[2] == ExtData[1]->WorkLocal[20]) GOTO 0x0570
132: 0x0568 [0x03] ExtData[1]->WorkLocal[2] = 1*
133: 0x056D [0x01] GOTO 0x0575
134: 0x0570 [0x03] ExtData[1]->WorkLocal[2] = 0*

SUBROUTINE_0575:
135: 0x0575 [0x02] IF !(ExtData[1]->WorkLocal[2] == 0*) GOTO 0x059B
136: 0x057D [0x02] IF !(ExtData[1]->WorkLocal[14] == 1*) GOTO 0x059B
137: 0x0585 [0x24] CREATE_DIALOG(message_id=7566*, default_option=1*, option_flags=0*)
    → "Skip the event? [Yes./No.]"
138: 0x058C [0x25] WAIT_DIALOG_SELECT()
139: 0x058D [0x02] IF !(Work_Zone[0] == 0*) GOTO 0x059B
140: 0x0595 [0x05] ExtData[1]->WorkLocal[2] = 1
141: 0x0598 [0x01] GOTO 0x059B

SUBROUTINE_059B:
142: 0x059B [0x06] ExtData[1]->WorkLocal[21] = 0
143: 0x059E [0x02] IF !(ExtData[1]->WorkLocal[4] == 0*) GOTO 0x05AE
144: 0x05A6 [0x03] ExtData[1]->WorkLocal[21] = 0*
145: 0x05AB [0x01] GOTO 0x0793
146: 0x05AE [0x02] IF !(ExtData[1]->WorkLocal[4] == 1*) GOTO 0x05BE
147: 0x05B6 [0x03] ExtData[1]->WorkLocal[21] = 0*
148: 0x05BB [0x01] GOTO 0x0793
149: 0x05BE [0x02] IF !(ExtData[1]->WorkLocal[4] == 2*) GOTO 0x05CE
150: 0x05C6 [0x03] ExtData[1]->WorkLocal[21] = 0*
151: 0x05CB [0x01] GOTO 0x0793
152: 0x05CE [0x02] IF !(ExtData[1]->WorkLocal[4] == 3*) GOTO 0x05DE
153: 0x05D6 [0x03] ExtData[1]->WorkLocal[21] = 0*
154: 0x05DB [0x01] GOTO 0x0793
155: 0x05DE [0x02] IF !(ExtData[1]->WorkLocal[4] == 4*) GOTO 0x05EE
156: 0x05E6 [0x03] ExtData[1]->WorkLocal[21] = 0*
157: 0x05EB [0x01] GOTO 0x0793
158: 0x05EE [0x02] IF !(ExtData[1]->WorkLocal[4] == 5*) GOTO 0x05FE
159: 0x05F6 [0x03] ExtData[1]->WorkLocal[21] = 0*
160: 0x05FB [0x01] GOTO 0x0793
161: 0x05FE [0x02] IF !(ExtData[1]->WorkLocal[4] == 6*) GOTO 0x060E
162: 0x0606 [0x03] ExtData[1]->WorkLocal[21] = 0*
163: 0x060B [0x01] GOTO 0x0793
164: 0x060E [0x02] IF !(ExtData[1]->WorkLocal[4] == 7*) GOTO 0x061E
165: 0x0616 [0x03] ExtData[1]->WorkLocal[21] = 0*
166: 0x061B [0x01] GOTO 0x0793
167: 0x061E [0x02] IF !(ExtData[1]->WorkLocal[4] == 8*) GOTO 0x062E
168: 0x0626 [0x03] ExtData[1]->WorkLocal[21] = 0*
169: 0x062B [0x01] GOTO 0x0793
170: 0x062E [0x02] IF !(ExtData[1]->WorkLocal[4] == 9*) GOTO 0x063E
171: 0x0636 [0x03] ExtData[1]->WorkLocal[21] = 0*
172: 0x063B [0x01] GOTO 0x0793
173: 0x063E [0x02] IF !(ExtData[1]->WorkLocal[4] == 10*) GOTO 0x064E
174: 0x0646 [0x03] ExtData[1]->WorkLocal[21] = 0*
175: 0x064B [0x01] GOTO 0x0793
176: 0x064E [0x02] IF !(ExtData[1]->WorkLocal[4] == 11*) GOTO 0x065E
177: 0x0656 [0x03] ExtData[1]->WorkLocal[21] = 0*
178: 0x065B [0x01] GOTO 0x0793
179: 0x065E [0x02] IF !(ExtData[1]->WorkLocal[4] == 12*) GOTO 0x066E
180: 0x0666 [0x03] ExtData[1]->WorkLocal[21] = 0*
181: 0x066B [0x01] GOTO 0x0793
182: 0x066E [0x02] IF !(ExtData[1]->WorkLocal[4] == 13*) GOTO 0x067E
183: 0x0676 [0x03] ExtData[1]->WorkLocal[21] = 0*
184: 0x067B [0x01] GOTO 0x0793
185: 0x067E [0x02] IF !(ExtData[1]->WorkLocal[4] == 14*) GOTO 0x068E
186: 0x0686 [0x03] ExtData[1]->WorkLocal[21] = 0*
187: 0x068B [0x01] GOTO 0x0793
188: 0x068E [0x02] IF !(ExtData[1]->WorkLocal[4] == 15*) GOTO 0x069E
189: 0x0696 [0x03] ExtData[1]->WorkLocal[21] = 0*
190: 0x069B [0x01] GOTO 0x0793
191: 0x069E [0x02] IF !(ExtData[1]->WorkLocal[4] == 16*) GOTO 0x06AE
192: 0x06A6 [0x03] ExtData[1]->WorkLocal[21] = 0*
193: 0x06AB [0x01] GOTO 0x0793
194: 0x06AE [0x02] IF !(ExtData[1]->WorkLocal[4] == 17*) GOTO 0x06BE
195: 0x06B6 [0x03] ExtData[1]->WorkLocal[21] = 0*
196: 0x06BB [0x01] GOTO 0x0793
197: 0x06BE [0x02] IF !(ExtData[1]->WorkLocal[4] == 18*) GOTO 0x06CE
198: 0x06C6 [0x03] ExtData[1]->WorkLocal[21] = 0*
199: 0x06CB [0x01] GOTO 0x0793
200: 0x06CE [0x02] IF !(ExtData[1]->WorkLocal[4] == 19*) GOTO 0x06DE
201: 0x06D6 [0x03] ExtData[1]->WorkLocal[21] = 0*
202: 0x06DB [0x01] GOTO 0x0793
203: 0x06DE [0x02] IF !(ExtData[1]->WorkLocal[4] == 20*) GOTO 0x06EE
204: 0x06E6 [0x03] ExtData[1]->WorkLocal[21] = 0*
205: 0x06EB [0x01] GOTO 0x0793
206: 0x06EE [0x02] IF !(ExtData[1]->WorkLocal[4] == 21*) GOTO 0x06FE
207: 0x06F6 [0x03] ExtData[1]->WorkLocal[21] = 0*
208: 0x06FB [0x01] GOTO 0x0793
209: 0x06FE [0x02] IF !(ExtData[1]->WorkLocal[4] == 22*) GOTO 0x070E
210: 0x0706 [0x03] ExtData[1]->WorkLocal[21] = 0*
211: 0x070B [0x01] GOTO 0x0793
212: 0x070E [0x02] IF !(ExtData[1]->WorkLocal[4] == 23*) GOTO 0x071E
213: 0x0716 [0x03] ExtData[1]->WorkLocal[21] = 0*
214: 0x071B [0x01] GOTO 0x0793
215: 0x071E [0x02] IF !(ExtData[1]->WorkLocal[4] == 24*) GOTO 0x072E
216: 0x0726 [0x03] ExtData[1]->WorkLocal[21] = 0*
217: 0x072B [0x01] GOTO 0x0793
218: 0x072E [0x02] IF !(ExtData[1]->WorkLocal[4] == 25*) GOTO 0x073E
219: 0x0736 [0x03] ExtData[1]->WorkLocal[21] = 0*
220: 0x073B [0x01] GOTO 0x0793
221: 0x073E [0x02] IF !(ExtData[1]->WorkLocal[4] == 26*) GOTO 0x074E
222: 0x0746 [0x03] ExtData[1]->WorkLocal[21] = 0*
223: 0x074B [0x01] GOTO 0x0793
224: 0x074E [0x02] IF !(ExtData[1]->WorkLocal[4] == 27*) GOTO 0x075E
225: 0x0756 [0x03] ExtData[1]->WorkLocal[21] = 0*
226: 0x075B [0x01] GOTO 0x0793
227: 0x075E [0x02] IF !(ExtData[1]->WorkLocal[4] == 28*) GOTO 0x076E
228: 0x0766 [0x03] ExtData[1]->WorkLocal[21] = 0*
229: 0x076B [0x01] GOTO 0x0793
230: 0x076E [0x02] IF !(ExtData[1]->WorkLocal[4] == 29*) GOTO 0x077E
231: 0x0776 [0x03] ExtData[1]->WorkLocal[21] = 0*
232: 0x077B [0x01] GOTO 0x0793
233: 0x077E [0x02] IF !(ExtData[1]->WorkLocal[4] == 30*) GOTO 0x078E
234: 0x0786 [0x03] ExtData[1]->WorkLocal[21] = 0*
235: 0x078B [0x01] GOTO 0x0793
236: 0x078E [0x03] ExtData[1]->WorkLocal[21] = 0*

SUBROUTINE_0793:
237: 0x0793 [0x02] IF !(ExtData[1]->WorkLocal[2] == 1*) GOTO 0x07AE
238: 0x079B [0x5C] MUSIC_CONTROL: Set Idle (Day) music to song 125*
239: 0x079F [0x5C] MUSIC_CONTROL: Set Idle (Night) music to song 125*
240: 0x07A3 [0x5C] MUSIC_CONTROL: Set Combat (Solo) music to song 125*
241: 0x07A7 [0x5C] MUSIC_CONTROL: Set Combat (Party) music to song 125*
242: 0x07AB [0x01] GOTO 0x07C6
243: 0x07AE [0x02] IF !(ExtData[1]->WorkLocal[21] == 0*) GOTO 0x07C6
244: 0x07B6 [0x5C] MUSIC_CONTROL: Set Idle (Day) music to song 125*
245: 0x07BA [0x5C] MUSIC_CONTROL: Set Idle (Night) music to song 125*
246: 0x07BE [0x5C] MUSIC_CONTROL: Set Combat (Solo) music to song 125*
247: 0x07C2 [0x5C] MUSIC_CONTROL: Set Combat (Party) music to song 125*

SUBROUTINE_07C6:
248: 0x07C6 [0x02] IF !(ExtData[1]->WorkLocal[2] == 0*) GOTO 0x07D4
249: 0x07CE [0x1A] CALL_SUBROUTINE(address=0x1138)
250: 0x07D1 [0x01] GOTO 0x080D
251: 0x07D4 [0x6C] FADE_ENTITY_COLOR(entity_id=LocalPlayer, end_alpha=0*, fade_time=1*)
252: 0x07DD [0x62] LOAD_EVENT_SCHEDULER: Load scheduler "main" with entities [LocalPlayer, LocalPlayer], work=[2*, 0*]
253: 0x07EE [0x45] LOAD_SCHEDULED_TASK: Load scheduler "ovl1" with entities [LocalPlayer, LocalPlayer], work=[200*, 0*]
254: 0x07FF [0x46] CAMERA_CONTROL: Query status
255: 0x0801 [0x12] 0x0200 = rand()
256: 0x0804 [0x12] 0x0F00 = rand()
257: 0x0807 [0x80] LOAD_WAIT(entity=Unknown NPC (ID: 1174932736/0x46080D00))
258: 0x080C [0x00] END_REQSTACK()

SUBROUTINE_080D:
259: 0x080D [0x03] Work_Zone[1] = 100*
260: 0x0812 [0x07] Work_Zone[1] += ExtData[1]->WorkLocal[3]
261: 0x0817 [0x01] GOTO 0x0834

SUBROUTINE_081D:
262: 0x081D [0x0B] ExtData[1]->WorkLocal[0]++
263: 0x0820 [0x02] IF !(0* == 1*) GOTO 0x082D
264: 0x0828 [0x03] ExtData[1]->WorkLocal[0] = 4*
265: 0x082D [0x01] GOTO 0x01E0
266: 0x0830 [0x48] [System] [7230*]:
    → "You cannot enter the battlefield at present. Please wait a little longer."
267: 0x0833 [0x23] WAIT_FOR_DIALOG_INTERACTION

SUBROUTINE_0834:
268: 0x0834 [0x45] LOAD_SCHEDULED_TASK: Load scheduler "whi1" with entities [LocalPlayer, LocalPlayer], work=[201*, 0*]
269: 0x0845 [0x45] LOAD_SCHEDULED_TASK: Load scheduler "blof" with entities [LocalPlayer, LocalPlayer], work=[200*, 0*]
270: 0x0856 [0x45] LOAD_SCHEDULED_TASK: Load scheduler "fdi0" with entities [LocalPlayer, LocalPlayer], work=[200*, 0*]

SUBROUTINE_0867:
271: 0x0867 [0x02] IF !(ExtData[1]->WorkLocal[7] == 1*) GOTO 0x087F
272: 0x086F [0x5C] MUSIC_CONTROL: Set Idle (Day) music to song 0*
273: 0x0873 [0x5C] MUSIC_CONTROL: Set Idle (Night) music to song 0*
274: 0x0877 [0x5C] MUSIC_CONTROL: Set Combat (Solo) music to song 125*
275: 0x087B [0x5C] MUSIC_CONTROL: Set Combat (Party) music to song 125*
276: 0x087F [0x21] END_EVENT
277: 0x0880 [0x00] END_REQSTACK()

SUBROUTINE_0881:
278: 0x0881 [0x1B] RETURN
```

#### Data or dead code:

```
# Dead code (unreachable instructions):
     0x00AC [0x01] GOTO 0x0181
# Dead code (unreachable instructions):
     0x0152 [0x01] GOTO 0x015A
# Dead code (unreachable instructions):
     0x017E [0x01] GOTO 0x0181
# Dead code (unreachable instructions):
     0x0298 [0x01] GOTO 0x081D
     0x02AA [0x01] GOTO 0x081D
# Dead code (unreachable instructions):
     0x04AC [0x01] GOTO 0x081D
     0x04BA [0x01] GOTO 0x081D
# Dead code (unreachable instructions):
     0x081A [0x01] GOTO 0x081D
```

### Event 32002

#### Metadata

| Field        | Value     |
|--------------|-----------|
| Entrypoint   | 0x0882    |
| Data Size    | 494 bytes |
| Instructions | 83        |

```
      00 01 02 03 04 05 06 07  08 09 0A 0B 0C 0D 0E 0F
      -- -- -- -- -- -- -- --  -- -- -- -- -- -- -- --
0880:       03 05 00 06 10 03  21 00 07 10 03 20 00 08    ......!.... ..
0890: 10 20 01 42 3B F0 FF FF  7F 20 10 21 10 22 10 3A  . .B;.... .!.".:
08A0: F0 FF FF 7F 23 10 45 1D  80 F0 FF FF 7F F0 FF FF  ....#.E.........
08B0: 7F 66 64 6F 31 0F 80 55  1D 80 F0 FF FF 7F F0 FF  .fdo1..U........
08C0: FF 7F 66 64 6F 31 02 0F  80 14 80 00 2D 09 02 05  ..fdo1......-...
08D0: 00 14 80 80 E5 08 47 00  44 80 45 80 46 80 47 80  ......G.D.E.F.G.
08E0: 47 01 01 2A 09 02 05 00  18 80 80 FC 08 47 00 44  G..*.........G.D
08F0: 80 45 80 46 80 47 80 47  01 01 2A 09 02 05 00 19  .E.F.G.G..*.....
0900: 80 80 13 09 47 00 44 80  45 80 46 80 47 80 47 01  ....G.D.E.F.G.G.
0910: 01 2A 09 02 05 00 1A 80  80 2A 09 47 00 44 80 45  .*.......*.G.D.E
0920: 80 46 80 47 80 47 01 01  2A 09 01 36 0A 02 20 00  .F.G.G..*..6.. .
0930: 48 80 80 B7 09 02 21 00  0F 80 80 4C 09 47 00 49  H.....!....L.G.I
0940: 80 4A 80 4B 80 4C 80 47  01 01 B4 09 02 21 00 14  .J.K.L.G.....!..
0950: 80 80 63 09 47 00 4D 80  4E 80 4F 80 50 80 47 01  ..c.G.M.N.O.P.G.
0960: 01 B4 09 02 21 00 18 80  80 7A 09 47 00 51 80 52  ....!....z.G.Q.R
0970: 80 53 80 54 80 47 01 01  B4 09 02 21 00 19 80 80  .S.T.G.....!....
0980: 91 09 47 00 55 80 56 80  57 80 58 80 47 01 01 B4  ..G.U.V.W.X.G...
0990: 09 02 21 00 1A 80 80 A8  09 47 00 59 80 5A 80 5B  ..!......G.Y.Z.[
09A0: 80 5C 80 47 01 01 B4 09  47 00 5D 80 5E 80 5F 80  .\.G....G.].^._.
09B0: 60 80 47 01 01 36 0A 02  20 00 27 80 80 2A 0A 02  `.G..6.. .'..*..
09C0: 21 00 14 80 80 D6 09 47  00 61 80 62 80 63 80 64  !......G.a.b.c.d
09D0: 80 47 01 01 27 0A 02 21  00 18 80 80 ED 09 47 00  .G..'..!......G.
09E0: 65 80 66 80 67 80 68 80  47 01 01 27 0A 02 21 00  e.f.g.h.G..'..!.
09F0: 19 80 80 04 0A 47 00 69  80 6A 80 6B 80 6C 80 47  .....G.i.j.k.l.G
0A00: 01 01 27 0A 02 21 00 1A  80 80 1B 0A 47 00 6D 80  ..'..!......G.m.
0A10: 6E 80 6F 80 70 80 47 01  01 27 0A 47 00 5D 80 5E  n.o.p.G..'.G.].^
0A20: 80 5F 80 60 80 47 01 01  36 0A 47 00 5D 80 5E 80  ._.`.G..6.G.].^.
0A30: 5F 80 60 80 47 01 38 1E  80 1A 37 25 45 43 80 F0  _.`.G.8...7%EC..
0A40: FF FF 7F F0 FF FF 7F 77  68 69 31 0F 80 45 1D 80  .......whi1..E..
0A50: F0 FF FF 7F F0 FF FF 7F  62 6C 6F 66 0F 80 5C 00  ........blof..\.
0A60: 0F 80 5C 01 0F 80 5C 02  41 80 5C 03 41 80 21 00  ..\...\.A.\.A.!.
```

#### Opcodes

```
  0: 0x0882 [0x03] ExtData[1]->WorkLocal[5] = Work_Zone[6]
  1: 0x0887 [0x03] ExtData[1]->WorkLocal[33] = Work_Zone[7]
  2: 0x088C [0x03] ExtData[1]->WorkLocal[32] = Work_Zone[8]
  3: 0x0891 [0x20] SET_CLI_EVENT_UC_FLAG: Lock player control
  4: 0x0893 [0x42] SET_CLI_EVENT_CANCEL_DATA()
  5: 0x0894 [0x3B] GET_ENTITY_POSITION(entity=LocalPlayer, x_destination=Work_Zone[32], y_destination=Work_Zone[33], z_destination=Work_Zone[34])
  6: 0x089F [0x3A] CONVERT_YAW_TO_BYTE(entity=LocalPlayer, result_destination=Work_Zone[35])
  7: 0x08A6 [0x45] LOAD_SCHEDULED_TASK: Load scheduler "fdo1" with entities [LocalPlayer, LocalPlayer], work=[200*, 0*]
  8: 0x08B7 [0x55] WAIT_LOAD_SCHEDULER: Wait for scheduler "fdo1" with entities [LocalPlayer, LocalPlayer], work=200*
  9: 0x08C6 [0x02] IF !(0* == 1*) GOTO 0x092D
 10: 0x08CE [0x02] IF !(ExtData[1]->WorkLocal[5] == 1*) GOTO 0x08E5
 11: 0x08D6 [0x47] UPDATE_PLAYER_POS(179.712*, 333.374*, 11.964*, yaw=85.2°*)
 12: 0x08E0 [0x47] WAIT_PLAYER_POS_UPDATE
 13: 0x08E2 [0x01] GOTO 0x092A
 14: 0x08E5 [0x02] IF !(ExtData[1]->WorkLocal[5] == 2*) GOTO 0x08FC
 15: 0x08ED [0x47] UPDATE_PLAYER_POS(179.712*, 333.374*, 11.964*, yaw=85.2°*)
 16: 0x08F7 [0x47] WAIT_PLAYER_POS_UPDATE
 17: 0x08F9 [0x01] GOTO 0x092A
 18: 0x08FC [0x02] IF !(ExtData[1]->WorkLocal[5] == 3*) GOTO 0x0913
 19: 0x0904 [0x47] UPDATE_PLAYER_POS(179.712*, 333.374*, 11.964*, yaw=85.2°*)
 20: 0x090E [0x47] WAIT_PLAYER_POS_UPDATE
 21: 0x0910 [0x01] GOTO 0x092A
 22: 0x0913 [0x02] IF !(ExtData[1]->WorkLocal[5] == 4*) GOTO 0x092A
 23: 0x091B [0x47] UPDATE_PLAYER_POS(179.712*, 333.374*, 11.964*, yaw=85.2°*)
 24: 0x0925 [0x47] WAIT_PLAYER_POS_UPDATE
 25: 0x0927 [0x01] GOTO 0x092A

SUBROUTINE_092A:
 26: 0x092A [0x01] GOTO 0x0A36
 27: 0x092D [0x02] IF !(ExtData[1]->WorkLocal[32] == 180*) GOTO 0x09B7
 28: 0x0935 [0x02] IF !(ExtData[1]->WorkLocal[33] == 0*) GOTO 0x094C
 29: 0x093D [0x47] UPDATE_PLAYER_POS(-605.141*, 479.929*, -22.681*, yaw=87.2°*)
 30: 0x0947 [0x47] WAIT_PLAYER_POS_UPDATE
 31: 0x0949 [0x01] GOTO 0x09B4
 32: 0x094C [0x02] IF !(ExtData[1]->WorkLocal[33] == 1*) GOTO 0x0963
 33: 0x0954 [0x47] UPDATE_PLAYER_POS(-262.589*, 377.857*, -137.313*, yaw=305.3°*)
 34: 0x095E [0x47] WAIT_PLAYER_POS_UPDATE
 35: 0x0960 [0x01] GOTO 0x09B4
 36: 0x0963 [0x02] IF !(ExtData[1]->WorkLocal[33] == 2*) GOTO 0x097A
 37: 0x096B [0x47] UPDATE_PLAYER_POS(18.348*, 486.940*, -224.334*, yaw=17.1°*)
 38: 0x0975 [0x47] WAIT_PLAYER_POS_UPDATE
 39: 0x0977 [0x01] GOTO 0x09B4
 40: 0x097A [0x02] IF !(ExtData[1]->WorkLocal[33] == 3*) GOTO 0x0991
 41: 0x0982 [0x47] UPDATE_PLAYER_POS(231.593*, 360.094*, -173.572*, yaw=160.8°*)
 42: 0x098C [0x47] WAIT_PLAYER_POS_UPDATE
 43: 0x098E [0x01] GOTO 0x09B4
 44: 0x0991 [0x02] IF !(ExtData[1]->WorkLocal[33] == 4*) GOTO 0x09A8
 45: 0x0999 [0x47] UPDATE_PLAYER_POS(553.664*, 523.939*, -38.205*, yaw=233.9°*)
 46: 0x09A3 [0x47] WAIT_PLAYER_POS_UPDATE
 47: 0x09A5 [0x01] GOTO 0x09B4
 48: 0x09A8 [0x47] UPDATE_PLAYER_POS(-353.848*, -260.306*, 104.140*, yaw=183.2°*)
 49: 0x09B2 [0x47] WAIT_PLAYER_POS_UPDATE

SUBROUTINE_09B4:
 50: 0x09B4 [0x01] GOTO 0x0A36
 51: 0x09B7 [0x02] IF !(ExtData[1]->WorkLocal[32] == 6*) GOTO 0x0A2A
 52: 0x09BF [0x02] IF !(ExtData[1]->WorkLocal[33] == 1*) GOTO 0x09D6
 53: 0x09C7 [0x47] UPDATE_PLAYER_POS(-875.117*, -43.892*, -48.084*, yaw=45.1°*)
 54: 0x09D1 [0x47] WAIT_PLAYER_POS_UPDATE
 55: 0x09D3 [0x01] GOTO 0x0A27
 56: 0x09D6 [0x02] IF !(ExtData[1]->WorkLocal[33] == 2*) GOTO 0x09ED
 57: 0x09DE [0x47] UPDATE_PLAYER_POS(-755.499*, 563.947*, -112.035*, yaw=313.5°*)
 58: 0x09E8 [0x47] WAIT_PLAYER_POS_UPDATE
 59: 0x09EA [0x01] GOTO 0x0A27
 60: 0x09ED [0x02] IF !(ExtData[1]->WorkLocal[33] == 3*) GOTO 0x0A04
 61: 0x09F5 [0x47] UPDATE_PLAYER_POS(123.251*, 754.209*, -172.124*, yaw=38.7°*)
 62: 0x09FF [0x47] WAIT_PLAYER_POS_UPDATE
 63: 0x0A01 [0x01] GOTO 0x0A27
 64: 0x0A04 [0x02] IF !(ExtData[1]->WorkLocal[33] == 4*) GOTO 0x0A1B
 65: 0x0A0C [0x47] UPDATE_PLAYER_POS(-516.404*, -803.323*, 24.206*, yaw=38.4°*)
 66: 0x0A16 [0x47] WAIT_PLAYER_POS_UPDATE
 67: 0x0A18 [0x01] GOTO 0x0A27
 68: 0x0A1B [0x47] UPDATE_PLAYER_POS(-353.848*, -260.306*, 104.140*, yaw=183.2°*)
 69: 0x0A25 [0x47] WAIT_PLAYER_POS_UPDATE

SUBROUTINE_0A27:
 70: 0x0A27 [0x01] GOTO 0x0A36
 71: 0x0A2A [0x47] UPDATE_PLAYER_POS(-353.848*, -260.306*, 104.140*, yaw=183.2°*)
 72: 0x0A34 [0x47] WAIT_PLAYER_POS_UPDATE

SUBROUTINE_0A36:
 73: 0x0A36 [0x38] SET_CLIENT_EVENT_MODE(mode=19*)
 74: 0x0A39 [0x1A] CALL_SUBROUTINE(address=0x2537)
 75: 0x0A3C [0x45] LOAD_SCHEDULED_TASK: Load scheduler "whi1" with entities [LocalPlayer, LocalPlayer], work=[201*, 0*]
 76: 0x0A4D [0x45] LOAD_SCHEDULED_TASK: Load scheduler "blof" with entities [LocalPlayer, LocalPlayer], work=[200*, 0*]
 77: 0x0A5E [0x5C] MUSIC_CONTROL: Set Idle (Day) music to song 0*
 78: 0x0A62 [0x5C] MUSIC_CONTROL: Set Idle (Night) music to song 0*
 79: 0x0A66 [0x5C] MUSIC_CONTROL: Set Combat (Solo) music to song 125*
 80: 0x0A6A [0x5C] MUSIC_CONTROL: Set Combat (Party) music to song 125*
 81: 0x0A6E [0x21] END_EVENT
 82: 0x0A6F [0x00] END_REQSTACK()
```

### Event 32001

#### Metadata

| Field        | Value      |
|--------------|------------|
| Entrypoint   | 0x0A70     |
| Data Size    | 1033 bytes |
| Instructions | 177        |

```
      00 01 02 03 04 05 06 07  08 09 0A 0B 0C 0D 0E 0F
      -- -- -- -- -- -- -- --  -- -- -- -- -- -- -- --
0A70: 79 00 F0 FF FF 7F F0 FF  FF 7F 03 21 00 02 10 03  y..........!....
0A80: 1A 00 03 10 03 1B 00 05  10 03 20 00 06 10 03 19  .......... .....
0A90: 00 07 10 03 17 00 08 10  02 17 00 19 80 04 A5 0A  ................
0AA0: 03 17 00 0F 80 03 1C 00  09 10 20 01 42 3B F0 FF  .......... .B;..
0AB0: FF 7F 20 10 21 10 22 10  3A F0 FF FF 7F 23 10 02  .. .!.".:....#..
0AC0: 20 00 48 80 01 CA 0A 1C  71 80 45 43 80 F0 FF FF   .H.....q.EC....
0AD0: 7F F0 FF FF 7F 77 68 69  31 0F 80 45 1D 80 F0 FF  .....whi1..E....
0AE0: FF 7F F0 FF FF 7F 62 6C  6F 66 0F 80 45 1D 80 F0  ......blof..E...
0AF0: FF FF 7F F0 FF FF 7F 66  64 6F 31 0F 80 55 1D 80  .......fdo1..U..
0B00: F0 FF FF 7F F0 FF FF 7F  66 64 6F 31 6C F0 FF FF  ........fdo1l...
0B10: 7F 72 80 14 80 06 01 10  02 17 00 0F 80 03 23 0B  .r............#.
0B20: 01 71 0C 02 20 00 48 80  80 AD 0B 02 21 00 0F 80  .q.. .H.....!...
0B30: 80 42 0B 47 00 73 80 74  80 75 80 76 80 47 01 01  .B.G.s.t.u.v.G..
0B40: AA 0B 02 21 00 14 80 80  59 0B 47 00 77 80 78 80  ...!....Y.G.w.x.
0B50: 79 80 7A 80 47 01 01 AA  0B 02 21 00 18 80 80 70  y.z.G.....!....p
0B60: 0B 47 00 7B 80 7C 80 7D  80 7E 80 47 01 01 AA 0B  .G.{.|.}.~.G....
0B70: 02 21 00 19 80 80 87 0B  47 00 7F 80 80 80 81 80  .!......G.......
0B80: 82 80 47 01 01 AA 0B 02  21 00 1A 80 80 9E 0B 47  ..G.....!......G
0B90: 00 83 80 84 80 85 80 86  80 47 01 01 AA 0B 47 00  .........G....G.
0BA0: 87 80 88 80 89 80 8A 80  47 01 01 71 0C 02 20 00  ........G..q.. .
0BB0: 8B 80 80 DB 0B 02 19 00  0F 80 80 CC 0B 47 00 87  .............G..
0BC0: 80 88 80 89 80 8A 80 47  01 01 D8 0B 47 00 8C 80  .......G....G...
0BD0: 8D 80 8E 80 8F 80 47 01  01 71 0C 02 20 00 90 80  ......G..q.. ...
0BE0: 80 09 0C 02 19 00 1A 80  80 FA 0B 47 00 91 80 92  ...........G....
0BF0: 80 93 80 94 80 47 01 01  06 0C 47 00 87 80 88 80  .....G....G.....
0C00: 89 80 8A 80 47 01 01 71  0C 02 20 00 95 80 80 37  ....G..q.. ....7
0C10: 0C 02 19 00 1A 80 80 28  0C 47 00 96 80 97 80 98  .......(.G......
0C20: 80 99 80 47 01 01 34 0C  47 00 87 80 88 80 89 80  ...G..4.G.......
0C30: 8A 80 47 01 01 71 0C 02  20 00 9A 80 80 65 0C 02  ..G..q.. ....e..
0C40: 19 00 19 80 80 56 0C 47  00 9B 80 9C 80 9D 80 9E  .....V.G........
0C50: 80 47 01 01 62 0C 47 00  87 80 88 80 89 80 8A 80  .G..b.G.........
0C60: 47 01 01 71 0C 47 00 87  80 88 80 89 80 8A 80 47  G..q.G.........G
0C70: 01 38 1E 80 02 17 00 18  80 00 7F 0C 01 9A 0C 02  .8..............
0C80: 17 00 14 80 00 4A 0D 1C  10 80 24 40 80 14 80 0F  .....J....$@....
0C90: 80 25 02 00 10 0F 80 00  4A 0D 02 20 00 48 80 00  .%......J.. .H..
0CA0: 06 0D 02 21 00 0F 80 80  B4 0C 36 73 80 74 80 75  ...!......6s.t.u
0CB0: 80 01 03 0D 02 21 00 14  80 80 C6 0C 36 77 80 78  .....!......6w.x
0CC0: 80 79 80 01 03 0D 02 21  00 18 80 80 D8 0C 36 7B  .y.....!......6{
0CD0: 80 7C 80 7D 80 01 03 0D  02 21 00 19 80 80 EA 0C  .|.}.....!......
0CE0: 36 7F 80 80 80 81 80 01  03 0D 02 21 00 1A 80 80  6..........!....
0CF0: FC 0C 36 83 80 84 80 85  80 01 03 0D 36 87 80 88  ..6.........6...
0D00: 80 89 80 01 0F 0D 37 87  80 88 80 89 80 8A 80 80  ......7.........
0D10: F0 FF FF 7F 62 18 80 F0  FF FF 7F F0 FF FF 7F 6D  ....b..........m
0D20: 61 69 6E 0F 80 45 1D 80  F0 FF FF 7F F0 FF FF 7F  ain..E..........
0D30: 66 64 69 32 0F 80 46 02  12 00 02 12 00 0F 80 00  fdi2..F.........
0D40: 44 0D 46 00 01 71 0D 01  4A 0D 02 17 00 13 80 04  D.F..q..J.......
0D50: 63 0D 5C 00 41 80 5C 01  41 80 5C 02 41 80 5C 03  c.\.A.\.A.\.A.\.
0D60: 41 80 9A 1A 18 19 02 17  00 0F 80 03 71 0D 01 11  A...........q...
0D70: 0E 02 20 00 9F 80 80 7C  0D 01 7C 0D 02 20 00 2D  .. ....|..|.. .-
0D80: 80 80 87 0D 01 11 0E 02  20 00 1E 80 80 92 0D 01  ........ .......
0D90: 11 0E 02 20 00 2F 80 80  9D 0D 01 11 0E 02 20 00  ... ./........ .
0DA0: 31 80 80 A8 0D 01 11 0E  03 05 10 1B 00 02 05 10  1...............
0DB0: 0F 80 02 11 0E 02 05 10  3C 80 04 D0 0D 3F 04 10  ........<....?..
0DC0: 05 10 3C 80 15 05 10 3C  80 48 A0 80 23 01 D4 0D  ..<....<.H..#...
0DD0: 48 A1 80 23 02 1B 00 1A  00 05 E8 0D 03 07 10 19  H..#............
0DE0: 00 48 A2 80 23 01 11 0E  02 1A 00 3C 80 04 08 0E  .H..#......<....
0DF0: 03 05 10 1A 00 3F 04 10  05 10 3C 80 15 05 10 3C  .....?....<....<
0E00: 80 48 A3 80 23 01 11 0E  03 05 10 1A 00 48 A4 80  .H..#........H..
0E10: 23 02 18 00 0F 80 00 29  0E 5C 00 0F 80 5C 01 0F  #......).\...\..
0E20: 80 5C 02 41 80 5C 03 41  80 02 17 00 0F 80 03 52  .\.A.\.A.......R
0E30: 0E 45 1D 80 F0 FF FF 7F  F0 FF FF 7F 66 64 69 32  .E..........fdi2
0E40: 0F 80 5C 00 0F 80 5C 01  0F 80 5C 02 41 80 5C 03  ..\...\...\.A.\.
0E50: 41 80 06 18 00 45 43 80  F0 FF FF 7F F0 FF FF 7F  A....EC.........
0E60: 77 68 69 31 0F 80 45 1D  80 F0 FF FF 7F F0 FF FF  whi1..E.........
0E70: 7F 62 6C 6F 66 0F 80 21  00                       .blof..!.       
```

#### Opcodes

```
  0: 0x0A70 [0x79] LocalPlayer looks at LocalPlayer (Basic look)
  1: 0x0A7A [0x03] ExtData[1]->WorkLocal[33] = Work_Zone[2]
  2: 0x0A7F [0x03] ExtData[1]->WorkLocal[26] = Work_Zone[3]
  3: 0x0A84 [0x03] ExtData[1]->WorkLocal[27] = Work_Zone[5]
  4: 0x0A89 [0x03] ExtData[1]->WorkLocal[32] = Work_Zone[6]
  5: 0x0A8E [0x03] ExtData[1]->WorkLocal[25] = Work_Zone[7]
  6: 0x0A93 [0x03] ExtData[1]->WorkLocal[23] = Work_Zone[8]
  7: 0x0A98 [0x02] IF !(ExtData[1]->WorkLocal[23] < 3*) GOTO 0x0AA5
  8: 0x0AA0 [0x03] ExtData[1]->WorkLocal[23] = 0*
  9: 0x0AA5 [0x03] ExtData[1]->WorkLocal[28] = Work_Zone[9]
 10: 0x0AAA [0x20] SET_CLI_EVENT_UC_FLAG: Lock player control
 11: 0x0AAC [0x42] SET_CLI_EVENT_CANCEL_DATA()
 12: 0x0AAD [0x3B] GET_ENTITY_POSITION(entity=LocalPlayer, x_destination=Work_Zone[32], y_destination=Work_Zone[33], z_destination=Work_Zone[34])
 13: 0x0AB8 [0x3A] CONVERT_YAW_TO_BYTE(entity=LocalPlayer, result_destination=Work_Zone[35])
 14: 0x0ABF [0x02] IF !(ExtData[1]->WorkLocal[32] == 180*) GOTO 0x0ACA
 15: 0x0AC7 [0x1C] WAIT(300* ticks)
 16: 0x0ACA [0x45] LOAD_SCHEDULED_TASK: Load scheduler "whi1" with entities [LocalPlayer, LocalPlayer], work=[201*, 0*]
 17: 0x0ADB [0x45] LOAD_SCHEDULED_TASK: Load scheduler "blof" with entities [LocalPlayer, LocalPlayer], work=[200*, 0*]
 18: 0x0AEC [0x45] LOAD_SCHEDULED_TASK: Load scheduler "fdo1" with entities [LocalPlayer, LocalPlayer], work=[200*, 0*]
 19: 0x0AFD [0x55] WAIT_LOAD_SCHEDULER: Wait for scheduler "fdo1" with entities [LocalPlayer, LocalPlayer], work=200*
 20: 0x0B0C [0x6C] FADE_ENTITY_COLOR(entity_id=LocalPlayer, end_alpha=128*, fade_time=1*)
 21: 0x0B15 [0x06] Work_Zone[1] = 0
 22: 0x0B18 [0x02] IF !(ExtData[1]->WorkLocal[23] >= 0*) GOTO 0x0B23
 23: 0x0B20 [0x01] GOTO 0x0C71
 24: 0x0B23 [0x02] IF !(ExtData[1]->WorkLocal[32] == 180*) GOTO 0x0BAD
 25: 0x0B2B [0x02] IF !(ExtData[1]->WorkLocal[33] == 0*) GOTO 0x0B42
 26: 0x0B33 [0x47] UPDATE_PLAYER_POS(-618.329*, -643.868*, -25.805*, yaw=330.5°*)
 27: 0x0B3D [0x47] WAIT_PLAYER_POS_UPDATE
 28: 0x0B3F [0x01] GOTO 0x0BAA
 29: 0x0B42 [0x02] IF !(ExtData[1]->WorkLocal[33] == 1*) GOTO 0x0B59
 30: 0x0B4A [0x47] UPDATE_PLAYER_POS(-332.163*, -441.914*, -95.055*, yaw=330.5°*)
 31: 0x0B54 [0x47] WAIT_PLAYER_POS_UPDATE
 32: 0x0B56 [0x01] GOTO 0x0BAA
 33: 0x0B59 [0x02] IF !(ExtData[1]->WorkLocal[33] == 2*) GOTO 0x0B70
 34: 0x0B61 [0x47] UPDATE_PLAYER_POS(-12.464*, -648.377*, -194.629*, yaw=331.3°*)
 35: 0x0B6B [0x47] WAIT_PLAYER_POS_UPDATE
 36: 0x0B6D [0x01] GOTO 0x0BAA
 37: 0x0B70 [0x02] IF !(ExtData[1]->WorkLocal[33] == 3*) GOTO 0x0B87
 38: 0x0B78 [0x47] UPDATE_PLAYER_POS(323.381*, -443.793*, -108.440*, yaw=329.1°*)
 39: 0x0B82 [0x47] WAIT_PLAYER_POS_UPDATE
 40: 0x0B84 [0x01] GOTO 0x0BAA
 41: 0x0B87 [0x02] IF !(ExtData[1]->WorkLocal[33] == 4*) GOTO 0x0B9E
 42: 0x0B8F [0x47] UPDATE_PLAYER_POS(599.907*, -676.969*, -22.473*, yaw=330.7°*)
 43: 0x0B99 [0x47] WAIT_PLAYER_POS_UPDATE
 44: 0x0B9B [0x01] GOTO 0x0BAA
 45: 0x0B9E [0x47] UPDATE_PLAYER_POS(339.179*, 256.940*, -115.103*, yaw=271.9°*)
 46: 0x0BA8 [0x47] WAIT_PLAYER_POS_UPDATE

SUBROUTINE_0BAA:
 47: 0x0BAA [0x01] GOTO 0x0C71
 48: 0x0BAD [0x02] IF !(ExtData[1]->WorkLocal[32] == 168*) GOTO 0x0BDB
 49: 0x0BB5 [0x02] IF !(ExtData[1]->WorkLocal[25] == 0*) GOTO 0x0BCC
 50: 0x0BBD [0x47] UPDATE_PLAYER_POS(339.179*, 256.940*, -115.103*, yaw=271.9°*)
 51: 0x0BC7 [0x47] WAIT_PLAYER_POS_UPDATE
 52: 0x0BC9 [0x01] GOTO 0x0BD8
 53: 0x0BCC [0x47] UPDATE_PLAYER_POS(200.059*, -21.958*, -0.250*, yaw=91.5°*)
 54: 0x0BD6 [0x47] WAIT_PLAYER_POS_UPDATE

SUBROUTINE_0BD8:
 55: 0x0BD8 [0x01] GOTO 0x0C71
 56: 0x0BDB [0x02] IF !(ExtData[1]->WorkLocal[32] == 202*) GOTO 0x0C09
 57: 0x0BE3 [0x02] IF !(ExtData[1]->WorkLocal[25] == 4*) GOTO 0x0BFA
 58: 0x0BEB [0x47] UPDATE_PLAYER_POS(538.604*, 501.900*, -13.942*, yaw=286.5°*)
 59: 0x0BF5 [0x47] WAIT_PLAYER_POS_UPDATE
 60: 0x0BF7 [0x01] GOTO 0x0C06
 61: 0x0BFA [0x47] UPDATE_PLAYER_POS(339.179*, 256.940*, -115.103*, yaw=271.9°*)
 62: 0x0C04 [0x47] WAIT_PLAYER_POS_UPDATE

SUBROUTINE_0C06:
 63: 0x0C06 [0x01] GOTO 0x0C71
 64: 0x0C09 [0x02] IF !(ExtData[1]->WorkLocal[32] == 203*) GOTO 0x0C37
 65: 0x0C11 [0x02] IF !(ExtData[1]->WorkLocal[25] == 4*) GOTO 0x0C28
 66: 0x0C19 [0x47] UPDATE_PLAYER_POS(553.205*, 589.633*, -0.021*, yaw=124.4°*)
 67: 0x0C23 [0x47] WAIT_PLAYER_POS_UPDATE
 68: 0x0C25 [0x01] GOTO 0x0C34
 69: 0x0C28 [0x47] UPDATE_PLAYER_POS(339.179*, 256.940*, -115.103*, yaw=271.9°*)
 70: 0x0C32 [0x47] WAIT_PLAYER_POS_UPDATE

SUBROUTINE_0C34:
 71: 0x0C34 [0x01] GOTO 0x0C71
 72: 0x0C37 [0x02] IF !(ExtData[1]->WorkLocal[32] == 211*) GOTO 0x0C65
 73: 0x0C3F [0x02] IF !(ExtData[1]->WorkLocal[25] == 3*) GOTO 0x0C56
 74: 0x0C47 [0x47] UPDATE_PLAYER_POS(569.224*, 548.462*, 36.837*, yaw=59.1°*)
 75: 0x0C51 [0x47] WAIT_PLAYER_POS_UPDATE
 76: 0x0C53 [0x01] GOTO 0x0C62
 77: 0x0C56 [0x47] UPDATE_PLAYER_POS(339.179*, 256.940*, -115.103*, yaw=271.9°*)
 78: 0x0C60 [0x47] WAIT_PLAYER_POS_UPDATE

SUBROUTINE_0C62:
 79: 0x0C62 [0x01] GOTO 0x0C71
 80: 0x0C65 [0x47] UPDATE_PLAYER_POS(339.179*, 256.940*, -115.103*, yaw=271.9°*)
 81: 0x0C6F [0x47] WAIT_PLAYER_POS_UPDATE

SUBROUTINE_0C71:
 82: 0x0C71 [0x38] SET_CLIENT_EVENT_MODE(mode=19*)
 83: 0x0C74 [0x02] IF !(ExtData[1]->WorkLocal[23] == 2*) GOTO 0x0C7F
 84: 0x0C7C [0x01] GOTO 0x0C9A
 85: 0x0C7F [0x02] IF !(ExtData[1]->WorkLocal[23] == 1*) GOTO 0x0D4A
 86: 0x0C87 [0x1C] WAIT(15* ticks)
 87: 0x0C8A [0x24] CREATE_DIALOG(message_id=7566*, default_option=1*, option_flags=0*)
    → "Skip the event? [Yes./No.]"
 88: 0x0C91 [0x25] WAIT_DIALOG_SELECT()
 89: 0x0C92 [0x02] IF !(Work_Zone[0] == 0*) GOTO 0x0D4A

SUBROUTINE_0C9A:
 90: 0x0C9A [0x02] IF !(ExtData[1]->WorkLocal[32] == 180*) GOTO 0x0D06
 91: 0x0CA2 [0x02] IF !(ExtData[1]->WorkLocal[33] == 0*) GOTO 0x0CB4
 92: 0x0CAA [0x36] SET_ENTITY_EVENT_POSITION(pos_x=-618.329*, pos_z=-643.868*, pos_y=-25.805*)
 93: 0x0CB1 [0x01] GOTO 0x0D03
 94: 0x0CB4 [0x02] IF !(ExtData[1]->WorkLocal[33] == 1*) GOTO 0x0CC6
 95: 0x0CBC [0x36] SET_ENTITY_EVENT_POSITION(pos_x=-332.163*, pos_z=-441.914*, pos_y=-95.055*)
 96: 0x0CC3 [0x01] GOTO 0x0D03
 97: 0x0CC6 [0x02] IF !(ExtData[1]->WorkLocal[33] == 2*) GOTO 0x0CD8
 98: 0x0CCE [0x36] SET_ENTITY_EVENT_POSITION(pos_x=-12.464*, pos_z=-648.377*, pos_y=-194.629*)
 99: 0x0CD5 [0x01] GOTO 0x0D03
100: 0x0CD8 [0x02] IF !(ExtData[1]->WorkLocal[33] == 3*) GOTO 0x0CEA
101: 0x0CE0 [0x36] SET_ENTITY_EVENT_POSITION(pos_x=323.381*, pos_z=-443.793*, pos_y=-108.440*)
102: 0x0CE7 [0x01] GOTO 0x0D03
103: 0x0CEA [0x02] IF !(ExtData[1]->WorkLocal[33] == 4*) GOTO 0x0CFC
104: 0x0CF2 [0x36] SET_ENTITY_EVENT_POSITION(pos_x=599.907*, pos_z=-676.969*, pos_y=-22.473*)
105: 0x0CF9 [0x01] GOTO 0x0D03
106: 0x0CFC [0x36] SET_ENTITY_EVENT_POSITION(pos_x=339.179*, pos_z=256.940*, pos_y=-115.103*)

SUBROUTINE_0D03:
107: 0x0D03 [0x01] GOTO 0x0D0F
108: 0x0D06 [0x37] UPDATE_EVENT_POSITION_AND_DIR: x=339.179*, z=256.940*, y=-115.103*, direction=271.9°*

SUBROUTINE_0D0F:
109: 0x0D0F [0x80] LOAD_WAIT(entity=LocalPlayer)
110: 0x0D14 [0x62] LOAD_EVENT_SCHEDULER: Load scheduler "main" with entities [LocalPlayer, LocalPlayer], work=[2*, 0*]
111: 0x0D25 [0x45] LOAD_SCHEDULED_TASK: Load scheduler "fdi2" with entities [LocalPlayer, LocalPlayer], work=[200*, 0*]
112: 0x0D36 [0x46] CAMERA_CONTROL: Query status
113: 0x0D38 [0x12] 0x0200 = rand()
114: 0x0D3B [0x12] 0x0F00 = rand()
115: 0x0D3E [0x80] LOAD_WAIT(entity=Unknown NPC (ID: 1175274496/0x460D4400))
116: 0x0D43 [0x00] END_REQSTACK()

SUBROUTINE_0D4A:
117: 0x0D4A [0x02] IF !(ExtData[1]->WorkLocal[23] < 4294967295*) GOTO 0x0D63
118: 0x0D52 [0x5C] MUSIC_CONTROL: Set Idle (Day) music to song 125*
119: 0x0D56 [0x5C] MUSIC_CONTROL: Set Idle (Night) music to song 125*
120: 0x0D5A [0x5C] MUSIC_CONTROL: Set Combat (Solo) music to song 125*
121: 0x0D5E [0x5C] MUSIC_CONTROL: Set Combat (Party) music to song 125*
122: 0x0D62 [0x9A] WAIT_MUSIC_SERVER()
123: 0x0D63 [0x1A] CALL_SUBROUTINE(address=0x1918)
124: 0x0D66 [0x02] IF !(ExtData[1]->WorkLocal[23] >= 0*) GOTO 0x0D71
125: 0x0D6E [0x01] GOTO 0x0E11

SUBROUTINE_0D71:
126: 0x0D71 [0x02] IF !(ExtData[1]->WorkLocal[32] == 36*) GOTO 0x0D7C
127: 0x0D79 [0x01] GOTO 0x0D7C

SUBROUTINE_0D7C:
128: 0x0D7C [0x02] IF !(ExtData[1]->WorkLocal[32] == 17*) GOTO 0x0D87
129: 0x0D84 [0x01] GOTO 0x0E11
130: 0x0D87 [0x02] IF !(ExtData[1]->WorkLocal[32] == 19*) GOTO 0x0D92
131: 0x0D8F [0x01] GOTO 0x0E11
132: 0x0D92 [0x02] IF !(ExtData[1]->WorkLocal[32] == 21*) GOTO 0x0D9D
133: 0x0D9A [0x01] GOTO 0x0E11
134: 0x0D9D [0x02] IF !(ExtData[1]->WorkLocal[32] == 23*) GOTO 0x0DA8
135: 0x0DA5 [0x01] GOTO 0x0E11
136: 0x0DA8 [0x03] Work_Zone[5] = ExtData[1]->WorkLocal[27]
137: 0x0DAD [0x02] IF !(Work_Zone[5] <= 0*) GOTO 0x0E11
138: 0x0DB5 [0x02] IF !(Work_Zone[5] < 60*) GOTO 0x0DD0
139: 0x0DBD [0x3F] Work_Zone[4] = Work_Zone[5] % 60*
140: 0x0DC4 [0x15] Work_Zone[5] /= 60*
141: 0x0DC9 [0x48] [System] [7568*]:
    → "Battlefield clear time: $3 minute[/s], $2 second[/s]!"
142: 0x0DCC [0x23] WAIT_FOR_DIALOG_INTERACTION
143: 0x0DCD [0x01] GOTO 0x0DD4
144: 0x0DD0 [0x48] [System] [7567*]:
    → "Battlefield clear time: $3 second[/s]!"
145: 0x0DD3 [0x23] WAIT_FOR_DIALOG_INTERACTION

SUBROUTINE_0DD4:
146: 0x0DD4 [0x02] IF !(ExtData[1]->WorkLocal[27] > ExtData[1]->WorkLocal[26]) GOTO 0x0DE8
147: 0x0DDC [0x03] Work_Zone[7] = ExtData[1]->WorkLocal[25]
148: 0x0DE1 [0x48] [System] [7602*]:
    → "You have broken the clear time record for [The Rank 2 Final Mission/The Worm's Tail/Grimshell Shocktroopers/On My Way/A Thief in Norg!?/3,2,1.../Shattering Start (RDM)/Shattering Stars (THF)/Shattering Stars (BST)/ Birds of a Feather/Crustacean Conundrum/Grove Guardians/The Hills are Alive/Royal Jelly/The Final Bout/Up in Arms/Copycat/Operation Desert Swarm/Prehistoric Pigeons/The Palborough Project/Shell Shocked/Beyond Infinity/$26The Worm's Tail/$26Grimshell Shocktroopers/A Feast Most Dire/A.M.A.N. Trove (Mars)/A.M.A.N. Trove (Venus)/Invitation from Naji/Invitation from Naji and Co.]!"
149: 0x0DE4 [0x23] WAIT_FOR_DIALOG_INTERACTION
150: 0x0DE5 [0x01] GOTO 0x0E11
151: 0x0DE8 [0x02] IF !(ExtData[1]->WorkLocal[26] < 60*) GOTO 0x0E08
152: 0x0DF0 [0x03] Work_Zone[5] = ExtData[1]->WorkLocal[26]
153: 0x0DF5 [0x3F] Work_Zone[4] = Work_Zone[5] % 60*
154: 0x0DFC [0x15] Work_Zone[5] /= 60*
155: 0x0E01 [0x48] [System] [7570*]:
    → "The current battlefield clear time record is $3 minute[/s] $2 second[/s]."
156: 0x0E04 [0x23] WAIT_FOR_DIALOG_INTERACTION
157: 0x0E05 [0x01] GOTO 0x0E11
158: 0x0E08 [0x03] Work_Zone[5] = ExtData[1]->WorkLocal[26]
159: 0x0E0D [0x48] [System] [7569*]:
    → "The current battlefield clear time record is $3 second[/s]."
160: 0x0E10 [0x23] WAIT_FOR_DIALOG_INTERACTION

SUBROUTINE_0E11:
161: 0x0E11 [0x02] IF !(ExtData[1]->WorkLocal[24] == 0*) GOTO 0x0E29
162: 0x0E19 [0x5C] MUSIC_CONTROL: Set Idle (Day) music to song 0*
163: 0x0E1D [0x5C] MUSIC_CONTROL: Set Idle (Night) music to song 0*
164: 0x0E21 [0x5C] MUSIC_CONTROL: Set Combat (Solo) music to song 125*
165: 0x0E25 [0x5C] MUSIC_CONTROL: Set Combat (Party) music to song 125*
166: 0x0E29 [0x02] IF !(ExtData[1]->WorkLocal[23] >= 0*) GOTO 0x0E52
167: 0x0E31 [0x45] LOAD_SCHEDULED_TASK: Load scheduler "fdi2" with entities [LocalPlayer, LocalPlayer], work=[200*, 0*]
168: 0x0E42 [0x5C] MUSIC_CONTROL: Set Idle (Day) music to song 0*
169: 0x0E46 [0x5C] MUSIC_CONTROL: Set Idle (Night) music to song 0*
170: 0x0E4A [0x5C] MUSIC_CONTROL: Set Combat (Solo) music to song 125*
171: 0x0E4E [0x5C] MUSIC_CONTROL: Set Combat (Party) music to song 125*
172: 0x0E52 [0x06] ExtData[1]->WorkLocal[24] = 0
173: 0x0E55 [0x45] LOAD_SCHEDULED_TASK: Load scheduler "whi1" with entities [LocalPlayer, LocalPlayer], work=[201*, 0*]
174: 0x0E66 [0x45] LOAD_SCHEDULED_TASK: Load scheduler "blof" with entities [LocalPlayer, LocalPlayer], work=[200*, 0*]
175: 0x0E77 [0x21] END_EVENT
176: 0x0E78 [0x00] END_REQSTACK()
```

#### Data or dead code:

```
# Dead code (unreachable instructions):
     0x0D44 [0x01] GOTO 0x0D71
     0x0D47 [0x01] GOTO 0x0D4A
```

### Event 32003

#### Metadata

| Field        | Value     |
|--------------|-----------|
| Entrypoint   | 0x0E79    |
| Data Size    | 435 bytes |
| Instructions | 77        |

```
      00 01 02 03 04 05 06 07  08 09 0A 0B 0C 0D 0E 0F
      -- -- -- -- -- -- -- --  -- -- -- -- -- -- -- --
0E70:                             06 1D 00 06 1E 00 03           .......
0E80: 21 00 06 10 03 20 00 07  10 03 1F 00 08 10 06 01  !.... ..........
0E90: 10 1A A8 24 02 1D 00 14  80 00 2A 10 42 03 01 10  ...$......*.B...
0EA0: 18 80 43 00 43 01 03 01  10 19 80 43 00 43 01 1A  ..C.C......C.C..
0EB0: BF 24 02 1E 00 14 80 00  2A 10 45 1D 80 F0 FF FF  .$......*.E.....
0EC0: 7F F0 FF FF 7F 66 64 6F  31 0F 80 55 1D 80 F0 FF  .....fdo1..U....
0ED0: FF 7F F0 FF FF 7F 66 64  6F 31 03 01 10 1A 80 02  ......fdo1......
0EE0: 20 00 48 80 80 69 0F 02  21 00 0F 80 80 FE 0E 47   .H..i..!......G
0EF0: 00 49 80 4A 80 4B 80 4C  80 47 01 01 66 0F 02 21  .I.J.K.L.G..f..!
0F00: 00 14 80 80 15 0F 47 00  4D 80 4E 80 4F 80 50 80  ......G.M.N.O.P.
0F10: 47 01 01 66 0F 02 21 00  18 80 80 2C 0F 47 00 51  G..f..!....,.G.Q
0F20: 80 52 80 53 80 54 80 47  01 01 66 0F 02 21 00 19  .R.S.T.G..f..!..
0F30: 80 80 43 0F 47 00 55 80  56 80 57 80 58 80 47 01  ..C.G.U.V.W.X.G.
0F40: 01 66 0F 02 21 00 1A 80  80 5A 0F 47 00 59 80 5A  .f..!....Z.G.Y.Z
0F50: 80 5B 80 5C 80 47 01 01  66 0F 47 00 5D 80 5E 80  .[.\.G..f.G.].^.
0F60: 5F 80 60 80 47 01 01 E8  0F 02 20 00 27 80 80 DC  _.`.G..... .'...
0F70: 0F 02 1F 00 14 80 80 88  0F 47 00 61 80 62 80 63  .........G.a.b.c
0F80: 80 64 80 47 01 01 D9 0F  02 1F 00 18 80 80 9F 0F  .d.G............
0F90: 47 00 65 80 66 80 67 80  68 80 47 01 01 D9 0F 02  G.e.f.g.h.G.....
0FA0: 1F 00 19 80 80 B6 0F 47  00 69 80 6A 80 6B 80 6C  .......G.i.j.k.l
0FB0: 80 47 01 01 D9 0F 02 1F  00 1A 80 80 CD 0F 47 00  .G............G.
0FC0: 6D 80 6E 80 6F 80 70 80  47 01 01 D9 0F 47 00 5D  m.n.o.p.G....G.]
0FD0: 80 5E 80 5F 80 60 80 47  01 01 E8 0F 47 00 5D 80  .^._.`.G....G.].
0FE0: 5E 80 5F 80 60 80 47 01  38 1E 80 79 00 F0 FF FF  ^._.`.G.8..y....
0FF0: 7F F0 FF FF 7F 1A C3 24  45 43 80 F0 FF FF 7F F0  .......$EC......
1000: FF FF 7F 77 68 69 31 0F  80 45 1D 80 F0 FF FF 7F  ...whi1..E......
1010: F0 FF FF 7F 62 6C 6F 66  0F 80 5C 00 0F 80 5C 01  ....blof..\...\.
1020: 0F 80 5C 02 41 80 5C 03  41 80 21 00              ..\.A.\.A.!.    
```

#### Opcodes

```
  0: 0x0E79 [0x06] ExtData[1]->WorkLocal[29] = 0
  1: 0x0E7C [0x06] ExtData[1]->WorkLocal[30] = 0
  2: 0x0E7F [0x03] ExtData[1]->WorkLocal[33] = Work_Zone[6]
  3: 0x0E84 [0x03] ExtData[1]->WorkLocal[32] = Work_Zone[7]
  4: 0x0E89 [0x03] ExtData[1]->WorkLocal[31] = Work_Zone[8]
  5: 0x0E8E [0x06] Work_Zone[1] = 0
  6: 0x0E91 [0x1A] CALL_SUBROUTINE(address=0x24A8)
  7: 0x0E94 [0x02] IF !(ExtData[1]->WorkLocal[29] == 1*) GOTO 0x102A
  8: 0x0E9C [0x42] SET_CLI_EVENT_CANCEL_DATA()
  9: 0x0E9D [0x03] Work_Zone[1] = 2*
 10: 0x0EA2 [0x43] SEND_EVENT_UPDATE: Send pending tag to server (packet 0x005B)
 11: 0x0EA4 [0x43] SEND_EVENT_UPDATE: Check pending flag (skip if not pending)
 12: 0x0EA6 [0x03] Work_Zone[1] = 3*
 13: 0x0EAB [0x43] SEND_EVENT_UPDATE: Send pending tag to server (packet 0x005B)
 14: 0x0EAD [0x43] SEND_EVENT_UPDATE: Check pending flag (skip if not pending)
 15: 0x0EAF [0x1A] CALL_SUBROUTINE(address=0x24BF)
 16: 0x0EB2 [0x02] IF !(ExtData[1]->WorkLocal[30] == 1*) GOTO 0x102A
 17: 0x0EBA [0x45] LOAD_SCHEDULED_TASK: Load scheduler "fdo1" with entities [LocalPlayer, LocalPlayer], work=[200*, 0*]
 18: 0x0ECB [0x55] WAIT_LOAD_SCHEDULER: Wait for scheduler "fdo1" with entities [LocalPlayer, LocalPlayer], work=200*
 19: 0x0EDA [0x03] Work_Zone[1] = 4*
 20: 0x0EDF [0x02] IF !(ExtData[1]->WorkLocal[32] == 180*) GOTO 0x0F69
 21: 0x0EE7 [0x02] IF !(ExtData[1]->WorkLocal[33] == 0*) GOTO 0x0EFE
 22: 0x0EEF [0x47] UPDATE_PLAYER_POS(-605.141*, 479.929*, -22.681*, yaw=87.2°*)
 23: 0x0EF9 [0x47] WAIT_PLAYER_POS_UPDATE
 24: 0x0EFB [0x01] GOTO 0x0F66
 25: 0x0EFE [0x02] IF !(ExtData[1]->WorkLocal[33] == 1*) GOTO 0x0F15
 26: 0x0F06 [0x47] UPDATE_PLAYER_POS(-262.589*, 377.857*, -137.313*, yaw=305.3°*)
 27: 0x0F10 [0x47] WAIT_PLAYER_POS_UPDATE
 28: 0x0F12 [0x01] GOTO 0x0F66
 29: 0x0F15 [0x02] IF !(ExtData[1]->WorkLocal[33] == 2*) GOTO 0x0F2C
 30: 0x0F1D [0x47] UPDATE_PLAYER_POS(18.348*, 486.940*, -224.334*, yaw=17.1°*)
 31: 0x0F27 [0x47] WAIT_PLAYER_POS_UPDATE
 32: 0x0F29 [0x01] GOTO 0x0F66
 33: 0x0F2C [0x02] IF !(ExtData[1]->WorkLocal[33] == 3*) GOTO 0x0F43
 34: 0x0F34 [0x47] UPDATE_PLAYER_POS(231.593*, 360.094*, -173.572*, yaw=160.8°*)
 35: 0x0F3E [0x47] WAIT_PLAYER_POS_UPDATE
 36: 0x0F40 [0x01] GOTO 0x0F66
 37: 0x0F43 [0x02] IF !(ExtData[1]->WorkLocal[33] == 4*) GOTO 0x0F5A
 38: 0x0F4B [0x47] UPDATE_PLAYER_POS(553.664*, 523.939*, -38.205*, yaw=233.9°*)
 39: 0x0F55 [0x47] WAIT_PLAYER_POS_UPDATE
 40: 0x0F57 [0x01] GOTO 0x0F66
 41: 0x0F5A [0x47] UPDATE_PLAYER_POS(-353.848*, -260.306*, 104.140*, yaw=183.2°*)
 42: 0x0F64 [0x47] WAIT_PLAYER_POS_UPDATE

SUBROUTINE_0F66:
 43: 0x0F66 [0x01] GOTO 0x0FE8
 44: 0x0F69 [0x02] IF !(ExtData[1]->WorkLocal[32] == 6*) GOTO 0x0FDC
 45: 0x0F71 [0x02] IF !(ExtData[1]->WorkLocal[31] == 1*) GOTO 0x0F88
 46: 0x0F79 [0x47] UPDATE_PLAYER_POS(-875.117*, -43.892*, -48.084*, yaw=45.1°*)
 47: 0x0F83 [0x47] WAIT_PLAYER_POS_UPDATE
 48: 0x0F85 [0x01] GOTO 0x0FD9
 49: 0x0F88 [0x02] IF !(ExtData[1]->WorkLocal[31] == 2*) GOTO 0x0F9F
 50: 0x0F90 [0x47] UPDATE_PLAYER_POS(-755.499*, 563.947*, -112.035*, yaw=313.5°*)
 51: 0x0F9A [0x47] WAIT_PLAYER_POS_UPDATE
 52: 0x0F9C [0x01] GOTO 0x0FD9
 53: 0x0F9F [0x02] IF !(ExtData[1]->WorkLocal[31] == 3*) GOTO 0x0FB6
 54: 0x0FA7 [0x47] UPDATE_PLAYER_POS(123.251*, 754.209*, -172.124*, yaw=38.7°*)
 55: 0x0FB1 [0x47] WAIT_PLAYER_POS_UPDATE
 56: 0x0FB3 [0x01] GOTO 0x0FD9
 57: 0x0FB6 [0x02] IF !(ExtData[1]->WorkLocal[31] == 4*) GOTO 0x0FCD
 58: 0x0FBE [0x47] UPDATE_PLAYER_POS(-516.404*, -803.323*, 24.206*, yaw=38.4°*)
 59: 0x0FC8 [0x47] WAIT_PLAYER_POS_UPDATE
 60: 0x0FCA [0x01] GOTO 0x0FD9
 61: 0x0FCD [0x47] UPDATE_PLAYER_POS(-353.848*, -260.306*, 104.140*, yaw=183.2°*)
 62: 0x0FD7 [0x47] WAIT_PLAYER_POS_UPDATE

SUBROUTINE_0FD9:
 63: 0x0FD9 [0x01] GOTO 0x0FE8
 64: 0x0FDC [0x47] UPDATE_PLAYER_POS(-353.848*, -260.306*, 104.140*, yaw=183.2°*)
 65: 0x0FE6 [0x47] WAIT_PLAYER_POS_UPDATE

SUBROUTINE_0FE8:
 66: 0x0FE8 [0x38] SET_CLIENT_EVENT_MODE(mode=19*)
 67: 0x0FEB [0x79] LocalPlayer looks at LocalPlayer (Basic look)
 68: 0x0FF5 [0x1A] CALL_SUBROUTINE(address=0x24C3)
 69: 0x0FF8 [0x45] LOAD_SCHEDULED_TASK: Load scheduler "whi1" with entities [LocalPlayer, LocalPlayer], work=[201*, 0*]
 70: 0x1009 [0x45] LOAD_SCHEDULED_TASK: Load scheduler "blof" with entities [LocalPlayer, LocalPlayer], work=[200*, 0*]
 71: 0x101A [0x5C] MUSIC_CONTROL: Set Idle (Day) music to song 0*
 72: 0x101E [0x5C] MUSIC_CONTROL: Set Idle (Night) music to song 0*
 73: 0x1022 [0x5C] MUSIC_CONTROL: Set Combat (Solo) music to song 125*
 74: 0x1026 [0x5C] MUSIC_CONTROL: Set Combat (Party) music to song 125*
 75: 0x102A [0x21] END_EVENT
 76: 0x102B [0x00] END_REQSTACK()
```

### Event 65535.3

#### Metadata

| Field        | Value    |
|--------------|----------|
| Entrypoint   | 0x102C   |
| Data Size    | 10 bytes |
| Instructions | 2        |

```
      00 01 02 03 04 05 06 07  08 09 0A 0B 0C 0D 0E 0F
      -- -- -- -- -- -- -- --  -- -- -- -- -- -- -- --
1020:                                      37 A5 80 A6              7...
1030: 80 A7 80 1F 80 00                                 ......          
```

#### Opcodes

```
  0: 0x102C [0x37] UPDATE_EVENT_POSITION_AND_DIR: x=-349.071*, z=-260.187*, y=104.285*, direction=0.7°*
  1: 0x1035 [0x00] END_REQSTACK()
```

### Event 65535.4

#### Metadata

| Field        | Value    |
|--------------|----------|
| Entrypoint   | 0x1036   |
| Data Size    | 15 bytes |
| Instructions | 5        |

```
      00 01 02 03 04 05 06 07  08 09 0A 0B 0C 0D 0E 0F
      -- -- -- -- -- -- -- --  -- -- -- -- -- -- -- --
1030:                   32 A8  80 1F 00 A9 80 AA 80 AB        2.........
1040: 80 1F 01 6F 00                                    ...o.           
```

#### Opcodes

```
  0: 0x1036 [0x32] ExtData[1]->MainSpeed = 37* * 0.1
  1: 0x1039 [0x1F] MOVE_ENTITY: EventEntity moves to X=-343.671*, Z=-260.827*, Y=104.729*
  2: 0x1041 [0x1F] MOVE_ENTITY: Update entity position (mode=1)
  3: 0x1043 [0x6F] WAIT_FRAME_DELAY: Yield until WaitTime reaches zero
  4: 0x1044 [0x00] END_REQSTACK()
```

### Event 65535.5

#### Metadata

| Field        | Value    |
|--------------|----------|
| Entrypoint   | 0x1045   |
| Data Size    | 10 bytes |
| Instructions | 2        |

```
      00 01 02 03 04 05 06 07  08 09 0A 0B 0C 0D 0E 0F
      -- -- -- -- -- -- -- --  -- -- -- -- -- -- -- --
1040:                37 AC 80  AD 80 AE 80 AF 80 00          7......... 
```

#### Opcodes

```
  0: 0x1045 [0x37] UPDATE_EVENT_POSITION_AND_DIR: x=-176.574*, z=-143.396*, y=60.186*, direction=256.1°*
  1: 0x104E [0x00] END_REQSTACK()
```

### Event 65535.6

#### Metadata

| Field        | Value   |
|--------------|---------|
| Entrypoint   | 0x104F  |
| Data Size    | 7 bytes |
| Instructions | 3       |

```
      00 01 02 03 04 05 06 07  08 09 0A 0B 0C 0D 0E 0F
      -- -- -- -- -- -- -- --  -- -- -- -- -- -- -- --
1040:                                               AB                 .
1050: 03 AC 01 14 80 00                                 ......          
```

#### Opcodes

```
  0: 0x104F [0xAB] EventEntity->Render.Flags0 ^= 0x20000 // Toggle bit 17
  1: 0x1051 [0xAC] EventEntity->StatusEvent = 1*
  2: 0x1055 [0x00] END_REQSTACK()
```

### Event 65535.7

#### Metadata

| Field        | Value   |
|--------------|---------|
| Entrypoint   | 0x1056  |
| Data Size    | 7 bytes |
| Instructions | 3       |

```
      00 01 02 03 04 05 06 07  08 09 0A 0B 0C 0D 0E 0F
      -- -- -- -- -- -- -- --  -- -- -- -- -- -- -- --
1050:                   AC 01  0F 80 AB 04 00                 .......   
```

#### Opcodes

```
  0: 0x1056 [0xAC] EventEntity->StatusEvent = 0*
  1: 0x105A [0xAB] EventEntity->Render.Flags0 |= 0x40000 // Set bit 18
  2: 0x105C [0x00] END_REQSTACK()
```

### Event 65535.8

#### Metadata

| Field        | Value    |
|--------------|----------|
| Entrypoint   | 0x105D   |
| Data Size    | 24 bytes |
| Instructions | 4        |

```
      00 01 02 03 04 05 06 07  08 09 0A 0B 0C 0D 0E 0F
      -- -- -- -- -- -- -- --  -- -- -- -- -- -- -- --
1050:                                         03 22 00               .".
1060: 07 7F 1A 8D 10 66 23 00  F8 FF FF 7F F8 FF FF 7F  .....f#.........
1070: 74 6C 6B 30 00                                    tlk0.           
```

#### Opcodes

```
  0: 0x105D [0x03] ExtData[1]->WorkLocal[34] = Entity->Race
  1: 0x1062 [0x1A] CALL_SUBROUTINE(address=0x108D)
  2: 0x1065 [0x66] LOAD_EXT_SCHEDULER_MAIN: Load scheduler "tlk0" with entities [EventEntity, EventEntity], work=ExtData[1]->WorkLocal[35]
  3: 0x1074 [0x00] END_REQSTACK()
```

### Event 65535.9

#### Metadata

| Field        | Value      |
|--------------|------------|
| Entrypoint   | 0x1075     |
| Data Size    | 6232 bytes |
| Instructions | 12         |

```
      00 01 02 03 04 05 06 07  08 09 0A 0B 0C 0D 0E 0F
      -- -- -- -- -- -- -- --  -- -- -- -- -- -- -- --
1070:                03 22 00  07 7F 1A 8D 10 66 23 00       ."......f#.
1080: F8 FF FF 7F F8 FF FF 7F  74 6C 6B 31 00 03 23 00  ........tlk1..#.
1090: 22 00 02 23 00 17 80 05  A2 10 08 23 00 14 80 01  "..#.......#....
10A0: A7 10 08 23 00 18 80 14  23 00 29 80 07 23 00 20  ...#....#.)..#. 
10B0: 80 1B 03 23 00 22 00 02  23 00 17 80 05 C7 10 08  ...#."..#.......
10C0: 23 00 14 80 01 CC 10 08  23 00 18 80 14 23 00 29  #.......#....#.)
10D0: 80 07 23 00 B0 80 1B 03  23 00 22 00 02 23 00 17  ..#.....#."..#..
10E0: 80 05 EC 10 08 23 00 14  80 01 F1 10 08 23 00 18  .....#.......#..
10F0: 80 14 23 00 29 80 07 23  00 B1 80 1B 03 23 00 22  ..#.)..#.....#."
1100: 00 02 23 00 17 80 05 11  11 08 23 00 14 80 01 16  ..#.......#.....
1110: 11 08 23 00 18 80 14 23  00 29 80 07 23 00 B2 80  ..#....#.)..#...
1120: 1B 24 1B 80 14 80 0F 80  25 02 00 10 0F 80 00 37  .$......%......7
1130: 11 05 01 00 01 37 11 1B  79 00 F0 FF FF 7F F0 FF  .....7..y.......
1140: FF 7F 02 03 00 0F 80 80  FE 13 02 02 00 14 80 00  ................
1150: 55 11 01 EA 11 42 1A E0  25 66 21 80 F3 02 09 01  U....B..%f!.....
1160: F3 02 09 01 00 FE FE FE  5B B3 80 F1 02 09 01 F1  ........[.......
1170: 02 09 01 00 FE FE FE 62  14 80 F0 FF FF 7F F0 FF  .......b........
1180: FF 7F 00 FE FE FE 0F 80  62 18 80 F0 FF FF 7F F0  ........b.......
1190: FF FF 7F 00 FE FE FE 0F  80 62 2C 80 F0 02 09 01  .........b,.....
11A0: F0 02 09 01 00 FE FE FE  0F 80 62 2A 80 F1 02 09  ..........b*....
11B0: 01 F1 02 09 01 00 FE FE  FE 0F 80 45 B4 80 F0 FF  ...........E....
11C0: FF 7F F0 FF FF 7F 00 FE  FE FE 0F 80 45 1D 80 F0  ............E...
11D0: FF FF 7F F0 FF FF 7F 00  FE FE FE 0F 80 2C F0 02  .............,..
11E0: 09 01 F0 02 09 01 00 FE  FE FE 46 01 37 B5 80 B6  ..........F.7...
11F0: 80 B7 80 B8 80 45 B4 80  F0 FF FF 7F F0 FF FF 7F  .....E..........
1200: 73 67 30 77 0F 80 1A BF  25 32 2B 80 7B F0 FF FF  sg0w....%2+.{...
1210: 7F 1F 00 B9 80 BA 80 BB  80 1F 01 6F 4B F0 FF FF  ...........oK...
1220: 7F BC 80 6F 70 62 14 80  F0 FF FF 7F F0 FF FF 7F  ...opb..........
1230: 6D 61 69 6E 0F 80 1C 38  80 1A 22 26 02 02 00 14  main...8.."&....
1240: 80 00 47 12 01 FB 13 66  21 80 F3 02 09 01 F3 02  ..G....f!.......
1250: 09 01 62 74 6C 30 45 B4  80 F0 FF FF 7F F0 FF FF  ..btl0E.........
1260: 7F 73 67 30 31 0F 80 45  1D 80 F0 FF FF 7F F0 FF  .sg01..E........
1270: FF 7F 66 64 69 31 0F 80  55 B4 80 F0 FF FF 7F F0  ..fdi1..U.......
1280: FF FF 7F 73 67 30 31 1A  E0 25 45 B4 80 F0 FF FF  ...sg01..%E.....
1290: 7F F0 FF FF 7F 73 67 30  32 0F 80 1A BF 25 2B F0  .....sg02....%+.
12A0: 02 09 01 BD 80 23 2B F0  02 09 01 BE 80 23 55 B4  .....#+......#U.
12B0: 80 F0 FF FF 7F F0 FF FF  7F 73 67 30 32 45 B4 80  .........sg02E..
12C0: F0 FF FF 7F F0 FF FF 7F  73 67 30 33 0F 80 2B F0  ........sg03..+.
12D0: 02 09 01 BF 80 23 2B F0  02 09 01 C0 80 23 55 B4  .....#+......#U.
12E0: 80 F0 FF FF 7F F0 FF FF  7F 73 67 30 33 2C F0 02  .........sg03,..
12F0: 09 01 F0 02 09 01 63 61  73 74 62 2C 80 F0 02 09  ......castb,....
1300: 01 F0 02 09 01 6D 61 69  6E 0F 80 45 B4 80 F0 FF  .....main..E....
1310: FF 7F F0 FF FF 7F 73 67  30 34 0F 80 2B F0 02 09  ......sg04..+...
1320: 01 C1 80 23 55 B4 80 F0  FF FF 7F F0 FF FF 7F 73  ...#U..........s
1330: 67 30 34 2C F0 02 09 01  F0 02 09 01 70 6F 70 30  g04,........pop0
1340: 27 10 F1 02 09 01 03 45  B4 80 F0 FF FF 7F F0 FF  '......E........
1350: FF 7F 73 67 30 35 0F 80  62 2A 80 F1 02 09 01 F1  ..sg05..b*......
1360: 02 09 01 6D 61 69 6E 0F  80 55 B4 80 F0 FF FF 7F  ...main..U......
1370: F0 FF FF 7F 73 67 30 35  1A E0 25 45 B4 80 F0 FF  ....sg05..%E....
1380: FF 7F F0 FF FF 7F 73 67  30 36 0F 80 1A BF 25 2B  ......sg06....%+
1390: F3 02 09 01 C2 80 23 2B  F3 02 09 01 C3 80 23 55  ......#+......#U
13A0: B4 80 F0 FF FF 7F F0 FF  FF 7F 73 67 30 36 45 1D  ..........sg06E.
13B0: 80 F0 FF FF 7F F0 FF FF  7F 62 6C 6F 6E 0F 80 45  .........blon..E
13C0: B4 80 F0 FF FF 7F F0 FF  FF 7F 73 67 30 37 0F 80  ..........sg07..
13D0: 29 10 F4 02 09 01 03 27  10 F3 02 09 01 03 1C C4  )......'........
13E0: 80 1A 22 26 2A 10 F3 02  09 01 45 1D 80 F0 FF FF  .."&*.....E.....
13F0: 7F F0 FF FF 7F 62 6C 6F  66 0F 80 01 3A 15 02 03  .....blof...:...
1400: 00 19 80 80 67 14 42 46  01 37 B5 80 B6 80 B7 80  ....g.BF.7......
1410: B8 80 45 B4 80 F0 FF FF  7F F0 FF FF 7F 73 67 30  ..E..........sg0
1420: 77 0F 80 1A BF 25 32 2B  80 7B F0 FF FF 7F 1F 00  w....%2+.{......
1430: B9 80 BA 80 BB 80 1F 01  6F 4B F0 FF FF 7F BC 80  ........oK......
1440: 6F 70 62 14 80 F0 FF FF  7F F0 FF FF 7F 6D 61 69  opb..........mai
1450: 6E 0F 80 1C 38 80 1A 22  26 2B FF 02 09 01 C5 80  n...8.."&+......
1460: 23 48 C6 80 01 3A 15 02  03 00 1A 80 80 75 14 1A  #H...:.......u..
1470: F6 15 01 3A 15 02 03 00  2F 80 80 E7 14 42 46 01  ...:..../....BF.
1480: 37 B5 80 B6 80 B7 80 B8  80 45 B4 80 F0 FF FF 7F  7........E......
1490: F0 FF FF 7F 73 67 30 77  0F 80 1A BF 25 32 2B 80  ....sg0w....%2+.
14A0: 7B F0 FF FF 7F 1F 00 B9  80 BA 80 BB 80 1F 01 6F  {..............o
14B0: 4B F0 FF FF 7F BC 80 6F  70 62 14 80 F0 FF FF 7F  K......opb......
14C0: F0 FF FF 7F 6D 61 69 6E  0F 80 1C 38 80 1A 22 26  ....main...8.."&
14D0: 62 18 80 F0 FF FF 7F F0  FF FF 7F 6D 61 69 6E 0F  b..........main.
14E0: 80 1A B7 17 01 3A 15 42  46 01 37 B5 80 B6 80 B7  .....:.BF.7.....
14F0: 80 B8 80 45 B4 80 F0 FF  FF 7F F0 FF FF 7F 73 67  ...E..........sg
1500: 30 77 0F 80 1A BF 25 32  2B 80 7B F0 FF FF 7F 1F  0w....%2+.{.....
1510: 00 B9 80 BA 80 BB 80 1F  01 6F 4B F0 FF FF 7F BC  .........oK.....
1520: 80 6F 70 62 14 80 F0 FF  FF 7F F0 FF FF 7F 6D 61  .opb..........ma
1530: 69 6E 0F 80 1C 38 80 1A  22 26 02 00 00 14 80 80  in...8.."&......
1540: 71 15 37 C7 80 C8 80 C9  80 29 80 45 B4 80 F0 FF  q.7......).E....
1550: FF 7F F0 FF FF 7F 73 67  30 61 0F 80 1A FC 26 55  ......sg0a....&U
1560: B4 80 F0 FF FF 7F F0 FF  FF 7F 73 67 30 61 01 F3  ..........sg0a..
1570: 15 02 00 00 18 80 80 A8  15 37 CA 80 CB 80 CC 80  .........7......
1580: CD 80 45 B4 80 F0 FF FF  7F F0 FF FF 7F 73 67 30  ..E..........sg0
1590: 62 0F 80 1A FC 26 55 B4  80 F0 FF FF 7F F0 FF FF  b....&U.........
15A0: 7F 73 67 30 62 01 F3 15  02 00 00 19 80 80 DF 15  .sg0b...........
15B0: 37 CE 80 CF 80 D0 80 D1  80 45 B4 80 F0 FF FF 7F  7........E......
15C0: F0 FF FF 7F 73 67 30 63  0F 80 1A FC 26 55 B4 80  ....sg0c....&U..
15D0: F0 FF FF 7F F0 FF FF 7F  73 67 30 63 01 F3 15 02  ........sg0c....
15E0: 00 00 1A 80 80 F3 15 37  0F 80 0F 80 0F 80 0F 80  .......7........
15F0: 01 F3 15 46 00 1B 42 46  01 37 B5 80 B6 80 B7 80  ...F..BF.7......
1600: B8 80 45 B4 80 F0 FF FF  7F F0 FF FF 7F 73 67 30  ..E..........sg0
1610: 77 0F 80 1A BF 25 32 2B  80 7B F0 FF FF 7F 1F 00  w....%2+.{......
1620: B9 80 BA 80 BB 80 1F 01  6F 4B F0 FF FF 7F BC 80  ........oK......
1630: 6F 70 62 14 80 F0 FF FF  7F F0 FF FF 7F 6D 61 69  opb..........mai
1640: 6E 0F 80 1C 38 80 1A 22  26 02 02 00 14 80 00 54  n...8.."&......T
1650: 16 01 B6 17 4E 01 F3 02  09 01 2F 01 F3 02 09 01  ....N...../.....
1660: 4E 01 F0 02 09 01 2F 01  F0 02 09 01 29 10 02 03  N...../.....)...
1670: 09 01 02 29 10 03 03 09  01 02 29 10 04 03 09 01  ...)......).....
1680: 02 29 10 01 03 09 01 04  27 10 02 03 09 01 0A 27  .)......'......'
1690: 10 03 03 09 01 0A 27 10  04 03 09 01 0A 29 10 01  ......'......)..
16A0: 03 09 01 0A 80 01 03 09  01 1C 10 80 45 D2 80 F0  ............E...
16B0: FF FF 7F F0 FF FF 7F 61  70 30 34 0F 80 9F 21 80  .......ap04...!.
16C0: 01 03 09 01 03 03 09 01  6D 61 69 6E 0F 80 45 1D  ........main..E.
16D0: 80 F0 FF FF 7F F0 FF FF  7F 66 64 69 31 0F 80 A2  .........fdi1...
16E0: 21 80 01 03 09 01 03 03  09 01 6D 61 69 6E 2B 03  !.........main+.
16F0: 03 09 01 D3 80 23 45 D2  80 F0 FF FF 7F F0 FF FF  .....#E.........
1700: 7F 61 70 30 35 0F 80 27  10 04 03 09 01 0B 2B 04  .ap05..'......+.
1710: 03 09 01 D4 80 23 2A 10  04 03 09 01 52 D2 80 F0  .....#*.....R...
1720: FF FF 7F F0 FF FF 7F 61  70 30 35 45 D2 80 F0 FF  .......ap05E....
1730: FF 7F F0 FF FF 7F 61 70  30 36 0F 80 27 10 02 03  ......ap06..'...
1740: 09 01 0B 2B 02 03 09 01  D5 80 23 2A 10 02 03 09  ...+......#*....
1750: 01 52 D2 80 F0 FF FF 7F  F0 FF FF 7F 61 70 30 36  .R..........ap06
1760: 45 D2 80 F0 FF FF 7F F0  FF FF 7F 61 70 30 37 0F  E..........ap07.
1770: 80 2B 04 03 09 01 D6 80  23 52 D2 80 F0 FF FF 7F  .+......#R......
1780: F0 FF FF 7F 61 70 30 37  45 D2 80 F0 FF FF 7F F0  ....ap07E.......
1790: FF FF 7F 61 70 30 38 0F  80 2B 03 03 09 01 D7 80  ...ap08..+......
17A0: 23 1A 22 26 1C D8 80 52  D2 80 F0 FF FF 7F F0 FF  #."&...R........
17B0: FF 7F 61 70 30 38 1B 4E  01 F3 02 09 01 2F 01 F3  ..ap08.N...../..
17C0: 02 09 01 4E 01 F0 02 09  01 2F 01 F0 02 09 01 97  ...N...../......
17D0: 0F 80 14 80 37 D9 80 DA  80 02 80 DB 80 38 1E 80  ....7........8..
17E0: 92 01 08 03 09 01 2F 00  08 03 09 01 4E 00 08 03  ....../.....N...
17F0: 09 01 22 00 94 01 08 03  09 01 BA 08 03 09 01 DC  ..".............
1800: 80 DD 80 DE 80 DF 80 80  08 03 09 01 80 F0 FF FF  ................
1810: 7F 4A 08 03 09 01 F0 FF  FF 7F 1E 08 03 09 01 1C  .J..............
1820: 38 80 45 E0 80 F0 FF FF  7F F0 FF FF 7F 73 31 34  8.E..........s14
1830: 37 0F 80 1A 01 26 2B 08  03 09 01 E1 80 23 52 E0  7....&+......#R.
1840: 80 F0 FF FF 7F F0 FF FF  7F 73 31 34 37 45 E0 80  .........s147E..
1850: F0 FF FF 7F F0 FF FF 7F  73 31 34 38 0F 80 66 E2  ........s148..f.
1860: 80 08 03 09 01 08 03 09  01 6D 6E 6B 30 CD E3 80  .........mnk0...
1870: 08 03 09 01 08 03 09 01  73 30 30 30 0F 80 1C 3F  ........s000...?
1880: 80 CD E3 80 08 03 09 01  08 03 09 01 73 74 6F 70  ............stop
1890: 0F 80 27 05 F0 FF FF 7F  0B 27 05 08 03 09 01 04  ..'......'......
18A0: 1C 3C 80 52 E0 80 F0 FF  FF 7F F0 FF FF 7F 73 31  .<.R..........s1
18B0: 34 38 45 E0 80 F0 FF FF  7F F0 FF FF 7F 73 31 34  48E..........s14
18C0: 39 0F 80 2B 08 03 09 01  E4 80 1C E5 80 45 43 80  9..+.........EC.
18D0: F0 FF FF 7F F0 FF FF 7F  77 68 6F 30 0F 80 55 43  ........who0..UC
18E0: 80 F0 FF FF 7F F0 FF FF  7F 77 68 6F 30 52 E0 80  .........who0R..
18F0: F0 FF FF 7F F0 FF FF 7F  73 31 34 39 1A 22 26 45  ........s149."&E
1900: 43 80 F0 FF FF 7F F0 FF  FF 7F 77 68 69 30 0F 80  C.........whi0..
1910: 27 05 F0 FF FF 7F 0C 1B  02 19 00 0F 80 80 D3 1D  '...............
1920: 5C 00 E6 80 5C 01 E6 80  5C 02 E6 80 5C 03 E6 80  \...\...\...\...
1930: 2C F1 02 09 01 F1 02 09  01 00 FE FE FE 2C F0 02  ,............,..
1940: 09 01 F0 02 09 01 00 FE  FE FE 2C F4 02 09 01 F4  ..........,.....
1950: 02 09 01 00 FE FE FE 45  B4 80 F0 FF FF 7F F0 FF  .......E........
1960: FF 7F 00 FE FE FE 0F 80  66 21 80 F4 02 09 01 F4  ........f!......
1970: 02 09 01 00 FE FE FE 5B  E7 80 F2 02 09 01 F2 02  .......[........
1980: 09 01 00 FE FE FE 5B E8  80 F2 02 09 01 F2 02 09  ......[.........
1990: 01 00 FE FE FE 4E 00 F0  02 09 01 4E 00 F1 02 09  .....N.....N....
19A0: 01 4E 00 F2 02 09 01 46  01 1C 14 80 2C F1 02 09  .N.....F....,...
19B0: 01 F1 02 09 01 63 6F 72  70 37 E9 80 EA 80 EB 80  .....corp7......
19C0: EC 80 45 B4 80 F0 FF FF  7F F0 FF FF 7F 73 67 30  ..E..........sg0
19D0: 38 0F 80 1A 01 26 2B F0  02 09 01 ED 80 23 1A E0  8....&+......#..
19E0: 25 45 B4 80 F0 FF FF 7F  F0 FF FF 7F 73 67 30 39  %E..........sg09
19F0: 0F 80 37 EE 80 EF 80 F0  80 F1 80 27 10 F2 02 09  ..7........'....
1A00: 01 02 1A BF 25 2A 10 F2  02 09 01 55 B4 80 F0 FF  ....%*.....U....
1A10: FF 7F F0 FF FF 7F 73 67  30 39 45 B4 80 F0 FF FF  ......sg09E.....
1A20: 7F F0 FF FF 7F 73 67 31  30 0F 80 5B E8 80 F2 02  .....sg10..[....
1A30: 09 01 F2 02 09 01 74 6C  62 32 2B F2 02 09 01 F2  ......tlb2+.....
1A40: 80 23 1A 22 26 45 B4 80  F0 FF FF 7F F0 FF FF 7F  .#."&E..........
1A50: 73 67 31 31 0F 80 27 10  F2 02 09 01 03 1A 01 26  sg11..'........&
1A60: 4A F0 FF FF 7F F2 02 09  01 2A 10 F2 02 09 01 1C  J........*......
1A70: 38 80 4A F2 02 09 01 F1  02 09 01 6F 76 F2 02 09  8.J........ov...
1A80: 01 1C 10 80 2B F2 02 09  01 F3 80 23 1C 29 80 27  ....+......#.).'
1A90: 10 F0 FF FF 7F 02 45 B4  80 F0 FF FF 7F F0 FF FF  ......E.........
1AA0: 7F 73 67 31 32 0F 80 4A  F2 02 09 01 F0 FF FF 7F  .sg12..J........
1AB0: 1C 10 80 2B F2 02 09 01  F4 80 23 7B F2 02 09 01  ...+......#{....
1AC0: 1C 10 80 81 00 F2 02 09  01 5B E7 80 F2 02 09 01  .........[......
1AD0: F2 02 09 01 74 68 6B 31  2B F2 02 09 01 F5 80 23  ....thk1+......#
1AE0: 2B F2 02 09 01 F6 80 23  53 F2 02 09 01 F2 02 09  +......#S.......
1AF0: 01 74 68 6B 31 45 B4 80  F0 FF FF 7F F0 FF FF 7F  .thk1E..........
1B00: 73 67 31 33 0F 80 5B E8  80 F2 02 09 01 F2 02 09  sg13..[.........
1B10: 01 74 68 6B 32 4A F0 FF  FF 7F F0 02 09 01 2B F0  .thk2J........+.
1B20: 02 09 01 F7 80 23 55 B4  80 F0 FF FF 7F F0 FF FF  .....#U.........
1B30: 7F 73 67 31 33 81 01 F2  02 09 01 27 10 F2 02 09  .sg13......'....
1B40: 01 05 2B F2 02 09 01 F8  80 23 2B F0 02 09 01 F9  ..+......#+.....
1B50: 80 23 45 B4 80 F0 FF FF  7F F0 FF FF 7F 73 67 30  .#E..........sg0
1B60: 32 0F 80 2B F0 02 09 01  FA 80 23 27 10 F2 02 09  2..+......#'....
1B70: 01 06 2B F0 02 09 01 FB  80 23 2B F0 02 09 01 FC  ..+......#+.....
1B80: 80 23 2C F0 02 09 01 F0  02 09 01 64 65 61 64 53  .#,........deadS
1B90: F0 02 09 01 F0 02 09 01  64 65 61 64 7B F2 02 09  ........dead{...
1BA0: 01 55 B4 80 F0 FF FF 7F  F0 FF FF 7F 73 67 30 32  .U..........sg02
1BB0: 45 B4 80 F0 FF FF 7F F0  FF FF 7F 73 67 31 34 0F  E..........sg14.
1BC0: 80 81 00 F2 02 09 01 5B  E7 80 F2 02 09 01 F2 02  .......[........
1BD0: 09 01 74 68 6B 31 2B F2  02 09 01 FD 80 23 81 01  ..thk1+......#..
1BE0: F2 02 09 01 5B E8 80 F2  02 09 01 F2 02 09 01 74  ....[..........t
1BF0: 68 6B 32 2B F2 02 09 01  FE 80 23 55 B4 80 F0 FF  hk2+......#U....
1C00: FF 7F F0 FF FF 7F 73 67  31 34 1A 22 26 1C 10 80  ......sg14."&...
1C10: 4E 00 F4 02 09 01 4E 01  F0 02 09 01 4E 01 F1 02  N.....N.....N...
1C20: 09 01 53 F2 02 09 01 F2  02 09 01 74 68 6B 32 2C  ..S........thk2,
1C30: F4 02 09 01 F4 02 09 01  63 6F 72 70 27 10 F2 02  ........corp'...
1C40: 09 01 04 27 10 F0 FF FF  7F 03 45 B4 80 F0 FF FF  ...'......E.....
