# Event 3008

## Metadata

| Field           | Value    |
|-----------------|----------|
| Event Index     | 10/26    |
| Offset          | 0x01FA   |
| Data Size       | 48 bytes |
| Calculated Size | 48 bytes |
| Instructions    | 12       |

```
      00 01 02 03 04 05 06 07  08 09 0A 0B 0C 0D 0E 0F
      -- -- -- -- -- -- -- --  -- -- -- -- -- -- -- --
01F0:                                1E F0 FF FF 7F 42            .....B
0200: 6F 70 66 00 80 F8 FF FF  7F F8 FF FF 7F 74 61 6C  opf..........tal
0210: 6B 1D 22 80 23 1D 23 80  23 66 00 80 F8 FF FF 7F  k.".#.#.#f......
0220: F8 FF FF 7F 74 6C 6B 31  21 00                    ....tlk1!.      
```

## Opcodes

```
  0: 0x01FA [0x1E] EventEntity looks at LocalPlayer and starts talking
  1: 0x01FF [0x42] SET_CLI_EVENT_CANCEL_DATA()
  2: 0x0200 [0x6F] WAIT_FRAME_DELAY: Yield until WaitTime reaches zero
  3: 0x0201 [0x70] WAIT_ENTITY_RENDER_FLAG: Wait while EventEntity->Render.Flags3 bit 2 is set (cancel turn if not)
  4: 0x0202 [0x66] LOAD_EXT_SCHEDULER_MAIN: Load scheduler "talk" with entities [EventEntity, EventEntity], work=60*
  5: 0x0211 [0x1D] PRINT_EVENT_MESSAGE(message_id=8024*)
    → "This isn't much of a surprise. It's so...normal.\u007F1\u0000\u0007"
  6: 0x0214 [0x23] WAIT_FOR_DIALOG_INTERACTION
  7: 0x0215 [0x1D] PRINT_EVENT_MESSAGE(message_id=8025*)
    → "Hey, this is kind of tasty!\u0007Too bad it's not what I'm looking for. You'll need to bring me something else, buddy.\u007F1\u0000\u0007"
  8: 0x0218 [0x23] WAIT_FOR_DIALOG_INTERACTION
  9: 0x0219 [0x66] LOAD_EXT_SCHEDULER_MAIN: Load scheduler "tlk1" with entities [EventEntity, EventEntity], work=60*
 10: 0x0228 [0x21] END_EVENT
 11: 0x0229 [0x00] END_REQSTACK()
```
