# Event 187

## Metadata

| Field           | Value    |
|-----------------|----------|
| Event Index     | 12/19    |
| Offset          | 0x00E2   |
| Data Size       | 33 bytes |
| Calculated Size | 33 bytes |
| Instructions    | 12       |

```
      00 01 02 03 04 05 06 07  08 09 0A 0B 0C 0D 0E 0F
      -- -- -- -- -- -- -- --  -- -- -- -- -- -- -- --
00E0:       1E F0 FF FF 7F 6F  70 29 08 30 20 0F 01 01    .....op).0 ...
00F0: 1D 09 80 23 1D 0A 80 23  29 08 30 20 0F 01 02 20  ...#...#).0 ... 
0100: 00 21 00                                          .!.             
```

## Opcodes

```
  0: 0x00E2 [0x1E] EventEntity looks at LocalPlayer and starts talking
  1: 0x00E7 [0x6F] WAIT_FRAME_DELAY: Yield until WaitTime reaches zero
  2: 0x00E8 [0x70] WAIT_ENTITY_RENDER_FLAG: Wait while EventEntity->Render.Flags3 bit 2 is set (cancel turn if not)
  3: 0x00E9 [0x29] REQ_SET_WAIT(priority=0x08, entity_id=Kinono (ID: 17768496/0x010F2030), tag_num=0x01)
  4: 0x00F0 [0x1D] PRINT_EVENT_MESSAGE(message_id=385*)
    → "U-um...I...um...I saw something the night the talisman was st-stolen.\u007F1\u0000\u0007"
  5: 0x00F3 [0x23] WAIT_FOR_DIALOG_INTERACTION
  6: 0x00F4 [0x1D] PRINT_EVENT_MESSAGE(message_id=386*)
    → "The central tower of the Horutoto Ruins was glue--glowing. Weren't the devices in that tower destroyed tewl--twenty years ago?\u007F1\u0000\u0007"
  7: 0x00F7 [0x23] WAIT_FOR_DIALOG_INTERACTION
  8: 0x00F8 [0x29] REQ_SET_WAIT(priority=0x08, entity_id=Kinono (ID: 17768496/0x010F2030), tag_num=0x02)
  9: 0x00FF [0x20] SET_CLI_EVENT_UC_FLAG: Unlock player control
 10: 0x0101 [0x21] END_EVENT
 11: 0x0102 [0x00] END_REQSTACK()
```
