# Event 360

## Metadata

| Field           | Value    |
|-----------------|----------|
| Event Index     | 18/19    |
| Offset          | 0x0188   |
| Data Size       | 33 bytes |
| Calculated Size | 33 bytes |
| Instructions    | 12       |

```
      00 01 02 03 04 05 06 07  08 09 0A 0B 0C 0D 0E 0F
      -- -- -- -- -- -- -- --  -- -- -- -- -- -- -- --
0180:                          1E F0 FF FF 7F 6F 70 29          .....op)
0190: 08 30 20 0F 01 01 1D 13  80 23 1D 14 80 23 29 08  .0 ......#...#).
01A0: 30 20 0F 01 02 20 00 21  00                       0 ... .!.       
```

## Opcodes

```
  0: 0x0188 [0x1E] EventEntity looks at LocalPlayer and starts talking
  1: 0x018D [0x6F] WAIT_FRAME_DELAY: Yield until WaitTime reaches zero
  2: 0x018E [0x70] WAIT_ENTITY_RENDER_FLAG: Wait while EventEntity->Render.Flags3 bit 2 is set (cancel turn if not)
  3: 0x018F [0x29] REQ_SET_WAIT(priority=0x08, entity_id=Kinono (ID: 17768496/0x010F2030), tag_num=0x01)
  4: 0x0196 [0x1D] PRINT_EVENT_MESSAGE(message_id=8439*)
    → "I h-heard that lots of Cord--Cardians went down to the lower levels of the H-horutoto Ruins' central tower.\u007F1\u0000\u0007"
  5: 0x0199 [0x23] WAIT_FOR_DIALOG_INTERACTION
  6: 0x019A [0x1D] PRINT_EVENT_MESSAGE(message_id=8440*)
    → "Isn't the r-reason Minister Ajido-Marujido was s-sent to the Dork--Dark Dungeon down there!?\u007F1\u0000\u0007"
  7: 0x019D [0x23] WAIT_FOR_DIALOG_INTERACTION
  8: 0x019E [0x29] REQ_SET_WAIT(priority=0x08, entity_id=Kinono (ID: 17768496/0x010F2030), tag_num=0x02)
  9: 0x01A5 [0x20] SET_CLI_EVENT_UC_FLAG: Unlock player control
 10: 0x01A7 [0x21] END_EVENT
 11: 0x01A8 [0x00] END_REQSTACK()
```
