# Event 67

## Metadata

| Field           | Value    |
|-----------------|----------|
| Event Index     | 8/19     |
| Offset          | 0x0056   |
| Data Size       | 39 bytes |
| Calculated Size | 39 bytes |
| Instructions    | 13       |

```
      00 01 02 03 04 05 06 07  08 09 0A 0B 0C 0D 0E 0F
      -- -- -- -- -- -- -- --  -- -- -- -- -- -- -- --
0050:                   86 00  F8 FF FF 7F 1E F0 FF FF        ..........
0060: 7F 6F 70 29 08 30 20 0F  01 01 1D 02 80 23 1D 03  .op).0 ......#..
0070: 80 23 29 08 30 20 0F 01  02 20 00 21 00           .#).0 ... .!.   
```

## Opcodes

```
  0: 0x0056 [0x86] EventEntity->Render.Flags3 = Flags3  // No change (flag=0)
  1: 0x005C [0x1E] EventEntity looks at LocalPlayer and starts talking
  2: 0x0061 [0x6F] WAIT_FRAME_DELAY: Yield until WaitTime reaches zero
  3: 0x0062 [0x70] WAIT_ENTITY_RENDER_FLAG: Wait while EventEntity->Render.Flags3 bit 2 is set (cancel turn if not)
  4: 0x0063 [0x29] REQ_SET_WAIT(priority=0x08, entity_id=Kinono (ID: 17768496/0x010F2030), tag_num=0x01)
  5: 0x006A [0x1D] PRINT_EVENT_MESSAGE(message_id=49*)
    → "Uh...um... My name is Kinono. This is my first week as a lady-in-waiting.\u007F1\u0000\u0007"
  6: 0x006D [0x23] WAIT_FOR_DIALOG_INTERACTION
  7: 0x006E [0x1D] PRINT_EVENT_MESSAGE(message_id=50*)
    → "I pledge my loyalty to the Sto--Star Sibyl.\u007F1\u0000\u0007"
  8: 0x0071 [0x23] WAIT_FOR_DIALOG_INTERACTION
  9: 0x0072 [0x29] REQ_SET_WAIT(priority=0x08, entity_id=Kinono (ID: 17768496/0x010F2030), tag_num=0x02)
 10: 0x0079 [0x20] SET_CLI_EVENT_UC_FLAG: Unlock player control
 11: 0x007B [0x21] END_EVENT
 12: 0x007C [0x00] END_REQSTACK()
```
