# 17735879 - Valentione Single

## Common Data

| Field            | Value                  |
|------------------|------------------------|
| Zone             | Bastok Mines (ID: 234) |
| Block Size       | 420 bytes              |
| Total Events     | 4                      |
| References Count | 24                     |

## List of Events

| Event ID              | Entrypoint   |   Size |   Instructions |
|-----------------------|--------------|--------|----------------|
| [65535](#event-65535) | 0x0000       |      1 |              1 |
| [271](#event-271)     | 0x0001       |     83 |             27 |
| [273](#event-273)     | 0x0054       |    138 |             37 |
| [272](#event-272)     | 0x00DE       |     67 |             19 |

## DAT References (imed_data)

|   Index | Hex Value   |   Dec Value |
|---------|-------------|-------------|
|       0 | 0x0000      |           0 |
|       1 | 0x30F0      |       12528 |
|       2 | 0x30F1      |       12529 |
|       3 | 0x0001      |           1 |
|       4 | 0x30F5      |       12533 |
|       5 | 0x30F6      |       12534 |
|       6 | 0x0002      |           2 |
|       7 | 0x30FA      |       12538 |
|       8 | 0x30FB      |       12539 |
|       9 | 0x0003      |           3 |
|      10 | 0x30FF      |       12543 |
|      11 | 0x3100      |       12544 |
|      12 | 0x30F3      |       12531 |
|      13 | 0x30F8      |       12536 |
|      14 | 0x30FD      |       12541 |
|      15 | 0x3102      |       12546 |
|      16 | 0x30F2      |       12530 |
|      17 | 0x30F7      |       12535 |
|      18 | 0x30FC      |       12540 |
|      19 | 0x3101      |       12545 |
|      20 | 0x30F4      |       12532 |
|      21 | 0x30F9      |       12537 |
|      22 | 0x30FE      |       12542 |
|      23 | 0x3103      |       12547 |

## String References

- **12528**: Hiya! I've been waiting for you, sugar! Going to find a real sweetheart for me, are you? Yay!
- **12529**: Listen closely, now! I liiike...[cheerful/cool-headed/honest/shy] [Hume/Elvaan/Tarutaru/Galkan] boys! Teeheehee! Here's a chocolate! Doesn't it look yummy? Good luck!
- **12530**: What's wrong, pumpernickel? Not having trouble, are we? I really want a man, so please hurry up!
- **12531**: Hm? Want something? You should go talk to a moogle!
- **12532**: Oh, I've been waiting! I wonder what it tastes like! I'll let you know what I think later. Thank you so much!
- **12533**: Why, hello! This looks like quite an exciting event, doesn't it? I hope I can also meet a nice guy.
- **12534**: [Cheerful/Cool-headed/Honest/Shy] [Hume/Elvaan/Tarutaru/Galkan] guys are just my type. Here's a chocolate. You have my support! I wish you the best of luck!
- **12535**: Hello! You seem to be working very hard. I'm really thankful! But you needn't rush around so fast. Take your time! I can wait if it makes the job easier for you!
- **12536**: Yes? You have a question? Oh, I'm sorry. I think you've got the wrong person, but don't worry about it!
- **12537**: Wow, you brought back a finished chocolate! Thank you so much! I wonder what it tastes like. Teeheehee, I can't wait to try it. I hope you meet someone special, too!
- **12538**: Aaah! Oh...hi! Um, today is...and I...well, that is... <sigh> I can't bring myself to say it!
- **12539**: Well, here goes nothing. I want [a cheerful/a cool-headed/an honest/a shy] [Hume/Elvaan/Tarutaru/Galkan] boyfriend! A-and here's a chocolate... Th-thank you! (I can't believe I just said that!)
- **12540**: Eep! Oh, y-you haven't brought a chocolate back yet? You really scared me, you know! Anyway, good luck!
- **12541**: Y-yes? What is it? I...um, I don't need anything...
- **12542**: What? Th-this...could it be? You got me a chocolate! I can't eat it here, though...that would be sooo embarrassing. But I will eat it later, so thank you!
- **12543**: Hello... I may not look like much, but I do hope to meet a nice guy...
- **12544**: I really like [cheerful/cool-headed/honest/shy] [Hume/Elvaan/Tarutaru/Galkan] men. Please take this chocolate. It may not be the best in the world, but I hope you can use it to find someone.
- **12545**: You're not finished with the chocolate yet, are you? I knew it would be hard to find someone for a girl like me...
- **12546**: What's the matter? I don't think there's anything I need...
- **12547**: I see you got a chocolate for me. I can't tell how good it will be until I taste it, but maybe there's hope for me after all. Thanks so much for helping me.

## Events

### Event 65535

#### Metadata

| Field        | Value   |
|--------------|---------|
| Entrypoint   | 0x0000  |
| Data Size    | 1 bytes |
| Instructions | 1       |

```
      00 01 02 03 04 05 06 07  08 09 0A 0B 0C 0D 0E 0F
      -- -- -- -- -- -- -- --  -- -- -- -- -- -- -- --
0000: 00                                                .               
```

#### Opcodes

```
  0: 0x0000 [0x00] END_REQSTACK()
```

### Event 271

#### Metadata

| Field        | Value    |
|--------------|----------|
| Entrypoint   | 0x0001   |
| Data Size    | 83 bytes |
| Instructions | 27       |

```
      00 01 02 03 04 05 06 07  08 09 0A 0B 0C 0D 0E 0F
      -- -- -- -- -- -- -- --  -- -- -- -- -- -- -- --
0000:    1E F0 FF FF 7F 02 03  10 00 80 80 19 00 1D 01   ...............
0010: 80 23 1D 02 80 23 01 52  00 02 03 10 03 80 80 2C  .#...#.R.......,
0020: 00 1D 04 80 23 1D 05 80  23 01 52 00 02 03 10 06  ....#...#.R.....
0030: 80 80 3F 00 1D 07 80 23  1D 08 80 23 01 52 00 02  ..?....#...#.R..
0040: 03 10 09 80 80 52 00 1D  0A 80 23 1D 0B 80 23 01  .....R....#...#.
0050: 52 00 21 00                                       R.!.            
```

#### Opcodes

```
  0: 0x0001 [0x1E] EventEntity looks at LocalPlayer and starts talking
  1: 0x0006 [0x02] IF !(Work_Zone[3] == 0*) GOTO 0x0019
  2: 0x000E [0x1D] PRINT_EVENT_MESSAGE(message_id=12528*)
    → "Hiya! I've been waiting for you, sugar! Going to find a real sweetheart for me, are you? Yay!"
  3: 0x0011 [0x23] WAIT_FOR_DIALOG_INTERACTION
  4: 0x0012 [0x1D] PRINT_EVENT_MESSAGE(message_id=12529*)
    → "Listen closely, now! I liiike...[cheerful/cool-headed/honest/shy] [Hume/Elvaan/Tarutaru/Galkan] boys! Teeheehee! Here's a chocolate! Doesn't it look yummy? Good luck!"
  5: 0x0015 [0x23] WAIT_FOR_DIALOG_INTERACTION
  6: 0x0016 [0x01] GOTO 0x0052
  7: 0x0019 [0x02] IF !(Work_Zone[3] == 1*) GOTO 0x002C
  8: 0x0021 [0x1D] PRINT_EVENT_MESSAGE(message_id=12533*)
    → "Why, hello! This looks like quite an exciting event, doesn't it? I hope I can also meet a nice guy."
  9: 0x0024 [0x23] WAIT_FOR_DIALOG_INTERACTION
 10: 0x0025 [0x1D] PRINT_EVENT_MESSAGE(message_id=12534*)
    → "[Cheerful/Cool-headed/Honest/Shy] [Hume/Elvaan/Tarutaru/Galkan] guys are just my type. Here's a chocolate. You have my support! I wish you the best of luck!"
 11: 0x0028 [0x23] WAIT_FOR_DIALOG_INTERACTION
 12: 0x0029 [0x01] GOTO 0x0052
 13: 0x002C [0x02] IF !(Work_Zone[3] == 2*) GOTO 0x003F
 14: 0x0034 [0x1D] PRINT_EVENT_MESSAGE(message_id=12538*)
    → "Aaah! Oh...hi! Um, today is...and I...well, that is... <sigh> I can't bring myself to say it!"
 15: 0x0037 [0x23] WAIT_FOR_DIALOG_INTERACTION
 16: 0x0038 [0x1D] PRINT_EVENT_MESSAGE(message_id=12539*)
    → "Well, here goes nothing. I want [a cheerful/a cool-headed/an honest/a shy] [Hume/Elvaan/Tarutaru/Galkan] boyfriend! A-and here's a chocolate... Th-thank you! (I can't believe I just said that!)"
 17: 0x003B [0x23] WAIT_FOR_DIALOG_INTERACTION
 18: 0x003C [0x01] GOTO 0x0052
 19: 0x003F [0x02] IF !(Work_Zone[3] == 3*) GOTO 0x0052
 20: 0x0047 [0x1D] PRINT_EVENT_MESSAGE(message_id=12543*)
    → "Hello... I may not look like much, but I do hope to meet a nice guy..."
 21: 0x004A [0x23] WAIT_FOR_DIALOG_INTERACTION
 22: 0x004B [0x1D] PRINT_EVENT_MESSAGE(message_id=12544*)
    → "I really like [cheerful/cool-headed/honest/shy] [Hume/Elvaan/Tarutaru/Galkan] men. Please take this chocolate. It may not be the best in the world, but I hope you can use it to find someone."
 23: 0x004E [0x23] WAIT_FOR_DIALOG_INTERACTION
 24: 0x004F [0x01] GOTO 0x0052

SUBROUTINE_0052:
 25: 0x0052 [0x21] END_EVENT
 26: 0x0053 [0x00] END_REQSTACK()
```

### Event 273

#### Metadata

| Field        | Value     |
|--------------|-----------|
| Entrypoint   | 0x0054    |
| Data Size    | 138 bytes |
| Instructions | 37        |

```
      00 01 02 03 04 05 06 07  08 09 0A 0B 0C 0D 0E 0F
      -- -- -- -- -- -- -- --  -- -- -- -- -- -- -- --
0050:             1E F0 FF FF  7F 02 02 10 00 80 00 A0      ............
0060: 00 02 03 10 00 80 80 70  00 1D 0C 80 23 01 9D 00  .......p....#...
0070: 02 03 10 03 80 80 7F 00  1D 0D 80 23 01 9D 00 02  ...........#....
0080: 03 10 06 80 80 8E 00 1D  0E 80 23 01 9D 00 02 03  ..........#.....
0090: 10 09 80 80 9D 00 1D 0F  80 23 01 9D 00 01 DC 00  .........#......
00A0: 02 03 10 00 80 80 AF 00  1D 10 80 23 01 DC 00 02  ...........#....
00B0: 03 10 03 80 80 BE 00 1D  11 80 23 01 DC 00 02 03  ..........#.....
00C0: 10 06 80 80 CD 00 1D 12  80 23 01 DC 00 02 03 10  .........#......
00D0: 09 80 80 DC 00 1D 13 80  23 01 DC 00 21 00        ........#...!.  
```

#### Opcodes

```
  0: 0x0054 [0x1E] EventEntity looks at LocalPlayer and starts talking
  1: 0x0059 [0x02] IF !(Work_Zone[2] == 0*) GOTO 0x00A0
  2: 0x0061 [0x02] IF !(Work_Zone[3] == 0*) GOTO 0x0070
  3: 0x0069 [0x1D] PRINT_EVENT_MESSAGE(message_id=12531*)
    → "Hm? Want something? You should go talk to a moogle!"
  4: 0x006C [0x23] WAIT_FOR_DIALOG_INTERACTION
  5: 0x006D [0x01] GOTO 0x009D
  6: 0x0070 [0x02] IF !(Work_Zone[3] == 1*) GOTO 0x007F
  7: 0x0078 [0x1D] PRINT_EVENT_MESSAGE(message_id=12536*)
    → "Yes? You have a question? Oh, I'm sorry. I think you've got the wrong person, but don't worry about it!"
  8: 0x007B [0x23] WAIT_FOR_DIALOG_INTERACTION
  9: 0x007C [0x01] GOTO 0x009D
 10: 0x007F [0x02] IF !(Work_Zone[3] == 2*) GOTO 0x008E
 11: 0x0087 [0x1D] PRINT_EVENT_MESSAGE(message_id=12541*)
    → "Y-yes? What is it? I...um, I don't need anything..."
 12: 0x008A [0x23] WAIT_FOR_DIALOG_INTERACTION
 13: 0x008B [0x01] GOTO 0x009D
 14: 0x008E [0x02] IF !(Work_Zone[3] == 3*) GOTO 0x009D
 15: 0x0096 [0x1D] PRINT_EVENT_MESSAGE(message_id=12546*)
    → "What's the matter? I don't think there's anything I need..."
 16: 0x0099 [0x23] WAIT_FOR_DIALOG_INTERACTION
 17: 0x009A [0x01] GOTO 0x009D

SUBROUTINE_009D:
 18: 0x009D [0x01] GOTO 0x00DC
 19: 0x00A0 [0x02] IF !(Work_Zone[3] == 0*) GOTO 0x00AF
 20: 0x00A8 [0x1D] PRINT_EVENT_MESSAGE(message_id=12530*)
    → "What's wrong, pumpernickel? Not having trouble, are we? I really want a man, so please hurry up!"
 21: 0x00AB [0x23] WAIT_FOR_DIALOG_INTERACTION
 22: 0x00AC [0x01] GOTO 0x00DC
 23: 0x00AF [0x02] IF !(Work_Zone[3] == 1*) GOTO 0x00BE
 24: 0x00B7 [0x1D] PRINT_EVENT_MESSAGE(message_id=12535*)
    → "Hello! You seem to be working very hard. I'm really thankful! But you needn't rush around so fast. Take your time! I can wait if it makes the job easier for you!"
 25: 0x00BA [0x23] WAIT_FOR_DIALOG_INTERACTION
 26: 0x00BB [0x01] GOTO 0x00DC
 27: 0x00BE [0x02] IF !(Work_Zone[3] == 2*) GOTO 0x00CD
 28: 0x00C6 [0x1D] PRINT_EVENT_MESSAGE(message_id=12540*)
    → "Eep! Oh, y-you haven't brought a chocolate back yet? You really scared me, you know! Anyway, good luck!"
 29: 0x00C9 [0x23] WAIT_FOR_DIALOG_INTERACTION
 30: 0x00CA [0x01] GOTO 0x00DC
 31: 0x00CD [0x02] IF !(Work_Zone[3] == 3*) GOTO 0x00DC
 32: 0x00D5 [0x1D] PRINT_EVENT_MESSAGE(message_id=12545*)
    → "You're not finished with the chocolate yet, are you? I knew it would be hard to find someone for a girl like me..."
 33: 0x00D8 [0x23] WAIT_FOR_DIALOG_INTERACTION
 34: 0x00D9 [0x01] GOTO 0x00DC

SUBROUTINE_00DC:
 35: 0x00DC [0x21] END_EVENT
 36: 0x00DD [0x00] END_REQSTACK()
```

### Event 272

#### Metadata

| Field        | Value    |
|--------------|----------|
| Entrypoint   | 0x00DE   |
| Data Size    | 67 bytes |
| Instructions | 19       |

```
      00 01 02 03 04 05 06 07  08 09 0A 0B 0C 0D 0E 0F
      -- -- -- -- -- -- -- --  -- -- -- -- -- -- -- --
00D0:                                            1E F0                ..
00E0: FF FF 7F 02 03 10 00 80  80 F2 00 1D 14 80 23 01  ..............#.
00F0: 1F 01 02 03 10 03 80 80  01 01 1D 15 80 23 01 1F  .............#..
0100: 01 02 03 10 06 80 80 10  01 1D 16 80 23 01 1F 01  ............#...
0110: 02 03 10 09 80 80 1F 01  1D 17 80 23 01 1F 01 21  ...........#...!
0120: 00                                                .               
```

#### Opcodes

```
  0: 0x00DE [0x1E] EventEntity looks at LocalPlayer and starts talking
  1: 0x00E3 [0x02] IF !(Work_Zone[3] == 0*) GOTO 0x00F2
  2: 0x00EB [0x1D] PRINT_EVENT_MESSAGE(message_id=12532*)
    → "Oh, I've been waiting! I wonder what it tastes like! I'll let you know what I think later. Thank you so much!"
  3: 0x00EE [0x23] WAIT_FOR_DIALOG_INTERACTION
  4: 0x00EF [0x01] GOTO 0x011F
  5: 0x00F2 [0x02] IF !(Work_Zone[3] == 1*) GOTO 0x0101
  6: 0x00FA [0x1D] PRINT_EVENT_MESSAGE(message_id=12537*)
    → "Wow, you brought back a finished chocolate! Thank you so much! I wonder what it tastes like. Teeheehee, I can't wait to try it. I hope you meet someone special, too!"
  7: 0x00FD [0x23] WAIT_FOR_DIALOG_INTERACTION
  8: 0x00FE [0x01] GOTO 0x011F
  9: 0x0101 [0x02] IF !(Work_Zone[3] == 2*) GOTO 0x0110
 10: 0x0109 [0x1D] PRINT_EVENT_MESSAGE(message_id=12542*)
    → "What? Th-this...could it be? You got me a chocolate! I can't eat it here, though...that would be sooo embarrassing. But I will eat it later, so thank you!"
 11: 0x010C [0x23] WAIT_FOR_DIALOG_INTERACTION
 12: 0x010D [0x01] GOTO 0x011F
 13: 0x0110 [0x02] IF !(Work_Zone[3] == 3*) GOTO 0x011F
 14: 0x0118 [0x1D] PRINT_EVENT_MESSAGE(message_id=12547*)
    → "I see you got a chocolate for me. I can't tell how good it will be until I taste it, but maybe there's hope for me after all. Thanks so much for helping me."
 15: 0x011B [0x23] WAIT_FOR_DIALOG_INTERACTION
 16: 0x011C [0x01] GOTO 0x011F

SUBROUTINE_011F:
 17: 0x011F [0x21] END_EVENT
 18: 0x0120 [0x00] END_REQSTACK()
```
