# 17735691 - Mydon

## Common Data

| Field            | Value                  |
|------------------|------------------------|
| Zone             | Bastok Mines (ID: 234) |
| Block Size       | 232 bytes              |
| Total Events     | 6                      |
| References Count | 21                     |

## List of Events

| Event ID                 | Entrypoint   |   Size |   Instructions |
|--------------------------|--------------|--------|----------------|
| [65535](#event-65535)    | 0x0000       |      1 |              1 |
| [1](#event-1)            | 0x0001       |     33 |              7 |
| [20](#event-20)          | 0x0022       |     30 |              8 |
| [176](#event-176)        | 0x0040       |     20 |              3 |
| [65535.1](#event-655351) | 0x0054       |     20 |              6 |
| [673](#event-673)        | 0x0068       |      1 |              1 |

## DAT References (imed_data)

|   Index | Hex Value   |   Dec Value |
|---------|-------------|-------------|
|       0 | 0xFFFFE211  |  4294959633 |
|       1 | 0xFFFE86FD  |  4294870781 |
|       2 | 0x0000      |           0 |
|       3 | 0x0920      |        2336 |
|       4 | 0x000D      |          13 |
|       5 | 0xFFFF7C20  |  4294933536 |
|       6 | 0xFFFE411B  |  4294852891 |
|       7 | 0xFFFFFC18  |  4294966296 |
|       8 | 0xFFFF8FD5  |  4294938581 |
|       9 | 0xFFFE2B3D  |  4294847293 |
|      10 | 0x292E      |       10542 |
|      11 | 0x0005      |           5 |
|      12 | 0x292F      |       10543 |
|      13 | 0xFFFD8FC2  |  4294807490 |
|      14 | 0xFFFF808F  |  4294934671 |
|      15 | 0xFFFFFB15  |  4294966037 |
|      16 | 0x0228      |         552 |
|      17 | 0x0028      |          40 |
|      18 | 0xFFFD8400  |  4294804480 |
|      19 | 0xFFFF91C1  |  4294939073 |
|      20 | 0xFFFFF545  |  4294964549 |

## String References

- **10542**: Hmm? You the new miner? Nah, you look like an adventurer. Here to pound some monsters into pudding, are you?
- **10543**: Just don't cause any trouble, all right? We've got enough to worry about with these Galka. Only thing their long lives have given them are hard heads. Eesh.

## Events

### Event 65535

#### Metadata

| Field        | Value   |
|--------------|---------|
| Entrypoint   | 0x0000  |
| Data Size    | 1 bytes |
| Instructions | 1       |

```
      00 01 02 03 04 05 06 07  08 09 0A 0B 0C 0D 0E 0F
      -- -- -- -- -- -- -- --  -- -- -- -- -- -- -- --
0000: 00                                                .               
```

#### Opcodes

```
  0: 0x0000 [0x00] END_REQSTACK()
```

### Event 1

#### Metadata

| Field        | Value    |
|--------------|----------|
| Entrypoint   | 0x0001   |
| Data Size    | 33 bytes |
| Instructions | 7        |

```
      00 01 02 03 04 05 06 07  08 09 0A 0B 0C 0D 0E 0F
      -- -- -- -- -- -- -- --  -- -- -- -- -- -- -- --
0000:    37 00 80 01 80 02 80  03 80 32 04 80 1F 00 05   7........2.....
0010: 80 06 80 07 80 1F 01 1F  00 08 80 09 80 07 80 1F  ................
0020: 01 00                                             ..              
```

#### Opcodes

```
  0: 0x0001 [0x37] UPDATE_EVENT_POSITION_AND_DIR: x=-7.663*, z=-96.515*, y=0.000*, direction=205.3°*
  1: 0x000A [0x32] ExtData[1]->MainSpeed = 13* * 0.1
  2: 0x000D [0x1F] MOVE_ENTITY: EventEntity moves to X=-33.760*, Z=-114.405*, Y=-1.000*
  3: 0x0015 [0x1F] MOVE_ENTITY: Update entity position (mode=1)
  4: 0x0017 [0x1F] MOVE_ENTITY: EventEntity moves to X=-28.715*, Z=-120.003*, Y=-1.000*
  5: 0x001F [0x1F] MOVE_ENTITY: Update entity position (mode=1)
  6: 0x0021 [0x00] END_REQSTACK()
```

### Event 20

#### Metadata

| Field        | Value    |
|--------------|----------|
| Entrypoint   | 0x0022   |
| Data Size    | 30 bytes |
| Instructions | 8        |

```
      00 01 02 03 04 05 06 07  08 09 0A 0B 0C 0D 0E 0F
      -- -- -- -- -- -- -- --  -- -- -- -- -- -- -- --
0020:       1E F0 FF FF 7F 1D  0A 80 23 5B 0B 80 F8 FF    ........#[....
0030: FF 7F F8 FF FF 7F 74 6C  6B 30 1D 0C 80 23 21 00  ......tlk0...#!.
```

#### Opcodes

```
  0: 0x0022 [0x1E] EventEntity looks at LocalPlayer and starts talking
  1: 0x0027 [0x1D] PRINT_EVENT_MESSAGE(message_id=10542*)
    → "Hmm? You the new miner? Nah, you look like an adventurer. Here to pound some monsters into pudding, are you?"
  2: 0x002A [0x23] WAIT_FOR_DIALOG_INTERACTION
  3: 0x002B [0x5B] LOAD_EXT_SCHEDULER: Load scheduler "tlk0" with entities [EventEntity, EventEntity], work=5*
  4: 0x003A [0x1D] PRINT_EVENT_MESSAGE(message_id=10543*)
    → "Just don't cause any trouble, all right? We've got enough to worry about with these Galka. Only thing their long lives have given them are hard heads. Eesh."
  5: 0x003D [0x23] WAIT_FOR_DIALOG_INTERACTION
  6: 0x003E [0x21] END_EVENT
  7: 0x003F [0x00] END_REQSTACK()
```

### Event 176

#### Metadata

| Field        | Value    |
|--------------|----------|
| Entrypoint   | 0x0040   |
| Data Size    | 20 bytes |
| Instructions | 3        |

```
      00 01 02 03 04 05 06 07  08 09 0A 0B 0C 0D 0E 0F
      -- -- -- -- -- -- -- --  -- -- -- -- -- -- -- --
0040: 37 0D 80 0E 80 0F 80 10  80 79 00 F8 FF FF 7F 03  7........y......
0050: A0 0E 01 00                                       ....            
```

#### Opcodes

```
  0: 0x0040 [0x37] UPDATE_EVENT_POSITION_AND_DIR: x=-159.806*, z=-32.625*, y=-1.259*, direction=48.5°*
  1: 0x0049 [0x79] EventEntity looks at Deidogg (ID: 17735683/0x010EA003) (Basic look)
  2: 0x0053 [0x00] END_REQSTACK()
```

### Event 65535.1

#### Metadata

| Field        | Value    |
|--------------|----------|
| Entrypoint   | 0x0054   |
| Data Size    | 20 bytes |
| Instructions | 6        |

```
      00 01 02 03 04 05 06 07  08 09 0A 0B 0C 0D 0E 0F
      -- -- -- -- -- -- -- --  -- -- -- -- -- -- -- --
0050:             32 11 80 1F  00 12 80 13 80 14 80 1F      2...........
0060: 01 6F 1E 04 A0 0E 01 00                           .o......        
```

#### Opcodes

```
  0: 0x0054 [0x32] ExtData[1]->MainSpeed = 40* * 0.1
  1: 0x0057 [0x1F] MOVE_ENTITY: EventEntity moves to X=-162.816*, Z=-28.223*, Y=-2.747*
  2: 0x005F [0x1F] MOVE_ENTITY: Update entity position (mode=1)
  3: 0x0061 [0x6F] WAIT_FRAME_DELAY: Yield until WaitTime reaches zero
  4: 0x0062 [0x1E] EventEntity looks at Gumbah (ID: 17735684/0x010EA004) and starts talking
  5: 0x0067 [0x00] END_REQSTACK()
```

### Event 673

#### Metadata

| Field        | Value   |
|--------------|---------|
| Entrypoint   | 0x0068  |
| Data Size    | 1 bytes |
| Instructions | 1       |

```
      00 01 02 03 04 05 06 07  08 09 0A 0B 0C 0D 0E 0F
      -- -- -- -- -- -- -- --  -- -- -- -- -- -- -- --
0060:                          00                               .       
```

#### Opcodes

```
  0: 0x0068 [0x00] END_REQSTACK()
```
