# 17735826

## Common Data

| Field            | Value                  |
|------------------|------------------------|
| Zone             | Bastok Mines (ID: 234) |
| Block Size       | 2872 bytes             |
| Total Events     | 59                     |
| References Count | 233                    |

## List of Events

| Event ID                   | Entrypoint   |   Size |   Instructions |
|----------------------------|--------------|--------|----------------|
| [65535](#event-65535)      | 0x0000       |      1 |              1 |
| [513](#event-513)          | 0x0001       |      1 |              1 |
| [509](#event-509)          | 0x0002       |      1 |              1 |
| [65535.1](#event-655351)   | 0x0003       |     11 |              3 |
| [65535.2](#event-655352)   | 0x000E       |     25 |              3 |
| [65535.3](#event-655353)   | 0x0027       |      5 |              2 |
| [65535.4](#event-655354)   | 0x002C       |     10 |              2 |
| [65535.5](#event-655355)   | 0x0036       |     81 |             16 |
| [65535.6](#event-655356)   | 0x0087       |     81 |             16 |
| [65535.7](#event-655357)   | 0x00D8       |     10 |              2 |
| [65535.8](#event-655358)   | 0x00E2       |     14 |              4 |
| [65535.9](#event-655359)   | 0x00F0       |     11 |              3 |
| [65535.10](#event-6553510) | 0x00FB       |     11 |              3 |
| [65535.11](#event-6553511) | 0x0106       |     11 |              3 |
| [65535.12](#event-6553512) | 0x0111       |     14 |              4 |
| [65535.13](#event-6553513) | 0x011F       |     10 |              2 |
| [65535.14](#event-6553514) | 0x0129       |     24 |              6 |
| [65535.15](#event-6553515) | 0x0141       |     14 |              4 |
| [65535.16](#event-6553516) | 0x014F       |     14 |              4 |
| [65535.17](#event-6553517) | 0x015D       |     10 |              2 |
| [65535.18](#event-6553518) | 0x0167       |     29 |              7 |
| [65535.19](#event-6553519) | 0x0184       |     15 |              3 |
| [65535.20](#event-6553520) | 0x0193       |     19 |              5 |
| [65535.21](#event-6553521) | 0x01A6       |     10 |              2 |
| [65535.22](#event-6553522) | 0x01B0       |     19 |              5 |
| [65535.23](#event-6553523) | 0x01C3       |     10 |              2 |
| [65535.24](#event-6553524) | 0x01CD       |    242 |             52 |
| [65535.25](#event-6553525) | 0x02BF       |     19 |              4 |
| [65535.26](#event-6553526) | 0x02D2       |     15 |              3 |
| [65535.27](#event-6553527) | 0x02E1       |     24 |              6 |
| [65535.28](#event-6553528) | 0x02F9       |     19 |              5 |
| [65535.29](#event-6553529) | 0x030C       |     15 |              3 |
| [65535.30](#event-6553530) | 0x031B       |     14 |              4 |
| [65535.31](#event-6553531) | 0x0329       |     19 |              5 |
| [65535.32](#event-6553532) | 0x033C       |     15 |              3 |
| [65535.33](#event-6553533) | 0x034B       |     14 |              4 |
| [65535.34](#event-6553534) | 0x0359       |     19 |              5 |
| [65535.35](#event-6553535) | 0x036C       |     10 |              2 |
| [65535.36](#event-6553536) | 0x0376       |     19 |              5 |
| [545](#event-545)          | 0x0389       |      1 |              1 |
| [65535.37](#event-6553537) | 0x038A       |     15 |              3 |
| [65535.38](#event-6553538) | 0x0399       |     48 |             11 |
| [65535.39](#event-6553539) | 0x03C9       |     48 |             11 |
| [65535.40](#event-6553540) | 0x03F9       |      6 |              2 |
| [65535.41](#event-6553541) | 0x03FF       |     15 |              3 |
| [65535.42](#event-6553542) | 0x040E       |     54 |             12 |
| [65535.43](#event-6553543) | 0x0444       |     66 |             16 |
| [65535.44](#event-6553544) | 0x0486       |     15 |              3 |
| [65535.45](#event-6553545) | 0x0495       |     73 |             17 |
| [65535.46](#event-6553546) | 0x04DE       |     50 |             12 |
| [65535.47](#event-6553547) | 0x0510       |     50 |             12 |
| [65535.48](#event-6553548) | 0x0542       |     67 |             15 |
| [65535.49](#event-6553549) | 0x0585       |     14 |              4 |
| [65535.50](#event-6553550) | 0x0593       |     51 |             11 |
| [65535.51](#event-6553551) | 0x05C6       |     14 |              4 |
| [65535.52](#event-6553552) | 0x05D4       |     51 |             11 |
| [65535.53](#event-6553553) | 0x0607       |     59 |             13 |
| [65535.54](#event-6553554) | 0x0642       |     69 |             15 |
| [65535.55](#event-6553555) | 0x0687       |     15 |              3 |

## DAT References (imed_data)

|   Index | Hex Value   |   Dec Value |
|---------|-------------|-------------|
|       0 | 0x0001      |           1 |
|       1 | 0x8519      |       34073 |
|       2 | 0xFFFE9CA8  |  4294876328 |
|       3 | 0x034F      |         847 |
|       4 | 0x03B4      |         948 |
|       5 | 0x0039      |          57 |
|       6 | 0x7D83      |       32131 |
|       7 | 0xFFFE8E29  |  4294872617 |
|       8 | 0x0367      |         871 |
|       9 | 0x68EC      |       26860 |
|      10 | 0xFFFE933F  |  4294873919 |
|      11 | 0x6F22      |       28450 |
|      12 | 0xFFFEA56E  |  4294878574 |
|      13 | 0x7D53      |       32083 |
|      14 | 0xFFFEA6A2  |  4294878882 |
|      15 | 0x0365      |         869 |
|      16 | 0x0000      |           0 |
|      17 | 0xD2C7      |       53959 |
|      18 | 0xFFFE8BFB  |  4294872059 |
|      19 | 0x07CF      |        1999 |
|      20 | 0xCD17      |       52503 |
|      21 | 0xFFFE8D9F  |  4294872479 |
|      22 | 0xC8E0      |       51424 |
|      23 | 0xFFFE8EFF  |  4294872831 |
|      24 | 0xC31C      |       49948 |
|      25 | 0xFFFE8FDE  |  4294873054 |
|      26 | 0xBE40      |       48704 |
|      27 | 0xFFFE900D  |  4294873101 |
|      28 | 0xC454      |       50260 |
|      29 | 0xFFFEA76D  |  4294879085 |
|      30 | 0xFFFFD07D  |  4294955133 |
|      31 | 0xFFFFCC9C  |  4294954140 |
|      32 | 0xFFFFFFD4  |  4294967252 |
|      33 | 0x07C0      |        1984 |
|      34 | 0xFFFFAA54  |  4294945364 |
|      35 | 0xFFFFCC0E  |  4294953998 |
|      36 | 0xFFFF9A14  |  4294941204 |
|      37 | 0xFFFFDD75  |  4294958453 |
|      38 | 0xFFFFA2B5  |  4294943413 |
|      39 | 0xFFFFCBD2  |  4294953938 |
|      40 | 0xA656E     |      681326 |
|      41 | 0x5630C     |      353036 |
|      42 | 0xFFFFFFF0  |  4294967280 |
|      43 | 0x0C09      |        3081 |
|      44 | 0x000A      |          10 |
|      45 | 0xA6542     |      681282 |
|      46 | 0x568EE     |      354542 |
|      47 | 0xA602A     |      679978 |
|      48 | 0x56A10     |      354832 |
|      49 | 0xFFFFFFFE  |  4294967294 |
|      50 | 0x1FCEF     |      130287 |
|      51 | 0x51C72     |      334962 |
|      52 | 0x0014      |          20 |
|      53 | 0x00C7      |         199 |
|      54 | 0x0013      |          19 |
|      55 | 0x20920     |      133408 |
|      56 | 0x51591     |      333201 |
|      57 | 0xFFFFFE20  |  4294966816 |
|      58 | 0xFFFD9990  |  4294810000 |
|      59 | 0xFFF57103  |  4294275331 |
|      60 | 0xFFFF0434  |  4294902836 |
|      61 | 0x0D81      |        3457 |
|      62 | 0xFFFDA052  |  4294811730 |
|      63 | 0xFFF57CD5  |  4294278357 |
|      64 | 0xFFFF056F  |  4294903151 |
|      65 | 0x165A9     |       91561 |
|      66 | 0xFFFED0A6  |  4294889638 |
|      67 | 0x0271      |         625 |
|      68 | 0x03D0      |         976 |
|      69 | 0x16835     |       92213 |
|      70 | 0xFFFEB877  |  4294883447 |
|      71 | 0x03E4      |         996 |
|      72 | 0x0005      |           5 |
|      73 | 0x0003      |           3 |
|      74 | 0x17F0A     |       98058 |
|      75 | 0xFFFEB027  |  4294881319 |
|      76 | 0x18AB1     |      101041 |
|      77 | 0xFFFEBDF6  |  4294884854 |
|      78 | 0x191D7     |      102871 |
|      79 | 0xFFFF13CA  |  4294906826 |
|      80 | 0x17BB9     |       97209 |
|      81 | 0xFFFF21FA  |  4294910458 |
|      82 | 0x16645     |       91717 |
|      83 | 0xFFFF1ED4  |  4294909652 |
|      84 | 0x15A9C     |       88732 |
|      85 | 0xFFFEFB03  |  4294900483 |
|      86 | 0x006A      |         106 |
|      87 | 0xFFFBB961  |  4294687073 |
|      88 | 0xFFFE8019  |  4294869017 |
|      89 | 0xFFFFD121  |  4294955297 |
|      90 | 0x0422      |        1058 |
|      91 | 0xA6F47     |      683847 |
|      92 | 0x57BB1     |      359345 |
|      93 | 0x0FB0      |        4016 |
|      94 | 0xA6832     |      682034 |
|      95 | 0x57A0B     |      358923 |
|      96 | 0xA6856     |      682070 |
|      97 | 0x57342     |      357186 |
|      98 | 0xA66FD     |      681725 |
|      99 | 0x57A6E     |      359022 |
|     100 | 0x23654     |      144980 |
|     101 | 0x536DA     |      341722 |
|     102 | 0xFFFFE8BA  |  4294961338 |
|     103 | 0x0D6D      |        3437 |
|     104 | 0x23A41     |      145985 |
|     105 | 0x51CF9     |      335097 |
|     106 | 0xFFFFECCE  |  4294962382 |
|     107 | 0x22DC9     |      142793 |
|     108 | 0x537AA     |      341930 |
|     109 | 0xFFFFE6EC  |  4294960876 |
|     110 | 0xFFFD3786  |  4294784902 |
|     111 | 0x6CF2F     |      446255 |
|     112 | 0x011F      |         287 |
|     113 | 0x0265      |         613 |
|     114 | 0xFFFD2E15  |  4294782485 |
|     115 | 0x6CA72     |      445042 |
|     116 | 0xFFFFFF58  |  4294967128 |
|     117 | 0xFFFD2BBC  |  4294781884 |
|     118 | 0x6D233     |      447027 |
|     119 | 0x0223      |         547 |
|     120 | 0xB31B      |       45851 |
|     121 | 0xFFFE6AED  |  4294863597 |
|     122 | 0x036A      |         874 |
|     123 | 0x027D      |         637 |
|     124 | 0xC47D      |       50301 |
|     125 | 0xFFFE5DE5  |  4294860261 |
|     126 | 0xFFF6C3EF  |  4294362095 |
|     127 | 0x93FF1     |      606193 |
|     128 | 0x00A7      |         167 |
|     129 | 0x0179      |         377 |
|     130 | 0x0002      |           2 |
|     131 | 0xFFF6C0EC  |  4294361324 |
|     132 | 0x945D1     |      607697 |
|     133 | 0x0004      |           4 |
|     134 | 0xFFF6B7E2  |  4294359010 |
|     135 | 0x94244     |      606788 |
|     136 | 0xFFFFFFC0  |  4294967232 |
|     137 | 0x003C      |          60 |
|     138 | 0xFFF6BED4  |  4294360788 |
|     139 | 0x946D6     |      607958 |
|     140 | 0xFFFFFFCF  |  4294967247 |
|     141 | 0xFFF6D7C0  |  4294367168 |
|     142 | 0x8EF6A     |      585578 |
|     143 | 0x0274      |         628 |
|     144 | 0x011C      |         284 |
|     145 | 0xFFF6D0CA  |  4294365386 |
|     146 | 0x8F7DF     |      587743 |
|     147 | 0x0112      |         274 |
|     148 | 0xFFF6D779  |  4294367097 |
|     149 | 0x8FCC2     |      588994 |
|     150 | 0x015B      |         347 |
|     151 | 0xFFF6DB55  |  4294368085 |
|     152 | 0x8F169     |      586089 |
|     153 | 0x024A      |         586 |
|     154 | 0xFFF6DAA1  |  4294367905 |
|     155 | 0x8E6CF     |      583375 |
|     156 | 0x033E      |         830 |
|     157 | 0x001E      |          30 |
|     158 | 0xFFF6D3B3  |  4294366131 |
|     159 | 0x8F340     |      586560 |
|     160 | 0x01D0      |         464 |
|     161 | 0x0101      |         257 |
|     162 | 0x0078      |         120 |
|     163 | 0xFFF6D069  |  4294365289 |
|     164 | 0x8F7F4     |      587764 |
|     165 | 0x010C      |         268 |
|     166 | 0xFFF6D763  |  4294367075 |
|     167 | 0x8FB0E     |      588558 |
|     168 | 0x0171      |         369 |
|     169 | 0xFFF6CFE0  |  4294365152 |
|     170 | 0x8F449     |      586825 |
|     171 | 0x0178      |         376 |
|     172 | 0x0862      |        2146 |
|     173 | 0xFFF6D8AC  |  4294367404 |
|     174 | 0x8FABD     |      588477 |
|     175 | 0x0175      |         373 |
|     176 | 0xFFF6DB01  |  4294368001 |
|     177 | 0x90356     |      590678 |
|     178 | 0x0108      |         264 |
|     179 | 0x03BF      |         959 |
|     180 | 0xFFF6C73F  |  4294362943 |
|     181 | 0x8F234     |      586292 |
|     182 | 0x008A      |         138 |
|     183 | 0x0025      |          37 |
|     184 | 0x00F0      |         240 |
|     185 | 0xFFF6D6F8  |  4294366968 |
|     186 | 0x8E30A     |      582410 |
|     187 | 0x0322      |         802 |
|     188 | 0x0BD3      |        3027 |
|     189 | 0xFFF6DB94  |  4294368148 |
|     190 | 0x8FCF3     |      589043 |
|     191 | 0x0159      |         345 |
|     192 | 0xFFF6C79F  |  4294363039 |
|     193 | 0x8F34D     |      586573 |
|     194 | 0xFFF6CB4A  |  4294363978 |
|     195 | 0x8FAEF     |      588527 |
|     196 | 0x00C4      |         196 |
|     197 | 0xFFF6D269  |  4294365801 |
|     198 | 0x8F138     |      586040 |
|     199 | 0x01F0      |         496 |
|     200 | 0xFFF6D2EF  |  4294365935 |
|     201 | 0x8EB3B     |      584507 |
|     202 | 0x021E      |         542 |
|     203 | 0xFFF6D6A2  |  4294366882 |
|     204 | 0x8E8B3     |      583859 |
|     205 | 0x02C0      |         704 |
|     206 | 0xFFF6DAB0  |  4294367920 |
|     207 | 0x8EE3C     |      585276 |
|     208 | 0x029C      |         668 |
|     209 | 0xFFF6DC30  |  4294368304 |
|     210 | 0x8F5FC     |      587260 |
|     211 | 0x01D4      |         468 |
|     212 | 0xFFF6D87A  |  4294367354 |
|     213 | 0x8F6D2     |      587474 |
|     214 | 0x01BF      |         447 |
|     215 | 0xFFF6CEAA  |  4294364842 |
|     216 | 0x8FA2D     |      588333 |
|     217 | 0x00F7      |         247 |
|     218 | 0xFFF6CA0E  |  4294363662 |
|     219 | 0x8EFB9     |      585657 |
|     220 | 0x0090      |         144 |
|     221 | 0xFFF6CECB  |  4294364875 |
|     222 | 0x8E418     |      582680 |
|     223 | 0x018C      |         396 |
|     224 | 0xFFF6DB79  |  4294368121 |
|     225 | 0x8E4F3     |      582899 |
|     226 | 0x0356      |         854 |
|     227 | 0xFFF6DE60  |  4294368864 |
|     228 | 0x8F7D9     |      587737 |
|     229 | 0x019A      |         410 |
|     230 | 0xFFF6D8AE  |  4294367406 |
|     231 | 0x8FE78     |      589432 |
|     232 | 0x0146      |         326 |

## Events

### Event 65535

#### Metadata

| Field        | Value   |
|--------------|---------|
| Entrypoint   | 0x0000  |
| Data Size    | 1 bytes |
| Instructions | 1       |

```
      00 01 02 03 04 05 06 07  08 09 0A 0B 0C 0D 0E 0F
      -- -- -- -- -- -- -- --  -- -- -- -- -- -- -- --
0000: 00                                                .               
```

#### Opcodes

```
  0: 0x0000 [0x00] END_REQSTACK()
```

### Event 513

#### Metadata

| Field        | Value   |
|--------------|---------|
| Entrypoint   | 0x0001  |
| Data Size    | 1 bytes |
| Instructions | 1       |

```
      00 01 02 03 04 05 06 07  08 09 0A 0B 0C 0D 0E 0F
      -- -- -- -- -- -- -- --  -- -- -- -- -- -- -- --
0000:    00                                              .              
```

#### Opcodes

```
  0: 0x0001 [0x00] END_REQSTACK()
```

### Event 509

#### Metadata

| Field        | Value   |
|--------------|---------|
| Entrypoint   | 0x0002  |
| Data Size    | 1 bytes |
| Instructions | 1       |

```
      00 01 02 03 04 05 06 07  08 09 0A 0B 0C 0D 0E 0F
      -- -- -- -- -- -- -- --  -- -- -- -- -- -- -- --
0000:       00                                            .             
```

#### Opcodes

```
  0: 0x0002 [0x00] END_REQSTACK()
```

### Event 65535.1

#### Metadata

| Field        | Value    |
|--------------|----------|
| Entrypoint   | 0x0003   |
| Data Size    | 11 bytes |
| Instructions | 3        |

```
      00 01 02 03 04 05 06 07  08 09 0A 0B 0C 0D 0E 0F
      -- -- -- -- -- -- -- --  -- -- -- -- -- -- -- --
0000:          B4 01 00 00 00  80 B5 00 00 00 00           ...........  
```

#### Opcodes

```
  0: 0x0003 [0xB4] UI_WINDOW_STRING_HANDLER(case=0x01 - Copy string from event strings table, work_offset=ExtData[1]->WorkLocal[0], string_index=1*)
  1: 0x0009 [0xB5] SET_EVENT_ENTITY_NAME: Change EventEntity name to ExtData[1]->WorkLocal[0]
  2: 0x000D [0x00] END_REQSTACK()
```

### Event 65535.2

#### Metadata

| Field        | Value    |
|--------------|----------|
| Entrypoint   | 0x000E   |
| Data Size    | 25 bytes |
| Instructions | 3        |

```
      00 01 02 03 04 05 06 07  08 09 0A 0B 0C 0D 0E 0F
      -- -- -- -- -- -- -- --  -- -- -- -- -- -- -- --
0000:                                            B4 00                ..
0010: 00 00 43 68 6F 63 6F 62  6F 00 00 00 00 00 00 00  ..Chocobo.......
0020: 00 00 B5 00 00 00 00                              .......         
```

#### Opcodes

```
  0: 0x000E [0xB4] UI_WINDOW_STRING_HANDLER(case=0x00 - Copy string from opcode, work_offset=ExtData[1]->WorkLocal[0], string="Chocobo")
  1: 0x0022 [0xB5] SET_EVENT_ENTITY_NAME: Change EventEntity name to ExtData[1]->WorkLocal[0]
  2: 0x0026 [0x00] END_REQSTACK()
```

### Event 65535.3

#### Metadata

| Field        | Value   |
|--------------|---------|
| Entrypoint   | 0x0027  |
| Data Size    | 5 bytes |
| Instructions | 2       |

```
      00 01 02 03 04 05 06 07  08 09 0A 0B 0C 0D 0E 0F
      -- -- -- -- -- -- -- --  -- -- -- -- -- -- -- --
0020:                      B6  00 04 10 00                     .....    
```

#### Opcodes

```
  0: 0x0027 [0xB6] ENTITY_APPEARANCE_HANDLER(case=Hair style, value=Work_Zone[4])
  1: 0x002B [0x00] END_REQSTACK()
```

### Event 65535.4

#### Metadata

| Field        | Value    |
|--------------|----------|
| Entrypoint   | 0x002C   |
| Data Size    | 10 bytes |
| Instructions | 2        |

```
      00 01 02 03 04 05 06 07  08 09 0A 0B 0C 0D 0E 0F
      -- -- -- -- -- -- -- --  -- -- -- -- -- -- -- --
0020:                                      37 01 80 02              7...
0030: 80 03 80 04 80 00                                 ......          
```

#### Opcodes

```
  0: 0x002C [0x37] UPDATE_EVENT_POSITION_AND_DIR: x=34.073*, z=-90.968*, y=0.847*, direction=83.3°*
  1: 0x0035 [0x00] END_REQSTACK()
```

### Event 65535.5

#### Metadata

| Field        | Value    |
|--------------|----------|
| Entrypoint   | 0x0036   |
| Data Size    | 81 bytes |
| Instructions | 16       |

```
      00 01 02 03 04 05 06 07  08 09 0A 0B 0C 0D 0E 0F
      -- -- -- -- -- -- -- --  -- -- -- -- -- -- -- --
0030:                   32 05  80 1F 00 06 80 07 80 08        2.........
0040: 80 1F 01 1F 00 09 80 0A  80 08 80 1F 01 1F 00 0B  ................
0050: 80 0C 80 08 80 1F 01 1F  00 0D 80 0E 80 0F 80 1F  ................
0060: 01 1F 00 01 80 02 80 03  80 1F 01 02 4D 10 10 80  ............M...
0070: 00 7D 00 27 05 92 A0 0E  01 08 01 86 00 37 10 80  .}.'.........7..
0080: 10 80 10 80 10 80 00                              .......         
```

#### Opcodes

```
  0: 0x0036 [0x32] ExtData[1]->MainSpeed = 57* * 0.1
  1: 0x0039 [0x1F] MOVE_ENTITY: EventEntity moves to X=32.131*, Z=-94.679*, Y=0.871*
  2: 0x0041 [0x1F] MOVE_ENTITY: Update entity position (mode=1)
  3: 0x0043 [0x1F] MOVE_ENTITY: EventEntity moves to X=26.860*, Z=-93.377*, Y=0.871*
  4: 0x004B [0x1F] MOVE_ENTITY: Update entity position (mode=1)
  5: 0x004D [0x1F] MOVE_ENTITY: EventEntity moves to X=28.450*, Z=-88.722*, Y=0.871*
  6: 0x0055 [0x1F] MOVE_ENTITY: Update entity position (mode=1)
  7: 0x0057 [0x1F] MOVE_ENTITY: EventEntity moves to X=32.083*, Z=-88.414*, Y=0.869*
  8: 0x005F [0x1F] MOVE_ENTITY: Update entity position (mode=1)
  9: 0x0061 [0x1F] MOVE_ENTITY: EventEntity moves to X=34.073*, Z=-90.968*, Y=0.847*
 10: 0x0069 [0x1F] MOVE_ENTITY: Update entity position (mode=1)
 11: 0x006B [0x02] IF !(Work_Zone[77] == 0*) GOTO 0x007D
 12: 0x0073 [0x27] REQ_SET(priority=0x05, entity_id=Unnamed NPC (ID: 17735826/0x010EA092), tag_num=0x08)
 13: 0x007A [0x01] GOTO 0x0086
 14: 0x007D [0x37] UPDATE_EVENT_POSITION_AND_DIR: x=0.000*, z=0.000*, y=0.000*, direction=0.0°*

SUBROUTINE_0086:
 15: 0x0086 [0x00] END_REQSTACK()
```

### Event 65535.6

#### Metadata

| Field        | Value    |
|--------------|----------|
| Entrypoint   | 0x0087   |
| Data Size    | 81 bytes |
| Instructions | 16       |

```
      00 01 02 03 04 05 06 07  08 09 0A 0B 0C 0D 0E 0F
      -- -- -- -- -- -- -- --  -- -- -- -- -- -- -- --
0080:                      32  05 80 1F 00 06 80 07 80         2........
0090: 08 80 1F 01 1F 00 09 80  0A 80 08 80 1F 01 1F 00  ................
00A0: 0B 80 0C 80 08 80 1F 01  1F 00 0D 80 0E 80 0F 80  ................
00B0: 1F 01 1F 00 01 80 02 80  03 80 1F 01 02 4D 10 10  .............M..
00C0: 80 00 CE 00 27 05 92 A0  0E 01 07 01 D7 00 37 10  ....'.........7.
00D0: 80 10 80 10 80 10 80 00                           ........        
```

#### Opcodes

```
  0: 0x0087 [0x32] ExtData[1]->MainSpeed = 57* * 0.1
  1: 0x008A [0x1F] MOVE_ENTITY: EventEntity moves to X=32.131*, Z=-94.679*, Y=0.871*
  2: 0x0092 [0x1F] MOVE_ENTITY: Update entity position (mode=1)
  3: 0x0094 [0x1F] MOVE_ENTITY: EventEntity moves to X=26.860*, Z=-93.377*, Y=0.871*
  4: 0x009C [0x1F] MOVE_ENTITY: Update entity position (mode=1)
  5: 0x009E [0x1F] MOVE_ENTITY: EventEntity moves to X=28.450*, Z=-88.722*, Y=0.871*
  6: 0x00A6 [0x1F] MOVE_ENTITY: Update entity position (mode=1)
  7: 0x00A8 [0x1F] MOVE_ENTITY: EventEntity moves to X=32.083*, Z=-88.414*, Y=0.869*
  8: 0x00B0 [0x1F] MOVE_ENTITY: Update entity position (mode=1)
  9: 0x00B2 [0x1F] MOVE_ENTITY: EventEntity moves to X=34.073*, Z=-90.968*, Y=0.847*
 10: 0x00BA [0x1F] MOVE_ENTITY: Update entity position (mode=1)
 11: 0x00BC [0x02] IF !(Work_Zone[77] == 0*) GOTO 0x00CE
 12: 0x00C4 [0x27] REQ_SET(priority=0x05, entity_id=Unnamed NPC (ID: 17735826/0x010EA092), tag_num=0x07)
 13: 0x00CB [0x01] GOTO 0x00D7
 14: 0x00CE [0x37] UPDATE_EVENT_POSITION_AND_DIR: x=0.000*, z=0.000*, y=0.000*, direction=0.0°*

SUBROUTINE_00D7:
 15: 0x00D7 [0x00] END_REQSTACK()
```

### Event 65535.7

#### Metadata

| Field        | Value    |
|--------------|----------|
| Entrypoint   | 0x00D8   |
| Data Size    | 10 bytes |
| Instructions | 2        |

```
      00 01 02 03 04 05 06 07  08 09 0A 0B 0C 0D 0E 0F
      -- -- -- -- -- -- -- --  -- -- -- -- -- -- -- --
00D0:                          37 11 80 12 80 08 80 13          7.......
00E0: 80 00                                             ..              
```

#### Opcodes

```
  0: 0x00D8 [0x37] UPDATE_EVENT_POSITION_AND_DIR: x=53.959*, z=-95.237*, y=0.871*, direction=175.7°*
  1: 0x00E1 [0x00] END_REQSTACK()
```

### Event 65535.8

#### Metadata

| Field        | Value    |
|--------------|----------|
| Entrypoint   | 0x00E2   |
| Data Size    | 14 bytes |
| Instructions | 4        |

```
      00 01 02 03 04 05 06 07  08 09 0A 0B 0C 0D 0E 0F
      -- -- -- -- -- -- -- --  -- -- -- -- -- -- -- --
00E0:       32 05 80 1F 00 14  80 15 80 08 80 1F 01 00    2.............
```

#### Opcodes

```
  0: 0x00E2 [0x32] ExtData[1]->MainSpeed = 57* * 0.1
  1: 0x00E5 [0x1F] MOVE_ENTITY: EventEntity moves to X=52.503*, Z=-94.817*, Y=0.871*
  2: 0x00ED [0x1F] MOVE_ENTITY: Update entity position (mode=1)
  3: 0x00EF [0x00] END_REQSTACK()
```

### Event 65535.9

#### Metadata

| Field        | Value    |
|--------------|----------|
| Entrypoint   | 0x00F0   |
| Data Size    | 11 bytes |
| Instructions | 3        |

```
      00 01 02 03 04 05 06 07  08 09 0A 0B 0C 0D 0E 0F
      -- -- -- -- -- -- -- --  -- -- -- -- -- -- -- --
00F0: 1F 00 16 80 17 80 08 80  1F 01 00                 ...........     
```

#### Opcodes

```
  0: 0x00F0 [0x1F] MOVE_ENTITY: EventEntity moves to X=51.424*, Z=-94.465*, Y=0.871*
  1: 0x00F8 [0x1F] MOVE_ENTITY: Update entity position (mode=1)
  2: 0x00FA [0x00] END_REQSTACK()
```

### Event 65535.10

#### Metadata

| Field        | Value    |
|--------------|----------|
| Entrypoint   | 0x00FB   |
| Data Size    | 11 bytes |
| Instructions | 3        |

```
      00 01 02 03 04 05 06 07  08 09 0A 0B 0C 0D 0E 0F
      -- -- -- -- -- -- -- --  -- -- -- -- -- -- -- --
00F0:                                   1F 00 18 80 19             .....
0100: 80 08 80 1F 01 00                                 ......          
```

#### Opcodes

```
  0: 0x00FB [0x1F] MOVE_ENTITY: EventEntity moves to X=49.948*, Z=-94.242*, Y=0.871*
  1: 0x0103 [0x1F] MOVE_ENTITY: Update entity position (mode=1)
  2: 0x0105 [0x00] END_REQSTACK()
```

### Event 65535.11

#### Metadata

| Field        | Value    |
|--------------|----------|
| Entrypoint   | 0x0106   |
| Data Size    | 11 bytes |
| Instructions | 3        |

```
      00 01 02 03 04 05 06 07  08 09 0A 0B 0C 0D 0E 0F
      -- -- -- -- -- -- -- --  -- -- -- -- -- -- -- --
0100:                   1F 00  1A 80 1B 80 08 80 1F 01        ..........
0110: 00                                                .               
```

#### Opcodes

```
  0: 0x0106 [0x1F] MOVE_ENTITY: EventEntity moves to X=48.704*, Z=-94.195*, Y=0.871*
  1: 0x010E [0x1F] MOVE_ENTITY: Update entity position (mode=1)
  2: 0x0110 [0x00] END_REQSTACK()
```

### Event 65535.12

#### Metadata

| Field        | Value    |
|--------------|----------|
| Entrypoint   | 0x0111   |
| Data Size    | 14 bytes |
| Instructions | 4        |

```
      00 01 02 03 04 05 06 07  08 09 0A 0B 0C 0D 0E 0F
      -- -- -- -- -- -- -- --  -- -- -- -- -- -- -- --
0110:    32 05 80 1F 00 1C 80  1D 80 08 80 1F 01 00      2............. 
```

#### Opcodes

```
  0: 0x0111 [0x32] ExtData[1]->MainSpeed = 57* * 0.1
  1: 0x0114 [0x1F] MOVE_ENTITY: EventEntity moves to X=50.260*, Z=-88.211*, Y=0.871*
  2: 0x011C [0x1F] MOVE_ENTITY: Update entity position (mode=1)
  3: 0x011E [0x00] END_REQSTACK()
```

### Event 65535.13

#### Metadata

| Field        | Value    |
|--------------|----------|
| Entrypoint   | 0x011F   |
| Data Size    | 10 bytes |
| Instructions | 2        |

```
      00 01 02 03 04 05 06 07  08 09 0A 0B 0C 0D 0E 0F
      -- -- -- -- -- -- -- --  -- -- -- -- -- -- -- --
0110:                                               37                 7
0120: 1E 80 1F 80 20 80 21 80  00                       .... .!..       
```

#### Opcodes

```
  0: 0x011F [0x37] UPDATE_EVENT_POSITION_AND_DIR: x=-12.163*, z=-13.156*, y=-0.044*, direction=174.4°*
  1: 0x0128 [0x00] END_REQSTACK()
```

### Event 65535.14

#### Metadata

| Field        | Value    |
|--------------|----------|
| Entrypoint   | 0x0129   |
| Data Size    | 24 bytes |
| Instructions | 6        |

```
      00 01 02 03 04 05 06 07  08 09 0A 0B 0C 0D 0E 0F
      -- -- -- -- -- -- -- --  -- -- -- -- -- -- -- --
0120:                             32 05 80 1F 00 22 80           2....".
0130: 23 80 20 80 1F 01 1F 00  24 80 25 80 20 80 1F 01  #. .....$.%. ...
0140: 00                                                .               
```

#### Opcodes

```
  0: 0x0129 [0x32] ExtData[1]->MainSpeed = 57* * 0.1
  1: 0x012C [0x1F] MOVE_ENTITY: EventEntity moves to X=-21.932*, Z=-13.298*, Y=-0.044*
  2: 0x0134 [0x1F] MOVE_ENTITY: Update entity position (mode=1)
  3: 0x0136 [0x1F] MOVE_ENTITY: EventEntity moves to X=-26.092*, Z=-8.843*, Y=-0.044*
  4: 0x013E [0x1F] MOVE_ENTITY: Update entity position (mode=1)
  5: 0x0140 [0x00] END_REQSTACK()
```

### Event 65535.15

#### Metadata

| Field        | Value    |
|--------------|----------|
| Entrypoint   | 0x0141   |
| Data Size    | 14 bytes |
| Instructions | 4        |

```
      00 01 02 03 04 05 06 07  08 09 0A 0B 0C 0D 0E 0F
      -- -- -- -- -- -- -- --  -- -- -- -- -- -- -- --
0140:    32 05 80 1F 00 26 80  27 80 20 80 1F 01 00      2....&.'. .... 
```

#### Opcodes

```
  0: 0x0141 [0x32] ExtData[1]->MainSpeed = 57* * 0.1
  1: 0x0144 [0x1F] MOVE_ENTITY: EventEntity moves to X=-23.883*, Z=-13.358*, Y=-0.044*
  2: 0x014C [0x1F] MOVE_ENTITY: Update entity position (mode=1)
  3: 0x014E [0x00] END_REQSTACK()
```

### Event 65535.16

#### Metadata

| Field        | Value    |
|--------------|----------|
| Entrypoint   | 0x014F   |
| Data Size    | 14 bytes |
| Instructions | 4        |

```
      00 01 02 03 04 05 06 07  08 09 0A 0B 0C 0D 0E 0F
      -- -- -- -- -- -- -- --  -- -- -- -- -- -- -- --
0140:                                               32                 2
0150: 05 80 1F 00 1E 80 1F 80  20 80 1F 01 00           ........ ....   
```

#### Opcodes

```
  0: 0x014F [0x32] ExtData[1]->MainSpeed = 57* * 0.1
  1: 0x0152 [0x1F] MOVE_ENTITY: EventEntity moves to X=-12.163*, Z=-13.156*, Y=-0.044*
  2: 0x015A [0x1F] MOVE_ENTITY: Update entity position (mode=1)
  3: 0x015C [0x00] END_REQSTACK()
```

### Event 65535.17

#### Metadata

| Field        | Value    |
|--------------|----------|
| Entrypoint   | 0x015D   |
| Data Size    | 10 bytes |
| Instructions | 2        |

```
      00 01 02 03 04 05 06 07  08 09 0A 0B 0C 0D 0E 0F
      -- -- -- -- -- -- -- --  -- -- -- -- -- -- -- --
0150:                                         37 28 80               7(.
0160: 29 80 2A 80 2B 80 00                              ).*.+..         
```

#### Opcodes

```
  0: 0x015D [0x37] UPDATE_EVENT_POSITION_AND_DIR: x=681.326*, z=353.036*, y=-0.016*, direction=270.8°*
  1: 0x0166 [0x00] END_REQSTACK()
```

### Event 65535.18

#### Metadata

| Field        | Value    |
|--------------|----------|
| Entrypoint   | 0x0167   |
| Data Size    | 29 bytes |
| Instructions | 7        |

```
      00 01 02 03 04 05 06 07  08 09 0A 0B 0C 0D 0E 0F
      -- -- -- -- -- -- -- --  -- -- -- -- -- -- -- --
0160:                      32  2C 80 1F 00 2D 80 2E 80         2,...-...
0170: 10 80 1F 01 1F 00 2F 80  30 80 31 80 1F 01 1E 91  ....../.0.1.....
0180: A0 0E 01 00                                       ....            
```

#### Opcodes

```
  0: 0x0167 [0x32] ExtData[1]->MainSpeed = 10* * 0.1
  1: 0x016A [0x1F] MOVE_ENTITY: EventEntity moves to X=681.282*, Z=354.542*, Y=0.000*
  2: 0x0172 [0x1F] MOVE_ENTITY: Update entity position (mode=1)
  3: 0x0174 [0x1F] MOVE_ENTITY: EventEntity moves to X=679.978*, Z=354.832*, Y=-0.002*
  4: 0x017C [0x1F] MOVE_ENTITY: Update entity position (mode=1)
  5: 0x017E [0x1E] EventEntity looks at Unnamed NPC (ID: 17735825/0x010EA091) and starts talking
  6: 0x0183 [0x00] END_REQSTACK()
```

### Event 65535.19

#### Metadata

| Field        | Value    |
|--------------|----------|
| Entrypoint   | 0x0184   |
| Data Size    | 15 bytes |
| Instructions | 3        |

```
      00 01 02 03 04 05 06 07  08 09 0A 0B 0C 0D 0E 0F
      -- -- -- -- -- -- -- --  -- -- -- -- -- -- -- --
0180:             37 32 80 33  80 34 80 35 80 80 F8 FF      72.3.4.5....
0190: FF 7F 00                                          ...             
```

#### Opcodes

```
  0: 0x0184 [0x37] UPDATE_EVENT_POSITION_AND_DIR: x=130.287*, z=334.962*, y=0.020*, direction=17.5°*
  1: 0x018D [0x80] LOAD_WAIT(entity=EventEntity)
  2: 0x0192 [0x00] END_REQSTACK()
```

### Event 65535.20

#### Metadata

| Field        | Value    |
|--------------|----------|
| Entrypoint   | 0x0193   |
| Data Size    | 19 bytes |
| Instructions | 5        |

```
      00 01 02 03 04 05 06 07  08 09 0A 0B 0C 0D 0E 0F
      -- -- -- -- -- -- -- --  -- -- -- -- -- -- -- --
0190:          32 36 80 1F 00  37 80 38 80 39 80 1F 01     26...7.8.9...
01A0: 1E 91 A0 0E 01 00                                 ......          
```

#### Opcodes

```
  0: 0x0193 [0x32] ExtData[1]->MainSpeed = 19* * 0.1
  1: 0x0196 [0x1F] MOVE_ENTITY: EventEntity moves to X=133.408*, Z=333.201*, Y=-0.480*
  2: 0x019E [0x1F] MOVE_ENTITY: Update entity position (mode=1)
  3: 0x01A0 [0x1E] EventEntity looks at Unnamed NPC (ID: 17735825/0x010EA091) and starts talking
  4: 0x01A5 [0x00] END_REQSTACK()
```

### Event 65535.21

#### Metadata

| Field        | Value    |
|--------------|----------|
| Entrypoint   | 0x01A6   |
| Data Size    | 10 bytes |
| Instructions | 2        |

```
      00 01 02 03 04 05 06 07  08 09 0A 0B 0C 0D 0E 0F
      -- -- -- -- -- -- -- --  -- -- -- -- -- -- -- --
01A0:                   37 3A  80 3B 80 3C 80 3D 80 00        7:.;.<.=..
```

#### Opcodes

```
  0: 0x01A6 [0x37] UPDATE_EVENT_POSITION_AND_DIR: x=-157.296*, z=-691.965*, y=-64.460*, direction=303.8°*
  1: 0x01AF [0x00] END_REQSTACK()
```

### Event 65535.22

#### Metadata

| Field        | Value    |
|--------------|----------|
| Entrypoint   | 0x01B0   |
| Data Size    | 19 bytes |
| Instructions | 5        |

```
      00 01 02 03 04 05 06 07  08 09 0A 0B 0C 0D 0E 0F
      -- -- -- -- -- -- -- --  -- -- -- -- -- -- -- --
01B0: 32 36 80 1F 00 3E 80 3F  80 40 80 1F 01 1E 91 A0  26...>.?.@......
01C0: 0E 01 00                                          ...             
```

#### Opcodes

```
  0: 0x01B0 [0x32] ExtData[1]->MainSpeed = 19* * 0.1
  1: 0x01B3 [0x1F] MOVE_ENTITY: EventEntity moves to X=-155.566*, Z=-688.939*, Y=-64.145*
  2: 0x01BB [0x1F] MOVE_ENTITY: Update entity position (mode=1)
  3: 0x01BD [0x1E] EventEntity looks at Unnamed NPC (ID: 17735825/0x010EA091) and starts talking
  4: 0x01C2 [0x00] END_REQSTACK()
```

### Event 65535.23

#### Metadata

| Field        | Value    |
|--------------|----------|
| Entrypoint   | 0x01C3   |
| Data Size    | 10 bytes |
| Instructions | 2        |

```
      00 01 02 03 04 05 06 07  08 09 0A 0B 0C 0D 0E 0F
      -- -- -- -- -- -- -- --  -- -- -- -- -- -- -- --
01C0:          37 41 80 42 80  43 80 44 80 00              7A.B.C.D..   
```

#### Opcodes

```
  0: 0x01C3 [0x37] UPDATE_EVENT_POSITION_AND_DIR: x=91.561*, z=-77.658*, y=0.625*, direction=85.8°*
  1: 0x01CC [0x00] END_REQSTACK()
```

### Event 65535.24

#### Metadata

| Field        | Value     |
|--------------|-----------|
| Entrypoint   | 0x01CD    |
| Data Size    | 242 bytes |
| Instructions | 52        |

```
      00 01 02 03 04 05 06 07  08 09 0A 0B 0C 0D 0E 0F
      -- -- -- -- -- -- -- --  -- -- -- -- -- -- -- --
01C0:                                         32 05 80               2..
01D0: 1F 00 45 80 46 80 47 80  1F 01 02 4C 10 10 80 80  ..E.F.G....L....
01E0: E8 01 1C 48 80 01 F6 01  02 4C 10 49 80 80 F6 01  ...H.....L.I....
01F0: 1C 48 80 01 F6 01 1F 00  4A 80 4B 80 47 80 1F 01  .H......J.K.G...
0200: 02 4C 10 10 80 80 0E 02  1C 48 80 01 1C 02 02 4C  .L.......H.....L
0210: 10 49 80 80 1C 02 1C 48  80 01 1C 02 1F 00 4C 80  .I.....H......L.
0220: 4D 80 47 80 1F 01 02 4C  10 10 80 80 34 02 1C 48  M.G....L....4..H
0230: 80 01 42 02 02 4C 10 49  80 80 42 02 1C 48 80 01  ..B..L.I..B..H..
0240: 42 02 1F 00 4E 80 4F 80  47 80 1F 01 02 4C 10 10  B...N.O.G....L..
0250: 80 80 5A 02 1C 48 80 01  68 02 02 4C 10 49 80 80  ..Z..H..h..L.I..
0260: 68 02 1C 48 80 01 68 02  1F 00 50 80 51 80 47 80  h..H..h...P.Q.G.
0270: 1F 01 02 4C 10 10 80 80  80 02 1C 48 80 01 8E 02  ...L.......H....
0280: 02 4C 10 49 80 80 8E 02  1C 48 80 01 8E 02 1F 00  .L.I.....H......
0290: 52 80 53 80 47 80 1F 01  02 4C 10 10 80 80 A6 02  R.S.G....L......
02A0: 1C 48 80 01 B4 02 02 4C  10 49 80 80 B4 02 1C 48  .H.....L.I.....H
02B0: 80 01 B4 02 1F 00 54 80  55 80 43 80 1F 01 00     ......T.U.C.... 
```

#### Opcodes

```
  0: 0x01CD [0x32] ExtData[1]->MainSpeed = 57* * 0.1
  1: 0x01D0 [0x1F] MOVE_ENTITY: EventEntity moves to X=92.213*, Z=-83.849*, Y=0.996*
  2: 0x01D8 [0x1F] MOVE_ENTITY: Update entity position (mode=1)
  3: 0x01DA [0x02] IF !(Work_Zone[76] == 0*) GOTO 0x01E8
  4: 0x01E2 [0x1C] WAIT(5* ticks)
  5: 0x01E5 [0x01] GOTO 0x01F6
  6: 0x01E8 [0x02] IF !(Work_Zone[76] == 3*) GOTO 0x01F6
  7: 0x01F0 [0x1C] WAIT(5* ticks)
  8: 0x01F3 [0x01] GOTO 0x01F6

SUBROUTINE_01F6:
  9: 0x01F6 [0x1F] MOVE_ENTITY: EventEntity moves to X=98.058*, Z=-85.977*, Y=0.996*
 10: 0x01FE [0x1F] MOVE_ENTITY: Update entity position (mode=1)
 11: 0x0200 [0x02] IF !(Work_Zone[76] == 0*) GOTO 0x020E
 12: 0x0208 [0x1C] WAIT(5* ticks)
 13: 0x020B [0x01] GOTO 0x021C
 14: 0x020E [0x02] IF !(Work_Zone[76] == 3*) GOTO 0x021C
 15: 0x0216 [0x1C] WAIT(5* ticks)
 16: 0x0219 [0x01] GOTO 0x021C

SUBROUTINE_021C:
 17: 0x021C [0x1F] MOVE_ENTITY: EventEntity moves to X=101.041*, Z=-82.442*, Y=0.996*
 18: 0x0224 [0x1F] MOVE_ENTITY: Update entity position (mode=1)
 19: 0x0226 [0x02] IF !(Work_Zone[76] == 0*) GOTO 0x0234
 20: 0x022E [0x1C] WAIT(5* ticks)
 21: 0x0231 [0x01] GOTO 0x0242
 22: 0x0234 [0x02] IF !(Work_Zone[76] == 3*) GOTO 0x0242
 23: 0x023C [0x1C] WAIT(5* ticks)
 24: 0x023F [0x01] GOTO 0x0242

SUBROUTINE_0242:
 25: 0x0242 [0x1F] MOVE_ENTITY: EventEntity moves to X=102.871*, Z=-60.470*, Y=0.996*
 26: 0x024A [0x1F] MOVE_ENTITY: Update entity position (mode=1)
 27: 0x024C [0x02] IF !(Work_Zone[76] == 0*) GOTO 0x025A
 28: 0x0254 [0x1C] WAIT(5* ticks)
 29: 0x0257 [0x01] GOTO 0x0268
 30: 0x025A [0x02] IF !(Work_Zone[76] == 3*) GOTO 0x0268
 31: 0x0262 [0x1C] WAIT(5* ticks)
 32: 0x0265 [0x01] GOTO 0x0268

SUBROUTINE_0268:
 33: 0x0268 [0x1F] MOVE_ENTITY: EventEntity moves to X=97.209*, Z=-56.838*, Y=0.996*
 34: 0x0270 [0x1F] MOVE_ENTITY: Update entity position (mode=1)
 35: 0x0272 [0x02] IF !(Work_Zone[76] == 0*) GOTO 0x0280
 36: 0x027A [0x1C] WAIT(5* ticks)
 37: 0x027D [0x01] GOTO 0x028E
 38: 0x0280 [0x02] IF !(Work_Zone[76] == 3*) GOTO 0x028E
 39: 0x0288 [0x1C] WAIT(5* ticks)
 40: 0x028B [0x01] GOTO 0x028E

SUBROUTINE_028E:
 41: 0x028E [0x1F] MOVE_ENTITY: EventEntity moves to X=91.717*, Z=-57.644*, Y=0.996*
 42: 0x0296 [0x1F] MOVE_ENTITY: Update entity position (mode=1)
 43: 0x0298 [0x02] IF !(Work_Zone[76] == 0*) GOTO 0x02A6
 44: 0x02A0 [0x1C] WAIT(5* ticks)
 45: 0x02A3 [0x01] GOTO 0x02B4
 46: 0x02A6 [0x02] IF !(Work_Zone[76] == 3*) GOTO 0x02B4
 47: 0x02AE [0x1C] WAIT(5* ticks)
 48: 0x02B1 [0x01] GOTO 0x02B4

SUBROUTINE_02B4:
 49: 0x02B4 [0x1F] MOVE_ENTITY: EventEntity moves to X=88.732*, Z=-66.813*, Y=0.625*
 50: 0x02BC [0x1F] MOVE_ENTITY: Update entity position (mode=1)
 51: 0x02BE [0x00] END_REQSTACK()
```

### Event 65535.25

#### Metadata

| Field        | Value    |
|--------------|----------|
| Entrypoint   | 0x02BF   |
| Data Size    | 19 bytes |
| Instructions | 4        |

```
      00 01 02 03 04 05 06 07  08 09 0A 0B 0C 0D 0E 0F
      -- -- -- -- -- -- -- --  -- -- -- -- -- -- -- --
02B0:                                               B6                 .
02C0: 00 56 80 37 57 80 58 80  59 80 5A 80 80 F8 FF FF  .V.7W.X.Y.Z.....
02D0: 7F 00                                             ..              
```

#### Opcodes

```
  0: 0x02BF [0xB6] ENTITY_APPEARANCE_HANDLER(case=Hair style, value=106*)
  1: 0x02C3 [0x37] UPDATE_EVENT_POSITION_AND_DIR: x=-280.223*, z=-98.279*, y=-11.999*, direction=93.0°*
  2: 0x02CC [0x80] LOAD_WAIT(entity=EventEntity)
  3: 0x02D1 [0x00] END_REQSTACK()
```

### Event 65535.26

#### Metadata

| Field        | Value    |
|--------------|----------|
| Entrypoint   | 0x02D2   |
| Data Size    | 15 bytes |
| Instructions | 3        |

```
      00 01 02 03 04 05 06 07  08 09 0A 0B 0C 0D 0E 0F
      -- -- -- -- -- -- -- --  -- -- -- -- -- -- -- --
02D0:       37 5B 80 5C 80 10  80 5D 80 80 F8 FF FF 7F    7[.\...]......
02E0: 00                                                .               
```

#### Opcodes

```
  0: 0x02D2 [0x37] UPDATE_EVENT_POSITION_AND_DIR: x=683.847*, z=359.345*, y=0.000*, direction=353.0°*
  1: 0x02DB [0x80] LOAD_WAIT(entity=EventEntity)
  2: 0x02E0 [0x00] END_REQSTACK()
```

### Event 65535.27

#### Metadata

| Field        | Value    |
|--------------|----------|
| Entrypoint   | 0x02E1   |
| Data Size    | 24 bytes |
| Instructions | 6        |

```
      00 01 02 03 04 05 06 07  08 09 0A 0B 0C 0D 0E 0F
      -- -- -- -- -- -- -- --  -- -- -- -- -- -- -- --
02E0:    32 2C 80 1F 00 5E 80  5F 80 10 80 1F 01 1F 00   2,...^._.......
02F0: 60 80 61 80 10 80 1F 01  00                       `.a......       
```

#### Opcodes

```
  0: 0x02E1 [0x32] ExtData[1]->MainSpeed = 10* * 0.1
  1: 0x02E4 [0x1F] MOVE_ENTITY: EventEntity moves to X=682.034*, Z=358.923*, Y=0.000*
  2: 0x02EC [0x1F] MOVE_ENTITY: Update entity position (mode=1)
  3: 0x02EE [0x1F] MOVE_ENTITY: EventEntity moves to X=682.070*, Z=357.186*, Y=0.000*
  4: 0x02F6 [0x1F] MOVE_ENTITY: Update entity position (mode=1)
  5: 0x02F8 [0x00] END_REQSTACK()
```

### Event 65535.28

#### Metadata

| Field        | Value    |
|--------------|----------|
| Entrypoint   | 0x02F9   |
| Data Size    | 19 bytes |
| Instructions | 5        |

```
      00 01 02 03 04 05 06 07  08 09 0A 0B 0C 0D 0E 0F
      -- -- -- -- -- -- -- --  -- -- -- -- -- -- -- --
02F0:                             32 2C 80 1F 00 62 80           2,...b.
0300: 63 80 10 80 1F 01 1E 91  A0 0E 01 00              c...........    
```

#### Opcodes

```
  0: 0x02F9 [0x32] ExtData[1]->MainSpeed = 10* * 0.1
  1: 0x02FC [0x1F] MOVE_ENTITY: EventEntity moves to X=681.725*, Z=359.022*, Y=0.000*
  2: 0x0304 [0x1F] MOVE_ENTITY: Update entity position (mode=1)
  3: 0x0306 [0x1E] EventEntity looks at Unnamed NPC (ID: 17735825/0x010EA091) and starts talking
  4: 0x030B [0x00] END_REQSTACK()
```

### Event 65535.29

#### Metadata

| Field        | Value    |
|--------------|----------|
| Entrypoint   | 0x030C   |
| Data Size    | 15 bytes |
| Instructions | 3        |

```
      00 01 02 03 04 05 06 07  08 09 0A 0B 0C 0D 0E 0F
      -- -- -- -- -- -- -- --  -- -- -- -- -- -- -- --
0300:                                      37 64 80 65              7d.e
0310: 80 66 80 67 80 80 F8 FF  FF 7F 00                 .f.g.......     
```

#### Opcodes

```
  0: 0x030C [0x37] UPDATE_EVENT_POSITION_AND_DIR: x=144.980*, z=341.722*, y=-5.958*, direction=302.1°*
  1: 0x0315 [0x80] LOAD_WAIT(entity=EventEntity)
  2: 0x031A [0x00] END_REQSTACK()
```

### Event 65535.30

#### Metadata

| Field        | Value    |
|--------------|----------|
| Entrypoint   | 0x031B   |
| Data Size    | 14 bytes |
| Instructions | 4        |

```
      00 01 02 03 04 05 06 07  08 09 0A 0B 0C 0D 0E 0F
      -- -- -- -- -- -- -- --  -- -- -- -- -- -- -- --
0310:                                   32 2C 80 1F 00             2,...
0320: 68 80 69 80 6A 80 1F 01  00                       h.i.j....       
```

#### Opcodes

```
  0: 0x031B [0x32] ExtData[1]->MainSpeed = 10* * 0.1
  1: 0x031E [0x1F] MOVE_ENTITY: EventEntity moves to X=145.985*, Z=335.097*, Y=-4.914*
  2: 0x0326 [0x1F] MOVE_ENTITY: Update entity position (mode=1)
  3: 0x0328 [0x00] END_REQSTACK()
```

### Event 65535.31

#### Metadata

| Field        | Value    |
|--------------|----------|
| Entrypoint   | 0x0329   |
| Data Size    | 19 bytes |
| Instructions | 5        |

```
      00 01 02 03 04 05 06 07  08 09 0A 0B 0C 0D 0E 0F
      -- -- -- -- -- -- -- --  -- -- -- -- -- -- -- --
0320:                             32 2C 80 1F 00 6B 80           2,...k.
0330: 6C 80 6D 80 1F 01 1E 91  A0 0E 01 00              l.m.........    
```

#### Opcodes

```
  0: 0x0329 [0x32] ExtData[1]->MainSpeed = 10* * 0.1
  1: 0x032C [0x1F] MOVE_ENTITY: EventEntity moves to X=142.793*, Z=341.930*, Y=-6.420*
  2: 0x0334 [0x1F] MOVE_ENTITY: Update entity position (mode=1)
  3: 0x0336 [0x1E] EventEntity looks at Unnamed NPC (ID: 17735825/0x010EA091) and starts talking
  4: 0x033B [0x00] END_REQSTACK()
```

### Event 65535.32

#### Metadata

| Field        | Value    |
|--------------|----------|
| Entrypoint   | 0x033C   |
| Data Size    | 15 bytes |
| Instructions | 3        |

```
      00 01 02 03 04 05 06 07  08 09 0A 0B 0C 0D 0E 0F
      -- -- -- -- -- -- -- --  -- -- -- -- -- -- -- --
0330:                                      37 6E 80 6F              7n.o
0340: 80 70 80 71 80 80 F8 FF  FF 7F 00                 .p.q.......     
```

#### Opcodes

```
  0: 0x033C [0x37] UPDATE_EVENT_POSITION_AND_DIR: x=-182.394*, z=446.255*, y=0.287*, direction=53.9°*
  1: 0x0345 [0x80] LOAD_WAIT(entity=EventEntity)
  2: 0x034A [0x00] END_REQSTACK()
```

### Event 65535.33

#### Metadata

| Field        | Value    |
|--------------|----------|
| Entrypoint   | 0x034B   |
| Data Size    | 14 bytes |
| Instructions | 4        |

```
      00 01 02 03 04 05 06 07  08 09 0A 0B 0C 0D 0E 0F
      -- -- -- -- -- -- -- --  -- -- -- -- -- -- -- --
0340:                                   32 2C 80 1F 00             2,...
0350: 72 80 73 80 74 80 1F 01  00                       r.s.t....       
```

#### Opcodes

```
  0: 0x034B [0x32] ExtData[1]->MainSpeed = 10* * 0.1
  1: 0x034E [0x1F] MOVE_ENTITY: EventEntity moves to X=-184.811*, Z=445.042*, Y=-0.168*
  2: 0x0356 [0x1F] MOVE_ENTITY: Update entity position (mode=1)
  3: 0x0358 [0x00] END_REQSTACK()
```

### Event 65535.34

#### Metadata

| Field        | Value    |
|--------------|----------|
| Entrypoint   | 0x0359   |
| Data Size    | 19 bytes |
| Instructions | 5        |

```
      00 01 02 03 04 05 06 07  08 09 0A 0B 0C 0D 0E 0F
      -- -- -- -- -- -- -- --  -- -- -- -- -- -- -- --
0350:                             32 2C 80 1F 00 75 80           2,...u.
0360: 76 80 77 80 1F 01 1E 97  A0 0E 01 00              v.w.........    
```

#### Opcodes

```
  0: 0x0359 [0x32] ExtData[1]->MainSpeed = 10* * 0.1
  1: 0x035C [0x1F] MOVE_ENTITY: EventEntity moves to X=-185.412*, Z=447.027*, Y=0.547*
  2: 0x0364 [0x1F] MOVE_ENTITY: Update entity position (mode=1)
  3: 0x0366 [0x1E] EventEntity looks at Unnamed NPC (ID: 17735831/0x010EA097) and starts talking
  4: 0x036B [0x00] END_REQSTACK()
```

### Event 65535.35

#### Metadata

| Field        | Value    |
|--------------|----------|
| Entrypoint   | 0x036C   |
| Data Size    | 10 bytes |
| Instructions | 2        |

```
      00 01 02 03 04 05 06 07  08 09 0A 0B 0C 0D 0E 0F
      -- -- -- -- -- -- -- --  -- -- -- -- -- -- -- --
0360:                                      37 78 80 79              7x.y
0370: 80 7A 80 7B 80 00                                 .z.{..          
```

#### Opcodes

```
  0: 0x036C [0x37] UPDATE_EVENT_POSITION_AND_DIR: x=45.851*, z=-103.699*, y=0.874*, direction=56.0°*
  1: 0x0375 [0x00] END_REQSTACK()
```

### Event 65535.36

#### Metadata

| Field        | Value    |
|--------------|----------|
| Entrypoint   | 0x0376   |
| Data Size    | 19 bytes |
| Instructions | 5        |

```
      00 01 02 03 04 05 06 07  08 09 0A 0B 0C 0D 0E 0F
      -- -- -- -- -- -- -- --  -- -- -- -- -- -- -- --
0370:                   32 2C  80 1F 00 7C 80 7D 80 7A        2,...|.}.z
0380: 80 1F 01 1E 90 A0 0E 01  00                       .........       
```

#### Opcodes

```
  0: 0x0376 [0x32] ExtData[1]->MainSpeed = 10* * 0.1
  1: 0x0379 [0x1F] MOVE_ENTITY: EventEntity moves to X=50.301*, Z=-107.035*, Y=0.874*
  2: 0x0381 [0x1F] MOVE_ENTITY: Update entity position (mode=1)
  3: 0x0383 [0x1E] EventEntity looks at Zopago (ID: 17735824/0x010EA090) and starts talking
  4: 0x0388 [0x00] END_REQSTACK()
```

### Event 545

#### Metadata

| Field        | Value   |
|--------------|---------|
| Entrypoint   | 0x0389  |
| Data Size    | 1 bytes |
| Instructions | 1       |

```
      00 01 02 03 04 05 06 07  08 09 0A 0B 0C 0D 0E 0F
      -- -- -- -- -- -- -- --  -- -- -- -- -- -- -- --
0380:                             00                             .      
```

#### Opcodes

```
  0: 0x0389 [0x00] END_REQSTACK()
```

### Event 65535.37

#### Metadata

| Field        | Value    |
|--------------|----------|
| Entrypoint   | 0x038A   |
| Data Size    | 15 bytes |
| Instructions | 3        |

```
      00 01 02 03 04 05 06 07  08 09 0A 0B 0C 0D 0E 0F
      -- -- -- -- -- -- -- --  -- -- -- -- -- -- -- --
0380:                                37 7E 80 7F 80 80            7~....
0390: 80 81 80 03 04 00 10 80  00                       .........       
```

#### Opcodes

```
  0: 0x038A [0x37] UPDATE_EVENT_POSITION_AND_DIR: x=-605.201*, z=606.193*, y=0.167*, direction=33.1°*
  1: 0x0393 [0x03] ExtData[1]->WorkLocal[4] = 0*
  2: 0x0398 [0x00] END_REQSTACK()
```

### Event 65535.38

#### Metadata

| Field        | Value    |
|--------------|----------|
| Entrypoint   | 0x0399   |
| Data Size    | 48 bytes |
| Instructions | 11       |

```
      00 01 02 03 04 05 06 07  08 09 0A 0B 0C 0D 0E 0F
      -- -- -- -- -- -- -- --  -- -- -- -- -- -- -- --
0390:                             02 04 00 82 80 01 C8           .......
03A0: 03 32 2C 80 1F 00 83 80  84 80 85 80 1F 01 1F 00  .2,.............
03B0: 86 80 87 80 88 80 1F 01  1C 89 80 1F 00 8A 80 8B  ................
03C0: 80 8C 80 1F 01 01 99 03  00                       .........       
```

#### Opcodes

```
  0: 0x0399 [0x02] IF !(ExtData[1]->WorkLocal[4] == 2*) GOTO 0x03C8
  1: 0x03A1 [0x32] ExtData[1]->MainSpeed = 10* * 0.1
  2: 0x03A4 [0x1F] MOVE_ENTITY: EventEntity moves to X=-605.972*, Z=607.697*, Y=0.004*
  3: 0x03AC [0x1F] MOVE_ENTITY: Update entity position (mode=1)
  4: 0x03AE [0x1F] MOVE_ENTITY: EventEntity moves to X=-608.286*, Z=606.788*, Y=-0.064*
  5: 0x03B6 [0x1F] MOVE_ENTITY: Update entity position (mode=1)
  6: 0x03B8 [0x1C] WAIT(60* ticks)
  7: 0x03BB [0x1F] MOVE_ENTITY: EventEntity moves to X=-606.508*, Z=607.958*, Y=-0.049*
  8: 0x03C3 [0x1F] MOVE_ENTITY: Update entity position (mode=1)
  9: 0x03C5 [0x01] GOTO 0x0399
 10: 0x03C8 [0x00] END_REQSTACK()
```

### Event 65535.39

#### Metadata

| Field        | Value    |
|--------------|----------|
| Entrypoint   | 0x03C9   |
| Data Size    | 48 bytes |
| Instructions | 11       |

```
      00 01 02 03 04 05 06 07  08 09 0A 0B 0C 0D 0E 0F
      -- -- -- -- -- -- -- --  -- -- -- -- -- -- -- --
03C0:                             02 04 00 82 80 01 F8           .......
03D0: 03 32 36 80 1F 00 83 80  84 80 85 80 1F 01 1F 00  .26.............
03E0: 86 80 87 80 88 80 1F 01  1C 89 80 1F 00 8A 80 8B  ................
03F0: 80 8C 80 1F 01 01 C9 03  00                       .........       
```

#### Opcodes

```
  0: 0x03C9 [0x02] IF !(ExtData[1]->WorkLocal[4] == 2*) GOTO 0x03F8
  1: 0x03D1 [0x32] ExtData[1]->MainSpeed = 19* * 0.1
  2: 0x03D4 [0x1F] MOVE_ENTITY: EventEntity moves to X=-605.972*, Z=607.697*, Y=0.004*
  3: 0x03DC [0x1F] MOVE_ENTITY: Update entity position (mode=1)
  4: 0x03DE [0x1F] MOVE_ENTITY: EventEntity moves to X=-608.286*, Z=606.788*, Y=-0.064*
  5: 0x03E6 [0x1F] MOVE_ENTITY: Update entity position (mode=1)
  6: 0x03E8 [0x1C] WAIT(60* ticks)
  7: 0x03EB [0x1F] MOVE_ENTITY: EventEntity moves to X=-606.508*, Z=607.958*, Y=-0.049*
  8: 0x03F3 [0x1F] MOVE_ENTITY: Update entity position (mode=1)
  9: 0x03F5 [0x01] GOTO 0x03C9
 10: 0x03F8 [0x00] END_REQSTACK()
```

### Event 65535.40

#### Metadata

| Field        | Value   |
|--------------|---------|
| Entrypoint   | 0x03F9  |
| Data Size    | 6 bytes |
| Instructions | 2       |

```
      00 01 02 03 04 05 06 07  08 09 0A 0B 0C 0D 0E 0F
      -- -- -- -- -- -- -- --  -- -- -- -- -- -- -- --
03F0:                             03 04 00 82 80 00              ...... 
```

#### Opcodes

```
  0: 0x03F9 [0x03] ExtData[1]->WorkLocal[4] = 2*
  1: 0x03FE [0x00] END_REQSTACK()
```

### Event 65535.41

#### Metadata

| Field        | Value    |
|--------------|----------|
| Entrypoint   | 0x03FF   |
| Data Size    | 15 bytes |
| Instructions | 3        |

```
      00 01 02 03 04 05 06 07  08 09 0A 0B 0C 0D 0E 0F
      -- -- -- -- -- -- -- --  -- -- -- -- -- -- -- --
03F0:                                               37                 7
0400: 8D 80 8E 80 8F 80 90 80  80 F8 FF FF 7F 00        ..............  
```

#### Opcodes

```
  0: 0x03FF [0x37] UPDATE_EVENT_POSITION_AND_DIR: x=-600.128*, z=585.578*, y=0.628*, direction=25.0°*
  1: 0x0408 [0x80] LOAD_WAIT(entity=EventEntity)
  2: 0x040D [0x00] END_REQSTACK()
```

### Event 65535.42

#### Metadata

| Field        | Value    |
|--------------|----------|
| Entrypoint   | 0x040E   |
| Data Size    | 54 bytes |
| Instructions | 12       |

```
      00 01 02 03 04 05 06 07  08 09 0A 0B 0C 0D 0E 0F
      -- -- -- -- -- -- -- --  -- -- -- -- -- -- -- --
0400:                                            32 2C                2,
0410: 80 1F 00 91 80 92 80 93  80 1F 01 1F 00 94 80 95  ................
0420: 80 96 80 1F 01 1F 00 97  80 98 80 99 80 1F 01 1F  ................
0430: 00 9A 80 9B 80 9C 80 1F  01 1F 00 8D 80 8E 80 8F  ................
0440: 80 1F 01 00                                       ....            
```

#### Opcodes

```
  0: 0x040E [0x32] ExtData[1]->MainSpeed = 10* * 0.1
  1: 0x0411 [0x1F] MOVE_ENTITY: EventEntity moves to X=-601.910*, Z=587.743*, Y=0.274*
  2: 0x0419 [0x1F] MOVE_ENTITY: Update entity position (mode=1)
  3: 0x041B [0x1F] MOVE_ENTITY: EventEntity moves to X=-600.199*, Z=588.994*, Y=0.347*
  4: 0x0423 [0x1F] MOVE_ENTITY: Update entity position (mode=1)
  5: 0x0425 [0x1F] MOVE_ENTITY: EventEntity moves to X=-599.211*, Z=586.089*, Y=0.586*
  6: 0x042D [0x1F] MOVE_ENTITY: Update entity position (mode=1)
  7: 0x042F [0x1F] MOVE_ENTITY: EventEntity moves to X=-599.391*, Z=583.375*, Y=0.830*
  8: 0x0437 [0x1F] MOVE_ENTITY: Update entity position (mode=1)
  9: 0x0439 [0x1F] MOVE_ENTITY: EventEntity moves to X=-600.128*, Z=585.578*, Y=0.628*
 10: 0x0441 [0x1F] MOVE_ENTITY: Update entity position (mode=1)
 11: 0x0443 [0x00] END_REQSTACK()
```

### Event 65535.43

#### Metadata

| Field        | Value    |
|--------------|----------|
| Entrypoint   | 0x0444   |
| Data Size    | 66 bytes |
| Instructions | 16       |

```
      00 01 02 03 04 05 06 07  08 09 0A 0B 0C 0D 0E 0F
      -- -- -- -- -- -- -- --  -- -- -- -- -- -- -- --
0440:             32 36 80 1F  00 91 80 92 80 93 80 1F      26..........
0450: 01 1C 9D 80 1F 00 94 80  95 80 96 80 1F 01 1C 9D  ................
0460: 80 1F 00 97 80 98 80 99  80 1F 01 1C 9D 80 1F 00  ................
0470: 9A 80 9B 80 9C 80 1F 01  1C 9D 80 1F 00 8D 80 8E  ................
0480: 80 8F 80 1F 01 00                                 ......          
```

#### Opcodes

```
  0: 0x0444 [0x32] ExtData[1]->MainSpeed = 19* * 0.1
  1: 0x0447 [0x1F] MOVE_ENTITY: EventEntity moves to X=-601.910*, Z=587.743*, Y=0.274*
  2: 0x044F [0x1F] MOVE_ENTITY: Update entity position (mode=1)
  3: 0x0451 [0x1C] WAIT(30* ticks)
  4: 0x0454 [0x1F] MOVE_ENTITY: EventEntity moves to X=-600.199*, Z=588.994*, Y=0.347*
  5: 0x045C [0x1F] MOVE_ENTITY: Update entity position (mode=1)
  6: 0x045E [0x1C] WAIT(30* ticks)
  7: 0x0461 [0x1F] MOVE_ENTITY: EventEntity moves to X=-599.211*, Z=586.089*, Y=0.586*
  8: 0x0469 [0x1F] MOVE_ENTITY: Update entity position (mode=1)
  9: 0x046B [0x1C] WAIT(30* ticks)
 10: 0x046E [0x1F] MOVE_ENTITY: EventEntity moves to X=-599.391*, Z=583.375*, Y=0.830*
 11: 0x0476 [0x1F] MOVE_ENTITY: Update entity position (mode=1)
 12: 0x0478 [0x1C] WAIT(30* ticks)
 13: 0x047B [0x1F] MOVE_ENTITY: EventEntity moves to X=-600.128*, Z=585.578*, Y=0.628*
 14: 0x0483 [0x1F] MOVE_ENTITY: Update entity position (mode=1)
 15: 0x0485 [0x00] END_REQSTACK()
```

### Event 65535.44

#### Metadata

| Field        | Value    |
|--------------|----------|
| Entrypoint   | 0x0486   |
| Data Size    | 15 bytes |
| Instructions | 3        |

```
      00 01 02 03 04 05 06 07  08 09 0A 0B 0C 0D 0E 0F
      -- -- -- -- -- -- -- --  -- -- -- -- -- -- -- --
0480:                   37 9E  80 9F 80 A0 80 A1 80 80        7.........
0490: F8 FF FF 7F 00                                    .....           
```

#### Opcodes

```
  0: 0x0486 [0x37] UPDATE_EVENT_POSITION_AND_DIR: x=-601.165*, z=586.560*, y=0.464*, direction=22.6°*
  1: 0x048F [0x80] LOAD_WAIT(entity=EventEntity)
  2: 0x0494 [0x00] END_REQSTACK()
```

### Event 65535.45

#### Metadata

| Field        | Value    |
|--------------|----------|
| Entrypoint   | 0x0495   |
| Data Size    | 73 bytes |
| Instructions | 17       |

```
      00 01 02 03 04 05 06 07  08 09 0A 0B 0C 0D 0E 0F
      -- -- -- -- -- -- -- --  -- -- -- -- -- -- -- --
0490:                32 36 80  1F 00 91 80 92 80 93 80       26.........
04A0: 1F 01 1F 00 94 80 95 80  96 80 1F 01 1F 00 97 80  ................
04B0: 98 80 99 80 1F 01 1F 00  9A 80 9B 80 9C 80 1F 01  ................
04C0: 1C 9D 80 1E 91 A0 0E 01  1C A2 80 1F 00 A3 80 A4  ................
04D0: 80 A5 80 1F 01 1C 9D 80  1E 91 A0 0E 01 00        ..............  
```

#### Opcodes

```
  0: 0x0495 [0x32] ExtData[1]->MainSpeed = 19* * 0.1
  1: 0x0498 [0x1F] MOVE_ENTITY: EventEntity moves to X=-601.910*, Z=587.743*, Y=0.274*
  2: 0x04A0 [0x1F] MOVE_ENTITY: Update entity position (mode=1)
  3: 0x04A2 [0x1F] MOVE_ENTITY: EventEntity moves to X=-600.199*, Z=588.994*, Y=0.347*
  4: 0x04AA [0x1F] MOVE_ENTITY: Update entity position (mode=1)
  5: 0x04AC [0x1F] MOVE_ENTITY: EventEntity moves to X=-599.211*, Z=586.089*, Y=0.586*
  6: 0x04B4 [0x1F] MOVE_ENTITY: Update entity position (mode=1)
  7: 0x04B6 [0x1F] MOVE_ENTITY: EventEntity moves to X=-599.391*, Z=583.375*, Y=0.830*
  8: 0x04BE [0x1F] MOVE_ENTITY: Update entity position (mode=1)
  9: 0x04C0 [0x1C] WAIT(30* ticks)
 10: 0x04C3 [0x1E] EventEntity looks at Unnamed NPC (ID: 17735825/0x010EA091) and starts talking
 11: 0x04C8 [0x1C] WAIT(120* ticks)
 12: 0x04CB [0x1F] MOVE_ENTITY: EventEntity moves to X=-602.007*, Z=587.764*, Y=0.268*
 13: 0x04D3 [0x1F] MOVE_ENTITY: Update entity position (mode=1)
 14: 0x04D5 [0x1C] WAIT(30* ticks)
 15: 0x04D8 [0x1E] EventEntity looks at Unnamed NPC (ID: 17735825/0x010EA091) and starts talking
 16: 0x04DD [0x00] END_REQSTACK()
```

### Event 65535.46

#### Metadata

| Field        | Value    |
|--------------|----------|
| Entrypoint   | 0x04DE   |
| Data Size    | 50 bytes |
| Instructions | 12       |

```
      00 01 02 03 04 05 06 07  08 09 0A 0B 0C 0D 0E 0F
      -- -- -- -- -- -- -- --  -- -- -- -- -- -- -- --
04D0:                                            32 2C                2,
04E0: 80 1F 00 A6 80 A7 80 A8  80 1F 01 1C 89 80 1F 00  ................
04F0: A9 80 AA 80 AB 80 1F 01  1C 89 80 1F 00 8D 80 8E  ................
0500: 80 8F 80 1F 01 4B 92 A0  0E 01 AC 80 1C 89 80 00  .....K..........
```

#### Opcodes

```
  0: 0x04DE [0x32] ExtData[1]->MainSpeed = 10* * 0.1
  1: 0x04E1 [0x1F] MOVE_ENTITY: EventEntity moves to X=-600.221*, Z=588.558*, Y=0.369*
  2: 0x04E9 [0x1F] MOVE_ENTITY: Update entity position (mode=1)
  3: 0x04EB [0x1C] WAIT(60* ticks)
  4: 0x04EE [0x1F] MOVE_ENTITY: EventEntity moves to X=-602.144*, Z=586.825*, Y=0.376*
  5: 0x04F6 [0x1F] MOVE_ENTITY: Update entity position (mode=1)
  6: 0x04F8 [0x1C] WAIT(60* ticks)
  7: 0x04FB [0x1F] MOVE_ENTITY: EventEntity moves to X=-600.128*, Z=585.578*, Y=0.628*
  8: 0x0503 [0x1F] MOVE_ENTITY: Update entity position (mode=1)
  9: 0x0505 [0x4B] UPDATE_ENTITY_YAW(entity=Unnamed NPC (ID: 17735826/0x010EA092), yaw=11.8°*)
 10: 0x050C [0x1C] WAIT(60* ticks)
 11: 0x050F [0x00] END_REQSTACK()
```

### Event 65535.47

#### Metadata

| Field        | Value    |
|--------------|----------|
| Entrypoint   | 0x0510   |
| Data Size    | 50 bytes |
| Instructions | 12       |

```
      00 01 02 03 04 05 06 07  08 09 0A 0B 0C 0D 0E 0F
      -- -- -- -- -- -- -- --  -- -- -- -- -- -- -- --
0510: 32 36 80 1F 00 AD 80 AE  80 AF 80 1F 01 1C 89 80  26..............
0520: 1F 00 A9 80 AA 80 AB 80  1F 01 1C 89 80 1F 00 8D  ................
0530: 80 8E 80 8F 80 1F 01 4B  92 A0 0E 01 AC 80 1C 89  .......K........
0540: 80 00                                             ..              
```

#### Opcodes

```
  0: 0x0510 [0x32] ExtData[1]->MainSpeed = 19* * 0.1
  1: 0x0513 [0x1F] MOVE_ENTITY: EventEntity moves to X=-599.892*, Z=588.477*, Y=0.373*
  2: 0x051B [0x1F] MOVE_ENTITY: Update entity position (mode=1)
  3: 0x051D [0x1C] WAIT(60* ticks)
  4: 0x0520 [0x1F] MOVE_ENTITY: EventEntity moves to X=-602.144*, Z=586.825*, Y=0.376*
  5: 0x0528 [0x1F] MOVE_ENTITY: Update entity position (mode=1)
  6: 0x052A [0x1C] WAIT(60* ticks)
  7: 0x052D [0x1F] MOVE_ENTITY: EventEntity moves to X=-600.128*, Z=585.578*, Y=0.628*
  8: 0x0535 [0x1F] MOVE_ENTITY: Update entity position (mode=1)
  9: 0x0537 [0x4B] UPDATE_ENTITY_YAW(entity=Unnamed NPC (ID: 17735826/0x010EA092), yaw=11.8°*)
 10: 0x053E [0x1C] WAIT(60* ticks)
 11: 0x0541 [0x00] END_REQSTACK()
```

### Event 65535.48

#### Metadata

| Field        | Value    |
|--------------|----------|
| Entrypoint   | 0x0542   |
| Data Size    | 67 bytes |
| Instructions | 15       |

```
      00 01 02 03 04 05 06 07  08 09 0A 0B 0C 0D 0E 0F
      -- -- -- -- -- -- -- --  -- -- -- -- -- -- -- --
0540:       32 05 80 1F 00 B0  80 B1 80 B2 80 1F 01 4B    2............K
0550: 92 A0 0E 01 B3 80 1C 89  80 1F 00 B4 80 B5 80 B6  ................
0560: 80 1F 01 4B 92 A0 0E 01  B7 80 1C B8 80 1F 00 B9  ...K............
0570: 80 BA 80 BB 80 1F 01 1C  9D 80 4B 92 A0 0E 01 BC  ..........K.....
0580: 80 1C 89 80 00                                    .....           
```

#### Opcodes

```
  0: 0x0542 [0x32] ExtData[1]->MainSpeed = 57* * 0.1
  1: 0x0545 [0x1F] MOVE_ENTITY: EventEntity moves to X=-599.295*, Z=590.678*, Y=0.264*
  2: 0x054D [0x1F] MOVE_ENTITY: Update entity position (mode=1)
  3: 0x054F [0x4B] UPDATE_ENTITY_YAW(entity=Unnamed NPC (ID: 17735826/0x010EA092), yaw=5.3°*)
  4: 0x0556 [0x1C] WAIT(60* ticks)
  5: 0x0559 [0x1F] MOVE_ENTITY: EventEntity moves to X=-604.353*, Z=586.292*, Y=0.138*
  6: 0x0561 [0x1F] MOVE_ENTITY: Update entity position (mode=1)
  7: 0x0563 [0x4B] UPDATE_ENTITY_YAW(entity=Unnamed NPC (ID: 17735826/0x010EA092), yaw=0.2°*)
  8: 0x056A [0x1C] WAIT(240* ticks)
  9: 0x056D [0x1F] MOVE_ENTITY: EventEntity moves to X=-600.328*, Z=582.410*, Y=0.802*
 10: 0x0575 [0x1F] MOVE_ENTITY: Update entity position (mode=1)
 11: 0x0577 [0x1C] WAIT(30* ticks)
 12: 0x057A [0x4B] UPDATE_ENTITY_YAW(entity=Unnamed NPC (ID: 17735826/0x010EA092), yaw=16.6°*)
 13: 0x0581 [0x1C] WAIT(60* ticks)
 14: 0x0584 [0x00] END_REQSTACK()
```

### Event 65535.49

#### Metadata

| Field        | Value    |
|--------------|----------|
| Entrypoint   | 0x0585   |
| Data Size    | 14 bytes |
| Instructions | 4        |

```
      00 01 02 03 04 05 06 07  08 09 0A 0B 0C 0D 0E 0F
      -- -- -- -- -- -- -- --  -- -- -- -- -- -- -- --
0580:                32 2C 80  1F 00 BD 80 BE 80 BF 80       2,.........
0590: 1F 01 00                                          ...             
```

#### Opcodes

```
  0: 0x0585 [0x32] ExtData[1]->MainSpeed = 10* * 0.1
  1: 0x0588 [0x1F] MOVE_ENTITY: EventEntity moves to X=-599.148*, Z=589.043*, Y=0.345*
  2: 0x0590 [0x1F] MOVE_ENTITY: Update entity position (mode=1)
  3: 0x0592 [0x00] END_REQSTACK()
```

### Event 65535.50

#### Metadata

| Field        | Value    |
|--------------|----------|
| Entrypoint   | 0x0593   |
| Data Size    | 51 bytes |
| Instructions | 11       |

```
      00 01 02 03 04 05 06 07  08 09 0A 0B 0C 0D 0E 0F
      -- -- -- -- -- -- -- --  -- -- -- -- -- -- -- --
0590:          32 2C 80 1F 00  C0 80 C1 80 05 80 1F 01     2,...........
05A0: 1F 00 C2 80 C3 80 C4 80  1F 01 1F 00 C5 80 C6 80  ................
05B0: C7 80 1F 01 1E 91 A0 0E  01 1C 9D 80 4A 91 A0 0E  ............J...
05C0: 01 92 A0 0E 01 00                                 ......          
```

#### Opcodes

```
  0: 0x0593 [0x32] ExtData[1]->MainSpeed = 10* * 0.1
  1: 0x0596 [0x1F] MOVE_ENTITY: EventEntity moves to X=-604.257*, Z=586.573*, Y=0.057*
  2: 0x059E [0x1F] MOVE_ENTITY: Update entity position (mode=1)
  3: 0x05A0 [0x1F] MOVE_ENTITY: EventEntity moves to X=-603.318*, Z=588.527*, Y=0.196*
  4: 0x05A8 [0x1F] MOVE_ENTITY: Update entity position (mode=1)
  5: 0x05AA [0x1F] MOVE_ENTITY: EventEntity moves to X=-601.495*, Z=586.040*, Y=0.496*
  6: 0x05B2 [0x1F] MOVE_ENTITY: Update entity position (mode=1)
  7: 0x05B4 [0x1E] EventEntity looks at Unnamed NPC (ID: 17735825/0x010EA091) and starts talking
  8: 0x05B9 [0x1C] WAIT(30* ticks)
  9: 0x05BC [0x4A] Unnamed NPC (ID: 17735825/0x010EA091) looks at Unnamed NPC (ID: 17735826/0x010EA092)
 10: 0x05C5 [0x00] END_REQSTACK()
```

### Event 65535.51

#### Metadata

| Field        | Value    |
|--------------|----------|
| Entrypoint   | 0x05C6   |
| Data Size    | 14 bytes |
| Instructions | 4        |

```
      00 01 02 03 04 05 06 07  08 09 0A 0B 0C 0D 0E 0F
      -- -- -- -- -- -- -- --  -- -- -- -- -- -- -- --
05C0:                   32 05  80 1F 00 BD 80 BE 80 BF        2.........
05D0: 80 1F 01 00                                       ....            
```

#### Opcodes

```
  0: 0x05C6 [0x32] ExtData[1]->MainSpeed = 57* * 0.1
  1: 0x05C9 [0x1F] MOVE_ENTITY: EventEntity moves to X=-599.148*, Z=589.043*, Y=0.345*
  2: 0x05D1 [0x1F] MOVE_ENTITY: Update entity position (mode=1)
  3: 0x05D3 [0x00] END_REQSTACK()
```

### Event 65535.52

#### Metadata

| Field        | Value    |
|--------------|----------|
| Entrypoint   | 0x05D4   |
| Data Size    | 51 bytes |
| Instructions | 11       |

```
      00 01 02 03 04 05 06 07  08 09 0A 0B 0C 0D 0E 0F
      -- -- -- -- -- -- -- --  -- -- -- -- -- -- -- --
05D0:             32 05 80 1F  00 C0 80 C1 80 05 80 1F      2...........
05E0: 01 1F 00 C2 80 C3 80 C4  80 1F 01 1F 00 C5 80 C6  ................
05F0: 80 C7 80 1F 01 1E 91 A0  0E 01 1C 9D 80 4A 91 A0  .............J..
0600: 0E 01 92 A0 0E 01 00                              .......         
```

#### Opcodes

```
  0: 0x05D4 [0x32] ExtData[1]->MainSpeed = 57* * 0.1
  1: 0x05D7 [0x1F] MOVE_ENTITY: EventEntity moves to X=-604.257*, Z=586.573*, Y=0.057*
  2: 0x05DF [0x1F] MOVE_ENTITY: Update entity position (mode=1)
  3: 0x05E1 [0x1F] MOVE_ENTITY: EventEntity moves to X=-603.318*, Z=588.527*, Y=0.196*
  4: 0x05E9 [0x1F] MOVE_ENTITY: Update entity position (mode=1)
  5: 0x05EB [0x1F] MOVE_ENTITY: EventEntity moves to X=-601.495*, Z=586.040*, Y=0.496*
  6: 0x05F3 [0x1F] MOVE_ENTITY: Update entity position (mode=1)
  7: 0x05F5 [0x1E] EventEntity looks at Unnamed NPC (ID: 17735825/0x010EA091) and starts talking
  8: 0x05FA [0x1C] WAIT(30* ticks)
  9: 0x05FD [0x4A] Unnamed NPC (ID: 17735825/0x010EA091) looks at Unnamed NPC (ID: 17735826/0x010EA092)
 10: 0x0606 [0x00] END_REQSTACK()
```

### Event 65535.53

#### Metadata

| Field        | Value    |
|--------------|----------|
| Entrypoint   | 0x0607   |
| Data Size    | 59 bytes |
| Instructions | 13       |

```
      00 01 02 03 04 05 06 07  08 09 0A 0B 0C 0D 0E 0F
      -- -- -- -- -- -- -- --  -- -- -- -- -- -- -- --
0600:                      32  2C 80 1F 00 C8 80 C9 80         2,.......
0610: CA 80 1F 01 1F 00 CB 80  CC 80 CD 80 1F 01 1F 00  ................
0620: CE 80 CF 80 D0 80 1F 01  1F 00 D1 80 D2 80 D3 80  ................
0630: 1F 01 1F 00 D4 80 D5 80  D6 80 1F 01 1E 91 A0 0E  ................
0640: 01 00                                             ..              
```

#### Opcodes

```
  0: 0x0607 [0x32] ExtData[1]->MainSpeed = 10* * 0.1
  1: 0x060A [0x1F] MOVE_ENTITY: EventEntity moves to X=-601.361*, Z=584.507*, Y=0.542*
  2: 0x0612 [0x1F] MOVE_ENTITY: Update entity position (mode=1)
  3: 0x0614 [0x1F] MOVE_ENTITY: EventEntity moves to X=-600.414*, Z=583.859*, Y=0.704*
  4: 0x061C [0x1F] MOVE_ENTITY: Update entity position (mode=1)
  5: 0x061E [0x1F] MOVE_ENTITY: EventEntity moves to X=-599.376*, Z=585.276*, Y=0.668*
  6: 0x0626 [0x1F] MOVE_ENTITY: Update entity position (mode=1)
  7: 0x0628 [0x1F] MOVE_ENTITY: EventEntity moves to X=-598.992*, Z=587.260*, Y=0.468*
  8: 0x0630 [0x1F] MOVE_ENTITY: Update entity position (mode=1)
  9: 0x0632 [0x1F] MOVE_ENTITY: EventEntity moves to X=-599.942*, Z=587.474*, Y=0.447*
 10: 0x063A [0x1F] MOVE_ENTITY: Update entity position (mode=1)
 11: 0x063C [0x1E] EventEntity looks at Unnamed NPC (ID: 17735825/0x010EA091) and starts talking
 12: 0x0641 [0x00] END_REQSTACK()
```

### Event 65535.54

#### Metadata

| Field        | Value    |
|--------------|----------|
| Entrypoint   | 0x0642   |
| Data Size    | 69 bytes |
| Instructions | 15       |

```
      00 01 02 03 04 05 06 07  08 09 0A 0B 0C 0D 0E 0F
      -- -- -- -- -- -- -- --  -- -- -- -- -- -- -- --
0640:       32 05 80 1F 00 D7  80 D8 80 D9 80 1F 01 1F    2.............
0650: 00 DA 80 DB 80 DC 80 1F  01 1F 00 DD 80 DE 80 DF  ................
0660: 80 1F 01 1F 00 E0 80 E1  80 E2 80 1F 01 1F 00 E3  ................
0670: 80 E4 80 E5 80 1F 01 1F  00 E6 80 E7 80 E8 80 1F  ................
0680: 01 1E 91 A0 0E 01 00                              .......         
```

#### Opcodes

```
  0: 0x0642 [0x32] ExtData[1]->MainSpeed = 57* * 0.1
  1: 0x0645 [0x1F] MOVE_ENTITY: EventEntity moves to X=-602.454*, Z=588.333*, Y=0.247*
  2: 0x064D [0x1F] MOVE_ENTITY: Update entity position (mode=1)
  3: 0x064F [0x1F] MOVE_ENTITY: EventEntity moves to X=-603.634*, Z=585.657*, Y=0.144*
  4: 0x0657 [0x1F] MOVE_ENTITY: Update entity position (mode=1)
  5: 0x0659 [0x1F] MOVE_ENTITY: EventEntity moves to X=-602.421*, Z=582.680*, Y=0.396*
  6: 0x0661 [0x1F] MOVE_ENTITY: Update entity position (mode=1)
  7: 0x0663 [0x1F] MOVE_ENTITY: EventEntity moves to X=-599.175*, Z=582.899*, Y=0.854*
  8: 0x066B [0x1F] MOVE_ENTITY: Update entity position (mode=1)
  9: 0x066D [0x1F] MOVE_ENTITY: EventEntity moves to X=-598.432*, Z=587.737*, Y=0.410*
 10: 0x0675 [0x1F] MOVE_ENTITY: Update entity position (mode=1)
 11: 0x0677 [0x1F] MOVE_ENTITY: EventEntity moves to X=-599.890*, Z=589.432*, Y=0.326*
 12: 0x067F [0x1F] MOVE_ENTITY: Update entity position (mode=1)
 13: 0x0681 [0x1E] EventEntity looks at Unnamed NPC (ID: 17735825/0x010EA091) and starts talking
 14: 0x0686 [0x00] END_REQSTACK()
```

### Event 65535.55

#### Metadata

| Field        | Value    |
|--------------|----------|
| Entrypoint   | 0x0687   |
| Data Size    | 15 bytes |
| Instructions | 3        |

```
      00 01 02 03 04 05 06 07  08 09 0A 0B 0C 0D 0E 0F
      -- -- -- -- -- -- -- --  -- -- -- -- -- -- -- --
0680:                      37  A3 80 A4 80 A5 80 90 80         7........
0690: 80 F8 FF FF 7F 00                                 ......          
```

#### Opcodes

```
  0: 0x0687 [0x37] UPDATE_EVENT_POSITION_AND_DIR: x=-602.007*, z=587.764*, y=0.268*, direction=25.0°*
  1: 0x0690 [0x80] LOAD_WAIT(entity=EventEntity)
  2: 0x0695 [0x00] END_REQSTACK()
```
