# 17735995 - Christina

## Common Data

| Field            | Value                  |
|------------------|------------------------|
| Zone             | Bastok Mines (ID: 234) |
| Block Size       | 868 bytes              |
| Total Events     | 6                      |
| References Count | 41                     |

## List of Events

| Event ID              | Entrypoint   |   Size |   Instructions |
|-----------------------|--------------|--------|----------------|
| [65535](#event-65535) | 0x0000       |      1 |              1 |
| [32690](#event-32690) | 0x0001       |     12 |              6 |
| [252](#event-252)     | 0x000D       |     19 |              9 |
| [253](#event-253)     | 0x0020       |    414 |            111 |
| [32742](#event-32742) | 0x01BE       |     23 |             11 |
| [32741](#event-32741) | 0x01D5       |    195 |             51 |

## DAT References (imed_data)

|   Index | Hex Value   |   Dec Value |
|---------|-------------|-------------|
|       0 | 0x3D04      |       15620 |
|       1 | 0x3008      |       12296 |
|       2 | 0x3009      |       12297 |
|       3 | 0x300A      |       12298 |
|       4 | 0x300C      |       12300 |
|       5 | 0x06D2      |        1746 |
|       6 | 0x300D      |       12301 |
|       7 | 0x06D3      |        1747 |
|       8 | 0x06D4      |        1748 |
|       9 | 0x300F      |       12303 |
|      10 | 0x3010      |       12304 |
|      11 | 0x0001      |           1 |
|      12 | 0x0000      |           0 |
|      13 | 0x00C8      |         200 |
|      14 | 0x0064      |         100 |
|      15 | 0x3011      |       12305 |
|      16 | 0x0003      |           3 |
|      17 | 0x3012      |       12306 |
|      18 | 0x3013      |       12307 |
|      19 | 0x3014      |       12308 |
|      20 | 0x3015      |       12309 |
|      21 | 0x300E      |       12302 |
|      22 | 0x0006      |           6 |
|      23 | 0x0002      |           2 |
|      24 | 0x0004      |           4 |
|      25 | 0x0007      |           7 |
|      26 | 0x0005      |           5 |
|      27 | 0x0009      |           9 |
|      28 | 0x0008      |           8 |
|      29 | 0x3090      |       12432 |
|      30 | 0x3091      |       12433 |
|      31 | 0x3092      |       12434 |
|      32 | 0x3093      |       12435 |
|      33 | 0x3094      |       12436 |
|      34 | 0x3095      |       12437 |
|      35 | 0x3096      |       12438 |
|      36 | 0x0014      |          20 |
|      37 | 0x3097      |       12439 |
|      38 | 0x0019      |          25 |
|      39 | 0x00B4      |         180 |
|      40 | 0x3098      |       12440 |

## String References

- **12296**: Hi there! I'm a smilebringer! I've come from a faraway land to the north to bring joy and happiness to the children of Vana'diel! You look a little old for presents, though.
- **12297**: Here, take this and give it to a child. Not only will it make her feel better, but you'll feel better, too!
- **12298**: Trust me!
- **12300**: What? Letters? They must be from the impoverished republican tykes!
- **12301**: Wait a minute... There is no name on this $1. I wonder who wrote it...
- **12302**: Who is it from? [Arawn./Dehlner./Emrys./Folzen./Gwill./Patricius./Remus./Rothais./Vaghron./Valeri.]
- **12303**: Are you positive that [Arawn/Dehlner/Emrys/Folzen/Gwill/Patricius/Remus/Rothais/Vaghron/Valeri], [Arawn/Dehlner/Emrys/Folzen/Gwill/Patricius/Remus/Rothais/Vaghron/Valeri], and [Arawn/Dehlner/Emrys/Folzen/Gwill/Patricius/Remus/Rothais/Vaghron/Valeri] were the ones who gave you the letters?
- **12304**: Well? [Positive!/Wait a minute...]
- **12305**: Hm... Without any name, I'll never know who sent this $1...
- **12306**: Well, I'll be! You see, this just proves my theory: "You only get what you give!"
- **12307**: Wait... Was that a twinkle I just saw in your eye? Don't tell me... You'd like to help bring joy and happiness to the children of Vana'diel!
- **12308**: I knew it! Well, if you're going to join our ranks, you'll have to play the part. Here, take this hat. You could call it our official smilebringer "uniform." Without it, you're just another average Joe.
- **12309**: Well, I'll be! It's stuff like this that makes it all worthwhile.
- **12432**: Are you bringing joy to the children of Vana'diel? Don't keep all that happiness to yourself, now!
- **12433**: What's the best way to make a child smile? Why, presents, of course! Children nowadays want all kinds of goodies. I'm a bit behind the times, so I'm afraid I can't offer any good advice as to what would be the best present.
- **12434**: But if you want to avoid suspicion, you'll need a red hat like mine. All smilebringers have them!
- **12435**: They should be for sale somewhere around here, so snap one up if you want it!
- **12436**: [You haven't brought any happiness to the children!/You've done some good./You have done fairly well./You have given the children much joy!/You have brought smile upon smile to the children!/You have the children bursting with glee!/The children love you!] [What a disappointment./You just need to give a little extra effort!/Keep it up!/You make a good smilebringer./Excellent work!/Stupendous job!/Even I think you're great!]
- **12437**: You can make good use of some of that joy you've brought to transport yourself to another nation. The children in other parts of Vana'diel need smiles, too!
- **12438**: Transport to another nation? [Not now./Go to San d'Oria./Go to Bastok./Go to Windurst.]
- **12439**: Happy travels!
- **12440**: Sorry, but it looks like you don't have enough joy and happiness in your life to do that. You can earn some by giving presents to children, though!
- **15620**: Wh-what!? You want to give me a present!? It...it's not that I don't appreciate it or anything... It's just that... Aaah, who am I to argue? Thank you, fellow smilebringer!

## Events

### Event 65535

#### Metadata

| Field        | Value   |
|--------------|---------|
| Entrypoint   | 0x0000  |
| Data Size    | 1 bytes |
| Instructions | 1       |

```
      00 01 02 03 04 05 06 07  08 09 0A 0B 0C 0D 0E 0F
      -- -- -- -- -- -- -- --  -- -- -- -- -- -- -- --
0000: 00                                                .               
```

#### Opcodes

```
  0: 0x0000 [0x00] END_REQSTACK()
```

### Event 32690

#### Metadata

| Field        | Value    |
|--------------|----------|
| Entrypoint   | 0x0001   |
| Data Size    | 12 bytes |
| Instructions | 6        |

```
      00 01 02 03 04 05 06 07  08 09 0A 0B 0C 0D 0E 0F
      -- -- -- -- -- -- -- --  -- -- -- -- -- -- -- --
0000:    42 1E F0 FF FF 7F 1D  00 80 23 21 00            B........#!.   
```

#### Opcodes

```
  0: 0x0001 [0x42] SET_CLI_EVENT_CANCEL_DATA()
  1: 0x0002 [0x1E] EventEntity looks at LocalPlayer and starts talking
  2: 0x0007 [0x1D] PRINT_EVENT_MESSAGE(message_id=15620*)
    → "Wh-what!? You want to give me a present!? It...it's not that I don't appreciate it or anything... It's just that... Aaah, who am I to argue? Thank you, fellow smilebringer!"
  3: 0x000A [0x23] WAIT_FOR_DIALOG_INTERACTION
  4: 0x000B [0x21] END_EVENT
  5: 0x000C [0x00] END_REQSTACK()
```

### Event 252

#### Metadata

| Field        | Value    |
|--------------|----------|
| Entrypoint   | 0x000D   |
| Data Size    | 19 bytes |
| Instructions | 9        |

```
      00 01 02 03 04 05 06 07  08 09 0A 0B 0C 0D 0E 0F
      -- -- -- -- -- -- -- --  -- -- -- -- -- -- -- --
0000:                                         1E F0 FF               ...
0010: FF 7F 1D 01 80 23 1D 02  80 23 1D 03 80 23 21 00  .....#...#...#!.
```

#### Opcodes

```
  0: 0x000D [0x1E] EventEntity looks at LocalPlayer and starts talking
  1: 0x0012 [0x1D] PRINT_EVENT_MESSAGE(message_id=12296*)
    → "Hi there! I'm a smilebringer! I've come from a faraway land to the north to bring joy and happiness to the children of Vana'diel! You look a little old for presents, though."
  2: 0x0015 [0x23] WAIT_FOR_DIALOG_INTERACTION
  3: 0x0016 [0x1D] PRINT_EVENT_MESSAGE(message_id=12297*)
    → "Here, take this and give it to a child. Not only will it make her feel better, but you'll feel better, too!"
  4: 0x0019 [0x23] WAIT_FOR_DIALOG_INTERACTION
  5: 0x001A [0x1D] PRINT_EVENT_MESSAGE(message_id=12298*)
    → "Trust me!"
  6: 0x001D [0x23] WAIT_FOR_DIALOG_INTERACTION
  7: 0x001E [0x21] END_EVENT
  8: 0x001F [0x00] END_REQSTACK()
```

### Event 253

#### Metadata

| Field        | Value     |
|--------------|-----------|
| Entrypoint   | 0x0020    |
| Data Size    | 414 bytes |
| Instructions | 110       |

```
      00 01 02 03 04 05 06 07  08 09 0A 0B 0C 0D 0E 0F
      -- -- -- -- -- -- -- --  -- -- -- -- -- -- -- --
0020: 42 1E F0 FF FF 7F 1D 04  80 23 03 03 10 05 80 1D  B........#......
0030: 06 80 23 1A 15 01 03 00  00 00 10 43 00 43 01 03  ..#........C.C..
0040: 03 10 07 80 1D 06 80 23  1A 15 01 03 01 00 00 10  .......#........
0050: 43 00 43 01 03 03 10 08  80 1D 06 80 23 1A 15 01  C.C.........#...
0060: 03 02 00 00 10 43 00 43  01 03 03 10 00 00 03 04  .....C.C........
0070: 10 01 00 03 05 10 02 00  1D 09 80 23 24 0A 80 0B  ...........#$...
0080: 80 0C 80 25 02 00 10 0C  80 00 98 00 03 01 10 0D  ...%............
0090: 80 43 00 43 01 01 EE 00  02 00 10 0B 80 00 EE 00  .C.C............
00A0: 03 01 10 0E 80 43 00 43  01 03 03 10 05 80 1D 0F  .....C.C........
00B0: 80 23 1A 15 01 03 00 00  00 10 43 00 43 01 03 03  .#........C.C...
00C0: 10 07 80 1D 0F 80 23 1A  15 01 03 01 00 00 10 43  ......#........C
00D0: 00 43 01 03 03 10 08 80  1D 0F 80 23 1A 15 01 03  .C.........#....
00E0: 02 00 00 10 43 00 43 01  01 69 00 01 EE 00 02 02  ....C.C..i......
00F0: 10 10 80 00 0A 01 1D 11  80 23 1D 12 80 23 1D 13  .........#...#..
0100: 80 23 03 01 10 0B 80 01  13 01 1D 14 80 23 03 01  .#...........#..
0110: 10 0C 80 21 00 24 15 80  0C 80 0C 80 25 02 00 10  ...!.$......%...
0120: 0C 80 00 2D 01 03 01 10  10 80 01 BD 01 02 00 10  ...-............
0130: 0B 80 00 3D 01 03 01 10  16 80 01 BD 01 02 00 10  ...=............
0140: 17 80 00 4D 01 03 01 10  18 80 01 BD 01 02 00 10  ...M............
0150: 10 80 00 5D 01 03 01 10  19 80 01 BD 01 02 00 10  ...]............
0160: 18 80 00 6D 01 03 01 10  17 80 01 BD 01 02 00 10  ...m............
0170: 1A 80 00 7D 01 03 01 10  1B 80 01 BD 01 02 00 10  ...}............
0180: 16 80 00 8D 01 03 01 10  1C 80 01 BD 01 02 00 10  ................
0190: 19 80 00 9D 01 03 01 10  1A 80 01 BD 01 02 00 10  ................
01A0: 1C 80 00 AD 01 03 01 10  0B 80 01 BD 01 02 00 10  ................
01B0: 1B 80 00 BD 01 03 01 10  0C 80 01 BD 01 1B        ..............  
```

#### Opcodes

```
  0: 0x0020 [0x42] SET_CLI_EVENT_CANCEL_DATA()
  1: 0x0021 [0x1E] EventEntity looks at LocalPlayer and starts talking
  2: 0x0026 [0x1D] PRINT_EVENT_MESSAGE(message_id=12300*)
    → "What? Letters? They must be from the impoverished republican tykes!"
  3: 0x0029 [0x23] WAIT_FOR_DIALOG_INTERACTION
  4: 0x002A [0x03] Work_Zone[3] = 1746*
  5: 0x002F [0x1D] PRINT_EVENT_MESSAGE(message_id=12301*)
    → "Wait a minute... There is no name on this $1. I wonder who wrote it..."
  6: 0x0032 [0x23] WAIT_FOR_DIALOG_INTERACTION
  7: 0x0033 [0x1A] CALL_SUBROUTINE(address=0x0115)
  8: 0x0036 [0x03] ExtData[1]->WorkLocal[0] = Work_Zone[0]
  9: 0x003B [0x43] SEND_EVENT_UPDATE: Send pending tag to server (packet 0x005B)
 10: 0x003D [0x43] SEND_EVENT_UPDATE: Check pending flag (skip if not pending)
 11: 0x003F [0x03] Work_Zone[3] = 1747*
 12: 0x0044 [0x1D] PRINT_EVENT_MESSAGE(message_id=12301*)
    → "Wait a minute... There is no name on this $1. I wonder who wrote it..."
 13: 0x0047 [0x23] WAIT_FOR_DIALOG_INTERACTION
 14: 0x0048 [0x1A] CALL_SUBROUTINE(address=0x0115)
 15: 0x004B [0x03] ExtData[1]->WorkLocal[1] = Work_Zone[0]
 16: 0x0050 [0x43] SEND_EVENT_UPDATE: Send pending tag to server (packet 0x005B)
 17: 0x0052 [0x43] SEND_EVENT_UPDATE: Check pending flag (skip if not pending)
 18: 0x0054 [0x03] Work_Zone[3] = 1748*
 19: 0x0059 [0x1D] PRINT_EVENT_MESSAGE(message_id=12301*)
    → "Wait a minute... There is no name on this $1. I wonder who wrote it..."
 20: 0x005C [0x23] WAIT_FOR_DIALOG_INTERACTION
 21: 0x005D [0x1A] CALL_SUBROUTINE(address=0x0115)
 22: 0x0060 [0x03] ExtData[1]->WorkLocal[2] = Work_Zone[0]
 23: 0x0065 [0x43] SEND_EVENT_UPDATE: Send pending tag to server (packet 0x005B)
 24: 0x0067 [0x43] SEND_EVENT_UPDATE: Check pending flag (skip if not pending)
 25: 0x0069 [0x03] Work_Zone[3] = ExtData[1]->WorkLocal[0]
 26: 0x006E [0x03] Work_Zone[4] = ExtData[1]->WorkLocal[1]
 27: 0x0073 [0x03] Work_Zone[5] = ExtData[1]->WorkLocal[2]
 28: 0x0078 [0x1D] PRINT_EVENT_MESSAGE(message_id=12303*)
    → "Are you positive that [Arawn/Dehlner/Emrys/Folzen/Gwill/Patricius/Remus/Rothais/Vaghron/Valeri], [Arawn/Dehlner/Emrys/Folzen/Gwill/Patricius/Remus/Rothais/Vaghron/Valeri], and [Arawn/Dehlner/Emrys/Folzen/Gwill/Patricius/Remus/Rothais/Vaghron/Valeri] were the ones who gave you the letters?"
 29: 0x007B [0x23] WAIT_FOR_DIALOG_INTERACTION
 30: 0x007C [0x24] CREATE_DIALOG(message_id=12304*, default_option=1*, option_flags=0*)
    → "Well? [Positive!/Wait a minute...]"
 31: 0x0083 [0x25] WAIT_DIALOG_SELECT()
 32: 0x0084 [0x02] IF !(Work_Zone[0] == 0*) GOTO 0x0098
 33: 0x008C [0x03] Work_Zone[1] = 200*
 34: 0x0091 [0x43] SEND_EVENT_UPDATE: Send pending tag to server (packet 0x005B)
 35: 0x0093 [0x43] SEND_EVENT_UPDATE: Check pending flag (skip if not pending)
 36: 0x0095 [0x01] GOTO 0x00EE
 37: 0x0098 [0x02] IF !(Work_Zone[0] == 1*) GOTO 0x00EE
 38: 0x00A0 [0x03] Work_Zone[1] = 100*
 39: 0x00A5 [0x43] SEND_EVENT_UPDATE: Send pending tag to server (packet 0x005B)
 40: 0x00A7 [0x43] SEND_EVENT_UPDATE: Check pending flag (skip if not pending)
 41: 0x00A9 [0x03] Work_Zone[3] = 1746*
 42: 0x00AE [0x1D] PRINT_EVENT_MESSAGE(message_id=12305*)
    → "Hm... Without any name, I'll never know who sent this $1..."
 43: 0x00B1 [0x23] WAIT_FOR_DIALOG_INTERACTION
 44: 0x00B2 [0x1A] CALL_SUBROUTINE(address=0x0115)
 45: 0x00B5 [0x03] ExtData[1]->WorkLocal[0] = Work_Zone[0]
 46: 0x00BA [0x43] SEND_EVENT_UPDATE: Send pending tag to server (packet 0x005B)
 47: 0x00BC [0x43] SEND_EVENT_UPDATE: Check pending flag (skip if not pending)
 48: 0x00BE [0x03] Work_Zone[3] = 1747*
 49: 0x00C3 [0x1D] PRINT_EVENT_MESSAGE(message_id=12305*)
    → "Hm... Without any name, I'll never know who sent this $1..."
 50: 0x00C6 [0x23] WAIT_FOR_DIALOG_INTERACTION
 51: 0x00C7 [0x1A] CALL_SUBROUTINE(address=0x0115)
 52: 0x00CA [0x03] ExtData[1]->WorkLocal[1] = Work_Zone[0]
 53: 0x00CF [0x43] SEND_EVENT_UPDATE: Send pending tag to server (packet 0x005B)
 54: 0x00D1 [0x43] SEND_EVENT_UPDATE: Check pending flag (skip if not pending)
 55: 0x00D3 [0x03] Work_Zone[3] = 1748*
 56: 0x00D8 [0x1D] PRINT_EVENT_MESSAGE(message_id=12305*)
    → "Hm... Without any name, I'll never know who sent this $1..."
 57: 0x00DB [0x23] WAIT_FOR_DIALOG_INTERACTION
 58: 0x00DC [0x1A] CALL_SUBROUTINE(address=0x0115)
 59: 0x00DF [0x03] ExtData[1]->WorkLocal[2] = Work_Zone[0]
 60: 0x00E4 [0x43] SEND_EVENT_UPDATE: Send pending tag to server (packet 0x005B)
 61: 0x00E6 [0x43] SEND_EVENT_UPDATE: Check pending flag (skip if not pending)
 62: 0x00E8 [0x01] GOTO 0x0069

SUBROUTINE_00EE:
 63: 0x00EE [0x02] IF !(Work_Zone[2] == 3*) GOTO 0x010A
 64: 0x00F6 [0x1D] PRINT_EVENT_MESSAGE(message_id=12306*)
    → "Well, I'll be! You see, this just proves my theory: "You only get what you give!""
 65: 0x00F9 [0x23] WAIT_FOR_DIALOG_INTERACTION
 66: 0x00FA [0x1D] PRINT_EVENT_MESSAGE(message_id=12307*)
    → "Wait... Was that a twinkle I just saw in your eye? Don't tell me... You'd like to help bring joy and happiness to the children of Vana'diel!"
 67: 0x00FD [0x23] WAIT_FOR_DIALOG_INTERACTION
 68: 0x00FE [0x1D] PRINT_EVENT_MESSAGE(message_id=12308*)
    → "I knew it! Well, if you're going to join our ranks, you'll have to play the part. Here, take this hat. You could call it our official smilebringer "uniform." Without it, you're just another average Joe."
 69: 0x0101 [0x23] WAIT_FOR_DIALOG_INTERACTION
 70: 0x0102 [0x03] Work_Zone[1] = 1*
 71: 0x0107 [0x01] GOTO 0x0113
 72: 0x010A [0x1D] PRINT_EVENT_MESSAGE(message_id=12309*)
    → "Well, I'll be! It's stuff like this that makes it all worthwhile."
 73: 0x010D [0x23] WAIT_FOR_DIALOG_INTERACTION
 74: 0x010E [0x03] Work_Zone[1] = 0*

SUBROUTINE_0113:
 75: 0x0113 [0x21] END_EVENT
 76: 0x0114 [0x00] END_REQSTACK()

SUBROUTINE_0115:
 77: 0x0115 [0x24] CREATE_DIALOG(message_id=12302*, default_option=0*, option_flags=0*)
    → "Who is it from? [Arawn./Dehlner./Emrys./Folzen./Gwill./Patricius./Remus./Rothais./Vaghron./Valeri.]"
 78: 0x011C [0x25] WAIT_DIALOG_SELECT()
 79: 0x011D [0x02] IF !(Work_Zone[0] == 0*) GOTO 0x012D
 80: 0x0125 [0x03] Work_Zone[1] = 3*
 81: 0x012A [0x01] GOTO 0x01BD
 82: 0x012D [0x02] IF !(Work_Zone[0] == 1*) GOTO 0x013D
 83: 0x0135 [0x03] Work_Zone[1] = 6*
 84: 0x013A [0x01] GOTO 0x01BD
 85: 0x013D [0x02] IF !(Work_Zone[0] == 2*) GOTO 0x014D
 86: 0x0145 [0x03] Work_Zone[1] = 4*
 87: 0x014A [0x01] GOTO 0x01BD
 88: 0x014D [0x02] IF !(Work_Zone[0] == 3*) GOTO 0x015D
 89: 0x0155 [0x03] Work_Zone[1] = 7*
 90: 0x015A [0x01] GOTO 0x01BD
 91: 0x015D [0x02] IF !(Work_Zone[0] == 4*) GOTO 0x016D
 92: 0x0165 [0x03] Work_Zone[1] = 2*
 93: 0x016A [0x01] GOTO 0x01BD
 94: 0x016D [0x02] IF !(Work_Zone[0] == 5*) GOTO 0x017D
 95: 0x0175 [0x03] Work_Zone[1] = 9*
 96: 0x017A [0x01] GOTO 0x01BD
 97: 0x017D [0x02] IF !(Work_Zone[0] == 6*) GOTO 0x018D
 98: 0x0185 [0x03] Work_Zone[1] = 8*
 99: 0x018A [0x01] GOTO 0x01BD
100: 0x018D [0x02] IF !(Work_Zone[0] == 7*) GOTO 0x019D
101: 0x0195 [0x03] Work_Zone[1] = 5*
102: 0x019A [0x01] GOTO 0x01BD
103: 0x019D [0x02] IF !(Work_Zone[0] == 8*) GOTO 0x01AD
104: 0x01A5 [0x03] Work_Zone[1] = 1*
105: 0x01AA [0x01] GOTO 0x01BD
106: 0x01AD [0x02] IF !(Work_Zone[0] == 9*) GOTO 0x01BD
107: 0x01B5 [0x03] Work_Zone[1] = 0*
108: 0x01BA [0x01] GOTO 0x01BD

SUBROUTINE_01BD:
109: 0x01BD [0x1B] RETURN
```

#### Data or dead code:

```
# Dead code (unreachable instructions):
     0x00EB [0x01] GOTO 0x00EE
```

### Event 32742

#### Metadata

| Field        | Value    |
|--------------|----------|
| Entrypoint   | 0x01BE   |
| Data Size    | 23 bytes |
| Instructions | 11       |

```
      00 01 02 03 04 05 06 07  08 09 0A 0B 0C 0D 0E 0F
      -- -- -- -- -- -- -- --  -- -- -- -- -- -- -- --
01B0:                                            1E F0                ..
01C0: FF FF 7F 1D 1D 80 23 1D  1E 80 23 1D 1F 80 23 1D  ......#...#...#.
01D0: 20 80 23 21 00                                     .#!.           
```

#### Opcodes

```
  0: 0x01BE [0x1E] EventEntity looks at LocalPlayer and starts talking
  1: 0x01C3 [0x1D] PRINT_EVENT_MESSAGE(message_id=12432*)
    → "Are you bringing joy to the children of Vana'diel? Don't keep all that happiness to yourself, now!"
  2: 0x01C6 [0x23] WAIT_FOR_DIALOG_INTERACTION
  3: 0x01C7 [0x1D] PRINT_EVENT_MESSAGE(message_id=12433*)
    → "What's the best way to make a child smile? Why, presents, of course! Children nowadays want all kinds of goodies. I'm a bit behind the times, so I'm afraid I can't offer any good advice as to what would be the best present."
  4: 0x01CA [0x23] WAIT_FOR_DIALOG_INTERACTION
  5: 0x01CB [0x1D] PRINT_EVENT_MESSAGE(message_id=12434*)
    → "But if you want to avoid suspicion, you'll need a red hat like mine. All smilebringers have them!"
  6: 0x01CE [0x23] WAIT_FOR_DIALOG_INTERACTION
  7: 0x01CF [0x1D] PRINT_EVENT_MESSAGE(message_id=12435*)
    → "They should be for sale somewhere around here, so snap one up if you want it!"
  8: 0x01D2 [0x23] WAIT_FOR_DIALOG_INTERACTION
  9: 0x01D3 [0x21] END_EVENT
 10: 0x01D4 [0x00] END_REQSTACK()
```

### Event 32741

#### Metadata

| Field        | Value     |
|--------------|-----------|
| Entrypoint   | 0x01D5    |
| Data Size    | 195 bytes |
| Instructions | 51        |

```
      00 01 02 03 04 05 06 07  08 09 0A 0B 0C 0D 0E 0F
      -- -- -- -- -- -- -- --  -- -- -- -- -- -- -- --
01D0:                1E F0 FF  FF 7F 1D 21 80 23 1D 22       ......!.#."
01E0: 80 23 24 23 80 0C 80 02  10 25 02 00 10 0C 80 00  .#$#.....%......
01F0: FA 01 03 01 10 0C 80 01  96 02 02 00 10 0B 80 00  ................
0200: 2E 02 02 04 10 24 80 04  27 02 42 1D 25 80 23 AD  .....$..'.B.%.#.
0210: 00 26 80 F8 FF FF 7F F0  FF FF 7F 1C 27 80 30 03  .&..........'.0.
0220: 01 10 0B 80 01 2B 02 1D  28 80 23 01 96 02 02 00  .....+..(.#.....
0230: 10 17 80 00 62 02 02 04  10 24 80 04 5B 02 42 1D  ....b....$..[.B.
0240: 25 80 23 AD 00 26 80 F8  FF FF 7F F0 FF FF 7F 1C  %.#..&..........
0250: 27 80 30 03 01 10 17 80  01 5F 02 1D 28 80 23 01  '.0......_..(.#.
0260: 96 02 02 00 10 10 80 00  96 02 02 04 10 24 80 04  .............$..
0270: 8F 02 42 1D 25 80 23 AD  00 26 80 F8 FF FF 7F F0  ..B.%.#..&......
0280: FF FF 7F 1C 27 80 30 03  01 10 10 80 01 93 02 1D  ....'.0.........
0290: 28 80 23 01 96 02 21 00                           (.#...!.        
```

#### Opcodes

```
  0: 0x01D5 [0x1E] EventEntity looks at LocalPlayer and starts talking
  1: 0x01DA [0x1D] PRINT_EVENT_MESSAGE(message_id=12436*)
    → "[You haven't brought any happiness to the children!/You've done some good./You have done fairly well./You have given the children much joy!/You have brought smile upon smile to the children!/You have the children bursting with glee!/The children love you!] [What a disappointment./You just need to give a little extra effort!/Keep it up!/You make a good smilebringer./Excellent work!/Stupendous job!/Even I think you're great!]"
  2: 0x01DD [0x23] WAIT_FOR_DIALOG_INTERACTION
  3: 0x01DE [0x1D] PRINT_EVENT_MESSAGE(message_id=12437*)
    → "You can make good use of some of that joy you've brought to transport yourself to another nation. The children in other parts of Vana'diel need smiles, too!"
  4: 0x01E1 [0x23] WAIT_FOR_DIALOG_INTERACTION
  5: 0x01E2 [0x24] CREATE_DIALOG(message_id=12438*, default_option=0*, option_flags=Work_Zone[2])
    → "Transport to another nation? [Not now./Go to San d'Oria./Go to Bastok./Go to Windurst.]"
  6: 0x01E9 [0x25] WAIT_DIALOG_SELECT()
  7: 0x01EA [0x02] IF !(Work_Zone[0] == 0*) GOTO 0x01FA
  8: 0x01F2 [0x03] Work_Zone[1] = 0*
  9: 0x01F7 [0x01] GOTO 0x0296
 10: 0x01FA [0x02] IF !(Work_Zone[0] == 1*) GOTO 0x022E
 11: 0x0202 [0x02] IF !(Work_Zone[4] < 20*) GOTO 0x0227
 12: 0x020A [0x42] SET_CLI_EVENT_CANCEL_DATA()
 13: 0x020B [0x1D] PRINT_EVENT_MESSAGE(message_id=12439*)
    → "Happy travels!"
 14: 0x020E [0x23] WAIT_FOR_DIALOG_INTERACTION
 15: 0x020F [0xAD] DUAL_ENTITY_SCHEDULER_HANDLER: Execute sub-case 0 with entities [EventEntity, LocalPlayer], work=25*
 16: 0x021B [0x1C] WAIT(180* ticks)
 17: 0x021E [0x30] SET_UCOFF_CONTINUE_ZERO()
 18: 0x021F [0x03] Work_Zone[1] = 1*
 19: 0x0224 [0x01] GOTO 0x022B
 20: 0x0227 [0x1D] PRINT_EVENT_MESSAGE(message_id=12440*)
    → "Sorry, but it looks like you don't have enough joy and happiness in your life to do that. You can earn some by giving presents to children, though!"
 21: 0x022A [0x23] WAIT_FOR_DIALOG_INTERACTION

SUBROUTINE_022B:
 22: 0x022B [0x01] GOTO 0x0296
 23: 0x022E [0x02] IF !(Work_Zone[0] == 2*) GOTO 0x0262
 24: 0x0236 [0x02] IF !(Work_Zone[4] < 20*) GOTO 0x025B
 25: 0x023E [0x42] SET_CLI_EVENT_CANCEL_DATA()
 26: 0x023F [0x1D] PRINT_EVENT_MESSAGE(message_id=12439*)
    → "Happy travels!"
 27: 0x0242 [0x23] WAIT_FOR_DIALOG_INTERACTION
 28: 0x0243 [0xAD] DUAL_ENTITY_SCHEDULER_HANDLER: Execute sub-case 0 with entities [EventEntity, LocalPlayer], work=25*
 29: 0x024F [0x1C] WAIT(180* ticks)
 30: 0x0252 [0x30] SET_UCOFF_CONTINUE_ZERO()
 31: 0x0253 [0x03] Work_Zone[1] = 2*
 32: 0x0258 [0x01] GOTO 0x025F
 33: 0x025B [0x1D] PRINT_EVENT_MESSAGE(message_id=12440*)
    → "Sorry, but it looks like you don't have enough joy and happiness in your life to do that. You can earn some by giving presents to children, though!"
 34: 0x025E [0x23] WAIT_FOR_DIALOG_INTERACTION

SUBROUTINE_025F:
 35: 0x025F [0x01] GOTO 0x0296
 36: 0x0262 [0x02] IF !(Work_Zone[0] == 3*) GOTO 0x0296
 37: 0x026A [0x02] IF !(Work_Zone[4] < 20*) GOTO 0x028F
 38: 0x0272 [0x42] SET_CLI_EVENT_CANCEL_DATA()
 39: 0x0273 [0x1D] PRINT_EVENT_MESSAGE(message_id=12439*)
    → "Happy travels!"
 40: 0x0276 [0x23] WAIT_FOR_DIALOG_INTERACTION
 41: 0x0277 [0xAD] DUAL_ENTITY_SCHEDULER_HANDLER: Execute sub-case 0 with entities [EventEntity, LocalPlayer], work=25*
 42: 0x0283 [0x1C] WAIT(180* ticks)
 43: 0x0286 [0x30] SET_UCOFF_CONTINUE_ZERO()
 44: 0x0287 [0x03] Work_Zone[1] = 3*
 45: 0x028C [0x01] GOTO 0x0293
 46: 0x028F [0x1D] PRINT_EVENT_MESSAGE(message_id=12440*)
    → "Sorry, but it looks like you don't have enough joy and happiness in your life to do that. You can earn some by giving presents to children, though!"
 47: 0x0292 [0x23] WAIT_FOR_DIALOG_INTERACTION

SUBROUTINE_0293:
 48: 0x0293 [0x01] GOTO 0x0296

SUBROUTINE_0296:
 49: 0x0296 [0x21] END_EVENT
 50: 0x0297 [0x00] END_REQSTACK()
```
