# 17735831

## Common Data

| Field            | Value                  |
|------------------|------------------------|
| Zone             | Bastok Mines (ID: 234) |
| Block Size       | 3524 bytes             |
| Total Events     | 60                     |
| References Count | 220                    |

## List of Events

| Event ID                   | Entrypoint   |   Size |   Instructions |
|----------------------------|--------------|--------|----------------|
| [65535](#event-65535)      | 0x0000       |      1 |              1 |
| [513](#event-513)          | 0x0001       |      1 |              1 |
| [509](#event-509)          | 0x0002       |      1 |              1 |
| [65535.1](#event-655351)   | 0x0003       |      1 |              1 |
| [65535.2](#event-655352)   | 0x0004       |     10 |              2 |
| [65535.3](#event-655353)   | 0x000E       |     11 |              3 |
| [65535.4](#event-655354)   | 0x0019       |     15 |              2 |
| [65535.5](#event-655355)   | 0x0028       |     15 |              3 |
| [65535.6](#event-655356)   | 0x0037       |     34 |              4 |
| [65535.7](#event-655357)   | 0x0059       |      3 |              2 |
| [65535.8](#event-655358)   | 0x005C       |     52 |              6 |
| [65535.9](#event-655359)   | 0x0090       |     34 |              4 |
| [65535.10](#event-6553510) | 0x00B2       |     34 |              4 |
| [65535.11](#event-6553511) | 0x00D4       |     34 |              4 |
| [65535.12](#event-6553512) | 0x00F6       |     12 |              3 |
| [65535.13](#event-6553513) | 0x0102       |     10 |              2 |
| [65535.14](#event-6553514) | 0x010C       |     88 |             16 |
| [65535.15](#event-6553515) | 0x0164       |     10 |              2 |
| [65535.16](#event-6553516) | 0x016E       |     81 |             16 |
| [65535.17](#event-6553517) | 0x01BF       |     81 |             16 |
| [65535.18](#event-6553518) | 0x0210       |     10 |              2 |
| [65535.19](#event-6553519) | 0x021A       |     46 |              8 |
| [65535.20](#event-6553520) | 0x0248       |     10 |              2 |
| [65535.21](#event-6553521) | 0x0252       |    204 |             34 |
| [65535.22](#event-6553522) | 0x031E       |     10 |              2 |
| [65535.23](#event-6553523) | 0x0328       |     20 |              6 |
| [65535.24](#event-6553524) | 0x033C       |    105 |             16 |
| [65535.25](#event-6553525) | 0x03A5       |     37 |              7 |
| [65535.26](#event-6553526) | 0x03CA       |     10 |              2 |
| [65535.27](#event-6553527) | 0x03D4       |     10 |              2 |
| [65535.28](#event-6553528) | 0x03DE       |     10 |              2 |
| [65535.29](#event-6553529) | 0x03E8       |    136 |             20 |
| [65535.30](#event-6553530) | 0x0470       |    114 |             14 |
| [65535.31](#event-6553531) | 0x04E2       |    125 |             25 |
| [65535.32](#event-6553532) | 0x055F       |     10 |              2 |
| [65535.33](#event-6553533) | 0x0569       |     63 |             11 |
| [65535.34](#event-6553534) | 0x05A8       |     10 |              2 |
| [65535.35](#event-6553535) | 0x05B2       |     63 |             11 |
| [65535.36](#event-6553536) | 0x05F1       |     10 |              2 |
| [65535.37](#event-6553537) | 0x05FB       |     70 |             12 |
| [65535.38](#event-6553538) | 0x0641       |     10 |              2 |
| [65535.39](#event-6553539) | 0x064B       |    340 |             44 |
| [65535.40](#event-6553540) | 0x079F       |     25 |              7 |
| [65535.41](#event-6553541) | 0x07B8       |     38 |             10 |
| [65535.42](#event-6553542) | 0x07DE       |     14 |              4 |
| [65535.43](#event-6553543) | 0x07EC       |     14 |              4 |
| [65535.44](#event-6553544) | 0x07FA       |     10 |              2 |
| [65535.45](#event-6553545) | 0x0804       |     19 |              5 |
| [545](#event-545)          | 0x0817       |      1 |              1 |
| [65535.46](#event-6553546) | 0x0818       |     15 |              3 |
| [65535.47](#event-6553547) | 0x0827       |     48 |             11 |
| [65535.48](#event-6553548) | 0x0857       |      6 |              2 |
| [65535.49](#event-6553549) | 0x085D       |      6 |              2 |
| [65535.50](#event-6553550) | 0x0863       |     15 |              3 |
| [65535.51](#event-6553551) | 0x0872       |     15 |              3 |
| [65535.52](#event-6553552) | 0x0881       |     80 |             18 |
| [65535.53](#event-6553553) | 0x08D1       |     67 |             15 |
| [65535.54](#event-6553554) | 0x0914       |     14 |              4 |
| [65535.55](#event-6553555) | 0x0922       |     34 |              8 |
| [65535.56](#event-6553556) | 0x0944       |     14 |              4 |

## DAT References (imed_data)

|   Index | Hex Value   |   Dec Value |
|---------|-------------|-------------|
|       0 | 0xFFFFE4C1  |  4294960321 |
|       1 | 0xFFFE627B  |  4294861435 |
|       2 | 0x060C      |        1548 |
|       3 | 0x0C23      |        3107 |
|       4 | 0x0000      |           0 |
|       5 | 0xFFFFE015  |  4294959125 |
|       6 | 0xFFFE6442  |  4294861890 |
|       7 | 0x0DB4      |        3508 |
|       8 | 0x00DC      |         220 |
|       9 | 0x003C      |          60 |
|      10 | 0x00DF      |         223 |
|      11 | 0x0078      |         120 |
|      12 | 0xFFFFD026  |  4294955046 |
|      13 | 0xFFFE38C2  |  4294850754 |
|      14 | 0xFFFFFED4  |  4294966996 |
|      15 | 0x0C0C      |        3084 |
|      16 | 0xD178      |       53624 |
|      17 | 0x12F5      |        4853 |
|      18 | 0x0053      |          83 |
|      19 | 0x000F      |          15 |
|      20 | 0xDEA1      |       56993 |
|      21 | 0x147C      |        5244 |
|      22 | 0x001E      |          30 |
|      23 | 0x0472      |        1138 |
|      24 | 0xDE62      |       56930 |
|      25 | 0xFFFFF8BB  |  4294965435 |
|      26 | 0x07E0      |        2016 |
|      27 | 0x0090      |         144 |
|      28 | 0x7AFF      |       31487 |
|      29 | 0xFFFE9903  |  4294875395 |
|      30 | 0x0367      |         871 |
|      31 | 0x03F4      |        1012 |
|      32 | 0x0046      |          70 |
|      33 | 0x79EE      |       31214 |
|      34 | 0xFFFE947A  |  4294874234 |
|      35 | 0x73E8      |       29672 |
|      36 | 0xFFFE96C2  |  4294874818 |
|      37 | 0x76D9      |       30425 |
|      38 | 0xFFFE9E9A  |  4294876826 |
|      39 | 0x7CF0      |       31984 |
|      40 | 0xFFFE9AAC  |  4294875820 |
|      41 | 0x2922      |       10530 |
|      42 | 0xFFFEE6BD  |  4294895293 |
|      43 | 0x0B82      |        2946 |
|      44 | 0x3E0E      |       15886 |
|      45 | 0xFFFED803  |  4294891523 |
|      46 | 0xD572      |       54642 |
|      47 | 0xFFFEA619  |  4294878745 |
|      48 | 0x030A      |         778 |
|      49 | 0x0005      |           5 |
|      50 | 0x00DE      |         222 |
|      51 | 0x93EA      |       37866 |
|      52 | 0xFFFE91E5  |  4294873573 |
|      53 | 0x07C6      |        1990 |
|      54 | 0x0F7A      |        3962 |
|      55 | 0x086A      |        2154 |
|      56 | 0x9BC0      |       39872 |
|      57 | 0xFFFEB0F9  |  4294881529 |
|      58 | 0x0100      |         256 |
|      59 | 0xFFFFA5DA  |  4294944218 |
|      60 | 0xFFFF186A  |  4294908010 |
|      61 | 0xFFFFF449  |  4294964297 |
|      62 | 0x0CC7      |        3271 |
|      63 | 0xFFFFB794  |  4294948756 |
|      64 | 0xFFFF1490  |  4294907024 |
|      65 | 0x0107      |         263 |
|      66 | 0x00FE      |         254 |
|      67 | 0x00E0      |         224 |
|      68 | 0x0806      |        2054 |
|      69 | 0xB2F4      |       45812 |
|      70 | 0xFFFE4F65  |  4294856549 |
|      71 | 0x055E      |        1374 |
|      72 | 0x0BBF      |        3007 |
|      73 | 0xFFF9A5D6  |  4294550998 |
|      74 | 0xFFF9363A  |  4294522426 |
|      75 | 0x61A7      |       24999 |
|      76 | 0x01C0      |         448 |
|      77 | 0xFFFBBB7C  |  4294687612 |
|      78 | 0xFFFE6577  |  4294862199 |
|      79 | 0xFFFFD8F0  |  4294957296 |
|      80 | 0x0C2E      |        3118 |
|      81 | 0x0FC1      |        4033 |
|      82 | 0x0801      |        2049 |
|      83 | 0x0015      |          21 |
|      84 | 0x005A      |          90 |
|      85 | 0x0054      |          84 |
|      86 | 0x03E4      |         996 |
|      87 | 0x0014      |          20 |
|      88 | 0x0BFC      |        3068 |
|      89 | 0x001A      |          26 |
|      90 | 0xFFFD0083  |  4294770819 |
|      91 | 0x6C731     |      444209 |
|      92 | 0x0B40      |        2880 |
|      93 | 0xFFFCF784  |  4294768516 |
|      94 | 0x6E072     |      450674 |
|      95 | 0x01F3      |         499 |
|      96 | 0x000A      |          10 |
|      97 | 0xFFFC097D  |  4294707581 |
|      98 | 0xFFFDD9F9  |  4294826489 |
|      99 | 0xFFFFCD54  |  4294954324 |
|     100 | 0x08FC      |        2300 |
|     101 | 0xFFFBE68C  |  4294698636 |
|     102 | 0xFFFDE653  |  4294829651 |
|     103 | 0xFFFFC97E  |  4294953342 |
|     104 | 0xFFFA28AA  |  4294584490 |
|     105 | 0xFFFB8186  |  4294672774 |
|     106 | 0x5E3C      |       24124 |
|     107 | 0x0B3E      |        2878 |
|     108 | 0xFFFA172F  |  4294580015 |
|     109 | 0xFFFBB1A2  |  4294685090 |
|     110 | 0x5EDC      |       24284 |
|     111 | 0x0735      |        1845 |
|     112 | 0xA1D94     |      662932 |
|     113 | 0x4E656     |      321110 |
|     114 | 0x090F      |        2319 |
|     115 | 0x0C5D      |        3165 |
|     116 | 0xA17E0     |      661472 |
|     117 | 0x5262F     |      337455 |
|     118 | 0x08EE      |        2286 |
|     119 | 0xA0905     |      657669 |
|     120 | 0x53EFC     |      343804 |
|     121 | 0x095A      |        2394 |
|     122 | 0xA2192     |      663954 |
|     123 | 0x584BF     |      361663 |
|     124 | 0x08B1      |        2225 |
|     125 | 0x9E6DF     |      648927 |
|     126 | 0x5C439     |      377913 |
|     127 | 0x0A6C      |        2668 |
|     128 | 0x00C7      |         199 |
|     129 | 0x9A6E7     |      632551 |
|     130 | 0x5CB40     |      379712 |
|     131 | 0x099C      |        2460 |
|     132 | 0x989F9     |      625145 |
|     133 | 0x622B4     |      402100 |
|     134 | 0x07CB      |        1995 |
|     135 | 0x923F7     |      599031 |
|     136 | 0x67F43     |      425795 |
|     137 | 0x075E      |        1886 |
|     138 | 0xFFFD2848  |  4294781000 |
|     139 | 0x6DE2B     |      450091 |
|     140 | 0x0597      |        1431 |
|     141 | 0xFFFD3C14  |  4294786068 |
|     142 | 0x6D881     |      448641 |
|     143 | 0x0431      |        1073 |
|     144 | 0xFFFD3043  |  4294783043 |
|     145 | 0x6D144     |      446788 |
|     146 | 0x01E7      |         487 |
|     147 | 0xFFFD2577  |  4294780279 |
|     148 | 0x6D329     |      447273 |
|     149 | 0x0198      |         408 |
|     150 | 0xAA9E      |       43678 |
|     151 | 0xFFFE6BAE  |  4294863790 |
|     152 | 0x036A      |         874 |
|     153 | 0x01BF      |         447 |
|     154 | 0xBCAC      |       48300 |
|     155 | 0xFFFE5DEC  |  4294860268 |
|     156 | 0xFFF6BBFE  |  4294360062 |
|     157 | 0x924FF     |      599295 |
|     158 | 0x00A0      |         160 |
|     159 | 0x0179      |         377 |
|     160 | 0x0001      |           1 |
|     161 | 0xFFF6C5B9  |  4294362553 |
|     162 | 0x92AF2     |      600818 |
|     163 | 0x0023      |          35 |
|     164 | 0xFFF6B7C3  |  4294358979 |
|     165 | 0x92A37     |      600631 |
|     166 | 0x00D6      |         214 |
|     167 | 0xFFF6C07A  |  4294361210 |
|     168 | 0x92ED0     |      601808 |
|     169 | 0x0066      |         102 |
|     170 | 0xFFF6D7C0  |  4294367168 |
|     171 | 0x8EF6A     |      585578 |
|     172 | 0x0274      |         628 |
|     173 | 0x011C      |         284 |
|     174 | 0xFFF6D069  |  4294365289 |
|     175 | 0x8F7F4     |      587764 |
|     176 | 0x010C      |         268 |
|     177 | 0xFFF6D0CA  |  4294365386 |
|     178 | 0x8F7DF     |      587743 |
|     179 | 0x0112      |         274 |
|     180 | 0xFFF6D779  |  4294367097 |
|     181 | 0x8FCC2     |      588994 |
|     182 | 0x015B      |         347 |
|     183 | 0xFFF6DB55  |  4294368085 |
|     184 | 0x8F169     |      586089 |
|     185 | 0x024A      |         586 |
|     186 | 0xFFF6DAA1  |  4294367905 |
|     187 | 0x8E6CF     |      583375 |
|     188 | 0x033E      |         830 |
|     189 | 0x0C58      |        3160 |
|     190 | 0x0154      |         340 |
|     191 | 0x002D      |          45 |
|     192 | 0xFFF6DB01  |  4294368001 |
|     193 | 0x90356     |      590678 |
|     194 | 0x0108      |         264 |
|     195 | 0x03BF      |         959 |
|     196 | 0xFFF6C73F  |  4294362943 |
|     197 | 0x8F234     |      586292 |
|     198 | 0x008A      |         138 |
|     199 | 0x0025      |          37 |
|     200 | 0x00F0      |         240 |
|     201 | 0xFFF6D6F8  |  4294366968 |
|     202 | 0x8E30A     |      582410 |
|     203 | 0x0322      |         802 |
|     204 | 0x0BD3      |        3027 |
|     205 | 0xFFF6D2A6  |  4294365862 |
|     206 | 0x8FA8C     |      588428 |
|     207 | 0x0138      |         312 |
|     208 | 0xFFF6C79F  |  4294363039 |
|     209 | 0x8F34D     |      586573 |
|     210 | 0x0039      |          57 |
|     211 | 0xFFF6CB4A  |  4294363978 |
|     212 | 0x8FAEF     |      588527 |
|     213 | 0x00C4      |         196 |
|     214 | 0xFFF6D94C  |  4294367564 |
|     215 | 0x8EC18     |      584728 |
|     216 | 0x02D3      |         723 |
|     217 | 0xFFF6C219  |  4294361625 |
|     218 | 0x8E860     |      583776 |
|     219 | 0xFFFFFF94  |  4294967188 |

## Events

### Event 65535

#### Metadata

| Field        | Value   |
|--------------|---------|
| Entrypoint   | 0x0000  |
| Data Size    | 1 bytes |
| Instructions | 1       |

```
      00 01 02 03 04 05 06 07  08 09 0A 0B 0C 0D 0E 0F
      -- -- -- -- -- -- -- --  -- -- -- -- -- -- -- --
0000: 00                                                .               
```

#### Opcodes

```
  0: 0x0000 [0x00] END_REQSTACK()
```

### Event 513

#### Metadata

| Field        | Value   |
|--------------|---------|
| Entrypoint   | 0x0001  |
| Data Size    | 1 bytes |
| Instructions | 1       |

```
      00 01 02 03 04 05 06 07  08 09 0A 0B 0C 0D 0E 0F
      -- -- -- -- -- -- -- --  -- -- -- -- -- -- -- --
0000:    00                                              .              
```

#### Opcodes

```
  0: 0x0001 [0x00] END_REQSTACK()
```

### Event 509

#### Metadata

| Field        | Value   |
|--------------|---------|
| Entrypoint   | 0x0002  |
| Data Size    | 1 bytes |
| Instructions | 1       |

```
      00 01 02 03 04 05 06 07  08 09 0A 0B 0C 0D 0E 0F
      -- -- -- -- -- -- -- --  -- -- -- -- -- -- -- --
0000:       00                                            .             
```

#### Opcodes

```
  0: 0x0002 [0x00] END_REQSTACK()
```

### Event 65535.1

#### Metadata

| Field        | Value   |
|--------------|---------|
| Entrypoint   | 0x0003  |
| Data Size    | 1 bytes |
| Instructions | 1       |

```
      00 01 02 03 04 05 06 07  08 09 0A 0B 0C 0D 0E 0F
      -- -- -- -- -- -- -- --  -- -- -- -- -- -- -- --
0000:          00                                          .            
```

#### Opcodes

```
  0: 0x0003 [0x00] END_REQSTACK()
```

### Event 65535.2

#### Metadata

| Field        | Value    |
|--------------|----------|
| Entrypoint   | 0x0004   |
| Data Size    | 10 bytes |
| Instructions | 2        |

```
      00 01 02 03 04 05 06 07  08 09 0A 0B 0C 0D 0E 0F
      -- -- -- -- -- -- -- --  -- -- -- -- -- -- -- --
0000:             37 00 80 01  80 02 80 03 80 00            7.........  
```

#### Opcodes

```
  0: 0x0004 [0x37] UPDATE_EVENT_POSITION_AND_DIR: x=-6.975*, z=-105.861*, y=1.548*, direction=273.1°*
  1: 0x000D [0x00] END_REQSTACK()
```

### Event 65535.3

#### Metadata

| Field        | Value    |
|--------------|----------|
| Entrypoint   | 0x000E   |
| Data Size    | 11 bytes |
| Instructions | 3        |

```
      00 01 02 03 04 05 06 07  08 09 0A 0B 0C 0D 0E 0F
      -- -- -- -- -- -- -- --  -- -- -- -- -- -- -- --
0000:                                            B4 01                ..
0010: 00 00 04 80 B5 00 00 00  00                       .........       
```

#### Opcodes

```
  0: 0x000E [0xB4] UI_WINDOW_STRING_HANDLER(case=0x01 - Copy string from event strings table, work_offset=ExtData[1]->WorkLocal[0], string_index=0*)
  1: 0x0014 [0xB5] SET_EVENT_ENTITY_NAME: Change EventEntity name to ExtData[1]->WorkLocal[0]
  2: 0x0018 [0x00] END_REQSTACK()
```

### Event 65535.4

#### Metadata

| Field        | Value    |
|--------------|----------|
| Entrypoint   | 0x0019   |
| Data Size    | 15 bytes |
| Instructions | 2        |

```
      00 01 02 03 04 05 06 07  08 09 0A 0B 0C 0D 0E 0F
      -- -- -- -- -- -- -- --  -- -- -- -- -- -- -- --
0010:                             B6 0D 04 10 05 10 06           .......
0020: 10 07 10 08 10 09 10 00                           ........        
```

#### Opcodes

```
  0: 0x0019 [0xB6] ENTITY_APPEARANCE_HANDLER(case=Look with Render flags, race=Work_Zone[4], face=Work_Zone[5], head=Work_Zone[6], body=Work_Zone[7], hands=Work_Zone[8], render_flags=0x1009)
  1: 0x0027 [0x00] END_REQSTACK()
```

### Event 65535.5

#### Metadata

| Field        | Value    |
|--------------|----------|
| Entrypoint   | 0x0028   |
| Data Size    | 15 bytes |
| Instructions | 3        |

```
      00 01 02 03 04 05 06 07  08 09 0A 0B 0C 0D 0E 0F
      -- -- -- -- -- -- -- --  -- -- -- -- -- -- -- --
0020:                          37 05 80 06 80 02 80 07          7.......
0030: 80 80 F8 FF FF 7F 00                              .......         
```

#### Opcodes

```
  0: 0x0028 [0x37] UPDATE_EVENT_POSITION_AND_DIR: x=-8.171*, z=-105.406*, y=1.548*, direction=308.3°*
  1: 0x0031 [0x80] LOAD_WAIT(entity=EventEntity)
  2: 0x0036 [0x00] END_REQSTACK()
```

### Event 65535.6

#### Metadata

| Field        | Value    |
|--------------|----------|
| Entrypoint   | 0x0037   |
| Data Size    | 34 bytes |
| Instructions | 4        |

```
      00 01 02 03 04 05 06 07  08 09 0A 0B 0C 0D 0E 0F
      -- -- -- -- -- -- -- --  -- -- -- -- -- -- -- --
0030:                      5B  08 80 97 A0 0E 01 97 A0         [........
0040: 0E 01 74 6F 6E 30 1C 09  80 5B 08 80 97 A0 0E 01  ..ton0...[......
0050: 97 A0 0E 01 74 6F 6E 31  00                       ....ton1.       
```

#### Opcodes

```
  0: 0x0037 [0x5B] LOAD_EXT_SCHEDULER: Load scheduler "ton0" with entities [Unnamed NPC (ID: 17735831/0x010EA097), Unnamed NPC (ID: 17735831/0x010EA097)], work=220*
  1: 0x0046 [0x1C] WAIT(60* ticks)
  2: 0x0049 [0x5B] LOAD_EXT_SCHEDULER: Load scheduler "ton1" with entities [Unnamed NPC (ID: 17735831/0x010EA097), Unnamed NPC (ID: 17735831/0x010EA097)], work=220*
  3: 0x0058 [0x00] END_REQSTACK()
```

### Event 65535.7

#### Metadata

| Field        | Value   |
|--------------|---------|
| Entrypoint   | 0x0059  |
| Data Size    | 3 bytes |
| Instructions | 2       |

```
      00 01 02 03 04 05 06 07  08 09 0A 0B 0C 0D 0E 0F
      -- -- -- -- -- -- -- --  -- -- -- -- -- -- -- --
0050:                             33 00 00                       3..    
```

#### Opcodes

```
  0: 0x0059 [0x33] EventEntity->Render.Flags0 &= ~ 0x200000 // Bit 21 (flag=0x00)
  1: 0x005B [0x00] END_REQSTACK()
```

### Event 65535.8

#### Metadata

| Field        | Value    |
|--------------|----------|
| Entrypoint   | 0x005C   |
| Data Size    | 52 bytes |
| Instructions | 6        |

```
      00 01 02 03 04 05 06 07  08 09 0A 0B 0C 0D 0E 0F
      -- -- -- -- -- -- -- --  -- -- -- -- -- -- -- --
0050:                                      5B 0A 80 97              [...
0060: A0 0E 01 97 A0 0E 01 6B  69 63 6B 1C 0B 80 5B 0A  .......kick...[.
0070: 80 97 A0 0E 01 97 A0 0E  01 74 75 6B 69 1C 0B 80  .........tuki...
0080: 5B 0A 80 97 A0 0E 01 97  A0 0E 01 66 75 72 69 00  [..........furi.
```

#### Opcodes

```
  0: 0x005C [0x5B] LOAD_EXT_SCHEDULER: Load scheduler "kick" with entities [Unnamed NPC (ID: 17735831/0x010EA097), Unnamed NPC (ID: 17735831/0x010EA097)], work=223*
  1: 0x006B [0x1C] WAIT(120* ticks)
  2: 0x006E [0x5B] LOAD_EXT_SCHEDULER: Load scheduler "tuki" with entities [Unnamed NPC (ID: 17735831/0x010EA097), Unnamed NPC (ID: 17735831/0x010EA097)], work=223*
  3: 0x007D [0x1C] WAIT(120* ticks)
  4: 0x0080 [0x5B] LOAD_EXT_SCHEDULER: Load scheduler "furi" with entities [Unnamed NPC (ID: 17735831/0x010EA097), Unnamed NPC (ID: 17735831/0x010EA097)], work=223*
  5: 0x008F [0x00] END_REQSTACK()
```

### Event 65535.9

#### Metadata

| Field        | Value    |
|--------------|----------|
| Entrypoint   | 0x0090   |
| Data Size    | 34 bytes |
| Instructions | 4        |

```
      00 01 02 03 04 05 06 07  08 09 0A 0B 0C 0D 0E 0F
      -- -- -- -- -- -- -- --  -- -- -- -- -- -- -- --
0090: 5B 0A 80 97 A0 0E 01 97  A0 0E 01 6B 69 63 6B 1C  [..........kick.
00A0: 0B 80 5B 0A 80 97 A0 0E  01 97 A0 0E 01 74 75 6B  ..[..........tuk
00B0: 69 00                                             i.              
```

#### Opcodes

```
  0: 0x0090 [0x5B] LOAD_EXT_SCHEDULER: Load scheduler "kick" with entities [Unnamed NPC (ID: 17735831/0x010EA097), Unnamed NPC (ID: 17735831/0x010EA097)], work=223*
  1: 0x009F [0x1C] WAIT(120* ticks)
  2: 0x00A2 [0x5B] LOAD_EXT_SCHEDULER: Load scheduler "tuki" with entities [Unnamed NPC (ID: 17735831/0x010EA097), Unnamed NPC (ID: 17735831/0x010EA097)], work=223*
  3: 0x00B1 [0x00] END_REQSTACK()
```

### Event 65535.10

#### Metadata

| Field        | Value    |
|--------------|----------|
| Entrypoint   | 0x00B2   |
| Data Size    | 34 bytes |
| Instructions | 4        |

```
      00 01 02 03 04 05 06 07  08 09 0A 0B 0C 0D 0E 0F
      -- -- -- -- -- -- -- --  -- -- -- -- -- -- -- --
00B0:       5B 0A 80 97 A0 0E  01 97 A0 0E 01 6B 69 63    [..........kic
00C0: 6B 1C 0B 80 5B 0A 80 97  A0 0E 01 97 A0 0E 01 66  k...[..........f
00D0: 75 72 69 00                                       uri.            
```

#### Opcodes

```
  0: 0x00B2 [0x5B] LOAD_EXT_SCHEDULER: Load scheduler "kick" with entities [Unnamed NPC (ID: 17735831/0x010EA097), Unnamed NPC (ID: 17735831/0x010EA097)], work=223*
  1: 0x00C1 [0x1C] WAIT(120* ticks)
  2: 0x00C4 [0x5B] LOAD_EXT_SCHEDULER: Load scheduler "furi" with entities [Unnamed NPC (ID: 17735831/0x010EA097), Unnamed NPC (ID: 17735831/0x010EA097)], work=223*
  3: 0x00D3 [0x00] END_REQSTACK()
```

### Event 65535.11

#### Metadata

| Field        | Value    |
|--------------|----------|
| Entrypoint   | 0x00D4   |
| Data Size    | 34 bytes |
| Instructions | 4        |

```
      00 01 02 03 04 05 06 07  08 09 0A 0B 0C 0D 0E 0F
      -- -- -- -- -- -- -- --  -- -- -- -- -- -- -- --
00D0:             5B 0A 80 97  A0 0E 01 97 A0 0E 01 74      [..........t
00E0: 75 6B 69 1C 0B 80 5B 0A  80 97 A0 0E 01 97 A0 0E  uki...[.........
00F0: 01 66 75 72 69 00                                 .furi.          
```

#### Opcodes

```
  0: 0x00D4 [0x5B] LOAD_EXT_SCHEDULER: Load scheduler "tuki" with entities [Unnamed NPC (ID: 17735831/0x010EA097), Unnamed NPC (ID: 17735831/0x010EA097)], work=223*
  1: 0x00E3 [0x1C] WAIT(120* ticks)
  2: 0x00E6 [0x5B] LOAD_EXT_SCHEDULER: Load scheduler "furi" with entities [Unnamed NPC (ID: 17735831/0x010EA097), Unnamed NPC (ID: 17735831/0x010EA097)], work=223*
  3: 0x00F5 [0x00] END_REQSTACK()
```

### Event 65535.12

#### Metadata

| Field        | Value    |
|--------------|----------|
| Entrypoint   | 0x00F6   |
| Data Size    | 12 bytes |
| Instructions | 3        |

```
      00 01 02 03 04 05 06 07  08 09 0A 0B 0C 0D 0E 0F
      -- -- -- -- -- -- -- --  -- -- -- -- -- -- -- --
00F0:                   33 01  37 0C 80 0D 80 0E 80 0F        3.7.......
0100: 80 00                                             ..              
```

#### Opcodes

```
  0: 0x00F6 [0x33] EventEntity->Render.Flags0 |= 0x200000 // Bit 21 (flag=0x01)
  1: 0x00F8 [0x37] UPDATE_EVENT_POSITION_AND_DIR: x=-12.250*, z=-116.542*, y=-0.300*, direction=271.0°*
  2: 0x0101 [0x00] END_REQSTACK()
```

### Event 65535.13

#### Metadata

| Field        | Value    |
|--------------|----------|
| Entrypoint   | 0x0102   |
| Data Size    | 10 bytes |
| Instructions | 2        |

```
      00 01 02 03 04 05 06 07  08 09 0A 0B 0C 0D 0E 0F
      -- -- -- -- -- -- -- --  -- -- -- -- -- -- -- --
0100:       37 10 80 11 80 04  80 12 80 00                7.........    
```

#### Opcodes

```
  0: 0x0102 [0x37] UPDATE_EVENT_POSITION_AND_DIR: x=53.624*, z=4.853*, y=0.000*, direction=7.3°*
  1: 0x010B [0x00] END_REQSTACK()
```

### Event 65535.14

#### Metadata

| Field        | Value    |
|--------------|----------|
| Entrypoint   | 0x010C   |
| Data Size    | 88 bytes |
| Instructions | 16       |

```
      00 01 02 03 04 05 06 07  08 09 0A 0B 0C 0D 0E 0F
      -- -- -- -- -- -- -- --  -- -- -- -- -- -- -- --
0100:                                      32 13 80 1F              2...
0110: 00 14 80 15 80 04 80 1F  01 1C 16 80 4B 97 A0 0E  ............K...
0120: 01 17 80 1C 16 80 32 13  80 1F 00 18 80 19 80 04  ......2.........
0130: 80 1F 01 1C 16 80 4B 97  A0 0E 01 1A 80 1C 16 80  ......K.........
0140: 5B 0A 80 97 A0 0E 01 97  A0 0E 01 6E 61 6B 30 45  [..........nak0E
0150: 1B 80 F0 FF FF 7F F0 FF  FF 7F 6E 61 6B 32 04 80  ..........nak2..
0160: 1C 0B 80 00                                       ....            
```

#### Opcodes

```
  0: 0x010C [0x32] ExtData[1]->MainSpeed = 15* * 0.1
  1: 0x010F [0x1F] MOVE_ENTITY: EventEntity moves to X=56.993*, Z=5.244*, Y=0.000*
  2: 0x0117 [0x1F] MOVE_ENTITY: Update entity position (mode=1)
  3: 0x0119 [0x1C] WAIT(30* ticks)
  4: 0x011C [0x4B] UPDATE_ENTITY_YAW(entity=Unnamed NPC (ID: 17735831/0x010EA097), yaw=6.3°*)
  5: 0x0123 [0x1C] WAIT(30* ticks)
  6: 0x0126 [0x32] ExtData[1]->MainSpeed = 15* * 0.1
  7: 0x0129 [0x1F] MOVE_ENTITY: EventEntity moves to X=56.930*, Z=-1.861*, Y=0.000*
  8: 0x0131 [0x1F] MOVE_ENTITY: Update entity position (mode=1)
  9: 0x0133 [0x1C] WAIT(30* ticks)
 10: 0x0136 [0x4B] UPDATE_ENTITY_YAW(entity=Unnamed NPC (ID: 17735831/0x010EA097), yaw=11.1°*)
 11: 0x013D [0x1C] WAIT(30* ticks)
 12: 0x0140 [0x5B] LOAD_EXT_SCHEDULER: Load scheduler "nak0" with entities [Unnamed NPC (ID: 17735831/0x010EA097), Unnamed NPC (ID: 17735831/0x010EA097)], work=223*
 13: 0x014F [0x45] LOAD_SCHEDULED_TASK: Load scheduler "nak2" with entities [LocalPlayer, LocalPlayer], work=[144*, 0*]
 14: 0x0160 [0x1C] WAIT(120* ticks)
 15: 0x0163 [0x00] END_REQSTACK()
```

### Event 65535.15

#### Metadata

| Field        | Value    |
|--------------|----------|
| Entrypoint   | 0x0164   |
| Data Size    | 10 bytes |
| Instructions | 2        |

```
      00 01 02 03 04 05 06 07  08 09 0A 0B 0C 0D 0E 0F
      -- -- -- -- -- -- -- --  -- -- -- -- -- -- -- --
0160:             37 1C 80 1D  80 1E 80 1F 80 00            7.........  
```

#### Opcodes

```
  0: 0x0164 [0x37] UPDATE_EVENT_POSITION_AND_DIR: x=31.487*, z=-91.901*, y=0.871*, direction=88.9°*
  1: 0x016D [0x00] END_REQSTACK()
```

### Event 65535.16

#### Metadata

| Field        | Value    |
|--------------|----------|
| Entrypoint   | 0x016E   |
| Data Size    | 81 bytes |
| Instructions | 16       |

```
      00 01 02 03 04 05 06 07  08 09 0A 0B 0C 0D 0E 0F
      -- -- -- -- -- -- -- --  -- -- -- -- -- -- -- --
0160:                                            32 20                2 
0170: 80 1F 00 21 80 22 80 1E  80 1F 01 1F 00 23 80 24  ...!.".......#.$
0180: 80 1E 80 1F 01 1F 00 25  80 26 80 1E 80 1F 01 1F  .......%.&......
0190: 00 27 80 28 80 1E 80 1F  01 1F 00 1C 80 1D 80 1E  .'.(............
01A0: 80 1F 01 02 4D 10 04 80  00 B5 01 27 05 97 A0 0E  ....M......'....
01B0: 01 13 01 BE 01 37 04 80  04 80 04 80 04 80 00     .....7......... 
```

#### Opcodes

```
  0: 0x016E [0x32] ExtData[1]->MainSpeed = 70* * 0.1
  1: 0x0171 [0x1F] MOVE_ENTITY: EventEntity moves to X=31.214*, Z=-93.062*, Y=0.871*
  2: 0x0179 [0x1F] MOVE_ENTITY: Update entity position (mode=1)
  3: 0x017B [0x1F] MOVE_ENTITY: EventEntity moves to X=29.672*, Z=-92.478*, Y=0.871*
  4: 0x0183 [0x1F] MOVE_ENTITY: Update entity position (mode=1)
  5: 0x0185 [0x1F] MOVE_ENTITY: EventEntity moves to X=30.425*, Z=-90.470*, Y=0.871*
  6: 0x018D [0x1F] MOVE_ENTITY: Update entity position (mode=1)
  7: 0x018F [0x1F] MOVE_ENTITY: EventEntity moves to X=31.984*, Z=-91.476*, Y=0.871*
  8: 0x0197 [0x1F] MOVE_ENTITY: Update entity position (mode=1)
  9: 0x0199 [0x1F] MOVE_ENTITY: EventEntity moves to X=31.487*, Z=-91.901*, Y=0.871*
 10: 0x01A1 [0x1F] MOVE_ENTITY: Update entity position (mode=1)
 11: 0x01A3 [0x02] IF !(Work_Zone[77] == 0*) GOTO 0x01B5
 12: 0x01AB [0x27] REQ_SET(priority=0x05, entity_id=Unnamed NPC (ID: 17735831/0x010EA097), tag_num=0x13)
 13: 0x01B2 [0x01] GOTO 0x01BE
 14: 0x01B5 [0x37] UPDATE_EVENT_POSITION_AND_DIR: x=0.000*, z=0.000*, y=0.000*, direction=0.0°*

SUBROUTINE_01BE:
 15: 0x01BE [0x00] END_REQSTACK()
```

### Event 65535.17

#### Metadata

| Field        | Value    |
|--------------|----------|
| Entrypoint   | 0x01BF   |
| Data Size    | 81 bytes |
| Instructions | 16       |

```
      00 01 02 03 04 05 06 07  08 09 0A 0B 0C 0D 0E 0F
      -- -- -- -- -- -- -- --  -- -- -- -- -- -- -- --
01B0:                                               32                 2
01C0: 20 80 1F 00 21 80 22 80  1E 80 1F 01 1F 00 23 80   ...!.".......#.
01D0: 24 80 1E 80 1F 01 1F 00  25 80 26 80 1E 80 1F 01  $.......%.&.....
01E0: 1F 00 27 80 28 80 1E 80  1F 01 1F 00 1C 80 1D 80  ..'.(...........
01F0: 1E 80 1F 01 02 4D 10 04  80 00 06 02 27 05 97 A0  .....M......'...
0200: 0E 01 12 01 0F 02 37 04  80 04 80 04 80 04 80 00  ......7.........
```

#### Opcodes

```
  0: 0x01BF [0x32] ExtData[1]->MainSpeed = 70* * 0.1
  1: 0x01C2 [0x1F] MOVE_ENTITY: EventEntity moves to X=31.214*, Z=-93.062*, Y=0.871*
  2: 0x01CA [0x1F] MOVE_ENTITY: Update entity position (mode=1)
  3: 0x01CC [0x1F] MOVE_ENTITY: EventEntity moves to X=29.672*, Z=-92.478*, Y=0.871*
  4: 0x01D4 [0x1F] MOVE_ENTITY: Update entity position (mode=1)
  5: 0x01D6 [0x1F] MOVE_ENTITY: EventEntity moves to X=30.425*, Z=-90.470*, Y=0.871*
  6: 0x01DE [0x1F] MOVE_ENTITY: Update entity position (mode=1)
  7: 0x01E0 [0x1F] MOVE_ENTITY: EventEntity moves to X=31.984*, Z=-91.476*, Y=0.871*
  8: 0x01E8 [0x1F] MOVE_ENTITY: Update entity position (mode=1)
  9: 0x01EA [0x1F] MOVE_ENTITY: EventEntity moves to X=31.487*, Z=-91.901*, Y=0.871*
 10: 0x01F2 [0x1F] MOVE_ENTITY: Update entity position (mode=1)
 11: 0x01F4 [0x02] IF !(Work_Zone[77] == 0*) GOTO 0x0206
 12: 0x01FC [0x27] REQ_SET(priority=0x05, entity_id=Unnamed NPC (ID: 17735831/0x010EA097), tag_num=0x12)
 13: 0x0203 [0x01] GOTO 0x020F
 14: 0x0206 [0x37] UPDATE_EVENT_POSITION_AND_DIR: x=0.000*, z=0.000*, y=0.000*, direction=0.0°*

SUBROUTINE_020F:
 15: 0x020F [0x00] END_REQSTACK()
```

### Event 65535.18

#### Metadata

| Field        | Value    |
|--------------|----------|
| Entrypoint   | 0x0210   |
| Data Size    | 10 bytes |
| Instructions | 2        |

```
      00 01 02 03 04 05 06 07  08 09 0A 0B 0C 0D 0E 0F
      -- -- -- -- -- -- -- --  -- -- -- -- -- -- -- --
0210: 37 29 80 2A 80 04 80 2B  80 00                    7).*...+..      
```

#### Opcodes

```
  0: 0x0210 [0x37] UPDATE_EVENT_POSITION_AND_DIR: x=10.530*, z=-72.003*, y=0.000*, direction=258.9°*
  1: 0x0219 [0x00] END_REQSTACK()
```

### Event 65535.19

#### Metadata

| Field        | Value    |
|--------------|----------|
| Entrypoint   | 0x021A   |
| Data Size    | 46 bytes |
| Instructions | 8        |

```
      00 01 02 03 04 05 06 07  08 09 0A 0B 0C 0D 0E 0F
      -- -- -- -- -- -- -- --  -- -- -- -- -- -- -- --
0210:                                32 20 80 1F 00 2C            2 ...,
0220: 80 2D 80 04 80 1F 01 37  2E 80 2F 80 1E 80 30 80  .-.....7../...0.
0230: 80 F8 FF FF 7F 1C 31 80  5B 32 80 97 A0 0E 01 97  ......1.[2......
0240: A0 0E 01 73 6C 70 30 00                           ...slp0.        
```

#### Opcodes

```
  0: 0x021A [0x32] ExtData[1]->MainSpeed = 70* * 0.1
  1: 0x021D [0x1F] MOVE_ENTITY: EventEntity moves to X=15.886*, Z=-75.773*, Y=0.000*
  2: 0x0225 [0x1F] MOVE_ENTITY: Update entity position (mode=1)
  3: 0x0227 [0x37] UPDATE_EVENT_POSITION_AND_DIR: x=54.642*, z=-88.551*, y=0.871*, direction=68.4°*
  4: 0x0230 [0x80] LOAD_WAIT(entity=EventEntity)
  5: 0x0235 [0x1C] WAIT(5* ticks)
  6: 0x0238 [0x5B] LOAD_EXT_SCHEDULER: Load scheduler "slp0" with entities [Unnamed NPC (ID: 17735831/0x010EA097), Unnamed NPC (ID: 17735831/0x010EA097)], work=222*
  7: 0x0247 [0x00] END_REQSTACK()
```

### Event 65535.20

#### Metadata

| Field        | Value    |
|--------------|----------|
| Entrypoint   | 0x0248   |
| Data Size    | 10 bytes |
| Instructions | 2        |

```
      00 01 02 03 04 05 06 07  08 09 0A 0B 0C 0D 0E 0F
      -- -- -- -- -- -- -- --  -- -- -- -- -- -- -- --
0240:                          37 33 80 34 80 1E 80 35          73.4...5
0250: 80 00                                             ..              
```

#### Opcodes

```
  0: 0x0248 [0x37] UPDATE_EVENT_POSITION_AND_DIR: x=37.866*, z=-93.723*, y=0.871*, direction=174.9°*
  1: 0x0251 [0x00] END_REQSTACK()
```

### Event 65535.21

#### Metadata

| Field        | Value     |
|--------------|-----------|
| Entrypoint   | 0x0252    |
| Data Size    | 204 bytes |
| Instructions | 34        |

```
      00 01 02 03 04 05 06 07  08 09 0A 0B 0C 0D 0E 0F
      -- -- -- -- -- -- -- --  -- -- -- -- -- -- -- --
0250:       2A 05 98 A0 0E 01  2A 0F 99 A0 0E 01 2A 14    *.....*.....*.
0260: 9A A0 0E 01 2A 19 9B A0  0E 01 4B 97 A0 0E 01 36  ....*.....K....6
0270: 80 1C 09 80 4B 97 A0 0E  01 37 80 29 05 98 A0 0E  ....K....7.)....
0280: 01 0C 29 05 99 A0 0E 01  0A 29 05 9A A0 0E 01 0A  ..)......)......
0290: 29 05 9B A0 0E 01 0A 4B  97 A0 0E 01 36 80 1C 09  )......K....6...
02A0: 80 4B 97 A0 0E 01 37 80  29 05 98 A0 0E 01 0D 29  .K....7.)......)
02B0: 05 99 A0 0E 01 0B 29 05  9A A0 0E 01 0B 29 05 9B  ......)......)..
02C0: A0 0E 01 0B 4B 97 A0 0E  01 36 80 1C 09 80 4B 97  ....K....6....K.
02D0: A0 0E 01 37 80 29 05 98  A0 0E 01 0E 29 05 99 A0  ...7.)......)...
02E0: 0E 01 0C 29 05 9A A0 0E  01 0C 29 05 9B A0 0E 01  ...)......).....
02F0: 0C 27 05 9B A0 0E 01 0D  27 0F 9A A0 0E 01 0D 27  .'......'......'
0300: 14 99 A0 0E 01 0D 27 19  98 A0 0E 01 0F 1C 16 80  ......'.........
0310: 32 20 80 1F 00 38 80 39  80 3A 80 1F 01 00        2 ...8.9.:....  
```

#### Opcodes

```
  0: 0x0252 [0x2A] GET_REQ_LEVEL(level=5, entity_id=Unnamed NPC (ID: 17735832/0x010EA098))
  1: 0x0258 [0x2A] GET_REQ_LEVEL(level=15, entity_id=Unnamed NPC (ID: 17735833/0x010EA099))
  2: 0x025E [0x2A] GET_REQ_LEVEL(level=20, entity_id=Unnamed NPC (ID: 17735834/0x010EA09A))
  3: 0x0264 [0x2A] GET_REQ_LEVEL(level=25, entity_id=Unnamed NPC (ID: 17735835/0x010EA09B))
  4: 0x026A [0x4B] UPDATE_ENTITY_YAW(entity=Unnamed NPC (ID: 17735831/0x010EA097), yaw=21.8°*)
  5: 0x0271 [0x1C] WAIT(60* ticks)
  6: 0x0274 [0x4B] UPDATE_ENTITY_YAW(entity=Unnamed NPC (ID: 17735831/0x010EA097), yaw=11.8°*)
  7: 0x027B [0x29] REQ_SET_WAIT(priority=0x05, entity_id=Unnamed NPC (ID: 17735832/0x010EA098), tag_num=0x0C)
  8: 0x0282 [0x29] REQ_SET_WAIT(priority=0x05, entity_id=Unnamed NPC (ID: 17735833/0x010EA099), tag_num=0x0A)
  9: 0x0289 [0x29] REQ_SET_WAIT(priority=0x05, entity_id=Unnamed NPC (ID: 17735834/0x010EA09A), tag_num=0x0A)
 10: 0x0290 [0x29] REQ_SET_WAIT(priority=0x05, entity_id=Unnamed NPC (ID: 17735835/0x010EA09B), tag_num=0x0A)
 11: 0x0297 [0x4B] UPDATE_ENTITY_YAW(entity=Unnamed NPC (ID: 17735831/0x010EA097), yaw=21.8°*)
 12: 0x029E [0x1C] WAIT(60* ticks)
 13: 0x02A1 [0x4B] UPDATE_ENTITY_YAW(entity=Unnamed NPC (ID: 17735831/0x010EA097), yaw=11.8°*)
 14: 0x02A8 [0x29] REQ_SET_WAIT(priority=0x05, entity_id=Unnamed NPC (ID: 17735832/0x010EA098), tag_num=0x0D)
 15: 0x02AF [0x29] REQ_SET_WAIT(priority=0x05, entity_id=Unnamed NPC (ID: 17735833/0x010EA099), tag_num=0x0B)
 16: 0x02B6 [0x29] REQ_SET_WAIT(priority=0x05, entity_id=Unnamed NPC (ID: 17735834/0x010EA09A), tag_num=0x0B)
 17: 0x02BD [0x29] REQ_SET_WAIT(priority=0x05, entity_id=Unnamed NPC (ID: 17735835/0x010EA09B), tag_num=0x0B)
 18: 0x02C4 [0x4B] UPDATE_ENTITY_YAW(entity=Unnamed NPC (ID: 17735831/0x010EA097), yaw=21.8°*)
 19: 0x02CB [0x1C] WAIT(60* ticks)
 20: 0x02CE [0x4B] UPDATE_ENTITY_YAW(entity=Unnamed NPC (ID: 17735831/0x010EA097), yaw=11.8°*)
 21: 0x02D5 [0x29] REQ_SET_WAIT(priority=0x05, entity_id=Unnamed NPC (ID: 17735832/0x010EA098), tag_num=0x0E)
 22: 0x02DC [0x29] REQ_SET_WAIT(priority=0x05, entity_id=Unnamed NPC (ID: 17735833/0x010EA099), tag_num=0x0C)
 23: 0x02E3 [0x29] REQ_SET_WAIT(priority=0x05, entity_id=Unnamed NPC (ID: 17735834/0x010EA09A), tag_num=0x0C)
 24: 0x02EA [0x29] REQ_SET_WAIT(priority=0x05, entity_id=Unnamed NPC (ID: 17735835/0x010EA09B), tag_num=0x0C)
 25: 0x02F1 [0x27] REQ_SET(priority=0x05, entity_id=Unnamed NPC (ID: 17735835/0x010EA09B), tag_num=0x0D)
 26: 0x02F8 [0x27] REQ_SET(priority=0x0F, entity_id=Unnamed NPC (ID: 17735834/0x010EA09A), tag_num=0x0D)
 27: 0x02FF [0x27] REQ_SET(priority=0x14, entity_id=Unnamed NPC (ID: 17735833/0x010EA099), tag_num=0x0D)
 28: 0x0306 [0x27] REQ_SET(priority=0x19, entity_id=Unnamed NPC (ID: 17735832/0x010EA098), tag_num=0x0F)
 29: 0x030D [0x1C] WAIT(30* ticks)
 30: 0x0310 [0x32] ExtData[1]->MainSpeed = 70* * 0.1
 31: 0x0313 [0x1F] MOVE_ENTITY: EventEntity moves to X=39.872*, Z=-85.767*, Y=0.256*
 32: 0x031B [0x1F] MOVE_ENTITY: Update entity position (mode=1)
 33: 0x031D [0x00] END_REQSTACK()
```

### Event 65535.22

#### Metadata

| Field        | Value    |
|--------------|----------|
| Entrypoint   | 0x031E   |
| Data Size    | 10 bytes |
| Instructions | 2        |

```
      00 01 02 03 04 05 06 07  08 09 0A 0B 0C 0D 0E 0F
      -- -- -- -- -- -- -- --  -- -- -- -- -- -- -- --
0310:                                            37 3B                7;
0320: 80 3C 80 3D 80 3E 80 00                           .<.=.>..        
```

#### Opcodes

```
  0: 0x031E [0x37] UPDATE_EVENT_POSITION_AND_DIR: x=-23.078*, z=-59.286*, y=-2.999*, direction=287.5°*
  1: 0x0327 [0x00] END_REQSTACK()
```

### Event 65535.23

#### Metadata

| Field        | Value    |
|--------------|----------|
| Entrypoint   | 0x0328   |
| Data Size    | 20 bytes |
| Instructions | 6        |

```
      00 01 02 03 04 05 06 07  08 09 0A 0B 0C 0D 0E 0F
      -- -- -- -- -- -- -- --  -- -- -- -- -- -- -- --
0320:                          32 20 80 1F 00 3F 80 40          2 ...?.@
0330: 80 3D 80 1F 01 75 00 41  80 75 01 00              .=...u.A.u..    
```

#### Opcodes

```
  0: 0x0328 [0x32] ExtData[1]->MainSpeed = 70* * 0.1
  1: 0x032B [0x1F] MOVE_ENTITY: EventEntity moves to X=-18.540*, Z=-60.272*, Y=-2.999*
  2: 0x0333 [0x1F] MOVE_ENTITY: Update entity position (mode=1)
  3: 0x0335 [0x75] LOAD_ROOM(Load indoor room, room=263*)
  4: 0x0339 [0x75] LOAD_ROOM(No action)
  5: 0x033B [0x00] END_REQSTACK()
```

### Event 65535.24

#### Metadata

| Field        | Value     |
|--------------|-----------|
| Entrypoint   | 0x033C    |
| Data Size    | 105 bytes |
| Instructions | 16        |

```
      00 01 02 03 04 05 06 07  08 09 0A 0B 0C 0D 0E 0F
      -- -- -- -- -- -- -- --  -- -- -- -- -- -- -- --
0330:                                      32 20 80 1F              2 ..
0340: 00 3F 80 40 80 3D 80 1F  01 75 00 41 80 75 01 4A  .?.@.=...u.A.u.J
0350: A1 A0 0E 01 98 A0 0E 01  27 05 98 A0 0E 01 12 1C  ........'.......
0360: 09 80 52 42 80 F8 FF FF  7F F8 FF FF 7F 73 31 37  ..RB.........s17
0370: 31 45 42 80 F8 FF FF 7F  F8 FF FF 7F 73 31 37 37  1EB.........s177
0380: 04 80 2A 05 98 A0 0E 01  5B 43 80 98 A0 0E 01 98  ..*.....[C......
0390: A0 0E 01 31 30 31 31 1C  09 80 4B A1 A0 0E 01 44  ...1011...K....D
03A0: 80 1C 09 80 00                                    .....           
```

#### Opcodes

```
  0: 0x033C [0x32] ExtData[1]->MainSpeed = 70* * 0.1
  1: 0x033F [0x1F] MOVE_ENTITY: EventEntity moves to X=-18.540*, Z=-60.272*, Y=-2.999*
  2: 0x0347 [0x1F] MOVE_ENTITY: Update entity position (mode=1)
  3: 0x0349 [0x75] LOAD_ROOM(Load indoor room, room=263*)
  4: 0x034D [0x75] LOAD_ROOM(No action)
  5: 0x034F [0x4A] Pulonono (ID: 17735841/0x010EA0A1) looks at Unnamed NPC (ID: 17735832/0x010EA098)
  6: 0x0358 [0x27] REQ_SET(priority=0x05, entity_id=Unnamed NPC (ID: 17735832/0x010EA098), tag_num=0x12)
  7: 0x035F [0x1C] WAIT(60* ticks)
  8: 0x0362 [0x52] END_LOAD_SCHEDULER: End scheduler "s171" with entities [EventEntity, EventEntity], work=254*
  9: 0x0371 [0x45] LOAD_SCHEDULED_TASK: Load scheduler "s177" with entities [EventEntity, EventEntity], work=[254*, 0*]
 10: 0x0382 [0x2A] GET_REQ_LEVEL(level=5, entity_id=Unnamed NPC (ID: 17735832/0x010EA098))
 11: 0x0388 [0x5B] LOAD_EXT_SCHEDULER: Load scheduler "1011" with entities [Unnamed NPC (ID: 17735832/0x010EA098), Unnamed NPC (ID: 17735832/0x010EA098)], work=224*
 12: 0x0397 [0x1C] WAIT(60* ticks)
 13: 0x039A [0x4B] UPDATE_ENTITY_YAW(entity=Pulonono (ID: 17735841/0x010EA0A1), yaw=11.3°*)
 14: 0x03A1 [0x1C] WAIT(60* ticks)
 15: 0x03A4 [0x00] END_REQSTACK()
```

### Event 65535.25

#### Metadata

| Field        | Value    |
|--------------|----------|
| Entrypoint   | 0x03A5   |
| Data Size    | 37 bytes |
| Instructions | 7        |

```
      00 01 02 03 04 05 06 07  08 09 0A 0B 0C 0D 0E 0F
      -- -- -- -- -- -- -- --  -- -- -- -- -- -- -- --
03A0:                27 05 98  A0 0E 01 13 29 05 A2 A0       '......)...
03B0: 0E 01 0E 1C 09 80 4A A1  A0 0E 01 98 A0 0E 01 27  ......J........'
03C0: 05 A2 A0 0E 01 0F 1C 09  80 00                    ..........      
```

#### Opcodes

```
  0: 0x03A5 [0x27] REQ_SET(priority=0x05, entity_id=Unnamed NPC (ID: 17735832/0x010EA098), tag_num=0x13)
  1: 0x03AC [0x29] REQ_SET_WAIT(priority=0x05, entity_id=Bashraf (ID: 17735842/0x010EA0A2), tag_num=0x0E)
  2: 0x03B3 [0x1C] WAIT(60* ticks)
  3: 0x03B6 [0x4A] Pulonono (ID: 17735841/0x010EA0A1) looks at Unnamed NPC (ID: 17735832/0x010EA098)
  4: 0x03BF [0x27] REQ_SET(priority=0x05, entity_id=Bashraf (ID: 17735842/0x010EA0A2), tag_num=0x0F)
  5: 0x03C6 [0x1C] WAIT(60* ticks)
  6: 0x03C9 [0x00] END_REQSTACK()
```

### Event 65535.26

#### Metadata

| Field        | Value    |
|--------------|----------|
| Entrypoint   | 0x03CA   |
| Data Size    | 10 bytes |
| Instructions | 2        |

```
      00 01 02 03 04 05 06 07  08 09 0A 0B 0C 0D 0E 0F
      -- -- -- -- -- -- -- --  -- -- -- -- -- -- -- --
03C0:                                37 45 80 46 80 47            7E.F.G
03D0: 80 48 80 00                                       .H..            
```

#### Opcodes

```
  0: 0x03CA [0x37] UPDATE_EVENT_POSITION_AND_DIR: x=45.812*, z=-110.747*, y=1.374*, direction=264.3°*
  1: 0x03D3 [0x00] END_REQSTACK()
```

### Event 65535.27

#### Metadata

| Field        | Value    |
|--------------|----------|
| Entrypoint   | 0x03D4   |
| Data Size    | 10 bytes |
| Instructions | 2        |

```
      00 01 02 03 04 05 06 07  08 09 0A 0B 0C 0D 0E 0F
      -- -- -- -- -- -- -- --  -- -- -- -- -- -- -- --
03D0:             37 49 80 4A  80 4B 80 4C 80 00            7I.J.K.L..  
```

#### Opcodes

```
  0: 0x03D4 [0x37] UPDATE_EVENT_POSITION_AND_DIR: x=-416.298*, z=-444.870*, y=24.999*, direction=39.4°*
  1: 0x03DD [0x00] END_REQSTACK()
```

### Event 65535.28

#### Metadata

| Field        | Value    |
|--------------|----------|
| Entrypoint   | 0x03DE   |
| Data Size    | 10 bytes |
| Instructions | 2        |

```
      00 01 02 03 04 05 06 07  08 09 0A 0B 0C 0D 0E 0F
      -- -- -- -- -- -- -- --  -- -- -- -- -- -- -- --
03D0:                                            37 4D                7M
03E0: 80 4E 80 4F 80 50 80 00                           .N.O.P..        
```

#### Opcodes

```
  0: 0x03DE [0x37] UPDATE_EVENT_POSITION_AND_DIR: x=-279.684*, z=-105.097*, y=-10.000*, direction=274.0°*
  1: 0x03E7 [0x00] END_REQSTACK()
```

### Event 65535.29

#### Metadata

| Field        | Value     |
|--------------|-----------|
| Entrypoint   | 0x03E8    |
| Data Size    | 136 bytes |
| Instructions | 20        |

```
      00 01 02 03 04 05 06 07  08 09 0A 0B 0C 0D 0E 0F
      -- -- -- -- -- -- -- --  -- -- -- -- -- -- -- --
03E0:                          4B 9F A0 0E 01 51 80 1C          K....Q..
03F0: 16 80 6E 9F A0 0E 01 04  80 99 9F A0 0E 01 1C 09  ..n.............
0400: 80 4B 97 A0 0E 01 51 80  1C 16 80 5B 43 80 97 A0  .K....Q....[C...
0410: 0E 01 97 A0 0E 01 31 30  31 31 5B 32 80 97 A0 0E  ......1011[2....
0420: 01 97 A0 0E 01 6A 6F 79  30 1C 0B 80 4B 97 A0 0E  .....joy0...K...
0430: 01 52 80 1C 16 80 5B 43  80 97 A0 0E 01 97 A0 0E  .R....[C........
0440: 01 31 30 31 31 5B 32 80  97 A0 0E 01 97 A0 0E 01  .1011[2.........
0450: 6A 6F 79 30 4A 9F A0 0E  01 97 A0 0E 01 1C 16 80  joy0J...........
0460: 6E 9F A0 0E 01 53 80 99  9F A0 0E 01 1C 54 80 00  n....S.......T..
```

#### Opcodes

```
  0: 0x03E8 [0x4B] UPDATE_ENTITY_YAW(entity=Hantileon (ID: 17735839/0x010EA09F), yaw=22.2°*)
  1: 0x03EF [0x1C] WAIT(30* ticks)
  2: 0x03F2 [0x6E] Hantileon (ID: 17735839/0x010EA09F) uses emote 0*
  3: 0x03F9 [0x99] Wait for Hantileon (ID: 17735839/0x010EA09F) animation to complete
  4: 0x03FE [0x1C] WAIT(60* ticks)
  5: 0x0401 [0x4B] UPDATE_ENTITY_YAW(entity=Unnamed NPC (ID: 17735831/0x010EA097), yaw=22.2°*)
  6: 0x0408 [0x1C] WAIT(30* ticks)
  7: 0x040B [0x5B] LOAD_EXT_SCHEDULER: Load scheduler "1011" with entities [Unnamed NPC (ID: 17735831/0x010EA097), Unnamed NPC (ID: 17735831/0x010EA097)], work=224*
  8: 0x041A [0x5B] LOAD_EXT_SCHEDULER: Load scheduler "joy0" with entities [Unnamed NPC (ID: 17735831/0x010EA097), Unnamed NPC (ID: 17735831/0x010EA097)], work=222*
  9: 0x0429 [0x1C] WAIT(120* ticks)
 10: 0x042C [0x4B] UPDATE_ENTITY_YAW(entity=Unnamed NPC (ID: 17735831/0x010EA097), yaw=11.3°*)
 11: 0x0433 [0x1C] WAIT(30* ticks)
 12: 0x0436 [0x5B] LOAD_EXT_SCHEDULER: Load scheduler "1011" with entities [Unnamed NPC (ID: 17735831/0x010EA097), Unnamed NPC (ID: 17735831/0x010EA097)], work=224*
 13: 0x0445 [0x5B] LOAD_EXT_SCHEDULER: Load scheduler "joy0" with entities [Unnamed NPC (ID: 17735831/0x010EA097), Unnamed NPC (ID: 17735831/0x010EA097)], work=222*
 14: 0x0454 [0x4A] Hantileon (ID: 17735839/0x010EA09F) looks at Unnamed NPC (ID: 17735831/0x010EA097)
 15: 0x045D [0x1C] WAIT(30* ticks)
 16: 0x0460 [0x6E] Hantileon (ID: 17735839/0x010EA09F) uses emote 21*
 17: 0x0467 [0x99] Wait for Hantileon (ID: 17735839/0x010EA09F) animation to complete
 18: 0x046C [0x1C] WAIT(90* ticks)
 19: 0x046F [0x00] END_REQSTACK()
```

### Event 65535.30

#### Metadata

| Field        | Value     |
|--------------|-----------|
| Entrypoint   | 0x0470    |
| Data Size    | 114 bytes |
| Instructions | 14        |

```
      00 01 02 03 04 05 06 07  08 09 0A 0B 0C 0D 0E 0F
      -- -- -- -- -- -- -- --  -- -- -- -- -- -- -- --
0470: 4B 9F A0 0E 01 51 80 1C  16 80 6E 9F A0 0E 01 04  K....Q....n.....
0480: 80 99 9F A0 0E 01 1C 09  80 4B 97 A0 0E 01 51 80  .........K....Q.
0490: 1C 16 80 5B 43 80 97 A0  0E 01 97 A0 0E 01 31 30  ...[C.........10
04A0: 31 31 5B 32 80 97 A0 0E  01 97 A0 0E 01 6A 6F 79  11[2.........joy
04B0: 30 5B 55 80 A3 A0 0E 01  A3 A0 0E 01 6B 69 73 69  0[U.........kisi
04C0: 5B 09 80 A0 A0 0E 01 A0  A0 0E 01 74 6C 62 30 5B  [..........tlb0[
04D0: 09 80 91 A0 0E 01 91 A0  0E 01 74 6C 6B 30 1C 0B  ..........tlk0..
04E0: 80 00                                             ..              
```

#### Opcodes

```
  0: 0x0470 [0x4B] UPDATE_ENTITY_YAW(entity=Hantileon (ID: 17735839/0x010EA09F), yaw=22.2°*)
  1: 0x0477 [0x1C] WAIT(30* ticks)
  2: 0x047A [0x6E] Hantileon (ID: 17735839/0x010EA09F) uses emote 0*
  3: 0x0481 [0x99] Wait for Hantileon (ID: 17735839/0x010EA09F) animation to complete
  4: 0x0486 [0x1C] WAIT(60* ticks)
  5: 0x0489 [0x4B] UPDATE_ENTITY_YAW(entity=Unnamed NPC (ID: 17735831/0x010EA097), yaw=22.2°*)
  6: 0x0490 [0x1C] WAIT(30* ticks)
  7: 0x0493 [0x5B] LOAD_EXT_SCHEDULER: Load scheduler "1011" with entities [Unnamed NPC (ID: 17735831/0x010EA097), Unnamed NPC (ID: 17735831/0x010EA097)], work=224*
  8: 0x04A2 [0x5B] LOAD_EXT_SCHEDULER: Load scheduler "joy0" with entities [Unnamed NPC (ID: 17735831/0x010EA097), Unnamed NPC (ID: 17735831/0x010EA097)], work=222*
  9: 0x04B1 [0x5B] LOAD_EXT_SCHEDULER: Load scheduler "kisi" with entities [Foudeel (ID: 17735843/0x010EA0A3), Foudeel (ID: 17735843/0x010EA0A3)], work=84*
 10: 0x04C0 [0x5B] LOAD_EXT_SCHEDULER: Load scheduler "tlb0" with entities [Brutus (ID: 17735840/0x010EA0A0), Brutus (ID: 17735840/0x010EA0A0)], work=60*
 11: 0x04CF [0x5B] LOAD_EXT_SCHEDULER: Load scheduler "tlk0" with entities [Unnamed NPC (ID: 17735825/0x010EA091), Unnamed NPC (ID: 17735825/0x010EA091)], work=60*
 12: 0x04DE [0x1C] WAIT(120* ticks)
 13: 0x04E1 [0x00] END_REQSTACK()
```

### Event 65535.31

#### Metadata

| Field        | Value     |
|--------------|-----------|
| Entrypoint   | 0x04E2    |
| Data Size    | 125 bytes |
| Instructions | 25        |

```
      00 01 02 03 04 05 06 07  08 09 0A 0B 0C 0D 0E 0F
      -- -- -- -- -- -- -- --  -- -- -- -- -- -- -- --
04E0:       4B 9F A0 0E 01 51  80 1C 16 80 6E 9F A0 0E    K....Q....n...
04F0: 01 04 80 99 9F A0 0E 01  1C 09 80 4B 97 A0 0E 01  ...........K....
0500: 56 80 1C 09 80 4A 9F A0  0E 01 97 A0 0E 01 1C 16  V....J..........
0510: 80 6E 9F A0 0E 01 57 80  99 9F A0 0E 01 1C 0B 80  .n....W.........
0520: 4B 9F A0 0E 01 51 80 1C  16 80 6E 9F A0 0E 01 04  K....Q....n.....
0530: 80 99 9F A0 0E 01 1C 09  80 4B 97 A0 0E 01 58 80  .........K....X.
0540: 1C 09 80 4A 9F A0 0E 01  97 A0 0E 01 1C 16 80 6E  ...J...........n
0550: 9F A0 0E 01 59 80 99 9F  A0 0E 01 1C 54 80 00     ....Y.......T.. 
```

#### Opcodes

```
  0: 0x04E2 [0x4B] UPDATE_ENTITY_YAW(entity=Hantileon (ID: 17735839/0x010EA09F), yaw=22.2°*)
  1: 0x04E9 [0x1C] WAIT(30* ticks)
  2: 0x04EC [0x6E] Hantileon (ID: 17735839/0x010EA09F) uses emote 0*
  3: 0x04F3 [0x99] Wait for Hantileon (ID: 17735839/0x010EA09F) animation to complete
  4: 0x04F8 [0x1C] WAIT(60* ticks)
  5: 0x04FB [0x4B] UPDATE_ENTITY_YAW(entity=Unnamed NPC (ID: 17735831/0x010EA097), yaw=5.5°*)
  6: 0x0502 [0x1C] WAIT(60* ticks)
  7: 0x0505 [0x4A] Hantileon (ID: 17735839/0x010EA09F) looks at Unnamed NPC (ID: 17735831/0x010EA097)
  8: 0x050E [0x1C] WAIT(30* ticks)
  9: 0x0511 [0x6E] Hantileon (ID: 17735839/0x010EA09F) uses emote 20*
 10: 0x0518 [0x99] Wait for Hantileon (ID: 17735839/0x010EA09F) animation to complete
 11: 0x051D [0x1C] WAIT(120* ticks)
 12: 0x0520 [0x4B] UPDATE_ENTITY_YAW(entity=Hantileon (ID: 17735839/0x010EA09F), yaw=22.2°*)
 13: 0x0527 [0x1C] WAIT(30* ticks)
 14: 0x052A [0x6E] Hantileon (ID: 17735839/0x010EA09F) uses emote 0*
 15: 0x0531 [0x99] Wait for Hantileon (ID: 17735839/0x010EA09F) animation to complete
 16: 0x0536 [0x1C] WAIT(60* ticks)
 17: 0x0539 [0x4B] UPDATE_ENTITY_YAW(entity=Unnamed NPC (ID: 17735831/0x010EA097), yaw=16.9°*)
 18: 0x0540 [0x1C] WAIT(60* ticks)
 19: 0x0543 [0x4A] Hantileon (ID: 17735839/0x010EA09F) looks at Unnamed NPC (ID: 17735831/0x010EA097)
 20: 0x054C [0x1C] WAIT(30* ticks)
 21: 0x054F [0x6E] Hantileon (ID: 17735839/0x010EA09F) uses emote 26*
 22: 0x0556 [0x99] Wait for Hantileon (ID: 17735839/0x010EA09F) animation to complete
 23: 0x055B [0x1C] WAIT(90* ticks)
 24: 0x055E [0x00] END_REQSTACK()
```

### Event 65535.32

#### Metadata

| Field        | Value    |
|--------------|----------|
| Entrypoint   | 0x055F   |
| Data Size    | 10 bytes |
| Instructions | 2        |

```
      00 01 02 03 04 05 06 07  08 09 0A 0B 0C 0D 0E 0F
      -- -- -- -- -- -- -- --  -- -- -- -- -- -- -- --
0550:                                               37                 7
0560: 5A 80 5B 80 04 80 5C 80  00                       Z.[...\..       
```

#### Opcodes

```
  0: 0x055F [0x37] UPDATE_EVENT_POSITION_AND_DIR: x=-196.477*, z=444.209*, y=0.000*, direction=253.1°*
  1: 0x0568 [0x00] END_REQSTACK()
```

### Event 65535.33

#### Metadata

| Field        | Value    |
|--------------|----------|
| Entrypoint   | 0x0569   |
| Data Size    | 63 bytes |
| Instructions | 11       |

```
      00 01 02 03 04 05 06 07  08 09 0A 0B 0C 0D 0E 0F
      -- -- -- -- -- -- -- --  -- -- -- -- -- -- -- --
0560:                             32 13 80 1F 00 5D 80           2....].
0570: 5E 80 5F 80 1F 01 1C 09  80 1E F0 FF FF 7F 1C 16  ^._.............
0580: 80 5B 0A 80 97 A0 0E 01  97 A0 0E 01 6E 61 6B 30  .[..........nak0
0590: 1C 60 80 45 1B 80 F0 FF  FF 7F F0 FF FF 7F 6E 61  .`.E..........na
05A0: 6B 32 04 80 1C 54 80 00                           k2...T..        
```

#### Opcodes

```
  0: 0x0569 [0x32] ExtData[1]->MainSpeed = 15* * 0.1
  1: 0x056C [0x1F] MOVE_ENTITY: EventEntity moves to X=-198.780*, Z=450.674*, Y=0.499*
  2: 0x0574 [0x1F] MOVE_ENTITY: Update entity position (mode=1)
  3: 0x0576 [0x1C] WAIT(60* ticks)
  4: 0x0579 [0x1E] EventEntity looks at LocalPlayer and starts talking
  5: 0x057E [0x1C] WAIT(30* ticks)
  6: 0x0581 [0x5B] LOAD_EXT_SCHEDULER: Load scheduler "nak0" with entities [Unnamed NPC (ID: 17735831/0x010EA097), Unnamed NPC (ID: 17735831/0x010EA097)], work=223*
  7: 0x0590 [0x1C] WAIT(10* ticks)
  8: 0x0593 [0x45] LOAD_SCHEDULED_TASK: Load scheduler "nak2" with entities [LocalPlayer, LocalPlayer], work=[144*, 0*]
  9: 0x05A4 [0x1C] WAIT(90* ticks)
 10: 0x05A7 [0x00] END_REQSTACK()
```

### Event 65535.34

#### Metadata

| Field        | Value    |
|--------------|----------|
| Entrypoint   | 0x05A8   |
| Data Size    | 10 bytes |
| Instructions | 2        |

```
      00 01 02 03 04 05 06 07  08 09 0A 0B 0C 0D 0E 0F
      -- -- -- -- -- -- -- --  -- -- -- -- -- -- -- --
05A0:                          37 61 80 62 80 63 80 64          7a.b.c.d
05B0: 80 00                                             ..              
```

#### Opcodes

```
  0: 0x05A8 [0x37] UPDATE_EVENT_POSITION_AND_DIR: x=-259.715*, z=-140.807*, y=-12.972*, direction=202.1°*
  1: 0x05B1 [0x00] END_REQSTACK()
```

### Event 65535.35

#### Metadata

| Field        | Value    |
|--------------|----------|
| Entrypoint   | 0x05B2   |
| Data Size    | 63 bytes |
| Instructions | 11       |

```
      00 01 02 03 04 05 06 07  08 09 0A 0B 0C 0D 0E 0F
      -- -- -- -- -- -- -- --  -- -- -- -- -- -- -- --
05B0:       32 13 80 1F 00 65  80 66 80 67 80 1F 01 1C    2....e.f.g....
05C0: 09 80 1E F0 FF FF 7F 1C  16 80 5B 0A 80 97 A0 0E  ..........[.....
05D0: 01 97 A0 0E 01 6E 61 6B  30 1C 60 80 45 1B 80 F0  .....nak0.`.E...
05E0: FF FF 7F F0 FF FF 7F 6E  61 6B 32 04 80 1C 54 80  .......nak2...T.
05F0: 00                                                .               
```

#### Opcodes

```
  0: 0x05B2 [0x32] ExtData[1]->MainSpeed = 15* * 0.1
  1: 0x05B5 [0x1F] MOVE_ENTITY: EventEntity moves to X=-268.660*, Z=-137.645*, Y=-13.954*
  2: 0x05BD [0x1F] MOVE_ENTITY: Update entity position (mode=1)
  3: 0x05BF [0x1C] WAIT(60* ticks)
  4: 0x05C2 [0x1E] EventEntity looks at LocalPlayer and starts talking
  5: 0x05C7 [0x1C] WAIT(30* ticks)
  6: 0x05CA [0x5B] LOAD_EXT_SCHEDULER: Load scheduler "nak0" with entities [Unnamed NPC (ID: 17735831/0x010EA097), Unnamed NPC (ID: 17735831/0x010EA097)], work=223*
  7: 0x05D9 [0x1C] WAIT(10* ticks)
  8: 0x05DC [0x45] LOAD_SCHEDULED_TASK: Load scheduler "nak2" with entities [LocalPlayer, LocalPlayer], work=[144*, 0*]
  9: 0x05ED [0x1C] WAIT(90* ticks)
 10: 0x05F0 [0x00] END_REQSTACK()
```

### Event 65535.36

#### Metadata

| Field        | Value    |
|--------------|----------|
| Entrypoint   | 0x05F1   |
| Data Size    | 10 bytes |
| Instructions | 2        |

```
      00 01 02 03 04 05 06 07  08 09 0A 0B 0C 0D 0E 0F
      -- -- -- -- -- -- -- --  -- -- -- -- -- -- -- --
05F0:    37 68 80 69 80 6A 80  6B 80 00                  7h.i.j.k..     
```

#### Opcodes

```
  0: 0x05F1 [0x37] UPDATE_EVENT_POSITION_AND_DIR: x=-382.806*, z=-294.522*, y=24.124*, direction=252.9°*
  1: 0x05FA [0x00] END_REQSTACK()
```

### Event 65535.37

#### Metadata

| Field        | Value    |
|--------------|----------|
| Entrypoint   | 0x05FB   |
| Data Size    | 70 bytes |
| Instructions | 12       |

```
      00 01 02 03 04 05 06 07  08 09 0A 0B 0C 0D 0E 0F
      -- -- -- -- -- -- -- --  -- -- -- -- -- -- -- --
05F0:                                   32 13 80 1F 00             2....
0600: 6C 80 6D 80 6E 80 1F 01  4B 97 A0 0E 01 6F 80 1C  l.m.n...K....o..
0610: 09 80 1E F0 FF FF 7F 1C  16 80 5B 0A 80 97 A0 0E  ..........[.....
0620: 01 97 A0 0E 01 6E 61 6B  30 1C 60 80 45 1B 80 F0  .....nak0.`.E...
0630: FF FF 7F F0 FF FF 7F 6E  61 6B 32 04 80 1C 54 80  .......nak2...T.
0640: 00                                                .               
```

#### Opcodes

```
  0: 0x05FB [0x32] ExtData[1]->MainSpeed = 15* * 0.1
  1: 0x05FE [0x1F] MOVE_ENTITY: EventEntity moves to X=-387.281*, Z=-282.206*, Y=24.284*
  2: 0x0606 [0x1F] MOVE_ENTITY: Update entity position (mode=1)
  3: 0x0608 [0x4B] UPDATE_ENTITY_YAW(entity=Unnamed NPC (ID: 17735831/0x010EA097), yaw=10.1°*)
  4: 0x060F [0x1C] WAIT(60* ticks)
  5: 0x0612 [0x1E] EventEntity looks at LocalPlayer and starts talking
  6: 0x0617 [0x1C] WAIT(30* ticks)
  7: 0x061A [0x5B] LOAD_EXT_SCHEDULER: Load scheduler "nak0" with entities [Unnamed NPC (ID: 17735831/0x010EA097), Unnamed NPC (ID: 17735831/0x010EA097)], work=223*
  8: 0x0629 [0x1C] WAIT(10* ticks)
  9: 0x062C [0x45] LOAD_SCHEDULED_TASK: Load scheduler "nak2" with entities [LocalPlayer, LocalPlayer], work=[144*, 0*]
 10: 0x063D [0x1C] WAIT(90* ticks)
 11: 0x0640 [0x00] END_REQSTACK()
```

### Event 65535.38

#### Metadata

| Field        | Value    |
|--------------|----------|
| Entrypoint   | 0x0641   |
| Data Size    | 10 bytes |
| Instructions | 2        |

```
      00 01 02 03 04 05 06 07  08 09 0A 0B 0C 0D 0E 0F
      -- -- -- -- -- -- -- --  -- -- -- -- -- -- -- --
0640:    37 70 80 71 80 72 80  73 80 00                  7p.q.r.s..     
```

#### Opcodes

```
  0: 0x0641 [0x37] UPDATE_EVENT_POSITION_AND_DIR: x=662.932*, z=321.110*, y=2.319*, direction=278.2°*
  1: 0x064A [0x00] END_REQSTACK()
```

### Event 65535.39

#### Metadata

| Field        | Value     |
|--------------|-----------|
| Entrypoint   | 0x064B    |
| Data Size    | 340 bytes |
| Instructions | 44        |

```
      00 01 02 03 04 05 06 07  08 09 0A 0B 0C 0D 0E 0F
      -- -- -- -- -- -- -- --  -- -- -- -- -- -- -- --
0640:                                   32 20 80 1F 00             2 ...
0650: 74 80 75 80 76 80 1F 01  1F 00 77 80 78 80 79 80  t.u.v.....w.x.y.
0660: 1F 01 1F 00 7A 80 7B 80  7C 80 1F 01 1F 00 7D 80  ....z.{.|.....}.
0670: 7E 80 7F 80 1F 01 52 80  80 F8 FF FF 7F F8 FF FF  ~.....R.........
0680: 7F 73 31 30 30 45 80 80  F8 FF FF 7F F8 FF FF 7F  .s100E..........
0690: 73 31 30 31 04 80 1F 00  81 80 82 80 83 80 1F 01  s101............
06A0: 1F 00 84 80 85 80 86 80  1F 01 52 80 80 F8 FF FF  ..........R.....
06B0: 7F F8 FF FF 7F 73 31 30  31 45 80 80 F8 FF FF 7F  .....s101E......
06C0: F8 FF FF 7F 73 31 30 32  04 80 1F 00 87 80 88 80  ....s102........
06D0: 89 80 1F 01 1F 00 84 80  85 80 86 80 1F 01 52 80  ..............R.
06E0: 80 F8 FF FF 7F F8 FF FF  7F 73 31 30 32 45 80 80  .........s102E..
06F0: F8 FF FF 7F F8 FF FF 7F  73 31 30 33 04 80 1F 00  ........s103....
0700: 81 80 82 80 83 80 1F 01  1F 00 7D 80 7E 80 7F 80  ..........}.~...
0710: 1F 01 52 80 80 F8 FF FF  7F F8 FF FF 7F 73 31 30  ..R..........s10
0720: 33 45 80 80 F8 FF FF 7F  F8 FF FF 7F 73 31 30 34  3E..........s104
0730: 04 80 1F 00 7A 80 7B 80  7C 80 1F 01 4A F0 FF FF  ....z.{.|...J...
0740: 7F 97 A0 0E 01 4A A2 A0  0E 01 98 A0 0E 01 4A A3  .....J........J.
0750: A0 0E 01 98 A0 0E 01 4A  A4 A0 0E 01 98 A0 0E 01  .......J........
0760: 1F 00 77 80 78 80 79 80  1F 01 52 80 80 F8 FF FF  ..w.x.y...R.....
0770: 7F F8 FF FF 7F 73 31 30  34 45 80 80 F8 FF FF 7F  .....s104E......
0780: F8 FF FF 7F 73 31 30 35  04 80 1F 00 74 80 75 80  ....s105....t.u.
0790: 76 80 1F 01 1F 00 70 80  71 80 72 80 1F 01 00     v.....p.q.r.... 
```

#### Opcodes

```
  0: 0x064B [0x32] ExtData[1]->MainSpeed = 70* * 0.1
  1: 0x064E [0x1F] MOVE_ENTITY: EventEntity moves to X=661.472*, Z=337.455*, Y=2.286*
  2: 0x0656 [0x1F] MOVE_ENTITY: Update entity position (mode=1)
  3: 0x0658 [0x1F] MOVE_ENTITY: EventEntity moves to X=657.669*, Z=343.804*, Y=2.394*
  4: 0x0660 [0x1F] MOVE_ENTITY: Update entity position (mode=1)
  5: 0x0662 [0x1F] MOVE_ENTITY: EventEntity moves to X=663.954*, Z=361.663*, Y=2.225*
  6: 0x066A [0x1F] MOVE_ENTITY: Update entity position (mode=1)
  7: 0x066C [0x1F] MOVE_ENTITY: EventEntity moves to X=648.927*, Z=377.913*, Y=2.668*
  8: 0x0674 [0x1F] MOVE_ENTITY: Update entity position (mode=1)
  9: 0x0676 [0x52] END_LOAD_SCHEDULER: End scheduler "s100" with entities [EventEntity, EventEntity], work=199*
 10: 0x0685 [0x45] LOAD_SCHEDULED_TASK: Load scheduler "s101" with entities [EventEntity, EventEntity], work=[199*, 0*]
 11: 0x0696 [0x1F] MOVE_ENTITY: EventEntity moves to X=632.551*, Z=379.712*, Y=2.460*
 12: 0x069E [0x1F] MOVE_ENTITY: Update entity position (mode=1)
 13: 0x06A0 [0x1F] MOVE_ENTITY: EventEntity moves to X=625.145*, Z=402.100*, Y=1.995*
 14: 0x06A8 [0x1F] MOVE_ENTITY: Update entity position (mode=1)
 15: 0x06AA [0x52] END_LOAD_SCHEDULER: End scheduler "s101" with entities [EventEntity, EventEntity], work=199*
 16: 0x06B9 [0x45] LOAD_SCHEDULED_TASK: Load scheduler "s102" with entities [EventEntity, EventEntity], work=[199*, 0*]
 17: 0x06CA [0x1F] MOVE_ENTITY: EventEntity moves to X=599.031*, Z=425.795*, Y=1.886*
 18: 0x06D2 [0x1F] MOVE_ENTITY: Update entity position (mode=1)
 19: 0x06D4 [0x1F] MOVE_ENTITY: EventEntity moves to X=625.145*, Z=402.100*, Y=1.995*
 20: 0x06DC [0x1F] MOVE_ENTITY: Update entity position (mode=1)
 21: 0x06DE [0x52] END_LOAD_SCHEDULER: End scheduler "s102" with entities [EventEntity, EventEntity], work=199*
 22: 0x06ED [0x45] LOAD_SCHEDULED_TASK: Load scheduler "s103" with entities [EventEntity, EventEntity], work=[199*, 0*]
 23: 0x06FE [0x1F] MOVE_ENTITY: EventEntity moves to X=632.551*, Z=379.712*, Y=2.460*
 24: 0x0706 [0x1F] MOVE_ENTITY: Update entity position (mode=1)
 25: 0x0708 [0x1F] MOVE_ENTITY: EventEntity moves to X=648.927*, Z=377.913*, Y=2.668*
 26: 0x0710 [0x1F] MOVE_ENTITY: Update entity position (mode=1)
 27: 0x0712 [0x52] END_LOAD_SCHEDULER: End scheduler "s103" with entities [EventEntity, EventEntity], work=199*
 28: 0x0721 [0x45] LOAD_SCHEDULED_TASK: Load scheduler "s104" with entities [EventEntity, EventEntity], work=[199*, 0*]
 29: 0x0732 [0x1F] MOVE_ENTITY: EventEntity moves to X=663.954*, Z=361.663*, Y=2.225*
 30: 0x073A [0x1F] MOVE_ENTITY: Update entity position (mode=1)
 31: 0x073C [0x4A] LocalPlayer looks at Unnamed NPC (ID: 17735831/0x010EA097)
 32: 0x0745 [0x4A] Bashraf (ID: 17735842/0x010EA0A2) looks at Unnamed NPC (ID: 17735832/0x010EA098)
 33: 0x074E [0x4A] Foudeel (ID: 17735843/0x010EA0A3) looks at Unnamed NPC (ID: 17735832/0x010EA098)
 34: 0x0757 [0x4A] Wahboud (ID: 17735844/0x010EA0A4) looks at Unnamed NPC (ID: 17735832/0x010EA098)
 35: 0x0760 [0x1F] MOVE_ENTITY: EventEntity moves to X=657.669*, Z=343.804*, Y=2.394*
 36: 0x0768 [0x1F] MOVE_ENTITY: Update entity position (mode=1)
 37: 0x076A [0x52] END_LOAD_SCHEDULER: End scheduler "s104" with entities [EventEntity, EventEntity], work=199*
 38: 0x0779 [0x45] LOAD_SCHEDULED_TASK: Load scheduler "s105" with entities [EventEntity, EventEntity], work=[199*, 0*]
 39: 0x078A [0x1F] MOVE_ENTITY: EventEntity moves to X=661.472*, Z=337.455*, Y=2.286*
 40: 0x0792 [0x1F] MOVE_ENTITY: Update entity position (mode=1)
 41: 0x0794 [0x1F] MOVE_ENTITY: EventEntity moves to X=662.932*, Z=321.110*, Y=2.319*
 42: 0x079C [0x1F] MOVE_ENTITY: Update entity position (mode=1)
 43: 0x079E [0x00] END_REQSTACK()
```

### Event 65535.40

#### Metadata

| Field        | Value    |
|--------------|----------|
| Entrypoint   | 0x079F   |
| Data Size    | 25 bytes |
| Instructions | 7        |

```
      00 01 02 03 04 05 06 07  08 09 0A 0B 0C 0D 0E 0F
      -- -- -- -- -- -- -- --  -- -- -- -- -- -- -- --
0790:                                               32                 2
07A0: 20 80 1F 00 8A 80 8B 80  8C 80 1F 01 1C 31 80 1E   ............1..
07B0: F0 FF FF 7F 1C 16 80 00                           ........        
```

#### Opcodes

```
  0: 0x079F [0x32] ExtData[1]->MainSpeed = 70* * 0.1
  1: 0x07A2 [0x1F] MOVE_ENTITY: EventEntity moves to X=-186.296*, Z=450.091*, Y=1.431*
  2: 0x07AA [0x1F] MOVE_ENTITY: Update entity position (mode=1)
  3: 0x07AC [0x1C] WAIT(5* ticks)
  4: 0x07AF [0x1E] EventEntity looks at LocalPlayer and starts talking
  5: 0x07B4 [0x1C] WAIT(30* ticks)
  6: 0x07B7 [0x00] END_REQSTACK()
```

### Event 65535.41

#### Metadata

| Field        | Value    |
|--------------|----------|
| Entrypoint   | 0x07B8   |
| Data Size    | 38 bytes |
| Instructions | 10       |

```
      00 01 02 03 04 05 06 07  08 09 0A 0B 0C 0D 0E 0F
      -- -- -- -- -- -- -- --  -- -- -- -- -- -- -- --
07B0:                          32 20 80 1F 00 8D 80 8E          2 ......
07C0: 80 8F 80 1F 01 1E 92 A0  0E 01 1C 0B 80 1E F0 FF  ................
07D0: FF 7F 1C 0B 80 1E 92 A0  0E 01 1C 16 80 00        ..............  
```

#### Opcodes

```
  0: 0x07B8 [0x32] ExtData[1]->MainSpeed = 70* * 0.1
  1: 0x07BB [0x1F] MOVE_ENTITY: EventEntity moves to X=-181.228*, Z=448.641*, Y=1.073*
  2: 0x07C3 [0x1F] MOVE_ENTITY: Update entity position (mode=1)
  3: 0x07C5 [0x1E] EventEntity looks at Unnamed NPC (ID: 17735826/0x010EA092) and starts talking
  4: 0x07CA [0x1C] WAIT(120* ticks)
  5: 0x07CD [0x1E] EventEntity looks at LocalPlayer and starts talking
  6: 0x07D2 [0x1C] WAIT(120* ticks)
  7: 0x07D5 [0x1E] EventEntity looks at Unnamed NPC (ID: 17735826/0x010EA092) and starts talking
  8: 0x07DA [0x1C] WAIT(30* ticks)
  9: 0x07DD [0x00] END_REQSTACK()
```

### Event 65535.42

#### Metadata

| Field        | Value    |
|--------------|----------|
| Entrypoint   | 0x07DE   |
| Data Size    | 14 bytes |
| Instructions | 4        |

```
      00 01 02 03 04 05 06 07  08 09 0A 0B 0C 0D 0E 0F
      -- -- -- -- -- -- -- --  -- -- -- -- -- -- -- --
07D0:                                            32 13                2.
07E0: 80 1F 00 90 80 91 80 92  80 1F 01 00              ............    
```

#### Opcodes

```
  0: 0x07DE [0x32] ExtData[1]->MainSpeed = 15* * 0.1
  1: 0x07E1 [0x1F] MOVE_ENTITY: EventEntity moves to X=-184.253*, Z=446.788*, Y=0.487*
  2: 0x07E9 [0x1F] MOVE_ENTITY: Update entity position (mode=1)
  3: 0x07EB [0x00] END_REQSTACK()
```

### Event 65535.43

#### Metadata

| Field        | Value    |
|--------------|----------|
| Entrypoint   | 0x07EC   |
| Data Size    | 14 bytes |
| Instructions | 4        |

```
      00 01 02 03 04 05 06 07  08 09 0A 0B 0C 0D 0E 0F
      -- -- -- -- -- -- -- --  -- -- -- -- -- -- -- --
07E0:                                      32 13 80 1F              2...
07F0: 00 93 80 94 80 95 80 1F  01 00                    ..........      
```

#### Opcodes

```
  0: 0x07EC [0x32] ExtData[1]->MainSpeed = 15* * 0.1
  1: 0x07EF [0x1F] MOVE_ENTITY: EventEntity moves to X=-187.017*, Z=447.273*, Y=0.408*
  2: 0x07F7 [0x1F] MOVE_ENTITY: Update entity position (mode=1)
  3: 0x07F9 [0x00] END_REQSTACK()
```

### Event 65535.44

#### Metadata

| Field        | Value    |
|--------------|----------|
| Entrypoint   | 0x07FA   |
| Data Size    | 10 bytes |
| Instructions | 2        |

```
      00 01 02 03 04 05 06 07  08 09 0A 0B 0C 0D 0E 0F
      -- -- -- -- -- -- -- --  -- -- -- -- -- -- -- --
07F0:                                37 96 80 97 80 98            7.....
0800: 80 99 80 00                                       ....            
```

#### Opcodes

```
  0: 0x07FA [0x37] UPDATE_EVENT_POSITION_AND_DIR: x=43.678*, z=-103.506*, y=0.874*, direction=39.3°*
  1: 0x0803 [0x00] END_REQSTACK()
```

### Event 65535.45

#### Metadata

| Field        | Value    |
|--------------|----------|
| Entrypoint   | 0x0804   |
| Data Size    | 19 bytes |
| Instructions | 5        |

```
      00 01 02 03 04 05 06 07  08 09 0A 0B 0C 0D 0E 0F
      -- -- -- -- -- -- -- --  -- -- -- -- -- -- -- --
0800:             32 13 80 1F  00 9A 80 9B 80 98 80 1F      2...........
0810: 01 1E 90 A0 0E 01 00                              .......         
```

#### Opcodes

```
  0: 0x0804 [0x32] ExtData[1]->MainSpeed = 15* * 0.1
  1: 0x0807 [0x1F] MOVE_ENTITY: EventEntity moves to X=48.300*, Z=-107.028*, Y=0.874*
  2: 0x080F [0x1F] MOVE_ENTITY: Update entity position (mode=1)
  3: 0x0811 [0x1E] EventEntity looks at Zopago (ID: 17735824/0x010EA090) and starts talking
  4: 0x0816 [0x00] END_REQSTACK()
```

### Event 545

#### Metadata

| Field        | Value   |
|--------------|---------|
| Entrypoint   | 0x0817  |
| Data Size    | 1 bytes |
| Instructions | 1       |

```
      00 01 02 03 04 05 06 07  08 09 0A 0B 0C 0D 0E 0F
      -- -- -- -- -- -- -- --  -- -- -- -- -- -- -- --
0810:                      00                                  .        
```

#### Opcodes

```
  0: 0x0817 [0x00] END_REQSTACK()
```

### Event 65535.46

#### Metadata

| Field        | Value    |
|--------------|----------|
| Entrypoint   | 0x0818   |
| Data Size    | 15 bytes |
| Instructions | 3        |

```
      00 01 02 03 04 05 06 07  08 09 0A 0B 0C 0D 0E 0F
      -- -- -- -- -- -- -- --  -- -- -- -- -- -- -- --
0810:                          37 9C 80 9D 80 9E 80 9F          7.......
0820: 80 03 04 00 04 80 00                              .......         
```

#### Opcodes

```
  0: 0x0818 [0x37] UPDATE_EVENT_POSITION_AND_DIR: x=-607.234*, z=599.295*, y=0.160*, direction=33.1°*
  1: 0x0821 [0x03] ExtData[1]->WorkLocal[4] = 0*
  2: 0x0826 [0x00] END_REQSTACK()
```

### Event 65535.47

#### Metadata

| Field        | Value    |
|--------------|----------|
| Entrypoint   | 0x0827   |
| Data Size    | 48 bytes |
| Instructions | 11       |

```
      00 01 02 03 04 05 06 07  08 09 0A 0B 0C 0D 0E 0F
      -- -- -- -- -- -- -- --  -- -- -- -- -- -- -- --
0820:                      02  04 00 A0 80 01 56 08 32         ......V.2
0830: 13 80 1F 00 A1 80 A2 80  A3 80 1F 01 1C 09 80 1F  ................
0840: 00 A4 80 A5 80 A6 80 1F  01 1F 00 A7 80 A8 80 A9  ................
0850: 80 1F 01 01 27 08 00                              ....'..         
```

#### Opcodes

```
  0: 0x0827 [0x02] IF !(ExtData[1]->WorkLocal[4] == 1*) GOTO 0x0856
  1: 0x082F [0x32] ExtData[1]->MainSpeed = 15* * 0.1
  2: 0x0832 [0x1F] MOVE_ENTITY: EventEntity moves to X=-604.743*, Z=600.818*, Y=0.035*
  3: 0x083A [0x1F] MOVE_ENTITY: Update entity position (mode=1)
  4: 0x083C [0x1C] WAIT(60* ticks)
  5: 0x083F [0x1F] MOVE_ENTITY: EventEntity moves to X=-608.317*, Z=600.631*, Y=0.214*
  6: 0x0847 [0x1F] MOVE_ENTITY: Update entity position (mode=1)
  7: 0x0849 [0x1F] MOVE_ENTITY: EventEntity moves to X=-606.086*, Z=601.808*, Y=0.102*
  8: 0x0851 [0x1F] MOVE_ENTITY: Update entity position (mode=1)
  9: 0x0853 [0x01] GOTO 0x0827
 10: 0x0856 [0x00] END_REQSTACK()
```

### Event 65535.48

#### Metadata

| Field        | Value   |
|--------------|---------|
| Entrypoint   | 0x0857  |
| Data Size    | 6 bytes |
| Instructions | 2       |

```
      00 01 02 03 04 05 06 07  08 09 0A 0B 0C 0D 0E 0F
      -- -- -- -- -- -- -- --  -- -- -- -- -- -- -- --
0850:                      03  04 00 A0 80 00                  ......   
```

#### Opcodes

```
  0: 0x0857 [0x03] ExtData[1]->WorkLocal[4] = 1*
  1: 0x085C [0x00] END_REQSTACK()
```

### Event 65535.49

#### Metadata

| Field        | Value   |
|--------------|---------|
| Entrypoint   | 0x085D  |
| Data Size    | 6 bytes |
| Instructions | 2       |

```
      00 01 02 03 04 05 06 07  08 09 0A 0B 0C 0D 0E 0F
      -- -- -- -- -- -- -- --  -- -- -- -- -- -- -- --
0850:                                         03 04 00               ...
0860: 04 80 00                                          ...             
```

#### Opcodes

```
  0: 0x085D [0x03] ExtData[1]->WorkLocal[4] = 0*
  1: 0x0862 [0x00] END_REQSTACK()
```

### Event 65535.50

#### Metadata

| Field        | Value    |
|--------------|----------|
| Entrypoint   | 0x0863   |
| Data Size    | 15 bytes |
| Instructions | 3        |

```
      00 01 02 03 04 05 06 07  08 09 0A 0B 0C 0D 0E 0F
      -- -- -- -- -- -- -- --  -- -- -- -- -- -- -- --
0860:          37 AA 80 AB 80  AC 80 AD 80 80 F8 FF FF     7............
0870: 7F 00                                             ..              
```

#### Opcodes

```
  0: 0x0863 [0x37] UPDATE_EVENT_POSITION_AND_DIR: x=-600.128*, z=585.578*, y=0.628*, direction=25.0°*
  1: 0x086C [0x80] LOAD_WAIT(entity=EventEntity)
  2: 0x0871 [0x00] END_REQSTACK()
```

### Event 65535.51

#### Metadata

| Field        | Value    |
|--------------|----------|
| Entrypoint   | 0x0872   |
| Data Size    | 15 bytes |
| Instructions | 3        |

```
      00 01 02 03 04 05 06 07  08 09 0A 0B 0C 0D 0E 0F
      -- -- -- -- -- -- -- --  -- -- -- -- -- -- -- --
0870:       37 AE 80 AF 80 B0  80 AD 80 80 F8 FF FF 7F    7.............
0880: 00                                                .               
```

#### Opcodes

```
  0: 0x0872 [0x37] UPDATE_EVENT_POSITION_AND_DIR: x=-602.007*, z=587.764*, y=0.268*, direction=25.0°*
  1: 0x087B [0x80] LOAD_WAIT(entity=EventEntity)
  2: 0x0880 [0x00] END_REQSTACK()
```

### Event 65535.52

#### Metadata

| Field        | Value    |
|--------------|----------|
| Entrypoint   | 0x0881   |
| Data Size    | 80 bytes |
| Instructions | 18       |

```
      00 01 02 03 04 05 06 07  08 09 0A 0B 0C 0D 0E 0F
      -- -- -- -- -- -- -- --  -- -- -- -- -- -- -- --
0880:    32 13 80 1F 00 B1 80  B2 80 B3 80 1F 01 1F 00   2..............
0890: B4 80 B5 80 B6 80 1F 01  1F 00 B7 80 B8 80 B9 80  ................
08A0: 1F 01 1F 00 BA 80 BB 80  BC 80 1F 01 1C 16 80 4B  ...............K
08B0: 97 A0 0E 01 BD 80 1C 0B  80 1F 00 AE 80 AF 80 B0  ................
08C0: 80 1F 01 1C 16 80 4B 97  A0 0E 01 BE 80 1C 16 80  ......K.........
08D0: 00                                                .               
```

#### Opcodes

```
  0: 0x0881 [0x32] ExtData[1]->MainSpeed = 15* * 0.1
  1: 0x0884 [0x1F] MOVE_ENTITY: EventEntity moves to X=-601.910*, Z=587.743*, Y=0.274*
  2: 0x088C [0x1F] MOVE_ENTITY: Update entity position (mode=1)
  3: 0x088E [0x1F] MOVE_ENTITY: EventEntity moves to X=-600.199*, Z=588.994*, Y=0.347*
  4: 0x0896 [0x1F] MOVE_ENTITY: Update entity position (mode=1)
  5: 0x0898 [0x1F] MOVE_ENTITY: EventEntity moves to X=-599.211*, Z=586.089*, Y=0.586*
  6: 0x08A0 [0x1F] MOVE_ENTITY: Update entity position (mode=1)
  7: 0x08A2 [0x1F] MOVE_ENTITY: EventEntity moves to X=-599.391*, Z=583.375*, Y=0.830*
  8: 0x08AA [0x1F] MOVE_ENTITY: Update entity position (mode=1)
  9: 0x08AC [0x1C] WAIT(30* ticks)
 10: 0x08AF [0x4B] UPDATE_ENTITY_YAW(entity=Unnamed NPC (ID: 17735831/0x010EA097), yaw=17.4°*)
 11: 0x08B6 [0x1C] WAIT(120* ticks)
 12: 0x08B9 [0x1F] MOVE_ENTITY: EventEntity moves to X=-602.007*, Z=587.764*, Y=0.268*
 13: 0x08C1 [0x1F] MOVE_ENTITY: Update entity position (mode=1)
 14: 0x08C3 [0x1C] WAIT(30* ticks)
 15: 0x08C6 [0x4B] UPDATE_ENTITY_YAW(entity=Unnamed NPC (ID: 17735831/0x010EA097), yaw=1.9°*)
 16: 0x08CD [0x1C] WAIT(30* ticks)
 17: 0x08D0 [0x00] END_REQSTACK()
```

### Event 65535.53

#### Metadata

| Field        | Value    |
|--------------|----------|
| Entrypoint   | 0x08D1   |
| Data Size    | 67 bytes |
| Instructions | 15       |

```
      00 01 02 03 04 05 06 07  08 09 0A 0B 0C 0D 0E 0F
      -- -- -- -- -- -- -- --  -- -- -- -- -- -- -- --
08D0:    32 BF 80 1F 00 C0 80  C1 80 C2 80 1F 01 4B 97   2............K.
08E0: A0 0E 01 C3 80 1C 09 80  1F 00 C4 80 C5 80 C6 80  ................
08F0: 1F 01 4B 97 A0 0E 01 C7  80 1C C8 80 1F 00 C9 80  ..K.............
0900: CA 80 CB 80 1F 01 1C 16  80 4B 97 A0 0E 01 CC 80  .........K......
0910: 1C 09 80 00                                       ....            
```

#### Opcodes

```
  0: 0x08D1 [0x32] ExtData[1]->MainSpeed = 45* * 0.1
  1: 0x08D4 [0x1F] MOVE_ENTITY: EventEntity moves to X=-599.295*, Z=590.678*, Y=0.264*
  2: 0x08DC [0x1F] MOVE_ENTITY: Update entity position (mode=1)
  3: 0x08DE [0x4B] UPDATE_ENTITY_YAW(entity=Unnamed NPC (ID: 17735831/0x010EA097), yaw=5.3°*)
  4: 0x08E5 [0x1C] WAIT(60* ticks)
  5: 0x08E8 [0x1F] MOVE_ENTITY: EventEntity moves to X=-604.353*, Z=586.292*, Y=0.138*
  6: 0x08F0 [0x1F] MOVE_ENTITY: Update entity position (mode=1)
  7: 0x08F2 [0x4B] UPDATE_ENTITY_YAW(entity=Unnamed NPC (ID: 17735831/0x010EA097), yaw=0.2°*)
  8: 0x08F9 [0x1C] WAIT(240* ticks)
  9: 0x08FC [0x1F] MOVE_ENTITY: EventEntity moves to X=-600.328*, Z=582.410*, Y=0.802*
 10: 0x0904 [0x1F] MOVE_ENTITY: Update entity position (mode=1)
 11: 0x0906 [0x1C] WAIT(30* ticks)
 12: 0x0909 [0x4B] UPDATE_ENTITY_YAW(entity=Unnamed NPC (ID: 17735831/0x010EA097), yaw=16.6°*)
 13: 0x0910 [0x1C] WAIT(60* ticks)
 14: 0x0913 [0x00] END_REQSTACK()
```

### Event 65535.54

#### Metadata

| Field        | Value    |
|--------------|----------|
| Entrypoint   | 0x0914   |
| Data Size    | 14 bytes |
| Instructions | 4        |

```
      00 01 02 03 04 05 06 07  08 09 0A 0B 0C 0D 0E 0F
      -- -- -- -- -- -- -- --  -- -- -- -- -- -- -- --
0910:             32 BF 80 1F  00 CD 80 CE 80 CF 80 1F      2...........
0920: 01 00                                             ..              
```

#### Opcodes

```
  0: 0x0914 [0x32] ExtData[1]->MainSpeed = 45* * 0.1
  1: 0x0917 [0x1F] MOVE_ENTITY: EventEntity moves to X=-601.434*, Z=588.428*, Y=0.312*
  2: 0x091F [0x1F] MOVE_ENTITY: Update entity position (mode=1)
  3: 0x0921 [0x00] END_REQSTACK()
```

### Event 65535.55

#### Metadata

| Field        | Value    |
|--------------|----------|
| Entrypoint   | 0x0922   |
| Data Size    | 34 bytes |
| Instructions | 8        |

```
      00 01 02 03 04 05 06 07  08 09 0A 0B 0C 0D 0E 0F
      -- -- -- -- -- -- -- --  -- -- -- -- -- -- -- --
0920:       32 BF 80 1F 00 D0  80 D1 80 D2 80 1F 01 1F    2.............
0930: 00 D3 80 D4 80 D5 80 1F  01 1F 00 D6 80 D7 80 D8  ................
0940: 80 1F 01 00                                       ....            
```

#### Opcodes

```
  0: 0x0922 [0x32] ExtData[1]->MainSpeed = 45* * 0.1
  1: 0x0925 [0x1F] MOVE_ENTITY: EventEntity moves to X=-604.257*, Z=586.573*, Y=0.057*
  2: 0x092D [0x1F] MOVE_ENTITY: Update entity position (mode=1)
  3: 0x092F [0x1F] MOVE_ENTITY: EventEntity moves to X=-603.318*, Z=588.527*, Y=0.196*
  4: 0x0937 [0x1F] MOVE_ENTITY: Update entity position (mode=1)
  5: 0x0939 [0x1F] MOVE_ENTITY: EventEntity moves to X=-599.732*, Z=584.728*, Y=0.723*
  6: 0x0941 [0x1F] MOVE_ENTITY: Update entity position (mode=1)
  7: 0x0943 [0x00] END_REQSTACK()
```

### Event 65535.56

#### Metadata

| Field        | Value    |
|--------------|----------|
| Entrypoint   | 0x0944   |
| Data Size    | 14 bytes |
| Instructions | 4        |

```
      00 01 02 03 04 05 06 07  08 09 0A 0B 0C 0D 0E 0F
      -- -- -- -- -- -- -- --  -- -- -- -- -- -- -- --
0940:             32 BF 80 1F  00 D9 80 DA 80 DB 80 1F      2...........
0950: 01 00                                             ..              
```

#### Opcodes

```
  0: 0x0944 [0x32] ExtData[1]->MainSpeed = 45* * 0.1
  1: 0x0947 [0x1F] MOVE_ENTITY: EventEntity moves to X=-605.671*, Z=583.776*, Y=-0.108*
  2: 0x094F [0x1F] MOVE_ENTITY: Update entity position (mode=1)
  3: 0x0951 [0x00] END_REQSTACK()
```
