# 17735684 - Gumbah

## Common Data

| Field            | Value                  |
|------------------|------------------------|
| Zone             | Bastok Mines (ID: 234) |
| Block Size       | 3184 bytes             |
| Total Events     | 111                    |
| References Count | 149                    |

## List of Events

| Event ID                   | Entrypoint   |   Size |   Instructions |
|----------------------------|--------------|--------|----------------|
| [65535](#event-65535)      | 0x0000       |      1 |              1 |
| [52](#event-52)            | 0x0001       |     30 |              8 |
| [1](#event-1)              | 0x001F       |     12 |              3 |
| [65535.1](#event-655351)   | 0x002B       |     22 |              6 |
| [65535.2](#event-655352)   | 0x0041       |     49 |             11 |
| [65535.3](#event-655353)   | 0x0072       |     11 |              3 |
| [65535.4](#event-655354)   | 0x007D       |     13 |              4 |
| [45](#event-45)            | 0x008A       |     12 |              3 |
| [65535.5](#event-655355)   | 0x0096       |     29 |              7 |
| [65535.6](#event-655356)   | 0x00B3       |     19 |              5 |
| [65535.7](#event-655357)   | 0x00C6       |     24 |              6 |
| [65535.8](#event-655358)   | 0x00DE       |      6 |              2 |
| [93](#event-93)            | 0x00E4       |     12 |              3 |
| [65535.9](#event-655359)   | 0x00F0       |     38 |              9 |
| [65535.10](#event-6553510) | 0x0116       |     74 |             11 |
| [94](#event-94)            | 0x0160       |     12 |              3 |
| [65535.11](#event-6553511) | 0x016C       |     41 |             10 |
| [65535.12](#event-6553512) | 0x0195       |     40 |              8 |
| [65535.13](#event-6553513) | 0x01BD       |     59 |              8 |
| [99](#event-99)            | 0x01F8       |      1 |              1 |
| [65535.14](#event-6553514) | 0x01F9       |     10 |              2 |
| [65535.15](#event-6553515) | 0x0203       |     53 |             11 |
| [130](#event-130)          | 0x0238       |     39 |             11 |
| [175](#event-175)          | 0x025F       |    236 |             31 |
| [176](#event-176)          | 0x034B       |      3 |              2 |
| [65535.16](#event-6553516) | 0x034E       |     25 |              6 |
| [65535.17](#event-6553517) | 0x0367       |     33 |              7 |
| [65535.18](#event-6553518) | 0x0388       |     15 |              5 |
| [65535.19](#event-6553519) | 0x0397       |     24 |              6 |
| [65535.20](#event-6553520) | 0x03AF       |     14 |              4 |
| [177](#event-177)          | 0x03BD       |      1 |              1 |
| [65535.21](#event-6553521) | 0x03BE       |     10 |              2 |
| [182](#event-182)          | 0x03C8       |      1 |              1 |
| [65535.22](#event-6553522) | 0x03C9       |     24 |              6 |
| [65535.23](#event-6553523) | 0x03E1       |     14 |              4 |
| [183](#event-183)          | 0x03EF       |    184 |             24 |
| [190](#event-190)          | 0x04A7       |      1 |              1 |
| [191](#event-191)          | 0x04A8       |    131 |             33 |
| [192](#event-192)          | 0x052B       |     11 |              5 |
| [193](#event-193)          | 0x0536       |      1 |              1 |
| [194](#event-194)          | 0x0537       |      1 |              1 |
| [661](#event-661)          | 0x0538       |      7 |              2 |
| [662](#event-662)          | 0x053F       |      1 |              1 |
| [663](#event-663)          | 0x0540       |      7 |              2 |
| [664](#event-664)          | 0x0547       |      1 |              1 |
| [65535.24](#event-6553524) | 0x0548       |     15 |              5 |
| [665](#event-665)          | 0x0557       |      7 |              2 |
| [666](#event-666)          | 0x055E       |      1 |              1 |
| [667](#event-667)          | 0x055F       |      7 |              2 |
| [65535.25](#event-6553525) | 0x0566       |     14 |              4 |
| [65535.26](#event-6553526) | 0x0574       |     14 |              4 |
| [65535.27](#event-6553527) | 0x0582       |     15 |              5 |
| [671](#event-671)          | 0x0591       |      1 |              1 |
| [672](#event-672)          | 0x0592       |      1 |              1 |
| [678](#event-678)          | 0x0593       |      1 |              1 |
| [65535.28](#event-6553528) | 0x0594       |     16 |              2 |
| [65535.29](#event-6553529) | 0x05A4       |     14 |              2 |
| [65535.30](#event-6553530) | 0x05B2       |     16 |              2 |
| [65535.31](#event-6553531) | 0x05C2       |     14 |              2 |
| [65535.32](#event-6553532) | 0x05D0       |     16 |              2 |
| [65535.33](#event-6553533) | 0x05E0       |     14 |              2 |
| [65535.34](#event-6553534) | 0x05EE       |     16 |              2 |
| [65535.35](#event-6553535) | 0x05FE       |     14 |              2 |
| [65535.36](#event-6553536) | 0x060C       |     16 |              2 |
| [65535.37](#event-6553537) | 0x061C       |     14 |              2 |
| [65535.38](#event-6553538) | 0x062A       |     16 |              2 |
| [65535.39](#event-6553539) | 0x063A       |     14 |              2 |
| [65535.40](#event-6553540) | 0x0648       |     16 |              2 |
| [65535.41](#event-6553541) | 0x0658       |     14 |              2 |
| [65535.42](#event-6553542) | 0x0666       |     16 |              2 |
| [65535.43](#event-6553543) | 0x0676       |     14 |              2 |
| [65535.44](#event-6553544) | 0x0684       |     16 |              2 |
| [65535.45](#event-6553545) | 0x0694       |     14 |              2 |
| [65535.46](#event-6553546) | 0x06A2       |     16 |              2 |
| [65535.47](#event-6553547) | 0x06B2       |     14 |              2 |
| [65535.48](#event-6553548) | 0x06C0       |     16 |              2 |
| [65535.49](#event-6553549) | 0x06D0       |     14 |              2 |
| [65535.50](#event-6553550) | 0x06DE       |     16 |              2 |
| [65535.51](#event-6553551) | 0x06EE       |     14 |              2 |
| [65535.52](#event-6553552) | 0x06FC       |     16 |              2 |
| [65535.53](#event-6553553) | 0x070C       |     14 |              2 |
| [65535.54](#event-6553554) | 0x071A       |     16 |              2 |
| [65535.55](#event-6553555) | 0x072A       |     14 |              2 |
| [65535.56](#event-6553556) | 0x0738       |     16 |              2 |
| [65535.57](#event-6553557) | 0x0748       |     14 |              2 |
| [65535.58](#event-6553558) | 0x0756       |     16 |              2 |
| [65535.59](#event-6553559) | 0x0766       |     14 |              2 |
| [65535.60](#event-6553560) | 0x0774       |     16 |              2 |
| [65535.61](#event-6553561) | 0x0784       |     14 |              2 |
| [65535.62](#event-6553562) | 0x0792       |     16 |              2 |
| [65535.63](#event-6553563) | 0x07A2       |     14 |              2 |
| [65535.64](#event-6553564) | 0x07B0       |     16 |              2 |
| [65535.65](#event-6553565) | 0x07C0       |     14 |              2 |
| [65535.66](#event-6553566) | 0x07CE       |     16 |              2 |
| [65535.67](#event-6553567) | 0x07DE       |     14 |              2 |
| [65535.68](#event-6553568) | 0x07EC       |     16 |              2 |
| [65535.69](#event-6553569) | 0x07FC       |     14 |              2 |
| [65535.70](#event-6553570) | 0x080A       |     15 |              5 |
| [679](#event-679)          | 0x0819       |      1 |              1 |
| [680](#event-680)          | 0x081A       |      1 |              1 |
| [681](#event-681)          | 0x081B       |      1 |              1 |
| [65535.71](#event-6553571) | 0x081C       |     15 |              5 |
| [682](#event-682)          | 0x082B       |      1 |              1 |
| [683](#event-683)          | 0x082C       |      1 |              1 |
| [684](#event-684)          | 0x082D       |      1 |              1 |
| [685](#event-685)          | 0x082E       |      1 |              1 |
| [686](#event-686)          | 0x082F       |      1 |              1 |
| [687](#event-687)          | 0x0830       |      1 |              1 |
| [688](#event-688)          | 0x0831       |      1 |              1 |
| [65535.72](#event-6553572) | 0x0832       |     16 |              2 |
| [65535.73](#event-6553573) | 0x0842       |     14 |              2 |

## DAT References (imed_data)

|   Index | Hex Value   |   Dec Value |
|---------|-------------|-------------|
|       0 | 0x29EB      |       10731 |
|       1 | 0x009B      |         155 |
|       2 | 0x29EC      |       10732 |
|       3 | 0xFFFF5B68  |  4294925160 |
|       4 | 0x8E01      |       36353 |
|       5 | 0x0000      |           0 |
|       6 | 0x0085      |         133 |
|       7 | 0x0021      |          33 |
|       8 | 0xFFFF495A  |  4294920538 |
|       9 | 0x6603      |       26115 |
|      10 | 0x001E      |          30 |
|      11 | 0x000B      |          11 |
|      12 | 0xFFFF487F  |  4294920319 |
|      13 | 0x6155      |       24917 |
|      14 | 0xFFFF484A  |  4294920266 |
|      15 | 0x5E9E      |       24222 |
|      16 | 0xFFFF49DA  |  4294920666 |
|      17 | 0x5C89      |       23689 |
|      18 | 0xFFFF4BAE  |  4294921134 |
|      19 | 0x5BF1      |       23537 |
|      20 | 0xFFFF5033  |  4294922291 |
|      21 | 0x61E1      |       25057 |
|      22 | 0xFFFF5D01  |  4294925569 |
|      23 | 0x6E3B      |       28219 |
|      24 | 0x10636     |       67126 |
|      25 | 0x611D      |       24861 |
|      26 | 0xFFFFFFD1  |  4294967249 |
|      27 | 0x0C8B      |        3211 |
|      28 | 0x1061C     |       67100 |
|      29 | 0x6DF7      |       28151 |
|      30 | 0xFFFFFFA2  |  4294967202 |
|      31 | 0x10CB0     |       68784 |
|      32 | 0x7734      |       30516 |
|      33 | 0x10C4C     |       68684 |
|      34 | 0x7148      |       29000 |
|      35 | 0x1053A     |       66874 |
|      36 | 0x6336      |       25398 |
|      37 | 0xFFFFFFD4  |  4294967252 |
|      38 | 0x10447     |       66631 |
|      39 | 0x4F26      |       20262 |
|      40 | 0x147C      |        5244 |
|      41 | 0x1772      |        6002 |
|      42 | 0x1B57      |        6999 |
|      43 | 0x0832      |        2098 |
|      44 | 0x12B0      |        4784 |
|      45 | 0x1AAA      |        6826 |
|      46 | 0x133A      |        4922 |
|      47 | 0x20CA      |        8394 |
|      48 | 0x0FA2      |        4002 |
|      49 | 0x9825      |       38949 |
|      50 | 0xFFFFE948  |  4294961480 |
|      51 | 0x21B7      |        8631 |
|      52 | 0x0C1E      |        3102 |
|      53 | 0x07A6      |        1958 |
|      54 | 0x18DB      |        6363 |
|      55 | 0x0EB9      |        3769 |
|      56 | 0x13F1      |        5105 |
|      57 | 0x11F2      |        4594 |
|      58 | 0x1285      |        4741 |
|      59 | 0x1FCF      |        8143 |
|      60 | 0x0400      |        1024 |
|      61 | 0x000F      |          15 |
|      62 | 0x0FFA      |        4090 |
|      63 | 0x1ADE      |        6878 |
|      64 | 0xD11C      |       53532 |
|      65 | 0xFFFF6EE3  |  4294930147 |
|      66 | 0xFFFFFFCD  |  4294967245 |
|      67 | 0x0A1D      |        2589 |
|      68 | 0x003C      |          60 |
|      69 | 0xCF21      |       53025 |
|      70 | 0xFFFF7B30  |  4294933296 |
|      71 | 0xFFFFFFC5  |  4294967237 |
|      72 | 0xC7BF      |       51135 |
|      73 | 0xFFFF7680  |  4294932096 |
|      74 | 0x2AC6      |       10950 |
|      75 | 0x2AC7      |       10951 |
|      76 | 0x2AC8      |       10952 |
|      77 | 0x010B      |         267 |
|      78 | 0x00C8      |         200 |
|      79 | 0x0003      |           3 |
|      80 | 0x00CB      |         203 |
|      81 | 0x2CF1      |       11505 |
|      82 | 0x2CF2      |       11506 |
|      83 | 0x2CF3      |       11507 |
|      84 | 0x2CF4      |       11508 |
|      85 | 0xFFFDAA49  |  4294814281 |
|      86 | 0xFFFF9259  |  4294939225 |
|      87 | 0x006E      |         110 |
|      88 | 0x06DC      |        1756 |
|      89 | 0xFFFD9C5F  |  4294810719 |
|      90 | 0xFFFF8948  |  4294936904 |
|      91 | 0xFFFDA9BA  |  4294814138 |
|      92 | 0xFFFF7990  |  4294932880 |
|      93 | 0x052F      |        1327 |
|      94 | 0xFFFD9E3D  |  4294811197 |
|      95 | 0xFFFF6B18  |  4294929176 |
|      96 | 0xFFFD8FC9  |  4294807497 |
|      97 | 0xFFFF6C22  |  4294929442 |
|      98 | 0xFFFD8F99  |  4294807449 |
|      99 | 0xFFFF8581  |  4294935937 |
|     100 | 0xFFFFF985  |  4294965637 |
|     101 | 0xFFFD9DC6  |  4294811078 |
|     102 | 0xFFFF893C  |  4294936892 |
|     103 | 0xFFFFFFF8  |  4294967288 |
|     104 | 0x03EB      |        1003 |
|     105 | 0xFFFDA70E  |  4294813454 |
|     106 | 0xFFFF90C8  |  4294938824 |
|     107 | 0x003B      |          59 |
|     108 | 0xFFFDAE4F  |  4294815311 |
|     109 | 0xFFFF9545  |  4294939973 |
|     110 | 0x0055      |          85 |
|     111 | 0xD19A      |       53658 |
|     112 | 0xFFFF740E  |  4294931470 |
|     113 | 0x0889      |        2185 |
|     114 | 0x12312     |       74514 |
|     115 | 0xFFFFE293  |  4294959763 |
|     116 | 0x041D      |        1053 |
|     117 | 0x11FC0     |       73664 |
|     118 | 0xFFFFDD4C  |  4294958412 |
|     119 | 0x132B6     |       78518 |
|     120 | 0xFFFFED39  |  4294962489 |
|     121 | 0x2D7B      |       11643 |
|     122 | 0x2D7C      |       11644 |
|     123 | 0x2D7D      |       11645 |
|     124 | 0x2DD5      |       11733 |
|     125 | 0x0002      |           2 |
|     126 | 0x2DD6      |       11734 |
|     127 | 0x0001      |           1 |
|     128 | 0x2DD7      |       11735 |
|     129 | 0x2DD8      |       11736 |
|     130 | 0x2DD9      |       11737 |
|     131 | 0x2DDA      |       11738 |
|     132 | 0x2DDB      |       11739 |
|     133 | 0x0028      |          40 |
|     134 | 0xD113      |       53523 |
|     135 | 0xFFFF738F  |  4294931343 |
|     136 | 0x000D      |          13 |
|     137 | 0xD0CA      |       53450 |
|     138 | 0xFFFF798B  |  4294932875 |
|     139 | 0xD042      |       53314 |
|     140 | 0xFFFF7DED  |  4294933997 |
|     141 | 0xCC02      |       52226 |
|     142 | 0xFFFF76B6  |  4294932150 |
|     143 | 0x009C      |         156 |
|     144 | 0xD0A1      |       53409 |
|     145 | 0xFFFF731B  |  4294931227 |
|     146 | 0xD07E      |       53374 |
|     147 | 0xFFFF76D9  |  4294932185 |
|     148 | 0x0A3C      |        2620 |

## String References

- **10731**: Werei was the oldest Galka around here. He was really strong when he was young, you know.
- **10732**: He's the one who taught Iron Eater, the only Galka in the Mythril Musketeers, how to fight.
- **10950**: Hey, [miss/mister], you met Zeid, didn't you? You know, the dark knight?
- **10951**: He wrote you a letter. I think he meant for Werei to give it to you, but since I got it, I had to open it to find out who it was for. Sorry.
- **10952**: I think he says he's waiting in a mine somewhere. Are you training to become a dark knight, too? Wow, it must be really hard.
- **11505**: Werei...set out on his journey of rebirth.
- **11506**: I'm not upset. I knew it had to happen sooner or later.
- **11507**: He wasn't feeling that good, but he would always hide it whenever someone would visit.
- **11508**: I guess he was just worried about the people he would leave behind. He was always like that.
- **11643**: Everybody still looks a little confused. They don't even know how to talk to me.
- **11644**: Well, I don't blame them. The Talekeeper is supposed to be a great, sacred presence. I was probably the last person they'd expect to be the Talekeeper.
- **11645**: But that's okay. They can think of me the way they always have--as an annoying little kid.
- **11733**: What's wrong? You didn't go and lose the sword now, did you?
- **11734**: Why are you here? [No particular reason./I went and lost the sword.../I'm tired of this.]
- **11735**: You know, I knew you were going to say that. The sword you "lost" was delivered to my room earlier today. Here, take it.
- **11736**: What? You're not serious, are you?
- **11737**: Are you serious? [Dead serious./I was just bluffing.]
- **11738**: Oh well, you can keep the sword. Werei left a chest full of these things, and I'm running out of room to store them...
- **11739**: Hm? It doesn't look like anything special has happened yet... Maybe you should use it a little bit longer.

## Events

### Event 65535

#### Metadata

| Field        | Value   |
|--------------|---------|
| Entrypoint   | 0x0000  |
| Data Size    | 1 bytes |
| Instructions | 1       |

```
      00 01 02 03 04 05 06 07  08 09 0A 0B 0C 0D 0E 0F
      -- -- -- -- -- -- -- --  -- -- -- -- -- -- -- --
0000: 00                                                .               
```

#### Opcodes

```
  0: 0x0000 [0x00] END_REQSTACK()
```

### Event 52

#### Metadata

| Field        | Value    |
|--------------|----------|
| Entrypoint   | 0x0001   |
| Data Size    | 30 bytes |
| Instructions | 8        |

```
      00 01 02 03 04 05 06 07  08 09 0A 0B 0C 0D 0E 0F
      -- -- -- -- -- -- -- --  -- -- -- -- -- -- -- --
0000:    1E F0 FF FF 7F 1D 00  80 23 5B 01 80 04 A0 0E   ........#[.....
0010: 01 04 A0 0E 01 74 6C 61  30 1D 02 80 23 21 00     .....tla0...#!. 
```

#### Opcodes

```
  0: 0x0001 [0x1E] EventEntity looks at LocalPlayer and starts talking
  1: 0x0006 [0x1D] PRINT_EVENT_MESSAGE(message_id=10731*)
    → "Werei was the oldest Galka around here. He was really strong when he was young, you know."
  2: 0x0009 [0x23] WAIT_FOR_DIALOG_INTERACTION
  3: 0x000A [0x5B] LOAD_EXT_SCHEDULER: Load scheduler "tla0" with entities [Gumbah (ID: 17735684/0x010EA004), Gumbah (ID: 17735684/0x010EA004)], work=155*
  4: 0x0019 [0x1D] PRINT_EVENT_MESSAGE(message_id=10732*)
    → "He's the one who taught Iron Eater, the only Galka in the Mythril Musketeers, how to fight."
  5: 0x001C [0x23] WAIT_FOR_DIALOG_INTERACTION
  6: 0x001D [0x21] END_EVENT
  7: 0x001E [0x00] END_REQSTACK()
```

### Event 1

#### Metadata

| Field        | Value    |
|--------------|----------|
| Entrypoint   | 0x001F   |
| Data Size    | 12 bytes |
| Instructions | 3        |

```
      00 01 02 03 04 05 06 07  08 09 0A 0B 0C 0D 0E 0F
      -- -- -- -- -- -- -- --  -- -- -- -- -- -- -- --
0010:                                               37                 7
0020: 03 80 04 80 05 80 06 80  22 00 00                 ........"..     
```

#### Opcodes

```
  0: 0x001F [0x37] UPDATE_EVENT_POSITION_AND_DIR: x=-42.136*, z=36.353*, y=0.000*, direction=11.7°*
  1: 0x0028 [0x22] ENTITY_HIDE_FLAG(enabled=0x00)
  2: 0x002A [0x00] END_REQSTACK()
```

### Event 65535.1

#### Metadata

| Field        | Value    |
|--------------|----------|
| Entrypoint   | 0x002B   |
| Data Size    | 22 bytes |
| Instructions | 6        |

```
      00 01 02 03 04 05 06 07  08 09 0A 0B 0C 0D 0E 0F
      -- -- -- -- -- -- -- --  -- -- -- -- -- -- -- --
0020:                                   32 07 80 1F 00             2....
0030: 08 80 09 80 05 80 1F 01  1E 03 A0 0E 01 1C 0A 80  ................
0040: 00                                                .               
```

#### Opcodes

```
  0: 0x002B [0x32] ExtData[1]->MainSpeed = 33* * 0.1
  1: 0x002E [0x1F] MOVE_ENTITY: EventEntity moves to X=-46.758*, Z=26.115*, Y=0.000*
  2: 0x0036 [0x1F] MOVE_ENTITY: Update entity position (mode=1)
  3: 0x0038 [0x1E] EventEntity looks at Deidogg (ID: 17735683/0x010EA003) and starts talking
  4: 0x003D [0x1C] WAIT(30* ticks)
  5: 0x0040 [0x00] END_REQSTACK()
```

### Event 65535.2

#### Metadata

| Field        | Value    |
|--------------|----------|
| Entrypoint   | 0x0041   |
| Data Size    | 49 bytes |
| Instructions | 11       |

```
      00 01 02 03 04 05 06 07  08 09 0A 0B 0C 0D 0E 0F
      -- -- -- -- -- -- -- --  -- -- -- -- -- -- -- --
0040:    32 0B 80 1F 00 0C 80  0D 80 05 80 1F 01 1F 00   2..............
0050: 0E 80 0F 80 05 80 1F 01  1F 00 10 80 11 80 05 80  ................
0060: 1F 01 1F 00 12 80 13 80  05 80 1F 01 1E 03 A0 0E  ................
0070: 01 00                                             ..              
```

#### Opcodes

```
  0: 0x0041 [0x32] ExtData[1]->MainSpeed = 11* * 0.1
  1: 0x0044 [0x1F] MOVE_ENTITY: EventEntity moves to X=-46.977*, Z=24.917*, Y=0.000*
  2: 0x004C [0x1F] MOVE_ENTITY: Update entity position (mode=1)
  3: 0x004E [0x1F] MOVE_ENTITY: EventEntity moves to X=-47.030*, Z=24.222*, Y=0.000*
  4: 0x0056 [0x1F] MOVE_ENTITY: Update entity position (mode=1)
  5: 0x0058 [0x1F] MOVE_ENTITY: EventEntity moves to X=-46.630*, Z=23.689*, Y=0.000*
  6: 0x0060 [0x1F] MOVE_ENTITY: Update entity position (mode=1)
  7: 0x0062 [0x1F] MOVE_ENTITY: EventEntity moves to X=-46.162*, Z=23.537*, Y=0.000*
  8: 0x006A [0x1F] MOVE_ENTITY: Update entity position (mode=1)
  9: 0x006C [0x1E] EventEntity looks at Deidogg (ID: 17735683/0x010EA003) and starts talking
 10: 0x0071 [0x00] END_REQSTACK()
```

### Event 65535.3

#### Metadata

| Field        | Value    |
|--------------|----------|
| Entrypoint   | 0x0072   |
| Data Size    | 11 bytes |
| Instructions | 3        |

```
      00 01 02 03 04 05 06 07  08 09 0A 0B 0C 0D 0E 0F
      -- -- -- -- -- -- -- --  -- -- -- -- -- -- -- --
0070:       1F 00 14 80 15 80  05 80 1F 01 00             ...........   
```

#### Opcodes

```
  0: 0x0072 [0x1F] MOVE_ENTITY: EventEntity moves to X=-45.005*, Z=25.057*, Y=0.000*
  1: 0x007A [0x1F] MOVE_ENTITY: Update entity position (mode=1)
  2: 0x007C [0x00] END_REQSTACK()
```

### Event 65535.4

#### Metadata

| Field        | Value    |
|--------------|----------|
| Entrypoint   | 0x007D   |
| Data Size    | 13 bytes |
| Instructions | 4        |

```
      00 01 02 03 04 05 06 07  08 09 0A 0B 0C 0D 0E 0F
      -- -- -- -- -- -- -- --  -- -- -- -- -- -- -- --
0070:                                         1F 00 16               ...
0080: 80 17 80 05 80 1F 01 22  01 00                    ......."..      
```

#### Opcodes

```
  0: 0x007D [0x1F] MOVE_ENTITY: EventEntity moves to X=-41.727*, Z=28.219*, Y=0.000*
  1: 0x0085 [0x1F] MOVE_ENTITY: Update entity position (mode=1)
  2: 0x0087 [0x22] ENTITY_HIDE_FLAG(enabled=0x01)
  3: 0x0089 [0x00] END_REQSTACK()
```

### Event 45

#### Metadata

| Field        | Value    |
|--------------|----------|
| Entrypoint   | 0x008A   |
| Data Size    | 12 bytes |
| Instructions | 3        |

```
      00 01 02 03 04 05 06 07  08 09 0A 0B 0C 0D 0E 0F
      -- -- -- -- -- -- -- --  -- -- -- -- -- -- -- --
0080:                                37 18 80 19 80 1A            7.....
0090: 80 1B 80 22 01 00                                 ..."..          
```

#### Opcodes

```
  0: 0x008A [0x37] UPDATE_EVENT_POSITION_AND_DIR: x=67.126*, z=24.861*, y=-0.047*, direction=282.2°*
  1: 0x0093 [0x22] ENTITY_HIDE_FLAG(enabled=0x01)
  2: 0x0095 [0x00] END_REQSTACK()
```

### Event 65535.5

#### Metadata

| Field        | Value    |
|--------------|----------|
| Entrypoint   | 0x0096   |
| Data Size    | 29 bytes |
| Instructions | 7        |

```
      00 01 02 03 04 05 06 07  08 09 0A 0B 0C 0D 0E 0F
      -- -- -- -- -- -- -- --  -- -- -- -- -- -- -- --
0090:                   32 0B  80 1F 00 1C 80 1D 80 1E        2.........
00A0: 80 1F 01 1F 00 1F 80 20  80 1E 80 1F 01 1E 26 A0  ....... ......&.
00B0: 0E 01 00                                          ...             
```

#### Opcodes

```
  0: 0x0096 [0x32] ExtData[1]->MainSpeed = 11* * 0.1
  1: 0x0099 [0x1F] MOVE_ENTITY: EventEntity moves to X=67.100*, Z=28.151*, Y=-0.094*
  2: 0x00A1 [0x1F] MOVE_ENTITY: Update entity position (mode=1)
  3: 0x00A3 [0x1F] MOVE_ENTITY: EventEntity moves to X=68.784*, Z=30.516*, Y=-0.094*
  4: 0x00AB [0x1F] MOVE_ENTITY: Update entity position (mode=1)
  5: 0x00AD [0x1E] EventEntity looks at Babenn (ID: 17735718/0x010EA026) and starts talking
  6: 0x00B2 [0x00] END_REQSTACK()
```

### Event 65535.6

#### Metadata

| Field        | Value    |
|--------------|----------|
| Entrypoint   | 0x00B3   |
| Data Size    | 19 bytes |
| Instructions | 5        |

```
      00 01 02 03 04 05 06 07  08 09 0A 0B 0C 0D 0E 0F
      -- -- -- -- -- -- -- --  -- -- -- -- -- -- -- --
00B0:          1F 00 21 80 22  80 1E 80 1F 01 1E 26 A0     ..!."......&.
00C0: 0E 01 1C 0A 80 00                                 ......          
```

#### Opcodes

```
  0: 0x00B3 [0x1F] MOVE_ENTITY: EventEntity moves to X=68.684*, Z=29.000*, Y=-0.094*
  1: 0x00BB [0x1F] MOVE_ENTITY: Update entity position (mode=1)
  2: 0x00BD [0x1E] EventEntity looks at Babenn (ID: 17735718/0x010EA026) and starts talking
  3: 0x00C2 [0x1C] WAIT(30* ticks)
  4: 0x00C5 [0x00] END_REQSTACK()
```

### Event 65535.7

#### Metadata

| Field        | Value    |
|--------------|----------|
| Entrypoint   | 0x00C6   |
| Data Size    | 24 bytes |
| Instructions | 6        |

```
      00 01 02 03 04 05 06 07  08 09 0A 0B 0C 0D 0E 0F
      -- -- -- -- -- -- -- --  -- -- -- -- -- -- -- --
00C0:                   32 07  80 1F 00 23 80 24 80 25        2....#.$.%
00D0: 80 1F 01 1F 00 26 80 27  80 25 80 1F 01 00        .....&.'.%....  
```

#### Opcodes

```
  0: 0x00C6 [0x32] ExtData[1]->MainSpeed = 33* * 0.1
  1: 0x00C9 [0x1F] MOVE_ENTITY: EventEntity moves to X=66.874*, Z=25.398*, Y=-0.044*
  2: 0x00D1 [0x1F] MOVE_ENTITY: Update entity position (mode=1)
  3: 0x00D3 [0x1F] MOVE_ENTITY: EventEntity moves to X=66.631*, Z=20.262*, Y=-0.044*
  4: 0x00DB [0x1F] MOVE_ENTITY: Update entity position (mode=1)
  5: 0x00DD [0x00] END_REQSTACK()
```

### Event 65535.8

#### Metadata

| Field        | Value   |
|--------------|---------|
| Entrypoint   | 0x00DE  |
| Data Size    | 6 bytes |
| Instructions | 2       |

```
      00 01 02 03 04 05 06 07  08 09 0A 0B 0C 0D 0E 0F
      -- -- -- -- -- -- -- --  -- -- -- -- -- -- -- --
00D0:                                            5E 69                ^i
00E0: 64 6C 30 00                                       dl0.            
```

#### Opcodes

```
  0: 0x00DE [0x5E] EventEntity goes idle (kills current action) (animation: "idl0")
  1: 0x00E3 [0x00] END_REQSTACK()
```

### Event 93

#### Metadata

| Field        | Value    |
|--------------|----------|
| Entrypoint   | 0x00E4   |
| Data Size    | 12 bytes |
| Instructions | 3        |

```
      00 01 02 03 04 05 06 07  08 09 0A 0B 0C 0D 0E 0F
      -- -- -- -- -- -- -- --  -- -- -- -- -- -- -- --
00E0:             22 01 37 28  80 29 80 2A 80 2B 80 00      ".7(.).*.+..
```

#### Opcodes

```
  0: 0x00E4 [0x22] ENTITY_HIDE_FLAG(enabled=0x01)
  1: 0x00E6 [0x37] UPDATE_EVENT_POSITION_AND_DIR: x=5.244*, z=6.002*, y=6.999*, direction=184.4°*
  2: 0x00EF [0x00] END_REQSTACK()
```

### Event 65535.9

#### Metadata

| Field        | Value    |
|--------------|----------|
| Entrypoint   | 0x00F0   |
| Data Size    | 38 bytes |
| Instructions | 9        |

```
      00 01 02 03 04 05 06 07  08 09 0A 0B 0C 0D 0E 0F
      -- -- -- -- -- -- -- --  -- -- -- -- -- -- -- --
00F0: 32 0B 80 22 00 1F 00 2C  80 2D 80 2A 80 1F 01 1F  2.."...,.-.*....
0100: 00 2E 80 2F 80 2A 80 1F  01 1E 16 A0 0E 01 27 0A  .../.*........'.
0110: 50 A0 0E 01 03 00                                 P.....          
```

#### Opcodes

```
  0: 0x00F0 [0x32] ExtData[1]->MainSpeed = 11* * 0.1
  1: 0x00F3 [0x22] ENTITY_HIDE_FLAG(enabled=0x00)
  2: 0x00F5 [0x1F] MOVE_ENTITY: EventEntity moves to X=4.784*, Z=6.826*, Y=6.999*
  3: 0x00FD [0x1F] MOVE_ENTITY: Update entity position (mode=1)
  4: 0x00FF [0x1F] MOVE_ENTITY: EventEntity moves to X=4.922*, Z=8.394*, Y=6.999*
  5: 0x0107 [0x1F] MOVE_ENTITY: Update entity position (mode=1)
  6: 0x0109 [0x1E] EventEntity looks at Detzo (ID: 17735702/0x010EA016) and starts talking
  7: 0x010E [0x27] REQ_SET(priority=0x0A, entity_id=Door:House (ID: 17735760/0x010EA050), tag_num=0x03)
  8: 0x0115 [0x00] END_REQSTACK()
```

### Event 65535.10

#### Metadata

| Field        | Value    |
|--------------|----------|
| Entrypoint   | 0x0116   |
| Data Size    | 74 bytes |
| Instructions | 11       |

```
      00 01 02 03 04 05 06 07  08 09 0A 0B 0C 0D 0E 0F
      -- -- -- -- -- -- -- --  -- -- -- -- -- -- -- --
0110:                   53 04  A0 0E 01 04 A0 0E 01 74        S........t
0120: 6C 61 31 5B 01 80 04 A0  0E 01 04 A0 0E 01 77 61  la1[..........wa
0130: 76 30 53 04 A0 0E 01 04  A0 0E 01 77 61 76 30 1F  v0S........wav0.
0140: 00 2C 80 2D 80 2A 80 1F  01 1F 00 28 80 30 80 2A  .,.-.*.....(.0.*
0150: 80 1F 01 1F 00 31 80 32  80 2A 80 1F 01 22 01 00  .....1.2.*..."..
```

#### Opcodes

```
  0: 0x0116 [0x53] WAIT_SCHEDULER_TASK: Wait for scheduler "tla1" with entities [Gumbah (ID: 17735684/0x010EA004), Gumbah (ID: 17735684/0x010EA004)]
  1: 0x0123 [0x5B] LOAD_EXT_SCHEDULER: Load scheduler "wav0" with entities [Gumbah (ID: 17735684/0x010EA004), Gumbah (ID: 17735684/0x010EA004)], work=155*
  2: 0x0132 [0x53] WAIT_SCHEDULER_TASK: Wait for scheduler "wav0" with entities [Gumbah (ID: 17735684/0x010EA004), Gumbah (ID: 17735684/0x010EA004)]
  3: 0x013F [0x1F] MOVE_ENTITY: EventEntity moves to X=4.784*, Z=6.826*, Y=6.999*
  4: 0x0147 [0x1F] MOVE_ENTITY: Update entity position (mode=1)
  5: 0x0149 [0x1F] MOVE_ENTITY: EventEntity moves to X=5.244*, Z=4.002*, Y=6.999*
  6: 0x0151 [0x1F] MOVE_ENTITY: Update entity position (mode=1)
  7: 0x0153 [0x1F] MOVE_ENTITY: EventEntity moves to X=38.949*, Z=-5.816*, Y=6.999*
  8: 0x015B [0x1F] MOVE_ENTITY: Update entity position (mode=1)
  9: 0x015D [0x22] ENTITY_HIDE_FLAG(enabled=0x01)
 10: 0x015F [0x00] END_REQSTACK()
```

### Event 94

#### Metadata

| Field        | Value    |
|--------------|----------|
| Entrypoint   | 0x0160   |
| Data Size    | 12 bytes |
| Instructions | 3        |

```
      00 01 02 03 04 05 06 07  08 09 0A 0B 0C 0D 0E 0F
      -- -- -- -- -- -- -- --  -- -- -- -- -- -- -- --
0160: 22 01 37 33 80 34 80 2A  80 35 80 00              ".73.4.*.5..    
```

#### Opcodes

```
  0: 0x0160 [0x22] ENTITY_HIDE_FLAG(enabled=0x01)
  1: 0x0162 [0x37] UPDATE_EVENT_POSITION_AND_DIR: x=8.631*, z=3.102*, y=6.999*, direction=172.1°*
  2: 0x016B [0x00] END_REQSTACK()
```

### Event 65535.11

#### Metadata

| Field        | Value    |
|--------------|----------|
| Entrypoint   | 0x016C   |
| Data Size    | 41 bytes |
| Instructions | 10       |

```
      00 01 02 03 04 05 06 07  08 09 0A 0B 0C 0D 0E 0F
      -- -- -- -- -- -- -- --  -- -- -- -- -- -- -- --
0160:                                      32 0B 80 22              2.."
0170: 00 1F 00 36 80 37 80 2A  80 1F 01 1F 00 38 80 39  ...6.7.*.....8.9
0180: 80 2A 80 1F 01 1F 00 3A  80 3B 80 2A 80 1F 01 1E  .*.....:.;.*....
0190: 16 A0 0E 01 00                                    .....           
```

#### Opcodes

```
  0: 0x016C [0x32] ExtData[1]->MainSpeed = 11* * 0.1
  1: 0x016F [0x22] ENTITY_HIDE_FLAG(enabled=0x00)
  2: 0x0171 [0x1F] MOVE_ENTITY: EventEntity moves to X=6.363*, Z=3.769*, Y=6.999*
  3: 0x0179 [0x1F] MOVE_ENTITY: Update entity position (mode=1)
  4: 0x017B [0x1F] MOVE_ENTITY: EventEntity moves to X=5.105*, Z=4.594*, Y=6.999*
  5: 0x0183 [0x1F] MOVE_ENTITY: Update entity position (mode=1)
  6: 0x0185 [0x1F] MOVE_ENTITY: EventEntity moves to X=4.741*, Z=8.143*, Y=6.999*
  7: 0x018D [0x1F] MOVE_ENTITY: Update entity position (mode=1)
  8: 0x018F [0x1E] EventEntity looks at Detzo (ID: 17735702/0x010EA016) and starts talking
  9: 0x0194 [0x00] END_REQSTACK()
```

### Event 65535.12

#### Metadata

| Field        | Value    |
|--------------|----------|
| Entrypoint   | 0x0195   |
| Data Size    | 40 bytes |
| Instructions | 8        |

```
      00 01 02 03 04 05 06 07  08 09 0A 0B 0C 0D 0E 0F
      -- -- -- -- -- -- -- --  -- -- -- -- -- -- -- --
0190:                39 3C 80  1C 3D 80 1F 00 3E 80 3F       9<..=...>.?
01A0: 80 2A 80 1F 01 1E 16 A0  0E 01 1C 3D 80 5B 01 80  .*.........=.[..
01B0: 04 A0 0E 01 04 A0 0E 01  74 6C 62 30 00           ........tlb0.   
```

#### Opcodes

```
  0: 0x0195 [0x39] SET_ENTITY_DIRECTION(direction=5.6°*)
  1: 0x0198 [0x1C] WAIT(15* ticks)
  2: 0x019B [0x1F] MOVE_ENTITY: EventEntity moves to X=4.090*, Z=6.878*, Y=6.999*
  3: 0x01A3 [0x1F] MOVE_ENTITY: Update entity position (mode=1)
  4: 0x01A5 [0x1E] EventEntity looks at Detzo (ID: 17735702/0x010EA016) and starts talking
  5: 0x01AA [0x1C] WAIT(15* ticks)
  6: 0x01AD [0x5B] LOAD_EXT_SCHEDULER: Load scheduler "tlb0" with entities [Gumbah (ID: 17735684/0x010EA004), Gumbah (ID: 17735684/0x010EA004)], work=155*
  7: 0x01BC [0x00] END_REQSTACK()
```

### Event 65535.13

#### Metadata

| Field        | Value    |
|--------------|----------|
| Entrypoint   | 0x01BD   |
| Data Size    | 59 bytes |
| Instructions | 8        |

```
      00 01 02 03 04 05 06 07  08 09 0A 0B 0C 0D 0E 0F
      -- -- -- -- -- -- -- --  -- -- -- -- -- -- -- --
01B0:                                         5B 01 80               [..
01C0: 04 A0 0E 01 04 A0 0E 01  74 6C 62 31 53 04 A0 0E  ........tlb1S...
01D0: 01 04 A0 0E 01 74 6C 62  31 5B 01 80 04 A0 0E 01  .....tlb1[......
01E0: 04 A0 0E 01 77 61 76 30  32 07 80 1F 00 28 80 30  ....wav02....(.0
01F0: 80 2A 80 1F 01 22 01 00                           .*..."..        
```

#### Opcodes

```
  0: 0x01BD [0x5B] LOAD_EXT_SCHEDULER: Load scheduler "tlb1" with entities [Gumbah (ID: 17735684/0x010EA004), Gumbah (ID: 17735684/0x010EA004)], work=155*
  1: 0x01CC [0x53] WAIT_SCHEDULER_TASK: Wait for scheduler "tlb1" with entities [Gumbah (ID: 17735684/0x010EA004), Gumbah (ID: 17735684/0x010EA004)]
  2: 0x01D9 [0x5B] LOAD_EXT_SCHEDULER: Load scheduler "wav0" with entities [Gumbah (ID: 17735684/0x010EA004), Gumbah (ID: 17735684/0x010EA004)], work=155*
  3: 0x01E8 [0x32] ExtData[1]->MainSpeed = 33* * 0.1
  4: 0x01EB [0x1F] MOVE_ENTITY: EventEntity moves to X=5.244*, Z=4.002*, Y=6.999*
  5: 0x01F3 [0x1F] MOVE_ENTITY: Update entity position (mode=1)
  6: 0x01F5 [0x22] ENTITY_HIDE_FLAG(enabled=0x01)
  7: 0x01F7 [0x00] END_REQSTACK()
```

### Event 99

#### Metadata

| Field        | Value   |
|--------------|---------|
| Entrypoint   | 0x01F8  |
| Data Size    | 1 bytes |
| Instructions | 1       |

```
      00 01 02 03 04 05 06 07  08 09 0A 0B 0C 0D 0E 0F
      -- -- -- -- -- -- -- --  -- -- -- -- -- -- -- --
01F0:                          00                               .       
```

#### Opcodes

```
  0: 0x01F8 [0x00] END_REQSTACK()
```

### Event 65535.14

#### Metadata

| Field        | Value    |
|--------------|----------|
| Entrypoint   | 0x01F9   |
| Data Size    | 10 bytes |
| Instructions | 2        |

```
      00 01 02 03 04 05 06 07  08 09 0A 0B 0C 0D 0E 0F
      -- -- -- -- -- -- -- --  -- -- -- -- -- -- -- --
01F0:                             37 40 80 41 80 42 80           7@.A.B.
0200: 43 80 00                                          C..             
```

#### Opcodes

```
  0: 0x01F9 [0x37] UPDATE_EVENT_POSITION_AND_DIR: x=53.532*, z=-37.149*, y=-0.051*, direction=227.5°*
  1: 0x0202 [0x00] END_REQSTACK()
```

### Event 65535.15

#### Metadata

| Field        | Value    |
|--------------|----------|
| Entrypoint   | 0x0203   |
| Data Size    | 53 bytes |
| Instructions | 11       |

```
      00 01 02 03 04 05 06 07  08 09 0A 0B 0C 0D 0E 0F
      -- -- -- -- -- -- -- --  -- -- -- -- -- -- -- --
0200:          79 00 F8 FF FF  7F 3D A0 0E 01 1C 44 80     y.....=....D.
0210: 32 07 80 1F 00 45 80 46  80 47 80 1F 01 1C 44 80  2....E.F.G....D.
0220: 32 0B 80 79 00 F8 FF FF  7F 27 A0 0E 01 1F 00 48  2..y.....'.....H
0230: 80 49 80 47 80 1F 01 00                           .I.G....        
```

#### Opcodes

```
  0: 0x0203 [0x79] EventEntity looks at Volker (ID: 17735741/0x010EA03D) (Basic look)
  1: 0x020D [0x1C] WAIT(60* ticks)
  2: 0x0210 [0x32] ExtData[1]->MainSpeed = 33* * 0.1
  3: 0x0213 [0x1F] MOVE_ENTITY: EventEntity moves to X=53.025*, Z=-34.000*, Y=-0.059*
  4: 0x021B [0x1F] MOVE_ENTITY: Update entity position (mode=1)
  5: 0x021D [0x1C] WAIT(60* ticks)
  6: 0x0220 [0x32] ExtData[1]->MainSpeed = 11* * 0.1
  7: 0x0223 [0x79] EventEntity looks at Werei (ID: 17735719/0x010EA027) (Basic look)
  8: 0x022D [0x1F] MOVE_ENTITY: EventEntity moves to X=51.135*, Z=-35.200*, Y=-0.059*
  9: 0x0235 [0x1F] MOVE_ENTITY: Update entity position (mode=1)
 10: 0x0237 [0x00] END_REQSTACK()
```

### Event 130

#### Metadata

| Field        | Value    |
|--------------|----------|
| Entrypoint   | 0x0238   |
| Data Size    | 39 bytes |
| Instructions | 11       |

```
      00 01 02 03 04 05 06 07  08 09 0A 0B 0C 0D 0E 0F
      -- -- -- -- -- -- -- --  -- -- -- -- -- -- -- --
0230:                          03 09 10 8B 7F 1E F0 FF          ........
0240: FF 7F 1D 4A 80 23 5B 01  80 04 A0 0E 01 04 A0 0E  ...J.#[.........
0250: 01 70 61 73 30 1D 4B 80  23 1D 4C 80 23 21 00     .pas0.K.#.L.#!. 
```

#### Opcodes

```
  0: 0x0238 [0x03] Work_Zone[9] = (LocalPlayer->Render.Flags01 >> 25) & 1
  1: 0x023D [0x1E] EventEntity looks at LocalPlayer and starts talking
  2: 0x0242 [0x1D] PRINT_EVENT_MESSAGE(message_id=10950*)
    → "Hey, [miss/mister], you met Zeid, didn't you? You know, the dark knight?"
  3: 0x0245 [0x23] WAIT_FOR_DIALOG_INTERACTION
  4: 0x0246 [0x5B] LOAD_EXT_SCHEDULER: Load scheduler "pas0" with entities [Gumbah (ID: 17735684/0x010EA004), Gumbah (ID: 17735684/0x010EA004)], work=155*
  5: 0x0255 [0x1D] PRINT_EVENT_MESSAGE(message_id=10951*)
    → "He wrote you a letter. I think he meant for Werei to give it to you, but since I got it, I had to open it to find out who it was for. Sorry."
  6: 0x0258 [0x23] WAIT_FOR_DIALOG_INTERACTION
  7: 0x0259 [0x1D] PRINT_EVENT_MESSAGE(message_id=10952*)
    → "I think he says he's waiting in a mine somewhere. Are you training to become a dark knight, too? Wow, it must be really hard."
  8: 0x025C [0x23] WAIT_FOR_DIALOG_INTERACTION
  9: 0x025D [0x21] END_EVENT
 10: 0x025E [0x00] END_REQSTACK()
```

### Event 175

#### Metadata

| Field        | Value     |
|--------------|-----------|
| Entrypoint   | 0x025F    |
| Data Size    | 236 bytes |
| Instructions | 31        |

```
      00 01 02 03 04 05 06 07  08 09 0A 0B 0C 0D 0E 0F
      -- -- -- -- -- -- -- --  -- -- -- -- -- -- -- --
0250:                                               42                 B
0260: 46 01 75 00 4D 80 75 01  45 4E 80 F8 FF FF 7F F8  F.u.M.u.EN......
0270: FF FF 7F 66 64 6F 30 05  80 55 4E 80 F8 FF FF 7F  ...fdo0..UN.....
0280: F8 FF FF 7F 66 64 6F 30  38 4F 80 29 0A F0 FF FF  ....fdo08O.)....
0290: 7F 27 45 50 80 F8 FF FF  7F F8 FF FF 7F 73 30 32  .'EP.........s02
02A0: 34 05 80 45 4E 80 F8 FF  FF 7F F8 FF FF 7F 66 64  4..EN.........fd
02B0: 69 30 05 80 1E F0 FF FF  7F 1D 51 80 23 7B 04 A0  i0........Q.#{..
02C0: 0E 01 1D 52 80 23 5B 01  80 04 A0 0E 01 04 A0 0E  ...R.#[.........
02D0: 01 74 6C 61 30 1D 53 80  23 52 50 80 F8 FF FF 7F  .tla0.S.#RP.....
02E0: F8 FF FF 7F 73 30 32 34  45 50 80 F8 FF FF 7F F8  ....s024EP......
02F0: FF FF 7F 73 30 32 35 05  80 79 00 04 A0 0E 01 F0  ...s025..y......
0300: FF FF 7F 5B 01 80 04 A0  0E 01 04 A0 0E 01 74 6C  ...[..........tl
0310: 61 31 1D 54 80 23 45 4E  80 F8 FF FF 7F F8 FF FF  a1.T.#EN........
0320: 7F 66 64 6F 31 05 80 55  4E 80 F8 FF FF 7F F8 FF  .fdo1..UN.......
0330: FF 7F 66 64 6F 31 46 00  45 4E 80 F8 FF FF 7F F8  ..fdo1F.EN......
0340: FF FF 7F 66 64 69 31 05  80 21 00                 ...fdi1..!.     
```

#### Opcodes

```
  0: 0x025F [0x42] SET_CLI_EVENT_CANCEL_DATA()
  1: 0x0260 [0x46] CAMERA_CONTROL: Disable user control
  2: 0x0262 [0x75] LOAD_ROOM(Load indoor room, room=267*)
  3: 0x0266 [0x75] LOAD_ROOM(No action)
  4: 0x0268 [0x45] LOAD_SCHEDULED_TASK: Load scheduler "fdo0" with entities [EventEntity, EventEntity], work=[200*, 0*]
  5: 0x0279 [0x55] WAIT_LOAD_SCHEDULER: Wait for scheduler "fdo0" with entities [EventEntity, EventEntity], work=200*
  6: 0x0288 [0x38] SET_CLIENT_EVENT_MODE(mode=3*)
  7: 0x028B [0x29] REQ_SET_WAIT(priority=0x0A, entity_id=LocalPlayer, tag_num=0x27)
  8: 0x0292 [0x45] LOAD_SCHEDULED_TASK: Load scheduler "s024" with entities [EventEntity, EventEntity], work=[203*, 0*]
  9: 0x02A3 [0x45] LOAD_SCHEDULED_TASK: Load scheduler "fdi0" with entities [EventEntity, EventEntity], work=[200*, 0*]
 10: 0x02B4 [0x1E] EventEntity looks at LocalPlayer and starts talking
 11: 0x02B9 [0x1D] PRINT_EVENT_MESSAGE(message_id=11505*)
    → "Werei...set out on his journey of rebirth."
 12: 0x02BC [0x23] WAIT_FOR_DIALOG_INTERACTION
 13: 0x02BD [0x7B] Gumbah (ID: 17735684/0x010EA004) stops talking
 14: 0x02C2 [0x1D] PRINT_EVENT_MESSAGE(message_id=11506*)
    → "I'm not upset. I knew it had to happen sooner or later."
 15: 0x02C5 [0x23] WAIT_FOR_DIALOG_INTERACTION
 16: 0x02C6 [0x5B] LOAD_EXT_SCHEDULER: Load scheduler "tla0" with entities [Gumbah (ID: 17735684/0x010EA004), Gumbah (ID: 17735684/0x010EA004)], work=155*
 17: 0x02D5 [0x1D] PRINT_EVENT_MESSAGE(message_id=11507*)
    → "He wasn't feeling that good, but he would always hide it whenever someone would visit."
 18: 0x02D8 [0x23] WAIT_FOR_DIALOG_INTERACTION
 19: 0x02D9 [0x52] END_LOAD_SCHEDULER: End scheduler "s024" with entities [EventEntity, EventEntity], work=203*
 20: 0x02E8 [0x45] LOAD_SCHEDULED_TASK: Load scheduler "s025" with entities [EventEntity, EventEntity], work=[203*, 0*]
 21: 0x02F9 [0x79] Gumbah (ID: 17735684/0x010EA004) looks at LocalPlayer (Basic look)
 22: 0x0303 [0x5B] LOAD_EXT_SCHEDULER: Load scheduler "tla1" with entities [Gumbah (ID: 17735684/0x010EA004), Gumbah (ID: 17735684/0x010EA004)], work=155*
 23: 0x0312 [0x1D] PRINT_EVENT_MESSAGE(message_id=11508*)
    → "I guess he was just worried about the people he would leave behind. He was always like that."
 24: 0x0315 [0x23] WAIT_FOR_DIALOG_INTERACTION
 25: 0x0316 [0x45] LOAD_SCHEDULED_TASK: Load scheduler "fdo1" with entities [EventEntity, EventEntity], work=[200*, 0*]
 26: 0x0327 [0x55] WAIT_LOAD_SCHEDULER: Wait for scheduler "fdo1" with entities [EventEntity, EventEntity], work=200*
 27: 0x0336 [0x46] CAMERA_CONTROL: Restore default settings
 28: 0x0338 [0x45] LOAD_SCHEDULED_TASK: Load scheduler "fdi1" with entities [EventEntity, EventEntity], work=[200*, 0*]
 29: 0x0349 [0x21] END_EVENT
 30: 0x034A [0x00] END_REQSTACK()
```

### Event 176

#### Metadata

| Field        | Value   |
|--------------|---------|
| Entrypoint   | 0x034B  |
| Data Size    | 3 bytes |
| Instructions | 2       |

```
      00 01 02 03 04 05 06 07  08 09 0A 0B 0C 0D 0E 0F
      -- -- -- -- -- -- -- --  -- -- -- -- -- -- -- --
0340:                                   22 01 00                   "..  
```

#### Opcodes

```
  0: 0x034B [0x22] ENTITY_HIDE_FLAG(enabled=0x01)
  1: 0x034D [0x00] END_REQSTACK()
```

### Event 65535.16

#### Metadata

| Field        | Value    |
|--------------|----------|
| Entrypoint   | 0x034E   |
| Data Size    | 25 bytes |
| Instructions | 6        |

```
      00 01 02 03 04 05 06 07  08 09 0A 0B 0C 0D 0E 0F
      -- -- -- -- -- -- -- --  -- -- -- -- -- -- -- --
0340:                                            22 00                ".
0350: 32 0B 80 37 55 80 56 80  57 80 58 80 1F 00 59 80  2..7U.V.W.X...Y.
0360: 5A 80 05 80 1F 01 00                              Z......         
```

#### Opcodes

```
  0: 0x034E [0x22] ENTITY_HIDE_FLAG(enabled=0x00)
  1: 0x0350 [0x32] ExtData[1]->MainSpeed = 11* * 0.1
  2: 0x0353 [0x37] UPDATE_EVENT_POSITION_AND_DIR: x=-153.015*, z=-28.071*, y=0.110*, direction=154.3°*
  3: 0x035C [0x1F] MOVE_ENTITY: EventEntity moves to X=-156.577*, Z=-30.392*, Y=0.000*
  4: 0x0364 [0x1F] MOVE_ENTITY: Update entity position (mode=1)
  5: 0x0366 [0x00] END_REQSTACK()
```

### Event 65535.17

#### Metadata

| Field        | Value    |
|--------------|----------|
| Entrypoint   | 0x0367   |
| Data Size    | 33 bytes |
| Instructions | 7        |

```
      00 01 02 03 04 05 06 07  08 09 0A 0B 0C 0D 0E 0F
      -- -- -- -- -- -- -- --  -- -- -- -- -- -- -- --
0360:                      32  0B 80 37 5B 80 5C 80 05         2..7[.\..
0370: 80 5D 80 1F 00 5E 80 5F  80 05 80 1F 01 1F 00 60  .]...^._.......`
0380: 80 61 80 05 80 1F 01 00                           .a......        
```

#### Opcodes

```
  0: 0x0367 [0x32] ExtData[1]->MainSpeed = 11* * 0.1
  1: 0x036A [0x37] UPDATE_EVENT_POSITION_AND_DIR: x=-153.158*, z=-34.416*, y=0.000*, direction=116.6°*
  2: 0x0373 [0x1F] MOVE_ENTITY: EventEntity moves to X=-156.099*, Z=-38.120*, Y=0.000*
  3: 0x037B [0x1F] MOVE_ENTITY: Update entity position (mode=1)
  4: 0x037D [0x1F] MOVE_ENTITY: EventEntity moves to X=-159.799*, Z=-37.854*, Y=0.000*
  5: 0x0385 [0x1F] MOVE_ENTITY: Update entity position (mode=1)
  6: 0x0387 [0x00] END_REQSTACK()
```

### Event 65535.18

#### Metadata

| Field        | Value    |
|--------------|----------|
| Entrypoint   | 0x0388   |
| Data Size    | 15 bytes |
| Instructions | 5        |

```
      00 01 02 03 04 05 06 07  08 09 0A 0B 0C 0D 0E 0F
      -- -- -- -- -- -- -- --  -- -- -- -- -- -- -- --
0380:                          32 0B 80 1F 00 62 80 63          2....b.c
0390: 80 64 80 1F 01 6F 00                              .d...o.         
```

#### Opcodes

```
  0: 0x0388 [0x32] ExtData[1]->MainSpeed = 11* * 0.1
  1: 0x038B [0x1F] MOVE_ENTITY: EventEntity moves to X=-159.847*, Z=-31.359*, Y=-1.659*
  2: 0x0393 [0x1F] MOVE_ENTITY: Update entity position (mode=1)
  3: 0x0395 [0x6F] WAIT_FRAME_DELAY: Yield until WaitTime reaches zero
  4: 0x0396 [0x00] END_REQSTACK()
```

### Event 65535.19

#### Metadata

| Field        | Value    |
|--------------|----------|
| Entrypoint   | 0x0397   |
| Data Size    | 24 bytes |
| Instructions | 6        |

```
      00 01 02 03 04 05 06 07  08 09 0A 0B 0C 0D 0E 0F
      -- -- -- -- -- -- -- --  -- -- -- -- -- -- -- --
0390:                      32  0B 80 37 65 80 66 80 67         2..7e.f.g
03A0: 80 68 80 1F 00 69 80 6A  80 6B 80 1F 01 6F 00     .h...i.j.k...o. 
```

#### Opcodes

```
  0: 0x0397 [0x32] ExtData[1]->MainSpeed = 11* * 0.1
  1: 0x039A [0x37] UPDATE_EVENT_POSITION_AND_DIR: x=-156.218*, z=-30.404*, y=-0.008*, direction=88.2°*
  2: 0x03A3 [0x1F] MOVE_ENTITY: EventEntity moves to X=-153.842*, Z=-28.472*, Y=0.059*
  3: 0x03AB [0x1F] MOVE_ENTITY: Update entity position (mode=1)
  4: 0x03AD [0x6F] WAIT_FRAME_DELAY: Yield until WaitTime reaches zero
  5: 0x03AE [0x00] END_REQSTACK()
```

### Event 65535.20

#### Metadata

| Field        | Value    |
|--------------|----------|
| Entrypoint   | 0x03AF   |
| Data Size    | 14 bytes |
| Instructions | 4        |

```
      00 01 02 03 04 05 06 07  08 09 0A 0B 0C 0D 0E 0F
      -- -- -- -- -- -- -- --  -- -- -- -- -- -- -- --
03A0:                                               32                 2
03B0: 07 80 1F 00 6C 80 6D 80  6E 80 1F 01 00           ....l.m.n....   
```

#### Opcodes

```
  0: 0x03AF [0x32] ExtData[1]->MainSpeed = 33* * 0.1
  1: 0x03B2 [0x1F] MOVE_ENTITY: EventEntity moves to X=-151.985*, Z=-27.323*, Y=0.085*
  2: 0x03BA [0x1F] MOVE_ENTITY: Update entity position (mode=1)
  3: 0x03BC [0x00] END_REQSTACK()
```

### Event 177

#### Metadata

| Field        | Value   |
|--------------|---------|
| Entrypoint   | 0x03BD  |
| Data Size    | 1 bytes |
| Instructions | 1       |

```
      00 01 02 03 04 05 06 07  08 09 0A 0B 0C 0D 0E 0F
      -- -- -- -- -- -- -- --  -- -- -- -- -- -- -- --
03B0:                                         00                     .  
```

#### Opcodes

```
  0: 0x03BD [0x00] END_REQSTACK()
```

### Event 65535.21

#### Metadata

| Field        | Value    |
|--------------|----------|
| Entrypoint   | 0x03BE   |
| Data Size    | 10 bytes |
| Instructions | 2        |

```
      00 01 02 03 04 05 06 07  08 09 0A 0B 0C 0D 0E 0F
      -- -- -- -- -- -- -- --  -- -- -- -- -- -- -- --
03B0:                                            37 6F                7o
03C0: 80 70 80 42 80 71 80 00                           .p.B.q..        
```

#### Opcodes

```
  0: 0x03BE [0x37] UPDATE_EVENT_POSITION_AND_DIR: x=53.658*, z=-35.826*, y=-0.051*, direction=192.0°*
  1: 0x03C7 [0x00] END_REQSTACK()
```

### Event 182

#### Metadata

| Field        | Value   |
|--------------|---------|
| Entrypoint   | 0x03C8  |
| Data Size    | 1 bytes |
| Instructions | 1       |

```
      00 01 02 03 04 05 06 07  08 09 0A 0B 0C 0D 0E 0F
      -- -- -- -- -- -- -- --  -- -- -- -- -- -- -- --
03C0:                          00                               .       
```

#### Opcodes

```
  0: 0x03C8 [0x00] END_REQSTACK()
```

### Event 65535.22

#### Metadata

| Field        | Value    |
|--------------|----------|
| Entrypoint   | 0x03C9   |
| Data Size    | 24 bytes |
| Instructions | 6        |

```
      00 01 02 03 04 05 06 07  08 09 0A 0B 0C 0D 0E 0F
      -- -- -- -- -- -- -- --  -- -- -- -- -- -- -- --
03C0:                             32 0B 80 37 72 80 73           2..7r.s
03D0: 80 2A 80 74 80 1F 00 75  80 76 80 2A 80 1F 01 6F  .*.t...u.v.*...o
03E0: 00                                                .               
```

#### Opcodes

```
  0: 0x03C9 [0x32] ExtData[1]->MainSpeed = 11* * 0.1
  1: 0x03CC [0x37] UPDATE_EVENT_POSITION_AND_DIR: x=74.514*, z=-7.533*, y=6.999*, direction=92.5°*
  2: 0x03D5 [0x1F] MOVE_ENTITY: EventEntity moves to X=73.664*, Z=-8.884*, Y=6.999*
  3: 0x03DD [0x1F] MOVE_ENTITY: Update entity position (mode=1)
  4: 0x03DF [0x6F] WAIT_FRAME_DELAY: Yield until WaitTime reaches zero
  5: 0x03E0 [0x00] END_REQSTACK()
```

### Event 65535.23

#### Metadata

| Field        | Value    |
|--------------|----------|
| Entrypoint   | 0x03E1   |
| Data Size    | 14 bytes |
| Instructions | 4        |

```
      00 01 02 03 04 05 06 07  08 09 0A 0B 0C 0D 0E 0F
      -- -- -- -- -- -- -- --  -- -- -- -- -- -- -- --
03E0:    32 0B 80 1F 00 77 80  78 80 2A 80 1F 01 00      2....w.x.*.... 
```

#### Opcodes

```
  0: 0x03E1 [0x32] ExtData[1]->MainSpeed = 11* * 0.1
  1: 0x03E4 [0x1F] MOVE_ENTITY: EventEntity moves to X=78.518*, Z=-4.807*, Y=6.999*
  2: 0x03EC [0x1F] MOVE_ENTITY: Update entity position (mode=1)
  3: 0x03EE [0x00] END_REQSTACK()
```

### Event 183

#### Metadata

| Field        | Value     |
|--------------|-----------|
| Entrypoint   | 0x03EF    |
| Data Size    | 184 bytes |
| Instructions | 24        |

```
      00 01 02 03 04 05 06 07  08 09 0A 0B 0C 0D 0E 0F
      -- -- -- -- -- -- -- --  -- -- -- -- -- -- -- --
03E0:                                               42                 B
03F0: 46 01 45 4E 80 F8 FF FF  7F F8 FF FF 7F 66 64 6F  F.EN.........fdo
0400: 30 05 80 55 4E 80 F8 FF  FF 7F F8 FF FF 7F 66 64  0..UN.........fd
0410: 6F 30 38 4F 80 29 0A F0  FF FF 7F 27 45 50 80 F8  o08O.).....'EP..
0420: FF FF 7F F8 FF FF 7F 73  30 32 34 05 80 45 4E 80  .......s024..EN.
0430: F8 FF FF 7F F8 FF FF 7F  66 64 69 30 05 80 1E F0  ........fdi0....
0440: FF FF 7F 1D 79 80 23 7B  F8 FF FF 7F 1D 7A 80 23  ....y.#{.....z.#
0450: 5B 01 80 04 A0 0E 01 04  A0 0E 01 73 69 67 30 1D  [..........sig0.
0460: 7B 80 23 45 4E 80 F8 FF  FF 7F F8 FF FF 7F 66 64  {.#EN.........fd
0470: 6F 31 05 80 55 4E 80 F8  FF FF 7F F8 FF FF 7F 66  o1..UN.........f
0480: 64 6F 31 52 50 80 F8 FF  FF 7F F8 FF FF 7F 73 30  do1RP.........s0
0490: 32 34 46 00 45 4E 80 F8  FF FF 7F F8 FF FF 7F 66  24F.EN.........f
04A0: 64 69 31 05 80 21 00                              di1..!.         
```

#### Opcodes

```
  0: 0x03EF [0x42] SET_CLI_EVENT_CANCEL_DATA()
  1: 0x03F0 [0x46] CAMERA_CONTROL: Disable user control
  2: 0x03F2 [0x45] LOAD_SCHEDULED_TASK: Load scheduler "fdo0" with entities [EventEntity, EventEntity], work=[200*, 0*]
  3: 0x0403 [0x55] WAIT_LOAD_SCHEDULER: Wait for scheduler "fdo0" with entities [EventEntity, EventEntity], work=200*
  4: 0x0412 [0x38] SET_CLIENT_EVENT_MODE(mode=3*)
  5: 0x0415 [0x29] REQ_SET_WAIT(priority=0x0A, entity_id=LocalPlayer, tag_num=0x27)
  6: 0x041C [0x45] LOAD_SCHEDULED_TASK: Load scheduler "s024" with entities [EventEntity, EventEntity], work=[203*, 0*]
  7: 0x042D [0x45] LOAD_SCHEDULED_TASK: Load scheduler "fdi0" with entities [EventEntity, EventEntity], work=[200*, 0*]
  8: 0x043E [0x1E] EventEntity looks at LocalPlayer and starts talking
  9: 0x0443 [0x1D] PRINT_EVENT_MESSAGE(message_id=11643*)
    → "Everybody still looks a little confused. They don't even know how to talk to me."
 10: 0x0446 [0x23] WAIT_FOR_DIALOG_INTERACTION
 11: 0x0447 [0x7B] EventEntity stops talking
 12: 0x044C [0x1D] PRINT_EVENT_MESSAGE(message_id=11644*)
    → "Well, I don't blame them. The Talekeeper is supposed to be a great, sacred presence. I was probably the last person they'd expect to be the Talekeeper."
 13: 0x044F [0x23] WAIT_FOR_DIALOG_INTERACTION
 14: 0x0450 [0x5B] LOAD_EXT_SCHEDULER: Load scheduler "sig0" with entities [Gumbah (ID: 17735684/0x010EA004), Gumbah (ID: 17735684/0x010EA004)], work=155*
 15: 0x045F [0x1D] PRINT_EVENT_MESSAGE(message_id=11645*)
    → "But that's okay. They can think of me the way they always have--as an annoying little kid."
 16: 0x0462 [0x23] WAIT_FOR_DIALOG_INTERACTION
 17: 0x0463 [0x45] LOAD_SCHEDULED_TASK: Load scheduler "fdo1" with entities [EventEntity, EventEntity], work=[200*, 0*]
 18: 0x0474 [0x55] WAIT_LOAD_SCHEDULER: Wait for scheduler "fdo1" with entities [EventEntity, EventEntity], work=200*
 19: 0x0483 [0x52] END_LOAD_SCHEDULER: End scheduler "s024" with entities [EventEntity, EventEntity], work=203*
 20: 0x0492 [0x46] CAMERA_CONTROL: Restore default settings
 21: 0x0494 [0x45] LOAD_SCHEDULED_TASK: Load scheduler "fdi1" with entities [EventEntity, EventEntity], work=[200*, 0*]
 22: 0x04A5 [0x21] END_EVENT
 23: 0x04A6 [0x00] END_REQSTACK()
```

### Event 190

#### Metadata

| Field        | Value   |
|--------------|---------|
| Entrypoint   | 0x04A7  |
| Data Size    | 1 bytes |
| Instructions | 1       |

```
      00 01 02 03 04 05 06 07  08 09 0A 0B 0C 0D 0E 0F
      -- -- -- -- -- -- -- --  -- -- -- -- -- -- -- --
04A0:                      00                                  .        
```

#### Opcodes

```
  0: 0x04A7 [0x00] END_REQSTACK()
```

### Event 191

#### Metadata

| Field        | Value     |
|--------------|-----------|
| Entrypoint   | 0x04A8    |
| Data Size    | 131 bytes |
| Instructions | 33        |

```
      00 01 02 03 04 05 06 07  08 09 0A 0B 0C 0D 0E 0F
      -- -- -- -- -- -- -- --  -- -- -- -- -- -- -- --
04A0:                          1E F0 FF FF 7F 1D 7C 80          ......|.
04B0: 23 02 02 10 05 80 00 C1  04 03 00 00 05 80 01 C6  #...............
04C0: 04 03 00 00 7D 80 24 7E  80 05 80 00 00 25 02 00  ....}.$~.....%..
04D0: 10 05 80 00 DC 04 06 01  10 01 29 05 02 00 10 7F  ..........).....
04E0: 80 00 F0 04 1D 80 80 23  03 01 10 7F 80 01 29 05  .......#......).
04F0: 02 00 10 7D 80 00 29 05  1D 81 80 23 24 82 80 7F  ...}..)....#$...
0500: 80 05 80 25 02 00 10 05  80 00 18 05 1D 83 80 23  ...%...........#
0510: 03 01 10 7D 80 01 26 05  02 00 10 7F 80 00 26 05  ...}..&.......&.
0520: 06 01 10 01 26 05 01 29  05 21 00                 ....&..).!.     
```

#### Opcodes

```
  0: 0x04A8 [0x1E] EventEntity looks at LocalPlayer and starts talking
  1: 0x04AD [0x1D] PRINT_EVENT_MESSAGE(message_id=11733*)
    → "What's wrong? You didn't go and lose the sword now, did you?"
  2: 0x04B0 [0x23] WAIT_FOR_DIALOG_INTERACTION
  3: 0x04B1 [0x02] IF !(Work_Zone[2] == 0*) GOTO 0x04C1
  4: 0x04B9 [0x03] ExtData[1]->WorkLocal[0] = 0*
  5: 0x04BE [0x01] GOTO 0x04C6
  6: 0x04C1 [0x03] ExtData[1]->WorkLocal[0] = 2*

SUBROUTINE_04C6:
  7: 0x04C6 [0x24] CREATE_DIALOG(message_id=11734*, default_option=0*, option_flags=ExtData[1]->WorkLocal[0])
    → "Why are you here? [No particular reason./I went and lost the sword.../I'm tired of this.]"
  8: 0x04CD [0x25] WAIT_DIALOG_SELECT()
  9: 0x04CE [0x02] IF !(Work_Zone[0] == 0*) GOTO 0x04DC
 10: 0x04D6 [0x06] Work_Zone[1] = 0
 11: 0x04D9 [0x01] GOTO 0x0529
 12: 0x04DC [0x02] IF !(Work_Zone[0] == 1*) GOTO 0x04F0
 13: 0x04E4 [0x1D] PRINT_EVENT_MESSAGE(message_id=11735*)
    → "You know, I knew you were going to say that. The sword you "lost" was delivered to my room earlier today. Here, take it."
 14: 0x04E7 [0x23] WAIT_FOR_DIALOG_INTERACTION
 15: 0x04E8 [0x03] Work_Zone[1] = 1*
 16: 0x04ED [0x01] GOTO 0x0529
 17: 0x04F0 [0x02] IF !(Work_Zone[0] == 2*) GOTO 0x0529
 18: 0x04F8 [0x1D] PRINT_EVENT_MESSAGE(message_id=11736*)
    → "What? You're not serious, are you?"
 19: 0x04FB [0x23] WAIT_FOR_DIALOG_INTERACTION
 20: 0x04FC [0x24] CREATE_DIALOG(message_id=11737*, default_option=1*, option_flags=0*)
    → "Are you serious? [Dead serious./I was just bluffing.]"
 21: 0x0503 [0x25] WAIT_DIALOG_SELECT()
 22: 0x0504 [0x02] IF !(Work_Zone[0] == 0*) GOTO 0x0518
 23: 0x050C [0x1D] PRINT_EVENT_MESSAGE(message_id=11738*)
    → "Oh well, you can keep the sword. Werei left a chest full of these things, and I'm running out of room to store them..."
 24: 0x050F [0x23] WAIT_FOR_DIALOG_INTERACTION
 25: 0x0510 [0x03] Work_Zone[1] = 2*
 26: 0x0515 [0x01] GOTO 0x0526
 27: 0x0518 [0x02] IF !(Work_Zone[0] == 1*) GOTO 0x0526
 28: 0x0520 [0x06] Work_Zone[1] = 0
 29: 0x0523 [0x01] GOTO 0x0526

SUBROUTINE_0526:
 30: 0x0526 [0x01] GOTO 0x0529

SUBROUTINE_0529:
 31: 0x0529 [0x21] END_EVENT
 32: 0x052A [0x00] END_REQSTACK()
```

### Event 192

#### Metadata

| Field        | Value    |
|--------------|----------|
| Entrypoint   | 0x052B   |
| Data Size    | 11 bytes |
| Instructions | 5        |

```
      00 01 02 03 04 05 06 07  08 09 0A 0B 0C 0D 0E 0F
      -- -- -- -- -- -- -- --  -- -- -- -- -- -- -- --
0520:                                   1E F0 FF FF 7F             .....
0530: 1D 84 80 23 21 00                                 ...#!.          
```

#### Opcodes

```
  0: 0x052B [0x1E] EventEntity looks at LocalPlayer and starts talking
  1: 0x0530 [0x1D] PRINT_EVENT_MESSAGE(message_id=11739*)
    → "Hm? It doesn't look like anything special has happened yet... Maybe you should use it a little bit longer."
  2: 0x0533 [0x23] WAIT_FOR_DIALOG_INTERACTION
  3: 0x0534 [0x21] END_EVENT
  4: 0x0535 [0x00] END_REQSTACK()
```

### Event 193

#### Metadata

| Field        | Value   |
|--------------|---------|
| Entrypoint   | 0x0536  |
| Data Size    | 1 bytes |
| Instructions | 1       |

```
      00 01 02 03 04 05 06 07  08 09 0A 0B 0C 0D 0E 0F
      -- -- -- -- -- -- -- --  -- -- -- -- -- -- -- --
0530:                   00                                    .         
```

#### Opcodes

```
  0: 0x0536 [0x00] END_REQSTACK()
```

### Event 194

#### Metadata

| Field        | Value   |
|--------------|---------|
| Entrypoint   | 0x0537  |
| Data Size    | 1 bytes |
| Instructions | 1       |

```
      00 01 02 03 04 05 06 07  08 09 0A 0B 0C 0D 0E 0F
      -- -- -- -- -- -- -- --  -- -- -- -- -- -- -- --
0530:                      00                                  .        
```

#### Opcodes

```
  0: 0x0537 [0x00] END_REQSTACK()
```

### Event 661

#### Metadata

| Field        | Value   |
|--------------|---------|
| Entrypoint   | 0x0538  |
| Data Size    | 7 bytes |
| Instructions | 2       |

```
      00 01 02 03 04 05 06 07  08 09 0A 0B 0C 0D 0E 0F
      -- -- -- -- -- -- -- --  -- -- -- -- -- -- -- --
0530:                          92 01 F8 FF FF 7F 00             ....... 
```

#### Opcodes

```
  0: 0x0538 [0x92] EventEntity->Render.Flags3 ^= 0x01
  1: 0x053E [0x00] END_REQSTACK()
```

### Event 662

#### Metadata

| Field        | Value   |
|--------------|---------|
| Entrypoint   | 0x053F  |
| Data Size    | 1 bytes |
| Instructions | 1       |

```
      00 01 02 03 04 05 06 07  08 09 0A 0B 0C 0D 0E 0F
      -- -- -- -- -- -- -- --  -- -- -- -- -- -- -- --
0530:                                               00                 .
```

#### Opcodes

```
  0: 0x053F [0x00] END_REQSTACK()
```

### Event 663

#### Metadata

| Field        | Value   |
|--------------|---------|
| Entrypoint   | 0x0540  |
| Data Size    | 7 bytes |
| Instructions | 2       |

```
      00 01 02 03 04 05 06 07  08 09 0A 0B 0C 0D 0E 0F
      -- -- -- -- -- -- -- --  -- -- -- -- -- -- -- --
0540: 92 01 F8 FF FF 7F 00                              .......         
```

#### Opcodes

```
  0: 0x0540 [0x92] EventEntity->Render.Flags3 ^= 0x01
  1: 0x0546 [0x00] END_REQSTACK()
```

### Event 664

#### Metadata

| Field        | Value   |
|--------------|---------|
| Entrypoint   | 0x0547  |
| Data Size    | 1 bytes |
| Instructions | 1       |

```
      00 01 02 03 04 05 06 07  08 09 0A 0B 0C 0D 0E 0F
      -- -- -- -- -- -- -- --  -- -- -- -- -- -- -- --
0540:                      00                                  .        
```

#### Opcodes

```
  0: 0x0547 [0x00] END_REQSTACK()
```

### Event 65535.24

#### Metadata

| Field        | Value    |
|--------------|----------|
| Entrypoint   | 0x0548   |
| Data Size    | 15 bytes |
| Instructions | 5        |

```
      00 01 02 03 04 05 06 07  08 09 0A 0B 0C 0D 0E 0F
      -- -- -- -- -- -- -- --  -- -- -- -- -- -- -- --
0540:                          32 85 80 1F 00 86 80 87          2.......
0550: 80 42 80 1F 01 6F 00                              .B...o.         
```

#### Opcodes

```
  0: 0x0548 [0x32] ExtData[1]->MainSpeed = 40* * 0.1
  1: 0x054B [0x1F] MOVE_ENTITY: EventEntity moves to X=53.523*, Z=-35.953*, Y=-0.051*
  2: 0x0553 [0x1F] MOVE_ENTITY: Update entity position (mode=1)
  3: 0x0555 [0x6F] WAIT_FRAME_DELAY: Yield until WaitTime reaches zero
  4: 0x0556 [0x00] END_REQSTACK()
```

### Event 665

#### Metadata

| Field        | Value   |
|--------------|---------|
| Entrypoint   | 0x0557  |
| Data Size    | 7 bytes |
| Instructions | 2       |

```
      00 01 02 03 04 05 06 07  08 09 0A 0B 0C 0D 0E 0F
      -- -- -- -- -- -- -- --  -- -- -- -- -- -- -- --
0550:                      92  01 F8 FF FF 7F 00               .......  
```

#### Opcodes

```
  0: 0x0557 [0x92] EventEntity->Render.Flags3 ^= 0x01
  1: 0x055D [0x00] END_REQSTACK()
```

### Event 666

#### Metadata

| Field        | Value   |
|--------------|---------|
| Entrypoint   | 0x055E  |
| Data Size    | 1 bytes |
| Instructions | 1       |

```
      00 01 02 03 04 05 06 07  08 09 0A 0B 0C 0D 0E 0F
      -- -- -- -- -- -- -- --  -- -- -- -- -- -- -- --
0550:                                            00                   . 
```

#### Opcodes

```
  0: 0x055E [0x00] END_REQSTACK()
```

### Event 667

#### Metadata

| Field        | Value   |
|--------------|---------|
| Entrypoint   | 0x055F  |
| Data Size    | 7 bytes |
| Instructions | 2       |

```
      00 01 02 03 04 05 06 07  08 09 0A 0B 0C 0D 0E 0F
      -- -- -- -- -- -- -- --  -- -- -- -- -- -- -- --
0550:                                               92                 .
0560: 01 F8 FF FF 7F 00                                 ......          
```

#### Opcodes

```
  0: 0x055F [0x92] EventEntity->Render.Flags3 ^= 0x01
  1: 0x0565 [0x00] END_REQSTACK()
```

### Event 65535.25

#### Metadata

| Field        | Value    |
|--------------|----------|
| Entrypoint   | 0x0566   |
| Data Size    | 14 bytes |
| Instructions | 4        |

```
      00 01 02 03 04 05 06 07  08 09 0A 0B 0C 0D 0E 0F
      -- -- -- -- -- -- -- --  -- -- -- -- -- -- -- --
0560:                   32 88  80 1F 00 89 80 8A 80 42        2........B
0570: 80 1F 01 00                                       ....            
```

#### Opcodes

```
  0: 0x0566 [0x32] ExtData[1]->MainSpeed = 13* * 0.1
  1: 0x0569 [0x1F] MOVE_ENTITY: EventEntity moves to X=53.450*, Z=-34.421*, Y=-0.051*
  2: 0x0571 [0x1F] MOVE_ENTITY: Update entity position (mode=1)
  3: 0x0573 [0x00] END_REQSTACK()
```

### Event 65535.26

#### Metadata

| Field        | Value    |
|--------------|----------|
| Entrypoint   | 0x0574   |
| Data Size    | 14 bytes |
| Instructions | 4        |

```
      00 01 02 03 04 05 06 07  08 09 0A 0B 0C 0D 0E 0F
      -- -- -- -- -- -- -- --  -- -- -- -- -- -- -- --
0570:             32 88 80 1F  00 8B 80 8C 80 42 80 1F      2........B..
0580: 01 00                                             ..              
```

#### Opcodes

```
  0: 0x0574 [0x32] ExtData[1]->MainSpeed = 13* * 0.1
  1: 0x0577 [0x1F] MOVE_ENTITY: EventEntity moves to X=53.314*, Z=-33.299*, Y=-0.051*
  2: 0x057F [0x1F] MOVE_ENTITY: Update entity position (mode=1)
  3: 0x0581 [0x00] END_REQSTACK()
```

### Event 65535.27

#### Metadata

| Field        | Value    |
|--------------|----------|
| Entrypoint   | 0x0582   |
| Data Size    | 15 bytes |
| Instructions | 5        |

```
      00 01 02 03 04 05 06 07  08 09 0A 0B 0C 0D 0E 0F
      -- -- -- -- -- -- -- --  -- -- -- -- -- -- -- --
0580:       32 88 80 1F 00 8D  80 8E 80 47 80 1F 01 6F    2........G...o
0590: 00                                                .               
```

#### Opcodes

```
  0: 0x0582 [0x32] ExtData[1]->MainSpeed = 13* * 0.1
  1: 0x0585 [0x1F] MOVE_ENTITY: EventEntity moves to X=52.226*, Z=-35.146*, Y=-0.059*
  2: 0x058D [0x1F] MOVE_ENTITY: Update entity position (mode=1)
  3: 0x058F [0x6F] WAIT_FRAME_DELAY: Yield until WaitTime reaches zero
  4: 0x0590 [0x00] END_REQSTACK()
```

### Event 671

#### Metadata

| Field        | Value   |
|--------------|---------|
| Entrypoint   | 0x0591  |
| Data Size    | 1 bytes |
| Instructions | 1       |

```
      00 01 02 03 04 05 06 07  08 09 0A 0B 0C 0D 0E 0F
      -- -- -- -- -- -- -- --  -- -- -- -- -- -- -- --
0590:    00                                              .              
```

#### Opcodes

```
  0: 0x0591 [0x00] END_REQSTACK()
```

### Event 672

#### Metadata

| Field        | Value   |
|--------------|---------|
| Entrypoint   | 0x0592  |
| Data Size    | 1 bytes |
| Instructions | 1       |

```
      00 01 02 03 04 05 06 07  08 09 0A 0B 0C 0D 0E 0F
      -- -- -- -- -- -- -- --  -- -- -- -- -- -- -- --
0590:       00                                            .             
```

#### Opcodes

```
  0: 0x0592 [0x00] END_REQSTACK()
```

### Event 678

#### Metadata

| Field        | Value   |
|--------------|---------|
| Entrypoint   | 0x0593  |
| Data Size    | 1 bytes |
| Instructions | 1       |

```
      00 01 02 03 04 05 06 07  08 09 0A 0B 0C 0D 0E 0F
      -- -- -- -- -- -- -- --  -- -- -- -- -- -- -- --
0590:          00                                          .            
```

#### Opcodes

```
  0: 0x0593 [0x00] END_REQSTACK()
```

### Event 65535.28

#### Metadata

| Field        | Value    |
|--------------|----------|
| Entrypoint   | 0x0594   |
| Data Size    | 16 bytes |
| Instructions | 2        |

```
      00 01 02 03 04 05 06 07  08 09 0A 0B 0C 0D 0E 0F
      -- -- -- -- -- -- -- --  -- -- -- -- -- -- -- --
0590:             5B 01 80 F8  FF FF 7F F8 FF FF 7F 74      [..........t
05A0: 6C 61 30 00                                       la0.            
```

#### Opcodes

```
  0: 0x0594 [0x5B] LOAD_EXT_SCHEDULER: Load scheduler "tla0" with entities [EventEntity, EventEntity], work=155*
  1: 0x05A3 [0x00] END_REQSTACK()
```

### Event 65535.29

#### Metadata

| Field        | Value    |
|--------------|----------|
| Entrypoint   | 0x05A4   |
| Data Size    | 14 bytes |
| Instructions | 2        |

```
      00 01 02 03 04 05 06 07  08 09 0A 0B 0C 0D 0E 0F
      -- -- -- -- -- -- -- --  -- -- -- -- -- -- -- --
05A0:             53 F8 FF FF  7F F8 FF FF 7F 74 6C 61      S........tla
05B0: 30 00                                             0.              
```

#### Opcodes

```
  0: 0x05A4 [0x53] WAIT_SCHEDULER_TASK: Wait for scheduler "tla0" with entities [EventEntity, EventEntity]
  1: 0x05B1 [0x00] END_REQSTACK()
```

### Event 65535.30

#### Metadata

| Field        | Value    |
|--------------|----------|
| Entrypoint   | 0x05B2   |
| Data Size    | 16 bytes |
| Instructions | 2        |

```
      00 01 02 03 04 05 06 07  08 09 0A 0B 0C 0D 0E 0F
      -- -- -- -- -- -- -- --  -- -- -- -- -- -- -- --
05B0:       5B 01 80 F8 FF FF  7F F8 FF FF 7F 74 6C 61    [..........tla
05C0: 31 00                                             1.              
```

#### Opcodes

```
  0: 0x05B2 [0x5B] LOAD_EXT_SCHEDULER: Load scheduler "tla1" with entities [EventEntity, EventEntity], work=155*
  1: 0x05C1 [0x00] END_REQSTACK()
```

### Event 65535.31

#### Metadata

| Field        | Value    |
|--------------|----------|
| Entrypoint   | 0x05C2   |
| Data Size    | 14 bytes |
| Instructions | 2        |

```
      00 01 02 03 04 05 06 07  08 09 0A 0B 0C 0D 0E 0F
      -- -- -- -- -- -- -- --  -- -- -- -- -- -- -- --
05C0:       53 F8 FF FF 7F F8  FF FF 7F 74 6C 61 31 00    S........tla1.
```

#### Opcodes

```
  0: 0x05C2 [0x53] WAIT_SCHEDULER_TASK: Wait for scheduler "tla1" with entities [EventEntity, EventEntity]
  1: 0x05CF [0x00] END_REQSTACK()
```

### Event 65535.32

#### Metadata

| Field        | Value    |
|--------------|----------|
| Entrypoint   | 0x05D0   |
| Data Size    | 16 bytes |
| Instructions | 2        |

```
      00 01 02 03 04 05 06 07  08 09 0A 0B 0C 0D 0E 0F
      -- -- -- -- -- -- -- --  -- -- -- -- -- -- -- --
05D0: 5B 01 80 F8 FF FF 7F F8  FF FF 7F 74 6C 62 30 00  [..........tlb0.
```

#### Opcodes

```
  0: 0x05D0 [0x5B] LOAD_EXT_SCHEDULER: Load scheduler "tlb0" with entities [EventEntity, EventEntity], work=155*
  1: 0x05DF [0x00] END_REQSTACK()
```

### Event 65535.33

#### Metadata

| Field        | Value    |
|--------------|----------|
| Entrypoint   | 0x05E0   |
| Data Size    | 14 bytes |
| Instructions | 2        |

```
      00 01 02 03 04 05 06 07  08 09 0A 0B 0C 0D 0E 0F
      -- -- -- -- -- -- -- --  -- -- -- -- -- -- -- --
05E0: 53 F8 FF FF 7F F8 FF FF  7F 74 6C 62 30 00        S........tlb0.  
```

#### Opcodes

```
  0: 0x05E0 [0x53] WAIT_SCHEDULER_TASK: Wait for scheduler "tlb0" with entities [EventEntity, EventEntity]
  1: 0x05ED [0x00] END_REQSTACK()
```

### Event 65535.34

#### Metadata

| Field        | Value    |
|--------------|----------|
| Entrypoint   | 0x05EE   |
| Data Size    | 16 bytes |
| Instructions | 2        |

```
      00 01 02 03 04 05 06 07  08 09 0A 0B 0C 0D 0E 0F
      -- -- -- -- -- -- -- --  -- -- -- -- -- -- -- --
05E0:                                            5B 01                [.
05F0: 80 F8 FF FF 7F F8 FF FF  7F 74 6C 62 31 00        .........tlb1.  
```

#### Opcodes

```
  0: 0x05EE [0x5B] LOAD_EXT_SCHEDULER: Load scheduler "tlb1" with entities [EventEntity, EventEntity], work=155*
  1: 0x05FD [0x00] END_REQSTACK()
```

### Event 65535.35

#### Metadata

| Field        | Value    |
|--------------|----------|
| Entrypoint   | 0x05FE   |
| Data Size    | 14 bytes |
| Instructions | 2        |

```
      00 01 02 03 04 05 06 07  08 09 0A 0B 0C 0D 0E 0F
      -- -- -- -- -- -- -- --  -- -- -- -- -- -- -- --
05F0:                                            53 F8                S.
0600: FF FF 7F F8 FF FF 7F 74  6C 62 31 00              .......tlb1.    
```

#### Opcodes

```
  0: 0x05FE [0x53] WAIT_SCHEDULER_TASK: Wait for scheduler "tlb1" with entities [EventEntity, EventEntity]
  1: 0x060B [0x00] END_REQSTACK()
```

### Event 65535.36

#### Metadata

| Field        | Value    |
|--------------|----------|
| Entrypoint   | 0x060C   |
| Data Size    | 16 bytes |
| Instructions | 2        |

```
      00 01 02 03 04 05 06 07  08 09 0A 0B 0C 0D 0E 0F
      -- -- -- -- -- -- -- --  -- -- -- -- -- -- -- --
0600:                                      5B 01 80 F8              [...
0610: FF FF 7F F8 FF FF 7F 74  6C 63 30 00              .......tlc0.    
```

#### Opcodes

```
  0: 0x060C [0x5B] LOAD_EXT_SCHEDULER: Load scheduler "tlc0" with entities [EventEntity, EventEntity], work=155*
  1: 0x061B [0x00] END_REQSTACK()
```

### Event 65535.37

#### Metadata

| Field        | Value    |
|--------------|----------|
| Entrypoint   | 0x061C   |
| Data Size    | 14 bytes |
| Instructions | 2        |

```
      00 01 02 03 04 05 06 07  08 09 0A 0B 0C 0D 0E 0F
      -- -- -- -- -- -- -- --  -- -- -- -- -- -- -- --
0610:                                      53 F8 FF FF              S...
0620: 7F F8 FF FF 7F 74 6C 63  30 00                    .....tlc0.      
```

#### Opcodes

```
  0: 0x061C [0x53] WAIT_SCHEDULER_TASK: Wait for scheduler "tlc0" with entities [EventEntity, EventEntity]
  1: 0x0629 [0x00] END_REQSTACK()
```

### Event 65535.38

#### Metadata

| Field        | Value    |
|--------------|----------|
| Entrypoint   | 0x062A   |
| Data Size    | 16 bytes |
| Instructions | 2        |

```
      00 01 02 03 04 05 06 07  08 09 0A 0B 0C 0D 0E 0F
      -- -- -- -- -- -- -- --  -- -- -- -- -- -- -- --
0620:                                5B 01 80 F8 FF FF            [.....
0630: 7F F8 FF FF 7F 74 6C 63  31 00                    .....tlc1.      
```

#### Opcodes

```
  0: 0x062A [0x5B] LOAD_EXT_SCHEDULER: Load scheduler "tlc1" with entities [EventEntity, EventEntity], work=155*
  1: 0x0639 [0x00] END_REQSTACK()
```

### Event 65535.39

#### Metadata

| Field        | Value    |
|--------------|----------|
| Entrypoint   | 0x063A   |
| Data Size    | 14 bytes |
| Instructions | 2        |

```
      00 01 02 03 04 05 06 07  08 09 0A 0B 0C 0D 0E 0F
      -- -- -- -- -- -- -- --  -- -- -- -- -- -- -- --
0630:                                53 F8 FF FF 7F F8            S.....
0640: FF FF 7F 74 6C 63 31 00                           ...tlc1.        
```

#### Opcodes

```
  0: 0x063A [0x53] WAIT_SCHEDULER_TASK: Wait for scheduler "tlc1" with entities [EventEntity, EventEntity]
  1: 0x0647 [0x00] END_REQSTACK()
```

### Event 65535.40

#### Metadata

| Field        | Value    |
|--------------|----------|
| Entrypoint   | 0x0648   |
| Data Size    | 16 bytes |
| Instructions | 2        |

```
      00 01 02 03 04 05 06 07  08 09 0A 0B 0C 0D 0E 0F
      -- -- -- -- -- -- -- --  -- -- -- -- -- -- -- --
0640:                          5B 01 80 F8 FF FF 7F F8          [.......
0650: FF FF 7F 74 68 6B 31 00                           ...thk1.        
```

#### Opcodes

```
  0: 0x0648 [0x5B] LOAD_EXT_SCHEDULER: Load scheduler "thk1" with entities [EventEntity, EventEntity], work=155*
  1: 0x0657 [0x00] END_REQSTACK()
```

### Event 65535.41

#### Metadata

| Field        | Value    |
|--------------|----------|
| Entrypoint   | 0x0658   |
| Data Size    | 14 bytes |
| Instructions | 2        |

```
      00 01 02 03 04 05 06 07  08 09 0A 0B 0C 0D 0E 0F
      -- -- -- -- -- -- -- --  -- -- -- -- -- -- -- --
0650:                          53 F8 FF FF 7F F8 FF FF          S.......
0660: 7F 74 68 6B 31 00                                 .thk1.          
```

#### Opcodes

```
  0: 0x0658 [0x53] WAIT_SCHEDULER_TASK: Wait for scheduler "thk1" with entities [EventEntity, EventEntity]
  1: 0x0665 [0x00] END_REQSTACK()
```

### Event 65535.42

#### Metadata

| Field        | Value    |
|--------------|----------|
| Entrypoint   | 0x0666   |
| Data Size    | 16 bytes |
| Instructions | 2        |

```
      00 01 02 03 04 05 06 07  08 09 0A 0B 0C 0D 0E 0F
      -- -- -- -- -- -- -- --  -- -- -- -- -- -- -- --
0660:                   5B 01  80 F8 FF FF 7F F8 FF FF        [.........
0670: 7F 74 68 6B 32 00                                 .thk2.          
```

#### Opcodes

```
  0: 0x0666 [0x5B] LOAD_EXT_SCHEDULER: Load scheduler "thk2" with entities [EventEntity, EventEntity], work=155*
  1: 0x0675 [0x00] END_REQSTACK()
```

### Event 65535.43

#### Metadata

| Field        | Value    |
|--------------|----------|
| Entrypoint   | 0x0676   |
| Data Size    | 14 bytes |
| Instructions | 2        |

```
      00 01 02 03 04 05 06 07  08 09 0A 0B 0C 0D 0E 0F
      -- -- -- -- -- -- -- --  -- -- -- -- -- -- -- --
0670:                   53 F8  FF FF 7F F8 FF FF 7F 74        S........t
0680: 68 6B 32 00                                       hk2.            
```

#### Opcodes

```
  0: 0x0676 [0x53] WAIT_SCHEDULER_TASK: Wait for scheduler "thk2" with entities [EventEntity, EventEntity]
  1: 0x0683 [0x00] END_REQSTACK()
```

### Event 65535.44

#### Metadata

| Field        | Value    |
|--------------|----------|
| Entrypoint   | 0x0684   |
| Data Size    | 16 bytes |
| Instructions | 2        |

```
      00 01 02 03 04 05 06 07  08 09 0A 0B 0C 0D 0E 0F
      -- -- -- -- -- -- -- --  -- -- -- -- -- -- -- --
0680:             5B 01 80 F8  FF FF 7F F8 FF FF 7F 70      [..........p
0690: 61 73 30 00                                       as0.            
```

#### Opcodes

```
  0: 0x0684 [0x5B] LOAD_EXT_SCHEDULER: Load scheduler "pas0" with entities [EventEntity, EventEntity], work=155*
  1: 0x0693 [0x00] END_REQSTACK()
```

### Event 65535.45

#### Metadata

| Field        | Value    |
|--------------|----------|
| Entrypoint   | 0x0694   |
| Data Size    | 14 bytes |
| Instructions | 2        |

```
      00 01 02 03 04 05 06 07  08 09 0A 0B 0C 0D 0E 0F
      -- -- -- -- -- -- -- --  -- -- -- -- -- -- -- --
0690:             53 F8 FF FF  7F F8 FF FF 7F 70 61 73      S........pas
06A0: 30 00                                             0.              
```

#### Opcodes

```
  0: 0x0694 [0x53] WAIT_SCHEDULER_TASK: Wait for scheduler "pas0" with entities [EventEntity, EventEntity]
  1: 0x06A1 [0x00] END_REQSTACK()
```

### Event 65535.46

#### Metadata

| Field        | Value    |
|--------------|----------|
| Entrypoint   | 0x06A2   |
| Data Size    | 16 bytes |
| Instructions | 2        |

```
      00 01 02 03 04 05 06 07  08 09 0A 0B 0C 0D 0E 0F
      -- -- -- -- -- -- -- --  -- -- -- -- -- -- -- --
06A0:       5B 01 80 F8 FF FF  7F F8 FF FF 7F 73 69 67    [..........sig
06B0: 30 00                                             0.              
```

#### Opcodes

```
  0: 0x06A2 [0x5B] LOAD_EXT_SCHEDULER: Load scheduler "sig0" with entities [EventEntity, EventEntity], work=155*
  1: 0x06B1 [0x00] END_REQSTACK()
```

### Event 65535.47

#### Metadata

| Field        | Value    |
|--------------|----------|
| Entrypoint   | 0x06B2   |
| Data Size    | 14 bytes |
| Instructions | 2        |

```
      00 01 02 03 04 05 06 07  08 09 0A 0B 0C 0D 0E 0F
      -- -- -- -- -- -- -- --  -- -- -- -- -- -- -- --
06B0:       53 F8 FF FF 7F F8  FF FF 7F 73 69 67 30 00    S........sig0.
```

#### Opcodes

```
  0: 0x06B2 [0x53] WAIT_SCHEDULER_TASK: Wait for scheduler "sig0" with entities [EventEntity, EventEntity]
  1: 0x06BF [0x00] END_REQSTACK()
```

### Event 65535.48

#### Metadata

| Field        | Value    |
|--------------|----------|
| Entrypoint   | 0x06C0   |
| Data Size    | 16 bytes |
| Instructions | 2        |

```
      00 01 02 03 04 05 06 07  08 09 0A 0B 0C 0D 0E 0F
      -- -- -- -- -- -- -- --  -- -- -- -- -- -- -- --
06C0: 5B 01 80 F8 FF FF 7F F8  FF FF 7F 77 61 76 30 00  [..........wav0.
```

#### Opcodes

```
  0: 0x06C0 [0x5B] LOAD_EXT_SCHEDULER: Load scheduler "wav0" with entities [EventEntity, EventEntity], work=155*
  1: 0x06CF [0x00] END_REQSTACK()
```

### Event 65535.49

#### Metadata

| Field        | Value    |
|--------------|----------|
| Entrypoint   | 0x06D0   |
| Data Size    | 14 bytes |
| Instructions | 2        |

```
      00 01 02 03 04 05 06 07  08 09 0A 0B 0C 0D 0E 0F
      -- -- -- -- -- -- -- --  -- -- -- -- -- -- -- --
06D0: 53 F8 FF FF 7F F8 FF FF  7F 77 61 76 30 00        S........wav0.  
```

#### Opcodes

```
  0: 0x06D0 [0x53] WAIT_SCHEDULER_TASK: Wait for scheduler "wav0" with entities [EventEntity, EventEntity]
  1: 0x06DD [0x00] END_REQSTACK()
```

### Event 65535.50

#### Metadata

| Field        | Value    |
|--------------|----------|
| Entrypoint   | 0x06DE   |
| Data Size    | 16 bytes |
| Instructions | 2        |

```
      00 01 02 03 04 05 06 07  08 09 0A 0B 0C 0D 0E 0F
      -- -- -- -- -- -- -- --  -- -- -- -- -- -- -- --
06D0:                                            5B 8F                [.
06E0: 80 F8 FF FF 7F F8 FF FF  7F 75 74 61 30 00        .........uta0.  
```

#### Opcodes

```
  0: 0x06DE [0x5B] LOAD_EXT_SCHEDULER: Load scheduler "uta0" with entities [EventEntity, EventEntity], work=156*
  1: 0x06ED [0x00] END_REQSTACK()
```

### Event 65535.51

#### Metadata

| Field        | Value    |
|--------------|----------|
| Entrypoint   | 0x06EE   |
| Data Size    | 14 bytes |
| Instructions | 2        |

```
      00 01 02 03 04 05 06 07  08 09 0A 0B 0C 0D 0E 0F
      -- -- -- -- -- -- -- --  -- -- -- -- -- -- -- --
06E0:                                            53 F8                S.
06F0: FF FF 7F F8 FF FF 7F 75  74 61 30 00              .......uta0.    
```

#### Opcodes

```
  0: 0x06EE [0x53] WAIT_SCHEDULER_TASK: Wait for scheduler "uta0" with entities [EventEntity, EventEntity]
  1: 0x06FB [0x00] END_REQSTACK()
```

### Event 65535.52

#### Metadata

| Field        | Value    |
|--------------|----------|
| Entrypoint   | 0x06FC   |
| Data Size    | 16 bytes |
| Instructions | 2        |

```
      00 01 02 03 04 05 06 07  08 09 0A 0B 0C 0D 0E 0F
      -- -- -- -- -- -- -- --  -- -- -- -- -- -- -- --
06F0:                                      5B 8F 80 F8              [...
0700: FF FF 7F F8 FF FF 7F 75  74 61 31 00              .......uta1.    
```

#### Opcodes

```
  0: 0x06FC [0x5B] LOAD_EXT_SCHEDULER: Load scheduler "uta1" with entities [EventEntity, EventEntity], work=156*
  1: 0x070B [0x00] END_REQSTACK()
```

### Event 65535.53

#### Metadata

| Field        | Value    |
|--------------|----------|
| Entrypoint   | 0x070C   |
| Data Size    | 14 bytes |
| Instructions | 2        |

```
      00 01 02 03 04 05 06 07  08 09 0A 0B 0C 0D 0E 0F
      -- -- -- -- -- -- -- --  -- -- -- -- -- -- -- --
0700:                                      53 F8 FF FF              S...
0710: 7F F8 FF FF 7F 75 74 61  31 00                    .....uta1.      
```

#### Opcodes

```
  0: 0x070C [0x53] WAIT_SCHEDULER_TASK: Wait for scheduler "uta1" with entities [EventEntity, EventEntity]
  1: 0x0719 [0x00] END_REQSTACK()
```

### Event 65535.54

#### Metadata

| Field        | Value    |
|--------------|----------|
| Entrypoint   | 0x071A   |
| Data Size    | 16 bytes |
| Instructions | 2        |

```
      00 01 02 03 04 05 06 07  08 09 0A 0B 0C 0D 0E 0F
      -- -- -- -- -- -- -- --  -- -- -- -- -- -- -- --
0710:                                5B 8F 80 F8 FF FF            [.....
0720: 7F F8 FF FF 7F 65 6E 7A  30 00                    .....enz0.      
```

#### Opcodes

```
  0: 0x071A [0x5B] LOAD_EXT_SCHEDULER: Load scheduler "enz0" with entities [EventEntity, EventEntity], work=156*
  1: 0x0729 [0x00] END_REQSTACK()
```

### Event 65535.55

#### Metadata

| Field        | Value    |
|--------------|----------|
| Entrypoint   | 0x072A   |
| Data Size    | 14 bytes |
| Instructions | 2        |

```
      00 01 02 03 04 05 06 07  08 09 0A 0B 0C 0D 0E 0F
      -- -- -- -- -- -- -- --  -- -- -- -- -- -- -- --
0720:                                53 F8 FF FF 7F F8            S.....
0730: FF FF 7F 65 6E 7A 30 00                           ...enz0.        
```

#### Opcodes

```
  0: 0x072A [0x53] WAIT_SCHEDULER_TASK: Wait for scheduler "enz0" with entities [EventEntity, EventEntity]
  1: 0x0737 [0x00] END_REQSTACK()
```

### Event 65535.56

#### Metadata

| Field        | Value    |
|--------------|----------|
| Entrypoint   | 0x0738   |
| Data Size    | 16 bytes |
| Instructions | 2        |

```
      00 01 02 03 04 05 06 07  08 09 0A 0B 0C 0D 0E 0F
      -- -- -- -- -- -- -- --  -- -- -- -- -- -- -- --
0730:                          5B 8F 80 F8 FF FF 7F F8          [.......
0740: FF FF 7F 65 6E 7A 31 00                           ...enz1.        
```

#### Opcodes

```
  0: 0x0738 [0x5B] LOAD_EXT_SCHEDULER: Load scheduler "enz1" with entities [EventEntity, EventEntity], work=156*
  1: 0x0747 [0x00] END_REQSTACK()
```

### Event 65535.57

#### Metadata

| Field        | Value    |
|--------------|----------|
| Entrypoint   | 0x0748   |
| Data Size    | 14 bytes |
| Instructions | 2        |

```
      00 01 02 03 04 05 06 07  08 09 0A 0B 0C 0D 0E 0F
      -- -- -- -- -- -- -- --  -- -- -- -- -- -- -- --
0740:                          53 F8 FF FF 7F F8 FF FF          S.......
0750: 7F 65 6E 7A 31 00                                 .enz1.          
```

#### Opcodes

```
  0: 0x0748 [0x53] WAIT_SCHEDULER_TASK: Wait for scheduler "enz1" with entities [EventEntity, EventEntity]
  1: 0x0755 [0x00] END_REQSTACK()
```

### Event 65535.58

#### Metadata

| Field        | Value    |
|--------------|----------|
| Entrypoint   | 0x0756   |
| Data Size    | 16 bytes |
| Instructions | 2        |

```
      00 01 02 03 04 05 06 07  08 09 0A 0B 0C 0D 0E 0F
      -- -- -- -- -- -- -- --  -- -- -- -- -- -- -- --
0750:                   5B 8F  80 F8 FF FF 7F F8 FF FF        [.........
0760: 7F 79 74 6B 30 00                                 .ytk0.          
```

#### Opcodes

```
  0: 0x0756 [0x5B] LOAD_EXT_SCHEDULER: Load scheduler "ytk0" with entities [EventEntity, EventEntity], work=156*
  1: 0x0765 [0x00] END_REQSTACK()
```

### Event 65535.59

#### Metadata

| Field        | Value    |
|--------------|----------|
| Entrypoint   | 0x0766   |
| Data Size    | 14 bytes |
| Instructions | 2        |

```
      00 01 02 03 04 05 06 07  08 09 0A 0B 0C 0D 0E 0F
      -- -- -- -- -- -- -- --  -- -- -- -- -- -- -- --
0760:                   53 F8  FF FF 7F F8 FF FF 7F 79        S........y
0770: 74 6B 30 00                                       tk0.            
```

#### Opcodes

```
  0: 0x0766 [0x53] WAIT_SCHEDULER_TASK: Wait for scheduler "ytk0" with entities [EventEntity, EventEntity]
  1: 0x0773 [0x00] END_REQSTACK()
```

### Event 65535.60

#### Metadata

| Field        | Value    |
|--------------|----------|
| Entrypoint   | 0x0774   |
| Data Size    | 16 bytes |
| Instructions | 2        |

```
      00 01 02 03 04 05 06 07  08 09 0A 0B 0C 0D 0E 0F
      -- -- -- -- -- -- -- --  -- -- -- -- -- -- -- --
0770:             5B 8F 80 F8  FF FF 7F F8 FF FF 7F 79      [..........y
0780: 74 6B 31 00                                       tk1.            
```

#### Opcodes

```
  0: 0x0774 [0x5B] LOAD_EXT_SCHEDULER: Load scheduler "ytk1" with entities [EventEntity, EventEntity], work=156*
  1: 0x0783 [0x00] END_REQSTACK()
```

### Event 65535.61

#### Metadata

| Field        | Value    |
|--------------|----------|
| Entrypoint   | 0x0784   |
| Data Size    | 14 bytes |
| Instructions | 2        |

```
      00 01 02 03 04 05 06 07  08 09 0A 0B 0C 0D 0E 0F
      -- -- -- -- -- -- -- --  -- -- -- -- -- -- -- --
0780:             53 F8 FF FF  7F F8 FF FF 7F 79 74 6B      S........ytk
0790: 31 00                                             1.              
```

#### Opcodes

```
  0: 0x0784 [0x53] WAIT_SCHEDULER_TASK: Wait for scheduler "ytk1" with entities [EventEntity, EventEntity]
  1: 0x0791 [0x00] END_REQSTACK()
```

### Event 65535.62

#### Metadata

| Field        | Value    |
|--------------|----------|
| Entrypoint   | 0x0792   |
| Data Size    | 16 bytes |
| Instructions | 2        |

```
      00 01 02 03 04 05 06 07  08 09 0A 0B 0C 0D 0E 0F
      -- -- -- -- -- -- -- --  -- -- -- -- -- -- -- --
0790:       5B 8F 80 F8 FF FF  7F F8 FF FF 7F 6B 73 72    [..........ksr
07A0: 30 00                                             0.              
```

#### Opcodes

```
  0: 0x0792 [0x5B] LOAD_EXT_SCHEDULER: Load scheduler "ksr0" with entities [EventEntity, EventEntity], work=156*
  1: 0x07A1 [0x00] END_REQSTACK()
```

### Event 65535.63

#### Metadata

| Field        | Value    |
|--------------|----------|
| Entrypoint   | 0x07A2   |
| Data Size    | 14 bytes |
| Instructions | 2        |

```
      00 01 02 03 04 05 06 07  08 09 0A 0B 0C 0D 0E 0F
      -- -- -- -- -- -- -- --  -- -- -- -- -- -- -- --
07A0:       53 F8 FF FF 7F F8  FF FF 7F 6B 73 72 30 00    S........ksr0.
```

#### Opcodes

```
  0: 0x07A2 [0x53] WAIT_SCHEDULER_TASK: Wait for scheduler "ksr0" with entities [EventEntity, EventEntity]
  1: 0x07AF [0x00] END_REQSTACK()
```

### Event 65535.64

#### Metadata

| Field        | Value    |
|--------------|----------|
| Entrypoint   | 0x07B0   |
| Data Size    | 16 bytes |
| Instructions | 2        |

```
      00 01 02 03 04 05 06 07  08 09 0A 0B 0C 0D 0E 0F
      -- -- -- -- -- -- -- --  -- -- -- -- -- -- -- --
07B0: 5B 8F 80 F8 FF FF 7F F8  FF FF 7F 74 67 6D 30 00  [..........tgm0.
```

#### Opcodes

```
  0: 0x07B0 [0x5B] LOAD_EXT_SCHEDULER: Load scheduler "tgm0" with entities [EventEntity, EventEntity], work=156*
  1: 0x07BF [0x00] END_REQSTACK()
```

### Event 65535.65

#### Metadata

| Field        | Value    |
|--------------|----------|
| Entrypoint   | 0x07C0   |
| Data Size    | 14 bytes |
| Instructions | 2        |

```
      00 01 02 03 04 05 06 07  08 09 0A 0B 0C 0D 0E 0F
      -- -- -- -- -- -- -- --  -- -- -- -- -- -- -- --
07C0: 53 F8 FF FF 7F F8 FF FF  7F 74 67 6D 30 00        S........tgm0.  
```

#### Opcodes

```
  0: 0x07C0 [0x53] WAIT_SCHEDULER_TASK: Wait for scheduler "tgm0" with entities [EventEntity, EventEntity]
  1: 0x07CD [0x00] END_REQSTACK()
```

### Event 65535.66

#### Metadata

| Field        | Value    |
|--------------|----------|
| Entrypoint   | 0x07CE   |
| Data Size    | 16 bytes |
| Instructions | 2        |

```
      00 01 02 03 04 05 06 07  08 09 0A 0B 0C 0D 0E 0F
      -- -- -- -- -- -- -- --  -- -- -- -- -- -- -- --
07C0:                                            5B 8F                [.
07D0: 80 F8 FF FF 7F F8 FF FF  7F 74 67 6D 31 00        .........tgm1.  
```

#### Opcodes

```
  0: 0x07CE [0x5B] LOAD_EXT_SCHEDULER: Load scheduler "tgm1" with entities [EventEntity, EventEntity], work=156*
  1: 0x07DD [0x00] END_REQSTACK()
```

### Event 65535.67

#### Metadata

| Field        | Value    |
|--------------|----------|
| Entrypoint   | 0x07DE   |
| Data Size    | 14 bytes |
| Instructions | 2        |

```
      00 01 02 03 04 05 06 07  08 09 0A 0B 0C 0D 0E 0F
      -- -- -- -- -- -- -- --  -- -- -- -- -- -- -- --
07D0:                                            53 F8                S.
07E0: FF FF 7F F8 FF FF 7F 74  67 6D 31 00              .......tgm1.    
```

#### Opcodes

```
  0: 0x07DE [0x53] WAIT_SCHEDULER_TASK: Wait for scheduler "tgm1" with entities [EventEntity, EventEntity]
  1: 0x07EB [0x00] END_REQSTACK()
```

### Event 65535.68

#### Metadata

| Field        | Value    |
|--------------|----------|
| Entrypoint   | 0x07EC   |
| Data Size    | 16 bytes |
| Instructions | 2        |

```
      00 01 02 03 04 05 06 07  08 09 0A 0B 0C 0D 0E 0F
      -- -- -- -- -- -- -- --  -- -- -- -- -- -- -- --
07E0:                                      5B 8F 80 F8              [...
07F0: FF FF 7F F8 FF FF 7F 74  67 6D 32 00              .......tgm2.    
```

#### Opcodes

```
  0: 0x07EC [0x5B] LOAD_EXT_SCHEDULER: Load scheduler "tgm2" with entities [EventEntity, EventEntity], work=156*
  1: 0x07FB [0x00] END_REQSTACK()
```

### Event 65535.69

#### Metadata

| Field        | Value    |
|--------------|----------|
| Entrypoint   | 0x07FC   |
| Data Size    | 14 bytes |
| Instructions | 2        |

```
      00 01 02 03 04 05 06 07  08 09 0A 0B 0C 0D 0E 0F
      -- -- -- -- -- -- -- --  -- -- -- -- -- -- -- --
07F0:                                      53 F8 FF FF              S...
0800: 7F F8 FF FF 7F 74 67 6D  32 00                    .....tgm2.      
```

#### Opcodes

```
  0: 0x07FC [0x53] WAIT_SCHEDULER_TASK: Wait for scheduler "tgm2" with entities [EventEntity, EventEntity]
  1: 0x0809 [0x00] END_REQSTACK()
```

### Event 65535.70

#### Metadata

| Field        | Value    |
|--------------|----------|
| Entrypoint   | 0x080A   |
| Data Size    | 15 bytes |
| Instructions | 5        |

```
      00 01 02 03 04 05 06 07  08 09 0A 0B 0C 0D 0E 0F
      -- -- -- -- -- -- -- --  -- -- -- -- -- -- -- --
0800:                                32 88 80 1F 00 90            2.....
0810: 80 91 80 42 80 1F 01 6F  00                       ...B...o.       
```

#### Opcodes

```
  0: 0x080A [0x32] ExtData[1]->MainSpeed = 13* * 0.1
  1: 0x080D [0x1F] MOVE_ENTITY: EventEntity moves to X=53.409*, Z=-36.069*, Y=-0.051*
  2: 0x0815 [0x1F] MOVE_ENTITY: Update entity position (mode=1)
  3: 0x0817 [0x6F] WAIT_FRAME_DELAY: Yield until WaitTime reaches zero
  4: 0x0818 [0x00] END_REQSTACK()
```

### Event 679

#### Metadata

| Field        | Value   |
|--------------|---------|
| Entrypoint   | 0x0819  |
| Data Size    | 1 bytes |
| Instructions | 1       |

```
      00 01 02 03 04 05 06 07  08 09 0A 0B 0C 0D 0E 0F
      -- -- -- -- -- -- -- --  -- -- -- -- -- -- -- --
0810:                             00                             .      
```

#### Opcodes

```
  0: 0x0819 [0x00] END_REQSTACK()
```

### Event 680

#### Metadata

| Field        | Value   |
|--------------|---------|
| Entrypoint   | 0x081A  |
| Data Size    | 1 bytes |
| Instructions | 1       |

```
      00 01 02 03 04 05 06 07  08 09 0A 0B 0C 0D 0E 0F
      -- -- -- -- -- -- -- --  -- -- -- -- -- -- -- --
0810:                                00                           .     
```

#### Opcodes

```
  0: 0x081A [0x00] END_REQSTACK()
```

### Event 681

#### Metadata

| Field        | Value   |
|--------------|---------|
| Entrypoint   | 0x081B  |
| Data Size    | 1 bytes |
| Instructions | 1       |

```
      00 01 02 03 04 05 06 07  08 09 0A 0B 0C 0D 0E 0F
      -- -- -- -- -- -- -- --  -- -- -- -- -- -- -- --
0810:                                   00                         .    
```

#### Opcodes

```
  0: 0x081B [0x00] END_REQSTACK()
```

### Event 65535.71

#### Metadata

| Field        | Value    |
|--------------|----------|
| Entrypoint   | 0x081C   |
| Data Size    | 15 bytes |
| Instructions | 5        |

```
      00 01 02 03 04 05 06 07  08 09 0A 0B 0C 0D 0E 0F
      -- -- -- -- -- -- -- --  -- -- -- -- -- -- -- --
0810:                                      32 0B 80 1F              2...
0820: 00 92 80 93 80 42 80 1F  01 6F 00                 .....B...o.     
```

#### Opcodes

```
  0: 0x081C [0x32] ExtData[1]->MainSpeed = 11* * 0.1
  1: 0x081F [0x1F] MOVE_ENTITY: EventEntity moves to X=53.374*, Z=-35.111*, Y=-0.051*
  2: 0x0827 [0x1F] MOVE_ENTITY: Update entity position (mode=1)
  3: 0x0829 [0x6F] WAIT_FRAME_DELAY: Yield until WaitTime reaches zero
  4: 0x082A [0x00] END_REQSTACK()
```

### Event 682

#### Metadata

| Field        | Value   |
|--------------|---------|
| Entrypoint   | 0x082B  |
| Data Size    | 1 bytes |
| Instructions | 1       |

```
      00 01 02 03 04 05 06 07  08 09 0A 0B 0C 0D 0E 0F
      -- -- -- -- -- -- -- --  -- -- -- -- -- -- -- --
0820:                                   00                         .    
```

#### Opcodes

```
  0: 0x082B [0x00] END_REQSTACK()
```

### Event 683

#### Metadata

| Field        | Value   |
|--------------|---------|
| Entrypoint   | 0x082C  |
| Data Size    | 1 bytes |
| Instructions | 1       |

```
      00 01 02 03 04 05 06 07  08 09 0A 0B 0C 0D 0E 0F
      -- -- -- -- -- -- -- --  -- -- -- -- -- -- -- --
0820:                                      00                       .   
```

#### Opcodes

```
  0: 0x082C [0x00] END_REQSTACK()
```

### Event 684

#### Metadata

| Field        | Value   |
|--------------|---------|
| Entrypoint   | 0x082D  |
| Data Size    | 1 bytes |
| Instructions | 1       |

```
      00 01 02 03 04 05 06 07  08 09 0A 0B 0C 0D 0E 0F
      -- -- -- -- -- -- -- --  -- -- -- -- -- -- -- --
0820:                                         00                     .  
```

#### Opcodes

```
  0: 0x082D [0x00] END_REQSTACK()
```

### Event 685

#### Metadata

| Field        | Value   |
|--------------|---------|
| Entrypoint   | 0x082E  |
| Data Size    | 1 bytes |
| Instructions | 1       |

```
      00 01 02 03 04 05 06 07  08 09 0A 0B 0C 0D 0E 0F
      -- -- -- -- -- -- -- --  -- -- -- -- -- -- -- --
0820:                                            00                   . 
```

#### Opcodes

```
  0: 0x082E [0x00] END_REQSTACK()
```

### Event 686

#### Metadata

| Field        | Value   |
|--------------|---------|
| Entrypoint   | 0x082F  |
| Data Size    | 1 bytes |
| Instructions | 1       |

```
      00 01 02 03 04 05 06 07  08 09 0A 0B 0C 0D 0E 0F
      -- -- -- -- -- -- -- --  -- -- -- -- -- -- -- --
0820:                                               00                 .
```

#### Opcodes

```
  0: 0x082F [0x00] END_REQSTACK()
```

### Event 687

#### Metadata

| Field        | Value   |
|--------------|---------|
| Entrypoint   | 0x0830  |
| Data Size    | 1 bytes |
| Instructions | 1       |

```
      00 01 02 03 04 05 06 07  08 09 0A 0B 0C 0D 0E 0F
      -- -- -- -- -- -- -- --  -- -- -- -- -- -- -- --
0830: 00                                                .               
```

#### Opcodes

```
  0: 0x0830 [0x00] END_REQSTACK()
```

### Event 688

#### Metadata

| Field        | Value   |
|--------------|---------|
| Entrypoint   | 0x0831  |
| Data Size    | 1 bytes |
| Instructions | 1       |

```
      00 01 02 03 04 05 06 07  08 09 0A 0B 0C 0D 0E 0F
      -- -- -- -- -- -- -- --  -- -- -- -- -- -- -- --
0830:    00                                              .              
```

#### Opcodes

```
  0: 0x0831 [0x00] END_REQSTACK()
```

### Event 65535.72

#### Metadata

| Field        | Value    |
|--------------|----------|
| Entrypoint   | 0x0832   |
| Data Size    | 16 bytes |
| Instructions | 2        |

```
      00 01 02 03 04 05 06 07  08 09 0A 0B 0C 0D 0E 0F
      -- -- -- -- -- -- -- --  -- -- -- -- -- -- -- --
0830:       5B 94 80 F8 FF FF  7F F8 FF FF 7F 65 64 30    [..........ed0
0840: 30 00                                             0.              
```

#### Opcodes

```
  0: 0x0832 [0x5B] LOAD_EXT_SCHEDULER: Load scheduler "ed00" with entities [EventEntity, EventEntity], work=2620*
  1: 0x0841 [0x00] END_REQSTACK()
```

### Event 65535.73

#### Metadata

| Field        | Value    |
|--------------|----------|
| Entrypoint   | 0x0842   |
| Data Size    | 14 bytes |
| Instructions | 2        |

```
      00 01 02 03 04 05 06 07  08 09 0A 0B 0C 0D 0E 0F
      -- -- -- -- -- -- -- --  -- -- -- -- -- -- -- --
0840:       53 F8 FF FF 7F F8  FF FF 7F 65 64 30 30 00    S........ed00.
```

#### Opcodes

```
  0: 0x0842 [0x53] WAIT_SCHEDULER_TASK: Wait for scheduler "ed00" with entities [EventEntity, EventEntity]
  1: 0x084F [0x00] END_REQSTACK()
```
