# 17735693 - Gerbaum

## Common Data

| Field            | Value                  |
|------------------|------------------------|
| Zone             | Bastok Mines (ID: 234) |
| Block Size       | 636 bytes              |
| Total Events     | 10                     |
| References Count | 48                     |

## List of Events

| Event ID                 | Entrypoint   |   Size |   Instructions |
|--------------------------|--------------|--------|----------------|
| [65535](#event-65535)    | 0x0000       |      1 |              1 |
| [1](#event-1)            | 0x0001       |     10 |              2 |
| [65535.1](#event-655351) | 0x000B       |     57 |             13 |
| [22](#event-22)          | 0x0044       |     17 |              7 |
| [23](#event-23)          | 0x0055       |     17 |              7 |
| [108](#event-108)        | 0x0066       |     35 |              9 |
| [109](#event-109)        | 0x0089       |     67 |             12 |
| [176](#event-176)        | 0x00CC       |     15 |              3 |
| [180](#event-180)        | 0x00DB       |      1 |              1 |
| [65535.2](#event-655352) | 0x00DC       |    167 |             39 |

## DAT References (imed_data)

|   Index | Hex Value   |   Dec Value |
|---------|-------------|-------------|
|       0 | 0xFFFDABBA  |  4294814650 |
|       1 | 0xFFFFDD8B  |  4294958475 |
|       2 | 0x00B2      |         178 |
|       3 | 0x055D      |        1373 |
|       4 | 0x000D      |          13 |
|       5 | 0x003C      |          60 |
|       6 | 0xFFFDA779  |  4294813561 |
|       7 | 0xFFFF6E50  |  4294930000 |
|       8 | 0x0000      |           0 |
|       9 | 0xFFFD98C9  |  4294809801 |
|      10 | 0xFFFF6A7C  |  4294929020 |
|      11 | 0xFFFD667F  |  4294796927 |
|      12 | 0xFFFFB626  |  4294948390 |
|      13 | 0xFFFFE5CE  |  4294960590 |
|      14 | 0xFFFD6307  |  4294796039 |
|      15 | 0xFFFFC1C7  |  4294951367 |
|      16 | 0xFFFFE317  |  4294959895 |
|      17 | 0xFFFD2832  |  4294780978 |
|      18 | 0xFFFFBDFE  |  4294950398 |
|      19 | 0xFFFFDE15  |  4294958613 |
|      20 | 0x0008      |           8 |
|      21 | 0x2933      |       10547 |
|      22 | 0x2934      |       10548 |
|      23 | 0x0230      |         560 |
|      24 | 0x2A3E      |       10814 |
|      25 | 0x0037      |          55 |
|      26 | 0x2A3F      |       10815 |
|      27 | 0x000A      |          10 |
|      28 | 0x2A40      |       10816 |
|      29 | 0x00C9      |         201 |
|      30 | 0xFFFDA430  |  4294812720 |
|      31 | 0xFFFF6112  |  4294926610 |
|      32 | 0x0A54      |        2644 |
|      33 | 0xFFFF75B1  |  4294931889 |
|      34 | 0x6E27      |       28199 |
|      35 | 0x0528      |        1320 |
|      36 | 0xFFFFA4B5  |  4294943925 |
|      37 | 0x6CFC      |       27900 |
|      38 | 0x1B57      |        6999 |
|      39 | 0xFFFFAA48  |  4294945352 |
|      40 | 0x6CAC      |       27820 |
|      41 | 0x0001      |           1 |
|      42 | 0x370E      |       14094 |
|      43 | 0x3771      |       14193 |
|      44 | 0x0002      |           2 |
|      45 | 0x3772      |       14194 |
|      46 | 0x3773      |       14195 |
|      47 | 0x3785      |       14213 |

## String References

- **10547**: Those Humes are full of talk about how they dug the mythril mines with their great technology, but it didn't do them much good when the Quadav came, did it?
- **10548**: "Welcome to the Palborough Mines--made by Humes, full of Quadav." Good catch phrase for their mythril mines, don't you think?
- **10814**: The government won't do anything about the monsters in the Zeruhn Mines. It's not "cost-effective." But those things always get in the way of work, you know?
- **10815**: If you can go in there and kill a few, my buddies and I will put together a reward for you. Oh, and don't forget to bring me three $7 as proof you did the job.
- **10816**: Good work! We could use more people like you!
- **14094**: Ask if this person is the chick's owner? [Yes./No.]
- **14193**: You've found my chocobo, have you?
- **14194**: I thought he'd run away because I spend too long working.
- **14195**: Thanks for finding him. In return, let me teach you a story I often tell my chocobo...
- **14213**: Well, it's true that I can't care for my chocobo as much as I'd like, considering my employment...but I'd never let it wander around lost. You must have me confused for someone else.

## Events

### Event 65535

#### Metadata

| Field        | Value   |
|--------------|---------|
| Entrypoint   | 0x0000  |
| Data Size    | 1 bytes |
| Instructions | 1       |

```
      00 01 02 03 04 05 06 07  08 09 0A 0B 0C 0D 0E 0F
      -- -- -- -- -- -- -- --  -- -- -- -- -- -- -- --
0000: 00                                                .               
```

#### Opcodes

```
  0: 0x0000 [0x00] END_REQSTACK()
```

### Event 1

#### Metadata

| Field        | Value    |
|--------------|----------|
| Entrypoint   | 0x0001   |
| Data Size    | 10 bytes |
| Instructions | 2        |

```
      00 01 02 03 04 05 06 07  08 09 0A 0B 0C 0D 0E 0F
      -- -- -- -- -- -- -- --  -- -- -- -- -- -- -- --
0000:    37 00 80 01 80 02 80  03 80 00                  7.........     
```

#### Opcodes

```
  0: 0x0001 [0x37] UPDATE_EVENT_POSITION_AND_DIR: x=-152.646*, z=-8.821*, y=0.178*, direction=120.7°*
  1: 0x000A [0x00] END_REQSTACK()
```

### Event 65535.1

#### Metadata

| Field        | Value    |
|--------------|----------|
| Entrypoint   | 0x000B   |
| Data Size    | 57 bytes |
| Instructions | 13       |

```
      00 01 02 03 04 05 06 07  08 09 0A 0B 0C 0D 0E 0F
      -- -- -- -- -- -- -- --  -- -- -- -- -- -- -- --
0000:                                   32 04 80 1C 05             2....
0010: 80 1F 00 06 80 07 80 08  80 1F 01 1F 00 09 80 0A  ................
0020: 80 08 80 1F 01 1F 00 0B  80 0C 80 0D 80 1F 01 1F  ................
0030: 00 0E 80 0F 80 10 80 1F  01 1F 00 11 80 12 80 13  ................
0040: 80 1F 01 00                                       ....            
```

#### Opcodes

```
  0: 0x000B [0x32] ExtData[1]->MainSpeed = 13* * 0.1
  1: 0x000E [0x1C] WAIT(60* ticks)
  2: 0x0011 [0x1F] MOVE_ENTITY: EventEntity moves to X=-153.735*, Z=-37.296*, Y=0.000*
  3: 0x0019 [0x1F] MOVE_ENTITY: Update entity position (mode=1)
  4: 0x001B [0x1F] MOVE_ENTITY: EventEntity moves to X=-157.495*, Z=-38.276*, Y=0.000*
  5: 0x0023 [0x1F] MOVE_ENTITY: Update entity position (mode=1)
  6: 0x0025 [0x1F] MOVE_ENTITY: EventEntity moves to X=-170.369*, Z=-18.906*, Y=-6.706*
  7: 0x002D [0x1F] MOVE_ENTITY: Update entity position (mode=1)
  8: 0x002F [0x1F] MOVE_ENTITY: EventEntity moves to X=-171.257*, Z=-15.929*, Y=-7.401*
  9: 0x0037 [0x1F] MOVE_ENTITY: Update entity position (mode=1)
 10: 0x0039 [0x1F] MOVE_ENTITY: EventEntity moves to X=-186.318*, Z=-16.898*, Y=-8.683*
 11: 0x0041 [0x1F] MOVE_ENTITY: Update entity position (mode=1)
 12: 0x0043 [0x00] END_REQSTACK()
```

### Event 22

#### Metadata

| Field        | Value    |
|--------------|----------|
| Entrypoint   | 0x0044   |
| Data Size    | 17 bytes |
| Instructions | 7        |

```
      00 01 02 03 04 05 06 07  08 09 0A 0B 0C 0D 0E 0F
      -- -- -- -- -- -- -- --  -- -- -- -- -- -- -- --
0040:             38 14 80 1E  F0 FF FF 7F 1D 15 80 23      8..........#
0050: 1A 03 01 21 00                                    ...!.           
```

#### Opcodes

```
  0: 0x0044 [0x38] SET_CLIENT_EVENT_MODE(mode=8*)
  1: 0x0047 [0x1E] EventEntity looks at LocalPlayer and starts talking
  2: 0x004C [0x1D] PRINT_EVENT_MESSAGE(message_id=10547*)
    → "Those Humes are full of talk about how they dug the mythril mines with their great technology, but it didn't do them much good when the Quadav came, did it?"
  3: 0x004F [0x23] WAIT_FOR_DIALOG_INTERACTION
  4: 0x0050 [0x1A] CALL_SUBROUTINE(address=0x0103)
  5: 0x0053 [0x21] END_EVENT
  6: 0x0054 [0x00] END_REQSTACK()
```

### Event 23

#### Metadata

| Field        | Value    |
|--------------|----------|
| Entrypoint   | 0x0055   |
| Data Size    | 17 bytes |
| Instructions | 7        |

```
      00 01 02 03 04 05 06 07  08 09 0A 0B 0C 0D 0E 0F
      -- -- -- -- -- -- -- --  -- -- -- -- -- -- -- --
0050:                38 14 80  1E F0 FF FF 7F 1D 16 80       8..........
0060: 23 1A 03 01 21 00                                 #...!.          
```

#### Opcodes

```
  0: 0x0055 [0x38] SET_CLIENT_EVENT_MODE(mode=8*)
  1: 0x0058 [0x1E] EventEntity looks at LocalPlayer and starts talking
  2: 0x005D [0x1D] PRINT_EVENT_MESSAGE(message_id=10548*)
    → ""Welcome to the Palborough Mines--made by Humes, full of Quadav." Good catch phrase for their mythril mines, don't you think?"
  3: 0x0060 [0x23] WAIT_FOR_DIALOG_INTERACTION
  4: 0x0061 [0x1A] CALL_SUBROUTINE(address=0x0103)
  5: 0x0064 [0x21] END_EVENT
  6: 0x0065 [0x00] END_REQSTACK()
```

### Event 108

#### Metadata

| Field        | Value    |
|--------------|----------|
| Entrypoint   | 0x0066   |
| Data Size    | 35 bytes |
| Instructions | 9        |

```
      00 01 02 03 04 05 06 07  08 09 0A 0B 0C 0D 0E 0F
      -- -- -- -- -- -- -- --  -- -- -- -- -- -- -- --
0060:                   03 09  10 17 80 1E F0 FF FF 7F        ..........
0070: 1D 18 80 23 5B 19 80 F8  FF FF 7F F8 FF FF 7F 74  ...#[..........t
0080: 6C 6B 30 1D 1A 80 23 21  00                       lk0...#!.       
```

#### Opcodes

```
  0: 0x0066 [0x03] Work_Zone[9] = 560*
  1: 0x006B [0x1E] EventEntity looks at LocalPlayer and starts talking
  2: 0x0070 [0x1D] PRINT_EVENT_MESSAGE(message_id=10814*)
    → "The government won't do anything about the monsters in the Zeruhn Mines. It's not "cost-effective." But those things always get in the way of work, you know?"
  3: 0x0073 [0x23] WAIT_FOR_DIALOG_INTERACTION
  4: 0x0074 [0x5B] LOAD_EXT_SCHEDULER: Load scheduler "tlk0" with entities [EventEntity, EventEntity], work=55*
  5: 0x0083 [0x1D] PRINT_EVENT_MESSAGE(message_id=10815*)
    → "If you can go in there and kill a few, my buddies and I will put together a reward for you. Oh, and don't forget to bring me three $7 as proof you did the job."
  6: 0x0086 [0x23] WAIT_FOR_DIALOG_INTERACTION
  7: 0x0087 [0x21] END_EVENT
  8: 0x0088 [0x00] END_REQSTACK()
```

### Event 109

#### Metadata

| Field        | Value    |
|--------------|----------|
| Entrypoint   | 0x0089   |
| Data Size    | 67 bytes |
| Instructions | 12       |

```
      00 01 02 03 04 05 06 07  08 09 0A 0B 0C 0D 0E 0F
      -- -- -- -- -- -- -- --  -- -- -- -- -- -- -- --
0080:                             03 09 10 17 80 20 01           ..... .
0090: 42 1E F0 FF FF 7F 1C 1B  80 5B 19 80 F8 FF FF 7F  B........[......
00A0: F8 FF FF 7F 70 61 73 30  1D 1C 80 23 53 F8 FF FF  ....pas0...#S...
00B0: 7F F8 FF FF 7F 70 61 73  30 45 1D 80 F0 FF FF 7F  .....pas0E......
00C0: F0 FF FF 7F 71 73 74 63  08 80 21 00              ....qstc..!.    
```

#### Opcodes

```
  0: 0x0089 [0x03] Work_Zone[9] = 560*
  1: 0x008E [0x20] SET_CLI_EVENT_UC_FLAG: Lock player control
  2: 0x0090 [0x42] SET_CLI_EVENT_CANCEL_DATA()
  3: 0x0091 [0x1E] EventEntity looks at LocalPlayer and starts talking
  4: 0x0096 [0x1C] WAIT(10* ticks)
  5: 0x0099 [0x5B] LOAD_EXT_SCHEDULER: Load scheduler "pas0" with entities [EventEntity, EventEntity], work=55*
  6: 0x00A8 [0x1D] PRINT_EVENT_MESSAGE(message_id=10816*)
    → "Good work! We could use more people like you!"
  7: 0x00AB [0x23] WAIT_FOR_DIALOG_INTERACTION
  8: 0x00AC [0x53] WAIT_SCHEDULER_TASK: Wait for scheduler "pas0" with entities [EventEntity, EventEntity]
  9: 0x00B9 [0x45] LOAD_SCHEDULED_TASK: Load scheduler "qstc" with entities [LocalPlayer, LocalPlayer], work=[201*, 0*]
 10: 0x00CA [0x21] END_EVENT
 11: 0x00CB [0x00] END_REQSTACK()
```

### Event 176

#### Metadata

| Field        | Value    |
|--------------|----------|
| Entrypoint   | 0x00CC   |
| Data Size    | 15 bytes |
| Instructions | 3        |

```
      00 01 02 03 04 05 06 07  08 09 0A 0B 0C 0D 0E 0F
      -- -- -- -- -- -- -- --  -- -- -- -- -- -- -- --
00C0:                                      37 1E 80 1F              7...
00D0: 80 08 80 20 80 1E 0B A0  0E 01 00                 ... .......     
```

#### Opcodes

```
  0: 0x00CC [0x37] UPDATE_EVENT_POSITION_AND_DIR: x=-154.576*, z=-40.686*, y=0.000*, direction=232.4°*
  1: 0x00D5 [0x1E] EventEntity looks at Mydon (ID: 17735691/0x010EA00B) and starts talking
  2: 0x00DA [0x00] END_REQSTACK()
```

### Event 180

#### Metadata

| Field        | Value   |
|--------------|---------|
| Entrypoint   | 0x00DB  |
| Data Size    | 1 bytes |
| Instructions | 1       |

```
      00 01 02 03 04 05 06 07  08 09 0A 0B 0C 0D 0E 0F
      -- -- -- -- -- -- -- --  -- -- -- -- -- -- -- --
00D0:                                   00                         .    
```

#### Opcodes

```
  0: 0x00DB [0x00] END_REQSTACK()
```

### Event 65535.2

#### Metadata

| Field        | Value     |
|--------------|-----------|
| Entrypoint   | 0x00DC    |
| Data Size    | 167 bytes |
| Instructions | 9         |

```
      00 01 02 03 04 05 06 07  08 09 0A 0B 0C 0D 0E 0F
      -- -- -- -- -- -- -- --  -- -- -- -- -- -- -- --
00D0:                                      32 04 80 37              2..7
00E0: 21 80 22 80 08 80 23 80  5A 00 24 80 25 80 26 80  !."...#.Z.$.%.&.
00F0: 5A 01 1F 00 27 80 28 80  26 80 1F 01 6F 1E 70 A0  Z...'.(.&...o.p.
0100: 0E 01 00 03 01 10 29 80  43 00 43 01 02 03 10 08  ......).C.C.....
0110: 80 00 1C 01 03 01 10 08  80 01 82 01 42 24 2A 80  ............B$*.
0120: 29 80 08 80 25 02 00 10  08 80 00 72 01 1D 2B 80  )...%......r..+.
0130: 23 5B 19 80 F8 FF FF 7F  F8 FF FF 7F 74 6C 6B 30  #[..........tlk0
0140: 03 01 10 2C 80 43 00 43  01 02 03 10 29 80 00 6B  ...,.C.C....)..k
0150: 01 1D 2D 80 23 5B 19 80  F8 FF FF 7F F8 FF FF 7F  ..-.#[..........
0160: 74 6C 6B 31 1D 2E 80 23  01 6F 01 1D 2F 80 23 01  tlk1...#.o../.#.
0170: 82 01 02 00 10 29 80 00  82 01 03 01 10 08 80 01  .....)..........
0180: 82 01 1B                                          ...             
```

#### Opcodes

```
  0: 0x00DC [0x32] ExtData[1]->MainSpeed = 13* * 0.1
  1: 0x00DF [0x37] UPDATE_EVENT_POSITION_AND_DIR: x=-35.407*, z=28.199*, y=0.000*, direction=116.0°*
  2: 0x00E8 [0x5A] UPDATE_EVENT_POSITION: Set EventEntity MovePosition to X=-23.371*, Z=27.900*, Y=6.999*
  3: 0x00F0 [0x5A] UPDATE_EVENT_POSITION: Move EventEntity incrementally towards MovePosition
  4: 0x00F2 [0x1F] MOVE_ENTITY: EventEntity moves to X=-21.944*, Z=27.820*, Y=6.999*
  5: 0x00FA [0x1F] MOVE_ENTITY: Update entity position (mode=1)
  6: 0x00FC [0x6F] WAIT_FRAME_DELAY: Yield until WaitTime reaches zero
  7: 0x00FD [0x1E] EventEntity looks at Povall (ID: 17735792/0x010EA070) and starts talking
  8: 0x0102 [0x00] END_REQSTACK()
```

#### Data or dead code:

```
# Dead code (unreachable instructions):
     0x0103 [0x03] Work_Zone[1] = 1*
     0x0108 [0x43] SEND_EVENT_UPDATE: Send pending tag to server (packet 0x005B)
     0x010A [0x43] SEND_EVENT_UPDATE: Check pending flag (skip if not pending)
     0x010C [0x02] IF !(Work_Zone[3] == 0*) GOTO 0x011C
     0x0114 [0x03] Work_Zone[1] = 0*
     0x0119 [0x01] GOTO 0x0182
     0x011C [0x42] SET_CLI_EVENT_CANCEL_DATA()
     0x011D [0x24] CREATE_DIALOG(message_id=14094*, default_option=1*, option_flags=0*)
    → "Ask if this person is the chick's owner? [Yes./No.]"
     0x0124 [0x25] WAIT_DIALOG_SELECT()
     0x0125 [0x02] IF !(Work_Zone[0] == 0*) GOTO 0x0172
     0x012D [0x1D] PRINT_EVENT_MESSAGE(message_id=14193*)
    → "You've found my chocobo, have you?"
     0x0130 [0x23] WAIT_FOR_DIALOG_INTERACTION
     0x0131 [0x5B] LOAD_EXT_SCHEDULER: Load scheduler "tlk0" with entities [EventEntity, EventEntity], work=55*
     0x0140 [0x03] Work_Zone[1] = 2*
     0x0145 [0x43] SEND_EVENT_UPDATE: Send pending tag to server (packet 0x005B)
     0x0147 [0x43] SEND_EVENT_UPDATE: Check pending flag (skip if not pending)
     0x0149 [0x02] IF !(Work_Zone[3] == 1*) GOTO 0x016B
     0x0151 [0x1D] PRINT_EVENT_MESSAGE(message_id=14194*)
    → "I thought he'd run away because I spend too long working."
     0x0154 [0x23] WAIT_FOR_DIALOG_INTERACTION
     0x0155 [0x5B] LOAD_EXT_SCHEDULER: Load scheduler "tlk1" with entities [EventEntity, EventEntity], work=55*
     0x0164 [0x1D] PRINT_EVENT_MESSAGE(message_id=14195*)
    → "Thanks for finding him. In return, let me teach you a story I often tell my chocobo..."
     0x0167 [0x23] WAIT_FOR_DIALOG_INTERACTION
     0x0168 [0x01] GOTO 0x016F
     0x016B [0x1D] PRINT_EVENT_MESSAGE(message_id=14213*)
    → "Well, it's true that I can't care for my chocobo as much as I'd like, considering my employment...but I'd never let it wander around lost. You must have me confused for someone else."
     0x016E [0x23] WAIT_FOR_DIALOG_INTERACTION
     0x016F [0x01] GOTO 0x0182
     0x0172 [0x02] IF !(Work_Zone[0] == 1*) GOTO 0x0182
     0x017A [0x03] Work_Zone[1] = 0*
     0x017F [0x01] GOTO 0x0182
     0x0182 [0x1B] RETURN
```
