# 17735918

## Common Data

| Field            | Value                  |
|------------------|------------------------|
| Zone             | Bastok Mines (ID: 234) |
| Block Size       | 224 bytes              |
| Total Events     | 5                      |
| References Count | 6                      |

## List of Events

| Event ID                 | Entrypoint   |   Size |   Instructions |
|--------------------------|--------------|--------|----------------|
| [65535](#event-65535)    | 0x0000       |      1 |              1 |
| [601](#event-601)        | 0x0001       |      1 |              1 |
| [602](#event-602)        | 0x0002       |      1 |              1 |
| [65535.1](#event-655351) | 0x0003       |     92 |             19 |
| [65535.2](#event-655352) | 0x005F       |     67 |             16 |

## DAT References (imed_data)

|   Index | Hex Value   |   Dec Value |
|---------|-------------|-------------|
|       0 | 0x0001      |           1 |
|       1 | 0x0000      |           0 |
|       2 | 0x003C      |          60 |
|       3 | 0x012C      |         300 |
|       4 | 0x000A      |          10 |
|       5 | 0x0005      |           5 |

## Events

### Event 65535

#### Metadata

| Field        | Value   |
|--------------|---------|
| Entrypoint   | 0x0000  |
| Data Size    | 1 bytes |
| Instructions | 1       |

```
      00 01 02 03 04 05 06 07  08 09 0A 0B 0C 0D 0E 0F
      -- -- -- -- -- -- -- --  -- -- -- -- -- -- -- --
0000: 00                                                .               
```

#### Opcodes

```
  0: 0x0000 [0x00] END_REQSTACK()
```

### Event 601

#### Metadata

| Field        | Value   |
|--------------|---------|
| Entrypoint   | 0x0001  |
| Data Size    | 1 bytes |
| Instructions | 1       |

```
      00 01 02 03 04 05 06 07  08 09 0A 0B 0C 0D 0E 0F
      -- -- -- -- -- -- -- --  -- -- -- -- -- -- -- --
0000:    00                                              .              
```

#### Opcodes

```
  0: 0x0001 [0x00] END_REQSTACK()
```

### Event 602

#### Metadata

| Field        | Value   |
|--------------|---------|
| Entrypoint   | 0x0002  |
| Data Size    | 1 bytes |
| Instructions | 1       |

```
      00 01 02 03 04 05 06 07  08 09 0A 0B 0C 0D 0E 0F
      -- -- -- -- -- -- -- --  -- -- -- -- -- -- -- --
0000:       00                                            .             
```

#### Opcodes

```
  0: 0x0002 [0x00] END_REQSTACK()
```

### Event 65535.1

#### Metadata

| Field        | Value    |
|--------------|----------|
| Entrypoint   | 0x0003   |
| Data Size    | 92 bytes |
| Instructions | 19       |

```
      00 01 02 03 04 05 06 07  08 09 0A 0B 0C 0D 0E 0F
      -- -- -- -- -- -- -- --  -- -- -- -- -- -- -- --
0000:          02 00 80 01 80  02 5E 00 28 80 E7 A0 0E     ......^.(....
0010: 01 04 1C 02 80 28 80 E8  A0 0E 01 04 1C 02 80 28  .....(.........(
0020: 80 E9 A0 0E 01 04 1C 02  80 28 80 EA A0 0E 01 02  .........(......
0030: 1C 02 80 28 80 EB A0 0E  01 02 1C 02 80 28 80 EC  ...(.........(..
0040: A0 0E 01 02 1C 02 80 28  80 E9 A0 0E 01 04 1C 02  .......(........
0050: 80 28 80 ED A0 0E 01 02  1C 03 80 01 03 00 00     .(............. 
```

#### Opcodes

```
  0: 0x0003 [0x02] IF !(1* <= 0*) GOTO 0x005E
  1: 0x000B [0x28] REQ_SET_WITH_CONDITIONS(priority=0x80, target_entity=I (ID: 17735911/0x010EA0E7), tag_num=0x04)
  2: 0x0012 [0x1C] WAIT(60* ticks)
  3: 0x0015 [0x28] REQ_SET_WITH_CONDITIONS(priority=0x80, target_entity=L (ID: 17735912/0x010EA0E8), tag_num=0x04)
  4: 0x001C [0x1C] WAIT(60* ticks)
  5: 0x001F [0x28] REQ_SET_WITH_CONDITIONS(priority=0x80, target_entity=O (ID: 17735913/0x010EA0E9), tag_num=0x04)
  6: 0x0026 [0x1C] WAIT(60* ticks)
  7: 0x0029 [0x28] REQ_SET_WITH_CONDITIONS(priority=0x80, target_entity=V (ID: 17735914/0x010EA0EA), tag_num=0x02)
  8: 0x0030 [0x1C] WAIT(60* ticks)
  9: 0x0033 [0x28] REQ_SET_WITH_CONDITIONS(priority=0x80, target_entity=E (ID: 17735915/0x010EA0EB), tag_num=0x02)
 10: 0x003A [0x1C] WAIT(60* ticks)
 11: 0x003D [0x28] REQ_SET_WITH_CONDITIONS(priority=0x80, target_entity=Y (ID: 17735916/0x010EA0EC), tag_num=0x02)
 12: 0x0044 [0x1C] WAIT(60* ticks)
 13: 0x0047 [0x28] REQ_SET_WITH_CONDITIONS(priority=0x80, target_entity=O (ID: 17735913/0x010EA0E9), tag_num=0x04)
 14: 0x004E [0x1C] WAIT(60* ticks)
 15: 0x0051 [0x28] REQ_SET_WITH_CONDITIONS(priority=0x80, target_entity=U (ID: 17735917/0x010EA0ED), tag_num=0x02)
 16: 0x0058 [0x1C] WAIT(300* ticks)
 17: 0x005B [0x01] GOTO 0x0003
 18: 0x005E [0x00] END_REQSTACK()
```

### Event 65535.2

#### Metadata

| Field        | Value    |
|--------------|----------|
| Entrypoint   | 0x005F   |
| Data Size    | 67 bytes |
| Instructions | 16       |

```
      00 01 02 03 04 05 06 07  08 09 0A 0B 0C 0D 0E 0F
      -- -- -- -- -- -- -- --  -- -- -- -- -- -- -- --
0050:                                               83                 .
0060: 01 00 07 01 00 04 80 06  02 00 02 02 00 01 00 05  ................
0070: A1 00 1C 05 80 83 02 00  03 00 00 01 00 08 00 00  ................
0080: 02 00 02 00 00 05 80 00  9E 00 02 08 17 01 80 00  ................
0090: 9E 00 03 04 17 04 80 0B  08 17 B4 06 00 00 01 6A  ...............j
00A0: 00 00                                             ..              
```

#### Opcodes

```
  0: 0x005F [0x83] ExtData[1]->WorkLocal[1] = GetGameTime()
  1: 0x0062 [0x07] ExtData[1]->WorkLocal[1] += 10*
  2: 0x0067 [0x06] ExtData[1]->WorkLocal[2] = 0
  3: 0x006A [0x02] IF !(ExtData[1]->WorkLocal[2] > ExtData[1]->WorkLocal[1]) GOTO 0x00A1
  4: 0x0072 [0x1C] WAIT(5* ticks)
  5: 0x0075 [0x83] ExtData[1]->WorkLocal[2] = GetGameTime()
  6: 0x0078 [0x03] ExtData[1]->WorkLocal[0] = ExtData[1]->WorkLocal[1]
  7: 0x007D [0x08] ExtData[1]->WorkLocal[0] -= ExtData[1]->WorkLocal[2]
  8: 0x0082 [0x02] IF !(ExtData[1]->WorkLocal[0] == 5*) GOTO 0x009E
  9: 0x008A [0x02] IF !(Work_Zone_1700[8] == 0*) GOTO 0x009E
 10: 0x0092 [0x03] Work_Zone_1700[4] = 10*
 11: 0x0097 [0x0B] Work_Zone_1700[8]++
 12: 0x009A [0xB4] UI_WINDOW_STRING_HANDLER(case=0x06 - Toggle query message flag, flag_value=0x00)
 13: 0x009D [0x00] END_REQSTACK()
 14: 0x009E [0x01] GOTO 0x006A
 15: 0x00A1 [0x00] END_REQSTACK()
```
