# 17735880 - Prycillia

## Common Data

| Field            | Value                  |
|------------------|------------------------|
| Zone             | Bastok Mines (ID: 234) |
| Block Size       | 10932 bytes            |
| Total Events     | 5                      |
| References Count | 165                    |

## List of Events

| Event ID              | Entrypoint   |   Size |   Instructions |
|-----------------------|--------------|--------|----------------|
| [65535](#event-65535) | 0x0000       |      1 |              1 |
| [599](#event-599)     | 0x0001       |    564 |             89 |
| [600](#event-600)     | 0x0235       |   3531 |            571 |
| [601](#event-601)     | 0x1000       |   2270 |            355 |
| [602](#event-602)     | 0x18DE       |   3868 |            617 |

## DAT References (imed_data)

|   Index | Hex Value   |   Dec Value |
|---------|-------------|-------------|
|       0 | 0x0001      |           1 |
|       1 | 0x00C8      |         200 |
|       2 | 0x0000      |           0 |
|       3 | 0x0004      |           4 |
|       4 | 0x001E      |          30 |
|       5 | 0x0013      |          19 |
|       6 | 0x3E42      |       15938 |
|       7 | 0x000A      |          10 |
|       8 | 0x0002      |           2 |
|       9 | 0x3E29      |       15913 |
|      10 | 0x3E2A      |       15914 |
|      11 | 0x0003      |           3 |
|      12 | 0x3E2C      |       15916 |
|      13 | 0x003C      |          60 |
|      14 | 0x001F      |          31 |
|      15 | 0x3E15      |       15893 |
|      16 | 0x3E12      |       15890 |
|      17 | 0x3E13      |       15891 |
|      18 | 0x3E14      |       15892 |
|      19 | 0x3E16      |       15894 |
|      20 | 0x3E17      |       15895 |
|      21 | 0x3E18      |       15896 |
|      22 | 0x3E19      |       15897 |
|      23 | 0x001B      |          27 |
|      24 | 0x000F      |          15 |
|      25 | 0xFFFDE8D8  |  4294830296 |
|      26 | 0xFFFFFC18  |  4294966296 |
|      27 | 0x07FF      |        2047 |
|      28 | 0xFFFD9FCC  |  4294811596 |
|      29 | 0xFFFFFF38  |  4294967096 |
|      30 | 0x0FFF      |        4095 |
|      31 | 0xFFFFF448  |  4294964296 |
|      32 | 0x0066      |         102 |
|      33 | 0x0081      |         129 |
|      34 | 0xFFFFEA84  |  4294961796 |
|      35 | 0x1D4C      |        7500 |
|      36 | 0x004C      |          76 |
|      37 | 0x0078      |         120 |
|      38 | 0x3E2D      |       15917 |
|      39 | 0x00B4      |         180 |
|      40 | 0xFFFFFE01  |  4294966785 |
|      41 | 0x3E1A      |       15898 |
|      42 | 0x3E1B      |       15899 |
|      43 | 0x0020      |          32 |
|      44 | 0x3E1C      |       15900 |
|      45 | 0x0005      |           5 |
|      46 | 0x0006      |           6 |
|      47 | 0x3E1D      |       15901 |
|      48 | 0x3E1E      |       15902 |
|      49 | 0x0098      |         152 |
|      50 | 0xAFC8      |       45000 |
|      51 | 0xFFFEB7E0  |  4294883296 |
|      52 | 0xFFFFFC01  |  4294966273 |
|      53 | 0x0008      |           8 |
|      54 | 0x0010      |          16 |
|      55 | 0x03E8      |        1000 |
|      56 | 0x00DC      |         220 |
|      57 | 0x0007      |           7 |
|      58 | 0x0009      |           9 |
|      59 | 0x000B      |          11 |
|      60 | 0x000C      |          12 |
|      61 | 0x000D      |          13 |
|      62 | 0x000E      |          14 |
|      63 | 0x0011      |          17 |
|      64 | 0x0012      |          18 |
|      65 | 0x0014      |          20 |
|      66 | 0x0015      |          21 |
|      67 | 0x0016      |          22 |
|      68 | 0x0017      |          23 |
|      69 | 0x0018      |          24 |
|      70 | 0x3E23      |       15907 |
|      71 | 0x3E24      |       15908 |
|      72 | 0x3E25      |       15909 |
|      73 | 0x3E26      |       15910 |
|      74 | 0x3E27      |       15911 |
|      75 | 0x3E28      |       15912 |
|      76 | 0x3E20      |       15904 |
|      77 | 0x11C1      |        4545 |
|      78 | 0x15E5      |        5605 |
|      79 | 0x15E6      |        5606 |
|      80 | 0x3E21      |       15905 |
|      81 | 0x3E22      |       15906 |
|      82 | 0x3E1F      |       15903 |
|      83 | 0x15E7      |        5607 |
|      84 | 0x15E8      |        5608 |
|      85 | 0x3E2B      |       15915 |
|      86 | 0xFFFE3022  |  4294848546 |
|      87 | 0xFFFFE0C0  |  4294959296 |
|      88 | 0xFFFE2A46  |  4294847046 |
|      89 | 0xFFFFDCD8  |  4294958296 |
|      90 | 0xFFFE459E  |  4294854046 |
|      91 | 0x002C      |          44 |
|      92 | 0x03FF      |        1023 |
|      93 | 0xFFFDFB66  |  4294835046 |
|      94 | 0xFFFFFF9C  |  4294967196 |
|      95 | 0xFFFE18B2  |  4294842546 |
|      96 | 0xFFFE2276  |  4294845046 |
|      97 | 0xFFFFE444  |  4294960196 |
|      98 | 0x02E4      |         740 |
|      99 | 0xFFFE13D0  |  4294841296 |
|     100 | 0xFFFFE4A8  |  4294960296 |
|     101 | 0xFFFE16BE  |  4294842046 |
|     102 | 0xFFFE1C9A  |  4294843546 |
|     103 | 0xFFFE1F88  |  4294844296 |
|     104 | 0xFFFE2E2E  |  4294848046 |
|     105 | 0xFFFE15C4  |  4294841796 |
|     106 | 0xFFFE1BA0  |  4294843296 |
|     107 | 0xFFFE1E8E  |  4294844046 |
|     108 | 0xFFFE217C  |  4294844796 |
|     109 | 0xFFFE246A  |  4294845546 |
|     110 | 0xFFFE2758  |  4294846296 |
|     111 | 0x0064      |         100 |
|     112 | 0xFFFE311C  |  4294848796 |
|     113 | 0xFFFE3310  |  4294849296 |
|     114 | 0xFFFE4986  |  4294855046 |
|     115 | 0x1F40      |        8000 |
|     116 | 0x3E2E      |       15918 |
|     117 | 0x3E2F      |       15919 |
|     118 | 0x3E30      |       15920 |
|     119 | 0x3E43      |       15939 |
|     120 | 0x3E33      |       15923 |
|     121 | 0x3E34      |       15924 |
|     122 | 0x00FA      |         250 |
|     123 | 0x3E31      |       15921 |
|     124 | 0x3E32      |       15922 |
|     125 | 0x3E38      |       15928 |
|     126 | 0x3E35      |       15925 |
|     127 | 0x3E36      |       15926 |
|     128 | 0x3E37      |       15927 |
|     129 | 0xFFFF09E8  |  4294904296 |
|     130 | 0x0BFF      |        3071 |
|     131 | 0xFFFE40BC  |  4294852796 |
|     132 | 0xFFFF1794  |  4294907796 |
|     133 | 0x07E7      |        2023 |
|     134 | 0xFFFE0048  |  4294836296 |
|     135 | 0xFFFF34E0  |  4294915296 |
|     136 | 0xFFFDF29C  |  4294832796 |
|     137 | 0xFFFFFE0C  |  4294966796 |
|     138 | 0xFFFE2370  |  4294845296 |
|     139 | 0xFFFF0DD0  |  4294905296 |
|     140 | 0x02DA      |         730 |
|     141 | 0xFFFF2158  |  4294910296 |
|     142 | 0xFFFE0818  |  4294838296 |
|     143 | 0x01F4      |         500 |
|     144 | 0xFFFE17B8  |  4294842296 |
|     145 | 0xFFFE0FE8  |  4294840296 |
|     146 | 0xFFFE0C00  |  4294839296 |
|     147 | 0x2328      |        9000 |
|     148 | 0xFFFFE890  |  4294961296 |
|     149 | 0x09C4      |        2500 |
|     150 | 0xFFFFD8F0  |  4294957296 |
|     151 | 0x3E39      |       15929 |
|     152 | 0x3E3A      |       15930 |
|     153 | 0x3E3B      |       15931 |
|     154 | 0x3E3C      |       15932 |
|     155 | 0xFFFFF63C  |  4294964796 |
|     156 | 0xFFFFE2B4  |  4294959796 |
|     157 | 0xFFFFF830  |  4294965296 |
|     158 | 0x0088      |         136 |
|     159 | 0x3E3D      |       15933 |
|     160 | 0x3E3E      |       15934 |
|     161 | 0x00FB      |         251 |
|     162 | 0x3E3F      |       15935 |
|     163 | 0x3E41      |       15937 |
|     164 | 0x3E40      |       15936 |

## String References

- **15890**: A fair day to you, kind [sir/madam]! I am [Niscoliette/Prycillia/Chabobo], assistant to Atelloune. I suppose that makes me assistant to the assistant of his eminence, the great Professor Clavauert!
- **15891**: We have made a fascinating discovery--chocobos, just like humans, are capable of falling in love!
- **15892**: And you, my friend, come at the most fortuitous of times. How would you like to help me, erm...spur on the emotions of lovelorn chocobos?
- **15893**: Too hoo hoo, came to lend your aid once more? (More data for my thesis...splendid!)
- **15894**: Up for some chocobo matchmaking? [I'm always up for a new experience!/It'll only "breed" contempt.]
- **15895**: Splendiferous! And just so we're clear, this is all for the benefit of the chocobos. I wouldn't even THINK of using you for my own research gains!
- **15896**: Is that so? I guess winning battles of the flesh doesn't mean you can win battles of the heart. Amateur.
- **15897**: If you change your mind, you know where to find me. (<Sigh> I'll have to actually do my own research for once.)
- **15898**: So, what's the first way into someone's heart? Presents! First, you'll need to search for and "dig up" a tantalizing gift!
- **15899**: You've only got $0 tries. Remember, the more gifts you give to chocobos, the more easily they swoon. Such simple creatures.
- **15900**: Select a [row/column]. (Attempt No. $1) [No. 1./No. 2./No. 3./No. 4./No. 5./Reselect row./Abandon this endeavor.]
- **15901**: Truly let it wither on the vine? [Love. Bah./No! We must cultivate!]
- **15902**: How callous! All I wanted was to bring in dat...I mean bring darling chocobos together as soul mates!
- **15905**: The chocobo has unearthed $2!
- **15906**: $2! Way to show me how it's done! [/What a wonderful gift!/This'll make the best present ever!t]
- **15908**: You didn't find anything.
- **15909**: Why, it's like the locations of these presents change depending on the day! Hmm? "Why do I know these things?" Silly, I'm a scholar!
- **15910**: It's gotta be related to the day of the week. Call it women's intuition!
- **15911**: Oh, come on! Cupid's arrows are supposed to strike true, not go tumbling to the ground!
- **15912**: The chocobo whimpers in despair.
- **15913**: Maybe he'll perk up a bit later? Why don't you give it another go then?
- **15914**: You know what I do when I'm depressed? Eat some sweets. Maybe this poor fella just needs to eat something to cheer him up.
- **15915**: Now that we've got a present, it's time for step two!
- **15916**: Well, well, just what have you brought me? Oh, yes, this will do nicely. Our chocobo friend will be back up and kweh-ing in no time!
- **15917**: The chocobo has a special twinkle in his eye.
- **15918**: Next up: sweet nothings! Can't win the affections of the fairer sex without a silver tongue!
- **15919**: Though they may not be able to comprehend your words, the language of love is universal!
- **15920**: You've got a total of $0 chances. Think of it like speed dating! The glibber your jibe, the more they swoon!
- **15921**: The chocobo is completely smitten!
- **15922**: Absolutely perfect! You're no stranger to love, that's for sure!
- **15923**: What's this? No sweet nothings? Yes, yes, I know that true love needs no words, but when a romance is still budding, you've got to give it your all! Or...would you rather call it quits?
- **15924**: Most wondrous! Now that report of mine will be...<cough> Excuse me. What? Why are you looking at me like that? Quick, out with the magical phrase!
- **15925**: The chocobo blinks and cocks his head to one side.
- **15926**: Hmm... Maybe if you didn't beat around the bush? Try telling it like it is.
- **15927**: Maybe these baby chocobos can provide some kind of hint?
- **15928**: Now that you've found just the right words, it's time to take things to the next level!
- **15929**: According to my volumes of data, it seems [you two have a chilly relationship, but don't give up yet!/you're on the cusp of winning its heart./you two are on fire! You might as well get hitched!]
- **15930**: Speed! Luck! Come on, [hon/sweetie], love isn't a battlefield, it's a race!
- **15931**: Which route to pursue? [Route 1. [(Taken by rival.)//]/Route 2. [/(Taken by rival.)/]/Route 3. [//(Taken by rival.)]/Cast your fate to Lady Luck!/Give up...at this late stage.]
- **15932**: Route $0 has already been selected by your rival.
- **15933**: Let's get this party started!
- **15934**: Aw, you poor thing, looks like you chose the wrong path to love.
- **15935**: W-wow! What a turn of events! Love knows no bounds, as the saying goes! Just wait until the profess... I mean, uh, good going!
- **15936**: After all that hard work you did with your lovely present and those three magic words... Maybe love is all about luck and timing after all.
- **15937**: Well done! My little cupid has veritable wings sprouting from [his/her] back! The more love, the more data...dates! Dates they will go on!
- **15938**: With all you've done for me...err, the chocobos, it's only fair that I give you a little something in return. A token of my appreciation, if you will. Of course, you're welcome to come back any time!
- **15939**: STEP2_DEBUGF%0.

## Events

### Event 65535

#### Metadata

| Field        | Value   |
|--------------|---------|
| Entrypoint   | 0x0000  |
| Data Size    | 1 bytes |
| Instructions | 1       |

```
      00 01 02 03 04 05 06 07  08 09 0A 0B 0C 0D 0E 0F
      -- -- -- -- -- -- -- --  -- -- -- -- -- -- -- --
0000: 00                                                .               
```

#### Opcodes

```
  0: 0x0000 [0x00] END_REQSTACK()
```

### Event 599

#### Metadata

| Field        | Value     |
|--------------|-----------|
| Entrypoint   | 0x0001    |
| Data Size    | 564 bytes |
| Instructions | 89        |

```
      00 01 02 03 04 05 06 07  08 09 0A 0B 0C 0D 0E 0F
      -- -- -- -- -- -- -- --  -- -- -- -- -- -- -- --
0000:    03 03 10 00 80 06 01  10 02 08 10 00 80 00 39   ..............9
0010: 00 42 45 01 80 F8 FF FF  7F F8 FF FF 7F 66 64 6F  .BE..........fdo
0020: 31 02 80 55 01 80 F8 FF  FF 7F F8 FF FF 7F 66 64  1..U..........fd
0030: 6F 31 03 01 10 03 80 30  21 3E 02 10 00 80 8D 00  o1.....0!>......
0040: 42 1E F0 FF FF 7F 1C 04  80 66 05 80 F8 FF FF 7F  B........f......
0050: F8 FF FF 7F 74 6C 6B 30  1D 06 80 23 66 05 80 F8  ....tlk0...#f...
0060: FF FF 7F F8 FF FF 7F 74  6C 6B 31 66 07 80 F8 FF  .......tlk1f....
0070: FF 7F F8 FF FF 7F 70 61  73 30 53 F8 FF FF 7F F8  ......pas0S.....
0080: FF FF 7F 70 61 73 30 03  01 10 08 80 21 3E 02 10  ...pas0.....!>..
0090: 08 80 E1 00 1E F0 FF FF  7F 1C 04 80 66 05 80 F8  ............f...
00A0: FF FF 7F F8 FF FF 7F 74  6C 6B 30 1D 09 80 23 66  .......tlk0...#f
00B0: 05 80 F8 FF FF 7F F8 FF  FF 7F 74 6C 6B 31 66 05  ..........tlk1f.
00C0: 80 F8 FF FF 7F F8 FF FF  7F 74 68 6B 31 1D 0A 80  .........thk1...
00D0: 23 66 05 80 F8 FF FF 7F  F8 FF FF 7F 74 68 6B 32  #f..........thk2
00E0: 21 3E 02 10 0B 80 41 01  42 1E F0 FF FF 7F 1C 04  !>....A.B.......
00F0: 80 66 05 80 F8 FF FF 7F  F8 FF FF 7F 74 6C 6B 30  .f..........tlk0
0100: 1D 0C 80 23 66 05 80 F8  FF FF 7F F8 FF FF 7F 74  ...#f..........t
0110: 6C 6B 31 1C 0D 80 45 01  80 F8 FF FF 7F F8 FF FF  lk1...E.........
0120: 7F 66 64 6F 31 02 80 55  01 80 F8 FF FF 7F F8 FF  .fdo1..U........
0130: FF 7F 66 64 6F 31 03 01  10 0B 80 30 69 01 0E 80  ..fdo1.....0i...
0140: 21 1E F0 FF FF 7F 1C 04  80 66 05 80 F8 FF FF 7F  !........f......
0150: F8 FF FF 7F 74 6C 6B 30  3E 02 10 02 80 66 01 1D  ....tlk0>....f..
0160: 0F 80 23 01 72 01 1D 10  80 23 1D 11 80 23 1D 12  ..#.r....#...#..
0170: 80 23 66 05 80 F8 FF FF  7F F8 FF FF 7F 74 6C 6B  .#f..........tlk
0180: 31 24 13 80 02 80 02 80  25 02 00 10 02 80 00 E4  1$......%.......
0190: 01 42 66 05 80 F8 FF FF  7F F8 FF FF 7F 74 6C 6B  .Bf..........tlk
01A0: 30 1D 14 80 23 66 05 80  F8 FF FF 7F F8 FF FF 7F  0...#f..........
01B0: 74 6C 6B 31 1C 0D 80 45  01 80 F8 FF FF 7F F8 FF  tlk1...E........
01C0: FF 7F 66 64 6F 31 02 80  55 01 80 F8 FF FF 7F F8  ..fdo1..U.......
01D0: FF FF 7F 66 64 6F 31 03  01 10 00 80 69 01 0E 80  ...fdo1.....i...
01E0: 30 01 33 02 02 00 10 00  80 00 33 02 66 05 80 F8  0.3.......3.f...
01F0: FF FF 7F F8 FF FF 7F 74  68 6B 31 1D 15 80 23 66  .......thk1...#f
0200: 05 80 F8 FF FF 7F F8 FF  FF 7F 74 68 6B 32 66 05  ..........thk2f.
0210: 80 F8 FF FF 7F F8 FF FF  7F 74 6C 6B 30 1D 16 80  .........tlk0...
0220: 23 66 05 80 F8 FF FF 7F  F8 FF FF 7F 74 6C 6B 31  #f..........tlk1
0230: 01 33 02 21 00                                    .3.!.           
```

#### Opcodes

```
  0: 0x0001 [0x03] Work_Zone[3] = 1*
  1: 0x0006 [0x06] Work_Zone[1] = 0
  2: 0x0009 [0x02] IF !(Work_Zone[8] == 1*) GOTO 0x0039
  3: 0x0011 [0x42] SET_CLI_EVENT_CANCEL_DATA()
  4: 0x0012 [0x45] LOAD_SCHEDULED_TASK: Load scheduler "fdo1" with entities [EventEntity, EventEntity], work=[200*, 0*]
  5: 0x0023 [0x55] WAIT_LOAD_SCHEDULER: Wait for scheduler "fdo1" with entities [EventEntity, EventEntity], work=200*
  6: 0x0032 [0x03] Work_Zone[1] = 4*
  7: 0x0037 [0x30] SET_UCOFF_CONTINUE_ZERO()
  8: 0x0038 [0x21] END_EVENT
  9: 0x0039 [0x3E] IF !(Work_Zone[2] bit 1*) GOTO 0x008D
 10: 0x0040 [0x42] SET_CLI_EVENT_CANCEL_DATA()
 11: 0x0041 [0x1E] EventEntity looks at LocalPlayer and starts talking
 12: 0x0046 [0x1C] WAIT(30* ticks)
 13: 0x0049 [0x66] LOAD_EXT_SCHEDULER_MAIN: Load scheduler "tlk0" with entities [EventEntity, EventEntity], work=19*
 14: 0x0058 [0x1D] PRINT_EVENT_MESSAGE(message_id=15938*)
    → "With all you've done for me...err, the chocobos, it's only fair that I give you a little something in return. A token of my appreciation, if you will. Of course, you're welcome to come back any time!"
 15: 0x005B [0x23] WAIT_FOR_DIALOG_INTERACTION
 16: 0x005C [0x66] LOAD_EXT_SCHEDULER_MAIN: Load scheduler "tlk1" with entities [EventEntity, EventEntity], work=19*
 17: 0x006B [0x66] LOAD_EXT_SCHEDULER_MAIN: Load scheduler "pas0" with entities [EventEntity, EventEntity], work=10*
 18: 0x007A [0x53] WAIT_SCHEDULER_TASK: Wait for scheduler "pas0" with entities [EventEntity, EventEntity]
 19: 0x0087 [0x03] Work_Zone[1] = 2*
 20: 0x008C [0x21] END_EVENT
 21: 0x008D [0x3E] IF !(Work_Zone[2] bit 2*) GOTO 0x00E1
 22: 0x0094 [0x1E] EventEntity looks at LocalPlayer and starts talking
 23: 0x0099 [0x1C] WAIT(30* ticks)
 24: 0x009C [0x66] LOAD_EXT_SCHEDULER_MAIN: Load scheduler "tlk0" with entities [EventEntity, EventEntity], work=19*
 25: 0x00AB [0x1D] PRINT_EVENT_MESSAGE(message_id=15913*)
    → "Maybe he'll perk up a bit later? Why don't you give it another go then?"
 26: 0x00AE [0x23] WAIT_FOR_DIALOG_INTERACTION
 27: 0x00AF [0x66] LOAD_EXT_SCHEDULER_MAIN: Load scheduler "tlk1" with entities [EventEntity, EventEntity], work=19*
 28: 0x00BE [0x66] LOAD_EXT_SCHEDULER_MAIN: Load scheduler "thk1" with entities [EventEntity, EventEntity], work=19*
 29: 0x00CD [0x1D] PRINT_EVENT_MESSAGE(message_id=15914*)
    → "You know what I do when I'm depressed? Eat some sweets. Maybe this poor fella just needs to eat something to cheer him up."
 30: 0x00D0 [0x23] WAIT_FOR_DIALOG_INTERACTION
 31: 0x00D1 [0x66] LOAD_EXT_SCHEDULER_MAIN: Load scheduler "thk2" with entities [EventEntity, EventEntity], work=19*
 32: 0x00E0 [0x21] END_EVENT
 33: 0x00E1 [0x3E] IF !(Work_Zone[2] bit 3*) GOTO 0x0141
 34: 0x00E8 [0x42] SET_CLI_EVENT_CANCEL_DATA()
 35: 0x00E9 [0x1E] EventEntity looks at LocalPlayer and starts talking
 36: 0x00EE [0x1C] WAIT(30* ticks)
 37: 0x00F1 [0x66] LOAD_EXT_SCHEDULER_MAIN: Load scheduler "tlk0" with entities [EventEntity, EventEntity], work=19*
 38: 0x0100 [0x1D] PRINT_EVENT_MESSAGE(message_id=15916*)
    → "Well, well, just what have you brought me? Oh, yes, this will do nicely. Our chocobo friend will be back up and kweh-ing in no time!"
 39: 0x0103 [0x23] WAIT_FOR_DIALOG_INTERACTION
 40: 0x0104 [0x66] LOAD_EXT_SCHEDULER_MAIN: Load scheduler "tlk1" with entities [EventEntity, EventEntity], work=19*
 41: 0x0113 [0x1C] WAIT(60* ticks)
 42: 0x0116 [0x45] LOAD_SCHEDULED_TASK: Load scheduler "fdo1" with entities [EventEntity, EventEntity], work=[200*, 0*]
 43: 0x0127 [0x55] WAIT_LOAD_SCHEDULER: Wait for scheduler "fdo1" with entities [EventEntity, EventEntity], work=200*
 44: 0x0136 [0x03] Work_Zone[1] = 3*
 45: 0x013B [0x30] SET_UCOFF_CONTINUE_ZERO()
 46: 0x013C [0x69] SET_SOUND_VOLUME: Mute System/Zone/Master
 47: 0x0140 [0x21] END_EVENT
 48: 0x0141 [0x1E] EventEntity looks at LocalPlayer and starts talking
 49: 0x0146 [0x1C] WAIT(30* ticks)
 50: 0x0149 [0x66] LOAD_EXT_SCHEDULER_MAIN: Load scheduler "tlk0" with entities [EventEntity, EventEntity], work=19*
 51: 0x0158 [0x3E] IF !(Work_Zone[2] bit 0*) GOTO 0x0166
 52: 0x015F [0x1D] PRINT_EVENT_MESSAGE(message_id=15893*)
    → "Too hoo hoo, came to lend your aid once more? (More data for my thesis...splendid!)"
 53: 0x0162 [0x23] WAIT_FOR_DIALOG_INTERACTION
 54: 0x0163 [0x01] GOTO 0x0172
 55: 0x0166 [0x1D] PRINT_EVENT_MESSAGE(message_id=15890*)
    → "A fair day to you, kind [sir/madam]! I am [Niscoliette/Prycillia/Chabobo], assistant to Atelloune. I suppose that makes me assistant to the assistant of his eminence, the great Professor Clavauert!"
 56: 0x0169 [0x23] WAIT_FOR_DIALOG_INTERACTION
 57: 0x016A [0x1D] PRINT_EVENT_MESSAGE(message_id=15891*)
    → "We have made a fascinating discovery--chocobos, just like humans, are capable of falling in love!"
 58: 0x016D [0x23] WAIT_FOR_DIALOG_INTERACTION
 59: 0x016E [0x1D] PRINT_EVENT_MESSAGE(message_id=15892*)
    → "And you, my friend, come at the most fortuitous of times. How would you like to help me, erm...spur on the emotions of lovelorn chocobos?"
 60: 0x0171 [0x23] WAIT_FOR_DIALOG_INTERACTION

SUBROUTINE_0172:
 61: 0x0172 [0x66] LOAD_EXT_SCHEDULER_MAIN: Load scheduler "tlk1" with entities [EventEntity, EventEntity], work=19*
 62: 0x0181 [0x24] CREATE_DIALOG(message_id=15894*, default_option=0*, option_flags=0*)
    → "Up for some chocobo matchmaking? [I'm always up for a new experience!/It'll only "breed" contempt.]"
 63: 0x0188 [0x25] WAIT_DIALOG_SELECT()
 64: 0x0189 [0x02] IF !(Work_Zone[0] == 0*) GOTO 0x01E4
 65: 0x0191 [0x42] SET_CLI_EVENT_CANCEL_DATA()
 66: 0x0192 [0x66] LOAD_EXT_SCHEDULER_MAIN: Load scheduler "tlk0" with entities [EventEntity, EventEntity], work=19*
 67: 0x01A1 [0x1D] PRINT_EVENT_MESSAGE(message_id=15895*)
    → "Splendiferous! And just so we're clear, this is all for the benefit of the chocobos. I wouldn't even THINK of using you for my own research gains!"
 68: 0x01A4 [0x23] WAIT_FOR_DIALOG_INTERACTION
 69: 0x01A5 [0x66] LOAD_EXT_SCHEDULER_MAIN: Load scheduler "tlk1" with entities [EventEntity, EventEntity], work=19*
 70: 0x01B4 [0x1C] WAIT(60* ticks)
 71: 0x01B7 [0x45] LOAD_SCHEDULED_TASK: Load scheduler "fdo1" with entities [EventEntity, EventEntity], work=[200*, 0*]
 72: 0x01C8 [0x55] WAIT_LOAD_SCHEDULER: Wait for scheduler "fdo1" with entities [EventEntity, EventEntity], work=200*
 73: 0x01D7 [0x03] Work_Zone[1] = 1*
 74: 0x01DC [0x69] SET_SOUND_VOLUME: Mute System/Zone/Master
 75: 0x01E0 [0x30] SET_UCOFF_CONTINUE_ZERO()
 76: 0x01E1 [0x01] GOTO 0x0233
 77: 0x01E4 [0x02] IF !(Work_Zone[0] == 1*) GOTO 0x0233
 78: 0x01EC [0x66] LOAD_EXT_SCHEDULER_MAIN: Load scheduler "thk1" with entities [EventEntity, EventEntity], work=19*
 79: 0x01FB [0x1D] PRINT_EVENT_MESSAGE(message_id=15896*)
    → "Is that so? I guess winning battles of the flesh doesn't mean you can win battles of the heart. Amateur."
 80: 0x01FE [0x23] WAIT_FOR_DIALOG_INTERACTION
 81: 0x01FF [0x66] LOAD_EXT_SCHEDULER_MAIN: Load scheduler "thk2" with entities [EventEntity, EventEntity], work=19*
 82: 0x020E [0x66] LOAD_EXT_SCHEDULER_MAIN: Load scheduler "tlk0" with entities [EventEntity, EventEntity], work=19*
 83: 0x021D [0x1D] PRINT_EVENT_MESSAGE(message_id=15897*)
    → "If you change your mind, you know where to find me. (<Sigh> I'll have to actually do my own research for once.)"
 84: 0x0220 [0x23] WAIT_FOR_DIALOG_INTERACTION
 85: 0x0221 [0x66] LOAD_EXT_SCHEDULER_MAIN: Load scheduler "tlk1" with entities [EventEntity, EventEntity], work=19*
 86: 0x0230 [0x01] GOTO 0x0233

SUBROUTINE_0233:
 87: 0x0233 [0x21] END_EVENT
 88: 0x0234 [0x00] END_REQSTACK()
```

### Event 600

#### Metadata

| Field        | Value      |
|--------------|------------|
| Entrypoint   | 0x0235     |
| Data Size    | 3531 bytes |
| Instructions | 510        |

```
      00 01 02 03 04 05 06 07  08 09 0A 0B 0C 0D 0E 0F
      -- -- -- -- -- -- -- --  -- -- -- -- -- -- -- --
0230:                42 69 00  0E 80 03 12 00 08 10 03       Bi.........
0240: 0E 00 80 7F 03 0F 00 82  7F 03 10 00 81 7F 03 11  ................
0250: 00 83 7F 06 01 10 92 01  F8 FF FF 7F 46 01 38 17  ............F.8.
0260: 80 77 18 80 02 80 37 19  80 1A 80 02 80 1B 80 1E  .w....7.........
0270: F8 FF FF 7F 2F 00 C9 A0  0E 01 4E 00 C9 A0 0E 01  ..../.....N.....
0280: 28 80 C9 A0 0E 01 04 BA  C9 A0 0E 01 1C 80 1D 80  (...............
0290: 02 80 1E 80 2F 00 CE A0  0E 01 4E 00 CE A0 0E 01  ..../.....N.....
02A0: 2F 00 CF A0 0E 01 4E 00  CF A0 0E 01 2F 00 D0 A0  /.....N...../...
02B0: 0E 01 4E 00 D0 A0 0E 01  2F 00 D1 A0 0E 01 4E 00  ..N...../.....N.
02C0: D1 A0 0E 01 2F 00 D2 A0  0E 01 4E 00 D2 A0 0E 01  ..../.....N.....
02D0: 2F 00 D3 A0 0E 01 4E 00  D3 A0 0E 01 2F 00 D4 A0  /.....N...../...
02E0: 0E 01 4E 00 D4 A0 0E 01  2F 00 D5 A0 0E 01 4E 00  ..N...../.....N.
02F0: D5 A0 0E 01 2F 00 D6 A0  0E 01 4E 00 D6 A0 0E 01  ..../.....N.....
0300: 2F 00 D7 A0 0E 01 4E 00  D7 A0 0E 01 2F 00 D8 A0  /.....N...../...
0310: 0E 01 4E 00 D8 A0 0E 01  2F 00 D9 A0 0E 01 4E 00  ..N...../.....N.
0320: D9 A0 0E 01 2F 00 DA A0  0E 01 4E 00 DA A0 0E 01  ..../.....N.....
0330: 2F 00 DB A0 0E 01 4E 00  DB A0 0E 01 2F 00 DC A0  /.....N...../...
0340: 0E 01 4E 00 DC A0 0E 01  2F 00 DD A0 0E 01 4E 00  ..N...../.....N.
0350: DD A0 0E 01 2F 00 DE A0  0E 01 4E 00 DE A0 0E 01  ..../.....N.....
0360: 2F 00 DF A0 0E 01 4E 00  DF A0 0E 01 2F 00 E0 A0  /.....N...../...
0370: 0E 01 4E 00 E0 A0 0E 01  2F 00 E1 A0 0E 01 4E 00  ..N...../.....N.
0380: E1 A0 0E 01 2F 00 E2 A0  0E 01 4E 00 E2 A0 0E 01  ..../.....N.....
0390: 2F 00 E3 A0 0E 01 4E 00  E3 A0 0E 01 2F 00 E4 A0  /.....N...../...
03A0: 0E 01 4E 00 E4 A0 0E 01  2F 00 E5 A0 0E 01 4E 00  ..N...../.....N.
03B0: E5 A0 0E 01 2F 00 E6 A0  0E 01 4E 00 E6 A0 0E 01  ..../.....N.....
03C0: 29 80 CE A0 0E 01 04 29  80 CF A0 0E 01 04 29 80  )......)......).
03D0: D0 A0 0E 01 04 29 80 D1  A0 0E 01 04 29 80 D2 A0  .....)......)...
03E0: 0E 01 04 29 80 D3 A0 0E  01 04 BA F0 FF FF 7F 19  ...)............
03F0: 80 1F 80 02 80 1B 80 45  20 80 F8 FF FF 7F F8 FF  .......E .......
0400: FF 7F 73 30 30 39 02 80  1C 04 80 02 12 00 00 80  ..s009..........
0410: 00 16 04 01 1F 04 5C 00  21 80 5C 01 21 80 9A 45  ......\.!.\.!..E
0420: 01 80 F8 FF FF 7F F8 FF  FF 7F 66 64 69 31 02 80  ..........fdi1..
0430: 55 01 80 F8 FF FF 7F F8  FF FF 7F 66 64 69 30 1C  U..........fdi0.
0440: 0D 80 06 05 00 03 06 00  19 80 03 09 00 1B 80 07  ................
0450: 06 00 22 80 1F 00 06 00  1A 80 02 80 1F 01 39 09  .."...........9.
0460: 00 03 00 17 19 80 07 00  17 22 80 03 01 17 1F 80  ........."......
0470: 03 02 17 02 80 03 03 17  1B 80 28 80 F0 FF FF 7F  ..........(.....
0480: 7C 03 0A 00 1C 80 07 0A  00 23 80 03 00 17 0A 00  |........#......
0490: 03 01 17 1D 80 03 02 17  02 80 29 80 C9 A0 0E 01  ..........).....
04A0: 05 1C 0D 80 3E 02 10 0B  80 C8 04 AD 00 24 80 F8  ....>........$..
04B0: FF FF 7F C9 A0 0E 01 1C  25 80 28 80 C9 A0 0E 01  ........%.(.....
04C0: 07 48 26 80 23 01 CF 04  28 80 C9 A0 0E 01 07 1C  .H&.#...(.......
04D0: 27 80 07 09 00 28 80 39  09 00 6F 70 66 05 80 F8  '....(.9..opf...
04E0: FF FF 7F F8 FF FF 7F 74  6C 6B 30 1D 29 80 23 03  .......tlk0.).#.
04F0: 02 10 0B 80 1D 2A 80 23  66 05 80 F8 FF FF 7F F8  .....*.#f.......
0500: FF FF 7F 74 6C 6B 31 03  03 10 02 80 06 03 00 06  ...tlk1.........
0510: 04 00 03 03 17 0D 00 1C  04 80 03 02 00 2B 80 03  .............+..
0520: 02 10 02 80 0B 03 10 24  2C 80 02 80 02 00 25 02  .......$,.....%.
0530: 00 10 02 80 00 3F 05 03  03 00 02 80 01 58 06 02  .....?.......X..
0540: 00 10 00 80 00 4F 05 03  03 00 00 80 01 58 06 02  .....O.......X..
0550: 00 10 08 80 00 5F 05 03  03 00 08 80 01 58 06 02  ....._.......X..
0560: 00 10 0B 80 00 6F 05 03  03 00 0B 80 01 58 06 02  .....o.......X..
0570: 00 10 03 80 00 7F 05 03  03 00 03 80 01 58 06 02  .............X..
0580: 00 10 2D 80 00 8A 05 01  58 06 02 00 10 2E 80 00  ..-.....X.......
0590: 58 06 24 2F 80 00 80 02  80 25 02 00 10 02 80 00  X.$/.....%......
05A0: 44 06 66 07 80 F8 FF FF  7F F8 FF FF 7F 64 69 73  D.f..........dis
05B0: 30 1D 30 80 23 45 01 80  F8 FF FF 7F F8 FF FF 7F  0.0.#E..........
05C0: 66 64 6F 31 02 80 55 01  80 F8 FF FF 7F F8 FF FF  fdo1..U.........
05D0: 7F 66 64 6F 31 BA F0 FF  FF 7F 0E 00 0F 00 10 00  .fdo1...........
05E0: 11 00 5C 00 31 80 5C 01  31 80 52 20 80 F8 FF FF  ..\.1.\.1.R ....
05F0: 7F F8 FF FF 7F 73 30 30  39 37 32 80 33 80 02 80  .....s00972.3...
0600: 34 80 1E F0 FF FF 7F 6F  70 78 38 02 80 46 00 45  4......opx8..F.E
0610: 01 80 F8 FF FF 7F F8 FF  FF 7F 66 64 69 31 02 80  ..........fdi1..
0620: 55 01 80 F8 FF FF 7F F8  FF FF 7F 66 64 69 30 1C  U..........fdi0.
0630: 0D 80 02 12 00 00 80 00  3B 06 21 03 01 10 0B 80  ........;.!.....
0640: 21 01 55 06 02 00 10 00  80 00 55 06 0C 03 10 01  !.U.......U.....
0650: 17 05 01 55 06 01 58 06  1C 04 80 03 00 00 03 00  ...U..X.........
0660: 14 00 00 2D 80 07 00 00  04 00 1A 0B 0E 6F 76 F0  ...-.........ov.
0670: FF FF 7F 6E F0 FF FF 7F  02 80 99 F0 FF FF 7F 59  ...n...........Y
0680: 06 F0 FF FF 7F 1C 25 80  03 0B 00 1D 80 03 00 00  ......%.........
0690: 1A 80 14 00 00 03 00 07  0B 00 00 00 03 00 17 0A  ................
06A0: 00 03 01 17 0B 00 29 80  C9 A0 0E 01 05 29 80 C9  ......)......)..
06B0: A0 0E 01 06 1C 0D 80 03  02 00 02 80 03 02 10 00  ................
06C0: 80 24 2C 80 02 80 02 00  25 02 00 10 02 80 00 D9  .$,.....%.......
06D0: 06 03 04 00 02 80 01 FA  07 02 00 10 00 80 00 E9  ................
06E0: 06 03 04 00 00 80 01 FA  07 02 00 10 08 80 00 F9  ................
06F0: 06 03 04 00 08 80 01 FA  07 02 00 10 0B 80 00 09  ................
0700: 07 03 04 00 0B 80 01 FA  07 02 00 10 03 80 00 19  ................
0710: 07 03 04 00 03 80 01 FA  07 02 00 10 2D 80 00 2F  ............-../
0720: 07 03 03 00 02 80 0C 03  10 01 17 05 01 FA 07 02  ................
0730: 00 10 2E 80 00 FA 07 24  2F 80 00 80 02 80 25 02  .......$/.....%.
0740: 00 10 02 80 00 E9 07 66  07 80 F8 FF FF 7F F8 FF  .......f........
0750: FF 7F 64 69 73 30 1D 30  80 23 45 01 80 F8 FF FF  ..dis0.0.#E.....
0760: 7F F8 FF FF 7F 66 64 6F  31 02 80 55 01 80 F8 FF  .....fdo1..U....
0770: FF 7F F8 FF FF 7F 66 64  6F 31 BA F0 FF FF 7F 0E  ......fdo1......
0780: 00 0F 00 10 00 11 00 5C  00 31 80 5C 01 31 80 52  .......\.1.\.1.R
0790: 20 80 F8 FF FF 7F F8 FF  FF 7F 73 30 30 39 37 32   .........s00972
07A0: 80 33 80 02 80 34 80 1E  F0 FF FF 7F 6F 70 78 38  .3...4......opx8
07B0: 02 80 46 00 45 01 80 F8  FF FF 7F F8 FF FF 7F 66  ..F.E..........f
07C0: 64 69 31 02 80 55 01 80  F8 FF FF 7F F8 FF FF 7F  di1..U..........
07D0: 66 64 69 30 1C 0D 80 02  12 00 00 80 00 E0 07 21  fdi0...........!
07E0: 03 01 10 0B 80 21 01 F7  07 02 00 10 00 80 00 F7  .....!..........
07F0: 07 01 B7 06 01 F7 07 01  FA 07 40 02 80 0B 80 01  ..........@.....
0800: 10 02 80 03 00 00 03 00  14 00 00 2D 80 07 00 00  ...........-....
0810: 04 00 40 03 80 35 80 01  10 00 00 1A 0B 0E 6F 76  ..@..5........ov
0820: F0 FF FF 7F 6E F0 FF FF  7F 36 80 99 F0 FF FF 7F  ....n....6......
0830: 59 06 F0 FF FF 7F 1C 25  80 03 0A 00 1C 80 07 0A  Y......%........
0840: 00 23 80 03 00 00 37 80  14 00 00 04 00 07 0A 00  .#....7.........
0850: 00 00 03 00 17 0A 00 29  80 C9 A0 0E 01 05 29 80  .......)......).
0860: C9 A0 0E 01 06 1C 0D 80  5B 38 80 C9 A0 0E 01 C9  ........[8......
0870: A0 0E 01 74 6F 6E 30 53  C9 A0 0E 01 C9 A0 0E 01  ...ton0S........
0880: 74 6F 6E 30 5B 38 80 C9  A0 0E 01 C9 A0 0E 01 74  ton0[8.........t
0890: 6F 6E 31 1C 0D 80 41 03  80 35 80 01 10 00 00 02  on1...A..5......
08A0: 00 00 02 80 80 B7 08 2C  CE A0 0E 01 CE A0 0E 01  .......,........
08B0: 6B 65 73 75 01 F7 0A 02  00 00 00 80 80 CF 08 2C  kesu...........,
08C0: CF A0 0E 01 CF A0 0E 01  6B 65 73 75 01 F7 0A 02  ........kesu....
08D0: 00 00 08 80 80 E7 08 2C  D0 A0 0E 01 D0 A0 0E 01  .......,........
08E0: 6B 65 73 75 01 F7 0A 02  00 00 0B 80 80 FF 08 2C  kesu...........,
08F0: D1 A0 0E 01 D1 A0 0E 01  6B 65 73 75 01 F7 0A 02  ........kesu....
0900: 00 00 03 80 80 17 09 2C  D2 A0 0E 01 D2 A0 0E 01  .......,........
0910: 6B 65 73 75 01 F7 0A 02  00 00 2D 80 80 2F 09 2C  kesu......-../.,
0920: D3 A0 0E 01 D3 A0 0E 01  6B 65 73 75 01 F7 0A 02  ........kesu....
0930: 00 00 2E 80 80 47 09 2C  D4 A0 0E 01 D4 A0 0E 01  .....G.,........
0940: 6B 65 73 75 01 F7 0A 02  00 00 39 80 80 5F 09 2C  kesu......9.._.,
0950: D5 A0 0E 01 D5 A0 0E 01  6B 65 73 75 01 F7 0A 02  ........kesu....
0960: 00 00 35 80 80 77 09 2C  D6 A0 0E 01 D6 A0 0E 01  ..5..w.,........
0970: 6B 65 73 75 01 F7 0A 02  00 00 3A 80 80 8F 09 2C  kesu......:....,
0980: D7 A0 0E 01 D7 A0 0E 01  6B 65 73 75 01 F7 0A 02  ........kesu....
0990: 00 00 07 80 80 A7 09 2C  D8 A0 0E 01 D8 A0 0E 01  .......,........
09A0: 6B 65 73 75 01 F7 0A 02  00 00 3B 80 80 BF 09 2C  kesu......;....,
09B0: D9 A0 0E 01 D9 A0 0E 01  6B 65 73 75 01 F7 0A 02  ........kesu....
09C0: 00 00 3C 80 80 D7 09 2C  DA A0 0E 01 DA A0 0E 01  ..<....,........
09D0: 6B 65 73 75 01 F7 0A 02  00 00 3D 80 80 EF 09 2C  kesu......=....,
09E0: DB A0 0E 01 DB A0 0E 01  6B 65 73 75 01 F7 0A 02  ........kesu....
09F0: 00 00 3E 80 80 07 0A 2C  DC A0 0E 01 DC A0 0E 01  ..>....,........
0A00: 6B 65 73 75 01 F7 0A 02  00 00 18 80 80 1F 0A 2C  kesu...........,
0A10: DD A0 0E 01 DD A0 0E 01  6B 65 73 75 01 F7 0A 02  ........kesu....
0A20: 00 00 36 80 80 37 0A 2C  DE A0 0E 01 DE A0 0E 01  ..6..7.,........
0A30: 6B 65 73 75 01 F7 0A 02  00 00 3F 80 80 4F 0A 2C  kesu......?..O.,
0A40: DF A0 0E 01 DF A0 0E 01  6B 65 73 75 01 F7 0A 02  ........kesu....
0A50: 00 00 40 80 80 67 0A 2C  E0 A0 0E 01 E0 A0 0E 01  ..@..g.,........
0A60: 6B 65 73 75 01 F7 0A 02  00 00 05 80 80 7F 0A 2C  kesu...........,
0A70: E1 A0 0E 01 E1 A0 0E 01  6B 65 73 75 01 F7 0A 02  ........kesu....
0A80: 00 00 41 80 80 97 0A 2C  E2 A0 0E 01 E2 A0 0E 01  ..A....,........
0A90: 6B 65 73 75 01 F7 0A 02  00 00 42 80 80 AF 0A 2C  kesu......B....,
0AA0: E3 A0 0E 01 E3 A0 0E 01  6B 65 73 75 01 F7 0A 02  ........kesu....
0AB0: 00 00 43 80 80 C7 0A 2C  E4 A0 0E 01 E4 A0 0E 01  ..C....,........
0AC0: 6B 65 73 75 01 F7 0A 02  00 00 44 80 80 DF 0A 2C  kesu......D....,
0AD0: E5 A0 0E 01 E5 A0 0E 01  6B 65 73 75 01 F7 0A 02  ........kesu....
0AE0: 00 00 45 80 80 F7 0A 2C  E6 A0 0E 01 E6 A0 0E 01  ..E....,........
0AF0: 6B 65 73 75 01 F7 0A 43  00 43 01 02 02 10 02 80  kesu...C.C......
0B00: 80 F6 0B 0B 05 00 2B C9  A0 0E 01 46 80 23 48 47  ......+....F.#HG
0B10: 80 23 1C 0D 80 02 05 00  00 80 80 42 0B 66 05 80  .#.........B.f..
0B20: F8 FF FF 7F F8 FF FF 7F  74 68 6B 31 1D 48 80 23  ........thk1.H.#
0B30: 66 05 80 F8 FF FF 7F F8  FF FF 7F 74 68 6B 32 01  f..........thk2.
0B40: F3 0B 02 05 00 08 80 80  6F 0B 66 05 80 F8 FF FF  ........o.f.....
0B50: 7F F8 FF FF 7F 74 68 6B  31 1D 49 80 23 66 05 80  .....thk1.I.#f..
0B60: F8 FF FF 7F F8 FF FF 7F  74 68 6B 32 01 F3 0B 02  ........thk2....
0B70: 05 00 0B 80 80 F3 0B 66  07 80 F8 FF FF 7F F8 FF  .......f........
0B80: FF 7F 64 69 73 30 1D 4A  80 23 6E F0 FF FF 7F 05  ..dis0.J.#n.....
0B90: 80 99 F0 FF FF 7F 99 F0  FF FF 7F 28 80 C9 A0 0E  ...........(....
0BA0: 01 09 48 4B 80 23 1C 0D  80 66 05 80 F8 FF FF 7F  ..HK.#...f......
0BB0: F8 FF FF 7F 74 6C 6B 30  1D 09 80 23 66 05 80 F8  ....tlk0...#f...
0BC0: FF FF 7F F8 FF FF 7F 74  6C 6B 31 66 05 80 F8 FF  .......tlk1f....
0BD0: FF 7F F8 FF FF 7F 74 68  6B 31 1D 0A 80 23 66 05  ......thk1...#f.
0BE0: 80 F8 FF FF 7F F8 FF FF  7F 74 68 6B 32 1C 0D 80  .........thk2...
0BF0: 01 F3 0B 01 F4 0C 02 02  10 00 80 80 7D 0C 28 80  ............}.(.
0C00: C9 A0 0E 01 07 2B C9 A0  0E 01 4C 80 23 1C 0D 80  .....+....L.#...
0C10: 13 00 00 08 80 02 00 00  02 80 80 25 0C 03 04 10  ...........%....
0C20: 4D 80 01 45 0C 02 00 00  00 80 80 35 0C 03 04 10  M..E.......5....
0C30: 4E 80 01 45 0C 02 00 00  08 80 80 45 0C 03 04 10  N..E.......E....
0C40: 4F 80 01 45 0C 48 50 80  23 6E F8 FF FF 7F 3D 80  O..E.HP.#n....=.
0C50: 99 F8 FF FF 7F 1C 25 80  66 05 80 F8 FF FF 7F F8  ......%.f.......
0C60: FF FF 7F 74 6C 6B 30 1D  51 80 23 66 05 80 F8 FF  ...tlk0.Q.#f....
0C70: FF 7F F8 FF FF 7F 74 6C  6B 31 01 F4 0C 02 02 10  ......tlk1......
0C80: 08 80 80 F4 0C 28 80 C9  A0 0E 01 07 2B C9 A0 0E  .....(......+...
0C90: 01 52 80 23 1C 0D 80 13  00 00 00 80 02 00 00 02  .R.#............
0CA0: 80 80 AC 0C 03 04 10 53  80 01 BC 0C 02 00 00 00  .......S........
0CB0: 80 80 BC 0C 03 04 10 54  80 01 BC 0C 48 50 80 23  .......T....HP.#
0CC0: 6E F8 FF FF 7F 3B 80 99  F8 FF FF 7F 1C 25 80 66  n....;.......%.f
0CD0: 05 80 F8 FF FF 7F F8 FF  FF 7F 74 6C 6B 30 1D 51  ..........tlk0.Q
0CE0: 80 23 66 05 80 F8 FF FF  7F F8 FF FF 7F 74 6C 6B  .#f..........tlk
0CF0: 31 01 F4 0C 02 03 10 0B  80 04 07 0E 02 04 10 02  1...............
0D00: 80 02 78 0D 66 05 80 F8  FF FF 7F F8 FF FF 7F 74  ..x.f..........t
0D10: 6C 6B 30 1D 55 80 23 66  05 80 F8 FF FF 7F F8 FF  lk0.U.#f........
0D20: FF 7F 74 6C 6B 31 6E F0  FF FF 7F 3B 80 99 F0 FF  ..tlk1n....;....
0D30: FF 7F 99 F0 FF FF 7F 28  80 C9 A0 0E 01 07 1C 27  .......(.......'
0D40: 80 02 12 00 00 80 00 4A  0D 21 45 01 80 F8 FF FF  .......J.!E.....
0D50: 7F F8 FF FF 7F 66 64 6F  31 02 80 55 01 80 F8 FF  .....fdo1..U....
0D60: FF 7F F8 FF FF 7F 66 64  6F 31 03 01 10 08 80 30  ......fdo1.....0
0D70: 69 01 0E 80 21 01 04 0E  45 01 80 F8 FF FF 7F F8  i...!...E.......
0D80: FF FF 7F 66 64 6F 31 02  80 55 01 80 F8 FF FF 7F  ...fdo1..U......
0D90: F8 FF FF 7F 66 64 6F 31  BA F0 FF FF 7F 0E 00 0F  ....fdo1........
0DA0: 00 10 00 11 00 5C 00 31  80 5C 01 31 80 52 20 80  .....\.1.\.1.R .
0DB0: F8 FF FF 7F F8 FF FF 7F  73 30 30 39 37 32 80 33  ........s00972.3
0DC0: 80 02 80 34 80 1E F0 FF  FF 7F 6F 70 78 38 02 80  ...4......opx8..
0DD0: 46 00 45 01 80 F8 FF FF  7F F8 FF FF 7F 66 64 69  F.E..........fdi
0DE0: 31 02 80 55 01 80 F8 FF  FF 7F F8 FF FF 7F 66 64  1..U..........fd
0DF0: 69 30 1C 0D 80 02 12 00  00 80 00 FE 0D 21 03 01  i0...........!..
0E00: 10 00 80 21 01 0A 0E 01  17 05 00 02 00 00 02 80  ...!............
0E10: 80 1F 0E 4A F0 FF FF 7F  CE A0 0E 01 01 FF 0F 02  ...J............
0E20: 00 00 00 80 80 33 0E 4A  F0 FF FF 7F CF A0 0E 01  .....3.J........
0E30: 01 FF 0F 02 00 00 08 80  80 47 0E 4A F0 FF FF 7F  .........G.J....
0E40: D0 A0 0E 01 01 FF 0F 02  00 00 0B 80 80 5B 0E 4A  .............[.J
0E50: F0 FF FF 7F D1 A0 0E 01  01 FF 0F 02 00 00 03 80  ................
0E60: 80 6F 0E 4A F0 FF FF 7F  D2 A0 0E 01 01 FF 0F 02  .o.J............
0E70: 00 00 2D 80 80 83 0E 4A  F0 FF FF 7F D3 A0 0E 01  ..-....J........
0E80: 01 FF 0F 02 00 00 2E 80  80 97 0E 4A F0 FF FF 7F  ...........J....
0E90: D4 A0 0E 01 01 FF 0F 02  00 00 39 80 80 AB 0E 4A  ..........9....J
0EA0: F0 FF FF 7F D5 A0 0E 01  01 FF 0F 02 00 00 35 80  ..............5.
0EB0: 80 BF 0E 4A F0 FF FF 7F  D6 A0 0E 01 01 FF 0F 02  ...J............
0EC0: 00 00 3A 80 80 D3 0E 4A  F0 FF FF 7F D7 A0 0E 01  ..:....J........
0ED0: 01 FF 0F 02 00 00 07 80  80 E7 0E 4A F0 FF FF 7F  ...........J....
0EE0: D8 A0 0E 01 01 FF 0F 02  00 00 3B 80 80 FB 0E 4A  ..........;....J
0EF0: F0 FF FF 7F D9 A0 0E 01  01 FF 0F 02 00 00 3C 80  ..............<.
0F00: 80 0F 0F 4A F0 FF FF 7F  DA A0 0E 01 01 FF 0F 02  ...J............
0F10: 00 00 3D 80 80 23 0F 4A  F0 FF FF 7F DB A0 0E 01  ..=..#.J........
0F20: 01 FF 0F 02 00 00 3E 80  80 37 0F 4A F0 FF FF 7F  ......>..7.J....
0F30: DC A0 0E 01 01 FF 0F 02  00 00 18 80 80 4B 0F 4A  .............K.J
0F40: F0 FF FF 7F DD A0 0E 01  01 FF 0F 02 00 00 36 80  ..............6.
0F50: 80 5F 0F 4A F0 FF FF 7F  DE A0 0E 01 01 FF 0F 02  ._.J............
0F60: 00 00 3F 80 80 73 0F 4A  F0 FF FF 7F DF A0 0E 01  ..?..s.J........
0F70: 01 FF 0F 02 00 00 40 80  80 87 0F 4A F0 FF FF 7F  ......@....J....
0F80: E0 A0 0E 01 01 FF 0F 02  00 00 05 80 80 9B 0F 4A  ...............J
0F90: F0 FF FF 7F E1 A0 0E 01  01 FF 0F 02 00 00 41 80  ..............A.
0FA0: 80 AF 0F 4A F0 FF FF 7F  E2 A0 0E 01 01 FF 0F 02  ...J............
0FB0: 00 00 42 80 80 C3 0F 4A  F0 FF FF 7F E3 A0 0E 01  ..B....J........
0FC0: 01 FF 0F 02 00 00 43 80  80 D7 0F 4A F0 FF FF 7F  ......C....J....
0FD0: E4 A0 0E 01 01 FF 0F 02  00 00 44 80 80 EB 0F 4A  ..........D....J
0FE0: F0 FF FF 7F E5 A0 0E 01  01 FF 0F 02 00 00 45 80  ..............E.
0FF0: 80 FF 0F 4A F0 FF FF 7F  E6 A0 0E 01 01 FF 0F 1B  ...J............
```

#### Opcodes

```
  0: 0x0235 [0x42] SET_CLI_EVENT_CANCEL_DATA()
  1: 0x0236 [0x69] SET_SOUND_VOLUME: Unmute System/Zone/Master
  2: 0x023A [0x03] ExtData[1]->WorkLocal[18] = Work_Zone[8]
  3: 0x023F [0x03] ExtData[1]->WorkLocal[14] = LocalPlayer->LocalPosition.LocalX * 1000.0
  4: 0x0244 [0x03] ExtData[1]->WorkLocal[15] = LocalPlayer->LocalPosition.LocalY * 1000.0
  5: 0x0249 [0x03] ExtData[1]->WorkLocal[16] = LocalPlayer->LocalPosition.LocalZ * 1000.0
  6: 0x024E [0x03] ExtData[1]->WorkLocal[17] = enDirCli(LocalPlayer->LocalPosition.Unknown0000) * 4096.0 * 0.15915963
  7: 0x0253 [0x06] Work_Zone[1] = 0
  8: 0x0256 [0x92] EventEntity->Render.Flags3 ^= 0x01
  9: 0x025C [0x46] CAMERA_CONTROL: Disable user control
 10: 0x025E [0x38] SET_CLIENT_EVENT_MODE(mode=27*)
 11: 0x0261 [0x77] SET_EVENT_TIME_WEATHER(hour=15*, weather=0*)
 12: 0x0266 [0x37] UPDATE_EVENT_POSITION_AND_DIR: x=-137.000*, z=-1.000*, y=0.000*, direction=179.9°*
 13: 0x026F [0x1E] EventEntity looks at EventEntity and starts talking
 14: 0x0274 [0x2F] Chocobo (ID: 17735881/0x010EA0C9)->Render.Flags0 &= ~0x80000 // Bit 19
 15: 0x027A [0x4E] SET_ENTITY_HIDE_FLAG: Show Chocobo (ID: 17735881/0x010EA0C9)
 16: 0x0280 [0x28] REQ_SET_WITH_CONDITIONS(priority=0x80, target_entity=Chocobo (ID: 17735881/0x010EA0C9), tag_num=0x04)
 17: 0x0287 [0xBA] SET_ENTITY_POSITION(entity_id=Chocobo (ID: 17735881/0x010EA0C9), pos_x=-155.700*, pos_z=-0.200*, pos_y=0.000*, direction=359.9°*)
 18: 0x0294 [0x2F] Q (ID: 17735886/0x010EA0CE)->Render.Flags0 &= ~0x80000 // Bit 19
 19: 0x029A [0x4E] SET_ENTITY_HIDE_FLAG: Show Q (ID: 17735886/0x010EA0CE)
 20: 0x02A0 [0x2F] W (ID: 17735887/0x010EA0CF)->Render.Flags0 &= ~0x80000 // Bit 19
 21: 0x02A6 [0x4E] SET_ENTITY_HIDE_FLAG: Show W (ID: 17735887/0x010EA0CF)
 22: 0x02AC [0x2F] R (ID: 17735888/0x010EA0D0)->Render.Flags0 &= ~0x80000 // Bit 19
 23: 0x02B2 [0x4E] SET_ENTITY_HIDE_FLAG: Show R (ID: 17735888/0x010EA0D0)
 24: 0x02B8 [0x2F] T (ID: 17735889/0x010EA0D1)->Render.Flags0 &= ~0x80000 // Bit 19
 25: 0x02BE [0x4E] SET_ENTITY_HIDE_FLAG: Show T (ID: 17735889/0x010EA0D1)
 26: 0x02C4 [0x2F] P (ID: 17735890/0x010EA0D2)->Render.Flags0 &= ~0x80000 // Bit 19
 27: 0x02CA [0x4E] SET_ENTITY_HIDE_FLAG: Show P (ID: 17735890/0x010EA0D2)
 28: 0x02D0 [0x2F] A (ID: 17735891/0x010EA0D3)->Render.Flags0 &= ~0x80000 // Bit 19
 29: 0x02D6 [0x4E] SET_ENTITY_HIDE_FLAG: Show A (ID: 17735891/0x010EA0D3)
 30: 0x02DC [0x2F] S (ID: 17735892/0x010EA0D4)->Render.Flags0 &= ~0x80000 // Bit 19
 31: 0x02E2 [0x4E] SET_ENTITY_HIDE_FLAG: Show S (ID: 17735892/0x010EA0D4)
 32: 0x02E8 [0x2F] D (ID: 17735893/0x010EA0D5)->Render.Flags0 &= ~0x80000 // Bit 19
 33: 0x02EE [0x4E] SET_ENTITY_HIDE_FLAG: Show D (ID: 17735893/0x010EA0D5)
 34: 0x02F4 [0x2F] F (ID: 17735894/0x010EA0D6)->Render.Flags0 &= ~0x80000 // Bit 19
 35: 0x02FA [0x4E] SET_ENTITY_HIDE_FLAG: Show F (ID: 17735894/0x010EA0D6)
 36: 0x0300 [0x2F] G (ID: 17735895/0x010EA0D7)->Render.Flags0 &= ~0x80000 // Bit 19
 37: 0x0306 [0x4E] SET_ENTITY_HIDE_FLAG: Show G (ID: 17735895/0x010EA0D7)
 38: 0x030C [0x2F] H (ID: 17735896/0x010EA0D8)->Render.Flags0 &= ~0x80000 // Bit 19
 39: 0x0312 [0x4E] SET_ENTITY_HIDE_FLAG: Show H (ID: 17735896/0x010EA0D8)
 40: 0x0318 [0x2F] J (ID: 17735897/0x010EA0D9)->Render.Flags0 &= ~0x80000 // Bit 19
 41: 0x031E [0x4E] SET_ENTITY_HIDE_FLAG: Show J (ID: 17735897/0x010EA0D9)
 42: 0x0324 [0x2F] K (ID: 17735898/0x010EA0DA)->Render.Flags0 &= ~0x80000 // Bit 19
 43: 0x032A [0x4E] SET_ENTITY_HIDE_FLAG: Show K (ID: 17735898/0x010EA0DA)
 44: 0x0330 [0x2F] Z (ID: 17735899/0x010EA0DB)->Render.Flags0 &= ~0x80000 // Bit 19
 45: 0x0336 [0x4E] SET_ENTITY_HIDE_FLAG: Show Z (ID: 17735899/0x010EA0DB)
 46: 0x033C [0x2F] X (ID: 17735900/0x010EA0DC)->Render.Flags0 &= ~0x80000 // Bit 19
 47: 0x0342 [0x4E] SET_ENTITY_HIDE_FLAG: Show X (ID: 17735900/0x010EA0DC)
 48: 0x0348 [0x2F] C (ID: 17735901/0x010EA0DD)->Render.Flags0 &= ~0x80000 // Bit 19
 49: 0x034E [0x4E] SET_ENTITY_HIDE_FLAG: Show C (ID: 17735901/0x010EA0DD)
 50: 0x0354 [0x2F] B (ID: 17735902/0x010EA0DE)->Render.Flags0 &= ~0x80000 // Bit 19
 51: 0x035A [0x4E] SET_ENTITY_HIDE_FLAG: Show B (ID: 17735902/0x010EA0DE)
 52: 0x0360 [0x2F] N (ID: 17735903/0x010EA0DF)->Render.Flags0 &= ~0x80000 // Bit 19
 53: 0x0366 [0x4E] SET_ENTITY_HIDE_FLAG: Show N (ID: 17735903/0x010EA0DF)
 54: 0x036C [0x2F] M (ID: 17735904/0x010EA0E0)->Render.Flags0 &= ~0x80000 // Bit 19
 55: 0x0372 [0x4E] SET_ENTITY_HIDE_FLAG: Show M (ID: 17735904/0x010EA0E0)
 56: 0x0378 [0x2F] Unnamed NPC (ID: 17735905/0x010EA0E1)->Render.Flags0 &= ~0x80000 // Bit 19
 57: 0x037E [0x4E] SET_ENTITY_HIDE_FLAG: Show Unnamed NPC (ID: 17735905/0x010EA0E1)
 58: 0x0384 [0x2F] Unnamed NPC (ID: 17735906/0x010EA0E2)->Render.Flags0 &= ~0x80000 // Bit 19
 59: 0x038A [0x4E] SET_ENTITY_HIDE_FLAG: Show Unnamed NPC (ID: 17735906/0x010EA0E2)
 60: 0x0390 [0x2F] C (ID: 17735907/0x010EA0E3)->Render.Flags0 &= ~0x80000 // Bit 19
 61: 0x0396 [0x4E] SET_ENTITY_HIDE_FLAG: Show C (ID: 17735907/0x010EA0E3)
 62: 0x039C [0x2F] Unnamed NPC (ID: 17735908/0x010EA0E4)->Render.Flags0 &= ~0x80000 // Bit 19
 63: 0x03A2 [0x4E] SET_ENTITY_HIDE_FLAG: Show Unnamed NPC (ID: 17735908/0x010EA0E4)
 64: 0x03A8 [0x2F] Unnamed NPC (ID: 17735909/0x010EA0E5)->Render.Flags0 &= ~0x80000 // Bit 19
 65: 0x03AE [0x4E] SET_ENTITY_HIDE_FLAG: Show Unnamed NPC (ID: 17735909/0x010EA0E5)
 66: 0x03B4 [0x2F] Unnamed NPC (ID: 17735910/0x010EA0E6)->Render.Flags0 &= ~0x80000 // Bit 19
 67: 0x03BA [0x4E] SET_ENTITY_HIDE_FLAG: Show Unnamed NPC (ID: 17735910/0x010EA0E6)
 68: 0x03C0 [0x29] REQ_SET_WAIT(priority=0x80, entity_id=Q (ID: 17735886/0x010EA0CE), tag_num=0x04)
 69: 0x03C7 [0x29] REQ_SET_WAIT(priority=0x80, entity_id=W (ID: 17735887/0x010EA0CF), tag_num=0x04)
 70: 0x03CE [0x29] REQ_SET_WAIT(priority=0x80, entity_id=R (ID: 17735888/0x010EA0D0), tag_num=0x04)
 71: 0x03D5 [0x29] REQ_SET_WAIT(priority=0x80, entity_id=T (ID: 17735889/0x010EA0D1), tag_num=0x04)
 72: 0x03DC [0x29] REQ_SET_WAIT(priority=0x80, entity_id=P (ID: 17735890/0x010EA0D2), tag_num=0x04)
 73: 0x03E3 [0x29] REQ_SET_WAIT(priority=0x80, entity_id=A (ID: 17735891/0x010EA0D3), tag_num=0x04)
 74: 0x03EA [0xBA] SET_ENTITY_POSITION(entity_id=LocalPlayer, pos_x=-137.000*, pos_z=-3.000*, pos_y=0.000*, direction=179.9°*)
 75: 0x03F7 [0x45] LOAD_SCHEDULED_TASK: Load scheduler "s009" with entities [EventEntity, EventEntity], work=[102*, 0*]
 76: 0x0408 [0x1C] WAIT(30* ticks)
 77: 0x040B [0x02] IF !(ExtData[1]->WorkLocal[18] == 1*) GOTO 0x0416
 78: 0x0413 [0x01] GOTO 0x041F
 79: 0x0416 [0x5C] MUSIC_CONTROL: Set Idle (Day) music to song 129*
 80: 0x041A [0x5C] MUSIC_CONTROL: Set Idle (Night) music to song 129*
 81: 0x041E [0x9A] WAIT_MUSIC_SERVER()

SUBROUTINE_041F:
 82: 0x041F [0x45] LOAD_SCHEDULED_TASK: Load scheduler "fdi1" with entities [EventEntity, EventEntity], work=[200*, 0*]
 83: 0x0430 [0x55] WAIT_LOAD_SCHEDULER: Wait for scheduler "fdi0" with entities [EventEntity, EventEntity], work=200*
 84: 0x043F [0x1C] WAIT(60* ticks)
 85: 0x0442 [0x06] ExtData[1]->WorkLocal[5] = 0
 86: 0x0445 [0x03] ExtData[1]->WorkLocal[6] = 4294830296*
 87: 0x044A [0x03] ExtData[1]->WorkLocal[9] = 2047*
 88: 0x044F [0x07] ExtData[1]->WorkLocal[6] += 4294961796*
 89: 0x0454 [0x1F] MOVE_ENTITY: EventEntity moves to X=ExtData[1]->WorkLocal[6], Z=-1.000*, Y=0.000*
 90: 0x045C [0x1F] MOVE_ENTITY: Update entity position (mode=1)
 91: 0x045E [0x39] SET_ENTITY_DIRECTION(direction=ExtData[1]->WorkLocal[9])
 92: 0x0461 [0x03] Work_Zone_1700[0] = 4294830296*
 93: 0x0466 [0x07] Work_Zone_1700[0] += 4294961796*
 94: 0x046B [0x03] Work_Zone_1700[1] = 4294964296*
 95: 0x0470 [0x03] Work_Zone_1700[2] = 0*
 96: 0x0475 [0x03] Work_Zone_1700[3] = 2047*
 97: 0x047A [0x28] REQ_SET_WITH_CONDITIONS(priority=0x80, target_entity=LocalPlayer, tag_num=0x7C)
 98: 0x0481 [0x03] ExtData[1]->WorkLocal[10] = 4294811596*
 99: 0x0486 [0x07] ExtData[1]->WorkLocal[10] += 7500*
100: 0x048B [0x03] Work_Zone_1700[0] = ExtData[1]->WorkLocal[10]
101: 0x0490 [0x03] Work_Zone_1700[1] = 4294967096*
102: 0x0495 [0x03] Work_Zone_1700[2] = 0*
103: 0x049A [0x29] REQ_SET_WAIT(priority=0x80, entity_id=Chocobo (ID: 17735881/0x010EA0C9), tag_num=0x05)
104: 0x04A1 [0x1C] WAIT(60* ticks)
105: 0x04A4 [0x3E] IF !(Work_Zone[2] bit 3*) GOTO 0x04C8
106: 0x04AB [0xAD] DUAL_ENTITY_SCHEDULER_HANDLER: Execute sub-case 0 with entities [EventEntity, Chocobo (ID: 17735881/0x010EA0C9)], work=76*
107: 0x04B7 [0x1C] WAIT(120* ticks)
108: 0x04BA [0x28] REQ_SET_WITH_CONDITIONS(priority=0x80, target_entity=Chocobo (ID: 17735881/0x010EA0C9), tag_num=0x07)
109: 0x04C1 [0x48] [System] [15917*]:
    → "The chocobo has a special twinkle in his eye."
110: 0x04C4 [0x23] WAIT_FOR_DIALOG_INTERACTION
111: 0x04C5 [0x01] GOTO 0x04CF
112: 0x04C8 [0x28] REQ_SET_WITH_CONDITIONS(priority=0x80, target_entity=Chocobo (ID: 17735881/0x010EA0C9), tag_num=0x07)

SUBROUTINE_04CF:
113: 0x04CF [0x1C] WAIT(180* ticks)
114: 0x04D2 [0x07] ExtData[1]->WorkLocal[9] += 4294966785*
115: 0x04D7 [0x39] SET_ENTITY_DIRECTION(direction=ExtData[1]->WorkLocal[9])
116: 0x04DA [0x6F] WAIT_FRAME_DELAY: Yield until WaitTime reaches zero
117: 0x04DB [0x70] WAIT_ENTITY_RENDER_FLAG: Wait while EventEntity->Render.Flags3 bit 2 is set (cancel turn if not)
118: 0x04DC [0x66] LOAD_EXT_SCHEDULER_MAIN: Load scheduler "tlk0" with entities [EventEntity, EventEntity], work=19*
119: 0x04EB [0x1D] PRINT_EVENT_MESSAGE(message_id=15898*)
    → "So, what's the first way into someone's heart? Presents! First, you'll need to search for and "dig up" a tantalizing gift!"
120: 0x04EE [0x23] WAIT_FOR_DIALOG_INTERACTION
121: 0x04EF [0x03] Work_Zone[2] = 3*
122: 0x04F4 [0x1D] PRINT_EVENT_MESSAGE(message_id=15899*)
    → "You've only got $0 tries. Remember, the more gifts you give to chocobos, the more easily they swoon. Such simple creatures."
123: 0x04F7 [0x23] WAIT_FOR_DIALOG_INTERACTION
124: 0x04F8 [0x66] LOAD_EXT_SCHEDULER_MAIN: Load scheduler "tlk1" with entities [EventEntity, EventEntity], work=19*
125: 0x0507 [0x03] Work_Zone[3] = 0*
126: 0x050C [0x06] ExtData[1]->WorkLocal[3] = 0
127: 0x050F [0x06] ExtData[1]->WorkLocal[4] = 0
128: 0x0512 [0x03] Work_Zone_1700[3] = ExtData[1]->WorkLocal[13]

SUBROUTINE_0517:
129: 0x0517 [0x1C] WAIT(30* ticks)
130: 0x051A [0x03] ExtData[1]->WorkLocal[2] = 32*
131: 0x051F [0x03] Work_Zone[2] = 0*
132: 0x0524 [0x0B] Work_Zone[3]++
133: 0x0527 [0x24] CREATE_DIALOG(message_id=15900*, default_option=0*, option_flags=ExtData[1]->WorkLocal[2])
    → "Select a [row/column]. (Attempt No. $1) [No. 1./No. 2./No. 3./No. 4./No. 5./Reselect row./Abandon this endeavor.]"
134: 0x052E [0x25] WAIT_DIALOG_SELECT()
135: 0x052F [0x02] IF !(Work_Zone[0] == 0*) GOTO 0x053F
136: 0x0537 [0x03] ExtData[1]->WorkLocal[3] = 0*
137: 0x053C [0x01] GOTO 0x0658
138: 0x053F [0x02] IF !(Work_Zone[0] == 1*) GOTO 0x054F
139: 0x0547 [0x03] ExtData[1]->WorkLocal[3] = 1*
140: 0x054C [0x01] GOTO 0x0658
141: 0x054F [0x02] IF !(Work_Zone[0] == 2*) GOTO 0x055F
142: 0x0557 [0x03] ExtData[1]->WorkLocal[3] = 2*
143: 0x055C [0x01] GOTO 0x0658
144: 0x055F [0x02] IF !(Work_Zone[0] == 3*) GOTO 0x056F
145: 0x0567 [0x03] ExtData[1]->WorkLocal[3] = 3*
146: 0x056C [0x01] GOTO 0x0658
147: 0x056F [0x02] IF !(Work_Zone[0] == 4*) GOTO 0x057F
148: 0x0577 [0x03] ExtData[1]->WorkLocal[3] = 4*
149: 0x057C [0x01] GOTO 0x0658
150: 0x057F [0x02] IF !(Work_Zone[0] == 5*) GOTO 0x058A
151: 0x0587 [0x01] GOTO 0x0658
152: 0x058A [0x02] IF !(Work_Zone[0] == 6*) GOTO 0x0658
153: 0x0592 [0x24] CREATE_DIALOG(message_id=15901*, default_option=1*, option_flags=0*)
    → "Truly let it wither on the vine? [Love. Bah./No! We must cultivate!]"
154: 0x0599 [0x25] WAIT_DIALOG_SELECT()
155: 0x059A [0x02] IF !(Work_Zone[0] == 0*) GOTO 0x0644
156: 0x05A2 [0x66] LOAD_EXT_SCHEDULER_MAIN: Load scheduler "dis0" with entities [EventEntity, EventEntity], work=10*
157: 0x05B1 [0x1D] PRINT_EVENT_MESSAGE(message_id=15902*)
    → "How callous! All I wanted was to bring in dat...I mean bring darling chocobos together as soul mates!"
158: 0x05B4 [0x23] WAIT_FOR_DIALOG_INTERACTION
159: 0x05B5 [0x45] LOAD_SCHEDULED_TASK: Load scheduler "fdo1" with entities [EventEntity, EventEntity], work=[200*, 0*]
160: 0x05C6 [0x55] WAIT_LOAD_SCHEDULER: Wait for scheduler "fdo1" with entities [EventEntity, EventEntity], work=200*
161: 0x05D5 [0xBA] SET_ENTITY_POSITION(entity_id=LocalPlayer, pos_x=ExtData[1]->WorkLocal[14], pos_z=ExtData[1]->WorkLocal[15], pos_y=ExtData[1]->WorkLocal[16], direction=ExtData[1]->WorkLocal[17])
162: 0x05E2 [0x5C] MUSIC_CONTROL: Set Idle (Day) music to song 152*
163: 0x05E6 [0x5C] MUSIC_CONTROL: Set Idle (Night) music to song 152*
164: 0x05EA [0x52] END_LOAD_SCHEDULER: End scheduler "s009" with entities [EventEntity, EventEntity], work=102*
165: 0x05F9 [0x37] UPDATE_EVENT_POSITION_AND_DIR: x=45.000*, z=-84.000*, y=0.000*, direction=377476129.3°*
166: 0x0602 [0x1E] EventEntity looks at LocalPlayer and starts talking
167: 0x0607 [0x6F] WAIT_FRAME_DELAY: Yield until WaitTime reaches zero
168: 0x0608 [0x70] WAIT_ENTITY_RENDER_FLAG: Wait while EventEntity->Render.Flags3 bit 2 is set (cancel turn if not)
169: 0x0609 [0x78] ENABLE_GAME_TIMER_RESET_WEATHER()
170: 0x060A [0x38] SET_CLIENT_EVENT_MODE(mode=0*)
171: 0x060D [0x46] CAMERA_CONTROL: Restore default settings
172: 0x060F [0x45] LOAD_SCHEDULED_TASK: Load scheduler "fdi1" with entities [EventEntity, EventEntity], work=[200*, 0*]
173: 0x0620 [0x55] WAIT_LOAD_SCHEDULER: Wait for scheduler "fdi0" with entities [EventEntity, EventEntity], work=200*
174: 0x062F [0x1C] WAIT(60* ticks)
175: 0x0632 [0x02] IF !(ExtData[1]->WorkLocal[18] == 1*) GOTO 0x063B
176: 0x063A [0x21] END_EVENT
177: 0x063B [0x03] Work_Zone[1] = 3*
178: 0x0640 [0x21] END_EVENT

SUBROUTINE_0655:
179: 0x0655 [0x01] GOTO 0x0658

SUBROUTINE_0658:
180: 0x0658 [0x1C] WAIT(30* ticks)
181: 0x065B [0x03] ExtData[1]->WorkLocal[0] = ExtData[1]->WorkLocal[3]
182: 0x0660 [0x14] ExtData[1]->WorkLocal[0] *= 5*
183: 0x0665 [0x07] ExtData[1]->WorkLocal[0] += ExtData[1]->WorkLocal[4]
184: 0x066A [0x1A] CALL_SUBROUTINE(address=0x0E0B)
185: 0x066D [0x6F] WAIT_FRAME_DELAY: Yield until WaitTime reaches zero
186: 0x066E [0x76] CHECK_ENTITY_RENDER_FLAGS: Wait until LocalPlayer Render.Flags0 and Render.Flags3 conditions are met
187: 0x0673 [0x6E] LocalPlayer uses emote 0*
188: 0x067A [0x99] Wait for LocalPlayer animation to complete
189: 0x067F [0x59] UPDATE_ENTITY_DATA: Check if LocalPlayer is performing moving action
190: 0x0685 [0x1C] WAIT(120* ticks)
191: 0x0688 [0x03] ExtData[1]->WorkLocal[11] = 4294967096*
192: 0x068D [0x03] ExtData[1]->WorkLocal[0] = 4294966296*
193: 0x0692 [0x14] ExtData[1]->WorkLocal[0] *= ExtData[1]->WorkLocal[3]
194: 0x0697 [0x07] ExtData[1]->WorkLocal[11] += ExtData[1]->WorkLocal[0]
195: 0x069C [0x03] Work_Zone_1700[0] = ExtData[1]->WorkLocal[10]
196: 0x06A1 [0x03] Work_Zone_1700[1] = ExtData[1]->WorkLocal[11]
197: 0x06A6 [0x29] REQ_SET_WAIT(priority=0x80, entity_id=Chocobo (ID: 17735881/0x010EA0C9), tag_num=0x05)
198: 0x06AD [0x29] REQ_SET_WAIT(priority=0x80, entity_id=Chocobo (ID: 17735881/0x010EA0C9), tag_num=0x06)
199: 0x06B4 [0x1C] WAIT(60* ticks)

SUBROUTINE_06B7:
200: 0x06B7 [0x03] ExtData[1]->WorkLocal[2] = 0*
201: 0x06BC [0x03] Work_Zone[2] = 1*
202: 0x06C1 [0x24] CREATE_DIALOG(message_id=15900*, default_option=0*, option_flags=ExtData[1]->WorkLocal[2])
    → "Select a [row/column]. (Attempt No. $1) [No. 1./No. 2./No. 3./No. 4./No. 5./Reselect row./Abandon this endeavor.]"
203: 0x06C8 [0x25] WAIT_DIALOG_SELECT()
204: 0x06C9 [0x02] IF !(Work_Zone[0] == 0*) GOTO 0x06D9
205: 0x06D1 [0x03] ExtData[1]->WorkLocal[4] = 0*
206: 0x06D6 [0x01] GOTO 0x07FA
207: 0x06D9 [0x02] IF !(Work_Zone[0] == 1*) GOTO 0x06E9
208: 0x06E1 [0x03] ExtData[1]->WorkLocal[4] = 1*
209: 0x06E6 [0x01] GOTO 0x07FA
210: 0x06E9 [0x02] IF !(Work_Zone[0] == 2*) GOTO 0x06F9
211: 0x06F1 [0x03] ExtData[1]->WorkLocal[4] = 2*
212: 0x06F6 [0x01] GOTO 0x07FA
213: 0x06F9 [0x02] IF !(Work_Zone[0] == 3*) GOTO 0x0709
214: 0x0701 [0x03] ExtData[1]->WorkLocal[4] = 3*
215: 0x0706 [0x01] GOTO 0x07FA
216: 0x0709 [0x02] IF !(Work_Zone[0] == 4*) GOTO 0x0719
217: 0x0711 [0x03] ExtData[1]->WorkLocal[4] = 4*
218: 0x0716 [0x01] GOTO 0x07FA
219: 0x0719 [0x02] IF !(Work_Zone[0] == 5*) GOTO 0x072F
220: 0x0721 [0x03] ExtData[1]->WorkLocal[3] = 0*
221: 0x0726 [0x0C] Work_Zone[3]--
222: 0x0729 [0x01] GOTO 0x0517

SUBROUTINE_07F7:
223: 0x07F7 [0x01] GOTO 0x07FA

SUBROUTINE_07FA:
224: 0x07FA [0x40] SET_BIT_WORK_RANGE(start_bit=0*, end_bit=3*, target=Work_Zone[1], source=0*)
225: 0x0803 [0x03] ExtData[1]->WorkLocal[0] = ExtData[1]->WorkLocal[3]
226: 0x0808 [0x14] ExtData[1]->WorkLocal[0] *= 5*
227: 0x080D [0x07] ExtData[1]->WorkLocal[0] += ExtData[1]->WorkLocal[4]
228: 0x0812 [0x40] SET_BIT_WORK_RANGE(start_bit=4*, end_bit=8*, target=Work_Zone[1], source=ExtData[1]->WorkLocal[0])
229: 0x081B [0x1A] CALL_SUBROUTINE(address=0x0E0B)
230: 0x081E [0x6F] WAIT_FRAME_DELAY: Yield until WaitTime reaches zero
231: 0x081F [0x76] CHECK_ENTITY_RENDER_FLAGS: Wait until LocalPlayer Render.Flags0 and Render.Flags3 conditions are met
232: 0x0824 [0x6E] LocalPlayer uses emote 16*
233: 0x082B [0x99] Wait for LocalPlayer animation to complete
234: 0x0830 [0x59] UPDATE_ENTITY_DATA: Check if LocalPlayer is performing moving action
235: 0x0836 [0x1C] WAIT(120* ticks)
236: 0x0839 [0x03] ExtData[1]->WorkLocal[10] = 4294811596*
237: 0x083E [0x07] ExtData[1]->WorkLocal[10] += 7500*
238: 0x0843 [0x03] ExtData[1]->WorkLocal[0] = 1000*
239: 0x0848 [0x14] ExtData[1]->WorkLocal[0] *= ExtData[1]->WorkLocal[4]
240: 0x084D [0x07] ExtData[1]->WorkLocal[10] += ExtData[1]->WorkLocal[0]
241: 0x0852 [0x03] Work_Zone_1700[0] = ExtData[1]->WorkLocal[10]
242: 0x0857 [0x29] REQ_SET_WAIT(priority=0x80, entity_id=Chocobo (ID: 17735881/0x010EA0C9), tag_num=0x05)
243: 0x085E [0x29] REQ_SET_WAIT(priority=0x80, entity_id=Chocobo (ID: 17735881/0x010EA0C9), tag_num=0x06)
244: 0x0865 [0x1C] WAIT(60* ticks)
245: 0x0868 [0x5B] LOAD_EXT_SCHEDULER: Load scheduler "ton0" with entities [Chocobo (ID: 17735881/0x010EA0C9), Chocobo (ID: 17735881/0x010EA0C9)], work=220*
246: 0x0877 [0x53] WAIT_SCHEDULER_TASK: Wait for scheduler "ton0" with entities [Chocobo (ID: 17735881/0x010EA0C9), Chocobo (ID: 17735881/0x010EA0C9)]
247: 0x0884 [0x5B] LOAD_EXT_SCHEDULER: Load scheduler "ton1" with entities [Chocobo (ID: 17735881/0x010EA0C9), Chocobo (ID: 17735881/0x010EA0C9)], work=220*
248: 0x0893 [0x1C] WAIT(60* ticks)
249: 0x0896 [0x41] ExtData[1]->WorkLocal[0] = Work_Zone[1] (bits 4*-8*)
250: 0x089F [0x02] IF !(ExtData[1]->WorkLocal[0] == 0*) GOTO 0x08B7
251: 0x08A7 [0x2C] CREATE_SCHEDULER_TASK: Create scheduler "kesu" with entities [Q (ID: 17735886/0x010EA0CE), Q (ID: 17735886/0x010EA0CE)]
252: 0x08B4 [0x01] GOTO 0x0AF7
253: 0x08B7 [0x02] IF !(ExtData[1]->WorkLocal[0] == 1*) GOTO 0x08CF
254: 0x08BF [0x2C] CREATE_SCHEDULER_TASK: Create scheduler "kesu" with entities [W (ID: 17735887/0x010EA0CF), W (ID: 17735887/0x010EA0CF)]
255: 0x08CC [0x01] GOTO 0x0AF7
256: 0x08CF [0x02] IF !(ExtData[1]->WorkLocal[0] == 2*) GOTO 0x08E7
257: 0x08D7 [0x2C] CREATE_SCHEDULER_TASK: Create scheduler "kesu" with entities [R (ID: 17735888/0x010EA0D0), R (ID: 17735888/0x010EA0D0)]
258: 0x08E4 [0x01] GOTO 0x0AF7
259: 0x08E7 [0x02] IF !(ExtData[1]->WorkLocal[0] == 3*) GOTO 0x08FF
260: 0x08EF [0x2C] CREATE_SCHEDULER_TASK: Create scheduler "kesu" with entities [T (ID: 17735889/0x010EA0D1), T (ID: 17735889/0x010EA0D1)]
261: 0x08FC [0x01] GOTO 0x0AF7
262: 0x08FF [0x02] IF !(ExtData[1]->WorkLocal[0] == 4*) GOTO 0x0917
263: 0x0907 [0x2C] CREATE_SCHEDULER_TASK: Create scheduler "kesu" with entities [P (ID: 17735890/0x010EA0D2), P (ID: 17735890/0x010EA0D2)]
264: 0x0914 [0x01] GOTO 0x0AF7
265: 0x0917 [0x02] IF !(ExtData[1]->WorkLocal[0] == 5*) GOTO 0x092F
266: 0x091F [0x2C] CREATE_SCHEDULER_TASK: Create scheduler "kesu" with entities [A (ID: 17735891/0x010EA0D3), A (ID: 17735891/0x010EA0D3)]
267: 0x092C [0x01] GOTO 0x0AF7
268: 0x092F [0x02] IF !(ExtData[1]->WorkLocal[0] == 6*) GOTO 0x0947
269: 0x0937 [0x2C] CREATE_SCHEDULER_TASK: Create scheduler "kesu" with entities [S (ID: 17735892/0x010EA0D4), S (ID: 17735892/0x010EA0D4)]
270: 0x0944 [0x01] GOTO 0x0AF7
271: 0x0947 [0x02] IF !(ExtData[1]->WorkLocal[0] == 7*) GOTO 0x095F
272: 0x094F [0x2C] CREATE_SCHEDULER_TASK: Create scheduler "kesu" with entities [D (ID: 17735893/0x010EA0D5), D (ID: 17735893/0x010EA0D5)]
273: 0x095C [0x01] GOTO 0x0AF7
274: 0x095F [0x02] IF !(ExtData[1]->WorkLocal[0] == 8*) GOTO 0x0977
275: 0x0967 [0x2C] CREATE_SCHEDULER_TASK: Create scheduler "kesu" with entities [F (ID: 17735894/0x010EA0D6), F (ID: 17735894/0x010EA0D6)]
276: 0x0974 [0x01] GOTO 0x0AF7
277: 0x0977 [0x02] IF !(ExtData[1]->WorkLocal[0] == 9*) GOTO 0x098F
278: 0x097F [0x2C] CREATE_SCHEDULER_TASK: Create scheduler "kesu" with entities [G (ID: 17735895/0x010EA0D7), G (ID: 17735895/0x010EA0D7)]
279: 0x098C [0x01] GOTO 0x0AF7
280: 0x098F [0x02] IF !(ExtData[1]->WorkLocal[0] == 10*) GOTO 0x09A7
281: 0x0997 [0x2C] CREATE_SCHEDULER_TASK: Create scheduler "kesu" with entities [H (ID: 17735896/0x010EA0D8), H (ID: 17735896/0x010EA0D8)]
282: 0x09A4 [0x01] GOTO 0x0AF7
283: 0x09A7 [0x02] IF !(ExtData[1]->WorkLocal[0] == 11*) GOTO 0x09BF
284: 0x09AF [0x2C] CREATE_SCHEDULER_TASK: Create scheduler "kesu" with entities [J (ID: 17735897/0x010EA0D9), J (ID: 17735897/0x010EA0D9)]
285: 0x09BC [0x01] GOTO 0x0AF7
286: 0x09BF [0x02] IF !(ExtData[1]->WorkLocal[0] == 12*) GOTO 0x09D7
287: 0x09C7 [0x2C] CREATE_SCHEDULER_TASK: Create scheduler "kesu" with entities [K (ID: 17735898/0x010EA0DA), K (ID: 17735898/0x010EA0DA)]
288: 0x09D4 [0x01] GOTO 0x0AF7
289: 0x09D7 [0x02] IF !(ExtData[1]->WorkLocal[0] == 13*) GOTO 0x09EF
290: 0x09DF [0x2C] CREATE_SCHEDULER_TASK: Create scheduler "kesu" with entities [Z (ID: 17735899/0x010EA0DB), Z (ID: 17735899/0x010EA0DB)]
291: 0x09EC [0x01] GOTO 0x0AF7
292: 0x09EF [0x02] IF !(ExtData[1]->WorkLocal[0] == 14*) GOTO 0x0A07
293: 0x09F7 [0x2C] CREATE_SCHEDULER_TASK: Create scheduler "kesu" with entities [X (ID: 17735900/0x010EA0DC), X (ID: 17735900/0x010EA0DC)]
294: 0x0A04 [0x01] GOTO 0x0AF7
295: 0x0A07 [0x02] IF !(ExtData[1]->WorkLocal[0] == 15*) GOTO 0x0A1F
296: 0x0A0F [0x2C] CREATE_SCHEDULER_TASK: Create scheduler "kesu" with entities [C (ID: 17735901/0x010EA0DD), C (ID: 17735901/0x010EA0DD)]
297: 0x0A1C [0x01] GOTO 0x0AF7
298: 0x0A1F [0x02] IF !(ExtData[1]->WorkLocal[0] == 16*) GOTO 0x0A37
299: 0x0A27 [0x2C] CREATE_SCHEDULER_TASK: Create scheduler "kesu" with entities [B (ID: 17735902/0x010EA0DE), B (ID: 17735902/0x010EA0DE)]
300: 0x0A34 [0x01] GOTO 0x0AF7
301: 0x0A37 [0x02] IF !(ExtData[1]->WorkLocal[0] == 17*) GOTO 0x0A4F
302: 0x0A3F [0x2C] CREATE_SCHEDULER_TASK: Create scheduler "kesu" with entities [N (ID: 17735903/0x010EA0DF), N (ID: 17735903/0x010EA0DF)]
303: 0x0A4C [0x01] GOTO 0x0AF7
304: 0x0A4F [0x02] IF !(ExtData[1]->WorkLocal[0] == 18*) GOTO 0x0A67
305: 0x0A57 [0x2C] CREATE_SCHEDULER_TASK: Create scheduler "kesu" with entities [M (ID: 17735904/0x010EA0E0), M (ID: 17735904/0x010EA0E0)]
306: 0x0A64 [0x01] GOTO 0x0AF7
307: 0x0A67 [0x02] IF !(ExtData[1]->WorkLocal[0] == 19*) GOTO 0x0A7F
308: 0x0A6F [0x2C] CREATE_SCHEDULER_TASK: Create scheduler "kesu" with entities [Unnamed NPC (ID: 17735905/0x010EA0E1), Unnamed NPC (ID: 17735905/0x010EA0E1)]
309: 0x0A7C [0x01] GOTO 0x0AF7
310: 0x0A7F [0x02] IF !(ExtData[1]->WorkLocal[0] == 20*) GOTO 0x0A97
311: 0x0A87 [0x2C] CREATE_SCHEDULER_TASK: Create scheduler "kesu" with entities [Unnamed NPC (ID: 17735906/0x010EA0E2), Unnamed NPC (ID: 17735906/0x010EA0E2)]
312: 0x0A94 [0x01] GOTO 0x0AF7
313: 0x0A97 [0x02] IF !(ExtData[1]->WorkLocal[0] == 21*) GOTO 0x0AAF
314: 0x0A9F [0x2C] CREATE_SCHEDULER_TASK: Create scheduler "kesu" with entities [C (ID: 17735907/0x010EA0E3), C (ID: 17735907/0x010EA0E3)]
315: 0x0AAC [0x01] GOTO 0x0AF7
316: 0x0AAF [0x02] IF !(ExtData[1]->WorkLocal[0] == 22*) GOTO 0x0AC7
317: 0x0AB7 [0x2C] CREATE_SCHEDULER_TASK: Create scheduler "kesu" with entities [Unnamed NPC (ID: 17735908/0x010EA0E4), Unnamed NPC (ID: 17735908/0x010EA0E4)]
318: 0x0AC4 [0x01] GOTO 0x0AF7
319: 0x0AC7 [0x02] IF !(ExtData[1]->WorkLocal[0] == 23*) GOTO 0x0ADF
320: 0x0ACF [0x2C] CREATE_SCHEDULER_TASK: Create scheduler "kesu" with entities [Unnamed NPC (ID: 17735909/0x010EA0E5), Unnamed NPC (ID: 17735909/0x010EA0E5)]
321: 0x0ADC [0x01] GOTO 0x0AF7
322: 0x0ADF [0x02] IF !(ExtData[1]->WorkLocal[0] == 24*) GOTO 0x0AF7
323: 0x0AE7 [0x2C] CREATE_SCHEDULER_TASK: Create scheduler "kesu" with entities [Unnamed NPC (ID: 17735910/0x010EA0E6), Unnamed NPC (ID: 17735910/0x010EA0E6)]
324: 0x0AF4 [0x01] GOTO 0x0AF7

SUBROUTINE_0AF7:
325: 0x0AF7 [0x43] SEND_EVENT_UPDATE: Send pending tag to server (packet 0x005B)
326: 0x0AF9 [0x43] SEND_EVENT_UPDATE: Check pending flag (skip if not pending)
327: 0x0AFB [0x02] IF !(Work_Zone[2] == 0*) GOTO 0x0BF6
328: 0x0B03 [0x0B] ExtData[1]->WorkLocal[5]++
329: 0x0B06 [0x2B] Chocobo (ID: 17735881/0x010EA0C9) [15907*]:
    → "..."
330: 0x0B0D [0x23] WAIT_FOR_DIALOG_INTERACTION
331: 0x0B0E [0x48] [System] [15908*]:
    → "You didn't find anything."
332: 0x0B11 [0x23] WAIT_FOR_DIALOG_INTERACTION
333: 0x0B12 [0x1C] WAIT(60* ticks)
334: 0x0B15 [0x02] IF !(ExtData[1]->WorkLocal[5] == 1*) GOTO 0x0B42
335: 0x0B1D [0x66] LOAD_EXT_SCHEDULER_MAIN: Load scheduler "thk1" with entities [EventEntity, EventEntity], work=19*
336: 0x0B2C [0x1D] PRINT_EVENT_MESSAGE(message_id=15909*)
    → "Why, it's like the locations of these presents change depending on the day! Hmm? "Why do I know these things?" Silly, I'm a scholar!"
337: 0x0B2F [0x23] WAIT_FOR_DIALOG_INTERACTION
338: 0x0B30 [0x66] LOAD_EXT_SCHEDULER_MAIN: Load scheduler "thk2" with entities [EventEntity, EventEntity], work=19*
339: 0x0B3F [0x01] GOTO 0x0BF3
340: 0x0B42 [0x02] IF !(ExtData[1]->WorkLocal[5] == 2*) GOTO 0x0B6F
341: 0x0B4A [0x66] LOAD_EXT_SCHEDULER_MAIN: Load scheduler "thk1" with entities [EventEntity, EventEntity], work=19*
342: 0x0B59 [0x1D] PRINT_EVENT_MESSAGE(message_id=15910*)
    → "It's gotta be related to the day of the week. Call it women's intuition!"
343: 0x0B5C [0x23] WAIT_FOR_DIALOG_INTERACTION
344: 0x0B5D [0x66] LOAD_EXT_SCHEDULER_MAIN: Load scheduler "thk2" with entities [EventEntity, EventEntity], work=19*
345: 0x0B6C [0x01] GOTO 0x0BF3
346: 0x0B6F [0x02] IF !(ExtData[1]->WorkLocal[5] == 3*) GOTO 0x0BF3
347: 0x0B77 [0x66] LOAD_EXT_SCHEDULER_MAIN: Load scheduler "dis0" with entities [EventEntity, EventEntity], work=10*
348: 0x0B86 [0x1D] PRINT_EVENT_MESSAGE(message_id=15911*)
    → "Oh, come on! Cupid's arrows are supposed to strike true, not go tumbling to the ground!"
349: 0x0B89 [0x23] WAIT_FOR_DIALOG_INTERACTION
350: 0x0B8A [0x6E] LocalPlayer uses emote 19*
351: 0x0B91 [0x99] Wait for LocalPlayer animation to complete
352: 0x0B96 [0x99] Wait for LocalPlayer animation to complete
353: 0x0B9B [0x28] REQ_SET_WITH_CONDITIONS(priority=0x80, target_entity=Chocobo (ID: 17735881/0x010EA0C9), tag_num=0x09)
354: 0x0BA2 [0x48] [System] [15912*]:
    → "The chocobo whimpers in despair."
355: 0x0BA5 [0x23] WAIT_FOR_DIALOG_INTERACTION
356: 0x0BA6 [0x1C] WAIT(60* ticks)
357: 0x0BA9 [0x66] LOAD_EXT_SCHEDULER_MAIN: Load scheduler "tlk0" with entities [EventEntity, EventEntity], work=19*
358: 0x0BB8 [0x1D] PRINT_EVENT_MESSAGE(message_id=15913*)
    → "Maybe he'll perk up a bit later? Why don't you give it another go then?"
359: 0x0BBB [0x23] WAIT_FOR_DIALOG_INTERACTION
360: 0x0BBC [0x66] LOAD_EXT_SCHEDULER_MAIN: Load scheduler "tlk1" with entities [EventEntity, EventEntity], work=19*
361: 0x0BCB [0x66] LOAD_EXT_SCHEDULER_MAIN: Load scheduler "thk1" with entities [EventEntity, EventEntity], work=19*
362: 0x0BDA [0x1D] PRINT_EVENT_MESSAGE(message_id=15914*)
    → "You know what I do when I'm depressed? Eat some sweets. Maybe this poor fella just needs to eat something to cheer him up."
363: 0x0BDD [0x23] WAIT_FOR_DIALOG_INTERACTION
364: 0x0BDE [0x66] LOAD_EXT_SCHEDULER_MAIN: Load scheduler "thk2" with entities [EventEntity, EventEntity], work=19*
365: 0x0BED [0x1C] WAIT(60* ticks)
366: 0x0BF0 [0x01] GOTO 0x0BF3

SUBROUTINE_0BF3:
367: 0x0BF3 [0x01] GOTO 0x0CF4
368: 0x0BF6 [0x02] IF !(Work_Zone[2] == 1*) GOTO 0x0C7D
369: 0x0BFE [0x28] REQ_SET_WITH_CONDITIONS(priority=0x80, target_entity=Chocobo (ID: 17735881/0x010EA0C9), tag_num=0x07)
370: 0x0C05 [0x2B] Chocobo (ID: 17735881/0x010EA0C9) [15904*]:
    → "Kw--Kweeeh!"
371: 0x0C0C [0x23] WAIT_FOR_DIALOG_INTERACTION
372: 0x0C0D [0x1C] WAIT(60* ticks)
373: 0x0C10 [0x13] ExtData[1]->WorkLocal[0] = rand() % 2*
374: 0x0C15 [0x02] IF !(ExtData[1]->WorkLocal[0] == 0*) GOTO 0x0C25
375: 0x0C1D [0x03] Work_Zone[4] = 4545*
376: 0x0C22 [0x01] GOTO 0x0C45
377: 0x0C25 [0x02] IF !(ExtData[1]->WorkLocal[0] == 1*) GOTO 0x0C35
378: 0x0C2D [0x03] Work_Zone[4] = 5605*
379: 0x0C32 [0x01] GOTO 0x0C45
380: 0x0C35 [0x02] IF !(ExtData[1]->WorkLocal[0] == 2*) GOTO 0x0C45
381: 0x0C3D [0x03] Work_Zone[4] = 5606*
382: 0x0C42 [0x01] GOTO 0x0C45

SUBROUTINE_0C45:
383: 0x0C45 [0x48] [System] [15905*]:
    → "The chocobo has unearthed $2!"
384: 0x0C48 [0x23] WAIT_FOR_DIALOG_INTERACTION
385: 0x0C49 [0x6E] EventEntity uses emote 13*
386: 0x0C50 [0x99] Wait for EventEntity animation to complete
387: 0x0C55 [0x1C] WAIT(120* ticks)
388: 0x0C58 [0x66] LOAD_EXT_SCHEDULER_MAIN: Load scheduler "tlk0" with entities [EventEntity, EventEntity], work=19*
389: 0x0C67 [0x1D] PRINT_EVENT_MESSAGE(message_id=15906*)
    → "$2! Way to show me how it's done! [/What a wonderful gift!/This'll make the best present ever!t]"
390: 0x0C6A [0x23] WAIT_FOR_DIALOG_INTERACTION
391: 0x0C6B [0x66] LOAD_EXT_SCHEDULER_MAIN: Load scheduler "tlk1" with entities [EventEntity, EventEntity], work=19*
392: 0x0C7A [0x01] GOTO 0x0CF4
393: 0x0C7D [0x02] IF !(Work_Zone[2] == 2*) GOTO 0x0CF4
394: 0x0C85 [0x28] REQ_SET_WITH_CONDITIONS(priority=0x80, target_entity=Chocobo (ID: 17735881/0x010EA0C9), tag_num=0x07)
395: 0x0C8C [0x2B] Chocobo (ID: 17735881/0x010EA0C9) [15903*]:
    → "Kweeeeeeeeeeeeh! (Wowow!)"
396: 0x0C93 [0x23] WAIT_FOR_DIALOG_INTERACTION
397: 0x0C94 [0x1C] WAIT(60* ticks)
398: 0x0C97 [0x13] ExtData[1]->WorkLocal[0] = rand() % 1*
399: 0x0C9C [0x02] IF !(ExtData[1]->WorkLocal[0] == 0*) GOTO 0x0CAC
400: 0x0CA4 [0x03] Work_Zone[4] = 5607*
401: 0x0CA9 [0x01] GOTO 0x0CBC
402: 0x0CAC [0x02] IF !(ExtData[1]->WorkLocal[0] == 1*) GOTO 0x0CBC
403: 0x0CB4 [0x03] Work_Zone[4] = 5608*
404: 0x0CB9 [0x01] GOTO 0x0CBC

SUBROUTINE_0CBC:
405: 0x0CBC [0x48] [System] [15905*]:
    → "The chocobo has unearthed $2!"
406: 0x0CBF [0x23] WAIT_FOR_DIALOG_INTERACTION
407: 0x0CC0 [0x6E] EventEntity uses emote 11*
408: 0x0CC7 [0x99] Wait for EventEntity animation to complete
409: 0x0CCC [0x1C] WAIT(120* ticks)
410: 0x0CCF [0x66] LOAD_EXT_SCHEDULER_MAIN: Load scheduler "tlk0" with entities [EventEntity, EventEntity], work=19*
411: 0x0CDE [0x1D] PRINT_EVENT_MESSAGE(message_id=15906*)
    → "$2! Way to show me how it's done! [/What a wonderful gift!/This'll make the best present ever!t]"
412: 0x0CE1 [0x23] WAIT_FOR_DIALOG_INTERACTION
413: 0x0CE2 [0x66] LOAD_EXT_SCHEDULER_MAIN: Load scheduler "tlk1" with entities [EventEntity, EventEntity], work=19*
414: 0x0CF1 [0x01] GOTO 0x0CF4

SUBROUTINE_0CF4:
415: 0x0CF4 [0x02] IF !(Work_Zone[3] < 3*) GOTO 0x0E07
416: 0x0CFC [0x02] IF !(Work_Zone[4] <= 0*) GOTO 0x0D78
417: 0x0D04 [0x66] LOAD_EXT_SCHEDULER_MAIN: Load scheduler "tlk0" with entities [EventEntity, EventEntity], work=19*
418: 0x0D13 [0x1D] PRINT_EVENT_MESSAGE(message_id=15915*)
    → "Now that we've got a present, it's time for step two!"
419: 0x0D16 [0x23] WAIT_FOR_DIALOG_INTERACTION
420: 0x0D17 [0x66] LOAD_EXT_SCHEDULER_MAIN: Load scheduler "tlk1" with entities [EventEntity, EventEntity], work=19*
421: 0x0D26 [0x6E] LocalPlayer uses emote 11*
422: 0x0D2D [0x99] Wait for LocalPlayer animation to complete
423: 0x0D32 [0x99] Wait for LocalPlayer animation to complete
424: 0x0D37 [0x28] REQ_SET_WITH_CONDITIONS(priority=0x80, target_entity=Chocobo (ID: 17735881/0x010EA0C9), tag_num=0x07)
425: 0x0D3E [0x1C] WAIT(180* ticks)
426: 0x0D41 [0x02] IF !(ExtData[1]->WorkLocal[18] == 1*) GOTO 0x0D4A
427: 0x0D49 [0x21] END_EVENT
428: 0x0D4A [0x45] LOAD_SCHEDULED_TASK: Load scheduler "fdo1" with entities [EventEntity, EventEntity], work=[200*, 0*]
429: 0x0D5B [0x55] WAIT_LOAD_SCHEDULER: Wait for scheduler "fdo1" with entities [EventEntity, EventEntity], work=200*
430: 0x0D6A [0x03] Work_Zone[1] = 2*
431: 0x0D6F [0x30] SET_UCOFF_CONTINUE_ZERO()
432: 0x0D70 [0x69] SET_SOUND_VOLUME: Mute System/Zone/Master
433: 0x0D74 [0x21] END_EVENT

SUBROUTINE_0E0B:
434: 0x0E0B [0x02] IF !(ExtData[1]->WorkLocal[0] == 0*) GOTO 0x0E1F
435: 0x0E13 [0x4A] LocalPlayer looks at Q (ID: 17735886/0x010EA0CE)
436: 0x0E1C [0x01] GOTO 0x0FFF
437: 0x0E1F [0x02] IF !(ExtData[1]->WorkLocal[0] == 1*) GOTO 0x0E33
438: 0x0E27 [0x4A] LocalPlayer looks at W (ID: 17735887/0x010EA0CF)
439: 0x0E30 [0x01] GOTO 0x0FFF
440: 0x0E33 [0x02] IF !(ExtData[1]->WorkLocal[0] == 2*) GOTO 0x0E47
441: 0x0E3B [0x4A] LocalPlayer looks at R (ID: 17735888/0x010EA0D0)
442: 0x0E44 [0x01] GOTO 0x0FFF
443: 0x0E47 [0x02] IF !(ExtData[1]->WorkLocal[0] == 3*) GOTO 0x0E5B
444: 0x0E4F [0x4A] LocalPlayer looks at T (ID: 17735889/0x010EA0D1)
445: 0x0E58 [0x01] GOTO 0x0FFF
446: 0x0E5B [0x02] IF !(ExtData[1]->WorkLocal[0] == 4*) GOTO 0x0E6F
447: 0x0E63 [0x4A] LocalPlayer looks at P (ID: 17735890/0x010EA0D2)
448: 0x0E6C [0x01] GOTO 0x0FFF
449: 0x0E6F [0x02] IF !(ExtData[1]->WorkLocal[0] == 5*) GOTO 0x0E83
450: 0x0E77 [0x4A] LocalPlayer looks at A (ID: 17735891/0x010EA0D3)
451: 0x0E80 [0x01] GOTO 0x0FFF
452: 0x0E83 [0x02] IF !(ExtData[1]->WorkLocal[0] == 6*) GOTO 0x0E97
453: 0x0E8B [0x4A] LocalPlayer looks at S (ID: 17735892/0x010EA0D4)
454: 0x0E94 [0x01] GOTO 0x0FFF
455: 0x0E97 [0x02] IF !(ExtData[1]->WorkLocal[0] == 7*) GOTO 0x0EAB
456: 0x0E9F [0x4A] LocalPlayer looks at D (ID: 17735893/0x010EA0D5)
457: 0x0EA8 [0x01] GOTO 0x0FFF
458: 0x0EAB [0x02] IF !(ExtData[1]->WorkLocal[0] == 8*) GOTO 0x0EBF
459: 0x0EB3 [0x4A] LocalPlayer looks at F (ID: 17735894/0x010EA0D6)
460: 0x0EBC [0x01] GOTO 0x0FFF
461: 0x0EBF [0x02] IF !(ExtData[1]->WorkLocal[0] == 9*) GOTO 0x0ED3
462: 0x0EC7 [0x4A] LocalPlayer looks at G (ID: 17735895/0x010EA0D7)
463: 0x0ED0 [0x01] GOTO 0x0FFF
464: 0x0ED3 [0x02] IF !(ExtData[1]->WorkLocal[0] == 10*) GOTO 0x0EE7
465: 0x0EDB [0x4A] LocalPlayer looks at H (ID: 17735896/0x010EA0D8)
466: 0x0EE4 [0x01] GOTO 0x0FFF
467: 0x0EE7 [0x02] IF !(ExtData[1]->WorkLocal[0] == 11*) GOTO 0x0EFB
468: 0x0EEF [0x4A] LocalPlayer looks at J (ID: 17735897/0x010EA0D9)
469: 0x0EF8 [0x01] GOTO 0x0FFF
470: 0x0EFB [0x02] IF !(ExtData[1]->WorkLocal[0] == 12*) GOTO 0x0F0F
471: 0x0F03 [0x4A] LocalPlayer looks at K (ID: 17735898/0x010EA0DA)
472: 0x0F0C [0x01] GOTO 0x0FFF
473: 0x0F0F [0x02] IF !(ExtData[1]->WorkLocal[0] == 13*) GOTO 0x0F23
474: 0x0F17 [0x4A] LocalPlayer looks at Z (ID: 17735899/0x010EA0DB)
475: 0x0F20 [0x01] GOTO 0x0FFF
476: 0x0F23 [0x02] IF !(ExtData[1]->WorkLocal[0] == 14*) GOTO 0x0F37
477: 0x0F2B [0x4A] LocalPlayer looks at X (ID: 17735900/0x010EA0DC)
478: 0x0F34 [0x01] GOTO 0x0FFF
479: 0x0F37 [0x02] IF !(ExtData[1]->WorkLocal[0] == 15*) GOTO 0x0F4B
480: 0x0F3F [0x4A] LocalPlayer looks at C (ID: 17735901/0x010EA0DD)
481: 0x0F48 [0x01] GOTO 0x0FFF
482: 0x0F4B [0x02] IF !(ExtData[1]->WorkLocal[0] == 16*) GOTO 0x0F5F
483: 0x0F53 [0x4A] LocalPlayer looks at B (ID: 17735902/0x010EA0DE)
484: 0x0F5C [0x01] GOTO 0x0FFF
485: 0x0F5F [0x02] IF !(ExtData[1]->WorkLocal[0] == 17*) GOTO 0x0F73
486: 0x0F67 [0x4A] LocalPlayer looks at N (ID: 17735903/0x010EA0DF)
487: 0x0F70 [0x01] GOTO 0x0FFF
488: 0x0F73 [0x02] IF !(ExtData[1]->WorkLocal[0] == 18*) GOTO 0x0F87
489: 0x0F7B [0x4A] LocalPlayer looks at M (ID: 17735904/0x010EA0E0)
490: 0x0F84 [0x01] GOTO 0x0FFF
491: 0x0F87 [0x02] IF !(ExtData[1]->WorkLocal[0] == 19*) GOTO 0x0F9B
492: 0x0F8F [0x4A] LocalPlayer looks at Unnamed NPC (ID: 17735905/0x010EA0E1)
493: 0x0F98 [0x01] GOTO 0x0FFF
494: 0x0F9B [0x02] IF !(ExtData[1]->WorkLocal[0] == 20*) GOTO 0x0FAF
495: 0x0FA3 [0x4A] LocalPlayer looks at Unnamed NPC (ID: 17735906/0x010EA0E2)
496: 0x0FAC [0x01] GOTO 0x0FFF
497: 0x0FAF [0x02] IF !(ExtData[1]->WorkLocal[0] == 21*) GOTO 0x0FC3
498: 0x0FB7 [0x4A] LocalPlayer looks at C (ID: 17735907/0x010EA0E3)
499: 0x0FC0 [0x01] GOTO 0x0FFF
500: 0x0FC3 [0x02] IF !(ExtData[1]->WorkLocal[0] == 22*) GOTO 0x0FD7
501: 0x0FCB [0x4A] LocalPlayer looks at Unnamed NPC (ID: 17735908/0x010EA0E4)
502: 0x0FD4 [0x01] GOTO 0x0FFF
503: 0x0FD7 [0x02] IF !(ExtData[1]->WorkLocal[0] == 23*) GOTO 0x0FEB
504: 0x0FDF [0x4A] LocalPlayer looks at Unnamed NPC (ID: 17735909/0x010EA0E5)
505: 0x0FE8 [0x01] GOTO 0x0FFF
506: 0x0FEB [0x02] IF !(ExtData[1]->WorkLocal[0] == 24*) GOTO 0x0FFF
507: 0x0FF3 [0x4A] LocalPlayer looks at Unnamed NPC (ID: 17735910/0x010EA0E6)
508: 0x0FFC [0x01] GOTO 0x0FFF

SUBROUTINE_0FFF:
509: 0x0FFF [0x1B] RETURN
```

#### Data or dead code:

```
# Dead code (unreachable instructions):
     0x0641 [0x01] GOTO 0x0655
     0x0652 [0x01] GOTO 0x0655
# Dead code (unreachable instructions):
     0x072C [0x01] GOTO 0x07FA
     0x07E6 [0x01] GOTO 0x07F7
     0x07F4 [0x01] GOTO 0x07F7
# Dead code (unreachable instructions):
     0x0D75 [0x01] GOTO 0x0E04
     0x0E04 [0x01] GOTO 0x0E0A
     0x0E0A [0x00] END_REQSTACK()
```

### Event 601

#### Metadata

| Field        | Value      |
|--------------|------------|
| Entrypoint   | 0x1000     |
| Data Size    | 2270 bytes |
| Instructions | 278        |

```
      00 01 02 03 04 05 06 07  08 09 0A 0B 0C 0D 0E 0F
      -- -- -- -- -- -- -- --  -- -- -- -- -- -- -- --
1000: 42 69 00 0E 80 03 12 00  08 10 9C 13 00 03 0E 00  Bi..............
1010: 80 7F 03 0F 00 82 7F 03  10 00 81 7F 03 11 00 83  ................
1020: 7F 02 13 00 03 80 00 36  10 03 14 00 56 80 03 15  .......6....V...
1030: 00 57 80 01 40 10 03 14  00 58 80 03 15 00 59 80  .W..@....X....Y.
1040: 02 13 00 0B 80 00 48 10  06 01 10 92 01 F8 FF FF  ......H.........
1050: 7F 46 01 38 17 80 77 18  80 02 80 37 5A 80 22 80  .F.8..w....7Z.".
1060: 5B 80 5C 80 1E F8 FF FF  7F 2F 00 C9 A0 0E 01 4E  [.\....../.....N
1070: 00 C9 A0 0E 01 28 80 C9  A0 0E 01 04 BA C9 A0 0E  .....(..........
1080: 01 5D 80 22 80 5B 80 5C  80 2F 00 E7 A0 0E 01 4E  .].".[.\./.....N
1090: 00 E7 A0 0E 01 2F 00 E8  A0 0E 01 4E 00 E8 A0 0E  ...../.....N....
10A0: 01 2F 00 E9 A0 0E 01 4E  00 E9 A0 0E 01 2F 00 EA  ./.....N...../..
10B0: A0 0E 01 4E 00 EA A0 0E  01 2F 00 EB A0 0E 01 4E  ...N...../.....N
10C0: 00 EB A0 0E 01 2F 00 EC  A0 0E 01 4E 00 EC A0 0E  ...../.....N....
10D0: 01 02 13 00 0B 80 00 F3  10 03 00 00 59 80 07 00  ............Y...
10E0: 00 5E 80 BA EC A0 0E 01  5F 80 00 00 5B 80 5C 80  .^......_...[.\.
10F0: 01 00 11 BA EC A0 0E 01  60 80 61 80 5B 80 5C 80  ........`.a.[.\.
1100: 2F 00 ED A0 0E 01 4E 00  ED A0 0E 01 2F 00 CE A0  /.....N...../...
1110: 0E 01 4E 00 CE A0 0E 01  2F 00 CF A0 0E 01 4E 00  ..N...../.....N.
1120: CF A0 0E 01 2F 00 D0 A0  0E 01 4E 00 D0 A0 0E 01  ..../.....N.....
1130: 2F 00 D1 A0 0E 01 4E 00  D1 A0 0E 01 2F 00 D2 A0  /.....N...../...
1140: 0E 01 4E 00 D2 A0 0E 01  2F 00 D3 A0 0E 01 4E 00  ..N...../.....N.
1150: D3 A0 0E 01 2F 00 D4 A0  0E 01 4E 00 D4 A0 0E 01  ..../.....N.....
1160: 2F 00 D5 A0 0E 01 4E 00  D5 A0 0E 01 2F 00 D6 A0  /.....N...../...
1170: 0E 01 4E 00 D6 A0 0E 01  2F 00 D7 A0 0E 01 4E 00  ..N...../.....N.
1180: D7 A0 0E 01 2F 00 D8 A0  0E 01 4E 00 D8 A0 0E 01  ..../.....N.....
1190: 2F 00 D9 A0 0E 01 4E 00  D9 A0 0E 01 2F 00 DA A0  /.....N...../...
11A0: 0E 01 4E 00 DA A0 0E 01  2F 00 DB A0 0E 01 4E 00  ..N...../.....N.
11B0: DB A0 0E 01 2F 00 DC A0  0E 01 4E 00 DC A0 0E 01  ..../.....N.....
11C0: 2F 00 DD A0 0E 01 4E 00  DD A0 0E 01 2F 00 DE A0  /.....N...../...
11D0: 0E 01 4E 00 DE A0 0E 01  2F 00 DF A0 0E 01 4E 00  ..N...../.....N.
11E0: DF A0 0E 01 2F 00 E0 A0  0E 01 4E 00 E0 A0 0E 01  ..../.....N.....
11F0: 02 13 00 0B 80 00 1C 12  2F 00 E1 A0 0E 01 4E 00  ......../.....N.
1200: E1 A0 0E 01 2F 00 E2 A0  0E 01 4E 00 E2 A0 0E 01  ..../.....N.....
1210: 2F 00 E3 A0 0E 01 4E 00  E3 A0 0E 01 03 00 00 62  /.....N........b
1220: 80 07 00 00 04 80 BA CE  A0 0E 01 63 80 64 80 00  ...........c.d..
1230: 00 34 80 BA CF A0 0E 01  65 80 64 80 00 00 34 80  .4......e.d...4.
1240: BA D0 A0 0E 01 66 80 64  80 62 80 34 80 BA D1 A0  .....f.d.b.4....
1250: 0E 01 67 80 64 80 62 80  34 80 BA D2 A0 0E 01 68  ..g.d.b.4......h
1260: 80 64 80 62 80 34 80 BA  D3 A0 0E 01 69 80 57 80  .d.b.4......i.W.
1270: 00 00 34 80 BA D4 A0 0E  01 5F 80 57 80 62 80 34  ..4......_.W.b.4
1280: 80 BA D5 A0 0E 01 6A 80  57 80 62 80 34 80 BA D6  ......j.W.b.4...
1290: A0 0E 01 6B 80 57 80 62  80 34 80 BA D7 A0 0E 01  ...k.W.b.4......
12A0: 6C 80 57 80 62 80 34 80  BA D8 A0 0E 01 6D 80 57  l.W.b.4......m.W
12B0: 80 62 80 34 80 BA D9 A0  0E 01 6E 80 57 80 62 80  .b.4......n.W.b.
12C0: 34 80 BA DA A0 0E 01 58  80 57 80 62 80 34 80 02  4......X.W.b.4..
12D0: 13 00 0B 80 00 F1 12 03  00 00 61 80 07 00 00 6F  ..........a....o
12E0: 80 BA DB A0 0E 01 60 80  00 00 62 80 34 80 01 FE  ......`...b.4...
12F0: 12 BA DB A0 0E 01 5F 80  59 80 62 80 34 80 BA DC  ......_.Y.b.4...
1300: A0 0E 01 6A 80 59 80 62  80 34 80 BA DD A0 0E 01  ...j.Y.b.4......
1310: 6B 80 59 80 62 80 34 80  BA DE A0 0E 01 6D 80 59  k.Y.b.4......m.Y
1320: 80 62 80 34 80 BA DF A0  0E 01 6E 80 59 80 62 80  .b.4......n.Y.b.
1330: 34 80 BA E0 A0 0E 01 14  00 15 00 62 80 34 80 02  4..........b.4..
1340: 13 00 0B 80 00 6E 13 BA  E1 A0 0E 01 70 80 64 80  .....n......p.d.
1350: 62 80 34 80 BA E2 A0 0E  01 56 80 57 80 62 80 34  b.4......V.W.b.4
1360: 80 BA E3 A0 0E 01 71 80  57 80 62 80 34 80 4A F0  ......q.W.b.4.J.
1370: FF FF 7F F0 FF FF 7F BA  F0 FF FF 7F 72 80 22 80  ............r.".
1380: 5B 80 5C 80 80 E7 A0 0E  01 80 E8 A0 0E 01 80 E9  [.\.............
1390: A0 0E 01 80 EA A0 0E 01  80 EB A0 0E 01 80 EC A0  ................
13A0: 0E 01 80 ED A0 0E 01 80  CE A0 0E 01 80 CF A0 0E  ................
13B0: 01 80 D0 A0 0E 01 80 D1  A0 0E 01 80 D2 A0 0E 01  ................
13C0: 80 D3 A0 0E 01 80 D4 A0  0E 01 80 D5 A0 0E 01 80  ................
13D0: D6 A0 0E 01 80 D7 A0 0E  01 80 D8 A0 0E 01 80 D9  ................
13E0: A0 0E 01 80 DA A0 0E 01  80 DB A0 0E 01 80 DC A0  ................
13F0: 0E 01 80 DD A0 0E 01 80  DE A0 0E 01 80 DF A0 0E  ................
1400: 01 80 E0 A0 0E 01 02 13  00 0B 80 00 1D 14 80 E1  ................
1410: A0 0E 01 80 E2 A0 0E 01  80 E3 A0 0E 01 45 20 80  .............E .
1420: F8 FF FF 7F F8 FF FF 7F  73 30 31 30 02 80 1C 04  ........s010....
1430: 80 45 01 80 F8 FF FF 7F  F8 FF FF 7F 66 64 69 31  .E..........fdi1
1440: 02 80 55 01 80 F8 FF FF  7F F8 FF FF 7F 66 64 69  ..U..........fdi
1450: 30 1C 0D 80 03 06 00 5A  80 03 09 00 5C 80 07 06  0......Z....\...
1460: 00 59 80 1F 00 06 00 22  80 5B 80 1F 01 39 09 00  .Y.....".[...9..
1470: 03 00 17 72 80 07 00 17  57 80 03 01 17 22 80 03  ...r....W...."..
1480: 02 17 5B 80 03 03 17 5C  80 28 80 F0 FF FF 7F 7C  ..[....\.(.....|
1490: 03 0A 00 5D 80 07 0A 00  73 80 03 00 17 0A 00 03  ...]....s.......
14A0: 01 17 22 80 03 02 17 5B  80 29 80 C9 A0 0E 01 05  .."....[.)......
14B0: 03 03 17 5C 80 28 80 C9  A0 0E 01 06 1C 0D 80 28  ...\.(.........(
14C0: 80 C9 A0 0E 01 07 1C 27  80 66 05 80 F8 FF FF 7F  .......'.f......
14D0: F8 FF FF 7F 74 6C 6B 30  1D 74 80 23 1D 75 80 23  ....tlk0.t.#.u.#
14E0: 03 02 10 0B 80 1D 76 80  23 66 05 80 F8 FF FF 7F  ......v.#f......
14F0: F8 FF FF 7F 74 6C 6B 31  28 80 EE A0 0E 01 03 1C  ....tlk1(.......
1500: 0D 80 71 00 71 01 71 02  02 12 00 00 80 00 14 15  ..q.q.q.........
1510: 48 77 80 23 02 12 00 03  80 00 20 15 48 77 80 23  Hw.#...... .Hw.#
1520: 02 02 10 02 80 80 2F 16  66 05 80 F8 FF FF 7F F8  ....../.f.......
1530: FF FF 7F 74 68 6B 31 1D  78 80 23 66 05 80 F8 FF  ...thk1.x.#f....
1540: FF 7F F8 FF FF 7F 74 68  6B 32 24 2F 80 00 80 02  ......thk2$/....
1550: 80 25 02 00 10 02 80 00  FC 15 66 07 80 F8 FF FF  .%........f.....
1560: 7F F8 FF FF 7F 64 69 73  30 1D 30 80 23 45 01 80  .....dis0.0.#E..
1570: F8 FF FF 7F F8 FF FF 7F  66 64 6F 31 02 80 55 01  ........fdo1..U.
1580: 80 F8 FF FF 7F F8 FF FF  7F 66 64 6F 31 BA F0 FF  .........fdo1...
1590: FF 7F 0E 00 0F 00 10 00  11 00 5C 00 31 80 5C 01  ..........\.1.\.
15A0: 31 80 52 20 80 F8 FF FF  7F F8 FF FF 7F 73 31 30  1.R .........s10
15B0: 00 37 32 80 33 80 02 80  34 80 1E F0 FF FF 7F 6F  .72.3...4......o
15C0: 70 78 38 02 80 46 00 45  01 80 F8 FF FF 7F F8 FF  px8..F.E........
15D0: FF 7F 66 64 69 31 02 80  55 01 80 F8 FF FF 7F F8  ..fdi1..U.......
15E0: FF FF 7F 66 64 69 30 1C  0D 80 02 12 00 00 80 00  ...fdi0.........
15F0: F3 15 21 03 01 10 0B 80  21 01 2C 16 02 00 10 00  ..!.....!.,.....
1600: 80 00 2C 16 66 05 80 F8  FF FF 7F F8 FF FF 7F 74  ..,.f..........t
1610: 6C 6B 30 1D 79 80 23 66  05 80 F8 FF FF 7F F8 FF  lk0.y.#f........
1620: FF 7F 74 6C 6B 31 01 FF  14 01 2C 16 01 DD 18 02  ..tlk1....,.....
1630: 02 10 00 80 80 2C 17 AD  04 7A 80 F0 FF FF 7F F0  .....,...z......
1640: FF FF 7F 1C 0D 80 6E F0  FF FF 7F 07 80 99 F0 FF  ......n.........
1650: FF 7F 1C 27 80 7A 00 EE  A0 0E 01 28 80 C9 A0 0E  ...'.z.....(....
1660: 01 07 2B C9 A0 0E 01 4C  80 23 1C 0D 80 48 7B 80  ..+....L.#...H{.
1670: 23 1C 0D 80 6E F8 FF FF  7F 3B 80 99 F8 FF FF 7F  #...n....;......
1680: 1C 25 80 66 05 80 F8 FF  FF 7F F8 FF FF 7F 74 6C  .%.f..........tl
1690: 6B 30 1D 7C 80 23 1D 7D  80 23 66 05 80 F8 FF FF  k0.|.#.}.#f.....
16A0: 7F F8 FF FF 7F 74 6C 6B  31 6E F0 FF FF 7F 3B 80  .....tlk1n....;.
16B0: 99 F0 FF FF 7F 99 F0 FF  FF 7F 28 80 C9 A0 0E 01  ..........(.....
16C0: 07 27 80 E7 A0 0E 01 04  27 80 E8 A0 0E 01 04 27  .'......'......'
16D0: 80 E9 A0 0E 01 04 27 80  EA A0 0E 01 02 27 80 EB  ......'......'..
16E0: A0 0E 01 02 27 80 EC A0  0E 01 02 27 80 ED A0 0E  ....'......'....
16F0: 01 02 1C 27 80 02 12 00  00 80 00 FE 16 21 45 01  ...'.........!E.
1700: 80 F8 FF FF 7F F8 FF FF  7F 66 64 6F 31 02 80 55  .........fdo1..U
1710: 01 80 F8 FF FF 7F F8 FF  FF 7F 66 64 6F 31 03 01  ..........fdo1..
1720: 10 08 80 30 69 01 0E 80  21 01 DD 18 02 02 10 08  ...0i...!.......
1730: 80 80 DD 18 AD 04 7A 80  F0 FF FF 7F F0 FF FF 7F  ......z.........
1740: 1C 0D 80 6E F0 FF FF 7F  07 80 99 F0 FF FF 7F 1C  ...n............
1750: 27 80 2B C9 A0 0E 01 46  80 23 1C 0D 80 48 7E 80  '.+....F.#...H~.
1760: 23 1C 0D 80 02 03 10 00  80 80 94 17 66 05 80 F8  #...........f...
1770: FF FF 7F F8 FF FF 7F 74  68 6B 31 1D 7F 80 23 66  .......thk1...#f
1780: 05 80 F8 FF FF 7F F8 FF  FF 7F 74 68 6B 32 01 FF  ..........thk2..
1790: 14 01 DA 18 02 03 10 08  80 80 C4 17 66 05 80 F8  ............f...
17A0: FF FF 7F F8 FF FF 7F 74  68 6B 31 1D 80 80 23 66  .......thk1...#f
17B0: 05 80 F8 FF FF 7F F8 FF  FF 7F 74 68 6B 32 01 FF  ..........thk2..
17C0: 14 01 DA 18 02 03 10 0B  80 80 DA 18 7A 00 EE A0  ............z...
17D0: 0E 01 66 07 80 F8 FF FF  7F F8 FF FF 7F 64 69 73  ..f..........dis
17E0: 30 1D 4A 80 23 6E F0 FF  FF 7F 05 80 99 F0 FF FF  0.J.#n..........
17F0: 7F 99 F0 FF FF 7F 28 80  C9 A0 0E 01 09 48 4B 80  ......(......HK.
1800: 23 1C 0D 80 66 05 80 F8  FF FF 7F F8 FF FF 7F 74  #...f..........t
1810: 6C 6B 30 1D 09 80 23 66  05 80 F8 FF FF 7F F8 FF  lk0...#f........
1820: FF 7F 74 6C 6B 31 66 05  80 F8 FF FF 7F F8 FF FF  ..tlk1f.........
1830: 7F 74 68 6B 31 1D 0A 80  23 66 05 80 F8 FF FF 7F  .thk1...#f......
1840: F8 FF FF 7F 74 68 6B 32  1C 0D 80 45 01 80 F8 FF  ....thk2...E....
1850: FF 7F F8 FF FF 7F 66 64  6F 31 02 80 55 01 80 F8  ......fdo1..U...
1860: FF FF 7F F8 FF FF 7F 66  64 6F 31 BA F0 FF FF 7F  .......fdo1.....
1870: 0E 00 0F 00 10 00 11 00  5C 00 31 80 5C 01 31 80  ........\.1.\.1.
1880: 52 20 80 F8 FF FF 7F F8  FF FF 7F 73 31 30 00 37  R .........s10.7
1890: 32 80 33 80 02 80 34 80  1E F0 FF FF 7F 6F 70 78  2.3...4......opx
18A0: 38 02 80 46 00 45 01 80  F8 FF FF 7F F8 FF FF 7F  8..F.E..........
18B0: 66 64 69 31 02 80 55 01  80 F8 FF FF 7F F8 FF FF  fdi1..U.........
18C0: 7F 66 64 69 30 1C 0D 80  02 12 00 00 80 00 D1 18  .fdi0...........
18D0: 21 03 01 10 00 80 21 01  DA 18 01 DD 18 00        !.....!.......  
```

#### Opcodes

```
  0: 0x1000 [0x42] SET_CLI_EVENT_CANCEL_DATA()
  1: 0x1001 [0x69] SET_SOUND_VOLUME: Unmute System/Zone/Master
  2: 0x1005 [0x03] ExtData[1]->WorkLocal[18] = Work_Zone[8]
  3: 0x100A [0x9C] STORE_CLIENT_LANGUAGE_ID(result=0x13)
  4: 0x100D [0x03] ExtData[1]->WorkLocal[14] = LocalPlayer->LocalPosition.LocalX * 1000.0
  5: 0x1012 [0x03] ExtData[1]->WorkLocal[15] = LocalPlayer->LocalPosition.LocalY * 1000.0
  6: 0x1017 [0x03] ExtData[1]->WorkLocal[16] = LocalPlayer->LocalPosition.LocalZ * 1000.0
  7: 0x101C [0x03] ExtData[1]->WorkLocal[17] = enDirCli(LocalPlayer->LocalPosition.Unknown0000) * 4096.0 * 0.15915963
  8: 0x1021 [0x02] IF !(ExtData[1]->WorkLocal[19] == 4*) GOTO 0x1036
  9: 0x1029 [0x03] ExtData[1]->WorkLocal[20] = 4294848546*
 10: 0x102E [0x03] ExtData[1]->WorkLocal[21] = 4294959296*
 11: 0x1033 [0x01] GOTO 0x1040
 12: 0x1036 [0x03] ExtData[1]->WorkLocal[20] = 4294847046*
 13: 0x103B [0x03] ExtData[1]->WorkLocal[21] = 4294958296*

SUBROUTINE_1040:
 14: 0x1040 [0x02] IF !(ExtData[1]->WorkLocal[19] == 3*) GOTO 0x1048
 15: 0x1048 [0x06] Work_Zone[1] = 0
 16: 0x104B [0x92] EventEntity->Render.Flags3 ^= 0x01
 17: 0x1051 [0x46] CAMERA_CONTROL: Disable user control
 18: 0x1053 [0x38] SET_CLIENT_EVENT_MODE(mode=27*)
 19: 0x1056 [0x77] SET_EVENT_TIME_WEATHER(hour=15*, weather=0*)
 20: 0x105B [0x37] UPDATE_EVENT_POSITION_AND_DIR: x=-113.250*, z=-5.500*, y=0.044*, direction=89.9°*
 21: 0x1064 [0x1E] EventEntity looks at EventEntity and starts talking
 22: 0x1069 [0x2F] Chocobo (ID: 17735881/0x010EA0C9)->Render.Flags0 &= ~0x80000 // Bit 19
 23: 0x106F [0x4E] SET_ENTITY_HIDE_FLAG: Show Chocobo (ID: 17735881/0x010EA0C9)
 24: 0x1075 [0x28] REQ_SET_WITH_CONDITIONS(priority=0x80, target_entity=Chocobo (ID: 17735881/0x010EA0C9), tag_num=0x04)
 25: 0x107C [0xBA] SET_ENTITY_POSITION(entity_id=Chocobo (ID: 17735881/0x010EA0C9), pos_x=-132.250*, pos_z=-5.500*, pos_y=0.044*, direction=89.9°*)
 26: 0x1089 [0x2F] I (ID: 17735911/0x010EA0E7)->Render.Flags0 &= ~0x80000 // Bit 19
 27: 0x108F [0x4E] SET_ENTITY_HIDE_FLAG: Show I (ID: 17735911/0x010EA0E7)
 28: 0x1095 [0x2F] L (ID: 17735912/0x010EA0E8)->Render.Flags0 &= ~0x80000 // Bit 19
 29: 0x109B [0x4E] SET_ENTITY_HIDE_FLAG: Show L (ID: 17735912/0x010EA0E8)
 30: 0x10A1 [0x2F] O (ID: 17735913/0x010EA0E9)->Render.Flags0 &= ~0x80000 // Bit 19
 31: 0x10A7 [0x4E] SET_ENTITY_HIDE_FLAG: Show O (ID: 17735913/0x010EA0E9)
 32: 0x10AD [0x2F] V (ID: 17735914/0x010EA0EA)->Render.Flags0 &= ~0x80000 // Bit 19
 33: 0x10B3 [0x4E] SET_ENTITY_HIDE_FLAG: Show V (ID: 17735914/0x010EA0EA)
 34: 0x10B9 [0x2F] E (ID: 17735915/0x010EA0EB)->Render.Flags0 &= ~0x80000 // Bit 19
 35: 0x10BF [0x4E] SET_ENTITY_HIDE_FLAG: Show E (ID: 17735915/0x010EA0EB)
 36: 0x10C5 [0x2F] Y (ID: 17735916/0x010EA0EC)->Render.Flags0 &= ~0x80000 // Bit 19
 37: 0x10CB [0x4E] SET_ENTITY_HIDE_FLAG: Show Y (ID: 17735916/0x010EA0EC)
 38: 0x10D1 [0x02] IF !(ExtData[1]->WorkLocal[19] == 3*) GOTO 0x10F3
 39: 0x10D9 [0x03] ExtData[1]->WorkLocal[0] = 4294958296*
 40: 0x10DE [0x07] ExtData[1]->WorkLocal[0] += 4294967196*
 41: 0x10E3 [0xBA] SET_ENTITY_POSITION(entity_id=Y (ID: 17735916/0x010EA0EC), pos_x=-124.750*, pos_z=ExtData[1]->WorkLocal[0], pos_y=0.044*, direction=89.9°*)
 42: 0x10F0 [0x01] GOTO 0x1100
 43: 0x10F3 [0xBA] SET_ENTITY_POSITION(entity_id=Y (ID: 17735916/0x010EA0EC), pos_x=-122.250*, pos_z=-7.100*, pos_y=0.044*, direction=89.9°*)

SUBROUTINE_1100:
 44: 0x1100 [0x2F] U (ID: 17735917/0x010EA0ED)->Render.Flags0 &= ~0x80000 // Bit 19
 45: 0x1106 [0x4E] SET_ENTITY_HIDE_FLAG: Show U (ID: 17735917/0x010EA0ED)
 46: 0x110C [0x2F] Q (ID: 17735886/0x010EA0CE)->Render.Flags0 &= ~0x80000 // Bit 19
 47: 0x1112 [0x4E] SET_ENTITY_HIDE_FLAG: Show Q (ID: 17735886/0x010EA0CE)
 48: 0x1118 [0x2F] W (ID: 17735887/0x010EA0CF)->Render.Flags0 &= ~0x80000 // Bit 19
 49: 0x111E [0x4E] SET_ENTITY_HIDE_FLAG: Show W (ID: 17735887/0x010EA0CF)
 50: 0x1124 [0x2F] R (ID: 17735888/0x010EA0D0)->Render.Flags0 &= ~0x80000 // Bit 19
 51: 0x112A [0x4E] SET_ENTITY_HIDE_FLAG: Show R (ID: 17735888/0x010EA0D0)
 52: 0x1130 [0x2F] T (ID: 17735889/0x010EA0D1)->Render.Flags0 &= ~0x80000 // Bit 19
 53: 0x1136 [0x4E] SET_ENTITY_HIDE_FLAG: Show T (ID: 17735889/0x010EA0D1)
 54: 0x113C [0x2F] P (ID: 17735890/0x010EA0D2)->Render.Flags0 &= ~0x80000 // Bit 19
 55: 0x1142 [0x4E] SET_ENTITY_HIDE_FLAG: Show P (ID: 17735890/0x010EA0D2)
 56: 0x1148 [0x2F] A (ID: 17735891/0x010EA0D3)->Render.Flags0 &= ~0x80000 // Bit 19
 57: 0x114E [0x4E] SET_ENTITY_HIDE_FLAG: Show A (ID: 17735891/0x010EA0D3)
 58: 0x1154 [0x2F] S (ID: 17735892/0x010EA0D4)->Render.Flags0 &= ~0x80000 // Bit 19
 59: 0x115A [0x4E] SET_ENTITY_HIDE_FLAG: Show S (ID: 17735892/0x010EA0D4)
 60: 0x1160 [0x2F] D (ID: 17735893/0x010EA0D5)->Render.Flags0 &= ~0x80000 // Bit 19
 61: 0x1166 [0x4E] SET_ENTITY_HIDE_FLAG: Show D (ID: 17735893/0x010EA0D5)
 62: 0x116C [0x2F] F (ID: 17735894/0x010EA0D6)->Render.Flags0 &= ~0x80000 // Bit 19
 63: 0x1172 [0x4E] SET_ENTITY_HIDE_FLAG: Show F (ID: 17735894/0x010EA0D6)
 64: 0x1178 [0x2F] G (ID: 17735895/0x010EA0D7)->Render.Flags0 &= ~0x80000 // Bit 19
 65: 0x117E [0x4E] SET_ENTITY_HIDE_FLAG: Show G (ID: 17735895/0x010EA0D7)
 66: 0x1184 [0x2F] H (ID: 17735896/0x010EA0D8)->Render.Flags0 &= ~0x80000 // Bit 19
 67: 0x118A [0x4E] SET_ENTITY_HIDE_FLAG: Show H (ID: 17735896/0x010EA0D8)
 68: 0x1190 [0x2F] J (ID: 17735897/0x010EA0D9)->Render.Flags0 &= ~0x80000 // Bit 19
 69: 0x1196 [0x4E] SET_ENTITY_HIDE_FLAG: Show J (ID: 17735897/0x010EA0D9)
 70: 0x119C [0x2F] K (ID: 17735898/0x010EA0DA)->Render.Flags0 &= ~0x80000 // Bit 19
 71: 0x11A2 [0x4E] SET_ENTITY_HIDE_FLAG: Show K (ID: 17735898/0x010EA0DA)
 72: 0x11A8 [0x2F] Z (ID: 17735899/0x010EA0DB)->Render.Flags0 &= ~0x80000 // Bit 19
 73: 0x11AE [0x4E] SET_ENTITY_HIDE_FLAG: Show Z (ID: 17735899/0x010EA0DB)
 74: 0x11B4 [0x2F] X (ID: 17735900/0x010EA0DC)->Render.Flags0 &= ~0x80000 // Bit 19
 75: 0x11BA [0x4E] SET_ENTITY_HIDE_FLAG: Show X (ID: 17735900/0x010EA0DC)
 76: 0x11C0 [0x2F] C (ID: 17735901/0x010EA0DD)->Render.Flags0 &= ~0x80000 // Bit 19
 77: 0x11C6 [0x4E] SET_ENTITY_HIDE_FLAG: Show C (ID: 17735901/0x010EA0DD)
 78: 0x11CC [0x2F] B (ID: 17735902/0x010EA0DE)->Render.Flags0 &= ~0x80000 // Bit 19
 79: 0x11D2 [0x4E] SET_ENTITY_HIDE_FLAG: Show B (ID: 17735902/0x010EA0DE)
 80: 0x11D8 [0x2F] N (ID: 17735903/0x010EA0DF)->Render.Flags0 &= ~0x80000 // Bit 19
 81: 0x11DE [0x4E] SET_ENTITY_HIDE_FLAG: Show N (ID: 17735903/0x010EA0DF)
 82: 0x11E4 [0x2F] M (ID: 17735904/0x010EA0E0)->Render.Flags0 &= ~0x80000 // Bit 19
 83: 0x11EA [0x4E] SET_ENTITY_HIDE_FLAG: Show M (ID: 17735904/0x010EA0E0)
 84: 0x11F0 [0x02] IF !(ExtData[1]->WorkLocal[19] == 3*) GOTO 0x121C
 85: 0x11F8 [0x2F] Unnamed NPC (ID: 17735905/0x010EA0E1)->Render.Flags0 &= ~0x80000 // Bit 19
 86: 0x11FE [0x4E] SET_ENTITY_HIDE_FLAG: Show Unnamed NPC (ID: 17735905/0x010EA0E1)
 87: 0x1204 [0x2F] Unnamed NPC (ID: 17735906/0x010EA0E2)->Render.Flags0 &= ~0x80000 // Bit 19
 88: 0x120A [0x4E] SET_ENTITY_HIDE_FLAG: Show Unnamed NPC (ID: 17735906/0x010EA0E2)
 89: 0x1210 [0x2F] C (ID: 17735907/0x010EA0E3)->Render.Flags0 &= ~0x80000 // Bit 19
 90: 0x1216 [0x4E] SET_ENTITY_HIDE_FLAG: Show C (ID: 17735907/0x010EA0E3)
 91: 0x121C [0x03] ExtData[1]->WorkLocal[0] = 740*
 92: 0x1221 [0x07] ExtData[1]->WorkLocal[0] += 30*
 93: 0x1226 [0xBA] SET_ENTITY_POSITION(entity_id=Q (ID: 17735886/0x010EA0CE), pos_x=-126.000*, pos_z=-7.000*, pos_y=ExtData[1]->WorkLocal[0], direction=377476129.3°*)
 94: 0x1233 [0xBA] SET_ENTITY_POSITION(entity_id=W (ID: 17735887/0x010EA0CF), pos_x=-125.250*, pos_z=-7.000*, pos_y=ExtData[1]->WorkLocal[0], direction=377476129.3°*)
 95: 0x1240 [0xBA] SET_ENTITY_POSITION(entity_id=R (ID: 17735888/0x010EA0D0), pos_x=-123.750*, pos_z=-7.000*, pos_y=0.740*, direction=377476129.3°*)
 96: 0x124D [0xBA] SET_ENTITY_POSITION(entity_id=T (ID: 17735889/0x010EA0D1), pos_x=-123.000*, pos_z=-7.000*, pos_y=0.740*, direction=377476129.3°*)
 97: 0x125A [0xBA] SET_ENTITY_POSITION(entity_id=P (ID: 17735890/0x010EA0D2), pos_x=-119.250*, pos_z=-7.000*, pos_y=0.740*, direction=377476129.3°*)
 98: 0x1267 [0xBA] SET_ENTITY_POSITION(entity_id=A (ID: 17735891/0x010EA0D3), pos_x=-125.500*, pos_z=-8.000*, pos_y=ExtData[1]->WorkLocal[0], direction=377476129.3°*)
 99: 0x1274 [0xBA] SET_ENTITY_POSITION(entity_id=S (ID: 17735892/0x010EA0D4), pos_x=-124.750*, pos_z=-8.000*, pos_y=0.740*, direction=377476129.3°*)
100: 0x1281 [0xBA] SET_ENTITY_POSITION(entity_id=D (ID: 17735893/0x010EA0D5), pos_x=-124.000*, pos_z=-8.000*, pos_y=0.740*, direction=377476129.3°*)
101: 0x128E [0xBA] SET_ENTITY_POSITION(entity_id=F (ID: 17735894/0x010EA0D6), pos_x=-123.250*, pos_z=-8.000*, pos_y=0.740*, direction=377476129.3°*)
102: 0x129B [0xBA] SET_ENTITY_POSITION(entity_id=G (ID: 17735895/0x010EA0D7), pos_x=-122.500*, pos_z=-8.000*, pos_y=0.740*, direction=377476129.3°*)
103: 0x12A8 [0xBA] SET_ENTITY_POSITION(entity_id=H (ID: 17735896/0x010EA0D8), pos_x=-121.750*, pos_z=-8.000*, pos_y=0.740*, direction=377476129.3°*)
104: 0x12B5 [0xBA] SET_ENTITY_POSITION(entity_id=J (ID: 17735897/0x010EA0D9), pos_x=-121.000*, pos_z=-8.000*, pos_y=0.740*, direction=377476129.3°*)
105: 0x12C2 [0xBA] SET_ENTITY_POSITION(entity_id=K (ID: 17735898/0x010EA0DA), pos_x=-120.250*, pos_z=-8.000*, pos_y=0.740*, direction=377476129.3°*)
106: 0x12CF [0x02] IF !(ExtData[1]->WorkLocal[19] == 3*) GOTO 0x12F1
107: 0x12D7 [0x03] ExtData[1]->WorkLocal[0] = 4294960196*
108: 0x12DC [0x07] ExtData[1]->WorkLocal[0] += 100*
109: 0x12E1 [0xBA] SET_ENTITY_POSITION(entity_id=Z (ID: 17735899/0x010EA0DB), pos_x=-122.250*, pos_z=ExtData[1]->WorkLocal[0], pos_y=0.740*, direction=377476129.3°*)
110: 0x12EE [0x01] GOTO 0x12FE
111: 0x12F1 [0xBA] SET_ENTITY_POSITION(entity_id=Z (ID: 17735899/0x010EA0DB), pos_x=-124.750*, pos_z=-9.000*, pos_y=0.740*, direction=377476129.3°*)

SUBROUTINE_12FE:
112: 0x12FE [0xBA] SET_ENTITY_POSITION(entity_id=X (ID: 17735900/0x010EA0DC), pos_x=-124.000*, pos_z=-9.000*, pos_y=0.740*, direction=377476129.3°*)
113: 0x130B [0xBA] SET_ENTITY_POSITION(entity_id=C (ID: 17735901/0x010EA0DD), pos_x=-123.250*, pos_z=-9.000*, pos_y=0.740*, direction=377476129.3°*)
114: 0x1318 [0xBA] SET_ENTITY_POSITION(entity_id=B (ID: 17735902/0x010EA0DE), pos_x=-121.750*, pos_z=-9.000*, pos_y=0.740*, direction=377476129.3°*)
115: 0x1325 [0xBA] SET_ENTITY_POSITION(entity_id=N (ID: 17735903/0x010EA0DF), pos_x=-121.000*, pos_z=-9.000*, pos_y=0.740*, direction=377476129.3°*)
116: 0x1332 [0xBA] SET_ENTITY_POSITION(entity_id=M (ID: 17735904/0x010EA0E0), pos_x=ExtData[1]->WorkLocal[20], pos_z=ExtData[1]->WorkLocal[21], pos_y=0.740*, direction=377476129.3°*)
117: 0x133F [0x02] IF !(ExtData[1]->WorkLocal[19] == 3*) GOTO 0x136E
118: 0x1347 [0xBA] SET_ENTITY_POSITION(entity_id=Unnamed NPC (ID: 17735905/0x010EA0E1), pos_x=-118.500*, pos_z=-7.000*, pos_y=0.740*, direction=377476129.3°*)
119: 0x1354 [0xBA] SET_ENTITY_POSITION(entity_id=Unnamed NPC (ID: 17735906/0x010EA0E2), pos_x=-118.750*, pos_z=-8.000*, pos_y=0.740*, direction=377476129.3°*)
120: 0x1361 [0xBA] SET_ENTITY_POSITION(entity_id=C (ID: 17735907/0x010EA0E3), pos_x=-118.000*, pos_z=-8.000*, pos_y=0.740*, direction=377476129.3°*)
121: 0x136E [0x4A] LocalPlayer looks at LocalPlayer
122: 0x1377 [0xBA] SET_ENTITY_POSITION(entity_id=LocalPlayer, pos_x=-112.250*, pos_z=-5.500*, pos_y=0.044*, direction=89.9°*)
123: 0x1384 [0x80] LOAD_WAIT(entity=I (ID: 17735911/0x010EA0E7))
124: 0x1389 [0x80] LOAD_WAIT(entity=L (ID: 17735912/0x010EA0E8))
125: 0x138E [0x80] LOAD_WAIT(entity=O (ID: 17735913/0x010EA0E9))
126: 0x1393 [0x80] LOAD_WAIT(entity=V (ID: 17735914/0x010EA0EA))
127: 0x1398 [0x80] LOAD_WAIT(entity=E (ID: 17735915/0x010EA0EB))
128: 0x139D [0x80] LOAD_WAIT(entity=Y (ID: 17735916/0x010EA0EC))
129: 0x13A2 [0x80] LOAD_WAIT(entity=U (ID: 17735917/0x010EA0ED))
130: 0x13A7 [0x80] LOAD_WAIT(entity=Q (ID: 17735886/0x010EA0CE))
131: 0x13AC [0x80] LOAD_WAIT(entity=W (ID: 17735887/0x010EA0CF))
132: 0x13B1 [0x80] LOAD_WAIT(entity=R (ID: 17735888/0x010EA0D0))
133: 0x13B6 [0x80] LOAD_WAIT(entity=T (ID: 17735889/0x010EA0D1))
134: 0x13BB [0x80] LOAD_WAIT(entity=P (ID: 17735890/0x010EA0D2))
