# 17735839 - Hantileon

## Common Data

| Field            | Value                  |
|------------------|------------------------|
| Zone             | Bastok Mines (ID: 234) |
| Block Size       | 692 bytes              |
| Total Events     | 16                     |
| References Count | 65                     |

## List of Events

| Event ID                   | Entrypoint   |   Size |   Instructions |
|----------------------------|--------------|--------|----------------|
| [65535](#event-65535)      | 0x0000       |      1 |              1 |
| [513](#event-513)          | 0x0001       |      1 |              1 |
| [509](#event-509)          | 0x0002       |      1 |              1 |
| [65535.1](#event-655351)   | 0x0003       |     15 |              3 |
| [65535.2](#event-655352)   | 0x0012       |     19 |              5 |
| [65535.3](#event-655353)   | 0x0025       |     15 |              3 |
| [65535.4](#event-655354)   | 0x0034       |     19 |              5 |
| [65535.5](#event-655355)   | 0x0047       |     35 |              4 |
| [65535.6](#event-655356)   | 0x006A       |     30 |              3 |
| [65535.7](#event-655357)   | 0x0088       |     35 |              4 |
| [65535.8](#event-655358)   | 0x00AB       |     35 |              4 |
| [65535.9](#event-655359)   | 0x00CE       |     35 |              4 |
| [65535.10](#event-6553510) | 0x00F1       |     17 |              5 |
| [65535.11](#event-6553511) | 0x0102       |     35 |              4 |
| [65535.12](#event-6553512) | 0x0125       |     35 |              4 |
| [65535.13](#event-6553513) | 0x0148       |     21 |              2 |

## DAT References (imed_data)

|   Index | Hex Value   |   Dec Value |
|---------|-------------|-------------|
|       0 | 0xFFFD9E57  |  4294811223 |
|       1 | 0xFFF567D4  |  4294272980 |
|       2 | 0xFFFF03B5  |  4294902709 |
|       3 | 0x0560      |        1376 |
|       4 | 0x000D      |          13 |
|       5 | 0xFFFDA28D  |  4294812301 |
|       6 | 0xFFF575CE  |  4294276558 |
|       7 | 0xFFFF038B  |  4294902667 |
|       8 | 0xFFFBD35D  |  4294693725 |
|       9 | 0xFFFDDD01  |  4294827265 |
|      10 | 0xFFFFC980  |  4294953344 |
|      11 | 0x0F44      |        3908 |
|      12 | 0xFFFBDD3E  |  4294696254 |
|      13 | 0xFFFDDD8F  |  4294827407 |
|      14 | 0xFFFFC93E  |  4294953278 |
|      15 | 0x001F      |          31 |
|      16 | 0x0014      |          20 |
|      17 | 0x0000      |           0 |
|      18 | 0xAB3F      |       43839 |
|      19 | 0xFFFE4BB6  |  4294855606 |
|      20 | 0x055E      |        1374 |
|      21 | 0x0178      |         376 |
|      22 | 0x0008      |           8 |
|      23 | 0x0009      |           9 |
|      24 | 0x000F      |          15 |
|      25 | 0x0007      |           7 |
|      26 | 0x0003      |           3 |
|      27 | 0xFFFFA870  |  4294944880 |
|      28 | 0xFFFF24F4  |  4294911220 |
|      29 | 0xFFFFF449  |  4294964297 |
|      30 | 0x033E      |         830 |
|      31 | 0x0004      |           4 |
|      32 | 0x0006      |           6 |
|      33 | 0x0015      |          21 |
|      34 | 0x0010      |          16 |
|      35 | 0x000A      |          10 |
|      36 | 0x0018      |          24 |
|      37 | 0xFFF99F08  |  4294549256 |
|      38 | 0xFFF91A75  |  4294515317 |
|      39 | 0x6029      |       24617 |
|      40 | 0x0CCA      |        3274 |
|      41 | 0x0002      |           2 |
|      42 | 0x0005      |           5 |
|      43 | 0x181C9     |       98761 |
|      44 | 0xFFFF0079  |  4294901881 |
|      45 | 0x03E4      |         996 |
|      46 | 0x0012      |          18 |
|      47 | 0xE525      |       58661 |
|      48 | 0xFFFFFB41  |  4294966081 |
|      49 | 0x1B57      |        6999 |
|      50 | 0x07A0      |        1952 |
|      51 | 0x005A      |          90 |
|      52 | 0x9570      |       38256 |
|      53 | 0xFFFFFE7E  |  4294966910 |
|      54 | 0x0001      |           1 |
|      55 | 0x0016      |          22 |
|      56 | 0x26A65     |      158309 |
|      57 | 0xFFFB209F  |  4294647967 |
|      58 | 0x044B      |        1099 |
|      59 | 0x00EC      |         236 |
|      60 | 0xFFFBC250  |  4294689360 |
|      61 | 0xFFFE649A  |  4294861978 |
|      62 | 0xFFFFD8F0  |  4294957296 |
|      63 | 0x0B64      |        2916 |
|      64 | 0x0065      |         101 |

## Events

### Event 65535

#### Metadata

| Field        | Value   |
|--------------|---------|
| Entrypoint   | 0x0000  |
| Data Size    | 1 bytes |
| Instructions | 1       |

```
      00 01 02 03 04 05 06 07  08 09 0A 0B 0C 0D 0E 0F
      -- -- -- -- -- -- -- --  -- -- -- -- -- -- -- --
0000: 00                                                .               
```

#### Opcodes

```
  0: 0x0000 [0x00] END_REQSTACK()
```

### Event 513

#### Metadata

| Field        | Value   |
|--------------|---------|
| Entrypoint   | 0x0001  |
| Data Size    | 1 bytes |
| Instructions | 1       |

```
      00 01 02 03 04 05 06 07  08 09 0A 0B 0C 0D 0E 0F
      -- -- -- -- -- -- -- --  -- -- -- -- -- -- -- --
0000:    00                                              .              
```

#### Opcodes

```
  0: 0x0001 [0x00] END_REQSTACK()
```

### Event 509

#### Metadata

| Field        | Value   |
|--------------|---------|
| Entrypoint   | 0x0002  |
| Data Size    | 1 bytes |
| Instructions | 1       |

```
      00 01 02 03 04 05 06 07  08 09 0A 0B 0C 0D 0E 0F
      -- -- -- -- -- -- -- --  -- -- -- -- -- -- -- --
0000:       00                                            .             
```

#### Opcodes

```
  0: 0x0002 [0x00] END_REQSTACK()
```

### Event 65535.1

#### Metadata

| Field        | Value    |
|--------------|----------|
| Entrypoint   | 0x0003   |
| Data Size    | 15 bytes |
| Instructions | 3        |

```
      00 01 02 03 04 05 06 07  08 09 0A 0B 0C 0D 0E 0F
      -- -- -- -- -- -- -- --  -- -- -- -- -- -- -- --
0000:          37 00 80 01 80  02 80 03 80 80 F8 FF FF     7............
0010: 7F 00                                             ..              
```

#### Opcodes

```
  0: 0x0003 [0x37] UPDATE_EVENT_POSITION_AND_DIR: x=-156.073*, z=-694.316*, y=-64.587*, direction=120.9°*
  1: 0x000C [0x80] LOAD_WAIT(entity=EventEntity)
  2: 0x0011 [0x00] END_REQSTACK()
```

### Event 65535.2

#### Metadata

| Field        | Value    |
|--------------|----------|
| Entrypoint   | 0x0012   |
| Data Size    | 19 bytes |
| Instructions | 5        |

```
      00 01 02 03 04 05 06 07  08 09 0A 0B 0C 0D 0E 0F
      -- -- -- -- -- -- -- --  -- -- -- -- -- -- -- --
0010:       32 04 80 1F 00 05  80 06 80 07 80 1F 01 1E    2.............
0020: F0 FF FF 7F 00                                    .....           
```

#### Opcodes

```
  0: 0x0012 [0x32] ExtData[1]->MainSpeed = 13* * 0.1
  1: 0x0015 [0x1F] MOVE_ENTITY: EventEntity moves to X=-154.995*, Z=-690.738*, Y=-64.629*
  2: 0x001D [0x1F] MOVE_ENTITY: Update entity position (mode=1)
  3: 0x001F [0x1E] EventEntity looks at LocalPlayer and starts talking
  4: 0x0024 [0x00] END_REQSTACK()
```

### Event 65535.3

#### Metadata

| Field        | Value    |
|--------------|----------|
| Entrypoint   | 0x0025   |
| Data Size    | 15 bytes |
| Instructions | 3        |

```
      00 01 02 03 04 05 06 07  08 09 0A 0B 0C 0D 0E 0F
      -- -- -- -- -- -- -- --  -- -- -- -- -- -- -- --
0020:                37 08 80  09 80 0A 80 0B 80 80 F8       7..........
0030: FF FF 7F 00                                       ....            
```

#### Opcodes

```
  0: 0x0025 [0x37] UPDATE_EVENT_POSITION_AND_DIR: x=-273.571*, z=-140.031*, y=-13.952*, direction=343.5°*
  1: 0x002E [0x80] LOAD_WAIT(entity=EventEntity)
  2: 0x0033 [0x00] END_REQSTACK()
```

### Event 65535.4

#### Metadata

| Field        | Value    |
|--------------|----------|
| Entrypoint   | 0x0034   |
| Data Size    | 19 bytes |
| Instructions | 5        |

```
      00 01 02 03 04 05 06 07  08 09 0A 0B 0C 0D 0E 0F
      -- -- -- -- -- -- -- --  -- -- -- -- -- -- -- --
0030:             32 04 80 1F  00 0C 80 0D 80 0E 80 1F      2...........
0040: 01 1E F0 FF FF 7F 00                              .......         
```

#### Opcodes

```
  0: 0x0034 [0x32] ExtData[1]->MainSpeed = 13* * 0.1
  1: 0x0037 [0x1F] MOVE_ENTITY: EventEntity moves to X=-271.042*, Z=-139.889*, Y=-14.018*
  2: 0x003F [0x1F] MOVE_ENTITY: Update entity position (mode=1)
  3: 0x0041 [0x1E] EventEntity looks at LocalPlayer and starts talking
  4: 0x0046 [0x00] END_REQSTACK()
```

### Event 65535.5

#### Metadata

| Field        | Value    |
|--------------|----------|
| Entrypoint   | 0x0047   |
| Data Size    | 35 bytes |
| Instructions | 4        |

```
      00 01 02 03 04 05 06 07  08 09 0A 0B 0C 0D 0E 0F
      -- -- -- -- -- -- -- --  -- -- -- -- -- -- -- --
0040:                      B6  0B 0F 80 10 80 11 80 10         .........
0050: 80 11 80 10 80 10 80 11  80 11 80 37 12 80 13 80  ...........7....
0060: 14 80 15 80 80 F8 FF FF  7F 00                    ..........      
```

#### Opcodes

```
  0: 0x0047 [0xB6] ENTITY_APPEARANCE_HANDLER(case=Full entity look, race=31*, hair=20*, head=0*, body=20*, hands=0*, legs=20*, feet=20*, main=0*, sub=0*)
  1: 0x005B [0x37] UPDATE_EVENT_POSITION_AND_DIR: x=43.839*, z=-111.690*, y=1.374*, direction=33.0°*
  2: 0x0064 [0x80] LOAD_WAIT(entity=EventEntity)
  3: 0x0069 [0x00] END_REQSTACK()
```

### Event 65535.6

#### Metadata

| Field        | Value    |
|--------------|----------|
| Entrypoint   | 0x006A   |
| Data Size    | 30 bytes |
| Instructions | 3        |

```
      00 01 02 03 04 05 06 07  08 09 0A 0B 0C 0D 0E 0F
      -- -- -- -- -- -- -- --  -- -- -- -- -- -- -- --
0060:                                B6 0B 16 80 17 80            ......
0070: 18 80 19 80 11 80 1A 80  19 80 11 80 11 80 37 1B  ..............7.
0080: 80 1C 80 1D 80 1E 80 00                           ........        
```

#### Opcodes

```
  0: 0x006A [0xB6] ENTITY_APPEARANCE_HANDLER(case=Full entity look, race=8*, hair=9*, head=15*, body=7*, hands=0*, legs=3*, feet=7*, main=0*, sub=0*)
  1: 0x007E [0x37] UPDATE_EVENT_POSITION_AND_DIR: x=-22.416*, z=-56.076*, y=-2.999*, direction=72.9°*
  2: 0x0087 [0x00] END_REQSTACK()
```

### Event 65535.7

#### Metadata

| Field        | Value    |
|--------------|----------|
| Entrypoint   | 0x0088   |
| Data Size    | 35 bytes |
| Instructions | 4        |

```
      00 01 02 03 04 05 06 07  08 09 0A 0B 0C 0D 0E 0F
      -- -- -- -- -- -- -- --  -- -- -- -- -- -- -- --
0080:                          B6 0B 1F 80 20 80 21 80          .... .!.
0090: 22 80 23 80 21 80 24 80  11 80 11 80 37 25 80 26  ".#.!.$.....7%.&
00A0: 80 27 80 28 80 80 F8 FF  FF 7F 00                 .'.(.......     
```

#### Opcodes

```
  0: 0x0088 [0xB6] ENTITY_APPEARANCE_HANDLER(case=Full entity look, race=4*, hair=6*, head=21*, body=16*, hands=10*, legs=21*, feet=24*, main=0*, sub=0*)
  1: 0x009C [0x37] UPDATE_EVENT_POSITION_AND_DIR: x=-418.040*, z=-451.979*, y=24.617*, direction=287.7°*
  2: 0x00A5 [0x80] LOAD_WAIT(entity=EventEntity)
  3: 0x00AA [0x00] END_REQSTACK()
```

### Event 65535.8

#### Metadata

| Field        | Value    |
|--------------|----------|
| Entrypoint   | 0x00AB   |
| Data Size    | 35 bytes |
| Instructions | 4        |

```
      00 01 02 03 04 05 06 07  08 09 0A 0B 0C 0D 0E 0F
      -- -- -- -- -- -- -- --  -- -- -- -- -- -- -- --
00A0:                                   B6 0B 29 80 19             ..)..
00B0: 80 11 80 04 80 2A 80 2A  80 2A 80 11 80 11 80 37  .....*.*.*.....7
00C0: 2B 80 2C 80 2D 80 20 80  80 F8 FF FF 7F 00        +.,.-. .......  
```

#### Opcodes

```
  0: 0x00AB [0xB6] ENTITY_APPEARANCE_HANDLER(case=Full entity look, race=2*, hair=7*, head=0*, body=13*, hands=5*, legs=5*, feet=5*, main=0*, sub=0*)
  1: 0x00BF [0x37] UPDATE_EVENT_POSITION_AND_DIR: x=98.761*, z=-65.415*, y=0.996*, direction=0.5°*
  2: 0x00C8 [0x80] LOAD_WAIT(entity=EventEntity)
  3: 0x00CD [0x00] END_REQSTACK()
```

### Event 65535.9

#### Metadata

| Field        | Value    |
|--------------|----------|
| Entrypoint   | 0x00CE   |
| Data Size    | 35 bytes |
| Instructions | 4        |

```
      00 01 02 03 04 05 06 07  08 09 0A 0B 0C 0D 0E 0F
      -- -- -- -- -- -- -- --  -- -- -- -- -- -- -- --
00C0:                                            B6 0B                ..
00D0: 16 80 20 80 2E 80 21 80  11 80 10 80 10 80 11 80  .. ...!.........
00E0: 11 80 37 2F 80 30 80 31  80 32 80 80 F8 FF FF 7F  ..7/.0.1.2......
00F0: 00                                                .               
```

#### Opcodes

```
  0: 0x00CE [0xB6] ENTITY_APPEARANCE_HANDLER(case=Full entity look, race=8*, hair=6*, head=18*, body=21*, hands=0*, legs=20*, feet=20*, main=0*, sub=0*)
  1: 0x00E2 [0x37] UPDATE_EVENT_POSITION_AND_DIR: x=58.661*, z=-1.215*, y=6.999*, direction=171.6°*
  2: 0x00EB [0x80] LOAD_WAIT(entity=EventEntity)
  3: 0x00F0 [0x00] END_REQSTACK()
```

### Event 65535.10

#### Metadata

| Field        | Value    |
|--------------|----------|
| Entrypoint   | 0x00F1   |
| Data Size    | 17 bytes |
| Instructions | 5        |

```
      00 01 02 03 04 05 06 07  08 09 0A 0B 0C 0D 0E 0F
      -- -- -- -- -- -- -- --  -- -- -- -- -- -- -- --
00F0:    1C 33 80 32 04 80 1F  00 34 80 35 80 31 80 1F   .3.2....4.5.1..
0100: 01 00                                             ..              
```

#### Opcodes

```
  0: 0x00F1 [0x1C] WAIT(90* ticks)
  1: 0x00F4 [0x32] ExtData[1]->MainSpeed = 13* * 0.1
  2: 0x00F7 [0x1F] MOVE_ENTITY: EventEntity moves to X=38.256*, Z=-0.386*, Y=6.999*
  3: 0x00FF [0x1F] MOVE_ENTITY: Update entity position (mode=1)
  4: 0x0101 [0x00] END_REQSTACK()
```

### Event 65535.11

#### Metadata

| Field        | Value    |
|--------------|----------|
| Entrypoint   | 0x0102   |
| Data Size    | 35 bytes |
| Instructions | 4        |

```
      00 01 02 03 04 05 06 07  08 09 0A 0B 0C 0D 0E 0F
      -- -- -- -- -- -- -- --  -- -- -- -- -- -- -- --
0100:       B6 0B 2A 80 36 80  11 80 37 80 37 80 37 80    ..*.6...7.7.7.
0110: 37 80 11 80 11 80 37 38  80 39 80 11 80 3A 80 80  7.....78.9...:..
0120: F8 FF FF 7F 00                                    .....           
```

#### Opcodes

```
  0: 0x0102 [0xB6] ENTITY_APPEARANCE_HANDLER(case=Full entity look, race=5*, hair=1*, head=0*, body=22*, hands=22*, legs=22*, feet=22*, main=0*, sub=0*)
  1: 0x0116 [0x37] UPDATE_EVENT_POSITION_AND_DIR: x=158.309*, z=-319.329*, y=0.000*, direction=96.6°*
  2: 0x011F [0x80] LOAD_WAIT(entity=EventEntity)
  3: 0x0124 [0x00] END_REQSTACK()
```

### Event 65535.12

#### Metadata

| Field        | Value    |
|--------------|----------|
| Entrypoint   | 0x0125   |
| Data Size    | 35 bytes |
| Instructions | 4        |

```
      00 01 02 03 04 05 06 07  08 09 0A 0B 0C 0D 0E 0F
      -- -- -- -- -- -- -- --  -- -- -- -- -- -- -- --
0120:                B6 0B 1A  80 11 80 10 80 10 80 10       ...........
0130: 80 10 80 10 80 3B 80 11  80 37 3C 80 3D 80 3E 80  .....;...7<.=.>.
0140: 3F 80 80 F8 FF FF 7F 00                           ?.......        
```

#### Opcodes

```
  0: 0x0125 [0xB6] ENTITY_APPEARANCE_HANDLER(case=Full entity look, race=3*, hair=0*, head=20*, body=20*, hands=20*, legs=20*, feet=20*, main=236*, sub=0*)
  1: 0x0139 [0x37] UPDATE_EVENT_POSITION_AND_DIR: x=-277.936*, z=-105.318*, y=-10.000*, direction=256.3°*
  2: 0x0142 [0x80] LOAD_WAIT(entity=EventEntity)
  3: 0x0147 [0x00] END_REQSTACK()
```

### Event 65535.13

#### Metadata

| Field        | Value    |
|--------------|----------|
| Entrypoint   | 0x0148   |
| Data Size    | 21 bytes |
| Instructions | 2        |

```
      00 01 02 03 04 05 06 07  08 09 0A 0B 0C 0D 0E 0F
      -- -- -- -- -- -- -- --  -- -- -- -- -- -- -- --
0140:                          B6 0B 1A 80 20 80 11 80          .... ...
0150: 40 80 40 80 40 80 40 80  11 80 11 80 00           @.@.@.@......   
```

#### Opcodes

```
  0: 0x0148 [0xB6] ENTITY_APPEARANCE_HANDLER(case=Full entity look, race=3*, hair=6*, head=0*, body=101*, hands=101*, legs=101*, feet=101*, main=0*, sub=0*)
  1: 0x015C [0x00] END_REQSTACK()
```
