# 17735830

## Common Data

| Field            | Value                  |
|------------------|------------------------|
| Zone             | Bastok Mines (ID: 234) |
| Block Size       | 1356 bytes             |
| Total Events     | 23                     |
| References Count | 112                    |

## List of Events

| Event ID                   | Entrypoint   |   Size |   Instructions |
|----------------------------|--------------|--------|----------------|
| [65535](#event-65535)      | 0x0000       |      1 |              1 |
| [65535.1](#event-655351)   | 0x0001       |     11 |              3 |
| [65535.2](#event-655352)   | 0x000C       |      5 |              2 |
| [545](#event-545)          | 0x0011       |      1 |              1 |
| [65535.3](#event-655353)   | 0x0012       |     15 |              3 |
| [65535.4](#event-655354)   | 0x0021       |     48 |             11 |
| [65535.5](#event-655355)   | 0x0051       |     48 |             11 |
| [65535.6](#event-655356)   | 0x0081       |      6 |              2 |
| [65535.7](#event-655357)   | 0x0087       |     15 |              3 |
| [65535.8](#event-655358)   | 0x0096       |     54 |             12 |
| [65535.9](#event-655359)   | 0x00CC       |     66 |             16 |
| [65535.10](#event-6553510) | 0x010E       |     15 |              3 |
| [65535.11](#event-6553511) | 0x011D       |     73 |             17 |
| [65535.12](#event-6553512) | 0x0166       |     50 |             12 |
| [65535.13](#event-6553513) | 0x0198       |     50 |             12 |
| [65535.14](#event-6553514) | 0x01CA       |     67 |             15 |
| [65535.15](#event-6553515) | 0x020D       |     14 |              4 |
| [65535.16](#event-6553516) | 0x021B       |     51 |             11 |
| [65535.17](#event-6553517) | 0x024E       |     14 |              4 |
| [65535.18](#event-6553518) | 0x025C       |     51 |             11 |
| [65535.19](#event-6553519) | 0x028F       |     59 |             13 |
| [65535.20](#event-6553520) | 0x02CA       |     69 |             15 |
| [65535.21](#event-6553521) | 0x030F       |     15 |              3 |

## DAT References (imed_data)

|   Index | Hex Value   |   Dec Value |
|---------|-------------|-------------|
|       0 | 0x0000      |           0 |
|       1 | 0xFFF6B752  |  4294358866 |
|       2 | 0x93FDF     |      606175 |
|       3 | 0x0003      |           3 |
|       4 | 0x0C17      |        3095 |
|       5 | 0x000A      |          10 |
|       6 | 0xFFF6B2B9  |  4294357689 |
|       7 | 0x935A1     |      603553 |
|       8 | 0x0116      |         278 |
|       9 | 0xFFF6BD63  |  4294360419 |
|      10 | 0x9359E     |      603550 |
|      11 | 0x008E      |         142 |
|      12 | 0x005A      |          90 |
|      13 | 0xFFF6BD47  |  4294360391 |
|      14 | 0x93EFA     |      605946 |
|      15 | 0x006B      |         107 |
|      16 | 0x0002      |           2 |
|      17 | 0x0013      |          19 |
|      18 | 0xFFF6D7C0  |  4294367168 |
|      19 | 0x8EF6A     |      585578 |
|      20 | 0x0274      |         628 |
|      21 | 0x011C      |         284 |
|      22 | 0xFFF6D0CA  |  4294365386 |
|      23 | 0x8F7DF     |      587743 |
|      24 | 0x0112      |         274 |
|      25 | 0xFFF6D779  |  4294367097 |
|      26 | 0x8FCC2     |      588994 |
|      27 | 0x015B      |         347 |
|      28 | 0xFFF6DB55  |  4294368085 |
|      29 | 0x8F169     |      586089 |
|      30 | 0x024A      |         586 |
|      31 | 0xFFF6DAA1  |  4294367905 |
|      32 | 0x8E6CF     |      583375 |
|      33 | 0x033E      |         830 |
|      34 | 0x001E      |          30 |
|      35 | 0xFFF6D3B3  |  4294366131 |
|      36 | 0x8F340     |      586560 |
|      37 | 0x01D0      |         464 |
|      38 | 0x0101      |         257 |
|      39 | 0x0078      |         120 |
|      40 | 0xFFF6D069  |  4294365289 |
|      41 | 0x8F7F4     |      587764 |
|      42 | 0x010C      |         268 |
|      43 | 0xFFF6D763  |  4294367075 |
|      44 | 0x8FB0E     |      588558 |
|      45 | 0x0171      |         369 |
|      46 | 0x003C      |          60 |
|      47 | 0xFFF6CFE0  |  4294365152 |
|      48 | 0x8F449     |      586825 |
|      49 | 0x0178      |         376 |
|      50 | 0x0862      |        2146 |
|      51 | 0xFFF6D8AC  |  4294367404 |
|      52 | 0x8FABD     |      588477 |
|      53 | 0x0175      |         373 |
|      54 | 0x0039      |          57 |
|      55 | 0xFFF6DB01  |  4294368001 |
|      56 | 0x90356     |      590678 |
|      57 | 0x0108      |         264 |
|      58 | 0x03BF      |         959 |
|      59 | 0xFFF6C73F  |  4294362943 |
|      60 | 0x8F234     |      586292 |
|      61 | 0x008A      |         138 |
|      62 | 0x0025      |          37 |
|      63 | 0x00F0      |         240 |
|      64 | 0xFFF6D6F8  |  4294366968 |
|      65 | 0x8E30A     |      582410 |
|      66 | 0x0322      |         802 |
|      67 | 0x0BD3      |        3027 |
|      68 | 0xFFF6DB94  |  4294368148 |
|      69 | 0x8FCF3     |      589043 |
|      70 | 0x0159      |         345 |
|      71 | 0xFFF6C79F  |  4294363039 |
|      72 | 0x8F34D     |      586573 |
|      73 | 0xFFF6CB4A  |  4294363978 |
|      74 | 0x8FAEF     |      588527 |
|      75 | 0x00C4      |         196 |
|      76 | 0xFFF6D269  |  4294365801 |
|      77 | 0x8F138     |      586040 |
|      78 | 0x01F0      |         496 |
|      79 | 0xFFF6D2EF  |  4294365935 |
|      80 | 0x8EB3B     |      584507 |
|      81 | 0x021E      |         542 |
|      82 | 0xFFF6D6A2  |  4294366882 |
|      83 | 0x8E8B3     |      583859 |
|      84 | 0x02C0      |         704 |
|      85 | 0xFFF6DAB0  |  4294367920 |
|      86 | 0x8EE3C     |      585276 |
|      87 | 0x029C      |         668 |
|      88 | 0xFFF6DC30  |  4294368304 |
|      89 | 0x8F5FC     |      587260 |
|      90 | 0x01D4      |         468 |
|      91 | 0xFFF6D87A  |  4294367354 |
|      92 | 0x8F6D2     |      587474 |
|      93 | 0x01BF      |         447 |
|      94 | 0xFFF6CEAA  |  4294364842 |
|      95 | 0x8FA2D     |      588333 |
|      96 | 0x00F7      |         247 |
|      97 | 0xFFF6CA0E  |  4294363662 |
|      98 | 0x8EFB9     |      585657 |
|      99 | 0x0090      |         144 |
|     100 | 0xFFF6CECB  |  4294364875 |
|     101 | 0x8E418     |      582680 |
|     102 | 0x018C      |         396 |
|     103 | 0xFFF6DB79  |  4294368121 |
|     104 | 0x8E4F3     |      582899 |
|     105 | 0x0356      |         854 |
|     106 | 0xFFF6DE60  |  4294368864 |
|     107 | 0x8F7D9     |      587737 |
|     108 | 0x019A      |         410 |
|     109 | 0xFFF6D8AE  |  4294367406 |
|     110 | 0x8FE78     |      589432 |
|     111 | 0x0146      |         326 |

## Events

### Event 65535

#### Metadata

| Field        | Value   |
|--------------|---------|
| Entrypoint   | 0x0000  |
| Data Size    | 1 bytes |
| Instructions | 1       |

```
      00 01 02 03 04 05 06 07  08 09 0A 0B 0C 0D 0E 0F
      -- -- -- -- -- -- -- --  -- -- -- -- -- -- -- --
0000: 00                                                .               
```

#### Opcodes

```
  0: 0x0000 [0x00] END_REQSTACK()
```

### Event 65535.1

#### Metadata

| Field        | Value    |
|--------------|----------|
| Entrypoint   | 0x0001   |
| Data Size    | 11 bytes |
| Instructions | 3        |

```
      00 01 02 03 04 05 06 07  08 09 0A 0B 0C 0D 0E 0F
      -- -- -- -- -- -- -- --  -- -- -- -- -- -- -- --
0000:    B4 01 00 00 00 80 B5  00 00 00 00               ...........    
```

#### Opcodes

```
  0: 0x0001 [0xB4] UI_WINDOW_STRING_HANDLER(case=0x01 - Copy string from event strings table, work_offset=ExtData[1]->WorkLocal[0], string_index=0*)
  1: 0x0007 [0xB5] SET_EVENT_ENTITY_NAME: Change EventEntity name to ExtData[1]->WorkLocal[0]
  2: 0x000B [0x00] END_REQSTACK()
```

### Event 65535.2

#### Metadata

| Field        | Value   |
|--------------|---------|
| Entrypoint   | 0x000C  |
| Data Size    | 5 bytes |
| Instructions | 2       |

```
      00 01 02 03 04 05 06 07  08 09 0A 0B 0C 0D 0E 0F
      -- -- -- -- -- -- -- --  -- -- -- -- -- -- -- --
0000:                                      B6 00 04 10              ....
0010: 00                                                .               
```

#### Opcodes

```
  0: 0x000C [0xB6] ENTITY_APPEARANCE_HANDLER(case=Hair style, value=Work_Zone[4])
  1: 0x0010 [0x00] END_REQSTACK()
```

### Event 545

#### Metadata

| Field        | Value   |
|--------------|---------|
| Entrypoint   | 0x0011  |
| Data Size    | 1 bytes |
| Instructions | 1       |

```
      00 01 02 03 04 05 06 07  08 09 0A 0B 0C 0D 0E 0F
      -- -- -- -- -- -- -- --  -- -- -- -- -- -- -- --
0010:    00                                              .              
```

#### Opcodes

```
  0: 0x0011 [0x00] END_REQSTACK()
```

### Event 65535.3

#### Metadata

| Field        | Value    |
|--------------|----------|
| Entrypoint   | 0x0012   |
| Data Size    | 15 bytes |
| Instructions | 3        |

```
      00 01 02 03 04 05 06 07  08 09 0A 0B 0C 0D 0E 0F
      -- -- -- -- -- -- -- --  -- -- -- -- -- -- -- --
0010:       37 01 80 02 80 03  80 04 80 03 04 00 00 80    7.............
0020: 00                                                .               
```

#### Opcodes

```
  0: 0x0012 [0x37] UPDATE_EVENT_POSITION_AND_DIR: x=-608.430*, z=606.175*, y=0.003*, direction=272.0°*
  1: 0x001B [0x03] ExtData[1]->WorkLocal[4] = 0*
  2: 0x0020 [0x00] END_REQSTACK()
```

### Event 65535.4

#### Metadata

| Field        | Value    |
|--------------|----------|
| Entrypoint   | 0x0021   |
| Data Size    | 48 bytes |
| Instructions | 11       |

```
      00 01 02 03 04 05 06 07  08 09 0A 0B 0C 0D 0E 0F
      -- -- -- -- -- -- -- --  -- -- -- -- -- -- -- --
0020:    02 04 00 00 80 00 50  00 32 05 80 1F 00 06 80   ......P.2......
0030: 07 80 08 80 1F 01 1F 00  09 80 0A 80 0B 80 1F 01  ................
0040: 1C 0C 80 1F 00 0D 80 0E  80 0F 80 1F 01 01 21 00  ..............!.
0050: 00                                                .               
```

#### Opcodes

```
  0: 0x0021 [0x02] IF !(ExtData[1]->WorkLocal[4] == 0*) GOTO 0x0050
  1: 0x0029 [0x32] ExtData[1]->MainSpeed = 10* * 0.1
  2: 0x002C [0x1F] MOVE_ENTITY: EventEntity moves to X=-609.607*, Z=603.553*, Y=0.278*
  3: 0x0034 [0x1F] MOVE_ENTITY: Update entity position (mode=1)
  4: 0x0036 [0x1F] MOVE_ENTITY: EventEntity moves to X=-606.877*, Z=603.550*, Y=0.142*
  5: 0x003E [0x1F] MOVE_ENTITY: Update entity position (mode=1)
  6: 0x0040 [0x1C] WAIT(90* ticks)
  7: 0x0043 [0x1F] MOVE_ENTITY: EventEntity moves to X=-606.905*, Z=605.946*, Y=0.107*
  8: 0x004B [0x1F] MOVE_ENTITY: Update entity position (mode=1)
  9: 0x004D [0x01] GOTO 0x0021
 10: 0x0050 [0x00] END_REQSTACK()
```

### Event 65535.5

#### Metadata

| Field        | Value    |
|--------------|----------|
| Entrypoint   | 0x0051   |
| Data Size    | 48 bytes |
| Instructions | 11       |

```
      00 01 02 03 04 05 06 07  08 09 0A 0B 0C 0D 0E 0F
      -- -- -- -- -- -- -- --  -- -- -- -- -- -- -- --
0050:    02 04 00 10 80 01 80  00 32 11 80 1F 00 06 80   ........2......
0060: 07 80 08 80 1F 01 1F 00  09 80 0A 80 0B 80 1F 01  ................
0070: 1C 0C 80 1F 00 0D 80 0E  80 0F 80 1F 01 01 51 00  ..............Q.
0080: 00                                                .               
```

#### Opcodes

```
  0: 0x0051 [0x02] IF !(ExtData[1]->WorkLocal[4] == 2*) GOTO 0x0080
  1: 0x0059 [0x32] ExtData[1]->MainSpeed = 19* * 0.1
  2: 0x005C [0x1F] MOVE_ENTITY: EventEntity moves to X=-609.607*, Z=603.553*, Y=0.278*
  3: 0x0064 [0x1F] MOVE_ENTITY: Update entity position (mode=1)
  4: 0x0066 [0x1F] MOVE_ENTITY: EventEntity moves to X=-606.877*, Z=603.550*, Y=0.142*
  5: 0x006E [0x1F] MOVE_ENTITY: Update entity position (mode=1)
  6: 0x0070 [0x1C] WAIT(90* ticks)
  7: 0x0073 [0x1F] MOVE_ENTITY: EventEntity moves to X=-606.905*, Z=605.946*, Y=0.107*
  8: 0x007B [0x1F] MOVE_ENTITY: Update entity position (mode=1)
  9: 0x007D [0x01] GOTO 0x0051
 10: 0x0080 [0x00] END_REQSTACK()
```

### Event 65535.6

#### Metadata

| Field        | Value   |
|--------------|---------|
| Entrypoint   | 0x0081  |
| Data Size    | 6 bytes |
| Instructions | 2       |

```
      00 01 02 03 04 05 06 07  08 09 0A 0B 0C 0D 0E 0F
      -- -- -- -- -- -- -- --  -- -- -- -- -- -- -- --
0080:    03 04 00 10 80 00                               ......         
```

#### Opcodes

```
  0: 0x0081 [0x03] ExtData[1]->WorkLocal[4] = 2*
  1: 0x0086 [0x00] END_REQSTACK()
```

### Event 65535.7

#### Metadata

| Field        | Value    |
|--------------|----------|
| Entrypoint   | 0x0087   |
| Data Size    | 15 bytes |
| Instructions | 3        |

```
      00 01 02 03 04 05 06 07  08 09 0A 0B 0C 0D 0E 0F
      -- -- -- -- -- -- -- --  -- -- -- -- -- -- -- --
0080:                      37  12 80 13 80 14 80 15 80         7........
0090: 80 F8 FF FF 7F 00                                 ......          
```

#### Opcodes

```
  0: 0x0087 [0x37] UPDATE_EVENT_POSITION_AND_DIR: x=-600.128*, z=585.578*, y=0.628*, direction=25.0°*
  1: 0x0090 [0x80] LOAD_WAIT(entity=EventEntity)
  2: 0x0095 [0x00] END_REQSTACK()
```

### Event 65535.8

#### Metadata

| Field        | Value    |
|--------------|----------|
| Entrypoint   | 0x0096   |
| Data Size    | 54 bytes |
| Instructions | 12       |

```
      00 01 02 03 04 05 06 07  08 09 0A 0B 0C 0D 0E 0F
      -- -- -- -- -- -- -- --  -- -- -- -- -- -- -- --
0090:                   32 05  80 1F 00 16 80 17 80 18        2.........
00A0: 80 1F 01 1F 00 19 80 1A  80 1B 80 1F 01 1F 00 1C  ................
00B0: 80 1D 80 1E 80 1F 01 1F  00 1F 80 20 80 21 80 1F  ........... .!..
00C0: 01 1F 00 12 80 13 80 14  80 1F 01 00              ............    
```

#### Opcodes

```
  0: 0x0096 [0x32] ExtData[1]->MainSpeed = 10* * 0.1
  1: 0x0099 [0x1F] MOVE_ENTITY: EventEntity moves to X=-601.910*, Z=587.743*, Y=0.274*
  2: 0x00A1 [0x1F] MOVE_ENTITY: Update entity position (mode=1)
  3: 0x00A3 [0x1F] MOVE_ENTITY: EventEntity moves to X=-600.199*, Z=588.994*, Y=0.347*
  4: 0x00AB [0x1F] MOVE_ENTITY: Update entity position (mode=1)
  5: 0x00AD [0x1F] MOVE_ENTITY: EventEntity moves to X=-599.211*, Z=586.089*, Y=0.586*
  6: 0x00B5 [0x1F] MOVE_ENTITY: Update entity position (mode=1)
  7: 0x00B7 [0x1F] MOVE_ENTITY: EventEntity moves to X=-599.391*, Z=583.375*, Y=0.830*
  8: 0x00BF [0x1F] MOVE_ENTITY: Update entity position (mode=1)
  9: 0x00C1 [0x1F] MOVE_ENTITY: EventEntity moves to X=-600.128*, Z=585.578*, Y=0.628*
 10: 0x00C9 [0x1F] MOVE_ENTITY: Update entity position (mode=1)
 11: 0x00CB [0x00] END_REQSTACK()
```

### Event 65535.9

#### Metadata

| Field        | Value    |
|--------------|----------|
| Entrypoint   | 0x00CC   |
| Data Size    | 66 bytes |
| Instructions | 16       |

```
      00 01 02 03 04 05 06 07  08 09 0A 0B 0C 0D 0E 0F
      -- -- -- -- -- -- -- --  -- -- -- -- -- -- -- --
00C0:                                      32 11 80 1F              2...
00D0: 00 16 80 17 80 18 80 1F  01 1C 22 80 1F 00 19 80  ..........".....
00E0: 1A 80 1B 80 1F 01 1C 22  80 1F 00 1C 80 1D 80 1E  ......."........
00F0: 80 1F 01 1C 22 80 1F 00  1F 80 20 80 21 80 1F 01  ...."..... .!...
0100: 1C 22 80 1F 00 12 80 13  80 14 80 1F 01 00        ."............  
```

#### Opcodes

```
  0: 0x00CC [0x32] ExtData[1]->MainSpeed = 19* * 0.1
  1: 0x00CF [0x1F] MOVE_ENTITY: EventEntity moves to X=-601.910*, Z=587.743*, Y=0.274*
  2: 0x00D7 [0x1F] MOVE_ENTITY: Update entity position (mode=1)
  3: 0x00D9 [0x1C] WAIT(30* ticks)
  4: 0x00DC [0x1F] MOVE_ENTITY: EventEntity moves to X=-600.199*, Z=588.994*, Y=0.347*
  5: 0x00E4 [0x1F] MOVE_ENTITY: Update entity position (mode=1)
  6: 0x00E6 [0x1C] WAIT(30* ticks)
  7: 0x00E9 [0x1F] MOVE_ENTITY: EventEntity moves to X=-599.211*, Z=586.089*, Y=0.586*
  8: 0x00F1 [0x1F] MOVE_ENTITY: Update entity position (mode=1)
  9: 0x00F3 [0x1C] WAIT(30* ticks)
 10: 0x00F6 [0x1F] MOVE_ENTITY: EventEntity moves to X=-599.391*, Z=583.375*, Y=0.830*
 11: 0x00FE [0x1F] MOVE_ENTITY: Update entity position (mode=1)
 12: 0x0100 [0x1C] WAIT(30* ticks)
 13: 0x0103 [0x1F] MOVE_ENTITY: EventEntity moves to X=-600.128*, Z=585.578*, Y=0.628*
 14: 0x010B [0x1F] MOVE_ENTITY: Update entity position (mode=1)
 15: 0x010D [0x00] END_REQSTACK()
```

### Event 65535.10

#### Metadata

| Field        | Value    |
|--------------|----------|
| Entrypoint   | 0x010E   |
| Data Size    | 15 bytes |
| Instructions | 3        |

```
      00 01 02 03 04 05 06 07  08 09 0A 0B 0C 0D 0E 0F
      -- -- -- -- -- -- -- --  -- -- -- -- -- -- -- --
0100:                                            37 23                7#
0110: 80 24 80 25 80 26 80 80  F8 FF FF 7F 00           .$.%.&.......   
```

#### Opcodes

```
  0: 0x010E [0x37] UPDATE_EVENT_POSITION_AND_DIR: x=-601.165*, z=586.560*, y=0.464*, direction=22.6°*
  1: 0x0117 [0x80] LOAD_WAIT(entity=EventEntity)
  2: 0x011C [0x00] END_REQSTACK()
```

### Event 65535.11

#### Metadata

| Field        | Value    |
|--------------|----------|
| Entrypoint   | 0x011D   |
| Data Size    | 73 bytes |
| Instructions | 17       |

```
      00 01 02 03 04 05 06 07  08 09 0A 0B 0C 0D 0E 0F
      -- -- -- -- -- -- -- --  -- -- -- -- -- -- -- --
0110:                                         32 11 80               2..
0120: 1F 00 16 80 17 80 18 80  1F 01 1F 00 19 80 1A 80  ................
0130: 1B 80 1F 01 1F 00 1C 80  1D 80 1E 80 1F 01 1F 00  ................
0140: 1F 80 20 80 21 80 1F 01  1C 22 80 1E 91 A0 0E 01  .. .!...."......
0150: 1C 27 80 1F 00 28 80 29  80 2A 80 1F 01 1C 22 80  .'...(.).*....".
0160: 1E 91 A0 0E 01 00                                 ......          
```

#### Opcodes

```
  0: 0x011D [0x32] ExtData[1]->MainSpeed = 19* * 0.1
  1: 0x0120 [0x1F] MOVE_ENTITY: EventEntity moves to X=-601.910*, Z=587.743*, Y=0.274*
  2: 0x0128 [0x1F] MOVE_ENTITY: Update entity position (mode=1)
  3: 0x012A [0x1F] MOVE_ENTITY: EventEntity moves to X=-600.199*, Z=588.994*, Y=0.347*
  4: 0x0132 [0x1F] MOVE_ENTITY: Update entity position (mode=1)
  5: 0x0134 [0x1F] MOVE_ENTITY: EventEntity moves to X=-599.211*, Z=586.089*, Y=0.586*
  6: 0x013C [0x1F] MOVE_ENTITY: Update entity position (mode=1)
  7: 0x013E [0x1F] MOVE_ENTITY: EventEntity moves to X=-599.391*, Z=583.375*, Y=0.830*
  8: 0x0146 [0x1F] MOVE_ENTITY: Update entity position (mode=1)
  9: 0x0148 [0x1C] WAIT(30* ticks)
 10: 0x014B [0x1E] EventEntity looks at Unnamed NPC (ID: 17735825/0x010EA091) and starts talking
 11: 0x0150 [0x1C] WAIT(120* ticks)
 12: 0x0153 [0x1F] MOVE_ENTITY: EventEntity moves to X=-602.007*, Z=587.764*, Y=0.268*
 13: 0x015B [0x1F] MOVE_ENTITY: Update entity position (mode=1)
 14: 0x015D [0x1C] WAIT(30* ticks)
 15: 0x0160 [0x1E] EventEntity looks at Unnamed NPC (ID: 17735825/0x010EA091) and starts talking
 16: 0x0165 [0x00] END_REQSTACK()
```

### Event 65535.12

#### Metadata

| Field        | Value    |
|--------------|----------|
| Entrypoint   | 0x0166   |
| Data Size    | 50 bytes |
| Instructions | 12       |

```
      00 01 02 03 04 05 06 07  08 09 0A 0B 0C 0D 0E 0F
      -- -- -- -- -- -- -- --  -- -- -- -- -- -- -- --
0160:                   32 05  80 1F 00 2B 80 2C 80 2D        2....+.,.-
0170: 80 1F 01 1C 2E 80 1F 00  2F 80 30 80 31 80 1F 01  ......../.0.1...
0180: 1C 2E 80 1F 00 12 80 13  80 14 80 1F 01 4B 96 A0  .............K..
0190: 0E 01 32 80 1C 2E 80 00                           ..2.....        
```

#### Opcodes

```
  0: 0x0166 [0x32] ExtData[1]->MainSpeed = 10* * 0.1
  1: 0x0169 [0x1F] MOVE_ENTITY: EventEntity moves to X=-600.221*, Z=588.558*, Y=0.369*
  2: 0x0171 [0x1F] MOVE_ENTITY: Update entity position (mode=1)
  3: 0x0173 [0x1C] WAIT(60* ticks)
  4: 0x0176 [0x1F] MOVE_ENTITY: EventEntity moves to X=-602.144*, Z=586.825*, Y=0.376*
  5: 0x017E [0x1F] MOVE_ENTITY: Update entity position (mode=1)
  6: 0x0180 [0x1C] WAIT(60* ticks)
  7: 0x0183 [0x1F] MOVE_ENTITY: EventEntity moves to X=-600.128*, Z=585.578*, Y=0.628*
  8: 0x018B [0x1F] MOVE_ENTITY: Update entity position (mode=1)
  9: 0x018D [0x4B] UPDATE_ENTITY_YAW(entity=Unnamed NPC (ID: 17735830/0x010EA096), yaw=11.8°*)
 10: 0x0194 [0x1C] WAIT(60* ticks)
 11: 0x0197 [0x00] END_REQSTACK()
```

### Event 65535.13

#### Metadata

| Field        | Value    |
|--------------|----------|
| Entrypoint   | 0x0198   |
| Data Size    | 50 bytes |
| Instructions | 12       |

```
      00 01 02 03 04 05 06 07  08 09 0A 0B 0C 0D 0E 0F
      -- -- -- -- -- -- -- --  -- -- -- -- -- -- -- --
0190:                          32 11 80 1F 00 33 80 34          2....3.4
01A0: 80 35 80 1F 01 1C 2E 80  1F 00 2F 80 30 80 31 80  .5......../.0.1.
01B0: 1F 01 1C 2E 80 1F 00 12  80 13 80 14 80 1F 01 4B  ...............K
01C0: 96 A0 0E 01 32 80 1C 2E  80 00                    ....2.....      
```

#### Opcodes

```
  0: 0x0198 [0x32] ExtData[1]->MainSpeed = 19* * 0.1
  1: 0x019B [0x1F] MOVE_ENTITY: EventEntity moves to X=-599.892*, Z=588.477*, Y=0.373*
  2: 0x01A3 [0x1F] MOVE_ENTITY: Update entity position (mode=1)
  3: 0x01A5 [0x1C] WAIT(60* ticks)
  4: 0x01A8 [0x1F] MOVE_ENTITY: EventEntity moves to X=-602.144*, Z=586.825*, Y=0.376*
  5: 0x01B0 [0x1F] MOVE_ENTITY: Update entity position (mode=1)
  6: 0x01B2 [0x1C] WAIT(60* ticks)
  7: 0x01B5 [0x1F] MOVE_ENTITY: EventEntity moves to X=-600.128*, Z=585.578*, Y=0.628*
  8: 0x01BD [0x1F] MOVE_ENTITY: Update entity position (mode=1)
  9: 0x01BF [0x4B] UPDATE_ENTITY_YAW(entity=Unnamed NPC (ID: 17735830/0x010EA096), yaw=11.8°*)
 10: 0x01C6 [0x1C] WAIT(60* ticks)
 11: 0x01C9 [0x00] END_REQSTACK()
```

### Event 65535.14

#### Metadata

| Field        | Value    |
|--------------|----------|
| Entrypoint   | 0x01CA   |
| Data Size    | 67 bytes |
| Instructions | 15       |

```
      00 01 02 03 04 05 06 07  08 09 0A 0B 0C 0D 0E 0F
      -- -- -- -- -- -- -- --  -- -- -- -- -- -- -- --
01C0:                                32 36 80 1F 00 37            26...7
01D0: 80 38 80 39 80 1F 01 4B  96 A0 0E 01 3A 80 1C 2E  .8.9...K....:...
01E0: 80 1F 00 3B 80 3C 80 3D  80 1F 01 4B 96 A0 0E 01  ...;.<.=...K....
01F0: 3E 80 1C 3F 80 1F 00 40  80 41 80 42 80 1F 01 1C  >..?...@.A.B....
0200: 22 80 4B 96 A0 0E 01 43  80 1C 2E 80 00           ".K....C.....   
```

#### Opcodes

```
  0: 0x01CA [0x32] ExtData[1]->MainSpeed = 57* * 0.1
  1: 0x01CD [0x1F] MOVE_ENTITY: EventEntity moves to X=-599.295*, Z=590.678*, Y=0.264*
  2: 0x01D5 [0x1F] MOVE_ENTITY: Update entity position (mode=1)
  3: 0x01D7 [0x4B] UPDATE_ENTITY_YAW(entity=Unnamed NPC (ID: 17735830/0x010EA096), yaw=5.3°*)
  4: 0x01DE [0x1C] WAIT(60* ticks)
  5: 0x01E1 [0x1F] MOVE_ENTITY: EventEntity moves to X=-604.353*, Z=586.292*, Y=0.138*
  6: 0x01E9 [0x1F] MOVE_ENTITY: Update entity position (mode=1)
  7: 0x01EB [0x4B] UPDATE_ENTITY_YAW(entity=Unnamed NPC (ID: 17735830/0x010EA096), yaw=0.2°*)
  8: 0x01F2 [0x1C] WAIT(240* ticks)
  9: 0x01F5 [0x1F] MOVE_ENTITY: EventEntity moves to X=-600.328*, Z=582.410*, Y=0.802*
 10: 0x01FD [0x1F] MOVE_ENTITY: Update entity position (mode=1)
 11: 0x01FF [0x1C] WAIT(30* ticks)
 12: 0x0202 [0x4B] UPDATE_ENTITY_YAW(entity=Unnamed NPC (ID: 17735830/0x010EA096), yaw=16.6°*)
 13: 0x0209 [0x1C] WAIT(60* ticks)
 14: 0x020C [0x00] END_REQSTACK()
```

### Event 65535.15

#### Metadata

| Field        | Value    |
|--------------|----------|
| Entrypoint   | 0x020D   |
| Data Size    | 14 bytes |
| Instructions | 4        |

```
      00 01 02 03 04 05 06 07  08 09 0A 0B 0C 0D 0E 0F
      -- -- -- -- -- -- -- --  -- -- -- -- -- -- -- --
0200:                                         32 05 80               2..
0210: 1F 00 44 80 45 80 46 80  1F 01 00                 ..D.E.F....     
```

#### Opcodes

```
  0: 0x020D [0x32] ExtData[1]->MainSpeed = 10* * 0.1
  1: 0x0210 [0x1F] MOVE_ENTITY: EventEntity moves to X=-599.148*, Z=589.043*, Y=0.345*
  2: 0x0218 [0x1F] MOVE_ENTITY: Update entity position (mode=1)
  3: 0x021A [0x00] END_REQSTACK()
```

### Event 65535.16

#### Metadata

| Field        | Value    |
|--------------|----------|
| Entrypoint   | 0x021B   |
| Data Size    | 51 bytes |
| Instructions | 11       |

```
      00 01 02 03 04 05 06 07  08 09 0A 0B 0C 0D 0E 0F
      -- -- -- -- -- -- -- --  -- -- -- -- -- -- -- --
0210:                                   32 05 80 1F 00             2....
0220: 47 80 48 80 36 80 1F 01  1F 00 49 80 4A 80 4B 80  G.H.6.....I.J.K.
0230: 1F 01 1F 00 4C 80 4D 80  4E 80 1F 01 1E 91 A0 0E  ....L.M.N.......
0240: 01 1C 22 80 4A 91 A0 0E  01 92 A0 0E 01 00        ..".J.........  
```

#### Opcodes

```
  0: 0x021B [0x32] ExtData[1]->MainSpeed = 10* * 0.1
  1: 0x021E [0x1F] MOVE_ENTITY: EventEntity moves to X=-604.257*, Z=586.573*, Y=0.057*
  2: 0x0226 [0x1F] MOVE_ENTITY: Update entity position (mode=1)
  3: 0x0228 [0x1F] MOVE_ENTITY: EventEntity moves to X=-603.318*, Z=588.527*, Y=0.196*
  4: 0x0230 [0x1F] MOVE_ENTITY: Update entity position (mode=1)
  5: 0x0232 [0x1F] MOVE_ENTITY: EventEntity moves to X=-601.495*, Z=586.040*, Y=0.496*
  6: 0x023A [0x1F] MOVE_ENTITY: Update entity position (mode=1)
  7: 0x023C [0x1E] EventEntity looks at Unnamed NPC (ID: 17735825/0x010EA091) and starts talking
  8: 0x0241 [0x1C] WAIT(30* ticks)
  9: 0x0244 [0x4A] Unnamed NPC (ID: 17735825/0x010EA091) looks at Unnamed NPC (ID: 17735826/0x010EA092)
 10: 0x024D [0x00] END_REQSTACK()
```

### Event 65535.17

#### Metadata

| Field        | Value    |
|--------------|----------|
| Entrypoint   | 0x024E   |
| Data Size    | 14 bytes |
| Instructions | 4        |

```
      00 01 02 03 04 05 06 07  08 09 0A 0B 0C 0D 0E 0F
      -- -- -- -- -- -- -- --  -- -- -- -- -- -- -- --
0240:                                            32 36                26
0250: 80 1F 00 44 80 45 80 46  80 1F 01 00              ...D.E.F....    
```

#### Opcodes

```
  0: 0x024E [0x32] ExtData[1]->MainSpeed = 57* * 0.1
  1: 0x0251 [0x1F] MOVE_ENTITY: EventEntity moves to X=-599.148*, Z=589.043*, Y=0.345*
  2: 0x0259 [0x1F] MOVE_ENTITY: Update entity position (mode=1)
  3: 0x025B [0x00] END_REQSTACK()
```

### Event 65535.18

#### Metadata

| Field        | Value    |
|--------------|----------|
| Entrypoint   | 0x025C   |
| Data Size    | 51 bytes |
| Instructions | 11       |

```
      00 01 02 03 04 05 06 07  08 09 0A 0B 0C 0D 0E 0F
      -- -- -- -- -- -- -- --  -- -- -- -- -- -- -- --
0250:                                      32 36 80 1F              26..
0260: 00 47 80 48 80 36 80 1F  01 1F 00 49 80 4A 80 4B  .G.H.6.....I.J.K
0270: 80 1F 01 1F 00 4C 80 4D  80 4E 80 1F 01 1E 91 A0  .....L.M.N......
0280: 0E 01 1C 22 80 4A 91 A0  0E 01 96 A0 0E 01 00     ...".J......... 
```

#### Opcodes

```
  0: 0x025C [0x32] ExtData[1]->MainSpeed = 57* * 0.1
  1: 0x025F [0x1F] MOVE_ENTITY: EventEntity moves to X=-604.257*, Z=586.573*, Y=0.057*
  2: 0x0267 [0x1F] MOVE_ENTITY: Update entity position (mode=1)
  3: 0x0269 [0x1F] MOVE_ENTITY: EventEntity moves to X=-603.318*, Z=588.527*, Y=0.196*
  4: 0x0271 [0x1F] MOVE_ENTITY: Update entity position (mode=1)
  5: 0x0273 [0x1F] MOVE_ENTITY: EventEntity moves to X=-601.495*, Z=586.040*, Y=0.496*
  6: 0x027B [0x1F] MOVE_ENTITY: Update entity position (mode=1)
  7: 0x027D [0x1E] EventEntity looks at Unnamed NPC (ID: 17735825/0x010EA091) and starts talking
  8: 0x0282 [0x1C] WAIT(30* ticks)
  9: 0x0285 [0x4A] Unnamed NPC (ID: 17735825/0x010EA091) looks at Unnamed NPC (ID: 17735830/0x010EA096)
 10: 0x028E [0x00] END_REQSTACK()
```

### Event 65535.19

#### Metadata

| Field        | Value    |
|--------------|----------|
| Entrypoint   | 0x028F   |
| Data Size    | 59 bytes |
| Instructions | 13       |

```
      00 01 02 03 04 05 06 07  08 09 0A 0B 0C 0D 0E 0F
      -- -- -- -- -- -- -- --  -- -- -- -- -- -- -- --
0280:                                               32                 2
0290: 05 80 1F 00 4F 80 50 80  51 80 1F 01 1F 00 52 80  ....O.P.Q.....R.
02A0: 53 80 54 80 1F 01 1F 00  55 80 56 80 57 80 1F 01  S.T.....U.V.W...
02B0: 1F 00 58 80 59 80 5A 80  1F 01 1F 00 5B 80 5C 80  ..X.Y.Z.....[.\.
02C0: 5D 80 1F 01 1E 91 A0 0E  01 00                    ].........      
```

#### Opcodes

```
  0: 0x028F [0x32] ExtData[1]->MainSpeed = 10* * 0.1
  1: 0x0292 [0x1F] MOVE_ENTITY: EventEntity moves to X=-601.361*, Z=584.507*, Y=0.542*
  2: 0x029A [0x1F] MOVE_ENTITY: Update entity position (mode=1)
  3: 0x029C [0x1F] MOVE_ENTITY: EventEntity moves to X=-600.414*, Z=583.859*, Y=0.704*
  4: 0x02A4 [0x1F] MOVE_ENTITY: Update entity position (mode=1)
  5: 0x02A6 [0x1F] MOVE_ENTITY: EventEntity moves to X=-599.376*, Z=585.276*, Y=0.668*
  6: 0x02AE [0x1F] MOVE_ENTITY: Update entity position (mode=1)
  7: 0x02B0 [0x1F] MOVE_ENTITY: EventEntity moves to X=-598.992*, Z=587.260*, Y=0.468*
  8: 0x02B8 [0x1F] MOVE_ENTITY: Update entity position (mode=1)
  9: 0x02BA [0x1F] MOVE_ENTITY: EventEntity moves to X=-599.942*, Z=587.474*, Y=0.447*
 10: 0x02C2 [0x1F] MOVE_ENTITY: Update entity position (mode=1)
 11: 0x02C4 [0x1E] EventEntity looks at Unnamed NPC (ID: 17735825/0x010EA091) and starts talking
 12: 0x02C9 [0x00] END_REQSTACK()
```

### Event 65535.20

#### Metadata

| Field        | Value    |
|--------------|----------|
| Entrypoint   | 0x02CA   |
| Data Size    | 69 bytes |
| Instructions | 15       |

```
      00 01 02 03 04 05 06 07  08 09 0A 0B 0C 0D 0E 0F
      -- -- -- -- -- -- -- --  -- -- -- -- -- -- -- --
02C0:                                32 36 80 1F 00 5E            26...^
02D0: 80 5F 80 60 80 1F 01 1F  00 61 80 62 80 63 80 1F  ._.`.....a.b.c..
02E0: 01 1F 00 64 80 65 80 66  80 1F 01 1F 00 67 80 68  ...d.e.f.....g.h
02F0: 80 69 80 1F 01 1F 00 6A  80 6B 80 6C 80 1F 01 1F  .i.....j.k.l....
0300: 00 6D 80 6E 80 6F 80 1F  01 1E 91 A0 0E 01 00     .m.n.o......... 
```

#### Opcodes

```
  0: 0x02CA [0x32] ExtData[1]->MainSpeed = 57* * 0.1
  1: 0x02CD [0x1F] MOVE_ENTITY: EventEntity moves to X=-602.454*, Z=588.333*, Y=0.247*
  2: 0x02D5 [0x1F] MOVE_ENTITY: Update entity position (mode=1)
  3: 0x02D7 [0x1F] MOVE_ENTITY: EventEntity moves to X=-603.634*, Z=585.657*, Y=0.144*
  4: 0x02DF [0x1F] MOVE_ENTITY: Update entity position (mode=1)
  5: 0x02E1 [0x1F] MOVE_ENTITY: EventEntity moves to X=-602.421*, Z=582.680*, Y=0.396*
  6: 0x02E9 [0x1F] MOVE_ENTITY: Update entity position (mode=1)
  7: 0x02EB [0x1F] MOVE_ENTITY: EventEntity moves to X=-599.175*, Z=582.899*, Y=0.854*
  8: 0x02F3 [0x1F] MOVE_ENTITY: Update entity position (mode=1)
  9: 0x02F5 [0x1F] MOVE_ENTITY: EventEntity moves to X=-598.432*, Z=587.737*, Y=0.410*
 10: 0x02FD [0x1F] MOVE_ENTITY: Update entity position (mode=1)
 11: 0x02FF [0x1F] MOVE_ENTITY: EventEntity moves to X=-599.890*, Z=589.432*, Y=0.326*
 12: 0x0307 [0x1F] MOVE_ENTITY: Update entity position (mode=1)
 13: 0x0309 [0x1E] EventEntity looks at Unnamed NPC (ID: 17735825/0x010EA091) and starts talking
 14: 0x030E [0x00] END_REQSTACK()
```

### Event 65535.21

#### Metadata

| Field        | Value    |
|--------------|----------|
| Entrypoint   | 0x030F   |
| Data Size    | 15 bytes |
| Instructions | 3        |

```
      00 01 02 03 04 05 06 07  08 09 0A 0B 0C 0D 0E 0F
      -- -- -- -- -- -- -- --  -- -- -- -- -- -- -- --
0300:                                               37                 7
0310: 28 80 29 80 2A 80 15 80  80 F8 FF FF 7F 00        (.).*.........  
```

#### Opcodes

```
  0: 0x030F [0x37] UPDATE_EVENT_POSITION_AND_DIR: x=-602.007*, z=587.764*, y=0.268*, direction=25.0°*
  1: 0x0318 [0x80] LOAD_WAIT(entity=EventEntity)
  2: 0x031D [0x00] END_REQSTACK()
```
