# 17735720 - Davyad

## Common Data

| Field            | Value                  |
|------------------|------------------------|
| Zone             | Bastok Mines (ID: 234) |
| Block Size       | 228 bytes              |
| Total Events     | 6                      |
| References Count | 18                     |

## List of Events

| Event ID                 | Entrypoint   |   Size |   Instructions |
|--------------------------|--------------|--------|----------------|
| [65535](#event-65535)    | 0x0000       |      1 |              1 |
| [53](#event-53)          | 0x0001       |     30 |              8 |
| [54](#event-54)          | 0x001F       |     57 |             17 |
| [176](#event-176)        | 0x0058       |     15 |              3 |
| [180](#event-180)        | 0x0067       |      1 |              1 |
| [65535.1](#event-655351) | 0x0068       |     10 |              2 |

## DAT References (imed_data)

|   Index | Hex Value   |   Dec Value |
|---------|-------------|-------------|
|       0 | 0x29E9      |       10729 |
|       1 | 0x003C      |          60 |
|       2 | 0x29EA      |       10730 |
|       3 | 0x1106      |        4358 |
|       4 | 0x0233      |         563 |
|       5 | 0x29FC      |       10748 |
|       6 | 0x29FD      |       10749 |
|       7 | 0x29FE      |       10750 |
|       8 | 0x29FF      |       10751 |
|       9 | 0x2A00      |       10752 |
|      10 | 0xFFFD9F23  |  4294811427 |
|      11 | 0xFFFF735A  |  4294931290 |
|      12 | 0xFFFFFFE3  |  4294967267 |
|      13 | 0x09DA      |        2522 |
|      14 | 0xFFFFB1FD  |  4294947325 |
|      15 | 0x7C4C      |       31820 |
|      16 | 0x1B57      |        6999 |
|      17 | 0x053C      |        1340 |

## String References

- **10729**: Most Galka around here don't like Humes much.
- **10730**: That's why we don't call ourselves by the names Humes give us.
- **10748**: What? The Gusgen Mines? Oh, you want to know about glocolite.
- **10749**: I should warn you, it's not worth the risk. But you're on official business, right?
- **10750**: There are pools of groundwater in those mines. A special monster lives in one of them, but you'll have to lure it out.
- **10751**: Trade some bait to a special spot on the ground, and it'll come.
- **10752**: It likes $6, so use one of those. All you have to do is defeat it and you'll get your $7. There are a lot of rivers there, mind you, but only one spot where it appears. Anyway, good luck!

## Events

### Event 65535

#### Metadata

| Field        | Value   |
|--------------|---------|
| Entrypoint   | 0x0000  |
| Data Size    | 1 bytes |
| Instructions | 1       |

```
      00 01 02 03 04 05 06 07  08 09 0A 0B 0C 0D 0E 0F
      -- -- -- -- -- -- -- --  -- -- -- -- -- -- -- --
0000: 00                                                .               
```

#### Opcodes

```
  0: 0x0000 [0x00] END_REQSTACK()
```

### Event 53

#### Metadata

| Field        | Value    |
|--------------|----------|
| Entrypoint   | 0x0001   |
| Data Size    | 30 bytes |
| Instructions | 8        |

```
      00 01 02 03 04 05 06 07  08 09 0A 0B 0C 0D 0E 0F
      -- -- -- -- -- -- -- --  -- -- -- -- -- -- -- --
0000:    1E F0 FF FF 7F 1D 00  80 23 66 01 80 F8 FF FF   ........#f.....
0010: 7F F8 FF FF 7F 74 6C 6B  30 1D 02 80 23 21 00     .....tlk0...#!. 
```

#### Opcodes

```
  0: 0x0001 [0x1E] EventEntity looks at LocalPlayer and starts talking
  1: 0x0006 [0x1D] PRINT_EVENT_MESSAGE(message_id=10729*)
    → "Most Galka around here don't like Humes much."
  2: 0x0009 [0x23] WAIT_FOR_DIALOG_INTERACTION
  3: 0x000A [0x66] LOAD_EXT_SCHEDULER_MAIN: Load scheduler "tlk0" with entities [EventEntity, EventEntity], work=60*
  4: 0x0019 [0x1D] PRINT_EVENT_MESSAGE(message_id=10730*)
    → "That's why we don't call ourselves by the names Humes give us."
  5: 0x001C [0x23] WAIT_FOR_DIALOG_INTERACTION
  6: 0x001D [0x21] END_EVENT
  7: 0x001E [0x00] END_REQSTACK()
```

### Event 54

#### Metadata

| Field        | Value    |
|--------------|----------|
| Entrypoint   | 0x001F   |
| Data Size    | 57 bytes |
| Instructions | 17       |

```
      00 01 02 03 04 05 06 07  08 09 0A 0B 0C 0D 0E 0F
      -- -- -- -- -- -- -- --  -- -- -- -- -- -- -- --
0010:                                               1E                 .
0020: F0 FF FF 7F 03 08 10 03  80 03 09 10 04 80 1D 05  ................
0030: 80 23 66 01 80 F8 FF FF  7F F8 FF FF 7F 74 6C 6B  .#f..........tlk
0040: 30 1D 06 80 23 1D 07 80  23 1D 08 80 23 5E 69 64  0...#...#...#^id
0050: 6C 30 1D 09 80 23 21 00                           l0...#!.        
```

#### Opcodes

```
  0: 0x001F [0x1E] EventEntity looks at LocalPlayer and starts talking
  1: 0x0024 [0x03] Work_Zone[8] = 4358*
  2: 0x0029 [0x03] Work_Zone[9] = 563*
  3: 0x002E [0x1D] PRINT_EVENT_MESSAGE(message_id=10748*)
    → "What? The Gusgen Mines? Oh, you want to know about glocolite."
  4: 0x0031 [0x23] WAIT_FOR_DIALOG_INTERACTION
  5: 0x0032 [0x66] LOAD_EXT_SCHEDULER_MAIN: Load scheduler "tlk0" with entities [EventEntity, EventEntity], work=60*
  6: 0x0041 [0x1D] PRINT_EVENT_MESSAGE(message_id=10749*)
    → "I should warn you, it's not worth the risk. But you're on official business, right?"
  7: 0x0044 [0x23] WAIT_FOR_DIALOG_INTERACTION
  8: 0x0045 [0x1D] PRINT_EVENT_MESSAGE(message_id=10750*)
    → "There are pools of groundwater in those mines. A special monster lives in one of them, but you'll have to lure it out."
  9: 0x0048 [0x23] WAIT_FOR_DIALOG_INTERACTION
 10: 0x0049 [0x1D] PRINT_EVENT_MESSAGE(message_id=10751*)
    → "Trade some bait to a special spot on the ground, and it'll come."
 11: 0x004C [0x23] WAIT_FOR_DIALOG_INTERACTION
 12: 0x004D [0x5E] EventEntity goes idle (kills current action) (animation: "idl0")
 13: 0x0052 [0x1D] PRINT_EVENT_MESSAGE(message_id=10752*)
    → "It likes $6, so use one of those. All you have to do is defeat it and you'll get your $7. There are a lot of rivers there, mind you, but only one spot where it appears. Anyway, good luck!"
 14: 0x0055 [0x23] WAIT_FOR_DIALOG_INTERACTION
 15: 0x0056 [0x21] END_EVENT
 16: 0x0057 [0x00] END_REQSTACK()
```

### Event 176

#### Metadata

| Field        | Value    |
|--------------|----------|
| Entrypoint   | 0x0058   |
| Data Size    | 15 bytes |
| Instructions | 3        |

```
      00 01 02 03 04 05 06 07  08 09 0A 0B 0C 0D 0E 0F
      -- -- -- -- -- -- -- --  -- -- -- -- -- -- -- --
0050:                          37 0A 80 0B 80 0C 80 0D          7.......
0060: 80 1E 0B A0 0E 01 00                              .......         
```

#### Opcodes

```
  0: 0x0058 [0x37] UPDATE_EVENT_POSITION_AND_DIR: x=-155.869*, z=-36.006*, y=-0.029*, direction=221.7°*
  1: 0x0061 [0x1E] EventEntity looks at Mydon (ID: 17735691/0x010EA00B) and starts talking
  2: 0x0066 [0x00] END_REQSTACK()
```

### Event 180

#### Metadata

| Field        | Value   |
|--------------|---------|
| Entrypoint   | 0x0067  |
| Data Size    | 1 bytes |
| Instructions | 1       |

```
      00 01 02 03 04 05 06 07  08 09 0A 0B 0C 0D 0E 0F
      -- -- -- -- -- -- -- --  -- -- -- -- -- -- -- --
0060:                      00                                  .        
```

#### Opcodes

```
  0: 0x0067 [0x00] END_REQSTACK()
```

### Event 65535.1

#### Metadata

| Field        | Value    |
|--------------|----------|
| Entrypoint   | 0x0068   |
| Data Size    | 10 bytes |
| Instructions | 2        |

```
      00 01 02 03 04 05 06 07  08 09 0A 0B 0C 0D 0E 0F
      -- -- -- -- -- -- -- --  -- -- -- -- -- -- -- --
0060:                          37 0E 80 0F 80 10 80 11          7.......
0070: 80 00                                             ..              
```

#### Opcodes

```
  0: 0x0068 [0x37] UPDATE_EVENT_POSITION_AND_DIR: x=-19.971*, z=31.820*, y=6.999*, direction=117.8°*
  1: 0x0071 [0x00] END_REQSTACK()
```
