# 17735792 - Povall

## Common Data

| Field            | Value                  |
|------------------|------------------------|
| Zone             | Bastok Mines (ID: 234) |
| Block Size       | 172 bytes              |
| Total Events     | 5                      |
| References Count | 17                     |

## List of Events

| Event ID                 | Entrypoint   |   Size |   Instructions |
|--------------------------|--------------|--------|----------------|
| [65535](#event-65535)    | 0x0000       |      1 |              1 |
| [180](#event-180)        | 0x0001       |     10 |              2 |
| [182](#event-182)        | 0x000B       |      1 |              1 |
| [65535.1](#event-655351) | 0x000C       |     28 |              7 |
| [65535.2](#event-655352) | 0x0028       |     26 |              7 |

## DAT References (imed_data)

|   Index | Hex Value   |   Dec Value |
|---------|-------------|-------------|
|       0 | 0xFFFFA230  |  4294943280 |
|       1 | 0x724D      |       29261 |
|       2 | 0x1AC5      |        6853 |
|       3 | 0x0F88      |        3976 |
|       4 | 0x000D      |          13 |
|       5 | 0x11D0F     |       72975 |
|       6 | 0xFFFFD395  |  4294955925 |
|       7 | 0x1B57      |        6999 |
|       8 | 0x0CF6      |        3318 |
|       9 | 0x000A      |          10 |
|      10 | 0x11CBD     |       72893 |
|      11 | 0xFFFFD7E9  |  4294957033 |
|      12 | 0x0028      |          40 |
|      13 | 0x1143E     |       70718 |
|      14 | 0xFFFFE84E  |  4294961230 |
|      15 | 0xD5E5      |       54757 |
|      16 | 0xFFFFF28F  |  4294963855 |

## Events

### Event 65535

#### Metadata

| Field        | Value   |
|--------------|---------|
| Entrypoint   | 0x0000  |
| Data Size    | 1 bytes |
| Instructions | 1       |

```
      00 01 02 03 04 05 06 07  08 09 0A 0B 0C 0D 0E 0F
      -- -- -- -- -- -- -- --  -- -- -- -- -- -- -- --
0000: 00                                                .               
```

#### Opcodes

```
  0: 0x0000 [0x00] END_REQSTACK()
```

### Event 180

#### Metadata

| Field        | Value    |
|--------------|----------|
| Entrypoint   | 0x0001   |
| Data Size    | 10 bytes |
| Instructions | 2        |

```
      00 01 02 03 04 05 06 07  08 09 0A 0B 0C 0D 0E 0F
      -- -- -- -- -- -- -- --  -- -- -- -- -- -- -- --
0000:    37 00 80 01 80 02 80  03 80 00                  7.........     
```

#### Opcodes

```
  0: 0x0001 [0x37] UPDATE_EVENT_POSITION_AND_DIR: x=-24.016*, z=29.261*, y=6.853*, direction=349.4°*
  1: 0x000A [0x00] END_REQSTACK()
```

### Event 182

#### Metadata

| Field        | Value   |
|--------------|---------|
| Entrypoint   | 0x000B  |
| Data Size    | 1 bytes |
| Instructions | 1       |

```
      00 01 02 03 04 05 06 07  08 09 0A 0B 0C 0D 0E 0F
      -- -- -- -- -- -- -- --  -- -- -- -- -- -- -- --
0000:                                   00                         .    
```

#### Opcodes

```
  0: 0x000B [0x00] END_REQSTACK()
```

### Event 65535.1

#### Metadata

| Field        | Value    |
|--------------|----------|
| Entrypoint   | 0x000C   |
| Data Size    | 28 bytes |
| Instructions | 7        |

```
      00 01 02 03 04 05 06 07  08 09 0A 0B 0C 0D 0E 0F
      -- -- -- -- -- -- -- --  -- -- -- -- -- -- -- --
0000:                                      22 00 32 04              ".2.
0010: 80 37 05 80 06 80 07 80  08 80 1C 09 80 1F 00 0A  .7..............
0020: 80 0B 80 07 80 1F 01 00                           ........        
```

#### Opcodes

```
  0: 0x000C [0x22] ENTITY_HIDE_FLAG(enabled=0x00)
  1: 0x000E [0x32] ExtData[1]->MainSpeed = 13* * 0.1
  2: 0x0011 [0x37] UPDATE_EVENT_POSITION_AND_DIR: x=72.975*, z=-11.371*, y=6.999*, direction=291.6°*
  3: 0x001A [0x1C] WAIT(10* ticks)
  4: 0x001D [0x1F] MOVE_ENTITY: EventEntity moves to X=72.893*, Z=-10.263*, Y=6.999*
  5: 0x0025 [0x1F] MOVE_ENTITY: Update entity position (mode=1)
  6: 0x0027 [0x00] END_REQSTACK()
```

### Event 65535.2

#### Metadata

| Field        | Value    |
|--------------|----------|
| Entrypoint   | 0x0028   |
| Data Size    | 26 bytes |
| Instructions | 7        |

```
      00 01 02 03 04 05 06 07  08 09 0A 0B 0C 0D 0E 0F
      -- -- -- -- -- -- -- --  -- -- -- -- -- -- -- --
0020:                          32 0C 80 1F 00 0D 80 0E          2.......
0030: 80 07 80 1F 01 1F 00 0F  80 10 80 07 80 1F 01 22  ..............."
0040: 01 00                                             ..              
```

#### Opcodes

```
  0: 0x0028 [0x32] ExtData[1]->MainSpeed = 40* * 0.1
  1: 0x002B [0x1F] MOVE_ENTITY: EventEntity moves to X=70.718*, Z=-6.066*, Y=6.999*
  2: 0x0033 [0x1F] MOVE_ENTITY: Update entity position (mode=1)
  3: 0x0035 [0x1F] MOVE_ENTITY: EventEntity moves to X=54.757*, Z=-3.441*, Y=6.999*
  4: 0x003D [0x1F] MOVE_ENTITY: Update entity position (mode=1)
  5: 0x003F [0x22] ENTITY_HIDE_FLAG(enabled=0x01)
  6: 0x0041 [0x00] END_REQSTACK()
```
