# 17735710 - Abd-al-Raziq

## Common Data

| Field            | Value                  |
|------------------|------------------------|
| Zone             | Bastok Mines (ID: 234) |
| Block Size       | 7544 bytes             |
| Total Events     | 30                     |
| References Count | 218                    |

## List of Events

| Event ID                 | Entrypoint   |   Size |   Instructions |
|--------------------------|--------------|--------|----------------|
| [65535](#event-65535)    | 0x0000       |      1 |              1 |
| [120](#event-120)        | 0x0001       |   2030 |            498 |
| [121](#event-121)        | 0x07EF       |    255 |             64 |
| [587](#event-587)        | 0x08EE       |      7 |              2 |
| [589](#event-589)        | 0x08F5       |      7 |              2 |
| [590](#event-590)        | 0x08FC       |    114 |             24 |
| [624](#event-624)        | 0x096E       |    131 |             24 |
| [631](#event-631)        | 0x09F1       |    134 |             24 |
| [625](#event-625)        | 0x0A77       |    124 |             33 |
| [626](#event-626)        | 0x0AF3       |    259 |             62 |
| [633](#event-633)        | 0x0BF6       |    197 |             49 |
| [640](#event-640)        | 0x0CBB       |    272 |             59 |
| [649](#event-649)        | 0x0DCB       |    134 |             32 |
| [646](#event-646)        | 0x0E51       |    176 |             39 |
| [645](#event-645)        | 0x0F01       |    235 |             52 |
| [647](#event-647)        | 0x0FEC       |     78 |             16 |
| [627](#event-627)        | 0x103A       |    174 |             35 |
| [634](#event-634)        | 0x10E8       |    150 |             32 |
| [641](#event-641)        | 0x117E       |    154 |             34 |
| [650](#event-650)        | 0x1218       |    146 |             30 |
| [628](#event-628)        | 0x12AA       |     89 |             21 |
| [651](#event-651)        | 0x1303       |     91 |             15 |
| [638](#event-638)        | 0x135E       |     75 |             17 |
| [630](#event-630)        | 0x13A9       |    158 |             33 |
| [637](#event-637)        | 0x1447       |    114 |             24 |
| [644](#event-644)        | 0x14B9       |    196 |             37 |
| [653](#event-653)        | 0x157D       |    102 |             20 |
| [654](#event-654)        | 0x15E3       |    131 |             27 |
| [629](#event-629)        | 0x1666       |    786 |            146 |
| [65535.1](#event-655351) | 0x1978       |     16 |              4 |

## DAT References (imed_data)

|   Index | Hex Value   |   Dec Value |
|---------|-------------|-------------|
|       0 | 0x0000      |           0 |
|       1 | 0x0009      |           9 |
|       2 | 0x000A      |          10 |
|       3 | 0x0007      |           7 |
|       4 | 0x0010      |          16 |
|       5 | 0x000B      |          11 |
|       6 | 0x000C      |          12 |
|       7 | 0x0002      |           2 |
|       8 | 0x1C77      |        7287 |
|       9 | 0x1C78      |        7288 |
|      10 | 0x1C79      |        7289 |
|      11 | 0x1C7A      |        7290 |
|      12 | 0x1BE3      |        7139 |
|      13 | 0x0001      |           1 |
|      14 | 0x0031      |          49 |
|      15 | 0x0032      |          50 |
|      16 | 0x0003      |           3 |
|      17 | 0x0033      |          51 |
|      18 | 0x0004      |           4 |
|      19 | 0x0034      |          52 |
|      20 | 0x0005      |           5 |
|      21 | 0x0035      |          53 |
|      22 | 0x0006      |           6 |
|      23 | 0x0036      |          54 |
|      24 | 0x0037      |          55 |
|      25 | 0x0020      |          32 |
|      26 | 0x1C7B      |        7291 |
|      27 | 0x1C7C      |        7292 |
|      28 | 0x0008      |           8 |
|      29 | 0x0038      |          56 |
|      30 | 0x1BE4      |        7140 |
|      31 | 0x1BE5      |        7141 |
|      32 | 0x006E      |         110 |
|      33 | 0x1BEE      |        7150 |
|      34 | 0x0046      |          70 |
|      35 | 0x1C72      |        7282 |
|      36 | 0x1C73      |        7283 |
|      37 | 0x1C74      |        7284 |
|      38 | 0x1C75      |        7285 |
|      39 | 0x0064      |         100 |
|      40 | 0x2A28      |       10792 |
|      41 | 0x1C6E      |        7278 |
|      42 | 0x1C6D      |        7277 |
|      43 | 0x07F7      |        2039 |
|      44 | 0x1C6B      |        7275 |
|      45 | 0x1C6C      |        7276 |
|      46 | 0x1C6A      |        7274 |
|      47 | 0x1C68      |        7272 |
|      48 | 0x1C65      |        7269 |
|      49 | 0x1C66      |        7270 |
|      50 | 0x1C67      |        7271 |
|      51 | 0x1C69      |        7273 |
|      52 | 0x0078      |         120 |
|      53 | 0x000D      |          13 |
|      54 | 0x0082      |         130 |
|      55 | 0x1BF0      |        7152 |
|      56 | 0x1BF1      |        7153 |
|      57 | 0x1BEF      |        7151 |
|      58 | 0x1BE7      |        7143 |
|      59 | 0x370E      |       14094 |
|      60 | 0x377A      |       14202 |
|      61 | 0x378A      |       14218 |
|      62 | 0x377B      |       14203 |
|      63 | 0x377C      |       14204 |
|      64 | 0x1BAF      |        7087 |
|      65 | 0x1BE9      |        7145 |
|      66 | 0x1BEA      |        7146 |
|      67 | 0x1BEB      |        7147 |
|      68 | 0x1BEC      |        7148 |
|      69 | 0x1BED      |        7149 |
|      70 | 0x1BE8      |        7144 |
|      71 | 0x000E      |          14 |
|      72 | 0x000F      |          15 |
|      73 | 0x008E      |         142 |
|      74 | 0x1BB5      |        7093 |
|      75 | 0x1BDB      |        7131 |
|      76 | 0x1BB9      |        7097 |
|      77 | 0x1BB8      |        7096 |
|      78 | 0x1BB7      |        7095 |
|      79 | 0x1BB6      |        7094 |
|      80 | 0x1BF2      |        7154 |
|      81 | 0x1BF3      |        7155 |
|      82 | 0x1C0D      |        7181 |
|      83 | 0x1BF4      |        7156 |
|      84 | 0x1C76      |        7286 |
|      85 | 0x1BF5      |        7157 |
|      86 | 0x1C0C      |        7180 |
|      87 | 0x1C6F      |        7279 |
|      88 | 0x1C70      |        7280 |
|      89 | 0x1C71      |        7281 |
|      90 | 0x00C9      |         201 |
|      91 | 0x1BB2      |        7090 |
|      92 | 0x1C25      |        7205 |
|      93 | 0x1C26      |        7206 |
|      94 | 0x1C27      |        7207 |
|      95 | 0x40AE      |       16558 |
|      96 | 0x40AF      |       16559 |
|      97 | 0x40BE      |       16574 |
|      98 | 0x40BF      |       16575 |
|      99 | 0x409B      |       16539 |
|     100 | 0x409C      |       16540 |
|     101 | 0x409D      |       16541 |
|     102 | 0x409E      |       16542 |
|     103 | 0x409F      |       16543 |
|     104 | 0x40A0      |       16544 |
|     105 | 0x40A1      |       16545 |
|     106 | 0x40A2      |       16546 |
|     107 | 0x40A3      |       16547 |
|     108 | 0x40A4      |       16548 |
|     109 | 0x40A5      |       16549 |
|     110 | 0x40A6      |       16550 |
|     111 | 0x40A7      |       16551 |
|     112 | 0x40A8      |       16552 |
|     113 | 0x40A9      |       16553 |
|     114 | 0x40AA      |       16554 |
|     115 | 0x40AB      |       16555 |
|     116 | 0x40AC      |       16556 |
|     117 | 0x40AD      |       16557 |
|     118 | 0x40C0      |       16576 |
|     119 | 0x40C1      |       16577 |
|     120 | 0x40C2      |       16578 |
|     121 | 0x40C3      |       16579 |
|     122 | 0x40C4      |       16580 |
|     123 | 0x40C5      |       16581 |
|     124 | 0x40C6      |       16582 |
|     125 | 0x40C7      |       16583 |
|     126 | 0x40C8      |       16584 |
|     127 | 0x40C9      |       16585 |
|     128 | 0x40CA      |       16586 |
|     129 | 0x40D5      |       16597 |
|     130 | 0x40D6      |       16598 |
|     131 | 0x40D7      |       16599 |
|     132 | 0x40D8      |       16600 |
|     133 | 0x40D9      |       16601 |
|     134 | 0x40DA      |       16602 |
|     135 | 0x40DB      |       16603 |
|     136 | 0x40DC      |       16604 |
|     137 | 0x40DD      |       16605 |
|     138 | 0x40DE      |       16606 |
|     139 | 0x40DF      |       16607 |
|     140 | 0x40E0      |       16608 |
|     141 | 0x40E6      |       16614 |
|     142 | 0x40F9      |       16633 |
|     143 | 0x40FA      |       16634 |
|     144 | 0x40FB      |       16635 |
|     145 | 0x40FC      |       16636 |
|     146 | 0x40FD      |       16637 |
|     147 | 0x40FE      |       16638 |
|     148 | 0xFFFFFFFF  |  4294967295 |
|     149 | 0x40EF      |       16623 |
|     150 | 0x40F0      |       16624 |
|     151 | 0x40E7      |       16615 |
|     152 | 0x40E8      |       16616 |
|     153 | 0x40E9      |       16617 |
|     154 | 0x40EA      |       16618 |
|     155 | 0x40000000  |  1073741824 |
|     156 | 0x40EB      |       16619 |
|     157 | 0x40EC      |       16620 |
|     158 | 0x40ED      |       16621 |
|     159 | 0x40EE      |       16622 |
|     160 | 0x40F1      |       16625 |
|     161 | 0x0047      |          71 |
|     162 | 0x40F2      |       16626 |
|     163 | 0x40F3      |       16627 |
|     164 | 0x40B0      |       16560 |
|     165 | 0x003C      |          60 |
|     166 | 0x001E      |          30 |
|     167 | 0x40B1      |       16561 |
|     168 | 0x40B2      |       16562 |
|     169 | 0x40B3      |       16563 |
|     170 | 0x40B4      |       16564 |
|     171 | 0x40B5      |       16565 |
|     172 | 0x40CB      |       16587 |
|     173 | 0x40CC      |       16588 |
|     174 | 0x40CD      |       16589 |
|     175 | 0x40CE      |       16590 |
|     176 | 0x40CF      |       16591 |
|     177 | 0x40F4      |       16628 |
|     178 | 0x40FF      |       16639 |
|     179 | 0x40B6      |       16566 |
|     180 | 0x40B7      |       16567 |
|     181 | 0x40B8      |       16568 |
|     182 | 0x4104      |       16644 |
|     183 | 0x4105      |       16645 |
|     184 | 0x40D4      |       16596 |
|     185 | 0x40B9      |       16569 |
|     186 | 0x40BA      |       16570 |
|     187 | 0x40BB      |       16571 |
|     188 | 0x40BC      |       16572 |
|     189 | 0x40BD      |       16573 |
|     190 | 0x40D0      |       16592 |
|     191 | 0x40D1      |       16593 |
|     192 | 0x40D2      |       16594 |
|     193 | 0x40D3      |       16595 |
|     194 | 0x40F5      |       16629 |
|     195 | 0x40F6      |       16630 |
|     196 | 0x40F7      |       16631 |
|     197 | 0x40F8      |       16632 |
|     198 | 0x4100      |       16640 |
|     199 | 0x4101      |       16641 |
|     200 | 0x4102      |       16642 |
|     201 | 0x4103      |       16643 |
|     202 | 0x4106      |       16646 |
|     203 | 0x4107      |       16647 |
|     204 | 0x4108      |       16648 |
|     205 | 0x4109      |       16649 |
|     206 | 0x410A      |       16650 |
|     207 | 0x40E1      |       16609 |
|     208 | 0x40E2      |       16610 |
|     209 | 0x40E3      |       16611 |
|     210 | 0x40E4      |       16612 |
|     211 | 0x40E5      |       16613 |
|     212 | 0x00C8      |         200 |
|     213 | 0x0013      |          19 |
|     214 | 0x001D      |          29 |
|     215 | 0x0027      |          39 |
|     216 | 0x003B      |          59 |
|     217 | 0x0045      |          69 |

## String References

- **7087**: Join the [Fishermen's/Carpenters'/Blacksmiths'/Goldsmiths'/Weavers'/Tanners'/Boneworkers'/Alchemists'/Culinarians'] Guild? [Sign up./That's not why you're here.]
- **7090**: You are now recognized as [an amateur/a recruit/an initiate/a novice/an apprentice/a journeyman/a craftsman/an artisan/an adept/a veteran/an expert/an authority/a luminary/a master/a grandmaster/a legend] of the [Fishermen's/Carpenters'/Blacksmiths'/Goldsmiths'/Weavers'/Tanners'/Boneworkers'/Alchemists'/Culinarians'] Guild.
- **7093**: Necessary skills: [Fishing/Woodworking/Smithing/Goldsmithing/Clothcraft/Leatherworking/Bonecraft/Alchemy/Cooking][ /, Woodworking/, Smithing/, Goldsmithing/, Clothcraft/, Leatherworking/, Bonecraft/, Alchemy/, Cooking][ /, Woodworking/, Smithing/, Goldsmithing/, Clothcraft/, Leatherworking/, Bonecraft/, Alchemy/, Cooking][ /, & Woodworking/, & Smithing/, & Goldsmithing/, & Clothcraft/, & Leatherworking/, & Bonecraft/, & Alchemy/, & Cooking] Necessary crystal: $4 Necessary items:
- **7094**: $4 x $0 $5 x $0$0 $6 x $0 $7 x $0$3
- **7095**: $4 x $0 $5 x $0$0 $6 x $0
- **7096**: $4 x $0 $5 x $0$0
- **7097**: $4 x $0
- **7131**: Necessary skills: [Fishing/Woodworking/Smithing/Goldsmithing/Clothcraft/Leatherworking/Bonecraft/Alchemy/Cooking][ /, Woodworking/, Smithing/, Goldsmithing/, Clothcraft/, Leatherworking/, Bonecraft/, Alchemy/, Cooking][ /, Woodworking/, Smithing/, Goldsmithing/, Clothcraft/, Leatherworking/, Bonecraft/, Alchemy/, Cooking][ /, & Woodworking/, & Smithing/, & Goldsmithing/, & Clothcraft/, & Leatherworking/, & Bonecraft/, & Alchemy/, & Cooking] Necessary crystal: $4 Necessary key item: $3 Necessary items:
- **7139**: Renounce your rank at which guild? [None./Carpenters'./Blacksmiths'./Goldsmiths'./Weavers'./Tanners'./Boneworkers'./Alchemists'./Culinarians'.]
- **7140**: If you proceed, your rank in the [Carpenters'/Blacksmiths'/Goldsmiths'/Weavers'/Tanners'/Boneworkers'/Alchemists'/Culinarians'] Guild will return to that of [craftsman/artisan/adept], and your skill value will revert to the maximum for that level. This procedure cannot be undone, so please consider your decision carefully.
- **7141**: Renounce your rank as a [Carpenter/Blacksmith/Goldsmith/Weaver/Tanner/Boneworker/Alchemist/Culinarian]? [No, retain./Yes, renounce.]
- **7143**: And you are? This is the Alchemists' Guild. In other words, an organization that researches the origins of the universe, and puts that knowledge to use in the development of new medicines and items.
- **7144**: Oh, you must be looking for the shop. It's down the stairs, on your right.
- **7145**: Well, well, well. An adventurer. Then we shall start you with crystal synthesis.
- **7146**: You must already know, but crystals house different forms of energy. Crystal synthesis taps that energy and utilizes it to transform matter.
- **7147**: The success of crystal synthesis depends on the images of the product made by the user. In other words, the better the user, the better the image, the better the final product.
- **7148**: Obviously, the more experience you accumulate over the years, the more skilled you will become.
- **7149**: If there is anything you don't understand, ask the alchemists here in this guild. You are now one of their companions!
- **7150**: To master alchemy is to know the universe. And to know the universe requires time.
- **7151**: Along with the mastery of alchemy, you have obtained the knowledge of the universe. However, knowing the universe means having the power to destroy it. Such power is not to be trifled with.
- **7152**: I sense that you have attained enough knowledge to move on to the next plane of alchemy.
- **7153**: Make $0 and I will further entrust you with the secrets of the universe.
- **7154**: ... This work seems to be flawless. I hereby entrust you with the title of [amateur/recruit/initiate/novice/apprentice]. I look forward to you seeing your future work.
- **7155**: ... Fine work, <Player>. I hereby entrust you with the title of journeyman. Do not squander your skills.
- **7156**: Wonderful! I am proud to have you stand by my side as an artisan.
- **7157**: The day has finally come. You are now worthy to be called an adept alchemist. Let us, together, reap the benefits of the vast knowledge of the universe.
- **7180**: A perfect job...as always, I might add. I hereby bestow you with the honorary title of veteran. I would not be suprised if you have attained the skills to turn mere lead into gold!
- **7181**: Excellent work. I have no difficulty in bestowing upon you...the title of craftsman.
- **7205**: What brings you here? Well, $0, of all things... You couldn't hope to make one without some $1, but I fear they aren't often stocked by vendors.
- **7206**: But you strike me as an intrepid type, so I'll share with you some knowledge to help you on your way. Head over to Ordelle's Caves. Hunt enough bats there, and you might just come into some $0. That's the main ingredient required to make $1.
- **7207**: All that remains, then, is to bind it with $0 using $2. Good luck!
- **7269**: The time has come, <Player>. The time to move beyond your limits as [a veteran/an expert/an authority/a luminary/a master] and seek the answers to yet deeper questions of our universe. I trust you are up to the task?
- **7270**: Up to the task? [I am!/I am not...]
- **7271**: Yes, of course you are. Your answer was known to me long before I posed the question. Acquire yourself a copy of $6 from Hemewmew, and we shall proceed from there.
- **7272**: An alchemist of your caliber need not be told that nothing in our universe comes without a price, and that a nominal fee in guild points must be paid to obtain the tome.
- **7273**: All for the better. Pursuing alchemy with imperfect focus has been known to lead to madness, disaster...or worse. When you are prepared to devote the entirety of your soul to our practice, you may return. And not a day before.
- **7274**: Acquire yourself a copy of $6 from Hemewmew, and we shall proceed from there.
- **7275**: Say not a word, <Player>. It is as plain as day to me. You have familiarized yourself with the contents of $6.
- **7276**: Very well. Create for me $2. This is what you will need. Listen well--the prospect of repeating myself does not amuse me.
- **7277**: And be sure to leave your name upon your work. Why, you say? I would think it obvious, but will leave the question for you to ponder.
- **7278**: Have the fumes gotten to your head? I've already told you that making $2 requires...
- **7279**: Yes, this shall do. You have taken one step closer to true knowledge, <Player>. I bestow upon you the rank of expert. From this day on, let us unravel the mysteries of this universe together.
- **7280**: Is this some poor attempt at humor, <Player>? No self-respecting alchemist would be so ignorant as to submit for review a work that did not bear their name.
- **7281**: Let it suffice to say that I am not entertained. Return to your laboratory and do not return without that which I asked you for.
- **7282**: People have begun talking of your work. Their words have even wafted all the way to the halls of this guild. You are ready for your next trial. Create for me $0.
- **7283**: Pass, and you will be accepted as [an artisan/an adept/a veteran]...and then I will show you the true power that the universe hides.
- **7284**: However, you must take care. Bearing the name of [artisan/adept/veteran] means you must clear your mind of all stray thoughts, and focus on the task before you. Why, you ask?
- **7285**: In alchemy, losing your focus could result in a tragedy of universal proportions. This is why we advise against becoming [an artisan/an adept/a veteran] in more than one guild.
- **7286**: Of all the disciplines, alchemy demands the highest degree of focus from its practitioners. Entertain even a moment's thought of striving for [artisan/adept/veteran] status in another guild, and true knowledge of the mysteries of the universe will forever elude you.
- **7287**: I have received word that you have accepted the title of [artisan/adept/veteran] from another guild. Tell me, <Player>, did I not advise against this course of action?
- **7288**: Your blatant disregard of my warning does not please me...
- **7289**: However, I offer you the opportunity to redeem yourself of your errant past. Revoke your [artisan/adept/veteran] status from any lesser guild and you will be forgiven.
- **7290**: I will inform the other guildmasters of your decision, so that you may return immediately to your research. Do we have an agreement?
- **7291**: Perhaps I was wrong... Perhaps there are things in this world more important than the study of alchemy...
- **7292**: Could it be that it is not you who strays from the true path, but I? No! Such thoughts are madness! I must...not...waver...!
- **14094**: Ask if this person is the chick's owner? [Yes./No.]
- **14202**: You've...you've got my chocobo?
- **14203**: ... What a relief...
- **14204**: I thank you for your kindness, [sir/ma'am]. As thanks, let me teach you a story I often tell my chocobo...
- **14218**: There are two kinds of chocobos in this world: those that belong to me, and those that don't. The chocobo that you speak of is one of the latter.
- **16539**: Oh, hello again. Hm? If I may inquire, what is that shield in your possession?
- **16540**: Ahh... I see you have met with her.
- **16541**: Of course, I heard the story about a special shield that can improve your crafting ability when equipped. Hahaha. I have no idea how it works though.
- **16542**: Although, if the theory behind it is sound and it actually works, I would be quite interested to know more about it.
- **16543**: I am well-versed in your abilities, and if she chose you for this task, then I suppose you just might have what it takes to make the shield.
- **16544**: Now then, we will first need to go over the recipe. It is important that you remember this, so listen carefully, take notes, do whatever it is you need to do.
- **16545**: So, the first ingredient you are going to need is $1...
- **16546**: The function of this particular ingredient is to boost the Craftsmanship of the $0 to its full potential.
- **16547**: I actually have some information regarding Craftsmanship. I will read it out loud for you before you get started.
- **16548**: You can increase Craftsmanship by crafting items that match up with your skill while you have the $0 equipped.
- **16549**: Craftsmanship will increase greatly when you fulfill certain conditions, but crafting the same item over and over again will reduce your gains, so try synthesizing something different if you run into trouble.
- **16550**: In its default state, the shield has the unfortunate tendency to lower the success rate of your crafting, but as its Craftsmanship rises, it mitigates that effect.
- **16551**: You can tell the Craftsmanship rating as well as the crafting success rate by looking at the shield. Good luck to you. Mwahaha...
- **16552**: Did you get all of that?
- **16553**: Once you have got the Craftsmanship rating up, come show me how you did. Then, I will be able to make you the $1.
- **16554**: After that, you will need $2 and $3, which you can get from Yek Falimeygo.
- **16555**: You have delivered various items to people before, right? That is basically what you will need to do to get those ingredients.
- **16556**: Go speak to Yek Falimeygo for more information.
- **16557**: That covers the ingredients you need. Be sure to show me the shield once you have upgraded it. I am very interested to see how it turns out.
- **16558**: Hm? You forgot the recipe already? Okay, here are the materials you need, but a craftsman of your caliber really should be able to remember these things.
- **16559**: You promised that we would always work together to improve our crafting skill. If anybody can do this, I am certain that it is you.
- **16560**: Impressive... I think you have successfully demonstrated the process. This should enable me to produce the $0...
- **16561**: So, this is the $0...
- **16562**: By pouring my heart and soul into the shield, I was able to form this crystal. Although the theory behind the process is quite straightforward, it still amazes me to see it in action.
- **16563**: Hmm... In crafting the $0, it seems to have decreased the Craftsmanship of the $1.
- **16564**: It is no problem to upgrade the $1, but you will need to raise its Craftsmanship first if you wish to craft the $0 again.
- **16565**: Well, I know you are quite responsible and I am certain there is no way you could ever lose something so important.
- **16566**: What did you say? You somehow managed to lose the $0? How is that even possible?
- **16567**: I even warned you about such a thing, too... Okay, give me the shield. I will craft another $0.
- **16568**: You are a highly-skilled craftsman. As such, you need to make sure you take care of your ingredients.
- **16569**: It looks like you managed to make the upgrade. Let me see how you did.
- **16570**: Hmm... The shape has changed and I can feel a small amount of power emanating from it. Yet, it is still not enough to prove the theory.
- **16571**: I suppose it is just as she said it would be. Unless you craft with it multiple times, you will not get the results that you are expecting.
- **16572**: That reminds me, she wanted some kind of proof that the shield was done. Here, wait just a moment...
- **16573**: That should do it.
- **16574**: Just show the shield to Mewk Chorosap in Jeuno.
- **16575**: Lastly, please note that I always have deliveries to be made to Yek Falimeygo. I hope you will help train and educate the junior members of our guild.
- **16576**: Ah, it's good to see you. She's already told me about your next task.
- **16577**: Now, let's go over this new recipe, shall we? Pay attention, you're going to want to remember this.
- **16578**: There you go. Did you get all of that?
- **16579**: Next, let's go over how to obtain the ingredients, starting with the $1.
- **16580**: First, you'll need to equip the $0 and craft with it until its Craftsmanship reaches 100%.
- **16581**: It's just the same as when we made the $1 before. However, you're going to need to make even more of an effort this time.
- **16582**: Bring me the shield once it's reached 100% and I'll make the $1 for you.
- **16583**: Next up is the $2. Do you remember the $3 from last time? I've given both it and the $2 to Yek Falimeygo.
- **16584**: Next up is the $4. I've partnered with the A.M.A.N. to create some Records of Eminence objectives for you.
- **16585**: You can check the Records of Eminence menu for more details. You'll receive the $4 once the objectives are complete.
- **16586**: That covers the ingredients. You know, it takes hard work and dedication to prove a theory like this is valid. That's why you're the perfect person for this job.
- **16587**: Hmm... It looks like you were successful.
- **16588**: I guess that means it's my turn. Here, I'll make the $0 for you now.
- **16589**: Okay, all finished.
- **16590**: Hmm... It looks like the shield's Craftsmanship has dropped again.
- **16591**: You need to take proper care of this thing so you don't need to come back to me again.
- **16592**: I must say, you never cease to amaze me. Well done.
- **16593**: You can really feel the difference compared to the previous shield. Its power is only going to increase as you unlock its potential.
- **16594**: Okay, let me mark the shield to prove the process is complete.
- **16595**: That should do it. Take the shield and show it to Mewk Chorosap.
- **16596**: I see you don't give up so easily. Very well. You may attempt the final objective once more.
- **16597**: Ahh... There you are. Shall we go over the next recipe, then?
- **16598**: Oh, you already know it? Forgive me.
- **16599**: Okay, you would like to know how to obtain the $4 and $5? Very well. Listen carefully.
- **16600**: Our guild has received an order for a particular item, but I need you to fulfill the order for me.
- **16601**: However, this one's a bit of a strange request, you see... Although there are a few exceptions, you need to craft the item close to the customer that placed the order.
- **16602**: Apparently, they want to make sure you know what you're doing and also keep an eye on the quality of the finished product. They won't accept items crafted anywhere else, so be sure to keep that in mind.
- **16603**: You'll need to gather the materials necessary to make the requested item. I'll leave how you obtain them up to you.
- **16604**: It's still in the trial phase, but an agreement between the guilds has enabled you to purchase certain products that were previously unavailable.
- **16605**: You can purchase the products from the vendor responsible for selling crafting sets in each guild.
- **16606**: However, each guild has its own set of guidelines. You may not be able to purchase the item you need, but you might get lucky from time to time.
- **16607**: Once you've delivered the goods, I'll give you the $4 and $5.
- **16608**: Did you get all that? This is the [first/next/final] request.
- **16609**: Deliver $1 $0 to Morunaude at the furniture shop in $7.
- **16610**: Deliver $1 $0 to Boizo-Naizo at the Manustery in $7.
- **16611**: Deliver $1 $0 to Silver Owl at the Tenshodo in $7.
- **16612**: Deliver $1 $0 to Boizo-Naizo at the Manustery in $7.
- **16613**: This particular item does not need to be crafted near the customer.
- **16614**: Remember to report back to me after you've completed the request.
- **16615**: Let's see... Your current request is to...
- **16616**: How is the request coming along? I hope everything is proceeding apace.
- **16617**: Everything okay? [Everything's great!/It could be better...]
- **16618**: Yes, I suppose I shouldn't worry so much. Let me know when you're finished.
- **16619**: Hmm... That's unfortunate, but I have faith in you. Just consider this to be a test of your abilities, and you'll see it through to the end.
- **16620**: Will you see this through? [I'll do my best./I've had enough.]
- **16621**: I see... Well, I guess I'll have to find somebody else to take care of this request, then.
- **16622**: You seem to be tired both mentally and physically. Try resting for a while and I'll give you another request when you're ready.
- **16623**: Well? Are you all rested up now? If so, let's get back to work.
- **16624**: Thank you for your report. You did a good job out there.
- **16625**: It looks like you've made the final delivery. I couldn't have done it better myself.
- **16626**: Now to give you the $0 and $1 as promised.
- **16627**: If you ever need these two items again, you can trade guild points for them.
- **16628**: I really have gotten quite good at this. Maybe someday, I can use these same principles to realize my dream of creating gold.
- **16629**: I see... So this is what the shield looks like this time around.
- **16630**: Hahaha! It really is a thing of beauty! It brings a smile to my face just looking at it.
- **16631**: According to her calculations, this next upgrade will unleash the shield's untold power. At last, the ultimate shield is within your grasp.
- **16632**: Oh, I almost forgot. I have a new crafting technique to teach you. You've already come so far, I'm sure you'll have no trouble using it.
- **16633**: Ah, there you are. If this procedure is done properly, this shield will possess extraordinary power.
- **16634**: Now then, let us discuss how to obtain the materials you will need.
- **16635**: I see you need $2 and $3.
- **16636**: Of course, you will need to exchange crafter points like you normally do. If you have enough points, go visit Yek Falimeygo to exchange them.
- **16637**: Next, you will require $1. The method for obtaining it is the same as before; hand me your shield once its Craftsmanship reaches 100%.
- **16638**: That concludes the explanation. The path that lies before you is clear. I look forward to seeing you reach its destination.
- **16639**: Now, you already know about the $0, right? I believe Mewk Chorosap is looking for it, so take it to her.
- **16640**: Ah, it's you again. What can I help you with?
- **16641**: Hmm... You must be referring to the item that Tarutaru from Adoulin requested that I make.
- **16642**: I apologize, but you are too late. I have already sent it off to Jeuno.
- **16643**: I imagine it has been delivered to Mewk Chorosap by now. You will have to go and check for yourself.
- **16644**: Ah, you came at just the right time. Look here. The $0 that I sent to Jeuno was just sitting here on my desk.
- **16645**: It really is quite strange. Hm? You say you need this particular item? Very well. You are free to take it.
- **16646**: Hmm... Look at this emblem...
- **16647**: So this is what the completed shield looks like... I see the guild emblem I crafted is prominently displayed.
- **16648**: Hahahaha! If this is not perfection, I do not know what is!
- **16649**: This has been most entertaining. While this is not much of a reward, I would like to teach you a new crafting technique. I am certain you will have no problems mastering it.
- **16650**: I believe it will help open up the future of alchemy. However, my research on the matter is incomplete. I look forward to finding many breakthroughs in the field together!

## Events

### Event 65535

#### Metadata

| Field        | Value   |
|--------------|---------|
| Entrypoint   | 0x0000  |
| Data Size    | 1 bytes |
| Instructions | 1       |

```
      00 01 02 03 04 05 06 07  08 09 0A 0B 0C 0D 0E 0F
      -- -- -- -- -- -- -- --  -- -- -- -- -- -- -- --
0000: 00                                                .               
```

#### Opcodes

```
  0: 0x0000 [0x00] END_REQSTACK()
```

### Event 120

#### Metadata

| Field        | Value      |
|--------------|------------|
| Entrypoint   | 0x0001     |
| Data Size    | 2030 bytes |
| Instructions | 376        |

```
      00 01 02 03 04 05 06 07  08 09 0A 0B 0C 0D 0E 0F
      -- -- -- -- -- -- -- --  -- -- -- -- -- -- -- --
0000:    1E F0 FF FF 7F 03 00  00 00 80 03 01 10 00 80   ...............
0010: 41 01 80 01 80 06 10 01  00 41 02 80 02 80 06 10  A........A......
0020: 02 00 41 03 80 03 80 06  10 03 00 03 04 00 03 80  ..A.............
0030: 03 08 00 00 80 03 09 00  04 80 41 05 80 06 80 06  ..........A.....
0040: 10 0A 00 03 0B 00 07 10  03 0C 00 08 10 03 0D 00  ................
0050: 09 10 02 0C 00 07 80 04  B5 01 06 03 10 1D 08 80  ................
0060: 23 1D 09 80 23 1D 0A 80  23 1D 0B 80 23 24 0C 80  #...#...#...#$..
0070: 00 80 0D 00 25 02 00 10  00 80 00 82 00 21 00 01  ....%........!..
0080: 76 01 02 00 10 0D 80 00  9E 00 03 0E 00 0E 80 03  v...............
0090: 03 10 00 80 3C 0D 00 0D  80 0D 80 01 76 01 02 00  ....<.......v...
00A0: 10 07 80 00 BA 00 03 0E  00 0F 80 03 03 10 0D 80  ................
00B0: 3C 0D 00 07 80 0D 80 01  76 01 02 00 10 10 80 00  <.......v.......
00C0: D6 00 03 0E 00 11 80 03  03 10 07 80 3C 0D 00 10  ............<...
00D0: 80 0D 80 01 76 01 02 00  10 12 80 00 F2 00 03 0E  ....v...........
00E0: 00 13 80 03 03 10 10 80  3C 0D 00 12 80 0D 80 01  ........<.......
00F0: 76 01 02 00 10 14 80 00  0E 01 03 0E 00 15 80 03  v...............
0100: 03 10 12 80 3C 0D 00 14  80 0D 80 01 76 01 02 00  ....<.......v...
0110: 10 16 80 00 2A 01 03 0E  00 17 80 03 03 10 14 80  ....*...........
0120: 3C 0D 00 16 80 0D 80 01  76 01 02 00 10 03 80 00  <.......v.......
0130: 5A 01 03 0E 00 18 80 03  03 10 16 80 3C 0D 00 03  Z...........<...
0140: 80 0D 80 6E F8 FF FF 7F  19 80 99 F8 FF FF 7F 1D  ...n............
0150: 1A 80 23 1D 1B 80 23 01  76 01 02 00 10 1C 80 00  ..#...#.v.......
0160: 76 01 03 0E 00 1D 80 03  03 10 03 80 3C 0D 00 1C  v...........<...
0170: 80 0D 80 01 76 01 48 1E  80 23 24 1F 80 00 80 00  ....v.H..#$.....
0180: 80 25 02 00 10 00 80 00  8F 01 21 00 01 A8 01 02  .%........!.....
0190: 00 10 0D 80 00 A8 01 42  03 01 10 0E 00 43 00 43  .......B.....C.C
01A0: 01 0C 0C 00 2E 01 A8 01  02 0C 00 07 80 04 B3 01  ................
01B0: 01 6D 00 21 00 3E 05 10  03 80 CC 04 02 04 10 20  .m.!.>......... 
01C0: 80 03 BF 04 07 03 10 07  80 02 03 10 04 10 03 DE  ................
01D0: 01 1A CC 08 1D 21 80 23  1A DE 08 01 BC 04 03 0F  .....!.#........
01E0: 00 0B 00 14 0F 00 02 80  07 0F 00 22 80 02 04 10  ..........."....
01F0: 0F 00 00 0E 02 1D 23 80  23 1A CC 08 1D 24 80 23  ......#.#....$.#
0200: 1D 25 80 23 1A DE 08 1D  26 80 23 01 BC 04 02 04  .%.#....&.#.....
0210: 10 27 80 00 04 03 02 01  00 0D 80 00 B0 02 02 03  .'..............
0220: 00 0D 80 00 9A 02 02 02  00 0D 80 00 5C 02 03 04  ............\...
0230: 10 28 80 1A CC 08 1D 29  80 23 1A DE 08 03 05 00  .(.....).#......
0240: 27 80 03 06 00 01 80 03  07 00 28 80 1A 97 05 1A  '.........(.....
0250: CC 08 1D 2A 80 23 1A DE  08 01 97 02 42 03 03 10  ...*.#......B...
0260: 2B 80 1A CC 08 1D 2C 80  23 03 04 10 28 80 1D 2D  +.....,.#...(..-
0270: 80 23 1A DE 08 03 05 00  27 80 03 06 00 01 80 03  .#......'.......
0280: 07 00 28 80 1A 97 05 1A  CC 08 1D 2A 80 23 1A DE  ..(........*.#..
0290: 08 03 01 10 10 80 2E 01  AD 02 03 03 10 2B 80 1A  .............+..
02A0: CC 08 1D 2E 80 23 1D 2F  80 23 1A DE 08 01 01 03  .....#./.#......
02B0: 03 02 10 00 80 1A CC 08  1D 30 80 23 1A DE 08 24  .........0.#...$
02C0: 31 80 00 80 00 80 25 02  00 10 00 80 00 EC 02 42  1.....%........B
02D0: 03 03 10 2B 80 1A CC 08  1D 32 80 23 1D 2F 80 23  ...+.....2.#./.#
02E0: 1A DE 08 03 01 10 07 80  2E 01 01 03 02 00 10 0D  ................
02F0: 80 00 01 03 1A CC 08 1D  33 80 23 1A DE 08 01 01  ........3.#.....
0300: 03 01 BC 04 02 04 10 27  80 02 AE 04 02 01 00 0D  .......'........
0310: 80 00 CA 03 02 03 00 0D  80 00 C7 03 02 02 00 0D  ................
0320: 80 00 C4 03 03 02 10 04  10 08 02 10 27 80 15 02  ............'...
0330: 10 02 80 02 02 10 0D 80  80 5F 03 03 04 10 05 80  ........._......
0340: 1A CC 08 1D 29 80 23 1A  DE 08 03 05 00 20 80 03  ....).#...... ..
0350: 06 00 02 80 03 07 00 05  80 1A 97 05 01 B7 03 02  ................
0360: 02 10 07 80 80 8B 03 03  04 10 06 80 1A CC 08 1D  ................
0370: 29 80 23 1A DE 08 03 05  00 34 80 03 06 00 05 80  ).#......4......
0380: 03 07 00 06 80 1A 97 05  01 B7 03 02 02 10 10 80  ................
0390: 80 B7 03 03 04 10 35 80  1A CC 08 1D 29 80 23 1A  ......5.....).#.
03A0: DE 08 03 05 00 36 80 03  06 00 06 80 03 07 00 35  .....6.........5
03B0: 80 1A 97 05 01 B7 03 1A  CC 08 1D 2A 80 23 1A DE  ...........*.#..
03C0: 08 01 C4 03 01 C7 03 01  AB 04 02 03 00 0D 80 00  ................
03D0: AB 04 03 02 10 04 10 08  02 10 27 80 15 02 10 02  ..........'.....
03E0: 80 1A CC 08 1D 30 80 23  1A DE 08 24 31 80 00 80  .....0.#...$1...
03F0: 00 80 25 02 00 10 00 80  00 93 04 42 02 02 10 0D  ..%........B....
0400: 80 80 28 04 03 04 10 05  80 1A CC 08 1D 2D 80 23  ..(..........-.#
0410: 1A DE 08 03 05 00 20 80  03 06 00 02 80 03 07 00  ...... .........
0420: 05 80 1A 97 05 01 80 04  02 02 10 07 80 80 54 04  ..............T.
0430: 03 04 10 06 80 1A CC 08  1D 2D 80 23 1A DE 08 03  .........-.#....
0440: 05 00 34 80 03 06 00 05  80 03 07 00 06 80 1A 97  ..4.............
0450: 05 01 80 04 02 02 10 10  80 80 80 04 03 04 10 35  ...............5
0460: 80 1A CC 08 1D 2D 80 23  1A DE 08 03 05 00 36 80  .....-.#......6.
0470: 03 06 00 06 80 03 07 00  35 80 1A 97 05 01 80 04  ........5.......
0480: 1A CC 08 1D 2A 80 23 1A  DE 08 03 01 10 12 80 2E  ....*.#.........
0490: 01 A8 04 02 00 10 0D 80  00 A8 04 1A CC 08 1D 33  ...............3
04A0: 80 23 1A DE 08 01 A8 04  01 AB 04 01 BC 04 1A CC  .#..............
04B0: 08 1D 37 80 23 1D 38 80  23 1A DE 08 01 C9 04 1A  ..7.#.8.#.......
04C0: CC 08 1D 39 80 23 1A DE  08 01 D5 04 1D 3A 80 23  ...9.#.......:.#
04D0: 03 00 00 0D 80 02 0A 00  00 80 02 3B 05 24 3B 80  ...........;.$;.
04E0: 0D 80 00 80 25 02 00 10  00 80 00 3B 05 42 1D 3C  ....%......;.B.<
04F0: 80 23 07 01 10 14 80 43  00 43 01 02 0A 00 07 80  .#.....C.C......
0500: 00 19 05 66 01 80 F8 FF  FF 7F F8 FF FF 7F 74 6C  ...f..........tl
0510: 6B 30 1D 3D 80 23 01 37  05 27 05 1E A0 0E 01 1D  k0.=.#.7.'......
0520: 1D 3E 80 23 66 01 80 F8  FF FF 7F F8 FF FF 7F 74  .>.#f..........t
0530: 6C 6B 30 1D 3F 80 23 21  01 3B 05 02 00 00 0D 80  lk0.?.#!.;......
0540: 00 95 05 03 08 10 03 80  24 40 80 00 80 00 80 25  ........$@.....%
0550: 02 00 10 00 80 00 80 05  1A CC 08 1D 41 80 23 1A  ............A.#.
0560: DE 08 1D 42 80 23 1A CC  08 1D 43 80 23 1D 44 80  ...B.#....C.#.D.
0570: 23 1A DE 08 1D 45 80 23  03 01 10 0D 80 01 95 05  #....E.#........
0580: 02 00 10 0D 80 00 95 05  1A CC 08 1D 46 80 23 1A  ............F.#.
0590: DE 08 01 95 05 21 00 8C  02 04 00 05 00 06 00 08  .....!..........
05A0: 00 09 00 8C 01 02 07 00  02 10 C0 B8 05 03 07 00  ................
05B0: 00 80 01 EA 06 01 EA 06  02 07 00 03 10 C0 CB 05  ................
05C0: 03 07 00 0D 80 01 EA 06  01 EA 06 02 07 00 04 10  ................
05D0: C0 DE 05 03 07 00 07 80  01 EA 06 01 EA 06 02 07  ................
05E0: 00 05 10 C0 F1 05 03 07  00 10 80 01 EA 06 01 EA  ................
05F0: 06 02 07 00 06 10 C0 04  06 03 07 00 12 80 01 EA  ................
0600: 06 01 EA 06 02 07 00 07  10 C0 17 06 03 07 00 14  ................
0610: 80 01 EA 06 01 EA 06 02  07 00 08 10 C0 2A 06 03  .............*..
0620: 07 00 16 80 01 EA 06 01  EA 06 02 07 00 09 10 C0  ................
0630: 3D 06 03 07 00 03 80 01  EA 06 01 EA 06 02 07 00  =...............
0640: 00 17 C0 50 06 03 07 00  1C 80 01 EA 06 01 EA 06  ...P............
0650: 02 07 00 01 17 C0 63 06  03 07 00 01 80 01 EA 06  ......c.........
0660: 01 EA 06 02 07 00 02 17  C0 76 06 03 07 00 02 80  .........v......
0670: 01 EA 06 01 EA 06 02 07  00 03 17 C0 89 06 03 07  ................
0680: 00 05 80 01 EA 06 01 EA  06 02 07 00 04 17 C0 9C  ................
0690: 06 03 07 00 06 80 01 EA  06 01 EA 06 02 07 00 05  ................
06A0: 17 C0 AF 06 03 07 00 35  80 01 EA 06 01 EA 06 02  .......5........
06B0: 07 00 06 17 C0 C2 06 03  07 00 47 80 01 EA 06 01  ..........G.....
06C0: EA 06 02 07 00 07 17 C0  D5 06 03 07 00 48 80 01  .............H..
06D0: EA 06 01 EA 06 02 08 17  00 80 01 EA 06 07 08 00  ................
06E0: 04 80 07 09 00 04 80 01  97 05 07 07 00 08 00 8C  ................
06F0: 03 04 00 05 00 06 00 07  00 8C 01 07 44 10 49 80  ............D.I.
0700: 03 08 10 04 00 03 03 10  41 10 03 04 10 42 10 03  ........A....B..
0710: 05 10 43 10 03 06 10 44  10 03 07 10 55 10 02 07  ..C....D....U...
0720: 10 00 80 00 2D 07 48 4A  80 23 01 31 07 48 4B 80  ....-.HJ.#.1.HK.
0730: 23 03 02 10 45 10 03 03  10 46 10 03 04 10 47 10  #...E....F....G.
0740: 03 05 10 48 10 03 06 10  4D 10 03 07 10 4E 10 03  ...H....M....N..
0750: 08 10 4F 10 03 09 10 50  10 02 07 10 00 80 00 68  ..O....P.......h
0760: 07 48 4C 80 23 01 EE 07  02 08 10 00 80 00 77 07  .HL.#.........w.
0770: 48 4D 80 23 01 EE 07 02  09 10 00 80 00 86 07 48  HM.#...........H
0780: 4E 80 23 01 EE 07 48 4F  80 23 03 02 10 49 10 03  N.#...HO.#...I..
0790: 03 10 4A 10 03 04 10 4B  10 03 05 10 4C 10 03 06  ..J....K....L...
07A0: 10 51 10 03 07 10 52 10  03 08 10 53 10 03 09 10  .Q....R....S....
07B0: 54 10 02 06 10 00 80 00  BD 07 01 EE 07 02 07 10  T...............
07C0: 00 80 00 CC 07 48 4C 80  23 01 EE 07 02 08 10 00  .....HL.#.......
07D0: 80 00 DB 07 48 4D 80 23  01 EE 07 02 09 10 00 80  ....HM.#........
07E0: 00 EA 07 48 4E 80 23 01  EE 07 48 4F 80 23 1B     ...HN.#...HO.#. 
```

#### Opcodes

```
  0: 0x0001 [0x1E] EventEntity looks at LocalPlayer and starts talking
  1: 0x0006 [0x03] ExtData[1]->WorkLocal[0] = 0*
  2: 0x000B [0x03] Work_Zone[1] = 0*
  3: 0x0010 [0x41] ExtData[1]->WorkLocal[1] = Work_Zone[6] (bits 9*-9*)
  4: 0x0019 [0x41] ExtData[1]->WorkLocal[2] = Work_Zone[6] (bits 10*-10*)
  5: 0x0022 [0x41] ExtData[1]->WorkLocal[3] = Work_Zone[6] (bits 7*-7*)
  6: 0x002B [0x03] ExtData[1]->WorkLocal[4] = 7*
  7: 0x0030 [0x03] ExtData[1]->WorkLocal[8] = 0*
  8: 0x0035 [0x03] ExtData[1]->WorkLocal[9] = 16*
  9: 0x003A [0x41] ExtData[1]->WorkLocal[10] = Work_Zone[6] (bits 11*-12*)
 10: 0x0043 [0x03] ExtData[1]->WorkLocal[11] = Work_Zone[7]
 11: 0x0048 [0x03] ExtData[1]->WorkLocal[12] = Work_Zone[8]
 12: 0x004D [0x03] ExtData[1]->WorkLocal[13] = Work_Zone[9]
 13: 0x0052 [0x02] IF !(ExtData[1]->WorkLocal[12] < 2*) GOTO 0x01B5
 14: 0x005A [0x06] Work_Zone[3] = 0
 15: 0x005D [0x1D] PRINT_EVENT_MESSAGE(message_id=7287*)
    → "I have received word that you have accepted the title of [artisan/adept/veteran] from another guild. Tell me, <Player>, did I not advise against this course of action?"
 16: 0x0060 [0x23] WAIT_FOR_DIALOG_INTERACTION
 17: 0x0061 [0x1D] PRINT_EVENT_MESSAGE(message_id=7288*)
    → "Your blatant disregard of my warning does not please me..."
 18: 0x0064 [0x23] WAIT_FOR_DIALOG_INTERACTION
 19: 0x0065 [0x1D] PRINT_EVENT_MESSAGE(message_id=7289*)
    → "However, I offer you the opportunity to redeem yourself of your errant past. Revoke your [artisan/adept/veteran] status from any lesser guild and you will be forgiven."
 20: 0x0068 [0x23] WAIT_FOR_DIALOG_INTERACTION
 21: 0x0069 [0x1D] PRINT_EVENT_MESSAGE(message_id=7290*)
    → "I will inform the other guildmasters of your decision, so that you may return immediately to your research. Do we have an agreement?"
 22: 0x006C [0x23] WAIT_FOR_DIALOG_INTERACTION
 23: 0x006D [0x24] CREATE_DIALOG(message_id=7139*, default_option=0*, option_flags=ExtData[1]->WorkLocal[13])
    → "Renounce your rank at which guild? [None./Carpenters'./Blacksmiths'./Goldsmiths'./Weavers'./Tanners'./Boneworkers'./Alchemists'./Culinarians'.]"
 24: 0x0074 [0x25] WAIT_DIALOG_SELECT()
 25: 0x0075 [0x02] IF !(Work_Zone[0] == 0*) GOTO 0x0082
 26: 0x007D [0x21] END_EVENT
 27: 0x007E [0x00] END_REQSTACK()

SUBROUTINE_0176:
 28: 0x0176 [0x48] [System] [7140*]:
    → "If you proceed, your rank in the [Carpenters'/Blacksmiths'/Goldsmiths'/Weavers'/Tanners'/Boneworkers'/Alchemists'/Culinarians'] Guild will return to that of [craftsman/artisan/adept], and your skill value will revert to the maximum for that level. This procedure cannot be undone, so please consider your decision carefully."
 29: 0x0179 [0x23] WAIT_FOR_DIALOG_INTERACTION
 30: 0x017A [0x24] CREATE_DIALOG(message_id=7141*, default_option=0*, option_flags=0*)
    → "Renounce your rank as a [Carpenter/Blacksmith/Goldsmith/Weaver/Tanner/Boneworker/Alchemist/Culinarian]? [No, retain./Yes, renounce.]"
 31: 0x0181 [0x25] WAIT_DIALOG_SELECT()
 32: 0x0182 [0x02] IF !(Work_Zone[0] == 0*) GOTO 0x018F
 33: 0x018A [0x21] END_EVENT
 34: 0x018B [0x00] END_REQSTACK()

SUBROUTINE_01A8:
 35: 0x01A8 [0x02] IF !(ExtData[1]->WorkLocal[12] < 2*) GOTO 0x01B3
 36: 0x01B0 [0x01] GOTO 0x006D
 37: 0x01B3 [0x21] END_EVENT
 38: 0x01B4 [0x00] END_REQSTACK()
 39: 0x01B5 [0x3E] IF !(Work_Zone[5] bit 7*) GOTO 0x04CC
 40: 0x01BC [0x02] IF !(Work_Zone[4] >= 110*) GOTO 0x04BF
 41: 0x01C4 [0x07] Work_Zone[3] += 2*
 42: 0x01C9 [0x02] IF !(Work_Zone[3] >= Work_Zone[4]) GOTO 0x01DE
 43: 0x01D1 [0x1A] CALL_SUBROUTINE(address=0x08CC)
 44: 0x01D4 [0x1D] PRINT_EVENT_MESSAGE(message_id=7150*)
    → "To master alchemy is to know the universe. And to know the universe requires time."
 45: 0x01D7 [0x23] WAIT_FOR_DIALOG_INTERACTION
 46: 0x01D8 [0x1A] CALL_SUBROUTINE(address=0x08DE)
 47: 0x01DB [0x01] GOTO 0x04BC
 48: 0x01DE [0x03] ExtData[1]->WorkLocal[15] = ExtData[1]->WorkLocal[11]
 49: 0x01E3 [0x14] ExtData[1]->WorkLocal[15] *= 10*
 50: 0x01E8 [0x07] ExtData[1]->WorkLocal[15] += 70*
 51: 0x01ED [0x02] IF !(Work_Zone[4] == ExtData[1]->WorkLocal[15]) GOTO 0x020E
 52: 0x01F5 [0x1D] PRINT_EVENT_MESSAGE(message_id=7282*)
    → "People have begun talking of your work. Their words have even wafted all the way to the halls of this guild. You are ready for your next trial. Create for me $0."
 53: 0x01F8 [0x23] WAIT_FOR_DIALOG_INTERACTION
 54: 0x01F9 [0x1A] CALL_SUBROUTINE(address=0x08CC)
 55: 0x01FC [0x1D] PRINT_EVENT_MESSAGE(message_id=7283*)
    → "Pass, and you will be accepted as [an artisan/an adept/a veteran]...and then I will show you the true power that the universe hides."
 56: 0x01FF [0x23] WAIT_FOR_DIALOG_INTERACTION
 57: 0x0200 [0x1D] PRINT_EVENT_MESSAGE(message_id=7284*)
    → "However, you must take care. Bearing the name of [artisan/adept/veteran] means you must clear your mind of all stray thoughts, and focus on the task before you. Why, you ask?"
 58: 0x0203 [0x23] WAIT_FOR_DIALOG_INTERACTION
 59: 0x0204 [0x1A] CALL_SUBROUTINE(address=0x08DE)
 60: 0x0207 [0x1D] PRINT_EVENT_MESSAGE(message_id=7285*)
    → "In alchemy, losing your focus could result in a tragedy of universal proportions. This is why we advise against becoming [an artisan/an adept/a veteran] in more than one guild."
 61: 0x020A [0x23] WAIT_FOR_DIALOG_INTERACTION
 62: 0x020B [0x01] GOTO 0x04BC
 63: 0x020E [0x02] IF !(Work_Zone[4] == 100*) GOTO 0x0304
 64: 0x0216 [0x02] IF !(ExtData[1]->WorkLocal[1] == 1*) GOTO 0x02B0
 65: 0x021E [0x02] IF !(ExtData[1]->WorkLocal[3] == 1*) GOTO 0x029A
 66: 0x0226 [0x02] IF !(ExtData[1]->WorkLocal[2] == 1*) GOTO 0x025C
 67: 0x022E [0x03] Work_Zone[4] = 10792*
 68: 0x0233 [0x1A] CALL_SUBROUTINE(address=0x08CC)
 69: 0x0236 [0x1D] PRINT_EVENT_MESSAGE(message_id=7278*)
    → "Have the fumes gotten to your head? I've already told you that making $2 requires..."
 70: 0x0239 [0x23] WAIT_FOR_DIALOG_INTERACTION
 71: 0x023A [0x1A] CALL_SUBROUTINE(address=0x08DE)
 72: 0x023D [0x03] ExtData[1]->WorkLocal[5] = 100*
 73: 0x0242 [0x03] ExtData[1]->WorkLocal[6] = 9*
 74: 0x0247 [0x03] ExtData[1]->WorkLocal[7] = 10792*
 75: 0x024C [0x1A] CALL_SUBROUTINE(address=0x0597)
 76: 0x024F [0x1A] CALL_SUBROUTINE(address=0x08CC)
 77: 0x0252 [0x1D] PRINT_EVENT_MESSAGE(message_id=7277*)
    → "And be sure to leave your name upon your work. Why, you say? I would think it obvious, but will leave the question for you to ponder."
 78: 0x0255 [0x23] WAIT_FOR_DIALOG_INTERACTION
 79: 0x0256 [0x1A] CALL_SUBROUTINE(address=0x08DE)
 80: 0x0259 [0x01] GOTO 0x0297
 81: 0x025C [0x42] SET_CLI_EVENT_CANCEL_DATA()
 82: 0x025D [0x03] Work_Zone[3] = 2039*
 83: 0x0262 [0x1A] CALL_SUBROUTINE(address=0x08CC)
 84: 0x0265 [0x1D] PRINT_EVENT_MESSAGE(message_id=7275*)
    → "Say not a word, <Player>. It is as plain as day to me. You have familiarized yourself with the contents of $6."
 85: 0x0268 [0x23] WAIT_FOR_DIALOG_INTERACTION
 86: 0x0269 [0x03] Work_Zone[4] = 10792*
 87: 0x026E [0x1D] PRINT_EVENT_MESSAGE(message_id=7276*)
    → "Very well. Create for me $2. This is what you will need. Listen well--the prospect of repeating myself does not amuse me."
 88: 0x0271 [0x23] WAIT_FOR_DIALOG_INTERACTION
 89: 0x0272 [0x1A] CALL_SUBROUTINE(address=0x08DE)
 90: 0x0275 [0x03] ExtData[1]->WorkLocal[5] = 100*
 91: 0x027A [0x03] ExtData[1]->WorkLocal[6] = 9*
 92: 0x027F [0x03] ExtData[1]->WorkLocal[7] = 10792*
 93: 0x0284 [0x1A] CALL_SUBROUTINE(address=0x0597)
 94: 0x0287 [0x1A] CALL_SUBROUTINE(address=0x08CC)
 95: 0x028A [0x1D] PRINT_EVENT_MESSAGE(message_id=7277*)
    → "And be sure to leave your name upon your work. Why, you say? I would think it obvious, but will leave the question for you to ponder."
 96: 0x028D [0x23] WAIT_FOR_DIALOG_INTERACTION
 97: 0x028E [0x1A] CALL_SUBROUTINE(address=0x08DE)
 98: 0x0291 [0x03] Work_Zone[1] = 3*
 99: 0x0296 [0x2E] SET_CLI_EVENT_CANCEL_FLAGS()

SUBROUTINE_0297:
100: 0x0297 [0x01] GOTO 0x02AD
101: 0x029A [0x03] Work_Zone[3] = 2039*
102: 0x029F [0x1A] CALL_SUBROUTINE(address=0x08CC)
103: 0x02A2 [0x1D] PRINT_EVENT_MESSAGE(message_id=7274*)
    → "Acquire yourself a copy of $6 from Hemewmew, and we shall proceed from there."
104: 0x02A5 [0x23] WAIT_FOR_DIALOG_INTERACTION
105: 0x02A6 [0x1D] PRINT_EVENT_MESSAGE(message_id=7272*)
    → "An alchemist of your caliber need not be told that nothing in our universe comes without a price, and that a nominal fee in guild points must be paid to obtain the tome."
106: 0x02A9 [0x23] WAIT_FOR_DIALOG_INTERACTION
107: 0x02AA [0x1A] CALL_SUBROUTINE(address=0x08DE)

SUBROUTINE_02AD:
108: 0x02AD [0x01] GOTO 0x0301
109: 0x02B0 [0x03] Work_Zone[2] = 0*
110: 0x02B5 [0x1A] CALL_SUBROUTINE(address=0x08CC)
111: 0x02B8 [0x1D] PRINT_EVENT_MESSAGE(message_id=7269*)
    → "The time has come, <Player>. The time to move beyond your limits as [a veteran/an expert/an authority/a luminary/a master] and seek the answers to yet deeper questions of our universe. I trust you are up to the task?"
112: 0x02BB [0x23] WAIT_FOR_DIALOG_INTERACTION
113: 0x02BC [0x1A] CALL_SUBROUTINE(address=0x08DE)
114: 0x02BF [0x24] CREATE_DIALOG(message_id=7270*, default_option=0*, option_flags=0*)
    → "Up to the task? [I am!/I am not...]"
115: 0x02C6 [0x25] WAIT_DIALOG_SELECT()
116: 0x02C7 [0x02] IF !(Work_Zone[0] == 0*) GOTO 0x02EC
117: 0x02CF [0x42] SET_CLI_EVENT_CANCEL_DATA()
118: 0x02D0 [0x03] Work_Zone[3] = 2039*
119: 0x02D5 [0x1A] CALL_SUBROUTINE(address=0x08CC)
120: 0x02D8 [0x1D] PRINT_EVENT_MESSAGE(message_id=7271*)
    → "Yes, of course you are. Your answer was known to me long before I posed the question. Acquire yourself a copy of $6 from Hemewmew, and we shall proceed from there."
121: 0x02DB [0x23] WAIT_FOR_DIALOG_INTERACTION
122: 0x02DC [0x1D] PRINT_EVENT_MESSAGE(message_id=7272*)
    → "An alchemist of your caliber need not be told that nothing in our universe comes without a price, and that a nominal fee in guild points must be paid to obtain the tome."
123: 0x02DF [0x23] WAIT_FOR_DIALOG_INTERACTION
124: 0x02E0 [0x1A] CALL_SUBROUTINE(address=0x08DE)
125: 0x02E3 [0x03] Work_Zone[1] = 2*
126: 0x02E8 [0x2E] SET_CLI_EVENT_CANCEL_FLAGS()
127: 0x02E9 [0x01] GOTO 0x0301
128: 0x02EC [0x02] IF !(Work_Zone[0] == 1*) GOTO 0x0301
129: 0x02F4 [0x1A] CALL_SUBROUTINE(address=0x08CC)
130: 0x02F7 [0x1D] PRINT_EVENT_MESSAGE(message_id=7273*)
    → "All for the better. Pursuing alchemy with imperfect focus has been known to lead to madness, disaster...or worse. When you are prepared to devote the entirety of your soul to our practice, you may return. And not a day before."
131: 0x02FA [0x23] WAIT_FOR_DIALOG_INTERACTION
132: 0x02FB [0x1A] CALL_SUBROUTINE(address=0x08DE)
133: 0x02FE [0x01] GOTO 0x0301

SUBROUTINE_0301:
134: 0x0301 [0x01] GOTO 0x04BC
135: 0x0304 [0x02] IF !(Work_Zone[4] <= 100*) GOTO 0x04AE
136: 0x030C [0x02] IF !(ExtData[1]->WorkLocal[1] == 1*) GOTO 0x03CA
137: 0x0314 [0x02] IF !(ExtData[1]->WorkLocal[3] == 1*) GOTO 0x03C7
138: 0x031C [0x02] IF !(ExtData[1]->WorkLocal[2] == 1*) GOTO 0x03C4
139: 0x0324 [0x03] Work_Zone[2] = Work_Zone[4]
140: 0x0329 [0x08] Work_Zone[2] -= 100*
141: 0x032E [0x15] Work_Zone[2] /= 10*
142: 0x0333 [0x02] IF !(Work_Zone[2] == 1*) GOTO 0x035F
143: 0x033B [0x03] Work_Zone[4] = 11*
144: 0x0340 [0x1A] CALL_SUBROUTINE(address=0x08CC)
145: 0x0343 [0x1D] PRINT_EVENT_MESSAGE(message_id=7278*)
    → "Have the fumes gotten to your head? I've already told you that making $2 requires..."
146: 0x0346 [0x23] WAIT_FOR_DIALOG_INTERACTION
147: 0x0347 [0x1A] CALL_SUBROUTINE(address=0x08DE)
148: 0x034A [0x03] ExtData[1]->WorkLocal[5] = 110*
149: 0x034F [0x03] ExtData[1]->WorkLocal[6] = 10*
150: 0x0354 [0x03] ExtData[1]->WorkLocal[7] = 11*
151: 0x0359 [0x1A] CALL_SUBROUTINE(address=0x0597)
152: 0x035C [0x01] GOTO 0x03B7
153: 0x035F [0x02] IF !(Work_Zone[2] == 2*) GOTO 0x038B
154: 0x0367 [0x03] Work_Zone[4] = 12*
155: 0x036C [0x1A] CALL_SUBROUTINE(address=0x08CC)
156: 0x036F [0x1D] PRINT_EVENT_MESSAGE(message_id=7278*)
    → "Have the fumes gotten to your head? I've already told you that making $2 requires..."
157: 0x0372 [0x23] WAIT_FOR_DIALOG_INTERACTION
158: 0x0373 [0x1A] CALL_SUBROUTINE(address=0x08DE)
159: 0x0376 [0x03] ExtData[1]->WorkLocal[5] = 120*
160: 0x037B [0x03] ExtData[1]->WorkLocal[6] = 11*
161: 0x0380 [0x03] ExtData[1]->WorkLocal[7] = 12*
162: 0x0385 [0x1A] CALL_SUBROUTINE(address=0x0597)
163: 0x0388 [0x01] GOTO 0x03B7
164: 0x038B [0x02] IF !(Work_Zone[2] == 3*) GOTO 0x03B7
165: 0x0393 [0x03] Work_Zone[4] = 13*
166: 0x0398 [0x1A] CALL_SUBROUTINE(address=0x08CC)
167: 0x039B [0x1D] PRINT_EVENT_MESSAGE(message_id=7278*)
    → "Have the fumes gotten to your head? I've already told you that making $2 requires..."
168: 0x039E [0x23] WAIT_FOR_DIALOG_INTERACTION
169: 0x039F [0x1A] CALL_SUBROUTINE(address=0x08DE)
170: 0x03A2 [0x03] ExtData[1]->WorkLocal[5] = 130*
171: 0x03A7 [0x03] ExtData[1]->WorkLocal[6] = 12*
172: 0x03AC [0x03] ExtData[1]->WorkLocal[7] = 13*
173: 0x03B1 [0x1A] CALL_SUBROUTINE(address=0x0597)
174: 0x03B4 [0x01] GOTO 0x03B7

SUBROUTINE_03B7:
175: 0x03B7 [0x1A] CALL_SUBROUTINE(address=0x08CC)
176: 0x03BA [0x1D] PRINT_EVENT_MESSAGE(message_id=7277*)
    → "And be sure to leave your name upon your work. Why, you say? I would think it obvious, but will leave the question for you to ponder."
177: 0x03BD [0x23] WAIT_FOR_DIALOG_INTERACTION
178: 0x03BE [0x1A] CALL_SUBROUTINE(address=0x08DE)
179: 0x03C1 [0x01] GOTO 0x03C4

SUBROUTINE_03C4:
180: 0x03C4 [0x01] GOTO 0x03C7

SUBROUTINE_03C7:
181: 0x03C7 [0x01] GOTO 0x04AB
182: 0x03CA [0x02] IF !(ExtData[1]->WorkLocal[3] == 1*) GOTO 0x04AB
183: 0x03D2 [0x03] Work_Zone[2] = Work_Zone[4]
184: 0x03D7 [0x08] Work_Zone[2] -= 100*
185: 0x03DC [0x15] Work_Zone[2] /= 10*
186: 0x03E1 [0x1A] CALL_SUBROUTINE(address=0x08CC)
187: 0x03E4 [0x1D] PRINT_EVENT_MESSAGE(message_id=7269*)
    → "The time has come, <Player>. The time to move beyond your limits as [a veteran/an expert/an authority/a luminary/a master] and seek the answers to yet deeper questions of our universe. I trust you are up to the task?"
188: 0x03E7 [0x23] WAIT_FOR_DIALOG_INTERACTION
189: 0x03E8 [0x1A] CALL_SUBROUTINE(address=0x08DE)
190: 0x03EB [0x24] CREATE_DIALOG(message_id=7270*, default_option=0*, option_flags=0*)
    → "Up to the task? [I am!/I am not...]"
191: 0x03F2 [0x25] WAIT_DIALOG_SELECT()
192: 0x03F3 [0x02] IF !(Work_Zone[0] == 0*) GOTO 0x0493
193: 0x03FB [0x42] SET_CLI_EVENT_CANCEL_DATA()
194: 0x03FC [0x02] IF !(Work_Zone[2] == 1*) GOTO 0x0428
195: 0x0404 [0x03] Work_Zone[4] = 11*
196: 0x0409 [0x1A] CALL_SUBROUTINE(address=0x08CC)
197: 0x040C [0x1D] PRINT_EVENT_MESSAGE(message_id=7276*)
    → "Very well. Create for me $2. This is what you will need. Listen well--the prospect of repeating myself does not amuse me."
198: 0x040F [0x23] WAIT_FOR_DIALOG_INTERACTION
199: 0x0410 [0x1A] CALL_SUBROUTINE(address=0x08DE)
200: 0x0413 [0x03] ExtData[1]->WorkLocal[5] = 110*
201: 0x0418 [0x03] ExtData[1]->WorkLocal[6] = 10*
202: 0x041D [0x03] ExtData[1]->WorkLocal[7] = 11*
203: 0x0422 [0x1A] CALL_SUBROUTINE(address=0x0597)
204: 0x0425 [0x01] GOTO 0x0480
205: 0x0428 [0x02] IF !(Work_Zone[2] == 2*) GOTO 0x0454
206: 0x0430 [0x03] Work_Zone[4] = 12*
207: 0x0435 [0x1A] CALL_SUBROUTINE(address=0x08CC)
208: 0x0438 [0x1D] PRINT_EVENT_MESSAGE(message_id=7276*)
    → "Very well. Create for me $2. This is what you will need. Listen well--the prospect of repeating myself does not amuse me."
209: 0x043B [0x23] WAIT_FOR_DIALOG_INTERACTION
210: 0x043C [0x1A] CALL_SUBROUTINE(address=0x08DE)
211: 0x043F [0x03] ExtData[1]->WorkLocal[5] = 120*
212: 0x0444 [0x03] ExtData[1]->WorkLocal[6] = 11*
213: 0x0449 [0x03] ExtData[1]->WorkLocal[7] = 12*
214: 0x044E [0x1A] CALL_SUBROUTINE(address=0x0597)
215: 0x0451 [0x01] GOTO 0x0480
216: 0x0454 [0x02] IF !(Work_Zone[2] == 3*) GOTO 0x0480
217: 0x045C [0x03] Work_Zone[4] = 13*
218: 0x0461 [0x1A] CALL_SUBROUTINE(address=0x08CC)
219: 0x0464 [0x1D] PRINT_EVENT_MESSAGE(message_id=7276*)
    → "Very well. Create for me $2. This is what you will need. Listen well--the prospect of repeating myself does not amuse me."
220: 0x0467 [0x23] WAIT_FOR_DIALOG_INTERACTION
221: 0x0468 [0x1A] CALL_SUBROUTINE(address=0x08DE)
222: 0x046B [0x03] ExtData[1]->WorkLocal[5] = 130*
223: 0x0470 [0x03] ExtData[1]->WorkLocal[6] = 12*
224: 0x0475 [0x03] ExtData[1]->WorkLocal[7] = 13*
225: 0x047A [0x1A] CALL_SUBROUTINE(address=0x0597)
226: 0x047D [0x01] GOTO 0x0480

SUBROUTINE_0480:
227: 0x0480 [0x1A] CALL_SUBROUTINE(address=0x08CC)
228: 0x0483 [0x1D] PRINT_EVENT_MESSAGE(message_id=7277*)
    → "And be sure to leave your name upon your work. Why, you say? I would think it obvious, but will leave the question for you to ponder."
229: 0x0486 [0x23] WAIT_FOR_DIALOG_INTERACTION
230: 0x0487 [0x1A] CALL_SUBROUTINE(address=0x08DE)
231: 0x048A [0x03] Work_Zone[1] = 4*
232: 0x048F [0x2E] SET_CLI_EVENT_CANCEL_FLAGS()
233: 0x0490 [0x01] GOTO 0x04A8
234: 0x0493 [0x02] IF !(Work_Zone[0] == 1*) GOTO 0x04A8
235: 0x049B [0x1A] CALL_SUBROUTINE(address=0x08CC)
236: 0x049E [0x1D] PRINT_EVENT_MESSAGE(message_id=7273*)
    → "All for the better. Pursuing alchemy with imperfect focus has been known to lead to madness, disaster...or worse. When you are prepared to devote the entirety of your soul to our practice, you may return. And not a day before."
237: 0x04A1 [0x23] WAIT_FOR_DIALOG_INTERACTION
238: 0x04A2 [0x1A] CALL_SUBROUTINE(address=0x08DE)
239: 0x04A5 [0x01] GOTO 0x04A8

SUBROUTINE_04A8:
240: 0x04A8 [0x01] GOTO 0x04AB

SUBROUTINE_04AB:
241: 0x04AB [0x01] GOTO 0x04BC
242: 0x04AE [0x1A] CALL_SUBROUTINE(address=0x08CC)
243: 0x04B1 [0x1D] PRINT_EVENT_MESSAGE(message_id=7152*)
    → "I sense that you have attained enough knowledge to move on to the next plane of alchemy."
244: 0x04B4 [0x23] WAIT_FOR_DIALOG_INTERACTION
245: 0x04B5 [0x1D] PRINT_EVENT_MESSAGE(message_id=7153*)
    → "Make $0 and I will further entrust you with the secrets of the universe."
246: 0x04B8 [0x23] WAIT_FOR_DIALOG_INTERACTION
247: 0x04B9 [0x1A] CALL_SUBROUTINE(address=0x08DE)

SUBROUTINE_04BC:
248: 0x04BC [0x01] GOTO 0x04C9
249: 0x04BF [0x1A] CALL_SUBROUTINE(address=0x08CC)
250: 0x04C2 [0x1D] PRINT_EVENT_MESSAGE(message_id=7151*)
    → "Along with the mastery of alchemy, you have obtained the knowledge of the universe. However, knowing the universe means having the power to destroy it. Such power is not to be trifled with."
251: 0x04C5 [0x23] WAIT_FOR_DIALOG_INTERACTION
252: 0x04C6 [0x1A] CALL_SUBROUTINE(address=0x08DE)

SUBROUTINE_04C9:
253: 0x04C9 [0x01] GOTO 0x04D5
254: 0x04CC [0x1D] PRINT_EVENT_MESSAGE(message_id=7143*)
    → "And you are? This is the Alchemists' Guild. In other words, an organization that researches the origins of the universe, and puts that knowledge to use in the development of new medicines and items."
255: 0x04CF [0x23] WAIT_FOR_DIALOG_INTERACTION
256: 0x04D0 [0x03] ExtData[1]->WorkLocal[0] = 1*

SUBROUTINE_04D5:
257: 0x04D5 [0x02] IF !(ExtData[1]->WorkLocal[10] <= 0*) GOTO 0x053B
258: 0x04DD [0x24] CREATE_DIALOG(message_id=14094*, default_option=1*, option_flags=0*)
    → "Ask if this person is the chick's owner? [Yes./No.]"
259: 0x04E4 [0x25] WAIT_DIALOG_SELECT()
260: 0x04E5 [0x02] IF !(Work_Zone[0] == 0*) GOTO 0x053B
261: 0x04ED [0x42] SET_CLI_EVENT_CANCEL_DATA()
262: 0x04EE [0x1D] PRINT_EVENT_MESSAGE(message_id=14202*)
    → "You've...you've got my chocobo?"
263: 0x04F1 [0x23] WAIT_FOR_DIALOG_INTERACTION
264: 0x04F2 [0x07] Work_Zone[1] += 5*
265: 0x04F7 [0x43] SEND_EVENT_UPDATE: Send pending tag to server (packet 0x005B)
266: 0x04F9 [0x43] SEND_EVENT_UPDATE: Check pending flag (skip if not pending)
267: 0x04FB [0x02] IF !(ExtData[1]->WorkLocal[10] == 2*) GOTO 0x0519
268: 0x0503 [0x66] LOAD_EXT_SCHEDULER_MAIN: Load scheduler "tlk0" with entities [EventEntity, EventEntity], work=9*
269: 0x0512 [0x1D] PRINT_EVENT_MESSAGE(message_id=14218*)
    → "There are two kinds of chocobos in this world: those that belong to me, and those that don't. The chocobo that you speak of is one of the latter."
270: 0x0515 [0x23] WAIT_FOR_DIALOG_INTERACTION
271: 0x0516 [0x01] GOTO 0x0537
272: 0x0519 [0x27] REQ_SET(priority=0x05, entity_id=Abd-al-Raziq (ID: 17735710/0x010EA01E), tag_num=0x1D)
273: 0x0520 [0x1D] PRINT_EVENT_MESSAGE(message_id=14203*)
    → "... What a relief..."
274: 0x0523 [0x23] WAIT_FOR_DIALOG_INTERACTION
275: 0x0524 [0x66] LOAD_EXT_SCHEDULER_MAIN: Load scheduler "tlk0" with entities [EventEntity, EventEntity], work=9*
276: 0x0533 [0x1D] PRINT_EVENT_MESSAGE(message_id=14204*)
    → "I thank you for your kindness, [sir/ma'am]. As thanks, let me teach you a story I often tell my chocobo..."
277: 0x0536 [0x23] WAIT_FOR_DIALOG_INTERACTION

SUBROUTINE_0537:
278: 0x0537 [0x21] END_EVENT

SUBROUTINE_053B:
279: 0x053B [0x02] IF !(ExtData[1]->WorkLocal[0] == 1*) GOTO 0x0595
280: 0x0543 [0x03] Work_Zone[8] = 7*
281: 0x0548 [0x24] CREATE_DIALOG(message_id=7087*, default_option=0*, option_flags=0*)
    → "Join the [Fishermen's/Carpenters'/Blacksmiths'/Goldsmiths'/Weavers'/Tanners'/Boneworkers'/Alchemists'/Culinarians'] Guild? [Sign up./That's not why you're here.]"
282: 0x054F [0x25] WAIT_DIALOG_SELECT()
283: 0x0550 [0x02] IF !(Work_Zone[0] == 0*) GOTO 0x0580
284: 0x0558 [0x1A] CALL_SUBROUTINE(address=0x08CC)
285: 0x055B [0x1D] PRINT_EVENT_MESSAGE(message_id=7145*)
    → "Well, well, well. An adventurer. Then we shall start you with crystal synthesis."
286: 0x055E [0x23] WAIT_FOR_DIALOG_INTERACTION
287: 0x055F [0x1A] CALL_SUBROUTINE(address=0x08DE)
288: 0x0562 [0x1D] PRINT_EVENT_MESSAGE(message_id=7146*)
    → "You must already know, but crystals house different forms of energy. Crystal synthesis taps that energy and utilizes it to transform matter."
289: 0x0565 [0x23] WAIT_FOR_DIALOG_INTERACTION
290: 0x0566 [0x1A] CALL_SUBROUTINE(address=0x08CC)
291: 0x0569 [0x1D] PRINT_EVENT_MESSAGE(message_id=7147*)
    → "The success of crystal synthesis depends on the images of the product made by the user. In other words, the better the user, the better the image, the better the final product."
292: 0x056C [0x23] WAIT_FOR_DIALOG_INTERACTION
293: 0x056D [0x1D] PRINT_EVENT_MESSAGE(message_id=7148*)
    → "Obviously, the more experience you accumulate over the years, the more skilled you will become."
294: 0x0570 [0x23] WAIT_FOR_DIALOG_INTERACTION
295: 0x0571 [0x1A] CALL_SUBROUTINE(address=0x08DE)
296: 0x0574 [0x1D] PRINT_EVENT_MESSAGE(message_id=7149*)
    → "If there is anything you don't understand, ask the alchemists here in this guild. You are now one of their companions!"
297: 0x0577 [0x23] WAIT_FOR_DIALOG_INTERACTION
298: 0x0578 [0x03] Work_Zone[1] = 1*
299: 0x057D [0x01] GOTO 0x0595
300: 0x0580 [0x02] IF !(Work_Zone[0] == 1*) GOTO 0x0595
301: 0x0588 [0x1A] CALL_SUBROUTINE(address=0x08CC)
302: 0x058B [0x1D] PRINT_EVENT_MESSAGE(message_id=7144*)
    → "Oh, you must be looking for the shop. It's down the stairs, on your right."
303: 0x058E [0x23] WAIT_FOR_DIALOG_INTERACTION
304: 0x058F [0x1A] CALL_SUBROUTINE(address=0x08DE)
305: 0x0592 [0x01] GOTO 0x0595

SUBROUTINE_0595:
306: 0x0595 [0x21] END_EVENT
307: 0x0596 [0x00] END_REQSTACK()

SUBROUTINE_0597:
308: 0x0597 [0x8C] CRAFTING_HANDLER(mode=0x02) // Set recipe data
309: 0x05A3 [0x8C] CRAFTING_HANDLER(mode=0x01) // End crafting session
310: 0x05A5 [0x02] IF !(ExtData[1]->WorkLocal[7] == Work_Zone[2]) GOTO 0x05B8
311: 0x05AD [0x03] ExtData[1]->WorkLocal[7] = 0*
312: 0x05B2 [0x01] GOTO 0x06EA

SUBROUTINE_06EA:
313: 0x06EA [0x07] ExtData[1]->WorkLocal[7] += ExtData[1]->WorkLocal[8]
314: 0x06EF [0x8C] CRAFTING_HANDLER(mode=0x03) // Get synthesis recipe
315: 0x06F9 [0x8C] CRAFTING_HANDLER(mode=0x01) // End crafting session
316: 0x06FB [0x07] Work_Zone[68] += 142*
317: 0x0700 [0x03] Work_Zone[8] = ExtData[1]->WorkLocal[4]
318: 0x0705 [0x03] Work_Zone[3] = Work_Zone[65]
319: 0x070A [0x03] Work_Zone[4] = Work_Zone[66]
320: 0x070F [0x03] Work_Zone[5] = Work_Zone[67]
321: 0x0714 [0x03] Work_Zone[6] = Work_Zone[68]
322: 0x0719 [0x03] Work_Zone[7] = Work_Zone[85]
323: 0x071E [0x02] IF !(Work_Zone[7] == 0*) GOTO 0x072D
324: 0x0726 [0x48] [System] [7093*]:
    → "Necessary skills: [Fishing/Woodworking/Smithing/Goldsmithing/Clothcraft/Leatherworking/Bonecraft/Alchemy/Cooking][ /, Woodworking/, Smithing/, Goldsmithing/, Clothcraft/, Leatherworking/, Bonecraft/, Alchemy/, Cooking][ /, Woodworking/, Smithing/, Goldsmithing/, Clothcraft/, Leatherworking/, Bonecraft/, Alchemy/, Cooking][ /, & Woodworking/, & Smithing/, & Goldsmithing/, & Clothcraft/, & Leatherworking/, & Bonecraft/, & Alchemy/, & Cooking] Necessary crystal: $4 Necessary items:"
325: 0x0729 [0x23] WAIT_FOR_DIALOG_INTERACTION
326: 0x072A [0x01] GOTO 0x0731
327: 0x072D [0x48] [System] [7131*]:
    → "Necessary skills: [Fishing/Woodworking/Smithing/Goldsmithing/Clothcraft/Leatherworking/Bonecraft/Alchemy/Cooking][ /, Woodworking/, Smithing/, Goldsmithing/, Clothcraft/, Leatherworking/, Bonecraft/, Alchemy/, Cooking][ /, Woodworking/, Smithing/, Goldsmithing/, Clothcraft/, Leatherworking/, Bonecraft/, Alchemy/, Cooking][ /, & Woodworking/, & Smithing/, & Goldsmithing/, & Clothcraft/, & Leatherworking/, & Bonecraft/, & Alchemy/, & Cooking] Necessary crystal: $4 Necessary key item: $3 Necessary items:"
328: 0x0730 [0x23] WAIT_FOR_DIALOG_INTERACTION

SUBROUTINE_0731:
329: 0x0731 [0x03] Work_Zone[2] = Work_Zone[69]
330: 0x0736 [0x03] Work_Zone[3] = Work_Zone[70]
331: 0x073B [0x03] Work_Zone[4] = Work_Zone[71]
332: 0x0740 [0x03] Work_Zone[5] = Work_Zone[72]
333: 0x0745 [0x03] Work_Zone[6] = Work_Zone[77]
334: 0x074A [0x03] Work_Zone[7] = Work_Zone[78]
335: 0x074F [0x03] Work_Zone[8] = Work_Zone[79]
336: 0x0754 [0x03] Work_Zone[9] = Work_Zone[80]
337: 0x0759 [0x02] IF !(Work_Zone[7] == 0*) GOTO 0x0768
338: 0x0761 [0x48] [System] [7097*]:
    → "$4 x $0"
339: 0x0764 [0x23] WAIT_FOR_DIALOG_INTERACTION
340: 0x0765 [0x01] GOTO 0x07EE
341: 0x0768 [0x02] IF !(Work_Zone[8] == 0*) GOTO 0x0777
342: 0x0770 [0x48] [System] [7096*]:
    → "$4 x $0 $5 x $0$0"
343: 0x0773 [0x23] WAIT_FOR_DIALOG_INTERACTION
344: 0x0774 [0x01] GOTO 0x07EE
345: 0x0777 [0x02] IF !(Work_Zone[9] == 0*) GOTO 0x0786
346: 0x077F [0x48] [System] [7095*]:
    → "$4 x $0 $5 x $0$0 $6 x $0"
347: 0x0782 [0x23] WAIT_FOR_DIALOG_INTERACTION
348: 0x0783 [0x01] GOTO 0x07EE
349: 0x0786 [0x48] [System] [7094*]:
    → "$4 x $0 $5 x $0$0 $6 x $0 $7 x $0$3"
350: 0x0789 [0x23] WAIT_FOR_DIALOG_INTERACTION
351: 0x078A [0x03] Work_Zone[2] = Work_Zone[73]
352: 0x078F [0x03] Work_Zone[3] = Work_Zone[74]
353: 0x0794 [0x03] Work_Zone[4] = Work_Zone[75]
354: 0x0799 [0x03] Work_Zone[5] = Work_Zone[76]
355: 0x079E [0x03] Work_Zone[6] = Work_Zone[81]
356: 0x07A3 [0x03] Work_Zone[7] = Work_Zone[82]
357: 0x07A8 [0x03] Work_Zone[8] = Work_Zone[83]
358: 0x07AD [0x03] Work_Zone[9] = Work_Zone[84]
359: 0x07B2 [0x02] IF !(Work_Zone[6] == 0*) GOTO 0x07BD
360: 0x07BA [0x01] GOTO 0x07EE
361: 0x07BD [0x02] IF !(Work_Zone[7] == 0*) GOTO 0x07CC
362: 0x07C5 [0x48] [System] [7097*]:
    → "$4 x $0"
363: 0x07C8 [0x23] WAIT_FOR_DIALOG_INTERACTION
364: 0x07C9 [0x01] GOTO 0x07EE
365: 0x07CC [0x02] IF !(Work_Zone[8] == 0*) GOTO 0x07DB
366: 0x07D4 [0x48] [System] [7096*]:
    → "$4 x $0 $5 x $0$0"
367: 0x07D7 [0x23] WAIT_FOR_DIALOG_INTERACTION
368: 0x07D8 [0x01] GOTO 0x07EE
369: 0x07DB [0x02] IF !(Work_Zone[9] == 0*) GOTO 0x07EA
370: 0x07E3 [0x48] [System] [7095*]:
    → "$4 x $0 $5 x $0$0 $6 x $0"
371: 0x07E6 [0x23] WAIT_FOR_DIALOG_INTERACTION
372: 0x07E7 [0x01] GOTO 0x07EE
373: 0x07EA [0x48] [System] [7094*]:
    → "$4 x $0 $5 x $0$0 $6 x $0 $7 x $0$3"
374: 0x07ED [0x23] WAIT_FOR_DIALOG_INTERACTION

SUBROUTINE_07EE:
375: 0x07EE [0x1B] RETURN
```

#### Data or dead code:

```
# Dead code (unreachable instructions):
     0x007F [0x01] GOTO 0x0176
# Dead code (unreachable instructions):
     0x018C [0x01] GOTO 0x01A8
# Dead code (unreachable instructions):
     0x0538 [0x01] GOTO 0x053B
# Dead code (unreachable instructions):
     0x05B5 [0x01] GOTO 0x06EA
     0x05C8 [0x01] GOTO 0x06EA
     0x05DB [0x01] GOTO 0x06EA
     0x05EE [0x01] GOTO 0x06EA
     0x0601 [0x01] GOTO 0x06EA
     0x0614 [0x01] GOTO 0x06EA
     0x0627 [0x01] GOTO 0x06EA
     0x063A [0x01] GOTO 0x06EA
     0x064D [0x01] GOTO 0x06EA
     0x0660 [0x01] GOTO 0x06EA
     0x0673 [0x01] GOTO 0x06EA
     0x0686 [0x01] GOTO 0x06EA
     0x0699 [0x01] GOTO 0x06EA
     0x06AC [0x01] GOTO 0x06EA
     0x06BF [0x01] GOTO 0x06EA
     0x06D2 [0x01] GOTO 0x06EA
```

### Event 121

#### Metadata

| Field        | Value     |
|--------------|-----------|
| Entrypoint   | 0x07EF    |
| Data Size    | 255 bytes |
| Instructions | 64        |

```
      00 01 02 03 04 05 06 07  08 09 0A 0B 0C 0D 0E 0F
      -- -- -- -- -- -- -- --  -- -- -- -- -- -- -- --
07E0:                                               20                  
07F0: 01 42 1E F0 FF FF 7F 1A  CC 08 02 06 10 00 80 03  .B..............
0800: 07 08 03 06 10 00 80 03  09 10 06 10 02 09 10 12  ................
0810: 80 05 1B 08 1D 50 80 23  01 AE 08 02 09 10 14 80  .....P.#........
0820: 80 2A 08 1D 51 80 23 01  AE 08 02 09 10 16 80 80  .*..Q.#.........
0830: 39 08 1D 52 80 23 01 AE  08 02 09 10 03 80 80 54  9..R.#.........T
0840: 08 1D 53 80 23 02 05 10  00 80 00 51 08 1D 54 80  ..S.#......Q..T.
0850: 23 01 AE 08 02 09 10 1C  80 80 6F 08 1D 55 80 23  #.........o..U.#
0860: 02 05 10 0D 80 00 6C 08  1D 54 80 23 01 AE 08 02  ......l..T.#....
0870: 09 10 01 80 80 8A 08 1D  56 80 23 02 05 10 07 80  ........V.#.....
0880: 00 87 08 1D 54 80 23 01  AE 08 02 09 10 02 80 80  ....T.#.........
0890: AE 08 02 07 10 0D 80 00  A1 08 1D 57 80 23 01 AB  ...........W.#..
08A0: 08 1D 58 80 23 1D 59 80  23 21 00 01 AE 08 1A DE  ..X.#.Y.#!......
08B0: 08 03 08 10 03 80 45 5A  80 F0 FF FF 7F F0 FF FF  ......EZ........
08C0: 7F 71 73 74 63 00 80 48  5B 80 21 00 6F 70 66 01  .qstc..H[.!.opf.
08D0: 80 F8 FF FF 7F F8 FF FF  7F 74 6C 6B 30 1B 66 01  .........tlk0.f.
08E0: 80 F8 FF FF 7F F8 FF FF  7F 74 6C 6B 31 1B        .........tlk1.  
```

#### Opcodes

```
  0: 0x07EF [0x20] SET_CLI_EVENT_UC_FLAG: Lock player control
  1: 0x07F1 [0x42] SET_CLI_EVENT_CANCEL_DATA()
  2: 0x07F2 [0x1E] EventEntity looks at LocalPlayer and starts talking
  3: 0x07F7 [0x1A] CALL_SUBROUTINE(address=0x08CC)
  4: 0x07FA [0x02] IF !(Work_Zone[6] >= 0*) GOTO 0x0807
  5: 0x0802 [0x03] Work_Zone[6] = 0*
  6: 0x0807 [0x03] Work_Zone[9] = Work_Zone[6]
  7: 0x080C [0x02] IF !(Work_Zone[9] > 4*) GOTO 0x081B
  8: 0x0814 [0x1D] PRINT_EVENT_MESSAGE(message_id=7154*)
    → "... This work seems to be flawless. I hereby entrust you with the title of [amateur/recruit/initiate/novice/apprentice]. I look forward to you seeing your future work."
  9: 0x0817 [0x23] WAIT_FOR_DIALOG_INTERACTION
 10: 0x0818 [0x01] GOTO 0x08AE
 11: 0x081B [0x02] IF !(Work_Zone[9] == 5*) GOTO 0x082A
 12: 0x0823 [0x1D] PRINT_EVENT_MESSAGE(message_id=7155*)
    → "... Fine work, <Player>. I hereby entrust you with the title of journeyman. Do not squander your skills."
 13: 0x0826 [0x23] WAIT_FOR_DIALOG_INTERACTION
 14: 0x0827 [0x01] GOTO 0x08AE
 15: 0x082A [0x02] IF !(Work_Zone[9] == 6*) GOTO 0x0839
 16: 0x0832 [0x1D] PRINT_EVENT_MESSAGE(message_id=7181*)
    → "Excellent work. I have no difficulty in bestowing upon you...the title of craftsman."
 17: 0x0835 [0x23] WAIT_FOR_DIALOG_INTERACTION
 18: 0x0836 [0x01] GOTO 0x08AE
 19: 0x0839 [0x02] IF !(Work_Zone[9] == 7*) GOTO 0x0854
 20: 0x0841 [0x1D] PRINT_EVENT_MESSAGE(message_id=7156*)
    → "Wonderful! I am proud to have you stand by my side as an artisan."
 21: 0x0844 [0x23] WAIT_FOR_DIALOG_INTERACTION
 22: 0x0845 [0x02] IF !(Work_Zone[5] == 0*) GOTO 0x0851
 23: 0x084D [0x1D] PRINT_EVENT_MESSAGE(message_id=7286*)
    → "Of all the disciplines, alchemy demands the highest degree of focus from its practitioners. Entertain even a moment's thought of striving for [artisan/adept/veteran] status in another guild, and true knowledge of the mysteries of the universe will forever elude you."
 24: 0x0850 [0x23] WAIT_FOR_DIALOG_INTERACTION
 25: 0x0851 [0x01] GOTO 0x08AE
 26: 0x0854 [0x02] IF !(Work_Zone[9] == 8*) GOTO 0x086F
 27: 0x085C [0x1D] PRINT_EVENT_MESSAGE(message_id=7157*)
    → "The day has finally come. You are now worthy to be called an adept alchemist. Let us, together, reap the benefits of the vast knowledge of the universe."
 28: 0x085F [0x23] WAIT_FOR_DIALOG_INTERACTION
 29: 0x0860 [0x02] IF !(Work_Zone[5] == 1*) GOTO 0x086C
 30: 0x0868 [0x1D] PRINT_EVENT_MESSAGE(message_id=7286*)
    → "Of all the disciplines, alchemy demands the highest degree of focus from its practitioners. Entertain even a moment's thought of striving for [artisan/adept/veteran] status in another guild, and true knowledge of the mysteries of the universe will forever elude you."
 31: 0x086B [0x23] WAIT_FOR_DIALOG_INTERACTION
 32: 0x086C [0x01] GOTO 0x08AE
 33: 0x086F [0x02] IF !(Work_Zone[9] == 9*) GOTO 0x088A
 34: 0x0877 [0x1D] PRINT_EVENT_MESSAGE(message_id=7180*)
    → "A perfect job...as always, I might add. I hereby bestow you with the honorary title of veteran. I would not be suprised if you have attained the skills to turn mere lead into gold!"
 35: 0x087A [0x23] WAIT_FOR_DIALOG_INTERACTION
 36: 0x087B [0x02] IF !(Work_Zone[5] == 2*) GOTO 0x0887
 37: 0x0883 [0x1D] PRINT_EVENT_MESSAGE(message_id=7286*)
    → "Of all the disciplines, alchemy demands the highest degree of focus from its practitioners. Entertain even a moment's thought of striving for [artisan/adept/veteran] status in another guild, and true knowledge of the mysteries of the universe will forever elude you."
 38: 0x0886 [0x23] WAIT_FOR_DIALOG_INTERACTION
 39: 0x0887 [0x01] GOTO 0x08AE
 40: 0x088A [0x02] IF !(Work_Zone[9] == 10*) GOTO 0x08AE
 41: 0x0892 [0x02] IF !(Work_Zone[7] == 1*) GOTO 0x08A1
 42: 0x089A [0x1D] PRINT_EVENT_MESSAGE(message_id=7279*)
    → "Yes, this shall do. You have taken one step closer to true knowledge, <Player>. I bestow upon you the rank of expert. From this day on, let us unravel the mysteries of this universe together."
 43: 0x089D [0x23] WAIT_FOR_DIALOG_INTERACTION
 44: 0x089E [0x01] GOTO 0x08AB
 45: 0x08A1 [0x1D] PRINT_EVENT_MESSAGE(message_id=7280*)
    → "Is this some poor attempt at humor, <Player>? No self-respecting alchemist would be so ignorant as to submit for review a work that did not bear their name."
 46: 0x08A4 [0x23] WAIT_FOR_DIALOG_INTERACTION
 47: 0x08A5 [0x1D] PRINT_EVENT_MESSAGE(message_id=7281*)
    → "Let it suffice to say that I am not entertained. Return to your laboratory and do not return without that which I asked you for."
 48: 0x08A8 [0x23] WAIT_FOR_DIALOG_INTERACTION
 49: 0x08A9 [0x21] END_EVENT
 50: 0x08AA [0x00] END_REQSTACK()

SUBROUTINE_08AB:
 51: 0x08AB [0x01] GOTO 0x08AE

SUBROUTINE_08AE:
 52: 0x08AE [0x1A] CALL_SUBROUTINE(address=0x08DE)
 53: 0x08B1 [0x03] Work_Zone[8] = 7*
 54: 0x08B6 [0x45] LOAD_SCHEDULED_TASK: Load scheduler "qstc" with entities [LocalPlayer, LocalPlayer], work=[201*, 0*]
 55: 0x08C7 [0x48] [System] [7090*]:
    → "You are now recognized as [an amateur/a recruit/an initiate/a novice/an apprentice/a journeyman/a craftsman/an artisan/an adept/a veteran/an expert/an authority/a luminary/a master/a grandmaster/a legend] of the [Fishermen's/Carpenters'/Blacksmiths'/Goldsmiths'/Weavers'/Tanners'/Boneworkers'/Alchemists'/Culinarians'] Guild."
 56: 0x08CA [0x21] END_EVENT
 57: 0x08CB [0x00] END_REQSTACK()

SUBROUTINE_08CC:
 58: 0x08CC [0x6F] WAIT_FRAME_DELAY: Yield until WaitTime reaches zero
 59: 0x08CD [0x70] WAIT_ENTITY_RENDER_FLAG: Wait while EventEntity->Render.Flags3 bit 2 is set (cancel turn if not)
 60: 0x08CE [0x66] LOAD_EXT_SCHEDULER_MAIN: Load scheduler "tlk0" with entities [EventEntity, EventEntity], work=9*
 61: 0x08DD [0x1B] RETURN

SUBROUTINE_08DE:
 62: 0x08DE [0x66] LOAD_EXT_SCHEDULER_MAIN: Load scheduler "tlk1" with entities [EventEntity, EventEntity], work=9*
 63: 0x08ED [0x1B] RETURN
```

### Event 587

#### Metadata

| Field        | Value   |
|--------------|---------|
| Entrypoint   | 0x08EE  |
| Data Size    | 7 bytes |
| Instructions | 2       |

```
      00 01 02 03 04 05 06 07  08 09 0A 0B 0C 0D 0E 0F
      -- -- -- -- -- -- -- --  -- -- -- -- -- -- -- --
08E0:                                            92 01                ..
08F0: F8 FF FF 7F 00                                    .....           
```

#### Opcodes

```
  0: 0x08EE [0x92] EventEntity->Render.Flags3 ^= 0x01
  1: 0x08F4 [0x00] END_REQSTACK()
```

### Event 589

#### Metadata

| Field        | Value   |
|--------------|---------|
| Entrypoint   | 0x08F5  |
| Data Size    | 7 bytes |
| Instructions | 2       |

```
      00 01 02 03 04 05 06 07  08 09 0A 0B 0C 0D 0E 0F
      -- -- -- -- -- -- -- --  -- -- -- -- -- -- -- --
08F0:                92 01 F8  FF FF 7F 00                   .......    
```

#### Opcodes

```
  0: 0x08F5 [0x92] EventEntity->Render.Flags3 ^= 0x01
  1: 0x08FB [0x00] END_REQSTACK()
```

### Event 590

#### Metadata

| Field        | Value     |
|--------------|-----------|
| Entrypoint   | 0x08FC    |
| Data Size    | 114 bytes |
| Instructions | 24        |

```
      00 01 02 03 04 05 06 07  08 09 0A 0B 0C 0D 0E 0F
      -- -- -- -- -- -- -- --  -- -- -- -- -- -- -- --
08F0:                                      03 10 00 02              ....
0900: 10 03 11 00 03 10 03 12  00 04 10 03 13 00 05 10  ................
0910: 03 14 00 06 10 03 15 00  07 10 1E F0 FF FF 7F 66  ...............f
0920: 01 80 F8 FF FF 7F F8 FF  FF 7F 74 6C 6B 30 03 02  ..........tlk0..
0930: 10 10 00 03 03 10 11 00  1D 5C 80 23 03 02 10 14  .........\.#....
0940: 00 03 03 10 11 00 1D 5D  80 23 03 02 10 12 00 03  .......].#......
0950: 03 10 13 00 03 04 10 15  00 1D 5E 80 23 66 01 80  ..........^.#f..
0960: F8 FF FF 7F F8 FF FF 7F  74 6C 6B 31 21 00        ........tlk1!.  
```

#### Opcodes

```
  0: 0x08FC [0x03] ExtData[1]->WorkLocal[16] = Work_Zone[2]
  1: 0x0901 [0x03] ExtData[1]->WorkLocal[17] = Work_Zone[3]
  2: 0x0906 [0x03] ExtData[1]->WorkLocal[18] = Work_Zone[4]
  3: 0x090B [0x03] ExtData[1]->WorkLocal[19] = Work_Zone[5]
  4: 0x0910 [0x03] ExtData[1]->WorkLocal[20] = Work_Zone[6]
  5: 0x0915 [0x03] ExtData[1]->WorkLocal[21] = Work_Zone[7]
  6: 0x091A [0x1E] EventEntity looks at LocalPlayer and starts talking
  7: 0x091F [0x66] LOAD_EXT_SCHEDULER_MAIN: Load scheduler "tlk0" with entities [EventEntity, EventEntity], work=9*
  8: 0x092E [0x03] Work_Zone[2] = ExtData[1]->WorkLocal[16]
  9: 0x0933 [0x03] Work_Zone[3] = ExtData[1]->WorkLocal[17]
 10: 0x0938 [0x1D] PRINT_EVENT_MESSAGE(message_id=7205*)
    → "What brings you here? Well, $0, of all things... You couldn't hope to make one without some $1, but I fear they aren't often stocked by vendors."
 11: 0x093B [0x23] WAIT_FOR_DIALOG_INTERACTION
 12: 0x093C [0x03] Work_Zone[2] = ExtData[1]->WorkLocal[20]
 13: 0x0941 [0x03] Work_Zone[3] = ExtData[1]->WorkLocal[17]
 14: 0x0946 [0x1D] PRINT_EVENT_MESSAGE(message_id=7206*)
    → "But you strike me as an intrepid type, so I'll share with you some knowledge to help you on your way. Head over to Ordelle's Caves. Hunt enough bats there, and you might just come into some $0. That's the main ingredient required to make $1."
 15: 0x0949 [0x23] WAIT_FOR_DIALOG_INTERACTION
 16: 0x094A [0x03] Work_Zone[2] = ExtData[1]->WorkLocal[18]
 17: 0x094F [0x03] Work_Zone[3] = ExtData[1]->WorkLocal[19]
 18: 0x0954 [0x03] Work_Zone[4] = ExtData[1]->WorkLocal[21]
 19: 0x0959 [0x1D] PRINT_EVENT_MESSAGE(message_id=7207*)
    → "All that remains, then, is to bind it with $0 using $2. Good luck!"
 20: 0x095C [0x23] WAIT_FOR_DIALOG_INTERACTION
 21: 0x095D [0x66] LOAD_EXT_SCHEDULER_MAIN: Load scheduler "tlk1" with entities [EventEntity, EventEntity], work=9*
 22: 0x096C [0x21] END_EVENT
 23: 0x096D [0x00] END_REQSTACK()
```

### Event 624

#### Metadata

| Field        | Value     |
|--------------|-----------|
| Entrypoint   | 0x096E    |
| Data Size    | 131 bytes |
| Instructions | 24        |

```
      00 01 02 03 04 05 06 07  08 09 0A 0B 0C 0D 0E 0F
      -- -- -- -- -- -- -- --  -- -- -- -- -- -- -- --
0960:                                            03 16                ..
0970: 00 07 10 03 22 00 08 10  02 16 00 0D 80 80 EF 09  ...."...........
0980: 03 19 00 02 10 03 1B 00  03 10 03 1C 00 04 10 03  ................
0990: 1D 00 05 10 03 1A 00 06  10 42 4A F8 FF FF 7F F0  .........BJ.....
09A0: FF FF 7F 6F 70 66 01 80  F8 FF FF 7F F8 FF FF 7F  ...opf..........
09B0: 74 6C 6B 30 1D 5F 80 23  66 01 80 F8 FF FF 7F F8  tlk0._.#f.......
09C0: FF FF 7F 74 6C 6B 31 1A  68 16 66 01 80 F8 FF FF  ...tlk1.h.f.....
09D0: 7F F8 FF FF 7F 74 6C 6B  30 1D 60 80 23 66 01 80  .....tlk0.`.#f..
09E0: F8 FF FF 7F F8 FF FF 7F  74 6C 6B 31 01 EF 09 21  ........tlk1...!
09F0: 00                                                .               
```

#### Opcodes

```
  0: 0x096E [0x03] ExtData[1]->WorkLocal[22] = Work_Zone[7]
  1: 0x0973 [0x03] ExtData[1]->WorkLocal[34] = Work_Zone[8]
  2: 0x0978 [0x02] IF !(ExtData[1]->WorkLocal[22] == 1*) GOTO 0x09EF
  3: 0x0980 [0x03] ExtData[1]->WorkLocal[25] = Work_Zone[2]
  4: 0x0985 [0x03] ExtData[1]->WorkLocal[27] = Work_Zone[3]
  5: 0x098A [0x03] ExtData[1]->WorkLocal[28] = Work_Zone[4]
  6: 0x098F [0x03] ExtData[1]->WorkLocal[29] = Work_Zone[5]
  7: 0x0994 [0x03] ExtData[1]->WorkLocal[26] = Work_Zone[6]
  8: 0x0999 [0x42] SET_CLI_EVENT_CANCEL_DATA()
  9: 0x099A [0x4A] EventEntity looks at LocalPlayer
 10: 0x09A3 [0x6F] WAIT_FRAME_DELAY: Yield until WaitTime reaches zero
 11: 0x09A4 [0x70] WAIT_ENTITY_RENDER_FLAG: Wait while EventEntity->Render.Flags3 bit 2 is set (cancel turn if not)
 12: 0x09A5 [0x66] LOAD_EXT_SCHEDULER_MAIN: Load scheduler "tlk0" with entities [EventEntity, EventEntity], work=9*
 13: 0x09B4 [0x1D] PRINT_EVENT_MESSAGE(message_id=16558*)
    → "Hm? You forgot the recipe already? Okay, here are the materials you need, but a craftsman of your caliber really should be able to remember these things."
 14: 0x09B7 [0x23] WAIT_FOR_DIALOG_INTERACTION
 15: 0x09B8 [0x66] LOAD_EXT_SCHEDULER_MAIN: Load scheduler "tlk1" with entities [EventEntity, EventEntity], work=9*
 16: 0x09C7 [0x1A] CALL_SUBROUTINE(address=0x1668)
 17: 0x09CA [0x66] LOAD_EXT_SCHEDULER_MAIN: Load scheduler "tlk0" with entities [EventEntity, EventEntity], work=9*
 18: 0x09D9 [0x1D] PRINT_EVENT_MESSAGE(message_id=16559*)
    → "You promised that we would always work together to improve our crafting skill. If anybody can do this, I am certain that it is you."
 19: 0x09DC [0x23] WAIT_FOR_DIALOG_INTERACTION
 20: 0x09DD [0x66] LOAD_EXT_SCHEDULER_MAIN: Load scheduler "tlk1" with entities [EventEntity, EventEntity], work=9*
 21: 0x09EC [0x01] GOTO 0x09EF

SUBROUTINE_09EF:
 22: 0x09EF [0x21] END_EVENT
 23: 0x09F0 [0x00] END_REQSTACK()
```

### Event 631

#### Metadata

| Field        | Value     |
|--------------|-----------|
| Entrypoint   | 0x09F1    |
| Data Size    | 134 bytes |
| Instructions | 24        |

```
      00 01 02 03 04 05 06 07  08 09 0A 0B 0C 0D 0E 0F
      -- -- -- -- -- -- -- --  -- -- -- -- -- -- -- --
09F0:    03 19 00 02 10 03 1B  00 03 10 03 1C 00 04 10   ...............
0A00: 03 1D 00 05 10 03 1E 00  06 10 03 1A 00 07 10 03  ................
0A10: 16 00 08 10 03 22 00 09  10 42 4A F8 FF FF 7F F0  ....."...BJ.....
0A20: FF FF 7F 4A F0 FF FF 7F  F8 FF FF 7F 6F 70 66 01  ...J........opf.
0A30: 80 F8 FF FF 7F F8 FF FF  7F 74 6C 6B 30 1D 5F 80  .........tlk0._.
0A40: 23 66 01 80 F8 FF FF 7F  F8 FF FF 7F 74 6C 6B 31  #f..........tlk1
0A50: 1A B7 16 66 01 80 F8 FF  FF 7F F8 FF FF 7F 74 6C  ...f..........tl
0A60: 6B 30 1D 60 80 23 66 01  80 F8 FF FF 7F F8 FF FF  k0.`.#f.........
0A70: 7F 74 6C 6B 31 21 00                              .tlk1!.         
```

#### Opcodes

```
  0: 0x09F1 [0x03] ExtData[1]->WorkLocal[25] = Work_Zone[2]
  1: 0x09F6 [0x03] ExtData[1]->WorkLocal[27] = Work_Zone[3]
  2: 0x09FB [0x03] ExtData[1]->WorkLocal[28] = Work_Zone[4]
  3: 0x0A00 [0x03] ExtData[1]->WorkLocal[29] = Work_Zone[5]
  4: 0x0A05 [0x03] ExtData[1]->WorkLocal[30] = Work_Zone[6]
  5: 0x0A0A [0x03] ExtData[1]->WorkLocal[26] = Work_Zone[7]
  6: 0x0A0F [0x03] ExtData[1]->WorkLocal[22] = Work_Zone[8]
  7: 0x0A14 [0x03] ExtData[1]->WorkLocal[34] = Work_Zone[9]
  8: 0x0A19 [0x42] SET_CLI_EVENT_CANCEL_DATA()
  9: 0x0A1A [0x4A] EventEntity looks at LocalPlayer
 10: 0x0A23 [0x4A] LocalPlayer looks at EventEntity
 11: 0x0A2C [0x6F] WAIT_FRAME_DELAY: Yield until WaitTime reaches zero
 12: 0x0A2D [0x70] WAIT_ENTITY_RENDER_FLAG: Wait while EventEntity->Render.Flags3 bit 2 is set (cancel turn if not)
 13: 0x0A2E [0x66] LOAD_EXT_SCHEDULER_MAIN: Load scheduler "tlk0" with entities [EventEntity, EventEntity], work=9*
 14: 0x0A3D [0x1D] PRINT_EVENT_MESSAGE(message_id=16558*)
    → "Hm? You forgot the recipe already? Okay, here are the materials you need, but a craftsman of your caliber really should be able to remember these things."
 15: 0x0A40 [0x23] WAIT_FOR_DIALOG_INTERACTION
 16: 0x0A41 [0x66] LOAD_EXT_SCHEDULER_MAIN: Load scheduler "tlk1" with entities [EventEntity, EventEntity], work=9*
 17: 0x0A50 [0x1A] CALL_SUBROUTINE(address=0x16B7)
 18: 0x0A53 [0x66] LOAD_EXT_SCHEDULER_MAIN: Load scheduler "tlk0" with entities [EventEntity, EventEntity], work=9*
 19: 0x0A62 [0x1D] PRINT_EVENT_MESSAGE(message_id=16559*)
    → "You promised that we would always work together to improve our crafting skill. If anybody can do this, I am certain that it is you."
 20: 0x0A65 [0x23] WAIT_FOR_DIALOG_INTERACTION
 21: 0x0A66 [0x66] LOAD_EXT_SCHEDULER_MAIN: Load scheduler "tlk1" with entities [EventEntity, EventEntity], work=9*
 22: 0x0A75 [0x21] END_EVENT
 23: 0x0A76 [0x00] END_REQSTACK()
```

### Event 625

#### Metadata

| Field        | Value     |
|--------------|-----------|
| Entrypoint   | 0x0A77    |
| Data Size    | 124 bytes |
| Instructions | 33        |

```
      00 01 02 03 04 05 06 07  08 09 0A 0B 0C 0D 0E 0F
      -- -- -- -- -- -- -- --  -- -- -- -- -- -- -- --
0A70:                      03  16 00 02 10 02 16 00 0D         .........
0A80: 80 80 A3 0A 4A F8 FF FF  7F F0 FF FF 7F 4A F0 FF  ....J........J..
0A90: FF 7F F8 FF FF 7F 6F 70  1D 61 80 23 1D 62 80 23  ......op.a.#.b.#
0AA0: 01 F1 0A 02 16 00 07 80  80 CA 0A 4A F8 FF FF 7F  ...........J....
0AB0: F0 FF FF 7F 4A F0 FF FF  7F F8 FF FF 7F 6F 70 1D  ....J........op.
0AC0: 61 80 23 1D 62 80 23 01  F1 0A 02 16 00 10 80 80  a.#.b.#.........
0AD0: F1 0A 4A F8 FF FF 7F F0  FF FF 7F 4A F0 FF FF 7F  ..J........J....
0AE0: F8 FF FF 7F 6F 70 1D 61  80 23 1D 62 80 23 01 F1  ....op.a.#.b.#..
0AF0: 0A 21 00                                          .!.             
```

#### Opcodes

```
  0: 0x0A77 [0x03] ExtData[1]->WorkLocal[22] = Work_Zone[2]
  1: 0x0A7C [0x02] IF !(ExtData[1]->WorkLocal[22] == 1*) GOTO 0x0AA3
  2: 0x0A84 [0x4A] EventEntity looks at LocalPlayer
  3: 0x0A8D [0x4A] LocalPlayer looks at EventEntity
  4: 0x0A96 [0x6F] WAIT_FRAME_DELAY: Yield until WaitTime reaches zero
  5: 0x0A97 [0x70] WAIT_ENTITY_RENDER_FLAG: Wait while EventEntity->Render.Flags3 bit 2 is set (cancel turn if not)
  6: 0x0A98 [0x1D] PRINT_EVENT_MESSAGE(message_id=16574*)
    → "Just show the shield to Mewk Chorosap in Jeuno."
  7: 0x0A9B [0x23] WAIT_FOR_DIALOG_INTERACTION
  8: 0x0A9C [0x1D] PRINT_EVENT_MESSAGE(message_id=16575*)
    → "Lastly, please note that I always have deliveries to be made to Yek Falimeygo. I hope you will help train and educate the junior members of our guild."
  9: 0x0A9F [0x23] WAIT_FOR_DIALOG_INTERACTION
 10: 0x0AA0 [0x01] GOTO 0x0AF1
 11: 0x0AA3 [0x02] IF !(ExtData[1]->WorkLocal[22] == 2*) GOTO 0x0ACA
 12: 0x0AAB [0x4A] EventEntity looks at LocalPlayer
 13: 0x0AB4 [0x4A] LocalPlayer looks at EventEntity
 14: 0x0ABD [0x6F] WAIT_FRAME_DELAY: Yield until WaitTime reaches zero
 15: 0x0ABE [0x70] WAIT_ENTITY_RENDER_FLAG: Wait while EventEntity->Render.Flags3 bit 2 is set (cancel turn if not)
 16: 0x0ABF [0x1D] PRINT_EVENT_MESSAGE(message_id=16574*)
    → "Just show the shield to Mewk Chorosap in Jeuno."
 17: 0x0AC2 [0x23] WAIT_FOR_DIALOG_INTERACTION
 18: 0x0AC3 [0x1D] PRINT_EVENT_MESSAGE(message_id=16575*)
    → "Lastly, please note that I always have deliveries to be made to Yek Falimeygo. I hope you will help train and educate the junior members of our guild."
 19: 0x0AC6 [0x23] WAIT_FOR_DIALOG_INTERACTION
 20: 0x0AC7 [0x01] GOTO 0x0AF1
 21: 0x0ACA [0x02] IF !(ExtData[1]->WorkLocal[22] == 3*) GOTO 0x0AF1
 22: 0x0AD2 [0x4A] EventEntity looks at LocalPlayer
 23: 0x0ADB [0x4A] LocalPlayer looks at EventEntity
 24: 0x0AE4 [0x6F] WAIT_FRAME_DELAY: Yield until WaitTime reaches zero
 25: 0x0AE5 [0x70] WAIT_ENTITY_RENDER_FLAG: Wait while EventEntity->Render.Flags3 bit 2 is set (cancel turn if not)
 26: 0x0AE6 [0x1D] PRINT_EVENT_MESSAGE(message_id=16574*)
    → "Just show the shield to Mewk Chorosap in Jeuno."
 27: 0x0AE9 [0x23] WAIT_FOR_DIALOG_INTERACTION
 28: 0x0AEA [0x1D] PRINT_EVENT_MESSAGE(message_id=16575*)
    → "Lastly, please note that I always have deliveries to be made to Yek Falimeygo. I hope you will help train and educate the junior members of our guild."
 29: 0x0AED [0x23] WAIT_FOR_DIALOG_INTERACTION
 30: 0x0AEE [0x01] GOTO 0x0AF1

SUBROUTINE_0AF1:
 31: 0x0AF1 [0x21] END_EVENT
 32: 0x0AF2 [0x00] END_REQSTACK()
```

### Event 626

#### Metadata

| Field        | Value     |
|--------------|-----------|
| Entrypoint   | 0x0AF3    |
| Data Size    | 259 bytes |
| Instructions | 62        |

```
      00 01 02 03 04 05 06 07  08 09 0A 0B 0C 0D 0E 0F
      -- -- -- -- -- -- -- --  -- -- -- -- -- -- -- --
0AF0:          03 19 00 02 10  03 1B 00 03 10 03 1C 00     .............
0B00: 04 10 03 1D 00 05 10 03  1A 00 06 10 03 16 00 07  ................
0B10: 10 03 22 00 08 10 02 16  00 0D 80 80 F4 0B 42 4A  .."...........BJ
0B20: F8 FF FF 7F F0 FF FF 7F  6F 70 1D 63 80 23 66 01  ........op.c.#f.
0B30: 80 F8 FF FF 7F F8 FF FF  7F 74 68 6B 31 1D 64 80  .........thk1.d.
0B40: 23 66 01 80 F8 FF FF 7F  F8 FF FF 7F 74 68 6B 32  #f..........thk2
0B50: 1D 65 80 23 66 01 80 F8  FF FF 7F F8 FF FF 7F 74  .e.#f..........t
0B60: 6C 6B 30 1D 66 80 23 1D  67 80 23 1D 68 80 23 66  lk0.f.#.g.#.h.#f
0B70: 01 80 F8 FF FF 7F F8 FF  FF 7F 74 6C 6B 31 1A 68  ..........tlk1.h
0B80: 16 66 01 80 F8 FF FF 7F  F8 FF FF 7F 74 6C 6B 30  .f..........tlk0
0B90: 1D 69 80 23 1D 6A 80 23  1D 6B 80 23 66 01 80 F8  .i.#.j.#.k.#f...
0BA0: FF FF 7F F8 FF FF 7F 74  6C 6B 31 48 6C 80 23 48  .......tlk1Hl.#H
0BB0: 6D 80 23 48 6E 80 23 48  6F 80 23 66 01 80 F8 FF  m.#Hn.#Ho.#f....
0BC0: FF 7F F8 FF FF 7F 74 6C  6B 30 1D 70 80 23 1D 71  ......tlk0.p.#.q
0BD0: 80 23 1D 72 80 23 1D 73  80 23 1D 74 80 23 1D 75  .#.r.#.s.#.t.#.u
0BE0: 80 23 66 01 80 F8 FF FF  7F F8 FF FF 7F 74 6C 6B  .#f..........tlk
0BF0: 31 01 F4 0B 21 00                                 1...!.          
```

#### Opcodes

```
  0: 0x0AF3 [0x03] ExtData[1]->WorkLocal[25] = Work_Zone[2]
  1: 0x0AF8 [0x03] ExtData[1]->WorkLocal[27] = Work_Zone[3]
  2: 0x0AFD [0x03] ExtData[1]->WorkLocal[28] = Work_Zone[4]
  3: 0x0B02 [0x03] ExtData[1]->WorkLocal[29] = Work_Zone[5]
  4: 0x0B07 [0x03] ExtData[1]->WorkLocal[26] = Work_Zone[6]
  5: 0x0B0C [0x03] ExtData[1]->WorkLocal[22] = Work_Zone[7]
  6: 0x0B11 [0x03] ExtData[1]->WorkLocal[34] = Work_Zone[8]
  7: 0x0B16 [0x02] IF !(ExtData[1]->WorkLocal[22] == 1*) GOTO 0x0BF4
  8: 0x0B1E [0x42] SET_CLI_EVENT_CANCEL_DATA()
  9: 0x0B1F [0x4A] EventEntity looks at LocalPlayer
 10: 0x0B28 [0x6F] WAIT_FRAME_DELAY: Yield until WaitTime reaches zero
 11: 0x0B29 [0x70] WAIT_ENTITY_RENDER_FLAG: Wait while EventEntity->Render.Flags3 bit 2 is set (cancel turn if not)
 12: 0x0B2A [0x1D] PRINT_EVENT_MESSAGE(message_id=16539*)
    → "Oh, hello again. Hm? If I may inquire, what is that shield in your possession?"
 13: 0x0B2D [0x23] WAIT_FOR_DIALOG_INTERACTION
 14: 0x0B2E [0x66] LOAD_EXT_SCHEDULER_MAIN: Load scheduler "thk1" with entities [EventEntity, EventEntity], work=9*
 15: 0x0B3D [0x1D] PRINT_EVENT_MESSAGE(message_id=16540*)
    → "Ahh... I see you have met with her."
 16: 0x0B40 [0x23] WAIT_FOR_DIALOG_INTERACTION
 17: 0x0B41 [0x66] LOAD_EXT_SCHEDULER_MAIN: Load scheduler "thk2" with entities [EventEntity, EventEntity], work=9*
 18: 0x0B50 [0x1D] PRINT_EVENT_MESSAGE(message_id=16541*)
    → "Of course, I heard the story about a special shield that can improve your crafting ability when equipped. Hahaha. I have no idea how it works though."
 19: 0x0B53 [0x23] WAIT_FOR_DIALOG_INTERACTION
 20: 0x0B54 [0x66] LOAD_EXT_SCHEDULER_MAIN: Load scheduler "tlk0" with entities [EventEntity, EventEntity], work=9*
 21: 0x0B63 [0x1D] PRINT_EVENT_MESSAGE(message_id=16542*)
    → "Although, if the theory behind it is sound and it actually works, I would be quite interested to know more about it."
 22: 0x0B66 [0x23] WAIT_FOR_DIALOG_INTERACTION
 23: 0x0B67 [0x1D] PRINT_EVENT_MESSAGE(message_id=16543*)
    → "I am well-versed in your abilities, and if she chose you for this task, then I suppose you just might have what it takes to make the shield."
 24: 0x0B6A [0x23] WAIT_FOR_DIALOG_INTERACTION
 25: 0x0B6B [0x1D] PRINT_EVENT_MESSAGE(message_id=16544*)
    → "Now then, we will first need to go over the recipe. It is important that you remember this, so listen carefully, take notes, do whatever it is you need to do."
 26: 0x0B6E [0x23] WAIT_FOR_DIALOG_INTERACTION
 27: 0x0B6F [0x66] LOAD_EXT_SCHEDULER_MAIN: Load scheduler "tlk1" with entities [EventEntity, EventEntity], work=9*
 28: 0x0B7E [0x1A] CALL_SUBROUTINE(address=0x1668)
 29: 0x0B81 [0x66] LOAD_EXT_SCHEDULER_MAIN: Load scheduler "tlk0" with entities [EventEntity, EventEntity], work=9*
 30: 0x0B90 [0x1D] PRINT_EVENT_MESSAGE(message_id=16545*)
    → "So, the first ingredient you are going to need is $1..."
 31: 0x0B93 [0x23] WAIT_FOR_DIALOG_INTERACTION
 32: 0x0B94 [0x1D] PRINT_EVENT_MESSAGE(message_id=16546*)
    → "The function of this particular ingredient is to boost the Craftsmanship of the $0 to its full potential."
 33: 0x0B97 [0x23] WAIT_FOR_DIALOG_INTERACTION
 34: 0x0B98 [0x1D] PRINT_EVENT_MESSAGE(message_id=16547*)
    → "I actually have some information regarding Craftsmanship. I will read it out loud for you before you get started."
 35: 0x0B9B [0x23] WAIT_FOR_DIALOG_INTERACTION
 36: 0x0B9C [0x66] LOAD_EXT_SCHEDULER_MAIN: Load scheduler "tlk1" with entities [EventEntity, EventEntity], work=9*
 37: 0x0BAB [0x48] [System] [16548*]:
    → "You can increase Craftsmanship by crafting items that match up with your skill while you have the $0 equipped."
 38: 0x0BAE [0x23] WAIT_FOR_DIALOG_INTERACTION
 39: 0x0BAF [0x48] [System] [16549*]:
    → "Craftsmanship will increase greatly when you fulfill certain conditions, but crafting the same item over and over again will reduce your gains, so try synthesizing something different if you run into trouble."
 40: 0x0BB2 [0x23] WAIT_FOR_DIALOG_INTERACTION
 41: 0x0BB3 [0x48] [System] [16550*]:
    → "In its default state, the shield has the unfortunate tendency to lower the success rate of your crafting, but as its Craftsmanship rises, it mitigates that effect."
 42: 0x0BB6 [0x23] WAIT_FOR_DIALOG_INTERACTION
 43: 0x0BB7 [0x48] [System] [16551*]:
    → "You can tell the Craftsmanship rating as well as the crafting success rate by looking at the shield. Good luck to you. Mwahaha..."
 44: 0x0BBA [0x23] WAIT_FOR_DIALOG_INTERACTION
 45: 0x0BBB [0x66] LOAD_EXT_SCHEDULER_MAIN: Load scheduler "tlk0" with entities [EventEntity, EventEntity], work=9*
 46: 0x0BCA [0x1D] PRINT_EVENT_MESSAGE(message_id=16552*)
    → "Did you get all of that?"
 47: 0x0BCD [0x23] WAIT_FOR_DIALOG_INTERACTION
 48: 0x0BCE [0x1D] PRINT_EVENT_MESSAGE(message_id=16553*)
    → "Once you have got the Craftsmanship rating up, come show me how you did. Then, I will be able to make you the $1."
 49: 0x0BD1 [0x23] WAIT_FOR_DIALOG_INTERACTION
 50: 0x0BD2 [0x1D] PRINT_EVENT_MESSAGE(message_id=16554*)
    → "After that, you will need $2 and $3, which you can get from Yek Falimeygo."
 51: 0x0BD5 [0x23] WAIT_FOR_DIALOG_INTERACTION
 52: 0x0BD6 [0x1D] PRINT_EVENT_MESSAGE(message_id=16555*)
    → "You have delivered various items to people before, right? That is basically what you will need to do to get those ingredients."
 53: 0x0BD9 [0x23] WAIT_FOR_DIALOG_INTERACTION
 54: 0x0BDA [0x1D] PRINT_EVENT_MESSAGE(message_id=16556*)
    → "Go speak to Yek Falimeygo for more information."
 55: 0x0BDD [0x23] WAIT_FOR_DIALOG_INTERACTION
 56: 0x0BDE [0x1D] PRINT_EVENT_MESSAGE(message_id=16557*)
    → "That covers the ingredients you need. Be sure to show me the shield once you have upgraded it. I am very interested to see how it turns out."
 57: 0x0BE1 [0x23] WAIT_FOR_DIALOG_INTERACTION
 58: 0x0BE2 [0x66] LOAD_EXT_SCHEDULER_MAIN: Load scheduler "tlk1" with entities [EventEntity, EventEntity], work=9*
 59: 0x0BF1 [0x01] GOTO 0x0BF4

SUBROUTINE_0BF4:
 60: 0x0BF4 [0x21] END_EVENT
 61: 0x0BF5 [0x00] END_REQSTACK()
```

### Event 633

#### Metadata

| Field        | Value     |
|--------------|-----------|
| Entrypoint   | 0x0BF6    |
| Data Size    | 197 bytes |
| Instructions | 49        |

```
      00 01 02 03 04 05 06 07  08 09 0A 0B 0C 0D 0E 0F
      -- -- -- -- -- -- -- --  -- -- -- -- -- -- -- --
0BF0:                   03 19  00 02 10 03 1B 00 03 10        ..........
0C00: 03 1C 00 04 10 03 1D 00  05 10 03 1E 00 06 10 03  ................
0C10: 1A 00 07 10 03 16 00 08  10 03 22 00 09 10 42 4A  .........."...BJ
0C20: F8 FF FF 7F F0 FF FF 7F  4A F0 FF FF 7F F8 FF FF  ........J.......
