# 17735842 - Bashraf

## Common Data

| Field            | Value                  |
|------------------|------------------------|
| Zone             | Bastok Mines (ID: 234) |
| Block Size       | 656 bytes              |
| Total Events     | 19                     |
| References Count | 63                     |

## List of Events

| Event ID                   | Entrypoint   |   Size |   Instructions |
|----------------------------|--------------|--------|----------------|
| [65535](#event-65535)      | 0x0000       |      1 |              1 |
| [513](#event-513)          | 0x0001       |      1 |              1 |
| [509](#event-509)          | 0x0002       |      1 |              1 |
| [65535.1](#event-655351)   | 0x0003       |     15 |              3 |
| [65535.2](#event-655352)   | 0x0012       |     28 |              6 |
| [65535.3](#event-655353)   | 0x002E       |     15 |              3 |
| [65535.4](#event-655354)   | 0x003D       |     19 |              5 |
| [65535.5](#event-655355)   | 0x0050       |     15 |              3 |
| [65535.6](#event-655356)   | 0x005F       |     15 |              3 |
| [65535.7](#event-655357)   | 0x006E       |     15 |              3 |
| [65535.8](#event-655358)   | 0x007D       |     14 |              4 |
| [65535.9](#event-655359)   | 0x008B       |     14 |              4 |
| [65535.10](#event-6553510) | 0x0099       |     35 |              4 |
| [65535.11](#event-6553511) | 0x00BC       |     21 |              2 |
| [65535.12](#event-6553512) | 0x00D1       |     15 |              3 |
| [65535.13](#event-6553513) | 0x00E0       |     14 |              4 |
| [65535.14](#event-6553514) | 0x00EE       |     15 |              3 |
| [65535.15](#event-6553515) | 0x00FD       |     35 |              4 |
| [65535.16](#event-6553516) | 0x0120       |     21 |              2 |

## DAT References (imed_data)

|   Index | Hex Value   |   Dec Value |
|---------|-------------|-------------|
|       0 | 0xFFFD9B5B  |  4294810459 |
|       1 | 0xFFF56C36  |  4294274102 |
|       2 | 0xFFFF0429  |  4294902825 |
|       3 | 0x0DEC      |        3564 |
|       4 | 0x000D      |          13 |
|       5 | 0xFFFD9E4C  |  4294811212 |
|       6 | 0xFFF572CD  |  4294275789 |
|       7 | 0xFFFF0341  |  4294902593 |
|       8 | 0xFFFBCE9B  |  4294692507 |
|       9 | 0xFFFDDF4C  |  4294827852 |
|      10 | 0xFFFFC9C5  |  4294953413 |
|      11 | 0x0FBA      |        4026 |
|      12 | 0xFFFBD827  |  4294694951 |
|      13 | 0xFFFDDF15  |  4294827797 |
|      14 | 0xFFFFC959  |  4294953305 |
|      15 | 0x16602     |       91650 |
|      16 | 0xFFFEDACE  |  4294892238 |
|      17 | 0x0271      |         625 |
|      18 | 0x08C1      |        2241 |
|      19 | 0x15A67     |       88679 |
|      20 | 0xFFFEF126  |  4294897958 |
|      21 | 0x0C4B      |        3147 |
|      22 | 0xA052E     |      656686 |
|      23 | 0x4D7FF     |      317439 |
|      24 | 0x0878      |        2168 |
|      25 | 0x0F9C      |        3996 |
|      26 | 0x0028      |          40 |
|      27 | 0x160BE     |       90302 |
|      28 | 0xFFFEF328  |  4294898472 |
|      29 | 0x0270      |         624 |
|      30 | 0xA13EA     |      660458 |
|      31 | 0x4DC61     |      318561 |
|      32 | 0x09AB      |        2475 |
|      33 | 0x0004      |           4 |
|      34 | 0x0009      |           9 |
|      35 | 0x0015      |          21 |
|      36 | 0x0008      |           8 |
|      37 | 0x000A      |          10 |
|      38 | 0x0018      |          24 |
|      39 | 0x0000      |           0 |
|      40 | 0xFFF97A49  |  4294539849 |
|      41 | 0xFFF92B93  |  4294519699 |
|      42 | 0x6190      |       24976 |
|      43 | 0x0DF8      |        3576 |
|      44 | 0x0002      |           2 |
|      45 | 0x0017      |          23 |
|      46 | 0xFFFFA2B5  |  4294943413 |
|      47 | 0xFFFFCBD2  |  4294953938 |
|      48 | 0xFFFFFFD4  |  4294967252 |
|      49 | 0x07C3      |        1987 |
|      50 | 0xFFFFD07D  |  4294955133 |
|      51 | 0xFFFFCC9C  |  4294954140 |
|      52 | 0xFFFF91F4  |  4294939124 |
|      53 | 0xFFFFE3EE  |  4294960110 |
|      54 | 0x0CB9      |        3257 |
|      55 | 0x0001      |           1 |
|      56 | 0x0068      |         104 |
|      57 | 0x0003      |           3 |
|      58 | 0xFFFBBA86  |  4294687366 |
|      59 | 0xFFFE73CD  |  4294865869 |
|      60 | 0xFFFFD6B6  |  4294956726 |
|      61 | 0x03DE      |         990 |
|      62 | 0x0006      |           6 |

## Events

### Event 65535

#### Metadata

| Field        | Value   |
|--------------|---------|
| Entrypoint   | 0x0000  |
| Data Size    | 1 bytes |
| Instructions | 1       |

```
      00 01 02 03 04 05 06 07  08 09 0A 0B 0C 0D 0E 0F
      -- -- -- -- -- -- -- --  -- -- -- -- -- -- -- --
0000: 00                                                .               
```

#### Opcodes

```
  0: 0x0000 [0x00] END_REQSTACK()
```

### Event 513

#### Metadata

| Field        | Value   |
|--------------|---------|
| Entrypoint   | 0x0001  |
| Data Size    | 1 bytes |
| Instructions | 1       |

```
      00 01 02 03 04 05 06 07  08 09 0A 0B 0C 0D 0E 0F
      -- -- -- -- -- -- -- --  -- -- -- -- -- -- -- --
0000:    00                                              .              
```

#### Opcodes

```
  0: 0x0001 [0x00] END_REQSTACK()
```

### Event 509

#### Metadata

| Field        | Value   |
|--------------|---------|
| Entrypoint   | 0x0002  |
| Data Size    | 1 bytes |
| Instructions | 1       |

```
      00 01 02 03 04 05 06 07  08 09 0A 0B 0C 0D 0E 0F
      -- -- -- -- -- -- -- --  -- -- -- -- -- -- -- --
0000:       00                                            .             
```

#### Opcodes

```
  0: 0x0002 [0x00] END_REQSTACK()
```

### Event 65535.1

#### Metadata

| Field        | Value    |
|--------------|----------|
| Entrypoint   | 0x0003   |
| Data Size    | 15 bytes |
| Instructions | 3        |

```
      00 01 02 03 04 05 06 07  08 09 0A 0B 0C 0D 0E 0F
      -- -- -- -- -- -- -- --  -- -- -- -- -- -- -- --
0000:          37 00 80 01 80  02 80 03 80 80 F8 FF FF     7............
0010: 7F 00                                             ..              
```

#### Opcodes

```
  0: 0x0003 [0x37] UPDATE_EVENT_POSITION_AND_DIR: x=-156.837*, z=-693.194*, y=-64.471*, direction=313.2°*
  1: 0x000C [0x80] LOAD_WAIT(entity=EventEntity)
  2: 0x0011 [0x00] END_REQSTACK()
```

### Event 65535.2

#### Metadata

| Field        | Value    |
|--------------|----------|
| Entrypoint   | 0x0012   |
| Data Size    | 28 bytes |
| Instructions | 6        |

```
      00 01 02 03 04 05 06 07  08 09 0A 0B 0C 0D 0E 0F
      -- -- -- -- -- -- -- --  -- -- -- -- -- -- -- --
0010:       32 04 80 1F 00 05  80 06 80 07 80 1F 01 1E    2.............
0020: F0 FF FF 7F 4A F0 FF FF  7F A2 A0 0E 01 00        ....J.........  
```

#### Opcodes

```
  0: 0x0012 [0x32] ExtData[1]->MainSpeed = 13* * 0.1
  1: 0x0015 [0x1F] MOVE_ENTITY: EventEntity moves to X=-156.084*, Z=-691.507*, Y=-64.703*
  2: 0x001D [0x1F] MOVE_ENTITY: Update entity position (mode=1)
  3: 0x001F [0x1E] EventEntity looks at LocalPlayer and starts talking
  4: 0x0024 [0x4A] LocalPlayer looks at Bashraf (ID: 17735842/0x010EA0A2)
  5: 0x002D [0x00] END_REQSTACK()
```

### Event 65535.3

#### Metadata

| Field        | Value    |
|--------------|----------|
| Entrypoint   | 0x002E   |
| Data Size    | 15 bytes |
| Instructions | 3        |

```
      00 01 02 03 04 05 06 07  08 09 0A 0B 0C 0D 0E 0F
      -- -- -- -- -- -- -- --  -- -- -- -- -- -- -- --
0020:                                            37 08                7.
0030: 80 09 80 0A 80 0B 80 80  F8 FF FF 7F 00           .............   
```

#### Opcodes

```
  0: 0x002E [0x37] UPDATE_EVENT_POSITION_AND_DIR: x=-274.789*, z=-139.444*, y=-13.883*, direction=353.8°*
  1: 0x0037 [0x80] LOAD_WAIT(entity=EventEntity)
  2: 0x003C [0x00] END_REQSTACK()
```

### Event 65535.4

#### Metadata

| Field        | Value    |
|--------------|----------|
| Entrypoint   | 0x003D   |
| Data Size    | 19 bytes |
| Instructions | 5        |

```
      00 01 02 03 04 05 06 07  08 09 0A 0B 0C 0D 0E 0F
      -- -- -- -- -- -- -- --  -- -- -- -- -- -- -- --
0030:                                         32 04 80               2..
0040: 1F 00 0C 80 0D 80 0E 80  1F 01 1E F0 FF FF 7F 00  ................
```

#### Opcodes

```
  0: 0x003D [0x32] ExtData[1]->MainSpeed = 13* * 0.1
  1: 0x0040 [0x1F] MOVE_ENTITY: EventEntity moves to X=-272.345*, Z=-139.499*, Y=-13.991*
  2: 0x0048 [0x1F] MOVE_ENTITY: Update entity position (mode=1)
  3: 0x004A [0x1E] EventEntity looks at LocalPlayer and starts talking
  4: 0x004F [0x00] END_REQSTACK()
```

### Event 65535.5

#### Metadata

| Field        | Value    |
|--------------|----------|
| Entrypoint   | 0x0050   |
| Data Size    | 15 bytes |
| Instructions | 3        |

```
      00 01 02 03 04 05 06 07  08 09 0A 0B 0C 0D 0E 0F
      -- -- -- -- -- -- -- --  -- -- -- -- -- -- -- --
0050: 37 0F 80 10 80 11 80 12  80 80 F8 FF FF 7F 00     7.............. 
```

#### Opcodes

```
  0: 0x0050 [0x37] UPDATE_EVENT_POSITION_AND_DIR: x=91.650*, z=-75.058*, y=0.625*, direction=197.0°*
  1: 0x0059 [0x80] LOAD_WAIT(entity=EventEntity)
  2: 0x005E [0x00] END_REQSTACK()
```

### Event 65535.6

#### Metadata

| Field        | Value    |
|--------------|----------|
| Entrypoint   | 0x005F   |
| Data Size    | 15 bytes |
| Instructions | 3        |

```
      00 01 02 03 04 05 06 07  08 09 0A 0B 0C 0D 0E 0F
      -- -- -- -- -- -- -- --  -- -- -- -- -- -- -- --
0050:                                               37                 7
0060: 13 80 14 80 11 80 15 80  80 F8 FF FF 7F 00        ..............  
```

#### Opcodes

```
  0: 0x005F [0x37] UPDATE_EVENT_POSITION_AND_DIR: x=88.679*, z=-69.338*, y=0.625*, direction=276.6°*
  1: 0x0068 [0x80] LOAD_WAIT(entity=EventEntity)
  2: 0x006D [0x00] END_REQSTACK()
```

### Event 65535.7

#### Metadata

| Field        | Value    |
|--------------|----------|
| Entrypoint   | 0x006E   |
| Data Size    | 15 bytes |
| Instructions | 3        |

```
      00 01 02 03 04 05 06 07  08 09 0A 0B 0C 0D 0E 0F
      -- -- -- -- -- -- -- --  -- -- -- -- -- -- -- --
0060:                                            37 16                7.
0070: 80 17 80 18 80 19 80 80  F8 FF FF 7F 00           .............   
```

#### Opcodes

```
  0: 0x006E [0x37] UPDATE_EVENT_POSITION_AND_DIR: x=656.686*, z=317.439*, y=2.168*, direction=351.2°*
  1: 0x0077 [0x80] LOAD_WAIT(entity=EventEntity)
  2: 0x007C [0x00] END_REQSTACK()
```

### Event 65535.8

#### Metadata

| Field        | Value    |
|--------------|----------|
| Entrypoint   | 0x007D   |
| Data Size    | 14 bytes |
| Instructions | 4        |

```
      00 01 02 03 04 05 06 07  08 09 0A 0B 0C 0D 0E 0F
      -- -- -- -- -- -- -- --  -- -- -- -- -- -- -- --
0070:                                         32 1A 80               2..
0080: 1F 00 1B 80 1C 80 1D 80  1F 01 00                 ...........     
```

#### Opcodes

```
  0: 0x007D [0x32] ExtData[1]->MainSpeed = 40* * 0.1
  1: 0x0080 [0x1F] MOVE_ENTITY: EventEntity moves to X=90.302*, Z=-68.824*, Y=0.624*
  2: 0x0088 [0x1F] MOVE_ENTITY: Update entity position (mode=1)
  3: 0x008A [0x00] END_REQSTACK()
```

### Event 65535.9

#### Metadata

| Field        | Value    |
|--------------|----------|
| Entrypoint   | 0x008B   |
| Data Size    | 14 bytes |
| Instructions | 4        |

```
      00 01 02 03 04 05 06 07  08 09 0A 0B 0C 0D 0E 0F
      -- -- -- -- -- -- -- --  -- -- -- -- -- -- -- --
0080:                                   32 1A 80 1F 00             2....
0090: 1E 80 1F 80 20 80 1F 01  00                       .... ....       
```

#### Opcodes

```
  0: 0x008B [0x32] ExtData[1]->MainSpeed = 40* * 0.1
  1: 0x008E [0x1F] MOVE_ENTITY: EventEntity moves to X=660.458*, Z=318.561*, Y=2.475*
  2: 0x0096 [0x1F] MOVE_ENTITY: Update entity position (mode=1)
  3: 0x0098 [0x00] END_REQSTACK()
```

### Event 65535.10

#### Metadata

| Field        | Value    |
|--------------|----------|
| Entrypoint   | 0x0099   |
| Data Size    | 35 bytes |
| Instructions | 4        |

```
      00 01 02 03 04 05 06 07  08 09 0A 0B 0C 0D 0E 0F
      -- -- -- -- -- -- -- --  -- -- -- -- -- -- -- --
0090:                             B6 0B 21 80 22 80 23           ..!.".#
00A0: 80 24 80 25 80 23 80 26  80 27 80 27 80 37 28 80  .$.%.#.&.'.'.7(.
00B0: 29 80 2A 80 2B 80 80 F8  FF FF 7F 00              ).*.+.......    
```

#### Opcodes

```
  0: 0x0099 [0xB6] ENTITY_APPEARANCE_HANDLER(case=Full entity look, race=4*, hair=9*, head=21*, body=8*, hands=10*, legs=21*, feet=24*, main=0*, sub=0*)
  1: 0x00AD [0x37] UPDATE_EVENT_POSITION_AND_DIR: x=-427.447*, z=-447.597*, y=24.976*, direction=314.3°*
  2: 0x00B6 [0x80] LOAD_WAIT(entity=EventEntity)
  3: 0x00BB [0x00] END_REQSTACK()
```

### Event 65535.11

#### Metadata

| Field        | Value    |
|--------------|----------|
| Entrypoint   | 0x00BC   |
| Data Size    | 21 bytes |
| Instructions | 2        |

```
      00 01 02 03 04 05 06 07  08 09 0A 0B 0C 0D 0E 0F
      -- -- -- -- -- -- -- --  -- -- -- -- -- -- -- --
00B0:                                      B6 0B 24 80              ..$.
00C0: 2C 80 27 80 23 80 2D 80  2D 80 2D 80 27 80 27 80  ,.'.#.-.-.-.'.'.
00D0: 00                                                .               
```

#### Opcodes

```
  0: 0x00BC [0xB6] ENTITY_APPEARANCE_HANDLER(case=Full entity look, race=8*, hair=2*, head=0*, body=21*, hands=23*, legs=23*, feet=23*, main=0*, sub=0*)
  1: 0x00D0 [0x00] END_REQSTACK()
```

### Event 65535.12

#### Metadata

| Field        | Value    |
|--------------|----------|
| Entrypoint   | 0x00D1   |
| Data Size    | 15 bytes |
| Instructions | 3        |

```
      00 01 02 03 04 05 06 07  08 09 0A 0B 0C 0D 0E 0F
      -- -- -- -- -- -- -- --  -- -- -- -- -- -- -- --
00D0:    37 2E 80 2F 80 30 80  31 80 80 F8 FF FF 7F 00   7../.0.1.......
```

#### Opcodes

```
  0: 0x00D1 [0x37] UPDATE_EVENT_POSITION_AND_DIR: x=-23.883*, z=-13.358*, y=-0.044*, direction=174.6°*
  1: 0x00DA [0x80] LOAD_WAIT(entity=EventEntity)
  2: 0x00DF [0x00] END_REQSTACK()
```

### Event 65535.13

#### Metadata

| Field        | Value    |
|--------------|----------|
| Entrypoint   | 0x00E0   |
| Data Size    | 14 bytes |
| Instructions | 4        |

```
      00 01 02 03 04 05 06 07  08 09 0A 0B 0C 0D 0E 0F
      -- -- -- -- -- -- -- --  -- -- -- -- -- -- -- --
00E0: 32 1A 80 1F 00 32 80 33  80 30 80 1F 01 00        2....2.3.0....  
```

#### Opcodes

```
  0: 0x00E0 [0x32] ExtData[1]->MainSpeed = 40* * 0.1
  1: 0x00E3 [0x1F] MOVE_ENTITY: EventEntity moves to X=-12.163*, Z=-13.156*, Y=-0.044*
  2: 0x00EB [0x1F] MOVE_ENTITY: Update entity position (mode=1)
  3: 0x00ED [0x00] END_REQSTACK()
```

### Event 65535.14

#### Metadata

| Field        | Value    |
|--------------|----------|
| Entrypoint   | 0x00EE   |
| Data Size    | 15 bytes |
| Instructions | 3        |

```
      00 01 02 03 04 05 06 07  08 09 0A 0B 0C 0D 0E 0F
      -- -- -- -- -- -- -- --  -- -- -- -- -- -- -- --
00E0:                                            37 34                74
00F0: 80 35 80 30 80 36 80 80  F8 FF FF 7F 00           .5.0.6.......   
```

#### Opcodes

```
  0: 0x00EE [0x37] UPDATE_EVENT_POSITION_AND_DIR: x=-28.172*, z=-7.186*, y=-0.044*, direction=286.3°*
  1: 0x00F7 [0x80] LOAD_WAIT(entity=EventEntity)
  2: 0x00FC [0x00] END_REQSTACK()
```

### Event 65535.15

#### Metadata

| Field        | Value    |
|--------------|----------|
| Entrypoint   | 0x00FD   |
| Data Size    | 35 bytes |
| Instructions | 4        |

```
      00 01 02 03 04 05 06 07  08 09 0A 0B 0C 0D 0E 0F
      -- -- -- -- -- -- -- --  -- -- -- -- -- -- -- --
00F0:                                         B6 0B 37               ..7
0100: 80 04 80 27 80 38 80 39  80 39 80 39 80 27 80 27  ...'.8.9.9.9.'.'
0110: 80 37 3A 80 3B 80 3C 80  3D 80 80 F8 FF FF 7F 00  .7:.;.<.=.......
```

#### Opcodes

```
  0: 0x00FD [0xB6] ENTITY_APPEARANCE_HANDLER(case=Full entity look, race=1*, hair=13*, head=0*, body=104*, hands=3*, legs=3*, feet=3*, main=0*, sub=0*)
  1: 0x0111 [0x37] UPDATE_EVENT_POSITION_AND_DIR: x=-279.930*, z=-101.427*, y=-10.570*, direction=87.0°*
  2: 0x011A [0x80] LOAD_WAIT(entity=EventEntity)
  3: 0x011F [0x00] END_REQSTACK()
```

### Event 65535.16

#### Metadata

| Field        | Value    |
|--------------|----------|
| Entrypoint   | 0x0120   |
| Data Size    | 21 bytes |
| Instructions | 2        |

```
      00 01 02 03 04 05 06 07  08 09 0A 0B 0C 0D 0E 0F
      -- -- -- -- -- -- -- --  -- -- -- -- -- -- -- --
0120: B6 0B 37 80 2C 80 27 80  3E 80 3E 80 3E 80 3E 80  ..7.,.'.>.>.>.>.
0130: 27 80 27 80 00                                    '.'..           
```

#### Opcodes

```
  0: 0x0120 [0xB6] ENTITY_APPEARANCE_HANDLER(case=Full entity look, race=1*, hair=2*, head=0*, body=6*, hands=6*, legs=6*, feet=6*, main=0*, sub=0*)
  1: 0x0134 [0x00] END_REQSTACK()
```
