# 17735737 - Cornelia

## Common Data

| Field            | Value                  |
|------------------|------------------------|
| Zone             | Bastok Mines (ID: 234) |
| Block Size       | 2420 bytes             |
| Total Events     | 102                    |
| References Count | 77                     |

## List of Events

| Event ID                   | Entrypoint   |   Size |   Instructions |
|----------------------------|--------------|--------|----------------|
| [65535](#event-65535)      | 0x0000       |      1 |              1 |
| [90](#event-90)            | 0x0001       |     12 |              3 |
| [65535.1](#event-655351)   | 0x000D       |     31 |              7 |
| [65535.2](#event-655352)   | 0x002C       |     24 |              6 |
| [65535.3](#event-655353)   | 0x0044       |     65 |              7 |
| [91](#event-91)            | 0x0085       |     10 |              2 |
| [65535.4](#event-655354)   | 0x008F       |     16 |              5 |
| [65535.5](#event-655355)   | 0x009F       |      6 |              2 |
| [94](#event-94)            | 0x00A5       |     12 |              3 |
| [65535.6](#event-655356)   | 0x00B1       |     84 |             14 |
| [65535.7](#event-655357)   | 0x0105       |     33 |              8 |
| [177](#event-177)          | 0x0126       |     10 |              2 |
| [65535.8](#event-655358)   | 0x0130       |     14 |              4 |
| [661](#event-661)          | 0x013E       |      7 |              2 |
| [663](#event-663)          | 0x0145       |      7 |              2 |
| [65535.9](#event-655359)   | 0x014C       |     25 |              3 |
| [65535.10](#event-6553510) | 0x0165       |     25 |              3 |
| [65535.11](#event-6553511) | 0x017E       |      2 |              2 |
| [65535.12](#event-6553512) | 0x0180       |     15 |              5 |
| [65535.13](#event-6553513) | 0x018F       |     15 |              5 |
| [65535.14](#event-6553514) | 0x019E       |     15 |              5 |
| [65535.15](#event-6553515) | 0x01AD       |     15 |              5 |
| [65535.16](#event-6553516) | 0x01BC       |     15 |              5 |
| [65535.17](#event-6553517) | 0x01CB       |     15 |              5 |
| [665](#event-665)          | 0x01DA       |      7 |              2 |
| [667](#event-667)          | 0x01E1       |      7 |              2 |
| [65535.18](#event-6553518) | 0x01E8       |     15 |              5 |
| [65535.19](#event-6553519) | 0x01F7       |     15 |              5 |
| [65535.20](#event-6553520) | 0x0206       |     15 |              5 |
| [65535.21](#event-6553521) | 0x0215       |     15 |              5 |
| [65535.22](#event-6553522) | 0x0224       |     15 |              5 |
| [673](#event-673)          | 0x0233       |      7 |              2 |
| [65535.23](#event-6553523) | 0x023A       |     15 |              5 |
| [65535.24](#event-6553524) | 0x0249       |     15 |              5 |
| [65535.25](#event-6553525) | 0x0258       |     15 |              5 |
| [678](#event-678)          | 0x0267       |      7 |              2 |
| [65535.26](#event-6553526) | 0x026E       |     25 |              7 |
| [65535.27](#event-6553527) | 0x0287       |     15 |              5 |
| [65535.28](#event-6553528) | 0x0296       |     15 |              5 |
| [65535.29](#event-6553529) | 0x02A5       |     15 |              5 |
| [65535.30](#event-6553530) | 0x02B4       |     24 |              6 |
| [65535.31](#event-6553531) | 0x02CC       |     16 |              2 |
| [65535.32](#event-6553532) | 0x02DC       |     14 |              2 |
| [65535.33](#event-6553533) | 0x02EA       |     16 |              2 |
| [65535.34](#event-6553534) | 0x02FA       |     14 |              2 |
| [65535.35](#event-6553535) | 0x0308       |     16 |              2 |
| [65535.36](#event-6553536) | 0x0318       |     14 |              2 |
| [65535.37](#event-6553537) | 0x0326       |     16 |              2 |
| [65535.38](#event-6553538) | 0x0336       |     14 |              2 |
| [65535.39](#event-6553539) | 0x0344       |     16 |              2 |
| [65535.40](#event-6553540) | 0x0354       |     14 |              2 |
| [65535.41](#event-6553541) | 0x0362       |     16 |              2 |
| [65535.42](#event-6553542) | 0x0372       |     14 |              2 |
| [65535.43](#event-6553543) | 0x0380       |     16 |              2 |
| [65535.44](#event-6553544) | 0x0390       |     14 |              2 |
| [65535.45](#event-6553545) | 0x039E       |     16 |              2 |
| [65535.46](#event-6553546) | 0x03AE       |     14 |              2 |
| [65535.47](#event-6553547) | 0x03BC       |     16 |              2 |
| [65535.48](#event-6553548) | 0x03CC       |     14 |              2 |
| [65535.49](#event-6553549) | 0x03DA       |     16 |              2 |
| [65535.50](#event-6553550) | 0x03EA       |     14 |              2 |
| [65535.51](#event-6553551) | 0x03F8       |     16 |              2 |
| [65535.52](#event-6553552) | 0x0408       |     14 |              2 |
| [65535.53](#event-6553553) | 0x0416       |     16 |              2 |
| [65535.54](#event-6553554) | 0x0426       |     14 |              2 |
| [65535.55](#event-6553555) | 0x0434       |     16 |              2 |
| [65535.56](#event-6553556) | 0x0444       |     14 |              2 |
| [65535.57](#event-6553557) | 0x0452       |     16 |              2 |
| [65535.58](#event-6553558) | 0x0462       |     14 |              2 |
| [65535.59](#event-6553559) | 0x0470       |     16 |              2 |
| [65535.60](#event-6553560) | 0x0480       |     14 |              2 |
| [65535.61](#event-6553561) | 0x048E       |     16 |              2 |
| [65535.62](#event-6553562) | 0x049E       |     14 |              2 |
| [65535.63](#event-6553563) | 0x04AC       |     16 |              2 |
| [65535.64](#event-6553564) | 0x04BC       |     14 |              2 |
| [65535.65](#event-6553565) | 0x04CA       |     16 |              2 |
| [65535.66](#event-6553566) | 0x04DA       |     14 |              2 |
| [65535.67](#event-6553567) | 0x04E8       |     16 |              2 |
| [65535.68](#event-6553568) | 0x04F8       |     14 |              2 |
| [65535.69](#event-6553569) | 0x0506       |     16 |              2 |
| [65535.70](#event-6553570) | 0x0516       |     14 |              2 |
| [65535.71](#event-6553571) | 0x0524       |     16 |              2 |
| [65535.72](#event-6553572) | 0x0534       |     14 |              2 |
| [65535.73](#event-6553573) | 0x0542       |     16 |              2 |
| [65535.74](#event-6553574) | 0x0552       |     14 |              2 |
| [65535.75](#event-6553575) | 0x0560       |     16 |              2 |
| [65535.76](#event-6553576) | 0x0570       |     14 |              2 |
| [65535.77](#event-6553577) | 0x057E       |     16 |              2 |
| [65535.78](#event-6553578) | 0x058E       |     14 |              2 |
| [65535.79](#event-6553579) | 0x059C       |     16 |              2 |
| [65535.80](#event-6553580) | 0x05AC       |     14 |              2 |
| [65535.81](#event-6553581) | 0x05BA       |     16 |              2 |
| [65535.82](#event-6553582) | 0x05CA       |     14 |              2 |
| [65535.83](#event-6553583) | 0x05D8       |     16 |              2 |
| [65535.84](#event-6553584) | 0x05E8       |     14 |              2 |
| [65535.85](#event-6553585) | 0x05F6       |     16 |              2 |
| [65535.86](#event-6553586) | 0x0606       |     14 |              2 |
| [65535.87](#event-6553587) | 0x0614       |     57 |              5 |
| [681](#event-681)          | 0x064D       |      7 |              2 |
| [65535.88](#event-6553588) | 0x0654       |     35 |              9 |
| [65535.89](#event-6553589) | 0x0677       |     15 |              5 |
| [65535.90](#event-6553590) | 0x0686       |     15 |              5 |

## DAT References (imed_data)

|   Index | Hex Value   |   Dec Value |
|---------|-------------|-------------|
|       0 | 0x3392      |       13202 |
|       1 | 0xFFFFE4A8  |  4294960296 |
|       2 | 0x1B57      |        6999 |
|       3 | 0x036A      |         874 |
|       4 | 0x0028      |          40 |
|       5 | 0x3BB5      |       15285 |
|       6 | 0xFFFFCA4A  |  4294953546 |
|       7 | 0x0C82      |        3202 |
|       8 | 0xFFFFD120  |  4294955296 |
|       9 | 0x0093      |         147 |
|      10 | 0x001E      |          30 |
|      11 | 0x3069      |       12393 |
|      12 | 0xFFFFE708  |  4294960904 |
|      13 | 0x0000      |           0 |
|      14 | 0x1D7D      |        7549 |
|      15 | 0xFFFFF31A  |  4294963994 |
|      16 | 0x03E8      |        1000 |
|      17 | 0x4731      |       18225 |
|      18 | 0x0340      |         832 |
|      19 | 0x09C4      |        2500 |
|      20 | 0x2710      |       10000 |
|      21 | 0x0DAC      |        3500 |
|      22 | 0x251C      |        9500 |
|      23 | 0x000A      |          10 |
|      24 | 0x0091      |         145 |
|      25 | 0x12B0      |        4784 |
|      26 | 0x1AAA      |        6826 |
|      27 | 0x147C      |        5244 |
|      28 | 0x0FA2      |        4002 |
|      29 | 0x9825      |       38949 |
|      30 | 0xFFFFE948  |  4294961480 |
|      31 | 0xCA28      |       51752 |
|      32 | 0xFFFF92F7  |  4294939383 |
|      33 | 0xFFFFFFCD  |  4294967245 |
|      34 | 0x0C0F      |        3087 |
|      35 | 0x000D      |          13 |
|      36 | 0xC309      |       49929 |
|      37 | 0xFFFFB293  |  4294947475 |
|      38 | 0xFFFFFFC7  |  4294967239 |
|      39 | 0xD130      |       53552 |
|      40 | 0xFFFF8E0F  |  4294938127 |
|      41 | 0xD12B      |       53547 |
|      42 | 0xFFFF785E  |  4294932574 |
|      43 | 0xCF36      |       53046 |
|      44 | 0xFFFF759B  |  4294931867 |
|      45 | 0xFFFFFFC5  |  4294967237 |
|      46 | 0xFFFDEA45  |  4294830661 |
|      47 | 0xFFFFE312  |  4294959890 |
|      48 | 0x0065      |         101 |
|      49 | 0xFFFDB263  |  4294816355 |
|      50 | 0xFFFFEF8D  |  4294963085 |
|      51 | 0xFFFDA7F6  |  4294813686 |
|      52 | 0xFFFFC261  |  4294951521 |
|      53 | 0xCF40      |       53056 |
|      54 | 0xFFFF9B7C  |  4294941564 |
|      55 | 0xCF57      |       53079 |
|      56 | 0xFFFF8B00  |  4294937344 |
|      57 | 0xCF08      |       53000 |
|      58 | 0xFFFF842F  |  4294935599 |
|      59 | 0xCF05      |       52997 |
|      60 | 0xFFFF7C64  |  4294933604 |
|      61 | 0xCEF1      |       52977 |
|      62 | 0xFFFF78CF  |  4294932687 |
|      63 | 0xBF40      |       48960 |
|      64 | 0xFFFFBA64  |  4294949476 |
|      65 | 0x0092      |         146 |
|      66 | 0x0094      |         148 |
|      67 | 0xC3A4      |       50084 |
|      68 | 0xFFFFB0CB  |  4294947019 |
|      69 | 0xCD7B      |       52603 |
|      70 | 0xFFFF98E6  |  4294940902 |
|      71 | 0xCE82      |       52866 |
|      72 | 0xFFFF8BA9  |  4294937513 |
|      73 | 0xCE69      |       52841 |
|      74 | 0xFFFF8699  |  4294936217 |
|      75 | 0xCFFD      |       53245 |
|      76 | 0xFFFF8431  |  4294935601 |

## Events

### Event 65535

#### Metadata

| Field        | Value   |
|--------------|---------|
| Entrypoint   | 0x0000  |
| Data Size    | 1 bytes |
| Instructions | 1       |

```
      00 01 02 03 04 05 06 07  08 09 0A 0B 0C 0D 0E 0F
      -- -- -- -- -- -- -- --  -- -- -- -- -- -- -- --
0000: 00                                                .               
```

#### Opcodes

```
  0: 0x0000 [0x00] END_REQSTACK()
```

### Event 90

#### Metadata

| Field        | Value    |
|--------------|----------|
| Entrypoint   | 0x0001   |
| Data Size    | 12 bytes |
| Instructions | 3        |

```
      00 01 02 03 04 05 06 07  08 09 0A 0B 0C 0D 0E 0F
      -- -- -- -- -- -- -- --  -- -- -- -- -- -- -- --
0000:    22 01 37 00 80 01 80  02 80 03 80 00            ".7.........   
```

#### Opcodes

```
  0: 0x0001 [0x22] ENTITY_HIDE_FLAG(enabled=0x01)
  1: 0x0003 [0x37] UPDATE_EVENT_POSITION_AND_DIR: x=13.202*, z=-7.000*, y=6.999*, direction=76.8째*
  2: 0x000C [0x00] END_REQSTACK()
```

### Event 65535.1

#### Metadata

| Field        | Value    |
|--------------|----------|
| Entrypoint   | 0x000D   |
| Data Size    | 31 bytes |
| Instructions | 7        |

```
      00 01 02 03 04 05 06 07  08 09 0A 0B 0C 0D 0E 0F
      -- -- -- -- -- -- -- --  -- -- -- -- -- -- -- --
0000:                                         32 04 80               2..
0010: 22 00 1F 00 05 80 06 80  02 80 1F 01 1E 37 A0 0E  "............7..
0020: 01 79 00 F0 FF FF 7F F8  FF FF 7F 00              .y..........    
```

#### Opcodes

```
  0: 0x000D [0x32] ExtData[1]->MainSpeed = 40* * 0.1
  1: 0x0010 [0x22] ENTITY_HIDE_FLAG(enabled=0x00)
  2: 0x0012 [0x1F] MOVE_ENTITY: EventEntity moves to X=15.285*, Z=-13.750*, Y=6.999*
  3: 0x001A [0x1F] MOVE_ENTITY: Update entity position (mode=1)
  4: 0x001C [0x1E] EventEntity looks at Pavvke (ID: 17735735/0x010EA037) and starts talking
  5: 0x0021 [0x79] LocalPlayer looks at EventEntity (Basic look)
  6: 0x002B [0x00] END_REQSTACK()
```

### Event 65535.2

#### Metadata

| Field        | Value    |
|--------------|----------|
| Entrypoint   | 0x002C   |
| Data Size    | 24 bytes |
| Instructions | 6        |

```
      00 01 02 03 04 05 06 07  08 09 0A 0B 0C 0D 0E 0F
      -- -- -- -- -- -- -- --  -- -- -- -- -- -- -- --
0020:                                      32 04 80 1F              2...
0030: 00 00 80 01 80 02 80 1F  01 1F 00 07 80 08 80 02  ................
0040: 80 1F 01 00                                       ....            
```

#### Opcodes

```
  0: 0x002C [0x32] ExtData[1]->MainSpeed = 40* * 0.1
  1: 0x002F [0x1F] MOVE_ENTITY: EventEntity moves to X=13.202*, Z=-7.000*, Y=6.999*
  2: 0x0037 [0x1F] MOVE_ENTITY: Update entity position (mode=1)
  3: 0x0039 [0x1F] MOVE_ENTITY: EventEntity moves to X=3.202*, Z=-12.000*, Y=6.999*
  4: 0x0041 [0x1F] MOVE_ENTITY: Update entity position (mode=1)
  5: 0x0043 [0x00] END_REQSTACK()
```

### Event 65535.3

#### Metadata

| Field        | Value    |
|--------------|----------|
| Entrypoint   | 0x0044   |
| Data Size    | 65 bytes |
| Instructions | 7        |

```
      00 01 02 03 04 05 06 07  08 09 0A 0B 0C 0D 0E 0F
      -- -- -- -- -- -- -- --  -- -- -- -- -- -- -- --
0040:             53 39 A0 0E  01 39 A0 0E 01 74 6C 61      S9...9...tla
0050: 30 5B 09 80 39 A0 0E 01  39 A0 0E 01 74 6C 62 31  0[..9...9...tlb1
0060: 53 39 A0 0E 01 39 A0 0E  01 74 6C 61 31 79 00 39  S9...9...tla1y.9
0070: A0 0E 01 37 A0 0E 01 79  00 F0 FF FF 7F 37 A0 0E  ...7...y.....7..
0080: 01 1C 0A 80 00                                    .....           
```

#### Opcodes

```
  0: 0x0044 [0x53] WAIT_SCHEDULER_TASK: Wait for scheduler "tla0" with entities [Cornelia (ID: 17735737/0x010EA039), Cornelia (ID: 17735737/0x010EA039)]
  1: 0x0051 [0x5B] LOAD_EXT_SCHEDULER: Load scheduler "tlb1" with entities [Cornelia (ID: 17735737/0x010EA039), Cornelia (ID: 17735737/0x010EA039)], work=147*
  2: 0x0060 [0x53] WAIT_SCHEDULER_TASK: Wait for scheduler "tla1" with entities [Cornelia (ID: 17735737/0x010EA039), Cornelia (ID: 17735737/0x010EA039)]
  3: 0x006D [0x79] Cornelia (ID: 17735737/0x010EA039) looks at Pavvke (ID: 17735735/0x010EA037) (Basic look)
  4: 0x0077 [0x79] LocalPlayer looks at Pavvke (ID: 17735735/0x010EA037) (Basic look)
  5: 0x0081 [0x1C] WAIT(30* ticks)
  6: 0x0084 [0x00] END_REQSTACK()
```

### Event 91

#### Metadata

| Field        | Value    |
|--------------|----------|
| Entrypoint   | 0x0085   |
| Data Size    | 10 bytes |
| Instructions | 2        |

```
      00 01 02 03 04 05 06 07  08 09 0A 0B 0C 0D 0E 0F
      -- -- -- -- -- -- -- --  -- -- -- -- -- -- -- --
0080:                37 0B 80  0C 80 02 80 0D 80 00          7......... 
```

#### Opcodes

```
  0: 0x0085 [0x37] UPDATE_EVENT_POSITION_AND_DIR: x=12.393*, z=-6.392*, y=6.999*, direction=0.0째*
  1: 0x008E [0x00] END_REQSTACK()
```

### Event 65535.4

#### Metadata

| Field        | Value    |
|--------------|----------|
| Entrypoint   | 0x008F   |
| Data Size    | 16 bytes |
| Instructions | 5        |

```
      00 01 02 03 04 05 06 07  08 09 0A 0B 0C 0D 0E 0F
      -- -- -- -- -- -- -- --  -- -- -- -- -- -- -- --
0080:                                               32                 2
0090: 04 80 1F 00 0E 80 0F 80  02 80 1F 01 22 01 00     ............".. 
```

#### Opcodes

```
  0: 0x008F [0x32] ExtData[1]->MainSpeed = 40* * 0.1
  1: 0x0092 [0x1F] MOVE_ENTITY: EventEntity moves to X=7.549*, Z=-3.302*, Y=6.999*
  2: 0x009A [0x1F] MOVE_ENTITY: Update entity position (mode=1)
  3: 0x009C [0x22] ENTITY_HIDE_FLAG(enabled=0x01)
  4: 0x009E [0x00] END_REQSTACK()
```

### Event 65535.5

#### Metadata

| Field        | Value   |
|--------------|---------|
| Entrypoint   | 0x009F  |
| Data Size    | 6 bytes |
| Instructions | 2       |

```
      00 01 02 03 04 05 06 07  08 09 0A 0B 0C 0D 0E 0F
      -- -- -- -- -- -- -- --  -- -- -- -- -- -- -- --
0090:                                               5E                 ^
00A0: 69 64 6C 30 00                                    idl0.           
```

#### Opcodes

```
  0: 0x009F [0x5E] EventEntity goes idle (kills current action) (animation: "idl0")
  1: 0x00A4 [0x00] END_REQSTACK()
```

### Event 94

#### Metadata

| Field        | Value    |
|--------------|----------|
| Entrypoint   | 0x00A5   |
| Data Size    | 12 bytes |
| Instructions | 3        |

```
      00 01 02 03 04 05 06 07  08 09 0A 0B 0C 0D 0E 0F
      -- -- -- -- -- -- -- --  -- -- -- -- -- -- -- --
00A0:                22 01 37  10 80 11 80 02 80 12 80       ".7........
00B0: 00                                                .               
```

#### Opcodes

```
  0: 0x00A5 [0x22] ENTITY_HIDE_FLAG(enabled=0x01)
  1: 0x00A7 [0x37] UPDATE_EVENT_POSITION_AND_DIR: x=1.000*, z=18.225*, y=6.999*, direction=73.1째*
  2: 0x00B0 [0x00] END_REQSTACK()
```

### Event 65535.6

#### Metadata

| Field        | Value    |
|--------------|----------|
| Entrypoint   | 0x00B1   |
| Data Size    | 84 bytes |
| Instructions | 14       |

```
      00 01 02 03 04 05 06 07  08 09 0A 0B 0C 0D 0E 0F
      -- -- -- -- -- -- -- --  -- -- -- -- -- -- -- --
00B0:    32 04 80 22 00 80 F8  FF FF 7F 1F 00 13 80 14   2.."...........
00C0: 80 02 80 1F 01 79 00 16  A0 0E 01 39 A0 0E 01 1F  .....y.....9....
00D0: 00 15 80 16 80 02 80 1F  01 1E 04 A0 0E 01 79 00  ..............y.
00E0: 04 A0 0E 01 39 A0 0E 01  1C 17 80 79 00 F0 FF FF  ....9......y....
00F0: 7F 39 A0 0E 01 5B 18 80  39 A0 0E 01 39 A0 0E 01  .9...[..9...9...
0100: 70 61 73 30 00                                    pas0.           
```

#### Opcodes

```
  0: 0x00B1 [0x32] ExtData[1]->MainSpeed = 40* * 0.1
  1: 0x00B4 [0x22] ENTITY_HIDE_FLAG(enabled=0x00)
  2: 0x00B6 [0x80] LOAD_WAIT(entity=EventEntity)
  3: 0x00BB [0x1F] MOVE_ENTITY: EventEntity moves to X=2.500*, Z=10.000*, Y=6.999*
  4: 0x00C3 [0x1F] MOVE_ENTITY: Update entity position (mode=1)
  5: 0x00C5 [0x79] Detzo (ID: 17735702/0x010EA016) looks at Cornelia (ID: 17735737/0x010EA039) (Basic look)
  6: 0x00CF [0x1F] MOVE_ENTITY: EventEntity moves to X=3.500*, Z=9.500*, Y=6.999*
  7: 0x00D7 [0x1F] MOVE_ENTITY: Update entity position (mode=1)
  8: 0x00D9 [0x1E] EventEntity looks at Gumbah (ID: 17735684/0x010EA004) and starts talking
  9: 0x00DE [0x79] Gumbah (ID: 17735684/0x010EA004) looks at Cornelia (ID: 17735737/0x010EA039) (Basic look)
 10: 0x00E8 [0x1C] WAIT(10* ticks)
 11: 0x00EB [0x79] LocalPlayer looks at Cornelia (ID: 17735737/0x010EA039) (Basic look)
 12: 0x00F5 [0x5B] LOAD_EXT_SCHEDULER: Load scheduler "pas0" with entities [Cornelia (ID: 17735737/0x010EA039), Cornelia (ID: 17735737/0x010EA039)], work=145*
 13: 0x0104 [0x00] END_REQSTACK()
```

### Event 65535.7

#### Metadata

| Field        | Value    |
|--------------|----------|
| Entrypoint   | 0x0105   |
| Data Size    | 33 bytes |
| Instructions | 8        |

```
      00 01 02 03 04 05 06 07  08 09 0A 0B 0C 0D 0E 0F
      -- -- -- -- -- -- -- --  -- -- -- -- -- -- -- --
0100:                1F 00 19  80 1A 80 02 80 1F 01 1F       ...........
0110: 00 1B 80 1C 80 02 80 1F  01 1F 00 1D 80 1E 80 02  ................
0120: 80 1F 01 22 01 00                                 ..."..          
```

#### Opcodes

```
  0: 0x0105 [0x1F] MOVE_ENTITY: EventEntity moves to X=4.784*, Z=6.826*, Y=6.999*
  1: 0x010D [0x1F] MOVE_ENTITY: Update entity position (mode=1)
  2: 0x010F [0x1F] MOVE_ENTITY: EventEntity moves to X=5.244*, Z=4.002*, Y=6.999*
  3: 0x0117 [0x1F] MOVE_ENTITY: Update entity position (mode=1)
  4: 0x0119 [0x1F] MOVE_ENTITY: EventEntity moves to X=38.949*, Z=-5.816*, Y=6.999*
  5: 0x0121 [0x1F] MOVE_ENTITY: Update entity position (mode=1)
  6: 0x0123 [0x22] ENTITY_HIDE_FLAG(enabled=0x01)
  7: 0x0125 [0x00] END_REQSTACK()
```

### Event 177

#### Metadata

| Field        | Value    |
|--------------|----------|
| Entrypoint   | 0x0126   |
| Data Size    | 10 bytes |
| Instructions | 2        |

```
      00 01 02 03 04 05 06 07  08 09 0A 0B 0C 0D 0E 0F
      -- -- -- -- -- -- -- --  -- -- -- -- -- -- -- --
0120:                   37 1F  80 20 80 21 80 22 80 00        7.. .!."..
```

#### Opcodes

```
  0: 0x0126 [0x37] UPDATE_EVENT_POSITION_AND_DIR: x=51.752*, z=-27.913*, y=-0.051*, direction=271.3째*
  1: 0x012F [0x00] END_REQSTACK()
```

### Event 65535.8

#### Metadata

| Field        | Value    |
|--------------|----------|
| Entrypoint   | 0x0130   |
| Data Size    | 14 bytes |
| Instructions | 4        |

```
      00 01 02 03 04 05 06 07  08 09 0A 0B 0C 0D 0E 0F
      -- -- -- -- -- -- -- --  -- -- -- -- -- -- -- --
0130: 32 23 80 1F 00 24 80 25  80 26 80 1F 01 00        2#...$.%.&....  
```

#### Opcodes

```
  0: 0x0130 [0x32] ExtData[1]->MainSpeed = 13* * 0.1
  1: 0x0133 [0x1F] MOVE_ENTITY: EventEntity moves to X=49.929*, Z=-19.821*, Y=-0.057*
  2: 0x013B [0x1F] MOVE_ENTITY: Update entity position (mode=1)
  3: 0x013D [0x00] END_REQSTACK()
```

### Event 661

#### Metadata

| Field        | Value   |
|--------------|---------|
| Entrypoint   | 0x013E  |
| Data Size    | 7 bytes |
| Instructions | 2       |

```
      00 01 02 03 04 05 06 07  08 09 0A 0B 0C 0D 0E 0F
      -- -- -- -- -- -- -- --  -- -- -- -- -- -- -- --
0130:                                            92 01                ..
0140: F8 FF FF 7F 00                                    .....           
```

#### Opcodes

```
  0: 0x013E [0x92] EventEntity->Render.Flags3 ^= 0x01
  1: 0x0144 [0x00] END_REQSTACK()
```

### Event 663

#### Metadata

| Field        | Value   |
|--------------|---------|
| Entrypoint   | 0x0145  |
| Data Size    | 7 bytes |
| Instructions | 2       |

```
      00 01 02 03 04 05 06 07  08 09 0A 0B 0C 0D 0E 0F
      -- -- -- -- -- -- -- --  -- -- -- -- -- -- -- --
0140:                92 01 F8  FF FF 7F 00                   .......    
```

#### Opcodes

```
  0: 0x0145 [0x92] EventEntity->Render.Flags3 ^= 0x01
  1: 0x014B [0x00] END_REQSTACK()
```

### Event 65535.9

#### Metadata

| Field        | Value    |
|--------------|----------|
| Entrypoint   | 0x014C   |
| Data Size    | 25 bytes |
| Instructions | 3        |

```
      00 01 02 03 04 05 06 07  08 09 0A 0B 0C 0D 0E 0F
      -- -- -- -- -- -- -- --  -- -- -- -- -- -- -- --
0140:                                      B4 00 00 00              ....
0150: 3F 3F 3F 00 00 00 00 00  00 00 00 00 00 00 00 00  ???.............
0160: B5 00 00 00 00                                    .....           
```

#### Opcodes

```
  0: 0x014C [0xB4] UI_WINDOW_STRING_HANDLER(case=0x00 - Copy string from opcode, work_offset=ExtData[1]->WorkLocal[0], string="???")
  1: 0x0160 [0xB5] SET_EVENT_ENTITY_NAME: Change EventEntity name to ExtData[1]->WorkLocal[0]
  2: 0x0164 [0x00] END_REQSTACK()
```

### Event 65535.10

#### Metadata

| Field        | Value    |
|--------------|----------|
| Entrypoint   | 0x0165   |
| Data Size    | 25 bytes |
| Instructions | 3        |

```
      00 01 02 03 04 05 06 07  08 09 0A 0B 0C 0D 0E 0F
      -- -- -- -- -- -- -- --  -- -- -- -- -- -- -- --
0160:                B4 00 00  00 43 6F 72 6E 65 6C 69       ....Corneli
0170: 61 00 00 00 00 00 00 00  00 B5 00 00 00 00        a.............  
```

#### Opcodes

```
  0: 0x0165 [0xB4] UI_WINDOW_STRING_HANDLER(case=0x00 - Copy string from opcode, work_offset=ExtData[1]->WorkLocal[0], string="Cornelia")
  1: 0x0179 [0xB5] SET_EVENT_ENTITY_NAME: Change EventEntity name to ExtData[1]->WorkLocal[0]
  2: 0x017D [0x00] END_REQSTACK()
```

### Event 65535.11

#### Metadata

| Field        | Value   |
|--------------|---------|
| Entrypoint   | 0x017E  |
| Data Size    | 2 bytes |
| Instructions | 2       |

```
      00 01 02 03 04 05 06 07  08 09 0A 0B 0C 0D 0E 0F
      -- -- -- -- -- -- -- --  -- -- -- -- -- -- -- --
0170:                                            84 00                ..
```

#### Opcodes

```
  0: 0x017E [0x84] ADJUST_RENDER_FLAGS3_BIT0()
  1: 0x017F [0x00] END_REQSTACK()
```

### Event 65535.12

#### Metadata

| Field        | Value    |
|--------------|----------|
| Entrypoint   | 0x0180   |
| Data Size    | 15 bytes |
| Instructions | 5        |

```
      00 01 02 03 04 05 06 07  08 09 0A 0B 0C 0D 0E 0F
      -- -- -- -- -- -- -- --  -- -- -- -- -- -- -- --
0180: 32 23 80 1F 00 27 80 28  80 21 80 1F 01 6F 00     2#...'.(.!...o. 
```

#### Opcodes

```
  0: 0x0180 [0x32] ExtData[1]->MainSpeed = 13* * 0.1
  1: 0x0183 [0x1F] MOVE_ENTITY: EventEntity moves to X=53.552*, Z=-29.169*, Y=-0.051*
  2: 0x018B [0x1F] MOVE_ENTITY: Update entity position (mode=1)
  3: 0x018D [0x6F] WAIT_FRAME_DELAY: Yield until WaitTime reaches zero
  4: 0x018E [0x00] END_REQSTACK()
```

### Event 65535.13

#### Metadata

| Field        | Value    |
|--------------|----------|
| Entrypoint   | 0x018F   |
| Data Size    | 15 bytes |
| Instructions | 5        |

```
      00 01 02 03 04 05 06 07  08 09 0A 0B 0C 0D 0E 0F
      -- -- -- -- -- -- -- --  -- -- -- -- -- -- -- --
0180:                                               32                 2
0190: 23 80 1F 00 29 80 2A 80  21 80 1F 01 6F 00        #...).*.!...o.  
```

#### Opcodes

```
  0: 0x018F [0x32] ExtData[1]->MainSpeed = 13* * 0.1
  1: 0x0192 [0x1F] MOVE_ENTITY: EventEntity moves to X=53.547*, Z=-34.722*, Y=-0.051*
  2: 0x019A [0x1F] MOVE_ENTITY: Update entity position (mode=1)
  3: 0x019C [0x6F] WAIT_FRAME_DELAY: Yield until WaitTime reaches zero
  4: 0x019D [0x00] END_REQSTACK()
```

### Event 65535.14

#### Metadata

| Field        | Value    |
|--------------|----------|
| Entrypoint   | 0x019E   |
| Data Size    | 15 bytes |
| Instructions | 5        |

```
      00 01 02 03 04 05 06 07  08 09 0A 0B 0C 0D 0E 0F
      -- -- -- -- -- -- -- --  -- -- -- -- -- -- -- --
0190:                                            32 04                2.
01A0: 80 1F 00 27 80 28 80 21  80 1F 01 6F 00           ...'.(.!...o.   
```

#### Opcodes

```
  0: 0x019E [0x32] ExtData[1]->MainSpeed = 40* * 0.1
  1: 0x01A1 [0x1F] MOVE_ENTITY: EventEntity moves to X=53.552*, Z=-29.169*, Y=-0.051*
  2: 0x01A9 [0x1F] MOVE_ENTITY: Update entity position (mode=1)
  3: 0x01AB [0x6F] WAIT_FRAME_DELAY: Yield until WaitTime reaches zero
  4: 0x01AC [0x00] END_REQSTACK()
```

### Event 65535.15

#### Metadata

| Field        | Value    |
|--------------|----------|
| Entrypoint   | 0x01AD   |
| Data Size    | 15 bytes |
| Instructions | 5        |

```
      00 01 02 03 04 05 06 07  08 09 0A 0B 0C 0D 0E 0F
      -- -- -- -- -- -- -- --  -- -- -- -- -- -- -- --
01A0:                                         32 23 80               2#.
01B0: 1F 00 27 80 28 80 21 80  1F 01 6F 00              ..'.(.!...o.    
```

#### Opcodes

```
  0: 0x01AD [0x32] ExtData[1]->MainSpeed = 13* * 0.1
  1: 0x01B0 [0x1F] MOVE_ENTITY: EventEntity moves to X=53.552*, Z=-29.169*, Y=-0.051*
  2: 0x01B8 [0x1F] MOVE_ENTITY: Update entity position (mode=1)
  3: 0x01BA [0x6F] WAIT_FRAME_DELAY: Yield until WaitTime reaches zero
  4: 0x01BB [0x00] END_REQSTACK()
```

### Event 65535.16

#### Metadata

| Field        | Value    |
|--------------|----------|
| Entrypoint   | 0x01BC   |
| Data Size    | 15 bytes |
| Instructions | 5        |

```
      00 01 02 03 04 05 06 07  08 09 0A 0B 0C 0D 0E 0F
      -- -- -- -- -- -- -- --  -- -- -- -- -- -- -- --
01B0:                                      32 23 80 1F              2#..
01C0: 00 29 80 2A 80 21 80 1F  01 6F 00                 .).*.!...o.     
```

#### Opcodes

```
  0: 0x01BC [0x32] ExtData[1]->MainSpeed = 13* * 0.1
  1: 0x01BF [0x1F] MOVE_ENTITY: EventEntity moves to X=53.547*, Z=-34.722*, Y=-0.051*
  2: 0x01C7 [0x1F] MOVE_ENTITY: Update entity position (mode=1)
  3: 0x01C9 [0x6F] WAIT_FRAME_DELAY: Yield until WaitTime reaches zero
  4: 0x01CA [0x00] END_REQSTACK()
```

### Event 65535.17

#### Metadata

| Field        | Value    |
|--------------|----------|
| Entrypoint   | 0x01CB   |
| Data Size    | 15 bytes |
| Instructions | 5        |

```
      00 01 02 03 04 05 06 07  08 09 0A 0B 0C 0D 0E 0F
      -- -- -- -- -- -- -- --  -- -- -- -- -- -- -- --
01C0:                                   32 04 80 1F 00             2....
01D0: 27 80 28 80 21 80 1F 01  6F 00                    '.(.!...o.      
```

#### Opcodes

```
  0: 0x01CB [0x32] ExtData[1]->MainSpeed = 40* * 0.1
  1: 0x01CE [0x1F] MOVE_ENTITY: EventEntity moves to X=53.552*, Z=-29.169*, Y=-0.051*
  2: 0x01D6 [0x1F] MOVE_ENTITY: Update entity position (mode=1)
  3: 0x01D8 [0x6F] WAIT_FRAME_DELAY: Yield until WaitTime reaches zero
  4: 0x01D9 [0x00] END_REQSTACK()
```

### Event 665

#### Metadata

| Field        | Value   |
|--------------|---------|
| Entrypoint   | 0x01DA  |
| Data Size    | 7 bytes |
| Instructions | 2       |

```
      00 01 02 03 04 05 06 07  08 09 0A 0B 0C 0D 0E 0F
      -- -- -- -- -- -- -- --  -- -- -- -- -- -- -- --
01D0:                                92 01 F8 FF FF 7F            ......
01E0: 00                                                .               
```

#### Opcodes

```
  0: 0x01DA [0x92] EventEntity->Render.Flags3 ^= 0x01
  1: 0x01E0 [0x00] END_REQSTACK()
```

### Event 667

#### Metadata

| Field        | Value   |
|--------------|---------|
| Entrypoint   | 0x01E1  |
| Data Size    | 7 bytes |
| Instructions | 2       |

```
      00 01 02 03 04 05 06 07  08 09 0A 0B 0C 0D 0E 0F
      -- -- -- -- -- -- -- --  -- -- -- -- -- -- -- --
01E0:    92 01 F8 FF FF 7F 00                            .......        
```

#### Opcodes

```
  0: 0x01E1 [0x92] EventEntity->Render.Flags3 ^= 0x01
  1: 0x01E7 [0x00] END_REQSTACK()
```

### Event 65535.18

#### Metadata

| Field        | Value    |
|--------------|----------|
| Entrypoint   | 0x01E8   |
| Data Size    | 15 bytes |
| Instructions | 5        |

```
      00 01 02 03 04 05 06 07  08 09 0A 0B 0C 0D 0E 0F
      -- -- -- -- -- -- -- --  -- -- -- -- -- -- -- --
01E0:                          32 23 80 1F 00 27 80 28          2#...'.(
01F0: 80 21 80 1F 01 6F 00                              .!...o.         
```

#### Opcodes

```
  0: 0x01E8 [0x32] ExtData[1]->MainSpeed = 13* * 0.1
  1: 0x01EB [0x1F] MOVE_ENTITY: EventEntity moves to X=53.552*, Z=-29.169*, Y=-0.051*
  2: 0x01F3 [0x1F] MOVE_ENTITY: Update entity position (mode=1)
  3: 0x01F5 [0x6F] WAIT_FRAME_DELAY: Yield until WaitTime reaches zero
  4: 0x01F6 [0x00] END_REQSTACK()
```

### Event 65535.19

#### Metadata

| Field        | Value    |
|--------------|----------|
| Entrypoint   | 0x01F7   |
| Data Size    | 15 bytes |
| Instructions | 5        |

```
      00 01 02 03 04 05 06 07  08 09 0A 0B 0C 0D 0E 0F
      -- -- -- -- -- -- -- --  -- -- -- -- -- -- -- --
01F0:                      32  23 80 1F 00 29 80 2A 80         2#...).*.
0200: 21 80 1F 01 6F 00                                 !...o.          
```

#### Opcodes

```
  0: 0x01F7 [0x32] ExtData[1]->MainSpeed = 13* * 0.1
  1: 0x01FA [0x1F] MOVE_ENTITY: EventEntity moves to X=53.547*, Z=-34.722*, Y=-0.051*
  2: 0x0202 [0x1F] MOVE_ENTITY: Update entity position (mode=1)
  3: 0x0204 [0x6F] WAIT_FRAME_DELAY: Yield until WaitTime reaches zero
  4: 0x0205 [0x00] END_REQSTACK()
```

### Event 65535.20

#### Metadata

| Field        | Value    |
|--------------|----------|
| Entrypoint   | 0x0206   |
| Data Size    | 15 bytes |
| Instructions | 5        |

```
      00 01 02 03 04 05 06 07  08 09 0A 0B 0C 0D 0E 0F
      -- -- -- -- -- -- -- --  -- -- -- -- -- -- -- --
0200:                   32 23  80 1F 00 27 80 28 80 21        2#...'.(.!
0210: 80 1F 01 6F 00                                    ...o.           
```

#### Opcodes

```
  0: 0x0206 [0x32] ExtData[1]->MainSpeed = 13* * 0.1
  1: 0x0209 [0x1F] MOVE_ENTITY: EventEntity moves to X=53.552*, Z=-29.169*, Y=-0.051*
  2: 0x0211 [0x1F] MOVE_ENTITY: Update entity position (mode=1)
  3: 0x0213 [0x6F] WAIT_FRAME_DELAY: Yield until WaitTime reaches zero
  4: 0x0214 [0x00] END_REQSTACK()
```

### Event 65535.21

#### Metadata

| Field        | Value    |
|--------------|----------|
| Entrypoint   | 0x0215   |
| Data Size    | 15 bytes |
| Instructions | 5        |

```
      00 01 02 03 04 05 06 07  08 09 0A 0B 0C 0D 0E 0F
      -- -- -- -- -- -- -- --  -- -- -- -- -- -- -- --
0210:                32 04 80  1F 00 29 80 2A 80 21 80       2....).*.!.
0220: 1F 01 6F 00                                       ..o.            
```

#### Opcodes

```
  0: 0x0215 [0x32] ExtData[1]->MainSpeed = 40* * 0.1
  1: 0x0218 [0x1F] MOVE_ENTITY: EventEntity moves to X=53.547*, Z=-34.722*, Y=-0.051*
  2: 0x0220 [0x1F] MOVE_ENTITY: Update entity position (mode=1)
  3: 0x0222 [0x6F] WAIT_FRAME_DELAY: Yield until WaitTime reaches zero
  4: 0x0223 [0x00] END_REQSTACK()
```

### Event 65535.22

#### Metadata

| Field        | Value    |
|--------------|----------|
| Entrypoint   | 0x0224   |
| Data Size    | 15 bytes |
| Instructions | 5        |

```
      00 01 02 03 04 05 06 07  08 09 0A 0B 0C 0D 0E 0F
      -- -- -- -- -- -- -- --  -- -- -- -- -- -- -- --
0220:             32 23 80 1F  00 2B 80 2C 80 2D 80 1F      2#...+.,.-..
0230: 01 6F 00                                          .o.             
```

#### Opcodes

```
  0: 0x0224 [0x32] ExtData[1]->MainSpeed = 13* * 0.1
  1: 0x0227 [0x1F] MOVE_ENTITY: EventEntity moves to X=53.046*, Z=-35.429*, Y=-0.059*
  2: 0x022F [0x1F] MOVE_ENTITY: Update entity position (mode=1)
  3: 0x0231 [0x6F] WAIT_FRAME_DELAY: Yield until WaitTime reaches zero
  4: 0x0232 [0x00] END_REQSTACK()
```

### Event 673

#### Metadata

| Field        | Value   |
|--------------|---------|
| Entrypoint   | 0x0233  |
| Data Size    | 7 bytes |
| Instructions | 2       |

```
      00 01 02 03 04 05 06 07  08 09 0A 0B 0C 0D 0E 0F
      -- -- -- -- -- -- -- --  -- -- -- -- -- -- -- --
0230:          92 01 F8 FF FF  7F 00                       .......      
```

#### Opcodes

```
  0: 0x0233 [0x92] EventEntity->Render.Flags3 ^= 0x01
  1: 0x0239 [0x00] END_REQSTACK()
```

### Event 65535.23

#### Metadata

| Field        | Value    |
|--------------|----------|
| Entrypoint   | 0x023A   |
| Data Size    | 15 bytes |
| Instructions | 5        |

```
      00 01 02 03 04 05 06 07  08 09 0A 0B 0C 0D 0E 0F
      -- -- -- -- -- -- -- --  -- -- -- -- -- -- -- --
0230:                                32 04 80 1F 00 2E            2.....
0240: 80 2F 80 30 80 1F 01 6F  00                       ./.0...o.       
```

#### Opcodes

```
  0: 0x023A [0x32] ExtData[1]->MainSpeed = 40* * 0.1
  1: 0x023D [0x1F] MOVE_ENTITY: EventEntity moves to X=-136.635*, Z=-7.406*, Y=0.101*
  2: 0x0245 [0x1F] MOVE_ENTITY: Update entity position (mode=1)
  3: 0x0247 [0x6F] WAIT_FRAME_DELAY: Yield until WaitTime reaches zero
  4: 0x0248 [0x00] END_REQSTACK()
```

### Event 65535.24

#### Metadata

| Field        | Value    |
|--------------|----------|
| Entrypoint   | 0x0249   |
| Data Size    | 15 bytes |
| Instructions | 5        |

```
      00 01 02 03 04 05 06 07  08 09 0A 0B 0C 0D 0E 0F
      -- -- -- -- -- -- -- --  -- -- -- -- -- -- -- --
0240:                             32 04 80 1F 00 31 80           2....1.
0250: 32 80 0D 80 1F 01 6F 00                           2.....o.        
```

#### Opcodes

```
  0: 0x0249 [0x32] ExtData[1]->MainSpeed = 40* * 0.1
  1: 0x024C [0x1F] MOVE_ENTITY: EventEntity moves to X=-150.941*, Z=-4.211*, Y=0.000*
  2: 0x0254 [0x1F] MOVE_ENTITY: Update entity position (mode=1)
  3: 0x0256 [0x6F] WAIT_FRAME_DELAY: Yield until WaitTime reaches zero
  4: 0x0257 [0x00] END_REQSTACK()
```

### Event 65535.25

#### Metadata

| Field        | Value    |
|--------------|----------|
| Entrypoint   | 0x0258   |
| Data Size    | 15 bytes |
| Instructions | 5        |

```
      00 01 02 03 04 05 06 07  08 09 0A 0B 0C 0D 0E 0F
      -- -- -- -- -- -- -- --  -- -- -- -- -- -- -- --
0250:                          32 04 80 1F 00 33 80 34          2....3.4
0260: 80 0D 80 1F 01 6F 00                              .....o.         
```

#### Opcodes

```
  0: 0x0258 [0x32] ExtData[1]->MainSpeed = 40* * 0.1
  1: 0x025B [0x1F] MOVE_ENTITY: EventEntity moves to X=-153.610*, Z=-15.775*, Y=0.000*
  2: 0x0263 [0x1F] MOVE_ENTITY: Update entity position (mode=1)
  3: 0x0265 [0x6F] WAIT_FRAME_DELAY: Yield until WaitTime reaches zero
  4: 0x0266 [0x00] END_REQSTACK()
```

### Event 678

#### Metadata

| Field        | Value   |
|--------------|---------|
| Entrypoint   | 0x0267  |
| Data Size    | 7 bytes |
| Instructions | 2       |

```
      00 01 02 03 04 05 06 07  08 09 0A 0B 0C 0D 0E 0F
      -- -- -- -- -- -- -- --  -- -- -- -- -- -- -- --
0260:                      92  01 F8 FF FF 7F 00               .......  
```

#### Opcodes

```
  0: 0x0267 [0x92] EventEntity->Render.Flags3 ^= 0x01
  1: 0x026D [0x00] END_REQSTACK()
```

### Event 65535.26

#### Metadata

| Field        | Value    |
|--------------|----------|
| Entrypoint   | 0x026E   |
| Data Size    | 25 bytes |
| Instructions | 7        |

```
      00 01 02 03 04 05 06 07  08 09 0A 0B 0C 0D 0E 0F
      -- -- -- -- -- -- -- --  -- -- -- -- -- -- -- --
0260:                                            32 04                2.
0270: 80 1F 00 35 80 36 80 2D  80 1F 01 1F 00 37 80 38  ...5.6.-.....7.8
0280: 80 21 80 1F 01 6F 00                              .!...o.         
```

#### Opcodes

```
  0: 0x026E [0x32] ExtData[1]->MainSpeed = 40* * 0.1
  1: 0x0271 [0x1F] MOVE_ENTITY: EventEntity moves to X=53.056*, Z=-25.732*, Y=-0.059*
  2: 0x0279 [0x1F] MOVE_ENTITY: Update entity position (mode=1)
  3: 0x027B [0x1F] MOVE_ENTITY: EventEntity moves to X=53.079*, Z=-29.952*, Y=-0.051*
  4: 0x0283 [0x1F] MOVE_ENTITY: Update entity position (mode=1)
  5: 0x0285 [0x6F] WAIT_FRAME_DELAY: Yield until WaitTime reaches zero
  6: 0x0286 [0x00] END_REQSTACK()
```

### Event 65535.27

#### Metadata

| Field        | Value    |
|--------------|----------|
| Entrypoint   | 0x0287   |
| Data Size    | 15 bytes |
| Instructions | 5        |

```
      00 01 02 03 04 05 06 07  08 09 0A 0B 0C 0D 0E 0F
      -- -- -- -- -- -- -- --  -- -- -- -- -- -- -- --
0280:                      32  23 80 1F 00 39 80 3A 80         2#...9.:.
0290: 21 80 1F 01 6F 00                                 !...o.          
```

#### Opcodes

```
  0: 0x0287 [0x32] ExtData[1]->MainSpeed = 13* * 0.1
  1: 0x028A [0x1F] MOVE_ENTITY: EventEntity moves to X=53.000*, Z=-31.697*, Y=-0.051*
  2: 0x0292 [0x1F] MOVE_ENTITY: Update entity position (mode=1)
  3: 0x0294 [0x6F] WAIT_FRAME_DELAY: Yield until WaitTime reaches zero
  4: 0x0295 [0x00] END_REQSTACK()
```

### Event 65535.28

#### Metadata

| Field        | Value    |
|--------------|----------|
| Entrypoint   | 0x0296   |
| Data Size    | 15 bytes |
| Instructions | 5        |

```
      00 01 02 03 04 05 06 07  08 09 0A 0B 0C 0D 0E 0F
      -- -- -- -- -- -- -- --  -- -- -- -- -- -- -- --
0290:                   32 23  80 1F 00 3B 80 3C 80 21        2#...;.<.!
02A0: 80 1F 01 6F 00                                    ...o.           
```

#### Opcodes

```
  0: 0x0296 [0x32] ExtData[1]->MainSpeed = 13* * 0.1
  1: 0x0299 [0x1F] MOVE_ENTITY: EventEntity moves to X=52.997*, Z=-33.692*, Y=-0.051*
  2: 0x02A1 [0x1F] MOVE_ENTITY: Update entity position (mode=1)
  3: 0x02A3 [0x6F] WAIT_FRAME_DELAY: Yield until WaitTime reaches zero
  4: 0x02A4 [0x00] END_REQSTACK()
```

### Event 65535.29

#### Metadata

| Field        | Value    |
|--------------|----------|
| Entrypoint   | 0x02A5   |
| Data Size    | 15 bytes |
| Instructions | 5        |

```
      00 01 02 03 04 05 06 07  08 09 0A 0B 0C 0D 0E 0F
      -- -- -- -- -- -- -- --  -- -- -- -- -- -- -- --
02A0:                32 23 80  1F 00 3D 80 3E 80 2D 80       2#...=.>.-.
02B0: 1F 01 6F 00                                       ..o.            
```

#### Opcodes

```
  0: 0x02A5 [0x32] ExtData[1]->MainSpeed = 13* * 0.1
  1: 0x02A8 [0x1F] MOVE_ENTITY: EventEntity moves to X=52.977*, Z=-34.609*, Y=-0.059*
  2: 0x02B0 [0x1F] MOVE_ENTITY: Update entity position (mode=1)
  3: 0x02B2 [0x6F] WAIT_FRAME_DELAY: Yield until WaitTime reaches zero
  4: 0x02B3 [0x00] END_REQSTACK()
```

### Event 65535.30

#### Metadata

| Field        | Value    |
|--------------|----------|
| Entrypoint   | 0x02B4   |
| Data Size    | 24 bytes |
| Instructions | 6        |

```
      00 01 02 03 04 05 06 07  08 09 0A 0B 0C 0D 0E 0F
      -- -- -- -- -- -- -- --  -- -- -- -- -- -- -- --
02B0:             32 23 80 1F  00 35 80 36 80 2D 80 1F      2#...5.6.-..
02C0: 01 1F 00 3F 80 40 80 26  80 1F 01 00              ...?.@.&....    
```

#### Opcodes

```
  0: 0x02B4 [0x32] ExtData[1]->MainSpeed = 13* * 0.1
  1: 0x02B7 [0x1F] MOVE_ENTITY: EventEntity moves to X=53.056*, Z=-25.732*, Y=-0.059*
  2: 0x02BF [0x1F] MOVE_ENTITY: Update entity position (mode=1)
  3: 0x02C1 [0x1F] MOVE_ENTITY: EventEntity moves to X=48.960*, Z=-17.820*, Y=-0.057*
  4: 0x02C9 [0x1F] MOVE_ENTITY: Update entity position (mode=1)
  5: 0x02CB [0x00] END_REQSTACK()
```

### Event 65535.31

#### Metadata

| Field        | Value    |
|--------------|----------|
| Entrypoint   | 0x02CC   |
| Data Size    | 16 bytes |
| Instructions | 2        |

```
      00 01 02 03 04 05 06 07  08 09 0A 0B 0C 0D 0E 0F
      -- -- -- -- -- -- -- --  -- -- -- -- -- -- -- --
02C0:                                      5B 18 80 F8              [...
02D0: FF FF 7F F8 FF FF 7F 74  6C 61 30 00              .......tla0.    
```

#### Opcodes

```
  0: 0x02CC [0x5B] LOAD_EXT_SCHEDULER: Load scheduler "tla0" with entities [EventEntity, EventEntity], work=145*
  1: 0x02DB [0x00] END_REQSTACK()
```

### Event 65535.32

#### Metadata

| Field        | Value    |
|--------------|----------|
| Entrypoint   | 0x02DC   |
| Data Size    | 14 bytes |
| Instructions | 2        |

```
      00 01 02 03 04 05 06 07  08 09 0A 0B 0C 0D 0E 0F
      -- -- -- -- -- -- -- --  -- -- -- -- -- -- -- --
02D0:                                      53 F8 FF FF              S...
02E0: 7F F8 FF FF 7F 74 6C 61  30 00                    .....tla0.      
```

#### Opcodes

```
  0: 0x02DC [0x53] WAIT_SCHEDULER_TASK: Wait for scheduler "tla0" with entities [EventEntity, EventEntity]
  1: 0x02E9 [0x00] END_REQSTACK()
```

### Event 65535.33

#### Metadata

| Field        | Value    |
|--------------|----------|
| Entrypoint   | 0x02EA   |
| Data Size    | 16 bytes |
| Instructions | 2        |

```
      00 01 02 03 04 05 06 07  08 09 0A 0B 0C 0D 0E 0F
      -- -- -- -- -- -- -- --  -- -- -- -- -- -- -- --
02E0:                                5B 18 80 F8 FF FF            [.....
02F0: 7F F8 FF FF 7F 74 6C 61  31 00                    .....tla1.      
```

#### Opcodes

```
  0: 0x02EA [0x5B] LOAD_EXT_SCHEDULER: Load scheduler "tla1" with entities [EventEntity, EventEntity], work=145*
  1: 0x02F9 [0x00] END_REQSTACK()
```

### Event 65535.34

#### Metadata

| Field        | Value    |
|--------------|----------|
| Entrypoint   | 0x02FA   |
| Data Size    | 14 bytes |
| Instructions | 2        |

```
      00 01 02 03 04 05 06 07  08 09 0A 0B 0C 0D 0E 0F
      -- -- -- -- -- -- -- --  -- -- -- -- -- -- -- --
02F0:                                53 F8 FF FF 7F F8            S.....
0300: FF FF 7F 74 6C 61 31 00                           ...tla1.        
```

#### Opcodes

```
  0: 0x02FA [0x53] WAIT_SCHEDULER_TASK: Wait for scheduler "tla1" with entities [EventEntity, EventEntity]
  1: 0x0307 [0x00] END_REQSTACK()
```

### Event 65535.35

#### Metadata

| Field        | Value    |
|--------------|----------|
| Entrypoint   | 0x0308   |
| Data Size    | 16 bytes |
| Instructions | 2        |

```
      00 01 02 03 04 05 06 07  08 09 0A 0B 0C 0D 0E 0F
      -- -- -- -- -- -- -- --  -- -- -- -- -- -- -- --
0300:                          5B 18 80 F8 FF FF 7F F8          [.......
0310: FF FF 7F 74 6C 61 32 00                           ...tla2.        
```

#### Opcodes

```
  0: 0x0308 [0x5B] LOAD_EXT_SCHEDULER: Load scheduler "tla2" with entities [EventEntity, EventEntity], work=145*
  1: 0x0317 [0x00] END_REQSTACK()
```

### Event 65535.36

#### Metadata

| Field        | Value    |
|--------------|----------|
| Entrypoint   | 0x0318   |
| Data Size    | 14 bytes |
| Instructions | 2        |

```
      00 01 02 03 04 05 06 07  08 09 0A 0B 0C 0D 0E 0F
      -- -- -- -- -- -- -- --  -- -- -- -- -- -- -- --
0310:                          53 F8 FF FF 7F F8 FF FF          S.......
0320: 7F 74 6C 61 32 00                                 .tla2.          
```

#### Opcodes

```
  0: 0x0318 [0x53] WAIT_SCHEDULER_TASK: Wait for scheduler "tla2" with entities [EventEntity, EventEntity]
  1: 0x0325 [0x00] END_REQSTACK()
```

### Event 65535.37

#### Metadata

| Field        | Value    |
|--------------|----------|
| Entrypoint   | 0x0326   |
| Data Size    | 16 bytes |
| Instructions | 2        |

```
      00 01 02 03 04 05 06 07  08 09 0A 0B 0C 0D 0E 0F
      -- -- -- -- -- -- -- --  -- -- -- -- -- -- -- --
0320:                   5B 18  80 F8 FF FF 7F F8 FF FF        [.........
0330: 7F 74 68 6B 30 00                                 .thk0.          
```

#### Opcodes

```
  0: 0x0326 [0x5B] LOAD_EXT_SCHEDULER: Load scheduler "thk0" with entities [EventEntity, EventEntity], work=145*
  1: 0x0335 [0x00] END_REQSTACK()
```

### Event 65535.38

#### Metadata

| Field        | Value    |
|--------------|----------|
| Entrypoint   | 0x0336   |
| Data Size    | 14 bytes |
| Instructions | 2        |

```
      00 01 02 03 04 05 06 07  08 09 0A 0B 0C 0D 0E 0F
      -- -- -- -- -- -- -- --  -- -- -- -- -- -- -- --
0330:                   53 F8  FF FF 7F F8 FF FF 7F 74        S........t
0340: 68 6B 30 00                                       hk0.            
```

#### Opcodes

```
  0: 0x0336 [0x53] WAIT_SCHEDULER_TASK: Wait for scheduler "thk0" with entities [EventEntity, EventEntity]
  1: 0x0343 [0x00] END_REQSTACK()
```

### Event 65535.39

#### Metadata

| Field        | Value    |
|--------------|----------|
| Entrypoint   | 0x0344   |
| Data Size    | 16 bytes |
| Instructions | 2        |

```
      00 01 02 03 04 05 06 07  08 09 0A 0B 0C 0D 0E 0F
      -- -- -- -- -- -- -- --  -- -- -- -- -- -- -- --
0340:             5B 18 80 F8  FF FF 7F F8 FF FF 7F 74      [..........t
0350: 68 6B 31 00                                       hk1.            
```

#### Opcodes

```
  0: 0x0344 [0x5B] LOAD_EXT_SCHEDULER: Load scheduler "thk1" with entities [EventEntity, EventEntity], work=145*
  1: 0x0353 [0x00] END_REQSTACK()
```

### Event 65535.40

#### Metadata

| Field        | Value    |
|--------------|----------|
| Entrypoint   | 0x0354   |
| Data Size    | 14 bytes |
| Instructions | 2        |

```
      00 01 02 03 04 05 06 07  08 09 0A 0B 0C 0D 0E 0F
      -- -- -- -- -- -- -- --  -- -- -- -- -- -- -- --
0350:             53 F8 FF FF  7F F8 FF FF 7F 74 68 6B      S........thk
0360: 31 00                                             1.              
```

#### Opcodes

```
  0: 0x0354 [0x53] WAIT_SCHEDULER_TASK: Wait for scheduler "thk1" with entities [EventEntity, EventEntity]
  1: 0x0361 [0x00] END_REQSTACK()
```

### Event 65535.41

#### Metadata

| Field        | Value    |
|--------------|----------|
| Entrypoint   | 0x0362   |
| Data Size    | 16 bytes |
| Instructions | 2        |

```
      00 01 02 03 04 05 06 07  08 09 0A 0B 0C 0D 0E 0F
      -- -- -- -- -- -- -- --  -- -- -- -- -- -- -- --
0360:       5B 18 80 F8 FF FF  7F F8 FF FF 7F 74 68 6B    [..........thk
0370: 32 00                                             2.              
```

#### Opcodes

```
  0: 0x0362 [0x5B] LOAD_EXT_SCHEDULER: Load scheduler "thk2" with entities [EventEntity, EventEntity], work=145*
  1: 0x0371 [0x00] END_REQSTACK()
```

### Event 65535.42

#### Metadata

| Field        | Value    |
|--------------|----------|
| Entrypoint   | 0x0372   |
| Data Size    | 14 bytes |
| Instructions | 2        |

```
      00 01 02 03 04 05 06 07  08 09 0A 0B 0C 0D 0E 0F
      -- -- -- -- -- -- -- --  -- -- -- -- -- -- -- --
0370:       53 F8 FF FF 7F F8  FF FF 7F 74 68 6B 32 00    S........thk2.
```

#### Opcodes

```
  0: 0x0372 [0x53] WAIT_SCHEDULER_TASK: Wait for scheduler "thk2" with entities [EventEntity, EventEntity]
  1: 0x037F [0x00] END_REQSTACK()
```

### Event 65535.43

#### Metadata

| Field        | Value    |
|--------------|----------|
| Entrypoint   | 0x0380   |
| Data Size    | 16 bytes |
| Instructions | 2        |

```
      00 01 02 03 04 05 06 07  08 09 0A 0B 0C 0D 0E 0F
      -- -- -- -- -- -- -- --  -- -- -- -- -- -- -- --
0380: 5B 18 80 F8 FF FF 7F F8  FF FF 7F 77 61 76 30 00  [..........wav0.
```

#### Opcodes

```
  0: 0x0380 [0x5B] LOAD_EXT_SCHEDULER: Load scheduler "wav0" with entities [EventEntity, EventEntity], work=145*
  1: 0x038F [0x00] END_REQSTACK()
```

### Event 65535.44

#### Metadata

| Field        | Value    |
|--------------|----------|
| Entrypoint   | 0x0390   |
| Data Size    | 14 bytes |
| Instructions | 2        |

```
      00 01 02 03 04 05 06 07  08 09 0A 0B 0C 0D 0E 0F
      -- -- -- -- -- -- -- --  -- -- -- -- -- -- -- --
0390: 53 F8 FF FF 7F F8 FF FF  7F 77 61 76 30 00        S........wav0.  
```

#### Opcodes

```
  0: 0x0390 [0x53] WAIT_SCHEDULER_TASK: Wait for scheduler "wav0" with entities [EventEntity, EventEntity]
  1: 0x039D [0x00] END_REQSTACK()
```

### Event 65535.45

#### Metadata

| Field        | Value    |
|--------------|----------|
| Entrypoint   | 0x039E   |
| Data Size    | 16 bytes |
| Instructions | 2        |

```
      00 01 02 03 04 05 06 07  08 09 0A 0B 0C 0D 0E 0F
      -- -- -- -- -- -- -- --  -- -- -- -- -- -- -- --
0390:                                            5B 18                [.
03A0: 80 F8 FF FF 7F F8 FF FF  7F 70 61 73 30 00        .........pas0.  
```

#### Opcodes

```
  0: 0x039E [0x5B] LOAD_EXT_SCHEDULER: Load scheduler "pas0" with entities [EventEntity, EventEntity], work=145*
  1: 0x03AD [0x00] END_REQSTACK()
```

### Event 65535.46

#### Metadata

| Field        | Value    |
|--------------|----------|
| Entrypoint   | 0x03AE   |
| Data Size    | 14 bytes |
| Instructions | 2        |

```
      00 01 02 03 04 05 06 07  08 09 0A 0B 0C 0D 0E 0F
      -- -- -- -- -- -- -- --  -- -- -- -- -- -- -- --
03A0:                                            53 F8                S.
03B0: FF FF 7F F8 FF FF 7F 70  61 73 30 00              .......pas0.    
```

#### Opcodes

```
  0: 0x03AE [0x53] WAIT_SCHEDULER_TASK: Wait for scheduler "pas0" with entities [EventEntity, EventEntity]
  1: 0x03BB [0x00] END_REQSTACK()
```

### Event 65535.47

#### Metadata

| Field        | Value    |
|--------------|----------|
| Entrypoint   | 0x03BC   |
| Data Size    | 16 bytes |
| Instructions | 2        |

```
      00 01 02 03 04 05 06 07  08 09 0A 0B 0C 0D 0E 0F
      -- -- -- -- -- -- -- --  -- -- -- -- -- -- -- --
03B0:                                      5B 41 80 F8              [A..
03C0: FF FF 7F F8 FF FF 7F 6A  79 61 30 00              .......jya0.    
```

#### Opcodes

```
  0: 0x03BC [0x5B] LOAD_EXT_SCHEDULER: Load scheduler "jya0" with entities [EventEntity, EventEntity], work=146*
  1: 0x03CB [0x00] END_REQSTACK()
```

### Event 65535.48

#### Metadata

| Field        | Value    |
|--------------|----------|
| Entrypoint   | 0x03CC   |
| Data Size    | 14 bytes |
| Instructions | 2        |

```
      00 01 02 03 04 05 06 07  08 09 0A 0B 0C 0D 0E 0F
      -- -- -- -- -- -- -- --  -- -- -- -- -- -- -- --
03C0:                                      53 F8 FF FF              S...
03D0: 7F F8 FF FF 7F 6A 79 61  30 00                    .....jya0.      
```

#### Opcodes

```
  0: 0x03CC [0x53] WAIT_SCHEDULER_TASK: Wait for scheduler "jya0" with entities [EventEntity, EventEntity]
  1: 0x03D9 [0x00] END_REQSTACK()
```

### Event 65535.49

#### Metadata

| Field        | Value    |
|--------------|----------|
| Entrypoint   | 0x03DA   |
| Data Size    | 16 bytes |
| Instructions | 2        |

```
      00 01 02 03 04 05 06 07  08 09 0A 0B 0C 0D 0E 0F
      -- -- -- -- -- -- -- --  -- -- -- -- -- -- -- --
03D0:                                5B 41 80 F8 FF FF            [A....
03E0: 7F F8 FF FF 7F 69 6B 72  30 00                    .....ikr0.      
```

#### Opcodes

```
  0: 0x03DA [0x5B] LOAD_EXT_SCHEDULER: Load scheduler "ikr0" with entities [EventEntity, EventEntity], work=146*
  1: 0x03E9 [0x00] END_REQSTACK()
```

### Event 65535.50

#### Metadata

| Field        | Value    |
|--------------|----------|
| Entrypoint   | 0x03EA   |
| Data Size    | 14 bytes |
| Instructions | 2        |

```
      00 01 02 03 04 05 06 07  08 09 0A 0B 0C 0D 0E 0F
      -- -- -- -- -- -- -- --  -- -- -- -- -- -- -- --
03E0:                                53 F8 FF FF 7F F8            S.....
03F0: FF FF 7F 69 6B 72 30 00                           ...ikr0.        
```

#### Opcodes

```
  0: 0x03EA [0x53] WAIT_SCHEDULER_TASK: Wait for scheduler "ikr0" with entities [EventEntity, EventEntity]
  1: 0x03F7 [0x00] END_REQSTACK()
```

### Event 65535.51

#### Metadata

| Field        | Value    |
|--------------|----------|
| Entrypoint   | 0x03F8   |
| Data Size    | 16 bytes |
| Instructions | 2        |

```
      00 01 02 03 04 05 06 07  08 09 0A 0B 0C 0D 0E 0F
      -- -- -- -- -- -- -- --  -- -- -- -- -- -- -- --
03F0:                          5B 41 80 F8 FF FF 7F F8          [A......
0400: FF FF 7F 69 6B 72 31 00                           ...ikr1.        
```

#### Opcodes

```
  0: 0x03F8 [0x5B] LOAD_EXT_SCHEDULER: Load scheduler "ikr1" with entities [EventEntity, EventEntity], work=146*
  1: 0x0407 [0x00] END_REQSTACK()
```

### Event 65535.52

#### Metadata

| Field        | Value    |
|--------------|----------|
| Entrypoint   | 0x0408   |
| Data Size    | 14 bytes |
| Instructions | 2        |

```
      00 01 02 03 04 05 06 07  08 09 0A 0B 0C 0D 0E 0F
      -- -- -- -- -- -- -- --  -- -- -- -- -- -- -- --
0400:                          53 F8 FF FF 7F F8 FF FF          S.......
0410: 7F 69 6B 72 31 00                                 .ikr1.          
```

#### Opcodes

```
  0: 0x0408 [0x53] WAIT_SCHEDULER_TASK: Wait for scheduler "ikr1" with entities [EventEntity, EventEntity]
  1: 0x0415 [0x00] END_REQSTACK()
```

### Event 65535.53

#### Metadata

| Field        | Value    |
|--------------|----------|
| Entrypoint   | 0x0416   |
| Data Size    | 16 bytes |
| Instructions | 2        |

```
      00 01 02 03 04 05 06 07  08 09 0A 0B 0C 0D 0E 0F
      -- -- -- -- -- -- -- --  -- -- -- -- -- -- -- --
0410:                   5B 41  80 F8 FF FF 7F F8 FF FF        [A........
0420: 7F 69 74 6C 30 00                                 .itl0.          
```

#### Opcodes

```
  0: 0x0416 [0x5B] LOAD_EXT_SCHEDULER: Load scheduler "itl0" with entities [EventEntity, EventEntity], work=146*
  1: 0x0425 [0x00] END_REQSTACK()
```

### Event 65535.54

#### Metadata

| Field        | Value    |
|--------------|----------|
| Entrypoint   | 0x0426   |
| Data Size    | 14 bytes |
| Instructions | 2        |

```
      00 01 02 03 04 05 06 07  08 09 0A 0B 0C 0D 0E 0F
      -- -- -- -- -- -- -- --  -- -- -- -- -- -- -- --
0420:                   53 F8  FF FF 7F F8 FF FF 7F 69        S........i
0430: 74 6C 30 00                                       tl0.            
```

#### Opcodes

```
  0: 0x0426 [0x53] WAIT_SCHEDULER_TASK: Wait for scheduler "itl0" with entities [EventEntity, EventEntity]
  1: 0x0433 [0x00] END_REQSTACK()
```

### Event 65535.55

#### Metadata

| Field        | Value    |
|--------------|----------|
| Entrypoint   | 0x0434   |
| Data Size    | 16 bytes |
| Instructions | 2        |

```
      00 01 02 03 04 05 06 07  08 09 0A 0B 0C 0D 0E 0F
      -- -- -- -- -- -- -- --  -- -- -- -- -- -- -- --
0430:             5B 41 80 F8  FF FF 7F F8 FF FF 7F 69      [A.........i
0440: 74 6C 31 00                                       tl1.            
```

#### Opcodes

```
  0: 0x0434 [0x5B] LOAD_EXT_SCHEDULER: Load scheduler "itl1" with entities [EventEntity, EventEntity], work=146*
  1: 0x0443 [0x00] END_REQSTACK()
```

### Event 65535.56

#### Metadata

| Field        | Value    |
|--------------|----------|
| Entrypoint   | 0x0444   |
| Data Size    | 14 bytes |
| Instructions | 2        |

```
      00 01 02 03 04 05 06 07  08 09 0A 0B 0C 0D 0E 0F
      -- -- -- -- -- -- -- --  -- -- -- -- -- -- -- --
0440:             53 F8 FF FF  7F F8 FF FF 7F 69 74 6C      S........itl
0450: 31 00                                             1.              
```

#### Opcodes

```
  0: 0x0444 [0x53] WAIT_SCHEDULER_TASK: Wait for scheduler "itl1" with entities [EventEntity, EventEntity]
  1: 0x0451 [0x00] END_REQSTACK()
```

### Event 65535.57

#### Metadata

| Field        | Value    |
|--------------|----------|
| Entrypoint   | 0x0452   |
| Data Size    | 16 bytes |
| Instructions | 2        |

```
      00 01 02 03 04 05 06 07  08 09 0A 0B 0C 0D 0E 0F
      -- -- -- -- -- -- -- --  -- -- -- -- -- -- -- --
0450:       5B 41 80 F8 FF FF  7F F8 FF FF 7F 6B 6F 75    [A.........kou
0460: 30 00                                             0.              
```

#### Opcodes

```
  0: 0x0452 [0x5B] LOAD_EXT_SCHEDULER: Load scheduler "kou0" with entities [EventEntity, EventEntity], work=146*
  1: 0x0461 [0x00] END_REQSTACK()
```

### Event 65535.58

#### Metadata

| Field        | Value    |
|--------------|----------|
| Entrypoint   | 0x0462   |
| Data Size    | 14 bytes |
| Instructions | 2        |

```
      00 01 02 03 04 05 06 07  08 09 0A 0B 0C 0D 0E 0F
      -- -- -- -- -- -- -- --  -- -- -- -- -- -- -- --
0460:       53 F8 FF FF 7F F8  FF FF 7F 6B 6F 75 30 00    S........kou0.
```

#### Opcodes

```
  0: 0x0462 [0x53] WAIT_SCHEDULER_TASK: Wait for scheduler "kou0" with entities [EventEntity, EventEntity]
  1: 0x046F [0x00] END_REQSTACK()
```

### Event 65535.59

#### Metadata

| Field        | Value    |
|--------------|----------|
| Entrypoint   | 0x0470   |
| Data Size    | 16 bytes |
| Instructions | 2        |

```
      00 01 02 03 04 05 06 07  08 09 0A 0B 0C 0D 0E 0F
      -- -- -- -- -- -- -- --  -- -- -- -- -- -- -- --
0470: 5B 41 80 F8 FF FF 7F F8  FF FF 7F 6B 6F 75 31 00  [A.........kou1.
```

#### Opcodes

```
  0: 0x0470 [0x5B] LOAD_EXT_SCHEDULER: Load scheduler "kou1" with entities [EventEntity, EventEntity], work=146*
  1: 0x047F [0x00] END_REQSTACK()
```

### Event 65535.60

#### Metadata

| Field        | Value    |
|--------------|----------|
| Entrypoint   | 0x0480   |
| Data Size    | 14 bytes |
| Instructions | 2        |

```
      00 01 02 03 04 05 06 07  08 09 0A 0B 0C 0D 0E 0F
      -- -- -- -- -- -- -- --  -- -- -- -- -- -- -- --
0480: 53 F8 FF FF 7F F8 FF FF  7F 6B 6F 75 31 00        S........kou1.  
```

#### Opcodes

```
  0: 0x0480 [0x53] WAIT_SCHEDULER_TASK: Wait for scheduler "kou1" with entities [EventEntity, EventEntity]
  1: 0x048D [0x00] END_REQSTACK()
```

### Event 65535.61

#### Metadata

| Field        | Value    |
|--------------|----------|
| Entrypoint   | 0x048E   |
| Data Size    | 16 bytes |
| Instructions | 2        |

```
      00 01 02 03 04 05 06 07  08 09 0A 0B 0C 0D 0E 0F
      -- -- -- -- -- -- -- --  -- -- -- -- -- -- -- --
0480:                                            5B 41                [A
0490: 80 F8 FF FF 7F F8 FF FF  7F 6C 61 75 30 00        .........lau0.  
```

#### Opcodes

```
  0: 0x048E [0x5B] LOAD_EXT_SCHEDULER: Load scheduler "lau0" with entities [EventEntity, EventEntity], work=146*
  1: 0x049D [0x00] END_REQSTACK()
```

### Event 65535.62

#### Metadata

| Field        | Value    |
|--------------|----------|
| Entrypoint   | 0x049E   |
| Data Size    | 14 bytes |
| Instructions | 2        |

```
      00 01 02 03 04 05 06 07  08 09 0A 0B 0C 0D 0E 0F
      -- -- -- -- -- -- -- --  -- -- -- -- -- -- -- --
0490:                                            53 F8                S.
04A0: FF FF 7F F8 FF FF 7F 6C  61 75 30 00              .......lau0.    
```

#### Opcodes

```
  0: 0x049E [0x53] WAIT_SCHEDULER_TASK: Wait for scheduler "lau0" with entities [EventEntity, EventEntity]
  1: 0x04AB [0x00] END_REQSTACK()
```

### Event 65535.63

#### Metadata

| Field        | Value    |
|--------------|----------|
| Entrypoint   | 0x04AC   |
| Data Size    | 16 bytes |
| Instructions | 2        |

```
      00 01 02 03 04 05 06 07  08 09 0A 0B 0C 0D 0E 0F
      -- -- -- -- -- -- -- --  -- -- -- -- -- -- -- --
04A0:                                      5B 41 80 F8              [A..
04B0: FF FF 7F F8 FF FF 7F 6C  61 75 31 00              .......lau1.    
```

#### Opcodes

```
  0: 0x04AC [0x5B] LOAD_EXT_SCHEDULER: Load scheduler "lau1" with entities [EventEntity, EventEntity], work=146*
  1: 0x04BB [0x00] END_REQSTACK()
```

### Event 65535.64

#### Metadata

| Field        | Value    |
|--------------|----------|
| Entrypoint   | 0x04BC   |
| Data Size    | 14 bytes |
| Instructions | 2        |

```
      00 01 02 03 04 05 06 07  08 09 0A 0B 0C 0D 0E 0F
      -- -- -- -- -- -- -- --  -- -- -- -- -- -- -- --
04B0:                                      53 F8 FF FF              S...
04C0: 7F F8 FF FF 7F 6C 61 75  31 00                    .....lau1.      
```

#### Opcodes

```
  0: 0x04BC [0x53] WAIT_SCHEDULER_TASK: Wait for scheduler "lau1" with entities [EventEntity, EventEntity]
  1: 0x04C9 [0x00] END_REQSTACK()
```

### Event 65535.65

#### Metadata

| Field        | Value    |
|--------------|----------|
| Entrypoint   | 0x04CA   |
| Data Size    | 16 bytes |
| Instructions | 2        |

```
      00 01 02 03 04 05 06 07  08 09 0A 0B 0C 0D 0E 0F
      -- -- -- -- -- -- -- --  -- -- -- -- -- -- -- --
04C0:                                5B 09 80 F8 FF FF            [.....
04D0: 7F F8 FF FF 7F 6F 74 69  30 00                    .....oti0.      
```

#### Opcodes

```
  0: 0x04CA [0x5B] LOAD_EXT_SCHEDULER: Load scheduler "oti0" with entities [EventEntity, EventEntity], work=147*
  1: 0x04D9 [0x00] END_REQSTACK()
```

### Event 65535.66

#### Metadata

| Field        | Value    |
|--------------|----------|
| Entrypoint   | 0x04DA   |
| Data Size    | 14 bytes |
| Instructions | 2        |

```
      00 01 02 03 04 05 06 07  08 09 0A 0B 0C 0D 0E 0F
      -- -- -- -- -- -- -- --  -- -- -- -- -- -- -- --
04D0:                                53 F8 FF FF 7F F8            S.....
04E0: FF FF 7F 6F 74 69 30 00                           ...oti0.        
```

#### Opcodes

```
  0: 0x04DA [0x53] WAIT_SCHEDULER_TASK: Wait for scheduler "oti0" with entities [EventEntity, EventEntity]
  1: 0x04E7 [0x00] END_REQSTACK()
```

### Event 65535.67

#### Metadata

| Field        | Value    |
|--------------|----------|
| Entrypoint   | 0x04E8   |
| Data Size    | 16 bytes |
| Instructions | 2        |

```
      00 01 02 03 04 05 06 07  08 09 0A 0B 0C 0D 0E 0F
      -- -- -- -- -- -- -- --  -- -- -- -- -- -- -- --
04E0:                          5B 09 80 F8 FF FF 7F F8          [.......
04F0: FF FF 7F 6F 74 69 31 00                           ...oti1.        
```

#### Opcodes

```
  0: 0x04E8 [0x5B] LOAD_EXT_SCHEDULER: Load scheduler "oti1" with entities [EventEntity, EventEntity], work=147*
  1: 0x04F7 [0x00] END_REQSTACK()
```

### Event 65535.68

#### Metadata

| Field        | Value    |
|--------------|----------|
| Entrypoint   | 0x04F8   |
| Data Size    | 14 bytes |
| Instructions | 2        |

```
      00 01 02 03 04 05 06 07  08 09 0A 0B 0C 0D 0E 0F
      -- -- -- -- -- -- -- --  -- -- -- -- -- -- -- --
04F0:                          53 F8 FF FF 7F F8 FF FF          S.......
0500: 7F 6F 74 69 31 00                                 .oti1.          
```

#### Opcodes

```
  0: 0x04F8 [0x53] WAIT_SCHEDULER_TASK: Wait for scheduler "oti1" with entities [EventEntity, EventEntity]
  1: 0x0505 [0x00] END_REQSTACK()
```

### Event 65535.69

#### Metadata

| Field        | Value    |
|--------------|----------|
| Entrypoint   | 0x0506   |
| Data Size    | 16 bytes |
| Instructions | 2        |

```
      00 01 02 03 04 05 06 07  08 09 0A 0B 0C 0D 0E 0F
      -- -- -- -- -- -- -- --  -- -- -- -- -- -- -- --
0500:                   5B 09  80 F8 FF FF 7F F8 FF FF        [.........
0510: 7F 72 6F 75 30 00                                 .rou0.          
```

#### Opcodes

```
  0: 0x0506 [0x5B] LOAD_EXT_SCHEDULER: Load scheduler "rou0" with entities [EventEntity, EventEntity], work=147*
  1: 0x0515 [0x00] END_REQSTACK()
```

### Event 65535.70

#### Metadata

| Field        | Value    |
|--------------|----------|
| Entrypoint   | 0x0516   |
| Data Size    | 14 bytes |
| Instructions | 2        |

```
      00 01 02 03 04 05 06 07  08 09 0A 0B 0C 0D 0E 0F
      -- -- -- -- -- -- -- --  -- -- -- -- -- -- -- --
0510:                   53 F8  FF FF 7F F8 FF FF 7F 72        S........r
0520: 6F 75 30 00                                       ou0.            
```

#### Opcodes

```
  0: 0x0516 [0x53] WAIT_SCHEDULER_TASK: Wait for scheduler "rou0" with entities [EventEntity, EventEntity]
  1: 0x0523 [0x00] END_REQSTACK()
```

### Event 65535.71

#### Metadata

| Field        | Value    |
|--------------|----------|
| Entrypoint   | 0x0524   |
| Data Size    | 16 bytes |
| Instructions | 2        |

```
      00 01 02 03 04 05 06 07  08 09 0A 0B 0C 0D 0E 0F
      -- -- -- -- -- -- -- --  -- -- -- -- -- -- -- --
0520:             5B 09 80 F8  FF FF 7F F8 FF FF 7F 72      [..........r
0530: 6F 75 31 00                                       ou1.            
```

#### Opcodes

```
  0: 0x0524 [0x5B] LOAD_EXT_SCHEDULER: Load scheduler "rou1" with entities [EventEntity, EventEntity], work=147*
  1: 0x0533 [0x00] END_REQSTACK()
```

### Event 65535.72

#### Metadata

| Field        | Value    |
|--------------|----------|
| Entrypoint   | 0x0534   |
| Data Size    | 14 bytes |
| Instructions | 2        |

```
      00 01 02 03 04 05 06 07  08 09 0A 0B 0C 0D 0E 0F
      -- -- -- -- -- -- -- --  -- -- -- -- -- -- -- --
0530:             53 F8 FF FF  7F F8 FF FF 7F 72 6F 75      S........rou
0540: 31 00                                             1.              
```

#### Opcodes

```
  0: 0x0534 [0x53] WAIT_SCHEDULER_TASK: Wait for scheduler "rou1" with entities [EventEntity, EventEntity]
  1: 0x0541 [0x00] END_REQSTACK()
```

### Event 65535.73

#### Metadata

| Field        | Value    |
|--------------|----------|
| Entrypoint   | 0x0542   |
| Data Size    | 16 bytes |
| Instructions | 2        |

```
      00 01 02 03 04 05 06 07  08 09 0A 0B 0C 0D 0E 0F
      -- -- -- -- -- -- -- --  -- -- -- -- -- -- -- --
0540:       5B 09 80 F8 FF FF  7F F8 FF FF 7F 74 6C 62    [..........tlb
0550: 30 00                                             0.              
```

#### Opcodes

```
  0: 0x0542 [0x5B] LOAD_EXT_SCHEDULER: Load scheduler "tlb0" with entities [EventEntity, EventEntity], work=147*
  1: 0x0551 [0x00] END_REQSTACK()
```

### Event 65535.74

#### Metadata

| Field        | Value    |
|--------------|----------|
| Entrypoint   | 0x0552   |
| Data Size    | 14 bytes |
| Instructions | 2        |

```
      00 01 02 03 04 05 06 07  08 09 0A 0B 0C 0D 0E 0F
      -- -- -- -- -- -- -- --  -- -- -- -- -- -- -- --
0550:       53 F8 FF FF 7F F8  FF FF 7F 74 6C 62 30 00    S........tlb0.
```

#### Opcodes

```
  0: 0x0552 [0x53] WAIT_SCHEDULER_TASK: Wait for scheduler "tlb0" with entities [EventEntity, EventEntity]
  1: 0x055F [0x00] END_REQSTACK()
```

### Event 65535.75

#### Metadata

| Field        | Value    |
|--------------|----------|
| Entrypoint   | 0x0560   |
| Data Size    | 16 bytes |
| Instructions | 2        |

```
      00 01 02 03 04 05 06 07  08 09 0A 0B 0C 0D 0E 0F
      -- -- -- -- -- -- -- --  -- -- -- -- -- -- -- --
0560: 5B 09 80 F8 FF FF 7F F8  FF FF 7F 74 6C 62 31 00  [..........tlb1.
```

#### Opcodes

```
  0: 0x0560 [0x5B] LOAD_EXT_SCHEDULER: Load scheduler "tlb1" with entities [EventEntity, EventEntity], work=147*
  1: 0x056F [0x00] END_REQSTACK()
```

### Event 65535.76

#### Metadata

| Field        | Value    |
|--------------|----------|
| Entrypoint   | 0x0570   |
| Data Size    | 14 bytes |
| Instructions | 2        |

```
      00 01 02 03 04 05 06 07  08 09 0A 0B 0C 0D 0E 0F
      -- -- -- -- -- -- -- --  -- -- -- -- -- -- -- --
0570: 53 F8 FF FF 7F F8 FF FF  7F 74 6C 62 31 00        S........tlb1.  
```

#### Opcodes

```
  0: 0x0570 [0x53] WAIT_SCHEDULER_TASK: Wait for scheduler "tlb1" with entities [EventEntity, EventEntity]
  1: 0x057D [0x00] END_REQSTACK()
```

### Event 65535.77

#### Metadata

| Field        | Value    |
|--------------|----------|
| Entrypoint   | 0x057E   |
| Data Size    | 16 bytes |
| Instructions | 2        |

```
      00 01 02 03 04 05 06 07  08 09 0A 0B 0C 0D 0E 0F
      -- -- -- -- -- -- -- --  -- -- -- -- -- -- -- --
0570:                                            5B 09                [.
0580: 80 F8 FF FF 7F F8 FF FF  7F 74 6C 63 30 00        .........tlc0.  
```

#### Opcodes

```
  0: 0x057E [0x5B] LOAD_EXT_SCHEDULER: Load scheduler "tlc0" with entities [EventEntity, EventEntity], work=147*
  1: 0x058D [0x00] END_REQSTACK()
```

### Event 65535.78

#### Metadata

| Field        | Value    |
|--------------|----------|
| Entrypoint   | 0x058E   |
| Data Size    | 14 bytes |
| Instructions | 2        |

```
      00 01 02 03 04 05 06 07  08 09 0A 0B 0C 0D 0E 0F
      -- -- -- -- -- -- -- --  -- -- -- -- -- -- -- --
0580:                                            53 F8                S.
0590: FF FF 7F F8 FF FF 7F 74  6C 63 30 00              .......tlc0.    
```

#### Opcodes

```
  0: 0x058E [0x53] WAIT_SCHEDULER_TASK: Wait for scheduler "tlc0" with entities [EventEntity, EventEntity]
  1: 0x059B [0x00] END_REQSTACK()
```

### Event 65535.79

#### Metadata

| Field        | Value    |
|--------------|----------|
| Entrypoint   | 0x059C   |
| Data Size    | 16 bytes |
| Instructions | 2        |

```
      00 01 02 03 04 05 06 07  08 09 0A 0B 0C 0D 0E 0F
      -- -- -- -- -- -- -- --  -- -- -- -- -- -- -- --
0590:                                      5B 09 80 F8              [...
05A0: FF FF 7F F8 FF FF 7F 73  69 74 30 00              .......sit0.    
```

#### Opcodes

```
  0: 0x059C [0x5B] LOAD_EXT_SCHEDULER: Load scheduler "sit0" with entities [EventEntity, EventEntity], work=147*
  1: 0x05AB [0x00] END_REQSTACK()
```

### Event 65535.80

#### Metadata

| Field        | Value    |
|--------------|----------|
| Entrypoint   | 0x05AC   |
| Data Size    | 14 bytes |
| Instructions | 2        |

```
      00 01 02 03 04 05 06 07  08 09 0A 0B 0C 0D 0E 0F
      -- -- -- -- -- -- -- --  -- -- -- -- -- -- -- --
05A0:                                      53 F8 FF FF              S...
05B0: 7F F8 FF FF 7F 73 69 74  30 00                    .....sit0.      
```

#### Opcodes

```
  0: 0x05AC [0x53] WAIT_SCHEDULER_TASK: Wait for scheduler "sit0" with entities [EventEntity, EventEntity]
  1: 0x05B9 [0x00] END_REQSTACK()
```

### Event 65535.81

#### Metadata

| Field        | Value    |
|--------------|----------|
| Entrypoint   | 0x05BA   |
| Data Size    | 16 bytes |
| Instructions | 2        |

```
      00 01 02 03 04 05 06 07  08 09 0A 0B 0C 0D 0E 0F
      -- -- -- -- -- -- -- --  -- -- -- -- -- -- -- --
05B0:                                5B 09 80 F8 FF FF            [.....
05C0: 7F F8 FF FF 7F 73 69 74  31 00                    .....sit1.      
```

#### Opcodes

```
  0: 0x05BA [0x5B] LOAD_EXT_SCHEDULER: Load scheduler "sit1" with entities [EventEntity, EventEntity], work=147*
  1: 0x05C9 [0x00] END_REQSTACK()
```

### Event 65535.82

#### Metadata

| Field        | Value    |
|--------------|----------|
| Entrypoint   | 0x05CA   |
| Data Size    | 14 bytes |
| Instructions | 2        |

```
      00 01 02 03 04 05 06 07  08 09 0A 0B 0C 0D 0E 0F
      -- -- -- -- -- -- -- --  -- -- -- -- -- -- -- --
05C0:                                53 F8 FF FF 7F F8            S.....
05D0: FF FF 7F 73 69 74 31 00                           ...sit1.        
```

#### Opcodes

```
  0: 0x05CA [0x53] WAIT_SCHEDULER_TASK: Wait for scheduler "sit1" with entities [EventEntity, EventEntity]
  1: 0x05D7 [0x00] END_REQSTACK()
```

### Event 65535.83

#### Metadata

| Field        | Value    |
|--------------|----------|
| Entrypoint   | 0x05D8   |
| Data Size    | 16 bytes |
| Instructions | 2        |

```
      00 01 02 03 04 05 06 07  08 09 0A 0B 0C 0D 0E 0F
      -- -- -- -- -- -- -- --  -- -- -- -- -- -- -- --
05D0:                          5B 42 80 F8 FF FF 7F F8          [B......
05E0: FF FF 7F 75 74 75 30 00                           ...utu0.        
```

#### Opcodes

```
  0: 0x05D8 [0x5B] LOAD_EXT_SCHEDULER: Load scheduler "utu0" with entities [EventEntity, EventEntity], work=148*
  1: 0x05E7 [0x00] END_REQSTACK()
```

### Event 65535.84

#### Metadata

| Field        | Value    |
|--------------|----------|
| Entrypoint   | 0x05E8   |
| Data Size    | 14 bytes |
| Instructions | 2        |

```
      00 01 02 03 04 05 06 07  08 09 0A 0B 0C 0D 0E 0F
      -- -- -- -- -- -- -- --  -- -- -- -- -- -- -- --
05E0:                          53 F8 FF FF 7F F8 FF FF          S.......
05F0: 7F 75 74 75 30 00                                 .utu0.          
```

#### Opcodes

```
  0: 0x05E8 [0x53] WAIT_SCHEDULER_TASK: Wait for scheduler "utu0" with entities [EventEntity, EventEntity]
  1: 0x05F5 [0x00] END_REQSTACK()
```

### Event 65535.85

#### Metadata

| Field        | Value    |
|--------------|----------|
| Entrypoint   | 0x05F6   |
| Data Size    | 16 bytes |
| Instructions | 2        |

```
      00 01 02 03 04 05 06 07  08 09 0A 0B 0C 0D 0E 0F
      -- -- -- -- -- -- -- --  -- -- -- -- -- -- -- --
05F0:                   5B 42  80 F8 FF FF 7F F8 FF FF        [B........
0600: 7F 75 74 75 31 00                                 .utu1.          
```

#### Opcodes

```
  0: 0x05F6 [0x5B] LOAD_EXT_SCHEDULER: Load scheduler "utu1" with entities [EventEntity, EventEntity], work=148*
  1: 0x0605 [0x00] END_REQSTACK()
```

### Event 65535.86

#### Metadata

| Field        | Value    |
|--------------|----------|
| Entrypoint   | 0x0606   |
| Data Size    | 14 bytes |
| Instructions | 2        |

```
      00 01 02 03 04 05 06 07  08 09 0A 0B 0C 0D 0E 0F
      -- -- -- -- -- -- -- --  -- -- -- -- -- -- -- --
0600:                   53 F8  FF FF 7F F8 FF FF 7F 75        S........u
0610: 74 75 31 00                                       tu1.            
```

#### Opcodes

```
  0: 0x0606 [0x53] WAIT_SCHEDULER_TASK: Wait for scheduler "utu1" with entities [EventEntity, EventEntity]
  1: 0x0613 [0x00] END_REQSTACK()
```

### Event 65535.87

#### Metadata

| Field        | Value    |
|--------------|----------|
| Entrypoint   | 0x0614   |
| Data Size    | 57 bytes |
| Instructions | 5        |

```
      00 01 02 03 04 05 06 07  08 09 0A 0B 0C 0D 0E 0F
      -- -- -- -- -- -- -- --  -- -- -- -- -- -- -- --
0610:             5B 42 80 F8  FF FF 7F F8 FF FF 7F 75      [B.........u
0620: 74 75 30 53 F8 FF FF 7F  F8 FF FF 7F 75 74 75 30  tu0S........utu0
0630: 5B 42 80 F8 FF FF 7F F8  FF FF 7F 75 74 75 31 53  [B.........utu1S
0640: F8 FF FF 7F F8 FF FF 7F  75 74 75 31 00           ........utu1.   
```

#### Opcodes

```
  0: 0x0614 [0x5B] LOAD_EXT_SCHEDULER: Load scheduler "utu0" with entities [EventEntity, EventEntity], work=148*
  1: 0x0623 [0x53] WAIT_SCHEDULER_TASK: Wait for scheduler "utu0" with entities [EventEntity, EventEntity]
  2: 0x0630 [0x5B] LOAD_EXT_SCHEDULER: Load scheduler "utu1" with entities [EventEntity, EventEntity], work=148*
  3: 0x063F [0x53] WAIT_SCHEDULER_TASK: Wait for scheduler "utu1" with entities [EventEntity, EventEntity]
  4: 0x064C [0x00] END_REQSTACK()
```

### Event 681

#### Metadata

| Field        | Value   |
|--------------|---------|
| Entrypoint   | 0x064D  |
| Data Size    | 7 bytes |
| Instructions | 2       |

```
      00 01 02 03 04 05 06 07  08 09 0A 0B 0C 0D 0E 0F
      -- -- -- -- -- -- -- --  -- -- -- -- -- -- -- --
0640:                                         92 01 F8               ...
0650: FF FF 7F 00                                       ....            
```

#### Opcodes

```
  0: 0x064D [0x92] EventEntity->Render.Flags3 ^= 0x01
  1: 0x0653 [0x00] END_REQSTACK()
```

### Event 65535.88

#### Metadata

| Field        | Value    |
|--------------|----------|
| Entrypoint   | 0x0654   |
| Data Size    | 35 bytes |
| Instructions | 9        |

```
      00 01 02 03 04 05 06 07  08 09 0A 0B 0C 0D 0E 0F
      -- -- -- -- -- -- -- --  -- -- -- -- -- -- -- --
0650:             32 04 80 1F  00 43 80 44 80 21 80 1F      2....C.D.!..
0660: 01 1F 00 45 80 46 80 2D  80 1F 01 1F 00 47 80 48  ...E.F.-.....G.H
0670: 80 21 80 1F 01 6F 00                              .!...o.         
```

#### Opcodes

```
  0: 0x0654 [0x32] ExtData[1]->MainSpeed = 40* * 0.1
  1: 0x0657 [0x1F] MOVE_ENTITY: EventEntity moves to X=50.084*, Z=-20.277*, Y=-0.051*
  2: 0x065F [0x1F] MOVE_ENTITY: Update entity position (mode=1)
  3: 0x0661 [0x1F] MOVE_ENTITY: EventEntity moves to X=52.603*, Z=-26.394*, Y=-0.059*
  4: 0x0669 [0x1F] MOVE_ENTITY: Update entity position (mode=1)
  5: 0x066B [0x1F] MOVE_ENTITY: EventEntity moves to X=52.866*, Z=-29.783*, Y=-0.051*
  6: 0x0673 [0x1F] MOVE_ENTITY: Update entity position (mode=1)
  7: 0x0675 [0x6F] WAIT_FRAME_DELAY: Yield until WaitTime reaches zero
  8: 0x0676 [0x00] END_REQSTACK()
```

### Event 65535.89

#### Metadata

| Field        | Value    |
|--------------|----------|
| Entrypoint   | 0x0677   |
| Data Size    | 15 bytes |
| Instructions | 5        |

```
      00 01 02 03 04 05 06 07  08 09 0A 0B 0C 0D 0E 0F
      -- -- -- -- -- -- -- --  -- -- -- -- -- -- -- --
0670:                      32  23 80 1F 00 49 80 4A 80         2#...I.J.
0680: 21 80 1F 01 6F 00                                 !...o.          
```

#### Opcodes

```
  0: 0x0677 [0x32] ExtData[1]->MainSpeed = 13* * 0.1
  1: 0x067A [0x1F] MOVE_ENTITY: EventEntity moves to X=52.841*, Z=-31.079*, Y=-0.051*
  2: 0x0682 [0x1F] MOVE_ENTITY: Update entity position (mode=1)
  3: 0x0684 [0x6F] WAIT_FRAME_DELAY: Yield until WaitTime reaches zero
  4: 0x0685 [0x00] END_REQSTACK()
```

### Event 65535.90

#### Metadata

| Field        | Value    |
|--------------|----------|
| Entrypoint   | 0x0686   |
| Data Size    | 15 bytes |
| Instructions | 5        |

```
      00 01 02 03 04 05 06 07  08 09 0A 0B 0C 0D 0E 0F
      -- -- -- -- -- -- -- --  -- -- -- -- -- -- -- --
0680:                   32 23  80 1F 00 4B 80 4C 80 21        2#...K.L.!
0690: 80 1F 01 6F 00                                    ...o.           
```

#### Opcodes

```
  0: 0x0686 [0x32] ExtData[1]->MainSpeed = 13* * 0.1
  1: 0x0689 [0x1F] MOVE_ENTITY: EventEntity moves to X=53.245*, Z=-31.695*, Y=-0.051*
  2: 0x0691 [0x1F] MOVE_ENTITY: Update entity position (mode=1)
  3: 0x0693 [0x6F] WAIT_FRAME_DELAY: Yield until WaitTime reaches zero
  4: 0x0694 [0x00] END_REQSTACK()
```
