# 17735796 - Ren

## Common Data

| Field            | Value                  |
|------------------|------------------------|
| Zone             | Bastok Mines (ID: 234) |
| Block Size       | 196 bytes              |
| Total Events     | 5                      |
| References Count | 14                     |

## List of Events

| Event ID                 | Entrypoint   |   Size |   Instructions |
|--------------------------|--------------|--------|----------------|
| [65535](#event-65535)    | 0x0000       |      1 |              1 |
| [186](#event-186)        | 0x0001       |     33 |              6 |
| [65535.1](#event-655351) | 0x0022       |     32 |              7 |
| [65535.2](#event-655352) | 0x0042       |     20 |              6 |
| [65535.3](#event-655353) | 0x0056       |     15 |              5 |

## DAT References (imed_data)

|   Index | Hex Value   |   Dec Value |
|---------|-------------|-------------|
|       0 | 0x0000      |           0 |
|       1 | 0x0001      |           1 |
|       2 | 0x10541     |       66881 |
|       3 | 0x25F3      |        9715 |
|       4 | 0x1B57      |        6999 |
|       5 | 0x0DB0      |        3504 |
|       6 | 0x000A      |          10 |
|       7 | 0x1097A     |       67962 |
|       8 | 0x2B05      |       11013 |
|       9 | 0x1104E     |       69710 |
|      10 | 0x21BA      |        8634 |
|      11 | 0x1B58      |        7000 |
|      12 | 0x11148     |       69960 |
|      13 | 0x19D2      |        6610 |

## Events

### Event 65535

#### Metadata

| Field        | Value   |
|--------------|---------|
| Entrypoint   | 0x0000  |
| Data Size    | 1 bytes |
| Instructions | 1       |

```
      00 01 02 03 04 05 06 07  08 09 0A 0B 0C 0D 0E 0F
      -- -- -- -- -- -- -- --  -- -- -- -- -- -- -- --
0000: 00                                                .               
```

#### Opcodes

```
  0: 0x0000 [0x00] END_REQSTACK()
```

### Event 186

#### Metadata

| Field        | Value    |
|--------------|----------|
| Entrypoint   | 0x0001   |
| Data Size    | 33 bytes |
| Instructions | 6        |

```
      00 01 02 03 04 05 06 07  08 09 0A 0B 0C 0D 0E 0F
      -- -- -- -- -- -- -- --  -- -- -- -- -- -- -- --
0000:    22 00 2F 00 F8 FF FF  7F 92 01 F8 FF FF 7F 6C   "./...........l
0010: F8 FF FF 7F 00 80 01 80  37 02 80 03 80 04 80 05  ........7.......
0020: 80 00                                             ..              
```

#### Opcodes

```
  0: 0x0001 [0x22] ENTITY_HIDE_FLAG(enabled=0x00)
  1: 0x0003 [0x2F] EventEntity->Render.Flags0 &= ~0x80000 // Bit 19
  2: 0x0009 [0x92] EventEntity->Render.Flags3 ^= 0x01
  3: 0x000F [0x6C] FADE_ENTITY_COLOR(entity_id=EventEntity, end_alpha=0*, fade_time=1*)
  4: 0x0018 [0x37] UPDATE_EVENT_POSITION_AND_DIR: x=66.881*, z=9.715*, y=6.999*, direction=308.0°*
  5: 0x0021 [0x00] END_REQSTACK()
```

### Event 65535.1

#### Metadata

| Field        | Value    |
|--------------|----------|
| Entrypoint   | 0x0022   |
| Data Size    | 32 bytes |
| Instructions | 7        |

```
      00 01 02 03 04 05 06 07  08 09 0A 0B 0C 0D 0E 0F
      -- -- -- -- -- -- -- --  -- -- -- -- -- -- -- --
0020:       27 10 75 A0 0E 01  02 79 00 F8 FF FF 7F F0    '.u....y......
0030: FF FF 7F 32 06 80 1F 00  07 80 08 80 04 80 1F 01  ...2............
0040: 6F 00                                             o.              
```

#### Opcodes

```
  0: 0x0022 [0x27] REQ_SET(priority=0x10, entity_id=Unnamed NPC (ID: 17735797/0x010EA075), tag_num=0x02)
  1: 0x0029 [0x79] EventEntity looks at LocalPlayer (Basic look)
  2: 0x0033 [0x32] ExtData[1]->MainSpeed = 10* * 0.1
  3: 0x0036 [0x1F] MOVE_ENTITY: EventEntity moves to X=67.962*, Z=11.013*, Y=6.999*
  4: 0x003E [0x1F] MOVE_ENTITY: Update entity position (mode=1)
  5: 0x0040 [0x6F] WAIT_FRAME_DELAY: Yield until WaitTime reaches zero
  6: 0x0041 [0x00] END_REQSTACK()
```

### Event 65535.2

#### Metadata

| Field        | Value    |
|--------------|----------|
| Entrypoint   | 0x0042   |
| Data Size    | 20 bytes |
| Instructions | 6        |

```
      00 01 02 03 04 05 06 07  08 09 0A 0B 0C 0D 0E 0F
      -- -- -- -- -- -- -- --  -- -- -- -- -- -- -- --
0040:       7B F8 FF FF 7F 32  06 80 1F 00 09 80 0A 80    {....2........
0050: 0B 80 1F 01 6F 00                                 ....o.          
```

#### Opcodes

```
  0: 0x0042 [0x7B] EventEntity stops talking
  1: 0x0047 [0x32] ExtData[1]->MainSpeed = 10* * 0.1
  2: 0x004A [0x1F] MOVE_ENTITY: EventEntity moves to X=69.710*, Z=8.634*, Y=7.000*
  3: 0x0052 [0x1F] MOVE_ENTITY: Update entity position (mode=1)
  4: 0x0054 [0x6F] WAIT_FRAME_DELAY: Yield until WaitTime reaches zero
  5: 0x0055 [0x00] END_REQSTACK()
```

### Event 65535.3

#### Metadata

| Field        | Value    |
|--------------|----------|
| Entrypoint   | 0x0056   |
| Data Size    | 15 bytes |
| Instructions | 5        |

```
      00 01 02 03 04 05 06 07  08 09 0A 0B 0C 0D 0E 0F
      -- -- -- -- -- -- -- --  -- -- -- -- -- -- -- --
0050:                   32 06  80 1F 00 0C 80 0D 80 04        2.........
0060: 80 1F 01 6F 00                                    ...o.           
```

#### Opcodes

```
  0: 0x0056 [0x32] ExtData[1]->MainSpeed = 10* * 0.1
  1: 0x0059 [0x1F] MOVE_ENTITY: EventEntity moves to X=69.960*, Z=6.610*, Y=6.999*
  2: 0x0061 [0x1F] MOVE_ENTITY: Update entity position (mode=1)
  3: 0x0063 [0x6F] WAIT_FRAME_DELAY: Yield until WaitTime reaches zero
  4: 0x0064 [0x00] END_REQSTACK()
```
