# 17735746 - Galdeo

## Common Data

| Field            | Value                  |
|------------------|------------------------|
| Zone             | Bastok Mines (ID: 234) |
| Block Size       | 216 bytes              |
| Total Events     | 2                      |
| References Count | 12                     |

## List of Events

| Event ID              | Entrypoint   |   Size |   Instructions |
|-----------------------|--------------|--------|----------------|
| [65535](#event-65535) | 0x0000       |      1 |              1 |
| [539](#event-539)     | 0x0001       |    142 |             32 |

## DAT References (imed_data)

|   Index | Hex Value   |   Dec Value |
|---------|-------------|-------------|
|       0 | 0x370E      |       14094 |
|       1 | 0x0001      |           1 |
|       2 | 0x0000      |           0 |
|       3 | 0x001E      |          30 |
|       4 | 0x3788      |       14216 |
|       5 | 0x0006      |           6 |
|       6 | 0x3789      |       14217 |
|       7 | 0x0045      |          69 |
|       8 | 0x3777      |       14199 |
|       9 | 0x003C      |          60 |
|      10 | 0x3778      |       14200 |
|      11 | 0x3779      |       14201 |

## String References

- **14094**: Ask if this person is the chick's owner? [Yes./No.]
- **14199**: You've got my chocobo!? Are you serious?
- **14200**: It all happened in West Ronfaure... Just when I was thinking how beautiful the day was, thick fog seemed to appear out of nowhere and hid the little chocobo from my sight!
- **14201**: Thank you so much for finding him! As thanks, let me teach you a story I often tell my chocobo...
- **14216**: You say you've got my chocobo?
- **14217**: That can't be true. I would never take my eyes off my chocobo while we're on a walk.

## Events

### Event 65535

#### Metadata

| Field        | Value   |
|--------------|---------|
| Entrypoint   | 0x0000  |
| Data Size    | 1 bytes |
| Instructions | 1       |

```
      00 01 02 03 04 05 06 07  08 09 0A 0B 0C 0D 0E 0F
      -- -- -- -- -- -- -- --  -- -- -- -- -- -- -- --
0000: 00                                                .               
```

#### Opcodes

```
  0: 0x0000 [0x00] END_REQSTACK()
```

### Event 539

#### Metadata

| Field        | Value     |
|--------------|-----------|
| Entrypoint   | 0x0001    |
| Data Size    | 142 bytes |
| Instructions | 32        |

```
      00 01 02 03 04 05 06 07  08 09 0A 0B 0C 0D 0E 0F
      -- -- -- -- -- -- -- --  -- -- -- -- -- -- -- --
0000:    42 24 00 80 01 80 02  80 25 02 00 10 02 80 00   B$......%......
0010: 8D 00 1E F0 FF FF 7F 1C  03 80 03 01 10 01 80 43  ...............C
0020: 00 43 01 02 02 10 02 80  00 42 00 1D 04 80 23 6E  .C.......B....#n
0030: 42 A0 0E 01 05 80 99 42  A0 0E 01 1D 06 80 23 01  B......B......#.
0040: 8A 00 66 07 80 F8 FF FF  7F F8 FF FF 7F 74 6C 6B  ..f..........tlk
0050: 30 1D 08 80 23 66 07 80  F8 FF FF 7F F8 FF FF 7F  0...#f..........
0060: 74 6C 6B 31 1C 09 80 6E  42 A0 0E 01 05 80 99 42  tlk1...nB......B
0070: A0 0E 01 1D 0A 80 23 66  07 80 F8 FF FF 7F F8 FF  ......#f........
0080: FF 7F 74 6C 6B 30 1D 0B  80 23 01 8D 00 21 00     ..tlk0...#...!. 
```

#### Opcodes

```
  0: 0x0001 [0x42] SET_CLI_EVENT_CANCEL_DATA()
  1: 0x0002 [0x24] CREATE_DIALOG(message_id=14094*, default_option=1*, option_flags=0*)
    → "Ask if this person is the chick's owner? [Yes./No.]"
  2: 0x0009 [0x25] WAIT_DIALOG_SELECT()
  3: 0x000A [0x02] IF !(Work_Zone[0] == 0*) GOTO 0x008D
  4: 0x0012 [0x1E] EventEntity looks at LocalPlayer and starts talking
  5: 0x0017 [0x1C] WAIT(30* ticks)
  6: 0x001A [0x03] Work_Zone[1] = 1*
  7: 0x001F [0x43] SEND_EVENT_UPDATE: Send pending tag to server (packet 0x005B)
  8: 0x0021 [0x43] SEND_EVENT_UPDATE: Check pending flag (skip if not pending)
  9: 0x0023 [0x02] IF !(Work_Zone[2] == 0*) GOTO 0x0042
 10: 0x002B [0x1D] PRINT_EVENT_MESSAGE(message_id=14216*)
    → "You say you've got my chocobo?"
 11: 0x002E [0x23] WAIT_FOR_DIALOG_INTERACTION
 12: 0x002F [0x6E] Galdeo (ID: 17735746/0x010EA042) uses emote 6*
 13: 0x0036 [0x99] Wait for Galdeo (ID: 17735746/0x010EA042) animation to complete
 14: 0x003B [0x1D] PRINT_EVENT_MESSAGE(message_id=14217*)
    → "That can't be true. I would never take my eyes off my chocobo while we're on a walk."
 15: 0x003E [0x23] WAIT_FOR_DIALOG_INTERACTION
 16: 0x003F [0x01] GOTO 0x008A
 17: 0x0042 [0x66] LOAD_EXT_SCHEDULER_MAIN: Load scheduler "tlk0" with entities [EventEntity, EventEntity], work=69*
 18: 0x0051 [0x1D] PRINT_EVENT_MESSAGE(message_id=14199*)
    → "You've got my chocobo!? Are you serious?"
 19: 0x0054 [0x23] WAIT_FOR_DIALOG_INTERACTION
 20: 0x0055 [0x66] LOAD_EXT_SCHEDULER_MAIN: Load scheduler "tlk1" with entities [EventEntity, EventEntity], work=69*
 21: 0x0064 [0x1C] WAIT(60* ticks)
 22: 0x0067 [0x6E] Galdeo (ID: 17735746/0x010EA042) uses emote 6*
 23: 0x006E [0x99] Wait for Galdeo (ID: 17735746/0x010EA042) animation to complete
 24: 0x0073 [0x1D] PRINT_EVENT_MESSAGE(message_id=14200*)
    → "It all happened in West Ronfaure... Just when I was thinking how beautiful the day was, thick fog seemed to appear out of nowhere and hid the little chocobo from my sight!"
 25: 0x0076 [0x23] WAIT_FOR_DIALOG_INTERACTION
 26: 0x0077 [0x66] LOAD_EXT_SCHEDULER_MAIN: Load scheduler "tlk0" with entities [EventEntity, EventEntity], work=69*
 27: 0x0086 [0x1D] PRINT_EVENT_MESSAGE(message_id=14201*)
    → "Thank you so much for finding him! As thanks, let me teach you a story I often tell my chocobo..."
 28: 0x0089 [0x23] WAIT_FOR_DIALOG_INTERACTION

SUBROUTINE_008A:
 29: 0x008A [0x01] GOTO 0x008D

SUBROUTINE_008D:
 30: 0x008D [0x21] END_EVENT
 31: 0x008E [0x00] END_REQSTACK()
```
