# 17735718 - Babenn

## Common Data

| Field            | Value                  |
|------------------|------------------------|
| Zone             | Bastok Mines (ID: 234) |
| Block Size       | 292 bytes              |
| Total Events     | 9                      |
| References Count | 22                     |

## List of Events

| Event ID                 | Entrypoint   |   Size |   Instructions |
|--------------------------|--------------|--------|----------------|
| [65535](#event-65535)    | 0x0000       |      1 |              1 |
| [40](#event-40)          | 0x0001       |     11 |              5 |
| [45](#event-45)          | 0x000C       |      1 |              1 |
| [65535.1](#event-655351) | 0x000D       |     22 |              6 |
| [65535.2](#event-655352) | 0x0023       |     39 |              8 |
| [65535.3](#event-655353) | 0x004A       |     14 |              4 |
| [65535.4](#event-655354) | 0x0058       |     35 |              7 |
| [65535.5](#event-655355) | 0x007B       |      6 |              2 |
| [176](#event-176)        | 0x0081       |     20 |              3 |

## DAT References (imed_data)

|   Index | Hex Value   |   Dec Value |
|---------|-------------|-------------|
|       0 | 0x29D4      |       10708 |
|       1 | 0x0014      |          20 |
|       2 | 0x000D      |          13 |
|       3 | 0x111ED     |       70125 |
|       4 | 0x82E4      |       33508 |
|       5 | 0xFFFFFFA9  |  4294967209 |
|       6 | 0x106A3     |       67235 |
|       7 | 0x7A87      |       31367 |
|       8 | 0xFFFFFFA2  |  4294967202 |
|       9 | 0x1063F     |       67135 |
|      10 | 0x7767      |       30567 |
|      11 | 0x107E0     |       67552 |
|      12 | 0x7279      |       29305 |
|      13 | 0x10D2B     |       68907 |
|      14 | 0x75FE      |       30206 |
|      15 | 0x000F      |          15 |
|      16 | 0x003C      |          60 |
|      17 | 0x0078      |         120 |
|      18 | 0xFFFD9877  |  4294809719 |
|      19 | 0xFFFF9C1E  |  4294941726 |
|      20 | 0x0000      |           0 |
|      21 | 0x05B7      |        1463 |

## String References

- **10708**: Hmm? What is it you want with an old Galka like me?

## Events

### Event 65535

#### Metadata

| Field        | Value   |
|--------------|---------|
| Entrypoint   | 0x0000  |
| Data Size    | 1 bytes |
| Instructions | 1       |

```
      00 01 02 03 04 05 06 07  08 09 0A 0B 0C 0D 0E 0F
      -- -- -- -- -- -- -- --  -- -- -- -- -- -- -- --
0000: 00                                                .               
```

#### Opcodes

```
  0: 0x0000 [0x00] END_REQSTACK()
```

### Event 40

#### Metadata

| Field        | Value    |
|--------------|----------|
| Entrypoint   | 0x0001   |
| Data Size    | 11 bytes |
| Instructions | 5        |

```
      00 01 02 03 04 05 06 07  08 09 0A 0B 0C 0D 0E 0F
      -- -- -- -- -- -- -- --  -- -- -- -- -- -- -- --
0000:    1E F0 FF FF 7F 1D 00  80 23 21 00               ........#!.    
```

#### Opcodes

```
  0: 0x0001 [0x1E] EventEntity looks at LocalPlayer and starts talking
  1: 0x0006 [0x1D] PRINT_EVENT_MESSAGE(message_id=10708*)
    → "Hmm? What is it you want with an old Galka like me?"
  2: 0x0009 [0x23] WAIT_FOR_DIALOG_INTERACTION
  3: 0x000A [0x21] END_EVENT
  4: 0x000B [0x00] END_REQSTACK()
```

### Event 45

#### Metadata

| Field        | Value   |
|--------------|---------|
| Entrypoint   | 0x000C  |
| Data Size    | 1 bytes |
| Instructions | 1       |

```
      00 01 02 03 04 05 06 07  08 09 0A 0B 0C 0D 0E 0F
      -- -- -- -- -- -- -- --  -- -- -- -- -- -- -- --
0000:                                      00                       .   
```

#### Opcodes

```
  0: 0x000C [0x00] END_REQSTACK()
```

### Event 65535.1

#### Metadata

| Field        | Value    |
|--------------|----------|
| Entrypoint   | 0x000D   |
| Data Size    | 22 bytes |
| Instructions | 6        |

```
      00 01 02 03 04 05 06 07  08 09 0A 0B 0C 0D 0E 0F
      -- -- -- -- -- -- -- --  -- -- -- -- -- -- -- --
0000:                                         5E 69 64               ^id
0010: 6C 30 1C 01 80 32 02 80  1F 00 03 80 04 80 05 80  l0...2..........
0020: 1F 01 00                                          ...             
```

#### Opcodes

```
  0: 0x000D [0x5E] EventEntity goes idle (kills current action) (animation: "idl0")
  1: 0x0012 [0x1C] WAIT(20* ticks)
  2: 0x0015 [0x32] ExtData[1]->MainSpeed = 13* * 0.1
  3: 0x0018 [0x1F] MOVE_ENTITY: EventEntity moves to X=70.125*, Z=33.508*, Y=-0.087*
  4: 0x0020 [0x1F] MOVE_ENTITY: Update entity position (mode=1)
  5: 0x0022 [0x00] END_REQSTACK()
```

### Event 65535.2

#### Metadata

| Field        | Value    |
|--------------|----------|
| Entrypoint   | 0x0023   |
| Data Size    | 39 bytes |
| Instructions | 8        |

```
      00 01 02 03 04 05 06 07  08 09 0A 0B 0C 0D 0E 0F
      -- -- -- -- -- -- -- --  -- -- -- -- -- -- -- --
0020:          32 02 80 79 00  26 A0 0E 01 17 A0 0E 01     2..y.&.......
0030: 1F 00 06 80 07 80 08 80  1F 01 1F 00 09 80 0A 80  ................
0040: 08 80 1F 01 1E 17 A0 0E  01 00                    ..........      
```

#### Opcodes

```
  0: 0x0023 [0x32] ExtData[1]->MainSpeed = 13* * 0.1
  1: 0x0026 [0x79] Babenn (ID: 17735718/0x010EA026) looks at Elki (ID: 17735703/0x010EA017) (Basic look)
  2: 0x0030 [0x1F] MOVE_ENTITY: EventEntity moves to X=67.235*, Z=31.367*, Y=-0.094*
  3: 0x0038 [0x1F] MOVE_ENTITY: Update entity position (mode=1)
  4: 0x003A [0x1F] MOVE_ENTITY: EventEntity moves to X=67.135*, Z=30.567*, Y=-0.094*
  5: 0x0042 [0x1F] MOVE_ENTITY: Update entity position (mode=1)
  6: 0x0044 [0x1E] EventEntity looks at Elki (ID: 17735703/0x010EA017) and starts talking
  7: 0x0049 [0x00] END_REQSTACK()
```

### Event 65535.3

#### Metadata

| Field        | Value    |
|--------------|----------|
| Entrypoint   | 0x004A   |
| Data Size    | 14 bytes |
| Instructions | 4        |

```
      00 01 02 03 04 05 06 07  08 09 0A 0B 0C 0D 0E 0F
      -- -- -- -- -- -- -- --  -- -- -- -- -- -- -- --
0040:                                32 02 80 1F 00 0B            2.....
0050: 80 0C 80 08 80 1F 01 00                           ........        
```

#### Opcodes

```
  0: 0x004A [0x32] ExtData[1]->MainSpeed = 13* * 0.1
  1: 0x004D [0x1F] MOVE_ENTITY: EventEntity moves to X=67.552*, Z=29.305*, Y=-0.094*
  2: 0x0055 [0x1F] MOVE_ENTITY: Update entity position (mode=1)
  3: 0x0057 [0x00] END_REQSTACK()
```

### Event 65535.4

#### Metadata

| Field        | Value    |
|--------------|----------|
| Entrypoint   | 0x0058   |
| Data Size    | 35 bytes |
| Instructions | 7        |

```
      00 01 02 03 04 05 06 07  08 09 0A 0B 0C 0D 0E 0F
      -- -- -- -- -- -- -- --  -- -- -- -- -- -- -- --
0050:                          32 02 80 1F 00 0D 80 0E          2.......
0060: 80 08 80 1F 01 1C 0F 80  66 10 80 F8 FF FF 7F F8  ........f.......
0070: FF FF 7F 70 61 73 30 1C  11 80 00                 ...pas0....     
```

#### Opcodes

```
  0: 0x0058 [0x32] ExtData[1]->MainSpeed = 13* * 0.1
  1: 0x005B [0x1F] MOVE_ENTITY: EventEntity moves to X=68.907*, Z=30.206*, Y=-0.094*
  2: 0x0063 [0x1F] MOVE_ENTITY: Update entity position (mode=1)
  3: 0x0065 [0x1C] WAIT(15* ticks)
  4: 0x0068 [0x66] LOAD_EXT_SCHEDULER_MAIN: Load scheduler "pas0" with entities [EventEntity, EventEntity], work=60*
  5: 0x0077 [0x1C] WAIT(120* ticks)
  6: 0x007A [0x00] END_REQSTACK()
```

### Event 65535.5

#### Metadata

| Field        | Value   |
|--------------|---------|
| Entrypoint   | 0x007B  |
| Data Size    | 6 bytes |
| Instructions | 2       |

```
      00 01 02 03 04 05 06 07  08 09 0A 0B 0C 0D 0E 0F
      -- -- -- -- -- -- -- --  -- -- -- -- -- -- -- --
0070:                                   5E 69 64 6C 30             ^idl0
0080: 00                                                .               
```

#### Opcodes

```
  0: 0x007B [0x5E] EventEntity goes idle (kills current action) (animation: "idl0")
  1: 0x0080 [0x00] END_REQSTACK()
```

### Event 176

#### Metadata

| Field        | Value    |
|--------------|----------|
| Entrypoint   | 0x0081   |
| Data Size    | 20 bytes |
| Instructions | 3        |

```
      00 01 02 03 04 05 06 07  08 09 0A 0B 0C 0D 0E 0F
      -- -- -- -- -- -- -- --  -- -- -- -- -- -- -- --
0080:    37 12 80 13 80 14 80  15 80 79 00 26 A0 0E 01   7........y.&...
0090: 0B A0 0E 01 00                                    .....           
```

#### Opcodes

```
  0: 0x0081 [0x37] UPDATE_EVENT_POSITION_AND_DIR: x=-157.577*, z=-25.570*, y=0.000*, direction=128.6°*
  1: 0x008A [0x79] Babenn (ID: 17735718/0x010EA026) looks at Mydon (ID: 17735691/0x010EA00B) (Basic look)
  2: 0x0094 [0x00] END_REQSTACK()
```
