# 17735739 - Black Mud

## Common Data

| Field            | Value                  |
|------------------|------------------------|
| Zone             | Bastok Mines (ID: 234) |
| Block Size       | 308 bytes              |
| Total Events     | 5                      |
| References Count | 13                     |

## List of Events

| Event ID              | Entrypoint   |   Size |   Instructions |
|-----------------------|--------------|--------|----------------|
| [65535](#event-65535) | 0x0000       |      1 |              1 |
| [100](#event-100)     | 0x0001       |     11 |              5 |
| [101](#event-101)     | 0x000C       |     94 |             18 |
| [102](#event-102)     | 0x006A       |     39 |              9 |
| [103](#event-103)     | 0x0091       |     72 |             13 |

## DAT References (imed_data)

|   Index | Hex Value   |   Dec Value |
|---------|-------------|-------------|
|       0 | 0x2A39      |       10809 |
|       1 | 0x01ED      |         493 |
|       2 | 0x01EC      |         492 |
|       3 | 0x000A      |          10 |
|       4 | 0x003C      |          60 |
|       5 | 0x2A33      |       10803 |
|       6 | 0x2A34      |       10804 |
|       7 | 0x2A35      |       10805 |
|       8 | 0x2A36      |       10806 |
|       9 | 0x2A37      |       10807 |
|      10 | 0x2A38      |       10808 |
|      11 | 0x00C9      |         201 |
|      12 | 0x0000      |           0 |

## String References

- **10803**: What to do, what to do? Ah, an adventurer! Could you help out a lowly trader? I'm working as an intermediary between the Metalworks and the Alchemists' Guild.
- **10804**: I'm supposed to get them some materials for this collaborative project they're working on, and I got everything except for $7.
- **10805**: Sounds easy, right? I only have to fill $6 with water from the Drachenfall in North Gustaberg.
- **10806**: The problem is, I can't find a place where I can get close enough to the falls to scoop some water up. Would you mind going in my place? Here, I'll give you $6.
- **10807**: Oh, it's you. Did you lose the $6? Here, I'll give you another one. Don't lose it this time.
- **10808**: You got it! Thank the heavens! You saved my neck! Here, take this, you deserve it!
- **10809**: Hume bigwigs don't bother comin' around here, so traders like me can go about their business all unconstrained-like. Heh-heh.

## Events

### Event 65535

#### Metadata

| Field        | Value   |
|--------------|---------|
| Entrypoint   | 0x0000  |
| Data Size    | 1 bytes |
| Instructions | 1       |

```
      00 01 02 03 04 05 06 07  08 09 0A 0B 0C 0D 0E 0F
      -- -- -- -- -- -- -- --  -- -- -- -- -- -- -- --
0000: 00                                                .               
```

#### Opcodes

```
  0: 0x0000 [0x00] END_REQSTACK()
```

### Event 100

#### Metadata

| Field        | Value    |
|--------------|----------|
| Entrypoint   | 0x0001   |
| Data Size    | 11 bytes |
| Instructions | 5        |

```
      00 01 02 03 04 05 06 07  08 09 0A 0B 0C 0D 0E 0F
      -- -- -- -- -- -- -- --  -- -- -- -- -- -- -- --
0000:    1E F0 FF FF 7F 1D 00  80 23 21 00               ........#!.    
```

#### Opcodes

```
  0: 0x0001 [0x1E] EventEntity looks at LocalPlayer and starts talking
  1: 0x0006 [0x1D] PRINT_EVENT_MESSAGE(message_id=10809*)
    → "Hume bigwigs don't bother comin' around here, so traders like me can go about their business all unconstrained-like. Heh-heh."
  2: 0x0009 [0x23] WAIT_FOR_DIALOG_INTERACTION
  3: 0x000A [0x21] END_EVENT
  4: 0x000B [0x00] END_REQSTACK()
```

### Event 101

#### Metadata

| Field        | Value    |
|--------------|----------|
| Entrypoint   | 0x000C   |
| Data Size    | 94 bytes |
| Instructions | 18       |

```
      00 01 02 03 04 05 06 07  08 09 0A 0B 0C 0D 0E 0F
      -- -- -- -- -- -- -- --  -- -- -- -- -- -- -- --
0000:                                      03 08 10 01              ....
0010: 80 03 09 10 02 80 1E F0  FF FF 7F 1C 03 80 66 04  ..............f.
0020: 80 F8 FF FF 7F F8 FF FF  7F 74 68 6B 31 1D 05 80  .........thk1...
0030: 23 1D 06 80 23 66 04 80  F8 FF FF 7F F8 FF FF 7F  #...#f..........
0040: 74 68 6B 32 1D 07 80 23  66 04 80 F8 FF FF 7F F8  thk2...#f.......
0050: FF FF 7F 70 61 73 30 1D  08 80 23 53 F8 FF FF 7F  ...pas0...#S....
0060: F8 FF FF 7F 70 61 73 30  21 00                    ....pas0!.      
```

#### Opcodes

```
  0: 0x000C [0x03] Work_Zone[8] = 493*
  1: 0x0011 [0x03] Work_Zone[9] = 492*
  2: 0x0016 [0x1E] EventEntity looks at LocalPlayer and starts talking
  3: 0x001B [0x1C] WAIT(10* ticks)
  4: 0x001E [0x66] LOAD_EXT_SCHEDULER_MAIN: Load scheduler "thk1" with entities [EventEntity, EventEntity], work=60*
  5: 0x002D [0x1D] PRINT_EVENT_MESSAGE(message_id=10803*)
    → "What to do, what to do? Ah, an adventurer! Could you help out a lowly trader? I'm working as an intermediary between the Metalworks and the Alchemists' Guild."
  6: 0x0030 [0x23] WAIT_FOR_DIALOG_INTERACTION
  7: 0x0031 [0x1D] PRINT_EVENT_MESSAGE(message_id=10804*)
    → "I'm supposed to get them some materials for this collaborative project they're working on, and I got everything except for $7."
  8: 0x0034 [0x23] WAIT_FOR_DIALOG_INTERACTION
  9: 0x0035 [0x66] LOAD_EXT_SCHEDULER_MAIN: Load scheduler "thk2" with entities [EventEntity, EventEntity], work=60*
 10: 0x0044 [0x1D] PRINT_EVENT_MESSAGE(message_id=10805*)
    → "Sounds easy, right? I only have to fill $6 with water from the Drachenfall in North Gustaberg."
 11: 0x0047 [0x23] WAIT_FOR_DIALOG_INTERACTION
 12: 0x0048 [0x66] LOAD_EXT_SCHEDULER_MAIN: Load scheduler "pas0" with entities [EventEntity, EventEntity], work=60*
 13: 0x0057 [0x1D] PRINT_EVENT_MESSAGE(message_id=10806*)
    → "The problem is, I can't find a place where I can get close enough to the falls to scoop some water up. Would you mind going in my place? Here, I'll give you $6."
 14: 0x005A [0x23] WAIT_FOR_DIALOG_INTERACTION
 15: 0x005B [0x53] WAIT_SCHEDULER_TASK: Wait for scheduler "pas0" with entities [EventEntity, EventEntity]
 16: 0x0068 [0x21] END_EVENT
 17: 0x0069 [0x00] END_REQSTACK()
```

### Event 102

#### Metadata

| Field        | Value    |
|--------------|----------|
| Entrypoint   | 0x006A   |
| Data Size    | 39 bytes |
| Instructions | 9        |

```
      00 01 02 03 04 05 06 07  08 09 0A 0B 0C 0D 0E 0F
      -- -- -- -- -- -- -- --  -- -- -- -- -- -- -- --
0060:                                03 08 10 01 80 03            ......
0070: 09 10 02 80 1E F0 FF FF  7F 1C 03 80 66 04 80 F8  ............f...
0080: FF FF 7F F8 FF FF 7F 70  61 73 30 1D 09 80 23 21  .......pas0...#!
0090: 00                                                .               
```

#### Opcodes

```
  0: 0x006A [0x03] Work_Zone[8] = 493*
  1: 0x006F [0x03] Work_Zone[9] = 492*
  2: 0x0074 [0x1E] EventEntity looks at LocalPlayer and starts talking
  3: 0x0079 [0x1C] WAIT(10* ticks)
  4: 0x007C [0x66] LOAD_EXT_SCHEDULER_MAIN: Load scheduler "pas0" with entities [EventEntity, EventEntity], work=60*
  5: 0x008B [0x1D] PRINT_EVENT_MESSAGE(message_id=10807*)
    → "Oh, it's you. Did you lose the $6? Here, I'll give you another one. Don't lose it this time."
  6: 0x008E [0x23] WAIT_FOR_DIALOG_INTERACTION
  7: 0x008F [0x21] END_EVENT
  8: 0x0090 [0x00] END_REQSTACK()
```

### Event 103

#### Metadata

| Field        | Value    |
|--------------|----------|
| Entrypoint   | 0x0091   |
| Data Size    | 72 bytes |
| Instructions | 13       |

```
      00 01 02 03 04 05 06 07  08 09 0A 0B 0C 0D 0E 0F
      -- -- -- -- -- -- -- --  -- -- -- -- -- -- -- --
0090:    42 20 01 03 08 10 01  80 03 09 10 02 80 1E F0   B .............
00A0: FF FF 7F 1C 03 80 66 04  80 F8 FF FF 7F F8 FF FF  ......f.........
00B0: 7F 70 61 73 30 1D 0A 80  23 53 F8 FF FF 7F F8 FF  .pas0...#S......
00C0: FF 7F 70 61 73 30 45 0B  80 F0 FF FF 7F F0 FF FF  ..pas0E.........
00D0: 7F 71 73 74 63 0C 80 21  00                       .qstc..!.       
```

#### Opcodes

```
  0: 0x0091 [0x42] SET_CLI_EVENT_CANCEL_DATA()
  1: 0x0092 [0x20] SET_CLI_EVENT_UC_FLAG: Lock player control
  2: 0x0094 [0x03] Work_Zone[8] = 493*
  3: 0x0099 [0x03] Work_Zone[9] = 492*
  4: 0x009E [0x1E] EventEntity looks at LocalPlayer and starts talking
  5: 0x00A3 [0x1C] WAIT(10* ticks)
  6: 0x00A6 [0x66] LOAD_EXT_SCHEDULER_MAIN: Load scheduler "pas0" with entities [EventEntity, EventEntity], work=60*
  7: 0x00B5 [0x1D] PRINT_EVENT_MESSAGE(message_id=10808*)
    → "You got it! Thank the heavens! You saved my neck! Here, take this, you deserve it!"
  8: 0x00B8 [0x23] WAIT_FOR_DIALOG_INTERACTION
  9: 0x00B9 [0x53] WAIT_SCHEDULER_TASK: Wait for scheduler "pas0" with entities [EventEntity, EventEntity]
 10: 0x00C6 [0x45] LOAD_SCHEDULED_TASK: Load scheduler "qstc" with entities [LocalPlayer, LocalPlayer], work=[201*, 0*]
 11: 0x00D7 [0x21] END_EVENT
 12: 0x00D8 [0x00] END_REQSTACK()
```
