# 17735788 - Iron Eater

## Common Data

| Field            | Value                  |
|------------------|------------------------|
| Zone             | Bastok Mines (ID: 234) |
| Block Size       | 864 bytes              |
| Total Events     | 26                     |
| References Count | 63                     |

## List of Events

| Event ID                   | Entrypoint   |   Size |   Instructions |
|----------------------------|--------------|--------|----------------|
| [65535](#event-65535)      | 0x0000       |      1 |              1 |
| [162](#event-162)          | 0x0001       |     10 |              2 |
| [65535.1](#event-655351)   | 0x000B       |     34 |              8 |
| [65535.2](#event-655352)   | 0x002D       |     24 |              6 |
| [1008](#event-1008)        | 0x0045       |     33 |              6 |
| [1009](#event-1009)        | 0x0066       |     33 |              6 |
| [1010](#event-1010)        | 0x0087       |     33 |              6 |
| [65535.3](#event-655353)   | 0x00A8       |     40 |              8 |
| [65535.4](#event-655354)   | 0x00D0       |     15 |              5 |
| [65535.5](#event-655355)   | 0x00DF       |     40 |              8 |
| [65535.6](#event-655356)   | 0x0107       |     27 |              7 |
| [176](#event-176)          | 0x0122       |      1 |              1 |
| [65535.7](#event-655357)   | 0x0123       |     26 |              7 |
| [182](#event-182)          | 0x013D       |      1 |              1 |
| [65535.8](#event-655358)   | 0x013E       |     35 |              7 |
| [665](#event-665)          | 0x0161       |      7 |              2 |
| [667](#event-667)          | 0x0168       |      7 |              2 |
| [65535.9](#event-655359)   | 0x016F       |     15 |              5 |
| [65535.10](#event-6553510) | 0x017E       |     14 |              4 |
| [65535.11](#event-6553511) | 0x018C       |     14 |              4 |
| [65535.12](#event-6553512) | 0x019A       |     14 |              4 |
| [65535.13](#event-6553513) | 0x01A8       |     14 |              4 |
| [681](#event-681)          | 0x01B6       |      7 |              2 |
| [65535.14](#event-6553514) | 0x01BD       |     15 |              5 |
| [65535.15](#event-6553515) | 0x01CC       |     15 |              5 |
| [65535.16](#event-6553516) | 0x01DB       |     15 |              5 |

## DAT References (imed_data)

|   Index | Hex Value   |   Dec Value |
|---------|-------------|-------------|
|       0 | 0xFFFFF259  |  4294963801 |
|       1 | 0x5288      |       21128 |
|       2 | 0x1B57      |        6999 |
|       3 | 0x0A96      |        2710 |
|       4 | 0x000D      |          13 |
|       5 | 0xFFFFE25D  |  4294959709 |
|       6 | 0x6283      |       25219 |
|       7 | 0xFFFFDBEB  |  4294958059 |
|       8 | 0x6674      |       26228 |
|       9 | 0xFFFFD1BF  |  4294955455 |
|      10 | 0x67F8      |       26616 |
|      11 | 0xFFFFCE56  |  4294954582 |
|      12 | 0x7584      |       30084 |
|      13 | 0xFFFFB73E  |  4294948670 |
|      14 | 0x781B      |       30747 |
|      15 | 0x0000      |           0 |
|      16 | 0x0001      |           1 |
|      17 | 0xFFFFCB41  |  4294953793 |
|      18 | 0xFFFE2F65  |  4294848357 |
|      19 | 0xFFFFFC19  |  4294966297 |
|      20 | 0x0220      |         544 |
|      21 | 0xFFFFF90E  |  4294965518 |
|      22 | 0xFFFE322A  |  4294849066 |
|      23 | 0x06A5      |        1701 |
|      24 | 0x0080      |         128 |
|      25 | 0x000B      |          11 |
|      26 | 0xFFFFD59F  |  4294956447 |
|      27 | 0xFFFE21B2  |  4294844850 |
|      28 | 0xFFFFCCBA  |  4294954170 |
|      29 | 0xFFFE3B02  |  4294851330 |
|      30 | 0xFFFFE634  |  4294960692 |
|      31 | 0xFFFE2505  |  4294845701 |
|      32 | 0xFFFFDB4F  |  4294957903 |
|      33 | 0xFFFE36BF  |  4294850239 |
|      34 | 0x000F      |          15 |
|      35 | 0x0028      |          40 |
|      36 | 0xFFFDB9B6  |  4294818230 |
|      37 | 0xFFFFA461  |  4294943841 |
|      38 | 0x06CD      |        1741 |
|      39 | 0xFFFDA360  |  4294812512 |
|      40 | 0xFFFF9576  |  4294940022 |
|      41 | 0xFFFFFFFB  |  4294967291 |
|      42 | 0x11970     |       72048 |
|      43 | 0xFFFFFACF  |  4294965967 |
|      44 | 0x037F      |         895 |
|      45 | 0x11B8A     |       72586 |
|      46 | 0xFFFFE391  |  4294960017 |
|      47 | 0xCE60      |       52832 |
|      48 | 0xFFFF7EFC  |  4294934268 |
|      49 | 0xFFFFFFCD  |  4294967245 |
|      50 | 0xCFAE      |       53166 |
|      51 | 0xFFFF97AD  |  4294940589 |
|      52 | 0xFFFFFFC5  |  4294967237 |
|      53 | 0xCEF5      |       52981 |
|      54 | 0xFFFF87B2  |  4294936498 |
|      55 | 0xCE35      |       52789 |
|      56 | 0xFFFF8972  |  4294936946 |
|      57 | 0xCAF4      |       51956 |
|      58 | 0xFFFF784B  |  4294932555 |
|      59 | 0xC96F      |       51567 |
|      60 | 0xFFFF7DFC  |  4294934012 |
|      61 | 0xC76F      |       51055 |
|      62 | 0xFFFF796D  |  4294932845 |

## Events

### Event 65535

#### Metadata

| Field        | Value   |
|--------------|---------|
| Entrypoint   | 0x0000  |
| Data Size    | 1 bytes |
| Instructions | 1       |

```
      00 01 02 03 04 05 06 07  08 09 0A 0B 0C 0D 0E 0F
      -- -- -- -- -- -- -- --  -- -- -- -- -- -- -- --
0000: 00                                                .               
```

#### Opcodes

```
  0: 0x0000 [0x00] END_REQSTACK()
```

### Event 162

#### Metadata

| Field        | Value    |
|--------------|----------|
| Entrypoint   | 0x0001   |
| Data Size    | 10 bytes |
| Instructions | 2        |

```
      00 01 02 03 04 05 06 07  08 09 0A 0B 0C 0D 0E 0F
      -- -- -- -- -- -- -- --  -- -- -- -- -- -- -- --
0000:    37 00 80 01 80 02 80  03 80 00                  7.........     
```

#### Opcodes

```
  0: 0x0001 [0x37] UPDATE_EVENT_POSITION_AND_DIR: x=-3.495*, z=21.128*, y=6.999*, direction=238.2°*
  1: 0x000A [0x00] END_REQSTACK()
```

### Event 65535.1

#### Metadata

| Field        | Value    |
|--------------|----------|
| Entrypoint   | 0x000B   |
| Data Size    | 34 bytes |
| Instructions | 8        |

```
      00 01 02 03 04 05 06 07  08 09 0A 0B 0C 0D 0E 0F
      -- -- -- -- -- -- -- --  -- -- -- -- -- -- -- --
0000:                                   32 04 80 1F 00             2....
0010: 05 80 06 80 02 80 1F 01  1F 00 07 80 08 80 02 80  ................
0020: 1F 01 1F 00 09 80 0A 80  02 80 1F 01 00           .............   
```

#### Opcodes

```
  0: 0x000B [0x32] ExtData[1]->MainSpeed = 13* * 0.1
  1: 0x000E [0x1F] MOVE_ENTITY: EventEntity moves to X=-7.587*, Z=25.219*, Y=6.999*
  2: 0x0016 [0x1F] MOVE_ENTITY: Update entity position (mode=1)
  3: 0x0018 [0x1F] MOVE_ENTITY: EventEntity moves to X=-9.237*, Z=26.228*, Y=6.999*
  4: 0x0020 [0x1F] MOVE_ENTITY: Update entity position (mode=1)
  5: 0x0022 [0x1F] MOVE_ENTITY: EventEntity moves to X=-11.841*, Z=26.616*, Y=6.999*
  6: 0x002A [0x1F] MOVE_ENTITY: Update entity position (mode=1)
  7: 0x002C [0x00] END_REQSTACK()
```

### Event 65535.2

#### Metadata

| Field        | Value    |
|--------------|----------|
| Entrypoint   | 0x002D   |
| Data Size    | 24 bytes |
| Instructions | 6        |

```
      00 01 02 03 04 05 06 07  08 09 0A 0B 0C 0D 0E 0F
      -- -- -- -- -- -- -- --  -- -- -- -- -- -- -- --
0020:                                         32 04 80               2..
0030: 1F 00 0B 80 0C 80 02 80  1F 01 1F 00 0D 80 0E 80  ................
0040: 02 80 1F 01 00                                    .....           
```

#### Opcodes

```
  0: 0x002D [0x32] ExtData[1]->MainSpeed = 13* * 0.1
  1: 0x0030 [0x1F] MOVE_ENTITY: EventEntity moves to X=-12.714*, Z=30.084*, Y=6.999*
  2: 0x0038 [0x1F] MOVE_ENTITY: Update entity position (mode=1)
  3: 0x003A [0x1F] MOVE_ENTITY: EventEntity moves to X=-18.626*, Z=30.747*, Y=6.999*
  4: 0x0042 [0x1F] MOVE_ENTITY: Update entity position (mode=1)
  5: 0x0044 [0x00] END_REQSTACK()
```

### Event 1008

#### Metadata

| Field        | Value    |
|--------------|----------|
| Entrypoint   | 0x0045   |
| Data Size    | 33 bytes |
| Instructions | 6        |

```
      00 01 02 03 04 05 06 07  08 09 0A 0B 0C 0D 0E 0F
      -- -- -- -- -- -- -- --  -- -- -- -- -- -- -- --
0040:                22 00 2F  00 F8 FF FF 7F 92 01 F8       "./........
0050: FF FF 7F 6C F8 FF FF 7F  0F 80 10 80 37 11 80 12  ...l........7...
0060: 80 13 80 14 80 00                                 ......          
```

#### Opcodes

```
  0: 0x0045 [0x22] ENTITY_HIDE_FLAG(enabled=0x00)
  1: 0x0047 [0x2F] EventEntity->Render.Flags0 &= ~0x80000 // Bit 19
  2: 0x004D [0x92] EventEntity->Render.Flags3 ^= 0x01
  3: 0x0053 [0x6C] FADE_ENTITY_COLOR(entity_id=EventEntity, end_alpha=0*, fade_time=1*)
  4: 0x005C [0x37] UPDATE_EVENT_POSITION_AND_DIR: x=-13.503*, z=-118.939*, y=-0.999*, direction=47.8°*
  5: 0x0065 [0x00] END_REQSTACK()
```

### Event 1009

#### Metadata

| Field        | Value    |
|--------------|----------|
| Entrypoint   | 0x0066   |
| Data Size    | 33 bytes |
| Instructions | 6        |

```
      00 01 02 03 04 05 06 07  08 09 0A 0B 0C 0D 0E 0F
      -- -- -- -- -- -- -- --  -- -- -- -- -- -- -- --
0060:                   22 00  2F 00 F8 FF FF 7F 92 01        "./.......
0070: F8 FF FF 7F 6C F8 FF FF  7F 0F 80 10 80 37 11 80  ....l........7..
0080: 12 80 13 80 14 80 00                              .......         
```

#### Opcodes

```
  0: 0x0066 [0x22] ENTITY_HIDE_FLAG(enabled=0x00)
  1: 0x0068 [0x2F] EventEntity->Render.Flags0 &= ~0x80000 // Bit 19
  2: 0x006E [0x92] EventEntity->Render.Flags3 ^= 0x01
  3: 0x0074 [0x6C] FADE_ENTITY_COLOR(entity_id=EventEntity, end_alpha=0*, fade_time=1*)
  4: 0x007D [0x37] UPDATE_EVENT_POSITION_AND_DIR: x=-13.503*, z=-118.939*, y=-0.999*, direction=47.8°*
  5: 0x0086 [0x00] END_REQSTACK()
```

### Event 1010

#### Metadata

| Field        | Value    |
|--------------|----------|
| Entrypoint   | 0x0087   |
| Data Size    | 33 bytes |
| Instructions | 6        |

```
      00 01 02 03 04 05 06 07  08 09 0A 0B 0C 0D 0E 0F
      -- -- -- -- -- -- -- --  -- -- -- -- -- -- -- --
0080:                      22  00 2F 00 F8 FF FF 7F 92         "./......
0090: 01 F8 FF FF 7F 6C F8 FF  FF 7F 0F 80 10 80 37 15  .....l........7.
00A0: 80 16 80 13 80 17 80 00                           ........        
```

#### Opcodes

```
  0: 0x0087 [0x22] ENTITY_HIDE_FLAG(enabled=0x00)
  1: 0x0089 [0x2F] EventEntity->Render.Flags0 &= ~0x80000 // Bit 19
  2: 0x008F [0x92] EventEntity->Render.Flags3 ^= 0x01
  3: 0x0095 [0x6C] FADE_ENTITY_COLOR(entity_id=EventEntity, end_alpha=0*, fade_time=1*)
  4: 0x009E [0x37] UPDATE_EVENT_POSITION_AND_DIR: x=-1.778*, z=-118.230*, y=-0.999*, direction=149.5°*
  5: 0x00A7 [0x00] END_REQSTACK()
```

### Event 65535.3

#### Metadata

| Field        | Value    |
|--------------|----------|
| Entrypoint   | 0x00A8   |
| Data Size    | 40 bytes |
| Instructions | 8        |

```
      00 01 02 03 04 05 06 07  08 09 0A 0B 0C 0D 0E 0F
      -- -- -- -- -- -- -- --  -- -- -- -- -- -- -- --
00A0:                          92 00 F8 FF FF 7F 6C F8          ......l.
00B0: FF FF 7F 18 80 10 80 32  19 80 1F 00 1A 80 1B 80  .......2........
00C0: 13 80 1F 01 6F 79 00 F8  FF FF 7F 06 A0 0E 01 00  ....oy..........
```

#### Opcodes

```
  0: 0x00A8 [0x92] EventEntity->Render.Flags3 = Flags3  // No change (flag=0)
  1: 0x00AE [0x6C] FADE_ENTITY_COLOR(entity_id=EventEntity, end_alpha=128*, fade_time=1*)
  2: 0x00B7 [0x32] ExtData[1]->MainSpeed = 11* * 0.1
  3: 0x00BA [0x1F] MOVE_ENTITY: EventEntity moves to X=-10.849*, Z=-122.446*, Y=-0.999*
  4: 0x00C2 [0x1F] MOVE_ENTITY: Update entity position (mode=1)
  5: 0x00C4 [0x6F] WAIT_FRAME_DELAY: Yield until WaitTime reaches zero
  6: 0x00C5 [0x79] EventEntity looks at Rashid (ID: 17735686/0x010EA006) (Basic look)
  7: 0x00CF [0x00] END_REQSTACK()
```

### Event 65535.4

#### Metadata

| Field        | Value    |
|--------------|----------|
| Entrypoint   | 0x00D0   |
| Data Size    | 15 bytes |
| Instructions | 5        |

```
      00 01 02 03 04 05 06 07  08 09 0A 0B 0C 0D 0E 0F
      -- -- -- -- -- -- -- --  -- -- -- -- -- -- -- --
00D0: 32 04 80 1F 00 1C 80 1D  80 13 80 1F 01 6F 00     2............o. 
```

#### Opcodes

```
  0: 0x00D0 [0x32] ExtData[1]->MainSpeed = 13* * 0.1
  1: 0x00D3 [0x1F] MOVE_ENTITY: EventEntity moves to X=-13.126*, Z=-115.966*, Y=-0.999*
  2: 0x00DB [0x1F] MOVE_ENTITY: Update entity position (mode=1)
  3: 0x00DD [0x6F] WAIT_FRAME_DELAY: Yield until WaitTime reaches zero
  4: 0x00DE [0x00] END_REQSTACK()
```

### Event 65535.5

#### Metadata

| Field        | Value    |
|--------------|----------|
| Entrypoint   | 0x00DF   |
| Data Size    | 40 bytes |
| Instructions | 8        |

```
      00 01 02 03 04 05 06 07  08 09 0A 0B 0C 0D 0E 0F
      -- -- -- -- -- -- -- --  -- -- -- -- -- -- -- --
00D0:                                               92                 .
00E0: 00 F8 FF FF 7F 6C F8 FF  FF 7F 18 80 10 80 32 19  .....l........2.
00F0: 80 1F 00 1E 80 1F 80 13  80 1F 01 6F 79 00 F8 FF  ...........oy...
0100: FF 7F 06 A0 0E 01 00                              .......         
```

#### Opcodes

```
  0: 0x00DF [0x92] EventEntity->Render.Flags3 = Flags3  // No change (flag=0)
  1: 0x00E5 [0x6C] FADE_ENTITY_COLOR(entity_id=EventEntity, end_alpha=128*, fade_time=1*)
  2: 0x00EE [0x32] ExtData[1]->MainSpeed = 11* * 0.1
  3: 0x00F1 [0x1F] MOVE_ENTITY: EventEntity moves to X=-6.604*, Z=-121.595*, Y=-0.999*
  4: 0x00F9 [0x1F] MOVE_ENTITY: Update entity position (mode=1)
  5: 0x00FB [0x6F] WAIT_FRAME_DELAY: Yield until WaitTime reaches zero
  6: 0x00FC [0x79] EventEntity looks at Rashid (ID: 17735686/0x010EA006) (Basic look)
  7: 0x0106 [0x00] END_REQSTACK()
```

### Event 65535.6

#### Metadata

| Field        | Value    |
|--------------|----------|
| Entrypoint   | 0x0107   |
| Data Size    | 27 bytes |
| Instructions | 7        |

```
      00 01 02 03 04 05 06 07  08 09 0A 0B 0C 0D 0E 0F
      -- -- -- -- -- -- -- --  -- -- -- -- -- -- -- --
0100:                      32  04 80 1F 00 20 80 21 80         2.... .!.
0110: 13 80 1F 01 6F 1C 22 80  4A 6C A0 0E 01 16 A0 0E  ....o.".Jl......
0120: 01 00                                             ..              
```

#### Opcodes

```
  0: 0x0107 [0x32] ExtData[1]->MainSpeed = 13* * 0.1
  1: 0x010A [0x1F] MOVE_ENTITY: EventEntity moves to X=-9.393*, Z=-117.057*, Y=-0.999*
  2: 0x0112 [0x1F] MOVE_ENTITY: Update entity position (mode=1)
  3: 0x0114 [0x6F] WAIT_FRAME_DELAY: Yield until WaitTime reaches zero
  4: 0x0115 [0x1C] WAIT(15* ticks)
  5: 0x0118 [0x4A] Iron Eater (ID: 17735788/0x010EA06C) looks at Detzo (ID: 17735702/0x010EA016)
  6: 0x0121 [0x00] END_REQSTACK()
```

### Event 176

#### Metadata

| Field        | Value   |
|--------------|---------|
| Entrypoint   | 0x0122  |
| Data Size    | 1 bytes |
| Instructions | 1       |

```
      00 01 02 03 04 05 06 07  08 09 0A 0B 0C 0D 0E 0F
      -- -- -- -- -- -- -- --  -- -- -- -- -- -- -- --
0120:       00                                            .             
```

#### Opcodes

```
  0: 0x0122 [0x00] END_REQSTACK()
```

### Event 65535.7

#### Metadata

| Field        | Value    |
|--------------|----------|
| Entrypoint   | 0x0123   |
| Data Size    | 26 bytes |
| Instructions | 7        |

```
      00 01 02 03 04 05 06 07  08 09 0A 0B 0C 0D 0E 0F
      -- -- -- -- -- -- -- --  -- -- -- -- -- -- -- --
0120:          22 00 32 23 80  37 24 80 25 80 0F 80 26     ".2#.7$.%...&
0130: 80 1F 00 27 80 28 80 29  80 1F 01 6F 00           ...'.(.)...o.   
```

#### Opcodes

```
  0: 0x0123 [0x22] ENTITY_HIDE_FLAG(enabled=0x00)
  1: 0x0125 [0x32] ExtData[1]->MainSpeed = 40* * 0.1
  2: 0x0128 [0x37] UPDATE_EVENT_POSITION_AND_DIR: x=-149.066*, z=-23.455*, y=0.000*, direction=153.0°*
  3: 0x0131 [0x1F] MOVE_ENTITY: EventEntity moves to X=-154.784*, Z=-27.274*, Y=-0.005*
  4: 0x0139 [0x1F] MOVE_ENTITY: Update entity position (mode=1)
  5: 0x013B [0x6F] WAIT_FRAME_DELAY: Yield until WaitTime reaches zero
  6: 0x013C [0x00] END_REQSTACK()
```

### Event 182

#### Metadata

| Field        | Value   |
|--------------|---------|
| Entrypoint   | 0x013D  |
| Data Size    | 1 bytes |
| Instructions | 1       |

```
      00 01 02 03 04 05 06 07  08 09 0A 0B 0C 0D 0E 0F
      -- -- -- -- -- -- -- --  -- -- -- -- -- -- -- --
0130:                                         00                     .  
```

#### Opcodes

```
  0: 0x013D [0x00] END_REQSTACK()
```

### Event 65535.8

#### Metadata

| Field        | Value    |
|--------------|----------|
| Entrypoint   | 0x013E   |
| Data Size    | 35 bytes |
| Instructions | 7        |

```
      00 01 02 03 04 05 06 07  08 09 0A 0B 0C 0D 0E 0F
      -- -- -- -- -- -- -- --  -- -- -- -- -- -- -- --
0130:                                            22 00                ".
0140: 32 04 80 79 00 F8 FF FF  7F 71 A0 0E 01 37 2A 80  2..y.....q...7*.
0150: 2B 80 02 80 2C 80 1F 00  2D 80 2E 80 02 80 1F 01  +...,...-.......
0160: 00                                                .               
```

#### Opcodes

```
  0: 0x013E [0x22] ENTITY_HIDE_FLAG(enabled=0x00)
  1: 0x0140 [0x32] ExtData[1]->MainSpeed = 13* * 0.1
  2: 0x0143 [0x79] EventEntity looks at Gabbot (ID: 17735793/0x010EA071) (Basic look)
  3: 0x014D [0x37] UPDATE_EVENT_POSITION_AND_DIR: x=72.048*, z=-1.329*, y=6.999*, direction=78.7°*
  4: 0x0156 [0x1F] MOVE_ENTITY: EventEntity moves to X=72.586*, Z=-7.279*, Y=6.999*
  5: 0x015E [0x1F] MOVE_ENTITY: Update entity position (mode=1)
  6: 0x0160 [0x00] END_REQSTACK()
```

### Event 665

#### Metadata

| Field        | Value   |
|--------------|---------|
| Entrypoint   | 0x0161  |
| Data Size    | 7 bytes |
| Instructions | 2       |

```
      00 01 02 03 04 05 06 07  08 09 0A 0B 0C 0D 0E 0F
      -- -- -- -- -- -- -- --  -- -- -- -- -- -- -- --
0160:    92 01 F8 FF FF 7F 00                            .......        
```

#### Opcodes

```
  0: 0x0161 [0x92] EventEntity->Render.Flags3 ^= 0x01
  1: 0x0167 [0x00] END_REQSTACK()
```

### Event 667

#### Metadata

| Field        | Value   |
|--------------|---------|
| Entrypoint   | 0x0168  |
| Data Size    | 7 bytes |
| Instructions | 2       |

```
      00 01 02 03 04 05 06 07  08 09 0A 0B 0C 0D 0E 0F
      -- -- -- -- -- -- -- --  -- -- -- -- -- -- -- --
0160:                          92 01 F8 FF FF 7F 00             ....... 
```

#### Opcodes

```
  0: 0x0168 [0x92] EventEntity->Render.Flags3 ^= 0x01
  1: 0x016E [0x00] END_REQSTACK()
```

### Event 65535.9

#### Metadata

| Field        | Value    |
|--------------|----------|
| Entrypoint   | 0x016F   |
| Data Size    | 15 bytes |
| Instructions | 5        |

```
      00 01 02 03 04 05 06 07  08 09 0A 0B 0C 0D 0E 0F
      -- -- -- -- -- -- -- --  -- -- -- -- -- -- -- --
0160:                                               32                 2
0170: 04 80 1F 00 2F 80 30 80  31 80 1F 01 6F 00        ..../.0.1...o.  
```

#### Opcodes

```
  0: 0x016F [0x32] ExtData[1]->MainSpeed = 13* * 0.1
  1: 0x0172 [0x1F] MOVE_ENTITY: EventEntity moves to X=52.832*, Z=-33.028*, Y=-0.051*
  2: 0x017A [0x1F] MOVE_ENTITY: Update entity position (mode=1)
  3: 0x017C [0x6F] WAIT_FRAME_DELAY: Yield until WaitTime reaches zero
  4: 0x017D [0x00] END_REQSTACK()
```

### Event 65535.10

#### Metadata

| Field        | Value    |
|--------------|----------|
| Entrypoint   | 0x017E   |
| Data Size    | 14 bytes |
| Instructions | 4        |

```
      00 01 02 03 04 05 06 07  08 09 0A 0B 0C 0D 0E 0F
      -- -- -- -- -- -- -- --  -- -- -- -- -- -- -- --
0170:                                            32 04                2.
0180: 80 1F 00 32 80 33 80 34  80 1F 01 00              ...2.3.4....    
```

#### Opcodes

```
  0: 0x017E [0x32] ExtData[1]->MainSpeed = 13* * 0.1
  1: 0x0181 [0x1F] MOVE_ENTITY: EventEntity moves to X=53.166*, Z=-26.707*, Y=-0.059*
  2: 0x0189 [0x1F] MOVE_ENTITY: Update entity position (mode=1)
  3: 0x018B [0x00] END_REQSTACK()
```

### Event 65535.11

#### Metadata

| Field        | Value    |
|--------------|----------|
| Entrypoint   | 0x018C   |
| Data Size    | 14 bytes |
| Instructions | 4        |

```
      00 01 02 03 04 05 06 07  08 09 0A 0B 0C 0D 0E 0F
      -- -- -- -- -- -- -- --  -- -- -- -- -- -- -- --
0180:                                      32 04 80 1F              2...
0190: 00 2F 80 30 80 31 80 1F  01 00                    ./.0.1....      
```

#### Opcodes

```
  0: 0x018C [0x32] ExtData[1]->MainSpeed = 13* * 0.1
  1: 0x018F [0x1F] MOVE_ENTITY: EventEntity moves to X=52.832*, Z=-33.028*, Y=-0.051*
  2: 0x0197 [0x1F] MOVE_ENTITY: Update entity position (mode=1)
  3: 0x0199 [0x00] END_REQSTACK()
```

### Event 65535.12

#### Metadata

| Field        | Value    |
|--------------|----------|
| Entrypoint   | 0x019A   |
| Data Size    | 14 bytes |
| Instructions | 4        |

```
      00 01 02 03 04 05 06 07  08 09 0A 0B 0C 0D 0E 0F
      -- -- -- -- -- -- -- --  -- -- -- -- -- -- -- --
0190:                                32 04 80 1F 00 35            2....5
01A0: 80 36 80 31 80 1F 01 00                           .6.1....        
```

#### Opcodes

```
  0: 0x019A [0x32] ExtData[1]->MainSpeed = 13* * 0.1
  1: 0x019D [0x1F] MOVE_ENTITY: EventEntity moves to X=52.981*, Z=-30.798*, Y=-0.051*
  2: 0x01A5 [0x1F] MOVE_ENTITY: Update entity position (mode=1)
  3: 0x01A7 [0x00] END_REQSTACK()
```

### Event 65535.13

#### Metadata

| Field        | Value    |
|--------------|----------|
| Entrypoint   | 0x01A8   |
| Data Size    | 14 bytes |
| Instructions | 4        |

```
      00 01 02 03 04 05 06 07  08 09 0A 0B 0C 0D 0E 0F
      -- -- -- -- -- -- -- --  -- -- -- -- -- -- -- --
01A0:                          32 04 80 1F 00 37 80 38          2....7.8
01B0: 80 31 80 1F 01 00                                 .1....          
```

#### Opcodes

```
  0: 0x01A8 [0x32] ExtData[1]->MainSpeed = 13* * 0.1
  1: 0x01AB [0x1F] MOVE_ENTITY: EventEntity moves to X=52.789*, Z=-30.350*, Y=-0.051*
  2: 0x01B3 [0x1F] MOVE_ENTITY: Update entity position (mode=1)
  3: 0x01B5 [0x00] END_REQSTACK()
```

### Event 681

#### Metadata

| Field        | Value   |
|--------------|---------|
| Entrypoint   | 0x01B6  |
| Data Size    | 7 bytes |
| Instructions | 2       |

```
      00 01 02 03 04 05 06 07  08 09 0A 0B 0C 0D 0E 0F
      -- -- -- -- -- -- -- --  -- -- -- -- -- -- -- --
01B0:                   92 01  F8 FF FF 7F 00                 .......   
```

#### Opcodes

```
  0: 0x01B6 [0x92] EventEntity->Render.Flags3 ^= 0x01
  1: 0x01BC [0x00] END_REQSTACK()
```

### Event 65535.14

#### Metadata

| Field        | Value    |
|--------------|----------|
| Entrypoint   | 0x01BD   |
| Data Size    | 15 bytes |
| Instructions | 5        |

```
      00 01 02 03 04 05 06 07  08 09 0A 0B 0C 0D 0E 0F
      -- -- -- -- -- -- -- --  -- -- -- -- -- -- -- --
01B0:                                         32 04 80               2..
01C0: 1F 00 39 80 3A 80 34 80  1F 01 6F 00              ..9.:.4...o.    
```

#### Opcodes

```
  0: 0x01BD [0x32] ExtData[1]->MainSpeed = 13* * 0.1
  1: 0x01C0 [0x1F] MOVE_ENTITY: EventEntity moves to X=51.956*, Z=-34.741*, Y=-0.059*
  2: 0x01C8 [0x1F] MOVE_ENTITY: Update entity position (mode=1)
  3: 0x01CA [0x6F] WAIT_FRAME_DELAY: Yield until WaitTime reaches zero
  4: 0x01CB [0x00] END_REQSTACK()
```

### Event 65535.15

#### Metadata

| Field        | Value    |
|--------------|----------|
| Entrypoint   | 0x01CC   |
| Data Size    | 15 bytes |
| Instructions | 5        |

```
      00 01 02 03 04 05 06 07  08 09 0A 0B 0C 0D 0E 0F
      -- -- -- -- -- -- -- --  -- -- -- -- -- -- -- --
01C0:                                      32 04 80 1F              2...
01D0: 00 3B 80 3C 80 31 80 1F  01 6F 00                 .;.<.1...o.     
```

#### Opcodes

```
  0: 0x01CC [0x32] ExtData[1]->MainSpeed = 13* * 0.1
  1: 0x01CF [0x1F] MOVE_ENTITY: EventEntity moves to X=51.567*, Z=-33.284*, Y=-0.051*
  2: 0x01D7 [0x1F] MOVE_ENTITY: Update entity position (mode=1)
  3: 0x01D9 [0x6F] WAIT_FRAME_DELAY: Yield until WaitTime reaches zero
  4: 0x01DA [0x00] END_REQSTACK()
```

### Event 65535.16

#### Metadata

| Field        | Value    |
|--------------|----------|
| Entrypoint   | 0x01DB   |
| Data Size    | 15 bytes |
| Instructions | 5        |

```
      00 01 02 03 04 05 06 07  08 09 0A 0B 0C 0D 0E 0F
      -- -- -- -- -- -- -- --  -- -- -- -- -- -- -- --
01D0:                                   32 04 80 1F 00             2....
01E0: 3D 80 3E 80 34 80 1F 01  6F 00                    =.>.4...o.      
```

#### Opcodes

```
  0: 0x01DB [0x32] ExtData[1]->MainSpeed = 13* * 0.1
  1: 0x01DE [0x1F] MOVE_ENTITY: EventEntity moves to X=51.055*, Z=-34.451*, Y=-0.059*
  2: 0x01E6 [0x1F] MOVE_ENTITY: Update entity position (mode=1)
  3: 0x01E8 [0x6F] WAIT_FRAME_DELAY: Yield until WaitTime reaches zero
  4: 0x01E9 [0x00] END_REQSTACK()
```
