# 17735786 - Virnage

## Common Data

| Field            | Value                  |
|------------------|------------------------|
| Zone             | Bastok Mines (ID: 234) |
| Block Size       | 892 bytes              |
| Total Events     | 28                     |
| References Count | 28                     |

## List of Events

| Event ID                   | Entrypoint   |   Size |   Instructions |
|----------------------------|--------------|--------|----------------|
| [65535](#event-65535)      | 0x0000       |      1 |              1 |
| [32691](#event-32691)      | 0x0001       |     12 |              6 |
| [140](#event-140)          | 0x000D       |     11 |              5 |
| [141](#event-141)          | 0x0018       |    132 |             24 |
| [142](#event-142)          | 0x009C       |     11 |              5 |
| [143](#event-143)          | 0x00A7       |     87 |             19 |
| [144](#event-144)          | 0x00FE       |     41 |              9 |
| [145](#event-145)          | 0x0127       |     30 |              8 |
| [65535.1](#event-655351)   | 0x0145       |     16 |              2 |
| [65535.2](#event-655352)   | 0x0155       |     14 |              2 |
| [65535.3](#event-655353)   | 0x0163       |     16 |              2 |
| [65535.4](#event-655354)   | 0x0173       |     14 |              2 |
| [65535.5](#event-655355)   | 0x0181       |     16 |              2 |
| [65535.6](#event-655356)   | 0x0191       |     14 |              2 |
| [65535.7](#event-655357)   | 0x019F       |     16 |              2 |
| [65535.8](#event-655358)   | 0x01AF       |     14 |              2 |
| [65535.9](#event-655359)   | 0x01BD       |     16 |              2 |
| [65535.10](#event-6553510) | 0x01CD       |     14 |              2 |
| [65535.11](#event-6553511) | 0x01DB       |     16 |              2 |
| [65535.12](#event-6553512) | 0x01EB       |     14 |              2 |
| [65535.13](#event-6553513) | 0x01F9       |      9 |              3 |
| [239](#event-239)          | 0x0202       |      1 |              1 |
| [65535.14](#event-6553514) | 0x0203       |     10 |              2 |
| [242](#event-242)          | 0x020D       |     47 |             14 |
| [241](#event-241)          | 0x023C       |      1 |              1 |
| [65535.15](#event-6553515) | 0x023D       |     15 |              5 |
| [65535.16](#event-6553516) | 0x024C       |     15 |              5 |
| [243](#event-243)          | 0x025B       |     47 |             14 |

## DAT References (imed_data)

|   Index | Hex Value   |   Dec Value |
|---------|-------------|-------------|
|       0 | 0x3D06      |       15622 |
|       1 | 0x2B07      |       11015 |
|       2 | 0x0014      |          20 |
|       3 | 0x2B08      |       11016 |
|       4 | 0x2B09      |       11017 |
|       5 | 0x2B0A      |       11018 |
|       6 | 0x2B0B      |       11019 |
|       7 | 0x2B0C      |       11020 |
|       8 | 0x2B0D      |       11021 |
|       9 | 0x00AD      |         173 |
|      10 | 0x2B0E      |       11022 |
|      11 | 0x2B0F      |       11023 |
|      12 | 0x2B10      |       11024 |
|      13 | 0x2B11      |       11025 |
|      14 | 0x2B13      |       11027 |
|      15 | 0x2B14      |       11028 |
|      16 | 0x001E      |          30 |
|      17 | 0x0019      |          25 |
|      18 | 0xC4E6      |       50406 |
|      19 | 0xFFFFFFD4  |  4294967252 |
|      20 | 0x06E5      |        1765 |
|      21 | 0x2F6F      |       12143 |
|      22 | 0x2F6B      |       12139 |
|      23 | 0x000D      |          13 |
|      24 | 0x0018      |          24 |
|      25 | 0xC813      |       51219 |
|      26 | 0x2F7D      |       12157 |
|      27 | 0x2F7C      |       12156 |

## String References

- **11015**: I am Virnage, a friar, from the San d'Oria Cathedral. Coming to Bastok is part of my pilgrimage.
- **11016**: I was to return to San d'Oria after praying at the Crag of Dem...
- **11017**: But I've seen something horrible here that demanded that I stay. The statue of the Goddess in the Metalworks--yes, its placement is deplorable, too--its paint is peeling off!
- **11018**: I cannot believe that no one here noticed! That statue's paint is specifically made to endure the rigors of time! It is supposed to last dozens of years!
- **11019**: Ah, but there is hope. I once read an account of friars carrying off a batch of paint with them as they sought a place of safety during the Great War!
- **11020**: They stayed in a citadel on the Sauromugue Champaign. The paint may be there still! I have heard people here say you are a great adventurer. Please, help the Goddess in Her hour of need!
- **11021**: Please, the Goddess needs your help!
- **11022**: Ah! You've found the $3! May the Goddess bless your soul!
- **11023**: I would like to repay you for your deeds, but I have nothing to give you at the moment.
- **11024**: Here, I will give you this letter. Bring it to Eperdur in the San d'Oria Cathedral. I am sure he will give you a reward.
- **11025**: May the Gates of Paradise open for you.
- **11027**: The Goddess's image has been restored! Yet...I've received word from the cathedral that my pilgrimage is not yet complete.
- **11028**: The Gates of Paradise are very far, indeed...
- **12139**: Would you be willing to discover the truth behind this theological enigma?
- **12143**: The $3 bears the same symbol that adorns the book of worship. Presenting this to the Moblins should help you determine where their true faith lies.
- **12156**: We must report the existence of this Galka to Ayame of the Mythril Musketeers.
- **12157**: If these beastmen are capable of living alongside people, we cannot simply brand them as villains...
- **15622**: Praise be to the Goddess... Thank you, friend. I gratefully accept the blessing of your Starlight Celebration present. May your kindness be rewarded tenfold.

## Events

### Event 65535

#### Metadata

| Field        | Value   |
|--------------|---------|
| Entrypoint   | 0x0000  |
| Data Size    | 1 bytes |
| Instructions | 1       |

```
      00 01 02 03 04 05 06 07  08 09 0A 0B 0C 0D 0E 0F
      -- -- -- -- -- -- -- --  -- -- -- -- -- -- -- --
0000: 00                                                .               
```

#### Opcodes

```
  0: 0x0000 [0x00] END_REQSTACK()
```

### Event 32691

#### Metadata

| Field        | Value    |
|--------------|----------|
| Entrypoint   | 0x0001   |
| Data Size    | 12 bytes |
| Instructions | 6        |

```
      00 01 02 03 04 05 06 07  08 09 0A 0B 0C 0D 0E 0F
      -- -- -- -- -- -- -- --  -- -- -- -- -- -- -- --
0000:    42 1E F0 FF FF 7F 1D  00 80 23 21 00            B........#!.   
```

#### Opcodes

```
  0: 0x0001 [0x42] SET_CLI_EVENT_CANCEL_DATA()
  1: 0x0002 [0x1E] EventEntity looks at LocalPlayer and starts talking
  2: 0x0007 [0x1D] PRINT_EVENT_MESSAGE(message_id=15622*)
    → "Praise be to the Goddess... Thank you, friend. I gratefully accept the blessing of your Starlight Celebration present. May your kindness be rewarded tenfold."
  3: 0x000A [0x23] WAIT_FOR_DIALOG_INTERACTION
  4: 0x000B [0x21] END_EVENT
  5: 0x000C [0x00] END_REQSTACK()
```

### Event 140

#### Metadata

| Field        | Value    |
|--------------|----------|
| Entrypoint   | 0x000D   |
| Data Size    | 11 bytes |
| Instructions | 5        |

```
      00 01 02 03 04 05 06 07  08 09 0A 0B 0C 0D 0E 0F
      -- -- -- -- -- -- -- --  -- -- -- -- -- -- -- --
0000:                                         1E F0 FF               ...
0010: FF 7F 1D 01 80 23 21 00                           .....#!.        
```

#### Opcodes

```
  0: 0x000D [0x1E] EventEntity looks at LocalPlayer and starts talking
  1: 0x0012 [0x1D] PRINT_EVENT_MESSAGE(message_id=11015*)
    → "I am Virnage, a friar, from the San d'Oria Cathedral. Coming to Bastok is part of my pilgrimage."
  2: 0x0015 [0x23] WAIT_FOR_DIALOG_INTERACTION
  3: 0x0016 [0x21] END_EVENT
  4: 0x0017 [0x00] END_REQSTACK()
```

### Event 141

#### Metadata

| Field        | Value     |
|--------------|-----------|
| Entrypoint   | 0x0018    |
| Data Size    | 132 bytes |
| Instructions | 24        |

```
      00 01 02 03 04 05 06 07  08 09 0A 0B 0C 0D 0E 0F
      -- -- -- -- -- -- -- --  -- -- -- -- -- -- -- --
0010:                          1E F0 FF FF 7F 1D 01 80          ........
0020: 23 6F 70 5B 02 80 F8 FF  FF 7F F8 FF FF 7F 74 6C  #op[..........tl
0030: 6B 30 1D 03 80 23 1D 04  80 23 53 F8 FF FF 7F F8  k0...#...#S.....
0040: FF FF 7F 74 6C 6B 30 5B  02 80 F8 FF FF 7F F8 FF  ...tlk0[........
0050: FF 7F 74 6C 6B 31 1D 05  80 23 5B 02 80 F8 FF FF  ..tlk1...#[.....
0060: 7F F8 FF FF 7F 74 68 6B  31 1D 06 80 23 53 F8 FF  .....thk1...#S..
0070: FF 7F F8 FF FF 7F 74 68  6B 31 5B 02 80 F8 FF FF  ......thk1[.....
0080: 7F F8 FF FF 7F 74 68 6B  32 1D 07 80 23 53 F8 FF  .....thk2...#S..
0090: FF 7F F8 FF FF 7F 74 68  6B 32 21 00              ......thk2!.    
```

#### Opcodes

```
  0: 0x0018 [0x1E] EventEntity looks at LocalPlayer and starts talking
  1: 0x001D [0x1D] PRINT_EVENT_MESSAGE(message_id=11015*)
    → "I am Virnage, a friar, from the San d'Oria Cathedral. Coming to Bastok is part of my pilgrimage."
  2: 0x0020 [0x23] WAIT_FOR_DIALOG_INTERACTION
  3: 0x0021 [0x6F] WAIT_FRAME_DELAY: Yield until WaitTime reaches zero
  4: 0x0022 [0x70] WAIT_ENTITY_RENDER_FLAG: Wait while EventEntity->Render.Flags3 bit 2 is set (cancel turn if not)
  5: 0x0023 [0x5B] LOAD_EXT_SCHEDULER: Load scheduler "tlk0" with entities [EventEntity, EventEntity], work=20*
  6: 0x0032 [0x1D] PRINT_EVENT_MESSAGE(message_id=11016*)
    → "I was to return to San d'Oria after praying at the Crag of Dem..."
  7: 0x0035 [0x23] WAIT_FOR_DIALOG_INTERACTION
  8: 0x0036 [0x1D] PRINT_EVENT_MESSAGE(message_id=11017*)
    → "But I've seen something horrible here that demanded that I stay. The statue of the Goddess in the Metalworks--yes, its placement is deplorable, too--its paint is peeling off!"
  9: 0x0039 [0x23] WAIT_FOR_DIALOG_INTERACTION
 10: 0x003A [0x53] WAIT_SCHEDULER_TASK: Wait for scheduler "tlk0" with entities [EventEntity, EventEntity]
 11: 0x0047 [0x5B] LOAD_EXT_SCHEDULER: Load scheduler "tlk1" with entities [EventEntity, EventEntity], work=20*
 12: 0x0056 [0x1D] PRINT_EVENT_MESSAGE(message_id=11018*)
    → "I cannot believe that no one here noticed! That statue's paint is specifically made to endure the rigors of time! It is supposed to last dozens of years!"
 13: 0x0059 [0x23] WAIT_FOR_DIALOG_INTERACTION
 14: 0x005A [0x5B] LOAD_EXT_SCHEDULER: Load scheduler "thk1" with entities [EventEntity, EventEntity], work=20*
 15: 0x0069 [0x1D] PRINT_EVENT_MESSAGE(message_id=11019*)
    → "Ah, but there is hope. I once read an account of friars carrying off a batch of paint with them as they sought a place of safety during the Great War!"
 16: 0x006C [0x23] WAIT_FOR_DIALOG_INTERACTION
 17: 0x006D [0x53] WAIT_SCHEDULER_TASK: Wait for scheduler "thk1" with entities [EventEntity, EventEntity]
 18: 0x007A [0x5B] LOAD_EXT_SCHEDULER: Load scheduler "thk2" with entities [EventEntity, EventEntity], work=20*
 19: 0x0089 [0x1D] PRINT_EVENT_MESSAGE(message_id=11020*)
    → "They stayed in a citadel on the Sauromugue Champaign. The paint may be there still! I have heard people here say you are a great adventurer. Please, help the Goddess in Her hour of need!"
 20: 0x008C [0x23] WAIT_FOR_DIALOG_INTERACTION
 21: 0x008D [0x53] WAIT_SCHEDULER_TASK: Wait for scheduler "thk2" with entities [EventEntity, EventEntity]
 22: 0x009A [0x21] END_EVENT
 23: 0x009B [0x00] END_REQSTACK()
```

### Event 142

#### Metadata

| Field        | Value    |
|--------------|----------|
| Entrypoint   | 0x009C   |
| Data Size    | 11 bytes |
| Instructions | 5        |

```
      00 01 02 03 04 05 06 07  08 09 0A 0B 0C 0D 0E 0F
      -- -- -- -- -- -- -- --  -- -- -- -- -- -- -- --
0090:                                      1E F0 FF FF              ....
00A0: 7F 1D 08 80 23 21 00                              ....#!.         
```

#### Opcodes

```
  0: 0x009C [0x1E] EventEntity looks at LocalPlayer and starts talking
  1: 0x00A1 [0x1D] PRINT_EVENT_MESSAGE(message_id=11021*)
    → "Please, the Goddess needs your help!"
  2: 0x00A4 [0x23] WAIT_FOR_DIALOG_INTERACTION
  3: 0x00A5 [0x21] END_EVENT
  4: 0x00A6 [0x00] END_REQSTACK()
```

### Event 143

#### Metadata

| Field        | Value    |
|--------------|----------|
| Entrypoint   | 0x00A7   |
| Data Size    | 87 bytes |
| Instructions | 19       |

```
      00 01 02 03 04 05 06 07  08 09 0A 0B 0C 0D 0E 0F
      -- -- -- -- -- -- -- --  -- -- -- -- -- -- -- --
00A0:                      42  1E F0 FF FF 7F 03 09 10         B........
00B0: 09 80 1D 0A 80 23 6F 70  5B 02 80 F8 FF FF 7F F8  .....#op[.......
00C0: FF FF 7F 70 61 73 30 1D  0B 80 23 1D 0C 80 23 53  ...pas0...#...#S
00D0: F8 FF FF 7F F8 FF FF 7F  70 61 73 30 5B 02 80 F8  ........pas0[...
00E0: FF FF 7F F8 FF FF 7F 69  6E 6F 30 1D 0D 80 23 53  .......ino0...#S
00F0: F8 FF FF 7F F8 FF FF 7F  69 6E 6F 30 21 00        ........ino0!.  
```

#### Opcodes

```
  0: 0x00A7 [0x42] SET_CLI_EVENT_CANCEL_DATA()
  1: 0x00A8 [0x1E] EventEntity looks at LocalPlayer and starts talking
  2: 0x00AD [0x03] Work_Zone[9] = 173*
  3: 0x00B2 [0x1D] PRINT_EVENT_MESSAGE(message_id=11022*)
    → "Ah! You've found the $3! May the Goddess bless your soul!"
  4: 0x00B5 [0x23] WAIT_FOR_DIALOG_INTERACTION
  5: 0x00B6 [0x6F] WAIT_FRAME_DELAY: Yield until WaitTime reaches zero
  6: 0x00B7 [0x70] WAIT_ENTITY_RENDER_FLAG: Wait while EventEntity->Render.Flags3 bit 2 is set (cancel turn if not)
  7: 0x00B8 [0x5B] LOAD_EXT_SCHEDULER: Load scheduler "pas0" with entities [EventEntity, EventEntity], work=20*
  8: 0x00C7 [0x1D] PRINT_EVENT_MESSAGE(message_id=11023*)
    → "I would like to repay you for your deeds, but I have nothing to give you at the moment."
  9: 0x00CA [0x23] WAIT_FOR_DIALOG_INTERACTION
 10: 0x00CB [0x1D] PRINT_EVENT_MESSAGE(message_id=11024*)
    → "Here, I will give you this letter. Bring it to Eperdur in the San d'Oria Cathedral. I am sure he will give you a reward."
 11: 0x00CE [0x23] WAIT_FOR_DIALOG_INTERACTION
 12: 0x00CF [0x53] WAIT_SCHEDULER_TASK: Wait for scheduler "pas0" with entities [EventEntity, EventEntity]
 13: 0x00DC [0x5B] LOAD_EXT_SCHEDULER: Load scheduler "ino0" with entities [EventEntity, EventEntity], work=20*
 14: 0x00EB [0x1D] PRINT_EVENT_MESSAGE(message_id=11025*)
    → "May the Gates of Paradise open for you."
 15: 0x00EE [0x23] WAIT_FOR_DIALOG_INTERACTION
 16: 0x00EF [0x53] WAIT_SCHEDULER_TASK: Wait for scheduler "ino0" with entities [EventEntity, EventEntity]
 17: 0x00FC [0x21] END_EVENT
 18: 0x00FD [0x00] END_REQSTACK()
```

### Event 144

#### Metadata

| Field        | Value    |
|--------------|----------|
| Entrypoint   | 0x00FE   |
| Data Size    | 41 bytes |
| Instructions | 9        |

```
      00 01 02 03 04 05 06 07  08 09 0A 0B 0C 0D 0E 0F
      -- -- -- -- -- -- -- --  -- -- -- -- -- -- -- --
00F0:                                            1E F0                ..
0100: FF FF 7F 6F 70 5B 02 80  F8 FF FF 7F F8 FF FF 7F  ...op[..........
0110: 69 6E 6F 30 1D 0D 80 23  53 F8 FF FF 7F F8 FF FF  ino0...#S.......
0120: 7F 69 6E 6F 30 21 00                              .ino0!.         
```

#### Opcodes

```
  0: 0x00FE [0x1E] EventEntity looks at LocalPlayer and starts talking
  1: 0x0103 [0x6F] WAIT_FRAME_DELAY: Yield until WaitTime reaches zero
  2: 0x0104 [0x70] WAIT_ENTITY_RENDER_FLAG: Wait while EventEntity->Render.Flags3 bit 2 is set (cancel turn if not)
  3: 0x0105 [0x5B] LOAD_EXT_SCHEDULER: Load scheduler "ino0" with entities [EventEntity, EventEntity], work=20*
  4: 0x0114 [0x1D] PRINT_EVENT_MESSAGE(message_id=11025*)
    → "May the Gates of Paradise open for you."
  5: 0x0117 [0x23] WAIT_FOR_DIALOG_INTERACTION
  6: 0x0118 [0x53] WAIT_SCHEDULER_TASK: Wait for scheduler "ino0" with entities [EventEntity, EventEntity]
  7: 0x0125 [0x21] END_EVENT
  8: 0x0126 [0x00] END_REQSTACK()
```

### Event 145

#### Metadata

| Field        | Value    |
|--------------|----------|
| Entrypoint   | 0x0127   |
| Data Size    | 30 bytes |
| Instructions | 8        |

```
      00 01 02 03 04 05 06 07  08 09 0A 0B 0C 0D 0E 0F
      -- -- -- -- -- -- -- --  -- -- -- -- -- -- -- --
0120:                      1E  F0 FF FF 7F 1D 0E 80 23         ........#
0130: 5B 02 80 F8 FF FF 7F F8  FF FF 7F 74 6C 6B 30 1D  [..........tlk0.
0140: 0F 80 23 21 00                                    ..#!.           
```

#### Opcodes

```
  0: 0x0127 [0x1E] EventEntity looks at LocalPlayer and starts talking
  1: 0x012C [0x1D] PRINT_EVENT_MESSAGE(message_id=11027*)
    → "The Goddess's image has been restored! Yet...I've received word from the cathedral that my pilgrimage is not yet complete."
  2: 0x012F [0x23] WAIT_FOR_DIALOG_INTERACTION
  3: 0x0130 [0x5B] LOAD_EXT_SCHEDULER: Load scheduler "tlk0" with entities [EventEntity, EventEntity], work=20*
  4: 0x013F [0x1D] PRINT_EVENT_MESSAGE(message_id=11028*)
    → "The Gates of Paradise are very far, indeed..."
  5: 0x0142 [0x23] WAIT_FOR_DIALOG_INTERACTION
  6: 0x0143 [0x21] END_EVENT
  7: 0x0144 [0x00] END_REQSTACK()
```

### Event 65535.1

#### Metadata

| Field        | Value    |
|--------------|----------|
| Entrypoint   | 0x0145   |
| Data Size    | 16 bytes |
| Instructions | 2        |

```
      00 01 02 03 04 05 06 07  08 09 0A 0B 0C 0D 0E 0F
      -- -- -- -- -- -- -- --  -- -- -- -- -- -- -- --
0140:                5B 02 80  F8 FF FF 7F F8 FF FF 7F       [..........
0150: 74 6C 6B 30 00                                    tlk0.           
```

#### Opcodes

```
  0: 0x0145 [0x5B] LOAD_EXT_SCHEDULER: Load scheduler "tlk0" with entities [EventEntity, EventEntity], work=20*
  1: 0x0154 [0x00] END_REQSTACK()
```

### Event 65535.2

#### Metadata

| Field        | Value    |
|--------------|----------|
| Entrypoint   | 0x0155   |
| Data Size    | 14 bytes |
| Instructions | 2        |

```
      00 01 02 03 04 05 06 07  08 09 0A 0B 0C 0D 0E 0F
      -- -- -- -- -- -- -- --  -- -- -- -- -- -- -- --
0150:                53 F8 FF  FF 7F F8 FF FF 7F 74 6C       S........tl
0160: 6B 30 00                                          k0.             
```

#### Opcodes

```
  0: 0x0155 [0x53] WAIT_SCHEDULER_TASK: Wait for scheduler "tlk0" with entities [EventEntity, EventEntity]
  1: 0x0162 [0x00] END_REQSTACK()
```

### Event 65535.3

#### Metadata

| Field        | Value    |
|--------------|----------|
| Entrypoint   | 0x0163   |
| Data Size    | 16 bytes |
| Instructions | 2        |

```
      00 01 02 03 04 05 06 07  08 09 0A 0B 0C 0D 0E 0F
      -- -- -- -- -- -- -- --  -- -- -- -- -- -- -- --
0160:          5B 02 80 F8 FF  FF 7F F8 FF FF 7F 74 6C     [..........tl
0170: 6B 31 00                                          k1.             
```

#### Opcodes

```
  0: 0x0163 [0x5B] LOAD_EXT_SCHEDULER: Load scheduler "tlk1" with entities [EventEntity, EventEntity], work=20*
  1: 0x0172 [0x00] END_REQSTACK()
```

### Event 65535.4

#### Metadata

| Field        | Value    |
|--------------|----------|
| Entrypoint   | 0x0173   |
| Data Size    | 14 bytes |
| Instructions | 2        |

```
      00 01 02 03 04 05 06 07  08 09 0A 0B 0C 0D 0E 0F
      -- -- -- -- -- -- -- --  -- -- -- -- -- -- -- --
0170:          53 F8 FF FF 7F  F8 FF FF 7F 74 6C 6B 31     S........tlk1
0180: 00                                                .               
```

#### Opcodes

```
  0: 0x0173 [0x53] WAIT_SCHEDULER_TASK: Wait for scheduler "tlk1" with entities [EventEntity, EventEntity]
  1: 0x0180 [0x00] END_REQSTACK()
```

### Event 65535.5

#### Metadata

| Field        | Value    |
|--------------|----------|
| Entrypoint   | 0x0181   |
| Data Size    | 16 bytes |
| Instructions | 2        |

```
      00 01 02 03 04 05 06 07  08 09 0A 0B 0C 0D 0E 0F
      -- -- -- -- -- -- -- --  -- -- -- -- -- -- -- --
0180:    5B 02 80 F8 FF FF 7F  F8 FF FF 7F 74 68 6B 31   [..........thk1
0190: 00                                                .               
```

#### Opcodes

```
  0: 0x0181 [0x5B] LOAD_EXT_SCHEDULER: Load scheduler "thk1" with entities [EventEntity, EventEntity], work=20*
  1: 0x0190 [0x00] END_REQSTACK()
```

### Event 65535.6

#### Metadata

| Field        | Value    |
|--------------|----------|
| Entrypoint   | 0x0191   |
| Data Size    | 14 bytes |
| Instructions | 2        |

```
      00 01 02 03 04 05 06 07  08 09 0A 0B 0C 0D 0E 0F
      -- -- -- -- -- -- -- --  -- -- -- -- -- -- -- --
0190:    53 F8 FF FF 7F F8 FF  FF 7F 74 68 6B 31 00      S........thk1. 
```

#### Opcodes

```
  0: 0x0191 [0x53] WAIT_SCHEDULER_TASK: Wait for scheduler "thk1" with entities [EventEntity, EventEntity]
  1: 0x019E [0x00] END_REQSTACK()
```

### Event 65535.7

#### Metadata

| Field        | Value    |
|--------------|----------|
| Entrypoint   | 0x019F   |
| Data Size    | 16 bytes |
| Instructions | 2        |

```
      00 01 02 03 04 05 06 07  08 09 0A 0B 0C 0D 0E 0F
      -- -- -- -- -- -- -- --  -- -- -- -- -- -- -- --
0190:                                               5B                 [
01A0: 02 80 F8 FF FF 7F F8 FF  FF 7F 74 68 6B 32 00     ..........thk2. 
```

#### Opcodes

```
  0: 0x019F [0x5B] LOAD_EXT_SCHEDULER: Load scheduler "thk2" with entities [EventEntity, EventEntity], work=20*
  1: 0x01AE [0x00] END_REQSTACK()
```

### Event 65535.8

#### Metadata

| Field        | Value    |
|--------------|----------|
| Entrypoint   | 0x01AF   |
| Data Size    | 14 bytes |
| Instructions | 2        |

```
      00 01 02 03 04 05 06 07  08 09 0A 0B 0C 0D 0E 0F
      -- -- -- -- -- -- -- --  -- -- -- -- -- -- -- --
01A0:                                               53                 S
01B0: F8 FF FF 7F F8 FF FF 7F  74 68 6B 32 00           ........thk2.   
```

#### Opcodes

```
  0: 0x01AF [0x53] WAIT_SCHEDULER_TASK: Wait for scheduler "thk2" with entities [EventEntity, EventEntity]
  1: 0x01BC [0x00] END_REQSTACK()
```

### Event 65535.9

#### Metadata

| Field        | Value    |
|--------------|----------|
| Entrypoint   | 0x01BD   |
| Data Size    | 16 bytes |
| Instructions | 2        |

```
      00 01 02 03 04 05 06 07  08 09 0A 0B 0C 0D 0E 0F
      -- -- -- -- -- -- -- --  -- -- -- -- -- -- -- --
01B0:                                         5B 02 80               [..
01C0: F8 FF FF 7F F8 FF FF 7F  70 61 73 30 00           ........pas0.   
```

#### Opcodes

```
  0: 0x01BD [0x5B] LOAD_EXT_SCHEDULER: Load scheduler "pas0" with entities [EventEntity, EventEntity], work=20*
  1: 0x01CC [0x00] END_REQSTACK()
```

### Event 65535.10

#### Metadata

| Field        | Value    |
|--------------|----------|
| Entrypoint   | 0x01CD   |
| Data Size    | 14 bytes |
| Instructions | 2        |

```
      00 01 02 03 04 05 06 07  08 09 0A 0B 0C 0D 0E 0F
      -- -- -- -- -- -- -- --  -- -- -- -- -- -- -- --
01C0:                                         53 F8 FF               S..
01D0: FF 7F F8 FF FF 7F 70 61  73 30 00                 ......pas0.     
```

#### Opcodes

```
  0: 0x01CD [0x53] WAIT_SCHEDULER_TASK: Wait for scheduler "pas0" with entities [EventEntity, EventEntity]
  1: 0x01DA [0x00] END_REQSTACK()
```

### Event 65535.11

#### Metadata

| Field        | Value    |
|--------------|----------|
| Entrypoint   | 0x01DB   |
| Data Size    | 16 bytes |
| Instructions | 2        |

```
      00 01 02 03 04 05 06 07  08 09 0A 0B 0C 0D 0E 0F
      -- -- -- -- -- -- -- --  -- -- -- -- -- -- -- --
01D0:                                   5B 02 80 F8 FF             [....
01E0: FF 7F F8 FF FF 7F 69 6E  6F 30 00                 ......ino0.     
```

#### Opcodes

```
  0: 0x01DB [0x5B] LOAD_EXT_SCHEDULER: Load scheduler "ino0" with entities [EventEntity, EventEntity], work=20*
  1: 0x01EA [0x00] END_REQSTACK()
```

### Event 65535.12

#### Metadata

| Field        | Value    |
|--------------|----------|
| Entrypoint   | 0x01EB   |
| Data Size    | 14 bytes |
| Instructions | 2        |

```
      00 01 02 03 04 05 06 07  08 09 0A 0B 0C 0D 0E 0F
      -- -- -- -- -- -- -- --  -- -- -- -- -- -- -- --
01E0:                                   53 F8 FF FF 7F             S....
01F0: F8 FF FF 7F 69 6E 6F 30  00                       ....ino0.       
```

#### Opcodes

```
  0: 0x01EB [0x53] WAIT_SCHEDULER_TASK: Wait for scheduler "ino0" with entities [EventEntity, EventEntity]
  1: 0x01F8 [0x00] END_REQSTACK()
```

### Event 65535.13

#### Metadata

| Field        | Value   |
|--------------|---------|
| Entrypoint   | 0x01F9  |
| Data Size    | 9 bytes |
| Instructions | 3       |

```
      00 01 02 03 04 05 06 07  08 09 0A 0B 0C 0D 0E 0F
      -- -- -- -- -- -- -- --  -- -- -- -- -- -- -- --
01F0:                             5E 69 64 6C 30 1C 10           ^idl0..
0200: 80 00                                             ..              
```

#### Opcodes

```
  0: 0x01F9 [0x5E] EventEntity goes idle (kills current action) (animation: "idl0")
  1: 0x01FE [0x1C] WAIT(30* ticks)
  2: 0x0201 [0x00] END_REQSTACK()
```

### Event 239

#### Metadata

| Field        | Value   |
|--------------|---------|
| Entrypoint   | 0x0202  |
| Data Size    | 1 bytes |
| Instructions | 1       |

```
      00 01 02 03 04 05 06 07  08 09 0A 0B 0C 0D 0E 0F
      -- -- -- -- -- -- -- --  -- -- -- -- -- -- -- --
0200:       00                                            .             
```

#### Opcodes

```
  0: 0x0202 [0x00] END_REQSTACK()
```

### Event 65535.14

#### Metadata

| Field        | Value    |
|--------------|----------|
| Entrypoint   | 0x0203   |
| Data Size    | 10 bytes |
| Instructions | 2        |

```
      00 01 02 03 04 05 06 07  08 09 0A 0B 0C 0D 0E 0F
      -- -- -- -- -- -- -- --  -- -- -- -- -- -- -- --
0200:          37 11 80 12 80  13 80 14 80 00              7.........   
```

#### Opcodes

```
  0: 0x0203 [0x37] UPDATE_EVENT_POSITION_AND_DIR: x=0.025*, z=50.406*, y=-0.044*, direction=155.1°*
  1: 0x020C [0x00] END_REQSTACK()
```

### Event 242

#### Metadata

| Field        | Value    |
|--------------|----------|
| Entrypoint   | 0x020D   |
| Data Size    | 47 bytes |
| Instructions | 14       |

```
      00 01 02 03 04 05 06 07  08 09 0A 0B 0C 0D 0E 0F
      -- -- -- -- -- -- -- --  -- -- -- -- -- -- -- --
0200:                                         1E F0 FF               ...
0210: FF 7F 6F 70 29 08 6A A0  0E 01 08 1D 15 80 23 1D  ..op).j.......#.
0220: 16 80 23 29 08 6A A0 0E  01 09 29 08 6A A0 0E 01  ..#).j....).j...
0230: 0A 29 08 6A A0 0E 01 0B  20 00 21 00              .).j.... .!.    
```

#### Opcodes

```
  0: 0x020D [0x1E] EventEntity looks at LocalPlayer and starts talking
  1: 0x0212 [0x6F] WAIT_FRAME_DELAY: Yield until WaitTime reaches zero
  2: 0x0213 [0x70] WAIT_ENTITY_RENDER_FLAG: Wait while EventEntity->Render.Flags3 bit 2 is set (cancel turn if not)
  3: 0x0214 [0x29] REQ_SET_WAIT(priority=0x08, entity_id=Virnage (ID: 17735786/0x010EA06A), tag_num=0x08)
  4: 0x021B [0x1D] PRINT_EVENT_MESSAGE(message_id=12143*)
    → "The $3 bears the same symbol that adorns the book of worship. Presenting this to the Moblins should help you determine where their true faith lies."
  5: 0x021E [0x23] WAIT_FOR_DIALOG_INTERACTION
  6: 0x021F [0x1D] PRINT_EVENT_MESSAGE(message_id=12139*)
    → "Would you be willing to discover the truth behind this theological enigma?"
  7: 0x0222 [0x23] WAIT_FOR_DIALOG_INTERACTION
  8: 0x0223 [0x29] REQ_SET_WAIT(priority=0x08, entity_id=Virnage (ID: 17735786/0x010EA06A), tag_num=0x09)
  9: 0x022A [0x29] REQ_SET_WAIT(priority=0x08, entity_id=Virnage (ID: 17735786/0x010EA06A), tag_num=0x0A)
 10: 0x0231 [0x29] REQ_SET_WAIT(priority=0x08, entity_id=Virnage (ID: 17735786/0x010EA06A), tag_num=0x0B)
 11: 0x0238 [0x20] SET_CLI_EVENT_UC_FLAG: Unlock player control
 12: 0x023A [0x21] END_EVENT
 13: 0x023B [0x00] END_REQSTACK()
```

### Event 241

#### Metadata

| Field        | Value   |
|--------------|---------|
| Entrypoint   | 0x023C  |
| Data Size    | 1 bytes |
| Instructions | 1       |

```
      00 01 02 03 04 05 06 07  08 09 0A 0B 0C 0D 0E 0F
      -- -- -- -- -- -- -- --  -- -- -- -- -- -- -- --
0230:                                      00                       .   
```

#### Opcodes

```
  0: 0x023C [0x00] END_REQSTACK()
```

### Event 65535.15

#### Metadata

| Field        | Value    |
|--------------|----------|
| Entrypoint   | 0x023D   |
| Data Size    | 15 bytes |
| Instructions | 5        |

```
      00 01 02 03 04 05 06 07  08 09 0A 0B 0C 0D 0E 0F
      -- -- -- -- -- -- -- --  -- -- -- -- -- -- -- --
0230:                                         32 17 80               2..
0240: 1F 00 18 80 19 80 13 80  1F 01 6F 00              ..........o.    
```

#### Opcodes

```
  0: 0x023D [0x32] ExtData[1]->MainSpeed = 13* * 0.1
  1: 0x0240 [0x1F] MOVE_ENTITY: EventEntity moves to X=0.024*, Z=51.219*, Y=-0.044*
  2: 0x0248 [0x1F] MOVE_ENTITY: Update entity position (mode=1)
  3: 0x024A [0x6F] WAIT_FRAME_DELAY: Yield until WaitTime reaches zero
  4: 0x024B [0x00] END_REQSTACK()
```

### Event 65535.16

#### Metadata

| Field        | Value    |
|--------------|----------|
| Entrypoint   | 0x024C   |
| Data Size    | 15 bytes |
| Instructions | 5        |

```
      00 01 02 03 04 05 06 07  08 09 0A 0B 0C 0D 0E 0F
      -- -- -- -- -- -- -- --  -- -- -- -- -- -- -- --
0240:                                      32 17 80 1F              2...
0250: 00 11 80 12 80 13 80 1F  01 6F 00                 .........o.     
```

#### Opcodes

```
  0: 0x024C [0x32] ExtData[1]->MainSpeed = 13* * 0.1
  1: 0x024F [0x1F] MOVE_ENTITY: EventEntity moves to X=0.025*, Z=50.406*, Y=-0.044*
  2: 0x0257 [0x1F] MOVE_ENTITY: Update entity position (mode=1)
  3: 0x0259 [0x6F] WAIT_FRAME_DELAY: Yield until WaitTime reaches zero
  4: 0x025A [0x00] END_REQSTACK()
```

### Event 243

#### Metadata

| Field        | Value    |
|--------------|----------|
| Entrypoint   | 0x025B   |
| Data Size    | 47 bytes |
| Instructions | 14       |

```
      00 01 02 03 04 05 06 07  08 09 0A 0B 0C 0D 0E 0F
      -- -- -- -- -- -- -- --  -- -- -- -- -- -- -- --
0250:                                   1E F0 FF FF 7F             .....
0260: 6F 70 29 08 6A A0 0E 01  08 1D 1A 80 23 1D 1B 80  op).j.......#...
0270: 23 29 08 6A A0 0E 01 09  29 08 6A A0 0E 01 0A 29  #).j....).j....)
0280: 08 6A A0 0E 01 0B 20 00  21 00                    .j.... .!.      
```

#### Opcodes

```
  0: 0x025B [0x1E] EventEntity looks at LocalPlayer and starts talking
  1: 0x0260 [0x6F] WAIT_FRAME_DELAY: Yield until WaitTime reaches zero
  2: 0x0261 [0x70] WAIT_ENTITY_RENDER_FLAG: Wait while EventEntity->Render.Flags3 bit 2 is set (cancel turn if not)
  3: 0x0262 [0x29] REQ_SET_WAIT(priority=0x08, entity_id=Virnage (ID: 17735786/0x010EA06A), tag_num=0x08)
  4: 0x0269 [0x1D] PRINT_EVENT_MESSAGE(message_id=12157*)
    → "If these beastmen are capable of living alongside people, we cannot simply brand them as villains..."
  5: 0x026C [0x23] WAIT_FOR_DIALOG_INTERACTION
  6: 0x026D [0x1D] PRINT_EVENT_MESSAGE(message_id=12156*)
    → "We must report the existence of this Galka to Ayame of the Mythril Musketeers."
  7: 0x0270 [0x23] WAIT_FOR_DIALOG_INTERACTION
  8: 0x0271 [0x29] REQ_SET_WAIT(priority=0x08, entity_id=Virnage (ID: 17735786/0x010EA06A), tag_num=0x09)
  9: 0x0278 [0x29] REQ_SET_WAIT(priority=0x08, entity_id=Virnage (ID: 17735786/0x010EA06A), tag_num=0x0A)
 10: 0x027F [0x29] REQ_SET_WAIT(priority=0x08, entity_id=Virnage (ID: 17735786/0x010EA06A), tag_num=0x0B)
 11: 0x0286 [0x20] SET_CLI_EVENT_UC_FLAG: Unlock player control
 12: 0x0288 [0x21] END_EVENT
 13: 0x0289 [0x00] END_REQSTACK()
```
