# 17735712 - Titus

## Common Data

| Field            | Value                  |
|------------------|------------------------|
| Zone             | Bastok Mines (ID: 234) |
| Block Size       | 2896 bytes             |
| Total Events     | 6                      |
| References Count | 88                     |

## List of Events

| Event ID                 | Entrypoint   |   Size |   Instructions |
|--------------------------|--------------|--------|----------------|
| [65535](#event-65535)    | 0x0000       |      1 |              1 |
| [587](#event-587)        | 0x0001       |    720 |            117 |
| [588](#event-588)        | 0x02D1       |     10 |              6 |
| [589](#event-589)        | 0x02DB       |   1392 |            192 |
| [65535.1](#event-655351) | 0x084B       |      1 |              1 |
| [123](#event-123)        | 0x084C       |    380 |             90 |

## DAT References (imed_data)

|   Index | Hex Value   |   Dec Value |
|---------|-------------|-------------|
|       0 | 0x00C8      |         200 |
|       1 | 0x0000      |           0 |
|       2 | 0x003C      |          60 |
|       3 | 0x0013      |          19 |
|       4 | 0x0103      |         259 |
|       5 | 0x1E7F0     |      124912 |
|       6 | 0xFFFFD98C  |  4294957452 |
|       7 | 0x07E1      |        2017 |
|       8 | 0x0F86      |        3974 |
|       9 | 0x0156      |         342 |
|      10 | 0x3740      |       14144 |
|      11 | 0x3741      |       14145 |
|      12 | 0x3742      |       14146 |
|      13 | 0x0001      |           1 |
|      14 | 0x0007      |           7 |
|      15 | 0x005A      |          90 |
|      16 | 0x3744      |       14148 |
|      17 | 0x0006      |           6 |
|      18 | 0x3743      |       14147 |
|      19 | 0x3745      |       14149 |
|      20 | 0x3746      |       14150 |
|      21 | 0x3747      |       14151 |
|      22 | 0x3748      |       14152 |
|      23 | 0x3749      |       14153 |
|      24 | 0x374B      |       14155 |
|      25 | 0x374A      |       14154 |
|      26 | 0x00B4      |         180 |
|      27 | 0x1EEFE     |      126718 |
|      28 | 0xFFFFDBEE  |  4294958062 |
|      29 | 0x0782      |        1922 |
|      30 | 0x0499      |        1177 |
|      31 | 0x374C      |       14156 |
|      32 | 0x00F0      |         240 |
|      33 | 0x374D      |       14157 |
|      34 | 0x049A      |        1178 |
|      35 | 0x374E      |       14158 |
|      36 | 0x374F      |       14159 |
|      37 | 0x3750      |       14160 |
|      38 | 0x3751      |       14161 |
|      39 | 0x3752      |       14162 |
|      40 | 0x3753      |       14163 |
|      41 | 0x3754      |       14164 |
|      42 | 0x001E      |          30 |
|      43 | 0x00BC      |         188 |
|      44 | 0x012C      |         300 |
|      45 | 0x000B      |          11 |
|      46 | 0x3755      |       14165 |
|      47 | 0x3756      |       14166 |
|      48 | 0x3757      |       14167 |
|      49 | 0x00BF      |         191 |
|      50 | 0x0015      |          21 |
|      51 | 0x0078      |         120 |
|      52 | 0x0021      |          33 |
|      53 | 0x3758      |       14168 |
|      54 | 0x3759      |       14169 |
|      55 | 0x0009      |           9 |
|      56 | 0x375A      |       14170 |
|      57 | 0x0010      |          16 |
|      58 | 0x0016      |          22 |
|      59 | 0x000C      |          12 |
|      60 | 0x0018      |          24 |
|      61 | 0x375B      |       14171 |
|      62 | 0x0024      |          36 |
|      63 | 0x375C      |       14172 |
|      64 | 0x375D      |       14173 |
|      65 | 0x375E      |       14174 |
|      66 | 0x4564      |       17764 |
|      67 | 0x375F      |       14175 |
|      68 | 0x3760      |       14176 |
|      69 | 0x000D      |          13 |
|      70 | 0x3761      |       14177 |
|      71 | 0x3762      |       14178 |
|      72 | 0x3763      |       14179 |
|      73 | 0x3764      |       14180 |
|      74 | 0x00C9      |         201 |
|      75 | 0x1BB0      |        7088 |
|      76 | 0x0002      |           2 |
|      77 | 0x1BFD      |        7165 |
|      78 | 0x1BFF      |        7167 |
|      79 | 0x1C00      |        7168 |
|      80 | 0x1BB5      |        7093 |
|      81 | 0x1BDB      |        7131 |
|      82 | 0x1BB9      |        7097 |
|      83 | 0x1BB8      |        7096 |
|      84 | 0x1BB7      |        7095 |
|      85 | 0x1BB6      |        7094 |
|      86 | 0x1C01      |        7169 |
|      87 | 0x1BFC      |        7164 |

## String References

- **7088**: Request...? [[Advanced synthesis/Synthesis/Synthesis] image support./Information on synthesis materials./Nothing.]
- **7093**: Necessary skills: [Fishing/Woodworking/Smithing/Goldsmithing/Clothcraft/Leatherworking/Bonecraft/Alchemy/Cooking][ /, Woodworking/, Smithing/, Goldsmithing/, Clothcraft/, Leatherworking/, Bonecraft/, Alchemy/, Cooking][ /, Woodworking/, Smithing/, Goldsmithing/, Clothcraft/, Leatherworking/, Bonecraft/, Alchemy/, Cooking][ /, & Woodworking/, & Smithing/, & Goldsmithing/, & Clothcraft/, & Leatherworking/, & Bonecraft/, & Alchemy/, & Cooking] Necessary crystal: $4 Necessary items:
- **7094**: $4 x $0 $5 x $0$0 $6 x $0 $7 x $0$3
- **7095**: $4 x $0 $5 x $0$0 $6 x $0
- **7096**: $4 x $0 $5 x $0$0
- **7097**: $4 x $0
- **7131**: Necessary skills: [Fishing/Woodworking/Smithing/Goldsmithing/Clothcraft/Leatherworking/Bonecraft/Alchemy/Cooking][ /, Woodworking/, Smithing/, Goldsmithing/, Clothcraft/, Leatherworking/, Bonecraft/, Alchemy/, Cooking][ /, Woodworking/, Smithing/, Goldsmithing/, Clothcraft/, Leatherworking/, Bonecraft/, Alchemy/, Cooking][ /, & Woodworking/, & Smithing/, & Goldsmithing/, & Clothcraft/, & Leatherworking/, & Bonecraft/, & Alchemy/, & Cooking] Necessary crystal: $4 Necessary key item: $3 Necessary items:
- **7164**: Off, off, off with you! I'm on the verge of transforming an Elshimo frog into gold!
- **7165**: If you have not yet realized, we have our own work as well.
- **7167**: Hopefully this will not take too long. Are you ready?
- **7168**: If it means I can get back to my work, jot down this data on $0 and leave me be.
- **7169**: There. Now be off with you. I must be getting back to my experiments.
- **14144**: Ahhh, the pain! The sheer agony! Here I stand on the verge of the single greatest breakthrough in the long and storied history of the alchemical arts, and--the Twilight God take me--I lack for the key ingredient necessary to consummate my life's work! If only--
- **14145**: Wait...could it be!? That battle-ready posture! That confident mien! No, no, you needn't tell me! You're an adventurer, come to help a troubled genius in his time of dire need! Am I right or am I right?
- **14146**: Am I right? [Uh...you're right./Couldn't be more wrong.]
- **14147**: Ah, for shame! To think the world must wait until another day to bask in the brilliance of my unprecedented discovery!
- **14148**: I knew it! My wits are as sharp as ever, if I say so myself--which I just did!
- **14149**: As you see, the supremely complex experiment I'm conducting demands nothing short of my undivided attention, so I hope you'll forgive me if I speak to you from here.
- **14150**: At any rate, here is the task I would entrust to you. Certainly an adventurer of your caliber has heard of--perhaps even set foot in--the mountainous crags that lie beyond Gustaberg: the area they call Grauberg.
- **14151**: It is there, sleeping in the bed of a river that runs beneath a mountain vast, that one can find a very special variety of gold dust, imbued with just a speck, a smidgen, a sliver of magical energy! ...Or so they say.
- **14152**: I would ask you to venture to Grauberg and retrieve this vital ingredient for me, that the world--nay, the universe--might reap the harvest sown by the seeds of my immense genius! What say you, adventurer?
- **14153**: What say you? [Leave it to me!/I say do your own work.]
- **14154**: What!? I'm offering you a once-in-a-lifetime opportunity to share in a groundbreaking moment that will go down in the annals of science, and you would simply walk away!? I know not what vile madness takes you, [man/woman], but may the Goddess have mercy on your soul!
- **14155**: Ah, excellent! Excellent! I knew it from the start--clearly, you're a [man/woman] with a sense for history in the making!
- **14159**: My adventuring friend! Have you managed to secure the enchanted gold dust I seek? Why, we mustn't keep the world waiting any longer--a truly epoch-making moment hangs in the balance!
- **14160**: How to get to Grauberg, you ask? Come to think of it, the path leading there has been obstructed for as long as I can remember. But hey, you're the adventurer--I'm sure you'll figure something out! Now, chop chop!
- **14161**: Wait, could it be!? That self-satisfied expression! That sprightly gait! No, no, don't tell me, now! You've returned triumphant with the ingredient I seek! Am I right or am I right?

## Events

### Event 65535

#### Metadata

| Field        | Value   |
|--------------|---------|
| Entrypoint   | 0x0000  |
| Data Size    | 1 bytes |
| Instructions | 1       |

```
      00 01 02 03 04 05 06 07  08 09 0A 0B 0C 0D 0E 0F
      -- -- -- -- -- -- -- --  -- -- -- -- -- -- -- --
0000: 00                                                .               
```

#### Opcodes

```
  0: 0x0000 [0x00] END_REQSTACK()
```

### Event 587

#### Metadata

| Field        | Value     |
|--------------|-----------|
| Entrypoint   | 0x0001    |
| Data Size    | 720 bytes |
| Instructions | 97        |

```
      00 01 02 03 04 05 06 07  08 09 0A 0B 0C 0D 0E 0F
      -- -- -- -- -- -- -- --  -- -- -- -- -- -- -- --
0000:    42 20 01 46 01 45 00  80 F0 FF FF 7F F0 FF FF   B .F.E.........
0010: 7F 66 64 6F 31 01 80 1C  02 80 38 03 80 75 00 04  .fdo1.....8..u..
0020: 80 75 01 BA F0 FF FF 7F  05 80 06 80 07 80 08 80  .u..............
0030: 80 F0 FF FF 7F 80 20 A0  0E 01 80 1E A0 0E 01 80  ...... .........
0040: 1F A0 0E 01 80 21 A0 0E  01 80 82 A0 0E 01 4E 00  .....!........N.
0050: F8 FF FF 7F 92 01 20 A0  0E 01 79 00 F0 FF FF 7F  ...... ...y.....
0060: F8 FF FF 7F 45 09 80 F0  FF FF 7F F0 FF FF 7F 35  ....E..........5
0070: 37 30 31 01 80 45 00 80  F0 FF FF 7F F0 FF FF 7F  701..E..........
0080: 66 64 69 31 01 80 1C 02  80 1D 0A 80 23 52 09 80  fdi1........#R..
0090: F0 FF FF 7F F0 FF FF 7F  35 37 30 31 45 09 80 F0  ........5701E...
00A0: FF FF 7F F0 FF FF 7F 35  37 30 32 01 80 1D 0B 80  .......5702.....
00B0: 23 24 0C 80 0D 80 01 80  25 02 00 10 01 80 00 DF  #$......%.......
00C0: 00 6E F0 FF FF 7F 0E 80  99 F0 FF FF 7F 99 F0 FF  .n..............
00D0: FF 7F 1C 0F 80 1D 10 80  23 01 05 01 01 05 01 02  ........#.......
00E0: 00 10 0D 80 00 05 01 6E  F0 FF FF 7F 11 80 99 F0  .......n........
00F0: FF FF 7F 99 F0 FF FF 7F  1C 0F 80 1D 12 80 23 01  ..............#.
0100: 97 02 01 05 01 1D 13 80  23 52 09 80 F0 FF FF 7F  ........#R......
0110: F0 FF FF 7F 35 37 30 32  45 09 80 F0 FF FF 7F F0  ....5702E.......
0120: FF FF 7F 35 37 30 33 01  80 1D 14 80 23 1D 15 80  ...5703.....#...
0130: 23 52 09 80 F0 FF FF 7F  F0 FF FF 7F 35 37 30 33  #R..........5703
0140: 45 09 80 F0 FF FF 7F F0  FF FF 7F 35 37 30 34 01  E..........5704.
0150: 80 1D 16 80 23 24 17 80  0D 80 01 80 25 02 00 10  ....#$......%...
0160: 01 80 00 83 01 6E F0 FF  FF 7F 0E 80 99 F0 FF FF  .....n..........
0170: 7F 99 F0 FF FF 7F 1C 0F  80 1D 18 80 23 01 A9 01  ............#...
0180: 01 A9 01 02 00 10 0D 80  00 A9 01 6E F0 FF FF 7F  ...........n....
0190: 11 80 99 F0 FF FF 7F 99  F0 FF FF 7F 1C 0F 80 1D  ................
01A0: 19 80 23 01 97 02 01 A9  01 45 00 80 F0 FF FF 7F  ..#......E......
01B0: F0 FF FF 7F 66 64 6F 31  01 80 1C 1A 80 4E 01 F8  ....fdo1.....N..
01C0: FF FF 7F 2F 00 8B A0 0E  01 4E 00 8B A0 0E 01 BA  .../.....N......
01D0: 8B A0 0E 01 1B 80 1C 80  07 80 1D 80 80 8B A0 0E  ................
01E0: 01 92 01 8B A0 0E 01 4A  8B A0 0E 01 F0 FF FF 7F  .......J........
01F0: 6F 70 4A F0 FF FF 7F 8B  A0 0E 01 52 09 80 F0 FF  opJ........R....
0200: FF 7F F0 FF FF 7F 35 37  30 34 45 09 80 F0 FF FF  ......5704E.....
0210: 7F F0 FF FF 7F 35 37 30  35 01 80 45 00 80 F0 FF  .....5705..E....
0220: FF 7F F0 FF FF 7F 66 64  69 31 01 80 03 02 10 1E  ......fdi1......
0230: 80 2B 8B A0 0E 01 1F 80  23 66 01 80 8B A0 0E 01  .+......#f......
0240: 8B A0 0E 01 70 61 73 30  1C 20 80 2B 8B A0 0E 01  ....pas0. .+....
0250: 21 80 23 52 09 80 F0 FF  FF 7F F0 FF FF 7F 35 37  !.#R..........57
0260: 30 35 45 09 80 F0 FF FF  7F F0 FF FF 7F 35 37 31  05E..........571
0270: 30 01 80 03 02 10 22 80  2B 8B A0 0E 01 23 80 23  0.....".+....#.#
0280: 66 01 80 8B A0 0E 01 8B  A0 0E 01 70 61 73 30 1C  f..........pas0.
0290: 20 80 03 01 10 0D 80 45  00 80 F0 FF FF 7F F0 FF   ......E........
02A0: FF 7F 66 64 6F 31 01 80  1C 02 80 52 09 80 F0 FF  ..fdo1.....R....
02B0: FF 7F F0 FF FF 7F 35 37  31 30 46 00 45 00 80 F0  ......5710F.E...
02C0: FF FF 7F F0 FF FF 7F 66  64 69 31 01 80 20 00 21  .......fdi1.. .!
02D0: 00                                                .               
```

#### Opcodes

```
  0: 0x0001 [0x42] SET_CLI_EVENT_CANCEL_DATA()
  1: 0x0002 [0x20] SET_CLI_EVENT_UC_FLAG: Lock player control
  2: 0x0004 [0x46] CAMERA_CONTROL: Disable user control
  3: 0x0006 [0x45] LOAD_SCHEDULED_TASK: Load scheduler "fdo1" with entities [LocalPlayer, LocalPlayer], work=[200*, 0*]
  4: 0x0017 [0x1C] WAIT(60* ticks)
  5: 0x001A [0x38] SET_CLIENT_EVENT_MODE(mode=19*)
  6: 0x001D [0x75] LOAD_ROOM(Load indoor room, room=259*)
  7: 0x0021 [0x75] LOAD_ROOM(No action)
  8: 0x0023 [0xBA] SET_ENTITY_POSITION(entity_id=LocalPlayer, pos_x=124.912*, pos_z=-9.844*, pos_y=2.017*, direction=349.3°*)
  9: 0x0030 [0x80] LOAD_WAIT(entity=LocalPlayer)
 10: 0x0035 [0x80] LOAD_WAIT(entity=Titus (ID: 17735712/0x010EA020))
 11: 0x003A [0x80] LOAD_WAIT(entity=Abd-al-Raziq (ID: 17735710/0x010EA01E))
 12: 0x003F [0x80] LOAD_WAIT(entity=Azima (ID: 17735711/0x010EA01F))
 13: 0x0044 [0x80] LOAD_WAIT(entity=Sieglinde (ID: 17735713/0x010EA021))
 14: 0x0049 [0x80] LOAD_WAIT(entity=Hemewmew (ID: 17735810/0x010EA082))
 15: 0x004E [0x4E] SET_ENTITY_HIDE_FLAG: Show EventEntity
 16: 0x0054 [0x92] Titus (ID: 17735712/0x010EA020)->Render.Flags3 ^= 0x01
 17: 0x005A [0x79] LocalPlayer looks at EventEntity (Basic look)
 18: 0x0064 [0x45] LOAD_SCHEDULED_TASK: Load scheduler "5701" with entities [LocalPlayer, LocalPlayer], work=[342*, 0*]
 19: 0x0075 [0x45] LOAD_SCHEDULED_TASK: Load scheduler "fdi1" with entities [LocalPlayer, LocalPlayer], work=[200*, 0*]
 20: 0x0086 [0x1C] WAIT(60* ticks)
 21: 0x0089 [0x1D] PRINT_EVENT_MESSAGE(message_id=14144*)
    → "Ahhh, the pain! The sheer agony! Here I stand on the verge of the single greatest breakthrough in the long and storied history of the alchemical arts, and--the Twilight God take me--I lack for the key ingredient necessary to consummate my life's work! If only--"
 22: 0x008C [0x23] WAIT_FOR_DIALOG_INTERACTION
 23: 0x008D [0x52] END_LOAD_SCHEDULER: End scheduler "5701" with entities [LocalPlayer, LocalPlayer], work=342*
 24: 0x009C [0x45] LOAD_SCHEDULED_TASK: Load scheduler "5702" with entities [LocalPlayer, LocalPlayer], work=[342*, 0*]
 25: 0x00AD [0x1D] PRINT_EVENT_MESSAGE(message_id=14145*)
    → "Wait...could it be!? That battle-ready posture! That confident mien! No, no, you needn't tell me! You're an adventurer, come to help a troubled genius in his time of dire need! Am I right or am I right?"
 26: 0x00B0 [0x23] WAIT_FOR_DIALOG_INTERACTION
 27: 0x00B1 [0x24] CREATE_DIALOG(message_id=14146*, default_option=1*, option_flags=0*)
    → "Am I right? [Uh...you're right./Couldn't be more wrong.]"
 28: 0x00B8 [0x25] WAIT_DIALOG_SELECT()
 29: 0x00B9 [0x02] IF !(Work_Zone[0] == 0*) GOTO 0x00DF
 30: 0x00C1 [0x6E] LocalPlayer uses emote 7*
 31: 0x00C8 [0x99] Wait for LocalPlayer animation to complete
 32: 0x00CD [0x99] Wait for LocalPlayer animation to complete
 33: 0x00D2 [0x1C] WAIT(90* ticks)
 34: 0x00D5 [0x1D] PRINT_EVENT_MESSAGE(message_id=14148*)
    → "I knew it! My wits are as sharp as ever, if I say so myself--which I just did!"
 35: 0x00D8 [0x23] WAIT_FOR_DIALOG_INTERACTION
 36: 0x00D9 [0x01] GOTO 0x0105

SUBROUTINE_0105:
 37: 0x0105 [0x1D] PRINT_EVENT_MESSAGE(message_id=14149*)
    → "As you see, the supremely complex experiment I'm conducting demands nothing short of my undivided attention, so I hope you'll forgive me if I speak to you from here."
 38: 0x0108 [0x23] WAIT_FOR_DIALOG_INTERACTION
 39: 0x0109 [0x52] END_LOAD_SCHEDULER: End scheduler "5702" with entities [LocalPlayer, LocalPlayer], work=342*
 40: 0x0118 [0x45] LOAD_SCHEDULED_TASK: Load scheduler "5703" with entities [LocalPlayer, LocalPlayer], work=[342*, 0*]
 41: 0x0129 [0x1D] PRINT_EVENT_MESSAGE(message_id=14150*)
    → "At any rate, here is the task I would entrust to you. Certainly an adventurer of your caliber has heard of--perhaps even set foot in--the mountainous crags that lie beyond Gustaberg: the area they call Grauberg."
 42: 0x012C [0x23] WAIT_FOR_DIALOG_INTERACTION
 43: 0x012D [0x1D] PRINT_EVENT_MESSAGE(message_id=14151*)
    → "It is there, sleeping in the bed of a river that runs beneath a mountain vast, that one can find a very special variety of gold dust, imbued with just a speck, a smidgen, a sliver of magical energy! ...Or so they say."
 44: 0x0130 [0x23] WAIT_FOR_DIALOG_INTERACTION
 45: 0x0131 [0x52] END_LOAD_SCHEDULER: End scheduler "5703" with entities [LocalPlayer, LocalPlayer], work=342*
 46: 0x0140 [0x45] LOAD_SCHEDULED_TASK: Load scheduler "5704" with entities [LocalPlayer, LocalPlayer], work=[342*, 0*]
 47: 0x0151 [0x1D] PRINT_EVENT_MESSAGE(message_id=14152*)
    → "I would ask you to venture to Grauberg and retrieve this vital ingredient for me, that the world--nay, the universe--might reap the harvest sown by the seeds of my immense genius! What say you, adventurer?"
 48: 0x0154 [0x23] WAIT_FOR_DIALOG_INTERACTION
 49: 0x0155 [0x24] CREATE_DIALOG(message_id=14153*, default_option=1*, option_flags=0*)
    → "What say you? [Leave it to me!/I say do your own work.]"
 50: 0x015C [0x25] WAIT_DIALOG_SELECT()
 51: 0x015D [0x02] IF !(Work_Zone[0] == 0*) GOTO 0x0183
 52: 0x0165 [0x6E] LocalPlayer uses emote 7*
 53: 0x016C [0x99] Wait for LocalPlayer animation to complete
 54: 0x0171 [0x99] Wait for LocalPlayer animation to complete
 55: 0x0176 [0x1C] WAIT(90* ticks)
 56: 0x0179 [0x1D] PRINT_EVENT_MESSAGE(message_id=14155*)
    → "Ah, excellent! Excellent! I knew it from the start--clearly, you're a [man/woman] with a sense for history in the making!"
 57: 0x017C [0x23] WAIT_FOR_DIALOG_INTERACTION
 58: 0x017D [0x01] GOTO 0x01A9

SUBROUTINE_01A9:
 59: 0x01A9 [0x45] LOAD_SCHEDULED_TASK: Load scheduler "fdo1" with entities [LocalPlayer, LocalPlayer], work=[200*, 0*]
 60: 0x01BA [0x1C] WAIT(180* ticks)
 61: 0x01BD [0x4E] SET_ENTITY_HIDE_FLAG: Hide EventEntity
 62: 0x01C3 [0x2F] Titus (ID: 17735819/0x010EA08B)->Render.Flags0 &= ~0x80000 // Bit 19
 63: 0x01C9 [0x4E] SET_ENTITY_HIDE_FLAG: Show Titus (ID: 17735819/0x010EA08B)
 64: 0x01CF [0xBA] SET_ENTITY_POSITION(entity_id=Titus (ID: 17735819/0x010EA08B), pos_x=126.718*, pos_z=-9.234*, pos_y=2.017*, direction=168.9°*)
 65: 0x01DC [0x80] LOAD_WAIT(entity=Titus (ID: 17735819/0x010EA08B))
 66: 0x01E1 [0x92] Titus (ID: 17735819/0x010EA08B)->Render.Flags3 ^= 0x01
 67: 0x01E7 [0x4A] Titus (ID: 17735819/0x010EA08B) looks at LocalPlayer
 68: 0x01F0 [0x6F] WAIT_FRAME_DELAY: Yield until WaitTime reaches zero
 69: 0x01F1 [0x70] WAIT_ENTITY_RENDER_FLAG: Wait while EventEntity->Render.Flags3 bit 2 is set (cancel turn if not)
 70: 0x01F2 [0x4A] LocalPlayer looks at Titus (ID: 17735819/0x010EA08B)
 71: 0x01FB [0x52] END_LOAD_SCHEDULER: End scheduler "5704" with entities [LocalPlayer, LocalPlayer], work=342*
 72: 0x020A [0x45] LOAD_SCHEDULED_TASK: Load scheduler "5705" with entities [LocalPlayer, LocalPlayer], work=[342*, 0*]
 73: 0x021B [0x45] LOAD_SCHEDULED_TASK: Load scheduler "fdi1" with entities [LocalPlayer, LocalPlayer], work=[200*, 0*]
 74: 0x022C [0x03] Work_Zone[2] = 1177*
 75: 0x0231 [0x2B] Titus (ID: 17735819/0x010EA08B) [14156*]:
    → "Very well, then. Take this $3 and retrieve the magical gold dust I seek."
 76: 0x0238 [0x23] WAIT_FOR_DIALOG_INTERACTION
 77: 0x0239 [0x66] LOAD_EXT_SCHEDULER_MAIN: Load scheduler "pas0" with entities [Titus (ID: 17735819/0x010EA08B), Titus (ID: 17735819/0x010EA08B)], work=0*
 78: 0x0248 [0x1C] WAIT(240* ticks)
 79: 0x024B [0x2B] Titus (ID: 17735819/0x010EA08B) [14157*]:
    → "According to my thoroughly infallible calculations, twenty grains should do the trick."
 80: 0x0252 [0x23] WAIT_FOR_DIALOG_INTERACTION
 81: 0x0253 [0x52] END_LOAD_SCHEDULER: End scheduler "5705" with entities [LocalPlayer, LocalPlayer], work=342*
 82: 0x0262 [0x45] LOAD_SCHEDULED_TASK: Load scheduler "5710" with entities [LocalPlayer, LocalPlayer], work=[342*, 0*]
 83: 0x0273 [0x03] Work_Zone[2] = 1178*
 84: 0x0278 [0x2B] Titus (ID: 17735819/0x010EA08B) [14158*]:
    → "Bring them back here in this $3, and prepare to bear witness to the dawning of a new era in alchemy! You'll want to ready yourself a pair of shaded spectacles, 'cause the future is going to be bright, bright, bright!"
 85: 0x027F [0x23] WAIT_FOR_DIALOG_INTERACTION
 86: 0x0280 [0x66] LOAD_EXT_SCHEDULER_MAIN: Load scheduler "pas0" with entities [Titus (ID: 17735819/0x010EA08B), Titus (ID: 17735819/0x010EA08B)], work=0*
 87: 0x028F [0x1C] WAIT(240* ticks)
 88: 0x0292 [0x03] Work_Zone[1] = 1*

SUBROUTINE_0297:
 89: 0x0297 [0x45] LOAD_SCHEDULED_TASK: Load scheduler "fdo1" with entities [LocalPlayer, LocalPlayer], work=[200*, 0*]
 90: 0x02A8 [0x1C] WAIT(60* ticks)
 91: 0x02AB [0x52] END_LOAD_SCHEDULER: End scheduler "5710" with entities [LocalPlayer, LocalPlayer], work=342*
 92: 0x02BA [0x46] CAMERA_CONTROL: Restore default settings
 93: 0x02BC [0x45] LOAD_SCHEDULED_TASK: Load scheduler "fdi1" with entities [LocalPlayer, LocalPlayer], work=[200*, 0*]
 94: 0x02CD [0x20] SET_CLI_EVENT_UC_FLAG: Unlock player control
 95: 0x02CF [0x21] END_EVENT
 96: 0x02D0 [0x00] END_REQSTACK()
```

#### Data or dead code:

```
# Dead code (unreachable instructions):
     0x00DC [0x01] GOTO 0x0105
     0x0102 [0x01] GOTO 0x0105
# Dead code (unreachable instructions):
     0x0180 [0x01] GOTO 0x01A9
     0x01A6 [0x01] GOTO 0x01A9
```

### Event 588

#### Metadata

| Field        | Value    |
|--------------|----------|
| Entrypoint   | 0x02D1   |
| Data Size    | 10 bytes |
| Instructions | 6        |

```
      00 01 02 03 04 05 06 07  08 09 0A 0B 0C 0D 0E 0F
      -- -- -- -- -- -- -- --  -- -- -- -- -- -- -- --
02D0:    1D 24 80 23 1D 25 80  23 21 00                  .$.#.%.#!.     
```

#### Opcodes

```
  0: 0x02D1 [0x1D] PRINT_EVENT_MESSAGE(message_id=14159*)
    → "My adventuring friend! Have you managed to secure the enchanted gold dust I seek? Why, we mustn't keep the world waiting any longer--a truly epoch-making moment hangs in the balance!"
  1: 0x02D4 [0x23] WAIT_FOR_DIALOG_INTERACTION
  2: 0x02D5 [0x1D] PRINT_EVENT_MESSAGE(message_id=14160*)
    → "How to get to Grauberg, you ask? Come to think of it, the path leading there has been obstructed for as long as I can remember. But hey, you're the adventurer--I'm sure you'll figure something out! Now, chop chop!"
  3: 0x02D8 [0x23] WAIT_FOR_DIALOG_INTERACTION
  4: 0x02D9 [0x21] END_EVENT
  5: 0x02DA [0x00] END_REQSTACK()
```

### Event 589

#### Metadata

| Field        | Value      |
|--------------|------------|
| Entrypoint   | 0x02DB     |
| Data Size    | 1392 bytes |
| Instructions | 192        |

```
      00 01 02 03 04 05 06 07  08 09 0A 0B 0C 0D 0E 0F
      -- -- -- -- -- -- -- --  -- -- -- -- -- -- -- --
02D0:                                   42 20 01 46 01             B .F.
02E0: 45 00 80 F0 FF FF 7F F0  FF FF 7F 66 64 6F 31 01  E..........fdo1.
02F0: 80 1C 02 80 38 03 80 75  00 04 80 75 01 BA F0 FF  ....8..u...u....
0300: FF 7F 05 80 06 80 07 80  08 80 80 F0 FF FF 7F 80  ................
0310: 20 A0 0E 01 80 1E A0 0E  01 80 1F A0 0E 01 80 21   ..............!
0320: A0 0E 01 80 82 A0 0E 01  4E 00 F8 FF FF 7F 92 01  ........N.......
0330: 20 A0 0E 01 79 00 F0 FF  FF 7F F8 FF FF 7F 45 09   ...y.........E.
0340: 80 F0 FF FF 7F F0 FF FF  7F 35 37 30 33 01 80 45  .........5703..E
0350: 00 80 F0 FF FF 7F F0 FF  FF 7F 66 64 69 31 01 80  ..........fdi1..
0360: 1C 02 80 1D 26 80 23 45  00 80 F0 FF FF 7F F0 FF  ....&.#E........
0370: FF 7F 66 64 6F 31 01 80  1C 1A 80 4E 01 F8 FF FF  ..fdo1.....N....
0380: 7F 2F 00 8B A0 0E 01 4E  00 8B A0 0E 01 BA 8B A0  ./.....N........
0390: 0E 01 1B 80 1C 80 07 80  1D 80 80 8B A0 0E 01 92  ................
03A0: 01 8B A0 0E 01 4A 8B A0  0E 01 F0 FF FF 7F 6F 70  .....J........op
03B0: 4A F0 FF FF 7F 8B A0 0E  01 79 00 F0 FF FF 7F 8B  J........y......
03C0: A0 0E 01 52 09 80 F0 FF  FF 7F F0 FF FF 7F 35 37  ...R..........57
03D0: 30 33 45 09 80 F0 FF FF  7F F0 FF FF 7F 35 37 30  03E..........570
03E0: 35 01 80 45 00 80 F0 FF  FF 7F F0 FF FF 7F 66 64  5..E..........fd
03F0: 69 31 01 80 66 01 80 8B  A0 0E 01 8B A0 0E 01 74  i1..f..........t
0400: 6C 6B 30 2B 8B A0 0E 01  27 80 23 2B 8B A0 0E 01  lk0+....'.#+....
0410: 28 80 23 52 09 80 F0 FF  FF 7F F0 FF FF 7F 35 37  (.#R..........57
0420: 30 35 45 09 80 F0 FF FF  7F F0 FF FF 7F 35 37 30  05E..........570
0430: 36 01 80 2B 8B A0 0E 01  29 80 23 1C 2A 80 9F 2B  6..+....).#.*..+
0440: 80 8B A0 0E 01 8B A0 0E  01 66 72 73 74 01 80 1C  .........frst...
0450: 2C 80 9F 2B 80 8B A0 0E  01 8B A0 0E 01 6F 6B 65  ,..+.........oke
0460: 78 01 80 1C 1A 80 6E 8B  A0 0E 01 2D 80 99 8B A0  x.....n....-....
0470: 0E 01 99 8B A0 0E 01 2B  8B A0 0E 01 2E 80 23 52  .......+......#R
0480: 09 80 F0 FF FF 7F F0 FF  FF 7F 35 37 30 36 45 09  ..........5706E.
0490: 80 F0 FF FF 7F F0 FF FF  7F 35 37 30 35 01 80 66  .........5705..f
04A0: 01 80 8B A0 0E 01 8B A0  0E 01 74 6C 6B 30 2B 8B  ..........tlk0+.
04B0: A0 0E 01 2F 80 23 6E 8B  A0 0E 01 01 80 99 8B A0  .../.#n.........
04C0: 0E 01 99 8B A0 0E 01 2B  8B A0 0E 01 30 80 23 1C  .......+....0.#.
04D0: 2A 80 9F 31 80 8B A0 0E  01 8B A0 0E 01 66 72 73  *..1.........frs
04E0: 74 01 80 1C 2C 80 9F 31  80 8B A0 0E 01 8B A0 0E  t...,..1........
04F0: 01 6E 67 30 30 01 80 1C  02 80 6E F0 FF FF 7F 32  .ng00.....n....2
0500: 80 99 F0 FF FF 7F 99 F0  FF FF 7F 1C 33 80 52 09  ............3.R.
0510: 80 F0 FF FF 7F F0 FF FF  7F 35 37 30 35 45 09 80  .........5705E..
0520: F0 FF FF 7F F0 FF FF 7F  35 37 30 37 01 80 6E 8B  ........5707..n.
0530: A0 0E 01 34 80 99 8B A0  0E 01 99 8B A0 0E 01 2B  ...4...........+
0540: 8B A0 0E 01 35 80 23 6E  8B A0 0E 01 03 80 99 8B  ....5.#n........
0550: A0 0E 01 99 8B A0 0E 01  2B 8B A0 0E 01 36 80 23  ........+....6.#
0560: 6E 8B A0 0E 01 11 80 99  8B A0 0E 01 99 8B A0 0E  n...............
0570: 01 45 00 80 F0 FF FF 7F  F0 FF FF 7F 66 64 6F 31  .E..........fdo1
0580: 01 80 1C 33 80 52 09 80  F0 FF FF 7F F0 FF FF 7F  ...3.R..........
0590: 35 37 30 37 45 09 80 F0  FF FF 7F F0 FF FF 7F 35  5707E..........5
05A0: 37 30 38 01 80 45 00 80  F0 FF FF 7F F0 FF FF 7F  708..E..........
05B0: 66 64 69 31 01 80 1C 33  80 66 37 80 8B A0 0E 01  fdi1...3.f7.....
05C0: 8B A0 0E 01 74 6C 6B 30  2B 8B A0 0E 01 38 80 23  ....tlk0+....8.#
05D0: 66 37 80 8B A0 0E 01 8B  A0 0E 01 74 6C 6B 31 6E  f7.........tlk1n
05E0: F0 FF FF 7F 39 80 99 F0  FF FF 7F 99 F0 FF FF 7F  ....9...........
05F0: 1C 33 80 6E F0 FF FF 7F  3A 80 99 F0 FF FF 7F 99  .3.n....:.......
0600: F0 FF FF 7F 1C 33 80 6E  F0 FF FF 7F 3B 80 99 F0  .....3.n....;...
0610: FF FF 7F 99 F0 FF FF 7F  1C 33 80 52 09 80 F0 FF  .........3.R....
0620: FF 7F F0 FF FF 7F 35 37  30 38 45 09 80 F0 FF FF  ......5708E.....
0630: 7F F0 FF FF 7F 35 37 30  39 01 80 7B 8B A0 0E 01  .....5709..{....
0640: 4E 01 F0 FF FF 7F 6E 8B  A0 0E 01 3C 80 99 8B A0  N.....n....<....
0650: 0E 01 99 8B A0 0E 01 2B  8B A0 0E 01 3D 80 23 6E  .......+....=.#n
0660: 8B A0 0E 01 3E 80 99 8B  A0 0E 01 99 8B A0 0E 01  ....>...........
0670: 2B 8B A0 0E 01 3F 80 23  6E 8B A0 0E 01 01 80 99  +....?.#n.......
0680: 8B A0 0E 01 99 8B A0 0E  01 2B 8B A0 0E 01 30 80  .........+....0.
0690: 23 1C 2A 80 52 09 80 F0  FF FF 7F F0 FF FF 7F 35  #.*.R..........5
06A0: 37 30 39 45 09 80 F0 FF  FF 7F F0 FF FF 7F 35 37  709E..........57
06B0: 31 32 01 80 4E 00 F0 FF  FF 7F 9F 31 80 8B A0 0E  12..N......1....
06C0: 01 8B A0 0E 01 66 72 73  74 01 80 1C 2C 80 9F 31  .....frst...,..1
06D0: 80 8B A0 0E 01 8B A0 0E  01 6F 6B 30 30 01 80 1C  .........ok00...
06E0: 1A 80 52 09 80 F0 FF FF  7F F0 FF FF 7F 35 37 31  ..R..........571
06F0: 32 45 09 80 F0 FF FF 7F  F0 FF FF 7F 35 37 31 31  2E..........5711
0700: 01 80 6E 8B A0 0E 01 2D  80 99 8B A0 0E 01 99 8B  ..n....-........
0710: A0 0E 01 2B 8B A0 0E 01  40 80 23 7B 8B A0 0E 01  ...+....@.#{....
0720: 2B 8B A0 0E 01 41 80 23  66 01 80 8B A0 0E 01 8B  +....A.#f.......
0730: A0 0E 01 70 61 73 30 1C  1A 80 93 42 80 1C 02 80  ...pas0....B....
0740: 66 01 80 8B A0 0E 01 8B  A0 0E 01 74 6C 6B 30 2B  f..........tlk0+
0750: 8B A0 0E 01 43 80 23 2B  8B A0 0E 01 44 80 23 93  ....C.#+....D.#.
0760: 01 80 52 09 80 F0 FF FF  7F F0 FF FF 7F 35 37 31  ..R..........571
0770: 31 45 09 80 F0 FF FF 7F  F0 FF FF 7F 35 37 31 30  1E..........5710
0780: 01 80 6E 8B A0 0E 01 45  80 99 8B A0 0E 01 1C 1A  ..n....E........
0790: 80 99 8B A0 0E 01 2B 8B  A0 0E 01 46 80 23 2B 8B  ......+....F.#+.
07A0: A0 0E 01 47 80 23 66 01  80 8B A0 0E 01 8B A0 0E  ...G.#f.........
07B0: 01 70 61 73 30 1C 20 80  52 09 80 F0 FF FF 7F F0  .pas0. .R.......
07C0: FF FF 7F 35 37 31 30 45  09 80 F0 FF FF 7F F0 FF  ...5710E........
07D0: FF 7F 35 37 31 33 01 80  4B 8B A0 0E 01 01 80 6F  ..5713..K......o
07E0: 70 66 01 80 8B A0 0E 01  8B A0 0E 01 74 6C 6B 30  pf..........tlk0
07F0: 2B 8B A0 0E 01 48 80 23  2B 8B A0 0E 01 49 80 23  +....H.#+....I.#
0800: 45 00 80 F0 FF FF 7F F0  FF FF 7F 66 64 6F 31 01  E..........fdo1.
0810: 80 1C 02 80 52 09 80 F0  FF FF 7F F0 FF FF 7F 35  ....R..........5
0820: 37 31 33 46 00 45 00 80  F0 FF FF 7F F0 FF FF 7F  713F.E..........
0830: 66 64 69 31 01 80 20 00  45 4A 80 F8 FF FF 7F F8  fdi1.. .EJ......
0840: FF FF 7F 71 73 74 63 01  80 21 00                 ...qstc..!.     
```

#### Opcodes

```
  0: 0x02DB [0x42] SET_CLI_EVENT_CANCEL_DATA()
  1: 0x02DC [0x20] SET_CLI_EVENT_UC_FLAG: Lock player control
  2: 0x02DE [0x46] CAMERA_CONTROL: Disable user control
  3: 0x02E0 [0x45] LOAD_SCHEDULED_TASK: Load scheduler "fdo1" with entities [LocalPlayer, LocalPlayer], work=[200*, 0*]
  4: 0x02F1 [0x1C] WAIT(60* ticks)
  5: 0x02F4 [0x38] SET_CLIENT_EVENT_MODE(mode=19*)
  6: 0x02F7 [0x75] LOAD_ROOM(Load indoor room, room=259*)
  7: 0x02FB [0x75] LOAD_ROOM(No action)
  8: 0x02FD [0xBA] SET_ENTITY_POSITION(entity_id=LocalPlayer, pos_x=124.912*, pos_z=-9.844*, pos_y=2.017*, direction=349.3°*)
  9: 0x030A [0x80] LOAD_WAIT(entity=LocalPlayer)
 10: 0x030F [0x80] LOAD_WAIT(entity=Titus (ID: 17735712/0x010EA020))
 11: 0x0314 [0x80] LOAD_WAIT(entity=Abd-al-Raziq (ID: 17735710/0x010EA01E))
 12: 0x0319 [0x80] LOAD_WAIT(entity=Azima (ID: 17735711/0x010EA01F))
 13: 0x031E [0x80] LOAD_WAIT(entity=Sieglinde (ID: 17735713/0x010EA021))
 14: 0x0323 [0x80] LOAD_WAIT(entity=Hemewmew (ID: 17735810/0x010EA082))
 15: 0x0328 [0x4E] SET_ENTITY_HIDE_FLAG: Show EventEntity
 16: 0x032E [0x92] Titus (ID: 17735712/0x010EA020)->Render.Flags3 ^= 0x01
 17: 0x0334 [0x79] LocalPlayer looks at EventEntity (Basic look)
 18: 0x033E [0x45] LOAD_SCHEDULED_TASK: Load scheduler "5703" with entities [LocalPlayer, LocalPlayer], work=[342*, 0*]
 19: 0x034F [0x45] LOAD_SCHEDULED_TASK: Load scheduler "fdi1" with entities [LocalPlayer, LocalPlayer], work=[200*, 0*]
 20: 0x0360 [0x1C] WAIT(60* ticks)
 21: 0x0363 [0x1D] PRINT_EVENT_MESSAGE(message_id=14161*)
    → "Wait, could it be!? That self-satisfied expression! That sprightly gait! No, no, don't tell me, now! You've returned triumphant with the ingredient I seek! Am I right or am I right?"
 22: 0x0366 [0x23] WAIT_FOR_DIALOG_INTERACTION
 23: 0x0367 [0x45] LOAD_SCHEDULED_TASK: Load scheduler "fdo1" with entities [LocalPlayer, LocalPlayer], work=[200*, 0*]
 24: 0x0378 [0x1C] WAIT(180* ticks)
 25: 0x037B [0x4E] SET_ENTITY_HIDE_FLAG: Hide EventEntity
 26: 0x0381 [0x2F] Titus (ID: 17735819/0x010EA08B)->Render.Flags0 &= ~0x80000 // Bit 19
 27: 0x0387 [0x4E] SET_ENTITY_HIDE_FLAG: Show Titus (ID: 17735819/0x010EA08B)
 28: 0x038D [0xBA] SET_ENTITY_POSITION(entity_id=Titus (ID: 17735819/0x010EA08B), pos_x=126.718*, pos_z=-9.234*, pos_y=2.017*, direction=168.9°*)
 29: 0x039A [0x80] LOAD_WAIT(entity=Titus (ID: 17735819/0x010EA08B))
 30: 0x039F [0x92] Titus (ID: 17735819/0x010EA08B)->Render.Flags3 ^= 0x01
 31: 0x03A5 [0x4A] Titus (ID: 17735819/0x010EA08B) looks at LocalPlayer
 32: 0x03AE [0x6F] WAIT_FRAME_DELAY: Yield until WaitTime reaches zero
 33: 0x03AF [0x70] WAIT_ENTITY_RENDER_FLAG: Wait while EventEntity->Render.Flags3 bit 2 is set (cancel turn if not)
 34: 0x03B0 [0x4A] LocalPlayer looks at Titus (ID: 17735819/0x010EA08B)
 35: 0x03B9 [0x79] LocalPlayer looks at Titus (ID: 17735819/0x010EA08B) (Basic look)
 36: 0x03C3 [0x52] END_LOAD_SCHEDULER: End scheduler "5703" with entities [LocalPlayer, LocalPlayer], work=342*
 37: 0x03D2 [0x45] LOAD_SCHEDULED_TASK: Load scheduler "5705" with entities [LocalPlayer, LocalPlayer], work=[342*, 0*]
 38: 0x03E3 [0x45] LOAD_SCHEDULED_TASK: Load scheduler "fdi1" with entities [LocalPlayer, LocalPlayer], work=[200*, 0*]
 39: 0x03F4 [0x66] LOAD_EXT_SCHEDULER_MAIN: Load scheduler "tlk0" with entities [Titus (ID: 17735819/0x010EA08B), Titus (ID: 17735819/0x010EA08B)], work=0*
 40: 0x0403 [0x2B] Titus (ID: 17735819/0x010EA08B) [14162*]:
    → "Spectacular! So pure, and simply oozing with magical energy! To think that such immaculate specimens remain in this day and age..."
 41: 0x040A [0x23] WAIT_FOR_DIALOG_INTERACTION
 42: 0x040B [0x2B] Titus (ID: 17735819/0x010EA08B) [14163*]:
    → "To tell the truth, I had my doubts that a scruffy-looking straggler like you could pull it off, but you've far exceeded my (admittedly low) expectations!"
 43: 0x0412 [0x23] WAIT_FOR_DIALOG_INTERACTION
 44: 0x0413 [0x52] END_LOAD_SCHEDULER: End scheduler "5705" with entities [LocalPlayer, LocalPlayer], work=342*
 45: 0x0422 [0x45] LOAD_SCHEDULED_TASK: Load scheduler "5706" with entities [LocalPlayer, LocalPlayer], work=[342*, 0*]
 46: 0x0433 [0x2B] Titus (ID: 17735819/0x010EA08B) [14164*]:
    → "But why am I standing around chit-chatting with the help when there's history to be made!? Behold as I unveil the first step of the process that will redefine our glorious discipline!"
 47: 0x043A [0x23] WAIT_FOR_DIALOG_INTERACTION
 48: 0x043B [0x1C] WAIT(30* ticks)
 49: 0x043E [0x9F] LOAD_SCHEDULED_TASK_ALT: Load scheduler "frst" with entities [Titus (ID: 17735819/0x010EA08B), Titus (ID: 17735819/0x010EA08B)], work=[188*, 0*]
 50: 0x044F [0x1C] WAIT(300* ticks)
 51: 0x0452 [0x9F] LOAD_SCHEDULED_TASK_ALT: Load scheduler "okex" with entities [Titus (ID: 17735819/0x010EA08B), Titus (ID: 17735819/0x010EA08B)], work=[188*, 0*]
 52: 0x0463 [0x1C] WAIT(180* ticks)
 53: 0x0466 [0x6E] Titus (ID: 17735819/0x010EA08B) uses emote 11*
 54: 0x046D [0x99] Wait for Titus (ID: 17735819/0x010EA08B) animation to complete
 55: 0x0472 [0x99] Wait for Titus (ID: 17735819/0x010EA08B) animation to complete
 56: 0x0477 [0x2B] Titus (ID: 17735819/0x010EA08B) [14165*]:
    → "Bwahahaha! Yes...yes! All is proceeding precisely according to plan!"
 57: 0x047E [0x23] WAIT_FOR_DIALOG_INTERACTION
 58: 0x047F [0x52] END_LOAD_SCHEDULER: End scheduler "5706" with entities [LocalPlayer, LocalPlayer], work=342*
 59: 0x048E [0x45] LOAD_SCHEDULED_TASK: Load scheduler "5705" with entities [LocalPlayer, LocalPlayer], work=[342*, 0*]
 60: 0x049F [0x66] LOAD_EXT_SCHEDULER_MAIN: Load scheduler "tlk0" with entities [Titus (ID: 17735819/0x010EA08B), Titus (ID: 17735819/0x010EA08B)], work=0*
 61: 0x04AE [0x2B] Titus (ID: 17735819/0x010EA08B) [14166*]:
    → "Now all I do is take the refined gold dust--like so--and a shiny new weapon specially prepared by our guild for this momentous occasion, and..."
 62: 0x04B5 [0x23] WAIT_FOR_DIALOG_INTERACTION
 63: 0x04B6 [0x6E] Titus (ID: 17735819/0x010EA08B) uses emote 0*
 64: 0x04BD [0x99] Wait for Titus (ID: 17735819/0x010EA08B) animation to complete
 65: 0x04C2 [0x99] Wait for Titus (ID: 17735819/0x010EA08B) animation to complete
 66: 0x04C7 [0x2B] Titus (ID: 17735819/0x010EA08B) [14167*]:
    → "History, here I come! Genius has a new name, and that name is Titus!"
 67: 0x04CE [0x23] WAIT_FOR_DIALOG_INTERACTION
 68: 0x04CF [0x1C] WAIT(30* ticks)
 69: 0x04D2 [0x9F] LOAD_SCHEDULED_TASK_ALT: Load scheduler "frst" with entities [Titus (ID: 17735819/0x010EA08B), Titus (ID: 17735819/0x010EA08B)], work=[191*, 0*]
 70: 0x04E3 [0x1C] WAIT(300* ticks)
 71: 0x04E6 [0x9F] LOAD_SCHEDULED_TASK_ALT: Load scheduler "ng00" with entities [Titus (ID: 17735819/0x010EA08B), Titus (ID: 17735819/0x010EA08B)], work=[191*, 0*]
 72: 0x04F7 [0x1C] WAIT(60* ticks)
 73: 0x04FA [0x6E] LocalPlayer uses emote 21*
 74: 0x0501 [0x99] Wait for LocalPlayer animation to complete
 75: 0x0506 [0x99] Wait for LocalPlayer animation to complete
 76: 0x050B [0x1C] WAIT(120* ticks)
 77: 0x050E [0x52] END_LOAD_SCHEDULER: End scheduler "5705" with entities [LocalPlayer, LocalPlayer], work=342*
 78: 0x051D [0x45] LOAD_SCHEDULED_TASK: Load scheduler "5707" with entities [LocalPlayer, LocalPlayer], work=[342*, 0*]
 79: 0x052E [0x6E] Titus (ID: 17735819/0x010EA08B) uses emote 33*
 80: 0x0535 [0x99] Wait for Titus (ID: 17735819/0x010EA08B) animation to complete
 81: 0x053A [0x99] Wait for Titus (ID: 17735819/0x010EA08B) animation to complete
 82: 0x053F [0x2B] Titus (ID: 17735819/0x010EA08B) [14168*]:
    → "What...? No! It couldn't be!? Failure!? I've failed!? Oh, unmerciful Goddess, how you torture me so!"
 83: 0x0546 [0x23] WAIT_FOR_DIALOG_INTERACTION
 84: 0x0547 [0x6E] Titus (ID: 17735819/0x010EA08B) uses emote 19*
 85: 0x054E [0x99] Wait for Titus (ID: 17735819/0x010EA08B) animation to complete
 86: 0x0553 [0x99] Wait for Titus (ID: 17735819/0x010EA08B) animation to complete
 87: 0x0558 [0x2B] Titus (ID: 17735819/0x010EA08B) [14169*]:
    → "Oh, alas and alack! Years of research for naught! Am I destined to live out the rest of my life as a nobody!? A grimy lump of fool's gold to be trodden beneath the feet of my more accomplished peers!? Woe, oh woe is me...!"
 88: 0x055F [0x23] WAIT_FOR_DIALOG_INTERACTION
 89: 0x0560 [0x6E] Titus (ID: 17735819/0x010EA08B) uses emote 6*
 90: 0x0567 [0x99] Wait for Titus (ID: 17735819/0x010EA08B) animation to complete
 91: 0x056C [0x99] Wait for Titus (ID: 17735819/0x010EA08B) animation to complete
 92: 0x0571 [0x45] LOAD_SCHEDULED_TASK: Load scheduler "fdo1" with entities [LocalPlayer, LocalPlayer], work=[200*, 0*]
 93: 0x0582 [0x1C] WAIT(120* ticks)
 94: 0x0585 [0x52] END_LOAD_SCHEDULER: End scheduler "5707" with entities [LocalPlayer, LocalPlayer], work=342*
 95: 0x0594 [0x45] LOAD_SCHEDULED_TASK: Load scheduler "5708" with entities [LocalPlayer, LocalPlayer], work=[342*, 0*]
 96: 0x05A5 [0x45] LOAD_SCHEDULED_TASK: Load scheduler "fdi1" with entities [LocalPlayer, LocalPlayer], work=[200*, 0*]
 97: 0x05B6 [0x1C] WAIT(120* ticks)
 98: 0x05B9 [0x66] LOAD_EXT_SCHEDULER_MAIN: Load scheduler "tlk0" with entities [Titus (ID: 17735819/0x010EA08B), Titus (ID: 17735819/0x010EA08B)], work=9*
 99: 0x05C8 [0x2B] Titus (ID: 17735819/0x010EA08B) [14170*]:
    → "You're still here? Pray leave me. I am a failure, a nothing, a nobody! I cannot bear to have anyone look upon my wretched self!"
100: 0x05CF [0x23] WAIT_FOR_DIALOG_INTERACTION
101: 0x05D0 [0x66] LOAD_EXT_SCHEDULER_MAIN: Load scheduler "tlk1" with entities [Titus (ID: 17735819/0x010EA08B), Titus (ID: 17735819/0x010EA08B)], work=9*
102: 0x05DF [0x6E] LocalPlayer uses emote 16*
103: 0x05E6 [0x99] Wait for LocalPlayer animation to complete
104: 0x05EB [0x99] Wait for LocalPlayer animation to complete
105: 0x05F0 [0x1C] WAIT(120* ticks)
106: 0x05F3 [0x6E] LocalPlayer uses emote 22*
107: 0x05FA [0x99] Wait for LocalPlayer animation to complete
108: 0x05FF [0x99] Wait for LocalPlayer animation to complete
109: 0x0604 [0x1C] WAIT(120* ticks)
110: 0x0607 [0x6E] LocalPlayer uses emote 12*
111: 0x060E [0x99] Wait for LocalPlayer animation to complete
112: 0x0613 [0x99] Wait for LocalPlayer animation to complete
113: 0x0618 [0x1C] WAIT(120* ticks)
114: 0x061B [0x52] END_LOAD_SCHEDULER: End scheduler "5708" with entities [LocalPlayer, LocalPlayer], work=342*
115: 0x062A [0x45] LOAD_SCHEDULED_TASK: Load scheduler "5709" with entities [LocalPlayer, LocalPlayer], work=[342*, 0*]
116: 0x063B [0x7B] Titus (ID: 17735819/0x010EA08B) stops talking
117: 0x0640 [0x4E] SET_ENTITY_HIDE_FLAG: Hide LocalPlayer
118: 0x0646 [0x6E] Titus (ID: 17735819/0x010EA08B) uses emote 24*
119: 0x064D [0x99] Wait for Titus (ID: 17735819/0x010EA08B) animation to complete
120: 0x0652 [0x99] Wait for Titus (ID: 17735819/0x010EA08B) animation to complete
121: 0x0657 [0x2B] Titus (ID: 17735819/0x010EA08B) [14171*]:
    → "Hmm? What's that you say? Why, what have we here!? Though the synthesis failed, the materials are miraculously intact...!?"
122: 0x065E [0x23] WAIT_FOR_DIALOG_INTERACTION
123: 0x065F [0x6E] Titus (ID: 17735819/0x010EA08B) uses emote 36*
124: 0x0666 [0x99] Wait for Titus (ID: 17735819/0x010EA08B) animation to complete
125: 0x066B [0x99] Wait for Titus (ID: 17735819/0x010EA08B) animation to complete
126: 0x0670 [0x2B] Titus (ID: 17735819/0x010EA08B) [14172*]:
    → "What luck! What fortune! The Goddess smiles upon her poor Titus after all! Stand back, friend! I've been given another chance at history, and I mean to make the most of it!"
127: 0x0677 [0x23] WAIT_FOR_DIALOG_INTERACTION
128: 0x0678 [0x6E] Titus (ID: 17735819/0x010EA08B) uses emote 0*
129: 0x067F [0x99] Wait for Titus (ID: 17735819/0x010EA08B) animation to complete
130: 0x0684 [0x99] Wait for Titus (ID: 17735819/0x010EA08B) animation to complete
131: 0x0689 [0x2B] Titus (ID: 17735819/0x010EA08B) [14167*]:
    → "History, here I come! Genius has a new name, and that name is Titus!"
132: 0x0690 [0x23] WAIT_FOR_DIALOG_INTERACTION
133: 0x0691 [0x1C] WAIT(30* ticks)
134: 0x0694 [0x52] END_LOAD_SCHEDULER: End scheduler "5709" with entities [LocalPlayer, LocalPlayer], work=342*
135: 0x06A3 [0x45] LOAD_SCHEDULED_TASK: Load scheduler "5712" with entities [LocalPlayer, LocalPlayer], work=[342*, 0*]
136: 0x06B4 [0x4E] SET_ENTITY_HIDE_FLAG: Show LocalPlayer
137: 0x06BA [0x9F] LOAD_SCHEDULED_TASK_ALT: Load scheduler "frst" with entities [Titus (ID: 17735819/0x010EA08B), Titus (ID: 17735819/0x010EA08B)], work=[191*, 0*]
138: 0x06CB [0x1C] WAIT(300* ticks)
139: 0x06CE [0x9F] LOAD_SCHEDULED_TASK_ALT: Load scheduler "ok00" with entities [Titus (ID: 17735819/0x010EA08B), Titus (ID: 17735819/0x010EA08B)], work=[191*, 0*]
140: 0x06DF [0x1C] WAIT(180* ticks)
141: 0x06E2 [0x52] END_LOAD_SCHEDULER: End scheduler "5712" with entities [LocalPlayer, LocalPlayer], work=342*
142: 0x06F1 [0x45] LOAD_SCHEDULED_TASK: Load scheduler "5711" with entities [LocalPlayer, LocalPlayer], work=[342*, 0*]
143: 0x0702 [0x6E] Titus (ID: 17735819/0x010EA08B) uses emote 11*
144: 0x0709 [0x99] Wait for Titus (ID: 17735819/0x010EA08B) animation to complete
145: 0x070E [0x99] Wait for Titus (ID: 17735819/0x010EA08B) animation to complete
146: 0x0713 [0x2B] Titus (ID: 17735819/0x010EA08B) [14173*]:
    → "Eureka! I've done it! I've truly done it!"
147: 0x071A [0x23] WAIT_FOR_DIALOG_INTERACTION
148: 0x071B [0x7B] Titus (ID: 17735819/0x010EA08B) stops talking
149: 0x0720 [0x2B] Titus (ID: 17735819/0x010EA08B) [14174*]:
    → "I really am a genius! Why, I never doubted myself for a second! See how it glows with unearthly power! Truly an achievement that will be celebrated by alchemists--nay, by enlightened beings the world over--for ages to come!"
150: 0x0727 [0x23] WAIT_FOR_DIALOG_INTERACTION
151: 0x0728 [0x66] LOAD_EXT_SCHEDULER_MAIN: Load scheduler "pas0" with entities [Titus (ID: 17735819/0x010EA08B), Titus (ID: 17735819/0x010EA08B)], work=0*
152: 0x0737 [0x1C] WAIT(180* ticks)
153: 0x073A [0x93] DISPLAY_ITEM_INFO(item_id=17764*)
154: 0x073D [0x1C] WAIT(60* ticks)
155: 0x0740 [0x66] LOAD_EXT_SCHEDULER_MAIN: Load scheduler "tlk0" with entities [Titus (ID: 17735819/0x010EA08B), Titus (ID: 17735819/0x010EA08B)], work=0*
156: 0x074F [0x2B] Titus (ID: 17735819/0x010EA08B) [14175*]:
    → "What does it do, you say? Why, it imbues a potent dose of alchemical skill to anyone who wears it! Amazing, is it not?"
157: 0x0756 [0x23] WAIT_FOR_DIALOG_INTERACTION
158: 0x0757 [0x2B] Titus (ID: 17735819/0x010EA08B) [14176*]:
    → "Think of it as my way of sharing just a smidge--a trifle, mind you--of my limitless genius to the less intellectually endowed! Ha-ha!"
159: 0x075E [0x23] WAIT_FOR_DIALOG_INTERACTION
160: 0x075F [0x93] DISPLAY_ITEM_INFO(item_id=0*)
161: 0x0762 [0x52] END_LOAD_SCHEDULER: End scheduler "5711" with entities [LocalPlayer, LocalPlayer], work=342*
162: 0x0771 [0x45] LOAD_SCHEDULED_TASK: Load scheduler "5710" with entities [LocalPlayer, LocalPlayer], work=[342*, 0*]
163: 0x0782 [0x6E] Titus (ID: 17735819/0x010EA08B) uses emote 13*
164: 0x0789 [0x99] Wait for Titus (ID: 17735819/0x010EA08B) animation to complete
165: 0x078E [0x1C] WAIT(180* ticks)
166: 0x0791 [0x99] Wait for Titus (ID: 17735819/0x010EA08B) animation to complete
167: 0x0796 [0x2B] Titus (ID: 17735819/0x010EA08B) [14177*]:
    → "And for your contributions to this glorious day, you may consider it yours! A round of applause for the good [man/woman]!"
168: 0x079D [0x23] WAIT_FOR_DIALOG_INTERACTION
169: 0x079E [0x2B] Titus (ID: 17735819/0x010EA08B) [14178*]:
    → "It's just a prototype, mind you, and there are still a few kinks to be worked out, but hey, let's not sweat the details!"
170: 0x07A5 [0x23] WAIT_FOR_DIALOG_INTERACTION
171: 0x07A6 [0x66] LOAD_EXT_SCHEDULER_MAIN: Load scheduler "pas0" with entities [Titus (ID: 17735819/0x010EA08B), Titus (ID: 17735819/0x010EA08B)], work=0*
172: 0x07B5 [0x1C] WAIT(240* ticks)
173: 0x07B8 [0x52] END_LOAD_SCHEDULER: End scheduler "5710" with entities [LocalPlayer, LocalPlayer], work=342*
174: 0x07C7 [0x45] LOAD_SCHEDULED_TASK: Load scheduler "5713" with entities [LocalPlayer, LocalPlayer], work=[342*, 0*]
175: 0x07D8 [0x4B] UPDATE_ENTITY_YAW(entity=Titus (ID: 17735819/0x010EA08B), yaw=0.0°*)
176: 0x07DF [0x6F] WAIT_FRAME_DELAY: Yield until WaitTime reaches zero
177: 0x07E0 [0x70] WAIT_ENTITY_RENDER_FLAG: Wait while EventEntity->Render.Flags3 bit 2 is set (cancel turn if not)
178: 0x07E1 [0x66] LOAD_EXT_SCHEDULER_MAIN: Load scheduler "tlk0" with entities [Titus (ID: 17735819/0x010EA08B), Titus (ID: 17735819/0x010EA08B)], work=0*
179: 0x07F0 [0x2B] Titus (ID: 17735819/0x010EA08B) [14179*]:
    → "That glowing smile! That awestruck expression! Don't tell me--you're simply overjoyed to own a piece of history. Am I right or am I right?"
180: 0x07F7 [0x23] WAIT_FOR_DIALOG_INTERACTION
181: 0x07F8 [0x2B] Titus (ID: 17735819/0x010EA08B) [14180*]:
    → "Anyhow, it's back to work for me. This is one genius who isn't going to rest on his laurels! And don't be leaving town, okay? After all, it shall only be a matter of time before my next groundbreaking discovery!"
182: 0x07FF [0x23] WAIT_FOR_DIALOG_INTERACTION
183: 0x0800 [0x45] LOAD_SCHEDULED_TASK: Load scheduler "fdo1" with entities [LocalPlayer, LocalPlayer], work=[200*, 0*]
184: 0x0811 [0x1C] WAIT(60* ticks)
185: 0x0814 [0x52] END_LOAD_SCHEDULER: End scheduler "5713" with entities [LocalPlayer, LocalPlayer], work=342*
186: 0x0823 [0x46] CAMERA_CONTROL: Restore default settings
187: 0x0825 [0x45] LOAD_SCHEDULED_TASK: Load scheduler "fdi1" with entities [LocalPlayer, LocalPlayer], work=[200*, 0*]
188: 0x0836 [0x20] SET_CLI_EVENT_UC_FLAG: Unlock player control
189: 0x0838 [0x45] LOAD_SCHEDULED_TASK: Load scheduler "qstc" with entities [EventEntity, EventEntity], work=[201*, 0*]
190: 0x0849 [0x21] END_EVENT
191: 0x084A [0x00] END_REQSTACK()
```

### Event 65535.1

#### Metadata

| Field        | Value   |
|--------------|---------|
| Entrypoint   | 0x084B  |
| Data Size    | 1 bytes |
| Instructions | 1       |

```
      00 01 02 03 04 05 06 07  08 09 0A 0B 0C 0D 0E 0F
      -- -- -- -- -- -- -- --  -- -- -- -- -- -- -- --
0840:                                   00                         .    
```

#### Opcodes

```
  0: 0x084B [0x00] END_REQSTACK()
```

### Event 123

#### Metadata

| Field        | Value     |
|--------------|-----------|
| Entrypoint   | 0x084C    |
| Data Size    | 380 bytes |
| Instructions | 90        |

```
      00 01 02 03 04 05 06 07  08 09 0A 0B 0C 0D 0E 0F
      -- -- -- -- -- -- -- --  -- -- -- -- -- -- -- --
0840:                                      3E 05 10 0E              >...
0850: 80 C2 09 24 4B 80 4C 80  01 80 25 02 00 10 01 80  ...$K.L...%.....
0860: 00 A4 08 02 07 10 01 80  01 72 08 1D 4D 80 23 01  .........r..M.#.
0870: A1 08 1D 4E 80 23 42 45  00 80 F8 FF FF 7F F8 FF  ...N.#BE........
0880: FF 7F 66 64 6F 31 01 80  1C 0F 80 45 00 80 F8 FF  ..fdo1.....E....
0890: FF 7F F8 FF FF 7F 66 64  69 31 01 80 03 01 10 0D  ......fdi1......
08A0: 80 01 BF 09 02 00 10 0D  80 00 B4 09 03 08 10 0E  ................
08B0: 80 8C 00 08 10 03 10 04  10 8C 01 03 02 10 40 10  ..............@.
08C0: 1D 4F 80 23 03 03 10 41  10 03 04 10 42 10 03 05  .O.#...A....B...
08D0: 10 43 10 03 06 10 44 10  03 07 10 55 10 02 07 10  .C....D....U....
08E0: 01 80 00 EC 08 48 50 80  23 01 F0 08 48 51 80 23  .....HP.#...HQ.#
08F0: 03 02 10 45 10 03 03 10  46 10 03 04 10 47 10 03  ...E....F....G..
0900: 05 10 48 10 03 06 10 4D  10 03 07 10 4E 10 03 08  ..H....M....N...
0910: 10 4F 10 03 09 10 50 10  02 07 10 01 80 00 27 09  .O....P.......'.
0920: 48 52 80 23 01 AD 09 02  08 10 01 80 00 36 09 48  HR.#.........6.H
0930: 53 80 23 01 AD 09 02 09  10 01 80 00 45 09 48 54  S.#.........E.HT
0940: 80 23 01 AD 09 48 55 80  23 03 02 10 49 10 03 03  .#...HU.#...I...
0950: 10 4A 10 03 04 10 4B 10  03 05 10 4C 10 03 06 10  .J....K....L....
0960: 51 10 03 07 10 52 10 03  08 10 53 10 03 09 10 54  Q....R....S....T
0970: 10 02 06 10 01 80 00 7C  09 01 AD 09 02 07 10 01  .......|........
0980: 80 00 8B 09 48 52 80 23  01 AD 09 02 08 10 01 80  ....HR.#........
0990: 00 9A 09 48 53 80 23 01  AD 09 02 09 10 01 80 00  ...HS.#.........
09A0: A9 09 48 54 80 23 01 AD  09 48 55 80 23 1D 56 80  ..HT.#...HU.#.V.
09B0: 23 01 BF 09 02 00 10 4C  80 00 BF 09 01 BF 09 01  #......L........
09C0: C6 09 1D 57 80 23 21 00                           ...W.#!.        
```

#### Opcodes

```
  0: 0x084C [0x3E] IF !(Work_Zone[5] bit 7*) GOTO 0x09C2
  1: 0x0853 [0x24] CREATE_DIALOG(message_id=7088*, default_option=2*, option_flags=0*)
    → "Request...? [[Advanced synthesis/Synthesis/Synthesis] image support./Information on synthesis materials./Nothing.]"
  2: 0x085A [0x25] WAIT_DIALOG_SELECT()
  3: 0x085B [0x02] IF !(Work_Zone[0] == 0*) GOTO 0x08A4
  4: 0x0863 [0x02] IF !(Work_Zone[7] == 0*) GOTO 0x0872
  5: 0x086B [0x1D] PRINT_EVENT_MESSAGE(message_id=7165*)
    → "If you have not yet realized, we have our own work as well."
  6: 0x086E [0x23] WAIT_FOR_DIALOG_INTERACTION
  7: 0x086F [0x01] GOTO 0x08A1
  8: 0x0872 [0x1D] PRINT_EVENT_MESSAGE(message_id=7167*)
    → "Hopefully this will not take too long. Are you ready?"
  9: 0x0875 [0x23] WAIT_FOR_DIALOG_INTERACTION
 10: 0x0876 [0x42] SET_CLI_EVENT_CANCEL_DATA()
 11: 0x0877 [0x45] LOAD_SCHEDULED_TASK: Load scheduler "fdo1" with entities [EventEntity, EventEntity], work=[200*, 0*]
 12: 0x0888 [0x1C] WAIT(90* ticks)
 13: 0x088B [0x45] LOAD_SCHEDULED_TASK: Load scheduler "fdi1" with entities [EventEntity, EventEntity], work=[200*, 0*]
 14: 0x089C [0x03] Work_Zone[1] = 1*

SUBROUTINE_08A1:
 15: 0x08A1 [0x01] GOTO 0x09BF
 16: 0x08A4 [0x02] IF !(Work_Zone[0] == 1*) GOTO 0x09B4
 17: 0x08AC [0x03] Work_Zone[8] = 7*
 18: 0x08B1 [0x8C] CRAFTING_HANDLER(mode=0x00) // Initialize crafting session
 19: 0x08B9 [0x8C] CRAFTING_HANDLER(mode=0x01) // End crafting session
 20: 0x08BB [0x03] Work_Zone[2] = Work_Zone[64]
 21: 0x08C0 [0x1D] PRINT_EVENT_MESSAGE(message_id=7168*)
    → "If it means I can get back to my work, jot down this data on $0 and leave me be."
 22: 0x08C3 [0x23] WAIT_FOR_DIALOG_INTERACTION
 23: 0x08C4 [0x03] Work_Zone[3] = Work_Zone[65]
 24: 0x08C9 [0x03] Work_Zone[4] = Work_Zone[66]
 25: 0x08CE [0x03] Work_Zone[5] = Work_Zone[67]
 26: 0x08D3 [0x03] Work_Zone[6] = Work_Zone[68]
 27: 0x08D8 [0x03] Work_Zone[7] = Work_Zone[85]
 28: 0x08DD [0x02] IF !(Work_Zone[7] == 0*) GOTO 0x08EC
 29: 0x08E5 [0x48] [System] [7093*]:
    → "Necessary skills: [Fishing/Woodworking/Smithing/Goldsmithing/Clothcraft/Leatherworking/Bonecraft/Alchemy/Cooking][ /, Woodworking/, Smithing/, Goldsmithing/, Clothcraft/, Leatherworking/, Bonecraft/, Alchemy/, Cooking][ /, Woodworking/, Smithing/, Goldsmithing/, Clothcraft/, Leatherworking/, Bonecraft/, Alchemy/, Cooking][ /, & Woodworking/, & Smithing/, & Goldsmithing/, & Clothcraft/, & Leatherworking/, & Bonecraft/, & Alchemy/, & Cooking] Necessary crystal: $4 Necessary items:"
 30: 0x08E8 [0x23] WAIT_FOR_DIALOG_INTERACTION
 31: 0x08E9 [0x01] GOTO 0x08F0
 32: 0x08EC [0x48] [System] [7131*]:
    → "Necessary skills: [Fishing/Woodworking/Smithing/Goldsmithing/Clothcraft/Leatherworking/Bonecraft/Alchemy/Cooking][ /, Woodworking/, Smithing/, Goldsmithing/, Clothcraft/, Leatherworking/, Bonecraft/, Alchemy/, Cooking][ /, Woodworking/, Smithing/, Goldsmithing/, Clothcraft/, Leatherworking/, Bonecraft/, Alchemy/, Cooking][ /, & Woodworking/, & Smithing/, & Goldsmithing/, & Clothcraft/, & Leatherworking/, & Bonecraft/, & Alchemy/, & Cooking] Necessary crystal: $4 Necessary key item: $3 Necessary items:"
 33: 0x08EF [0x23] WAIT_FOR_DIALOG_INTERACTION

SUBROUTINE_08F0:
 34: 0x08F0 [0x03] Work_Zone[2] = Work_Zone[69]
 35: 0x08F5 [0x03] Work_Zone[3] = Work_Zone[70]
 36: 0x08FA [0x03] Work_Zone[4] = Work_Zone[71]
 37: 0x08FF [0x03] Work_Zone[5] = Work_Zone[72]
 38: 0x0904 [0x03] Work_Zone[6] = Work_Zone[77]
 39: 0x0909 [0x03] Work_Zone[7] = Work_Zone[78]
 40: 0x090E [0x03] Work_Zone[8] = Work_Zone[79]
 41: 0x0913 [0x03] Work_Zone[9] = Work_Zone[80]
 42: 0x0918 [0x02] IF !(Work_Zone[7] == 0*) GOTO 0x0927
 43: 0x0920 [0x48] [System] [7097*]:
    → "$4 x $0"
 44: 0x0923 [0x23] WAIT_FOR_DIALOG_INTERACTION
 45: 0x0924 [0x01] GOTO 0x09AD
 46: 0x0927 [0x02] IF !(Work_Zone[8] == 0*) GOTO 0x0936
 47: 0x092F [0x48] [System] [7096*]:
    → "$4 x $0 $5 x $0$0"
 48: 0x0932 [0x23] WAIT_FOR_DIALOG_INTERACTION
 49: 0x0933 [0x01] GOTO 0x09AD
 50: 0x0936 [0x02] IF !(Work_Zone[9] == 0*) GOTO 0x0945
 51: 0x093E [0x48] [System] [7095*]:
    → "$4 x $0 $5 x $0$0 $6 x $0"
 52: 0x0941 [0x23] WAIT_FOR_DIALOG_INTERACTION
 53: 0x0942 [0x01] GOTO 0x09AD
 54: 0x0945 [0x48] [System] [7094*]:
    → "$4 x $0 $5 x $0$0 $6 x $0 $7 x $0$3"
 55: 0x0948 [0x23] WAIT_FOR_DIALOG_INTERACTION
 56: 0x0949 [0x03] Work_Zone[2] = Work_Zone[73]
 57: 0x094E [0x03] Work_Zone[3] = Work_Zone[74]
 58: 0x0953 [0x03] Work_Zone[4] = Work_Zone[75]
 59: 0x0958 [0x03] Work_Zone[5] = Work_Zone[76]
 60: 0x095D [0x03] Work_Zone[6] = Work_Zone[81]
 61: 0x0962 [0x03] Work_Zone[7] = Work_Zone[82]
 62: 0x0967 [0x03] Work_Zone[8] = Work_Zone[83]
 63: 0x096C [0x03] Work_Zone[9] = Work_Zone[84]
 64: 0x0971 [0x02] IF !(Work_Zone[6] == 0*) GOTO 0x097C
 65: 0x0979 [0x01] GOTO 0x09AD
 66: 0x097C [0x02] IF !(Work_Zone[7] == 0*) GOTO 0x098B
 67: 0x0984 [0x48] [System] [7097*]:
    → "$4 x $0"
 68: 0x0987 [0x23] WAIT_FOR_DIALOG_INTERACTION
 69: 0x0988 [0x01] GOTO 0x09AD
 70: 0x098B [0x02] IF !(Work_Zone[8] == 0*) GOTO 0x099A
 71: 0x0993 [0x48] [System] [7096*]:
    → "$4 x $0 $5 x $0$0"
 72: 0x0996 [0x23] WAIT_FOR_DIALOG_INTERACTION
 73: 0x0997 [0x01] GOTO 0x09AD
 74: 0x099A [0x02] IF !(Work_Zone[9] == 0*) GOTO 0x09A9
 75: 0x09A2 [0x48] [System] [7095*]:
    → "$4 x $0 $5 x $0$0 $6 x $0"
 76: 0x09A5 [0x23] WAIT_FOR_DIALOG_INTERACTION
 77: 0x09A6 [0x01] GOTO 0x09AD
 78: 0x09A9 [0x48] [System] [7094*]:
    → "$4 x $0 $5 x $0$0 $6 x $0 $7 x $0$3"
 79: 0x09AC [0x23] WAIT_FOR_DIALOG_INTERACTION

SUBROUTINE_09AD:
 80: 0x09AD [0x1D] PRINT_EVENT_MESSAGE(message_id=7169*)
    → "There. Now be off with you. I must be getting back to my experiments."
 81: 0x09B0 [0x23] WAIT_FOR_DIALOG_INTERACTION
 82: 0x09B1 [0x01] GOTO 0x09BF
 83: 0x09B4 [0x02] IF !(Work_Zone[0] == 2*) GOTO 0x09BF
 84: 0x09BC [0x01] GOTO 0x09BF

SUBROUTINE_09BF:
 85: 0x09BF [0x01] GOTO 0x09C6
 86: 0x09C2 [0x1D] PRINT_EVENT_MESSAGE(message_id=7164*)
    → "Off, off, off with you! I'm on the verge of transforming an Elshimo frog into gold!"
 87: 0x09C5 [0x23] WAIT_FOR_DIALOG_INTERACTION

SUBROUTINE_09C6:
 88: 0x09C6 [0x21] END_EVENT
 89: 0x09C7 [0x00] END_REQSTACK()
```
