# 17735855 - Claiborne

## Common Data

| Field            | Value                  |
|------------------|------------------------|
| Zone             | Bastok Mines (ID: 234) |
| Block Size       | 4816 bytes             |
| Total Events     | 2                      |
| References Count | 175                    |

## List of Events

| Event ID              | Entrypoint   |   Size |   Instructions |
|-----------------------|--------------|--------|----------------|
| [65535](#event-65535) | 0x0000       |      1 |              1 |
| [558](#event-558)     | 0x0001       |   4088 |            739 |

## DAT References (imed_data)

|   Index | Hex Value   |   Dec Value |
|---------|-------------|-------------|
|       0 | 0x0001      |           1 |
|       1 | 0x391C      |       14620 |
|       2 | 0x0000      |           0 |
|       3 | 0x0002      |           2 |
|       4 | 0x0003      |           3 |
|       5 | 0x0004      |           4 |
|       6 | 0x00F6      |         246 |
|       7 | 0x000F      |          15 |
|       8 | 0x0010      |          16 |
|       9 | 0x0012      |          18 |
|      10 | 0x0013      |          19 |
|      11 | 0x0017      |          23 |
|      12 | 0x0018      |          24 |
|      13 | 0x0019      |          25 |
|      14 | 0x0009      |           9 |
|      15 | 0x0007      |           7 |
|      16 | 0x0008      |           8 |
|      17 | 0x001F      |          31 |
|      18 | 0x000C      |          12 |
|      19 | 0x000D      |          13 |
|      20 | 0x0011      |          17 |
|      21 | 0x0014      |          20 |
|      22 | 0x001B      |          27 |
|      23 | 0x001C      |          28 |
|      24 | 0x001E      |          30 |
|      25 | 0x393A      |       14650 |
|      26 | 0xFFFFFFFF  |  4294967295 |
|      27 | 0x00FF      |         255 |
|      28 | 0x01F4      |         500 |
|      29 | 0x02F4      |         756 |
|      30 | 0x03F4      |        1012 |
|      31 | 0x04F4      |        1268 |
|      32 | 0x393D      |       14653 |
|      33 | 0x0CF4      |        3316 |
|      34 | 0x0005      |           5 |
|      35 | 0x0DF4      |        3572 |
|      36 | 0x0006      |           6 |
|      37 | 0x0EF4      |        3828 |
|      38 | 0x393B      |       14651 |
|      39 | 0x05F4      |        1524 |
|      40 | 0x06F4      |        1780 |
|      41 | 0x393C      |       14652 |
|      42 | 0x07F4      |        2036 |
|      43 | 0x000A      |          10 |
|      44 | 0x3940      |       14656 |
|      45 | 0x0200      |         512 |
|      46 | 0x000B      |          11 |
|      47 | 0x0BF4      |        3060 |
|      48 | 0x393E      |       14654 |
|      49 | 0x08F4      |        2292 |
|      50 | 0x3941      |       14657 |
|      51 | 0x09F4      |        2548 |
|      52 | 0x393F      |       14655 |
|      53 | 0x0AF4      |        2804 |
|      54 | 0x000E      |          14 |
|      55 | 0x00F3      |         243 |
|      56 | 0x391E      |       14622 |
|      57 | 0x391F      |       14623 |
|      58 | 0x0101      |         257 |
|      59 | 0x0201      |         513 |
|      60 | 0x0301      |         769 |
|      61 | 0x03E8      |        1000 |
|      62 | 0x00FE      |         254 |
|      63 | 0x3921      |       14625 |
|      64 | 0x00FD      |         253 |
|      65 | 0x3923      |       14627 |
|      66 | 0x01FC      |         508 |
|      67 | 0x02FC      |         764 |
|      68 | 0x00FB      |         251 |
|      69 | 0x3924      |       14628 |
|      70 | 0x3925      |       14629 |
|      71 | 0x00FA      |         250 |
|      72 | 0x0015      |          21 |
|      73 | 0x0016      |          22 |
|      74 | 0x001A      |          26 |
|      75 | 0x001D      |          29 |
|      76 | 0x3926      |       14630 |
|      77 | 0x00F8      |         248 |
|      78 | 0x7FFFFFFE  |  2147483646 |
|      79 | 0x3927      |       14631 |
|      80 | 0x00F9      |         249 |
|      81 | 0x00F7      |         247 |
|      82 | 0x00ED      |         237 |
|      83 | 0x391D      |       14621 |
|      84 | 0xFFFF      |       65535 |
|      85 | 0x00EE      |         238 |
|      86 | 0x00EF      |         239 |
|      87 | 0x00F0      |         240 |
|      88 | 0x00F1      |         241 |
|      89 | 0x00F2      |         242 |
|      90 | 0x0023      |          35 |
|      91 | 0x0028      |          40 |
|      92 | 0x002D      |          45 |
|      93 | 0x0032      |          50 |
|      94 | 0x0064      |         100 |
|      95 | 0x05DC      |        1500 |
|      96 | 0x0BB8      |        3000 |
|      97 | 0x1388      |        5000 |
|      98 | 0x157C      |        5500 |
|      99 | 0x1770      |        6000 |
|     100 | 0x1964      |        6500 |
|     101 | 0x1B58      |        7000 |
|     102 | 0x1D4C      |        7500 |
|     103 | 0x1F40      |        8000 |
|     104 | 0x2134      |        8500 |
|     105 | 0x2328      |        9000 |
|     106 | 0x2710      |       10000 |
|     107 | 0x0037      |          55 |
|     108 | 0x003C      |          60 |
|     109 | 0x0041      |          65 |
|     110 | 0x0046      |          70 |
|     111 | 0x004B      |          75 |
|     112 | 0x0050      |          80 |
|     113 | 0x0055      |          85 |
|     114 | 0x005A      |          90 |
|     115 | 0x0096      |         150 |
|     116 | 0x00C8      |         200 |
|     117 | 0x012C      |         300 |
|     118 | 0x0190      |         400 |
|     119 | 0x0258      |         600 |
|     120 | 0x0320      |         800 |
|     121 | 0x07D0      |        2000 |
|     122 | 0x09C4      |        2500 |
|     123 | 0x0DAC      |        3500 |
|     124 | 0x0FA0      |        4000 |
|     125 | 0x1194      |        4500 |
|     126 | 0x251C      |        9500 |
|     127 | 0x2AF8      |       11000 |
|     128 | 0x2EE0      |       12000 |
|     129 | 0x32C8      |       13000 |
|     130 | 0x36B0      |       14000 |
|     131 | 0x3A98      |       15000 |
|     132 | 0x3E80      |       16000 |
|     133 | 0x4268      |       17000 |
|     134 | 0x4650      |       18000 |
|     135 | 0x4A38      |       19000 |
|     136 | 0x4E20      |       20000 |
|     137 | 0x55F0      |       22000 |
|     138 | 0x5DC0      |       24000 |
|     139 | 0x6590      |       26000 |
|     140 | 0x6D60      |       28000 |
|     141 | 0x7530      |       30000 |
|     142 | 0x7D00      |       32000 |
|     143 | 0x84D0      |       34000 |
|     144 | 0x8CA0      |       36000 |
|     145 | 0x9470      |       38000 |
|     146 | 0x9C40      |       40000 |
|     147 | 0xA410      |       42000 |
|     148 | 0xABE0      |       44000 |
|     149 | 0xB3B0      |       46000 |
|     150 | 0xBB80      |       48000 |
|     151 | 0xC350      |       50000 |
|     152 | 0xD6D8      |       55000 |
|     153 | 0xEA60      |       60000 |
|     154 | 0xFDE8      |       65000 |
|     155 | 0x11170     |       70000 |
|     156 | 0x124F8     |       75000 |
|     157 | 0x13880     |       80000 |
|     158 | 0x14C08     |       85000 |
|     159 | 0x15F90     |       90000 |
|     160 | 0x17318     |       95000 |
|     161 | 0x186A0     |      100000 |
|     162 | 0x0955      |        2389 |
|     163 | 0x0956      |        2390 |
|     164 | 0x0957      |        2391 |
|     165 | 0x0958      |        2392 |
|     166 | 0x0959      |        2393 |
|     167 | 0x095A      |        2394 |
|     168 | 0x095B      |        2395 |
|     169 | 0x095C      |        2396 |
|     170 | 0x095D      |        2397 |
|     171 | 0x095E      |        2398 |
|     172 | 0x095F      |        2399 |
|     173 | 0x0960      |        2400 |
|     174 | 0x0961      |        2401 |

## String References

- **14620**: What do you want to do? [Change value./Unregister 'bo./Default./Create documentation./Change PVP values./Quit.]
- **14621**: Change which values? [Indv. Win Points: $0./No. of entries: $1./No. of victories: $2./Reset re-race timer./Reset userwork./Quit.]
- **14622**: What do you want to change? [Branch [None/San/Bas/Win]./Chocobucks: $1./Cleared Stages: $2./Stage Challenge Flag: [off/on]./Practice Times: $4./Stock Item./Jockey Orders: [Sprint/Keep pace/Final spurt]./Equipment: $6./Chocobo Data./Nothing.]
- **14623**: Set to where? [San d'Oria./Bastok./Windurst./Quit.]
- **14625**: How many stages cleared? [None./1."."./4./5./6./7./8.(act2start)/9./10./11./12./13./14./Quit.]
- **14627**: Stage Challenge FlagF[ON/OFF] [ON (Can't challenge)./OFF (Can challenge)./Quit.]
- **14628**: Select a stock item. [$0./$1./$2./$3./$4./$5./$6./$7./$8./$9./$10./$11./$12./$13./$14./$15./$16./$17./$18./$19./$20./$21./$22./$23./$24./$25./$26./$27./$28./$29./$30./Quit.]
- **14629**: Currently in possession: [No/Yes]. [[Get?/Toss?]/Quit.]
- **14630**: Select Order: [Sprint./Keep pace./Final spurt./Quit.]
- **14631**: Now: $31. [None./$1./$2./$3./$4./$5./$6./$7./$8./$9./$10./$11./$12./$13./$14./$15./$16./$17./$18./$19./$20./$21./$22./$23./$24./$25./$26./$27./$28./$29./$30./Quit.]
- **14650**: Adjust what? [Strength: $0/Endurance: $1/Discernment: $2/Receptivity: $3/Head: [Normal/Big]/Legs: [Normal/Big]/Tail: [Normal/Big]/Ability 1: [None/Gallop/Canter/Burrow/Bore/Auto-Regen/Treasure Finder]/Ability 2: [None/Gallop/Canter/Burrow/Bore/Auto-Regen/Treasure Finder]/Personality: [regular/fierce/patient/nervous/mysterious]/Waether: [Clear/Fire/Rain/Dust/Wind/Snow/Lightning/Light/Dark/--/Cloudy]/Sex: [$9/$10]/Color: [Yellow/Black/Blue/Red/Green]/Size: [Hume$9/Hume$10/Elvaan$9/Elvaan$10/Tarutaru$9/Tarutaru$10/Mithra/Galka]/Create Registration./Quit.]
- **14651**: Which?iNow:[None/Gallop/Canter/Burrow/Bore/Auto-Regen/Treasure Finder]) [None./Gallop./Canter./Burrow./Bore./Auto-Regen./Treasure Finder./Quit.]
- **14652**: Which?iNow: [regular/fierce/patient/nervous/mysterious]) [Regular./Fierce./Patient./Nervous./Mysterious./Quit.]
- **14653**: Which type?iNow: [Normal/Special]) [Normal./Special./Quit.]
- **14654**: Which?iNow: [$9/$10]) [$9./$10./Quit.]
- **14655**: Which? (Now:[Hume$9/Hume$10/Elvaan$9/Elvaan$10/Tarutaru$9/Tarutaru$10/Mithra/Galka]) [Hume$9./Hume$10./Elvaan$9./Elvaan$10./Tarutaru$9./Tarutaru$10./Mithra./Galka./Quit.]
- **14656**: Which? (Now: [Clear/Fire/Rain/Dust/Wind/Snow/Lightning/Light/Dark/--/Cloudy]) [Clear./Fire./Snow./Wind./Sand./Lightning./Rain./Aurora./Darkness./ /Cloudy./Quit.]
- **14657**: Which? (Now: [Yellow/Black/Blue/Red/Green]) [Yellow./Black./Blue./Red./Green./Quit.]

## Events

### Event 65535

#### Metadata

| Field        | Value   |
|--------------|---------|
| Entrypoint   | 0x0000  |
| Data Size    | 1 bytes |
| Instructions | 1       |

```
      00 01 02 03 04 05 06 07  08 09 0A 0B 0C 0D 0E 0F
      -- -- -- -- -- -- -- --  -- -- -- -- -- -- -- --
0000: 00                                                .               
```

#### Opcodes

```
  0: 0x0000 [0x00] END_REQSTACK()
```

### Event 558

#### Metadata

| Field        | Value      |
|--------------|------------|
| Entrypoint   | 0x0001     |
| Data Size    | 4088 bytes |
| Instructions | 629        |

```
      00 01 02 03 04 05 06 07  08 09 0A 0B 0C 0D 0E 0F
      -- -- -- -- -- -- -- --  -- -- -- -- -- -- -- --
0000:    02 00 80 00 80 00 60  00 1A 62 00 24 01 80 02   ......`..b.$...
0010: 80 02 80 25 02 00 10 02  80 00 22 00 1A 9A 05 01  ...%......".....
0020: 5D 00 02 00 10 00 80 00  30 00 1A 94 0B 01 5D 00  ].......0.....].
0030: 02 00 10 03 80 00 3E 00  1A 9E 0B 01 5D 00 02 00  ......>.....]...
0040: 10 04 80 00 4C 00 1A 90  05 01 5D 00 02 00 10 05  ....L.....].....
0050: 80 00 5A 00 1A A8 0B 01  5D 00 01 60 00 01 01 00  ..Z.....]..`....
0060: 21 00 03 01 10 06 80 43  00 43 01 06 00 00 06 01  !......C.C......
0070: 00 06 02 00 06 03 00 06  04 00 06 05 00 06 06 00  ................
0080: 06 07 00 06 08 00 06 09  00 41 02 80 07 80 02 10  .........A......
0090: 00 00 41 08 80 09 80 02  10 01 00 41 0A 80 0B 80  ..A........A....
00A0: 02 10 03 00 41 0C 80 0C  80 02 10 04 00 41 0D 80  ....A........A..
00B0: 0D 80 02 10 09 00 03 06  00 03 10 41 02 80 04 80  ...........A....
00C0: 04 10 07 00 41 05 80 0E  80 04 10 08 00 03 0E 00  ....A...........
00D0: 05 10 03 0F 00 06 10 03  05 00 07 10 03 02 00 03  ................
00E0: 00 07 02 00 00 80 1B 02  00 80 00 80 00 8F 05 1A  ................
00F0: 62 00 41 02 80 0F 80 0E  00 02 10 41 10 80 07 80  b.A........A....
0100: 0E 00 03 10 41 08 80 0B  80 0E 00 04 10 41 0C 80  ....A........A..
0110: 11 80 0E 00 05 10 41 08  80 08 80 0E 00 06 10 41  ......A........A
0120: 02 80 02 80 0E 00 07 10  41 10 80 10 80 0E 00 08  ........A.......
0130: 10 41 0E 80 12 80 0F 00  09 10 41 13 80 08 80 0F  .A........A.....
0140: 00 00 17 41 14 80 0A 80  0F 00 01 17 41 15 80 0B  ...A........A...
0150: 80 0F 00 02 17 41 0C 80  0C 80 0F 00 03 17 41 0D  .....A........A.
0160: 80 16 80 0F 00 04 17 41  17 80 18 80 0F 00 05 17  .......A........
0170: 24 19 80 02 80 02 80 25  02 00 10 02 80 00 B7 01  $......%........
0180: 1A F6 06 02 02 10 1A 80  01 B4 01 02 02 10 1B 80  ................
0190: 02 98 01 03 02 10 1B 80  06 01 10 40 02 80 07 80  ...........@....
01A0: 01 10 1C 80 40 08 80 11  80 01 10 02 10 43 00 43  ....@........C.C
01B0: 01 01 B4 01 01 8C 05 02  00 10 00 80 00 F6 01 1A  ................
01C0: F6 06 02 02 10 1A 80 01  F3 01 02 02 10 1B 80 02  ................
01D0: D7 01 03 02 10 1B 80 06  01 10 40 02 80 07 80 01  ..........@.....
01E0: 10 1D 80 40 08 80 11 80  01 10 02 10 43 00 43 01  ...@........C.C.
01F0: 01 F3 01 01 8C 05 02 00  10 03 80 00 35 02 1A F6  ............5...
0200: 06 02 02 10 1A 80 01 32  02 02 02 10 1B 80 02 16  .......2........
0210: 02 03 02 10 1B 80 06 01  10 40 02 80 07 80 01 10  .........@......
0220: 1E 80 40 08 80 11 80 01  10 02 10 43 00 43 01 01  ..@........C.C..
0230: 32 02 01 8C 05 02 00 10  04 80 00 74 02 1A F6 06  2..........t....
0240: 02 02 10 1A 80 01 71 02  02 02 10 1B 80 02 55 02  ......q.......U.
0250: 03 02 10 1B 80 06 01 10  40 02 80 07 80 01 10 1F  ........@.......
0260: 80 40 08 80 11 80 01 10  02 10 43 00 43 01 01 71  .@........C.C..q
0270: 02 01 8C 05 02 00 10 05  80 00 C6 02 03 02 10 06  ................
0280: 10 24 20 80 02 80 02 80  25 02 00 10 02 80 00 A6  .$ .....%.......
0290: 02 03 01 10 21 80 40 08  80 11 80 01 10 02 80 43  ....!.@........C
02A0: 00 43 01 01 C3 02 02 00  10 00 80 00 C3 02 03 01  .C..............
02B0: 10 21 80 40 08 80 11 80  01 10 00 80 43 00 43 01  .!.@........C.C.
02C0: 01 C3 02 01 8C 05 02 00  10 22 80 00 18 03 03 02  ........."......
02D0: 10 07 10 24 20 80 02 80  02 80 25 02 00 10 02 80  ...$ .....%.....
02E0: 00 F8 02 03 01 10 23 80  40 08 80 11 80 01 10 02  ......#.@.......
02F0: 80 43 00 43 01 01 15 03  02 00 10 00 80 00 15 03  .C.C............
0300: 03 01 10 23 80 40 08 80  11 80 01 10 00 80 43 00  ...#.@........C.
0310: 43 01 01 15 03 01 8C 05  02 00 10 24 80 00 6A 03  C..........$..j.
0320: 03 02 10 08 10 24 20 80  02 80 02 80 25 02 00 10  .....$ .....%...
0330: 02 80 00 4A 03 03 01 10  25 80 40 08 80 11 80 01  ...J....%.@.....
0340: 10 02 80 43 00 43 01 01  67 03 02 00 10 00 80 00  ...C.C..g.......
0350: 67 03 03 01 10 25 80 40  08 80 11 80 01 10 00 80  g....%.@........
0360: 43 00 43 01 01 67 03 01  8C 05 02 00 10 0F 80 00  C.C..g..........
0370: 9F 03 03 02 10 09 10 24  26 80 02 80 02 80 25 02  .......$&.....%.
0380: 00 10 0F 80 00 8A 03 01  9C 03 03 01 10 27 80 40  .............'.@
0390: 08 80 11 80 01 10 00 10  43 00 43 01 01 8C 05 02  ........C.C.....
03A0: 00 10 10 80 00 D4 03 03  02 10 00 17 24 26 80 02  ............$&..
03B0: 80 02 80 25 02 00 10 0F  80 00 BF 03 01 D1 03 03  ...%............
03C0: 01 10 28 80 40 08 80 11  80 01 10 00 10 43 00 43  ..(.@........C.C
03D0: 01 01 8C 05 02 00 10 0E  80 00 09 04 03 02 10 01  ................
03E0: 17 24 29 80 02 80 02 80  25 02 00 10 22 80 00 F4  .$).....%..."...
03F0: 03 01 06 04 03 01 10 2A  80 40 08 80 11 80 01 10  .......*.@......
0400: 00 10 43 00 43 01 01 8C  05 02 00 10 2B 80 00 DE  ..C.C.......+...
0410: 04 03 02 10 02 17 24 2C  80 02 80 2D 80 25 02 00  ......$,...-.%..
0420: 10 02 80 00 2E 04 03 02  10 02 80 01 DB 04 02 00  ................
0430: 10 00 80 00 3E 04 03 02  10 00 80 01 DB 04 02 00  ....>...........
0440: 10 03 80 00 4E 04 03 02  10 22 80 01 DB 04 02 00  ....N...."......
0450: 10 04 80 00 5E 04 03 02  10 05 80 01 DB 04 02 00  ....^...........
0460: 10 05 80 00 6E 04 03 02  10 04 80 01 DB 04 02 00  ....n...........
0470: 10 22 80 00 7E 04 03 02  10 24 80 01 DB 04 02 00  ."..~....$......
0480: 10 24 80 00 8E 04 03 02  10 03 80 01 DB 04 02 00  .$..............
0490: 10 0F 80 00 9E 04 03 02  10 0F 80 01 DB 04 02 00  ................
04A0: 10 10 80 00 AE 04 03 02  10 10 80 01 DB 04 02 00  ................
04B0: 10 2B 80 00 BE 04 03 02  10 2B 80 01 DB 04 02 00  .+.......+......
04C0: 10 2E 80 00 C9 04 01 DB  04 03 01 10 2F 80 40 08  ............/.@.
04D0: 80 11 80 01 10 02 10 43  00 43 01 01 8C 05 02 00  .......C.C......
04E0: 10 2E 80 00 13 05 03 02  10 03 17 24 30 80 02 80  ...........$0...
04F0: 02 80 25 02 00 10 03 80  00 FE 04 01 10 05 03 01  ..%.............
0500: 10 31 80 40 08 80 11 80  01 10 00 10 43 00 43 01  .1.@........C.C.
0510: 01 8C 05 02 00 10 12 80  00 48 05 03 02 10 04 17  .........H......
0520: 24 32 80 02 80 02 80 25  02 00 10 22 80 00 33 05  $2.....%..."..3.
0530: 01 45 05 03 01 10 33 80  40 08 80 11 80 01 10 00  .E....3.@.......
0540: 10 43 00 43 01 01 8C 05  02 00 10 13 80 00 7D 05  .C.C..........}.
0550: 03 02 10 05 17 24 34 80  02 80 02 80 25 02 00 10  .....$4.....%...
0560: 10 80 00 68 05 01 7A 05  03 01 10 35 80 40 08 80  ...h..z....5.@..
0570: 11 80 01 10 00 10 43 00  43 01 01 8C 05 02 00 10  ......C.C.......
0580: 36 80 00 8B 05 1A 90 05  01 8C 05 1B 01 E7 00 1B  6...............
0590: 03 01 10 37 80 43 00 43  01 1B 02 00 80 00 80 00  ...7.C.C........
05A0: 55 06 1A 62 00 03 02 10  01 00 03 03 10 00 00 03  U..b............
05B0: 04 10 03 00 03 05 10 04  00 03 06 10 05 00 03 07  ................
05C0: 10 07 00 9D 00 C9 0E 08  10 08 00 24 38 80 02 80  ...........$8...
05D0: 02 80 25 02 00 10 02 80  00 E1 05 1A 56 06 01 52  ..%.........V..R
05E0: 06 02 00 10 00 80 00 EF  05 1A BC 06 01 52 06 02  .............R..
05F0: 00 10 03 80 00 FD 05 1A  02 07 01 52 06 02 00 10  ...........R....
0600: 04 80 00 0B 06 1A 38 07  01 52 06 02 00 10 05 80  ......8..R......
0610: 00 19 06 1A 69 07 01 52  06 02 00 10 22 80 00 27  ....i..R...."..'
0620: 06 1A 96 07 01 52 06 02  00 10 24 80 00 35 06 1A  .....R....$..5..
0630: C8 0A 01 52 06 02 00 10  0F 80 00 43 06 1A 37 0B  ...R.......C..7.
0640: 01 52 06 02 00 10 10 80  00 51 06 1A E7 00 01 52  .R.......Q.....R
0650: 06 1B 01 9A 05 1B 03 02  10 01 00 02 02 10 02 80  ................
0660: 02 68 06 08 02 10 00 80  24 39 80 02 10 02 80 25  .h......$9.....%
0670: 02 00 10 02 80 00 89 06  03 01 00 00 80 03 01 10  ................
0680: 3A 80 43 00 43 01 01 BB  06 02 00 10 00 80 00 A2  :.C.C...........
0690: 06 03 01 00 03 80 03 01  10 3B 80 43 00 43 01 01  .........;.C.C..
06A0: BB 06 02 00 10 03 80 00  BB 06 03 01 00 04 80 03  ................
06B0: 01 10 3C 80 43 00 43 01  01 BB 06 1B 1A F6 06 02  ..<.C.C.........
06C0: 02 10 1A 80 01 F5 06 03  00 00 02 10 02 00 00 3D  ...............=
06D0: 80 02 D9 06 03 00 00 3D  80 06 01 10 40 02 80 07  .......=....@...
06E0: 80 01 10 3E 80 40 08 80  11 80 01 10 00 00 43 00  ...>.@........C.
06F0: 43 01 01 F5 06 1B 06 02  10 71 10 00 80 71 11 02  C........q...q..
0700: 10 1B 24 3F 80 02 80 02  80 25 02 00 10 02 80 00  ..$?.....%......
0710: 15 07 01 15 07 02 00 10  36 80 05 37 07 03 03 00  ........6..7....
0720: 00 10 03 01 10 40 80 40  08 80 11 80 01 10 03 00  .....@.@........
0730: 43 00 43 01 01 37 07 1B  24 41 80 04 00 02 80 25  C.C..7..$A.....%
0740: 02 00 10 02 80 00 54 07  03 01 10 42 80 43 00 43  ......T....B.C.C
0750: 01 01 68 07 02 00 10 00  80 00 68 07 03 01 10 43  ..h.......h....C
0760: 80 43 00 43 01 01 68 07  1B 71 12 00 80 04 80 71  .C.C..h..q.....q
0770: 13 00 10 02 00 10 1B 80  05 95 07 03 05 00 00 10  ................
0780: 03 01 10 44 80 40 08 80  11 80 01 10 05 00 43 00  ...D.@........C.
0790: 43 01 01 95 07 1B 02 00  80 00 80 00 09 08 1A 0A  C...............
07A0: 08 3C 1F 17 02 80 00 80  24 45 80 02 80 1F 17 25  .<......$E.....%
07B0: 02 00 10 02 80 00 BB 07  01 C7 07 02 00 10 11 80  ................
07C0: 00 C7 07 1B 01 C7 07 03  1D 17 00 10 3E 06 00 1D  ............>...
07D0: 17 DB 07 03 02 10 00 80  01 DE 07 06 02 10 24 46  ..............$F
07E0: 80 02 80 02 80 25 02 00  10 02 80 00 06 08 03 01  .....%..........
07F0: 10 47 80 40 08 80 11 80  01 10 1D 17 43 00 43 01  .G.@........C.C.
0800: 1A 62 00 01 06 08 01 96  07 1B 9D 00 C9 0E 02 10  .b..............
0810: 02 80 9D 00 C9 0E 03 10  00 80 9D 00 C9 0E 04 10  ................
0820: 03 80 9D 00 C9 0E 05 10  04 80 9D 00 C9 0E 06 10  ................
0830: 05 80 9D 00 C9 0E 07 10  22 80 9D 00 C9 0E 08 10  ........".......
0840: 24 80 9D 00 C9 0E 09 10  0F 80 9D 00 C9 0E 00 17  $...............
0850: 10 80 9D 00 C9 0E 01 17  0E 80 9D 00 C9 0E 02 17  ................
0860: 2B 80 9D 00 C9 0E 03 17  2E 80 9D 00 C9 0E 04 17  +...............
0870: 12 80 9D 00 C9 0E 05 17  13 80 9D 00 C9 0E 06 17  ................
0880: 36 80 9D 00 C9 0E 07 17  07 80 9D 00 C9 0E 08 17  6...............
0890: 08 80 9D 00 C9 0E 09 17  14 80 9D 00 C9 0E 0A 17  ................
08A0: 09 80 9D 00 C9 0E 0B 17  0A 80 9D 00 C9 0E 0C 17  ................
08B0: 15 80 9D 00 C9 0E 0D 17  48 80 9D 00 C9 0E 0E 17  ........H.......
08C0: 49 80 9D 00 C9 0E 0F 17  0B 80 9D 00 C9 0E 10 17  I...............
08D0: 0C 80 9D 00 C9 0E 11 17  0D 80 9D 00 C9 0E 12 17  ................
08E0: 4A 80 9D 00 C9 0E 13 17  16 80 9D 00 C9 0E 14 17  J...............
08F0: 17 80 9D 00 C9 0E 15 17  4B 80 9D 00 C9 0E 16 17  ........K.......
0900: 18 80 06 1F 17 02 03 10  02 80 00 14 09 3C 1F 17  .............<..
0910: 00 80 00 80 02 04 10 02  80 00 23 09 3C 1F 17 03  ..........#.<...
0920: 80 00 80 02 05 10 02 80  00 32 09 3C 1F 17 04 80  .........2.<....
0930: 00 80 02 06 10 02 80 00  41 09 3C 1F 17 05 80 00  ........A.<.....
0940: 80 02 07 10 02 80 00 50  09 3C 1F 17 22 80 00 80  .......P.<.."...
0950: 02 08 10 02 80 00 5F 09  3C 1F 17 24 80 00 80 02  ......_.<..$....
0960: 09 10 02 80 00 6E 09 3C  1F 17 0F 80 00 80 02 00  .....n.<........
0970: 17 02 80 00 7D 09 3C 1F  17 10 80 00 80 02 01 17  ....}.<.........
0980: 02 80 00 8C 09 3C 1F 17  0E 80 00 80 02 02 17 02  .....<..........
0990: 80 00 9B 09 3C 1F 17 2B  80 00 80 02 03 17 02 80  ....<..+........
09A0: 00 AA 09 3C 1F 17 2E 80  00 80 02 04 17 02 80 00  ...<............
09B0: B9 09 3C 1F 17 12 80 00  80 02 05 17 02 80 00 C8  ..<.............
09C0: 09 3C 1F 17 13 80 00 80  02 06 17 02 80 00 D7 09  .<..............
09D0: 3C 1F 17 36 80 00 80 02  07 17 02 80 00 E6 09 3C  <..6...........<
09E0: 1F 17 07 80 00 80 02 08  17 02 80 00 F5 09 3C 1F  ..............<.
09F0: 17 08 80 00 80 02 09 17  02 80 00 04 0A 3C 1F 17  .............<..
0A00: 14 80 00 80 02 0A 17 02  80 00 13 0A 3C 1F 17 09  ............<...
0A10: 80 00 80 02 0B 17 02 80  00 22 0A 3C 1F 17 0A 80  .........".<....
0A20: 00 80 02 0C 17 02 80 00  31 0A 3C 1F 17 15 80 00  ........1.<.....
0A30: 80 02 0D 17 02 80 00 40  0A 3C 1F 17 48 80 00 80  .......@.<..H...
0A40: 02 0E 17 02 80 00 4F 0A  3C 1F 17 49 80 00 80 02  ......O.<..I....
0A50: 0F 17 02 80 00 5E 0A 3C  1F 17 0B 80 00 80 02 10  .....^.<........
0A60: 17 02 80 00 6D 0A 3C 1F  17 0C 80 00 80 02 11 17  ....m.<.........
0A70: 02 80 00 7C 0A 3C 1F 17  0D 80 00 80 02 12 17 02  ...|.<..........
0A80: 80 00 8B 0A 3C 1F 17 4A  80 00 80 02 13 17 02 80  ....<..J........
0A90: 00 9A 0A 3C 1F 17 16 80  00 80 02 14 17 02 80 00  ...<............
0AA0: A9 0A 3C 1F 17 17 80 00  80 02 15 17 02 80 00 B8  ..<.............
0AB0: 0A 3C 1F 17 4B 80 00 80  02 16 17 02 80 00 C7 0A  .<..K...........
0AC0: 3C 1F 17 18 80 00 80 1B  24 4C 80 02 80 02 80 25  <.......$L.....%
0AD0: 02 00 10 02 80 00 F2 0A  03 07 00 02 80 03 01 10  ................
0AE0: 4D 80 40 08 80 11 80 01  10 07 00 43 00 43 01 01  M.@........C.C..
0AF0: 36 0B 02 00 10 00 80 00  14 0B 03 07 00 00 80 03  6...............
0B00: 01 10 4D 80 40 08 80 11  80 01 10 07 00 43 00 43  ..M.@........C.C
0B10: 01 01 36 0B 02 00 10 03  80 00 36 0B 03 07 00 03  ..6.......6.....
0B20: 80 03 01 10 4D 80 40 08  80 11 80 01 10 07 00 43  ....M.@........C
0B30: 00 43 01 01 36 0B 1B 1A  0A 08 02 00 80 00 80 00  .C..6...........
0B40: 93 0B 9D 00 C9 0E 17 17  08 00 03 18 17 06 00 0F  ................
0B50: 18 17 1A 80 0D 18 17 4E  80 24 4F 80 02 80 18 17  .......N.$O.....
0B60: 25 02 00 10 02 80 00 6C  0B 01 78 0B 02 00 10 11  %......l..x.....
0B70: 80 00 78 0B 1B 01 78 0B  03 08 00 00 10 03 01 10  ..x...x.........
0B80: 50 80 40 08 80 11 80 01  10 08 00 43 00 43 01 1B  P.@........C.C..
0B90: 01 3A 0B 1B 03 01 10 51  80 43 00 43 01 1B 03 01  .:.....Q.C.C....
0BA0: 10 1B 80 43 00 43 01 1B  02 00 80 00 80 00 C8 0C  ...C.C..........
0BB0: 03 01 10 52 80 43 00 43  01 03 10 00 02 10 03 11  ...R.C.C........
0BC0: 00 03 10 03 12 00 04 10  24 53 80 02 80 02 80 25  ........$S.....%
0BD0: 02 00 10 02 80 00 14 0C  1A F6 06 02 02 10 1A 80  ................
0BE0: 01 11 0C 03 10 00 02 10  02 10 00 54 80 02 F5 0B  ...........T....
0BF0: 03 10 00 54 80 06 01 10  40 02 80 07 80 01 10 55  ...T....@......U
0C00: 80 40 08 80 11 80 01 10  10 00 43 00 43 01 01 11  .@........C.C...
0C10: 0C 01 C5 0C 02 00 10 00  80 00 58 0C 1A F6 06 02  ..........X.....
0C20: 02 10 1A 80 01 55 0C 03  11 00 02 10 02 11 00 54  .....U.........T
0C30: 80 02 39 0C 03 11 00 54  80 06 01 10 40 02 80 07  ..9....T....@...
0C40: 80 01 10 56 80 40 08 80  11 80 01 10 10 00 43 00  ...V.@........C.
0C50: 43 01 01 55 0C 01 C5 0C  02 00 10 03 80 00 9C 0C  C..U............
0C60: 1A F6 06 02 02 10 1A 80  01 99 0C 03 12 00 02 10  ................
0C70: 02 12 00 54 80 02 7D 0C  03 12 00 54 80 06 01 10  ...T..}....T....
0C80: 40 02 80 07 80 01 10 57  80 40 08 80 11 80 01 10  @......W.@......
0C90: 12 00 43 00 43 01 01 99  0C 01 C5 0C 02 00 10 04  ..C.C...........
0CA0: 80 00 B0 0C 03 01 10 58  80 43 00 43 01 01 C5 0C  .......X.C.C....
0CB0: 02 00 10 05 80 00 C4 0C  03 01 10 59 80 43 00 43  ...........Y.C.C
0CC0: 01 01 C5 0C 1B 01 A8 0B  1B 02 80 02 80 02 80 04  ................
0CD0: 80 22 80 2B 80 07 80 15  80 0D 80 18 80 5A 80 5B  .".+.........Z.[
0CE0: 80 5C 80 5D 80 5E 80 5E  80 5E 80 5E 80 5E 80 5E  .\.].^.^.^.^.^.^
0CF0: 80 5E 80 5E 80 5E 80 5E  80 5E 80 5E 80 5E 80 5E  .^.^.^.^.^.^.^.^
0D00: 80 5E 80 5E 80 5E 80 5E  80 02 80 02 80 02 80 00  .^.^.^.^........
0D10: 80 00 80 00 80 00 80 00  80 03 80 04 80 04 80 05  ................
0D20: 80 05 80 22 80 5E 80 5E  80 5E 80 5E 80 5E 80 5E  ...".^.^.^.^.^.^
0D30: 80 5E 80 5E 80 5E 80 5E  80 5E 80 5E 80 5E 80 5E  .^.^.^.^.^.^.^.^
0D40: 80 5E 80 5E 80 5E 80 5E  80 1C 80 3D 80 5F 80 60  .^.^.^.^...=._.`
0D50: 80 61 80 62 80 63 80 64  80 65 80 66 80 67 80 68  .a.b.c.d.e.f.g.h
0D60: 80 69 80 6A 80 02 80 02  80 02 80 02 80 02 80 02  .i.j............
0D70: 80 02 80 02 80 02 80 02  80 02 80 02 80 02 80 02  ................
0D80: 80 02 80 02 80 02 80 02  80 00 80 00 80 00 80 18  ................
0D90: 80 5D 80 6B 80 6C 80 6D  80 6E 80 6F 80 70 80 71  .].k.l.m.n.o.p.q
0DA0: 80 72 80 5E 80 02 80 02  80 02 80 02 80 02 80 02  .r.^............
0DB0: 80 02 80 02 80 02 80 02  80 02 80 02 80 02 80 02  ................
0DC0: 80 02 80 02 80 02 80 02  80 02 80 02 80 04 80 02  ................
0DD0: 80 02 80 02 80 02 80 2B  80 07 80 07 80 15 80 15  .......+........
0DE0: 80 18 80 18 80 02 80 02  80 02 80 02 80 02 80 02  ................
0DF0: 80 02 80 02 80 02 80 02  80 02 80 02 80 02 80 02  ................
0E00: 80 02 80 02 80 02 80 02  80 00 80 00 80 00 80 00  ................
0E10: 80 00 80 00 80 00 80 00  80 03 80 24 80 24 80 36  ...........$.$.6
0E20: 80 00 80 24 80 00 80 00  80 00 80 00 80 00 80 00  ...$............
0E30: 80 00 80 00 80 00 80 00  80 5E 80 73 80 74 80 75  .........^.s.t.u
0E40: 80 76 80 77 80 78 80 3D  80 5F 80 79 80 7A 80 60  .v.w.x.=._.y.z.`
0E50: 80 7B 80 7C 80 7D 80 61  80 62 80 63 80 64 80 65  .{.|.}.a.b.c.d.e
0E60: 80 66 80 67 80 68 80 69  80 7E 80 6A 80 7F 80 80  .f.g.h.i.~.j....
0E70: 80 81 80 82 80 83 80 84  80 85 80 86 80 87 80 88  ................
0E80: 80 89 80 8A 80 8B 80 8C  80 8D 80 8E 80 8F 80 90  ................
0E90: 80 91 80 92 80 93 80 94  80 95 80 96 80 97 80 98  ................
0EA0: 80 99 80 9A 80 9B 80 9C  80 9D 80 9E 80 9F 80 A0  ................
0EB0: 80 A1 80 A1 80 A1 80 A1  80 22 80 04 80 00 80 00  ........."......
0EC0: 80 00 80 00 80 00 80 02  80 02 80 A2 80 A3 80 A4  ................
0ED0: 80 A5 80 A6 80 A7 80 A8  80 A9 80 AA 80 02 80 02  ................
0EE0: 80 02 80 02 80 02 80 02  80 02 80 02 80 02 80 02  ................
0EF0: 80 02 80 02 80 02 80 02  80 02 80 02 80 02 80 AB  ................
0F00: 80 AC 80 AD 80 AE 80 1B  80 05 80 24 80 10 80 03  ...........$....
0F10: 80 10 80 10 80 04 80 10  80 03 80 10 80 10 80 10  ................
0F20: 80 10 80 10 80 10 80 10  80 02 80 02 80 02 80 02  ................
0F30: 80 03 80 04 80 02 80 00  80 02 80 02 80 02 80 02  ................
0F40: 80 04 80 00 80 02 80 03  80 02 80 02 80 02 80 02  ................
0F50: 80 00 80 03 80 02 80 04  80 05 80 05 80 05 80 05  ................
0F60: 80 05 80 05 80 02 80 02  80 05 80 05 80 05 80 05  ................
0F70: 80 05 80 05 80 02 80 02  80 05 80 05 80 05 80 05  ................
0F80: 80 05 80 05 80 02 80 02  80 02 80 02 80 02 80 02  ................
0F90: 80 02 80 02 80 02 80 02  80 02 80 02 80 02 80 22  ..............."
0FA0: 80 05 80 02 80 02 80 02  80 02 80 02 80 02 80 02  ................
0FB0: 80 02 80 02 80 02 80 02  80 02 80 02 80 02 80 02  ................
0FC0: 80 02 80 02 80 02 80 02  80 02 80 02 80 02 80 02  ................
0FD0: 80 02 80 02 80 02 80 02  80 02 80 02 80 02 80 02  ................
0FE0: 80 02 80 02 80 02 80 02  80 02 80 02 80 02 80 02  ................
0FF0: 80 02 80 02 80 02 80 02  80                       .........       
```

#### Opcodes

```
  0: 0x0001 [0x02] IF !(1* == 1*) GOTO 0x0060
  1: 0x0009 [0x1A] CALL_SUBROUTINE(address=0x0062)
  2: 0x000C [0x24] CREATE_DIALOG(message_id=14620*, default_option=0*, option_flags=0*)
    → "What do you want to do? [Change value./Unregister 'bo./Default./Create documentation./Change PVP values./Quit.]"
  3: 0x0013 [0x25] WAIT_DIALOG_SELECT()
  4: 0x0014 [0x02] IF !(Work_Zone[0] == 0*) GOTO 0x0022
  5: 0x001C [0x1A] CALL_SUBROUTINE(address=0x059A)
  6: 0x001F [0x01] GOTO 0x005D
  7: 0x0022 [0x02] IF !(Work_Zone[0] == 1*) GOTO 0x0030
  8: 0x002A [0x1A] CALL_SUBROUTINE(address=0x0B94)
  9: 0x002D [0x01] GOTO 0x005D
 10: 0x0030 [0x02] IF !(Work_Zone[0] == 2*) GOTO 0x003E
 11: 0x0038 [0x1A] CALL_SUBROUTINE(address=0x0B9E)
 12: 0x003B [0x01] GOTO 0x005D
 13: 0x003E [0x02] IF !(Work_Zone[0] == 3*) GOTO 0x004C
 14: 0x0046 [0x1A] CALL_SUBROUTINE(address=0x0590)
 15: 0x0049 [0x01] GOTO 0x005D
 16: 0x004C [0x02] IF !(Work_Zone[0] == 4*) GOTO 0x005A
 17: 0x0054 [0x1A] CALL_SUBROUTINE(address=0x0BA8)
 18: 0x0057 [0x01] GOTO 0x005D
 19: 0x005A [0x01] GOTO 0x0060

SUBROUTINE_005D:
 20: 0x005D [0x01] GOTO 0x0001

SUBROUTINE_0060:
 21: 0x0060 [0x21] END_EVENT
 22: 0x0061 [0x00] END_REQSTACK()

SUBROUTINE_0062:
 23: 0x0062 [0x03] Work_Zone[1] = 246*
 24: 0x0067 [0x43] SEND_EVENT_UPDATE: Send pending tag to server (packet 0x005B)
 25: 0x0069 [0x43] SEND_EVENT_UPDATE: Check pending flag (skip if not pending)
 26: 0x006B [0x06] ExtData[1]->WorkLocal[0] = 0
 27: 0x006E [0x06] ExtData[1]->WorkLocal[1] = 0
 28: 0x0071 [0x06] ExtData[1]->WorkLocal[2] = 0
 29: 0x0074 [0x06] ExtData[1]->WorkLocal[3] = 0
 30: 0x0077 [0x06] ExtData[1]->WorkLocal[4] = 0
 31: 0x007A [0x06] ExtData[1]->WorkLocal[5] = 0
 32: 0x007D [0x06] ExtData[1]->WorkLocal[6] = 0
 33: 0x0080 [0x06] ExtData[1]->WorkLocal[7] = 0
 34: 0x0083 [0x06] ExtData[1]->WorkLocal[8] = 0
 35: 0x0086 [0x06] ExtData[1]->WorkLocal[9] = 0
 36: 0x0089 [0x41] ExtData[1]->WorkLocal[0] = Work_Zone[2] (bits 0*-15*)
 37: 0x0092 [0x41] ExtData[1]->WorkLocal[1] = Work_Zone[2] (bits 16*-18*)
 38: 0x009B [0x41] ExtData[1]->WorkLocal[3] = Work_Zone[2] (bits 19*-23*)
 39: 0x00A4 [0x41] ExtData[1]->WorkLocal[4] = Work_Zone[2] (bits 24*-24*)
 40: 0x00AD [0x41] ExtData[1]->WorkLocal[9] = Work_Zone[2] (bits 25*-25*)
 41: 0x00B6 [0x03] ExtData[1]->WorkLocal[6] = Work_Zone[3]
 42: 0x00BB [0x41] ExtData[1]->WorkLocal[7] = Work_Zone[4] (bits 0*-3*)
 43: 0x00C4 [0x41] ExtData[1]->WorkLocal[8] = Work_Zone[4] (bits 4*-9*)
 44: 0x00CD [0x03] ExtData[1]->WorkLocal[14] = Work_Zone[5]
 45: 0x00D2 [0x03] ExtData[1]->WorkLocal[15] = Work_Zone[6]
 46: 0x00D7 [0x03] ExtData[1]->WorkLocal[5] = Work_Zone[7]
 47: 0x00DC [0x03] ExtData[1]->WorkLocal[2] = ExtData[1]->WorkLocal[3]
 48: 0x00E1 [0x07] ExtData[1]->WorkLocal[2] += 1*
 49: 0x00E6 [0x1B] RETURN

SUBROUTINE_00E7:
 50: 0x00E7 [0x02] IF !(1* == 1*) GOTO 0x058F
 51: 0x00EF [0x1A] CALL_SUBROUTINE(address=0x0062)
 52: 0x00F2 [0x41] Work_Zone[2] = ExtData[1]->WorkLocal[14] (bits 0*-7*)
 53: 0x00FB [0x41] Work_Zone[3] = ExtData[1]->WorkLocal[14] (bits 8*-15*)
 54: 0x0104 [0x41] Work_Zone[4] = ExtData[1]->WorkLocal[14] (bits 16*-23*)
 55: 0x010D [0x41] Work_Zone[5] = ExtData[1]->WorkLocal[14] (bits 24*-31*)
 56: 0x0116 [0x41] Work_Zone[6] = ExtData[1]->WorkLocal[14] (bits 16*-16*)
 57: 0x011F [0x41] Work_Zone[7] = ExtData[1]->WorkLocal[14] (bits 0*-0*)
 58: 0x0128 [0x41] Work_Zone[8] = ExtData[1]->WorkLocal[14] (bits 8*-8*)
 59: 0x0131 [0x41] Work_Zone[9] = ExtData[1]->WorkLocal[15] (bits 9*-12*)
 60: 0x013A [0x41] Work_Zone_1700[0] = ExtData[1]->WorkLocal[15] (bits 13*-16*)
 61: 0x0143 [0x41] Work_Zone_1700[1] = ExtData[1]->WorkLocal[15] (bits 17*-19*)
 62: 0x014C [0x41] Work_Zone_1700[2] = ExtData[1]->WorkLocal[15] (bits 20*-23*)
 63: 0x0155 [0x41] Work_Zone_1700[3] = ExtData[1]->WorkLocal[15] (bits 24*-24*)
 64: 0x015E [0x41] Work_Zone_1700[4] = ExtData[1]->WorkLocal[15] (bits 25*-27*)
 65: 0x0167 [0x41] Work_Zone_1700[5] = ExtData[1]->WorkLocal[15] (bits 28*-30*)
 66: 0x0170 [0x24] CREATE_DIALOG(message_id=14650*, default_option=0*, option_flags=0*)
    → "Adjust what? [Strength: $0/Endurance: $1/Discernment: $2/Receptivity: $3/Head: [Normal/Big]/Legs: [Normal/Big]/Tail: [Normal/Big]/Ability 1: [None/Gallop/Canter/Burrow/Bore/Auto-Regen/Treasure Finder]/Ability 2: [None/Gallop/Canter/Burrow/Bore/Auto-Regen/Treasure Finder]/Personality: [regular/fierce/patient/nervous/mysterious]/Waether: [Clear/Fire/Rain/Dust/Wind/Snow/Lightning/Light/Dark/--/Cloudy]/Sex: [$9/$10]/Color: [Yellow/Black/Blue/Red/Green]/Size: [Hume$9/Hume$10/Elvaan$9/Elvaan$10/Tarutaru$9/Tarutaru$10/Mithra/Galka]/Create Registration./Quit.]"
 67: 0x0177 [0x25] WAIT_DIALOG_SELECT()
 68: 0x0178 [0x02] IF !(Work_Zone[0] == 0*) GOTO 0x01B7
 69: 0x0180 [0x1A] CALL_SUBROUTINE(address=0x06F6)
 70: 0x0183 [0x02] IF !(Work_Zone[2] == 4294967295*) GOTO 0x01B4
 71: 0x018B [0x02] IF !(Work_Zone[2] <= 255*) GOTO 0x0198
 72: 0x0193 [0x03] Work_Zone[2] = 255*
 73: 0x0198 [0x06] Work_Zone[1] = 0
 74: 0x019B [0x40] SET_BIT_WORK_RANGE(start_bit=0*, end_bit=15*, target=Work_Zone[1], source=500*)
 75: 0x01A4 [0x40] SET_BIT_WORK_RANGE(start_bit=16*, end_bit=31*, target=Work_Zone[1], source=Work_Zone[2])
 76: 0x01AD [0x43] SEND_EVENT_UPDATE: Send pending tag to server (packet 0x005B)
 77: 0x01AF [0x43] SEND_EVENT_UPDATE: Check pending flag (skip if not pending)
 78: 0x01B1 [0x01] GOTO 0x01B4

SUBROUTINE_01B4:
 79: 0x01B4 [0x01] GOTO 0x058C
 80: 0x01B7 [0x02] IF !(Work_Zone[0] == 1*) GOTO 0x01F6
 81: 0x01BF [0x1A] CALL_SUBROUTINE(address=0x06F6)
 82: 0x01C2 [0x02] IF !(Work_Zone[2] == 4294967295*) GOTO 0x01F3
 83: 0x01CA [0x02] IF !(Work_Zone[2] <= 255*) GOTO 0x01D7
 84: 0x01D2 [0x03] Work_Zone[2] = 255*
 85: 0x01D7 [0x06] Work_Zone[1] = 0
 86: 0x01DA [0x40] SET_BIT_WORK_RANGE(start_bit=0*, end_bit=15*, target=Work_Zone[1], source=756*)
 87: 0x01E3 [0x40] SET_BIT_WORK_RANGE(start_bit=16*, end_bit=31*, target=Work_Zone[1], source=Work_Zone[2])
 88: 0x01EC [0x43] SEND_EVENT_UPDATE: Send pending tag to server (packet 0x005B)
 89: 0x01EE [0x43] SEND_EVENT_UPDATE: Check pending flag (skip if not pending)
 90: 0x01F0 [0x01] GOTO 0x01F3

SUBROUTINE_01F3:
 91: 0x01F3 [0x01] GOTO 0x058C
 92: 0x01F6 [0x02] IF !(Work_Zone[0] == 2*) GOTO 0x0235
 93: 0x01FE [0x1A] CALL_SUBROUTINE(address=0x06F6)
 94: 0x0201 [0x02] IF !(Work_Zone[2] == 4294967295*) GOTO 0x0232
 95: 0x0209 [0x02] IF !(Work_Zone[2] <= 255*) GOTO 0x0216
 96: 0x0211 [0x03] Work_Zone[2] = 255*
 97: 0x0216 [0x06] Work_Zone[1] = 0
 98: 0x0219 [0x40] SET_BIT_WORK_RANGE(start_bit=0*, end_bit=15*, target=Work_Zone[1], source=1012*)
 99: 0x0222 [0x40] SET_BIT_WORK_RANGE(start_bit=16*, end_bit=31*, target=Work_Zone[1], source=Work_Zone[2])
100: 0x022B [0x43] SEND_EVENT_UPDATE: Send pending tag to server (packet 0x005B)
101: 0x022D [0x43] SEND_EVENT_UPDATE: Check pending flag (skip if not pending)
102: 0x022F [0x01] GOTO 0x0232

SUBROUTINE_0232:
103: 0x0232 [0x01] GOTO 0x058C
104: 0x0235 [0x02] IF !(Work_Zone[0] == 3*) GOTO 0x0274
105: 0x023D [0x1A] CALL_SUBROUTINE(address=0x06F6)
106: 0x0240 [0x02] IF !(Work_Zone[2] == 4294967295*) GOTO 0x0271
107: 0x0248 [0x02] IF !(Work_Zone[2] <= 255*) GOTO 0x0255
108: 0x0250 [0x03] Work_Zone[2] = 255*
109: 0x0255 [0x06] Work_Zone[1] = 0
110: 0x0258 [0x40] SET_BIT_WORK_RANGE(start_bit=0*, end_bit=15*, target=Work_Zone[1], source=1268*)
111: 0x0261 [0x40] SET_BIT_WORK_RANGE(start_bit=16*, end_bit=31*, target=Work_Zone[1], source=Work_Zone[2])
112: 0x026A [0x43] SEND_EVENT_UPDATE: Send pending tag to server (packet 0x005B)
113: 0x026C [0x43] SEND_EVENT_UPDATE: Check pending flag (skip if not pending)
114: 0x026E [0x01] GOTO 0x0271

SUBROUTINE_0271:
115: 0x0271 [0x01] GOTO 0x058C
116: 0x0274 [0x02] IF !(Work_Zone[0] == 4*) GOTO 0x02C6
117: 0x027C [0x03] Work_Zone[2] = Work_Zone[6]
118: 0x0281 [0x24] CREATE_DIALOG(message_id=14653*, default_option=0*, option_flags=0*)
    → "Which type?iNow: [Normal/Special]) [Normal./Special./Quit.]"
119: 0x0288 [0x25] WAIT_DIALOG_SELECT()
120: 0x0289 [0x02] IF !(Work_Zone[0] == 0*) GOTO 0x02A6
121: 0x0291 [0x03] Work_Zone[1] = 3316*
122: 0x0296 [0x40] SET_BIT_WORK_RANGE(start_bit=16*, end_bit=31*, target=Work_Zone[1], source=0*)
123: 0x029F [0x43] SEND_EVENT_UPDATE: Send pending tag to server (packet 0x005B)
124: 0x02A1 [0x43] SEND_EVENT_UPDATE: Check pending flag (skip if not pending)
125: 0x02A3 [0x01] GOTO 0x02C3
126: 0x02A6 [0x02] IF !(Work_Zone[0] == 1*) GOTO 0x02C3
127: 0x02AE [0x03] Work_Zone[1] = 3316*
128: 0x02B3 [0x40] SET_BIT_WORK_RANGE(start_bit=16*, end_bit=31*, target=Work_Zone[1], source=1*)
129: 0x02BC [0x43] SEND_EVENT_UPDATE: Send pending tag to server (packet 0x005B)
130: 0x02BE [0x43] SEND_EVENT_UPDATE: Check pending flag (skip if not pending)
131: 0x02C0 [0x01] GOTO 0x02C3

SUBROUTINE_02C3:
132: 0x02C3 [0x01] GOTO 0x058C
133: 0x02C6 [0x02] IF !(Work_Zone[0] == 5*) GOTO 0x0318
134: 0x02CE [0x03] Work_Zone[2] = Work_Zone[7]
135: 0x02D3 [0x24] CREATE_DIALOG(message_id=14653*, default_option=0*, option_flags=0*)
    → "Which type?iNow: [Normal/Special]) [Normal./Special./Quit.]"
136: 0x02DA [0x25] WAIT_DIALOG_SELECT()
137: 0x02DB [0x02] IF !(Work_Zone[0] == 0*) GOTO 0x02F8
138: 0x02E3 [0x03] Work_Zone[1] = 3572*
139: 0x02E8 [0x40] SET_BIT_WORK_RANGE(start_bit=16*, end_bit=31*, target=Work_Zone[1], source=0*)
140: 0x02F1 [0x43] SEND_EVENT_UPDATE: Send pending tag to server (packet 0x005B)
141: 0x02F3 [0x43] SEND_EVENT_UPDATE: Check pending flag (skip if not pending)
142: 0x02F5 [0x01] GOTO 0x0315
143: 0x02F8 [0x02] IF !(Work_Zone[0] == 1*) GOTO 0x0315
144: 0x0300 [0x03] Work_Zone[1] = 3572*
145: 0x0305 [0x40] SET_BIT_WORK_RANGE(start_bit=16*, end_bit=31*, target=Work_Zone[1], source=1*)
146: 0x030E [0x43] SEND_EVENT_UPDATE: Send pending tag to server (packet 0x005B)
147: 0x0310 [0x43] SEND_EVENT_UPDATE: Check pending flag (skip if not pending)
148: 0x0312 [0x01] GOTO 0x0315

SUBROUTINE_0315:
149: 0x0315 [0x01] GOTO 0x058C
150: 0x0318 [0x02] IF !(Work_Zone[0] == 6*) GOTO 0x036A
151: 0x0320 [0x03] Work_Zone[2] = Work_Zone[8]
152: 0x0325 [0x24] CREATE_DIALOG(message_id=14653*, default_option=0*, option_flags=0*)
    → "Which type?iNow: [Normal/Special]) [Normal./Special./Quit.]"
153: 0x032C [0x25] WAIT_DIALOG_SELECT()
154: 0x032D [0x02] IF !(Work_Zone[0] == 0*) GOTO 0x034A
155: 0x0335 [0x03] Work_Zone[1] = 3828*
156: 0x033A [0x40] SET_BIT_WORK_RANGE(start_bit=16*, end_bit=31*, target=Work_Zone[1], source=0*)
157: 0x0343 [0x43] SEND_EVENT_UPDATE: Send pending tag to server (packet 0x005B)
158: 0x0345 [0x43] SEND_EVENT_UPDATE: Check pending flag (skip if not pending)
159: 0x0347 [0x01] GOTO 0x0367
160: 0x034A [0x02] IF !(Work_Zone[0] == 1*) GOTO 0x0367
161: 0x0352 [0x03] Work_Zone[1] = 3828*
162: 0x0357 [0x40] SET_BIT_WORK_RANGE(start_bit=16*, end_bit=31*, target=Work_Zone[1], source=1*)
163: 0x0360 [0x43] SEND_EVENT_UPDATE: Send pending tag to server (packet 0x005B)
164: 0x0362 [0x43] SEND_EVENT_UPDATE: Check pending flag (skip if not pending)
165: 0x0364 [0x01] GOTO 0x0367

SUBROUTINE_0367:
166: 0x0367 [0x01] GOTO 0x058C
167: 0x036A [0x02] IF !(Work_Zone[0] == 7*) GOTO 0x039F
168: 0x0372 [0x03] Work_Zone[2] = Work_Zone[9]
169: 0x0377 [0x24] CREATE_DIALOG(message_id=14651*, default_option=0*, option_flags=0*)
    → "Which?iNow:[None/Gallop/Canter/Burrow/Bore/Auto-Regen/Treasure Finder]) [None./Gallop./Canter./Burrow./Bore./Auto-Regen./Treasure Finder./Quit.]"
170: 0x037E [0x25] WAIT_DIALOG_SELECT()
171: 0x037F [0x02] IF !(Work_Zone[0] == 7*) GOTO 0x038A
172: 0x0387 [0x01] GOTO 0x039C
173: 0x038A [0x03] Work_Zone[1] = 1524*
174: 0x038F [0x40] SET_BIT_WORK_RANGE(start_bit=16*, end_bit=31*, target=Work_Zone[1], source=Work_Zone[0])
175: 0x0398 [0x43] SEND_EVENT_UPDATE: Send pending tag to server (packet 0x005B)
176: 0x039A [0x43] SEND_EVENT_UPDATE: Check pending flag (skip if not pending)

SUBROUTINE_039C:
177: 0x039C [0x01] GOTO 0x058C
178: 0x039F [0x02] IF !(Work_Zone[0] == 8*) GOTO 0x03D4
179: 0x03A7 [0x03] Work_Zone[2] = Work_Zone_1700[0]
180: 0x03AC [0x24] CREATE_DIALOG(message_id=14651*, default_option=0*, option_flags=0*)
    → "Which?iNow:[None/Gallop/Canter/Burrow/Bore/Auto-Regen/Treasure Finder]) [None./Gallop./Canter./Burrow./Bore./Auto-Regen./Treasure Finder./Quit.]"
181: 0x03B3 [0x25] WAIT_DIALOG_SELECT()
182: 0x03B4 [0x02] IF !(Work_Zone[0] == 7*) GOTO 0x03BF
183: 0x03BC [0x01] GOTO 0x03D1
184: 0x03BF [0x03] Work_Zone[1] = 1780*
185: 0x03C4 [0x40] SET_BIT_WORK_RANGE(start_bit=16*, end_bit=31*, target=Work_Zone[1], source=Work_Zone[0])
186: 0x03CD [0x43] SEND_EVENT_UPDATE: Send pending tag to server (packet 0x005B)
187: 0x03CF [0x43] SEND_EVENT_UPDATE: Check pending flag (skip if not pending)

SUBROUTINE_03D1:
188: 0x03D1 [0x01] GOTO 0x058C
189: 0x03D4 [0x02] IF !(Work_Zone[0] == 9*) GOTO 0x0409
190: 0x03DC [0x03] Work_Zone[2] = Work_Zone_1700[1]
191: 0x03E1 [0x24] CREATE_DIALOG(message_id=14652*, default_option=0*, option_flags=0*)
    → "Which?iNow: [regular/fierce/patient/nervous/mysterious]) [Regular./Fierce./Patient./Nervous./Mysterious./Quit.]"
192: 0x03E8 [0x25] WAIT_DIALOG_SELECT()
193: 0x03E9 [0x02] IF !(Work_Zone[0] == 5*) GOTO 0x03F4
194: 0x03F1 [0x01] GOTO 0x0406
195: 0x03F4 [0x03] Work_Zone[1] = 2036*
196: 0x03F9 [0x40] SET_BIT_WORK_RANGE(start_bit=16*, end_bit=31*, target=Work_Zone[1], source=Work_Zone[0])
197: 0x0402 [0x43] SEND_EVENT_UPDATE: Send pending tag to server (packet 0x005B)
198: 0x0404 [0x43] SEND_EVENT_UPDATE: Check pending flag (skip if not pending)

SUBROUTINE_0406:
199: 0x0406 [0x01] GOTO 0x058C
200: 0x0409 [0x02] IF !(Work_Zone[0] == 10*) GOTO 0x04DE
201: 0x0411 [0x03] Work_Zone[2] = Work_Zone_1700[2]
202: 0x0416 [0x24] CREATE_DIALOG(message_id=14656*, default_option=0*, option_flags=512*)
    → "Which? (Now: [Clear/Fire/Rain/Dust/Wind/Snow/Lightning/Light/Dark/--/Cloudy]) [Clear./Fire./Snow./Wind./Sand./Lightning./Rain./Aurora./Darkness./ /Cloudy./Quit.]"
203: 0x041D [0x25] WAIT_DIALOG_SELECT()
204: 0x041E [0x02] IF !(Work_Zone[0] == 0*) GOTO 0x042E
205: 0x0426 [0x03] Work_Zone[2] = 0*
206: 0x042B [0x01] GOTO 0x04DB
207: 0x042E [0x02] IF !(Work_Zone[0] == 1*) GOTO 0x043E
208: 0x0436 [0x03] Work_Zone[2] = 1*
209: 0x043B [0x01] GOTO 0x04DB
210: 0x043E [0x02] IF !(Work_Zone[0] == 2*) GOTO 0x044E
211: 0x0446 [0x03] Work_Zone[2] = 5*
212: 0x044B [0x01] GOTO 0x04DB
213: 0x044E [0x02] IF !(Work_Zone[0] == 3*) GOTO 0x045E
214: 0x0456 [0x03] Work_Zone[2] = 4*
215: 0x045B [0x01] GOTO 0x04DB
216: 0x045E [0x02] IF !(Work_Zone[0] == 4*) GOTO 0x046E
217: 0x0466 [0x03] Work_Zone[2] = 3*
218: 0x046B [0x01] GOTO 0x04DB
219: 0x046E [0x02] IF !(Work_Zone[0] == 5*) GOTO 0x047E
220: 0x0476 [0x03] Work_Zone[2] = 6*
221: 0x047B [0x01] GOTO 0x04DB
222: 0x047E [0x02] IF !(Work_Zone[0] == 6*) GOTO 0x048E
223: 0x0486 [0x03] Work_Zone[2] = 2*
224: 0x048B [0x01] GOTO 0x04DB
225: 0x048E [0x02] IF !(Work_Zone[0] == 7*) GOTO 0x049E
226: 0x0496 [0x03] Work_Zone[2] = 7*
227: 0x049B [0x01] GOTO 0x04DB
228: 0x049E [0x02] IF !(Work_Zone[0] == 8*) GOTO 0x04AE
229: 0x04A6 [0x03] Work_Zone[2] = 8*
230: 0x04AB [0x01] GOTO 0x04DB
231: 0x04AE [0x02] IF !(Work_Zone[0] == 10*) GOTO 0x04BE
232: 0x04B6 [0x03] Work_Zone[2] = 10*
233: 0x04BB [0x01] GOTO 0x04DB
234: 0x04BE [0x02] IF !(Work_Zone[0] == 11*) GOTO 0x04C9
235: 0x04C6 [0x01] GOTO 0x04DB
236: 0x04C9 [0x03] Work_Zone[1] = 3060*
237: 0x04CE [0x40] SET_BIT_WORK_RANGE(start_bit=16*, end_bit=31*, target=Work_Zone[1], source=Work_Zone[2])
238: 0x04D7 [0x43] SEND_EVENT_UPDATE: Send pending tag to server (packet 0x005B)
239: 0x04D9 [0x43] SEND_EVENT_UPDATE: Check pending flag (skip if not pending)

SUBROUTINE_04DB:
240: 0x04DB [0x01] GOTO 0x058C
241: 0x04DE [0x02] IF !(Work_Zone[0] == 11*) GOTO 0x0513
242: 0x04E6 [0x03] Work_Zone[2] = Work_Zone_1700[3]
243: 0x04EB [0x24] CREATE_DIALOG(message_id=14654*, default_option=0*, option_flags=0*)
    → "Which?iNow: [$9/$10]) [$9./$10./Quit.]"
244: 0x04F2 [0x25] WAIT_DIALOG_SELECT()
245: 0x04F3 [0x02] IF !(Work_Zone[0] == 2*) GOTO 0x04FE
246: 0x04FB [0x01] GOTO 0x0510
247: 0x04FE [0x03] Work_Zone[1] = 2292*
248: 0x0503 [0x40] SET_BIT_WORK_RANGE(start_bit=16*, end_bit=31*, target=Work_Zone[1], source=Work_Zone[0])
249: 0x050C [0x43] SEND_EVENT_UPDATE: Send pending tag to server (packet 0x005B)
250: 0x050E [0x43] SEND_EVENT_UPDATE: Check pending flag (skip if not pending)

SUBROUTINE_0510:
251: 0x0510 [0x01] GOTO 0x058C
252: 0x0513 [0x02] IF !(Work_Zone[0] == 12*) GOTO 0x0548
253: 0x051B [0x03] Work_Zone[2] = Work_Zone_1700[4]
254: 0x0520 [0x24] CREATE_DIALOG(message_id=14657*, default_option=0*, option_flags=0*)
    → "Which? (Now: [Yellow/Black/Blue/Red/Green]) [Yellow./Black./Blue./Red./Green./Quit.]"
255: 0x0527 [0x25] WAIT_DIALOG_SELECT()
256: 0x0528 [0x02] IF !(Work_Zone[0] == 5*) GOTO 0x0533
257: 0x0530 [0x01] GOTO 0x0545
258: 0x0533 [0x03] Work_Zone[1] = 2548*
259: 0x0538 [0x40] SET_BIT_WORK_RANGE(start_bit=16*, end_bit=31*, target=Work_Zone[1], source=Work_Zone[0])
260: 0x0541 [0x43] SEND_EVENT_UPDATE: Send pending tag to server (packet 0x005B)
261: 0x0543 [0x43] SEND_EVENT_UPDATE: Check pending flag (skip if not pending)

SUBROUTINE_0545:
262: 0x0545 [0x01] GOTO 0x058C
263: 0x0548 [0x02] IF !(Work_Zone[0] == 13*) GOTO 0x057D
264: 0x0550 [0x03] Work_Zone[2] = Work_Zone_1700[5]
265: 0x0555 [0x24] CREATE_DIALOG(message_id=14655*, default_option=0*, option_flags=0*)
    → "Which? (Now:[Hume$9/Hume$10/Elvaan$9/Elvaan$10/Tarutaru$9/Tarutaru$10/Mithra/Galka]) [Hume$9./Hume$10./Elvaan$9./Elvaan$10./Tarutaru$9./Tarutaru$10./Mithra./Galka./Quit.]"
266: 0x055C [0x25] WAIT_DIALOG_SELECT()
267: 0x055D [0x02] IF !(Work_Zone[0] == 8*) GOTO 0x0568
268: 0x0565 [0x01] GOTO 0x057A
269: 0x0568 [0x03] Work_Zone[1] = 2804*
270: 0x056D [0x40] SET_BIT_WORK_RANGE(start_bit=16*, end_bit=31*, target=Work_Zone[1], source=Work_Zone[0])
271: 0x0576 [0x43] SEND_EVENT_UPDATE: Send pending tag to server (packet 0x005B)
272: 0x0578 [0x43] SEND_EVENT_UPDATE: Check pending flag (skip if not pending)

SUBROUTINE_057A:
273: 0x057A [0x01] GOTO 0x058C
274: 0x057D [0x02] IF !(Work_Zone[0] == 14*) GOTO 0x058B
275: 0x0585 [0x1A] CALL_SUBROUTINE(address=0x0590)
276: 0x0588 [0x01] GOTO 0x058C
277: 0x058B [0x1B] RETURN

SUBROUTINE_058C:
278: 0x058C [0x01] GOTO 0x00E7
279: 0x058F [0x1B] RETURN

SUBROUTINE_0590:
280: 0x0590 [0x03] Work_Zone[1] = 243*
281: 0x0595 [0x43] SEND_EVENT_UPDATE: Send pending tag to server (packet 0x005B)
282: 0x0597 [0x43] SEND_EVENT_UPDATE: Check pending flag (skip if not pending)
283: 0x0599 [0x1B] RETURN

SUBROUTINE_059A:
284: 0x059A [0x02] IF !(1* == 1*) GOTO 0x0655
285: 0x05A2 [0x1A] CALL_SUBROUTINE(address=0x0062)
286: 0x05A5 [0x03] Work_Zone[2] = ExtData[1]->WorkLocal[1]
287: 0x05AA [0x03] Work_Zone[3] = ExtData[1]->WorkLocal[0]
288: 0x05AF [0x03] Work_Zone[4] = ExtData[1]->WorkLocal[3]
289: 0x05B4 [0x03] Work_Zone[5] = ExtData[1]->WorkLocal[4]
290: 0x05B9 [0x03] Work_Zone[6] = ExtData[1]->WorkLocal[5]
291: 0x05BE [0x03] Work_Zone[7] = ExtData[1]->WorkLocal[7]
292: 0x05C3 [0x9D] Work_Zone[8] = 0x0EC9[ExtData[1]->WorkLocal[8]] // Read WORD
293: 0x05CB [0x24] CREATE_DIALOG(message_id=14622*, default_option=0*, option_flags=0*)
    → "What do you want to change? [Branch [None/San/Bas/Win]./Chocobucks: $1./Cleared Stages: $2./Stage Challenge Flag: [off/on]./Practice Times: $4./Stock Item./Jockey Orders: [Sprint/Keep pace/Final spurt]./Equipment: $6./Chocobo Data./Nothing.]"
294: 0x05D2 [0x25] WAIT_DIALOG_SELECT()
295: 0x05D3 [0x02] IF !(Work_Zone[0] == 0*) GOTO 0x05E1
296: 0x05DB [0x1A] CALL_SUBROUTINE(address=0x0656)
297: 0x05DE [0x01] GOTO 0x0652
298: 0x05E1 [0x02] IF !(Work_Zone[0] == 1*) GOTO 0x05EF
299: 0x05E9 [0x1A] CALL_SUBROUTINE(address=0x06BC)
300: 0x05EC [0x01] GOTO 0x0652
301: 0x05EF [0x02] IF !(Work_Zone[0] == 2*) GOTO 0x05FD
302: 0x05F7 [0x1A] CALL_SUBROUTINE(address=0x0702)
303: 0x05FA [0x01] GOTO 0x0652
304: 0x05FD [0x02] IF !(Work_Zone[0] == 3*) GOTO 0x060B
305: 0x0605 [0x1A] CALL_SUBROUTINE(address=0x0738)
306: 0x0608 [0x01] GOTO 0x0652
307: 0x060B [0x02] IF !(Work_Zone[0] == 4*) GOTO 0x0619
308: 0x0613 [0x1A] CALL_SUBROUTINE(address=0x0769)
309: 0x0616 [0x01] GOTO 0x0652
310: 0x0619 [0x02] IF !(Work_Zone[0] == 5*) GOTO 0x0627
311: 0x0621 [0x1A] CALL_SUBROUTINE(address=0x0796)
312: 0x0624 [0x01] GOTO 0x0652
313: 0x0627 [0x02] IF !(Work_Zone[0] == 6*) GOTO 0x0635
314: 0x062F [0x1A] CALL_SUBROUTINE(address=0x0AC8)
315: 0x0632 [0x01] GOTO 0x0652
316: 0x0635 [0x02] IF !(Work_Zone[0] == 7*) GOTO 0x0643
317: 0x063D [0x1A] CALL_SUBROUTINE(address=0x0B37)
318: 0x0640 [0x01] GOTO 0x0652
319: 0x0643 [0x02] IF !(Work_Zone[0] == 8*) GOTO 0x0651
320: 0x064B [0x1A] CALL_SUBROUTINE(address=0x00E7)
321: 0x064E [0x01] GOTO 0x0652
322: 0x0651 [0x1B] RETURN

SUBROUTINE_0652:
323: 0x0652 [0x01] GOTO 0x059A
324: 0x0655 [0x1B] RETURN

SUBROUTINE_0656:
325: 0x0656 [0x03] Work_Zone[2] = ExtData[1]->WorkLocal[1]
326: 0x065B [0x02] IF !(Work_Zone[2] <= 0*) GOTO 0x0668
327: 0x0663 [0x08] Work_Zone[2] -= 1*
328: 0x0668 [0x24] CREATE_DIALOG(message_id=14623*, default_option=Work_Zone[2], option_flags=0*)
    → "Set to where? [San d'Oria./Bastok./Windurst./Quit.]"
329: 0x066F [0x25] WAIT_DIALOG_SELECT()
330: 0x0670 [0x02] IF !(Work_Zone[0] == 0*) GOTO 0x0689
331: 0x0678 [0x03] ExtData[1]->WorkLocal[1] = 1*
332: 0x067D [0x03] Work_Zone[1] = 257*
333: 0x0682 [0x43] SEND_EVENT_UPDATE: Send pending tag to server (packet 0x005B)
334: 0x0684 [0x43] SEND_EVENT_UPDATE: Check pending flag (skip if not pending)
335: 0x0686 [0x01] GOTO 0x06BB
336: 0x0689 [0x02] IF !(Work_Zone[0] == 1*) GOTO 0x06A2
337: 0x0691 [0x03] ExtData[1]->WorkLocal[1] = 2*
338: 0x0696 [0x03] Work_Zone[1] = 513*
339: 0x069B [0x43] SEND_EVENT_UPDATE: Send pending tag to server (packet 0x005B)
340: 0x069D [0x43] SEND_EVENT_UPDATE: Check pending flag (skip if not pending)
341: 0x069F [0x01] GOTO 0x06BB
342: 0x06A2 [0x02] IF !(Work_Zone[0] == 2*) GOTO 0x06BB
343: 0x06AA [0x03] ExtData[1]->WorkLocal[1] = 3*
344: 0x06AF [0x03] Work_Zone[1] = 769*
345: 0x06B4 [0x43] SEND_EVENT_UPDATE: Send pending tag to server (packet 0x005B)
346: 0x06B6 [0x43] SEND_EVENT_UPDATE: Check pending flag (skip if not pending)
347: 0x06B8 [0x01] GOTO 0x06BB

SUBROUTINE_06BB:
348: 0x06BB [0x1B] RETURN

SUBROUTINE_06BC:
349: 0x06BC [0x1A] CALL_SUBROUTINE(address=0x06F6)
350: 0x06BF [0x02] IF !(Work_Zone[2] == 4294967295*) GOTO 0x06F5
351: 0x06C7 [0x03] ExtData[1]->WorkLocal[0] = Work_Zone[2]
352: 0x06CC [0x02] IF !(ExtData[1]->WorkLocal[0] <= 1000*) GOTO 0x06D9
353: 0x06D4 [0x03] ExtData[1]->WorkLocal[0] = 1000*
354: 0x06D9 [0x06] Work_Zone[1] = 0
355: 0x06DC [0x40] SET_BIT_WORK_RANGE(start_bit=0*, end_bit=15*, target=Work_Zone[1], source=254*)
356: 0x06E5 [0x40] SET_BIT_WORK_RANGE(start_bit=16*, end_bit=31*, target=Work_Zone[1], source=ExtData[1]->WorkLocal[0])
357: 0x06EE [0x43] SEND_EVENT_UPDATE: Send pending tag to server (packet 0x005B)
358: 0x06F0 [0x43] SEND_EVENT_UPDATE: Check pending flag (skip if not pending)
359: 0x06F2 [0x01] GOTO 0x06F5

SUBROUTINE_06F5:
360: 0x06F5 [0x1B] RETURN

SUBROUTINE_06F6:
361: 0x06F6 [0x06] Work_Zone[2] = 0
362: 0x06F9 [0x71] USER_INPUT_HANDLER: Open numerical input dialog (work=1*)
363: 0x06FD [0x71] USER_INPUT_HANDLER: Process numerical input A (work=Work_Zone[2])
364: 0x0701 [0x1B] RETURN

SUBROUTINE_0702:
365: 0x0702 [0x24] CREATE_DIALOG(message_id=14625*, default_option=0*, option_flags=0*)
    → "How many stages cleared? [None./1."."./4./5./6./7./8.(act2start)/9./10./11./12./13./14./Quit.]"
366: 0x0709 [0x25] WAIT_DIALOG_SELECT()
367: 0x070A [0x02] IF !(Work_Zone[0] == 0*) GOTO 0x0715
368: 0x0712 [0x01] GOTO 0x0715

SUBROUTINE_0715:
369: 0x0715 [0x02] IF !(Work_Zone[0] > 14*) GOTO 0x0737
370: 0x071D [0x03] ExtData[1]->WorkLocal[3] = Work_Zone[0]
371: 0x0722 [0x03] Work_Zone[1] = 253*
372: 0x0727 [0x40] SET_BIT_WORK_RANGE(start_bit=16*, end_bit=31*, target=Work_Zone[1], source=ExtData[1]->WorkLocal[3])
373: 0x0730 [0x43] SEND_EVENT_UPDATE: Send pending tag to server (packet 0x005B)
374: 0x0732 [0x43] SEND_EVENT_UPDATE: Check pending flag (skip if not pending)
375: 0x0734 [0x01] GOTO 0x0737

SUBROUTINE_0737:
376: 0x0737 [0x1B] RETURN

SUBROUTINE_0738:
377: 0x0738 [0x24] CREATE_DIALOG(message_id=14627*, default_option=ExtData[1]->WorkLocal[4], option_flags=0*)
    → "Stage Challenge FlagF[ON/OFF] [ON (Can't challenge)./OFF (Can challenge)./Quit.]"
378: 0x073F [0x25] WAIT_DIALOG_SELECT()
379: 0x0740 [0x02] IF !(Work_Zone[0] == 0*) GOTO 0x0754
380: 0x0748 [0x03] Work_Zone[1] = 508*
381: 0x074D [0x43] SEND_EVENT_UPDATE: Send pending tag to server (packet 0x005B)
382: 0x074F [0x43] SEND_EVENT_UPDATE: Check pending flag (skip if not pending)
383: 0x0751 [0x01] GOTO 0x0768
384: 0x0754 [0x02] IF !(Work_Zone[0] == 1*) GOTO 0x0768
385: 0x075C [0x03] Work_Zone[1] = 764*
386: 0x0761 [0x43] SEND_EVENT_UPDATE: Send pending tag to server (packet 0x005B)
387: 0x0763 [0x43] SEND_EVENT_UPDATE: Check pending flag (skip if not pending)
388: 0x0765 [0x01] GOTO 0x0768

SUBROUTINE_0768:
389: 0x0768 [0x1B] RETURN

SUBROUTINE_0769:
390: 0x0769 [0x71] USER_INPUT_HANDLER: Open numerical input with params (work=[1*, 3*])
391: 0x076F [0x71] USER_INPUT_HANDLER: Process numerical input B (work=Work_Zone[0])
392: 0x0773 [0x02] IF !(Work_Zone[0] > 255*) GOTO 0x0795
393: 0x077B [0x03] ExtData[1]->WorkLocal[5] = Work_Zone[0]
394: 0x0780 [0x03] Work_Zone[1] = 251*
395: 0x0785 [0x40] SET_BIT_WORK_RANGE(start_bit=16*, end_bit=31*, target=Work_Zone[1], source=ExtData[1]->WorkLocal[5])
396: 0x078E [0x43] SEND_EVENT_UPDATE: Send pending tag to server (packet 0x005B)
397: 0x0790 [0x43] SEND_EVENT_UPDATE: Check pending flag (skip if not pending)
398: 0x0792 [0x01] GOTO 0x0795

SUBROUTINE_0795:
399: 0x0795 [0x1B] RETURN

SUBROUTINE_0796:
400: 0x0796 [0x02] IF !(1* == 1*) GOTO 0x0809
401: 0x079E [0x1A] CALL_SUBROUTINE(address=0x080A)
402: 0x07A1 [0x3C] SET_BIT_FLAG_CONDITIONAL(target_work_offset=Work_Zone_1700[31], bit_index_work_offset=0*, condition_work_offset=1*)
403: 0x07A8 [0x24] CREATE_DIALOG(message_id=14628*, default_option=0*, option_flags=Work_Zone_1700[31])
    → "Select a stock item. [$0./$1./$2./$3./$4./$5./$6./$7./$8./$9./$10./$11./$12./$13./$14./$15./$16./$17./$18./$19./$20./$21./$22./$23./$24./$25./$26./$27./$28./$29./$30./Quit.]"
404: 0x07AF [0x25] WAIT_DIALOG_SELECT()
405: 0x07B0 [0x02] IF !(Work_Zone[0] == 0*) GOTO 0x07BB
406: 0x07B8 [0x01] GOTO 0x07C7
407: 0x07BB [0x02] IF !(Work_Zone[0] == 31*) GOTO 0x07C7
408: 0x07C3 [0x1B] RETURN

SUBROUTINE_07C7:
409: 0x07C7 [0x03] Work_Zone_1700[29] = Work_Zone[0]
410: 0x07CC [0x3E] IF !(ExtData[1]->WorkLocal[6] bit Work_Zone_1700[29]) GOTO 0x07DB
411: 0x07D3 [0x03] Work_Zone[2] = 1*
412: 0x07D8 [0x01] GOTO 0x07DE
413: 0x07DB [0x06] Work_Zone[2] = 0

SUBROUTINE_07DE:
414: 0x07DE [0x24] CREATE_DIALOG(message_id=14629*, default_option=0*, option_flags=0*)
    → "Currently in possession: [No/Yes]. [[Get?/Toss?]/Quit.]"
415: 0x07E5 [0x25] WAIT_DIALOG_SELECT()
416: 0x07E6 [0x02] IF !(Work_Zone[0] == 0*) GOTO 0x0806
417: 0x07EE [0x03] Work_Zone[1] = 250*
418: 0x07F3 [0x40] SET_BIT_WORK_RANGE(start_bit=16*, end_bit=31*, target=Work_Zone[1], source=Work_Zone_1700[29])
419: 0x07FC [0x43] SEND_EVENT_UPDATE: Send pending tag to server (packet 0x005B)
420: 0x07FE [0x43] SEND_EVENT_UPDATE: Check pending flag (skip if not pending)
421: 0x0800 [0x1A] CALL_SUBROUTINE(address=0x0062)
422: 0x0803 [0x01] GOTO 0x0806

SUBROUTINE_0806:
423: 0x0806 [0x01] GOTO 0x0796
424: 0x0809 [0x1B] RETURN

SUBROUTINE_080A:
425: 0x080A [0x9D] Work_Zone[2] = 0x0EC9[0*] // Read WORD
426: 0x0812 [0x9D] Work_Zone[3] = 0x0EC9[1*] // Read WORD
427: 0x081A [0x9D] Work_Zone[4] = 0x0EC9[2*] // Read WORD
428: 0x0822 [0x9D] Work_Zone[5] = 0x0EC9[3*] // Read WORD
429: 0x082A [0x9D] Work_Zone[6] = 0x0EC9[4*] // Read WORD
430: 0x0832 [0x9D] Work_Zone[7] = 0x0EC9[5*] // Read WORD
431: 0x083A [0x9D] Work_Zone[8] = 0x0EC9[6*] // Read WORD
432: 0x0842 [0x9D] Work_Zone[9] = 0x0EC9[7*] // Read WORD
433: 0x084A [0x9D] Work_Zone_1700[0] = 0x0EC9[8*] // Read WORD
434: 0x0852 [0x9D] Work_Zone_1700[1] = 0x0EC9[9*] // Read WORD
435: 0x085A [0x9D] Work_Zone_1700[2] = 0x0EC9[10*] // Read WORD
436: 0x0862 [0x9D] Work_Zone_1700[3] = 0x0EC9[11*] // Read WORD
437: 0x086A [0x9D] Work_Zone_1700[4] = 0x0EC9[12*] // Read WORD
438: 0x0872 [0x9D] Work_Zone_1700[5] = 0x0EC9[13*] // Read WORD
439: 0x087A [0x9D] Work_Zone_1700[6] = 0x0EC9[14*] // Read WORD
440: 0x0882 [0x9D] Work_Zone_1700[7] = 0x0EC9[15*] // Read WORD
441: 0x088A [0x9D] Work_Zone_1700[8] = 0x0EC9[16*] // Read WORD
442: 0x0892 [0x9D] Work_Zone_1700[9] = 0x0EC9[17*] // Read WORD
443: 0x089A [0x9D] Work_Zone_1700[10] = 0x0EC9[18*] // Read WORD
444: 0x08A2 [0x9D] Work_Zone_1700[11] = 0x0EC9[19*] // Read WORD
445: 0x08AA [0x9D] Work_Zone_1700[12] = 0x0EC9[20*] // Read WORD
446: 0x08B2 [0x9D] Work_Zone_1700[13] = 0x0EC9[21*] // Read WORD
447: 0x08BA [0x9D] Work_Zone_1700[14] = 0x0EC9[22*] // Read WORD
448: 0x08C2 [0x9D] Work_Zone_1700[15] = 0x0EC9[23*] // Read WORD
449: 0x08CA [0x9D] Work_Zone_1700[16] = 0x0EC9[24*] // Read WORD
450: 0x08D2 [0x9D] Work_Zone_1700[17] = 0x0EC9[25*] // Read WORD
451: 0x08DA [0x9D] Work_Zone_1700[18] = 0x0EC9[26*] // Read WORD
452: 0x08E2 [0x9D] Work_Zone_1700[19] = 0x0EC9[27*] // Read WORD
453: 0x08EA [0x9D] Work_Zone_1700[20] = 0x0EC9[28*] // Read WORD
454: 0x08F2 [0x9D] Work_Zone_1700[21] = 0x0EC9[29*] // Read WORD
455: 0x08FA [0x9D] Work_Zone_1700[22] = 0x0EC9[30*] // Read WORD
456: 0x0902 [0x06] Work_Zone_1700[31] = 0
457: 0x0905 [0x02] IF !(Work_Zone[3] == 0*) GOTO 0x0914
458: 0x090D [0x3C] SET_BIT_FLAG_CONDITIONAL(target_work_offset=Work_Zone_1700[31], bit_index_work_offset=1*, condition_work_offset=1*)
459: 0x0914 [0x02] IF !(Work_Zone[4] == 0*) GOTO 0x0923
460: 0x091C [0x3C] SET_BIT_FLAG_CONDITIONAL(target_work_offset=Work_Zone_1700[31], bit_index_work_offset=2*, condition_work_offset=1*)
461: 0x0923 [0x02] IF !(Work_Zone[5] == 0*) GOTO 0x0932
462: 0x092B [0x3C] SET_BIT_FLAG_CONDITIONAL(target_work_offset=Work_Zone_1700[31], bit_index_work_offset=3*, condition_work_offset=1*)
463: 0x0932 [0x02] IF !(Work_Zone[6] == 0*) GOTO 0x0941
464: 0x093A [0x3C] SET_BIT_FLAG_CONDITIONAL(target_work_offset=Work_Zone_1700[31], bit_index_work_offset=4*, condition_work_offset=1*)
465: 0x0941 [0x02] IF !(Work_Zone[7] == 0*) GOTO 0x0950
466: 0x0949 [0x3C] SET_BIT_FLAG_CONDITIONAL(target_work_offset=Work_Zone_1700[31], bit_index_work_offset=5*, condition_work_offset=1*)
467: 0x0950 [0x02] IF !(Work_Zone[8] == 0*) GOTO 0x095F
468: 0x0958 [0x3C] SET_BIT_FLAG_CONDITIONAL(target_work_offset=Work_Zone_1700[31], bit_index_work_offset=6*, condition_work_offset=1*)
469: 0x095F [0x02] IF !(Work_Zone[9] == 0*) GOTO 0x096E
470: 0x0967 [0x3C] SET_BIT_FLAG_CONDITIONAL(target_work_offset=Work_Zone_1700[31], bit_index_work_offset=7*, condition_work_offset=1*)
471: 0x096E [0x02] IF !(Work_Zone_1700[0] == 0*) GOTO 0x097D
472: 0x0976 [0x3C] SET_BIT_FLAG_CONDITIONAL(target_work_offset=Work_Zone_1700[31], bit_index_work_offset=8*, condition_work_offset=1*)
473: 0x097D [0x02] IF !(Work_Zone_1700[1] == 0*) GOTO 0x098C
474: 0x0985 [0x3C] SET_BIT_FLAG_CONDITIONAL(target_work_offset=Work_Zone_1700[31], bit_index_work_offset=9*, condition_work_offset=1*)
475: 0x098C [0x02] IF !(Work_Zone_1700[2] == 0*) GOTO 0x099B
476: 0x0994 [0x3C] SET_BIT_FLAG_CONDITIONAL(target_work_offset=Work_Zone_1700[31], bit_index_work_offset=10*, condition_work_offset=1*)
477: 0x099B [0x02] IF !(Work_Zone_1700[3] == 0*) GOTO 0x09AA
478: 0x09A3 [0x3C] SET_BIT_FLAG_CONDITIONAL(target_work_offset=Work_Zone_1700[31], bit_index_work_offset=11*, condition_work_offset=1*)
479: 0x09AA [0x02] IF !(Work_Zone_1700[4] == 0*) GOTO 0x09B9
480: 0x09B2 [0x3C] SET_BIT_FLAG_CONDITIONAL(target_work_offset=Work_Zone_1700[31], bit_index_work_offset=12*, condition_work_offset=1*)
481: 0x09B9 [0x02] IF !(Work_Zone_1700[5] == 0*) GOTO 0x09C8
482: 0x09C1 [0x3C] SET_BIT_FLAG_CONDITIONAL(target_work_offset=Work_Zone_1700[31], bit_index_work_offset=13*, condition_work_offset=1*)
483: 0x09C8 [0x02] IF !(Work_Zone_1700[6] == 0*) GOTO 0x09D7
484: 0x09D0 [0x3C] SET_BIT_FLAG_CONDITIONAL(target_work_offset=Work_Zone_1700[31], bit_index_work_offset=14*, condition_work_offset=1*)
485: 0x09D7 [0x02] IF !(Work_Zone_1700[7] == 0*) GOTO 0x09E6
486: 0x09DF [0x3C] SET_BIT_FLAG_CONDITIONAL(target_work_offset=Work_Zone_1700[31], bit_index_work_offset=15*, condition_work_offset=1*)
487: 0x09E6 [0x02] IF !(Work_Zone_1700[8] == 0*) GOTO 0x09F5
488: 0x09EE [0x3C] SET_BIT_FLAG_CONDITIONAL(target_work_offset=Work_Zone_1700[31], bit_index_work_offset=16*, condition_work_offset=1*)
489: 0x09F5 [0x02] IF !(Work_Zone_1700[9] == 0*) GOTO 0x0A04
490: 0x09FD [0x3C] SET_BIT_FLAG_CONDITIONAL(target_work_offset=Work_Zone_1700[31], bit_index_work_offset=17*, condition_work_offset=1*)
491: 0x0A04 [0x02] IF !(Work_Zone_1700[10] == 0*) GOTO 0x0A13
492: 0x0A0C [0x3C] SET_BIT_FLAG_CONDITIONAL(target_work_offset=Work_Zone_1700[31], bit_index_work_offset=18*, condition_work_offset=1*)
493: 0x0A13 [0x02] IF !(Work_Zone_1700[11] == 0*) GOTO 0x0A22
494: 0x0A1B [0x3C] SET_BIT_FLAG_CONDITIONAL(target_work_offset=Work_Zone_1700[31], bit_index_work_offset=19*, condition_work_offset=1*)
495: 0x0A22 [0x02] IF !(Work_Zone_1700[12] == 0*) GOTO 0x0A31
496: 0x0A2A [0x3C] SET_BIT_FLAG_CONDITIONAL(target_work_offset=Work_Zone_1700[31], bit_index_work_offset=20*, condition_work_offset=1*)
497: 0x0A31 [0x02] IF !(Work_Zone_1700[13] == 0*) GOTO 0x0A40
498: 0x0A39 [0x3C] SET_BIT_FLAG_CONDITIONAL(target_work_offset=Work_Zone_1700[31], bit_index_work_offset=21*, condition_work_offset=1*)
499: 0x0A40 [0x02] IF !(Work_Zone_1700[14] == 0*) GOTO 0x0A4F
500: 0x0A48 [0x3C] SET_BIT_FLAG_CONDITIONAL(target_work_offset=Work_Zone_1700[31], bit_index_work_offset=22*, condition_work_offset=1*)
501: 0x0A4F [0x02] IF !(Work_Zone_1700[15] == 0*) GOTO 0x0A5E
502: 0x0A57 [0x3C] SET_BIT_FLAG_CONDITIONAL(target_work_offset=Work_Zone_1700[31], bit_index_work_offset=23*, condition_work_offset=1*)
503: 0x0A5E [0x02] IF !(Work_Zone_1700[16] == 0*) GOTO 0x0A6D
504: 0x0A66 [0x3C] SET_BIT_FLAG_CONDITIONAL(target_work_offset=Work_Zone_1700[31], bit_index_work_offset=24*, condition_work_offset=1*)
505: 0x0A6D [0x02] IF !(Work_Zone_1700[17] == 0*) GOTO 0x0A7C
506: 0x0A75 [0x3C] SET_BIT_FLAG_CONDITIONAL(target_work_offset=Work_Zone_1700[31], bit_index_work_offset=25*, condition_work_offset=1*)
507: 0x0A7C [0x02] IF !(Work_Zone_1700[18] == 0*) GOTO 0x0A8B
508: 0x0A84 [0x3C] SET_BIT_FLAG_CONDITIONAL(target_work_offset=Work_Zone_1700[31], bit_index_work_offset=26*, condition_work_offset=1*)
509: 0x0A8B [0x02] IF !(Work_Zone_1700[19] == 0*) GOTO 0x0A9A
510: 0x0A93 [0x3C] SET_BIT_FLAG_CONDITIONAL(target_work_offset=Work_Zone_1700[31], bit_index_work_offset=27*, condition_work_offset=1*)
511: 0x0A9A [0x02] IF !(Work_Zone_1700[20] == 0*) GOTO 0x0AA9
512: 0x0AA2 [0x3C] SET_BIT_FLAG_CONDITIONAL(target_work_offset=Work_Zone_1700[31], bit_index_work_offset=28*, condition_work_offset=1*)
513: 0x0AA9 [0x02] IF !(Work_Zone_1700[21] == 0*) GOTO 0x0AB8
514: 0x0AB1 [0x3C] SET_BIT_FLAG_CONDITIONAL(target_work_offset=Work_Zone_1700[31], bit_index_work_offset=29*, condition_work_offset=1*)
515: 0x0AB8 [0x02] IF !(Work_Zone_1700[22] == 0*) GOTO 0x0AC7
516: 0x0AC0 [0x3C] SET_BIT_FLAG_CONDITIONAL(target_work_offset=Work_Zone_1700[31], bit_index_work_offset=30*, condition_work_offset=1*)
517: 0x0AC7 [0x1B] RETURN

SUBROUTINE_0AC8:
518: 0x0AC8 [0x24] CREATE_DIALOG(message_id=14630*, default_option=0*, option_flags=0*)
    → "Select Order: [Sprint./Keep pace./Final spurt./Quit.]"
519: 0x0ACF [0x25] WAIT_DIALOG_SELECT()
520: 0x0AD0 [0x02] IF !(Work_Zone[0] == 0*) GOTO 0x0AF2
521: 0x0AD8 [0x03] ExtData[1]->WorkLocal[7] = 0*
522: 0x0ADD [0x03] Work_Zone[1] = 248*
523: 0x0AE2 [0x40] SET_BIT_WORK_RANGE(start_bit=16*, end_bit=31*, target=Work_Zone[1], source=ExtData[1]->WorkLocal[7])
524: 0x0AEB [0x43] SEND_EVENT_UPDATE: Send pending tag to server (packet 0x005B)
525: 0x0AED [0x43] SEND_EVENT_UPDATE: Check pending flag (skip if not pending)
526: 0x0AEF [0x01] GOTO 0x0B36
527: 0x0AF2 [0x02] IF !(Work_Zone[0] == 1*) GOTO 0x0B14
528: 0x0AFA [0x03] ExtData[1]->WorkLocal[7] = 1*
529: 0x0AFF [0x03] Work_Zone[1] = 248*
530: 0x0B04 [0x40] SET_BIT_WORK_RANGE(start_bit=16*, end_bit=31*, target=Work_Zone[1], source=ExtData[1]->WorkLocal[7])
531: 0x0B0D [0x43] SEND_EVENT_UPDATE: Send pending tag to server (packet 0x005B)
532: 0x0B0F [0x43] SEND_EVENT_UPDATE: Check pending flag (skip if not pending)
533: 0x0B11 [0x01] GOTO 0x0B36
534: 0x0B14 [0x02] IF !(Work_Zone[0] == 2*) GOTO 0x0B36
535: 0x0B1C [0x03] ExtData[1]->WorkLocal[7] = 2*
536: 0x0B21 [0x03] Work_Zone[1] = 248*
537: 0x0B26 [0x40] SET_BIT_WORK_RANGE(start_bit=16*, end_bit=31*, target=Work_Zone[1], source=ExtData[1]->WorkLocal[7])
538: 0x0B2F [0x43] SEND_EVENT_UPDATE: Send pending tag to server (packet 0x005B)
539: 0x0B31 [0x43] SEND_EVENT_UPDATE: Check pending flag (skip if not pending)
540: 0x0B33 [0x01] GOTO 0x0B36

SUBROUTINE_0B36:
541: 0x0B36 [0x1B] RETURN

SUBROUTINE_0B37:
542: 0x0B37 [0x1A] CALL_SUBROUTINE(address=0x080A)

SUBROUTINE_0B3A:
543: 0x0B3A [0x02] IF !(1* == 1*) GOTO 0x0B93
544: 0x0B42 [0x9D] Work_Zone_1700[23] = 0x0EC9[ExtData[1]->WorkLocal[8]] // Read WORD
545: 0x0B4A [0x03] Work_Zone_1700[24] = ExtData[1]->WorkLocal[6]
546: 0x0B4F [0x0F] Work_Zone_1700[24] ^= 4294967295*
547: 0x0B54 [0x0D] Work_Zone_1700[24] &= 2147483646*
548: 0x0B59 [0x24] CREATE_DIALOG(message_id=14631*, default_option=0*, option_flags=Work_Zone_1700[24])
    → "Now: $31. [None./$1./$2./$3./$4./$5./$6./$7./$8./$9./$10./$11./$12./$13./$14./$15./$16./$17./$18./$19./$20./$21./$22./$23./$24./$25./$26./$27./$28./$29./$30./Quit.]"
549: 0x0B60 [0x25] WAIT_DIALOG_SELECT()
550: 0x0B61 [0x02] IF !(Work_Zone[0] == 0*) GOTO 0x0B6C
551: 0x0B69 [0x01] GOTO 0x0B78
552: 0x0B6C [0x02] IF !(Work_Zone[0] == 31*) GOTO 0x0B78
553: 0x0B74 [0x1B] RETURN

SUBROUTINE_0B78:
554: 0x0B78 [0x03] ExtData[1]->WorkLocal[8] = Work_Zone[0]
555: 0x0B7D [0x03] Work_Zone[1] = 249*
556: 0x0B82 [0x40] SET_BIT_WORK_RANGE(start_bit=16*, end_bit=31*, target=Work_Zone[1], source=ExtData[1]->WorkLocal[8])
557: 0x0B8B [0x43] SEND_EVENT_UPDATE: Send pending tag to server (packet 0x005B)
558: 0x0B8D [0x43] SEND_EVENT_UPDATE: Check pending flag (skip if not pending)
559: 0x0B8F [0x1B] RETURN

SUBROUTINE_0B94:
560: 0x0B94 [0x03] Work_Zone[1] = 247*
561: 0x0B99 [0x43] SEND_EVENT_UPDATE: Send pending tag to server (packet 0x005B)
562: 0x0B9B [0x43] SEND_EVENT_UPDATE: Check pending flag (skip if not pending)
563: 0x0B9D [0x1B] RETURN

SUBROUTINE_0B9E:
564: 0x0B9E [0x03] Work_Zone[1] = 255*
565: 0x0BA3 [0x43] SEND_EVENT_UPDATE: Send pending tag to server (packet 0x005B)
566: 0x0BA5 [0x43] SEND_EVENT_UPDATE: Check pending flag (skip if not pending)
567: 0x0BA7 [0x1B] RETURN

SUBROUTINE_0BA8:
568: 0x0BA8 [0x02] IF !(1* == 1*) GOTO 0x0CC8
569: 0x0BB0 [0x03] Work_Zone[1] = 237*
570: 0x0BB5 [0x43] SEND_EVENT_UPDATE: Send pending tag to server (packet 0x005B)
571: 0x0BB7 [0x43] SEND_EVENT_UPDATE: Check pending flag (skip if not pending)
572: 0x0BB9 [0x03] ExtData[1]->WorkLocal[16] = Work_Zone[2]
573: 0x0BBE [0x03] ExtData[1]->WorkLocal[17] = Work_Zone[3]
574: 0x0BC3 [0x03] ExtData[1]->WorkLocal[18] = Work_Zone[4]
575: 0x0BC8 [0x24] CREATE_DIALOG(message_id=14621*, default_option=0*, option_flags=0*)
    → "Change which values? [Indv. Win Points: $0./No. of entries: $1./No. of victories: $2./Reset re-race timer./Reset userwork./Quit.]"
576: 0x0BCF [0x25] WAIT_DIALOG_SELECT()
577: 0x0BD0 [0x02] IF !(Work_Zone[0] == 0*) GOTO 0x0C14
578: 0x0BD8 [0x1A] CALL_SUBROUTINE(address=0x06F6)
579: 0x0BDB [0x02] IF !(Work_Zone[2] == 4294967295*) GOTO 0x0C11
580: 0x0BE3 [0x03] ExtData[1]->WorkLocal[16] = Work_Zone[2]
581: 0x0BE8 [0x02] IF !(ExtData[1]->WorkLocal[16] <= 65535*) GOTO 0x0BF5
582: 0x0BF0 [0x03] ExtData[1]->WorkLocal[16] = 65535*
583: 0x0BF5 [0x06] Work_Zone[1] = 0
584: 0x0BF8 [0x40] SET_BIT_WORK_RANGE(start_bit=0*, end_bit=15*, target=Work_Zone[1], source=238*)
585: 0x0C01 [0x40] SET_BIT_WORK_RANGE(start_bit=16*, end_bit=31*, target=Work_Zone[1], source=ExtData[1]->WorkLocal[16])
586: 0x0C0A [0x43] SEND_EVENT_UPDATE: Send pending tag to server (packet 0x005B)
587: 0x0C0C [0x43] SEND_EVENT_UPDATE: Check pending flag (skip if not pending)
588: 0x0C0E [0x01] GOTO 0x0C11

SUBROUTINE_0C11:
589: 0x0C11 [0x01] GOTO 0x0CC5
590: 0x0C14 [0x02] IF !(Work_Zone[0] == 1*) GOTO 0x0C58
591: 0x0C1C [0x1A] CALL_SUBROUTINE(address=0x06F6)
592: 0x0C1F [0x02] IF !(Work_Zone[2] == 4294967295*) GOTO 0x0C55
593: 0x0C27 [0x03] ExtData[1]->WorkLocal[17] = Work_Zone[2]
594: 0x0C2C [0x02] IF !(ExtData[1]->WorkLocal[17] <= 65535*) GOTO 0x0C39
595: 0x0C34 [0x03] ExtData[1]->WorkLocal[17] = 65535*
596: 0x0C39 [0x06] Work_Zone[1] = 0
597: 0x0C3C [0x40] SET_BIT_WORK_RANGE(start_bit=0*, end_bit=15*, target=Work_Zone[1], source=239*)
598: 0x0C45 [0x40] SET_BIT_WORK_RANGE(start_bit=16*, end_bit=31*, target=Work_Zone[1], source=ExtData[1]->WorkLocal[16])
599: 0x0C4E [0x43] SEND_EVENT_UPDATE: Send pending tag to server (packet 0x005B)
600: 0x0C50 [0x43] SEND_EVENT_UPDATE: Check pending flag (skip if not pending)
601: 0x0C52 [0x01] GOTO 0x0C55

SUBROUTINE_0C55:
602: 0x0C55 [0x01] GOTO 0x0CC5
603: 0x0C58 [0x02] IF !(Work_Zone[0] == 2*) GOTO 0x0C9C
604: 0x0C60 [0x1A] CALL_SUBROUTINE(address=0x06F6)
605: 0x0C63 [0x02] IF !(Work_Zone[2] == 4294967295*) GOTO 0x0C99
606: 0x0C6B [0x03] ExtData[1]->WorkLocal[18] = Work_Zone[2]
607: 0x0C70 [0x02] IF !(ExtData[1]->WorkLocal[18] <= 65535*) GOTO 0x0C7D
608: 0x0C78 [0x03] ExtData[1]->WorkLocal[18] = 65535*
609: 0x0C7D [0x06] Work_Zone[1] = 0
610: 0x0C80 [0x40] SET_BIT_WORK_RANGE(start_bit=0*, end_bit=15*, target=Work_Zone[1], source=240*)
611: 0x0C89 [0x40] SET_BIT_WORK_RANGE(start_bit=16*, end_bit=31*, target=Work_Zone[1], source=ExtData[1]->WorkLocal[18])
612: 0x0C92 [0x43] SEND_EVENT_UPDATE: Send pending tag to server (packet 0x005B)
613: 0x0C94 [0x43] SEND_EVENT_UPDATE: Check pending flag (skip if not pending)
614: 0x0C96 [0x01] GOTO 0x0C99

SUBROUTINE_0C99:
615: 0x0C99 [0x01] GOTO 0x0CC5
616: 0x0C9C [0x02] IF !(Work_Zone[0] == 3*) GOTO 0x0CB0
617: 0x0CA4 [0x03] Work_Zone[1] = 241*
618: 0x0CA9 [0x43] SEND_EVENT_UPDATE: Send pending tag to server (packet 0x005B)
619: 0x0CAB [0x43] SEND_EVENT_UPDATE: Check pending flag (skip if not pending)
620: 0x0CAD [0x01] GOTO 0x0CC5
621: 0x0CB0 [0x02] IF !(Work_Zone[0] == 4*) GOTO 0x0CC4
622: 0x0CB8 [0x03] Work_Zone[1] = 242*
623: 0x0CBD [0x43] SEND_EVENT_UPDATE: Send pending tag to server (packet 0x005B)
624: 0x0CBF [0x43] SEND_EVENT_UPDATE: Check pending flag (skip if not pending)
625: 0x0CC1 [0x01] GOTO 0x0CC5
626: 0x0CC4 [0x1B] RETURN

SUBROUTINE_0CC5:
627: 0x0CC5 [0x01] GOTO 0x0BA8
628: 0x0CC8 [0x1B] RETURN
```

#### Data or dead code:

```
# Data Section: 0x0EC9 (258 bytes)
     0x0EC9: 02 80 A2 80 A3 80 A4 80 A5 80 A6 80 A7 80 A8 80
     0x0ED9: A9 80 AA 80 02 80 02 80 02 80 02 80 02 80 02 80
     0x0EE9: 02 80 02 80 02 80 02 80 02 80 02 80 02 80 02 80
     0x0EF9: 02 80 02 80 02 80 AB 80 AC 80 AD 80 AE 80 1B 80
     0x0F09: 05 80 24 80 10 80 03 80 10 80 10 80 04 80 10 80
     0x0F19: 03 80 10 80 10 80 10 80 10 80 10 80 10 80 10 80
     0x0F29: 02 80 02 80 02 80 02 80 03 80 04 80 02 80 00 80
     0x0F39: 02 80 02 80 02 80 02 80 04 80 00 80 02 80 03 80
     0x0F49: 02 80 02 80 02 80 02 80 00 80 03 80 02 80 04 80
     0x0F59: 05 80 05 80 05 80 05 80 05 80 05 80 02 80 02 80
     0x0F69: 05 80 05 80 05 80 05 80 05 80 05 80 02 80 02 80
     0x0F79: 05 80 05 80 05 80 05 80 05 80 05 80 02 80 02 80
     0x0F89: 02 80 02 80 02 80 02 80 02 80 02 80 02 80 02 80
     0x0F99: 02 80 02 80 02 80 22 80 05 80 02 80 02 80 02 80
     0x0FA9: 02 80 02 80 02 80 02 80 02 80 02 80 02 80 02 80
     0x0FB9: 02 80 02 80 02 80 02 80 02 80 02 80 02 80 02 80
     0x0FC9: 02 80
# Dead code (unreachable instructions):
     0x07C4 [0x01] GOTO 0x07C7
# Dead code (unreachable instructions):
     0x0B75 [0x01] GOTO 0x0B78
# Dead code (unreachable instructions):
     0x0B90 [0x01] GOTO 0x0B3A
# Dead code (unreachable instructions):
     0x0CC9 [0x02] IF !(0x0280 == 0x0280) GOTO 0x8004
     0x0CD1 [0x22] ENTITY_HIDE_FLAG(enabled=0x80)
     0x0CD3 [0x2B] Unknown NPC (ID: 360712064/0x15800780) [0x0D80]:
     0x0CDA [0x80] LOAD_WAIT(entity=Unknown NPC (ID: 2153414680/0x805A8018))
     0x0CDF [0x5B] LOAD_EXT_SCHEDULER: Load scheduler 0x5E805E80 with entities [Unknown NPC (ID: 1585470848/0x5E805D80), Unknown NPC (ID: 1585471104/0x5E805E80)], work=0x5C80
     0x0CEE [0x80] LOAD_WAIT(entity=Unknown NPC (ID: 2153676894/0x805E805E))
     0x0CF3 [0x5E] EventEntity goes idle (kills current action) (animation: "^^")
     0x0CF8 [0x80] LOAD_WAIT(entity=Unknown NPC (ID: 2153676894/0x805E805E))
     0x0CFD [0x5E] EventEntity goes idle (kills current action) (animation: "^^")
     0x0D02 [0x80] LOAD_WAIT(entity=Unknown NPC (ID: 2153676894/0x805E805E))
     0x0D07 [0x5E] EventEntity goes idle (kills current action) (animation: 0x02800280)
     0x0D0C [0x80] LOAD_WAIT(entity=Unknown NPC (ID: 2147516418/0x80008002))
     0x0D11 [0x00] END_REQSTACK()
     0x0D12 [0x80] LOAD_WAIT(entity=Unknown NPC (ID: 2147516416/0x80008000))
     0x0D17 [0x00] END_REQSTACK()
     0x0D18 [0x80] LOAD_WAIT(entity=Unknown NPC (ID: 2147778563/0x80048003))
     0x0D1D [0x04] DEPRECATED_NOP(unused=0x0580)
     0x0D20 [0x80] LOAD_WAIT(entity=Unknown NPC (ID: 2149744645/0x80228005))
     0x0D25 [0x5E] EventEntity goes idle (kills current action) (animation: "^^")
     0x0D2A [0x80] LOAD_WAIT(entity=Unknown NPC (ID: 2153676894/0x805E805E))
     0x0D2F [0x5E] EventEntity goes idle (kills current action) (animation: "^^")
     0x0D34 [0x80] LOAD_WAIT(entity=Unknown NPC (ID: 2153676894/0x805E805E))
     0x0D39 [0x5E] EventEntity goes idle (kills current action) (animation: "^^")
     0x0D3E [0x80] LOAD_WAIT(entity=Unknown NPC (ID: 2153676894/0x805E805E))
     0x0D43 [0x5E] EventEntity goes idle (kills current action) (animation: "^^")
     0x0D48 [0x80] LOAD_WAIT(entity=Unknown NPC (ID: 2151514140/0x803D801C))
     0x0D4D [0x5F] MULTI_HANDLER_COMPLEX(mode=0x80 - Unknown)
     0x0D4F [0x60] ADJUST_RENDER_FLAGS1_MULTI: Deprecated mode 0x80 (no operation)
     0x0D51 [0x61] EventEntity->Render.Flags2 &= ~0x00000001
     0x0D53 [0x62] LOAD_EVENT_SCHEDULER: Load scheduler 0x69806880 with entities [Unknown NPC (ID: 1702913152/0x65806480), Unknown NPC (ID: 1736468096/0x67806680)], work=[0x6380, 0x6A80]
     0x0D64 [0x80] LOAD_WAIT(entity=Unknown NPC (ID: 2147647490/0x80028002))
     0x0D69 [0x02] IF !(0x0280 == 0x0280) GOTO 0x8002
     0x0D71 [0x02] IF !(0x0280 == 0x0280) GOTO 0x8002
     0x0D79 [0x02] IF !(0x0280 == 0x0280) GOTO 0x8002
     0x0D81 [0x02] IF !(0x0280 == 0x0280) GOTO 0x8002
     0x0D89 [0x00] END_REQSTACK()
     0x0D8A [0x80] LOAD_WAIT(entity=Unknown NPC (ID: 2147516416/0x80008000))
     0x0D8F [0x18] 0x5D80 = atan2(0x6B80, 0x6C80)
     0x0D96 [0x80] LOAD_WAIT(entity=Unknown NPC (ID: 2154725485/0x806E806D))
     0x0D9B [0x6F] WAIT_FRAME_DELAY: Yield until WaitTime reaches zero
     0x0D9C [0x80] LOAD_WAIT(entity=Unknown NPC (ID: 2154922096/0x80718070))
     0x0DA1 [0x72] LOAD_EVENT_WEATHER: Unknown mode 128, weather_id=100*
     0x0DA5 [0x02] IF !(0x0280 == 0x0280) GOTO 0x8002
     0x0DAD [0x02] IF !(0x0280 == 0x0280) GOTO 0x8002
     0x0DB5 [0x02] IF !(0x0280 == 0x0280) GOTO 0x8002
     0x0DBD [0x02] IF !(0x0280 == 0x0280) GOTO 0x8002
     0x0DC5 [0x02] IF !(0x0280 == 0x0280) GOTO 0x8002
     0x0DCD [0x04] DEPRECATED_NOP(unused=0x0280)
     0x0DD0 [0x80] LOAD_WAIT(entity=Unknown NPC (ID: 2147647490/0x80028002))
     0x0DD5 [0x02] IF !(0x2B80 == 0x0780) GOTO 0x8007
     0x0DDD [0x15] 0x1580 /= 0x1880
     0x0DE2 [0x80] LOAD_WAIT(entity=Unknown NPC (ID: 2147647512/0x80028018))
     0x0DE7 [0x02] IF !(0x0280 == 0x0280) GOTO 0x8002
     0x0DEF [0x02] IF !(0x0280 == 0x0280) GOTO 0x8002
     0x0DF7 [0x02] IF !(0x0280 == 0x0280) GOTO 0x8002
     0x0DFF [0x02] IF !(0x0280 == 0x0280) GOTO 0x8002
     0x0E07 [0x02] IF !(0x80 == 0x80) GOTO 0x8000
     0x0E0F [0x00] END_REQSTACK()
     0x0E10 [0x80] LOAD_WAIT(entity=Unknown NPC (ID: 2147516416/0x80008000))
     0x0E15 [0x00] END_REQSTACK()
     0x0E16 [0x80] LOAD_WAIT(entity=Unknown NPC (ID: 2147713024/0x80038000))
     0x0E1B [0x24] CREATE_DIALOG(message_id=0x2480, default_option=0x3680, option_flags=0x80)
     0x0E22 [0x80] LOAD_WAIT(entity=Unknown NPC (ID: 2147516452/0x80008024))
     0x0E27 [0x00] END_REQSTACK()
     0x0E28 [0x80] LOAD_WAIT(entity=Unknown NPC (ID: 2147516416/0x80008000))
     0x0E2D [0x00] END_REQSTACK()
     0x0E2E [0x80] LOAD_WAIT(entity=Unknown NPC (ID: 2147516416/0x80008000))
     0x0E33 [0x00] END_REQSTACK()
     0x0E34 [0x80] LOAD_WAIT(entity=Unknown NPC (ID: 2147516416/0x80008000))
     0x0E39 [0x5E] EventEntity goes idle (kills current action) (animation: "st")
     0x0E3E [0x80] LOAD_WAIT(entity=Unknown NPC (ID: 2155249781/0x80768075))
     0x0E43 [0x77] SET_EVENT_TIME_WEATHER(hour=0x7880, weather=0x3D80)
     0x0E48 [0x80] LOAD_WAIT(entity=Unknown NPC (ID: 2155446367/0x8079805F))
     0x0E4D [0x7A] VM_CONTROL(operation=128)
     0x0E4F [0x60] ADJUST_RENDER_FLAGS1_MULTI: Deprecated mode 0x80 (no operation)
     0x0E51 [0x7B] Unknown NPC (ID: 2105572480/0x7D807C80) stops talking
     0x0E56 [0x80] LOAD_WAIT(entity=Unknown NPC (ID: 2153939041/0x80628061))
     0x0E5B [0x63] PLAY_ANIMATION_WAIT(animation=25728)
     0x0E5E [0x80] LOAD_WAIT(entity=Unknown NPC (ID: 2154201189/0x80668065))
     0x0E63 [0x67] HIDE_HUD_ELEMENTS(param1=0x6880, param2=0x6980)
     0x0E68 [0x80] LOAD_WAIT(entity=Unknown NPC (ID: 2154463358/0x806A807E))
     0x0E6D [0x7F] WAIT_DIALOG_SELECT_ALT()
     0x0E6E [0x80] LOAD_WAIT(entity=Unknown NPC (ID: 2155970688/0x80818080))
     0x0E73 [0x82] RECT_HIT_TEST_BRANCH: If EventEntity is NOT in rectangle 0x84808380, GOTO 0x8580
     0x0E7A [0x80] LOAD_WAIT(entity=Unknown NPC (ID: 2156363910/0x80878086))
     0x0E7F [0x88] WORLD_PASS_HANDLER_B: Send world pass packet 0x1B (Para=1, sets RecFriendPassFlag)
     0x0E80 [0x80] LOAD_WAIT(entity=Unknown NPC (ID: 2156560521/0x808A8089))
     0x0E85 [0x8B] SET_EVENT_MARK: Add/update map marker on map References[3200] at (References[3712], References[3968]), index=References[3456], name=(no name)
     0x0E8E [0x80] LOAD_WAIT(entity=Unknown NPC (ID: 2157019280/0x80918090))
     0x0E93 [0x92] Unknown NPC (ID: 2157215891/0x80948093)->Render.Flags3 ^= 0x80
     0x0E99 [0x95] SETUP_EVENT_NPC: Prepare NPC for event (Render.Flags3 = 0x9680)
     0x0E9C [0x80] LOAD_WAIT(entity=Unknown NPC (ID: 2157478039/0x80988097))
     0x0EA1 [0x99] Wait for Unknown NPC (ID: 2608896640/0x9B809A80) animation to complete
     0x0EA6 [0x80] LOAD_WAIT(entity=Unknown NPC (ID: 2157805724/0x809D809C))
     0x0EAB [0x9E] SET_RECT_EVENT_SEND_FLAG: Notify client of area movement
     0x0EAD [0x9F] LOAD_SCHEDULED_TASK_ALT: Load scheduler 0x04802280 with entities [Unknown NPC (ID: 2709561728/0xA180A180), Unknown NPC (ID: 2709561728/0xA180A180)], work=[0xA080, 0x80]
     0x0EBE [0x80] LOAD_WAIT(entity=Unknown NPC (ID: 2147516416/0x80008000))
     0x0EC3 [0x00] END_REQSTACK()
     0x0EC4 [0x80] LOAD_WAIT(entity=Unknown NPC (ID: 2147647488/0x80028000))
# Dead code (unreachable instructions):
     0x0FCB [0x02] IF !(0x0280 == 0x0280) GOTO 0x8002
     0x0FD3 [0x02] IF !(0x0280 == 0x0280) GOTO 0x8002
     0x0FDB [0x02] IF !(0x0280 == 0x0280) GOTO 0x8002
     0x0FE3 [0x02] IF !(0x0280 == 0x0280) GOTO 0x8002
     0x0FEB [0x02] IF !(0x0280 == 0x0280) GOTO 0x8002
     0x0FF3 [0x80] LOAD_WAIT(entity=Unknown NPC (ID: 2147647490/0x80028002))
```
