# 17735696 - Dry Bone

## Common Data

| Field            | Value                  |
|------------------|------------------------|
| Zone             | Bastok Mines (ID: 234) |
| Block Size       | 1108 bytes             |
| Total Events     | 4                      |
| References Count | 41                     |

## List of Events

| Event ID              | Entrypoint   |   Size |   Instructions |
|-----------------------|--------------|--------|----------------|
| [65535](#event-65535) | 0x0000       |      1 |              1 |
| [1](#event-1)         | 0x0001       |      1 |              1 |
| [26](#event-26)       | 0x0002       |    893 |            142 |
| [176](#event-176)     | 0x037F       |     15 |              3 |

## DAT References (imed_data)

|   Index | Hex Value   |   Dec Value |
|---------|-------------|-------------|
|       0 | 0x2937      |       10551 |
|       1 | 0x2938      |       10552 |
|       2 | 0x0000      |           0 |
|       3 | 0x2939      |       10553 |
|       4 | 0x293A      |       10554 |
|       5 | 0x00C8      |         200 |
|       6 | 0x002D      |          45 |
|       7 | 0x001E      |          30 |
|       8 | 0x0086      |         134 |
|       9 | 0x003C      |          60 |
|      10 | 0x0303      |         771 |
|      11 | 0x293C      |       10556 |
|      12 | 0x293D      |       10557 |
|      13 | 0x293E      |       10558 |
|      14 | 0x293F      |       10559 |
|      15 | 0x2940      |       10560 |
|      16 | 0x2941      |       10561 |
|      17 | 0x2942      |       10562 |
|      18 | 0x2943      |       10563 |
|      19 | 0x2944      |       10564 |
|      20 | 0x2951      |       10577 |
|      21 | 0x0001      |           1 |
|      22 | 0x0912      |        2322 |
|      23 | 0x2945      |       10565 |
|      24 | 0x2946      |       10566 |
|      25 | 0x2947      |       10567 |
|      26 | 0x2948      |       10568 |
|      27 | 0x0002      |           2 |
|      28 | 0x0C7A      |        3194 |
|      29 | 0x2949      |       10569 |
|      30 | 0x294A      |       10570 |
|      31 | 0x294B      |       10571 |
|      32 | 0x294C      |       10572 |
|      33 | 0x294D      |       10573 |
|      34 | 0x294E      |       10574 |
|      35 | 0x294F      |       10575 |
|      36 | 0x2950      |       10576 |
|      37 | 0xFFFDBBEC  |  4294818796 |
|      38 | 0xFFFF956B  |  4294940011 |
|      39 | 0x0011      |          17 |
|      40 | 0x0651      |        1617 |

## String References

- **10551**: What's the matter? Are you lost?
- **10552**: Ask for directions? [Ask./Don't ask.]
- **10553**: Where do you want to go?
- **10554**: Which area would you like to ask about? [The South Gate and the residential area./The Markets and the Mines./The mining town and Alchemists' Guild./Uh, never mind.]
- **10556**: See that big building south from here, on the left?
- **10557**: That's the auction house. You can buy other people's items or sell items yourself there.
- **10558**: You can send items to your friends there as well. Just talk to the Galkan deliveryman on post.
- **10559**: If you keep going south, you'll find the South Gate.
- **10560**: Go through it to go to South Gustaberg. If you are a Bastoker, you can also receive missions from the guard at the gatehouse.
- **10561**: If you go left from the South Gate toward the east, you'll come across another building.
- **10562**: That's where you'll find the Chocobo Stables. You can rent chocobos there to help you on those long trips.
- **10563**: If you go further east, you'll come to the entrance to the residential area. Go on inside if you want to drop off items in your room.
- **10564**: If you are not from Bastok, however, you'll need to get a Rent-a-Room first.
- **10565**: Go through the arch west of here.
- **10566**: You will see a road sloping down on your right. Walk down that road to go to the Markets district.
- **10567**: If you go straight west, you'll be able to see the entrance to the mines.
- **10568**: Inside the mines you will find miners, of course--but also monsters. You should be careful.
- **10569**: To the north of this fork there are two arches, one big and one small.
- **10570**: The big arch leads to the lower level of the mining town, while the small one leads to its surface level.
- **10571**: If you walk through the small arch to the surface level, you'll find an inn to your left.
- **10572**: Across from the inn is the armory.
- **10573**: If you go further down the road, you'll come across a goods shop and the back exit of the mining town.
- **10574**: Go through the exit and you'll be behind the auction house.
- **10575**: You'll also find stairs off to the side, midway down the mining town street. Those connect the surface and lower levels.
- **10576**: At the far end of the lower level, to the east, is where you'll find the Alchemists' Guild.
- **10577**: That's about it. I can explain it to you again, but it might be better for you to just go to those places yourself and talk to the people there.

## Events

### Event 65535

#### Metadata

| Field        | Value   |
|--------------|---------|
| Entrypoint   | 0x0000  |
| Data Size    | 1 bytes |
| Instructions | 1       |

```
      00 01 02 03 04 05 06 07  08 09 0A 0B 0C 0D 0E 0F
      -- -- -- -- -- -- -- --  -- -- -- -- -- -- -- --
0000: 00                                                .               
```

#### Opcodes

```
  0: 0x0000 [0x00] END_REQSTACK()
```

### Event 1

#### Metadata

| Field        | Value   |
|--------------|---------|
| Entrypoint   | 0x0001  |
| Data Size    | 1 bytes |
| Instructions | 1       |

```
      00 01 02 03 04 05 06 07  08 09 0A 0B 0C 0D 0E 0F
      -- -- -- -- -- -- -- --  -- -- -- -- -- -- -- --
0000:    00                                              .              
```

#### Opcodes

```
  0: 0x0001 [0x00] END_REQSTACK()
```

### Event 26

#### Metadata

| Field        | Value     |
|--------------|-----------|
| Entrypoint   | 0x0002    |
| Data Size    | 893 bytes |
| Instructions | 142       |

```
      00 01 02 03 04 05 06 07  08 09 0A 0B 0C 0D 0E 0F
      -- -- -- -- -- -- -- --  -- -- -- -- -- -- -- --
0000:       1E F0 FF FF 7F 1D  00 80 23 24 01 80 02 80    ........#$....
0010: 02 80 25 02 00 10 02 80  00 7D 03 1D 03 80 23 24  ..%......}....#$
0020: 04 80 02 80 02 80 25 02  00 10 02 80 00 64 01 42  ......%......d.B
0030: 45 05 80 F0 FF FF 7F F0  FF FF 7F 66 64 6F 30 02  E..........fdo0.
0040: 80 1C 06 80 4E 00 25 A0  0E 01 46 01 1C 07 80 45  ....N.%...F....E
0050: 05 80 F0 FF FF 7F F0 FF  FF 7F 66 64 69 30 02 80  ..........fdi0..
0060: 45 08 80 F0 FF FF 7F F0  FF FF 7F 73 30 31 30 02  E..........s010.
0070: 80 1C 09 80 39 0A 80 1D  0B 80 23 1D 0C 80 23 55  ....9.....#...#U
0080: 08 80 F0 FF FF 7F F0 FF  FF 7F 73 30 31 30 45 08  ..........s010E.
0090: 80 F0 FF FF 7F F0 FF FF  7F 73 30 31 31 02 80 1D  .........s011...
00A0: 0D 80 23 55 08 80 F0 FF  FF 7F F0 FF FF 7F 73 30  ..#U..........s0
00B0: 31 31 45 08 80 F0 FF FF  7F F0 FF FF 7F 73 30 31  11E..........s01
00C0: 32 02 80 1C 09 80 1D 0E  80 23 1D 0F 80 23 55 08  2........#...#U.
00D0: 80 F0 FF FF 7F F0 FF FF  7F 73 30 31 32 45 08 80  .........s012E..
00E0: F0 FF FF 7F F0 FF FF 7F  73 30 31 33 02 80 1C 07  ........s013....
00F0: 80 1D 10 80 23 1D 11 80  23 55 08 80 F0 FF FF 7F  ....#...#U......
0100: F0 FF FF 7F 73 30 31 33  45 08 80 F0 FF FF 7F F0  ....s013E.......
0110: FF FF 7F 73 30 31 34 02  80 1C 07 80 1D 12 80 23  ...s014........#
0120: 1D 13 80 23 55 08 80 F0  FF FF 7F F0 FF FF 7F 73  ...#U..........s
0130: 30 31 34 45 05 80 F0 FF  FF 7F F0 FF FF 7F 66 64  014E..........fd
0140: 6F 30 02 80 1C 06 80 46  00 1C 07 80 45 05 80 F0  o0.....F....E...
0150: FF FF 7F F0 FF FF 7F 66  64 69 30 02 80 1D 14 80  .......fdi0.....
0160: 23 01 7A 03 02 00 10 15  80 00 21 02 42 45 05 80  #.z.......!.BE..
0170: F0 FF FF 7F F0 FF FF 7F  66 64 6F 30 02 80 1C 06  ........fdo0....
0180: 80 46 01 1C 07 80 45 05  80 F0 FF FF 7F F0 FF FF  .F....E.........
0190: 7F 66 64 69 30 02 80 45  08 80 F0 FF FF 7F F0 FF  .fdi0..E........
01A0: FF 7F 73 30 32 30 02 80  1C 09 80 39 16 80 1D 17  ..s020.....9....
01B0: 80 23 1D 18 80 23 55 08  80 F0 FF FF 7F F0 FF FF  .#...#U.........
01C0: 7F 73 30 32 30 45 08 80  F0 FF FF 7F F0 FF FF 7F  .s020E..........
01D0: 73 30 32 31 02 80 1C 09  80 1D 19 80 23 1D 1A 80  s021........#...
01E0: 23 55 08 80 F0 FF FF 7F  F0 FF FF 7F 73 30 32 31  #U..........s021
01F0: 45 05 80 F0 FF FF 7F F0  FF FF 7F 66 64 6F 30 02  E..........fdo0.
0200: 80 1C 06 80 46 00 1C 07  80 45 05 80 F0 FF FF 7F  ....F....E......
0210: F0 FF FF 7F 66 64 69 30  02 80 1D 14 80 23 01 7A  ....fdi0.....#.z
0220: 03 02 00 10 1B 80 00 7A  03 42 45 05 80 F0 FF FF  .......z.BE.....
0230: 7F F0 FF FF 7F 66 64 6F  30 02 80 1C 06 80 46 01  .....fdo0.....F.
0240: 1C 07 80 45 05 80 F0 FF  FF 7F F0 FF FF 7F 66 64  ...E..........fd
0250: 69 30 02 80 45 08 80 F0  FF FF 7F F0 FF FF 7F 73  i0..E..........s
0260: 30 33 30 02 80 1C 09 80  39 1C 80 1D 1D 80 23 1D  030.....9.....#.
0270: 1E 80 23 55 08 80 F0 FF  FF 7F F0 FF FF 7F 73 30  ..#U..........s0
0280: 33 30 45 08 80 F0 FF FF  7F F0 FF FF 7F 73 30 33  30E..........s03
0290: 31 02 80 1C 07 80 1D 1F  80 23 55 08 80 F0 FF FF  1........#U.....
02A0: 7F F0 FF FF 7F 73 30 33  31 45 08 80 F0 FF FF 7F  .....s031E......
02B0: F0 FF FF 7F 73 30 33 32  02 80 1C 07 80 1D 20 80  ....s032...... .
02C0: 23 55 08 80 F0 FF FF 7F  F0 FF FF 7F 73 30 33 32  #U..........s032
02D0: 45 08 80 F0 FF FF 7F F0  FF FF 7F 73 30 33 33 02  E..........s033.
02E0: 80 1C 07 80 1D 21 80 23  1D 22 80 23 55 08 80 F0  .....!.#.".#U...
02F0: FF FF 7F F0 FF FF 7F 73  30 33 33 45 08 80 F0 FF  .......s033E....
0300: FF 7F F0 FF FF 7F 73 30  33 34 02 80 1C 07 80 1D  ......s034......
0310: 23 80 23 55 08 80 F0 FF  FF 7F F0 FF FF 7F 73 30  #.#U..........s0
0320: 33 34 45 08 80 F0 FF FF  7F F0 FF FF 7F 73 30 33  34E..........s03
0330: 35 02 80 1C 07 80 1D 24  80 23 55 08 80 F0 FF FF  5......$.#U.....
0340: 7F F0 FF FF 7F 73 30 33  35 45 05 80 F0 FF FF 7F  .....s035E......
0350: F0 FF FF 7F 66 64 6F 30  02 80 1C 06 80 46 00 1C  ....fdo0.....F..
0360: 07 80 45 05 80 F0 FF FF  7F F0 FF FF 7F 66 64 69  ..E..........fdi
0370: 30 02 80 1D 14 80 23 01  7A 03 01 7D 03 21 00     0.....#.z..}.!. 
```

#### Opcodes

```
  0: 0x0002 [0x1E] EventEntity looks at LocalPlayer and starts talking
  1: 0x0007 [0x1D] PRINT_EVENT_MESSAGE(message_id=10551*)
    → "What's the matter? Are you lost?"
  2: 0x000A [0x23] WAIT_FOR_DIALOG_INTERACTION
  3: 0x000B [0x24] CREATE_DIALOG(message_id=10552*, default_option=0*, option_flags=0*)
    → "Ask for directions? [Ask./Don't ask.]"
  4: 0x0012 [0x25] WAIT_DIALOG_SELECT()
  5: 0x0013 [0x02] IF !(Work_Zone[0] == 0*) GOTO 0x037D
  6: 0x001B [0x1D] PRINT_EVENT_MESSAGE(message_id=10553*)
    → "Where do you want to go?"
  7: 0x001E [0x23] WAIT_FOR_DIALOG_INTERACTION
  8: 0x001F [0x24] CREATE_DIALOG(message_id=10554*, default_option=0*, option_flags=0*)
    → "Which area would you like to ask about? [The South Gate and the residential area./The Markets and the Mines./The mining town and Alchemists' Guild./Uh, never mind.]"
  9: 0x0026 [0x25] WAIT_DIALOG_SELECT()
 10: 0x0027 [0x02] IF !(Work_Zone[0] == 0*) GOTO 0x0164
 11: 0x002F [0x42] SET_CLI_EVENT_CANCEL_DATA()
 12: 0x0030 [0x45] LOAD_SCHEDULED_TASK: Load scheduler "fdo0" with entities [LocalPlayer, LocalPlayer], work=[200*, 0*]
 13: 0x0041 [0x1C] WAIT(45* ticks)
 14: 0x0044 [0x4E] SET_ENTITY_HIDE_FLAG: Show Sodragamm (ID: 17735717/0x010EA025)
 15: 0x004A [0x46] CAMERA_CONTROL: Disable user control
 16: 0x004C [0x1C] WAIT(30* ticks)
 17: 0x004F [0x45] LOAD_SCHEDULED_TASK: Load scheduler "fdi0" with entities [LocalPlayer, LocalPlayer], work=[200*, 0*]
 18: 0x0060 [0x45] LOAD_SCHEDULED_TASK: Load scheduler "s010" with entities [LocalPlayer, LocalPlayer], work=[134*, 0*]
 19: 0x0071 [0x1C] WAIT(60* ticks)
 20: 0x0074 [0x39] SET_ENTITY_DIRECTION(direction=4.2°*)
 21: 0x0077 [0x1D] PRINT_EVENT_MESSAGE(message_id=10556*)
    → "See that big building south from here, on the left?"
 22: 0x007A [0x23] WAIT_FOR_DIALOG_INTERACTION
 23: 0x007B [0x1D] PRINT_EVENT_MESSAGE(message_id=10557*)
    → "That's the auction house. You can buy other people's items or sell items yourself there."
 24: 0x007E [0x23] WAIT_FOR_DIALOG_INTERACTION
 25: 0x007F [0x55] WAIT_LOAD_SCHEDULER: Wait for scheduler "s010" with entities [LocalPlayer, LocalPlayer], work=134*
 26: 0x008E [0x45] LOAD_SCHEDULED_TASK: Load scheduler "s011" with entities [LocalPlayer, LocalPlayer], work=[134*, 0*]
 27: 0x009F [0x1D] PRINT_EVENT_MESSAGE(message_id=10558*)
    → "You can send items to your friends there as well. Just talk to the Galkan deliveryman on post."
 28: 0x00A2 [0x23] WAIT_FOR_DIALOG_INTERACTION
 29: 0x00A3 [0x55] WAIT_LOAD_SCHEDULER: Wait for scheduler "s011" with entities [LocalPlayer, LocalPlayer], work=134*
 30: 0x00B2 [0x45] LOAD_SCHEDULED_TASK: Load scheduler "s012" with entities [LocalPlayer, LocalPlayer], work=[134*, 0*]
 31: 0x00C3 [0x1C] WAIT(60* ticks)
 32: 0x00C6 [0x1D] PRINT_EVENT_MESSAGE(message_id=10559*)
    → "If you keep going south, you'll find the South Gate."
 33: 0x00C9 [0x23] WAIT_FOR_DIALOG_INTERACTION
 34: 0x00CA [0x1D] PRINT_EVENT_MESSAGE(message_id=10560*)
    → "Go through it to go to South Gustaberg. If you are a Bastoker, you can also receive missions from the guard at the gatehouse."
 35: 0x00CD [0x23] WAIT_FOR_DIALOG_INTERACTION
 36: 0x00CE [0x55] WAIT_LOAD_SCHEDULER: Wait for scheduler "s012" with entities [LocalPlayer, LocalPlayer], work=134*
 37: 0x00DD [0x45] LOAD_SCHEDULED_TASK: Load scheduler "s013" with entities [LocalPlayer, LocalPlayer], work=[134*, 0*]
 38: 0x00EE [0x1C] WAIT(30* ticks)
 39: 0x00F1 [0x1D] PRINT_EVENT_MESSAGE(message_id=10561*)
    → "If you go left from the South Gate toward the east, you'll come across another building."
 40: 0x00F4 [0x23] WAIT_FOR_DIALOG_INTERACTION
 41: 0x00F5 [0x1D] PRINT_EVENT_MESSAGE(message_id=10562*)
    → "That's where you'll find the Chocobo Stables. You can rent chocobos there to help you on those long trips."
 42: 0x00F8 [0x23] WAIT_FOR_DIALOG_INTERACTION
 43: 0x00F9 [0x55] WAIT_LOAD_SCHEDULER: Wait for scheduler "s013" with entities [LocalPlayer, LocalPlayer], work=134*
 44: 0x0108 [0x45] LOAD_SCHEDULED_TASK: Load scheduler "s014" with entities [LocalPlayer, LocalPlayer], work=[134*, 0*]
 45: 0x0119 [0x1C] WAIT(30* ticks)
 46: 0x011C [0x1D] PRINT_EVENT_MESSAGE(message_id=10563*)
    → "If you go further east, you'll come to the entrance to the residential area. Go on inside if you want to drop off items in your room."
 47: 0x011F [0x23] WAIT_FOR_DIALOG_INTERACTION
 48: 0x0120 [0x1D] PRINT_EVENT_MESSAGE(message_id=10564*)
    → "If you are not from Bastok, however, you'll need to get a Rent-a-Room first."
 49: 0x0123 [0x23] WAIT_FOR_DIALOG_INTERACTION
 50: 0x0124 [0x55] WAIT_LOAD_SCHEDULER: Wait for scheduler "s014" with entities [LocalPlayer, LocalPlayer], work=134*
 51: 0x0133 [0x45] LOAD_SCHEDULED_TASK: Load scheduler "fdo0" with entities [LocalPlayer, LocalPlayer], work=[200*, 0*]
 52: 0x0144 [0x1C] WAIT(45* ticks)
 53: 0x0147 [0x46] CAMERA_CONTROL: Restore default settings
 54: 0x0149 [0x1C] WAIT(30* ticks)
 55: 0x014C [0x45] LOAD_SCHEDULED_TASK: Load scheduler "fdi0" with entities [LocalPlayer, LocalPlayer], work=[200*, 0*]
 56: 0x015D [0x1D] PRINT_EVENT_MESSAGE(message_id=10577*)
    → "That's about it. I can explain it to you again, but it might be better for you to just go to those places yourself and talk to the people there."
 57: 0x0160 [0x23] WAIT_FOR_DIALOG_INTERACTION
 58: 0x0161 [0x01] GOTO 0x037A
 59: 0x0164 [0x02] IF !(Work_Zone[0] == 1*) GOTO 0x0221
 60: 0x016C [0x42] SET_CLI_EVENT_CANCEL_DATA()
 61: 0x016D [0x45] LOAD_SCHEDULED_TASK: Load scheduler "fdo0" with entities [LocalPlayer, LocalPlayer], work=[200*, 0*]
 62: 0x017E [0x1C] WAIT(45* ticks)
 63: 0x0181 [0x46] CAMERA_CONTROL: Disable user control
 64: 0x0183 [0x1C] WAIT(30* ticks)
 65: 0x0186 [0x45] LOAD_SCHEDULED_TASK: Load scheduler "fdi0" with entities [LocalPlayer, LocalPlayer], work=[200*, 0*]
 66: 0x0197 [0x45] LOAD_SCHEDULED_TASK: Load scheduler "s020" with entities [LocalPlayer, LocalPlayer], work=[134*, 0*]
 67: 0x01A8 [0x1C] WAIT(60* ticks)
 68: 0x01AB [0x39] SET_ENTITY_DIRECTION(direction=12.8°*)
 69: 0x01AE [0x1D] PRINT_EVENT_MESSAGE(message_id=10565*)
    → "Go through the arch west of here."
 70: 0x01B1 [0x23] WAIT_FOR_DIALOG_INTERACTION
 71: 0x01B2 [0x1D] PRINT_EVENT_MESSAGE(message_id=10566*)
    → "You will see a road sloping down on your right. Walk down that road to go to the Markets district."
 72: 0x01B5 [0x23] WAIT_FOR_DIALOG_INTERACTION
 73: 0x01B6 [0x55] WAIT_LOAD_SCHEDULER: Wait for scheduler "s020" with entities [LocalPlayer, LocalPlayer], work=134*
 74: 0x01C5 [0x45] LOAD_SCHEDULED_TASK: Load scheduler "s021" with entities [LocalPlayer, LocalPlayer], work=[134*, 0*]
 75: 0x01D6 [0x1C] WAIT(60* ticks)
 76: 0x01D9 [0x1D] PRINT_EVENT_MESSAGE(message_id=10567*)
    → "If you go straight west, you'll be able to see the entrance to the mines."
 77: 0x01DC [0x23] WAIT_FOR_DIALOG_INTERACTION
 78: 0x01DD [0x1D] PRINT_EVENT_MESSAGE(message_id=10568*)
    → "Inside the mines you will find miners, of course--but also monsters. You should be careful."
 79: 0x01E0 [0x23] WAIT_FOR_DIALOG_INTERACTION
 80: 0x01E1 [0x55] WAIT_LOAD_SCHEDULER: Wait for scheduler "s021" with entities [LocalPlayer, LocalPlayer], work=134*
 81: 0x01F0 [0x45] LOAD_SCHEDULED_TASK: Load scheduler "fdo0" with entities [LocalPlayer, LocalPlayer], work=[200*, 0*]
 82: 0x0201 [0x1C] WAIT(45* ticks)
 83: 0x0204 [0x46] CAMERA_CONTROL: Restore default settings
 84: 0x0206 [0x1C] WAIT(30* ticks)
 85: 0x0209 [0x45] LOAD_SCHEDULED_TASK: Load scheduler "fdi0" with entities [LocalPlayer, LocalPlayer], work=[200*, 0*]
 86: 0x021A [0x1D] PRINT_EVENT_MESSAGE(message_id=10577*)
    → "That's about it. I can explain it to you again, but it might be better for you to just go to those places yourself and talk to the people there."
 87: 0x021D [0x23] WAIT_FOR_DIALOG_INTERACTION
 88: 0x021E [0x01] GOTO 0x037A
 89: 0x0221 [0x02] IF !(Work_Zone[0] == 2*) GOTO 0x037A
 90: 0x0229 [0x42] SET_CLI_EVENT_CANCEL_DATA()
 91: 0x022A [0x45] LOAD_SCHEDULED_TASK: Load scheduler "fdo0" with entities [LocalPlayer, LocalPlayer], work=[200*, 0*]
 92: 0x023B [0x1C] WAIT(45* ticks)
 93: 0x023E [0x46] CAMERA_CONTROL: Disable user control
 94: 0x0240 [0x1C] WAIT(30* ticks)
 95: 0x0243 [0x45] LOAD_SCHEDULED_TASK: Load scheduler "fdi0" with entities [LocalPlayer, LocalPlayer], work=[200*, 0*]
 96: 0x0254 [0x45] LOAD_SCHEDULED_TASK: Load scheduler "s030" with entities [LocalPlayer, LocalPlayer], work=[134*, 0*]
 97: 0x0265 [0x1C] WAIT(60* ticks)
 98: 0x0268 [0x39] SET_ENTITY_DIRECTION(direction=17.5°*)
 99: 0x026B [0x1D] PRINT_EVENT_MESSAGE(message_id=10569*)
    → "To the north of this fork there are two arches, one big and one small."
100: 0x026E [0x23] WAIT_FOR_DIALOG_INTERACTION
101: 0x026F [0x1D] PRINT_EVENT_MESSAGE(message_id=10570*)
    → "The big arch leads to the lower level of the mining town, while the small one leads to its surface level."
102: 0x0272 [0x23] WAIT_FOR_DIALOG_INTERACTION
103: 0x0273 [0x55] WAIT_LOAD_SCHEDULER: Wait for scheduler "s030" with entities [LocalPlayer, LocalPlayer], work=134*
104: 0x0282 [0x45] LOAD_SCHEDULED_TASK: Load scheduler "s031" with entities [LocalPlayer, LocalPlayer], work=[134*, 0*]
105: 0x0293 [0x1C] WAIT(30* ticks)
106: 0x0296 [0x1D] PRINT_EVENT_MESSAGE(message_id=10571*)
    → "If you walk through the small arch to the surface level, you'll find an inn to your left."
107: 0x0299 [0x23] WAIT_FOR_DIALOG_INTERACTION
108: 0x029A [0x55] WAIT_LOAD_SCHEDULER: Wait for scheduler "s031" with entities [LocalPlayer, LocalPlayer], work=134*
109: 0x02A9 [0x45] LOAD_SCHEDULED_TASK: Load scheduler "s032" with entities [LocalPlayer, LocalPlayer], work=[134*, 0*]
110: 0x02BA [0x1C] WAIT(30* ticks)
111: 0x02BD [0x1D] PRINT_EVENT_MESSAGE(message_id=10572*)
    → "Across from the inn is the armory."
112: 0x02C0 [0x23] WAIT_FOR_DIALOG_INTERACTION
113: 0x02C1 [0x55] WAIT_LOAD_SCHEDULER: Wait for scheduler "s032" with entities [LocalPlayer, LocalPlayer], work=134*
114: 0x02D0 [0x45] LOAD_SCHEDULED_TASK: Load scheduler "s033" with entities [LocalPlayer, LocalPlayer], work=[134*, 0*]
115: 0x02E1 [0x1C] WAIT(30* ticks)
116: 0x02E4 [0x1D] PRINT_EVENT_MESSAGE(message_id=10573*)
    → "If you go further down the road, you'll come across a goods shop and the back exit of the mining town."
117: 0x02E7 [0x23] WAIT_FOR_DIALOG_INTERACTION
118: 0x02E8 [0x1D] PRINT_EVENT_MESSAGE(message_id=10574*)
    → "Go through the exit and you'll be behind the auction house."
119: 0x02EB [0x23] WAIT_FOR_DIALOG_INTERACTION
120: 0x02EC [0x55] WAIT_LOAD_SCHEDULER: Wait for scheduler "s033" with entities [LocalPlayer, LocalPlayer], work=134*
121: 0x02FB [0x45] LOAD_SCHEDULED_TASK: Load scheduler "s034" with entities [LocalPlayer, LocalPlayer], work=[134*, 0*]
122: 0x030C [0x1C] WAIT(30* ticks)
123: 0x030F [0x1D] PRINT_EVENT_MESSAGE(message_id=10575*)
    → "You'll also find stairs off to the side, midway down the mining town street. Those connect the surface and lower levels."
124: 0x0312 [0x23] WAIT_FOR_DIALOG_INTERACTION
125: 0x0313 [0x55] WAIT_LOAD_SCHEDULER: Wait for scheduler "s034" with entities [LocalPlayer, LocalPlayer], work=134*
126: 0x0322 [0x45] LOAD_SCHEDULED_TASK: Load scheduler "s035" with entities [LocalPlayer, LocalPlayer], work=[134*, 0*]
127: 0x0333 [0x1C] WAIT(30* ticks)
128: 0x0336 [0x1D] PRINT_EVENT_MESSAGE(message_id=10576*)
    → "At the far end of the lower level, to the east, is where you'll find the Alchemists' Guild."
129: 0x0339 [0x23] WAIT_FOR_DIALOG_INTERACTION
130: 0x033A [0x55] WAIT_LOAD_SCHEDULER: Wait for scheduler "s035" with entities [LocalPlayer, LocalPlayer], work=134*
131: 0x0349 [0x45] LOAD_SCHEDULED_TASK: Load scheduler "fdo0" with entities [LocalPlayer, LocalPlayer], work=[200*, 0*]
132: 0x035A [0x1C] WAIT(45* ticks)
133: 0x035D [0x46] CAMERA_CONTROL: Restore default settings
134: 0x035F [0x1C] WAIT(30* ticks)
135: 0x0362 [0x45] LOAD_SCHEDULED_TASK: Load scheduler "fdi0" with entities [LocalPlayer, LocalPlayer], work=[200*, 0*]
136: 0x0373 [0x1D] PRINT_EVENT_MESSAGE(message_id=10577*)
    → "That's about it. I can explain it to you again, but it might be better for you to just go to those places yourself and talk to the people there."
137: 0x0376 [0x23] WAIT_FOR_DIALOG_INTERACTION
138: 0x0377 [0x01] GOTO 0x037A

SUBROUTINE_037A:
139: 0x037A [0x01] GOTO 0x037D

SUBROUTINE_037D:
140: 0x037D [0x21] END_EVENT
141: 0x037E [0x00] END_REQSTACK()
```

### Event 176

#### Metadata

| Field        | Value    |
|--------------|----------|
| Entrypoint   | 0x037F   |
| Data Size    | 15 bytes |
| Instructions | 3        |

```
      00 01 02 03 04 05 06 07  08 09 0A 0B 0C 0D 0E 0F
      -- -- -- -- -- -- -- --  -- -- -- -- -- -- -- --
0370:                                               37                 7
0380: 25 80 26 80 27 80 28 80  1E 0B A0 0E 01 00        %.&.'.(.......  
```

#### Opcodes

```
  0: 0x037F [0x37] UPDATE_EVENT_POSITION_AND_DIR: x=-148.500*, z=-27.285*, y=0.017*, direction=142.1°*
  1: 0x0388 [0x1E] EventEntity looks at Mydon (ID: 17735691/0x010EA00B) and starts talking
  2: 0x038D [0x00] END_REQSTACK()
```
