# 17735827

## Common Data

| Field            | Value                  |
|------------------|------------------------|
| Zone             | Bastok Mines (ID: 234) |
| Block Size       | 1824 bytes             |
| Total Events     | 37                     |
| References Count | 145                    |

## List of Events

| Event ID                   | Entrypoint   |   Size |   Instructions |
|----------------------------|--------------|--------|----------------|
| [65535](#event-65535)      | 0x0000       |      1 |              1 |
| [513](#event-513)          | 0x0001       |      1 |              1 |
| [509](#event-509)          | 0x0002       |      1 |              1 |
| [65535.1](#event-655351)   | 0x0003       |      5 |              2 |
| [65535.2](#event-655352)   | 0x0008       |     11 |              3 |
| [65535.3](#event-655353)   | 0x0013       |     10 |              2 |
| [65535.4](#event-655354)   | 0x001D       |     81 |             16 |
| [65535.5](#event-655355)   | 0x006E       |     81 |             16 |
| [65535.6](#event-655356)   | 0x00BF       |     10 |              2 |
| [65535.7](#event-655357)   | 0x00C9       |     14 |              4 |
| [65535.8](#event-655358)   | 0x00D7       |     11 |              3 |
| [65535.9](#event-655359)   | 0x00E2       |     11 |              3 |
| [65535.10](#event-6553510) | 0x00ED       |     11 |              3 |
| [65535.11](#event-6553511) | 0x00F8       |     14 |              4 |
| [65535.12](#event-6553512) | 0x0106       |      5 |              2 |
| [65535.13](#event-6553513) | 0x010B       |     15 |              3 |
| [65535.14](#event-6553514) | 0x011A       |     15 |              3 |
| [545](#event-545)          | 0x0129       |      1 |              1 |
| [65535.15](#event-6553515) | 0x012A       |     15 |              3 |
| [65535.16](#event-6553516) | 0x0139       |     48 |             11 |
| [65535.17](#event-6553517) | 0x0169       |     48 |             11 |
| [65535.18](#event-6553518) | 0x0199       |      6 |              2 |
| [65535.19](#event-6553519) | 0x019F       |     15 |              3 |
| [65535.20](#event-6553520) | 0x01AE       |     54 |             12 |
| [65535.21](#event-6553521) | 0x01E4       |     66 |             16 |
| [65535.22](#event-6553522) | 0x0226       |     15 |              3 |
| [65535.23](#event-6553523) | 0x0235       |     73 |             17 |
| [65535.24](#event-6553524) | 0x027E       |     50 |             12 |
| [65535.25](#event-6553525) | 0x02B0       |     50 |             12 |
| [65535.26](#event-6553526) | 0x02E2       |     67 |             15 |
| [65535.27](#event-6553527) | 0x0325       |     14 |              4 |
| [65535.28](#event-6553528) | 0x0333       |     51 |             11 |
| [65535.29](#event-6553529) | 0x0366       |     14 |              4 |
| [65535.30](#event-6553530) | 0x0374       |     51 |             11 |
| [65535.31](#event-6553531) | 0x03A7       |     59 |             13 |
| [65535.32](#event-6553532) | 0x03E2       |     69 |             15 |
| [65535.33](#event-6553533) | 0x0427       |     15 |              3 |

## DAT References (imed_data)

|   Index | Hex Value   |   Dec Value |
|---------|-------------|-------------|
|       0 | 0x0000      |           0 |
|       1 | 0x7D83      |       32131 |
|       2 | 0xFFFE8E29  |  4294872617 |
|       3 | 0x0367      |         871 |
|       4 | 0x0561      |        1377 |
|       5 | 0x0039      |          57 |
|       6 | 0x68EC      |       26860 |
|       7 | 0xFFFE933F  |  4294873919 |
|       8 | 0x6F22      |       28450 |
|       9 | 0xFFFEA56E  |  4294878574 |
|      10 | 0x7D53      |       32083 |
|      11 | 0xFFFEA6A2  |  4294878882 |
|      12 | 0x0365      |         869 |
|      13 | 0x8519      |       34073 |
|      14 | 0xFFFE9CA8  |  4294876328 |
|      15 | 0x034F      |         847 |
|      16 | 0xCBEF      |       52207 |
|      17 | 0xFFFE946E  |  4294874222 |
|      18 | 0x0821      |        2081 |
|      19 | 0xC6F3      |       50931 |
|      20 | 0xFFFE94C9  |  4294874313 |
|      21 | 0xC590      |       50576 |
|      22 | 0xFFFE94D9  |  4294874329 |
|      23 | 0xC05C      |       49244 |
|      24 | 0xFFFE9515  |  4294874389 |
|      25 | 0xBB6A      |       47978 |
|      26 | 0xFFFE9571  |  4294874481 |
|      27 | 0xC454      |       50260 |
|      28 | 0xFFFEA76D  |  4294879085 |
|      29 | 0x005E      |          94 |
|      30 | 0xABF2      |       44018 |
|      31 | 0xFFFE4530  |  4294853936 |
|      32 | 0x055E      |        1374 |
|      33 | 0x0F14      |        3860 |
|      34 | 0x17F96     |       98198 |
|      35 | 0xFFFEEF37  |  4294897463 |
|      36 | 0x03E4      |         996 |
|      37 | 0x0FF5      |        4085 |
|      38 | 0xFFF6CD3D  |  4294364477 |
|      39 | 0x92D67     |      601447 |
|      40 | 0x0183      |         387 |
|      41 | 0x0002      |           2 |
|      42 | 0x000A      |          10 |
|      43 | 0xFFF6C5BB  |  4294362555 |
|      44 | 0x934CA     |      603338 |
|      45 | 0x0023      |          35 |
|      46 | 0xFFF6D3C5  |  4294366149 |
|      47 | 0x93292     |      602770 |
|      48 | 0xFFF6DF7D  |  4294369149 |
|      49 | 0x939E5     |      604645 |
|      50 | 0x001F      |          31 |
|      51 | 0x003C      |          60 |
|      52 | 0x0013      |          19 |
|      53 | 0xFFF6D7C0  |  4294367168 |
|      54 | 0x8EF6A     |      585578 |
|      55 | 0x0274      |         628 |
|      56 | 0x011C      |         284 |
|      57 | 0xFFF6D0CA  |  4294365386 |
|      58 | 0x8F7DF     |      587743 |
|      59 | 0x0112      |         274 |
|      60 | 0xFFF6D779  |  4294367097 |
|      61 | 0x8FCC2     |      588994 |
|      62 | 0x015B      |         347 |
|      63 | 0xFFF6DB55  |  4294368085 |
|      64 | 0x8F169     |      586089 |
|      65 | 0x024A      |         586 |
|      66 | 0xFFF6DAA1  |  4294367905 |
|      67 | 0x8E6CF     |      583375 |
|      68 | 0x033E      |         830 |
|      69 | 0x001E      |          30 |
|      70 | 0xFFF6D3B3  |  4294366131 |
|      71 | 0x8F340     |      586560 |
|      72 | 0x01D0      |         464 |
|      73 | 0x0101      |         257 |
|      74 | 0x0078      |         120 |
|      75 | 0xFFF6D069  |  4294365289 |
|      76 | 0x8F7F4     |      587764 |
|      77 | 0x010C      |         268 |
|      78 | 0xFFF6D763  |  4294367075 |
|      79 | 0x8FB0E     |      588558 |
|      80 | 0x0171      |         369 |
|      81 | 0xFFF6CFE0  |  4294365152 |
|      82 | 0x8F449     |      586825 |
|      83 | 0x0178      |         376 |
|      84 | 0x0862      |        2146 |
|      85 | 0xFFF6D8AC  |  4294367404 |
|      86 | 0x8FABD     |      588477 |
|      87 | 0x0175      |         373 |
|      88 | 0xFFF6DB01  |  4294368001 |
|      89 | 0x90356     |      590678 |
|      90 | 0x0108      |         264 |
|      91 | 0x03BF      |         959 |
|      92 | 0xFFF6C73F  |  4294362943 |
|      93 | 0x8F234     |      586292 |
|      94 | 0x008A      |         138 |
|      95 | 0x0025      |          37 |
|      96 | 0x00F0      |         240 |
|      97 | 0xFFF6D6F8  |  4294366968 |
|      98 | 0x8E30A     |      582410 |
|      99 | 0x0322      |         802 |
|     100 | 0x0BD3      |        3027 |
|     101 | 0xFFF6DB94  |  4294368148 |
|     102 | 0x8FCF3     |      589043 |
|     103 | 0x0159      |         345 |
|     104 | 0xFFF6C79F  |  4294363039 |
|     105 | 0x8F34D     |      586573 |
|     106 | 0xFFF6CB4A  |  4294363978 |
|     107 | 0x8FAEF     |      588527 |
|     108 | 0x00C4      |         196 |
|     109 | 0xFFF6D269  |  4294365801 |
|     110 | 0x8F138     |      586040 |
|     111 | 0x01F0      |         496 |
|     112 | 0xFFF6D2EF  |  4294365935 |
|     113 | 0x8EB3B     |      584507 |
|     114 | 0x021E      |         542 |
|     115 | 0xFFF6D6A2  |  4294366882 |
|     116 | 0x8E8B3     |      583859 |
|     117 | 0x02C0      |         704 |
|     118 | 0xFFF6DAB0  |  4294367920 |
|     119 | 0x8EE3C     |      585276 |
|     120 | 0x029C      |         668 |
|     121 | 0xFFF6DC30  |  4294368304 |
|     122 | 0x8F5FC     |      587260 |
|     123 | 0x01D4      |         468 |
|     124 | 0xFFF6D87A  |  4294367354 |
|     125 | 0x8F6D2     |      587474 |
|     126 | 0x01BF      |         447 |
|     127 | 0xFFF6CEAA  |  4294364842 |
|     128 | 0x8FA2D     |      588333 |
|     129 | 0x00F7      |         247 |
|     130 | 0xFFF6CA0E  |  4294363662 |
|     131 | 0x8EFB9     |      585657 |
|     132 | 0x0090      |         144 |
|     133 | 0xFFF6CECB  |  4294364875 |
|     134 | 0x8E418     |      582680 |
|     135 | 0x018C      |         396 |
|     136 | 0xFFF6DB79  |  4294368121 |
|     137 | 0x8E4F3     |      582899 |
|     138 | 0x0356      |         854 |
|     139 | 0xFFF6DE60  |  4294368864 |
|     140 | 0x8F7D9     |      587737 |
|     141 | 0x019A      |         410 |
|     142 | 0xFFF6D8AE  |  4294367406 |
|     143 | 0x8FE78     |      589432 |
|     144 | 0x0146      |         326 |

## Events

### Event 65535

#### Metadata

| Field        | Value   |
|--------------|---------|
| Entrypoint   | 0x0000  |
| Data Size    | 1 bytes |
| Instructions | 1       |

```
      00 01 02 03 04 05 06 07  08 09 0A 0B 0C 0D 0E 0F
      -- -- -- -- -- -- -- --  -- -- -- -- -- -- -- --
0000: 00                                                .               
```

#### Opcodes

```
  0: 0x0000 [0x00] END_REQSTACK()
```

### Event 513

#### Metadata

| Field        | Value   |
|--------------|---------|
| Entrypoint   | 0x0001  |
| Data Size    | 1 bytes |
| Instructions | 1       |

```
      00 01 02 03 04 05 06 07  08 09 0A 0B 0C 0D 0E 0F
      -- -- -- -- -- -- -- --  -- -- -- -- -- -- -- --
0000:    00                                              .              
```

#### Opcodes

```
  0: 0x0001 [0x00] END_REQSTACK()
```

### Event 509

#### Metadata

| Field        | Value   |
|--------------|---------|
| Entrypoint   | 0x0002  |
| Data Size    | 1 bytes |
| Instructions | 1       |

```
      00 01 02 03 04 05 06 07  08 09 0A 0B 0C 0D 0E 0F
      -- -- -- -- -- -- -- --  -- -- -- -- -- -- -- --
0000:       00                                            .             
```

#### Opcodes

```
  0: 0x0002 [0x00] END_REQSTACK()
```

### Event 65535.1

#### Metadata

| Field        | Value   |
|--------------|---------|
| Entrypoint   | 0x0003  |
| Data Size    | 5 bytes |
| Instructions | 2       |

```
      00 01 02 03 04 05 06 07  08 09 0A 0B 0C 0D 0E 0F
      -- -- -- -- -- -- -- --  -- -- -- -- -- -- -- --
0000:          B6 00 04 10 00                              .....        
```

#### Opcodes

```
  0: 0x0003 [0xB6] ENTITY_APPEARANCE_HANDLER(case=Hair style, value=Work_Zone[4])
  1: 0x0007 [0x00] END_REQSTACK()
```

### Event 65535.2

#### Metadata

| Field        | Value    |
|--------------|----------|
| Entrypoint   | 0x0008   |
| Data Size    | 11 bytes |
| Instructions | 3        |

```
      00 01 02 03 04 05 06 07  08 09 0A 0B 0C 0D 0E 0F
      -- -- -- -- -- -- -- --  -- -- -- -- -- -- -- --
0000:                          B4 01 00 00 00 80 B5 00          ........
0010: 00 00 00                                          ...             
```

#### Opcodes

```
  0: 0x0008 [0xB4] UI_WINDOW_STRING_HANDLER(case=0x01 - Copy string from event strings table, work_offset=ExtData[1]->WorkLocal[0], string_index=0*)
  1: 0x000E [0xB5] SET_EVENT_ENTITY_NAME: Change EventEntity name to ExtData[1]->WorkLocal[0]
  2: 0x0012 [0x00] END_REQSTACK()
```

### Event 65535.3

#### Metadata

| Field        | Value    |
|--------------|----------|
| Entrypoint   | 0x0013   |
| Data Size    | 10 bytes |
| Instructions | 2        |

```
      00 01 02 03 04 05 06 07  08 09 0A 0B 0C 0D 0E 0F
      -- -- -- -- -- -- -- --  -- -- -- -- -- -- -- --
0010:          37 01 80 02 80  03 80 04 80 00              7.........   
```

#### Opcodes

```
  0: 0x0013 [0x37] UPDATE_EVENT_POSITION_AND_DIR: x=32.131*, z=-94.679*, y=0.871*, direction=121.0°*
  1: 0x001C [0x00] END_REQSTACK()
```

### Event 65535.4

#### Metadata

| Field        | Value    |
|--------------|----------|
| Entrypoint   | 0x001D   |
| Data Size    | 81 bytes |
| Instructions | 16       |

```
      00 01 02 03 04 05 06 07  08 09 0A 0B 0C 0D 0E 0F
      -- -- -- -- -- -- -- --  -- -- -- -- -- -- -- --
0010:                                         32 05 80               2..
0020: 1F 00 06 80 07 80 03 80  1F 01 1F 00 08 80 09 80  ................
0030: 03 80 1F 01 1F 00 0A 80  0B 80 0C 80 1F 01 1F 00  ................
0040: 0D 80 0E 80 0F 80 1F 01  1F 00 01 80 02 80 03 80  ................
0050: 1F 01 02 4D 10 00 80 00  64 00 27 05 93 A0 0E 01  ...M....d.'.....
0060: 07 01 6D 00 37 00 80 00  80 00 80 00 80 00        ..m.7.........  
```

#### Opcodes

```
  0: 0x001D [0x32] ExtData[1]->MainSpeed = 57* * 0.1
  1: 0x0020 [0x1F] MOVE_ENTITY: EventEntity moves to X=26.860*, Z=-93.377*, Y=0.871*
  2: 0x0028 [0x1F] MOVE_ENTITY: Update entity position (mode=1)
  3: 0x002A [0x1F] MOVE_ENTITY: EventEntity moves to X=28.450*, Z=-88.722*, Y=0.871*
  4: 0x0032 [0x1F] MOVE_ENTITY: Update entity position (mode=1)
  5: 0x0034 [0x1F] MOVE_ENTITY: EventEntity moves to X=32.083*, Z=-88.414*, Y=0.869*
  6: 0x003C [0x1F] MOVE_ENTITY: Update entity position (mode=1)
  7: 0x003E [0x1F] MOVE_ENTITY: EventEntity moves to X=34.073*, Z=-90.968*, Y=0.847*
  8: 0x0046 [0x1F] MOVE_ENTITY: Update entity position (mode=1)
  9: 0x0048 [0x1F] MOVE_ENTITY: EventEntity moves to X=32.131*, Z=-94.679*, Y=0.871*
 10: 0x0050 [0x1F] MOVE_ENTITY: Update entity position (mode=1)
 11: 0x0052 [0x02] IF !(Work_Zone[77] == 0*) GOTO 0x0064
 12: 0x005A [0x27] REQ_SET(priority=0x05, entity_id=Unnamed NPC (ID: 17735827/0x010EA093), tag_num=0x07)
 13: 0x0061 [0x01] GOTO 0x006D
 14: 0x0064 [0x37] UPDATE_EVENT_POSITION_AND_DIR: x=0.000*, z=0.000*, y=0.000*, direction=0.0°*

SUBROUTINE_006D:
 15: 0x006D [0x00] END_REQSTACK()
```

### Event 65535.5

#### Metadata

| Field        | Value    |
|--------------|----------|
| Entrypoint   | 0x006E   |
| Data Size    | 81 bytes |
| Instructions | 16       |

```
      00 01 02 03 04 05 06 07  08 09 0A 0B 0C 0D 0E 0F
      -- -- -- -- -- -- -- --  -- -- -- -- -- -- -- --
0060:                                            32 05                2.
0070: 80 1F 00 06 80 07 80 03  80 1F 01 1F 00 08 80 09  ................
0080: 80 03 80 1F 01 1F 00 0A  80 0B 80 0C 80 1F 01 1F  ................
0090: 00 0D 80 0E 80 0F 80 1F  01 1F 00 01 80 02 80 03  ................
00A0: 80 1F 01 02 4D 10 00 80  00 B5 00 27 05 93 A0 0E  ....M......'....
00B0: 01 06 01 BE 00 37 00 80  00 80 00 80 00 80 00     .....7......... 
```

#### Opcodes

```
  0: 0x006E [0x32] ExtData[1]->MainSpeed = 57* * 0.1
  1: 0x0071 [0x1F] MOVE_ENTITY: EventEntity moves to X=26.860*, Z=-93.377*, Y=0.871*
  2: 0x0079 [0x1F] MOVE_ENTITY: Update entity position (mode=1)
  3: 0x007B [0x1F] MOVE_ENTITY: EventEntity moves to X=28.450*, Z=-88.722*, Y=0.871*
  4: 0x0083 [0x1F] MOVE_ENTITY: Update entity position (mode=1)
  5: 0x0085 [0x1F] MOVE_ENTITY: EventEntity moves to X=32.083*, Z=-88.414*, Y=0.869*
  6: 0x008D [0x1F] MOVE_ENTITY: Update entity position (mode=1)
  7: 0x008F [0x1F] MOVE_ENTITY: EventEntity moves to X=34.073*, Z=-90.968*, Y=0.847*
  8: 0x0097 [0x1F] MOVE_ENTITY: Update entity position (mode=1)
  9: 0x0099 [0x1F] MOVE_ENTITY: EventEntity moves to X=32.131*, Z=-94.679*, Y=0.871*
 10: 0x00A1 [0x1F] MOVE_ENTITY: Update entity position (mode=1)
 11: 0x00A3 [0x02] IF !(Work_Zone[77] == 0*) GOTO 0x00B5
 12: 0x00AB [0x27] REQ_SET(priority=0x05, entity_id=Unnamed NPC (ID: 17735827/0x010EA093), tag_num=0x06)
 13: 0x00B2 [0x01] GOTO 0x00BE
 14: 0x00B5 [0x37] UPDATE_EVENT_POSITION_AND_DIR: x=0.000*, z=0.000*, y=0.000*, direction=0.0°*

SUBROUTINE_00BE:
 15: 0x00BE [0x00] END_REQSTACK()
```

### Event 65535.6

#### Metadata

| Field        | Value    |
|--------------|----------|
| Entrypoint   | 0x00BF   |
| Data Size    | 10 bytes |
| Instructions | 2        |

```
      00 01 02 03 04 05 06 07  08 09 0A 0B 0C 0D 0E 0F
      -- -- -- -- -- -- -- --  -- -- -- -- -- -- -- --
00B0:                                               37                 7
00C0: 10 80 11 80 03 80 12 80  00                       .........       
```

#### Opcodes

```
  0: 0x00BF [0x37] UPDATE_EVENT_POSITION_AND_DIR: x=52.207*, z=-93.074*, y=0.871*, direction=182.9°*
  1: 0x00C8 [0x00] END_REQSTACK()
```

### Event 65535.7

#### Metadata

| Field        | Value    |
|--------------|----------|
| Entrypoint   | 0x00C9   |
| Data Size    | 14 bytes |
| Instructions | 4        |

```
      00 01 02 03 04 05 06 07  08 09 0A 0B 0C 0D 0E 0F
      -- -- -- -- -- -- -- --  -- -- -- -- -- -- -- --
00C0:                             32 05 80 1F 00 13 80           2......
00D0: 14 80 03 80 1F 01 00                              .......         
```

#### Opcodes

```
  0: 0x00C9 [0x32] ExtData[1]->MainSpeed = 57* * 0.1
  1: 0x00CC [0x1F] MOVE_ENTITY: EventEntity moves to X=50.931*, Z=-92.983*, Y=0.871*
  2: 0x00D4 [0x1F] MOVE_ENTITY: Update entity position (mode=1)
  3: 0x00D6 [0x00] END_REQSTACK()
```

### Event 65535.8

#### Metadata

| Field        | Value    |
|--------------|----------|
| Entrypoint   | 0x00D7   |
| Data Size    | 11 bytes |
| Instructions | 3        |

```
      00 01 02 03 04 05 06 07  08 09 0A 0B 0C 0D 0E 0F
      -- -- -- -- -- -- -- --  -- -- -- -- -- -- -- --
00D0:                      1F  00 15 80 16 80 03 80 1F         .........
00E0: 01 00                                             ..              
```

#### Opcodes

```
  0: 0x00D7 [0x1F] MOVE_ENTITY: EventEntity moves to X=50.576*, Z=-92.967*, Y=0.871*
  1: 0x00DF [0x1F] MOVE_ENTITY: Update entity position (mode=1)
  2: 0x00E1 [0x00] END_REQSTACK()
```

### Event 65535.9

#### Metadata

| Field        | Value    |
|--------------|----------|
| Entrypoint   | 0x00E2   |
| Data Size    | 11 bytes |
| Instructions | 3        |

```
      00 01 02 03 04 05 06 07  08 09 0A 0B 0C 0D 0E 0F
      -- -- -- -- -- -- -- --  -- -- -- -- -- -- -- --
00E0:       1F 00 17 80 18 80  03 80 1F 01 00             ...........   
```

#### Opcodes

```
  0: 0x00E2 [0x1F] MOVE_ENTITY: EventEntity moves to X=49.244*, Z=-92.907*, Y=0.871*
  1: 0x00EA [0x1F] MOVE_ENTITY: Update entity position (mode=1)
  2: 0x00EC [0x00] END_REQSTACK()
```

### Event 65535.10

#### Metadata

| Field        | Value    |
|--------------|----------|
| Entrypoint   | 0x00ED   |
| Data Size    | 11 bytes |
| Instructions | 3        |

```
      00 01 02 03 04 05 06 07  08 09 0A 0B 0C 0D 0E 0F
      -- -- -- -- -- -- -- --  -- -- -- -- -- -- -- --
00E0:                                         1F 00 19               ...
00F0: 80 1A 80 03 80 1F 01 00                           ........        
```

#### Opcodes

```
  0: 0x00ED [0x1F] MOVE_ENTITY: EventEntity moves to X=47.978*, Z=-92.815*, Y=0.871*
  1: 0x00F5 [0x1F] MOVE_ENTITY: Update entity position (mode=1)
  2: 0x00F7 [0x00] END_REQSTACK()
```

### Event 65535.11

#### Metadata

| Field        | Value    |
|--------------|----------|
| Entrypoint   | 0x00F8   |
| Data Size    | 14 bytes |
| Instructions | 4        |

```
      00 01 02 03 04 05 06 07  08 09 0A 0B 0C 0D 0E 0F
      -- -- -- -- -- -- -- --  -- -- -- -- -- -- -- --
00F0:                          32 05 80 1F 00 1B 80 1C          2.......
0100: 80 03 80 1F 01 00                                 ......          
```

#### Opcodes

```
  0: 0x00F8 [0x32] ExtData[1]->MainSpeed = 57* * 0.1
  1: 0x00FB [0x1F] MOVE_ENTITY: EventEntity moves to X=50.260*, Z=-88.211*, Y=0.871*
  2: 0x0103 [0x1F] MOVE_ENTITY: Update entity position (mode=1)
  3: 0x0105 [0x00] END_REQSTACK()
```

### Event 65535.12

#### Metadata

| Field        | Value   |
|--------------|---------|
| Entrypoint   | 0x0106  |
| Data Size    | 5 bytes |
| Instructions | 2       |

```
      00 01 02 03 04 05 06 07  08 09 0A 0B 0C 0D 0E 0F
      -- -- -- -- -- -- -- --  -- -- -- -- -- -- -- --
0100:                   B6 00  1D 80 00                       .....     
```

#### Opcodes

```
  0: 0x0106 [0xB6] ENTITY_APPEARANCE_HANDLER(case=Hair style, value=94*)
  1: 0x010A [0x00] END_REQSTACK()
```

### Event 65535.13

#### Metadata

| Field        | Value    |
|--------------|----------|
| Entrypoint   | 0x010B   |
| Data Size    | 15 bytes |
| Instructions | 3        |

```
      00 01 02 03 04 05 06 07  08 09 0A 0B 0C 0D 0E 0F
      -- -- -- -- -- -- -- --  -- -- -- -- -- -- -- --
0100:                                   37 1E 80 1F 80             7....
0110: 20 80 21 80 80 F8 FF FF  7F 00                     .!.......      
```

#### Opcodes

```
  0: 0x010B [0x37] UPDATE_EVENT_POSITION_AND_DIR: x=44.018*, z=-113.360*, y=1.374*, direction=339.2°*
  1: 0x0114 [0x80] LOAD_WAIT(entity=EventEntity)
  2: 0x0119 [0x00] END_REQSTACK()
```

### Event 65535.14

#### Metadata

| Field        | Value    |
|--------------|----------|
| Entrypoint   | 0x011A   |
| Data Size    | 15 bytes |
| Instructions | 3        |

```
      00 01 02 03 04 05 06 07  08 09 0A 0B 0C 0D 0E 0F
      -- -- -- -- -- -- -- --  -- -- -- -- -- -- -- --
0110:                                37 22 80 23 80 24            7".#.$
0120: 80 25 80 80 F8 FF FF 7F  00                       .%.......       
```

#### Opcodes

```
  0: 0x011A [0x37] UPDATE_EVENT_POSITION_AND_DIR: x=98.198*, z=-69.833*, y=0.996*, direction=359.0°*
  1: 0x0123 [0x80] LOAD_WAIT(entity=EventEntity)
  2: 0x0128 [0x00] END_REQSTACK()
```

### Event 545

#### Metadata

| Field        | Value   |
|--------------|---------|
| Entrypoint   | 0x0129  |
| Data Size    | 1 bytes |
| Instructions | 1       |

```
      00 01 02 03 04 05 06 07  08 09 0A 0B 0C 0D 0E 0F
      -- -- -- -- -- -- -- --  -- -- -- -- -- -- -- --
0120:                             00                             .      
```

#### Opcodes

```
  0: 0x0129 [0x00] END_REQSTACK()
```

### Event 65535.15

#### Metadata

| Field        | Value    |
|--------------|----------|
| Entrypoint   | 0x012A   |
| Data Size    | 15 bytes |
| Instructions | 3        |

```
      00 01 02 03 04 05 06 07  08 09 0A 0B 0C 0D 0E 0F
      -- -- -- -- -- -- -- --  -- -- -- -- -- -- -- --
0120:                                37 26 80 27 80 00            7&.'..
0130: 80 28 80 03 04 00 00 80  00                       .(.......       
```

#### Opcodes

```
  0: 0x012A [0x37] UPDATE_EVENT_POSITION_AND_DIR: x=-602.819*, z=601.447*, y=0.000*, direction=34.0°*
  1: 0x0133 [0x03] ExtData[1]->WorkLocal[4] = 0*
  2: 0x0138 [0x00] END_REQSTACK()
```

### Event 65535.16

#### Metadata

| Field        | Value    |
|--------------|----------|
| Entrypoint   | 0x0139   |
| Data Size    | 48 bytes |
| Instructions | 11       |

```
      00 01 02 03 04 05 06 07  08 09 0A 0B 0C 0D 0E 0F
      -- -- -- -- -- -- -- --  -- -- -- -- -- -- -- --
0130:                             02 04 00 29 80 01 68           ...)..h
0140: 01 32 2A 80 1F 00 2B 80  2C 80 2D 80 1F 01 1F 00  .2*...+.,.-.....
0150: 2E 80 2F 80 00 80 1F 01  1F 00 30 80 31 80 32 80  ../.......0.1.2.
0160: 1F 01 1C 33 80 01 39 01  00                       ...3..9..       
```

#### Opcodes

```
  0: 0x0139 [0x02] IF !(ExtData[1]->WorkLocal[4] == 2*) GOTO 0x0168
  1: 0x0141 [0x32] ExtData[1]->MainSpeed = 10* * 0.1
  2: 0x0144 [0x1F] MOVE_ENTITY: EventEntity moves to X=-604.741*, Z=603.338*, Y=0.035*
  3: 0x014C [0x1F] MOVE_ENTITY: Update entity position (mode=1)
  4: 0x014E [0x1F] MOVE_ENTITY: EventEntity moves to X=-601.147*, Z=602.770*, Y=0.000*
  5: 0x0156 [0x1F] MOVE_ENTITY: Update entity position (mode=1)
  6: 0x0158 [0x1F] MOVE_ENTITY: EventEntity moves to X=-598.147*, Z=604.645*, Y=0.031*
  7: 0x0160 [0x1F] MOVE_ENTITY: Update entity position (mode=1)
  8: 0x0162 [0x1C] WAIT(60* ticks)
  9: 0x0165 [0x01] GOTO 0x0139
 10: 0x0168 [0x00] END_REQSTACK()
```

### Event 65535.17

#### Metadata

| Field        | Value    |
|--------------|----------|
| Entrypoint   | 0x0169   |
| Data Size    | 48 bytes |
| Instructions | 11       |

```
      00 01 02 03 04 05 06 07  08 09 0A 0B 0C 0D 0E 0F
      -- -- -- -- -- -- -- --  -- -- -- -- -- -- -- --
0160:                             02 04 00 29 80 01 98           ...)...
0170: 01 32 34 80 1F 00 2B 80  2C 80 2D 80 1F 01 1F 00  .24...+.,.-.....
0180: 2E 80 2F 80 00 80 1F 01  1F 00 30 80 31 80 32 80  ../.......0.1.2.
0190: 1F 01 1C 33 80 01 69 01  00                       ...3..i..       
```

#### Opcodes

```
  0: 0x0169 [0x02] IF !(ExtData[1]->WorkLocal[4] == 2*) GOTO 0x0198
  1: 0x0171 [0x32] ExtData[1]->MainSpeed = 19* * 0.1
  2: 0x0174 [0x1F] MOVE_ENTITY: EventEntity moves to X=-604.741*, Z=603.338*, Y=0.035*
  3: 0x017C [0x1F] MOVE_ENTITY: Update entity position (mode=1)
  4: 0x017E [0x1F] MOVE_ENTITY: EventEntity moves to X=-601.147*, Z=602.770*, Y=0.000*
  5: 0x0186 [0x1F] MOVE_ENTITY: Update entity position (mode=1)
  6: 0x0188 [0x1F] MOVE_ENTITY: EventEntity moves to X=-598.147*, Z=604.645*, Y=0.031*
  7: 0x0190 [0x1F] MOVE_ENTITY: Update entity position (mode=1)
  8: 0x0192 [0x1C] WAIT(60* ticks)
  9: 0x0195 [0x01] GOTO 0x0169
 10: 0x0198 [0x00] END_REQSTACK()
```

### Event 65535.18

#### Metadata

| Field        | Value   |
|--------------|---------|
| Entrypoint   | 0x0199  |
| Data Size    | 6 bytes |
| Instructions | 2       |

```
      00 01 02 03 04 05 06 07  08 09 0A 0B 0C 0D 0E 0F
      -- -- -- -- -- -- -- --  -- -- -- -- -- -- -- --
0190:                             03 04 00 29 80 00              ...).. 
```

#### Opcodes

```
  0: 0x0199 [0x03] ExtData[1]->WorkLocal[4] = 2*
  1: 0x019E [0x00] END_REQSTACK()
```

### Event 65535.19

#### Metadata

| Field        | Value    |
|--------------|----------|
| Entrypoint   | 0x019F   |
| Data Size    | 15 bytes |
| Instructions | 3        |

```
      00 01 02 03 04 05 06 07  08 09 0A 0B 0C 0D 0E 0F
      -- -- -- -- -- -- -- --  -- -- -- -- -- -- -- --
0190:                                               37                 7
01A0: 35 80 36 80 37 80 38 80  80 F8 FF FF 7F 00        5.6.7.8.......  
```

#### Opcodes

```
  0: 0x019F [0x37] UPDATE_EVENT_POSITION_AND_DIR: x=-600.128*, z=585.578*, y=0.628*, direction=25.0°*
  1: 0x01A8 [0x80] LOAD_WAIT(entity=EventEntity)
  2: 0x01AD [0x00] END_REQSTACK()
```

### Event 65535.20

#### Metadata

| Field        | Value    |
|--------------|----------|
| Entrypoint   | 0x01AE   |
| Data Size    | 54 bytes |
| Instructions | 12       |

```
      00 01 02 03 04 05 06 07  08 09 0A 0B 0C 0D 0E 0F
      -- -- -- -- -- -- -- --  -- -- -- -- -- -- -- --
01A0:                                            32 2A                2*
01B0: 80 1F 00 39 80 3A 80 3B  80 1F 01 1F 00 3C 80 3D  ...9.:.;.....<.=
01C0: 80 3E 80 1F 01 1F 00 3F  80 40 80 41 80 1F 01 1F  .>.....?.@.A....
01D0: 00 42 80 43 80 44 80 1F  01 1F 00 35 80 36 80 37  .B.C.D.....5.6.7
01E0: 80 1F 01 00                                       ....            
```

#### Opcodes

```
  0: 0x01AE [0x32] ExtData[1]->MainSpeed = 10* * 0.1
  1: 0x01B1 [0x1F] MOVE_ENTITY: EventEntity moves to X=-601.910*, Z=587.743*, Y=0.274*
  2: 0x01B9 [0x1F] MOVE_ENTITY: Update entity position (mode=1)
  3: 0x01BB [0x1F] MOVE_ENTITY: EventEntity moves to X=-600.199*, Z=588.994*, Y=0.347*
  4: 0x01C3 [0x1F] MOVE_ENTITY: Update entity position (mode=1)
  5: 0x01C5 [0x1F] MOVE_ENTITY: EventEntity moves to X=-599.211*, Z=586.089*, Y=0.586*
  6: 0x01CD [0x1F] MOVE_ENTITY: Update entity position (mode=1)
  7: 0x01CF [0x1F] MOVE_ENTITY: EventEntity moves to X=-599.391*, Z=583.375*, Y=0.830*
  8: 0x01D7 [0x1F] MOVE_ENTITY: Update entity position (mode=1)
  9: 0x01D9 [0x1F] MOVE_ENTITY: EventEntity moves to X=-600.128*, Z=585.578*, Y=0.628*
 10: 0x01E1 [0x1F] MOVE_ENTITY: Update entity position (mode=1)
 11: 0x01E3 [0x00] END_REQSTACK()
```

### Event 65535.21

#### Metadata

| Field        | Value    |
|--------------|----------|
| Entrypoint   | 0x01E4   |
| Data Size    | 66 bytes |
| Instructions | 16       |

```
      00 01 02 03 04 05 06 07  08 09 0A 0B 0C 0D 0E 0F
      -- -- -- -- -- -- -- --  -- -- -- -- -- -- -- --
01E0:             32 34 80 1F  00 39 80 3A 80 3B 80 1F      24...9.:.;..
01F0: 01 1C 45 80 1F 00 3C 80  3D 80 3E 80 1F 01 1C 45  ..E...<.=.>....E
0200: 80 1F 00 3F 80 40 80 41  80 1F 01 1C 45 80 1F 00  ...?.@.A....E...
0210: 42 80 43 80 44 80 1F 01  1C 45 80 1F 00 35 80 36  B.C.D....E...5.6
0220: 80 37 80 1F 01 00                                 .7....          
```

#### Opcodes

```
  0: 0x01E4 [0x32] ExtData[1]->MainSpeed = 19* * 0.1
  1: 0x01E7 [0x1F] MOVE_ENTITY: EventEntity moves to X=-601.910*, Z=587.743*, Y=0.274*
  2: 0x01EF [0x1F] MOVE_ENTITY: Update entity position (mode=1)
  3: 0x01F1 [0x1C] WAIT(30* ticks)
  4: 0x01F4 [0x1F] MOVE_ENTITY: EventEntity moves to X=-600.199*, Z=588.994*, Y=0.347*
  5: 0x01FC [0x1F] MOVE_ENTITY: Update entity position (mode=1)
  6: 0x01FE [0x1C] WAIT(30* ticks)
  7: 0x0201 [0x1F] MOVE_ENTITY: EventEntity moves to X=-599.211*, Z=586.089*, Y=0.586*
  8: 0x0209 [0x1F] MOVE_ENTITY: Update entity position (mode=1)
  9: 0x020B [0x1C] WAIT(30* ticks)
 10: 0x020E [0x1F] MOVE_ENTITY: EventEntity moves to X=-599.391*, Z=583.375*, Y=0.830*
 11: 0x0216 [0x1F] MOVE_ENTITY: Update entity position (mode=1)
 12: 0x0218 [0x1C] WAIT(30* ticks)
 13: 0x021B [0x1F] MOVE_ENTITY: EventEntity moves to X=-600.128*, Z=585.578*, Y=0.628*
 14: 0x0223 [0x1F] MOVE_ENTITY: Update entity position (mode=1)
 15: 0x0225 [0x00] END_REQSTACK()
```

### Event 65535.22

#### Metadata

| Field        | Value    |
|--------------|----------|
| Entrypoint   | 0x0226   |
| Data Size    | 15 bytes |
| Instructions | 3        |

```
      00 01 02 03 04 05 06 07  08 09 0A 0B 0C 0D 0E 0F
      -- -- -- -- -- -- -- --  -- -- -- -- -- -- -- --
0220:                   37 46  80 47 80 48 80 49 80 80        7F.G.H.I..
0230: F8 FF FF 7F 00                                    .....           
```

#### Opcodes

```
  0: 0x0226 [0x37] UPDATE_EVENT_POSITION_AND_DIR: x=-601.165*, z=586.560*, y=0.464*, direction=22.6°*
  1: 0x022F [0x80] LOAD_WAIT(entity=EventEntity)
  2: 0x0234 [0x00] END_REQSTACK()
```

### Event 65535.23

#### Metadata

| Field        | Value    |
|--------------|----------|
| Entrypoint   | 0x0235   |
| Data Size    | 73 bytes |
| Instructions | 17       |

```
      00 01 02 03 04 05 06 07  08 09 0A 0B 0C 0D 0E 0F
      -- -- -- -- -- -- -- --  -- -- -- -- -- -- -- --
0230:                32 34 80  1F 00 39 80 3A 80 3B 80       24...9.:.;.
0240: 1F 01 1F 00 3C 80 3D 80  3E 80 1F 01 1F 00 3F 80  ....<.=.>.....?.
0250: 40 80 41 80 1F 01 1F 00  42 80 43 80 44 80 1F 01  @.A.....B.C.D...
0260: 1C 45 80 1E 91 A0 0E 01  1C 4A 80 1F 00 4B 80 4C  .E.......J...K.L
0270: 80 4D 80 1F 01 1C 45 80  1E 91 A0 0E 01 00        .M....E.......  
```

#### Opcodes

```
  0: 0x0235 [0x32] ExtData[1]->MainSpeed = 19* * 0.1
  1: 0x0238 [0x1F] MOVE_ENTITY: EventEntity moves to X=-601.910*, Z=587.743*, Y=0.274*
  2: 0x0240 [0x1F] MOVE_ENTITY: Update entity position (mode=1)
  3: 0x0242 [0x1F] MOVE_ENTITY: EventEntity moves to X=-600.199*, Z=588.994*, Y=0.347*
  4: 0x024A [0x1F] MOVE_ENTITY: Update entity position (mode=1)
  5: 0x024C [0x1F] MOVE_ENTITY: EventEntity moves to X=-599.211*, Z=586.089*, Y=0.586*
  6: 0x0254 [0x1F] MOVE_ENTITY: Update entity position (mode=1)
  7: 0x0256 [0x1F] MOVE_ENTITY: EventEntity moves to X=-599.391*, Z=583.375*, Y=0.830*
  8: 0x025E [0x1F] MOVE_ENTITY: Update entity position (mode=1)
  9: 0x0260 [0x1C] WAIT(30* ticks)
 10: 0x0263 [0x1E] EventEntity looks at Unnamed NPC (ID: 17735825/0x010EA091) and starts talking
 11: 0x0268 [0x1C] WAIT(120* ticks)
 12: 0x026B [0x1F] MOVE_ENTITY: EventEntity moves to X=-602.007*, Z=587.764*, Y=0.268*
 13: 0x0273 [0x1F] MOVE_ENTITY: Update entity position (mode=1)
 14: 0x0275 [0x1C] WAIT(30* ticks)
 15: 0x0278 [0x1E] EventEntity looks at Unnamed NPC (ID: 17735825/0x010EA091) and starts talking
 16: 0x027D [0x00] END_REQSTACK()
```

### Event 65535.24

#### Metadata

| Field        | Value    |
|--------------|----------|
| Entrypoint   | 0x027E   |
| Data Size    | 50 bytes |
| Instructions | 12       |

```
      00 01 02 03 04 05 06 07  08 09 0A 0B 0C 0D 0E 0F
      -- -- -- -- -- -- -- --  -- -- -- -- -- -- -- --
0270:                                            32 2A                2*
0280: 80 1F 00 4E 80 4F 80 50  80 1F 01 1C 33 80 1F 00  ...N.O.P....3...
0290: 51 80 52 80 53 80 1F 01  1C 33 80 1F 00 35 80 36  Q.R.S....3...5.6
02A0: 80 37 80 1F 01 4B 93 A0  0E 01 54 80 1C 33 80 00  .7...K....T..3..
```

#### Opcodes

```
  0: 0x027E [0x32] ExtData[1]->MainSpeed = 10* * 0.1
  1: 0x0281 [0x1F] MOVE_ENTITY: EventEntity moves to X=-600.221*, Z=588.558*, Y=0.369*
  2: 0x0289 [0x1F] MOVE_ENTITY: Update entity position (mode=1)
  3: 0x028B [0x1C] WAIT(60* ticks)
  4: 0x028E [0x1F] MOVE_ENTITY: EventEntity moves to X=-602.144*, Z=586.825*, Y=0.376*
  5: 0x0296 [0x1F] MOVE_ENTITY: Update entity position (mode=1)
  6: 0x0298 [0x1C] WAIT(60* ticks)
  7: 0x029B [0x1F] MOVE_ENTITY: EventEntity moves to X=-600.128*, Z=585.578*, Y=0.628*
  8: 0x02A3 [0x1F] MOVE_ENTITY: Update entity position (mode=1)
  9: 0x02A5 [0x4B] UPDATE_ENTITY_YAW(entity=Unnamed NPC (ID: 17735827/0x010EA093), yaw=11.8°*)
 10: 0x02AC [0x1C] WAIT(60* ticks)
 11: 0x02AF [0x00] END_REQSTACK()
```

### Event 65535.25

#### Metadata

| Field        | Value    |
|--------------|----------|
| Entrypoint   | 0x02B0   |
| Data Size    | 50 bytes |
| Instructions | 12       |

```
      00 01 02 03 04 05 06 07  08 09 0A 0B 0C 0D 0E 0F
      -- -- -- -- -- -- -- --  -- -- -- -- -- -- -- --
02B0: 32 34 80 1F 00 55 80 56  80 57 80 1F 01 1C 33 80  24...U.V.W....3.
02C0: 1F 00 51 80 52 80 53 80  1F 01 1C 33 80 1F 00 35  ..Q.R.S....3...5
02D0: 80 36 80 37 80 1F 01 4B  93 A0 0E 01 54 80 1C 33  .6.7...K....T..3
02E0: 80 00                                             ..              
```

#### Opcodes

```
  0: 0x02B0 [0x32] ExtData[1]->MainSpeed = 19* * 0.1
  1: 0x02B3 [0x1F] MOVE_ENTITY: EventEntity moves to X=-599.892*, Z=588.477*, Y=0.373*
  2: 0x02BB [0x1F] MOVE_ENTITY: Update entity position (mode=1)
  3: 0x02BD [0x1C] WAIT(60* ticks)
  4: 0x02C0 [0x1F] MOVE_ENTITY: EventEntity moves to X=-602.144*, Z=586.825*, Y=0.376*
  5: 0x02C8 [0x1F] MOVE_ENTITY: Update entity position (mode=1)
  6: 0x02CA [0x1C] WAIT(60* ticks)
  7: 0x02CD [0x1F] MOVE_ENTITY: EventEntity moves to X=-600.128*, Z=585.578*, Y=0.628*
  8: 0x02D5 [0x1F] MOVE_ENTITY: Update entity position (mode=1)
  9: 0x02D7 [0x4B] UPDATE_ENTITY_YAW(entity=Unnamed NPC (ID: 17735827/0x010EA093), yaw=11.8°*)
 10: 0x02DE [0x1C] WAIT(60* ticks)
 11: 0x02E1 [0x00] END_REQSTACK()
```

### Event 65535.26

#### Metadata

| Field        | Value    |
|--------------|----------|
| Entrypoint   | 0x02E2   |
| Data Size    | 67 bytes |
| Instructions | 15       |

```
      00 01 02 03 04 05 06 07  08 09 0A 0B 0C 0D 0E 0F
      -- -- -- -- -- -- -- --  -- -- -- -- -- -- -- --
02E0:       32 05 80 1F 00 58  80 59 80 5A 80 1F 01 4B    2....X.Y.Z...K
02F0: 93 A0 0E 01 5B 80 1C 33  80 1F 00 5C 80 5D 80 5E  ....[..3...\.].^
0300: 80 1F 01 4B 93 A0 0E 01  5F 80 1C 60 80 1F 00 61  ...K...._..`...a
0310: 80 62 80 63 80 1F 01 1C  45 80 4B 93 A0 0E 01 64  .b.c....E.K....d
0320: 80 1C 33 80 00                                    ..3..           
```

#### Opcodes

```
  0: 0x02E2 [0x32] ExtData[1]->MainSpeed = 57* * 0.1
  1: 0x02E5 [0x1F] MOVE_ENTITY: EventEntity moves to X=-599.295*, Z=590.678*, Y=0.264*
  2: 0x02ED [0x1F] MOVE_ENTITY: Update entity position (mode=1)
  3: 0x02EF [0x4B] UPDATE_ENTITY_YAW(entity=Unnamed NPC (ID: 17735827/0x010EA093), yaw=5.3°*)
  4: 0x02F6 [0x1C] WAIT(60* ticks)
  5: 0x02F9 [0x1F] MOVE_ENTITY: EventEntity moves to X=-604.353*, Z=586.292*, Y=0.138*
  6: 0x0301 [0x1F] MOVE_ENTITY: Update entity position (mode=1)
  7: 0x0303 [0x4B] UPDATE_ENTITY_YAW(entity=Unnamed NPC (ID: 17735827/0x010EA093), yaw=0.2°*)
  8: 0x030A [0x1C] WAIT(240* ticks)
  9: 0x030D [0x1F] MOVE_ENTITY: EventEntity moves to X=-600.328*, Z=582.410*, Y=0.802*
 10: 0x0315 [0x1F] MOVE_ENTITY: Update entity position (mode=1)
 11: 0x0317 [0x1C] WAIT(30* ticks)
 12: 0x031A [0x4B] UPDATE_ENTITY_YAW(entity=Unnamed NPC (ID: 17735827/0x010EA093), yaw=16.6°*)
 13: 0x0321 [0x1C] WAIT(60* ticks)
 14: 0x0324 [0x00] END_REQSTACK()
```

### Event 65535.27

#### Metadata

| Field        | Value    |
|--------------|----------|
| Entrypoint   | 0x0325   |
| Data Size    | 14 bytes |
| Instructions | 4        |

```
      00 01 02 03 04 05 06 07  08 09 0A 0B 0C 0D 0E 0F
      -- -- -- -- -- -- -- --  -- -- -- -- -- -- -- --
0320:                32 2A 80  1F 00 65 80 66 80 67 80       2*...e.f.g.
0330: 1F 01 00                                          ...             
```

#### Opcodes

```
  0: 0x0325 [0x32] ExtData[1]->MainSpeed = 10* * 0.1
  1: 0x0328 [0x1F] MOVE_ENTITY: EventEntity moves to X=-599.148*, Z=589.043*, Y=0.345*
  2: 0x0330 [0x1F] MOVE_ENTITY: Update entity position (mode=1)
  3: 0x0332 [0x00] END_REQSTACK()
```

### Event 65535.28

#### Metadata

| Field        | Value    |
|--------------|----------|
| Entrypoint   | 0x0333   |
| Data Size    | 51 bytes |
| Instructions | 11       |

```
      00 01 02 03 04 05 06 07  08 09 0A 0B 0C 0D 0E 0F
      -- -- -- -- -- -- -- --  -- -- -- -- -- -- -- --
0330:          32 2A 80 1F 00  68 80 69 80 05 80 1F 01     2*...h.i.....
0340: 1F 00 6A 80 6B 80 6C 80  1F 01 1F 00 6D 80 6E 80  ..j.k.l.....m.n.
0350: 6F 80 1F 01 1E 91 A0 0E  01 1C 45 80 4A 91 A0 0E  o.........E.J...
0360: 01 92 A0 0E 01 00                                 ......          
```

#### Opcodes

```
  0: 0x0333 [0x32] ExtData[1]->MainSpeed = 10* * 0.1
  1: 0x0336 [0x1F] MOVE_ENTITY: EventEntity moves to X=-604.257*, Z=586.573*, Y=0.057*
  2: 0x033E [0x1F] MOVE_ENTITY: Update entity position (mode=1)
  3: 0x0340 [0x1F] MOVE_ENTITY: EventEntity moves to X=-603.318*, Z=588.527*, Y=0.196*
  4: 0x0348 [0x1F] MOVE_ENTITY: Update entity position (mode=1)
  5: 0x034A [0x1F] MOVE_ENTITY: EventEntity moves to X=-601.495*, Z=586.040*, Y=0.496*
  6: 0x0352 [0x1F] MOVE_ENTITY: Update entity position (mode=1)
  7: 0x0354 [0x1E] EventEntity looks at Unnamed NPC (ID: 17735825/0x010EA091) and starts talking
  8: 0x0359 [0x1C] WAIT(30* ticks)
  9: 0x035C [0x4A] Unnamed NPC (ID: 17735825/0x010EA091) looks at Unnamed NPC (ID: 17735826/0x010EA092)
 10: 0x0365 [0x00] END_REQSTACK()
```

### Event 65535.29

#### Metadata

| Field        | Value    |
|--------------|----------|
| Entrypoint   | 0x0366   |
| Data Size    | 14 bytes |
| Instructions | 4        |

```
      00 01 02 03 04 05 06 07  08 09 0A 0B 0C 0D 0E 0F
      -- -- -- -- -- -- -- --  -- -- -- -- -- -- -- --
0360:                   32 05  80 1F 00 65 80 66 80 67        2....e.f.g
0370: 80 1F 01 00                                       ....            
```

#### Opcodes

```
  0: 0x0366 [0x32] ExtData[1]->MainSpeed = 57* * 0.1
  1: 0x0369 [0x1F] MOVE_ENTITY: EventEntity moves to X=-599.148*, Z=589.043*, Y=0.345*
  2: 0x0371 [0x1F] MOVE_ENTITY: Update entity position (mode=1)
  3: 0x0373 [0x00] END_REQSTACK()
```

### Event 65535.30

#### Metadata

| Field        | Value    |
|--------------|----------|
| Entrypoint   | 0x0374   |
| Data Size    | 51 bytes |
| Instructions | 11       |

```
      00 01 02 03 04 05 06 07  08 09 0A 0B 0C 0D 0E 0F
      -- -- -- -- -- -- -- --  -- -- -- -- -- -- -- --
0370:             32 05 80 1F  00 68 80 69 80 05 80 1F      2....h.i....
0380: 01 1F 00 6A 80 6B 80 6C  80 1F 01 1F 00 6D 80 6E  ...j.k.l.....m.n
0390: 80 6F 80 1F 01 1E 91 A0  0E 01 1C 45 80 4A 91 A0  .o.........E.J..
03A0: 0E 01 93 A0 0E 01 00                              .......         
```

#### Opcodes

```
  0: 0x0374 [0x32] ExtData[1]->MainSpeed = 57* * 0.1
  1: 0x0377 [0x1F] MOVE_ENTITY: EventEntity moves to X=-604.257*, Z=586.573*, Y=0.057*
  2: 0x037F [0x1F] MOVE_ENTITY: Update entity position (mode=1)
  3: 0x0381 [0x1F] MOVE_ENTITY: EventEntity moves to X=-603.318*, Z=588.527*, Y=0.196*
  4: 0x0389 [0x1F] MOVE_ENTITY: Update entity position (mode=1)
  5: 0x038B [0x1F] MOVE_ENTITY: EventEntity moves to X=-601.495*, Z=586.040*, Y=0.496*
  6: 0x0393 [0x1F] MOVE_ENTITY: Update entity position (mode=1)
  7: 0x0395 [0x1E] EventEntity looks at Unnamed NPC (ID: 17735825/0x010EA091) and starts talking
  8: 0x039A [0x1C] WAIT(30* ticks)
  9: 0x039D [0x4A] Unnamed NPC (ID: 17735825/0x010EA091) looks at Unnamed NPC (ID: 17735827/0x010EA093)
 10: 0x03A6 [0x00] END_REQSTACK()
```

### Event 65535.31

#### Metadata

| Field        | Value    |
|--------------|----------|
| Entrypoint   | 0x03A7   |
| Data Size    | 59 bytes |
| Instructions | 13       |

```
      00 01 02 03 04 05 06 07  08 09 0A 0B 0C 0D 0E 0F
      -- -- -- -- -- -- -- --  -- -- -- -- -- -- -- --
03A0:                      32  2A 80 1F 00 70 80 71 80         2*...p.q.
03B0: 72 80 1F 01 1F 00 73 80  74 80 75 80 1F 01 1F 00  r.....s.t.u.....
03C0: 76 80 77 80 78 80 1F 01  1F 00 79 80 7A 80 7B 80  v.w.x.....y.z.{.
03D0: 1F 01 1F 00 7C 80 7D 80  7E 80 1F 01 1E 91 A0 0E  ....|.}.~.......
03E0: 01 00                                             ..              
```

#### Opcodes

```
  0: 0x03A7 [0x32] ExtData[1]->MainSpeed = 10* * 0.1
  1: 0x03AA [0x1F] MOVE_ENTITY: EventEntity moves to X=-601.361*, Z=584.507*, Y=0.542*
  2: 0x03B2 [0x1F] MOVE_ENTITY: Update entity position (mode=1)
  3: 0x03B4 [0x1F] MOVE_ENTITY: EventEntity moves to X=-600.414*, Z=583.859*, Y=0.704*
  4: 0x03BC [0x1F] MOVE_ENTITY: Update entity position (mode=1)
  5: 0x03BE [0x1F] MOVE_ENTITY: EventEntity moves to X=-599.376*, Z=585.276*, Y=0.668*
  6: 0x03C6 [0x1F] MOVE_ENTITY: Update entity position (mode=1)
  7: 0x03C8 [0x1F] MOVE_ENTITY: EventEntity moves to X=-598.992*, Z=587.260*, Y=0.468*
  8: 0x03D0 [0x1F] MOVE_ENTITY: Update entity position (mode=1)
  9: 0x03D2 [0x1F] MOVE_ENTITY: EventEntity moves to X=-599.942*, Z=587.474*, Y=0.447*
 10: 0x03DA [0x1F] MOVE_ENTITY: Update entity position (mode=1)
 11: 0x03DC [0x1E] EventEntity looks at Unnamed NPC (ID: 17735825/0x010EA091) and starts talking
 12: 0x03E1 [0x00] END_REQSTACK()
```

### Event 65535.32

#### Metadata

| Field        | Value    |
|--------------|----------|
| Entrypoint   | 0x03E2   |
| Data Size    | 69 bytes |
| Instructions | 15       |

```
      00 01 02 03 04 05 06 07  08 09 0A 0B 0C 0D 0E 0F
      -- -- -- -- -- -- -- --  -- -- -- -- -- -- -- --
03E0:       32 05 80 1F 00 7F  80 80 80 81 80 1F 01 1F    2.............
03F0: 00 82 80 83 80 84 80 1F  01 1F 00 85 80 86 80 87  ................
0400: 80 1F 01 1F 00 88 80 89  80 8A 80 1F 01 1F 00 8B  ................
0410: 80 8C 80 8D 80 1F 01 1F  00 8E 80 8F 80 90 80 1F  ................
0420: 01 1E 91 A0 0E 01 00                              .......         
```

#### Opcodes

```
  0: 0x03E2 [0x32] ExtData[1]->MainSpeed = 57* * 0.1
  1: 0x03E5 [0x1F] MOVE_ENTITY: EventEntity moves to X=-602.454*, Z=588.333*, Y=0.247*
  2: 0x03ED [0x1F] MOVE_ENTITY: Update entity position (mode=1)
  3: 0x03EF [0x1F] MOVE_ENTITY: EventEntity moves to X=-603.634*, Z=585.657*, Y=0.144*
  4: 0x03F7 [0x1F] MOVE_ENTITY: Update entity position (mode=1)
  5: 0x03F9 [0x1F] MOVE_ENTITY: EventEntity moves to X=-602.421*, Z=582.680*, Y=0.396*
  6: 0x0401 [0x1F] MOVE_ENTITY: Update entity position (mode=1)
  7: 0x0403 [0x1F] MOVE_ENTITY: EventEntity moves to X=-599.175*, Z=582.899*, Y=0.854*
  8: 0x040B [0x1F] MOVE_ENTITY: Update entity position (mode=1)
  9: 0x040D [0x1F] MOVE_ENTITY: EventEntity moves to X=-598.432*, Z=587.737*, Y=0.410*
 10: 0x0415 [0x1F] MOVE_ENTITY: Update entity position (mode=1)
 11: 0x0417 [0x1F] MOVE_ENTITY: EventEntity moves to X=-599.890*, Z=589.432*, Y=0.326*
 12: 0x041F [0x1F] MOVE_ENTITY: Update entity position (mode=1)
 13: 0x0421 [0x1E] EventEntity looks at Unnamed NPC (ID: 17735825/0x010EA091) and starts talking
 14: 0x0426 [0x00] END_REQSTACK()
```

### Event 65535.33

#### Metadata

| Field        | Value    |
|--------------|----------|
| Entrypoint   | 0x0427   |
| Data Size    | 15 bytes |
| Instructions | 3        |

```
      00 01 02 03 04 05 06 07  08 09 0A 0B 0C 0D 0E 0F
      -- -- -- -- -- -- -- --  -- -- -- -- -- -- -- --
0420:                      37  4B 80 4C 80 4D 80 38 80         7K.L.M.8.
0430: 80 F8 FF FF 7F 00                                 ......          
```

#### Opcodes

```
  0: 0x0427 [0x37] UPDATE_EVENT_POSITION_AND_DIR: x=-602.007*, z=587.764*, y=0.268*, direction=25.0°*
  1: 0x0430 [0x80] LOAD_WAIT(entity=EventEntity)
  2: 0x0435 [0x00] END_REQSTACK()
```
