# 17735735 - Pavvke

## Common Data

| Field            | Value                  |
|------------------|------------------------|
| Zone             | Bastok Mines (ID: 234) |
| Block Size       | 2296 bytes             |
| Total Events     | 38                     |
| References Count | 60                     |

## List of Events

| Event ID                   | Entrypoint   |   Size |   Instructions |
|----------------------------|--------------|--------|----------------|
| [65535](#event-65535)      | 0x0000       |      1 |              1 |
| [75](#event-75)            | 0x0001       |     34 |             10 |
| [76](#event-76)            | 0x0023       |     42 |             11 |
| [90](#event-90)            | 0x004D       |    601 |             88 |
| [91](#event-91)            | 0x02A6       |    586 |             74 |
| [92](#event-92)            | 0x04F0       |    128 |             19 |
| [48](#event-48)            | 0x0570       |     35 |              9 |
| [176](#event-176)          | 0x0593       |     15 |              3 |
| [65535.1](#event-655351)   | 0x05A2       |     16 |              2 |
| [65535.2](#event-655352)   | 0x05B2       |     22 |              4 |
| [65535.3](#event-655353)   | 0x05C8       |     16 |              2 |
| [65535.4](#event-655354)   | 0x05D8       |     14 |              2 |
| [65535.5](#event-655355)   | 0x05E6       |     16 |              2 |
| [65535.6](#event-655356)   | 0x05F6       |     14 |              2 |
| [65535.7](#event-655357)   | 0x0604       |     16 |              2 |
| [65535.8](#event-655358)   | 0x0614       |     14 |              2 |
| [65535.9](#event-655359)   | 0x0622       |     16 |              2 |
| [65535.10](#event-6553510) | 0x0632       |     14 |              2 |
| [65535.11](#event-6553511) | 0x0640       |     16 |              2 |
| [65535.12](#event-6553512) | 0x0650       |     22 |              4 |
| [65535.13](#event-6553513) | 0x0666       |     16 |              2 |
| [65535.14](#event-6553514) | 0x0676       |     14 |              2 |
| [65535.15](#event-6553515) | 0x0684       |     16 |              2 |
| [65535.16](#event-6553516) | 0x0694       |     14 |              2 |
| [65535.17](#event-6553517) | 0x06A2       |     16 |              2 |
| [65535.18](#event-6553518) | 0x06B2       |     14 |              2 |
| [65535.19](#event-6553519) | 0x06C0       |     16 |              2 |
| [65535.20](#event-6553520) | 0x06D0       |     14 |              2 |
| [65535.21](#event-6553521) | 0x06DE       |      9 |              3 |
| [65535.22](#event-6553522) | 0x06E7       |     16 |              2 |
| [65535.23](#event-6553523) | 0x06F7       |     14 |              2 |
| [65535.24](#event-6553524) | 0x0705       |     16 |              2 |
| [65535.25](#event-6553525) | 0x0715       |     14 |              2 |
| [65535.26](#event-6553526) | 0x0723       |     16 |              2 |
| [65535.27](#event-6553527) | 0x0733       |     14 |              2 |
| [65535.28](#event-6553528) | 0x0741       |     16 |              2 |
| [65535.29](#event-6553529) | 0x0751       |     14 |              2 |
| [238](#event-238)          | 0x075F       |      1 |              1 |

## DAT References (imed_data)

|   Index | Hex Value   |   Dec Value |
|---------|-------------|-------------|
|       0 | 0x29F1      |       10737 |
|       1 | 0x0037      |          55 |
|       2 | 0x29F2      |       10738 |
|       3 | 0x29F3      |       10739 |
|       4 | 0x29F4      |       10740 |
|       5 | 0x29F5      |       10741 |
|       6 | 0x0001      |           1 |
|       7 | 0x2D81      |       11649 |
|       8 | 0x333C      |       13116 |
|       9 | 0x010D      |         269 |
|      10 | 0x00C8      |         200 |
|      11 | 0x0000      |           0 |
|      12 | 0x0003      |           3 |
|      13 | 0x0086      |         134 |
|      14 | 0x2A01      |       10753 |
|      15 | 0x2A02      |       10754 |
|      16 | 0x2A03      |       10755 |
|      17 | 0x0091      |         145 |
|      18 | 0x2A04      |       10756 |
|      19 | 0x2A05      |       10757 |
|      20 | 0x2A06      |       10758 |
|      21 | 0x0093      |         147 |
|      22 | 0x2A07      |       10759 |
|      23 | 0x2A08      |       10760 |
|      24 | 0x2A09      |       10761 |
|      25 | 0x2A0A      |       10762 |
|      26 | 0x2A0B      |       10763 |
|      27 | 0x2A0C      |       10764 |
|      28 | 0x2A0D      |       10765 |
|      29 | 0x2A0E      |       10766 |
|      30 | 0x000A      |          10 |
|      31 | 0x001E      |          30 |
|      32 | 0x0092      |         146 |
|      33 | 0x2A0F      |       10767 |
|      34 | 0x0014      |          20 |
|      35 | 0x2A10      |       10768 |
|      36 | 0x003C      |          60 |
|      37 | 0x2A11      |       10769 |
|      38 | 0x2A12      |       10770 |
|      39 | 0x2A13      |       10771 |
|      40 | 0x009F      |         159 |
|      41 | 0x0168      |         360 |
|      42 | 0x2A14      |       10772 |
|      43 | 0x0094      |         148 |
|      44 | 0x2A15      |       10773 |
|      45 | 0x2A16      |       10774 |
|      46 | 0x2A17      |       10775 |
|      47 | 0x2A18      |       10776 |
|      48 | 0x2A19      |       10777 |
|      49 | 0x0098      |         152 |
|      50 | 0x00C9      |         201 |
|      51 | 0x0002      |           2 |
|      52 | 0x29AF      |       10671 |
|      53 | 0x29B0      |       10672 |
|      54 | 0xFFFD9CFA  |  4294810874 |
|      55 | 0xFFFF7FBF  |  4294934463 |
|      56 | 0x0905      |        2309 |
|      57 | 0x003D      |          61 |
|      58 | 0x0041      |          65 |
|      59 | 0x0045      |          69 |

## String References

- **10671**: The pioneers? Well, yes, I worked in the mines until fifteen years ago, but you're talking about things that happened more than a hundred and fifty years back!
- **10672**: I may be old, but I'm not that old. Go talk to Babenn. Now that Werei's gone, he's the only Galka left who was around back then.
- **10737**: Twenty years ago, there was a war between us and the beastmen. Captain Volker of the Mythril Musketeers and Chief Engineer Cid became heroes in that war...
- **10738**: But that is Hume history. Few but us know that we lost our best swordsman, the dark knight Zeid, during that conflict. He still hasn't been found, either alive or dead.
- **10739**: Of course, to Humes, it's just a historical detail, soon forgotten.
- **10740**: The loss of Talekeeper Raogrimm thirty years ago, and the more recent loss of Zeid, have struck us hard in this time of need.
- **10741**: We Galka are inherently united by the presence of our Talekeeper. With him absent, we are like a shipwrecked crew, lost and drifting in the dark...
- **10753**: I thought I told you I don't want any help, I-- Oh, I'm sorry. I thought you were someone else. She won't stop pestering me...
- **10755**: I knew you'd be back... I might be old, but I'm not dying yet.
- **10758**: That's very kind of you, but it's been over fifteen years since the accident... I have to face the fact that my friends, and their belongings, are gone forever.
- **10760**: ...
- **10762**: I used to work in the Palborough Mines with many other Galka. Twenty years ago, an explosive went off before we'd cleared the tunnels, and suddenly we were surrounded by Quadav.
- **10763**: Many Galka died that day... I am looking for their $7. The fallen need to be remembered.
- **10766**: No, Cornelia, you shouldn't. I couldn't ask that of you. I will pay the reward myself.
- **10768**: <Sigh> It's not that I don't appreciate it, but she shouldn't involve herself in other people's business like this...
- **10769**: Y-you've found $7! In the Palborough Mines, yes?
- **10770**: Thank you! You don't know what this means to me.
- **10771**: There should be others where you found this one. If you find them, please bring them to me. I'm sorry I can't give you much, but here's your reward.
- **11649**: I guess we can no longer live by those words anymore...but I never thought that it would be Gumbah who would teach us that.

## Events

### Event 65535

#### Metadata

| Field        | Value   |
|--------------|---------|
| Entrypoint   | 0x0000  |
| Data Size    | 1 bytes |
| Instructions | 1       |

```
      00 01 02 03 04 05 06 07  08 09 0A 0B 0C 0D 0E 0F
      -- -- -- -- -- -- -- --  -- -- -- -- -- -- -- --
0000: 00                                                .               
```

#### Opcodes

```
  0: 0x0000 [0x00] END_REQSTACK()
```

### Event 75

#### Metadata

| Field        | Value    |
|--------------|----------|
| Entrypoint   | 0x0001   |
| Data Size    | 34 bytes |
| Instructions | 10       |

```
      00 01 02 03 04 05 06 07  08 09 0A 0B 0C 0D 0E 0F
      -- -- -- -- -- -- -- --  -- -- -- -- -- -- -- --
0000:    1E F0 FF FF 7F 1D 00  80 23 5B 01 80 F8 FF FF   ........#[.....
0010: 7F F8 FF FF 7F 74 6C 6B  30 1D 02 80 23 1D 03 80  .....tlk0...#...
0020: 23 21 00                                          #!.             
```

#### Opcodes

```
  0: 0x0001 [0x1E] EventEntity looks at LocalPlayer and starts talking
  1: 0x0006 [0x1D] PRINT_EVENT_MESSAGE(message_id=10737*)
    → "Twenty years ago, there was a war between us and the beastmen. Captain Volker of the Mythril Musketeers and Chief Engineer Cid became heroes in that war..."
  2: 0x0009 [0x23] WAIT_FOR_DIALOG_INTERACTION
  3: 0x000A [0x5B] LOAD_EXT_SCHEDULER: Load scheduler "tlk0" with entities [EventEntity, EventEntity], work=55*
  4: 0x0019 [0x1D] PRINT_EVENT_MESSAGE(message_id=10738*)
    → "But that is Hume history. Few but us know that we lost our best swordsman, the dark knight Zeid, during that conflict. He still hasn't been found, either alive or dead."
  5: 0x001C [0x23] WAIT_FOR_DIALOG_INTERACTION
  6: 0x001D [0x1D] PRINT_EVENT_MESSAGE(message_id=10739*)
    → "Of course, to Humes, it's just a historical detail, soon forgotten."
  7: 0x0020 [0x23] WAIT_FOR_DIALOG_INTERACTION
  8: 0x0021 [0x21] END_EVENT
  9: 0x0022 [0x00] END_REQSTACK()
```

### Event 76

#### Metadata

| Field        | Value    |
|--------------|----------|
| Entrypoint   | 0x0023   |
| Data Size    | 42 bytes |
| Instructions | 11       |

```
      00 01 02 03 04 05 06 07  08 09 0A 0B 0C 0D 0E 0F
      -- -- -- -- -- -- -- --  -- -- -- -- -- -- -- --
0020:          1E F0 FF FF 7F  1D 04 80 23 5B 01 80 F8     ........#[...
0030: FF FF 7F F8 FF FF 7F 74  6C 6B 30 1D 05 80 23 02  .......tlk0...#.
0040: 02 10 06 80 00 4B 00 1D  07 80 23 21 00           .....K....#!.   
```

#### Opcodes

```
  0: 0x0023 [0x1E] EventEntity looks at LocalPlayer and starts talking
  1: 0x0028 [0x1D] PRINT_EVENT_MESSAGE(message_id=10740*)
    → "The loss of Talekeeper Raogrimm thirty years ago, and the more recent loss of Zeid, have struck us hard in this time of need."
  2: 0x002B [0x23] WAIT_FOR_DIALOG_INTERACTION
  3: 0x002C [0x5B] LOAD_EXT_SCHEDULER: Load scheduler "tlk0" with entities [EventEntity, EventEntity], work=55*
  4: 0x003B [0x1D] PRINT_EVENT_MESSAGE(message_id=10741*)
    → "We Galka are inherently united by the presence of our Talekeeper. With him absent, we are like a shipwrecked crew, lost and drifting in the dark..."
  5: 0x003E [0x23] WAIT_FOR_DIALOG_INTERACTION
  6: 0x003F [0x02] IF !(Work_Zone[2] == 1*) GOTO 0x004B
  7: 0x0047 [0x1D] PRINT_EVENT_MESSAGE(message_id=11649*)
    → "I guess we can no longer live by those words anymore...but I never thought that it would be Gumbah who would teach us that."
  8: 0x004A [0x23] WAIT_FOR_DIALOG_INTERACTION
  9: 0x004B [0x21] END_EVENT
 10: 0x004C [0x00] END_REQSTACK()
```

### Event 90

#### Metadata

| Field        | Value     |
|--------------|-----------|
| Entrypoint   | 0x004D    |
| Data Size    | 601 bytes |
| Instructions | 88        |

```
      00 01 02 03 04 05 06 07  08 09 0A 0B 0C 0D 0E 0F
      -- -- -- -- -- -- -- --  -- -- -- -- -- -- -- --
0040:                                         03 09 10               ...
0050: 08 80 42 75 00 09 80 75  01 45 0A 80 F0 FF FF 7F  ..Bu...u.E......
0060: F0 FF FF 7F 66 64 6F 30  0B 80 55 0A 80 F0 FF FF  ....fdo0..U.....
0070: 7F F0 FF FF 7F 66 64 6F  30 46 01 38 0C 80 27 0A  .....fdo0F.8..'.
0080: 51 A0 0E 01 04 27 0A F0  FF FF 7F 0A 1C 06 80 45  Q....'.........E
0090: 0D 80 F8 FF FF 7F F8 FF  FF 7F 73 30 30 37 0B 80  ..........s007..
00A0: 45 0A 80 F0 FF FF 7F F0  FF FF 7F 66 64 69 30 0B  E..........fdi0.
00B0: 80 1E F0 FF FF 7F 1D 0E  80 23 45 0D 80 F8 FF FF  .........#E.....
00C0: 7F F8 FF FF 7F 73 30 30  38 0B 80 27 0A 51 A0 0E  .....s008..'.Q..
00D0: 01 03 27 0A 39 A0 0E 01  02 2B 39 A0 0E 01 0F 80  ..'.9....+9.....
00E0: 23 79 00 F8 FF FF 7F 39  A0 0E 01 1D 10 80 23 2A  #y.....9......#*
00F0: 0A 39 A0 0E 01 5B 11 80  39 A0 0E 01 39 A0 0E 01  .9...[..9...9...
0100: 74 6C 61 30 2B 39 A0 0E  01 12 80 23 2B 39 A0 0E  tla0+9.....#+9..
0110: 01 13 80 23 5B 11 80 39  A0 0E 01 39 A0 0E 01 74  ...#[..9...9...t
0120: 6C 61 31 5B 01 80 F8 FF  FF 7F F8 FF FF 7F 64 69  la1[..........di
0130: 73 30 1D 14 80 23 53 39  A0 0E 01 39 A0 0E 01 74  s0...#S9...9...t
0140: 6C 61 31 5B 15 80 39 A0  0E 01 39 A0 0E 01 74 6C  la1[..9...9...tl
0150: 63 30 2B 39 A0 0E 01 16  80 23 1D 17 80 23 52 0D  c0+9.....#...#R.
0160: 80 F8 FF FF 7F F8 FF FF  7F 73 30 30 38 45 0D 80  .........s008E..
0170: F8 FF FF 7F F8 FF FF 7F  73 30 30 39 0B 80 53 39  ........s009..S9
0180: A0 0E 01 39 A0 0E 01 74  6C 63 30 4A 39 A0 0E 01  ...9...tlc0J9...
0190: F0 FF FF 7F 2B 39 A0 0E  01 18 80 23 79 00 F8 FF  ....+9.....#y...
01A0: FF 7F F0 FF FF 7F 1D 19  80 23 5B 01 80 F8 FF FF  .........#[.....
01B0: 7F F8 FF FF 7F 74 68 62  31 1D 1A 80 23 5B 15 80  .....thb1...#[..
01C0: 39 A0 0E 01 39 A0 0E 01  74 6C 62 30 2B 39 A0 0E  9...9...tlb0+9..
01D0: 01 1B 80 23 2B 39 A0 0E  01 1C 80 23 5B 01 80 F8  ...#+9.....#[...
01E0: FF FF 7F F8 FF FF 7F 74  68 62 32 27 0A 39 A0 0E  .......thb2'.9..
01F0: 01 04 1D 1D 80 23 1C 1E  80 2A 0A 39 A0 0E 01 79  .....#...*.9...y
0200: 00 39 A0 0E 01 F0 FF FF  7F 1C 1F 80 79 00 F0 FF  .9..........y...
0210: FF 7F 39 A0 0E 01 5B 20  80 39 A0 0E 01 39 A0 0E  ..9...[ .9...9..
0220: 01 6B 6F 75 30 2B 39 A0  0E 01 21 80 23 1C 22 80  .kou0+9...!.#.".
0230: 5B 11 80 39 A0 0E 01 39  A0 0E 01 77 61 76 30 27  [..9...9...wav0'
0240: 0A 39 A0 0E 01 03 1C 1E  80 45 0D 80 F8 FF FF 7F  .9.......E......
0250: F8 FF FF 7F 73 30 30 37  0B 80 1C 1E 80 1E 39 A0  ....s007......9.
0260: 0E 01 79 00 F0 FF FF 7F  39 A0 0E 01 1C 1E 80 27  ..y.....9......'
0270: 0A 51 A0 0E 01 04 1C 22  80 1D 23 80 23 45 0A 80  .Q....."..#.#E..
0280: F0 FF FF 7F F0 FF FF 7F  66 64 6F 31 0B 80 1C 24  ........fdo1...$
0290: 80 46 00 45 0A 80 F0 FF  FF 7F F0 FF FF 7F 66 64  .F.E..........fd
02A0: 69 31 0B 80 21 00                                 i1..!.          
```

#### Opcodes

```
  0: 0x004D [0x03] Work_Zone[9] = 13116*
  1: 0x0052 [0x42] SET_CLI_EVENT_CANCEL_DATA()
  2: 0x0053 [0x75] LOAD_ROOM(Load indoor room, room=269*)
  3: 0x0057 [0x75] LOAD_ROOM(No action)
  4: 0x0059 [0x45] LOAD_SCHEDULED_TASK: Load scheduler "fdo0" with entities [LocalPlayer, LocalPlayer], work=[200*, 0*]
  5: 0x006A [0x55] WAIT_LOAD_SCHEDULER: Wait for scheduler "fdo0" with entities [LocalPlayer, LocalPlayer], work=200*
  6: 0x0079 [0x46] CAMERA_CONTROL: Disable user control
  7: 0x007B [0x38] SET_CLIENT_EVENT_MODE(mode=3*)
  8: 0x007E [0x27] REQ_SET(priority=0x0A, entity_id=Door:House (ID: 17735761/0x010EA051), tag_num=0x04)
  9: 0x0085 [0x27] REQ_SET(priority=0x0A, entity_id=LocalPlayer, tag_num=0x0A)
 10: 0x008C [0x1C] WAIT(1* ticks)
 11: 0x008F [0x45] LOAD_SCHEDULED_TASK: Load scheduler "s007" with entities [EventEntity, EventEntity], work=[134*, 0*]
 12: 0x00A0 [0x45] LOAD_SCHEDULED_TASK: Load scheduler "fdi0" with entities [LocalPlayer, LocalPlayer], work=[200*, 0*]
 13: 0x00B1 [0x1E] EventEntity looks at LocalPlayer and starts talking
 14: 0x00B6 [0x1D] PRINT_EVENT_MESSAGE(message_id=10753*)
    → "I thought I told you I don't want any help, I-- Oh, I'm sorry. I thought you were someone else. She won't stop pestering me..."
 15: 0x00B9 [0x23] WAIT_FOR_DIALOG_INTERACTION
 16: 0x00BA [0x45] LOAD_SCHEDULED_TASK: Load scheduler "s008" with entities [EventEntity, EventEntity], work=[134*, 0*]
 17: 0x00CB [0x27] REQ_SET(priority=0x0A, entity_id=Door:House (ID: 17735761/0x010EA051), tag_num=0x03)
 18: 0x00D2 [0x27] REQ_SET(priority=0x0A, entity_id=Cornelia (ID: 17735737/0x010EA039), tag_num=0x02)
 19: 0x00D9 [0x2B] Cornelia (ID: 17735737/0x010EA039) [10754*]:
    → "Hiya, Mister Pavvke! How's your health?"
 20: 0x00E0 [0x23] WAIT_FOR_DIALOG_INTERACTION
 21: 0x00E1 [0x79] EventEntity looks at Cornelia (ID: 17735737/0x010EA039) (Basic look)
 22: 0x00EB [0x1D] PRINT_EVENT_MESSAGE(message_id=10755*)
    → "I knew you'd be back... I might be old, but I'm not dying yet."
 23: 0x00EE [0x23] WAIT_FOR_DIALOG_INTERACTION
 24: 0x00EF [0x2A] GET_REQ_LEVEL(level=10, entity_id=Cornelia (ID: 17735737/0x010EA039))
 25: 0x00F5 [0x5B] LOAD_EXT_SCHEDULER: Load scheduler "tla0" with entities [Cornelia (ID: 17735737/0x010EA039), Cornelia (ID: 17735737/0x010EA039)], work=145*
 26: 0x0104 [0x2B] Cornelia (ID: 17735737/0x010EA039) [10756*]:
    → "Oops, sorry. That was Parraggoh..."
 27: 0x010B [0x23] WAIT_FOR_DIALOG_INTERACTION
 28: 0x010C [0x2B] Cornelia (ID: 17735737/0x010EA039) [10757*]:
    → "Anyway, I went and asked adventurers near the Metalworks if they'd ever seen the $7 you told me about, but no one knew anything about them."
 29: 0x0113 [0x23] WAIT_FOR_DIALOG_INTERACTION
 30: 0x0114 [0x5B] LOAD_EXT_SCHEDULER: Load scheduler "tla1" with entities [Cornelia (ID: 17735737/0x010EA039), Cornelia (ID: 17735737/0x010EA039)], work=145*
 31: 0x0123 [0x5B] LOAD_EXT_SCHEDULER: Load scheduler "dis0" with entities [EventEntity, EventEntity], work=55*
 32: 0x0132 [0x1D] PRINT_EVENT_MESSAGE(message_id=10758*)
    → "That's very kind of you, but it's been over fifteen years since the accident... I have to face the fact that my friends, and their belongings, are gone forever."
 33: 0x0135 [0x23] WAIT_FOR_DIALOG_INTERACTION
 34: 0x0136 [0x53] WAIT_SCHEDULER_TASK: Wait for scheduler "tla1" with entities [Cornelia (ID: 17735737/0x010EA039), Cornelia (ID: 17735737/0x010EA039)]
 35: 0x0143 [0x5B] LOAD_EXT_SCHEDULER: Load scheduler "tlc0" with entities [Cornelia (ID: 17735737/0x010EA039), Cornelia (ID: 17735737/0x010EA039)], work=147*
 36: 0x0152 [0x2B] Cornelia (ID: 17735737/0x010EA039) [10759*]:
    → "No, don't give up! I'm sure we'll find something!"
 37: 0x0159 [0x23] WAIT_FOR_DIALOG_INTERACTION
 38: 0x015A [0x1D] PRINT_EVENT_MESSAGE(message_id=10760*)
    → "..."
 39: 0x015D [0x23] WAIT_FOR_DIALOG_INTERACTION
 40: 0x015E [0x52] END_LOAD_SCHEDULER: End scheduler "s008" with entities [EventEntity, EventEntity], work=134*
 41: 0x016D [0x45] LOAD_SCHEDULED_TASK: Load scheduler "s009" with entities [EventEntity, EventEntity], work=[134*, 0*]
 42: 0x017E [0x53] WAIT_SCHEDULER_TASK: Wait for scheduler "tlc0" with entities [Cornelia (ID: 17735737/0x010EA039), Cornelia (ID: 17735737/0x010EA039)]
 43: 0x018B [0x4A] Cornelia (ID: 17735737/0x010EA039) looks at LocalPlayer
 44: 0x0194 [0x2B] Cornelia (ID: 17735737/0x010EA039) [10761*]:
    → "Hey, have you ever been to the Palborough Mines? Did you see any $7 lying around?"
 45: 0x019B [0x23] WAIT_FOR_DIALOG_INTERACTION
 46: 0x019C [0x79] EventEntity looks at LocalPlayer (Basic look)
 47: 0x01A6 [0x1D] PRINT_EVENT_MESSAGE(message_id=10762*)
    → "I used to work in the Palborough Mines with many other Galka. Twenty years ago, an explosive went off before we'd cleared the tunnels, and suddenly we were surrounded by Quadav."
 48: 0x01A9 [0x23] WAIT_FOR_DIALOG_INTERACTION
 49: 0x01AA [0x5B] LOAD_EXT_SCHEDULER: Load scheduler "thb1" with entities [EventEntity, EventEntity], work=55*
 50: 0x01B9 [0x1D] PRINT_EVENT_MESSAGE(message_id=10763*)
    → "Many Galka died that day... I am looking for their $7. The fallen need to be remembered."
 51: 0x01BC [0x23] WAIT_FOR_DIALOG_INTERACTION
 52: 0x01BD [0x5B] LOAD_EXT_SCHEDULER: Load scheduler "tlb0" with entities [Cornelia (ID: 17735737/0x010EA039), Cornelia (ID: 17735737/0x010EA039)], work=147*
 53: 0x01CC [0x2B] Cornelia (ID: 17735737/0x010EA039) [10764*]:
    → "I'm kind of a Bastokan history buff, and Mister Pavvke's been teaching me a lot. But when he told me about the Palborough Mines... I had to try helping him."
 54: 0x01D3 [0x23] WAIT_FOR_DIALOG_INTERACTION
 55: 0x01D4 [0x2B] Cornelia (ID: 17735737/0x010EA039) [10765*]:
    → "If you find any $7, could you bring them to him? I'll pay you, of course."
 56: 0x01DB [0x23] WAIT_FOR_DIALOG_INTERACTION
 57: 0x01DC [0x5B] LOAD_EXT_SCHEDULER: Load scheduler "thb2" with entities [EventEntity, EventEntity], work=55*
 58: 0x01EB [0x27] REQ_SET(priority=0x0A, entity_id=Cornelia (ID: 17735737/0x010EA039), tag_num=0x04)
 59: 0x01F2 [0x1D] PRINT_EVENT_MESSAGE(message_id=10766*)
    → "No, Cornelia, you shouldn't. I couldn't ask that of you. I will pay the reward myself."
 60: 0x01F5 [0x23] WAIT_FOR_DIALOG_INTERACTION
 61: 0x01F6 [0x1C] WAIT(10* ticks)
 62: 0x01F9 [0x2A] GET_REQ_LEVEL(level=10, entity_id=Cornelia (ID: 17735737/0x010EA039))
 63: 0x01FF [0x79] Cornelia (ID: 17735737/0x010EA039) looks at LocalPlayer (Basic look)
 64: 0x0209 [0x1C] WAIT(30* ticks)
 65: 0x020C [0x79] LocalPlayer looks at Cornelia (ID: 17735737/0x010EA039) (Basic look)
 66: 0x0216 [0x5B] LOAD_EXT_SCHEDULER: Load scheduler "kou0" with entities [Cornelia (ID: 17735737/0x010EA039), Cornelia (ID: 17735737/0x010EA039)], work=146*
 67: 0x0225 [0x2B] Cornelia (ID: 17735737/0x010EA039) [10767*]:
    → "...All right. Well, I should go talk to some more adventurers. One of them is bound to know something!"
 68: 0x022C [0x23] WAIT_FOR_DIALOG_INTERACTION
 69: 0x022D [0x1C] WAIT(20* ticks)
 70: 0x0230 [0x5B] LOAD_EXT_SCHEDULER: Load scheduler "wav0" with entities [Cornelia (ID: 17735737/0x010EA039), Cornelia (ID: 17735737/0x010EA039)], work=145*
 71: 0x023F [0x27] REQ_SET(priority=0x0A, entity_id=Cornelia (ID: 17735737/0x010EA039), tag_num=0x03)
 72: 0x0246 [0x1C] WAIT(10* ticks)
 73: 0x0249 [0x45] LOAD_SCHEDULED_TASK: Load scheduler "s007" with entities [EventEntity, EventEntity], work=[134*, 0*]
 74: 0x025A [0x1C] WAIT(10* ticks)
 75: 0x025D [0x1E] EventEntity looks at Cornelia (ID: 17735737/0x010EA039) and starts talking
 76: 0x0262 [0x79] LocalPlayer looks at Cornelia (ID: 17735737/0x010EA039) (Basic look)
 77: 0x026C [0x1C] WAIT(10* ticks)
 78: 0x026F [0x27] REQ_SET(priority=0x0A, entity_id=Door:House (ID: 17735761/0x010EA051), tag_num=0x04)
 79: 0x0276 [0x1C] WAIT(20* ticks)
 80: 0x0279 [0x1D] PRINT_EVENT_MESSAGE(message_id=10768*)
    → "<Sigh> It's not that I don't appreciate it, but she shouldn't involve herself in other people's business like this..."
 81: 0x027C [0x23] WAIT_FOR_DIALOG_INTERACTION
 82: 0x027D [0x45] LOAD_SCHEDULED_TASK: Load scheduler "fdo1" with entities [LocalPlayer, LocalPlayer], work=[200*, 0*]
 83: 0x028E [0x1C] WAIT(60* ticks)
 84: 0x0291 [0x46] CAMERA_CONTROL: Restore default settings
 85: 0x0293 [0x45] LOAD_SCHEDULED_TASK: Load scheduler "fdi1" with entities [LocalPlayer, LocalPlayer], work=[200*, 0*]
 86: 0x02A4 [0x21] END_EVENT
 87: 0x02A5 [0x00] END_REQSTACK()
```

### Event 91

#### Metadata

| Field        | Value     |
|--------------|-----------|
| Entrypoint   | 0x02A6    |
| Data Size    | 586 bytes |
| Instructions | 74        |

```
      00 01 02 03 04 05 06 07  08 09 0A 0B 0C 0D 0E 0F
      -- -- -- -- -- -- -- --  -- -- -- -- -- -- -- --
02A0:                   03 09  10 08 80 20 01 42 75 00        ..... .Bu.
02B0: 09 80 75 01 45 0A 80 F0  FF FF 7F F0 FF FF 7F 66  ..u.E..........f
02C0: 64 6F 30 0B 80 55 0A 80  F0 FF FF 7F F0 FF FF 7F  do0..U..........
02D0: 66 64 6F 30 46 01 45 0D  80 F8 FF FF 7F F8 FF FF  fdo0F.E.........
02E0: 7F 73 30 31 35 0B 80 38  0C 80 27 0A 51 A0 0E 01  .s015..8..'.Q...
02F0: 04 27 0A F0 FF FF 7F 0C  45 0A 80 F0 FF FF 7F F0  .'......E.......
0300: FF FF 7F 66 64 69 30 0B  80 1C 1E 80 1E F0 FF FF  ...fdi0.........
0310: 7F 1D 25 80 23 5B 01 80  F8 FF FF 7F F8 FF FF 7F  ..%.#[..........
0320: 74 68 61 31 1D 26 80 23  53 F8 FF FF 7F F8 FF FF  tha1.&.#S.......
0330: 7F 74 68 61 31 5B 01 80  F8 FF FF 7F F8 FF FF 7F  .tha1[..........
0340: 74 68 61 32 53 F8 FF FF  7F F8 FF FF 7F 74 68 61  tha2S........tha
0350: 32 5B 01 80 F8 FF FF 7F  F8 FF FF 7F 70 61 73 30  2[..........pas0
0360: 1D 27 80 23 53 F8 FF FF  7F F8 FF FF 7F 70 61 73  .'.#S........pas
0370: 30 5D 0B 80 24 80 45 0A  80 F0 FF FF 7F F0 FF FF  0]..$.E.........
0380: 7F 66 64 6F 31 0B 80 1C  1F 80 27 0A F0 FF FF 7F  .fdo1.....'.....
0390: 0B 55 0A 80 F0 FF FF 7F  F0 FF FF 7F 66 64 6F 31  .U..........fdo1
03A0: 5C 00 28 80 5C 01 28 80  45 0A 80 F0 FF FF 7F F0  \.(.\.(.E.......
03B0: FF FF 7F 66 64 69 31 0B  80 45 0D 80 F8 FF FF 7F  ...fdi1..E......
03C0: F8 FF FF 7F 73 30 31 36  0B 80 4E 00 39 A0 0E 01  ....s016..N.9...
03D0: 1C 29 80 79 00 39 A0 0E  01 F0 FF FF 7F 2B 39 A0  .).y.9.......+9.
03E0: 0E 01 2A 80 23 7B 39 A0  0E 01 5B 2B 80 39 A0 0E  ..*.#{9...[+.9..
03F0: 01 39 A0 0E 01 75 74 75  30 2B 39 A0 0E 01 2C 80  .9...utu0+9...,.
0400: 23 2B 39 A0 0E 01 2D 80  23 5B 2B 80 39 A0 0E 01  #+9...-.#[+.9...
0410: 39 A0 0E 01 75 74 75 31  2B 39 A0 0E 01 2E 80 23  9...utu1+9.....#
0420: 52 0D 80 F8 FF FF 7F F8  FF FF 7F 73 30 31 36 45  R..........s016E
0430: 0D 80 F8 FF FF 7F F8 FF  FF 7F 73 30 33 36 0B 80  ..........s036..
0440: 4E 01 F0 FF FF 7F 5B 11  80 39 A0 0E 01 39 A0 0E  N.....[..9...9..
0450: 01 74 6C 61 30 2B 39 A0  0E 01 2F 80 23 5B 11 80  .tla0+9.../.#[..
0460: 39 A0 0E 01 39 A0 0E 01  74 6C 61 31 2B 39 A0 0E  9...9...tla1+9..
0470: 01 30 80 23 5B 11 80 39  A0 0E 01 39 A0 0E 01 77  .0.#[..9...9...w
0480: 61 76 30 53 39 A0 0E 01  39 A0 0E 01 77 61 76 30  av0S9...9...wav0
0490: 27 0A 39 A0 0E 01 06 1C  1F 80 5D 0B 80 24 80 45  '.9.......]..$.E
04A0: 0A 80 F0 FF FF 7F F0 FF  FF 7F 66 64 6F 31 0B 80  ..........fdo1..
04B0: 1C 24 80 5C 00 31 80 5C  01 31 80 52 0D 80 F8 FF  .$.\.1.\.1.R....
04C0: FF 7F F8 FF FF 7F 73 30  33 36 46 00 45 0A 80 F0  ......s036F.E...
04D0: FF FF 7F F0 FF FF 7F 66  64 69 31 0B 80 45 32 80  .......fdi1..E2.
04E0: F0 FF FF 7F F0 FF FF 7F  71 73 74 63 0B 80 21 00  ........qstc..!.
```

#### Opcodes

```
  0: 0x02A6 [0x03] Work_Zone[9] = 13116*
  1: 0x02AB [0x20] SET_CLI_EVENT_UC_FLAG: Lock player control
  2: 0x02AD [0x42] SET_CLI_EVENT_CANCEL_DATA()
  3: 0x02AE [0x75] LOAD_ROOM(Load indoor room, room=269*)
  4: 0x02B2 [0x75] LOAD_ROOM(No action)
  5: 0x02B4 [0x45] LOAD_SCHEDULED_TASK: Load scheduler "fdo0" with entities [LocalPlayer, LocalPlayer], work=[200*, 0*]
  6: 0x02C5 [0x55] WAIT_LOAD_SCHEDULER: Wait for scheduler "fdo0" with entities [LocalPlayer, LocalPlayer], work=200*
  7: 0x02D4 [0x46] CAMERA_CONTROL: Disable user control
  8: 0x02D6 [0x45] LOAD_SCHEDULED_TASK: Load scheduler "s015" with entities [EventEntity, EventEntity], work=[134*, 0*]
  9: 0x02E7 [0x38] SET_CLIENT_EVENT_MODE(mode=3*)
 10: 0x02EA [0x27] REQ_SET(priority=0x0A, entity_id=Door:House (ID: 17735761/0x010EA051), tag_num=0x04)
 11: 0x02F1 [0x27] REQ_SET(priority=0x0A, entity_id=LocalPlayer, tag_num=0x0C)
 12: 0x02F8 [0x45] LOAD_SCHEDULED_TASK: Load scheduler "fdi0" with entities [LocalPlayer, LocalPlayer], work=[200*, 0*]
 13: 0x0309 [0x1C] WAIT(10* ticks)
 14: 0x030C [0x1E] EventEntity looks at LocalPlayer and starts talking
 15: 0x0311 [0x1D] PRINT_EVENT_MESSAGE(message_id=10769*)
    → "Y-you've found $7! In the Palborough Mines, yes?"
 16: 0x0314 [0x23] WAIT_FOR_DIALOG_INTERACTION
 17: 0x0315 [0x5B] LOAD_EXT_SCHEDULER: Load scheduler "tha1" with entities [EventEntity, EventEntity], work=55*
 18: 0x0324 [0x1D] PRINT_EVENT_MESSAGE(message_id=10770*)
    → "Thank you! You don't know what this means to me."
 19: 0x0327 [0x23] WAIT_FOR_DIALOG_INTERACTION
 20: 0x0328 [0x53] WAIT_SCHEDULER_TASK: Wait for scheduler "tha1" with entities [EventEntity, EventEntity]
 21: 0x0335 [0x5B] LOAD_EXT_SCHEDULER: Load scheduler "tha2" with entities [EventEntity, EventEntity], work=55*
 22: 0x0344 [0x53] WAIT_SCHEDULER_TASK: Wait for scheduler "tha2" with entities [EventEntity, EventEntity]
 23: 0x0351 [0x5B] LOAD_EXT_SCHEDULER: Load scheduler "pas0" with entities [EventEntity, EventEntity], work=55*
 24: 0x0360 [0x1D] PRINT_EVENT_MESSAGE(message_id=10771*)
    → "There should be others where you found this one. If you find them, please bring them to me. I'm sorry I can't give you much, but here's your reward."
 25: 0x0363 [0x23] WAIT_FOR_DIALOG_INTERACTION
 26: 0x0364 [0x53] WAIT_SCHEDULER_TASK: Wait for scheduler "pas0" with entities [EventEntity, EventEntity]
 27: 0x0371 [0x5D] SET_MUSIC_VOLUME(volume=0*, fade_time=60*)
 28: 0x0376 [0x45] LOAD_SCHEDULED_TASK: Load scheduler "fdo1" with entities [LocalPlayer, LocalPlayer], work=[200*, 0*]
 29: 0x0387 [0x1C] WAIT(30* ticks)
 30: 0x038A [0x27] REQ_SET(priority=0x0A, entity_id=LocalPlayer, tag_num=0x0B)
 31: 0x0391 [0x55] WAIT_LOAD_SCHEDULER: Wait for scheduler "fdo1" with entities [LocalPlayer, LocalPlayer], work=200*
 32: 0x03A0 [0x5C] MUSIC_CONTROL: Set Idle (Day) music to song 159*
 33: 0x03A4 [0x5C] MUSIC_CONTROL: Set Idle (Night) music to song 159*
 34: 0x03A8 [0x45] LOAD_SCHEDULED_TASK: Load scheduler "fdi1" with entities [LocalPlayer, LocalPlayer], work=[200*, 0*]
 35: 0x03B9 [0x45] LOAD_SCHEDULED_TASK: Load scheduler "s016" with entities [EventEntity, EventEntity], work=[134*, 0*]
 36: 0x03CA [0x4E] SET_ENTITY_HIDE_FLAG: Show Cornelia (ID: 17735737/0x010EA039)
 37: 0x03D0 [0x1C] WAIT(360* ticks)
 38: 0x03D3 [0x79] Cornelia (ID: 17735737/0x010EA039) looks at LocalPlayer (Basic look)
 39: 0x03DD [0x2B] Cornelia (ID: 17735737/0x010EA039) [10772*]:
    → "I'm glad you found it! I knew you would! What? Why am I out here?"
 40: 0x03E4 [0x23] WAIT_FOR_DIALOG_INTERACTION
 41: 0x03E5 [0x7B] Cornelia (ID: 17735737/0x010EA039) stops talking
 42: 0x03EA [0x5B] LOAD_EXT_SCHEDULER: Load scheduler "utu0" with entities [Cornelia (ID: 17735737/0x010EA039), Cornelia (ID: 17735737/0x010EA039)], work=148*
 43: 0x03F9 [0x2B] Cornelia (ID: 17735737/0x010EA039) [10773*]:
    → "Well, Mister Pavvke would probably scold me if I tried to give you a reward. He'd say something like, "she should not be meddling in our affairs...""
 44: 0x0400 [0x23] WAIT_FOR_DIALOG_INTERACTION
 45: 0x0401 [0x2B] Cornelia (ID: 17735737/0x010EA039) [10774*]:
    → "I know, I know. He's right. But I can't help it. Whenever I decide to do something, I just can't think of anything else."
 46: 0x0408 [0x23] WAIT_FOR_DIALOG_INTERACTION
 47: 0x0409 [0x5B] LOAD_EXT_SCHEDULER: Load scheduler "utu1" with entities [Cornelia (ID: 17735737/0x010EA039), Cornelia (ID: 17735737/0x010EA039)], work=148*
 48: 0x0418 [0x2B] Cornelia (ID: 17735737/0x010EA039) [10775*]:
    → "You know something? The more I listen to Mister Pavvke's stories, the more I can see the gap in understanding between the Galka and Humes."
 49: 0x041F [0x23] WAIT_FOR_DIALOG_INTERACTION
 50: 0x0420 [0x52] END_LOAD_SCHEDULER: End scheduler "s016" with entities [EventEntity, EventEntity], work=134*
 51: 0x042F [0x45] LOAD_SCHEDULED_TASK: Load scheduler "s036" with entities [EventEntity, EventEntity], work=[134*, 0*]
 52: 0x0440 [0x4E] SET_ENTITY_HIDE_FLAG: Hide LocalPlayer
 53: 0x0446 [0x5B] LOAD_EXT_SCHEDULER: Load scheduler "tla0" with entities [Cornelia (ID: 17735737/0x010EA039), Cornelia (ID: 17735737/0x010EA039)], work=145*
 54: 0x0455 [0x2B] Cornelia (ID: 17735737/0x010EA039) [10776*]:
    → "But the Galka shouldn't be blamed for that, you know? Humes haven't exactly been nice to them, putting them to work and all... Most of the people who died in the accident Mister Pavvke was caught in were Galka, too."
 55: 0x045C [0x23] WAIT_FOR_DIALOG_INTERACTION
 56: 0x045D [0x5B] LOAD_EXT_SCHEDULER: Load scheduler "tla1" with entities [Cornelia (ID: 17735737/0x010EA039), Cornelia (ID: 17735737/0x010EA039)], work=145*
 57: 0x046C [0x2B] Cornelia (ID: 17735737/0x010EA039) [10777*]:
    → "I wish I could somehow bridge the gap between the Galka and Humes... Well then! Enough talk, I have to go. See you around!"
 58: 0x0473 [0x23] WAIT_FOR_DIALOG_INTERACTION
 59: 0x0474 [0x5B] LOAD_EXT_SCHEDULER: Load scheduler "wav0" with entities [Cornelia (ID: 17735737/0x010EA039), Cornelia (ID: 17735737/0x010EA039)], work=145*
 60: 0x0483 [0x53] WAIT_SCHEDULER_TASK: Wait for scheduler "wav0" with entities [Cornelia (ID: 17735737/0x010EA039), Cornelia (ID: 17735737/0x010EA039)]
 61: 0x0490 [0x27] REQ_SET(priority=0x0A, entity_id=Cornelia (ID: 17735737/0x010EA039), tag_num=0x06)
 62: 0x0497 [0x1C] WAIT(30* ticks)
 63: 0x049A [0x5D] SET_MUSIC_VOLUME(volume=0*, fade_time=60*)
 64: 0x049F [0x45] LOAD_SCHEDULED_TASK: Load scheduler "fdo1" with entities [LocalPlayer, LocalPlayer], work=[200*, 0*]
 65: 0x04B0 [0x1C] WAIT(60* ticks)
 66: 0x04B3 [0x5C] MUSIC_CONTROL: Set Idle (Day) music to song 152*
 67: 0x04B7 [0x5C] MUSIC_CONTROL: Set Idle (Night) music to song 152*
 68: 0x04BB [0x52] END_LOAD_SCHEDULER: End scheduler "s036" with entities [EventEntity, EventEntity], work=134*
 69: 0x04CA [0x46] CAMERA_CONTROL: Restore default settings
 70: 0x04CC [0x45] LOAD_SCHEDULED_TASK: Load scheduler "fdi1" with entities [LocalPlayer, LocalPlayer], work=[200*, 0*]
 71: 0x04DD [0x45] LOAD_SCHEDULED_TASK: Load scheduler "qstc" with entities [LocalPlayer, LocalPlayer], work=[201*, 0*]
 72: 0x04EE [0x21] END_EVENT
 73: 0x04EF [0x00] END_REQSTACK()
```

### Event 92

#### Metadata

| Field        | Value     |
|--------------|-----------|
| Entrypoint   | 0x04F0    |
| Data Size    | 128 bytes |
| Instructions | 19        |

```
      00 01 02 03 04 05 06 07  08 09 0A 0B 0C 0D 0E 0F
      -- -- -- -- -- -- -- --  -- -- -- -- -- -- -- --
04F0: 20 01 42 03 09 10 08 80  1E F0 FF FF 7F 1D 25 80   .B...........%.
0500: 23 5B 01 80 F8 FF FF 7F  F8 FF FF 7F 74 68 61 31  #[..........tha1
0510: 1D 26 80 23 53 F8 FF FF  7F F8 FF FF 7F 74 68 61  .&.#S........tha
0520: 31 5B 01 80 F8 FF FF 7F  F8 FF FF 7F 74 68 61 32  1[..........tha2
0530: 53 F8 FF FF 7F F8 FF FF  7F 74 68 61 32 5B 01 80  S........tha2[..
0540: F8 FF FF 7F F8 FF FF 7F  70 61 73 30 1D 27 80 23  ........pas0.'.#
0550: 53 F8 FF FF 7F F8 FF FF  7F 70 61 73 30 45 32 80  S........pas0E2.
0560: F0 FF FF 7F F0 FF FF 7F  71 73 74 63 0B 80 21 00  ........qstc..!.
```

#### Opcodes

```
  0: 0x04F0 [0x20] SET_CLI_EVENT_UC_FLAG: Lock player control
  1: 0x04F2 [0x42] SET_CLI_EVENT_CANCEL_DATA()
  2: 0x04F3 [0x03] Work_Zone[9] = 13116*
  3: 0x04F8 [0x1E] EventEntity looks at LocalPlayer and starts talking
  4: 0x04FD [0x1D] PRINT_EVENT_MESSAGE(message_id=10769*)
    → "Y-you've found $7! In the Palborough Mines, yes?"
  5: 0x0500 [0x23] WAIT_FOR_DIALOG_INTERACTION
  6: 0x0501 [0x5B] LOAD_EXT_SCHEDULER: Load scheduler "tha1" with entities [EventEntity, EventEntity], work=55*
  7: 0x0510 [0x1D] PRINT_EVENT_MESSAGE(message_id=10770*)
    → "Thank you! You don't know what this means to me."
  8: 0x0513 [0x23] WAIT_FOR_DIALOG_INTERACTION
  9: 0x0514 [0x53] WAIT_SCHEDULER_TASK: Wait for scheduler "tha1" with entities [EventEntity, EventEntity]
 10: 0x0521 [0x5B] LOAD_EXT_SCHEDULER: Load scheduler "tha2" with entities [EventEntity, EventEntity], work=55*
 11: 0x0530 [0x53] WAIT_SCHEDULER_TASK: Wait for scheduler "tha2" with entities [EventEntity, EventEntity]
 12: 0x053D [0x5B] LOAD_EXT_SCHEDULER: Load scheduler "pas0" with entities [EventEntity, EventEntity], work=55*
 13: 0x054C [0x1D] PRINT_EVENT_MESSAGE(message_id=10771*)
    → "There should be others where you found this one. If you find them, please bring them to me. I'm sorry I can't give you much, but here's your reward."
 14: 0x054F [0x23] WAIT_FOR_DIALOG_INTERACTION
 15: 0x0550 [0x53] WAIT_SCHEDULER_TASK: Wait for scheduler "pas0" with entities [EventEntity, EventEntity]
 16: 0x055D [0x45] LOAD_SCHEDULED_TASK: Load scheduler "qstc" with entities [LocalPlayer, LocalPlayer], work=[201*, 0*]
 17: 0x056E [0x21] END_EVENT
 18: 0x056F [0x00] END_REQSTACK()
```

### Event 48

#### Metadata

| Field        | Value    |
|--------------|----------|
| Entrypoint   | 0x0570   |
| Data Size    | 35 bytes |
| Instructions | 9        |

```
      00 01 02 03 04 05 06 07  08 09 0A 0B 0C 0D 0E 0F
      -- -- -- -- -- -- -- --  -- -- -- -- -- -- -- --
0570: 1E F0 FF FF 7F 03 09 10  33 80 1D 34 80 23 5B 01  ........3..4.#[.
0580: 80 F8 FF FF 7F F8 FF FF  7F 64 69 73 30 1D 35 80  .........dis0.5.
0590: 23 21 00                                          #!.             
```

#### Opcodes

```
  0: 0x0570 [0x1E] EventEntity looks at LocalPlayer and starts talking
  1: 0x0575 [0x03] Work_Zone[9] = 2*
  2: 0x057A [0x1D] PRINT_EVENT_MESSAGE(message_id=10671*)
    → "The pioneers? Well, yes, I worked in the mines until fifteen years ago, but you're talking about things that happened more than a hundred and fifty years back!"
  3: 0x057D [0x23] WAIT_FOR_DIALOG_INTERACTION
  4: 0x057E [0x5B] LOAD_EXT_SCHEDULER: Load scheduler "dis0" with entities [EventEntity, EventEntity], work=55*
  5: 0x058D [0x1D] PRINT_EVENT_MESSAGE(message_id=10672*)
    → "I may be old, but I'm not that old. Go talk to Babenn. Now that Werei's gone, he's the only Galka left who was around back then."
  6: 0x0590 [0x23] WAIT_FOR_DIALOG_INTERACTION
  7: 0x0591 [0x21] END_EVENT
  8: 0x0592 [0x00] END_REQSTACK()
```

### Event 176

#### Metadata

| Field        | Value    |
|--------------|----------|
| Entrypoint   | 0x0593   |
| Data Size    | 15 bytes |
| Instructions | 3        |

```
      00 01 02 03 04 05 06 07  08 09 0A 0B 0C 0D 0E 0F
      -- -- -- -- -- -- -- --  -- -- -- -- -- -- -- --
0590:          37 36 80 37 80  0B 80 38 80 1E 0B A0 0E     76.7...8.....
05A0: 01 00                                             ..              
```

#### Opcodes

```
  0: 0x0593 [0x37] UPDATE_EVENT_POSITION_AND_DIR: x=-156.422*, z=-32.833*, y=0.000*, direction=202.9°*
  1: 0x059C [0x1E] EventEntity looks at Mydon (ID: 17735691/0x010EA00B) and starts talking
  2: 0x05A1 [0x00] END_REQSTACK()
```

### Event 65535.1

#### Metadata

| Field        | Value    |
|--------------|----------|
| Entrypoint   | 0x05A2   |
| Data Size    | 16 bytes |
| Instructions | 2        |

```
      00 01 02 03 04 05 06 07  08 09 0A 0B 0C 0D 0E 0F
      -- -- -- -- -- -- -- --  -- -- -- -- -- -- -- --
05A0:       66 24 80 F8 FF FF  7F F8 FF FF 7F 74 6C 6B    f$.........tlk
05B0: 30 00                                             0.              
```

#### Opcodes

```
  0: 0x05A2 [0x66] LOAD_EXT_SCHEDULER_MAIN: Load scheduler "tlk0" with entities [EventEntity, EventEntity], work=60*
  1: 0x05B1 [0x00] END_REQSTACK()
```

### Event 65535.2

#### Metadata

| Field        | Value    |
|--------------|----------|
| Entrypoint   | 0x05B2   |
| Data Size    | 22 bytes |
| Instructions | 4        |

```
      00 01 02 03 04 05 06 07  08 09 0A 0B 0C 0D 0E 0F
      -- -- -- -- -- -- -- --  -- -- -- -- -- -- -- --
05B0:       53 F8 FF FF 7F F8  FF FF 7F 74 6C 6B 30 5E    S........tlk0^
05C0: 69 64 6C 30 1C 24 80 00                           idl0.$..        
```

#### Opcodes

```
  0: 0x05B2 [0x53] WAIT_SCHEDULER_TASK: Wait for scheduler "tlk0" with entities [EventEntity, EventEntity]
  1: 0x05BF [0x5E] EventEntity goes idle (kills current action) (animation: "idl0")
  2: 0x05C4 [0x1C] WAIT(60* ticks)
  3: 0x05C7 [0x00] END_REQSTACK()
```

### Event 65535.3

#### Metadata

| Field        | Value    |
|--------------|----------|
| Entrypoint   | 0x05C8   |
| Data Size    | 16 bytes |
| Instructions | 2        |

```
      00 01 02 03 04 05 06 07  08 09 0A 0B 0C 0D 0E 0F
      -- -- -- -- -- -- -- --  -- -- -- -- -- -- -- --
05C0:                          66 24 80 F8 FF FF 7F F8          f$......
05D0: FF FF 7F 70 61 73 30 00                           ...pas0.        
```

#### Opcodes

```
  0: 0x05C8 [0x66] LOAD_EXT_SCHEDULER_MAIN: Load scheduler "pas0" with entities [EventEntity, EventEntity], work=60*
  1: 0x05D7 [0x00] END_REQSTACK()
```

### Event 65535.4

#### Metadata

| Field        | Value    |
|--------------|----------|
| Entrypoint   | 0x05D8   |
| Data Size    | 14 bytes |
| Instructions | 2        |

```
      00 01 02 03 04 05 06 07  08 09 0A 0B 0C 0D 0E 0F
      -- -- -- -- -- -- -- --  -- -- -- -- -- -- -- --
05D0:                          53 F8 FF FF 7F F8 FF FF          S.......
05E0: 7F 70 61 73 30 00                                 .pas0.          
```

#### Opcodes

```
  0: 0x05D8 [0x53] WAIT_SCHEDULER_TASK: Wait for scheduler "pas0" with entities [EventEntity, EventEntity]
  1: 0x05E5 [0x00] END_REQSTACK()
```

### Event 65535.5

#### Metadata

| Field        | Value    |
|--------------|----------|
| Entrypoint   | 0x05E6   |
| Data Size    | 16 bytes |
| Instructions | 2        |

```
      00 01 02 03 04 05 06 07  08 09 0A 0B 0C 0D 0E 0F
      -- -- -- -- -- -- -- --  -- -- -- -- -- -- -- --
05E0:                   66 24  80 F8 FF FF 7F F8 FF FF        f$........
05F0: 7F 74 68 6B 31 00                                 .thk1.          
```

#### Opcodes

```
  0: 0x05E6 [0x66] LOAD_EXT_SCHEDULER_MAIN: Load scheduler "thk1" with entities [EventEntity, EventEntity], work=60*
  1: 0x05F5 [0x00] END_REQSTACK()
```

### Event 65535.6

#### Metadata

| Field        | Value    |
|--------------|----------|
| Entrypoint   | 0x05F6   |
| Data Size    | 14 bytes |
| Instructions | 2        |

```
      00 01 02 03 04 05 06 07  08 09 0A 0B 0C 0D 0E 0F
      -- -- -- -- -- -- -- --  -- -- -- -- -- -- -- --
05F0:                   53 F8  FF FF 7F F8 FF FF 7F 74        S........t
0600: 68 6B 31 00                                       hk1.            
```

#### Opcodes

```
  0: 0x05F6 [0x53] WAIT_SCHEDULER_TASK: Wait for scheduler "thk1" with entities [EventEntity, EventEntity]
  1: 0x0603 [0x00] END_REQSTACK()
```

### Event 65535.7

#### Metadata

| Field        | Value    |
|--------------|----------|
| Entrypoint   | 0x0604   |
| Data Size    | 16 bytes |
| Instructions | 2        |

```
      00 01 02 03 04 05 06 07  08 09 0A 0B 0C 0D 0E 0F
      -- -- -- -- -- -- -- --  -- -- -- -- -- -- -- --
0600:             66 24 80 F8  FF FF 7F F8 FF FF 7F 74      f$.........t
0610: 68 6B 32 00                                       hk2.            
```

#### Opcodes

```
  0: 0x0604 [0x66] LOAD_EXT_SCHEDULER_MAIN: Load scheduler "thk2" with entities [EventEntity, EventEntity], work=60*
  1: 0x0613 [0x00] END_REQSTACK()
```

### Event 65535.8

#### Metadata

| Field        | Value    |
|--------------|----------|
| Entrypoint   | 0x0614   |
| Data Size    | 14 bytes |
| Instructions | 2        |

```
      00 01 02 03 04 05 06 07  08 09 0A 0B 0C 0D 0E 0F
      -- -- -- -- -- -- -- --  -- -- -- -- -- -- -- --
0610:             53 F8 FF FF  7F F8 FF FF 7F 74 68 6B      S........thk
0620: 32 00                                             2.              
```

#### Opcodes

```
  0: 0x0614 [0x53] WAIT_SCHEDULER_TASK: Wait for scheduler "thk2" with entities [EventEntity, EventEntity]
  1: 0x0621 [0x00] END_REQSTACK()
```

### Event 65535.9

#### Metadata

| Field        | Value    |
|--------------|----------|
| Entrypoint   | 0x0622   |
| Data Size    | 16 bytes |
| Instructions | 2        |

```
      00 01 02 03 04 05 06 07  08 09 0A 0B 0C 0D 0E 0F
      -- -- -- -- -- -- -- --  -- -- -- -- -- -- -- --
0620:       66 24 80 F8 FF FF  7F F8 FF FF 7F 70 6F 69    f$.........poi
0630: 30 00                                             0.              
```

#### Opcodes

```
  0: 0x0622 [0x66] LOAD_EXT_SCHEDULER_MAIN: Load scheduler "poi0" with entities [EventEntity, EventEntity], work=60*
  1: 0x0631 [0x00] END_REQSTACK()
```

### Event 65535.10

#### Metadata

| Field        | Value    |
|--------------|----------|
| Entrypoint   | 0x0632   |
| Data Size    | 14 bytes |
| Instructions | 2        |

```
      00 01 02 03 04 05 06 07  08 09 0A 0B 0C 0D 0E 0F
      -- -- -- -- -- -- -- --  -- -- -- -- -- -- -- --
0630:       53 F8 FF FF 7F F8  FF FF 7F 70 6F 69 30 00    S........poi0.
```

#### Opcodes

```
  0: 0x0632 [0x53] WAIT_SCHEDULER_TASK: Wait for scheduler "poi0" with entities [EventEntity, EventEntity]
  1: 0x063F [0x00] END_REQSTACK()
```

### Event 65535.11

#### Metadata

| Field        | Value    |
|--------------|----------|
| Entrypoint   | 0x0640   |
| Data Size    | 16 bytes |
| Instructions | 2        |

```
      00 01 02 03 04 05 06 07  08 09 0A 0B 0C 0D 0E 0F
      -- -- -- -- -- -- -- --  -- -- -- -- -- -- -- --
0640: 66 24 80 F8 FF FF 7F F8  FF FF 7F 61 6E 67 30 00  f$.........ang0.
```

#### Opcodes

```
  0: 0x0640 [0x66] LOAD_EXT_SCHEDULER_MAIN: Load scheduler "ang0" with entities [EventEntity, EventEntity], work=60*
  1: 0x064F [0x00] END_REQSTACK()
```

### Event 65535.12

#### Metadata

| Field        | Value    |
|--------------|----------|
| Entrypoint   | 0x0650   |
| Data Size    | 22 bytes |
| Instructions | 4        |

```
      00 01 02 03 04 05 06 07  08 09 0A 0B 0C 0D 0E 0F
      -- -- -- -- -- -- -- --  -- -- -- -- -- -- -- --
0650: 53 F8 FF FF 7F F8 FF FF  7F 61 6E 67 30 5E 69 64  S........ang0^id
0660: 6C 30 1C 24 80 00                                 l0.$..          
```

#### Opcodes

```
  0: 0x0650 [0x53] WAIT_SCHEDULER_TASK: Wait for scheduler "ang0" with entities [EventEntity, EventEntity]
  1: 0x065D [0x5E] EventEntity goes idle (kills current action) (animation: "idl0")
  2: 0x0662 [0x1C] WAIT(60* ticks)
  3: 0x0665 [0x00] END_REQSTACK()
```

### Event 65535.13

#### Metadata

| Field        | Value    |
|--------------|----------|
| Entrypoint   | 0x0666   |
| Data Size    | 16 bytes |
| Instructions | 2        |

```
      00 01 02 03 04 05 06 07  08 09 0A 0B 0C 0D 0E 0F
      -- -- -- -- -- -- -- --  -- -- -- -- -- -- -- --
0660:                   66 24  80 F8 FF FF 7F F8 FF FF        f$........
0670: 7F 64 69 73 30 00                                 .dis0.          
```

#### Opcodes

```
  0: 0x0666 [0x66] LOAD_EXT_SCHEDULER_MAIN: Load scheduler "dis0" with entities [EventEntity, EventEntity], work=60*
  1: 0x0675 [0x00] END_REQSTACK()
```

### Event 65535.14

#### Metadata

| Field        | Value    |
|--------------|----------|
| Entrypoint   | 0x0676   |
| Data Size    | 14 bytes |
| Instructions | 2        |

```
      00 01 02 03 04 05 06 07  08 09 0A 0B 0C 0D 0E 0F
      -- -- -- -- -- -- -- --  -- -- -- -- -- -- -- --
0670:                   53 F8  FF FF 7F F8 FF FF 7F 64        S........d
0680: 69 73 30 00                                       is0.            
```

#### Opcodes

```
  0: 0x0676 [0x53] WAIT_SCHEDULER_TASK: Wait for scheduler "dis0" with entities [EventEntity, EventEntity]
  1: 0x0683 [0x00] END_REQSTACK()
```

### Event 65535.15

#### Metadata

| Field        | Value    |
|--------------|----------|
| Entrypoint   | 0x0684   |
| Data Size    | 16 bytes |
| Instructions | 2        |

```
      00 01 02 03 04 05 06 07  08 09 0A 0B 0C 0D 0E 0F
      -- -- -- -- -- -- -- --  -- -- -- -- -- -- -- --
0680:             66 39 80 F8  FF FF 7F F8 FF FF 7F 77      f9.........w
0690: 61 76 30 00                                       av0.            
```

#### Opcodes

```
  0: 0x0684 [0x66] LOAD_EXT_SCHEDULER_MAIN: Load scheduler "wav0" with entities [EventEntity, EventEntity], work=61*
  1: 0x0693 [0x00] END_REQSTACK()
```

### Event 65535.16

#### Metadata

| Field        | Value    |
|--------------|----------|
| Entrypoint   | 0x0694   |
| Data Size    | 14 bytes |
| Instructions | 2        |

```
      00 01 02 03 04 05 06 07  08 09 0A 0B 0C 0D 0E 0F
      -- -- -- -- -- -- -- --  -- -- -- -- -- -- -- --
0690:             53 F8 FF FF  7F F8 FF FF 7F 77 61 76      S........wav
06A0: 30 00                                             0.              
```

#### Opcodes

```
  0: 0x0694 [0x53] WAIT_SCHEDULER_TASK: Wait for scheduler "wav0" with entities [EventEntity, EventEntity]
  1: 0x06A1 [0x00] END_REQSTACK()
```

### Event 65535.17

#### Metadata

| Field        | Value    |
|--------------|----------|
| Entrypoint   | 0x06A2   |
| Data Size    | 16 bytes |
| Instructions | 2        |

```
      00 01 02 03 04 05 06 07  08 09 0A 0B 0C 0D 0E 0F
      -- -- -- -- -- -- -- --  -- -- -- -- -- -- -- --
06A0:       66 3A 80 F8 FF FF  7F F8 FF FF 7F 74 6C 62    f:.........tlb
06B0: 30 00                                             0.              
```

#### Opcodes

```
  0: 0x06A2 [0x66] LOAD_EXT_SCHEDULER_MAIN: Load scheduler "tlb0" with entities [EventEntity, EventEntity], work=65*
  1: 0x06B1 [0x00] END_REQSTACK()
```

### Event 65535.18

#### Metadata

| Field        | Value    |
|--------------|----------|
| Entrypoint   | 0x06B2   |
| Data Size    | 14 bytes |
| Instructions | 2        |

```
      00 01 02 03 04 05 06 07  08 09 0A 0B 0C 0D 0E 0F
      -- -- -- -- -- -- -- --  -- -- -- -- -- -- -- --
06B0:       53 F8 FF FF 7F F8  FF FF 7F 74 6C 62 30 00    S........tlb0.
```

#### Opcodes

```
  0: 0x06B2 [0x53] WAIT_SCHEDULER_TASK: Wait for scheduler "tlb0" with entities [EventEntity, EventEntity]
  1: 0x06BF [0x00] END_REQSTACK()
```

### Event 65535.19

#### Metadata

| Field        | Value    |
|--------------|----------|
| Entrypoint   | 0x06C0   |
| Data Size    | 16 bytes |
| Instructions | 2        |

```
      00 01 02 03 04 05 06 07  08 09 0A 0B 0C 0D 0E 0F
      -- -- -- -- -- -- -- --  -- -- -- -- -- -- -- --
06C0: 66 3A 80 F8 FF FF 7F F8  FF FF 7F 74 6C 62 31 00  f:.........tlb1.
```

#### Opcodes

```
  0: 0x06C0 [0x66] LOAD_EXT_SCHEDULER_MAIN: Load scheduler "tlb1" with entities [EventEntity, EventEntity], work=65*
  1: 0x06CF [0x00] END_REQSTACK()
```

### Event 65535.20

#### Metadata

| Field        | Value    |
|--------------|----------|
| Entrypoint   | 0x06D0   |
| Data Size    | 14 bytes |
| Instructions | 2        |

```
      00 01 02 03 04 05 06 07  08 09 0A 0B 0C 0D 0E 0F
      -- -- -- -- -- -- -- --  -- -- -- -- -- -- -- --
06D0: 53 F8 FF FF 7F F8 FF FF  7F 74 6C 62 31 00        S........tlb1.  
```

#### Opcodes

```
  0: 0x06D0 [0x53] WAIT_SCHEDULER_TASK: Wait for scheduler "tlb1" with entities [EventEntity, EventEntity]
  1: 0x06DD [0x00] END_REQSTACK()
```

### Event 65535.21

#### Metadata

| Field        | Value   |
|--------------|---------|
| Entrypoint   | 0x06DE  |
| Data Size    | 9 bytes |
| Instructions | 3       |

```
      00 01 02 03 04 05 06 07  08 09 0A 0B 0C 0D 0E 0F
      -- -- -- -- -- -- -- --  -- -- -- -- -- -- -- --
06D0:                                            5E 69                ^i
06E0: 64 6C 30 1C 24 80 00                              dl0.$..         
```

#### Opcodes

```
  0: 0x06DE [0x5E] EventEntity goes idle (kills current action) (animation: "idl0")
  1: 0x06E3 [0x1C] WAIT(60* ticks)
  2: 0x06E6 [0x00] END_REQSTACK()
```

### Event 65535.22

#### Metadata

| Field        | Value    |
|--------------|----------|
| Entrypoint   | 0x06E7   |
| Data Size    | 16 bytes |
| Instructions | 2        |

```
      00 01 02 03 04 05 06 07  08 09 0A 0B 0C 0D 0E 0F
      -- -- -- -- -- -- -- --  -- -- -- -- -- -- -- --
06E0:                      66  3B 80 F8 FF FF 7F F8 FF         f;.......
06F0: FF 7F 73 68 61 30 00                              ..sha0.         
```

#### Opcodes

```
  0: 0x06E7 [0x66] LOAD_EXT_SCHEDULER_MAIN: Load scheduler "sha0" with entities [EventEntity, EventEntity], work=69*
  1: 0x06F6 [0x00] END_REQSTACK()
```

### Event 65535.23

#### Metadata

| Field        | Value    |
|--------------|----------|
| Entrypoint   | 0x06F7   |
| Data Size    | 14 bytes |
| Instructions | 2        |

```
      00 01 02 03 04 05 06 07  08 09 0A 0B 0C 0D 0E 0F
      -- -- -- -- -- -- -- --  -- -- -- -- -- -- -- --
06F0:                      53  F8 FF FF 7F F8 FF FF 7F         S........
0700: 73 68 61 30 00                                    sha0.           
```

#### Opcodes

```
  0: 0x06F7 [0x53] WAIT_SCHEDULER_TASK: Wait for scheduler "sha0" with entities [EventEntity, EventEntity]
  1: 0x0704 [0x00] END_REQSTACK()
```

### Event 65535.24

#### Metadata

| Field        | Value    |
|--------------|----------|
| Entrypoint   | 0x0705   |
| Data Size    | 16 bytes |
| Instructions | 2        |

```
      00 01 02 03 04 05 06 07  08 09 0A 0B 0C 0D 0E 0F
      -- -- -- -- -- -- -- --  -- -- -- -- -- -- -- --
0700:                66 3B 80  F8 FF FF 7F F8 FF FF 7F       f;.........
0710: 73 69 72 30 00                                    sir0.           
```

#### Opcodes

```
  0: 0x0705 [0x66] LOAD_EXT_SCHEDULER_MAIN: Load scheduler "sir0" with entities [EventEntity, EventEntity], work=69*
  1: 0x0714 [0x00] END_REQSTACK()
```

### Event 65535.25

#### Metadata

| Field        | Value    |
|--------------|----------|
| Entrypoint   | 0x0715   |
| Data Size    | 14 bytes |
| Instructions | 2        |

```
      00 01 02 03 04 05 06 07  08 09 0A 0B 0C 0D 0E 0F
      -- -- -- -- -- -- -- --  -- -- -- -- -- -- -- --
0710:                53 F8 FF  FF 7F F8 FF FF 7F 73 69       S........si
0720: 72 30 00                                          r0.             
```

#### Opcodes

```
  0: 0x0715 [0x53] WAIT_SCHEDULER_TASK: Wait for scheduler "sir0" with entities [EventEntity, EventEntity]
  1: 0x0722 [0x00] END_REQSTACK()
```

### Event 65535.26

#### Metadata

| Field        | Value    |
|--------------|----------|
| Entrypoint   | 0x0723   |
| Data Size    | 16 bytes |
| Instructions | 2        |

```
      00 01 02 03 04 05 06 07  08 09 0A 0B 0C 0D 0E 0F
      -- -- -- -- -- -- -- --  -- -- -- -- -- -- -- --
0720:          66 3B 80 F8 FF  FF 7F F8 FF FF 7F 73 69     f;.........si
0730: 72 31 00                                          r1.             
```

#### Opcodes

```
  0: 0x0723 [0x66] LOAD_EXT_SCHEDULER_MAIN: Load scheduler "sir1" with entities [EventEntity, EventEntity], work=69*
  1: 0x0732 [0x00] END_REQSTACK()
```

### Event 65535.27

#### Metadata

| Field        | Value    |
|--------------|----------|
| Entrypoint   | 0x0733   |
| Data Size    | 14 bytes |
| Instructions | 2        |

```
      00 01 02 03 04 05 06 07  08 09 0A 0B 0C 0D 0E 0F
      -- -- -- -- -- -- -- --  -- -- -- -- -- -- -- --
0730:          53 F8 FF FF 7F  F8 FF FF 7F 73 69 72 31     S........sir1
0740: 00                                                .               
```

#### Opcodes

```
  0: 0x0733 [0x53] WAIT_SCHEDULER_TASK: Wait for scheduler "sir1" with entities [EventEntity, EventEntity]
  1: 0x0740 [0x00] END_REQSTACK()
```

### Event 65535.28

#### Metadata

| Field        | Value    |
|--------------|----------|
| Entrypoint   | 0x0741   |
| Data Size    | 16 bytes |
| Instructions | 2        |

```
      00 01 02 03 04 05 06 07  08 09 0A 0B 0C 0D 0E 0F
      -- -- -- -- -- -- -- --  -- -- -- -- -- -- -- --
0740:    66 3B 80 F8 FF FF 7F  F8 FF FF 7F 73 68 61 31   f;.........sha1
0750: 00                                                .               
```

#### Opcodes

```
  0: 0x0741 [0x66] LOAD_EXT_SCHEDULER_MAIN: Load scheduler "sha1" with entities [EventEntity, EventEntity], work=69*
  1: 0x0750 [0x00] END_REQSTACK()
```

### Event 65535.29

#### Metadata

| Field        | Value    |
|--------------|----------|
| Entrypoint   | 0x0751   |
| Data Size    | 14 bytes |
| Instructions | 2        |

```
      00 01 02 03 04 05 06 07  08 09 0A 0B 0C 0D 0E 0F
      -- -- -- -- -- -- -- --  -- -- -- -- -- -- -- --
0750:    53 F8 FF FF 7F F8 FF  FF 7F 73 68 61 31 00      S........sha1. 
```

#### Opcodes

```
  0: 0x0751 [0x53] WAIT_SCHEDULER_TASK: Wait for scheduler "sha1" with entities [EventEntity, EventEntity]
  1: 0x075E [0x00] END_REQSTACK()
```

### Event 238

#### Metadata

| Field        | Value   |
|--------------|---------|
| Entrypoint   | 0x075F  |
| Data Size    | 1 bytes |
| Instructions | 1       |

```
      00 01 02 03 04 05 06 07  08 09 0A 0B 0C 0D 0E 0F
      -- -- -- -- -- -- -- --  -- -- -- -- -- -- -- --
0750:                                               00                 .
```

#### Opcodes

```
  0: 0x075F [0x00] END_REQSTACK()
```
