# 17735849

## Common Data

| Field            | Value                  |
|------------------|------------------------|
| Zone             | Bastok Mines (ID: 234) |
| Block Size       | 11704 bytes            |
| Total Events     | 115                    |
| References Count | 184                    |

## List of Events

| Event ID                     | Entrypoint   |   Size |   Instructions |
|------------------------------|--------------|--------|----------------|
| [65535](#event-65535)        | 0x0000       |      1 |              1 |
| [513](#event-513)            | 0x0001       |      1 |              1 |
| [509](#event-509)            | 0x0002       |      1 |              1 |
| [65535.1](#event-655351)     | 0x0003       |     12 |              3 |
| [65535.2](#event-655352)     | 0x000F       |      3 |              2 |
| [65535.3](#event-655353)     | 0x0012       |     10 |              2 |
| [542](#event-542)            | 0x001C       |    308 |             37 |
| [65535.4](#event-655354)     | 0x0150       |    179 |             23 |
| [65535.5](#event-655355)     | 0x0203       |    186 |             22 |
| [65535.6](#event-655356)     | 0x02BD       |    175 |             19 |
| [65535.7](#event-655357)     | 0x036C       |    192 |             28 |
| [65535.8](#event-655358)     | 0x042C       |    199 |             29 |
| [65535.9](#event-655359)     | 0x04F3       |    147 |             17 |
| [65535.10](#event-6553510)   | 0x0586       |    147 |             17 |
| [65535.11](#event-6553511)   | 0x0619       |    147 |             17 |
| [65535.12](#event-6553512)   | 0x06AC       |    163 |             21 |
| [65535.13](#event-6553513)   | 0x074F       |    147 |             17 |
| [65535.14](#event-6553514)   | 0x07E2       |    147 |             17 |
| [65535.15](#event-6553515)   | 0x0875       |    147 |             17 |
| [65535.16](#event-6553516)   | 0x0908       |    147 |             17 |
| [65535.17](#event-6553517)   | 0x099B       |    147 |             17 |
| [65535.18](#event-6553518)   | 0x0A2E       |    147 |             17 |
| [65535.19](#event-6553519)   | 0x0AC1       |    147 |             17 |
| [65535.20](#event-6553520)   | 0x0B54       |    155 |             19 |
| [65535.21](#event-6553521)   | 0x0BEF       |    147 |             17 |
| [65535.22](#event-6553522)   | 0x0C82       |    152 |             18 |
| [65535.23](#event-6553523)   | 0x0D1A       |    472 |             64 |
| [65535.24](#event-6553524)   | 0x0EF2       |    204 |             22 |
| [65535.25](#event-6553525)   | 0x0FBE       |    351 |             45 |
| [65535.26](#event-6553526)   | 0x111D       |     92 |             12 |
| [65535.27](#event-6553527)   | 0x1179       |    140 |             18 |
| [65535.28](#event-6553528)   | 0x1205       |    152 |             19 |
| [65535.29](#event-6553529)   | 0x129D       |    155 |             20 |
| [65535.30](#event-6553530)   | 0x1338       |    125 |             18 |
| [65535.31](#event-6553531)   | 0x13B5       |    126 |             18 |
| [65535.32](#event-6553532)   | 0x1433       |    145 |             21 |
| [65535.33](#event-6553533)   | 0x14C4       |     90 |             15 |
| [65535.34](#event-6553534)   | 0x151E       |    192 |             26 |
| [65535.35](#event-6553535)   | 0x15DE       |    185 |             30 |
| [65535.36](#event-6553536)   | 0x1697       |    311 |             33 |
| [65535.37](#event-6553537)   | 0x17CE       |     64 |              8 |
| [65535.38](#event-6553538)   | 0x180E       |     79 |              9 |
| [65535.39](#event-6553539)   | 0x185D       |    134 |             14 |
| [65535.40](#event-6553540)   | 0x18E3       |     61 |              7 |
| [65535.41](#event-6553541)   | 0x1920       |     67 |              7 |
| [65535.42](#event-6553542)   | 0x1963       |     67 |              7 |
| [65535.43](#event-6553543)   | 0x19A6       |    124 |             12 |
| [65535.44](#event-6553544)   | 0x1A22       |    107 |             11 |
| [65535.45](#event-6553545)   | 0x1A8D       |    120 |             12 |
| [65535.46](#event-6553546)   | 0x1B05       |    243 |             27 |
| [65535.47](#event-6553547)   | 0x1BF8       |     10 |              2 |
| [65535.48](#event-6553548)   | 0x1C02       |     10 |              2 |
| [65535.49](#event-6553549)   | 0x1C0C       |     10 |              2 |
| [65535.50](#event-6553550)   | 0x1C16       |     10 |              2 |
| [65535.51](#event-6553551)   | 0x1C20       |     10 |              2 |
| [65535.52](#event-6553552)   | 0x1C2A       |     10 |              2 |
| [65535.53](#event-6553553)   | 0x1C34       |     60 |              9 |
| [65535.54](#event-6553554)   | 0x1C70       |     66 |             11 |
| [65535.55](#event-6553555)   | 0x1CB2       |     66 |             11 |
| [65535.56](#event-6553556)   | 0x1CF4       |     66 |             11 |
| [65535.57](#event-6553557)   | 0x1D36       |     66 |             11 |
| [65535.58](#event-6553558)   | 0x1D78       |     66 |             11 |
| [65535.59](#event-6553559)   | 0x1DBA       |     66 |             11 |
| [65535.60](#event-6553560)   | 0x1DFC       |     66 |             11 |
| [65535.61](#event-6553561)   | 0x1E3E       |     66 |             11 |
| [65535.62](#event-6553562)   | 0x1E80       |     23 |              7 |
| [65535.63](#event-6553563)   | 0x1E97       |     15 |              5 |
| [65535.64](#event-6553564)   | 0x1EA6       |     12 |              4 |
| [65535.65](#event-6553565)   | 0x1EB2       |     15 |              5 |
| [65535.66](#event-6553566)   | 0x1EC1       |     23 |              7 |
| [65535.67](#event-6553567)   | 0x1ED8       |     15 |              5 |
| [65535.68](#event-6553568)   | 0x1EE7       |     15 |              5 |
| [65535.69](#event-6553569)   | 0x1EF6       |      9 |              3 |
| [65535.70](#event-6553570)   | 0x1EFF       |     15 |              5 |
| [65535.71](#event-6553571)   | 0x1F0E       |     15 |              5 |
| [65535.72](#event-6553572)   | 0x1F1D       |     15 |              5 |
| [65535.73](#event-6553573)   | 0x1F2C       |      9 |              3 |
| [65535.74](#event-6553574)   | 0x1F35       |     15 |              5 |
| [65535.75](#event-6553575)   | 0x1F44       |     15 |              5 |
| [65535.76](#event-6553576)   | 0x1F53       |     15 |              5 |
| [65535.77](#event-6553577)   | 0x1F62       |     15 |              5 |
| [65535.78](#event-6553578)   | 0x1F71       |     15 |              5 |
| [65535.79](#event-6553579)   | 0x1F80       |     15 |              5 |
| [65535.80](#event-6553580)   | 0x1F8F       |      9 |              3 |
| [65535.81](#event-6553581)   | 0x1F98       |     66 |             11 |
| [65535.82](#event-6553582)   | 0x1FDA       |     68 |             11 |
| [65535.83](#event-6553583)   | 0x201E       |     68 |             11 |
| [65535.84](#event-6553584)   | 0x2062       |     66 |             11 |
| [65535.85](#event-6553585)   | 0x20A4       |     66 |             11 |
| [65535.86](#event-6553586)   | 0x20E6       |     66 |             11 |
| [65535.87](#event-6553587)   | 0x2128       |     66 |             11 |
| [65535.88](#event-6553588)   | 0x216A       |     68 |             11 |
| [65535.89](#event-6553589)   | 0x21AE       |     66 |             11 |
| [65535.90](#event-6553590)   | 0x21F0       |     66 |             11 |
| [65535.91](#event-6553591)   | 0x2232       |     82 |             15 |
| [65535.92](#event-6553592)   | 0x2284       |     66 |             11 |
| [65535.93](#event-6553593)   | 0x22C6       |     66 |             11 |
| [65535.94](#event-6553594)   | 0x2308       |     66 |             11 |
| [65535.95](#event-6553595)   | 0x234A       |     66 |             11 |
| [65535.96](#event-6553596)   | 0x238C       |     66 |             11 |
| [65535.97](#event-6553597)   | 0x23CE       |     66 |             11 |
| [65535.98](#event-6553598)   | 0x2410       |     66 |             11 |
| [65535.99](#event-6553599)   | 0x2452       |     66 |             11 |
| [65535.100](#event-65535100) | 0x2494       |     66 |             11 |
| [65535.101](#event-65535101) | 0x24D6       |     66 |             11 |
| [65535.102](#event-65535102) | 0x2518       |     66 |             11 |
| [65535.103](#event-65535103) | 0x255A       |     66 |             11 |
| [65535.104](#event-65535104) | 0x259C       |     66 |             11 |
| [65535.105](#event-65535105) | 0x25DE       |     66 |             11 |
| [65535.106](#event-65535106) | 0x2620       |     68 |             11 |
| [65535.107](#event-65535107) | 0x2664       |     66 |             11 |
| [65535.108](#event-65535108) | 0x26A6       |    115 |             23 |
| [525](#event-525)            | 0x2719       |    332 |             80 |
| [533](#event-533)            | 0x2865       |    139 |             34 |
| [518](#event-518)            | 0x28F0       |     10 |              4 |

## DAT References (imed_data)

|   Index | Hex Value   |   Dec Value |
|---------|-------------|-------------|
|       0 | 0xFFFFD2A8  |  4294955688 |
|       1 | 0xFFFE37C2  |  4294850498 |
|       2 | 0xFFFFFDA8  |  4294966696 |
|       3 | 0x022F      |         559 |
|       4 | 0xFFFFE73A  |  4294960954 |
|       5 | 0xFFFE61AD  |  4294861229 |
|       6 | 0x0577      |        1399 |
|       7 | 0x01C5      |         453 |
|       8 | 0x0000      |           0 |
|       9 | 0x00C8      |         200 |
|      10 | 0x001B      |          27 |
|      11 | 0x0105      |         261 |
|      12 | 0x00C5      |         197 |
|      13 | 0x003C      |          60 |
|      14 | 0x0045      |          69 |
|      15 | 0x3564      |       13668 |
|      16 | 0x3565      |       13669 |
|      17 | 0x0001      |           1 |
|      18 | 0x00FE      |         254 |
|      19 | 0x3CAD      |       15533 |
|      20 | 0x3484      |       13444 |
|      21 | 0x001E      |          30 |
|      22 | 0x0368      |         872 |
|      23 | 0x00C6      |         198 |
|      24 | 0x00EB      |         235 |
|      25 | 0x3479      |       13433 |
|      26 | 0x0326      |         806 |
|      27 | 0x347A      |       13434 |
|      28 | 0x3477      |       13431 |
|      29 | 0x00EA      |         234 |
|      30 | 0x34AF      |       13487 |
|      31 | 0x34B0      |       13488 |
|      32 | 0x3474      |       13428 |
|      33 | 0x3475      |       13429 |
|      34 | 0x3664      |       13924 |
|      35 | 0x349B      |       13467 |
|      36 | 0x349D      |       13469 |
|      37 | 0x349F      |       13471 |
|      38 | 0x34A1      |       13473 |
|      39 | 0x34A2      |       13474 |
|      40 | 0x34A3      |       13475 |
|      41 | 0x34A5      |       13477 |
|      42 | 0x34B7      |       13495 |
|      43 | 0x34B9      |       13497 |
|      44 | 0x34A7      |       13479 |
|      45 | 0x34A9      |       13481 |
|      46 | 0x34AB      |       13483 |
|      47 | 0x34AD      |       13485 |
|      48 | 0x34B1      |       13489 |
|      49 | 0x34B2      |       13490 |
|      50 | 0x34B5      |       13493 |
|      51 | 0x3478      |       13432 |
|      52 | 0x0088      |         136 |
|      53 | 0x00C7      |         199 |
|      54 | 0x369A      |       13978 |
|      55 | 0x34BF      |       13503 |
|      56 | 0x0078      |         120 |
|      57 | 0x000B      |          11 |
|      58 | 0x005A      |          90 |
|      59 | 0x34C3      |       13507 |
|      60 | 0x34C4      |       13508 |
|      61 | 0x00E0      |         224 |
|      62 | 0x036C      |         876 |
|      63 | 0x00DE      |         222 |
|      64 | 0x34C6      |       13510 |
|      65 | 0x0073      |         115 |
|      66 | 0x0009      |           9 |
|      67 | 0x000F      |          15 |
|      68 | 0x3558      |       13656 |
|      69 | 0x3559      |       13657 |
|      70 | 0x355A      |       13658 |
|      71 | 0x355B      |       13659 |
|      72 | 0x355C      |       13660 |
|      73 | 0x00FF      |         255 |
|      74 | 0x00DF      |         223 |
|      75 | 0x347E      |       13438 |
|      76 | 0x347B      |       13435 |
|      77 | 0x3476      |       13430 |
|      78 | 0x34C0      |       13504 |
|      79 | 0x036B      |         875 |
|      80 | 0x36A3      |       13987 |
|      81 | 0x34C1      |       13505 |
|      82 | 0x369B      |       13979 |
|      83 | 0x369C      |       13980 |
|      84 | 0x0003      |           3 |
|      85 | 0x369E      |       13982 |
|      86 | 0x369F      |       13983 |
|      87 | 0xA5A02     |      678402 |
|      88 | 0x55375     |      349045 |
|      89 | 0xFFFFFF87  |  4294967175 |
|      90 | 0x0623      |        1571 |
|      91 | 0x20433     |      132147 |
|      92 | 0x51355     |      332629 |
|      93 | 0xFFFFFF97  |  4294967191 |
|      94 | 0x0863      |        2147 |
|      95 | 0xFFFCE648  |  4294764104 |
|      96 | 0x6C797     |      444311 |
|      97 | 0xFFFFFCED  |  4294966509 |
|      98 | 0x0992      |        2450 |
|      99 | 0xFFFD9BE2  |  4294810594 |
|     100 | 0xFFF5846E  |  4294280302 |
|     101 | 0xFFFF0659  |  4294903385 |
|     102 | 0x0A64      |        2660 |
|     103 | 0xFFFBC50E  |  4294690062 |
|     104 | 0xFFFDFB89  |  4294835081 |
|     105 | 0xFFFFC3BB  |  4294951867 |
|     106 | 0x0955      |        2389 |
|     107 | 0xFFFA077E  |  4294575998 |
|     108 | 0xFFFBCCD5  |  4294692053 |
|     109 | 0x5FCB      |       24523 |
|     110 | 0x0B22      |        2850 |
|     111 | 0x34C5      |       13509 |
|     112 | 0x34C7      |       13511 |
|     113 | 0x34C8      |       13512 |
|     114 | 0x34C9      |       13513 |
|     115 | 0x34CA      |       13514 |
|     116 | 0x34CB      |       13515 |
|     117 | 0x34CD      |       13517 |
|     118 | 0x34CE      |       13518 |
|     119 | 0x34CF      |       13519 |
|     120 | 0x34D0      |       13520 |
|     121 | 0x34D1      |       13521 |
|     122 | 0x34D2      |       13522 |
|     123 | 0x34D3      |       13523 |
|     124 | 0x34D4      |       13524 |
|     125 | 0x34D7      |       13527 |
|     126 | 0x34D6      |       13526 |
|     127 | 0x34D8      |       13528 |
|     128 | 0x34D9      |       13529 |
|     129 | 0x34DB      |       13531 |
|     130 | 0x34DA      |       13530 |
|     131 | 0x34DC      |       13532 |
|     132 | 0x34DE      |       13534 |
|     133 | 0x34DD      |       13533 |
|     134 | 0x34DF      |       13535 |
|     135 | 0x34E0      |       13536 |
|     136 | 0x34C2      |       13506 |
|     137 | 0x0216      |         534 |
|     138 | 0x349A      |       13466 |
|     139 | 0x0899      |        2201 |
|     140 | 0x349C      |       13468 |
|     141 | 0x349E      |       13470 |
|     142 | 0x34A0      |       13472 |
|     143 | 0x34A4      |       13476 |
|     144 | 0x34A6      |       13478 |
|     145 | 0x34A8      |       13480 |
|     146 | 0x34AA      |       13482 |
|     147 | 0x34AC      |       13484 |
|     148 | 0x34AE      |       13486 |
|     149 | 0x34B3      |       13491 |
|     150 | 0x34B6      |       13494 |
|     151 | 0x34B8      |       13496 |
|     152 | 0x3196      |       12694 |
|     153 | 0x0002      |           2 |
|     154 | 0x3540      |       13632 |
|     155 | 0x00FA      |         250 |
|     156 | 0x3541      |       13633 |
|     157 | 0x3214      |       12820 |
|     158 | 0x01DF      |         479 |
|     159 | 0x001F      |          31 |
|     160 | 0x3542      |       13634 |
|     161 | 0x4E20      |       20000 |
|     162 | 0x3543      |       13635 |
|     163 | 0x3544      |       13636 |
|     164 | 0x321B      |       12827 |
|     165 | 0x3545      |       13637 |
|     166 | 0x00DD      |         221 |
|     167 | 0x012C      |         300 |
|     168 | 0x3539      |       13625 |
|     169 | 0x353A      |       13626 |
|     170 | 0x320C      |       12812 |
|     171 | 0x01EF      |         495 |
|     172 | 0x3546      |       13638 |
|     173 | 0x093E      |        2366 |
|     174 | 0x3547      |       13639 |
|     175 | 0x354B      |       13643 |
|     176 | 0x354C      |       13644 |
|     177 | 0x01DC      |         476 |
|     178 | 0x3548      |       13640 |
|     179 | 0x321F      |       12831 |
|     180 | 0x3549      |       13641 |
|     181 | 0x00DC      |         220 |
|     182 | 0x354A      |       13642 |
|     183 | 0x3555      |       13653 |

## String References

- **12694**: What would you like to do? [Receive your $0./Purchase $0./Ask for a chococard./Register to call your chocobo./----/----/----/----/----/----/----/----/----/----/----/----/----/----/----/----/----/----/----/----/----/----/----/----/----/----/----/Nothing.]
- **12812**: Purchase a chococard? ($0 gil each) [Yes./Not now.]
- **12820**: Register a chocobo? ($0 gil) [Yes./Not now.]
- **12827**: Purchase $0? ($1 gil) [Yes./Not now.]
- **12831**: Pay for a new whistle? ($1 gil) [Yes, please./Not yet.]
- **13924**: You obtain $6!

## Events

### Event 65535

#### Metadata

| Field        | Value   |
|--------------|---------|
| Entrypoint   | 0x0000  |
| Data Size    | 1 bytes |
| Instructions | 1       |

```
      00 01 02 03 04 05 06 07  08 09 0A 0B 0C 0D 0E 0F
      -- -- -- -- -- -- -- --  -- -- -- -- -- -- -- --
0000: 00                                                .               
```

#### Opcodes

```
  0: 0x0000 [0x00] END_REQSTACK()
```

### Event 513

#### Metadata

| Field        | Value   |
|--------------|---------|
| Entrypoint   | 0x0001  |
| Data Size    | 1 bytes |
| Instructions | 1       |

```
      00 01 02 03 04 05 06 07  08 09 0A 0B 0C 0D 0E 0F
      -- -- -- -- -- -- -- --  -- -- -- -- -- -- -- --
0000:    00                                              .              
```

#### Opcodes

```
  0: 0x0001 [0x00] END_REQSTACK()
```

### Event 509

#### Metadata

| Field        | Value   |
|--------------|---------|
| Entrypoint   | 0x0002  |
| Data Size    | 1 bytes |
| Instructions | 1       |

```
      00 01 02 03 04 05 06 07  08 09 0A 0B 0C 0D 0E 0F
      -- -- -- -- -- -- -- --  -- -- -- -- -- -- -- --
0000:       00                                            .             
```

#### Opcodes

```
  0: 0x0002 [0x00] END_REQSTACK()
```

### Event 65535.1

#### Metadata

| Field        | Value    |
|--------------|----------|
| Entrypoint   | 0x0003   |
| Data Size    | 12 bytes |
| Instructions | 3        |

```
      00 01 02 03 04 05 06 07  08 09 0A 0B 0C 0D 0E 0F
      -- -- -- -- -- -- -- --  -- -- -- -- -- -- -- --
0000:          33 01 37 00 80  01 80 02 80 03 80 00        3.7......... 
```

#### Opcodes

```
  0: 0x0003 [0x33] EventEntity->Render.Flags0 |= 0x200000 // Bit 21 (flag=0x01)
  1: 0x0005 [0x37] UPDATE_EVENT_POSITION_AND_DIR: x=-11.608*, z=-116.798*, y=-0.600*, direction=49.1°*
  2: 0x000E [0x00] END_REQSTACK()
```

### Event 65535.2

#### Metadata

| Field        | Value   |
|--------------|---------|
| Entrypoint   | 0x000F  |
| Data Size    | 3 bytes |
| Instructions | 2       |

```
      00 01 02 03 04 05 06 07  08 09 0A 0B 0C 0D 0E 0F
      -- -- -- -- -- -- -- --  -- -- -- -- -- -- -- --
0000:                                               33                 3
0010: 00 00                                             ..              
```

#### Opcodes

```
  0: 0x000F [0x33] EventEntity->Render.Flags0 &= ~ 0x200000 // Bit 21 (flag=0x00)
  1: 0x0011 [0x00] END_REQSTACK()
```

### Event 65535.3

#### Metadata

| Field        | Value    |
|--------------|----------|
| Entrypoint   | 0x0012   |
| Data Size    | 10 bytes |
| Instructions | 2        |

```
      00 01 02 03 04 05 06 07  08 09 0A 0B 0C 0D 0E 0F
      -- -- -- -- -- -- -- --  -- -- -- -- -- -- -- --
0010:       37 04 80 05 80 06  80 07 80 00                7.........    
```

#### Opcodes

```
  0: 0x0012 [0x37] UPDATE_EVENT_POSITION_AND_DIR: x=-6.342*, z=-106.067*, y=1.399*, direction=39.8°*
  1: 0x001B [0x00] END_REQSTACK()
```

### Event 542

#### Metadata

| Field        | Value     |
|--------------|-----------|
| Entrypoint   | 0x001C    |
| Data Size    | 308 bytes |
| Instructions | 37        |

```
      00 01 02 03 04 05 06 07  08 09 0A 0B 0C 0D 0E 0F
      -- -- -- -- -- -- -- --  -- -- -- -- -- -- -- --
0010:                                      42 03 01 10              B...
0020: 08 80 45 09 80 F8 FF FF  7F F8 FF FF 7F 66 64 6F  ..E..........fdo
0030: 31 08 80 55 09 80 F8 FF  FF 7F F8 FF FF 7F 66 64  1..U..........fd
0040: 6F 31 46 01 38 0A 80 75  00 0B 80 75 01 29 05 F0  o1F.8..u...u.)..
0050: FF FF 7F 5B 1E F0 FF FF  7F 4A F0 FF FF 7F 90 A0  ...[.....J......
0060: 0E 01 02 02 10 08 80 00  AC 00 45 0C 80 F8 FF FF  ..........E.....
0070: 7F F8 FF FF 7F 73 32 34  35 08 80 1C 0D 80 45 09  .....s245.....E.
0080: 80 F8 FF FF 7F F8 FF FF  7F 66 64 69 31 08 80 1C  .........fdi1...
0090: 0D 80 66 0E 80 90 A0 0E  01 90 A0 0E 01 74 6C 6B  ..f..........tlk
00A0: 30 2B 90 A0 0E 01 0F 80  23 01 EB 00 45 0C 80 F8  0+......#...E...
00B0: FF FF 7F F8 FF FF 7F 73  32 34 36 08 80 1C 0D 80  .......s246.....
00C0: 45 09 80 F8 FF FF 7F F8  FF FF 7F 66 64 69 31 08  E..........fdi1.
00D0: 80 1C 0D 80 66 0E 80 90  A0 0E 01 90 A0 0E 01 74  ....f..........t
00E0: 6C 6B 30 2B 90 A0 0E 01  10 80 23 66 0E 80 90 A0  lk0+......#f....
00F0: 0E 01 90 A0 0E 01 74 6C  6B 31 45 09 80 F8 FF FF  ......tlk1E.....
0100: 7F F8 FF FF 7F 66 64 6F  31 08 80 55 09 80 F8 FF  .....fdo1..U....
0110: FF 7F F8 FF FF 7F 66 64  6F 31 52 0C 80 F8 FF FF  ......fdo1R.....
0120: 7F F8 FF FF 7F 73 32 34  35 52 0C 80 F8 FF FF 7F  .....s245R......
0130: F8 FF FF 7F 73 32 34 36  46 00 1C 0D 80 45 09 80  ....s246F....E..
0140: F8 FF FF 7F F8 FF FF 7F  66 64 69 31 08 80 21 00  ........fdi1..!.
```

#### Opcodes

```
  0: 0x001C [0x42] SET_CLI_EVENT_CANCEL_DATA()
  1: 0x001D [0x03] Work_Zone[1] = 0*
  2: 0x0022 [0x45] LOAD_SCHEDULED_TASK: Load scheduler "fdo1" with entities [EventEntity, EventEntity], work=[200*, 0*]
  3: 0x0033 [0x55] WAIT_LOAD_SCHEDULER: Wait for scheduler "fdo1" with entities [EventEntity, EventEntity], work=200*
  4: 0x0042 [0x46] CAMERA_CONTROL: Disable user control
  5: 0x0044 [0x38] SET_CLIENT_EVENT_MODE(mode=27*)
  6: 0x0047 [0x75] LOAD_ROOM(Load indoor room, room=261*)
  7: 0x004B [0x75] LOAD_ROOM(No action)
  8: 0x004D [0x29] REQ_SET_WAIT(priority=0x05, entity_id=LocalPlayer, tag_num=0x5B)
  9: 0x0054 [0x1E] EventEntity looks at LocalPlayer and starts talking
 10: 0x0059 [0x4A] LocalPlayer looks at Zopago (ID: 17735824/0x010EA090)
 11: 0x0062 [0x02] IF !(Work_Zone[2] == 0*) GOTO 0x00AC
 12: 0x006A [0x45] LOAD_SCHEDULED_TASK: Load scheduler "s245" with entities [EventEntity, EventEntity], work=[197*, 0*]
 13: 0x007B [0x1C] WAIT(60* ticks)
 14: 0x007E [0x45] LOAD_SCHEDULED_TASK: Load scheduler "fdi1" with entities [EventEntity, EventEntity], work=[200*, 0*]
 15: 0x008F [0x1C] WAIT(60* ticks)
 16: 0x0092 [0x66] LOAD_EXT_SCHEDULER_MAIN: Load scheduler "tlk0" with entities [Zopago (ID: 17735824/0x010EA090), Zopago (ID: 17735824/0x010EA090)], work=69*
 17: 0x00A1 [0x2B] Zopago (ID: 17735824/0x010EA090) [13668*]:
    → "The chick's owner came and picked it up not long ago. I'm glad we found its rightful home."
 18: 0x00A8 [0x23] WAIT_FOR_DIALOG_INTERACTION
 19: 0x00A9 [0x01] GOTO 0x00EB
 20: 0x00AC [0x45] LOAD_SCHEDULED_TASK: Load scheduler "s246" with entities [EventEntity, EventEntity], work=[197*, 0*]
 21: 0x00BD [0x1C] WAIT(60* ticks)
 22: 0x00C0 [0x45] LOAD_SCHEDULED_TASK: Load scheduler "fdi1" with entities [EventEntity, EventEntity], work=[200*, 0*]
 23: 0x00D1 [0x1C] WAIT(60* ticks)
 24: 0x00D4 [0x66] LOAD_EXT_SCHEDULER_MAIN: Load scheduler "tlk0" with entities [Zopago (ID: 17735824/0x010EA090), Zopago (ID: 17735824/0x010EA090)], work=69*
 25: 0x00E3 [0x2B] Zopago (ID: 17735824/0x010EA090) [13669*]:
    → "I found the chick's owner and returned it to its home."
 26: 0x00EA [0x23] WAIT_FOR_DIALOG_INTERACTION

SUBROUTINE_00EB:
 27: 0x00EB [0x66] LOAD_EXT_SCHEDULER_MAIN: Load scheduler "tlk1" with entities [Zopago (ID: 17735824/0x010EA090), Zopago (ID: 17735824/0x010EA090)], work=69*
 28: 0x00FA [0x45] LOAD_SCHEDULED_TASK: Load scheduler "fdo1" with entities [EventEntity, EventEntity], work=[200*, 0*]
 29: 0x010B [0x55] WAIT_LOAD_SCHEDULER: Wait for scheduler "fdo1" with entities [EventEntity, EventEntity], work=200*
 30: 0x011A [0x52] END_LOAD_SCHEDULER: End scheduler "s245" with entities [EventEntity, EventEntity], work=197*
 31: 0x0129 [0x52] END_LOAD_SCHEDULER: End scheduler "s246" with entities [EventEntity, EventEntity], work=197*
 32: 0x0138 [0x46] CAMERA_CONTROL: Restore default settings
 33: 0x013A [0x1C] WAIT(60* ticks)
 34: 0x013D [0x45] LOAD_SCHEDULED_TASK: Load scheduler "fdi1" with entities [EventEntity, EventEntity], work=[200*, 0*]
 35: 0x014E [0x21] END_EVENT
 36: 0x014F [0x00] END_REQSTACK()
```

### Event 65535.4

#### Metadata

| Field        | Value     |
|--------------|-----------|
| Entrypoint   | 0x0150    |
| Data Size    | 179 bytes |
| Instructions | 23        |

```
      00 01 02 03 04 05 06 07  08 09 0A 0B 0C 0D 0E 0F
      -- -- -- -- -- -- -- --  -- -- -- -- -- -- -- --
0150: 75 00 0B 80 75 01 78 1C  11 80 22 00 29 05 F0 FF  u...u.x...".)...
0160: FF 7F 5B 80 90 A0 0E 01  92 01 90 A0 0E 01 4A F0  ..[...........J.
0170: FF FF 7F 90 A0 0E 01 4A  90 A0 0E 01 F0 FF FF 7F  .......J........
0180: 45 12 80 F8 FF FF 7F F8  FF FF 7F 73 31 31 38 08  E..........s118.
0190: 80 1C 0D 80 45 09 80 F8  FF FF 7F F8 FF FF 7F 66  ....E..........f
01A0: 64 69 31 08 80 1C 0D 80  66 0E 80 90 A0 0E 01 90  di1.....f.......
01B0: A0 0E 01 74 6C 6B 30 03  02 10 13 80 2B 90 A0 0E  ...tlk0.....+...
01C0: 01 14 80 23 66 0E 80 90  A0 0E 01 90 A0 0E 01 74  ...#f..........t
01D0: 6C 6B 31 45 09 80 F8 FF  FF 7F F8 FF FF 7F 66 64  lk1E..........fd
01E0: 6F 31 08 80 55 09 80 F8  FF FF 7F F8 FF FF 7F 66  o1..U..........f
01F0: 64 6F 31 52 12 80 F8 FF  FF 7F F8 FF FF 7F 73 31  do1R..........s1
0200: 31 38 00                                          18.             
```

#### Opcodes

```
  0: 0x0150 [0x75] LOAD_ROOM(Load indoor room, room=261*)
  1: 0x0154 [0x75] LOAD_ROOM(No action)
  2: 0x0156 [0x78] ENABLE_GAME_TIMER_RESET_WEATHER()
  3: 0x0157 [0x1C] WAIT(1* ticks)
  4: 0x015A [0x22] ENTITY_HIDE_FLAG(enabled=0x00)
  5: 0x015C [0x29] REQ_SET_WAIT(priority=0x05, entity_id=LocalPlayer, tag_num=0x5B)
  6: 0x0163 [0x80] LOAD_WAIT(entity=Zopago (ID: 17735824/0x010EA090))
  7: 0x0168 [0x92] Zopago (ID: 17735824/0x010EA090)->Render.Flags3 ^= 0x01
  8: 0x016E [0x4A] LocalPlayer looks at Zopago (ID: 17735824/0x010EA090)
  9: 0x0177 [0x4A] Zopago (ID: 17735824/0x010EA090) looks at LocalPlayer
 10: 0x0180 [0x45] LOAD_SCHEDULED_TASK: Load scheduler "s118" with entities [EventEntity, EventEntity], work=[254*, 0*]
 11: 0x0191 [0x1C] WAIT(60* ticks)
 12: 0x0194 [0x45] LOAD_SCHEDULED_TASK: Load scheduler "fdi1" with entities [EventEntity, EventEntity], work=[200*, 0*]
 13: 0x01A5 [0x1C] WAIT(60* ticks)
 14: 0x01A8 [0x66] LOAD_EXT_SCHEDULER_MAIN: Load scheduler "tlk0" with entities [Zopago (ID: 17735824/0x010EA090), Zopago (ID: 17735824/0x010EA090)], work=69*
 15: 0x01B7 [0x03] Work_Zone[2] = 15533*
 16: 0x01BC [0x2B] Zopago (ID: 17735824/0x010EA090) [13444*]:
    → "You'll need $0 in order to call it in the field. You can get one at the chocobo stables in San d'Oria."
 17: 0x01C3 [0x23] WAIT_FOR_DIALOG_INTERACTION
 18: 0x01C4 [0x66] LOAD_EXT_SCHEDULER_MAIN: Load scheduler "tlk1" with entities [Zopago (ID: 17735824/0x010EA090), Zopago (ID: 17735824/0x010EA090)], work=69*
 19: 0x01D3 [0x45] LOAD_SCHEDULED_TASK: Load scheduler "fdo1" with entities [EventEntity, EventEntity], work=[200*, 0*]
 20: 0x01E4 [0x55] WAIT_LOAD_SCHEDULER: Wait for scheduler "fdo1" with entities [EventEntity, EventEntity], work=200*
 21: 0x01F3 [0x52] END_LOAD_SCHEDULER: End scheduler "s118" with entities [EventEntity, EventEntity], work=254*
 22: 0x0202 [0x00] END_REQSTACK()
```

### Event 65535.5

#### Metadata

| Field        | Value     |
|--------------|-----------|
| Entrypoint   | 0x0203    |
| Data Size    | 186 bytes |
| Instructions | 22        |

```
      00 01 02 03 04 05 06 07  08 09 0A 0B 0C 0D 0E 0F
      -- -- -- -- -- -- -- --  -- -- -- -- -- -- -- --
0200:          29 05 91 A0 0E  01 05 80 91 A0 0E 01 1C     )............
0210: 15 80 5B 16 80 91 A0 0E  01 91 A0 0E 01 68 69 30  ..[..........hi0
0220: 33 45 17 80 F8 FF FF 7F  F8 FF FF 7F 73 31 37 34  3E..........s174
0230: 08 80 1C 0D 80 45 09 80  F8 FF FF 7F F8 FF FF 7F  .....E..........
0240: 66 64 69 31 08 80 9F 18  80 91 A0 0E 01 91 A0 0E  fdi1............
0250: 01 73 74 72 30 08 80 1C  0D 80 1A 23 28 2B 90 A0  .str0......#(+..
0260: 0E 01 19 80 23 03 02 10  1A 80 2B 90 A0 0E 01 1B  ....#.....+.....
0270: 80 23 45 09 80 F8 FF FF  7F F8 FF FF 7F 66 64 6F  .#E..........fdo
0280: 31 08 80 55 09 80 F8 FF  FF 7F F8 FF FF 7F 66 64  1..U..........fd
0290: 6F 31 52 17 80 F8 FF FF  7F F8 FF FF 7F 73 31 37  o1R..........s17
02A0: 34 9F 18 80 91 A0 0E 01  91 A0 0E 01 73 74 6F 70  4...........stop
02B0: 08 80 6B 69 64 6C 30 91  A0 0E 01 78 00           ..kidl0....x.   
```

#### Opcodes

```
  0: 0x0203 [0x29] REQ_SET_WAIT(priority=0x05, entity_id=Unnamed NPC (ID: 17735825/0x010EA091), tag_num=0x05)
  1: 0x020A [0x80] LOAD_WAIT(entity=Unnamed NPC (ID: 17735825/0x010EA091))
  2: 0x020F [0x1C] WAIT(30* ticks)
  3: 0x0212 [0x5B] LOAD_EXT_SCHEDULER: Load scheduler "hi03" with entities [Unnamed NPC (ID: 17735825/0x010EA091), Unnamed NPC (ID: 17735825/0x010EA091)], work=872*
  4: 0x0221 [0x45] LOAD_SCHEDULED_TASK: Load scheduler "s174" with entities [EventEntity, EventEntity], work=[198*, 0*]
  5: 0x0232 [0x1C] WAIT(60* ticks)
  6: 0x0235 [0x45] LOAD_SCHEDULED_TASK: Load scheduler "fdi1" with entities [EventEntity, EventEntity], work=[200*, 0*]
  7: 0x0246 [0x9F] LOAD_SCHEDULED_TASK_ALT: Load scheduler "str0" with entities [Unnamed NPC (ID: 17735825/0x010EA091), Unnamed NPC (ID: 17735825/0x010EA091)], work=[235*, 0*]
  8: 0x0257 [0x1C] WAIT(60* ticks)
  9: 0x025A [0x1A] CALL_SUBROUTINE(address=0x2823)
 10: 0x025D [0x2B] Zopago (ID: 17735824/0x010EA090) [13433*]:
    → "I haven't seen you around lately, so I gave the chick something myself to help it sleep better."
 11: 0x0264 [0x23] WAIT_FOR_DIALOG_INTERACTION
 12: 0x0265 [0x03] Work_Zone[2] = 806*
 13: 0x026A [0x2B] Zopago (ID: 17735824/0x010EA090) [13434*]:
    → "I'll get rid of the $3 for you."
 14: 0x0271 [0x23] WAIT_FOR_DIALOG_INTERACTION
 15: 0x0272 [0x45] LOAD_SCHEDULED_TASK: Load scheduler "fdo1" with entities [EventEntity, EventEntity], work=[200*, 0*]
 16: 0x0283 [0x55] WAIT_LOAD_SCHEDULER: Wait for scheduler "fdo1" with entities [EventEntity, EventEntity], work=200*
 17: 0x0292 [0x52] END_LOAD_SCHEDULER: End scheduler "s174" with entities [EventEntity, EventEntity], work=198*
 18: 0x02A1 [0x9F] LOAD_SCHEDULED_TASK_ALT: Load scheduler "stop" with entities [Unnamed NPC (ID: 17735825/0x010EA091), Unnamed NPC (ID: 17735825/0x010EA091)], work=[235*, 0*]
 19: 0x02B2 [0x6B] STOP_AND_IDLE: Unnamed NPC (ID: 17735825/0x010EA091) stops current action and resets to idle (animation="idl0")
 20: 0x02BB [0x78] ENABLE_GAME_TIMER_RESET_WEATHER()
 21: 0x02BC [0x00] END_REQSTACK()
```

### Event 65535.6

#### Metadata

| Field        | Value     |
|--------------|-----------|
| Entrypoint   | 0x02BD    |
| Data Size    | 175 bytes |
| Instructions | 19        |

```
      00 01 02 03 04 05 06 07  08 09 0A 0B 0C 0D 0E 0F
      -- -- -- -- -- -- -- --  -- -- -- -- -- -- -- --
02B0:                                         29 05 91               )..
02C0: A0 0E 01 04 80 91 A0 0E  01 1C 15 80 5B 16 80 91  ............[...
02D0: A0 0E 01 91 A0 0E 01 68  69 30 32 45 17 80 F8 FF  .......hi02E....
02E0: FF 7F F8 FF FF 7F 73 31  37 39 08 80 45 17 80 F8  ......s179..E...
02F0: FF FF 7F F8 FF FF 7F 73  68 6E 61 08 80 1C 0D 80  .......shna.....
0300: 45 09 80 F8 FF FF 7F F8  FF FF 7F 66 64 69 31 08  E..........fdi1.
0310: 80 1C 0D 80 1A 23 28 2B  90 A0 0E 01 1C 80 23 1A  .....#(+......#.
0320: 2E 28 45 09 80 F8 FF FF  7F F8 FF FF 7F 66 64 6F  .(E..........fdo
0330: 31 08 80 55 09 80 F8 FF  FF 7F F8 FF FF 7F 66 64  1..U..........fd
0340: 6F 31 52 17 80 F8 FF FF  7F F8 FF FF 7F 73 31 37  o1R..........s17
0350: 39 6B 69 64 6C 30 91 A0  0E 01 45 17 80 F8 FF FF  9kidl0....E.....
0360: 7F F8 FF FF 7F 65 68 6E  61 08 80 00              .....ehna...    
```

#### Opcodes

```
  0: 0x02BD [0x29] REQ_SET_WAIT(priority=0x05, entity_id=Unnamed NPC (ID: 17735825/0x010EA091), tag_num=0x04)
  1: 0x02C4 [0x80] LOAD_WAIT(entity=Unnamed NPC (ID: 17735825/0x010EA091))
  2: 0x02C9 [0x1C] WAIT(30* ticks)
  3: 0x02CC [0x5B] LOAD_EXT_SCHEDULER: Load scheduler "hi02" with entities [Unnamed NPC (ID: 17735825/0x010EA091), Unnamed NPC (ID: 17735825/0x010EA091)], work=872*
  4: 0x02DB [0x45] LOAD_SCHEDULED_TASK: Load scheduler "s179" with entities [EventEntity, EventEntity], work=[198*, 0*]
  5: 0x02EC [0x45] LOAD_SCHEDULED_TASK: Load scheduler "shna" with entities [EventEntity, EventEntity], work=[198*, 0*]
  6: 0x02FD [0x1C] WAIT(60* ticks)
  7: 0x0300 [0x45] LOAD_SCHEDULED_TASK: Load scheduler "fdi1" with entities [EventEntity, EventEntity], work=[200*, 0*]
  8: 0x0311 [0x1C] WAIT(60* ticks)
  9: 0x0314 [0x1A] CALL_SUBROUTINE(address=0x2823)
 10: 0x0317 [0x2B] Zopago (ID: 17735824/0x010EA090) [13431*]:
    → "$0 should be able to sleep well with this."
 11: 0x031E [0x23] WAIT_FOR_DIALOG_INTERACTION
 12: 0x031F [0x1A] CALL_SUBROUTINE(address=0x282E)
 13: 0x0322 [0x45] LOAD_SCHEDULED_TASK: Load scheduler "fdo1" with entities [EventEntity, EventEntity], work=[200*, 0*]
 14: 0x0333 [0x55] WAIT_LOAD_SCHEDULER: Wait for scheduler "fdo1" with entities [EventEntity, EventEntity], work=200*
 15: 0x0342 [0x52] END_LOAD_SCHEDULER: End scheduler "s179" with entities [EventEntity, EventEntity], work=198*
 16: 0x0351 [0x6B] STOP_AND_IDLE: Unnamed NPC (ID: 17735825/0x010EA091) stops current action and resets to idle (animation="idl0")
 17: 0x035A [0x45] LOAD_SCHEDULED_TASK: Load scheduler "ehna" with entities [EventEntity, EventEntity], work=[198*, 0*]
 18: 0x036B [0x00] END_REQSTACK()
```

### Event 65535.7

#### Metadata

| Field        | Value     |
|--------------|-----------|
| Entrypoint   | 0x036C    |
| Data Size    | 192 bytes |
| Instructions | 28        |

```
      00 01 02 03 04 05 06 07  08 09 0A 0B 0C 0D 0E 0F
      -- -- -- -- -- -- -- --  -- -- -- -- -- -- -- --
0360:                                      35 1D 80 78              5..x
0370: 75 00 0B 80 75 01 1C 11  80 22 00 80 90 A0 0E 01  u...u...."......
0380: 92 01 90 A0 0E 01 29 05  F0 FF FF 7F 5B 4A F0 FF  ......).....[J..
0390: FF 7F 90 A0 0E 01 4A 90  A0 0E 01 F0 FF FF 7F 45  ......J........E
03A0: 12 80 F8 FF FF 7F F8 FF  FF 7F 73 31 33 34 08 80  ..........s134..
03B0: 1C 0D 80 45 09 80 F8 FF  FF 7F F8 FF FF 7F 66 64  ...E..........fd
03C0: 69 31 08 80 1C 0D 80 1A  23 28 66 0E 80 90 A0 0E  i1......#(f.....
03D0: 01 90 A0 0E 01 74 6C 6B  30 2B 90 A0 0E 01 1E 80  .....tlk0+......
03E0: 23 66 0E 80 90 A0 0E 01  90 A0 0E 01 74 6C 6B 31  #f..........tlk1
03F0: 2B 90 A0 0E 01 1F 80 23  1A 2E 28 45 09 80 F8 FF  +......#..(E....
0400: FF 7F F8 FF FF 7F 66 64  6F 31 08 80 55 09 80 F8  ......fdo1..U...
0410: FF FF 7F F8 FF FF 7F 66  64 6F 31 52 12 80 F8 FF  .......fdo1R....
0420: FF 7F F8 FF FF 7F 73 31  33 34 78 00              ......s134x.    
```

#### Opcodes

```
  0: 0x036C [0x35] LOAD_ZONE_NO_CLOSE(zone_id=234*)
  1: 0x036F [0x78] ENABLE_GAME_TIMER_RESET_WEATHER()
  2: 0x0370 [0x75] LOAD_ROOM(Load indoor room, room=261*)
  3: 0x0374 [0x75] LOAD_ROOM(No action)
  4: 0x0376 [0x1C] WAIT(1* ticks)
  5: 0x0379 [0x22] ENTITY_HIDE_FLAG(enabled=0x00)
  6: 0x037B [0x80] LOAD_WAIT(entity=Zopago (ID: 17735824/0x010EA090))
  7: 0x0380 [0x92] Zopago (ID: 17735824/0x010EA090)->Render.Flags3 ^= 0x01
  8: 0x0386 [0x29] REQ_SET_WAIT(priority=0x05, entity_id=LocalPlayer, tag_num=0x5B)
  9: 0x038D [0x4A] LocalPlayer looks at Zopago (ID: 17735824/0x010EA090)
 10: 0x0396 [0x4A] Zopago (ID: 17735824/0x010EA090) looks at LocalPlayer
 11: 0x039F [0x45] LOAD_SCHEDULED_TASK: Load scheduler "s134" with entities [EventEntity, EventEntity], work=[254*, 0*]
 12: 0x03B0 [0x1C] WAIT(60* ticks)
 13: 0x03B3 [0x45] LOAD_SCHEDULED_TASK: Load scheduler "fdi1" with entities [EventEntity, EventEntity], work=[200*, 0*]
 14: 0x03C4 [0x1C] WAIT(60* ticks)
 15: 0x03C7 [0x1A] CALL_SUBROUTINE(address=0x2823)
 16: 0x03CA [0x66] LOAD_EXT_SCHEDULER_MAIN: Load scheduler "tlk0" with entities [Zopago (ID: 17735824/0x010EA090), Zopago (ID: 17735824/0x010EA090)], work=69*
 17: 0x03D9 [0x2B] Zopago (ID: 17735824/0x010EA090) [13487*]:
    → "I think it just wants attention, though..."
 18: 0x03E0 [0x23] WAIT_FOR_DIALOG_INTERACTION
 19: 0x03E1 [0x66] LOAD_EXT_SCHEDULER_MAIN: Load scheduler "tlk1" with entities [Zopago (ID: 17735824/0x010EA090), Zopago (ID: 17735824/0x010EA090)], work=69*
 20: 0x03F0 [0x2B] Zopago (ID: 17735824/0x010EA090) [13488*]:
    → "It should come back if we wait a while."
 21: 0x03F7 [0x23] WAIT_FOR_DIALOG_INTERACTION
 22: 0x03F8 [0x1A] CALL_SUBROUTINE(address=0x282E)
 23: 0x03FB [0x45] LOAD_SCHEDULED_TASK: Load scheduler "fdo1" with entities [EventEntity, EventEntity], work=[200*, 0*]
 24: 0x040C [0x55] WAIT_LOAD_SCHEDULER: Wait for scheduler "fdo1" with entities [EventEntity, EventEntity], work=200*
 25: 0x041B [0x52] END_LOAD_SCHEDULER: End scheduler "s134" with entities [EventEntity, EventEntity], work=254*
 26: 0x042A [0x78] ENABLE_GAME_TIMER_RESET_WEATHER()
 27: 0x042B [0x00] END_REQSTACK()
```

### Event 65535.8

#### Metadata

| Field        | Value     |
|--------------|-----------|
| Entrypoint   | 0x042C    |
| Data Size    | 199 bytes |
| Instructions | 29        |

```
      00 01 02 03 04 05 06 07  08 09 0A 0B 0C 0D 0E 0F
      -- -- -- -- -- -- -- --  -- -- -- -- -- -- -- --
0420:                                      35 1D 80 78              5..x
0430: 75 00 0B 80 75 01 1C 11  80 22 00 80 90 A0 0E 01  u...u...."......
0440: 92 01 90 A0 0E 01 29 05  F0 FF FF 7F 5B 4A F0 FF  ......).....[J..
0450: FF 7F 90 A0 0E 01 4A 90  A0 0E 01 F0 FF FF 7F 45  ......J........E
0460: 12 80 F8 FF FF 7F F8 FF  FF 7F 73 31 33 35 08 80  ..........s135..
0470: 1C 0D 80 45 09 80 F8 FF  FF 7F F8 FF FF 7F 66 64  ...E..........fd
0480: 69 31 08 80 1C 0D 80 66  0E 80 90 A0 0E 01 90 A0  i1.....f........
0490: 0E 01 74 6C 6B 30 03 02  10 1A 80 2B 90 A0 0E 01  ..tlk0.....+....
04A0: 20 80 23 66 0E 80 90 A0  0E 01 90 A0 0E 01 74 6C   .#f..........tl
04B0: 6B 31 1A 23 28 2B 90 A0  0E 01 21 80 23 1A 2E 28  k1.#(+....!.#..(
04C0: 48 22 80 45 09 80 F8 FF  FF 7F F8 FF FF 7F 66 64  H".E..........fd
04D0: 6F 31 08 80 55 09 80 F8  FF FF 7F F8 FF FF 7F 66  o1..U..........f
04E0: 64 6F 31 52 12 80 F8 FF  FF 7F F8 FF FF 7F 73 31  do1R..........s1
04F0: 33 35 00                                          35.             
```

#### Opcodes

```
  0: 0x042C [0x35] LOAD_ZONE_NO_CLOSE(zone_id=234*)
  1: 0x042F [0x78] ENABLE_GAME_TIMER_RESET_WEATHER()
  2: 0x0430 [0x75] LOAD_ROOM(Load indoor room, room=261*)
  3: 0x0434 [0x75] LOAD_ROOM(No action)
  4: 0x0436 [0x1C] WAIT(1* ticks)
  5: 0x0439 [0x22] ENTITY_HIDE_FLAG(enabled=0x00)
  6: 0x043B [0x80] LOAD_WAIT(entity=Zopago (ID: 17735824/0x010EA090))
  7: 0x0440 [0x92] Zopago (ID: 17735824/0x010EA090)->Render.Flags3 ^= 0x01
  8: 0x0446 [0x29] REQ_SET_WAIT(priority=0x05, entity_id=LocalPlayer, tag_num=0x5B)
  9: 0x044D [0x4A] LocalPlayer looks at Zopago (ID: 17735824/0x010EA090)
 10: 0x0456 [0x4A] Zopago (ID: 17735824/0x010EA090) looks at LocalPlayer
 11: 0x045F [0x45] LOAD_SCHEDULED_TASK: Load scheduler "s135" with entities [EventEntity, EventEntity], work=[254*, 0*]
 12: 0x0470 [0x1C] WAIT(60* ticks)
 13: 0x0473 [0x45] LOAD_SCHEDULED_TASK: Load scheduler "fdi1" with entities [EventEntity, EventEntity], work=[200*, 0*]
 14: 0x0484 [0x1C] WAIT(60* ticks)
 15: 0x0487 [0x66] LOAD_EXT_SCHEDULER_MAIN: Load scheduler "tlk0" with entities [Zopago (ID: 17735824/0x010EA090), Zopago (ID: 17735824/0x010EA090)], work=69*
 16: 0x0496 [0x03] Work_Zone[2] = 806*
 17: 0x049B [0x2B] Zopago (ID: 17735824/0x010EA090) [13428*]:
    → "I've got an idea. Could you hold on to this $3 for a while?"
 18: 0x04A2 [0x23] WAIT_FOR_DIALOG_INTERACTION
 19: 0x04A3 [0x66] LOAD_EXT_SCHEDULER_MAIN: Load scheduler "tlk1" with entities [Zopago (ID: 17735824/0x010EA090), Zopago (ID: 17735824/0x010EA090)], work=69*
 20: 0x04B2 [0x1A] CALL_SUBROUTINE(address=0x2823)
 21: 0x04B5 [0x2B] Zopago (ID: 17735824/0x010EA090) [13429*]:
    → "Having something with your scent and warmth on it should comfort the chick."
 22: 0x04BC [0x23] WAIT_FOR_DIALOG_INTERACTION
 23: 0x04BD [0x1A] CALL_SUBROUTINE(address=0x282E)
 24: 0x04C0 [0x48] [System] [13924*]:
    → "You obtain $6!"
 25: 0x04C3 [0x45] LOAD_SCHEDULED_TASK: Load scheduler "fdo1" with entities [EventEntity, EventEntity], work=[200*, 0*]
 26: 0x04D4 [0x55] WAIT_LOAD_SCHEDULER: Wait for scheduler "fdo1" with entities [EventEntity, EventEntity], work=200*
 27: 0x04E3 [0x52] END_LOAD_SCHEDULER: End scheduler "s135" with entities [EventEntity, EventEntity], work=254*
 28: 0x04F2 [0x00] END_REQSTACK()
```

### Event 65535.9

#### Metadata

| Field        | Value     |
|--------------|-----------|
| Entrypoint   | 0x04F3    |
| Data Size    | 147 bytes |
| Instructions | 17        |

```
      00 01 02 03 04 05 06 07  08 09 0A 0B 0C 0D 0E 0F
      -- -- -- -- -- -- -- --  -- -- -- -- -- -- -- --
04F0:          29 05 F0 FF FF  7F 5B 29 05 90 A0 0E 01     ).....[).....
0500: 03 45 12 80 F8 FF FF 7F  F8 FF FF 7F 73 32 32 39  .E..........s229
0510: 08 80 1C 0D 80 45 09 80  F8 FF FF 7F F8 FF FF 7F  .....E..........
0520: 66 64 69 31 08 80 1C 0D  80 66 0E 80 90 A0 0E 01  fdi1.....f......
0530: 90 A0 0E 01 74 6C 6B 30  1A 23 28 2B 90 A0 0E 01  ....tlk0.#(+....
0540: 23 80 23 1A 2E 28 66 0E  80 90 A0 0E 01 90 A0 0E  #.#..(f.........
0550: 01 74 6C 6B 31 45 09 80  F8 FF FF 7F F8 FF FF 7F  .tlk1E..........
0560: 66 64 6F 31 08 80 55 09  80 F8 FF FF 7F F8 FF FF  fdo1..U.........
0570: 7F 66 64 6F 31 52 12 80  F8 FF FF 7F F8 FF FF 7F  .fdo1R..........
0580: 73 32 32 39 78 00                                 s229x.          
```

#### Opcodes

```
  0: 0x04F3 [0x29] REQ_SET_WAIT(priority=0x05, entity_id=LocalPlayer, tag_num=0x5B)
  1: 0x04FA [0x29] REQ_SET_WAIT(priority=0x05, entity_id=Zopago (ID: 17735824/0x010EA090), tag_num=0x03)
  2: 0x0501 [0x45] LOAD_SCHEDULED_TASK: Load scheduler "s229" with entities [EventEntity, EventEntity], work=[254*, 0*]
  3: 0x0512 [0x1C] WAIT(60* ticks)
  4: 0x0515 [0x45] LOAD_SCHEDULED_TASK: Load scheduler "fdi1" with entities [EventEntity, EventEntity], work=[200*, 0*]
  5: 0x0526 [0x1C] WAIT(60* ticks)
  6: 0x0529 [0x66] LOAD_EXT_SCHEDULER_MAIN: Load scheduler "tlk0" with entities [Zopago (ID: 17735824/0x010EA090), Zopago (ID: 17735824/0x010EA090)], work=69*
  7: 0x0538 [0x1A] CALL_SUBROUTINE(address=0x2823)
  8: 0x053B [0x2B] Zopago (ID: 17735824/0x010EA090) [13467*]:
    → "$0's injury has completely healed."
  9: 0x0542 [0x23] WAIT_FOR_DIALOG_INTERACTION
 10: 0x0543 [0x1A] CALL_SUBROUTINE(address=0x282E)
 11: 0x0546 [0x66] LOAD_EXT_SCHEDULER_MAIN: Load scheduler "tlk1" with entities [Zopago (ID: 17735824/0x010EA090), Zopago (ID: 17735824/0x010EA090)], work=69*
 12: 0x0555 [0x45] LOAD_SCHEDULED_TASK: Load scheduler "fdo1" with entities [EventEntity, EventEntity], work=[200*, 0*]
 13: 0x0566 [0x55] WAIT_LOAD_SCHEDULER: Wait for scheduler "fdo1" with entities [EventEntity, EventEntity], work=200*
 14: 0x0575 [0x52] END_LOAD_SCHEDULER: End scheduler "s229" with entities [EventEntity, EventEntity], work=254*
 15: 0x0584 [0x78] ENABLE_GAME_TIMER_RESET_WEATHER()
 16: 0x0585 [0x00] END_REQSTACK()
```

### Event 65535.10

#### Metadata

| Field        | Value     |
|--------------|-----------|
| Entrypoint   | 0x0586    |
| Data Size    | 147 bytes |
| Instructions | 17        |

```
      00 01 02 03 04 05 06 07  08 09 0A 0B 0C 0D 0E 0F
      -- -- -- -- -- -- -- --  -- -- -- -- -- -- -- --
0580:                   29 05  F0 FF FF 7F 5B 29 05 90        ).....[)..
0590: A0 0E 01 03 45 12 80 F8  FF FF 7F F8 FF FF 7F 73  ....E..........s
05A0: 32 32 39 08 80 1C 0D 80  45 09 80 F8 FF FF 7F F8  229.....E.......
05B0: FF FF 7F 66 64 69 31 08  80 1C 0D 80 66 0E 80 90  ...fdi1.....f...
05C0: A0 0E 01 90 A0 0E 01 74  6C 6B 30 1A 23 28 2B 90  .......tlk0.#(+.
05D0: A0 0E 01 24 80 23 1A 2E  28 66 0E 80 90 A0 0E 01  ...$.#..(f......
05E0: 90 A0 0E 01 74 6C 6B 31  45 09 80 F8 FF FF 7F F8  ....tlk1E.......
05F0: FF FF 7F 66 64 6F 31 08  80 55 09 80 F8 FF FF 7F  ...fdo1..U......
0600: F8 FF FF 7F 66 64 6F 31  52 12 80 F8 FF FF 7F F8  ....fdo1R.......
0610: FF FF 7F 73 32 32 39 78  00                       ...s229x.       
```

#### Opcodes

```
  0: 0x0586 [0x29] REQ_SET_WAIT(priority=0x05, entity_id=LocalPlayer, tag_num=0x5B)
  1: 0x058D [0x29] REQ_SET_WAIT(priority=0x05, entity_id=Zopago (ID: 17735824/0x010EA090), tag_num=0x03)
  2: 0x0594 [0x45] LOAD_SCHEDULED_TASK: Load scheduler "s229" with entities [EventEntity, EventEntity], work=[254*, 0*]
  3: 0x05A5 [0x1C] WAIT(60* ticks)
  4: 0x05A8 [0x45] LOAD_SCHEDULED_TASK: Load scheduler "fdi1" with entities [EventEntity, EventEntity], work=[200*, 0*]
  5: 0x05B9 [0x1C] WAIT(60* ticks)
  6: 0x05BC [0x66] LOAD_EXT_SCHEDULER_MAIN: Load scheduler "tlk0" with entities [Zopago (ID: 17735824/0x010EA090), Zopago (ID: 17735824/0x010EA090)], work=69*
  7: 0x05CB [0x1A] CALL_SUBROUTINE(address=0x2823)
  8: 0x05CE [0x2B] Zopago (ID: 17735824/0x010EA090) [13469*]:
    → "$0's illness has completely healed."
  9: 0x05D5 [0x23] WAIT_FOR_DIALOG_INTERACTION
 10: 0x05D6 [0x1A] CALL_SUBROUTINE(address=0x282E)
 11: 0x05D9 [0x66] LOAD_EXT_SCHEDULER_MAIN: Load scheduler "tlk1" with entities [Zopago (ID: 17735824/0x010EA090), Zopago (ID: 17735824/0x010EA090)], work=69*
 12: 0x05E8 [0x45] LOAD_SCHEDULED_TASK: Load scheduler "fdo1" with entities [EventEntity, EventEntity], work=[200*, 0*]
 13: 0x05F9 [0x55] WAIT_LOAD_SCHEDULER: Wait for scheduler "fdo1" with entities [EventEntity, EventEntity], work=200*
 14: 0x0608 [0x52] END_LOAD_SCHEDULER: End scheduler "s229" with entities [EventEntity, EventEntity], work=254*
 15: 0x0617 [0x78] ENABLE_GAME_TIMER_RESET_WEATHER()
 16: 0x0618 [0x00] END_REQSTACK()
```

### Event 65535.11

#### Metadata

| Field        | Value     |
|--------------|-----------|
| Entrypoint   | 0x0619    |
| Data Size    | 147 bytes |
| Instructions | 17        |

```
      00 01 02 03 04 05 06 07  08 09 0A 0B 0C 0D 0E 0F
      -- -- -- -- -- -- -- --  -- -- -- -- -- -- -- --
0610:                             29 05 F0 FF FF 7F 5B           ).....[
0620: 29 05 90 A0 0E 01 03 45  12 80 F8 FF FF 7F F8 FF  )......E........
0630: FF 7F 73 32 32 39 08 80  1C 0D 80 45 09 80 F8 FF  ..s229.....E....
0640: FF 7F F8 FF FF 7F 66 64  69 31 08 80 1C 0D 80 66  ......fdi1.....f
0650: 0E 80 90 A0 0E 01 90 A0  0E 01 74 6C 6B 30 1A 23  ..........tlk0.#
0660: 28 2B 90 A0 0E 01 25 80  23 1A 2E 28 66 0E 80 90  (+....%.#..(f...
0670: A0 0E 01 90 A0 0E 01 74  6C 6B 31 45 09 80 F8 FF  .......tlk1E....
0680: FF 7F F8 FF FF 7F 66 64  6F 31 08 80 55 09 80 F8  ......fdo1..U...
0690: FF FF 7F F8 FF FF 7F 66  64 6F 31 52 12 80 F8 FF  .......fdo1R....
06A0: FF 7F F8 FF FF 7F 73 32  32 39 78 00              ......s229x.    
```

#### Opcodes

```
  0: 0x0619 [0x29] REQ_SET_WAIT(priority=0x05, entity_id=LocalPlayer, tag_num=0x5B)
  1: 0x0620 [0x29] REQ_SET_WAIT(priority=0x05, entity_id=Zopago (ID: 17735824/0x010EA090), tag_num=0x03)
  2: 0x0627 [0x45] LOAD_SCHEDULED_TASK: Load scheduler "s229" with entities [EventEntity, EventEntity], work=[254*, 0*]
  3: 0x0638 [0x1C] WAIT(60* ticks)
  4: 0x063B [0x45] LOAD_SCHEDULED_TASK: Load scheduler "fdi1" with entities [EventEntity, EventEntity], work=[200*, 0*]
  5: 0x064C [0x1C] WAIT(60* ticks)
  6: 0x064F [0x66] LOAD_EXT_SCHEDULER_MAIN: Load scheduler "tlk0" with entities [Zopago (ID: 17735824/0x010EA090), Zopago (ID: 17735824/0x010EA090)], work=69*
  7: 0x065E [0x1A] CALL_SUBROUTINE(address=0x2823)
  8: 0x0661 [0x2B] Zopago (ID: 17735824/0x010EA090) [13471*]:
    → "$0 seems to have a stronger stomach these days."
  9: 0x0668 [0x23] WAIT_FOR_DIALOG_INTERACTION
 10: 0x0669 [0x1A] CALL_SUBROUTINE(address=0x282E)
 11: 0x066C [0x66] LOAD_EXT_SCHEDULER_MAIN: Load scheduler "tlk1" with entities [Zopago (ID: 17735824/0x010EA090), Zopago (ID: 17735824/0x010EA090)], work=69*
 12: 0x067B [0x45] LOAD_SCHEDULED_TASK: Load scheduler "fdo1" with entities [EventEntity, EventEntity], work=[200*, 0*]
 13: 0x068C [0x55] WAIT_LOAD_SCHEDULER: Wait for scheduler "fdo1" with entities [EventEntity, EventEntity], work=200*
 14: 0x069B [0x52] END_LOAD_SCHEDULER: End scheduler "s229" with entities [EventEntity, EventEntity], work=254*
 15: 0x06AA [0x78] ENABLE_GAME_TIMER_RESET_WEATHER()
 16: 0x06AB [0x00] END_REQSTACK()
```

### Event 65535.12

#### Metadata

| Field        | Value     |
|--------------|-----------|
| Entrypoint   | 0x06AC    |
| Data Size    | 163 bytes |
| Instructions | 21        |

```
      00 01 02 03 04 05 06 07  08 09 0A 0B 0C 0D 0E 0F
      -- -- -- -- -- -- -- --  -- -- -- -- -- -- -- --
06A0:                                      29 05 F0 FF              )...
06B0: FF 7F 5B 29 05 90 A0 0E  01 03 45 12 80 F8 FF FF  ..[)......E.....
06C0: 7F F8 FF FF 7F 73 32 32  39 08 80 1C 0D 80 45 09  .....s229.....E.
06D0: 80 F8 FF FF 7F F8 FF FF  7F 66 64 69 31 08 80 1C  .........fdi1...
06E0: 0D 80 66 0E 80 90 A0 0E  01 90 A0 0E 01 74 6C 6B  ..f..........tlk
06F0: 30 1A 23 28 2B 90 A0 0E  01 26 80 23 66 0E 80 90  0.#(+....&.#f...
0700: A0 0E 01 90 A0 0E 01 74  6C 6B 31 2B 90 A0 0E 01  .......tlk1+....
0710: 27 80 23 2B 90 A0 0E 01  28 80 23 1A 2E 28 45 09  '.#+....(.#..(E.
0720: 80 F8 FF FF 7F F8 FF FF  7F 66 64 6F 31 08 80 55  .........fdo1..U
0730: 09 80 F8 FF FF 7F F8 FF  FF 7F 66 64 6F 31 52 12  ..........fdo1R.
0740: 80 F8 FF FF 7F F8 FF FF  7F 73 32 32 39 78 00     .........s229x. 
```

#### Opcodes

```
  0: 0x06AC [0x29] REQ_SET_WAIT(priority=0x05, entity_id=LocalPlayer, tag_num=0x5B)
  1: 0x06B3 [0x29] REQ_SET_WAIT(priority=0x05, entity_id=Zopago (ID: 17735824/0x010EA090), tag_num=0x03)
  2: 0x06BA [0x45] LOAD_SCHEDULED_TASK: Load scheduler "s229" with entities [EventEntity, EventEntity], work=[254*, 0*]
  3: 0x06CB [0x1C] WAIT(60* ticks)
  4: 0x06CE [0x45] LOAD_SCHEDULED_TASK: Load scheduler "fdi1" with entities [EventEntity, EventEntity], work=[200*, 0*]
  5: 0x06DF [0x1C] WAIT(60* ticks)
  6: 0x06E2 [0x66] LOAD_EXT_SCHEDULER_MAIN: Load scheduler "tlk0" with entities [Zopago (ID: 17735824/0x010EA090), Zopago (ID: 17735824/0x010EA090)], work=69*
  7: 0x06F1 [0x1A] CALL_SUBROUTINE(address=0x2823)
  8: 0x06F4 [0x2B] Zopago (ID: 17735824/0x010EA090) [13473*]:
    → "$0 doesn't seem lonely anymore."
  9: 0x06FB [0x23] WAIT_FOR_DIALOG_INTERACTION
 10: 0x06FC [0x66] LOAD_EXT_SCHEDULER_MAIN: Load scheduler "tlk1" with entities [Zopago (ID: 17735824/0x010EA090), Zopago (ID: 17735824/0x010EA090)], work=69*
 11: 0x070B [0x2B] Zopago (ID: 17735824/0x010EA090) [13474*]:
    → "Afraid it's stopped caring about you, eh?"
 12: 0x0712 [0x23] WAIT_FOR_DIALOG_INTERACTION
 13: 0x0713 [0x2B] Zopago (ID: 17735824/0x010EA090) [13475*]:
    → "...I've got no comment on that."
 14: 0x071A [0x23] WAIT_FOR_DIALOG_INTERACTION
 15: 0x071B [0x1A] CALL_SUBROUTINE(address=0x282E)
 16: 0x071E [0x45] LOAD_SCHEDULED_TASK: Load scheduler "fdo1" with entities [EventEntity, EventEntity], work=[200*, 0*]
 17: 0x072F [0x55] WAIT_LOAD_SCHEDULER: Wait for scheduler "fdo1" with entities [EventEntity, EventEntity], work=200*
 18: 0x073E [0x52] END_LOAD_SCHEDULER: End scheduler "s229" with entities [EventEntity, EventEntity], work=254*
 19: 0x074D [0x78] ENABLE_GAME_TIMER_RESET_WEATHER()
 20: 0x074E [0x00] END_REQSTACK()
```

### Event 65535.13

#### Metadata

| Field        | Value     |
|--------------|-----------|
| Entrypoint   | 0x074F    |
| Data Size    | 147 bytes |
| Instructions | 17        |

```
      00 01 02 03 04 05 06 07  08 09 0A 0B 0C 0D 0E 0F
      -- -- -- -- -- -- -- --  -- -- -- -- -- -- -- --
0740:                                               29                 )
0750: 05 F0 FF FF 7F 5B 29 05  90 A0 0E 01 03 45 12 80  .....[)......E..
0760: F8 FF FF 7F F8 FF FF 7F  73 32 32 39 08 80 1C 0D  ........s229....
0770: 80 45 09 80 F8 FF FF 7F  F8 FF FF 7F 66 64 69 31  .E..........fdi1
0780: 08 80 1C 0D 80 66 0E 80  90 A0 0E 01 90 A0 0E 01  .....f..........
0790: 74 6C 6B 30 1A 23 28 2B  90 A0 0E 01 29 80 23 1A  tlk0.#(+....).#.
07A0: 2E 28 66 0E 80 90 A0 0E  01 90 A0 0E 01 74 6C 6B  .(f..........tlk
07B0: 31 45 09 80 F8 FF FF 7F  F8 FF FF 7F 66 64 6F 31  1E..........fdo1
07C0: 08 80 55 09 80 F8 FF FF  7F F8 FF FF 7F 66 64 6F  ..U..........fdo
07D0: 31 52 12 80 F8 FF FF 7F  F8 FF FF 7F 73 32 32 39  1R..........s229
07E0: 78 00                                             x.              
```

#### Opcodes

```
  0: 0x074F [0x29] REQ_SET_WAIT(priority=0x05, entity_id=LocalPlayer, tag_num=0x5B)
  1: 0x0756 [0x29] REQ_SET_WAIT(priority=0x05, entity_id=Zopago (ID: 17735824/0x010EA090), tag_num=0x03)
  2: 0x075D [0x45] LOAD_SCHEDULED_TASK: Load scheduler "s229" with entities [EventEntity, EventEntity], work=[254*, 0*]
  3: 0x076E [0x1C] WAIT(60* ticks)
  4: 0x0771 [0x45] LOAD_SCHEDULED_TASK: Load scheduler "fdi1" with entities [EventEntity, EventEntity], work=[200*, 0*]
  5: 0x0782 [0x1C] WAIT(60* ticks)
  6: 0x0785 [0x66] LOAD_EXT_SCHEDULER_MAIN: Load scheduler "tlk0" with entities [Zopago (ID: 17735824/0x010EA090), Zopago (ID: 17735824/0x010EA090)], work=69*
  7: 0x0794 [0x1A] CALL_SUBROUTINE(address=0x2823)
  8: 0x0797 [0x2B] Zopago (ID: 17735824/0x010EA090) [13477*]:
    → "$0 seems to have had its fill and has calmed down."
  9: 0x079E [0x23] WAIT_FOR_DIALOG_INTERACTION
 10: 0x079F [0x1A] CALL_SUBROUTINE(address=0x282E)
 11: 0x07A2 [0x66] LOAD_EXT_SCHEDULER_MAIN: Load scheduler "tlk1" with entities [Zopago (ID: 17735824/0x010EA090), Zopago (ID: 17735824/0x010EA090)], work=69*
 12: 0x07B1 [0x45] LOAD_SCHEDULED_TASK: Load scheduler "fdo1" with entities [EventEntity, EventEntity], work=[200*, 0*]
 13: 0x07C2 [0x55] WAIT_LOAD_SCHEDULER: Wait for scheduler "fdo1" with entities [EventEntity, EventEntity], work=200*
 14: 0x07D1 [0x52] END_LOAD_SCHEDULER: End scheduler "s229" with entities [EventEntity, EventEntity], work=254*
 15: 0x07E0 [0x78] ENABLE_GAME_TIMER_RESET_WEATHER()
 16: 0x07E1 [0x00] END_REQSTACK()
```

### Event 65535.14

#### Metadata

| Field        | Value     |
|--------------|-----------|
| Entrypoint   | 0x07E2    |
| Data Size    | 147 bytes |
| Instructions | 17        |

```
      00 01 02 03 04 05 06 07  08 09 0A 0B 0C 0D 0E 0F
      -- -- -- -- -- -- -- --  -- -- -- -- -- -- -- --
07E0:       29 05 F0 FF FF 7F  5B 29 05 90 A0 0E 01 03    ).....[)......
07F0: 45 12 80 F8 FF FF 7F F8  FF FF 7F 73 32 32 39 08  E..........s229.
0800: 80 1C 0D 80 45 09 80 F8  FF FF 7F F8 FF FF 7F 66  ....E..........f
0810: 64 69 31 08 80 1C 0D 80  66 0E 80 90 A0 0E 01 90  di1.....f.......
0820: A0 0E 01 74 6C 6B 30 1A  23 28 2B 90 A0 0E 01 2A  ...tlk0.#(+....*
0830: 80 23 1A 2E 28 66 0E 80  90 A0 0E 01 90 A0 0E 01  .#..(f..........
0840: 74 6C 6B 31 45 09 80 F8  FF FF 7F F8 FF FF 7F 66  tlk1E..........f
0850: 64 6F 31 08 80 55 09 80  F8 FF FF 7F F8 FF FF 7F  do1..U..........
0860: 66 64 6F 31 52 12 80 F8  FF FF 7F F8 FF FF 7F 73  fdo1R..........s
0870: 32 32 39 78 00                                    229x.           
```

#### Opcodes

```
  0: 0x07E2 [0x29] REQ_SET_WAIT(priority=0x05, entity_id=LocalPlayer, tag_num=0x5B)
  1: 0x07E9 [0x29] REQ_SET_WAIT(priority=0x05, entity_id=Zopago (ID: 17735824/0x010EA090), tag_num=0x03)
  2: 0x07F0 [0x45] LOAD_SCHEDULED_TASK: Load scheduler "s229" with entities [EventEntity, EventEntity], work=[254*, 0*]
  3: 0x0801 [0x1C] WAIT(60* ticks)
  4: 0x0804 [0x45] LOAD_SCHEDULED_TASK: Load scheduler "fdi1" with entities [EventEntity, EventEntity], work=[200*, 0*]
  5: 0x0815 [0x1C] WAIT(60* ticks)
  6: 0x0818 [0x66] LOAD_EXT_SCHEDULER_MAIN: Load scheduler "tlk0" with entities [Zopago (ID: 17735824/0x010EA090), Zopago (ID: 17735824/0x010EA090)], work=69*
  7: 0x0827 [0x1A] CALL_SUBROUTINE(address=0x2823)
  8: 0x082A [0x2B] Zopago (ID: 17735824/0x010EA090) [13495*]:
    → "$0 has burned through that excess energy and calmed down a little."
  9: 0x0831 [0x23] WAIT_FOR_DIALOG_INTERACTION
 10: 0x0832 [0x1A] CALL_SUBROUTINE(address=0x282E)
 11: 0x0835 [0x66] LOAD_EXT_SCHEDULER_MAIN: Load scheduler "tlk1" with entities [Zopago (ID: 17735824/0x010EA090), Zopago (ID: 17735824/0x010EA090)], work=69*
 12: 0x0844 [0x45] LOAD_SCHEDULED_TASK: Load scheduler "fdo1" with entities [EventEntity, EventEntity], work=[200*, 0*]
 13: 0x0855 [0x55] WAIT_LOAD_SCHEDULER: Wait for scheduler "fdo1" with entities [EventEntity, EventEntity], work=200*
 14: 0x0864 [0x52] END_LOAD_SCHEDULER: End scheduler "s229" with entities [EventEntity, EventEntity], work=254*
 15: 0x0873 [0x78] ENABLE_GAME_TIMER_RESET_WEATHER()
 16: 0x0874 [0x00] END_REQSTACK()
```

### Event 65535.15

#### Metadata

| Field        | Value     |
|--------------|-----------|
| Entrypoint   | 0x0875    |
| Data Size    | 147 bytes |
| Instructions | 17        |

```
      00 01 02 03 04 05 06 07  08 09 0A 0B 0C 0D 0E 0F
      -- -- -- -- -- -- -- --  -- -- -- -- -- -- -- --
0870:                29 05 F0  FF FF 7F 5B 29 05 90 A0       ).....[)...
0880: 0E 01 03 45 12 80 F8 FF  FF 7F F8 FF FF 7F 73 32  ...E..........s2
0890: 32 39 08 80 1C 0D 80 45  09 80 F8 FF FF 7F F8 FF  29.....E........
08A0: FF 7F 66 64 69 31 08 80  1C 0D 80 66 0E 80 90 A0  ..fdi1.....f....
08B0: 0E 01 90 A0 0E 01 74 6C  6B 30 1A 23 28 2B 90 A0  ......tlk0.#(+..
08C0: 0E 01 2B 80 23 1A 2E 28  66 0E 80 90 A0 0E 01 90  ..+.#..(f.......
08D0: A0 0E 01 74 6C 6B 31 45  09 80 F8 FF FF 7F F8 FF  ...tlk1E........
08E0: FF 7F 66 64 6F 31 08 80  55 09 80 F8 FF FF 7F F8  ..fdo1..U.......
08F0: FF FF 7F 66 64 6F 31 52  12 80 F8 FF FF 7F F8 FF  ...fdo1R........
0900: FF 7F 73 32 32 39 78 00                           ..s229x.        
```

#### Opcodes

```
  0: 0x0875 [0x29] REQ_SET_WAIT(priority=0x05, entity_id=LocalPlayer, tag_num=0x5B)
  1: 0x087C [0x29] REQ_SET_WAIT(priority=0x05, entity_id=Zopago (ID: 17735824/0x010EA090), tag_num=0x03)
  2: 0x0883 [0x45] LOAD_SCHEDULED_TASK: Load scheduler "s229" with entities [EventEntity, EventEntity], work=[254*, 0*]
  3: 0x0894 [0x1C] WAIT(60* ticks)
  4: 0x0897 [0x45] LOAD_SCHEDULED_TASK: Load scheduler "fdi1" with entities [EventEntity, EventEntity], work=[200*, 0*]
  5: 0x08A8 [0x1C] WAIT(60* ticks)
  6: 0x08AB [0x66] LOAD_EXT_SCHEDULER_MAIN: Load scheduler "tlk0" with entities [Zopago (ID: 17735824/0x010EA090), Zopago (ID: 17735824/0x010EA090)], work=69*
  7: 0x08BA [0x1A] CALL_SUBROUTINE(address=0x2823)
  8: 0x08BD [0x2B] Zopago (ID: 17735824/0x010EA090) [13497*]:
    → "$0 has burned through that excess mental energy and calmed down a little."
  9: 0x08C4 [0x23] WAIT_FOR_DIALOG_INTERACTION
 10: 0x08C5 [0x1A] CALL_SUBROUTINE(address=0x282E)
 11: 0x08C8 [0x66] LOAD_EXT_SCHEDULER_MAIN: Load scheduler "tlk1" with entities [Zopago (ID: 17735824/0x010EA090), Zopago (ID: 17735824/0x010EA090)], work=69*
 12: 0x08D7 [0x45] LOAD_SCHEDULED_TASK: Load scheduler "fdo1" with entities [EventEntity, EventEntity], work=[200*, 0*]
 13: 0x08E8 [0x55] WAIT_LOAD_SCHEDULER: Wait for scheduler "fdo1" with entities [EventEntity, EventEntity], work=200*
 14: 0x08F7 [0x52] END_LOAD_SCHEDULER: End scheduler "s229" with entities [EventEntity, EventEntity], work=254*
 15: 0x0906 [0x78] ENABLE_GAME_TIMER_RESET_WEATHER()
 16: 0x0907 [0x00] END_REQSTACK()
```

### Event 65535.16

#### Metadata

| Field        | Value     |
|--------------|-----------|
| Entrypoint   | 0x0908    |
| Data Size    | 147 bytes |
| Instructions | 17        |

```
      00 01 02 03 04 05 06 07  08 09 0A 0B 0C 0D 0E 0F
      -- -- -- -- -- -- -- --  -- -- -- -- -- -- -- --
0900:                          29 05 F0 FF FF 7F 5B 29          ).....[)
0910: 05 90 A0 0E 01 03 45 12  80 F8 FF FF 7F F8 FF FF  ......E.........
0920: 7F 73 32 32 39 08 80 1C  0D 80 45 09 80 F8 FF FF  .s229.....E.....
0930: 7F F8 FF FF 7F 66 64 69  31 08 80 1C 0D 80 66 0E  .....fdi1.....f.
0940: 80 90 A0 0E 01 90 A0 0E  01 74 6C 6B 30 1A 23 28  .........tlk0.#(
0950: 2B 90 A0 0E 01 2C 80 23  1A 2E 28 66 0E 80 90 A0  +....,.#..(f....
0960: 0E 01 90 A0 0E 01 74 6C  6B 31 45 09 80 F8 FF FF  ......tlk1E.....
0970: 7F F8 FF FF 7F 66 64 6F  31 08 80 55 09 80 F8 FF  .....fdo1..U....
0980: FF 7F F8 FF FF 7F 66 64  6F 31 52 12 80 F8 FF FF  ......fdo1R.....
0990: 7F F8 FF FF 7F 73 32 32  39 78 00                 .....s229x.     
```

#### Opcodes

```
  0: 0x0908 [0x29] REQ_SET_WAIT(priority=0x05, entity_id=LocalPlayer, tag_num=0x5B)
  1: 0x090F [0x29] REQ_SET_WAIT(priority=0x05, entity_id=Zopago (ID: 17735824/0x010EA090), tag_num=0x03)
  2: 0x0916 [0x45] LOAD_SCHEDULED_TASK: Load scheduler "s229" with entities [EventEntity, EventEntity], work=[254*, 0*]
  3: 0x0927 [0x1C] WAIT(60* ticks)
  4: 0x092A [0x45] LOAD_SCHEDULED_TASK: Load scheduler "fdi1" with entities [EventEntity, EventEntity], work=[200*, 0*]
  5: 0x093B [0x1C] WAIT(60* ticks)
  6: 0x093E [0x66] LOAD_EXT_SCHEDULER_MAIN: Load scheduler "tlk0" with entities [Zopago (ID: 17735824/0x010EA090), Zopago (ID: 17735824/0x010EA090)], work=69*
  7: 0x094D [0x1A] CALL_SUBROUTINE(address=0x2823)
  8: 0x0950 [0x2B] Zopago (ID: 17735824/0x010EA090) [13479*]:
    → "$0's been waking up every morning as of late."
  9: 0x0957 [0x23] WAIT_FOR_DIALOG_INTERACTION
 10: 0x0958 [0x1A] CALL_SUBROUTINE(address=0x282E)
 11: 0x095B [0x66] LOAD_EXT_SCHEDULER_MAIN: Load scheduler "tlk1" with entities [Zopago (ID: 17735824/0x010EA090), Zopago (ID: 17735824/0x010EA090)], work=69*
 12: 0x096A [0x45] LOAD_SCHEDULED_TASK: Load scheduler "fdo1" with entities [EventEntity, EventEntity], work=[200*, 0*]
 13: 0x097B [0x55] WAIT_LOAD_SCHEDULER: Wait for scheduler "fdo1" with entities [EventEntity, EventEntity], work=200*
 14: 0x098A [0x52] END_LOAD_SCHEDULER: End scheduler "s229" with entities [EventEntity, EventEntity], work=254*
 15: 0x0999 [0x78] ENABLE_GAME_TIMER_RESET_WEATHER()
 16: 0x099A [0x00] END_REQSTACK()
```

### Event 65535.17

#### Metadata

| Field        | Value     |
|--------------|-----------|
| Entrypoint   | 0x099B    |
| Data Size    | 147 bytes |
| Instructions | 17        |

```
      00 01 02 03 04 05 06 07  08 09 0A 0B 0C 0D 0E 0F
      -- -- -- -- -- -- -- --  -- -- -- -- -- -- -- --
0990:                                   29 05 F0 FF FF             )....
09A0: 7F 5B 29 05 90 A0 0E 01  03 45 12 80 F8 FF FF 7F  .[)......E......
09B0: F8 FF FF 7F 73 32 32 39  08 80 1C 0D 80 45 09 80  ....s229.....E..
09C0: F8 FF FF 7F F8 FF FF 7F  66 64 69 31 08 80 1C 0D  ........fdi1....
09D0: 80 66 0E 80 90 A0 0E 01  90 A0 0E 01 74 6C 6B 30  .f..........tlk0
09E0: 1A 23 28 2B 90 A0 0E 01  2D 80 23 1A 2E 28 66 0E  .#(+....-.#..(f.
09F0: 80 90 A0 0E 01 90 A0 0E  01 74 6C 6B 31 45 09 80  .........tlk1E..
0A00: F8 FF FF 7F F8 FF FF 7F  66 64 6F 31 08 80 55 09  ........fdo1..U.
0A10: 80 F8 FF FF 7F F8 FF FF  7F 66 64 6F 31 52 12 80  .........fdo1R..
0A20: F8 FF FF 7F F8 FF FF 7F  73 32 32 39 78 00        ........s229x.  
```

#### Opcodes

```
  0: 0x099B [0x29] REQ_SET_WAIT(priority=0x05, entity_id=LocalPlayer, tag_num=0x5B)
  1: 0x09A2 [0x29] REQ_SET_WAIT(priority=0x05, entity_id=Zopago (ID: 17735824/0x010EA090), tag_num=0x03)
  2: 0x09A9 [0x45] LOAD_SCHEDULED_TASK: Load scheduler "s229" with entities [EventEntity, EventEntity], work=[254*, 0*]
  3: 0x09BA [0x1C] WAIT(60* ticks)
  4: 0x09BD [0x45] LOAD_SCHEDULED_TASK: Load scheduler "fdi1" with entities [EventEntity, EventEntity], work=[200*, 0*]
  5: 0x09CE [0x1C] WAIT(60* ticks)
  6: 0x09D1 [0x66] LOAD_EXT_SCHEDULER_MAIN: Load scheduler "tlk0" with entities [Zopago (ID: 17735824/0x010EA090), Zopago (ID: 17735824/0x010EA090)], work=69*
  7: 0x09E0 [0x1A] CALL_SUBROUTINE(address=0x2823)
  8: 0x09E3 [0x2B] Zopago (ID: 17735824/0x010EA090) [13481*]:
    → "$0's fever has gone down."
  9: 0x09EA [0x23] WAIT_FOR_DIALOG_INTERACTION
 10: 0x09EB [0x1A] CALL_SUBROUTINE(address=0x282E)
 11: 0x09EE [0x66] LOAD_EXT_SCHEDULER_MAIN: Load scheduler "tlk1" with entities [Zopago (ID: 17735824/0x010EA090), Zopago (ID: 17735824/0x010EA090)], work=69*
 12: 0x09FD [0x45] LOAD_SCHEDULED_TASK: Load scheduler "fdo1" with entities [EventEntity, EventEntity], work=[200*, 0*]
 13: 0x0A0E [0x55] WAIT_LOAD_SCHEDULER: Wait for scheduler "fdo1" with entities [EventEntity, EventEntity], work=200*
 14: 0x0A1D [0x52] END_LOAD_SCHEDULER: End scheduler "s229" with entities [EventEntity, EventEntity], work=254*
 15: 0x0A2C [0x78] ENABLE_GAME_TIMER_RESET_WEATHER()
 16: 0x0A2D [0x00] END_REQSTACK()
```

### Event 65535.18

#### Metadata

| Field        | Value     |
|--------------|-----------|
| Entrypoint   | 0x0A2E    |
| Data Size    | 147 bytes |
| Instructions | 17        |

```
      00 01 02 03 04 05 06 07  08 09 0A 0B 0C 0D 0E 0F
      -- -- -- -- -- -- -- --  -- -- -- -- -- -- -- --
0A20:                                            29 05                ).
0A30: F0 FF FF 7F 5B 29 05 90  A0 0E 01 03 45 12 80 F8  ....[)......E...
0A40: FF FF 7F F8 FF FF 7F 73  32 32 39 08 80 1C 0D 80  .......s229.....
0A50: 45 09 80 F8 FF FF 7F F8  FF FF 7F 66 64 69 31 08  E..........fdi1.
0A60: 80 1C 0D 80 66 0E 80 90  A0 0E 01 90 A0 0E 01 74  ....f..........t
0A70: 6C 6B 30 1A 23 28 2B 90  A0 0E 01 2E 80 23 1A 2E  lk0.#(+......#..
0A80: 28 66 0E 80 90 A0 0E 01  90 A0 0E 01 74 6C 6B 31  (f..........tlk1
0A90: 45 09 80 F8 FF FF 7F F8  FF FF 7F 66 64 6F 31 08  E..........fdo1.
0AA0: 80 55 09 80 F8 FF FF 7F  F8 FF FF 7F 66 64 6F 31  .U..........fdo1
0AB0: 52 12 80 F8 FF FF 7F F8  FF FF 7F 73 32 32 39 78  R..........s229x
0AC0: 00                                                .               
```

#### Opcodes

```
  0: 0x0A2E [0x29] REQ_SET_WAIT(priority=0x05, entity_id=LocalPlayer, tag_num=0x5B)
  1: 0x0A35 [0x29] REQ_SET_WAIT(priority=0x05, entity_id=Zopago (ID: 17735824/0x010EA090), tag_num=0x03)
  2: 0x0A3C [0x45] LOAD_SCHEDULED_TASK: Load scheduler "s229" with entities [EventEntity, EventEntity], work=[254*, 0*]
  3: 0x0A4D [0x1C] WAIT(60* ticks)
  4: 0x0A50 [0x45] LOAD_SCHEDULED_TASK: Load scheduler "fdi1" with entities [EventEntity, EventEntity], work=[200*, 0*]
  5: 0x0A61 [0x1C] WAIT(60* ticks)
  6: 0x0A64 [0x66] LOAD_EXT_SCHEDULER_MAIN: Load scheduler "tlk0" with entities [Zopago (ID: 17735824/0x010EA090), Zopago (ID: 17735824/0x010EA090)], work=69*
  7: 0x0A73 [0x1A] CALL_SUBROUTINE(address=0x2823)
  8: 0x0A76 [0x2B] Zopago (ID: 17735824/0x010EA090) [13483*]:
    → "$0 seems to have more zest for life nowadays."
  9: 0x0A7D [0x23] WAIT_FOR_DIALOG_INTERACTION
 10: 0x0A7E [0x1A] CALL_SUBROUTINE(address=0x282E)
 11: 0x0A81 [0x66] LOAD_EXT_SCHEDULER_MAIN: Load scheduler "tlk1" with entities [Zopago (ID: 17735824/0x010EA090), Zopago (ID: 17735824/0x010EA090)], work=69*
 12: 0x0A90 [0x45] LOAD_SCHEDULED_TASK: Load scheduler "fdo1" with entities [EventEntity, EventEntity], work=[200*, 0*]
 13: 0x0AA1 [0x55] WAIT_LOAD_SCHEDULER: Wait for scheduler "fdo1" with entities [EventEntity, EventEntity], work=200*
 14: 0x0AB0 [0x52] END_LOAD_SCHEDULER: End scheduler "s229" with entities [EventEntity, EventEntity], work=254*
 15: 0x0ABF [0x78] ENABLE_GAME_TIMER_RESET_WEATHER()
 16: 0x0AC0 [0x00] END_REQSTACK()
```

### Event 65535.19

#### Metadata

| Field        | Value     |
|--------------|-----------|
| Entrypoint   | 0x0AC1    |
| Data Size    | 147 bytes |
| Instructions | 17        |

```
      00 01 02 03 04 05 06 07  08 09 0A 0B 0C 0D 0E 0F
      -- -- -- -- -- -- -- --  -- -- -- -- -- -- -- --
0AC0:    29 05 F0 FF FF 7F 5B  29 05 90 A0 0E 01 03 45   ).....[)......E
0AD0: 12 80 F8 FF FF 7F F8 FF  FF 7F 73 32 32 39 08 80  ..........s229..
0AE0: 1C 0D 80 45 09 80 F8 FF  FF 7F F8 FF FF 7F 66 64  ...E..........fd
0AF0: 69 31 08 80 1C 0D 80 66  0E 80 90 A0 0E 01 90 A0  i1.....f........
0B00: 0E 01 74 6C 6B 30 1A 23  28 2B 90 A0 0E 01 2F 80  ..tlk0.#(+..../.
0B10: 23 1A 2E 28 66 0E 80 90  A0 0E 01 90 A0 0E 01 74  #..(f..........t
0B20: 6C 6B 31 45 09 80 F8 FF  FF 7F F8 FF FF 7F 66 64  lk1E..........fd
0B30: 6F 31 08 80 55 09 80 F8  FF FF 7F F8 FF FF 7F 66  o1..U..........f
0B40: 64 6F 31 52 12 80 F8 FF  FF 7F F8 FF FF 7F 73 32  do1R..........s2
0B50: 32 39 78 00                                       29x.            
```

#### Opcodes

```
  0: 0x0AC1 [0x29] REQ_SET_WAIT(priority=0x05, entity_id=LocalPlayer, tag_num=0x5B)
  1: 0x0AC8 [0x29] REQ_SET_WAIT(priority=0x05, entity_id=Zopago (ID: 17735824/0x010EA090), tag_num=0x03)
  2: 0x0ACF [0x45] LOAD_SCHEDULED_TASK: Load scheduler "s229" with entities [EventEntity, EventEntity], work=[254*, 0*]
  3: 0x0AE0 [0x1C] WAIT(60* ticks)
  4: 0x0AE3 [0x45] LOAD_SCHEDULED_TASK: Load scheduler "fdi1" with entities [EventEntity, EventEntity], work=[200*, 0*]
  5: 0x0AF4 [0x1C] WAIT(60* ticks)
  6: 0x0AF7 [0x66] LOAD_EXT_SCHEDULER_MAIN: Load scheduler "tlk0" with entities [Zopago (ID: 17735824/0x010EA090), Zopago (ID: 17735824/0x010EA090)], work=69*
  7: 0x0B06 [0x1A] CALL_SUBROUTINE(address=0x2823)
  8: 0x0B09 [0x2B] Zopago (ID: 17735824/0x010EA090) [13485*]:
    → "$0 has become more responsive to commands lately."
  9: 0x0B10 [0x23] WAIT_FOR_DIALOG_INTERACTION
 10: 0x0B11 [0x1A] CALL_SUBROUTINE(address=0x282E)
 11: 0x0B14 [0x66] LOAD_EXT_SCHEDULER_MAIN: Load scheduler "tlk1" with entities [Zopago (ID: 17735824/0x010EA090), Zopago (ID: 17735824/0x010EA090)], work=69*
 12: 0x0B23 [0x45] LOAD_SCHEDULED_TASK: Load scheduler "fdo1" with entities [EventEntity, EventEntity], work=[200*, 0*]
 13: 0x0B34 [0x55] WAIT_LOAD_SCHEDULER: Wait for scheduler "fdo1" with entities [EventEntity, EventEntity], work=200*
 14: 0x0B43 [0x52] END_LOAD_SCHEDULER: End scheduler "s229" with entities [EventEntity, EventEntity], work=254*
 15: 0x0B52 [0x78] ENABLE_GAME_TIMER_RESET_WEATHER()
 16: 0x0B53 [0x00] END_REQSTACK()
```

### Event 65535.20

#### Metadata

| Field        | Value     |
|--------------|-----------|
| Entrypoint   | 0x0B54    |
| Data Size    | 155 bytes |
| Instructions | 19        |

```
      00 01 02 03 04 05 06 07  08 09 0A 0B 0C 0D 0E 0F
      -- -- -- -- -- -- -- --  -- -- -- -- -- -- -- --
0B50:             29 05 F0 FF  FF 7F 5B 29 05 90 A0 0E      ).....[)....
0B60: 01 03 45 12 80 F8 FF FF  7F F8 FF FF 7F 73 32 32  ..E..........s22
0B70: 39 08 80 1C 0D 80 45 09  80 F8 FF FF 7F F8 FF FF  9.....E.........
0B80: 7F 66 64 69 31 08 80 1C  0D 80 66 0E 80 90 A0 0E  .fdi1.....f.....
0B90: 01 90 A0 0E 01 74 6C 6B  30 1A 23 28 2B 90 A0 0E  .....tlk0.#(+...
0BA0: 01 30 80 23 66 0E 80 90  A0 0E 01 90 A0 0E 01 74  .0.#f..........t
0BB0: 6C 6B 31 2B 90 A0 0E 01  31 80 23 1A 2E 28 45 09  lk1+....1.#..(E.
0BC0: 80 F8 FF FF 7F F8 FF FF  7F 66 64 6F 31 08 80 55  .........fdo1..U
0BD0: 09 80 F8 FF FF 7F F8 FF  FF 7F 66 64 6F 31 52 12  ..........fdo1R.
0BE0: 80 F8 FF FF 7F F8 FF FF  7F 73 32 32 39 78 00     .........s229x. 
```

#### Opcodes

```
  0: 0x0B54 [0x29] REQ_SET_WAIT(priority=0x05, entity_id=LocalPlayer, tag_num=0x5B)
  1: 0x0B5B [0x29] REQ_SET_WAIT(priority=0x05, entity_id=Zopago (ID: 17735824/0x010EA090), tag_num=0x03)
  2: 0x0B62 [0x45] LOAD_SCHEDULED_TASK: Load scheduler "s229" with entities [EventEntity, EventEntity], work=[254*, 0*]
  3: 0x0B73 [0x1C] WAIT(60* ticks)
  4: 0x0B76 [0x45] LOAD_SCHEDULED_TASK: Load scheduler "fdi1" with entities [EventEntity, EventEntity], work=[200*, 0*]
  5: 0x0B87 [0x1C] WAIT(60* ticks)
  6: 0x0B8A [0x66] LOAD_EXT_SCHEDULER_MAIN: Load scheduler "tlk0" with entities [Zopago (ID: 17735824/0x010EA090), Zopago (ID: 17735824/0x010EA090)], work=69*
  7: 0x0B99 [0x1A] CALL_SUBROUTINE(address=0x2823)
  8: 0x0B9C [0x2B] Zopago (ID: 17735824/0x010EA090) [13489*]:
    → "$0 is back, and I'm happy to say it seems to be fine."
  9: 0x0BA3 [0x23] WAIT_FOR_DIALOG_INTERACTION
 10: 0x0BA4 [0x66] LOAD_EXT_SCHEDULER_MAIN: Load scheduler "tlk1" with entities [Zopago (ID: 17735824/0x010EA090), Zopago (ID: 17735824/0x010EA090)], work=69*
 11: 0x0BB3 [0x2B] Zopago (ID: 17735824/0x010EA090) [13490*]:
    → "I know it had you worried sick, but you should give it a warm welcome. It must've missed you terribly."
 12: 0x0BBA [0x23] WAIT_FOR_DIALOG_INTERACTION
 13: 0x0BBB [0x1A] CALL_SUBROUTINE(address=0x282E)
 14: 0x0BBE [0x45] LOAD_SCHEDULED_TASK: Load scheduler "fdo1" with entities [EventEntity, EventEntity], work=[200*, 0*]
 15: 0x0BCF [0x55] WAIT_LOAD_SCHEDULER: Wait for scheduler "fdo1" with entities [EventEntity, EventEntity], work=200*
 16: 0x0BDE [0x52] END_LOAD_SCHEDULER: End scheduler "s229" with entities [EventEntity, EventEntity], work=254*
 17: 0x0BED [0x78] ENABLE_GAME_TIMER_RESET_WEATHER()
 18: 0x0BEE [0x00] END_REQSTACK()
```

### Event 65535.21

#### Metadata

| Field        | Value     |
|--------------|-----------|
| Entrypoint   | 0x0BEF    |
| Data Size    | 147 bytes |
| Instructions | 17        |

```
      00 01 02 03 04 05 06 07  08 09 0A 0B 0C 0D 0E 0F
      -- -- -- -- -- -- -- --  -- -- -- -- -- -- -- --
0BE0:                                               29                 )
0BF0: 05 F0 FF FF 7F 5B 29 05  90 A0 0E 01 03 45 12 80  .....[)......E..
0C00: F8 FF FF 7F F8 FF FF 7F  73 32 32 39 08 80 1C 0D  ........s229....
0C10: 80 45 09 80 F8 FF FF 7F  F8 FF FF 7F 66 64 69 31  .E..........fdi1
0C20: 08 80 1C 0D 80 66 0E 80  90 A0 0E 01 90 A0 0E 01  .....f..........
0C30: 74 6C 6B 30 1A 23 28 2B  90 A0 0E 01 32 80 23 1A  tlk0.#(+....2.#.
0C40: 2E 28 66 0E 80 90 A0 0E  01 90 A0 0E 01 74 6C 6B  .(f..........tlk
0C50: 31 45 09 80 F8 FF FF 7F  F8 FF FF 7F 66 64 6F 31  1E..........fdo1
0C60: 08 80 55 09 80 F8 FF FF  7F F8 FF FF 7F 66 64 6F  ..U..........fdo
0C70: 31 52 12 80 F8 FF FF 7F  F8 FF FF 7F 73 32 32 39  1R..........s229
0C80: 78 00                                             x.              
```

#### Opcodes

```
  0: 0x0BEF [0x29] REQ_SET_WAIT(priority=0x05, entity_id=LocalPlayer, tag_num=0x5B)
  1: 0x0BF6 [0x29] REQ_SET_WAIT(priority=0x05, entity_id=Zopago (ID: 17735824/0x010EA090), tag_num=0x03)
  2: 0x0BFD [0x45] LOAD_SCHEDULED_TASK: Load scheduler "s229" with entities [EventEntity, EventEntity], work=[254*, 0*]
  3: 0x0C0E [0x1C] WAIT(60* ticks)
  4: 0x0C11 [0x45] LOAD_SCHEDULED_TASK: Load scheduler "fdi1" with entities [EventEntity, EventEntity], work=[200*, 0*]
  5: 0x0C22 [0x1C] WAIT(60* ticks)
  6: 0x0C25 [0x66] LOAD_EXT_SCHEDULER_MAIN: Load scheduler "tlk0" with entities [Zopago (ID: 17735824/0x010EA090), Zopago (ID: 17735824/0x010EA090)], work=69*
  7: 0x0C34 [0x1A] CALL_SUBROUTINE(address=0x2823)
  8: 0x0C37 [0x2B] Zopago (ID: 17735824/0x010EA090) [13493*]:
    → "It seems that $0 was in love. Everything should be all right now... Its appetite has returned and it appears to be feeling better."
  9: 0x0C3E [0x23] WAIT_FOR_DIALOG_INTERACTION
 10: 0x0C3F [0x1A] CALL_SUBROUTINE(address=0x282E)
 11: 0x0C42 [0x66] LOAD_EXT_SCHEDULER_MAIN: Load scheduler "tlk1" with entities [Zopago (ID: 17735824/0x010EA090), Zopago (ID: 17735824/0x010EA090)], work=69*
 12: 0x0C51 [0x45] LOAD_SCHEDULED_TASK: Load scheduler "fdo1" with entities [EventEntity, EventEntity], work=[200*, 0*]
 13: 0x0C62 [0x55] WAIT_LOAD_SCHEDULER: Wait for scheduler "fdo1" with entities [EventEntity, EventEntity], work=200*
 14: 0x0C71 [0x52] END_LOAD_SCHEDULER: End scheduler "s229" with entities [EventEntity, EventEntity], work=254*
 15: 0x0C80 [0x78] ENABLE_GAME_TIMER_RESET_WEATHER()
 16: 0x0C81 [0x00] END_REQSTACK()
```

### Event 65535.22

#### Metadata

| Field        | Value     |
|--------------|-----------|
| Entrypoint   | 0x0C82    |
| Data Size    | 152 bytes |
| Instructions | 18        |

```
      00 01 02 03 04 05 06 07  08 09 0A 0B 0C 0D 0E 0F
      -- -- -- -- -- -- -- --  -- -- -- -- -- -- -- --
0C80:       29 05 F0 FF FF 7F  5B 29 05 90 A0 0E 01 03    ).....[)......
0C90: 45 12 80 F8 FF FF 7F F8  FF FF 7F 73 32 32 39 08  E..........s229.
0CA0: 80 1C 0D 80 45 09 80 F8  FF FF 7F F8 FF FF 7F 66  ....E..........f
0CB0: 64 69 31 08 80 1C 0D 80  66 0E 80 90 A0 0E 01 90  di1.....f.......
0CC0: A0 0E 01 74 6C 6B 30 03  03 10 1A 80 1A 23 28 2B  ...tlk0......#(+
0CD0: 90 A0 0E 01 33 80 23 1A  2E 28 66 0E 80 90 A0 0E  ....3.#..(f.....
0CE0: 01 90 A0 0E 01 74 6C 6B  31 45 09 80 F8 FF FF 7F  .....tlk1E......
0CF0: F8 FF FF 7F 66 64 6F 31  08 80 55 09 80 F8 FF FF  ....fdo1..U.....
0D00: 7F F8 FF FF 7F 66 64 6F  31 52 12 80 F8 FF FF 7F  .....fdo1R......
0D10: F8 FF FF 7F 73 32 32 39  78 00                    ....s229x.      
```

#### Opcodes

```
  0: 0x0C82 [0x29] REQ_SET_WAIT(priority=0x05, entity_id=LocalPlayer, tag_num=0x5B)
  1: 0x0C89 [0x29] REQ_SET_WAIT(priority=0x05, entity_id=Zopago (ID: 17735824/0x010EA090), tag_num=0x03)
  2: 0x0C90 [0x45] LOAD_SCHEDULED_TASK: Load scheduler "s229" with entities [EventEntity, EventEntity], work=[254*, 0*]
  3: 0x0CA1 [0x1C] WAIT(60* ticks)
  4: 0x0CA4 [0x45] LOAD_SCHEDULED_TASK: Load scheduler "fdi1" with entities [EventEntity, EventEntity], work=[200*, 0*]
  5: 0x0CB5 [0x1C] WAIT(60* ticks)
  6: 0x0CB8 [0x66] LOAD_EXT_SCHEDULER_MAIN: Load scheduler "tlk0" with entities [Zopago (ID: 17735824/0x010EA090), Zopago (ID: 17735824/0x010EA090)], work=69*
  7: 0x0CC7 [0x03] Work_Zone[3] = 806*
  8: 0x0CCC [0x1A] CALL_SUBROUTINE(address=0x2823)
  9: 0x0CCF [0x2B] Zopago (ID: 17735824/0x010EA090) [13432*]:
    → "Thanks to the $3, $0 has been sleeping like a baby."
 10: 0x0CD6 [0x23] WAIT_FOR_DIALOG_INTERACTION
 11: 0x0CD7 [0x1A] CALL_SUBROUTINE(address=0x282E)
 12: 0x0CDA [0x66] LOAD_EXT_SCHEDULER_MAIN: Load scheduler "tlk1" with entities [Zopago (ID: 17735824/0x010EA090), Zopago (ID: 17735824/0x010EA090)], work=69*
 13: 0x0CE9 [0x45] LOAD_SCHEDULED_TASK: Load scheduler "fdo1" with entities [EventEntity, EventEntity], work=[200*, 0*]
 14: 0x0CFA [0x55] WAIT_LOAD_SCHEDULER: Wait for scheduler "fdo1" with entities [EventEntity, EventEntity], work=200*
 15: 0x0D09 [0x52] END_LOAD_SCHEDULER: End scheduler "s229" with entities [EventEntity, EventEntity], work=254*
 16: 0x0D18 [0x78] ENABLE_GAME_TIMER_RESET_WEATHER()
 17: 0x0D19 [0x00] END_REQSTACK()
```

### Event 65535.23

#### Metadata

| Field        | Value     |
|--------------|-----------|
| Entrypoint   | 0x0D1A    |
| Data Size    | 472 bytes |
| Instructions | 64        |

```
      00 01 02 03 04 05 06 07  08 09 0A 0B 0C 0D 0E 0F
      -- -- -- -- -- -- -- --  -- -- -- -- -- -- -- --
0D10:                                29 05 92 A0 0E 01            ).....
0D20: 03 29 05 92 A0 0E 01 19  80 92 A0 0E 01 2F 00 A1  .).........../..
0D30: A0 0E 01 4E 00 A1 A0 0E  01 92 01 A1 A0 0E 01 29  ...N...........)
0D40: 05 A1 A0 0E 01 0B 27 05  A1 A0 0E 01 0A 2F 00 9F  ......'....../..
0D50: A0 0E 01 4E 00 9F A0 0E  01 92 01 9F A0 0E 01 29  ...N...........)
0D60: 05 9F A0 0E 01 0A 2F 00  A0 A0 0E 01 4E 00 A0 A0  ....../.....N...
0D70: 0E 01 92 01 A0 A0 0E 01  29 05 A0 A0 0E 01 05 29  ........)......)
0D80: 05 A0 A0 0E 01 09 2F 00  93 A0 0E 01 4E 00 93 A0  ....../.....N...
0D90: 0E 01 92 01 93 A0 0E 01  29 05 93 A0 0E 01 0E 29  ........)......)
0DA0: 05 93 A0 0E 01 10 29 05  90 A0 0E 01 22 29 05 A4  ......).....")..
0DB0: A0 0E 01 07 29 05 A2 A0  0E 01 07 29 05 A3 A0 0E  ....)......)....
0DC0: 01 07 29 05 F0 FF FF 7F  68 4A 90 A0 0E 01 F0 FF  ..).....hJ......
0DD0: FF 7F 4A F0 FF FF 7F A4  A0 0E 01 4A A4 A0 0E 01  ..J........J....
0DE0: F0 FF FF 7F 4A A2 A0 0E  01 F0 FF FF 7F 4A A3 A0  ....J........J..
0DF0: 0E 01 F0 FF FF 7F 5C 00  34 80 5C 01 34 80 6B 69  ......\.4.\.4.ki
0E00: 64 6C 30 91 A0 0E 01 29  05 91 A0 0E 01 22 80 91  dl0....)....."..
0E10: A0 0E 01 45 35 80 F8 FF  FF 7F F8 FF FF 7F 73 30  ...E5.........s0
0E20: 38 38 08 80 1C 0D 80 45  09 80 F8 FF FF 7F F8 FF  88.....E........
0E30: FF 7F 66 64 69 31 08 80  1C 0D 80 66 08 80 A4 A0  ..fdi1.....f....
0E40: 0E 01 A4 A0 0E 01 74 6C  6B 31 1A 23 28 03 03 10  ......tlk1.#(...
0E50: 11 80 2B A4 A0 0E 01 36  80 23 1A 2E 28 66 08 80  ..+....6.#..(f..
0E60: A4 A0 0E 01 A4 A0 0E 01  74 65 6E 31 52 35 80 F8  ........ten1R5..
0E70: FF FF 7F F8 FF FF 7F 73  30 38 38 45 35 80 F8 FF  .......s088E5...
0E80: FF 7F F8 FF FF 7F 73 30  38 39 08 80 4A 90 A0 0E  ......s089..J...
0E90: 01 92 A0 0E 01 1C 15 80  2B 90 A0 0E 01 37 80 23  ........+....7.#
0EA0: 52 35 80 F8 FF FF 7F F8  FF FF 7F 73 30 38 39 45  R5.........s089E
0EB0: 35 80 F8 FF FF 7F F8 FF  FF 7F 73 30 39 30 08 80  5.........s090..
0EC0: 27 05 91 A0 0E 01 23 27  05 92 A0 0E 01 1A 2A 05  '.....#'......*.
0ED0: 91 A0 0E 01 2A 05 92 A0  0E 01 5D 08 80 38 80 1C  ....*.....]..8..
0EE0: 38 80 52 35 80 F8 FF FF  7F F8 FF FF 7F 73 30 39  8.R5.........s09
0EF0: 32 00                                             2.              
```

#### Opcodes

```
  0: 0x0D1A [0x29] REQ_SET_WAIT(priority=0x05, entity_id=Unnamed NPC (ID: 17735826/0x010EA092), tag_num=0x03)
  1: 0x0D21 [0x29] REQ_SET_WAIT(priority=0x05, entity_id=Unnamed NPC (ID: 17735826/0x010EA092), tag_num=0x19)
  2: 0x0D28 [0x80] LOAD_WAIT(entity=Unnamed NPC (ID: 17735826/0x010EA092))
  3: 0x0D2D [0x2F] Pulonono (ID: 17735841/0x010EA0A1)->Render.Flags0 &= ~0x80000 // Bit 19
  4: 0x0D33 [0x4E] SET_ENTITY_HIDE_FLAG: Show Pulonono (ID: 17735841/0x010EA0A1)
  5: 0x0D39 [0x92] Pulonono (ID: 17735841/0x010EA0A1)->Render.Flags3 ^= 0x01
  6: 0x0D3F [0x29] REQ_SET_WAIT(priority=0x05, entity_id=Pulonono (ID: 17735841/0x010EA0A1), tag_num=0x0B)
  7: 0x0D46 [0x27] REQ_SET(priority=0x05, entity_id=Pulonono (ID: 17735841/0x010EA0A1), tag_num=0x0A)
  8: 0x0D4D [0x2F] Hantileon (ID: 17735839/0x010EA09F)->Render.Flags0 &= ~0x80000 // Bit 19
  9: 0x0D53 [0x4E] SET_ENTITY_HIDE_FLAG: Show Hantileon (ID: 17735839/0x010EA09F)
 10: 0x0D59 [0x92] Hantileon (ID: 17735839/0x010EA09F)->Render.Flags3 ^= 0x01
 11: 0x0D5F [0x29] REQ_SET_WAIT(priority=0x05, entity_id=Hantileon (ID: 17735839/0x010EA09F), tag_num=0x0A)
 12: 0x0D66 [0x2F] Brutus (ID: 17735840/0x010EA0A0)->Render.Flags0 &= ~0x80000 // Bit 19
 13: 0x0D6C [0x4E] SET_ENTITY_HIDE_FLAG: Show Brutus (ID: 17735840/0x010EA0A0)
 14: 0x0D72 [0x92] Brutus (ID: 17735840/0x010EA0A0)->Render.Flags3 ^= 0x01
 15: 0x0D78 [0x29] REQ_SET_WAIT(priority=0x05, entity_id=Brutus (ID: 17735840/0x010EA0A0), tag_num=0x05)
 16: 0x0D7F [0x29] REQ_SET_WAIT(priority=0x05, entity_id=Brutus (ID: 17735840/0x010EA0A0), tag_num=0x09)
 17: 0x0D86 [0x2F] Unnamed NPC (ID: 17735827/0x010EA093)->Render.Flags0 &= ~0x80000 // Bit 19
 18: 0x0D8C [0x4E] SET_ENTITY_HIDE_FLAG: Show Unnamed NPC (ID: 17735827/0x010EA093)
 19: 0x0D92 [0x92] Unnamed NPC (ID: 17735827/0x010EA093)->Render.Flags3 ^= 0x01
 20: 0x0D98 [0x29] REQ_SET_WAIT(priority=0x05, entity_id=Unnamed NPC (ID: 17735827/0x010EA093), tag_num=0x0E)
 21: 0x0D9F [0x29] REQ_SET_WAIT(priority=0x05, entity_id=Unnamed NPC (ID: 17735827/0x010EA093), tag_num=0x10)
 22: 0x0DA6 [0x29] REQ_SET_WAIT(priority=0x05, entity_id=Zopago (ID: 17735824/0x010EA090), tag_num=0x22)
 23: 0x0DAD [0x29] REQ_SET_WAIT(priority=0x05, entity_id=Wahboud (ID: 17735844/0x010EA0A4), tag_num=0x07)
 24: 0x0DB4 [0x29] REQ_SET_WAIT(priority=0x05, entity_id=Bashraf (ID: 17735842/0x010EA0A2), tag_num=0x07)
 25: 0x0DBB [0x29] REQ_SET_WAIT(priority=0x05, entity_id=Foudeel (ID: 17735843/0x010EA0A3), tag_num=0x07)
 26: 0x0DC2 [0x29] REQ_SET_WAIT(priority=0x05, entity_id=LocalPlayer, tag_num=0x68)
 27: 0x0DC9 [0x4A] Zopago (ID: 17735824/0x010EA090) looks at LocalPlayer
 28: 0x0DD2 [0x4A] LocalPlayer looks at Wahboud (ID: 17735844/0x010EA0A4)
 29: 0x0DDB [0x4A] Wahboud (ID: 17735844/0x010EA0A4) looks at LocalPlayer
 30: 0x0DE4 [0x4A] Bashraf (ID: 17735842/0x010EA0A2) looks at LocalPlayer
 31: 0x0DED [0x4A] Foudeel (ID: 17735843/0x010EA0A3) looks at LocalPlayer
 32: 0x0DF6 [0x5C] MUSIC_CONTROL: Set Idle (Day) music to song 136*
 33: 0x0DFA [0x5C] MUSIC_CONTROL: Set Idle (Night) music to song 136*
 34: 0x0DFE [0x6B] STOP_AND_IDLE: Unnamed NPC (ID: 17735825/0x010EA091) stops current action and resets to idle (animation="idl0")
 35: 0x0E07 [0x29] REQ_SET_WAIT(priority=0x05, entity_id=Unnamed NPC (ID: 17735825/0x010EA091), tag_num=0x22)
 36: 0x0E0E [0x80] LOAD_WAIT(entity=Unnamed NPC (ID: 17735825/0x010EA091))
 37: 0x0E13 [0x45] LOAD_SCHEDULED_TASK: Load scheduler "s088" with entities [EventEntity, EventEntity], work=[199*, 0*]
 38: 0x0E24 [0x1C] WAIT(60* ticks)
 39: 0x0E27 [0x45] LOAD_SCHEDULED_TASK: Load scheduler "fdi1" with entities [EventEntity, EventEntity], work=[200*, 0*]
 40: 0x0E38 [0x1C] WAIT(60* ticks)
 41: 0x0E3B [0x66] LOAD_EXT_SCHEDULER_MAIN: Load scheduler "tlk1" with entities [Wahboud (ID: 17735844/0x010EA0A4), Wahboud (ID: 17735844/0x010EA0A4)], work=0*
 42: 0x0E4A [0x1A] CALL_SUBROUTINE(address=0x2823)
 43: 0x0E4D [0x03] Work_Zone[3] = 1*
 44: 0x0E52 [0x2B] Wahboud (ID: 17735844/0x010EA0A4) [13978*]:
    → "Don't feel too bad when you lose... You never stood a chance anyway!"
 45: 0x0E59 [0x23] WAIT_FOR_DIALOG_INTERACTION
 46: 0x0E5A [0x1A] CALL_SUBROUTINE(address=0x282E)
 47: 0x0E5D [0x66] LOAD_EXT_SCHEDULER_MAIN: Load scheduler "ten1" with entities [Wahboud (ID: 17735844/0x010EA0A4), Wahboud (ID: 17735844/0x010EA0A4)], work=0*
 48: 0x0E6C [0x52] END_LOAD_SCHEDULER: End scheduler "s088" with entities [EventEntity, EventEntity], work=199*
 49: 0x0E7B [0x45] LOAD_SCHEDULED_TASK: Load scheduler "s089" with entities [EventEntity, EventEntity], work=[199*, 0*]
 50: 0x0E8C [0x4A] Zopago (ID: 17735824/0x010EA090) looks at Unnamed NPC (ID: 17735826/0x010EA092)
 51: 0x0E95 [0x1C] WAIT(30* ticks)
 52: 0x0E98 [0x2B] Zopago (ID: 17735824/0x010EA090) [13503*]:
    → "On your marks... Get set... Go!"
 53: 0x0E9F [0x23] WAIT_FOR_DIALOG_INTERACTION
 54: 0x0EA0 [0x52] END_LOAD_SCHEDULER: End scheduler "s089" with entities [EventEntity, EventEntity], work=199*
 55: 0x0EAF [0x45] LOAD_SCHEDULED_TASK: Load scheduler "s090" with entities [EventEntity, EventEntity], work=[199*, 0*]
 56: 0x0EC0 [0x27] REQ_SET(priority=0x05, entity_id=Unnamed NPC (ID: 17735825/0x010EA091), tag_num=0x23)
 57: 0x0EC7 [0x27] REQ_SET(priority=0x05, entity_id=Unnamed NPC (ID: 17735826/0x010EA092), tag_num=0x1A)
 58: 0x0ECE [0x2A] GET_REQ_LEVEL(level=5, entity_id=Unnamed NPC (ID: 17735825/0x010EA091))
 59: 0x0ED4 [0x2A] GET_REQ_LEVEL(level=5, entity_id=Unnamed NPC (ID: 17735826/0x010EA092))
 60: 0x0EDA [0x5D] SET_MUSIC_VOLUME(volume=0*, fade_time=120*)
 61: 0x0EDF [0x1C] WAIT(120* ticks)
 62: 0x0EE2 [0x52] END_LOAD_SCHEDULER: End scheduler "s092" with entities [EventEntity, EventEntity], work=199*
 63: 0x0EF1 [0x00] END_REQSTACK()
```

### Event 65535.24

#### Metadata

| Field        | Value     |
|--------------|-----------|
| Entrypoint   | 0x0EF2    |
| Data Size    | 204 bytes |
| Instructions | 22        |

```
      00 01 02 03 04 05 06 07  08 09 0A 0B 0C 0D 0E 0F
      -- -- -- -- -- -- -- --  -- -- -- -- -- -- -- --
0EF0:       45 09 80 F8 FF FF  7F F8 FF FF 7F 66 64 6F    E..........fdo
0F00: 31 08 80 55 09 80 F8 FF  FF 7F F8 FF FF 7F 66 64  1..U..........fd
0F10: 6F 31 52 35 80 F8 FF FF  7F F8 FF FF 7F 73 30 39  o1R5.........s09
0F20: 34 52 35 80 F8 FF FF 7F  F8 FF FF 7F 73 30 39 37  4R5.........s097
0F30: 52 35 80 F8 FF FF 7F F8  FF FF 7F 73 31 31 32 66  R5.........s112f
0F40: 39 80 9F A0 0E 01 9F A0  0E 01 6E 74 6C 31 5B 3A  9.........ntl1[:
0F50: 80 A0 A0 0E 01 A0 A0 0E  01 74 6C 62 31 5B 0D 80  .........tlb1[..
0F60: 93 A0 0E 01 93 A0 0E 01  69 6B 61 31 29 05 9F A0  ........ika1)...
0F70: 0E 01 0F 29 05 A0 A0 0E  01 0B 29 05 A1 A0 0E 01  ...)......).....
0F80: 09 4E 01 92 A0 0E 01 2F  01 92 A0 0E 01 4E 01 9F  .N...../.....N..
0F90: A0 0E 01 2F 01 9F A0 0E  01 4E 01 A0 A0 0E 01 2F  .../.....N...../
0FA0: 01 A0 A0 0E 01 4E 01 93  A0 0E 01 2F 01 93 A0 0E  .....N...../....
0FB0: 01 4E 01 A1 A0 0E 01 2F  01 A1 A0 0E 01 00        .N...../......  
```

#### Opcodes

```
  0: 0x0EF2 [0x45] LOAD_SCHEDULED_TASK: Load scheduler "fdo1" with entities [EventEntity, EventEntity], work=[200*, 0*]
  1: 0x0F03 [0x55] WAIT_LOAD_SCHEDULER: Wait for scheduler "fdo1" with entities [EventEntity, EventEntity], work=200*
  2: 0x0F12 [0x52] END_LOAD_SCHEDULER: End scheduler "s094" with entities [EventEntity, EventEntity], work=199*
  3: 0x0F21 [0x52] END_LOAD_SCHEDULER: End scheduler "s097" with entities [EventEntity, EventEntity], work=199*
  4: 0x0F30 [0x52] END_LOAD_SCHEDULER: End scheduler "s112" with entities [EventEntity, EventEntity], work=199*
  5: 0x0F3F [0x66] LOAD_EXT_SCHEDULER_MAIN: Load scheduler "ntl1" with entities [Hantileon (ID: 17735839/0x010EA09F), Hantileon (ID: 17735839/0x010EA09F)], work=11*
  6: 0x0F4E [0x5B] LOAD_EXT_SCHEDULER: Load scheduler "tlb1" with entities [Brutus (ID: 17735840/0x010EA0A0), Brutus (ID: 17735840/0x010EA0A0)], work=90*
  7: 0x0F5D [0x5B] LOAD_EXT_SCHEDULER: Load scheduler "ika1" with entities [Unnamed NPC (ID: 17735827/0x010EA093), Unnamed NPC (ID: 17735827/0x010EA093)], work=60*
  8: 0x0F6C [0x29] REQ_SET_WAIT(priority=0x05, entity_id=Hantileon (ID: 17735839/0x010EA09F), tag_num=0x0F)
  9: 0x0F73 [0x29] REQ_SET_WAIT(priority=0x05, entity_id=Brutus (ID: 17735840/0x010EA0A0), tag_num=0x0B)
 10: 0x0F7A [0x29] REQ_SET_WAIT(priority=0x05, entity_id=Pulonono (ID: 17735841/0x010EA0A1), tag_num=0x09)
 11: 0x0F81 [0x4E] SET_ENTITY_HIDE_FLAG: Hide Unnamed NPC (ID: 17735826/0x010EA092)
 12: 0x0F87 [0x2F] Unnamed NPC (ID: 17735826/0x010EA092)->Render.Flags0 |= 0x80000 // Bit 19
 13: 0x0F8D [0x4E] SET_ENTITY_HIDE_FLAG: Hide Hantileon (ID: 17735839/0x010EA09F)
 14: 0x0F93 [0x2F] Hantileon (ID: 17735839/0x010EA09F)->Render.Flags0 |= 0x80000 // Bit 19
 15: 0x0F99 [0x4E] SET_ENTITY_HIDE_FLAG: Hide Brutus (ID: 17735840/0x010EA0A0)
 16: 0x0F9F [0x2F] Brutus (ID: 17735840/0x010EA0A0)->Render.Flags0 |= 0x80000 // Bit 19
 17: 0x0FA5 [0x4E] SET_ENTITY_HIDE_FLAG: Hide Unnamed NPC (ID: 17735827/0x010EA093)
 18: 0x0FAB [0x2F] Unnamed NPC (ID: 17735827/0x010EA093)->Render.Flags0 |= 0x80000 // Bit 19
 19: 0x0FB1 [0x4E] SET_ENTITY_HIDE_FLAG: Hide Pulonono (ID: 17735841/0x010EA0A1)
 20: 0x0FB7 [0x2F] Pulonono (ID: 17735841/0x010EA0A1)->Render.Flags0 |= 0x80000 // Bit 19
 21: 0x0FBD [0x00] END_REQSTACK()
```

### Event 65535.25

#### Metadata

| Field        | Value     |
|--------------|-----------|
| Entrypoint   | 0x0FBE    |
| Data Size    | 351 bytes |
| Instructions | 45        |

```
      00 01 02 03 04 05 06 07  08 09 0A 0B 0C 0D 0E 0F
      -- -- -- -- -- -- -- --  -- -- -- -- -- -- -- --
0FB0:                                            29 05                ).
0FC0: 98 A0 0E 01 03 29 05 98  A0 0E 01 1B 80 98 A0 0E  .....)..........
0FD0: 01 6B 63 68 69 30 97 A0  0E 01 29 05 97 A0 0E 01  .kchi0....).....
0FE0: 28 80 97 A0 0E 01 5C 00  34 80 5C 01 34 80 29 05  (.....\.4.\.4.).
0FF0: 90 A0 0E 01 24 29 05 A4  A0 0E 01 09 29 05 A2 A0  ....$)......)...
1000: 0E 01 09 29 05 A3 A0 0E  01 09 29 05 F0 FF FF 7F  ...)......).....
1010: 6A 4A 90 A0 0E 01 F0 FF  FF 7F 4A F0 FF FF 7F A4  jJ........J.....
1020: A0 0E 01 4A A4 A0 0E 01  F0 FF FF 7F 4A A2 A0 0E  ...J........J...
1030: 01 F0 FF FF 7F 4A A3 A0  0E 01 F0 FF FF 7F 45 35  .....J........E5
1040: 80 F8 FF FF 7F F8 FF FF  7F 73 30 39 38 08 80 1C  .........s098...
1050: 0D 80 45 09 80 F8 FF FF  7F F8 FF FF 7F 66 64 69  ..E..........fdi
1060: 31 08 80 1C 0D 80 66 08  80 A4 A0 0E 01 A4 A0 0E  1.....f.........
1070: 01 74 6C 6B 31 1A 23 28  03 03 10 11 80 2B A4 A0  .tlk1.#(.....+..
1080: 0E 01 36 80 23 1A 2E 28  66 08 80 A4 A0 0E 01 A4  ..6.#..(f.......
1090: A0 0E 01 74 65 6E 31 52  35 80 F8 FF FF 7F F8 FF  ...ten1R5.......
10A0: FF 7F 73 30 39 38 45 35  80 F8 FF FF 7F F8 FF FF  ..s098E5........
10B0: 7F 73 30 39 39 08 80 4A  90 A0 0E 01 98 A0 0E 01  .s099..J........
10C0: 1C 15 80 2B 90 A0 0E 01  37 80 23 52 35 80 F8 FF  ...+....7.#R5...
10D0: FF 7F F8 FF FF 7F 73 30  39 39 45 35 80 F8 FF FF  ......s099E5....
10E0: 7F F8 FF FF 7F 73 31 30  30 08 80 27 05 97 A0 0E  .....s100..'....
10F0: 01 29 27 05 98 A0 0E 01  1C 2A 05 97 A0 0E 01 2A  .)'......*.....*
1100: 05 98 A0 0E 01 5D 08 80  38 80 1C 38 80 52 35 80  .....]..8..8.R5.
1110: F8 FF FF 7F F8 FF FF 7F  73 31 30 35 00           ........s105.   
```

#### Opcodes

```
  0: 0x0FBE [0x29] REQ_SET_WAIT(priority=0x05, entity_id=Unnamed NPC (ID: 17735832/0x010EA098), tag_num=0x03)
  1: 0x0FC5 [0x29] REQ_SET_WAIT(priority=0x05, entity_id=Unnamed NPC (ID: 17735832/0x010EA098), tag_num=0x1B)
  2: 0x0FCC [0x80] LOAD_WAIT(entity=Unnamed NPC (ID: 17735832/0x010EA098))
  3: 0x0FD1 [0x6B] STOP_AND_IDLE: Unnamed NPC (ID: 17735831/0x010EA097) stops current action and resets to idle (animation="chi0")
  4: 0x0FDA [0x29] REQ_SET_WAIT(priority=0x05, entity_id=Unnamed NPC (ID: 17735831/0x010EA097), tag_num=0x28)
  5: 0x0FE1 [0x80] LOAD_WAIT(entity=Unnamed NPC (ID: 17735831/0x010EA097))
  6: 0x0FE6 [0x5C] MUSIC_CONTROL: Set Idle (Day) music to song 136*
  7: 0x0FEA [0x5C] MUSIC_CONTROL: Set Idle (Night) music to song 136*
  8: 0x0FEE [0x29] REQ_SET_WAIT(priority=0x05, entity_id=Zopago (ID: 17735824/0x010EA090), tag_num=0x24)
  9: 0x0FF5 [0x29] REQ_SET_WAIT(priority=0x05, entity_id=Wahboud (ID: 17735844/0x010EA0A4), tag_num=0x09)
 10: 0x0FFC [0x29] REQ_SET_WAIT(priority=0x05, entity_id=Bashraf (ID: 17735842/0x010EA0A2), tag_num=0x09)
 11: 0x1003 [0x29] REQ_SET_WAIT(priority=0x05, entity_id=Foudeel (ID: 17735843/0x010EA0A3), tag_num=0x09)
 12: 0x100A [0x29] REQ_SET_WAIT(priority=0x05, entity_id=LocalPlayer, tag_num=0x6A)
 13: 0x1011 [0x4A] Zopago (ID: 17735824/0x010EA090) looks at LocalPlayer
 14: 0x101A [0x4A] LocalPlayer looks at Wahboud (ID: 17735844/0x010EA0A4)
 15: 0x1023 [0x4A] Wahboud (ID: 17735844/0x010EA0A4) looks at LocalPlayer
 16: 0x102C [0x4A] Bashraf (ID: 17735842/0x010EA0A2) looks at LocalPlayer
 17: 0x1035 [0x4A] Foudeel (ID: 17735843/0x010EA0A3) looks at LocalPlayer
 18: 0x103E [0x45] LOAD_SCHEDULED_TASK: Load scheduler "s098" with entities [EventEntity, EventEntity], work=[199*, 0*]
 19: 0x104F [0x1C] WAIT(60* ticks)
 20: 0x1052 [0x45] LOAD_SCHEDULED_TASK: Load scheduler "fdi1" with entities [EventEntity, EventEntity], work=[200*, 0*]
 21: 0x1063 [0x1C] WAIT(60* ticks)
 22: 0x1066 [0x66] LOAD_EXT_SCHEDULER_MAIN: Load scheduler "tlk1" with entities [Wahboud (ID: 17735844/0x010EA0A4), Wahboud (ID: 17735844/0x010EA0A4)], work=0*
 23: 0x1075 [0x1A] CALL_SUBROUTINE(address=0x2823)
 24: 0x1078 [0x03] Work_Zone[3] = 1*
 25: 0x107D [0x2B] Wahboud (ID: 17735844/0x010EA0A4) [13978*]:
    → "Don't feel too bad when you lose... You never stood a chance anyway!"
 26: 0x1084 [0x23] WAIT_FOR_DIALOG_INTERACTION
 27: 0x1085 [0x1A] CALL_SUBROUTINE(address=0x282E)
 28: 0x1088 [0x66] LOAD_EXT_SCHEDULER_MAIN: Load scheduler "ten1" with entities [Wahboud (ID: 17735844/0x010EA0A4), Wahboud (ID: 17735844/0x010EA0A4)], work=0*
 29: 0x1097 [0x52] END_LOAD_SCHEDULER: End scheduler "s098" with entities [EventEntity, EventEntity], work=199*
 30: 0x10A6 [0x45] LOAD_SCHEDULED_TASK: Load scheduler "s099" with entities [EventEntity, EventEntity], work=[199*, 0*]
 31: 0x10B7 [0x4A] Zopago (ID: 17735824/0x010EA090) looks at Unnamed NPC (ID: 17735832/0x010EA098)
 32: 0x10C0 [0x1C] WAIT(30* ticks)
 33: 0x10C3 [0x2B] Zopago (ID: 17735824/0x010EA090) [13503*]:
    → "On your marks... Get set... Go!"
 34: 0x10CA [0x23] WAIT_FOR_DIALOG_INTERACTION
 35: 0x10CB [0x52] END_LOAD_SCHEDULER: End scheduler "s099" with entities [EventEntity, EventEntity], work=199*
 36: 0x10DA [0x45] LOAD_SCHEDULED_TASK: Load scheduler "s100" with entities [EventEntity, EventEntity], work=[199*, 0*]
 37: 0x10EB [0x27] REQ_SET(priority=0x05, entity_id=Unnamed NPC (ID: 17735831/0x010EA097), tag_num=0x29)
 38: 0x10F2 [0x27] REQ_SET(priority=0x05, entity_id=Unnamed NPC (ID: 17735832/0x010EA098), tag_num=0x1C)
 39: 0x10F9 [0x2A] GET_REQ_LEVEL(level=5, entity_id=Unnamed NPC (ID: 17735831/0x010EA097))
 40: 0x10FF [0x2A] GET_REQ_LEVEL(level=5, entity_id=Unnamed NPC (ID: 17735832/0x010EA098))
 41: 0x1105 [0x5D] SET_MUSIC_VOLUME(volume=0*, fade_time=120*)
 42: 0x110A [0x1C] WAIT(120* ticks)
 43: 0x110D [0x52] END_LOAD_SCHEDULER: End scheduler "s105" with entities [EventEntity, EventEntity], work=199*
 44: 0x111C [0x00] END_REQSTACK()
```

### Event 65535.26

#### Metadata

| Field        | Value    |
|--------------|----------|
| Entrypoint   | 0x111D   |
| Data Size    | 92 bytes |
| Instructions | 12       |

```
      00 01 02 03 04 05 06 07  08 09 0A 0B 0C 0D 0E 0F
      -- -- -- -- -- -- -- --  -- -- -- -- -- -- -- --
1110:                                         9F 18 80               ...
1120: 91 A0 0E 01 91 A0 0E 01  73 74 6F 70 08 80 29 05  ........stop..).
1130: 91 A0 0E 01 03 80 91 A0  0E 01 29 05 90 A0 0E 01  ..........).....
1140: 06 45 17 80 F8 FF FF 7F  F8 FF FF 7F 73 31 37 30  .E..........s170
1150: 08 80 1C 0D 80 45 09 80  F8 FF FF 7F F8 FF FF 7F  .....E..........
1160: 66 64 69 31 08 80 1C 0D  80 27 05 90 A0 0E 01 07  fdi1.....'......
1170: 2B 90 A0 0E 01 3B 80 23  00                       +....;.#.       
```

#### Opcodes

```
  0: 0x111D [0x9F] LOAD_SCHEDULED_TASK_ALT: Load scheduler "stop" with entities [Unnamed NPC (ID: 17735825/0x010EA091), Unnamed NPC (ID: 17735825/0x010EA091)], work=[235*, 0*]
  1: 0x112E [0x29] REQ_SET_WAIT(priority=0x05, entity_id=Unnamed NPC (ID: 17735825/0x010EA091), tag_num=0x03)
  2: 0x1135 [0x80] LOAD_WAIT(entity=Unnamed NPC (ID: 17735825/0x010EA091))
  3: 0x113A [0x29] REQ_SET_WAIT(priority=0x05, entity_id=Zopago (ID: 17735824/0x010EA090), tag_num=0x06)
  4: 0x1141 [0x45] LOAD_SCHEDULED_TASK: Load scheduler "s170" with entities [EventEntity, EventEntity], work=[198*, 0*]
  5: 0x1152 [0x1C] WAIT(60* ticks)
  6: 0x1155 [0x45] LOAD_SCHEDULED_TASK: Load scheduler "fdi1" with entities [EventEntity, EventEntity], work=[200*, 0*]
  7: 0x1166 [0x1C] WAIT(60* ticks)
  8: 0x1169 [0x27] REQ_SET(priority=0x05, entity_id=Zopago (ID: 17735824/0x010EA090), tag_num=0x07)
  9: 0x1170 [0x2B] Zopago (ID: 17735824/0x010EA090) [13507*]:
    → "We've been taking good care of your egg. I can't wait to see how the chick looks."
 10: 0x1177 [0x23] WAIT_FOR_DIALOG_INTERACTION
 11: 0x1178 [0x00] END_REQSTACK()
```

### Event 65535.27

#### Metadata

| Field        | Value     |
|--------------|-----------|
| Entrypoint   | 0x1179    |
| Data Size    | 140 bytes |
| Instructions | 18        |

```
      00 01 02 03 04 05 06 07  08 09 0A 0B 0C 0D 0E 0F
      -- -- -- -- -- -- -- --  -- -- -- -- -- -- -- --
1170:                             9F 18 80 91 A0 0E 01           .......
1180: 91 A0 0E 01 73 74 6F 70  08 80 29 05 91 A0 0E 01  ....stop..).....
1190: 04 80 91 A0 0E 01 6B 69  64 6C 30 91 A0 0E 01 29  ......kidl0....)
11A0: 05 90 A0 0E 01 06 1C 15  80 45 17 80 F8 FF FF 7F  .........E......
11B0: F8 FF FF 7F 73 31 37 30  08 80 1C 0D 80 45 09 80  ....s170.....E..
11C0: F8 FF FF 7F F8 FF FF 7F  66 64 69 31 08 80 27 05  ........fdi1..'.
11D0: 90 A0 0E 01 07 1A 23 28  2B 90 A0 0E 01 3C 80 23  ......#(+....<.#
11E0: 1A 2E 28 5B 16 80 91 A0  0E 01 91 A0 0E 01 68 69  ..([..........hi
11F0: 30 39 5B 3D 80 91 A0 0E  01 91 A0 0E 01 31 30 30  09[=.........100
1200: 35 1C 38 80 1B                                    5.8..           
```

#### Opcodes

```
  0: 0x1179 [0x9F] LOAD_SCHEDULED_TASK_ALT: Load scheduler "stop" with entities [Unnamed NPC (ID: 17735825/0x010EA091), Unnamed NPC (ID: 17735825/0x010EA091)], work=[235*, 0*]
  1: 0x118A [0x29] REQ_SET_WAIT(priority=0x05, entity_id=Unnamed NPC (ID: 17735825/0x010EA091), tag_num=0x04)
  2: 0x1191 [0x80] LOAD_WAIT(entity=Unnamed NPC (ID: 17735825/0x010EA091))
  3: 0x1196 [0x6B] STOP_AND_IDLE: Unnamed NPC (ID: 17735825/0x010EA091) stops current action and resets to idle (animation="idl0")
  4: 0x119F [0x29] REQ_SET_WAIT(priority=0x05, entity_id=Zopago (ID: 17735824/0x010EA090), tag_num=0x06)
  5: 0x11A6 [0x1C] WAIT(30* ticks)
  6: 0x11A9 [0x45] LOAD_SCHEDULED_TASK: Load scheduler "s170" with entities [EventEntity, EventEntity], work=[198*, 0*]
  7: 0x11BA [0x1C] WAIT(60* ticks)
  8: 0x11BD [0x45] LOAD_SCHEDULED_TASK: Load scheduler "fdi1" with entities [EventEntity, EventEntity], work=[200*, 0*]
  9: 0x11CE [0x27] REQ_SET(priority=0x05, entity_id=Zopago (ID: 17735824/0x010EA090), tag_num=0x07)
 10: 0x11D5 [0x1A] CALL_SUBROUTINE(address=0x2823)
 11: 0x11D8 [0x2B] Zopago (ID: 17735824/0x010EA090) [13508*]:
