# 17735727 - Chocobo

## Common Data

| Field            | Value                  |
|------------------|------------------------|
| Zone             | Bastok Mines (ID: 234) |
| Block Size       | 5064 bytes             |
| Total Events     | 5                      |
| References Count | 114                    |

## List of Events

| Event ID              | Entrypoint   |   Size |   Instructions |
|-----------------------|--------------|--------|----------------|
| [65535](#event-65535) | 0x0000       |      1 |              1 |
| [61](#event-61)       | 0x0001       |      1 |              1 |
| [245](#event-245)     | 0x0002       |      1 |              1 |
| [247](#event-247)     | 0x0003       |      1 |              1 |
| [551](#event-551)     | 0x0004       |   4568 |            975 |

## DAT References (imed_data)

|   Index | Hex Value   |   Dec Value |
|---------|-------------|-------------|
|       0 | 0x0000      |           0 |
|       1 | 0x32C7      |       12999 |
|       2 | 0x0002      |           2 |
|       3 | 0x0001      |           1 |
|       4 | 0x0003      |           3 |
|       5 | 0x0004      |           4 |
|       6 | 0x0005      |           5 |
|       7 | 0x0006      |           6 |
|       8 | 0x0007      |           7 |
|       9 | 0x00E8      |         232 |
|      10 | 0x0008      |           8 |
|      11 | 0x0009      |           9 |
|      12 | 0x000A      |          10 |
|      13 | 0x000B      |          11 |
|      14 | 0x000C      |          12 |
|      15 | 0x000D      |          13 |
|      16 | 0x01CE      |         462 |
|      17 | 0x3321      |       13089 |
|      18 | 0x32E3      |       13027 |
|      19 | 0x02CE      |         718 |
|      20 | 0x0010      |          16 |
|      21 | 0x0017      |          23 |
|      22 | 0x0018      |          24 |
|      23 | 0x001F      |          31 |
|      24 | 0x00CF      |         207 |
|      25 | 0x32E1      |       13025 |
|      26 | 0x32E2      |       13026 |
|      27 | 0x01CF      |         463 |
|      28 | 0x02CF      |         719 |
|      29 | 0x00D5      |         213 |
|      30 | 0x32DF      |       13023 |
|      31 | 0x02D5      |         725 |
|      32 | 0x01D5      |         469 |
|      33 | 0x03D5      |         981 |
|      34 | 0x04D5      |        1237 |
|      35 | 0x0AD5      |        2773 |
|      36 | 0x32E0      |       13024 |
|      37 | 0x05D5      |        1493 |
|      38 | 0x06D5      |        1749 |
|      39 | 0x07D5      |        2005 |
|      40 | 0x08D5      |        2261 |
|      41 | 0x09D5      |        2517 |
|      42 | 0x0BD5      |        3029 |
|      43 | 0x32DE      |       13022 |
|      44 | 0x01EE      |         494 |
|      45 | 0x02EE      |         750 |
|      46 | 0x03EE      |        1006 |
|      47 | 0x04EE      |        1262 |
|      48 | 0x05EE      |        1518 |
|      49 | 0x06EE      |        1774 |
|      50 | 0x07EE      |        2030 |
|      51 | 0x32DC      |       13020 |
|      52 | 0x01ED      |         493 |
|      53 | 0x331A      |       13082 |
|      54 | 0x00ED      |         237 |
|      55 | 0x32DD      |       13021 |
|      56 | 0x02ED      |         749 |
|      57 | 0x32DB      |       13019 |
|      58 | 0x00EC      |         236 |
|      59 | 0x000F      |          15 |
|      60 | 0x32D5      |       13013 |
|      61 | 0x32CE      |       13006 |
|      62 | 0x00E6      |         230 |
|      63 | 0x32CA      |       13002 |
|      64 | 0xFFFFFFFF  |  4294967295 |
|      65 | 0x00FF      |         255 |
|      66 | 0x0100      |         256 |
|      67 | 0x00E4      |         228 |
|      68 | 0x3322      |       13090 |
|      69 | 0x00E3      |         227 |
|      70 | 0x32C9      |       13001 |
|      71 | 0x00E2      |         226 |
|      72 | 0x32C8      |       13000 |
|      73 | 0x00E7      |         231 |
|      74 | 0x32CB      |       13003 |
|      75 | 0x0064      |         100 |
|      76 | 0x32CC      |       13004 |
|      77 | 0x32CD      |       13005 |
|      78 | 0x00E5      |         229 |
|      79 | 0x32ED      |       13037 |
|      80 | 0x32EF      |       13039 |
|      81 | 0x32D9      |       13017 |
|      82 | 0x3325      |       13093 |
|      83 | 0x00E9      |         233 |
|      84 | 0x32DA      |       13018 |
|      85 | 0x00EB      |         235 |
|      86 | 0x00EA      |         234 |
|      87 | 0x00D1      |         209 |
|      88 | 0x00D3      |         211 |
|      89 | 0x32D6      |       13014 |
|      90 | 0x01D3      |         467 |
|      91 | 0x02D3      |         723 |
|      92 | 0x03D3      |         979 |
|      93 | 0x04D3      |        1235 |
|      94 | 0x05D3      |        1491 |
|      95 | 0x00D4      |         212 |
|      96 | 0x32D7      |       13015 |
|      97 | 0x01D4      |         468 |
|      98 | 0x02D4      |         724 |
|      99 | 0x03D4      |         980 |
|     100 | 0x04D4      |        1236 |
|     101 | 0x05D4      |        1492 |
|     102 | 0x06D4      |        1748 |
|     103 | 0x07D4      |        2004 |
|     104 | 0x08D4      |        2260 |
|     105 | 0x09D4      |        2516 |
|     106 | 0x0AD4      |        2772 |
|     107 | 0x00D2      |         210 |
|     108 | 0x32D8      |       13016 |
|     109 | 0x01D2      |         466 |
|     110 | 0x02D2      |         722 |
|     111 | 0x03D2      |         978 |
|     112 | 0x04D2      |        1234 |
|     113 | 0x05D2      |        1490 |

## String References

- **12999**: Debug menu for %0%1: [Move time forward./See an event./Change to default./Naming test./Weather check test (Ronfaure)./Confirm chocobo status./Alter chocobo status./User work display./Control status./Control growth stages./Control DNA./Receive item./Control flags./Abilities./Cancel.]
- **13000**: Skip events after moving time forward? [Skip all events./Don't skip events.]
- **13001**: Please specify the amount of time you wish to move forward (1-255).
- **13002**: Please specify your desired [strength/endurance/discernment/receptivity/affection/HP/satisfaction] level (Maximum of 255).
- **13003**: Choose your range in hundreds. [000-099./100-199."00-255./Cancel.]
- **13004**: Choose your range in tens. [00-09./10-19."0-29."0-39./40-49./50-59./60-69./70-79./80-89./90-99./Cancel.]
- **13005**: Choose your range to the single digit. [0./1."."./4./5./6./7./8./9./Cancel.]
- **13006**: Choose an area. [San d'Oria./Bastok./Windurst./Chocobo Circuit (Debug only)./Cancel.]
- **13013**: Choose a statistic to alter. [Strength (STR)./Endurance (VIT)./Discernment (INT)./Receptivity (MND)./Affection./Energy (HP)./Satisfaction./Temperament./Weather preference./Color./Stable./Cancel.]
- **13014**: Pick a temperament (Currently [regular/fierce/patient/nervous/mysterious]) [Regular./Fierce/Patient./Nervous./Mysterious./Cancel.]
- **13015**: Pick a preference (currently [sunny/fire/water/earth/wind/snow/thunder/light/dark/--/cloudy]) [Sunny./Cloudy./Heat./Snow./Wind./Sand./Thunder./Rain./Light./Dark./Cancel.]
- **13016**: Pick a color, any color. [Yellow./Black./Blue./Red./Green./Cancel.]
- **13017**: Select an option. [Check status./Inflict status./Heal status./Inflict status.(Do it next cluc.)/Cancel.]
- **13018**: Which status abnormality? [Injury./Minor illness./Stomachache./Loneliness./Happiness./Laziness./Serious illness./Confusion./Spoiled chocobo./Runaway./In love./Crying at night./Vitality./Intelligence./Cancel.]
- **13019**: Pick a growth stage. [Not raising chocobo./Egg./Chick./Young chocobo./Mature chocobo./Peak ability./Settling down./Retirement./Cancel.]
- **13020**: Pick one. [Y/B/b/R/G/Cancel.]
- **13021**: $P14-;$P14=%f5\\7)$6881847 5H"
- **13022**: Pick one. [Egg 1./Egg 2./Egg 3./Egg 4./Egg 5./Matchmaking card (M)./Matchmaking card (F)./Cancel.]
- **13023**: Whaddaya want? [One day flag ([off/on])/Zone flag ([off/on])/Key item to stop crying ([off/on])/Key item: chocobo treasure ([off/on])/U_KYO_FLAGS (event to get whistle) = $5/Key item: story./Lost chicks./Cancel.]
- **13024**: Pick one. [Impatient chocobo story ([off/on])./Curious chocobo story ([off/on])./Small dropped item story ([off/on])./Big dropped item story ([off/on])./Happy chocobo story ([off/on])./Whimsical chocobo story ([off/on])./Cancel.]
- **13025**: Lost chick event. (Currently [active/disabled]) [Set number of owners ($0)/Reset to default./Nothing.]
- **13026**: Pick a number. (Currently $0) [1."."./4./5./6./7./8./Never mind.]
- **13027**: Choose ability to set. [None./Gallop./Canter./Burrow./Bore./Auto-Regen./Treasure Finder./Cancel.]
- **13037**: STR:$0/VIT:$1/INT:$2/MND:$3
- **13039**: Affection:$0/Energy:$1/Satisfaction:$2
- **13082**: D$3Z$3b$3gF[Y/B/b/r/g][Y/B/b/r/g][Y/B/b/r/g]
- **13089**: Slot 1: [None/Gallop/Canter/Burrow/Bore/Auto-Regen/Treasure Finder]/Slot 2: [None/Gallop/Canter/Burrow/Bore/Auto-Regen/Treasure Finder]
- **13090**: Returning settings to default.
- **13093**: +=-=-=-=-=-=-DEBUG START=-=-=-=-=-=-=+

## Events

### Event 65535

#### Metadata

| Field        | Value   |
|--------------|---------|
| Entrypoint   | 0x0000  |
| Data Size    | 1 bytes |
| Instructions | 1       |

```
      00 01 02 03 04 05 06 07  08 09 0A 0B 0C 0D 0E 0F
      -- -- -- -- -- -- -- --  -- -- -- -- -- -- -- --
0000: 00                                                .               
```

#### Opcodes

```
  0: 0x0000 [0x00] END_REQSTACK()
```

### Event 61

#### Metadata

| Field        | Value   |
|--------------|---------|
| Entrypoint   | 0x0001  |
| Data Size    | 1 bytes |
| Instructions | 1       |

```
      00 01 02 03 04 05 06 07  08 09 0A 0B 0C 0D 0E 0F
      -- -- -- -- -- -- -- --  -- -- -- -- -- -- -- --
0000:    00                                              .              
```

#### Opcodes

```
  0: 0x0001 [0x00] END_REQSTACK()
```

### Event 245

#### Metadata

| Field        | Value   |
|--------------|---------|
| Entrypoint   | 0x0002  |
| Data Size    | 1 bytes |
| Instructions | 1       |

```
      00 01 02 03 04 05 06 07  08 09 0A 0B 0C 0D 0E 0F
      -- -- -- -- -- -- -- --  -- -- -- -- -- -- -- --
0000:       00                                            .             
```

#### Opcodes

```
  0: 0x0002 [0x00] END_REQSTACK()
```

### Event 247

#### Metadata

| Field        | Value   |
|--------------|---------|
| Entrypoint   | 0x0003  |
| Data Size    | 1 bytes |
| Instructions | 1       |

```
      00 01 02 03 04 05 06 07  08 09 0A 0B 0C 0D 0E 0F
      -- -- -- -- -- -- -- --  -- -- -- -- -- -- -- --
0000:          00                                          .            
```

#### Opcodes

```
  0: 0x0003 [0x00] END_REQSTACK()
```

### Event 551

#### Metadata

| Field        | Value      |
|--------------|------------|
| Entrypoint   | 0x0004     |
| Data Size    | 4568 bytes |
| Instructions | 948        |

```
      00 01 02 03 04 05 06 07  08 09 0A 0B 0C 0D 0E 0F
      -- -- -- -- -- -- -- --  -- -- -- -- -- -- -- --
0000:             1A 09 00 21  00 06 1C 00 02 1C 00 00      ...!........
0010: 80 00 EF 00 24 01 80 00  80 02 80 25 02 00 10 00  ....$......%....
0020: 80 00 2D 00 1A B2 08 05  1C 00 01 EC 00 02 00 10  ..-.............
0030: 03 80 00 38 00 01 EC 00  02 00 10 02 80 00 46 00  ...8..........F.
0040: 1A A4 08 01 EC 00 02 00  10 04 80 00 57 00 1A D4  ............W...
0050: 09 05 1C 00 01 EC 00 02  00 10 05 80 00 65 00 1A  .............e..
0060: 9A 08 01 EC 00 02 00 10  06 80 00 73 00 1A D5 09  ...........s....
0070: 01 EC 00 02 00 10 07 80  00 81 00 1A 4C 07 01 EC  ............L...
0080: 00 02 00 10 08 80 00 95  00 03 01 10 09 80 43 00  ..............C.
0090: 43 01 01 EC 00 02 00 10  0A 80 00 A3 00 1A 30 0A  C.............0.
00A0: 01 EC 00 02 00 10 0B 80  00 B1 00 1A 22 07 01 EC  ............"...
00B0: 00 02 00 10 0C 80 00 BF  00 1A 2A 06 01 EC 00 02  ..........*.....
00C0: 00 10 0D 80 00 CD 00 1A  59 03 01 EC 00 02 00 10  ........Y.......
00D0: 0E 80 00 DB 00 1A DF 01  01 EC 00 02 00 10 0F 80  ................
00E0: 00 E9 00 1A F0 00 01 EC  00 05 1C 00 01 0C 00 1B  ................
00F0: 06 02 17 06 1B 00 03 01  10 10 80 43 00 43 01 48  ...........C.C.H
0100: 11 80 23 24 12 80 00 80  00 80 25 02 00 10 00 80  ..#$......%.....
0110: 00 19 01 01 50 01 01 25  01 02 00 10 08 80 00 25  ....P..%.......%
0120: 01 1B 01 25 01 03 1B 00  00 10 3C 02 17 1B 00 03  ...%......<.....
0130: 80 24 12 80 00 80 02 17  25 02 00 10 00 80 00 44  .$......%......D
0140: 01 01 50 01 02 00 10 08  80 00 50 01 1B 01 50 01  ..P.......P...P.
0150: 03 01 10 13 80 40 14 80  15 80 01 10 1B 00 40 16  .....@........@.
0160: 80 17 80 01 10 00 10 43  00 43 01 48 11 80 23 1B  .......C.C.H..#.
0170: 06 01 17 02 01 17 00 80  00 DE 01 03 01 10 18 80  ................
0180: 43 00 43 01 24 19 80 00  80 00 80 25 02 00 10 00  C.C.$......%....
0190: 80 00 C4 01 24 1A 80 00  80 00 80 25 02 00 10 00  ....$......%....
01A0: 80 00 A7 01 01 A7 01 02  00 10 08 80 05 C1 01 03  ................
01B0: 01 10 1B 80 40 14 80 15  80 01 10 00 10 43 00 43  ....@........C.C
01C0: 01 01 DB 01 02 00 10 03  80 00 D8 01 03 01 10 1C  ................
01D0: 80 43 00 43 01 01 DB 01  05 01 17 01 73 01 1B 06  .C.C........s...
01E0: 00 17 03 01 10 1D 80 43  00 43 01 02 00 17 00 80  .......C.C......
01F0: 00 58 03 24 1E 80 00 80  00 80 25 02 00 10 00 80  .X.$......%.....
0200: 00 0F 02 03 01 10 1F 80  43 00 43 01 01 55 03 02  ........C.C..U..
0210: 00 10 03 80 00 23 02 03  01 10 20 80 43 00 43 01  .....#.... .C.C.
0220: 01 55 03 02 00 10 02 80  00 37 02 03 01 10 21 80  .U.......7....!.
0230: 43 00 43 01 01 55 03 02  00 10 04 80 00 4B 02 03  C.C..U.......K..
0240: 01 10 22 80 43 00 43 01  01 55 03 02 00 10 05 80  ..".C.C..U......
0250: 00 5F 02 03 01 10 23 80  43 00 43 01 01 55 03 02  ._....#.C.C..U..
0260: 00 10 06 80 00 44 03 3E  08 10 00 80 76 02 03 02  .....D.>....v...
0270: 10 03 80 01 79 02 06 02  10 3E 08 10 03 80 88 02  ....y....>......
0280: 03 03 10 03 80 01 8B 02  06 03 10 3E 08 10 02 80  ...........>....
0290: 9A 02 03 04 10 03 80 01  9D 02 06 04 10 3E 08 10  .............>..
02A0: 04 80 AC 02 03 05 10 03  80 01 AF 02 06 05 10 3E  ...............>
02B0: 08 10 05 80 BE 02 03 06  10 03 80 01 C1 02 06 06  ................
02C0: 10 24 24 80 00 80 00 80  25 02 00 10 00 80 00 DD  .$$.....%.......
02D0: 02 03 01 10 25 80 43 00  43 01 01 41 03 02 00 10  ....%.C.C..A....
02E0: 03 80 00 F1 02 03 01 10  26 80 43 00 43 01 01 41  ........&.C.C..A
02F0: 03 02 00 10 02 80 00 05  03 03 01 10 27 80 43 00  ............'.C.
0300: 43 01 01 41 03 02 00 10  04 80 00 19 03 03 01 10  C..A............
0310: 28 80 43 00 43 01 01 41  03 02 00 10 05 80 00 2D  (.C.C..A.......-
0320: 03 03 01 10 29 80 43 00  43 01 01 41 03 02 00 10  ....).C.C..A....
0330: 06 80 00 41 03 03 01 10  2A 80 43 00 43 01 01 41  ...A....*.C.C..A
0340: 03 01 55 03 02 00 10 07  80 00 52 03 1A 70 01 01  ..U.......R..p..
0350: 55 03 05 00 17 01 EB 01  1B 24 2B 80 00 80 00 80  U........$+.....
0360: 25 02 00 10 00 80 00 9F  03 1A 15 05 06 02 10 40  %..............@
0370: 00 80 02 80 02 10 03 10  40 04 80 06 80 02 10 04  ........@.......
0380: 10 40 07 80 0A 80 02 10  05 10 03 01 10 2C 80 40  .@...........,.@
0390: 14 80 17 80 01 10 02 10  43 00 43 01 01 14 05 02  ........C.C.....
03A0: 00 10 03 80 00 DD 03 1A  15 05 06 02 10 40 00 80  .............@..
03B0: 02 80 02 10 03 10 40 04  80 06 80 02 10 04 10 40  ......@........@
03C0: 07 80 0A 80 02 10 05 10  03 01 10 2D 80 40 14 80  ...........-.@..
03D0: 17 80 01 10 02 10 43 00  43 01 01 14 05 02 00 10  ......C.C.......
03E0: 02 80 00 1B 04 1A 15 05  06 02 10 40 00 80 02 80  ...........@....
03F0: 02 10 03 10 40 04 80 06  80 02 10 04 10 40 07 80  ....@........@..
0400: 0A 80 02 10 05 10 03 01  10 2E 80 40 14 80 17 80  ...........@....
0410: 01 10 02 10 43 00 43 01  01 14 05 02 00 10 04 80  ....C.C.........
0420: 00 59 04 1A 15 05 06 02  10 40 00 80 02 80 02 10  .Y.......@......
0430: 03 10 40 04 80 06 80 02  10 04 10 40 07 80 0A 80  ..@........@....
0440: 02 10 05 10 03 01 10 2F  80 40 14 80 17 80 01 10  ......./.@......
0450: 02 10 43 00 43 01 01 14  05 02 00 10 05 80 00 97  ..C.C...........
0460: 04 1A 15 05 06 02 10 40  00 80 02 80 02 10 03 10  .......@........
0470: 40 04 80 06 80 02 10 04  10 40 07 80 0A 80 02 10  @........@......
0480: 05 10 03 01 10 30 80 40  14 80 17 80 01 10 02 10  .....0.@........
0490: 43 00 43 01 01 14 05 02  00 10 06 80 00 D5 04 1A  C.C.............
04A0: 15 05 06 02 10 40 00 80  02 80 02 10 03 10 40 04  .....@........@.
04B0: 80 06 80 02 10 04 10 40  07 80 0A 80 02 10 05 10  .......@........
04C0: 03 01 10 31 80 40 14 80  17 80 01 10 02 10 43 00  ...1.@........C.
04D0: 43 01 01 14 05 02 00 10  07 80 00 13 05 1A 15 05  C...............
04E0: 06 02 10 40 00 80 02 80  02 10 03 10 40 04 80 06  ...@........@...
04F0: 80 02 10 04 10 40 07 80  0A 80 02 10 05 10 03 01  .....@..........
0500: 10 32 80 40 14 80 17 80  01 10 02 10 43 00 43 01  .2.@........C.C.
0510: 01 14 05 1B 1B 06 03 10  06 04 10 06 05 10 24 33  ..............$3
0520: 80 00 80 00 80 25 02 00  10 00 80 00 36 05 03 03  .....%......6...
0530: 10 00 80 01 77 05 02 00  10 03 80 00 46 05 03 03  ....w.......F...
0540: 10 03 80 01 77 05 02 00  10 02 80 00 56 05 03 03  ....w.......V...
0550: 10 02 80 01 77 05 02 00  10 04 80 00 66 05 03 03  ....w.......f...
0560: 10 04 80 01 77 05 02 00  10 05 80 00 76 05 03 03  ....w.......v...
0570: 10 05 80 01 77 05 1B 24  33 80 00 80 00 80 25 02  ....w..$3.....%.
0580: 00 10 00 80 00 8F 05 03  04 10 00 80 01 D0 05 02  ................
0590: 00 10 03 80 00 9F 05 03  04 10 03 80 01 D0 05 02  ................
05A0: 00 10 02 80 00 AF 05 03  04 10 02 80 01 D0 05 02  ................
05B0: 00 10 04 80 00 BF 05 03  04 10 04 80 01 D0 05 02  ................
05C0: 00 10 05 80 00 CF 05 03  04 10 05 80 01 D0 05 1B  ................
05D0: 24 33 80 00 80 00 80 25  02 00 10 00 80 00 E8 05  $3.....%........
05E0: 03 05 10 00 80 01 29 06  02 00 10 03 80 00 F8 05  ......).........
05F0: 03 05 10 03 80 01 29 06  02 00 10 02 80 00 08 06  ......).........
0600: 03 05 10 02 80 01 29 06  02 00 10 04 80 00 18 06  ......).........
0610: 03 05 10 04 80 01 29 06  02 00 10 05 80 00 28 06  ......).......(.
0620: 03 05 10 05 80 01 29 06  1B 1B 03 01 10 34 80 43  ......)......4.C
0630: 00 43 01 41 04 80 06 80  02 10 03 10 41 07 80 0A  .C.A........A...
0640: 80 02 10 04 10 0D 02 10  08 80 48 35 80 24 33 80  ..........H5.$3.
0650: 00 80 00 80 25 02 00 10  00 80 00 60 06 01 60 06  ....%......`..`.
0660: 02 00 10 05 80 02 6C 06  1B 01 71 06 03 03 10 00  ......l...q.....
0670: 10 24 33 80 00 80 00 80  25 02 00 10 00 80 00 84  .$3.....%.......
0680: 06 01 84 06 02 00 10 05  80 02 90 06 1B 01 95 06  ................
0690: 03 04 10 00 10 24 33 80  00 80 00 80 25 02 00 10  .....$3.....%...
06A0: 00 80 00 A8 06 01 A8 06  02 00 10 05 80 02 B4 06  ................
06B0: 1B 01 B9 06 03 05 10 00  10 06 02 10 40 00 80 02  ............@...
06C0: 80 02 10 03 10 40 04 80  06 80 02 10 04 10 40 07  .....@........@.
06D0: 80 0A 80 02 10 05 10 03  06 10 02 10 03 02 10 03  ................
06E0: 10 03 03 10 04 10 03 04  10 05 10 48 35 80 03 02  ...........H5...
06F0: 10 06 10 03 01 10 36 80  40 14 80 17 80 01 10 02  ......6.@.......
0700: 10 43 00 43 01 24 37 80  00 80 00 80 25 02 00 10  .C.C.$7.....%...
0710: 00 80 00 21 07 03 01 10  38 80 43 00 43 01 01 21  ...!....8.C.C..!
0720: 07 1B 24 39 80 00 80 00  80 25 02 00 10 00 80 00  ..$9.....%......
0730: 35 07 01 35 07 02 00 10  08 80 05 4B 07 03 01 10  5..5.......K....
0740: 3A 80 40 0A 80 3B 80 01  10 00 10 1B 24 3C 80 00  :.@..;......$<..
0750: 80 00 80 25 02 00 10 00  80 00 64 07 03 03 10 00  ...%......d.....
0760: 80 01 3C 08 02 00 10 03  80 00 74 07 03 03 10 03  ..<.......t.....
0770: 80 01 3C 08 02 00 10 02  80 00 84 07 03 03 10 02  ..<.............
0780: 80 01 3C 08 02 00 10 04  80 00 94 07 03 03 10 04  ..<.............
0790: 80 01 3C 08 02 00 10 05  80 00 A4 07 03 03 10 05  ..<.............
07A0: 80 01 3C 08 02 00 10 06  80 00 B4 07 03 03 10 06  ..<.............
07B0: 80 01 3C 08 02 00 10 07  80 00 C4 07 03 03 10 07  ..<.............
07C0: 80 01 3C 08 02 00 10 08  80 00 D3 07 1A DD 0F 1B  ..<.............
07D0: 01 3C 08 02 00 10 0A 80  00 E2 07 1A 66 10 1B 01  .<..........f...
07E0: 3C 08 02 00 10 0B 80 00  F1 07 1A 53 11 1B 01 3C  <..........S...<
07F0: 08 02 00 10 0C 80 00 3B  08 24 3D 80 00 80 00 80  .......;.$=.....
0800: 25 02 00 10 00 80 00 0C  08 01 0C 08 02 00 10 04  %...............
0810: 80 03 37 08 03 02 10 00  10 0B 02 10 03 01 10 3E  ..7............>
0820: 80 40 0A 80 3B 80 01 10  02 10 40 14 80 15 80 01  .@..;.....@.....
0830: 10 08 80 43 00 43 01 1B  01 3C 08 1B 06 03 17 06  ...C.C...<......
0840: 02 17 1D 3F 80 23 1A 2E  09 02 02 10 40 80 00 52  ...?.#......@..R
0850: 08 1B 1A 66 09 02 02 10  40 80 00 5E 08 1B 1A 9D  ...f....@..^....
0860: 09 02 01 10 40 80 00 6A  08 1B 02 01 10 41 80 02  ....@..j.....A..
0870: 77 08 03 01 10 41 80 02  01 10 00 80 03 82 08 06  w....A..........
0880: 01 10 14 01 10 42 80 0E  01 10 3E 80 40 14 80 15  .....B....>.@...
0890: 80 01 10 03 10 43 00 43  01 1B 03 01 10 43 80 43  .....C.C.....C.C
08A0: 00 43 01 1B 48 44 80 23  03 01 10 45 80 43 00 43  .C..HD.#...E.C.C
08B0: 01 1B 06 02 17 06 03 17  1D 46 80 23 1A 2E 09 02  .........F.#....
08C0: 02 10 40 80 00 C8 08 1B  1A 66 09 02 02 10 40 80  ..@......f....@.
08D0: 00 D4 08 1B 1A 9D 09 02  01 10 40 80 00 E0 08 1B  ..........@.....
08E0: 02 01 10 41 80 02 ED 08  03 01 10 41 80 02 01 10  ...A.......A....
08F0: 00 80 03 F8 08 06 01 10  14 01 10 42 80 0E 01 10  ...........B....
0900: 47 80 43 00 43 01 24 48  80 03 80 00 80 25 02 00  G.C.C.$H.....%..
0910: 10 00 80 00 22 09 03 01  10 49 80 43 00 43 01 01  ...."....I.C.C..
0920: 2D 09 02 00 10 03 80 00  2D 09 01 2D 09 1B 24 4A  -.......-..-..$J
0930: 80 00 80 00 80 25 02 00  10 00 80 00 46 09 03 03  .....%......F...
0940: 17 00 80 01 46 09 02 00  10 0C 80 03 5B 09 03 03  ....F.......[...
0950: 17 4B 80 14 03 17 00 10  01 60 09 03 03 17 40 80  .K.......`....@.
0960: 03 02 10 03 17 1B 24 4C  80 00 80 00 80 25 02 00  ......$L.....%..
0970: 10 00 80 00 79 09 01 79  09 02 00 10 0C 80 03 8E  ....y..y........
0980: 09 03 02 17 0C 80 14 02  17 00 10 01 97 09 06 02  ................
0990: 10 03 02 17 40 80 1B 07  02 10 02 17 1B 06 01 10  ....@...........
09A0: 24 4D 80 00 80 00 80 25  02 00 10 00 80 00 B3 09  $M.....%........
09B0: 01 B3 09 02 00 10 0C 80  03 C3 09 03 01 10 00 10  ................
09C0: 01 C9 09 03 01 10 40 80  1B 07 01 10 03 17 07 01  ......@.........
09D0: 10 02 17 1B 1B 03 01 10  4E 80 43 00 43 01 03 1D  ........N.C.C...
09E0: 00 03 10 03 1E 00 04 10  41 00 80 08 80 1D 00 02  ........A.......
09F0: 10 41 0A 80 3B 80 1D 00  03 10 41 14 80 15 80 1D  .A..;.....A.....
0A00: 00 04 10 41 16 80 17 80  1D 00 05 10 1D 4F 80 23  ...A.........O.#
0A10: 41 00 80 08 80 1E 00 02  10 41 0A 80 3B 80 1E 00  A........A..;...
0A20: 03 10 41 14 80 15 80 1E  00 04 10 1D 50 80 23 1B  ..A.........P.#.
0A30: 24 51 80 00 80 00 80 25  02 00 10 00 80 00 4F 0A  $Q.....%......O.
0A40: 48 52 80 03 01 10 53 80  43 00 43 01 01 DC 0F 02  HR....S.C.C.....
0A50: 00 10 03 80 00 30 0C 24  54 80 00 80 00 80 25 02  .....0.$T.....%.
0A60: 00 10 00 80 00 80 0A 40  00 80 08 80 01 10 55 80  .......@......U.
0A70: 40 0A 80 3B 80 01 10 00  80 43 00 43 01 01 2D 0C  @..;.....C.C..-.
0A80: 02 00 10 03 80 00 A1 0A  40 00 80 08 80 01 10 55  ........@......U
0A90: 80 40 0A 80 3B 80 01 10  03 80 43 00 43 01 01 2D  .@..;.....C.C..-
0AA0: 0C 02 00 10 02 80 00 C2  0A 40 00 80 08 80 01 10  .........@......
0AB0: 55 80 40 0A 80 3B 80 01  10 02 80 43 00 43 01 01  U.@..;.....C.C..
0AC0: 2D 0C 02 00 10 04 80 00  E3 0A 40 00 80 08 80 01  -.........@.....
0AD0: 10 55 80 40 0A 80 3B 80  01 10 04 80 43 00 43 01  .U.@..;.....C.C.
0AE0: 01 2D 0C 02 00 10 05 80  00 04 0B 40 00 80 08 80  .-.........@....
0AF0: 01 10 55 80 40 0A 80 3B  80 01 10 05 80 43 00 43  ..U.@..;.....C.C
0B00: 01 01 2D 0C 02 00 10 06  80 00 25 0B 40 00 80 08  ..-.......%.@...
0B10: 80 01 10 55 80 40 0A 80  3B 80 01 10 06 80 43 00  ...U.@..;.....C.
0B20: 43 01 01 2D 0C 02 00 10  07 80 00 46 0B 40 00 80  C..-.......F.@..
0B30: 08 80 01 10 55 80 40 0A  80 3B 80 01 10 07 80 43  ....U.@..;.....C
0B40: 00 43 01 01 2D 0C 02 00  10 08 80 00 67 0B 40 00  .C..-.......g.@.
0B50: 80 08 80 01 10 55 80 40  0A 80 3B 80 01 10 08 80  .....U.@..;.....
0B60: 43 00 43 01 01 2D 0C 02  00 10 0A 80 00 88 0B 40  C.C..-.........@
0B70: 00 80 08 80 01 10 55 80  40 0A 80 3B 80 01 10 0A  ......U.@..;....
0B80: 80 43 00 43 01 01 2D 0C  02 00 10 0B 80 00 A9 0B  .C.C..-.........
0B90: 40 00 80 08 80 01 10 55  80 40 0A 80 3B 80 01 10  @......U.@..;...
0BA0: 0B 80 43 00 43 01 01 2D  0C 02 00 10 0C 80 00 CA  ..C.C..-........
0BB0: 0B 40 00 80 08 80 01 10  55 80 40 0A 80 3B 80 01  .@......U.@..;..
0BC0: 10 0C 80 43 00 43 01 01  2D 0C 02 00 10 0D 80 00  ...C.C..-.......
0BD0: EB 0B 40 00 80 08 80 01  10 55 80 40 0A 80 3B 80  ..@......U.@..;.
0BE0: 01 10 0D 80 43 00 43 01  01 2D 0C 02 00 10 0E 80  ....C.C..-......
0BF0: 00 0C 0C 40 00 80 08 80  01 10 55 80 40 0A 80 3B  ...@......U.@..;
0C00: 80 01 10 0E 80 43 00 43  01 01 2D 0C 02 00 10 0F  .....C.C..-.....
0C10: 80 00 2D 0C 40 00 80 08  80 01 10 55 80 40 0A 80  ..-.@......U.@..
0C20: 3B 80 01 10 0F 80 43 00  43 01 01 2D 0C 01 DC 0F  ;.....C.C..-....
0C30: 02 00 10 02 80 00 11 0E  24 54 80 00 80 00 80 25  ........$T.....%
0C40: 02 00 10 00 80 00 61 0C  40 00 80 08 80 01 10 56  ......a.@......V
0C50: 80 40 0A 80 3B 80 01 10  00 80 43 00 43 01 01 0E  .@..;.....C.C...
0C60: 0E 02 00 10 03 80 00 82  0C 40 00 80 08 80 01 10  .........@......
0C70: 56 80 40 0A 80 3B 80 01  10 03 80 43 00 43 01 01  V.@..;.....C.C..
0C80: 0E 0E 02 00 10 02 80 00  A3 0C 40 00 80 08 80 01  ..........@.....
0C90: 10 56 80 40 0A 80 3B 80  01 10 02 80 43 00 43 01  .V.@..;.....C.C.
0CA0: 01 0E 0E 02 00 10 04 80  00 C4 0C 40 00 80 08 80  ...........@....
0CB0: 01 10 56 80 40 0A 80 3B  80 01 10 04 80 43 00 43  ..V.@..;.....C.C
0CC0: 01 01 0E 0E 02 00 10 05  80 00 E5 0C 40 00 80 08  ............@...
0CD0: 80 01 10 56 80 40 0A 80  3B 80 01 10 05 80 43 00  ...V.@..;.....C.
0CE0: 43 01 01 0E 0E 02 00 10  06 80 00 06 0D 40 00 80  C............@..
0CF0: 08 80 01 10 56 80 40 0A  80 3B 80 01 10 06 80 43  ....V.@..;.....C
0D00: 00 43 01 01 0E 0E 02 00  10 07 80 00 27 0D 40 00  .C..........'.@.
0D10: 80 08 80 01 10 56 80 40  0A 80 3B 80 01 10 07 80  .....V.@..;.....
0D20: 43 00 43 01 01 0E 0E 02  00 10 08 80 00 48 0D 40  C.C..........H.@
0D30: 00 80 08 80 01 10 56 80  40 0A 80 3B 80 01 10 08  ......V.@..;....
0D40: 80 43 00 43 01 01 0E 0E  02 00 10 0A 80 00 69 0D  .C.C..........i.
0D50: 40 00 80 08 80 01 10 56  80 40 0A 80 3B 80 01 10  @......V.@..;...
0D60: 0A 80 43 00 43 01 01 0E  0E 02 00 10 0B 80 00 8A  ..C.C...........
0D70: 0D 40 00 80 08 80 01 10  56 80 40 0A 80 3B 80 01  .@......V.@..;..
0D80: 10 0B 80 43 00 43 01 01  0E 0E 02 00 10 0C 80 00  ...C.C..........
0D90: AB 0D 40 00 80 08 80 01  10 56 80 40 0A 80 3B 80  ..@......V.@..;.
0DA0: 01 10 0C 80 43 00 43 01  01 0E 0E 02 00 10 0D 80  ....C.C.........
0DB0: 00 CC 0D 40 00 80 08 80  01 10 56 80 40 0A 80 3B  ...@......V.@..;
0DC0: 80 01 10 0D 80 43 00 43  01 01 0E 0E 02 00 10 0E  .....C.C........
0DD0: 80 00 ED 0D 40 00 80 08  80 01 10 56 80 40 0A 80  ....@......V.@..
0DE0: 3B 80 01 10 0E 80 43 00  43 01 01 0E 0E 02 00 10  ;.....C.C.......
0DF0: 0F 80 00 0E 0E 40 00 80  08 80 01 10 56 80 40 0A  .....@......V.@.
0E00: 80 3B 80 01 10 0F 80 43  00 43 01 01 0E 0E 01 DC  .;.....C.C......
0E10: 0F 02 00 10 04 80 00 DC  0F 24 54 80 00 80 00 80  .........$T.....
0E20: 25 02 00 10 00 80 00 42  0E 40 00 80 08 80 01 10  %......B.@......
0E30: 57 80 40 0A 80 3B 80 01  10 00 80 43 00 43 01 01  W.@..;.....C.C..
0E40: D9 0F 02 00 10 03 80 00  63 0E 40 00 80 08 80 01  ........c.@.....
0E50: 10 57 80 40 0A 80 3B 80  01 10 03 80 43 00 43 01  .W.@..;.....C.C.
0E60: 01 D9 0F 02 00 10 02 80  00 84 0E 40 00 80 08 80  ...........@....
0E70: 01 10 57 80 40 0A 80 3B  80 01 10 02 80 43 00 43  ..W.@..;.....C.C
0E80: 01 01 D9 0F 02 00 10 04  80 00 A5 0E 40 00 80 08  ............@...
0E90: 80 01 10 57 80 40 0A 80  3B 80 01 10 04 80 43 00  ...W.@..;.....C.
0EA0: 43 01 01 D9 0F 02 00 10  05 80 00 C6 0E 40 00 80  C............@..
0EB0: 08 80 01 10 57 80 40 0A  80 3B 80 01 10 05 80 43  ....W.@..;.....C
0EC0: 00 43 01 01 D9 0F 02 00  10 06 80 00 E7 0E 40 00  .C............@.
0ED0: 80 08 80 01 10 57 80 40  0A 80 3B 80 01 10 06 80  .....W.@..;.....
0EE0: 43 00 43 01 01 D9 0F 02  00 10 07 80 00 08 0F 40  C.C............@
0EF0: 00 80 08 80 01 10 57 80  40 0A 80 3B 80 01 10 07  ......W.@..;....
0F00: 80 43 00 43 01 01 D9 0F  02 00 10 08 80 00 29 0F  .C.C..........).
0F10: 40 00 80 08 80 01 10 57  80 40 0A 80 3B 80 01 10  @......W.@..;...
0F20: 08 80 43 00 43 01 01 D9  0F 02 00 10 0A 80 00 4A  ..C.C..........J
0F30: 0F 40 00 80 08 80 01 10  57 80 40 0A 80 3B 80 01  .@......W.@..;..
0F40: 10 0A 80 43 00 43 01 01  D9 0F 02 00 10 0B 80 00  ...C.C..........
0F50: 6B 0F 40 00 80 08 80 01  10 57 80 40 0A 80 3B 80  k.@......W.@..;.
0F60: 01 10 0B 80 43 00 43 01  01 D9 0F 02 00 10 0C 80  ....C.C.........
0F70: 00 8C 0F 40 00 80 08 80  01 10 57 80 40 0A 80 3B  ...@......W.@..;
0F80: 80 01 10 0C 80 43 00 43  01 01 D9 0F 02 00 10 0D  .....C.C........
0F90: 80 00 97 0F 01 D9 0F 02  00 10 0E 80 00 B8 0F 40  ...............@
0FA0: 00 80 08 80 01 10 57 80  40 0A 80 3B 80 01 10 0E  ......W.@..;....
0FB0: 80 43 00 43 01 01 D9 0F  02 00 10 0F 80 00 D9 0F  .C.C............
0FC0: 40 00 80 08 80 01 10 57  80 40 0A 80 3B 80 01 10  @......W.@..;...
0FD0: 0F 80 43 00 43 01 01 D9  0F 01 DC 0F 1B 03 00 17  ..C.C...........
0FE0: 00 80 03 01 10 58 80 43  00 43 01 02 00 17 00 80  .....X.C.C......
0FF0: 00 65 10 24 59 80 00 80  00 80 25 02 00 10 00 80  .e.$Y.....%.....
1000: 00 0F 10 03 01 10 5A 80  43 00 43 01 01 62 10 02  ......Z.C.C..b..
1010: 00 10 03 80 00 23 10 03  01 10 5B 80 43 00 43 01  .....#....[.C.C.
1020: 01 62 10 02 00 10 02 80  00 37 10 03 01 10 5C 80  .b.......7....\.
1030: 43 00 43 01 01 62 10 02  00 10 04 80 00 4B 10 03  C.C..b.......K..
1040: 01 10 5D 80 43 00 43 01  01 62 10 02 00 10 05 80  ..].C.C..b......
1050: 00 5F 10 03 01 10 5E 80  43 00 43 01 01 62 10 05  ._....^.C.C..b..
1060: 00 17 01 EB 0F 1B 03 00  17 00 80 03 01 10 5F 80  .............._.
1070: 43 00 43 01 02 00 17 00  80 00 52 11 24 60 80 00  C.C.......R.$`..
1080: 80 00 80 25 02 00 10 00  80 00 98 10 03 01 10 61  ...%...........a
1090: 80 43 00 43 01 01 4F 11  02 00 10 03 80 00 AC 10  .C.C..O.........
10A0: 03 01 10 62 80 43 00 43  01 01 4F 11 02 00 10 02  ...b.C.C..O.....
10B0: 80 00 C0 10 03 01 10 63  80 43 00 43 01 01 4F 11  .......c.C.C..O.
10C0: 02 00 10 04 80 00 D4 10  03 01 10 64 80 43 00 43  ...........d.C.C
10D0: 01 01 4F 11 02 00 10 05  80 00 E8 10 03 01 10 65  ..O............e
10E0: 80 43 00 43 01 01 4F 11  02 00 10 06 80 00 FC 10  .C.C..O.........
10F0: 03 01 10 66 80 43 00 43  01 01 4F 11 02 00 10 07  ...f.C.C..O.....
1100: 80 00 10 11 03 01 10 67  80 43 00 43 01 01 4F 11  .......g.C.C..O.
1110: 02 00 10 08 80 00 24 11  03 01 10 68 80 43 00 43  ......$....h.C.C
1120: 01 01 4F 11 02 00 10 0A  80 00 38 11 03 01 10 69  ..O.......8....i
1130: 80 43 00 43 01 01 4F 11  02 00 10 0B 80 00 4C 11  .C.C..O.......L.
1140: 03 01 10 6A 80 43 00 43  01 01 4F 11 05 00 17 01  ...j.C.C..O.....
1150: 74 10 1B 03 00 17 00 80  03 01 10 6B 80 43 00 43  t..........k.C.C
1160: 01 02 00 17 00 80 00 DB  11 24 6C 80 00 80 00 80  .........$l.....
1170: 25 02 00 10 00 80 00 85  11 03 01 10 6D 80 43 00  %...........m.C.
1180: 43 01 01 D8 11 02 00 10  03 80 00 99 11 03 01 10  C...............
1190: 6E 80 43 00 43 01 01 D8  11 02 00 10 02 80 00 AD  n.C.C...........
11A0: 11 03 01 10 6F 80 43 00  43 01 01 D8 11 02 00 10  ....o.C.C.......
11B0: 04 80 00 C1 11 03 01 10  70 80 43 00 43 01 01 D8  ........p.C.C...
11C0: 11 02 00 10 05 80 00 D5  11 03 01 10 71 80 43 00  ............q.C.
11D0: 43 01 01 D8 11 05 00 17  01 61 11 1B              C........a..    
```

#### Opcodes

```
  0: 0x0004 [0x1A] CALL_SUBROUTINE(address=0x0009)
  1: 0x0007 [0x21] END_EVENT
  2: 0x0008 [0x00] END_REQSTACK()

SUBROUTINE_0009:
  3: 0x0009 [0x06] ExtData[1]->WorkLocal[28] = 0

SUBROUTINE_000C:
  4: 0x000C [0x02] IF !(ExtData[1]->WorkLocal[28] == 0*) GOTO 0x00EF
  5: 0x0014 [0x24] CREATE_DIALOG(message_id=12999*, default_option=0*, option_flags=2*)
    → "Debug menu for %0%1: [Move time forward./See an event./Change to default./Naming test./Weather check test (Ronfaure)./Confirm chocobo status./Alter chocobo status./User work display./Control status./Control growth stages./Control DNA./Receive item./Control flags./Abilities./Cancel.]"
  6: 0x001B [0x25] WAIT_DIALOG_SELECT()
  7: 0x001C [0x02] IF !(Work_Zone[0] == 0*) GOTO 0x002D
  8: 0x0024 [0x1A] CALL_SUBROUTINE(address=0x08B2)
  9: 0x0027 [0x05] ExtData[1]->WorkLocal[28] = 1
 10: 0x002A [0x01] GOTO 0x00EC
 11: 0x002D [0x02] IF !(Work_Zone[0] == 1*) GOTO 0x0038
 12: 0x0035 [0x01] GOTO 0x00EC
 13: 0x0038 [0x02] IF !(Work_Zone[0] == 2*) GOTO 0x0046
 14: 0x0040 [0x1A] CALL_SUBROUTINE(address=0x08A4)
 15: 0x0043 [0x01] GOTO 0x00EC
 16: 0x0046 [0x02] IF !(Work_Zone[0] == 3*) GOTO 0x0057
 17: 0x004E [0x1A] CALL_SUBROUTINE(address=0x09D4)
 18: 0x0051 [0x05] ExtData[1]->WorkLocal[28] = 1
 19: 0x0054 [0x01] GOTO 0x00EC
 20: 0x0057 [0x02] IF !(Work_Zone[0] == 4*) GOTO 0x0065
 21: 0x005F [0x1A] CALL_SUBROUTINE(address=0x089A)
 22: 0x0062 [0x01] GOTO 0x00EC
 23: 0x0065 [0x02] IF !(Work_Zone[0] == 5*) GOTO 0x0073
 24: 0x006D [0x1A] CALL_SUBROUTINE(address=0x09D5)
 25: 0x0070 [0x01] GOTO 0x00EC
 26: 0x0073 [0x02] IF !(Work_Zone[0] == 6*) GOTO 0x0081
 27: 0x007B [0x1A] CALL_SUBROUTINE(address=0x074C)
 28: 0x007E [0x01] GOTO 0x00EC
 29: 0x0081 [0x02] IF !(Work_Zone[0] == 7*) GOTO 0x0095
 30: 0x0089 [0x03] Work_Zone[1] = 232*
 31: 0x008E [0x43] SEND_EVENT_UPDATE: Send pending tag to server (packet 0x005B)
 32: 0x0090 [0x43] SEND_EVENT_UPDATE: Check pending flag (skip if not pending)
 33: 0x0092 [0x01] GOTO 0x00EC
 34: 0x0095 [0x02] IF !(Work_Zone[0] == 8*) GOTO 0x00A3
 35: 0x009D [0x1A] CALL_SUBROUTINE(address=0x0A30)
 36: 0x00A0 [0x01] GOTO 0x00EC
 37: 0x00A3 [0x02] IF !(Work_Zone[0] == 9*) GOTO 0x00B1
 38: 0x00AB [0x1A] CALL_SUBROUTINE(address=0x0722)
 39: 0x00AE [0x01] GOTO 0x00EC
 40: 0x00B1 [0x02] IF !(Work_Zone[0] == 10*) GOTO 0x00BF
 41: 0x00B9 [0x1A] CALL_SUBROUTINE(address=0x062A)
 42: 0x00BC [0x01] GOTO 0x00EC
 43: 0x00BF [0x02] IF !(Work_Zone[0] == 11*) GOTO 0x00CD
 44: 0x00C7 [0x1A] CALL_SUBROUTINE(address=0x0359)
 45: 0x00CA [0x01] GOTO 0x00EC
 46: 0x00CD [0x02] IF !(Work_Zone[0] == 12*) GOTO 0x00DB
 47: 0x00D5 [0x1A] CALL_SUBROUTINE(address=0x01DF)
 48: 0x00D8 [0x01] GOTO 0x00EC
 49: 0x00DB [0x02] IF !(Work_Zone[0] == 13*) GOTO 0x00E9
 50: 0x00E3 [0x1A] CALL_SUBROUTINE(address=0x00F0)
 51: 0x00E6 [0x01] GOTO 0x00EC
 52: 0x00E9 [0x05] ExtData[1]->WorkLocal[28] = 1

SUBROUTINE_00EC:
 53: 0x00EC [0x01] GOTO 0x000C
 54: 0x00EF [0x1B] RETURN

SUBROUTINE_00F0:
 55: 0x00F0 [0x06] Work_Zone_1700[2] = 0
 56: 0x00F3 [0x06] ExtData[1]->WorkLocal[27] = 0
 57: 0x00F6 [0x03] Work_Zone[1] = 462*
 58: 0x00FB [0x43] SEND_EVENT_UPDATE: Send pending tag to server (packet 0x005B)
 59: 0x00FD [0x43] SEND_EVENT_UPDATE: Check pending flag (skip if not pending)
 60: 0x00FF [0x48] [System] [13089*]:
    → "Slot 1: [None/Gallop/Canter/Burrow/Bore/Auto-Regen/Treasure Finder]/Slot 2: [None/Gallop/Canter/Burrow/Bore/Auto-Regen/Treasure Finder]"
 61: 0x0102 [0x23] WAIT_FOR_DIALOG_INTERACTION
 62: 0x0103 [0x24] CREATE_DIALOG(message_id=13027*, default_option=0*, option_flags=0*)
    → "Choose ability to set. [None./Gallop./Canter./Burrow./Bore./Auto-Regen./Treasure Finder./Cancel.]"
 63: 0x010A [0x25] WAIT_DIALOG_SELECT()
 64: 0x010B [0x02] IF !(Work_Zone[0] == 0*) GOTO 0x0119
 65: 0x0113 [0x01] GOTO 0x0150

SUBROUTINE_0125:
 66: 0x0125 [0x03] ExtData[1]->WorkLocal[27] = Work_Zone[0]
 67: 0x012A [0x3C] SET_BIT_FLAG_CONDITIONAL(target_work_offset=Work_Zone_1700[2], bit_index_work_offset=ExtData[1]->WorkLocal[27], condition_work_offset=1*)
 68: 0x0131 [0x24] CREATE_DIALOG(message_id=13027*, default_option=0*, option_flags=Work_Zone_1700[2])
    → "Choose ability to set. [None./Gallop./Canter./Burrow./Bore./Auto-Regen./Treasure Finder./Cancel.]"
 69: 0x0138 [0x25] WAIT_DIALOG_SELECT()
 70: 0x0139 [0x02] IF !(Work_Zone[0] == 0*) GOTO 0x0144
 71: 0x0141 [0x01] GOTO 0x0150
 72: 0x0144 [0x02] IF !(Work_Zone[0] == 7*) GOTO 0x0150
 73: 0x014C [0x1B] RETURN

SUBROUTINE_0150:
 74: 0x0150 [0x03] Work_Zone[1] = 718*
 75: 0x0155 [0x40] SET_BIT_WORK_RANGE(start_bit=16*, end_bit=23*, target=Work_Zone[1], source=ExtData[1]->WorkLocal[27])
 76: 0x015E [0x40] SET_BIT_WORK_RANGE(start_bit=24*, end_bit=31*, target=Work_Zone[1], source=Work_Zone[0])
 77: 0x0167 [0x43] SEND_EVENT_UPDATE: Send pending tag to server (packet 0x005B)
 78: 0x0169 [0x43] SEND_EVENT_UPDATE: Check pending flag (skip if not pending)
 79: 0x016B [0x48] [System] [13089*]:
    → "Slot 1: [None/Gallop/Canter/Burrow/Bore/Auto-Regen/Treasure Finder]/Slot 2: [None/Gallop/Canter/Burrow/Bore/Auto-Regen/Treasure Finder]"
 80: 0x016E [0x23] WAIT_FOR_DIALOG_INTERACTION
 81: 0x016F [0x1B] RETURN

SUBROUTINE_0170:
 82: 0x0170 [0x06] Work_Zone_1700[1] = 0

SUBROUTINE_0173:
 83: 0x0173 [0x02] IF !(Work_Zone_1700[1] == 0*) GOTO 0x01DE
 84: 0x017B [0x03] Work_Zone[1] = 207*
 85: 0x0180 [0x43] SEND_EVENT_UPDATE: Send pending tag to server (packet 0x005B)
 86: 0x0182 [0x43] SEND_EVENT_UPDATE: Check pending flag (skip if not pending)
 87: 0x0184 [0x24] CREATE_DIALOG(message_id=13025*, default_option=0*, option_flags=0*)
    → "Lost chick event. (Currently [active/disabled]) [Set number of owners ($0)/Reset to default./Nothing.]"
 88: 0x018B [0x25] WAIT_DIALOG_SELECT()
 89: 0x018C [0x02] IF !(Work_Zone[0] == 0*) GOTO 0x01C4
 90: 0x0194 [0x24] CREATE_DIALOG(message_id=13026*, default_option=0*, option_flags=0*)
    → "Pick a number. (Currently $0) [1."."./4./5./6./7./8./Never mind.]"
 91: 0x019B [0x25] WAIT_DIALOG_SELECT()
 92: 0x019C [0x02] IF !(Work_Zone[0] == 0*) GOTO 0x01A7
 93: 0x01A4 [0x01] GOTO 0x01A7

SUBROUTINE_01A7:
 94: 0x01A7 [0x02] IF !(Work_Zone[0] > 7*) GOTO 0x01C1
 95: 0x01AF [0x03] Work_Zone[1] = 463*
 96: 0x01B4 [0x40] SET_BIT_WORK_RANGE(start_bit=16*, end_bit=23*, target=Work_Zone[1], source=Work_Zone[0])
 97: 0x01BD [0x43] SEND_EVENT_UPDATE: Send pending tag to server (packet 0x005B)
 98: 0x01BF [0x43] SEND_EVENT_UPDATE: Check pending flag (skip if not pending)
 99: 0x01C1 [0x01] GOTO 0x01DB
100: 0x01C4 [0x02] IF !(Work_Zone[0] == 1*) GOTO 0x01D8
101: 0x01CC [0x03] Work_Zone[1] = 719*
102: 0x01D1 [0x43] SEND_EVENT_UPDATE: Send pending tag to server (packet 0x005B)
103: 0x01D3 [0x43] SEND_EVENT_UPDATE: Check pending flag (skip if not pending)
104: 0x01D5 [0x01] GOTO 0x01DB
105: 0x01D8 [0x05] Work_Zone_1700[1] = 1

SUBROUTINE_01DB:
106: 0x01DB [0x01] GOTO 0x0173
107: 0x01DE [0x1B] RETURN

SUBROUTINE_01DF:
108: 0x01DF [0x06] Work_Zone_1700[0] = 0
109: 0x01E2 [0x03] Work_Zone[1] = 213*
110: 0x01E7 [0x43] SEND_EVENT_UPDATE: Send pending tag to server (packet 0x005B)
111: 0x01E9 [0x43] SEND_EVENT_UPDATE: Check pending flag (skip if not pending)

SUBROUTINE_01EB:
112: 0x01EB [0x02] IF !(Work_Zone_1700[0] == 0*) GOTO 0x0358
113: 0x01F3 [0x24] CREATE_DIALOG(message_id=13023*, default_option=0*, option_flags=0*)
    → "Whaddaya want? [One day flag ([off/on])/Zone flag ([off/on])/Key item to stop crying ([off/on])/Key item: chocobo treasure ([off/on])/U_KYO_FLAGS (event to get whistle) = $5/Key item: story./Lost chicks./Cancel.]"
114: 0x01FA [0x25] WAIT_DIALOG_SELECT()
115: 0x01FB [0x02] IF !(Work_Zone[0] == 0*) GOTO 0x020F
116: 0x0203 [0x03] Work_Zone[1] = 725*
117: 0x0208 [0x43] SEND_EVENT_UPDATE: Send pending tag to server (packet 0x005B)
118: 0x020A [0x43] SEND_EVENT_UPDATE: Check pending flag (skip if not pending)
119: 0x020C [0x01] GOTO 0x0355
120: 0x020F [0x02] IF !(Work_Zone[0] == 1*) GOTO 0x0223
121: 0x0217 [0x03] Work_Zone[1] = 469*
122: 0x021C [0x43] SEND_EVENT_UPDATE: Send pending tag to server (packet 0x005B)
123: 0x021E [0x43] SEND_EVENT_UPDATE: Check pending flag (skip if not pending)
124: 0x0220 [0x01] GOTO 0x0355
125: 0x0223 [0x02] IF !(Work_Zone[0] == 2*) GOTO 0x0237
126: 0x022B [0x03] Work_Zone[1] = 981*
127: 0x0230 [0x43] SEND_EVENT_UPDATE: Send pending tag to server (packet 0x005B)
128: 0x0232 [0x43] SEND_EVENT_UPDATE: Check pending flag (skip if not pending)
129: 0x0234 [0x01] GOTO 0x0355
130: 0x0237 [0x02] IF !(Work_Zone[0] == 3*) GOTO 0x024B
131: 0x023F [0x03] Work_Zone[1] = 1237*
132: 0x0244 [0x43] SEND_EVENT_UPDATE: Send pending tag to server (packet 0x005B)
133: 0x0246 [0x43] SEND_EVENT_UPDATE: Check pending flag (skip if not pending)
134: 0x0248 [0x01] GOTO 0x0355
135: 0x024B [0x02] IF !(Work_Zone[0] == 4*) GOTO 0x025F
136: 0x0253 [0x03] Work_Zone[1] = 2773*
137: 0x0258 [0x43] SEND_EVENT_UPDATE: Send pending tag to server (packet 0x005B)
138: 0x025A [0x43] SEND_EVENT_UPDATE: Check pending flag (skip if not pending)
139: 0x025C [0x01] GOTO 0x0355
140: 0x025F [0x02] IF !(Work_Zone[0] == 5*) GOTO 0x0344
141: 0x0267 [0x3E] IF !(Work_Zone[8] bit 0*) GOTO 0x0276
142: 0x026E [0x03] Work_Zone[2] = 1*
143: 0x0273 [0x01] GOTO 0x0279
144: 0x0276 [0x06] Work_Zone[2] = 0

SUBROUTINE_0279:
145: 0x0279 [0x3E] IF !(Work_Zone[8] bit 1*) GOTO 0x0288
146: 0x0280 [0x03] Work_Zone[3] = 1*
147: 0x0285 [0x01] GOTO 0x028B
148: 0x0288 [0x06] Work_Zone[3] = 0

SUBROUTINE_028B:
149: 0x028B [0x3E] IF !(Work_Zone[8] bit 2*) GOTO 0x029A
150: 0x0292 [0x03] Work_Zone[4] = 1*
151: 0x0297 [0x01] GOTO 0x029D
152: 0x029A [0x06] Work_Zone[4] = 0

SUBROUTINE_029D:
153: 0x029D [0x3E] IF !(Work_Zone[8] bit 3*) GOTO 0x02AC
154: 0x02A4 [0x03] Work_Zone[5] = 1*
155: 0x02A9 [0x01] GOTO 0x02AF
156: 0x02AC [0x06] Work_Zone[5] = 0

SUBROUTINE_02AF:
157: 0x02AF [0x3E] IF !(Work_Zone[8] bit 4*) GOTO 0x02BE
158: 0x02B6 [0x03] Work_Zone[6] = 1*
159: 0x02BB [0x01] GOTO 0x02C1
160: 0x02BE [0x06] Work_Zone[6] = 0

SUBROUTINE_02C1:
161: 0x02C1 [0x24] CREATE_DIALOG(message_id=13024*, default_option=0*, option_flags=0*)
    → "Pick one. [Impatient chocobo story ([off/on])./Curious chocobo story ([off/on])./Small dropped item story ([off/on])./Big dropped item story ([off/on])./Happy chocobo story ([off/on])./Whimsical chocobo story ([off/on])./Cancel.]"
162: 0x02C8 [0x25] WAIT_DIALOG_SELECT()
163: 0x02C9 [0x02] IF !(Work_Zone[0] == 0*) GOTO 0x02DD
164: 0x02D1 [0x03] Work_Zone[1] = 1493*
165: 0x02D6 [0x43] SEND_EVENT_UPDATE: Send pending tag to server (packet 0x005B)
166: 0x02D8 [0x43] SEND_EVENT_UPDATE: Check pending flag (skip if not pending)
167: 0x02DA [0x01] GOTO 0x0341
168: 0x02DD [0x02] IF !(Work_Zone[0] == 1*) GOTO 0x02F1
169: 0x02E5 [0x03] Work_Zone[1] = 1749*
170: 0x02EA [0x43] SEND_EVENT_UPDATE: Send pending tag to server (packet 0x005B)
171: 0x02EC [0x43] SEND_EVENT_UPDATE: Check pending flag (skip if not pending)
172: 0x02EE [0x01] GOTO 0x0341
173: 0x02F1 [0x02] IF !(Work_Zone[0] == 2*) GOTO 0x0305
174: 0x02F9 [0x03] Work_Zone[1] = 2005*
175: 0x02FE [0x43] SEND_EVENT_UPDATE: Send pending tag to server (packet 0x005B)
176: 0x0300 [0x43] SEND_EVENT_UPDATE: Check pending flag (skip if not pending)
177: 0x0302 [0x01] GOTO 0x0341
178: 0x0305 [0x02] IF !(Work_Zone[0] == 3*) GOTO 0x0319
179: 0x030D [0x03] Work_Zone[1] = 2261*
180: 0x0312 [0x43] SEND_EVENT_UPDATE: Send pending tag to server (packet 0x005B)
181: 0x0314 [0x43] SEND_EVENT_UPDATE: Check pending flag (skip if not pending)
182: 0x0316 [0x01] GOTO 0x0341
183: 0x0319 [0x02] IF !(Work_Zone[0] == 4*) GOTO 0x032D
184: 0x0321 [0x03] Work_Zone[1] = 2517*
185: 0x0326 [0x43] SEND_EVENT_UPDATE: Send pending tag to server (packet 0x005B)
186: 0x0328 [0x43] SEND_EVENT_UPDATE: Check pending flag (skip if not pending)
187: 0x032A [0x01] GOTO 0x0341
188: 0x032D [0x02] IF !(Work_Zone[0] == 5*) GOTO 0x0341
189: 0x0335 [0x03] Work_Zone[1] = 3029*
190: 0x033A [0x43] SEND_EVENT_UPDATE: Send pending tag to server (packet 0x005B)
191: 0x033C [0x43] SEND_EVENT_UPDATE: Check pending flag (skip if not pending)
192: 0x033E [0x01] GOTO 0x0341

SUBROUTINE_0341:
193: 0x0341 [0x01] GOTO 0x0355
194: 0x0344 [0x02] IF !(Work_Zone[0] == 6*) GOTO 0x0352
195: 0x034C [0x1A] CALL_SUBROUTINE(address=0x0170)
196: 0x034F [0x01] GOTO 0x0355
197: 0x0352 [0x05] Work_Zone_1700[0] = 1

SUBROUTINE_0355:
198: 0x0355 [0x01] GOTO 0x01EB
199: 0x0358 [0x1B] RETURN

SUBROUTINE_0359:
200: 0x0359 [0x24] CREATE_DIALOG(message_id=13022*, default_option=0*, option_flags=0*)
    → "Pick one. [Egg 1./Egg 2./Egg 3./Egg 4./Egg 5./Matchmaking card (M)./Matchmaking card (F)./Cancel.]"
201: 0x0360 [0x25] WAIT_DIALOG_SELECT()
202: 0x0361 [0x02] IF !(Work_Zone[0] == 0*) GOTO 0x039F
203: 0x0369 [0x1A] CALL_SUBROUTINE(address=0x0515)
204: 0x036C [0x06] Work_Zone[2] = 0
205: 0x036F [0x40] SET_BIT_WORK_RANGE(start_bit=0*, end_bit=2*, target=Work_Zone[2], source=Work_Zone[3])
206: 0x0378 [0x40] SET_BIT_WORK_RANGE(start_bit=3*, end_bit=5*, target=Work_Zone[2], source=Work_Zone[4])
207: 0x0381 [0x40] SET_BIT_WORK_RANGE(start_bit=6*, end_bit=8*, target=Work_Zone[2], source=Work_Zone[5])
208: 0x038A [0x03] Work_Zone[1] = 494*
209: 0x038F [0x40] SET_BIT_WORK_RANGE(start_bit=16*, end_bit=31*, target=Work_Zone[1], source=Work_Zone[2])
210: 0x0398 [0x43] SEND_EVENT_UPDATE: Send pending tag to server (packet 0x005B)
211: 0x039A [0x43] SEND_EVENT_UPDATE: Check pending flag (skip if not pending)
212: 0x039C [0x01] GOTO 0x0514
213: 0x039F [0x02] IF !(Work_Zone[0] == 1*) GOTO 0x03DD
214: 0x03A7 [0x1A] CALL_SUBROUTINE(address=0x0515)
215: 0x03AA [0x06] Work_Zone[2] = 0
216: 0x03AD [0x40] SET_BIT_WORK_RANGE(start_bit=0*, end_bit=2*, target=Work_Zone[2], source=Work_Zone[3])
217: 0x03B6 [0x40] SET_BIT_WORK_RANGE(start_bit=3*, end_bit=5*, target=Work_Zone[2], source=Work_Zone[4])
218: 0x03BF [0x40] SET_BIT_WORK_RANGE(start_bit=6*, end_bit=8*, target=Work_Zone[2], source=Work_Zone[5])
219: 0x03C8 [0x03] Work_Zone[1] = 750*
220: 0x03CD [0x40] SET_BIT_WORK_RANGE(start_bit=16*, end_bit=31*, target=Work_Zone[1], source=Work_Zone[2])
221: 0x03D6 [0x43] SEND_EVENT_UPDATE: Send pending tag to server (packet 0x005B)
222: 0x03D8 [0x43] SEND_EVENT_UPDATE: Check pending flag (skip if not pending)
223: 0x03DA [0x01] GOTO 0x0514
224: 0x03DD [0x02] IF !(Work_Zone[0] == 2*) GOTO 0x041B
225: 0x03E5 [0x1A] CALL_SUBROUTINE(address=0x0515)
226: 0x03E8 [0x06] Work_Zone[2] = 0
227: 0x03EB [0x40] SET_BIT_WORK_RANGE(start_bit=0*, end_bit=2*, target=Work_Zone[2], source=Work_Zone[3])
228: 0x03F4 [0x40] SET_BIT_WORK_RANGE(start_bit=3*, end_bit=5*, target=Work_Zone[2], source=Work_Zone[4])
229: 0x03FD [0x40] SET_BIT_WORK_RANGE(start_bit=6*, end_bit=8*, target=Work_Zone[2], source=Work_Zone[5])
230: 0x0406 [0x03] Work_Zone[1] = 1006*
231: 0x040B [0x40] SET_BIT_WORK_RANGE(start_bit=16*, end_bit=31*, target=Work_Zone[1], source=Work_Zone[2])
232: 0x0414 [0x43] SEND_EVENT_UPDATE: Send pending tag to server (packet 0x005B)
233: 0x0416 [0x43] SEND_EVENT_UPDATE: Check pending flag (skip if not pending)
234: 0x0418 [0x01] GOTO 0x0514
235: 0x041B [0x02] IF !(Work_Zone[0] == 3*) GOTO 0x0459
236: 0x0423 [0x1A] CALL_SUBROUTINE(address=0x0515)
237: 0x0426 [0x06] Work_Zone[2] = 0
238: 0x0429 [0x40] SET_BIT_WORK_RANGE(start_bit=0*, end_bit=2*, target=Work_Zone[2], source=Work_Zone[3])
239: 0x0432 [0x40] SET_BIT_WORK_RANGE(start_bit=3*, end_bit=5*, target=Work_Zone[2], source=Work_Zone[4])
240: 0x043B [0x40] SET_BIT_WORK_RANGE(start_bit=6*, end_bit=8*, target=Work_Zone[2], source=Work_Zone[5])
241: 0x0444 [0x03] Work_Zone[1] = 1262*
242: 0x0449 [0x40] SET_BIT_WORK_RANGE(start_bit=16*, end_bit=31*, target=Work_Zone[1], source=Work_Zone[2])
243: 0x0452 [0x43] SEND_EVENT_UPDATE: Send pending tag to server (packet 0x005B)
244: 0x0454 [0x43] SEND_EVENT_UPDATE: Check pending flag (skip if not pending)
245: 0x0456 [0x01] GOTO 0x0514
246: 0x0459 [0x02] IF !(Work_Zone[0] == 4*) GOTO 0x0497
247: 0x0461 [0x1A] CALL_SUBROUTINE(address=0x0515)
248: 0x0464 [0x06] Work_Zone[2] = 0
249: 0x0467 [0x40] SET_BIT_WORK_RANGE(start_bit=0*, end_bit=2*, target=Work_Zone[2], source=Work_Zone[3])
250: 0x0470 [0x40] SET_BIT_WORK_RANGE(start_bit=3*, end_bit=5*, target=Work_Zone[2], source=Work_Zone[4])
251: 0x0479 [0x40] SET_BIT_WORK_RANGE(start_bit=6*, end_bit=8*, target=Work_Zone[2], source=Work_Zone[5])
252: 0x0482 [0x03] Work_Zone[1] = 1518*
253: 0x0487 [0x40] SET_BIT_WORK_RANGE(start_bit=16*, end_bit=31*, target=Work_Zone[1], source=Work_Zone[2])
254: 0x0490 [0x43] SEND_EVENT_UPDATE: Send pending tag to server (packet 0x005B)
255: 0x0492 [0x43] SEND_EVENT_UPDATE: Check pending flag (skip if not pending)
256: 0x0494 [0x01] GOTO 0x0514
257: 0x0497 [0x02] IF !(Work_Zone[0] == 5*) GOTO 0x04D5
258: 0x049F [0x1A] CALL_SUBROUTINE(address=0x0515)
259: 0x04A2 [0x06] Work_Zone[2] = 0
260: 0x04A5 [0x40] SET_BIT_WORK_RANGE(start_bit=0*, end_bit=2*, target=Work_Zone[2], source=Work_Zone[3])
261: 0x04AE [0x40] SET_BIT_WORK_RANGE(start_bit=3*, end_bit=5*, target=Work_Zone[2], source=Work_Zone[4])
262: 0x04B7 [0x40] SET_BIT_WORK_RANGE(start_bit=6*, end_bit=8*, target=Work_Zone[2], source=Work_Zone[5])
263: 0x04C0 [0x03] Work_Zone[1] = 1774*
264: 0x04C5 [0x40] SET_BIT_WORK_RANGE(start_bit=16*, end_bit=31*, target=Work_Zone[1], source=Work_Zone[2])
265: 0x04CE [0x43] SEND_EVENT_UPDATE: Send pending tag to server (packet 0x005B)
266: 0x04D0 [0x43] SEND_EVENT_UPDATE: Check pending flag (skip if not pending)
267: 0x04D2 [0x01] GOTO 0x0514
268: 0x04D5 [0x02] IF !(Work_Zone[0] == 6*) GOTO 0x0513
269: 0x04DD [0x1A] CALL_SUBROUTINE(address=0x0515)
270: 0x04E0 [0x06] Work_Zone[2] = 0
271: 0x04E3 [0x40] SET_BIT_WORK_RANGE(start_bit=0*, end_bit=2*, target=Work_Zone[2], source=Work_Zone[3])
272: 0x04EC [0x40] SET_BIT_WORK_RANGE(start_bit=3*, end_bit=5*, target=Work_Zone[2], source=Work_Zone[4])
273: 0x04F5 [0x40] SET_BIT_WORK_RANGE(start_bit=6*, end_bit=8*, target=Work_Zone[2], source=Work_Zone[5])
274: 0x04FE [0x03] Work_Zone[1] = 2030*
275: 0x0503 [0x40] SET_BIT_WORK_RANGE(start_bit=16*, end_bit=31*, target=Work_Zone[1], source=Work_Zone[2])
276: 0x050C [0x43] SEND_EVENT_UPDATE: Send pending tag to server (packet 0x005B)
277: 0x050E [0x43] SEND_EVENT_UPDATE: Check pending flag (skip if not pending)
278: 0x0510 [0x01] GOTO 0x0514
279: 0x0513 [0x1B] RETURN

SUBROUTINE_0514:
280: 0x0514 [0x1B] RETURN

SUBROUTINE_0515:
281: 0x0515 [0x06] Work_Zone[3] = 0
282: 0x0518 [0x06] Work_Zone[4] = 0
283: 0x051B [0x06] Work_Zone[5] = 0
284: 0x051E [0x24] CREATE_DIALOG(message_id=13020*, default_option=0*, option_flags=0*)
    → "Pick one. [Y/B/b/R/G/Cancel.]"
285: 0x0525 [0x25] WAIT_DIALOG_SELECT()
286: 0x0526 [0x02] IF !(Work_Zone[0] == 0*) GOTO 0x0536
287: 0x052E [0x03] Work_Zone[3] = 0*
288: 0x0533 [0x01] GOTO 0x0577
289: 0x0536 [0x02] IF !(Work_Zone[0] == 1*) GOTO 0x0546
290: 0x053E [0x03] Work_Zone[3] = 1*
291: 0x0543 [0x01] GOTO 0x0577
292: 0x0546 [0x02] IF !(Work_Zone[0] == 2*) GOTO 0x0556
293: 0x054E [0x03] Work_Zone[3] = 2*
294: 0x0553 [0x01] GOTO 0x0577
295: 0x0556 [0x02] IF !(Work_Zone[0] == 3*) GOTO 0x0566
296: 0x055E [0x03] Work_Zone[3] = 3*
297: 0x0563 [0x01] GOTO 0x0577
298: 0x0566 [0x02] IF !(Work_Zone[0] == 4*) GOTO 0x0576
299: 0x056E [0x03] Work_Zone[3] = 4*
300: 0x0573 [0x01] GOTO 0x0577
301: 0x0576 [0x1B] RETURN

SUBROUTINE_0577:
302: 0x0577 [0x24] CREATE_DIALOG(message_id=13020*, default_option=0*, option_flags=0*)
    → "Pick one. [Y/B/b/R/G/Cancel.]"
303: 0x057E [0x25] WAIT_DIALOG_SELECT()
304: 0x057F [0x02] IF !(Work_Zone[0] == 0*) GOTO 0x058F
305: 0x0587 [0x03] Work_Zone[4] = 0*
306: 0x058C [0x01] GOTO 0x05D0
307: 0x058F [0x02] IF !(Work_Zone[0] == 1*) GOTO 0x059F
308: 0x0597 [0x03] Work_Zone[4] = 1*
309: 0x059C [0x01] GOTO 0x05D0
310: 0x059F [0x02] IF !(Work_Zone[0] == 2*) GOTO 0x05AF
311: 0x05A7 [0x03] Work_Zone[4] = 2*
312: 0x05AC [0x01] GOTO 0x05D0
313: 0x05AF [0x02] IF !(Work_Zone[0] == 3*) GOTO 0x05BF
314: 0x05B7 [0x03] Work_Zone[4] = 3*
315: 0x05BC [0x01] GOTO 0x05D0
316: 0x05BF [0x02] IF !(Work_Zone[0] == 4*) GOTO 0x05CF
317: 0x05C7 [0x03] Work_Zone[4] = 4*
318: 0x05CC [0x01] GOTO 0x05D0
319: 0x05CF [0x1B] RETURN

SUBROUTINE_05D0:
320: 0x05D0 [0x24] CREATE_DIALOG(message_id=13020*, default_option=0*, option_flags=0*)
    → "Pick one. [Y/B/b/R/G/Cancel.]"
321: 0x05D7 [0x25] WAIT_DIALOG_SELECT()
322: 0x05D8 [0x02] IF !(Work_Zone[0] == 0*) GOTO 0x05E8
323: 0x05E0 [0x03] Work_Zone[5] = 0*
324: 0x05E5 [0x01] GOTO 0x0629
325: 0x05E8 [0x02] IF !(Work_Zone[0] == 1*) GOTO 0x05F8
326: 0x05F0 [0x03] Work_Zone[5] = 1*
327: 0x05F5 [0x01] GOTO 0x0629
328: 0x05F8 [0x02] IF !(Work_Zone[0] == 2*) GOTO 0x0608
329: 0x0600 [0x03] Work_Zone[5] = 2*
330: 0x0605 [0x01] GOTO 0x0629
331: 0x0608 [0x02] IF !(Work_Zone[0] == 3*) GOTO 0x0618
332: 0x0610 [0x03] Work_Zone[5] = 3*
333: 0x0615 [0x01] GOTO 0x0629
334: 0x0618 [0x02] IF !(Work_Zone[0] == 4*) GOTO 0x0628
335: 0x0620 [0x03] Work_Zone[5] = 4*
336: 0x0625 [0x01] GOTO 0x0629
337: 0x0628 [0x1B] RETURN

SUBROUTINE_0629:
338: 0x0629 [0x1B] RETURN

SUBROUTINE_062A:
339: 0x062A [0x03] Work_Zone[1] = 493*
340: 0x062F [0x43] SEND_EVENT_UPDATE: Send pending tag to server (packet 0x005B)
341: 0x0631 [0x43] SEND_EVENT_UPDATE: Check pending flag (skip if not pending)
342: 0x0633 [0x41] Work_Zone[3] = Work_Zone[2] (bits 3*-5*)
343: 0x063C [0x41] Work_Zone[4] = Work_Zone[2] (bits 6*-8*)
344: 0x0645 [0x0D] Work_Zone[2] &= 7*
345: 0x064A [0x48] [System] [13082*]:
    → "D$3Z$3b$3gF[Y/B/b/r/g][Y/B/b/r/g][Y/B/b/r/g]"
346: 0x064D [0x24] CREATE_DIALOG(message_id=13020*, default_option=0*, option_flags=0*)
    → "Pick one. [Y/B/b/R/G/Cancel.]"
347: 0x0654 [0x25] WAIT_DIALOG_SELECT()
348: 0x0655 [0x02] IF !(Work_Zone[0] == 0*) GOTO 0x0660
349: 0x065D [0x01] GOTO 0x0660

SUBROUTINE_0660:
350: 0x0660 [0x02] IF !(Work_Zone[0] <= 4*) GOTO 0x066C
351: 0x0668 [0x1B] RETURN

SUBROUTINE_0671:
352: 0x0671 [0x24] CREATE_DIALOG(message_id=13020*, default_option=0*, option_flags=0*)
    → "Pick one. [Y/B/b/R/G/Cancel.]"
353: 0x0678 [0x25] WAIT_DIALOG_SELECT()
354: 0x0679 [0x02] IF !(Work_Zone[0] == 0*) GOTO 0x0684
355: 0x0681 [0x01] GOTO 0x0684

SUBROUTINE_0684:
356: 0x0684 [0x02] IF !(Work_Zone[0] <= 4*) GOTO 0x0690
357: 0x068C [0x1B] RETURN

SUBROUTINE_0695:
358: 0x0695 [0x24] CREATE_DIALOG(message_id=13020*, default_option=0*, option_flags=0*)
    → "Pick one. [Y/B/b/R/G/Cancel.]"
359: 0x069C [0x25] WAIT_DIALOG_SELECT()
360: 0x069D [0x02] IF !(Work_Zone[0] == 0*) GOTO 0x06A8
361: 0x06A5 [0x01] GOTO 0x06A8

SUBROUTINE_06A8:
362: 0x06A8 [0x02] IF !(Work_Zone[0] <= 4*) GOTO 0x06B4
363: 0x06B0 [0x1B] RETURN

SUBROUTINE_06B9:
364: 0x06B9 [0x06] Work_Zone[2] = 0
365: 0x06BC [0x40] SET_BIT_WORK_RANGE(start_bit=0*, end_bit=2*, target=Work_Zone[2], source=Work_Zone[3])
366: 0x06C5 [0x40] SET_BIT_WORK_RANGE(start_bit=3*, end_bit=5*, target=Work_Zone[2], source=Work_Zone[4])
367: 0x06CE [0x40] SET_BIT_WORK_RANGE(start_bit=6*, end_bit=8*, target=Work_Zone[2], source=Work_Zone[5])
368: 0x06D7 [0x03] Work_Zone[6] = Work_Zone[2]
369: 0x06DC [0x03] Work_Zone[2] = Work_Zone[3]
370: 0x06E1 [0x03] Work_Zone[3] = Work_Zone[4]
371: 0x06E6 [0x03] Work_Zone[4] = Work_Zone[5]
372: 0x06EB [0x48] [System] [13082*]:
    → "D$3Z$3b$3gF[Y/B/b/r/g][Y/B/b/r/g][Y/B/b/r/g]"
373: 0x06EE [0x03] Work_Zone[2] = Work_Zone[6]
374: 0x06F3 [0x03] Work_Zone[1] = 237*
375: 0x06F8 [0x40] SET_BIT_WORK_RANGE(start_bit=16*, end_bit=31*, target=Work_Zone[1], source=Work_Zone[2])
376: 0x0701 [0x43] SEND_EVENT_UPDATE: Send pending tag to server (packet 0x005B)
377: 0x0703 [0x43] SEND_EVENT_UPDATE: Check pending flag (skip if not pending)
378: 0x0705 [0x24] CREATE_DIALOG(message_id=13021*, default_option=0*, option_flags=0*)
    → "$P14-;$P14=%f5\7)$6881847 5H""
379: 0x070C [0x25] WAIT_DIALOG_SELECT()
380: 0x070D [0x02] IF !(Work_Zone[0] == 0*) GOTO 0x0721
381: 0x0715 [0x03] Work_Zone[1] = 749*
382: 0x071A [0x43] SEND_EVENT_UPDATE: Send pending tag to server (packet 0x005B)
383: 0x071C [0x43] SEND_EVENT_UPDATE: Check pending flag (skip if not pending)
384: 0x071E [0x01] GOTO 0x0721

SUBROUTINE_0721:
385: 0x0721 [0x1B] RETURN

SUBROUTINE_0722:
386: 0x0722 [0x24] CREATE_DIALOG(message_id=13019*, default_option=0*, option_flags=0*)
    → "Pick a growth stage. [Not raising chocobo./Egg./Chick./Young chocobo./Mature chocobo./Peak ability./Settling down./Retirement./Cancel.]"
387: 0x0729 [0x25] WAIT_DIALOG_SELECT()
388: 0x072A [0x02] IF !(Work_Zone[0] == 0*) GOTO 0x0735
389: 0x0732 [0x01] GOTO 0x0735

SUBROUTINE_0735:
390: 0x0735 [0x02] IF !(Work_Zone[0] > 7*) GOTO 0x074B
391: 0x073D [0x03] Work_Zone[1] = 236*
392: 0x0742 [0x40] SET_BIT_WORK_RANGE(start_bit=8*, end_bit=15*, target=Work_Zone[1], source=Work_Zone[0])
393: 0x074B [0x1B] RETURN

SUBROUTINE_074C:
394: 0x074C [0x24] CREATE_DIALOG(message_id=13013*, default_option=0*, option_flags=0*)
    → "Choose a statistic to alter. [Strength (STR)./Endurance (VIT)./Discernment (INT)./Receptivity (MND)./Affection./Energy (HP)./Satisfaction./Temperament./Weather preference./Color./Stable./Cancel.]"
395: 0x0753 [0x25] WAIT_DIALOG_SELECT()
396: 0x0754 [0x02] IF !(Work_Zone[0] == 0*) GOTO 0x0764
397: 0x075C [0x03] Work_Zone[3] = 0*
398: 0x0761 [0x01] GOTO 0x083C
399: 0x0764 [0x02] IF !(Work_Zone[0] == 1*) GOTO 0x0774
400: 0x076C [0x03] Work_Zone[3] = 1*
401: 0x0771 [0x01] GOTO 0x083C
402: 0x0774 [0x02] IF !(Work_Zone[0] == 2*) GOTO 0x0784
403: 0x077C [0x03] Work_Zone[3] = 2*
404: 0x0781 [0x01] GOTO 0x083C
405: 0x0784 [0x02] IF !(Work_Zone[0] == 3*) GOTO 0x0794
406: 0x078C [0x03] Work_Zone[3] = 3*
407: 0x0791 [0x01] GOTO 0x083C
408: 0x0794 [0x02] IF !(Work_Zone[0] == 4*) GOTO 0x07A4
409: 0x079C [0x03] Work_Zone[3] = 4*
410: 0x07A1 [0x01] GOTO 0x083C
411: 0x07A4 [0x02] IF !(Work_Zone[0] == 5*) GOTO 0x07B4
412: 0x07AC [0x03] Work_Zone[3] = 5*
413: 0x07B1 [0x01] GOTO 0x083C
414: 0x07B4 [0x02] IF !(Work_Zone[0] == 6*) GOTO 0x07C4
415: 0x07BC [0x03] Work_Zone[3] = 6*
416: 0x07C1 [0x01] GOTO 0x083C
417: 0x07C4 [0x02] IF !(Work_Zone[0] == 7*) GOTO 0x07D3
418: 0x07CC [0x1A] CALL_SUBROUTINE(address=0x0FDD)
419: 0x07CF [0x1B] RETURN

SUBROUTINE_080C:
420: 0x080C [0x02] IF !(Work_Zone[0] >= 3*) GOTO 0x0837
421: 0x0814 [0x03] Work_Zone[2] = Work_Zone[0]
422: 0x0819 [0x0B] Work_Zone[2]++
423: 0x081C [0x03] Work_Zone[1] = 230*
424: 0x0821 [0x40] SET_BIT_WORK_RANGE(start_bit=8*, end_bit=15*, target=Work_Zone[1], source=Work_Zone[2])
425: 0x082A [0x40] SET_BIT_WORK_RANGE(start_bit=16*, end_bit=23*, target=Work_Zone[1], source=7*)
426: 0x0833 [0x43] SEND_EVENT_UPDATE: Send pending tag to server (packet 0x005B)
427: 0x0835 [0x43] SEND_EVENT_UPDATE: Check pending flag (skip if not pending)
428: 0x0837 [0x1B] RETURN

SUBROUTINE_083C:
429: 0x083C [0x06] Work_Zone_1700[3] = 0
430: 0x083F [0x06] Work_Zone_1700[2] = 0
431: 0x0842 [0x1D] PRINT_EVENT_MESSAGE(message_id=13002*)
    → "Please specify your desired [strength/endurance/discernment/receptivity/affection/HP/satisfaction] level (Maximum of 255)."
432: 0x0845 [0x23] WAIT_FOR_DIALOG_INTERACTION
433: 0x0846 [0x1A] CALL_SUBROUTINE(address=0x092E)
434: 0x0849 [0x02] IF !(Work_Zone[2] == 4294967295*) GOTO 0x0852
435: 0x0851 [0x1B] RETURN
436: 0x0852 [0x1A] CALL_SUBROUTINE(address=0x0966)
437: 0x0855 [0x02] IF !(Work_Zone[2] == 4294967295*) GOTO 0x085E
438: 0x085D [0x1B] RETURN
439: 0x085E [0x1A] CALL_SUBROUTINE(address=0x099D)
440: 0x0861 [0x02] IF !(Work_Zone[1] == 4294967295*) GOTO 0x086A
441: 0x0869 [0x1B] RETURN
442: 0x086A [0x02] IF !(Work_Zone[1] <= 255*) GOTO 0x0877
443: 0x0872 [0x03] Work_Zone[1] = 255*
444: 0x0877 [0x02] IF !(Work_Zone[1] >= 0*) GOTO 0x0882
445: 0x087F [0x06] Work_Zone[1] = 0
446: 0x0882 [0x14] Work_Zone[1] *= 256*
447: 0x0887 [0x0E] Work_Zone[1] |= 230*
448: 0x088C [0x40] SET_BIT_WORK_RANGE(start_bit=16*, end_bit=23*, target=Work_Zone[1], source=Work_Zone[3])
449: 0x0895 [0x43] SEND_EVENT_UPDATE: Send pending tag to server (packet 0x005B)
450: 0x0897 [0x43] SEND_EVENT_UPDATE: Check pending flag (skip if not pending)
451: 0x0899 [0x1B] RETURN

SUBROUTINE_089A:
452: 0x089A [0x03] Work_Zone[1] = 228*
453: 0x089F [0x43] SEND_EVENT_UPDATE: Send pending tag to server (packet 0x005B)
454: 0x08A1 [0x43] SEND_EVENT_UPDATE: Check pending flag (skip if not pending)
455: 0x08A3 [0x1B] RETURN

SUBROUTINE_08A4:
456: 0x08A4 [0x48] [System] [13090*]:
    → "Returning settings to default."
457: 0x08A7 [0x23] WAIT_FOR_DIALOG_INTERACTION
458: 0x08A8 [0x03] Work_Zone[1] = 227*
459: 0x08AD [0x43] SEND_EVENT_UPDATE: Send pending tag to server (packet 0x005B)
460: 0x08AF [0x43] SEND_EVENT_UPDATE: Check pending flag (skip if not pending)
461: 0x08B1 [0x1B] RETURN

SUBROUTINE_08B2:
462: 0x08B2 [0x06] Work_Zone_1700[2] = 0
463: 0x08B5 [0x06] Work_Zone_1700[3] = 0
464: 0x08B8 [0x1D] PRINT_EVENT_MESSAGE(message_id=13001*)
    → "Please specify the amount of time you wish to move forward (1-255)."
465: 0x08BB [0x23] WAIT_FOR_DIALOG_INTERACTION
466: 0x08BC [0x1A] CALL_SUBROUTINE(address=0x092E)
467: 0x08BF [0x02] IF !(Work_Zone[2] == 4294967295*) GOTO 0x08C8
468: 0x08C7 [0x1B] RETURN
469: 0x08C8 [0x1A] CALL_SUBROUTINE(address=0x0966)
470: 0x08CB [0x02] IF !(Work_Zone[2] == 4294967295*) GOTO 0x08D4
471: 0x08D3 [0x1B] RETURN
472: 0x08D4 [0x1A] CALL_SUBROUTINE(address=0x099D)
473: 0x08D7 [0x02] IF !(Work_Zone[1] == 4294967295*) GOTO 0x08E0
474: 0x08DF [0x1B] RETURN
475: 0x08E0 [0x02] IF !(Work_Zone[1] <= 255*) GOTO 0x08ED
476: 0x08E8 [0x03] Work_Zone[1] = 255*
477: 0x08ED [0x02] IF !(Work_Zone[1] >= 0*) GOTO 0x08F8
478: 0x08F5 [0x06] Work_Zone[1] = 0
479: 0x08F8 [0x14] Work_Zone[1] *= 256*
480: 0x08FD [0x0E] Work_Zone[1] |= 226*
481: 0x0902 [0x43] SEND_EVENT_UPDATE: Send pending tag to server (packet 0x005B)
482: 0x0904 [0x43] SEND_EVENT_UPDATE: Check pending flag (skip if not pending)
483: 0x0906 [0x24] CREATE_DIALOG(message_id=13000*, default_option=1*, option_flags=0*)
    → "Skip events after moving time forward? [Skip all events./Don't skip events.]"
484: 0x090D [0x25] WAIT_DIALOG_SELECT()
485: 0x090E [0x02] IF !(Work_Zone[0] == 0*) GOTO 0x0922
486: 0x0916 [0x03] Work_Zone[1] = 231*
487: 0x091B [0x43] SEND_EVENT_UPDATE: Send pending tag to server (packet 0x005B)
488: 0x091D [0x43] SEND_EVENT_UPDATE: Check pending flag (skip if not pending)
489: 0x091F [0x01] GOTO 0x092D
490: 0x0922 [0x02] IF !(Work_Zone[0] == 1*) GOTO 0x092D
491: 0x092A [0x01] GOTO 0x092D

SUBROUTINE_092D:
492: 0x092D [0x1B] RETURN

SUBROUTINE_092E:
493: 0x092E [0x24] CREATE_DIALOG(message_id=13003*, default_option=0*, option_flags=0*)
    → "Choose your range in hundreds. [000-099./100-199."00-255./Cancel.]"
494: 0x0935 [0x25] WAIT_DIALOG_SELECT()
495: 0x0936 [0x02] IF !(Work_Zone[0] == 0*) GOTO 0x0946
496: 0x093E [0x03] Work_Zone_1700[3] = 0*
497: 0x0943 [0x01] GOTO 0x0946

SUBROUTINE_0946:
498: 0x0946 [0x02] IF !(Work_Zone[0] >= 10*) GOTO 0x095B
499: 0x094E [0x03] Work_Zone_1700[3] = 100*
500: 0x0953 [0x14] Work_Zone_1700[3] *= Work_Zone[0]
501: 0x0958 [0x01] GOTO 0x0960
502: 0x095B [0x03] Work_Zone_1700[3] = 4294967295*

SUBROUTINE_0960:
503: 0x0960 [0x03] Work_Zone[2] = Work_Zone_1700[3]
504: 0x0965 [0x1B] RETURN

SUBROUTINE_0966:
505: 0x0966 [0x24] CREATE_DIALOG(message_id=13004*, default_option=0*, option_flags=0*)
    → "Choose your range in tens. [00-09./10-19."0-29."0-39./40-49./50-59./60-69./70-79./80-89./90-99./Cancel.]"
506: 0x096D [0x25] WAIT_DIALOG_SELECT()
507: 0x096E [0x02] IF !(Work_Zone[0] == 0*) GOTO 0x0979
508: 0x0976 [0x01] GOTO 0x0979

SUBROUTINE_0979:
509: 0x0979 [0x02] IF !(Work_Zone[0] >= 10*) GOTO 0x098E
510: 0x0981 [0x03] Work_Zone_1700[2] = 10*
511: 0x0986 [0x14] Work_Zone_1700[2] *= Work_Zone[0]
512: 0x098B [0x01] GOTO 0x0997
513: 0x098E [0x06] Work_Zone[2] = 0
514: 0x0991 [0x03] Work_Zone_1700[2] = 4294967295*
515: 0x0996 [0x1B] RETURN

SUBROUTINE_0997:
516: 0x0997 [0x07] Work_Zone[2] += Work_Zone_1700[2]
517: 0x099C [0x1B] RETURN

SUBROUTINE_099D:
518: 0x099D [0x06] Work_Zone[1] = 0
519: 0x09A0 [0x24] CREATE_DIALOG(message_id=13005*, default_option=0*, option_flags=0*)
    → "Choose your range to the single digit. [0./1."."./4./5./6./7./8./9./Cancel.]"
520: 0x09A7 [0x25] WAIT_DIALOG_SELECT()
521: 0x09A8 [0x02] IF !(Work_Zone[0] == 0*) GOTO 0x09B3
522: 0x09B0 [0x01] GOTO 0x09B3

SUBROUTINE_09B3:
523: 0x09B3 [0x02] IF !(Work_Zone[0] >= 10*) GOTO 0x09C3
524: 0x09BB [0x03] Work_Zone[1] = Work_Zone[0]
525: 0x09C0 [0x01] GOTO 0x09C9
526: 0x09C3 [0x03] Work_Zone[1] = 4294967295*
527: 0x09C8 [0x1B] RETURN

SUBROUTINE_09C9:
528: 0x09C9 [0x07] Work_Zone[1] += Work_Zone_1700[3]
529: 0x09CE [0x07] Work_Zone[1] += Work_Zone_1700[2]
530: 0x09D3 [0x1B] RETURN

SUBROUTINE_09D4:
531: 0x09D4 [0x1B] RETURN

SUBROUTINE_09D5:
532: 0x09D5 [0x03] Work_Zone[1] = 229*
533: 0x09DA [0x43] SEND_EVENT_UPDATE: Send pending tag to server (packet 0x005B)
534: 0x09DC [0x43] SEND_EVENT_UPDATE: Check pending flag (skip if not pending)
535: 0x09DE [0x03] ExtData[1]->WorkLocal[29] = Work_Zone[3]
536: 0x09E3 [0x03] ExtData[1]->WorkLocal[30] = Work_Zone[4]
537: 0x09E8 [0x41] Work_Zone[2] = ExtData[1]->WorkLocal[29] (bits 0*-7*)
538: 0x09F1 [0x41] Work_Zone[3] = ExtData[1]->WorkLocal[29] (bits 8*-15*)
539: 0x09FA [0x41] Work_Zone[4] = ExtData[1]->WorkLocal[29] (bits 16*-23*)
540: 0x0A03 [0x41] Work_Zone[5] = ExtData[1]->WorkLocal[29] (bits 24*-31*)
541: 0x0A0C [0x1D] PRINT_EVENT_MESSAGE(message_id=13037*)
    → "STR:$0/VIT:$1/INT:$2/MND:$3"
542: 0x0A0F [0x23] WAIT_FOR_DIALOG_INTERACTION
543: 0x0A10 [0x41] Work_Zone[2] = ExtData[1]->WorkLocal[30] (bits 0*-7*)
544: 0x0A19 [0x41] Work_Zone[3] = ExtData[1]->WorkLocal[30] (bits 8*-15*)
545: 0x0A22 [0x41] Work_Zone[4] = ExtData[1]->WorkLocal[30] (bits 16*-23*)
546: 0x0A2B [0x1D] PRINT_EVENT_MESSAGE(message_id=13039*)
    → "Affection:$0/Energy:$1/Satisfaction:$2"
547: 0x0A2E [0x23] WAIT_FOR_DIALOG_INTERACTION
548: 0x0A2F [0x1B] RETURN

SUBROUTINE_0A30:
549: 0x0A30 [0x24] CREATE_DIALOG(message_id=13017*, default_option=0*, option_flags=0*)
    → "Select an option. [Check status./Inflict status./Heal status./Inflict status.(Do it next cluc.)/Cancel.]"
550: 0x0A37 [0x25] WAIT_DIALOG_SELECT()
551: 0x0A38 [0x02] IF !(Work_Zone[0] == 0*) GOTO 0x0A4F
552: 0x0A40 [0x48] [System] [13093*]:
    → "+=-=-=-=-=-=-DEBUG START=-=-=-=-=-=-=+"
553: 0x0A43 [0x03] Work_Zone[1] = 233*
554: 0x0A48 [0x43] SEND_EVENT_UPDATE: Send pending tag to server (packet 0x005B)
555: 0x0A4A [0x43] SEND_EVENT_UPDATE: Check pending flag (skip if not pending)
556: 0x0A4C [0x01] GOTO 0x0FDC
557: 0x0A4F [0x02] IF !(Work_Zone[0] == 1*) GOTO 0x0C30
558: 0x0A57 [0x24] CREATE_DIALOG(message_id=13018*, default_option=0*, option_flags=0*)
    → "Which status abnormality? [Injury./Minor illness./Stomachache./Loneliness./Happiness./Laziness./Serious illness./Confusion./Spoiled chocobo./Runaway./In love./Crying at night./Vitality./Intelligence./Cancel.]"
559: 0x0A5E [0x25] WAIT_DIALOG_SELECT()
560: 0x0A5F [0x02] IF !(Work_Zone[0] == 0*) GOTO 0x0A80
561: 0x0A67 [0x40] SET_BIT_WORK_RANGE(start_bit=0*, end_bit=7*, target=Work_Zone[1], source=235*)
562: 0x0A70 [0x40] SET_BIT_WORK_RANGE(start_bit=8*, end_bit=15*, target=Work_Zone[1], source=0*)
563: 0x0A79 [0x43] SEND_EVENT_UPDATE: Send pending tag to server (packet 0x005B)
564: 0x0A7B [0x43] SEND_EVENT_UPDATE: Check pending flag (skip if not pending)
565: 0x0A7D [0x01] GOTO 0x0C2D
566: 0x0A80 [0x02] IF !(Work_Zone[0] == 1*) GOTO 0x0AA1
567: 0x0A88 [0x40] SET_BIT_WORK_RANGE(start_bit=0*, end_bit=7*, target=Work_Zone[1], source=235*)
568: 0x0A91 [0x40] SET_BIT_WORK_RANGE(start_bit=8*, end_bit=15*, target=Work_Zone[1], source=1*)
569: 0x0A9A [0x43] SEND_EVENT_UPDATE: Send pending tag to server (packet 0x005B)
570: 0x0A9C [0x43] SEND_EVENT_UPDATE: Check pending flag (skip if not pending)
571: 0x0A9E [0x01] GOTO 0x0C2D
572: 0x0AA1 [0x02] IF !(Work_Zone[0] == 2*) GOTO 0x0AC2
573: 0x0AA9 [0x40] SET_BIT_WORK_RANGE(start_bit=0*, end_bit=7*, target=Work_Zone[1], source=235*)
574: 0x0AB2 [0x40] SET_BIT_WORK_RANGE(start_bit=8*, end_bit=15*, target=Work_Zone[1], source=2*)
575: 0x0ABB [0x43] SEND_EVENT_UPDATE: Send pending tag to server (packet 0x005B)
576: 0x0ABD [0x43] SEND_EVENT_UPDATE: Check pending flag (skip if not pending)
577: 0x0ABF [0x01] GOTO 0x0C2D
578: 0x0AC2 [0x02] IF !(Work_Zone[0] == 3*) GOTO 0x0AE3
579: 0x0ACA [0x40] SET_BIT_WORK_RANGE(start_bit=0*, end_bit=7*, target=Work_Zone[1], source=235*)
580: 0x0AD3 [0x40] SET_BIT_WORK_RANGE(start_bit=8*, end_bit=15*, target=Work_Zone[1], source=3*)
581: 0x0ADC [0x43] SEND_EVENT_UPDATE: Send pending tag to server (packet 0x005B)
582: 0x0ADE [0x43] SEND_EVENT_UPDATE: Check pending flag (skip if not pending)
583: 0x0AE0 [0x01] GOTO 0x0C2D
584: 0x0AE3 [0x02] IF !(Work_Zone[0] == 4*) GOTO 0x0B04
585: 0x0AEB [0x40] SET_BIT_WORK_RANGE(start_bit=0*, end_bit=7*, target=Work_Zone[1], source=235*)
586: 0x0AF4 [0x40] SET_BIT_WORK_RANGE(start_bit=8*, end_bit=15*, target=Work_Zone[1], source=4*)
587: 0x0AFD [0x43] SEND_EVENT_UPDATE: Send pending tag to server (packet 0x005B)
588: 0x0AFF [0x43] SEND_EVENT_UPDATE: Check pending flag (skip if not pending)
589: 0x0B01 [0x01] GOTO 0x0C2D
590: 0x0B04 [0x02] IF !(Work_Zone[0] == 5*) GOTO 0x0B25
591: 0x0B0C [0x40] SET_BIT_WORK_RANGE(start_bit=0*, end_bit=7*, target=Work_Zone[1], source=235*)
592: 0x0B15 [0x40] SET_BIT_WORK_RANGE(start_bit=8*, end_bit=15*, target=Work_Zone[1], source=5*)
593: 0x0B1E [0x43] SEND_EVENT_UPDATE: Send pending tag to server (packet 0x005B)
594: 0x0B20 [0x43] SEND_EVENT_UPDATE: Check pending flag (skip if not pending)
595: 0x0B22 [0x01] GOTO 0x0C2D
596: 0x0B25 [0x02] IF !(Work_Zone[0] == 6*) GOTO 0x0B46
597: 0x0B2D [0x40] SET_BIT_WORK_RANGE(start_bit=0*, end_bit=7*, target=Work_Zone[1], source=235*)
598: 0x0B36 [0x40] SET_BIT_WORK_RANGE(start_bit=8*, end_bit=15*, target=Work_Zone[1], source=6*)
599: 0x0B3F [0x43] SEND_EVENT_UPDATE: Send pending tag to server (packet 0x005B)
600: 0x0B41 [0x43] SEND_EVENT_UPDATE: Check pending flag (skip if not pending)
601: 0x0B43 [0x01] GOTO 0x0C2D
602: 0x0B46 [0x02] IF !(Work_Zone[0] == 7*) GOTO 0x0B67
603: 0x0B4E [0x40] SET_BIT_WORK_RANGE(start_bit=0*, end_bit=7*, target=Work_Zone[1], source=235*)
604: 0x0B57 [0x40] SET_BIT_WORK_RANGE(start_bit=8*, end_bit=15*, target=Work_Zone[1], source=7*)
605: 0x0B60 [0x43] SEND_EVENT_UPDATE: Send pending tag to server (packet 0x005B)
606: 0x0B62 [0x43] SEND_EVENT_UPDATE: Check pending flag (skip if not pending)
607: 0x0B64 [0x01] GOTO 0x0C2D
608: 0x0B67 [0x02] IF !(Work_Zone[0] == 8*) GOTO 0x0B88
609: 0x0B6F [0x40] SET_BIT_WORK_RANGE(start_bit=0*, end_bit=7*, target=Work_Zone[1], source=235*)
610: 0x0B78 [0x40] SET_BIT_WORK_RANGE(start_bit=8*, end_bit=15*, target=Work_Zone[1], source=8*)
611: 0x0B81 [0x43] SEND_EVENT_UPDATE: Send pending tag to server (packet 0x005B)
612: 0x0B83 [0x43] SEND_EVENT_UPDATE: Check pending flag (skip if not pending)
613: 0x0B85 [0x01] GOTO 0x0C2D
614: 0x0B88 [0x02] IF !(Work_Zone[0] == 9*) GOTO 0x0BA9
615: 0x0B90 [0x40] SET_BIT_WORK_RANGE(start_bit=0*, end_bit=7*, target=Work_Zone[1], source=235*)
616: 0x0B99 [0x40] SET_BIT_WORK_RANGE(start_bit=8*, end_bit=15*, target=Work_Zone[1], source=9*)
617: 0x0BA2 [0x43] SEND_EVENT_UPDATE: Send pending tag to server (packet 0x005B)
618: 0x0BA4 [0x43] SEND_EVENT_UPDATE: Check pending flag (skip if not pending)
619: 0x0BA6 [0x01] GOTO 0x0C2D
620: 0x0BA9 [0x02] IF !(Work_Zone[0] == 10*) GOTO 0x0BCA
621: 0x0BB1 [0x40] SET_BIT_WORK_RANGE(start_bit=0*, end_bit=7*, target=Work_Zone[1], source=235*)
622: 0x0BBA [0x40] SET_BIT_WORK_RANGE(start_bit=8*, end_bit=15*, target=Work_Zone[1], source=10*)
623: 0x0BC3 [0x43] SEND_EVENT_UPDATE: Send pending tag to server (packet 0x005B)
624: 0x0BC5 [0x43] SEND_EVENT_UPDATE: Check pending flag (skip if not pending)
625: 0x0BC7 [0x01] GOTO 0x0C2D
626: 0x0BCA [0x02] IF !(Work_Zone[0] == 11*) GOTO 0x0BEB
627: 0x0BD2 [0x40] SET_BIT_WORK_RANGE(start_bit=0*, end_bit=7*, target=Work_Zone[1], source=235*)
628: 0x0BDB [0x40] SET_BIT_WORK_RANGE(start_bit=8*, end_bit=15*, target=Work_Zone[1], source=11*)
629: 0x0BE4 [0x43] SEND_EVENT_UPDATE: Send pending tag to server (packet 0x005B)
630: 0x0BE6 [0x43] SEND_EVENT_UPDATE: Check pending flag (skip if not pending)
631: 0x0BE8 [0x01] GOTO 0x0C2D
632: 0x0BEB [0x02] IF !(Work_Zone[0] == 12*) GOTO 0x0C0C
633: 0x0BF3 [0x40] SET_BIT_WORK_RANGE(start_bit=0*, end_bit=7*, target=Work_Zone[1], source=235*)
634: 0x0BFC [0x40] SET_BIT_WORK_RANGE(start_bit=8*, end_bit=15*, target=Work_Zone[1], source=12*)
635: 0x0C05 [0x43] SEND_EVENT_UPDATE: Send pending tag to server (packet 0x005B)
636: 0x0C07 [0x43] SEND_EVENT_UPDATE: Check pending flag (skip if not pending)
637: 0x0C09 [0x01] GOTO 0x0C2D
638: 0x0C0C [0x02] IF !(Work_Zone[0] == 13*) GOTO 0x0C2D
639: 0x0C14 [0x40] SET_BIT_WORK_RANGE(start_bit=0*, end_bit=7*, target=Work_Zone[1], source=235*)
640: 0x0C1D [0x40] SET_BIT_WORK_RANGE(start_bit=8*, end_bit=15*, target=Work_Zone[1], source=13*)
641: 0x0C26 [0x43] SEND_EVENT_UPDATE: Send pending tag to server (packet 0x005B)
642: 0x0C28 [0x43] SEND_EVENT_UPDATE: Check pending flag (skip if not pending)
643: 0x0C2A [0x01] GOTO 0x0C2D

SUBROUTINE_0C2D:
644: 0x0C2D [0x01] GOTO 0x0FDC
645: 0x0C30 [0x02] IF !(Work_Zone[0] == 2*) GOTO 0x0E11
646: 0x0C38 [0x24] CREATE_DIALOG(message_id=13018*, default_option=0*, option_flags=0*)
    → "Which status abnormality? [Injury./Minor illness./Stomachache./Loneliness./Happiness./Laziness./Serious illness./Confusion./Spoiled chocobo./Runaway./In love./Crying at night./Vitality./Intelligence./Cancel.]"
647: 0x0C3F [0x25] WAIT_DIALOG_SELECT()
648: 0x0C40 [0x02] IF !(Work_Zone[0] == 0*) GOTO 0x0C61
649: 0x0C48 [0x40] SET_BIT_WORK_RANGE(start_bit=0*, end_bit=7*, target=Work_Zone[1], source=234*)
650: 0x0C51 [0x40] SET_BIT_WORK_RANGE(start_bit=8*, end_bit=15*, target=Work_Zone[1], source=0*)
651: 0x0C5A [0x43] SEND_EVENT_UPDATE: Send pending tag to server (packet 0x005B)
652: 0x0C5C [0x43] SEND_EVENT_UPDATE: Check pending flag (skip if not pending)
653: 0x0C5E [0x01] GOTO 0x0E0E
654: 0x0C61 [0x02] IF !(Work_Zone[0] == 1*) GOTO 0x0C82
655: 0x0C69 [0x40] SET_BIT_WORK_RANGE(start_bit=0*, end_bit=7*, target=Work_Zone[1], source=234*)
656: 0x0C72 [0x40] SET_BIT_WORK_RANGE(start_bit=8*, end_bit=15*, target=Work_Zone[1], source=1*)
657: 0x0C7B [0x43] SEND_EVENT_UPDATE: Send pending tag to server (packet 0x005B)
658: 0x0C7D [0x43] SEND_EVENT_UPDATE: Check pending flag (skip if not pending)
659: 0x0C7F [0x01] GOTO 0x0E0E
660: 0x0C82 [0x02] IF !(Work_Zone[0] == 2*) GOTO 0x0CA3
661: 0x0C8A [0x40] SET_BIT_WORK_RANGE(start_bit=0*, end_bit=7*, target=Work_Zone[1], source=234*)
662: 0x0C93 [0x40] SET_BIT_WORK_RANGE(start_bit=8*, end_bit=15*, target=Work_Zone[1], source=2*)
663: 0x0C9C [0x43] SEND_EVENT_UPDATE: Send pending tag to server (packet 0x005B)
664: 0x0C9E [0x43] SEND_EVENT_UPDATE: Check pending flag (skip if not pending)
665: 0x0CA0 [0x01] GOTO 0x0E0E
666: 0x0CA3 [0x02] IF !(Work_Zone[0] == 3*) GOTO 0x0CC4
667: 0x0CAB [0x40] SET_BIT_WORK_RANGE(start_bit=0*, end_bit=7*, target=Work_Zone[1], source=234*)
668: 0x0CB4 [0x40] SET_BIT_WORK_RANGE(start_bit=8*, end_bit=15*, target=Work_Zone[1], source=3*)
669: 0x0CBD [0x43] SEND_EVENT_UPDATE: Send pending tag to server (packet 0x005B)
670: 0x0CBF [0x43] SEND_EVENT_UPDATE: Check pending flag (skip if not pending)
671: 0x0CC1 [0x01] GOTO 0x0E0E
672: 0x0CC4 [0x02] IF !(Work_Zone[0] == 4*) GOTO 0x0CE5
673: 0x0CCC [0x40] SET_BIT_WORK_RANGE(start_bit=0*, end_bit=7*, target=Work_Zone[1], source=234*)
674: 0x0CD5 [0x40] SET_BIT_WORK_RANGE(start_bit=8*, end_bit=15*, target=Work_Zone[1], source=4*)
675: 0x0CDE [0x43] SEND_EVENT_UPDATE: Send pending tag to server (packet 0x005B)
676: 0x0CE0 [0x43] SEND_EVENT_UPDATE: Check pending flag (skip if not pending)
677: 0x0CE2 [0x01] GOTO 0x0E0E
678: 0x0CE5 [0x02] IF !(Work_Zone[0] == 5*) GOTO 0x0D06
679: 0x0CED [0x40] SET_BIT_WORK_RANGE(start_bit=0*, end_bit=7*, target=Work_Zone[1], source=234*)
680: 0x0CF6 [0x40] SET_BIT_WORK_RANGE(start_bit=8*, end_bit=15*, target=Work_Zone[1], source=5*)
681: 0x0CFF [0x43] SEND_EVENT_UPDATE: Send pending tag to server (packet 0x005B)
682: 0x0D01 [0x43] SEND_EVENT_UPDATE: Check pending flag (skip if not pending)
683: 0x0D03 [0x01] GOTO 0x0E0E
684: 0x0D06 [0x02] IF !(Work_Zone[0] == 6*) GOTO 0x0D27
685: 0x0D0E [0x40] SET_BIT_WORK_RANGE(start_bit=0*, end_bit=7*, target=Work_Zone[1], source=234*)
686: 0x0D17 [0x40] SET_BIT_WORK_RANGE(start_bit=8*, end_bit=15*, target=Work_Zone[1], source=6*)
687: 0x0D20 [0x43] SEND_EVENT_UPDATE: Send pending tag to server (packet 0x005B)
688: 0x0D22 [0x43] SEND_EVENT_UPDATE: Check pending flag (skip if not pending)
689: 0x0D24 [0x01] GOTO 0x0E0E
690: 0x0D27 [0x02] IF !(Work_Zone[0] == 7*) GOTO 0x0D48
691: 0x0D2F [0x40] SET_BIT_WORK_RANGE(start_bit=0*, end_bit=7*, target=Work_Zone[1], source=234*)
692: 0x0D38 [0x40] SET_BIT_WORK_RANGE(start_bit=8*, end_bit=15*, target=Work_Zone[1], source=7*)
693: 0x0D41 [0x43] SEND_EVENT_UPDATE: Send pending tag to server (packet 0x005B)
694: 0x0D43 [0x43] SEND_EVENT_UPDATE: Check pending flag (skip if not pending)
695: 0x0D45 [0x01] GOTO 0x0E0E
696: 0x0D48 [0x02] IF !(Work_Zone[0] == 8*) GOTO 0x0D69
697: 0x0D50 [0x40] SET_BIT_WORK_RANGE(start_bit=0*, end_bit=7*, target=Work_Zone[1], source=234*)
698: 0x0D59 [0x40] SET_BIT_WORK_RANGE(start_bit=8*, end_bit=15*, target=Work_Zone[1], source=8*)
699: 0x0D62 [0x43] SEND_EVENT_UPDATE: Send pending tag to server (packet 0x005B)
700: 0x0D64 [0x43] SEND_EVENT_UPDATE: Check pending flag (skip if not pending)
701: 0x0D66 [0x01] GOTO 0x0E0E
702: 0x0D69 [0x02] IF !(Work_Zone[0] == 9*) GOTO 0x0D8A
703: 0x0D71 [0x40] SET_BIT_WORK_RANGE(start_bit=0*, end_bit=7*, target=Work_Zone[1], source=234*)
704: 0x0D7A [0x40] SET_BIT_WORK_RANGE(start_bit=8*, end_bit=15*, target=Work_Zone[1], source=9*)
705: 0x0D83 [0x43] SEND_EVENT_UPDATE: Send pending tag to server (packet 0x005B)
706: 0x0D85 [0x43] SEND_EVENT_UPDATE: Check pending flag (skip if not pending)
707: 0x0D87 [0x01] GOTO 0x0E0E
708: 0x0D8A [0x02] IF !(Work_Zone[0] == 10*) GOTO 0x0DAB
709: 0x0D92 [0x40] SET_BIT_WORK_RANGE(start_bit=0*, end_bit=7*, target=Work_Zone[1], source=234*)
710: 0x0D9B [0x40] SET_BIT_WORK_RANGE(start_bit=8*, end_bit=15*, target=Work_Zone[1], source=10*)
711: 0x0DA4 [0x43] SEND_EVENT_UPDATE: Send pending tag to server (packet 0x005B)
712: 0x0DA6 [0x43] SEND_EVENT_UPDATE: Check pending flag (skip if not pending)
713: 0x0DA8 [0x01] GOTO 0x0E0E
714: 0x0DAB [0x02] IF !(Work_Zone[0] == 11*) GOTO 0x0DCC
715: 0x0DB3 [0x40] SET_BIT_WORK_RANGE(start_bit=0*, end_bit=7*, target=Work_Zone[1], source=234*)
716: 0x0DBC [0x40] SET_BIT_WORK_RANGE(start_bit=8*, end_bit=15*, target=Work_Zone[1], source=11*)
717: 0x0DC5 [0x43] SEND_EVENT_UPDATE: Send pending tag to server (packet 0x005B)
718: 0x0DC7 [0x43] SEND_EVENT_UPDATE: Check pending flag (skip if not pending)
719: 0x0DC9 [0x01] GOTO 0x0E0E
720: 0x0DCC [0x02] IF !(Work_Zone[0] == 12*) GOTO 0x0DED
721: 0x0DD4 [0x40] SET_BIT_WORK_RANGE(start_bit=0*, end_bit=7*, target=Work_Zone[1], source=234*)
722: 0x0DDD [0x40] SET_BIT_WORK_RANGE(start_bit=8*, end_bit=15*, target=Work_Zone[1], source=12*)
723: 0x0DE6 [0x43] SEND_EVENT_UPDATE: Send pending tag to server (packet 0x005B)
724: 0x0DE8 [0x43] SEND_EVENT_UPDATE: Check pending flag (skip if not pending)
725: 0x0DEA [0x01] GOTO 0x0E0E
726: 0x0DED [0x02] IF !(Work_Zone[0] == 13*) GOTO 0x0E0E
727: 0x0DF5 [0x40] SET_BIT_WORK_RANGE(start_bit=0*, end_bit=7*, target=Work_Zone[1], source=234*)
728: 0x0DFE [0x40] SET_BIT_WORK_RANGE(start_bit=8*, end_bit=15*, target=Work_Zone[1], source=13*)
729: 0x0E07 [0x43] SEND_EVENT_UPDATE: Send pending tag to server (packet 0x005B)
730: 0x0E09 [0x43] SEND_EVENT_UPDATE: Check pending flag (skip if not pending)
731: 0x0E0B [0x01] GOTO 0x0E0E

SUBROUTINE_0E0E:
732: 0x0E0E [0x01] GOTO 0x0FDC
733: 0x0E11 [0x02] IF !(Work_Zone[0] == 3*) GOTO 0x0FDC
734: 0x0E19 [0x24] CREATE_DIALOG(message_id=13018*, default_option=0*, option_flags=0*)
    → "Which status abnormality? [Injury./Minor illness./Stomachache./Loneliness./Happiness./Laziness./Serious illness./Confusion./Spoiled chocobo./Runaway./In love./Crying at night./Vitality./Intelligence./Cancel.]"
735: 0x0E20 [0x25] WAIT_DIALOG_SELECT()
736: 0x0E21 [0x02] IF !(Work_Zone[0] == 0*) GOTO 0x0E42
737: 0x0E29 [0x40] SET_BIT_WORK_RANGE(start_bit=0*, end_bit=7*, target=Work_Zone[1], source=209*)
738: 0x0E32 [0x40] SET_BIT_WORK_RANGE(start_bit=8*, end_bit=15*, target=Work_Zone[1], source=0*)
739: 0x0E3B [0x43] SEND_EVENT_UPDATE: Send pending tag to server (packet 0x005B)
740: 0x0E3D [0x43] SEND_EVENT_UPDATE: Check pending flag (skip if not pending)
741: 0x0E3F [0x01] GOTO 0x0FD9
742: 0x0E42 [0x02] IF !(Work_Zone[0] == 1*) GOTO 0x0E63
743: 0x0E4A [0x40] SET_BIT_WORK_RANGE(start_bit=0*, end_bit=7*, target=Work_Zone[1], source=209*)
744: 0x0E53 [0x40] SET_BIT_WORK_RANGE(start_bit=8*, end_bit=15*, target=Work_Zone[1], source=1*)
745: 0x0E5C [0x43] SEND_EVENT_UPDATE: Send pending tag to server (packet 0x005B)
746: 0x0E5E [0x43] SEND_EVENT_UPDATE: Check pending flag (skip if not pending)
747: 0x0E60 [0x01] GOTO 0x0FD9
748: 0x0E63 [0x02] IF !(Work_Zone[0] == 2*) GOTO 0x0E84
749: 0x0E6B [0x40] SET_BIT_WORK_RANGE(start_bit=0*, end_bit=7*, target=Work_Zone[1], source=209*)
750: 0x0E74 [0x40] SET_BIT_WORK_RANGE(start_bit=8*, end_bit=15*, target=Work_Zone[1], source=2*)
751: 0x0E7D [0x43] SEND_EVENT_UPDATE: Send pending tag to server (packet 0x005B)
752: 0x0E7F [0x43] SEND_EVENT_UPDATE: Check pending flag (skip if not pending)
753: 0x0E81 [0x01] GOTO 0x0FD9
754: 0x0E84 [0x02] IF !(Work_Zone[0] == 3*) GOTO 0x0EA5
755: 0x0E8C [0x40] SET_BIT_WORK_RANGE(start_bit=0*, end_bit=7*, target=Work_Zone[1], source=209*)
756: 0x0E95 [0x40] SET_BIT_WORK_RANGE(start_bit=8*, end_bit=15*, target=Work_Zone[1], source=3*)
757: 0x0E9E [0x43] SEND_EVENT_UPDATE: Send pending tag to server (packet 0x005B)
758: 0x0EA0 [0x43] SEND_EVENT_UPDATE: Check pending flag (skip if not pending)
759: 0x0EA2 [0x01] GOTO 0x0FD9
760: 0x0EA5 [0x02] IF !(Work_Zone[0] == 4*) GOTO 0x0EC6
761: 0x0EAD [0x40] SET_BIT_WORK_RANGE(start_bit=0*, end_bit=7*, target=Work_Zone[1], source=209*)
762: 0x0EB6 [0x40] SET_BIT_WORK_RANGE(start_bit=8*, end_bit=15*, target=Work_Zone[1], source=4*)
763: 0x0EBF [0x43] SEND_EVENT_UPDATE: Send pending tag to server (packet 0x005B)
764: 0x0EC1 [0x43] SEND_EVENT_UPDATE: Check pending flag (skip if not pending)
765: 0x0EC3 [0x01] GOTO 0x0FD9
766: 0x0EC6 [0x02] IF !(Work_Zone[0] == 5*) GOTO 0x0EE7
767: 0x0ECE [0x40] SET_BIT_WORK_RANGE(start_bit=0*, end_bit=7*, target=Work_Zone[1], source=209*)
768: 0x0ED7 [0x40] SET_BIT_WORK_RANGE(start_bit=8*, end_bit=15*, target=Work_Zone[1], source=5*)
769: 0x0EE0 [0x43] SEND_EVENT_UPDATE: Send pending tag to server (packet 0x005B)
770: 0x0EE2 [0x43] SEND_EVENT_UPDATE: Check pending flag (skip if not pending)
771: 0x0EE4 [0x01] GOTO 0x0FD9
772: 0x0EE7 [0x02] IF !(Work_Zone[0] == 6*) GOTO 0x0F08
773: 0x0EEF [0x40] SET_BIT_WORK_RANGE(start_bit=0*, end_bit=7*, target=Work_Zone[1], source=209*)
774: 0x0EF8 [0x40] SET_BIT_WORK_RANGE(start_bit=8*, end_bit=15*, target=Work_Zone[1], source=6*)
775: 0x0F01 [0x43] SEND_EVENT_UPDATE: Send pending tag to server (packet 0x005B)
776: 0x0F03 [0x43] SEND_EVENT_UPDATE: Check pending flag (skip if not pending)
777: 0x0F05 [0x01] GOTO 0x0FD9
778: 0x0F08 [0x02] IF !(Work_Zone[0] == 7*) GOTO 0x0F29
779: 0x0F10 [0x40] SET_BIT_WORK_RANGE(start_bit=0*, end_bit=7*, target=Work_Zone[1], source=209*)
780: 0x0F19 [0x40] SET_BIT_WORK_RANGE(start_bit=8*, end_bit=15*, target=Work_Zone[1], source=7*)
781: 0x0F22 [0x43] SEND_EVENT_UPDATE: Send pending tag to server (packet 0x005B)
782: 0x0F24 [0x43] SEND_EVENT_UPDATE: Check pending flag (skip if not pending)
783: 0x0F26 [0x01] GOTO 0x0FD9
784: 0x0F29 [0x02] IF !(Work_Zone[0] == 8*) GOTO 0x0F4A
785: 0x0F31 [0x40] SET_BIT_WORK_RANGE(start_bit=0*, end_bit=7*, target=Work_Zone[1], source=209*)
786: 0x0F3A [0x40] SET_BIT_WORK_RANGE(start_bit=8*, end_bit=15*, target=Work_Zone[1], source=8*)
787: 0x0F43 [0x43] SEND_EVENT_UPDATE: Send pending tag to server (packet 0x005B)
788: 0x0F45 [0x43] SEND_EVENT_UPDATE: Check pending flag (skip if not pending)
789: 0x0F47 [0x01] GOTO 0x0FD9
790: 0x0F4A [0x02] IF !(Work_Zone[0] == 9*) GOTO 0x0F6B
791: 0x0F52 [0x40] SET_BIT_WORK_RANGE(start_bit=0*, end_bit=7*, target=Work_Zone[1], source=209*)
792: 0x0F5B [0x40] SET_BIT_WORK_RANGE(start_bit=8*, end_bit=15*, target=Work_Zone[1], source=9*)
793: 0x0F64 [0x43] SEND_EVENT_UPDATE: Send pending tag to server (packet 0x005B)
794: 0x0F66 [0x43] SEND_EVENT_UPDATE: Check pending flag (skip if not pending)
795: 0x0F68 [0x01] GOTO 0x0FD9
796: 0x0F6B [0x02] IF !(Work_Zone[0] == 10*) GOTO 0x0F8C
797: 0x0F73 [0x40] SET_BIT_WORK_RANGE(start_bit=0*, end_bit=7*, target=Work_Zone[1], source=209*)
798: 0x0F7C [0x40] SET_BIT_WORK_RANGE(start_bit=8*, end_bit=15*, target=Work_Zone[1], source=10*)
799: 0x0F85 [0x43] SEND_EVENT_UPDATE: Send pending tag to server (packet 0x005B)
800: 0x0F87 [0x43] SEND_EVENT_UPDATE: Check pending flag (skip if not pending)
801: 0x0F89 [0x01] GOTO 0x0FD9
802: 0x0F8C [0x02] IF !(Work_Zone[0] == 11*) GOTO 0x0F97
803: 0x0F94 [0x01] GOTO 0x0FD9
804: 0x0F97 [0x02] IF !(Work_Zone[0] == 12*) GOTO 0x0FB8
805: 0x0F9F [0x40] SET_BIT_WORK_RANGE(start_bit=0*, end_bit=7*, target=Work_Zone[1], source=209*)
806: 0x0FA8 [0x40] SET_BIT_WORK_RANGE(start_bit=8*, end_bit=15*, target=Work_Zone[1], source=12*)
807: 0x0FB1 [0x43] SEND_EVENT_UPDATE: Send pending tag to server (packet 0x005B)
808: 0x0FB3 [0x43] SEND_EVENT_UPDATE: Check pending flag (skip if not pending)
809: 0x0FB5 [0x01] GOTO 0x0FD9
810: 0x0FB8 [0x02] IF !(Work_Zone[0] == 13*) GOTO 0x0FD9
811: 0x0FC0 [0x40] SET_BIT_WORK_RANGE(start_bit=0*, end_bit=7*, target=Work_Zone[1], source=209*)
812: 0x0FC9 [0x40] SET_BIT_WORK_RANGE(start_bit=8*, end_bit=15*, target=Work_Zone[1], source=13*)
813: 0x0FD2 [0x43] SEND_EVENT_UPDATE: Send pending tag to server (packet 0x005B)
814: 0x0FD4 [0x43] SEND_EVENT_UPDATE: Check pending flag (skip if not pending)
815: 0x0FD6 [0x01] GOTO 0x0FD9

SUBROUTINE_0FD9:
816: 0x0FD9 [0x01] GOTO 0x0FDC

SUBROUTINE_0FDC:
817: 0x0FDC [0x1B] RETURN

SUBROUTINE_0FDD:
818: 0x0FDD [0x03] Work_Zone_1700[0] = 0*
819: 0x0FE2 [0x03] Work_Zone[1] = 211*
820: 0x0FE7 [0x43] SEND_EVENT_UPDATE: Send pending tag to server (packet 0x005B)
821: 0x0FE9 [0x43] SEND_EVENT_UPDATE: Check pending flag (skip if not pending)

SUBROUTINE_0FEB:
822: 0x0FEB [0x02] IF !(Work_Zone_1700[0] == 0*) GOTO 0x1065
823: 0x0FF3 [0x24] CREATE_DIALOG(message_id=13014*, default_option=0*, option_flags=0*)
    → "Pick a temperament (Currently [regular/fierce/patient/nervous/mysterious]) [Regular./Fierce/Patient./Nervous./Mysterious./Cancel.]"
824: 0x0FFA [0x25] WAIT_DIALOG_SELECT()
825: 0x0FFB [0x02] IF !(Work_Zone[0] == 0*) GOTO 0x100F
826: 0x1003 [0x03] Work_Zone[1] = 467*
827: 0x1008 [0x43] SEND_EVENT_UPDATE: Send pending tag to server (packet 0x005B)
828: 0x100A [0x43] SEND_EVENT_UPDATE: Check pending flag (skip if not pending)
829: 0x100C [0x01] GOTO 0x1062
830: 0x100F [0x02] IF !(Work_Zone[0] == 1*) GOTO 0x1023
831: 0x1017 [0x03] Work_Zone[1] = 723*
832: 0x101C [0x43] SEND_EVENT_UPDATE: Send pending tag to server (packet 0x005B)
833: 0x101E [0x43] SEND_EVENT_UPDATE: Check pending flag (skip if not pending)
834: 0x1020 [0x01] GOTO 0x1062
835: 0x1023 [0x02] IF !(Work_Zone[0] == 2*) GOTO 0x1037
836: 0x102B [0x03] Work_Zone[1] = 979*
837: 0x1030 [0x43] SEND_EVENT_UPDATE: Send pending tag to server (packet 0x005B)
838: 0x1032 [0x43] SEND_EVENT_UPDATE: Check pending flag (skip if not pending)
839: 0x1034 [0x01] GOTO 0x1062
840: 0x1037 [0x02] IF !(Work_Zone[0] == 3*) GOTO 0x104B
841: 0x103F [0x03] Work_Zone[1] = 1235*
842: 0x1044 [0x43] SEND_EVENT_UPDATE: Send pending tag to server (packet 0x005B)
843: 0x1046 [0x43] SEND_EVENT_UPDATE: Check pending flag (skip if not pending)
844: 0x1048 [0x01] GOTO 0x1062
845: 0x104B [0x02] IF !(Work_Zone[0] == 4*) GOTO 0x105F
846: 0x1053 [0x03] Work_Zone[1] = 1491*
847: 0x1058 [0x43] SEND_EVENT_UPDATE: Send pending tag to server (packet 0x005B)
848: 0x105A [0x43] SEND_EVENT_UPDATE: Check pending flag (skip if not pending)
849: 0x105C [0x01] GOTO 0x1062
850: 0x105F [0x05] Work_Zone_1700[0] = 1

SUBROUTINE_1062:
851: 0x1062 [0x01] GOTO 0x0FEB
852: 0x1065 [0x1B] RETURN

SUBROUTINE_1066:
853: 0x1066 [0x03] Work_Zone_1700[0] = 0*
854: 0x106B [0x03] Work_Zone[1] = 212*
855: 0x1070 [0x43] SEND_EVENT_UPDATE: Send pending tag to server (packet 0x005B)
856: 0x1072 [0x43] SEND_EVENT_UPDATE: Check pending flag (skip if not pending)

SUBROUTINE_1074:
857: 0x1074 [0x02] IF !(Work_Zone_1700[0] == 0*) GOTO 0x1152
858: 0x107C [0x24] CREATE_DIALOG(message_id=13015*, default_option=0*, option_flags=0*)
    → "Pick a preference (currently [sunny/fire/water/earth/wind/snow/thunder/light/dark/--/cloudy]) [Sunny./Cloudy./Heat./Snow./Wind./Sand./Thunder./Rain./Light./Dark./Cancel.]"
859: 0x1083 [0x25] WAIT_DIALOG_SELECT()
860: 0x1084 [0x02] IF !(Work_Zone[0] == 0*) GOTO 0x1098
861: 0x108C [0x03] Work_Zone[1] = 468*
862: 0x1091 [0x43] SEND_EVENT_UPDATE: Send pending tag to server (packet 0x005B)
863: 0x1093 [0x43] SEND_EVENT_UPDATE: Check pending flag (skip if not pending)
864: 0x1095 [0x01] GOTO 0x114F
865: 0x1098 [0x02] IF !(Work_Zone[0] == 1*) GOTO 0x10AC
866: 0x10A0 [0x03] Work_Zone[1] = 724*
867: 0x10A5 [0x43] SEND_EVENT_UPDATE: Send pending tag to server (packet 0x005B)
868: 0x10A7 [0x43] SEND_EVENT_UPDATE: Check pending flag (skip if not pending)
869: 0x10A9 [0x01] GOTO 0x114F
870: 0x10AC [0x02] IF !(Work_Zone[0] == 2*) GOTO 0x10C0
871: 0x10B4 [0x03] Work_Zone[1] = 980*
872: 0x10B9 [0x43] SEND_EVENT_UPDATE: Send pending tag to server (packet 0x005B)
873: 0x10BB [0x43] SEND_EVENT_UPDATE: Check pending flag (skip if not pending)
874: 0x10BD [0x01] GOTO 0x114F
875: 0x10C0 [0x02] IF !(Work_Zone[0] == 3*) GOTO 0x10D4
876: 0x10C8 [0x03] Work_Zone[1] = 1236*
877: 0x10CD [0x43] SEND_EVENT_UPDATE: Send pending tag to server (packet 0x005B)
878: 0x10CF [0x43] SEND_EVENT_UPDATE: Check pending flag (skip if not pending)
879: 0x10D1 [0x01] GOTO 0x114F
880: 0x10D4 [0x02] IF !(Work_Zone[0] == 4*) GOTO 0x10E8
881: 0x10DC [0x03] Work_Zone[1] = 1492*
882: 0x10E1 [0x43] SEND_EVENT_UPDATE: Send pending tag to server (packet 0x005B)
883: 0x10E3 [0x43] SEND_EVENT_UPDATE: Check pending flag (skip if not pending)
884: 0x10E5 [0x01] GOTO 0x114F
885: 0x10E8 [0x02] IF !(Work_Zone[0] == 5*) GOTO 0x10FC
886: 0x10F0 [0x03] Work_Zone[1] = 1748*
887: 0x10F5 [0x43] SEND_EVENT_UPDATE: Send pending tag to server (packet 0x005B)
888: 0x10F7 [0x43] SEND_EVENT_UPDATE: Check pending flag (skip if not pending)
889: 0x10F9 [0x01] GOTO 0x114F
890: 0x10FC [0x02] IF !(Work_Zone[0] == 6*) GOTO 0x1110
891: 0x1104 [0x03] Work_Zone[1] = 2004*
892: 0x1109 [0x43] SEND_EVENT_UPDATE: Send pending tag to server (packet 0x005B)
893: 0x110B [0x43] SEND_EVENT_UPDATE: Check pending flag (skip if not pending)
894: 0x110D [0x01] GOTO 0x114F
895: 0x1110 [0x02] IF !(Work_Zone[0] == 7*) GOTO 0x1124
896: 0x1118 [0x03] Work_Zone[1] = 2260*
897: 0x111D [0x43] SEND_EVENT_UPDATE: Send pending tag to server (packet 0x005B)
898: 0x111F [0x43] SEND_EVENT_UPDATE: Check pending flag (skip if not pending)
899: 0x1121 [0x01] GOTO 0x114F
900: 0x1124 [0x02] IF !(Work_Zone[0] == 8*) GOTO 0x1138
901: 0x112C [0x03] Work_Zone[1] = 2516*
902: 0x1131 [0x43] SEND_EVENT_UPDATE: Send pending tag to server (packet 0x005B)
903: 0x1133 [0x43] SEND_EVENT_UPDATE: Check pending flag (skip if not pending)
904: 0x1135 [0x01] GOTO 0x114F
905: 0x1138 [0x02] IF !(Work_Zone[0] == 9*) GOTO 0x114C
906: 0x1140 [0x03] Work_Zone[1] = 2772*
907: 0x1145 [0x43] SEND_EVENT_UPDATE: Send pending tag to server (packet 0x005B)
908: 0x1147 [0x43] SEND_EVENT_UPDATE: Check pending flag (skip if not pending)
909: 0x1149 [0x01] GOTO 0x114F
910: 0x114C [0x05] Work_Zone_1700[0] = 1

SUBROUTINE_114F:
911: 0x114F [0x01] GOTO 0x1074
912: 0x1152 [0x1B] RETURN

SUBROUTINE_1153:
913: 0x1153 [0x03] Work_Zone_1700[0] = 0*
914: 0x1158 [0x03] Work_Zone[1] = 210*
915: 0x115D [0x43] SEND_EVENT_UPDATE: Send pending tag to server (packet 0x005B)
916: 0x115F [0x43] SEND_EVENT_UPDATE: Check pending flag (skip if not pending)

SUBROUTINE_1161:
917: 0x1161 [0x02] IF !(Work_Zone_1700[0] == 0*) GOTO 0x11DB
918: 0x1169 [0x24] CREATE_DIALOG(message_id=13016*, default_option=0*, option_flags=0*)
    → "Pick a color, any color. [Yellow./Black./Blue./Red./Green./Cancel.]"
919: 0x1170 [0x25] WAIT_DIALOG_SELECT()
920: 0x1171 [0x02] IF !(Work_Zone[0] == 0*) GOTO 0x1185
921: 0x1179 [0x03] Work_Zone[1] = 466*
922: 0x117E [0x43] SEND_EVENT_UPDATE: Send pending tag to server (packet 0x005B)
923: 0x1180 [0x43] SEND_EVENT_UPDATE: Check pending flag (skip if not pending)
924: 0x1182 [0x01] GOTO 0x11D8
925: 0x1185 [0x02] IF !(Work_Zone[0] == 1*) GOTO 0x1199
926: 0x118D [0x03] Work_Zone[1] = 722*
927: 0x1192 [0x43] SEND_EVENT_UPDATE: Send pending tag to server (packet 0x005B)
928: 0x1194 [0x43] SEND_EVENT_UPDATE: Check pending flag (skip if not pending)
929: 0x1196 [0x01] GOTO 0x11D8
930: 0x1199 [0x02] IF !(Work_Zone[0] == 2*) GOTO 0x11AD
931: 0x11A1 [0x03] Work_Zone[1] = 978*
932: 0x11A6 [0x43] SEND_EVENT_UPDATE: Send pending tag to server (packet 0x005B)
933: 0x11A8 [0x43] SEND_EVENT_UPDATE: Check pending flag (skip if not pending)
934: 0x11AA [0x01] GOTO 0x11D8
935: 0x11AD [0x02] IF !(Work_Zone[0] == 3*) GOTO 0x11C1
936: 0x11B5 [0x03] Work_Zone[1] = 1234*
937: 0x11BA [0x43] SEND_EVENT_UPDATE: Send pending tag to server (packet 0x005B)
938: 0x11BC [0x43] SEND_EVENT_UPDATE: Check pending flag (skip if not pending)
939: 0x11BE [0x01] GOTO 0x11D8
940: 0x11C1 [0x02] IF !(Work_Zone[0] == 4*) GOTO 0x11D5
941: 0x11C9 [0x03] Work_Zone[1] = 1490*
942: 0x11CE [0x43] SEND_EVENT_UPDATE: Send pending tag to server (packet 0x005B)
943: 0x11D0 [0x43] SEND_EVENT_UPDATE: Check pending flag (skip if not pending)
944: 0x11D2 [0x01] GOTO 0x11D8
945: 0x11D5 [0x05] Work_Zone_1700[0] = 1

SUBROUTINE_11D8:
946: 0x11D8 [0x01] GOTO 0x1161
947: 0x11DB [0x1B] RETURN
```

#### Data or dead code:

```
# Dead code (unreachable instructions):
     0x0116 [0x01] GOTO 0x0125
     0x0122 [0x01] GOTO 0x0125
# Dead code (unreachable instructions):
     0x014D [0x01] GOTO 0x0150
# Dead code (unreachable instructions):
     0x0669 [0x01] GOTO 0x0671
# Dead code (unreachable instructions):
     0x068D [0x01] GOTO 0x0695
# Dead code (unreachable instructions):
     0x06B1 [0x01] GOTO 0x06B9
# Dead code (unreachable instructions):
     0x07D0 [0x01] GOTO 0x083C
     0x07DF [0x01] GOTO 0x083C
     0x07EE [0x01] GOTO 0x083C
# Dead code (unreachable instructions):
     0x0838 [0x01] GOTO 0x083C
```
