# 17735832

## Common Data

| Field            | Value                  |
|------------------|------------------------|
| Zone             | Bastok Mines (ID: 234) |
| Block Size       | 2384 bytes             |
| Total Events     | 41                     |
| References Count | 181                    |

## List of Events

| Event ID                   | Entrypoint   |   Size |   Instructions |
|----------------------------|--------------|--------|----------------|
| [65535](#event-65535)      | 0x0000       |      1 |              1 |
| [513](#event-513)          | 0x0001       |      1 |              1 |
| [509](#event-509)          | 0x0002       |      1 |              1 |
| [65535.1](#event-655351)   | 0x0003       |     11 |              3 |
| [65535.2](#event-655352)   | 0x000E       |     25 |              3 |
| [65535.3](#event-655353)   | 0x0027       |     15 |              2 |
| [65535.4](#event-655354)   | 0x0036       |     12 |              3 |
| [65535.5](#event-655355)   | 0x0042       |     10 |              2 |
| [65535.6](#event-655356)   | 0x004C       |     81 |             16 |
| [65535.7](#event-655357)   | 0x009D       |     81 |             16 |
| [65535.8](#event-655358)   | 0x00EE       |     10 |              2 |
| [65535.9](#event-655359)   | 0x00F8       |     14 |              4 |
| [65535.10](#event-6553510) | 0x0106       |     11 |              3 |
| [65535.11](#event-6553511) | 0x0111       |     11 |              3 |
| [65535.12](#event-6553512) | 0x011C       |     11 |              3 |
| [65535.13](#event-6553513) | 0x0127       |     14 |              4 |
| [65535.14](#event-6553514) | 0x0135       |     10 |              2 |
| [65535.15](#event-6553515) | 0x013F       |     24 |              6 |
| [65535.16](#event-6553516) | 0x0157       |     14 |              4 |
| [65535.17](#event-6553517) | 0x0165       |     14 |              4 |
| [65535.18](#event-6553518) | 0x0173       |     10 |              2 |
| [65535.19](#event-6553519) | 0x017D       |     10 |              2 |
| [65535.20](#event-6553520) | 0x0187       |     19 |              5 |
| [65535.21](#event-6553521) | 0x019A       |     10 |              2 |
| [65535.22](#event-6553522) | 0x01A4       |     19 |              5 |
| [65535.23](#event-6553523) | 0x01B7       |     10 |              2 |
| [65535.24](#event-6553524) | 0x01C1       |     19 |              5 |
| [65535.25](#event-6553525) | 0x01D4       |     10 |              2 |
| [65535.26](#event-6553526) | 0x01DE       |    606 |            129 |
| [65535.27](#event-6553527) | 0x043C       |     15 |              3 |
| [545](#event-545)          | 0x044B       |      1 |              1 |
| [65535.28](#event-6553528) | 0x044C       |     15 |              3 |
| [65535.29](#event-6553529) | 0x045B       |     48 |             11 |
| [65535.30](#event-6553530) | 0x048B       |      6 |              2 |
| [65535.31](#event-6553531) | 0x0491       |     15 |              3 |
| [65535.32](#event-6553532) | 0x04A0       |     80 |             18 |
| [65535.33](#event-6553533) | 0x04F0       |     67 |             15 |
| [65535.34](#event-6553534) | 0x0533       |     14 |              4 |
| [65535.35](#event-6553535) | 0x0541       |     51 |             11 |
| [65535.36](#event-6553536) | 0x0574       |     15 |              3 |
| [65535.37](#event-6553537) | 0x0583       |     69 |             15 |

## DAT References (imed_data)

|   Index | Hex Value   |   Dec Value |
|---------|-------------|-------------|
|       0 | 0x0001      |           1 |
|       1 | 0xFFFFD026  |  4294955046 |
|       2 | 0xFFFE38C2  |  4294850754 |
|       3 | 0xFFFFFED4  |  4294966996 |
|       4 | 0x0C0C      |        3084 |
|       5 | 0x8519      |       34073 |
|       6 | 0xFFFE9CA8  |  4294876328 |
|       7 | 0x034F      |         847 |
|       8 | 0x03B4      |         948 |
|       9 | 0x0046      |          70 |
|      10 | 0x7D83      |       32131 |
|      11 | 0xFFFE8E29  |  4294872617 |
|      12 | 0x0367      |         871 |
|      13 | 0x68EC      |       26860 |
|      14 | 0xFFFE933F  |  4294873919 |
|      15 | 0x6F22      |       28450 |
|      16 | 0xFFFEA56E  |  4294878574 |
|      17 | 0x7D53      |       32083 |
|      18 | 0xFFFEA6A2  |  4294878882 |
|      19 | 0x0365      |         869 |
|      20 | 0x0000      |           0 |
|      21 | 0xD2C7      |       53959 |
|      22 | 0xFFFE8BFB  |  4294872059 |
|      23 | 0x07CF      |        1999 |
|      24 | 0xCD17      |       52503 |
|      25 | 0xFFFE8D9F  |  4294872479 |
|      26 | 0xC8E0      |       51424 |
|      27 | 0xFFFE8EFF  |  4294872831 |
|      28 | 0xC31C      |       49948 |
|      29 | 0xFFFE8FDE  |  4294873054 |
|      30 | 0xBE40      |       48704 |
|      31 | 0xFFFE900D  |  4294873101 |
|      32 | 0xC5CF      |       50639 |
|      33 | 0xFFFEAE20  |  4294880800 |
|      34 | 0xFFFFD07D  |  4294955133 |
|      35 | 0xFFFFCC9C  |  4294954140 |
|      36 | 0xFFFFFFD4  |  4294967252 |
|      37 | 0x07C0      |        1984 |
|      38 | 0xFFFFAA54  |  4294945364 |
|      39 | 0xFFFFCC0E  |  4294953998 |
|      40 | 0xFFFF9A14  |  4294941204 |
|      41 | 0xFFFFDD75  |  4294958453 |
|      42 | 0xFFFFA2B5  |  4294943413 |
|      43 | 0xFFFFCBD2  |  4294953938 |
|      44 | 0xFFF9A30F  |  4294550287 |
|      45 | 0xFFF9242D  |  4294517805 |
|      46 | 0x6078      |       24696 |
|      47 | 0x018C      |         396 |
|      48 | 0xFFFD243F  |  4294779967 |
|      49 | 0x6D288     |      447112 |
|      50 | 0x0149      |         329 |
|      51 | 0x00D8      |         216 |
|      52 | 0x000F      |          15 |
|      53 | 0xFFFD0B39  |  4294773561 |
|      54 | 0x6DF78     |      450424 |
|      55 | 0x040F      |        1039 |
|      56 | 0xFFFBB8E5  |  4294686949 |
|      57 | 0xFFFDEAD8  |  4294830808 |
|      58 | 0xFFFFC7BD  |  4294952893 |
|      59 | 0x07A4      |        1956 |
|      60 | 0xFFFBDEE5  |  4294696677 |
|      61 | 0xFFFDE217  |  4294828567 |
|      62 | 0xFFFFC95D  |  4294953309 |
|      63 | 0xFFF9FF7E  |  4294573950 |
|      64 | 0xFFFBCF8A  |  4294692746 |
|      65 | 0x5FCB      |       24523 |
|      66 | 0x0190      |         400 |
|      67 | 0xFFFA1236  |  4294578742 |
|      68 | 0xFFFBC246  |  4294689350 |
|      69 | 0xA0B18     |      658200 |
|      70 | 0x4E697     |      321175 |
|      71 | 0x094D      |        2381 |
|      72 | 0x0B9A      |        2970 |
|      73 | 0xA0FD2     |      659410 |
|      74 | 0x522E3     |      336611 |
|      75 | 0x09A1      |        2465 |
|      76 | 0x0005      |           5 |
|      77 | 0x0003      |           3 |
|      78 | 0x9FA55     |      653909 |
|      79 | 0x53EC5     |      343749 |
|      80 | 0x092B      |        2347 |
|      81 | 0xA1303     |      660227 |
|      82 | 0x582EF     |      361199 |
|      83 | 0x09AF      |        2479 |
|      84 | 0x9E2B3     |      647859 |
|      85 | 0x5B57D     |      374141 |
|      86 | 0x0A4E      |        2638 |
|      87 | 0x99A88     |      629384 |
|      88 | 0x5C3AA     |      377770 |
|      89 | 0x09AA      |        2474 |
|      90 | 0x972EC     |      619244 |
|      91 | 0x621DC     |      401884 |
|      92 | 0x099A      |        2458 |
|      93 | 0x91C65     |      597093 |
|      94 | 0x67BD8     |      424920 |
|      95 | 0x07EA      |        2026 |
|      96 | 0xB2F4      |       45812 |
|      97 | 0xFFFE4F65  |  4294856549 |
|      98 | 0x055E      |        1374 |
|      99 | 0x0BBF      |        3007 |
|     100 | 0xFFF6C3EF  |  4294362095 |
|     101 | 0x93FF1     |      606193 |
|     102 | 0x00A7      |         167 |
|     103 | 0x0179      |         377 |
|     104 | 0x0002      |           2 |
|     105 | 0xFFF6C0EC  |  4294361324 |
|     106 | 0x945D1     |      607697 |
|     107 | 0x0004      |           4 |
|     108 | 0xFFF6B7E2  |  4294359010 |
|     109 | 0x94244     |      606788 |
|     110 | 0xFFFFFFC0  |  4294967232 |
|     111 | 0x003C      |          60 |
|     112 | 0xFFF6BED4  |  4294360788 |
|     113 | 0x946D6     |      607958 |
|     114 | 0xFFFFFFCF  |  4294967247 |
|     115 | 0xFFF6D7C0  |  4294367168 |
|     116 | 0x8EF6A     |      585578 |
|     117 | 0x0274      |         628 |
|     118 | 0x011C      |         284 |
|     119 | 0xFFF6D0CA  |  4294365386 |
|     120 | 0x8F7DF     |      587743 |
|     121 | 0x0112      |         274 |
|     122 | 0xFFF6D779  |  4294367097 |
|     123 | 0x8FCC2     |      588994 |
|     124 | 0x015B      |         347 |
|     125 | 0xFFF6DB55  |  4294368085 |
|     126 | 0x8F169     |      586089 |
|     127 | 0x024A      |         586 |
|     128 | 0xFFF6DAA1  |  4294367905 |
|     129 | 0x8E6CF     |      583375 |
|     130 | 0x033E      |         830 |
|     131 | 0x001E      |          30 |
|     132 | 0x0C58      |        3160 |
|     133 | 0x0078      |         120 |
|     134 | 0xFFF6D069  |  4294365289 |
|     135 | 0x8F7F4     |      587764 |
|     136 | 0x010C      |         268 |
|     137 | 0x0154      |         340 |
|     138 | 0x002D      |          45 |
|     139 | 0xFFF6DB01  |  4294368001 |
|     140 | 0x90356     |      590678 |
|     141 | 0x0108      |         264 |
|     142 | 0x03BF      |         959 |
|     143 | 0xFFF6C73F  |  4294362943 |
|     144 | 0x8F234     |      586292 |
|     145 | 0x008A      |         138 |
|     146 | 0x0025      |          37 |
|     147 | 0x00F0      |         240 |
|     148 | 0xFFF6D6F8  |  4294366968 |
|     149 | 0x8E30A     |      582410 |
|     150 | 0x0322      |         802 |
|     151 | 0x0BD3      |        3027 |
|     152 | 0xFFF6DB94  |  4294368148 |
|     153 | 0x8FCF3     |      589043 |
|     154 | 0x0159      |         345 |
|     155 | 0xFFF6C79F  |  4294363039 |
|     156 | 0x8F34D     |      586573 |
|     157 | 0x0039      |          57 |
|     158 | 0xFFF6CB4A  |  4294363978 |
|     159 | 0x8FAEF     |      588527 |
|     160 | 0x00C4      |         196 |
|     161 | 0xFFF6D269  |  4294365801 |
|     162 | 0x8F138     |      586040 |
|     163 | 0x01F0      |         496 |
|     164 | 0xFFF6CEAA  |  4294364842 |
|     165 | 0x8FA2D     |      588333 |
|     166 | 0x00F7      |         247 |
|     167 | 0xFFF6CA0E  |  4294363662 |
|     168 | 0x8EFB9     |      585657 |
|     169 | 0x0090      |         144 |
|     170 | 0xFFF6CECB  |  4294364875 |
|     171 | 0x8E418     |      582680 |
|     172 | 0xFFF6DB79  |  4294368121 |
|     173 | 0x8E4F3     |      582899 |
|     174 | 0x0356      |         854 |
|     175 | 0xFFF6DE60  |  4294368864 |
|     176 | 0x8F7D9     |      587737 |
|     177 | 0x019A      |         410 |
|     178 | 0xFFF6D8AE  |  4294367406 |
|     179 | 0x8FE78     |      589432 |
|     180 | 0x0146      |         326 |

## Events

### Event 65535

#### Metadata

| Field        | Value   |
|--------------|---------|
| Entrypoint   | 0x0000  |
| Data Size    | 1 bytes |
| Instructions | 1       |

```
      00 01 02 03 04 05 06 07  08 09 0A 0B 0C 0D 0E 0F
      -- -- -- -- -- -- -- --  -- -- -- -- -- -- -- --
0000: 00                                                .               
```

#### Opcodes

```
  0: 0x0000 [0x00] END_REQSTACK()
```

### Event 513

#### Metadata

| Field        | Value   |
|--------------|---------|
| Entrypoint   | 0x0001  |
| Data Size    | 1 bytes |
| Instructions | 1       |

```
      00 01 02 03 04 05 06 07  08 09 0A 0B 0C 0D 0E 0F
      -- -- -- -- -- -- -- --  -- -- -- -- -- -- -- --
0000:    00                                              .              
```

#### Opcodes

```
  0: 0x0001 [0x00] END_REQSTACK()
```

### Event 509

#### Metadata

| Field        | Value   |
|--------------|---------|
| Entrypoint   | 0x0002  |
| Data Size    | 1 bytes |
| Instructions | 1       |

```
      00 01 02 03 04 05 06 07  08 09 0A 0B 0C 0D 0E 0F
      -- -- -- -- -- -- -- --  -- -- -- -- -- -- -- --
0000:       00                                            .             
```

#### Opcodes

```
  0: 0x0002 [0x00] END_REQSTACK()
```

### Event 65535.1

#### Metadata

| Field        | Value    |
|--------------|----------|
| Entrypoint   | 0x0003   |
| Data Size    | 11 bytes |
| Instructions | 3        |

```
      00 01 02 03 04 05 06 07  08 09 0A 0B 0C 0D 0E 0F
      -- -- -- -- -- -- -- --  -- -- -- -- -- -- -- --
0000:          B4 01 00 00 00  80 B5 00 00 00 00           ...........  
```

#### Opcodes

```
  0: 0x0003 [0xB4] UI_WINDOW_STRING_HANDLER(case=0x01 - Copy string from event strings table, work_offset=ExtData[1]->WorkLocal[0], string_index=1*)
  1: 0x0009 [0xB5] SET_EVENT_ENTITY_NAME: Change EventEntity name to ExtData[1]->WorkLocal[0]
  2: 0x000D [0x00] END_REQSTACK()
```

### Event 65535.2

#### Metadata

| Field        | Value    |
|--------------|----------|
| Entrypoint   | 0x000E   |
| Data Size    | 25 bytes |
| Instructions | 3        |

```
      00 01 02 03 04 05 06 07  08 09 0A 0B 0C 0D 0E 0F
      -- -- -- -- -- -- -- --  -- -- -- -- -- -- -- --
0000:                                            B4 00                ..
0010: 00 00 43 68 6F 63 6F 62  6F 00 00 00 00 00 00 00  ..Chocobo.......
0020: 00 00 B5 00 00 00 00                              .......         
```

#### Opcodes

```
  0: 0x000E [0xB4] UI_WINDOW_STRING_HANDLER(case=0x00 - Copy string from opcode, work_offset=ExtData[1]->WorkLocal[0], string="Chocobo")
  1: 0x0022 [0xB5] SET_EVENT_ENTITY_NAME: Change EventEntity name to ExtData[1]->WorkLocal[0]
  2: 0x0026 [0x00] END_REQSTACK()
```

### Event 65535.3

#### Metadata

| Field        | Value    |
|--------------|----------|
| Entrypoint   | 0x0027   |
| Data Size    | 15 bytes |
| Instructions | 2        |

```
      00 01 02 03 04 05 06 07  08 09 0A 0B 0C 0D 0E 0F
      -- -- -- -- -- -- -- --  -- -- -- -- -- -- -- --
0020:                      B6  0D 04 10 05 10 06 10 07         .........
0030: 10 08 10 09 10 00                                 ......          
```

#### Opcodes

```
  0: 0x0027 [0xB6] ENTITY_APPEARANCE_HANDLER(case=Look with Render flags, race=Work_Zone[4], face=Work_Zone[5], head=Work_Zone[6], body=Work_Zone[7], hands=Work_Zone[8], render_flags=0x1009)
  1: 0x0035 [0x00] END_REQSTACK()
```

### Event 65535.4

#### Metadata

| Field        | Value    |
|--------------|----------|
| Entrypoint   | 0x0036   |
| Data Size    | 12 bytes |
| Instructions | 3        |

```
      00 01 02 03 04 05 06 07  08 09 0A 0B 0C 0D 0E 0F
      -- -- -- -- -- -- -- --  -- -- -- -- -- -- -- --
0030:                   33 01  37 01 80 02 80 03 80 04        3.7.......
0040: 80 00                                             ..              
```

#### Opcodes

```
  0: 0x0036 [0x33] EventEntity->Render.Flags0 |= 0x200000 // Bit 21 (flag=0x01)
  1: 0x0038 [0x37] UPDATE_EVENT_POSITION_AND_DIR: x=-12.250*, z=-116.542*, y=-0.300*, direction=271.0°*
  2: 0x0041 [0x00] END_REQSTACK()
```

### Event 65535.5

#### Metadata

| Field        | Value    |
|--------------|----------|
| Entrypoint   | 0x0042   |
| Data Size    | 10 bytes |
| Instructions | 2        |

```
      00 01 02 03 04 05 06 07  08 09 0A 0B 0C 0D 0E 0F
      -- -- -- -- -- -- -- --  -- -- -- -- -- -- -- --
0040:       37 05 80 06 80 07  80 08 80 00                7.........    
```

#### Opcodes

```
  0: 0x0042 [0x37] UPDATE_EVENT_POSITION_AND_DIR: x=34.073*, z=-90.968*, y=0.847*, direction=83.3°*
  1: 0x004B [0x00] END_REQSTACK()
```

### Event 65535.6

#### Metadata

| Field        | Value    |
|--------------|----------|
| Entrypoint   | 0x004C   |
| Data Size    | 81 bytes |
| Instructions | 16       |

```
      00 01 02 03 04 05 06 07  08 09 0A 0B 0C 0D 0E 0F
      -- -- -- -- -- -- -- --  -- -- -- -- -- -- -- --
0040:                                      32 09 80 1F              2...
0050: 00 0A 80 0B 80 0C 80 1F  01 1F 00 0D 80 0E 80 0C  ................
0060: 80 1F 01 1F 00 0F 80 10  80 0C 80 1F 01 1F 00 11  ................
0070: 80 12 80 13 80 1F 01 1F  00 05 80 06 80 07 80 1F  ................
0080: 01 02 4D 10 14 80 00 93  00 27 05 98 A0 0E 01 09  ..M......'......
0090: 01 9C 00 37 14 80 14 80  14 80 14 80 00           ...7.........   
```

#### Opcodes

```
  0: 0x004C [0x32] ExtData[1]->MainSpeed = 70* * 0.1
  1: 0x004F [0x1F] MOVE_ENTITY: EventEntity moves to X=32.131*, Z=-94.679*, Y=0.871*
  2: 0x0057 [0x1F] MOVE_ENTITY: Update entity position (mode=1)
  3: 0x0059 [0x1F] MOVE_ENTITY: EventEntity moves to X=26.860*, Z=-93.377*, Y=0.871*
  4: 0x0061 [0x1F] MOVE_ENTITY: Update entity position (mode=1)
  5: 0x0063 [0x1F] MOVE_ENTITY: EventEntity moves to X=28.450*, Z=-88.722*, Y=0.871*
  6: 0x006B [0x1F] MOVE_ENTITY: Update entity position (mode=1)
  7: 0x006D [0x1F] MOVE_ENTITY: EventEntity moves to X=32.083*, Z=-88.414*, Y=0.869*
  8: 0x0075 [0x1F] MOVE_ENTITY: Update entity position (mode=1)
  9: 0x0077 [0x1F] MOVE_ENTITY: EventEntity moves to X=34.073*, Z=-90.968*, Y=0.847*
 10: 0x007F [0x1F] MOVE_ENTITY: Update entity position (mode=1)
 11: 0x0081 [0x02] IF !(Work_Zone[77] == 0*) GOTO 0x0093
 12: 0x0089 [0x27] REQ_SET(priority=0x05, entity_id=Unnamed NPC (ID: 17735832/0x010EA098), tag_num=0x09)
 13: 0x0090 [0x01] GOTO 0x009C
 14: 0x0093 [0x37] UPDATE_EVENT_POSITION_AND_DIR: x=0.000*, z=0.000*, y=0.000*, direction=0.0°*

SUBROUTINE_009C:
 15: 0x009C [0x00] END_REQSTACK()
```

### Event 65535.7

#### Metadata

| Field        | Value    |
|--------------|----------|
| Entrypoint   | 0x009D   |
| Data Size    | 81 bytes |
| Instructions | 16       |

```
      00 01 02 03 04 05 06 07  08 09 0A 0B 0C 0D 0E 0F
      -- -- -- -- -- -- -- --  -- -- -- -- -- -- -- --
0090:                                         32 09 80               2..
00A0: 1F 00 0A 80 0B 80 0C 80  1F 01 1F 00 0D 80 0E 80  ................
00B0: 0C 80 1F 01 1F 00 0F 80  10 80 0C 80 1F 01 1F 00  ................
00C0: 11 80 12 80 13 80 1F 01  1F 00 05 80 06 80 07 80  ................
00D0: 1F 01 02 4D 10 14 80 00  E4 00 27 05 98 A0 0E 01  ...M......'.....
00E0: 08 01 ED 00 37 14 80 14  80 14 80 14 80 00        ....7.........  
```

#### Opcodes

```
  0: 0x009D [0x32] ExtData[1]->MainSpeed = 70* * 0.1
  1: 0x00A0 [0x1F] MOVE_ENTITY: EventEntity moves to X=32.131*, Z=-94.679*, Y=0.871*
  2: 0x00A8 [0x1F] MOVE_ENTITY: Update entity position (mode=1)
  3: 0x00AA [0x1F] MOVE_ENTITY: EventEntity moves to X=26.860*, Z=-93.377*, Y=0.871*
  4: 0x00B2 [0x1F] MOVE_ENTITY: Update entity position (mode=1)
  5: 0x00B4 [0x1F] MOVE_ENTITY: EventEntity moves to X=28.450*, Z=-88.722*, Y=0.871*
  6: 0x00BC [0x1F] MOVE_ENTITY: Update entity position (mode=1)
  7: 0x00BE [0x1F] MOVE_ENTITY: EventEntity moves to X=32.083*, Z=-88.414*, Y=0.869*
  8: 0x00C6 [0x1F] MOVE_ENTITY: Update entity position (mode=1)
  9: 0x00C8 [0x1F] MOVE_ENTITY: EventEntity moves to X=34.073*, Z=-90.968*, Y=0.847*
 10: 0x00D0 [0x1F] MOVE_ENTITY: Update entity position (mode=1)
 11: 0x00D2 [0x02] IF !(Work_Zone[77] == 0*) GOTO 0x00E4
 12: 0x00DA [0x27] REQ_SET(priority=0x05, entity_id=Unnamed NPC (ID: 17735832/0x010EA098), tag_num=0x08)
 13: 0x00E1 [0x01] GOTO 0x00ED
 14: 0x00E4 [0x37] UPDATE_EVENT_POSITION_AND_DIR: x=0.000*, z=0.000*, y=0.000*, direction=0.0°*

SUBROUTINE_00ED:
 15: 0x00ED [0x00] END_REQSTACK()
```

### Event 65535.8

#### Metadata

| Field        | Value    |
|--------------|----------|
| Entrypoint   | 0x00EE   |
| Data Size    | 10 bytes |
| Instructions | 2        |

```
      00 01 02 03 04 05 06 07  08 09 0A 0B 0C 0D 0E 0F
      -- -- -- -- -- -- -- --  -- -- -- -- -- -- -- --
00E0:                                            37 15                7.
00F0: 80 16 80 0C 80 17 80 00                           ........        
```

#### Opcodes

```
  0: 0x00EE [0x37] UPDATE_EVENT_POSITION_AND_DIR: x=53.959*, z=-95.237*, y=0.871*, direction=175.7°*
  1: 0x00F7 [0x00] END_REQSTACK()
```

### Event 65535.9

#### Metadata

| Field        | Value    |
|--------------|----------|
| Entrypoint   | 0x00F8   |
| Data Size    | 14 bytes |
| Instructions | 4        |

```
      00 01 02 03 04 05 06 07  08 09 0A 0B 0C 0D 0E 0F
      -- -- -- -- -- -- -- --  -- -- -- -- -- -- -- --
00F0:                          32 09 80 1F 00 18 80 19          2.......
0100: 80 0C 80 1F 01 00                                 ......          
```

#### Opcodes

```
  0: 0x00F8 [0x32] ExtData[1]->MainSpeed = 70* * 0.1
  1: 0x00FB [0x1F] MOVE_ENTITY: EventEntity moves to X=52.503*, Z=-94.817*, Y=0.871*
  2: 0x0103 [0x1F] MOVE_ENTITY: Update entity position (mode=1)
  3: 0x0105 [0x00] END_REQSTACK()
```

### Event 65535.10

#### Metadata

| Field        | Value    |
|--------------|----------|
| Entrypoint   | 0x0106   |
| Data Size    | 11 bytes |
| Instructions | 3        |

```
      00 01 02 03 04 05 06 07  08 09 0A 0B 0C 0D 0E 0F
      -- -- -- -- -- -- -- --  -- -- -- -- -- -- -- --
0100:                   1F 00  1A 80 1B 80 0C 80 1F 01        ..........
0110: 00                                                .               
```

#### Opcodes

```
  0: 0x0106 [0x1F] MOVE_ENTITY: EventEntity moves to X=51.424*, Z=-94.465*, Y=0.871*
  1: 0x010E [0x1F] MOVE_ENTITY: Update entity position (mode=1)
  2: 0x0110 [0x00] END_REQSTACK()
```

### Event 65535.11

#### Metadata

| Field        | Value    |
|--------------|----------|
| Entrypoint   | 0x0111   |
| Data Size    | 11 bytes |
| Instructions | 3        |

```
      00 01 02 03 04 05 06 07  08 09 0A 0B 0C 0D 0E 0F
      -- -- -- -- -- -- -- --  -- -- -- -- -- -- -- --
0110:    1F 00 1C 80 1D 80 0C  80 1F 01 00               ...........    
```

#### Opcodes

```
  0: 0x0111 [0x1F] MOVE_ENTITY: EventEntity moves to X=49.948*, Z=-94.242*, Y=0.871*
  1: 0x0119 [0x1F] MOVE_ENTITY: Update entity position (mode=1)
  2: 0x011B [0x00] END_REQSTACK()
```

### Event 65535.12

#### Metadata

| Field        | Value    |
|--------------|----------|
| Entrypoint   | 0x011C   |
| Data Size    | 11 bytes |
| Instructions | 3        |

```
      00 01 02 03 04 05 06 07  08 09 0A 0B 0C 0D 0E 0F
      -- -- -- -- -- -- -- --  -- -- -- -- -- -- -- --
0110:                                      1F 00 1E 80              ....
0120: 1F 80 0C 80 1F 01 00                              .......         
```

#### Opcodes

```
  0: 0x011C [0x1F] MOVE_ENTITY: EventEntity moves to X=48.704*, Z=-94.195*, Y=0.871*
  1: 0x0124 [0x1F] MOVE_ENTITY: Update entity position (mode=1)
  2: 0x0126 [0x00] END_REQSTACK()
```

### Event 65535.13

#### Metadata

| Field        | Value    |
|--------------|----------|
| Entrypoint   | 0x0127   |
| Data Size    | 14 bytes |
| Instructions | 4        |

```
      00 01 02 03 04 05 06 07  08 09 0A 0B 0C 0D 0E 0F
      -- -- -- -- -- -- -- --  -- -- -- -- -- -- -- --
0120:                      32  09 80 1F 00 20 80 21 80         2.... .!.
0130: 0C 80 1F 01 00                                    .....           
```

#### Opcodes

```
  0: 0x0127 [0x32] ExtData[1]->MainSpeed = 70* * 0.1
  1: 0x012A [0x1F] MOVE_ENTITY: EventEntity moves to X=50.639*, Z=-86.496*, Y=0.871*
  2: 0x0132 [0x1F] MOVE_ENTITY: Update entity position (mode=1)
  3: 0x0134 [0x00] END_REQSTACK()
```

### Event 65535.14

#### Metadata

| Field        | Value    |
|--------------|----------|
| Entrypoint   | 0x0135   |
| Data Size    | 10 bytes |
| Instructions | 2        |

```
      00 01 02 03 04 05 06 07  08 09 0A 0B 0C 0D 0E 0F
      -- -- -- -- -- -- -- --  -- -- -- -- -- -- -- --
0130:                37 22 80  23 80 24 80 25 80 00          7".#.$.%.. 
```

#### Opcodes

```
  0: 0x0135 [0x37] UPDATE_EVENT_POSITION_AND_DIR: x=-12.163*, z=-13.156*, y=-0.044*, direction=174.4°*
  1: 0x013E [0x00] END_REQSTACK()
```

### Event 65535.15

#### Metadata

| Field        | Value    |
|--------------|----------|
| Entrypoint   | 0x013F   |
| Data Size    | 24 bytes |
| Instructions | 6        |

```
      00 01 02 03 04 05 06 07  08 09 0A 0B 0C 0D 0E 0F
      -- -- -- -- -- -- -- --  -- -- -- -- -- -- -- --
0130:                                               32                 2
0140: 09 80 1F 00 26 80 27 80  24 80 1F 01 1F 00 28 80  ....&.'.$.....(.
0150: 29 80 24 80 1F 01 00                              ).$....         
```

#### Opcodes

```
  0: 0x013F [0x32] ExtData[1]->MainSpeed = 70* * 0.1
  1: 0x0142 [0x1F] MOVE_ENTITY: EventEntity moves to X=-21.932*, Z=-13.298*, Y=-0.044*
  2: 0x014A [0x1F] MOVE_ENTITY: Update entity position (mode=1)
  3: 0x014C [0x1F] MOVE_ENTITY: EventEntity moves to X=-26.092*, Z=-8.843*, Y=-0.044*
  4: 0x0154 [0x1F] MOVE_ENTITY: Update entity position (mode=1)
  5: 0x0156 [0x00] END_REQSTACK()
```

### Event 65535.16

#### Metadata

| Field        | Value    |
|--------------|----------|
| Entrypoint   | 0x0157   |
| Data Size    | 14 bytes |
| Instructions | 4        |

```
      00 01 02 03 04 05 06 07  08 09 0A 0B 0C 0D 0E 0F
      -- -- -- -- -- -- -- --  -- -- -- -- -- -- -- --
0150:                      32  09 80 1F 00 2A 80 2B 80         2....*.+.
0160: 24 80 1F 01 00                                    $....           
```

#### Opcodes

```
  0: 0x0157 [0x32] ExtData[1]->MainSpeed = 70* * 0.1
  1: 0x015A [0x1F] MOVE_ENTITY: EventEntity moves to X=-23.883*, Z=-13.358*, Y=-0.044*
  2: 0x0162 [0x1F] MOVE_ENTITY: Update entity position (mode=1)
  3: 0x0164 [0x00] END_REQSTACK()
```

### Event 65535.17

#### Metadata

| Field        | Value    |
|--------------|----------|
| Entrypoint   | 0x0165   |
| Data Size    | 14 bytes |
| Instructions | 4        |

```
      00 01 02 03 04 05 06 07  08 09 0A 0B 0C 0D 0E 0F
      -- -- -- -- -- -- -- --  -- -- -- -- -- -- -- --
0160:                32 09 80  1F 00 22 80 23 80 24 80       2....".#.$.
0170: 1F 01 00                                          ...             
```

#### Opcodes

```
  0: 0x0165 [0x32] ExtData[1]->MainSpeed = 70* * 0.1
  1: 0x0168 [0x1F] MOVE_ENTITY: EventEntity moves to X=-12.163*, Z=-13.156*, Y=-0.044*
  2: 0x0170 [0x1F] MOVE_ENTITY: Update entity position (mode=1)
  3: 0x0172 [0x00] END_REQSTACK()
```

### Event 65535.18

#### Metadata

| Field        | Value    |
|--------------|----------|
| Entrypoint   | 0x0173   |
| Data Size    | 10 bytes |
| Instructions | 2        |

```
      00 01 02 03 04 05 06 07  08 09 0A 0B 0C 0D 0E 0F
      -- -- -- -- -- -- -- --  -- -- -- -- -- -- -- --
0170:          37 2C 80 2D 80  2E 80 2F 80 00              7,.-.../..   
```

#### Opcodes

```
  0: 0x0173 [0x37] UPDATE_EVENT_POSITION_AND_DIR: x=-417.009*, z=-449.491*, y=24.696*, direction=34.8°*
  1: 0x017C [0x00] END_REQSTACK()
```

### Event 65535.19

#### Metadata

| Field        | Value    |
|--------------|----------|
| Entrypoint   | 0x017D   |
| Data Size    | 10 bytes |
| Instructions | 2        |

```
      00 01 02 03 04 05 06 07  08 09 0A 0B 0C 0D 0E 0F
      -- -- -- -- -- -- -- --  -- -- -- -- -- -- -- --
0170:                                         37 30 80               70.
0180: 31 80 32 80 33 80 00                              1.2.3..         
```

#### Opcodes

```
  0: 0x017D [0x37] UPDATE_EVENT_POSITION_AND_DIR: x=-187.329*, z=447.112*, y=0.329*, direction=19.0°*
  1: 0x0186 [0x00] END_REQSTACK()
```

### Event 65535.20

#### Metadata

| Field        | Value    |
|--------------|----------|
| Entrypoint   | 0x0187   |
| Data Size    | 19 bytes |
| Instructions | 5        |

```
      00 01 02 03 04 05 06 07  08 09 0A 0B 0C 0D 0E 0F
      -- -- -- -- -- -- -- --  -- -- -- -- -- -- -- --
0180:                      32  34 80 1F 00 35 80 36 80         24...5.6.
0190: 37 80 1F 01 1E 97 A0 0E  01 00                    7.........      
```

#### Opcodes

```
  0: 0x0187 [0x32] ExtData[1]->MainSpeed = 15* * 0.1
  1: 0x018A [0x1F] MOVE_ENTITY: EventEntity moves to X=-193.735*, Z=450.424*, Y=1.039*
  2: 0x0192 [0x1F] MOVE_ENTITY: Update entity position (mode=1)
  3: 0x0194 [0x1E] EventEntity looks at Unnamed NPC (ID: 17735831/0x010EA097) and starts talking
  4: 0x0199 [0x00] END_REQSTACK()
```

### Event 65535.21

#### Metadata

| Field        | Value    |
|--------------|----------|
| Entrypoint   | 0x019A   |
| Data Size    | 10 bytes |
| Instructions | 2        |

```
      00 01 02 03 04 05 06 07  08 09 0A 0B 0C 0D 0E 0F
      -- -- -- -- -- -- -- --  -- -- -- -- -- -- -- --
0190:                                37 38 80 39 80 3A            78.9.:
01A0: 80 3B 80 00                                       .;..            
```

#### Opcodes

```
  0: 0x019A [0x37] UPDATE_EVENT_POSITION_AND_DIR: x=-280.347*, z=-136.488*, y=-14.403*, direction=171.9°*
  1: 0x01A3 [0x00] END_REQSTACK()
```

### Event 65535.22

#### Metadata

| Field        | Value    |
|--------------|----------|
| Entrypoint   | 0x01A4   |
| Data Size    | 19 bytes |
| Instructions | 5        |

```
      00 01 02 03 04 05 06 07  08 09 0A 0B 0C 0D 0E 0F
      -- -- -- -- -- -- -- --  -- -- -- -- -- -- -- --
01A0:             32 34 80 1F  00 3C 80 3D 80 3E 80 1F      24...<.=.>..
01B0: 01 1E 97 A0 0E 01 00                              .......         
```

#### Opcodes

```
  0: 0x01A4 [0x32] ExtData[1]->MainSpeed = 15* * 0.1
  1: 0x01A7 [0x1F] MOVE_ENTITY: EventEntity moves to X=-270.619*, Z=-138.729*, Y=-13.987*
  2: 0x01AF [0x1F] MOVE_ENTITY: Update entity position (mode=1)
  3: 0x01B1 [0x1E] EventEntity looks at Unnamed NPC (ID: 17735831/0x010EA097) and starts talking
  4: 0x01B6 [0x00] END_REQSTACK()
```

### Event 65535.23

#### Metadata

| Field        | Value    |
|--------------|----------|
| Entrypoint   | 0x01B7   |
| Data Size    | 10 bytes |
| Instructions | 2        |

```
      00 01 02 03 04 05 06 07  08 09 0A 0B 0C 0D 0E 0F
      -- -- -- -- -- -- -- --  -- -- -- -- -- -- -- --
01B0:                      37  3F 80 40 80 41 80 42 80         7?.@.A.B.
01C0: 00                                                .               
```

#### Opcodes

```
  0: 0x01B7 [0x37] UPDATE_EVENT_POSITION_AND_DIR: x=-393.346*, z=-274.550*, y=24.523*, direction=35.2°*
  1: 0x01C0 [0x00] END_REQSTACK()
```

### Event 65535.24

#### Metadata

| Field        | Value    |
|--------------|----------|
| Entrypoint   | 0x01C1   |
| Data Size    | 19 bytes |
| Instructions | 5        |

```
      00 01 02 03 04 05 06 07  08 09 0A 0B 0C 0D 0E 0F
      -- -- -- -- -- -- -- --  -- -- -- -- -- -- -- --
01C0:    32 34 80 1F 00 43 80  44 80 41 80 1F 01 1E 97   24...C.D.A.....
01D0: A0 0E 01 00                                       ....            
```

#### Opcodes

```
  0: 0x01C1 [0x32] ExtData[1]->MainSpeed = 15* * 0.1
  1: 0x01C4 [0x1F] MOVE_ENTITY: EventEntity moves to X=-388.554*, Z=-277.946*, Y=24.523*
  2: 0x01CC [0x1F] MOVE_ENTITY: Update entity position (mode=1)
  3: 0x01CE [0x1E] EventEntity looks at Unnamed NPC (ID: 17735831/0x010EA097) and starts talking
  4: 0x01D3 [0x00] END_REQSTACK()
```

### Event 65535.25

#### Metadata

| Field        | Value    |
|--------------|----------|
| Entrypoint   | 0x01D4   |
| Data Size    | 10 bytes |
| Instructions | 2        |

```
      00 01 02 03 04 05 06 07  08 09 0A 0B 0C 0D 0E 0F
      -- -- -- -- -- -- -- --  -- -- -- -- -- -- -- --
01D0:             37 45 80 46  80 47 80 48 80 00            7E.F.G.H..  
```

#### Opcodes

```
  0: 0x01D4 [0x37] UPDATE_EVENT_POSITION_AND_DIR: x=658.200*, z=321.175*, y=2.381*, direction=261.0°*
  1: 0x01DD [0x00] END_REQSTACK()
```

### Event 65535.26

#### Metadata

| Field        | Value     |
|--------------|-----------|
| Entrypoint   | 0x01DE    |
| Data Size    | 606 bytes |
| Instructions | 129       |

```
      00 01 02 03 04 05 06 07  08 09 0A 0B 0C 0D 0E 0F
      -- -- -- -- -- -- -- --  -- -- -- -- -- -- -- --
01D0:                                            32 09                2.
01E0: 80 1F 00 49 80 4A 80 4B  80 1F 01 02 4C 10 14 80  ...I.J.K....L...
01F0: 80 F9 01 1C 4C 80 01 07  02 02 4C 10 4D 80 80 07  ....L.....L.M...
0200: 02 1C 4C 80 01 07 02 1F  00 4E 80 4F 80 50 80 1F  ..L......N.O.P..
0210: 01 02 4C 10 14 80 80 1F  02 1C 4C 80 01 2D 02 02  ..L.......L..-..
0220: 4C 10 4D 80 80 2D 02 1C  4C 80 01 2D 02 1F 00 51  L.M..-..L..-...Q
0230: 80 52 80 53 80 1F 01 02  4C 10 14 80 80 45 02 1C  .R.S....L....E..
0240: 4C 80 01 53 02 02 4C 10  4D 80 80 53 02 1C 4C 80  L..S..L.M..S..L.
0250: 01 53 02 1F 00 54 80 55  80 56 80 1F 01 02 4C 10  .S...T.U.V....L.
0260: 14 80 80 6B 02 1C 4C 80  01 79 02 02 4C 10 4D 80  ...k..L..y..L.M.
0270: 80 79 02 1C 4C 80 01 79  02 1F 00 57 80 58 80 59  .y..L..y...W.X.Y
0280: 80 1F 01 02 4C 10 14 80  80 91 02 1C 4C 80 01 9F  ....L.......L...
0290: 02 02 4C 10 4D 80 80 9F  02 1C 4C 80 01 9F 02 1F  ..L.M.....L.....
02A0: 00 5A 80 5B 80 5C 80 1F  01 02 4C 10 14 80 80 B7  .Z.[.\....L.....
02B0: 02 1C 4C 80 01 C5 02 02  4C 10 4D 80 80 C5 02 1C  ..L.....L.M.....
02C0: 4C 80 01 C5 02 1F 00 5D  80 5E 80 5F 80 1F 01 02  L......].^._....
02D0: 4C 10 14 80 80 DD 02 1C  4C 80 01 F9 02 02 4C 10  L.......L.....L.
02E0: 00 80 80 EB 02 1C 4C 80  01 F9 02 02 4C 10 4D 80  ......L.....L.M.
02F0: 80 F9 02 1C 4C 80 01 F9  02 1F 00 5A 80 5B 80 5C  ....L......Z.[.\
0300: 80 1F 01 02 4C 10 14 80  80 11 03 1C 4C 80 01 2D  ....L.......L..-
0310: 03 02 4C 10 00 80 80 1F  03 1C 4C 80 01 2D 03 02  ..L.......L..-..
0320: 4C 10 4D 80 80 2D 03 1C  4C 80 01 2D 03 1F 00 57  L.M..-..L..-...W
0330: 80 58 80 59 80 1F 01 02  4C 10 14 80 80 45 03 1C  .X.Y....L....E..
0340: 4C 80 01 61 03 02 4C 10  00 80 80 53 03 1C 4C 80  L..a..L....S..L.
0350: 01 61 03 02 4C 10 4D 80  80 61 03 1C 4C 80 01 61  .a..L.M..a..L..a
0360: 03 1F 00 54 80 55 80 56  80 1F 01 02 4C 10 14 80  ...T.U.V....L...
0370: 80 79 03 1C 4C 80 01 95  03 02 4C 10 00 80 80 87  .y..L.....L.....
0380: 03 1C 4C 80 01 95 03 02  4C 10 4D 80 80 95 03 1C  ..L.....L.M.....
0390: 4C 80 01 95 03 1F 00 51  80 52 80 53 80 1F 01 02  L......Q.R.S....
03A0: 4C 10 14 80 80 AD 03 1C  4C 80 01 C9 03 02 4C 10  L.......L.....L.
03B0: 00 80 80 BB 03 1C 4C 80  01 C9 03 02 4C 10 4D 80  ......L.....L.M.
03C0: 80 C9 03 1C 4C 80 01 C9  03 1F 00 4E 80 4F 80 50  ....L......N.O.P
03D0: 80 1F 01 02 4C 10 14 80  80 E1 03 1C 4C 80 01 FD  ....L.......L...
03E0: 03 02 4C 10 00 80 80 EF  03 1C 4C 80 01 FD 03 02  ..L.......L.....
03F0: 4C 10 4D 80 80 FD 03 1C  4C 80 01 FD 03 1F 00 49  L.M.....L......I
0400: 80 4A 80 4B 80 1F 01 02  4C 10 14 80 80 15 04 1C  .J.K....L.......
0410: 4C 80 01 31 04 02 4C 10  00 80 80 23 04 1C 4C 80  L..1..L....#..L.
0420: 01 31 04 02 4C 10 4D 80  80 31 04 1C 4C 80 01 31  .1..L.M..1..L..1
0430: 04 1F 00 45 80 46 80 47  80 1F 01 00              ...E.F.G....    
```

#### Opcodes

```
  0: 0x01DE [0x32] ExtData[1]->MainSpeed = 70* * 0.1
  1: 0x01E1 [0x1F] MOVE_ENTITY: EventEntity moves to X=659.410*, Z=336.611*, Y=2.465*
  2: 0x01E9 [0x1F] MOVE_ENTITY: Update entity position (mode=1)
  3: 0x01EB [0x02] IF !(Work_Zone[76] == 0*) GOTO 0x01F9
  4: 0x01F3 [0x1C] WAIT(5* ticks)
  5: 0x01F6 [0x01] GOTO 0x0207
  6: 0x01F9 [0x02] IF !(Work_Zone[76] == 3*) GOTO 0x0207
  7: 0x0201 [0x1C] WAIT(5* ticks)
  8: 0x0204 [0x01] GOTO 0x0207

SUBROUTINE_0207:
  9: 0x0207 [0x1F] MOVE_ENTITY: EventEntity moves to X=653.909*, Z=343.749*, Y=2.347*
 10: 0x020F [0x1F] MOVE_ENTITY: Update entity position (mode=1)
 11: 0x0211 [0x02] IF !(Work_Zone[76] == 0*) GOTO 0x021F
 12: 0x0219 [0x1C] WAIT(5* ticks)
 13: 0x021C [0x01] GOTO 0x022D
 14: 0x021F [0x02] IF !(Work_Zone[76] == 3*) GOTO 0x022D
 15: 0x0227 [0x1C] WAIT(5* ticks)
 16: 0x022A [0x01] GOTO 0x022D

SUBROUTINE_022D:
 17: 0x022D [0x1F] MOVE_ENTITY: EventEntity moves to X=660.227*, Z=361.199*, Y=2.479*
 18: 0x0235 [0x1F] MOVE_ENTITY: Update entity position (mode=1)
 19: 0x0237 [0x02] IF !(Work_Zone[76] == 0*) GOTO 0x0245
 20: 0x023F [0x1C] WAIT(5* ticks)
 21: 0x0242 [0x01] GOTO 0x0253
 22: 0x0245 [0x02] IF !(Work_Zone[76] == 3*) GOTO 0x0253
 23: 0x024D [0x1C] WAIT(5* ticks)
 24: 0x0250 [0x01] GOTO 0x0253

SUBROUTINE_0253:
 25: 0x0253 [0x1F] MOVE_ENTITY: EventEntity moves to X=647.859*, Z=374.141*, Y=2.638*
 26: 0x025B [0x1F] MOVE_ENTITY: Update entity position (mode=1)
 27: 0x025D [0x02] IF !(Work_Zone[76] == 0*) GOTO 0x026B
 28: 0x0265 [0x1C] WAIT(5* ticks)
 29: 0x0268 [0x01] GOTO 0x0279
 30: 0x026B [0x02] IF !(Work_Zone[76] == 3*) GOTO 0x0279
 31: 0x0273 [0x1C] WAIT(5* ticks)
 32: 0x0276 [0x01] GOTO 0x0279

SUBROUTINE_0279:
 33: 0x0279 [0x1F] MOVE_ENTITY: EventEntity moves to X=629.384*, Z=377.770*, Y=2.474*
 34: 0x0281 [0x1F] MOVE_ENTITY: Update entity position (mode=1)
 35: 0x0283 [0x02] IF !(Work_Zone[76] == 0*) GOTO 0x0291
 36: 0x028B [0x1C] WAIT(5* ticks)
 37: 0x028E [0x01] GOTO 0x029F
 38: 0x0291 [0x02] IF !(Work_Zone[76] == 3*) GOTO 0x029F
 39: 0x0299 [0x1C] WAIT(5* ticks)
 40: 0x029C [0x01] GOTO 0x029F

SUBROUTINE_029F:
 41: 0x029F [0x1F] MOVE_ENTITY: EventEntity moves to X=619.244*, Z=401.884*, Y=2.458*
 42: 0x02A7 [0x1F] MOVE_ENTITY: Update entity position (mode=1)
 43: 0x02A9 [0x02] IF !(Work_Zone[76] == 0*) GOTO 0x02B7
 44: 0x02B1 [0x1C] WAIT(5* ticks)
 45: 0x02B4 [0x01] GOTO 0x02C5
 46: 0x02B7 [0x02] IF !(Work_Zone[76] == 3*) GOTO 0x02C5
 47: 0x02BF [0x1C] WAIT(5* ticks)
 48: 0x02C2 [0x01] GOTO 0x02C5

SUBROUTINE_02C5:
 49: 0x02C5 [0x1F] MOVE_ENTITY: EventEntity moves to X=597.093*, Z=424.920*, Y=2.026*
 50: 0x02CD [0x1F] MOVE_ENTITY: Update entity position (mode=1)
 51: 0x02CF [0x02] IF !(Work_Zone[76] == 0*) GOTO 0x02DD
 52: 0x02D7 [0x1C] WAIT(5* ticks)
 53: 0x02DA [0x01] GOTO 0x02F9
 54: 0x02DD [0x02] IF !(Work_Zone[76] == 1*) GOTO 0x02EB
 55: 0x02E5 [0x1C] WAIT(5* ticks)
 56: 0x02E8 [0x01] GOTO 0x02F9
 57: 0x02EB [0x02] IF !(Work_Zone[76] == 3*) GOTO 0x02F9
 58: 0x02F3 [0x1C] WAIT(5* ticks)
 59: 0x02F6 [0x01] GOTO 0x02F9

SUBROUTINE_02F9:
 60: 0x02F9 [0x1F] MOVE_ENTITY: EventEntity moves to X=619.244*, Z=401.884*, Y=2.458*
 61: 0x0301 [0x1F] MOVE_ENTITY: Update entity position (mode=1)
 62: 0x0303 [0x02] IF !(Work_Zone[76] == 0*) GOTO 0x0311
 63: 0x030B [0x1C] WAIT(5* ticks)
 64: 0x030E [0x01] GOTO 0x032D
 65: 0x0311 [0x02] IF !(Work_Zone[76] == 1*) GOTO 0x031F
 66: 0x0319 [0x1C] WAIT(5* ticks)
 67: 0x031C [0x01] GOTO 0x032D
 68: 0x031F [0x02] IF !(Work_Zone[76] == 3*) GOTO 0x032D
 69: 0x0327 [0x1C] WAIT(5* ticks)
 70: 0x032A [0x01] GOTO 0x032D

SUBROUTINE_032D:
 71: 0x032D [0x1F] MOVE_ENTITY: EventEntity moves to X=629.384*, Z=377.770*, Y=2.474*
 72: 0x0335 [0x1F] MOVE_ENTITY: Update entity position (mode=1)
 73: 0x0337 [0x02] IF !(Work_Zone[76] == 0*) GOTO 0x0345
 74: 0x033F [0x1C] WAIT(5* ticks)
 75: 0x0342 [0x01] GOTO 0x0361
 76: 0x0345 [0x02] IF !(Work_Zone[76] == 1*) GOTO 0x0353
 77: 0x034D [0x1C] WAIT(5* ticks)
 78: 0x0350 [0x01] GOTO 0x0361
 79: 0x0353 [0x02] IF !(Work_Zone[76] == 3*) GOTO 0x0361
 80: 0x035B [0x1C] WAIT(5* ticks)
 81: 0x035E [0x01] GOTO 0x0361

SUBROUTINE_0361:
 82: 0x0361 [0x1F] MOVE_ENTITY: EventEntity moves to X=647.859*, Z=374.141*, Y=2.638*
 83: 0x0369 [0x1F] MOVE_ENTITY: Update entity position (mode=1)
 84: 0x036B [0x02] IF !(Work_Zone[76] == 0*) GOTO 0x0379
 85: 0x0373 [0x1C] WAIT(5* ticks)
 86: 0x0376 [0x01] GOTO 0x0395
 87: 0x0379 [0x02] IF !(Work_Zone[76] == 1*) GOTO 0x0387
 88: 0x0381 [0x1C] WAIT(5* ticks)
 89: 0x0384 [0x01] GOTO 0x0395
 90: 0x0387 [0x02] IF !(Work_Zone[76] == 3*) GOTO 0x0395
 91: 0x038F [0x1C] WAIT(5* ticks)
 92: 0x0392 [0x01] GOTO 0x0395

SUBROUTINE_0395:
 93: 0x0395 [0x1F] MOVE_ENTITY: EventEntity moves to X=660.227*, Z=361.199*, Y=2.479*
 94: 0x039D [0x1F] MOVE_ENTITY: Update entity position (mode=1)
 95: 0x039F [0x02] IF !(Work_Zone[76] == 0*) GOTO 0x03AD
 96: 0x03A7 [0x1C] WAIT(5* ticks)
 97: 0x03AA [0x01] GOTO 0x03C9
 98: 0x03AD [0x02] IF !(Work_Zone[76] == 1*) GOTO 0x03BB
 99: 0x03B5 [0x1C] WAIT(5* ticks)
100: 0x03B8 [0x01] GOTO 0x03C9
101: 0x03BB [0x02] IF !(Work_Zone[76] == 3*) GOTO 0x03C9
102: 0x03C3 [0x1C] WAIT(5* ticks)
103: 0x03C6 [0x01] GOTO 0x03C9

SUBROUTINE_03C9:
104: 0x03C9 [0x1F] MOVE_ENTITY: EventEntity moves to X=653.909*, Z=343.749*, Y=2.347*
105: 0x03D1 [0x1F] MOVE_ENTITY: Update entity position (mode=1)
106: 0x03D3 [0x02] IF !(Work_Zone[76] == 0*) GOTO 0x03E1
107: 0x03DB [0x1C] WAIT(5* ticks)
108: 0x03DE [0x01] GOTO 0x03FD
109: 0x03E1 [0x02] IF !(Work_Zone[76] == 1*) GOTO 0x03EF
110: 0x03E9 [0x1C] WAIT(5* ticks)
111: 0x03EC [0x01] GOTO 0x03FD
112: 0x03EF [0x02] IF !(Work_Zone[76] == 3*) GOTO 0x03FD
113: 0x03F7 [0x1C] WAIT(5* ticks)
114: 0x03FA [0x01] GOTO 0x03FD

SUBROUTINE_03FD:
115: 0x03FD [0x1F] MOVE_ENTITY: EventEntity moves to X=659.410*, Z=336.611*, Y=2.465*
116: 0x0405 [0x1F] MOVE_ENTITY: Update entity position (mode=1)
117: 0x0407 [0x02] IF !(Work_Zone[76] == 0*) GOTO 0x0415
118: 0x040F [0x1C] WAIT(5* ticks)
119: 0x0412 [0x01] GOTO 0x0431
120: 0x0415 [0x02] IF !(Work_Zone[76] == 1*) GOTO 0x0423
121: 0x041D [0x1C] WAIT(5* ticks)
122: 0x0420 [0x01] GOTO 0x0431
123: 0x0423 [0x02] IF !(Work_Zone[76] == 3*) GOTO 0x0431
124: 0x042B [0x1C] WAIT(5* ticks)
125: 0x042E [0x01] GOTO 0x0431

SUBROUTINE_0431:
126: 0x0431 [0x1F] MOVE_ENTITY: EventEntity moves to X=658.200*, Z=321.175*, Y=2.381*
127: 0x0439 [0x1F] MOVE_ENTITY: Update entity position (mode=1)
128: 0x043B [0x00] END_REQSTACK()
```

### Event 65535.27

#### Metadata

| Field        | Value    |
|--------------|----------|
| Entrypoint   | 0x043C   |
| Data Size    | 15 bytes |
| Instructions | 3        |

```
      00 01 02 03 04 05 06 07  08 09 0A 0B 0C 0D 0E 0F
      -- -- -- -- -- -- -- --  -- -- -- -- -- -- -- --
0430:                                      37 60 80 61              7`.a
0440: 80 62 80 63 80 80 F8 FF  FF 7F 00                 .b.c.......     
```

#### Opcodes

```
  0: 0x043C [0x37] UPDATE_EVENT_POSITION_AND_DIR: x=45.812*, z=-110.747*, y=1.374*, direction=264.3°*
  1: 0x0445 [0x80] LOAD_WAIT(entity=EventEntity)
  2: 0x044A [0x00] END_REQSTACK()
```

### Event 545

#### Metadata

| Field        | Value   |
|--------------|---------|
| Entrypoint   | 0x044B  |
| Data Size    | 1 bytes |
| Instructions | 1       |

```
      00 01 02 03 04 05 06 07  08 09 0A 0B 0C 0D 0E 0F
      -- -- -- -- -- -- -- --  -- -- -- -- -- -- -- --
0440:                                   00                         .    
```

#### Opcodes

```
  0: 0x044B [0x00] END_REQSTACK()
```

### Event 65535.28

#### Metadata

| Field        | Value    |
|--------------|----------|
| Entrypoint   | 0x044C   |
| Data Size    | 15 bytes |
| Instructions | 3        |

```
      00 01 02 03 04 05 06 07  08 09 0A 0B 0C 0D 0E 0F
      -- -- -- -- -- -- -- --  -- -- -- -- -- -- -- --
0440:                                      37 64 80 65              7d.e
0450: 80 66 80 67 80 03 04 00  14 80 00                 .f.g.......     
```

#### Opcodes

```
  0: 0x044C [0x37] UPDATE_EVENT_POSITION_AND_DIR: x=-605.201*, z=606.193*, y=0.167*, direction=33.1°*
  1: 0x0455 [0x03] ExtData[1]->WorkLocal[4] = 0*
  2: 0x045A [0x00] END_REQSTACK()
```

### Event 65535.29

#### Metadata

| Field        | Value    |
|--------------|----------|
| Entrypoint   | 0x045B   |
| Data Size    | 48 bytes |
| Instructions | 11       |

```
      00 01 02 03 04 05 06 07  08 09 0A 0B 0C 0D 0E 0F
      -- -- -- -- -- -- -- --  -- -- -- -- -- -- -- --
0450:                                   02 04 00 68 80             ...h.
0460: 01 8A 04 32 34 80 1F 00  69 80 6A 80 6B 80 1F 01  ...24...i.j.k...
0470: 1F 00 6C 80 6D 80 6E 80  1F 01 1C 6F 80 1F 00 70  ..l.m.n....o...p
0480: 80 71 80 72 80 1F 01 01  5B 04 00                 .q.r....[..     
```

#### Opcodes

```
  0: 0x045B [0x02] IF !(ExtData[1]->WorkLocal[4] == 2*) GOTO 0x048A
  1: 0x0463 [0x32] ExtData[1]->MainSpeed = 15* * 0.1
  2: 0x0466 [0x1F] MOVE_ENTITY: EventEntity moves to X=-605.972*, Z=607.697*, Y=0.004*
  3: 0x046E [0x1F] MOVE_ENTITY: Update entity position (mode=1)
  4: 0x0470 [0x1F] MOVE_ENTITY: EventEntity moves to X=-608.286*, Z=606.788*, Y=-0.064*
  5: 0x0478 [0x1F] MOVE_ENTITY: Update entity position (mode=1)
  6: 0x047A [0x1C] WAIT(60* ticks)
  7: 0x047D [0x1F] MOVE_ENTITY: EventEntity moves to X=-606.508*, Z=607.958*, Y=-0.049*
  8: 0x0485 [0x1F] MOVE_ENTITY: Update entity position (mode=1)
  9: 0x0487 [0x01] GOTO 0x045B
 10: 0x048A [0x00] END_REQSTACK()
```

### Event 65535.30

#### Metadata

| Field        | Value   |
|--------------|---------|
| Entrypoint   | 0x048B  |
| Data Size    | 6 bytes |
| Instructions | 2       |

```
      00 01 02 03 04 05 06 07  08 09 0A 0B 0C 0D 0E 0F
      -- -- -- -- -- -- -- --  -- -- -- -- -- -- -- --
0480:                                   03 04 00 68 80             ...h.
0490: 00                                                .               
```

#### Opcodes

```
  0: 0x048B [0x03] ExtData[1]->WorkLocal[4] = 2*
  1: 0x0490 [0x00] END_REQSTACK()
```

### Event 65535.31

#### Metadata

| Field        | Value    |
|--------------|----------|
| Entrypoint   | 0x0491   |
| Data Size    | 15 bytes |
| Instructions | 3        |

```
      00 01 02 03 04 05 06 07  08 09 0A 0B 0C 0D 0E 0F
      -- -- -- -- -- -- -- --  -- -- -- -- -- -- -- --
0490:    37 73 80 74 80 75 80  76 80 80 F8 FF FF 7F 00   7s.t.u.v.......
```

#### Opcodes

```
  0: 0x0491 [0x37] UPDATE_EVENT_POSITION_AND_DIR: x=-600.128*, z=585.578*, y=0.628*, direction=25.0°*
  1: 0x049A [0x80] LOAD_WAIT(entity=EventEntity)
  2: 0x049F [0x00] END_REQSTACK()
```

### Event 65535.32

#### Metadata

| Field        | Value    |
|--------------|----------|
| Entrypoint   | 0x04A0   |
| Data Size    | 80 bytes |
| Instructions | 18       |

```
      00 01 02 03 04 05 06 07  08 09 0A 0B 0C 0D 0E 0F
      -- -- -- -- -- -- -- --  -- -- -- -- -- -- -- --
04A0: 32 34 80 1F 00 77 80 78  80 79 80 1F 01 1F 00 7A  24...w.x.y.....z
04B0: 80 7B 80 7C 80 1F 01 1F  00 7D 80 7E 80 7F 80 1F  .{.|.....}.~....
04C0: 01 1F 00 80 80 81 80 82  80 1F 01 1C 83 80 4B 98  ..............K.
04D0: A0 0E 01 84 80 1C 85 80  1F 00 86 80 87 80 88 80  ................
04E0: 1F 01 1C 83 80 4B 98 A0  0E 01 89 80 1C 83 80 00  .....K..........
```

#### Opcodes

```
  0: 0x04A0 [0x32] ExtData[1]->MainSpeed = 15* * 0.1
  1: 0x04A3 [0x1F] MOVE_ENTITY: EventEntity moves to X=-601.910*, Z=587.743*, Y=0.274*
  2: 0x04AB [0x1F] MOVE_ENTITY: Update entity position (mode=1)
  3: 0x04AD [0x1F] MOVE_ENTITY: EventEntity moves to X=-600.199*, Z=588.994*, Y=0.347*
  4: 0x04B5 [0x1F] MOVE_ENTITY: Update entity position (mode=1)
  5: 0x04B7 [0x1F] MOVE_ENTITY: EventEntity moves to X=-599.211*, Z=586.089*, Y=0.586*
  6: 0x04BF [0x1F] MOVE_ENTITY: Update entity position (mode=1)
  7: 0x04C1 [0x1F] MOVE_ENTITY: EventEntity moves to X=-599.391*, Z=583.375*, Y=0.830*
  8: 0x04C9 [0x1F] MOVE_ENTITY: Update entity position (mode=1)
  9: 0x04CB [0x1C] WAIT(30* ticks)
 10: 0x04CE [0x4B] UPDATE_ENTITY_YAW(entity=Unnamed NPC (ID: 17735832/0x010EA098), yaw=17.4°*)
 11: 0x04D5 [0x1C] WAIT(120* ticks)
 12: 0x04D8 [0x1F] MOVE_ENTITY: EventEntity moves to X=-602.007*, Z=587.764*, Y=0.268*
 13: 0x04E0 [0x1F] MOVE_ENTITY: Update entity position (mode=1)
 14: 0x04E2 [0x1C] WAIT(30* ticks)
 15: 0x04E5 [0x4B] UPDATE_ENTITY_YAW(entity=Unnamed NPC (ID: 17735832/0x010EA098), yaw=1.9°*)
 16: 0x04EC [0x1C] WAIT(30* ticks)
 17: 0x04EF [0x00] END_REQSTACK()
```

### Event 65535.33

#### Metadata

| Field        | Value    |
|--------------|----------|
| Entrypoint   | 0x04F0   |
| Data Size    | 67 bytes |
| Instructions | 15       |

```
      00 01 02 03 04 05 06 07  08 09 0A 0B 0C 0D 0E 0F
      -- -- -- -- -- -- -- --  -- -- -- -- -- -- -- --
04F0: 32 8A 80 1F 00 8B 80 8C  80 8D 80 1F 01 4B 98 A0  2............K..
0500: 0E 01 8E 80 1C 6F 80 1F  00 8F 80 90 80 91 80 1F  .....o..........
0510: 01 4B 98 A0 0E 01 92 80  1C 93 80 1F 00 94 80 95  .K..............
0520: 80 96 80 1F 01 1C 83 80  4B 98 A0 0E 01 97 80 1C  ........K.......
0530: 6F 80 00                                          o..             
```

#### Opcodes

```
  0: 0x04F0 [0x32] ExtData[1]->MainSpeed = 45* * 0.1
  1: 0x04F3 [0x1F] MOVE_ENTITY: EventEntity moves to X=-599.295*, Z=590.678*, Y=0.264*
  2: 0x04FB [0x1F] MOVE_ENTITY: Update entity position (mode=1)
  3: 0x04FD [0x4B] UPDATE_ENTITY_YAW(entity=Unnamed NPC (ID: 17735832/0x010EA098), yaw=5.3°*)
  4: 0x0504 [0x1C] WAIT(60* ticks)
  5: 0x0507 [0x1F] MOVE_ENTITY: EventEntity moves to X=-604.353*, Z=586.292*, Y=0.138*
  6: 0x050F [0x1F] MOVE_ENTITY: Update entity position (mode=1)
  7: 0x0511 [0x4B] UPDATE_ENTITY_YAW(entity=Unnamed NPC (ID: 17735832/0x010EA098), yaw=0.2°*)
  8: 0x0518 [0x1C] WAIT(240* ticks)
  9: 0x051B [0x1F] MOVE_ENTITY: EventEntity moves to X=-600.328*, Z=582.410*, Y=0.802*
 10: 0x0523 [0x1F] MOVE_ENTITY: Update entity position (mode=1)
 11: 0x0525 [0x1C] WAIT(30* ticks)
 12: 0x0528 [0x4B] UPDATE_ENTITY_YAW(entity=Unnamed NPC (ID: 17735832/0x010EA098), yaw=16.6°*)
 13: 0x052F [0x1C] WAIT(60* ticks)
 14: 0x0532 [0x00] END_REQSTACK()
```

### Event 65535.34

#### Metadata

| Field        | Value    |
|--------------|----------|
| Entrypoint   | 0x0533   |
| Data Size    | 14 bytes |
| Instructions | 4        |

```
      00 01 02 03 04 05 06 07  08 09 0A 0B 0C 0D 0E 0F
      -- -- -- -- -- -- -- --  -- -- -- -- -- -- -- --
0530:          32 8A 80 1F 00  98 80 99 80 9A 80 1F 01     2............
0540: 00                                                .               
```

#### Opcodes

```
  0: 0x0533 [0x32] ExtData[1]->MainSpeed = 45* * 0.1
  1: 0x0536 [0x1F] MOVE_ENTITY: EventEntity moves to X=-599.148*, Z=589.043*, Y=0.345*
  2: 0x053E [0x1F] MOVE_ENTITY: Update entity position (mode=1)
  3: 0x0540 [0x00] END_REQSTACK()
```

### Event 65535.35

#### Metadata

| Field        | Value    |
|--------------|----------|
| Entrypoint   | 0x0541   |
| Data Size    | 51 bytes |
| Instructions | 11       |

```
      00 01 02 03 04 05 06 07  08 09 0A 0B 0C 0D 0E 0F
      -- -- -- -- -- -- -- --  -- -- -- -- -- -- -- --
0540:    32 8A 80 1F 00 9B 80  9C 80 9D 80 1F 01 1F 00   2..............
0550: 9E 80 9F 80 A0 80 1F 01  1F 00 A1 80 A2 80 A3 80  ................
0560: 1F 01 1E 97 A0 0E 01 1C  83 80 4A 97 A0 0E 01 98  ..........J.....
0570: A0 0E 01 00                                       ....            
```

#### Opcodes

```
  0: 0x0541 [0x32] ExtData[1]->MainSpeed = 45* * 0.1
  1: 0x0544 [0x1F] MOVE_ENTITY: EventEntity moves to X=-604.257*, Z=586.573*, Y=0.057*
  2: 0x054C [0x1F] MOVE_ENTITY: Update entity position (mode=1)
  3: 0x054E [0x1F] MOVE_ENTITY: EventEntity moves to X=-603.318*, Z=588.527*, Y=0.196*
  4: 0x0556 [0x1F] MOVE_ENTITY: Update entity position (mode=1)
  5: 0x0558 [0x1F] MOVE_ENTITY: EventEntity moves to X=-601.495*, Z=586.040*, Y=0.496*
  6: 0x0560 [0x1F] MOVE_ENTITY: Update entity position (mode=1)
  7: 0x0562 [0x1E] EventEntity looks at Unnamed NPC (ID: 17735831/0x010EA097) and starts talking
  8: 0x0567 [0x1C] WAIT(30* ticks)
  9: 0x056A [0x4A] Unnamed NPC (ID: 17735831/0x010EA097) looks at Unnamed NPC (ID: 17735832/0x010EA098)
 10: 0x0573 [0x00] END_REQSTACK()
```

### Event 65535.36

#### Metadata

| Field        | Value    |
|--------------|----------|
| Entrypoint   | 0x0574   |
| Data Size    | 15 bytes |
| Instructions | 3        |

```
      00 01 02 03 04 05 06 07  08 09 0A 0B 0C 0D 0E 0F
      -- -- -- -- -- -- -- --  -- -- -- -- -- -- -- --
0570:             37 86 80 87  80 88 80 76 80 80 F8 FF      7......v....
0580: FF 7F 00                                          ...             
```

#### Opcodes

```
  0: 0x0574 [0x37] UPDATE_EVENT_POSITION_AND_DIR: x=-602.007*, z=587.764*, y=0.268*, direction=25.0°*
  1: 0x057D [0x80] LOAD_WAIT(entity=EventEntity)
  2: 0x0582 [0x00] END_REQSTACK()
```

### Event 65535.37

#### Metadata

| Field        | Value    |
|--------------|----------|
| Entrypoint   | 0x0583   |
| Data Size    | 69 bytes |
| Instructions | 15       |

```
      00 01 02 03 04 05 06 07  08 09 0A 0B 0C 0D 0E 0F
      -- -- -- -- -- -- -- --  -- -- -- -- -- -- -- --
0580:          32 8A 80 1F 00  A4 80 A5 80 A6 80 1F 01     2............
0590: 1F 00 A7 80 A8 80 A9 80  1F 01 1F 00 AA 80 AB 80  ................
05A0: 2F 80 1F 01 1F 00 AC 80  AD 80 AE 80 1F 01 1F 00  /...............
05B0: AF 80 B0 80 B1 80 1F 01  1F 00 B2 80 B3 80 B4 80  ................
05C0: 1F 01 1E 97 A0 0E 01 00                           ........        
```

#### Opcodes

```
  0: 0x0583 [0x32] ExtData[1]->MainSpeed = 45* * 0.1
  1: 0x0586 [0x1F] MOVE_ENTITY: EventEntity moves to X=-602.454*, Z=588.333*, Y=0.247*
  2: 0x058E [0x1F] MOVE_ENTITY: Update entity position (mode=1)
  3: 0x0590 [0x1F] MOVE_ENTITY: EventEntity moves to X=-603.634*, Z=585.657*, Y=0.144*
  4: 0x0598 [0x1F] MOVE_ENTITY: Update entity position (mode=1)
  5: 0x059A [0x1F] MOVE_ENTITY: EventEntity moves to X=-602.421*, Z=582.680*, Y=0.396*
  6: 0x05A2 [0x1F] MOVE_ENTITY: Update entity position (mode=1)
  7: 0x05A4 [0x1F] MOVE_ENTITY: EventEntity moves to X=-599.175*, Z=582.899*, Y=0.854*
  8: 0x05AC [0x1F] MOVE_ENTITY: Update entity position (mode=1)
  9: 0x05AE [0x1F] MOVE_ENTITY: EventEntity moves to X=-598.432*, Z=587.737*, Y=0.410*
 10: 0x05B6 [0x1F] MOVE_ENTITY: Update entity position (mode=1)
 11: 0x05B8 [0x1F] MOVE_ENTITY: EventEntity moves to X=-599.890*, Z=589.432*, Y=0.326*
 12: 0x05C0 [0x1F] MOVE_ENTITY: Update entity position (mode=1)
 13: 0x05C2 [0x1E] EventEntity looks at Unnamed NPC (ID: 17735831/0x010EA097) and starts talking
 14: 0x05C7 [0x00] END_REQSTACK()
```
