# 17735732 - Quelle

## Common Data

| Field            | Value                  |
|------------------|------------------------|
| Zone             | Bastok Mines (ID: 234) |
| Block Size       | 568 bytes              |
| Total Events     | 7                      |
| References Count | 34                     |

## List of Events

| Event ID                 | Entrypoint   |   Size |   Instructions |
|--------------------------|--------------|--------|----------------|
| [65535](#event-65535)    | 0x0000       |      1 |              1 |
| [63](#event-63)          | 0x0001       |    349 |             71 |
| [66](#event-66)          | 0x015E       |     16 |              6 |
| [245](#event-245)        | 0x016E       |      1 |              1 |
| [247](#event-247)        | 0x016F       |      1 |              1 |
| [65535.1](#event-655351) | 0x0170       |     10 |              2 |
| [65535.2](#event-655352) | 0x017A       |     10 |              2 |

## DAT References (imed_data)

|   Index | Hex Value   |   Dec Value |
|---------|-------------|-------------|
|       0 | 0xFFFFFFFD  |  4294967293 |
|       1 | 0x0003      |           3 |
|       2 | 0x0004      |           4 |
|       3 | 0x1A7E      |        6782 |
|       4 | 0x1A7F      |        6783 |
|       5 | 0x1A80      |        6784 |
|       6 | 0x0000      |           0 |
|       7 | 0x40000000  |  1073741824 |
|       8 | 0x0001      |           1 |
|       9 | 0x1A81      |        6785 |
|      10 | 0xFFFFFFFF  |  4294967295 |
|      11 | 0xFFFFFFFE  |  4294967294 |
|      12 | 0x008A      |         138 |
|      13 | 0x1A79      |        6777 |
|      14 | 0x1A7A      |        6778 |
|      15 | 0x1A7B      |        6779 |
|      16 | 0x1A7C      |        6780 |
|      17 | 0x0020      |          32 |
|      18 | 0x0078      |         120 |
|      19 | 0x003C      |          60 |
|      20 | 0x00C9      |         201 |
|      21 | 0x00C8      |         200 |
|      22 | 0x001E      |          30 |
|      23 | 0x000A      |          10 |
|      24 | 0x1A7D      |        6781 |
|      25 | 0x1A78      |        6776 |
|      26 | 0x9378      |       37752 |
|      27 | 0xFFFE60EB  |  4294861035 |
|      28 | 0x036A      |         874 |
|      29 | 0x0FE8      |        4072 |
|      30 | 0x84CE      |       33998 |
|      31 | 0xFFFE57AF  |  4294858671 |
|      32 | 0x02EE      |         750 |
|      33 | 0x0BE7      |        3047 |

## String References

- **6776**: If you wish to ride a chocobo, you must possess $6 and have a high enough job level.
- **6777**: You can rent a chocobo for $0 gil. I see you currently have $1 gil.
- **6778**: You can rent a chocobo, but because your level is so low, you won't be able to ride for very long. Also, equipment that extends your riding time will have no effect.
- **6779**: If you still want one, it will cost you $0 gil. I see you currently have $1 gil.
- **6780**: Do you wish to rent a chocobo? [Yes, I do./No, thank you.]
- **6781**: You don't have enough gil.
- **6782**: I realize that you are in a hurry, [sir/ma'am]. However, might I make a simple request? One of our associate's chocobos has lost her way and cannot return home.
- **6783**: Would you be so kind as to deliver her to [the Kingdom/the Republic/the Federation/the Duchy/the Duchy/the Duchy/the hidden] stables in [Southern San d'Oria/the Bastok Mines/Windurst Woods/Upper Jeuno/Lower Jeuno/Port Jeuno/Norg]?
- **6784**: Lend a helping hand? [I have better things to do./Of course!]
- **6785**: Oh, thank you so very much! You shall be rewarded by our associates upon delivery of the chocobo.

## Events

### Event 65535

#### Metadata

| Field        | Value   |
|--------------|---------|
| Entrypoint   | 0x0000  |
| Data Size    | 1 bytes |
| Instructions | 1       |

```
      00 01 02 03 04 05 06 07  08 09 0A 0B 0C 0D 0E 0F
      -- -- -- -- -- -- -- --  -- -- -- -- -- -- -- --
0000: 00                                                .               
```

#### Opcodes

```
  0: 0x0000 [0x00] END_REQSTACK()
```

### Event 63

#### Metadata

| Field        | Value     |
|--------------|-----------|
| Entrypoint   | 0x0001    |
| Data Size    | 349 bytes |
| Instructions | 63        |

```
      00 01 02 03 04 05 06 07  08 09 0A 0B 0C 0D 0E 0F
      -- -- -- -- -- -- -- --  -- -- -- -- -- -- -- --
0000:    02 02 10 00 80 00 4F  00 1E F0 FF FF 7F 02 05   ......O........
0010: 10 01 80 00 1B 00 03 05  10 02 80 1D 03 80 23 1D  ..............#.
0020: 04 80 23 24 05 80 06 80  06 80 25 02 00 10 06 80  ..#$......%.....
0030: 00 3D 00 03 01 10 07 80  21 00 01 4F 00 02 00 10  .=......!..O....
0040: 08 80 00 4F 00 1D 09 80  23 01 AB 00 01 4F 00 02  ...O....#....O..
0050: 02 10 0A 80 00 5A 00 01  AB 00 02 02 10 0B 80 00  .....Z..........
0060: 65 00 01 AB 00 03 09 10  0C 80 1E F0 FF FF 7F 2C  e..............,
0070: 31 A0 0E 01 31 A0 0E 01  6B 75 65 30 02 04 10 06  1...1...kue0....
0080: 80 00 8B 00 1D 0D 80 23  01 93 00 1D 0E 80 23 1D  .......#......#.
0090: 0F 80 23 24 10 80 08 80  06 80 25 02 00 10 06 80  ..#$......%.....
00A0: 00 57 01 02 03 10 02 10  04 49 01 46 01 42 27 0A  .W.......I.F.B'.
00B0: F0 FF FF 7F 15 53 31 A0  0E 01 31 A0 0E 01 6B 75  .....S1...1...ku
00C0: 65 30 2C 31 A0 0E 01 31  A0 0E 01 73 69 74 30 5D  e0,1...1...sit0]
00D0: 11 80 12 80 1C 13 80 2A  0A F0 FF FF 7F 45 14 80  .......*.....E..
00E0: F8 FF FF 7F F8 FF FF 7F  63 68 63 6F 06 80 27 0A  ........chco..'.
00F0: F0 FF FF 7F 16 45 15 80  F8 FF FF 7F F8 FF FF 7F  .....E..........
0100: 66 64 6F 30 06 80 1C 16  80 4E 01 31 A0 0E 01 7E  fdo0.....N.1...~
0110: 01 F0 FF FF 7F 7E 02 F0  FF FF 7F 1C 16 80 2A 0A  .....~........*.
0120: F0 FF FF 7F 27 0A F0 FF  FF 7F 17 1C 17 80 45 15  ....'.........E.
0130: 80 F8 FF FF 7F F8 FF FF  7F 66 64 69 30 06 80 2A  .........fdi0..*
0140: 0A F0 FF FF 7F 30 01 52  01 1D 18 80 23 03 01 10  .....0.R....#...
0150: 07 80 21 00 01 5C 01 03  01 10 07 80 21 00        ..!..\......!.  
```

#### Opcodes

```
  0: 0x0001 [0x02] IF !(Work_Zone[2] == 4294967293*) GOTO 0x004F
  1: 0x0009 [0x1E] EventEntity looks at LocalPlayer and starts talking
  2: 0x000E [0x02] IF !(Work_Zone[5] == 3*) GOTO 0x001B
  3: 0x0016 [0x03] Work_Zone[5] = 4*
  4: 0x001B [0x1D] PRINT_EVENT_MESSAGE(message_id=6782*)
    → "I realize that you are in a hurry, [sir/ma'am]. However, might I make a simple request? One of our associate's chocobos has lost her way and cannot return home."
  5: 0x001E [0x23] WAIT_FOR_DIALOG_INTERACTION
  6: 0x001F [0x1D] PRINT_EVENT_MESSAGE(message_id=6783*)
    → "Would you be so kind as to deliver her to [the Kingdom/the Republic/the Federation/the Duchy/the Duchy/the Duchy/the hidden] stables in [Southern San d'Oria/the Bastok Mines/Windurst Woods/Upper Jeuno/Lower Jeuno/Port Jeuno/Norg]?"
  7: 0x0022 [0x23] WAIT_FOR_DIALOG_INTERACTION
  8: 0x0023 [0x24] CREATE_DIALOG(message_id=6784*, default_option=0*, option_flags=0*)
    → "Lend a helping hand? [I have better things to do./Of course!]"
  9: 0x002A [0x25] WAIT_DIALOG_SELECT()
 10: 0x002B [0x02] IF !(Work_Zone[0] == 0*) GOTO 0x003D
 11: 0x0033 [0x03] Work_Zone[1] = 1073741824*
 12: 0x0038 [0x21] END_EVENT
 13: 0x0039 [0x00] END_REQSTACK()

SUBROUTINE_004F:
 14: 0x004F [0x02] IF !(Work_Zone[2] == 4294967295*) GOTO 0x005A
 15: 0x0057 [0x01] GOTO 0x00AB
 16: 0x005A [0x02] IF !(Work_Zone[2] == 4294967294*) GOTO 0x0065
 17: 0x0062 [0x01] GOTO 0x00AB
 18: 0x0065 [0x03] Work_Zone[9] = 138*
 19: 0x006A [0x1E] EventEntity looks at LocalPlayer and starts talking
 20: 0x006F [0x2C] CREATE_SCHEDULER_TASK: Create scheduler "kue0" with entities [Chocobo (ID: 17735729/0x010EA031), Chocobo (ID: 17735729/0x010EA031)]
 21: 0x007C [0x02] IF !(Work_Zone[4] == 0*) GOTO 0x008B
 22: 0x0084 [0x1D] PRINT_EVENT_MESSAGE(message_id=6777*)
    → "You can rent a chocobo for $0 gil. I see you currently have $1 gil."
 23: 0x0087 [0x23] WAIT_FOR_DIALOG_INTERACTION
 24: 0x0088 [0x01] GOTO 0x0093
 25: 0x008B [0x1D] PRINT_EVENT_MESSAGE(message_id=6778*)
    → "You can rent a chocobo, but because your level is so low, you won't be able to ride for very long. Also, equipment that extends your riding time will have no effect."
 26: 0x008E [0x23] WAIT_FOR_DIALOG_INTERACTION
 27: 0x008F [0x1D] PRINT_EVENT_MESSAGE(message_id=6779*)
    → "If you still want one, it will cost you $0 gil. I see you currently have $1 gil."
 28: 0x0092 [0x23] WAIT_FOR_DIALOG_INTERACTION

SUBROUTINE_0093:
 29: 0x0093 [0x24] CREATE_DIALOG(message_id=6780*, default_option=1*, option_flags=0*)
    → "Do you wish to rent a chocobo? [Yes, I do./No, thank you.]"
 30: 0x009A [0x25] WAIT_DIALOG_SELECT()
 31: 0x009B [0x02] IF !(Work_Zone[0] == 0*) GOTO 0x0157
 32: 0x00A3 [0x02] IF !(Work_Zone[3] < Work_Zone[2]) GOTO 0x0149

SUBROUTINE_00AB:
 33: 0x00AB [0x46] CAMERA_CONTROL: Disable user control
 34: 0x00AD [0x42] SET_CLI_EVENT_CANCEL_DATA()
 35: 0x00AE [0x27] REQ_SET(priority=0x0A, entity_id=LocalPlayer, tag_num=0x15)
 36: 0x00B5 [0x53] WAIT_SCHEDULER_TASK: Wait for scheduler "kue0" with entities [Chocobo (ID: 17735729/0x010EA031), Chocobo (ID: 17735729/0x010EA031)]
 37: 0x00C2 [0x2C] CREATE_SCHEDULER_TASK: Create scheduler "sit0" with entities [Chocobo (ID: 17735729/0x010EA031), Chocobo (ID: 17735729/0x010EA031)]
 38: 0x00CF [0x5D] SET_MUSIC_VOLUME(volume=32*, fade_time=120*)
 39: 0x00D4 [0x1C] WAIT(60* ticks)
 40: 0x00D7 [0x2A] GET_REQ_LEVEL(level=10, entity_id=LocalPlayer)
 41: 0x00DD [0x45] LOAD_SCHEDULED_TASK: Load scheduler "chco" with entities [EventEntity, EventEntity], work=[201*, 0*]
 42: 0x00EE [0x27] REQ_SET(priority=0x0A, entity_id=LocalPlayer, tag_num=0x16)
 43: 0x00F5 [0x45] LOAD_SCHEDULED_TASK: Load scheduler "fdo0" with entities [EventEntity, EventEntity], work=[200*, 0*]
 44: 0x0106 [0x1C] WAIT(30* ticks)
 45: 0x0109 [0x4E] SET_ENTITY_HIDE_FLAG: Hide Chocobo (ID: 17735729/0x010EA031)
 46: 0x010F [0x7E] CHOCOBO_MOUNT: Mount chocobo on LocalPlayer (status = 5)
 47: 0x0115 [0x7E] CHOCOBO_MOUNT: Execute attachment function on LocalPlayer
 48: 0x011B [0x1C] WAIT(30* ticks)
 49: 0x011E [0x2A] GET_REQ_LEVEL(level=10, entity_id=LocalPlayer)
 50: 0x0124 [0x27] REQ_SET(priority=0x0A, entity_id=LocalPlayer, tag_num=0x17)
 51: 0x012B [0x1C] WAIT(10* ticks)
 52: 0x012E [0x45] LOAD_SCHEDULED_TASK: Load scheduler "fdi0" with entities [EventEntity, EventEntity], work=[200*, 0*]
 53: 0x013F [0x2A] GET_REQ_LEVEL(level=10, entity_id=LocalPlayer)
 54: 0x0145 [0x30] SET_UCOFF_CONTINUE_ZERO()
 55: 0x0146 [0x01] GOTO 0x0152
 56: 0x0149 [0x1D] PRINT_EVENT_MESSAGE(message_id=6781*)
    → "You don't have enough gil."
 57: 0x014C [0x23] WAIT_FOR_DIALOG_INTERACTION
 58: 0x014D [0x03] Work_Zone[1] = 1073741824*

SUBROUTINE_0152:
 59: 0x0152 [0x21] END_EVENT
 60: 0x0153 [0x00] END_REQSTACK()

SUBROUTINE_015C:
 61: 0x015C [0x21] END_EVENT
 62: 0x015D [0x00] END_REQSTACK()
```

#### Data or dead code:

```
# Dead code (unreachable instructions):
     0x003A [0x01] GOTO 0x004F
     0x004C [0x01] GOTO 0x004F
# Dead code (unreachable instructions):
     0x0154 [0x01] GOTO 0x015C
```

### Event 66

#### Metadata

| Field        | Value    |
|--------------|----------|
| Entrypoint   | 0x015E   |
| Data Size    | 16 bytes |
| Instructions | 6        |

```
      00 01 02 03 04 05 06 07  08 09 0A 0B 0C 0D 0E 0F
      -- -- -- -- -- -- -- --  -- -- -- -- -- -- -- --
0150:                                            03 09                ..
0160: 10 0C 80 1E F0 FF FF 7F  1D 19 80 23 21 00        ...........#!.  
```

#### Opcodes

```
  0: 0x015E [0x03] Work_Zone[9] = 138*
  1: 0x0163 [0x1E] EventEntity looks at LocalPlayer and starts talking
  2: 0x0168 [0x1D] PRINT_EVENT_MESSAGE(message_id=6776*)
    → "If you wish to ride a chocobo, you must possess $6 and have a high enough job level."
  3: 0x016B [0x23] WAIT_FOR_DIALOG_INTERACTION
  4: 0x016C [0x21] END_EVENT
  5: 0x016D [0x00] END_REQSTACK()
```

### Event 245

#### Metadata

| Field        | Value   |
|--------------|---------|
| Entrypoint   | 0x016E  |
| Data Size    | 1 bytes |
| Instructions | 1       |

```
      00 01 02 03 04 05 06 07  08 09 0A 0B 0C 0D 0E 0F
      -- -- -- -- -- -- -- --  -- -- -- -- -- -- -- --
0160:                                            00                   . 
```

#### Opcodes

```
  0: 0x016E [0x00] END_REQSTACK()
```

### Event 247

#### Metadata

| Field        | Value   |
|--------------|---------|
| Entrypoint   | 0x016F  |
| Data Size    | 1 bytes |
| Instructions | 1       |

```
      00 01 02 03 04 05 06 07  08 09 0A 0B 0C 0D 0E 0F
      -- -- -- -- -- -- -- --  -- -- -- -- -- -- -- --
0160:                                               00                 .
```

#### Opcodes

```
  0: 0x016F [0x00] END_REQSTACK()
```

### Event 65535.1

#### Metadata

| Field        | Value    |
|--------------|----------|
| Entrypoint   | 0x0170   |
| Data Size    | 10 bytes |
| Instructions | 2        |

```
      00 01 02 03 04 05 06 07  08 09 0A 0B 0C 0D 0E 0F
      -- -- -- -- -- -- -- --  -- -- -- -- -- -- -- --
0170: 37 1A 80 1B 80 1C 80 1D  80 00                    7.........      
```

#### Opcodes

```
  0: 0x0170 [0x37] UPDATE_EVENT_POSITION_AND_DIR: x=37.752*, z=-106.261*, y=0.874*, direction=357.9°*
  1: 0x0179 [0x00] END_REQSTACK()
```

### Event 65535.2

#### Metadata

| Field        | Value    |
|--------------|----------|
| Entrypoint   | 0x017A   |
| Data Size    | 10 bytes |
| Instructions | 2        |

```
      00 01 02 03 04 05 06 07  08 09 0A 0B 0C 0D 0E 0F
      -- -- -- -- -- -- -- --  -- -- -- -- -- -- -- --
0170:                                37 1E 80 1F 80 20            7.... 
0180: 80 21 80 00                                       .!..            
```

#### Opcodes

```
  0: 0x017A [0x37] UPDATE_EVENT_POSITION_AND_DIR: x=33.998*, z=-108.625*, y=0.750*, direction=267.8°*
  1: 0x0183 [0x00] END_REQSTACK()
```
