# 17735811

## Common Data

| Field            | Value                  |
|------------------|------------------------|
| Zone             | Bastok Mines (ID: 234) |
| Block Size       | 4372 bytes             |
| Total Events     | 5                      |
| References Count | 86                     |

## List of Events

| Event ID              | Entrypoint   |   Size |   Instructions |
|-----------------------|--------------|--------|----------------|
| [65535](#event-65535) | 0x0000       |      1 |              1 |
| [238](#event-238)     | 0x0001       |   2284 |            301 |
| [239](#event-239)     | 0x08ED       |    599 |             86 |
| [241](#event-241)     | 0x0B44       |   1105 |            151 |
| [661](#event-661)     | 0x0F95       |      1 |              1 |

## DAT References (imed_data)

|   Index | Hex Value   |   Dec Value |
|---------|-------------|-------------|
|       0 | 0x0000      |           0 |
|       1 | 0x0078      |         120 |
|       2 | 0x00C8      |         200 |
|       3 | 0x003C      |          60 |
|       4 | 0x0003      |           3 |
|       5 | 0x010D      |         269 |
|       6 | 0x0005      |           5 |
|       7 | 0x007E      |         126 |
|       8 | 0x0006      |           6 |
|       9 | 0x2F3F      |       12095 |
|      10 | 0x001E      |          30 |
|      11 | 0x00E7      |         231 |
|      12 | 0x0800      |        2048 |
|      13 | 0x2F40      |       12096 |
|      14 | 0x2F41      |       12097 |
|      15 | 0x2F42      |       12098 |
|      16 | 0x2F43      |       12099 |
|      17 | 0x2F44      |       12100 |
|      18 | 0x2F45      |       12101 |
|      19 | 0x2F46      |       12102 |
|      20 | 0x2F47      |       12103 |
|      21 | 0x2F48      |       12104 |
|      22 | 0x2F49      |       12105 |
|      23 | 0x2F4A      |       12106 |
|      24 | 0x2F4B      |       12107 |
|      25 | 0x2F4C      |       12108 |
|      26 | 0x2F4D      |       12109 |
|      27 | 0x2F4E      |       12110 |
|      28 | 0x2F4F      |       12111 |
|      29 | 0x2F50      |       12112 |
|      30 | 0x040B      |        1035 |
|      31 | 0x2F51      |       12113 |
|      32 | 0x2F52      |       12114 |
|      33 | 0x2F53      |       12115 |
|      34 | 0x2F54      |       12116 |
|      35 | 0x2F55      |       12117 |
|      36 | 0x2F56      |       12118 |
|      37 | 0x2F57      |       12119 |
|      38 | 0x2F58      |       12120 |
|      39 | 0x2F59      |       12121 |
|      40 | 0x2F5A      |       12122 |
|      41 | 0x2F5B      |       12123 |
|      42 | 0x2F5C      |       12124 |
|      43 | 0x2F5D      |       12125 |
|      44 | 0x2F5E      |       12126 |
|      45 | 0x2F5F      |       12127 |
|      46 | 0x2F60      |       12128 |
|      47 | 0x2F61      |       12129 |
|      48 | 0x2F62      |       12130 |
|      49 | 0x2F63      |       12131 |
|      50 | 0x2F64      |       12132 |
|      51 | 0x0008      |           8 |
|      52 | 0x2F65      |       12133 |
|      53 | 0x00C9      |         201 |
|      54 | 0x0098      |         152 |
|      55 | 0x0064      |         100 |
|      56 | 0x0013      |          19 |
|      57 | 0x010F      |         271 |
|      58 | 0x0019      |          25 |
|      59 | 0x2F66      |       12134 |
|      60 | 0x2F67      |       12135 |
|      61 | 0x2F68      |       12136 |
|      62 | 0x2F69      |       12137 |
|      63 | 0x2F6A      |       12138 |
|      64 | 0x2F6B      |       12139 |
|      65 | 0x2F6C      |       12140 |
|      66 | 0x0001      |           1 |
|      67 | 0x2F6D      |       12141 |
|      68 | 0x2F6E      |       12142 |
|      69 | 0x0002      |           2 |
|      70 | 0x2F70      |       12144 |
|      71 | 0x00EA      |         234 |
|      72 | 0x2F71      |       12145 |
|      73 | 0x2F72      |       12146 |
|      74 | 0x2F73      |       12147 |
|      75 | 0x2F74      |       12148 |
|      76 | 0x2F75      |       12149 |
|      77 | 0x2F76      |       12150 |
|      78 | 0x2F77      |       12151 |
|      79 | 0x2F78      |       12152 |
|      80 | 0x2F79      |       12153 |
|      81 | 0x2F7A      |       12154 |
|      82 | 0x2F7B      |       12155 |
|      83 | 0x2F7C      |       12156 |
|      84 | 0x2F7D      |       12157 |
|      85 | 0x2F7E      |       12158 |

## String References

- **12140**: Are you willing to discover the truth? [Ready and able./I can't handle the truth.]

## Events

### Event 65535

#### Metadata

| Field        | Value   |
|--------------|---------|
| Entrypoint   | 0x0000  |
| Data Size    | 1 bytes |
| Instructions | 1       |

```
      00 01 02 03 04 05 06 07  08 09 0A 0B 0C 0D 0E 0F
      -- -- -- -- -- -- -- --  -- -- -- -- -- -- -- --
0000: 00                                                .               
```

#### Opcodes

```
  0: 0x0000 [0x00] END_REQSTACK()
```

### Event 238

#### Metadata

| Field        | Value      |
|--------------|------------|
| Entrypoint   | 0x0001     |
| Data Size    | 2284 bytes |
| Instructions | 301        |

```
      00 01 02 03 04 05 06 07  08 09 0A 0B 0C 0D 0E 0F
      -- -- -- -- -- -- -- --  -- -- -- -- -- -- -- --
0000:    20 01 42 46 01 5D 00  80 01 80 45 02 80 F8 FF    .BF.]....E....
0010: FF 7F F8 FF FF 7F 66 64  6F 31 00 80 1C 03 80 38  ......fdo1.....8
0020: 04 80 29 08 F0 FF FF 7F  4B 75 00 05 80 75 01 92  ..).....Ku...u..
0030: 01 37 A0 0E 01 29 0B F0  FF FF 7F 4D 29 0B 84 A0  .7...).....M)...
0040: 0E 01 48 4A 37 A0 0E 01  F0 FF FF 7F 4A F0 FF FF  ..HJ7.......J...
0050: 7F 37 A0 0E 01 6F 76 37  A0 0E 01 6F 76 F0 FF FF  .7...ov7...ov...
0060: 7F 4E 00 84 A0 0E 01 80  84 A0 0E 01 02 09 10 06  .N..............
0070: 80 00 88 00 45 07 80 F8  FF FF 7F F8 FF FF 7F 73  ....E..........s
0080: 30 33 39 00 80 01 B5 00  02 09 10 08 80 00 A4 00  039.............
0090: 45 07 80 F8 FF FF 7F F8  FF FF 7F 73 30 33 39 00  E..........s039.
00A0: 80 01 B5 00 45 07 80 F8  FF FF 7F F8 FF FF 7F 73  ....E..........s
00B0: 30 32 33 00 80 45 02 80  F8 FF FF 7F F8 FF FF 7F  023..E..........
00C0: 66 64 69 31 00 80 2B 37  A0 0E 01 09 80 23 29 0B  fdi1..+7.....#).
00D0: 51 A0 0E 01 03 27 0B 84  A0 0E 01 49 1C 0A 80 02  Q....'.....I....
00E0: 09 10 06 80 00 F9 00 52  07 80 F8 FF FF 7F F8 FF  .......R........
00F0: FF 7F 73 30 33 39 01 22  01 02 09 10 08 80 00 13  ..s039."........
0100: 01 52 07 80 F8 FF FF 7F  F8 FF FF 7F 73 30 33 39  .R..........s039
0110: 01 22 01 52 07 80 F8 FF  FF 7F F8 FF FF 7F 73 30  .".R..........s0
0120: 32 33 45 07 80 F8 FF FF  7F F8 FF FF 7F 73 30 32  23E..........s02
0130: 34 00 80 5C 00 0B 80 5C  01 0B 80 79 00 37 A0 0E  4..\...\...y.7..
0140: 01 84 A0 0E 01 79 00 F0  FF FF 7F 84 A0 0E 01 4B  .....y.........K
0150: F0 FF FF 7F 0C 80 2A 0B  84 A0 0E 01 4A F0 FF FF  ......*.....J...
0160: 7F 84 A0 0E 01 27 0B 51  A0 0E 01 04 27 08 84 A0  .....'.Q....'...
0170: 0E 01 30 2B 84 A0 0E 01  0D 80 23 2A 08 84 A0 0E  ..0+......#*....
0180: 01 2A 0B 51 A0 0E 01 29  08 84 A0 0E 01 1D 2B 84  .*.Q...)......+.
0190: A0 0E 01 0E 80 23 29 08  84 A0 0E 01 1E 52 07 80  .....#)......R..
01A0: F8 FF FF 7F F8 FF FF 7F  73 30 32 34 45 07 80 F8  ........s024E...
01B0: FF FF 7F F8 FF FF 7F 73  30 32 35 00 80 79 00 84  .......s025..y..
01C0: A0 0E 01 37 A0 0E 01 4A  37 A0 0E 01 84 A0 0E 01  ...7...J7.......
01D0: 29 0B 84 A0 0E 01 4A 1C  0A 80 29 08 84 A0 0E 01  ).....J...).....
01E0: 0D 2B 84 A0 0E 01 0F 80  23 29 08 84 A0 0E 01 0E  .+......#)......
01F0: 29 08 84 A0 0E 01 01 2B  84 A0 0E 01 10 80 23 29  )......+......#)
0200: 08 84 A0 0E 01 02 6F 76  37 A0 0E 01 52 07 80 F8  ......ov7...R...
0210: FF FF 7F F8 FF FF 7F 73  30 32 35 45 07 80 F8 FF  .......s025E....
0220: FF 7F F8 FF FF 7F 73 30  32 36 00 80 2B 37 A0 0E  ......s026..+7..
0230: 01 11 80 23 27 0B 84 A0  0E 01 4B 2B 84 A0 0E 01  ...#'.....K+....
0240: 12 80 23 2A 0B 84 A0 0E  01 4A F0 FF FF 7F 84 A0  ..#*.....J......
0250: 0E 01 6F 76 F0 FF FF 7F  52 07 80 F8 FF FF 7F F8  ..ov....R.......
0260: FF FF 7F 73 30 32 36 02  09 10 06 80 00 83 02 45  ...s026........E
0270: 07 80 F8 FF FF 7F F8 FF  FF 7F 73 30 34 30 00 80  ..........s040..
0280: 01 B0 02 02 09 10 08 80  00 9F 02 45 07 80 F8 FF  ...........E....
0290: FF 7F F8 FF FF 7F 73 30  34 30 00 80 01 B0 02 45  ......s040.....E
02A0: 07 80 F8 FF FF 7F F8 FF  FF 7F 73 30 32 37 00 80  ..........s027..
02B0: 79 00 F0 FF FF 7F 37 A0  0E 01 7B 37 A0 0E 01 2B  y.....7...{7...+
02C0: 37 A0 0E 01 13 80 23 02  09 10 06 80 00 E1 02 52  7.....#........R
02D0: 07 80 F8 FF FF 7F F8 FF  FF 7F 73 30 34 30 01 0A  ..........s040..
02E0: 03 02 09 10 08 80 00 FB  02 52 07 80 F8 FF FF 7F  .........R......
02F0: F8 FF FF 7F 73 30 34 30  01 0A 03 52 07 80 F8 FF  ....s040...R....
0300: FF 7F F8 FF FF 7F 73 30  32 37 02 09 10 06 80 00  ......s027......
0310: 26 03 45 07 80 F8 FF FF  7F F8 FF FF 7F 73 30 34  &.E..........s04
0320: 31 00 80 01 53 03 02 09  10 08 80 00 42 03 45 07  1...S.......B.E.
0330: 80 F8 FF FF 7F F8 FF FF  7F 73 30 34 31 00 80 01  .........s041...
0340: 53 03 45 07 80 F8 FF FF  7F F8 FF FF 7F 73 30 32  S.E..........s02
0350: 38 00 80 4A 84 A0 0E 01  37 A0 0E 01 6F 76 84 A0  8..J....7...ov..
0360: 0E 01 2B 84 A0 0E 01 14  80 23 02 09 10 06 80 00  ..+......#......
0370: 84 03 52 07 80 F8 FF FF  7F F8 FF FF 7F 73 30 34  ..R..........s04
0380: 31 01 AD 03 02 09 10 08  80 00 9E 03 52 07 80 F8  1...........R...
0390: FF FF 7F F8 FF FF 7F 73  30 34 31 01 AD 03 52 07  .......s041...R.
03A0: 80 F8 FF FF 7F F8 FF FF  7F 73 30 32 38 45 02 80  .........s028E..
03B0: F0 FF FF 7F F0 FF FF 7F  6F 76 6C 31 00 80 45 07  ........ovl1..E.
03C0: 80 F8 FF FF 7F F8 FF FF  7F 73 30 32 39 00 80 79  .........s029..y
03D0: 00 37 A0 0E 01 84 A0 0E  01 2B 37 A0 0E 01 15 80  .7.......+7.....
03E0: 23 2B 37 A0 0E 01 16 80  23 52 07 80 F8 FF FF 7F  #+7.....#R......
03F0: F8 FF FF 7F 73 30 32 39  45 07 80 F8 FF FF 7F F8  ....s029E.......
0400: FF FF 7F 73 30 33 30 00  80 79 00 F0 FF FF 7F 84  ...s030..y......
0410: A0 0E 01 29 08 84 A0 0E  01 07 2B 84 A0 0E 01 17  ...)......+.....
0420: 80 23 29 08 84 A0 0E 01  08 52 07 80 F8 FF FF 7F  .#)......R......
0430: F8 FF FF 7F 73 30 33 30  45 07 80 F8 FF FF 7F F8  ....s030E.......
0440: FF FF 7F 73 30 33 31 00  80 7B 37 A0 0E 01 79 00  ...s031..{7...y.
0450: F0 FF FF 7F 37 A0 0E 01  2B 37 A0 0E 01 18 80 23  ....7...+7.....#
0460: 2B 37 A0 0E 01 19 80 23  79 00 F0 FF FF 7F 84 A0  +7.....#y.......
0470: 0E 01 29 08 84 A0 0E 01  03 2B 84 A0 0E 01 1A 80  ..)......+......
0480: 23 29 08 84 A0 0E 01 04  52 07 80 F8 FF FF 7F F8  #)......R.......
0490: FF FF 7F 73 30 33 31 45  07 80 F8 FF FF 7F F8 FF  ...s031E........
04A0: FF 7F 73 30 33 34 00 80  4A 37 A0 0E 01 84 A0 0E  ..s034..J7......
04B0: 01 29 08 84 A0 0E 01 05  2B 84 A0 0E 01 1B 80 23  .)......+......#
04C0: 29 08 84 A0 0E 01 06 29  08 84 A0 0E 01 01 2B 84  )......)......+.
04D0: A0 0E 01 1C 80 23 29 08  84 A0 0E 01 02 7B 37 A0  .....#)......{7.
04E0: 0E 01 2B 37 A0 0E 01 1D  80 23 52 07 80 F8 FF FF  ..+7.....#R.....
04F0: 7F F8 FF FF 7F 73 30 33  34 45 07 80 F8 FF FF 7F  .....s034E......
0500: F8 FF FF 7F 73 30 33 33  00 80 4B 37 A0 0E 01 1E  ....s033..K7....
0510: 80 6F 76 37 A0 0E 01 2B  37 A0 0E 01 1F 80 23 2B  .ov7...+7.....#+
0520: 37 A0 0E 01 20 80 23 52  07 80 F8 FF FF 7F F8 FF  7... .#R........
0530: FF 7F 73 30 33 33 45 07  80 F8 FF FF 7F F8 FF FF  ..s033E.........
0540: 7F 73 30 33 32 00 80 2B  37 A0 0E 01 21 80 23 29  .s032..+7...!.#)
0550: 08 84 A0 0E 01 07 2B 84  A0 0E 01 22 80 23 29 08  ......+....".#).
0560: 84 A0 0E 01 08 27 08 84  A0 0E 01 30 2B 84 A0 0E  .....'.....0+...
0570: 01 23 80 23 2A 08 84 A0  0E 01 52 07 80 F8 FF FF  .#.#*.....R.....
0580: 7F F8 FF FF 7F 73 30 33  32 45 07 80 F8 FF FF 7F  .....s032E......
0590: F8 FF FF 7F 73 30 33 35  00 80 2B 37 A0 0E 01 24  ....s035..+7...$
05A0: 80 23 2B 37 A0 0E 01 25  80 23 29 08 84 A0 0E 01  .#+7...%.#).....
05B0: 01 2B 84 A0 0E 01 26 80  23 29 08 84 A0 0E 01 02  .+....&.#)......
05C0: 52 07 80 F8 FF FF 7F F8  FF FF 7F 73 30 33 35 45  R..........s035E
05D0: 07 80 F8 FF FF 7F F8 FF  FF 7F 73 30 32 39 00 80  ..........s029..
05E0: 4A 37 A0 0E 01 84 A0 0E  01 6F 76 37 A0 0E 01 2B  J7.......ov7...+
05F0: 37 A0 0E 01 27 80 23 52  07 80 F8 FF FF 7F F8 FF  7...'.#R........
0600: FF 7F 73 30 32 39 02 09  10 06 80 00 22 06 45 07  ..s029......".E.
0610: 80 F8 FF FF 7F F8 FF FF  7F 73 30 34 31 00 80 01  .........s041...
0620: 4F 06 02 09 10 08 80 00  3E 06 45 07 80 F8 FF FF  O.......>.E.....
0630: 7F F8 FF FF 7F 73 30 34  31 00 80 01 4F 06 45 07  .....s041...O.E.
0640: 80 F8 FF FF 7F F8 FF FF  7F 73 30 32 38 00 80 2B  .........s028..+
0650: 84 A0 0E 01 28 80 23 2B  37 A0 0E 01 29 80 23 02  ....(.#+7...).#.
0660: 09 10 06 80 00 79 06 52  07 80 F8 FF FF 7F F8 FF  .....y.R........
0670: FF 7F 73 30 34 31 01 A2  06 02 09 10 08 80 00 93  ..s041..........
0680: 06 52 07 80 F8 FF FF 7F  F8 FF FF 7F 73 30 34 31  .R..........s041
0690: 01 A2 06 52 07 80 F8 FF  FF 7F F8 FF FF 7F 73 30  ...R..........s0
06A0: 32 38 45 07 80 F8 FF FF  7F F8 FF FF 7F 73 30 33  28E..........s03
06B0: 30 00 80 29 08 84 A0 0E  01 01 2B 84 A0 0E 01 2A  0..)......+....*
06C0: 80 23 29 08 84 A0 0E 01  02 2B 37 A0 0E 01 2B 80  .#)......+7...+.
06D0: 23 52 07 80 F8 FF FF 7F  F8 FF FF 7F 73 30 33 30  #R..........s030
06E0: 45 07 80 F8 FF FF 7F F8  FF FF 7F 73 30 33 35 00  E..........s035.
06F0: 80 2B 37 A0 0E 01 2C 80  23 29 08 84 A0 0E 01 09  .+7...,.#)......
0700: 2B 84 A0 0E 01 2D 80 23  29 08 84 A0 0E 01 0A 2B  +....-.#)......+
0710: 37 A0 0E 01 2E 80 23 52  07 80 F8 FF FF 7F F8 FF  7.....#R........
0720: FF 7F 73 30 33 35 45 07  80 F8 FF FF 7F F8 FF FF  ..s035E.........
0730: 7F 73 30 33 36 00 80 7B  84 A0 0E 01 27 0B 84 A0  .s036..{....'...
0740: 0E 01 4C 2B 84 A0 0E 01  2F 80 23 2A 0B 84 A0 0E  ..L+..../.#*....
0750: 01 29 08 84 A0 0E 01 13  2B 84 A0 0E 01 30 80 23  .)......+....0.#
0760: 29 08 84 A0 0E 01 14 52  07 80 F8 FF FF 7F F8 FF  )......R........
0770: FF 7F 73 30 33 36 45 07  80 F8 FF FF 7F F8 FF FF  ..s036E.........
0780: 7F 73 30 33 37 00 80 4B  84 A0 0E 01 00 80 6F 76  .s037..K......ov
0790: 84 A0 0E 01 29 08 84 A0  0E 01 03 2B 84 A0 0E 01  ....)......+....
07A0: 31 80 23 29 08 84 A0 0E  01 04 29 08 84 A0 0E 01  1.#)......).....
07B0: 05 2B 84 A0 0E 01 32 80  23 29 08 84 A0 0E 01 06  .+....2.#)......
07C0: 52 07 80 F8 FF FF 7F F8  FF FF 7F 73 30 33 37 02  R..........s037.
07D0: 09 10 06 80 00 EB 07 45  07 80 F8 FF FF 7F F8 FF  .......E........
07E0: FF 7F 73 30 34 32 00 80  01 18 08 02 09 10 08 80  ..s042..........
07F0: 00 07 08 45 07 80 F8 FF  FF 7F F8 FF FF 7F 73 30  ...E..........s0
0800: 34 32 00 80 01 18 08 45  07 80 F8 FF FF 7F F8 FF  42.....E........
0810: FF 7F 73 30 33 38 00 80  79 00 84 A0 0E 01 F0 FF  ..s038..y.......
0820: FF 7F 29 0B 84 A0 0E 01  4D 02 09 10 33 80 00 34  ..).....M...3..4
0830: 08 01 3D 08 4A F0 FF FF  7F 84 A0 0E 01 29 08 84  ..=.J........)..
0840: A0 0E 01 0D 2B 84 A0 0E  01 34 80 23 29 08 84 A0  ....+....4.#)...
0850: 0E 01 0E 5D 00 80 01 80  45 02 80 F0 FF FF 7F F0  ...]....E.......
0860: FF FF 7F 66 64 6F 31 00  80 1C 03 80 02 09 10 06  ...fdo1.........
0870: 80 00 86 08 52 07 80 F8  FF FF 7F F8 FF FF 7F 73  ....R..........s
0880: 30 34 32 01 AF 08 02 09  10 08 80 00 A0 08 52 07  042...........R.
0890: 80 F8 FF FF 7F F8 FF FF  7F 73 30 34 32 01 AF 08  .........s042...
08A0: 52 07 80 F8 FF FF 7F F8  FF FF 7F 73 30 33 38 45  R..........s038E
08B0: 35 80 F0 FF FF 7F F0 FF  FF 7F 71 73 74 63 00 80  5.........qstc..
08C0: 5C 00 36 80 5C 01 36 80  1C 37 80 4E 00 F0 FF FF  \.6.\.6..7.N....
08D0: 7F 80 F0 FF FF 7F 46 00  45 02 80 F0 FF FF 7F F0  ......F.E.......
08E0: FF FF 7F 66 64 69 31 00  80 20 00 21 00           ...fdi1.. .!.   
```

#### Opcodes

```
  0: 0x0001 [0x20] SET_CLI_EVENT_UC_FLAG: Lock player control
  1: 0x0003 [0x42] SET_CLI_EVENT_CANCEL_DATA()
  2: 0x0004 [0x46] CAMERA_CONTROL: Disable user control
  3: 0x0006 [0x5D] SET_MUSIC_VOLUME(volume=0*, fade_time=120*)
  4: 0x000B [0x45] LOAD_SCHEDULED_TASK: Load scheduler "fdo1" with entities [EventEntity, EventEntity], work=[200*, 0*]
  5: 0x001C [0x1C] WAIT(60* ticks)
  6: 0x001F [0x38] SET_CLIENT_EVENT_MODE(mode=3*)
  7: 0x0022 [0x29] REQ_SET_WAIT(priority=0x08, entity_id=LocalPlayer, tag_num=0x4B)
  8: 0x0029 [0x75] LOAD_ROOM(Load indoor room, room=269*)
  9: 0x002D [0x75] LOAD_ROOM(No action)
 10: 0x002F [0x92] Pavvke (ID: 17735735/0x010EA037)->Render.Flags3 ^= 0x01
 11: 0x0035 [0x29] REQ_SET_WAIT(priority=0x0B, entity_id=LocalPlayer, tag_num=0x4D)
 12: 0x003C [0x29] REQ_SET_WAIT(priority=0x0B, entity_id=Ravorara (ID: 17735812/0x010EA084), tag_num=0x48)
 13: 0x0043 [0x4A] Pavvke (ID: 17735735/0x010EA037) looks at LocalPlayer
 14: 0x004C [0x4A] LocalPlayer looks at Pavvke (ID: 17735735/0x010EA037)
 15: 0x0055 [0x6F] WAIT_FRAME_DELAY: Yield until WaitTime reaches zero
 16: 0x0056 [0x76] CHECK_ENTITY_RENDER_FLAGS: Wait until Pavvke (ID: 17735735/0x010EA037) Render.Flags0 and Render.Flags3 conditions are met
 17: 0x005B [0x6F] WAIT_FRAME_DELAY: Yield until WaitTime reaches zero
 18: 0x005C [0x76] CHECK_ENTITY_RENDER_FLAGS: Wait until LocalPlayer Render.Flags0 and Render.Flags3 conditions are met
 19: 0x0061 [0x4E] SET_ENTITY_HIDE_FLAG: Show Ravorara (ID: 17735812/0x010EA084)
 20: 0x0067 [0x80] LOAD_WAIT(entity=Ravorara (ID: 17735812/0x010EA084))
 21: 0x006C [0x02] IF !(Work_Zone[9] == 5*) GOTO 0x0088
 22: 0x0074 [0x45] LOAD_SCHEDULED_TASK: Load scheduler "s039" with entities [EventEntity, EventEntity], work=[126*, 0*]
 23: 0x0085 [0x01] GOTO 0x00B5
 24: 0x0088 [0x02] IF !(Work_Zone[9] == 6*) GOTO 0x00A4
 25: 0x0090 [0x45] LOAD_SCHEDULED_TASK: Load scheduler "s039" with entities [EventEntity, EventEntity], work=[126*, 0*]
 26: 0x00A1 [0x01] GOTO 0x00B5
 27: 0x00A4 [0x45] LOAD_SCHEDULED_TASK: Load scheduler "s023" with entities [EventEntity, EventEntity], work=[126*, 0*]

SUBROUTINE_00B5:
 28: 0x00B5 [0x45] LOAD_SCHEDULED_TASK: Load scheduler "fdi1" with entities [EventEntity, EventEntity], work=[200*, 0*]
 29: 0x00C6 [0x2B] Pavvke (ID: 17735735/0x010EA037) [12095*]:
    → "What's this? You say you found my old name tag?"
 30: 0x00CD [0x23] WAIT_FOR_DIALOG_INTERACTION
 31: 0x00CE [0x29] REQ_SET_WAIT(priority=0x0B, entity_id=Door:House (ID: 17735761/0x010EA051), tag_num=0x03)
 32: 0x00D5 [0x27] REQ_SET(priority=0x0B, entity_id=Ravorara (ID: 17735812/0x010EA084), tag_num=0x49)
 33: 0x00DC [0x1C] WAIT(30* ticks)
 34: 0x00DF [0x02] IF !(Work_Zone[9] == 5*) GOTO 0x00F9
 35: 0x00E7 [0x52] END_LOAD_SCHEDULER: End scheduler "s039" with entities [EventEntity, EventEntity], work=126*
 36: 0x00F6 [0x01] GOTO 0x0122
 37: 0x00F9 [0x02] IF !(Work_Zone[9] == 6*) GOTO 0x0113
 38: 0x0101 [0x52] END_LOAD_SCHEDULER: End scheduler "s039" with entities [EventEntity, EventEntity], work=126*
 39: 0x0110 [0x01] GOTO 0x0122
 40: 0x0113 [0x52] END_LOAD_SCHEDULER: End scheduler "s023" with entities [EventEntity, EventEntity], work=126*

SUBROUTINE_0122:
 41: 0x0122 [0x45] LOAD_SCHEDULED_TASK: Load scheduler "s024" with entities [EventEntity, EventEntity], work=[126*, 0*]
 42: 0x0133 [0x5C] MUSIC_CONTROL: Set Idle (Day) music to song 231*
 43: 0x0137 [0x5C] MUSIC_CONTROL: Set Idle (Night) music to song 231*
 44: 0x013B [0x79] Pavvke (ID: 17735735/0x010EA037) looks at Ravorara (ID: 17735812/0x010EA084) (Basic look)
 45: 0x0145 [0x79] LocalPlayer looks at Ravorara (ID: 17735812/0x010EA084) (Basic look)
 46: 0x014F [0x4B] UPDATE_ENTITY_YAW(entity=LocalPlayer, yaw=11.2°*)
 47: 0x0156 [0x2A] GET_REQ_LEVEL(level=11, entity_id=Ravorara (ID: 17735812/0x010EA084))
 48: 0x015C [0x4A] LocalPlayer looks at Ravorara (ID: 17735812/0x010EA084)
 49: 0x0165 [0x27] REQ_SET(priority=0x0B, entity_id=Door:House (ID: 17735761/0x010EA051), tag_num=0x04)
 50: 0x016C [0x27] REQ_SET(priority=0x08, entity_id=Ravorara (ID: 17735812/0x010EA084), tag_num=0x30)
 51: 0x0173 [0x2B] Ravorara (ID: 17735812/0x010EA084) [12096*]:
    → "<Puff...huff...> Just a...moment...adventurer..."
 52: 0x017A [0x23] WAIT_FOR_DIALOG_INTERACTION
 53: 0x017B [0x2A] GET_REQ_LEVEL(level=8, entity_id=Ravorara (ID: 17735812/0x010EA084))
 54: 0x0181 [0x2A] GET_REQ_LEVEL(level=11, entity_id=Door:House (ID: 17735761/0x010EA051))
 55: 0x0187 [0x29] REQ_SET_WAIT(priority=0x08, entity_id=Ravorara (ID: 17735812/0x010EA084), tag_num=0x1D)
 56: 0x018E [0x2B] Ravorara (ID: 17735812/0x010EA084) [12097*]:
    → "What's the meaning of desertifying me like that?"
 57: 0x0195 [0x23] WAIT_FOR_DIALOG_INTERACTION
 58: 0x0196 [0x29] REQ_SET_WAIT(priority=0x08, entity_id=Ravorara (ID: 17735812/0x010EA084), tag_num=0x1E)
 59: 0x019D [0x52] END_LOAD_SCHEDULER: End scheduler "s024" with entities [EventEntity, EventEntity], work=126*
 60: 0x01AC [0x45] LOAD_SCHEDULED_TASK: Load scheduler "s025" with entities [EventEntity, EventEntity], work=[126*, 0*]
 61: 0x01BD [0x79] Ravorara (ID: 17735812/0x010EA084) looks at Pavvke (ID: 17735735/0x010EA037) (Basic look)
 62: 0x01C7 [0x4A] Pavvke (ID: 17735735/0x010EA037) looks at Ravorara (ID: 17735812/0x010EA084)
 63: 0x01D0 [0x29] REQ_SET_WAIT(priority=0x0B, entity_id=Ravorara (ID: 17735812/0x010EA084), tag_num=0x4A)
 64: 0x01D7 [0x1C] WAIT(30* ticks)
 65: 0x01DA [0x29] REQ_SET_WAIT(priority=0x08, entity_id=Ravorara (ID: 17735812/0x010EA084), tag_num=0x0D)
 66: 0x01E1 [0x2B] Ravorara (ID: 17735812/0x010EA084) [12098*]:
    → "If we don't show the tag to Pavuluke, we can't make progress in our investimigation!"
 67: 0x01E8 [0x23] WAIT_FOR_DIALOG_INTERACTION
 68: 0x01E9 [0x29] REQ_SET_WAIT(priority=0x08, entity_id=Ravorara (ID: 17735812/0x010EA084), tag_num=0x0E)
 69: 0x01F0 [0x29] REQ_SET_WAIT(priority=0x08, entity_id=Ravorara (ID: 17735812/0x010EA084), tag_num=0x01)
 70: 0x01F7 [0x2B] Ravorara (ID: 17735812/0x010EA084) [12099*]:
    → "Mister Pavalake! Please take a look at this!"
 71: 0x01FE [0x23] WAIT_FOR_DIALOG_INTERACTION
 72: 0x01FF [0x29] REQ_SET_WAIT(priority=0x08, entity_id=Ravorara (ID: 17735812/0x010EA084), tag_num=0x02)
 73: 0x0206 [0x6F] WAIT_FRAME_DELAY: Yield until WaitTime reaches zero
 74: 0x0207 [0x76] CHECK_ENTITY_RENDER_FLAGS: Wait until Pavvke (ID: 17735735/0x010EA037) Render.Flags0 and Render.Flags3 conditions are met
 75: 0x020C [0x52] END_LOAD_SCHEDULER: End scheduler "s025" with entities [EventEntity, EventEntity], work=126*
 76: 0x021B [0x45] LOAD_SCHEDULED_TASK: Load scheduler "s026" with entities [EventEntity, EventEntity], work=[126*, 0*]
 77: 0x022C [0x2B] Pavvke (ID: 17735735/0x010EA037) [12100*]:
    → "My name is Pavvke... But more importantly, where did you find this?"
 78: 0x0233 [0x23] WAIT_FOR_DIALOG_INTERACTION
 79: 0x0234 [0x27] REQ_SET(priority=0x0B, entity_id=Ravorara (ID: 17735812/0x010EA084), tag_num=0x4B)
 80: 0x023B [0x2B] Ravorara (ID: 17735812/0x010EA084) [12101*]:
    → "Yes, yes, Pavvke, that's what I said. This tag was discoverified in the Moblin settlement that recently appeared in North Gustaberg."
 81: 0x0242 [0x23] WAIT_FOR_DIALOG_INTERACTION
 82: 0x0243 [0x2A] GET_REQ_LEVEL(level=11, entity_id=Ravorara (ID: 17735812/0x010EA084))
 83: 0x0249 [0x4A] LocalPlayer looks at Ravorara (ID: 17735812/0x010EA084)
 84: 0x0252 [0x6F] WAIT_FRAME_DELAY: Yield until WaitTime reaches zero
 85: 0x0253 [0x76] CHECK_ENTITY_RENDER_FLAGS: Wait until LocalPlayer Render.Flags0 and Render.Flags3 conditions are met
 86: 0x0258 [0x52] END_LOAD_SCHEDULER: End scheduler "s026" with entities [EventEntity, EventEntity], work=126*
 87: 0x0267 [0x02] IF !(Work_Zone[9] == 5*) GOTO 0x0283
 88: 0x026F [0x45] LOAD_SCHEDULED_TASK: Load scheduler "s040" with entities [EventEntity, EventEntity], work=[126*, 0*]
 89: 0x0280 [0x01] GOTO 0x02B0
 90: 0x0283 [0x02] IF !(Work_Zone[9] == 6*) GOTO 0x029F
 91: 0x028B [0x45] LOAD_SCHEDULED_TASK: Load scheduler "s040" with entities [EventEntity, EventEntity], work=[126*, 0*]
 92: 0x029C [0x01] GOTO 0x02B0
 93: 0x029F [0x45] LOAD_SCHEDULED_TASK: Load scheduler "s027" with entities [EventEntity, EventEntity], work=[126*, 0*]

SUBROUTINE_02B0:
 94: 0x02B0 [0x79] LocalPlayer looks at Pavvke (ID: 17735735/0x010EA037) (Basic look)
 95: 0x02BA [0x7B] Pavvke (ID: 17735735/0x010EA037) stops talking
 96: 0x02BF [0x2B] Pavvke (ID: 17735735/0x010EA037) [12102*]:
    → "The nomadic town of Movalpolos... Back again, huh?"
 97: 0x02C6 [0x23] WAIT_FOR_DIALOG_INTERACTION
 98: 0x02C7 [0x02] IF !(Work_Zone[9] == 5*) GOTO 0x02E1
 99: 0x02CF [0x52] END_LOAD_SCHEDULER: End scheduler "s040" with entities [EventEntity, EventEntity], work=126*
100: 0x02DE [0x01] GOTO 0x030A
101: 0x02E1 [0x02] IF !(Work_Zone[9] == 6*) GOTO 0x02FB
102: 0x02E9 [0x52] END_LOAD_SCHEDULER: End scheduler "s040" with entities [EventEntity, EventEntity], work=126*
103: 0x02F8 [0x01] GOTO 0x030A
104: 0x02FB [0x52] END_LOAD_SCHEDULER: End scheduler "s027" with entities [EventEntity, EventEntity], work=126*

SUBROUTINE_030A:
105: 0x030A [0x02] IF !(Work_Zone[9] == 5*) GOTO 0x0326
106: 0x0312 [0x45] LOAD_SCHEDULED_TASK: Load scheduler "s041" with entities [EventEntity, EventEntity], work=[126*, 0*]
107: 0x0323 [0x01] GOTO 0x0353
108: 0x0326 [0x02] IF !(Work_Zone[9] == 6*) GOTO 0x0342
109: 0x032E [0x45] LOAD_SCHEDULED_TASK: Load scheduler "s041" with entities [EventEntity, EventEntity], work=[126*, 0*]
110: 0x033F [0x01] GOTO 0x0353
111: 0x0342 [0x45] LOAD_SCHEDULED_TASK: Load scheduler "s028" with entities [EventEntity, EventEntity], work=[126*, 0*]

SUBROUTINE_0353:
112: 0x0353 [0x4A] Ravorara (ID: 17735812/0x010EA084) looks at Pavvke (ID: 17735735/0x010EA037)
113: 0x035C [0x6F] WAIT_FRAME_DELAY: Yield until WaitTime reaches zero
114: 0x035D [0x76] CHECK_ENTITY_RENDER_FLAGS: Wait until Ravorara (ID: 17735812/0x010EA084) Render.Flags0 and Render.Flags3 conditions are met
115: 0x0362 [0x2B] Ravorara (ID: 17735812/0x010EA084) [12103*]:
    → "Mo...val...po...los?"
116: 0x0369 [0x23] WAIT_FOR_DIALOG_INTERACTION
117: 0x036A [0x02] IF !(Work_Zone[9] == 5*) GOTO 0x0384
118: 0x0372 [0x52] END_LOAD_SCHEDULER: End scheduler "s041" with entities [EventEntity, EventEntity], work=126*
119: 0x0381 [0x01] GOTO 0x03AD
120: 0x0384 [0x02] IF !(Work_Zone[9] == 6*) GOTO 0x039E
121: 0x038C [0x52] END_LOAD_SCHEDULER: End scheduler "s041" with entities [EventEntity, EventEntity], work=126*
122: 0x039B [0x01] GOTO 0x03AD
123: 0x039E [0x52] END_LOAD_SCHEDULER: End scheduler "s028" with entities [EventEntity, EventEntity], work=126*

SUBROUTINE_03AD:
124: 0x03AD [0x45] LOAD_SCHEDULED_TASK: Load scheduler "ovl1" with entities [LocalPlayer, LocalPlayer], work=[200*, 0*]
125: 0x03BE [0x45] LOAD_SCHEDULED_TASK: Load scheduler "s029" with entities [EventEntity, EventEntity], work=[126*, 0*]
126: 0x03CF [0x79] Pavvke (ID: 17735735/0x010EA037) looks at Ravorara (ID: 17735812/0x010EA084) (Basic look)
127: 0x03D9 [0x2B] Pavvke (ID: 17735735/0x010EA037) [12104*]:
    → "Yes, the Moblins carry this city with them as they tunnel through the earth."
128: 0x03E0 [0x23] WAIT_FOR_DIALOG_INTERACTION
129: 0x03E1 [0x2B] Pavvke (ID: 17735735/0x010EA037) [12105*]:
    → "Almost a hundred years ago, our expansion of the Gusgen Mines ran into the tunnels being dug by the Moblins."
130: 0x03E8 [0x23] WAIT_FOR_DIALOG_INTERACTION
131: 0x03E9 [0x52] END_LOAD_SCHEDULER: End scheduler "s029" with entities [EventEntity, EventEntity], work=126*
132: 0x03F8 [0x45] LOAD_SCHEDULED_TASK: Load scheduler "s030" with entities [EventEntity, EventEntity], work=[126*, 0*]
133: 0x0409 [0x79] LocalPlayer looks at Ravorara (ID: 17735812/0x010EA084) (Basic look)
134: 0x0413 [0x29] REQ_SET_WAIT(priority=0x08, entity_id=Ravorara (ID: 17735812/0x010EA084), tag_num=0x07)
135: 0x041A [0x2B] Ravorara (ID: 17735812/0x010EA084) [12106*]:
    → "What!? Why was I never informarized about this!?"
136: 0x0421 [0x23] WAIT_FOR_DIALOG_INTERACTION
137: 0x0422 [0x29] REQ_SET_WAIT(priority=0x08, entity_id=Ravorara (ID: 17735812/0x010EA084), tag_num=0x08)
138: 0x0429 [0x52] END_LOAD_SCHEDULER: End scheduler "s030" with entities [EventEntity, EventEntity], work=126*
139: 0x0438 [0x45] LOAD_SCHEDULED_TASK: Load scheduler "s031" with entities [EventEntity, EventEntity], work=[126*, 0*]
140: 0x0449 [0x7B] Pavvke (ID: 17735735/0x010EA037) stops talking
141: 0x044E [0x79] LocalPlayer looks at Pavvke (ID: 17735735/0x010EA037) (Basic look)
142: 0x0458 [0x2B] Pavvke (ID: 17735735/0x010EA037) [12107*]:
    → "At the time, Bastok was involved with the elimination of Mithran pirates terrorizing the southern seas."
143: 0x045F [0x23] WAIT_FOR_DIALOG_INTERACTION
144: 0x0460 [0x2B] Pavvke (ID: 17735735/0x010EA037) [12108*]:
    → "Hume officials probably know next to nothing about our battle with Movalpolos."
145: 0x0467 [0x23] WAIT_FOR_DIALOG_INTERACTION
146: 0x0468 [0x79] LocalPlayer looks at Ravorara (ID: 17735812/0x010EA084) (Basic look)
147: 0x0472 [0x29] REQ_SET_WAIT(priority=0x08, entity_id=Ravorara (ID: 17735812/0x010EA084), tag_num=0x03)
148: 0x0479 [0x2B] Ravorara (ID: 17735812/0x010EA084) [12109*]:
    → "You must be speaking of the Elshimo Campaign. Windurst was falsely accuserized by the governments of Bastok and Tavnazia..."
149: 0x0480 [0x23] WAIT_FOR_DIALOG_INTERACTION
150: 0x0481 [0x29] REQ_SET_WAIT(priority=0x08, entity_id=Ravorara (ID: 17735812/0x010EA084), tag_num=0x04)
151: 0x0488 [0x52] END_LOAD_SCHEDULER: End scheduler "s031" with entities [EventEntity, EventEntity], work=126*
152: 0x0497 [0x45] LOAD_SCHEDULED_TASK: Load scheduler "s034" with entities [EventEntity, EventEntity], work=[126*, 0*]
153: 0x04A8 [0x4A] Pavvke (ID: 17735735/0x010EA037) looks at Ravorara (ID: 17735812/0x010EA084)
154: 0x04B1 [0x29] REQ_SET_WAIT(priority=0x08, entity_id=Ravorara (ID: 17735812/0x010EA084), tag_num=0x05)
155: 0x04B8 [0x2B] Ravorara (ID: 17735812/0x010EA084) [12110*]:
    → "...Did you just mentionify a battle with the inhabitants of Movalpolos?"
156: 0x04BF [0x23] WAIT_FOR_DIALOG_INTERACTION
157: 0x04C0 [0x29] REQ_SET_WAIT(priority=0x08, entity_id=Ravorara (ID: 17735812/0x010EA084), tag_num=0x06)
158: 0x04C7 [0x29] REQ_SET_WAIT(priority=0x08, entity_id=Ravorara (ID: 17735812/0x010EA084), tag_num=0x01)
159: 0x04CE [0x2B] Ravorara (ID: 17735812/0x010EA084) [12111*]:
    → "Are you telling us that the Moblins started warification on you?"
160: 0x04D5 [0x23] WAIT_FOR_DIALOG_INTERACTION
161: 0x04D6 [0x29] REQ_SET_WAIT(priority=0x08, entity_id=Ravorara (ID: 17735812/0x010EA084), tag_num=0x02)
162: 0x04DD [0x7B] Pavvke (ID: 17735735/0x010EA037) stops talking
163: 0x04E2 [0x2B] Pavvke (ID: 17735735/0x010EA037) [12112*]:
    → "Hmm. The Moblins retreated into their city and only emerged to kidnap people and steal books."
164: 0x04E9 [0x23] WAIT_FOR_DIALOG_INTERACTION
165: 0x04EA [0x52] END_LOAD_SCHEDULER: End scheduler "s034" with entities [EventEntity, EventEntity], work=126*
166: 0x04F9 [0x45] LOAD_SCHEDULED_TASK: Load scheduler "s033" with entities [EventEntity, EventEntity], work=[126*, 0*]
167: 0x050A [0x4B] UPDATE_ENTITY_YAW(entity=Pavvke (ID: 17735735/0x010EA037), yaw=5.7°*)
168: 0x0511 [0x6F] WAIT_FRAME_DELAY: Yield until WaitTime reaches zero
169: 0x0512 [0x76] CHECK_ENTITY_RENDER_FLAGS: Wait until Pavvke (ID: 17735735/0x010EA037) Render.Flags0 and Render.Flags3 conditions are met
170: 0x0517 [0x2B] Pavvke (ID: 17735735/0x010EA037) [12113*]:
    → "However, they weren't attacking us as such. Even the people who were kidnapped were returned unharmed."
171: 0x051E [0x23] WAIT_FOR_DIALOG_INTERACTION
172: 0x051F [0x2B] Pavvke (ID: 17735735/0x010EA037) [12114*]:
    → "Then one Galka decided he would learn the Moblin language and try to reason with them."
173: 0x0526 [0x23] WAIT_FOR_DIALOG_INTERACTION
174: 0x0527 [0x52] END_LOAD_SCHEDULER: End scheduler "s033" with entities [EventEntity, EventEntity], work=126*
175: 0x0536 [0x45] LOAD_SCHEDULED_TASK: Load scheduler "s032" with entities [EventEntity, EventEntity], work=[126*, 0*]
176: 0x0547 [0x2B] Pavvke (ID: 17735735/0x010EA037) [12115*]:
    → "But his attempts ended in failure... The Moblins suddenly became hostile and dangerous."
177: 0x054E [0x23] WAIT_FOR_DIALOG_INTERACTION
178: 0x054F [0x29] REQ_SET_WAIT(priority=0x08, entity_id=Ravorara (ID: 17735812/0x010EA084), tag_num=0x07)
179: 0x0556 [0x2B] Ravorara (ID: 17735812/0x010EA084) [12116*]:
    → "What a calamity! What kind of words were exchangified, I wonder!?"
180: 0x055D [0x23] WAIT_FOR_DIALOG_INTERACTION
181: 0x055E [0x29] REQ_SET_WAIT(priority=0x08, entity_id=Ravorara (ID: 17735812/0x010EA084), tag_num=0x08)
182: 0x0565 [0x27] REQ_SET(priority=0x08, entity_id=Ravorara (ID: 17735812/0x010EA084), tag_num=0x30)
183: 0x056C [0x2B] Ravorara (ID: 17735812/0x010EA084) [12117*]:
    → "I supposify Galka aren't known for their diplomacy..."
184: 0x0573 [0x23] WAIT_FOR_DIALOG_INTERACTION
185: 0x0574 [0x2A] GET_REQ_LEVEL(level=8, entity_id=Ravorara (ID: 17735812/0x010EA084))
186: 0x057A [0x52] END_LOAD_SCHEDULER: End scheduler "s032" with entities [EventEntity, EventEntity], work=126*
187: 0x0589 [0x45] LOAD_SCHEDULED_TASK: Load scheduler "s035" with entities [EventEntity, EventEntity], work=[126*, 0*]
188: 0x059A [0x2B] Pavvke (ID: 17735735/0x010EA037) [12118*]:
    → "Nobody really knows what passed between them. In any case, the battle ended as abruptly as it had begun."
189: 0x05A1 [0x23] WAIT_FOR_DIALOG_INTERACTION
190: 0x05A2 [0x2B] Pavvke (ID: 17735735/0x010EA037) [12119*]:
    → "One morning, we awoke to discover that the tunnel connecting the mines to Movalpolos had completely caved in. The Moblins had left."
191: 0x05A9 [0x23] WAIT_FOR_DIALOG_INTERACTION
192: 0x05AA [0x29] REQ_SET_WAIT(priority=0x08, entity_id=Ravorara (ID: 17735812/0x010EA084), tag_num=0x01)
193: 0x05B1 [0x2B] Ravorara (ID: 17735812/0x010EA084) [12120*]:
    → "So they fled, thinking they would be obliteraficated?"
194: 0x05B8 [0x23] WAIT_FOR_DIALOG_INTERACTION
195: 0x05B9 [0x29] REQ_SET_WAIT(priority=0x08, entity_id=Ravorara (ID: 17735812/0x010EA084), tag_num=0x02)
196: 0x05C0 [0x52] END_LOAD_SCHEDULER: End scheduler "s035" with entities [EventEntity, EventEntity], work=126*
197: 0x05CF [0x45] LOAD_SCHEDULED_TASK: Load scheduler "s029" with entities [EventEntity, EventEntity], work=[126*, 0*]
198: 0x05E0 [0x4A] Pavvke (ID: 17735735/0x010EA037) looks at Ravorara (ID: 17735812/0x010EA084)
199: 0x05E9 [0x6F] WAIT_FRAME_DELAY: Yield until WaitTime reaches zero
200: 0x05EA [0x76] CHECK_ENTITY_RENDER_FLAGS: Wait until Pavvke (ID: 17735735/0x010EA037) Render.Flags0 and Render.Flags3 conditions are met
201: 0x05EF [0x2B] Pavvke (ID: 17735735/0x010EA037) [12121*]:
    → "I don't think so. Bastok had no formal army. It had come to the point where we had even considered collapsing the Gusgen Mines."
202: 0x05F6 [0x23] WAIT_FOR_DIALOG_INTERACTION
203: 0x05F7 [0x52] END_LOAD_SCHEDULER: End scheduler "s029" with entities [EventEntity, EventEntity], work=126*
204: 0x0606 [0x02] IF !(Work_Zone[9] == 5*) GOTO 0x0622
205: 0x060E [0x45] LOAD_SCHEDULED_TASK: Load scheduler "s041" with entities [EventEntity, EventEntity], work=[126*, 0*]
206: 0x061F [0x01] GOTO 0x064F
207: 0x0622 [0x02] IF !(Work_Zone[9] == 6*) GOTO 0x063E
208: 0x062A [0x45] LOAD_SCHEDULED_TASK: Load scheduler "s041" with entities [EventEntity, EventEntity], work=[126*, 0*]
209: 0x063B [0x01] GOTO 0x064F
210: 0x063E [0x45] LOAD_SCHEDULED_TASK: Load scheduler "s028" with entities [EventEntity, EventEntity], work=[126*, 0*]

SUBROUTINE_064F:
211: 0x064F [0x2B] Ravorara (ID: 17735812/0x010EA084) [12122*]:
    → "Then, perhaps they had achieverized some goal?"
212: 0x0656 [0x23] WAIT_FOR_DIALOG_INTERACTION
213: 0x0657 [0x2B] Pavvke (ID: 17735735/0x010EA037) [12123*]:
    → "I don't know. The only person who knows what really happened back then would be Jabbos, the Galka who tried talking with the Moblins."
214: 0x065E [0x23] WAIT_FOR_DIALOG_INTERACTION
215: 0x065F [0x02] IF !(Work_Zone[9] == 5*) GOTO 0x0679
216: 0x0667 [0x52] END_LOAD_SCHEDULER: End scheduler "s041" with entities [EventEntity, EventEntity], work=126*
217: 0x0676 [0x01] GOTO 0x06A2
218: 0x0679 [0x02] IF !(Work_Zone[9] == 6*) GOTO 0x0693
219: 0x0681 [0x52] END_LOAD_SCHEDULER: End scheduler "s041" with entities [EventEntity, EventEntity], work=126*
220: 0x0690 [0x01] GOTO 0x06A2
221: 0x0693 [0x52] END_LOAD_SCHEDULER: End scheduler "s028" with entities [EventEntity, EventEntity], work=126*

SUBROUTINE_06A2:
222: 0x06A2 [0x45] LOAD_SCHEDULED_TASK: Load scheduler "s030" with entities [EventEntity, EventEntity], work=[126*, 0*]
223: 0x06B3 [0x29] REQ_SET_WAIT(priority=0x08, entity_id=Ravorara (ID: 17735812/0x010EA084), tag_num=0x01)
224: 0x06BA [0x2B] Ravorara (ID: 17735812/0x010EA084) [12124*]:
    → "And where can this Galka be locatified?"
225: 0x06C1 [0x23] WAIT_FOR_DIALOG_INTERACTION
226: 0x06C2 [0x29] REQ_SET_WAIT(priority=0x08, entity_id=Ravorara (ID: 17735812/0x010EA084), tag_num=0x02)
227: 0x06C9 [0x2B] Pavvke (ID: 17735735/0x010EA037) [12125*]:
    → "Nobody knows. He disappeared on the first day of our battle with Movalpolos."
228: 0x06D0 [0x23] WAIT_FOR_DIALOG_INTERACTION
229: 0x06D1 [0x52] END_LOAD_SCHEDULER: End scheduler "s030" with entities [EventEntity, EventEntity], work=126*
230: 0x06E0 [0x45] LOAD_SCHEDULED_TASK: Load scheduler "s035" with entities [EventEntity, EventEntity], work=[126*, 0*]
231: 0x06F1 [0x2B] Pavvke (ID: 17735735/0x010EA037) [12126*]:
    → "I guess he was ashamed at the trouble he had caused."
232: 0x06F8 [0x23] WAIT_FOR_DIALOG_INTERACTION
233: 0x06F9 [0x29] REQ_SET_WAIT(priority=0x08, entity_id=Ravorara (ID: 17735812/0x010EA084), tag_num=0x09)
234: 0x0700 [0x2B] Ravorara (ID: 17735812/0x010EA084) [12127*]:
    → "He ran away? That doesn't seem very Galka-ized to me."
235: 0x0707 [0x23] WAIT_FOR_DIALOG_INTERACTION
236: 0x0708 [0x29] REQ_SET_WAIT(priority=0x08, entity_id=Ravorara (ID: 17735812/0x010EA084), tag_num=0x0A)
237: 0x070F [0x2B] Pavvke (ID: 17735735/0x010EA037) [12128*]:
    → "..."
238: 0x0716 [0x23] WAIT_FOR_DIALOG_INTERACTION
239: 0x0717 [0x52] END_LOAD_SCHEDULER: End scheduler "s035" with entities [EventEntity, EventEntity], work=126*
240: 0x0726 [0x45] LOAD_SCHEDULED_TASK: Load scheduler "s036" with entities [EventEntity, EventEntity], work=[126*, 0*]
241: 0x0737 [0x7B] Ravorara (ID: 17735812/0x010EA084) stops talking
242: 0x073C [0x27] REQ_SET(priority=0x0B, entity_id=Ravorara (ID: 17735812/0x010EA084), tag_num=0x4C)
243: 0x0743 [0x2B] Ravorara (ID: 17735812/0x010EA084) [12129*]:
    → "Well, don't despairify, Mister Pakuke!"
244: 0x074A [0x23] WAIT_FOR_DIALOG_INTERACTION
245: 0x074B [0x2A] GET_REQ_LEVEL(level=11, entity_id=Ravorara (ID: 17735812/0x010EA084))
246: 0x0751 [0x29] REQ_SET_WAIT(priority=0x08, entity_id=Ravorara (ID: 17735812/0x010EA084), tag_num=0x13)
247: 0x0758 [0x2B] Ravorara (ID: 17735812/0x010EA084) [12130*]:
    → "Rhinostery researchers from the Federation of Windurst are dispatchimicated to every corner of Vana'diel. We'll locatify him for you!"
248: 0x075F [0x23] WAIT_FOR_DIALOG_INTERACTION
249: 0x0760 [0x29] REQ_SET_WAIT(priority=0x08, entity_id=Ravorara (ID: 17735812/0x010EA084), tag_num=0x14)
250: 0x0767 [0x52] END_LOAD_SCHEDULER: End scheduler "s036" with entities [EventEntity, EventEntity], work=126*
251: 0x0776 [0x45] LOAD_SCHEDULED_TASK: Load scheduler "s037" with entities [EventEntity, EventEntity], work=[126*, 0*]
252: 0x0787 [0x4B] UPDATE_ENTITY_YAW(entity=Ravorara (ID: 17735812/0x010EA084), yaw=0.0°*)
253: 0x078E [0x6F] WAIT_FRAME_DELAY: Yield until WaitTime reaches zero
254: 0x078F [0x76] CHECK_ENTITY_RENDER_FLAGS: Wait until Ravorara (ID: 17735812/0x010EA084) Render.Flags0 and Render.Flags3 conditions are met
255: 0x0794 [0x29] REQ_SET_WAIT(priority=0x08, entity_id=Ravorara (ID: 17735812/0x010EA084), tag_num=0x03)
256: 0x079B [0x2B] Ravorara (ID: 17735812/0x010EA084) [12131*]:
    → "This is a great development! Now we know that communification can take place with the Moblins if we manage to learn their language!"
257: 0x07A2 [0x23] WAIT_FOR_DIALOG_INTERACTION
258: 0x07A3 [0x29] REQ_SET_WAIT(priority=0x08, entity_id=Ravorara (ID: 17735812/0x010EA084), tag_num=0x04)
259: 0x07AA [0x29] REQ_SET_WAIT(priority=0x08, entity_id=Ravorara (ID: 17735812/0x010EA084), tag_num=0x05)
260: 0x07B1 [0x2B] Ravorara (ID: 17735812/0x010EA084) [12132*]:
    → "I must reportificate to Mythril Musketeer Ayame and delay the deployerization of the troops."
261: 0x07B8 [0x23] WAIT_FOR_DIALOG_INTERACTION
262: 0x07B9 [0x29] REQ_SET_WAIT(priority=0x08, entity_id=Ravorara (ID: 17735812/0x010EA084), tag_num=0x06)
263: 0x07C0 [0x52] END_LOAD_SCHEDULER: End scheduler "s037" with entities [EventEntity, EventEntity], work=126*
264: 0x07CF [0x02] IF !(Work_Zone[9] == 5*) GOTO 0x07EB
265: 0x07D7 [0x45] LOAD_SCHEDULED_TASK: Load scheduler "s042" with entities [EventEntity, EventEntity], work=[126*, 0*]
266: 0x07E8 [0x01] GOTO 0x0818
267: 0x07EB [0x02] IF !(Work_Zone[9] == 6*) GOTO 0x0807
268: 0x07F3 [0x45] LOAD_SCHEDULED_TASK: Load scheduler "s042" with entities [EventEntity, EventEntity], work=[126*, 0*]
269: 0x0804 [0x01] GOTO 0x0818
270: 0x0807 [0x45] LOAD_SCHEDULED_TASK: Load scheduler "s038" with entities [EventEntity, EventEntity], work=[126*, 0*]

SUBROUTINE_0818:
271: 0x0818 [0x79] Ravorara (ID: 17735812/0x010EA084) looks at LocalPlayer (Basic look)
272: 0x0822 [0x29] REQ_SET_WAIT(priority=0x0B, entity_id=Ravorara (ID: 17735812/0x010EA084), tag_num=0x4D)
273: 0x0829 [0x02] IF !(Work_Zone[9] == 8*) GOTO 0x0834
274: 0x0831 [0x01] GOTO 0x083D
275: 0x0834 [0x4A] LocalPlayer looks at Ravorara (ID: 17735812/0x010EA084)

SUBROUTINE_083D:
276: 0x083D [0x29] REQ_SET_WAIT(priority=0x08, entity_id=Ravorara (ID: 17735812/0x010EA084), tag_num=0x0D)
277: 0x0844 [0x2B] Ravorara (ID: 17735812/0x010EA084) [12133*]:
    → "Here's your remunerafication. Take care, bye bye now!"
278: 0x084B [0x23] WAIT_FOR_DIALOG_INTERACTION
279: 0x084C [0x29] REQ_SET_WAIT(priority=0x08, entity_id=Ravorara (ID: 17735812/0x010EA084), tag_num=0x0E)
280: 0x0853 [0x5D] SET_MUSIC_VOLUME(volume=0*, fade_time=120*)
281: 0x0858 [0x45] LOAD_SCHEDULED_TASK: Load scheduler "fdo1" with entities [LocalPlayer, LocalPlayer], work=[200*, 0*]
282: 0x0869 [0x1C] WAIT(60* ticks)
283: 0x086C [0x02] IF !(Work_Zone[9] == 5*) GOTO 0x0886
284: 0x0874 [0x52] END_LOAD_SCHEDULER: End scheduler "s042" with entities [EventEntity, EventEntity], work=126*
285: 0x0883 [0x01] GOTO 0x08AF
286: 0x0886 [0x02] IF !(Work_Zone[9] == 6*) GOTO 0x08A0
287: 0x088E [0x52] END_LOAD_SCHEDULER: End scheduler "s042" with entities [EventEntity, EventEntity], work=126*
288: 0x089D [0x01] GOTO 0x08AF
289: 0x08A0 [0x52] END_LOAD_SCHEDULER: End scheduler "s038" with entities [EventEntity, EventEntity], work=126*

SUBROUTINE_08AF:
290: 0x08AF [0x45] LOAD_SCHEDULED_TASK: Load scheduler "qstc" with entities [LocalPlayer, LocalPlayer], work=[201*, 0*]
291: 0x08C0 [0x5C] MUSIC_CONTROL: Set Idle (Day) music to song 152*
292: 0x08C4 [0x5C] MUSIC_CONTROL: Set Idle (Night) music to song 152*
293: 0x08C8 [0x1C] WAIT(100* ticks)
294: 0x08CB [0x4E] SET_ENTITY_HIDE_FLAG: Show LocalPlayer
295: 0x08D1 [0x80] LOAD_WAIT(entity=LocalPlayer)
296: 0x08D6 [0x46] CAMERA_CONTROL: Restore default settings
297: 0x08D8 [0x45] LOAD_SCHEDULED_TASK: Load scheduler "fdi1" with entities [LocalPlayer, LocalPlayer], work=[200*, 0*]
298: 0x08E9 [0x20] SET_CLI_EVENT_UC_FLAG: Unlock player control
299: 0x08EB [0x21] END_EVENT
300: 0x08EC [0x00] END_REQSTACK()
```

### Event 239

#### Metadata

| Field        | Value     |
|--------------|-----------|
| Entrypoint   | 0x08ED    |
| Data Size    | 599 bytes |
| Instructions | 86        |

```
      00 01 02 03 04 05 06 07  08 09 0A 0B 0C 0D 0E 0F
      -- -- -- -- -- -- -- --  -- -- -- -- -- -- -- --
08E0:                                         20 01 42                .B
08F0: 46 01 45 02 80 F8 FF FF  7F F8 FF FF 7F 66 64 6F  F.E..........fdo
0900: 31 00 80 1C 03 80 38 38  80 29 08 F0 FF FF 7F 4B  1.....88.).....K
0910: 75 00 39 80 75 01 29 0B  6A A0 0E 01 16 29 0B F0  u.9.u.).j....)..
0920: FF FF 7F 4E 4A F0 FF FF  7F 6A A0 0E 01 4A 6A A0  ...NJ....j...Jj.
0930: 0E 01 F0 FF FF 7F 6F 76  F0 FF FF 7F 6F 76 6A A0  ......ov....ovj.
0940: 0E 01 4E 00 6A A0 0E 01  80 6A A0 0E 01 92 01 6A  ..N.j....j.....j
0950: A0 0E 01 45 3A 80 F8 FF  FF 7F F8 FF FF 7F 73 30  ...E:.........s0
0960: 34 39 00 80 45 02 80 F8  FF FF 7F F8 FF FF 7F 66  49..E..........f
0970: 64 69 31 00 80 29 08 6A  A0 0E 01 08 2B 6A A0 0E  di1..).j....+j..
0980: 01 3B 80 23 2B 6A A0 0E  01 3C 80 23 29 08 6A A0  .;.#+j...<.#).j.
0990: 0E 01 09 52 3A 80 F8 FF  FF 7F F8 FF FF 7F 73 30  ...R:.........s0
09A0: 34 39 45 02 80 F0 FF FF  7F F0 FF FF 7F 6F 76 6C  49E..........ovl
09B0: 31 00 80 45 3A 80 F8 FF  FF 7F F8 FF FF 7F 73 30  1..E:.........s0
09C0: 35 30 00 80 29 08 6A A0  0E 01 0A 2B 6A A0 0E 01  50..).j....+j...
09D0: 3D 80 23 2B 6A A0 0E 01  3E 80 23 29 08 6A A0 0E  =.#+j...>.#).j..
09E0: 01 0B 52 3A 80 F8 FF FF  7F F8 FF FF 7F 73 30 35  ..R:.........s05
09F0: 30 02 09 10 06 80 00 0D  0A 45 3A 80 F8 FF FF 7F  0........E:.....
0A00: F8 FF FF 7F 73 30 35 33  00 80 01 3A 0A 02 09 10  ....s053...:....
0A10: 08 80 00 29 0A 45 3A 80  F8 FF FF 7F F8 FF FF 7F  ...).E:.........
0A20: 73 30 35 33 00 80 01 3A  0A 45 3A 80 F8 FF FF 7F  s053...:.E:.....
0A30: F8 FF FF 7F 73 30 35 31  00 80 29 08 6A A0 0E 01  ....s051..).j...
0A40: 0C 2B 6A A0 0E 01 3F 80  23 2B 6A A0 0E 01 40 80  .+j...?.#+j...@.
0A50: 23 29 08 6A A0 0E 01 0D  02 09 10 06 80 00 72 0A  #).j..........r.
0A60: 52 3A 80 F8 FF FF 7F F8  FF FF 7F 73 30 35 33 01  R:.........s053.
0A70: 9B 0A 02 09 10 08 80 00  8C 0A 52 3A 80 F8 FF FF  ..........R:....
0A80: 7F F8 FF FF 7F 73 30 35  33 01 9B 0A 52 3A 80 F8  .....s053...R:..
0A90: FF FF 7F F8 FF FF 7F 73  30 35 31 29 08 6A A0 0E  .......s051).j..
0AA0: 01 0E 24 41 80 00 80 00  80 25 02 00 10 00 80 00  ..$A.....%......
0AB0: F7 0A 03 01 10 42 80 45  3A 80 F8 FF FF 7F F8 FF  .....B.E:.......
0AC0: FF 7F 73 30 35 32 00 80  29 08 6A A0 0E 01 0F 29  ..s052..).j....)
0AD0: 08 6A A0 0E 01 10 2B 6A  A0 0E 01 43 80 23 29 08  .j....+j...C.#).
0AE0: 6A A0 0E 01 11 29 08 6A  A0 0E 01 08 2B 6A A0 0E  j....).j....+j..
0AF0: 01 44 80 23 01 07 0B 02  00 10 42 80 00 07 0B 03  .D.#......B.....
0B00: 01 10 45 80 01 07 0B 45  02 80 F0 FF FF 7F F0 FF  ..E....E........
0B10: FF 7F 66 64 6F 31 00 80  1C 03 80 29 08 6A A0 0E  ..fdo1.....).j..
0B20: 01 09 4E 00 F0 FF FF 7F  80 F0 FF FF 7F 46 00 45  ..N..........F.E
0B30: 02 80 F0 FF FF 7F F0 FF  FF 7F 66 64 69 31 00 80  ..........fdi1..
0B40: 20 00 21 00                                        .!.            
```

#### Opcodes

```
  0: 0x08ED [0x20] SET_CLI_EVENT_UC_FLAG: Lock player control
  1: 0x08EF [0x42] SET_CLI_EVENT_CANCEL_DATA()
  2: 0x08F0 [0x46] CAMERA_CONTROL: Disable user control
  3: 0x08F2 [0x45] LOAD_SCHEDULED_TASK: Load scheduler "fdo1" with entities [EventEntity, EventEntity], work=[200*, 0*]
  4: 0x0903 [0x1C] WAIT(60* ticks)
  5: 0x0906 [0x38] SET_CLIENT_EVENT_MODE(mode=19*)
  6: 0x0909 [0x29] REQ_SET_WAIT(priority=0x08, entity_id=LocalPlayer, tag_num=0x4B)
  7: 0x0910 [0x75] LOAD_ROOM(Load indoor room, room=271*)
  8: 0x0914 [0x75] LOAD_ROOM(No action)
  9: 0x0916 [0x29] REQ_SET_WAIT(priority=0x0B, entity_id=Virnage (ID: 17735786/0x010EA06A), tag_num=0x16)
 10: 0x091D [0x29] REQ_SET_WAIT(priority=0x0B, entity_id=LocalPlayer, tag_num=0x4E)
 11: 0x0924 [0x4A] LocalPlayer looks at Virnage (ID: 17735786/0x010EA06A)
 12: 0x092D [0x4A] Virnage (ID: 17735786/0x010EA06A) looks at LocalPlayer
 13: 0x0936 [0x6F] WAIT_FRAME_DELAY: Yield until WaitTime reaches zero
 14: 0x0937 [0x76] CHECK_ENTITY_RENDER_FLAGS: Wait until LocalPlayer Render.Flags0 and Render.Flags3 conditions are met
 15: 0x093C [0x6F] WAIT_FRAME_DELAY: Yield until WaitTime reaches zero
 16: 0x093D [0x76] CHECK_ENTITY_RENDER_FLAGS: Wait until Virnage (ID: 17735786/0x010EA06A) Render.Flags0 and Render.Flags3 conditions are met
 17: 0x0942 [0x4E] SET_ENTITY_HIDE_FLAG: Show Virnage (ID: 17735786/0x010EA06A)
 18: 0x0948 [0x80] LOAD_WAIT(entity=Virnage (ID: 17735786/0x010EA06A))
 19: 0x094D [0x92] Virnage (ID: 17735786/0x010EA06A)->Render.Flags3 ^= 0x01
 20: 0x0953 [0x45] LOAD_SCHEDULED_TASK: Load scheduler "s049" with entities [EventEntity, EventEntity], work=[25*, 0*]
 21: 0x0964 [0x45] LOAD_SCHEDULED_TASK: Load scheduler "fdi1" with entities [EventEntity, EventEntity], work=[200*, 0*]
 22: 0x0975 [0x29] REQ_SET_WAIT(priority=0x08, entity_id=Virnage (ID: 17735786/0x010EA06A), tag_num=0x08)
 23: 0x097C [0x2B] Virnage (ID: 17735786/0x010EA06A) [12134*]:
    → "I am Virnage, a friar from the San d'Orian Cathedral. Coming to Bastok is part of my pilgrimage."
 24: 0x0983 [0x23] WAIT_FOR_DIALOG_INTERACTION
 25: 0x0984 [0x2B] Virnage (ID: 17735786/0x010EA06A) [12135*]:
    → "I was permitted to peruse the holy tome that was found in the Moblin lair below North Gustaberg."
 26: 0x098B [0x23] WAIT_FOR_DIALOG_INTERACTION
 27: 0x098C [0x29] REQ_SET_WAIT(priority=0x08, entity_id=Virnage (ID: 17735786/0x010EA06A), tag_num=0x09)
 28: 0x0993 [0x52] END_LOAD_SCHEDULER: End scheduler "s049" with entities [EventEntity, EventEntity], work=25*
 29: 0x09A2 [0x45] LOAD_SCHEDULED_TASK: Load scheduler "ovl1" with entities [LocalPlayer, LocalPlayer], work=[200*, 0*]
 30: 0x09B3 [0x45] LOAD_SCHEDULED_TASK: Load scheduler "s050" with entities [EventEntity, EventEntity], work=[25*, 0*]
 31: 0x09C4 [0x29] REQ_SET_WAIT(priority=0x08, entity_id=Virnage (ID: 17735786/0x010EA06A), tag_num=0x0A)
 32: 0x09CB [0x2B] Virnage (ID: 17735786/0x010EA06A) [12136*]:
    → "It is, without a doubt, a volume printed by the San d'Orian Cathedral. Judging by its relatively unsullied condition, the book appears to have been handled with care and reverence."
 33: 0x09D2 [0x23] WAIT_FOR_DIALOG_INTERACTION
 34: 0x09D3 [0x2B] Virnage (ID: 17735786/0x010EA06A) [12137*]:
    → "If these Moblins truly believe in the grace of the Goddess Altana, I cannot abandon them to the ungentle ministrations of the Republic."
 35: 0x09DA [0x23] WAIT_FOR_DIALOG_INTERACTION
 36: 0x09DB [0x29] REQ_SET_WAIT(priority=0x08, entity_id=Virnage (ID: 17735786/0x010EA06A), tag_num=0x0B)
 37: 0x09E2 [0x52] END_LOAD_SCHEDULER: End scheduler "s050" with entities [EventEntity, EventEntity], work=25*
 38: 0x09F1 [0x02] IF !(Work_Zone[9] == 5*) GOTO 0x0A0D
 39: 0x09F9 [0x45] LOAD_SCHEDULED_TASK: Load scheduler "s053" with entities [EventEntity, EventEntity], work=[25*, 0*]
 40: 0x0A0A [0x01] GOTO 0x0A3A
 41: 0x0A0D [0x02] IF !(Work_Zone[9] == 6*) GOTO 0x0A29
 42: 0x0A15 [0x45] LOAD_SCHEDULED_TASK: Load scheduler "s053" with entities [EventEntity, EventEntity], work=[25*, 0*]
 43: 0x0A26 [0x01] GOTO 0x0A3A
 44: 0x0A29 [0x45] LOAD_SCHEDULED_TASK: Load scheduler "s051" with entities [EventEntity, EventEntity], work=[25*, 0*]

SUBROUTINE_0A3A:
 45: 0x0A3A [0x29] REQ_SET_WAIT(priority=0x08, entity_id=Virnage (ID: 17735786/0x010EA06A), tag_num=0x0C)
 46: 0x0A41 [0x2B] Virnage (ID: 17735786/0x010EA06A) [12138*]:
    → "However, it would be foolish of me to venture alone into a beastman lair without further confirmation of their faith."
 47: 0x0A48 [0x23] WAIT_FOR_DIALOG_INTERACTION
 48: 0x0A49 [0x2B] Virnage (ID: 17735786/0x010EA06A) [12139*]:
    → "Would you be willing to discover the truth behind this theological enigma?"
 49: 0x0A50 [0x23] WAIT_FOR_DIALOG_INTERACTION
 50: 0x0A51 [0x29] REQ_SET_WAIT(priority=0x08, entity_id=Virnage (ID: 17735786/0x010EA06A), tag_num=0x0D)
 51: 0x0A58 [0x02] IF !(Work_Zone[9] == 5*) GOTO 0x0A72
 52: 0x0A60 [0x52] END_LOAD_SCHEDULER: End scheduler "s053" with entities [EventEntity, EventEntity], work=25*
 53: 0x0A6F [0x01] GOTO 0x0A9B
 54: 0x0A72 [0x02] IF !(Work_Zone[9] == 6*) GOTO 0x0A8C
 55: 0x0A7A [0x52] END_LOAD_SCHEDULER: End scheduler "s053" with entities [EventEntity, EventEntity], work=25*
 56: 0x0A89 [0x01] GOTO 0x0A9B
 57: 0x0A8C [0x52] END_LOAD_SCHEDULER: End scheduler "s051" with entities [EventEntity, EventEntity], work=25*

SUBROUTINE_0A9B:
 58: 0x0A9B [0x29] REQ_SET_WAIT(priority=0x08, entity_id=Virnage (ID: 17735786/0x010EA06A), tag_num=0x0E)
 59: 0x0AA2 [0x24] CREATE_DIALOG(message_id=12140*, default_option=0*, option_flags=0*)
    → "Are you willing to discover the truth? [Ready and able./I can't handle the truth.]"
 60: 0x0AA9 [0x25] WAIT_DIALOG_SELECT()
 61: 0x0AAA [0x02] IF !(Work_Zone[0] == 0*) GOTO 0x0AF7
 62: 0x0AB2 [0x03] Work_Zone[1] = 1*
 63: 0x0AB7 [0x45] LOAD_SCHEDULED_TASK: Load scheduler "s052" with entities [EventEntity, EventEntity], work=[25*, 0*]
 64: 0x0AC8 [0x29] REQ_SET_WAIT(priority=0x08, entity_id=Virnage (ID: 17735786/0x010EA06A), tag_num=0x0F)
 65: 0x0ACF [0x29] REQ_SET_WAIT(priority=0x08, entity_id=Virnage (ID: 17735786/0x010EA06A), tag_num=0x10)
 66: 0x0AD6 [0x2B] Virnage (ID: 17735786/0x010EA06A) [12141*]:
    → "My most humble thanks. ...This is a talisman bearing the symbol of the Goddess."
 67: 0x0ADD [0x23] WAIT_FOR_DIALOG_INTERACTION
 68: 0x0ADE [0x29] REQ_SET_WAIT(priority=0x08, entity_id=Virnage (ID: 17735786/0x010EA06A), tag_num=0x11)
 69: 0x0AE5 [0x29] REQ_SET_WAIT(priority=0x08, entity_id=Virnage (ID: 17735786/0x010EA06A), tag_num=0x08)
 70: 0x0AEC [0x2B] Virnage (ID: 17735786/0x010EA06A) [12142*]:
    → "The same symbol adorns the cover of the holy tome. Presenting the talisman to the Moblins should help you determine where their true faith lies."
 71: 0x0AF3 [0x23] WAIT_FOR_DIALOG_INTERACTION
 72: 0x0AF4 [0x01] GOTO 0x0B07
 73: 0x0AF7 [0x02] IF !(Work_Zone[0] == 1*) GOTO 0x0B07
 74: 0x0AFF [0x03] Work_Zone[1] = 2*
 75: 0x0B04 [0x01] GOTO 0x0B07

SUBROUTINE_0B07:
 76: 0x0B07 [0x45] LOAD_SCHEDULED_TASK: Load scheduler "fdo1" with entities [LocalPlayer, LocalPlayer], work=[200*, 0*]
 77: 0x0B18 [0x1C] WAIT(60* ticks)
 78: 0x0B1B [0x29] REQ_SET_WAIT(priority=0x08, entity_id=Virnage (ID: 17735786/0x010EA06A), tag_num=0x09)
 79: 0x0B22 [0x4E] SET_ENTITY_HIDE_FLAG: Show LocalPlayer
 80: 0x0B28 [0x80] LOAD_WAIT(entity=LocalPlayer)
 81: 0x0B2D [0x46] CAMERA_CONTROL: Restore default settings
 82: 0x0B2F [0x45] LOAD_SCHEDULED_TASK: Load scheduler "fdi1" with entities [LocalPlayer, LocalPlayer], work=[200*, 0*]
 83: 0x0B40 [0x20] SET_CLI_EVENT_UC_FLAG: Unlock player control
 84: 0x0B42 [0x21] END_EVENT
 85: 0x0B43 [0x00] END_REQSTACK()
```

### Event 241

#### Metadata

| Field        | Value      |
|--------------|------------|
| Entrypoint   | 0x0B44     |
| Data Size    | 1105 bytes |
| Instructions | 151        |

```
      00 01 02 03 04 05 06 07  08 09 0A 0B 0C 0D 0E 0F
      -- -- -- -- -- -- -- --  -- -- -- -- -- -- -- --
0B40:             20 01 42 46  01 4A 6A A0 0E 01 F0 FF       .BF.Jj.....
0B50: FF 7F 6F 76 6A A0 0E 01  2B 6A A0 0E 01 46 80 23  ..ovj...+j...F.#
0B60: 5D 00 80 01 80 45 02 80  F8 FF FF 7F F8 FF FF 7F  ]....E..........
0B70: 66 64 6F 31 00 80 1C 01  80 38 38 80 29 08 F0 FF  fdo1.....88.)...
0B80: FF 7F 4B 75 00 39 80 75  01 29 0B 6A A0 0E 01 16  ..Ku.9.u.).j....
0B90: 29 0B F0 FF FF 7F 4E 5C  00 47 80 5C 01 47 80 4A  ).....N\.G.\.G.J
0BA0: F0 FF FF 7F 6A A0 0E 01  4A 6A A0 0E 01 F0 FF FF  ....j...Jj......
0BB0: 7F 6F 76 F0 FF FF 7F 6F  76 6A A0 0E 01 4E 00 6A  .ov....ovj...N.j
0BC0: A0 0E 01 80 6A A0 0E 01  92 01 6A A0 0E 01 45 3A  ....j.....j...E:
0BD0: 80 F8 FF FF 7F F8 FF FF  7F 73 30 35 30 00 80 45  .........s050..E
0BE0: 02 80 F8 FF FF 7F F8 FF  FF 7F 66 64 69 31 00 80  ..........fdi1..
0BF0: 2B 6A A0 0E 01 48 80 23  52 3A 80 F8 FF FF 7F F8  +j...H.#R:......
0C00: FF FF 7F 73 30 35 30 02  09 10 06 80 00 23 0C 45  ...s050......#.E
0C10: 3A 80 F8 FF FF 7F F8 FF  FF 7F 73 30 35 33 00 80  :.........s053..
0C20: 01 50 0C 02 09 10 08 80  00 3F 0C 45 3A 80 F8 FF  .P.......?.E:...
0C30: FF 7F F8 FF FF 7F 73 30  35 33 00 80 01 50 0C 45  ......s053...P.E
0C40: 3A 80 F8 FF FF 7F F8 FF  FF 7F 73 30 35 31 00 80  :.........s051..
0C50: 7B 6A A0 0E 01 27 0B 6A  A0 0E 01 19 2B 6A A0 0E  {j...'.j....+j..
0C60: 01 49 80 23 2A 0B 6A A0  0E 01 2B 6A A0 0E 01 4A  .I.#*.j...+j...J
0C70: 80 23 02 09 10 06 80 00  8C 0C 52 3A 80 F8 FF FF  .#........R:....
0C80: 7F F8 FF FF 7F 73 30 35  33 01 B5 0C 02 09 10 08  .....s053.......
0C90: 80 00 A6 0C 52 3A 80 F8  FF FF 7F F8 FF FF 7F 73  ....R:.........s
0CA0: 30 35 33 01 B5 0C 52 3A  80 F8 FF FF 7F F8 FF FF  053...R:........
0CB0: 7F 73 30 35 31 02 09 10  06 80 00 D1 0C 45 3A 80  .s051........E:.
0CC0: F8 FF FF 7F F8 FF FF 7F  73 30 35 37 00 80 01 FE  ........s057....
0CD0: 0C 02 09 10 08 80 00 ED  0C 45 3A 80 F8 FF FF 7F  .........E:.....
0CE0: F8 FF FF 7F 73 30 35 37  00 80 01 FE 0C 45 3A 80  ....s057.....E:.
0CF0: F8 FF FF 7F F8 FF FF 7F  73 30 35 32 00 80 4A 6A  ........s052..Jj
0D00: A0 0E 01 F0 FF FF 7F 6F  76 6A A0 0E 01 29 08 6A  .......ovj...).j
0D10: A0 0E 01 12 2B 6A A0 0E  01 4B 80 23 2B 6A A0 0E  ....+j...K.#+j..
0D20: 01 4C 80 23 29 08 6A A0  0E 01 13 45 02 80 F8 FF  .L.#).j....E....
0D30: FF 7F F8 FF FF 7F 66 64  6F 31 00 80 1C 03 80 02  ......fdo1......
0D40: 09 10 06 80 00 59 0D 52  3A 80 F8 FF FF 7F F8 FF  .....Y.R:.......
0D50: FF 7F 73 30 35 37 01 82  0D 02 09 10 08 80 00 73  ..s057.........s
0D60: 0D 52 3A 80 F8 FF FF 7F  F8 FF FF 7F 73 30 35 37  .R:.........s057
0D70: 01 82 0D 52 3A 80 F8 FF  FF 7F F8 FF FF 7F 73 30  ...R:.........s0
0D80: 35 32 45 3A 80 F8 FF FF  7F F8 FF FF 7F 73 30 35  52E:.........s05
0D90: 34 00 80 45 02 80 F8 FF  FF 7F F8 FF FF 7F 66 64  4..E..........fd
0DA0: 69 31 00 80 02 07 10 00  80 00 CD 0D 2B 6A A0 0E  i1..........+j..
0DB0: 01 4D 80 23 29 08 6A A0  0E 01 0C 2B 6A A0 0E 01  .M.#).j....+j...
0DC0: 4E 80 23 29 08 6A A0 0E  01 0D 01 EB 0D 2B 6A A0  N.#).j.......+j.
0DD0: 0E 01 4F 80 23 29 08 6A  A0 0E 01 0C 2B 6A A0 0E  ..O.#).j....+j..
0DE0: 01 50 80 23 29 08 6A A0  0E 01 0D 52 3A 80 F8 FF  .P.#).j....R:...
0DF0: FF 7F F8 FF FF 7F 73 30  35 34 45 3A 80 F8 FF FF  ......s054E:....
0E00: 7F F8 FF FF 7F 73 30 35  35 00 80 29 08 6A A0 0E  .....s055..).j..
0E10: 01 0E 2B 6A A0 0E 01 51  80 23 2B 6A A0 0E 01 52  ..+j...Q.#+j...R
0E20: 80 23 29 08 6A A0 0E 01  0F 52 3A 80 F8 FF FF 7F  .#).j....R:.....
0E30: F8 FF FF 7F 73 30 35 35  02 09 10 06 80 00 54 0E  ....s055......T.
0E40: 45 3A 80 F8 FF FF 7F F8  FF FF 7F 73 30 35 38 00  E:.........s058.
0E50: 80 01 9D 0E 02 09 10 08  80 00 70 0E 45 3A 80 F8  ..........p.E:..
0E60: FF FF 7F F8 FF FF 7F 73  30 35 38 00 80 01 9D 0E  .......s058.....
0E70: 02 09 10 33 80 00 8C 0E  45 3A 80 F8 FF FF 7F F8  ...3....E:......
0E80: FF FF 7F 73 30 35 36 00  80 01 9D 0E 45 3A 80 F8  ...s056.....E:..
0E90: FF FF 7F F8 FF FF 7F 73  30 35 39 00 80 7B 6A A0  .......s059..{j.
0EA0: 0E 01 27 0B 6A A0 0E 01  1A 2B 6A A0 0E 01 53 80  ..'.j....+j...S.
0EB0: 23 2B 6A A0 0E 01 54 80  23 2A 0B 6A A0 0E 01 4A  #+j...T.#*.j...J
0EC0: 6A A0 0E 01 F0 FF FF 7F  6F 76 6A A0 0E 01 29 08  j.......ovj...).
0ED0: 6A A0 0E 01 10 2B 6A A0  0E 01 55 80 23 29 08 6A  j....+j...U.#).j
0EE0: A0 0E 01 11 5D 00 80 01  80 45 02 80 F0 FF FF 7F  ....]....E......
0EF0: F0 FF FF 7F 66 64 6F 31  00 80 1C 01 80 02 09 10  ....fdo1........
0F00: 06 80 00 17 0F 52 3A 80  F8 FF FF 7F F8 FF FF 7F  .....R:.........
0F10: 73 30 35 38 01 5A 0F 02  09 10 08 80 00 31 0F 52  s058.Z.......1.R
0F20: 3A 80 F8 FF FF 7F F8 FF  FF 7F 73 30 35 38 01 5A  :.........s058.Z
0F30: 0F 02 09 10 33 80 00 4B  0F 52 3A 80 F8 FF FF 7F  ....3..K.R:.....
0F40: F8 FF FF 7F 73 30 35 36  01 5A 0F 52 3A 80 F8 FF  ....s056.Z.R:...
0F50: FF 7F F8 FF FF 7F 73 30  35 39 45 35 80 F0 FF FF  ......s059E5....
0F60: 7F F0 FF FF 7F 71 73 74  63 00 80 5C 00 36 80 5C  .....qstc..\.6.\
0F70: 01 36 80 4E 00 F0 FF FF  7F 80 F0 FF FF 7F 46 00  .6.N..........F.
0F80: 45 02 80 F0 FF FF 7F F0  FF FF 7F 66 64 69 31 00  E..........fdi1.
0F90: 80 20 00 21 00                                    . .!.           
```

#### Opcodes

```
  0: 0x0B44 [0x20] SET_CLI_EVENT_UC_FLAG: Lock player control
  1: 0x0B46 [0x42] SET_CLI_EVENT_CANCEL_DATA()
  2: 0x0B47 [0x46] CAMERA_CONTROL: Disable user control
  3: 0x0B49 [0x4A] Virnage (ID: 17735786/0x010EA06A) looks at LocalPlayer
  4: 0x0B52 [0x6F] WAIT_FRAME_DELAY: Yield until WaitTime reaches zero
  5: 0x0B53 [0x76] CHECK_ENTITY_RENDER_FLAGS: Wait until Virnage (ID: 17735786/0x010EA06A) Render.Flags0 and Render.Flags3 conditions are met
  6: 0x0B58 [0x2B] Virnage (ID: 17735786/0x010EA06A) [12144*]:
    → "How did you fare? Was the talisman well-received?"
  7: 0x0B5F [0x23] WAIT_FOR_DIALOG_INTERACTION
  8: 0x0B60 [0x5D] SET_MUSIC_VOLUME(volume=0*, fade_time=120*)
  9: 0x0B65 [0x45] LOAD_SCHEDULED_TASK: Load scheduler "fdo1" with entities [EventEntity, EventEntity], work=[200*, 0*]
 10: 0x0B76 [0x1C] WAIT(120* ticks)
 11: 0x0B79 [0x38] SET_CLIENT_EVENT_MODE(mode=19*)
 12: 0x0B7C [0x29] REQ_SET_WAIT(priority=0x08, entity_id=LocalPlayer, tag_num=0x4B)
 13: 0x0B83 [0x75] LOAD_ROOM(Load indoor room, room=271*)
 14: 0x0B87 [0x75] LOAD_ROOM(No action)
 15: 0x0B89 [0x29] REQ_SET_WAIT(priority=0x0B, entity_id=Virnage (ID: 17735786/0x010EA06A), tag_num=0x16)
 16: 0x0B90 [0x29] REQ_SET_WAIT(priority=0x0B, entity_id=LocalPlayer, tag_num=0x4E)
 17: 0x0B97 [0x5C] MUSIC_CONTROL: Set Idle (Day) music to song 234*
 18: 0x0B9B [0x5C] MUSIC_CONTROL: Set Idle (Night) music to song 234*
 19: 0x0B9F [0x4A] LocalPlayer looks at Virnage (ID: 17735786/0x010EA06A)
 20: 0x0BA8 [0x4A] Virnage (ID: 17735786/0x010EA06A) looks at LocalPlayer
 21: 0x0BB1 [0x6F] WAIT_FRAME_DELAY: Yield until WaitTime reaches zero
 22: 0x0BB2 [0x76] CHECK_ENTITY_RENDER_FLAGS: Wait until LocalPlayer Render.Flags0 and Render.Flags3 conditions are met
 23: 0x0BB7 [0x6F] WAIT_FRAME_DELAY: Yield until WaitTime reaches zero
 24: 0x0BB8 [0x76] CHECK_ENTITY_RENDER_FLAGS: Wait until Virnage (ID: 17735786/0x010EA06A) Render.Flags0 and Render.Flags3 conditions are met
 25: 0x0BBD [0x4E] SET_ENTITY_HIDE_FLAG: Show Virnage (ID: 17735786/0x010EA06A)
 26: 0x0BC3 [0x80] LOAD_WAIT(entity=Virnage (ID: 17735786/0x010EA06A))
 27: 0x0BC8 [0x92] Virnage (ID: 17735786/0x010EA06A)->Render.Flags3 ^= 0x01
 28: 0x0BCE [0x45] LOAD_SCHEDULED_TASK: Load scheduler "s050" with entities [EventEntity, EventEntity], work=[25*, 0*]
 29: 0x0BDF [0x45] LOAD_SCHEDULED_TASK: Load scheduler "fdi1" with entities [EventEntity, EventEntity], work=[200*, 0*]
 30: 0x0BF0 [0x2B] Virnage (ID: 17735786/0x010EA06A) [12145*]:
    → "Great Goddess! You were attacked!?"
 31: 0x0BF7 [0x23] WAIT_FOR_DIALOG_INTERACTION
 32: 0x0BF8 [0x52] END_LOAD_SCHEDULER: End scheduler "s050" with entities [EventEntity, EventEntity], work=25*
 33: 0x0C07 [0x02] IF !(Work_Zone[9] == 5*) GOTO 0x0C23
 34: 0x0C0F [0x45] LOAD_SCHEDULED_TASK: Load scheduler "s053" with entities [EventEntity, EventEntity], work=[25*, 0*]
 35: 0x0C20 [0x01] GOTO 0x0C50
 36: 0x0C23 [0x02] IF !(Work_Zone[9] == 6*) GOTO 0x0C3F
 37: 0x0C2B [0x45] LOAD_SCHEDULED_TASK: Load scheduler "s053" with entities [EventEntity, EventEntity], work=[25*, 0*]
 38: 0x0C3C [0x01] GOTO 0x0C50
 39: 0x0C3F [0x45] LOAD_SCHEDULED_TASK: Load scheduler "s051" with entities [EventEntity, EventEntity], work=[25*, 0*]

SUBROUTINE_0C50:
 40: 0x0C50 [0x7B] Virnage (ID: 17735786/0x010EA06A) stops talking
 41: 0x0C55 [0x27] REQ_SET(priority=0x0B, entity_id=Virnage (ID: 17735786/0x010EA06A), tag_num=0x19)
 42: 0x0C5C [0x2B] Virnage (ID: 17735786/0x010EA06A) [12146*]:
    → "Were my hopes in vain? Though they did not ally themselves with the Shadow Lord, these Moblins do live in a world without the blessing of light."
 43: 0x0C63 [0x23] WAIT_FOR_DIALOG_INTERACTION
 44: 0x0C64 [0x2A] GET_REQ_LEVEL(level=11, entity_id=Virnage (ID: 17735786/0x010EA06A))
 45: 0x0C6A [0x2B] Virnage (ID: 17735786/0x010EA06A) [12147*]:
    → "I must conclude that the careful treatment of the holy tome had more to do with its value as a curiosity, rather than as an object of faith."
 46: 0x0C71 [0x23] WAIT_FOR_DIALOG_INTERACTION
 47: 0x0C72 [0x02] IF !(Work_Zone[9] == 5*) GOTO 0x0C8C
 48: 0x0C7A [0x52] END_LOAD_SCHEDULER: End scheduler "s053" with entities [EventEntity, EventEntity], work=25*
 49: 0x0C89 [0x01] GOTO 0x0CB5
 50: 0x0C8C [0x02] IF !(Work_Zone[9] == 6*) GOTO 0x0CA6
 51: 0x0C94 [0x52] END_LOAD_SCHEDULER: End scheduler "s053" with entities [EventEntity, EventEntity], work=25*
 52: 0x0CA3 [0x01] GOTO 0x0CB5
 53: 0x0CA6 [0x52] END_LOAD_SCHEDULER: End scheduler "s051" with entities [EventEntity, EventEntity], work=25*

SUBROUTINE_0CB5:
 54: 0x0CB5 [0x02] IF !(Work_Zone[9] == 5*) GOTO 0x0CD1
 55: 0x0CBD [0x45] LOAD_SCHEDULED_TASK: Load scheduler "s057" with entities [EventEntity, EventEntity], work=[25*, 0*]
 56: 0x0CCE [0x01] GOTO 0x0CFE
 57: 0x0CD1 [0x02] IF !(Work_Zone[9] == 6*) GOTO 0x0CED
 58: 0x0CD9 [0x45] LOAD_SCHEDULED_TASK: Load scheduler "s057" with entities [EventEntity, EventEntity], work=[25*, 0*]
 59: 0x0CEA [0x01] GOTO 0x0CFE
 60: 0x0CED [0x45] LOAD_SCHEDULED_TASK: Load scheduler "s052" with entities [EventEntity, EventEntity], work=[25*, 0*]

SUBROUTINE_0CFE:
 61: 0x0CFE [0x4A] Virnage (ID: 17735786/0x010EA06A) looks at LocalPlayer
 62: 0x0D07 [0x6F] WAIT_FRAME_DELAY: Yield until WaitTime reaches zero
 63: 0x0D08 [0x76] CHECK_ENTITY_RENDER_FLAGS: Wait until Virnage (ID: 17735786/0x010EA06A) Render.Flags0 and Render.Flags3 conditions are met
 64: 0x0D0D [0x29] REQ_SET_WAIT(priority=0x08, entity_id=Virnage (ID: 17735786/0x010EA06A), tag_num=0x12)
 65: 0x0D14 [0x2B] Virnage (ID: 17735786/0x010EA06A) [12148*]:
    → "However, the symbol of the Dawn Goddess in your possession assured you safe passage back to the surface world. Do you not agree?"
 66: 0x0D1B [0x23] WAIT_FOR_DIALOG_INTERACTION
 67: 0x0D1C [0x2B] Virnage (ID: 17735786/0x010EA06A) [12149*]:
    → "What say you? I will make you a gift of the talisman in return for a small donation to the cathedral..."
 68: 0x0D23 [0x23] WAIT_FOR_DIALOG_INTERACTION
 69: 0x0D24 [0x29] REQ_SET_WAIT(priority=0x08, entity_id=Virnage (ID: 17735786/0x010EA06A), tag_num=0x13)
 70: 0x0D2B [0x45] LOAD_SCHEDULED_TASK: Load scheduler "fdo1" with entities [EventEntity, EventEntity], work=[200*, 0*]
 71: 0x0D3C [0x1C] WAIT(60* ticks)
 72: 0x0D3F [0x02] IF !(Work_Zone[9] == 5*) GOTO 0x0D59
 73: 0x0D47 [0x52] END_LOAD_SCHEDULER: End scheduler "s057" with entities [EventEntity, EventEntity], work=25*
 74: 0x0D56 [0x01] GOTO 0x0D82
 75: 0x0D59 [0x02] IF !(Work_Zone[9] == 6*) GOTO 0x0D73
 76: 0x0D61 [0x52] END_LOAD_SCHEDULER: End scheduler "s057" with entities [EventEntity, EventEntity], work=25*
 77: 0x0D70 [0x01] GOTO 0x0D82
 78: 0x0D73 [0x52] END_LOAD_SCHEDULER: End scheduler "s052" with entities [EventEntity, EventEntity], work=25*

SUBROUTINE_0D82:
 79: 0x0D82 [0x45] LOAD_SCHEDULED_TASK: Load scheduler "s054" with entities [EventEntity, EventEntity], work=[25*, 0*]
 80: 0x0D93 [0x45] LOAD_SCHEDULED_TASK: Load scheduler "fdi1" with entities [EventEntity, EventEntity], work=[200*, 0*]
 81: 0x0DA4 [0x02] IF !(Work_Zone[7] == 0*) GOTO 0x0DCD
 82: 0x0DAC [0x2B] Virnage (ID: 17735786/0x010EA06A) [12150*]:
    → "Hm? You say the talisman was taken by a Galka that spoke the Moblin tongue?"
 83: 0x0DB3 [0x23] WAIT_FOR_DIALOG_INTERACTION
 84: 0x0DB4 [0x29] REQ_SET_WAIT(priority=0x08, entity_id=Virnage (ID: 17735786/0x010EA06A), tag_num=0x0C)
 85: 0x0DBB [0x2B] Virnage (ID: 17735786/0x010EA06A) [12151*]:
    → "And he disappeared into the depths of Movalpolos after saving you from the enraged Moblins?"
 86: 0x0DC2 [0x23] WAIT_FOR_DIALOG_INTERACTION
 87: 0x0DC3 [0x29] REQ_SET_WAIT(priority=0x08, entity_id=Virnage (ID: 17735786/0x010EA06A), tag_num=0x0D)
 88: 0x0DCA [0x01] GOTO 0x0DEB
 89: 0x0DCD [0x2B] Virnage (ID: 17735786/0x010EA06A) [12152*]:
    → "Hm? You say the talisman was taken by a Moblin that spoke the common tongue?"
 90: 0x0DD4 [0x23] WAIT_FOR_DIALOG_INTERACTION
 91: 0x0DD5 [0x29] REQ_SET_WAIT(priority=0x08, entity_id=Virnage (ID: 17735786/0x010EA06A), tag_num=0x0C)
 92: 0x0DDC [0x2B] Virnage (ID: 17735786/0x010EA06A) [12153*]:
    → "And he mentioned a Galka had taught him how to speak our language?"
 93: 0x0DE3 [0x23] WAIT_FOR_DIALOG_INTERACTION
 94: 0x0DE4 [0x29] REQ_SET_WAIT(priority=0x08, entity_id=Virnage (ID: 17735786/0x010EA06A), tag_num=0x0D)

SUBROUTINE_0DEB:
 95: 0x0DEB [0x52] END_LOAD_SCHEDULER: End scheduler "s054" with entities [EventEntity, EventEntity], work=25*
 96: 0x0DFA [0x45] LOAD_SCHEDULED_TASK: Load scheduler "s055" with entities [EventEntity, EventEntity], work=[25*, 0*]
 97: 0x0E0B [0x29] REQ_SET_WAIT(priority=0x08, entity_id=Virnage (ID: 17735786/0x010EA06A), tag_num=0x0E)
 98: 0x0E12 [0x2B] Virnage (ID: 17735786/0x010EA06A) [12154*]:
    → "This Galka must be a person of some importance in the Moblin city."
 99: 0x0E19 [0x23] WAIT_FOR_DIALOG_INTERACTION
100: 0x0E1A [0x2B] Virnage (ID: 17735786/0x010EA06A) [12155*]:
    → "Perhaps he was the original owner of the holy tome you retrieved."
101: 0x0E21 [0x23] WAIT_FOR_DIALOG_INTERACTION
102: 0x0E22 [0x29] REQ_SET_WAIT(priority=0x08, entity_id=Virnage (ID: 17735786/0x010EA06A), tag_num=0x0F)
103: 0x0E29 [0x52] END_LOAD_SCHEDULER: End scheduler "s055" with entities [EventEntity, EventEntity], work=25*
104: 0x0E38 [0x02] IF !(Work_Zone[9] == 5*) GOTO 0x0E54
105: 0x0E40 [0x45] LOAD_SCHEDULED_TASK: Load scheduler "s058" with entities [EventEntity, EventEntity], work=[25*, 0*]
106: 0x0E51 [0x01] GOTO 0x0E9D
107: 0x0E54 [0x02] IF !(Work_Zone[9] == 6*) GOTO 0x0E70
108: 0x0E5C [0x45] LOAD_SCHEDULED_TASK: Load scheduler "s058" with entities [EventEntity, EventEntity], work=[25*, 0*]
109: 0x0E6D [0x01] GOTO 0x0E9D
110: 0x0E70 [0x02] IF !(Work_Zone[9] == 8*) GOTO 0x0E8C
111: 0x0E78 [0x45] LOAD_SCHEDULED_TASK: Load scheduler "s056" with entities [EventEntity, EventEntity], work=[25*, 0*]
112: 0x0E89 [0x01] GOTO 0x0E9D
113: 0x0E8C [0x45] LOAD_SCHEDULED_TASK: Load scheduler "s059" with entities [EventEntity, EventEntity], work=[25*, 0*]

SUBROUTINE_0E9D:
114: 0x0E9D [0x7B] Virnage (ID: 17735786/0x010EA06A) stops talking
115: 0x0EA2 [0x27] REQ_SET(priority=0x0B, entity_id=Virnage (ID: 17735786/0x010EA06A), tag_num=0x1A)
116: 0x0EA9 [0x2B] Virnage (ID: 17735786/0x010EA06A) [12156*]:
    → "We must report the existence of this Galka to Ayame of the Mythril Musketeers."
117: 0x0EB0 [0x23] WAIT_FOR_DIALOG_INTERACTION
118: 0x0EB1 [0x2B] Virnage (ID: 17735786/0x010EA06A) [12157*]:
    → "If these beastmen are capable of living alongside people, we cannot simply brand them as villains..."
119: 0x0EB8 [0x23] WAIT_FOR_DIALOG_INTERACTION
120: 0x0EB9 [0x2A] GET_REQ_LEVEL(level=11, entity_id=Virnage (ID: 17735786/0x010EA06A))
121: 0x0EBF [0x4A] Virnage (ID: 17735786/0x010EA06A) looks at LocalPlayer
122: 0x0EC8 [0x6F] WAIT_FRAME_DELAY: Yield until WaitTime reaches zero
123: 0x0EC9 [0x76] CHECK_ENTITY_RENDER_FLAGS: Wait until Virnage (ID: 17735786/0x010EA06A) Render.Flags0 and Render.Flags3 conditions are met
124: 0x0ECE [0x29] REQ_SET_WAIT(priority=0x08, entity_id=Virnage (ID: 17735786/0x010EA06A), tag_num=0x10)
125: 0x0ED5 [0x2B] Virnage (ID: 17735786/0x010EA06A) [12158*]:
    → "Please accept your reward. May Paradise open its gates to you."
126: 0x0EDC [0x23] WAIT_FOR_DIALOG_INTERACTION
127: 0x0EDD [0x29] REQ_SET_WAIT(priority=0x08, entity_id=Virnage (ID: 17735786/0x010EA06A), tag_num=0x11)
128: 0x0EE4 [0x5D] SET_MUSIC_VOLUME(volume=0*, fade_time=120*)
129: 0x0EE9 [0x45] LOAD_SCHEDULED_TASK: Load scheduler "fdo1" with entities [LocalPlayer, LocalPlayer], work=[200*, 0*]
130: 0x0EFA [0x1C] WAIT(120* ticks)
131: 0x0EFD [0x02] IF !(Work_Zone[9] == 5*) GOTO 0x0F17
132: 0x0F05 [0x52] END_LOAD_SCHEDULER: End scheduler "s058" with entities [EventEntity, EventEntity], work=25*
133: 0x0F14 [0x01] GOTO 0x0F5A
134: 0x0F17 [0x02] IF !(Work_Zone[9] == 6*) GOTO 0x0F31
135: 0x0F1F [0x52] END_LOAD_SCHEDULER: End scheduler "s058" with entities [EventEntity, EventEntity], work=25*
136: 0x0F2E [0x01] GOTO 0x0F5A
137: 0x0F31 [0x02] IF !(Work_Zone[9] == 8*) GOTO 0x0F4B
138: 0x0F39 [0x52] END_LOAD_SCHEDULER: End scheduler "s056" with entities [EventEntity, EventEntity], work=25*
139: 0x0F48 [0x01] GOTO 0x0F5A
140: 0x0F4B [0x52] END_LOAD_SCHEDULER: End scheduler "s059" with entities [EventEntity, EventEntity], work=25*

SUBROUTINE_0F5A:
141: 0x0F5A [0x45] LOAD_SCHEDULED_TASK: Load scheduler "qstc" with entities [LocalPlayer, LocalPlayer], work=[201*, 0*]
142: 0x0F6B [0x5C] MUSIC_CONTROL: Set Idle (Day) music to song 152*
143: 0x0F6F [0x5C] MUSIC_CONTROL: Set Idle (Night) music to song 152*
144: 0x0F73 [0x4E] SET_ENTITY_HIDE_FLAG: Show LocalPlayer
145: 0x0F79 [0x80] LOAD_WAIT(entity=LocalPlayer)
146: 0x0F7E [0x46] CAMERA_CONTROL: Restore default settings
147: 0x0F80 [0x45] LOAD_SCHEDULED_TASK: Load scheduler "fdi1" with entities [LocalPlayer, LocalPlayer], work=[200*, 0*]
148: 0x0F91 [0x20] SET_CLI_EVENT_UC_FLAG: Unlock player control
149: 0x0F93 [0x21] END_EVENT
150: 0x0F94 [0x00] END_REQSTACK()
```

### Event 661

#### Metadata

| Field        | Value   |
|--------------|---------|
| Entrypoint   | 0x0F95  |
| Data Size    | 1 bytes |
| Instructions | 1       |

```
      00 01 02 03 04 05 06 07  08 09 0A 0B 0C 0D 0E 0F
      -- -- -- -- -- -- -- --  -- -- -- -- -- -- -- --
0F90:                00                                      .          
```

#### Opcodes

```
  0: 0x0F95 [0x00] END_REQSTACK()
```
