# 17735711 - Azima

## Common Data

| Field            | Value                  |
|------------------|------------------------|
| Zone             | Bastok Mines (ID: 234) |
| Block Size       | 1120 bytes             |
| Total Events     | 5                      |
| References Count | 30                     |

## List of Events

| Event ID              | Entrypoint   |   Size |   Instructions |
|-----------------------|--------------|--------|----------------|
| [65535](#event-65535) | 0x0000       |      1 |              1 |
| [122](#event-122)     | 0x0001       |    450 |            109 |
| [587](#event-587)     | 0x01C3       |      7 |              2 |
| [589](#event-589)     | 0x01CA       |      7 |              2 |
| [541](#event-541)     | 0x01D1       |    497 |            124 |

## DAT References (imed_data)

|   Index | Hex Value   |   Dec Value |
|---------|-------------|-------------|
|       0 | 0x0007      |           7 |
|       1 | 0x0019      |          25 |
|       2 | 0x1C1B      |        7195 |
|       3 | 0x1C1C      |        7196 |
|       4 | 0x0064      |         100 |
|       5 | 0x1BB0      |        7088 |
|       6 | 0x0002      |           2 |
|       7 | 0x0000      |           0 |
|       8 | 0x1BF7      |        7159 |
|       9 | 0x1BB1      |        7089 |
|      10 | 0x0001      |           1 |
|      11 | 0x1BF9      |        7161 |
|      12 | 0x00C8      |         200 |
|      13 | 0x005A      |          90 |
|      14 | 0x1BF8      |        7160 |
|      15 | 0x1BFA      |        7162 |
|      16 | 0x1BB5      |        7093 |
|      17 | 0x1BDB      |        7131 |
|      18 | 0x1BB9      |        7097 |
|      19 | 0x1BB8      |        7096 |
|      20 | 0x1BB7      |        7095 |
|      21 | 0x1BB6      |        7094 |
|      22 | 0x1BFB      |        7163 |
|      23 | 0x1BF6      |        7158 |
|      24 | 0x0003      |           3 |
|      25 | 0x370E      |       14094 |
|      26 | 0x378B      |       14219 |
|      27 | 0x377D      |       14205 |
|      28 | 0x377E      |       14206 |
|      29 | 0x377F      |       14207 |

## String References

- **7088**: Request...? [[Advanced synthesis/Synthesis/Synthesis] image support./Information on synthesis materials./Nothing.]
- **7089**: Image support: $0 gil. [Accept./Decline.]
- **7093**: Necessary skills: [Fishing/Woodworking/Smithing/Goldsmithing/Clothcraft/Leatherworking/Bonecraft/Alchemy/Cooking][ /, Woodworking/, Smithing/, Goldsmithing/, Clothcraft/, Leatherworking/, Bonecraft/, Alchemy/, Cooking][ /, Woodworking/, Smithing/, Goldsmithing/, Clothcraft/, Leatherworking/, Bonecraft/, Alchemy/, Cooking][ /, & Woodworking/, & Smithing/, & Goldsmithing/, & Clothcraft/, & Leatherworking/, & Bonecraft/, & Alchemy/, & Cooking] Necessary crystal: $4 Necessary items:
- **7094**: $4 x $0 $5 x $0$0 $6 x $0 $7 x $0$3
- **7095**: $4 x $0 $5 x $0$0 $6 x $0
- **7096**: $4 x $0 $5 x $0$0
- **7097**: $4 x $0
- **7131**: Necessary skills: [Fishing/Woodworking/Smithing/Goldsmithing/Clothcraft/Leatherworking/Bonecraft/Alchemy/Cooking][ /, Woodworking/, Smithing/, Goldsmithing/, Clothcraft/, Leatherworking/, Bonecraft/, Alchemy/, Cooking][ /, Woodworking/, Smithing/, Goldsmithing/, Clothcraft/, Leatherworking/, Bonecraft/, Alchemy/, Cooking][ /, & Woodworking/, & Smithing/, & Goldsmithing/, & Clothcraft/, & Leatherworking/, & Bonecraft/, & Alchemy/, & Cooking] Necessary crystal: $4 Necessary key item: $3 Necessary items:
- **7158**: Would ya speak up, [sonny/missy]? I can't hear ya with all that racket.
- **7159**: I've already helped ya. Try learning some respect for your elders, [sonny/missy].
- **7160**: Me cataracts may be acting up, but I can see you're trying to pull a fast one, [sonny/missy].
- **7161**: <Cough!> Oh, now maybe I can pay for me operation! Close your eyes and don't peek...
- **7162**: Hmm. A young [lad/lass] like you might want to try $0. You'll need...
- **7163**: If ya ever need me, I'll be right here, [sonny/missy]. Unless I'm on me death bed. Heh-heh-heh <Cough!> <Cough!> heh...
- **7195**: Our young Abd-al-Raziq has ordered in a pile of research journals from his homeland. There're alchemical processes in there that even I've never seen.
- **7196**: Maybe you can teach an old bird new tricks! Heh-heh-heh <Cough!> <Cough!> heh...
- **14094**: Ask if this person is the chick's owner? [Yes./No.]
- **14205**: Eh? Ya say ya've got my chocobo? Is that so?
- **14206**: I'm not sure I heard that right. Could ya speak up, or am I imagining things again?
- **14207**: Ohhh, bless your soul. A young [lad/lass] like you might just be able to use this... Let me tell you a little story, [sonny/missy]...
- **14219**: Eh? Ya say ya've got my chocobo?

## Events

### Event 65535

#### Metadata

| Field        | Value   |
|--------------|---------|
| Entrypoint   | 0x0000  |
| Data Size    | 1 bytes |
| Instructions | 1       |

```
      00 01 02 03 04 05 06 07  08 09 0A 0B 0C 0D 0E 0F
      -- -- -- -- -- -- -- --  -- -- -- -- -- -- -- --
0000: 00                                                .               
```

#### Opcodes

```
  0: 0x0000 [0x00] END_REQSTACK()
```

### Event 122

#### Metadata

| Field        | Value     |
|--------------|-----------|
| Entrypoint   | 0x0001    |
| Data Size    | 450 bytes |
| Instructions | 109       |

```
      00 01 02 03 04 05 06 07  08 09 0A 0B 0C 0D 0E 0F
      -- -- -- -- -- -- -- --  -- -- -- -- -- -- -- --
0000:    3E 05 10 00 80 BD 01  3E 05 10 01 80 12 00 01   >......>.......
0010: 21 00 1D 02 80 23 1D 03  80 23 03 01 10 04 80 21  !....#...#.....!
0020: 00 24 05 80 06 80 07 80  25 02 00 10 07 80 00 9F  .$......%.......
0030: 00 02 07 10 07 80 01 40  00 1D 08 80 23 01 9C 00  .......@....#...
0040: 24 09 80 0A 80 07 80 25  02 00 10 07 80 00 91 00  $......%........
0050: 02 06 10 02 10 04 8A 00  1D 0B 80 23 42 45 0C 80  ...........#BE..
0060: F8 FF FF 7F F8 FF FF 7F  66 64 6F 31 07 80 1C 0D  ........fdo1....
0070: 80 45 0C 80 F8 FF FF 7F  F8 FF FF 7F 66 64 69 31  .E..........fdi1
0080: 07 80 03 01 10 0A 80 01  8E 00 1D 0E 80 23 01 9C  .............#..
0090: 00 02 00 10 0A 80 00 9C  00 01 9C 00 01 BA 01 02  ................
00A0: 00 10 0A 80 00 AF 01 03  08 10 00 80 8C 00 08 10  ................
00B0: 03 10 04 10 8C 01 03 02  10 40 10 1D 0F 80 23 03  .........@....#.
00C0: 03 10 41 10 03 04 10 42  10 03 05 10 43 10 03 06  ..A....B....C...
00D0: 10 44 10 03 07 10 55 10  02 07 10 07 80 00 E7 00  .D....U.........
00E0: 48 10 80 23 01 EB 00 48  11 80 23 03 02 10 45 10  H..#...H..#...E.
00F0: 03 03 10 46 10 03 04 10  47 10 03 05 10 48 10 03  ...F....G....H..
0100: 06 10 4D 10 03 07 10 4E  10 03 08 10 4F 10 03 09  ..M....N....O...
0110: 10 50 10 02 07 10 07 80  00 22 01 48 12 80 23 01  .P.......".H..#.
0120: A8 01 02 08 10 07 80 00  31 01 48 13 80 23 01 A8  ........1.H..#..
0130: 01 02 09 10 07 80 00 40  01 48 14 80 23 01 A8 01  .......@.H..#...
0140: 48 15 80 23 03 02 10 49  10 03 03 10 4A 10 03 04  H..#...I....J...
0150: 10 4B 10 03 05 10 4C 10  03 06 10 51 10 03 07 10  .K....L....Q....
0160: 52 10 03 08 10 53 10 03  09 10 54 10 02 06 10 07  R....S....T.....
0170: 80 00 77 01 01 A8 01 02  07 10 07 80 00 86 01 48  ..w............H
0180: 12 80 23 01 A8 01 02 08  10 07 80 00 95 01 48 13  ..#...........H.
0190: 80 23 01 A8 01 02 09 10  07 80 00 A4 01 48 14 80  .#...........H..
01A0: 23 01 A8 01 48 15 80 23  1D 16 80 23 01 BA 01 02  #...H..#...#....
01B0: 00 10 06 80 00 BA 01 01  BA 01 01 C1 01 1D 17 80  ................
01C0: 23 21 00                                          #!.             
```

#### Opcodes

```
  0: 0x0001 [0x3E] IF !(Work_Zone[5] bit 7*) GOTO 0x01BD
  1: 0x0008 [0x3E] IF !(Work_Zone[5] bit 25*) GOTO 0x0012
  2: 0x000F [0x01] GOTO 0x0021
  3: 0x0012 [0x1D] PRINT_EVENT_MESSAGE(message_id=7195*)
    → "Our young Abd-al-Raziq has ordered in a pile of research journals from his homeland. There're alchemical processes in there that even I've never seen."
  4: 0x0015 [0x23] WAIT_FOR_DIALOG_INTERACTION
  5: 0x0016 [0x1D] PRINT_EVENT_MESSAGE(message_id=7196*)
    → "Maybe you can teach an old bird new tricks! Heh-heh-heh <Cough!> <Cough!> heh..."
  6: 0x0019 [0x23] WAIT_FOR_DIALOG_INTERACTION
  7: 0x001A [0x03] Work_Zone[1] = 100*
  8: 0x001F [0x21] END_EVENT
  9: 0x0020 [0x00] END_REQSTACK()

SUBROUTINE_0021:
 10: 0x0021 [0x24] CREATE_DIALOG(message_id=7088*, default_option=2*, option_flags=0*)
    → "Request...? [[Advanced synthesis/Synthesis/Synthesis] image support./Information on synthesis materials./Nothing.]"
 11: 0x0028 [0x25] WAIT_DIALOG_SELECT()
 12: 0x0029 [0x02] IF !(Work_Zone[0] == 0*) GOTO 0x009F
 13: 0x0031 [0x02] IF !(Work_Zone[7] == 0*) GOTO 0x0040
 14: 0x0039 [0x1D] PRINT_EVENT_MESSAGE(message_id=7159*)
    → "I've already helped ya. Try learning some respect for your elders, [sonny/missy]."
 15: 0x003C [0x23] WAIT_FOR_DIALOG_INTERACTION
 16: 0x003D [0x01] GOTO 0x009C
 17: 0x0040 [0x24] CREATE_DIALOG(message_id=7089*, default_option=1*, option_flags=0*)
    → "Image support: $0 gil. [Accept./Decline.]"
 18: 0x0047 [0x25] WAIT_DIALOG_SELECT()
 19: 0x0048 [0x02] IF !(Work_Zone[0] == 0*) GOTO 0x0091
 20: 0x0050 [0x02] IF !(Work_Zone[6] < Work_Zone[2]) GOTO 0x008A
 21: 0x0058 [0x1D] PRINT_EVENT_MESSAGE(message_id=7161*)
    → "<Cough!> Oh, now maybe I can pay for me operation! Close your eyes and don't peek..."
 22: 0x005B [0x23] WAIT_FOR_DIALOG_INTERACTION
 23: 0x005C [0x42] SET_CLI_EVENT_CANCEL_DATA()
 24: 0x005D [0x45] LOAD_SCHEDULED_TASK: Load scheduler "fdo1" with entities [EventEntity, EventEntity], work=[200*, 0*]
 25: 0x006E [0x1C] WAIT(90* ticks)
 26: 0x0071 [0x45] LOAD_SCHEDULED_TASK: Load scheduler "fdi1" with entities [EventEntity, EventEntity], work=[200*, 0*]
 27: 0x0082 [0x03] Work_Zone[1] = 1*
 28: 0x0087 [0x01] GOTO 0x008E
 29: 0x008A [0x1D] PRINT_EVENT_MESSAGE(message_id=7160*)
    → "Me cataracts may be acting up, but I can see you're trying to pull a fast one, [sonny/missy]."
 30: 0x008D [0x23] WAIT_FOR_DIALOG_INTERACTION

SUBROUTINE_008E:
 31: 0x008E [0x01] GOTO 0x009C
 32: 0x0091 [0x02] IF !(Work_Zone[0] == 1*) GOTO 0x009C
 33: 0x0099 [0x01] GOTO 0x009C

SUBROUTINE_009C:
 34: 0x009C [0x01] GOTO 0x01BA
 35: 0x009F [0x02] IF !(Work_Zone[0] == 1*) GOTO 0x01AF
 36: 0x00A7 [0x03] Work_Zone[8] = 7*
 37: 0x00AC [0x8C] CRAFTING_HANDLER(mode=0x00) // Initialize crafting session
 38: 0x00B4 [0x8C] CRAFTING_HANDLER(mode=0x01) // End crafting session
 39: 0x00B6 [0x03] Work_Zone[2] = Work_Zone[64]
 40: 0x00BB [0x1D] PRINT_EVENT_MESSAGE(message_id=7162*)
    → "Hmm. A young [lad/lass] like you might want to try $0. You'll need..."
 41: 0x00BE [0x23] WAIT_FOR_DIALOG_INTERACTION
 42: 0x00BF [0x03] Work_Zone[3] = Work_Zone[65]
 43: 0x00C4 [0x03] Work_Zone[4] = Work_Zone[66]
 44: 0x00C9 [0x03] Work_Zone[5] = Work_Zone[67]
 45: 0x00CE [0x03] Work_Zone[6] = Work_Zone[68]
 46: 0x00D3 [0x03] Work_Zone[7] = Work_Zone[85]
 47: 0x00D8 [0x02] IF !(Work_Zone[7] == 0*) GOTO 0x00E7
 48: 0x00E0 [0x48] [System] [7093*]:
    → "Necessary skills: [Fishing/Woodworking/Smithing/Goldsmithing/Clothcraft/Leatherworking/Bonecraft/Alchemy/Cooking][ /, Woodworking/, Smithing/, Goldsmithing/, Clothcraft/, Leatherworking/, Bonecraft/, Alchemy/, Cooking][ /, Woodworking/, Smithing/, Goldsmithing/, Clothcraft/, Leatherworking/, Bonecraft/, Alchemy/, Cooking][ /, & Woodworking/, & Smithing/, & Goldsmithing/, & Clothcraft/, & Leatherworking/, & Bonecraft/, & Alchemy/, & Cooking] Necessary crystal: $4 Necessary items:"
 49: 0x00E3 [0x23] WAIT_FOR_DIALOG_INTERACTION
 50: 0x00E4 [0x01] GOTO 0x00EB
 51: 0x00E7 [0x48] [System] [7131*]:
    → "Necessary skills: [Fishing/Woodworking/Smithing/Goldsmithing/Clothcraft/Leatherworking/Bonecraft/Alchemy/Cooking][ /, Woodworking/, Smithing/, Goldsmithing/, Clothcraft/, Leatherworking/, Bonecraft/, Alchemy/, Cooking][ /, Woodworking/, Smithing/, Goldsmithing/, Clothcraft/, Leatherworking/, Bonecraft/, Alchemy/, Cooking][ /, & Woodworking/, & Smithing/, & Goldsmithing/, & Clothcraft/, & Leatherworking/, & Bonecraft/, & Alchemy/, & Cooking] Necessary crystal: $4 Necessary key item: $3 Necessary items:"
 52: 0x00EA [0x23] WAIT_FOR_DIALOG_INTERACTION

SUBROUTINE_00EB:
 53: 0x00EB [0x03] Work_Zone[2] = Work_Zone[69]
 54: 0x00F0 [0x03] Work_Zone[3] = Work_Zone[70]
 55: 0x00F5 [0x03] Work_Zone[4] = Work_Zone[71]
 56: 0x00FA [0x03] Work_Zone[5] = Work_Zone[72]
 57: 0x00FF [0x03] Work_Zone[6] = Work_Zone[77]
 58: 0x0104 [0x03] Work_Zone[7] = Work_Zone[78]
 59: 0x0109 [0x03] Work_Zone[8] = Work_Zone[79]
 60: 0x010E [0x03] Work_Zone[9] = Work_Zone[80]
 61: 0x0113 [0x02] IF !(Work_Zone[7] == 0*) GOTO 0x0122
 62: 0x011B [0x48] [System] [7097*]:
    → "$4 x $0"
 63: 0x011E [0x23] WAIT_FOR_DIALOG_INTERACTION
 64: 0x011F [0x01] GOTO 0x01A8
 65: 0x0122 [0x02] IF !(Work_Zone[8] == 0*) GOTO 0x0131
 66: 0x012A [0x48] [System] [7096*]:
    → "$4 x $0 $5 x $0$0"
 67: 0x012D [0x23] WAIT_FOR_DIALOG_INTERACTION
 68: 0x012E [0x01] GOTO 0x01A8
 69: 0x0131 [0x02] IF !(Work_Zone[9] == 0*) GOTO 0x0140
 70: 0x0139 [0x48] [System] [7095*]:
    → "$4 x $0 $5 x $0$0 $6 x $0"
 71: 0x013C [0x23] WAIT_FOR_DIALOG_INTERACTION
 72: 0x013D [0x01] GOTO 0x01A8
 73: 0x0140 [0x48] [System] [7094*]:
    → "$4 x $0 $5 x $0$0 $6 x $0 $7 x $0$3"
 74: 0x0143 [0x23] WAIT_FOR_DIALOG_INTERACTION
 75: 0x0144 [0x03] Work_Zone[2] = Work_Zone[73]
 76: 0x0149 [0x03] Work_Zone[3] = Work_Zone[74]
 77: 0x014E [0x03] Work_Zone[4] = Work_Zone[75]
 78: 0x0153 [0x03] Work_Zone[5] = Work_Zone[76]
 79: 0x0158 [0x03] Work_Zone[6] = Work_Zone[81]
 80: 0x015D [0x03] Work_Zone[7] = Work_Zone[82]
 81: 0x0162 [0x03] Work_Zone[8] = Work_Zone[83]
 82: 0x0167 [0x03] Work_Zone[9] = Work_Zone[84]
 83: 0x016C [0x02] IF !(Work_Zone[6] == 0*) GOTO 0x0177
 84: 0x0174 [0x01] GOTO 0x01A8
 85: 0x0177 [0x02] IF !(Work_Zone[7] == 0*) GOTO 0x0186
 86: 0x017F [0x48] [System] [7097*]:
    → "$4 x $0"
 87: 0x0182 [0x23] WAIT_FOR_DIALOG_INTERACTION
 88: 0x0183 [0x01] GOTO 0x01A8
 89: 0x0186 [0x02] IF !(Work_Zone[8] == 0*) GOTO 0x0195
 90: 0x018E [0x48] [System] [7096*]:
    → "$4 x $0 $5 x $0$0"
 91: 0x0191 [0x23] WAIT_FOR_DIALOG_INTERACTION
 92: 0x0192 [0x01] GOTO 0x01A8
 93: 0x0195 [0x02] IF !(Work_Zone[9] == 0*) GOTO 0x01A4
 94: 0x019D [0x48] [System] [7095*]:
    → "$4 x $0 $5 x $0$0 $6 x $0"
 95: 0x01A0 [0x23] WAIT_FOR_DIALOG_INTERACTION
 96: 0x01A1 [0x01] GOTO 0x01A8
 97: 0x01A4 [0x48] [System] [7094*]:
    → "$4 x $0 $5 x $0$0 $6 x $0 $7 x $0$3"
 98: 0x01A7 [0x23] WAIT_FOR_DIALOG_INTERACTION

SUBROUTINE_01A8:
 99: 0x01A8 [0x1D] PRINT_EVENT_MESSAGE(message_id=7163*)
    → "If ya ever need me, I'll be right here, [sonny/missy]. Unless I'm on me death bed. Heh-heh-heh <Cough!> <Cough!> heh..."
100: 0x01AB [0x23] WAIT_FOR_DIALOG_INTERACTION
101: 0x01AC [0x01] GOTO 0x01BA
102: 0x01AF [0x02] IF !(Work_Zone[0] == 2*) GOTO 0x01BA
103: 0x01B7 [0x01] GOTO 0x01BA

SUBROUTINE_01BA:
104: 0x01BA [0x01] GOTO 0x01C1
105: 0x01BD [0x1D] PRINT_EVENT_MESSAGE(message_id=7158*)
    → "Would ya speak up, [sonny/missy]? I can't hear ya with all that racket."
106: 0x01C0 [0x23] WAIT_FOR_DIALOG_INTERACTION

SUBROUTINE_01C1:
107: 0x01C1 [0x21] END_EVENT
108: 0x01C2 [0x00] END_REQSTACK()
```

### Event 587

#### Metadata

| Field        | Value   |
|--------------|---------|
| Entrypoint   | 0x01C3  |
| Data Size    | 7 bytes |
| Instructions | 2       |

```
      00 01 02 03 04 05 06 07  08 09 0A 0B 0C 0D 0E 0F
      -- -- -- -- -- -- -- --  -- -- -- -- -- -- -- --
01C0:          92 01 F8 FF FF  7F 00                       .......      
```

#### Opcodes

```
  0: 0x01C3 [0x92] EventEntity->Render.Flags3 ^= 0x01
  1: 0x01C9 [0x00] END_REQSTACK()
```

### Event 589

#### Metadata

| Field        | Value   |
|--------------|---------|
| Entrypoint   | 0x01CA  |
| Data Size    | 7 bytes |
| Instructions | 2       |

```
      00 01 02 03 04 05 06 07  08 09 0A 0B 0C 0D 0E 0F
      -- -- -- -- -- -- -- --  -- -- -- -- -- -- -- --
01C0:                                92 01 F8 FF FF 7F            ......
01D0: 00                                                .               
```

#### Opcodes

```
  0: 0x01CA [0x92] EventEntity->Render.Flags3 ^= 0x01
  1: 0x01D0 [0x00] END_REQSTACK()
```

### Event 541

#### Metadata

| Field        | Value     |
|--------------|-----------|
| Entrypoint   | 0x01D1    |
| Data Size    | 497 bytes |
| Instructions | 124       |

```
      00 01 02 03 04 05 06 07  08 09 0A 0B 0C 0D 0E 0F
      -- -- -- -- -- -- -- --  -- -- -- -- -- -- -- --
01D0:    42 03 01 10 07 80 3E  05 10 00 80 7F 03 3E 05   B.....>......>.
01E0: 10 01 80 6D 03 24 05 80  06 80 07 80 25 02 00 10  ...m.$......%...
01F0: 07 80 00 5A 02 02 07 10  07 80 01 04 02 1D 08 80  ...Z............
0200: 23 01 57 02 24 09 80 0A  80 07 80 25 02 00 10 07  #.W.$......%....
0210: 80 00 57 02 02 06 10 02  10 04 50 02 1D 0B 80 23  ..W.......P....#
0220: 42 45 0C 80 F8 FF FF 7F  F8 FF FF 7F 66 64 6F 31  BE..........fdo1
0230: 07 80 1C 0D 80 45 0C 80  F8 FF FF 7F F8 FF FF 7F  .....E..........
0240: 66 64 69 31 07 80 3C 01  10 0A 80 0A 80 01 54 02  fdi1..<.......T.
0250: 1D 0E 80 23 01 57 02 01  6A 03 02 00 10 0A 80 00  ...#.W..j.......
0260: 6A 03 03 08 10 00 80 8C  00 08 10 03 10 04 10 8C  j...............
0270: 01 03 02 10 40 10 1D 0F  80 23 03 03 10 41 10 03  ....@....#...A..
0280: 04 10 42 10 03 05 10 43  10 03 06 10 44 10 03 07  ..B....C....D...
0290: 10 55 10 02 07 10 07 80  00 A2 02 48 10 80 23 01  .U.........H..#.
02A0: A6 02 48 11 80 23 03 02  10 45 10 03 03 10 46 10  ..H..#...E....F.
02B0: 03 04 10 47 10 03 05 10  48 10 03 06 10 4D 10 03  ...G....H....M..
02C0: 07 10 4E 10 03 08 10 4F  10 03 09 10 50 10 02 07  ..N....O....P...
02D0: 10 07 80 00 DD 02 48 12  80 23 01 63 03 02 08 10  ......H..#.c....
02E0: 07 80 00 EC 02 48 13 80  23 01 63 03 02 09 10 07  .....H..#.c.....
02F0: 80 00 FB 02 48 14 80 23  01 63 03 48 15 80 23 03  ....H..#.c.H..#.
0300: 02 10 49 10 03 03 10 4A  10 03 04 10 4B 10 03 05  ..I....J....K...
0310: 10 4C 10 03 06 10 51 10  03 07 10 52 10 03 08 10  .L....Q....R....
0320: 53 10 03 09 10 54 10 02  06 10 07 80 00 32 03 01  S....T.......2..
0330: 63 03 02 07 10 07 80 00  41 03 48 12 80 23 01 63  c.......A.H..#.c
0340: 03 02 08 10 07 80 00 50  03 48 13 80 23 01 63 03  .......P.H..#.c.
0350: 02 09 10 07 80 00 5F 03  48 14 80 23 01 63 03 48  ......_.H..#.c.H
0360: 15 80 23 1D 16 80 23 01  6A 03 01 7C 03 1D 02 80  ..#...#.j..|....
0370: 23 1D 03 80 23 3C 01 10  18 80 0A 80 01 83 03 1D  #...#<..........
0380: 17 80 23 24 19 80 0A 80  07 80 25 02 00 10 07 80  ..#$......%.....
0390: 00 C0 03 3C 01 10 06 80  0A 80 43 00 43 01 02 08  ...<......C.C...
03A0: 10 07 80 00 B1 03 1D 1A  80 23 1D 08 80 23 01 BD  .........#...#..
03B0: 03 1D 1B 80 23 1D 1C 80  23 1D 1D 80 23 01 C0 03  ....#...#...#...
03C0: 21 00                                             !.              
```

#### Opcodes

```
  0: 0x01D1 [0x42] SET_CLI_EVENT_CANCEL_DATA()
  1: 0x01D2 [0x03] Work_Zone[1] = 0*
  2: 0x01D7 [0x3E] IF !(Work_Zone[5] bit 7*) GOTO 0x037F
  3: 0x01DE [0x3E] IF !(Work_Zone[5] bit 25*) GOTO 0x036D
  4: 0x01E5 [0x24] CREATE_DIALOG(message_id=7088*, default_option=2*, option_flags=0*)
    → "Request...? [[Advanced synthesis/Synthesis/Synthesis] image support./Information on synthesis materials./Nothing.]"
  5: 0x01EC [0x25] WAIT_DIALOG_SELECT()
  6: 0x01ED [0x02] IF !(Work_Zone[0] == 0*) GOTO 0x025A
  7: 0x01F5 [0x02] IF !(Work_Zone[7] == 0*) GOTO 0x0204
  8: 0x01FD [0x1D] PRINT_EVENT_MESSAGE(message_id=7159*)
    → "I've already helped ya. Try learning some respect for your elders, [sonny/missy]."
  9: 0x0200 [0x23] WAIT_FOR_DIALOG_INTERACTION
 10: 0x0201 [0x01] GOTO 0x0257
 11: 0x0204 [0x24] CREATE_DIALOG(message_id=7089*, default_option=1*, option_flags=0*)
    → "Image support: $0 gil. [Accept./Decline.]"
 12: 0x020B [0x25] WAIT_DIALOG_SELECT()
 13: 0x020C [0x02] IF !(Work_Zone[0] == 0*) GOTO 0x0257
 14: 0x0214 [0x02] IF !(Work_Zone[6] < Work_Zone[2]) GOTO 0x0250
 15: 0x021C [0x1D] PRINT_EVENT_MESSAGE(message_id=7161*)
    → "<Cough!> Oh, now maybe I can pay for me operation! Close your eyes and don't peek..."
 16: 0x021F [0x23] WAIT_FOR_DIALOG_INTERACTION
 17: 0x0220 [0x42] SET_CLI_EVENT_CANCEL_DATA()
 18: 0x0221 [0x45] LOAD_SCHEDULED_TASK: Load scheduler "fdo1" with entities [EventEntity, EventEntity], work=[200*, 0*]
 19: 0x0232 [0x1C] WAIT(90* ticks)
 20: 0x0235 [0x45] LOAD_SCHEDULED_TASK: Load scheduler "fdi1" with entities [EventEntity, EventEntity], work=[200*, 0*]
 21: 0x0246 [0x3C] SET_BIT_FLAG_CONDITIONAL(target_work_offset=Work_Zone[1], bit_index_work_offset=1*, condition_work_offset=1*)
 22: 0x024D [0x01] GOTO 0x0254
 23: 0x0250 [0x1D] PRINT_EVENT_MESSAGE(message_id=7160*)
    → "Me cataracts may be acting up, but I can see you're trying to pull a fast one, [sonny/missy]."
 24: 0x0253 [0x23] WAIT_FOR_DIALOG_INTERACTION

SUBROUTINE_0254:
 25: 0x0254 [0x01] GOTO 0x0257

SUBROUTINE_0257:
 26: 0x0257 [0x01] GOTO 0x036A
 27: 0x025A [0x02] IF !(Work_Zone[0] == 1*) GOTO 0x036A
 28: 0x0262 [0x03] Work_Zone[8] = 7*
 29: 0x0267 [0x8C] CRAFTING_HANDLER(mode=0x00) // Initialize crafting session
 30: 0x026F [0x8C] CRAFTING_HANDLER(mode=0x01) // End crafting session
 31: 0x0271 [0x03] Work_Zone[2] = Work_Zone[64]
 32: 0x0276 [0x1D] PRINT_EVENT_MESSAGE(message_id=7162*)
    → "Hmm. A young [lad/lass] like you might want to try $0. You'll need..."
 33: 0x0279 [0x23] WAIT_FOR_DIALOG_INTERACTION
 34: 0x027A [0x03] Work_Zone[3] = Work_Zone[65]
 35: 0x027F [0x03] Work_Zone[4] = Work_Zone[66]
 36: 0x0284 [0x03] Work_Zone[5] = Work_Zone[67]
 37: 0x0289 [0x03] Work_Zone[6] = Work_Zone[68]
 38: 0x028E [0x03] Work_Zone[7] = Work_Zone[85]
 39: 0x0293 [0x02] IF !(Work_Zone[7] == 0*) GOTO 0x02A2
 40: 0x029B [0x48] [System] [7093*]:
    → "Necessary skills: [Fishing/Woodworking/Smithing/Goldsmithing/Clothcraft/Leatherworking/Bonecraft/Alchemy/Cooking][ /, Woodworking/, Smithing/, Goldsmithing/, Clothcraft/, Leatherworking/, Bonecraft/, Alchemy/, Cooking][ /, Woodworking/, Smithing/, Goldsmithing/, Clothcraft/, Leatherworking/, Bonecraft/, Alchemy/, Cooking][ /, & Woodworking/, & Smithing/, & Goldsmithing/, & Clothcraft/, & Leatherworking/, & Bonecraft/, & Alchemy/, & Cooking] Necessary crystal: $4 Necessary items:"
 41: 0x029E [0x23] WAIT_FOR_DIALOG_INTERACTION
 42: 0x029F [0x01] GOTO 0x02A6
 43: 0x02A2 [0x48] [System] [7131*]:
    → "Necessary skills: [Fishing/Woodworking/Smithing/Goldsmithing/Clothcraft/Leatherworking/Bonecraft/Alchemy/Cooking][ /, Woodworking/, Smithing/, Goldsmithing/, Clothcraft/, Leatherworking/, Bonecraft/, Alchemy/, Cooking][ /, Woodworking/, Smithing/, Goldsmithing/, Clothcraft/, Leatherworking/, Bonecraft/, Alchemy/, Cooking][ /, & Woodworking/, & Smithing/, & Goldsmithing/, & Clothcraft/, & Leatherworking/, & Bonecraft/, & Alchemy/, & Cooking] Necessary crystal: $4 Necessary key item: $3 Necessary items:"
 44: 0x02A5 [0x23] WAIT_FOR_DIALOG_INTERACTION

SUBROUTINE_02A6:
 45: 0x02A6 [0x03] Work_Zone[2] = Work_Zone[69]
 46: 0x02AB [0x03] Work_Zone[3] = Work_Zone[70]
 47: 0x02B0 [0x03] Work_Zone[4] = Work_Zone[71]
 48: 0x02B5 [0x03] Work_Zone[5] = Work_Zone[72]
 49: 0x02BA [0x03] Work_Zone[6] = Work_Zone[77]
 50: 0x02BF [0x03] Work_Zone[7] = Work_Zone[78]
 51: 0x02C4 [0x03] Work_Zone[8] = Work_Zone[79]
 52: 0x02C9 [0x03] Work_Zone[9] = Work_Zone[80]
 53: 0x02CE [0x02] IF !(Work_Zone[7] == 0*) GOTO 0x02DD
 54: 0x02D6 [0x48] [System] [7097*]:
    → "$4 x $0"
 55: 0x02D9 [0x23] WAIT_FOR_DIALOG_INTERACTION
 56: 0x02DA [0x01] GOTO 0x0363
 57: 0x02DD [0x02] IF !(Work_Zone[8] == 0*) GOTO 0x02EC
 58: 0x02E5 [0x48] [System] [7096*]:
    → "$4 x $0 $5 x $0$0"
 59: 0x02E8 [0x23] WAIT_FOR_DIALOG_INTERACTION
 60: 0x02E9 [0x01] GOTO 0x0363
 61: 0x02EC [0x02] IF !(Work_Zone[9] == 0*) GOTO 0x02FB
 62: 0x02F4 [0x48] [System] [7095*]:
    → "$4 x $0 $5 x $0$0 $6 x $0"
 63: 0x02F7 [0x23] WAIT_FOR_DIALOG_INTERACTION
 64: 0x02F8 [0x01] GOTO 0x0363
 65: 0x02FB [0x48] [System] [7094*]:
    → "$4 x $0 $5 x $0$0 $6 x $0 $7 x $0$3"
 66: 0x02FE [0x23] WAIT_FOR_DIALOG_INTERACTION
 67: 0x02FF [0x03] Work_Zone[2] = Work_Zone[73]
 68: 0x0304 [0x03] Work_Zone[3] = Work_Zone[74]
 69: 0x0309 [0x03] Work_Zone[4] = Work_Zone[75]
 70: 0x030E [0x03] Work_Zone[5] = Work_Zone[76]
 71: 0x0313 [0x03] Work_Zone[6] = Work_Zone[81]
 72: 0x0318 [0x03] Work_Zone[7] = Work_Zone[82]
 73: 0x031D [0x03] Work_Zone[8] = Work_Zone[83]
 74: 0x0322 [0x03] Work_Zone[9] = Work_Zone[84]
 75: 0x0327 [0x02] IF !(Work_Zone[6] == 0*) GOTO 0x0332
 76: 0x032F [0x01] GOTO 0x0363
 77: 0x0332 [0x02] IF !(Work_Zone[7] == 0*) GOTO 0x0341
 78: 0x033A [0x48] [System] [7097*]:
    → "$4 x $0"
 79: 0x033D [0x23] WAIT_FOR_DIALOG_INTERACTION
 80: 0x033E [0x01] GOTO 0x0363
 81: 0x0341 [0x02] IF !(Work_Zone[8] == 0*) GOTO 0x0350
 82: 0x0349 [0x48] [System] [7096*]:
    → "$4 x $0 $5 x $0$0"
 83: 0x034C [0x23] WAIT_FOR_DIALOG_INTERACTION
 84: 0x034D [0x01] GOTO 0x0363
 85: 0x0350 [0x02] IF !(Work_Zone[9] == 0*) GOTO 0x035F
 86: 0x0358 [0x48] [System] [7095*]:
    → "$4 x $0 $5 x $0$0 $6 x $0"
 87: 0x035B [0x23] WAIT_FOR_DIALOG_INTERACTION
 88: 0x035C [0x01] GOTO 0x0363
 89: 0x035F [0x48] [System] [7094*]:
    → "$4 x $0 $5 x $0$0 $6 x $0 $7 x $0$3"
 90: 0x0362 [0x23] WAIT_FOR_DIALOG_INTERACTION

SUBROUTINE_0363:
 91: 0x0363 [0x1D] PRINT_EVENT_MESSAGE(message_id=7163*)
    → "If ya ever need me, I'll be right here, [sonny/missy]. Unless I'm on me death bed. Heh-heh-heh <Cough!> <Cough!> heh..."
 92: 0x0366 [0x23] WAIT_FOR_DIALOG_INTERACTION
 93: 0x0367 [0x01] GOTO 0x036A

SUBROUTINE_036A:
 94: 0x036A [0x01] GOTO 0x037C
 95: 0x036D [0x1D] PRINT_EVENT_MESSAGE(message_id=7195*)
    → "Our young Abd-al-Raziq has ordered in a pile of research journals from his homeland. There're alchemical processes in there that even I've never seen."
 96: 0x0370 [0x23] WAIT_FOR_DIALOG_INTERACTION
 97: 0x0371 [0x1D] PRINT_EVENT_MESSAGE(message_id=7196*)
    → "Maybe you can teach an old bird new tricks! Heh-heh-heh <Cough!> <Cough!> heh..."
 98: 0x0374 [0x23] WAIT_FOR_DIALOG_INTERACTION
 99: 0x0375 [0x3C] SET_BIT_FLAG_CONDITIONAL(target_work_offset=Work_Zone[1], bit_index_work_offset=3*, condition_work_offset=1*)

SUBROUTINE_037C:
100: 0x037C [0x01] GOTO 0x0383
101: 0x037F [0x1D] PRINT_EVENT_MESSAGE(message_id=7158*)
    → "Would ya speak up, [sonny/missy]? I can't hear ya with all that racket."
102: 0x0382 [0x23] WAIT_FOR_DIALOG_INTERACTION

SUBROUTINE_0383:
103: 0x0383 [0x24] CREATE_DIALOG(message_id=14094*, default_option=1*, option_flags=0*)
    → "Ask if this person is the chick's owner? [Yes./No.]"
104: 0x038A [0x25] WAIT_DIALOG_SELECT()
105: 0x038B [0x02] IF !(Work_Zone[0] == 0*) GOTO 0x03C0
106: 0x0393 [0x3C] SET_BIT_FLAG_CONDITIONAL(target_work_offset=Work_Zone[1], bit_index_work_offset=2*, condition_work_offset=1*)
107: 0x039A [0x43] SEND_EVENT_UPDATE: Send pending tag to server (packet 0x005B)
108: 0x039C [0x43] SEND_EVENT_UPDATE: Check pending flag (skip if not pending)
109: 0x039E [0x02] IF !(Work_Zone[8] == 0*) GOTO 0x03B1
110: 0x03A6 [0x1D] PRINT_EVENT_MESSAGE(message_id=14219*)
    → "Eh? Ya say ya've got my chocobo?"
111: 0x03A9 [0x23] WAIT_FOR_DIALOG_INTERACTION
112: 0x03AA [0x1D] PRINT_EVENT_MESSAGE(message_id=7159*)
    → "I've already helped ya. Try learning some respect for your elders, [sonny/missy]."
113: 0x03AD [0x23] WAIT_FOR_DIALOG_INTERACTION
114: 0x03AE [0x01] GOTO 0x03BD
115: 0x03B1 [0x1D] PRINT_EVENT_MESSAGE(message_id=14205*)
    → "Eh? Ya say ya've got my chocobo? Is that so?"
116: 0x03B4 [0x23] WAIT_FOR_DIALOG_INTERACTION
117: 0x03B5 [0x1D] PRINT_EVENT_MESSAGE(message_id=14206*)
    → "I'm not sure I heard that right. Could ya speak up, or am I imagining things again?"
118: 0x03B8 [0x23] WAIT_FOR_DIALOG_INTERACTION
119: 0x03B9 [0x1D] PRINT_EVENT_MESSAGE(message_id=14207*)
    → "Ohhh, bless your soul. A young [lad/lass] like you might just be able to use this... Let me tell you a little story, [sonny/missy]..."
120: 0x03BC [0x23] WAIT_FOR_DIALOG_INTERACTION

SUBROUTINE_03BD:
121: 0x03BD [0x01] GOTO 0x03C0

SUBROUTINE_03C0:
122: 0x03C0 [0x21] END_EVENT
123: 0x03C1 [0x00] END_REQSTACK()
```
