# 17735815

## Common Data

| Field            | Value                  |
|------------------|------------------------|
| Zone             | Bastok Mines (ID: 234) |
| Block Size       | 184 bytes              |
| Total Events     | 5                      |
| References Count | 16                     |

## List of Events

| Event ID                 | Entrypoint   |   Size |   Instructions |
|--------------------------|--------------|--------|----------------|
| [65535](#event-65535)    | 0x0000       |      1 |              1 |
| [245](#event-245)        | 0x0001       |      1 |              1 |
| [65535.1](#event-655351) | 0x0002       |     18 |              4 |
| [65535.2](#event-655352) | 0x0014       |     22 |              4 |
| [65535.3](#event-655353) | 0x002A       |     41 |              9 |

## DAT References (imed_data)

|   Index | Hex Value   |   Dec Value |
|---------|-------------|-------------|
|       0 | 0x0000      |           0 |
|       1 | 0x0001      |           1 |
|       2 | 0xFFFFEA1C  |  4294961692 |
|       3 | 0xFFFE4BA4  |  4294855588 |
|       4 | 0xFFFFFC19  |  4294966297 |
|       5 | 0x0551      |        1361 |
|       6 | 0x001B      |          27 |
|       7 | 0xFFFFD96C  |  4294957420 |
|       8 | 0xFFFE35E4  |  4294850020 |
|       9 | 0xFFFFFC18  |  4294966296 |
|      10 | 0xFFFFC220  |  4294951456 |
|      11 | 0xFFFE0257  |  4294836823 |
|      12 | 0xFFFFFA25  |  4294965797 |
|      13 | 0x200A      |        8202 |
|      14 | 0xFFFE22E8  |  4294845160 |
|      15 | 0x0BDC      |        3036 |

## Events

### Event 65535

#### Metadata

| Field        | Value   |
|--------------|---------|
| Entrypoint   | 0x0000  |
| Data Size    | 1 bytes |
| Instructions | 1       |

```
      00 01 02 03 04 05 06 07  08 09 0A 0B 0C 0D 0E 0F
      -- -- -- -- -- -- -- --  -- -- -- -- -- -- -- --
0000: 00                                                .               
```

#### Opcodes

```
  0: 0x0000 [0x00] END_REQSTACK()
```

### Event 245

#### Metadata

| Field        | Value   |
|--------------|---------|
| Entrypoint   | 0x0001  |
| Data Size    | 1 bytes |
| Instructions | 1       |

```
      00 01 02 03 04 05 06 07  08 09 0A 0B 0C 0D 0E 0F
      -- -- -- -- -- -- -- --  -- -- -- -- -- -- -- --
0000:    00                                              .              
```

#### Opcodes

```
  0: 0x0001 [0x00] END_REQSTACK()
```

### Event 65535.1

#### Metadata

| Field        | Value    |
|--------------|----------|
| Entrypoint   | 0x0002   |
| Data Size    | 18 bytes |
| Instructions | 4        |

```
      00 01 02 03 04 05 06 07  08 09 0A 0B 0C 0D 0E 0F
      -- -- -- -- -- -- -- --  -- -- -- -- -- -- -- --
0000:       22 00 2F 00 F8 FF  FF 7F 6C F8 FF FF 7F 00    "./.....l.....
0010: 80 01 80 00                                       ....            
```

#### Opcodes

```
  0: 0x0002 [0x22] ENTITY_HIDE_FLAG(enabled=0x00)
  1: 0x0004 [0x2F] EventEntity->Render.Flags0 &= ~0x80000 // Bit 19
  2: 0x000A [0x6C] FADE_ENTITY_COLOR(entity_id=EventEntity, end_alpha=0*, fade_time=1*)
  3: 0x0013 [0x00] END_REQSTACK()
```

### Event 65535.2

#### Metadata

| Field        | Value    |
|--------------|----------|
| Entrypoint   | 0x0014   |
| Data Size    | 22 bytes |
| Instructions | 4        |

```
      00 01 02 03 04 05 06 07  08 09 0A 0B 0C 0D 0E 0F
      -- -- -- -- -- -- -- --  -- -- -- -- -- -- -- --
0010:             37 02 80 03  80 04 80 05 80 7E 01 F8      7........~..
0020: FF FF 7F 7E 02 F8 FF FF  7F 00                    ...~......      
```

#### Opcodes

```
  0: 0x0014 [0x37] UPDATE_EVENT_POSITION_AND_DIR: x=-5.604*, z=-111.708*, y=-0.999*, direction=119.6°*
  1: 0x001D [0x7E] CHOCOBO_MOUNT: Mount chocobo on EventEntity (status = 5)
  2: 0x0023 [0x7E] CHOCOBO_MOUNT: Execute attachment function on EventEntity
  3: 0x0029 [0x00] END_REQSTACK()
```

### Event 65535.3

#### Metadata

| Field        | Value    |
|--------------|----------|
| Entrypoint   | 0x002A   |
| Data Size    | 41 bytes |
| Instructions | 9        |

```
      00 01 02 03 04 05 06 07  08 09 0A 0B 0C 0D 0E 0F
      -- -- -- -- -- -- -- --  -- -- -- -- -- -- -- --
0020:                                32 06 80 1F 00 07            2.....
0030: 80 08 80 09 80 1F 01 27  10 06 A0 0E 01 10 1F 00  .......'........
0040: 0A 80 0B 80 0C 80 1F 01  6F 37 0D 80 0E 80 00 80  ........o7......
0050: 0F 80 00                                          ...             
```

#### Opcodes

```
  0: 0x002A [0x32] ExtData[1]->MainSpeed = 27* * 0.1
  1: 0x002D [0x1F] MOVE_ENTITY: EventEntity moves to X=-9.876*, Z=-117.276*, Y=-1.000*
  2: 0x0035 [0x1F] MOVE_ENTITY: Update entity position (mode=1)
  3: 0x0037 [0x27] REQ_SET(priority=0x10, entity_id=Rashid (ID: 17735686/0x010EA006), tag_num=0x10)
  4: 0x003E [0x1F] MOVE_ENTITY: EventEntity moves to X=-15.840*, Z=-130.473*, Y=-1.499*
  5: 0x0046 [0x1F] MOVE_ENTITY: Update entity position (mode=1)
  6: 0x0048 [0x6F] WAIT_FRAME_DELAY: Yield until WaitTime reaches zero
  7: 0x0049 [0x37] UPDATE_EVENT_POSITION_AND_DIR: x=8.202*, z=-122.136*, y=0.000*, direction=266.8°*
  8: 0x0052 [0x00] END_REQSTACK()
```
