# 17735726 - Griselda

## Common Data

| Field            | Value                  |
|------------------|------------------------|
| Zone             | Bastok Mines (ID: 234) |
| Block Size       | 244 bytes              |
| Total Events     | 4                      |
| References Count | 16                     |

## List of Events

| Event ID              | Entrypoint   |   Size |   Instructions |
|-----------------------|--------------|--------|----------------|
| [65535](#event-65535) | 0x0000       |      1 |              1 |
| [1](#event-1)         | 0x0001       |     10 |              2 |
| [507](#event-507)     | 0x000B       |     37 |             11 |
| [538](#event-538)     | 0x0030       |    100 |             26 |

## DAT References (imed_data)

|   Index | Hex Value   |   Dec Value |
|---------|-------------|-------------|
|       0 | 0xFFFFD182  |  4294955394 |
|       1 | 0xFFFE6A91  |  4294863505 |
|       2 | 0x0000      |           0 |
|       3 | 0x0EB9      |        3769 |
|       4 | 0x3104      |       12548 |
|       5 | 0x001E      |          30 |
|       6 | 0x310E      |       12558 |
|       7 | 0x0046      |          70 |
|       8 | 0x310F      |       12559 |
|       9 | 0x370E      |       14094 |
|      10 | 0x0001      |           1 |
|      11 | 0x3786      |       14214 |
|      12 | 0x3787      |       14215 |
|      13 | 0x3774      |       14196 |
|      14 | 0x3775      |       14197 |
|      15 | 0x3776      |       14198 |

## String References

- **12548**: <Player>'s badge flashes brightly.
- **12558**: Good of you to drop by the Bat's Lair Inn! Oh my, that's quite a shiny badge you've got there!
- **12559**: The nation that made that badge must have pretty advanced technology to make it gleam so!
- **14094**: Ask if this person is the chick's owner? [Yes./No.]
- **14196**: Goodness, you've found my chocobo?
- **14197**: To think I'll get to see the little darling again...she was a real hit with the customers. I was afraid it wouldn't last...
- **14198**: You're raising a chocobo too, right? Here, let me teach you a nice story...
- **14214**: Goodness, you say you've got my chocobo?
- **14215**: Sorry, but it can't be mine. My chocobo was entertaining customers just a moment ago.

## Events

### Event 65535

#### Metadata

| Field        | Value   |
|--------------|---------|
| Entrypoint   | 0x0000  |
| Data Size    | 1 bytes |
| Instructions | 1       |

```
      00 01 02 03 04 05 06 07  08 09 0A 0B 0C 0D 0E 0F
      -- -- -- -- -- -- -- --  -- -- -- -- -- -- -- --
0000: 00                                                .               
```

#### Opcodes

```
  0: 0x0000 [0x00] END_REQSTACK()
```

### Event 1

#### Metadata

| Field        | Value    |
|--------------|----------|
| Entrypoint   | 0x0001   |
| Data Size    | 10 bytes |
| Instructions | 2        |

```
      00 01 02 03 04 05 06 07  08 09 0A 0B 0C 0D 0E 0F
      -- -- -- -- -- -- -- --  -- -- -- -- -- -- -- --
0000:    37 00 80 01 80 02 80  03 80 00                  7.........     
```

#### Opcodes

```
  0: 0x0001 [0x37] UPDATE_EVENT_POSITION_AND_DIR: x=-11.902*, z=-103.791*, y=0.000*, direction=331.2°*
  1: 0x000A [0x00] END_REQSTACK()
```

### Event 507

#### Metadata

| Field        | Value    |
|--------------|----------|
| Entrypoint   | 0x000B   |
| Data Size    | 37 bytes |
| Instructions | 11       |

```
      00 01 02 03 04 05 06 07  08 09 0A 0B 0C 0D 0E 0F
      -- -- -- -- -- -- -- --  -- -- -- -- -- -- -- --
0000:                                   42 48 04 80 1E             BH...
0010: F0 FF FF 7F 1C 05 80 1D  06 80 23 5B 07 80 F8 FF  ..........#[....
0020: FF 7F F8 FF FF 7F 74 6C  6B 30 1D 08 80 23 21 00  ......tlk0...#!.
```

#### Opcodes

```
  0: 0x000B [0x42] SET_CLI_EVENT_CANCEL_DATA()
  1: 0x000C [0x48] [System] [12548*]:
    → "<Player>'s badge flashes brightly."
  2: 0x000F [0x1E] EventEntity looks at LocalPlayer and starts talking
  3: 0x0014 [0x1C] WAIT(30* ticks)
  4: 0x0017 [0x1D] PRINT_EVENT_MESSAGE(message_id=12558*)
    → "Good of you to drop by the Bat's Lair Inn! Oh my, that's quite a shiny badge you've got there!"
  5: 0x001A [0x23] WAIT_FOR_DIALOG_INTERACTION
  6: 0x001B [0x5B] LOAD_EXT_SCHEDULER: Load scheduler "tlk0" with entities [EventEntity, EventEntity], work=70*
  7: 0x002A [0x1D] PRINT_EVENT_MESSAGE(message_id=12559*)
    → "The nation that made that badge must have pretty advanced technology to make it gleam so!"
  8: 0x002D [0x23] WAIT_FOR_DIALOG_INTERACTION
  9: 0x002E [0x21] END_EVENT
 10: 0x002F [0x00] END_REQSTACK()
```

### Event 538

#### Metadata

| Field        | Value     |
|--------------|-----------|
| Entrypoint   | 0x0030    |
| Data Size    | 100 bytes |
| Instructions | 26        |

```
      00 01 02 03 04 05 06 07  08 09 0A 0B 0C 0D 0E 0F
      -- -- -- -- -- -- -- --  -- -- -- -- -- -- -- --
0030: 42 24 09 80 0A 80 02 80  25 02 00 10 02 80 00 92  B$......%.......
0040: 00 1E F0 FF FF 7F 1C 05  80 03 01 10 0A 80 43 00  ..............C.
0050: 43 01 02 02 10 02 80 00  74 00 1D 0B 80 23 5B 07  C.......t....#[.
0060: 80 F8 FF FF 7F F8 FF FF  7F 74 6C 6B 30 1D 0C 80  .........tlk0...
0070: 23 01 8F 00 1D 0D 80 23  5B 07 80 F8 FF FF 7F F8  #......#[.......
0080: FF FF 7F 74 6C 6B 30 1D  0E 80 23 1D 0F 80 23 01  ...tlk0...#...#.
0090: 92 00 21 00                                       ..!.            
```

#### Opcodes

```
  0: 0x0030 [0x42] SET_CLI_EVENT_CANCEL_DATA()
  1: 0x0031 [0x24] CREATE_DIALOG(message_id=14094*, default_option=1*, option_flags=0*)
    → "Ask if this person is the chick's owner? [Yes./No.]"
  2: 0x0038 [0x25] WAIT_DIALOG_SELECT()
  3: 0x0039 [0x02] IF !(Work_Zone[0] == 0*) GOTO 0x0092
  4: 0x0041 [0x1E] EventEntity looks at LocalPlayer and starts talking
  5: 0x0046 [0x1C] WAIT(30* ticks)
  6: 0x0049 [0x03] Work_Zone[1] = 1*
  7: 0x004E [0x43] SEND_EVENT_UPDATE: Send pending tag to server (packet 0x005B)
  8: 0x0050 [0x43] SEND_EVENT_UPDATE: Check pending flag (skip if not pending)
  9: 0x0052 [0x02] IF !(Work_Zone[2] == 0*) GOTO 0x0074
 10: 0x005A [0x1D] PRINT_EVENT_MESSAGE(message_id=14214*)
    → "Goodness, you say you've got my chocobo?"
 11: 0x005D [0x23] WAIT_FOR_DIALOG_INTERACTION
 12: 0x005E [0x5B] LOAD_EXT_SCHEDULER: Load scheduler "tlk0" with entities [EventEntity, EventEntity], work=70*
 13: 0x006D [0x1D] PRINT_EVENT_MESSAGE(message_id=14215*)
    → "Sorry, but it can't be mine. My chocobo was entertaining customers just a moment ago."
 14: 0x0070 [0x23] WAIT_FOR_DIALOG_INTERACTION
 15: 0x0071 [0x01] GOTO 0x008F
 16: 0x0074 [0x1D] PRINT_EVENT_MESSAGE(message_id=14196*)
    → "Goodness, you've found my chocobo?"
 17: 0x0077 [0x23] WAIT_FOR_DIALOG_INTERACTION
 18: 0x0078 [0x5B] LOAD_EXT_SCHEDULER: Load scheduler "tlk0" with entities [EventEntity, EventEntity], work=70*
 19: 0x0087 [0x1D] PRINT_EVENT_MESSAGE(message_id=14197*)
    → "To think I'll get to see the little darling again...she was a real hit with the customers. I was afraid it wouldn't last..."
 20: 0x008A [0x23] WAIT_FOR_DIALOG_INTERACTION
 21: 0x008B [0x1D] PRINT_EVENT_MESSAGE(message_id=14198*)
    → "You're raising a chocobo too, right? Here, let me teach you a nice story..."
 22: 0x008E [0x23] WAIT_FOR_DIALOG_INTERACTION

SUBROUTINE_008F:
 23: 0x008F [0x01] GOTO 0x0092

SUBROUTINE_0092:
 24: 0x0092 [0x21] END_EVENT
 25: 0x0093 [0x00] END_REQSTACK()
```
