# 17735694 - Nangst

## Common Data

| Field            | Value                  |
|------------------|------------------------|
| Zone             | Bastok Mines (ID: 234) |
| Block Size       | 140 bytes              |
| Total Events     | 5                      |
| References Count | 11                     |

## List of Events

| Event ID                 | Entrypoint   |   Size |   Instructions |
|--------------------------|--------------|--------|----------------|
| [65535](#event-65535)    | 0x0000       |      1 |              1 |
| [1](#event-1)            | 0x0001       |     12 |              3 |
| [65535.1](#event-655351) | 0x000D       |     18 |              6 |
| [24](#event-24)          | 0x001F       |     11 |              5 |
| [176](#event-176)        | 0x002A       |     15 |              3 |

## DAT References (imed_data)

|   Index | Hex Value   |   Dec Value |
|---------|-------------|-------------|
|       0 | 0xFFFF51B0  |  4294922672 |
|       1 | 0x6F0E      |       28430 |
|       2 | 0x0000      |           0 |
|       3 | 0x0745      |        1861 |
|       4 | 0x000D      |          13 |
|       5 | 0xFFFF3ACE  |  4294916814 |
|       6 | 0x61C5      |       25029 |
|       7 | 0x2935      |       10549 |
|       8 | 0xFFFDB0D7  |  4294815959 |
|       9 | 0xFFFF71B3  |  4294930867 |
|      10 | 0x0A29      |        2601 |

## String References

- **10549**: Bastok sure has changed over the years. About the only things that don't change are us Galka, working in the mines.

## Events

### Event 65535

#### Metadata

| Field        | Value   |
|--------------|---------|
| Entrypoint   | 0x0000  |
| Data Size    | 1 bytes |
| Instructions | 1       |

```
      00 01 02 03 04 05 06 07  08 09 0A 0B 0C 0D 0E 0F
      -- -- -- -- -- -- -- --  -- -- -- -- -- -- -- --
0000: 00                                                .               
```

#### Opcodes

```
  0: 0x0000 [0x00] END_REQSTACK()
```

### Event 1

#### Metadata

| Field        | Value    |
|--------------|----------|
| Entrypoint   | 0x0001   |
| Data Size    | 12 bytes |
| Instructions | 3        |

```
      00 01 02 03 04 05 06 07  08 09 0A 0B 0C 0D 0E 0F
      -- -- -- -- -- -- -- --  -- -- -- -- -- -- -- --
0000:    5F 01 37 00 80 01 80  02 80 03 80 00            _.7.........   
```

#### Opcodes

```
  0: 0x0001 [0x5F] MULTI_HANDLER_COMPLEX(mode=0x01 - Toggle Render.Flags0 bit 29)
  1: 0x0003 [0x37] UPDATE_EVENT_POSITION_AND_DIR: x=-44.624*, z=28.430*, y=0.000*, direction=163.6°*
  2: 0x000C [0x00] END_REQSTACK()
```

### Event 65535.1

#### Metadata

| Field        | Value    |
|--------------|----------|
| Entrypoint   | 0x000D   |
| Data Size    | 18 bytes |
| Instructions | 6        |

```
      00 01 02 03 04 05 06 07  08 09 0A 0B 0C 0D 0E 0F
      -- -- -- -- -- -- -- --  -- -- -- -- -- -- -- --
0000:                                         32 04 80               2..
0010: 1F 00 05 80 06 80 02 80  1F 01 5F 00 22 01 00     .........._.".. 
```

#### Opcodes

```
  0: 0x000D [0x32] ExtData[1]->MainSpeed = 13* * 0.1
  1: 0x0010 [0x1F] MOVE_ENTITY: EventEntity moves to X=-50.482*, Z=25.029*, Y=0.000*
  2: 0x0018 [0x1F] MOVE_ENTITY: Update entity position (mode=1)
  3: 0x001A [0x5F] MULTI_HANDLER_COMPLEX(mode=0x00 - Toggle Render.Flags0 bit 29)
  4: 0x001C [0x22] ENTITY_HIDE_FLAG(enabled=0x01)
  5: 0x001E [0x00] END_REQSTACK()
```

### Event 24

#### Metadata

| Field        | Value    |
|--------------|----------|
| Entrypoint   | 0x001F   |
| Data Size    | 11 bytes |
| Instructions | 5        |

```
      00 01 02 03 04 05 06 07  08 09 0A 0B 0C 0D 0E 0F
      -- -- -- -- -- -- -- --  -- -- -- -- -- -- -- --
0010:                                               1E                 .
0020: F0 FF FF 7F 1D 07 80 23  21 00                    .......#!.      
```

#### Opcodes

```
  0: 0x001F [0x1E] EventEntity looks at LocalPlayer and starts talking
  1: 0x0024 [0x1D] PRINT_EVENT_MESSAGE(message_id=10549*)
    → "Bastok sure has changed over the years. About the only things that don't change are us Galka, working in the mines."
  2: 0x0027 [0x23] WAIT_FOR_DIALOG_INTERACTION
  3: 0x0028 [0x21] END_EVENT
  4: 0x0029 [0x00] END_REQSTACK()
```

### Event 176

#### Metadata

| Field        | Value    |
|--------------|----------|
| Entrypoint   | 0x002A   |
| Data Size    | 15 bytes |
| Instructions | 3        |

```
      00 01 02 03 04 05 06 07  08 09 0A 0B 0C 0D 0E 0F
      -- -- -- -- -- -- -- --  -- -- -- -- -- -- -- --
0020:                                37 08 80 09 80 02            7.....
0030: 80 0A 80 1E 0B A0 0E 01  00                       .........       
```

#### Opcodes

```
  0: 0x002A [0x37] UPDATE_EVENT_POSITION_AND_DIR: x=-151.337*, z=-36.429*, y=0.000*, direction=228.6°*
  1: 0x0033 [0x1E] EventEntity looks at Mydon (ID: 17735691/0x010EA00B) and starts talking
  2: 0x0038 [0x00] END_REQSTACK()
```
