# 17735824 - Zopago

## Common Data

| Field            | Value                  |
|------------------|------------------------|
| Zone             | Bastok Mines (ID: 234) |
| Block Size       | 71328 bytes            |
| Total Events     | 46                     |
| References Count | 1443                   |

## List of Events

| Event ID                   | Entrypoint   |   Size |   Instructions |
|----------------------------|--------------|--------|----------------|
| [65535](#event-65535)      | 0x0000       |      1 |              1 |
| [508](#event-508)          | 0x0001       |     78 |             18 |
| [515](#event-515)          | 0x004F       |     67 |             17 |
| [65535.1](#event-655351)   | 0x0092       |     20 |              4 |
| [65535.2](#event-655352)   | 0x00A6       |     15 |              3 |
| [65535.3](#event-655353)   | 0x00B5       |     15 |              3 |
| [65535.4](#event-655354)   | 0x00C4       |     15 |              3 |
| [65535.5](#event-655355)   | 0x00D3       |     22 |              6 |
| [65535.6](#event-655356)   | 0x00E9       |     15 |              3 |
| [65535.7](#event-655357)   | 0x00F8       |     82 |             18 |
| [65535.8](#event-655358)   | 0x014A       |     15 |              3 |
| [65535.9](#event-655359)   | 0x0159       |    315 |             51 |
| [65535.10](#event-6553510) | 0x0294       |     62 |             10 |
| [65535.11](#event-6553511) | 0x02D2       |     82 |             13 |
| [65535.12](#event-6553512) | 0x0324       |     71 |             13 |
| [65535.13](#event-6553513) | 0x036B       |     73 |             13 |
| [65535.14](#event-6553514) | 0x03B4       |     15 |              3 |
| [65535.15](#event-6553515) | 0x03C3       |     15 |              3 |
| [65535.16](#event-6553516) | 0x03D2       |     15 |              3 |
| [65535.17](#event-6553517) | 0x03E1       |     14 |              4 |
| [65535.18](#event-6553518) | 0x03EF       |     15 |              3 |
| [65535.19](#event-6553519) | 0x03FE       |     14 |              4 |
| [65535.20](#event-6553520) | 0x040C       |     15 |              3 |
| [65535.21](#event-6553521) | 0x041B       |     26 |              6 |
| [65535.22](#event-6553522) | 0x0435       |     15 |              3 |
| [65535.23](#event-6553523) | 0x0444       |    224 |             37 |
| [65535.24](#event-6553524) | 0x0524       |     15 |              3 |
| [65535.25](#event-6553525) | 0x0533       |     15 |              3 |
| [65535.26](#event-6553526) | 0x0542       |     15 |              3 |
| [65535.27](#event-6553527) | 0x0551       |     42 |              8 |
| [65535.28](#event-6553528) | 0x057B       |     15 |              3 |
| [65535.29](#event-6553529) | 0x058A       |     14 |              4 |
| [65535.30](#event-6553530) | 0x0598       |     15 |              3 |
| [65535.31](#event-6553531) | 0x05A7       |     14 |              4 |
| [65535.32](#event-6553532) | 0x05B5       |     15 |              3 |
| [65535.33](#event-6553533) | 0x05C4       |     15 |              3 |
| [65535.34](#event-6553534) | 0x05D3       |     15 |              3 |
| [542](#event-542)          | 0x05E2       |      1 |              1 |
| [510](#event-510)          | 0x05E3       |      2 |              2 |
| [509](#event-509)          | 0x05E5       |   1773 |            315 |
| [65535.35](#event-6553535) | 0x0CD2       |  10970 |           2290 |
| [512](#event-512)          | 0x37AC       |    299 |             41 |
| [511](#event-511)          | 0x38D7       |      6 |              4 |
| [513](#event-513)          | 0x38DD       |      5 |              3 |
| [65535.36](#event-6553536) | 0x38E2       |  50771 |           7428 |
| [65535.37](#event-6553537) | 0xFF35       |     23 |              7 |

## DAT References (imed_data)

|   Index | Hex Value   |   Dec Value |
|---------|-------------|-------------|
|       0 | 0x001E      |          30 |
|       1 | 0x0000      |           0 |
|       2 | 0x316B      |       12651 |
|       3 | 0x0045      |          69 |
|       4 | 0x316C      |       12652 |
|       5 | 0x316D      |       12653 |
|       6 | 0x316E      |       12654 |
|       7 | 0x0001      |           1 |
|       8 | 0x3485      |       13445 |
|       9 | 0x3486      |       13446 |
|      10 | 0x3487      |       13447 |
|      11 | 0xC9FA      |       51706 |
|      12 | 0xFFFE55F7  |  4294858231 |
|      13 | 0x036A      |         874 |
|      14 | 0x094C      |        2380 |
|      15 | 0xFFFFDE0C  |  4294958604 |
|      16 | 0xFFFE7782  |  4294866818 |
|      17 | 0x0577      |        1399 |
|      18 | 0x002F      |          47 |
|      19 | 0x13A3      |        5027 |
|      20 | 0xFFFE5201  |  4294857217 |
|      21 | 0x060C      |        1548 |
|      22 | 0x07C2      |        1986 |
|      23 | 0xFFFFD79A  |  4294956954 |
|      24 | 0xFFFE3FC2  |  4294852546 |
|      25 | 0x06FF      |        1791 |
|      26 | 0x000D      |          13 |
|      27 | 0xFFFFD171  |  4294955377 |
|      28 | 0xFFFE3EEE  |  4294852334 |
|      29 | 0x003C      |          60 |
|      30 | 0xFFFFE524  |  4294960420 |
|      31 | 0xFFFE69C0  |  4294863296 |
|      32 | 0x0487      |        1159 |
|      33 | 0xFFFFDF24  |  4294958884 |
|      34 | 0xFFFE6A77  |  4294863479 |
|      35 | 0xFFFFDE6F  |  4294958703 |
|      36 | 0xFFFE654A  |  4294862154 |
|      37 | 0x003E      |          62 |
|      38 | 0xFFFFE058  |  4294959192 |
|      39 | 0xFFFE5C73  |  4294859891 |
|      40 | 0xFFFFE522  |  4294960418 |
|      41 | 0xFFFE59E0  |  4294859232 |
|      42 | 0x0ADB      |        2779 |
|      43 | 0x0007      |           7 |
|      44 | 0xFFFFD9A9  |  4294957481 |
|      45 | 0xFFFE774C  |  4294866764 |
|      46 | 0x008B      |         139 |
|      47 | 0x0028      |          40 |
|      48 | 0xFFFFE4D7  |  4294960343 |
|      49 | 0xFFFE7780  |  4294866816 |
|      50 | 0xFFFFE4D2  |  4294960338 |
|      51 | 0xFFFE76B8  |  4294866616 |
|      52 | 0xFFFFDA7F  |  4294957695 |
|      53 | 0xFFFE76C3  |  4294866627 |
|      54 | 0xFFFFECF8  |  4294962424 |
|      55 | 0xFFFE5C3E  |  4294859838 |
|      56 | 0x0945      |        2373 |
|      57 | 0x0003      |           3 |
|      58 | 0x036B      |         875 |
|      59 | 0x00E0      |         224 |
|      60 | 0x00DE      |         222 |
|      61 | 0xFFFFDF97  |  4294958999 |
|      62 | 0xFFFE5CF8  |  4294860024 |
|      63 | 0x0064      |         100 |
|      64 | 0xFFFFDEC3  |  4294958787 |
|      65 | 0xFFFE6767  |  4294862695 |
|      66 | 0xFFFFE00B  |  4294959115 |
|      67 | 0xFFFE67A5  |  4294862757 |
|      68 | 0x0013      |          19 |
|      69 | 0x03DF      |         991 |
|      70 | 0xFFFFE10A  |  4294959370 |
|      71 | 0xFFFE7716  |  4294866710 |
|      72 | 0x02E6      |         742 |
|      73 | 0x0200      |         512 |
|      74 | 0xFFFFDC3B  |  4294958139 |
|      75 | 0xFFFE3F94  |  4294852500 |
|      76 | 0x0653      |        1619 |
|      77 | 0xFFFFE90B  |  4294961419 |
|      78 | 0xFFFE5D37  |  4294860087 |
|      79 | 0x0AB3      |        2739 |
|      80 | 0x1E8F      |        7823 |
|      81 | 0xFFFF07E2  |  4294903778 |
|      82 | 0xFFFFF449  |  4294964297 |
|      83 | 0x0F10      |        3856 |
|      84 | 0xDF8D      |       57229 |
|      85 | 0x1394      |        5012 |
|      86 | 0xFFFE6255  |  4294861397 |
|      87 | 0xFFFFCB47  |  4294953799 |
|      88 | 0x083D      |        2109 |
|      89 | 0xFFFE474C  |  4294854476 |
|      90 | 0xFFFFC5D4  |  4294952404 |
|      91 | 0xDF00      |       57088 |
|      92 | 0x0A95      |        2709 |
|      93 | 0x045B      |        1115 |
|      94 | 0xDEFE      |       57086 |
|      95 | 0xFFFFF254  |  4294963796 |
|      96 | 0x232D      |        9005 |
|      97 | 0xFFFEF3F6  |  4294898678 |
|      98 | 0x0C5F      |        3167 |
|      99 | 0x03B4      |         948 |
|     100 | 0x1A41      |        6721 |
|     101 | 0xFFFED860  |  4294891616 |
|     102 | 0xFFFFAF1A  |  4294946586 |
|     103 | 0xFFFF1403  |  4294906883 |
|     104 | 0x08BA      |        2234 |
|     105 | 0x00FE      |         254 |
|     106 | 0xFFFFA653  |  4294944339 |
|     107 | 0xFFFF1CA7  |  4294909095 |
|     108 | 0xFFFFBAFB  |  4294949627 |
|     109 | 0xFFFF1D38  |  4294909240 |
|     110 | 0xFFFFF448  |  4294964296 |
|     111 | 0xB0F4      |       45300 |
|     112 | 0xFFFEA999  |  4294879641 |
|     113 | 0x033D      |         829 |
|     114 | 0x006E      |         110 |
|     115 | 0xC047      |       49223 |
|     116 | 0xFFFEA5DC  |  4294878684 |
|     117 | 0x0367      |         871 |
|     118 | 0x010C      |         268 |
|     119 | 0xABB3      |       43955 |
|     120 | 0xFFFE5CAE  |  4294859950 |
|     121 | 0x02E5      |         741 |
|     122 | 0xFFF9A194  |  4294549908 |
|     123 | 0xFFF92CBC  |  4294519996 |
|     124 | 0x60F2      |       24818 |
|     125 | 0x0DAD      |        3501 |
|     126 | 0xA68AF     |      682159 |
|     127 | 0x566D2     |      354002 |
|     128 | 0xFFFFFFF7  |  4294967287 |
|     129 | 0x0AD1      |        2769 |
|     130 | 0xA6606     |      681478 |
|     131 | 0x56ED0     |      356048 |
|     132 | 0xA5D0D     |      679181 |
|     133 | 0x56E5F     |      355935 |
|     134 | 0xFFFFFFFC  |  4294967292 |
|     135 | 0x201D4     |      131540 |
|     136 | 0x52115     |      336149 |
|     137 | 0xFFFFFF22  |  4294967074 |
|     138 | 0x014B      |         331 |
|     139 | 0x20B65     |      133989 |
|     140 | 0x51A63     |      334435 |
|     141 | 0xFFFFFD52  |  4294966610 |
|     142 | 0xFFFD2416  |  4294779926 |
|     143 | 0x6CCEC     |      445676 |
|     144 | 0xFFFFFFDF  |  4294967263 |
|     145 | 0x08DA      |        2266 |
|     146 | 0xFFFD0BAA  |  4294773674 |
|     147 | 0x6D7C5     |      448453 |
|     148 | 0x0131      |         305 |
|     149 | 0x16FF7     |       94199 |
|     150 | 0xFFFED1BA  |  4294889914 |
|     151 | 0x0270      |         624 |
|     152 | 0x0872      |        2162 |
|     153 | 0x154BD     |       87229 |
|     154 | 0xFFFF018C  |  4294902156 |
|     155 | 0x0271      |         625 |
|     156 | 0x0FDD      |        4061 |
|     157 | 0x9F50D     |      652557 |
|     158 | 0x4E03E     |      319550 |
|     159 | 0x0629      |        1577 |
|     160 | 0x0005      |           5 |
|     161 | 0x0078      |         120 |
|     162 | 0x00C8      |         200 |
|     163 | 0x001B      |          27 |
|     164 | 0x00BC      |         188 |
|     165 | 0x00EA      |         234 |
|     166 | 0x0105      |         261 |
|     167 | 0x34E4      |       13540 |
|     168 | 0x34E5      |       13541 |
|     169 | 0x34E1      |       13537 |
|     170 | 0x34E2      |       13538 |
|     171 | 0x00FF      |         255 |
|     172 | 0x0004      |           4 |
|     173 | 0x00D0      |         208 |
|     174 | 0xFFFFFFFF  |  4294967295 |
|     175 | 0x371B      |       14107 |
|     176 | 0x0002      |           2 |
|     177 | 0x371C      |       14108 |
|     178 | 0x371F      |       14111 |
|     179 | 0x01F8      |         504 |
|     180 | 0x00F8      |         248 |
|     181 | 0x0009      |           9 |
|     182 | 0x000A      |          10 |
|     183 | 0x0014      |          20 |
|     184 | 0x001D      |          29 |
|     185 | 0x001F      |          31 |
|     186 | 0x000F      |          15 |
|     187 | 0x0010      |          16 |
|     188 | 0x0017      |          23 |
|     189 | 0x0018      |          24 |
|     190 | 0x31DC      |       12764 |
|     191 | 0x31DD      |       12765 |
|     192 | 0x00F6      |         246 |
|     193 | 0x3551      |       13649 |
|     194 | 0x00F1      |         241 |
|     195 | 0x0129      |         297 |
|     196 | 0x0229      |         553 |
|     197 | 0x00D6      |         214 |
|     198 | 0x0148      |         328 |
|     199 | 0x00D7      |         215 |
|     200 | 0x3CAD      |       15533 |
|     201 | 0x3195      |       12693 |
|     202 | 0x0006      |           6 |
|     203 | 0x001A      |          26 |
|     204 | 0x0100      |         256 |
|     205 | 0x00E2      |         226 |
|     206 | 0x001C      |          28 |
|     207 | 0x00E8      |         232 |
|     208 | 0x0098      |         152 |
|     209 | 0x337D      |       13181 |
|     210 | 0x337E      |       13182 |
|     211 | 0x365C      |       13916 |
|     212 | 0x365D      |       13917 |
|     213 | 0x365E      |       13918 |
|     214 | 0x365F      |       13919 |
|     215 | 0x3660      |       13920 |
|     216 | 0x3542      |       13634 |
|     217 | 0x4E20      |       20000 |
|     218 | 0x3543      |       13635 |
|     219 | 0x3544      |       13636 |
|     220 | 0x321B      |       12827 |
|     221 | 0x3545      |       13637 |
|     222 | 0x00DD      |         221 |
|     223 | 0x353B      |       13627 |
|     224 | 0x353C      |       13628 |
|     225 | 0x0909      |        2313 |
|     226 | 0x353D      |       13629 |
|     227 | 0x00FA      |         250 |
|     228 | 0x3214      |       12820 |
|     229 | 0x353F      |       13631 |
|     230 | 0x353E      |       13630 |
|     231 | 0x00DF      |         223 |
|     232 | 0x3197      |       12695 |
|     233 | 0x0962      |        2402 |
|     234 | 0x3556      |       13654 |
|     235 | 0x3557      |       13655 |
|     236 | 0x320F      |       12815 |
|     237 | 0x0061      |          97 |
|     238 | 0x3538      |       13624 |
|     239 | 0x012C      |         300 |
|     240 | 0x3539      |       13625 |
|     241 | 0x353A      |       13626 |
|     242 | 0x320C      |       12812 |
|     243 | 0x00EF      |         239 |
|     244 | 0x01EF      |         495 |
|     245 | 0x318E      |       12686 |
|     246 | 0x3532      |       13618 |
|     247 | 0x343C      |       13372 |
|     248 | 0x3533      |       13619 |
|     249 | 0x343E      |       13374 |
|     250 | 0x3534      |       13620 |
|     251 | 0x0060      |          96 |
|     252 | 0x0008      |           8 |
|     253 | 0x0260      |         608 |
|     254 | 0x3530      |       13616 |
|     255 | 0x3531      |       13617 |
|     256 | 0x3521      |       13601 |
|     257 | 0x3523      |       13603 |
|     258 | 0x3522      |       13602 |
|     259 | 0x342A      |       13354 |
|     260 | 0x3524      |       13604 |
|     261 | 0x3526      |       13606 |
|     262 | 0x3525      |       13605 |
|     263 | 0x342E      |       13358 |
|     264 | 0x3527      |       13607 |
|     265 | 0x3529      |       13609 |
|     266 | 0x3528      |       13608 |
|     267 | 0x3432      |       13362 |
|     268 | 0x352A      |       13610 |
|     269 | 0x352B      |       13611 |
|     270 | 0x352C      |       13612 |
|     271 | 0x352D      |       13613 |
|     272 | 0x352E      |       13614 |
|     273 | 0x352F      |       13615 |
|     274 | 0x00F0      |         240 |
|     275 | 0x002E      |          46 |
|     276 | 0x34E7      |       13543 |
|     277 | 0x34E6      |       13542 |
|     278 | 0x00FB      |         251 |
|     279 | 0x0012      |          18 |
|     280 | 0x34E8      |       13544 |
|     281 | 0x34E9      |       13545 |
|     282 | 0x34EA      |       13546 |
|     283 | 0x34EB      |       13547 |
|     284 | 0x34EC      |       13548 |
|     285 | 0x34ED      |       13549 |
|     286 | 0x34EE      |       13550 |
|     287 | 0x34EF      |       13551 |
|     288 | 0x34F0      |       13552 |
|     289 | 0x0216      |         534 |
|     290 | 0x34F1      |       13553 |
|     291 | 0x0899      |        2201 |
|     292 | 0x34F3      |       13555 |
|     293 | 0x089A      |        2202 |
|     294 | 0x34F2      |       13554 |
|     295 | 0x34F5      |       13557 |
|     296 | 0x34F6      |       13558 |
|     297 | 0x34F7      |       13559 |
|     298 | 0x34F4      |       13556 |
|     299 | 0x34F8      |       13560 |
|     300 | 0x34F9      |       13561 |
|     301 | 0x34FA      |       13562 |
|     302 | 0x34FB      |       13563 |
|     303 | 0x000B      |          11 |
|     304 | 0x34FC      |       13564 |
|     305 | 0x000C      |          12 |
|     306 | 0x34FD      |       13565 |
|     307 | 0x34FE      |       13566 |
|     308 | 0x34FF      |       13567 |
|     309 | 0x3500      |       13568 |
|     310 | 0x3501      |       13569 |
|     311 | 0x3502      |       13570 |
|     312 | 0x3503      |       13571 |
|     313 | 0x3504      |       13572 |
|     314 | 0x34BA      |       13498 |
|     315 | 0x34BC      |       13500 |
|     316 | 0x34BD      |       13501 |
|     317 | 0x0DCF      |        3535 |
|     318 | 0x0368      |         872 |
|     319 | 0x34BB      |       13499 |
|     320 | 0x34BE      |       13502 |
|     321 | 0x00F3      |         243 |
|     322 | 0x31F9      |       12793 |
|     323 | 0x3507      |       13575 |
|     324 | 0x31FA      |       12794 |
|     325 | 0x00F2      |         242 |
|     326 | 0x0030      |          48 |
|     327 | 0x3505      |       13573 |
|     328 | 0x3506      |       13574 |
|     329 | 0x3508      |       13576 |
|     330 | 0x0032      |          50 |
|     331 | 0x3509      |       13577 |
|     332 | 0x0033      |          51 |
|     333 | 0x350A      |       13578 |
|     334 | 0x350B      |       13579 |
|     335 | 0x0034      |          52 |
|     336 | 0x350C      |       13580 |
|     337 | 0x3720      |       14112 |
|     338 | 0x002A      |          42 |
|     339 | 0x350D      |       13581 |
|     340 | 0x002B      |          43 |
|     341 | 0x350E      |       13582 |
|     342 | 0x002C      |          44 |
|     343 | 0x31BE      |       12734 |
|     344 | 0x31BF      |       12735 |
|     345 | 0x31C4      |       12740 |
|     346 | 0x01FE      |         510 |
|     347 | 0x02FE      |         766 |
|     348 | 0x03FE      |        1022 |
|     349 | 0x31C8      |       12744 |
|     350 | 0x31C0      |       12736 |
|     351 | 0x350F      |       13583 |
|     352 | 0x318B      |       12683 |
|     353 | 0x3510      |       13584 |
|     354 | 0x3511      |       13585 |
|     355 | 0x3512      |       13586 |
|     356 | 0x3513      |       13587 |
|     357 | 0x3514      |       13588 |
|     358 | 0x3515      |       13589 |
|     359 | 0x3516      |       13590 |
|     360 | 0x3517      |       13591 |
|     361 | 0x3518      |       13592 |
|     362 | 0x3519      |       13593 |
|     363 | 0x351A      |       13594 |
|     364 | 0x351B      |       13595 |
|     365 | 0x351C      |       13596 |
|     366 | 0x351D      |       13597 |
|     367 | 0x351E      |       13598 |
|     368 | 0x351F      |       13599 |
|     369 | 0x3520      |       13600 |
|     370 | 0x31C2      |       12738 |
|     371 | 0x3204      |       12804 |
|     372 | 0x7800      |       30720 |
|     373 | 0x000E      |          14 |
|     374 | 0x4000      |       16384 |
|     375 | 0x3800      |       14336 |
|     376 | 0x3205      |       12805 |
|     377 | 0x0011      |          17 |
|     378 | 0x3566      |       13670 |
|     379 | 0x3207      |       12807 |
|     380 | 0xBFFFFFC0  |  3221225408 |
|     381 | 0x4000000   |    67108864 |
|     382 | 0x3FFC0000  |  1073479680 |
|     383 | 0x3F000000  |  1056964608 |
|     384 | 0x0800      |        2048 |
|     385 | 0x3FFFC100  |  1073725696 |
|     386 | 0x3F800000  |  1065353216 |
|     387 | 0x200000    |     2097152 |
|     388 | 0x3FC00000  |  1069547520 |
|     389 | 0xBFFFC000  |  3221209088 |
|     390 | 0xBFFFFFFC  |  3221225468 |
|     391 | 0x3FFFC000  |  1073725440 |
|     392 | 0x006C      |         108 |
|     393 | 0x00AE      |         174 |
|     394 | 0x00C2      |         194 |
|     395 | 0x008F      |         143 |
|     396 | 0x0054      |          84 |
|     397 | 0x0015      |          21 |
|     398 | 0x0016      |          22 |
|     399 | 0x0019      |          25 |
|     400 | 0x0020      |          32 |
|     401 | 0x0021      |          33 |
|     402 | 0x0022      |          34 |
|     403 | 0x0023      |          35 |
|     404 | 0x0024      |          36 |
|     405 | 0x0025      |          37 |
|     406 | 0x0026      |          38 |
|     407 | 0x0027      |          39 |
|     408 | 0x0029      |          41 |
|     409 | 0x002D      |          45 |
|     410 | 0x0031      |          49 |
|     411 | 0x0035      |          53 |
|     412 | 0x0036      |          54 |
|     413 | 0x0037      |          55 |
|     414 | 0x0038      |          56 |
|     415 | 0x0039      |          57 |
|     416 | 0x003A      |          58 |
|     417 | 0x003B      |          59 |
|     418 | 0x003D      |          61 |
|     419 | 0x003F      |          63 |
|     420 | 0x0040      |          64 |
|     421 | 0x0041      |          65 |
|     422 | 0x0042      |          66 |
|     423 | 0x0043      |          67 |
|     424 | 0x0044      |          68 |
|     425 | 0x0046      |          70 |
|     426 | 0x0047      |          71 |
|     427 | 0x0048      |          72 |
|     428 | 0x0049      |          73 |
|     429 | 0x004A      |          74 |
|     430 | 0x004B      |          75 |
|     431 | 0x004C      |          76 |
|     432 | 0x004D      |          77 |
|     433 | 0x004E      |          78 |
|     434 | 0x004F      |          79 |
|     435 | 0x0050      |          80 |
|     436 | 0x0051      |          81 |
|     437 | 0x0052      |          82 |
|     438 | 0x0053      |          83 |
|     439 | 0x0055      |          85 |
|     440 | 0x0056      |          86 |
|     441 | 0x0057      |          87 |
|     442 | 0x0058      |          88 |
|     443 | 0x0059      |          89 |
|     444 | 0x005A      |          90 |
|     445 | 0x005B      |          91 |
|     446 | 0x005C      |          92 |
|     447 | 0x005D      |          93 |
|     448 | 0x005E      |          94 |
|     449 | 0x005F      |          95 |
|     450 | 0x0062      |          98 |
|     451 | 0x0063      |          99 |
|     452 | 0x0065      |         101 |
|     453 | 0x0066      |         102 |
|     454 | 0x0067      |         103 |
|     455 | 0x0068      |         104 |
|     456 | 0x0069      |         105 |
|     457 | 0x006A      |         106 |
|     458 | 0x006B      |         107 |
|     459 | 0x006D      |         109 |
|     460 | 0x006F      |         111 |
|     461 | 0x0070      |         112 |
|     462 | 0x0071      |         113 |
|     463 | 0x0072      |         114 |
|     464 | 0x0073      |         115 |
|     465 | 0x0074      |         116 |
|     466 | 0x0075      |         117 |
|     467 | 0x0076      |         118 |
|     468 | 0x0077      |         119 |
|     469 | 0x0079      |         121 |
|     470 | 0x007A      |         122 |
|     471 | 0x007B      |         123 |
|     472 | 0x007C      |         124 |
|     473 | 0x007D      |         125 |
|     474 | 0x007E      |         126 |
|     475 | 0x007F      |         127 |
|     476 | 0x0080      |         128 |
|     477 | 0x0081      |         129 |
|     478 | 0x0082      |         130 |
|     479 | 0x0083      |         131 |
|     480 | 0x0084      |         132 |
|     481 | 0x0085      |         133 |
|     482 | 0x0086      |         134 |
|     483 | 0x0087      |         135 |
|     484 | 0x0088      |         136 |
|     485 | 0x0089      |         137 |
|     486 | 0x008A      |         138 |
|     487 | 0x008C      |         140 |
|     488 | 0x008D      |         141 |
|     489 | 0x008E      |         142 |
|     490 | 0x0090      |         144 |
|     491 | 0x0091      |         145 |
|     492 | 0x0092      |         146 |
|     493 | 0x0093      |         147 |
|     494 | 0x0094      |         148 |
|     495 | 0x0095      |         149 |
|     496 | 0x0096      |         150 |
|     497 | 0x0097      |         151 |
|     498 | 0x0099      |         153 |
|     499 | 0x009A      |         154 |
|     500 | 0x009B      |         155 |
|     501 | 0x009C      |         156 |
|     502 | 0x009D      |         157 |
|     503 | 0x009E      |         158 |
|     504 | 0x009F      |         159 |
|     505 | 0x00A0      |         160 |
|     506 | 0x00A1      |         161 |
|     507 | 0x00A2      |         162 |
|     508 | 0x00A3      |         163 |
|     509 | 0x00A4      |         164 |
|     510 | 0x00A5      |         165 |
|     511 | 0x00A6      |         166 |
|     512 | 0x00A7      |         167 |
|     513 | 0x00A8      |         168 |
|     514 | 0x00A9      |         169 |
|     515 | 0x00AA      |         170 |
|     516 | 0x00AB      |         171 |
|     517 | 0x00AC      |         172 |
|     518 | 0x00AD      |         173 |
|     519 | 0x00AF      |         175 |
|     520 | 0x00B0      |         176 |
|     521 | 0x00B1      |         177 |
|     522 | 0x00B2      |         178 |
|     523 | 0x00B3      |         179 |
|     524 | 0x00B4      |         180 |
|     525 | 0x00B5      |         181 |
|     526 | 0x00B6      |         182 |
|     527 | 0x00B7      |         183 |
|     528 | 0x00B8      |         184 |
|     529 | 0x00B9      |         185 |
|     530 | 0x00BA      |         186 |
|     531 | 0x00BB      |         187 |
|     532 | 0x00BD      |         189 |
|     533 | 0x00BE      |         190 |
|     534 | 0x00BF      |         191 |
|     535 | 0x00C0      |         192 |
|     536 | 0x00C1      |         193 |
|     537 | 0x00C3      |         195 |
|     538 | 0x00C4      |         196 |
|     539 | 0x00C5      |         197 |
|     540 | 0x00C6      |         198 |
|     541 | 0x00C7      |         199 |
|     542 | 0x00C9      |         201 |
|     543 | 0x00CA      |         202 |
|     544 | 0x00CB      |         203 |
|     545 | 0x00CC      |         204 |
|     546 | 0x00CD      |         205 |
|     547 | 0x00CE      |         206 |
|     548 | 0x00CF      |         207 |
|     549 | 0x00D1      |         209 |
|     550 | 0x00D2      |         210 |
|     551 | 0x00D3      |         211 |
|     552 | 0x00D4      |         212 |
|     553 | 0x00D5      |         213 |
|     554 | 0x00D8      |         216 |
|     555 | 0x00D9      |         217 |
|     556 | 0x00DA      |         218 |
|     557 | 0x00DB      |         219 |
|     558 | 0x00DC      |         220 |
|     559 | 0x00E1      |         225 |
|     560 | 0x00E3      |         227 |
|     561 | 0x00E4      |         228 |
|     562 | 0x00E5      |         229 |
|     563 | 0x00E6      |         230 |
|     564 | 0x00E7      |         231 |
|     565 | 0x00E9      |         233 |
|     566 | 0x00EB      |         235 |
|     567 | 0x00EC      |         236 |
|     568 | 0x00ED      |         237 |
|     569 | 0x00EE      |         238 |
|     570 | 0x00F4      |         244 |
|     571 | 0x00F5      |         245 |
|     572 | 0x00F7      |         247 |
|     573 | 0x00F9      |         249 |
|     574 | 0x00FC      |         252 |
|     575 | 0x00FD      |         253 |
|     576 | 0x0101      |         257 |
|     577 | 0x0102      |         258 |
|     578 | 0x0103      |         259 |
|     579 | 0x0104      |         260 |
|     580 | 0x0106      |         262 |
|     581 | 0x0107      |         263 |
|     582 | 0x0108      |         264 |
|     583 | 0x0109      |         265 |
|     584 | 0x010A      |         266 |
|     585 | 0x010B      |         267 |
|     586 | 0x010D      |         269 |
|     587 | 0x010E      |         270 |
|     588 | 0x010F      |         271 |
|     589 | 0x0110      |         272 |
|     590 | 0x0111      |         273 |
|     591 | 0x0112      |         274 |
|     592 | 0x0113      |         275 |
|     593 | 0x0114      |         276 |
|     594 | 0x0115      |         277 |
|     595 | 0x0116      |         278 |
|     596 | 0x0117      |         279 |
|     597 | 0x0118      |         280 |
|     598 | 0x0119      |         281 |
|     599 | 0x011A      |         282 |
|     600 | 0x011B      |         283 |
|     601 | 0x011C      |         284 |
|     602 | 0x011D      |         285 |
|     603 | 0x011E      |         286 |
|     604 | 0x011F      |         287 |
|     605 | 0x0120      |         288 |
|     606 | 0x0121      |         289 |
|     607 | 0x0122      |         290 |
|     608 | 0x0123      |         291 |
|     609 | 0x0124      |         292 |
|     610 | 0x0125      |         293 |
|     611 | 0x0126      |         294 |
|     612 | 0x0127      |         295 |
|     613 | 0x0128      |         296 |
|     614 | 0x012A      |         298 |
|     615 | 0x012B      |         299 |
|     616 | 0x012D      |         301 |
|     617 | 0x012E      |         302 |
|     618 | 0x012F      |         303 |
|     619 | 0x0130      |         304 |
|     620 | 0x0132      |         306 |
|     621 | 0x0133      |         307 |
|     622 | 0x0134      |         308 |
|     623 | 0x0135      |         309 |
|     624 | 0x0136      |         310 |
|     625 | 0x0137      |         311 |
|     626 | 0x0138      |         312 |
|     627 | 0x0139      |         313 |
|     628 | 0x013A      |         314 |
|     629 | 0x013B      |         315 |
|     630 | 0x013C      |         316 |
|     631 | 0x013D      |         317 |
|     632 | 0x013E      |         318 |
|     633 | 0x013F      |         319 |
|     634 | 0x0140      |         320 |
|     635 | 0x0141      |         321 |
|     636 | 0x0142      |         322 |
|     637 | 0x0143      |         323 |
|     638 | 0x0144      |         324 |
|     639 | 0x0145      |         325 |
|     640 | 0x0146      |         326 |
|     641 | 0x0147      |         327 |
|     642 | 0x0149      |         329 |
|     643 | 0x014A      |         330 |
|     644 | 0x014C      |         332 |
|     645 | 0x014D      |         333 |
|     646 | 0x014E      |         334 |
|     647 | 0x014F      |         335 |
|     648 | 0x0150      |         336 |
|     649 | 0x0151      |         337 |
|     650 | 0x0152      |         338 |
|     651 | 0x0153      |         339 |
|     652 | 0x0154      |         340 |
|     653 | 0x0155      |         341 |
|     654 | 0x0156      |         342 |
|     655 | 0x0157      |         343 |
|     656 | 0x0158      |         344 |
|     657 | 0x0159      |         345 |
|     658 | 0x015A      |         346 |
|     659 | 0x015B      |         347 |
|     660 | 0x015C      |         348 |
|     661 | 0x015D      |         349 |
|     662 | 0x015E      |         350 |
|     663 | 0x015F      |         351 |
|     664 | 0x0160      |         352 |
|     665 | 0x0161      |         353 |
|     666 | 0x0162      |         354 |
|     667 | 0x0163      |         355 |
|     668 | 0x0164      |         356 |
|     669 | 0x0165      |         357 |
|     670 | 0x0166      |         358 |
|     671 | 0x0167      |         359 |
|     672 | 0x0168      |         360 |
|     673 | 0x0169      |         361 |
|     674 | 0x016A      |         362 |
|     675 | 0x016B      |         363 |
|     676 | 0x016C      |         364 |
|     677 | 0x016D      |         365 |
|     678 | 0x016E      |         366 |
|     679 | 0x016F      |         367 |
|     680 | 0x0170      |         368 |
|     681 | 0x0171      |         369 |
|     682 | 0x0172      |         370 |
|     683 | 0x0173      |         371 |
|     684 | 0x0174      |         372 |
|     685 | 0x0175      |         373 |
|     686 | 0x0176      |         374 |
|     687 | 0x0177      |         375 |
|     688 | 0x0178      |         376 |
|     689 | 0x0179      |         377 |
|     690 | 0x017A      |         378 |
|     691 | 0x017B      |         379 |
|     692 | 0x017C      |         380 |
|     693 | 0x017D      |         381 |
|     694 | 0x017E      |         382 |
|     695 | 0x017F      |         383 |
|     696 | 0x0180      |         384 |
|     697 | 0x0181      |         385 |
|     698 | 0x0182      |         386 |
|     699 | 0x0183      |         387 |
|     700 | 0x0184      |         388 |
|     701 | 0x0185      |         389 |
|     702 | 0x0186      |         390 |
|     703 | 0x0187      |         391 |
|     704 | 0x0188      |         392 |
|     705 | 0x0189      |         393 |
|     706 | 0x018A      |         394 |
|     707 | 0x018B      |         395 |
|     708 | 0x018C      |         396 |
|     709 | 0x018D      |         397 |
|     710 | 0x018E      |         398 |
|     711 | 0x018F      |         399 |
|     712 | 0x0190      |         400 |
|     713 | 0x0191      |         401 |
|     714 | 0x0192      |         402 |
|     715 | 0x0193      |         403 |
|     716 | 0x0194      |         404 |
|     717 | 0x0195      |         405 |
|     718 | 0x0196      |         406 |
|     719 | 0x0197      |         407 |
|     720 | 0x0198      |         408 |
|     721 | 0x0199      |         409 |
|     722 | 0x019A      |         410 |
|     723 | 0x019B      |         411 |
|     724 | 0x019C      |         412 |
|     725 | 0x019D      |         413 |
|     726 | 0x019E      |         414 |
|     727 | 0x019F      |         415 |
|     728 | 0x01A0      |         416 |
|     729 | 0x01A1      |         417 |
|     730 | 0x01A2      |         418 |
|     731 | 0x01A3      |         419 |
|     732 | 0x01A4      |         420 |
|     733 | 0x01A5      |         421 |
|     734 | 0x01A6      |         422 |
|     735 | 0x01A7      |         423 |
|     736 | 0x01A8      |         424 |
|     737 | 0x01A9      |         425 |
|     738 | 0x01AA      |         426 |
|     739 | 0x01AB      |         427 |
|     740 | 0x01AC      |         428 |
|     741 | 0x01AD      |         429 |
|     742 | 0x01AE      |         430 |
|     743 | 0x01AF      |         431 |
|     744 | 0x01B0      |         432 |
|     745 | 0x01B1      |         433 |
|     746 | 0x01B2      |         434 |
|     747 | 0x01B3      |         435 |
|     748 | 0x01B4      |         436 |
|     749 | 0x01B5      |         437 |
|     750 | 0x01B6      |         438 |
|     751 | 0x01B7      |         439 |
|     752 | 0x01B8      |         440 |
|     753 | 0x01B9      |         441 |
|     754 | 0x01BA      |         442 |
|     755 | 0x01BB      |         443 |
|     756 | 0x01BC      |         444 |
|     757 | 0x01BD      |         445 |
|     758 | 0x01BE      |         446 |
|     759 | 0x01BF      |         447 |
|     760 | 0x01C0      |         448 |
|     761 | 0x01C1      |         449 |
|     762 | 0x01C2      |         450 |
|     763 | 0x01C3      |         451 |
|     764 | 0x01C4      |         452 |
|     765 | 0x01C5      |         453 |
|     766 | 0x01C6      |         454 |
|     767 | 0x01C7      |         455 |
|     768 | 0x01C8      |         456 |
|     769 | 0x01C9      |         457 |
|     770 | 0x01CA      |         458 |
|     771 | 0x01CB      |         459 |
|     772 | 0x01CC      |         460 |
|     773 | 0x01CD      |         461 |
|     774 | 0x01CE      |         462 |
|     775 | 0x01CF      |         463 |
|     776 | 0x01D0      |         464 |
|     777 | 0x01D1      |         465 |
|     778 | 0x01D2      |         466 |
|     779 | 0x01D3      |         467 |
|     780 | 0x01D4      |         468 |
|     781 | 0x01D5      |         469 |
|     782 | 0x01D6      |         470 |
|     783 | 0x01D7      |         471 |
|     784 | 0x01D8      |         472 |
|     785 | 0x01D9      |         473 |
|     786 | 0x01DA      |         474 |
|     787 | 0x01DB      |         475 |
|     788 | 0x01DC      |         476 |
|     789 | 0x01DD      |         477 |
|     790 | 0x01DE      |         478 |
|     791 | 0x01DF      |         479 |
|     792 | 0x01E0      |         480 |
|     793 | 0x01E1      |         481 |
|     794 | 0x01E2      |         482 |
|     795 | 0x01E3      |         483 |
|     796 | 0x01E4      |         484 |
|     797 | 0x01E5      |         485 |
|     798 | 0x01E6      |         486 |
|     799 | 0x01E7      |         487 |
|     800 | 0x01E8      |         488 |
|     801 | 0x01E9      |         489 |
|     802 | 0x01EA      |         490 |
|     803 | 0x01EB      |         491 |
|     804 | 0x01EC      |         492 |
|     805 | 0x01ED      |         493 |
|     806 | 0x01EE      |         494 |
|     807 | 0x01F0      |         496 |
|     808 | 0x01F1      |         497 |
|     809 | 0x01F2      |         498 |
|     810 | 0x01F3      |         499 |
|     811 | 0x01F4      |         500 |
|     812 | 0x01F5      |         501 |
|     813 | 0x01F6      |         502 |
|     814 | 0x01F7      |         503 |
|     815 | 0x01F9      |         505 |
|     816 | 0x01FA      |         506 |
|     817 | 0x01FB      |         507 |
|     818 | 0x01FC      |         508 |
|     819 | 0x01FD      |         509 |
|     820 | 0x01FF      |         511 |
|     821 | 0x0201      |         513 |
|     822 | 0x0202      |         514 |
|     823 | 0x0203      |         515 |
|     824 | 0x0204      |         516 |
|     825 | 0x0205      |         517 |
|     826 | 0x0206      |         518 |
|     827 | 0x0207      |         519 |
|     828 | 0x0208      |         520 |
|     829 | 0x0209      |         521 |
|     830 | 0x020A      |         522 |
|     831 | 0x020B      |         523 |
|     832 | 0x020C      |         524 |
|     833 | 0x020D      |         525 |
|     834 | 0x020E      |         526 |
|     835 | 0x020F      |         527 |
|     836 | 0x0210      |         528 |
|     837 | 0x0211      |         529 |
|     838 | 0x0212      |         530 |
|     839 | 0x0213      |         531 |
|     840 | 0x0214      |         532 |
|     841 | 0x0215      |         533 |
|     842 | 0x0217      |         535 |
|     843 | 0x0218      |         536 |
|     844 | 0x0219      |         537 |
|     845 | 0x021A      |         538 |
|     846 | 0x021B      |         539 |
|     847 | 0x021C      |         540 |
|     848 | 0x021D      |         541 |
|     849 | 0x021E      |         542 |
|     850 | 0x021F      |         543 |
|     851 | 0x0220      |         544 |
|     852 | 0x0221      |         545 |
|     853 | 0x0222      |         546 |
|     854 | 0x0223      |         547 |
|     855 | 0x0224      |         548 |
|     856 | 0x0225      |         549 |
|     857 | 0x0226      |         550 |
|     858 | 0x0227      |         551 |
|     859 | 0x0228      |         552 |
|     860 | 0x022A      |         554 |
|     861 | 0x022B      |         555 |
|     862 | 0x022C      |         556 |
|     863 | 0x022D      |         557 |
|     864 | 0x022E      |         558 |
|     865 | 0x022F      |         559 |
|     866 | 0x0230      |         560 |
|     867 | 0x0231      |         561 |
|     868 | 0x0232      |         562 |
|     869 | 0x0233      |         563 |
|     870 | 0x0234      |         564 |
|     871 | 0x0235      |         565 |
|     872 | 0x0236      |         566 |
|     873 | 0x0237      |         567 |
|     874 | 0x0238      |         568 |
|     875 | 0x0239      |         569 |
|     876 | 0x023A      |         570 |
|     877 | 0x023B      |         571 |
|     878 | 0x023C      |         572 |
|     879 | 0x023D      |         573 |
|     880 | 0x023E      |         574 |
|     881 | 0x023F      |         575 |
|     882 | 0x0240      |         576 |
|     883 | 0x0241      |         577 |
|     884 | 0x0242      |         578 |
|     885 | 0x0243      |         579 |
|     886 | 0x0244      |         580 |
|     887 | 0x0245      |         581 |
|     888 | 0x0246      |         582 |
|     889 | 0x0247      |         583 |
|     890 | 0x0248      |         584 |
|     891 | 0x0249      |         585 |
|     892 | 0x024A      |         586 |
|     893 | 0x024B      |         587 |
|     894 | 0x024C      |         588 |
|     895 | 0x024D      |         589 |
|     896 | 0x024E      |         590 |
|     897 | 0x024F      |         591 |
|     898 | 0x0250      |         592 |
|     899 | 0x0251      |         593 |
|     900 | 0x0252      |         594 |
|     901 | 0x0253      |         595 |
|     902 | 0x0254      |         596 |
|     903 | 0x0255      |         597 |
|     904 | 0x0256      |         598 |
|     905 | 0x0257      |         599 |
|     906 | 0x0258      |         600 |
|     907 | 0x0259      |         601 |
|     908 | 0x025A      |         602 |
|     909 | 0x025B      |         603 |
|     910 | 0x025C      |         604 |
|     911 | 0x025D      |         605 |
|     912 | 0x025E      |         606 |
|     913 | 0x025F      |         607 |
|     914 | 0x0261      |         609 |
|     915 | 0x0262      |         610 |
|     916 | 0x0263      |         611 |
|     917 | 0x0264      |         612 |
|     918 | 0x0265      |         613 |
|     919 | 0x0266      |         614 |
|     920 | 0x0267      |         615 |
|     921 | 0x0268      |         616 |
|     922 | 0x0269      |         617 |
|     923 | 0x026A      |         618 |
|     924 | 0x026B      |         619 |
|     925 | 0x026C      |         620 |
|     926 | 0x026D      |         621 |
|     927 | 0x026E      |         622 |
|     928 | 0x026F      |         623 |
|     929 | 0x0272      |         626 |
|     930 | 0x0273      |         627 |
|     931 | 0x0274      |         628 |
|     932 | 0x0275      |         629 |
|     933 | 0x0276      |         630 |
|     934 | 0x0277      |         631 |
|     935 | 0x0278      |         632 |
|     936 | 0x0279      |         633 |
|     937 | 0x027A      |         634 |
|     938 | 0x027B      |         635 |
|     939 | 0x027C      |         636 |
|     940 | 0x027D      |         637 |
|     941 | 0x027E      |         638 |
|     942 | 0x027F      |         639 |
|     943 | 0x0280      |         640 |
|     944 | 0x0281      |         641 |
|     945 | 0x0282      |         642 |
|     946 | 0x0283      |         643 |
|     947 | 0x0284      |         644 |
|     948 | 0x0285      |         645 |
|     949 | 0x0286      |         646 |
|     950 | 0x0287      |         647 |
|     951 | 0x0288      |         648 |
|     952 | 0x0289      |         649 |
|     953 | 0x028A      |         650 |
|     954 | 0x028B      |         651 |
|     955 | 0x028C      |         652 |
|     956 | 0x028D      |         653 |
|     957 | 0x028E      |         654 |
|     958 | 0x028F      |         655 |
|     959 | 0x0290      |         656 |
|     960 | 0x0291      |         657 |
|     961 | 0x0292      |         658 |
|     962 | 0x0293      |         659 |
|     963 | 0x0294      |         660 |
|     964 | 0x0295      |         661 |
|     965 | 0x0296      |         662 |
|     966 | 0x0297      |         663 |
|     967 | 0x0298      |         664 |
|     968 | 0x0299      |         665 |
|     969 | 0x029A      |         666 |
|     970 | 0x029B      |         667 |
|     971 | 0x029C      |         668 |
|     972 | 0x029D      |         669 |
|     973 | 0x029E      |         670 |
|     974 | 0x029F      |         671 |
|     975 | 0x02A0      |         672 |
|     976 | 0x02A1      |         673 |
|     977 | 0x02A2      |         674 |
|     978 | 0x02A3      |         675 |
|     979 | 0x02A4      |         676 |
|     980 | 0x02A5      |         677 |
|     981 | 0x02A6      |         678 |
|     982 | 0x02A7      |         679 |
|     983 | 0x02A8      |         680 |
|     984 | 0x02A9      |         681 |
|     985 | 0x02AA      |         682 |
|     986 | 0x02AB      |         683 |
|     987 | 0x02AC      |         684 |
|     988 | 0x02AD      |         685 |
|     989 | 0x02AE      |         686 |
|     990 | 0x02AF      |         687 |
|     991 | 0x02B0      |         688 |
|     992 | 0x02B1      |         689 |
|     993 | 0x02B2      |         690 |
|     994 | 0x02B3      |         691 |
|     995 | 0x02B4      |         692 |
|     996 | 0x02B5      |         693 |
|     997 | 0x02B6      |         694 |
|     998 | 0x02B7      |         695 |
|     999 | 0x02B8      |         696 |
|    1000 | 0x02B9      |         697 |
|    1001 | 0x02BA      |         698 |
|    1002 | 0x02BB      |         699 |
|    1003 | 0x02BC      |         700 |
|    1004 | 0x02BD      |         701 |
|    1005 | 0x02BE      |         702 |
|    1006 | 0x02BF      |         703 |
|    1007 | 0x02C0      |         704 |
|    1008 | 0x02C1      |         705 |
|    1009 | 0x02C2      |         706 |
|    1010 | 0x02C3      |         707 |
|    1011 | 0x02C4      |         708 |
|    1012 | 0x02C5      |         709 |
|    1013 | 0x02C6      |         710 |
|    1014 | 0x02C7      |         711 |
|    1015 | 0x02C8      |         712 |
|    1016 | 0x02C9      |         713 |
|    1017 | 0x02CA      |         714 |
|    1018 | 0x02CB      |         715 |
|    1019 | 0x02CC      |         716 |
|    1020 | 0x02CD      |         717 |
|    1021 | 0x02CE      |         718 |
|    1022 | 0x02CF      |         719 |
|    1023 | 0x02D0      |         720 |
|    1024 | 0x02D1      |         721 |
|    1025 | 0x02D2      |         722 |
|    1026 | 0x02D3      |         723 |
|    1027 | 0x02D4      |         724 |
|    1028 | 0x02D5      |         725 |
|    1029 | 0x02D6      |         726 |
|    1030 | 0x02D7      |         727 |
|    1031 | 0x02D8      |         728 |
|    1032 | 0x02D9      |         729 |
|    1033 | 0x02DA      |         730 |
|    1034 | 0x02DB      |         731 |
|    1035 | 0x02DC      |         732 |
|    1036 | 0x02DD      |         733 |
|    1037 | 0x02DE      |         734 |
|    1038 | 0x02DF      |         735 |
|    1039 | 0x02E0      |         736 |
|    1040 | 0x02E1      |         737 |
|    1041 | 0x02E2      |         738 |
|    1042 | 0x02E3      |         739 |
|    1043 | 0x02E4      |         740 |
|    1044 | 0x02E7      |         743 |
|    1045 | 0x02E8      |         744 |
|    1046 | 0x02E9      |         745 |
|    1047 | 0x02EA      |         746 |
|    1048 | 0x02EB      |         747 |
|    1049 | 0x02EC      |         748 |
|    1050 | 0x02ED      |         749 |
|    1051 | 0x02EE      |         750 |
|    1052 | 0x02EF      |         751 |
|    1053 | 0x02F0      |         752 |
|    1054 | 0x02F1      |         753 |
|    1055 | 0x02F2      |         754 |
|    1056 | 0x02F3      |         755 |
|    1057 | 0x02F4      |         756 |
|    1058 | 0x02F5      |         757 |
|    1059 | 0x02F6      |         758 |
|    1060 | 0x02F7      |         759 |
|    1061 | 0x02F8      |         760 |
|    1062 | 0x02F9      |         761 |
|    1063 | 0x02FA      |         762 |
|    1064 | 0x02FB      |         763 |
|    1065 | 0x02FC      |         764 |
|    1066 | 0x02FD      |         765 |
|    1067 | 0x02FF      |         767 |
|    1068 | 0x0300      |         768 |
|    1069 | 0x0301      |         769 |
|    1070 | 0x0302      |         770 |
|    1071 | 0x0303      |         771 |
|    1072 | 0x0304      |         772 |
|    1073 | 0x0305      |         773 |
|    1074 | 0x0306      |         774 |
|    1075 | 0x0307      |         775 |
|    1076 | 0x0308      |         776 |
|    1077 | 0x0309      |         777 |
|    1078 | 0x030A      |         778 |
|    1079 | 0x030B      |         779 |
|    1080 | 0x030C      |         780 |
|    1081 | 0x030D      |         781 |
|    1082 | 0x030E      |         782 |
|    1083 | 0x030F      |         783 |
|    1084 | 0x0310      |         784 |
|    1085 | 0x0311      |         785 |
|    1086 | 0x0312      |         786 |
|    1087 | 0x0313      |         787 |
|    1088 | 0x0314      |         788 |
|    1089 | 0x0315      |         789 |
|    1090 | 0x0316      |         790 |
|    1091 | 0x0317      |         791 |
|    1092 | 0x0318      |         792 |
|    1093 | 0x0319      |         793 |
|    1094 | 0x031A      |         794 |
|    1095 | 0x031B      |         795 |
|    1096 | 0x031C      |         796 |
|    1097 | 0x031D      |         797 |
|    1098 | 0x031E      |         798 |
|    1099 | 0x031F      |         799 |
|    1100 | 0x0320      |         800 |
|    1101 | 0x0321      |         801 |
|    1102 | 0x0322      |         802 |
|    1103 | 0x0323      |         803 |
|    1104 | 0x0324      |         804 |
|    1105 | 0x0325      |         805 |
|    1106 | 0x0326      |         806 |
|    1107 | 0x0327      |         807 |
|    1108 | 0x0328      |         808 |
|    1109 | 0x0329      |         809 |
|    1110 | 0x032A      |         810 |
|    1111 | 0x032B      |         811 |
|    1112 | 0x032C      |         812 |
|    1113 | 0x032D      |         813 |
|    1114 | 0x032E      |         814 |
|    1115 | 0x032F      |         815 |
|    1116 | 0x0330      |         816 |
|    1117 | 0x0331      |         817 |
|    1118 | 0x0332      |         818 |
|    1119 | 0x0333      |         819 |
|    1120 | 0x0334      |         820 |
|    1121 | 0x0335      |         821 |
|    1122 | 0x0336      |         822 |
|    1123 | 0x0337      |         823 |
|    1124 | 0x0338      |         824 |
|    1125 | 0x0339      |         825 |
|    1126 | 0x033A      |         826 |
|    1127 | 0x033B      |         827 |
|    1128 | 0x033C      |         828 |
|    1129 | 0x033E      |         830 |
|    1130 | 0x07CC      |        1996 |
|    1131 | 0x07CD      |        1997 |
|    1132 | 0x07CE      |        1998 |
|    1133 | 0x07CF      |        1999 |
|    1134 | 0x07D0      |        2000 |
|    1135 | 0x07D1      |        2001 |
|    1136 | 0x07D2      |        2002 |
|    1137 | 0x32D1      |       13009 |
|    1138 | 0x32D2      |       13010 |
|    1139 | 0x32D3      |       13011 |
|    1140 | 0x32D4      |       13012 |
|    1141 | 0x32D5      |       13013 |
|    1142 | 0x32D6      |       13014 |
|    1143 | 0x32F0      |       13040 |
|    1144 | 0x32F2      |       13042 |
|    1145 | 0x3488      |       13448 |
|    1146 | 0x3489      |       13449 |
|    1147 | 0x3317      |       13079 |
|    1148 | 0x31DF      |       12767 |
|    1149 | 0x31E0      |       12768 |
|    1150 | 0x31E1      |       12769 |
|    1151 | 0x31E2      |       12770 |
|    1152 | 0x31E3      |       12771 |
|    1153 | 0x31E4      |       12772 |
|    1154 | 0x31E5      |       12773 |
|    1155 | 0x31E6      |       12774 |
|    1156 | 0x31E7      |       12775 |
|    1157 | 0x31E8      |       12776 |
|    1158 | 0x31E9      |       12777 |
|    1159 | 0x31EA      |       12778 |
|    1160 | 0x31EB      |       12779 |
|    1161 | 0x333A      |       13114 |
|    1162 | 0x330A      |       13066 |
|    1163 | 0x330B      |       13067 |
|    1164 | 0x3339      |       13113 |
|    1165 | 0x3482      |       13442 |
|    1166 | 0x347F      |       13439 |
|    1167 | 0x3480      |       13440 |
|    1168 | 0x347C      |       13436 |
|    1169 | 0x3481      |       13441 |
|    1170 | 0x347D      |       13437 |
|    1171 | 0x3483      |       13443 |
|    1172 | 0x3491      |       13457 |
|    1173 | 0x3492      |       13458 |
|    1174 | 0x3493      |       13459 |
|    1175 | 0x3494      |       13460 |
|    1176 | 0x3495      |       13461 |
|    1177 | 0x3496      |       13462 |
|    1178 | 0x3497      |       13463 |
|    1179 | 0x3498      |       13464 |
|    1180 | 0x3536      |       13622 |
|    1181 | 0x3499      |       13465 |
|    1182 | 0x34A0      |       13472 |
|    1183 | 0x34A6      |       13478 |
|    1184 | 0x34AC      |       13484 |
|    1185 | 0x34AE      |       13486 |
|    1186 | 0x3472      |       13426 |
|    1187 | 0x3473      |       13427 |
|    1188 | 0x04D9      |        1241 |
|    1189 | 0x369B      |       13979 |
|    1190 | 0x369C      |       13980 |
|    1191 | 0x369D      |       13981 |
|    1192 | 0x36A4      |       13988 |
|    1193 | 0x36A5      |       13989 |
|    1194 | 0x36A6      |       13990 |
|    1195 | 0x36A1      |       13985 |
|    1196 | 0x36A2      |       13986 |
|    1197 | 0x36A0      |       13984 |
|    1198 | 0x055F      |        1375 |
|    1199 | 0x34C0      |       13504 |
|    1200 | 0x36A3      |       13987 |
|    1201 | 0x34C1      |       13505 |
|    1202 | 0x369E      |       13982 |
|    1203 | 0x369F      |       13983 |
|    1204 | 0x0B22      |        2850 |
|    1205 | 0x3661      |       13921 |
|    1206 | 0x3667      |       13927 |
|    1207 | 0x3662      |       13922 |
|    1208 | 0x3668      |       13928 |
|    1209 | 0x3669      |       13929 |
|    1210 | 0x3663      |       13923 |
|    1211 | 0x3664      |       13924 |
|    1212 | 0x3665      |       13925 |
|    1213 | 0x3666      |       13926 |
|    1214 | 0x36DD      |       14045 |
|    1215 | 0x36E0      |       14048 |
|    1216 | 0x36E1      |       14049 |
|    1217 | 0x36E3      |       14051 |
|    1218 | 0x36E4      |       14052 |
|    1219 | 0x36DE      |       14046 |
|    1220 | 0x36DF      |       14047 |
|    1221 | 0x36AF      |       13999 |
|    1222 | 0x36B0      |       14000 |
|    1223 | 0x36A9      |       13993 |
|    1224 | 0x036C      |         876 |
|    1225 | 0x36AA      |       13994 |
|    1226 | 0x36AB      |       13995 |
|    1227 | 0x36AC      |       13996 |
|    1228 | 0x36C2      |       14018 |
|    1229 | 0x36C3      |       14019 |
|    1230 | 0x36CC      |       14028 |
|    1231 | 0x36CD      |       14029 |
|    1232 | 0x36CE      |       14030 |
|    1233 | 0x035F      |         863 |
|    1234 | 0x36D4      |       14036 |
|    1235 | 0x355D      |       13661 |
|    1236 | 0x3561      |       13665 |
|    1237 | 0x3562      |       13666 |
|    1238 | 0x3563      |       13667 |
|    1239 | 0x355E      |       13662 |
|    1240 | 0x355F      |       13663 |
|    1241 | 0x3560      |       13664 |
|    1242 | 0x36E2      |       14050 |
|    1243 | 0x36E5      |       14053 |
|    1244 | 0x3558      |       13656 |
|    1245 | 0x3559      |       13657 |
|    1246 | 0x355A      |       13658 |
|    1247 | 0x355B      |       13659 |
|    1248 | 0x355C      |       13660 |
|    1249 | 0x370F      |       14095 |
|    1250 | 0x36B3      |       14003 |
|    1251 | 0x36B4      |       14004 |
|    1252 | 0x36B5      |       14005 |
|    1253 | 0x36B6      |       14006 |
|    1254 | 0x36B7      |       14007 |
|    1255 | 0x36B8      |       14008 |
|    1256 | 0x36B9      |       14009 |
|    1257 | 0x36BA      |       14010 |
|    1258 | 0x36BB      |       14011 |
|    1259 | 0x36BC      |       14012 |
|    1260 | 0x36BD      |       14013 |
|    1261 | 0x0906      |        2310 |
|    1262 | 0x36F5      |       14069 |
|    1263 | 0x36F7      |       14071 |
|    1264 | 0x36B1      |       14001 |
|    1265 | 0x36B2      |       14002 |
|    1266 | 0x36C4      |       14020 |
|    1267 | 0x36C5      |       14021 |
|    1268 | 0x36CF      |       14031 |
|    1269 | 0x36D0      |       14032 |
|    1270 | 0x36D1      |       14033 |
|    1271 | 0x36D5      |       14037 |
|    1272 | 0x36EF      |       14063 |
|    1273 | 0x36F0      |       14064 |
|    1274 | 0x36F1      |       14065 |
|    1275 | 0x36F6      |       14070 |
|    1276 | 0x36F2      |       14066 |
|    1277 | 0x36F3      |       14067 |
|    1278 | 0x36F4      |       14068 |
|    1279 | 0x0735      |        1845 |
|    1280 | 0x0358      |         856 |
|    1281 | 0x36FE      |       14078 |
|    1282 | 0x3700      |       14080 |
|    1283 | 0x3707      |       14087 |
|    1284 | 0x3709      |       14089 |
|    1285 | 0x03D9      |         985 |
|    1286 | 0x36A7      |       13991 |
|    1287 | 0x36A8      |       13992 |
|    1288 | 0x36BE      |       14014 |
|    1289 | 0x36BF      |       14015 |
|    1290 | 0x36C6      |       14022 |
|    1291 | 0x36C7      |       14023 |
|    1292 | 0x36C8      |       14024 |
|    1293 | 0x045F      |        1119 |
|    1294 | 0x36D2      |       14034 |
|    1295 | 0x36F8      |       14072 |
|    1296 | 0x36F9      |       14073 |
|    1297 | 0x36FA      |       14074 |
|    1298 | 0x36FF      |       14079 |
|    1299 | 0x05D9      |        1497 |
|    1300 | 0x36AD      |       13997 |
|    1301 | 0x36AE      |       13998 |
|    1302 | 0x36C0      |       14016 |
|    1303 | 0x36C1      |       14017 |
|    1304 | 0x36C9      |       14025 |
|    1305 | 0x36CA      |       14026 |
|    1306 | 0x36CB      |       14027 |
|    1307 | 0x36D3      |       14035 |
|    1308 | 0x3701      |       14081 |
|    1309 | 0x3702      |       14082 |
|    1310 | 0x3703      |       14083 |
|    1311 | 0x3708      |       14088 |
|    1312 | 0x36FB      |       14075 |
|    1313 | 0x36FC      |       14076 |
|    1314 | 0x36FD      |       14077 |
|    1315 | 0x3704      |       14084 |
|    1316 | 0x3705      |       14085 |
|    1317 | 0x3706      |       14086 |
|    1318 | 0x36D6      |       14038 |
|    1319 | 0x36D7      |       14039 |
|    1320 | 0x36D8      |       14040 |
|    1321 | 0x36D9      |       14041 |
|    1322 | 0x36DA      |       14042 |
|    1323 | 0x36DB      |       14043 |
|    1324 | 0x36DC      |       14044 |
|    1325 | 0x34C8      |       13512 |
|    1326 | 0x34C9      |       13513 |
|    1327 | 0x34CA      |       13514 |
|    1328 | 0x34CC      |       13516 |
|    1329 | 0x34CB      |       13515 |
|    1330 | 0x34CD      |       13517 |
|    1331 | 0x34CE      |       13518 |
|    1332 | 0x34CF      |       13519 |
|    1333 | 0x34D0      |       13520 |
|    1334 | 0x34D1      |       13521 |
|    1335 | 0x34D2      |       13522 |
|    1336 | 0x34D3      |       13523 |
|    1337 | 0x34D4      |       13524 |
|    1338 | 0x34D5      |       13525 |
|    1339 | 0x34D7      |       13527 |
|    1340 | 0x34D6      |       13526 |
|    1341 | 0x34D8      |       13528 |
|    1342 | 0x34D9      |       13529 |
|    1343 | 0x34DB      |       13531 |
|    1344 | 0x34DA      |       13530 |
|    1345 | 0x34DC      |       13532 |
|    1346 | 0x34DE      |       13534 |
|    1347 | 0x34DD      |       13533 |
|    1348 | 0x34DF      |       13535 |
|    1349 | 0x34E0      |       13536 |
|    1350 | 0x0C0C      |        3084 |
|    1351 | 0x0C23      |        3107 |
|    1352 | 0x34C2      |       13506 |
|    1353 | 0x348A      |       13450 |
|    1354 | 0x348B      |       13451 |
|    1355 | 0x348C      |       13452 |
|    1356 | 0x348D      |       13453 |
|    1357 | 0x348E      |       13454 |
|    1358 | 0x348F      |       13455 |
|    1359 | 0x3490      |       13456 |
|    1360 | 0x367C      |       13948 |
|    1361 | 0x367B      |       13947 |
|    1362 | 0x089E      |        2206 |
|    1363 | 0x3689      |       13961 |
|    1364 | 0x0929      |        2345 |
|    1365 | 0x3682      |       13954 |
|    1366 | 0x3681      |       13953 |
|    1367 | 0x3554      |       13652 |
|    1368 | 0x0895      |        2197 |
|    1369 | 0x3553      |       13651 |
|    1370 | 0x15E5      |        5605 |
|    1371 | 0x367F      |       13951 |
|    1372 | 0x11C1      |        4545 |
|    1373 | 0x367E      |       13950 |
|    1374 | 0x15E6      |        5606 |
|    1375 | 0x367D      |       13949 |
|    1376 | 0x1544      |        5444 |
|    1377 | 0x15E7      |        5607 |
|    1378 | 0x15E8      |        5608 |
|    1379 | 0x089B      |        2203 |
|    1380 | 0x089C      |        2204 |
|    1381 | 0x089D      |        2205 |
|    1382 | 0x3688      |       13960 |
|    1383 | 0x089F      |        2207 |
|    1384 | 0x08A2      |        2210 |
|    1385 | 0x08A0      |        2208 |
|    1386 | 0x1125      |        4389 |
|    1387 | 0x08A3      |        2211 |
|    1388 | 0x08A1      |        2209 |
|    1389 | 0x3687      |       13959 |
|    1390 | 0x092A      |        2346 |
|    1391 | 0x3680      |       13952 |
|    1392 | 0x368A      |       13962 |
|    1393 | 0x3684      |       13956 |
|    1394 | 0x3683      |       13955 |
|    1395 | 0x368B      |       13963 |
|    1396 | 0x3686      |       13958 |
|    1397 | 0x3685      |       13957 |
|    1398 | 0x3552      |       13650 |
|    1399 | 0x3670      |       13936 |
|    1400 | 0x3671      |       13937 |
|    1401 | 0x3672      |       13938 |
|    1402 | 0x3677      |       13943 |
|    1403 | 0x3673      |       13939 |
|    1404 | 0x3674      |       13940 |
|    1405 | 0x3675      |       13941 |
|    1406 | 0x3718      |       14104 |
|    1407 | 0x3719      |       14105 |
|    1408 | 0x3678      |       13944 |
|    1409 | 0x3676      |       13942 |
|    1410 | 0x3710      |       14096 |
|    1411 | 0x3714      |       14100 |
|    1412 | 0x3715      |       14101 |
|    1413 | 0x3711      |       14097 |
|    1414 | 0x368E      |       13966 |
|    1415 | 0x0432      |        1074 |
|    1416 | 0x368F      |       13967 |
|    1417 | 0x3696      |       13974 |
|    1418 | 0x0532      |        1330 |
|    1419 | 0x3690      |       13968 |
|    1420 | 0x0632      |        1586 |
|    1421 | 0x3691      |       13969 |
|    1422 | 0x0732      |        1842 |
|    1423 | 0x3692      |       13970 |
|    1424 | 0x0832      |        2098 |
|    1425 | 0x3693      |       13971 |
|    1426 | 0x0932      |        2354 |
|    1427 | 0x3694      |       13972 |
|    1428 | 0x368D      |       13965 |
|    1429 | 0x3698      |       13976 |
|    1430 | 0x3699      |       13977 |
|    1431 | 0x3697      |       13975 |
|    1432 | 0x349A      |       13466 |
|    1433 | 0x349C      |       13468 |
|    1434 | 0x349E      |       13470 |
|    1435 | 0x34A4      |       13476 |
|    1436 | 0x34B6      |       13494 |
|    1437 | 0x34B8      |       13496 |
|    1438 | 0x34A8      |       13480 |
|    1439 | 0x34AA      |       13482 |
|    1440 | 0x34B3      |       13491 |
|    1441 | 0x34C5      |       13509 |
|    1442 | 0x34C7      |       13511 |

## String References

- **12651**: I'm Zopago, advanced chocobo trainer and member of the Vana'diel Chocobo Society.
- **12652**: You like chocobos, don't you? I can tell just by the look in your eyes. If you want, you can join our society.
- **12653**: Trade an egg to me if you want to start raising a chocobo.
- **12654**: You seem to be raising a chocobo at another nation's stables. Just ask Gonija if you have any questions.
- **12683**: Is this okay? [Yes./No.]
- **12686**: Sorry, but you will have to do this later. I have something new to report.
- **12693**: What would you like to do? [Ask about chocobo's condition./Care for your chocobo./Set up a care schedule./Name your chocobo./Request documentation./Register to call your chocobo./Receive your $0./Purchase $0./----/----/----/----/----/----/----/----/----/----/----/----/----/----/----/----/----/----/Go forward 1 unit./Abilities print (debug)./User work print (debug)./Retire your chocobo./Give up chocobo raising./Nothing.]
- **12695**: Request which documentation? [Chococard./Racing Form./Nothing.]
- **12734**: Next program: [Basic care/Rest/Take a walk in town/Listen to music/Exercise alone/Exercise in a group/Interact with children/Interact with chocobos/Carry packages/Exhibit to the public/Deliver messages/Dig for treasure/Act in a play] [Plan 1: [Basic care/Rest/Take a walk in town/Listen to music/Exercise alone/Exercise in a group/Interact with children/Interact with chocobos/Carry packages/Exhibit to the public/Deliver messages/Dig for treasure/Act in a play] ($0 [day/days])/Plan 2: [Basic care/Rest/Take a walk in town/Listen to music/Exercise alone/Exercise in a group/Interact with children/Interact with chocobos/Carry packages/Exhibit to the public/Deliver messages/Dig for treasure/Act in a play] ($2 [day/days])/Never mind./Next page.]
- **12735**: Next program: [Basic care/Rest/Take a walk in town/Listen to music/Exercise alone/Exercise in a group/Interact with children/Interact with chocobos/Carry packages/Exhibit to the public/Deliver messages/Dig for treasure/Act in a play] [Plan 3: [Basic care/Rest/Take a walk in town/Listen to music/Exercise alone/Exercise in a group/Interact with children/Interact with chocobos/Carry packages/Exhibit to the public/Deliver messages/Dig for treasure/Act in a play] ($0 [day/days])/Plan 4: [Basic care/Rest/Take a walk in town/Listen to music/Exercise alone/Exercise in a group/Interact with children/Interact with chocobos/Carry packages/Exhibit to the public/Deliver messages/Dig for treasure/Act in a play] ($2 [day/days])/Never mind./Previous page.]
- **12736**: Choose a plan for your chocobo. [Basic care./Rest./Take a walk in town./Listen to music./Exercise alone./Exercise in a group./Interact with children./Interact with chocobos./Carry packages./Exhibit to the public./Deliver messages./Dig for treasure./Act in a play./----/----/----/----/----/----/----/----/----/----/----/----/----/----/----/----/----/----/Never mind.]
- **12738**: For how many days? [One./Two./Three./Four./Five./Six./Seven./I've changed my mind.]
- **12740**: Plan $0 will be registered as follows: [Basic care/Rest/Take a walk in town/Listen to music/Exercise alone/Exercise in a group/Interact with children/Interact with chocobos/Carry packages/Exhibit to the public/Deliver messages/Dig for treasure/Act in a play] Number of days: $2
- **12744**: Plan $0 has been successfully registered on your chocobo's care schedule.
- **12764**: --Chocobo Status Report: Day $0--
- **12765**: --Chocobo Status Report: Day $0-Day $1--
- **12767**: Plan: Basic Care
- **12768**: Plan: Rest
- **12769**: Plan: Take a Walk
- **12770**: Plan: Listen to Music
- **12771**: Plan: Exercise Alone
- **12772**: Plan: Exercise In a Group
- **12773**: Plan: Interact with Children
- **12774**: Plan: Interact with Chocobos
- **12775**: Plan: Carry Packages
- **12776**: Plan: Exhibit to the Public
- **12777**: Plan: Deliver Messages
- **12778**: Plan: Dig for Treasure
- **12779**: Plan: Act In a Play
- **12793**: What will you do? [Watch over the chocobo./Tell a story./Scold the chocobo./Compete against others./Go on a walk (short)./Go on a walk (regular)./Go on a walk (long)./----/----/----/----/----/----/----/----/----/----/----/----/----/----/----/----/----/----/----/----/----/----/----/----/Nothing.]
- **12794**: [Watch over the chocobo/Tell a story/Scold the chocobo/Compete against others/Go on a walk (short)/Go on a walk (regular)/Go on a walk (long)]? [Yes./No.]
- **12804**: Choose a word category ([first name/last name]). [1-letter words."-letter words."-letter words./4-letter words./5-letter words./6-letter words./7-letter words./8-letter words./9-letter words./10-letter words./11-letter words./12-letter words./13-letter words./14-letter words./Return./Cancel.]
- **12805**: Is this name okay? [%0 %1? Yes!/On second thought...]
- **12807**: Choose a word.(%0) [$0/$1/$2/$3/$4/$5/$6/$7/$8/$9/$10/$11/$12/$13/$14/$15/$16/$17/$18/$19/$20/$21/$22/$23/$24/$25/$26/$27/$28/$29/Cancel./View other options.]
- **12812**: Purchase a chococard? ($0 gil each) [Yes./Not now.]
- **12815**: Would you like a free form? [Right away!/Maybe later.]
- **12820**: Register a chocobo? ($0 gil) [Yes./Not now.]
- **12827**: Purchase $0? ($1 gil) [Yes./Not now.]
- **13009**: Choose an area. [San d'Oria./Bastok./Windurst./Chocobo Circuit (Debug only)./Cancel.]
- **13010**: Choose an event category. [Care plans./Direct care./Status abnormalities./Other./Cancel.]
- **13011**: Choose an event. [Basic care./Rest./Take a walk in town./Listen to music./Exercise alone./Exercise in a group./Interact with children./Interact with chocobos./Carry packages./Exhibit to the public./Deliver messages./Dig for treasure./Act in a play./Cancel.]
- **13012**: Choose an event. [Watch over chocobo./Feed chocobo./Tell a story./Scold chocobo./Compete./Go on a walk 1./Go on a walk 2./Go on a walk 3./Cancel.]
- **13013**: Choose an event. [Injury./Light illness./Stomachache./Loneliness./Happiness./Laziness./Serious illness./Confusion./Spoiled./Runaway./In love./Crying at night./Injury healed./Light illness healed./Stomachache healed./Loneliness healed./No longer happy./Laziness healed./Serious illness healed./Confusion healed./No longer spoiled./Back from running away./No longer in love./Crying at night healed./Bursting with vitality./No longer bursting with vitality./Sparkling intelligence./No longer sparkling with intelligence.]
- **13040**: STR:$0/VIT:$1/INT:$2/MND:$3
- **13042**: Affection:$0/Energy:$1/Satisfaction:$2
- **13066**: Growth event ($0)
- **13067**: Plan accomplished event ($0)
- **13079**: eat:$0($0)
- **13113**: Starting event
- **13114**: Event number error.
- **13354**: Give up? [Yes, I can't do it anymore./No, I want to continue.]
- **13358**: Give up raising your chocobo? [Yes./No!]
- **13362**: What would you like to say? [Nothing./I'm sorry./It's just an animal!/We weren't compatible./Take good care of it.]
- **13372**: Retire $0? [Yes./Not yet!]
- **13374**: Really retire your chocobo? [Yes, really!/No, I've changed my mind!]
- **13445**: You just gave me an egg! I can't take care of two at once.
- **13446**: I can't take your egg because you're already raising a chocobo.
- **13447**: I can't take your egg because you're raising a chocobo at another nation's stables.
- **13542**: Let's see how your egg is doing today...
- **13543**: Let's see how $0 is doing today...
- **13544**: I still can't tell whether the chocobo will be male or female...
- **13545**: Your chocobo seems to be a $0[male/female]!
- **13546**: Strength: [Poor/Substandard/A bit deficient/Average/Better than average/Impressive/Outstanding/First-class]
- **13547**: Endurance: [Poor/Substandard/A bit deficient/Average/Better than average/Impressive/Outstanding/First-class]
- **13548**: Discernment: [Poor/Substandard/A bit deficient/Average/Better than average/Impressive/Outstanding/First-class]
- **13549**: Receptivity: [Poor/Substandard/A bit deficient/Average/Better than average/Impressive/Outstanding/First-class]
- **13550**: Regarding affection, it seems to [not care about you at all/be able to endure your company/slightly enjoy your company/like being around you/like you pretty well/like you a lot/want to be with you all the time/regard you as its parent].
- **13551**: Hmmm... Your chocobo seems to be [starving/quite hungry/a little hungry/neither hungry nor full/neither hungry nor full/almost full/quite full/completely full].
- **13552**: It looks like your chocobo's condition is stable. There have not been any changes worth mention.
- **13553**: Your chocobo's leg seems to be slightly wounded. $1 might help it heal.
- **13554**: Your chocobo seems to have a stomachache. $1 might help it feel better.
- **13555**: Your chocobo seems to be slightly ill. $1 might help it feel better.
- **13556**: Your chocobo is very ill. $1 might help it feel better.
- **13557**: Your chocobo is not receiving enough affection, and seems very depressed. You should pay more attention to your animal.
- **13558**: $0 has been receiving plenty of affection, and seems extremely happy. Your chocobo is in excellent condition now!
- **13559**: $0 is sleeping soundly in order to heal its fatigue. You should not disturb it now.
- **13560**: $0 seems bored and restless. You should give it something to do, like taking it out to race against other chocobos.
- **13561**: $0 is hopelessly spoiled! You should discipline it sometimes, too.
- **13562**: $0 ran away from the stables the moment I turned my back... It must have been upset about something. All we can do is wait for it to come back now.
- **13563**: $0 seems to have its head in the clouds lately... It must be in love with another chocobo.
- **13564**: Your chocobo has been making a real fuss at night lately. Such behavior is common for chicks, but you should deal with it as soon as possible.
- **13565**: $0 is so full of energy today!
- **13566**: $0 is unusually bright and focused today!
- **13567**: It [has a very easygoing personality/is rather ill-tempered/is a very patient chocobo/is quite sensitive/has a rather enigmatic personality], making it [easy to care for/ideal for military use/ideal for carrying goods/good with people/difficult to know what the animal is thinking].
- **13568**: Your chocobo [likes clear days/likes hot, sunny days/likes rainy days/likes sandstorms/likes windy days/likes snow/likes thunder/likes auroras/likes dark days/ /likes cloudy days.][./ and dislikes rainy days./ and dislikes thunder./ and dislikes windy days./ and dislikes snow./ and dislikes hot, sunny days./ and dislikes sandstorms./ and dislikes dark days./ and dislikes auroras.]
- **13569**: Last of all, your animal does not seem to know any abilities.
- **13570**: Last of all, your animal seems to have learned the ability "[--/Gallop/Canter/Burrow/Bore/Auto-Regen/Treasure Finder]."
- **13571**: Last of all, your animal seems to have learned the abilities "[--/Gallop/Canter/Burrow/Bore/Auto-Regen/Treasure Finder]" and "[--/Gallop/Canter/Burrow/Bore/Auto-Regen/Treasure Finder]."
- **13572**: Chocobos are delicate creatures, and their condition easily changes. The secret to raising a good chocobo is giving it plenty of care.
- **13573**: Your egg doesn't seem to be doing well at the moment. It would probably be best to leave it alone for a while.
- **13574**: $0 needs more energy before you can take care of it.
- **13575**: If you watch over $0, it will gradually return your affection.
- **13576**: Telling your chocobo a story will help it develop a healthy psychological state. Remember that concentrating on your speech will have a slightly tiring effect on $0, though.
- **13577**: When $0 refuses to do anything but sleep or acts stubborn, you must discipline it. Remember that reproof is an act of love.
- **13578**: You're interested in entering your chocobo into competitions? Funny...there were three others who mentioned the same thing.
- **13579**: Well, it is good for their physical development, after all. I suppose it's alright as long as they don't fight.
- **13580**: You can take your chocobo on a walk just outside of town. Because North Gustaberg is nearby, $0 shouldn't grow very tired.
- **13581**: You can take your chocobo on a walk a ways from town. The Konschtat Highlands are not too far, so $0 shouldn't grow exhausted.
- **13582**: You can take your chocobo on a walk as far out as the Pashhow Marshlands. Being together so long should do wonders for the bond between you and $0.
- **13583**: This is the basic care plan for your chocobo. Under this plan, we will provide for your chocobo's most fundamental needs.
- **13584**: You can choose to give your chocobo a long rest. This will revitalize its energy and accelerate its recovery from injury or illness.
- **13585**: If you like, we can take your chocobo out on a walk through the safe areas of town. This should improve its physical condition.
- **13586**: Listening to music will make your chocobo a more refined creature, and should improve its mental condition.
- **13587**: Exercising alone will improve your chocobo's strength, but will have a slightly negative effect on its mental condition.
- **13588**: Exercising in a group will improve your chocobo's stamina, but will have a slightly negative effect on its mental condition.
- **13589**: Playing with children will improve your chocobo's intelligence, but will have a slightly negative effect on its physical condition.
- **13590**: Playing with other chocobos will improve your chocobo's receptivity, but will have a slightly negative effect on its physical condition.
- **13591**: You can earn some money by having your chocobo deliver packages for a transport agency.
- **13592**: Carrying heavy loads will improve its physical condition, but will inflict a certain amount of stress on the animal.
- **13593**: You can choose to exhibit your chocobo to the public. We will provide you with a monetary token of gratitude for this service.
- **13594**: Interacting with the public will improve its mental condition, but will inflict a certain amount of stress on the animal.
- **13595**: You can send your chocobo to deliver official messages for Bastok, which will compensate you for your services.
- **13596**: Carrying someone on its back for a long period of time will build strength in your chocobo's legs, but will place some strain on the animal.
- **13597**: You can send your chocobo to dig for items to benefit the stables. We will thank you for your contribution with a certain amount of gil.
- **13598**: Digging for items will improve your chocobo's intelligence, but will place some strain on the animal.
- **13599**: Your chocobo can even appear in plays. You will receive payment for this service in gil.
- **13600**: Interacting with actors and the audience should improve the chocobo's receptivity, but the difficult practice will place some strain on the animal.
- **13601**: What's that? You want to give up on this egg, do you?
- **13602**: What's that? You don't want to raise $0 any longer?
- **13603**: Eh? You want to stop raising the poor animal at a time like this?
- **13604**: You just started raising the poor creature! You're really sure you want to do this?
- **13605**: If you decide to quit, you will never see $0 again. Is that okay with you?
- **13606**: If you decide to quit, you will never see $0 again. Are you really willing to give up without even seeing its face one last time?
- **13607**: Fine. Then the stables will raise this egg. Is there anything you wish to say?
- **13608**: Fine. Custody of this chocobo will be transferred to the stables. Do you have any last words for $0?
- **13609**: Fine. When $0 returns, the stables will begin caring for it. Do you have anything you wish to say?
- **13610**: Is that so? I guess this is hard on you too, then. Sorry...
- **13611**: Is that so? That's a good attitude to have...
- **13612**: ... I'm disappointed in you.
- **13613**: Some excuse... You haven't even seen its face yet, have you? Once you decide to raise an animal, you should see it through to the end.
- **13614**: No matter how incompatible you feel you may be, once you decide to raise an animal, you should see it through to the end.
- **13615**: We will. I'm sure you have your reasons, but it's still no excuse.
- **13616**: Of course not! Keep up the good work with your chocobo, all right?
- **13617**: You cannot retire a chocobo that has not been named.
- **13618**: You really want to retire $0?
- **13619**: Once you retire your chocobo, you won't be able to see it anytime you want anymore. Are you okay with that?
- **13620**: Understood. $0 will be transferred to one of the Vana'diel Chocobo Society's farms.
- **13624**: I cannot issue any documents to a chocobo that has not been named.
- **13625**: A chococard contains all the vital information about the chocobo that you are raising.
- **13626**: Trade a chococard to the matchmaker in Jeuno, and you will be able to breed your animal with another chocobo. I can issue a chococard for $0 gil.
- **13627**: You can register a chocobo to respond to your call in the field. The chocobo will come to you when you use your $0.
- **13628**: Your chocobo's registered data determines certain features, such as its saddle, so it is wise to re-register from time to time.
- **13629**: You can register a retired chocobo by trading $0 to me.
- **13630**: All right, then. I'll get $0 ready.
- **13631**: All right, then. I'll get $0 ready as soon as it returns.
- **13634**: I've got your $0 right here. You can have it now.
- **13635**: You lost your $0?
- **13636**: Well, I guess I'll have to get another one from Hantileon. It's going to cost you $1 gil, though.
- **13637**: This item links you and $0 together. You would be wise not to lose it again.
- **13654**: To enter your current chocobo in one of the CRA-sanctioned races, you will require $0.
- **13655**: You need only trade it to a CRA agent to complete the registration process.
- **13670**: Hmm... I believe that name violates the VCS naming conventions. You'll need to choose something different, I'm afraid.
- **13921**: $0 is completely absorbed in its current activities.
- **13922**: What will you do? [Search for the chocobo's item./Watch over the chocobo.]
- **13923**: You find something in the ground.
- **13924**: You obtain $6!
- **13925**: There does not seem to be anything of particular notice here.
- **13927**: $0 appears to be very happy.
- **13929**: $0 noticed what you were doing...
- **13936**: Your egg feels the tender warmth of your gaze.
- **13937**: The chick inside the egg seems to want out...
- **13938**: The chick inside the egg seems to be anxious to meet you...
- **13939**: $0 looks happy to see you.
- **13940**: $0 doesn't look very happy...
- **13941**: $0 is in high spirits.
- **13942**: $0 looks irritated.
- **13943**: $0 is sleeping peacefully.
- **13944**: You feel a faint warmth in the room left behind by $0...
- **13947**: <Player> gives the chocobo $3.
- **13948**: <Player> gives the chocobo its food.
- **13949**: $0 gobbles up the $3 in a single gulp!
- **13950**: $0 munches contentedly on the $3.
- **13951**: $0 eats the $3.
- **13952**: $0 quietly eats the food.
- **13953**: $0 seems to be forcing itself to eat the $3.
- **13954**: $0 seems to be forcing itself to eat the food.
- **13955**: $0 munches discontentedly on the $3.
- **13956**: $0 munches discontentedly on the food.
- **13957**: $0 munches weakly on the $3.
- **13958**: $0 munches weakly on the food.
- **13959**: $0 gulps down the $3!
- **13960**: $0 happily takes the $3.
- **13961**: $0 is forcing itself to take the $3.
- **13962**: $0 discontentendly swallows the $3.
- **13963**: $0 weakly swallows the $3.
- **13965**: $0 seems interested in your story.
- **13966**: Which would you like to talk about? [Random chitchat./An impatient chocobo./A curious chocobo./A worrisome chocobo./A youthful chocobo./A happy chocobo./A diligent chocobo.]
- **13967**: $0 learns the ability "Gallop"!
- **13968**: $0 learns the ability "Canter"!
- **13969**: $0 learns the ability "Burrow"!
- **13970**: $0 learns the ability "Bore"!
- **13971**: $0 learns the ability "Auto-Regen"!
- **13972**: $0 learns the ability "Treasure Finder"!
- **13974**: $0 is inspired by your story.
- **13975**: $0 hangs its head in shame.
- **13976**: $0 awakens from its sleep.
- **13977**: $0 is still fast asleep...
- **13996**: $0 becomes friends with $1!
- **14049**: The chocobo appears to be lost...
- **14050**: The chocobo chick appears to be lost...
- **14051**: What will you do? [Bring it home./Leave it.]
- **14053**: The chocobo chick follows <Player>...
- **14095**: $0 appears to have found something.
- **14096**: You see something half-buried under the straw. Could it be $1...?
- **14097**: You find something on the floor of the chocobo stall. Could it be $1...?
- **14104**: Obtained: $1!
- **14105**: Inventory is full. <Player> could not obtain the $1.
- **14107**: Hear the report? [Hear a detailed report./Hear a brief report./Skip the report./I'm done here.]
- **14108**: Are you sure? [Yes./No.]
- **14111**: One moment please...
- **14112**: Choose the pace for your [short walk/regular walk/long walk]. [Leisurely./Brisk./Cancel.]

## Events

### Event 65535

#### Metadata

| Field        | Value   |
|--------------|---------|
| Entrypoint   | 0x0000  |
| Data Size    | 1 bytes |
| Instructions | 1       |

```
      00 01 02 03 04 05 06 07  08 09 0A 0B 0C 0D 0E 0F
      -- -- -- -- -- -- -- --  -- -- -- -- -- -- -- --
0000: 00                                                .               
```

#### Opcodes

```
  0: 0x0000 [0x00] END_REQSTACK()
```

### Event 508

#### Metadata

| Field        | Value    |
|--------------|----------|
| Entrypoint   | 0x0001   |
| Data Size    | 78 bytes |
| Instructions | 18       |

```
      00 01 02 03 04 05 06 07  08 09 0A 0B 0C 0D 0E 0F
      -- -- -- -- -- -- -- --  -- -- -- -- -- -- -- --
0000:    1E F0 FF FF 7F 1C 00  80 02 02 10 01 80 00 2B   ..............+
0010: 00 1D 02 80 23 66 03 80  F8 FF FF 7F F8 FF FF 7F  ....#f..........
0020: 74 6C 6B 30 1D 04 80 23  01 4D 00 66 03 80 F8 FF  tlk0...#.M.f....
0030: FF 7F F8 FF FF 7F 74 6C  6B 30 02 03 10 01 80 00  ......tlk0......
0040: 49 00 1D 05 80 23 01 4D  00 1D 06 80 23 21 00     I....#.M....#!. 
```

#### Opcodes

```
  0: 0x0001 [0x1E] EventEntity looks at LocalPlayer and starts talking
  1: 0x0006 [0x1C] WAIT(30* ticks)
  2: 0x0009 [0x02] IF !(Work_Zone[2] == 0*) GOTO 0x002B
  3: 0x0011 [0x1D] PRINT_EVENT_MESSAGE(message_id=12651*)
     "I'm Zopago, advanced chocobo trainer and member of the Vana'diel Chocobo Society."
  4: 0x0014 [0x23] WAIT_FOR_DIALOG_INTERACTION
  5: 0x0015 [0x66] LOAD_EXT_SCHEDULER_MAIN: Load scheduler "tlk0" with entities [EventEntity, EventEntity], work=69*
  6: 0x0024 [0x1D] PRINT_EVENT_MESSAGE(message_id=12652*)
     "You like chocobos, don't you? I can tell just by the look in your eyes. If you want, you can join our society."
  7: 0x0027 [0x23] WAIT_FOR_DIALOG_INTERACTION
  8: 0x0028 [0x01] GOTO 0x004D
  9: 0x002B [0x66] LOAD_EXT_SCHEDULER_MAIN: Load scheduler "tlk0" with entities [EventEntity, EventEntity], work=69*
 10: 0x003A [0x02] IF !(Work_Zone[3] == 0*) GOTO 0x0049
 11: 0x0042 [0x1D] PRINT_EVENT_MESSAGE(message_id=12653*)
     "Trade an egg to me if you want to start raising a chocobo."
 12: 0x0045 [0x23] WAIT_FOR_DIALOG_INTERACTION
 13: 0x0046 [0x01] GOTO 0x004D
 14: 0x0049 [0x1D] PRINT_EVENT_MESSAGE(message_id=12654*)
     "You seem to be raising a chocobo at another nation's stables. Just ask Gonija if you have any questions."
 15: 0x004C [0x23] WAIT_FOR_DIALOG_INTERACTION

SUBROUTINE_004D:
 16: 0x004D [0x21] END_EVENT
 17: 0x004E [0x00] END_REQSTACK()
```

### Event 515

#### Metadata

| Field        | Value    |
|--------------|----------|
| Entrypoint   | 0x004F   |
| Data Size    | 67 bytes |
| Instructions | 17       |

```
      00 01 02 03 04 05 06 07  08 09 0A 0B 0C 0D 0E 0F
      -- -- -- -- -- -- -- --  -- -- -- -- -- -- -- --
0040:                                               1E                 .
0050: F0 FF FF 7F 1C 00 80 66  03 80 F8 FF FF 7F F8 FF  .......f........
0060: FF 7F 74 6C 6B 30 02 02  10 09 10 00 8C 00 03 02  ..tlk0..........
0070: 10 07 80 1A 3D 30 02 03  10 07 80 80 85 00 1D 08  ....=0..........
0080: 80 23 01 89 00 1D 09 80  23 01 90 00 1D 0A 80 23  .#......#......#
0090: 21 00                                             !.              
```

#### Opcodes

```
  0: 0x004F [0x1E] EventEntity looks at LocalPlayer and starts talking
  1: 0x0054 [0x1C] WAIT(30* ticks)
  2: 0x0057 [0x66] LOAD_EXT_SCHEDULER_MAIN: Load scheduler "tlk0" with entities [EventEntity, EventEntity], work=69*
  3: 0x0066 [0x02] IF !(Work_Zone[2] == Work_Zone[9]) GOTO 0x008C
  4: 0x006E [0x03] Work_Zone[2] = 1*
  5: 0x0073 [0x1A] CALL_SUBROUTINE(address=0x303D)
  6: 0x0076 [0x02] IF !(Work_Zone[3] == 1*) GOTO 0x0085
  7: 0x007E [0x1D] PRINT_EVENT_MESSAGE(message_id=13445*)
     "You just gave me an egg! I can't take care of two at once."
  8: 0x0081 [0x23] WAIT_FOR_DIALOG_INTERACTION
  9: 0x0082 [0x01] GOTO 0x0089
 10: 0x0085 [0x1D] PRINT_EVENT_MESSAGE(message_id=13446*)
     "I can't take your egg because you're already raising a chocobo."
 11: 0x0088 [0x23] WAIT_FOR_DIALOG_INTERACTION

SUBROUTINE_0089:
 12: 0x0089 [0x01] GOTO 0x0090
 13: 0x008C [0x1D] PRINT_EVENT_MESSAGE(message_id=13447*)
     "I can't take your egg because you're raising a chocobo at another nation's stables."
 14: 0x008F [0x23] WAIT_FOR_DIALOG_INTERACTION

SUBROUTINE_0090:
 15: 0x0090 [0x21] END_EVENT
 16: 0x0091 [0x00] END_REQSTACK()
```

### Event 65535.1

#### Metadata

| Field        | Value    |
|--------------|----------|
| Entrypoint   | 0x0092   |
| Data Size    | 20 bytes |
| Instructions | 4        |

```
      00 01 02 03 04 05 06 07  08 09 0A 0B 0C 0D 0E 0F
      -- -- -- -- -- -- -- --  -- -- -- -- -- -- -- --
0090:       37 0B 80 0C 80 0D  80 0E 80 80 F8 FF FF 7F    7.............
00A0: 1E F0 FF FF 7F 00                                 ......          
```

#### Opcodes

```
  0: 0x0092 [0x37] UPDATE_EVENT_POSITION_AND_DIR: x=51.706*, z=-109.065*, y=0.874*, direction=209.2*
  1: 0x009B [0x80] LOAD_WAIT(entity=EventEntity)
  2: 0x00A0 [0x1E] EventEntity looks at LocalPlayer and starts talking
  3: 0x00A5 [0x00] END_REQSTACK()
```

### Event 65535.2

#### Metadata

| Field        | Value    |
|--------------|----------|
| Entrypoint   | 0x00A6   |
| Data Size    | 15 bytes |
| Instructions | 3        |

```
      00 01 02 03 04 05 06 07  08 09 0A 0B 0C 0D 0E 0F
      -- -- -- -- -- -- -- --  -- -- -- -- -- -- -- --
00A0:                   37 0F  80 10 80 11 80 12 80 80        7.........
00B0: F8 FF FF 7F 00                                    .....           
```

#### Opcodes

```
  0: 0x00A6 [0x37] UPDATE_EVENT_POSITION_AND_DIR: x=-8.692*, z=-100.478*, y=1.399*, direction=4.1*
  1: 0x00AF [0x80] LOAD_WAIT(entity=EventEntity)
  2: 0x00B4 [0x00] END_REQSTACK()
```

### Event 65535.3

#### Metadata

| Field        | Value    |
|--------------|----------|
| Entrypoint   | 0x00B5   |
| Data Size    | 15 bytes |
| Instructions | 3        |

```
      00 01 02 03 04 05 06 07  08 09 0A 0B 0C 0D 0E 0F
      -- -- -- -- -- -- -- --  -- -- -- -- -- -- -- --
00B0:                37 13 80  14 80 15 80 16 80 80 F8       7..........
00C0: FF FF 7F 00                                       ....            
```

#### Opcodes

```
  0: 0x00B5 [0x37] UPDATE_EVENT_POSITION_AND_DIR: x=5.027*, z=-110.079*, y=1.548*, direction=174.5*
  1: 0x00BE [0x80] LOAD_WAIT(entity=EventEntity)
  2: 0x00C3 [0x00] END_REQSTACK()
```

### Event 65535.4

#### Metadata

| Field        | Value    |
|--------------|----------|
| Entrypoint   | 0x00C4   |
| Data Size    | 15 bytes |
| Instructions | 3        |

```
      00 01 02 03 04 05 06 07  08 09 0A 0B 0C 0D 0E 0F
      -- -- -- -- -- -- -- --  -- -- -- -- -- -- -- --
00C0:             37 17 80 18  80 15 80 19 80 80 F8 FF      7...........
00D0: FF 7F 00                                          ...             
```

#### Opcodes

```
  0: 0x00C4 [0x37] UPDATE_EVENT_POSITION_AND_DIR: x=-10.342*, z=-114.750*, y=1.548*, direction=157.4*
  1: 0x00CD [0x80] LOAD_WAIT(entity=EventEntity)
  2: 0x00D2 [0x00] END_REQSTACK()
```

### Event 65535.5

#### Metadata

| Field        | Value    |
|--------------|----------|
| Entrypoint   | 0x00D3   |
| Data Size    | 22 bytes |
| Instructions | 6        |

```
      00 01 02 03 04 05 06 07  08 09 0A 0B 0C 0D 0E 0F
      -- -- -- -- -- -- -- --  -- -- -- -- -- -- -- --
00D0:          32 1A 80 1F 00  1B 80 1C 80 15 80 1F 01     2............
00E0: 1E 91 A0 0E 01 1C 1D 80  00                       .........       
```

#### Opcodes

```
  0: 0x00D3 [0x32] ExtData[1]->MainSpeed = 13* * 0.1
  1: 0x00D6 [0x1F] MOVE_ENTITY: EventEntity moves to X=-11.919*, Z=-114.962*, Y=1.548*
  2: 0x00DE [0x1F] MOVE_ENTITY: Update entity position (mode=1)
  3: 0x00E0 [0x1E] EventEntity looks at Unnamed NPC (ID: 17735825/0x010EA091) and starts talking
  4: 0x00E5 [0x1C] WAIT(60* ticks)
  5: 0x00E8 [0x00] END_REQSTACK()
```

### Event 65535.6

#### Metadata

| Field        | Value    |
|--------------|----------|
| Entrypoint   | 0x00E9   |
| Data Size    | 15 bytes |
| Instructions | 3        |

```
      00 01 02 03 04 05 06 07  08 09 0A 0B 0C 0D 0E 0F
      -- -- -- -- -- -- -- --  -- -- -- -- -- -- -- --
00E0:                             37 1E 80 1F 80 15 80           7......
00F0: 20 80 80 F8 FF FF 7F 00                            .......        
```

#### Opcodes

```
  0: 0x00E9 [0x37] UPDATE_EVENT_POSITION_AND_DIR: x=-6.876*, z=-104.000*, y=1.548*, direction=101.9*
  1: 0x00F2 [0x80] LOAD_WAIT(entity=EventEntity)
  2: 0x00F7 [0x00] END_REQSTACK()
```

### Event 65535.7

#### Metadata

| Field        | Value    |
|--------------|----------|
| Entrypoint   | 0x00F8   |
| Data Size    | 82 bytes |
| Instructions | 18       |

```
      00 01 02 03 04 05 06 07  08 09 0A 0B 0C 0D 0E 0F
      -- -- -- -- -- -- -- --  -- -- -- -- -- -- -- --
00F0:                          32 1A 80 1F 00 21 80 22          2....!."
0100: 80 15 80 1F 01 1F 00 23  80 24 80 15 80 1F 01 4B  .......#.$.....K
0110: 90 A0 0E 01 25 80 1C 1D  80 32 1A 80 1F 00 26 80  ....%....2....&.
0120: 27 80 15 80 1F 01 1F 00  28 80 29 80 15 80 1F 01  '.......(.).....
0130: 4B 90 A0 0E 01 2A 80 1C  00 80 6E 90 A0 0E 01 2B  K....*....n....+
0140: 80 99 90 A0 0E 01 1C 1D  80 00                    ..........      
```

#### Opcodes

```
  0: 0x00F8 [0x32] ExtData[1]->MainSpeed = 13* * 0.1
  1: 0x00FB [0x1F] MOVE_ENTITY: EventEntity moves to X=-8.412*, Z=-103.817*, Y=1.548*
  2: 0x0103 [0x1F] MOVE_ENTITY: Update entity position (mode=1)
  3: 0x0105 [0x1F] MOVE_ENTITY: EventEntity moves to X=-8.593*, Z=-105.142*, Y=1.548*
  4: 0x010D [0x1F] MOVE_ENTITY: Update entity position (mode=1)
  5: 0x010F [0x4B] UPDATE_ENTITY_YAW(entity=Zopago (ID: 17735824/0x010EA090), yaw=0.3*)
  6: 0x0116 [0x1C] WAIT(60* ticks)
  7: 0x0119 [0x32] ExtData[1]->MainSpeed = 13* * 0.1
  8: 0x011C [0x1F] MOVE_ENTITY: EventEntity moves to X=-8.104*, Z=-107.405*, Y=1.548*
  9: 0x0124 [0x1F] MOVE_ENTITY: Update entity position (mode=1)
 10: 0x0126 [0x1F] MOVE_ENTITY: EventEntity moves to X=-6.878*, Z=-108.064*, Y=1.548*
 11: 0x012E [0x1F] MOVE_ENTITY: Update entity position (mode=1)
 12: 0x0130 [0x4B] UPDATE_ENTITY_YAW(entity=Zopago (ID: 17735824/0x010EA090), yaw=15.3*)
 13: 0x0137 [0x1C] WAIT(30* ticks)
 14: 0x013A [0x6E] Zopago (ID: 17735824/0x010EA090) uses emote 7*
 15: 0x0141 [0x99] Wait for Zopago (ID: 17735824/0x010EA090) animation to complete
 16: 0x0146 [0x1C] WAIT(60* ticks)
 17: 0x0149 [0x00] END_REQSTACK()
```

### Event 65535.8

#### Metadata

| Field        | Value    |
|--------------|----------|
| Entrypoint   | 0x014A   |
| Data Size    | 15 bytes |
| Instructions | 3        |

```
      00 01 02 03 04 05 06 07  08 09 0A 0B 0C 0D 0E 0F
      -- -- -- -- -- -- -- --  -- -- -- -- -- -- -- --
0140:                                37 2C 80 2D 80 11            7,.-..
0150: 80 2E 80 80 F8 FF FF 7F  00                       .........       
```

#### Opcodes

```
  0: 0x014A [0x37] UPDATE_EVENT_POSITION_AND_DIR: x=-9.815*, z=-100.532*, y=1.399*, direction=12.2*
  1: 0x0153 [0x80] LOAD_WAIT(entity=EventEntity)
  2: 0x0158 [0x00] END_REQSTACK()
```

### Event 65535.9

#### Metadata

| Field        | Value     |
|--------------|-----------|
| Entrypoint   | 0x0159    |
| Data Size    | 315 bytes |
| Instructions | 51        |

```
      00 01 02 03 04 05 06 07  08 09 0A 0B 0C 0D 0E 0F
      -- -- -- -- -- -- -- --  -- -- -- -- -- -- -- --
0150:                             32 2F 80 1F 00 30 80           2/...0.
0160: 31 80 11 80 1F 01 32 2F  80 1F 00 32 80 33 80 11  1.....2/...2.3..
0170: 80 1F 01 1C 1D 80 32 1A  80 1F 00 34 80 35 80 11  ......2....4.5..
0180: 80 1F 01 37 36 80 37 80  15 80 38 80 80 F8 FF FF  ...76.7...8.....
0190: 7F 02 03 10 39 80 80 BA  01 5B 3A 80 91 A0 0E 01  ....9....[:.....
01A0: 91 A0 0E 01 6B 75 65 30  5B 3B 80 91 A0 0E 01 91  ....kue0[;......
01B0: A0 0E 01 31 30 30 39 01  D8 01 5B 3C 80 97 A0 0E  ...1009...[<....
01C0: 01 97 A0 0E 01 6A 6F 79  30 5B 3B 80 97 A0 0E 01  .....joy0[;.....
01D0: 97 A0 0E 01 31 30 31 31  1C 1D 80 32 2F 80 1F 00  ....1011...2/...
01E0: 3D 80 3E 80 15 80 1F 01  32 3F 80 1F 00 40 80 41  =.>.....2?...@.A
01F0: 80 15 80 1F 01 32 2F 80  1F 00 42 80 43 80 15 80  .....2/...B.C...
0200: 1F 01 1C 1D 80 32 1A 80  1F 00 3D 80 3E 80 15 80  .....2....=.>...
0210: 1F 01 02 03 10 39 80 80  4F 02 4A 91 A0 0E 01 90  .....9..O.J.....
0220: A0 0E 01 1C 00 80 5B 3A  80 91 A0 0E 01 91 A0 0E  ......[:........
0230: 01 6B 75 65 30 5B 3B 80  91 A0 0E 01 91 A0 0E 01  .kue0[;.........
0240: 31 30 30 39 1C 1D 80 1E  91 A0 0E 01 01 81 02 4A  1009...........J
0250: 97 A0 0E 01 90 A0 0E 01  1C 00 80 5B 3C 80 97 A0  ...........[<...
0260: 0E 01 97 A0 0E 01 6A 6F  79 30 5B 3B 80 97 A0 0E  ......joy0[;....
0270: 01 97 A0 0E 01 31 30 31  31 1C 1D 80 1E 97 A0 0E  .....1011.......
0280: 01 1C 00 80 6E 90 A0 0E  01 44 80 99 90 A0 0E 01  ....n....D......
0290: 1C 1D 80 00                                       ....            
```

#### Opcodes

```
  0: 0x0159 [0x32] ExtData[1]->MainSpeed = 40* * 0.1
  1: 0x015C [0x1F] MOVE_ENTITY: EventEntity moves to X=-6.953*, Z=-100.480*, Y=1.399*
  2: 0x0164 [0x1F] MOVE_ENTITY: Update entity position (mode=1)
  3: 0x0166 [0x32] ExtData[1]->MainSpeed = 40* * 0.1
  4: 0x0169 [0x1F] MOVE_ENTITY: EventEntity moves to X=-6.958*, Z=-100.680*, Y=1.399*
  5: 0x0171 [0x1F] MOVE_ENTITY: Update entity position (mode=1)
  6: 0x0173 [0x1C] WAIT(60* ticks)
  7: 0x0176 [0x32] ExtData[1]->MainSpeed = 13* * 0.1
  8: 0x0179 [0x1F] MOVE_ENTITY: EventEntity moves to X=-9.601*, Z=-100.669*, Y=1.399*
  9: 0x0181 [0x1F] MOVE_ENTITY: Update entity position (mode=1)
 10: 0x0183 [0x37] UPDATE_EVENT_POSITION_AND_DIR: x=-4.872*, z=-107.458*, y=1.548*, direction=208.6*
 11: 0x018C [0x80] LOAD_WAIT(entity=EventEntity)
 12: 0x0191 [0x02] IF !(Work_Zone[3] == 3*) GOTO 0x01BA
 13: 0x0199 [0x5B] LOAD_EXT_SCHEDULER: Load scheduler "kue0" with entities [Unnamed NPC (ID: 17735825/0x010EA091), Unnamed NPC (ID: 17735825/0x010EA091)], work=875*
 14: 0x01A8 [0x5B] LOAD_EXT_SCHEDULER: Load scheduler "1009" with entities [Unnamed NPC (ID: 17735825/0x010EA091), Unnamed NPC (ID: 17735825/0x010EA091)], work=224*
 15: 0x01B7 [0x01] GOTO 0x01D8
 16: 0x01BA [0x5B] LOAD_EXT_SCHEDULER: Load scheduler "joy0" with entities [Unnamed NPC (ID: 17735831/0x010EA097), Unnamed NPC (ID: 17735831/0x010EA097)], work=222*
 17: 0x01C9 [0x5B] LOAD_EXT_SCHEDULER: Load scheduler "1011" with entities [Unnamed NPC (ID: 17735831/0x010EA097), Unnamed NPC (ID: 17735831/0x010EA097)], work=224*

SUBROUTINE_01D8:
 18: 0x01D8 [0x1C] WAIT(60* ticks)
 19: 0x01DB [0x32] ExtData[1]->MainSpeed = 40* * 0.1
 20: 0x01DE [0x1F] MOVE_ENTITY: EventEntity moves to X=-8.297*, Z=-107.272*, Y=1.548*
 21: 0x01E6 [0x1F] MOVE_ENTITY: Update entity position (mode=1)
 22: 0x01E8 [0x32] ExtData[1]->MainSpeed = 100* * 0.1
 23: 0x01EB [0x1F] MOVE_ENTITY: EventEntity moves to X=-8.509*, Z=-104.601*, Y=1.548*
 24: 0x01F3 [0x1F] MOVE_ENTITY: Update entity position (mode=1)
 25: 0x01F5 [0x32] ExtData[1]->MainSpeed = 40* * 0.1
 26: 0x01F8 [0x1F] MOVE_ENTITY: EventEntity moves to X=-8.181*, Z=-104.539*, Y=1.548*
 27: 0x0200 [0x1F] MOVE_ENTITY: Update entity position (mode=1)
 28: 0x0202 [0x1C] WAIT(60* ticks)
 29: 0x0205 [0x32] ExtData[1]->MainSpeed = 13* * 0.1
 30: 0x0208 [0x1F] MOVE_ENTITY: EventEntity moves to X=-8.297*, Z=-107.272*, Y=1.548*
 31: 0x0210 [0x1F] MOVE_ENTITY: Update entity position (mode=1)
 32: 0x0212 [0x02] IF !(Work_Zone[3] == 3*) GOTO 0x024F
 33: 0x021A [0x4A] Unnamed NPC (ID: 17735825/0x010EA091) looks at Zopago (ID: 17735824/0x010EA090)
 34: 0x0223 [0x1C] WAIT(30* ticks)
 35: 0x0226 [0x5B] LOAD_EXT_SCHEDULER: Load scheduler "kue0" with entities [Unnamed NPC (ID: 17735825/0x010EA091), Unnamed NPC (ID: 17735825/0x010EA091)], work=875*
 36: 0x0235 [0x5B] LOAD_EXT_SCHEDULER: Load scheduler "1009" with entities [Unnamed NPC (ID: 17735825/0x010EA091), Unnamed NPC (ID: 17735825/0x010EA091)], work=224*
 37: 0x0244 [0x1C] WAIT(60* ticks)
 38: 0x0247 [0x1E] EventEntity looks at Unnamed NPC (ID: 17735825/0x010EA091) and starts talking
 39: 0x024C [0x01] GOTO 0x0281
 40: 0x024F [0x4A] Unnamed NPC (ID: 17735831/0x010EA097) looks at Zopago (ID: 17735824/0x010EA090)
 41: 0x0258 [0x1C] WAIT(30* ticks)
 42: 0x025B [0x5B] LOAD_EXT_SCHEDULER: Load scheduler "joy0" with entities [Unnamed NPC (ID: 17735831/0x010EA097), Unnamed NPC (ID: 17735831/0x010EA097)], work=222*
 43: 0x026A [0x5B] LOAD_EXT_SCHEDULER: Load scheduler "1011" with entities [Unnamed NPC (ID: 17735831/0x010EA097), Unnamed NPC (ID: 17735831/0x010EA097)], work=224*
 44: 0x0279 [0x1C] WAIT(60* ticks)
 45: 0x027C [0x1E] EventEntity looks at Unnamed NPC (ID: 17735831/0x010EA097) and starts talking

SUBROUTINE_0281:
 46: 0x0281 [0x1C] WAIT(30* ticks)
 47: 0x0284 [0x6E] Zopago (ID: 17735824/0x010EA090) uses emote 19*
 48: 0x028B [0x99] Wait for Zopago (ID: 17735824/0x010EA090) animation to complete
 49: 0x0290 [0x1C] WAIT(60* ticks)
 50: 0x0293 [0x00] END_REQSTACK()
```

### Event 65535.10

#### Metadata

| Field        | Value    |
|--------------|----------|
