# 17735841 - Pulonono

## Common Data

| Field            | Value                  |
|------------------|------------------------|
| Zone             | Bastok Mines (ID: 234) |
| Block Size       | 544 bytes              |
| Total Events     | 13                     |
| References Count | 43                     |

## List of Events

| Event ID                   | Entrypoint   |   Size |   Instructions |
|----------------------------|--------------|--------|----------------|
| [65535](#event-65535)      | 0x0000       |      1 |              1 |
| [513](#event-513)          | 0x0001       |      1 |              1 |
| [509](#event-509)          | 0x0002       |      1 |              1 |
| [65535.1](#event-655351)   | 0x0003       |     15 |              3 |
| [65535.2](#event-655352)   | 0x0012       |     19 |              5 |
| [65535.3](#event-655353)   | 0x0025       |     35 |              4 |
| [65535.4](#event-655354)   | 0x0048       |     35 |              4 |
| [65535.5](#event-655355)   | 0x006B       |     35 |              4 |
| [65535.6](#event-655356)   | 0x008E       |     35 |              4 |
| [65535.7](#event-655357)   | 0x00B1       |     21 |              2 |
| [65535.8](#event-655358)   | 0x00C6       |     21 |              2 |
| [65535.9](#event-655359)   | 0x00DB       |     15 |              3 |
| [65535.10](#event-6553510) | 0x00EA       |     70 |              8 |

## DAT References (imed_data)

|   Index | Hex Value   |   Dec Value |
|---------|-------------|-------------|
|       0 | 0xFFFA0140  |  4294574400 |
|       1 | 0xFFFBC7CD  |  4294690765 |
|       2 | 0x5FCB      |       24523 |
|       3 | 0x016D      |         365 |
|       4 | 0x000D      |          13 |
|       5 | 0xFFFA0BE1  |  4294577121 |
|       6 | 0xFFFBBFD0  |  4294688720 |
|       7 | 0x0008      |           8 |
|       8 | 0x0005      |           5 |
|       9 | 0x0015      |          21 |
|      10 | 0x0000      |           0 |
|      11 | 0xFFFFC461  |  4294952033 |
|      12 | 0xFFFFE599  |  4294960537 |
|      13 | 0xFFFFFFD4  |  4294967252 |
|      14 | 0x029F      |         671 |
|      15 | 0x0004      |           4 |
|      16 | 0x0001      |           1 |
|      17 | 0x000A      |          10 |
|      18 | 0x0018      |          24 |
|      19 | 0xFFF984FD  |  4294542589 |
|      20 | 0xFFF9153D  |  4294513981 |
|      21 | 0x61A7      |       24999 |
|      22 | 0x0BEE      |        3054 |
|      23 | 0x0002      |           2 |
|      24 | 0x0016      |          22 |
|      25 | 0x26A4D     |      158285 |
|      26 | 0xFFFB1C66  |  4294646886 |
|      27 | 0x0B26      |        2854 |
|      28 | 0x000F      |          15 |
|      29 | 0x0011      |          17 |
|      30 | 0xFFFBBC96  |  4294687894 |
|      31 | 0xFFFE7A12  |  4294867474 |
|      32 | 0xFFFFD35B  |  4294955867 |
|      33 | 0x03EE      |        1006 |
|      34 | 0x0006      |           6 |
|      35 | 0x0010      |          16 |
|      36 | 0x0013      |          19 |
|      37 | 0x1813D     |       98621 |
|      38 | 0xFFFECF55  |  4294889301 |
|      39 | 0x03E4      |         996 |
|      40 | 0x003C      |          60 |
|      41 | 0x005A      |          90 |
|      42 | 0x000B      |          11 |

## Events

### Event 65535

#### Metadata

| Field        | Value   |
|--------------|---------|
| Entrypoint   | 0x0000  |
| Data Size    | 1 bytes |
| Instructions | 1       |

```
      00 01 02 03 04 05 06 07  08 09 0A 0B 0C 0D 0E 0F
      -- -- -- -- -- -- -- --  -- -- -- -- -- -- -- --
0000: 00                                                .               
```

#### Opcodes

```
  0: 0x0000 [0x00] END_REQSTACK()
```

### Event 513

#### Metadata

| Field        | Value   |
|--------------|---------|
| Entrypoint   | 0x0001  |
| Data Size    | 1 bytes |
| Instructions | 1       |

```
      00 01 02 03 04 05 06 07  08 09 0A 0B 0C 0D 0E 0F
      -- -- -- -- -- -- -- --  -- -- -- -- -- -- -- --
0000:    00                                              .              
```

#### Opcodes

```
  0: 0x0001 [0x00] END_REQSTACK()
```

### Event 509

#### Metadata

| Field        | Value   |
|--------------|---------|
| Entrypoint   | 0x0002  |
| Data Size    | 1 bytes |
| Instructions | 1       |

```
      00 01 02 03 04 05 06 07  08 09 0A 0B 0C 0D 0E 0F
      -- -- -- -- -- -- -- --  -- -- -- -- -- -- -- --
0000:       00                                            .             
```

#### Opcodes

```
  0: 0x0002 [0x00] END_REQSTACK()
```

### Event 65535.1

#### Metadata

| Field        | Value    |
|--------------|----------|
| Entrypoint   | 0x0003   |
| Data Size    | 15 bytes |
| Instructions | 3        |

```
      00 01 02 03 04 05 06 07  08 09 0A 0B 0C 0D 0E 0F
      -- -- -- -- -- -- -- --  -- -- -- -- -- -- -- --
0000:          37 00 80 01 80  02 80 03 80 80 F8 FF FF     7............
0010: 7F 00                                             ..              
```

#### Opcodes

```
  0: 0x0003 [0x37] UPDATE_EVENT_POSITION_AND_DIR: x=-392.896*, z=-276.531*, y=24.523*, direction=32.1°*
  1: 0x000C [0x80] LOAD_WAIT(entity=EventEntity)
  2: 0x0011 [0x00] END_REQSTACK()
```

### Event 65535.2

#### Metadata

| Field        | Value    |
|--------------|----------|
| Entrypoint   | 0x0012   |
| Data Size    | 19 bytes |
| Instructions | 5        |

```
      00 01 02 03 04 05 06 07  08 09 0A 0B 0C 0D 0E 0F
      -- -- -- -- -- -- -- --  -- -- -- -- -- -- -- --
0010:       32 04 80 1F 00 05  80 06 80 02 80 1F 01 1E    2.............
0020: F0 FF FF 7F 00                                    .....           
```

#### Opcodes

```
  0: 0x0012 [0x32] ExtData[1]->MainSpeed = 13* * 0.1
  1: 0x0015 [0x1F] MOVE_ENTITY: EventEntity moves to X=-390.175*, Z=-278.576*, Y=24.523*
  2: 0x001D [0x1F] MOVE_ENTITY: Update entity position (mode=1)
  3: 0x001F [0x1E] EventEntity looks at LocalPlayer and starts talking
  4: 0x0024 [0x00] END_REQSTACK()
```

### Event 65535.3

#### Metadata

| Field        | Value    |
|--------------|----------|
| Entrypoint   | 0x0025   |
| Data Size    | 35 bytes |
| Instructions | 4        |

```
      00 01 02 03 04 05 06 07  08 09 0A 0B 0C 0D 0E 0F
      -- -- -- -- -- -- -- --  -- -- -- -- -- -- -- --
0020:                B6 0B 07  80 08 80 09 80 0A 80 09       ...........
0030: 80 09 80 09 80 0A 80 0A  80 37 0B 80 0C 80 0D 80  .........7......
0040: 0E 80 80 F8 FF FF 7F 00                           ........        
```

#### Opcodes

```
  0: 0x0025 [0xB6] ENTITY_APPEARANCE_HANDLER(case=Full entity look, race=8*, hair=5*, head=21*, body=0*, hands=21*, legs=21*, feet=21*, main=0*, sub=0*)
  1: 0x0039 [0x37] UPDATE_EVENT_POSITION_AND_DIR: x=-15.263*, z=-6.759*, y=-0.044*, direction=59.0°*
  2: 0x0042 [0x80] LOAD_WAIT(entity=EventEntity)
  3: 0x0047 [0x00] END_REQSTACK()
```

### Event 65535.4

#### Metadata

| Field        | Value    |
|--------------|----------|
| Entrypoint   | 0x0048   |
| Data Size    | 35 bytes |
| Instructions | 4        |

```
      00 01 02 03 04 05 06 07  08 09 0A 0B 0C 0D 0E 0F
      -- -- -- -- -- -- -- --  -- -- -- -- -- -- -- --
0040:                          B6 0B 0F 80 10 80 09 80          ........
0050: 07 80 11 80 09 80 12 80  0A 80 0A 80 37 13 80 14  ............7...
0060: 80 15 80 16 80 80 F8 FF  FF 7F 00                 ...........     
```

#### Opcodes

```
  0: 0x0048 [0xB6] ENTITY_APPEARANCE_HANDLER(case=Full entity look, race=4*, hair=1*, head=21*, body=8*, hands=10*, legs=21*, feet=24*, main=0*, sub=0*)
  1: 0x005C [0x37] UPDATE_EVENT_POSITION_AND_DIR: x=-424.707*, z=-453.315*, y=24.999*, direction=268.4°*
  2: 0x0065 [0x80] LOAD_WAIT(entity=EventEntity)
  3: 0x006A [0x00] END_REQSTACK()
```

### Event 65535.5

#### Metadata

| Field        | Value    |
|--------------|----------|
| Entrypoint   | 0x006B   |
| Data Size    | 35 bytes |
| Instructions | 4        |

```
      00 01 02 03 04 05 06 07  08 09 0A 0B 0C 0D 0E 0F
      -- -- -- -- -- -- -- --  -- -- -- -- -- -- -- --
0060:                                   B6 0B 08 80 17             .....
0070: 80 0A 80 18 80 18 80 18  80 18 80 0A 80 0A 80 37  ...............7
0080: 19 80 1A 80 0A 80 1B 80  80 F8 FF FF 7F 00        ..............  
```

#### Opcodes

```
  0: 0x006B [0xB6] ENTITY_APPEARANCE_HANDLER(case=Full entity look, race=5*, hair=2*, head=0*, body=22*, hands=22*, legs=22*, feet=22*, main=0*, sub=0*)
  1: 0x007F [0x37] UPDATE_EVENT_POSITION_AND_DIR: x=158.285*, z=-320.410*, y=0.000*, direction=250.8°*
  2: 0x0088 [0x80] LOAD_WAIT(entity=EventEntity)
  3: 0x008D [0x00] END_REQSTACK()
```

### Event 65535.6

#### Metadata

| Field        | Value    |
|--------------|----------|
| Entrypoint   | 0x008E   |
| Data Size    | 35 bytes |
| Instructions | 4        |

```
      00 01 02 03 04 05 06 07  08 09 0A 0B 0C 0D 0E 0F
      -- -- -- -- -- -- -- --  -- -- -- -- -- -- -- --
0080:                                            B6 0B                ..
0090: 10 80 1C 80 0A 80 0A 80  0A 80 1D 80 1D 80 0A 80  ................
00A0: 0A 80 37 1E 80 1F 80 20  80 21 80 80 F8 FF FF 7F  ..7.... .!......
00B0: 00                                                .               
```

#### Opcodes

```
  0: 0x008E [0xB6] ENTITY_APPEARANCE_HANDLER(case=Full entity look, race=1*, hair=15*, head=0*, body=0*, hands=0*, legs=17*, feet=17*, main=0*, sub=0*)
  1: 0x00A2 [0x37] UPDATE_EVENT_POSITION_AND_DIR: x=-279.402*, z=-99.822*, y=-11.429*, direction=88.4°*
  2: 0x00AB [0x80] LOAD_WAIT(entity=EventEntity)
  3: 0x00B0 [0x00] END_REQSTACK()
```

### Event 65535.7

#### Metadata

| Field        | Value    |
|--------------|----------|
| Entrypoint   | 0x00B1   |
| Data Size    | 21 bytes |
| Instructions | 2        |

```
      00 01 02 03 04 05 06 07  08 09 0A 0B 0C 0D 0E 0F
      -- -- -- -- -- -- -- --  -- -- -- -- -- -- -- --
00B0:    B6 0B 22 80 23 80 0A  80 24 80 24 80 24 80 24   ..".#...$.$.$.$
00C0: 80 0A 80 0A 80 00                                 ......          
```

#### Opcodes

```
  0: 0x00B1 [0xB6] ENTITY_APPEARANCE_HANDLER(case=Full entity look, race=6*, hair=16*, head=0*, body=19*, hands=19*, legs=19*, feet=19*, main=0*, sub=0*)
  1: 0x00C5 [0x00] END_REQSTACK()
```

### Event 65535.8

#### Metadata

| Field        | Value    |
|--------------|----------|
| Entrypoint   | 0x00C6   |
| Data Size    | 21 bytes |
| Instructions | 2        |

```
      00 01 02 03 04 05 06 07  08 09 0A 0B 0C 0D 0E 0F
      -- -- -- -- -- -- -- --  -- -- -- -- -- -- -- --
00C0:                   B6 0B  07 80 17 80 07 80 07 80        ..........
00D0: 07 80 07 80 07 80 0A 80  0A 80 00                 ...........     
```

#### Opcodes

```
  0: 0x00C6 [0xB6] ENTITY_APPEARANCE_HANDLER(case=Full entity look, race=8*, hair=2*, head=8*, body=8*, hands=8*, legs=8*, feet=8*, main=0*, sub=0*)
  1: 0x00DA [0x00] END_REQSTACK()
```

### Event 65535.9

#### Metadata

| Field        | Value    |
|--------------|----------|
| Entrypoint   | 0x00DB   |
| Data Size    | 15 bytes |
| Instructions | 3        |

```
      00 01 02 03 04 05 06 07  08 09 0A 0B 0C 0D 0E 0F
      -- -- -- -- -- -- -- --  -- -- -- -- -- -- -- --
00D0:                                   37 25 80 26 80             7%.&.
00E0: 27 80 10 80 80 F8 FF FF  7F 00                    '.........      
```

#### Opcodes

```
  0: 0x00DB [0x37] UPDATE_EVENT_POSITION_AND_DIR: x=98.621*, z=-77.995*, y=0.996*, direction=0.1°*
  1: 0x00E4 [0x80] LOAD_WAIT(entity=EventEntity)
  2: 0x00E9 [0x00] END_REQSTACK()
```

### Event 65535.10

#### Metadata

| Field        | Value    |
|--------------|----------|
| Entrypoint   | 0x00EA   |
| Data Size    | 70 bytes |
| Instructions | 8        |

```
      00 01 02 03 04 05 06 07  08 09 0A 0B 0C 0D 0E 0F
      -- -- -- -- -- -- -- --  -- -- -- -- -- -- -- --
00E0:                                66 28 80 F8 FF FF            f(....
00F0: 7F F8 FF FF 7F 6B 75 64  30 1C 1C 80 5B 29 80 A0  .....kud0...[)..
0100: A0 0E 01 A0 A0 0E 01 74  6C 62 30 1C 1C 80 5B 28  .......tlb0...[(
0110: 80 6B A0 0E 01 6B A0 0E  01 69 6B 61 30 1C 1C 80  .k...k...ika0...
0120: 66 2A 80 36 A0 0E 01 36  A0 0E 01 6E 74 6C 30 00  f*.6...6...ntl0.
```

#### Opcodes

```
  0: 0x00EA [0x66] LOAD_EXT_SCHEDULER_MAIN: Load scheduler "kud0" with entities [EventEntity, EventEntity], work=60*
  1: 0x00F9 [0x1C] WAIT(15* ticks)
  2: 0x00FC [0x5B] LOAD_EXT_SCHEDULER: Load scheduler "tlb0" with entities [Brutus (ID: 17735840/0x010EA0A0), Brutus (ID: 17735840/0x010EA0A0)], work=90*
  3: 0x010B [0x1C] WAIT(15* ticks)
  4: 0x010E [0x5B] LOAD_EXT_SCHEDULER: Load scheduler "ika0" with entities [Phara (ID: 17735787/0x010EA06B), Phara (ID: 17735787/0x010EA06B)], work=60*
  5: 0x011D [0x1C] WAIT(15* ticks)
  6: 0x0120 [0x66] LOAD_EXT_SCHEDULER_MAIN: Load scheduler "ntl0" with entities [Leonie (ID: 17735734/0x010EA036), Leonie (ID: 17735734/0x010EA036)], work=11*
  7: 0x012F [0x00] END_REQSTACK()
```
