# 17735698 - Amar

## Common Data

| Field            | Value                  |
|------------------|------------------------|
| Zone             | Bastok Mines (ID: 234) |
| Block Size       | 176 bytes              |
| Total Events     | 4                      |
| References Count | 15                     |

## List of Events

| Event ID              | Entrypoint   |   Size |   Instructions |
|-----------------------|--------------|--------|----------------|
| [65535](#event-65535) | 0x0000       |      1 |              1 |
| [1](#event-1)         | 0x0001       |     23 |              5 |
| [27](#event-27)       | 0x0018       |     39 |              9 |
| [176](#event-176)     | 0x003F       |     20 |              3 |

## DAT References (imed_data)

|   Index | Hex Value   |   Dec Value |
|---------|-------------|-------------|
|       0 | 0xFFFFFD37  |  4294966583 |
|       1 | 0xFFFE6163  |  4294861155 |
|       2 | 0xFFFFFC19  |  4294966297 |
|       3 | 0x0601      |        1537 |
|       4 | 0x000D      |          13 |
|       5 | 0xFFFF744C  |  4294931532 |
|       6 | 0xFFFEBFB1  |  4294885297 |
|       7 | 0x0000      |           0 |
|       8 | 0x0CE4      |        3300 |
|       9 | 0x0003      |           3 |
|      10 | 0x29E2      |       10722 |
|      11 | 0xFFFD8AE0  |  4294806240 |
|      12 | 0xFFFF7665  |  4294932069 |
|      13 | 0xFFFFFED8  |  4294967000 |
|      14 | 0x01D3      |         467 |

## String References

- **10722**: Walk down this road to go to the Markets District. This is also the road for the Metalworks and the Port District.

## Events

### Event 65535

#### Metadata

| Field        | Value   |
|--------------|---------|
| Entrypoint   | 0x0000  |
| Data Size    | 1 bytes |
| Instructions | 1       |

```
      00 01 02 03 04 05 06 07  08 09 0A 0B 0C 0D 0E 0F
      -- -- -- -- -- -- -- --  -- -- -- -- -- -- -- --
0000: 00                                                .               
```

#### Opcodes

```
  0: 0x0000 [0x00] END_REQSTACK()
```

### Event 1

#### Metadata

| Field        | Value    |
|--------------|----------|
| Entrypoint   | 0x0001   |
| Data Size    | 23 bytes |
| Instructions | 5        |

```
      00 01 02 03 04 05 06 07  08 09 0A 0B 0C 0D 0E 0F
      -- -- -- -- -- -- -- --  -- -- -- -- -- -- -- --
0000:    37 00 80 01 80 02 80  03 80 32 04 80 1F 00 05   7........2.....
0010: 80 06 80 07 80 1F 01 00                           ........        
```

#### Opcodes

```
  0: 0x0001 [0x37] UPDATE_EVENT_POSITION_AND_DIR: x=-0.713*, z=-106.141*, y=-0.999*, direction=135.1°*
  1: 0x000A [0x32] ExtData[1]->MainSpeed = 13* * 0.1
  2: 0x000D [0x1F] MOVE_ENTITY: EventEntity moves to X=-35.764*, Z=-81.999*, Y=0.000*
  3: 0x0015 [0x1F] MOVE_ENTITY: Update entity position (mode=1)
  4: 0x0017 [0x00] END_REQSTACK()
```

### Event 27

#### Metadata

| Field        | Value    |
|--------------|----------|
| Entrypoint   | 0x0018   |
| Data Size    | 39 bytes |
| Instructions | 9        |

```
      00 01 02 03 04 05 06 07  08 09 0A 0B 0C 0D 0E 0F
      -- -- -- -- -- -- -- --  -- -- -- -- -- -- -- --
0010:                          39 08 80 6F 70 66 09 80          9..opf..
0020: F8 FF FF 7F F8 FF FF 7F  70 6F 69 30 1D 0A 80 23  ........poi0...#
0030: 53 F8 FF FF 7F F8 FF FF  7F 70 6F 69 30 21 00     S........poi0!. 
```

#### Opcodes

```
  0: 0x0018 [0x39] SET_ENTITY_DIRECTION(direction=18.1°*)
  1: 0x001B [0x6F] WAIT_FRAME_DELAY: Yield until WaitTime reaches zero
  2: 0x001C [0x70] WAIT_ENTITY_RENDER_FLAG: Wait while EventEntity->Render.Flags3 bit 2 is set (cancel turn if not)
  3: 0x001D [0x66] LOAD_EXT_SCHEDULER_MAIN: Load scheduler "poi0" with entities [EventEntity, EventEntity], work=3*
  4: 0x002C [0x1D] PRINT_EVENT_MESSAGE(message_id=10722*)
    → "Walk down this road to go to the Markets District. This is also the road for the Metalworks and the Port District."
  5: 0x002F [0x23] WAIT_FOR_DIALOG_INTERACTION
  6: 0x0030 [0x53] WAIT_SCHEDULER_TASK: Wait for scheduler "poi0" with entities [EventEntity, EventEntity]
  7: 0x003D [0x21] END_EVENT
  8: 0x003E [0x00] END_REQSTACK()
```

### Event 176

#### Metadata

| Field        | Value    |
|--------------|----------|
| Entrypoint   | 0x003F   |
| Data Size    | 20 bytes |
| Instructions | 3        |

```
      00 01 02 03 04 05 06 07  08 09 0A 0B 0C 0D 0E 0F
      -- -- -- -- -- -- -- --  -- -- -- -- -- -- -- --
0030:                                               37                 7
0040: 0B 80 0C 80 0D 80 0E 80  79 00 F8 FF FF 7F 0C A0  ........y.......
0050: 0E 01 00                                          ...             
```

#### Opcodes

```
  0: 0x003F [0x37] UPDATE_EVENT_POSITION_AND_DIR: x=-161.056*, z=-35.227*, y=-0.296*, direction=41.0°*
  1: 0x0048 [0x79] EventEntity looks at Drangord (ID: 17735692/0x010EA00C) (Basic look)
  2: 0x0052 [0x00] END_REQSTACK()
```
