# 17735686 - Rashid

## Common Data

| Field            | Value                  |
|------------------|------------------------|
| Zone             | Bastok Mines (ID: 234) |
| Block Size       | 4080 bytes             |
| Total Events     | 19                     |
| References Count | 152                    |

## List of Events

| Event ID                 | Entrypoint   |   Size |   Instructions |
|--------------------------|--------------|--------|----------------|
| [65535](#event-65535)    | 0x0000       |      1 |              1 |
| [1](#event-1)            | 0x0001       |     10 |              2 |
| [65535.1](#event-655351) | 0x000B       |     14 |              4 |
| [1000](#event-1000)      | 0x0019       |    116 |             26 |
| [1001](#event-1001)      | 0x008D       |   1028 |            194 |
| [1002](#event-1002)      | 0x0491       |     11 |              5 |
| [1003](#event-1003)      | 0x049C       |     11 |              5 |
| [1004](#event-1004)      | 0x04A7       |    122 |             27 |
| [1005](#event-1005)      | 0x0521       |     31 |              8 |
| [1006](#event-1006)      | 0x0540       |     36 |              9 |
| [1007](#event-1007)      | 0x0564       |     11 |              5 |
| [1011](#event-1011)      | 0x056F       |     16 |              6 |
| [1008](#event-1008)      | 0x057F       |    226 |             35 |
| [1009](#event-1009)      | 0x0661       |    429 |             63 |
| [1010](#event-1010)      | 0x080E       |   1235 |            140 |
| [245](#event-245)        | 0x0CE1       |      1 |              1 |
| [65535.2](#event-655352) | 0x0CE2       |     26 |              6 |
| [65535.3](#event-655353) | 0x0CFC       |     43 |             11 |
| [65535.4](#event-655354) | 0x0D27       |     10 |              2 |

## DAT References (imed_data)

|   Index | Hex Value   |   Dec Value |
|---------|-------------|-------------|
|       0 | 0xFFFF9A4D  |  4294941261 |
|       1 | 0xFFFE7A4B  |  4294867531 |
|       2 | 0x0000      |           0 |
|       3 | 0x0AC5      |        2757 |
|       4 | 0x000D      |          13 |
|       5 | 0xFFFFF98B  |  4294965643 |
|       6 | 0xFFFE393E  |  4294850878 |
|       7 | 0xFFFFFC19  |  4294966297 |
|       8 | 0x197C      |        6524 |
|       9 | 0x197D      |        6525 |
|      10 | 0x1981      |        6529 |
|      11 | 0x1982      |        6530 |
|      12 | 0x1983      |        6531 |
|      13 | 0x1984      |        6532 |
|      14 | 0x0001      |           1 |
|      15 | 0x1980      |        6528 |
|      16 | 0x197A      |        6522 |
|      17 | 0x197B      |        6523 |
|      18 | 0x001F      |          31 |
|      19 | 0x1985      |        6533 |
|      20 | 0x1986      |        6534 |
|      21 | 0x1987      |        6535 |
|      22 | 0x0002      |           2 |
|      23 | 0x025E      |         606 |
|      24 | 0x025F      |         607 |
|      25 | 0x0260      |         608 |
|      26 | 0x0261      |         609 |
|      27 | 0x1988      |        6536 |
|      28 | 0x1989      |        6537 |
|      29 | 0x198A      |        6538 |
|      30 | 0x0003      |           3 |
|      31 | 0x1993      |        6547 |
|      32 | 0x1994      |        6548 |
|      33 | 0x1995      |        6549 |
|      34 | 0x1996      |        6550 |
|      35 | 0x1997      |        6551 |
|      36 | 0x0004      |           4 |
|      37 | 0x110A      |        4362 |
|      38 | 0x1998      |        6552 |
|      39 | 0x1999      |        6553 |
|      40 | 0x0005      |           5 |
|      41 | 0x199A      |        6554 |
|      42 | 0x199B      |        6555 |
|      43 | 0x000A      |          10 |
|      44 | 0x199C      |        6556 |
|      45 | 0x199D      |        6557 |
|      46 | 0x199E      |        6558 |
|      47 | 0x199F      |        6559 |
|      48 | 0x000B      |          11 |
|      49 | 0x0233      |         563 |
|      50 | 0x19A0      |        6560 |
|      51 | 0x19A1      |        6561 |
|      52 | 0x19A2      |        6562 |
|      53 | 0x19A3      |        6563 |
|      54 | 0x000C      |          12 |
|      55 | 0x19A5      |        6565 |
|      56 | 0x19A6      |        6566 |
|      57 | 0x19A7      |        6567 |
|      58 | 0x000E      |          14 |
|      59 | 0x19A8      |        6568 |
|      60 | 0x19A9      |        6569 |
|      61 | 0x000F      |          15 |
|      62 | 0x19AA      |        6570 |
|      63 | 0x19AB      |        6571 |
|      64 | 0x0010      |          16 |
|      65 | 0x2D82      |       11650 |
|      66 | 0x2D83      |       11651 |
|      67 | 0x2D84      |       11652 |
|      68 | 0x0011      |          17 |
|      69 | 0x2D85      |       11653 |
|      70 | 0x2D86      |       11654 |
|      71 | 0x2D87      |       11655 |
|      72 | 0x0012      |          18 |
|      73 | 0x2D88      |       11656 |
|      74 | 0x2D89      |       11657 |
|      75 | 0x0013      |          19 |
|      76 | 0x2D8A      |       11658 |
|      77 | 0x2D8B      |       11659 |
|      78 | 0x0014      |          20 |
|      79 | 0x2D8D      |       11661 |
|      80 | 0x2D8E      |       11662 |
|      81 | 0x0015      |          21 |
|      82 | 0x2D8F      |       11663 |
|      83 | 0x2D90      |       11664 |
|      84 | 0x0016      |          22 |
|      85 | 0x2D91      |       11665 |
|      86 | 0x2D92      |       11666 |
|      87 | 0x2D93      |       11667 |
|      88 | 0x0017      |          23 |
|      89 | 0x2D94      |       11668 |
|      90 | 0x2D95      |       11669 |
|      91 | 0x2D96      |       11670 |
|      92 | 0x2D97      |       11671 |
|      93 | 0x197E      |        6526 |
|      94 | 0x1979      |        6521 |
|      95 | 0x1978      |        6520 |
|      96 | 0x198B      |        6539 |
|      97 | 0x198C      |        6540 |
|      98 | 0x198D      |        6541 |
|      99 | 0x198E      |        6542 |
|     100 | 0x198F      |        6543 |
|     101 | 0x1990      |        6544 |
|     102 | 0x1991      |        6545 |
|     103 | 0x1992      |        6546 |
|     104 | 0x00C9      |         201 |
|     105 | 0x19A4      |        6564 |
|     106 | 0x19AC      |        6572 |
|     107 | 0x0122      |         290 |
|     108 | 0x2D8C      |       11660 |
|     109 | 0x00D7      |         215 |
|     110 | 0x00C8      |         200 |
|     111 | 0x0045      |          69 |
|     112 | 0x2CDA      |       11482 |
|     113 | 0x002D      |          45 |
|     114 | 0xFFFFDC4E  |  4294958158 |
|     115 | 0xFFFE1E6D  |  4294844013 |
|     116 | 0x2CDB      |       11483 |
|     117 | 0x2CDC      |       11484 |
|     118 | 0x2CDD      |       11485 |
|     119 | 0x2CDE      |       11486 |
|     120 | 0x2CDF      |       11487 |
|     121 | 0x0019      |          25 |
|     122 | 0x2CE0      |       11488 |
|     123 | 0x2CE1      |       11489 |
|     124 | 0x0007      |           7 |
|     125 | 0x2CE2      |       11490 |
|     126 | 0x2CE3      |       11491 |
|     127 | 0x2CE4      |       11492 |
|     128 | 0x005A      |          90 |
|     129 | 0x2CE5      |       11493 |
|     130 | 0xFFFFE120  |  4294959392 |
|     131 | 0xFFFE1F6D  |  4294844269 |
|     132 | 0x2CE6      |       11494 |
|     133 | 0x2CE7      |       11495 |
|     134 | 0x2CE8      |       11496 |
|     135 | 0x2CE9      |       11497 |
|     136 | 0x2CEA      |       11498 |
|     137 | 0x2CEB      |       11499 |
|     138 | 0x2CEC      |       11500 |
|     139 | 0x2CED      |       11501 |
|     140 | 0x2CEE      |       11502 |
|     141 | 0x2CEF      |       11503 |
|     142 | 0x2CF0      |       11504 |
|     143 | 0x001E      |          30 |
|     144 | 0x0006      |           6 |
|     145 | 0x0028      |          40 |
|     146 | 0xFFFFCB18  |  4294953752 |
|     147 | 0xFFFE1FE8  |  4294844392 |
|     148 | 0xFFFFDF04  |  4294958852 |
|     149 | 0xFFFE1D49  |  4294843721 |
|     150 | 0xFFFFFC18  |  4294966296 |
|     151 | 0x0B9A      |        2970 |

## String References

- **6520**: I am in charge of assigning missions, but I am only allowed to do so to those whose allegiance is to Bastok.
- **6521**: You cannot undertake two missions at the same time. Finish the one you are on now before asking for a new one.
- **6522**: Missions currently available are as follows:
- **6523**: Which mission will you undertake? [The Zeruhn Report./A Geological Survey./Fetichism./The Crystal Line./Wading Beasts./The Emissary."-3-1A."-3-1B."-3-2A."-3-2B./The Four Musketeers./To the Forsaken Mines./Jeuno./$3_$3~[./Darkness Rising./Xarcabard, Land of Truths./Return of the Talekeeper./The Pirates' Cove./The Final Image./On My Way./The Chains That Bind Us./Enter the Talekeeper./The Salt of the Earth./Where Two Paths Converge./$3_$3~$470607$3_$3~$470608$3_$3~$470609$3_$3~$470610$3_$3~$470611$3_$3~$470612$3_$3~$470613None.]
- **6524**: I am in charge of assigning missions to Bastokers who wish to serve their country. Are you one of them?
- **6525**: Have you come to undertake a mission? [Yes, I have./No, maybe later.]
- **6526**: Will you accept this mission? [Yes./No.]
- **6528**: Then move along.
- **6529**: Good. This is your first time going on a mission, is it not?
- **6530**: Your first assignment is not a difficult one. The details are as follows:
- **6531**: You must go to the Zeruhn Mines in the western section of the Mines District. Once there, you are to collect a report from the overseer.
- **6532**: You can consult the "Mission" section of the main menu to review your objectives. Speed and efficiency are your priorities. Dismissed.
- **6533**: The Chief Engineer is conducting new research, and has asked for someone to assist him. He can be found in the Metalworks, to the east of the administrative section.
- **6534**: The Chief Engineer's laboratory is on the second floor of the Metalworks. You don't know his name!? And you call yourself a Bastoker!
- **6535**: The Chief Engineer's name is Cid. Any Bastoker would know that! Now go and see him. He will give you the details of your mission.
- **6536**: The Palborough Mines, once our main source of mythril, have been under beastman control for some time.
- **6537**: We want you to hunt these beastmen, the Quadav, and bring back $4, $5, $6, and $7 as proof of your accomplishments.
- **6538**: You must present all four items to me or one of my colleagues in order to complete this mission.
- **6539**: Good, you've brought all four parts of the doll.
- **6540**: I am raising your rank to 2 for completing this mission. Congratulations.
- **6541**: If you've been to the Palborough Mines, you must know now the serious nature of the threat these beastmen pose to our civilization.
- **6542**: As a Bastoker, you are expected to take on more missions and go on conquests to preserve Bastok's brilliant future!
- **6543**: But I cannot give you a new mission at this time.
- **6544**: You need to collect rank points before taking on new missions.
- **6545**: You can receive rank points by participating in conquests and donating the crystals you acquire to guards, or by undertaking missions you've previously completed.
- **6546**: Ask the High Guard near the gatehouse if you wish to hear more about conquests.
- **6547**: Have you heard of a strange structure called the Crag of Dem? It is on the Konschtat Highlands, north of the Gustaberg Mountains.
- **6548**: They say that crystals are drained of their power if you take them to a certain section of that structure.
- **6549**: Chief Cid is currently investigating this strange phenomenon, and is asking for someone to bring back a faded crystal.
- **6550**: Go see him for a more detailed explanation of your objectives.
- **6551**: You want a crystal to use for this experiment? Are you not an adventurer? It should be easy for you to procure one.
- **6552**: You are to collect $7 from beasts in the Dangruf Wadi.
- **6553**: Senator Alois is in need of some. Do not ask me why. He can be found in the President's Office.
- **6554**: You've acquired quite a reputation. There is a new mission for you to tackle.
- **6555**: First, speak to Sir Naji of the Mythril Musketeers at the President's Office. This mission is of great import to the welfare of our nation.
- **6556**: I see you've made it back safely from your journey to Windurst and San d'Oria. This new mission should not be hard for an experienced adventurer like you.
- **6557**: The Mythril Musketeers are planning an offensive on the Quadav stronghold.
- **6558**: Adventurers, including yourself, have been asked to join them on this operation.
- **6559**: You are to go meet Iron Eater, one of the Mythril Musketeers, to receive a full briefing.
- **6560**: The Gusgen Mines in the Konschtat Highlands have been dug to the bare rock and abandoned for some time...
- **6561**: But lately, there have been reports that a rare ore can be found in them. No one has claimed this new vein yet.
- **6562**: You are to bring back a sample of the ore to confirm these reports. A Galka adventurer named Davyad should be able to help you. He is said to have acquired a chunk of the ore when he was there last.
- **6563**: The item that Davyad brought back was $7. That is what you should seek as well. Once you have the ore, hand them over to me or one of my colleagues.
- **6564**: You have succeeded in bringing back $7. Good work, adventurer. This discovery may help rejuvenate Bastok's economy!
- **6565**: You have heard of Jeuno, have you not? The Bastokan government is currently looking for someone to send there, and your name is on the list of candidates.
- **6566**: The presidential aide, Sir Lucius himself, recommended you. It is a great honor--you should be proud!
- **6567**: Sir Lucius wishes to see you as soon as possible. Go meet him in his office in the administrative section at the top of the Metalworks.
- **6568**: I have orders for you from the president himself. You must have heard already, but he wants you to go to Fei'Yin.
- **6569**: Go speak to Sir Naji at the President's Office. He will show you in.
- **6570**: So, it has finally come to this... You are to infiltrate the Kindred's main stronghold of Zvahl.
- **6571**: The president will brief you himself in his office. Good luck, adventurer!
- **6572**: Ah, you have returned from Jeuno. Go to the President's Office right away. Sir Naji will show you in.
- **11650**: There has been some commotion in the Mines District near Ore Street. People are saying that a new Talekeeper has appeared.
- **11651**: It sounds fishy to me, but with the disappearance of their elder, Werei, anything could be possible. And the last thing we want is an uprising by the Galka.
- **11652**: Go to Ore Street and talk to Medicine Eagle. He says he was there when the commotion started.
- **11653**: I assume an adventurer of your caliber has heard of Norg.
- **11654**: Well, the place is a haven for pirates. They even have ties with the Tenshodo. In any case, it's an area that cannot be looked upon lightly.
- **11655**: That is why we want you to travel there as an emissary. Report to Sir Naji in the President's Office for details.
- **11656**: Currently, Chief Engineer Cid is conducting research on the architecture in Ro'Maeve near the Sanctuary of Zi'Tah. Your next mission is to travel there and assist him.
- **11657**: Report to the Chief Engineer in the Metalworks for further details.
- **11658**: We are searching for an adventurer holding vital information dealing with a certain national investigation.
- **11659**: The president himself has expressed great interest in this case. Proceed to the President's Office for the details of this mission.
- **11660**: You've been ordered by the president to deliver that $3. When you have completed that task, you can return here for your next mission.
- **11661**: It looks like Bastok is really going to begin an investigation of the Galka homeland of Altepa.
- **11662**: Your role in this investigation will have you traveling to the Quicksand Caves. Get the details of this mission from Iron Eater in the President's Office.
- **11663**: As a continuation of Bastok's investigation of Altepa, this time you will be traveling to Zepwell Island.
- **11664**: You will be carrying out your part of the investigation in the Kuftal Tunnel, which connects Cape Teriggan to Zepwell Island. Report to Drake Fang in the Zeruhn Mines for details.
- **11665**: Senator Alois has asked for your assistance.
- **11666**: It is something about an expedition to Vollbow...
- **11667**: I just hope he's not asking you to go get lizard eggs again... Wait, you didn't hear me say that.
- **11668**: Recently, an adventurer who was sent to investigate the Northlands has been attacked.
- **11669**: According to her report, the attacker resembled the dark knight Zeid.
- **11670**: The strange thing is that the attacker passed a letter to the adventurer before letting her go. Now, this letter's content is causing quite a commotion in the President's Office.
- **11671**: You have been asked to report directly to President Karst for further details.

## Events

### Event 65535

#### Metadata

| Field        | Value   |
|--------------|---------|
| Entrypoint   | 0x0000  |
| Data Size    | 1 bytes |
| Instructions | 1       |

```
      00 01 02 03 04 05 06 07  08 09 0A 0B 0C 0D 0E 0F
      -- -- -- -- -- -- -- --  -- -- -- -- -- -- -- --
0000: 00                                                .               
```

#### Opcodes

```
  0: 0x0000 [0x00] END_REQSTACK()
```

### Event 1

#### Metadata

| Field        | Value    |
|--------------|----------|
| Entrypoint   | 0x0001   |
| Data Size    | 10 bytes |
| Instructions | 2        |

```
      00 01 02 03 04 05 06 07  08 09 0A 0B 0C 0D 0E 0F
      -- -- -- -- -- -- -- --  -- -- -- -- -- -- -- --
0000:    37 00 80 01 80 02 80  03 80 00                  7.........     
```

#### Opcodes

```
  0: 0x0001 [0x37] UPDATE_EVENT_POSITION_AND_DIR: x=-26.035*, z=-99.765*, y=0.000*, direction=242.3°*
  1: 0x000A [0x00] END_REQSTACK()
```

### Event 65535.1

#### Metadata

| Field        | Value    |
|--------------|----------|
| Entrypoint   | 0x000B   |
| Data Size    | 14 bytes |
| Instructions | 4        |

```
      00 01 02 03 04 05 06 07  08 09 0A 0B 0C 0D 0E 0F
      -- -- -- -- -- -- -- --  -- -- -- -- -- -- -- --
0000:                                   32 04 80 1F 00             2....
0010: 05 80 06 80 07 80 1F 01  00                       .........       
```

#### Opcodes

```
  0: 0x000B [0x32] ExtData[1]->MainSpeed = 13* * 0.1
  1: 0x000E [0x1F] MOVE_ENTITY: EventEntity moves to X=-1.653*, Z=-116.418*, Y=-0.999*
  2: 0x0016 [0x1F] MOVE_ENTITY: Update entity position (mode=1)
  3: 0x0018 [0x00] END_REQSTACK()
```

### Event 1000

#### Metadata

| Field        | Value     |
|--------------|-----------|
| Entrypoint   | 0x0019    |
| Data Size    | 116 bytes |
| Instructions | 26        |

```
      00 01 02 03 04 05 06 07  08 09 0A 0B 0C 0D 0E 0F
      -- -- -- -- -- -- -- --  -- -- -- -- -- -- -- --
0010:                             1E F0 FF FF 7F 1D 08           .......
0020: 80 23 24 09 80 02 80 02  80 25 02 00 10 02 80 00  .#$......%......
0030: 68 00 66 02 80 F8 FF FF  7F F8 FF FF 7F 74 6C 6B  h.f..........tlk
0040: 30 1D 0A 80 23 1D 0B 80  23 1D 0C 80 23 66 02 80  0...#...#...#f..
0050: F8 FF FF 7F F8 FF FF 7F  74 65 6E 30 1D 0D 80 23  ........ten0...#
0060: 03 01 10 02 80 01 8B 00  02 00 10 0E 80 00 8B 00  ................
0070: 66 02 80 F8 FF FF 7F F8  FF FF 7F 74 6C 6B 30 1D  f..........tlk0.
0080: 0F 80 23 03 01 10 0E 80  01 8B 00 21 00           ..#........!.   
```

#### Opcodes

```
  0: 0x0019 [0x1E] EventEntity looks at LocalPlayer and starts talking
  1: 0x001E [0x1D] PRINT_EVENT_MESSAGE(message_id=6524*)
    → "I am in charge of assigning missions to Bastokers who wish to serve their country. Are you one of them?"
  2: 0x0021 [0x23] WAIT_FOR_DIALOG_INTERACTION
  3: 0x0022 [0x24] CREATE_DIALOG(message_id=6525*, default_option=0*, option_flags=0*)
    → "Have you come to undertake a mission? [Yes, I have./No, maybe later.]"
  4: 0x0029 [0x25] WAIT_DIALOG_SELECT()
  5: 0x002A [0x02] IF !(Work_Zone[0] == 0*) GOTO 0x0068
  6: 0x0032 [0x66] LOAD_EXT_SCHEDULER_MAIN: Load scheduler "tlk0" with entities [EventEntity, EventEntity], work=0*
  7: 0x0041 [0x1D] PRINT_EVENT_MESSAGE(message_id=6529*)
    → "Good. This is your first time going on a mission, is it not?"
  8: 0x0044 [0x23] WAIT_FOR_DIALOG_INTERACTION
  9: 0x0045 [0x1D] PRINT_EVENT_MESSAGE(message_id=6530*)
    → "Your first assignment is not a difficult one. The details are as follows:"
 10: 0x0048 [0x23] WAIT_FOR_DIALOG_INTERACTION
 11: 0x0049 [0x1D] PRINT_EVENT_MESSAGE(message_id=6531*)
    → "You must go to the Zeruhn Mines in the western section of the Mines District. Once there, you are to collect a report from the overseer."
 12: 0x004C [0x23] WAIT_FOR_DIALOG_INTERACTION
 13: 0x004D [0x66] LOAD_EXT_SCHEDULER_MAIN: Load scheduler "ten0" with entities [EventEntity, EventEntity], work=0*
 14: 0x005C [0x1D] PRINT_EVENT_MESSAGE(message_id=6532*)
    → "You can consult the "Mission" section of the main menu to review your objectives. Speed and efficiency are your priorities. Dismissed."
 15: 0x005F [0x23] WAIT_FOR_DIALOG_INTERACTION
 16: 0x0060 [0x03] Work_Zone[1] = 0*
 17: 0x0065 [0x01] GOTO 0x008B
 18: 0x0068 [0x02] IF !(Work_Zone[0] == 1*) GOTO 0x008B
 19: 0x0070 [0x66] LOAD_EXT_SCHEDULER_MAIN: Load scheduler "tlk0" with entities [EventEntity, EventEntity], work=0*
 20: 0x007F [0x1D] PRINT_EVENT_MESSAGE(message_id=6528*)
    → "Then move along."
 21: 0x0082 [0x23] WAIT_FOR_DIALOG_INTERACTION
 22: 0x0083 [0x03] Work_Zone[1] = 1*
 23: 0x0088 [0x01] GOTO 0x008B

SUBROUTINE_008B:
 24: 0x008B [0x21] END_EVENT
 25: 0x008C [0x00] END_REQSTACK()
```

### Event 1001

#### Metadata

| Field        | Value      |
|--------------|------------|
| Entrypoint   | 0x008D     |
| Data Size    | 1028 bytes |
| Instructions | 194        |

```
      00 01 02 03 04 05 06 07  08 09 0A 0B 0C 0D 0E 0F
      -- -- -- -- -- -- -- --  -- -- -- -- -- -- -- --
0080:                                         1E F0 FF               ...
0090: FF 7F 1D 10 80 23 24 11  80 12 80 02 10 25 02 00  .....#$......%..
00A0: 10 0E 80 00 D3 00 66 02  80 F8 FF FF 7F F8 FF FF  ......f.........
00B0: 7F 74 6C 6B 30 1D 13 80  23 1D 14 80 23 66 02 80  .tlk0...#...#f..
00C0: F8 FF FF 7F F8 FF FF 7F  74 65 6E 30 1D 15 80 23  ........ten0...#
00D0: 01 6A 04 02 00 10 16 80  00 1C 01 03 06 10 17 80  .j..............
00E0: 03 07 10 18 80 03 08 10  19 80 03 09 10 1A 80 66  ...............f
00F0: 02 80 F8 FF FF 7F F8 FF  FF 7F 74 6C 6B 30 1D 1B  ..........tlk0..
0100: 80 23 1D 1C 80 23 66 02  80 F8 FF FF 7F F8 FF FF  .#...#f.........
0110: 7F 74 65 6E 30 1D 1D 80  23 01 6A 04 02 00 10 1E  .ten0...#.j.....
0120: 80 00 59 01 66 02 80 F8  FF FF 7F F8 FF FF 7F 74  ..Y.f..........t
0130: 6C 6B 30 1D 1F 80 23 1D  20 80 23 1D 21 80 23 1D  lk0...#. .#.!.#.
0140: 22 80 23 66 02 80 F8 FF  FF 7F F8 FF FF 7F 74 65  ".#f..........te
0150: 6E 30 1D 23 80 23 01 6A  04 02 00 10 24 80 00 8F  n0.#.#.j....$...
0160: 01 03 09 10 25 80 66 02  80 F8 FF FF 7F F8 FF FF  ....%.f.........
0170: 7F 74 6C 6B 30 1D 26 80  23 66 02 80 F8 FF FF 7F  .tlk0.&.#f......
0180: F8 FF FF 7F 74 65 6E 30  1D 27 80 23 01 6A 04 02  ....ten0.'.#.j..
0190: 00 10 28 80 00 C0 01 66  02 80 F8 FF FF 7F F8 FF  ..(....f........
01A0: FF 7F 74 6C 6B 30 1D 29  80 23 66 02 80 F8 FF FF  ..tlk0.).#f.....
01B0: 7F F8 FF FF 7F 74 65 6E  30 1D 2A 80 23 01 6A 04  .....ten0.*.#.j.
01C0: 02 00 10 2B 80 00 F9 01  66 02 80 F8 FF FF 7F F8  ...+....f.......
01D0: FF FF 7F 74 6C 6B 30 1D  2C 80 23 1D 2D 80 23 1D  ...tlk0.,.#.-.#.
01E0: 2E 80 23 66 02 80 F8 FF  FF 7F F8 FF FF 7F 74 65  ..#f..........te
01F0: 6E 30 1D 2F 80 23 01 6A  04 02 00 10 30 80 00 37  n0./.#.j....0..7
0200: 02 03 09 10 31 80 66 02  80 F8 FF FF 7F F8 FF FF  ....1.f.........
0210: 7F 74 6C 6B 30 1D 32 80  23 1D 33 80 23 1D 34 80  .tlk0.2.#.3.#.4.
0220: 23 66 02 80 F8 FF FF 7F  F8 FF FF 7F 74 65 6E 30  #f..........ten0
0230: 1D 35 80 23 01 6A 04 02  00 10 36 80 00 6C 02 66  .5.#.j....6..l.f
0240: 02 80 F8 FF FF 7F F8 FF  FF 7F 74 6C 6B 30 1D 37  ..........tlk0.7
0250: 80 23 1D 38 80 23 66 02  80 F8 FF FF 7F F8 FF FF  .#.8.#f.........
0260: 7F 74 65 6E 30 1D 39 80  23 01 6A 04 02 00 10 3A  .ten0.9.#.j....:
0270: 80 00 9D 02 66 02 80 F8  FF FF 7F F8 FF FF 7F 74  ....f..........t
0280: 6C 6B 30 1D 3B 80 23 66  02 80 F8 FF FF 7F F8 FF  lk0.;.#f........
0290: FF 7F 74 65 6E 30 1D 3C  80 23 01 6A 04 02 00 10  ..ten0.<.#.j....
02A0: 3D 80 00 CE 02 66 02 80  F8 FF FF 7F F8 FF FF 7F  =....f..........
02B0: 74 6C 6B 30 1D 3E 80 23  66 02 80 F8 FF FF 7F F8  tlk0.>.#f.......
02C0: FF FF 7F 74 65 6E 30 1D  3F 80 23 01 6A 04 02 00  ...ten0.?.#.j...
02D0: 10 40 80 00 03 03 66 02  80 F8 FF FF 7F F8 FF FF  .@....f.........
02E0: 7F 74 6C 6B 30 1D 41 80  23 1D 42 80 23 66 02 80  .tlk0.A.#.B.#f..
02F0: F8 FF FF 7F F8 FF FF 7F  74 65 6E 30 1D 43 80 23  ........ten0.C.#
0300: 01 6A 04 02 00 10 44 80  00 38 03 66 02 80 F8 FF  .j....D..8.f....
0310: FF 7F F8 FF FF 7F 74 6C  6B 30 1D 45 80 23 1D 46  ......tlk0.E.#.F
0320: 80 23 66 02 80 F8 FF FF  7F F8 FF FF 7F 74 65 6E  .#f..........ten
0330: 30 1D 47 80 23 01 6A 04  02 00 10 48 80 00 69 03  0.G.#.j....H..i.
0340: 66 02 80 F8 FF FF 7F F8  FF FF 7F 74 6C 6B 30 1D  f..........tlk0.
0350: 49 80 23 66 02 80 F8 FF  FF 7F F8 FF FF 7F 74 65  I.#f..........te
0360: 6E 30 1D 4A 80 23 01 6A  04 02 00 10 4B 80 00 9A  n0.J.#.j....K...
0370: 03 66 02 80 F8 FF FF 7F  F8 FF FF 7F 74 6C 6B 30  .f..........tlk0
0380: 1D 4C 80 23 66 02 80 F8  FF FF 7F F8 FF FF 7F 74  .L.#f..........t
0390: 65 6E 30 1D 4D 80 23 01  6A 04 02 00 10 4E 80 00  en0.M.#.j....N..
03A0: CB 03 66 02 80 F8 FF FF  7F F8 FF FF 7F 74 6C 6B  ..f..........tlk
03B0: 30 1D 4F 80 23 66 02 80  F8 FF FF 7F F8 FF FF 7F  0.O.#f..........
03C0: 74 65 6E 30 1D 50 80 23  01 6A 04 02 00 10 51 80  ten0.P.#.j....Q.
03D0: 00 FC 03 66 02 80 F8 FF  FF 7F F8 FF FF 7F 74 6C  ...f..........tl
03E0: 6B 30 1D 52 80 23 66 02  80 F8 FF FF 7F F8 FF FF  k0.R.#f.........
03F0: 7F 74 65 6E 30 1D 53 80  23 01 6A 04 02 00 10 54  .ten0.S.#.j....T
0400: 80 00 31 04 66 02 80 F8  FF FF 7F F8 FF FF 7F 74  ..1.f..........t
0410: 6C 6B 30 1D 55 80 23 1D  56 80 23 66 02 80 F8 FF  lk0.U.#.V.#f....
0420: FF 7F F8 FF FF 7F 74 65  6E 30 1D 57 80 23 01 6A  ......ten0.W.#.j
0430: 04 02 00 10 58 80 00 6A  04 66 02 80 F8 FF FF 7F  ....X..j.f......
0440: F8 FF FF 7F 74 6C 6B 30  1D 59 80 23 1D 5A 80 23  ....tlk0.Y.#.Z.#
0450: 1D 5B 80 23 66 02 80 F8  FF FF 7F F8 FF FF 7F 74  .[.#f..........t
0460: 65 6E 30 1D 5C 80 23 01  6A 04 03 01 10 00 10 02  en0.\.#.j.......
0470: 01 10 12 80 01 8F 04 24  5D 80 02 80 02 80 25 02  .......$].....%.
0480: 00 10 0E 80 00 8F 04 03  01 10 12 80 01 8F 04 21  ...............!
0490: 00                                                .               
```

#### Opcodes

```
  0: 0x008D [0x1E] EventEntity looks at LocalPlayer and starts talking
  1: 0x0092 [0x1D] PRINT_EVENT_MESSAGE(message_id=6522*)
    → "Missions currently available are as follows:"
  2: 0x0095 [0x23] WAIT_FOR_DIALOG_INTERACTION
  3: 0x0096 [0x24] CREATE_DIALOG(message_id=6523*, default_option=31*, option_flags=Work_Zone[2])
    → "Which mission will you undertake? [The Zeruhn Report./A Geological Survey./Fetichism./The Crystal Line./Wading Beasts./The Emissary."-3-1A."-3-1B."-3-2A."-3-2B./The Four Musketeers./To the Forsaken Mines./Jeuno./$3_$3~[./Darkness Rising./Xarcabard, Land of Truths./Return of the Talekeeper./The Pirates' Cove./The Final Image./On My Way./The Chains That Bind Us./Enter the Talekeeper./The Salt of the Earth./Where Two Paths Converge./$3_$3~$470607$3_$3~$470608$3_$3~$470609$3_$3~$470610$3_$3~$470611$3_$3~$470612$3_$3~$470613None.]"
  4: 0x009D [0x25] WAIT_DIALOG_SELECT()
  5: 0x009E [0x02] IF !(Work_Zone[0] == 1*) GOTO 0x00D3
  6: 0x00A6 [0x66] LOAD_EXT_SCHEDULER_MAIN: Load scheduler "tlk0" with entities [EventEntity, EventEntity], work=0*
  7: 0x00B5 [0x1D] PRINT_EVENT_MESSAGE(message_id=6533*)
    → "The Chief Engineer is conducting new research, and has asked for someone to assist him. He can be found in the Metalworks, to the east of the administrative section."
  8: 0x00B8 [0x23] WAIT_FOR_DIALOG_INTERACTION
  9: 0x00B9 [0x1D] PRINT_EVENT_MESSAGE(message_id=6534*)
    → "The Chief Engineer's laboratory is on the second floor of the Metalworks. You don't know his name!? And you call yourself a Bastoker!"
 10: 0x00BC [0x23] WAIT_FOR_DIALOG_INTERACTION
 11: 0x00BD [0x66] LOAD_EXT_SCHEDULER_MAIN: Load scheduler "ten0" with entities [EventEntity, EventEntity], work=0*
 12: 0x00CC [0x1D] PRINT_EVENT_MESSAGE(message_id=6535*)
    → "The Chief Engineer's name is Cid. Any Bastoker would know that! Now go and see him. He will give you the details of your mission."
 13: 0x00CF [0x23] WAIT_FOR_DIALOG_INTERACTION
 14: 0x00D0 [0x01] GOTO 0x046A
 15: 0x00D3 [0x02] IF !(Work_Zone[0] == 2*) GOTO 0x011C
 16: 0x00DB [0x03] Work_Zone[6] = 606*
 17: 0x00E0 [0x03] Work_Zone[7] = 607*
 18: 0x00E5 [0x03] Work_Zone[8] = 608*
 19: 0x00EA [0x03] Work_Zone[9] = 609*
 20: 0x00EF [0x66] LOAD_EXT_SCHEDULER_MAIN: Load scheduler "tlk0" with entities [EventEntity, EventEntity], work=0*
 21: 0x00FE [0x1D] PRINT_EVENT_MESSAGE(message_id=6536*)
    → "The Palborough Mines, once our main source of mythril, have been under beastman control for some time."
 22: 0x0101 [0x23] WAIT_FOR_DIALOG_INTERACTION
 23: 0x0102 [0x1D] PRINT_EVENT_MESSAGE(message_id=6537*)
    → "We want you to hunt these beastmen, the Quadav, and bring back $4, $5, $6, and $7 as proof of your accomplishments."
 24: 0x0105 [0x23] WAIT_FOR_DIALOG_INTERACTION
 25: 0x0106 [0x66] LOAD_EXT_SCHEDULER_MAIN: Load scheduler "ten0" with entities [EventEntity, EventEntity], work=0*
 26: 0x0115 [0x1D] PRINT_EVENT_MESSAGE(message_id=6538*)
    → "You must present all four items to me or one of my colleagues in order to complete this mission."
 27: 0x0118 [0x23] WAIT_FOR_DIALOG_INTERACTION
 28: 0x0119 [0x01] GOTO 0x046A
 29: 0x011C [0x02] IF !(Work_Zone[0] == 3*) GOTO 0x0159
 30: 0x0124 [0x66] LOAD_EXT_SCHEDULER_MAIN: Load scheduler "tlk0" with entities [EventEntity, EventEntity], work=0*
 31: 0x0133 [0x1D] PRINT_EVENT_MESSAGE(message_id=6547*)
    → "Have you heard of a strange structure called the Crag of Dem? It is on the Konschtat Highlands, north of the Gustaberg Mountains."
 32: 0x0136 [0x23] WAIT_FOR_DIALOG_INTERACTION
 33: 0x0137 [0x1D] PRINT_EVENT_MESSAGE(message_id=6548*)
    → "They say that crystals are drained of their power if you take them to a certain section of that structure."
 34: 0x013A [0x23] WAIT_FOR_DIALOG_INTERACTION
 35: 0x013B [0x1D] PRINT_EVENT_MESSAGE(message_id=6549*)
    → "Chief Cid is currently investigating this strange phenomenon, and is asking for someone to bring back a faded crystal."
 36: 0x013E [0x23] WAIT_FOR_DIALOG_INTERACTION
 37: 0x013F [0x1D] PRINT_EVENT_MESSAGE(message_id=6550*)
    → "Go see him for a more detailed explanation of your objectives."
 38: 0x0142 [0x23] WAIT_FOR_DIALOG_INTERACTION
 39: 0x0143 [0x66] LOAD_EXT_SCHEDULER_MAIN: Load scheduler "ten0" with entities [EventEntity, EventEntity], work=0*
 40: 0x0152 [0x1D] PRINT_EVENT_MESSAGE(message_id=6551*)
    → "You want a crystal to use for this experiment? Are you not an adventurer? It should be easy for you to procure one."
 41: 0x0155 [0x23] WAIT_FOR_DIALOG_INTERACTION
 42: 0x0156 [0x01] GOTO 0x046A
 43: 0x0159 [0x02] IF !(Work_Zone[0] == 4*) GOTO 0x018F
 44: 0x0161 [0x03] Work_Zone[9] = 4362*
 45: 0x0166 [0x66] LOAD_EXT_SCHEDULER_MAIN: Load scheduler "tlk0" with entities [EventEntity, EventEntity], work=0*
 46: 0x0175 [0x1D] PRINT_EVENT_MESSAGE(message_id=6552*)
    → "You are to collect $7 from beasts in the Dangruf Wadi."
 47: 0x0178 [0x23] WAIT_FOR_DIALOG_INTERACTION
 48: 0x0179 [0x66] LOAD_EXT_SCHEDULER_MAIN: Load scheduler "ten0" with entities [EventEntity, EventEntity], work=0*
 49: 0x0188 [0x1D] PRINT_EVENT_MESSAGE(message_id=6553*)
    → "Senator Alois is in need of some. Do not ask me why. He can be found in the President's Office."
 50: 0x018B [0x23] WAIT_FOR_DIALOG_INTERACTION
 51: 0x018C [0x01] GOTO 0x046A
 52: 0x018F [0x02] IF !(Work_Zone[0] == 5*) GOTO 0x01C0
 53: 0x0197 [0x66] LOAD_EXT_SCHEDULER_MAIN: Load scheduler "tlk0" with entities [EventEntity, EventEntity], work=0*
 54: 0x01A6 [0x1D] PRINT_EVENT_MESSAGE(message_id=6554*)
    → "You've acquired quite a reputation. There is a new mission for you to tackle."
 55: 0x01A9 [0x23] WAIT_FOR_DIALOG_INTERACTION
 56: 0x01AA [0x66] LOAD_EXT_SCHEDULER_MAIN: Load scheduler "ten0" with entities [EventEntity, EventEntity], work=0*
 57: 0x01B9 [0x1D] PRINT_EVENT_MESSAGE(message_id=6555*)
    → "First, speak to Sir Naji of the Mythril Musketeers at the President's Office. This mission is of great import to the welfare of our nation."
 58: 0x01BC [0x23] WAIT_FOR_DIALOG_INTERACTION
 59: 0x01BD [0x01] GOTO 0x046A
 60: 0x01C0 [0x02] IF !(Work_Zone[0] == 10*) GOTO 0x01F9
 61: 0x01C8 [0x66] LOAD_EXT_SCHEDULER_MAIN: Load scheduler "tlk0" with entities [EventEntity, EventEntity], work=0*
 62: 0x01D7 [0x1D] PRINT_EVENT_MESSAGE(message_id=6556*)
    → "I see you've made it back safely from your journey to Windurst and San d'Oria. This new mission should not be hard for an experienced adventurer like you."
 63: 0x01DA [0x23] WAIT_FOR_DIALOG_INTERACTION
 64: 0x01DB [0x1D] PRINT_EVENT_MESSAGE(message_id=6557*)
    → "The Mythril Musketeers are planning an offensive on the Quadav stronghold."
 65: 0x01DE [0x23] WAIT_FOR_DIALOG_INTERACTION
 66: 0x01DF [0x1D] PRINT_EVENT_MESSAGE(message_id=6558*)
    → "Adventurers, including yourself, have been asked to join them on this operation."
 67: 0x01E2 [0x23] WAIT_FOR_DIALOG_INTERACTION
 68: 0x01E3 [0x66] LOAD_EXT_SCHEDULER_MAIN: Load scheduler "ten0" with entities [EventEntity, EventEntity], work=0*
 69: 0x01F2 [0x1D] PRINT_EVENT_MESSAGE(message_id=6559*)
    → "You are to go meet Iron Eater, one of the Mythril Musketeers, to receive a full briefing."
 70: 0x01F5 [0x23] WAIT_FOR_DIALOG_INTERACTION
 71: 0x01F6 [0x01] GOTO 0x046A
 72: 0x01F9 [0x02] IF !(Work_Zone[0] == 11*) GOTO 0x0237
 73: 0x0201 [0x03] Work_Zone[9] = 563*
 74: 0x0206 [0x66] LOAD_EXT_SCHEDULER_MAIN: Load scheduler "tlk0" with entities [EventEntity, EventEntity], work=0*
 75: 0x0215 [0x1D] PRINT_EVENT_MESSAGE(message_id=6560*)
    → "The Gusgen Mines in the Konschtat Highlands have been dug to the bare rock and abandoned for some time..."
 76: 0x0218 [0x23] WAIT_FOR_DIALOG_INTERACTION
 77: 0x0219 [0x1D] PRINT_EVENT_MESSAGE(message_id=6561*)
    → "But lately, there have been reports that a rare ore can be found in them. No one has claimed this new vein yet."
 78: 0x021C [0x23] WAIT_FOR_DIALOG_INTERACTION
 79: 0x021D [0x1D] PRINT_EVENT_MESSAGE(message_id=6562*)
    → "You are to bring back a sample of the ore to confirm these reports. A Galka adventurer named Davyad should be able to help you. He is said to have acquired a chunk of the ore when he was there last."
 80: 0x0220 [0x23] WAIT_FOR_DIALOG_INTERACTION
 81: 0x0221 [0x66] LOAD_EXT_SCHEDULER_MAIN: Load scheduler "ten0" with entities [EventEntity, EventEntity], work=0*
 82: 0x0230 [0x1D] PRINT_EVENT_MESSAGE(message_id=6563*)
    → "The item that Davyad brought back was $7. That is what you should seek as well. Once you have the ore, hand them over to me or one of my colleagues."
 83: 0x0233 [0x23] WAIT_FOR_DIALOG_INTERACTION
 84: 0x0234 [0x01] GOTO 0x046A
 85: 0x0237 [0x02] IF !(Work_Zone[0] == 12*) GOTO 0x026C
 86: 0x023F [0x66] LOAD_EXT_SCHEDULER_MAIN: Load scheduler "tlk0" with entities [EventEntity, EventEntity], work=0*
 87: 0x024E [0x1D] PRINT_EVENT_MESSAGE(message_id=6565*)
    → "You have heard of Jeuno, have you not? The Bastokan government is currently looking for someone to send there, and your name is on the list of candidates."
 88: 0x0251 [0x23] WAIT_FOR_DIALOG_INTERACTION
 89: 0x0252 [0x1D] PRINT_EVENT_MESSAGE(message_id=6566*)
    → "The presidential aide, Sir Lucius himself, recommended you. It is a great honor--you should be proud!"
 90: 0x0255 [0x23] WAIT_FOR_DIALOG_INTERACTION
 91: 0x0256 [0x66] LOAD_EXT_SCHEDULER_MAIN: Load scheduler "ten0" with entities [EventEntity, EventEntity], work=0*
 92: 0x0265 [0x1D] PRINT_EVENT_MESSAGE(message_id=6567*)
    → "Sir Lucius wishes to see you as soon as possible. Go meet him in his office in the administrative section at the top of the Metalworks."
 93: 0x0268 [0x23] WAIT_FOR_DIALOG_INTERACTION
 94: 0x0269 [0x01] GOTO 0x046A
 95: 0x026C [0x02] IF !(Work_Zone[0] == 14*) GOTO 0x029D
 96: 0x0274 [0x66] LOAD_EXT_SCHEDULER_MAIN: Load scheduler "tlk0" with entities [EventEntity, EventEntity], work=0*
 97: 0x0283 [0x1D] PRINT_EVENT_MESSAGE(message_id=6568*)
    → "I have orders for you from the president himself. You must have heard already, but he wants you to go to Fei'Yin."
 98: 0x0286 [0x23] WAIT_FOR_DIALOG_INTERACTION
 99: 0x0287 [0x66] LOAD_EXT_SCHEDULER_MAIN: Load scheduler "ten0" with entities [EventEntity, EventEntity], work=0*
100: 0x0296 [0x1D] PRINT_EVENT_MESSAGE(message_id=6569*)
    → "Go speak to Sir Naji at the President's Office. He will show you in."
101: 0x0299 [0x23] WAIT_FOR_DIALOG_INTERACTION
102: 0x029A [0x01] GOTO 0x046A
103: 0x029D [0x02] IF !(Work_Zone[0] == 15*) GOTO 0x02CE
104: 0x02A5 [0x66] LOAD_EXT_SCHEDULER_MAIN: Load scheduler "tlk0" with entities [EventEntity, EventEntity], work=0*
105: 0x02B4 [0x1D] PRINT_EVENT_MESSAGE(message_id=6570*)
    → "So, it has finally come to this... You are to infiltrate the Kindred's main stronghold of Zvahl."
106: 0x02B7 [0x23] WAIT_FOR_DIALOG_INTERACTION
107: 0x02B8 [0x66] LOAD_EXT_SCHEDULER_MAIN: Load scheduler "ten0" with entities [EventEntity, EventEntity], work=0*
108: 0x02C7 [0x1D] PRINT_EVENT_MESSAGE(message_id=6571*)
    → "The president will brief you himself in his office. Good luck, adventurer!"
109: 0x02CA [0x23] WAIT_FOR_DIALOG_INTERACTION
110: 0x02CB [0x01] GOTO 0x046A
111: 0x02CE [0x02] IF !(Work_Zone[0] == 16*) GOTO 0x0303
112: 0x02D6 [0x66] LOAD_EXT_SCHEDULER_MAIN: Load scheduler "tlk0" with entities [EventEntity, EventEntity], work=0*
113: 0x02E5 [0x1D] PRINT_EVENT_MESSAGE(message_id=11650*)
    → "There has been some commotion in the Mines District near Ore Street. People are saying that a new Talekeeper has appeared."
114: 0x02E8 [0x23] WAIT_FOR_DIALOG_INTERACTION
115: 0x02E9 [0x1D] PRINT_EVENT_MESSAGE(message_id=11651*)
    → "It sounds fishy to me, but with the disappearance of their elder, Werei, anything could be possible. And the last thing we want is an uprising by the Galka."
116: 0x02EC [0x23] WAIT_FOR_DIALOG_INTERACTION
117: 0x02ED [0x66] LOAD_EXT_SCHEDULER_MAIN: Load scheduler "ten0" with entities [EventEntity, EventEntity], work=0*
118: 0x02FC [0x1D] PRINT_EVENT_MESSAGE(message_id=11652*)
    → "Go to Ore Street and talk to Medicine Eagle. He says he was there when the commotion started."
119: 0x02FF [0x23] WAIT_FOR_DIALOG_INTERACTION
120: 0x0300 [0x01] GOTO 0x046A
121: 0x0303 [0x02] IF !(Work_Zone[0] == 17*) GOTO 0x0338
122: 0x030B [0x66] LOAD_EXT_SCHEDULER_MAIN: Load scheduler "tlk0" with entities [EventEntity, EventEntity], work=0*
123: 0x031A [0x1D] PRINT_EVENT_MESSAGE(message_id=11653*)
    → "I assume an adventurer of your caliber has heard of Norg."
124: 0x031D [0x23] WAIT_FOR_DIALOG_INTERACTION
125: 0x031E [0x1D] PRINT_EVENT_MESSAGE(message_id=11654*)
    → "Well, the place is a haven for pirates. They even have ties with the Tenshodo. In any case, it's an area that cannot be looked upon lightly."
126: 0x0321 [0x23] WAIT_FOR_DIALOG_INTERACTION
127: 0x0322 [0x66] LOAD_EXT_SCHEDULER_MAIN: Load scheduler "ten0" with entities [EventEntity, EventEntity], work=0*
128: 0x0331 [0x1D] PRINT_EVENT_MESSAGE(message_id=11655*)
    → "That is why we want you to travel there as an emissary. Report to Sir Naji in the President's Office for details."
129: 0x0334 [0x23] WAIT_FOR_DIALOG_INTERACTION
130: 0x0335 [0x01] GOTO 0x046A
131: 0x0338 [0x02] IF !(Work_Zone[0] == 18*) GOTO 0x0369
132: 0x0340 [0x66] LOAD_EXT_SCHEDULER_MAIN: Load scheduler "tlk0" with entities [EventEntity, EventEntity], work=0*
133: 0x034F [0x1D] PRINT_EVENT_MESSAGE(message_id=11656*)
    → "Currently, Chief Engineer Cid is conducting research on the architecture in Ro'Maeve near the Sanctuary of Zi'Tah. Your next mission is to travel there and assist him."
134: 0x0352 [0x23] WAIT_FOR_DIALOG_INTERACTION
135: 0x0353 [0x66] LOAD_EXT_SCHEDULER_MAIN: Load scheduler "ten0" with entities [EventEntity, EventEntity], work=0*
136: 0x0362 [0x1D] PRINT_EVENT_MESSAGE(message_id=11657*)
    → "Report to the Chief Engineer in the Metalworks for further details."
137: 0x0365 [0x23] WAIT_FOR_DIALOG_INTERACTION
138: 0x0366 [0x01] GOTO 0x046A
139: 0x0369 [0x02] IF !(Work_Zone[0] == 19*) GOTO 0x039A
140: 0x0371 [0x66] LOAD_EXT_SCHEDULER_MAIN: Load scheduler "tlk0" with entities [EventEntity, EventEntity], work=0*
141: 0x0380 [0x1D] PRINT_EVENT_MESSAGE(message_id=11658*)
    → "We are searching for an adventurer holding vital information dealing with a certain national investigation."
142: 0x0383 [0x23] WAIT_FOR_DIALOG_INTERACTION
143: 0x0384 [0x66] LOAD_EXT_SCHEDULER_MAIN: Load scheduler "ten0" with entities [EventEntity, EventEntity], work=0*
144: 0x0393 [0x1D] PRINT_EVENT_MESSAGE(message_id=11659*)
    → "The president himself has expressed great interest in this case. Proceed to the President's Office for the details of this mission."
145: 0x0396 [0x23] WAIT_FOR_DIALOG_INTERACTION
146: 0x0397 [0x01] GOTO 0x046A
147: 0x039A [0x02] IF !(Work_Zone[0] == 20*) GOTO 0x03CB
148: 0x03A2 [0x66] LOAD_EXT_SCHEDULER_MAIN: Load scheduler "tlk0" with entities [EventEntity, EventEntity], work=0*
149: 0x03B1 [0x1D] PRINT_EVENT_MESSAGE(message_id=11661*)
    → "It looks like Bastok is really going to begin an investigation of the Galka homeland of Altepa."
150: 0x03B4 [0x23] WAIT_FOR_DIALOG_INTERACTION
151: 0x03B5 [0x66] LOAD_EXT_SCHEDULER_MAIN: Load scheduler "ten0" with entities [EventEntity, EventEntity], work=0*
152: 0x03C4 [0x1D] PRINT_EVENT_MESSAGE(message_id=11662*)
    → "Your role in this investigation will have you traveling to the Quicksand Caves. Get the details of this mission from Iron Eater in the President's Office."
153: 0x03C7 [0x23] WAIT_FOR_DIALOG_INTERACTION
154: 0x03C8 [0x01] GOTO 0x046A
155: 0x03CB [0x02] IF !(Work_Zone[0] == 21*) GOTO 0x03FC
156: 0x03D3 [0x66] LOAD_EXT_SCHEDULER_MAIN: Load scheduler "tlk0" with entities [EventEntity, EventEntity], work=0*
157: 0x03E2 [0x1D] PRINT_EVENT_MESSAGE(message_id=11663*)
    → "As a continuation of Bastok's investigation of Altepa, this time you will be traveling to Zepwell Island."
158: 0x03E5 [0x23] WAIT_FOR_DIALOG_INTERACTION
159: 0x03E6 [0x66] LOAD_EXT_SCHEDULER_MAIN: Load scheduler "ten0" with entities [EventEntity, EventEntity], work=0*
160: 0x03F5 [0x1D] PRINT_EVENT_MESSAGE(message_id=11664*)
    → "You will be carrying out your part of the investigation in the Kuftal Tunnel, which connects Cape Teriggan to Zepwell Island. Report to Drake Fang in the Zeruhn Mines for details."
161: 0x03F8 [0x23] WAIT_FOR_DIALOG_INTERACTION
162: 0x03F9 [0x01] GOTO 0x046A
163: 0x03FC [0x02] IF !(Work_Zone[0] == 22*) GOTO 0x0431
164: 0x0404 [0x66] LOAD_EXT_SCHEDULER_MAIN: Load scheduler "tlk0" with entities [EventEntity, EventEntity], work=0*
165: 0x0413 [0x1D] PRINT_EVENT_MESSAGE(message_id=11665*)
    → "Senator Alois has asked for your assistance."
166: 0x0416 [0x23] WAIT_FOR_DIALOG_INTERACTION
167: 0x0417 [0x1D] PRINT_EVENT_MESSAGE(message_id=11666*)
    → "It is something about an expedition to Vollbow..."
168: 0x041A [0x23] WAIT_FOR_DIALOG_INTERACTION
169: 0x041B [0x66] LOAD_EXT_SCHEDULER_MAIN: Load scheduler "ten0" with entities [EventEntity, EventEntity], work=0*
170: 0x042A [0x1D] PRINT_EVENT_MESSAGE(message_id=11667*)
    → "I just hope he's not asking you to go get lizard eggs again... Wait, you didn't hear me say that."
171: 0x042D [0x23] WAIT_FOR_DIALOG_INTERACTION
172: 0x042E [0x01] GOTO 0x046A
173: 0x0431 [0x02] IF !(Work_Zone[0] == 23*) GOTO 0x046A
174: 0x0439 [0x66] LOAD_EXT_SCHEDULER_MAIN: Load scheduler "tlk0" with entities [EventEntity, EventEntity], work=0*
175: 0x0448 [0x1D] PRINT_EVENT_MESSAGE(message_id=11668*)
    → "Recently, an adventurer who was sent to investigate the Northlands has been attacked."
176: 0x044B [0x23] WAIT_FOR_DIALOG_INTERACTION
177: 0x044C [0x1D] PRINT_EVENT_MESSAGE(message_id=11669*)
    → "According to her report, the attacker resembled the dark knight Zeid."
178: 0x044F [0x23] WAIT_FOR_DIALOG_INTERACTION
179: 0x0450 [0x1D] PRINT_EVENT_MESSAGE(message_id=11670*)
    → "The strange thing is that the attacker passed a letter to the adventurer before letting her go. Now, this letter's content is causing quite a commotion in the President's Office."
180: 0x0453 [0x23] WAIT_FOR_DIALOG_INTERACTION
181: 0x0454 [0x66] LOAD_EXT_SCHEDULER_MAIN: Load scheduler "ten0" with entities [EventEntity, EventEntity], work=0*
182: 0x0463 [0x1D] PRINT_EVENT_MESSAGE(message_id=11671*)
    → "You have been asked to report directly to President Karst for further details."
183: 0x0466 [0x23] WAIT_FOR_DIALOG_INTERACTION
184: 0x0467 [0x01] GOTO 0x046A

SUBROUTINE_046A:
185: 0x046A [0x03] Work_Zone[1] = Work_Zone[0]
186: 0x046F [0x02] IF !(Work_Zone[1] == 31*) GOTO 0x048F
187: 0x0477 [0x24] CREATE_DIALOG(message_id=6526*, default_option=0*, option_flags=0*)
    → "Will you accept this mission? [Yes./No.]"
188: 0x047E [0x25] WAIT_DIALOG_SELECT()
189: 0x047F [0x02] IF !(Work_Zone[0] == 1*) GOTO 0x048F
190: 0x0487 [0x03] Work_Zone[1] = 31*
191: 0x048C [0x01] GOTO 0x048F

SUBROUTINE_048F:
192: 0x048F [0x21] END_EVENT
193: 0x0490 [0x00] END_REQSTACK()
```

### Event 1002

#### Metadata

| Field        | Value    |
|--------------|----------|
| Entrypoint   | 0x0491   |
| Data Size    | 11 bytes |
| Instructions | 5        |

```
      00 01 02 03 04 05 06 07  08 09 0A 0B 0C 0D 0E 0F
      -- -- -- -- -- -- -- --  -- -- -- -- -- -- -- --
0490:    1E F0 FF FF 7F 1D 5E  80 23 21 00               ......^.#!.    
```

#### Opcodes

```
  0: 0x0491 [0x1E] EventEntity looks at LocalPlayer and starts talking
  1: 0x0496 [0x1D] PRINT_EVENT_MESSAGE(message_id=6521*)
    → "You cannot undertake two missions at the same time. Finish the one you are on now before asking for a new one."
  2: 0x0499 [0x23] WAIT_FOR_DIALOG_INTERACTION
  3: 0x049A [0x21] END_EVENT
  4: 0x049B [0x00] END_REQSTACK()
```

### Event 1003

#### Metadata

| Field        | Value    |
|--------------|----------|
| Entrypoint   | 0x049C   |
| Data Size    | 11 bytes |
| Instructions | 5        |

```
      00 01 02 03 04 05 06 07  08 09 0A 0B 0C 0D 0E 0F
      -- -- -- -- -- -- -- --  -- -- -- -- -- -- -- --
0490:                                      1E F0 FF FF              ....
04A0: 7F 1D 5F 80 23 21 00                              .._.#!.         
```

#### Opcodes

```
  0: 0x049C [0x1E] EventEntity looks at LocalPlayer and starts talking
  1: 0x04A1 [0x1D] PRINT_EVENT_MESSAGE(message_id=6520*)
    → "I am in charge of assigning missions, but I am only allowed to do so to those whose allegiance is to Bastok."
  2: 0x04A4 [0x23] WAIT_FOR_DIALOG_INTERACTION
  3: 0x04A5 [0x21] END_EVENT
  4: 0x04A6 [0x00] END_REQSTACK()
```

### Event 1004

#### Metadata

| Field        | Value     |
|--------------|-----------|
| Entrypoint   | 0x04A7    |
| Data Size    | 122 bytes |
| Instructions | 27        |

```
      00 01 02 03 04 05 06 07  08 09 0A 0B 0C 0D 0E 0F
      -- -- -- -- -- -- -- --  -- -- -- -- -- -- -- --
04A0:                      42  20 01 1E F0 FF FF 7F 1D         B .......
04B0: 60 80 23 66 02 80 F8 FF  FF 7F F8 FF FF 7F 74 6C  `.#f..........tl
04C0: 6B 30 1D 61 80 23 1D 62  80 23 66 02 80 F8 FF FF  k0.a.#.b.#f.....
04D0: 7F F8 FF FF 7F 74 65 6E  30 1D 63 80 23 66 02 80  .....ten0.c.#f..
04E0: F8 FF FF 7F F8 FF FF 7F  74 6C 6B 31 1D 64 80 23  ........tlk1.d.#
04F0: 1D 65 80 23 1D 66 80 23  66 02 80 F8 FF FF 7F F8  .e.#.f.#f.......
0500: FF FF 7F 74 65 6E 31 1D  67 80 23 7D 16 80 45 68  ...ten1.g.#}..Eh
0510: 80 F0 FF FF 7F F0 FF FF  7F 71 73 74 63 02 80 21  .........qstc..!
0520: 00                                                .               
```

#### Opcodes

```
  0: 0x04A7 [0x42] SET_CLI_EVENT_CANCEL_DATA()
  1: 0x04A8 [0x20] SET_CLI_EVENT_UC_FLAG: Lock player control
  2: 0x04AA [0x1E] EventEntity looks at LocalPlayer and starts talking
  3: 0x04AF [0x1D] PRINT_EVENT_MESSAGE(message_id=6539*)
    → "Good, you've brought all four parts of the doll."
  4: 0x04B2 [0x23] WAIT_FOR_DIALOG_INTERACTION
  5: 0x04B3 [0x66] LOAD_EXT_SCHEDULER_MAIN: Load scheduler "tlk0" with entities [EventEntity, EventEntity], work=0*
  6: 0x04C2 [0x1D] PRINT_EVENT_MESSAGE(message_id=6540*)
    → "I am raising your rank to 2 for completing this mission. Congratulations."
  7: 0x04C5 [0x23] WAIT_FOR_DIALOG_INTERACTION
  8: 0x04C6 [0x1D] PRINT_EVENT_MESSAGE(message_id=6541*)
    → "If you've been to the Palborough Mines, you must know now the serious nature of the threat these beastmen pose to our civilization."
  9: 0x04C9 [0x23] WAIT_FOR_DIALOG_INTERACTION
 10: 0x04CA [0x66] LOAD_EXT_SCHEDULER_MAIN: Load scheduler "ten0" with entities [EventEntity, EventEntity], work=0*
 11: 0x04D9 [0x1D] PRINT_EVENT_MESSAGE(message_id=6542*)
    → "As a Bastoker, you are expected to take on more missions and go on conquests to preserve Bastok's brilliant future!"
 12: 0x04DC [0x23] WAIT_FOR_DIALOG_INTERACTION
 13: 0x04DD [0x66] LOAD_EXT_SCHEDULER_MAIN: Load scheduler "tlk1" with entities [EventEntity, EventEntity], work=0*
 14: 0x04EC [0x1D] PRINT_EVENT_MESSAGE(message_id=6543*)
    → "But I cannot give you a new mission at this time."
 15: 0x04EF [0x23] WAIT_FOR_DIALOG_INTERACTION
 16: 0x04F0 [0x1D] PRINT_EVENT_MESSAGE(message_id=6544*)
    → "You need to collect rank points before taking on new missions."
 17: 0x04F3 [0x23] WAIT_FOR_DIALOG_INTERACTION
 18: 0x04F4 [0x1D] PRINT_EVENT_MESSAGE(message_id=6545*)
    → "You can receive rank points by participating in conquests and donating the crystals you acquire to guards, or by undertaking missions you've previously completed."
 19: 0x04F7 [0x23] WAIT_FOR_DIALOG_INTERACTION
 20: 0x04F8 [0x66] LOAD_EXT_SCHEDULER_MAIN: Load scheduler "ten1" with entities [EventEntity, EventEntity], work=0*
 21: 0x0507 [0x1D] PRINT_EVENT_MESSAGE(message_id=6546*)
    → "Ask the High Guard near the gatehouse if you wish to hear more about conquests."
 22: 0x050A [0x23] WAIT_FOR_DIALOG_INTERACTION
 23: 0x050B [0x7D] LOAD_START_SCHEDULER_PLAYER: Load scheduler with animation_id 32790
 24: 0x050E [0x45] LOAD_SCHEDULED_TASK: Load scheduler "qstc" with entities [LocalPlayer, LocalPlayer], work=[201*, 0*]
 25: 0x051F [0x21] END_EVENT
 26: 0x0520 [0x00] END_REQSTACK()
```

### Event 1005

#### Metadata

| Field        | Value    |
|--------------|----------|
| Entrypoint   | 0x0521   |
| Data Size    | 31 bytes |
| Instructions | 8        |

```
      00 01 02 03 04 05 06 07  08 09 0A 0B 0C 0D 0E 0F
      -- -- -- -- -- -- -- --  -- -- -- -- -- -- -- --
0520:    42 20 01 1E F0 FF FF  7F 1D 60 80 23 45 68 80   B .......`.#Eh.
0530: F0 FF FF 7F F0 FF FF 7F  71 73 74 63 02 80 21 00  ........qstc..!.
```

#### Opcodes

```
  0: 0x0521 [0x42] SET_CLI_EVENT_CANCEL_DATA()
  1: 0x0522 [0x20] SET_CLI_EVENT_UC_FLAG: Lock player control
  2: 0x0524 [0x1E] EventEntity looks at LocalPlayer and starts talking
  3: 0x0529 [0x1D] PRINT_EVENT_MESSAGE(message_id=6539*)
    → "Good, you've brought all four parts of the doll."
  4: 0x052C [0x23] WAIT_FOR_DIALOG_INTERACTION
  5: 0x052D [0x45] LOAD_SCHEDULED_TASK: Load scheduler "qstc" with entities [LocalPlayer, LocalPlayer], work=[201*, 0*]
  6: 0x053E [0x21] END_EVENT
  7: 0x053F [0x00] END_REQSTACK()
```

### Event 1006

#### Metadata

| Field        | Value    |
|--------------|----------|
| Entrypoint   | 0x0540   |
| Data Size    | 36 bytes |
| Instructions | 9        |

```
      00 01 02 03 04 05 06 07  08 09 0A 0B 0C 0D 0E 0F
      -- -- -- -- -- -- -- --  -- -- -- -- -- -- -- --
0540: 42 20 01 1E F0 FF FF 7F  03 09 10 31 80 1D 69 80  B .........1..i.
0550: 23 45 68 80 F0 FF FF 7F  F0 FF FF 7F 71 73 74 63  #Eh.........qstc
0560: 02 80 21 00                                       ..!.            
```

#### Opcodes

```
  0: 0x0540 [0x42] SET_CLI_EVENT_CANCEL_DATA()
  1: 0x0541 [0x20] SET_CLI_EVENT_UC_FLAG: Lock player control
  2: 0x0543 [0x1E] EventEntity looks at LocalPlayer and starts talking
  3: 0x0548 [0x03] Work_Zone[9] = 563*
  4: 0x054D [0x1D] PRINT_EVENT_MESSAGE(message_id=6564*)
    → "You have succeeded in bringing back $7. Good work, adventurer. This discovery may help rejuvenate Bastok's economy!"
  5: 0x0550 [0x23] WAIT_FOR_DIALOG_INTERACTION
  6: 0x0551 [0x45] LOAD_SCHEDULED_TASK: Load scheduler "qstc" with entities [LocalPlayer, LocalPlayer], work=[201*, 0*]
  7: 0x0562 [0x21] END_EVENT
  8: 0x0563 [0x00] END_REQSTACK()
```

### Event 1007

#### Metadata

| Field        | Value    |
|--------------|----------|
| Entrypoint   | 0x0564   |
| Data Size    | 11 bytes |
| Instructions | 5        |

```
      00 01 02 03 04 05 06 07  08 09 0A 0B 0C 0D 0E 0F
      -- -- -- -- -- -- -- --  -- -- -- -- -- -- -- --
0560:             1E F0 FF FF  7F 1D 6A 80 23 21 00         ......j.#!. 
```

#### Opcodes

```
  0: 0x0564 [0x1E] EventEntity looks at LocalPlayer and starts talking
  1: 0x0569 [0x1D] PRINT_EVENT_MESSAGE(message_id=6572*)
    → "Ah, you have returned from Jeuno. Go to the President's Office right away. Sir Naji will show you in."
  2: 0x056C [0x23] WAIT_FOR_DIALOG_INTERACTION
  3: 0x056D [0x21] END_EVENT
  4: 0x056E [0x00] END_REQSTACK()
```

### Event 1011

#### Metadata

| Field        | Value    |
|--------------|----------|
| Entrypoint   | 0x056F   |
| Data Size    | 16 bytes |
| Instructions | 6        |

```
      00 01 02 03 04 05 06 07  08 09 0A 0B 0C 0D 0E 0F
      -- -- -- -- -- -- -- --  -- -- -- -- -- -- -- --
0560:                                               03                 .
0570: 09 10 6B 80 1E F0 FF FF  7F 1D 6C 80 23 21 00     ..k.......l.#!. 
```

#### Opcodes

```
  0: 0x056F [0x03] Work_Zone[9] = 290*
  1: 0x0574 [0x1E] EventEntity looks at LocalPlayer and starts talking
  2: 0x0579 [0x1D] PRINT_EVENT_MESSAGE(message_id=11660*)
    → "You've been ordered by the president to deliver that $3. When you have completed that task, you can return here for your next mission."
  3: 0x057C [0x23] WAIT_FOR_DIALOG_INTERACTION
  4: 0x057D [0x21] END_EVENT
  5: 0x057E [0x00] END_REQSTACK()
```

### Event 1008

#### Metadata

| Field        | Value     |
|--------------|-----------|
| Entrypoint   | 0x057F    |
| Data Size    | 226 bytes |
| Instructions | 35        |

```
      00 01 02 03 04 05 06 07  08 09 0A 0B 0C 0D 0E 0F
      -- -- -- -- -- -- -- --  -- -- -- -- -- -- -- --
0570:                                               1A                 .
0580: 15 0A 1D 60 80 23 66 02  80 F8 FF FF 7F F8 FF FF  ...`.#f.........
0590: 7F 74 6C 6B 30 1D 61 80  23 1D 62 80 23 66 02 80  .tlk0.a.#.b.#f..
05A0: F8 FF FF 7F F8 FF FF 7F  74 65 6E 30 1D 63 80 23  ........ten0.c.#
05B0: 45 6D 80 F0 FF FF 7F F0  FF FF 7F 68 73 31 34 02  Em.........hs14.
05C0: 80 66 02 80 F8 FF FF 7F  F8 FF FF 7F 74 6C 6B 31  .f..........tlk1
05D0: 1D 64 80 23 1D 65 80 23  1D 66 80 23 45 6D 80 F0  .d.#.e.#.f.#Em..
05E0: FF FF 7F F0 FF FF 7F 68  73 31 35 02 80 66 02 80  .......hs15..f..
05F0: F8 FF FF 7F F8 FF FF 7F  74 65 6E 31 1D 67 80 23  ........ten1.g.#
0600: 45 6D 80 F0 FF FF 7F F0  FF FF 7F 68 73 31 36 02  Em.........hs16.
0610: 80 7D 16 80 55 6D 80 F0  FF FF 7F F0 FF FF 7F 68  .}..Um.........h
0620: 73 31 36 1A A6 06 45 68  80 F0 FF FF 7F F0 FF FF  s16...Eh........
0630: 7F 71 73 74 63 02 80 1A  B3 0A 52 6D 80 F0 FF FF  .qstc.....Rm....
0640: 7F F0 FF FF 7F 68 73 32  31 1C 0E 80 46 00 45 6E  .....hs21...F.En
0650: 80 F0 FF FF 7F F0 FF FF  7F 66 64 69 32 02 80 21  .........fdi2..!
0660: 00                                                .               
```

#### Opcodes

```
  0: 0x057F [0x1A] CALL_SUBROUTINE(address=0x0A15)
  1: 0x0582 [0x1D] PRINT_EVENT_MESSAGE(message_id=6539*)
    → "Good, you've brought all four parts of the doll."
  2: 0x0585 [0x23] WAIT_FOR_DIALOG_INTERACTION
  3: 0x0586 [0x66] LOAD_EXT_SCHEDULER_MAIN: Load scheduler "tlk0" with entities [EventEntity, EventEntity], work=0*
  4: 0x0595 [0x1D] PRINT_EVENT_MESSAGE(message_id=6540*)
    → "I am raising your rank to 2 for completing this mission. Congratulations."
  5: 0x0598 [0x23] WAIT_FOR_DIALOG_INTERACTION
  6: 0x0599 [0x1D] PRINT_EVENT_MESSAGE(message_id=6541*)
    → "If you've been to the Palborough Mines, you must know now the serious nature of the threat these beastmen pose to our civilization."
  7: 0x059C [0x23] WAIT_FOR_DIALOG_INTERACTION
  8: 0x059D [0x66] LOAD_EXT_SCHEDULER_MAIN: Load scheduler "ten0" with entities [EventEntity, EventEntity], work=0*
  9: 0x05AC [0x1D] PRINT_EVENT_MESSAGE(message_id=6542*)
    → "As a Bastoker, you are expected to take on more missions and go on conquests to preserve Bastok's brilliant future!"
 10: 0x05AF [0x23] WAIT_FOR_DIALOG_INTERACTION
 11: 0x05B0 [0x45] LOAD_SCHEDULED_TASK: Load scheduler "hs14" with entities [LocalPlayer, LocalPlayer], work=[215*, 0*]
 12: 0x05C1 [0x66] LOAD_EXT_SCHEDULER_MAIN: Load scheduler "tlk1" with entities [EventEntity, EventEntity], work=0*
 13: 0x05D0 [0x1D] PRINT_EVENT_MESSAGE(message_id=6543*)
    → "But I cannot give you a new mission at this time."
 14: 0x05D3 [0x23] WAIT_FOR_DIALOG_INTERACTION
 15: 0x05D4 [0x1D] PRINT_EVENT_MESSAGE(message_id=6544*)
    → "You need to collect rank points before taking on new missions."
 16: 0x05D7 [0x23] WAIT_FOR_DIALOG_INTERACTION
 17: 0x05D8 [0x1D] PRINT_EVENT_MESSAGE(message_id=6545*)
    → "You can receive rank points by participating in conquests and donating the crystals you acquire to guards, or by undertaking missions you've previously completed."
 18: 0x05DB [0x23] WAIT_FOR_DIALOG_INTERACTION
 19: 0x05DC [0x45] LOAD_SCHEDULED_TASK: Load scheduler "hs15" with entities [LocalPlayer, LocalPlayer], work=[215*, 0*]
 20: 0x05ED [0x66] LOAD_EXT_SCHEDULER_MAIN: Load scheduler "ten1" with entities [EventEntity, EventEntity], work=0*
 21: 0x05FC [0x1D] PRINT_EVENT_MESSAGE(message_id=6546*)
    → "Ask the High Guard near the gatehouse if you wish to hear more about conquests."
 22: 0x05FF [0x23] WAIT_FOR_DIALOG_INTERACTION
 23: 0x0600 [0x45] LOAD_SCHEDULED_TASK: Load scheduler "hs16" with entities [LocalPlayer, LocalPlayer], work=[215*, 0*]
 24: 0x0611 [0x7D] LOAD_START_SCHEDULER_PLAYER: Load scheduler with animation_id 32790
 25: 0x0614 [0x55] WAIT_LOAD_SCHEDULER: Wait for scheduler "hs16" with entities [LocalPlayer, LocalPlayer], work=215*
 26: 0x0623 [0x1A] CALL_SUBROUTINE(address=0x06A6)
 27: 0x0626 [0x45] LOAD_SCHEDULED_TASK: Load scheduler "qstc" with entities [LocalPlayer, LocalPlayer], work=[201*, 0*]
 28: 0x0637 [0x1A] CALL_SUBROUTINE(address=0x0AB3)
 29: 0x063A [0x52] END_LOAD_SCHEDULER: End scheduler "hs21" with entities [LocalPlayer, LocalPlayer], work=215*
 30: 0x0649 [0x1C] WAIT(1* ticks)
 31: 0x064C [0x46] CAMERA_CONTROL: Restore default settings
 32: 0x064E [0x45] LOAD_SCHEDULED_TASK: Load scheduler "fdi2" with entities [LocalPlayer, LocalPlayer], work=[200*, 0*]
 33: 0x065F [0x21] END_EVENT
 34: 0x0660 [0x00] END_REQSTACK()
```

### Event 1009

#### Metadata

| Field        | Value     |
|--------------|-----------|
| Entrypoint   | 0x0661    |
| Data Size    | 429 bytes |
| Instructions | 63        |

```
      00 01 02 03 04 05 06 07  08 09 0A 0B 0C 0D 0E 0F
      -- -- -- -- -- -- -- --  -- -- -- -- -- -- -- --
0660:    1A 15 0A 1D 60 80 23  1A A6 06 45 68 80 F0 FF   ....`.#...Eh...
0670: FF 7F F0 FF FF 7F 71 73  74 63 02 80 1A B3 0A 52  ......qstc.....R
0680: 6D 80 F0 FF FF 7F F0 FF  FF 7F 68 73 32 31 1C 0E  m.........hs21..
0690: 80 46 00 45 6E 80 F0 FF  FF 7F F0 FF FF 7F 66 64  .F.En.........fd
06A0: 69 32 02 80 21 00 5B 6F  80 6C A0 0E 01 6C A0 0E  i2..!.[o.l...l..
06B0: 01 00 FE FE FE 2B 6C A0  0E 01 70 80 23 45 6D 80  .....+l...p.#Em.
06C0: F0 FF FF 7F F0 FF FF 7F  68 73 31 37 02 80 27 10  ........hs17..'.
06D0: 6C A0 0E 01 07 79 00 F8  FF FF 7F 6C A0 0E 01 27  l....y.....l...'
06E0: 10 F0 FF FF 7F 21 1C 71  80 32 3D 80 1F 00 72 80  .....!.q.2=...r.
06F0: 73 80 07 80 1F 01 2B 06  A0 0E 01 74 80 23 2A 10  s.....+....t.#*.
0700: 6C A0 0E 01 2B 6C A0 0E  01 75 80 23 45 6D 80 F0  l...+l...u.#Em..
0710: FF FF 7F F0 FF FF 7F 68  73 31 38 02 80 66 16 80  .......hs18..f..
0720: F8 FF FF 7F F8 FF FF 7F  6B 62 61 30 2B 06 A0 0E  ........kba0+...
0730: 01 76 80 23 2B 6C A0 0E  01 77 80 23 2B 06 A0 0E  .v.#+l...w.#+...
0740: 01 78 80 23 6E 6C A0 0E  01 79 80 99 6C A0 0E 01  .x.#nl...y..l...
0750: 1C 28 80 66 16 80 F8 FF  FF 7F F8 FF FF 7F 6B 62  .(.f..........kb
0760: 61 31 2B 6C A0 0E 01 7A  80 23 1C 3D 80 66 16 80  a1+l...z.#.=.f..
0770: F8 FF FF 7F F8 FF FF 7F  6B 73 6B 30 2B 06 A0 0E  ........ksk0+...
0780: 01 7B 80 23 45 6D 80 F0  FF FF 7F F0 FF FF 7F 68  .{.#Em.........h
0790: 73 31 39 02 80 6E 6C A0  0E 01 7C 80 99 6C A0 0E  s19..nl...|..l..
07A0: 01 1C 3D 80 2B 6C A0 0E  01 7D 80 23 45 6D 80 F0  ..=.+l...}.#Em..
07B0: FF FF 7F F0 FF FF 7F 68  73 32 30 02 80 29 10 6C  .......hs20..).l
07C0: A0 0E 01 08 79 00 F0 FF  FF 7F 06 A0 0E 01 45 6D  ....y.........Em
07D0: 80 F0 FF FF 7F F0 FF FF  7F 68 73 32 31 02 80 66  .........hs21..f
07E0: 16 80 F8 FF FF 7F F8 FF  FF 7F 74 6C 64 30 2B 06  ..........tld0+.
07F0: A0 0E 01 7E 80 23 2B 06  A0 0E 01 7F 80 23 66 16  ...~.#+......#f.
0800: 80 F8 FF FF 7F F8 FF FF  7F 74 6C 64 31 1B        .........tld1.  
```

#### Opcodes

```
  0: 0x0661 [0x1A] CALL_SUBROUTINE(address=0x0A15)
  1: 0x0664 [0x1D] PRINT_EVENT_MESSAGE(message_id=6539*)
    → "Good, you've brought all four parts of the doll."
  2: 0x0667 [0x23] WAIT_FOR_DIALOG_INTERACTION
  3: 0x0668 [0x1A] CALL_SUBROUTINE(address=0x06A6)
  4: 0x066B [0x45] LOAD_SCHEDULED_TASK: Load scheduler "qstc" with entities [LocalPlayer, LocalPlayer], work=[201*, 0*]
  5: 0x067C [0x1A] CALL_SUBROUTINE(address=0x0AB3)
  6: 0x067F [0x52] END_LOAD_SCHEDULER: End scheduler "hs21" with entities [LocalPlayer, LocalPlayer], work=215*
  7: 0x068E [0x1C] WAIT(1* ticks)
  8: 0x0691 [0x46] CAMERA_CONTROL: Restore default settings
  9: 0x0693 [0x45] LOAD_SCHEDULED_TASK: Load scheduler "fdi2" with entities [LocalPlayer, LocalPlayer], work=[200*, 0*]
 10: 0x06A4 [0x21] END_EVENT
 11: 0x06A5 [0x00] END_REQSTACK()

SUBROUTINE_06A6:
 12: 0x06A6 [0x5B] LOAD_EXT_SCHEDULER: Load scheduler 0xFEFEFE00 with entities [Iron Eater (ID: 17735788/0x010EA06C), Iron Eater (ID: 17735788/0x010EA06C)], work=69*
 13: 0x06B5 [0x2B] Iron Eater (ID: 17735788/0x010EA06C) [11482*]:
    → "Welcome back. How was your battle with the Quadav?"
 14: 0x06BC [0x23] WAIT_FOR_DIALOG_INTERACTION
 15: 0x06BD [0x45] LOAD_SCHEDULED_TASK: Load scheduler "hs17" with entities [LocalPlayer, LocalPlayer], work=[215*, 0*]
 16: 0x06CE [0x27] REQ_SET(priority=0x10, entity_id=Iron Eater (ID: 17735788/0x010EA06C), tag_num=0x07)
 17: 0x06D5 [0x79] EventEntity looks at Iron Eater (ID: 17735788/0x010EA06C) (Basic look)
 18: 0x06DF [0x27] REQ_SET(priority=0x10, entity_id=LocalPlayer, tag_num=0x21)
 19: 0x06E6 [0x1C] WAIT(45* ticks)
 20: 0x06E9 [0x32] ExtData[1]->MainSpeed = 15* * 0.1
 21: 0x06EC [0x1F] MOVE_ENTITY: EventEntity moves to X=-9.138*, Z=-123.283*, Y=-0.999*
 22: 0x06F4 [0x1F] MOVE_ENTITY: Update entity position (mode=1)
 23: 0x06F6 [0x2B] Rashid (ID: 17735686/0x010EA006) [11483*]:
    → "S-Sir Iron Eater! What brings you to this area?"
 24: 0x06FD [0x23] WAIT_FOR_DIALOG_INTERACTION
 25: 0x06FE [0x2A] GET_REQ_LEVEL(level=16, entity_id=Iron Eater (ID: 17735788/0x010EA06C))
 26: 0x0704 [0x2B] Iron Eater (ID: 17735788/0x010EA06C) [11484*]:
    → "So, what is the situation with the Mines District?"
 27: 0x070B [0x23] WAIT_FOR_DIALOG_INTERACTION
 28: 0x070C [0x45] LOAD_SCHEDULED_TASK: Load scheduler "hs18" with entities [LocalPlayer, LocalPlayer], work=[215*, 0*]
 29: 0x071D [0x66] LOAD_EXT_SCHEDULER_MAIN: Load scheduler "kba0" with entities [EventEntity, EventEntity], work=2*
 30: 0x072C [0x2B] Rashid (ID: 17735686/0x010EA006) [11485*]:
    → "Sir! Nothing out of the ordinary, sir!"
 31: 0x0733 [0x23] WAIT_FOR_DIALOG_INTERACTION
 32: 0x0734 [0x2B] Iron Eater (ID: 17735788/0x010EA06C) [11486*]:
    → "Spare me the textbook answers. That is not what I asked. You know what I speak of... The disappearance of Werei."
 33: 0x073B [0x23] WAIT_FOR_DIALOG_INTERACTION
 34: 0x073C [0x2B] Rashid (ID: 17735686/0x010EA006) [11487*]:
    → "Yes sir! I have heard that he was your mentor, and that he has undertaken his journey of rebirth... My condolences, S-- It is said that he took his life while on his journey of rebirth..."
 35: 0x0743 [0x23] WAIT_FOR_DIALOG_INTERACTION
 36: 0x0744 [0x6E] Iron Eater (ID: 17735788/0x010EA06C) uses emote 25*
 37: 0x074B [0x99] Wait for Iron Eater (ID: 17735788/0x010EA06C) animation to complete
 38: 0x0750 [0x1C] WAIT(5* ticks)
 39: 0x0753 [0x66] LOAD_EXT_SCHEDULER_MAIN: Load scheduler "kba1" with entities [EventEntity, EventEntity], work=2*
 40: 0x0762 [0x2B] Iron Eater (ID: 17735788/0x010EA06C) [11488*]:
    → "I did not come here to be told what I already know! I am concerned with the fear of the residents along Ore street."
 41: 0x0769 [0x23] WAIT_FOR_DIALOG_INTERACTION
 42: 0x076A [0x1C] WAIT(15* ticks)
 43: 0x076D [0x66] LOAD_EXT_SCHEDULER_MAIN: Load scheduler "ksk0" with entities [EventEntity, EventEntity], work=2*
 44: 0x077C [0x2B] Rashid (ID: 17735686/0x010EA006) [11489*]:
    → "Yes sir! My apologies, sir! We will double our efforts to gather any information."
 45: 0x0783 [0x23] WAIT_FOR_DIALOG_INTERACTION
 46: 0x0784 [0x45] LOAD_SCHEDULED_TASK: Load scheduler "hs19" with entities [LocalPlayer, LocalPlayer], work=[215*, 0*]
 47: 0x0795 [0x6E] Iron Eater (ID: 17735788/0x010EA06C) uses emote 7*
 48: 0x079C [0x99] Wait for Iron Eater (ID: 17735788/0x010EA06C) animation to complete
 49: 0x07A1 [0x1C] WAIT(15* ticks)
 50: 0x07A4 [0x2B] Iron Eater (ID: 17735788/0x010EA06C) [11490*]:
    → "...Understood. I apologize for my temper."
 51: 0x07AB [0x23] WAIT_FOR_DIALOG_INTERACTION
 52: 0x07AC [0x45] LOAD_SCHEDULED_TASK: Load scheduler "hs20" with entities [LocalPlayer, LocalPlayer], work=[215*, 0*]
 53: 0x07BD [0x29] REQ_SET_WAIT(priority=0x10, entity_id=Iron Eater (ID: 17735788/0x010EA06C), tag_num=0x08)
 54: 0x07C4 [0x79] LocalPlayer looks at Rashid (ID: 17735686/0x010EA006) (Basic look)
 55: 0x07CE [0x45] LOAD_SCHEDULED_TASK: Load scheduler "hs21" with entities [LocalPlayer, LocalPlayer], work=[215*, 0*]
 56: 0x07DF [0x66] LOAD_EXT_SCHEDULER_MAIN: Load scheduler "tld0" with entities [EventEntity, EventEntity], work=2*
 57: 0x07EE [0x2B] Rashid (ID: 17735686/0x010EA006) [11491*]:
    → "For someone once known as the immovable rock, it is unusual to see him so angered..."
 58: 0x07F5 [0x23] WAIT_FOR_DIALOG_INTERACTION
 59: 0x07F6 [0x2B] Rashid (ID: 17735686/0x010EA006) [11492*]:
    → "Once a Galka, always a Galka. I guess they have a bond that we Humes will never understand."
 60: 0x07FD [0x23] WAIT_FOR_DIALOG_INTERACTION
 61: 0x07FE [0x66] LOAD_EXT_SCHEDULER_MAIN: Load scheduler "tld1" with entities [EventEntity, EventEntity], work=2*
 62: 0x080D [0x1B] RETURN
```

### Event 1010

#### Metadata

| Field        | Value      |
|--------------|------------|
| Entrypoint   | 0x080E     |
| Data Size    | 1235 bytes |
| Instructions | 88         |

```
      00 01 02 03 04 05 06 07  08 09 0A 0B 0C 0D 0E 0F
      -- -- -- -- -- -- -- --  -- -- -- -- -- -- -- --
0800:                                            1A 15                ..
0810: 0A 5B 80 80 16 A0 0E 01  16 A0 0E 01 00 FE FE FE  .[..............
0820: 66 6F 80 6C A0 0E 01 6C  A0 0E 01 00 FE FE FE 03  fo.l...l........
0830: 09 10 31 80 1D 69 80 23  45 6D 80 F0 FF FF 7F F0  ..1..i.#Em......
0840: FF FF 7F 68 73 32 32 02  80 79 00 F8 FF FF 7F 6C  ...hs22..y.....l
0850: A0 0E 01 1C 3D 80 27 10  6C A0 0E 01 09 2B 06 A0  ....=.'.l....+..
0860: 0E 01 81 80 23 27 10 F0  FF FF 7F 22 32 3A 80 1F  ....#'....."2:..
0870: 00 82 80 83 80 07 80 1F  01 2A 10 6C A0 0E 01 2B  .........*.l...+
0880: 6C A0 0E 01 84 80 23 66  16 80 F8 FF FF 7F F8 FF  l.....#f........
0890: FF 7F 6B 62 61 30 52 6D  80 F0 FF FF 7F F0 FF FF  ..kba0Rm........
08A0: 7F 68 73 32 32 45 6D 80  F0 FF FF 7F F0 FF FF 7F  .hs22Em.........
08B0: 68 73 32 33 02 80 2B 06  A0 0E 01 85 80 23 6E 6C  hs23..+......#nl
08C0: A0 0E 01 7C 80 99 6C A0  0E 01 1C 3D 80 2B 6C A0  ...|..l....=.+l.
08D0: 0E 01 86 80 23 66 16 80  F8 FF FF 7F F8 FF FF 7F  ....#f..........
08E0: 6B 62 61 31 45 6D 80 F0  FF FF 7F F0 FF FF 7F 68  kba1Em.........h
08F0: 73 32 34 02 80 27 10 6C  A0 0E 01 0A 29 10 16 A0  s24..'.l....)...
0900: 0E 01 08 52 6D 80 F0 FF  FF 7F F0 FF FF 7F 68 73  ...Rm.........hs
0910: 32 34 5B 80 80 16 A0 0E  01 16 A0 0E 01 74 6C 62  24[..........tlb
0920: 30 45 6D 80 F0 FF FF 7F  F0 FF FF 7F 68 73 32 35  0Em.........hs25
0930: 02 80 2B 16 A0 0E 01 87  80 23 2B 16 A0 0E 01 88  ..+......#+.....
0940: 80 23 5B 80 80 16 A0 0E  01 16 A0 0E 01 74 6C 62  .#[..........tlb
0950: 31 2B 16 A0 0E 01 89 80  23 66 6F 80 6C A0 0E 01  1+......#fo.l...
0960: 6C A0 0E 01 73 68 61 30  1C 3D 80 45 6D 80 F0 FF  l...sha0.=.Em...
0970: FF 7F F0 FF FF 7F 68 73  32 36 02 80 2B 6C A0 0E  ......hs26..+l..
0980: 01 8A 80 23 2B 6C A0 0E  01 8B 80 23 2B 6C A0 0E  ...#+l.....#+l..
0990: 01 8C 80 23 2B 16 A0 0E  01 8D 80 23 66 6F 80 6C  ...#+......#fo.l
09A0: A0 0E 01 6C A0 0E 01 73  68 61 31 52 6D 80 F0 FF  ...l...sha1Rm...
09B0: FF 7F F0 FF FF 7F 68 73  32 36 45 6D 80 F0 FF FF  ......hs26Em....
09C0: 7F F0 FF FF 7F 68 73 32  37 02 80 53 6C A0 0E 01  .....hs27..Sl...
09D0: 6C A0 0E 01 73 68 61 31  6E 6C A0 0E 01 0E 80 99  l...sha1nl......
09E0: 6C A0 0E 01 2B 6C A0 0E  01 8E 80 23 45 68 80 F0  l...+l.....#Eh..
09F0: FF FF 7F F0 FF FF 7F 71  73 74 63 02 80 1A B3 0A  .......qstc.....
0A00: 46 00 45 6E 80 F0 FF FF  7F F0 FF FF 7F 66 64 69  F.En.........fdi
0A10: 32 02 80 21 00 42 20 01  1A 71 0A 38 1E 80 46 01  2..!.B ..q.8..F.
0A20: 29 10 F0 FF FF 7F 20 66  02 80 F8 FF FF 7F F8 FF  )..... f........
0A30: FF 7F 00 FE FE FE 45 6D  80 F0 FF FF 7F F0 FF FF  ......Em........
0A40: 7F 68 73 31 33 02 80 1E  F0 FF FF 7F 1A 92 0A 1B  .hs13...........
0A50: 45 6E 80 F0 FF FF 7F F0  FF FF 7F 66 64 69 30 02  En.........fdi0.
0A60: 80 55 6E 80 F0 FF FF 7F  F0 FF FF 7F 66 64 69 30  .Un.........fdi0
0A70: 1B 45 6E 80 F0 FF FF 7F  F0 FF FF 7F 66 64 6F 30  .En.........fdo0
0A80: 02 80 55 6E 80 F0 FF FF  7F F0 FF FF 7F 66 64 6F  ..Un.........fdo
0A90: 30 1B 45 6E 80 F0 FF FF  7F F0 FF FF 7F 66 64 69  0.En.........fdi
0AA0: 31 02 80 55 6E 80 F0 FF  FF 7F F0 FF FF 7F 66 64  1..Un.........fd
0AB0: 69 31 1B 45 6E 80 F0 FF  FF 7F F0 FF FF 7F 66 64  i1.En.........fd
0AC0: 6F 31 02 80 55 6E 80 F0  FF FF 7F F0 FF FF 7F 66  o1..Un.........f
0AD0: 64 6F 31 1B 45 68 80 F0  FF FF 7F F0 FF FF 7F 77  do1.Eh.........w
0AE0: 68 69 31 02 80 55 68 80  F0 FF FF 7F F0 FF FF 7F  hi1..Uh.........
0AF0: 77 68 69 31 1B 45 68 80  F0 FF FF 7F F0 FF FF 7F  whi1.Eh.........
0B00: 77 68 6F 31 02 80 55 68  80 F0 FF FF 7F F0 FF FF  who1..Uh........
0B10: 7F 77 68 6F 31 1B 45 68  80 F0 FF FF 7F F0 FF FF  .who1.Eh........
0B20: 7F 77 68 6F 32 02 80 55  68 80 F0 FF FF 7F F0 FF  .who2..Uh.......
0B30: FF 7F 77 68 6F 32 1B 45  68 80 F0 FF FF 7F F0 FF  ..who2.Eh.......
0B40: FF 7F 77 68 6F 33 02 80  55 68 80 F0 FF FF 7F F0  ..who3..Uh......
0B50: FF FF 7F 77 68 6F 33 1B  62 0E 80 F0 FF FF 7F F0  ...who3.b.......
0B60: FF FF 7F 6D 61 69 6E 02  80 1C 71 80 45 6E 80 F0  ...main...q.En..
0B70: FF FF 7F F0 FF FF 7F 66  64 6F 31 02 80 55 6E 80  .......fdo1..Un.
0B80: F0 FF FF 7F F0 FF FF 7F  66 64 6F 31 1B 45 6E 80  ........fdo1.En.
0B90: F0 FF FF 7F F0 FF FF 7F  66 64 69 31 02 80 62 16  ........fdi1..b.
0BA0: 80 F0 FF FF 7F F0 FF FF  7F 6D 61 69 6E 02 80 1C  .........main...
0BB0: 8F 80 55 6E 80 F0 FF FF  7F F0 FF FF 7F 66 64 69  ..Un.........fdi
0BC0: 31 1B 45 6E 80 F0 FF FF  7F F0 FF FF 7F 62 6C 6F  1.En.........blo
0BD0: 6E 02 80 45 68 80 F0 FF  FF 7F F0 FF FF 7F 62 6C  n..Eh.........bl
0BE0: 6F 6E 02 80 1B 45 68 80  F0 FF FF 7F F0 FF FF 7F  on...Eh.........
0BF0: 77 68 69 30 02 80 55 68  80 F0 FF FF 7F F0 FF FF  whi0..Uh........
0C00: 7F 77 68 69 30 1B 45 68  80 F0 FF FF 7F F0 FF FF  .whi0.Eh........
0C10: 7F 77 68 6F 30 02 80 55  68 80 F0 FF FF 7F F0 FF  .who0..Uh.......
0C20: FF 7F 77 68 6F 30 1B 45  6D 80 F0 FF FF 7F F0 FF  ..who0.Em.......
0C30: FF 7F 65 66 6F 6E 02 80  55 6D 80 F0 FF FF 7F F0  ..efon..Um......
0C40: FF FF 7F 65 66 6F 6E 1B  45 6E 80 F0 FF FF 7F F0  ...efon.En......
0C50: FF FF 7F 66 64 69 73 02  80 1B 45 6E 80 F0 FF FF  ...fdis...En....
0C60: 7F F0 FF FF 7F 66 64 6F  73 02 80 55 6E 80 F0 FF  .....fdos..Un...
0C70: FF 7F F0 FF FF 7F 66 64  6F 73 1B 45 6E 80 F0 FF  ......fdos.En...
0C80: FF 7F F0 FF FF 7F 66 64  69 66 02 80 1B 45 6E 80  ......fdif...En.
0C90: F0 FF FF 7F F0 FF FF 7F  66 64 6F 66 02 80 55 6E  ........fdof..Un
0CA0: 80 F0 FF FF 7F F0 FF FF  7F 66 64 6F 66 1B 45 6E  .........fdof.En
0CB0: 80 F0 FF FF 7F F0 FF FF  7F 66 64 69 70 02 80 1B  .........fdip...
0CC0: 45 6E 80 F0 FF FF 7F F0  FF FF 7F 66 64 6F 70 02  En.........fdop.
0CD0: 80 55 6E 80 F0 FF FF 7F  F0 FF FF 7F 66 64 6F 70  .Un.........fdop
0CE0: 1B                                                .               
```

#### Opcodes

```
  0: 0x080E [0x1A] CALL_SUBROUTINE(address=0x0A15)
  1: 0x0811 [0x5B] LOAD_EXT_SCHEDULER: Load scheduler 0xFEFEFE00 with entities [Detzo (ID: 17735702/0x010EA016), Detzo (ID: 17735702/0x010EA016)], work=90*
  2: 0x0820 [0x66] LOAD_EXT_SCHEDULER_MAIN: Load scheduler 0xFEFEFE00 with entities [Iron Eater (ID: 17735788/0x010EA06C), Iron Eater (ID: 17735788/0x010EA06C)], work=69*
  3: 0x082F [0x03] Work_Zone[9] = 563*
  4: 0x0834 [0x1D] PRINT_EVENT_MESSAGE(message_id=6564*)
    → "You have succeeded in bringing back $7. Good work, adventurer. This discovery may help rejuvenate Bastok's economy!"
  5: 0x0837 [0x23] WAIT_FOR_DIALOG_INTERACTION
  6: 0x0838 [0x45] LOAD_SCHEDULED_TASK: Load scheduler "hs22" with entities [LocalPlayer, LocalPlayer], work=[215*, 0*]
  7: 0x0849 [0x79] EventEntity looks at Iron Eater (ID: 17735788/0x010EA06C) (Basic look)
  8: 0x0853 [0x1C] WAIT(15* ticks)
  9: 0x0856 [0x27] REQ_SET(priority=0x10, entity_id=Iron Eater (ID: 17735788/0x010EA06C), tag_num=0x09)
 10: 0x085D [0x2B] Rashid (ID: 17735686/0x010EA006) [11493*]:
    → "Sir Iron Eater!"
 11: 0x0864 [0x23] WAIT_FOR_DIALOG_INTERACTION
 12: 0x0865 [0x27] REQ_SET(priority=0x10, entity_id=LocalPlayer, tag_num=0x22)
 13: 0x086C [0x32] ExtData[1]->MainSpeed = 14* * 0.1
 14: 0x086F [0x1F] MOVE_ENTITY: EventEntity moves to X=-7.904*, Z=-123.027*, Y=-0.999*
 15: 0x0877 [0x1F] MOVE_ENTITY: Update entity position (mode=1)
 16: 0x0879 [0x2A] GET_REQ_LEVEL(level=16, entity_id=Iron Eater (ID: 17735788/0x010EA06C))
 17: 0x087F [0x2B] Iron Eater (ID: 17735788/0x010EA06C) [11494*]:
    → "Have you found anything? What is the situation in the Mines District?"
 18: 0x0886 [0x23] WAIT_FOR_DIALOG_INTERACTION
 19: 0x0887 [0x66] LOAD_EXT_SCHEDULER_MAIN: Load scheduler "kba0" with entities [EventEntity, EventEntity], work=2*
 20: 0x0896 [0x52] END_LOAD_SCHEDULER: End scheduler "hs22" with entities [LocalPlayer, LocalPlayer], work=215*
 21: 0x08A5 [0x45] LOAD_SCHEDULED_TASK: Load scheduler "hs23" with entities [LocalPlayer, LocalPlayer], work=[215*, 0*]
 22: 0x08B6 [0x2B] Rashid (ID: 17735686/0x010EA006) [11495*]:
    → "Sir! We continued our investigation into the state of the Galka in the Mines District and found that there is definitely a feeling of unrest among most inhabitants of the area. However, we feel that it has not escalated into a problematic situation."
 23: 0x08BD [0x23] WAIT_FOR_DIALOG_INTERACTION
 24: 0x08BE [0x6E] Iron Eater (ID: 17735788/0x010EA06C) uses emote 7*
 25: 0x08C5 [0x99] Wait for Iron Eater (ID: 17735788/0x010EA06C) animation to complete
 26: 0x08CA [0x1C] WAIT(15* ticks)
 27: 0x08CD [0x2B] Iron Eater (ID: 17735788/0x010EA06C) [11496*]:
    → "Understood..."
 28: 0x08D4 [0x23] WAIT_FOR_DIALOG_INTERACTION
 29: 0x08D5 [0x66] LOAD_EXT_SCHEDULER_MAIN: Load scheduler "kba1" with entities [EventEntity, EventEntity], work=2*
 30: 0x08E4 [0x45] LOAD_SCHEDULED_TASK: Load scheduler "hs24" with entities [LocalPlayer, LocalPlayer], work=[215*, 0*]
 31: 0x08F5 [0x27] REQ_SET(priority=0x10, entity_id=Iron Eater (ID: 17735788/0x010EA06C), tag_num=0x0A)
 32: 0x08FC [0x29] REQ_SET_WAIT(priority=0x10, entity_id=Detzo (ID: 17735702/0x010EA016), tag_num=0x08)
 33: 0x0903 [0x52] END_LOAD_SCHEDULER: End scheduler "hs24" with entities [LocalPlayer, LocalPlayer], work=215*
 34: 0x0912 [0x5B] LOAD_EXT_SCHEDULER: Load scheduler "tlb0" with entities [Detzo (ID: 17735702/0x010EA016), Detzo (ID: 17735702/0x010EA016)], work=90*
 35: 0x0921 [0x45] LOAD_SCHEDULED_TASK: Load scheduler "hs25" with entities [LocalPlayer, LocalPlayer], work=[215*, 0*]
 36: 0x0932 [0x2B] Detzo (ID: 17735702/0x010EA016) [11497*]:
    → "I can't believe it. Mister Iron Eater, how can you trust what that Hume is saying?"
 37: 0x0939 [0x23] WAIT_FOR_DIALOG_INTERACTION
 38: 0x093A [0x2B] Detzo (ID: 17735702/0x010EA016) [11498*]:
    → "Don't you see? You're our only hope! We have no Talekeeper, no dark knight, no Werei to help us work things out... Only you!"
 39: 0x0941 [0x23] WAIT_FOR_DIALOG_INTERACTION
 40: 0x0942 [0x5B] LOAD_EXT_SCHEDULER: Load scheduler "tlb1" with entities [Detzo (ID: 17735702/0x010EA016), Detzo (ID: 17735702/0x010EA016)], work=90*
 41: 0x0951 [0x2B] Detzo (ID: 17735702/0x010EA016) [11499*]:
    → "And what about Gumbah? He tries to act as if nothing happened, but I can tell he's really feeling down."
 42: 0x0958 [0x23] WAIT_FOR_DIALOG_INTERACTION
 43: 0x0959 [0x66] LOAD_EXT_SCHEDULER_MAIN: Load scheduler "sha0" with entities [Iron Eater (ID: 17735788/0x010EA06C), Iron Eater (ID: 17735788/0x010EA06C)], work=69*
 44: 0x0968 [0x1C] WAIT(15* ticks)
 45: 0x096B [0x45] LOAD_SCHEDULED_TASK: Load scheduler "hs26" with entities [LocalPlayer, LocalPlayer], work=[215*, 0*]
 46: 0x097C [0x2B] Iron Eater (ID: 17735788/0x010EA06C) [11500*]:
    → "I see... You and Gumbah may not know this, but Gumbah and Werei were good friends in their former lives."
 47: 0x0983 [0x23] WAIT_FOR_DIALOG_INTERACTION
 48: 0x0984 [0x2B] Iron Eater (ID: 17735788/0x010EA06C) [11501*]:
    → "Gumbah set out on his journey of rebirth before Werei did, but even with the loss of his memories, something drew him back to this town."
 49: 0x098B [0x23] WAIT_FOR_DIALOG_INTERACTION
 50: 0x098C [0x2B] Iron Eater (ID: 17735788/0x010EA06C) [11502*]:
    → "And so began their strange new relationship. So of course these new developments with Werei cannot be easy for Gumbah."
 51: 0x0993 [0x23] WAIT_FOR_DIALOG_INTERACTION
 52: 0x0994 [0x2B] Detzo (ID: 17735702/0x010EA016) [11503*]:
    → "I didn't know..."
 53: 0x099B [0x23] WAIT_FOR_DIALOG_INTERACTION
 54: 0x099C [0x66] LOAD_EXT_SCHEDULER_MAIN: Load scheduler "sha1" with entities [Iron Eater (ID: 17735788/0x010EA06C), Iron Eater (ID: 17735788/0x010EA06C)], work=69*
 55: 0x09AB [0x52] END_LOAD_SCHEDULER: End scheduler "hs26" with entities [LocalPlayer, LocalPlayer], work=215*
 56: 0x09BA [0x45] LOAD_SCHEDULED_TASK: Load scheduler "hs27" with entities [LocalPlayer, LocalPlayer], work=[215*, 0*]
 57: 0x09CB [0x53] WAIT_SCHEDULER_TASK: Wait for scheduler "sha1" with entities [Iron Eater (ID: 17735788/0x010EA06C), Iron Eater (ID: 17735788/0x010EA06C)]
 58: 0x09D8 [0x6E] Iron Eater (ID: 17735788/0x010EA06C) uses emote 1*
 59: 0x09DF [0x99] Wait for Iron Eater (ID: 17735788/0x010EA06C) animation to complete
 60: 0x09E4 [0x2B] Iron Eater (ID: 17735788/0x010EA06C) [11504*]:
    → "A mere Musketeer like myself is limited in the things he can do. However, I give you my word I will do anything I can to make things right."
 61: 0x09EB [0x23] WAIT_FOR_DIALOG_INTERACTION
 62: 0x09EC [0x45] LOAD_SCHEDULED_TASK: Load scheduler "qstc" with entities [LocalPlayer, LocalPlayer], work=[201*, 0*]
 63: 0x09FD [0x1A] CALL_SUBROUTINE(address=0x0AB3)
 64: 0x0A00 [0x46] CAMERA_CONTROL: Restore default settings
 65: 0x0A02 [0x45] LOAD_SCHEDULED_TASK: Load scheduler "fdi2" with entities [LocalPlayer, LocalPlayer], work=[200*, 0*]
 66: 0x0A13 [0x21] END_EVENT
 67: 0x0A14 [0x00] END_REQSTACK()

SUBROUTINE_0A15:
 68: 0x0A15 [0x42] SET_CLI_EVENT_CANCEL_DATA()
 69: 0x0A16 [0x20] SET_CLI_EVENT_UC_FLAG: Lock player control
 70: 0x0A18 [0x1A] CALL_SUBROUTINE(address=0x0A71)
 71: 0x0A1B [0x38] SET_CLIENT_EVENT_MODE(mode=3*)
 72: 0x0A1E [0x46] CAMERA_CONTROL: Disable user control
 73: 0x0A20 [0x29] REQ_SET_WAIT(priority=0x10, entity_id=LocalPlayer, tag_num=0x20)
 74: 0x0A27 [0x66] LOAD_EXT_SCHEDULER_MAIN: Load scheduler 0xFEFEFE00 with entities [EventEntity, EventEntity], work=0*
 75: 0x0A36 [0x45] LOAD_SCHEDULED_TASK: Load scheduler "hs13" with entities [LocalPlayer, LocalPlayer], work=[215*, 0*]
 76: 0x0A47 [0x1E] EventEntity looks at LocalPlayer and starts talking
 77: 0x0A4C [0x1A] CALL_SUBROUTINE(address=0x0A92)
 78: 0x0A4F [0x1B] RETURN

SUBROUTINE_0A71:
 79: 0x0A71 [0x45] LOAD_SCHEDULED_TASK: Load scheduler "fdo0" with entities [LocalPlayer, LocalPlayer], work=[200*, 0*]
 80: 0x0A82 [0x55] WAIT_LOAD_SCHEDULER: Wait for scheduler "fdo0" with entities [LocalPlayer, LocalPlayer], work=200*
 81: 0x0A91 [0x1B] RETURN

SUBROUTINE_0A92:
 82: 0x0A92 [0x45] LOAD_SCHEDULED_TASK: Load scheduler "fdi1" with entities [LocalPlayer, LocalPlayer], work=[200*, 0*]
 83: 0x0AA3 [0x55] WAIT_LOAD_SCHEDULER: Wait for scheduler "fdi1" with entities [LocalPlayer, LocalPlayer], work=200*
 84: 0x0AB2 [0x1B] RETURN

SUBROUTINE_0AB3:
 85: 0x0AB3 [0x45] LOAD_SCHEDULED_TASK: Load scheduler "fdo1" with entities [LocalPlayer, LocalPlayer], work=[200*, 0*]
 86: 0x0AC4 [0x55] WAIT_LOAD_SCHEDULER: Wait for scheduler "fdo1" with entities [LocalPlayer, LocalPlayer], work=200*
 87: 0x0AD3 [0x1B] RETURN
```

#### Data or dead code:

```
# Dead code (unreachable instructions):
     0x0A50 [0x45] LOAD_SCHEDULED_TASK: Load scheduler "fdi0" with entities [LocalPlayer, LocalPlayer], work=[200*, 0*]
     0x0A61 [0x55] WAIT_LOAD_SCHEDULER: Wait for scheduler "fdi0" with entities [LocalPlayer, LocalPlayer], work=200*
     0x0A70 [0x1B] RETURN
# Dead code (unreachable instructions):
     0x0AD4 [0x45] LOAD_SCHEDULED_TASK: Load scheduler "whi1" with entities [LocalPlayer, LocalPlayer], work=[201*, 0*]
     0x0AE5 [0x55] WAIT_LOAD_SCHEDULER: Wait for scheduler "whi1" with entities [LocalPlayer, LocalPlayer], work=201*
     0x0AF4 [0x1B] RETURN
     0x0AF5 [0x45] LOAD_SCHEDULED_TASK: Load scheduler "who1" with entities [LocalPlayer, LocalPlayer], work=[201*, 0*]
     0x0B06 [0x55] WAIT_LOAD_SCHEDULER: Wait for scheduler "who1" with entities [LocalPlayer, LocalPlayer], work=201*
     0x0B15 [0x1B] RETURN
     0x0B16 [0x45] LOAD_SCHEDULED_TASK: Load scheduler "who2" with entities [LocalPlayer, LocalPlayer], work=[201*, 0*]
     0x0B27 [0x55] WAIT_LOAD_SCHEDULER: Wait for scheduler "who2" with entities [LocalPlayer, LocalPlayer], work=201*
     0x0B36 [0x1B] RETURN
     0x0B37 [0x45] LOAD_SCHEDULED_TASK: Load scheduler "who3" with entities [LocalPlayer, LocalPlayer], work=[201*, 0*]
     0x0B48 [0x55] WAIT_LOAD_SCHEDULER: Wait for scheduler "who3" with entities [LocalPlayer, LocalPlayer], work=201*
     0x0B57 [0x1B] RETURN
     0x0B58 [0x62] LOAD_EVENT_SCHEDULER: Load scheduler "main" with entities [LocalPlayer, LocalPlayer], work=[1*, 0*]
     0x0B69 [0x1C] WAIT(45* ticks)
     0x0B6C [0x45] LOAD_SCHEDULED_TASK: Load scheduler "fdo1" with entities [LocalPlayer, LocalPlayer], work=[200*, 0*]
     0x0B7D [0x55] WAIT_LOAD_SCHEDULER: Wait for scheduler "fdo1" with entities [LocalPlayer, LocalPlayer], work=200*
     0x0B8C [0x1B] RETURN
     0x0B8D [0x45] LOAD_SCHEDULED_TASK: Load scheduler "fdi1" with entities [LocalPlayer, LocalPlayer], work=[200*, 0*]
     0x0B9E [0x62] LOAD_EVENT_SCHEDULER: Load scheduler "main" with entities [LocalPlayer, LocalPlayer], work=[2*, 0*]
     0x0BAF [0x1C] WAIT(30* ticks)
     0x0BB2 [0x55] WAIT_LOAD_SCHEDULER: Wait for scheduler "fdi1" with entities [LocalPlayer, LocalPlayer], work=200*
     0x0BC1 [0x1B] RETURN
     0x0BC2 [0x45] LOAD_SCHEDULED_TASK: Load scheduler "blon" with entities [LocalPlayer, LocalPlayer], work=[200*, 0*]
     0x0BD3 [0x45] LOAD_SCHEDULED_TASK: Load scheduler "blon" with entities [LocalPlayer, LocalPlayer], work=[201*, 0*]
     0x0BE4 [0x1B] RETURN
     0x0BE5 [0x45] LOAD_SCHEDULED_TASK: Load scheduler "whi0" with entities [LocalPlayer, LocalPlayer], work=[201*, 0*]
     0x0BF6 [0x55] WAIT_LOAD_SCHEDULER: Wait for scheduler "whi0" with entities [LocalPlayer, LocalPlayer], work=201*
     0x0C05 [0x1B] RETURN
     0x0C06 [0x45] LOAD_SCHEDULED_TASK: Load scheduler "who0" with entities [LocalPlayer, LocalPlayer], work=[201*, 0*]
     0x0C17 [0x55] WAIT_LOAD_SCHEDULER: Wait for scheduler "who0" with entities [LocalPlayer, LocalPlayer], work=201*
     0x0C26 [0x1B] RETURN
     0x0C27 [0x45] LOAD_SCHEDULED_TASK: Load scheduler "efon" with entities [LocalPlayer, LocalPlayer], work=[215*, 0*]
     0x0C38 [0x55] WAIT_LOAD_SCHEDULER: Wait for scheduler "efon" with entities [LocalPlayer, LocalPlayer], work=215*
     0x0C47 [0x1B] RETURN
     0x0C48 [0x45] LOAD_SCHEDULED_TASK: Load scheduler "fdis" with entities [LocalPlayer, LocalPlayer], work=[200*, 0*]
     0x0C59 [0x1B] RETURN
     0x0C5A [0x45] LOAD_SCHEDULED_TASK: Load scheduler "fdos" with entities [LocalPlayer, LocalPlayer], work=[200*, 0*]
     0x0C6B [0x55] WAIT_LOAD_SCHEDULER: Wait for scheduler "fdos" with entities [LocalPlayer, LocalPlayer], work=200*
     0x0C7A [0x1B] RETURN
     0x0C7B [0x45] LOAD_SCHEDULED_TASK: Load scheduler "fdif" with entities [LocalPlayer, LocalPlayer], work=[200*, 0*]
     0x0C8C [0x1B] RETURN
     0x0C8D [0x45] LOAD_SCHEDULED_TASK: Load scheduler "fdof" with entities [LocalPlayer, LocalPlayer], work=[200*, 0*]
     0x0C9E [0x55] WAIT_LOAD_SCHEDULER: Wait for scheduler "fdof" with entities [LocalPlayer, LocalPlayer], work=200*
     0x0CAD [0x1B] RETURN
     0x0CAE [0x45] LOAD_SCHEDULED_TASK: Load scheduler "fdip" with entities [LocalPlayer, LocalPlayer], work=[200*, 0*]
     0x0CBF [0x1B] RETURN
     0x0CC0 [0x45] LOAD_SCHEDULED_TASK: Load scheduler "fdop" with entities [LocalPlayer, LocalPlayer], work=[200*, 0*]
     0x0CD1 [0x55] WAIT_LOAD_SCHEDULER: Wait for scheduler "fdop" with entities [LocalPlayer, LocalPlayer], work=200*
     0x0CE0 [0x1B] RETURN
```

### Event 245

#### Metadata

| Field        | Value   |
|--------------|---------|
| Entrypoint   | 0x0CE1  |
| Data Size    | 1 bytes |
| Instructions | 1       |

```
      00 01 02 03 04 05 06 07  08 09 0A 0B 0C 0D 0E 0F
      -- -- -- -- -- -- -- --  -- -- -- -- -- -- -- --
0CE0:    00                                              .              
```

#### Opcodes

```
  0: 0x0CE1 [0x00] END_REQSTACK()
```

### Event 65535.2

#### Metadata

| Field        | Value    |
|--------------|----------|
| Entrypoint   | 0x0CE2   |
| Data Size    | 26 bytes |
| Instructions | 6        |

```
      00 01 02 03 04 05 06 07  08 09 0A 0B 0C 0D 0E 0F
      -- -- -- -- -- -- -- --  -- -- -- -- -- -- -- --
0CE0:       1E 87 A0 0E 01 6F  70 1C 90 80 66 16 80 06    .....op...f...
0CF0: A0 0E 01 06 A0 0E 01 6B  62 61 32 00              .......kba2.    
```

#### Opcodes

```
  0: 0x0CE2 [0x1E] EventEntity looks at Unnamed NPC (ID: 17735815/0x010EA087) and starts talking
  1: 0x0CE7 [0x6F] WAIT_FRAME_DELAY: Yield until WaitTime reaches zero
  2: 0x0CE8 [0x70] WAIT_ENTITY_RENDER_FLAG: Wait while EventEntity->Render.Flags3 bit 2 is set (cancel turn if not)
  3: 0x0CE9 [0x1C] WAIT(6* ticks)
  4: 0x0CEC [0x66] LOAD_EXT_SCHEDULER_MAIN: Load scheduler "kba2" with entities [Rashid (ID: 17735686/0x010EA006), Rashid (ID: 17735686/0x010EA006)], work=2*
  5: 0x0CFB [0x00] END_REQSTACK()
```

### Event 65535.3

#### Metadata

| Field        | Value    |
|--------------|----------|
| Entrypoint   | 0x0CFC   |
| Data Size    | 43 bytes |
| Instructions | 11       |

```
      00 01 02 03 04 05 06 07  08 09 0A 0B 0C 0D 0E 0F
      -- -- -- -- -- -- -- --  -- -- -- -- -- -- -- --
0CF0:                                      1E 88 A0 0E              ....
0D00: 01 6F 70 1C 3D 80 32 91  80 1F 00 92 80 93 80 07  .op.=.2.........
0D10: 80 1F 01 6F 1C 90 80 66  24 80 06 A0 0E 01 06 A0  ...o...f$.......
0D20: 0E 01 6E 64 65 30 00                              ..nde0.         
```

#### Opcodes

```
  0: 0x0CFC [0x1E] EventEntity looks at Unnamed NPC (ID: 17735816/0x010EA088) and starts talking
  1: 0x0D01 [0x6F] WAIT_FRAME_DELAY: Yield until WaitTime reaches zero
  2: 0x0D02 [0x70] WAIT_ENTITY_RENDER_FLAG: Wait while EventEntity->Render.Flags3 bit 2 is set (cancel turn if not)
  3: 0x0D03 [0x1C] WAIT(15* ticks)
  4: 0x0D06 [0x32] ExtData[1]->MainSpeed = 40* * 0.1
  5: 0x0D09 [0x1F] MOVE_ENTITY: EventEntity moves to X=-13.544*, Z=-122.904*, Y=-0.999*
  6: 0x0D11 [0x1F] MOVE_ENTITY: Update entity position (mode=1)
  7: 0x0D13 [0x6F] WAIT_FRAME_DELAY: Yield until WaitTime reaches zero
  8: 0x0D14 [0x1C] WAIT(6* ticks)
  9: 0x0D17 [0x66] LOAD_EXT_SCHEDULER_MAIN: Load scheduler "nde0" with entities [Rashid (ID: 17735686/0x010EA006), Rashid (ID: 17735686/0x010EA006)], work=4*
 10: 0x0D26 [0x00] END_REQSTACK()
```

### Event 65535.4

#### Metadata

| Field        | Value    |
|--------------|----------|
| Entrypoint   | 0x0D27   |
| Data Size    | 10 bytes |
| Instructions | 2        |

```
      00 01 02 03 04 05 06 07  08 09 0A 0B 0C 0D 0E 0F
      -- -- -- -- -- -- -- --  -- -- -- -- -- -- -- --
0D20:                      37  94 80 95 80 96 80 97 80         7........
0D30: 00                                                .               
```

#### Opcodes

```
  0: 0x0D27 [0x37] UPDATE_EVENT_POSITION_AND_DIR: x=-8.444*, z=-123.575*, y=-1.000*, direction=261.0°*
  1: 0x0D30 [0x00] END_REQSTACK()
```
