# 17735683 - Deidogg

## Common Data

| Field            | Value                  |
|------------------|------------------------|
| Zone             | Bastok Mines (ID: 234) |
| Block Size       | 536 bytes              |
| Total Events     | 20                     |
| References Count | 32                     |

## List of Events

| Event ID                 | Entrypoint   |   Size |   Instructions |
|--------------------------|--------------|--------|----------------|
| [65535](#event-65535)    | 0x0000       |      1 |              1 |
| [1](#event-1)            | 0x0001       |     10 |              2 |
| [32](#event-32)          | 0x000B       |     11 |              5 |
| [65535.1](#event-655351) | 0x0016       |     21 |              6 |
| [65535.2](#event-655352) | 0x002B       |     24 |              8 |
| [65535.3](#event-655353) | 0x0043       |     16 |              5 |
| [65535.4](#event-655354) | 0x0053       |      6 |              2 |
| [160](#event-160)        | 0x0059       |     11 |              5 |
| [161](#event-161)        | 0x0064       |      1 |              1 |
| [162](#event-162)        | 0x0065       |      1 |              1 |
| [163](#event-163)        | 0x0066       |      6 |              4 |
| [164](#event-164)        | 0x006C       |      1 |              1 |
| [165](#event-165)        | 0x006D       |     46 |             10 |
| [166](#event-166)        | 0x009B       |     11 |              5 |
| [170](#event-170)        | 0x00A6       |     81 |             15 |
| [172](#event-172)        | 0x00F7       |      1 |              1 |
| [176](#event-176)        | 0x00F8       |     15 |              3 |
| [180](#event-180)        | 0x0107       |      1 |              1 |
| [65535.5](#event-655355) | 0x0108       |     10 |              2 |
| [504](#event-504)        | 0x0112       |     37 |             11 |

## DAT References (imed_data)

|   Index | Hex Value   |   Dec Value |
|---------|-------------|-------------|
|       0 | 0xFFFF8909  |  4294936841 |
|       1 | 0x7A0F      |       31247 |
|       2 | 0x0AD2      |        2770 |
|       3 | 0x0E17      |        3607 |
|       4 | 0x2970      |       10608 |
|       5 | 0x000D      |          13 |
|       6 | 0xFFFF6137  |  4294926647 |
|       7 | 0x6E1C      |       28188 |
|       8 | 0x0000      |           0 |
|       9 | 0xFFFF4C18  |  4294921240 |
|      10 | 0x60AF      |       24751 |
|      11 | 0x001E      |          30 |
|      12 | 0x2B27      |       11047 |
|      13 | 0x2B42      |       11074 |
|      14 | 0x003C      |          60 |
|      15 | 0x2B51      |       11089 |
|      16 | 0x00C9      |         201 |
|      17 | 0x2B52      |       11090 |
|      18 | 0x2B53      |       11091 |
|      19 | 0x2B54      |       11092 |
|      20 | 0x2B55      |       11093 |
|      21 | 0x2B56      |       11094 |
|      22 | 0xFFFD939F  |  4294808479 |
|      23 | 0xFFFF71F9  |  4294930937 |
|      24 | 0x0A2E      |        2606 |
|      25 | 0xFFFFBFAF  |  4294950831 |
|      26 | 0x6A1A      |       27162 |
|      27 | 0x1B57      |        6999 |
|      28 | 0x09C5      |        2501 |
|      29 | 0x3104      |       12548 |
|      30 | 0x3107      |       12551 |
|      31 | 0x3108      |       12552 |

## String References

- **10608**: This is no place for you to be wandering around. Get out of my sight, outsider.
- **11047**: What do you think you're looking at? Huh? Deidogolly? What did that old Phara woman say? That nonsense has nothing to do with me.
- **11074**: I can't... Why would he... There is no way he could go all the way to Oztroja...a-and I've never heard of such an item anyway.
- **11089**: I've finished the greaves. These hold the soul of Raogrimm. Use them as he would have.
- **11090**: I hate saying this to an outsider like you, but...thanks. And that's all I'm going to say.
- **11091**: Hey, remember when Iron Eater showed up here?
- **11092**: He was gathering information about Raogrimm. I hear that they are starting up some operation to collect his lost items...
- **11093**: And so I got this idea...
- **11094**: ...Wait. I can't be asking outsiders for help. It's just not like me. Forget what I said!
- **12548**: <Player>'s badge flashes brightly.
- **12551**: This is no place for you to be wandering around. You outsiders never listen.
- **12552**: I don't know about any of this "Aht Urhgan" business, but don't bring your problems to me.

## Events

### Event 65535

#### Metadata

| Field        | Value   |
|--------------|---------|
| Entrypoint   | 0x0000  |
| Data Size    | 1 bytes |
| Instructions | 1       |

```
      00 01 02 03 04 05 06 07  08 09 0A 0B 0C 0D 0E 0F
      -- -- -- -- -- -- -- --  -- -- -- -- -- -- -- --
0000: 00                                                .               
```

#### Opcodes

```
  0: 0x0000 [0x00] END_REQSTACK()
```

### Event 1

#### Metadata

| Field        | Value    |
|--------------|----------|
| Entrypoint   | 0x0001   |
| Data Size    | 10 bytes |
| Instructions | 2        |

```
      00 01 02 03 04 05 06 07  08 09 0A 0B 0C 0D 0E 0F
      -- -- -- -- -- -- -- --  -- -- -- -- -- -- -- --
0000:    37 00 80 01 80 02 80  03 80 00                  7.........     
```

#### Opcodes

```
  0: 0x0001 [0x37] UPDATE_EVENT_POSITION_AND_DIR: x=-30.455*, z=31.247*, y=2.770*, direction=317.0°*
  1: 0x000A [0x00] END_REQSTACK()
```

### Event 32

#### Metadata

| Field        | Value    |
|--------------|----------|
| Entrypoint   | 0x000B   |
| Data Size    | 11 bytes |
| Instructions | 5        |

```
      00 01 02 03 04 05 06 07  08 09 0A 0B 0C 0D 0E 0F
      -- -- -- -- -- -- -- --  -- -- -- -- -- -- -- --
0000:                                   1E F0 FF FF 7F             .....
0010: 1D 04 80 23 21 00                                 ...#!.          
```

#### Opcodes

```
  0: 0x000B [0x1E] EventEntity looks at LocalPlayer and starts talking
  1: 0x0010 [0x1D] PRINT_EVENT_MESSAGE(message_id=10608*)
    → "This is no place for you to be wandering around. Get out of my sight, outsider."
  2: 0x0013 [0x23] WAIT_FOR_DIALOG_INTERACTION
  3: 0x0014 [0x21] END_EVENT
  4: 0x0015 [0x00] END_REQSTACK()
```

### Event 65535.1

#### Metadata

| Field        | Value    |
|--------------|----------|
| Entrypoint   | 0x0016   |
| Data Size    | 21 bytes |
| Instructions | 6        |

```
      00 01 02 03 04 05 06 07  08 09 0A 0B 0C 0D 0E 0F
      -- -- -- -- -- -- -- --  -- -- -- -- -- -- -- --
0010:                   22 00  32 05 80 1F 00 06 80 07        ".2.......
0020: 80 08 80 1F 01 1E 02 A0  0E 01 00                 ...........     
```

#### Opcodes

```
  0: 0x0016 [0x22] ENTITY_HIDE_FLAG(enabled=0x00)
  1: 0x0018 [0x32] ExtData[1]->MainSpeed = 13* * 0.1
  2: 0x001B [0x1F] MOVE_ENTITY: EventEntity moves to X=-40.649*, Z=28.188*, Y=0.000*
  3: 0x0023 [0x1F] MOVE_ENTITY: Update entity position (mode=1)
  4: 0x0025 [0x1E] EventEntity looks at Hani (ID: 17735682/0x010EA002) and starts talking
  5: 0x002A [0x00] END_REQSTACK()
```

### Event 65535.2

#### Metadata

| Field        | Value    |
|--------------|----------|
| Entrypoint   | 0x002B   |
| Data Size    | 24 bytes |
| Instructions | 8        |

```
      00 01 02 03 04 05 06 07  08 09 0A 0B 0C 0D 0E 0F
      -- -- -- -- -- -- -- --  -- -- -- -- -- -- -- --
0020:                                   32 05 80 1F 00             2....
0030: 09 80 0A 80 08 80 1F 01  1C 0B 80 1E F0 FF FF 7F  ................
0040: 6F 70 00                                          op.             
```

#### Opcodes

```
  0: 0x002B [0x32] ExtData[1]->MainSpeed = 13* * 0.1
  1: 0x002E [0x1F] MOVE_ENTITY: EventEntity moves to X=-46.056*, Z=24.751*, Y=0.000*
  2: 0x0036 [0x1F] MOVE_ENTITY: Update entity position (mode=1)
  3: 0x0038 [0x1C] WAIT(30* ticks)
  4: 0x003B [0x1E] EventEntity looks at LocalPlayer and starts talking
  5: 0x0040 [0x6F] WAIT_FRAME_DELAY: Yield until WaitTime reaches zero
  6: 0x0041 [0x70] WAIT_ENTITY_RENDER_FLAG: Wait while EventEntity->Render.Flags3 bit 2 is set (cancel turn if not)
  7: 0x0042 [0x00] END_REQSTACK()
```

### Event 65535.3

#### Metadata

| Field        | Value    |
|--------------|----------|
| Entrypoint   | 0x0043   |
| Data Size    | 16 bytes |
| Instructions | 5        |

```
      00 01 02 03 04 05 06 07  08 09 0A 0B 0C 0D 0E 0F
      -- -- -- -- -- -- -- --  -- -- -- -- -- -- -- --
0040:          32 05 80 1F 00  00 80 01 80 02 80 1F 01     2............
0050: 22 01 00                                          "..             
```

#### Opcodes

```
  0: 0x0043 [0x32] ExtData[1]->MainSpeed = 13* * 0.1
  1: 0x0046 [0x1F] MOVE_ENTITY: EventEntity moves to X=-30.455*, Z=31.247*, Y=2.770*
  2: 0x004E [0x1F] MOVE_ENTITY: Update entity position (mode=1)
  3: 0x0050 [0x22] ENTITY_HIDE_FLAG(enabled=0x01)
  4: 0x0052 [0x00] END_REQSTACK()
```

### Event 65535.4

#### Metadata

| Field        | Value   |
|--------------|---------|
| Entrypoint   | 0x0053  |
| Data Size    | 6 bytes |
| Instructions | 2       |

```
      00 01 02 03 04 05 06 07  08 09 0A 0B 0C 0D 0E 0F
      -- -- -- -- -- -- -- --  -- -- -- -- -- -- -- --
0050:          5E 69 64 6C 30  00                          ^idl0.       
```

#### Opcodes

```
  0: 0x0053 [0x5E] EventEntity goes idle (kills current action) (animation: "idl0")
  1: 0x0058 [0x00] END_REQSTACK()
```

### Event 160

#### Metadata

| Field        | Value    |
|--------------|----------|
| Entrypoint   | 0x0059   |
| Data Size    | 11 bytes |
| Instructions | 5        |

```
      00 01 02 03 04 05 06 07  08 09 0A 0B 0C 0D 0E 0F
      -- -- -- -- -- -- -- --  -- -- -- -- -- -- -- --
0050:                             1E F0 FF FF 7F 1D 0C           .......
0060: 80 23 21 00                                       .#!.            
```

#### Opcodes

```
  0: 0x0059 [0x1E] EventEntity looks at LocalPlayer and starts talking
  1: 0x005E [0x1D] PRINT_EVENT_MESSAGE(message_id=11047*)
    → "What do you think you're looking at? Huh? Deidogolly? What did that old Phara woman say? That nonsense has nothing to do with me."
  2: 0x0061 [0x23] WAIT_FOR_DIALOG_INTERACTION
  3: 0x0062 [0x21] END_EVENT
  4: 0x0063 [0x00] END_REQSTACK()
```

### Event 161

#### Metadata

| Field        | Value   |
|--------------|---------|
| Entrypoint   | 0x0064  |
| Data Size    | 1 bytes |
| Instructions | 1       |

```
      00 01 02 03 04 05 06 07  08 09 0A 0B 0C 0D 0E 0F
      -- -- -- -- -- -- -- --  -- -- -- -- -- -- -- --
0060:             00                                        .           
```

#### Opcodes

```
  0: 0x0064 [0x00] END_REQSTACK()
```

### Event 162

#### Metadata

| Field        | Value   |
|--------------|---------|
| Entrypoint   | 0x0065  |
| Data Size    | 1 bytes |
| Instructions | 1       |

```
      00 01 02 03 04 05 06 07  08 09 0A 0B 0C 0D 0E 0F
      -- -- -- -- -- -- -- --  -- -- -- -- -- -- -- --
0060:                00                                      .          
```

#### Opcodes

```
  0: 0x0065 [0x00] END_REQSTACK()
```

### Event 163

#### Metadata

| Field        | Value   |
|--------------|---------|
| Entrypoint   | 0x0066  |
| Data Size    | 6 bytes |
| Instructions | 4       |

```
      00 01 02 03 04 05 06 07  08 09 0A 0B 0C 0D 0E 0F
      -- -- -- -- -- -- -- --  -- -- -- -- -- -- -- --
0060:                   1D 0D  80 23 21 00                    ...#!.    
```

#### Opcodes

```
  0: 0x0066 [0x1D] PRINT_EVENT_MESSAGE(message_id=11074*)
    → "I can't... Why would he... There is no way he could go all the way to Oztroja...a-and I've never heard of such an item anyway."
  1: 0x0069 [0x23] WAIT_FOR_DIALOG_INTERACTION
  2: 0x006A [0x21] END_EVENT
  3: 0x006B [0x00] END_REQSTACK()
```

### Event 164

#### Metadata

| Field        | Value   |
|--------------|---------|
| Entrypoint   | 0x006C  |
| Data Size    | 1 bytes |
| Instructions | 1       |

```
      00 01 02 03 04 05 06 07  08 09 0A 0B 0C 0D 0E 0F
      -- -- -- -- -- -- -- --  -- -- -- -- -- -- -- --
0060:                                      00                       .   
```

#### Opcodes

```
  0: 0x006C [0x00] END_REQSTACK()
```

### Event 165

#### Metadata

| Field        | Value    |
|--------------|----------|
| Entrypoint   | 0x006D   |
| Data Size    | 46 bytes |
| Instructions | 10       |

```
      00 01 02 03 04 05 06 07  08 09 0A 0B 0C 0D 0E 0F
      -- -- -- -- -- -- -- --  -- -- -- -- -- -- -- --
0060:                                         42 1E F0               B..
0070: FF FF 7F 6F 70 66 0E 80  F8 FF FF 7F F8 FF FF 7F  ...opf..........
0080: 70 61 73 30 1D 0F 80 23  45 10 80 F0 FF FF 7F F0  pas0...#E.......
0090: FF FF 7F 71 73 74 63 08  80 21 00                 ...qstc..!.     
```

#### Opcodes

```
  0: 0x006D [0x42] SET_CLI_EVENT_CANCEL_DATA()
  1: 0x006E [0x1E] EventEntity looks at LocalPlayer and starts talking
  2: 0x0073 [0x6F] WAIT_FRAME_DELAY: Yield until WaitTime reaches zero
  3: 0x0074 [0x70] WAIT_ENTITY_RENDER_FLAG: Wait while EventEntity->Render.Flags3 bit 2 is set (cancel turn if not)
  4: 0x0075 [0x66] LOAD_EXT_SCHEDULER_MAIN: Load scheduler "pas0" with entities [EventEntity, EventEntity], work=60*
  5: 0x0084 [0x1D] PRINT_EVENT_MESSAGE(message_id=11089*)
    → "I've finished the greaves. These hold the soul of Raogrimm. Use them as he would have."
  6: 0x0087 [0x23] WAIT_FOR_DIALOG_INTERACTION
  7: 0x0088 [0x45] LOAD_SCHEDULED_TASK: Load scheduler "qstc" with entities [LocalPlayer, LocalPlayer], work=[201*, 0*]
  8: 0x0099 [0x21] END_EVENT
  9: 0x009A [0x00] END_REQSTACK()
```

### Event 166

#### Metadata

| Field        | Value    |
|--------------|----------|
| Entrypoint   | 0x009B   |
| Data Size    | 11 bytes |
| Instructions | 5        |

```
      00 01 02 03 04 05 06 07  08 09 0A 0B 0C 0D 0E 0F
      -- -- -- -- -- -- -- --  -- -- -- -- -- -- -- --
0090:                                   1E F0 FF FF 7F             .....
00A0: 1D 11 80 23 21 00                                 ...#!.          
```

#### Opcodes

```
  0: 0x009B [0x1E] EventEntity looks at LocalPlayer and starts talking
  1: 0x00A0 [0x1D] PRINT_EVENT_MESSAGE(message_id=11090*)
    → "I hate saying this to an outsider like you, but...thanks. And that's all I'm going to say."
  2: 0x00A3 [0x23] WAIT_FOR_DIALOG_INTERACTION
  3: 0x00A4 [0x21] END_EVENT
  4: 0x00A5 [0x00] END_REQSTACK()
```

### Event 170

#### Metadata

| Field        | Value    |
|--------------|----------|
| Entrypoint   | 0x00A6   |
| Data Size    | 81 bytes |
| Instructions | 15       |

```
      00 01 02 03 04 05 06 07  08 09 0A 0B 0C 0D 0E 0F
      -- -- -- -- -- -- -- --  -- -- -- -- -- -- -- --
00A0:                   1E F0  FF FF 7F 1D 12 80 23 66        ........#f
00B0: 0E 80 F8 FF FF 7F F8 FF  FF 7F 74 6C 6B 30 1D 13  ..........tlk0..
00C0: 80 23 66 0E 80 F8 FF FF  7F F8 FF FF 7F 74 68 6B  .#f..........thk
00D0: 31 1D 14 80 23 53 F8 FF  FF 7F F8 FF FF 7F 74 68  1...#S........th
00E0: 6B 31 66 0E 80 F8 FF FF  7F F8 FF FF 7F 74 68 6B  k1f..........thk
00F0: 32 1D 15 80 23 21 00                              2...#!.         
```

#### Opcodes

```
  0: 0x00A6 [0x1E] EventEntity looks at LocalPlayer and starts talking
  1: 0x00AB [0x1D] PRINT_EVENT_MESSAGE(message_id=11091*)
    → "Hey, remember when Iron Eater showed up here?"
  2: 0x00AE [0x23] WAIT_FOR_DIALOG_INTERACTION
  3: 0x00AF [0x66] LOAD_EXT_SCHEDULER_MAIN: Load scheduler "tlk0" with entities [EventEntity, EventEntity], work=60*
  4: 0x00BE [0x1D] PRINT_EVENT_MESSAGE(message_id=11092*)
    → "He was gathering information about Raogrimm. I hear that they are starting up some operation to collect his lost items..."
  5: 0x00C1 [0x23] WAIT_FOR_DIALOG_INTERACTION
  6: 0x00C2 [0x66] LOAD_EXT_SCHEDULER_MAIN: Load scheduler "thk1" with entities [EventEntity, EventEntity], work=60*
  7: 0x00D1 [0x1D] PRINT_EVENT_MESSAGE(message_id=11093*)
    → "And so I got this idea..."
  8: 0x00D4 [0x23] WAIT_FOR_DIALOG_INTERACTION
  9: 0x00D5 [0x53] WAIT_SCHEDULER_TASK: Wait for scheduler "thk1" with entities [EventEntity, EventEntity]
 10: 0x00E2 [0x66] LOAD_EXT_SCHEDULER_MAIN: Load scheduler "thk2" with entities [EventEntity, EventEntity], work=60*
 11: 0x00F1 [0x1D] PRINT_EVENT_MESSAGE(message_id=11094*)
    → "...Wait. I can't be asking outsiders for help. It's just not like me. Forget what I said!"
 12: 0x00F4 [0x23] WAIT_FOR_DIALOG_INTERACTION
 13: 0x00F5 [0x21] END_EVENT
 14: 0x00F6 [0x00] END_REQSTACK()
```

### Event 172

#### Metadata

| Field        | Value   |
|--------------|---------|
| Entrypoint   | 0x00F7  |
| Data Size    | 1 bytes |
| Instructions | 1       |

```
      00 01 02 03 04 05 06 07  08 09 0A 0B 0C 0D 0E 0F
      -- -- -- -- -- -- -- --  -- -- -- -- -- -- -- --
00F0:                      00                                  .        
```

#### Opcodes

```
  0: 0x00F7 [0x00] END_REQSTACK()
```

### Event 176

#### Metadata

| Field        | Value    |
|--------------|----------|
| Entrypoint   | 0x00F8   |
| Data Size    | 15 bytes |
| Instructions | 3        |

```
      00 01 02 03 04 05 06 07  08 09 0A 0B 0C 0D 0E 0F
      -- -- -- -- -- -- -- --  -- -- -- -- -- -- -- --
00F0:                          37 16 80 17 80 08 80 18          7.......
0100: 80 1E 0B A0 0E 01 00                              .......         
```

#### Opcodes

```
  0: 0x00F8 [0x37] UPDATE_EVENT_POSITION_AND_DIR: x=-158.817*, z=-36.359*, y=0.000*, direction=229.0°*
  1: 0x0101 [0x1E] EventEntity looks at Mydon (ID: 17735691/0x010EA00B) and starts talking
  2: 0x0106 [0x00] END_REQSTACK()
```

### Event 180

#### Metadata

| Field        | Value   |
|--------------|---------|
| Entrypoint   | 0x0107  |
| Data Size    | 1 bytes |
| Instructions | 1       |

```
      00 01 02 03 04 05 06 07  08 09 0A 0B 0C 0D 0E 0F
      -- -- -- -- -- -- -- --  -- -- -- -- -- -- -- --
0100:                      00                                  .        
```

#### Opcodes

```
  0: 0x0107 [0x00] END_REQSTACK()
```

### Event 65535.5

#### Metadata

| Field        | Value    |
|--------------|----------|
| Entrypoint   | 0x0108   |
| Data Size    | 10 bytes |
| Instructions | 2        |

```
      00 01 02 03 04 05 06 07  08 09 0A 0B 0C 0D 0E 0F
      -- -- -- -- -- -- -- --  -- -- -- -- -- -- -- --
0100:                          37 19 80 1A 80 1B 80 1C          7.......
0110: 80 00                                             ..              
```

#### Opcodes

```
  0: 0x0108 [0x37] UPDATE_EVENT_POSITION_AND_DIR: x=-16.465*, z=27.162*, y=6.999*, direction=219.8°*
  1: 0x0111 [0x00] END_REQSTACK()
```

### Event 504

#### Metadata

| Field        | Value    |
|--------------|----------|
| Entrypoint   | 0x0112   |
| Data Size    | 37 bytes |
| Instructions | 11       |

```
      00 01 02 03 04 05 06 07  08 09 0A 0B 0C 0D 0E 0F
      -- -- -- -- -- -- -- --  -- -- -- -- -- -- -- --
0110:       42 48 1D 80 1E F0  FF FF 7F 1C 0B 80 1D 1E    BH............
0120: 80 23 66 0E 80 03 A0 0E  01 03 A0 0E 01 6B 75 64  .#f..........kud
0130: 30 1D 1F 80 23 21 00                              0...#!.         
```

#### Opcodes

```
  0: 0x0112 [0x42] SET_CLI_EVENT_CANCEL_DATA()
  1: 0x0113 [0x48] [System] [12548*]:
    → "<Player>'s badge flashes brightly."
  2: 0x0116 [0x1E] EventEntity looks at LocalPlayer and starts talking
  3: 0x011B [0x1C] WAIT(30* ticks)
  4: 0x011E [0x1D] PRINT_EVENT_MESSAGE(message_id=12551*)
    → "This is no place for you to be wandering around. You outsiders never listen."
  5: 0x0121 [0x23] WAIT_FOR_DIALOG_INTERACTION
  6: 0x0122 [0x66] LOAD_EXT_SCHEDULER_MAIN: Load scheduler "kud0" with entities [Deidogg (ID: 17735683/0x010EA003), Deidogg (ID: 17735683/0x010EA003)], work=60*
  7: 0x0131 [0x1D] PRINT_EVENT_MESSAGE(message_id=12552*)
    → "I don't know about any of this "Aht Urhgan" business, but don't bring your problems to me."
  8: 0x0134 [0x23] WAIT_FOR_DIALOG_INTERACTION
  9: 0x0135 [0x21] END_EVENT
 10: 0x0136 [0x00] END_REQSTACK()
```
