# 17735713 - Sieglinde

## Common Data

| Field            | Value                  |
|------------------|------------------------|
| Zone             | Bastok Mines (ID: 234) |
| Block Size       | 1040 bytes             |
| Total Events     | 4                      |
| References Count | 37                     |

## List of Events

| Event ID              | Entrypoint   |   Size |   Instructions |
|-----------------------|--------------|--------|----------------|
| [65535](#event-65535) | 0x0000       |      1 |              1 |
| [124](#event-124)     | 0x0001       |    844 |            173 |
| [587](#event-587)     | 0x034D       |      7 |              2 |
| [589](#event-589)     | 0x0354       |      7 |              2 |

## DAT References (imed_data)

|   Index | Hex Value   |   Dec Value |
|---------|-------------|-------------|
|       0 | 0x0007      |           7 |
|       1 | 0x1BB0      |        7088 |
|       2 | 0x0002      |           2 |
|       3 | 0x0000      |           0 |
|       4 | 0x1C03      |        7171 |
|       5 | 0x1C05      |        7173 |
|       6 | 0x00C8      |         200 |
|       7 | 0x005A      |          90 |
|       8 | 0x0001      |           1 |
|       9 | 0x008C      |         140 |
|      10 | 0x000F      |          15 |
|      11 | 0x000A      |          10 |
|      12 | 0x1BE1      |        7137 |
|      13 | 0x40000000  |  1073741824 |
|      14 | 0x0010      |          16 |
|      15 | 0x0003      |           3 |
|      16 | 0x0004      |           4 |
|      17 | 0x0005      |           5 |
|      18 | 0x0006      |           6 |
|      19 | 0x0008      |           8 |
|      20 | 0x0009      |           9 |
|      21 | 0x000B      |          11 |
|      22 | 0x000C      |          12 |
|      23 | 0x000D      |          13 |
|      24 | 0x000E      |          14 |
|      25 | 0x0011      |          17 |
|      26 | 0x1BE2      |        7138 |
|      27 | 0x1C18      |        7192 |
|      28 | 0x1C06      |        7174 |
|      29 | 0x1BB5      |        7093 |
|      30 | 0x1BDB      |        7131 |
|      31 | 0x1BB9      |        7097 |
|      32 | 0x1BB8      |        7096 |
|      33 | 0x1BB7      |        7095 |
|      34 | 0x1BB6      |        7094 |
|      35 | 0x1C07      |        7175 |
|      36 | 0x1C02      |        7170 |

## String References

- **7088**: Request...? [[Advanced synthesis/Synthesis/Synthesis] image support./Information on synthesis materials./Nothing.]
- **7093**: Necessary skills: [Fishing/Woodworking/Smithing/Goldsmithing/Clothcraft/Leatherworking/Bonecraft/Alchemy/Cooking][ /, Woodworking/, Smithing/, Goldsmithing/, Clothcraft/, Leatherworking/, Bonecraft/, Alchemy/, Cooking][ /, Woodworking/, Smithing/, Goldsmithing/, Clothcraft/, Leatherworking/, Bonecraft/, Alchemy/, Cooking][ /, & Woodworking/, & Smithing/, & Goldsmithing/, & Clothcraft/, & Leatherworking/, & Bonecraft/, & Alchemy/, & Cooking] Necessary crystal: $4 Necessary items:
- **7094**: $4 x $0 $5 x $0$0 $6 x $0 $7 x $0$3
- **7095**: $4 x $0 $5 x $0$0 $6 x $0
- **7096**: $4 x $0 $5 x $0$0
- **7097**: $4 x $0
- **7131**: Necessary skills: [Fishing/Woodworking/Smithing/Goldsmithing/Clothcraft/Leatherworking/Bonecraft/Alchemy/Cooking][ /, Woodworking/, Smithing/, Goldsmithing/, Clothcraft/, Leatherworking/, Bonecraft/, Alchemy/, Cooking][ /, Woodworking/, Smithing/, Goldsmithing/, Clothcraft/, Leatherworking/, Bonecraft/, Alchemy/, Cooking][ /, & Woodworking/, & Smithing/, & Goldsmithing/, & Clothcraft/, & Leatherworking/, & Bonecraft/, & Alchemy/, & Cooking] Necessary crystal: $4 Necessary key item: $3 Necessary items:
- **7137**: Which rank of synthesis do you ask about? [Never mind./Amateur./Recruit./Initiate./Novice./Apprentice./Journeyman./Craftsman./Artisan./Adept./Veteran./Expert./Authority./Luminary./Master./Grandmaster.]
- **7138**: Which synthesis recipe do you ask about? [None./%./$1./$2./$3./$4./$5./$6./$7./$8./$9./$10./$11./$12./$13./$14./$15./View more recipes.]
- **7170**: Are you still here, darling? This is a sanctuary of wisdom. I have no time to sit around and eat crumpets with the ignorant, unwashed masses.
- **7171**: I can fully understand why you'd want to bask in the iridescent glow of my unfathomably astounding intelligence, but as you know, there is only so much I can do for those like...you.
- **7173**: Take a deep breath and relax. Close your eyes and let Sieglinde do the rest...
- **7174**: Well, I suppose even someone like you could manage $0. You will need...
- **7175**: Come back and visit Sieglinde if you ever need anything!
- **7192**: I am sorry, darling, but the items from that rank are simply beyond you at this point.

## Events

### Event 65535

#### Metadata

| Field        | Value   |
|--------------|---------|
| Entrypoint   | 0x0000  |
| Data Size    | 1 bytes |
| Instructions | 1       |

```
      00 01 02 03 04 05 06 07  08 09 0A 0B 0C 0D 0E 0F
      -- -- -- -- -- -- -- --  -- -- -- -- -- -- -- --
0000: 00                                                .               
```

#### Opcodes

```
  0: 0x0000 [0x00] END_REQSTACK()
```

### Event 124

#### Metadata

| Field        | Value     |
|--------------|-----------|
| Entrypoint   | 0x0001    |
| Data Size    | 844 bytes |
| Instructions | 166       |

```
      00 01 02 03 04 05 06 07  08 09 0A 0B 0C 0D 0E 0F
      -- -- -- -- -- -- -- --  -- -- -- -- -- -- -- --
0000:    3E 05 10 00 80 47 03  24 01 80 02 80 03 80 25   >....G.$......%
0010: 02 00 10 03 80 00 59 00  02 07 10 03 80 01 27 00  ......Y.......'.
0020: 1D 04 80 23 01 56 00 1D  05 80 23 42 45 06 80 F8  ...#.V....#BE...
0030: FF FF 7F F8 FF FF 7F 66  64 6F 31 03 80 1C 07 80  .......fdo1.....
0040: 45 06 80 F8 FF FF 7F F8  FF FF 7F 66 64 69 31 03  E..........fdi1.
0050: 80 03 01 10 08 80 01 44  03 02 00 10 08 80 00 39  .......D.......9
0060: 03 03 08 10 00 80 03 03  00 08 10 03 05 00 03 10  ................
0070: 06 00 00 03 02 00 09 80  03 01 00 0A 80 02 03 10  ................
0080: 02 00 05 8F 00 3C 00 00  01 00 08 80 01 92 00 01  .....<..........
0090: A5 00 02 01 00 02 80 02  A5 00 0C 01 00 08 02 00  ................
00A0: 0B 80 01 7D 00 24 0C 80  03 80 00 00 25 02 00 10  ...}.$......%...
00B0: 03 80 00 BF 00 03 01 10  0D 80 21 00 01 BF 00 03  ..........!.....
00C0: 04 00 00 10 0C 04 00 03  06 00 03 80 03 07 00 0E  ................
00D0: 80 8C 02 03 00 05 00 04  00 06 00 07 00 8C 01 03  ................
00E0: 00 00 03 80 02 02 10 03  80 00 F2 00 06 40 10 01  .............@..
00F0: 2D 02 02 03 10 03 80 00  01 01 3C 00 00 02 80 08  -.........<.....
0100: 80 02 04 10 03 80 00 10  01 3C 00 00 0F 80 08 80  .........<......
0110: 02 05 10 03 80 00 1F 01  3C 00 00 10 80 08 80 02  ........<.......
0120: 06 10 03 80 00 2E 01 3C  00 00 11 80 08 80 02 07  .......<........
0130: 10 03 80 00 3D 01 3C 00  00 12 80 08 80 02 08 10  ....=.<.........
0140: 03 80 00 4C 01 3C 00 00  00 80 08 80 02 09 10 03  ...L.<..........
0150: 80 00 5B 01 3C 00 00 13  80 08 80 02 00 17 03 80  ..[.<...........
0160: 00 6A 01 3C 00 00 14 80  08 80 02 01 17 03 80 00  .j.<............
0170: 79 01 3C 00 00 0B 80 08  80 02 02 17 03 80 00 88  y.<.............
0180: 01 3C 00 00 15 80 08 80  02 03 17 03 80 00 97 01  .<..............
0190: 3C 00 00 16 80 08 80 02  04 17 03 80 00 A6 01 3C  <..............<
01A0: 00 00 17 80 08 80 02 05  17 03 80 00 B5 01 3C 00  ..............<.
01B0: 00 18 80 08 80 02 06 17  03 80 00 C4 01 3C 00 00  .............<..
01C0: 0A 80 08 80 02 07 17 03  80 00 D3 01 3C 00 00 0E  ............<...
01D0: 80 08 80 02 08 17 03 80  00 E2 01 3C 00 00 19 80  ...........<....
01E0: 08 80 24 1A 80 03 80 00  00 25 02 00 10 03 80 00  ..$......%......
01F0: FC 01 03 01 10 0D 80 21  00 01 14 02 02 00 10 19  .......!........
0200: 80 00 14 02 07 06 00 0E  80 07 07 00 0E 80 01 D1  ................
0210: 00 01 14 02 03 08 00 06  00 07 08 00 00 10 0C 08  ................
0220: 00 8C 03 03 00 05 00 04  00 08 00 8C 01 02 40 10  ..............@.
0230: 03 80 00 3B 02 1D 1B 80  23 21 00 03 02 10 40 10  ...;....#!....@.
0240: 1D 1C 80 23 03 08 10 00  80 03 03 10 41 10 03 04  ...#........A...
0250: 10 42 10 03 05 10 43 10  03 06 10 44 10 03 07 10  .B....C....D....
0260: 55 10 02 07 10 03 80 00  71 02 48 1D 80 23 01 75  U.......q.H..#.u
0270: 02 48 1E 80 23 03 02 10  45 10 03 03 10 46 10 03  .H..#...E....F..
0280: 04 10 47 10 03 05 10 48  10 03 06 10 4D 10 03 07  ..G....H....M...
0290: 10 4E 10 03 08 10 4F 10  03 09 10 50 10 02 07 10  .N....O....P....
02A0: 03 80 00 AC 02 48 1F 80  23 01 32 03 02 08 10 03  .....H..#.2.....
02B0: 80 00 BB 02 48 20 80 23  01 32 03 02 09 10 03 80  ....H .#.2......
02C0: 00 CA 02 48 21 80 23 01  32 03 48 22 80 23 03 02  ...H!.#.2.H".#..
02D0: 10 49 10 03 03 10 4A 10  03 04 10 4B 10 03 05 10  .I....J....K....
02E0: 4C 10 03 06 10 51 10 03  07 10 52 10 03 08 10 53  L....Q....R....S
02F0: 10 03 09 10 54 10 02 06  10 03 80 00 01 03 01 32  ....T..........2
0300: 03 02 07 10 03 80 00 10  03 48 1F 80 23 01 32 03  .........H..#.2.
0310: 02 08 10 03 80 00 1F 03  48 20 80 23 01 32 03 02  ........H .#.2..
0320: 09 10 03 80 00 2E 03 48  21 80 23 01 32 03 48 22  .......H!.#.2.H"
0330: 80 23 1D 23 80 23 01 44  03 02 00 10 02 80 00 44  .#.#.#.D.......D
0340: 03 01 44 03 01 4B 03 1D  24 80 23 21 00           ..D..K..$.#!.   
```

#### Opcodes

```
  0: 0x0001 [0x3E] IF !(Work_Zone[5] bit 7*) GOTO 0x0347
  1: 0x0008 [0x24] CREATE_DIALOG(message_id=7088*, default_option=2*, option_flags=0*)
    → "Request...? [[Advanced synthesis/Synthesis/Synthesis] image support./Information on synthesis materials./Nothing.]"
  2: 0x000F [0x25] WAIT_DIALOG_SELECT()
  3: 0x0010 [0x02] IF !(Work_Zone[0] == 0*) GOTO 0x0059
  4: 0x0018 [0x02] IF !(Work_Zone[7] == 0*) GOTO 0x0027
  5: 0x0020 [0x1D] PRINT_EVENT_MESSAGE(message_id=7171*)
    → "I can fully understand why you'd want to bask in the iridescent glow of my unfathomably astounding intelligence, but as you know, there is only so much I can do for those like...you."
  6: 0x0023 [0x23] WAIT_FOR_DIALOG_INTERACTION
  7: 0x0024 [0x01] GOTO 0x0056
  8: 0x0027 [0x1D] PRINT_EVENT_MESSAGE(message_id=7173*)
    → "Take a deep breath and relax. Close your eyes and let Sieglinde do the rest..."
  9: 0x002A [0x23] WAIT_FOR_DIALOG_INTERACTION
 10: 0x002B [0x42] SET_CLI_EVENT_CANCEL_DATA()
 11: 0x002C [0x45] LOAD_SCHEDULED_TASK: Load scheduler "fdo1" with entities [EventEntity, EventEntity], work=[200*, 0*]
 12: 0x003D [0x1C] WAIT(90* ticks)
 13: 0x0040 [0x45] LOAD_SCHEDULED_TASK: Load scheduler "fdi1" with entities [EventEntity, EventEntity], work=[200*, 0*]
 14: 0x0051 [0x03] Work_Zone[1] = 1*

SUBROUTINE_0056:
 15: 0x0056 [0x01] GOTO 0x0344
 16: 0x0059 [0x02] IF !(Work_Zone[0] == 1*) GOTO 0x0339
 17: 0x0061 [0x03] Work_Zone[8] = 7*
 18: 0x0066 [0x03] ExtData[1]->WorkLocal[3] = Work_Zone[8]
 19: 0x006B [0x03] ExtData[1]->WorkLocal[5] = Work_Zone[3]
 20: 0x0070 [0x06] ExtData[1]->WorkLocal[0] = 0
 21: 0x0073 [0x03] ExtData[1]->WorkLocal[2] = 140*
 22: 0x0078 [0x03] ExtData[1]->WorkLocal[1] = 15*

SUBROUTINE_007D:
 23: 0x007D [0x02] IF !(Work_Zone[3] > ExtData[1]->WorkLocal[2]) GOTO 0x008F
 24: 0x0085 [0x3C] SET_BIT_FLAG_CONDITIONAL(target_work_offset=ExtData[1]->WorkLocal[0], bit_index_work_offset=ExtData[1]->WorkLocal[1], condition_work_offset=1*)
 25: 0x008C [0x01] GOTO 0x0092
 26: 0x008F [0x01] GOTO 0x00A5

SUBROUTINE_0092:
 27: 0x0092 [0x02] IF !(ExtData[1]->WorkLocal[1] <= 2*) GOTO 0x00A5
 28: 0x009A [0x0C] ExtData[1]->WorkLocal[1]--
 29: 0x009D [0x08] ExtData[1]->WorkLocal[2] -= 10*
 30: 0x00A2 [0x01] GOTO 0x007D

SUBROUTINE_00A5:
 31: 0x00A5 [0x24] CREATE_DIALOG(message_id=7137*, default_option=0*, option_flags=ExtData[1]->WorkLocal[0])
    → "Which rank of synthesis do you ask about? [Never mind./Amateur./Recruit./Initiate./Novice./Apprentice./Journeyman./Craftsman./Artisan./Adept./Veteran./Expert./Authority./Luminary./Master./Grandmaster.]"
 32: 0x00AC [0x25] WAIT_DIALOG_SELECT()
 33: 0x00AD [0x02] IF !(Work_Zone[0] == 0*) GOTO 0x00BF
 34: 0x00B5 [0x03] Work_Zone[1] = 1073741824*
 35: 0x00BA [0x21] END_EVENT
 36: 0x00BB [0x00] END_REQSTACK()

SUBROUTINE_00BF:
 37: 0x00BF [0x03] ExtData[1]->WorkLocal[4] = Work_Zone[0]
 38: 0x00C4 [0x0C] ExtData[1]->WorkLocal[4]--
 39: 0x00C7 [0x03] ExtData[1]->WorkLocal[6] = 0*
 40: 0x00CC [0x03] ExtData[1]->WorkLocal[7] = 16*

SUBROUTINE_00D1:
 41: 0x00D1 [0x8C] CRAFTING_HANDLER(mode=0x02) // Set recipe data
 42: 0x00DD [0x8C] CRAFTING_HANDLER(mode=0x01) // End crafting session
 43: 0x00DF [0x03] ExtData[1]->WorkLocal[0] = 0*
 44: 0x00E4 [0x02] IF !(Work_Zone[2] == 0*) GOTO 0x00F2
 45: 0x00EC [0x06] Work_Zone[64] = 0
 46: 0x00EF [0x01] GOTO 0x022D
 47: 0x00F2 [0x02] IF !(Work_Zone[3] == 0*) GOTO 0x0101
 48: 0x00FA [0x3C] SET_BIT_FLAG_CONDITIONAL(target_work_offset=ExtData[1]->WorkLocal[0], bit_index_work_offset=2*, condition_work_offset=1*)
 49: 0x0101 [0x02] IF !(Work_Zone[4] == 0*) GOTO 0x0110
 50: 0x0109 [0x3C] SET_BIT_FLAG_CONDITIONAL(target_work_offset=ExtData[1]->WorkLocal[0], bit_index_work_offset=3*, condition_work_offset=1*)
 51: 0x0110 [0x02] IF !(Work_Zone[5] == 0*) GOTO 0x011F
 52: 0x0118 [0x3C] SET_BIT_FLAG_CONDITIONAL(target_work_offset=ExtData[1]->WorkLocal[0], bit_index_work_offset=4*, condition_work_offset=1*)
 53: 0x011F [0x02] IF !(Work_Zone[6] == 0*) GOTO 0x012E
 54: 0x0127 [0x3C] SET_BIT_FLAG_CONDITIONAL(target_work_offset=ExtData[1]->WorkLocal[0], bit_index_work_offset=5*, condition_work_offset=1*)
 55: 0x012E [0x02] IF !(Work_Zone[7] == 0*) GOTO 0x013D
 56: 0x0136 [0x3C] SET_BIT_FLAG_CONDITIONAL(target_work_offset=ExtData[1]->WorkLocal[0], bit_index_work_offset=6*, condition_work_offset=1*)
 57: 0x013D [0x02] IF !(Work_Zone[8] == 0*) GOTO 0x014C
 58: 0x0145 [0x3C] SET_BIT_FLAG_CONDITIONAL(target_work_offset=ExtData[1]->WorkLocal[0], bit_index_work_offset=7*, condition_work_offset=1*)
 59: 0x014C [0x02] IF !(Work_Zone[9] == 0*) GOTO 0x015B
 60: 0x0154 [0x3C] SET_BIT_FLAG_CONDITIONAL(target_work_offset=ExtData[1]->WorkLocal[0], bit_index_work_offset=8*, condition_work_offset=1*)
 61: 0x015B [0x02] IF !(Work_Zone_1700[0] == 0*) GOTO 0x016A
 62: 0x0163 [0x3C] SET_BIT_FLAG_CONDITIONAL(target_work_offset=ExtData[1]->WorkLocal[0], bit_index_work_offset=9*, condition_work_offset=1*)
 63: 0x016A [0x02] IF !(Work_Zone_1700[1] == 0*) GOTO 0x0179
 64: 0x0172 [0x3C] SET_BIT_FLAG_CONDITIONAL(target_work_offset=ExtData[1]->WorkLocal[0], bit_index_work_offset=10*, condition_work_offset=1*)
 65: 0x0179 [0x02] IF !(Work_Zone_1700[2] == 0*) GOTO 0x0188
 66: 0x0181 [0x3C] SET_BIT_FLAG_CONDITIONAL(target_work_offset=ExtData[1]->WorkLocal[0], bit_index_work_offset=11*, condition_work_offset=1*)
 67: 0x0188 [0x02] IF !(Work_Zone_1700[3] == 0*) GOTO 0x0197
 68: 0x0190 [0x3C] SET_BIT_FLAG_CONDITIONAL(target_work_offset=ExtData[1]->WorkLocal[0], bit_index_work_offset=12*, condition_work_offset=1*)
 69: 0x0197 [0x02] IF !(Work_Zone_1700[4] == 0*) GOTO 0x01A6
 70: 0x019F [0x3C] SET_BIT_FLAG_CONDITIONAL(target_work_offset=ExtData[1]->WorkLocal[0], bit_index_work_offset=13*, condition_work_offset=1*)
 71: 0x01A6 [0x02] IF !(Work_Zone_1700[5] == 0*) GOTO 0x01B5
 72: 0x01AE [0x3C] SET_BIT_FLAG_CONDITIONAL(target_work_offset=ExtData[1]->WorkLocal[0], bit_index_work_offset=14*, condition_work_offset=1*)
 73: 0x01B5 [0x02] IF !(Work_Zone_1700[6] == 0*) GOTO 0x01C4
 74: 0x01BD [0x3C] SET_BIT_FLAG_CONDITIONAL(target_work_offset=ExtData[1]->WorkLocal[0], bit_index_work_offset=15*, condition_work_offset=1*)
 75: 0x01C4 [0x02] IF !(Work_Zone_1700[7] == 0*) GOTO 0x01D3
 76: 0x01CC [0x3C] SET_BIT_FLAG_CONDITIONAL(target_work_offset=ExtData[1]->WorkLocal[0], bit_index_work_offset=16*, condition_work_offset=1*)
 77: 0x01D3 [0x02] IF !(Work_Zone_1700[8] == 0*) GOTO 0x01E2
 78: 0x01DB [0x3C] SET_BIT_FLAG_CONDITIONAL(target_work_offset=ExtData[1]->WorkLocal[0], bit_index_work_offset=17*, condition_work_offset=1*)
 79: 0x01E2 [0x24] CREATE_DIALOG(message_id=7138*, default_option=0*, option_flags=ExtData[1]->WorkLocal[0])
    → "Which synthesis recipe do you ask about? [None./%./$1./$2./$3./$4./$5./$6./$7./$8./$9./$10./$11./$12./$13./$14./$15./View more recipes.]"
 80: 0x01E9 [0x25] WAIT_DIALOG_SELECT()
 81: 0x01EA [0x02] IF !(Work_Zone[0] == 0*) GOTO 0x01FC
 82: 0x01F2 [0x03] Work_Zone[1] = 1073741824*
 83: 0x01F7 [0x21] END_EVENT
 84: 0x01F8 [0x00] END_REQSTACK()

SUBROUTINE_0214:
 85: 0x0214 [0x03] ExtData[1]->WorkLocal[8] = ExtData[1]->WorkLocal[6]
 86: 0x0219 [0x07] ExtData[1]->WorkLocal[8] += Work_Zone[0]
 87: 0x021E [0x0C] ExtData[1]->WorkLocal[8]--
 88: 0x0221 [0x8C] CRAFTING_HANDLER(mode=0x03) // Get synthesis recipe
 89: 0x022B [0x8C] CRAFTING_HANDLER(mode=0x01) // End crafting session

SUBROUTINE_022D:
 90: 0x022D [0x02] IF !(Work_Zone[64] == 0*) GOTO 0x023B
 91: 0x0235 [0x1D] PRINT_EVENT_MESSAGE(message_id=7192*)
    → "I am sorry, darling, but the items from that rank are simply beyond you at this point."
 92: 0x0238 [0x23] WAIT_FOR_DIALOG_INTERACTION
 93: 0x0239 [0x21] END_EVENT
 94: 0x023A [0x00] END_REQSTACK()
 95: 0x023B [0x03] Work_Zone[2] = Work_Zone[64]
 96: 0x0240 [0x1D] PRINT_EVENT_MESSAGE(message_id=7174*)
    → "Well, I suppose even someone like you could manage $0. You will need..."
 97: 0x0243 [0x23] WAIT_FOR_DIALOG_INTERACTION
 98: 0x0244 [0x03] Work_Zone[8] = 7*
 99: 0x0249 [0x03] Work_Zone[3] = Work_Zone[65]
100: 0x024E [0x03] Work_Zone[4] = Work_Zone[66]
101: 0x0253 [0x03] Work_Zone[5] = Work_Zone[67]
102: 0x0258 [0x03] Work_Zone[6] = Work_Zone[68]
103: 0x025D [0x03] Work_Zone[7] = Work_Zone[85]
104: 0x0262 [0x02] IF !(Work_Zone[7] == 0*) GOTO 0x0271
105: 0x026A [0x48] [System] [7093*]:
    → "Necessary skills: [Fishing/Woodworking/Smithing/Goldsmithing/Clothcraft/Leatherworking/Bonecraft/Alchemy/Cooking][ /, Woodworking/, Smithing/, Goldsmithing/, Clothcraft/, Leatherworking/, Bonecraft/, Alchemy/, Cooking][ /, Woodworking/, Smithing/, Goldsmithing/, Clothcraft/, Leatherworking/, Bonecraft/, Alchemy/, Cooking][ /, & Woodworking/, & Smithing/, & Goldsmithing/, & Clothcraft/, & Leatherworking/, & Bonecraft/, & Alchemy/, & Cooking] Necessary crystal: $4 Necessary items:"
106: 0x026D [0x23] WAIT_FOR_DIALOG_INTERACTION
107: 0x026E [0x01] GOTO 0x0275
108: 0x0271 [0x48] [System] [7131*]:
    → "Necessary skills: [Fishing/Woodworking/Smithing/Goldsmithing/Clothcraft/Leatherworking/Bonecraft/Alchemy/Cooking][ /, Woodworking/, Smithing/, Goldsmithing/, Clothcraft/, Leatherworking/, Bonecraft/, Alchemy/, Cooking][ /, Woodworking/, Smithing/, Goldsmithing/, Clothcraft/, Leatherworking/, Bonecraft/, Alchemy/, Cooking][ /, & Woodworking/, & Smithing/, & Goldsmithing/, & Clothcraft/, & Leatherworking/, & Bonecraft/, & Alchemy/, & Cooking] Necessary crystal: $4 Necessary key item: $3 Necessary items:"
109: 0x0274 [0x23] WAIT_FOR_DIALOG_INTERACTION

SUBROUTINE_0275:
110: 0x0275 [0x03] Work_Zone[2] = Work_Zone[69]
111: 0x027A [0x03] Work_Zone[3] = Work_Zone[70]
112: 0x027F [0x03] Work_Zone[4] = Work_Zone[71]
113: 0x0284 [0x03] Work_Zone[5] = Work_Zone[72]
114: 0x0289 [0x03] Work_Zone[6] = Work_Zone[77]
115: 0x028E [0x03] Work_Zone[7] = Work_Zone[78]
116: 0x0293 [0x03] Work_Zone[8] = Work_Zone[79]
117: 0x0298 [0x03] Work_Zone[9] = Work_Zone[80]
118: 0x029D [0x02] IF !(Work_Zone[7] == 0*) GOTO 0x02AC
119: 0x02A5 [0x48] [System] [7097*]:
    → "$4 x $0"
120: 0x02A8 [0x23] WAIT_FOR_DIALOG_INTERACTION
121: 0x02A9 [0x01] GOTO 0x0332
122: 0x02AC [0x02] IF !(Work_Zone[8] == 0*) GOTO 0x02BB
123: 0x02B4 [0x48] [System] [7096*]:
    → "$4 x $0 $5 x $0$0"
124: 0x02B7 [0x23] WAIT_FOR_DIALOG_INTERACTION
125: 0x02B8 [0x01] GOTO 0x0332
126: 0x02BB [0x02] IF !(Work_Zone[9] == 0*) GOTO 0x02CA
127: 0x02C3 [0x48] [System] [7095*]:
    → "$4 x $0 $5 x $0$0 $6 x $0"
128: 0x02C6 [0x23] WAIT_FOR_DIALOG_INTERACTION
129: 0x02C7 [0x01] GOTO 0x0332
130: 0x02CA [0x48] [System] [7094*]:
    → "$4 x $0 $5 x $0$0 $6 x $0 $7 x $0$3"
131: 0x02CD [0x23] WAIT_FOR_DIALOG_INTERACTION
132: 0x02CE [0x03] Work_Zone[2] = Work_Zone[73]
133: 0x02D3 [0x03] Work_Zone[3] = Work_Zone[74]
134: 0x02D8 [0x03] Work_Zone[4] = Work_Zone[75]
135: 0x02DD [0x03] Work_Zone[5] = Work_Zone[76]
136: 0x02E2 [0x03] Work_Zone[6] = Work_Zone[81]
137: 0x02E7 [0x03] Work_Zone[7] = Work_Zone[82]
138: 0x02EC [0x03] Work_Zone[8] = Work_Zone[83]
139: 0x02F1 [0x03] Work_Zone[9] = Work_Zone[84]
140: 0x02F6 [0x02] IF !(Work_Zone[6] == 0*) GOTO 0x0301
141: 0x02FE [0x01] GOTO 0x0332
142: 0x0301 [0x02] IF !(Work_Zone[7] == 0*) GOTO 0x0310
143: 0x0309 [0x48] [System] [7097*]:
    → "$4 x $0"
144: 0x030C [0x23] WAIT_FOR_DIALOG_INTERACTION
145: 0x030D [0x01] GOTO 0x0332
146: 0x0310 [0x02] IF !(Work_Zone[8] == 0*) GOTO 0x031F
147: 0x0318 [0x48] [System] [7096*]:
    → "$4 x $0 $5 x $0$0"
148: 0x031B [0x23] WAIT_FOR_DIALOG_INTERACTION
149: 0x031C [0x01] GOTO 0x0332
150: 0x031F [0x02] IF !(Work_Zone[9] == 0*) GOTO 0x032E
151: 0x0327 [0x48] [System] [7095*]:
    → "$4 x $0 $5 x $0$0 $6 x $0"
152: 0x032A [0x23] WAIT_FOR_DIALOG_INTERACTION
153: 0x032B [0x01] GOTO 0x0332
154: 0x032E [0x48] [System] [7094*]:
    → "$4 x $0 $5 x $0$0 $6 x $0 $7 x $0$3"
155: 0x0331 [0x23] WAIT_FOR_DIALOG_INTERACTION

SUBROUTINE_0332:
156: 0x0332 [0x1D] PRINT_EVENT_MESSAGE(message_id=7175*)
    → "Come back and visit Sieglinde if you ever need anything!"
157: 0x0335 [0x23] WAIT_FOR_DIALOG_INTERACTION
158: 0x0336 [0x01] GOTO 0x0344
159: 0x0339 [0x02] IF !(Work_Zone[0] == 2*) GOTO 0x0344
160: 0x0341 [0x01] GOTO 0x0344

SUBROUTINE_0344:
161: 0x0344 [0x01] GOTO 0x034B
162: 0x0347 [0x1D] PRINT_EVENT_MESSAGE(message_id=7170*)
    → "Are you still here, darling? This is a sanctuary of wisdom. I have no time to sit around and eat crumpets with the ignorant, unwashed masses."
163: 0x034A [0x23] WAIT_FOR_DIALOG_INTERACTION

SUBROUTINE_034B:
164: 0x034B [0x21] END_EVENT
165: 0x034C [0x00] END_REQSTACK()
```

#### Data or dead code:

```
# Dead code (unreachable instructions):
     0x00BC [0x01] GOTO 0x00BF
# Dead code (unreachable instructions):
     0x01F9 [0x01] GOTO 0x0214
     0x0211 [0x01] GOTO 0x0214
```

### Event 587

#### Metadata

| Field        | Value   |
|--------------|---------|
| Entrypoint   | 0x034D  |
| Data Size    | 7 bytes |
| Instructions | 2       |

```
      00 01 02 03 04 05 06 07  08 09 0A 0B 0C 0D 0E 0F
      -- -- -- -- -- -- -- --  -- -- -- -- -- -- -- --
0340:                                         92 01 F8               ...
0350: FF FF 7F 00                                       ....            
```

#### Opcodes

```
  0: 0x034D [0x92] EventEntity->Render.Flags3 ^= 0x01
  1: 0x0353 [0x00] END_REQSTACK()
```

### Event 589

#### Metadata

| Field        | Value   |
|--------------|---------|
| Entrypoint   | 0x0354  |
| Data Size    | 7 bytes |
| Instructions | 2       |

```
      00 01 02 03 04 05 06 07  08 09 0A 0B 0C 0D 0E 0F
      -- -- -- -- -- -- -- --  -- -- -- -- -- -- -- --
0350:             92 01 F8 FF  FF 7F 00                     .......     
```

#### Opcodes

```
  0: 0x0354 [0x92] EventEntity->Render.Flags3 ^= 0x01
  1: 0x035A [0x00] END_REQSTACK()
```
