# 17735834

## Common Data

| Field            | Value                  |
|------------------|------------------------|
| Zone             | Bastok Mines (ID: 234) |
| Block Size       | 1252 bytes             |
| Total Events     | 26                     |
| References Count | 116                    |

## List of Events

| Event ID                   | Entrypoint   |   Size |   Instructions |
|----------------------------|--------------|--------|----------------|
| [65535](#event-65535)      | 0x0000       |      1 |              1 |
| [513](#event-513)          | 0x0001       |      1 |              1 |
| [509](#event-509)          | 0x0002       |      1 |              1 |
| [65535.1](#event-655351)   | 0x0003       |     15 |              2 |
| [65535.2](#event-655352)   | 0x0012       |     11 |              3 |
| [65535.3](#event-655353)   | 0x001D       |     10 |              2 |
| [65535.4](#event-655354)   | 0x0027       |     81 |             16 |
| [65535.5](#event-655355)   | 0x0078       |     81 |             16 |
| [65535.6](#event-655356)   | 0x00C9       |     10 |              2 |
| [65535.7](#event-655357)   | 0x00D3       |     14 |              4 |
| [65535.8](#event-655358)   | 0x00E1       |     11 |              3 |
| [65535.9](#event-655359)   | 0x00EC       |     11 |              3 |
| [65535.10](#event-6553510) | 0x00F7       |     11 |              3 |
| [65535.11](#event-6553511) | 0x0102       |     14 |              4 |
| [65535.12](#event-6553512) | 0x0110       |     10 |              2 |
| [545](#event-545)          | 0x011A       |      1 |              1 |
| [65535.13](#event-6553513) | 0x011B       |     15 |              3 |
| [65535.14](#event-6553514) | 0x012A       |     45 |             10 |
| [65535.15](#event-6553515) | 0x0157       |      6 |              2 |
| [65535.16](#event-6553516) | 0x015D       |     20 |              4 |
| [65535.17](#event-6553517) | 0x0171       |     80 |             18 |
| [65535.18](#event-6553518) | 0x01C1       |     67 |             15 |
| [65535.19](#event-6553519) | 0x0204       |     14 |              4 |
| [65535.20](#event-6553520) | 0x0212       |     51 |             11 |
| [65535.21](#event-6553521) | 0x0245       |     15 |              3 |
| [65535.22](#event-6553522) | 0x0254       |     69 |             15 |

## DAT References (imed_data)

|   Index | Hex Value   |   Dec Value |
|---------|-------------|-------------|
|       0 | 0x0000      |           0 |
|       1 | 0x68EC      |       26860 |
|       2 | 0xFFFE933F  |  4294873919 |
|       3 | 0x0367      |         871 |
|       4 | 0x0A47      |        2631 |
|       5 | 0x0046      |          70 |
|       6 | 0x6F22      |       28450 |
|       7 | 0xFFFEA56E  |  4294878574 |
|       8 | 0x7D53      |       32083 |
|       9 | 0xFFFEA6A2  |  4294878882 |
|      10 | 0x0365      |         869 |
|      11 | 0x8519      |       34073 |
|      12 | 0xFFFE9CA8  |  4294876328 |
|      13 | 0x034F      |         847 |
|      14 | 0x7D83      |       32131 |
|      15 | 0xFFFE8E29  |  4294872617 |
|      16 | 0xD440      |       54336 |
|      17 | 0xFFFE8397  |  4294869911 |
|      18 | 0x07DD      |        2013 |
|      19 | 0x000F      |          15 |
|      20 | 0xCF23      |       53027 |
|      21 | 0xFFFE8476  |  4294870134 |
|      22 | 0xCBAA      |       52138 |
|      23 | 0xFFFE8495  |  4294870165 |
|      24 | 0xC6DE      |       50910 |
|      25 | 0xFFFE8650  |  4294870608 |
|      26 | 0xC437      |       50231 |
|      27 | 0xFFFE8716  |  4294870806 |
|      28 | 0xC5CF      |       50639 |
|      29 | 0xFFFEAE20  |  4294880800 |
|      30 | 0xFFF97B90  |  4294540176 |
|      31 | 0xFFF93010  |  4294520848 |
|      32 | 0x618D      |       24973 |
|      33 | 0x0362      |         866 |
|      34 | 0xFFF6D458  |  4294366296 |
|      35 | 0x94B18     |      609048 |
|      36 | 0x00FA      |         250 |
|      37 | 0x09E7      |        2535 |
|      38 | 0x0002      |           2 |
|      39 | 0xFFF6CD5C  |  4294364508 |
|      40 | 0x95040     |      610368 |
|      41 | 0x013C      |         316 |
|      42 | 0xFFF6C2ED  |  4294361837 |
|      43 | 0x93B8C     |      605068 |
|      44 | 0x007B      |         123 |
|      45 | 0xFFF6CB21  |  4294363937 |
|      46 | 0x94810     |      608272 |
|      47 | 0x00D3      |         211 |
|      48 | 0xFFF6D7C0  |  4294367168 |
|      49 | 0x8EF6A     |      585578 |
|      50 | 0x0274      |         628 |
|      51 | 0x011C      |         284 |
|      52 | 0xFFF6D0CA  |  4294365386 |
|      53 | 0x8F7DF     |      587743 |
|      54 | 0x0112      |         274 |
|      55 | 0xFFF6D779  |  4294367097 |
|      56 | 0x8FCC2     |      588994 |
|      57 | 0x015B      |         347 |
|      58 | 0xFFF6DB55  |  4294368085 |
|      59 | 0x8F169     |      586089 |
|      60 | 0x024A      |         586 |
|      61 | 0xFFF6DAA1  |  4294367905 |
|      62 | 0x8E6CF     |      583375 |
|      63 | 0x033E      |         830 |
|      64 | 0x001E      |          30 |
|      65 | 0x0C58      |        3160 |
|      66 | 0x0078      |         120 |
|      67 | 0xFFF6D069  |  4294365289 |
|      68 | 0x8F7F4     |      587764 |
|      69 | 0x010C      |         268 |
|      70 | 0x0154      |         340 |
|      71 | 0x002D      |          45 |
|      72 | 0xFFF6DB01  |  4294368001 |
|      73 | 0x90356     |      590678 |
|      74 | 0x0108      |         264 |
|      75 | 0x03BF      |         959 |
|      76 | 0x003C      |          60 |
|      77 | 0xFFF6C73F  |  4294362943 |
|      78 | 0x8F234     |      586292 |
|      79 | 0x008A      |         138 |
|      80 | 0x0025      |          37 |
|      81 | 0x00F0      |         240 |
|      82 | 0xFFF6D6F8  |  4294366968 |
|      83 | 0x8E30A     |      582410 |
|      84 | 0x0322      |         802 |
|      85 | 0x0BD3      |        3027 |
|      86 | 0xFFF6DB94  |  4294368148 |
|      87 | 0x8FCF3     |      589043 |
|      88 | 0x0159      |         345 |
|      89 | 0xFFF6C79F  |  4294363039 |
|      90 | 0x8F34D     |      586573 |
|      91 | 0x0039      |          57 |
|      92 | 0xFFF6CB4A  |  4294363978 |
|      93 | 0x8FAEF     |      588527 |
|      94 | 0x00C4      |         196 |
|      95 | 0xFFF6D269  |  4294365801 |
|      96 | 0x8F138     |      586040 |
|      97 | 0x01F0      |         496 |
|      98 | 0xFFF6CEAA  |  4294364842 |
|      99 | 0x8FA2D     |      588333 |
|     100 | 0x00F7      |         247 |
|     101 | 0xFFF6CA0E  |  4294363662 |
|     102 | 0x8EFB9     |      585657 |
|     103 | 0x0090      |         144 |
|     104 | 0xFFF6CECB  |  4294364875 |
|     105 | 0x8E418     |      582680 |
|     106 | 0x018C      |         396 |
|     107 | 0xFFF6DB79  |  4294368121 |
|     108 | 0x8E4F3     |      582899 |
|     109 | 0x0356      |         854 |
|     110 | 0xFFF6DE60  |  4294368864 |
|     111 | 0x8F7D9     |      587737 |
|     112 | 0x019A      |         410 |
|     113 | 0xFFF6D8AE  |  4294367406 |
|     114 | 0x8FE78     |      589432 |
|     115 | 0x0146      |         326 |

## Events

### Event 65535

#### Metadata

| Field        | Value   |
|--------------|---------|
| Entrypoint   | 0x0000  |
| Data Size    | 1 bytes |
| Instructions | 1       |

```
      00 01 02 03 04 05 06 07  08 09 0A 0B 0C 0D 0E 0F
      -- -- -- -- -- -- -- --  -- -- -- -- -- -- -- --
0000: 00                                                .               
```

#### Opcodes

```
  0: 0x0000 [0x00] END_REQSTACK()
```

### Event 513

#### Metadata

| Field        | Value   |
|--------------|---------|
| Entrypoint   | 0x0001  |
| Data Size    | 1 bytes |
| Instructions | 1       |

```
      00 01 02 03 04 05 06 07  08 09 0A 0B 0C 0D 0E 0F
      -- -- -- -- -- -- -- --  -- -- -- -- -- -- -- --
0000:    00                                              .              
```

#### Opcodes

```
  0: 0x0001 [0x00] END_REQSTACK()
```

### Event 509

#### Metadata

| Field        | Value   |
|--------------|---------|
| Entrypoint   | 0x0002  |
| Data Size    | 1 bytes |
| Instructions | 1       |

```
      00 01 02 03 04 05 06 07  08 09 0A 0B 0C 0D 0E 0F
      -- -- -- -- -- -- -- --  -- -- -- -- -- -- -- --
0000:       00                                            .             
```

#### Opcodes

```
  0: 0x0002 [0x00] END_REQSTACK()
```

### Event 65535.1

#### Metadata

| Field        | Value    |
|--------------|----------|
| Entrypoint   | 0x0003   |
| Data Size    | 15 bytes |
| Instructions | 2        |

```
      00 01 02 03 04 05 06 07  08 09 0A 0B 0C 0D 0E 0F
      -- -- -- -- -- -- -- --  -- -- -- -- -- -- -- --
0000:          B6 0D 04 10 05  10 06 10 07 10 08 10 09     .............
0010: 10 00                                             ..              
```

#### Opcodes

```
  0: 0x0003 [0xB6] ENTITY_APPEARANCE_HANDLER(case=Look with Render flags, race=Work_Zone[4], face=Work_Zone[5], head=Work_Zone[6], body=Work_Zone[7], hands=Work_Zone[8], render_flags=0x1009)
  1: 0x0011 [0x00] END_REQSTACK()
```

### Event 65535.2

#### Metadata

| Field        | Value    |
|--------------|----------|
| Entrypoint   | 0x0012   |
| Data Size    | 11 bytes |
| Instructions | 3        |

```
      00 01 02 03 04 05 06 07  08 09 0A 0B 0C 0D 0E 0F
      -- -- -- -- -- -- -- --  -- -- -- -- -- -- -- --
0010:       B4 01 00 00 00 80  B5 00 00 00 00             ...........   
```

#### Opcodes

```
  0: 0x0012 [0xB4] UI_WINDOW_STRING_HANDLER(case=0x01 - Copy string from event strings table, work_offset=ExtData[1]->WorkLocal[0], string_index=0*)
  1: 0x0018 [0xB5] SET_EVENT_ENTITY_NAME: Change EventEntity name to ExtData[1]->WorkLocal[0]
  2: 0x001C [0x00] END_REQSTACK()
```

### Event 65535.3

#### Metadata

| Field        | Value    |
|--------------|----------|
| Entrypoint   | 0x001D   |
| Data Size    | 10 bytes |
| Instructions | 2        |

```
      00 01 02 03 04 05 06 07  08 09 0A 0B 0C 0D 0E 0F
      -- -- -- -- -- -- -- --  -- -- -- -- -- -- -- --
0010:                                         37 01 80               7..
0020: 02 80 03 80 04 80 00                              .......         
```

#### Opcodes

```
  0: 0x001D [0x37] UPDATE_EVENT_POSITION_AND_DIR: x=26.860*, z=-93.377*, y=0.871*, direction=231.2°*
  1: 0x0026 [0x00] END_REQSTACK()
```

### Event 65535.4

#### Metadata

| Field        | Value    |
|--------------|----------|
| Entrypoint   | 0x0027   |
| Data Size    | 81 bytes |
| Instructions | 16       |

```
      00 01 02 03 04 05 06 07  08 09 0A 0B 0C 0D 0E 0F
      -- -- -- -- -- -- -- --  -- -- -- -- -- -- -- --
0020:                      32  05 80 1F 00 06 80 07 80         2........
0030: 03 80 1F 01 1F 00 08 80  09 80 0A 80 1F 01 1F 00  ................
0040: 0B 80 0C 80 0D 80 1F 01  1F 00 0E 80 0F 80 03 80  ................
0050: 1F 01 1F 00 01 80 02 80  03 80 1F 01 02 4D 10 00  .............M..
0060: 80 00 6E 00 27 05 9A A0  0E 01 07 01 77 00 37 00  ..n.'.......w.7.
0070: 80 00 80 00 80 00 80 00                           ........        
```

#### Opcodes

```
  0: 0x0027 [0x32] ExtData[1]->MainSpeed = 70* * 0.1
  1: 0x002A [0x1F] MOVE_ENTITY: EventEntity moves to X=28.450*, Z=-88.722*, Y=0.871*
  2: 0x0032 [0x1F] MOVE_ENTITY: Update entity position (mode=1)
  3: 0x0034 [0x1F] MOVE_ENTITY: EventEntity moves to X=32.083*, Z=-88.414*, Y=0.869*
  4: 0x003C [0x1F] MOVE_ENTITY: Update entity position (mode=1)
  5: 0x003E [0x1F] MOVE_ENTITY: EventEntity moves to X=34.073*, Z=-90.968*, Y=0.847*
  6: 0x0046 [0x1F] MOVE_ENTITY: Update entity position (mode=1)
  7: 0x0048 [0x1F] MOVE_ENTITY: EventEntity moves to X=32.131*, Z=-94.679*, Y=0.871*
  8: 0x0050 [0x1F] MOVE_ENTITY: Update entity position (mode=1)
  9: 0x0052 [0x1F] MOVE_ENTITY: EventEntity moves to X=26.860*, Z=-93.377*, Y=0.871*
 10: 0x005A [0x1F] MOVE_ENTITY: Update entity position (mode=1)
 11: 0x005C [0x02] IF !(Work_Zone[77] == 0*) GOTO 0x006E
 12: 0x0064 [0x27] REQ_SET(priority=0x05, entity_id=Unnamed NPC (ID: 17735834/0x010EA09A), tag_num=0x07)
 13: 0x006B [0x01] GOTO 0x0077
 14: 0x006E [0x37] UPDATE_EVENT_POSITION_AND_DIR: x=0.000*, z=0.000*, y=0.000*, direction=0.0°*

SUBROUTINE_0077:
 15: 0x0077 [0x00] END_REQSTACK()
```

### Event 65535.5

#### Metadata

| Field        | Value    |
|--------------|----------|
| Entrypoint   | 0x0078   |
| Data Size    | 81 bytes |
| Instructions | 16       |

```
      00 01 02 03 04 05 06 07  08 09 0A 0B 0C 0D 0E 0F
      -- -- -- -- -- -- -- --  -- -- -- -- -- -- -- --
0070:                          32 05 80 1F 00 06 80 07          2.......
0080: 80 03 80 1F 01 1F 00 08  80 09 80 0A 80 1F 01 1F  ................
0090: 00 0B 80 0C 80 0D 80 1F  01 1F 00 0E 80 0F 80 03  ................
00A0: 80 1F 01 1F 00 01 80 02  80 03 80 1F 01 02 4D 10  ..............M.
00B0: 00 80 00 BF 00 27 05 9A  A0 0E 01 06 01 C8 00 37  .....'.........7
00C0: 00 80 00 80 00 80 00 80  00                       .........       
```

#### Opcodes

```
  0: 0x0078 [0x32] ExtData[1]->MainSpeed = 70* * 0.1
  1: 0x007B [0x1F] MOVE_ENTITY: EventEntity moves to X=28.450*, Z=-88.722*, Y=0.871*
  2: 0x0083 [0x1F] MOVE_ENTITY: Update entity position (mode=1)
  3: 0x0085 [0x1F] MOVE_ENTITY: EventEntity moves to X=32.083*, Z=-88.414*, Y=0.869*
  4: 0x008D [0x1F] MOVE_ENTITY: Update entity position (mode=1)
  5: 0x008F [0x1F] MOVE_ENTITY: EventEntity moves to X=34.073*, Z=-90.968*, Y=0.847*
  6: 0x0097 [0x1F] MOVE_ENTITY: Update entity position (mode=1)
  7: 0x0099 [0x1F] MOVE_ENTITY: EventEntity moves to X=32.131*, Z=-94.679*, Y=0.871*
  8: 0x00A1 [0x1F] MOVE_ENTITY: Update entity position (mode=1)
  9: 0x00A3 [0x1F] MOVE_ENTITY: EventEntity moves to X=26.860*, Z=-93.377*, Y=0.871*
 10: 0x00AB [0x1F] MOVE_ENTITY: Update entity position (mode=1)
 11: 0x00AD [0x02] IF !(Work_Zone[77] == 0*) GOTO 0x00BF
 12: 0x00B5 [0x27] REQ_SET(priority=0x05, entity_id=Unnamed NPC (ID: 17735834/0x010EA09A), tag_num=0x06)
 13: 0x00BC [0x01] GOTO 0x00C8
 14: 0x00BF [0x37] UPDATE_EVENT_POSITION_AND_DIR: x=0.000*, z=0.000*, y=0.000*, direction=0.0°*

SUBROUTINE_00C8:
 15: 0x00C8 [0x00] END_REQSTACK()
```

### Event 65535.6

#### Metadata

| Field        | Value    |
|--------------|----------|
| Entrypoint   | 0x00C9   |
| Data Size    | 10 bytes |
| Instructions | 2        |

```
      00 01 02 03 04 05 06 07  08 09 0A 0B 0C 0D 0E 0F
      -- -- -- -- -- -- -- --  -- -- -- -- -- -- -- --
00C0:                             37 10 80 11 80 03 80           7......
00D0: 12 80 00                                          ...             
```

#### Opcodes

```
  0: 0x00C9 [0x37] UPDATE_EVENT_POSITION_AND_DIR: x=54.336*, z=-97.385*, y=0.871*, direction=176.9°*
  1: 0x00D2 [0x00] END_REQSTACK()
```

### Event 65535.7

#### Metadata

| Field        | Value    |
|--------------|----------|
| Entrypoint   | 0x00D3   |
| Data Size    | 14 bytes |
| Instructions | 4        |

```
      00 01 02 03 04 05 06 07  08 09 0A 0B 0C 0D 0E 0F
      -- -- -- -- -- -- -- --  -- -- -- -- -- -- -- --
00D0:          32 13 80 1F 00  14 80 15 80 03 80 1F 01     2............
00E0: 00                                                .               
```

#### Opcodes

```
  0: 0x00D3 [0x32] ExtData[1]->MainSpeed = 15* * 0.1
  1: 0x00D6 [0x1F] MOVE_ENTITY: EventEntity moves to X=53.027*, Z=-97.162*, Y=0.871*
  2: 0x00DE [0x1F] MOVE_ENTITY: Update entity position (mode=1)
  3: 0x00E0 [0x00] END_REQSTACK()
```

### Event 65535.8

#### Metadata

| Field        | Value    |
|--------------|----------|
| Entrypoint   | 0x00E1   |
| Data Size    | 11 bytes |
| Instructions | 3        |

```
      00 01 02 03 04 05 06 07  08 09 0A 0B 0C 0D 0E 0F
      -- -- -- -- -- -- -- --  -- -- -- -- -- -- -- --
00E0:    1F 00 16 80 17 80 03  80 1F 01 00               ...........    
```

#### Opcodes

```
  0: 0x00E1 [0x1F] MOVE_ENTITY: EventEntity moves to X=52.138*, Z=-97.131*, Y=0.871*
  1: 0x00E9 [0x1F] MOVE_ENTITY: Update entity position (mode=1)
  2: 0x00EB [0x00] END_REQSTACK()
```

### Event 65535.9

#### Metadata

| Field        | Value    |
|--------------|----------|
| Entrypoint   | 0x00EC   |
| Data Size    | 11 bytes |
| Instructions | 3        |

```
      00 01 02 03 04 05 06 07  08 09 0A 0B 0C 0D 0E 0F
      -- -- -- -- -- -- -- --  -- -- -- -- -- -- -- --
00E0:                                      1F 00 18 80              ....
00F0: 19 80 03 80 1F 01 00                              .......         
```

#### Opcodes

```
  0: 0x00EC [0x1F] MOVE_ENTITY: EventEntity moves to X=50.910*, Z=-96.688*, Y=0.871*
  1: 0x00F4 [0x1F] MOVE_ENTITY: Update entity position (mode=1)
  2: 0x00F6 [0x00] END_REQSTACK()
```

### Event 65535.10

#### Metadata

| Field        | Value    |
|--------------|----------|
| Entrypoint   | 0x00F7   |
| Data Size    | 11 bytes |
| Instructions | 3        |

```
      00 01 02 03 04 05 06 07  08 09 0A 0B 0C 0D 0E 0F
      -- -- -- -- -- -- -- --  -- -- -- -- -- -- -- --
00F0:                      1F  00 1A 80 1B 80 03 80 1F         .........
0100: 01 00                                             ..              
```

#### Opcodes

```
  0: 0x00F7 [0x1F] MOVE_ENTITY: EventEntity moves to X=50.231*, Z=-96.490*, Y=0.871*
  1: 0x00FF [0x1F] MOVE_ENTITY: Update entity position (mode=1)
  2: 0x0101 [0x00] END_REQSTACK()
```

### Event 65535.11

#### Metadata

| Field        | Value    |
|--------------|----------|
| Entrypoint   | 0x0102   |
| Data Size    | 14 bytes |
| Instructions | 4        |

```
      00 01 02 03 04 05 06 07  08 09 0A 0B 0C 0D 0E 0F
      -- -- -- -- -- -- -- --  -- -- -- -- -- -- -- --
0100:       32 05 80 1F 00 1C  80 1D 80 03 80 1F 01 00    2.............
```

#### Opcodes

```
  0: 0x0102 [0x32] ExtData[1]->MainSpeed = 70* * 0.1
  1: 0x0105 [0x1F] MOVE_ENTITY: EventEntity moves to X=50.639*, Z=-86.496*, Y=0.871*
  2: 0x010D [0x1F] MOVE_ENTITY: Update entity position (mode=1)
  3: 0x010F [0x00] END_REQSTACK()
```

### Event 65535.12

#### Metadata

| Field        | Value    |
|--------------|----------|
| Entrypoint   | 0x0110   |
| Data Size    | 10 bytes |
| Instructions | 2        |

```
      00 01 02 03 04 05 06 07  08 09 0A 0B 0C 0D 0E 0F
      -- -- -- -- -- -- -- --  -- -- -- -- -- -- -- --
0110: 37 1E 80 1F 80 20 80 21  80 00                    7.... .!..      
```

#### Opcodes

```
  0: 0x0110 [0x37] UPDATE_EVENT_POSITION_AND_DIR: x=-427.120*, z=-446.448*, y=24.973*, direction=76.1°*
  1: 0x0119 [0x00] END_REQSTACK()
```

### Event 545

#### Metadata

| Field        | Value   |
|--------------|---------|
| Entrypoint   | 0x011A  |
| Data Size    | 1 bytes |
| Instructions | 1       |

```
      00 01 02 03 04 05 06 07  08 09 0A 0B 0C 0D 0E 0F
      -- -- -- -- -- -- -- --  -- -- -- -- -- -- -- --
0110:                                00                           .     
```

#### Opcodes

```
  0: 0x011A [0x00] END_REQSTACK()
```

### Event 65535.13

#### Metadata

| Field        | Value    |
|--------------|----------|
| Entrypoint   | 0x011B   |
| Data Size    | 15 bytes |
| Instructions | 3        |

```
      00 01 02 03 04 05 06 07  08 09 0A 0B 0C 0D 0E 0F
      -- -- -- -- -- -- -- --  -- -- -- -- -- -- -- --
0110:                                   37 22 80 23 80             7".#.
0120: 24 80 25 80 03 04 00 00  80 00                    $.%.......      
```

#### Opcodes

```
  0: 0x011B [0x37] UPDATE_EVENT_POSITION_AND_DIR: x=-601.000*, z=609.048*, y=0.250*, direction=222.8°*
  1: 0x0124 [0x03] ExtData[1]->WorkLocal[4] = 0*
  2: 0x0129 [0x00] END_REQSTACK()
```

### Event 65535.14

#### Metadata

| Field        | Value    |
|--------------|----------|
| Entrypoint   | 0x012A   |
| Data Size    | 45 bytes |
| Instructions | 10       |

```
      00 01 02 03 04 05 06 07  08 09 0A 0B 0C 0D 0E 0F
      -- -- -- -- -- -- -- --  -- -- -- -- -- -- -- --
0120:                                02 04 00 26 80 01            ...&..
0130: 56 01 32 13 80 1F 00 27  80 28 80 29 80 1F 01 1F  V.2....'.(.)....
0140: 00 2A 80 2B 80 2C 80 1F  01 1F 00 2D 80 2E 80 2F  .*.+.,.....-.../
0150: 80 1F 01 01 2A 01 00                              ....*..         
```

#### Opcodes

```
  0: 0x012A [0x02] IF !(ExtData[1]->WorkLocal[4] == 2*) GOTO 0x0156
  1: 0x0132 [0x32] ExtData[1]->MainSpeed = 15* * 0.1
  2: 0x0135 [0x1F] MOVE_ENTITY: EventEntity moves to X=-602.788*, Z=610.368*, Y=0.316*
  3: 0x013D [0x1F] MOVE_ENTITY: Update entity position (mode=1)
  4: 0x013F [0x1F] MOVE_ENTITY: EventEntity moves to X=-605.459*, Z=605.068*, Y=0.123*
  5: 0x0147 [0x1F] MOVE_ENTITY: Update entity position (mode=1)
  6: 0x0149 [0x1F] MOVE_ENTITY: EventEntity moves to X=-603.359*, Z=608.272*, Y=0.211*
  7: 0x0151 [0x1F] MOVE_ENTITY: Update entity position (mode=1)
  8: 0x0153 [0x01] GOTO 0x012A
  9: 0x0156 [0x00] END_REQSTACK()
```

### Event 65535.15

#### Metadata

| Field        | Value   |
|--------------|---------|
| Entrypoint   | 0x0157  |
| Data Size    | 6 bytes |
| Instructions | 2       |

```
      00 01 02 03 04 05 06 07  08 09 0A 0B 0C 0D 0E 0F
      -- -- -- -- -- -- -- --  -- -- -- -- -- -- -- --
0150:                      03  04 00 26 80 00                  ...&..   
```

#### Opcodes

```
  0: 0x0157 [0x03] ExtData[1]->WorkLocal[4] = 2*
  1: 0x015C [0x00] END_REQSTACK()
```

### Event 65535.16

#### Metadata

| Field        | Value    |
|--------------|----------|
| Entrypoint   | 0x015D   |
| Data Size    | 20 bytes |
| Instructions | 4        |

```
      00 01 02 03 04 05 06 07  08 09 0A 0B 0C 0D 0E 0F
      -- -- -- -- -- -- -- --  -- -- -- -- -- -- -- --
0150:                                         37 30 80               70.
0160: 31 80 32 80 33 80 80 F8  FF FF 7F 03 04 00 00 80  1.2.3...........
0170: 00                                                .               
```

#### Opcodes

```
  0: 0x015D [0x37] UPDATE_EVENT_POSITION_AND_DIR: x=-600.128*, z=585.578*, y=0.628*, direction=25.0°*
  1: 0x0166 [0x80] LOAD_WAIT(entity=EventEntity)
  2: 0x016B [0x03] ExtData[1]->WorkLocal[4] = 0*
  3: 0x0170 [0x00] END_REQSTACK()
```

### Event 65535.17

#### Metadata

| Field        | Value    |
|--------------|----------|
| Entrypoint   | 0x0171   |
| Data Size    | 80 bytes |
| Instructions | 18       |

```
      00 01 02 03 04 05 06 07  08 09 0A 0B 0C 0D 0E 0F
      -- -- -- -- -- -- -- --  -- -- -- -- -- -- -- --
0170:    32 13 80 1F 00 34 80  35 80 36 80 1F 01 1F 00   2....4.5.6.....
0180: 37 80 38 80 39 80 1F 01  1F 00 3A 80 3B 80 3C 80  7.8.9.....:.;.<.
0190: 1F 01 1F 00 3D 80 3E 80  3F 80 1F 01 1C 40 80 4B  ....=.>.?....@.K
01A0: 9A A0 0E 01 41 80 1C 42  80 1F 00 43 80 44 80 45  ....A..B...C.D.E
01B0: 80 1F 01 1C 40 80 4B 9A  A0 0E 01 46 80 1C 40 80  ....@.K....F..@.
01C0: 00                                                .               
```

#### Opcodes

```
  0: 0x0171 [0x32] ExtData[1]->MainSpeed = 15* * 0.1
  1: 0x0174 [0x1F] MOVE_ENTITY: EventEntity moves to X=-601.910*, Z=587.743*, Y=0.274*
  2: 0x017C [0x1F] MOVE_ENTITY: Update entity position (mode=1)
  3: 0x017E [0x1F] MOVE_ENTITY: EventEntity moves to X=-600.199*, Z=588.994*, Y=0.347*
  4: 0x0186 [0x1F] MOVE_ENTITY: Update entity position (mode=1)
  5: 0x0188 [0x1F] MOVE_ENTITY: EventEntity moves to X=-599.211*, Z=586.089*, Y=0.586*
  6: 0x0190 [0x1F] MOVE_ENTITY: Update entity position (mode=1)
  7: 0x0192 [0x1F] MOVE_ENTITY: EventEntity moves to X=-599.391*, Z=583.375*, Y=0.830*
  8: 0x019A [0x1F] MOVE_ENTITY: Update entity position (mode=1)
  9: 0x019C [0x1C] WAIT(30* ticks)
 10: 0x019F [0x4B] UPDATE_ENTITY_YAW(entity=Unnamed NPC (ID: 17735834/0x010EA09A), yaw=17.4°*)
 11: 0x01A6 [0x1C] WAIT(120* ticks)
 12: 0x01A9 [0x1F] MOVE_ENTITY: EventEntity moves to X=-602.007*, Z=587.764*, Y=0.268*
 13: 0x01B1 [0x1F] MOVE_ENTITY: Update entity position (mode=1)
 14: 0x01B3 [0x1C] WAIT(30* ticks)
 15: 0x01B6 [0x4B] UPDATE_ENTITY_YAW(entity=Unnamed NPC (ID: 17735834/0x010EA09A), yaw=1.9°*)
 16: 0x01BD [0x1C] WAIT(30* ticks)
 17: 0x01C0 [0x00] END_REQSTACK()
```

### Event 65535.18

#### Metadata

| Field        | Value    |
|--------------|----------|
| Entrypoint   | 0x01C1   |
| Data Size    | 67 bytes |
| Instructions | 15       |

```
      00 01 02 03 04 05 06 07  08 09 0A 0B 0C 0D 0E 0F
      -- -- -- -- -- -- -- --  -- -- -- -- -- -- -- --
01C0:    32 47 80 1F 00 48 80  49 80 4A 80 1F 01 4B 9A   2G...H.I.J...K.
01D0: A0 0E 01 4B 80 1C 4C 80  1F 00 4D 80 4E 80 4F 80  ...K..L...M.N.O.
01E0: 1F 01 4B 9A A0 0E 01 50  80 1C 51 80 1F 00 52 80  ..K....P..Q...R.
01F0: 53 80 54 80 1F 01 1C 40  80 4B 9A A0 0E 01 55 80  S.T....@.K....U.
0200: 1C 4C 80 00                                       .L..            
```

#### Opcodes

```
  0: 0x01C1 [0x32] ExtData[1]->MainSpeed = 45* * 0.1
  1: 0x01C4 [0x1F] MOVE_ENTITY: EventEntity moves to X=-599.295*, Z=590.678*, Y=0.264*
  2: 0x01CC [0x1F] MOVE_ENTITY: Update entity position (mode=1)
  3: 0x01CE [0x4B] UPDATE_ENTITY_YAW(entity=Unnamed NPC (ID: 17735834/0x010EA09A), yaw=5.3°*)
  4: 0x01D5 [0x1C] WAIT(60* ticks)
  5: 0x01D8 [0x1F] MOVE_ENTITY: EventEntity moves to X=-604.353*, Z=586.292*, Y=0.138*
  6: 0x01E0 [0x1F] MOVE_ENTITY: Update entity position (mode=1)
  7: 0x01E2 [0x4B] UPDATE_ENTITY_YAW(entity=Unnamed NPC (ID: 17735834/0x010EA09A), yaw=0.2°*)
  8: 0x01E9 [0x1C] WAIT(240* ticks)
  9: 0x01EC [0x1F] MOVE_ENTITY: EventEntity moves to X=-600.328*, Z=582.410*, Y=0.802*
 10: 0x01F4 [0x1F] MOVE_ENTITY: Update entity position (mode=1)
 11: 0x01F6 [0x1C] WAIT(30* ticks)
 12: 0x01F9 [0x4B] UPDATE_ENTITY_YAW(entity=Unnamed NPC (ID: 17735834/0x010EA09A), yaw=16.6°*)
 13: 0x0200 [0x1C] WAIT(60* ticks)
 14: 0x0203 [0x00] END_REQSTACK()
```

### Event 65535.19

#### Metadata

| Field        | Value    |
|--------------|----------|
| Entrypoint   | 0x0204   |
| Data Size    | 14 bytes |
| Instructions | 4        |

```
      00 01 02 03 04 05 06 07  08 09 0A 0B 0C 0D 0E 0F
      -- -- -- -- -- -- -- --  -- -- -- -- -- -- -- --
0200:             32 47 80 1F  00 56 80 57 80 58 80 1F      2G...V.W.X..
0210: 01 00                                             ..              
```

#### Opcodes

```
  0: 0x0204 [0x32] ExtData[1]->MainSpeed = 45* * 0.1
  1: 0x0207 [0x1F] MOVE_ENTITY: EventEntity moves to X=-599.148*, Z=589.043*, Y=0.345*
  2: 0x020F [0x1F] MOVE_ENTITY: Update entity position (mode=1)
  3: 0x0211 [0x00] END_REQSTACK()
```

### Event 65535.20

#### Metadata

| Field        | Value    |
|--------------|----------|
| Entrypoint   | 0x0212   |
| Data Size    | 51 bytes |
| Instructions | 11       |

```
      00 01 02 03 04 05 06 07  08 09 0A 0B 0C 0D 0E 0F
      -- -- -- -- -- -- -- --  -- -- -- -- -- -- -- --
0210:       32 47 80 1F 00 59  80 5A 80 5B 80 1F 01 1F    2G...Y.Z.[....
0220: 00 5C 80 5D 80 5E 80 1F  01 1F 00 5F 80 60 80 61  .\.].^....._.`.a
0230: 80 1F 01 1E 97 A0 0E 01  1C 40 80 4A 97 A0 0E 01  .........@.J....
0240: 9A A0 0E 01 00                                    .....           
```

#### Opcodes

```
  0: 0x0212 [0x32] ExtData[1]->MainSpeed = 45* * 0.1
  1: 0x0215 [0x1F] MOVE_ENTITY: EventEntity moves to X=-604.257*, Z=586.573*, Y=0.057*
  2: 0x021D [0x1F] MOVE_ENTITY: Update entity position (mode=1)
  3: 0x021F [0x1F] MOVE_ENTITY: EventEntity moves to X=-603.318*, Z=588.527*, Y=0.196*
  4: 0x0227 [0x1F] MOVE_ENTITY: Update entity position (mode=1)
  5: 0x0229 [0x1F] MOVE_ENTITY: EventEntity moves to X=-601.495*, Z=586.040*, Y=0.496*
  6: 0x0231 [0x1F] MOVE_ENTITY: Update entity position (mode=1)
  7: 0x0233 [0x1E] EventEntity looks at Unnamed NPC (ID: 17735831/0x010EA097) and starts talking
  8: 0x0238 [0x1C] WAIT(30* ticks)
  9: 0x023B [0x4A] Unnamed NPC (ID: 17735831/0x010EA097) looks at Unnamed NPC (ID: 17735834/0x010EA09A)
 10: 0x0244 [0x00] END_REQSTACK()
```

### Event 65535.21

#### Metadata

| Field        | Value    |
|--------------|----------|
| Entrypoint   | 0x0245   |
| Data Size    | 15 bytes |
| Instructions | 3        |

```
      00 01 02 03 04 05 06 07  08 09 0A 0B 0C 0D 0E 0F
      -- -- -- -- -- -- -- --  -- -- -- -- -- -- -- --
0240:                37 43 80  44 80 45 80 33 80 80 F8       7C.D.E.3...
0250: FF FF 7F 00                                       ....            
```

#### Opcodes

```
  0: 0x0245 [0x37] UPDATE_EVENT_POSITION_AND_DIR: x=-602.007*, z=587.764*, y=0.268*, direction=25.0°*
  1: 0x024E [0x80] LOAD_WAIT(entity=EventEntity)
  2: 0x0253 [0x00] END_REQSTACK()
```

### Event 65535.22

#### Metadata

| Field        | Value    |
|--------------|----------|
| Entrypoint   | 0x0254   |
| Data Size    | 69 bytes |
| Instructions | 15       |

```
      00 01 02 03 04 05 06 07  08 09 0A 0B 0C 0D 0E 0F
      -- -- -- -- -- -- -- --  -- -- -- -- -- -- -- --
0250:             32 47 80 1F  00 62 80 63 80 64 80 1F      2G...b.c.d..
0260: 01 1F 00 65 80 66 80 67  80 1F 01 1F 00 68 80 69  ...e.f.g.....h.i
0270: 80 6A 80 1F 01 1F 00 6B  80 6C 80 6D 80 1F 01 1F  .j.....k.l.m....
0280: 00 6E 80 6F 80 70 80 1F  01 1F 00 71 80 72 80 73  .n.o.p.....q.r.s
0290: 80 1F 01 1E 97 A0 0E 01  00                       .........       
```

#### Opcodes

```
  0: 0x0254 [0x32] ExtData[1]->MainSpeed = 45* * 0.1
  1: 0x0257 [0x1F] MOVE_ENTITY: EventEntity moves to X=-602.454*, Z=588.333*, Y=0.247*
  2: 0x025F [0x1F] MOVE_ENTITY: Update entity position (mode=1)
  3: 0x0261 [0x1F] MOVE_ENTITY: EventEntity moves to X=-603.634*, Z=585.657*, Y=0.144*
  4: 0x0269 [0x1F] MOVE_ENTITY: Update entity position (mode=1)
  5: 0x026B [0x1F] MOVE_ENTITY: EventEntity moves to X=-602.421*, Z=582.680*, Y=0.396*
  6: 0x0273 [0x1F] MOVE_ENTITY: Update entity position (mode=1)
  7: 0x0275 [0x1F] MOVE_ENTITY: EventEntity moves to X=-599.175*, Z=582.899*, Y=0.854*
  8: 0x027D [0x1F] MOVE_ENTITY: Update entity position (mode=1)
  9: 0x027F [0x1F] MOVE_ENTITY: EventEntity moves to X=-598.432*, Z=587.737*, Y=0.410*
 10: 0x0287 [0x1F] MOVE_ENTITY: Update entity position (mode=1)
 11: 0x0289 [0x1F] MOVE_ENTITY: EventEntity moves to X=-599.890*, Z=589.432*, Y=0.326*
 12: 0x0291 [0x1F] MOVE_ENTITY: Update entity position (mode=1)
 13: 0x0293 [0x1E] EventEntity looks at Unnamed NPC (ID: 17735831/0x010EA097) and starts talking
 14: 0x0298 [0x00] END_REQSTACK()
```
