# 17735703 - Elki

## Common Data

| Field            | Value                  |
|------------------|------------------------|
| Zone             | Bastok Mines (ID: 234) |
| Block Size       | 1012 bytes             |
| Total Events     | 13                     |
| References Count | 55                     |

## List of Events

| Event ID                 | Entrypoint   |   Size |   Instructions |
|--------------------------|--------------|--------|----------------|
| [65535](#event-65535)    | 0x0000       |      1 |              1 |
| [1](#event-1)            | 0x0001       |     10 |              2 |
| [31](#event-31)          | 0x000B       |     11 |              5 |
| [41](#event-41)          | 0x0016       |    126 |             28 |
| [42](#event-42)          | 0x0094       |     52 |             12 |
| [43](#event-43)          | 0x00C8       |    392 |             61 |
| [44](#event-44)          | 0x0250       |     47 |             15 |
| [45](#event-45)          | 0x027F       |     12 |              3 |
| [65535.1](#event-655351) | 0x028B       |     29 |              7 |
| [65535.2](#event-655352) | 0x02A8       |     26 |              7 |
| [65535.3](#event-655353) | 0x02C2       |      6 |              2 |
| [180](#event-180)        | 0x02C8       |      1 |              1 |
| [65535.4](#event-655354) | 0x02C9       |     10 |              2 |

## DAT References (imed_data)

|   Index | Hex Value   |   Dec Value |
|---------|-------------|-------------|
|       0 | 0xFFFFFD7E  |  4294966654 |
|       1 | 0xFFFF2FA6  |  4294913958 |
|       2 | 0xFFFFF449  |  4294964297 |
|       3 | 0x0B83      |        2947 |
|       4 | 0x298F      |       10639 |
|       5 | 0x2990      |       10640 |
|       6 | 0x0000      |           0 |
|       7 | 0x2991      |       10641 |
|       8 | 0x2992      |       10642 |
|       9 | 0x0017      |          23 |
|      10 | 0x2993      |       10643 |
|      11 | 0x2994      |       10644 |
|      12 | 0x2995      |       10645 |
|      13 | 0x0001      |           1 |
|      14 | 0x2996      |       10646 |
|      15 | 0x2997      |       10647 |
|      16 | 0x2998      |       10648 |
|      17 | 0x2999      |       10649 |
|      18 | 0x00C9      |         201 |
|      19 | 0x010F      |         271 |
|      20 | 0x00C8      |         200 |
|      21 | 0x0003      |           3 |
|      22 | 0x0086      |         134 |
|      23 | 0x299A      |       10650 |
|      24 | 0x299B      |       10651 |
|      25 | 0x299C      |       10652 |
|      26 | 0x299D      |       10653 |
|      27 | 0x299E      |       10654 |
|      28 | 0x299F      |       10655 |
|      29 | 0x29A0      |       10656 |
|      30 | 0x29A1      |       10657 |
|      31 | 0x29A2      |       10658 |
|      32 | 0x29A3      |       10659 |
|      33 | 0x29A4      |       10660 |
|      34 | 0x0002      |           2 |
|      35 | 0x29A5      |       10661 |
|      36 | 0x29A6      |       10662 |
|      37 | 0x29A7      |       10663 |
|      38 | 0x29A8      |       10664 |
|      39 | 0x29A9      |       10665 |
|      40 | 0x29AA      |       10666 |
|      41 | 0x10BE5     |       68581 |
|      42 | 0x5325      |       21285 |
|      43 | 0xFFFFFFD4  |  4294967252 |
|      44 | 0x0829      |        2089 |
|      45 | 0x000D      |          13 |
|      46 | 0x10670     |       67184 |
|      47 | 0x59D8      |       23000 |
|      48 | 0x102CD     |       66253 |
|      49 | 0x6BFD      |       27645 |
|      50 | 0xFFFFFFA2  |  4294967202 |
|      51 | 0xFFFFBA91  |  4294949521 |
|      52 | 0x7526      |       29990 |
|      53 | 0x1B57      |        6999 |
|      54 | 0x0877      |        2167 |

## String References

- **10639**: I'm here in Bastok to investigate a few things about the Palborough Mines.
- **10640**: You're an adventurer, aren't you? Could you do me a favor?
- **10641**: There is a monument at the top of Zegham Hill in North Gustaberg, erected in honor of the pioneers who dug the Palborough Mines.
- **10642**: My great-grandfather was one of them. I wanted to go visit his grave there, but I couldn't get past all the monsters.
- **10643**: If it's not too much trouble, I was wondering if you could place this $3 at the monument for me.
- **10644**: Visit the monument in Elki's stead? [Yes./No.]
- **10645**: Thank you. There are ten names engraved on the monument. Look for an "Omran." He was my great-grandfather.
- **10646**: Of course... I'm sorry. Asking a total stranger to risk his life for me... I was being presumptuous.
- **10647**: Thank you for your kindness. It's good to hear that Omran's name is still there, after all these years.
- **10648**: There was an eleventh name? "Vig****t O**"? No, I'm sorry, I don't know who that is. Wait, unless...
- **10649**: No, never mind. Thank you again. Here, this is for your trouble.
- **10650**: Ah, it's you. Thank you for the other day. As you might have guessed, visiting my great-grandfather's grave was not the only thing I came here to do.
- **10651**: Upon further examination of my great-grandfather's diary, I've come to believe that there were eleven pioneers who dug the Palborough Mines, not ten.
- **10652**: My great-grandfather seemed to truly regret the fact that this last pioneer's name was never recorded in the annals alongside theirs.
- **10653**: I believe the name you found, this "Vig****t O**," is the name of that last pioneer...
- **10654**: But I can't seem to find a name to fit those letters. It has been more than a hundred fifty years, so I don't think he'd still be alive, but...
- **10655**: If you can find any information on this person, I'd be truly grateful.
- **10656**: Help investigate? [Ask for more information./Help./Don't help.]
- **10657**: The Palborough Mines were the first mines to be dug using "explosives," a Hume invention.
- **10658**: Before then, Bastok had to rely on the strength of the Galka to dig its mines. When the ten Hume pioneers dug one using only their wits and technology, it was a major turning point in Bastok's history.
- **10659**: Any other clue that might shed light on the Palborough Mines' past would be in the mines themselves.
- **10660**: Thank you. If you find anything out, please tell me right away.
- **10661**: I see... Thanks anyway.
- **10662**: Eleven sets of tools? The names of the pioneers are written on them...
- **10663**: The eleventh pioneer's name was..."Vigilant Owl"? It sounds like a Galka name.
- **10664**: And they say the Palborough Mines were dug only by Humes...
- **10665**: Wait, there's another inscription on this tool... "Babenn"? Is that another name?
- **10666**: I wonder what this means... I'll try to find out more on my side, but let me know if you come across any more information.

## Events

### Event 65535

#### Metadata

| Field        | Value   |
|--------------|---------|
| Entrypoint   | 0x0000  |
| Data Size    | 1 bytes |
| Instructions | 1       |

```
      00 01 02 03 04 05 06 07  08 09 0A 0B 0C 0D 0E 0F
      -- -- -- -- -- -- -- --  -- -- -- -- -- -- -- --
0000: 00                                                .               
```

#### Opcodes

```
  0: 0x0000 [0x00] END_REQSTACK()
```

### Event 1

#### Metadata

| Field        | Value    |
|--------------|----------|
| Entrypoint   | 0x0001   |
| Data Size    | 10 bytes |
| Instructions | 2        |

```
      00 01 02 03 04 05 06 07  08 09 0A 0B 0C 0D 0E 0F
      -- -- -- -- -- -- -- --  -- -- -- -- -- -- -- --
0000:    37 00 80 01 80 02 80  03 80 00                  7.........     
```

#### Opcodes

```
  0: 0x0001 [0x37] UPDATE_EVENT_POSITION_AND_DIR: x=-0.642*, z=-53.338*, y=-2.999*, direction=259.0°*
  1: 0x000A [0x00] END_REQSTACK()
```

### Event 31

#### Metadata

| Field        | Value    |
|--------------|----------|
| Entrypoint   | 0x000B   |
| Data Size    | 11 bytes |
| Instructions | 5        |

```
      00 01 02 03 04 05 06 07  08 09 0A 0B 0C 0D 0E 0F
      -- -- -- -- -- -- -- --  -- -- -- -- -- -- -- --
0000:                                   1E F0 FF FF 7F             .....
0010: 1D 04 80 23 21 00                                 ...#!.          
```

#### Opcodes

```
  0: 0x000B [0x1E] EventEntity looks at LocalPlayer and starts talking
  1: 0x0010 [0x1D] PRINT_EVENT_MESSAGE(message_id=10639*)
    → "I'm here in Bastok to investigate a few things about the Palborough Mines."
  2: 0x0013 [0x23] WAIT_FOR_DIALOG_INTERACTION
  3: 0x0014 [0x21] END_EVENT
  4: 0x0015 [0x00] END_REQSTACK()
```

### Event 41

#### Metadata

| Field        | Value     |
|--------------|-----------|
| Entrypoint   | 0x0016    |
| Data Size    | 126 bytes |
| Instructions | 28        |

```
      00 01 02 03 04 05 06 07  08 09 0A 0B 0C 0D 0E 0F
      -- -- -- -- -- -- -- --  -- -- -- -- -- -- -- --
0010:                   1E F0  FF FF 7F 1D 05 80 23 66        ........#f
0020: 06 80 F8 FF FF 7F F8 FF  FF 7F 74 6C 6B 30 1D 07  ..........tlk0..
0030: 80 23 1D 08 80 23 03 09  10 09 80 1D 0A 80 23 5E  .#...#........#^
0040: 69 64 6C 30 24 0B 80 06  80 06 80 25 02 00 10 06  idl0$......%....
0050: 80 00 6F 00 66 06 80 F8  FF FF 7F F8 FF FF 7F 74  ..o.f..........t
0060: 6C 6B 30 1D 0C 80 23 03  01 10 06 80 01 92 00 02  lk0...#.........
0070: 00 10 0D 80 00 92 00 66  06 80 F8 FF FF 7F F8 FF  .......f........
0080: FF 7F 74 6C 6B 30 1D 0E  80 23 03 01 10 0D 80 01  ..tlk0...#......
0090: 92 00 21 00                                       ..!.            
```

#### Opcodes

```
  0: 0x0016 [0x1E] EventEntity looks at LocalPlayer and starts talking
  1: 0x001B [0x1D] PRINT_EVENT_MESSAGE(message_id=10640*)
    → "You're an adventurer, aren't you? Could you do me a favor?"
  2: 0x001E [0x23] WAIT_FOR_DIALOG_INTERACTION
  3: 0x001F [0x66] LOAD_EXT_SCHEDULER_MAIN: Load scheduler "tlk0" with entities [EventEntity, EventEntity], work=0*
  4: 0x002E [0x1D] PRINT_EVENT_MESSAGE(message_id=10641*)
    → "There is a monument at the top of Zegham Hill in North Gustaberg, erected in honor of the pioneers who dug the Palborough Mines."
  5: 0x0031 [0x23] WAIT_FOR_DIALOG_INTERACTION
  6: 0x0032 [0x1D] PRINT_EVENT_MESSAGE(message_id=10642*)
    → "My great-grandfather was one of them. I wanted to go visit his grave there, but I couldn't get past all the monsters."
  7: 0x0035 [0x23] WAIT_FOR_DIALOG_INTERACTION
  8: 0x0036 [0x03] Work_Zone[9] = 23*
  9: 0x003B [0x1D] PRINT_EVENT_MESSAGE(message_id=10643*)
    → "If it's not too much trouble, I was wondering if you could place this $3 at the monument for me."
 10: 0x003E [0x23] WAIT_FOR_DIALOG_INTERACTION
 11: 0x003F [0x5E] EventEntity goes idle (kills current action) (animation: "idl0")
 12: 0x0044 [0x24] CREATE_DIALOG(message_id=10644*, default_option=0*, option_flags=0*)
    → "Visit the monument in Elki's stead? [Yes./No.]"
 13: 0x004B [0x25] WAIT_DIALOG_SELECT()
 14: 0x004C [0x02] IF !(Work_Zone[0] == 0*) GOTO 0x006F
 15: 0x0054 [0x66] LOAD_EXT_SCHEDULER_MAIN: Load scheduler "tlk0" with entities [EventEntity, EventEntity], work=0*
 16: 0x0063 [0x1D] PRINT_EVENT_MESSAGE(message_id=10645*)
    → "Thank you. There are ten names engraved on the monument. Look for an "Omran." He was my great-grandfather."
 17: 0x0066 [0x23] WAIT_FOR_DIALOG_INTERACTION
 18: 0x0067 [0x03] Work_Zone[1] = 0*
 19: 0x006C [0x01] GOTO 0x0092
 20: 0x006F [0x02] IF !(Work_Zone[0] == 1*) GOTO 0x0092
 21: 0x0077 [0x66] LOAD_EXT_SCHEDULER_MAIN: Load scheduler "tlk0" with entities [EventEntity, EventEntity], work=0*
 22: 0x0086 [0x1D] PRINT_EVENT_MESSAGE(message_id=10646*)
    → "Of course... I'm sorry. Asking a total stranger to risk his life for me... I was being presumptuous."
 23: 0x0089 [0x23] WAIT_FOR_DIALOG_INTERACTION
 24: 0x008A [0x03] Work_Zone[1] = 1*
 25: 0x008F [0x01] GOTO 0x0092

SUBROUTINE_0092:
 26: 0x0092 [0x21] END_EVENT
 27: 0x0093 [0x00] END_REQSTACK()
```

### Event 42

#### Metadata

| Field        | Value    |
|--------------|----------|
| Entrypoint   | 0x0094   |
| Data Size    | 52 bytes |
| Instructions | 12       |

```
      00 01 02 03 04 05 06 07  08 09 0A 0B 0C 0D 0E 0F
      -- -- -- -- -- -- -- --  -- -- -- -- -- -- -- --
0090:             42 1E F0 FF  FF 7F 1D 0F 80 23 66 06      B........#f.
00A0: 80 F8 FF FF 7F F8 FF FF  7F 74 6C 6B 30 1D 10 80  .........tlk0...
00B0: 23 1D 11 80 23 45 12 80  F0 FF FF 7F F0 FF FF 7F  #...#E..........
00C0: 71 73 74 63 06 80 21 00                           qstc..!.        
```

#### Opcodes

```
  0: 0x0094 [0x42] SET_CLI_EVENT_CANCEL_DATA()
  1: 0x0095 [0x1E] EventEntity looks at LocalPlayer and starts talking
  2: 0x009A [0x1D] PRINT_EVENT_MESSAGE(message_id=10647*)
    → "Thank you for your kindness. It's good to hear that Omran's name is still there, after all these years."
  3: 0x009D [0x23] WAIT_FOR_DIALOG_INTERACTION
  4: 0x009E [0x66] LOAD_EXT_SCHEDULER_MAIN: Load scheduler "tlk0" with entities [EventEntity, EventEntity], work=0*
  5: 0x00AD [0x1D] PRINT_EVENT_MESSAGE(message_id=10648*)
    → "There was an eleventh name? "Vig****t O**"? No, I'm sorry, I don't know who that is. Wait, unless..."
  6: 0x00B0 [0x23] WAIT_FOR_DIALOG_INTERACTION
  7: 0x00B1 [0x1D] PRINT_EVENT_MESSAGE(message_id=10649*)
    → "No, never mind. Thank you again. Here, this is for your trouble."
  8: 0x00B4 [0x23] WAIT_FOR_DIALOG_INTERACTION
  9: 0x00B5 [0x45] LOAD_SCHEDULED_TASK: Load scheduler "qstc" with entities [LocalPlayer, LocalPlayer], work=[201*, 0*]
 10: 0x00C6 [0x21] END_EVENT
 11: 0x00C7 [0x00] END_REQSTACK()
```

### Event 43

#### Metadata

| Field        | Value     |
|--------------|-----------|
| Entrypoint   | 0x00C8    |
| Data Size    | 392 bytes |
| Instructions | 48        |

```
      00 01 02 03 04 05 06 07  08 09 0A 0B 0C 0D 0E 0F
      -- -- -- -- -- -- -- --  -- -- -- -- -- -- -- --
00C0:                          42 75 00 13 80 75 01 45          Bu...u.E
00D0: 14 80 F8 FF FF 7F F8 FF  FF 7F 66 64 6F 30 06 80  ..........fdo0..
00E0: 55 14 80 F8 FF FF 7F F8  FF FF 7F 66 64 6F 30 46  U..........fdo0F
00F0: 01 38 15 80 29 0A F0 FF  FF 7F 19 45 16 80 F8 FF  .8..)......E....
0100: FF 7F F8 FF FF 7F 73 30  34 38 06 80 45 14 80 F8  ......s048..E...
0110: FF FF 7F F8 FF FF 7F 66  64 69 30 06 80 4A F0 FF  .......fdi0..J..
0120: FF 7F F8 FF FF 7F 1E F0  FF FF 7F 1D 17 80 23 66  ..............#f
0130: 06 80 F8 FF FF 7F F8 FF  FF 7F 74 6C 6B 30 1D 18  ..........tlk0..
0140: 80 23 1D 19 80 23 52 16  80 F8 FF FF 7F F8 FF FF  .#...#R.........
0150: 7F 73 30 34 38 45 16 80  F8 FF FF 7F F8 FF FF 7F  .s048E..........
0160: 73 30 34 39 06 80 1D 1A  80 23 66 06 80 F8 FF FF  s049.....#f.....
0170: 7F F8 FF FF 7F 74 6C 6B  32 1D 1B 80 23 66 06 80  .....tlk2...#f..
0180: F8 FF FF 7F F8 FF FF 7F  74 65 6E 32 1D 1C 80 23  ........ten2...#
0190: 03 00 00 06 80 24 1D 80  06 80 06 80 25 02 00 10  .....$......%...
01A0: 06 80 00 D5 01 66 06 80  F8 FF FF 7F F8 FF FF 7F  .....f..........
01B0: 74 6C 6B 30 1D 1E 80 23  1D 1F 80 23 66 06 80 F8  tlk0...#...#f...
01C0: FF FF 7F F8 FF FF 7F 74  65 6E 30 1D 20 80 23 01  .......ten0. .#.
01D0: 95 01 01 1B 02 02 00 10  0D 80 00 F8 01 66 06 80  .............f..
01E0: F8 FF FF 7F F8 FF FF 7F  74 6C 6B 30 1D 21 80 23  ........tlk0.!.#
01F0: 03 01 10 0D 80 01 1B 02  02 00 10 22 80 00 1B 02  ..........."....
0200: 66 06 80 F8 FF FF 7F F8  FF FF 7F 74 6C 6B 30 1D  f..........tlk0.
0210: 23 80 23 03 01 10 22 80  01 1B 02 45 14 80 F8 FF  #.#..."....E....
0220: FF 7F F8 FF FF 7F 66 64  6F 30 06 80 55 14 80 F8  ......fdo0..U...
0230: FF FF 7F F8 FF FF 7F 66  64 6F 30 46 00 45 14 80  .......fdo0F.E..
0240: F8 FF FF 7F F8 FF FF 7F  66 64 69 31 06 80 21 00  ........fdi1..!.
```

#### Opcodes

```
  0: 0x00C8 [0x42] SET_CLI_EVENT_CANCEL_DATA()
  1: 0x00C9 [0x75] LOAD_ROOM(Load indoor room, room=271*)
  2: 0x00CD [0x75] LOAD_ROOM(No action)
  3: 0x00CF [0x45] LOAD_SCHEDULED_TASK: Load scheduler "fdo0" with entities [EventEntity, EventEntity], work=[200*, 0*]
  4: 0x00E0 [0x55] WAIT_LOAD_SCHEDULER: Wait for scheduler "fdo0" with entities [EventEntity, EventEntity], work=200*
  5: 0x00EF [0x46] CAMERA_CONTROL: Disable user control
  6: 0x00F1 [0x38] SET_CLIENT_EVENT_MODE(mode=3*)
  7: 0x00F4 [0x29] REQ_SET_WAIT(priority=0x0A, entity_id=LocalPlayer, tag_num=0x19)
  8: 0x00FB [0x45] LOAD_SCHEDULED_TASK: Load scheduler "s048" with entities [EventEntity, EventEntity], work=[134*, 0*]
  9: 0x010C [0x45] LOAD_SCHEDULED_TASK: Load scheduler "fdi0" with entities [EventEntity, EventEntity], work=[200*, 0*]
 10: 0x011D [0x4A] LocalPlayer looks at EventEntity
 11: 0x0126 [0x1E] EventEntity looks at LocalPlayer and starts talking
 12: 0x012B [0x1D] PRINT_EVENT_MESSAGE(message_id=10650*)
    → "Ah, it's you. Thank you for the other day. As you might have guessed, visiting my great-grandfather's grave was not the only thing I came here to do."
 13: 0x012E [0x23] WAIT_FOR_DIALOG_INTERACTION
 14: 0x012F [0x66] LOAD_EXT_SCHEDULER_MAIN: Load scheduler "tlk0" with entities [EventEntity, EventEntity], work=0*
 15: 0x013E [0x1D] PRINT_EVENT_MESSAGE(message_id=10651*)
    → "Upon further examination of my great-grandfather's diary, I've come to believe that there were eleven pioneers who dug the Palborough Mines, not ten."
 16: 0x0141 [0x23] WAIT_FOR_DIALOG_INTERACTION
 17: 0x0142 [0x1D] PRINT_EVENT_MESSAGE(message_id=10652*)
    → "My great-grandfather seemed to truly regret the fact that this last pioneer's name was never recorded in the annals alongside theirs."
 18: 0x0145 [0x23] WAIT_FOR_DIALOG_INTERACTION
 19: 0x0146 [0x52] END_LOAD_SCHEDULER: End scheduler "s048" with entities [EventEntity, EventEntity], work=134*
 20: 0x0155 [0x45] LOAD_SCHEDULED_TASK: Load scheduler "s049" with entities [EventEntity, EventEntity], work=[134*, 0*]
 21: 0x0166 [0x1D] PRINT_EVENT_MESSAGE(message_id=10653*)
    → "I believe the name you found, this "Vig****t O**," is the name of that last pioneer..."
 22: 0x0169 [0x23] WAIT_FOR_DIALOG_INTERACTION
 23: 0x016A [0x66] LOAD_EXT_SCHEDULER_MAIN: Load scheduler "tlk2" with entities [EventEntity, EventEntity], work=0*
 24: 0x0179 [0x1D] PRINT_EVENT_MESSAGE(message_id=10654*)
    → "But I can't seem to find a name to fit those letters. It has been more than a hundred fifty years, so I don't think he'd still be alive, but..."
 25: 0x017C [0x23] WAIT_FOR_DIALOG_INTERACTION
 26: 0x017D [0x66] LOAD_EXT_SCHEDULER_MAIN: Load scheduler "ten2" with entities [EventEntity, EventEntity], work=0*
 27: 0x018C [0x1D] PRINT_EVENT_MESSAGE(message_id=10655*)
    → "If you can find any information on this person, I'd be truly grateful."
 28: 0x018F [0x23] WAIT_FOR_DIALOG_INTERACTION
 29: 0x0190 [0x03] ExtData[1]->WorkLocal[0] = 0*
 30: 0x0195 [0x24] CREATE_DIALOG(message_id=10656*, default_option=0*, option_flags=0*)
    → "Help investigate? [Ask for more information./Help./Don't help.]"
 31: 0x019C [0x25] WAIT_DIALOG_SELECT()
 32: 0x019D [0x02] IF !(Work_Zone[0] == 0*) GOTO 0x01D5
 33: 0x01A5 [0x66] LOAD_EXT_SCHEDULER_MAIN: Load scheduler "tlk0" with entities [EventEntity, EventEntity], work=0*
 34: 0x01B4 [0x1D] PRINT_EVENT_MESSAGE(message_id=10657*)
    → "The Palborough Mines were the first mines to be dug using "explosives," a Hume invention."
 35: 0x01B7 [0x23] WAIT_FOR_DIALOG_INTERACTION
 36: 0x01B8 [0x1D] PRINT_EVENT_MESSAGE(message_id=10658*)
    → "Before then, Bastok had to rely on the strength of the Galka to dig its mines. When the ten Hume pioneers dug one using only their wits and technology, it was a major turning point in Bastok's history."
 37: 0x01BB [0x23] WAIT_FOR_DIALOG_INTERACTION
 38: 0x01BC [0x66] LOAD_EXT_SCHEDULER_MAIN: Load scheduler "ten0" with entities [EventEntity, EventEntity], work=0*
 39: 0x01CB [0x1D] PRINT_EVENT_MESSAGE(message_id=10659*)
    → "Any other clue that might shed light on the Palborough Mines' past would be in the mines themselves."
 40: 0x01CE [0x23] WAIT_FOR_DIALOG_INTERACTION
 41: 0x01CF [0x01] GOTO 0x0195

SUBROUTINE_021B:
 42: 0x021B [0x45] LOAD_SCHEDULED_TASK: Load scheduler "fdo0" with entities [EventEntity, EventEntity], work=[200*, 0*]
 43: 0x022C [0x55] WAIT_LOAD_SCHEDULER: Wait for scheduler "fdo0" with entities [EventEntity, EventEntity], work=200*
 44: 0x023B [0x46] CAMERA_CONTROL: Restore default settings
 45: 0x023D [0x45] LOAD_SCHEDULED_TASK: Load scheduler "fdi1" with entities [EventEntity, EventEntity], work=[200*, 0*]
 46: 0x024E [0x21] END_EVENT
 47: 0x024F [0x00] END_REQSTACK()
```

#### Data or dead code:

```
# Dead code (unreachable instructions):
     0x01D2 [0x01] GOTO 0x021B
```

### Event 44

#### Metadata

| Field        | Value    |
|--------------|----------|
| Entrypoint   | 0x0250   |
| Data Size    | 47 bytes |
| Instructions | 15       |

```
      00 01 02 03 04 05 06 07  08 09 0A 0B 0C 0D 0E 0F
      -- -- -- -- -- -- -- --  -- -- -- -- -- -- -- --
0250: 1E F0 FF FF 7F 1D 24 80  23 1D 25 80 23 66 06 80  ......$.#.%.#f..
0260: F8 FF FF 7F F8 FF FF 7F  74 6C 6B 30 1D 26 80 23  ........tlk0.&.#
0270: 1D 27 80 23 5E 69 64 6C  30 1D 28 80 23 21 00     .'.#^idl0.(.#!. 
```

#### Opcodes

```
  0: 0x0250 [0x1E] EventEntity looks at LocalPlayer and starts talking
  1: 0x0255 [0x1D] PRINT_EVENT_MESSAGE(message_id=10662*)
    → "Eleven sets of tools? The names of the pioneers are written on them..."
  2: 0x0258 [0x23] WAIT_FOR_DIALOG_INTERACTION
  3: 0x0259 [0x1D] PRINT_EVENT_MESSAGE(message_id=10663*)
    → "The eleventh pioneer's name was..."Vigilant Owl"? It sounds like a Galka name."
  4: 0x025C [0x23] WAIT_FOR_DIALOG_INTERACTION
  5: 0x025D [0x66] LOAD_EXT_SCHEDULER_MAIN: Load scheduler "tlk0" with entities [EventEntity, EventEntity], work=0*
  6: 0x026C [0x1D] PRINT_EVENT_MESSAGE(message_id=10664*)
    → "And they say the Palborough Mines were dug only by Humes..."
  7: 0x026F [0x23] WAIT_FOR_DIALOG_INTERACTION
  8: 0x0270 [0x1D] PRINT_EVENT_MESSAGE(message_id=10665*)
    → "Wait, there's another inscription on this tool... "Babenn"? Is that another name?"
  9: 0x0273 [0x23] WAIT_FOR_DIALOG_INTERACTION
 10: 0x0274 [0x5E] EventEntity goes idle (kills current action) (animation: "idl0")
 11: 0x0279 [0x1D] PRINT_EVENT_MESSAGE(message_id=10666*)
    → "I wonder what this means... I'll try to find out more on my side, but let me know if you come across any more information."
 12: 0x027C [0x23] WAIT_FOR_DIALOG_INTERACTION
 13: 0x027D [0x21] END_EVENT
 14: 0x027E [0x00] END_REQSTACK()
```

### Event 45

#### Metadata

| Field        | Value    |
|--------------|----------|
| Entrypoint   | 0x027F   |
| Data Size    | 12 bytes |
| Instructions | 3        |

```
      00 01 02 03 04 05 06 07  08 09 0A 0B 0C 0D 0E 0F
      -- -- -- -- -- -- -- --  -- -- -- -- -- -- -- --
0270:                                               22                 "
0280: 01 37 29 80 2A 80 2B 80  2C 80 00                 .7).*.+.,..     
```

#### Opcodes

```
  0: 0x027F [0x22] ENTITY_HIDE_FLAG(enabled=0x01)
  1: 0x0281 [0x37] UPDATE_EVENT_POSITION_AND_DIR: x=68.581*, z=21.285*, y=-0.044*, direction=183.6°*
  2: 0x028A [0x00] END_REQSTACK()
```

### Event 65535.1

#### Metadata

| Field        | Value    |
|--------------|----------|
| Entrypoint   | 0x028B   |
| Data Size    | 29 bytes |
| Instructions | 7        |

```
      00 01 02 03 04 05 06 07  08 09 0A 0B 0C 0D 0E 0F
      -- -- -- -- -- -- -- --  -- -- -- -- -- -- -- --
0280:                                   32 2D 80 1F 00             2-...
0290: 2E 80 2F 80 2B 80 1F 01  1F 00 30 80 31 80 32 80  ../.+.....0.1.2.
02A0: 1F 01 1E 26 A0 0E 01 00                           ...&....        
```

#### Opcodes

```
  0: 0x028B [0x32] ExtData[1]->MainSpeed = 13* * 0.1
  1: 0x028E [0x1F] MOVE_ENTITY: EventEntity moves to X=67.184*, Z=23.000*, Y=-0.044*
  2: 0x0296 [0x1F] MOVE_ENTITY: Update entity position (mode=1)
  3: 0x0298 [0x1F] MOVE_ENTITY: EventEntity moves to X=66.253*, Z=27.645*, Y=-0.094*
  4: 0x02A0 [0x1F] MOVE_ENTITY: Update entity position (mode=1)
  5: 0x02A2 [0x1E] EventEntity looks at Babenn (ID: 17735718/0x010EA026) and starts talking
  6: 0x02A7 [0x00] END_REQSTACK()
```

### Event 65535.2

#### Metadata

| Field        | Value    |
|--------------|----------|
| Entrypoint   | 0x02A8   |
| Data Size    | 26 bytes |
| Instructions | 7        |

```
      00 01 02 03 04 05 06 07  08 09 0A 0B 0C 0D 0E 0F
      -- -- -- -- -- -- -- --  -- -- -- -- -- -- -- --
02A0:                          32 2D 80 1F 00 30 80 31          2-...0.1
02B0: 80 32 80 1F 01 1F 00 29  80 2A 80 2B 80 1F 01 22  .2.....).*.+..."
02C0: 01 00                                             ..              
```

#### Opcodes

```
  0: 0x02A8 [0x32] ExtData[1]->MainSpeed = 13* * 0.1
  1: 0x02AB [0x1F] MOVE_ENTITY: EventEntity moves to X=66.253*, Z=27.645*, Y=-0.094*
  2: 0x02B3 [0x1F] MOVE_ENTITY: Update entity position (mode=1)
  3: 0x02B5 [0x1F] MOVE_ENTITY: EventEntity moves to X=68.581*, Z=21.285*, Y=-0.044*
  4: 0x02BD [0x1F] MOVE_ENTITY: Update entity position (mode=1)
  5: 0x02BF [0x22] ENTITY_HIDE_FLAG(enabled=0x01)
  6: 0x02C1 [0x00] END_REQSTACK()
```

### Event 65535.3

#### Metadata

| Field        | Value   |
|--------------|---------|
| Entrypoint   | 0x02C2  |
| Data Size    | 6 bytes |
| Instructions | 2       |

```
      00 01 02 03 04 05 06 07  08 09 0A 0B 0C 0D 0E 0F
      -- -- -- -- -- -- -- --  -- -- -- -- -- -- -- --
02C0:       5E 69 64 6C 30 00                             ^idl0.        
```

#### Opcodes

```
  0: 0x02C2 [0x5E] EventEntity goes idle (kills current action) (animation: "idl0")
  1: 0x02C7 [0x00] END_REQSTACK()
```

### Event 180

#### Metadata

| Field        | Value   |
|--------------|---------|
| Entrypoint   | 0x02C8  |
| Data Size    | 1 bytes |
| Instructions | 1       |

```
      00 01 02 03 04 05 06 07  08 09 0A 0B 0C 0D 0E 0F
      -- -- -- -- -- -- -- --  -- -- -- -- -- -- -- --
02C0:                          00                               .       
```

#### Opcodes

```
  0: 0x02C8 [0x00] END_REQSTACK()
```

### Event 65535.4

#### Metadata

| Field        | Value    |
|--------------|----------|
| Entrypoint   | 0x02C9   |
| Data Size    | 10 bytes |
| Instructions | 2        |

```
      00 01 02 03 04 05 06 07  08 09 0A 0B 0C 0D 0E 0F
      -- -- -- -- -- -- -- --  -- -- -- -- -- -- -- --
02C0:                             37 33 80 34 80 35 80           73.4.5.
02D0: 36 80 00                                          6..             
```

#### Opcodes

```
  0: 0x02C9 [0x37] UPDATE_EVENT_POSITION_AND_DIR: x=-17.775*, z=29.990*, y=6.999*, direction=190.5°*
  1: 0x02D2 [0x00] END_REQSTACK()
```
