# 17735793 - Gabbot

## Common Data

| Field            | Value                  |
|------------------|------------------------|
| Zone             | Bastok Mines (ID: 234) |
| Block Size       | 204 bytes              |
| Total Events     | 7                      |
| References Count | 17                     |

## List of Events

| Event ID                 | Entrypoint   |   Size |   Instructions |
|--------------------------|--------------|--------|----------------|
| [65535](#event-65535)    | 0x0000       |      1 |              1 |
| [180](#event-180)        | 0x0001       |     10 |              2 |
| [182](#event-182)        | 0x000B       |      1 |              1 |
| [65535.1](#event-655351) | 0x000C       |     14 |              4 |
| [65535.2](#event-655352) | 0x001A       |     25 |              6 |
| [65535.3](#event-655353) | 0x0033       |     24 |              5 |
| [65535.4](#event-655354) | 0x004B       |     16 |              5 |

## DAT References (imed_data)

|   Index | Hex Value   |   Dec Value |
|---------|-------------|-------------|
|       0 | 0xFFFFA649  |  4294944329 |
|       1 | 0x77F5      |       30709 |
|       2 | 0x1B57      |        6999 |
|       3 | 0x00C9      |         201 |
|       4 | 0x000D      |          13 |
|       5 | 0xFFFFBABB  |  4294949563 |
|       6 | 0x7677      |       30327 |
|       7 | 0x11883     |       71811 |
|       8 | 0xFFFFD4EA  |  4294956266 |
|       9 | 0x0D1B      |        3355 |
|      10 | 0x11898     |       71832 |
|      11 | 0xFFFFDA61  |  4294957665 |
|      12 | 0x0028      |          40 |
|      13 | 0x10F2A     |       69418 |
|      14 | 0xFFFFE466  |  4294960230 |
|      15 | 0xD5E5      |       54757 |
|      16 | 0xFFFFF28F  |  4294963855 |

## Events

### Event 65535

#### Metadata

| Field        | Value   |
|--------------|---------|
| Entrypoint   | 0x0000  |
| Data Size    | 1 bytes |
| Instructions | 1       |

```
      00 01 02 03 04 05 06 07  08 09 0A 0B 0C 0D 0E 0F
      -- -- -- -- -- -- -- --  -- -- -- -- -- -- -- --
0000: 00                                                .               
```

#### Opcodes

```
  0: 0x0000 [0x00] END_REQSTACK()
```

### Event 180

#### Metadata

| Field        | Value    |
|--------------|----------|
| Entrypoint   | 0x0001   |
| Data Size    | 10 bytes |
| Instructions | 2        |

```
      00 01 02 03 04 05 06 07  08 09 0A 0B 0C 0D 0E 0F
      -- -- -- -- -- -- -- --  -- -- -- -- -- -- -- --
0000:    37 00 80 01 80 02 80  03 80 00                  7.........     
```

#### Opcodes

```
  0: 0x0001 [0x37] UPDATE_EVENT_POSITION_AND_DIR: x=-22.967*, z=30.709*, y=6.999*, direction=17.7°*
  1: 0x000A [0x00] END_REQSTACK()
```

### Event 182

#### Metadata

| Field        | Value   |
|--------------|---------|
| Entrypoint   | 0x000B  |
| Data Size    | 1 bytes |
| Instructions | 1       |

```
      00 01 02 03 04 05 06 07  08 09 0A 0B 0C 0D 0E 0F
      -- -- -- -- -- -- -- --  -- -- -- -- -- -- -- --
0000:                                   00                         .    
```

#### Opcodes

```
  0: 0x000B [0x00] END_REQSTACK()
```

### Event 65535.1

#### Metadata

| Field        | Value    |
|--------------|----------|
| Entrypoint   | 0x000C   |
| Data Size    | 14 bytes |
| Instructions | 4        |

```
      00 01 02 03 04 05 06 07  08 09 0A 0B 0C 0D 0E 0F
      -- -- -- -- -- -- -- --  -- -- -- -- -- -- -- --
0000:                                      32 04 80 1F              2...
0010: 00 05 80 06 80 02 80 1F  01 00                    ..........      
```

#### Opcodes

```
  0: 0x000C [0x32] ExtData[1]->MainSpeed = 13* * 0.1
  1: 0x000F [0x1F] MOVE_ENTITY: EventEntity moves to X=-17.733*, Z=30.327*, Y=6.999*
  2: 0x0017 [0x1F] MOVE_ENTITY: Update entity position (mode=1)
  3: 0x0019 [0x00] END_REQSTACK()
```

### Event 65535.2

#### Metadata

| Field        | Value    |
|--------------|----------|
| Entrypoint   | 0x001A   |
| Data Size    | 25 bytes |
| Instructions | 6        |

```
      00 01 02 03 04 05 06 07  08 09 0A 0B 0C 0D 0E 0F
      -- -- -- -- -- -- -- --  -- -- -- -- -- -- -- --
0010:                                22 00 32 04 80 37            ".2..7
0020: 07 80 08 80 02 80 09 80  1F 00 0A 80 0B 80 02 80  ................
0030: 1F 01 00                                          ...             
```

#### Opcodes

```
  0: 0x001A [0x22] ENTITY_HIDE_FLAG(enabled=0x00)
  1: 0x001C [0x32] ExtData[1]->MainSpeed = 13* * 0.1
  2: 0x001F [0x37] UPDATE_EVENT_POSITION_AND_DIR: x=71.811*, z=-11.030*, y=6.999*, direction=294.9°*
  3: 0x0028 [0x1F] MOVE_ENTITY: EventEntity moves to X=71.832*, Z=-9.631*, Y=6.999*
  4: 0x0030 [0x1F] MOVE_ENTITY: Update entity position (mode=1)
  5: 0x0032 [0x00] END_REQSTACK()
```

### Event 65535.3

#### Metadata

| Field        | Value    |
|--------------|----------|
| Entrypoint   | 0x0033   |
| Data Size    | 24 bytes |
| Instructions | 5        |

```
      00 01 02 03 04 05 06 07  08 09 0A 0B 0C 0D 0E 0F
      -- -- -- -- -- -- -- --  -- -- -- -- -- -- -- --
0030:          79 00 71 A0 0E  01 70 A0 0E 01 32 0C 80     y.q...p...2..
0040: 1F 00 0D 80 0E 80 02 80  1F 01 00                 ...........     
```

#### Opcodes

```
  0: 0x0033 [0x79] Gabbot (ID: 17735793/0x010EA071) looks at Povall (ID: 17735792/0x010EA070) (Basic look)
  1: 0x003D [0x32] ExtData[1]->MainSpeed = 40* * 0.1
  2: 0x0040 [0x1F] MOVE_ENTITY: EventEntity moves to X=69.418*, Z=-7.066*, Y=6.999*
  3: 0x0048 [0x1F] MOVE_ENTITY: Update entity position (mode=1)
  4: 0x004A [0x00] END_REQSTACK()
```

### Event 65535.4

#### Metadata

| Field        | Value    |
|--------------|----------|
| Entrypoint   | 0x004B   |
| Data Size    | 16 bytes |
| Instructions | 5        |

```
      00 01 02 03 04 05 06 07  08 09 0A 0B 0C 0D 0E 0F
      -- -- -- -- -- -- -- --  -- -- -- -- -- -- -- --
0040:                                   32 0C 80 1F 00             2....
0050: 0F 80 10 80 02 80 1F 01  22 01 00                 ........"..     
```

#### Opcodes

```
  0: 0x004B [0x32] ExtData[1]->MainSpeed = 40* * 0.1
  1: 0x004E [0x1F] MOVE_ENTITY: EventEntity moves to X=54.757*, Z=-3.441*, Y=6.999*
  2: 0x0056 [0x1F] MOVE_ENTITY: Update entity position (mode=1)
  3: 0x0058 [0x22] ENTITY_HIDE_FLAG(enabled=0x01)
  4: 0x005A [0x00] END_REQSTACK()
```
