# 17735690 - Parraggoh

## Common Data

| Field            | Value                  |
|------------------|------------------------|
| Zone             | Bastok Mines (ID: 234) |
| Block Size       | 880 bytes              |
| Total Events     | 10                     |
| References Count | 45                     |

## List of Events

| Event ID              | Entrypoint   |   Size |   Instructions |
|-----------------------|--------------|--------|----------------|
| [65535](#event-65535) | 0x0000       |      1 |              1 |
| [6](#event-6)         | 0x0001       |    207 |             49 |
| [7](#event-7)         | 0x00D0       |    187 |             39 |
| [8](#event-8)         | 0x018B       |     11 |              5 |
| [9](#event-9)         | 0x0196       |     11 |              5 |
| [10](#event-10)       | 0x01A1       |    123 |             28 |
| [11](#event-11)       | 0x021C       |     11 |              5 |
| [12](#event-12)       | 0x0227       |     11 |              5 |
| [46](#event-46)       | 0x0232       |     66 |             16 |
| [176](#event-176)     | 0x0274       |     15 |              3 |

## DAT References (imed_data)

|   Index | Hex Value   |   Dec Value |
|---------|-------------|-------------|
|       0 | 0x0282      |         642 |
|       1 | 0x2952      |       10578 |
|       2 | 0x2953      |       10579 |
|       3 | 0x003C      |          60 |
|       4 | 0x2954      |       10580 |
|       5 | 0x2955      |       10581 |
|       6 | 0x2956      |       10582 |
|       7 | 0x2957      |       10583 |
|       8 | 0x2958      |       10584 |
|       9 | 0x2959      |       10585 |
|      10 | 0x295A      |       10586 |
|      11 | 0x295B      |       10587 |
|      12 | 0x295C      |       10588 |
|      13 | 0x0000      |           0 |
|      14 | 0x295E      |       10590 |
|      15 | 0x295F      |       10591 |
|      16 | 0x2960      |       10592 |
|      17 | 0x2961      |       10593 |
|      18 | 0x0001      |           1 |
|      19 | 0x295D      |       10589 |
|      20 | 0x2962      |       10594 |
|      21 | 0x2963      |       10595 |
|      22 | 0x2964      |       10596 |
|      23 | 0x2965      |       10597 |
|      24 | 0x2966      |       10598 |
|      25 | 0x0002      |           2 |
|      26 | 0x2967      |       10599 |
|      27 | 0x2968      |       10600 |
|      28 | 0x2969      |       10601 |
|      29 | 0x296A      |       10602 |
|      30 | 0x296B      |       10603 |
|      31 | 0x296C      |       10604 |
|      32 | 0x296D      |       10605 |
|      33 | 0x296E      |       10606 |
|      34 | 0x00C9      |         201 |
|      35 | 0x296F      |       10607 |
|      36 | 0x29AB      |       10667 |
|      37 | 0x29AC      |       10668 |
|      38 | 0x29AD      |       10669 |
|      39 | 0x000A      |          10 |
|      40 | 0x29AE      |       10670 |
|      41 | 0xFFFD94D8  |  4294808792 |
|      42 | 0xFFFF7A87  |  4294933127 |
|      43 | 0xFFFFFD9B  |  4294966683 |
|      44 | 0x0A3D      |        2621 |

## String References

- **10578**: What do you want? This is no place for the likes of you. Get out.
- **10579**: What? Gumbah sent you, you say?
- **10580**: That he would ask a newborn pup like you... Are his eyes failing him, at such a young age?
- **10581**: Well, I suppose you'll just have to do. He put his trust in you, so I must do the same.
- **10582**: I am currently employed by the Tenshodo, and my task is to collect five $7 for them.
- **10583**: Alas, I was injured when I obtained the fourth. It will be some time before I can go out to find the fifth.
- **10584**: The Tenshodo took the first four, but they refuse to hand me my reward until the last one is in their hands.
- **10585**: I am sure they would not have told me that had I not been injured.
- **10586**: If you would, could you give Talib of the Tenshodo the last $7, in my name?
- **10587**: He should then hand you a certain item as reward. I would be very grateful if you could bring it to me.
- **10588**: Take on this task? [Yes./No.]
- **10589**: That is...unfortunate.
- **10590**: Thank you. Oh, before you go, I should tell you that a Hume is also undertaking the same task.
- **10591**: She is not an adventurer, and hardly more than a child. Believe me, I did not ask her to do this for me, yet she has run off to do it.
- **10592**: Her name? I believe she called herself "Cornelia."
- **10593**: Would you keep an eye out for her and keep her out of trouble, especially at the Tenshodo? I could not bear it if anything happened to her.
- **10594**: Hmm? Yes, I am Parraggoh. Ah, Cornelia told you of my predicament.
- **10595**: Well, then. She put her trust in you, so I will do the same.
- **10596**: Thank you. It pains me to have to rely on people's kindness like this, but you have my gratitude.
- **10597**: It pains me to have to rely on people's kindness like this, but you have my gratitude.
- **10598**: I must thank Cornelia for her kindness as well...
- **10599**: Ah! You have brought me $6!
- **10600**: Hmm? Yes, I am Parraggoh.
- **10601**: What? Cornelia asked you...and you've brought me $6?
- **10602**: Thank you! I really needed these!
- **10603**: It may not be much of a reward, but I want you to have this.
- **10604**: If you see Cornelia, send her my gratitude.
- **10605**: No, wait-- Instead, tell her she should not be seen around us Galka too much.
- **10606**: For her own sake.
- **10607**: Ah! It's good to see you again. How have you been?
- **10667**: An eleventh Palborough Mines Pioneer? Then it is as I thought!
- **10668**: $6 you brought me--the more I read them, the more I am convinced someone has tampered with them!
- **10669**: It must be Humes! Only they would go so far as erasing our history to protect their over-swollen pride!
- **10670**: I... My apologies. I should not let my emotions get the better of me.

## Events

### Event 65535

#### Metadata

| Field        | Value   |
|--------------|---------|
| Entrypoint   | 0x0000  |
| Data Size    | 1 bytes |
| Instructions | 1       |

```
      00 01 02 03 04 05 06 07  08 09 0A 0B 0C 0D 0E 0F
      -- -- -- -- -- -- -- --  -- -- -- -- -- -- -- --
0000: 00                                                .               
```

#### Opcodes

```
  0: 0x0000 [0x00] END_REQSTACK()
```

### Event 6

#### Metadata

| Field        | Value     |
|--------------|-----------|
| Entrypoint   | 0x0001    |
| Data Size    | 207 bytes |
| Instructions | 49        |

```
      00 01 02 03 04 05 06 07  08 09 0A 0B 0C 0D 0E 0F
      -- -- -- -- -- -- -- --  -- -- -- -- -- -- -- --
0000:    03 09 10 00 80 1D 01  80 23 1E F0 FF FF 7F 1D   ........#......
0010: 02 80 23 66 03 80 F8 FF  FF 7F F8 FF FF 7F 74 6C  ..#f..........tl
0020: 6B 30 1D 04 80 23 1D 05  80 23 5E 69 64 6C 30 1D  k0...#...#^idl0.
0030: 06 80 23 66 03 80 F8 FF  FF 7F F8 FF FF 7F 74 68  ..#f..........th
0040: 6B 31 1D 07 80 23 1D 08  80 23 66 03 80 F8 FF FF  k1...#...#f.....
0050: 7F F8 FF FF 7F 74 68 6B  32 1D 09 80 23 66 03 80  .....thk2...#f..
0060: F8 FF FF 7F F8 FF FF 7F  74 6C 6B 30 1D 0A 80 23  ........tlk0...#
0070: 1D 0B 80 23 5E 69 64 6C  30 24 0C 80 0D 80 0D 80  ...#^idl0$......
0080: 25 02 00 10 0D 80 00 AB  00 66 03 80 F8 FF FF 7F  %........f......
0090: F8 FF FF 7F 74 6C 6B 30  1D 0E 80 23 1D 0F 80 23  ....tlk0...#...#
00A0: 1D 10 80 23 1D 11 80 23  01 C9 00 02 00 10 12 80  ...#...#........
00B0: 00 C9 00 66 03 80 F8 FF  FF 7F F8 FF FF 7F 74 6C  ...f..........tl
00C0: 6B 30 1D 13 80 23 01 C9  00 03 01 10 00 10 21 00  k0...#........!.
```

#### Opcodes

```
  0: 0x0001 [0x03] Work_Zone[9] = 642*
  1: 0x0006 [0x1D] PRINT_EVENT_MESSAGE(message_id=10578*)
    → "What do you want? This is no place for the likes of you. Get out."
  2: 0x0009 [0x23] WAIT_FOR_DIALOG_INTERACTION
  3: 0x000A [0x1E] EventEntity looks at LocalPlayer and starts talking
  4: 0x000F [0x1D] PRINT_EVENT_MESSAGE(message_id=10579*)
    → "What? Gumbah sent you, you say?"
  5: 0x0012 [0x23] WAIT_FOR_DIALOG_INTERACTION
  6: 0x0013 [0x66] LOAD_EXT_SCHEDULER_MAIN: Load scheduler "tlk0" with entities [EventEntity, EventEntity], work=60*
  7: 0x0022 [0x1D] PRINT_EVENT_MESSAGE(message_id=10580*)
    → "That he would ask a newborn pup like you... Are his eyes failing him, at such a young age?"
  8: 0x0025 [0x23] WAIT_FOR_DIALOG_INTERACTION
  9: 0x0026 [0x1D] PRINT_EVENT_MESSAGE(message_id=10581*)
    → "Well, I suppose you'll just have to do. He put his trust in you, so I must do the same."
 10: 0x0029 [0x23] WAIT_FOR_DIALOG_INTERACTION
 11: 0x002A [0x5E] EventEntity goes idle (kills current action) (animation: "idl0")
 12: 0x002F [0x1D] PRINT_EVENT_MESSAGE(message_id=10582*)
    → "I am currently employed by the Tenshodo, and my task is to collect five $7 for them."
 13: 0x0032 [0x23] WAIT_FOR_DIALOG_INTERACTION
 14: 0x0033 [0x66] LOAD_EXT_SCHEDULER_MAIN: Load scheduler "thk1" with entities [EventEntity, EventEntity], work=60*
 15: 0x0042 [0x1D] PRINT_EVENT_MESSAGE(message_id=10583*)
    → "Alas, I was injured when I obtained the fourth. It will be some time before I can go out to find the fifth."
 16: 0x0045 [0x23] WAIT_FOR_DIALOG_INTERACTION
 17: 0x0046 [0x1D] PRINT_EVENT_MESSAGE(message_id=10584*)
    → "The Tenshodo took the first four, but they refuse to hand me my reward until the last one is in their hands."
 18: 0x0049 [0x23] WAIT_FOR_DIALOG_INTERACTION
 19: 0x004A [0x66] LOAD_EXT_SCHEDULER_MAIN: Load scheduler "thk2" with entities [EventEntity, EventEntity], work=60*
 20: 0x0059 [0x1D] PRINT_EVENT_MESSAGE(message_id=10585*)
    → "I am sure they would not have told me that had I not been injured."
 21: 0x005C [0x23] WAIT_FOR_DIALOG_INTERACTION
 22: 0x005D [0x66] LOAD_EXT_SCHEDULER_MAIN: Load scheduler "tlk0" with entities [EventEntity, EventEntity], work=60*
 23: 0x006C [0x1D] PRINT_EVENT_MESSAGE(message_id=10586*)
    → "If you would, could you give Talib of the Tenshodo the last $7, in my name?"
 24: 0x006F [0x23] WAIT_FOR_DIALOG_INTERACTION
 25: 0x0070 [0x1D] PRINT_EVENT_MESSAGE(message_id=10587*)
    → "He should then hand you a certain item as reward. I would be very grateful if you could bring it to me."
 26: 0x0073 [0x23] WAIT_FOR_DIALOG_INTERACTION
 27: 0x0074 [0x5E] EventEntity goes idle (kills current action) (animation: "idl0")
 28: 0x0079 [0x24] CREATE_DIALOG(message_id=10588*, default_option=0*, option_flags=0*)
    → "Take on this task? [Yes./No.]"
 29: 0x0080 [0x25] WAIT_DIALOG_SELECT()
 30: 0x0081 [0x02] IF !(Work_Zone[0] == 0*) GOTO 0x00AB
 31: 0x0089 [0x66] LOAD_EXT_SCHEDULER_MAIN: Load scheduler "tlk0" with entities [EventEntity, EventEntity], work=60*
 32: 0x0098 [0x1D] PRINT_EVENT_MESSAGE(message_id=10590*)
    → "Thank you. Oh, before you go, I should tell you that a Hume is also undertaking the same task."
 33: 0x009B [0x23] WAIT_FOR_DIALOG_INTERACTION
 34: 0x009C [0x1D] PRINT_EVENT_MESSAGE(message_id=10591*)
    → "She is not an adventurer, and hardly more than a child. Believe me, I did not ask her to do this for me, yet she has run off to do it."
 35: 0x009F [0x23] WAIT_FOR_DIALOG_INTERACTION
 36: 0x00A0 [0x1D] PRINT_EVENT_MESSAGE(message_id=10592*)
    → "Her name? I believe she called herself "Cornelia.""
 37: 0x00A3 [0x23] WAIT_FOR_DIALOG_INTERACTION
 38: 0x00A4 [0x1D] PRINT_EVENT_MESSAGE(message_id=10593*)
    → "Would you keep an eye out for her and keep her out of trouble, especially at the Tenshodo? I could not bear it if anything happened to her."
 39: 0x00A7 [0x23] WAIT_FOR_DIALOG_INTERACTION
 40: 0x00A8 [0x01] GOTO 0x00C9
 41: 0x00AB [0x02] IF !(Work_Zone[0] == 1*) GOTO 0x00C9
 42: 0x00B3 [0x66] LOAD_EXT_SCHEDULER_MAIN: Load scheduler "tlk0" with entities [EventEntity, EventEntity], work=60*
 43: 0x00C2 [0x1D] PRINT_EVENT_MESSAGE(message_id=10589*)
    → "That is...unfortunate."
 44: 0x00C5 [0x23] WAIT_FOR_DIALOG_INTERACTION
 45: 0x00C6 [0x01] GOTO 0x00C9

SUBROUTINE_00C9:
 46: 0x00C9 [0x03] Work_Zone[1] = Work_Zone[0]
 47: 0x00CE [0x21] END_EVENT
 48: 0x00CF [0x00] END_REQSTACK()
```

### Event 7

#### Metadata

| Field        | Value     |
|--------------|-----------|
| Entrypoint   | 0x00D0    |
| Data Size    | 187 bytes |
| Instructions | 39        |

```
      00 01 02 03 04 05 06 07  08 09 0A 0B 0C 0D 0E 0F
      -- -- -- -- -- -- -- --  -- -- -- -- -- -- -- --
00D0: 1E F0 FF FF 7F 03 09 10  00 80 1D 14 80 23 66 03  .............#f.
00E0: 80 F8 FF FF 7F F8 FF FF  7F 74 6C 6B 30 1D 15 80  .........tlk0...
00F0: 23 1D 06 80 23 5E 69 64  6C 30 1D 07 80 23 66 03  #...#^idl0...#f.
0100: 80 F8 FF FF 7F F8 FF FF  7F 74 68 6B 31 1D 08 80  .........thk1...
0110: 23 1D 09 80 23 66 03 80  F8 FF FF 7F F8 FF FF 7F  #...#f..........
0120: 74 68 6B 32 1D 0A 80 23  66 03 80 F8 FF FF 7F F8  thk2...#f.......
0130: FF FF 7F 74 6C 6B 30 1D  0B 80 23 5E 69 64 6C 30  ...tlk0...#^idl0
0140: 24 0C 80 0D 80 0D 80 25  02 00 10 0D 80 00 66 01  $......%......f.
0150: 66 03 80 F8 FF FF 7F F8  FF FF 7F 74 6C 6B 30 1D  f..........tlk0.
0160: 16 80 23 01 84 01 02 00  10 12 80 00 84 01 66 03  ..#...........f.
0170: 80 F8 FF FF 7F F8 FF FF  7F 74 6C 6B 30 1D 13 80  .........tlk0...
0180: 23 01 84 01 03 01 10 00  10 21 00                 #........!.     
```

#### Opcodes

```
  0: 0x00D0 [0x1E] EventEntity looks at LocalPlayer and starts talking
  1: 0x00D5 [0x03] Work_Zone[9] = 642*
  2: 0x00DA [0x1D] PRINT_EVENT_MESSAGE(message_id=10594*)
    → "Hmm? Yes, I am Parraggoh. Ah, Cornelia told you of my predicament."
  3: 0x00DD [0x23] WAIT_FOR_DIALOG_INTERACTION
  4: 0x00DE [0x66] LOAD_EXT_SCHEDULER_MAIN: Load scheduler "tlk0" with entities [EventEntity, EventEntity], work=60*
  5: 0x00ED [0x1D] PRINT_EVENT_MESSAGE(message_id=10595*)
    → "Well, then. She put her trust in you, so I will do the same."
  6: 0x00F0 [0x23] WAIT_FOR_DIALOG_INTERACTION
  7: 0x00F1 [0x1D] PRINT_EVENT_MESSAGE(message_id=10582*)
    → "I am currently employed by the Tenshodo, and my task is to collect five $7 for them."
  8: 0x00F4 [0x23] WAIT_FOR_DIALOG_INTERACTION
  9: 0x00F5 [0x5E] EventEntity goes idle (kills current action) (animation: "idl0")
 10: 0x00FA [0x1D] PRINT_EVENT_MESSAGE(message_id=10583*)
    → "Alas, I was injured when I obtained the fourth. It will be some time before I can go out to find the fifth."
 11: 0x00FD [0x23] WAIT_FOR_DIALOG_INTERACTION
 12: 0x00FE [0x66] LOAD_EXT_SCHEDULER_MAIN: Load scheduler "thk1" with entities [EventEntity, EventEntity], work=60*
 13: 0x010D [0x1D] PRINT_EVENT_MESSAGE(message_id=10584*)
    → "The Tenshodo took the first four, but they refuse to hand me my reward until the last one is in their hands."
 14: 0x0110 [0x23] WAIT_FOR_DIALOG_INTERACTION
 15: 0x0111 [0x1D] PRINT_EVENT_MESSAGE(message_id=10585*)
    → "I am sure they would not have told me that had I not been injured."
 16: 0x0114 [0x23] WAIT_FOR_DIALOG_INTERACTION
 17: 0x0115 [0x66] LOAD_EXT_SCHEDULER_MAIN: Load scheduler "thk2" with entities [EventEntity, EventEntity], work=60*
 18: 0x0124 [0x1D] PRINT_EVENT_MESSAGE(message_id=10586*)
    → "If you would, could you give Talib of the Tenshodo the last $7, in my name?"
 19: 0x0127 [0x23] WAIT_FOR_DIALOG_INTERACTION
 20: 0x0128 [0x66] LOAD_EXT_SCHEDULER_MAIN: Load scheduler "tlk0" with entities [EventEntity, EventEntity], work=60*
 21: 0x0137 [0x1D] PRINT_EVENT_MESSAGE(message_id=10587*)
    → "He should then hand you a certain item as reward. I would be very grateful if you could bring it to me."
 22: 0x013A [0x23] WAIT_FOR_DIALOG_INTERACTION
 23: 0x013B [0x5E] EventEntity goes idle (kills current action) (animation: "idl0")
 24: 0x0140 [0x24] CREATE_DIALOG(message_id=10588*, default_option=0*, option_flags=0*)
    → "Take on this task? [Yes./No.]"
 25: 0x0147 [0x25] WAIT_DIALOG_SELECT()
 26: 0x0148 [0x02] IF !(Work_Zone[0] == 0*) GOTO 0x0166
 27: 0x0150 [0x66] LOAD_EXT_SCHEDULER_MAIN: Load scheduler "tlk0" with entities [EventEntity, EventEntity], work=60*
 28: 0x015F [0x1D] PRINT_EVENT_MESSAGE(message_id=10596*)
    → "Thank you. It pains me to have to rely on people's kindness like this, but you have my gratitude."
 29: 0x0162 [0x23] WAIT_FOR_DIALOG_INTERACTION
 30: 0x0163 [0x01] GOTO 0x0184
 31: 0x0166 [0x02] IF !(Work_Zone[0] == 1*) GOTO 0x0184
 32: 0x016E [0x66] LOAD_EXT_SCHEDULER_MAIN: Load scheduler "tlk0" with entities [EventEntity, EventEntity], work=60*
 33: 0x017D [0x1D] PRINT_EVENT_MESSAGE(message_id=10589*)
    → "That is...unfortunate."
 34: 0x0180 [0x23] WAIT_FOR_DIALOG_INTERACTION
 35: 0x0181 [0x01] GOTO 0x0184

SUBROUTINE_0184:
 36: 0x0184 [0x03] Work_Zone[1] = Work_Zone[0]
 37: 0x0189 [0x21] END_EVENT
 38: 0x018A [0x00] END_REQSTACK()
```

### Event 8

#### Metadata

| Field        | Value    |
|--------------|----------|
| Entrypoint   | 0x018B   |
| Data Size    | 11 bytes |
| Instructions | 5        |

```
      00 01 02 03 04 05 06 07  08 09 0A 0B 0C 0D 0E 0F
      -- -- -- -- -- -- -- --  -- -- -- -- -- -- -- --
0180:                                   1E F0 FF FF 7F             .....
0190: 1D 17 80 23 21 00                                 ...#!.          
```

#### Opcodes

```
  0: 0x018B [0x1E] EventEntity looks at LocalPlayer and starts talking
  1: 0x0190 [0x1D] PRINT_EVENT_MESSAGE(message_id=10597*)
    → "It pains me to have to rely on people's kindness like this, but you have my gratitude."
  2: 0x0193 [0x23] WAIT_FOR_DIALOG_INTERACTION
  3: 0x0194 [0x21] END_EVENT
  4: 0x0195 [0x00] END_REQSTACK()
```

### Event 9

#### Metadata

| Field        | Value    |
|--------------|----------|
| Entrypoint   | 0x0196   |
| Data Size    | 11 bytes |
| Instructions | 5        |

```
      00 01 02 03 04 05 06 07  08 09 0A 0B 0C 0D 0E 0F
      -- -- -- -- -- -- -- --  -- -- -- -- -- -- -- --
0190:                   1E F0  FF FF 7F 1D 18 80 23 21        ........#!
01A0: 00                                                .               
```

#### Opcodes

```
  0: 0x0196 [0x1E] EventEntity looks at LocalPlayer and starts talking
  1: 0x019B [0x1D] PRINT_EVENT_MESSAGE(message_id=10598*)
    → "I must thank Cornelia for her kindness as well..."
  2: 0x019E [0x23] WAIT_FOR_DIALOG_INTERACTION
  3: 0x019F [0x21] END_EVENT
  4: 0x01A0 [0x00] END_REQSTACK()
```

### Event 10

#### Metadata

| Field        | Value     |
|--------------|-----------|
| Entrypoint   | 0x01A1    |
| Data Size    | 123 bytes |
| Instructions | 28        |

```
      00 01 02 03 04 05 06 07  08 09 0A 0B 0C 0D 0E 0F
      -- -- -- -- -- -- -- --  -- -- -- -- -- -- -- --
01A0:    42 1E F0 FF FF 7F 03  09 10 19 80 02 02 10 12   B..............
01B0: 80 00 CA 01 66 03 80 F8  FF FF 7F F8 FF FF 7F 74  ....f..........t
01C0: 6C 6B 30 1D 1A 80 23 01  E1 01 1D 1B 80 23 66 03  lk0...#......#f.
01D0: 80 F8 FF FF 7F F8 FF FF  7F 74 6C 6B 30 1D 1C 80  .........tlk0...
01E0: 23 1D 1D 80 23 5E 69 64  6C 30 1D 1E 80 23 66 03  #...#^idl0...#f.
01F0: 80 F8 FF FF 7F F8 FF FF  7F 70 61 73 30 1D 1F 80  .........pas0...
0200: 23 1D 20 80 23 1D 21 80  23 45 22 80 F0 FF FF 7F  #. .#.!.#E".....
0210: F0 FF FF 7F 71 73 74 63  0D 80 21 00              ....qstc..!.    
```

#### Opcodes

```
  0: 0x01A1 [0x42] SET_CLI_EVENT_CANCEL_DATA()
  1: 0x01A2 [0x1E] EventEntity looks at LocalPlayer and starts talking
  2: 0x01A7 [0x03] Work_Zone[9] = 2*
  3: 0x01AC [0x02] IF !(Work_Zone[2] == 1*) GOTO 0x01CA
  4: 0x01B4 [0x66] LOAD_EXT_SCHEDULER_MAIN: Load scheduler "tlk0" with entities [EventEntity, EventEntity], work=60*
  5: 0x01C3 [0x1D] PRINT_EVENT_MESSAGE(message_id=10599*)
    → "Ah! You have brought me $6!"
  6: 0x01C6 [0x23] WAIT_FOR_DIALOG_INTERACTION
  7: 0x01C7 [0x01] GOTO 0x01E1
  8: 0x01CA [0x1D] PRINT_EVENT_MESSAGE(message_id=10600*)
    → "Hmm? Yes, I am Parraggoh."
  9: 0x01CD [0x23] WAIT_FOR_DIALOG_INTERACTION
 10: 0x01CE [0x66] LOAD_EXT_SCHEDULER_MAIN: Load scheduler "tlk0" with entities [EventEntity, EventEntity], work=60*
 11: 0x01DD [0x1D] PRINT_EVENT_MESSAGE(message_id=10601*)
    → "What? Cornelia asked you...and you've brought me $6?"
 12: 0x01E0 [0x23] WAIT_FOR_DIALOG_INTERACTION

SUBROUTINE_01E1:
 13: 0x01E1 [0x1D] PRINT_EVENT_MESSAGE(message_id=10602*)
    → "Thank you! I really needed these!"
 14: 0x01E4 [0x23] WAIT_FOR_DIALOG_INTERACTION
 15: 0x01E5 [0x5E] EventEntity goes idle (kills current action) (animation: "idl0")
 16: 0x01EA [0x1D] PRINT_EVENT_MESSAGE(message_id=10603*)
    → "It may not be much of a reward, but I want you to have this."
 17: 0x01ED [0x23] WAIT_FOR_DIALOG_INTERACTION
 18: 0x01EE [0x66] LOAD_EXT_SCHEDULER_MAIN: Load scheduler "pas0" with entities [EventEntity, EventEntity], work=60*
 19: 0x01FD [0x1D] PRINT_EVENT_MESSAGE(message_id=10604*)
    → "If you see Cornelia, send her my gratitude."
 20: 0x0200 [0x23] WAIT_FOR_DIALOG_INTERACTION
 21: 0x0201 [0x1D] PRINT_EVENT_MESSAGE(message_id=10605*)
    → "No, wait-- Instead, tell her she should not be seen around us Galka too much."
 22: 0x0204 [0x23] WAIT_FOR_DIALOG_INTERACTION
 23: 0x0205 [0x1D] PRINT_EVENT_MESSAGE(message_id=10606*)
    → "For her own sake."
 24: 0x0208 [0x23] WAIT_FOR_DIALOG_INTERACTION
 25: 0x0209 [0x45] LOAD_SCHEDULED_TASK: Load scheduler "qstc" with entities [LocalPlayer, LocalPlayer], work=[201*, 0*]
 26: 0x021A [0x21] END_EVENT
 27: 0x021B [0x00] END_REQSTACK()
```

### Event 11

#### Metadata

| Field        | Value    |
|--------------|----------|
| Entrypoint   | 0x021C   |
| Data Size    | 11 bytes |
| Instructions | 5        |

```
      00 01 02 03 04 05 06 07  08 09 0A 0B 0C 0D 0E 0F
      -- -- -- -- -- -- -- --  -- -- -- -- -- -- -- --
0210:                                      1E F0 FF FF              ....
0220: 7F 1D 01 80 23 21 00                              ....#!.         
```

#### Opcodes

```
  0: 0x021C [0x1E] EventEntity looks at LocalPlayer and starts talking
  1: 0x0221 [0x1D] PRINT_EVENT_MESSAGE(message_id=10578*)
    → "What do you want? This is no place for the likes of you. Get out."
  2: 0x0224 [0x23] WAIT_FOR_DIALOG_INTERACTION
  3: 0x0225 [0x21] END_EVENT
  4: 0x0226 [0x00] END_REQSTACK()
```

### Event 12

#### Metadata

| Field        | Value    |
|--------------|----------|
| Entrypoint   | 0x0227   |
| Data Size    | 11 bytes |
| Instructions | 5        |

```
      00 01 02 03 04 05 06 07  08 09 0A 0B 0C 0D 0E 0F
      -- -- -- -- -- -- -- --  -- -- -- -- -- -- -- --
0220:                      1E  F0 FF FF 7F 1D 23 80 23         ......#.#
0230: 21 00                                             !.              
```

#### Opcodes

```
  0: 0x0227 [0x1E] EventEntity looks at LocalPlayer and starts talking
  1: 0x022C [0x1D] PRINT_EVENT_MESSAGE(message_id=10607*)
    → "Ah! It's good to see you again. How have you been?"
  2: 0x022F [0x23] WAIT_FOR_DIALOG_INTERACTION
  3: 0x0230 [0x21] END_EVENT
  4: 0x0231 [0x00] END_REQSTACK()
```

### Event 46

#### Metadata

| Field        | Value    |
|--------------|----------|
| Entrypoint   | 0x0232   |
| Data Size    | 66 bytes |
| Instructions | 16       |

```
      00 01 02 03 04 05 06 07  08 09 0A 0B 0C 0D 0E 0F
      -- -- -- -- -- -- -- --  -- -- -- -- -- -- -- --
0230:       1E F0 FF FF 7F 03  09 10 19 80 1D 24 80 23    ...........$.#
0240: 66 03 80 F8 FF FF 7F F8  FF FF 7F 74 6C 6B 30 1D  f..........tlk0.
0250: 25 80 23 66 03 80 F8 FF  FF 7F F8 FF FF 7F 61 6E  %.#f..........an
0260: 67 30 1D 26 80 23 5E 69  64 6C 30 1C 27 80 1D 28  g0.&.#^idl0.'..(
0270: 80 23 21 00                                       .#!.            
```

#### Opcodes

```
  0: 0x0232 [0x1E] EventEntity looks at LocalPlayer and starts talking
  1: 0x0237 [0x03] Work_Zone[9] = 2*
  2: 0x023C [0x1D] PRINT_EVENT_MESSAGE(message_id=10667*)
    → "An eleventh Palborough Mines Pioneer? Then it is as I thought!"
  3: 0x023F [0x23] WAIT_FOR_DIALOG_INTERACTION
  4: 0x0240 [0x66] LOAD_EXT_SCHEDULER_MAIN: Load scheduler "tlk0" with entities [EventEntity, EventEntity], work=60*
  5: 0x024F [0x1D] PRINT_EVENT_MESSAGE(message_id=10668*)
    → "$6 you brought me--the more I read them, the more I am convinced someone has tampered with them!"
  6: 0x0252 [0x23] WAIT_FOR_DIALOG_INTERACTION
  7: 0x0253 [0x66] LOAD_EXT_SCHEDULER_MAIN: Load scheduler "ang0" with entities [EventEntity, EventEntity], work=60*
  8: 0x0262 [0x1D] PRINT_EVENT_MESSAGE(message_id=10669*)
    → "It must be Humes! Only they would go so far as erasing our history to protect their over-swollen pride!"
  9: 0x0265 [0x23] WAIT_FOR_DIALOG_INTERACTION
 10: 0x0266 [0x5E] EventEntity goes idle (kills current action) (animation: "idl0")
 11: 0x026B [0x1C] WAIT(10* ticks)
 12: 0x026E [0x1D] PRINT_EVENT_MESSAGE(message_id=10670*)
    → "I... My apologies. I should not let my emotions get the better of me."
 13: 0x0271 [0x23] WAIT_FOR_DIALOG_INTERACTION
 14: 0x0272 [0x21] END_EVENT
 15: 0x0273 [0x00] END_REQSTACK()
```

### Event 176

#### Metadata

| Field        | Value    |
|--------------|----------|
| Entrypoint   | 0x0274   |
| Data Size    | 15 bytes |
| Instructions | 3        |

```
      00 01 02 03 04 05 06 07  08 09 0A 0B 0C 0D 0E 0F
      -- -- -- -- -- -- -- --  -- -- -- -- -- -- -- --
0270:             37 29 80 2A  80 2B 80 2C 80 1E 0B A0      7).*.+.,....
0280: 0E 01 00                                          ...             
```

#### Opcodes

```
  0: 0x0274 [0x37] UPDATE_EVENT_POSITION_AND_DIR: x=-158.504*, z=-34.169*, y=-0.613*, direction=230.4°*
  1: 0x027D [0x1E] EventEntity looks at Mydon (ID: 17735691/0x010EA00B) and starts talking
  2: 0x0282 [0x00] END_REQSTACK()
```
