# 17736069 - Linkshell Concierge

## Common Data

| Field            | Value                  |
|------------------|------------------------|
| Zone             | Bastok Mines (ID: 234) |
| Block Size       | 4184 bytes             |
| Total Events     | 3                      |
| References Count | 77                     |

## List of Events

| Event ID              | Entrypoint   |   Size |   Instructions |
|-----------------------|--------------|--------|----------------|
| [65535](#event-65535) | 0x0000       |      1 |              1 |
| [6100](#event-6100)   | 0x0001       |      4 |              2 |
| [6103](#event-6103)   | 0x0005       |   3843 |            793 |

## DAT References (imed_data)

|   Index | Hex Value   |   Dec Value |
|---------|-------------|-------------|
|       0 | 0x0000      |           0 |
|       1 | 0x0001      |           1 |
|       2 | 0x0004      |           4 |
|       3 | 0x4218      |       16920 |
|       4 | 0x4219      |       16921 |
|       5 | 0x0203      |         515 |
|       6 | 0x421A      |       16922 |
|       7 | 0x421B      |       16923 |
|       8 | 0x40000000  |  1073741824 |
|       9 | 0x0002      |           2 |
|      10 | 0x0003      |           3 |
|      11 | 0x0007      |           7 |
|      12 | 0x0008      |           8 |
|      13 | 0x001F      |          31 |
|      14 | 0x4224      |       16932 |
|      15 | 0x421C      |       16924 |
|      16 | 0x193F      |        6463 |
|      17 | 0x4238      |       16952 |
|      18 | 0x000F      |          15 |
|      19 | 0x0005      |           5 |
|      20 | 0x0010      |          16 |
|      21 | 0x0006      |           6 |
|      22 | 0x0009      |           9 |
|      23 | 0x000E      |          14 |
|      24 | 0x000A      |          10 |
|      25 | 0x001D      |          29 |
|      26 | 0x0013      |          19 |
|      27 | 0x000B      |          11 |
|      28 | 0x000C      |          12 |
|      29 | 0x4255      |       16981 |
|      30 | 0x4220      |       16928 |
|      31 | 0x4221      |       16929 |
|      32 | 0x4223      |       16931 |
|      33 | 0x0018      |          24 |
|      34 | 0x4225      |       16933 |
|      35 | 0x4226      |       16934 |
|      36 | 0x000D      |          13 |
|      37 | 0x002D      |          45 |
|      38 | 0x4233      |       16947 |
|      39 | 0x0201      |         513 |
|      40 | 0x0202      |         514 |
|      41 | 0x422B      |       16939 |
|      42 | 0x4237      |       16951 |
|      43 | 0x01F4      |         500 |
|      44 | 0x423D      |       16957 |
|      45 | 0x423E      |       16958 |
|      46 | 0x18FE      |        6398 |
|      47 | 0x423F      |       16959 |
|      48 | 0x4240      |       16960 |
|      49 | 0xFFFFFFFF  |  4294967295 |
|      50 | 0x4253      |       16979 |
|      51 | 0x4254      |       16980 |
|      52 | 0x001A      |          26 |
|      53 | 0x0012      |          18 |
|      54 | 0x0017      |          23 |
|      55 | 0x0011      |          17 |
|      56 | 0x001B      |          27 |
|      57 | 0x422C      |       16940 |
|      58 | 0x422D      |       16941 |
|      59 | 0x422E      |       16942 |
|      60 | 0x422F      |       16943 |
|      61 | 0x4230      |       16944 |
|      62 | 0x4231      |       16945 |
|      63 | 0x4234      |       16948 |
|      64 | 0x4235      |       16949 |
|      65 | 0x0046      |          70 |
|      66 | 0x423A      |       16954 |
|      67 | 0x4241      |       16961 |
|      68 | 0x4249      |       16969 |
|      69 | 0x424A      |       16970 |
|      70 | 0x4243      |       16963 |
|      71 | 0x4244      |       16964 |
|      72 | 0x0019      |          25 |
|      73 | 0x4245      |       16965 |
|      74 | 0x424B      |       16971 |
|      75 | 0x1FFFF     |      131071 |
|      76 | 0x424C      |       16972 |

## String References

- **6398**: You do not have enough gil.
- **6463**: $0 $1 $2 $3
- **16920**: Fair greetings to you, wanderer. I am a linkshell concierge, charged with uniting lone explorers of Vana'diel with linkshells of similar goals.
- **16921**: How may I help you today?
- **16922**: What do you desire? [Nothing for now./Show me recruiting linkshells./I'd like to hand out $0./Tell me more./Open up the linkshell window.]
- **16923**: It was my pleasure to meet with you this fine day. May you encounter many friendly faces throughout your travels.
- **16924**: Excellent. Please select which linkshell you are interested in contacting.
- **16928**: It is my sincere pleasure to bestow this upon you.
- **16929**: Your new linkshell is beyond doubt filled with many looking for new companions. Be sure to say a few words of greeting.
- **16931**: May your new linkshell provide you with fond memories that will last a lifetime.
- **16932**: Though it pains me to say this, I have no $0 that meet your requirements at this time.
- **16933**: Should you desire, I can cancel your registration.
- **16934**: Cancel registration? [Yes, please./Not at this time.]
- **16939**: Unfortunately, only those equipped with $1 or $2 as Linkshell 1 are able to distribute $0.
- **16940**: Once-in-a-lifetime meetings make for wonderful stories, but no treasure can compare to being part of a group of friends you can call home.
- **16941**: Linkshell concierges such as myself bring together adventurers of similar interests.
- **16942**: In a word, we match adventurers looking for linkshells with those linkshells interested in taking in new members.
- **16943**: I accept $0 from linkshells the world over and distribute them to appropriate adventurers.
- **16944**: This service is provided by the Adventurers' Mutual Aid Network, and as such, anyone working for Vana'diel's greater good is eligible to participate.
- **16945**: Additionally, please be aware that I am only able to offer you one $0 per day.
- **16947**: It is also worth noting that $0 can only be registered by adventurers who have been active in Vana'diel for at least $1 days (Earth time).
- **16948**: It is worth noting that each concierge may only register a maximum of $0 linkshells.
- **16949**: Once the number of registrations has hit the limit, existing registrations will be canceled in order of oldest to newest.
- **16951**: Thank you for taking the time to use our service. Let me confirm the information contained within.
- **16952**: , correct?
- **16954**: LS1: .
- **16957**: Shall I start looking for new members for a fee of $1 gil?
- **16958**: Look for new members? ($0 gil) [That sounds wonderful./I'd rather not.]
- **16959**: I'm quite sorry to hear you decline. Please let me know if you change your mind.
- **16960**: I will now ask you a series of questions about your preferences. Be sure to answer truthfully so that you can find new members that match your style.
- **16961**: What is your language preference? [Japanese./English./Other./Back.]
- **16963**: What days are you most active? [[-/Z]No day set./[-/Z]Mondays./[-/Z]Tuesdays./[-/Z]Wednesdays./[-/Z]Thursdays./[-/Z]Fridays./[-/Z]Saturdays./[-/Z]Sundays./[-/Z]Holidays./Back./Next./Update.]
- **16964**: When do you [start/stop] playing on [weekdays/weekends]? [No time set./12:00 a.m./1:00 a.m.":00 a.m.":00 a.m./4:00 a.m./5:00 a.m./6:00 a.m./7:00 a.m./8:00 a.m./9:00 a.m./10:00 a.m./11:00 a.m./12:00 p.m./1:00 p.m.":00 p.m.":00 p.m./4:00 p.m./5:00 p.m./6:00 p.m./7:00 p.m./8:00 p.m./9:00 p.m./10:00 p.m./11:00 p.m./Back.]
- **16965**: Designate a time zone. [No designation./Japanese Standard Time (JST)./Pacific Time (PST|PDT)./Greenwich Mean Time (GMT)./Back.]
- **16969**: How many members are you looking for? [1."."./4./5./6./7./8./9./10./Back.]
- **16970**: How many active members do you have? [1-6./7-18./19+./Back.]
- **16971**: How would you characterize your linkshell? [[|/Z] No info provided./[|/Z] New players welcome./[|/Z] Returnees welcome./[|/Z] Adults only./[|/Z] 10 year veterans active./[|/Z] Casual players./[|/Z] Battle and synthesis support./[|/Z] Anyone welcome./[|/Z] End content-focused./[|/Z] Ambuscade-focused./[|/Z] Never give up./[|/Z] High-end gear./[|/Z] Looking for crafters./[|/Z] Trial memberships welcome./[|/Z] Multiple linkshells OK./[|/Z] Community events held./[|/Z] New linkshell./Back./Next./Update.]
- **16972**: Linkshell characteristics. [No info provided./New players welcome./Returnees welcome./Adults only./10 year veterans active./Casual players./Battle and synthesis support./Anyone welcome./End content-focused./Ambuscade-focused./Never give up./High-end gear./Looking for crafters./Trial memberships welcome./Multiple linkshells OK./Community events held./New linkshell./Back]
- **16979**: Please review the content of your linkshell. I will start looking for new members once you have confirmed that everything is in order.
- **16980**: Linkshell info (can be changed): [Language: [./JP/EN/Other]./Number of New Members Wanted: $!./Active Members: "[1-6/7-18/19+]./Time Zone: #[Not set/JST/PST|PDT/GMT]./Days Active: [/Not Set.][/M][/Tu][/W][/Th][/F][/Sa][/Su][/, Holidays]./Times Active (Weekdays): Not set./Times Active (Weekdays): $[12:00 a.m./1:00 a.m./2:00 a.m./3:00 a.m./4:00 a.m./5:00 a.m./6:00 a.m./7:00 a.m./8:00 a.m./9:00 a.m./10:00 a.m./11:00 a.m./12:00 p.m./1:00 p.m./2:00 p.m./3:00 p.m./4:00 p.m./5:00 p.m./6:00 p.m./7:00 p.m./8:00 p.m./9:00 p.m./ 10:00 p.m./11:00 p.m.] to %[12:00 a.m./1:00 a.m./2:00 a.m./3:00 a.m./4:00 a.m./5:00 a.m./6:00 a.m./7:00 a.m./8:00 a.m./9:00 a.m./10:00 a.m./11:00 a.m./12:00 p.m./1:00 p.m./2:00 p.m./3:00 p.m./4:00 p.m./5:00 p.m./6:00 p.m./7:00 p.m./8:00 p.m./9:00 p.m./ 10:00 p.m./11:00 p.m.]/Times Active (Weekend): Not set. /Times Active (Weekend): &[12:00 a.m./1:00 a.m./2:00 a.m./3:00 a.m./4:00 a.m./5:00 a.m./6:00 a.m./7:00 a.m./8:00 a.m./9:00 a.m./10:00 a.m./11:00 a.m./12:00 p.m./1:00 p.m./2:00 p.m./3:00 p.m./4:00 p.m./5:00 p.m./6:00 p.m./7:00 p.m./8:00 p.m./9:00 p.m./ 10:00 p.m./11:00 p.m.] to '[12:00 a.m./1:00 a.m./2:00 a.m./3:00 a.m./4:00 a.m./5:00 a.m./6:00 a.m./7:00 a.m./8:00 a.m./9:00 a.m./10:00 a.m./11:00 a.m./12:00 p.m./1:00 p.m./2:00 p.m./3:00 p.m./4:00 p.m./5:00 p.m./6:00 p.m./7:00 p.m./8:00 p.m./9:00 p.m./ 10:00 p.m./11:00 p.m.]/Linkshell characteristics./Cancel without posting./Post recruitment.]
- **16981**: Information for : [Language: [./JP/EN/Other]./Number of New Members Wanted: $!./Active Members: "[1-6/7-18/19+]./Time Zone: #[Not set/JST/PST|PDT/GMT]./Days Active: [/Not Set.][/M][/Tu][/W][/Th][/F][/Sa][/Su][/, Holidays]./Times Active (Weekdays): Not set./Times Active (Weekdays): $[12:00 a.m./1:00 a.m./2:00 a.m./3:00 a.m./4:00 a.m./5:00 a.m./6:00 a.m./7:00 a.m./8:00 a.m./9:00 a.m./10:00 a.m./11:00 a.m./12:00 p.m./1:00 p.m./2:00 p.m./3:00 p.m./4:00 p.m./5:00 p.m./6:00 p.m./7:00 p.m./8:00 p.m./9:00 p.m./ 10:00 p.m./11:00 p.m.] to %[12:00 a.m./1:00 a.m./2:00 a.m./3:00 a.m./4:00 a.m./5:00 a.m./6:00 a.m./7:00 a.m./8:00 a.m./9:00 a.m./10:00 a.m./11:00 a.m./12:00 p.m./1:00 p.m./2:00 p.m./3:00 p.m./4:00 p.m./5:00 p.m./6:00 p.m./7:00 p.m./8:00 p.m./9:00 p.m./ 10:00 p.m./11:00 p.m.]/Times Active (Weekend): Not set. /Times Active (Weekend): &[12:00 a.m./1:00 a.m./2:00 a.m./3:00 a.m./4:00 a.m./5:00 a.m./6:00 a.m./7:00 a.m./8:00 a.m./9:00 a.m./10:00 a.m./11:00 a.m./12:00 p.m./1:00 p.m./2:00 p.m./3:00 p.m./4:00 p.m./5:00 p.m./6:00 p.m./7:00 p.m./8:00 p.m./9:00 p.m./ 10:00 p.m./11:00 p.m.] to '[12:00 a.m./1:00 a.m./2:00 a.m./3:00 a.m./4:00 a.m./5:00 a.m./6:00 a.m./7:00 a.m./8:00 a.m./9:00 a.m./10:00 a.m./11:00 a.m./12:00 p.m./1:00 p.m./2:00 p.m./3:00 p.m./4:00 p.m./5:00 p.m./6:00 p.m./7:00 p.m./8:00 p.m./9:00 p.m./ 10:00 p.m./11:00 p.m.]/Linkshell characteristics./Date posted: //./Receive $1027./Delist./Back.]

## Events

### Event 65535

#### Metadata

| Field        | Value   |
|--------------|---------|
| Entrypoint   | 0x0000  |
| Data Size    | 1 bytes |
| Instructions | 1       |

```
      00 01 02 03 04 05 06 07  08 09 0A 0B 0C 0D 0E 0F
      -- -- -- -- -- -- -- --  -- -- -- -- -- -- -- --
0000: 00                                                .               
```

#### Opcodes

```
  0: 0x0000 [0x00] END_REQSTACK()
```

### Event 6100

#### Metadata

| Field        | Value   |
|--------------|---------|
| Entrypoint   | 0x0001  |
| Data Size    | 4 bytes |
| Instructions | 2       |

```
      00 01 02 03 04 05 06 07  08 09 0A 0B 0C 0D 0E 0F
      -- -- -- -- -- -- -- --  -- -- -- -- -- -- -- --
0000:    1A 09 00 00                                     ....           
```

#### Opcodes

```
  0: 0x0001 [0x1A] CALL_SUBROUTINE(address=0x0009)
  1: 0x0004 [0x00] END_REQSTACK()
```

### Event 6103

#### Metadata

| Field        | Value      |
|--------------|------------|
| Entrypoint   | 0x0005     |
| Data Size    | 3843 bytes |
| Instructions | 3          |

```
      00 01 02 03 04 05 06 07  08 09 0A 0B 0C 0D 0E 0F
      -- -- -- -- -- -- -- --  -- -- -- -- -- -- -- --
0000:                1A 54 0A  00 1E F0 FF FF 7F 03 00       .T.........
0010: 00 02 10 03 01 00 03 10  3E 07 10 00 80 25 00 05  ........>....%..
0020: 05 00 01 28 00 06 05 00  3E 07 10 01 80 35 00 05  ...(....>....5..
0030: 08 00 01 38 00 06 08 00  03 06 00 08 10 03 07 00  ...8............
0040: 09 10 06 11 00 06 12 00  02 05 00 00 80 00 57 00  ..............W.
0050: 3C 12 00 02 80 01 80 1D  03 80 23 1D 04 80 23 02  <.........#...#.
0060: 11 00 00 80 00 C6 00 03  02 10 05 80 24 06 80 00  ............$...
0070: 80 12 00 25 02 00 10 00  80 00 8B 00 1D 07 80 23  ...%...........#
0080: 05 11 00 03 01 10 08 80  01 C3 00 02 00 10 01 80  ................
0090: 00 99 00 1A C8 00 01 C3  00 02 00 10 09 80 00 A7  ................
00A0: 00 1A 93 04 01 C3 00 02  00 10 0A 80 00 B5 00 1A  ................
00B0: BE 09 01 C3 00 02 00 10  02 80 00 C3 00 1A FA 09  ................
00C0: 01 C3 00 01 5F 00 21 1B  42 40 00 80 0B 80 01 10  ...._.!.B@......
00D0: 00 80 40 0C 80 0D 80 01  10 00 80 43 00 43 01 06  ..@........C.C..
00E0: 06 00 02 06 00 00 80 00  EF 00 03 06 00 08 10 02  ................
00F0: 06 00 00 80 00 04 01 03  02 10 05 80 1D 0E 80 23  ...............#
0100: 2E 01 92 04 03 02 10 00  00 1D 0F 80 23 06 13 00  ............#...
0110: 02 13 00 00 80 00 92 04  06 1F 00 03 20 00 00 00  ............ ...
0120: 71 40 20 00 71 41 1E 00  1F 00 21 00 02 05 00 00  q@ .qA....!.....
0130: 80 01 4C 01 03 02 10 20  00 03 03 10 1E 00 03 04  ..L.... ........
0140: 10 1F 00 03 05 10 21 00  1D 10 80 23 02 1F 00 00  ......!....#....
0150: 80 00 5B 01 05 13 00 2E  01 8F 04 03 03 10 1E 00  ..[.............
0160: 1D 11 80 23 41 00 80 12  80 1F 00 19 00 40 00 80  ...#A........@..
0170: 0B 80 01 10 13 80 40 0C  80 0D 80 01 10 19 00 43  ......@........C
0180: 00 43 01 41 14 80 0D 80  1F 00 19 00 40 00 80 0B  .C.A........@...
0190: 80 01 10 15 80 40 0C 80  0D 80 01 10 19 00 43 00  .....@........C.
01A0: 43 01 40 00 80 0B 80 01  10 12 80 43 00 43 01 02  C.@........C.C..
01B0: 09 10 00 80 03 C0 01 1D  0E 80 23 05 13 00 2E 1B  ..........#.....
01C0: 03 2B 00 00 80 3E 21 00  01 80 D1 01 03 2B 00 01  .+...>!......+..
01D0: 80 3E 21 00 09 80 DD 01  03 2B 00 09 80 3E 21 00  .>!......+...>!.
01E0: 13 80 E9 01 03 2B 00 0A  80 41 15 80 16 80 21 00  .....+...A....!.
01F0: 2C 00 41 17 80 12 80 21  00 2D 00 41 14 80 0D 80  ,.A....!.-.A....
0200: 21 00 2A 00 41 15 80 16  80 21 00 2C 00 41 00 80  !.*.A....!.,.A..
0210: 01 80 02 10 2E 00 41 09  80 16 80 02 10 24 00 41  ......A......$.A
0220: 18 80 19 80 02 10 26 00  03 2F 00 03 10 05 33 00  ......&../....3.
0230: 02 33 00 00 80 01 8F 04  03 31 00 00 80 03 03 10  .3.......1......
0240: 1E 00 03 18 17 2B 00 03  19 17 2C 00 03 1A 17 2D  .....+....,....-
0250: 00 03 1B 17 2E 00 03 0C  17 00 80 03 0D 17 00 80  ................
0260: 03 0E 17 00 80 03 0F 17  00 80 03 10 17 00 80 03  ................
0270: 11 17 00 80 03 12 17 00  80 03 13 17 00 80 03 14  ................
0280: 17 00 80 02 24 00 00 80  00 93 02 03 0C 17 01 80  ....$...........
0290: 01 F3 02 3E 24 00 00 80  9F 02 03 0D 17 01 80 3E  ...>$..........>
02A0: 24 00 01 80 AB 02 03 0E  17 01 80 3E 24 00 09 80  $..........>$...
02B0: B7 02 03 0F 17 01 80 3E  24 00 0A 80 C3 02 03 10  .......>$.......
02C0: 17 01 80 3E 24 00 02 80  CF 02 03 11 17 01 80 3E  ...>$..........>
02D0: 24 00 13 80 DB 02 03 12  17 01 80 3E 24 00 15 80  $..........>$...
02E0: E7 02 03 13 17 01 80 3E  24 00 0B 80 F3 02 03 14  .......>$.......
02F0: 17 01 80 41 00 80 02 80  26 00 1B 00 02 1B 00 00  ...A....&.......
0300: 80 00 15 03 3D 31 00 13  80 01 80 3C 31 00 15 80  ....=1.....<1...
0310: 01 80 01 3C 03 3C 31 00  13 80 01 80 3D 31 00 15  ...<.<1.....=1..
0320: 80 01 80 03 1C 17 1B 00  0C 1C 17 41 13 80 16 80  ...........A....
0330: 26 00 1B 00 03 1D 17 1B  00 0C 1D 17 41 18 80 17  &...........A...
0340: 80 26 00 1B 00 02 1B 00  00 80 00 5E 03 3D 31 00  .&.........^.=1.
0350: 0B 80 01 80 3C 31 00 0C  80 01 80 01 85 03 3C 31  ....<1........<1
0360: 00 0B 80 01 80 3D 31 00  0C 80 01 80 03 1E 17 1B  .....=1.........
0370: 00 0C 1E 17 41 12 80 1A  80 26 00 1B 00 03 1F 17  ....A....&......
0380: 1B 00 0C 1F 17 03 15 17  2F 00 02 1F 00 07 00 00  ......../.......
0390: A3 03 3C 31 00 1B 80 01  80 3D 31 00 1C 80 01 80  ..<1.....=1.....
03A0: 01 B1 03 3D 31 00 1B 80  01 80 3C 31 00 1C 80 01  ...=1.....<1....
03B0: 80 24 1D 80 32 00 31 00  25 02 00 10 16 80 00 CC  .$..2.1.%.......
03C0: 03 03 32 00 00 10 1A 5B  0E 01 8C 04 02 00 10 1B  ..2....[........
03D0: 80 00 32 04 03 32 00 00  10 40 00 80 0B 80 01 10  ..2..2...@......
03E0: 0B 80 40 0C 80 0D 80 01  10 00 80 43 00 43 01 02  ..@........C.C..
03F0: 09 10 00 80 00 21 04 1D  1E 80 23 1D 1F 80 23 1D  .....!....#...#.
0400: 20 80 23 05 13 00 05 11  00 06 33 00 40 00 80 01   .#.......3.@...
0410: 80 01 10 09 80 40 09 80  21 80 01 10 00 80 01 2F  .....@..!....../
0420: 04 05 13 00 05 11 00 06  33 00 03 01 10 00 80 01  ........3.......
0430: 8C 04 02 00 10 1C 80 00  74 04 03 32 00 00 10 1D  ........t..2....
0440: 22 80 23 24 23 80 01 80  00 80 25 02 00 10 00 80  ".#$#.....%.....
0450: 00 71 04 05 13 00 05 11  00 06 33 00 40 00 80 01  .q........3.@...
0460: 80 01 10 0A 80 40 09 80  21 80 01 10 00 80 01 71  .....@..!......q
0470: 04 01 8C 04 02 00 10 24  80 00 87 04 03 32 00 00  .......$.....2..
0480: 80 06 33 00 01 8C 04 03  32 00 00 10 01 30 02 01  ..3.....2....0..
0490: 10 01 1B 03 38 00 00 80  03 39 00 00 80 03 3A 00  ....8....9....:.
04A0: 00 80 03 3B 00 00 80 03  3C 00 00 80 03 3D 00 00  ...;....<....=..
04B0: 80 02 08 00 00 80 00 C8  04 03 02 10 05 80 03 03  ................
04C0: 10 25 80 1D 26 80 23 1B  02 07 00 00 80 00 E6 04  .%..&.#.........
04D0: 03 02 10 05 80 03 03 10  27 80 03 04 10 28 80 1D  ........'....(..
04E0: 29 80 23 01 BC 09 42 1D  2A 80 23 03 02 10 00 00  ).#...B.*.#.....
04F0: 03 03 10 2B 80 1D 2C 80  23 06 13 00 02 13 00 00  ...+..,.#.......
0500: 80 00 BC 09 03 02 10 01  00 24 2D 80 01 80 00 80  .........$-.....
0510: 25 02 00 10 00 80 00 38  05 02 01 00 2B 80 03 2F  %......8....+../
0520: 05 48 2E 80 05 13 00 03  01 10 08 80 01 35 05 06  .H...........5..
0530: 15 00 06 19 00 01 4F 05  02 00 10 01 80 00 4F 05  ......O.......O.
0540: 05 13 00 03 01 10 08 80  1D 2F 80 23 01 4F 05 02  ........./.#.O..
0550: 13 00 00 80 00 B9 09 1D  30 80 23 02 15 00 0C 80  ........0.#.....
0560: 03 3F 06 02 15 00 00 80  80 76 05 1A 56 0A 07 15  .?.......v..V...
0570: 00 22 00 01 3C 06 02 15  00 01 80 80 89 05 1A BB  ."..<...........
0580: 0A 07 15 00 22 00 01 3C  06 02 15 00 09 80 80 9C  ...."..<........
0590: 05 1A FD 0A 07 15 00 22  00 01 3C 06 02 15 00 0A  ......."..<.....
05A0: 80 80 BB 05 03 36 00 00  80 3C 36 00 1B 80 01 80  .....6...<6.....
05B0: 1A 4D 0B 07 15 00 22 00  01 3C 06 02 15 00 02 80  .M...."..<......
05C0: 80 CE 05 1A E9 0C 07 15  00 22 00 01 3C 06 02 15  ........."..<...
05D0: 00 13 80 80 EB 05 03 16  17 00 80 03 34 00 00 80  ............4...
05E0: 1A 5F 0C 07 15 00 22 00  01 3C 06 02 15 00 15 80  ._...."..<......
05F0: 80 08 06 03 16 17 01 80  03 34 00 00 80 1A 5F 0C  .........4...._.
0600: 07 15 00 22 00 01 3C 06  02 15 00 0B 80 80 27 06  ..."..<.......'.
0610: 03 35 00 00 80 3C 35 00  1A 80 01 80 1A 4E 0D 07  .5...<5......N..
0620: 15 00 22 00 01 3C 06 02  15 00 31 80 80 3C 06 05  .."..<....1..<..
0630: 13 00 03 01 10 08 80 2E  1B 01 3C 06 01 5B 05 1D  ..........<..[..
0640: 32 80 23 03 15 00 01 80  03 38 00 00 80 02 15 00  2.#......8......
0650: 00 80 01 B9 09 03 37 00  00 80 03 18 17 2B 00 03  ......7......+..
0660: 19 17 2C 00 03 1A 17 2D  00 03 1B 17 2E 00 41 00  ..,....-......A.
0670: 80 02 80 26 00 1B 00 02  1B 00 00 80 00 90 06 3D  ...&...........=
0680: 37 00 13 80 01 80 3C 37  00 15 80 01 80 01 B7 06  7.....<7........
0690: 3C 37 00 13 80 01 80 3D  37 00 15 80 01 80 0C 1B  <7.....=7.......
06A0: 00 03 1C 17 1B 00 41 13  80 16 80 26 00 1B 00 0C  ......A....&....
06B0: 1B 00 03 1D 17 1B 00 41  18 80 17 80 26 00 1B 00  .......A....&...
06C0: 02 1B 00 00 80 00 D9 06  3D 37 00 0B 80 01 80 3C  ........=7.....<
06D0: 37 00 0C 80 01 80 01 00  07 3C 37 00 0B 80 01 80  7........<7.....
06E0: 3D 37 00 0C 80 01 80 0C  1B 00 03 1E 17 1B 00 41  =7.............A
06F0: 12 80 1A 80 26 00 1B 00  0C 1B 00 03 1F 17 1B 00  ....&...........
0700: 03 0C 17 00 80 03 0D 17  00 80 03 0E 17 00 80 03  ................
0710: 0F 17 00 80 03 10 17 00  80 03 11 17 00 80 03 12  ................
0720: 17 00 80 03 13 17 00 80  03 14 17 00 80 02 24 00  ..............$.
0730: 00 80 00 3D 07 03 0C 17  01 80 01 9D 07 3E 24 00  ...=.........>$.
0740: 00 80 49 07 03 0D 17 01  80 3E 24 00 01 80 55 07  ..I......>$...U.
0750: 03 0E 17 01 80 3E 24 00  09 80 61 07 03 0F 17 01  .....>$...a.....
0760: 80 3E 24 00 0A 80 6D 07  03 10 17 01 80 3E 24 00  .>$...m......>$.
0770: 02 80 79 07 03 11 17 01  80 3E 24 00 13 80 85 07  ..y......>$.....
0780: 03 12 17 01 80 3E 24 00  15 80 91 07 03 13 17 01  .....>$.........
0790: 80 3E 24 00 0B 80 9D 07  03 14 17 01 80 24 33 80  .>$..........$3.
07A0: 38 00 37 00 25 02 00 10  00 80 00 B8 07 03 38 00  8.7.%.........8.
07B0: 00 80 1A 56 0A 01 B6 09  02 00 10 01 80 00 CB 07  ...V............
07C0: 03 38 00 01 80 1A BB 0A  01 B6 09 02 00 10 09 80  .8..............
07D0: 00 DE 07 03 38 00 09 80  1A FD 0A 01 B6 09 02 00  ....8...........
07E0: 10 0A 80 00 F1 07 03 38  00 0A 80 1A E9 0C 01 B6  .......8........
07F0: 09 02 00 10 02 80 00 10  08 03 38 00 02 80 03 36  ..........8....6
0800: 00 00 80 3C 36 00 18 80  01 80 1A 4D 0B 01 B6 09  ...<6......M....
0810: 02 00 10 13 80 00 4A 08  03 38 00 13 80 03 16 17  ......J..8......
0820: 00 80 03 34 00 00 80 3C  34 00 34 80 01 80 1A 5F  ...4...<4.4...._
0830: 0C 41 00 80 02 80 26 00  1B 00 02 1B 00 00 80 01  .A....&.........
0840: 47 08 03 38 00 15 80 01  B6 09 02 00 10 15 80 00  G..8............
0850: 84 08 03 38 00 15 80 03  16 17 00 80 03 34 00 00  ...8.........4..
0860: 80 3C 34 00 34 80 01 80  1A 5F 0C 41 00 80 02 80  .<4.4...._.A....
0870: 26 00 1B 00 02 1B 00 00  80 00 81 08 03 38 00 13  &............8..
0880: 80 01 B6 09 02 00 10 0B  80 00 BE 08 03 38 00 0B  .............8..
0890: 80 03 16 17 01 80 03 34  00 00 80 3C 34 00 34 80  .......4...<4.4.
08A0: 01 80 1A 5F 0C 41 18 80  17 80 26 00 1B 00 02 1B  ..._.A....&.....
08B0: 00 00 80 01 BB 08 03 38  00 0C 80 01 B6 09 02 00  .......8........
08C0: 10 0C 80 00 F8 08 03 38  00 0C 80 03 16 17 01 80  .......8........
08D0: 03 34 00 00 80 3C 34 00  34 80 01 80 1A 5F 0C 41  .4...<4.4...._.A
08E0: 18 80 17 80 26 00 1B 00  02 1B 00 00 80 00 F5 08  ....&...........
08F0: 03 38 00 0B 80 01 B6 09  02 00 10 16 80 00 17 09  .8..............
0900: 03 38 00 16 80 03 35 00  00 80 3C 35 00 35 80 01  .8....5...<5.5..
0910: 80 1A 4E 0D 01 B6 09 02  00 10 18 80 00 38 09 03  ..N..........8..
0920: 01 10 08 80 1D 2F 80 23  03 15 00 00 80 03 38 00  ...../.#......8.
0930: 00 80 05 13 00 01 B6 09  02 00 10 1B 80 00 B6 09  ................
0940: 03 01 10 1B 80 40 0C 80  16 80 01 10 2B 00 40 18  .....@......+.@.
0950: 80 24 80 01 10 2C 00 40  17 80 12 80 01 10 2D 00  .$...,.@......-.
0960: 43 00 43 01 03 01 10 1C  80 40 0C 80 36 80 01 10  C.C......@..6...
0970: 2A 00 43 00 43 01 03 01  10 24 80 40 0C 80 16 80  *.C.C....$.@....
0980: 01 10 2E 00 40 18 80 37  80 01 10 24 00 43 00 43  ....@..7...$.C.C
0990: 01 03 01 10 17 80 40 0C  80 38 80 01 10 26 00 43  ......@..8...&.C
09A0: 00 43 01 03 01 10 01 80  03 15 00 00 80 05 13 00  .C..............
09B0: 05 11 00 01 B6 09 01 4D  06 01 FC 04 2E 1B 1D 39  .......M.......9
09C0: 80 23 1D 3A 80 23 1D 3B  80 23 03 02 10 05 80 1D  .#.:.#.;.#......
09D0: 3C 80 23 1D 3D 80 23 03  02 10 05 80 1D 3E 80 23  <.#.=.#......>.#
09E0: 03 03 10 25 80 1D 26 80  23 03 02 10 14 80 1D 3F  ...%..&.#......?
09F0: 80 23 1D 40 80 23 1C 41  80 1B 40 00 80 0B 80 01  .#.@.#.A..@.....
0A00: 10 00 80 40 0C 80 0D 80  01 10 00 80 43 00 43 01  ...@........C.C.
0A10: 40 00 80 0B 80 01 10 18  80 40 0C 80 0D 80 01 10  @........@......
0A20: 00 80 43 00 43 01 03 20  00 00 00 71 40 20 00 71  ..C.C.. ...q@ .q
0A30: 41 1E 00 1F 00 21 00 03  02 10 20 00 03 03 10 1E  A....!.... .....
0A40: 00 03 04 10 1F 00 03 05  10 21 00 1D 10 80 23 1D  .........!....#.
0A50: 42 80 23 1B 21 1B 03 39  00 2B 00 0C 39 00 02 39  B.#.!..9.+..9..9
0A60: 00 00 80 03 6B 0A 03 39  00 00 80 06 22 00 24 43  ....k..9....".$C
0A70: 80 00 80 00 80 25 02 00  10 00 80 00 8B 0A 03 2B  .....%.........+
0A80: 00 01 80 03 22 00 01 80  01 BA 0A 02 00 10 01 80  ...."...........
0A90: 00 A0 0A 03 2B 00 09 80  03 22 00 01 80 01 BA 0A  ....+...."......
0AA0: 02 00 10 09 80 00 B5 0A  03 2B 00 0A 80 03 22 00  .........+....".
0AB0: 01 80 01 BA 0A 03 22 00  31 80 1B 06 22 00 24 44  ......".1...".$D
0AC0: 80 00 80 00 80 25 02 00  10 00 80 00 D1 0A 01 D1  .....%..........
0AD0: 0A 02 00 10 00 80 03 DF  0A 03 22 00 31 80 1B 02  ..........".1...
0AE0: 00 10 18 80 03 F7 0A 03  2C 00 00 10 0B 2C 00 03  ........,....,..
0AF0: 22 00 01 80 01 FC 0A 03  22 00 31 80 1B 06 22 00  ".......".1...".
0B00: 24 45 80 00 80 00 80 25  02 00 10 00 80 00 1D 0B  $E.....%........
0B10: 03 2D 00 00 80 03 22 00  01 80 01 4C 0B 02 00 10  .-...."....L....
0B20: 01 80 00 32 0B 03 2D 00  01 80 03 22 00 01 80 01  ...2..-...."....
0B30: 4C 0B 02 00 10 09 80 00  47 0B 03 2D 00 09 80 03  L.......G..-....
0B40: 22 00 01 80 01 4C 0B 03  22 00 31 80 1B 06 22 00  "....L..".1...".
0B50: 05 3E 00 03 23 00 24 00  02 3E 00 00 80 01 5E 0C  .>..#.$..>....^.
0B60: 02 24 00 00 80 00 89 0B  06 30 00 02 30 00 0C 80  .$.......0..0...
0B70: 03 81 0B 9D 05 C8 0E 00  80 30 00 0B 30 00 01 6B  .........0..0..k
0B80: 0B 03 00 17 01 80 01 B9  0B 06 30 00 02 30 00 0C  ..........0..0..
0B90: 80 03 B4 0B 3E 24 00 30  00 A6 0B 9D 05 C8 0E 01  ....>$.0........
0BA0: 80 30 00 01 AE 0B 9D 05  C8 0E 00 80 30 00 0B 30  .0..........0..0
0BB0: 00 01 8C 0B 03 00 17 00  80 24 46 80 3A 00 36 00  .........$F.:.6.
0BC0: 25 02 00 10 16 80 00 D6  0B 03 22 00 31 80 03 24  %.........".1..$
0BD0: 00 23 00 01 F6 0B 02 00  10 18 80 00 E6 0B 03 22  .#............."
0BE0: 00 01 80 01 F6 0B 02 00  10 1B 80 00 F6 0B 03 22  ..............."
0BF0: 00 01 80 01 F6 0B 02 22  00 00 80 01 07 0C 06 3E  .......".......>
0C00: 00 06 3A 00 01 5B 0C 02  00 10 00 80 00 1C 0C 03  ..:..[..........
0C10: 24 00 00 80 03 3A 00 00  10 01 5B 0C 03 22 00 31  $....:....[..".1
0C20: 80 02 00 10 01 80 04 5B  0C 02 00 10 0C 80 05 5B  .......[.......[
0C30: 0C 03 1B 00 00 10 0C 1B  00 3E 24 00 1B 00 4A 0C  .........>$...J.
0C40: 3D 24 00 1B 00 01 80 01  51 0C 3C 24 00 1B 00 01  =$......Q.<$....
0C50: 80 03 22 00 00 80 03 3A  00 00 10 01 58 0B 1B 06  .."....:....X...
0C60: 22 00 03 17 17 00 80 24  47 80 00 80 00 80 25 02  "......$G.....%.
0C70: 00 10 48 80 00 80 0C 03  22 00 31 80 1B 01 80 0C  ..H.....".1.....
0C80: 02 16 17 00 80 00 94 0C  40 00 80 02 80 26 00 00  ........@....&..
0C90: 10 01 9D 0C 40 18 80 17  80 26 00 00 10 02 00 10  ....@....&......
0CA0: 00 80 00 AB 0C 03 22 00  01 80 1B 03 17 17 01 80  ......".........
0CB0: 24 47 80 00 80 01 80 25  02 00 10 48 80 00 C6 0C  $G.....%...H....
0CC0: 01 62 0C 01 C6 0C 02 16  17 00 80 00 DA 0C 40 13  .b............@.
0CD0: 80 16 80 26 00 00 10 01  E3 0C 40 12 80 1A 80 26  ...&......@....&
0CE0: 00 00 10 03 22 00 01 80  1B 06 22 00 24 49 80 00  ....".....".$I..
0CF0: 80 00 80 25 02 00 10 00  80 00 09 0D 03 2E 00 00  ...%............
0D00: 80 03 22 00 01 80 01 4D  0D 02 00 10 01 80 00 1E  .."....M........
0D10: 0D 03 2E 00 01 80 03 22  00 01 80 01 4D 0D 02 00  ......."....M...
0D20: 10 09 80 00 33 0D 03 2E  00 09 80 03 22 00 01 80  ....3......."...
0D30: 01 4D 0D 02 00 10 0A 80  00 48 0D 03 2E 00 0A 80  .M.......H......
0D40: 03 22 00 01 80 01 4D 0D  03 22 00 31 80 1B 06 22  ."....M..".1..."
0D50: 00 05 3F 00 03 29 00 2A  00 02 3F 00 00 80 01 5A  ..?..).*..?....Z
0D60: 0E 02 2A 00 00 80 00 8A  0D 06 30 00 02 30 00 14  ..*.......0..0..
0D70: 80 03 82 0D 9D 05 C8 0E  00 80 30 00 0B 30 00 01  ..........0..0..
0D80: 6C 0D 03 08 17 01 80 01  BA 0D 06 30 00 02 30 00  l..........0..0.
0D90: 14 80 03 B5 0D 3E 2A 00  30 00 A7 0D 9D 05 C8 0E  .....>*.0.......
0DA0: 01 80 30 00 01 AF 0D 9D  05 C8 0E 00 80 30 00 0B  ..0..........0..
0DB0: 30 00 01 8D 0D 03 08 17  00 80 24 4A 80 3C 00 35  0.........$J.<.5
0DC0: 00 25 02 00 10 37 80 00  D7 0D 03 22 00 31 80 03  .%...7.....".1..
0DD0: 2A 00 29 00 01 F7 0D 02  00 10 35 80 00 E7 0D 03  *.).......5.....
0DE0: 22 00 01 80 01 F7 0D 02  00 10 1A 80 00 F7 0D 03  "...............
0DF0: 22 00 01 80 01 F7 0D 02  22 00 00 80 01 08 0E 06  ".......".......
0E00: 3F 00 06 3C 00 01 57 0E  02 00 10 00 80 00 1D 0E  ?..<..W.........
0E10: 03 2A 00 00 80 03 3C 00  00 10 01 57 0E 02 00 10  .*....<....W....
0E20: 01 80 04 57 0E 02 00 10  14 80 05 57 0E 03 1B 00  ...W.......W....
0E30: 00 10 0C 1B 00 3E 2A 00  1B 00 46 0E 3D 2A 00 1B  .....>*...F.=*..
0E40: 00 01 80 01 4D 0E 3C 2A  00 1B 00 01 80 03 22 00  ....M.<*......".
0E50: 00 80 03 3C 00 00 10 01  59 0D 1B 05 41 00 03 3D  ...<....Y...A..=
0E60: 00 00 80 03 42 00 4B 80  02 41 00 00 80 01 C7 0E  ....B.K..A......
0E70: 02 2A 00 00 80 00 82 0E  3D 42 00 00 80 01 80 01  .*......=B......
0E80: A9 0E 06 30 00 02 30 00  14 80 03 A9 0E 3E 2A 00  ...0..0......>*.
0E90: 30 00 A3 0E 03 1B 00 30  00 0B 1B 00 3D 42 00 1B  0......0....=B..
0EA0: 00 01 80 0B 30 00 01 85  0E 24 4C 80 3D 00 42 00  ....0....$L.=.B.
0EB0: 25 02 00 10 37 80 00 BF  0E 06 41 00 01 BF 0E 03  %...7.....A.....
0EC0: 3D 00 00 10 01 68 0E 1B  02 10 03 10 04 10 05 10  =....h..........
0ED0: 06 10 07 10 08 10 09 10  00 17 01 17 02 17 03 17  ................
0EE0: 04 17 05 17 06 17 07 17  08 17 09 17 0A 17 0B 17  ................
0EF0: 0C 17 0D 17 0E 17 0F 17  10 17 11 17 12 17 13 17  ................
0F00: 14 17 15 17 16 17 17 17                           ........        
```

#### Opcodes

```
  0: 0x0005 [0x1A] CALL_SUBROUTINE(address=0x0A54)
  1: 0x0008 [0x00] END_REQSTACK()

SUBROUTINE_0A54:
  2: 0x0A54 [0x21] END_EVENT
```

#### Data or dead code:

```
# Dead code (unreachable instructions):
     0x0009 [0x1E] EventEntity looks at LocalPlayer and starts talking
     0x000E [0x03] ExtData[1]->WorkLocal[0] = Work_Zone[2]
     0x0013 [0x03] ExtData[1]->WorkLocal[1] = Work_Zone[3]
     0x0018 [0x3E] IF !(Work_Zone[7] bit 0*) GOTO 0x0025
     0x001F [0x05] ExtData[1]->WorkLocal[5] = 1
     0x0022 [0x01] GOTO 0x0028
     0x0025 [0x06] ExtData[1]->WorkLocal[5] = 0
     0x0028 [0x3E] IF !(Work_Zone[7] bit 1*) GOTO 0x0035
     0x002F [0x05] ExtData[1]->WorkLocal[8] = 1
     0x0032 [0x01] GOTO 0x0038
     0x0035 [0x06] ExtData[1]->WorkLocal[8] = 0
     0x0038 [0x03] ExtData[1]->WorkLocal[6] = Work_Zone[8]
     0x003D [0x03] ExtData[1]->WorkLocal[7] = Work_Zone[9]
     0x0042 [0x06] ExtData[1]->WorkLocal[17] = 0
     0x0045 [0x06] ExtData[1]->WorkLocal[18] = 0
     0x0048 [0x02] IF !(ExtData[1]->WorkLocal[5] == 0*) GOTO 0x0057
     0x0050 [0x3C] SET_BIT_FLAG_CONDITIONAL(target_work_offset=ExtData[1]->WorkLocal[18], bit_index_work_offset=4*, condition_work_offset=1*)
     0x0057 [0x1D] PRINT_EVENT_MESSAGE(message_id=16920*)
    → "Fair greetings to you, wanderer. I am a linkshell concierge, charged with uniting lone explorers of Vana'diel with linkshells of similar goals."
     0x005A [0x23] WAIT_FOR_DIALOG_INTERACTION
     0x005B [0x1D] PRINT_EVENT_MESSAGE(message_id=16921*)
    → "How may I help you today?"
     0x005E [0x23] WAIT_FOR_DIALOG_INTERACTION
     0x005F [0x02] IF !(ExtData[1]->WorkLocal[17] == 0*) GOTO 0x00C6
     0x0067 [0x03] Work_Zone[2] = 515*
     0x006C [0x24] CREATE_DIALOG(message_id=16922*, default_option=0*, option_flags=ExtData[1]->WorkLocal[18])
    → "What do you desire? [Nothing for now./Show me recruiting linkshells./I'd like to hand out $0./Tell me more./Open up the linkshell window.]"
     0x0073 [0x25] WAIT_DIALOG_SELECT()
     0x0074 [0x02] IF !(Work_Zone[0] == 0*) GOTO 0x008B
     0x007C [0x1D] PRINT_EVENT_MESSAGE(message_id=16923*)
    → "It was my pleasure to meet with you this fine day. May you encounter many friendly faces throughout your travels."
     0x007F [0x23] WAIT_FOR_DIALOG_INTERACTION
     0x0080 [0x05] ExtData[1]->WorkLocal[17] = 1
     0x0083 [0x03] Work_Zone[1] = 1073741824*
     0x0088 [0x01] GOTO 0x00C3
     0x008B [0x02] IF !(Work_Zone[0] == 1*) GOTO 0x0099
     0x0093 [0x1A] CALL_SUBROUTINE(address=0x00C8)
     0x0096 [0x01] GOTO 0x00C3
     0x0099 [0x02] IF !(Work_Zone[0] == 2*) GOTO 0x00A7
     0x00A1 [0x1A] CALL_SUBROUTINE(address=0x0493)
     0x00A4 [0x01] GOTO 0x00C3
     0x00A7 [0x02] IF !(Work_Zone[0] == 3*) GOTO 0x00B5
     0x00AF [0x1A] CALL_SUBROUTINE(address=0x09BE)
     0x00B2 [0x01] GOTO 0x00C3
     0x00B5 [0x02] IF !(Work_Zone[0] == 4*) GOTO 0x00C3
     0x00BD [0x1A] CALL_SUBROUTINE(address=0x09FA)
     0x00C0 [0x01] GOTO 0x00C3
     0x00C3 [0x01] GOTO 0x005F
     0x00C6 [0x21] END_EVENT
     0x00C7 [0x1B] RETURN
     0x00C8 [0x42] SET_CLI_EVENT_CANCEL_DATA()
     0x00C9 [0x40] SET_BIT_WORK_RANGE(start_bit=0*, end_bit=7*, target=Work_Zone[1], source=0*)
     0x00D2 [0x40] SET_BIT_WORK_RANGE(start_bit=8*, end_bit=31*, target=Work_Zone[1], source=0*)
     0x00DB [0x43] SEND_EVENT_UPDATE: Send pending tag to server (packet 0x005B)
     0x00DD [0x43] SEND_EVENT_UPDATE: Check pending flag (skip if not pending)
     0x00DF [0x06] ExtData[1]->WorkLocal[6] = 0
     0x00E2 [0x02] IF !(ExtData[1]->WorkLocal[6] == 0*) GOTO 0x00EF
     0x00EA [0x03] ExtData[1]->WorkLocal[6] = Work_Zone[8]
     0x00EF [0x02] IF !(ExtData[1]->WorkLocal[6] == 0*) GOTO 0x0104
     0x00F7 [0x03] Work_Zone[2] = 515*
     0x00FC [0x1D] PRINT_EVENT_MESSAGE(message_id=16932*)
    → "Though it pains me to say this, I have no $0 that meet your requirements at this time."
     0x00FF [0x23] WAIT_FOR_DIALOG_INTERACTION
     0x0100 [0x2E] SET_CLI_EVENT_CANCEL_FLAGS()
     0x0101 [0x01] GOTO 0x0492
     0x0104 [0x03] Work_Zone[2] = ExtData[1]->WorkLocal[0]
     0x0109 [0x1D] PRINT_EVENT_MESSAGE(message_id=16924*)
    → "Excellent. Please select which linkshell you are interested in contacting."
     0x010C [0x23] WAIT_FOR_DIALOG_INTERACTION
     0x010D [0x06] ExtData[1]->WorkLocal[19] = 0
     0x0110 [0x02] IF !(ExtData[1]->WorkLocal[19] == 0*) GOTO 0x0492
     0x0118 [0x06] ExtData[1]->WorkLocal[31] = 0
     0x011B [0x03] ExtData[1]->WorkLocal[32] = ExtData[1]->WorkLocal[0]
     0x0120 [0x71] USER_INPUT_HANDLER: Linkshell Concierge window (sends packet 0x60) (work=ExtData[1]->WorkLocal[32])
     0x0124 [0x71] USER_INPUT_HANDLER: Linkshell Concierge with params (sends packet 0x60) (params=[0x001E, 0x001F, 0x0021])
     0x012C [0x02] IF !(ExtData[1]->WorkLocal[5] == 0*) GOTO 0x014C
     0x0134 [0x03] Work_Zone[2] = ExtData[1]->WorkLocal[32]
     0x0139 [0x03] Work_Zone[3] = ExtData[1]->WorkLocal[30]
     0x013E [0x03] Work_Zone[4] = ExtData[1]->WorkLocal[31]
     0x0143 [0x03] Work_Zone[5] = ExtData[1]->WorkLocal[33]
     0x0148 [0x1D] PRINT_EVENT_MESSAGE(message_id=6463*)
    → "$0 $1 $2 $3"
     0x014B [0x23] WAIT_FOR_DIALOG_INTERACTION
     0x014C [0x02] IF !(ExtData[1]->WorkLocal[31] == 0*) GOTO 0x015B
     0x0154 [0x05] ExtData[1]->WorkLocal[19] = 1
     0x0157 [0x2E] SET_CLI_EVENT_CANCEL_FLAGS()
     0x0158 [0x01] GOTO 0x048F
     0x015B [0x03] Work_Zone[3] = ExtData[1]->WorkLocal[30]
     0x0160 [0x1D] PRINT_EVENT_MESSAGE(message_id=16952*)
    → ", correct?"
     0x0163 [0x23] WAIT_FOR_DIALOG_INTERACTION
     0x0164 [0x41] ExtData[1]->WorkLocal[25] = ExtData[1]->WorkLocal[31] (bits 0*-15*)
     0x016D [0x40] SET_BIT_WORK_RANGE(start_bit=0*, end_bit=7*, target=Work_Zone[1], source=5*)
     0x0176 [0x40] SET_BIT_WORK_RANGE(start_bit=8*, end_bit=31*, target=Work_Zone[1], source=ExtData[1]->WorkLocal[25])
     0x017F [0x43] SEND_EVENT_UPDATE: Send pending tag to server (packet 0x005B)
     0x0181 [0x43] SEND_EVENT_UPDATE: Check pending flag (skip if not pending)
     0x0183 [0x41] ExtData[1]->WorkLocal[25] = ExtData[1]->WorkLocal[31] (bits 16*-31*)
     0x018C [0x40] SET_BIT_WORK_RANGE(start_bit=0*, end_bit=7*, target=Work_Zone[1], source=6*)
     0x0195 [0x40] SET_BIT_WORK_RANGE(start_bit=8*, end_bit=31*, target=Work_Zone[1], source=ExtData[1]->WorkLocal[25])
     0x019E [0x43] SEND_EVENT_UPDATE: Send pending tag to server (packet 0x005B)
     0x01A0 [0x43] SEND_EVENT_UPDATE: Check pending flag (skip if not pending)
     0x01A2 [0x40] SET_BIT_WORK_RANGE(start_bit=0*, end_bit=7*, target=Work_Zone[1], source=15*)
     0x01AB [0x43] SEND_EVENT_UPDATE: Send pending tag to server (packet 0x005B)
     0x01AD [0x43] SEND_EVENT_UPDATE: Check pending flag (skip if not pending)
     0x01AF [0x02] IF !(Work_Zone[9] >= 0*) GOTO 0x01C0
     0x01B7 [0x1D] PRINT_EVENT_MESSAGE(message_id=16932*)
    → "Though it pains me to say this, I have no $0 that meet your requirements at this time."
     0x01BA [0x23] WAIT_FOR_DIALOG_INTERACTION
     0x01BB [0x05] ExtData[1]->WorkLocal[19] = 1
     0x01BE [0x2E] SET_CLI_EVENT_CANCEL_FLAGS()
     0x01BF [0x1B] RETURN
     0x01C0 [0x03] ExtData[1]->WorkLocal[43] = 0*
     0x01C5 [0x3E] IF !(ExtData[1]->WorkLocal[33] bit 1*) GOTO 0x01D1
     0x01CC [0x03] ExtData[1]->WorkLocal[43] = 1*
     0x01D1 [0x3E] IF !(ExtData[1]->WorkLocal[33] bit 2*) GOTO 0x01DD
     0x01D8 [0x03] ExtData[1]->WorkLocal[43] = 2*
     0x01DD [0x3E] IF !(ExtData[1]->WorkLocal[33] bit 5*) GOTO 0x01E9
     0x01E4 [0x03] ExtData[1]->WorkLocal[43] = 3*
     0x01E9 [0x41] ExtData[1]->WorkLocal[44] = ExtData[1]->WorkLocal[33] (bits 6*-9*)
     0x01F2 [0x41] ExtData[1]->WorkLocal[45] = ExtData[1]->WorkLocal[33] (bits 14*-15*)
     0x01FB [0x41] ExtData[1]->WorkLocal[42] = ExtData[1]->WorkLocal[33] (bits 16*-31*)
     0x0204 [0x41] ExtData[1]->WorkLocal[44] = ExtData[1]->WorkLocal[33] (bits 6*-9*)
     0x020D [0x41] ExtData[1]->WorkLocal[46] = Work_Zone[2] (bits 0*-1*)
     0x0216 [0x41] ExtData[1]->WorkLocal[36] = Work_Zone[2] (bits 2*-9*)
     0x021F [0x41] ExtData[1]->WorkLocal[38] = Work_Zone[2] (bits 10*-29*)
     0x0228 [0x03] ExtData[1]->WorkLocal[47] = Work_Zone[3]
     0x022D [0x05] ExtData[1]->WorkLocal[51] = 1
     0x0230 [0x02] IF !(ExtData[1]->WorkLocal[51] == 0*) GOTO 0x048F
     0x0238 [0x03] ExtData[1]->WorkLocal[49] = 0*
     0x023D [0x03] Work_Zone[3] = ExtData[1]->WorkLocal[30]
     0x0242 [0x03] Work_Zone_1700[24] = ExtData[1]->WorkLocal[43]
     0x0247 [0x03] Work_Zone_1700[25] = ExtData[1]->WorkLocal[44]
     0x024C [0x03] Work_Zone_1700[26] = ExtData[1]->WorkLocal[45]
     0x0251 [0x03] Work_Zone_1700[27] = ExtData[1]->WorkLocal[46]
     0x0256 [0x03] Work_Zone_1700[12] = 0*
     0x025B [0x03] Work_Zone_1700[13] = 0*
     0x0260 [0x03] Work_Zone_1700[14] = 0*
     0x0265 [0x03] Work_Zone_1700[15] = 0*
     0x026A [0x03] Work_Zone_1700[16] = 0*
     0x026F [0x03] Work_Zone_1700[17] = 0*
     0x0274 [0x03] Work_Zone_1700[18] = 0*
     0x0279 [0x03] Work_Zone_1700[19] = 0*
     0x027E [0x03] Work_Zone_1700[20] = 0*
     0x0283 [0x02] IF !(ExtData[1]->WorkLocal[36] == 0*) GOTO 0x0293
     0x028B [0x03] Work_Zone_1700[12] = 1*
     0x0290 [0x01] GOTO 0x02F3
     0x0293 [0x3E] IF !(ExtData[1]->WorkLocal[36] bit 0*) GOTO 0x029F
     0x029A [0x03] Work_Zone_1700[13] = 1*
     0x029F [0x3E] IF !(ExtData[1]->WorkLocal[36] bit 1*) GOTO 0x02AB
     0x02A6 [0x03] Work_Zone_1700[14] = 1*
     0x02AB [0x3E] IF !(ExtData[1]->WorkLocal[36] bit 2*) GOTO 0x02B7
     0x02B2 [0x03] Work_Zone_1700[15] = 1*
     0x02B7 [0x3E] IF !(ExtData[1]->WorkLocal[36] bit 3*) GOTO 0x02C3
     0x02BE [0x03] Work_Zone_1700[16] = 1*
     0x02C3 [0x3E] IF !(ExtData[1]->WorkLocal[36] bit 4*) GOTO 0x02CF
     0x02CA [0x03] Work_Zone_1700[17] = 1*
     0x02CF [0x3E] IF !(ExtData[1]->WorkLocal[36] bit 5*) GOTO 0x02DB
     0x02D6 [0x03] Work_Zone_1700[18] = 1*
     0x02DB [0x3E] IF !(ExtData[1]->WorkLocal[36] bit 6*) GOTO 0x02E7
     0x02E2 [0x03] Work_Zone_1700[19] = 1*
     0x02E7 [0x3E] IF !(ExtData[1]->WorkLocal[36] bit 7*) GOTO 0x02F3
     0x02EE [0x03] Work_Zone_1700[20] = 1*
     0x02F3 [0x41] ExtData[1]->WorkLocal[27] = ExtData[1]->WorkLocal[38] (bits 0*-4*)
     0x02FC [0x02] IF !(ExtData[1]->WorkLocal[27] == 0*) GOTO 0x0315
     0x0304 [0x3D] CLEAR_BIT_FLAG_CONDITIONAL(target_work_offset=ExtData[1]->WorkLocal[49], bit_index_work_offset=5*, condition_work_offset=1*)
     0x030B [0x3C] SET_BIT_FLAG_CONDITIONAL(target_work_offset=ExtData[1]->WorkLocal[49], bit_index_work_offset=6*, condition_work_offset=1*)
     0x0312 [0x01] GOTO 0x033C
     0x0315 [0x3C] SET_BIT_FLAG_CONDITIONAL(target_work_offset=ExtData[1]->WorkLocal[49], bit_index_work_offset=5*, condition_work_offset=1*)
     0x031C [0x3D] CLEAR_BIT_FLAG_CONDITIONAL(target_work_offset=ExtData[1]->WorkLocal[49], bit_index_work_offset=6*, condition_work_offset=1*)
     0x0323 [0x03] Work_Zone_1700[28] = ExtData[1]->WorkLocal[27]
     0x0328 [0x0C] Work_Zone_1700[28]--
     0x032B [0x41] ExtData[1]->WorkLocal[27] = ExtData[1]->WorkLocal[38] (bits 5*-9*)
     0x0334 [0x03] Work_Zone_1700[29] = ExtData[1]->WorkLocal[27]
     0x0339 [0x0C] Work_Zone_1700[29]--
     0x033C [0x41] ExtData[1]->WorkLocal[27] = ExtData[1]->WorkLocal[38] (bits 10*-14*)
     0x0345 [0x02] IF !(ExtData[1]->WorkLocal[27] == 0*) GOTO 0x035E
     0x034D [0x3D] CLEAR_BIT_FLAG_CONDITIONAL(target_work_offset=ExtData[1]->WorkLocal[49], bit_index_work_offset=7*, condition_work_offset=1*)
     0x0354 [0x3C] SET_BIT_FLAG_CONDITIONAL(target_work_offset=ExtData[1]->WorkLocal[49], bit_index_work_offset=8*, condition_work_offset=1*)
     0x035B [0x01] GOTO 0x0385
     0x035E [0x3C] SET_BIT_FLAG_CONDITIONAL(target_work_offset=ExtData[1]->WorkLocal[49], bit_index_work_offset=7*, condition_work_offset=1*)
     0x0365 [0x3D] CLEAR_BIT_FLAG_CONDITIONAL(target_work_offset=ExtData[1]->WorkLocal[49], bit_index_work_offset=8*, condition_work_offset=1*)
     0x036C [0x03] Work_Zone_1700[30] = ExtData[1]->WorkLocal[27]
     0x0371 [0x0C] Work_Zone_1700[30]--
     0x0374 [0x41] ExtData[1]->WorkLocal[27] = ExtData[1]->WorkLocal[38] (bits 15*-19*)
     0x037D [0x03] Work_Zone_1700[31] = ExtData[1]->WorkLocal[27]
     0x0382 [0x0C] Work_Zone_1700[31]--
     0x0385 [0x03] Work_Zone_1700[21] = ExtData[1]->WorkLocal[47]
     0x038A [0x02] IF !(ExtData[1]->WorkLocal[31] == ExtData[1]->WorkLocal[7]) GOTO 0x03A3
     0x0392 [0x3C] SET_BIT_FLAG_CONDITIONAL(target_work_offset=ExtData[1]->WorkLocal[49], bit_index_work_offset=11*, condition_work_offset=1*)
     0x0399 [0x3D] CLEAR_BIT_FLAG_CONDITIONAL(target_work_offset=ExtData[1]->WorkLocal[49], bit_index_work_offset=12*, condition_work_offset=1*)
     0x03A0 [0x01] GOTO 0x03B1
     0x03A3 [0x3D] CLEAR_BIT_FLAG_CONDITIONAL(target_work_offset=ExtData[1]->WorkLocal[49], bit_index_work_offset=11*, condition_work_offset=1*)
     0x03AA [0x3C] SET_BIT_FLAG_CONDITIONAL(target_work_offset=ExtData[1]->WorkLocal[49], bit_index_work_offset=12*, condition_work_offset=1*)
     0x03B1 [0x24] CREATE_DIALOG(message_id=16981*, default_option=ExtData[1]->WorkLocal[50], option_flags=ExtData[1]->WorkLocal[49])
    → "Information for : [Language: [./JP/EN/Other]./Number of New Members Wanted: $!./Active Members: "[1-6/7-18/19+]./Time Zone: #[Not set/JST/PST|PDT/GMT]./Days Active: [/Not Set.][/M][/Tu][/W][/Th][/F][/Sa][/Su][/, Holidays]./Times Active (Weekdays): Not set./Times Active (Weekdays): $[12:00 a.m./1:00 a.m./2:00 a.m./3:00 a.m./4:00 a.m./5:00 a.m./6:00 a.m./7:00 a.m./8:00 a.m./9:00 a.m./10:00 a.m./11:00 a.m./12:00 p.m./1:00 p.m./2:00 p.m./3:00 p.m./4:00 p.m./5:00 p.m./6:00 p.m./7:00 p.m./8:00 p.m./9:00 p.m./ 10:00 p.m./11:00 p.m.] to %[12:00 a.m./1:00 a.m./2:00 a.m./3:00 a.m./4:00 a.m./5:00 a.m./6:00 a.m./7:00 a.m./8:00 a.m./9:00 a.m./10:00 a.m./11:00 a.m./12:00 p.m./1:00 p.m./2:00 p.m./3:00 p.m./4:00 p.m./5:00 p.m./6:00 p.m./7:00 p.m./8:00 p.m./9:00 p.m./ 10:00 p.m./11:00 p.m.]/Times Active (Weekend): Not set. /Times Active (Weekend): &[12:00 a.m./1:00 a.m./2:00 a.m./3:00 a.m./4:00 a.m./5:00 a.m./6:00 a.m./7:00 a.m./8:00 a.m./9:00 a.m./10:00 a.m./11:00 a.m./12:00 p.m./1:00 p.m./2:00 p.m./3:00 p.m./4:00 p.m./5:00 p.m./6:00 p.m./7:00 p.m./8:00 p.m./9:00 p.m./ 10:00 p.m./11:00 p.m.] to '[12:00 a.m./1:00 a.m./2:00 a.m./3:00 a.m./4:00 a.m./5:00 a.m./6:00 a.m./7:00 a.m./8:00 a.m./9:00 a.m./10:00 a.m./11:00 a.m./12:00 p.m./1:00 p.m./2:00 p.m./3:00 p.m./4:00 p.m./5:00 p.m./6:00 p.m./7:00 p.m./8:00 p.m./9:00 p.m./ 10:00 p.m./11:00 p.m.]/Linkshell characteristics./Date posted: //./Receive $1027./Delist./Back.]"
     0x03B8 [0x25] WAIT_DIALOG_SELECT()
     0x03B9 [0x02] IF !(Work_Zone[0] == 9*) GOTO 0x03CC
     0x03C1 [0x03] ExtData[1]->WorkLocal[50] = Work_Zone[0]
     0x03C6 [0x1A] CALL_SUBROUTINE(address=0x0E5B)
     0x03C9 [0x01] GOTO 0x048C
     0x03CC [0x02] IF !(Work_Zone[0] == 11*) GOTO 0x0432
     0x03D4 [0x03] ExtData[1]->WorkLocal[50] = Work_Zone[0]
     0x03D9 [0x40] SET_BIT_WORK_RANGE(start_bit=0*, end_bit=7*, target=Work_Zone[1], source=7*)
     0x03E2 [0x40] SET_BIT_WORK_RANGE(start_bit=8*, end_bit=31*, target=Work_Zone[1], source=0*)
     0x03EB [0x43] SEND_EVENT_UPDATE: Send pending tag to server (packet 0x005B)
     0x03ED [0x43] SEND_EVENT_UPDATE: Check pending flag (skip if not pending)
     0x03EF [0x02] IF !(Work_Zone[9] == 0*) GOTO 0x0421
     0x03F7 [0x1D] PRINT_EVENT_MESSAGE(message_id=16928*)
    → "It is my sincere pleasure to bestow this upon you."
     0x03FA [0x23] WAIT_FOR_DIALOG_INTERACTION
     0x03FB [0x1D] PRINT_EVENT_MESSAGE(message_id=16929*)
    → "Your new linkshell is beyond doubt filled with many looking for new companions. Be sure to say a few words of greeting."
     0x03FE [0x23] WAIT_FOR_DIALOG_INTERACTION
     0x03FF [0x1D] PRINT_EVENT_MESSAGE(message_id=16931*)
    → "May your new linkshell provide you with fond memories that will last a lifetime."
     0x0402 [0x23] WAIT_FOR_DIALOG_INTERACTION
     0x0403 [0x05] ExtData[1]->WorkLocal[19] = 1
     0x0406 [0x05] ExtData[1]->WorkLocal[17] = 1
     0x0409 [0x06] ExtData[1]->WorkLocal[51] = 0
     0x040C [0x40] SET_BIT_WORK_RANGE(start_bit=0*, end_bit=1*, target=Work_Zone[1], source=2*)
     0x0415 [0x40] SET_BIT_WORK_RANGE(start_bit=2*, end_bit=24*, target=Work_Zone[1], source=0*)
     0x041E [0x01] GOTO 0x042F
     0x0421 [0x05] ExtData[1]->WorkLocal[19] = 1
     0x0424 [0x05] ExtData[1]->WorkLocal[17] = 1
     0x0427 [0x06] ExtData[1]->WorkLocal[51] = 0
     0x042A [0x03] Work_Zone[1] = 0*
     0x042F [0x01] GOTO 0x048C
     0x0432 [0x02] IF !(Work_Zone[0] == 12*) GOTO 0x0474
     0x043A [0x03] ExtData[1]->WorkLocal[50] = Work_Zone[0]
     0x043F [0x1D] PRINT_EVENT_MESSAGE(message_id=16933*)
    → "Should you desire, I can cancel your registration."
     0x0442 [0x23] WAIT_FOR_DIALOG_INTERACTION
     0x0443 [0x24] CREATE_DIALOG(message_id=16934*, default_option=1*, option_flags=0*)
    → "Cancel registration? [Yes, please./Not at this time.]"
     0x044A [0x25] WAIT_DIALOG_SELECT()
     0x044B [0x02] IF !(Work_Zone[0] == 0*) GOTO 0x0471
     0x0453 [0x05] ExtData[1]->WorkLocal[19] = 1
     0x0456 [0x05] ExtData[1]->WorkLocal[17] = 1
     0x0459 [0x06] ExtData[1]->WorkLocal[51] = 0
     0x045C [0x40] SET_BIT_WORK_RANGE(start_bit=0*, end_bit=1*, target=Work_Zone[1], source=3*)
     0x0465 [0x40] SET_BIT_WORK_RANGE(start_bit=2*, end_bit=24*, target=Work_Zone[1], source=0*)
     0x046E [0x01] GOTO 0x0471
     0x0471 [0x01] GOTO 0x048C
     0x0474 [0x02] IF !(Work_Zone[0] == 13*) GOTO 0x0487
     0x047C [0x03] ExtData[1]->WorkLocal[50] = 0*
     0x0481 [0x06] ExtData[1]->WorkLocal[51] = 0
     0x0484 [0x01] GOTO 0x048C
     0x0487 [0x03] ExtData[1]->WorkLocal[50] = Work_Zone[0]
     0x048C [0x01] GOTO 0x0230
     0x048F [0x01] GOTO 0x0110
     0x0492 [0x1B] RETURN
     0x0493 [0x03] ExtData[1]->WorkLocal[56] = 0*
     0x0498 [0x03] ExtData[1]->WorkLocal[57] = 0*
     0x049D [0x03] ExtData[1]->WorkLocal[58] = 0*
     0x04A2 [0x03] ExtData[1]->WorkLocal[59] = 0*
     0x04A7 [0x03] ExtData[1]->WorkLocal[60] = 0*
     0x04AC [0x03] ExtData[1]->WorkLocal[61] = 0*
     0x04B1 [0x02] IF !(ExtData[1]->WorkLocal[8] == 0*) GOTO 0x04C8
     0x04B9 [0x03] Work_Zone[2] = 515*
     0x04BE [0x03] Work_Zone[3] = 45*
     0x04C3 [0x1D] PRINT_EVENT_MESSAGE(message_id=16947*)
    → "It is also worth noting that $0 can only be registered by adventurers who have been active in Vana'diel for at least $1 days (Earth time)."
     0x04C6 [0x23] WAIT_FOR_DIALOG_INTERACTION
     0x04C7 [0x1B] RETURN
     0x04C8 [0x02] IF !(ExtData[1]->WorkLocal[7] == 0*) GOTO 0x04E6
     0x04D0 [0x03] Work_Zone[2] = 515*
     0x04D5 [0x03] Work_Zone[3] = 513*
     0x04DA [0x03] Work_Zone[4] = 514*
     0x04DF [0x1D] PRINT_EVENT_MESSAGE(message_id=16939*)
    → "Unfortunately, only those equipped with $1 or $2 as Linkshell 1 are able to distribute $0."
     0x04E2 [0x23] WAIT_FOR_DIALOG_INTERACTION
     0x04E3 [0x01] GOTO 0x09BC
     0x04E6 [0x42] SET_CLI_EVENT_CANCEL_DATA()
     0x04E7 [0x1D] PRINT_EVENT_MESSAGE(message_id=16951*)
    → "Thank you for taking the time to use our service. Let me confirm the information contained within."
     0x04EA [0x23] WAIT_FOR_DIALOG_INTERACTION
     0x04EB [0x03] Work_Zone[2] = ExtData[1]->WorkLocal[0]
     0x04F0 [0x03] Work_Zone[3] = 500*
     0x04F5 [0x1D] PRINT_EVENT_MESSAGE(message_id=16957*)
    → "Shall I start looking for new members for a fee of $1 gil?"
     0x04F8 [0x23] WAIT_FOR_DIALOG_INTERACTION
     0x04F9 [0x06] ExtData[1]->WorkLocal[19] = 0
     0x04FC [0x02] IF !(ExtData[1]->WorkLocal[19] == 0*) GOTO 0x09BC
     0x0504 [0x03] Work_Zone[2] = ExtData[1]->WorkLocal[1]
     0x0509 [0x24] CREATE_DIALOG(message_id=16958*, default_option=1*, option_flags=0*)
    → "Look for new members? ($0 gil) [That sounds wonderful./I'd rather not.]"
     0x0510 [0x25] WAIT_DIALOG_SELECT()
     0x0511 [0x02] IF !(Work_Zone[0] == 0*) GOTO 0x0538
     0x0519 [0x02] IF !(ExtData[1]->WorkLocal[1] >= 500*) GOTO 0x052F
     0x0521 [0x48] [System] [6398*]:
    → "You do not have enough gil."
     0x0524 [0x05] ExtData[1]->WorkLocal[19] = 1
     0x0527 [0x03] Work_Zone[1] = 1073741824*
     0x052C [0x01] GOTO 0x0535
     0x052F [0x06] ExtData[1]->WorkLocal[21] = 0
     0x0532 [0x06] ExtData[1]->WorkLocal[25] = 0
     0x0535 [0x01] GOTO 0x054F
     0x0538 [0x02] IF !(Work_Zone[0] == 1*) GOTO 0x054F
     0x0540 [0x05] ExtData[1]->WorkLocal[19] = 1
     0x0543 [0x03] Work_Zone[1] = 1073741824*
     0x0548 [0x1D] PRINT_EVENT_MESSAGE(message_id=16959*)
    → "I'm quite sorry to hear you decline. Please let me know if you change your mind."
     0x054B [0x23] WAIT_FOR_DIALOG_INTERACTION
     0x054C [0x01] GOTO 0x054F
     0x054F [0x02] IF !(ExtData[1]->WorkLocal[19] == 0*) GOTO 0x09B9
     0x0557 [0x1D] PRINT_EVENT_MESSAGE(message_id=16960*)
    → "I will now ask you a series of questions about your preferences. Be sure to answer truthfully so that you can find new members that match your style."
     0x055A [0x23] WAIT_FOR_DIALOG_INTERACTION
     0x055B [0x02] IF !(ExtData[1]->WorkLocal[21] >= 8*) GOTO 0x063F
     0x0563 [0x02] IF !(ExtData[1]->WorkLocal[21] == 0*) GOTO 0x0576
     0x056B [0x1A] CALL_SUBROUTINE(address=0x0A56)
     0x056E [0x07] ExtData[1]->WorkLocal[21] += ExtData[1]->WorkLocal[34]
     0x0573 [0x01] GOTO 0x063C
     0x0576 [0x02] IF !(ExtData[1]->WorkLocal[21] == 1*) GOTO 0x0589
     0x057E [0x1A] CALL_SUBROUTINE(address=0x0ABB)
     0x0581 [0x07] ExtData[1]->WorkLocal[21] += ExtData[1]->WorkLocal[34]
     0x0586 [0x01] GOTO 0x063C
     0x0589 [0x02] IF !(ExtData[1]->WorkLocal[21] == 2*) GOTO 0x059C
     0x0591 [0x1A] CALL_SUBROUTINE(address=0x0AFD)
     0x0594 [0x07] ExtData[1]->WorkLocal[21] += ExtData[1]->WorkLocal[34]
     0x0599 [0x01] GOTO 0x063C
     0x059C [0x02] IF !(ExtData[1]->WorkLocal[21] == 3*) GOTO 0x05BB
     0x05A4 [0x03] ExtData[1]->WorkLocal[54] = 0*
     0x05A9 [0x3C] SET_BIT_FLAG_CONDITIONAL(target_work_offset=ExtData[1]->WorkLocal[54], bit_index_work_offset=11*, condition_work_offset=1*)
     0x05B0 [0x1A] CALL_SUBROUTINE(address=0x0B4D)
     0x05B3 [0x07] ExtData[1]->WorkLocal[21] += ExtData[1]->WorkLocal[34]
     0x05B8 [0x01] GOTO 0x063C
     0x05BB [0x02] IF !(ExtData[1]->WorkLocal[21] == 4*) GOTO 0x05CE
     0x05C3 [0x1A] CALL_SUBROUTINE(address=0x0CE9)
     0x05C6 [0x07] ExtData[1]->WorkLocal[21] += ExtData[1]->WorkLocal[34]
     0x05CB [0x01] GOTO 0x063C
     0x05CE [0x02] IF !(ExtData[1]->WorkLocal[21] == 5*) GOTO 0x05EB
     0x05D6 [0x03] Work_Zone_1700[22] = 0*
     0x05DB [0x03] ExtData[1]->WorkLocal[52] = 0*
     0x05E0 [0x1A] CALL_SUBROUTINE(address=0x0C5F)
     0x05E3 [0x07] ExtData[1]->WorkLocal[21] += ExtData[1]->WorkLocal[34]
     0x05E8 [0x01] GOTO 0x063C
     0x05EB [0x02] IF !(ExtData[1]->WorkLocal[21] == 6*) GOTO 0x0608
     0x05F3 [0x03] Work_Zone_1700[22] = 1*
     0x05F8 [0x03] ExtData[1]->WorkLocal[52] = 0*
     0x05FD [0x1A] CALL_SUBROUTINE(address=0x0C5F)
     0x0600 [0x07] ExtData[1]->WorkLocal[21] += ExtData[1]->WorkLocal[34]
     0x0605 [0x01] GOTO 0x063C
     0x0608 [0x02] IF !(ExtData[1]->WorkLocal[21] == 7*) GOTO 0x0627
     0x0610 [0x03] ExtData[1]->WorkLocal[53] = 0*
     0x0615 [0x3C] SET_BIT_FLAG_CONDITIONAL(target_work_offset=ExtData[1]->WorkLocal[53], bit_index_work_offset=19*, condition_work_offset=1*)
     0x061C [0x1A] CALL_SUBROUTINE(address=0x0D4E)
     0x061F [0x07] ExtData[1]->WorkLocal[21] += ExtData[1]->WorkLocal[34]
     0x0624 [0x01] GOTO 0x063C
     0x0627 [0x02] IF !(ExtData[1]->WorkLocal[21] == 4294967295*) GOTO 0x063C
     0x062F [0x05] ExtData[1]->WorkLocal[19] = 1
     0x0632 [0x03] Work_Zone[1] = 1073741824*
     0x0637 [0x2E] SET_CLI_EVENT_CANCEL_FLAGS()
     0x0638 [0x1B] RETURN
     0x0639 [0x01] GOTO 0x063C
     0x063C [0x01] GOTO 0x055B
     0x063F [0x1D] PRINT_EVENT_MESSAGE(message_id=16979*)
    → "Please review the content of your linkshell. I will start looking for new members once you have confirmed that everything is in order."
     0x0642 [0x23] WAIT_FOR_DIALOG_INTERACTION
     0x0643 [0x03] ExtData[1]->WorkLocal[21] = 1*
     0x0648 [0x03] ExtData[1]->WorkLocal[56] = 0*
     0x064D [0x02] IF !(ExtData[1]->WorkLocal[21] == 0*) GOTO 0x09B9
     0x0655 [0x03] ExtData[1]->WorkLocal[55] = 0*
     0x065A [0x03] Work_Zone_1700[24] = ExtData[1]->WorkLocal[43]
     0x065F [0x03] Work_Zone_1700[25] = ExtData[1]->WorkLocal[44]
     0x0664 [0x03] Work_Zone_1700[26] = ExtData[1]->WorkLocal[45]
     0x0669 [0x03] Work_Zone_1700[27] = ExtData[1]->WorkLocal[46]
     0x066E [0x41] ExtData[1]->WorkLocal[27] = ExtData[1]->WorkLocal[38] (bits 0*-4*)
     0x0677 [0x02] IF !(ExtData[1]->WorkLocal[27] == 0*) GOTO 0x0690
     0x067F [0x3D] CLEAR_BIT_FLAG_CONDITIONAL(target_work_offset=ExtData[1]->WorkLocal[55], bit_index_work_offset=5*, condition_work_offset=1*)
     0x0686 [0x3C] SET_BIT_FLAG_CONDITIONAL(target_work_offset=ExtData[1]->WorkLocal[55], bit_index_work_offset=6*, condition_work_offset=1*)
     0x068D [0x01] GOTO 0x06B7
     0x0690 [0x3C] SET_BIT_FLAG_CONDITIONAL(target_work_offset=ExtData[1]->WorkLocal[55], bit_index_work_offset=5*, condition_work_offset=1*)
     0x0697 [0x3D] CLEAR_BIT_FLAG_CONDITIONAL(target_work_offset=ExtData[1]->WorkLocal[55], bit_index_work_offset=6*, condition_work_offset=1*)
     0x069E [0x0C] ExtData[1]->WorkLocal[27]--
     0x06A1 [0x03] Work_Zone_1700[28] = ExtData[1]->WorkLocal[27]
     0x06A6 [0x41] ExtData[1]->WorkLocal[27] = ExtData[1]->WorkLocal[38] (bits 5*-9*)
     0x06AF [0x0C] ExtData[1]->WorkLocal[27]--
     0x06B2 [0x03] Work_Zone_1700[29] = ExtData[1]->WorkLocal[27]
     0x06B7 [0x41] ExtData[1]->WorkLocal[27] = ExtData[1]->WorkLocal[38] (bits 10*-14*)
     0x06C0 [0x02] IF !(ExtData[1]->WorkLocal[27] == 0*) GOTO 0x06D9
     0x06C8 [0x3D] CLEAR_BIT_FLAG_CONDITIONAL(target_work_offset=ExtData[1]->WorkLocal[55], bit_index_work_offset=7*, condition_work_offset=1*)
     0x06CF [0x3C] SET_BIT_FLAG_CONDITIONAL(target_work_offset=ExtData[1]->WorkLocal[55], bit_index_work_offset=8*, condition_work_offset=1*)
     0x06D6 [0x01] GOTO 0x0700
     0x06D9 [0x3C] SET_BIT_FLAG_CONDITIONAL(target_work_offset=ExtData[1]->WorkLocal[55], bit_index_work_offset=7*, condition_work_offset=1*)
     0x06E0 [0x3D] CLEAR_BIT_FLAG_CONDITIONAL(target_work_offset=ExtData[1]->WorkLocal[55], bit_index_work_offset=8*, condition_work_offset=1*)
     0x06E7 [0x0C] ExtData[1]->WorkLocal[27]--
     0x06EA [0x03] Work_Zone_1700[30] = ExtData[1]->WorkLocal[27]
     0x06EF [0x41] ExtData[1]->WorkLocal[27] = ExtData[1]->WorkLocal[38] (bits 15*-19*)
     0x06F8 [0x0C] ExtData[1]->WorkLocal[27]--
     0x06FB [0x03] Work_Zone_1700[31] = ExtData[1]->WorkLocal[27]
     0x0700 [0x03] Work_Zone_1700[12] = 0*
     0x0705 [0x03] Work_Zone_1700[13] = 0*
     0x070A [0x03] Work_Zone_1700[14] = 0*
     0x070F [0x03] Work_Zone_1700[15] = 0*
     0x0714 [0x03] Work_Zone_1700[16] = 0*
     0x0719 [0x03] Work_Zone_1700[17] = 0*
     0x071E [0x03] Work_Zone_1700[18] = 0*
     0x0723 [0x03] Work_Zone_1700[19] = 0*
     0x0728 [0x03] Work_Zone_1700[20] = 0*
     0x072D [0x02] IF !(ExtData[1]->WorkLocal[36] == 0*) GOTO 0x073D
     0x0735 [0x03] Work_Zone_1700[12] = 1*
     0x073A [0x01] GOTO 0x079D
     0x073D [0x3E] IF !(ExtData[1]->WorkLocal[36] bit 0*) GOTO 0x0749
     0x0744 [0x03] Work_Zone_1700[13] = 1*
     0x0749 [0x3E] IF !(ExtData[1]->WorkLocal[36] bit 1*) GOTO 0x0755
     0x0750 [0x03] Work_Zone_1700[14] = 1*
     0x0755 [0x3E] IF !(ExtData[1]->WorkLocal[36] bit 2*) GOTO 0x0761
     0x075C [0x03] Work_Zone_1700[15] = 1*
     0x0761 [0x3E] IF !(ExtData[1]->WorkLocal[36] bit 3*) GOTO 0x076D
     0x0768 [0x03] Work_Zone_1700[16] = 1*
     0x076D [0x3E] IF !(ExtData[1]->WorkLocal[36] bit 4*) GOTO 0x0779
     0x0774 [0x03] Work_Zone_1700[17] = 1*
     0x0779 [0x3E] IF !(ExtData[1]->WorkLocal[36] bit 5*) GOTO 0x0785
     0x0780 [0x03] Work_Zone_1700[18] = 1*
     0x0785 [0x3E] IF !(ExtData[1]->WorkLocal[36] bit 6*) GOTO 0x0791
     0x078C [0x03] Work_Zone_1700[19] = 1*
     0x0791 [0x3E] IF !(ExtData[1]->WorkLocal[36] bit 7*) GOTO 0x079D
     0x0798 [0x03] Work_Zone_1700[20] = 1*
     0x079D [0x24] CREATE_DIALOG(message_id=16980*, default_option=ExtData[1]->WorkLocal[56], option_flags=ExtData[1]->WorkLocal[55])
    → "Linkshell info (can be changed): [Language: [./JP/EN/Other]./Number of New Members Wanted: $!./Active Members: "[1-6/7-18/19+]./Time Zone: #[Not set/JST/PST|PDT/GMT]./Days Active: [/Not Set.][/M][/Tu][/W][/Th][/F][/Sa][/Su][/, Holidays]./Times Active (Weekdays): Not set./Times Active (Weekdays): $[12:00 a.m./1:00 a.m./2:00 a.m./3:00 a.m./4:00 a.m./5:00 a.m./6:00 a.m./7:00 a.m./8:00 a.m./9:00 a.m./10:00 a.m./11:00 a.m./12:00 p.m./1:00 p.m./2:00 p.m./3:00 p.m./4:00 p.m./5:00 p.m./6:00 p.m./7:00 p.m./8:00 p.m./9:00 p.m./ 10:00 p.m./11:00 p.m.] to %[12:00 a.m./1:00 a.m./2:00 a.m./3:00 a.m./4:00 a.m./5:00 a.m./6:00 a.m./7:00 a.m./8:00 a.m./9:00 a.m./10:00 a.m./11:00 a.m./12:00 p.m./1:00 p.m./2:00 p.m./3:00 p.m./4:00 p.m./5:00 p.m./6:00 p.m./7:00 p.m./8:00 p.m./9:00 p.m./ 10:00 p.m./11:00 p.m.]/Times Active (Weekend): Not set. /Times Active (Weekend): &[12:00 a.m./1:00 a.m./2:00 a.m./3:00 a.m./4:00 a.m./5:00 a.m./6:00 a.m./7:00 a.m./8:00 a.m./9:00 a.m./10:00 a.m./11:00 a.m./12:00 p.m./1:00 p.m./2:00 p.m./3:00 p.m./4:00 p.m./5:00 p.m./6:00 p.m./7:00 p.m./8:00 p.m./9:00 p.m./ 10:00 p.m./11:00 p.m.] to '[12:00 a.m./1:00 a.m./2:00 a.m./3:00 a.m./4:00 a.m./5:00 a.m./6:00 a.m./7:00 a.m./8:00 a.m./9:00 a.m./10:00 a.m./11:00 a.m./12:00 p.m./1:00 p.m./2:00 p.m./3:00 p.m./4:00 p.m./5:00 p.m./6:00 p.m./7:00 p.m./8:00 p.m./9:00 p.m./ 10:00 p.m./11:00 p.m.]/Linkshell characteristics./Cancel without posting./Post recruitment.]"
     0x07A4 [0x25] WAIT_DIALOG_SELECT()
     0x07A5 [0x02] IF !(Work_Zone[0] == 0*) GOTO 0x07B8
     0x07AD [0x03] ExtData[1]->WorkLocal[56] = 0*
     0x07B2 [0x1A] CALL_SUBROUTINE(address=0x0A56)
     0x07B5 [0x01] GOTO 0x09B6
     0x07B8 [0x02] IF !(Work_Zone[0] == 1*) GOTO 0x07CB
     0x07C0 [0x03] ExtData[1]->WorkLocal[56] = 1*
     0x07C5 [0x1A] CALL_SUBROUTINE(address=0x0ABB)
     0x07C8 [0x01] GOTO 0x09B6
     0x07CB [0x02] IF !(Work_Zone[0] == 2*) GOTO 0x07DE
     0x07D3 [0x03] ExtData[1]->WorkLocal[56] = 2*
     0x07D8 [0x1A] CALL_SUBROUTINE(address=0x0AFD)
     0x07DB [0x01] GOTO 0x09B6
     0x07DE [0x02] IF !(Work_Zone[0] == 3*) GOTO 0x07F1
     0x07E6 [0x03] ExtData[1]->WorkLocal[56] = 3*
     0x07EB [0x1A] CALL_SUBROUTINE(address=0x0CE9)
     0x07EE [0x01] GOTO 0x09B6
     0x07F1 [0x02] IF !(Work_Zone[0] == 4*) GOTO 0x0810
     0x07F9 [0x03] ExtData[1]->WorkLocal[56] = 4*
     0x07FE [0x03] ExtData[1]->WorkLocal[54] = 0*
     0x0803 [0x3C] SET_BIT_FLAG_CONDITIONAL(target_work_offset=ExtData[1]->WorkLocal[54], bit_index_work_offset=10*, condition_work_offset=1*)
     0x080A [0x1A] CALL_SUBROUTINE(address=0x0B4D)
     0x080D [0x01] GOTO 0x09B6
     0x0810 [0x02] IF !(Work_Zone[0] == 5*) GOTO 0x084A
     0x0818 [0x03] ExtData[1]->WorkLocal[56] = 5*
     0x081D [0x03] Work_Zone_1700[22] = 0*
     0x0822 [0x03] ExtData[1]->WorkLocal[52] = 0*
     0x0827 [0x3C] SET_BIT_FLAG_CONDITIONAL(target_work_offset=ExtData[1]->WorkLocal[52], bit_index_work_offset=26*, condition_work_offset=1*)
     0x082E [0x1A] CALL_SUBROUTINE(address=0x0C5F)
     0x0831 [0x41] ExtData[1]->WorkLocal[27] = ExtData[1]->WorkLocal[38] (bits 0*-4*)
     0x083A [0x02] IF !(ExtData[1]->WorkLocal[27] == 0*) GOTO 0x0847
     0x0842 [0x03] ExtData[1]->WorkLocal[56] = 6*
     0x0847 [0x01] GOTO 0x09B6
     0x084A [0x02] IF !(Work_Zone[0] == 6*) GOTO 0x0884
     0x0852 [0x03] ExtData[1]->WorkLocal[56] = 6*
     0x0857 [0x03] Work_Zone_1700[22] = 0*
     0x085C [0x03] ExtData[1]->WorkLocal[52] = 0*
     0x0861 [0x3C] SET_BIT_FLAG_CONDITIONAL(target_work_offset=ExtData[1]->WorkLocal[52], bit_index_work_offset=26*, condition_work_offset=1*)
     0x0868 [0x1A] CALL_SUBROUTINE(address=0x0C5F)
     0x086B [0x41] ExtData[1]->WorkLocal[27] = ExtData[1]->WorkLocal[38] (bits 0*-4*)
     0x0874 [0x02] IF !(ExtData[1]->WorkLocal[27] == 0*) GOTO 0x0881
     0x087C [0x03] ExtData[1]->WorkLocal[56] = 5*
     0x0881 [0x01] GOTO 0x09B6
     0x0884 [0x02] IF !(Work_Zone[0] == 7*) GOTO 0x08BE
     0x088C [0x03] ExtData[1]->WorkLocal[56] = 7*
     0x0891 [0x03] Work_Zone_1700[22] = 1*
     0x0896 [0x03] ExtData[1]->WorkLocal[52] = 0*
     0x089B [0x3C] SET_BIT_FLAG_CONDITIONAL(target_work_offset=ExtData[1]->WorkLocal[52], bit_index_work_offset=26*, condition_work_offset=1*)
     0x08A2 [0x1A] CALL_SUBROUTINE(address=0x0C5F)
     0x08A5 [0x41] ExtData[1]->WorkLocal[27] = ExtData[1]->WorkLocal[38] (bits 10*-14*)
     0x08AE [0x02] IF !(ExtData[1]->WorkLocal[27] == 0*) GOTO 0x08BB
     0x08B6 [0x03] ExtData[1]->WorkLocal[56] = 8*
     0x08BB [0x01] GOTO 0x09B6
     0x08BE [0x02] IF !(Work_Zone[0] == 8*) GOTO 0x08F8
     0x08C6 [0x03] ExtData[1]->WorkLocal[56] = 8*
     0x08CB [0x03] Work_Zone_1700[22] = 1*
     0x08D0 [0x03] ExtData[1]->WorkLocal[52] = 0*
     0x08D5 [0x3C] SET_BIT_FLAG_CONDITIONAL(target_work_offset=ExtData[1]->WorkLocal[52], bit_index_work_offset=26*, condition_work_offset=1*)
     0x08DC [0x1A] CALL_SUBROUTINE(address=0x0C5F)
     0x08DF [0x41] ExtData[1]->WorkLocal[27] = ExtData[1]->WorkLocal[38] (bits 10*-14*)
     0x08E8 [0x02] IF !(ExtData[1]->WorkLocal[27] == 0*) GOTO 0x08F5
     0x08F0 [0x03] ExtData[1]->WorkLocal[56] = 7*
     0x08F5 [0x01] GOTO 0x09B6
     0x08F8 [0x02] IF !(Work_Zone[0] == 9*) GOTO 0x0917
     0x0900 [0x03] ExtData[1]->WorkLocal[56] = 9*
     0x0905 [0x03] ExtData[1]->WorkLocal[53] = 0*
     0x090A [0x3C] SET_BIT_FLAG_CONDITIONAL(target_work_offset=ExtData[1]->WorkLocal[53], bit_index_work_offset=18*, condition_work_offset=1*)
     0x0911 [0x1A] CALL_SUBROUTINE(address=0x0D4E)
     0x0914 [0x01] GOTO 0x09B6
     0x0917 [0x02] IF !(Work_Zone[0] == 10*) GOTO 0x0938
     0x091F [0x03] Work_Zone[1] = 1073741824*
     0x0924 [0x1D] PRINT_EVENT_MESSAGE(message_id=16959*)
    → "I'm quite sorry to hear you decline. Please let me know if you change your mind."
     0x0927 [0x23] WAIT_FOR_DIALOG_INTERACTION
     0x0928 [0x03] ExtData[1]->WorkLocal[21] = 0*
     0x092D [0x03] ExtData[1]->WorkLocal[56] = 0*
     0x0932 [0x05] ExtData[1]->WorkLocal[19] = 1
     0x0935 [0x01] GOTO 0x09B6
     0x0938 [0x02] IF !(Work_Zone[0] == 11*) GOTO 0x09B6
     0x0940 [0x03] Work_Zone[1] = 11*
     0x0945 [0x40] SET_BIT_WORK_RANGE(start_bit=8*, end_bit=9*, target=Work_Zone[1], source=ExtData[1]->WorkLocal[43])
     0x094E [0x40] SET_BIT_WORK_RANGE(start_bit=10*, end_bit=13*, target=Work_Zone[1], source=ExtData[1]->WorkLocal[44])
     0x0957 [0x40] SET_BIT_WORK_RANGE(start_bit=14*, end_bit=15*, target=Work_Zone[1], source=ExtData[1]->WorkLocal[45])
     0x0960 [0x43] SEND_EVENT_UPDATE: Send pending tag to server (packet 0x005B)
     0x0962 [0x43] SEND_EVENT_UPDATE: Check pending flag (skip if not pending)
     0x0964 [0x03] Work_Zone[1] = 12*
     0x0969 [0x40] SET_BIT_WORK_RANGE(start_bit=8*, end_bit=23*, target=Work_Zone[1], source=ExtData[1]->WorkLocal[42])
     0x0972 [0x43] SEND_EVENT_UPDATE: Send pending tag to server (packet 0x005B)
     0x0974 [0x43] SEND_EVENT_UPDATE: Check pending flag (skip if not pending)
     0x0976 [0x03] Work_Zone[1] = 13*
     0x097B [0x40] SET_BIT_WORK_RANGE(start_bit=8*, end_bit=9*, target=Work_Zone[1], source=ExtData[1]->WorkLocal[46])
     0x0984 [0x40] SET_BIT_WORK_RANGE(start_bit=10*, end_bit=17*, target=Work_Zone[1], source=ExtData[1]->WorkLocal[36])
     0x098D [0x43] SEND_EVENT_UPDATE: Send pending tag to server (packet 0x005B)
     0x098F [0x43] SEND_EVENT_UPDATE: Check pending flag (skip if not pending)
     0x0991 [0x03] Work_Zone[1] = 14*
     0x0996 [0x40] SET_BIT_WORK_RANGE(start_bit=8*, end_bit=27*, target=Work_Zone[1], source=ExtData[1]->WorkLocal[38])
     0x099F [0x43] SEND_EVENT_UPDATE: Send pending tag to server (packet 0x005B)
     0x09A1 [0x43] SEND_EVENT_UPDATE: Check pending flag (skip if not pending)
     0x09A3 [0x03] Work_Zone[1] = 1*
     0x09A8 [0x03] ExtData[1]->WorkLocal[21] = 0*
     0x09AD [0x05] ExtData[1]->WorkLocal[19] = 1
     0x09B0 [0x05] ExtData[1]->WorkLocal[17] = 1
     0x09B3 [0x01] GOTO 0x09B6
     0x09B6 [0x01] GOTO 0x064D
     0x09B9 [0x01] GOTO 0x04FC
     0x09BC [0x2E] SET_CLI_EVENT_CANCEL_FLAGS()
     0x09BD [0x1B] RETURN
     0x09BE [0x1D] PRINT_EVENT_MESSAGE(message_id=16940*)
    → "Once-in-a-lifetime meetings make for wonderful stories, but no treasure can compare to being part of a group of friends you can call home."
     0x09C1 [0x23] WAIT_FOR_DIALOG_INTERACTION
     0x09C2 [0x1D] PRINT_EVENT_MESSAGE(message_id=16941*)
    → "Linkshell concierges such as myself bring together adventurers of similar interests."
     0x09C5 [0x23] WAIT_FOR_DIALOG_INTERACTION
     0x09C6 [0x1D] PRINT_EVENT_MESSAGE(message_id=16942*)
    → "In a word, we match adventurers looking for linkshells with those linkshells interested in taking in new members."
     0x09C9 [0x23] WAIT_FOR_DIALOG_INTERACTION
     0x09CA [0x03] Work_Zone[2] = 515*
     0x09CF [0x1D] PRINT_EVENT_MESSAGE(message_id=16943*)
    → "I accept $0 from linkshells the world over and distribute them to appropriate adventurers."
     0x09D2 [0x23] WAIT_FOR_DIALOG_INTERACTION
     0x09D3 [0x1D] PRINT_EVENT_MESSAGE(message_id=16944*)
    → "This service is provided by the Adventurers' Mutual Aid Network, and as such, anyone working for Vana'diel's greater good is eligible to participate."
     0x09D6 [0x23] WAIT_FOR_DIALOG_INTERACTION
     0x09D7 [0x03] Work_Zone[2] = 515*
     0x09DC [0x1D] PRINT_EVENT_MESSAGE(message_id=16945*)
    → "Additionally, please be aware that I am only able to offer you one $0 per day."
     0x09DF [0x23] WAIT_FOR_DIALOG_INTERACTION
     0x09E0 [0x03] Work_Zone[3] = 45*
     0x09E5 [0x1D] PRINT_EVENT_MESSAGE(message_id=16947*)
    → "It is also worth noting that $0 can only be registered by adventurers who have been active in Vana'diel for at least $1 days (Earth time)."
     0x09E8 [0x23] WAIT_FOR_DIALOG_INTERACTION
     0x09E9 [0x03] Work_Zone[2] = 16*
     0x09EE [0x1D] PRINT_EVENT_MESSAGE(message_id=16948*)
    → "It is worth noting that each concierge may only register a maximum of $0 linkshells."
     0x09F1 [0x23] WAIT_FOR_DIALOG_INTERACTION
     0x09F2 [0x1D] PRINT_EVENT_MESSAGE(message_id=16949*)
    → "Once the number of registrations has hit the limit, existing registrations will be canceled in order of oldest to newest."
     0x09F5 [0x23] WAIT_FOR_DIALOG_INTERACTION
     0x09F6 [0x1C] WAIT(70* ticks)
     0x09F9 [0x1B] RETURN
     0x09FA [0x40] SET_BIT_WORK_RANGE(start_bit=0*, end_bit=7*, target=Work_Zone[1], source=0*)
     0x0A03 [0x40] SET_BIT_WORK_RANGE(start_bit=8*, end_bit=31*, target=Work_Zone[1], source=0*)
     0x0A0C [0x43] SEND_EVENT_UPDATE: Send pending tag to server (packet 0x005B)
     0x0A0E [0x43] SEND_EVENT_UPDATE: Check pending flag (skip if not pending)
     0x0A10 [0x40] SET_BIT_WORK_RANGE(start_bit=0*, end_bit=7*, target=Work_Zone[1], source=10*)
     0x0A19 [0x40] SET_BIT_WORK_RANGE(start_bit=8*, end_bit=31*, target=Work_Zone[1], source=0*)
     0x0A22 [0x43] SEND_EVENT_UPDATE: Send pending tag to server (packet 0x005B)
     0x0A24 [0x43] SEND_EVENT_UPDATE: Check pending flag (skip if not pending)
     0x0A26 [0x03] ExtData[1]->WorkLocal[32] = ExtData[1]->WorkLocal[0]
     0x0A2B [0x71] USER_INPUT_HANDLER: Linkshell Concierge window (sends packet 0x60) (work=ExtData[1]->WorkLocal[32])
     0x0A2F [0x71] USER_INPUT_HANDLER: Linkshell Concierge with params (sends packet 0x60) (params=[0x001E, 0x001F, 0x0021])
     0x0A37 [0x03] Work_Zone[2] = ExtData[1]->WorkLocal[32]
     0x0A3C [0x03] Work_Zone[3] = ExtData[1]->WorkLocal[30]
     0x0A41 [0x03] Work_Zone[4] = ExtData[1]->WorkLocal[31]
     0x0A46 [0x03] Work_Zone[5] = ExtData[1]->WorkLocal[33]
     0x0A4B [0x1D] PRINT_EVENT_MESSAGE(message_id=6463*)
    → "$0 $1 $2 $3"
     0x0A4E [0x23] WAIT_FOR_DIALOG_INTERACTION
     0x0A4F [0x1D] PRINT_EVENT_MESSAGE(message_id=16954*)
    → "LS1: ."
     0x0A52 [0x23] WAIT_FOR_DIALOG_INTERACTION
     0x0A53 [0x1B] RETURN
# Dead code (unreachable instructions):
     0x0A55 [0x1B] RETURN
     0x0A56 [0x03] ExtData[1]->WorkLocal[57] = ExtData[1]->WorkLocal[43]
     0x0A5B [0x0C] ExtData[1]->WorkLocal[57]--
     0x0A5E [0x02] IF !(ExtData[1]->WorkLocal[57] >= 0*) GOTO 0x0A6B
     0x0A66 [0x03] ExtData[1]->WorkLocal[57] = 0*
     0x0A6B [0x06] ExtData[1]->WorkLocal[34] = 0
     0x0A6E [0x24] CREATE_DIALOG(message_id=16961*, default_option=0*, option_flags=0*)
    → "What is your language preference? [Japanese./English./Other./Back.]"
     0x0A75 [0x25] WAIT_DIALOG_SELECT()
     0x0A76 [0x02] IF !(Work_Zone[0] == 0*) GOTO 0x0A8B
     0x0A7E [0x03] ExtData[1]->WorkLocal[43] = 1*
     0x0A83 [0x03] ExtData[1]->WorkLocal[34] = 1*
     0x0A88 [0x01] GOTO 0x0ABA
     0x0A8B [0x02] IF !(Work_Zone[0] == 1*) GOTO 0x0AA0
     0x0A93 [0x03] ExtData[1]->WorkLocal[43] = 2*
     0x0A98 [0x03] ExtData[1]->WorkLocal[34] = 1*
     0x0A9D [0x01] GOTO 0x0ABA
     0x0AA0 [0x02] IF !(Work_Zone[0] == 2*) GOTO 0x0AB5
     0x0AA8 [0x03] ExtData[1]->WorkLocal[43] = 3*
     0x0AAD [0x03] ExtData[1]->WorkLocal[34] = 1*
     0x0AB2 [0x01] GOTO 0x0ABA
     0x0AB5 [0x03] ExtData[1]->WorkLocal[34] = 4294967295*
     0x0ABA [0x1B] RETURN
     0x0ABB [0x06] ExtData[1]->WorkLocal[34] = 0
     0x0ABE [0x24] CREATE_DIALOG(message_id=16969*, default_option=0*, option_flags=0*)
    → "How many members are you looking for? [1."."./4./5./6./7./8./9./10./Back.]"
     0x0AC5 [0x25] WAIT_DIALOG_SELECT()
     0x0AC6 [0x02] IF !(Work_Zone[0] == 0*) GOTO 0x0AD1
     0x0ACE [0x01] GOTO 0x0AD1
     0x0AD1 [0x02] IF !(Work_Zone[0] >= 0*) GOTO 0x0ADF
     0x0AD9 [0x03] ExtData[1]->WorkLocal[34] = 4294967295*
     0x0ADE [0x1B] RETURN
     0x0ADF [0x02] IF !(Work_Zone[0] >= 10*) GOTO 0x0AF7
     0x0AE7 [0x03] ExtData[1]->WorkLocal[44] = Work_Zone[0]
     0x0AEC [0x0B] ExtData[1]->WorkLocal[44]++
     0x0AEF [0x03] ExtData[1]->WorkLocal[34] = 1*
     0x0AF4 [0x01] GOTO 0x0AFC
     0x0AF7 [0x03] ExtData[1]->WorkLocal[34] = 4294967295*
     0x0AFC [0x1B] RETURN
     0x0AFD [0x06] ExtData[1]->WorkLocal[34] = 0
     0x0B00 [0x24] CREATE_DIALOG(message_id=16970*, default_option=0*, option_flags=0*)
    → "How many active members do you have? [1-6./7-18./19+./Back.]"
     0x0B07 [0x25] WAIT_DIALOG_SELECT()
     0x0B08 [0x02] IF !(Work_Zone[0] == 0*) GOTO 0x0B1D
     0x0B10 [0x03] ExtData[1]->WorkLocal[45] = 0*
     0x0B15 [0x03] ExtData[1]->WorkLocal[34] = 1*
     0x0B1A [0x01] GOTO 0x0B4C
     0x0B1D [0x02] IF !(Work_Zone[0] == 1*) GOTO 0x0B32
     0x0B25 [0x03] ExtData[1]->WorkLocal[45] = 1*
     0x0B2A [0x03] ExtData[1]->WorkLocal[34] = 1*
     0x0B2F [0x01] GOTO 0x0B4C
     0x0B32 [0x02] IF !(Work_Zone[0] == 2*) GOTO 0x0B47
     0x0B3A [0x03] ExtData[1]->WorkLocal[45] = 2*
     0x0B3F [0x03] ExtData[1]->WorkLocal[34] = 1*
     0x0B44 [0x01] GOTO 0x0B4C
     0x0B47 [0x03] ExtData[1]->WorkLocal[34] = 4294967295*
     0x0B4C [0x1B] RETURN
     0x0B4D [0x06] ExtData[1]->WorkLocal[34] = 0
     0x0B50 [0x05] ExtData[1]->WorkLocal[62] = 1
     0x0B53 [0x03] ExtData[1]->WorkLocal[35] = ExtData[1]->WorkLocal[36]
     0x0B58 [0x02] IF !(ExtData[1]->WorkLocal[62] == 0*) GOTO 0x0C5E
     0x0B60 [0x02] IF !(ExtData[1]->WorkLocal[36] == 0*) GOTO 0x0B89
     0x0B68 [0x06] ExtData[1]->WorkLocal[48] = 0
     0x0B6B [0x02] IF !(ExtData[1]->WorkLocal[48] >= 8*) GOTO 0x0B81
     0x0B73 [0x9D] 0x0EC8[ExtData[1]->WorkLocal[48] * 2] = 0* // Write WORD
     0x0B7B [0x0B] ExtData[1]->WorkLocal[48]++
     0x0B7E [0x01] GOTO 0x0B6B
     0x0B81 [0x03] Work_Zone_1700[0] = 1*
     0x0B86 [0x01] GOTO 0x0BB9
     0x0B89 [0x06] ExtData[1]->WorkLocal[48] = 0
     0x0B8C [0x02] IF !(ExtData[1]->WorkLocal[48] >= 8*) GOTO 0x0BB4
     0x0B94 [0x3E] IF !(ExtData[1]->WorkLocal[36] bit ExtData[1]->WorkLocal[48]) GOTO 0x0BA6
     0x0B9B [0x9D] 0x0EC8[ExtData[1]->WorkLocal[48] * 2] = 1* // Write WORD
     0x0BA3 [0x01] GOTO 0x0BAE
     0x0BA6 [0x9D] 0x0EC8[ExtData[1]->WorkLocal[48] * 2] = 0* // Write WORD
     0x0BAE [0x0B] ExtData[1]->WorkLocal[48]++
     0x0BB1 [0x01] GOTO 0x0B8C
     0x0BB4 [0x03] Work_Zone_1700[0] = 0*
     0x0BB9 [0x24] CREATE_DIALOG(message_id=16963*, default_option=ExtData[1]->WorkLocal[58], option_flags=ExtData[1]->WorkLocal[54])
    → "What days are you most active? [[-/Z]No day set./[-/Z]Mondays./[-/Z]Tuesdays./[-/Z]Wednesdays./[-/Z]Thursdays./[-/Z]Fridays./[-/Z]Saturdays./[-/Z]Sundays./[-/Z]Holidays./Back./Next./Update.]"
     0x0BC0 [0x25] WAIT_DIALOG_SELECT()
     0x0BC1 [0x02] IF !(Work_Zone[0] == 9*) GOTO 0x0BD6
     0x0BC9 [0x03] ExtData[1]->WorkLocal[34] = 4294967295*
     0x0BCE [0x03] ExtData[1]->WorkLocal[36] = ExtData[1]->WorkLocal[35]
     0x0BD3 [0x01] GOTO 0x0BF6
     0x0BD6 [0x02] IF !(Work_Zone[0] == 10*) GOTO 0x0BE6
     0x0BDE [0x03] ExtData[1]->WorkLocal[34] = 1*
     0x0BE3 [0x01] GOTO 0x0BF6
     0x0BE6 [0x02] IF !(Work_Zone[0] == 11*) GOTO 0x0BF6
     0x0BEE [0x03] ExtData[1]->WorkLocal[34] = 1*
     0x0BF3 [0x01] GOTO 0x0BF6
     0x0BF6 [0x02] IF !(ExtData[1]->WorkLocal[34] == 0*) GOTO 0x0C07
     0x0BFE [0x06] ExtData[1]->WorkLocal[62] = 0
     0x0C01 [0x06] ExtData[1]->WorkLocal[58] = 0
     0x0C04 [0x01] GOTO 0x0C5B
     0x0C07 [0x02] IF !(Work_Zone[0] == 0*) GOTO 0x0C1C
     0x0C0F [0x03] ExtData[1]->WorkLocal[36] = 0*
     0x0C14 [0x03] ExtData[1]->WorkLocal[58] = Work_Zone[0]
     0x0C19 [0x01] GOTO 0x0C5B
     0x0C1C [0x03] ExtData[1]->WorkLocal[34] = 4294967295*
     0x0C21 [0x02] IF !(Work_Zone[0] < 1*) GOTO 0x0C5B
     0x0C29 [0x02] IF !(Work_Zone[0] > 8*) GOTO 0x0C5B
     0x0C31 [0x03] ExtData[1]->WorkLocal[27] = Work_Zone[0]
     0x0C36 [0x0C] ExtData[1]->WorkLocal[27]--
     0x0C39 [0x3E] IF !(ExtData[1]->WorkLocal[36] bit ExtData[1]->WorkLocal[27]) GOTO 0x0C4A
     0x0C40 [0x3D] CLEAR_BIT_FLAG_CONDITIONAL(target_work_offset=ExtData[1]->WorkLocal[36], bit_index_work_offset=ExtData[1]->WorkLocal[27], condition_work_offset=1*)
     0x0C47 [0x01] GOTO 0x0C51
     0x0C4A [0x3C] SET_BIT_FLAG_CONDITIONAL(target_work_offset=ExtData[1]->WorkLocal[36], bit_index_work_offset=ExtData[1]->WorkLocal[27], condition_work_offset=1*)
     0x0C51 [0x03] ExtData[1]->WorkLocal[34] = 0*
     0x0C56 [0x03] ExtData[1]->WorkLocal[58] = Work_Zone[0]
     0x0C5B [0x01] GOTO 0x0B58
     0x0C5E [0x1B] RETURN
     0x0C5F [0x06] ExtData[1]->WorkLocal[34] = 0
     0x0C62 [0x03] Work_Zone_1700[23] = 0*
     0x0C67 [0x24] CREATE_DIALOG(message_id=16964*, default_option=0*, option_flags=0*)
    → "When do you [start/stop] playing on [weekdays/weekends]? [No time set./12:00 a.m./1:00 a.m.":00 a.m.":00 a.m./4:00 a.m./5:00 a.m./6:00 a.m./7:00 a.m./8:00 a.m./9:00 a.m./10:00 a.m./11:00 a.m./12:00 p.m./1:00 p.m.":00 p.m.":00 p.m./4:00 p.m./5:00 p.m./6:00 p.m./7:00 p.m./8:00 p.m./9:00 p.m./10:00 p.m./11:00 p.m./Back.]"
     0x0C6E [0x25] WAIT_DIALOG_SELECT()
     0x0C6F [0x02] IF !(Work_Zone[0] == 25*) GOTO 0x0C80
     0x0C77 [0x03] ExtData[1]->WorkLocal[34] = 4294967295*
     0x0C7C [0x1B] RETURN
     0x0C7D [0x01] GOTO 0x0C80
     0x0C80 [0x02] IF !(Work_Zone_1700[22] == 0*) GOTO 0x0C94
     0x0C88 [0x40] SET_BIT_WORK_RANGE(start_bit=0*, end_bit=4*, target=ExtData[1]->WorkLocal[38], source=Work_Zone[0])
     0x0C91 [0x01] GOTO 0x0C9D
     0x0C94 [0x40] SET_BIT_WORK_RANGE(start_bit=10*, end_bit=14*, target=ExtData[1]->WorkLocal[38], source=Work_Zone[0])
     0x0C9D [0x02] IF !(Work_Zone[0] == 0*) GOTO 0x0CAB
     0x0CA5 [0x03] ExtData[1]->WorkLocal[34] = 1*
     0x0CAA [0x1B] RETURN
     0x0CAB [0x03] Work_Zone_1700[23] = 1*
     0x0CB0 [0x24] CREATE_DIALOG(message_id=16964*, default_option=0*, option_flags=1*)
    → "When do you [start/stop] playing on [weekdays/weekends]? [No time set./12:00 a.m./1:00 a.m.":00 a.m.":00 a.m./4:00 a.m./5:00 a.m./6:00 a.m./7:00 a.m./8:00 a.m./9:00 a.m./10:00 a.m./11:00 a.m./12:00 p.m./1:00 p.m.":00 p.m.":00 p.m./4:00 p.m./5:00 p.m./6:00 p.m./7:00 p.m./8:00 p.m./9:00 p.m./10:00 p.m./11:00 p.m./Back.]"
     0x0CB7 [0x25] WAIT_DIALOG_SELECT()
     0x0CB8 [0x02] IF !(Work_Zone[0] == 25*) GOTO 0x0CC6
     0x0CC0 [0x01] GOTO 0x0C62
     0x0CC3 [0x01] GOTO 0x0CC6
     0x0CC6 [0x02] IF !(Work_Zone_1700[22] == 0*) GOTO 0x0CDA
     0x0CCE [0x40] SET_BIT_WORK_RANGE(start_bit=5*, end_bit=9*, target=ExtData[1]->WorkLocal[38], source=Work_Zone[0])
     0x0CD7 [0x01] GOTO 0x0CE3
     0x0CDA [0x40] SET_BIT_WORK_RANGE(start_bit=15*, end_bit=19*, target=ExtData[1]->WorkLocal[38], source=Work_Zone[0])
     0x0CE3 [0x03] ExtData[1]->WorkLocal[34] = 1*
     0x0CE8 [0x1B] RETURN
     0x0CE9 [0x06] ExtData[1]->WorkLocal[34] = 0
     0x0CEC [0x24] CREATE_DIALOG(message_id=16965*, default_option=0*, option_flags=0*)
    → "Designate a time zone. [No designation./Japanese Standard Time (JST)./Pacific Time (PST|PDT)./Greenwich Mean Time (GMT)./Back.]"
     0x0CF3 [0x25] WAIT_DIALOG_SELECT()
     0x0CF4 [0x02] IF !(Work_Zone[0] == 0*) GOTO 0x0D09
     0x0CFC [0x03] ExtData[1]->WorkLocal[46] = 0*
     0x0D01 [0x03] ExtData[1]->WorkLocal[34] = 1*
     0x0D06 [0x01] GOTO 0x0D4D
     0x0D09 [0x02] IF !(Work_Zone[0] == 1*) GOTO 0x0D1E
     0x0D11 [0x03] ExtData[1]->WorkLocal[46] = 1*
     0x0D16 [0x03] ExtData[1]->WorkLocal[34] = 1*
     0x0D1B [0x01] GOTO 0x0D4D
     0x0D1E [0x02] IF !(Work_Zone[0] == 2*) GOTO 0x0D33
     0x0D26 [0x03] ExtData[1]->WorkLocal[46] = 2*
     0x0D2B [0x03] ExtData[1]->WorkLocal[34] = 1*
     0x0D30 [0x01] GOTO 0x0D4D
     0x0D33 [0x02] IF !(Work_Zone[0] == 3*) GOTO 0x0D48
     0x0D3B [0x03] ExtData[1]->WorkLocal[46] = 3*
     0x0D40 [0x03] ExtData[1]->WorkLocal[34] = 1*
     0x0D45 [0x01] GOTO 0x0D4D
     0x0D48 [0x03] ExtData[1]->WorkLocal[34] = 4294967295*
     0x0D4D [0x1B] RETURN
     0x0D4E [0x06] ExtData[1]->WorkLocal[34] = 0
     0x0D51 [0x05] ExtData[1]->WorkLocal[63] = 1
     0x0D54 [0x03] ExtData[1]->WorkLocal[41] = ExtData[1]->WorkLocal[42]
     0x0D59 [0x02] IF !(ExtData[1]->WorkLocal[63] == 0*) GOTO 0x0E5A
     0x0D61 [0x02] IF !(ExtData[1]->WorkLocal[42] == 0*) GOTO 0x0D8A
     0x0D69 [0x06] ExtData[1]->WorkLocal[48] = 0
     0x0D6C [0x02] IF !(ExtData[1]->WorkLocal[48] >= 16*) GOTO 0x0D82
     0x0D74 [0x9D] 0x0EC8[ExtData[1]->WorkLocal[48] * 2] = 0* // Write WORD
     0x0D7C [0x0B] ExtData[1]->WorkLocal[48]++
     0x0D7F [0x01] GOTO 0x0D6C
     0x0D82 [0x03] Work_Zone_1700[8] = 1*
     0x0D87 [0x01] GOTO 0x0DBA
     0x0D8A [0x06] ExtData[1]->WorkLocal[48] = 0
     0x0D8D [0x02] IF !(ExtData[1]->WorkLocal[48] >= 16*) GOTO 0x0DB5
     0x0D95 [0x3E] IF !(ExtData[1]->WorkLocal[42] bit ExtData[1]->WorkLocal[48]) GOTO 0x0DA7
     0x0D9C [0x9D] 0x0EC8[ExtData[1]->WorkLocal[48] * 2] = 1* // Write WORD
     0x0DA4 [0x01] GOTO 0x0DAF
     0x0DA7 [0x9D] 0x0EC8[ExtData[1]->WorkLocal[48] * 2] = 0* // Write WORD
     0x0DAF [0x0B] ExtData[1]->WorkLocal[48]++
     0x0DB2 [0x01] GOTO 0x0D8D
     0x0DB5 [0x03] Work_Zone_1700[8] = 0*
     0x0DBA [0x24] CREATE_DIALOG(message_id=16971*, default_option=ExtData[1]->WorkLocal[60], option_flags=ExtData[1]->WorkLocal[53])
    → "How would you characterize your linkshell? [[|/Z] No info provided./[|/Z] New players welcome./[|/Z] Returnees welcome./[|/Z] Adults only./[|/Z] 10 year veterans active./[|/Z] Casual players./[|/Z] Battle and synthesis support./[|/Z] Anyone welcome./[|/Z] End content-focused./[|/Z] Ambuscade-focused./[|/Z] Never give up./[|/Z] High-end gear./[|/Z] Looking for crafters./[|/Z] Trial memberships welcome./[|/Z] Multiple linkshells OK./[|/Z] Community events held./[|/Z] New linkshell./Back./Next./Update.]"
     0x0DC1 [0x25] WAIT_DIALOG_SELECT()
     0x0DC2 [0x02] IF !(Work_Zone[0] == 17*) GOTO 0x0DD7
     0x0DCA [0x03] ExtData[1]->WorkLocal[34] = 4294967295*
     0x0DCF [0x03] ExtData[1]->WorkLocal[42] = ExtData[1]->WorkLocal[41]
     0x0DD4 [0x01] GOTO 0x0DF7
     0x0DD7 [0x02] IF !(Work_Zone[0] == 18*) GOTO 0x0DE7
     0x0DDF [0x03] ExtData[1]->WorkLocal[34] = 1*
     0x0DE4 [0x01] GOTO 0x0DF7
     0x0DE7 [0x02] IF !(Work_Zone[0] == 19*) GOTO 0x0DF7
     0x0DEF [0x03] ExtData[1]->WorkLocal[34] = 1*
     0x0DF4 [0x01] GOTO 0x0DF7
     0x0DF7 [0x02] IF !(ExtData[1]->WorkLocal[34] == 0*) GOTO 0x0E08
     0x0DFF [0x06] ExtData[1]->WorkLocal[63] = 0
     0x0E02 [0x06] ExtData[1]->WorkLocal[60] = 0
     0x0E05 [0x01] GOTO 0x0E57
     0x0E08 [0x02] IF !(Work_Zone[0] == 0*) GOTO 0x0E1D
     0x0E10 [0x03] ExtData[1]->WorkLocal[42] = 0*
     0x0E15 [0x03] ExtData[1]->WorkLocal[60] = Work_Zone[0]
     0x0E1A [0x01] GOTO 0x0E57
     0x0E1D [0x02] IF !(Work_Zone[0] < 1*) GOTO 0x0E57
     0x0E25 [0x02] IF !(Work_Zone[0] > 16*) GOTO 0x0E57
     0x0E2D [0x03] ExtData[1]->WorkLocal[27] = Work_Zone[0]
     0x0E32 [0x0C] ExtData[1]->WorkLocal[27]--
     0x0E35 [0x3E] IF !(ExtData[1]->WorkLocal[42] bit ExtData[1]->WorkLocal[27]) GOTO 0x0E46
     0x0E3C [0x3D] CLEAR_BIT_FLAG_CONDITIONAL(target_work_offset=ExtData[1]->WorkLocal[42], bit_index_work_offset=ExtData[1]->WorkLocal[27], condition_work_offset=1*)
     0x0E43 [0x01] GOTO 0x0E4D
     0x0E46 [0x3C] SET_BIT_FLAG_CONDITIONAL(target_work_offset=ExtData[1]->WorkLocal[42], bit_index_work_offset=ExtData[1]->WorkLocal[27], condition_work_offset=1*)
     0x0E4D [0x03] ExtData[1]->WorkLocal[34] = 0*
     0x0E52 [0x03] ExtData[1]->WorkLocal[60] = Work_Zone[0]
     0x0E57 [0x01] GOTO 0x0D59
     0x0E5A [0x1B] RETURN
     0x0E5B [0x05] ExtData[1]->WorkLocal[65] = 1
     0x0E5E [0x03] ExtData[1]->WorkLocal[61] = 0*
     0x0E63 [0x03] ExtData[1]->WorkLocal[66] = 131071*
     0x0E68 [0x02] IF !(ExtData[1]->WorkLocal[65] == 0*) GOTO 0x0EC7
     0x0E70 [0x02] IF !(ExtData[1]->WorkLocal[42] == 0*) GOTO 0x0E82
     0x0E78 [0x3D] CLEAR_BIT_FLAG_CONDITIONAL(target_work_offset=ExtData[1]->WorkLocal[66], bit_index_work_offset=0*, condition_work_offset=1*)
     0x0E7F [0x01] GOTO 0x0EA9
     0x0E82 [0x06] ExtData[1]->WorkLocal[48] = 0
     0x0E85 [0x02] IF !(ExtData[1]->WorkLocal[48] >= 16*) GOTO 0x0EA9
     0x0E8D [0x3E] IF !(ExtData[1]->WorkLocal[42] bit ExtData[1]->WorkLocal[48]) GOTO 0x0EA3
     0x0E94 [0x03] ExtData[1]->WorkLocal[27] = ExtData[1]->WorkLocal[48]
     0x0E99 [0x0B] ExtData[1]->WorkLocal[27]++
     0x0E9C [0x3D] CLEAR_BIT_FLAG_CONDITIONAL(target_work_offset=ExtData[1]->WorkLocal[66], bit_index_work_offset=ExtData[1]->WorkLocal[27], condition_work_offset=1*)
     0x0EA3 [0x0B] ExtData[1]->WorkLocal[48]++
     0x0EA6 [0x01] GOTO 0x0E85
     0x0EA9 [0x24] CREATE_DIALOG(message_id=16972*, default_option=ExtData[1]->WorkLocal[61], option_flags=ExtData[1]->WorkLocal[66])
    → "Linkshell characteristics. [No info provided./New players welcome./Returnees welcome./Adults only./10 year veterans active./Casual players./Battle and synthesis support./Anyone welcome./End content-focused./Ambuscade-focused./Never give up./High-end gear./Looking for crafters./Trial memberships welcome./Multiple linkshells OK./Community events held./New linkshell./Back]"
     0x0EB0 [0x25] WAIT_DIALOG_SELECT()
     0x0EB1 [0x02] IF !(Work_Zone[0] == 17*) GOTO 0x0EBF
     0x0EB9 [0x06] ExtData[1]->WorkLocal[65] = 0
     0x0EBC [0x01] GOTO 0x0EBF
     0x0EBF [0x03] ExtData[1]->WorkLocal[61] = Work_Zone[0]
     0x0EC4 [0x01] GOTO 0x0E68
     0x0EC7 [0x1B] RETURN
     0x0EC8 [0x02] IF !(0x0310 == 0x0410) GOTO 0x1005
     0x0ED0 [0x06] 0x0710 = 0
     0x0ED3 [0x10] Work_Zone[8] <<= Work_Zone[9]
     0x0ED8 [0x00] END_REQSTACK()
     0x0ED9 [0x17] Work_Zone_1700[1] = cos(Work_Zone_1700[2]) * Work_Zone_1700[3]
     0x0EE0 [0x04] DEPRECATED_NOP(unused=0x0517)
     0x0EE3 [0x17] Work_Zone_1700[6] = cos(Work_Zone_1700[7]) * Work_Zone_1700[8]
     0x0EEA [0x09] 0x0A17 |= (1 << 0x0B17)
     0x0EEF [0x17] Work_Zone_1700[12] = cos(Work_Zone_1700[13]) * Work_Zone_1700[14]
     0x0EF6 [0x0F] Work_Zone[23] ^= Work_Zone_Memorize[23]
     0x0EFB [0x17] Work_Zone_1700[18] = cos(Work_Zone_1700[19]) * Work_Zone_1700[20]
     0x0F02 [0x15] 0x1617 /= Work_Zone_1700[23]
```
