# 17735685 - Echo Hawk

## Common Data

| Field            | Value                  |
|------------------|------------------------|
| Zone             | Bastok Mines (ID: 234) |
| Block Size       | 308 bytes              |
| Total Events     | 7                      |
| References Count | 25                     |

## List of Events

| Event ID                 | Entrypoint   |   Size |   Instructions |
|--------------------------|--------------|--------|----------------|
| [65535](#event-65535)    | 0x0000       |      1 |              1 |
| [5](#event-5)            | 0x0001       |     67 |             25 |
| [13](#event-13)          | 0x0044       |     11 |              5 |
| [176](#event-176)        | 0x004F       |     15 |              3 |
| [180](#event-180)        | 0x005E       |      1 |              1 |
| [65535.1](#event-655351) | 0x005F       |     10 |              2 |
| [505](#event-505)        | 0x0069       |     56 |             14 |

## DAT References (imed_data)

|   Index | Hex Value   |   Dec Value |
|---------|-------------|-------------|
|       0 | 0x291D      |       10525 |
|       1 | 0x003C      |          60 |
|       2 | 0x291E      |       10526 |
|       3 | 0x291F      |       10527 |
|       4 | 0x2920      |       10528 |
|       5 | 0x2921      |       10529 |
|       6 | 0x2922      |       10530 |
|       7 | 0x2923      |       10531 |
|       8 | 0x2924      |       10532 |
|       9 | 0x2925      |       10533 |
|      10 | 0x2926      |       10534 |
|      11 | 0x291C      |       10524 |
|      12 | 0xFFFDA6E5  |  4294813413 |
|      13 | 0xFFFF8169  |  4294934889 |
|      14 | 0x0000      |           0 |
|      15 | 0x0885      |        2181 |
|      16 | 0xFFFFB04B  |  4294946891 |
|      17 | 0x6EC9      |       28361 |
|      18 | 0x1B57      |        6999 |
|      19 | 0x097F      |        2431 |
|      20 | 0x3104      |       12548 |
|      21 | 0x001E      |          30 |
|      22 | 0x3109      |       12553 |
|      23 | 0x310A      |       12554 |
|      24 | 0x310B      |       12555 |

## String References

- **10524**: I have nothing for you today. Sometimes, even I run out of information.
- **10525**: What's this? Haven't seen you around here before.
- **10526**: For a newcomer, you're off to a good start... You've come to talk to me.
- **10527**: I'm Echo Hawk. I trade in information.
- **10528**: Don't bother asking the hard-headed Galka around here--they're too busy contemplating their navels. But not me. I've got info on stuff most people have never even heard of.
- **10529**: Don't worry about money. I make it my policy not to take gil from rookies like you.
- **10530**: My sources even pay me in special cases, you know.
- **10531**: Anyway, I've heard that this old Hume, Wahid, is looking for a rare gem. You can find him at the auction house on the other side of this neighborhood.
- **10532**: Apparently, it's supposed to be part of some legend, but I don't deal with that kind of nonsense. Go talk to the bard at the tavern. Fairy tales are his specialty.
- **10533**: You can probably find him in the Port District. He's not the type to hang around this kind of seedy neighborhood.
- **10534**: Good hunting, then. Come back whenever you need more info.
- **12548**: <Player>'s badge flashes brightly.
- **12553**: What's this? You want information on the "Empire of Aht Urhgan"?
- **12554**: The alchemists from there are really top-notch--even better than the ones here!
- **12555**: If you can get your hands on some Near Eastern alchemy products, I bet they'd sell for a nice amount of gil here.

## Events

### Event 65535

#### Metadata

| Field        | Value   |
|--------------|---------|
| Entrypoint   | 0x0000  |
| Data Size    | 1 bytes |
| Instructions | 1       |

```
      00 01 02 03 04 05 06 07  08 09 0A 0B 0C 0D 0E 0F
      -- -- -- -- -- -- -- --  -- -- -- -- -- -- -- --
0000: 00                                                .               
```

#### Opcodes

```
  0: 0x0000 [0x00] END_REQSTACK()
```

### Event 5

#### Metadata

| Field        | Value    |
|--------------|----------|
| Entrypoint   | 0x0001   |
| Data Size    | 67 bytes |
| Instructions | 25       |

```
      00 01 02 03 04 05 06 07  08 09 0A 0B 0C 0D 0E 0F
      -- -- -- -- -- -- -- --  -- -- -- -- -- -- -- --
0000:    1E F0 FF FF 7F 1D 00  80 23 66 01 80 F8 FF FF   ........#f.....
0010: 7F F8 FF FF 7F 74 6C 6B  30 1D 02 80 23 1D 03 80  .....tlk0...#...
0020: 23 1D 04 80 23 1D 05 80  23 1D 06 80 23 1D 07 80  #...#...#...#...
0030: 23 1D 08 80 23 1D 09 80  23 5E 69 64 6C 30 1D 0A  #...#...#^idl0..
0040: 80 23 21 00                                       .#!.            
```

#### Opcodes

```
  0: 0x0001 [0x1E] EventEntity looks at LocalPlayer and starts talking
  1: 0x0006 [0x1D] PRINT_EVENT_MESSAGE(message_id=10525*)
    → "What's this? Haven't seen you around here before."
  2: 0x0009 [0x23] WAIT_FOR_DIALOG_INTERACTION
  3: 0x000A [0x66] LOAD_EXT_SCHEDULER_MAIN: Load scheduler "tlk0" with entities [EventEntity, EventEntity], work=60*
  4: 0x0019 [0x1D] PRINT_EVENT_MESSAGE(message_id=10526*)
    → "For a newcomer, you're off to a good start... You've come to talk to me."
  5: 0x001C [0x23] WAIT_FOR_DIALOG_INTERACTION
  6: 0x001D [0x1D] PRINT_EVENT_MESSAGE(message_id=10527*)
    → "I'm Echo Hawk. I trade in information."
  7: 0x0020 [0x23] WAIT_FOR_DIALOG_INTERACTION
  8: 0x0021 [0x1D] PRINT_EVENT_MESSAGE(message_id=10528*)
    → "Don't bother asking the hard-headed Galka around here--they're too busy contemplating their navels. But not me. I've got info on stuff most people have never even heard of."
  9: 0x0024 [0x23] WAIT_FOR_DIALOG_INTERACTION
 10: 0x0025 [0x1D] PRINT_EVENT_MESSAGE(message_id=10529*)
    → "Don't worry about money. I make it my policy not to take gil from rookies like you."
 11: 0x0028 [0x23] WAIT_FOR_DIALOG_INTERACTION
 12: 0x0029 [0x1D] PRINT_EVENT_MESSAGE(message_id=10530*)
    → "My sources even pay me in special cases, you know."
 13: 0x002C [0x23] WAIT_FOR_DIALOG_INTERACTION
 14: 0x002D [0x1D] PRINT_EVENT_MESSAGE(message_id=10531*)
    → "Anyway, I've heard that this old Hume, Wahid, is looking for a rare gem. You can find him at the auction house on the other side of this neighborhood."
 15: 0x0030 [0x23] WAIT_FOR_DIALOG_INTERACTION
 16: 0x0031 [0x1D] PRINT_EVENT_MESSAGE(message_id=10532*)
    → "Apparently, it's supposed to be part of some legend, but I don't deal with that kind of nonsense. Go talk to the bard at the tavern. Fairy tales are his specialty."
 17: 0x0034 [0x23] WAIT_FOR_DIALOG_INTERACTION
 18: 0x0035 [0x1D] PRINT_EVENT_MESSAGE(message_id=10533*)
    → "You can probably find him in the Port District. He's not the type to hang around this kind of seedy neighborhood."
 19: 0x0038 [0x23] WAIT_FOR_DIALOG_INTERACTION
 20: 0x0039 [0x5E] EventEntity goes idle (kills current action) (animation: "idl0")
 21: 0x003E [0x1D] PRINT_EVENT_MESSAGE(message_id=10534*)
    → "Good hunting, then. Come back whenever you need more info."
 22: 0x0041 [0x23] WAIT_FOR_DIALOG_INTERACTION
 23: 0x0042 [0x21] END_EVENT
 24: 0x0043 [0x00] END_REQSTACK()
```

### Event 13

#### Metadata

| Field        | Value    |
|--------------|----------|
| Entrypoint   | 0x0044   |
| Data Size    | 11 bytes |
| Instructions | 5        |

```
      00 01 02 03 04 05 06 07  08 09 0A 0B 0C 0D 0E 0F
      -- -- -- -- -- -- -- --  -- -- -- -- -- -- -- --
0040:             1E F0 FF FF  7F 1D 0B 80 23 21 00         ........#!. 
```

#### Opcodes

```
  0: 0x0044 [0x1E] EventEntity looks at LocalPlayer and starts talking
  1: 0x0049 [0x1D] PRINT_EVENT_MESSAGE(message_id=10524*)
    → "I have nothing for you today. Sometimes, even I run out of information."
  2: 0x004C [0x23] WAIT_FOR_DIALOG_INTERACTION
  3: 0x004D [0x21] END_EVENT
  4: 0x004E [0x00] END_REQSTACK()
```

### Event 176

#### Metadata

| Field        | Value    |
|--------------|----------|
| Entrypoint   | 0x004F   |
| Data Size    | 15 bytes |
| Instructions | 3        |

```
      00 01 02 03 04 05 06 07  08 09 0A 0B 0C 0D 0E 0F
      -- -- -- -- -- -- -- --  -- -- -- -- -- -- -- --
0040:                                               37                 7
0050: 0C 80 0D 80 0E 80 0F 80  1E 0B A0 0E 01 00        ..............  
```

#### Opcodes

```
  0: 0x004F [0x37] UPDATE_EVENT_POSITION_AND_DIR: x=-153.883*, z=-32.407*, y=0.000*, direction=191.7°*
  1: 0x0058 [0x1E] EventEntity looks at Mydon (ID: 17735691/0x010EA00B) and starts talking
  2: 0x005D [0x00] END_REQSTACK()
```

### Event 180

#### Metadata

| Field        | Value   |
|--------------|---------|
| Entrypoint   | 0x005E  |
| Data Size    | 1 bytes |
| Instructions | 1       |

```
      00 01 02 03 04 05 06 07  08 09 0A 0B 0C 0D 0E 0F
      -- -- -- -- -- -- -- --  -- -- -- -- -- -- -- --
0050:                                            00                   . 
```

#### Opcodes

```
  0: 0x005E [0x00] END_REQSTACK()
```

### Event 65535.1

#### Metadata

| Field        | Value    |
|--------------|----------|
| Entrypoint   | 0x005F   |
| Data Size    | 10 bytes |
| Instructions | 2        |

```
      00 01 02 03 04 05 06 07  08 09 0A 0B 0C 0D 0E 0F
      -- -- -- -- -- -- -- --  -- -- -- -- -- -- -- --
0050:                                               37                 7
0060: 10 80 11 80 12 80 13 80  00                       .........       
```

#### Opcodes

```
  0: 0x005F [0x37] UPDATE_EVENT_POSITION_AND_DIR: x=-20.405*, z=28.361*, y=6.999*, direction=213.7°*
  1: 0x0068 [0x00] END_REQSTACK()
```

### Event 505

#### Metadata

| Field        | Value    |
|--------------|----------|
| Entrypoint   | 0x0069   |
| Data Size    | 56 bytes |
| Instructions | 14       |

```
      00 01 02 03 04 05 06 07  08 09 0A 0B 0C 0D 0E 0F
      -- -- -- -- -- -- -- --  -- -- -- -- -- -- -- --
0060:                             42 48 14 80 1E F0 FF           BH.....
0070: FF 7F 1C 15 80 1D 16 80  23 66 01 80 F8 FF FF 7F  ........#f......
0080: F8 FF FF 7F 74 6C 6B 30  1D 17 80 23 1D 18 80 23  ....tlk0...#...#
0090: 66 01 80 F8 FF FF 7F F8  FF FF 7F 74 6C 6B 31 21  f..........tlk1!
00A0: 00                                                .               
```

#### Opcodes

```
  0: 0x0069 [0x42] SET_CLI_EVENT_CANCEL_DATA()
  1: 0x006A [0x48] [System] [12548*]:
    → "<Player>'s badge flashes brightly."
  2: 0x006D [0x1E] EventEntity looks at LocalPlayer and starts talking
  3: 0x0072 [0x1C] WAIT(30* ticks)
  4: 0x0075 [0x1D] PRINT_EVENT_MESSAGE(message_id=12553*)
    → "What's this? You want information on the "Empire of Aht Urhgan"?"
  5: 0x0078 [0x23] WAIT_FOR_DIALOG_INTERACTION
  6: 0x0079 [0x66] LOAD_EXT_SCHEDULER_MAIN: Load scheduler "tlk0" with entities [EventEntity, EventEntity], work=60*
  7: 0x0088 [0x1D] PRINT_EVENT_MESSAGE(message_id=12554*)
    → "The alchemists from there are really top-notch--even better than the ones here!"
  8: 0x008B [0x23] WAIT_FOR_DIALOG_INTERACTION
  9: 0x008C [0x1D] PRINT_EVENT_MESSAGE(message_id=12555*)
    → "If you can get your hands on some Near Eastern alchemy products, I bet they'd sell for a nice amount of gil here."
 10: 0x008F [0x23] WAIT_FOR_DIALOG_INTERACTION
 11: 0x0090 [0x66] LOAD_EXT_SCHEDULER_MAIN: Load scheduler "tlk1" with entities [EventEntity, EventEntity], work=60*
 12: 0x009F [0x21] END_EVENT
 13: 0x00A0 [0x00] END_REQSTACK()
```
