# 17735833

## Common Data

| Field            | Value                  |
|------------------|------------------------|
| Zone             | Bastok Mines (ID: 234) |
| Block Size       | 1244 bytes             |
| Total Events     | 26                     |
| References Count | 114                    |

## List of Events

| Event ID                   | Entrypoint   |   Size |   Instructions |
|----------------------------|--------------|--------|----------------|
| [65535](#event-65535)      | 0x0000       |      1 |              1 |
| [513](#event-513)          | 0x0001       |      1 |              1 |
| [509](#event-509)          | 0x0002       |      1 |              1 |
| [65535.1](#event-655351)   | 0x0003       |     15 |              2 |
| [65535.2](#event-655352)   | 0x0012       |     11 |              3 |
| [65535.3](#event-655353)   | 0x001D       |     10 |              2 |
| [65535.4](#event-655354)   | 0x0027       |     81 |             16 |
| [65535.5](#event-655355)   | 0x0078       |     81 |             16 |
| [65535.6](#event-655356)   | 0x00C9       |     10 |              2 |
| [65535.7](#event-655357)   | 0x00D3       |     14 |              4 |
| [65535.8](#event-655358)   | 0x00E1       |     11 |              3 |
| [65535.9](#event-655359)   | 0x00EC       |     11 |              3 |
| [65535.10](#event-6553510) | 0x00F7       |     11 |              3 |
| [65535.11](#event-6553511) | 0x0102       |     14 |              4 |
| [65535.12](#event-6553512) | 0x0110       |     10 |              2 |
| [545](#event-545)          | 0x011A       |      1 |              1 |
| [65535.13](#event-6553513) | 0x011B       |     15 |              3 |
| [65535.14](#event-6553514) | 0x012A       |     48 |             11 |
| [65535.15](#event-6553515) | 0x015A       |      6 |              2 |
| [65535.16](#event-6553516) | 0x0160       |     20 |              4 |
| [65535.17](#event-6553517) | 0x0174       |     80 |             18 |
| [65535.18](#event-6553518) | 0x01C4       |     67 |             15 |
| [65535.19](#event-6553519) | 0x0207       |     14 |              4 |
| [65535.20](#event-6553520) | 0x0215       |     51 |             11 |
| [65535.21](#event-6553521) | 0x0248       |     15 |              3 |
| [65535.22](#event-6553522) | 0x0257       |     69 |             15 |

## DAT References (imed_data)

|   Index | Hex Value   |   Dec Value |
|---------|-------------|-------------|
|       0 | 0x0000      |           0 |
|       1 | 0x7D83      |       32131 |
|       2 | 0xFFFE8E29  |  4294872617 |
|       3 | 0x0367      |         871 |
|       4 | 0x0561      |        1377 |
|       5 | 0x0046      |          70 |
|       6 | 0x68EC      |       26860 |
|       7 | 0xFFFE933F  |  4294873919 |
|       8 | 0x6F22      |       28450 |
|       9 | 0xFFFEA56E  |  4294878574 |
|      10 | 0x7D53      |       32083 |
|      11 | 0xFFFEA6A2  |  4294878882 |
|      12 | 0x0365      |         869 |
|      13 | 0x8519      |       34073 |
|      14 | 0xFFFE9CA8  |  4294876328 |
|      15 | 0x034F      |         847 |
|      16 | 0xCBEF      |       52207 |
|      17 | 0xFFFE946E  |  4294874222 |
|      18 | 0x0821      |        2081 |
|      19 | 0xC6F3      |       50931 |
|      20 | 0xFFFE94C9  |  4294874313 |
|      21 | 0xC590      |       50576 |
|      22 | 0xFFFE94D9  |  4294874329 |
|      23 | 0xC05C      |       49244 |
|      24 | 0xFFFE9515  |  4294874389 |
|      25 | 0xBB6A      |       47978 |
|      26 | 0xFFFE9571  |  4294874481 |
|      27 | 0xC5CF      |       50639 |
|      28 | 0xFFFEAE20  |  4294880800 |
|      29 | 0xFFF98428  |  4294542376 |
|      30 | 0xFFF91ADA  |  4294515418 |
|      31 | 0x6127      |       24871 |
|      32 | 0x00C0      |         192 |
|      33 | 0xFFF6CD3D  |  4294364477 |
|      34 | 0x92D67     |      601447 |
|      35 | 0x0183      |         387 |
|      36 | 0x0002      |           2 |
|      37 | 0x000F      |          15 |
|      38 | 0xFFF6C5BB  |  4294362555 |
|      39 | 0x934CA     |      603338 |
|      40 | 0x0023      |          35 |
|      41 | 0xFFF6D3C5  |  4294366149 |
|      42 | 0x93292     |      602770 |
|      43 | 0xFFF6DF7D  |  4294369149 |
|      44 | 0x939E5     |      604645 |
|      45 | 0x001F      |          31 |
|      46 | 0x003C      |          60 |
|      47 | 0xFFF6D7C0  |  4294367168 |
|      48 | 0x8EF6A     |      585578 |
|      49 | 0x0274      |         628 |
|      50 | 0x011C      |         284 |
|      51 | 0xFFF6D0CA  |  4294365386 |
|      52 | 0x8F7DF     |      587743 |
|      53 | 0x0112      |         274 |
|      54 | 0xFFF6D779  |  4294367097 |
|      55 | 0x8FCC2     |      588994 |
|      56 | 0x015B      |         347 |
|      57 | 0xFFF6DB55  |  4294368085 |
|      58 | 0x8F169     |      586089 |
|      59 | 0x024A      |         586 |
|      60 | 0xFFF6DAA1  |  4294367905 |
|      61 | 0x8E6CF     |      583375 |
|      62 | 0x033E      |         830 |
|      63 | 0x001E      |          30 |
|      64 | 0x0C58      |        3160 |
|      65 | 0x0078      |         120 |
|      66 | 0xFFF6D069  |  4294365289 |
|      67 | 0x8F7F4     |      587764 |
|      68 | 0x010C      |         268 |
|      69 | 0x0154      |         340 |
|      70 | 0x002D      |          45 |
|      71 | 0xFFF6DB01  |  4294368001 |
|      72 | 0x90356     |      590678 |
|      73 | 0x0108      |         264 |
|      74 | 0x03BF      |         959 |
|      75 | 0xFFF6C73F  |  4294362943 |
|      76 | 0x8F234     |      586292 |
|      77 | 0x008A      |         138 |
|      78 | 0x0025      |          37 |
|      79 | 0x00F0      |         240 |
|      80 | 0xFFF6D6F8  |  4294366968 |
|      81 | 0x8E30A     |      582410 |
|      82 | 0x0322      |         802 |
|      83 | 0x0BD3      |        3027 |
|      84 | 0xFFF6DB94  |  4294368148 |
|      85 | 0x8FCF3     |      589043 |
|      86 | 0x0159      |         345 |
|      87 | 0xFFF6C79F  |  4294363039 |
|      88 | 0x8F34D     |      586573 |
|      89 | 0x0039      |          57 |
|      90 | 0xFFF6CB4A  |  4294363978 |
|      91 | 0x8FAEF     |      588527 |
|      92 | 0x00C4      |         196 |
|      93 | 0xFFF6D269  |  4294365801 |
|      94 | 0x8F138     |      586040 |
|      95 | 0x01F0      |         496 |
|      96 | 0xFFF6CEAA  |  4294364842 |
|      97 | 0x8FA2D     |      588333 |
|      98 | 0x00F7      |         247 |
|      99 | 0xFFF6CA0E  |  4294363662 |
|     100 | 0x8EFB9     |      585657 |
|     101 | 0x0090      |         144 |
|     102 | 0xFFF6CECB  |  4294364875 |
|     103 | 0x8E418     |      582680 |
|     104 | 0x018C      |         396 |
|     105 | 0xFFF6DB79  |  4294368121 |
|     106 | 0x8E4F3     |      582899 |
|     107 | 0x0356      |         854 |
|     108 | 0xFFF6DE60  |  4294368864 |
|     109 | 0x8F7D9     |      587737 |
|     110 | 0x019A      |         410 |
|     111 | 0xFFF6D8AE  |  4294367406 |
|     112 | 0x8FE78     |      589432 |
|     113 | 0x0146      |         326 |

## Events

### Event 65535

#### Metadata

| Field        | Value   |
|--------------|---------|
| Entrypoint   | 0x0000  |
| Data Size    | 1 bytes |
| Instructions | 1       |

```
      00 01 02 03 04 05 06 07  08 09 0A 0B 0C 0D 0E 0F
      -- -- -- -- -- -- -- --  -- -- -- -- -- -- -- --
0000: 00                                                .               
```

#### Opcodes

```
  0: 0x0000 [0x00] END_REQSTACK()
```

### Event 513

#### Metadata

| Field        | Value   |
|--------------|---------|
| Entrypoint   | 0x0001  |
| Data Size    | 1 bytes |
| Instructions | 1       |

```
      00 01 02 03 04 05 06 07  08 09 0A 0B 0C 0D 0E 0F
      -- -- -- -- -- -- -- --  -- -- -- -- -- -- -- --
0000:    00                                              .              
```

#### Opcodes

```
  0: 0x0001 [0x00] END_REQSTACK()
```

### Event 509

#### Metadata

| Field        | Value   |
|--------------|---------|
| Entrypoint   | 0x0002  |
| Data Size    | 1 bytes |
| Instructions | 1       |

```
      00 01 02 03 04 05 06 07  08 09 0A 0B 0C 0D 0E 0F
      -- -- -- -- -- -- -- --  -- -- -- -- -- -- -- --
0000:       00                                            .             
```

#### Opcodes

```
  0: 0x0002 [0x00] END_REQSTACK()
```

### Event 65535.1

#### Metadata

| Field        | Value    |
|--------------|----------|
| Entrypoint   | 0x0003   |
| Data Size    | 15 bytes |
| Instructions | 2        |

```
      00 01 02 03 04 05 06 07  08 09 0A 0B 0C 0D 0E 0F
      -- -- -- -- -- -- -- --  -- -- -- -- -- -- -- --
0000:          B6 0D 04 10 05  10 06 10 07 10 08 10 09     .............
0010: 10 00                                             ..              
```

#### Opcodes

```
  0: 0x0003 [0xB6] ENTITY_APPEARANCE_HANDLER(case=Look with Render flags, race=Work_Zone[4], face=Work_Zone[5], head=Work_Zone[6], body=Work_Zone[7], hands=Work_Zone[8], render_flags=0x1009)
  1: 0x0011 [0x00] END_REQSTACK()
```

### Event 65535.2

#### Metadata

| Field        | Value    |
|--------------|----------|
| Entrypoint   | 0x0012   |
| Data Size    | 11 bytes |
| Instructions | 3        |

```
      00 01 02 03 04 05 06 07  08 09 0A 0B 0C 0D 0E 0F
      -- -- -- -- -- -- -- --  -- -- -- -- -- -- -- --
0010:       B4 01 00 00 00 80  B5 00 00 00 00             ...........   
```

#### Opcodes

```
  0: 0x0012 [0xB4] UI_WINDOW_STRING_HANDLER(case=0x01 - Copy string from event strings table, work_offset=ExtData[1]->WorkLocal[0], string_index=0*)
  1: 0x0018 [0xB5] SET_EVENT_ENTITY_NAME: Change EventEntity name to ExtData[1]->WorkLocal[0]
  2: 0x001C [0x00] END_REQSTACK()
```

### Event 65535.3

#### Metadata

| Field        | Value    |
|--------------|----------|
| Entrypoint   | 0x001D   |
| Data Size    | 10 bytes |
| Instructions | 2        |

```
      00 01 02 03 04 05 06 07  08 09 0A 0B 0C 0D 0E 0F
      -- -- -- -- -- -- -- --  -- -- -- -- -- -- -- --
0010:                                         37 01 80               7..
0020: 02 80 03 80 04 80 00                              .......         
```

#### Opcodes

```
  0: 0x001D [0x37] UPDATE_EVENT_POSITION_AND_DIR: x=32.131*, z=-94.679*, y=0.871*, direction=121.0°*
  1: 0x0026 [0x00] END_REQSTACK()
```

### Event 65535.4

#### Metadata

| Field        | Value    |
|--------------|----------|
| Entrypoint   | 0x0027   |
| Data Size    | 81 bytes |
| Instructions | 16       |

```
      00 01 02 03 04 05 06 07  08 09 0A 0B 0C 0D 0E 0F
      -- -- -- -- -- -- -- --  -- -- -- -- -- -- -- --
0020:                      32  05 80 1F 00 06 80 07 80         2........
0030: 03 80 1F 01 1F 00 08 80  09 80 03 80 1F 01 1F 00  ................
0040: 0A 80 0B 80 0C 80 1F 01  1F 00 0D 80 0E 80 0F 80  ................
0050: 1F 01 1F 00 01 80 02 80  03 80 1F 01 02 4D 10 00  .............M..
0060: 80 00 6E 00 27 05 99 A0  0E 01 07 01 77 00 37 00  ..n.'.......w.7.
0070: 80 00 80 00 80 00 80 00                           ........        
```

#### Opcodes

```
  0: 0x0027 [0x32] ExtData[1]->MainSpeed = 70* * 0.1
  1: 0x002A [0x1F] MOVE_ENTITY: EventEntity moves to X=26.860*, Z=-93.377*, Y=0.871*
  2: 0x0032 [0x1F] MOVE_ENTITY: Update entity position (mode=1)
  3: 0x0034 [0x1F] MOVE_ENTITY: EventEntity moves to X=28.450*, Z=-88.722*, Y=0.871*
  4: 0x003C [0x1F] MOVE_ENTITY: Update entity position (mode=1)
  5: 0x003E [0x1F] MOVE_ENTITY: EventEntity moves to X=32.083*, Z=-88.414*, Y=0.869*
  6: 0x0046 [0x1F] MOVE_ENTITY: Update entity position (mode=1)
  7: 0x0048 [0x1F] MOVE_ENTITY: EventEntity moves to X=34.073*, Z=-90.968*, Y=0.847*
  8: 0x0050 [0x1F] MOVE_ENTITY: Update entity position (mode=1)
  9: 0x0052 [0x1F] MOVE_ENTITY: EventEntity moves to X=32.131*, Z=-94.679*, Y=0.871*
 10: 0x005A [0x1F] MOVE_ENTITY: Update entity position (mode=1)
 11: 0x005C [0x02] IF !(Work_Zone[77] == 0*) GOTO 0x006E
 12: 0x0064 [0x27] REQ_SET(priority=0x05, entity_id=Unnamed NPC (ID: 17735833/0x010EA099), tag_num=0x07)
 13: 0x006B [0x01] GOTO 0x0077
 14: 0x006E [0x37] UPDATE_EVENT_POSITION_AND_DIR: x=0.000*, z=0.000*, y=0.000*, direction=0.0°*

SUBROUTINE_0077:
 15: 0x0077 [0x00] END_REQSTACK()
```

### Event 65535.5

#### Metadata

| Field        | Value    |
|--------------|----------|
| Entrypoint   | 0x0078   |
| Data Size    | 81 bytes |
| Instructions | 16       |

```
      00 01 02 03 04 05 06 07  08 09 0A 0B 0C 0D 0E 0F
      -- -- -- -- -- -- -- --  -- -- -- -- -- -- -- --
0070:                          32 05 80 1F 00 06 80 07          2.......
0080: 80 03 80 1F 01 1F 00 08  80 09 80 03 80 1F 01 1F  ................
0090: 00 0A 80 0B 80 0C 80 1F  01 1F 00 0D 80 0E 80 0F  ................
00A0: 80 1F 01 1F 00 01 80 02  80 03 80 1F 01 02 4D 10  ..............M.
00B0: 00 80 00 BF 00 27 05 99  A0 0E 01 06 01 C8 00 37  .....'.........7
00C0: 00 80 00 80 00 80 00 80  00                       .........       
```

#### Opcodes

```
  0: 0x0078 [0x32] ExtData[1]->MainSpeed = 70* * 0.1
  1: 0x007B [0x1F] MOVE_ENTITY: EventEntity moves to X=26.860*, Z=-93.377*, Y=0.871*
  2: 0x0083 [0x1F] MOVE_ENTITY: Update entity position (mode=1)
  3: 0x0085 [0x1F] MOVE_ENTITY: EventEntity moves to X=28.450*, Z=-88.722*, Y=0.871*
  4: 0x008D [0x1F] MOVE_ENTITY: Update entity position (mode=1)
  5: 0x008F [0x1F] MOVE_ENTITY: EventEntity moves to X=32.083*, Z=-88.414*, Y=0.869*
  6: 0x0097 [0x1F] MOVE_ENTITY: Update entity position (mode=1)
  7: 0x0099 [0x1F] MOVE_ENTITY: EventEntity moves to X=34.073*, Z=-90.968*, Y=0.847*
  8: 0x00A1 [0x1F] MOVE_ENTITY: Update entity position (mode=1)
  9: 0x00A3 [0x1F] MOVE_ENTITY: EventEntity moves to X=32.131*, Z=-94.679*, Y=0.871*
 10: 0x00AB [0x1F] MOVE_ENTITY: Update entity position (mode=1)
 11: 0x00AD [0x02] IF !(Work_Zone[77] == 0*) GOTO 0x00BF
 12: 0x00B5 [0x27] REQ_SET(priority=0x05, entity_id=Unnamed NPC (ID: 17735833/0x010EA099), tag_num=0x06)
 13: 0x00BC [0x01] GOTO 0x00C8
 14: 0x00BF [0x37] UPDATE_EVENT_POSITION_AND_DIR: x=0.000*, z=0.000*, y=0.000*, direction=0.0°*

SUBROUTINE_00C8:
 15: 0x00C8 [0x00] END_REQSTACK()
```

### Event 65535.6

#### Metadata

| Field        | Value    |
|--------------|----------|
| Entrypoint   | 0x00C9   |
| Data Size    | 10 bytes |
| Instructions | 2        |

```
      00 01 02 03 04 05 06 07  08 09 0A 0B 0C 0D 0E 0F
      -- -- -- -- -- -- -- --  -- -- -- -- -- -- -- --
00C0:                             37 10 80 11 80 03 80           7......
00D0: 12 80 00                                          ...             
```

#### Opcodes

```
  0: 0x00C9 [0x37] UPDATE_EVENT_POSITION_AND_DIR: x=52.207*, z=-93.074*, y=0.871*, direction=182.9°*
  1: 0x00D2 [0x00] END_REQSTACK()
```

### Event 65535.7

#### Metadata

| Field        | Value    |
|--------------|----------|
| Entrypoint   | 0x00D3   |
| Data Size    | 14 bytes |
| Instructions | 4        |

```
      00 01 02 03 04 05 06 07  08 09 0A 0B 0C 0D 0E 0F
      -- -- -- -- -- -- -- --  -- -- -- -- -- -- -- --
00D0:          32 05 80 1F 00  13 80 14 80 03 80 1F 01     2............
00E0: 00                                                .               
```

#### Opcodes

```
  0: 0x00D3 [0x32] ExtData[1]->MainSpeed = 70* * 0.1
  1: 0x00D6 [0x1F] MOVE_ENTITY: EventEntity moves to X=50.931*, Z=-92.983*, Y=0.871*
  2: 0x00DE [0x1F] MOVE_ENTITY: Update entity position (mode=1)
  3: 0x00E0 [0x00] END_REQSTACK()
```

### Event 65535.8

#### Metadata

| Field        | Value    |
|--------------|----------|
| Entrypoint   | 0x00E1   |
| Data Size    | 11 bytes |
| Instructions | 3        |

```
      00 01 02 03 04 05 06 07  08 09 0A 0B 0C 0D 0E 0F
      -- -- -- -- -- -- -- --  -- -- -- -- -- -- -- --
00E0:    1F 00 15 80 16 80 03  80 1F 01 00               ...........    
```

#### Opcodes

```
  0: 0x00E1 [0x1F] MOVE_ENTITY: EventEntity moves to X=50.576*, Z=-92.967*, Y=0.871*
  1: 0x00E9 [0x1F] MOVE_ENTITY: Update entity position (mode=1)
  2: 0x00EB [0x00] END_REQSTACK()
```

### Event 65535.9

#### Metadata

| Field        | Value    |
|--------------|----------|
| Entrypoint   | 0x00EC   |
| Data Size    | 11 bytes |
| Instructions | 3        |

```
      00 01 02 03 04 05 06 07  08 09 0A 0B 0C 0D 0E 0F
      -- -- -- -- -- -- -- --  -- -- -- -- -- -- -- --
00E0:                                      1F 00 17 80              ....
00F0: 18 80 03 80 1F 01 00                              .......         
```

#### Opcodes

```
  0: 0x00EC [0x1F] MOVE_ENTITY: EventEntity moves to X=49.244*, Z=-92.907*, Y=0.871*
  1: 0x00F4 [0x1F] MOVE_ENTITY: Update entity position (mode=1)
  2: 0x00F6 [0x00] END_REQSTACK()
```

### Event 65535.10

#### Metadata

| Field        | Value    |
|--------------|----------|
| Entrypoint   | 0x00F7   |
| Data Size    | 11 bytes |
| Instructions | 3        |

```
      00 01 02 03 04 05 06 07  08 09 0A 0B 0C 0D 0E 0F
      -- -- -- -- -- -- -- --  -- -- -- -- -- -- -- --
00F0:                      1F  00 19 80 1A 80 03 80 1F         .........
0100: 01 00                                             ..              
```

#### Opcodes

```
  0: 0x00F7 [0x1F] MOVE_ENTITY: EventEntity moves to X=47.978*, Z=-92.815*, Y=0.871*
  1: 0x00FF [0x1F] MOVE_ENTITY: Update entity position (mode=1)
  2: 0x0101 [0x00] END_REQSTACK()
```

### Event 65535.11

#### Metadata

| Field        | Value    |
|--------------|----------|
| Entrypoint   | 0x0102   |
| Data Size    | 14 bytes |
| Instructions | 4        |

```
      00 01 02 03 04 05 06 07  08 09 0A 0B 0C 0D 0E 0F
      -- -- -- -- -- -- -- --  -- -- -- -- -- -- -- --
0100:       32 05 80 1F 00 1B  80 1C 80 03 80 1F 01 00    2.............
```

#### Opcodes

```
  0: 0x0102 [0x32] ExtData[1]->MainSpeed = 70* * 0.1
  1: 0x0105 [0x1F] MOVE_ENTITY: EventEntity moves to X=50.639*, Z=-86.496*, Y=0.871*
  2: 0x010D [0x1F] MOVE_ENTITY: Update entity position (mode=1)
  3: 0x010F [0x00] END_REQSTACK()
```

### Event 65535.12

#### Metadata

| Field        | Value    |
|--------------|----------|
| Entrypoint   | 0x0110   |
| Data Size    | 10 bytes |
| Instructions | 2        |

```
      00 01 02 03 04 05 06 07  08 09 0A 0B 0C 0D 0E 0F
      -- -- -- -- -- -- -- --  -- -- -- -- -- -- -- --
0110: 37 1D 80 1E 80 1F 80 20  80 00                    7...... ..      
```

#### Opcodes

```
  0: 0x0110 [0x37] UPDATE_EVENT_POSITION_AND_DIR: x=-424.920*, z=-451.878*, y=24.871*, direction=16.9°*
  1: 0x0119 [0x00] END_REQSTACK()
```

### Event 545

#### Metadata

| Field        | Value   |
|--------------|---------|
| Entrypoint   | 0x011A  |
| Data Size    | 1 bytes |
| Instructions | 1       |

```
      00 01 02 03 04 05 06 07  08 09 0A 0B 0C 0D 0E 0F
      -- -- -- -- -- -- -- --  -- -- -- -- -- -- -- --
0110:                                00                           .     
```

#### Opcodes

```
  0: 0x011A [0x00] END_REQSTACK()
```

### Event 65535.13

#### Metadata

| Field        | Value    |
|--------------|----------|
| Entrypoint   | 0x011B   |
| Data Size    | 15 bytes |
| Instructions | 3        |

```
      00 01 02 03 04 05 06 07  08 09 0A 0B 0C 0D 0E 0F
      -- -- -- -- -- -- -- --  -- -- -- -- -- -- -- --
0110:                                   37 21 80 22 80             7!.".
0120: 00 80 23 80 03 04 00 00  80 00                    ..#.......      
```

#### Opcodes

```
  0: 0x011B [0x37] UPDATE_EVENT_POSITION_AND_DIR: x=-602.819*, z=601.447*, y=0.000*, direction=34.0°*
  1: 0x0124 [0x03] ExtData[1]->WorkLocal[4] = 0*
  2: 0x0129 [0x00] END_REQSTACK()
```

### Event 65535.14

#### Metadata

| Field        | Value    |
|--------------|----------|
| Entrypoint   | 0x012A   |
| Data Size    | 48 bytes |
| Instructions | 11       |

```
      00 01 02 03 04 05 06 07  08 09 0A 0B 0C 0D 0E 0F
      -- -- -- -- -- -- -- --  -- -- -- -- -- -- -- --
0120:                                02 04 00 24 80 01            ...$..
0130: 59 01 32 25 80 1F 00 26  80 27 80 28 80 1F 01 1F  Y.2%...&.'.(....
0140: 00 29 80 2A 80 00 80 1F  01 1F 00 2B 80 2C 80 2D  .).*.......+.,.-
0150: 80 1F 01 1C 2E 80 01 2A  01 00                    .......*..      
```

#### Opcodes

```
  0: 0x012A [0x02] IF !(ExtData[1]->WorkLocal[4] == 2*) GOTO 0x0159
  1: 0x0132 [0x32] ExtData[1]->MainSpeed = 15* * 0.1
  2: 0x0135 [0x1F] MOVE_ENTITY: EventEntity moves to X=-604.741*, Z=603.338*, Y=0.035*
  3: 0x013D [0x1F] MOVE_ENTITY: Update entity position (mode=1)
  4: 0x013F [0x1F] MOVE_ENTITY: EventEntity moves to X=-601.147*, Z=602.770*, Y=0.000*
  5: 0x0147 [0x1F] MOVE_ENTITY: Update entity position (mode=1)
  6: 0x0149 [0x1F] MOVE_ENTITY: EventEntity moves to X=-598.147*, Z=604.645*, Y=0.031*
  7: 0x0151 [0x1F] MOVE_ENTITY: Update entity position (mode=1)
  8: 0x0153 [0x1C] WAIT(60* ticks)
  9: 0x0156 [0x01] GOTO 0x012A
 10: 0x0159 [0x00] END_REQSTACK()
```

### Event 65535.15

#### Metadata

| Field        | Value   |
|--------------|---------|
| Entrypoint   | 0x015A  |
| Data Size    | 6 bytes |
| Instructions | 2       |

```
      00 01 02 03 04 05 06 07  08 09 0A 0B 0C 0D 0E 0F
      -- -- -- -- -- -- -- --  -- -- -- -- -- -- -- --
0150:                                03 04 00 24 80 00            ...$..
```

#### Opcodes

```
  0: 0x015A [0x03] ExtData[1]->WorkLocal[4] = 2*
  1: 0x015F [0x00] END_REQSTACK()
```

### Event 65535.16

#### Metadata

| Field        | Value    |
|--------------|----------|
| Entrypoint   | 0x0160   |
| Data Size    | 20 bytes |
| Instructions | 4        |

```
      00 01 02 03 04 05 06 07  08 09 0A 0B 0C 0D 0E 0F
      -- -- -- -- -- -- -- --  -- -- -- -- -- -- -- --
0160: 37 2F 80 30 80 31 80 32  80 80 F8 FF FF 7F 03 04  7/.0.1.2........
0170: 00 00 80 00                                       ....            
```

#### Opcodes

```
  0: 0x0160 [0x37] UPDATE_EVENT_POSITION_AND_DIR: x=-600.128*, z=585.578*, y=0.628*, direction=25.0°*
  1: 0x0169 [0x80] LOAD_WAIT(entity=EventEntity)
  2: 0x016E [0x03] ExtData[1]->WorkLocal[4] = 0*
  3: 0x0173 [0x00] END_REQSTACK()
```

### Event 65535.17

#### Metadata

| Field        | Value    |
|--------------|----------|
| Entrypoint   | 0x0174   |
| Data Size    | 80 bytes |
| Instructions | 18       |

```
      00 01 02 03 04 05 06 07  08 09 0A 0B 0C 0D 0E 0F
      -- -- -- -- -- -- -- --  -- -- -- -- -- -- -- --
0170:             32 25 80 1F  00 33 80 34 80 35 80 1F      2%...3.4.5..
0180: 01 1F 00 36 80 37 80 38  80 1F 01 1F 00 39 80 3A  ...6.7.8.....9.:
0190: 80 3B 80 1F 01 1F 00 3C  80 3D 80 3E 80 1F 01 1C  .;.....<.=.>....
01A0: 3F 80 4B 99 A0 0E 01 40  80 1C 41 80 1F 00 42 80  ?.K....@..A...B.
01B0: 43 80 44 80 1F 01 1C 3F  80 4B 99 A0 0E 01 45 80  C.D....?.K....E.
01C0: 1C 3F 80 00                                       .?..            
```

#### Opcodes

```
  0: 0x0174 [0x32] ExtData[1]->MainSpeed = 15* * 0.1
  1: 0x0177 [0x1F] MOVE_ENTITY: EventEntity moves to X=-601.910*, Z=587.743*, Y=0.274*
  2: 0x017F [0x1F] MOVE_ENTITY: Update entity position (mode=1)
  3: 0x0181 [0x1F] MOVE_ENTITY: EventEntity moves to X=-600.199*, Z=588.994*, Y=0.347*
  4: 0x0189 [0x1F] MOVE_ENTITY: Update entity position (mode=1)
  5: 0x018B [0x1F] MOVE_ENTITY: EventEntity moves to X=-599.211*, Z=586.089*, Y=0.586*
  6: 0x0193 [0x1F] MOVE_ENTITY: Update entity position (mode=1)
  7: 0x0195 [0x1F] MOVE_ENTITY: EventEntity moves to X=-599.391*, Z=583.375*, Y=0.830*
  8: 0x019D [0x1F] MOVE_ENTITY: Update entity position (mode=1)
  9: 0x019F [0x1C] WAIT(30* ticks)
 10: 0x01A2 [0x4B] UPDATE_ENTITY_YAW(entity=Unnamed NPC (ID: 17735833/0x010EA099), yaw=17.4°*)
 11: 0x01A9 [0x1C] WAIT(120* ticks)
 12: 0x01AC [0x1F] MOVE_ENTITY: EventEntity moves to X=-602.007*, Z=587.764*, Y=0.268*
 13: 0x01B4 [0x1F] MOVE_ENTITY: Update entity position (mode=1)
 14: 0x01B6 [0x1C] WAIT(30* ticks)
 15: 0x01B9 [0x4B] UPDATE_ENTITY_YAW(entity=Unnamed NPC (ID: 17735833/0x010EA099), yaw=1.9°*)
 16: 0x01C0 [0x1C] WAIT(30* ticks)
 17: 0x01C3 [0x00] END_REQSTACK()
```

### Event 65535.18

#### Metadata

| Field        | Value    |
|--------------|----------|
| Entrypoint   | 0x01C4   |
| Data Size    | 67 bytes |
| Instructions | 15       |

```
      00 01 02 03 04 05 06 07  08 09 0A 0B 0C 0D 0E 0F
      -- -- -- -- -- -- -- --  -- -- -- -- -- -- -- --
01C0:             32 46 80 1F  00 47 80 48 80 49 80 1F      2F...G.H.I..
01D0: 01 4B 99 A0 0E 01 4A 80  1C 2E 80 1F 00 4B 80 4C  .K....J......K.L
01E0: 80 4D 80 1F 01 4B 99 A0  0E 01 4E 80 1C 4F 80 1F  .M...K....N..O..
01F0: 00 50 80 51 80 52 80 1F  01 1C 3F 80 4B 99 A0 0E  .P.Q.R....?.K...
0200: 01 53 80 1C 2E 80 00                              .S.....         
```

#### Opcodes

```
  0: 0x01C4 [0x32] ExtData[1]->MainSpeed = 45* * 0.1
  1: 0x01C7 [0x1F] MOVE_ENTITY: EventEntity moves to X=-599.295*, Z=590.678*, Y=0.264*
  2: 0x01CF [0x1F] MOVE_ENTITY: Update entity position (mode=1)
  3: 0x01D1 [0x4B] UPDATE_ENTITY_YAW(entity=Unnamed NPC (ID: 17735833/0x010EA099), yaw=5.3°*)
  4: 0x01D8 [0x1C] WAIT(60* ticks)
  5: 0x01DB [0x1F] MOVE_ENTITY: EventEntity moves to X=-604.353*, Z=586.292*, Y=0.138*
  6: 0x01E3 [0x1F] MOVE_ENTITY: Update entity position (mode=1)
  7: 0x01E5 [0x4B] UPDATE_ENTITY_YAW(entity=Unnamed NPC (ID: 17735833/0x010EA099), yaw=0.2°*)
  8: 0x01EC [0x1C] WAIT(240* ticks)
  9: 0x01EF [0x1F] MOVE_ENTITY: EventEntity moves to X=-600.328*, Z=582.410*, Y=0.802*
 10: 0x01F7 [0x1F] MOVE_ENTITY: Update entity position (mode=1)
 11: 0x01F9 [0x1C] WAIT(30* ticks)
 12: 0x01FC [0x4B] UPDATE_ENTITY_YAW(entity=Unnamed NPC (ID: 17735833/0x010EA099), yaw=16.6°*)
 13: 0x0203 [0x1C] WAIT(60* ticks)
 14: 0x0206 [0x00] END_REQSTACK()
```

### Event 65535.19

#### Metadata

| Field        | Value    |
|--------------|----------|
| Entrypoint   | 0x0207   |
| Data Size    | 14 bytes |
| Instructions | 4        |

```
      00 01 02 03 04 05 06 07  08 09 0A 0B 0C 0D 0E 0F
      -- -- -- -- -- -- -- --  -- -- -- -- -- -- -- --
0200:                      32  46 80 1F 00 54 80 55 80         2F...T.U.
0210: 56 80 1F 01 00                                    V....           
```

#### Opcodes

```
  0: 0x0207 [0x32] ExtData[1]->MainSpeed = 45* * 0.1
  1: 0x020A [0x1F] MOVE_ENTITY: EventEntity moves to X=-599.148*, Z=589.043*, Y=0.345*
  2: 0x0212 [0x1F] MOVE_ENTITY: Update entity position (mode=1)
  3: 0x0214 [0x00] END_REQSTACK()
```

### Event 65535.20

#### Metadata

| Field        | Value    |
|--------------|----------|
| Entrypoint   | 0x0215   |
| Data Size    | 51 bytes |
| Instructions | 11       |

```
      00 01 02 03 04 05 06 07  08 09 0A 0B 0C 0D 0E 0F
      -- -- -- -- -- -- -- --  -- -- -- -- -- -- -- --
0210:                32 46 80  1F 00 57 80 58 80 59 80       2F...W.X.Y.
0220: 1F 01 1F 00 5A 80 5B 80  5C 80 1F 01 1F 00 5D 80  ....Z.[.\.....].
0230: 5E 80 5F 80 1F 01 1E 97  A0 0E 01 1C 3F 80 4A 97  ^._.........?.J.
0240: A0 0E 01 99 A0 0E 01 00                           ........        
```

#### Opcodes

```
  0: 0x0215 [0x32] ExtData[1]->MainSpeed = 45* * 0.1
  1: 0x0218 [0x1F] MOVE_ENTITY: EventEntity moves to X=-604.257*, Z=586.573*, Y=0.057*
  2: 0x0220 [0x1F] MOVE_ENTITY: Update entity position (mode=1)
  3: 0x0222 [0x1F] MOVE_ENTITY: EventEntity moves to X=-603.318*, Z=588.527*, Y=0.196*
  4: 0x022A [0x1F] MOVE_ENTITY: Update entity position (mode=1)
  5: 0x022C [0x1F] MOVE_ENTITY: EventEntity moves to X=-601.495*, Z=586.040*, Y=0.496*
  6: 0x0234 [0x1F] MOVE_ENTITY: Update entity position (mode=1)
  7: 0x0236 [0x1E] EventEntity looks at Unnamed NPC (ID: 17735831/0x010EA097) and starts talking
  8: 0x023B [0x1C] WAIT(30* ticks)
  9: 0x023E [0x4A] Unnamed NPC (ID: 17735831/0x010EA097) looks at Unnamed NPC (ID: 17735833/0x010EA099)
 10: 0x0247 [0x00] END_REQSTACK()
```

### Event 65535.21

#### Metadata

| Field        | Value    |
|--------------|----------|
| Entrypoint   | 0x0248   |
| Data Size    | 15 bytes |
| Instructions | 3        |

```
      00 01 02 03 04 05 06 07  08 09 0A 0B 0C 0D 0E 0F
      -- -- -- -- -- -- -- --  -- -- -- -- -- -- -- --
0240:                          37 42 80 43 80 44 80 32          7B.C.D.2
0250: 80 80 F8 FF FF 7F 00                              .......         
```

#### Opcodes

```
  0: 0x0248 [0x37] UPDATE_EVENT_POSITION_AND_DIR: x=-602.007*, z=587.764*, y=0.268*, direction=25.0°*
  1: 0x0251 [0x80] LOAD_WAIT(entity=EventEntity)
  2: 0x0256 [0x00] END_REQSTACK()
```

### Event 65535.22

#### Metadata

| Field        | Value    |
|--------------|----------|
| Entrypoint   | 0x0257   |
| Data Size    | 69 bytes |
| Instructions | 15       |

```
      00 01 02 03 04 05 06 07  08 09 0A 0B 0C 0D 0E 0F
      -- -- -- -- -- -- -- --  -- -- -- -- -- -- -- --
0250:                      32  46 80 1F 00 60 80 61 80         2F...`.a.
0260: 62 80 1F 01 1F 00 63 80  64 80 65 80 1F 01 1F 00  b.....c.d.e.....
0270: 66 80 67 80 68 80 1F 01  1F 00 69 80 6A 80 6B 80  f.g.h.....i.j.k.
0280: 1F 01 1F 00 6C 80 6D 80  6E 80 1F 01 1F 00 6F 80  ....l.m.n.....o.
0290: 70 80 71 80 1F 01 1E 97  A0 0E 01 00              p.q.........    
```

#### Opcodes

```
  0: 0x0257 [0x32] ExtData[1]->MainSpeed = 45* * 0.1
  1: 0x025A [0x1F] MOVE_ENTITY: EventEntity moves to X=-602.454*, Z=588.333*, Y=0.247*
  2: 0x0262 [0x1F] MOVE_ENTITY: Update entity position (mode=1)
  3: 0x0264 [0x1F] MOVE_ENTITY: EventEntity moves to X=-603.634*, Z=585.657*, Y=0.144*
  4: 0x026C [0x1F] MOVE_ENTITY: Update entity position (mode=1)
  5: 0x026E [0x1F] MOVE_ENTITY: EventEntity moves to X=-602.421*, Z=582.680*, Y=0.396*
  6: 0x0276 [0x1F] MOVE_ENTITY: Update entity position (mode=1)
  7: 0x0278 [0x1F] MOVE_ENTITY: EventEntity moves to X=-599.175*, Z=582.899*, Y=0.854*
  8: 0x0280 [0x1F] MOVE_ENTITY: Update entity position (mode=1)
  9: 0x0282 [0x1F] MOVE_ENTITY: EventEntity moves to X=-598.432*, Z=587.737*, Y=0.410*
 10: 0x028A [0x1F] MOVE_ENTITY: Update entity position (mode=1)
 11: 0x028C [0x1F] MOVE_ENTITY: EventEntity moves to X=-599.890*, Z=589.432*, Y=0.326*
 12: 0x0294 [0x1F] MOVE_ENTITY: Update entity position (mode=1)
 13: 0x0296 [0x1E] EventEntity looks at Unnamed NPC (ID: 17735831/0x010EA097) and starts talking
 14: 0x029B [0x00] END_REQSTACK()
```
