# 17735740 - Goraow

## Common Data

| Field            | Value                  |
|------------------|------------------------|
| Zone             | Bastok Mines (ID: 234) |
| Block Size       | 372 bytes              |
| Total Events     | 6                      |
| References Count | 18                     |

## List of Events

| Event ID              | Entrypoint   |   Size |   Instructions |
|-----------------------|--------------|--------|----------------|
| [65535](#event-65535) | 0x0000       |      1 |              1 |
| [105](#event-105)     | 0x0001       |      6 |              4 |
| [106](#event-106)     | 0x0007       |    114 |             20 |
| [107](#event-107)     | 0x0079       |    110 |             15 |
| [176](#event-176)     | 0x00E7       |     15 |              3 |
| [506](#event-506)     | 0x00F6       |     14 |              8 |

## DAT References (imed_data)

|   Index | Hex Value   |   Dec Value |
|---------|-------------|-------------|
|       0 | 0x2A3A      |       10810 |
|       1 | 0x01F5      |         501 |
|       2 | 0x0181      |         385 |
|       3 | 0x2A3B      |       10811 |
|       4 | 0x0179      |         377 |
|       5 | 0x2A3C      |       10812 |
|       6 | 0x000A      |          10 |
|       7 | 0x07FD      |        2045 |
|       8 | 0x001E      |          30 |
|       9 | 0x2A3D      |       10813 |
|      10 | 0x00C9      |         201 |
|      11 | 0x0000      |           0 |
|      12 | 0xFFFDB77B  |  4294817659 |
|      13 | 0xFFFF7AC4  |  4294933188 |
|      14 | 0x0733      |        1843 |
|      15 | 0x3104      |       12548 |
|      16 | 0x310C      |       12556 |
|      17 | 0x310D      |       12557 |

## String References

- **10810**: The workers in the mines and those who went out to avenge them...many of my brethren were slain by the Quadav.
- **10811**: I want the Quadav to pay for what they did, so that the souls of my fallen comrades may rest in peace.
- **10812**: I want you to go to the Quadav stronghold in Beadeaux and kill as many of them as you can. Bring me back $7 as proof of your deeds, and I will reward you.
- **10813**: Good work. Now the souls of my brethren can finally rest in peace.
- **12548**: <Player>'s badge flashes brightly.
- **12556**: Beastmen are the same all over Vana'diel. All they ever do is cause trouble.
- **12557**: A mercenary could take care of them, though...not a bad choice of profession.

## Events

### Event 65535

#### Metadata

| Field        | Value   |
|--------------|---------|
| Entrypoint   | 0x0000  |
| Data Size    | 1 bytes |
| Instructions | 1       |

```
      00 01 02 03 04 05 06 07  08 09 0A 0B 0C 0D 0E 0F
      -- -- -- -- -- -- -- --  -- -- -- -- -- -- -- --
0000: 00                                                .               
```

#### Opcodes

```
  0: 0x0000 [0x00] END_REQSTACK()
```

### Event 105

#### Metadata

| Field        | Value   |
|--------------|---------|
| Entrypoint   | 0x0001  |
| Data Size    | 6 bytes |
| Instructions | 4       |

```
      00 01 02 03 04 05 06 07  08 09 0A 0B 0C 0D 0E 0F
      -- -- -- -- -- -- -- --  -- -- -- -- -- -- -- --
0000:    1D 00 80 23 21 00                               ...#!.         
```

#### Opcodes

```
  0: 0x0001 [0x1D] PRINT_EVENT_MESSAGE(message_id=10810*)
    → "The workers in the mines and those who went out to avenge them...many of my brethren were slain by the Quadav."
  1: 0x0004 [0x23] WAIT_FOR_DIALOG_INTERACTION
  2: 0x0005 [0x21] END_EVENT
  3: 0x0006 [0x00] END_REQSTACK()
```

### Event 106

#### Metadata

| Field        | Value     |
|--------------|-----------|
| Entrypoint   | 0x0007    |
| Data Size    | 114 bytes |
| Instructions | 20        |

```
      00 01 02 03 04 05 06 07  08 09 0A 0B 0C 0D 0E 0F
      -- -- -- -- -- -- -- --  -- -- -- -- -- -- -- --
0000:                      03  09 10 01 80 5B 02 80 F8         .....[...
0010: FF FF 7F F8 FF FF 7F 6B  61 62 31 53 F8 FF FF 7F  .......kab1S....
0020: F8 FF FF 7F 6B 61 62 31  5E 69 64 6C 30 1D 00 80  ....kab1^idl0...
0030: 23 1E F0 FF FF 7F 1D 03  80 23 5B 04 80 F8 FF FF  #........#[.....
0040: 7F F8 FF FF 7F 74 6C 6B  30 1D 05 80 23 5E 69 64  .....tlk0...#^id
0050: 6C 30 1C 06 80 39 07 80  1C 08 80 5B 02 80 F8 FF  l0...9.....[....
0060: FF 7F F8 FF FF 7F 6B 61  62 30 53 F8 FF FF 7F F8  ......kab0S.....
0070: FF FF 7F 6B 61 62 30 21  00                       ...kab0!.       
```

#### Opcodes

```
  0: 0x0007 [0x03] Work_Zone[9] = 501*
  1: 0x000C [0x5B] LOAD_EXT_SCHEDULER: Load scheduler "kab1" with entities [EventEntity, EventEntity], work=385*
  2: 0x001B [0x53] WAIT_SCHEDULER_TASK: Wait for scheduler "kab1" with entities [EventEntity, EventEntity]
  3: 0x0028 [0x5E] EventEntity goes idle (kills current action) (animation: "idl0")
  4: 0x002D [0x1D] PRINT_EVENT_MESSAGE(message_id=10810*)
    → "The workers in the mines and those who went out to avenge them...many of my brethren were slain by the Quadav."
  5: 0x0030 [0x23] WAIT_FOR_DIALOG_INTERACTION
  6: 0x0031 [0x1E] EventEntity looks at LocalPlayer and starts talking
  7: 0x0036 [0x1D] PRINT_EVENT_MESSAGE(message_id=10811*)
    → "I want the Quadav to pay for what they did, so that the souls of my fallen comrades may rest in peace."
  8: 0x0039 [0x23] WAIT_FOR_DIALOG_INTERACTION
  9: 0x003A [0x5B] LOAD_EXT_SCHEDULER: Load scheduler "tlk0" with entities [EventEntity, EventEntity], work=377*
 10: 0x0049 [0x1D] PRINT_EVENT_MESSAGE(message_id=10812*)
    → "I want you to go to the Quadav stronghold in Beadeaux and kill as many of them as you can. Bring me back $7 as proof of your deeds, and I will reward you."
 11: 0x004C [0x23] WAIT_FOR_DIALOG_INTERACTION
 12: 0x004D [0x5E] EventEntity goes idle (kills current action) (animation: "idl0")
 13: 0x0052 [0x1C] WAIT(10* ticks)
 14: 0x0055 [0x39] SET_ENTITY_DIRECTION(direction=11.2°*)
 15: 0x0058 [0x1C] WAIT(30* ticks)
 16: 0x005B [0x5B] LOAD_EXT_SCHEDULER: Load scheduler "kab0" with entities [EventEntity, EventEntity], work=385*
 17: 0x006A [0x53] WAIT_SCHEDULER_TASK: Wait for scheduler "kab0" with entities [EventEntity, EventEntity]
 18: 0x0077 [0x21] END_EVENT
 19: 0x0078 [0x00] END_REQSTACK()
```

### Event 107

#### Metadata

| Field        | Value     |
|--------------|-----------|
| Entrypoint   | 0x0079    |
| Data Size    | 110 bytes |
| Instructions | 15        |

```
      00 01 02 03 04 05 06 07  08 09 0A 0B 0C 0D 0E 0F
      -- -- -- -- -- -- -- --  -- -- -- -- -- -- -- --
0070:                             42 20 01 5B 02 80 F8           B .[...
0080: FF FF 7F F8 FF FF 7F 6B  61 62 31 53 F8 FF FF 7F  .......kab1S....
0090: F8 FF FF 7F 6B 61 62 31  5E 69 64 6C 30 1E F0 FF  ....kab1^idl0...
00A0: FF 7F 1C 06 80 5B 04 80  F8 FF FF 7F F8 FF FF 7F  .....[..........
00B0: 70 61 73 30 1D 09 80 23  53 F8 FF FF 7F F8 FF FF  pas0...#S.......
00C0: 7F 70 61 73 30 5B 02 80  F8 FF FF 7F F8 FF FF 7F  .pas0[..........
00D0: 6B 61 62 30 45 0A 80 F0  FF FF 7F F0 FF FF 7F 71  kab0E..........q
00E0: 73 74 63 0B 80 21 00                              stc..!.         
```

#### Opcodes

```
  0: 0x0079 [0x42] SET_CLI_EVENT_CANCEL_DATA()
  1: 0x007A [0x20] SET_CLI_EVENT_UC_FLAG: Lock player control
  2: 0x007C [0x5B] LOAD_EXT_SCHEDULER: Load scheduler "kab1" with entities [EventEntity, EventEntity], work=385*
  3: 0x008B [0x53] WAIT_SCHEDULER_TASK: Wait for scheduler "kab1" with entities [EventEntity, EventEntity]
  4: 0x0098 [0x5E] EventEntity goes idle (kills current action) (animation: "idl0")
  5: 0x009D [0x1E] EventEntity looks at LocalPlayer and starts talking
  6: 0x00A2 [0x1C] WAIT(10* ticks)
  7: 0x00A5 [0x5B] LOAD_EXT_SCHEDULER: Load scheduler "pas0" with entities [EventEntity, EventEntity], work=377*
  8: 0x00B4 [0x1D] PRINT_EVENT_MESSAGE(message_id=10813*)
    → "Good work. Now the souls of my brethren can finally rest in peace."
  9: 0x00B7 [0x23] WAIT_FOR_DIALOG_INTERACTION
 10: 0x00B8 [0x53] WAIT_SCHEDULER_TASK: Wait for scheduler "pas0" with entities [EventEntity, EventEntity]
 11: 0x00C5 [0x5B] LOAD_EXT_SCHEDULER: Load scheduler "kab0" with entities [EventEntity, EventEntity], work=385*
 12: 0x00D4 [0x45] LOAD_SCHEDULED_TASK: Load scheduler "qstc" with entities [LocalPlayer, LocalPlayer], work=[201*, 0*]
 13: 0x00E5 [0x21] END_EVENT
 14: 0x00E6 [0x00] END_REQSTACK()
```

### Event 176

#### Metadata

| Field        | Value    |
|--------------|----------|
| Entrypoint   | 0x00E7   |
| Data Size    | 15 bytes |
| Instructions | 3        |

```
      00 01 02 03 04 05 06 07  08 09 0A 0B 0C 0D 0E 0F
      -- -- -- -- -- -- -- --  -- -- -- -- -- -- -- --
00E0:                      37  0C 80 0D 80 0B 80 0E 80         7........
00F0: 1E 0B A0 0E 01 00                                 ......          
```

#### Opcodes

```
  0: 0x00E7 [0x37] UPDATE_EVENT_POSITION_AND_DIR: x=-149.637*, z=-34.108*, y=0.000*, direction=162.0°*
  1: 0x00F0 [0x1E] EventEntity looks at Mydon (ID: 17735691/0x010EA00B) and starts talking
  2: 0x00F5 [0x00] END_REQSTACK()
```

### Event 506

#### Metadata

| Field        | Value    |
|--------------|----------|
| Entrypoint   | 0x00F6   |
| Data Size    | 14 bytes |
| Instructions | 8        |

```
      00 01 02 03 04 05 06 07  08 09 0A 0B 0C 0D 0E 0F
      -- -- -- -- -- -- -- --  -- -- -- -- -- -- -- --
00F0:                   42 48  0F 80 1D 10 80 23 1D 11        BH.....#..
0100: 80 23 21 00                                       .#!.            
```

#### Opcodes

```
  0: 0x00F6 [0x42] SET_CLI_EVENT_CANCEL_DATA()
  1: 0x00F7 [0x48] [System] [12548*]:
    → "<Player>'s badge flashes brightly."
  2: 0x00FA [0x1D] PRINT_EVENT_MESSAGE(message_id=12556*)
    → "Beastmen are the same all over Vana'diel. All they ever do is cause trouble."
  3: 0x00FD [0x23] WAIT_FOR_DIALOG_INTERACTION
  4: 0x00FE [0x1D] PRINT_EVENT_MESSAGE(message_id=12557*)
    → "A mercenary could take care of them, though...not a bad choice of profession."
  5: 0x0101 [0x23] WAIT_FOR_DIALOG_INTERACTION
  6: 0x0102 [0x21] END_EVENT
  7: 0x0103 [0x00] END_REQSTACK()
```
