# 17735883 - Chocobo

## Common Data

| Field            | Value                  |
|------------------|------------------------|
| Zone             | Bastok Mines (ID: 234) |
| Block Size       | 2912 bytes             |
| Total Events     | 31                     |
| References Count | 36                     |

## List of Events

| Event ID                   | Entrypoint   |   Size |   Instructions |
|----------------------------|--------------|--------|----------------|
| [65535](#event-65535)      | 0x0000       |      1 |              1 |
| [602](#event-602)          | 0x0001       |      1 |              1 |
| [65535.1](#event-655351)   | 0x0002       |      5 |              2 |
| [65535.2](#event-655352)   | 0x0007       |     11 |              3 |
| [65535.3](#event-655353)   | 0x0012       |      4 |              2 |
| [65535.4](#event-655354)   | 0x0016       |     16 |              2 |
| [65535.5](#event-655355)   | 0x0026       |     16 |              2 |
| [65535.6](#event-655356)   | 0x0036       |     16 |              2 |
| [65535.7](#event-655357)   | 0x0046       |     81 |             11 |
| [65535.8](#event-655358)   | 0x0097       |    130 |             24 |
| [65535.9](#event-655359)   | 0x0119       |      6 |              2 |
| [65535.10](#event-6553510) | 0x011F       |     11 |              3 |
| [65535.11](#event-6553511) | 0x012A       |    103 |             20 |
| [65535.12](#event-6553512) | 0x0191       |    103 |             20 |
| [65535.13](#event-6553513) | 0x01F8       |    103 |             20 |
| [65535.14](#event-6553514) | 0x025F       |    103 |             20 |
| [65535.15](#event-6553515) | 0x02C6       |    103 |             20 |
| [65535.16](#event-6553516) | 0x032D       |    167 |             32 |
| [65535.17](#event-6553517) | 0x03D4       |    141 |             27 |
| [65535.18](#event-6553518) | 0x0461       |    141 |             27 |
| [65535.19](#event-6553519) | 0x04EE       |    141 |             27 |
| [65535.20](#event-6553520) | 0x057B       |    141 |             27 |
| [65535.21](#event-6553521) | 0x0608       |    141 |             27 |
| [65535.22](#event-6553522) | 0x0695       |    205 |             39 |
| [65535.23](#event-6553523) | 0x0762       |    103 |             20 |
| [65535.24](#event-6553524) | 0x07C9       |    103 |             20 |
| [65535.25](#event-6553525) | 0x0830       |    103 |             20 |
| [65535.26](#event-6553526) | 0x0897       |    103 |             20 |
| [65535.27](#event-6553527) | 0x08FE       |    103 |             20 |
| [65535.28](#event-6553528) | 0x0965       |    167 |             32 |
| [65535.29](#event-6553529) | 0x0A0C       |     53 |             12 |

## DAT References (imed_data)

|   Index | Hex Value   |   Dec Value |
|---------|-------------|-------------|
|       0 | 0x0050      |          80 |
|       1 | 0x00DF      |         223 |
|       2 | 0x00DC      |         220 |
|       3 | 0x00DE      |         222 |
|       4 | 0x0002      |           2 |
|       5 | 0x0000      |           0 |
|       6 | 0x0001      |           1 |
|       7 | 0x0003      |           3 |
|       8 | 0x0004      |           4 |
|       9 | 0x0014      |          20 |
|      10 | 0x0032      |          50 |
|      11 | 0xFFFE1F88  |  4294844296 |
|      12 | 0xFFFF0DD0  |  4294905296 |
|      13 | 0xFFFF1794  |  4294907796 |
|      14 | 0xFFFF2158  |  4294910296 |
|      15 | 0x0012      |          18 |
|      16 | 0xFFFE1BA0  |  4294843296 |
|      17 | 0xFFFE17B8  |  4294842296 |
|      18 | 0x0013      |          19 |
|      19 | 0xFFFE13D0  |  4294841296 |
|      20 | 0xFFFE0FE8  |  4294840296 |
|      21 | 0xFFFE0C00  |  4294839296 |
|      22 | 0x0005      |           5 |
|      23 | 0x0006      |           6 |
|      24 | 0xFFFE0818  |  4294838296 |
|      25 | 0x0007      |           7 |
|      26 | 0x0008      |           8 |
|      27 | 0x0009      |           9 |
|      28 | 0x000A      |          10 |
|      29 | 0x000B      |          11 |
|      30 | 0x000C      |          12 |
|      31 | 0x000D      |          13 |
|      32 | 0x000E      |          14 |
|      33 | 0x000F      |          15 |
|      34 | 0x0010      |          16 |
|      35 | 0x0011      |          17 |

## Events

### Event 65535

#### Metadata

| Field        | Value   |
|--------------|---------|
| Entrypoint   | 0x0000  |
| Data Size    | 1 bytes |
| Instructions | 1       |

```
      00 01 02 03 04 05 06 07  08 09 0A 0B 0C 0D 0E 0F
      -- -- -- -- -- -- -- --  -- -- -- -- -- -- -- --
0000: 00                                                .               
```

#### Opcodes

```
  0: 0x0000 [0x00] END_REQSTACK()
```

### Event 602

#### Metadata

| Field        | Value   |
|--------------|---------|
| Entrypoint   | 0x0001  |
| Data Size    | 1 bytes |
| Instructions | 1       |

```
      00 01 02 03 04 05 06 07  08 09 0A 0B 0C 0D 0E 0F
      -- -- -- -- -- -- -- --  -- -- -- -- -- -- -- --
0000:    00                                              .              
```

#### Opcodes

```
  0: 0x0001 [0x00] END_REQSTACK()
```

### Event 65535.1

#### Metadata

| Field        | Value   |
|--------------|---------|
| Entrypoint   | 0x0002  |
| Data Size    | 5 bytes |
| Instructions | 2       |

```
      00 01 02 03 04 05 06 07  08 09 0A 0B 0C 0D 0E 0F
      -- -- -- -- -- -- -- --  -- -- -- -- -- -- -- --
0000:       B6 0F 00 80 00                                .....         
```

#### Opcodes

```
  0: 0x0002 [0xB6] ENTITY_APPEARANCE_HANDLER(case=Model size, value=80*)
  1: 0x0006 [0x00] END_REQSTACK()
```

### Event 65535.2

#### Metadata

| Field        | Value    |
|--------------|----------|
| Entrypoint   | 0x0007   |
| Data Size    | 11 bytes |
| Instructions | 3        |

```
      00 01 02 03 04 05 06 07  08 09 0A 0B 0C 0D 0E 0F
      -- -- -- -- -- -- -- --  -- -- -- -- -- -- -- --
0000:                      1F  00 00 17 01 17 02 17 1F         .........
0010: 01 00                                             ..              
```

#### Opcodes

```
  0: 0x0007 [0x1F] MOVE_ENTITY: EventEntity moves to X=Work_Zone_1700[0], Z=Work_Zone_1700[1], Y=Work_Zone_1700[2]
  1: 0x000F [0x1F] MOVE_ENTITY: Update entity position (mode=1)
  2: 0x0011 [0x00] END_REQSTACK()
```

### Event 65535.3

#### Metadata

| Field        | Value   |
|--------------|---------|
| Entrypoint   | 0x0012  |
| Data Size    | 4 bytes |
| Instructions | 2       |

```
      00 01 02 03 04 05 06 07  08 09 0A 0B 0C 0D 0E 0F
      -- -- -- -- -- -- -- --  -- -- -- -- -- -- -- --
0010:       39 03 17 00                                   9...          
```

#### Opcodes

```
  0: 0x0012 [0x39] SET_ENTITY_DIRECTION(direction=Work_Zone_1700[3])
  1: 0x0015 [0x00] END_REQSTACK()
```

### Event 65535.4

#### Metadata

| Field        | Value    |
|--------------|----------|
| Entrypoint   | 0x0016   |
| Data Size    | 16 bytes |
| Instructions | 2        |

```
      00 01 02 03 04 05 06 07  08 09 0A 0B 0C 0D 0E 0F
      -- -- -- -- -- -- -- --  -- -- -- -- -- -- -- --
0010:                   5B 01  80 F8 FF FF 7F F8 FF FF        [.........
0020: 7F 6E 61 6B 30 00                                 .nak0.          
```

#### Opcodes

```
  0: 0x0016 [0x5B] LOAD_EXT_SCHEDULER: Load scheduler "nak0" with entities [EventEntity, EventEntity], work=223*
  1: 0x0025 [0x00] END_REQSTACK()
```

### Event 65535.5

#### Metadata

| Field        | Value    |
|--------------|----------|
| Entrypoint   | 0x0026   |
| Data Size    | 16 bytes |
| Instructions | 2        |

```
      00 01 02 03 04 05 06 07  08 09 0A 0B 0C 0D 0E 0F
      -- -- -- -- -- -- -- --  -- -- -- -- -- -- -- --
0020:                   5B 02  80 F8 FF FF 7F F8 FF FF        [.........
0030: 7F 79 6F 72 30 00                                 .yor0.          
```

#### Opcodes

```
  0: 0x0026 [0x5B] LOAD_EXT_SCHEDULER: Load scheduler "yor0" with entities [EventEntity, EventEntity], work=220*
  1: 0x0035 [0x00] END_REQSTACK()
```

### Event 65535.6

#### Metadata

| Field        | Value    |
|--------------|----------|
| Entrypoint   | 0x0036   |
| Data Size    | 16 bytes |
| Instructions | 2        |

```
      00 01 02 03 04 05 06 07  08 09 0A 0B 0C 0D 0E 0F
      -- -- -- -- -- -- -- --  -- -- -- -- -- -- -- --
0030:                   5B 03  80 F8 FF FF 7F F8 FF FF        [.........
0040: 7F 75 73 74 30 00                                 .ust0.          
```

#### Opcodes

```
  0: 0x0036 [0x5B] LOAD_EXT_SCHEDULER: Load scheduler "ust0" with entities [EventEntity, EventEntity], work=222*
  1: 0x0045 [0x00] END_REQSTACK()
```

### Event 65535.7

#### Metadata

| Field        | Value    |
|--------------|----------|
| Entrypoint   | 0x0046   |
| Data Size    | 81 bytes |
| Instructions | 11       |

```
      00 01 02 03 04 05 06 07  08 09 0A 0B 0C 0D 0E 0F
      -- -- -- -- -- -- -- --  -- -- -- -- -- -- -- --
0040:                   13 00  00 04 80 02 00 00 05 80        ..........
0050: 80 64 00 B6 0D 05 80 04  80 05 80 05 80 05 80 06  .d..............
0060: 80 01 96 00 02 00 00 06  80 80 7D 00 B6 0D 05 80  ..........}.....
0070: 07 80 05 80 05 80 06 80  05 80 01 96 00 02 00 00  ................
0080: 04 80 80 96 00 B6 0D 05  80 08 80 05 80 06 80 05  ................
0090: 80 05 80 01 96 00 00                              .......         
```

#### Opcodes

```
  0: 0x0046 [0x13] ExtData[1]->WorkLocal[0] = rand() % 2*
  1: 0x004B [0x02] IF !(ExtData[1]->WorkLocal[0] == 0*) GOTO 0x0064
  2: 0x0053 [0xB6] ENTITY_APPEARANCE_HANDLER(case=Look with Render flags, race=0*, face=2*, head=0*, body=0*, hands=0*, render_flags=0x8006)
  3: 0x0061 [0x01] GOTO 0x0096
  4: 0x0064 [0x02] IF !(ExtData[1]->WorkLocal[0] == 1*) GOTO 0x007D
  5: 0x006C [0xB6] ENTITY_APPEARANCE_HANDLER(case=Look with Render flags, race=0*, face=3*, head=0*, body=0*, hands=1*, render_flags=0x8005)
  6: 0x007A [0x01] GOTO 0x0096
  7: 0x007D [0x02] IF !(ExtData[1]->WorkLocal[0] == 2*) GOTO 0x0096
  8: 0x0085 [0xB6] ENTITY_APPEARANCE_HANDLER(case=Look with Render flags, race=0*, face=4*, head=0*, body=1*, hands=0*, render_flags=0x8005)
  9: 0x0093 [0x01] GOTO 0x0096

SUBROUTINE_0096:
 10: 0x0096 [0x00] END_REQSTACK()
```

### Event 65535.8

#### Metadata

| Field        | Value     |
|--------------|-----------|
| Entrypoint   | 0x0097    |
| Data Size    | 130 bytes |
| Instructions | 24        |

```
      00 01 02 03 04 05 06 07  08 09 0A 0B 0C 0D 0E 0F
      -- -- -- -- -- -- -- --  -- -- -- -- -- -- -- --
0090:                      03  05 00 06 80 27 80 CD A0         .....'...
00A0: 0E 01 02 32 09 80 59 00  0A 80 03 02 17 05 80 02  ...2..Y.........
00B0: 05 17 05 80 80 D2 00 03  02 00 0B 80 03 03 00 0C  ................
00C0: 80 27 80 CB A0 0E 01 0B  27 80 CB A0 0E 01 0C 01  .'......'.......
00D0: 18 01 02 05 17 06 80 80  F5 00 03 02 00 0B 80 03  ................
00E0: 03 00 0D 80 27 80 CB A0  0E 01 0B 27 80 CB A0 0E  ....'......'....
00F0: 01 12 01 18 01 02 05 17  04 80 80 18 01 03 02 00  ................
0100: 0B 80 03 03 00 0E 80 27  80 CB A0 0E 01 0B 27 80  .......'......'.
0110: CB A0 0E 01 18 01 18 01  00                       .........       
```

#### Opcodes

```
  0: 0x0097 [0x03] ExtData[1]->WorkLocal[5] = 1*
  1: 0x009C [0x27] REQ_SET(priority=0x80, entity_id=Unnamed NPC (ID: 17735885/0x010EA0CD), tag_num=0x02)
  2: 0x00A3 [0x32] ExtData[1]->MainSpeed = 20* * 0.1
  3: 0x00A6 [0x59] UPDATE_ENTITY_DATA: Set EventEntity target turn speed = 50*
  4: 0x00AA [0x03] Work_Zone_1700[2] = 0*
  5: 0x00AF [0x02] IF !(Work_Zone_1700[5] == 0*) GOTO 0x00D2
  6: 0x00B7 [0x03] ExtData[1]->WorkLocal[2] = 4294844296*
  7: 0x00BC [0x03] ExtData[1]->WorkLocal[3] = 4294905296*
  8: 0x00C1 [0x27] REQ_SET(priority=0x80, entity_id=Chocobo (ID: 17735883/0x010EA0CB), tag_num=0x0B)
  9: 0x00C8 [0x27] REQ_SET(priority=0x80, entity_id=Chocobo (ID: 17735883/0x010EA0CB), tag_num=0x0C)
 10: 0x00CF [0x01] GOTO 0x0118
 11: 0x00D2 [0x02] IF !(Work_Zone_1700[5] == 1*) GOTO 0x00F5
 12: 0x00DA [0x03] ExtData[1]->WorkLocal[2] = 4294844296*
 13: 0x00DF [0x03] ExtData[1]->WorkLocal[3] = 4294907796*
 14: 0x00E4 [0x27] REQ_SET(priority=0x80, entity_id=Chocobo (ID: 17735883/0x010EA0CB), tag_num=0x0B)
 15: 0x00EB [0x27] REQ_SET(priority=0x80, entity_id=Chocobo (ID: 17735883/0x010EA0CB), tag_num=0x12)
 16: 0x00F2 [0x01] GOTO 0x0118
 17: 0x00F5 [0x02] IF !(Work_Zone_1700[5] == 2*) GOTO 0x0118
 18: 0x00FD [0x03] ExtData[1]->WorkLocal[2] = 4294844296*
 19: 0x0102 [0x03] ExtData[1]->WorkLocal[3] = 4294910296*
 20: 0x0107 [0x27] REQ_SET(priority=0x80, entity_id=Chocobo (ID: 17735883/0x010EA0CB), tag_num=0x0B)
 21: 0x010E [0x27] REQ_SET(priority=0x80, entity_id=Chocobo (ID: 17735883/0x010EA0CB), tag_num=0x18)
 22: 0x0115 [0x01] GOTO 0x0118

SUBROUTINE_0118:
 23: 0x0118 [0x00] END_REQSTACK()
```

### Event 65535.9

#### Metadata

| Field        | Value   |
|--------------|---------|
| Entrypoint   | 0x0119  |
| Data Size    | 6 bytes |
| Instructions | 2       |

```
      00 01 02 03 04 05 06 07  08 09 0A 0B 0C 0D 0E 0F
      -- -- -- -- -- -- -- --  -- -- -- -- -- -- -- --
0110:                             03 01 00 05 80 00              ...... 
```

#### Opcodes

```
  0: 0x0119 [0x03] ExtData[1]->WorkLocal[1] = 0*
  1: 0x011E [0x00] END_REQSTACK()
```

### Event 65535.10

#### Metadata

| Field        | Value    |
|--------------|----------|
| Entrypoint   | 0x011F   |
| Data Size    | 11 bytes |
| Instructions | 3        |

```
      00 01 02 03 04 05 06 07  08 09 0A 0B 0C 0D 0E 0F
      -- -- -- -- -- -- -- --  -- -- -- -- -- -- -- --
0110:                                               1F                 .
0120: 00 02 00 03 00 04 00 1F  01 00                    ..........      
```

#### Opcodes

```
  0: 0x011F [0x1F] MOVE_ENTITY: EventEntity moves to X=ExtData[1]->WorkLocal[2], Z=ExtData[1]->WorkLocal[3], Y=ExtData[1]->WorkLocal[4]
  1: 0x0127 [0x1F] MOVE_ENTITY: Update entity position (mode=1)
  2: 0x0129 [0x00] END_REQSTACK()
```

### Event 65535.11

#### Metadata

| Field        | Value     |
|--------------|-----------|
| Entrypoint   | 0x012A    |
| Data Size    | 103 bytes |
| Instructions | 20        |

```
      00 01 02 03 04 05 06 07  08 09 0A 0B 0C 0D 0E 0F
      -- -- -- -- -- -- -- --  -- -- -- -- -- -- -- --
0120:                                3E 07 17 0F 80 4F            >....O
0130: 01 03 01 00 05 80 03 02  00 10 80 1A 10 0A 27 80  ..............'.
0140: F8 FF FF 7F 0B 27 80 F8  FF FF 7F 0D 01 90 01 02  .....'..........
0150: 01 00 05 80 00 75 01 03  01 00 06 80 03 03 00 0D  .....u..........
0160: 80 1A 10 0A 27 80 F8 FF  FF 7F 0B 27 80 F8 FF FF  ....'......'....
0170: 7F 12 01 90 01 03 01 00  05 80 03 02 00 10 80 1A  ................
0180: 10 0A 27 80 F8 FF FF 7F  0B 27 80 F8 FF FF 7F 0D  ..'......'......
0190: 00                                                .               
```

#### Opcodes

```
  0: 0x012A [0x3E] IF !(Work_Zone_1700[7] bit 18*) GOTO 0x014F
  1: 0x0131 [0x03] ExtData[1]->WorkLocal[1] = 0*
  2: 0x0136 [0x03] ExtData[1]->WorkLocal[2] = 4294843296*
  3: 0x013B [0x1A] CALL_SUBROUTINE(address=0x0A10)
  4: 0x013E [0x27] REQ_SET(priority=0x80, entity_id=EventEntity, tag_num=0x0B)
  5: 0x0145 [0x27] REQ_SET(priority=0x80, entity_id=EventEntity, tag_num=0x0D)
  6: 0x014C [0x01] GOTO 0x0190
  7: 0x014F [0x02] IF !(ExtData[1]->WorkLocal[1] == 0*) GOTO 0x0175
  8: 0x0157 [0x03] ExtData[1]->WorkLocal[1] = 1*
  9: 0x015C [0x03] ExtData[1]->WorkLocal[3] = 4294907796*
 10: 0x0161 [0x1A] CALL_SUBROUTINE(address=0x0A10)
 11: 0x0164 [0x27] REQ_SET(priority=0x80, entity_id=EventEntity, tag_num=0x0B)
 12: 0x016B [0x27] REQ_SET(priority=0x80, entity_id=EventEntity, tag_num=0x12)
 13: 0x0172 [0x01] GOTO 0x0190
 14: 0x0175 [0x03] ExtData[1]->WorkLocal[1] = 0*
 15: 0x017A [0x03] ExtData[1]->WorkLocal[2] = 4294843296*
 16: 0x017F [0x1A] CALL_SUBROUTINE(address=0x0A10)
 17: 0x0182 [0x27] REQ_SET(priority=0x80, entity_id=EventEntity, tag_num=0x0B)
 18: 0x0189 [0x27] REQ_SET(priority=0x80, entity_id=EventEntity, tag_num=0x0D)

SUBROUTINE_0190:
 19: 0x0190 [0x00] END_REQSTACK()
```

### Event 65535.12

#### Metadata

| Field        | Value     |
|--------------|-----------|
| Entrypoint   | 0x0191    |
| Data Size    | 103 bytes |
| Instructions | 20        |

```
      00 01 02 03 04 05 06 07  08 09 0A 0B 0C 0D 0E 0F
      -- -- -- -- -- -- -- --  -- -- -- -- -- -- -- --
0190:    3E 07 17 0F 80 DC 01  02 01 00 05 80 00 BE 01   >..............
01A0: 03 01 00 04 80 03 03 00  0D 80 1A 10 0A 27 80 F8  .............'..
01B0: FF FF 7F 0B 27 80 F8 FF  FF 7F 13 01 D9 01 03 01  ....'...........
01C0: 00 05 80 03 02 00 11 80  1A 10 0A 27 80 F8 FF FF  ...........'....
01D0: 7F 0B 27 80 F8 FF FF 7F  0E 01 F7 01 03 01 00 05  ..'.............
01E0: 80 03 02 00 11 80 1A 10  0A 27 80 F8 FF FF 7F 0B  .........'......
01F0: 27 80 F8 FF FF 7F 0E 00                           '.......        
```

#### Opcodes

```
  0: 0x0191 [0x3E] IF !(Work_Zone_1700[7] bit 18*) GOTO 0x01DC
  1: 0x0198 [0x02] IF !(ExtData[1]->WorkLocal[1] == 0*) GOTO 0x01BE
  2: 0x01A0 [0x03] ExtData[1]->WorkLocal[1] = 2*
  3: 0x01A5 [0x03] ExtData[1]->WorkLocal[3] = 4294907796*
  4: 0x01AA [0x1A] CALL_SUBROUTINE(address=0x0A10)
  5: 0x01AD [0x27] REQ_SET(priority=0x80, entity_id=EventEntity, tag_num=0x0B)
  6: 0x01B4 [0x27] REQ_SET(priority=0x80, entity_id=EventEntity, tag_num=0x13)
  7: 0x01BB [0x01] GOTO 0x01D9
  8: 0x01BE [0x03] ExtData[1]->WorkLocal[1] = 0*
  9: 0x01C3 [0x03] ExtData[1]->WorkLocal[2] = 4294842296*
 10: 0x01C8 [0x1A] CALL_SUBROUTINE(address=0x0A10)
 11: 0x01CB [0x27] REQ_SET(priority=0x80, entity_id=EventEntity, tag_num=0x0B)
 12: 0x01D2 [0x27] REQ_SET(priority=0x80, entity_id=EventEntity, tag_num=0x0E)

SUBROUTINE_01D9:
 13: 0x01D9 [0x01] GOTO 0x01F7
 14: 0x01DC [0x03] ExtData[1]->WorkLocal[1] = 0*
 15: 0x01E1 [0x03] ExtData[1]->WorkLocal[2] = 4294842296*
 16: 0x01E6 [0x1A] CALL_SUBROUTINE(address=0x0A10)
 17: 0x01E9 [0x27] REQ_SET(priority=0x80, entity_id=EventEntity, tag_num=0x0B)
 18: 0x01F0 [0x27] REQ_SET(priority=0x80, entity_id=EventEntity, tag_num=0x0E)

SUBROUTINE_01F7:
 19: 0x01F7 [0x00] END_REQSTACK()
```

### Event 65535.13

#### Metadata

| Field        | Value     |
|--------------|-----------|
| Entrypoint   | 0x01F8    |
| Data Size    | 103 bytes |
| Instructions | 20        |

```
      00 01 02 03 04 05 06 07  08 09 0A 0B 0C 0D 0E 0F
      -- -- -- -- -- -- -- --  -- -- -- -- -- -- -- --
01F0:                          3E 07 17 12 80 1D 02 03          >.......
0200: 01 00 05 80 03 02 00 13  80 1A 10 0A 27 80 F8 FF  ............'...
0210: FF 7F 0B 27 80 F8 FF FF  7F 0F 01 5E 02 02 01 00  ...'.......^....
0220: 05 80 00 43 02 03 01 00  07 80 03 03 00 0D 80 1A  ...C............
0230: 10 0A 27 80 F8 FF FF 7F  0B 27 80 F8 FF FF 7F 14  ..'......'......
0240: 01 5E 02 03 01 00 05 80  03 02 00 13 80 1A 10 0A  .^..............
0250: 27 80 F8 FF FF 7F 0B 27  80 F8 FF FF 7F 0F 00     '......'....... 
```

#### Opcodes

```
  0: 0x01F8 [0x3E] IF !(Work_Zone_1700[7] bit 19*) GOTO 0x021D
  1: 0x01FF [0x03] ExtData[1]->WorkLocal[1] = 0*
  2: 0x0204 [0x03] ExtData[1]->WorkLocal[2] = 4294841296*
  3: 0x0209 [0x1A] CALL_SUBROUTINE(address=0x0A10)
  4: 0x020C [0x27] REQ_SET(priority=0x80, entity_id=EventEntity, tag_num=0x0B)
  5: 0x0213 [0x27] REQ_SET(priority=0x80, entity_id=EventEntity, tag_num=0x0F)
  6: 0x021A [0x01] GOTO 0x025E
  7: 0x021D [0x02] IF !(ExtData[1]->WorkLocal[1] == 0*) GOTO 0x0243
  8: 0x0225 [0x03] ExtData[1]->WorkLocal[1] = 3*
  9: 0x022A [0x03] ExtData[1]->WorkLocal[3] = 4294907796*
 10: 0x022F [0x1A] CALL_SUBROUTINE(address=0x0A10)
 11: 0x0232 [0x27] REQ_SET(priority=0x80, entity_id=EventEntity, tag_num=0x0B)
 12: 0x0239 [0x27] REQ_SET(priority=0x80, entity_id=EventEntity, tag_num=0x14)
 13: 0x0240 [0x01] GOTO 0x025E
 14: 0x0243 [0x03] ExtData[1]->WorkLocal[1] = 0*
 15: 0x0248 [0x03] ExtData[1]->WorkLocal[2] = 4294841296*
 16: 0x024D [0x1A] CALL_SUBROUTINE(address=0x0A10)
 17: 0x0250 [0x27] REQ_SET(priority=0x80, entity_id=EventEntity, tag_num=0x0B)
 18: 0x0257 [0x27] REQ_SET(priority=0x80, entity_id=EventEntity, tag_num=0x0F)

SUBROUTINE_025E:
 19: 0x025E [0x00] END_REQSTACK()
```

### Event 65535.14

#### Metadata

| Field        | Value     |
|--------------|-----------|
| Entrypoint   | 0x025F    |
| Data Size    | 103 bytes |
| Instructions | 20        |

```
      00 01 02 03 04 05 06 07  08 09 0A 0B 0C 0D 0E 0F
      -- -- -- -- -- -- -- --  -- -- -- -- -- -- -- --
0250:                                               3E                 >
0260: 07 17 12 80 AA 02 02 01  00 05 80 00 8C 02 03 01  ................
0270: 00 08 80 03 03 00 0D 80  1A 10 0A 27 80 F8 FF FF  ...........'....
0280: 7F 0B 27 80 F8 FF FF 7F  15 01 A7 02 03 01 00 05  ..'.............
0290: 80 03 02 00 14 80 1A 10  0A 27 80 F8 FF FF 7F 0B  .........'......
02A0: 27 80 F8 FF FF 7F 10 01  C5 02 03 01 00 05 80 03  '...............
02B0: 02 00 14 80 1A 10 0A 27  80 F8 FF FF 7F 0B 27 80  .......'......'.
02C0: F8 FF FF 7F 10 00                                 ......          
```

#### Opcodes

```
  0: 0x025F [0x3E] IF !(Work_Zone_1700[7] bit 19*) GOTO 0x02AA
  1: 0x0266 [0x02] IF !(ExtData[1]->WorkLocal[1] == 0*) GOTO 0x028C
  2: 0x026E [0x03] ExtData[1]->WorkLocal[1] = 4*
  3: 0x0273 [0x03] ExtData[1]->WorkLocal[3] = 4294907796*
  4: 0x0278 [0x1A] CALL_SUBROUTINE(address=0x0A10)
  5: 0x027B [0x27] REQ_SET(priority=0x80, entity_id=EventEntity, tag_num=0x0B)
  6: 0x0282 [0x27] REQ_SET(priority=0x80, entity_id=EventEntity, tag_num=0x15)
  7: 0x0289 [0x01] GOTO 0x02A7
  8: 0x028C [0x03] ExtData[1]->WorkLocal[1] = 0*
  9: 0x0291 [0x03] ExtData[1]->WorkLocal[2] = 4294840296*
 10: 0x0296 [0x1A] CALL_SUBROUTINE(address=0x0A10)
 11: 0x0299 [0x27] REQ_SET(priority=0x80, entity_id=EventEntity, tag_num=0x0B)
 12: 0x02A0 [0x27] REQ_SET(priority=0x80, entity_id=EventEntity, tag_num=0x10)

SUBROUTINE_02A7:
 13: 0x02A7 [0x01] GOTO 0x02C5
 14: 0x02AA [0x03] ExtData[1]->WorkLocal[1] = 0*
 15: 0x02AF [0x03] ExtData[1]->WorkLocal[2] = 4294840296*
 16: 0x02B4 [0x1A] CALL_SUBROUTINE(address=0x0A10)
 17: 0x02B7 [0x27] REQ_SET(priority=0x80, entity_id=EventEntity, tag_num=0x0B)
 18: 0x02BE [0x27] REQ_SET(priority=0x80, entity_id=EventEntity, tag_num=0x10)

SUBROUTINE_02C5:
 19: 0x02C5 [0x00] END_REQSTACK()
```

### Event 65535.15

#### Metadata

| Field        | Value     |
|--------------|-----------|
| Entrypoint   | 0x02C6    |
| Data Size    | 103 bytes |
| Instructions | 20        |

```
      00 01 02 03 04 05 06 07  08 09 0A 0B 0C 0D 0E 0F
      -- -- -- -- -- -- -- --  -- -- -- -- -- -- -- --
02C0:                   3E 07  17 09 80 EB 02 03 01 00        >.........
02D0: 05 80 03 02 00 15 80 1A  10 0A 27 80 F8 FF FF 7F  ..........'.....
02E0: 0B 27 80 F8 FF FF 7F 11  01 2C 03 02 01 00 05 80  .'.......,......
02F0: 00 11 03 03 01 00 16 80  03 03 00 0D 80 1A 10 0A  ................
0300: 27 80 F8 FF FF 7F 0B 27  80 F8 FF FF 7F 16 01 2C  '......'.......,
0310: 03 03 01 00 05 80 03 02  00 15 80 1A 10 0A 27 80  ..............'.
0320: F8 FF FF 7F 0B 27 80 F8  FF FF 7F 11 00           .....'.......   
```

#### Opcodes

```
  0: 0x02C6 [0x3E] IF !(Work_Zone_1700[7] bit 20*) GOTO 0x02EB
  1: 0x02CD [0x03] ExtData[1]->WorkLocal[1] = 0*
  2: 0x02D2 [0x03] ExtData[1]->WorkLocal[2] = 4294839296*
  3: 0x02D7 [0x1A] CALL_SUBROUTINE(address=0x0A10)
  4: 0x02DA [0x27] REQ_SET(priority=0x80, entity_id=EventEntity, tag_num=0x0B)
  5: 0x02E1 [0x27] REQ_SET(priority=0x80, entity_id=EventEntity, tag_num=0x11)
  6: 0x02E8 [0x01] GOTO 0x032C
  7: 0x02EB [0x02] IF !(ExtData[1]->WorkLocal[1] == 0*) GOTO 0x0311
  8: 0x02F3 [0x03] ExtData[1]->WorkLocal[1] = 5*
  9: 0x02F8 [0x03] ExtData[1]->WorkLocal[3] = 4294907796*
 10: 0x02FD [0x1A] CALL_SUBROUTINE(address=0x0A10)
 11: 0x0300 [0x27] REQ_SET(priority=0x80, entity_id=EventEntity, tag_num=0x0B)
 12: 0x0307 [0x27] REQ_SET(priority=0x80, entity_id=EventEntity, tag_num=0x16)
 13: 0x030E [0x01] GOTO 0x032C
 14: 0x0311 [0x03] ExtData[1]->WorkLocal[1] = 0*
 15: 0x0316 [0x03] ExtData[1]->WorkLocal[2] = 4294839296*
 16: 0x031B [0x1A] CALL_SUBROUTINE(address=0x0A10)
 17: 0x031E [0x27] REQ_SET(priority=0x80, entity_id=EventEntity, tag_num=0x0B)
 18: 0x0325 [0x27] REQ_SET(priority=0x80, entity_id=EventEntity, tag_num=0x11)

SUBROUTINE_032C:
 19: 0x032C [0x00] END_REQSTACK()
```

### Event 65535.16

#### Metadata

| Field        | Value     |
|--------------|-----------|
| Entrypoint   | 0x032D    |
| Data Size    | 167 bytes |
| Instructions | 32        |

```
      00 01 02 03 04 05 06 07  08 09 0A 0B 0C 0D 0E 0F
      -- -- -- -- -- -- -- --  -- -- -- -- -- -- -- --
0320:                                         3E 07 17               >..
0330: 09 80 98 03 02 01 00 05  80 00 5A 03 03 01 00 17  ..........Z.....
0340: 80 03 03 00 0D 80 1A 10  0A 27 80 F8 FF FF 7F 0B  .........'......
0350: 27 80 F8 FF FF 7F 17 01  95 03 03 01 00 05 80 03  '...............
0360: 02 00 18 80 1A 10 0A 27  80 F8 FF FF 7F 0B 02 05  .......'........
0370: 00 05 80 80 7E 03 03 04  17 05 80 01 8E 03 02 05  ....~...........
0380: 00 06 80 80 8E 03 03 05  17 05 80 01 8E 03 27 80  ..............'.
0390: F8 FF FF 7F 1E 01 D3 03  03 01 00 05 80 03 02 00  ................
03A0: 18 80 1A 10 0A 27 80 F8  FF FF 7F 0B 02 05 00 05  .....'..........
03B0: 80 80 BC 03 03 04 17 05  80 01 CC 03 02 05 00 06  ................
03C0: 80 80 CC 03 03 05 17 05  80 01 CC 03 27 80 F8 FF  ............'...
03D0: FF 7F 1E 00                                       ....            
```

#### Opcodes

```
  0: 0x032D [0x3E] IF !(Work_Zone_1700[7] bit 20*) GOTO 0x0398
  1: 0x0334 [0x02] IF !(ExtData[1]->WorkLocal[1] == 0*) GOTO 0x035A
  2: 0x033C [0x03] ExtData[1]->WorkLocal[1] = 6*
  3: 0x0341 [0x03] ExtData[1]->WorkLocal[3] = 4294907796*
  4: 0x0346 [0x1A] CALL_SUBROUTINE(address=0x0A10)
  5: 0x0349 [0x27] REQ_SET(priority=0x80, entity_id=EventEntity, tag_num=0x0B)
  6: 0x0350 [0x27] REQ_SET(priority=0x80, entity_id=EventEntity, tag_num=0x17)
  7: 0x0357 [0x01] GOTO 0x0395
  8: 0x035A [0x03] ExtData[1]->WorkLocal[1] = 0*
  9: 0x035F [0x03] ExtData[1]->WorkLocal[2] = 4294838296*
 10: 0x0364 [0x1A] CALL_SUBROUTINE(address=0x0A10)
 11: 0x0367 [0x27] REQ_SET(priority=0x80, entity_id=EventEntity, tag_num=0x0B)
 12: 0x036E [0x02] IF !(ExtData[1]->WorkLocal[5] == 0*) GOTO 0x037E
 13: 0x0376 [0x03] Work_Zone_1700[4] = 0*
 14: 0x037B [0x01] GOTO 0x038E
 15: 0x037E [0x02] IF !(ExtData[1]->WorkLocal[5] == 1*) GOTO 0x038E
 16: 0x0386 [0x03] Work_Zone_1700[5] = 0*
 17: 0x038B [0x01] GOTO 0x038E

SUBROUTINE_038E:
 18: 0x038E [0x27] REQ_SET(priority=0x80, entity_id=EventEntity, tag_num=0x1E)

SUBROUTINE_0395:
 19: 0x0395 [0x01] GOTO 0x03D3
 20: 0x0398 [0x03] ExtData[1]->WorkLocal[1] = 0*
 21: 0x039D [0x03] ExtData[1]->WorkLocal[2] = 4294838296*
 22: 0x03A2 [0x1A] CALL_SUBROUTINE(address=0x0A10)
 23: 0x03A5 [0x27] REQ_SET(priority=0x80, entity_id=EventEntity, tag_num=0x0B)
 24: 0x03AC [0x02] IF !(ExtData[1]->WorkLocal[5] == 0*) GOTO 0x03BC
 25: 0x03B4 [0x03] Work_Zone_1700[4] = 0*
 26: 0x03B9 [0x01] GOTO 0x03CC
 27: 0x03BC [0x02] IF !(ExtData[1]->WorkLocal[5] == 1*) GOTO 0x03CC
 28: 0x03C4 [0x03] Work_Zone_1700[5] = 0*
 29: 0x03C9 [0x01] GOTO 0x03CC

SUBROUTINE_03CC:
 30: 0x03CC [0x27] REQ_SET(priority=0x80, entity_id=EventEntity, tag_num=0x1E)

SUBROUTINE_03D3:
 31: 0x03D3 [0x00] END_REQSTACK()
```

### Event 65535.17

#### Metadata

| Field        | Value     |
|--------------|-----------|
| Entrypoint   | 0x03D4    |
| Data Size    | 141 bytes |
| Instructions | 27        |

```
      00 01 02 03 04 05 06 07  08 09 0A 0B 0C 0D 0E 0F
      -- -- -- -- -- -- -- --  -- -- -- -- -- -- -- --
03D0:             3E 07 17 0F  80 1F 04 02 01 00 05 80      >...........
03E0: 00 01 04 03 01 00 19 80  03 03 00 0E 80 1A 10 0A  ................
03F0: 27 80 F8 FF FF 7F 0B 27  80 F8 FF FF 7F 18 01 1C  '......'........
0400: 04 03 01 00 05 80 03 02  00 10 80 1A 10 0A 27 80  ..............'.
0410: F8 FF FF 7F 0B 27 80 F8  FF FF 7F 13 01 60 04 02  .....'.......`..
0420: 01 00 05 80 00 45 04 03  01 00 19 80 03 03 00 0C  .....E..........
0430: 80 1A 10 0A 27 80 F8 FF  FF 7F 0B 27 80 F8 FF FF  ....'......'....
0440: 7F 0C 01 60 04 03 01 00  05 80 03 02 00 10 80 1A  ...`............
0450: 10 0A 27 80 F8 FF FF 7F  0B 27 80 F8 FF FF 7F 13  ..'......'......
0460: 00                                                .               
```

#### Opcodes

```
  0: 0x03D4 [0x3E] IF !(Work_Zone_1700[7] bit 18*) GOTO 0x041F
  1: 0x03DB [0x02] IF !(ExtData[1]->WorkLocal[1] == 0*) GOTO 0x0401
  2: 0x03E3 [0x03] ExtData[1]->WorkLocal[1] = 7*
  3: 0x03E8 [0x03] ExtData[1]->WorkLocal[3] = 4294910296*
  4: 0x03ED [0x1A] CALL_SUBROUTINE(address=0x0A10)
  5: 0x03F0 [0x27] REQ_SET(priority=0x80, entity_id=EventEntity, tag_num=0x0B)
  6: 0x03F7 [0x27] REQ_SET(priority=0x80, entity_id=EventEntity, tag_num=0x18)
  7: 0x03FE [0x01] GOTO 0x041C
  8: 0x0401 [0x03] ExtData[1]->WorkLocal[1] = 0*
  9: 0x0406 [0x03] ExtData[1]->WorkLocal[2] = 4294843296*
 10: 0x040B [0x1A] CALL_SUBROUTINE(address=0x0A10)
 11: 0x040E [0x27] REQ_SET(priority=0x80, entity_id=EventEntity, tag_num=0x0B)
 12: 0x0415 [0x27] REQ_SET(priority=0x80, entity_id=EventEntity, tag_num=0x13)

SUBROUTINE_041C:
 13: 0x041C [0x01] GOTO 0x0460
 14: 0x041F [0x02] IF !(ExtData[1]->WorkLocal[1] == 0*) GOTO 0x0445
 15: 0x0427 [0x03] ExtData[1]->WorkLocal[1] = 7*
 16: 0x042C [0x03] ExtData[1]->WorkLocal[3] = 4294905296*
 17: 0x0431 [0x1A] CALL_SUBROUTINE(address=0x0A10)
 18: 0x0434 [0x27] REQ_SET(priority=0x80, entity_id=EventEntity, tag_num=0x0B)
 19: 0x043B [0x27] REQ_SET(priority=0x80, entity_id=EventEntity, tag_num=0x0C)
 20: 0x0442 [0x01] GOTO 0x0460
 21: 0x0445 [0x03] ExtData[1]->WorkLocal[1] = 0*
 22: 0x044A [0x03] ExtData[1]->WorkLocal[2] = 4294843296*
 23: 0x044F [0x1A] CALL_SUBROUTINE(address=0x0A10)
 24: 0x0452 [0x27] REQ_SET(priority=0x80, entity_id=EventEntity, tag_num=0x0B)
 25: 0x0459 [0x27] REQ_SET(priority=0x80, entity_id=EventEntity, tag_num=0x13)

SUBROUTINE_0460:
 26: 0x0460 [0x00] END_REQSTACK()
```

### Event 65535.18

#### Metadata

| Field        | Value     |
|--------------|-----------|
| Entrypoint   | 0x0461    |
| Data Size    | 141 bytes |
| Instructions | 27        |

```
      00 01 02 03 04 05 06 07  08 09 0A 0B 0C 0D 0E 0F
      -- -- -- -- -- -- -- --  -- -- -- -- -- -- -- --
0460:    3E 07 17 0F 80 AC 04  02 01 00 05 80 00 8E 04   >..............
0470: 03 01 00 1A 80 03 03 00  0C 80 1A 10 0A 27 80 F8  .............'..
0480: FF FF 7F 0B 27 80 F8 FF  FF 7F 0D 01 A9 04 03 01  ....'...........
0490: 00 05 80 03 02 00 11 80  1A 10 0A 27 80 F8 FF FF  ...........'....
04A0: 7F 0B 27 80 F8 FF FF 7F  14 01 ED 04 02 01 00 05  ..'.............
04B0: 80 00 D2 04 03 01 00 1A  80 03 03 00 0E 80 1A 10  ................
04C0: 0A 27 80 F8 FF FF 7F 0B  27 80 F8 FF FF 7F 19 01  .'......'.......
04D0: ED 04 03 01 00 05 80 03  02 00 11 80 1A 10 0A 27  ...............'
04E0: 80 F8 FF FF 7F 0B 27 80  F8 FF FF 7F 14 00        ......'.......  
```

#### Opcodes

```
  0: 0x0461 [0x3E] IF !(Work_Zone_1700[7] bit 18*) GOTO 0x04AC
  1: 0x0468 [0x02] IF !(ExtData[1]->WorkLocal[1] == 0*) GOTO 0x048E
  2: 0x0470 [0x03] ExtData[1]->WorkLocal[1] = 8*
  3: 0x0475 [0x03] ExtData[1]->WorkLocal[3] = 4294905296*
  4: 0x047A [0x1A] CALL_SUBROUTINE(address=0x0A10)
  5: 0x047D [0x27] REQ_SET(priority=0x80, entity_id=EventEntity, tag_num=0x0B)
  6: 0x0484 [0x27] REQ_SET(priority=0x80, entity_id=EventEntity, tag_num=0x0D)
  7: 0x048B [0x01] GOTO 0x04A9
  8: 0x048E [0x03] ExtData[1]->WorkLocal[1] = 0*
  9: 0x0493 [0x03] ExtData[1]->WorkLocal[2] = 4294842296*
 10: 0x0498 [0x1A] CALL_SUBROUTINE(address=0x0A10)
 11: 0x049B [0x27] REQ_SET(priority=0x80, entity_id=EventEntity, tag_num=0x0B)
 12: 0x04A2 [0x27] REQ_SET(priority=0x80, entity_id=EventEntity, tag_num=0x14)

SUBROUTINE_04A9:
 13: 0x04A9 [0x01] GOTO 0x04ED
 14: 0x04AC [0x02] IF !(ExtData[1]->WorkLocal[1] == 0*) GOTO 0x04D2
 15: 0x04B4 [0x03] ExtData[1]->WorkLocal[1] = 8*
 16: 0x04B9 [0x03] ExtData[1]->WorkLocal[3] = 4294910296*
 17: 0x04BE [0x1A] CALL_SUBROUTINE(address=0x0A10)
 18: 0x04C1 [0x27] REQ_SET(priority=0x80, entity_id=EventEntity, tag_num=0x0B)
 19: 0x04C8 [0x27] REQ_SET(priority=0x80, entity_id=EventEntity, tag_num=0x19)
 20: 0x04CF [0x01] GOTO 0x04ED
 21: 0x04D2 [0x03] ExtData[1]->WorkLocal[1] = 0*
 22: 0x04D7 [0x03] ExtData[1]->WorkLocal[2] = 4294842296*
 23: 0x04DC [0x1A] CALL_SUBROUTINE(address=0x0A10)
 24: 0x04DF [0x27] REQ_SET(priority=0x80, entity_id=EventEntity, tag_num=0x0B)
 25: 0x04E6 [0x27] REQ_SET(priority=0x80, entity_id=EventEntity, tag_num=0x14)

SUBROUTINE_04ED:
 26: 0x04ED [0x00] END_REQSTACK()
```

### Event 65535.19

#### Metadata

| Field        | Value     |
|--------------|-----------|
| Entrypoint   | 0x04EE    |
| Data Size    | 141 bytes |
| Instructions | 27        |

```
      00 01 02 03 04 05 06 07  08 09 0A 0B 0C 0D 0E 0F
      -- -- -- -- -- -- -- --  -- -- -- -- -- -- -- --
04E0:                                            3E 07                >.
04F0: 17 12 80 39 05 02 01 00  05 80 00 1B 05 03 01 00  ...9............
0500: 1B 80 03 03 00 0E 80 1A  10 0A 27 80 F8 FF FF 7F  ..........'.....
0510: 0B 27 80 F8 FF FF 7F 1A  01 36 05 03 01 00 05 80  .'.......6......
0520: 03 02 00 13 80 1A 10 0A  27 80 F8 FF FF 7F 0B 27  ........'......'
0530: 80 F8 FF FF 7F 15 01 7A  05 02 01 00 05 80 00 5F  .......z......._
0540: 05 03 01 00 1B 80 03 03  00 0C 80 1A 10 0A 27 80  ..............'.
0550: F8 FF FF 7F 0B 27 80 F8  FF FF 7F 0E 01 7A 05 03  .....'.......z..
0560: 01 00 05 80 03 02 00 13  80 1A 10 0A 27 80 F8 FF  ............'...
0570: FF 7F 0B 27 80 F8 FF FF  7F 15 00                 ...'.......     
```

#### Opcodes

```
  0: 0x04EE [0x3E] IF !(Work_Zone_1700[7] bit 19*) GOTO 0x0539
  1: 0x04F5 [0x02] IF !(ExtData[1]->WorkLocal[1] == 0*) GOTO 0x051B
  2: 0x04FD [0x03] ExtData[1]->WorkLocal[1] = 9*
  3: 0x0502 [0x03] ExtData[1]->WorkLocal[3] = 4294910296*
  4: 0x0507 [0x1A] CALL_SUBROUTINE(address=0x0A10)
  5: 0x050A [0x27] REQ_SET(priority=0x80, entity_id=EventEntity, tag_num=0x0B)
  6: 0x0511 [0x27] REQ_SET(priority=0x80, entity_id=EventEntity, tag_num=0x1A)
  7: 0x0518 [0x01] GOTO 0x0536
  8: 0x051B [0x03] ExtData[1]->WorkLocal[1] = 0*
  9: 0x0520 [0x03] ExtData[1]->WorkLocal[2] = 4294841296*
 10: 0x0525 [0x1A] CALL_SUBROUTINE(address=0x0A10)
 11: 0x0528 [0x27] REQ_SET(priority=0x80, entity_id=EventEntity, tag_num=0x0B)
 12: 0x052F [0x27] REQ_SET(priority=0x80, entity_id=EventEntity, tag_num=0x15)

SUBROUTINE_0536:
 13: 0x0536 [0x01] GOTO 0x057A
 14: 0x0539 [0x02] IF !(ExtData[1]->WorkLocal[1] == 0*) GOTO 0x055F
 15: 0x0541 [0x03] ExtData[1]->WorkLocal[1] = 9*
 16: 0x0546 [0x03] ExtData[1]->WorkLocal[3] = 4294905296*
 17: 0x054B [0x1A] CALL_SUBROUTINE(address=0x0A10)
 18: 0x054E [0x27] REQ_SET(priority=0x80, entity_id=EventEntity, tag_num=0x0B)
 19: 0x0555 [0x27] REQ_SET(priority=0x80, entity_id=EventEntity, tag_num=0x0E)
 20: 0x055C [0x01] GOTO 0x057A
 21: 0x055F [0x03] ExtData[1]->WorkLocal[1] = 0*
 22: 0x0564 [0x03] ExtData[1]->WorkLocal[2] = 4294841296*
 23: 0x0569 [0x1A] CALL_SUBROUTINE(address=0x0A10)
 24: 0x056C [0x27] REQ_SET(priority=0x80, entity_id=EventEntity, tag_num=0x0B)
 25: 0x0573 [0x27] REQ_SET(priority=0x80, entity_id=EventEntity, tag_num=0x15)

SUBROUTINE_057A:
 26: 0x057A [0x00] END_REQSTACK()
```

### Event 65535.20

#### Metadata

| Field        | Value     |
|--------------|-----------|
| Entrypoint   | 0x057B    |
| Data Size    | 141 bytes |
| Instructions | 27        |

```
      00 01 02 03 04 05 06 07  08 09 0A 0B 0C 0D 0E 0F
      -- -- -- -- -- -- -- --  -- -- -- -- -- -- -- --
0570:                                   3E 07 17 12 80             >....
0580: C6 05 02 01 00 05 80 00  A8 05 03 01 00 1C 80 03  ................
0590: 03 00 0C 80 1A 10 0A 27  80 F8 FF FF 7F 0B 27 80  .......'......'.
05A0: F8 FF FF 7F 0F 01 C3 05  03 01 00 05 80 03 02 00  ................
05B0: 14 80 1A 10 0A 27 80 F8  FF FF 7F 0B 27 80 F8 FF  .....'......'...
05C0: FF 7F 16 01 07 06 02 01  00 05 80 00 EC 05 03 01  ................
05D0: 00 1C 80 03 03 00 0E 80  1A 10 0A 27 80 F8 FF FF  ...........'....
05E0: 7F 0B 27 80 F8 FF FF 7F  1B 01 07 06 03 01 00 05  ..'.............
05F0: 80 03 02 00 14 80 1A 10  0A 27 80 F8 FF FF 7F 0B  .........'......
0600: 27 80 F8 FF FF 7F 16 00                           '.......        
```

#### Opcodes

```
  0: 0x057B [0x3E] IF !(Work_Zone_1700[7] bit 19*) GOTO 0x05C6
  1: 0x0582 [0x02] IF !(ExtData[1]->WorkLocal[1] == 0*) GOTO 0x05A8
  2: 0x058A [0x03] ExtData[1]->WorkLocal[1] = 10*
  3: 0x058F [0x03] ExtData[1]->WorkLocal[3] = 4294905296*
  4: 0x0594 [0x1A] CALL_SUBROUTINE(address=0x0A10)
  5: 0x0597 [0x27] REQ_SET(priority=0x80, entity_id=EventEntity, tag_num=0x0B)
  6: 0x059E [0x27] REQ_SET(priority=0x80, entity_id=EventEntity, tag_num=0x0F)
  7: 0x05A5 [0x01] GOTO 0x05C3
  8: 0x05A8 [0x03] ExtData[1]->WorkLocal[1] = 0*
  9: 0x05AD [0x03] ExtData[1]->WorkLocal[2] = 4294840296*
 10: 0x05B2 [0x1A] CALL_SUBROUTINE(address=0x0A10)
 11: 0x05B5 [0x27] REQ_SET(priority=0x80, entity_id=EventEntity, tag_num=0x0B)
 12: 0x05BC [0x27] REQ_SET(priority=0x80, entity_id=EventEntity, tag_num=0x16)

SUBROUTINE_05C3:
 13: 0x05C3 [0x01] GOTO 0x0607
 14: 0x05C6 [0x02] IF !(ExtData[1]->WorkLocal[1] == 0*) GOTO 0x05EC
 15: 0x05CE [0x03] ExtData[1]->WorkLocal[1] = 10*
 16: 0x05D3 [0x03] ExtData[1]->WorkLocal[3] = 4294910296*
 17: 0x05D8 [0x1A] CALL_SUBROUTINE(address=0x0A10)
 18: 0x05DB [0x27] REQ_SET(priority=0x80, entity_id=EventEntity, tag_num=0x0B)
 19: 0x05E2 [0x27] REQ_SET(priority=0x80, entity_id=EventEntity, tag_num=0x1B)
 20: 0x05E9 [0x01] GOTO 0x0607
 21: 0x05EC [0x03] ExtData[1]->WorkLocal[1] = 0*
 22: 0x05F1 [0x03] ExtData[1]->WorkLocal[2] = 4294840296*
 23: 0x05F6 [0x1A] CALL_SUBROUTINE(address=0x0A10)
 24: 0x05F9 [0x27] REQ_SET(priority=0x80, entity_id=EventEntity, tag_num=0x0B)
 25: 0x0600 [0x27] REQ_SET(priority=0x80, entity_id=EventEntity, tag_num=0x16)

SUBROUTINE_0607:
 26: 0x0607 [0x00] END_REQSTACK()
```

### Event 65535.21

#### Metadata

| Field        | Value     |
|--------------|-----------|
| Entrypoint   | 0x0608    |
| Data Size    | 141 bytes |
| Instructions | 27        |

```
      00 01 02 03 04 05 06 07  08 09 0A 0B 0C 0D 0E 0F
      -- -- -- -- -- -- -- --  -- -- -- -- -- -- -- --
0600:                          3E 07 17 09 80 53 06 02          >....S..
0610: 01 00 05 80 00 35 06 03  01 00 1D 80 03 03 00 0E  .....5..........
0620: 80 1A 10 0A 27 80 F8 FF  FF 7F 0B 27 80 F8 FF FF  ....'......'....
0630: 7F 1C 01 50 06 03 01 00  05 80 03 02 00 15 80 1A  ...P............
0640: 10 0A 27 80 F8 FF FF 7F  0B 27 80 F8 FF FF 7F 17  ..'......'......
0650: 01 94 06 02 01 00 05 80  00 79 06 03 01 00 1D 80  .........y......
0660: 03 03 00 0C 80 1A 10 0A  27 80 F8 FF FF 7F 0B 27  ........'......'
0670: 80 F8 FF FF 7F 10 01 94  06 03 01 00 05 80 03 02  ................
0680: 00 15 80 1A 10 0A 27 80  F8 FF FF 7F 0B 27 80 F8  ......'......'..
0690: FF FF 7F 17 00                                    .....           
```

#### Opcodes

```
  0: 0x0608 [0x3E] IF !(Work_Zone_1700[7] bit 20*) GOTO 0x0653
  1: 0x060F [0x02] IF !(ExtData[1]->WorkLocal[1] == 0*) GOTO 0x0635
  2: 0x0617 [0x03] ExtData[1]->WorkLocal[1] = 11*
  3: 0x061C [0x03] ExtData[1]->WorkLocal[3] = 4294910296*
  4: 0x0621 [0x1A] CALL_SUBROUTINE(address=0x0A10)
  5: 0x0624 [0x27] REQ_SET(priority=0x80, entity_id=EventEntity, tag_num=0x0B)
  6: 0x062B [0x27] REQ_SET(priority=0x80, entity_id=EventEntity, tag_num=0x1C)
  7: 0x0632 [0x01] GOTO 0x0650
  8: 0x0635 [0x03] ExtData[1]->WorkLocal[1] = 0*
  9: 0x063A [0x03] ExtData[1]->WorkLocal[2] = 4294839296*
 10: 0x063F [0x1A] CALL_SUBROUTINE(address=0x0A10)
 11: 0x0642 [0x27] REQ_SET(priority=0x80, entity_id=EventEntity, tag_num=0x0B)
 12: 0x0649 [0x27] REQ_SET(priority=0x80, entity_id=EventEntity, tag_num=0x17)

SUBROUTINE_0650:
 13: 0x0650 [0x01] GOTO 0x0694
 14: 0x0653 [0x02] IF !(ExtData[1]->WorkLocal[1] == 0*) GOTO 0x0679
 15: 0x065B [0x03] ExtData[1]->WorkLocal[1] = 11*
 16: 0x0660 [0x03] ExtData[1]->WorkLocal[3] = 4294905296*
 17: 0x0665 [0x1A] CALL_SUBROUTINE(address=0x0A10)
 18: 0x0668 [0x27] REQ_SET(priority=0x80, entity_id=EventEntity, tag_num=0x0B)
 19: 0x066F [0x27] REQ_SET(priority=0x80, entity_id=EventEntity, tag_num=0x10)
 20: 0x0676 [0x01] GOTO 0x0694
 21: 0x0679 [0x03] ExtData[1]->WorkLocal[1] = 0*
 22: 0x067E [0x03] ExtData[1]->WorkLocal[2] = 4294839296*
 23: 0x0683 [0x1A] CALL_SUBROUTINE(address=0x0A10)
 24: 0x0686 [0x27] REQ_SET(priority=0x80, entity_id=EventEntity, tag_num=0x0B)
 25: 0x068D [0x27] REQ_SET(priority=0x80, entity_id=EventEntity, tag_num=0x17)

SUBROUTINE_0694:
 26: 0x0694 [0x00] END_REQSTACK()
```

### Event 65535.22

#### Metadata

| Field        | Value     |
|--------------|-----------|
| Entrypoint   | 0x0695    |
| Data Size    | 205 bytes |
| Instructions | 39        |

```
      00 01 02 03 04 05 06 07  08 09 0A 0B 0C 0D 0E 0F
      -- -- -- -- -- -- -- --  -- -- -- -- -- -- -- --
0690:                3E 07 17  09 80 00 07 02 01 00 05       >..........
06A0: 80 00 C2 06 03 01 00 1E  80 03 03 00 0C 80 1A 10  ................
06B0: 0A 27 80 F8 FF FF 7F 0B  27 80 F8 FF FF 7F 11 01  .'......'.......
06C0: FD 06 03 01 00 05 80 03  02 00 18 80 1A 10 0A 27  ...............'
06D0: 80 F8 FF FF 7F 0B 02 05  00 05 80 80 E6 06 03 04  ................
06E0: 17 06 80 01 F6 06 02 05  00 06 80 80 F6 06 03 05  ................
06F0: 17 06 80 01 F6 06 27 80  F8 FF FF 7F 1E 01 61 07  ......'.......a.
0700: 02 01 00 05 80 00 26 07  03 01 00 1E 80 03 03 00  ......&.........
0710: 0E 80 1A 10 0A 27 80 F8  FF FF 7F 0B 27 80 F8 FF  .....'......'...
0720: FF 7F 1D 01 61 07 03 01  00 05 80 03 02 00 18 80  ....a...........
0730: 1A 10 0A 27 80 F8 FF FF  7F 0B 02 05 00 05 80 80  ...'............
0740: 4A 07 03 04 17 06 80 01  5A 07 02 05 00 06 80 80  J.......Z.......
0750: 5A 07 03 05 17 06 80 01  5A 07 27 80 F8 FF FF 7F  Z.......Z.'.....
0760: 1E 00                                             ..              
```

#### Opcodes

```
  0: 0x0695 [0x3E] IF !(Work_Zone_1700[7] bit 20*) GOTO 0x0700
  1: 0x069C [0x02] IF !(ExtData[1]->WorkLocal[1] == 0*) GOTO 0x06C2
  2: 0x06A4 [0x03] ExtData[1]->WorkLocal[1] = 12*
  3: 0x06A9 [0x03] ExtData[1]->WorkLocal[3] = 4294905296*
  4: 0x06AE [0x1A] CALL_SUBROUTINE(address=0x0A10)
  5: 0x06B1 [0x27] REQ_SET(priority=0x80, entity_id=EventEntity, tag_num=0x0B)
  6: 0x06B8 [0x27] REQ_SET(priority=0x80, entity_id=EventEntity, tag_num=0x11)
  7: 0x06BF [0x01] GOTO 0x06FD
  8: 0x06C2 [0x03] ExtData[1]->WorkLocal[1] = 0*
  9: 0x06C7 [0x03] ExtData[1]->WorkLocal[2] = 4294838296*
 10: 0x06CC [0x1A] CALL_SUBROUTINE(address=0x0A10)
 11: 0x06CF [0x27] REQ_SET(priority=0x80, entity_id=EventEntity, tag_num=0x0B)
 12: 0x06D6 [0x02] IF !(ExtData[1]->WorkLocal[5] == 0*) GOTO 0x06E6
 13: 0x06DE [0x03] Work_Zone_1700[4] = 1*
 14: 0x06E3 [0x01] GOTO 0x06F6
 15: 0x06E6 [0x02] IF !(ExtData[1]->WorkLocal[5] == 1*) GOTO 0x06F6
 16: 0x06EE [0x03] Work_Zone_1700[5] = 1*
 17: 0x06F3 [0x01] GOTO 0x06F6

SUBROUTINE_06F6:
 18: 0x06F6 [0x27] REQ_SET(priority=0x80, entity_id=EventEntity, tag_num=0x1E)

SUBROUTINE_06FD:
 19: 0x06FD [0x01] GOTO 0x0761
 20: 0x0700 [0x02] IF !(ExtData[1]->WorkLocal[1] == 0*) GOTO 0x0726
 21: 0x0708 [0x03] ExtData[1]->WorkLocal[1] = 12*
 22: 0x070D [0x03] ExtData[1]->WorkLocal[3] = 4294910296*
 23: 0x0712 [0x1A] CALL_SUBROUTINE(address=0x0A10)
 24: 0x0715 [0x27] REQ_SET(priority=0x80, entity_id=EventEntity, tag_num=0x0B)
 25: 0x071C [0x27] REQ_SET(priority=0x80, entity_id=EventEntity, tag_num=0x1D)
 26: 0x0723 [0x01] GOTO 0x0761
 27: 0x0726 [0x03] ExtData[1]->WorkLocal[1] = 0*
 28: 0x072B [0x03] ExtData[1]->WorkLocal[2] = 4294838296*
 29: 0x0730 [0x1A] CALL_SUBROUTINE(address=0x0A10)
 30: 0x0733 [0x27] REQ_SET(priority=0x80, entity_id=EventEntity, tag_num=0x0B)
 31: 0x073A [0x02] IF !(ExtData[1]->WorkLocal[5] == 0*) GOTO 0x074A
 32: 0x0742 [0x03] Work_Zone_1700[4] = 1*
 33: 0x0747 [0x01] GOTO 0x075A
 34: 0x074A [0x02] IF !(ExtData[1]->WorkLocal[5] == 1*) GOTO 0x075A
 35: 0x0752 [0x03] Work_Zone_1700[5] = 1*
 36: 0x0757 [0x01] GOTO 0x075A

SUBROUTINE_075A:
 37: 0x075A [0x27] REQ_SET(priority=0x80, entity_id=EventEntity, tag_num=0x1E)

SUBROUTINE_0761:
 38: 0x0761 [0x00] END_REQSTACK()
```

### Event 65535.23

#### Metadata

| Field        | Value     |
|--------------|-----------|
| Entrypoint   | 0x0762    |
| Data Size    | 103 bytes |
| Instructions | 20        |

```
      00 01 02 03 04 05 06 07  08 09 0A 0B 0C 0D 0E 0F
      -- -- -- -- -- -- -- --  -- -- -- -- -- -- -- --
0760:       3E 07 17 0F 80 AD  07 02 01 00 05 80 00 8F    >.............
0770: 07 03 01 00 1F 80 03 03  00 0D 80 1A 10 0A 27 80  ..............'.
0780: F8 FF FF 7F 0B 27 80 F8  FF FF 7F 12 01 AA 07 03  .....'..........
0790: 01 00 05 80 03 02 00 10  80 1A 10 0A 27 80 F8 FF  ............'...
07A0: FF 7F 0B 27 80 F8 FF FF  7F 19 01 C8 07 03 01 00  ...'............
07B0: 05 80 03 02 00 10 80 1A  10 0A 27 80 F8 FF FF 7F  ..........'.....
07C0: 0B 27 80 F8 FF FF 7F 19  00                       .'.......       
```

#### Opcodes

```
  0: 0x0762 [0x3E] IF !(Work_Zone_1700[7] bit 18*) GOTO 0x07AD
  1: 0x0769 [0x02] IF !(ExtData[1]->WorkLocal[1] == 0*) GOTO 0x078F
  2: 0x0771 [0x03] ExtData[1]->WorkLocal[1] = 13*
  3: 0x0776 [0x03] ExtData[1]->WorkLocal[3] = 4294907796*
  4: 0x077B [0x1A] CALL_SUBROUTINE(address=0x0A10)
  5: 0x077E [0x27] REQ_SET(priority=0x80, entity_id=EventEntity, tag_num=0x0B)
  6: 0x0785 [0x27] REQ_SET(priority=0x80, entity_id=EventEntity, tag_num=0x12)
  7: 0x078C [0x01] GOTO 0x07AA
  8: 0x078F [0x03] ExtData[1]->WorkLocal[1] = 0*
  9: 0x0794 [0x03] ExtData[1]->WorkLocal[2] = 4294843296*
 10: 0x0799 [0x1A] CALL_SUBROUTINE(address=0x0A10)
 11: 0x079C [0x27] REQ_SET(priority=0x80, entity_id=EventEntity, tag_num=0x0B)
 12: 0x07A3 [0x27] REQ_SET(priority=0x80, entity_id=EventEntity, tag_num=0x19)

SUBROUTINE_07AA:
 13: 0x07AA [0x01] GOTO 0x07C8
 14: 0x07AD [0x03] ExtData[1]->WorkLocal[1] = 0*
 15: 0x07B2 [0x03] ExtData[1]->WorkLocal[2] = 4294843296*
 16: 0x07B7 [0x1A] CALL_SUBROUTINE(address=0x0A10)
 17: 0x07BA [0x27] REQ_SET(priority=0x80, entity_id=EventEntity, tag_num=0x0B)
 18: 0x07C1 [0x27] REQ_SET(priority=0x80, entity_id=EventEntity, tag_num=0x19)

SUBROUTINE_07C8:
 19: 0x07C8 [0x00] END_REQSTACK()
```

### Event 65535.24

#### Metadata

| Field        | Value     |
|--------------|-----------|
| Entrypoint   | 0x07C9    |
| Data Size    | 103 bytes |
| Instructions | 20        |

```
      00 01 02 03 04 05 06 07  08 09 0A 0B 0C 0D 0E 0F
      -- -- -- -- -- -- -- --  -- -- -- -- -- -- -- --
07C0:                             3E 07 17 0F 80 EE 07           >......
07D0: 03 01 00 05 80 03 02 00  11 80 1A 10 0A 27 80 F8  .............'..
07E0: FF FF 7F 0B 27 80 F8 FF  FF 7F 1A 01 2F 08 02 01  ....'......./...
07F0: 00 05 80 00 14 08 03 01  00 20 80 03 03 00 0D 80  ......... ......
0800: 1A 10 0A 27 80 F8 FF FF  7F 0B 27 80 F8 FF FF 7F  ...'......'.....
0810: 13 01 2F 08 03 01 00 05  80 03 02 00 11 80 1A 10  ../.............
0820: 0A 27 80 F8 FF FF 7F 0B  27 80 F8 FF FF 7F 1A 00  .'......'.......
```

#### Opcodes

```
  0: 0x07C9 [0x3E] IF !(Work_Zone_1700[7] bit 18*) GOTO 0x07EE
  1: 0x07D0 [0x03] ExtData[1]->WorkLocal[1] = 0*
  2: 0x07D5 [0x03] ExtData[1]->WorkLocal[2] = 4294842296*
  3: 0x07DA [0x1A] CALL_SUBROUTINE(address=0x0A10)
  4: 0x07DD [0x27] REQ_SET(priority=0x80, entity_id=EventEntity, tag_num=0x0B)
  5: 0x07E4 [0x27] REQ_SET(priority=0x80, entity_id=EventEntity, tag_num=0x1A)
  6: 0x07EB [0x01] GOTO 0x082F
  7: 0x07EE [0x02] IF !(ExtData[1]->WorkLocal[1] == 0*) GOTO 0x0814
  8: 0x07F6 [0x03] ExtData[1]->WorkLocal[1] = 14*
  9: 0x07FB [0x03] ExtData[1]->WorkLocal[3] = 4294907796*
 10: 0x0800 [0x1A] CALL_SUBROUTINE(address=0x0A10)
 11: 0x0803 [0x27] REQ_SET(priority=0x80, entity_id=EventEntity, tag_num=0x0B)
 12: 0x080A [0x27] REQ_SET(priority=0x80, entity_id=EventEntity, tag_num=0x13)
 13: 0x0811 [0x01] GOTO 0x082F
 14: 0x0814 [0x03] ExtData[1]->WorkLocal[1] = 0*
 15: 0x0819 [0x03] ExtData[1]->WorkLocal[2] = 4294842296*
 16: 0x081E [0x1A] CALL_SUBROUTINE(address=0x0A10)
 17: 0x0821 [0x27] REQ_SET(priority=0x80, entity_id=EventEntity, tag_num=0x0B)
 18: 0x0828 [0x27] REQ_SET(priority=0x80, entity_id=EventEntity, tag_num=0x1A)

SUBROUTINE_082F:
 19: 0x082F [0x00] END_REQSTACK()
```

### Event 65535.25

#### Metadata

| Field        | Value     |
|--------------|-----------|
| Entrypoint   | 0x0830    |
| Data Size    | 103 bytes |
| Instructions | 20        |

```
      00 01 02 03 04 05 06 07  08 09 0A 0B 0C 0D 0E 0F
      -- -- -- -- -- -- -- --  -- -- -- -- -- -- -- --
0830: 3E 07 17 12 80 7B 08 02  01 00 05 80 00 5D 08 03  >....{.......]..
0840: 01 00 21 80 03 03 00 0D  80 1A 10 0A 27 80 F8 FF  ..!.........'...
0850: FF 7F 0B 27 80 F8 FF FF  7F 14 01 78 08 03 01 00  ...'.......x....
0860: 05 80 03 02 00 13 80 1A  10 0A 27 80 F8 FF FF 7F  ..........'.....
0870: 0B 27 80 F8 FF FF 7F 1B  01 96 08 03 01 00 05 80  .'..............
0880: 03 02 00 13 80 1A 10 0A  27 80 F8 FF FF 7F 0B 27  ........'......'
0890: 80 F8 FF FF 7F 1B 00                              .......         
```

#### Opcodes

```
  0: 0x0830 [0x3E] IF !(Work_Zone_1700[7] bit 19*) GOTO 0x087B
  1: 0x0837 [0x02] IF !(ExtData[1]->WorkLocal[1] == 0*) GOTO 0x085D
  2: 0x083F [0x03] ExtData[1]->WorkLocal[1] = 15*
  3: 0x0844 [0x03] ExtData[1]->WorkLocal[3] = 4294907796*
  4: 0x0849 [0x1A] CALL_SUBROUTINE(address=0x0A10)
  5: 0x084C [0x27] REQ_SET(priority=0x80, entity_id=EventEntity, tag_num=0x0B)
  6: 0x0853 [0x27] REQ_SET(priority=0x80, entity_id=EventEntity, tag_num=0x14)
  7: 0x085A [0x01] GOTO 0x0878
  8: 0x085D [0x03] ExtData[1]->WorkLocal[1] = 0*
  9: 0x0862 [0x03] ExtData[1]->WorkLocal[2] = 4294841296*
 10: 0x0867 [0x1A] CALL_SUBROUTINE(address=0x0A10)
 11: 0x086A [0x27] REQ_SET(priority=0x80, entity_id=EventEntity, tag_num=0x0B)
 12: 0x0871 [0x27] REQ_SET(priority=0x80, entity_id=EventEntity, tag_num=0x1B)

SUBROUTINE_0878:
 13: 0x0878 [0x01] GOTO 0x0896
 14: 0x087B [0x03] ExtData[1]->WorkLocal[1] = 0*
 15: 0x0880 [0x03] ExtData[1]->WorkLocal[2] = 4294841296*
 16: 0x0885 [0x1A] CALL_SUBROUTINE(address=0x0A10)
 17: 0x0888 [0x27] REQ_SET(priority=0x80, entity_id=EventEntity, tag_num=0x0B)
 18: 0x088F [0x27] REQ_SET(priority=0x80, entity_id=EventEntity, tag_num=0x1B)

SUBROUTINE_0896:
 19: 0x0896 [0x00] END_REQSTACK()
```

### Event 65535.26

#### Metadata

| Field        | Value     |
|--------------|-----------|
| Entrypoint   | 0x0897    |
| Data Size    | 103 bytes |
| Instructions | 20        |

```
      00 01 02 03 04 05 06 07  08 09 0A 0B 0C 0D 0E 0F
      -- -- -- -- -- -- -- --  -- -- -- -- -- -- -- --
0890:                      3E  07 17 12 80 BC 08 03 01         >........
08A0: 00 05 80 03 02 00 14 80  1A 10 0A 27 80 F8 FF FF  ...........'....
08B0: 7F 0B 27 80 F8 FF FF 7F  1C 01 FD 08 02 01 00 05  ..'.............
08C0: 80 00 E2 08 03 01 00 22  80 03 03 00 0D 80 1A 10  ......."........
08D0: 0A 27 80 F8 FF FF 7F 0B  27 80 F8 FF FF 7F 15 01  .'......'.......
08E0: FD 08 03 01 00 05 80 03  02 00 14 80 1A 10 0A 27  ...............'
08F0: 80 F8 FF FF 7F 0B 27 80  F8 FF FF 7F 1C 00        ......'.......  
```

#### Opcodes

```
  0: 0x0897 [0x3E] IF !(Work_Zone_1700[7] bit 19*) GOTO 0x08BC
  1: 0x089E [0x03] ExtData[1]->WorkLocal[1] = 0*
  2: 0x08A3 [0x03] ExtData[1]->WorkLocal[2] = 4294840296*
  3: 0x08A8 [0x1A] CALL_SUBROUTINE(address=0x0A10)
  4: 0x08AB [0x27] REQ_SET(priority=0x80, entity_id=EventEntity, tag_num=0x0B)
  5: 0x08B2 [0x27] REQ_SET(priority=0x80, entity_id=EventEntity, tag_num=0x1C)
  6: 0x08B9 [0x01] GOTO 0x08FD
  7: 0x08BC [0x02] IF !(ExtData[1]->WorkLocal[1] == 0*) GOTO 0x08E2
  8: 0x08C4 [0x03] ExtData[1]->WorkLocal[1] = 16*
  9: 0x08C9 [0x03] ExtData[1]->WorkLocal[3] = 4294907796*
 10: 0x08CE [0x1A] CALL_SUBROUTINE(address=0x0A10)
 11: 0x08D1 [0x27] REQ_SET(priority=0x80, entity_id=EventEntity, tag_num=0x0B)
 12: 0x08D8 [0x27] REQ_SET(priority=0x80, entity_id=EventEntity, tag_num=0x15)
 13: 0x08DF [0x01] GOTO 0x08FD
 14: 0x08E2 [0x03] ExtData[1]->WorkLocal[1] = 0*
 15: 0x08E7 [0x03] ExtData[1]->WorkLocal[2] = 4294840296*
 16: 0x08EC [0x1A] CALL_SUBROUTINE(address=0x0A10)
 17: 0x08EF [0x27] REQ_SET(priority=0x80, entity_id=EventEntity, tag_num=0x0B)
 18: 0x08F6 [0x27] REQ_SET(priority=0x80, entity_id=EventEntity, tag_num=0x1C)

SUBROUTINE_08FD:
 19: 0x08FD [0x00] END_REQSTACK()
```

### Event 65535.27

#### Metadata

| Field        | Value     |
|--------------|-----------|
| Entrypoint   | 0x08FE    |
| Data Size    | 103 bytes |
| Instructions | 20        |

```
      00 01 02 03 04 05 06 07  08 09 0A 0B 0C 0D 0E 0F
      -- -- -- -- -- -- -- --  -- -- -- -- -- -- -- --
08F0:                                            3E 07                >.
0900: 17 09 80 49 09 02 01 00  05 80 00 2B 09 03 01 00  ...I.......+....
0910: 23 80 03 03 00 0D 80 1A  10 0A 27 80 F8 FF FF 7F  #.........'.....
0920: 0B 27 80 F8 FF FF 7F 16  01 46 09 03 01 00 05 80  .'.......F......
0930: 03 02 00 15 80 1A 10 0A  27 80 F8 FF FF 7F 0B 27  ........'......'
0940: 80 F8 FF FF 7F 1D 01 64  09 03 01 00 05 80 03 02  .......d........
0950: 00 15 80 1A 10 0A 27 80  F8 FF FF 7F 0B 27 80 F8  ......'......'..
0960: FF FF 7F 1D 00                                    .....           
```

#### Opcodes

```
  0: 0x08FE [0x3E] IF !(Work_Zone_1700[7] bit 20*) GOTO 0x0949
  1: 0x0905 [0x02] IF !(ExtData[1]->WorkLocal[1] == 0*) GOTO 0x092B
  2: 0x090D [0x03] ExtData[1]->WorkLocal[1] = 17*
  3: 0x0912 [0x03] ExtData[1]->WorkLocal[3] = 4294907796*
  4: 0x0917 [0x1A] CALL_SUBROUTINE(address=0x0A10)
  5: 0x091A [0x27] REQ_SET(priority=0x80, entity_id=EventEntity, tag_num=0x0B)
  6: 0x0921 [0x27] REQ_SET(priority=0x80, entity_id=EventEntity, tag_num=0x16)
  7: 0x0928 [0x01] GOTO 0x0946
  8: 0x092B [0x03] ExtData[1]->WorkLocal[1] = 0*
  9: 0x0930 [0x03] ExtData[1]->WorkLocal[2] = 4294839296*
 10: 0x0935 [0x1A] CALL_SUBROUTINE(address=0x0A10)
 11: 0x0938 [0x27] REQ_SET(priority=0x80, entity_id=EventEntity, tag_num=0x0B)
 12: 0x093F [0x27] REQ_SET(priority=0x80, entity_id=EventEntity, tag_num=0x1D)

SUBROUTINE_0946:
 13: 0x0946 [0x01] GOTO 0x0964
 14: 0x0949 [0x03] ExtData[1]->WorkLocal[1] = 0*
 15: 0x094E [0x03] ExtData[1]->WorkLocal[2] = 4294839296*
 16: 0x0953 [0x1A] CALL_SUBROUTINE(address=0x0A10)
 17: 0x0956 [0x27] REQ_SET(priority=0x80, entity_id=EventEntity, tag_num=0x0B)
 18: 0x095D [0x27] REQ_SET(priority=0x80, entity_id=EventEntity, tag_num=0x1D)

SUBROUTINE_0964:
 19: 0x0964 [0x00] END_REQSTACK()
```

### Event 65535.28

#### Metadata

| Field        | Value     |
|--------------|-----------|
| Entrypoint   | 0x0965    |
| Data Size    | 167 bytes |
| Instructions | 32        |

```
      00 01 02 03 04 05 06 07  08 09 0A 0B 0C 0D 0E 0F
      -- -- -- -- -- -- -- --  -- -- -- -- -- -- -- --
0960:                3E 07 17  09 80 AA 09 03 01 00 05       >..........
0970: 80 03 02 00 18 80 1A 10  0A 27 80 F8 FF FF 7F 0B  .........'......
0980: 02 05 00 05 80 80 90 09  03 04 17 04 80 01 A0 09  ................
0990: 02 05 00 06 80 80 A0 09  03 05 17 04 80 01 A0 09  ................
09A0: 27 80 F8 FF FF 7F 1E 01  0B 0A 02 01 00 05 80 00  '...............
09B0: D0 09 03 01 00 0F 80 03  03 00 0D 80 1A 10 0A 27  ...............'
09C0: 80 F8 FF FF 7F 0B 27 80  F8 FF FF 7F 17 01 0B 0A  ......'.........
09D0: 03 01 00 05 80 03 02 00  18 80 27 80 F8 FF FF 7F  ..........'.....
09E0: 0B 1A 10 0A 02 05 00 05  80 80 F4 09 03 04 17 04  ................
09F0: 80 01 04 0A 02 05 00 06  80 80 04 0A 03 05 17 04  ................
0A00: 80 01 04 0A 27 80 F8 FF  FF 7F 1E 00              ....'.......    
```

#### Opcodes

```
  0: 0x0965 [0x3E] IF !(Work_Zone_1700[7] bit 20*) GOTO 0x09AA
  1: 0x096C [0x03] ExtData[1]->WorkLocal[1] = 0*
  2: 0x0971 [0x03] ExtData[1]->WorkLocal[2] = 4294838296*
  3: 0x0976 [0x1A] CALL_SUBROUTINE(address=0x0A10)
  4: 0x0979 [0x27] REQ_SET(priority=0x80, entity_id=EventEntity, tag_num=0x0B)
  5: 0x0980 [0x02] IF !(ExtData[1]->WorkLocal[5] == 0*) GOTO 0x0990
  6: 0x0988 [0x03] Work_Zone_1700[4] = 2*
  7: 0x098D [0x01] GOTO 0x09A0
  8: 0x0990 [0x02] IF !(ExtData[1]->WorkLocal[5] == 1*) GOTO 0x09A0
  9: 0x0998 [0x03] Work_Zone_1700[5] = 2*
 10: 0x099D [0x01] GOTO 0x09A0

SUBROUTINE_09A0:
 11: 0x09A0 [0x27] REQ_SET(priority=0x80, entity_id=EventEntity, tag_num=0x1E)
 12: 0x09A7 [0x01] GOTO 0x0A0B
 13: 0x09AA [0x02] IF !(ExtData[1]->WorkLocal[1] == 0*) GOTO 0x09D0
 14: 0x09B2 [0x03] ExtData[1]->WorkLocal[1] = 18*
 15: 0x09B7 [0x03] ExtData[1]->WorkLocal[3] = 4294907796*
 16: 0x09BC [0x1A] CALL_SUBROUTINE(address=0x0A10)
 17: 0x09BF [0x27] REQ_SET(priority=0x80, entity_id=EventEntity, tag_num=0x0B)
 18: 0x09C6 [0x27] REQ_SET(priority=0x80, entity_id=EventEntity, tag_num=0x17)
 19: 0x09CD [0x01] GOTO 0x0A0B
 20: 0x09D0 [0x03] ExtData[1]->WorkLocal[1] = 0*
 21: 0x09D5 [0x03] ExtData[1]->WorkLocal[2] = 4294838296*
 22: 0x09DA [0x27] REQ_SET(priority=0x80, entity_id=EventEntity, tag_num=0x0B)
 23: 0x09E1 [0x1A] CALL_SUBROUTINE(address=0x0A10)
 24: 0x09E4 [0x02] IF !(ExtData[1]->WorkLocal[5] == 0*) GOTO 0x09F4
 25: 0x09EC [0x03] Work_Zone_1700[4] = 2*
 26: 0x09F1 [0x01] GOTO 0x0A04
 27: 0x09F4 [0x02] IF !(ExtData[1]->WorkLocal[5] == 1*) GOTO 0x0A04
 28: 0x09FC [0x03] Work_Zone_1700[5] = 2*
 29: 0x0A01 [0x01] GOTO 0x0A04

SUBROUTINE_0A04:
 30: 0x0A04 [0x27] REQ_SET(priority=0x80, entity_id=EventEntity, tag_num=0x1E)

SUBROUTINE_0A0B:
 31: 0x0A0B [0x00] END_REQSTACK()
```

### Event 65535.29

#### Metadata

| Field        | Value    |
|--------------|----------|
| Entrypoint   | 0x0A0C   |
| Data Size    | 53 bytes |
| Instructions | 2        |

```
      00 01 02 03 04 05 06 07  08 09 0A 0B 0C 0D 0E 0F
      -- -- -- -- -- -- -- --  -- -- -- -- -- -- -- --
0A00:                                      0B 08 17 00              ....
0A10: 02 05 00 05 80 80 20 0A  03 04 17 01 00 01 40 0A  ...... .......@.
0A20: 02 05 00 06 80 80 30 0A  03 05 17 01 00 01 40 0A  ......0.......@.
0A30: 02 05 00 04 80 80 40 0A  03 06 17 01 00 01 40 0A  ......@.......@.
0A40: 1B                                                .               
```

#### Opcodes

```
  0: 0x0A0C [0x0B] Work_Zone_1700[8]++
  1: 0x0A0F [0x00] END_REQSTACK()
```

#### Data or dead code:

```
# Dead code (unreachable instructions):
     0x0A10 [0x02] IF !(ExtData[1]->WorkLocal[5] == 0*) GOTO 0x0A20
     0x0A18 [0x03] Work_Zone_1700[4] = ExtData[1]->WorkLocal[1]
     0x0A1D [0x01] GOTO 0x0A40
     0x0A20 [0x02] IF !(ExtData[1]->WorkLocal[5] == 1*) GOTO 0x0A30
     0x0A28 [0x03] Work_Zone_1700[5] = ExtData[1]->WorkLocal[1]
     0x0A2D [0x01] GOTO 0x0A40
     0x0A30 [0x02] IF !(ExtData[1]->WorkLocal[5] == 2*) GOTO 0x0A40
     0x0A38 [0x03] Work_Zone_1700[6] = ExtData[1]->WorkLocal[1]
     0x0A3D [0x01] GOTO 0x0A40
     0x0A40 [0x1B] RETURN
```
