# 0x7FFFFFF0 - Zone Events

## Common Data

| Field            | Value                  |
|------------------|------------------------|
| Zone             | Bastok Mines (ID: 234) |
| Block Size       | 21468 bytes            |
| Total Events     | 132                    |
| References Count | 789                    |

## List of Events

| Event ID                     | Entrypoint   |   Size |   Instructions |
|------------------------------|--------------|--------|----------------|
| [65535](#event-65535)        | 0x0000       |      1 |              1 |
| [65534](#event-65534)        | 0x0001       |      1 |              1 |
| [65535.1](#event-655351)     | 0x0002       |     23 |              5 |
| [65535.2](#event-655352)     | 0x0019       |     14 |              4 |
| [65535.3](#event-655353)     | 0x0027       |     23 |              5 |
| [65535.4](#event-655354)     | 0x003E       |     23 |              5 |
| [65535.5](#event-655355)     | 0x0055       |     28 |              6 |
| [45](#event-45)              | 0x0071       |   1340 |            185 |
| [90](#event-90)              | 0x05AD       |      1 |              1 |
| [91](#event-91)              | 0x05AE       |      1 |              1 |
| [65535.6](#event-655356)     | 0x05AF       |     10 |              2 |
| [65535.7](#event-655357)     | 0x05B9       |     53 |             11 |
| [65535.8](#event-655358)     | 0x05EE       |     15 |              3 |
| [1](#event-1)                | 0x05FD       |      8 |              3 |
| [93](#event-93)              | 0x0605       |    602 |             73 |
| [94](#event-94)              | 0x085F       |    690 |             92 |
| [96](#event-96)              | 0x0B11       |    340 |             49 |
| [65535.9](#event-655359)     | 0x0C65       |     55 |              9 |
| [65535.10](#event-6553510)   | 0x0C9C       |     14 |              4 |
| [65535.11](#event-6553511)   | 0x0CAA       |     55 |              9 |
| [65535.12](#event-6553512)   | 0x0CE1       |     14 |              4 |
| [65535.13](#event-6553513)   | 0x0CEF       |     55 |              9 |
| [65535.14](#event-6553514)   | 0x0D26       |     14 |              4 |
| [65535.15](#event-6553515)   | 0x0D34       |     97 |             13 |
| [99](#event-99)              | 0x0D95       |    746 |            104 |
| [65535.16](#event-6553516)   | 0x107F       |     10 |              2 |
| [65535.17](#event-6553517)   | 0x1089       |     20 |              3 |
| [161](#event-161)            | 0x109D       |    291 |             45 |
| [162](#event-162)            | 0x11C0       |    642 |             91 |
| [164](#event-164)            | 0x1442       |    695 |             87 |
| [171](#event-171)            | 0x16F9       |    726 |             93 |
| [172](#event-172)            | 0x19CF       |    308 |             44 |
| [65535.18](#event-6553518)   | 0x1B03       |     20 |              3 |
| [65535.19](#event-6553519)   | 0x1B17       |     20 |              5 |
| [65535.20](#event-6553520)   | 0x1B2B       |     20 |              5 |
| [65535.21](#event-6553521)   | 0x1B3F       |     14 |              4 |
| [65535.22](#event-6553522)   | 0x1B4D       |     20 |              5 |
| [65535.23](#event-6553523)   | 0x1B61       |     10 |              2 |
| [175](#event-175)            | 0x1B6B       |      1 |              1 |
| [65535.24](#event-6553524)   | 0x1B6C       |    163 |             17 |
| [176](#event-176)            | 0x1C0F       |   2339 |            283 |
| [177](#event-177)            | 0x2532       |    966 |            131 |
| [180](#event-180)            | 0x28F8       |   1264 |            155 |
| [182](#event-182)            | 0x2DE8       |   1390 |            191 |
| [183](#event-183)            | 0x3356       |      1 |              1 |
| [184](#event-184)            | 0x3357       |    172 |             25 |
| [65535.25](#event-6553525)   | 0x3403       |     10 |              2 |
| [65535.26](#event-6553526)   | 0x340D       |     15 |              5 |
| [65535.27](#event-6553527)   | 0x341C       |     27 |              7 |
| [190](#event-190)            | 0x3437       |    157 |             27 |
| [193](#event-193)            | 0x34D4       |    139 |             26 |
| [194](#event-194)            | 0x355F       |    246 |             41 |
| [65535.28](#event-6553528)   | 0x3655       |     10 |              2 |
| [65535.29](#event-6553529)   | 0x365F       |     10 |              2 |
| [65535.30](#event-6553530)   | 0x3669       |     10 |              2 |
| [65535.31](#event-6553531)   | 0x3673       |     10 |              2 |
| [65535.32](#event-6553532)   | 0x367D       |     10 |              2 |
| [65535.33](#event-6553533)   | 0x3687       |     10 |              2 |
| [65535.34](#event-6553534)   | 0x3691       |     10 |              2 |
| [65535.35](#event-6553535)   | 0x369B       |     10 |              2 |
| [65535.36](#event-6553536)   | 0x36A5       |     10 |              2 |
| [65535.37](#event-6553537)   | 0x36AF       |     10 |              2 |
| [65535.38](#event-6553538)   | 0x36B9       |     10 |              2 |
| [65535.39](#event-6553539)   | 0x36C3       |     10 |              2 |
| [65535.40](#event-6553540)   | 0x36CD       |     10 |              2 |
| [65535.41](#event-6553541)   | 0x36D7       |     10 |              2 |
| [65535.42](#event-6553542)   | 0x36E1       |     10 |              2 |
| [65535.43](#event-6553543)   | 0x36EB       |     10 |              2 |
| [65535.44](#event-6553544)   | 0x36F5       |     10 |              2 |
| [65535.45](#event-6553545)   | 0x36FF       |     10 |              2 |
| [65535.46](#event-6553546)   | 0x3709       |     10 |              2 |
| [65535.47](#event-6553547)   | 0x3713       |     10 |              2 |
| [65535.48](#event-6553548)   | 0x371D       |     12 |              3 |
| [65535.49](#event-6553549)   | 0x3729       |     10 |              2 |
| [65535.50](#event-6553550)   | 0x3733       |      6 |              2 |
| [65535.51](#event-6553551)   | 0x3739       |      6 |              2 |
| [65535.52](#event-6553552)   | 0x373F       |      6 |              2 |
| [65535.53](#event-6553553)   | 0x3745       |     10 |              2 |
| [65535.54](#event-6553554)   | 0x374F       |     10 |              2 |
| [65535.55](#event-6553555)   | 0x3759       |     10 |              2 |
| [502](#event-502)            | 0x3763       |   1763 |            226 |
| [65535.56](#event-6553556)   | 0x3E46       |      1 |              1 |
| [65535.57](#event-6553557)   | 0x3E47       |      1 |              1 |
| [514](#event-514)            | 0x3E48       |    249 |             30 |
| [65535.58](#event-6553558)   | 0x3F41       |     10 |              2 |
| [65535.59](#event-6553559)   | 0x3F4B       |     43 |              8 |
| [65535.60](#event-6553560)   | 0x3F76       |     15 |              5 |
| [65535.61](#event-6553561)   | 0x3F85       |     41 |              9 |
| [65535.62](#event-6553562)   | 0x3FAE       |     29 |              5 |
| [65535.63](#event-6553563)   | 0x3FCB       |     24 |              4 |
| [65535.64](#event-6553564)   | 0x3FE3       |     24 |              4 |
| [65535.65](#event-6553565)   | 0x3FFB       |     15 |              3 |
| [65535.66](#event-6553566)   | 0x400A       |     15 |              3 |
| [65535.67](#event-6553567)   | 0x4019       |     39 |              9 |
| [65535.68](#event-6553568)   | 0x4040       |     15 |              3 |
| [65535.69](#event-6553569)   | 0x404F       |     19 |              5 |
| [65535.70](#event-6553570)   | 0x4062       |     15 |              3 |
| [65535.71](#event-6553571)   | 0x4071       |     19 |              5 |
| [65535.72](#event-6553572)   | 0x4084       |     15 |              3 |
| [65535.73](#event-6553573)   | 0x4093       |     19 |              5 |
| [65535.74](#event-6553574)   | 0x40A6       |     15 |              3 |
| [65535.75](#event-6553575)   | 0x40B5       |     19 |              5 |
| [65535.76](#event-6553576)   | 0x40C8       |     15 |              3 |
| [65535.77](#event-6553577)   | 0x40D7       |     19 |              5 |
| [65535.78](#event-6553578)   | 0x40EA       |     15 |              3 |
| [65535.79](#event-6553579)   | 0x40F9       |     15 |              3 |
| [65535.80](#event-6553580)   | 0x4108       |     15 |              3 |
| [65535.81](#event-6553581)   | 0x4117       |     19 |              5 |
| [65535.82](#event-6553582)   | 0x412A       |     24 |              6 |
| [65535.83](#event-6553583)   | 0x4142       |     14 |              4 |
| [65535.84](#event-6553584)   | 0x4150       |     29 |              7 |
| [65535.85](#event-6553585)   | 0x416D       |     37 |              9 |
| [65535.86](#event-6553586)   | 0x4192       |     14 |              4 |
| [65535.87](#event-6553587)   | 0x41A0       |     19 |              5 |
| [65535.88](#event-6553588)   | 0x41B3       |     27 |              7 |
| [65535.89](#event-6553589)   | 0x41CE       |     14 |              4 |
| [65535.90](#event-6553590)   | 0x41DC       |     10 |              2 |
| [65535.91](#event-6553591)   | 0x41E6       |     19 |              5 |
| [65535.92](#event-6553592)   | 0x41F9       |     15 |              3 |
| [65535.93](#event-6553593)   | 0x4208       |     15 |              3 |
| [65535.94](#event-6553594)   | 0x4217       |     15 |              3 |
| [65535.95](#event-6553595)   | 0x4226       |     15 |              3 |
| [65535.96](#event-6553596)   | 0x4235       |     37 |              5 |
| [65535.97](#event-6553597)   | 0x425A       |    185 |             37 |
| [65535.98](#event-6553598)   | 0x4313       |     14 |              4 |
| [656](#event-656)            | 0x4321       |     46 |              8 |
| [65535.99](#event-6553599)   | 0x434F       |     24 |              4 |
| [65535.100](#event-65535100) | 0x4367       |     24 |              4 |
| [65535.101](#event-65535101) | 0x437F       |     29 |              5 |
| [65535.102](#event-65535102) | 0x439C       |    222 |             26 |
| [65535.103](#event-65535103) | 0x447A       |    222 |             26 |
| [65535.104](#event-65535104) | 0x4558       |     15 |              5 |

## DAT References (imed_data)

|   Index | Hex Value   |   Dec Value |
|---------|-------------|-------------|
|       0 | 0x000D      |          13 |
|       1 | 0xFFFFB945  |  4294949189 |
|       2 | 0xFFFDE4F0  |  4294829296 |
|       3 | 0xFFFFFA24  |  4294965796 |
|       4 | 0x0BE5      |        3045 |
|       5 | 0xFFFFBCA4  |  4294950052 |
|       6 | 0xFFFE1608  |  4294841864 |
|       7 | 0xFFFFFC18  |  4294966296 |
|       8 | 0xFFFFA456  |  4294943830 |
|       9 | 0xFFFE4BD5  |  4294855637 |
|      10 | 0xFFFF4480  |  4294919296 |
|      11 | 0xFFFFA81C  |  4294944796 |
|      12 | 0x0000      |           0 |
|      13 | 0x0BB8      |        3000 |
|      14 | 0xFFFFC180  |  4294951296 |
|      15 | 0xFFFF3954  |  4294916436 |
|      16 | 0x386A      |       14442 |
|      17 | 0x0C85      |        3205 |
|      18 | 0xFFFF39B8  |  4294916536 |
|      19 | 0x5924      |       22820 |
|      20 | 0xFFFF4D77  |  4294921591 |
|      21 | 0x52D2      |       21202 |
|      22 | 0xFFFF4CA7  |  4294921383 |
|      23 | 0x58DC      |       22748 |
|      24 | 0x0109      |         265 |
|      25 | 0x001E      |          30 |
|      26 | 0x00C8      |         200 |
|      27 | 0x0003      |           3 |
|      28 | 0x007A      |         122 |
|      29 | 0x11675     |       71285 |
|      30 | 0x7B2E      |       31534 |
|      31 | 0xFFFFFFA2  |  4294967202 |
|      32 | 0x0D62      |        3426 |
|      33 | 0x0086      |         134 |
|      34 | 0x29B2      |       10674 |
|      35 | 0x003C      |          60 |
|      36 | 0x29B3      |       10675 |
|      37 | 0x29B4      |       10676 |
|      38 | 0x29B5      |       10677 |
|      39 | 0x000F      |          15 |
|      40 | 0x29B6      |       10678 |
|      41 | 0x009B      |         155 |
|      42 | 0x29B7      |       10679 |
|      43 | 0x29B8      |       10680 |
|      44 | 0x000A      |          10 |
|      45 | 0x29B9      |       10681 |
|      46 | 0x29BA      |       10682 |
|      47 | 0x29BB      |       10683 |
|      48 | 0x29BC      |       10684 |
|      49 | 0x29BD      |       10685 |
|      50 | 0x29BE      |       10686 |
|      51 | 0x29BF      |       10687 |
|      52 | 0x29C0      |       10688 |
|      53 | 0x29C1      |       10689 |
|      54 | 0x29C2      |       10690 |
|      55 | 0x0064      |         100 |
|      56 | 0x29C3      |       10691 |
|      57 | 0x29C4      |       10692 |
|      58 | 0x29C5      |       10693 |
|      59 | 0x29C6      |       10694 |
|      60 | 0x29C8      |       10696 |
|      61 | 0x29C9      |       10697 |
|      62 | 0x29CA      |       10698 |
|      63 | 0x29CB      |       10699 |
|      64 | 0x29CC      |       10700 |
|      65 | 0x0002      |           2 |
|      66 | 0x29CD      |       10701 |
|      67 | 0x29CE      |       10702 |
|      68 | 0x29CF      |       10703 |
|      69 | 0x29D0      |       10704 |
|      70 | 0x29D1      |       10705 |
|      71 | 0x29D2      |       10706 |
|      72 | 0x0096      |         150 |
|      73 | 0x29D3      |       10707 |
|      74 | 0x0098      |         152 |
|      75 | 0x00C9      |         201 |
|      76 | 0x39DA      |       14810 |
|      77 | 0xFFFFC59A  |  4294952346 |
|      78 | 0x1B49      |        6985 |
|      79 | 0x0FC3      |        4035 |
|      80 | 0x3872      |       14450 |
|      81 | 0xFFFFD0B0  |  4294955184 |
|      82 | 0x1B50      |        6992 |
|      83 | 0x3667      |       13927 |
|      84 | 0xFFFFDD8F  |  4294958479 |
|      85 | 0x1B57      |        6999 |
|      86 | 0x35AD      |       13741 |
|      87 | 0xFFFFE476  |  4294960246 |
|      88 | 0x3B9D      |       15261 |
|      89 | 0xFFFFCB86  |  4294953862 |
|      90 | 0x019A      |         410 |
|      91 | 0x3081      |       12417 |
|      92 | 0x1085      |        4229 |
|      93 | 0x2CCC      |       11468 |
|      94 | 0x029D      |         669 |
|      95 | 0x2975      |       10613 |
|      96 | 0x0078      |         120 |
|      97 | 0x2976      |       10614 |
|      98 | 0x005A      |          90 |
|      99 | 0x2977      |       10615 |
|     100 | 0x2978      |       10616 |
|     101 | 0x2979      |       10617 |
|     102 | 0x297A      |       10618 |
|     103 | 0x297B      |       10619 |
|     104 | 0x297C      |       10620 |
|     105 | 0x297D      |       10621 |
|     106 | 0x297E      |       10622 |
|     107 | 0x002D      |          45 |
|     108 | 0x297F      |       10623 |
|     109 | 0x2980      |       10624 |
|     110 | 0x3082      |       12418 |
|     111 | 0x1413      |        5139 |
|     112 | 0x30B1      |       12465 |
|     113 | 0x0443      |        1091 |
|     114 | 0x2981      |       10625 |
|     115 | 0x2982      |       10626 |
|     116 | 0x2983      |       10627 |
|     117 | 0x2984      |       10628 |
|     118 | 0x2985      |       10629 |
|     119 | 0x0014      |          20 |
|     120 | 0x2986      |       10630 |
|     121 | 0x2987      |       10631 |
|     122 | 0x2988      |       10632 |
|     123 | 0x0092      |         146 |
|     124 | 0x2989      |       10633 |
|     125 | 0x298A      |       10634 |
|     126 | 0x298B      |       10635 |
|     127 | 0x298C      |       10636 |
|     128 | 0x298D      |       10637 |
|     129 | 0x298E      |       10638 |
|     130 | 0x006C      |         108 |
|     131 | 0x010C      |         268 |
|     132 | 0x2A1C      |       10780 |
|     133 | 0xFFFFD4F0  |  4294956272 |
|     134 | 0xFFFFE765  |  4294960997 |
|     135 | 0x0E6E      |        3694 |
|     136 | 0x2A1D      |       10781 |
|     137 | 0xFFFFDBCB  |  4294958027 |
|     138 | 0xFFFFE847  |  4294961223 |
|     139 | 0x2A1E      |       10782 |
|     140 | 0x2A1F      |       10783 |
|     141 | 0x0034      |          52 |
|     142 | 0x2A20      |       10784 |
|     143 | 0x0050      |          80 |
|     144 | 0x2A21      |       10785 |
|     145 | 0x0032      |          50 |
|     146 | 0x2A22      |       10786 |
|     147 | 0xAB4F      |       43855 |
|     148 | 0xFFFE56AD  |  4294858413 |
|     149 | 0x02EE      |         750 |
|     150 | 0x046F      |        1135 |
|     151 | 0x00CA      |         202 |
|     152 | 0xAB83      |       43907 |
|     153 | 0xFFFE522A  |  4294857258 |
|     154 | 0x055E      |        1374 |
|     155 | 0xAD44      |       44356 |
|     156 | 0xFFFE5015  |  4294856725 |
|     157 | 0xAF92      |       44946 |
|     158 | 0xFFFE4F13  |  4294856467 |
|     159 | 0x98F7      |       39159 |
|     160 | 0xFFFE569B  |  4294858395 |
|     161 | 0x02ED      |         749 |
|     162 | 0x0524      |        1316 |
|     163 | 0x98B3      |       39091 |
|     164 | 0xFFFE51D5  |  4294857173 |
|     165 | 0x9AE0      |       39648 |
|     166 | 0xFFFE4FBD  |  4294856637 |
|     167 | 0x9D46      |       40262 |
|     168 | 0xFFFE4F71  |  4294856561 |
|     169 | 0x84A0      |       33952 |
|     170 | 0xFFFE56F5  |  4294858485 |
|     171 | 0x0316      |         790 |
|     172 | 0x84FE      |       34046 |
|     173 | 0xFFFE52D2  |  4294857426 |
|     174 | 0x8673      |       34419 |
|     175 | 0xFFFE5075  |  4294856821 |
|     176 | 0x89DE      |       35294 |
|     177 | 0xFFFE4EE8  |  4294856424 |
|     178 | 0x001B      |          27 |
|     179 | 0xB62B      |       46635 |
|     180 | 0xFFFE3AFA  |  4294851322 |
|     181 | 0xC893      |       51347 |
|     182 | 0xFFFE38E5  |  4294850789 |
|     183 | 0xCFC9      |       53193 |
|     184 | 0xFFFE3115  |  4294848789 |
|     185 | 0xFFFDF325  |  4294832933 |
|     186 | 0x010B      |         267 |
|     187 | 0xC931      |       51505 |
|     188 | 0xFFFF74A8  |  4294931624 |
|     189 | 0xFFFFFFC5  |  4294967237 |
|     190 | 0x006B      |         107 |
|     191 | 0x2A23      |       10787 |
|     192 | 0x007F      |         127 |
|     193 | 0x2A24      |       10788 |
|     194 | 0x2A25      |       10789 |
|     195 | 0x2A26      |       10790 |
|     196 | 0x2A27      |       10791 |
|     197 | 0x2A28      |       10792 |
|     198 | 0x2A29      |       10793 |
|     199 | 0x2A2A      |       10794 |
|     200 | 0x0708      |        1800 |
|     201 | 0x2A2B      |       10795 |
|     202 | 0x2A2C      |       10796 |
|     203 | 0x2A2D      |       10797 |
|     204 | 0x00B4      |         180 |
|     205 | 0x2A2E      |       10798 |
|     206 | 0x2A2F      |       10799 |
|     207 | 0x2A30      |       10800 |
|     208 | 0x00CB      |         203 |
|     209 | 0x2A31      |       10801 |
|     210 | 0x2A32      |       10802 |
|     211 | 0xFFFFBE02  |  4294950402 |
|     212 | 0xC61E      |       50718 |
|     213 | 0xFFFFFFCE  |  4294967246 |
|     214 | 0x0B58      |        2904 |
|     215 | 0x11EC0     |       73408 |
|     216 | 0xFFFEC792  |  4294887314 |
|     217 | 0x0132      |         306 |
|     218 | 0x044D      |        1101 |
|     219 | 0xFFFFCE05  |  4294954501 |
|     220 | 0x6E00      |       28160 |
|     221 | 0x04EB      |        1259 |
|     222 | 0x0001      |           1 |
|     223 | 0x2B28      |       11048 |
|     224 | 0x2B29      |       11049 |
|     225 | 0x2B2A      |       11050 |
|     226 | 0x2B2B      |       11051 |
|     227 | 0x2B2C      |       11052 |
|     228 | 0x2B2D      |       11053 |
|     229 | 0x2B2E      |       11054 |
|     230 | 0x2B2F      |       11055 |
|     231 | 0x2B30      |       11056 |
|     232 | 0x044B      |        1099 |
|     233 | 0xFFFFCAEC  |  4294953708 |
|     234 | 0x6F1E      |       28446 |
|     235 | 0x046E      |        1134 |
|     236 | 0x2B31      |       11057 |
|     237 | 0x2B32      |       11058 |
|     238 | 0x2B33      |       11059 |
|     239 | 0x2B34      |       11060 |
|     240 | 0x0045      |          69 |
|     241 | 0x2B35      |       11061 |
|     242 | 0x2B36      |       11062 |
|     243 | 0x2B37      |       11063 |
|     244 | 0x2B38      |       11064 |
|     245 | 0x2B39      |       11065 |
|     246 | 0x0006      |           6 |
|     247 | 0x2B3A      |       11066 |
|     248 | 0x2B3B      |       11067 |
|     249 | 0x2B3C      |       11068 |
|     250 | 0x2B3D      |       11069 |
|     251 | 0x2B3E      |       11070 |
|     252 | 0x2B3F      |       11071 |
|     253 | 0x0007      |           7 |
|     254 | 0x2B40      |       11072 |
|     255 | 0x2B41      |       11073 |
|     256 | 0x2B42      |       11074 |
|     257 | 0x2B43      |       11075 |
|     258 | 0x2B44      |       11076 |
|     259 | 0x2B45      |       11077 |
|     260 | 0x012C      |         300 |
|     261 | 0x2B46      |       11078 |
|     262 | 0x0015      |          21 |
|     263 | 0x0013      |          19 |
|     264 | 0x2B47      |       11079 |
|     265 | 0x2B48      |       11080 |
|     266 | 0x2B49      |       11081 |
|     267 | 0x2B4A      |       11082 |
|     268 | 0x2B4B      |       11083 |
|     269 | 0x2B4C      |       11084 |
|     270 | 0x2B4D      |       11085 |
|     271 | 0x2B4E      |       11086 |
|     272 | 0x2B4F      |       11087 |
|     273 | 0x2B50      |       11088 |
|     274 | 0x112A      |        4394 |
|     275 | 0x1155      |        4437 |
|     276 | 0x3151      |       12625 |
|     277 | 0x02D9      |         729 |
|     278 | 0x0005      |           5 |
|     279 | 0x2B57      |       11095 |
|     280 | 0x2B58      |       11096 |
|     281 | 0x2B59      |       11097 |
|     282 | 0x2B5A      |       11098 |
|     283 | 0x2B5B      |       11099 |
|     284 | 0x2B5C      |       11100 |
|     285 | 0x2B5D      |       11101 |
|     286 | 0x2B5E      |       11102 |
|     287 | 0x2B5F      |       11103 |
|     288 | 0x2B60      |       11104 |
|     289 | 0x2B61      |       11105 |
|     290 | 0x2B62      |       11106 |
|     291 | 0x2B63      |       11107 |
|     292 | 0x2B64      |       11108 |
|     293 | 0x2B65      |       11109 |
|     294 | 0x2B66      |       11110 |
|     295 | 0x2B67      |       11111 |
|     296 | 0x2B68      |       11112 |
|     297 | 0x2B69      |       11113 |
|     298 | 0x2B6A      |       11114 |
|     299 | 0x2B6B      |       11115 |
|     300 | 0x2B6C      |       11116 |
|     301 | 0x2B6D      |       11117 |
|     302 | 0x2B6E      |       11118 |
|     303 | 0x2B6F      |       11119 |
|     304 | 0x2B70      |       11120 |
|     305 | 0xFFFFDD36  |  4294958390 |
|     306 | 0xFFFE244C  |  4294845516 |
|     307 | 0xFFFFFC19  |  4294966297 |
|     308 | 0x0381      |         897 |
|     309 | 0x0633      |        1587 |
|     310 | 0x147F6     |       83958 |
|     311 | 0xFFFFED63  |  4294962531 |
|     312 | 0x0400      |        1024 |
|     313 | 0x009A      |         154 |
|     314 | 0xFFFFF98B  |  4294965643 |
|     315 | 0x0B83      |        2947 |
|     316 | 0xCB7E      |       52094 |
|     317 | 0xFFFF740B  |  4294931467 |
|     318 | 0x01F9      |         505 |
|     319 | 0x009D      |         157 |
|     320 | 0x00EB      |         235 |
|     321 | 0x0028      |          40 |
|     322 | 0xFFFD0A2C  |  4294773292 |
|     323 | 0xFFFFAA6D  |  4294945389 |
|     324 | 0xFFFFDDF1  |  4294958577 |
|     325 | 0x00B0      |         176 |
|     326 | 0xFFFD4750  |  4294788944 |
|     327 | 0xFFFFA4CD  |  4294943949 |
|     328 | 0xFFFFDF12  |  4294958866 |
|     329 | 0x2D54      |       11604 |
|     330 | 0x0037      |          55 |
|     331 | 0x2D55      |       11605 |
|     332 | 0x2D56      |       11606 |
|     333 | 0x2D57      |       11607 |
|     334 | 0x2D58      |       11608 |
|     335 | 0x2D59      |       11609 |
|     336 | 0x2D5A      |       11610 |
|     337 | 0x2D5B      |       11611 |
|     338 | 0x2D5C      |       11612 |
|     339 | 0x2D5D      |       11613 |
|     340 | 0x0168      |         360 |
|     341 | 0x2D5E      |       11614 |
|     342 | 0x07DD      |        2013 |
|     343 | 0x2D5F      |       11615 |
|     344 | 0x2D60      |       11616 |
|     345 | 0x2D61      |       11617 |
|     346 | 0x2D62      |       11618 |
|     347 | 0x2D63      |       11619 |
|     348 | 0x2D64      |       11620 |
|     349 | 0x2D65      |       11621 |
|     350 | 0x2D66      |       11622 |
|     351 | 0x2D67      |       11623 |
|     352 | 0x2D68      |       11624 |
|     353 | 0x2D69      |       11625 |
|     354 | 0x2D6A      |       11626 |
|     355 | 0x2D6B      |       11627 |
|     356 | 0x009C      |         156 |
|     357 | 0x2D6C      |       11628 |
|     358 | 0x2D6D      |       11629 |
|     359 | 0x2D6E      |       11630 |
|     360 | 0x2D6F      |       11631 |
|     361 | 0x2D70      |       11632 |
|     362 | 0x2D71      |       11633 |
|     363 | 0x2D72      |       11634 |
|     364 | 0x2D73      |       11635 |
|     365 | 0x2D74      |       11636 |
|     366 | 0x2D75      |       11637 |
|     367 | 0x2D76      |       11638 |
|     368 | 0x2D77      |       11639 |
|     369 | 0x2D78      |       11640 |
|     370 | 0x2D79      |       11641 |
|     371 | 0x2D7A      |       11642 |
|     372 | 0x0009      |           9 |
|     373 | 0x00D2      |         210 |
|     374 | 0xC92B      |       51499 |
|     375 | 0xFFFF7493  |  4294931603 |
|     376 | 0x0F56      |        3926 |
|     377 | 0x2D3B      |       11579 |
|     378 | 0x2D3C      |       11580 |
|     379 | 0x007C      |         124 |
|     380 | 0x0048      |          72 |
|     381 | 0x2D3D      |       11581 |
|     382 | 0x2D3E      |       11582 |
|     383 | 0x2D3F      |       11583 |
|     384 | 0x2D40      |       11584 |
|     385 | 0x2D41      |       11585 |
|     386 | 0x2D42      |       11586 |
|     387 | 0x2D43      |       11587 |
|     388 | 0x2D44      |       11588 |
|     389 | 0x2D45      |       11589 |
|     390 | 0x2D46      |       11590 |
|     391 | 0x2D47      |       11591 |
|     392 | 0x2D48      |       11592 |
|     393 | 0x2D49      |       11593 |
|     394 | 0x2D4A      |       11594 |
|     395 | 0x2D4B      |       11595 |
|     396 | 0x2D4C      |       11596 |
|     397 | 0x2D4D      |       11597 |
|     398 | 0x0091      |         145 |
|     399 | 0x2D4E      |       11598 |
|     400 | 0x2D4F      |       11599 |
|     401 | 0x0094      |         148 |
|     402 | 0x2D50      |       11600 |
|     403 | 0x2D51      |       11601 |
|     404 | 0x2D52      |       11602 |
|     405 | 0x2D53      |       11603 |
|     406 | 0x010A      |         266 |
|     407 | 0xFFFF62AC  |  4294927020 |
|     408 | 0x9879      |       39033 |
|     409 | 0x0F66      |        3942 |
|     410 | 0x2CF8      |       11512 |
|     411 | 0x00A3      |         163 |
|     412 | 0x2CF9      |       11513 |
|     413 | 0x2CFA      |       11514 |
|     414 | 0x2CFB      |       11515 |
|     415 | 0x2CFC      |       11516 |
|     416 | 0x2CFD      |       11517 |
|     417 | 0x2CFE      |       11518 |
|     418 | 0x2CFF      |       11519 |
|     419 | 0x2D00      |       11520 |
|     420 | 0x2D01      |       11521 |
|     421 | 0x2D02      |       11522 |
|     422 | 0x2D03      |       11523 |
|     423 | 0x2D04      |       11524 |
|     424 | 0x2D05      |       11525 |
|     425 | 0x2D06      |       11526 |
|     426 | 0x2D07      |       11527 |
|     427 | 0x2D08      |       11528 |
|     428 | 0x2D09      |       11529 |
|     429 | 0x2D0A      |       11530 |
|     430 | 0x2D0B      |       11531 |
|     431 | 0x2D0C      |       11532 |
|     432 | 0x2D0D      |       11533 |
|     433 | 0x2D0E      |       11534 |
|     434 | 0x2D0F      |       11535 |
|     435 | 0x2D10      |       11536 |
|     436 | 0x11458     |       70744 |
|     437 | 0xFFFFDB36  |  4294957878 |
|     438 | 0x0231      |         561 |
|     439 | 0x2D11      |       11537 |
|     440 | 0x2D12      |       11538 |
|     441 | 0x10A0C     |       68108 |
|     442 | 0xFFFFDE99  |  4294958745 |
|     443 | 0x00AD      |         173 |
|     444 | 0x2D13      |       11539 |
|     445 | 0x2D14      |       11540 |
|     446 | 0x2D15      |       11541 |
|     447 | 0x2D16      |       11542 |
|     448 | 0x2D17      |       11543 |
|     449 | 0x2D18      |       11544 |
|     450 | 0x2D19      |       11545 |
|     451 | 0x2D1A      |       11546 |
|     452 | 0x2D1B      |       11547 |
|     453 | 0x2D1C      |       11548 |
|     454 | 0x2D1D      |       11549 |
|     455 | 0x2D1E      |       11550 |
|     456 | 0x2D1F      |       11551 |
|     457 | 0x2D20      |       11552 |
|     458 | 0x2D21      |       11553 |
|     459 | 0x2D22      |       11554 |
|     460 | 0x2D23      |       11555 |
|     461 | 0x2D24      |       11556 |
|     462 | 0x2D25      |       11557 |
|     463 | 0x2D26      |       11558 |
|     464 | 0x2D27      |       11559 |
|     465 | 0x2D28      |       11560 |
|     466 | 0x2D29      |       11561 |
|     467 | 0x2D2A      |       11562 |
|     468 | 0x2D2B      |       11563 |
|     469 | 0x2D2C      |       11564 |
|     470 | 0x2D2D      |       11565 |
|     471 | 0x2D2E      |       11566 |
|     472 | 0x2D2F      |       11567 |
|     473 | 0x2D30      |       11568 |
|     474 | 0x2D31      |       11569 |
|     475 | 0x2D32      |       11570 |
|     476 | 0x2D33      |       11571 |
|     477 | 0x2D34      |       11572 |
|     478 | 0x2D35      |       11573 |
|     479 | 0x2D36      |       11574 |
|     480 | 0x2D37      |       11575 |
|     481 | 0x2D38      |       11576 |
|     482 | 0x2D39      |       11577 |
|     483 | 0x2D3A      |       11578 |
|     484 | 0x0DDF      |        3551 |
|     485 | 0x2758      |       10072 |
|     486 | 0x0F43      |        3907 |
|     487 | 0x2D7E      |       11646 |
|     488 | 0x2D7F      |       11647 |
|     489 | 0x2D80      |       11648 |
|     490 | 0x111B5     |       70069 |
|     491 | 0x0FE4      |        4068 |
|     492 | 0x0BF4      |        3060 |
|     493 | 0x11169     |       69993 |
|     494 | 0x1EA5      |        7845 |
|     495 | 0x11143     |       69955 |
|     496 | 0x0BFF      |        3071 |
|     497 | 0x11146     |       69958 |
|     498 | 0x31F9      |       12793 |
|     499 | 0x2DD2      |       11730 |
|     500 | 0x2DD3      |       11731 |
|     501 | 0x2DD4      |       11732 |
|     502 | 0x0159      |         345 |
|     503 | 0x2DDC      |       11740 |
|     504 | 0x2DDD      |       11741 |
|     505 | 0x2DDE      |       11742 |
|     506 | 0x2DDF      |       11743 |
|     507 | 0x2DE0      |       11744 |
|     508 | 0x2DE1      |       11745 |
|     509 | 0x2DE2      |       11746 |
|     510 | 0x2DE3      |       11747 |
|     511 | 0x2DE4      |       11748 |
|     512 | 0x2DE5      |       11749 |
|     513 | 0x21D4A     |      138570 |
|     514 | 0x1DC79     |      121977 |
|     515 | 0xFFFFF830  |  4294965296 |
|     516 | 0x086F      |        2159 |
|     517 | 0x1807D     |       98429 |
|     518 | 0xFFFEFF25  |  4294901541 |
|     519 | 0x03E4      |         996 |
|     520 | 0x04E3      |        1251 |
|     521 | 0xFFFCB26E  |  4294750830 |
|     522 | 0xFFFE9627  |  4294874663 |
|     523 | 0xFFFFFF0B  |  4294967051 |
|     524 | 0x09F7      |        2551 |
|     525 | 0x8B2F      |       35631 |
|     526 | 0xFFFF3AAD  |  4294916781 |
|     527 | 0x2329      |        9001 |
|     528 | 0x09EC      |        2540 |
|     529 | 0x27692     |      161426 |
|     530 | 0x274F7     |      161015 |
|     531 | 0x05F8      |        1528 |
|     532 | 0x1C843     |      116803 |
|     533 | 0xFFFEE69B  |  4294895259 |
|     534 | 0x07F9      |        2041 |
|     535 | 0xFFFC8339  |  4294738745 |
|     536 | 0xFFFE2B86  |  4294847366 |
|     537 | 0xFFFFFF07  |  4294967047 |
|     538 | 0x0FFD      |        4093 |
|     539 | 0xBF7E      |       49022 |
|     540 | 0xFFFEE2B4  |  4294894260 |
|     541 | 0x2712      |       10002 |
|     542 | 0x0C0F      |        3087 |
|     543 | 0x185ED     |       99821 |
|     544 | 0xFFFEFF9F  |  4294901663 |
|     545 | 0x0312      |         786 |
|     546 | 0x21BAA     |      138154 |
|     547 | 0x1D514     |      120084 |
|     548 | 0x0E96      |        3734 |
|     549 | 0xFFFCB3AF  |  4294751151 |
|     550 | 0xFFFE90C0  |  4294873280 |
|     551 | 0xFFFFFF72  |  4294967154 |
|     552 | 0x084B      |        2123 |
|     553 | 0x8B65      |       35685 |
|     554 | 0xFFFF3C2F  |  4294917167 |
|     555 | 0x065B      |        1627 |
|     556 | 0xFFFBBF41  |  4294688577 |
|     557 | 0xFFF9A232  |  4294550066 |
|     558 | 0xFFFF641B  |  4294927387 |
|     559 | 0x0AA6      |        2726 |
|     560 | 0x8B7BE     |      571326 |
|     561 | 0xFFFBD923  |  4294695203 |
|     562 | 0xFFFFFEA3  |  4294966947 |
|     563 | 0x01A6      |         422 |
|     564 | 0xFFFBB61F  |  4294686239 |
|     565 | 0xFFF9928F  |  4294546063 |
|     566 | 0xFFFF648E  |  4294927502 |
|     567 | 0x0704      |        1796 |
|     568 | 0x88F90     |      561040 |
|     569 | 0xFFFBC607  |  4294690311 |
|     570 | 0x06C5      |        1733 |
|     571 | 0xFFFA88AC  |  4294609068 |
|     572 | 0x4DDD      |       19933 |
|     573 | 0xFFFF7744  |  4294932292 |
|     574 | 0x0831      |        2097 |
|     575 | 0x1DA71     |      121457 |
|     576 | 0x1C391     |      115601 |
|     577 | 0xFFFFE0D3  |  4294959315 |
|     578 | 0x0DA9      |        3497 |
|     579 | 0x25BC9     |      154569 |
|     580 | 0xFFFD5734  |  4294793012 |
|     581 | 0x0227      |         551 |
|     582 | 0x091C      |        2332 |
|     583 | 0xFFFFC3F3  |  4294951923 |
|     584 | 0x19656     |      104022 |
|     585 | 0xFFFFBC6C  |  4294949996 |
|     586 | 0x0379      |         889 |
|     587 | 0x0286      |         646 |
|     588 | 0xFFFF97B9  |  4294940601 |
|     589 | 0xFFFFE43B  |  4294960187 |
|     590 | 0x0689      |        1673 |
|     591 | 0xFFFFFFD1  |  4294967249 |
|     592 | 0xFFFF80F7  |  4294934775 |
|     593 | 0xFFFFA435  |  4294943797 |
|     594 | 0x03FD      |        1021 |
|     595 | 0x3FCF      |       16335 |
|     596 | 0xFFFFCE81  |  4294954625 |
|     597 | 0x0263      |         611 |
|     598 | 0xFFFFFA35  |  4294965813 |
|     599 | 0xBFA7      |       49063 |
|     600 | 0xFFFFFFD4  |  4294967252 |
|     601 | 0x0DC1      |        3521 |
|     602 | 0x741B      |       29723 |
|     603 | 0xFFFE5154  |  4294857044 |
|     604 | 0x036A      |         874 |
|     605 | 0x0552      |        1362 |
|     606 | 0x02D8      |         728 |
|     607 | 0x02D7      |         727 |
|     608 | 0x0107      |         263 |
|     609 | 0xFFFFC359  |  4294951769 |
|     610 | 0xFFFFD9BA  |  4294957498 |
|     611 | 0xFFFFFFD2  |  4294967250 |
|     612 | 0x0C7F      |        3199 |
|     613 | 0x00C1      |         193 |
|     614 | 0x3099      |       12441 |
|     615 | 0x309A      |       12442 |
|     616 | 0x309B      |       12443 |
|     617 | 0x309C      |       12444 |
|     618 | 0x309D      |       12445 |
|     619 | 0x309E      |       12446 |
|     620 | 0x309F      |       12447 |
|     621 | 0x00C2      |         194 |
|     622 | 0x30A0      |       12448 |
|     623 | 0x30A1      |       12449 |
|     624 | 0x0C5E      |        3166 |
|     625 | 0x00B3      |         179 |
|     626 | 0x30A2      |       12450 |
|     627 | 0x30A3      |       12451 |
|     628 | 0x003E      |          62 |
|     629 | 0x30A4      |       12452 |
|     630 | 0x30A5      |       12453 |
|     631 | 0x30A6      |       12454 |
|     632 | 0x30A7      |       12455 |
|     633 | 0x30A8      |       12456 |
|     634 | 0x30A9      |       12457 |
|     635 | 0x30AA      |       12458 |
|     636 | 0x30AB      |       12459 |
|     637 | 0x30AC      |       12460 |
|     638 | 0x30AD      |       12461 |
|     639 | 0x30AE      |       12462 |
|     640 | 0x30AF      |       12463 |
|     641 | 0x30B0      |       12464 |
|     642 | 0x01A4      |         420 |
|     643 | 0x30B2      |       12466 |
|     644 | 0x30B3      |       12467 |
|     645 | 0x30B4      |       12468 |
|     646 | 0x010E      |         270 |
|     647 | 0x0105      |         261 |
|     648 | 0x00FE      |         254 |
|     649 | 0x3485      |       13445 |
|     650 | 0x3486      |       13446 |
|     651 | 0x2678      |        9848 |
|     652 | 0xFFFFC630  |  4294952496 |
|     653 | 0x03C4      |         964 |
|     654 | 0x10F93     |       69523 |
|     655 | 0xFFFFD91F  |  4294957343 |
|     656 | 0x2814C     |      164172 |
|     657 | 0x5118B     |      332171 |
|     658 | 0xFFFEA992  |  4294879634 |
|     659 | 0x27951     |      162129 |
|     660 | 0x510CC     |      331980 |
|     661 | 0xFFFEA9CB  |  4294879691 |
|     662 | 0xBFC6      |       49094 |
|     663 | 0xFFFE5873  |  4294858867 |
|     664 | 0xA697D     |      682365 |
|     665 | 0x562F0     |      353008 |
|     666 | 0xFFFFFFBB  |  4294967227 |
|     667 | 0x0ADE      |        2782 |
|     668 | 0xA667D     |      681597 |
|     669 | 0x56A5B     |      354907 |
|     670 | 0xA5E2D     |      679469 |
|     671 | 0x568EA     |      354538 |
|     672 | 0xFFFFFFE5  |  4294967269 |
|     673 | 0xA5D1A     |      679194 |
|     674 | 0x56253     |      352851 |
|     675 | 0xFFFFFFD7  |  4294967255 |
|     676 | 0x206BE     |      132798 |
|     677 | 0x517A5     |      333733 |
|     678 | 0xFFFFFEAD  |  4294966957 |
|     679 | 0x079B      |        1947 |
|     680 | 0x21DC6     |      138694 |
|     681 | 0x514BB     |      332987 |
|     682 | 0xFFFFF6A4  |  4294964900 |
|     683 | 0xFFFD07AD  |  4294772653 |
|     684 | 0x6C702     |      444162 |
|     685 | 0xFFFFFFAA  |  4294967210 |
|     686 | 0x0BD2      |        3026 |
|     687 | 0xFFFCFE78  |  4294770296 |
|     688 | 0x6D9E7     |      448999 |
|     689 | 0x01F3      |         499 |
|     690 | 0xFFFDA766  |  4294813542 |
|     691 | 0xFFF588D1  |  4294281425 |
|     692 | 0xFFFF0731  |  4294903601 |
|     693 | 0x0502      |        1282 |
|     694 | 0xFFFDA78F  |  4294813583 |
|     695 | 0xFFF57C88  |  4294278280 |
|     696 | 0xFFFF04A4  |  4294902948 |
|     697 | 0xFFFC0EF4  |  4294708980 |
|     698 | 0xFFFDD9F1  |  4294826481 |
|     699 | 0xFFFFCD8A  |  4294954378 |
|     700 | 0x0952      |        2386 |
|     701 | 0xFFFBEFBC  |  4294700988 |
|     702 | 0xFFFDE107  |  4294828295 |
|     703 | 0xFFFFCAE5  |  4294953701 |
|     704 | 0xFFFA2BBB  |  4294585275 |
|     705 | 0xFFFB7791  |  4294670225 |
|     706 | 0x5E3C      |       24124 |
|     707 | 0x0B3C      |        2876 |
|     708 | 0xFFFA1C93  |  4294581395 |
|     709 | 0xFFFBA27B  |  4294681211 |
|     710 | 0x15B4D     |       88909 |
|     711 | 0xFFFEDC4C  |  4294892620 |
|     712 | 0x0271      |         625 |
|     713 | 0x0088      |         136 |
|     714 | 0x168CD     |       92365 |
|     715 | 0xFFFEEED9  |  4294897369 |
|     716 | 0x0B84      |        2948 |
|     717 | 0xA1CBA     |      662714 |
|     718 | 0x4D742     |      317250 |
|     719 | 0x0892      |        2194 |
|     720 | 0x08BB      |        2235 |
|     721 | 0xA6358     |      680792 |
|     722 | 0x57889     |      358537 |
|     723 | 0xA6720     |      681760 |
|     724 | 0x57900     |      358656 |
|     725 | 0xA679E     |      681886 |
|     726 | 0x56B34     |      355124 |
|     727 | 0xA5EC4     |      679620 |
|     728 | 0x57671     |      358001 |
|     729 | 0x23896     |      145558 |
|     730 | 0x516FB     |      333563 |
|     731 | 0xFFFFEE4D  |  4294962765 |
|     732 | 0x23876     |      145526 |
|     733 | 0x52A21     |      338465 |
|     734 | 0xFFFFEAC5  |  4294961861 |
|     735 | 0x2374A     |      145226 |
|     736 | 0x52FE7     |      339943 |
|     737 | 0xFFFFEA08  |  4294961672 |
|     738 | 0x23A41     |      145985 |
|     739 | 0x51CF9     |      335097 |
|     740 | 0xFFFFECCE  |  4294962382 |
|     741 | 0x226B4     |      140980 |
|     742 | 0x53C1F     |      343071 |
|     743 | 0xFFFFE5AA  |  4294960554 |
|     744 | 0xFFFD334A  |  4294783818 |
|     745 | 0x6D7A7     |      448423 |
|     746 | 0x0416      |        1046 |
|     747 | 0xFFFD3385  |  4294783877 |
|     748 | 0x6D58C     |      447884 |
|     749 | 0xFFFD29B7  |  4294781367 |
|     750 | 0x6C56E     |      443758 |
|     751 | 0xFFFFFD94  |  4294966676 |
|     752 | 0xFFFD1E55  |  4294778453 |
|     753 | 0x6CFB9     |      446393 |
|     754 | 0xFFFFFFD9  |  4294967257 |
|     755 | 0xB42E      |       46126 |
|     756 | 0xFFFE63B1  |  4294861745 |
|     757 | 0x019E      |         414 |
|     758 | 0xC1BC      |       49596 |
|     759 | 0xFFFE5A15  |  4294859285 |
|     760 | 0xFFFFE5E5  |  4294960613 |
|     761 | 0xFFFE76B4  |  4294866612 |
|     762 | 0x0577      |        1399 |
|     763 | 0x0486      |        1158 |
|     764 | 0xFFFFCED6  |  4294954710 |
|     765 | 0xFFFE4194  |  4294853012 |
|     766 | 0x060C      |        1548 |
|     767 | 0x03D9      |         985 |
|     768 | 0x1403      |        5123 |
|     769 | 0xFFFE598D  |  4294859149 |
|     770 | 0x082F      |        2095 |
|     771 | 0xFFFFE586  |  4294960518 |
|     772 | 0xFFFE6A2A  |  4294863402 |
|     773 | 0x0C13      |        3091 |
|     774 | 0x0046      |          70 |
|     775 | 0x008C      |         140 |
|     776 | 0x410F      |       16655 |
|     777 | 0x4135      |       16693 |
|     778 | 0x0095      |         149 |
|     779 | 0x009F      |         159 |
|     780 | 0x00A9      |         169 |
|     781 | 0x0004      |           4 |
|     782 | 0x00BD      |         189 |
|     783 | 0x00C7      |         199 |
|     784 | 0x0008      |           8 |
|     785 | 0x00D1      |         209 |
|     786 | 0xD131      |       53553 |
|     787 | 0xFFFF7DA7  |  4294933927 |
|     788 | 0xFFFFFFCD  |  4294967245 |

## String References

- **16655**: Entering $8.
- **16693**: Your $3 fills with sand.

## Events

### Event 65535

#### Metadata

| Field        | Value   |
|--------------|---------|
| Entrypoint   | 0x0000  |
| Data Size    | 1 bytes |
| Instructions | 1       |

```
      00 01 02 03 04 05 06 07  08 09 0A 0B 0C 0D 0E 0F
      -- -- -- -- -- -- -- --  -- -- -- -- -- -- -- --
0000: 00                                                .               
```

#### Opcodes

```
  0: 0x0000 [0x00] END_REQSTACK()
```

### Event 65534

#### Metadata

| Field        | Value   |
|--------------|---------|
| Entrypoint   | 0x0001  |
| Data Size    | 1 bytes |
| Instructions | 1       |

```
      00 01 02 03 04 05 06 07  08 09 0A 0B 0C 0D 0E 0F
      -- -- -- -- -- -- -- --  -- -- -- -- -- -- -- --
0000:    00                                              .              
```

#### Opcodes

```
  0: 0x0001 [0x00] END_REQSTACK()
```

### Event 65535.1

#### Metadata

| Field        | Value    |
|--------------|----------|
| Entrypoint   | 0x0002   |
| Data Size    | 23 bytes |
| Instructions | 5        |

```
      00 01 02 03 04 05 06 07  08 09 0A 0B 0C 0D 0E 0F
      -- -- -- -- -- -- -- --  -- -- -- -- -- -- -- --
0000:       32 00 80 37 01 80  02 80 03 80 04 80 1F 00    2..7..........
0010: 05 80 06 80 07 80 1F 01  00                       .........       
```

#### Opcodes

```
  0: 0x0002 [0x32] ExtData[1]->MainSpeed = 13* * 0.1
  1: 0x0005 [0x37] UPDATE_EVENT_POSITION_AND_DIR: x=-18.107*, z=-138.000*, y=-1.500*, direction=267.6째*
  2: 0x000E [0x1F] MOVE_ENTITY: EventEntity moves to X=-17.244*, Z=-125.432*, Y=-1.000*
  3: 0x0016 [0x1F] MOVE_ENTITY: Update entity position (mode=1)
  4: 0x0018 [0x00] END_REQSTACK()
```

### Event 65535.2

#### Metadata

| Field        | Value    |
|--------------|----------|
| Entrypoint   | 0x0019   |
| Data Size    | 14 bytes |
| Instructions | 4        |

```
      00 01 02 03 04 05 06 07  08 09 0A 0B 0C 0D 0E 0F
      -- -- -- -- -- -- -- --  -- -- -- -- -- -- -- --
0010:                             32 00 80 1F 00 08 80           2......
0020: 09 80 07 80 1F 01 00                              .......         
```

#### Opcodes

```
  0: 0x0019 [0x32] ExtData[1]->MainSpeed = 13* * 0.1
  1: 0x001C [0x1F] MOVE_ENTITY: EventEntity moves to X=-23.466*, Z=-111.659*, Y=-1.000*
  2: 0x0024 [0x1F] MOVE_ENTITY: Update entity position (mode=1)
  3: 0x0026 [0x00] END_REQSTACK()
```

### Event 65535.3

#### Metadata

| Field        | Value    |
|--------------|----------|
| Entrypoint   | 0x0027   |
| Data Size    | 23 bytes |
| Instructions | 5        |

```
      00 01 02 03 04 05 06 07  08 09 0A 0B 0C 0D 0E 0F
      -- -- -- -- -- -- -- --  -- -- -- -- -- -- -- --
0020:                      32  00 80 37 0A 80 0B 80 0C         2..7.....
0030: 80 0D 80 1F 00 0A 80 0E  80 0C 80 1F 01 00        ..............  
```

#### Opcodes

```
  0: 0x0027 [0x32] ExtData[1]->MainSpeed = 13* * 0.1
  1: 0x002A [0x37] UPDATE_EVENT_POSITION_AND_DIR: x=-48.000*, z=-22.500*, y=0.000*, direction=263.7째*
  2: 0x0033 [0x1F] MOVE_ENTITY: EventEntity moves to X=-48.000*, Z=-16.000*, Y=0.000*
  3: 0x003B [0x1F] MOVE_ENTITY: Update entity position (mode=1)
  4: 0x003D [0x00] END_REQSTACK()
```

### Event 65535.4

#### Metadata

| Field        | Value    |
|--------------|----------|
| Entrypoint   | 0x003E   |
| Data Size    | 23 bytes |
| Instructions | 5        |

```
      00 01 02 03 04 05 06 07  08 09 0A 0B 0C 0D 0E 0F
      -- -- -- -- -- -- -- --  -- -- -- -- -- -- -- --
0030:                                            32 00                2.
0040: 80 37 0F 80 10 80 0C 80  11 80 1F 00 12 80 13 80  .7..............
0050: 0C 80 1F 01 00                                    .....           
```

#### Opcodes

```
  0: 0x003E [0x32] ExtData[1]->MainSpeed = 13* * 0.1
  1: 0x0041 [0x37] UPDATE_EVENT_POSITION_AND_DIR: x=-50.860*, z=14.442*, y=0.000*, direction=281.7째*
  2: 0x004A [0x1F] MOVE_ENTITY: EventEntity moves to X=-50.760*, Z=22.820*, Y=0.000*
  3: 0x0052 [0x1F] MOVE_ENTITY: Update entity position (mode=1)
  4: 0x0054 [0x00] END_REQSTACK()
```

### Event 65535.5

#### Metadata

| Field        | Value    |
|--------------|----------|
| Entrypoint   | 0x0055   |
| Data Size    | 28 bytes |
| Instructions | 6        |

```
      00 01 02 03 04 05 06 07  08 09 0A 0B 0C 0D 0E 0F
      -- -- -- -- -- -- -- --  -- -- -- -- -- -- -- --
0050:                32 00 80  37 14 80 15 80 0C 80 0D       2..7.......
0060: 80 1F 00 16 80 17 80 0C  80 1F 01 1E 02 A0 0E 01  ................
0070: 00                                                .               
```

#### Opcodes

```
  0: 0x0055 [0x32] ExtData[1]->MainSpeed = 13* * 0.1
  1: 0x0058 [0x37] UPDATE_EVENT_POSITION_AND_DIR: x=-45.705*, z=21.202*, y=0.000*, direction=263.7째*
  2: 0x0061 [0x1F] MOVE_ENTITY: EventEntity moves to X=-45.913*, Z=22.748*, Y=0.000*
  3: 0x0069 [0x1F] MOVE_ENTITY: Update entity position (mode=1)
  4: 0x006B [0x1E] EventEntity looks at Hani (ID: 17735682/0x010EA002) and starts talking
  5: 0x0070 [0x00] END_REQSTACK()
```

### Event 45

#### Metadata

| Field        | Value      |
|--------------|------------|
| Entrypoint   | 0x0071     |
| Data Size    | 1340 bytes |
| Instructions | 185        |

```
      00 01 02 03 04 05 06 07  08 09 0A 0B 0C 0D 0E 0F
      -- -- -- -- -- -- -- --  -- -- -- -- -- -- -- --
0070:    42 75 00 18 80 75 01  5D 0C 80 19 80 45 1A 80   Bu...u.]....E..
0080: F0 FF FF 7F F0 FF FF 7F  66 64 6F 30 0C 80 1C 19  ........fdo0....
0090: 80 46 01 38 1B 80 5C 00  1C 80 5C 01 1C 80 37 1D  .F.8..\...\...7.
00A0: 80 1E 80 1F 80 20 80 1E  26 A0 0E 01 4A 26 A0 0E  ..... ..&...J&..
00B0: 01 F0 FF FF 7F 45 21 80  F0 FF FF 7F F0 FF FF 7F  .....E!.........
00C0: 73 30 34 30 0C 80 45 1A  80 F0 FF FF 7F F0 FF FF  s040..E.........
00D0: 7F 66 64 69 30 0C 80 2B  26 A0 0E 01 22 80 23 6F  .fdi0..+&...".#o
00E0: 76 26 A0 0E 01 66 23 80  26 A0 0E 01 26 A0 0E 01  v&...f#.&...&...
00F0: 74 6C 6B 30 2B 26 A0 0E  01 24 80 23 7B 26 A0 0E  tlk0+&...$.#{&..
0100: 01 45 21 80 F0 FF FF 7F  F0 FF FF 7F 73 30 34 31  .E!.........s041
0110: 0C 80 27 64 26 A0 0E 01  03 1C 19 80 27 0A 26 A0  ..'d&.......'.&.
0120: 0E 01 07 2B 26 A0 0E 01  25 80 23 2A 64 26 A0 0E  ...+&...%.#*d&..
0130: 01 1C 23 80 2B 04 A0 0E  01 26 80 23 52 21 80 F0  ..#.+....&.#R!..
0140: FF FF 7F F0 FF FF 7F 73  30 34 31 45 21 80 F0 FF  .......s041E!...
0150: FF 7F F0 FF FF 7F 73 30  34 32 0C 80 4E 00 04 A0  ......s042..N...
0160: 0E 01 27 64 04 A0 0E 01  08 1C 27 80 1E 04 A0 0E  ..'d......'.....
0170: 01 4A 26 A0 0E 01 04 A0  0E 01 2B 04 A0 0E 01 28  .J&.......+....(
0180: 80 23 2A 64 04 A0 0E 01  5B 29 80 04 A0 0E 01 04  .#*d....[)......
0190: A0 0E 01 74 6C 61 30 6F  76 04 A0 0E 01 2B 04 A0  ...tla0ov....+..
01A0: 0E 01 2A 80 23 5B 29 80  04 A0 0E 01 04 A0 0E 01  ..*.#[).........
01B0: 74 6C 61 31 1E 04 A0 0E  01 4A 26 A0 0E 01 04 A0  tla1.....J&.....
01C0: 0E 01 2B 26 A0 0E 01 2B  80 23 79 00 04 A0 0E 01  ..+&...+.#y.....
01D0: F0 FF FF 7F 1C 2C 80 5B  29 80 04 A0 0E 01 04 A0  .....,.[).......
01E0: 0E 01 74 6C 62 30 2B 04  A0 0E 01 2D 80 23 5B 29  ..tlb0+....-.#[)
01F0: 80 04 A0 0E 01 04 A0 0E  01 74 6C 62 31 2B 04 A0  .........tlb1+..
0200: 0E 01 2E 80 23 27 0A 04  A0 0E 01 0B 79 00 04 A0  ....#'......y...
0210: 0E 01 26 A0 0E 01 1C 2C  80 5B 29 80 04 A0 0E 01  ..&....,.[).....
0220: 04 A0 0E 01 74 6C 61 30  2B 04 A0 0E 01 2F 80 23  ....tla0+..../.#
0230: 5B 29 80 04 A0 0E 01 04  A0 0E 01 74 6C 61 31 66  [).........tla1f
0240: 23 80 26 A0 0E 01 26 A0  0E 01 64 69 73 30 52 21  #.&...&...dis0R!
0250: 80 F0 FF FF 7F F0 FF FF  7F 73 30 34 32 45 21 80  .........s042E!.
0260: F0 FF FF 7F F0 FF FF 7F  73 30 34 37 0C 80 2B 26  ........s047..+&
0270: A0 0E 01 30 80 23 4E 00  17 A0 0E 01 7B 26 A0 0E  ...0.#N.....{&..
0280: 01 2B 26 A0 0E 01 31 80  23 27 64 17 A0 0E 01 08  .+&...1.#'d.....
0290: 1C 23 80 4A 04 A0 0E 01  17 A0 0E 01 52 21 80 F0  .#.J........R!..
02A0: FF FF 7F F0 FF FF 7F 73  30 34 37 45 21 80 F0 FF  .......s047E!...
02B0: FF 7F F0 FF FF 7F 73 30  34 33 0C 80 79 00 26 A0  ......s043..y.&.
02C0: 0E 01 17 A0 0E 01 2B 17  A0 0E 01 32 80 23 27 64  ......+....2.#'d
02D0: 26 A0 0E 01 04 1C 19 80  4A 04 A0 0E 01 17 A0 0E  &.......J.......
02E0: 01 2B 26 A0 0E 01 33 80  23 2A 64 17 A0 0E 01 52  .+&...3.#*d....R
02F0: 21 80 F0 FF FF 7F F0 FF  FF 7F 73 30 34 33 45 21  !.........s043E!
0300: 80 F0 FF FF 7F F0 FF FF  7F 73 30 34 34 0C 80 66  .........s044..f
0310: 0C 80 17 A0 0E 01 17 A0  0E 01 74 6C 6B 30 2B 17  ..........tlk0+.
0320: A0 0E 01 34 80 23 2B 17  A0 0E 01 35 80 23 27 0A  ...4.#+....5.#'.
0330: 17 A0 0E 01 0A 1C 19 80  7B 26 A0 0E 01 66 23 80  ........{&...f#.
0340: 26 A0 0E 01 26 A0 0E 01  74 68 6B 31 81 00 26 A0  &...&...thk1..&.
0350: 0E 01 2B 26 A0 0E 01 36  80 23 1C 37 80 81 01 26  ..+&...6.#.7...&
0360: A0 0E 01 52 21 80 F0 FF  FF 7F F0 FF FF 7F 73 30  ...R!.........s0
0370: 34 34 45 21 80 F0 FF FF  7F F0 FF FF 7F 73 30 33  44E!.........s03
0380: 37 0C 80 66 23 80 26 A0  0E 01 26 A0 0E 01 74 68  7..f#.&...&...th
0390: 6B 32 2B 26 A0 0E 01 38  80 23 2B 26 A0 0E 01 39  k2+&...8.#+&...9
03A0: 80 23 79 00 26 A0 0E 01  17 A0 0E 01 2B 26 A0 0E  .#y.&.......+&..
03B0: 01 3A 80 23 66 1B 80 17  A0 0E 01 17 A0 0E 01 73  .:.#f..........s
03C0: 64 6F 30 2B 17 A0 0E 01  3B 80 23 66 1B 80 17 A0  do0+....;.#f....
03D0: 0E 01 17 A0 0E 01 73 64  6F 31 7B 26 A0 0E 01 52  ......sdo1{&...R
03E0: 21 80 F0 FF FF 7F F0 FF  FF 7F 73 30 33 37 45 21  !.........s037E!
03F0: 80 F0 FF FF 7F F0 FF FF  7F 73 30 34 35 0C 80 27  .........s045..'
0400: 64 26 A0 0E 01 05 2B 26  A0 0E 01 3C 80 23 1C 19  d&....+&...<.#..
0410: 80 2B 17 A0 0E 01 3D 80  23 79 00 26 A0 0E 01 17  .+....=.#y.&....
0420: A0 0E 01 2B 26 A0 0E 01  3E 80 23 7B 26 A0 0E 01  ...+&...>.#{&...
0430: 2B 26 A0 0E 01 3F 80 23  4A 26 A0 0E 01 17 A0 0E  +&...?.#J&......
0440: 01 1C 2C 80 52 21 80 F0  FF FF 7F F0 FF FF 7F 73  ..,.R!.........s
0450: 30 34 35 45 21 80 F0 FF  FF 7F F0 FF FF 7F 73 30  045E!.........s0
0460: 33 38 0C 80 2B 26 A0 0E  01 40 80 23 1C 19 80 66  38..+&...@.#...f
0470: 41 80 17 A0 0E 01 17 A0  0E 01 6B 73 6B 30 2B 17  A.........ksk0+.
0480: A0 0E 01 42 80 23 53 17  A0 0E 01 17 A0 0E 01 6B  ...B.#S........k
0490: 73 6B 30 27 64 17 A0 0E  01 09 1C 19 80 55 21 80  sk0'd........U!.
04A0: F0 FF FF 7F F0 FF FF 7F  73 30 33 38 45 21 80 F0  ........s038E!..
04B0: FF FF 7F F0 FF FF 7F 73  30 33 39 0C 80 29 64 04  .......s039..)d.
04C0: A0 0E 01 09 5B 29 80 04  A0 0E 01 04 A0 0E 01 74  ....[).........t
04D0: 6C 63 30 2B 04 A0 0E 01  43 80 23 5B 29 80 04 A0  lc0+....C.#[)...
04E0: 0E 01 04 A0 0E 01 74 6C  63 31 66 23 80 26 A0 0E  ......tlc1f#.&..
04F0: 01 26 A0 0E 01 64 69 73  30 2B 26 A0 0E 01 44 80  .&...dis0+&...D.
0500: 23 2B 26 A0 0E 01 45 80  23 5B 29 80 04 A0 0E 01  #+&...E.#[).....
0510: 04 A0 0E 01 74 6C 62 30  2B 04 A0 0E 01 46 80 23  ....tlb0+....F.#
0520: 5B 29 80 04 A0 0E 01 04  A0 0E 01 74 6C 62 31 27  [).........tlb1'
0530: 0A 26 A0 0E 01 07 4A 04  A0 0E 01 F0 FF FF 7F 2B  .&....J........+
0540: 04 A0 0E 01 47 80 23 27  64 04 A0 0E 01 0A 1C 48  ....G.#'d......H
0550: 80 27 64 26 A0 0E 01 06  2B 26 A0 0E 01 49 80 23  .'d&....+&...I.#
0560: 2A 64 26 A0 0E 01 5D 0C  80 23 80 45 1A 80 F0 FF  *d&...]..#.E....
0570: FF 7F F0 FF FF 7F 66 64  6F 31 0C 80 1C 23 80 5C  ......fdo1...#.\
0580: 00 4A 80 5C 01 4A 80 45  1A 80 F0 FF FF 7F F0 FF  .J.\.J.E........
0590: FF 7F 66 64 69 31 0C 80  45 4B 80 F0 FF FF 7F F0  ..fdi1..EK......
05A0: FF FF 7F 71 73 74 63 0C  80 46 00 21 00           ...qstc..F.!.   
```

#### Opcodes

```
  0: 0x0071 [0x42] SET_CLI_EVENT_CANCEL_DATA()
  1: 0x0072 [0x75] LOAD_ROOM(Load indoor room, room=265*)
  2: 0x0076 [0x75] LOAD_ROOM(No action)
  3: 0x0078 [0x5D] SET_MUSIC_VOLUME(volume=0*, fade_time=30*)
  4: 0x007D [0x45] LOAD_SCHEDULED_TASK: Load scheduler "fdo0" with entities [LocalPlayer, LocalPlayer], work=[200*, 0*]
  5: 0x008E [0x1C] WAIT(30* ticks)
  6: 0x0091 [0x46] CAMERA_CONTROL: Disable user control
  7: 0x0093 [0x38] SET_CLIENT_EVENT_MODE(mode=3*)
  8: 0x0096 [0x5C] MUSIC_CONTROL: Set Idle (Day) music to song 122*
  9: 0x009A [0x5C] MUSIC_CONTROL: Set Idle (Night) music to song 122*
 10: 0x009E [0x37] UPDATE_EVENT_POSITION_AND_DIR: x=71.285*, z=31.534*, y=-0.094*, direction=301.1째*
 11: 0x00A7 [0x1E] EventEntity looks at Babenn (ID: 17735718/0x010EA026) and starts talking
 12: 0x00AC [0x4A] Babenn (ID: 17735718/0x010EA026) looks at LocalPlayer
 13: 0x00B5 [0x45] LOAD_SCHEDULED_TASK: Load scheduler "s040" with entities [LocalPlayer, LocalPlayer], work=[134*, 0*]
 14: 0x00C6 [0x45] LOAD_SCHEDULED_TASK: Load scheduler "fdi0" with entities [LocalPlayer, LocalPlayer], work=[200*, 0*]
 15: 0x00D7 [0x2B] Babenn (ID: 17735718/0x010EA026) [10674*]:
     "Hmm? What is it you want with an old Galka like me?"
 16: 0x00DE [0x23] WAIT_FOR_DIALOG_INTERACTION
 17: 0x00DF [0x6F] WAIT_FRAME_DELAY: Yield until WaitTime reaches zero
 18: 0x00E0 [0x76] CHECK_ENTITY_RENDER_FLAGS: Wait until Babenn (ID: 17735718/0x010EA026) Render.Flags0 and Render.Flags3 conditions are met
 19: 0x00E5 [0x66] LOAD_EXT_SCHEDULER_MAIN: Load scheduler "tlk0" with entities [Babenn (ID: 17735718/0x010EA026), Babenn (ID: 17735718/0x010EA026)], work=60*
 20: 0x00F4 [0x2B] Babenn (ID: 17735718/0x010EA026) [10675*]:
     "Vigilant...Owl? That name does not mean anything to me."
 21: 0x00FB [0x23] WAIT_FOR_DIALOG_INTERACTION
 22: 0x00FC [0x7B] Babenn (ID: 17735718/0x010EA026) stops talking
 23: 0x0101 [0x45] LOAD_SCHEDULED_TASK: Load scheduler "s041" with entities [LocalPlayer, LocalPlayer], work=[134*, 0*]
 24: 0x0112 [0x27] REQ_SET(priority=0x64, entity_id=Babenn (ID: 17735718/0x010EA026), tag_num=0x03)
 25: 0x0119 [0x1C] WAIT(30* ticks)
 26: 0x011C [0x27] REQ_SET(priority=0x0A, entity_id=Babenn (ID: 17735718/0x010EA026), tag_num=0x07)
 27: 0x0123 [0x2B] Babenn (ID: 17735718/0x010EA026) [10676*]:
     "I have nothing to tell you. Go, and take that old toolbox with you."
 28: 0x012A [0x23] WAIT_FOR_DIALOG_INTERACTION
 29: 0x012B [0x2A] GET_REQ_LEVEL(level=100, entity_id=Babenn (ID: 17735718/0x010EA026))
 30: 0x0131 [0x1C] WAIT(60* ticks)
 31: 0x0134 [0x2B] Gumbah (ID: 17735684/0x010EA004) [10677*]:
     "Ah, now I understand..."
 32: 0x013B [0x23] WAIT_FOR_DIALOG_INTERACTION
 33: 0x013C [0x52] END_LOAD_SCHEDULER: End scheduler "s041" with entities [LocalPlayer, LocalPlayer], work=134*
 34: 0x014B [0x45] LOAD_SCHEDULED_TASK: Load scheduler "s042" with entities [LocalPlayer, LocalPlayer], work=[134*, 0*]
 35: 0x015C [0x4E] SET_ENTITY_HIDE_FLAG: Show Gumbah (ID: 17735684/0x010EA004)
 36: 0x0162 [0x27] REQ_SET(priority=0x64, entity_id=Gumbah (ID: 17735684/0x010EA004), tag_num=0x08)
 37: 0x0169 [0x1C] WAIT(15* ticks)
 38: 0x016C [0x1E] EventEntity looks at Gumbah (ID: 17735684/0x010EA004) and starts talking
 39: 0x0171 [0x4A] Babenn (ID: 17735718/0x010EA026) looks at Gumbah (ID: 17735684/0x010EA004)
 40: 0x017A [0x2B] Gumbah (ID: 17735684/0x010EA004) [10678*]:
     "Is that why you don't like talking about the past, then, Babenn?"
 41: 0x0181 [0x23] WAIT_FOR_DIALOG_INTERACTION
 42: 0x0182 [0x2A] GET_REQ_LEVEL(level=100, entity_id=Gumbah (ID: 17735684/0x010EA004))
 43: 0x0188 [0x5B] LOAD_EXT_SCHEDULER: Load scheduler "tla0" with entities [Gumbah (ID: 17735684/0x010EA004), Gumbah (ID: 17735684/0x010EA004)], work=155*
 44: 0x0197 [0x6F] WAIT_FRAME_DELAY: Yield until WaitTime reaches zero
 45: 0x0198 [0x76] CHECK_ENTITY_RENDER_FLAGS: Wait until Gumbah (ID: 17735684/0x010EA004) Render.Flags0 and Render.Flags3 conditions are met
 46: 0x019D [0x2B] Gumbah (ID: 17735684/0x010EA004) [10679*]:
     "But it's been more than a hundred and fifty years. Don't you think it's time you told your story?"
 47: 0x01A4 [0x23] WAIT_FOR_DIALOG_INTERACTION
 48: 0x01A5 [0x5B] LOAD_EXT_SCHEDULER: Load scheduler "tla1" with entities [Gumbah (ID: 17735684/0x010EA004), Gumbah (ID: 17735684/0x010EA004)], work=155*
 49: 0x01B4 [0x1E] EventEntity looks at Gumbah (ID: 17735684/0x010EA004) and starts talking
 50: 0x01B9 [0x4A] Babenn (ID: 17735718/0x010EA026) looks at Gumbah (ID: 17735684/0x010EA004)
 51: 0x01C2 [0x2B] Babenn (ID: 17735718/0x010EA026) [10680*]:
     "Gumbah... What are you doing here?"
 52: 0x01C9 [0x23] WAIT_FOR_DIALOG_INTERACTION
 53: 0x01CA [0x79] Gumbah (ID: 17735684/0x010EA004) looks at LocalPlayer (Basic look)
 54: 0x01D4 [0x1C] WAIT(10* ticks)
 55: 0x01D7 [0x5B] LOAD_EXT_SCHEDULER: Load scheduler "tlb0" with entities [Gumbah (ID: 17735684/0x010EA004), Gumbah (ID: 17735684/0x010EA004)], work=155*
 56: 0x01E6 [0x2B] Gumbah (ID: 17735684/0x010EA004) [10681*]:
     "You must've figured it out by now, right? Galka in Bastok have two names."
 57: 0x01ED [0x23] WAIT_FOR_DIALOG_INTERACTION
 58: 0x01EE [0x5B] LOAD_EXT_SCHEDULER: Load scheduler "tlb1" with entities [Gumbah (ID: 17735684/0x010EA004), Gumbah (ID: 17735684/0x010EA004)], work=155*
 59: 0x01FD [0x2B] Gumbah (ID: 17735684/0x010EA004) [10682*]:
     "One is our given name. The other...a name that Humes give us if they can't pronounce the first one."
 60: 0x0204 [0x23] WAIT_FOR_DIALOG_INTERACTION
 61: 0x0205 [0x27] REQ_SET(priority=0x0A, entity_id=Gumbah (ID: 17735684/0x010EA004), tag_num=0x0B)
 62: 0x020C [0x79] Gumbah (ID: 17735684/0x010EA004) looks at Babenn (ID: 17735718/0x010EA026) (Basic look)
 63: 0x0216 [0x1C] WAIT(10* ticks)
 64: 0x0219 [0x5B] LOAD_EXT_SCHEDULER: Load scheduler "tla0" with entities [Gumbah (ID: 17735684/0x010EA004), Gumbah (ID: 17735684/0x010EA004)], work=155*
 65: 0x0228 [0x2B] Gumbah (ID: 17735684/0x010EA004) [10683*]:
     ""Vigilant Owl"...that was what they called you, wasn't it, Babenn? You've told me before...and I haven't forgotten."
 66: 0x022F [0x23] WAIT_FOR_DIALOG_INTERACTION
 67: 0x0230 [0x5B] LOAD_EXT_SCHEDULER: Load scheduler "tla1" with entities [Gumbah (ID: 17735684/0x010EA004), Gumbah (ID: 17735684/0x010EA004)], work=155*
 68: 0x023F [0x66] LOAD_EXT_SCHEDULER_MAIN: Load scheduler "dis0" with entities [Babenn (ID: 17735718/0x010EA026), Babenn (ID: 17735718/0x010EA026)], work=60*
 69: 0x024E [0x52] END_LOAD_SCHEDULER: End scheduler "s042" with entities [LocalPlayer, LocalPlayer], work=134*
 70: 0x025D [0x45] LOAD_SCHEDULED_TASK: Load scheduler "s047" with entities [LocalPlayer, LocalPlayer], work=[134*, 0*]
 71: 0x026E [0x2B] Babenn (ID: 17735718/0x010EA026) [10684*]:
     "Meddling child... That was more than a century ago. That name belongs in the past."
 72: 0x0275 [0x23] WAIT_FOR_DIALOG_INTERACTION
 73: 0x0276 [0x4E] SET_ENTITY_HIDE_FLAG: Show Elki (ID: 17735703/0x010EA017)
 74: 0x027C [0x7B] Babenn (ID: 17735718/0x010EA026) stops talking
 75: 0x0281 [0x2B] Babenn (ID: 17735718/0x010EA026) [10685*]:
     "Wait... Who's there? Show yourself!"
 76: 0x0288 [0x23] WAIT_FOR_DIALOG_INTERACTION
 77: 0x0289 [0x27] REQ_SET(priority=0x64, entity_id=Elki (ID: 17735703/0x010EA017), tag_num=0x08)
 78: 0x0290 [0x1C] WAIT(60* ticks)
 79: 0x0293 [0x4A] Gumbah (ID: 17735684/0x010EA004) looks at Elki (ID: 17735703/0x010EA017)
 80: 0x029C [0x52] END_LOAD_SCHEDULER: End scheduler "s047" with entities [LocalPlayer, LocalPlayer], work=134*
 81: 0x02AB [0x45] LOAD_SCHEDULED_TASK: Load scheduler "s043" with entities [LocalPlayer, LocalPlayer], work=[134*, 0*]
 82: 0x02BC [0x79] Babenn (ID: 17735718/0x010EA026) looks at Elki (ID: 17735703/0x010EA017) (Basic look)
 83: 0x02C6 [0x2B] Elki (ID: 17735703/0x010EA017) [10686*]:
     "My great-grandfather did not forget, Sir Vigilant Owl... No, Sir Babenn."
 84: 0x02CD [0x23] WAIT_FOR_DIALOG_INTERACTION
 85: 0x02CE [0x27] REQ_SET(priority=0x64, entity_id=Babenn (ID: 17735718/0x010EA026), tag_num=0x04)
 86: 0x02D5 [0x1C] WAIT(30* ticks)
 87: 0x02D8 [0x4A] Gumbah (ID: 17735684/0x010EA004) looks at Elki (ID: 17735703/0x010EA017)
 88: 0x02E1 [0x2B] Babenn (ID: 17735718/0x010EA026) [10687*]:
     "Omran...!? No, you cannot be him. Humes do not live longer than a hundred years."
 89: 0x02E8 [0x23] WAIT_FOR_DIALOG_INTERACTION
 90: 0x02E9 [0x2A] GET_REQ_LEVEL(level=100, entity_id=Elki (ID: 17735703/0x010EA017))
 91: 0x02EF [0x52] END_LOAD_SCHEDULER: End scheduler "s043" with entities [LocalPlayer, LocalPlayer], work=134*
 92: 0x02FE [0x45] LOAD_SCHEDULED_TASK: Load scheduler "s044" with entities [LocalPlayer, LocalPlayer], work=[134*, 0*]
 93: 0x030F [0x66] LOAD_EXT_SCHEDULER_MAIN: Load scheduler "tlk0" with entities [Elki (ID: 17735703/0x010EA017), Elki (ID: 17735703/0x010EA017)], work=0*
 94: 0x031E [0x2B] Elki (ID: 17735703/0x010EA017) [10688*]:
     "Omran was my great-grandfather. He used to tell me about the mines when I was young...but whenever he did, it was with sadness and regret."
 95: 0x0325 [0x23] WAIT_FOR_DIALOG_INTERACTION
 96: 0x0326 [0x2B] Elki (ID: 17735703/0x010EA017) [10689*]:
     "He often said: "If you manage to achieve anything worthwhile in life, it is because you were lucky enough to have met the best people anyone could meet.""
 97: 0x032D [0x23] WAIT_FOR_DIALOG_INTERACTION
 98: 0x032E [0x27] REQ_SET(priority=0x0A, entity_id=Elki (ID: 17735703/0x010EA017), tag_num=0x0A)
 99: 0x0335 [0x1C] WAIT(30* ticks)
100: 0x0338 [0x7B] Babenn (ID: 17735718/0x010EA026) stops talking
101: 0x033D [0x66] LOAD_EXT_SCHEDULER_MAIN: Load scheduler "thk1" with entities [Babenn (ID: 17735718/0x010EA026), Babenn (ID: 17735718/0x010EA026)], work=60*
102: 0x034C [0x81] SET_ENTITY_BLINKING(blink_flag=0x00, entity=Babenn (ID: 17735718/0x010EA026))
103: 0x0352 [0x2B] Babenn (ID: 17735718/0x010EA026) [10690*]:
     "Omran said that?"
104: 0x0359 [0x23] WAIT_FOR_DIALOG_INTERACTION
105: 0x035A [0x1C] WAIT(100* ticks)
106: 0x035D [0x81] SET_ENTITY_BLINKING(blink_flag=0x01, entity=Babenn (ID: 17735718/0x010EA026))
107: 0x0363 [0x52] END_LOAD_SCHEDULER: End scheduler "s044" with entities [LocalPlayer, LocalPlayer], work=134*
108: 0x0372 [0x45] LOAD_SCHEDULED_TASK: Load scheduler "s037" with entities [LocalPlayer, LocalPlayer], work=[134*, 0*]
109: 0x0383 [0x66] LOAD_EXT_SCHEDULER_MAIN: Load scheduler "thk2" with entities [Babenn (ID: 17735718/0x010EA026), Babenn (ID: 17735718/0x010EA026)], work=60*
110: 0x0392 [0x2B] Babenn (ID: 17735718/0x010EA026) [10691*]:
     "Listen and remember, heir to Omran. In those days, Humes were in need of pride. Pride in having dug a mine without anyone else's help."
111: 0x0399 [0x23] WAIT_FOR_DIALOG_INTERACTION
112: 0x039A [0x2B] Babenn (ID: 17735718/0x010EA026) [10692*]:
     "My name had no place on their monument, and this I accepted."
113: 0x03A1 [0x23] WAIT_FOR_DIALOG_INTERACTION
114: 0x03A2 [0x79] Babenn (ID: 17735718/0x010EA026) looks at Elki (ID: 17735703/0x010EA017) (Basic look)
115: 0x03AC [0x2B] Babenn (ID: 17735718/0x010EA026) [10693*]:
     "Some need their achievements carved in stone, even though stone can weather and fade. It was a small price I paid for their fame."
116: 0x03B3 [0x23] WAIT_FOR_DIALOG_INTERACTION
117: 0x03B4 [0x66] LOAD_EXT_SCHEDULER_MAIN: Load scheduler "sdo0" with entities [Elki (ID: 17735703/0x010EA017), Elki (ID: 17735703/0x010EA017)], work=3*
118: 0x03C3 [0x2B] Elki (ID: 17735703/0x010EA017) [10694*]:
     "No! My great-grandfather did not seek fame!"
119: 0x03CA [0x23] WAIT_FOR_DIALOG_INTERACTION
120: 0x03CB [0x66] LOAD_EXT_SCHEDULER_MAIN: Load scheduler "sdo1" with entities [Elki (ID: 17735703/0x010EA017), Elki (ID: 17735703/0x010EA017)], work=3*
121: 0x03DA [0x7B] Babenn (ID: 17735718/0x010EA026) stops talking
122: 0x03DF [0x52] END_LOAD_SCHEDULER: End scheduler "s037" with entities [LocalPlayer, LocalPlayer], work=134*
123: 0x03EE [0x45] LOAD_SCHEDULED_TASK: Load scheduler "s045" with entities [LocalPlayer, LocalPlayer], work=[134*, 0*]
124: 0x03FF [0x27] REQ_SET(priority=0x64, entity_id=Babenn (ID: 17735718/0x010EA026), tag_num=0x05)
125: 0x0406 [0x2B] Babenn (ID: 17735718/0x010EA026) [10696*]:
     "Enough. You know as well as I do that Galka and Humes do not live in the same flow of time."
126: 0x040D [0x23] WAIT_FOR_DIALOG_INTERACTION
127: 0x040E [0x1C] WAIT(30* ticks)
128: 0x0411 [0x2B] Elki (ID: 17735703/0x010EA017) [10697*]:
     "..."
129: 0x0418 [0x23] WAIT_FOR_DIALOG_INTERACTION
130: 0x0419 [0x79] Babenn (ID: 17735718/0x010EA026) looks at Elki (ID: 17735703/0x010EA017) (Basic look)
131: 0x0423 [0x2B] Babenn (ID: 17735718/0x010EA026) [10698*]:
     "But I can tell you one thing. A hundred and fifty years ago, during those few days when we sought for mythril in the cold, dark tunnels...we saw the world with the same eyes."
132: 0x042A [0x23] WAIT_FOR_DIALOG_INTERACTION
133: 0x042B [0x7B] Babenn (ID: 17735718/0x010EA026) stops talking
134: 0x0430 [0x2B] Babenn (ID: 17735718/0x010EA026) [10699*]:
     "And that, to me, is enough. No matter what people say, and even if the others are long gone, my memories are still with me."
135: 0x0437 [0x23] WAIT_FOR_DIALOG_INTERACTION
136: 0x0438 [0x4A] Babenn (ID: 17735718/0x010EA026) looks at Elki (ID: 17735703/0x010EA017)
137: 0x0441 [0x1C] WAIT(10* ticks)
138: 0x0444 [0x52] END_LOAD_SCHEDULER: End scheduler "s045" with entities [LocalPlayer, LocalPlayer], work=134*
139: 0x0453 [0x45] LOAD_SCHEDULED_TASK: Load scheduler "s038" with entities [LocalPlayer, LocalPlayer], work=[134*, 0*]
140: 0x0464 [0x2B] Babenn (ID: 17735718/0x010EA026) [10700*]:
     "Heir to Omran, seek not the trueness of our bond in days long past, but that of bonds you share with others in this time, in this world."
141: 0x046B [0x23] WAIT_FOR_DIALOG_INTERACTION
142: 0x046C [0x1C] WAIT(30* ticks)
143: 0x046F [0x66] LOAD_EXT_SCHEDULER_MAIN: Load scheduler "ksk0" with entities [Elki (ID: 17735703/0x010EA017), Elki (ID: 17735703/0x010EA017)], work=2*
144: 0x047E [0x2B] Elki (ID: 17735703/0x010EA017) [10701*]:
     "...I understand. Farewell, sir."
145: 0x0485 [0x23] WAIT_FOR_DIALOG_INTERACTION
146: 0x0486 [0x53] WAIT_SCHEDULER_TASK: Wait for scheduler "ksk0" with entities [Elki (ID: 17735703/0x010EA017), Elki (ID: 17735703/0x010EA017)]
147: 0x0493 [0x27] REQ_SET(priority=0x64, entity_id=Elki (ID: 17735703/0x010EA017), tag_num=0x09)
148: 0x049A [0x1C] WAIT(30* ticks)
149: 0x049D [0x55] WAIT_LOAD_SCHEDULER: Wait for scheduler "s038" with entities [LocalPlayer, LocalPlayer], work=134*
150: 0x04AC [0x45] LOAD_SCHEDULED_TASK: Load scheduler "s039" with entities [LocalPlayer, LocalPlayer], work=[134*, 0*]
151: 0x04BD [0x29] REQ_SET_WAIT(priority=0x64, entity_id=Gumbah (ID: 17735684/0x010EA004), tag_num=0x09)
152: 0x04C4 [0x5B] LOAD_EXT_SCHEDULER: Load scheduler "tlc0" with entities [Gumbah (ID: 17735684/0x010EA004), Gumbah (ID: 17735684/0x010EA004)], work=155*
153: 0x04D3 [0x2B] Gumbah (ID: 17735684/0x010EA004) [10702*]:
     "That was pretty complicated... I really hope he understood."
154: 0x04DA [0x23] WAIT_FOR_DIALOG_INTERACTION
155: 0x04DB [0x5B] LOAD_EXT_SCHEDULER: Load scheduler "tlc1" with entities [Gumbah (ID: 17735684/0x010EA004), Gumbah (ID: 17735684/0x010EA004)], work=155*
156: 0x04EA [0x66] LOAD_EXT_SCHEDULER_MAIN: Load scheduler "dis0" with entities [Babenn (ID: 17735718/0x010EA026), Babenn (ID: 17735718/0x010EA026)], work=60*
157: 0x04F9 [0x2B] Babenn (ID: 17735718/0x010EA026) [10703*]:
     "You're the one who complicated matters. You brought him here, did you not?"
158: 0x0500 [0x23] WAIT_FOR_DIALOG_INTERACTION
159: 0x0501 [0x2B] Babenn (ID: 17735718/0x010EA026) [10704*]:
     "And where did you hear about my past? I don't remember telling you."
160: 0x0508 [0x23] WAIT_FOR_DIALOG_INTERACTION
161: 0x0509 [0x5B] LOAD_EXT_SCHEDULER: Load scheduler "tlb0" with entities [Gumbah (ID: 17735684/0x010EA004), Gumbah (ID: 17735684/0x010EA004)], work=155*
162: 0x0518 [0x2B] Gumbah (ID: 17735684/0x010EA004) [10705*]:
     "Oh, really? That's weird... Uh...I think Werei told me, yeah."
163: 0x051F [0x23] WAIT_FOR_DIALOG_INTERACTION
164: 0x0520 [0x5B] LOAD_EXT_SCHEDULER: Load scheduler "tlb1" with entities [Gumbah (ID: 17735684/0x010EA004), Gumbah (ID: 17735684/0x010EA004)], work=155*
165: 0x052F [0x27] REQ_SET(priority=0x0A, entity_id=Babenn (ID: 17735718/0x010EA026), tag_num=0x07)
166: 0x0536 [0x4A] Gumbah (ID: 17735684/0x010EA004) looks at LocalPlayer
167: 0x053F [0x2B] Gumbah (ID: 17735684/0x010EA004) [10706*]:
     "Anyways, I gotta run! Bye!"
168: 0x0546 [0x23] WAIT_FOR_DIALOG_INTERACTION
169: 0x0547 [0x27] REQ_SET(priority=0x64, entity_id=Gumbah (ID: 17735684/0x010EA004), tag_num=0x0A)
170: 0x054E [0x1C] WAIT(150* ticks)
171: 0x0551 [0x27] REQ_SET(priority=0x64, entity_id=Babenn (ID: 17735718/0x010EA026), tag_num=0x06)
172: 0x0558 [0x2B] Babenn (ID: 17735718/0x010EA026) [10707*]:
     "It seems I owe you an apology. This is for bringing my old toolbox back to me. Take it."
173: 0x055F [0x23] WAIT_FOR_DIALOG_INTERACTION
174: 0x0560 [0x2A] GET_REQ_LEVEL(level=100, entity_id=Babenn (ID: 17735718/0x010EA026))
175: 0x0566 [0x5D] SET_MUSIC_VOLUME(volume=0*, fade_time=60*)
176: 0x056B [0x45] LOAD_SCHEDULED_TASK: Load scheduler "fdo1" with entities [LocalPlayer, LocalPlayer], work=[200*, 0*]
177: 0x057C [0x1C] WAIT(60* ticks)
178: 0x057F [0x5C] MUSIC_CONTROL: Set Idle (Day) music to song 152*
179: 0x0583 [0x5C] MUSIC_CONTROL: Set Idle (Night) music to song 152*
180: 0x0587 [0x45] LOAD_SCHEDULED_TASK: Load scheduler "fdi1" with entities [LocalPlayer, LocalPlayer], work=[200*, 0*]
181: 0x0598 [0x45] LOAD_SCHEDULED_TASK: Load scheduler "qstc" with entities [LocalPlayer, LocalPlayer], work=[201*, 0*]
182: 0x05A9 [0x46] CAMERA_CONTROL: Restore default settings
183: 0x05AB [0x21] END_EVENT
184: 0x05AC [0x00] END_REQSTACK()
```

### Event 90

#### Metadata

| Field        | Value   |
|--------------|---------|
| Entrypoint   | 0x05AD  |
| Data Size    | 1 bytes |
| Instructions | 1       |

```
      00 01 02 03 04 05 06 07  08 09 0A 0B 0C 0D 0E 0F
      -- -- -- -- -- -- -- --  -- -- -- -- -- -- -- --
05A0:                                         00                     .  
```

#### Opcodes

```
  0: 0x05AD [0x00] END_REQSTACK()
```

### Event 91

#### Metadata

| Field        | Value   |
|--------------|---------|
| Entrypoint   | 0x05AE  |
| Data Size    | 1 bytes |
| Instructions | 1       |

```
      00 01 02 03 04 05 06 07  08 09 0A 0B 0C 0D 0E 0F
      -- -- -- -- -- -- -- --  -- -- -- -- -- -- -- --
05A0:                                            00                   . 
```

#### Opcodes

```
  0: 0x05AE [0x00] END_REQSTACK()
```

### Event 65535.6

#### Metadata

| Field        | Value    |
|--------------|----------|
| Entrypoint   | 0x05AF   |
| Data Size    | 10 bytes |
| Instructions | 2        |

```
      00 01 02 03 04 05 06 07  08 09 0A 0B 0C 0D 0E 0F
      -- -- -- -- -- -- -- --  -- -- -- -- -- -- -- --
05A0:                                               37                 7
05B0: 4C 80 4D 80 4E 80 4F 80  00                       L.M.N.O..       
```

#### Opcodes

```
  0: 0x05AF [0x37] UPDATE_EVENT_POSITION_AND_DIR: x=14.810*, z=-14.950*, y=6.985*, direction=354.6째*
  1: 0x05B8 [0x00] END_REQSTACK()
```

### Event 65535.7

#### Metadata

| Field        | Value    |
|--------------|----------|
| Entrypoint   | 0x05B9   |
| Data Size    | 53 bytes |
| Instructions | 11       |

```
      00 01 02 03 04 05 06 07  08 09 0A 0B 0C 0D 0E 0F
      -- -- -- -- -- -- -- --  -- -- -- -- -- -- -- --
05B0:                             32 00 80 1F 00 50 80           2....P.
05C0: 51 80 52 80 1F 01 27 0A  51 A0 0E 01 03 1F 00 53  Q.R...'.Q......S
05D0: 80 54 80 55 80 1F 01 1F  00 56 80 57 80 55 80 1F  .T.U.....V.W.U..
05E0: 01 27 0A 51 A0 0E 01 04  1E 39 A0 0E 01 00        .'.Q.....9....  
```

#### Opcodes

```
  0: 0x05B9 [0x32] ExtData[1]->MainSpeed = 13* * 0.1
  1: 0x05BC [0x1F] MOVE_ENTITY: EventEntity moves to X=14.450*, Z=-12.112*, Y=6.992*
  2: 0x05C4 [0x1F] MOVE_ENTITY: Update entity position (mode=1)
  3: 0x05C6 [0x27] REQ_SET(priority=0x0A, entity_id=Door:House (ID: 17735761/0x010EA051), tag_num=0x03)
  4: 0x05CD [0x1F] MOVE_ENTITY: EventEntity moves to X=13.927*, Z=-8.817*, Y=6.999*
  5: 0x05D5 [0x1F] MOVE_ENTITY: Update entity position (mode=1)
  6: 0x05D7 [0x1F] MOVE_ENTITY: EventEntity moves to X=13.741*, Z=-7.050*, Y=6.999*
  7: 0x05DF [0x1F] MOVE_ENTITY: Update entity position (mode=1)
  8: 0x05E1 [0x27] REQ_SET(priority=0x0A, entity_id=Door:House (ID: 17735761/0x010EA051), tag_num=0x04)
  9: 0x05E8 [0x1E] EventEntity looks at Cornelia (ID: 17735737/0x010EA039) and starts talking
 10: 0x05ED [0x00] END_REQSTACK()
```

### Event 65535.8

#### Metadata

| Field        | Value    |
|--------------|----------|
| Entrypoint   | 0x05EE   |
| Data Size    | 15 bytes |
| Instructions | 3        |

```
      00 01 02 03 04 05 06 07  08 09 0A 0B 0C 0D 0E 0F
      -- -- -- -- -- -- -- --  -- -- -- -- -- -- -- --
05E0:                                            37 58                7X
05F0: 80 59 80 55 80 5A 80 1E  37 A0 0E 01 00           .Y.U.Z..7....   
```

#### Opcodes

```
  0: 0x05EE [0x37] UPDATE_EVENT_POSITION_AND_DIR: x=15.261*, z=-13.434*, y=6.999*, direction=36.0째*
  1: 0x05F7 [0x1E] EventEntity looks at Pavvke (ID: 17735735/0x010EA037) and starts talking
  2: 0x05FC [0x00] END_REQSTACK()
```

### Event 1

#### Metadata

| Field        | Value   |
|--------------|---------|
| Entrypoint   | 0x05FD  |
| Data Size    | 8 bytes |
| Instructions | 3       |

```
      00 01 02 03 04 05 06 07  08 09 0A 0B 0C 0D 0E 0F
      -- -- -- -- -- -- -- --  -- -- -- -- -- -- -- --
05F0:                                         03 02 10               ...
0600: 0B 7F 22 00 00                                    .."..           
```

#### Opcodes

```
  0: 0x05FD [0x03] Work_Zone[2] = (Entity->Render.Flags01 >> 25) & 1
  1: 0x0602 [0x22] ENTITY_HIDE_FLAG(enabled=0x00)
  2: 0x0604 [0x00] END_REQSTACK()
```

### Event 93

#### Metadata

| Field        | Value     |
|--------------|-----------|
| Entrypoint   | 0x0605    |
| Data Size    | 602 bytes |
| Instructions | 73        |

```
      00 01 02 03 04 05 06 07  08 09 0A 0B 0C 0D 0E 0F
      -- -- -- -- -- -- -- --  -- -- -- -- -- -- -- --
0600:                03 09 10  5B 80 42 45 1A 80 F0 FF       ...[.BE....
0610: FF 7F F0 FF FF 7F 66 64  6F 30 0C 80 1C 19 80 46  ......fdo0.....F
0620: 01 37 5C 80 5D 80 55 80  5E 80 38 1B 80 4A 16 A0  .7\.].U.^.8..J..
0630: 0E 01 F0 FF FF 7F 45 21  80 F0 FF FF 7F F0 FF FF  ......E!........
0640: 7F 73 30 31 37 0C 80 45  1A 80 F0 FF FF 7F F0 FF  .s017..E........
0650: FF 7F 66 64 69 30 0C 80  2B 16 A0 0E 01 5F 80 23  ..fdi0..+...._.#
0660: 45 21 80 F0 FF FF 7F F0  FF FF 7F 73 30 31 38 0C  E!.........s018.
0670: 80 27 0A 04 A0 0E 01 0D  1C 60 80 2B 04 A0 0E 01  .'.......`.+....
0680: 61 80 23 4A 16 A0 0E 01  04 A0 0E 01 1C 27 80 5B  a.#J.........'.[
0690: 62 80 16 A0 0E 01 16 A0  0E 01 74 6C 62 30 79 00  b.........tlb0y.
06A0: 04 A0 0E 01 F0 FF FF 7F  5B 62 80 16 A0 0E 01 16  ........[b......
06B0: A0 0E 01 74 6C 62 30 2B  16 A0 0E 01 63 80 23 5B  ...tlb0+....c.#[
06C0: 62 80 16 A0 0E 01 16 A0  0E 01 74 6C 62 31 5B 29  b.........tlb1[)
06D0: 80 04 A0 0E 01 04 A0 0E  01 74 6C 62 30 79 00 04  .........tlb0y..
06E0: A0 0E 01 16 A0 0E 01 2B  04 A0 0E 01 64 80 23 5B  .......+....d.#[
06F0: 29 80 04 A0 0E 01 04 A0  0E 01 74 6C 62 31 5B 62  ).........tlb1[b
0700: 80 16 A0 0E 01 16 A0 0E  01 74 6C 6B 30 2B 16 A0  .........tlk0+..
0710: 0E 01 65 80 23 2B 16 A0  0E 01 66 80 23 5B 62 80  ..e.#+....f.#[b.
0720: 16 A0 0E 01 16 A0 0E 01  74 6C 6B 31 53 04 A0 0E  ........tlk1S...
0730: 01 04 A0 0E 01 74 6C 62  31 5B 29 80 04 A0 0E 01  .....tlb1[).....
0740: 04 A0 0E 01 74 6C 63 30  2B 04 A0 0E 01 67 80 23  ....tlc0+....g.#
0750: 5B 29 80 04 A0 0E 01 04  A0 0E 01 74 6C 63 31 7B  [).........tlc1{
0760: 16 A0 0E 01 5B 62 80 16  A0 0E 01 16 A0 0E 01 74  ....[b.........t
0770: 6C 62 30 2B 16 A0 0E 01  68 80 23 5B 62 80 16 A0  lb0+....h.#[b...
0780: 0E 01 16 A0 0E 01 74 6C  62 31 27 0A 04 A0 0E 01  ......tlb1'.....
0790: 0E 2B 04 A0 0E 01 69 80  23 53 04 A0 0E 01 04 A0  .+....i.#S......
07A0: 0E 01 77 61 76 30 79 00  16 A0 0E 01 04 A0 0E 01  ..wav0y.........
07B0: 1C 2C 80 5B 62 80 16 A0  0E 01 16 A0 0E 01 74 6C  .,.[b.........tl
07C0: 62 30 2B 16 A0 0E 01 6A  80 23 5B 62 80 16 A0 0E  b0+....j.#[b....
07D0: 01 16 A0 0E 01 74 6C 62  31 45 21 80 F0 FF FF 7F  .....tlb1E!.....
07E0: F0 FF FF 7F 73 30 31 39  0C 80 1C 6B 80 4A 16 A0  ....s019...k.J..
07F0: 0E 01 F0 FF FF 7F 1C 19  80 2B 16 A0 0E 01 6C 80  .........+....l.
0800: 23 5B 62 80 16 A0 0E 01  16 A0 0E 01 74 6C 6B 30  #[b.........tlk0
0810: 2B 16 A0 0E 01 6D 80 23  5B 62 80 16 A0 0E 01 16  +....m.#[b......
0820: A0 0E 01 74 6C 6B 31 45  1A 80 F0 FF FF 7F F0 FF  ...tlk1E........
0830: FF 7F 66 64 6F 31 0C 80  1C 23 80 52 21 80 F0 FF  ..fdo1...#.R!...
0840: FF 7F F0 FF FF 7F 73 30  31 39 46 00 45 1A 80 F0  ......s019F.E...
0850: FF FF 7F F0 FF FF 7F 66  64 69 31 0C 80 21 00     .......fdi1..!. 
```

#### Opcodes

```
  0: 0x0605 [0x03] Work_Zone[9] = 12417*
  1: 0x060A [0x42] SET_CLI_EVENT_CANCEL_DATA()
  2: 0x060B [0x45] LOAD_SCHEDULED_TASK: Load scheduler "fdo0" with entities [LocalPlayer, LocalPlayer], work=[200*, 0*]
  3: 0x061C [0x1C] WAIT(30* ticks)
  4: 0x061F [0x46] CAMERA_CONTROL: Disable user control
  5: 0x0621 [0x37] UPDATE_EVENT_POSITION_AND_DIR: x=4.229*, z=11.468*, y=6.999*, direction=58.8째*
  6: 0x062A [0x38] SET_CLIENT_EVENT_MODE(mode=3*)
  7: 0x062D [0x4A] Detzo (ID: 17735702/0x010EA016) looks at LocalPlayer
  8: 0x0636 [0x45] LOAD_SCHEDULED_TASK: Load scheduler "s017" with entities [LocalPlayer, LocalPlayer], work=[134*, 0*]
  9: 0x0647 [0x45] LOAD_SCHEDULED_TASK: Load scheduler "fdi0" with entities [LocalPlayer, LocalPlayer], work=[200*, 0*]
 10: 0x0658 [0x2B] Detzo (ID: 17735702/0x010EA016) [10613*]:
     "Hey, you! Did you see a small Galka called "Gumbah"?"
 11: 0x065F [0x23] WAIT_FOR_DIALOG_INTERACTION
 12: 0x0660 [0x45] LOAD_SCHEDULED_TASK: Load scheduler "s018" with entities [LocalPlayer, LocalPlayer], work=[134*, 0*]
 13: 0x0671 [0x27] REQ_SET(priority=0x0A, entity_id=Gumbah (ID: 17735684/0x010EA004), tag_num=0x0D)
 14: 0x0678 [0x1C] WAIT(120* ticks)
 15: 0x067B [0x2B] Gumbah (ID: 17735684/0x010EA004) [10614*]:
     "I'm here. What do you want?"
 16: 0x0682 [0x23] WAIT_FOR_DIALOG_INTERACTION
 17: 0x0683 [0x4A] Detzo (ID: 17735702/0x010EA016) looks at Gumbah (ID: 17735684/0x010EA004)
 18: 0x068C [0x1C] WAIT(15* ticks)
 19: 0x068F [0x5B] LOAD_EXT_SCHEDULER: Load scheduler "tlb0" with entities [Detzo (ID: 17735702/0x010EA016), Detzo (ID: 17735702/0x010EA016)], work=90*
 20: 0x069E [0x79] Gumbah (ID: 17735684/0x010EA004) looks at LocalPlayer (Basic look)
 21: 0x06A8 [0x5B] LOAD_EXT_SCHEDULER: Load scheduler "tlb0" with entities [Detzo (ID: 17735702/0x010EA016), Detzo (ID: 17735702/0x010EA016)], work=90*
 22: 0x06B7 [0x2B] Detzo (ID: 17735702/0x010EA016) [10615*]:
     "Ah! Finally, we meet again! Prepare to face your doom!"
 23: 0x06BE [0x23] WAIT_FOR_DIALOG_INTERACTION
 24: 0x06BF [0x5B] LOAD_EXT_SCHEDULER: Load scheduler "tlb1" with entities [Detzo (ID: 17735702/0x010EA016), Detzo (ID: 17735702/0x010EA016)], work=90*
 25: 0x06CE [0x5B] LOAD_EXT_SCHEDULER: Load scheduler "tlb0" with entities [Gumbah (ID: 17735684/0x010EA004), Gumbah (ID: 17735684/0x010EA004)], work=155*
 26: 0x06DD [0x79] Gumbah (ID: 17735684/0x010EA004) looks at Detzo (ID: 17735702/0x010EA016) (Basic look)
 27: 0x06E7 [0x2B] Gumbah (ID: 17735684/0x010EA004) [10616*]:
     "Oh, not again. Didn't I beat you last time? You've always been such a pestering child..."
 28: 0x06EE [0x23] WAIT_FOR_DIALOG_INTERACTION
 29: 0x06EF [0x5B] LOAD_EXT_SCHEDULER: Load scheduler "tlb1" with entities [Gumbah (ID: 17735684/0x010EA004), Gumbah (ID: 17735684/0x010EA004)], work=155*
 30: 0x06FE [0x5B] LOAD_EXT_SCHEDULER: Load scheduler "tlk0" with entities [Detzo (ID: 17735702/0x010EA016), Detzo (ID: 17735702/0x010EA016)], work=90*
 31: 0x070D [0x2B] Detzo (ID: 17735702/0x010EA016) [10617*]:
     "Hey, you're not much older than I am! Don't talk to me like you're some old man!"
 32: 0x0714 [0x23] WAIT_FOR_DIALOG_INTERACTION
 33: 0x0715 [0x2B] Detzo (ID: 17735702/0x010EA016) [10618*]:
     "And you cheated last time! You brought one of Werei's old swords!"
 34: 0x071C [0x23] WAIT_FOR_DIALOG_INTERACTION
 35: 0x071D [0x5B] LOAD_EXT_SCHEDULER: Load scheduler "tlk1" with entities [Detzo (ID: 17735702/0x010EA016), Detzo (ID: 17735702/0x010EA016)], work=90*
 36: 0x072C [0x53] WAIT_SCHEDULER_TASK: Wait for scheduler "tlb1" with entities [Gumbah (ID: 17735684/0x010EA004), Gumbah (ID: 17735684/0x010EA004)]
 37: 0x0739 [0x5B] LOAD_EXT_SCHEDULER: Load scheduler "tlc0" with entities [Gumbah (ID: 17735684/0x010EA004), Gumbah (ID: 17735684/0x010EA004)], work=155*
 38: 0x0748 [0x2B] Gumbah (ID: 17735684/0x010EA004) [10619*]:
     "You didn't say I couldn't. Besides, you cheated first. I saw you borrow Deidogg's sword."
 39: 0x074F [0x23] WAIT_FOR_DIALOG_INTERACTION
 40: 0x0750 [0x5B] LOAD_EXT_SCHEDULER: Load scheduler "tlc1" with entities [Gumbah (ID: 17735684/0x010EA004), Gumbah (ID: 17735684/0x010EA004)], work=155*
 41: 0x075F [0x7B] Detzo (ID: 17735702/0x010EA016) stops talking
 42: 0x0764 [0x5B] LOAD_EXT_SCHEDULER: Load scheduler "tlb0" with entities [Detzo (ID: 17735702/0x010EA016), Detzo (ID: 17735702/0x010EA016)], work=90*
 43: 0x0773 [0x2B] Detzo (ID: 17735702/0x010EA016) [10620*]:
     "Urk... Well, uh...forget swords! This time, it's helms! Whoever brings the best helm wins! And don't bring any of Werei's, Gumbah!"
 44: 0x077A [0x23] WAIT_FOR_DIALOG_INTERACTION
 45: 0x077B [0x5B] LOAD_EXT_SCHEDULER: Load scheduler "tlb1" with entities [Detzo (ID: 17735702/0x010EA016), Detzo (ID: 17735702/0x010EA016)], work=90*
 46: 0x078A [0x27] REQ_SET(priority=0x0A, entity_id=Gumbah (ID: 17735684/0x010EA004), tag_num=0x0E)
 47: 0x0791 [0x2B] Gumbah (ID: 17735684/0x010EA004) [10621*]:
     "Oh, please... Fine, I forfeit. You win. Can I go now?"
 48: 0x0798 [0x23] WAIT_FOR_DIALOG_INTERACTION
 49: 0x0799 [0x53] WAIT_SCHEDULER_TASK: Wait for scheduler "wav0" with entities [Gumbah (ID: 17735684/0x010EA004), Gumbah (ID: 17735684/0x010EA004)]
 50: 0x07A6 [0x79] Detzo (ID: 17735702/0x010EA016) looks at Gumbah (ID: 17735684/0x010EA004) (Basic look)
 51: 0x07B0 [0x1C] WAIT(10* ticks)
 52: 0x07B3 [0x5B] LOAD_EXT_SCHEDULER: Load scheduler "tlb0" with entities [Detzo (ID: 17735702/0x010EA016), Detzo (ID: 17735702/0x010EA016)], work=90*
 53: 0x07C2 [0x2B] Detzo (ID: 17735702/0x010EA016) [10622*]:
     "No, no, no! You're not running away again!"
 54: 0x07C9 [0x23] WAIT_FOR_DIALOG_INTERACTION
 55: 0x07CA [0x5B] LOAD_EXT_SCHEDULER: Load scheduler "tlb1" with entities [Detzo (ID: 17735702/0x010EA016), Detzo (ID: 17735702/0x010EA016)], work=90*
 56: 0x07D9 [0x45] LOAD_SCHEDULED_TASK: Load scheduler "s019" with entities [LocalPlayer, LocalPlayer], work=[134*, 0*]
 57: 0x07EA [0x1C] WAIT(45* ticks)
 58: 0x07ED [0x4A] Detzo (ID: 17735702/0x010EA016) looks at LocalPlayer
 59: 0x07F6 [0x1C] WAIT(30* ticks)
 60: 0x07F9 [0x2B] Detzo (ID: 17735702/0x010EA016) [10623*]:
     "Anyway, I'm thinking of bringing $7. Hey, you're an adventurer, right? You have one, don't you?"
 61: 0x0800 [0x23] WAIT_FOR_DIALOG_INTERACTION
 62: 0x0801 [0x5B] LOAD_EXT_SCHEDULER: Load scheduler "tlk0" with entities [Detzo (ID: 17735702/0x010EA016), Detzo (ID: 17735702/0x010EA016)], work=90*
 63: 0x0810 [0x2B] Detzo (ID: 17735702/0x010EA016) [10624*]:
     "Can I borrow it for just a few seconds? I'll give it back, promise! I'll even give you a reward!"
 64: 0x0817 [0x23] WAIT_FOR_DIALOG_INTERACTION
 65: 0x0818 [0x5B] LOAD_EXT_SCHEDULER: Load scheduler "tlk1" with entities [Detzo (ID: 17735702/0x010EA016), Detzo (ID: 17735702/0x010EA016)], work=90*
 66: 0x0827 [0x45] LOAD_SCHEDULED_TASK: Load scheduler "fdo1" with entities [LocalPlayer, LocalPlayer], work=[200*, 0*]
 67: 0x0838 [0x1C] WAIT(60* ticks)
 68: 0x083B [0x52] END_LOAD_SCHEDULER: End scheduler "s019" with entities [LocalPlayer, LocalPlayer], work=134*
 69: 0x084A [0x46] CAMERA_CONTROL: Restore default settings
 70: 0x084C [0x45] LOAD_SCHEDULED_TASK: Load scheduler "fdi1" with entities [LocalPlayer, LocalPlayer], work=[200*, 0*]
 71: 0x085D [0x21] END_EVENT
 72: 0x085E [0x00] END_REQSTACK()
```

### Event 94

#### Metadata

| Field        | Value     |
|--------------|-----------|
| Entrypoint   | 0x085F    |
| Data Size    | 690 bytes |
| Instructions | 92        |

```
      00 01 02 03 04 05 06 07  08 09 0A 0B 0C 0D 0E 0F
      -- -- -- -- -- -- -- --  -- -- -- -- -- -- -- --
0850:                                               03                 .
0860: 09 10 5B 80 03 08 10 6E  80 20 01 42 45 1A 80 F0  ..[....n. .BE...
0870: FF FF 7F F0 FF FF 7F 66  64 6F 30 0C 80 1C 19 80  .......fdo0.....
0880: 46 01 38 1B 80 37 6F 80  70 80 55 80 71 80 27 0A  F.8..7o.p.U.q.'.
0890: 04 A0 0E 01 10 45 21 80  F0 FF FF 7F F0 FF FF 7F  .....E!.........
08A0: 73 30 32 32 0C 80 45 1A  80 F0 FF FF 7F F0 FF FF  s022..E.........
08B0: 7F 66 64 69 30 0C 80 1C  2C 80 4A 16 A0 0E 01 F0  .fdi0...,.J.....
08C0: FF FF 7F 1C 2C 80 2B 16  A0 0E 01 72 80 23 2B 04  ....,.+....r.#+.
08D0: A0 0E 01 73 80 23 4A 16  A0 0E 01 04 A0 0E 01 1C  ...s.#J.........
08E0: 27 80 2A 0A 04 A0 0E 01  5B 62 80 16 A0 0E 01 16  '.*.....[b......
08F0: A0 0E 01 74 6C 62 30 2B  16 A0 0E 01 74 80 23 5B  ...tlb0+....t.#[
0900: 62 80 16 A0 0E 01 16 A0  0E 01 74 6C 62 31 5B 29  b.........tlb1[)
0910: 80 04 A0 0E 01 04 A0 0E  01 74 6C 62 30 2B 04 A0  .........tlb0+..
0920: 0E 01 75 80 23 5B 29 80  04 A0 0E 01 04 A0 0E 01  ..u.#[).........
0930: 74 6C 62 31 55 21 80 F0  FF FF 7F F0 FF FF 7F 73  tlb1U!.........s
0940: 30 32 32 45 21 80 F0 FF  FF 7F F0 FF FF 7F 73 30  022E!.........s0
0950: 32 33 0C 80 27 0A 39 A0  0E 01 09 1C 23 80 2B 39  23..'.9.....#.+9
0960: A0 0E 01 76 80 23 2A 0A  39 A0 0E 01 1C 77 80 79  ...v.#*.9....w.y
0970: 00 04 A0 0E 01 16 A0 0E  01 2B 04 A0 0E 01 78 80  .........+....x.
0980: 23 79 00 16 A0 0E 01 04  A0 0E 01 1C 27 80 5B 62  #y..........'.[b
0990: 80 16 A0 0E 01 16 A0 0E  01 74 6C 6B 30 2B 16 A0  .........tlk0+..
09A0: 0E 01 79 80 23 5B 62 80  16 A0 0E 01 16 A0 0E 01  ..y.#[b.........
09B0: 74 6C 6B 31 79 00 39 A0  0E 01 16 A0 0E 01 2B 39  tlk1y.9.......+9
09C0: A0 0E 01 7A 80 23 1C 77  80 79 00 39 A0 0E 01 04  ...z.#.w.y.9....
09D0: A0 0E 01 55 21 80 F0 FF  FF 7F F0 FF FF 7F 73 30  ...U!.........s0
09E0: 32 33 45 21 80 F0 FF FF  7F F0 FF FF 7F 73 30 32  23E!.........s02
09F0: 34 0C 80 5B 7B 80 39 A0  0E 01 39 A0 0E 01 69 6B  4..[{.9...9...ik
0A00: 72 30 2B 39 A0 0E 01 7C  80 23 27 0A 04 A0 0E 01  r0+9...|.#'.....
0A10: 11 1C 23 80 2B 04 A0 0E  01 7D 80 23 2A 0A 04 A0  ..#.+....}.#*...
0A20: 0E 01 5B 62 80 16 A0 0E  01 16 A0 0E 01 74 6C 62  ..[b.........tlb
0A30: 30 2B 16 A0 0E 01 7E 80  23 5B 62 80 16 A0 0E 01  0+....~.#[b.....
0A40: 16 A0 0E 01 74 6C 62 31  2A 0A 04 A0 0E 01 27 0A  ....tlb1*.....'.
0A50: 04 A0 0E 01 12 2B 04 A0  0E 01 7F 80 23 5B 7B 80  .....+......#[{.
0A60: 39 A0 0E 01 39 A0 0E 01  69 6B 72 31 2B 39 A0 0E  9...9...ikr1+9..
0A70: 01 80 80 23 2A 0A 04 A0  0E 01 53 39 A0 0E 01 39  ...#*.....S9...9
0A80: A0 0E 01 69 6B 72 31 27  0A 39 A0 0E 01 0A 1C 23  ...ikr1'.9.....#
0A90: 80 52 21 80 F0 FF FF 7F  F0 FF FF 7F 73 30 32 34  .R!.........s024
0AA0: 45 21 80 F0 FF FF 7F F0  FF FF 7F 73 30 32 35 0C  E!.........s025.
0AB0: 80 1C 77 80 4A 16 A0 0E  01 F0 FF FF 7F 1C 19 80  ..w.J...........
0AC0: 5B 62 80 16 A0 0E 01 16  A0 0E 01 70 61 73 30 2B  [b.........pas0+
0AD0: 16 A0 0E 01 81 80 23 45  1A 80 F0 FF FF 7F F0 FF  ......#E........
0AE0: FF 7F 66 64 6F 31 0C 80  1C 23 80 45 1A 80 F0 FF  ..fdo1...#.E....
0AF0: FF 7F F0 FF FF 7F 66 64  69 31 0C 80 46 00 45 4B  ......fdi1..F.EK
0B00: 80 F0 FF FF 7F F0 FF FF  7F 71 73 74 63 0C 80 21  .........qstc..!
0B10: 00                                                .               
```

#### Opcodes

```
  0: 0x085F [0x03] Work_Zone[9] = 12417*
  1: 0x0864 [0x03] Work_Zone[8] = 12418*
  2: 0x0869 [0x20] SET_CLI_EVENT_UC_FLAG: Lock player control
  3: 0x086B [0x42] SET_CLI_EVENT_CANCEL_DATA()
  4: 0x086C [0x45] LOAD_SCHEDULED_TASK: Load scheduler "fdo0" with entities [LocalPlayer, LocalPlayer], work=[200*, 0*]
  5: 0x087D [0x1C] WAIT(30* ticks)
  6: 0x0880 [0x46] CAMERA_CONTROL: Disable user control
  7: 0x0882 [0x38] SET_CLIENT_EVENT_MODE(mode=3*)
  8: 0x0885 [0x37] UPDATE_EVENT_POSITION_AND_DIR: x=5.139*, z=12.465*, y=6.999*, direction=95.9째*
  9: 0x088E [0x27] REQ_SET(priority=0x0A, entity_id=Gumbah (ID: 17735684/0x010EA004), tag_num=0x10)
 10: 0x0895 [0x45] LOAD_SCHEDULED_TASK: Load scheduler "s022" with entities [LocalPlayer, LocalPlayer], work=[134*, 0*]
 11: 0x08A6 [0x45] LOAD_SCHEDULED_TASK: Load scheduler "fdi0" with entities [LocalPlayer, LocalPlayer], work=[200*, 0*]
 12: 0x08B7 [0x1C] WAIT(10* ticks)
 13: 0x08BA [0x4A] Detzo (ID: 17735702/0x010EA016) looks at LocalPlayer
 14: 0x08C3 [0x1C] WAIT(10* ticks)
 15: 0x08C6 [0x2B] Detzo (ID: 17735702/0x010EA016) [10625*]:
     "Ooh! $7! Thanks! Now I'll show that Gumbah..."
 16: 0x08CD [0x23] WAIT_FOR_DIALOG_INTERACTION
 17: 0x08CE [0x2B] Gumbah (ID: 17735684/0x010EA004) [10626*]:
     "You're borrowing again..."
 18: 0x08D5 [0x23] WAIT_FOR_DIALOG_INTERACTION
 19: 0x08D6 [0x4A] Detzo (ID: 17735702/0x010EA016) looks at Gumbah (ID: 17735684/0x010EA004)
 20: 0x08DF [0x1C] WAIT(15* ticks)
 21: 0x08E2 [0x2A] GET_REQ_LEVEL(level=10, entity_id=Gumbah (ID: 17735684/0x010EA004))
 22: 0x08E8 [0x5B] LOAD_EXT_SCHEDULER: Load scheduler "tlb0" with entities [Detzo (ID: 17735702/0x010EA016), Detzo (ID: 17735702/0x010EA016)], work=90*
 23: 0x08F7 [0x2B] Detzo (ID: 17735702/0x010EA016) [10627*]:
     "There you are! Ha-ha! Look, I have $7! Victory is mine!"
 24: 0x08FE [0x23] WAIT_FOR_DIALOG_INTERACTION
 25: 0x08FF [0x5B] LOAD_EXT_SCHEDULER: Load scheduler "tlb1" with entities [Detzo (ID: 17735702/0x010EA016), Detzo (ID: 17735702/0x010EA016)], work=90*
 26: 0x090E [0x5B] LOAD_EXT_SCHEDULER: Load scheduler "tlb0" with entities [Gumbah (ID: 17735684/0x010EA004), Gumbah (ID: 17735684/0x010EA004)], work=155*
 27: 0x091D [0x2B] Gumbah (ID: 17735684/0x010EA004) [10628*]:
     "Uh-huh, good for you. My helm should be here soon."
 28: 0x0924 [0x23] WAIT_FOR_DIALOG_INTERACTION
 29: 0x0925 [0x5B] LOAD_EXT_SCHEDULER: Load scheduler "tlb1" with entities [Gumbah (ID: 17735684/0x010EA004), Gumbah (ID: 17735684/0x010EA004)], work=155*
 30: 0x0934 [0x55] WAIT_LOAD_SCHEDULER: Wait for scheduler "s022" with entities [LocalPlayer, LocalPlayer], work=134*
 31: 0x0943 [0x45] LOAD_SCHEDULED_TASK: Load scheduler "s023" with entities [LocalPlayer, LocalPlayer], work=[134*, 0*]
 32: 0x0954 [0x27] REQ_SET(priority=0x0A, entity_id=Cornelia (ID: 17735737/0x010EA039), tag_num=0x09)
 33: 0x095B [0x1C] WAIT(60* ticks)
 34: 0x095E [0x2B] Cornelia (ID: 17735737/0x010EA039) [10629*]:
     "There you are! Here, I brought the $6 you asked for!"
 35: 0x0965 [0x23] WAIT_FOR_DIALOG_INTERACTION
 36: 0x0966 [0x2A] GET_REQ_LEVEL(level=10, entity_id=Cornelia (ID: 17735737/0x010EA039))
 37: 0x096C [0x1C] WAIT(20* ticks)
 38: 0x096F [0x79] Gumbah (ID: 17735684/0x010EA004) looks at Detzo (ID: 17735702/0x010EA016) (Basic look)
 39: 0x0979 [0x2B] Gumbah (ID: 17735684/0x010EA004) [10630*]:
     "How's this? Do I win?"
 40: 0x0980 [0x23] WAIT_FOR_DIALOG_INTERACTION
 41: 0x0981 [0x79] Detzo (ID: 17735702/0x010EA016) looks at Gumbah (ID: 17735684/0x010EA004) (Basic look)
 42: 0x098B [0x1C] WAIT(15* ticks)
 43: 0x098E [0x5B] LOAD_EXT_SCHEDULER: Load scheduler "tlk0" with entities [Detzo (ID: 17735702/0x010EA016), Detzo (ID: 17735702/0x010EA016)], work=90*
 44: 0x099D [0x2B] Detzo (ID: 17735702/0x010EA016) [10631*]:
     "Hey! That's not fair! You tricked her into bringing you that helm!"
 45: 0x09A4 [0x23] WAIT_FOR_DIALOG_INTERACTION
 46: 0x09A5 [0x5B] LOAD_EXT_SCHEDULER: Load scheduler "tlk1" with entities [Detzo (ID: 17735702/0x010EA016), Detzo (ID: 17735702/0x010EA016)], work=90*
 47: 0x09B4 [0x79] Cornelia (ID: 17735737/0x010EA039) looks at Detzo (ID: 17735702/0x010EA016) (Basic look)
 48: 0x09BE [0x2B] Cornelia (ID: 17735737/0x010EA039) [10632*]:
     "Huh? Tricked? What's going on? Where's the Galka adventurer who needed a helm?"
 49: 0x09C5 [0x23] WAIT_FOR_DIALOG_INTERACTION
 50: 0x09C6 [0x1C] WAIT(20* ticks)
 51: 0x09C9 [0x79] Cornelia (ID: 17735737/0x010EA039) looks at Gumbah (ID: 17735684/0x010EA004) (Basic look)
 52: 0x09D3 [0x55] WAIT_LOAD_SCHEDULER: Wait for scheduler "s023" with entities [LocalPlayer, LocalPlayer], work=134*
 53: 0x09E2 [0x45] LOAD_SCHEDULED_TASK: Load scheduler "s024" with entities [LocalPlayer, LocalPlayer], work=[134*, 0*]
 54: 0x09F3 [0x5B] LOAD_EXT_SCHEDULER: Load scheduler "ikr0" with entities [Cornelia (ID: 17735737/0x010EA039), Cornelia (ID: 17735737/0x010EA039)], work=146*
 55: 0x0A02 [0x2B] Cornelia (ID: 17735737/0x010EA039) [10633*]:
     "Gumbah! Were you lying to me? Explain yourself!"
 56: 0x0A09 [0x23] WAIT_FOR_DIALOG_INTERACTION
 57: 0x0A0A [0x27] REQ_SET(priority=0x0A, entity_id=Gumbah (ID: 17735684/0x010EA004), tag_num=0x11)
 58: 0x0A11 [0x1C] WAIT(60* ticks)
 59: 0x0A14 [0x2B] Gumbah (ID: 17735684/0x010EA004) [10634*]:
     "Well, uh... I gotta go!"
 60: 0x0A1B [0x23] WAIT_FOR_DIALOG_INTERACTION
 61: 0x0A1C [0x2A] GET_REQ_LEVEL(level=10, entity_id=Gumbah (ID: 17735684/0x010EA004))
 62: 0x0A22 [0x5B] LOAD_EXT_SCHEDULER: Load scheduler "tlb0" with entities [Detzo (ID: 17735702/0x010EA016), Detzo (ID: 17735702/0x010EA016)], work=90*
 63: 0x0A31 [0x2B] Detzo (ID: 17735702/0x010EA016) [10635*]:
     "Hey! If you run, I win! Ha! What do you say to that!?"
 64: 0x0A38 [0x23] WAIT_FOR_DIALOG_INTERACTION
 65: 0x0A39 [0x5B] LOAD_EXT_SCHEDULER: Load scheduler "tlb1" with entities [Detzo (ID: 17735702/0x010EA016), Detzo (ID: 17735702/0x010EA016)], work=90*
 66: 0x0A48 [0x2A] GET_REQ_LEVEL(level=10, entity_id=Gumbah (ID: 17735684/0x010EA004))
 67: 0x0A4E [0x27] REQ_SET(priority=0x0A, entity_id=Gumbah (ID: 17735684/0x010EA004), tag_num=0x12)
 68: 0x0A55 [0x2B] Gumbah (ID: 17735684/0x010EA004) [10636*]:
     "Fine by me! See you!"
 69: 0x0A5C [0x23] WAIT_FOR_DIALOG_INTERACTION
 70: 0x0A5D [0x5B] LOAD_EXT_SCHEDULER: Load scheduler "ikr1" with entities [Cornelia (ID: 17735737/0x010EA039), Cornelia (ID: 17735737/0x010EA039)], work=146*
 71: 0x0A6C [0x2B] Cornelia (ID: 17735737/0x010EA039) [10637*]:
     "Gumbah! Come back here this instant!"
 72: 0x0A73 [0x23] WAIT_FOR_DIALOG_INTERACTION
 73: 0x0A74 [0x2A] GET_REQ_LEVEL(level=10, entity_id=Gumbah (ID: 17735684/0x010EA004))
 74: 0x0A7A [0x53] WAIT_SCHEDULER_TASK: Wait for scheduler "ikr1" with entities [Cornelia (ID: 17735737/0x010EA039), Cornelia (ID: 17735737/0x010EA039)]
 75: 0x0A87 [0x27] REQ_SET(priority=0x0A, entity_id=Cornelia (ID: 17735737/0x010EA039), tag_num=0x0A)
 76: 0x0A8E [0x1C] WAIT(60* ticks)
 77: 0x0A91 [0x52] END_LOAD_SCHEDULER: End scheduler "s024" with entities [LocalPlayer, LocalPlayer], work=134*
 78: 0x0AA0 [0x45] LOAD_SCHEDULED_TASK: Load scheduler "s025" with entities [LocalPlayer, LocalPlayer], work=[134*, 0*]
 79: 0x0AB1 [0x1C] WAIT(20* ticks)
 80: 0x0AB4 [0x4A] Detzo (ID: 17735702/0x010EA016) looks at LocalPlayer
 81: 0x0ABD [0x1C] WAIT(30* ticks)
 82: 0x0AC0 [0x5B] LOAD_EXT_SCHEDULER: Load scheduler "pas0" with entities [Detzo (ID: 17735702/0x010EA016), Detzo (ID: 17735702/0x010EA016)], work=90*
 83: 0x0ACF [0x2B] Detzo (ID: 17735702/0x010EA016) [10638*]:
     "Why do I feel like I've lost? Anyway, thanks. Here's the reward I promised you."
 84: 0x0AD6 [0x23] WAIT_FOR_DIALOG_INTERACTION
 85: 0x0AD7 [0x45] LOAD_SCHEDULED_TASK: Load scheduler "fdo1" with entities [LocalPlayer, LocalPlayer], work=[200*, 0*]
 86: 0x0AE8 [0x1C] WAIT(60* ticks)
 87: 0x0AEB [0x45] LOAD_SCHEDULED_TASK: Load scheduler "fdi1" with entities [LocalPlayer, LocalPlayer], work=[200*, 0*]
 88: 0x0AFC [0x46] CAMERA_CONTROL: Restore default settings
 89: 0x0AFE [0x45] LOAD_SCHEDULED_TASK: Load scheduler "qstc" with entities [LocalPlayer, LocalPlayer], work=[201*, 0*]
 90: 0x0B0F [0x21] END_EVENT
 91: 0x0B10 [0x00] END_REQSTACK()
```

### Event 96

#### Metadata

| Field        | Value     |
|--------------|-----------|
| Entrypoint   | 0x0B11    |
| Data Size    | 340 bytes |
| Instructions | 49        |

```
      00 01 02 03 04 05 06 07  08 09 0A 0B 0C 0D 0E 0F
      -- -- -- -- -- -- -- --  -- -- -- -- -- -- -- --
0B10:    03 09 10 82 80 42 20  01 75 00 83 80 75 01 4A   .....B .u...u.J
0B20: 14 A0 0E 01 F0 FF FF 7F  2B 14 A0 0E 01 84 80 23  ........+......#
0B30: 45 1A 80 F0 FF FF 7F F0  FF FF 7F 66 64 6F 30 0C  E..........fdo0.
0B40: 80 4E 00 15 A0 0E 01 1C  19 80 46 01 37 85 80 86  .N........F.7...
0B50: 80 4E 80 87 80 27 0A 50  A0 0E 01 02 27 0A 15 A0  .N...'.P....'...
0B60: 0E 01 02 45 21 80 F0 FF  FF 7F F0 FF FF 7F 73 30  ...E!.........s0
0B70: 32 36 0C 80 38 1B 80 45  1A 80 F0 FF FF 7F F0 FF  26..8..E........
0B80: FF 7F 66 64 69 30 0C 80  2B 15 A0 0E 01 88 80 23  ..fdi0..+......#
0B90: 27 0A 14 A0 0E 01 04 32  00 80 1F 00 89 80 8A 80  '......2........
0BA0: 4E 80 1F 01 2B 14 A0 0E  01 8B 80 23 2A 0A 15 A0  N...+......#*...
0BB0: 0E 01 4A 15 A0 0E 01 F0  FF FF 7F 2B 15 A0 0E 01  ..J........+....
0BC0: 8C 80 23 66 8D 80 15 A0  0E 01 15 A0 0E 01 64 69  ..#f..........di
0BD0: 73 30 2B 15 A0 0E 01 8E  80 23 5B 8F 80 14 A0 0E  s0+......#[.....
0BE0: 01 14 A0 0E 01 74 6C 6B  30 2B 14 A0 0E 01 90 80  .....tlk0+......
0BF0: 23 27 0A 14 A0 0E 01 05  53 F8 FF FF 7F F8 FF FF  #'......S.......
0C00: 7F 64 69 73 30 66 91 80  15 A0 0E 01 15 A0 0E 01  .dis0f..........
0C10: 70 61 73 30 2B 15 A0 0E  01 92 80 23 45 1A 80 F0  pas0+......#E...
0C20: FF FF 7F F0 FF FF 7F 66  64 6F 31 0C 80 1C 23 80  .......fdo1...#.
0C30: 52 21 80 F0 FF FF 7F F0  FF FF 7F 73 30 32 36 46  R!.........s026F
0C40: 00 45 1A 80 F0 FF FF 7F  F0 FF FF 7F 66 64 69 31  .E..........fdi1
0C50: 0C 80 45 4B 80 F0 FF FF  7F F0 FF FF 7F 71 73 74  ..EK.........qst
0C60: 63 0C 80 21 00                                    c..!.           
```

#### Opcodes

```
  0: 0x0B11 [0x03] Work_Zone[9] = 108*
  1: 0x0B16 [0x42] SET_CLI_EVENT_CANCEL_DATA()
  2: 0x0B17 [0x20] SET_CLI_EVENT_UC_FLAG: Lock player control
  3: 0x0B19 [0x75] LOAD_ROOM(Load indoor room, room=268*)
  4: 0x0B1D [0x75] LOAD_ROOM(No action)
  5: 0x0B1F [0x4A] Roh Latteh (ID: 17735700/0x010EA014) looks at LocalPlayer
  6: 0x0B28 [0x2B] Roh Latteh (ID: 17735700/0x010EA014) [10780*]:
     "A present for Mom? Umm... I think she should be home soon."
  7: 0x0B2F [0x23] WAIT_FOR_DIALOG_INTERACTION
