# Event 576

## Metadata

| Field           | Value    |
|-----------------|----------|
| Event Index     | 19/22    |
| Offset          | 0x0104   |
| Data Size       | 33 bytes |
| Calculated Size | 33 bytes |
| Instructions    | 12       |

```
      00 01 02 03 04 05 06 07  08 09 0A 0B 0C 0D 0E 0F
      -- -- -- -- -- -- -- --  -- -- -- -- -- -- -- --
0100:             1E F0 FF FF  7F 6F 70 29 08 17 00 0F      .....op)....
0110: 01 01 1D 0A 80 23 1D 0B  80 23 29 08 17 00 0F 01  .....#...#).....
0120: 02 20 00 21 00                                    . .!.           
```

## Opcodes

```
  0: 0x0104 [0x1E] EventEntity looks at LocalPlayer and starts talking
  1: 0x0109 [0x6F] WAIT_FRAME_DELAY: Yield until WaitTime reaches zero
  2: 0x010A [0x70] WAIT_ENTITY_RENDER_FLAG: Wait while EventEntity->Render.Flags3 bit 2 is set (cancel turn if not)
  3: 0x010B [0x29] REQ_SET_WAIT(priority=0x08, entity_id=Goltata (ID: 17760279/0x010F0017), tag_num=0x01)
  4: 0x0112 [0x1D] PRINT_EVENT_MESSAGE(message_id=12616*)
    → "It looks as though the Star Sibyl hadn't given up on the Orastery after all.\u007F1\u0000\u0007"
  5: 0x0115 [0x23] WAIT_FOR_DIALOG_INTERACTION
  6: 0x0116 [0x1D] PRINT_EVENT_MESSAGE(message_id=12617*)
    → "And now we finally have permission to carry on with the work of the great genius, Karaha-Baruha. Isn't that greataru?\u007F1\u0000\u0007"
  7: 0x0119 [0x23] WAIT_FOR_DIALOG_INTERACTION
  8: 0x011A [0x29] REQ_SET_WAIT(priority=0x08, entity_id=Goltata (ID: 17760279/0x010F0017), tag_num=0x02)
  9: 0x0121 [0x20] SET_CLI_EVENT_UC_FLAG: Unlock player control
 10: 0x0123 [0x21] END_EVENT
 11: 0x0124 [0x00] END_REQSTACK()
```
