# Event 231

## Metadata

| Field           | Value    |
|-----------------|----------|
| Event Index     | 23/38    |
| Offset          | 0x019E   |
| Data Size       | 39 bytes |
| Calculated Size | 39 bytes |
| Instructions    | 13       |

```
      00 01 02 03 04 05 06 07  08 09 0A 0B 0C 0D 0E 0F
      -- -- -- -- -- -- -- --  -- -- -- -- -- -- -- --
0190:                                            20 01                 .
01A0: 42 1E F0 FF FF 7F 6F 70  1D 10 80 23 1D 11 80 23  B.....op...#...#
01B0: 45 12 80 F0 FF FF 7F F0  FF FF 7F 71 73 74 63 05  E..........qstc.
01C0: 80 20 00 21 00                                    . .!.           
```

## Opcodes

```
  0: 0x019E [0x20] SET_CLI_EVENT_UC_FLAG: Lock player control
  1: 0x01A0 [0x42] SET_CLI_EVENT_CANCEL_DATA()
  2: 0x01A1 [0x1E] EventEntity looks at LocalPlayer and starts talking
  3: 0x01A6 [0x6F] WAIT_FRAME_DELAY: Yield until WaitTime reaches zero
  4: 0x01A7 [0x70] WAIT_ENTITY_RENDER_FLAG: Wait while EventEntity->Render.Flags3 bit 2 is set (cancel turn if not)
  5: 0x01A8 [0x1D] PRINT_EVENT_MESSAGE(message_id=7964*)
    → "Now I see... \u0007The apothecary was out of ingredients, so she had you go fetch them for her, huh?\u007F1\u0000\u0007"
  6: 0x01AB [0x23] WAIT_FOR_DIALOG_INTERACTION
  7: 0x01AC [0x1D] PRINT_EVENT_MESSAGE(message_id=7965*)
    → "Well, thank you for going through all that trrrouble. You've helped us out so verrry much. I'm just glad the little guy doesn't have to suffer much longerrr.\u007F1\u0000\u0007"
  8: 0x01AF [0x23] WAIT_FOR_DIALOG_INTERACTION
  9: 0x01B0 [0x45] LOAD_SCHEDULED_TASK(work_offset1=201*, entity1=LocalPlayer, entity2=LocalPlayer, scheduler_id="qstc", work_offset2=0*)
 10: 0x01C1 [0x20] SET_CLI_EVENT_UC_FLAG: Unlock player control
 11: 0x01C3 [0x21] END_EVENT
 12: 0x01C4 [0x00] END_REQSTACK()
```
