# Event 236

## Metadata

| Field           | Value    |
|-----------------|----------|
| Event Index     | 29/38    |
| Offset          | 0x0231   |
| Data Size       | 33 bytes |
| Calculated Size | 33 bytes |
| Instructions    | 12       |

```
      00 01 02 03 04 05 06 07  08 09 0A 0B 0C 0D 0E 0F
      -- -- -- -- -- -- -- --  -- -- -- -- -- -- -- --
0230:    1E F0 FF FF 7F 6F 70  29 08 3C 10 0F 01 01 1D   .....op).<.....
0240: 18 80 23 1D 19 80 23 29  08 3C 10 0F 01 02 20 00  ..#...#).<.... .
0250: 21 00                                             !.              
```

## Opcodes

```
  0: 0x0231 [0x1E] EventEntity looks at LocalPlayer and starts talking
  1: 0x0236 [0x6F] WAIT_FRAME_DELAY: Yield until WaitTime reaches zero
  2: 0x0237 [0x70] WAIT_ENTITY_RENDER_FLAG: Wait while EventEntity->Render.Flags3 bit 2 is set (cancel turn if not)
  3: 0x0238 [0x29] REQ_SET_WAIT(priority=0x08, entity_id=Kuoh Rhel (ID: 17764412/0x010F103C), tag_num=0x01)
  4: 0x023F [0x1D] PRINT_EVENT_MESSAGE(message_id=7978*)
    → "I finally got the \u00072secret cure-all medicament\u00073 from the apothecary, but it's too darn bitter, so the silly bird won't swallow it!\u007F1\u0000\u0007"
  5: 0x0242 [0x23] WAIT_FOR_DIALOG_INTERACTION
  6: 0x0243 [0x1D] PRINT_EVENT_MESSAGE(message_id=7979*)
    → "I've tried mixing it into his usual food, but he just won't touch it. I'm in a real fix!\u007F1\u0000\u0007"
  7: 0x0246 [0x23] WAIT_FOR_DIALOG_INTERACTION
  8: 0x0247 [0x29] REQ_SET_WAIT(priority=0x08, entity_id=Kuoh Rhel (ID: 17764412/0x010F103C), tag_num=0x02)
  9: 0x024E [0x20] SET_CLI_EVENT_UC_FLAG: Unlock player control
 10: 0x0250 [0x21] END_EVENT
 11: 0x0251 [0x00] END_REQSTACK()
```
