# 17064034 - Master1

## Common Data

| Field            | Value                    |
|------------------|--------------------------|
| Zone             | Chocobo Circuit (ID: 70) |
| Block Size       | 252 bytes                |
| Total Events     | 2                        |
| References Count | 15                       |

## List of Events

| Event ID              | Entrypoint   |   Size |   Instructions |
|-----------------------|--------------|--------|----------------|
| [65535](#event-65535) | 0x0000       |      1 |              1 |
| [206](#event-206)     | 0x0001       |    164 |             36 |

## DAT References (imed_data)

|   Index | Hex Value   |   Dec Value |
|---------|-------------|-------------|
|       0 | 0x0000      |           0 |
|       1 | 0x2393      |        9107 |
|       2 | 0x0001      |           1 |
|       3 | 0x00FF      |         255 |
|       4 | 0x0002      |           2 |
|       5 | 0x0010      |          16 |
|       6 | 0x0009      |           9 |
|       7 | 0x2391      |        9105 |
|       8 | 0x2392      |        9106 |
|       9 | 0x0003      |           3 |
|      10 | 0x0011      |          17 |
|      11 | 0x2396      |        9110 |
|      12 | 0x0004      |           4 |
|      13 | 0x0012      |          18 |
|      14 | 0x001F      |          31 |

## String References

- **9105**: Started Race Cycle.
- **9106**: Stopped new race cycle.
- **9107**: STATUS$6704987f/On]z^STEPFy[Standby/Formatting/Registration/Calculating Odds/Placing Chocobets/Waiting for Race/Running Race/Paying Out/Resting]z [Race NoF$4i$5j/Update Data./Progression Control:y[Auto/Manual]z/Step Override:yNext step is [Standby/Formatting/Registration/Calculating Odds/Placing Chocobets/Waiting for Race/Running Race/Paying Out/Resting]z/Grade Set:y[No/Yes]zServer Value: $7/Quit.]
- **9110**: Moved one step forward.

## Events

### Event 65535

#### Metadata

| Field        | Value   |
|--------------|---------|
| Entrypoint   | 0x0000  |
| Data Size    | 1 bytes |
| Instructions | 1       |

```
      00 01 02 03 04 05 06 07  08 09 0A 0B 0C 0D 0E 0F
      -- -- -- -- -- -- -- --  -- -- -- -- -- -- -- --
0000: 00                                                .               
```

#### Opcodes

```
  0: 0x0000 [0x00] END_REQSTACK()
```

### Event 206

#### Metadata

| Field        | Value     |
|--------------|-----------|
| Entrypoint   | 0x0001    |
| Data Size    | 164 bytes |
| Instructions | 36        |

```
      00 01 02 03 04 05 06 07  08 09 0A 0B 0C 0D 0E 0F
      -- -- -- -- -- -- -- --  -- -- -- -- -- -- -- --
0000:    06 00 00 02 00 00 00  80 00 A3 00 03 01 10 01   ...............
0010: 00 43 00 43 01 06 01 00  24 01 80 02 80 00 80 25  .C.C....$......%
0020: 02 00 10 00 80 00 2B 00  01 A0 00 02 00 10 02 80  ......+.........
0030: 00 3B 00 03 01 00 03 80  01 A0 00 02 00 10 04 80  .;..............
0040: 00 69 00 03 01 00 05 80  0F 02 10 02 80 40 06 80  .i...........@..
0050: 06 80 01 00 02 10 3E 02  10 00 80 63 00 48 07 80  ......>....c.H..
0060: 01 66 00 48 08 80 01 A0  00 02 00 10 09 80 00 7C  .f.H...........|
0070: 00 03 01 00 0A 80 48 0B  80 01 A0 00 02 00 10 0C  ......H.........
0080: 80 00 9D 00 71 10 00 80  71 11 02 10 03 01 00 0D  ....q...q.......
0090: 80 40 06 80 0E 80 01 00  02 10 01 A0 00 05 00 00  .@..............
00A0: 01 04 00 21 00                                    ...!.           
```

#### Opcodes

```
  0: 0x0001 [0x06] ExtData[1]->WorkLocal[0] = 0
  1: 0x0004 [0x02] IF !(ExtData[1]->WorkLocal[0] == 0*) GOTO 0x00A3
  2: 0x000C [0x03] Work_Zone[1] = ExtData[1]->WorkLocal[1]
  3: 0x0011 [0x43] SEND_EVENT_UPDATE: Send pending tag to server (packet 0x005B)
  4: 0x0013 [0x43] SEND_EVENT_UPDATE: Check pending flag (skip if not pending)
  5: 0x0015 [0x06] ExtData[1]->WorkLocal[1] = 0
  6: 0x0018 [0x24] CREATE_DIALOG(message_id=9107*, default_option=1*, option_flags=0*)
    → "STATUS$6704987f/On]z^STEPFy[Standby/Formatting/Registration/Calculating Odds/Placing Chocobets/Waiting for Race/Running Race/Paying Out/Resting]z [Race NoF$4i$5j/Update Data./Progression Control:y[Auto/Manual]z/Step Override:yNext step is [Standby/Formatting/Registration/Calculating Odds/Placing Chocobets/Waiting for Race/Running Race/Paying Out/Resting]z/Grade Set:y[No/Yes]zServer Value: $7/Quit.]"
  7: 0x001F [0x25] WAIT_DIALOG_SELECT()
  8: 0x0020 [0x02] IF !(Work_Zone[0] == 0*) GOTO 0x002B
  9: 0x0028 [0x01] GOTO 0x00A0
 10: 0x002B [0x02] IF !(Work_Zone[0] == 1*) GOTO 0x003B
 11: 0x0033 [0x03] ExtData[1]->WorkLocal[1] = 255*
 12: 0x0038 [0x01] GOTO 0x00A0
 13: 0x003B [0x02] IF !(Work_Zone[0] == 2*) GOTO 0x0069
 14: 0x0043 [0x03] ExtData[1]->WorkLocal[1] = 16*
 15: 0x0048 [0x0F] Work_Zone[2] ^= 1*
 16: 0x004D [0x40] SET_BIT_WORK_RANGE(start_bit=9*, end_bit=9*, target=ExtData[1]->WorkLocal[1], source=Work_Zone[2])
 17: 0x0056 [0x3E] IF !(Work_Zone[2] bit 0*) GOTO 0x0063
 18: 0x005D [0x48] [System] [9105*]:
    → "Started Race Cycle."
 19: 0x0060 [0x01] GOTO 0x0066
 20: 0x0063 [0x48] [System] [9106*]:
    → "Stopped new race cycle."

SUBROUTINE_0066:
 21: 0x0066 [0x01] GOTO 0x00A0
 22: 0x0069 [0x02] IF !(Work_Zone[0] == 3*) GOTO 0x007C
 23: 0x0071 [0x03] ExtData[1]->WorkLocal[1] = 17*
 24: 0x0076 [0x48] [System] [9110*]:
    → "Moved one step forward."
 25: 0x0079 [0x01] GOTO 0x00A0
 26: 0x007C [0x02] IF !(Work_Zone[0] == 4*) GOTO 0x009D
 27: 0x0084 [0x71] USER_INPUT_HANDLER: Open numerical input dialog (work=0*)
 28: 0x0088 [0x71] USER_INPUT_HANDLER: Process numerical input A (work=Work_Zone[2])
 29: 0x008C [0x03] ExtData[1]->WorkLocal[1] = 18*
 30: 0x0091 [0x40] SET_BIT_WORK_RANGE(start_bit=9*, end_bit=31*, target=ExtData[1]->WorkLocal[1], source=Work_Zone[2])
 31: 0x009A [0x01] GOTO 0x00A0
 32: 0x009D [0x05] ExtData[1]->WorkLocal[0] = 1

SUBROUTINE_00A0:
 33: 0x00A0 [0x01] GOTO 0x0004
 34: 0x00A3 [0x21] END_EVENT
 35: 0x00A4 [0x00] END_REQSTACK()
```
