# 17063951

## Common Data

| Field            | Value                    |
|------------------|--------------------------|
| Zone             | Chocobo Circuit (ID: 70) |
| Block Size       | 7520 bytes               |
| Total Events     | 10                       |
| References Count | 50                       |

## List of Events

| Event ID                 | Entrypoint   |   Size |   Instructions |
|--------------------------|--------------|--------|----------------|
| [65535](#event-65535)    | 0x0000       |      1 |              1 |
| [115](#event-115)        | 0x0001       |      1 |              1 |
| [65535.1](#event-655351) | 0x0002       |      1 |              1 |
| [210](#event-210)        | 0x0003       |      1 |              1 |
| [65535.2](#event-655352) | 0x0004       |   3507 |            474 |
| [65535.3](#event-655353) | 0x0DB7       |     18 |              2 |
| [65535.4](#event-655354) | 0x0DC9       |    740 |             90 |
| [65535.5](#event-655355) | 0x10AD       |   1532 |            169 |
| [65535.6](#event-655356) | 0x16A9       |    766 |             83 |
| [65535.7](#event-655357) | 0x19A7       |    696 |             89 |

## DAT References (imed_data)

|   Index | Hex Value   |   Dec Value |
|---------|-------------|-------------|
|       0 | 0xFFFFFFFE  |  4294967294 |
|       1 | 0x0000      |           0 |
|       2 | 0x00BF      |         191 |
|       3 | 0x0001      |           1 |
|       4 | 0x0002      |           2 |
|       5 | 0x0003      |           3 |
|       6 | 0x0004      |           4 |
|       7 | 0x0005      |           5 |
|       8 | 0x000F      |          15 |
|       9 | 0x00C8      |         200 |
|      10 | 0x0006      |           6 |
|      11 | 0x0007      |           7 |
|      12 | 0x0008      |           8 |
|      13 | 0x0009      |           9 |
|      14 | 0x000A      |          10 |
|      15 | 0x000B      |          11 |
|      16 | 0x000C      |          12 |
|      17 | 0x000D      |          13 |
|      18 | 0x000E      |          14 |
|      19 | 0x0010      |          16 |
|      20 | 0x0126      |         294 |
|      21 | 0x0032      |          50 |
|      22 | 0x0011      |          17 |
|      23 | 0x0012      |          18 |
|      24 | 0x0013      |          19 |
|      25 | 0x0014      |          20 |
|      26 | 0x0033      |          51 |
|      27 | 0x0015      |          21 |
|      28 | 0x0016      |          22 |
|      29 | 0x0017      |          23 |
|      30 | 0x0018      |          24 |
|      31 | 0x0019      |          25 |
|      32 | 0x001A      |          26 |
|      33 | 0x001B      |          27 |
|      34 | 0x001C      |          28 |
|      35 | 0x001D      |          29 |
|      36 | 0x001E      |          30 |
|      37 | 0x0028      |          40 |
|      38 | 0xFFFFFFFF  |  4294967295 |
|      39 | 0x002D      |          45 |
|      40 | 0x0023      |          35 |
|      41 | 0x001F      |          31 |
|      42 | 0x0020      |          32 |
|      43 | 0x0021      |          33 |
|      44 | 0x0022      |          34 |
|      45 | 0x0024      |          36 |
|      46 | 0x0025      |          37 |
|      47 | 0x0026      |          38 |
|      48 | 0x003C      |          60 |
|      49 | 0x0078      |         120 |

## Events

### Event 65535

#### Metadata

| Field        | Value   |
|--------------|---------|
| Entrypoint   | 0x0000  |
| Data Size    | 1 bytes |
| Instructions | 1       |

```
      00 01 02 03 04 05 06 07  08 09 0A 0B 0C 0D 0E 0F
      -- -- -- -- -- -- -- --  -- -- -- -- -- -- -- --
0000: 00                                                .               
```

#### Opcodes

```
  0: 0x0000 [0x00] END_REQSTACK()
```

### Event 115

#### Metadata

| Field        | Value   |
|--------------|---------|
| Entrypoint   | 0x0001  |
| Data Size    | 1 bytes |
| Instructions | 1       |

```
      00 01 02 03 04 05 06 07  08 09 0A 0B 0C 0D 0E 0F
      -- -- -- -- -- -- -- --  -- -- -- -- -- -- -- --
0000:    00                                              .              
```

#### Opcodes

```
  0: 0x0001 [0x00] END_REQSTACK()
```

### Event 65535.1

#### Metadata

| Field        | Value   |
|--------------|---------|
| Entrypoint   | 0x0002  |
| Data Size    | 1 bytes |
| Instructions | 1       |

```
      00 01 02 03 04 05 06 07  08 09 0A 0B 0C 0D 0E 0F
      -- -- -- -- -- -- -- --  -- -- -- -- -- -- -- --
0000:       00                                            .             
```

#### Opcodes

```
  0: 0x0002 [0x00] END_REQSTACK()
```

### Event 210

#### Metadata

| Field        | Value   |
|--------------|---------|
| Entrypoint   | 0x0003  |
| Data Size    | 1 bytes |
| Instructions | 1       |

```
      00 01 02 03 04 05 06 07  08 09 0A 0B 0C 0D 0E 0F
      -- -- -- -- -- -- -- --  -- -- -- -- -- -- -- --
0000:          00                                          .            
```

#### Opcodes

```
  0: 0x0003 [0x00] END_REQSTACK()
```

### Event 65535.2

#### Metadata

| Field        | Value      |
|--------------|------------|
| Entrypoint   | 0x0004     |
| Data Size    | 3507 bytes |
| Instructions | 400        |

```
      00 01 02 03 04 05 06 07  08 09 0A 0B 0C 0D 0E 0F
      -- -- -- -- -- -- -- --  -- -- -- -- -- -- -- --
0000:             03 01 00 34  10 0C 01 00 13 00 00 01      ...4........
0010: 00 0B 00 00 02 23 10 00  80 00 78 04 02 29 10 01  .....#....x..)..
0020: 80 00 50 00 03 3A 10 01  80 45 02 80 11 60 04 01  ..P..:...E...`..
0030: 11 60 04 01 73 31 33 38  01 80 29 05 19 60 04 01  .`..s138..)..`..
0040: 1A 52 02 80 11 60 04 01  11 60 04 01 73 31 33 38  .R...`...`..s138
0050: 02 29 10 03 80 00 5B 00  1A DE 08 02 29 10 04 80  .)....[.....)...
0060: 00 66 00 1A FF 09 02 29  10 05 80 00 71 00 1A DE  .f.....)....q...
0070: 08 02 29 10 06 80 00 7C  00 1A DE 08 02 29 10 07  ..)....|.....)..
0080: 80 00 9B 00 1A FF 09 1C  08 80 45 09 80 F0 FF FF  ..........E.....
0090: 7F F0 FF FF 7F 66 64 69  30 01 80 02 29 10 0A 80  .....fdi0...)...
00A0: 00 A6 00 1A DE 08 02 29  10 0B 80 00 B1 00 1A 25  .......).......%
00B0: 0B 02 29 10 0C 80 00 BC  00 1A DE 08 02 29 10 0D  ..)..........)..
00C0: 80 00 DB 00 1A FF 09 1C  08 80 45 09 80 F0 FF FF  ..........E.....
00D0: 7F F0 FF FF 7F 66 64 69  30 01 80 02 29 10 0E 80  .....fdi0...)...
00E0: 00 E6 00 1A DE 08 02 29  10 0F 80 00 F1 00 1A FF  .......)........
00F0: 09 02 29 10 10 80 00 FC  00 1A DE 08 02 29 10 11  ..)..........)..
0100: 80 00 1B 01 1A FF 09 1C  08 80 45 09 80 F0 FF FF  ..........E.....
0110: 7F F0 FF FF 7F 66 64 69  30 01 80 02 29 10 12 80  .....fdi0...)...
0120: 00 3B 01 03 0F 00 29 10  03 10 00 01 80 1A 4B 0C  .;....).......K.
0130: 03 00 00 18 00 0B 00 00  1A DE 08 02 29 10 08 80  ............)...
0140: 00 5B 01 03 0F 00 29 10  03 10 00 01 80 1A 4B 0C  .[....).......K.
0150: 03 00 00 18 00 0B 00 00  1A FF 09 02 29 10 13 80  ............)...
0160: 00 80 01 29 03 24 60 04  01 06 45 14 80 24 60 04  ...).$`...E..$`.
0170: 01 24 60 04 01 70 63 30  30 01 80 03 3A 10 15 80  .$`..pc00...:...
0180: 02 29 10 16 80 00 50 03  45 09 80 F0 FF FF 7F F0  .)....P.E.......
0190: FF FF 7F 66 64 6F 30 01  80 55 09 80 F0 FF FF 7F  ...fdo0..U......
01A0: F0 FF FF 7F 66 64 6F 30  29 03 24 60 04 01 06 02  ....fdo0).$`....
01B0: 23 10 07 80 80 E7 01 02  20 10 04 80 80 D3 01 45  #....... ......E
01C0: 02 80 F0 FF FF 7F F0 FF  FF 7F 73 31 39 37 01 80  ..........s197..
01D0: 01 E4 01 45 02 80 F0 FF  FF 7F F0 FF FF 7F 73 31  ...E..........s1
01E0: 38 30 01 80 01 68 02 02  23 10 0A 80 80 1F 02 02  80...h..#.......
01F0: 20 10 03 80 80 0B 02 45  02 80 F0 FF FF 7F F0 FF   ......E........
0200: FF 7F 73 31 39 37 01 80  01 1C 02 45 02 80 F0 FF  ..s197.....E....
0210: FF 7F F0 FF FF 7F 73 31  38 30 01 80 01 68 02 02  ......s180...h..
0220: 23 10 0C 80 80 57 02 02  20 10 05 80 80 43 02 45  #....W.. ....C.E
0230: 02 80 F0 FF FF 7F F0 FF  FF 7F 73 31 39 37 01 80  ..........s197..
0240: 01 54 02 45 02 80 F0 FF  FF 7F F0 FF FF 7F 73 31  .T.E..........s1
0250: 38 30 01 80 01 68 02 45  02 80 F0 FF FF 7F F0 FF  80...h.E........
0260: FF 7F 73 31 38 30 01 80  1C 08 80 45 09 80 F0 FF  ..s180.....E....
0270: FF 7F F0 FF FF 7F 66 64  69 30 01 80 29 05 19 60  ......fdi0..)..`
0280: 04 01 1B 02 23 10 07 80  80 B7 02 02 20 10 04 80  ....#....... ...
0290: 80 A5 02 52 02 80 F0 FF  FF 7F F0 FF FF 7F 73 31  ...R..........s1
02A0: 39 37 01 B4 02 52 02 80  F0 FF FF 7F F0 FF FF 7F  97...R..........
02B0: 73 31 38 30 01 2E 03 02  23 10 0A 80 80 EB 02 02  s180....#.......
02C0: 20 10 03 80 80 D9 02 52  02 80 F0 FF FF 7F F0 FF   ......R........
02D0: FF 7F 73 31 39 37 01 E8  02 52 02 80 F0 FF FF 7F  ..s197...R......
02E0: F0 FF FF 7F 73 31 38 30  01 2E 03 02 23 10 0C 80  ....s180....#...
02F0: 80 1F 03 02 20 10 05 80  80 0D 03 52 02 80 F0 FF  .... ......R....
0300: FF 7F F0 FF FF 7F 73 31  39 37 01 1C 03 52 02 80  ......s197...R..
0310: F0 FF FF 7F F0 FF FF 7F  73 31 38 30 01 2E 03 52  ........s180...R
0320: 02 80 F0 FF FF 7F F0 FF  FF 7F 73 31 38 30 45 02  ..........s180E.
0330: 80 F0 FF FF 7F F0 FF FF  7F 6E 61 6B 73 01 80 45  .........naks..E
0340: 02 80 F0 FF FF 7F F0 FF  FF 7F 68 61 73 73 01 80  ..........hass..
0350: 02 29 10 17 80 00 58 03  02 29 10 18 80 00 60 03  .)....X..)....`.
0360: 02 29 10 19 80 00 99 03  29 03 24 60 04 01 06 45  .)......).$`...E
0370: 14 80 24 60 04 01 24 60  04 01 70 63 30 31 01 80  ..$`..$`..pc01..
0380: 1C 08 80 45 09 80 F0 FF  FF 7F F0 FF FF 7F 66 64  ...E..........fd
0390: 69 30 01 80 03 3A 10 1A  80 02 29 10 1B 80 00 A4  i0...:....).....
03A0: 03 1A FF 09 02 29 10 1C  80 00 AF 03 1A DE 08 02  .....)..........
03B0: 29 10 1D 80 00 D6 03 27  05 19 60 04 01 1C 03 0F  )......'..`.....
03C0: 00 29 10 03 10 00 01 80  1A 4B 0C 03 00 00 18 00  .).......K......
03D0: 0B 00 00 1A FF 09 02 29  10 1E 80 00 E1 03 1A DE  .......)........
03E0: 08 02 29 10 1F 80 00 00  04 1A DE 08 1C 08 80 45  ..)............E
03F0: 09 80 F0 FF FF 7F F0 FF  FF 7F 66 64 69 30 01 80  ..........fdi0..
0400: 02 29 10 20 80 00 0B 04  1A FF 09 02 29 10 21 80  .). ........).!.
0410: 00 16 04 1A DE 08 02 29  10 22 80 00 36 04 03 0F  .......)."..6...
0420: 00 29 10 03 10 00 01 80  1A 4B 0C 03 00 00 18 00  .).......K......
0430: 0B 00 00 1A FF 09 02 29  10 23 80 00 55 04 1A DE  .......).#..U...
0440: 08 1C 08 80 45 09 80 F0  FF FF 7F F0 FF FF 7F 66  ....E..........f
0450: 64 69 30 01 80 02 29 10  24 80 00 75 04 03 0F 00  di0...).$..u....
0460: 29 10 03 10 00 01 80 1A  4B 0C 03 00 00 18 00 0B  ).......K.......
0470: 00 00 1A 25 0B 01 DD 08  02 29 10 01 80 00 AC 04  ...%.....)......
0480: 03 3A 10 01 80 45 02 80  11 60 04 01 11 60 04 01  .:...E...`...`..
0490: 73 31 33 38 01 80 29 05  19 60 04 01 1A 52 02 80  s138..)..`...R..
04A0: 11 60 04 01 11 60 04 01  73 31 33 38 02 29 10 03  .`...`..s138.)..
04B0: 80 00 B7 04 1A DE 08 02  29 10 04 80 00 C2 04 1A  ........).......
04C0: FF 09 02 29 10 05 80 00  D2 04 03 00 00 03 80 1A  ...)............
04D0: DE 08 02 29 10 06 80 00  DD 04 1A DE 08 02 29 10  ...)..........).
04E0: 07 80 00 FC 04 1A FF 09  1C 08 80 45 09 80 F0 FF  ...........E....
04F0: FF 7F F0 FF FF 7F 66 64  69 30 01 80 02 29 10 0A  ......fdi0...)..
0500: 80 00 07 05 1A DE 08 02  29 10 0B 80 00 12 05 1A  ........).......
0510: 25 0B 02 29 10 0C 80 00  1D 05 1A DE 08 02 29 10  %..)..........).
0520: 0D 80 00 3C 05 1A FF 09  1C 08 80 45 09 80 F0 FF  ...<.......E....
0530: FF 7F F0 FF FF 7F 66 64  69 30 01 80 02 29 10 0E  ......fdi0...)..
0540: 80 00 47 05 1A DE 08 02  29 10 0F 80 00 57 05 03  ..G.....)....W..
0550: 00 00 03 80 1A FF 09 02  29 10 10 80 00 62 05 1A  ........)....b..
0560: DE 08 02 29 10 11 80 00  81 05 1A FF 09 1C 08 80  ...)............
0570: 45 09 80 F0 FF FF 7F F0  FF FF 7F 66 64 69 30 01  E..........fdi0.
0580: 80 02 29 10 12 80 00 A1  05 03 0F 00 29 10 03 10  ..).........)...
0590: 00 01 80 1A 4B 0C 03 00  00 18 00 0B 00 00 1A DE  ....K...........
05A0: 08 02 29 10 08 80 00 C1  05 03 0F 00 29 10 03 10  ..).........)...
05B0: 00 01 80 1A 4B 0C 03 00  00 18 00 0B 00 00 1A FF  ....K...........
05C0: 09 02 29 10 13 80 00 E6  05 29 03 24 60 04 01 06  ..)......).$`...
05D0: 45 14 80 24 60 04 01 24  60 04 01 70 63 30 30 01  E..$`..$`..pc00.
05E0: 80 03 3A 10 15 80 02 29  10 16 80 00 B6 07 45 09  ..:....)......E.
05F0: 80 F0 FF FF 7F F0 FF FF  7F 66 64 6F 30 01 80 55  .........fdo0..U
0600: 09 80 F0 FF FF 7F F0 FF  FF 7F 66 64 6F 30 29 03  ..........fdo0).
0610: 24 60 04 01 06 02 23 10  07 80 80 4D 06 02 20 10  $`....#....M.. .
0620: 04 80 80 39 06 45 02 80  F0 FF FF 7F F0 FF FF 7F  ...9.E..........
0630: 73 31 39 37 01 80 01 4A  06 45 02 80 F0 FF FF 7F  s197...J.E......
0640: F0 FF FF 7F 73 31 38 30  01 80 01 CE 06 02 23 10  ....s180......#.
0650: 0A 80 80 85 06 02 20 10  03 80 80 71 06 45 02 80  ...... ....q.E..
0660: F0 FF FF 7F F0 FF FF 7F  73 31 39 37 01 80 01 82  ........s197....
0670: 06 45 02 80 F0 FF FF 7F  F0 FF FF 7F 73 31 38 30  .E..........s180
0680: 01 80 01 CE 06 02 23 10  0C 80 80 BD 06 02 20 10  ......#....... .
0690: 05 80 80 A9 06 45 02 80  F0 FF FF 7F F0 FF FF 7F  .....E..........
06A0: 73 31 39 37 01 80 01 BA  06 45 02 80 F0 FF FF 7F  s197.....E......
06B0: F0 FF FF 7F 73 31 38 30  01 80 01 CE 06 45 02 80  ....s180.....E..
06C0: F0 FF FF 7F F0 FF FF 7F  73 31 38 30 01 80 1C 08  ........s180....
06D0: 80 45 09 80 F0 FF FF 7F  F0 FF FF 7F 66 64 69 30  .E..........fdi0
06E0: 01 80 29 05 19 60 04 01  1B 02 23 10 07 80 80 1D  ..)..`....#.....
06F0: 07 02 20 10 04 80 80 0B  07 52 02 80 F0 FF FF 7F  .. ......R......
0700: F0 FF FF 7F 73 31 39 37  01 1A 07 52 02 80 F0 FF  ....s197...R....
0710: FF 7F F0 FF FF 7F 73 31  38 30 01 94 07 02 23 10  ......s180....#.
0720: 0A 80 80 51 07 02 20 10  03 80 80 3F 07 52 02 80  ...Q.. ....?.R..
0730: F0 FF FF 7F F0 FF FF 7F  73 31 39 37 01 4E 07 52  ........s197.N.R
0740: 02 80 F0 FF FF 7F F0 FF  FF 7F 73 31 38 30 01 94  ..........s180..
0750: 07 02 23 10 0C 80 80 85  07 02 20 10 05 80 80 73  ..#....... ....s
0760: 07 52 02 80 F0 FF FF 7F  F0 FF FF 7F 73 31 39 37  .R..........s197
0770: 01 82 07 52 02 80 F0 FF  FF 7F F0 FF FF 7F 73 31  ...R..........s1
0780: 38 30 01 94 07 52 02 80  F0 FF FF 7F F0 FF FF 7F  80...R..........
0790: 73 31 38 30 45 02 80 F0  FF FF 7F F0 FF FF 7F 6E  s180E..........n
07A0: 61 6B 73 01 80 45 02 80  F0 FF FF 7F F0 FF FF 7F  aks..E..........
07B0: 68 61 73 73 01 80 02 29  10 17 80 00 BE 07 02 29  hass...).......)
07C0: 10 18 80 00 C6 07 02 29  10 19 80 00 FF 07 29 03  .......)......).
07D0: 24 60 04 01 06 45 14 80  24 60 04 01 24 60 04 01  $`...E..$`..$`..
07E0: 70 63 30 31 01 80 1C 08  80 45 09 80 F0 FF FF 7F  pc01.....E......
07F0: F0 FF FF 7F 66 64 69 30  01 80 03 3A 10 1A 80 02  ....fdi0...:....
0800: 29 10 1B 80 00 0A 08 1A  FF 09 02 29 10 1C 80 00  )..........)....
0810: 15 08 1A DE 08 02 29 10  1D 80 00 3C 08 27 05 19  ......)....<.'..
0820: 60 04 01 1C 03 0F 00 29  10 03 10 00 01 80 1A 4B  `......).......K
0830: 0C 03 00 00 18 00 0B 00  00 1A FF 09 02 29 10 1E  .............)..
0840: 80 00 5B 08 1A DE 08 1C  08 80 45 09 80 F0 FF FF  ..[.......E.....
0850: 7F F0 FF FF 7F 66 64 69  30 01 80 02 29 10 1F 80  .....fdi0...)...
0860: 00 63 08 02 29 10 20 80  00 6E 08 1A FF 09 02 29  .c..). ..n.....)
0870: 10 21 80 00 7E 08 03 00  00 03 80 1A DE 08 02 29  .!..~..........)
0880: 10 22 80 00 9E 08 03 0F  00 29 10 03 10 00 01 80  .".......)......
0890: 1A 4B 0C 03 00 00 18 00  0B 00 00 1A FF 09 02 29  .K.............)
08A0: 10 23 80 00 BD 08 1A DE  08 1C 08 80 45 09 80 F0  .#..........E...
08B0: FF FF 7F F0 FF FF 7F 66  64 69 30 01 80 02 29 10  .......fdi0...).
08C0: 24 80 00 DD 08 03 0F 00  29 10 03 10 00 01 80 1A  $.......).......
08D0: 4B 0C 03 00 00 18 00 0B  00 00 1A 25 0B 00 29 05  K..........%..).
08E0: 24 60 04 01 07 02 00 00  03 80 00 05 09 29 03 24  $`...........).$
08F0: 60 04 01 06 45 14 80 24  60 04 01 11 60 04 01 72  `...E..$`...`..r
0900: 6D 30 31 01 80 02 00 00  04 80 00 25 09 29 03 24  m01........%.).$
0910: 60 04 01 06 45 14 80 24  60 04 01 12 60 04 01 72  `...E..$`...`..r
0920: 6D 30 31 01 80 02 00 00  05 80 00 45 09 29 03 24  m01........E.).$
0930: 60 04 01 06 45 14 80 24  60 04 01 13 60 04 01 72  `...E..$`...`..r
0940: 6D 30 31 01 80 02 00 00  06 80 00 65 09 29 03 24  m01........e.).$
0950: 60 04 01 06 45 14 80 24  60 04 01 14 60 04 01 72  `...E..$`...`..r
0960: 6D 30 31 01 80 02 00 00  07 80 00 85 09 29 03 24  m01..........).$
0970: 60 04 01 06 45 14 80 24  60 04 01 15 60 04 01 72  `...E..$`...`..r
0980: 6D 30 31 01 80 02 00 00  0A 80 00 A5 09 29 03 24  m01..........).$
0990: 60 04 01 06 45 14 80 24  60 04 01 16 60 04 01 72  `...E..$`...`..r
09A0: 6D 30 31 01 80 02 00 00  0B 80 00 C5 09 29 03 24  m01..........).$
09B0: 60 04 01 06 45 14 80 24  60 04 01 17 60 04 01 72  `...E..$`...`..r
09C0: 6D 30 31 01 80 02 00 00  0C 80 00 E5 09 29 03 24  m01..........).$
09D0: 60 04 01 06 45 14 80 24  60 04 01 18 60 04 01 72  `...E..$`...`..r
09E0: 6D 30 31 01 80 1C 08 80  45 09 80 F0 FF FF 7F F0  m01.....E.......
09F0: FF FF 7F 66 64 69 30 01  80 03 3A 10 00 00 1B 29  ...fdi0...:....)
0A00: 05 25 60 04 01 06 02 00  00 03 80 00 26 0A 29 03  .%`.........&.).
0A10: 24 60 04 01 06 45 14 80  11 60 04 01 25 60 04 01  $`...E...`..%`..
0A20: 72 6D 30 30 01 80 02 00  00 04 80 00 46 0A 29 03  rm00........F.).
0A30: 24 60 04 01 06 45 14 80  12 60 04 01 25 60 04 01  $`...E...`..%`..
0A40: 72 6D 30 30 01 80 02 00  00 05 80 00 66 0A 29 03  rm00........f.).
0A50: 24 60 04 01 06 45 14 80  13 60 04 01 25 60 04 01  $`...E...`..%`..
0A60: 72 6D 30 30 01 80 02 00  00 06 80 00 86 0A 29 03  rm00..........).
0A70: 24 60 04 01 06 45 14 80  14 60 04 01 25 60 04 01  $`...E...`..%`..
0A80: 72 6D 30 30 01 80 02 00  00 07 80 00 A6 0A 29 03  rm00..........).
0A90: 24 60 04 01 06 45 14 80  15 60 04 01 25 60 04 01  $`...E...`..%`..
0AA0: 72 6D 30 30 01 80 02 00  00 0A 80 00 C6 0A 29 03  rm00..........).
0AB0: 24 60 04 01 06 45 14 80  16 60 04 01 25 60 04 01  $`...E...`..%`..
0AC0: 72 6D 30 30 01 80 02 00  00 0B 80 00 E6 0A 29 03  rm00..........).
0AD0: 24 60 04 01 06 45 14 80  17 60 04 01 25 60 04 01  $`...E...`..%`..
0AE0: 72 6D 30 30 01 80 02 00  00 0C 80 00 06 0B 29 03  rm00..........).
0AF0: 24 60 04 01 06 45 14 80  18 60 04 01 25 60 04 01  $`...E...`..%`..
0B00: 72 6D 30 30 01 80 03 3A  10 0E 80 07 3A 10 00 00  rm00...:....:...
0B10: 1C 08 80 45 09 80 F0 FF  FF 7F F0 FF FF 7F 66 64  ...E..........fd
0B20: 69 30 01 80 1B 29 05 25  60 04 01 06 02 00 00 03  i0...).%`.......
0B30: 80 00 4C 0B 29 03 24 60  04 01 06 45 14 80 11 60  ..L.).$`...E...`
0B40: 04 01 25 60 04 01 72 6D  30 34 01 80 02 00 00 04  ..%`..rm04......
0B50: 80 00 6C 0B 29 03 24 60  04 01 06 45 14 80 12 60  ..l.).$`...E...`
0B60: 04 01 25 60 04 01 72 6D  30 34 01 80 02 00 00 05  ..%`..rm04......
0B70: 80 00 8C 0B 29 03 24 60  04 01 06 45 14 80 13 60  ....).$`...E...`
0B80: 04 01 25 60 04 01 72 6D  30 34 01 80 02 00 00 06  ..%`..rm04......
0B90: 80 00 AC 0B 29 03 24 60  04 01 06 45 14 80 14 60  ....).$`...E...`
0BA0: 04 01 25 60 04 01 72 6D  30 34 01 80 02 00 00 07  ..%`..rm04......
0BB0: 80 00 CC 0B 29 03 24 60  04 01 06 45 14 80 15 60  ....).$`...E...`
0BC0: 04 01 25 60 04 01 72 6D  30 34 01 80 02 00 00 0A  ..%`..rm04......
0BD0: 80 00 EC 0B 29 03 24 60  04 01 06 45 14 80 16 60  ....).$`...E...`
0BE0: 04 01 25 60 04 01 72 6D  30 34 01 80 02 00 00 0B  ..%`..rm04......
0BF0: 80 00 0C 0C 29 03 24 60  04 01 06 45 14 80 17 60  ....).$`...E...`
0C00: 04 01 25 60 04 01 72 6D  30 34 01 80 02 00 00 0C  ..%`..rm04......
0C10: 80 00 2C 0C 29 03 24 60  04 01 06 45 14 80 18 60  ..,.).$`...E...`
0C20: 04 01 25 60 04 01 72 6D  30 34 01 80 03 3A 10 25  ..%`..rm04...:.%
0C30: 80 07 3A 10 00 00 1C 08  80 45 09 80 F0 FF FF 7F  ..:......E......
0C40: F0 FF FF 7F 66 64 69 30  01 80 1B BF 40 01 80 0F  ....fdi0....@...
0C50: 00 01 80 08 00 02 10 00  01 80 00 05 0D 03 14 00  ................
0C60: 26 80 06 11 00 06 12 00  06 16 00 06 0A 00 02 11  &...............
0C70: 00 13 80 03 02 0D 06 13  00 06 15 00 02 13 00 34  ...............4
0C80: 10 03 D2 0C 03 0B 00 13  00 14 0B 00 06 80 03 0C  ................
0C90: 00 0B 00 07 0C 00 05 80  41 0B 00 0C 00 08 00 17  ........A.......
0CA0: 00 02 17 00 11 00 00 CC  0C 03 0D 00 12 00 14 0D  ................
0CB0: 00 06 80 03 0E 00 0D 00  07 0E 00 05 80 40 0D 00  .............@..
0CC0: 0E 00 14 00 13 00 0B 12  00 0B 15 00 0B 13 00 01  ................
0CD0: 7C 0C 02 15 00 01 80 02  FC 0C 03 0D 00 16 00 14  |...............
0CE0: 0D 00 06 80 03 0E 00 0D  00 07 0E 00 05 80 40 0D  ..............@.
0CF0: 00 0E 00 0A 00 15 00 07  16 00 15 00 0B 11 00 01  ................
0D00: 6E 0C 01 AC 0D 03 14 00  26 80 03 11 00 08 80 06  n.......&.......
0D10: 12 00 06 16 00 06 0A 00  02 11 00 01 80 04 AC 0D  ................
0D20: 06 13 00 06 15 00 02 13  00 34 10 03 7C 0D 03 0B  .........4..|...
0D30: 00 13 00 14 0B 00 06 80  03 0C 00 0B 00 07 0C 00  ................
0D40: 05 80 41 0B 00 0C 00 08  00 17 00 02 17 00 11 00  ..A.............
0D50: 00 76 0D 03 0D 00 12 00  14 0D 00 06 80 03 0E 00  .v..............
0D60: 0D 00 07 0E 00 05 80 40  0D 00 0E 00 14 00 13 00  .......@........
0D70: 0B 12 00 0B 15 00 0B 13  00 01 26 0D 02 15 00 01  ..........&.....
0D80: 80 02 A6 0D 03 0D 00 16  00 14 0D 00 06 80 03 0E  ................
0D90: 00 0D 00 07 0E 00 05 80  40 0D 00 0E 00 0A 00 15  ........@.......
0DA0: 00 07 16 00 15 00 0C 11  00 01 18 0D 41 01 80 05  ............A...
0DB0: 80 14 00 18 00 1B 00                              .......         
```

#### Opcodes

```
  0: 0x0004 [0x03] ExtData[1]->WorkLocal[1] = Work_Zone[52]
  1: 0x0009 [0x0C] ExtData[1]->WorkLocal[1]--
  2: 0x000C [0x13] ExtData[1]->WorkLocal[0] = rand() % ExtData[1]->WorkLocal[1]
  3: 0x0011 [0x0B] ExtData[1]->WorkLocal[0]++
  4: 0x0014 [0x02] IF !(Work_Zone[35] == 4294967294*) GOTO 0x0478
  5: 0x001C [0x02] IF !(Work_Zone[41] == 0*) GOTO 0x0050
  6: 0x0024 [0x03] Work_Zone[58] = 0*
  7: 0x0029 [0x45] LOAD_SCHEDULED_TASK: Load scheduler "s138" with entities [Unnamed NPC (ID: 17063953/0x01046011), Unnamed NPC (ID: 17063953/0x01046011)], work=[191*, 0*]
  8: 0x003A [0x29] REQ_SET_WAIT(priority=0x05, entity_id=Goccilo (ID: 17063961/0x01046019), tag_num=0x1A)
  9: 0x0041 [0x52] END_LOAD_SCHEDULER: End scheduler "s138" with entities [Unnamed NPC (ID: 17063953/0x01046011), Unnamed NPC (ID: 17063953/0x01046011)], work=191*
 10: 0x0050 [0x02] IF !(Work_Zone[41] == 1*) GOTO 0x005B
 11: 0x0058 [0x1A] CALL_SUBROUTINE(address=0x08DE)
 12: 0x005B [0x02] IF !(Work_Zone[41] == 2*) GOTO 0x0066
 13: 0x0063 [0x1A] CALL_SUBROUTINE(address=0x09FF)
 14: 0x0066 [0x02] IF !(Work_Zone[41] == 3*) GOTO 0x0071
 15: 0x006E [0x1A] CALL_SUBROUTINE(address=0x08DE)
 16: 0x0071 [0x02] IF !(Work_Zone[41] == 4*) GOTO 0x007C
 17: 0x0079 [0x1A] CALL_SUBROUTINE(address=0x08DE)
 18: 0x007C [0x02] IF !(Work_Zone[41] == 5*) GOTO 0x009B
 19: 0x0084 [0x1A] CALL_SUBROUTINE(address=0x09FF)
 20: 0x0087 [0x1C] WAIT(15* ticks)
 21: 0x008A [0x45] LOAD_SCHEDULED_TASK: Load scheduler "fdi0" with entities [LocalPlayer, LocalPlayer], work=[200*, 0*]
 22: 0x009B [0x02] IF !(Work_Zone[41] == 6*) GOTO 0x00A6
 23: 0x00A3 [0x1A] CALL_SUBROUTINE(address=0x08DE)
 24: 0x00A6 [0x02] IF !(Work_Zone[41] == 7*) GOTO 0x00B1
 25: 0x00AE [0x1A] CALL_SUBROUTINE(address=0x0B25)
 26: 0x00B1 [0x02] IF !(Work_Zone[41] == 8*) GOTO 0x00BC
 27: 0x00B9 [0x1A] CALL_SUBROUTINE(address=0x08DE)
 28: 0x00BC [0x02] IF !(Work_Zone[41] == 9*) GOTO 0x00DB
 29: 0x00C4 [0x1A] CALL_SUBROUTINE(address=0x09FF)
 30: 0x00C7 [0x1C] WAIT(15* ticks)
 31: 0x00CA [0x45] LOAD_SCHEDULED_TASK: Load scheduler "fdi0" with entities [LocalPlayer, LocalPlayer], work=[200*, 0*]
 32: 0x00DB [0x02] IF !(Work_Zone[41] == 10*) GOTO 0x00E6
 33: 0x00E3 [0x1A] CALL_SUBROUTINE(address=0x08DE)
 34: 0x00E6 [0x02] IF !(Work_Zone[41] == 11*) GOTO 0x00F1
 35: 0x00EE [0x1A] CALL_SUBROUTINE(address=0x09FF)
 36: 0x00F1 [0x02] IF !(Work_Zone[41] == 12*) GOTO 0x00FC
 37: 0x00F9 [0x1A] CALL_SUBROUTINE(address=0x08DE)
 38: 0x00FC [0x02] IF !(Work_Zone[41] == 13*) GOTO 0x011B
 39: 0x0104 [0x1A] CALL_SUBROUTINE(address=0x09FF)
 40: 0x0107 [0x1C] WAIT(15* ticks)
 41: 0x010A [0x45] LOAD_SCHEDULED_TASK: Load scheduler "fdi0" with entities [LocalPlayer, LocalPlayer], work=[200*, 0*]
 42: 0x011B [0x02] IF !(Work_Zone[41] == 14*) GOTO 0x013B
 43: 0x0123 [0x03] ExtData[1]->WorkLocal[15] = Work_Zone[41]
 44: 0x0128 [0x03] ExtData[1]->WorkLocal[16] = 0*
 45: 0x012D [0x1A] CALL_SUBROUTINE(address=0x0C4B)
 46: 0x0130 [0x03] ExtData[1]->WorkLocal[0] = ExtData[1]->WorkLocal[24]
 47: 0x0135 [0x0B] ExtData[1]->WorkLocal[0]++
 48: 0x0138 [0x1A] CALL_SUBROUTINE(address=0x08DE)
 49: 0x013B [0x02] IF !(Work_Zone[41] == 15*) GOTO 0x015B
 50: 0x0143 [0x03] ExtData[1]->WorkLocal[15] = Work_Zone[41]
 51: 0x0148 [0x03] ExtData[1]->WorkLocal[16] = 0*
 52: 0x014D [0x1A] CALL_SUBROUTINE(address=0x0C4B)
 53: 0x0150 [0x03] ExtData[1]->WorkLocal[0] = ExtData[1]->WorkLocal[24]
 54: 0x0155 [0x0B] ExtData[1]->WorkLocal[0]++
 55: 0x0158 [0x1A] CALL_SUBROUTINE(address=0x09FF)
 56: 0x015B [0x02] IF !(Work_Zone[41] == 16*) GOTO 0x0180
 57: 0x0163 [0x29] REQ_SET_WAIT(priority=0x03, entity_id=cameraA (ID: 17063972/0x01046024), tag_num=0x06)
 58: 0x016A [0x45] LOAD_SCHEDULED_TASK: Load scheduler "pc00" with entities [cameraA (ID: 17063972/0x01046024), cameraA (ID: 17063972/0x01046024)], work=[294*, 0*]
 59: 0x017B [0x03] Work_Zone[58] = 50*
 60: 0x0180 [0x02] IF !(Work_Zone[41] == 17*) GOTO 0x0350
 61: 0x0188 [0x45] LOAD_SCHEDULED_TASK: Load scheduler "fdo0" with entities [LocalPlayer, LocalPlayer], work=[200*, 0*]
 62: 0x0199 [0x55] WAIT_LOAD_SCHEDULER: Wait for scheduler "fdo0" with entities [LocalPlayer, LocalPlayer], work=200*
 63: 0x01A8 [0x29] REQ_SET_WAIT(priority=0x03, entity_id=cameraA (ID: 17063972/0x01046024), tag_num=0x06)
 64: 0x01AF [0x02] IF !(Work_Zone[35] == 5*) GOTO 0x01E7
 65: 0x01B7 [0x02] IF !(Work_Zone[32] == 2*) GOTO 0x01D3
 66: 0x01BF [0x45] LOAD_SCHEDULED_TASK: Load scheduler "s197" with entities [LocalPlayer, LocalPlayer], work=[191*, 0*]
 67: 0x01D0 [0x01] GOTO 0x01E4
 68: 0x01D3 [0x45] LOAD_SCHEDULED_TASK: Load scheduler "s180" with entities [LocalPlayer, LocalPlayer], work=[191*, 0*]

SUBROUTINE_01E4:
 69: 0x01E4 [0x01] GOTO 0x0268
 70: 0x01E7 [0x02] IF !(Work_Zone[35] == 6*) GOTO 0x021F
 71: 0x01EF [0x02] IF !(Work_Zone[32] == 1*) GOTO 0x020B
 72: 0x01F7 [0x45] LOAD_SCHEDULED_TASK: Load scheduler "s197" with entities [LocalPlayer, LocalPlayer], work=[191*, 0*]
 73: 0x0208 [0x01] GOTO 0x021C
 74: 0x020B [0x45] LOAD_SCHEDULED_TASK: Load scheduler "s180" with entities [LocalPlayer, LocalPlayer], work=[191*, 0*]

SUBROUTINE_021C:
 75: 0x021C [0x01] GOTO 0x0268
 76: 0x021F [0x02] IF !(Work_Zone[35] == 8*) GOTO 0x0257
 77: 0x0227 [0x02] IF !(Work_Zone[32] == 3*) GOTO 0x0243
 78: 0x022F [0x45] LOAD_SCHEDULED_TASK: Load scheduler "s197" with entities [LocalPlayer, LocalPlayer], work=[191*, 0*]
 79: 0x0240 [0x01] GOTO 0x0254
 80: 0x0243 [0x45] LOAD_SCHEDULED_TASK: Load scheduler "s180" with entities [LocalPlayer, LocalPlayer], work=[191*, 0*]

SUBROUTINE_0254:
 81: 0x0254 [0x01] GOTO 0x0268
 82: 0x0257 [0x45] LOAD_SCHEDULED_TASK: Load scheduler "s180" with entities [LocalPlayer, LocalPlayer], work=[191*, 0*]

SUBROUTINE_0268:
 83: 0x0268 [0x1C] WAIT(15* ticks)
 84: 0x026B [0x45] LOAD_SCHEDULED_TASK: Load scheduler "fdi0" with entities [LocalPlayer, LocalPlayer], work=[200*, 0*]
 85: 0x027C [0x29] REQ_SET_WAIT(priority=0x05, entity_id=Goccilo (ID: 17063961/0x01046019), tag_num=0x1B)
 86: 0x0283 [0x02] IF !(Work_Zone[35] == 5*) GOTO 0x02B7
 87: 0x028B [0x02] IF !(Work_Zone[32] == 2*) GOTO 0x02A5
 88: 0x0293 [0x52] END_LOAD_SCHEDULER: End scheduler "s197" with entities [LocalPlayer, LocalPlayer], work=191*
 89: 0x02A2 [0x01] GOTO 0x02B4
 90: 0x02A5 [0x52] END_LOAD_SCHEDULER: End scheduler "s180" with entities [LocalPlayer, LocalPlayer], work=191*

SUBROUTINE_02B4:
 91: 0x02B4 [0x01] GOTO 0x032E
 92: 0x02B7 [0x02] IF !(Work_Zone[35] == 6*) GOTO 0x02EB
 93: 0x02BF [0x02] IF !(Work_Zone[32] == 1*) GOTO 0x02D9
 94: 0x02C7 [0x52] END_LOAD_SCHEDULER: End scheduler "s197" with entities [LocalPlayer, LocalPlayer], work=191*
 95: 0x02D6 [0x01] GOTO 0x02E8
 96: 0x02D9 [0x52] END_LOAD_SCHEDULER: End scheduler "s180" with entities [LocalPlayer, LocalPlayer], work=191*

SUBROUTINE_02E8:
 97: 0x02E8 [0x01] GOTO 0x032E
 98: 0x02EB [0x02] IF !(Work_Zone[35] == 8*) GOTO 0x031F
 99: 0x02F3 [0x02] IF !(Work_Zone[32] == 3*) GOTO 0x030D
100: 0x02FB [0x52] END_LOAD_SCHEDULER: End scheduler "s197" with entities [LocalPlayer, LocalPlayer], work=191*
101: 0x030A [0x01] GOTO 0x031C
102: 0x030D [0x52] END_LOAD_SCHEDULER: End scheduler "s180" with entities [LocalPlayer, LocalPlayer], work=191*

SUBROUTINE_031C:
103: 0x031C [0x01] GOTO 0x032E
104: 0x031F [0x52] END_LOAD_SCHEDULER: End scheduler "s180" with entities [LocalPlayer, LocalPlayer], work=191*

SUBROUTINE_032E:
105: 0x032E [0x45] LOAD_SCHEDULED_TASK: Load scheduler "naks" with entities [LocalPlayer, LocalPlayer], work=[191*, 0*]
106: 0x033F [0x45] LOAD_SCHEDULED_TASK: Load scheduler "hass" with entities [LocalPlayer, LocalPlayer], work=[191*, 0*]
107: 0x0350 [0x02] IF !(Work_Zone[41] == 18*) GOTO 0x0358
108: 0x0358 [0x02] IF !(Work_Zone[41] == 19*) GOTO 0x0360
109: 0x0360 [0x02] IF !(Work_Zone[41] == 20*) GOTO 0x0399
110: 0x0368 [0x29] REQ_SET_WAIT(priority=0x03, entity_id=cameraA (ID: 17063972/0x01046024), tag_num=0x06)
111: 0x036F [0x45] LOAD_SCHEDULED_TASK: Load scheduler "pc01" with entities [cameraA (ID: 17063972/0x01046024), cameraA (ID: 17063972/0x01046024)], work=[294*, 0*]
112: 0x0380 [0x1C] WAIT(15* ticks)
113: 0x0383 [0x45] LOAD_SCHEDULED_TASK: Load scheduler "fdi0" with entities [LocalPlayer, LocalPlayer], work=[200*, 0*]
114: 0x0394 [0x03] Work_Zone[58] = 51*
115: 0x0399 [0x02] IF !(Work_Zone[41] == 21*) GOTO 0x03A4
116: 0x03A1 [0x1A] CALL_SUBROUTINE(address=0x09FF)
117: 0x03A4 [0x02] IF !(Work_Zone[41] == 22*) GOTO 0x03AF
118: 0x03AC [0x1A] CALL_SUBROUTINE(address=0x08DE)
119: 0x03AF [0x02] IF !(Work_Zone[41] == 23*) GOTO 0x03D6
120: 0x03B7 [0x27] REQ_SET(priority=0x05, entity_id=Goccilo (ID: 17063961/0x01046019), tag_num=0x1C)
121: 0x03BE [0x03] ExtData[1]->WorkLocal[15] = Work_Zone[41]
122: 0x03C3 [0x03] ExtData[1]->WorkLocal[16] = 0*
123: 0x03C8 [0x1A] CALL_SUBROUTINE(address=0x0C4B)
124: 0x03CB [0x03] ExtData[1]->WorkLocal[0] = ExtData[1]->WorkLocal[24]
125: 0x03D0 [0x0B] ExtData[1]->WorkLocal[0]++
126: 0x03D3 [0x1A] CALL_SUBROUTINE(address=0x09FF)
127: 0x03D6 [0x02] IF !(Work_Zone[41] == 24*) GOTO 0x03E1
128: 0x03DE [0x1A] CALL_SUBROUTINE(address=0x08DE)
129: 0x03E1 [0x02] IF !(Work_Zone[41] == 25*) GOTO 0x0400
130: 0x03E9 [0x1A] CALL_SUBROUTINE(address=0x08DE)
131: 0x03EC [0x1C] WAIT(15* ticks)
132: 0x03EF [0x45] LOAD_SCHEDULED_TASK: Load scheduler "fdi0" with entities [LocalPlayer, LocalPlayer], work=[200*, 0*]
133: 0x0400 [0x02] IF !(Work_Zone[41] == 26*) GOTO 0x040B
134: 0x0408 [0x1A] CALL_SUBROUTINE(address=0x09FF)
135: 0x040B [0x02] IF !(Work_Zone[41] == 27*) GOTO 0x0416
136: 0x0413 [0x1A] CALL_SUBROUTINE(address=0x08DE)
137: 0x0416 [0x02] IF !(Work_Zone[41] == 28*) GOTO 0x0436
138: 0x041E [0x03] ExtData[1]->WorkLocal[15] = Work_Zone[41]
139: 0x0423 [0x03] ExtData[1]->WorkLocal[16] = 0*
140: 0x0428 [0x1A] CALL_SUBROUTINE(address=0x0C4B)
141: 0x042B [0x03] ExtData[1]->WorkLocal[0] = ExtData[1]->WorkLocal[24]
142: 0x0430 [0x0B] ExtData[1]->WorkLocal[0]++
143: 0x0433 [0x1A] CALL_SUBROUTINE(address=0x09FF)
144: 0x0436 [0x02] IF !(Work_Zone[41] == 29*) GOTO 0x0455
145: 0x043E [0x1A] CALL_SUBROUTINE(address=0x08DE)
146: 0x0441 [0x1C] WAIT(15* ticks)
147: 0x0444 [0x45] LOAD_SCHEDULED_TASK: Load scheduler "fdi0" with entities [LocalPlayer, LocalPlayer], work=[200*, 0*]
148: 0x0455 [0x02] IF !(Work_Zone[41] == 30*) GOTO 0x0475
149: 0x045D [0x03] ExtData[1]->WorkLocal[15] = Work_Zone[41]
150: 0x0462 [0x03] ExtData[1]->WorkLocal[16] = 0*
151: 0x0467 [0x1A] CALL_SUBROUTINE(address=0x0C4B)
152: 0x046A [0x03] ExtData[1]->WorkLocal[0] = ExtData[1]->WorkLocal[24]
153: 0x046F [0x0B] ExtData[1]->WorkLocal[0]++
154: 0x0472 [0x1A] CALL_SUBROUTINE(address=0x0B25)
155: 0x0475 [0x01] GOTO 0x08DD
156: 0x0478 [0x02] IF !(Work_Zone[41] == 0*) GOTO 0x04AC
157: 0x0480 [0x03] Work_Zone[58] = 0*
158: 0x0485 [0x45] LOAD_SCHEDULED_TASK: Load scheduler "s138" with entities [Unnamed NPC (ID: 17063953/0x01046011), Unnamed NPC (ID: 17063953/0x01046011)], work=[191*, 0*]
159: 0x0496 [0x29] REQ_SET_WAIT(priority=0x05, entity_id=Goccilo (ID: 17063961/0x01046019), tag_num=0x1A)
160: 0x049D [0x52] END_LOAD_SCHEDULER: End scheduler "s138" with entities [Unnamed NPC (ID: 17063953/0x01046011), Unnamed NPC (ID: 17063953/0x01046011)], work=191*
161: 0x04AC [0x02] IF !(Work_Zone[41] == 1*) GOTO 0x04B7
162: 0x04B4 [0x1A] CALL_SUBROUTINE(address=0x08DE)
163: 0x04B7 [0x02] IF !(Work_Zone[41] == 2*) GOTO 0x04C2
164: 0x04BF [0x1A] CALL_SUBROUTINE(address=0x09FF)
165: 0x04C2 [0x02] IF !(Work_Zone[41] == 3*) GOTO 0x04D2
166: 0x04CA [0x03] ExtData[1]->WorkLocal[0] = 1*
167: 0x04CF [0x1A] CALL_SUBROUTINE(address=0x08DE)
168: 0x04D2 [0x02] IF !(Work_Zone[41] == 4*) GOTO 0x04DD
169: 0x04DA [0x1A] CALL_SUBROUTINE(address=0x08DE)
170: 0x04DD [0x02] IF !(Work_Zone[41] == 5*) GOTO 0x04FC
171: 0x04E5 [0x1A] CALL_SUBROUTINE(address=0x09FF)
172: 0x04E8 [0x1C] WAIT(15* ticks)
173: 0x04EB [0x45] LOAD_SCHEDULED_TASK: Load scheduler "fdi0" with entities [LocalPlayer, LocalPlayer], work=[200*, 0*]
174: 0x04FC [0x02] IF !(Work_Zone[41] == 6*) GOTO 0x0507
175: 0x0504 [0x1A] CALL_SUBROUTINE(address=0x08DE)
176: 0x0507 [0x02] IF !(Work_Zone[41] == 7*) GOTO 0x0512
177: 0x050F [0x1A] CALL_SUBROUTINE(address=0x0B25)
178: 0x0512 [0x02] IF !(Work_Zone[41] == 8*) GOTO 0x051D
179: 0x051A [0x1A] CALL_SUBROUTINE(address=0x08DE)
180: 0x051D [0x02] IF !(Work_Zone[41] == 9*) GOTO 0x053C
181: 0x0525 [0x1A] CALL_SUBROUTINE(address=0x09FF)
182: 0x0528 [0x1C] WAIT(15* ticks)
183: 0x052B [0x45] LOAD_SCHEDULED_TASK: Load scheduler "fdi0" with entities [LocalPlayer, LocalPlayer], work=[200*, 0*]
184: 0x053C [0x02] IF !(Work_Zone[41] == 10*) GOTO 0x0547
185: 0x0544 [0x1A] CALL_SUBROUTINE(address=0x08DE)
186: 0x0547 [0x02] IF !(Work_Zone[41] == 11*) GOTO 0x0557
187: 0x054F [0x03] ExtData[1]->WorkLocal[0] = 1*
188: 0x0554 [0x1A] CALL_SUBROUTINE(address=0x09FF)
189: 0x0557 [0x02] IF !(Work_Zone[41] == 12*) GOTO 0x0562
190: 0x055F [0x1A] CALL_SUBROUTINE(address=0x08DE)
191: 0x0562 [0x02] IF !(Work_Zone[41] == 13*) GOTO 0x0581
192: 0x056A [0x1A] CALL_SUBROUTINE(address=0x09FF)
193: 0x056D [0x1C] WAIT(15* ticks)
194: 0x0570 [0x45] LOAD_SCHEDULED_TASK: Load scheduler "fdi0" with entities [LocalPlayer, LocalPlayer], work=[200*, 0*]
195: 0x0581 [0x02] IF !(Work_Zone[41] == 14*) GOTO 0x05A1
196: 0x0589 [0x03] ExtData[1]->WorkLocal[15] = Work_Zone[41]
197: 0x058E [0x03] ExtData[1]->WorkLocal[16] = 0*
198: 0x0593 [0x1A] CALL_SUBROUTINE(address=0x0C4B)
199: 0x0596 [0x03] ExtData[1]->WorkLocal[0] = ExtData[1]->WorkLocal[24]
200: 0x059B [0x0B] ExtData[1]->WorkLocal[0]++
201: 0x059E [0x1A] CALL_SUBROUTINE(address=0x08DE)
202: 0x05A1 [0x02] IF !(Work_Zone[41] == 15*) GOTO 0x05C1
203: 0x05A9 [0x03] ExtData[1]->WorkLocal[15] = Work_Zone[41]
204: 0x05AE [0x03] ExtData[1]->WorkLocal[16] = 0*
205: 0x05B3 [0x1A] CALL_SUBROUTINE(address=0x0C4B)
206: 0x05B6 [0x03] ExtData[1]->WorkLocal[0] = ExtData[1]->WorkLocal[24]
207: 0x05BB [0x0B] ExtData[1]->WorkLocal[0]++
208: 0x05BE [0x1A] CALL_SUBROUTINE(address=0x09FF)
209: 0x05C1 [0x02] IF !(Work_Zone[41] == 16*) GOTO 0x05E6
210: 0x05C9 [0x29] REQ_SET_WAIT(priority=0x03, entity_id=cameraA (ID: 17063972/0x01046024), tag_num=0x06)
211: 0x05D0 [0x45] LOAD_SCHEDULED_TASK: Load scheduler "pc00" with entities [cameraA (ID: 17063972/0x01046024), cameraA (ID: 17063972/0x01046024)], work=[294*, 0*]
212: 0x05E1 [0x03] Work_Zone[58] = 50*
213: 0x05E6 [0x02] IF !(Work_Zone[41] == 17*) GOTO 0x07B6
214: 0x05EE [0x45] LOAD_SCHEDULED_TASK: Load scheduler "fdo0" with entities [LocalPlayer, LocalPlayer], work=[200*, 0*]
215: 0x05FF [0x55] WAIT_LOAD_SCHEDULER: Wait for scheduler "fdo0" with entities [LocalPlayer, LocalPlayer], work=200*
216: 0x060E [0x29] REQ_SET_WAIT(priority=0x03, entity_id=cameraA (ID: 17063972/0x01046024), tag_num=0x06)
217: 0x0615 [0x02] IF !(Work_Zone[35] == 5*) GOTO 0x064D
218: 0x061D [0x02] IF !(Work_Zone[32] == 2*) GOTO 0x0639
219: 0x0625 [0x45] LOAD_SCHEDULED_TASK: Load scheduler "s197" with entities [LocalPlayer, LocalPlayer], work=[191*, 0*]
220: 0x0636 [0x01] GOTO 0x064A
221: 0x0639 [0x45] LOAD_SCHEDULED_TASK: Load scheduler "s180" with entities [LocalPlayer, LocalPlayer], work=[191*, 0*]

SUBROUTINE_064A:
222: 0x064A [0x01] GOTO 0x06CE
223: 0x064D [0x02] IF !(Work_Zone[35] == 6*) GOTO 0x0685
224: 0x0655 [0x02] IF !(Work_Zone[32] == 1*) GOTO 0x0671
225: 0x065D [0x45] LOAD_SCHEDULED_TASK: Load scheduler "s197" with entities [LocalPlayer, LocalPlayer], work=[191*, 0*]
226: 0x066E [0x01] GOTO 0x0682
227: 0x0671 [0x45] LOAD_SCHEDULED_TASK: Load scheduler "s180" with entities [LocalPlayer, LocalPlayer], work=[191*, 0*]

SUBROUTINE_0682:
228: 0x0682 [0x01] GOTO 0x06CE
229: 0x0685 [0x02] IF !(Work_Zone[35] == 8*) GOTO 0x06BD
230: 0x068D [0x02] IF !(Work_Zone[32] == 3*) GOTO 0x06A9
231: 0x0695 [0x45] LOAD_SCHEDULED_TASK: Load scheduler "s197" with entities [LocalPlayer, LocalPlayer], work=[191*, 0*]
232: 0x06A6 [0x01] GOTO 0x06BA
233: 0x06A9 [0x45] LOAD_SCHEDULED_TASK: Load scheduler "s180" with entities [LocalPlayer, LocalPlayer], work=[191*, 0*]

SUBROUTINE_06BA:
234: 0x06BA [0x01] GOTO 0x06CE
235: 0x06BD [0x45] LOAD_SCHEDULED_TASK: Load scheduler "s180" with entities [LocalPlayer, LocalPlayer], work=[191*, 0*]

SUBROUTINE_06CE:
236: 0x06CE [0x1C] WAIT(15* ticks)
237: 0x06D1 [0x45] LOAD_SCHEDULED_TASK: Load scheduler "fdi0" with entities [LocalPlayer, LocalPlayer], work=[200*, 0*]
238: 0x06E2 [0x29] REQ_SET_WAIT(priority=0x05, entity_id=Goccilo (ID: 17063961/0x01046019), tag_num=0x1B)
239: 0x06E9 [0x02] IF !(Work_Zone[35] == 5*) GOTO 0x071D
240: 0x06F1 [0x02] IF !(Work_Zone[32] == 2*) GOTO 0x070B
241: 0x06F9 [0x52] END_LOAD_SCHEDULER: End scheduler "s197" with entities [LocalPlayer, LocalPlayer], work=191*
242: 0x0708 [0x01] GOTO 0x071A
243: 0x070B [0x52] END_LOAD_SCHEDULER: End scheduler "s180" with entities [LocalPlayer, LocalPlayer], work=191*

SUBROUTINE_071A:
244: 0x071A [0x01] GOTO 0x0794
245: 0x071D [0x02] IF !(Work_Zone[35] == 6*) GOTO 0x0751
246: 0x0725 [0x02] IF !(Work_Zone[32] == 1*) GOTO 0x073F
247: 0x072D [0x52] END_LOAD_SCHEDULER: End scheduler "s197" with entities [LocalPlayer, LocalPlayer], work=191*
248: 0x073C [0x01] GOTO 0x074E
249: 0x073F [0x52] END_LOAD_SCHEDULER: End scheduler "s180" with entities [LocalPlayer, LocalPlayer], work=191*

SUBROUTINE_074E:
250: 0x074E [0x01] GOTO 0x0794
251: 0x0751 [0x02] IF !(Work_Zone[35] == 8*) GOTO 0x0785
252: 0x0759 [0x02] IF !(Work_Zone[32] == 3*) GOTO 0x0773
253: 0x0761 [0x52] END_LOAD_SCHEDULER: End scheduler "s197" with entities [LocalPlayer, LocalPlayer], work=191*
254: 0x0770 [0x01] GOTO 0x0782
255: 0x0773 [0x52] END_LOAD_SCHEDULER: End scheduler "s180" with entities [LocalPlayer, LocalPlayer], work=191*

SUBROUTINE_0782:
256: 0x0782 [0x01] GOTO 0x0794
257: 0x0785 [0x52] END_LOAD_SCHEDULER: End scheduler "s180" with entities [LocalPlayer, LocalPlayer], work=191*

SUBROUTINE_0794:
258: 0x0794 [0x45] LOAD_SCHEDULED_TASK: Load scheduler "naks" with entities [LocalPlayer, LocalPlayer], work=[191*, 0*]
259: 0x07A5 [0x45] LOAD_SCHEDULED_TASK: Load scheduler "hass" with entities [LocalPlayer, LocalPlayer], work=[191*, 0*]
260: 0x07B6 [0x02] IF !(Work_Zone[41] == 18*) GOTO 0x07BE
261: 0x07BE [0x02] IF !(Work_Zone[41] == 19*) GOTO 0x07C6
262: 0x07C6 [0x02] IF !(Work_Zone[41] == 20*) GOTO 0x07FF
263: 0x07CE [0x29] REQ_SET_WAIT(priority=0x03, entity_id=cameraA (ID: 17063972/0x01046024), tag_num=0x06)
264: 0x07D5 [0x45] LOAD_SCHEDULED_TASK: Load scheduler "pc01" with entities [cameraA (ID: 17063972/0x01046024), cameraA (ID: 17063972/0x01046024)], work=[294*, 0*]
265: 0x07E6 [0x1C] WAIT(15* ticks)
266: 0x07E9 [0x45] LOAD_SCHEDULED_TASK: Load scheduler "fdi0" with entities [LocalPlayer, LocalPlayer], work=[200*, 0*]
267: 0x07FA [0x03] Work_Zone[58] = 51*
268: 0x07FF [0x02] IF !(Work_Zone[41] == 21*) GOTO 0x080A
269: 0x0807 [0x1A] CALL_SUBROUTINE(address=0x09FF)
270: 0x080A [0x02] IF !(Work_Zone[41] == 22*) GOTO 0x0815
271: 0x0812 [0x1A] CALL_SUBROUTINE(address=0x08DE)
272: 0x0815 [0x02] IF !(Work_Zone[41] == 23*) GOTO 0x083C
273: 0x081D [0x27] REQ_SET(priority=0x05, entity_id=Goccilo (ID: 17063961/0x01046019), tag_num=0x1C)
274: 0x0824 [0x03] ExtData[1]->WorkLocal[15] = Work_Zone[41]
275: 0x0829 [0x03] ExtData[1]->WorkLocal[16] = 0*
276: 0x082E [0x1A] CALL_SUBROUTINE(address=0x0C4B)
277: 0x0831 [0x03] ExtData[1]->WorkLocal[0] = ExtData[1]->WorkLocal[24]
278: 0x0836 [0x0B] ExtData[1]->WorkLocal[0]++
279: 0x0839 [0x1A] CALL_SUBROUTINE(address=0x09FF)
280: 0x083C [0x02] IF !(Work_Zone[41] == 24*) GOTO 0x085B
281: 0x0844 [0x1A] CALL_SUBROUTINE(address=0x08DE)
282: 0x0847 [0x1C] WAIT(15* ticks)
283: 0x084A [0x45] LOAD_SCHEDULED_TASK: Load scheduler "fdi0" with entities [LocalPlayer, LocalPlayer], work=[200*, 0*]
284: 0x085B [0x02] IF !(Work_Zone[41] == 25*) GOTO 0x0863
285: 0x0863 [0x02] IF !(Work_Zone[41] == 26*) GOTO 0x086E
286: 0x086B [0x1A] CALL_SUBROUTINE(address=0x09FF)
287: 0x086E [0x02] IF !(Work_Zone[41] == 27*) GOTO 0x087E
288: 0x0876 [0x03] ExtData[1]->WorkLocal[0] = 1*
289: 0x087B [0x1A] CALL_SUBROUTINE(address=0x08DE)
290: 0x087E [0x02] IF !(Work_Zone[41] == 28*) GOTO 0x089E
291: 0x0886 [0x03] ExtData[1]->WorkLocal[15] = Work_Zone[41]
292: 0x088B [0x03] ExtData[1]->WorkLocal[16] = 0*
293: 0x0890 [0x1A] CALL_SUBROUTINE(address=0x0C4B)
294: 0x0893 [0x03] ExtData[1]->WorkLocal[0] = ExtData[1]->WorkLocal[24]
295: 0x0898 [0x0B] ExtData[1]->WorkLocal[0]++
296: 0x089B [0x1A] CALL_SUBROUTINE(address=0x09FF)
297: 0x089E [0x02] IF !(Work_Zone[41] == 29*) GOTO 0x08BD
298: 0x08A6 [0x1A] CALL_SUBROUTINE(address=0x08DE)
299: 0x08A9 [0x1C] WAIT(15* ticks)
300: 0x08AC [0x45] LOAD_SCHEDULED_TASK: Load scheduler "fdi0" with entities [LocalPlayer, LocalPlayer], work=[200*, 0*]
301: 0x08BD [0x02] IF !(Work_Zone[41] == 30*) GOTO 0x08DD
302: 0x08C5 [0x03] ExtData[1]->WorkLocal[15] = Work_Zone[41]
303: 0x08CA [0x03] ExtData[1]->WorkLocal[16] = 0*
304: 0x08CF [0x1A] CALL_SUBROUTINE(address=0x0C4B)
305: 0x08D2 [0x03] ExtData[1]->WorkLocal[0] = ExtData[1]->WorkLocal[24]
306: 0x08D7 [0x0B] ExtData[1]->WorkLocal[0]++
307: 0x08DA [0x1A] CALL_SUBROUTINE(address=0x0B25)

SUBROUTINE_08DD:
308: 0x08DD [0x00] END_REQSTACK()

SUBROUTINE_08DE:
309: 0x08DE [0x29] REQ_SET_WAIT(priority=0x05, entity_id=cameraA (ID: 17063972/0x01046024), tag_num=0x07)
310: 0x08E5 [0x02] IF !(ExtData[1]->WorkLocal[0] == 1*) GOTO 0x0905
311: 0x08ED [0x29] REQ_SET_WAIT(priority=0x03, entity_id=cameraA (ID: 17063972/0x01046024), tag_num=0x06)
312: 0x08F4 [0x45] LOAD_SCHEDULED_TASK: Load scheduler "rm01" with entities [cameraA (ID: 17063972/0x01046024), Unnamed NPC (ID: 17063953/0x01046011)], work=[294*, 0*]
313: 0x0905 [0x02] IF !(ExtData[1]->WorkLocal[0] == 2*) GOTO 0x0925
314: 0x090D [0x29] REQ_SET_WAIT(priority=0x03, entity_id=cameraA (ID: 17063972/0x01046024), tag_num=0x06)
315: 0x0914 [0x45] LOAD_SCHEDULED_TASK: Load scheduler "rm01" with entities [cameraA (ID: 17063972/0x01046024), Unnamed NPC (ID: 17063954/0x01046012)], work=[294*, 0*]
316: 0x0925 [0x02] IF !(ExtData[1]->WorkLocal[0] == 3*) GOTO 0x0945
317: 0x092D [0x29] REQ_SET_WAIT(priority=0x03, entity_id=cameraA (ID: 17063972/0x01046024), tag_num=0x06)
318: 0x0934 [0x45] LOAD_SCHEDULED_TASK: Load scheduler "rm01" with entities [cameraA (ID: 17063972/0x01046024), Unnamed NPC (ID: 17063955/0x01046013)], work=[294*, 0*]
319: 0x0945 [0x02] IF !(ExtData[1]->WorkLocal[0] == 4*) GOTO 0x0965
320: 0x094D [0x29] REQ_SET_WAIT(priority=0x03, entity_id=cameraA (ID: 17063972/0x01046024), tag_num=0x06)
321: 0x0954 [0x45] LOAD_SCHEDULED_TASK: Load scheduler "rm01" with entities [cameraA (ID: 17063972/0x01046024), Unnamed NPC (ID: 17063956/0x01046014)], work=[294*, 0*]
322: 0x0965 [0x02] IF !(ExtData[1]->WorkLocal[0] == 5*) GOTO 0x0985
323: 0x096D [0x29] REQ_SET_WAIT(priority=0x03, entity_id=cameraA (ID: 17063972/0x01046024), tag_num=0x06)
324: 0x0974 [0x45] LOAD_SCHEDULED_TASK: Load scheduler "rm01" with entities [cameraA (ID: 17063972/0x01046024), Unnamed NPC (ID: 17063957/0x01046015)], work=[294*, 0*]
325: 0x0985 [0x02] IF !(ExtData[1]->WorkLocal[0] == 6*) GOTO 0x09A5
326: 0x098D [0x29] REQ_SET_WAIT(priority=0x03, entity_id=cameraA (ID: 17063972/0x01046024), tag_num=0x06)
327: 0x0994 [0x45] LOAD_SCHEDULED_TASK: Load scheduler "rm01" with entities [cameraA (ID: 17063972/0x01046024), Unnamed NPC (ID: 17063958/0x01046016)], work=[294*, 0*]
328: 0x09A5 [0x02] IF !(ExtData[1]->WorkLocal[0] == 7*) GOTO 0x09C5
329: 0x09AD [0x29] REQ_SET_WAIT(priority=0x03, entity_id=cameraA (ID: 17063972/0x01046024), tag_num=0x06)
330: 0x09B4 [0x45] LOAD_SCHEDULED_TASK: Load scheduler "rm01" with entities [cameraA (ID: 17063972/0x01046024), Unnamed NPC (ID: 17063959/0x01046017)], work=[294*, 0*]
331: 0x09C5 [0x02] IF !(ExtData[1]->WorkLocal[0] == 8*) GOTO 0x09E5
332: 0x09CD [0x29] REQ_SET_WAIT(priority=0x03, entity_id=cameraA (ID: 17063972/0x01046024), tag_num=0x06)
333: 0x09D4 [0x45] LOAD_SCHEDULED_TASK: Load scheduler "rm01" with entities [cameraA (ID: 17063972/0x01046024), Unnamed NPC (ID: 17063960/0x01046018)], work=[294*, 0*]
334: 0x09E5 [0x1C] WAIT(15* ticks)
335: 0x09E8 [0x45] LOAD_SCHEDULED_TASK: Load scheduler "fdi0" with entities [LocalPlayer, LocalPlayer], work=[200*, 0*]
336: 0x09F9 [0x03] Work_Zone[58] = ExtData[1]->WorkLocal[0]
337: 0x09FE [0x1B] RETURN

SUBROUTINE_09FF:
338: 0x09FF [0x29] REQ_SET_WAIT(priority=0x05, entity_id=cameraB (ID: 17063973/0x01046025), tag_num=0x06)
339: 0x0A06 [0x02] IF !(ExtData[1]->WorkLocal[0] == 1*) GOTO 0x0A26
340: 0x0A0E [0x29] REQ_SET_WAIT(priority=0x03, entity_id=cameraA (ID: 17063972/0x01046024), tag_num=0x06)
341: 0x0A15 [0x45] LOAD_SCHEDULED_TASK: Load scheduler "rm00" with entities [Unnamed NPC (ID: 17063953/0x01046011), cameraB (ID: 17063973/0x01046025)], work=[294*, 0*]
342: 0x0A26 [0x02] IF !(ExtData[1]->WorkLocal[0] == 2*) GOTO 0x0A46
343: 0x0A2E [0x29] REQ_SET_WAIT(priority=0x03, entity_id=cameraA (ID: 17063972/0x01046024), tag_num=0x06)
344: 0x0A35 [0x45] LOAD_SCHEDULED_TASK: Load scheduler "rm00" with entities [Unnamed NPC (ID: 17063954/0x01046012), cameraB (ID: 17063973/0x01046025)], work=[294*, 0*]
345: 0x0A46 [0x02] IF !(ExtData[1]->WorkLocal[0] == 3*) GOTO 0x0A66
346: 0x0A4E [0x29] REQ_SET_WAIT(priority=0x03, entity_id=cameraA (ID: 17063972/0x01046024), tag_num=0x06)
347: 0x0A55 [0x45] LOAD_SCHEDULED_TASK: Load scheduler "rm00" with entities [Unnamed NPC (ID: 17063955/0x01046013), cameraB (ID: 17063973/0x01046025)], work=[294*, 0*]
348: 0x0A66 [0x02] IF !(ExtData[1]->WorkLocal[0] == 4*) GOTO 0x0A86
349: 0x0A6E [0x29] REQ_SET_WAIT(priority=0x03, entity_id=cameraA (ID: 17063972/0x01046024), tag_num=0x06)
350: 0x0A75 [0x45] LOAD_SCHEDULED_TASK: Load scheduler "rm00" with entities [Unnamed NPC (ID: 17063956/0x01046014), cameraB (ID: 17063973/0x01046025)], work=[294*, 0*]
351: 0x0A86 [0x02] IF !(ExtData[1]->WorkLocal[0] == 5*) GOTO 0x0AA6
352: 0x0A8E [0x29] REQ_SET_WAIT(priority=0x03, entity_id=cameraA (ID: 17063972/0x01046024), tag_num=0x06)
353: 0x0A95 [0x45] LOAD_SCHEDULED_TASK: Load scheduler "rm00" with entities [Unnamed NPC (ID: 17063957/0x01046015), cameraB (ID: 17063973/0x01046025)], work=[294*, 0*]
354: 0x0AA6 [0x02] IF !(ExtData[1]->WorkLocal[0] == 6*) GOTO 0x0AC6
355: 0x0AAE [0x29] REQ_SET_WAIT(priority=0x03, entity_id=cameraA (ID: 17063972/0x01046024), tag_num=0x06)
356: 0x0AB5 [0x45] LOAD_SCHEDULED_TASK: Load scheduler "rm00" with entities [Unnamed NPC (ID: 17063958/0x01046016), cameraB (ID: 17063973/0x01046025)], work=[294*, 0*]
357: 0x0AC6 [0x02] IF !(ExtData[1]->WorkLocal[0] == 7*) GOTO 0x0AE6
358: 0x0ACE [0x29] REQ_SET_WAIT(priority=0x03, entity_id=cameraA (ID: 17063972/0x01046024), tag_num=0x06)
359: 0x0AD5 [0x45] LOAD_SCHEDULED_TASK: Load scheduler "rm00" with entities [Unnamed NPC (ID: 17063959/0x01046017), cameraB (ID: 17063973/0x01046025)], work=[294*, 0*]
360: 0x0AE6 [0x02] IF !(ExtData[1]->WorkLocal[0] == 8*) GOTO 0x0B06
361: 0x0AEE [0x29] REQ_SET_WAIT(priority=0x03, entity_id=cameraA (ID: 17063972/0x01046024), tag_num=0x06)
362: 0x0AF5 [0x45] LOAD_SCHEDULED_TASK: Load scheduler "rm00" with entities [Unnamed NPC (ID: 17063960/0x01046018), cameraB (ID: 17063973/0x01046025)], work=[294*, 0*]
363: 0x0B06 [0x03] Work_Zone[58] = 10*
364: 0x0B0B [0x07] Work_Zone[58] += ExtData[1]->WorkLocal[0]
365: 0x0B10 [0x1C] WAIT(15* ticks)
366: 0x0B13 [0x45] LOAD_SCHEDULED_TASK: Load scheduler "fdi0" with entities [LocalPlayer, LocalPlayer], work=[200*, 0*]
367: 0x0B24 [0x1B] RETURN

SUBROUTINE_0B25:
368: 0x0B25 [0x29] REQ_SET_WAIT(priority=0x05, entity_id=cameraB (ID: 17063973/0x01046025), tag_num=0x06)
369: 0x0B2C [0x02] IF !(ExtData[1]->WorkLocal[0] == 1*) GOTO 0x0B4C
370: 0x0B34 [0x29] REQ_SET_WAIT(priority=0x03, entity_id=cameraA (ID: 17063972/0x01046024), tag_num=0x06)
371: 0x0B3B [0x45] LOAD_SCHEDULED_TASK: Load scheduler "rm04" with entities [Unnamed NPC (ID: 17063953/0x01046011), cameraB (ID: 17063973/0x01046025)], work=[294*, 0*]
372: 0x0B4C [0x02] IF !(ExtData[1]->WorkLocal[0] == 2*) GOTO 0x0B6C
373: 0x0B54 [0x29] REQ_SET_WAIT(priority=0x03, entity_id=cameraA (ID: 17063972/0x01046024), tag_num=0x06)
374: 0x0B5B [0x45] LOAD_SCHEDULED_TASK: Load scheduler "rm04" with entities [Unnamed NPC (ID: 17063954/0x01046012), cameraB (ID: 17063973/0x01046025)], work=[294*, 0*]
375: 0x0B6C [0x02] IF !(ExtData[1]->WorkLocal[0] == 3*) GOTO 0x0B8C
376: 0x0B74 [0x29] REQ_SET_WAIT(priority=0x03, entity_id=cameraA (ID: 17063972/0x01046024), tag_num=0x06)
377: 0x0B7B [0x45] LOAD_SCHEDULED_TASK: Load scheduler "rm04" with entities [Unnamed NPC (ID: 17063955/0x01046013), cameraB (ID: 17063973/0x01046025)], work=[294*, 0*]
378: 0x0B8C [0x02] IF !(ExtData[1]->WorkLocal[0] == 4*) GOTO 0x0BAC
379: 0x0B94 [0x29] REQ_SET_WAIT(priority=0x03, entity_id=cameraA (ID: 17063972/0x01046024), tag_num=0x06)
380: 0x0B9B [0x45] LOAD_SCHEDULED_TASK: Load scheduler "rm04" with entities [Unnamed NPC (ID: 17063956/0x01046014), cameraB (ID: 17063973/0x01046025)], work=[294*, 0*]
381: 0x0BAC [0x02] IF !(ExtData[1]->WorkLocal[0] == 5*) GOTO 0x0BCC
382: 0x0BB4 [0x29] REQ_SET_WAIT(priority=0x03, entity_id=cameraA (ID: 17063972/0x01046024), tag_num=0x06)
383: 0x0BBB [0x45] LOAD_SCHEDULED_TASK: Load scheduler "rm04" with entities [Unnamed NPC (ID: 17063957/0x01046015), cameraB (ID: 17063973/0x01046025)], work=[294*, 0*]
384: 0x0BCC [0x02] IF !(ExtData[1]->WorkLocal[0] == 6*) GOTO 0x0BEC
385: 0x0BD4 [0x29] REQ_SET_WAIT(priority=0x03, entity_id=cameraA (ID: 17063972/0x01046024), tag_num=0x06)
386: 0x0BDB [0x45] LOAD_SCHEDULED_TASK: Load scheduler "rm04" with entities [Unnamed NPC (ID: 17063958/0x01046016), cameraB (ID: 17063973/0x01046025)], work=[294*, 0*]
387: 0x0BEC [0x02] IF !(ExtData[1]->WorkLocal[0] == 7*) GOTO 0x0C0C
388: 0x0BF4 [0x29] REQ_SET_WAIT(priority=0x03, entity_id=cameraA (ID: 17063972/0x01046024), tag_num=0x06)
389: 0x0BFB [0x45] LOAD_SCHEDULED_TASK: Load scheduler "rm04" with entities [Unnamed NPC (ID: 17063959/0x01046017), cameraB (ID: 17063973/0x01046025)], work=[294*, 0*]
390: 0x0C0C [0x02] IF !(ExtData[1]->WorkLocal[0] == 8*) GOTO 0x0C2C
391: 0x0C14 [0x29] REQ_SET_WAIT(priority=0x03, entity_id=cameraA (ID: 17063972/0x01046024), tag_num=0x06)
392: 0x0C1B [0x45] LOAD_SCHEDULED_TASK: Load scheduler "rm04" with entities [Unnamed NPC (ID: 17063960/0x01046018), cameraB (ID: 17063973/0x01046025)], work=[294*, 0*]
393: 0x0C2C [0x03] Work_Zone[58] = 40*
394: 0x0C31 [0x07] Work_Zone[58] += ExtData[1]->WorkLocal[0]
395: 0x0C36 [0x1C] WAIT(15* ticks)
396: 0x0C39 [0x45] LOAD_SCHEDULED_TASK: Load scheduler "fdi0" with entities [LocalPlayer, LocalPlayer], work=[200*, 0*]
397: 0x0C4A [0x1B] RETURN

SUBROUTINE_0C4B:
398: 0x0C4B [0xBF] CHOCOBO_RACING_PARAMETER_GETTER(param_type=0x40)
399: 0x0C4D [0x01] GOTO 0x0F80
```

#### Data or dead code:

```
# Dead code (unreachable instructions):
     0x0C50 [0x00] END_REQSTACK()
     0x0C51 [0x01] GOTO 0x0880
     0x0C54 [0x00] END_REQSTACK()
     0x0C55 [0x02] IF !(ExtData[1]->WorkLocal[16] == 0*) GOTO 0x0D05
     0x0C5D [0x03] ExtData[1]->WorkLocal[20] = 4294967295*
     0x0C62 [0x06] ExtData[1]->WorkLocal[17] = 0
     0x0C65 [0x06] ExtData[1]->WorkLocal[18] = 0
     0x0C68 [0x06] ExtData[1]->WorkLocal[22] = 0
     0x0C6B [0x06] ExtData[1]->WorkLocal[10] = 0
     0x0C6E [0x02] IF !(ExtData[1]->WorkLocal[17] >= 16*) GOTO 0x0D02
     0x0C76 [0x06] ExtData[1]->WorkLocal[19] = 0
     0x0C79 [0x06] ExtData[1]->WorkLocal[21] = 0
     0x0C7C [0x02] IF !(ExtData[1]->WorkLocal[19] >= Work_Zone[52]) GOTO 0x0CD2
     0x0C84 [0x03] ExtData[1]->WorkLocal[11] = ExtData[1]->WorkLocal[19]
     0x0C89 [0x14] ExtData[1]->WorkLocal[11] *= 4*
     0x0C8E [0x03] ExtData[1]->WorkLocal[12] = ExtData[1]->WorkLocal[11]
     0x0C93 [0x07] ExtData[1]->WorkLocal[12] += 3*
     0x0C98 [0x41] ExtData[1]->WorkLocal[23] = ExtData[1]->WorkLocal[8] (bits ExtData[1]->WorkLocal[11]-ExtData[1]->WorkLocal[12])
     0x0CA1 [0x02] IF !(ExtData[1]->WorkLocal[23] == ExtData[1]->WorkLocal[17]) GOTO 0x0CCC
     0x0CA9 [0x03] ExtData[1]->WorkLocal[13] = ExtData[1]->WorkLocal[18]
     0x0CAE [0x14] ExtData[1]->WorkLocal[13] *= 4*
     0x0CB3 [0x03] ExtData[1]->WorkLocal[14] = ExtData[1]->WorkLocal[13]
     0x0CB8 [0x07] ExtData[1]->WorkLocal[14] += 3*
     0x0CBD [0x40] SET_BIT_WORK_RANGE(start_bit=ExtData[1]->WorkLocal[13], end_bit=ExtData[1]->WorkLocal[14], target=ExtData[1]->WorkLocal[20], source=ExtData[1]->WorkLocal[19])
     0x0CC6 [0x0B] ExtData[1]->WorkLocal[18]++
     0x0CC9 [0x0B] ExtData[1]->WorkLocal[21]++
     0x0CCC [0x0B] ExtData[1]->WorkLocal[19]++
     0x0CCF [0x01] GOTO 0x0C7C
     0x0CD2 [0x02] IF !(ExtData[1]->WorkLocal[21] <= 0*) GOTO 0x0CFC
     0x0CDA [0x03] ExtData[1]->WorkLocal[13] = ExtData[1]->WorkLocal[22]
     0x0CDF [0x14] ExtData[1]->WorkLocal[13] *= 4*
     0x0CE4 [0x03] ExtData[1]->WorkLocal[14] = ExtData[1]->WorkLocal[13]
     0x0CE9 [0x07] ExtData[1]->WorkLocal[14] += 3*
     0x0CEE [0x40] SET_BIT_WORK_RANGE(start_bit=ExtData[1]->WorkLocal[13], end_bit=ExtData[1]->WorkLocal[14], target=ExtData[1]->WorkLocal[10], source=ExtData[1]->WorkLocal[21])
     0x0CF7 [0x07] ExtData[1]->WorkLocal[22] += ExtData[1]->WorkLocal[21]
     0x0CFC [0x0B] ExtData[1]->WorkLocal[17]++
     0x0CFF [0x01] GOTO 0x0C6E
     0x0D02 [0x01] GOTO 0x0DAC
     0x0D05 [0x03] ExtData[1]->WorkLocal[20] = 4294967295*
     0x0D0A [0x03] ExtData[1]->WorkLocal[17] = 15*
     0x0D0F [0x06] ExtData[1]->WorkLocal[18] = 0
     0x0D12 [0x06] ExtData[1]->WorkLocal[22] = 0
     0x0D15 [0x06] ExtData[1]->WorkLocal[10] = 0
     0x0D18 [0x02] IF !(ExtData[1]->WorkLocal[17] < 0*) GOTO 0x0DAC
     0x0D20 [0x06] ExtData[1]->WorkLocal[19] = 0
     0x0D23 [0x06] ExtData[1]->WorkLocal[21] = 0
     0x0D26 [0x02] IF !(ExtData[1]->WorkLocal[19] >= Work_Zone[52]) GOTO 0x0D7C
     0x0D2E [0x03] ExtData[1]->WorkLocal[11] = ExtData[1]->WorkLocal[19]
     0x0D33 [0x14] ExtData[1]->WorkLocal[11] *= 4*
     0x0D38 [0x03] ExtData[1]->WorkLocal[12] = ExtData[1]->WorkLocal[11]
     0x0D3D [0x07] ExtData[1]->WorkLocal[12] += 3*
     0x0D42 [0x41] ExtData[1]->WorkLocal[23] = ExtData[1]->WorkLocal[8] (bits ExtData[1]->WorkLocal[11]-ExtData[1]->WorkLocal[12])
     0x0D4B [0x02] IF !(ExtData[1]->WorkLocal[23] == ExtData[1]->WorkLocal[17]) GOTO 0x0D76
     0x0D53 [0x03] ExtData[1]->WorkLocal[13] = ExtData[1]->WorkLocal[18]
     0x0D58 [0x14] ExtData[1]->WorkLocal[13] *= 4*
     0x0D5D [0x03] ExtData[1]->WorkLocal[14] = ExtData[1]->WorkLocal[13]
     0x0D62 [0x07] ExtData[1]->WorkLocal[14] += 3*
     0x0D67 [0x40] SET_BIT_WORK_RANGE(start_bit=ExtData[1]->WorkLocal[13], end_bit=ExtData[1]->WorkLocal[14], target=ExtData[1]->WorkLocal[20], source=ExtData[1]->WorkLocal[19])
     0x0D70 [0x0B] ExtData[1]->WorkLocal[18]++
     0x0D73 [0x0B] ExtData[1]->WorkLocal[21]++
     0x0D76 [0x0B] ExtData[1]->WorkLocal[19]++
     0x0D79 [0x01] GOTO 0x0D26
     0x0D7C [0x02] IF !(ExtData[1]->WorkLocal[21] <= 0*) GOTO 0x0DA6
     0x0D84 [0x03] ExtData[1]->WorkLocal[13] = ExtData[1]->WorkLocal[22]
     0x0D89 [0x14] ExtData[1]->WorkLocal[13] *= 4*
     0x0D8E [0x03] ExtData[1]->WorkLocal[14] = ExtData[1]->WorkLocal[13]
     0x0D93 [0x07] ExtData[1]->WorkLocal[14] += 3*
     0x0D98 [0x40] SET_BIT_WORK_RANGE(start_bit=ExtData[1]->WorkLocal[13], end_bit=ExtData[1]->WorkLocal[14], target=ExtData[1]->WorkLocal[10], source=ExtData[1]->WorkLocal[21])
     0x0DA1 [0x07] ExtData[1]->WorkLocal[22] += ExtData[1]->WorkLocal[21]
     0x0DA6 [0x0C] ExtData[1]->WorkLocal[17]--
     0x0DA9 [0x01] GOTO 0x0D18
     0x0DAC [0x41] ExtData[1]->WorkLocal[24] = ExtData[1]->WorkLocal[20] (bits 0*-3*)
     0x0DB5 [0x1B] RETURN
     0x0DB6 [0x00] END_REQSTACK()
```

### Event 65535.3

#### Metadata

| Field        | Value    |
|--------------|----------|
| Entrypoint   | 0x0DB7   |
| Data Size    | 18 bytes |
| Instructions | 2        |

```
      00 01 02 03 04 05 06 07  08 09 0A 0B 0C 0D 0E 0F
      -- -- -- -- -- -- -- --  -- -- -- -- -- -- -- --
0DB0:                      45  02 80 11 60 04 01 11 60         E...`...`
0DC0: 04 01 73 31 33 38 01 80  00                       ..s138...       
```

#### Opcodes

```
  0: 0x0DB7 [0x45] LOAD_SCHEDULED_TASK: Load scheduler "s138" with entities [Unnamed NPC (ID: 17063953/0x01046011), Unnamed NPC (ID: 17063953/0x01046011)], work=[191*, 0*]
  1: 0x0DC8 [0x00] END_REQSTACK()
```

### Event 65535.4

#### Metadata

| Field        | Value     |
|--------------|-----------|
| Entrypoint   | 0x0DC9    |
| Data Size    | 740 bytes |
| Instructions | 90        |

```
      00 01 02 03 04 05 06 07  08 09 0A 0B 0C 0D 0E 0F
      -- -- -- -- -- -- -- --  -- -- -- -- -- -- -- --
0DC0:                             45 09 80 F0 FF FF 7F           E......
0DD0: F0 FF FF 7F 66 64 69 30  01 80 41 01 80 0B 80 28  ....fdi0..A....(
0DE0: 10 03 00 41 0C 80 08 80  28 10 04 00 41 13 80 1D  ...A....(...A...
0DF0: 80 28 10 05 00 06 06 00  02 06 00 34 10 03 5D 0F  .(.........4..].
0E00: 3E 03 00 06 00 57 0F 02  06 00 01 80 00 31 0E 29  >....W.......1.)
0E10: 03 24 60 04 01 06 45 14  80 11 60 04 01 11 60 04  .$`...E...`...`.
0E20: 01 72 6D 30 33 01 80 03  3A 10 24 80 07 3A 10 03  .rm03...:.$..:..
0E30: 80 02 06 00 03 80 00 5B  0E 29 03 24 60 04 01 06  .......[.).$`...
0E40: 45 14 80 12 60 04 01 12  60 04 01 72 6D 30 33 01  E...`...`..rm03.
0E50: 80 03 3A 10 24 80 07 3A  10 04 80 02 06 00 04 80  ..:.$..:........
0E60: 00 85 0E 29 03 24 60 04  01 06 45 14 80 13 60 04  ...).$`...E...`.
0E70: 01 13 60 04 01 72 6D 30  33 01 80 03 3A 10 24 80  ..`..rm03...:.$.
0E80: 07 3A 10 05 80 02 06 00  05 80 00 AF 0E 29 03 24  .:...........).$
0E90: 60 04 01 06 45 14 80 14  60 04 01 14 60 04 01 72  `...E...`...`..r
0EA0: 6D 30 33 01 80 03 3A 10  24 80 07 3A 10 06 80 02  m03...:.$..:....
0EB0: 06 00 06 80 00 D9 0E 29  03 24 60 04 01 06 45 14  .......).$`...E.
0EC0: 80 15 60 04 01 15 60 04  01 72 6D 30 33 01 80 03  ..`...`..rm03...
0ED0: 3A 10 24 80 07 3A 10 07  80 02 06 00 07 80 00 03  :.$..:..........
0EE0: 0F 29 03 24 60 04 01 06  45 14 80 16 60 04 01 16  .).$`...E...`...
0EF0: 60 04 01 72 6D 30 33 01  80 03 3A 10 24 80 07 3A  `..rm03...:.$..:
0F00: 10 0A 80 02 06 00 0A 80  00 2D 0F 29 03 24 60 04  .........-.).$`.
0F10: 01 06 45 14 80 17 60 04  01 17 60 04 01 72 6D 30  ..E...`...`..rm0
0F20: 33 01 80 03 3A 10 24 80  07 3A 10 0B 80 02 06 00  3...:.$..:......
0F30: 0B 80 00 57 0F 29 03 24  60 04 01 06 45 14 80 18  ...W.).$`...E...
0F40: 60 04 01 18 60 04 01 72  6D 30 33 01 80 03 3A 10  `...`..rm03...:.
0F50: 24 80 07 3A 10 0C 80 0B  06 00 01 F8 0D 29 05 24  $..:.........).$
0F60: 60 04 01 07 1C 27 80 06  06 00 02 06 00 34 10 03  `....'.......4..
0F70: A7 10 3E 03 00 06 00 A1  10 02 06 00 01 80 00 9E  ..>.............
0F80: 0F 29 03 24 60 04 01 06  45 14 80 24 60 04 01 11  .).$`...E..$`...
0F90: 60 04 01 72 6D 30 31 01  80 03 07 00 03 80 02 06  `..rm01.........
0FA0: 00 03 80 00 C3 0F 29 03  24 60 04 01 06 45 14 80  ......).$`...E..
0FB0: 24 60 04 01 12 60 04 01  72 6D 30 31 01 80 03 07  $`...`..rm01....
0FC0: 00 04 80 02 06 00 04 80  00 E8 0F 29 03 24 60 04  ...........).$`.
0FD0: 01 06 45 14 80 24 60 04  01 13 60 04 01 72 6D 30  ..E..$`...`..rm0
0FE0: 31 01 80 03 07 00 05 80  02 06 00 05 80 00 0D 10  1...............
0FF0: 29 03 24 60 04 01 06 45  14 80 24 60 04 01 14 60  ).$`...E..$`...`
1000: 04 01 72 6D 30 31 01 80  03 07 00 06 80 02 06 00  ..rm01..........
1010: 06 80 00 32 10 29 03 24  60 04 01 06 45 14 80 24  ...2.).$`...E..$
1020: 60 04 01 15 60 04 01 72  6D 30 31 01 80 03 07 00  `...`..rm01.....
1030: 07 80 02 06 00 07 80 00  57 10 29 03 24 60 04 01  ........W.).$`..
1040: 06 45 14 80 24 60 04 01  16 60 04 01 72 6D 30 31  .E..$`...`..rm01
1050: 01 80 03 07 00 0A 80 02  06 00 0A 80 00 7C 10 29  .............|.)
1060: 03 24 60 04 01 06 45 14  80 24 60 04 01 17 60 04  .$`...E..$`...`.
1070: 01 72 6D 30 31 01 80 03  07 00 0B 80 02 06 00 0B  .rm01...........
1080: 80 00 A1 10 29 03 24 60  04 01 06 45 14 80 24 60  ....).$`...E..$`
1090: 04 01 18 60 04 01 72 6D  30 31 01 80 03 07 00 0C  ...`..rm01......
10A0: 80 0B 06 00 01 6A 0F 03  3A 10 07 00 00           .....j..:....   
```

#### Opcodes

```
  0: 0x0DC9 [0x45] LOAD_SCHEDULED_TASK: Load scheduler "fdi0" with entities [LocalPlayer, LocalPlayer], work=[200*, 0*]
  1: 0x0DDA [0x41] ExtData[1]->WorkLocal[3] = Work_Zone[40] (bits 0*-7*)
  2: 0x0DE3 [0x41] ExtData[1]->WorkLocal[4] = Work_Zone[40] (bits 8*-15*)
  3: 0x0DEC [0x41] ExtData[1]->WorkLocal[5] = Work_Zone[40] (bits 16*-23*)
  4: 0x0DF5 [0x06] ExtData[1]->WorkLocal[6] = 0
  5: 0x0DF8 [0x02] IF !(ExtData[1]->WorkLocal[6] >= Work_Zone[52]) GOTO 0x0F5D
  6: 0x0E00 [0x3E] IF !(ExtData[1]->WorkLocal[3] bit ExtData[1]->WorkLocal[6]) GOTO 0x0F57
  7: 0x0E07 [0x02] IF !(ExtData[1]->WorkLocal[6] == 0*) GOTO 0x0E31
  8: 0x0E0F [0x29] REQ_SET_WAIT(priority=0x03, entity_id=cameraA (ID: 17063972/0x01046024), tag_num=0x06)
  9: 0x0E16 [0x45] LOAD_SCHEDULED_TASK: Load scheduler "rm03" with entities [Unnamed NPC (ID: 17063953/0x01046011), Unnamed NPC (ID: 17063953/0x01046011)], work=[294*, 0*]
 10: 0x0E27 [0x03] Work_Zone[58] = 30*
 11: 0x0E2C [0x07] Work_Zone[58] += 1*
 12: 0x0E31 [0x02] IF !(ExtData[1]->WorkLocal[6] == 1*) GOTO 0x0E5B
 13: 0x0E39 [0x29] REQ_SET_WAIT(priority=0x03, entity_id=cameraA (ID: 17063972/0x01046024), tag_num=0x06)
 14: 0x0E40 [0x45] LOAD_SCHEDULED_TASK: Load scheduler "rm03" with entities [Unnamed NPC (ID: 17063954/0x01046012), Unnamed NPC (ID: 17063954/0x01046012)], work=[294*, 0*]
 15: 0x0E51 [0x03] Work_Zone[58] = 30*
 16: 0x0E56 [0x07] Work_Zone[58] += 2*
 17: 0x0E5B [0x02] IF !(ExtData[1]->WorkLocal[6] == 2*) GOTO 0x0E85
 18: 0x0E63 [0x29] REQ_SET_WAIT(priority=0x03, entity_id=cameraA (ID: 17063972/0x01046024), tag_num=0x06)
 19: 0x0E6A [0x45] LOAD_SCHEDULED_TASK: Load scheduler "rm03" with entities [Unnamed NPC (ID: 17063955/0x01046013), Unnamed NPC (ID: 17063955/0x01046013)], work=[294*, 0*]
 20: 0x0E7B [0x03] Work_Zone[58] = 30*
 21: 0x0E80 [0x07] Work_Zone[58] += 3*
 22: 0x0E85 [0x02] IF !(ExtData[1]->WorkLocal[6] == 3*) GOTO 0x0EAF
 23: 0x0E8D [0x29] REQ_SET_WAIT(priority=0x03, entity_id=cameraA (ID: 17063972/0x01046024), tag_num=0x06)
 24: 0x0E94 [0x45] LOAD_SCHEDULED_TASK: Load scheduler "rm03" with entities [Unnamed NPC (ID: 17063956/0x01046014), Unnamed NPC (ID: 17063956/0x01046014)], work=[294*, 0*]
 25: 0x0EA5 [0x03] Work_Zone[58] = 30*
 26: 0x0EAA [0x07] Work_Zone[58] += 4*
 27: 0x0EAF [0x02] IF !(ExtData[1]->WorkLocal[6] == 4*) GOTO 0x0ED9
 28: 0x0EB7 [0x29] REQ_SET_WAIT(priority=0x03, entity_id=cameraA (ID: 17063972/0x01046024), tag_num=0x06)
 29: 0x0EBE [0x45] LOAD_SCHEDULED_TASK: Load scheduler "rm03" with entities [Unnamed NPC (ID: 17063957/0x01046015), Unnamed NPC (ID: 17063957/0x01046015)], work=[294*, 0*]
 30: 0x0ECF [0x03] Work_Zone[58] = 30*
 31: 0x0ED4 [0x07] Work_Zone[58] += 5*
 32: 0x0ED9 [0x02] IF !(ExtData[1]->WorkLocal[6] == 5*) GOTO 0x0F03
 33: 0x0EE1 [0x29] REQ_SET_WAIT(priority=0x03, entity_id=cameraA (ID: 17063972/0x01046024), tag_num=0x06)
 34: 0x0EE8 [0x45] LOAD_SCHEDULED_TASK: Load scheduler "rm03" with entities [Unnamed NPC (ID: 17063958/0x01046016), Unnamed NPC (ID: 17063958/0x01046016)], work=[294*, 0*]
 35: 0x0EF9 [0x03] Work_Zone[58] = 30*
 36: 0x0EFE [0x07] Work_Zone[58] += 6*
 37: 0x0F03 [0x02] IF !(ExtData[1]->WorkLocal[6] == 6*) GOTO 0x0F2D
 38: 0x0F0B [0x29] REQ_SET_WAIT(priority=0x03, entity_id=cameraA (ID: 17063972/0x01046024), tag_num=0x06)
 39: 0x0F12 [0x45] LOAD_SCHEDULED_TASK: Load scheduler "rm03" with entities [Unnamed NPC (ID: 17063959/0x01046017), Unnamed NPC (ID: 17063959/0x01046017)], work=[294*, 0*]
 40: 0x0F23 [0x03] Work_Zone[58] = 30*
 41: 0x0F28 [0x07] Work_Zone[58] += 7*
 42: 0x0F2D [0x02] IF !(ExtData[1]->WorkLocal[6] == 7*) GOTO 0x0F57
 43: 0x0F35 [0x29] REQ_SET_WAIT(priority=0x03, entity_id=cameraA (ID: 17063972/0x01046024), tag_num=0x06)
 44: 0x0F3C [0x45] LOAD_SCHEDULED_TASK: Load scheduler "rm03" with entities [Unnamed NPC (ID: 17063960/0x01046018), Unnamed NPC (ID: 17063960/0x01046018)], work=[294*, 0*]
 45: 0x0F4D [0x03] Work_Zone[58] = 30*
 46: 0x0F52 [0x07] Work_Zone[58] += 8*
 47: 0x0F57 [0x0B] ExtData[1]->WorkLocal[6]++
 48: 0x0F5A [0x01] GOTO 0x0DF8
 49: 0x0F5D [0x29] REQ_SET_WAIT(priority=0x05, entity_id=cameraA (ID: 17063972/0x01046024), tag_num=0x07)
 50: 0x0F64 [0x1C] WAIT(45* ticks)
 51: 0x0F67 [0x06] ExtData[1]->WorkLocal[6] = 0

SUBROUTINE_0F6A:
 52: 0x0F6A [0x02] IF !(ExtData[1]->WorkLocal[6] >= Work_Zone[52]) GOTO 0x10A7
 53: 0x0F72 [0x3E] IF !(ExtData[1]->WorkLocal[3] bit ExtData[1]->WorkLocal[6]) GOTO 0x10A1
 54: 0x0F79 [0x02] IF !(ExtData[1]->WorkLocal[6] == 0*) GOTO 0x0F9E
 55: 0x0F81 [0x29] REQ_SET_WAIT(priority=0x03, entity_id=cameraA (ID: 17063972/0x01046024), tag_num=0x06)
 56: 0x0F88 [0x45] LOAD_SCHEDULED_TASK: Load scheduler "rm01" with entities [cameraA (ID: 17063972/0x01046024), Unnamed NPC (ID: 17063953/0x01046011)], work=[294*, 0*]
 57: 0x0F99 [0x03] ExtData[1]->WorkLocal[7] = 1*
 58: 0x0F9E [0x02] IF !(ExtData[1]->WorkLocal[6] == 1*) GOTO 0x0FC3
 59: 0x0FA6 [0x29] REQ_SET_WAIT(priority=0x03, entity_id=cameraA (ID: 17063972/0x01046024), tag_num=0x06)
 60: 0x0FAD [0x45] LOAD_SCHEDULED_TASK: Load scheduler "rm01" with entities [cameraA (ID: 17063972/0x01046024), Unnamed NPC (ID: 17063954/0x01046012)], work=[294*, 0*]
 61: 0x0FBE [0x03] ExtData[1]->WorkLocal[7] = 2*
 62: 0x0FC3 [0x02] IF !(ExtData[1]->WorkLocal[6] == 2*) GOTO 0x0FE8
 63: 0x0FCB [0x29] REQ_SET_WAIT(priority=0x03, entity_id=cameraA (ID: 17063972/0x01046024), tag_num=0x06)
 64: 0x0FD2 [0x45] LOAD_SCHEDULED_TASK: Load scheduler "rm01" with entities [cameraA (ID: 17063972/0x01046024), Unnamed NPC (ID: 17063955/0x01046013)], work=[294*, 0*]
 65: 0x0FE3 [0x03] ExtData[1]->WorkLocal[7] = 3*
 66: 0x0FE8 [0x02] IF !(ExtData[1]->WorkLocal[6] == 3*) GOTO 0x100D
 67: 0x0FF0 [0x29] REQ_SET_WAIT(priority=0x03, entity_id=cameraA (ID: 17063972/0x01046024), tag_num=0x06)
 68: 0x0FF7 [0x45] LOAD_SCHEDULED_TASK: Load scheduler "rm01" with entities [cameraA (ID: 17063972/0x01046024), Unnamed NPC (ID: 17063956/0x01046014)], work=[294*, 0*]
 69: 0x1008 [0x03] ExtData[1]->WorkLocal[7] = 4*
 70: 0x100D [0x02] IF !(ExtData[1]->WorkLocal[6] == 4*) GOTO 0x1032
 71: 0x1015 [0x29] REQ_SET_WAIT(priority=0x03, entity_id=cameraA (ID: 17063972/0x01046024), tag_num=0x06)
 72: 0x101C [0x45] LOAD_SCHEDULED_TASK: Load scheduler "rm01" with entities [cameraA (ID: 17063972/0x01046024), Unnamed NPC (ID: 17063957/0x01046015)], work=[294*, 0*]
 73: 0x102D [0x03] ExtData[1]->WorkLocal[7] = 5*
 74: 0x1032 [0x02] IF !(ExtData[1]->WorkLocal[6] == 5*) GOTO 0x1057
 75: 0x103A [0x29] REQ_SET_WAIT(priority=0x03, entity_id=cameraA (ID: 17063972/0x01046024), tag_num=0x06)
 76: 0x1041 [0x45] LOAD_SCHEDULED_TASK: Load scheduler "rm01" with entities [cameraA (ID: 17063972/0x01046024), Unnamed NPC (ID: 17063958/0x01046016)], work=[294*, 0*]
 77: 0x1052 [0x03] ExtData[1]->WorkLocal[7] = 6*
 78: 0x1057 [0x02] IF !(ExtData[1]->WorkLocal[6] == 6*) GOTO 0x107C
 79: 0x105F [0x29] REQ_SET_WAIT(priority=0x03, entity_id=cameraA (ID: 17063972/0x01046024), tag_num=0x06)
 80: 0x1066 [0x45] LOAD_SCHEDULED_TASK: Load scheduler "rm01" with entities [cameraA (ID: 17063972/0x01046024), Unnamed NPC (ID: 17063959/0x01046017)], work=[294*, 0*]
 81: 0x1077 [0x03] ExtData[1]->WorkLocal[7] = 7*
 82: 0x107C [0x02] IF !(ExtData[1]->WorkLocal[6] == 7*) GOTO 0x10A1
 83: 0x1084 [0x29] REQ_SET_WAIT(priority=0x03, entity_id=cameraA (ID: 17063972/0x01046024), tag_num=0x06)
 84: 0x108B [0x45] LOAD_SCHEDULED_TASK: Load scheduler "rm01" with entities [cameraA (ID: 17063972/0x01046024), Unnamed NPC (ID: 17063960/0x01046018)], work=[294*, 0*]
 85: 0x109C [0x03] ExtData[1]->WorkLocal[7] = 8*
 86: 0x10A1 [0x0B] ExtData[1]->WorkLocal[6]++
 87: 0x10A4 [0x01] GOTO 0x0F6A
 88: 0x10A7 [0x03] Work_Zone[58] = ExtData[1]->WorkLocal[7]
 89: 0x10AC [0x00] END_REQSTACK()
```

### Event 65535.5

#### Metadata

| Field        | Value      |
|--------------|------------|
| Entrypoint   | 0x10AD     |
| Data Size    | 1532 bytes |
| Instructions | 169        |

```
      00 01 02 03 04 05 06 07  08 09 0A 0B 0C 0D 0E 0F
      -- -- -- -- -- -- -- --  -- -- -- -- -- -- -- --
10A0:                                         45 09 80               E..
10B0: F0 FF FF 7F F0 FF FF 7F  66 64 69 30 01 80 41 01  ........fdi0..A.
10C0: 80 0B 80 28 10 03 00 41  0C 80 08 80 28 10 04 00  ...(...A....(...
10D0: 41 13 80 1D 80 28 10 05  00 06 06 00 02 06 00 34  A....(.........4
10E0: 10 03 41 13 3E 03 00 06  00 3B 13 02 06 00 01 80  ..A.>....;......
10F0: 00 35 11 29 03 24 60 04  01 06 45 14 80 11 60 04  .5.).$`...E...`.
1100: 01 11 60 04 01 72 6D 61  74 01 80 1C 0E 80 45 14  ..`..rmat.....E.
1110: 80 11 60 04 01 11 60 04  01 6B 63 61 74 01 80 45  ..`...`..kcat..E
1120: 14 80 11 60 04 01 11 60  04 01 72 6D 30 33 01 80  ...`...`..rm03..
1130: 03 07 00 03 80 02 06 00  03 80 00 7F 11 29 03 24  .............).$
1140: 60 04 01 06 45 14 80 12  60 04 01 12 60 04 01 72  `...E...`...`..r
1150: 6D 61 74 01 80 1C 0E 80  45 14 80 12 60 04 01 12  mat.....E...`...
1160: 60 04 01 6B 63 61 74 01  80 45 14 80 12 60 04 01  `..kcat..E...`..
1170: 12 60 04 01 72 6D 30 33  01 80 03 07 00 04 80 02  .`..rm03........
1180: 06 00 04 80 00 C9 11 29  03 24 60 04 01 06 45 14  .......).$`...E.
1190: 80 13 60 04 01 13 60 04  01 72 6D 61 74 01 80 1C  ..`...`..rmat...
11A0: 0E 80 45 14 80 13 60 04  01 13 60 04 01 6B 63 61  ..E...`...`..kca
11B0: 74 01 80 45 14 80 13 60  04 01 13 60 04 01 72 6D  t..E...`...`..rm
11C0: 30 33 01 80 03 07 00 05  80 02 06 00 05 80 00 13  03..............
11D0: 12 29 03 24 60 04 01 06  45 14 80 14 60 04 01 14  .).$`...E...`...
11E0: 60 04 01 72 6D 61 74 01  80 1C 0E 80 45 14 80 14  `..rmat.....E...
11F0: 60 04 01 14 60 04 01 6B  63 61 74 01 80 45 14 80  `...`..kcat..E..
1200: 14 60 04 01 14 60 04 01  72 6D 30 33 01 80 03 07  .`...`..rm03....
1210: 00 06 80 02 06 00 06 80  00 5D 12 29 03 24 60 04  .........].).$`.
1220: 01 06 45 14 80 15 60 04  01 15 60 04 01 72 6D 61  ..E...`...`..rma
1230: 74 01 80 1C 0E 80 45 14  80 15 60 04 01 15 60 04  t.....E...`...`.
1240: 01 6B 63 61 74 01 80 45  14 80 15 60 04 01 15 60  .kcat..E...`...`
1250: 04 01 72 6D 30 33 01 80  03 07 00 07 80 02 06 00  ..rm03..........
1260: 07 80 00 A7 12 29 03 24  60 04 01 06 45 14 80 16  .....).$`...E...
1270: 60 04 01 16 60 04 01 72  6D 61 74 01 80 1C 0E 80  `...`..rmat.....
1280: 45 14 80 16 60 04 01 16  60 04 01 6B 63 61 74 01  E...`...`..kcat.
1290: 80 45 14 80 16 60 04 01  16 60 04 01 72 6D 30 33  .E...`...`..rm03
12A0: 01 80 03 07 00 0A 80 02  06 00 0A 80 00 F1 12 29  ...............)
12B0: 03 24 60 04 01 06 45 14  80 17 60 04 01 17 60 04  .$`...E...`...`.
12C0: 01 72 6D 61 74 01 80 1C  0E 80 45 14 80 17 60 04  .rmat.....E...`.
12D0: 01 17 60 04 01 6B 63 61  74 01 80 45 14 80 17 60  ..`..kcat..E...`
12E0: 04 01 17 60 04 01 72 6D  30 33 01 80 03 07 00 0B  ...`..rm03......
12F0: 80 02 06 00 0B 80 00 3B  13 29 03 24 60 04 01 06  .......;.).$`...
1300: 45 14 80 18 60 04 01 18  60 04 01 72 6D 61 74 01  E...`...`..rmat.
1310: 80 1C 0E 80 45 14 80 18  60 04 01 18 60 04 01 6B  ....E...`...`..k
1320: 63 61 74 01 80 45 14 80  18 60 04 01 18 60 04 01  cat..E...`...`..
1330: 72 6D 30 33 01 80 03 07  00 0C 80 0B 06 00 01 DC  rm03............
1340: 10 07 3A 10 07 00 1C 28  80 06 06 00 02 06 00 34  ..:....(.......4
1350: 10 03 51 14 3E 05 00 06  00 4B 14 02 06 00 01 80  ..Q.>....K......
1360: 00 79 13 45 14 80 11 60  04 01 11 60 04 01 72 6D  .y.E...`...`..rm
1370: 30 33 01 80 03 3A 10 29  80 02 06 00 03 80 00 97  03...:.)........
1380: 13 45 14 80 12 60 04 01  12 60 04 01 72 6D 30 33  .E...`...`..rm03
1390: 01 80 03 3A 10 2A 80 02  06 00 04 80 00 B5 13 45  ...:.*.........E
13A0: 14 80 13 60 04 01 13 60  04 01 72 6D 30 33 01 80  ...`...`..rm03..
13B0: 03 3A 10 2B 80 02 06 00  05 80 00 D3 13 45 14 80  .:.+.........E..
13C0: 14 60 04 01 14 60 04 01  72 6D 30 33 01 80 03 3A  .`...`..rm03...:
13D0: 10 2C 80 02 06 00 06 80  00 F1 13 45 14 80 15 60  .,.........E...`
13E0: 04 01 15 60 04 01 72 6D  30 33 01 80 03 3A 10 28  ...`..rm03...:.(
13F0: 80 02 06 00 07 80 00 0F  14 45 14 80 16 60 04 01  .........E...`..
1400: 16 60 04 01 72 6D 30 33  01 80 03 3A 10 2D 80 02  .`..rm03...:.-..
1410: 06 00 0A 80 00 2D 14 45  14 80 17 60 04 01 17 60  .....-.E...`...`
1420: 04 01 72 6D 30 33 01 80  03 3A 10 2E 80 02 06 00  ..rm03...:......
1430: 0B 80 00 4B 14 45 14 80  18 60 04 01 18 60 04 01  ...K.E...`...`..
1440: 72 6D 30 33 01 80 03 3A  10 2F 80 0B 06 00 01 4C  rm03...:./.....L
1450: 13 06 06 00 02 06 00 34  10 03 59 15 3E 04 00 06  .......4..Y.>...
1460: 00 53 15 02 06 00 01 80  00 81 14 45 14 80 11 60  .S.........E...`
1470: 04 01 11 60 04 01 72 6D  30 33 01 80 03 3A 10 29  ...`..rm03...:.)
1480: 80 02 06 00 03 80 00 9F  14 45 14 80 12 60 04 01  .........E...`..
1490: 12 60 04 01 72 6D 30 33  01 80 03 3A 10 2A 80 02  .`..rm03...:.*..
14A0: 06 00 04 80 00 BD 14 45  14 80 13 60 04 01 13 60  .......E...`...`
14B0: 04 01 72 6D 30 33 01 80  03 3A 10 2B 80 02 06 00  ..rm03...:.+....
14C0: 05 80 00 DB 14 45 14 80  14 60 04 01 14 60 04 01  .....E...`...`..
14D0: 72 6D 30 33 01 80 03 3A  10 2C 80 02 06 00 06 80  rm03...:.,......
14E0: 00 F9 14 45 14 80 15 60  04 01 15 60 04 01 72 6D  ...E...`...`..rm
14F0: 30 33 01 80 03 3A 10 28  80 02 06 00 07 80 00 17  03...:.(........
1500: 15 45 14 80 16 60 04 01  16 60 04 01 72 6D 30 33  .E...`...`..rm03
1510: 01 80 03 3A 10 2D 80 02  06 00 0A 80 00 35 15 45  ...:.-.......5.E
1520: 14 80 17 60 04 01 17 60  04 01 72 6D 30 33 01 80  ...`...`..rm03..
1530: 03 3A 10 2E 80 02 06 00  0B 80 00 53 15 45 14 80  .:.........S.E..
1540: 18 60 04 01 18 60 04 01  72 6D 30 33 01 80 03 3A  .`...`..rm03...:
1550: 10 2F 80 0B 06 00 01 54  14 29 05 24 60 04 01 07  ./.....T.).$`...
1560: 1C 30 80 02 3A 10 29 80  80 8B 15 29 03 24 60 04  .0..:.)....).$`.
1570: 01 06 45 14 80 24 60 04  01 11 60 04 01 72 6D 30  ..E..$`...`..rm0
1580: 31 01 80 03 07 00 03 80  01 A3 16 02 3A 10 2A 80  1...........:.*.
1590: 80 B3 15 29 03 24 60 04  01 06 45 14 80 24 60 04  ...).$`...E..$`.
15A0: 01 12 60 04 01 72 6D 30  31 01 80 03 07 00 04 80  ..`..rm01.......
15B0: 01 A3 16 02 3A 10 2B 80  80 DB 15 29 03 24 60 04  ....:.+....).$`.
15C0: 01 06 45 14 80 24 60 04  01 13 60 04 01 72 6D 30  ..E..$`...`..rm0
15D0: 31 01 80 03 07 00 05 80  01 A3 16 02 3A 10 2C 80  1...........:.,.
15E0: 80 03 16 29 03 24 60 04  01 06 45 14 80 24 60 04  ...).$`...E..$`.
15F0: 01 14 60 04 01 72 6D 30  31 01 80 03 07 00 06 80  ..`..rm01.......
1600: 01 A3 16 02 3A 10 28 80  80 2B 16 29 03 24 60 04  ....:.(..+.).$`.
1610: 01 06 45 14 80 24 60 04  01 15 60 04 01 72 6D 30  ..E..$`...`..rm0
1620: 31 01 80 03 07 00 07 80  01 A3 16 02 3A 10 2D 80  1...........:.-.
1630: 80 53 16 29 03 24 60 04  01 06 45 14 80 24 60 04  .S.).$`...E..$`.
1640: 01 16 60 04 01 72 6D 30  31 01 80 03 07 00 0A 80  ..`..rm01.......
1650: 01 A3 16 02 3A 10 2E 80  80 7B 16 29 03 24 60 04  ....:....{.).$`.
1660: 01 06 45 14 80 24 60 04  01 17 60 04 01 72 6D 30  ..E..$`...`..rm0
1670: 31 01 80 03 07 00 0B 80  01 A3 16 02 3A 10 2F 80  1...........:./.
1680: 80 A3 16 29 03 24 60 04  01 06 45 14 80 24 60 04  ...).$`...E..$`.
1690: 01 18 60 04 01 72 6D 30  31 01 80 03 07 00 0C 80  ..`..rm01.......
16A0: 01 A3 16 03 3A 10 07 00  00                       ....:....       
```

#### Opcodes

```
  0: 0x10AD [0x45] LOAD_SCHEDULED_TASK: Load scheduler "fdi0" with entities [LocalPlayer, LocalPlayer], work=[200*, 0*]
  1: 0x10BE [0x41] ExtData[1]->WorkLocal[3] = Work_Zone[40] (bits 0*-7*)
  2: 0x10C7 [0x41] ExtData[1]->WorkLocal[4] = Work_Zone[40] (bits 8*-15*)
  3: 0x10D0 [0x41] ExtData[1]->WorkLocal[5] = Work_Zone[40] (bits 16*-23*)
  4: 0x10D9 [0x06] ExtData[1]->WorkLocal[6] = 0
  5: 0x10DC [0x02] IF !(ExtData[1]->WorkLocal[6] >= Work_Zone[52]) GOTO 0x1341
  6: 0x10E4 [0x3E] IF !(ExtData[1]->WorkLocal[3] bit ExtData[1]->WorkLocal[6]) GOTO 0x133B
  7: 0x10EB [0x02] IF !(ExtData[1]->WorkLocal[6] == 0*) GOTO 0x1135
  8: 0x10F3 [0x29] REQ_SET_WAIT(priority=0x03, entity_id=cameraA (ID: 17063972/0x01046024), tag_num=0x06)
  9: 0x10FA [0x45] LOAD_SCHEDULED_TASK: Load scheduler "rmat" with entities [Unnamed NPC (ID: 17063953/0x01046011), Unnamed NPC (ID: 17063953/0x01046011)], work=[294*, 0*]
 10: 0x110B [0x1C] WAIT(10* ticks)
 11: 0x110E [0x45] LOAD_SCHEDULED_TASK: Load scheduler "kcat" with entities [Unnamed NPC (ID: 17063953/0x01046011), Unnamed NPC (ID: 17063953/0x01046011)], work=[294*, 0*]
 12: 0x111F [0x45] LOAD_SCHEDULED_TASK: Load scheduler "rm03" with entities [Unnamed NPC (ID: 17063953/0x01046011), Unnamed NPC (ID: 17063953/0x01046011)], work=[294*, 0*]
 13: 0x1130 [0x03] ExtData[1]->WorkLocal[7] = 1*
 14: 0x1135 [0x02] IF !(ExtData[1]->WorkLocal[6] == 1*) GOTO 0x117F
 15: 0x113D [0x29] REQ_SET_WAIT(priority=0x03, entity_id=cameraA (ID: 17063972/0x01046024), tag_num=0x06)
 16: 0x1144 [0x45] LOAD_SCHEDULED_TASK: Load scheduler "rmat" with entities [Unnamed NPC (ID: 17063954/0x01046012), Unnamed NPC (ID: 17063954/0x01046012)], work=[294*, 0*]
 17: 0x1155 [0x1C] WAIT(10* ticks)
 18: 0x1158 [0x45] LOAD_SCHEDULED_TASK: Load scheduler "kcat" with entities [Unnamed NPC (ID: 17063954/0x01046012), Unnamed NPC (ID: 17063954/0x01046012)], work=[294*, 0*]
 19: 0x1169 [0x45] LOAD_SCHEDULED_TASK: Load scheduler "rm03" with entities [Unnamed NPC (ID: 17063954/0x01046012), Unnamed NPC (ID: 17063954/0x01046012)], work=[294*, 0*]
 20: 0x117A [0x03] ExtData[1]->WorkLocal[7] = 2*
 21: 0x117F [0x02] IF !(ExtData[1]->WorkLocal[6] == 2*) GOTO 0x11C9
 22: 0x1187 [0x29] REQ_SET_WAIT(priority=0x03, entity_id=cameraA (ID: 17063972/0x01046024), tag_num=0x06)
 23: 0x118E [0x45] LOAD_SCHEDULED_TASK: Load scheduler "rmat" with entities [Unnamed NPC (ID: 17063955/0x01046013), Unnamed NPC (ID: 17063955/0x01046013)], work=[294*, 0*]
 24: 0x119F [0x1C] WAIT(10* ticks)
 25: 0x11A2 [0x45] LOAD_SCHEDULED_TASK: Load scheduler "kcat" with entities [Unnamed NPC (ID: 17063955/0x01046013), Unnamed NPC (ID: 17063955/0x01046013)], work=[294*, 0*]
 26: 0x11B3 [0x45] LOAD_SCHEDULED_TASK: Load scheduler "rm03" with entities [Unnamed NPC (ID: 17063955/0x01046013), Unnamed NPC (ID: 17063955/0x01046013)], work=[294*, 0*]
 27: 0x11C4 [0x03] ExtData[1]->WorkLocal[7] = 3*
 28: 0x11C9 [0x02] IF !(ExtData[1]->WorkLocal[6] == 3*) GOTO 0x1213
 29: 0x11D1 [0x29] REQ_SET_WAIT(priority=0x03, entity_id=cameraA (ID: 17063972/0x01046024), tag_num=0x06)
 30: 0x11D8 [0x45] LOAD_SCHEDULED_TASK: Load scheduler "rmat" with entities [Unnamed NPC (ID: 17063956/0x01046014), Unnamed NPC (ID: 17063956/0x01046014)], work=[294*, 0*]
 31: 0x11E9 [0x1C] WAIT(10* ticks)
 32: 0x11EC [0x45] LOAD_SCHEDULED_TASK: Load scheduler "kcat" with entities [Unnamed NPC (ID: 17063956/0x01046014), Unnamed NPC (ID: 17063956/0x01046014)], work=[294*, 0*]
 33: 0x11FD [0x45] LOAD_SCHEDULED_TASK: Load scheduler "rm03" with entities [Unnamed NPC (ID: 17063956/0x01046014), Unnamed NPC (ID: 17063956/0x01046014)], work=[294*, 0*]
 34: 0x120E [0x03] ExtData[1]->WorkLocal[7] = 4*
 35: 0x1213 [0x02] IF !(ExtData[1]->WorkLocal[6] == 4*) GOTO 0x125D
 36: 0x121B [0x29] REQ_SET_WAIT(priority=0x03, entity_id=cameraA (ID: 17063972/0x01046024), tag_num=0x06)
 37: 0x1222 [0x45] LOAD_SCHEDULED_TASK: Load scheduler "rmat" with entities [Unnamed NPC (ID: 17063957/0x01046015), Unnamed NPC (ID: 17063957/0x01046015)], work=[294*, 0*]
 38: 0x1233 [0x1C] WAIT(10* ticks)
 39: 0x1236 [0x45] LOAD_SCHEDULED_TASK: Load scheduler "kcat" with entities [Unnamed NPC (ID: 17063957/0x01046015), Unnamed NPC (ID: 17063957/0x01046015)], work=[294*, 0*]
 40: 0x1247 [0x45] LOAD_SCHEDULED_TASK: Load scheduler "rm03" with entities [Unnamed NPC (ID: 17063957/0x01046015), Unnamed NPC (ID: 17063957/0x01046015)], work=[294*, 0*]
 41: 0x1258 [0x03] ExtData[1]->WorkLocal[7] = 5*
 42: 0x125D [0x02] IF !(ExtData[1]->WorkLocal[6] == 5*) GOTO 0x12A7
 43: 0x1265 [0x29] REQ_SET_WAIT(priority=0x03, entity_id=cameraA (ID: 17063972/0x01046024), tag_num=0x06)
 44: 0x126C [0x45] LOAD_SCHEDULED_TASK: Load scheduler "rmat" with entities [Unnamed NPC (ID: 17063958/0x01046016), Unnamed NPC (ID: 17063958/0x01046016)], work=[294*, 0*]
 45: 0x127D [0x1C] WAIT(10* ticks)
 46: 0x1280 [0x45] LOAD_SCHEDULED_TASK: Load scheduler "kcat" with entities [Unnamed NPC (ID: 17063958/0x01046016), Unnamed NPC (ID: 17063958/0x01046016)], work=[294*, 0*]
 47: 0x1291 [0x45] LOAD_SCHEDULED_TASK: Load scheduler "rm03" with entities [Unnamed NPC (ID: 17063958/0x01046016), Unnamed NPC (ID: 17063958/0x01046016)], work=[294*, 0*]
 48: 0x12A2 [0x03] ExtData[1]->WorkLocal[7] = 6*
 49: 0x12A7 [0x02] IF !(ExtData[1]->WorkLocal[6] == 6*) GOTO 0x12F1
 50: 0x12AF [0x29] REQ_SET_WAIT(priority=0x03, entity_id=cameraA (ID: 17063972/0x01046024), tag_num=0x06)
 51: 0x12B6 [0x45] LOAD_SCHEDULED_TASK: Load scheduler "rmat" with entities [Unnamed NPC (ID: 17063959/0x01046017), Unnamed NPC (ID: 17063959/0x01046017)], work=[294*, 0*]
 52: 0x12C7 [0x1C] WAIT(10* ticks)
 53: 0x12CA [0x45] LOAD_SCHEDULED_TASK: Load scheduler "kcat" with entities [Unnamed NPC (ID: 17063959/0x01046017), Unnamed NPC (ID: 17063959/0x01046017)], work=[294*, 0*]
 54: 0x12DB [0x45] LOAD_SCHEDULED_TASK: Load scheduler "rm03" with entities [Unnamed NPC (ID: 17063959/0x01046017), Unnamed NPC (ID: 17063959/0x01046017)], work=[294*, 0*]
 55: 0x12EC [0x03] ExtData[1]->WorkLocal[7] = 7*
 56: 0x12F1 [0x02] IF !(ExtData[1]->WorkLocal[6] == 7*) GOTO 0x133B
 57: 0x12F9 [0x29] REQ_SET_WAIT(priority=0x03, entity_id=cameraA (ID: 17063972/0x01046024), tag_num=0x06)
 58: 0x1300 [0x45] LOAD_SCHEDULED_TASK: Load scheduler "rmat" with entities [Unnamed NPC (ID: 17063960/0x01046018), Unnamed NPC (ID: 17063960/0x01046018)], work=[294*, 0*]
 59: 0x1311 [0x1C] WAIT(10* ticks)
 60: 0x1314 [0x45] LOAD_SCHEDULED_TASK: Load scheduler "kcat" with entities [Unnamed NPC (ID: 17063960/0x01046018), Unnamed NPC (ID: 17063960/0x01046018)], work=[294*, 0*]
 61: 0x1325 [0x45] LOAD_SCHEDULED_TASK: Load scheduler "rm03" with entities [Unnamed NPC (ID: 17063960/0x01046018), Unnamed NPC (ID: 17063960/0x01046018)], work=[294*, 0*]
 62: 0x1336 [0x03] ExtData[1]->WorkLocal[7] = 8*
 63: 0x133B [0x0B] ExtData[1]->WorkLocal[6]++
 64: 0x133E [0x01] GOTO 0x10DC
 65: 0x1341 [0x07] Work_Zone[58] += ExtData[1]->WorkLocal[7]
 66: 0x1346 [0x1C] WAIT(35* ticks)
 67: 0x1349 [0x06] ExtData[1]->WorkLocal[6] = 0

SUBROUTINE_134C:
 68: 0x134C [0x02] IF !(ExtData[1]->WorkLocal[6] >= Work_Zone[52]) GOTO 0x1451
 69: 0x1354 [0x3E] IF !(ExtData[1]->WorkLocal[5] bit ExtData[1]->WorkLocal[6]) GOTO 0x144B
 70: 0x135B [0x02] IF !(ExtData[1]->WorkLocal[6] == 0*) GOTO 0x1379
 71: 0x1363 [0x45] LOAD_SCHEDULED_TASK: Load scheduler "rm03" with entities [Unnamed NPC (ID: 17063953/0x01046011), Unnamed NPC (ID: 17063953/0x01046011)], work=[294*, 0*]
 72: 0x1374 [0x03] Work_Zone[58] = 31*
 73: 0x1379 [0x02] IF !(ExtData[1]->WorkLocal[6] == 1*) GOTO 0x1397
 74: 0x1381 [0x45] LOAD_SCHEDULED_TASK: Load scheduler "rm03" with entities [Unnamed NPC (ID: 17063954/0x01046012), Unnamed NPC (ID: 17063954/0x01046012)], work=[294*, 0*]
 75: 0x1392 [0x03] Work_Zone[58] = 32*
 76: 0x1397 [0x02] IF !(ExtData[1]->WorkLocal[6] == 2*) GOTO 0x13B5
 77: 0x139F [0x45] LOAD_SCHEDULED_TASK: Load scheduler "rm03" with entities [Unnamed NPC (ID: 17063955/0x01046013), Unnamed NPC (ID: 17063955/0x01046013)], work=[294*, 0*]
 78: 0x13B0 [0x03] Work_Zone[58] = 33*
 79: 0x13B5 [0x02] IF !(ExtData[1]->WorkLocal[6] == 3*) GOTO 0x13D3
 80: 0x13BD [0x45] LOAD_SCHEDULED_TASK: Load scheduler "rm03" with entities [Unnamed NPC (ID: 17063956/0x01046014), Unnamed NPC (ID: 17063956/0x01046014)], work=[294*, 0*]
 81: 0x13CE [0x03] Work_Zone[58] = 34*
 82: 0x13D3 [0x02] IF !(ExtData[1]->WorkLocal[6] == 4*) GOTO 0x13F1
 83: 0x13DB [0x45] LOAD_SCHEDULED_TASK: Load scheduler "rm03" with entities [Unnamed NPC (ID: 17063957/0x01046015), Unnamed NPC (ID: 17063957/0x01046015)], work=[294*, 0*]
 84: 0x13EC [0x03] Work_Zone[58] = 35*
 85: 0x13F1 [0x02] IF !(ExtData[1]->WorkLocal[6] == 5*) GOTO 0x140F
 86: 0x13F9 [0x45] LOAD_SCHEDULED_TASK: Load scheduler "rm03" with entities [Unnamed NPC (ID: 17063958/0x01046016), Unnamed NPC (ID: 17063958/0x01046016)], work=[294*, 0*]
 87: 0x140A [0x03] Work_Zone[58] = 36*
 88: 0x140F [0x02] IF !(ExtData[1]->WorkLocal[6] == 6*) GOTO 0x142D
 89: 0x1417 [0x45] LOAD_SCHEDULED_TASK: Load scheduler "rm03" with entities [Unnamed NPC (ID: 17063959/0x01046017), Unnamed NPC (ID: 17063959/0x01046017)], work=[294*, 0*]
 90: 0x1428 [0x03] Work_Zone[58] = 37*
 91: 0x142D [0x02] IF !(ExtData[1]->WorkLocal[6] == 7*) GOTO 0x144B
 92: 0x1435 [0x45] LOAD_SCHEDULED_TASK: Load scheduler "rm03" with entities [Unnamed NPC (ID: 17063960/0x01046018), Unnamed NPC (ID: 17063960/0x01046018)], work=[294*, 0*]
 93: 0x1446 [0x03] Work_Zone[58] = 38*
 94: 0x144B [0x0B] ExtData[1]->WorkLocal[6]++
 95: 0x144E [0x01] GOTO 0x134C
 96: 0x1451 [0x06] ExtData[1]->WorkLocal[6] = 0

SUBROUTINE_1454:
 97: 0x1454 [0x02] IF !(ExtData[1]->WorkLocal[6] >= Work_Zone[52]) GOTO 0x1559
 98: 0x145C [0x3E] IF !(ExtData[1]->WorkLocal[4] bit ExtData[1]->WorkLocal[6]) GOTO 0x1553
 99: 0x1463 [0x02] IF !(ExtData[1]->WorkLocal[6] == 0*) GOTO 0x1481
100: 0x146B [0x45] LOAD_SCHEDULED_TASK: Load scheduler "rm03" with entities [Unnamed NPC (ID: 17063953/0x01046011), Unnamed NPC (ID: 17063953/0x01046011)], work=[294*, 0*]
101: 0x147C [0x03] Work_Zone[58] = 31*
102: 0x1481 [0x02] IF !(ExtData[1]->WorkLocal[6] == 1*) GOTO 0x149F
103: 0x1489 [0x45] LOAD_SCHEDULED_TASK: Load scheduler "rm03" with entities [Unnamed NPC (ID: 17063954/0x01046012), Unnamed NPC (ID: 17063954/0x01046012)], work=[294*, 0*]
104: 0x149A [0x03] Work_Zone[58] = 32*
105: 0x149F [0x02] IF !(ExtData[1]->WorkLocal[6] == 2*) GOTO 0x14BD
106: 0x14A7 [0x45] LOAD_SCHEDULED_TASK: Load scheduler "rm03" with entities [Unnamed NPC (ID: 17063955/0x01046013), Unnamed NPC (ID: 17063955/0x01046013)], work=[294*, 0*]
107: 0x14B8 [0x03] Work_Zone[58] = 33*
108: 0x14BD [0x02] IF !(ExtData[1]->WorkLocal[6] == 3*) GOTO 0x14DB
109: 0x14C5 [0x45] LOAD_SCHEDULED_TASK: Load scheduler "rm03" with entities [Unnamed NPC (ID: 17063956/0x01046014), Unnamed NPC (ID: 17063956/0x01046014)], work=[294*, 0*]
110: 0x14D6 [0x03] Work_Zone[58] = 34*
111: 0x14DB [0x02] IF !(ExtData[1]->WorkLocal[6] == 4*) GOTO 0x14F9
112: 0x14E3 [0x45] LOAD_SCHEDULED_TASK: Load scheduler "rm03" with entities [Unnamed NPC (ID: 17063957/0x01046015), Unnamed NPC (ID: 17063957/0x01046015)], work=[294*, 0*]
113: 0x14F4 [0x03] Work_Zone[58] = 35*
114: 0x14F9 [0x02] IF !(ExtData[1]->WorkLocal[6] == 5*) GOTO 0x1517
115: 0x1501 [0x45] LOAD_SCHEDULED_TASK: Load scheduler "rm03" with entities [Unnamed NPC (ID: 17063958/0x01046016), Unnamed NPC (ID: 17063958/0x01046016)], work=[294*, 0*]
116: 0x1512 [0x03] Work_Zone[58] = 36*
117: 0x1517 [0x02] IF !(ExtData[1]->WorkLocal[6] == 6*) GOTO 0x1535
118: 0x151F [0x45] LOAD_SCHEDULED_TASK: Load scheduler "rm03" with entities [Unnamed NPC (ID: 17063959/0x01046017), Unnamed NPC (ID: 17063959/0x01046017)], work=[294*, 0*]
119: 0x1530 [0x03] Work_Zone[58] = 37*
120: 0x1535 [0x02] IF !(ExtData[1]->WorkLocal[6] == 7*) GOTO 0x1553
121: 0x153D [0x45] LOAD_SCHEDULED_TASK: Load scheduler "rm03" with entities [Unnamed NPC (ID: 17063960/0x01046018), Unnamed NPC (ID: 17063960/0x01046018)], work=[294*, 0*]
122: 0x154E [0x03] Work_Zone[58] = 38*
123: 0x1553 [0x0B] ExtData[1]->WorkLocal[6]++
124: 0x1556 [0x01] GOTO 0x1454
125: 0x1559 [0x29] REQ_SET_WAIT(priority=0x05, entity_id=cameraA (ID: 17063972/0x01046024), tag_num=0x07)
126: 0x1560 [0x1C] WAIT(60* ticks)
127: 0x1563 [0x02] IF !(Work_Zone[58] == 31*) GOTO 0x158B
128: 0x156B [0x29] REQ_SET_WAIT(priority=0x03, entity_id=cameraA (ID: 17063972/0x01046024), tag_num=0x06)
129: 0x1572 [0x45] LOAD_SCHEDULED_TASK: Load scheduler "rm01" with entities [cameraA (ID: 17063972/0x01046024), Unnamed NPC (ID: 17063953/0x01046011)], work=[294*, 0*]
130: 0x1583 [0x03] ExtData[1]->WorkLocal[7] = 1*
131: 0x1588 [0x01] GOTO 0x16A3
132: 0x158B [0x02] IF !(Work_Zone[58] == 32*) GOTO 0x15B3
133: 0x1593 [0x29] REQ_SET_WAIT(priority=0x03, entity_id=cameraA (ID: 17063972/0x01046024), tag_num=0x06)
134: 0x159A [0x45] LOAD_SCHEDULED_TASK: Load scheduler "rm01" with entities [cameraA (ID: 17063972/0x01046024), Unnamed NPC (ID: 17063954/0x01046012)], work=[294*, 0*]
135: 0x15AB [0x03] ExtData[1]->WorkLocal[7] = 2*
136: 0x15B0 [0x01] GOTO 0x16A3
137: 0x15B3 [0x02] IF !(Work_Zone[58] == 33*) GOTO 0x15DB
138: 0x15BB [0x29] REQ_SET_WAIT(priority=0x03, entity_id=cameraA (ID: 17063972/0x01046024), tag_num=0x06)
139: 0x15C2 [0x45] LOAD_SCHEDULED_TASK: Load scheduler "rm01" with entities [cameraA (ID: 17063972/0x01046024), Unnamed NPC (ID: 17063955/0x01046013)], work=[294*, 0*]
140: 0x15D3 [0x03] ExtData[1]->WorkLocal[7] = 3*
141: 0x15D8 [0x01] GOTO 0x16A3
142: 0x15DB [0x02] IF !(Work_Zone[58] == 34*) GOTO 0x1603
143: 0x15E3 [0x29] REQ_SET_WAIT(priority=0x03, entity_id=cameraA (ID: 17063972/0x01046024), tag_num=0x06)
144: 0x15EA [0x45] LOAD_SCHEDULED_TASK: Load scheduler "rm01" with entities [cameraA (ID: 17063972/0x01046024), Unnamed NPC (ID: 17063956/0x01046014)], work=[294*, 0*]
145: 0x15FB [0x03] ExtData[1]->WorkLocal[7] = 4*
146: 0x1600 [0x01] GOTO 0x16A3
147: 0x1603 [0x02] IF !(Work_Zone[58] == 35*) GOTO 0x162B
148: 0x160B [0x29] REQ_SET_WAIT(priority=0x03, entity_id=cameraA (ID: 17063972/0x01046024), tag_num=0x06)
149: 0x1612 [0x45] LOAD_SCHEDULED_TASK: Load scheduler "rm01" with entities [cameraA (ID: 17063972/0x01046024), Unnamed NPC (ID: 17063957/0x01046015)], work=[294*, 0*]
150: 0x1623 [0x03] ExtData[1]->WorkLocal[7] = 5*
151: 0x1628 [0x01] GOTO 0x16A3
152: 0x162B [0x02] IF !(Work_Zone[58] == 36*) GOTO 0x1653
153: 0x1633 [0x29] REQ_SET_WAIT(priority=0x03, entity_id=cameraA (ID: 17063972/0x01046024), tag_num=0x06)
154: 0x163A [0x45] LOAD_SCHEDULED_TASK: Load scheduler "rm01" with entities [cameraA (ID: 17063972/0x01046024), Unnamed NPC (ID: 17063958/0x01046016)], work=[294*, 0*]
155: 0x164B [0x03] ExtData[1]->WorkLocal[7] = 6*
156: 0x1650 [0x01] GOTO 0x16A3
157: 0x1653 [0x02] IF !(Work_Zone[58] == 37*) GOTO 0x167B
158: 0x165B [0x29] REQ_SET_WAIT(priority=0x03, entity_id=cameraA (ID: 17063972/0x01046024), tag_num=0x06)
159: 0x1662 [0x45] LOAD_SCHEDULED_TASK: Load scheduler "rm01" with entities [cameraA (ID: 17063972/0x01046024), Unnamed NPC (ID: 17063959/0x01046017)], work=[294*, 0*]
160: 0x1673 [0x03] ExtData[1]->WorkLocal[7] = 7*
161: 0x1678 [0x01] GOTO 0x16A3
162: 0x167B [0x02] IF !(Work_Zone[58] == 38*) GOTO 0x16A3
163: 0x1683 [0x29] REQ_SET_WAIT(priority=0x03, entity_id=cameraA (ID: 17063972/0x01046024), tag_num=0x06)
164: 0x168A [0x45] LOAD_SCHEDULED_TASK: Load scheduler "rm01" with entities [cameraA (ID: 17063972/0x01046024), Unnamed NPC (ID: 17063960/0x01046018)], work=[294*, 0*]
165: 0x169B [0x03] ExtData[1]->WorkLocal[7] = 8*
166: 0x16A0 [0x01] GOTO 0x16A3

SUBROUTINE_16A3:
167: 0x16A3 [0x03] Work_Zone[58] = ExtData[1]->WorkLocal[7]
168: 0x16A8 [0x00] END_REQSTACK()
```

### Event 65535.6

#### Metadata

| Field        | Value     |
|--------------|-----------|
| Entrypoint   | 0x16A9    |
| Data Size    | 766 bytes |
| Instructions | 83        |

```
      00 01 02 03 04 05 06 07  08 09 0A 0B 0C 0D 0E 0F
      -- -- -- -- -- -- -- --  -- -- -- -- -- -- -- --
16A0:                             45 09 80 F0 FF FF 7F           E......
16B0: F0 FF FF 7F 66 64 69 30  01 80 41 01 80 0B 80 28  ....fdi0..A....(
16C0: 10 03 00 41 0C 80 08 80  28 10 04 00 41 13 80 1D  ...A....(...A...
16D0: 80 28 10 05 00 06 06 00  02 06 00 34 10 03 15 18  .(.........4....
16E0: 3E 03 00 06 00 0F 18 02  06 00 01 80 00 0C 17 29  >..............)
16F0: 03 24 60 04 01 06 45 14  80 11 60 04 01 11 60 04  .$`...E...`...`.
1700: 01 72 6D 30 33 01 80 03  07 00 03 80 02 06 00 03  .rm03...........
1710: 80 00 31 17 29 03 24 60  04 01 06 45 14 80 12 60  ..1.).$`...E...`
1720: 04 01 12 60 04 01 72 6D  30 33 01 80 03 07 00 04  ...`..rm03......
1730: 80 02 06 00 04 80 00 56  17 29 03 24 60 04 01 06  .......V.).$`...
1740: 45 14 80 13 60 04 01 13  60 04 01 72 6D 30 33 01  E...`...`..rm03.
1750: 80 03 07 00 05 80 02 06  00 05 80 00 7B 17 29 03  ............{.).
1760: 24 60 04 01 06 45 14 80  14 60 04 01 14 60 04 01  $`...E...`...`..
1770: 72 6D 30 33 01 80 03 07  00 06 80 02 06 00 06 80  rm03............
1780: 00 A0 17 29 03 24 60 04  01 06 45 14 80 15 60 04  ...).$`...E...`.
1790: 01 15 60 04 01 72 6D 30  33 01 80 03 07 00 07 80  ..`..rm03.......
17A0: 02 06 00 07 80 00 C5 17  29 03 24 60 04 01 06 45  ........).$`...E
17B0: 14 80 16 60 04 01 16 60  04 01 72 6D 30 33 01 80  ...`...`..rm03..
17C0: 03 07 00 0A 80 02 06 00  0A 80 00 EA 17 29 03 24  .............).$
17D0: 60 04 01 06 45 14 80 17  60 04 01 17 60 04 01 72  `...E...`...`..r
17E0: 6D 30 33 01 80 03 07 00  0B 80 02 06 00 0B 80 00  m03.............
17F0: 0F 18 29 03 24 60 04 01  06 45 14 80 18 60 04 01  ..).$`...E...`..
1800: 18 60 04 01 72 6D 30 33  01 80 03 07 00 0C 80 0B  .`..rm03........
1810: 06 00 01 D8 16 03 3A 10  24 80 07 3A 10 07 00 1C  ......:.$..:....
1820: 30 80 29 03 24 60 04 01  06 45 14 80 11 60 04 01  0.).$`...E...`..
1830: 11 60 04 01 72 6D 30 36  01 80 29 05 24 60 04 01  .`..rm06..).$`..
1840: 07 1C 31 80 03 00 00 07  00 02 00 00 03 80 80 74  ..1............t
1850: 18 52 14 80 11 60 04 01  11 60 04 01 72 6D 30 36  .R...`...`..rm06
1860: 45 14 80 24 60 04 01 11  60 04 01 72 6D 30 31 01  E..$`...`..rm01.
1870: 80 01 A1 19 02 00 00 04  80 80 9F 18 52 14 80 11  ............R...
1880: 60 04 01 11 60 04 01 72  6D 30 36 45 14 80 24 60  `...`..rm06E..$`
1890: 04 01 12 60 04 01 72 6D  30 31 01 80 01 A1 19 02  ...`..rm01......
18A0: 00 00 05 80 80 CA 18 52  14 80 11 60 04 01 11 60  .......R...`...`
18B0: 04 01 72 6D 30 36 45 14  80 24 60 04 01 13 60 04  ..rm06E..$`...`.
18C0: 01 72 6D 30 31 01 80 01  A1 19 02 00 00 06 80 80  .rm01...........
18D0: F5 18 52 14 80 11 60 04  01 11 60 04 01 72 6D 30  ..R...`...`..rm0
18E0: 36 45 14 80 24 60 04 01  14 60 04 01 72 6D 30 31  6E..$`...`..rm01
18F0: 01 80 01 A1 19 02 00 00  07 80 80 20 19 52 14 80  ........... .R..
1900: 11 60 04 01 11 60 04 01  72 6D 30 36 45 14 80 24  .`...`..rm06E..$
1910: 60 04 01 15 60 04 01 72  6D 30 31 01 80 01 A1 19  `...`..rm01.....
1920: 02 00 00 0A 80 80 4B 19  52 14 80 11 60 04 01 11  ......K.R...`...
1930: 60 04 01 72 6D 30 36 45  14 80 24 60 04 01 16 60  `..rm06E..$`...`
1940: 04 01 72 6D 30 31 01 80  01 A1 19 02 00 00 0B 80  ..rm01..........
1950: 80 76 19 52 14 80 11 60  04 01 11 60 04 01 72 6D  .v.R...`...`..rm
1960: 30 36 45 14 80 24 60 04  01 17 60 04 01 72 6D 30  06E..$`...`..rm0
1970: 31 01 80 01 A1 19 02 00  00 0C 80 80 A1 19 52 14  1.............R.
1980: 80 11 60 04 01 11 60 04  01 72 6D 30 36 45 14 80  ..`...`..rm06E..
1990: 24 60 04 01 18 60 04 01  72 6D 30 31 01 80 01 A1  $`...`..rm01....
19A0: 19 03 3A 10 00 00 00                              ..:....         
```

#### Opcodes

```
  0: 0x16A9 [0x45] LOAD_SCHEDULED_TASK: Load scheduler "fdi0" with entities [LocalPlayer, LocalPlayer], work=[200*, 0*]
  1: 0x16BA [0x41] ExtData[1]->WorkLocal[3] = Work_Zone[40] (bits 0*-7*)
  2: 0x16C3 [0x41] ExtData[1]->WorkLocal[4] = Work_Zone[40] (bits 8*-15*)
  3: 0x16CC [0x41] ExtData[1]->WorkLocal[5] = Work_Zone[40] (bits 16*-23*)
  4: 0x16D5 [0x06] ExtData[1]->WorkLocal[6] = 0
  5: 0x16D8 [0x02] IF !(ExtData[1]->WorkLocal[6] >= Work_Zone[52]) GOTO 0x1815
  6: 0x16E0 [0x3E] IF !(ExtData[1]->WorkLocal[3] bit ExtData[1]->WorkLocal[6]) GOTO 0x180F
  7: 0x16E7 [0x02] IF !(ExtData[1]->WorkLocal[6] == 0*) GOTO 0x170C
  8: 0x16EF [0x29] REQ_SET_WAIT(priority=0x03, entity_id=cameraA (ID: 17063972/0x01046024), tag_num=0x06)
  9: 0x16F6 [0x45] LOAD_SCHEDULED_TASK: Load scheduler "rm03" with entities [Unnamed NPC (ID: 17063953/0x01046011), Unnamed NPC (ID: 17063953/0x01046011)], work=[294*, 0*]
 10: 0x1707 [0x03] ExtData[1]->WorkLocal[7] = 1*
 11: 0x170C [0x02] IF !(ExtData[1]->WorkLocal[6] == 1*) GOTO 0x1731
 12: 0x1714 [0x29] REQ_SET_WAIT(priority=0x03, entity_id=cameraA (ID: 17063972/0x01046024), tag_num=0x06)
 13: 0x171B [0x45] LOAD_SCHEDULED_TASK: Load scheduler "rm03" with entities [Unnamed NPC (ID: 17063954/0x01046012), Unnamed NPC (ID: 17063954/0x01046012)], work=[294*, 0*]
 14: 0x172C [0x03] ExtData[1]->WorkLocal[7] = 2*
 15: 0x1731 [0x02] IF !(ExtData[1]->WorkLocal[6] == 2*) GOTO 0x1756
 16: 0x1739 [0x29] REQ_SET_WAIT(priority=0x03, entity_id=cameraA (ID: 17063972/0x01046024), tag_num=0x06)
 17: 0x1740 [0x45] LOAD_SCHEDULED_TASK: Load scheduler "rm03" with entities [Unnamed NPC (ID: 17063955/0x01046013), Unnamed NPC (ID: 17063955/0x01046013)], work=[294*, 0*]
 18: 0x1751 [0x03] ExtData[1]->WorkLocal[7] = 3*
 19: 0x1756 [0x02] IF !(ExtData[1]->WorkLocal[6] == 3*) GOTO 0x177B
 20: 0x175E [0x29] REQ_SET_WAIT(priority=0x03, entity_id=cameraA (ID: 17063972/0x01046024), tag_num=0x06)
 21: 0x1765 [0x45] LOAD_SCHEDULED_TASK: Load scheduler "rm03" with entities [Unnamed NPC (ID: 17063956/0x01046014), Unnamed NPC (ID: 17063956/0x01046014)], work=[294*, 0*]
 22: 0x1776 [0x03] ExtData[1]->WorkLocal[7] = 4*
 23: 0x177B [0x02] IF !(ExtData[1]->WorkLocal[6] == 4*) GOTO 0x17A0
 24: 0x1783 [0x29] REQ_SET_WAIT(priority=0x03, entity_id=cameraA (ID: 17063972/0x01046024), tag_num=0x06)
 25: 0x178A [0x45] LOAD_SCHEDULED_TASK: Load scheduler "rm03" with entities [Unnamed NPC (ID: 17063957/0x01046015), Unnamed NPC (ID: 17063957/0x01046015)], work=[294*, 0*]
 26: 0x179B [0x03] ExtData[1]->WorkLocal[7] = 5*
 27: 0x17A0 [0x02] IF !(ExtData[1]->WorkLocal[6] == 5*) GOTO 0x17C5
 28: 0x17A8 [0x29] REQ_SET_WAIT(priority=0x03, entity_id=cameraA (ID: 17063972/0x01046024), tag_num=0x06)
 29: 0x17AF [0x45] LOAD_SCHEDULED_TASK: Load scheduler "rm03" with entities [Unnamed NPC (ID: 17063958/0x01046016), Unnamed NPC (ID: 17063958/0x01046016)], work=[294*, 0*]
 30: 0x17C0 [0x03] ExtData[1]->WorkLocal[7] = 6*
 31: 0x17C5 [0x02] IF !(ExtData[1]->WorkLocal[6] == 6*) GOTO 0x17EA
 32: 0x17CD [0x29] REQ_SET_WAIT(priority=0x03, entity_id=cameraA (ID: 17063972/0x01046024), tag_num=0x06)
 33: 0x17D4 [0x45] LOAD_SCHEDULED_TASK: Load scheduler "rm03" with entities [Unnamed NPC (ID: 17063959/0x01046017), Unnamed NPC (ID: 17063959/0x01046017)], work=[294*, 0*]
 34: 0x17E5 [0x03] ExtData[1]->WorkLocal[7] = 7*
 35: 0x17EA [0x02] IF !(ExtData[1]->WorkLocal[6] == 7*) GOTO 0x180F
 36: 0x17F2 [0x29] REQ_SET_WAIT(priority=0x03, entity_id=cameraA (ID: 17063972/0x01046024), tag_num=0x06)
 37: 0x17F9 [0x45] LOAD_SCHEDULED_TASK: Load scheduler "rm03" with entities [Unnamed NPC (ID: 17063960/0x01046018), Unnamed NPC (ID: 17063960/0x01046018)], work=[294*, 0*]
 38: 0x180A [0x03] ExtData[1]->WorkLocal[7] = 8*
 39: 0x180F [0x0B] ExtData[1]->WorkLocal[6]++
 40: 0x1812 [0x01] GOTO 0x16D8
 41: 0x1815 [0x03] Work_Zone[58] = 30*
 42: 0x181A [0x07] Work_Zone[58] += ExtData[1]->WorkLocal[7]
 43: 0x181F [0x1C] WAIT(60* ticks)
 44: 0x1822 [0x29] REQ_SET_WAIT(priority=0x03, entity_id=cameraA (ID: 17063972/0x01046024), tag_num=0x06)
 45: 0x1829 [0x45] LOAD_SCHEDULED_TASK: Load scheduler "rm06" with entities [Unnamed NPC (ID: 17063953/0x01046011), Unnamed NPC (ID: 17063953/0x01046011)], work=[294*, 0*]
