# 17063972 - cameraA

## Common Data

| Field            | Value                    |
|------------------|--------------------------|
| Zone             | Chocobo Circuit (ID: 70) |
| Block Size       | 3440 bytes               |
| Total Events     | 30                       |
| References Count | 167                      |

## List of Events

| Event ID                 | Entrypoint   |   Size |   Instructions |
|--------------------------|--------------|--------|----------------|
| [65535](#event-65535)    | 0x0000       |      1 |              1 |
| [116](#event-116)        | 0x0001       |      1 |              1 |
| [115](#event-115)        | 0x0002       |      1 |              1 |
| [65535.1](#event-655351) | 0x0003       |      1 |              1 |
| [210](#event-210)        | 0x0004       |      1 |              1 |
| [100](#event-100)        | 0x0005       |      1 |              1 |
| [65535.2](#event-655352) | 0x0006       |   1799 |            172 |
| [65535.3](#event-655353) | 0x070D       |    741 |             96 |
| [65535.4](#event-655354) | 0x09F2       |     36 |              4 |
| [65535.5](#event-655355) | 0x0A16       |     33 |              3 |
| [212](#event-212)        | 0x0A37       |      1 |              1 |
| [213](#event-213)        | 0x0A38       |      1 |              1 |
| [214](#event-214)        | 0x0A39       |      1 |              1 |
| [215](#event-215)        | 0x0A3A       |      1 |              1 |
| [228](#event-228)        | 0x0A3B       |      1 |              1 |
| [267](#event-267)        | 0x0A3C       |      1 |              1 |
| [271](#event-271)        | 0x0A3D       |      1 |              1 |
| [275](#event-275)        | 0x0A3E       |      1 |              1 |
| [279](#event-279)        | 0x0A3F       |      1 |              1 |
| [283](#event-283)        | 0x0A40       |      1 |              1 |
| [287](#event-287)        | 0x0A41       |      1 |              1 |
| [291](#event-291)        | 0x0A42       |      1 |              1 |
| [295](#event-295)        | 0x0A43       |      1 |              1 |
| [300](#event-300)        | 0x0A44       |      1 |              1 |
| [304](#event-304)        | 0x0A45       |      1 |              1 |
| [308](#event-308)        | 0x0A46       |      1 |              1 |
| [312](#event-312)        | 0x0A47       |      1 |              1 |
| [316](#event-316)        | 0x0A48       |      1 |              1 |
| [320](#event-320)        | 0x0A49       |      1 |              1 |
| [324](#event-324)        | 0x0A4A       |      1 |              1 |

## DAT References (imed_data)

|   Index | Hex Value   |   Dec Value |
|---------|-------------|-------------|
|       0 | 0x0000      |           0 |
|       1 | 0x00BF      |         191 |
|       2 | 0x0001      |           1 |
|       3 | 0x0126      |         294 |
|       4 | 0x0002      |           2 |
|       5 | 0x0003      |           3 |
|       6 | 0x0004      |           4 |
|       7 | 0x0005      |           5 |
|       8 | 0x0006      |           6 |
|       9 | 0x0007      |           7 |
|      10 | 0x0008      |           8 |
|      11 | 0x000B      |          11 |
|      12 | 0x000C      |          12 |
|      13 | 0x000D      |          13 |
|      14 | 0x000E      |          14 |
|      15 | 0x000F      |          15 |
|      16 | 0x0010      |          16 |
|      17 | 0x0011      |          17 |
|      18 | 0x0012      |          18 |
|      19 | 0x0015      |          21 |
|      20 | 0x0016      |          22 |
|      21 | 0x0017      |          23 |
|      22 | 0x0018      |          24 |
|      23 | 0x0019      |          25 |
|      24 | 0x001A      |          26 |
|      25 | 0x001B      |          27 |
|      26 | 0x001C      |          28 |
|      27 | 0x001F      |          31 |
|      28 | 0x0020      |          32 |
|      29 | 0x0021      |          33 |
|      30 | 0x0022      |          34 |
|      31 | 0x0023      |          35 |
|      32 | 0x0024      |          36 |
|      33 | 0x0025      |          37 |
|      34 | 0x0026      |          38 |
|      35 | 0x0029      |          41 |
|      36 | 0x002A      |          42 |
|      37 | 0x002B      |          43 |
|      38 | 0x002C      |          44 |
|      39 | 0x002D      |          45 |
|      40 | 0x002E      |          46 |
|      41 | 0x002F      |          47 |
|      42 | 0x0030      |          48 |
|      43 | 0x0032      |          50 |
|      44 | 0x0033      |          51 |
|      45 | 0x0034      |          52 |
|      46 | 0x0035      |          53 |
|      47 | 0xFFFE3C86  |  4294851718 |
|      48 | 0xFFFEEE98  |  4294897304 |
|      49 | 0xFFFFF0AF  |  4294963375 |
|      50 | 0x0353      |         851 |
|      51 | 0xFFFDC617  |  4294821399 |
|      52 | 0xFFFEA887  |  4294879367 |
|      53 | 0xFFFFECC4  |  4294962372 |
|      54 | 0x0CFA      |        3322 |
|      55 | 0xFFFD5947  |  4294793543 |
|      56 | 0xFFFEECCE  |  4294896846 |
|      57 | 0xFFFFF09D  |  4294963357 |
|      58 | 0x0510      |        1296 |
|      59 | 0xFFFCB2C3  |  4294750915 |
|      60 | 0xFFFEFE13  |  4294901267 |
|      61 | 0xFFFFEFDC  |  4294963164 |
|      62 | 0x0D05      |        3333 |
|      63 | 0xFFFC6258  |  4294730328 |
|      64 | 0xFFFF7755  |  4294932309 |
|      65 | 0xFFFFE7C8  |  4294961096 |
|      66 | 0x05A4      |        1444 |
|      67 | 0xFFFC2FD6  |  4294717398 |
|      68 | 0xFFFFFC91  |  4294966417 |
|      69 | 0xFFFFE84A  |  4294961226 |
|      70 | 0x03C4      |         964 |
|      71 | 0xFFFCACB9  |  4294749369 |
|      72 | 0x89B9      |       35257 |
|      73 | 0xFFFFF094  |  4294963348 |
|      74 | 0x0A29      |        2601 |
|      75 | 0xFFFCB68A  |  4294751882 |
|      76 | 0x10695     |       67221 |
|      77 | 0xFFFFEC68  |  4294962280 |
|      78 | 0x02F8      |         760 |
|      79 | 0xFFFD620E  |  4294795790 |
|      80 | 0x10288     |       66184 |
|      81 | 0xFFFFE6A1  |  4294960801 |
|      82 | 0x0AE7      |        2791 |
|      83 | 0x0009      |           9 |
|      84 | 0xFFFDBADB  |  4294818523 |
|      85 | 0x156FC     |       87804 |
|      86 | 0xFFFFEF57  |  4294963031 |
|      87 | 0x057F      |        1407 |
|      88 | 0x000A      |          10 |
|      89 | 0xFFFE4E68  |  4294856296 |
|      90 | 0x10D88     |       69000 |
|      91 | 0xFFFFDE38  |  4294958648 |
|      92 | 0x0E2E      |        3630 |
|      93 | 0xFFFE8CDB  |  4294872283 |
|      94 | 0x10730     |       67376 |
|      95 | 0xFFFFF353  |  4294964051 |
|      96 | 0xFFFF508D  |  4294922381 |
|      97 | 0x10B8A     |       68490 |
|      98 | 0xFFFFE87F  |  4294961279 |
|      99 | 0x0BC9      |        3017 |
|     100 | 0xFFFFE4D0  |  4294960336 |
|     101 | 0x130FB     |       78075 |
|     102 | 0xFFFFECB4  |  4294962356 |
|     103 | 0x0F96      |        3990 |
|     104 | 0x4F10      |       20240 |
|     105 | 0x1122B     |       70187 |
|     106 | 0xFFFFF060  |  4294963296 |
|     107 | 0x084E      |        2126 |
|     108 | 0x94B7      |       38071 |
|     109 | 0x1530E     |       86798 |
|     110 | 0xFFFFF113  |  4294963475 |
|     111 | 0x08C5      |        2245 |
|     112 | 0x1509B     |       86171 |
|     113 | 0x14FCB     |       85963 |
|     114 | 0xFFFFD5EF  |  4294956527 |
|     115 | 0x038E      |         910 |
|     116 | 0x0013      |          19 |
|     117 | 0x0014      |          20 |
|     118 | 0x3658C     |      222604 |
|     119 | 0x7C82      |       31874 |
|     120 | 0xFFFFF38B  |  4294964107 |
|     121 | 0x0FF5      |        4085 |
|     122 | 0x389F6     |      231926 |
|     123 | 0x809C      |       32924 |
|     124 | 0xFFFFBDDF  |  4294950367 |
|     125 | 0x0DEE      |        3566 |
|     126 | 0x3843F     |      230463 |
|     127 | 0xFFFFF0C4  |  4294963396 |
|     128 | 0xFFFFF0E5  |  4294963429 |
|     129 | 0x0043      |          67 |
|     130 | 0x39E7A     |      237178 |
|     131 | 0xFFFF579F  |  4294924191 |
|     132 | 0xFFFFF0DD  |  4294963421 |
|     133 | 0x0B7B      |        2939 |
|     134 | 0x2FE54     |      196180 |
|     135 | 0xFFFF6F6D  |  4294930285 |
|     136 | 0xFFFFEE66  |  4294962790 |
|     137 | 0x01A6      |         422 |
|     138 | 0x2ACC4     |      175300 |
|     139 | 0xFFFEA7CC  |  4294879180 |
|     140 | 0xFFFFEBA0  |  4294962080 |
|     141 | 0x09EF      |        2543 |
|     142 | 0x1FFB8     |      131000 |
|     143 | 0xFFFEE6C0  |  4294895296 |
|     144 | 0xFFFFE835  |  4294961205 |
|     145 | 0x0FDE      |        4062 |
|     146 | 0x15F90     |       90000 |
|     147 | 0xFFFEAC28  |  4294880296 |
|     148 | 0xFFFFE83D  |  4294961213 |
|     149 | 0x0175      |         373 |
|     150 | 0xFCB1      |       64689 |
|     151 | 0xFFFEE716  |  4294895382 |
|     152 | 0xFFFFE363  |  4294959971 |
|     153 | 0x001D      |          29 |
|     154 | 0xA323      |       41763 |
|     155 | 0xFFFEE273  |  4294894195 |
|     156 | 0xFFFFECAE  |  4294962350 |
|     157 | 0x03E9      |        1001 |
|     158 | 0x001E      |          30 |
|     159 | 0x1721      |        5921 |
|     160 | 0xFFFEF01C  |  4294897692 |
|     161 | 0xFFFFF397  |  4294964119 |
|     162 | 0x0483      |        1155 |
|     163 | 0xFFFF607E  |  4294926462 |
|     164 | 0xFFFEA1C8  |  4294877640 |
|     165 | 0xFFFFE684  |  4294960772 |
|     166 | 0x046D      |        1133 |

## Events

### Event 65535

#### Metadata

| Field        | Value   |
|--------------|---------|
| Entrypoint   | 0x0000  |
| Data Size    | 1 bytes |
| Instructions | 1       |

```
      00 01 02 03 04 05 06 07  08 09 0A 0B 0C 0D 0E 0F
      -- -- -- -- -- -- -- --  -- -- -- -- -- -- -- --
0000: 00                                                .               
```

#### Opcodes

```
  0: 0x0000 [0x00] END_REQSTACK()
```

### Event 116

#### Metadata

| Field        | Value   |
|--------------|---------|
| Entrypoint   | 0x0001  |
| Data Size    | 1 bytes |
| Instructions | 1       |

```
      00 01 02 03 04 05 06 07  08 09 0A 0B 0C 0D 0E 0F
      -- -- -- -- -- -- -- --  -- -- -- -- -- -- -- --
0000:    00                                              .              
```

#### Opcodes

```
  0: 0x0001 [0x00] END_REQSTACK()
```

### Event 115

#### Metadata

| Field        | Value   |
|--------------|---------|
| Entrypoint   | 0x0002  |
| Data Size    | 1 bytes |
| Instructions | 1       |

```
      00 01 02 03 04 05 06 07  08 09 0A 0B 0C 0D 0E 0F
      -- -- -- -- -- -- -- --  -- -- -- -- -- -- -- --
0000:       00                                            .             
```

#### Opcodes

```
  0: 0x0002 [0x00] END_REQSTACK()
```

### Event 65535.1

#### Metadata

| Field        | Value   |
|--------------|---------|
| Entrypoint   | 0x0003  |
| Data Size    | 1 bytes |
| Instructions | 1       |

```
      00 01 02 03 04 05 06 07  08 09 0A 0B 0C 0D 0E 0F
      -- -- -- -- -- -- -- --  -- -- -- -- -- -- -- --
0000:          00                                          .            
```

#### Opcodes

```
  0: 0x0003 [0x00] END_REQSTACK()
```

### Event 210

#### Metadata

| Field        | Value   |
|--------------|---------|
| Entrypoint   | 0x0004  |
| Data Size    | 1 bytes |
| Instructions | 1       |

```
      00 01 02 03 04 05 06 07  08 09 0A 0B 0C 0D 0E 0F
      -- -- -- -- -- -- -- --  -- -- -- -- -- -- -- --
0000:             00                                        .           
```

#### Opcodes

```
  0: 0x0004 [0x00] END_REQSTACK()
```

### Event 100

#### Metadata

| Field        | Value   |
|--------------|---------|
| Entrypoint   | 0x0005  |
| Data Size    | 1 bytes |
| Instructions | 1       |

```
      00 01 02 03 04 05 06 07  08 09 0A 0B 0C 0D 0E 0F
      -- -- -- -- -- -- -- --  -- -- -- -- -- -- -- --
0000:                00                                      .          
```

#### Opcodes

```
  0: 0x0005 [0x00] END_REQSTACK()
```

### Event 65535.2

#### Metadata

| Field        | Value      |
|--------------|------------|
| Entrypoint   | 0x0006     |
| Data Size    | 1799 bytes |
| Instructions | 172        |

```
      00 01 02 03 04 05 06 07  08 09 0A 0B 0C 0D 0E 0F
      -- -- -- -- -- -- -- --  -- -- -- -- -- -- -- --
0000:                   02 3A  10 00 80 80 20 00 52 01        .:.... .R.
0010: 80 0F 60 04 01 0F 60 04  01 73 31 33 38 01 0C 07  ..`...`..s138...
0020: 02 3A 10 02 80 80 4B 00  52 03 80 24 60 04 01 11  .:....K.R..$`...
0030: 60 04 01 72 6D 30 31 45  03 80 24 60 04 01 11 60  `..rm01E..$`...`
0040: 04 01 6B 63 30 31 00 80  01 0C 07 02 3A 10 04 80  ..kc01......:...
0050: 80 76 00 52 03 80 24 60  04 01 12 60 04 01 72 6D  .v.R..$`...`..rm
0060: 30 31 45 03 80 24 60 04  01 12 60 04 01 6B 63 30  01E..$`...`..kc0
0070: 31 00 80 01 0C 07 02 3A  10 05 80 80 A1 00 52 03  1......:......R.
0080: 80 24 60 04 01 13 60 04  01 72 6D 30 31 45 03 80  .$`...`..rm01E..
0090: 24 60 04 01 13 60 04 01  6B 63 30 31 00 80 01 0C  $`...`..kc01....
00A0: 07 02 3A 10 06 80 80 CC  00 52 03 80 24 60 04 01  ..:......R..$`..
00B0: 14 60 04 01 72 6D 30 31  45 03 80 24 60 04 01 14  .`..rm01E..$`...
00C0: 60 04 01 6B 63 30 31 00  80 01 0C 07 02 3A 10 07  `..kc01......:..
00D0: 80 80 F7 00 52 03 80 24  60 04 01 15 60 04 01 72  ....R..$`...`..r
00E0: 6D 30 31 45 03 80 24 60  04 01 15 60 04 01 6B 63  m01E..$`...`..kc
00F0: 30 31 00 80 01 0C 07 02  3A 10 08 80 80 22 01 52  01......:....".R
0100: 03 80 24 60 04 01 16 60  04 01 72 6D 30 31 45 03  ..$`...`..rm01E.
0110: 80 24 60 04 01 16 60 04  01 6B 63 30 31 00 80 01  .$`...`..kc01...
0120: 0C 07 02 3A 10 09 80 80  4D 01 52 03 80 24 60 04  ...:....M.R..$`.
0130: 01 17 60 04 01 72 6D 30  31 45 03 80 24 60 04 01  ..`..rm01E..$`..
0140: 17 60 04 01 6B 63 30 31  00 80 01 0C 07 02 3A 10  .`..kc01......:.
0150: 0A 80 80 78 01 52 03 80  24 60 04 01 18 60 04 01  ...x.R..$`...`..
0160: 72 6D 30 31 45 03 80 24  60 04 01 18 60 04 01 6B  rm01E..$`...`..k
0170: 63 30 31 00 80 01 0C 07  02 3A 10 0B 80 80 A3 01  c01......:......
0180: 52 03 80 11 60 04 01 24  60 04 01 72 6D 30 30 45  R...`..$`..rm00E
0190: 03 80 11 60 04 01 25 60  04 01 6B 63 30 30 00 80  ...`..%`..kc00..
01A0: 01 0C 07 02 3A 10 0C 80  80 CE 01 52 03 80 12 60  ....:......R...`
01B0: 04 01 24 60 04 01 72 6D  30 30 45 03 80 12 60 04  ..$`..rm00E...`.
01C0: 01 25 60 04 01 6B 63 30  30 00 80 01 0C 07 02 3A  .%`..kc00......:
01D0: 10 0D 80 80 F9 01 52 03  80 13 60 04 01 24 60 04  ......R...`..$`.
01E0: 01 72 6D 30 30 45 03 80  13 60 04 01 25 60 04 01  .rm00E...`..%`..
01F0: 6B 63 30 30 00 80 01 0C  07 02 3A 10 0E 80 80 24  kc00......:....$
0200: 02 52 03 80 14 60 04 01  24 60 04 01 72 6D 30 30  .R...`..$`..rm00
0210: 45 03 80 14 60 04 01 25  60 04 01 6B 63 30 30 00  E...`..%`..kc00.
0220: 80 01 0C 07 02 3A 10 0F  80 80 4F 02 52 03 80 15  .....:....O.R...
0230: 60 04 01 24 60 04 01 72  6D 30 30 45 03 80 15 60  `..$`..rm00E...`
0240: 04 01 25 60 04 01 6B 63  30 30 00 80 01 0C 07 02  ..%`..kc00......
0250: 3A 10 10 80 80 7A 02 52  03 80 16 60 04 01 24 60  :....z.R...`..$`
0260: 04 01 72 6D 30 30 45 03  80 16 60 04 01 25 60 04  ..rm00E...`..%`.
0270: 01 6B 63 30 30 00 80 01  0C 07 02 3A 10 11 80 80  .kc00......:....
0280: A5 02 52 03 80 17 60 04  01 24 60 04 01 72 6D 30  ..R...`..$`..rm0
0290: 30 45 03 80 17 60 04 01  25 60 04 01 6B 63 30 30  0E...`..%`..kc00
02A0: 00 80 01 0C 07 02 3A 10  12 80 80 D0 02 52 03 80  ......:......R..
02B0: 18 60 04 01 24 60 04 01  72 6D 30 30 45 03 80 18  .`..$`..rm00E...
02C0: 60 04 01 25 60 04 01 6B  63 30 30 00 80 01 0C 07  `..%`..kc00.....
02D0: 02 3A 10 13 80 80 EC 02  45 03 80 11 60 04 01 25  .:......E...`..%
02E0: 60 04 01 6B 63 30 32 00  80 01 0C 07 02 3A 10 14  `..kc02......:..
02F0: 80 80 08 03 45 03 80 12  60 04 01 25 60 04 01 6B  ....E...`..%`..k
0300: 63 30 32 00 80 01 0C 07  02 3A 10 15 80 80 24 03  c02......:....$.
0310: 45 03 80 13 60 04 01 25  60 04 01 6B 63 30 32 00  E...`..%`..kc02.
0320: 80 01 0C 07 02 3A 10 16  80 80 40 03 45 03 80 14  .....:....@.E...
0330: 60 04 01 25 60 04 01 6B  63 30 32 00 80 01 0C 07  `..%`..kc02.....
0340: 02 3A 10 17 80 80 5C 03  45 03 80 15 60 04 01 25  .:....\.E...`..%
0350: 60 04 01 6B 63 30 32 00  80 01 0C 07 02 3A 10 18  `..kc02......:..
0360: 80 80 78 03 45 03 80 16  60 04 01 25 60 04 01 6B  ..x.E...`..%`..k
0370: 63 30 32 00 80 01 0C 07  02 3A 10 19 80 80 94 03  c02......:......
0380: 45 03 80 17 60 04 01 25  60 04 01 6B 63 30 32 00  E...`..%`..kc02.
0390: 80 01 0C 07 02 3A 10 1A  80 80 B0 03 45 03 80 18  .....:......E...
03A0: 60 04 01 25 60 04 01 6B  63 30 32 00 80 01 0C 07  `..%`..kc02.....
03B0: 02 3A 10 1B 80 80 DB 03  52 03 80 11 60 04 01 11  .:......R...`...
03C0: 60 04 01 72 6D 30 33 45  03 80 11 60 04 01 11 60  `..rm03E...`...`
03D0: 04 01 6B 63 30 33 00 80  01 0C 07 02 3A 10 1C 80  ..kc03......:...
03E0: 80 06 04 52 03 80 12 60  04 01 12 60 04 01 72 6D  ...R...`...`..rm
03F0: 30 33 45 03 80 12 60 04  01 12 60 04 01 6B 63 30  03E...`...`..kc0
0400: 33 00 80 01 0C 07 02 3A  10 1D 80 80 31 04 52 03  3......:....1.R.
0410: 80 13 60 04 01 13 60 04  01 72 6D 30 33 45 03 80  ..`...`..rm03E..
0420: 13 60 04 01 13 60 04 01  6B 63 30 33 00 80 01 0C  .`...`..kc03....
0430: 07 02 3A 10 1E 80 80 5C  04 52 03 80 14 60 04 01  ..:....\.R...`..
0440: 14 60 04 01 72 6D 30 33  45 03 80 14 60 04 01 14  .`..rm03E...`...
0450: 60 04 01 6B 63 30 33 00  80 01 0C 07 02 3A 10 1F  `..kc03......:..
0460: 80 80 87 04 52 03 80 15  60 04 01 15 60 04 01 72  ....R...`...`..r
0470: 6D 30 33 45 03 80 15 60  04 01 15 60 04 01 6B 63  m03E...`...`..kc
0480: 30 33 00 80 01 0C 07 02  3A 10 20 80 80 B2 04 52  03......:. ....R
0490: 03 80 16 60 04 01 16 60  04 01 72 6D 30 33 45 03  ...`...`..rm03E.
04A0: 80 16 60 04 01 16 60 04  01 6B 63 30 33 00 80 01  ..`...`..kc03...
04B0: 0C 07 02 3A 10 21 80 80  DD 04 52 03 80 17 60 04  ...:.!....R...`.
04C0: 01 17 60 04 01 72 6D 30  33 45 03 80 17 60 04 01  ..`..rm03E...`..
04D0: 17 60 04 01 6B 63 30 33  00 80 01 0C 07 02 3A 10  .`..kc03......:.
04E0: 22 80 80 08 05 52 03 80  18 60 04 01 18 60 04 01  "....R...`...`..
04F0: 72 6D 30 33 45 03 80 18  60 04 01 18 60 04 01 6B  rm03E...`...`..k
0500: 63 30 33 00 80 01 0C 07  02 3A 10 23 80 80 33 05  c03......:.#..3.
0510: 52 03 80 11 60 04 01 25  60 04 01 72 6D 30 34 45  R...`..%`..rm04E
0520: 03 80 11 60 04 01 25 60  04 01 6B 63 30 34 00 80  ...`..%`..kc04..
0530: 01 0C 07 02 3A 10 24 80  80 5E 05 52 03 80 12 60  ....:.$..^.R...`
0540: 04 01 25 60 04 01 72 6D  30 34 45 03 80 12 60 04  ..%`..rm04E...`.
0550: 01 25 60 04 01 6B 63 30  34 00 80 01 0C 07 02 3A  .%`..kc04......:
0560: 10 25 80 80 89 05 52 03  80 13 60 04 01 25 60 04  .%....R...`..%`.
0570: 01 72 6D 30 34 45 03 80  13 60 04 01 25 60 04 01  .rm04E...`..%`..
0580: 6B 63 30 34 00 80 01 0C  07 02 3A 10 26 80 80 B4  kc04......:.&...
0590: 05 52 03 80 14 60 04 01  25 60 04 01 72 6D 30 34  .R...`..%`..rm04
05A0: 45 03 80 14 60 04 01 25  60 04 01 6B 63 30 34 00  E...`..%`..kc04.
05B0: 80 01 0C 07 02 3A 10 27  80 80 DF 05 52 03 80 15  .....:.'....R...
05C0: 60 04 01 25 60 04 01 72  6D 30 34 45 03 80 15 60  `..%`..rm04E...`
05D0: 04 01 25 60 04 01 6B 63  30 34 00 80 01 0C 07 02  ..%`..kc04......
05E0: 3A 10 28 80 80 0A 06 52  03 80 16 60 04 01 25 60  :.(....R...`..%`
05F0: 04 01 72 6D 30 34 45 03  80 16 60 04 01 25 60 04  ..rm04E...`..%`.
0600: 01 6B 63 30 34 00 80 01  0C 07 02 3A 10 29 80 80  .kc04......:.)..
0610: 35 06 52 03 80 17 60 04  01 25 60 04 01 72 6D 30  5.R...`..%`..rm0
0620: 34 45 03 80 17 60 04 01  25 60 04 01 6B 63 30 34  4E...`..%`..kc04
0630: 00 80 01 0C 07 02 3A 10  2A 80 80 60 06 52 03 80  ......:.*..`.R..
0640: 18 60 04 01 25 60 04 01  72 6D 30 34 45 03 80 18  .`..%`..rm04E...
0650: 60 04 01 25 60 04 01 6B  63 30 34 00 80 01 0C 07  `..%`..kc04.....
0660: 02 3A 10 2B 80 80 8B 06  52 03 80 24 60 04 01 24  .:.+....R..$`..$
0670: 60 04 01 70 63 30 30 45  03 80 24 60 04 01 24 60  `..pc00E..$`..$`
0680: 04 01 6B 70 30 30 00 80  01 0C 07 02 3A 10 2C 80  ..kp00......:.,.
0690: 80 B6 06 52 03 80 24 60  04 01 24 60 04 01 70 63  ...R..$`..$`..pc
06A0: 30 31 45 03 80 24 60 04  01 24 60 04 01 6B 70 30  01E..$`..$`..kp0
06B0: 31 00 80 01 0C 07 02 3A  10 2D 80 80 E1 06 52 03  1......:.-....R.
06C0: 80 24 60 04 01 24 60 04  01 70 63 30 32 45 03 80  .$`..$`..pc02E..
06D0: 24 60 04 01 24 60 04 01  6B 70 30 32 00 80 01 0C  $`..$`..kp02....
06E0: 07 02 3A 10 2E 80 80 0C  07 52 03 80 24 60 04 01  ..:......R..$`..
06F0: 24 60 04 01 70 63 30 33  45 03 80 24 60 04 01 24  $`..pc03E..$`..$
0700: 60 04 01 6B 70 30 33 00  80 01 0C 07 00           `..kp03......   
```

#### Opcodes

```
  0: 0x0006 [0x02] IF !(Work_Zone[58] == 0*) GOTO 0x0020
  1: 0x000E [0x52] END_LOAD_SCHEDULER: End scheduler "s138" with entities [Unnamed NPC (ID: 17063951/0x0104600F), Unnamed NPC (ID: 17063951/0x0104600F)], work=191*
  2: 0x001D [0x01] GOTO 0x070C
  3: 0x0020 [0x02] IF !(Work_Zone[58] == 1*) GOTO 0x004B
  4: 0x0028 [0x52] END_LOAD_SCHEDULER: End scheduler "rm01" with entities [cameraA (ID: 17063972/0x01046024), Unnamed NPC (ID: 17063953/0x01046011)], work=294*
  5: 0x0037 [0x45] LOAD_SCHEDULED_TASK: Load scheduler "kc01" with entities [cameraA (ID: 17063972/0x01046024), Unnamed NPC (ID: 17063953/0x01046011)], work=[294*, 0*]
  6: 0x0048 [0x01] GOTO 0x070C
  7: 0x004B [0x02] IF !(Work_Zone[58] == 2*) GOTO 0x0076
  8: 0x0053 [0x52] END_LOAD_SCHEDULER: End scheduler "rm01" with entities [cameraA (ID: 17063972/0x01046024), Unnamed NPC (ID: 17063954/0x01046012)], work=294*
  9: 0x0062 [0x45] LOAD_SCHEDULED_TASK: Load scheduler "kc01" with entities [cameraA (ID: 17063972/0x01046024), Unnamed NPC (ID: 17063954/0x01046012)], work=[294*, 0*]
 10: 0x0073 [0x01] GOTO 0x070C
 11: 0x0076 [0x02] IF !(Work_Zone[58] == 3*) GOTO 0x00A1
 12: 0x007E [0x52] END_LOAD_SCHEDULER: End scheduler "rm01" with entities [cameraA (ID: 17063972/0x01046024), Unnamed NPC (ID: 17063955/0x01046013)], work=294*
 13: 0x008D [0x45] LOAD_SCHEDULED_TASK: Load scheduler "kc01" with entities [cameraA (ID: 17063972/0x01046024), Unnamed NPC (ID: 17063955/0x01046013)], work=[294*, 0*]
 14: 0x009E [0x01] GOTO 0x070C
 15: 0x00A1 [0x02] IF !(Work_Zone[58] == 4*) GOTO 0x00CC
 16: 0x00A9 [0x52] END_LOAD_SCHEDULER: End scheduler "rm01" with entities [cameraA (ID: 17063972/0x01046024), Unnamed NPC (ID: 17063956/0x01046014)], work=294*
 17: 0x00B8 [0x45] LOAD_SCHEDULED_TASK: Load scheduler "kc01" with entities [cameraA (ID: 17063972/0x01046024), Unnamed NPC (ID: 17063956/0x01046014)], work=[294*, 0*]
 18: 0x00C9 [0x01] GOTO 0x070C
 19: 0x00CC [0x02] IF !(Work_Zone[58] == 5*) GOTO 0x00F7
 20: 0x00D4 [0x52] END_LOAD_SCHEDULER: End scheduler "rm01" with entities [cameraA (ID: 17063972/0x01046024), Unnamed NPC (ID: 17063957/0x01046015)], work=294*
 21: 0x00E3 [0x45] LOAD_SCHEDULED_TASK: Load scheduler "kc01" with entities [cameraA (ID: 17063972/0x01046024), Unnamed NPC (ID: 17063957/0x01046015)], work=[294*, 0*]
 22: 0x00F4 [0x01] GOTO 0x070C
 23: 0x00F7 [0x02] IF !(Work_Zone[58] == 6*) GOTO 0x0122
 24: 0x00FF [0x52] END_LOAD_SCHEDULER: End scheduler "rm01" with entities [cameraA (ID: 17063972/0x01046024), Unnamed NPC (ID: 17063958/0x01046016)], work=294*
 25: 0x010E [0x45] LOAD_SCHEDULED_TASK: Load scheduler "kc01" with entities [cameraA (ID: 17063972/0x01046024), Unnamed NPC (ID: 17063958/0x01046016)], work=[294*, 0*]
 26: 0x011F [0x01] GOTO 0x070C
 27: 0x0122 [0x02] IF !(Work_Zone[58] == 7*) GOTO 0x014D
 28: 0x012A [0x52] END_LOAD_SCHEDULER: End scheduler "rm01" with entities [cameraA (ID: 17063972/0x01046024), Unnamed NPC (ID: 17063959/0x01046017)], work=294*
 29: 0x0139 [0x45] LOAD_SCHEDULED_TASK: Load scheduler "kc01" with entities [cameraA (ID: 17063972/0x01046024), Unnamed NPC (ID: 17063959/0x01046017)], work=[294*, 0*]
 30: 0x014A [0x01] GOTO 0x070C
 31: 0x014D [0x02] IF !(Work_Zone[58] == 8*) GOTO 0x0178
 32: 0x0155 [0x52] END_LOAD_SCHEDULER: End scheduler "rm01" with entities [cameraA (ID: 17063972/0x01046024), Unnamed NPC (ID: 17063960/0x01046018)], work=294*
 33: 0x0164 [0x45] LOAD_SCHEDULED_TASK: Load scheduler "kc01" with entities [cameraA (ID: 17063972/0x01046024), Unnamed NPC (ID: 17063960/0x01046018)], work=[294*, 0*]
 34: 0x0175 [0x01] GOTO 0x070C
 35: 0x0178 [0x02] IF !(Work_Zone[58] == 11*) GOTO 0x01A3
 36: 0x0180 [0x52] END_LOAD_SCHEDULER: End scheduler "rm00" with entities [Unnamed NPC (ID: 17063953/0x01046011), cameraA (ID: 17063972/0x01046024)], work=294*
 37: 0x018F [0x45] LOAD_SCHEDULED_TASK: Load scheduler "kc00" with entities [Unnamed NPC (ID: 17063953/0x01046011), cameraB (ID: 17063973/0x01046025)], work=[294*, 0*]
 38: 0x01A0 [0x01] GOTO 0x070C
 39: 0x01A3 [0x02] IF !(Work_Zone[58] == 12*) GOTO 0x01CE
 40: 0x01AB [0x52] END_LOAD_SCHEDULER: End scheduler "rm00" with entities [Unnamed NPC (ID: 17063954/0x01046012), cameraA (ID: 17063972/0x01046024)], work=294*
 41: 0x01BA [0x45] LOAD_SCHEDULED_TASK: Load scheduler "kc00" with entities [Unnamed NPC (ID: 17063954/0x01046012), cameraB (ID: 17063973/0x01046025)], work=[294*, 0*]
 42: 0x01CB [0x01] GOTO 0x070C
 43: 0x01CE [0x02] IF !(Work_Zone[58] == 13*) GOTO 0x01F9
 44: 0x01D6 [0x52] END_LOAD_SCHEDULER: End scheduler "rm00" with entities [Unnamed NPC (ID: 17063955/0x01046013), cameraA (ID: 17063972/0x01046024)], work=294*
 45: 0x01E5 [0x45] LOAD_SCHEDULED_TASK: Load scheduler "kc00" with entities [Unnamed NPC (ID: 17063955/0x01046013), cameraB (ID: 17063973/0x01046025)], work=[294*, 0*]
 46: 0x01F6 [0x01] GOTO 0x070C
 47: 0x01F9 [0x02] IF !(Work_Zone[58] == 14*) GOTO 0x0224
 48: 0x0201 [0x52] END_LOAD_SCHEDULER: End scheduler "rm00" with entities [Unnamed NPC (ID: 17063956/0x01046014), cameraA (ID: 17063972/0x01046024)], work=294*
 49: 0x0210 [0x45] LOAD_SCHEDULED_TASK: Load scheduler "kc00" with entities [Unnamed NPC (ID: 17063956/0x01046014), cameraB (ID: 17063973/0x01046025)], work=[294*, 0*]
 50: 0x0221 [0x01] GOTO 0x070C
 51: 0x0224 [0x02] IF !(Work_Zone[58] == 15*) GOTO 0x024F
 52: 0x022C [0x52] END_LOAD_SCHEDULER: End scheduler "rm00" with entities [Unnamed NPC (ID: 17063957/0x01046015), cameraA (ID: 17063972/0x01046024)], work=294*
 53: 0x023B [0x45] LOAD_SCHEDULED_TASK: Load scheduler "kc00" with entities [Unnamed NPC (ID: 17063957/0x01046015), cameraB (ID: 17063973/0x01046025)], work=[294*, 0*]
 54: 0x024C [0x01] GOTO 0x070C
 55: 0x024F [0x02] IF !(Work_Zone[58] == 16*) GOTO 0x027A
 56: 0x0257 [0x52] END_LOAD_SCHEDULER: End scheduler "rm00" with entities [Unnamed NPC (ID: 17063958/0x01046016), cameraA (ID: 17063972/0x01046024)], work=294*
 57: 0x0266 [0x45] LOAD_SCHEDULED_TASK: Load scheduler "kc00" with entities [Unnamed NPC (ID: 17063958/0x01046016), cameraB (ID: 17063973/0x01046025)], work=[294*, 0*]
 58: 0x0277 [0x01] GOTO 0x070C
 59: 0x027A [0x02] IF !(Work_Zone[58] == 17*) GOTO 0x02A5
 60: 0x0282 [0x52] END_LOAD_SCHEDULER: End scheduler "rm00" with entities [Unnamed NPC (ID: 17063959/0x01046017), cameraA (ID: 17063972/0x01046024)], work=294*
 61: 0x0291 [0x45] LOAD_SCHEDULED_TASK: Load scheduler "kc00" with entities [Unnamed NPC (ID: 17063959/0x01046017), cameraB (ID: 17063973/0x01046025)], work=[294*, 0*]
 62: 0x02A2 [0x01] GOTO 0x070C
 63: 0x02A5 [0x02] IF !(Work_Zone[58] == 18*) GOTO 0x02D0
 64: 0x02AD [0x52] END_LOAD_SCHEDULER: End scheduler "rm00" with entities [Unnamed NPC (ID: 17063960/0x01046018), cameraA (ID: 17063972/0x01046024)], work=294*
 65: 0x02BC [0x45] LOAD_SCHEDULED_TASK: Load scheduler "kc00" with entities [Unnamed NPC (ID: 17063960/0x01046018), cameraB (ID: 17063973/0x01046025)], work=[294*, 0*]
 66: 0x02CD [0x01] GOTO 0x070C
 67: 0x02D0 [0x02] IF !(Work_Zone[58] == 21*) GOTO 0x02EC
 68: 0x02D8 [0x45] LOAD_SCHEDULED_TASK: Load scheduler "kc02" with entities [Unnamed NPC (ID: 17063953/0x01046011), cameraB (ID: 17063973/0x01046025)], work=[294*, 0*]
 69: 0x02E9 [0x01] GOTO 0x070C
 70: 0x02EC [0x02] IF !(Work_Zone[58] == 22*) GOTO 0x0308
 71: 0x02F4 [0x45] LOAD_SCHEDULED_TASK: Load scheduler "kc02" with entities [Unnamed NPC (ID: 17063954/0x01046012), cameraB (ID: 17063973/0x01046025)], work=[294*, 0*]
 72: 0x0305 [0x01] GOTO 0x070C
 73: 0x0308 [0x02] IF !(Work_Zone[58] == 23*) GOTO 0x0324
 74: 0x0310 [0x45] LOAD_SCHEDULED_TASK: Load scheduler "kc02" with entities [Unnamed NPC (ID: 17063955/0x01046013), cameraB (ID: 17063973/0x01046025)], work=[294*, 0*]
 75: 0x0321 [0x01] GOTO 0x070C
 76: 0x0324 [0x02] IF !(Work_Zone[58] == 24*) GOTO 0x0340
 77: 0x032C [0x45] LOAD_SCHEDULED_TASK: Load scheduler "kc02" with entities [Unnamed NPC (ID: 17063956/0x01046014), cameraB (ID: 17063973/0x01046025)], work=[294*, 0*]
 78: 0x033D [0x01] GOTO 0x070C
 79: 0x0340 [0x02] IF !(Work_Zone[58] == 25*) GOTO 0x035C
 80: 0x0348 [0x45] LOAD_SCHEDULED_TASK: Load scheduler "kc02" with entities [Unnamed NPC (ID: 17063957/0x01046015), cameraB (ID: 17063973/0x01046025)], work=[294*, 0*]
 81: 0x0359 [0x01] GOTO 0x070C
 82: 0x035C [0x02] IF !(Work_Zone[58] == 26*) GOTO 0x0378
 83: 0x0364 [0x45] LOAD_SCHEDULED_TASK: Load scheduler "kc02" with entities [Unnamed NPC (ID: 17063958/0x01046016), cameraB (ID: 17063973/0x01046025)], work=[294*, 0*]
 84: 0x0375 [0x01] GOTO 0x070C
 85: 0x0378 [0x02] IF !(Work_Zone[58] == 27*) GOTO 0x0394
 86: 0x0380 [0x45] LOAD_SCHEDULED_TASK: Load scheduler "kc02" with entities [Unnamed NPC (ID: 17063959/0x01046017), cameraB (ID: 17063973/0x01046025)], work=[294*, 0*]
 87: 0x0391 [0x01] GOTO 0x070C
 88: 0x0394 [0x02] IF !(Work_Zone[58] == 28*) GOTO 0x03B0
 89: 0x039C [0x45] LOAD_SCHEDULED_TASK: Load scheduler "kc02" with entities [Unnamed NPC (ID: 17063960/0x01046018), cameraB (ID: 17063973/0x01046025)], work=[294*, 0*]
 90: 0x03AD [0x01] GOTO 0x070C
 91: 0x03B0 [0x02] IF !(Work_Zone[58] == 31*) GOTO 0x03DB
 92: 0x03B8 [0x52] END_LOAD_SCHEDULER: End scheduler "rm03" with entities [Unnamed NPC (ID: 17063953/0x01046011), Unnamed NPC (ID: 17063953/0x01046011)], work=294*
 93: 0x03C7 [0x45] LOAD_SCHEDULED_TASK: Load scheduler "kc03" with entities [Unnamed NPC (ID: 17063953/0x01046011), Unnamed NPC (ID: 17063953/0x01046011)], work=[294*, 0*]
 94: 0x03D8 [0x01] GOTO 0x070C
 95: 0x03DB [0x02] IF !(Work_Zone[58] == 32*) GOTO 0x0406
 96: 0x03E3 [0x52] END_LOAD_SCHEDULER: End scheduler "rm03" with entities [Unnamed NPC (ID: 17063954/0x01046012), Unnamed NPC (ID: 17063954/0x01046012)], work=294*
 97: 0x03F2 [0x45] LOAD_SCHEDULED_TASK: Load scheduler "kc03" with entities [Unnamed NPC (ID: 17063954/0x01046012), Unnamed NPC (ID: 17063954/0x01046012)], work=[294*, 0*]
 98: 0x0403 [0x01] GOTO 0x070C
 99: 0x0406 [0x02] IF !(Work_Zone[58] == 33*) GOTO 0x0431
100: 0x040E [0x52] END_LOAD_SCHEDULER: End scheduler "rm03" with entities [Unnamed NPC (ID: 17063955/0x01046013), Unnamed NPC (ID: 17063955/0x01046013)], work=294*
101: 0x041D [0x45] LOAD_SCHEDULED_TASK: Load scheduler "kc03" with entities [Unnamed NPC (ID: 17063955/0x01046013), Unnamed NPC (ID: 17063955/0x01046013)], work=[294*, 0*]
102: 0x042E [0x01] GOTO 0x070C
103: 0x0431 [0x02] IF !(Work_Zone[58] == 34*) GOTO 0x045C
104: 0x0439 [0x52] END_LOAD_SCHEDULER: End scheduler "rm03" with entities [Unnamed NPC (ID: 17063956/0x01046014), Unnamed NPC (ID: 17063956/0x01046014)], work=294*
105: 0x0448 [0x45] LOAD_SCHEDULED_TASK: Load scheduler "kc03" with entities [Unnamed NPC (ID: 17063956/0x01046014), Unnamed NPC (ID: 17063956/0x01046014)], work=[294*, 0*]
106: 0x0459 [0x01] GOTO 0x070C
107: 0x045C [0x02] IF !(Work_Zone[58] == 35*) GOTO 0x0487
108: 0x0464 [0x52] END_LOAD_SCHEDULER: End scheduler "rm03" with entities [Unnamed NPC (ID: 17063957/0x01046015), Unnamed NPC (ID: 17063957/0x01046015)], work=294*
109: 0x0473 [0x45] LOAD_SCHEDULED_TASK: Load scheduler "kc03" with entities [Unnamed NPC (ID: 17063957/0x01046015), Unnamed NPC (ID: 17063957/0x01046015)], work=[294*, 0*]
110: 0x0484 [0x01] GOTO 0x070C
111: 0x0487 [0x02] IF !(Work_Zone[58] == 36*) GOTO 0x04B2
112: 0x048F [0x52] END_LOAD_SCHEDULER: End scheduler "rm03" with entities [Unnamed NPC (ID: 17063958/0x01046016), Unnamed NPC (ID: 17063958/0x01046016)], work=294*
113: 0x049E [0x45] LOAD_SCHEDULED_TASK: Load scheduler "kc03" with entities [Unnamed NPC (ID: 17063958/0x01046016), Unnamed NPC (ID: 17063958/0x01046016)], work=[294*, 0*]
114: 0x04AF [0x01] GOTO 0x070C
115: 0x04B2 [0x02] IF !(Work_Zone[58] == 37*) GOTO 0x04DD
116: 0x04BA [0x52] END_LOAD_SCHEDULER: End scheduler "rm03" with entities [Unnamed NPC (ID: 17063959/0x01046017), Unnamed NPC (ID: 17063959/0x01046017)], work=294*
117: 0x04C9 [0x45] LOAD_SCHEDULED_TASK: Load scheduler "kc03" with entities [Unnamed NPC (ID: 17063959/0x01046017), Unnamed NPC (ID: 17063959/0x01046017)], work=[294*, 0*]
118: 0x04DA [0x01] GOTO 0x070C
119: 0x04DD [0x02] IF !(Work_Zone[58] == 38*) GOTO 0x0508
120: 0x04E5 [0x52] END_LOAD_SCHEDULER: End scheduler "rm03" with entities [Unnamed NPC (ID: 17063960/0x01046018), Unnamed NPC (ID: 17063960/0x01046018)], work=294*
121: 0x04F4 [0x45] LOAD_SCHEDULED_TASK: Load scheduler "kc03" with entities [Unnamed NPC (ID: 17063960/0x01046018), Unnamed NPC (ID: 17063960/0x01046018)], work=[294*, 0*]
122: 0x0505 [0x01] GOTO 0x070C
123: 0x0508 [0x02] IF !(Work_Zone[58] == 41*) GOTO 0x0533
124: 0x0510 [0x52] END_LOAD_SCHEDULER: End scheduler "rm04" with entities [Unnamed NPC (ID: 17063953/0x01046011), cameraB (ID: 17063973/0x01046025)], work=294*
125: 0x051F [0x45] LOAD_SCHEDULED_TASK: Load scheduler "kc04" with entities [Unnamed NPC (ID: 17063953/0x01046011), cameraB (ID: 17063973/0x01046025)], work=[294*, 0*]
126: 0x0530 [0x01] GOTO 0x070C
127: 0x0533 [0x02] IF !(Work_Zone[58] == 42*) GOTO 0x055E
128: 0x053B [0x52] END_LOAD_SCHEDULER: End scheduler "rm04" with entities [Unnamed NPC (ID: 17063954/0x01046012), cameraB (ID: 17063973/0x01046025)], work=294*
129: 0x054A [0x45] LOAD_SCHEDULED_TASK: Load scheduler "kc04" with entities [Unnamed NPC (ID: 17063954/0x01046012), cameraB (ID: 17063973/0x01046025)], work=[294*, 0*]
130: 0x055B [0x01] GOTO 0x070C
131: 0x055E [0x02] IF !(Work_Zone[58] == 43*) GOTO 0x0589
132: 0x0566 [0x52] END_LOAD_SCHEDULER: End scheduler "rm04" with entities [Unnamed NPC (ID: 17063955/0x01046013), cameraB (ID: 17063973/0x01046025)], work=294*
133: 0x0575 [0x45] LOAD_SCHEDULED_TASK: Load scheduler "kc04" with entities [Unnamed NPC (ID: 17063955/0x01046013), cameraB (ID: 17063973/0x01046025)], work=[294*, 0*]
134: 0x0586 [0x01] GOTO 0x070C
135: 0x0589 [0x02] IF !(Work_Zone[58] == 44*) GOTO 0x05B4
136: 0x0591 [0x52] END_LOAD_SCHEDULER: End scheduler "rm04" with entities [Unnamed NPC (ID: 17063956/0x01046014), cameraB (ID: 17063973/0x01046025)], work=294*
137: 0x05A0 [0x45] LOAD_SCHEDULED_TASK: Load scheduler "kc04" with entities [Unnamed NPC (ID: 17063956/0x01046014), cameraB (ID: 17063973/0x01046025)], work=[294*, 0*]
138: 0x05B1 [0x01] GOTO 0x070C
139: 0x05B4 [0x02] IF !(Work_Zone[58] == 45*) GOTO 0x05DF
140: 0x05BC [0x52] END_LOAD_SCHEDULER: End scheduler "rm04" with entities [Unnamed NPC (ID: 17063957/0x01046015), cameraB (ID: 17063973/0x01046025)], work=294*
141: 0x05CB [0x45] LOAD_SCHEDULED_TASK: Load scheduler "kc04" with entities [Unnamed NPC (ID: 17063957/0x01046015), cameraB (ID: 17063973/0x01046025)], work=[294*, 0*]
142: 0x05DC [0x01] GOTO 0x070C
143: 0x05DF [0x02] IF !(Work_Zone[58] == 46*) GOTO 0x060A
144: 0x05E7 [0x52] END_LOAD_SCHEDULER: End scheduler "rm04" with entities [Unnamed NPC (ID: 17063958/0x01046016), cameraB (ID: 17063973/0x01046025)], work=294*
145: 0x05F6 [0x45] LOAD_SCHEDULED_TASK: Load scheduler "kc04" with entities [Unnamed NPC (ID: 17063958/0x01046016), cameraB (ID: 17063973/0x01046025)], work=[294*, 0*]
146: 0x0607 [0x01] GOTO 0x070C
147: 0x060A [0x02] IF !(Work_Zone[58] == 47*) GOTO 0x0635
148: 0x0612 [0x52] END_LOAD_SCHEDULER: End scheduler "rm04" with entities [Unnamed NPC (ID: 17063959/0x01046017), cameraB (ID: 17063973/0x01046025)], work=294*
149: 0x0621 [0x45] LOAD_SCHEDULED_TASK: Load scheduler "kc04" with entities [Unnamed NPC (ID: 17063959/0x01046017), cameraB (ID: 17063973/0x01046025)], work=[294*, 0*]
150: 0x0632 [0x01] GOTO 0x070C
151: 0x0635 [0x02] IF !(Work_Zone[58] == 48*) GOTO 0x0660
152: 0x063D [0x52] END_LOAD_SCHEDULER: End scheduler "rm04" with entities [Unnamed NPC (ID: 17063960/0x01046018), cameraB (ID: 17063973/0x01046025)], work=294*
153: 0x064C [0x45] LOAD_SCHEDULED_TASK: Load scheduler "kc04" with entities [Unnamed NPC (ID: 17063960/0x01046018), cameraB (ID: 17063973/0x01046025)], work=[294*, 0*]
154: 0x065D [0x01] GOTO 0x070C
155: 0x0660 [0x02] IF !(Work_Zone[58] == 50*) GOTO 0x068B
156: 0x0668 [0x52] END_LOAD_SCHEDULER: End scheduler "pc00" with entities [cameraA (ID: 17063972/0x01046024), cameraA (ID: 17063972/0x01046024)], work=294*
157: 0x0677 [0x45] LOAD_SCHEDULED_TASK: Load scheduler "kp00" with entities [cameraA (ID: 17063972/0x01046024), cameraA (ID: 17063972/0x01046024)], work=[294*, 0*]
158: 0x0688 [0x01] GOTO 0x070C
159: 0x068B [0x02] IF !(Work_Zone[58] == 51*) GOTO 0x06B6
160: 0x0693 [0x52] END_LOAD_SCHEDULER: End scheduler "pc01" with entities [cameraA (ID: 17063972/0x01046024), cameraA (ID: 17063972/0x01046024)], work=294*
161: 0x06A2 [0x45] LOAD_SCHEDULED_TASK: Load scheduler "kp01" with entities [cameraA (ID: 17063972/0x01046024), cameraA (ID: 17063972/0x01046024)], work=[294*, 0*]
162: 0x06B3 [0x01] GOTO 0x070C
163: 0x06B6 [0x02] IF !(Work_Zone[58] == 52*) GOTO 0x06E1
164: 0x06BE [0x52] END_LOAD_SCHEDULER: End scheduler "pc02" with entities [cameraA (ID: 17063972/0x01046024), cameraA (ID: 17063972/0x01046024)], work=294*
165: 0x06CD [0x45] LOAD_SCHEDULED_TASK: Load scheduler "kp02" with entities [cameraA (ID: 17063972/0x01046024), cameraA (ID: 17063972/0x01046024)], work=[294*, 0*]
166: 0x06DE [0x01] GOTO 0x070C
167: 0x06E1 [0x02] IF !(Work_Zone[58] == 53*) GOTO 0x070C
168: 0x06E9 [0x52] END_LOAD_SCHEDULER: End scheduler "pc03" with entities [cameraA (ID: 17063972/0x01046024), cameraA (ID: 17063972/0x01046024)], work=294*
169: 0x06F8 [0x45] LOAD_SCHEDULED_TASK: Load scheduler "kp03" with entities [cameraA (ID: 17063972/0x01046024), cameraA (ID: 17063972/0x01046024)], work=[294*, 0*]
170: 0x0709 [0x01] GOTO 0x070C

SUBROUTINE_070C:
171: 0x070C [0x00] END_REQSTACK()
```

### Event 65535.3

#### Metadata

| Field        | Value     |
|--------------|-----------|
| Entrypoint   | 0x070D    |
| Data Size    | 741 bytes |
| Instructions | 96        |

```
      00 01 02 03 04 05 06 07  08 09 0A 0B 0C 0D 0E 0F
      -- -- -- -- -- -- -- --  -- -- -- -- -- -- -- --
0700:                                         02 29 10               .).
0710: 00 80 80 25 07 BA 24 60  04 01 2F 80 30 80 31 80  ...%..$`../.0.1.
0720: 32 80 01 F1 09 02 29 10  02 80 80 3D 07 BA 24 60  2.....)....=..$`
0730: 04 01 33 80 34 80 35 80  36 80 01 F1 09 02 29 10  ..3.4.5.6.....).
0740: 04 80 80 55 07 BA 24 60  04 01 37 80 38 80 39 80  ...U..$`..7.8.9.
0750: 3A 80 01 F1 09 02 29 10  05 80 80 6D 07 BA 24 60  :.....)....m..$`
0760: 04 01 3B 80 3C 80 3D 80  3E 80 01 F1 09 02 29 10  ..;.<.=.>.....).
0770: 06 80 80 85 07 BA 24 60  04 01 3F 80 40 80 41 80  ......$`..?.@.A.
0780: 42 80 01 F1 09 02 29 10  07 80 80 9D 07 BA 24 60  B.....).......$`
0790: 04 01 43 80 44 80 45 80  46 80 01 F1 09 02 29 10  ..C.D.E.F.....).
07A0: 08 80 80 B5 07 BA 24 60  04 01 47 80 48 80 49 80  ......$`..G.H.I.
07B0: 4A 80 01 F1 09 02 29 10  09 80 80 CD 07 BA 24 60  J.....).......$`
07C0: 04 01 4B 80 4C 80 4D 80  4E 80 01 F1 09 02 29 10  ..K.L.M.N.....).
07D0: 0A 80 80 E5 07 BA 24 60  04 01 4F 80 50 80 51 80  ......$`..O.P.Q.
07E0: 52 80 01 F1 09 02 29 10  53 80 80 FD 07 BA 24 60  R.....).S.....$`
07F0: 04 01 54 80 55 80 56 80  57 80 01 F1 09 02 29 10  ..T.U.V.W.....).
0800: 58 80 80 15 08 BA 24 60  04 01 59 80 5A 80 5B 80  X.....$`..Y.Z.[.
0810: 5C 80 01 F1 09 02 29 10  0B 80 80 2D 08 BA 24 60  \.....)....-..$`
0820: 04 01 5D 80 5E 80 5F 80  5C 80 01 F1 09 02 29 10  ..].^._.\.....).
0830: 0C 80 80 45 08 BA 24 60  04 01 60 80 61 80 62 80  ...E..$`..`.a.b.
0840: 63 80 01 F1 09 02 29 10  0D 80 80 5D 08 BA 24 60  c.....)....]..$`
0850: 04 01 64 80 65 80 66 80  67 80 01 F1 09 02 29 10  ..d.e.f.g.....).
0860: 0E 80 80 75 08 BA 24 60  04 01 68 80 69 80 6A 80  ...u..$`..h.i.j.
0870: 6B 80 01 F1 09 02 29 10  0F 80 80 8D 08 BA 24 60  k.....).......$`
0880: 04 01 6C 80 6D 80 6E 80  6F 80 01 F1 09 02 29 10  ..l.m.n.o.....).
0890: 10 80 80 A5 08 BA 24 60  04 01 70 80 71 80 72 80  ......$`..p.q.r.
08A0: 73 80 01 F1 09 02 29 10  11 80 80 B0 08 01 F1 09  s.....).........
08B0: 02 29 10 12 80 80 BB 08  01 F1 09 02 29 10 74 80  .)..........).t.
08C0: 80 C6 08 01 F1 09 02 29  10 75 80 80 DE 08 BA 24  .......).u.....$
08D0: 60 04 01 76 80 77 80 78  80 79 80 01 F1 09 02 29  `..v.w.x.y.....)
08E0: 10 13 80 80 F6 08 BA 24  60 04 01 7A 80 7B 80 7C  .......$`..z.{.|
08F0: 80 7D 80 01 F1 09 02 29  10 14 80 80 0E 09 BA 24  .}.....).......$
0900: 60 04 01 7E 80 7F 80 80  80 81 80 01 F1 09 02 29  `..~...........)
0910: 10 15 80 80 26 09 BA 24  60 04 01 82 80 83 80 84  ....&..$`.......
0920: 80 85 80 01 F1 09 02 29  10 16 80 80 3E 09 BA 24  .......)....>..$
0930: 60 04 01 86 80 87 80 88  80 89 80 01 F1 09 02 29  `..............)
0940: 10 17 80 80 56 09 BA 24  60 04 01 8A 80 8B 80 8C  ....V..$`.......
0950: 80 8D 80 01 F1 09 02 29  10 18 80 80 6E 09 BA 24  .......)....n..$
0960: 60 04 01 8E 80 8F 80 90  80 91 80 01 F1 09 02 29  `..............)
0970: 10 19 80 80 86 09 BA 24  60 04 01 92 80 93 80 94  .......$`.......
0980: 80 95 80 01 F1 09 02 29  10 1A 80 80 9E 09 BA 24  .......).......$
0990: 60 04 01 96 80 97 80 98  80 95 80 01 F1 09 02 29  `..............)
09A0: 10 99 80 80 B6 09 BA 24  60 04 01 9A 80 9B 80 9C  .......$`.......
09B0: 80 9D 80 01 F1 09 02 29  10 9E 80 80 CE 09 BA 24  .......).......$
09C0: 60 04 01 9F 80 A0 80 A1  80 A2 80 01 F1 09 02 29  `..............)
09D0: 10 1B 80 80 E6 09 BA 24  60 04 01 A3 80 A4 80 A5  .......$`.......
09E0: 80 A6 80 01 F1 09 02 29  10 1C 80 80 F1 09 01 F1  .......)........
09F0: 09 00                                             ..              
```

#### Opcodes

```
  0: 0x070D [0x02] IF !(Work_Zone[41] == 0*) GOTO 0x0725
  1: 0x0715 [0xBA] SET_ENTITY_POSITION(entity_id=cameraA (ID: 17063972/0x01046024), pos_x=-115.578*, pos_z=-69.992*, pos_y=-3.921*, direction=74.8°*)
  2: 0x0722 [0x01] GOTO 0x09F1
  3: 0x0725 [0x02] IF !(Work_Zone[41] == 1*) GOTO 0x073D
  4: 0x072D [0xBA] SET_ENTITY_POSITION(entity_id=cameraA (ID: 17063972/0x01046024), pos_x=-145.897*, pos_z=-87.929*, pos_y=-4.924*, direction=292.0°*)
  5: 0x073A [0x01] GOTO 0x09F1
  6: 0x073D [0x02] IF !(Work_Zone[41] == 2*) GOTO 0x0755
  7: 0x0745 [0xBA] SET_ENTITY_POSITION(entity_id=cameraA (ID: 17063972/0x01046024), pos_x=-173.753*, pos_z=-70.450*, pos_y=-3.939*, direction=113.9°*)
  8: 0x0752 [0x01] GOTO 0x09F1
  9: 0x0755 [0x02] IF !(Work_Zone[41] == 3*) GOTO 0x076D
 10: 0x075D [0xBA] SET_ENTITY_POSITION(entity_id=cameraA (ID: 17063972/0x01046024), pos_x=-216.381*, pos_z=-66.029*, pos_y=-4.132*, direction=292.9°*)
 11: 0x076A [0x01] GOTO 0x09F1
 12: 0x076D [0x02] IF !(Work_Zone[41] == 4*) GOTO 0x0785
 13: 0x0775 [0xBA] SET_ENTITY_POSITION(entity_id=cameraA (ID: 17063972/0x01046024), pos_x=-236.968*, pos_z=-34.987*, pos_y=-6.200*, direction=126.9°*)
 14: 0x0782 [0x01] GOTO 0x09F1
 15: 0x0785 [0x02] IF !(Work_Zone[41] == 5*) GOTO 0x079D
 16: 0x078D [0xBA] SET_ENTITY_POSITION(entity_id=cameraA (ID: 17063972/0x01046024), pos_x=-249.898*, pos_z=-0.879*, pos_y=-6.070*, direction=84.7°*)
 17: 0x079A [0x01] GOTO 0x09F1
 18: 0x079D [0x02] IF !(Work_Zone[41] == 6*) GOTO 0x07B5
 19: 0x07A5 [0xBA] SET_ENTITY_POSITION(entity_id=cameraA (ID: 17063972/0x01046024), pos_x=-217.927*, pos_z=35.257*, pos_y=-3.948*, direction=228.6°*)
 20: 0x07B2 [0x01] GOTO 0x09F1
 21: 0x07B5 [0x02] IF !(Work_Zone[41] == 7*) GOTO 0x07CD
 22: 0x07BD [0xBA] SET_ENTITY_POSITION(entity_id=cameraA (ID: 17063972/0x01046024), pos_x=-215.414*, pos_z=67.221*, pos_y=-5.016*, direction=66.8°*)
 23: 0x07CA [0x01] GOTO 0x09F1
 24: 0x07CD [0x02] IF !(Work_Zone[41] == 8*) GOTO 0x07E5
 25: 0x07D5 [0xBA] SET_ENTITY_POSITION(entity_id=cameraA (ID: 17063972/0x01046024), pos_x=-171.506*, pos_z=66.184*, pos_y=-6.495*, direction=245.3°*)
 26: 0x07E2 [0x01] GOTO 0x09F1
 27: 0x07E5 [0x02] IF !(Work_Zone[41] == 9*) GOTO 0x07FD
 28: 0x07ED [0xBA] SET_ENTITY_POSITION(entity_id=cameraA (ID: 17063972/0x01046024), pos_x=-148.773*, pos_z=87.804*, pos_y=-4.265*, direction=123.7°*)
 29: 0x07FA [0x01] GOTO 0x09F1
 30: 0x07FD [0x02] IF !(Work_Zone[41] == 10*) GOTO 0x0815
 31: 0x0805 [0xBA] SET_ENTITY_POSITION(entity_id=cameraA (ID: 17063972/0x01046024), pos_x=-111.000*, pos_z=69.000*, pos_y=-8.648*, direction=319.0°*)
 32: 0x0812 [0x01] GOTO 0x09F1
 33: 0x0815 [0x02] IF !(Work_Zone[41] == 11*) GOTO 0x082D
 34: 0x081D [0xBA] SET_ENTITY_POSITION(entity_id=cameraA (ID: 17063972/0x01046024), pos_x=-95.013*, pos_z=67.376*, pos_y=-3.245*, direction=319.0°*)
 35: 0x082A [0x01] GOTO 0x09F1
 36: 0x082D [0x02] IF !(Work_Zone[41] == 12*) GOTO 0x0845
 37: 0x0835 [0xBA] SET_ENTITY_POSITION(entity_id=cameraA (ID: 17063972/0x01046024), pos_x=-44.915*, pos_z=68.490*, pos_y=-6.017*, direction=265.2°*)
 38: 0x0842 [0x01] GOTO 0x09F1
 39: 0x0845 [0x02] IF !(Work_Zone[41] == 13*) GOTO 0x085D
 40: 0x084D [0xBA] SET_ENTITY_POSITION(entity_id=cameraA (ID: 17063972/0x01046024), pos_x=-6.960*, pos_z=78.075*, pos_y=-4.940*, direction=350.7°*)
 41: 0x085A [0x01] GOTO 0x09F1
 42: 0x085D [0x02] IF !(Work_Zone[41] == 14*) GOTO 0x0875
 43: 0x0865 [0xBA] SET_ENTITY_POSITION(entity_id=cameraA (ID: 17063972/0x01046024), pos_x=20.240*, pos_z=70.187*, pos_y=-4.000*, direction=186.8°*)
 44: 0x0872 [0x01] GOTO 0x09F1
 45: 0x0875 [0x02] IF !(Work_Zone[41] == 15*) GOTO 0x088D
 46: 0x087D [0xBA] SET_ENTITY_POSITION(entity_id=cameraA (ID: 17063972/0x01046024), pos_x=38.071*, pos_z=86.798*, pos_y=-3.821*, direction=197.3°*)
 47: 0x088A [0x01] GOTO 0x09F1
 48: 0x088D [0x02] IF !(Work_Zone[41] == 16*) GOTO 0x08A5
 49: 0x0895 [0xBA] SET_ENTITY_POSITION(entity_id=cameraA (ID: 17063972/0x01046024), pos_x=86.171*, pos_z=85.963*, pos_y=-10.769*, direction=80.0°*)
 50: 0x08A2 [0x01] GOTO 0x09F1
 51: 0x08A5 [0x02] IF !(Work_Zone[41] == 17*) GOTO 0x08B0
 52: 0x08AD [0x01] GOTO 0x09F1
 53: 0x08B0 [0x02] IF !(Work_Zone[41] == 18*) GOTO 0x08BB
 54: 0x08B8 [0x01] GOTO 0x09F1
 55: 0x08BB [0x02] IF !(Work_Zone[41] == 19*) GOTO 0x08C6
 56: 0x08C3 [0x01] GOTO 0x09F1
 57: 0x08C6 [0x02] IF !(Work_Zone[41] == 20*) GOTO 0x08DE
 58: 0x08CE [0xBA] SET_ENTITY_POSITION(entity_id=cameraA (ID: 17063972/0x01046024), pos_x=222.604*, pos_z=31.874*, pos_y=-3.189*, direction=359.0°*)
 59: 0x08DB [0x01] GOTO 0x09F1
 60: 0x08DE [0x02] IF !(Work_Zone[41] == 21*) GOTO 0x08F6
 61: 0x08E6 [0xBA] SET_ENTITY_POSITION(entity_id=cameraA (ID: 17063972/0x01046024), pos_x=231.926*, pos_z=32.924*, pos_y=-16.929*, direction=313.4°*)
 62: 0x08F3 [0x01] GOTO 0x09F1
 63: 0x08F6 [0x02] IF !(Work_Zone[41] == 22*) GOTO 0x090E
 64: 0x08FE [0xBA] SET_ENTITY_POSITION(entity_id=cameraA (ID: 17063972/0x01046024), pos_x=230.463*, pos_z=-3.900*, pos_y=-3.867*, direction=5.9°*)
 65: 0x090B [0x01] GOTO 0x09F1
 66: 0x090E [0x02] IF !(Work_Zone[41] == 23*) GOTO 0x0926
 67: 0x0916 [0xBA] SET_ENTITY_POSITION(entity_id=cameraA (ID: 17063972/0x01046024), pos_x=237.178*, pos_z=-43.105*, pos_y=-3.875*, direction=258.3°*)
 68: 0x0923 [0x01] GOTO 0x09F1
 69: 0x0926 [0x02] IF !(Work_Zone[41] == 24*) GOTO 0x093E
 70: 0x092E [0xBA] SET_ENTITY_POSITION(entity_id=cameraA (ID: 17063972/0x01046024), pos_x=196.180*, pos_z=-37.011*, pos_y=-4.506*, direction=37.1°*)
 71: 0x093B [0x01] GOTO 0x09F1
 72: 0x093E [0x02] IF !(Work_Zone[41] == 25*) GOTO 0x0956
 73: 0x0946 [0xBA] SET_ENTITY_POSITION(entity_id=cameraA (ID: 17063972/0x01046024), pos_x=175.300*, pos_z=-88.116*, pos_y=-5.216*, direction=223.5°*)
 74: 0x0953 [0x01] GOTO 0x09F1
 75: 0x0956 [0x02] IF !(Work_Zone[41] == 26*) GOTO 0x096E
 76: 0x095E [0xBA] SET_ENTITY_POSITION(entity_id=cameraA (ID: 17063972/0x01046024), pos_x=131.000*, pos_z=-72.000*, pos_y=-6.091*, direction=357.0°*)
 77: 0x096B [0x01] GOTO 0x09F1
 78: 0x096E [0x02] IF !(Work_Zone[41] == 27*) GOTO 0x0986
 79: 0x0976 [0xBA] SET_ENTITY_POSITION(entity_id=cameraA (ID: 17063972/0x01046024), pos_x=90.000*, pos_z=-87.000*, pos_y=-6.083*, direction=32.8°*)
 80: 0x0983 [0x01] GOTO 0x09F1
 81: 0x0986 [0x02] IF !(Work_Zone[41] == 28*) GOTO 0x099E
 82: 0x098E [0xBA] SET_ENTITY_POSITION(entity_id=cameraA (ID: 17063972/0x01046024), pos_x=64.689*, pos_z=-71.914*, pos_y=-7.325*, direction=32.8°*)
 83: 0x099B [0x01] GOTO 0x09F1
 84: 0x099E [0x02] IF !(Work_Zone[41] == 29*) GOTO 0x09B6
 85: 0x09A6 [0xBA] SET_ENTITY_POSITION(entity_id=cameraA (ID: 17063972/0x01046024), pos_x=41.763*, pos_z=-73.101*, pos_y=-4.946*, direction=88.0°*)
 86: 0x09B3 [0x01] GOTO 0x09F1
 87: 0x09B6 [0x02] IF !(Work_Zone[41] == 30*) GOTO 0x09CE
 88: 0x09BE [0xBA] SET_ENTITY_POSITION(entity_id=cameraA (ID: 17063972/0x01046024), pos_x=5.921*, pos_z=-69.604*, pos_y=-3.177*, direction=101.5°*)
 89: 0x09CB [0x01] GOTO 0x09F1
 90: 0x09CE [0x02] IF !(Work_Zone[41] == 31*) GOTO 0x09E6
 91: 0x09D6 [0xBA] SET_ENTITY_POSITION(entity_id=cameraA (ID: 17063972/0x01046024), pos_x=-40.834*, pos_z=-89.656*, pos_y=-6.524*, direction=99.6°*)
 92: 0x09E3 [0x01] GOTO 0x09F1
 93: 0x09E6 [0x02] IF !(Work_Zone[41] == 32*) GOTO 0x09F1
 94: 0x09EE [0x01] GOTO 0x09F1

SUBROUTINE_09F1:
 95: 0x09F1 [0x00] END_REQSTACK()
```

### Event 65535.4

#### Metadata

| Field        | Value    |
|--------------|----------|
| Entrypoint   | 0x09F2   |
| Data Size    | 36 bytes |
| Instructions | 3        |

```
      00 01 02 03 04 05 06 07  08 09 0A 0B 0C 0D 0E 0F
      -- -- -- -- -- -- -- --  -- -- -- -- -- -- -- --
09F0:       45 03 80 27 60 04  01 24 60 04 01 63 68 6F    E..'`..$`..cho
0A00: 30 00 80 55 03 80 27 60  04 01 24 60 04 01 63 68  0..U..'`..$`..ch
0A10: 6F 30 01 F2 09 00                                 o0....          
```

#### Opcodes

```
  0: 0x09F2 [0x45] LOAD_SCHEDULED_TASK: Load scheduler "cho0" with entities [Unnamed NPC (ID: 17063975/0x01046027), cameraA (ID: 17063972/0x01046024)], work=[294*, 0*]
  1: 0x0A03 [0x55] WAIT_LOAD_SCHEDULER: Wait for scheduler "cho0" with entities [Unnamed NPC (ID: 17063975/0x01046027), cameraA (ID: 17063972/0x01046024)], work=294*
  2: 0x0A12 [0x01] GOTO 0x09F2
```

#### Data or dead code:

```
# Dead code (unreachable instructions):
     0x0A15 [0x00] END_REQSTACK()
```

### Event 65535.5

#### Metadata

| Field        | Value    |
|--------------|----------|
| Entrypoint   | 0x0A16   |
| Data Size    | 33 bytes |
| Instructions | 3        |

```
      00 01 02 03 04 05 06 07  08 09 0A 0B 0C 0D 0E 0F
      -- -- -- -- -- -- -- --  -- -- -- -- -- -- -- --
0A10:                   52 03  80 27 60 04 01 24 60 04        R..'`..$`.
0A20: 01 63 68 6F 30 45 03 80  27 60 04 01 24 60 04 01  .cho0E..'`..$`..
0A30: 6B 63 63 30 00 80 00                              kcc0...         
```

#### Opcodes

```
  0: 0x0A16 [0x52] END_LOAD_SCHEDULER: End scheduler "cho0" with entities [Unnamed NPC (ID: 17063975/0x01046027), cameraA (ID: 17063972/0x01046024)], work=294*
  1: 0x0A25 [0x45] LOAD_SCHEDULED_TASK: Load scheduler "kcc0" with entities [Unnamed NPC (ID: 17063975/0x01046027), cameraA (ID: 17063972/0x01046024)], work=[294*, 0*]
  2: 0x0A36 [0x00] END_REQSTACK()
```

### Event 212

#### Metadata

| Field        | Value   |
|--------------|---------|
| Entrypoint   | 0x0A37  |
| Data Size    | 1 bytes |
| Instructions | 1       |

```
      00 01 02 03 04 05 06 07  08 09 0A 0B 0C 0D 0E 0F
      -- -- -- -- -- -- -- --  -- -- -- -- -- -- -- --
0A30:                      00                                  .        
```

#### Opcodes

```
  0: 0x0A37 [0x00] END_REQSTACK()
```

### Event 213

#### Metadata

| Field        | Value   |
|--------------|---------|
| Entrypoint   | 0x0A38  |
| Data Size    | 1 bytes |
| Instructions | 1       |

```
      00 01 02 03 04 05 06 07  08 09 0A 0B 0C 0D 0E 0F
      -- -- -- -- -- -- -- --  -- -- -- -- -- -- -- --
0A30:                          00                               .       
```

#### Opcodes

```
  0: 0x0A38 [0x00] END_REQSTACK()
```

### Event 214

#### Metadata

| Field        | Value   |
|--------------|---------|
| Entrypoint   | 0x0A39  |
| Data Size    | 1 bytes |
| Instructions | 1       |

```
      00 01 02 03 04 05 06 07  08 09 0A 0B 0C 0D 0E 0F
      -- -- -- -- -- -- -- --  -- -- -- -- -- -- -- --
0A30:                             00                             .      
```

#### Opcodes

```
  0: 0x0A39 [0x00] END_REQSTACK()
```

### Event 215

#### Metadata

| Field        | Value   |
|--------------|---------|
| Entrypoint   | 0x0A3A  |
| Data Size    | 1 bytes |
| Instructions | 1       |

```
      00 01 02 03 04 05 06 07  08 09 0A 0B 0C 0D 0E 0F
      -- -- -- -- -- -- -- --  -- -- -- -- -- -- -- --
0A30:                                00                           .     
```

#### Opcodes

```
  0: 0x0A3A [0x00] END_REQSTACK()
```

### Event 228

#### Metadata

| Field        | Value   |
|--------------|---------|
| Entrypoint   | 0x0A3B  |
| Data Size    | 1 bytes |
| Instructions | 1       |

```
      00 01 02 03 04 05 06 07  08 09 0A 0B 0C 0D 0E 0F
      -- -- -- -- -- -- -- --  -- -- -- -- -- -- -- --
0A30:                                   00                         .    
```

#### Opcodes

```
  0: 0x0A3B [0x00] END_REQSTACK()
```

### Event 267

#### Metadata

| Field        | Value   |
|--------------|---------|
| Entrypoint   | 0x0A3C  |
| Data Size    | 1 bytes |
| Instructions | 1       |

```
      00 01 02 03 04 05 06 07  08 09 0A 0B 0C 0D 0E 0F
      -- -- -- -- -- -- -- --  -- -- -- -- -- -- -- --
0A30:                                      00                       .   
```

#### Opcodes

```
  0: 0x0A3C [0x00] END_REQSTACK()
```

### Event 271

#### Metadata

| Field        | Value   |
|--------------|---------|
| Entrypoint   | 0x0A3D  |
| Data Size    | 1 bytes |
| Instructions | 1       |

```
      00 01 02 03 04 05 06 07  08 09 0A 0B 0C 0D 0E 0F
      -- -- -- -- -- -- -- --  -- -- -- -- -- -- -- --
0A30:                                         00                     .  
```

#### Opcodes

```
  0: 0x0A3D [0x00] END_REQSTACK()
```

### Event 275

#### Metadata

| Field        | Value   |
|--------------|---------|
| Entrypoint   | 0x0A3E  |
| Data Size    | 1 bytes |
| Instructions | 1       |

```
      00 01 02 03 04 05 06 07  08 09 0A 0B 0C 0D 0E 0F
      -- -- -- -- -- -- -- --  -- -- -- -- -- -- -- --
0A30:                                            00                   . 
```

#### Opcodes

```
  0: 0x0A3E [0x00] END_REQSTACK()
```

### Event 279

#### Metadata

| Field        | Value   |
|--------------|---------|
| Entrypoint   | 0x0A3F  |
| Data Size    | 1 bytes |
| Instructions | 1       |

```
      00 01 02 03 04 05 06 07  08 09 0A 0B 0C 0D 0E 0F
      -- -- -- -- -- -- -- --  -- -- -- -- -- -- -- --
0A30:                                               00                 .
```

#### Opcodes

```
  0: 0x0A3F [0x00] END_REQSTACK()
```

### Event 283

#### Metadata

| Field        | Value   |
|--------------|---------|
| Entrypoint   | 0x0A40  |
| Data Size    | 1 bytes |
| Instructions | 1       |

```
      00 01 02 03 04 05 06 07  08 09 0A 0B 0C 0D 0E 0F
      -- -- -- -- -- -- -- --  -- -- -- -- -- -- -- --
0A40: 00                                                .               
```

#### Opcodes

```
  0: 0x0A40 [0x00] END_REQSTACK()
```

### Event 287

#### Metadata

| Field        | Value   |
|--------------|---------|
| Entrypoint   | 0x0A41  |
| Data Size    | 1 bytes |
| Instructions | 1       |

```
      00 01 02 03 04 05 06 07  08 09 0A 0B 0C 0D 0E 0F
      -- -- -- -- -- -- -- --  -- -- -- -- -- -- -- --
0A40:    00                                              .              
```

#### Opcodes

```
  0: 0x0A41 [0x00] END_REQSTACK()
```

### Event 291

#### Metadata

| Field        | Value   |
|--------------|---------|
| Entrypoint   | 0x0A42  |
| Data Size    | 1 bytes |
| Instructions | 1       |

```
      00 01 02 03 04 05 06 07  08 09 0A 0B 0C 0D 0E 0F
      -- -- -- -- -- -- -- --  -- -- -- -- -- -- -- --
0A40:       00                                            .             
```

#### Opcodes

```
  0: 0x0A42 [0x00] END_REQSTACK()
```

### Event 295

#### Metadata

| Field        | Value   |
|--------------|---------|
| Entrypoint   | 0x0A43  |
| Data Size    | 1 bytes |
| Instructions | 1       |

```
      00 01 02 03 04 05 06 07  08 09 0A 0B 0C 0D 0E 0F
      -- -- -- -- -- -- -- --  -- -- -- -- -- -- -- --
0A40:          00                                          .            
```

#### Opcodes

```
  0: 0x0A43 [0x00] END_REQSTACK()
```

### Event 300

#### Metadata

| Field        | Value   |
|--------------|---------|
| Entrypoint   | 0x0A44  |
| Data Size    | 1 bytes |
| Instructions | 1       |

```
      00 01 02 03 04 05 06 07  08 09 0A 0B 0C 0D 0E 0F
      -- -- -- -- -- -- -- --  -- -- -- -- -- -- -- --
0A40:             00                                        .           
```

#### Opcodes

```
  0: 0x0A44 [0x00] END_REQSTACK()
```

### Event 304

#### Metadata

| Field        | Value   |
|--------------|---------|
| Entrypoint   | 0x0A45  |
| Data Size    | 1 bytes |
| Instructions | 1       |

```
      00 01 02 03 04 05 06 07  08 09 0A 0B 0C 0D 0E 0F
      -- -- -- -- -- -- -- --  -- -- -- -- -- -- -- --
0A40:                00                                      .          
```

#### Opcodes

```
  0: 0x0A45 [0x00] END_REQSTACK()
```

### Event 308

#### Metadata

| Field        | Value   |
|--------------|---------|
| Entrypoint   | 0x0A46  |
| Data Size    | 1 bytes |
| Instructions | 1       |

```
      00 01 02 03 04 05 06 07  08 09 0A 0B 0C 0D 0E 0F
      -- -- -- -- -- -- -- --  -- -- -- -- -- -- -- --
0A40:                   00                                    .         
```

#### Opcodes

```
  0: 0x0A46 [0x00] END_REQSTACK()
```

### Event 312

#### Metadata

| Field        | Value   |
|--------------|---------|
| Entrypoint   | 0x0A47  |
| Data Size    | 1 bytes |
| Instructions | 1       |

```
      00 01 02 03 04 05 06 07  08 09 0A 0B 0C 0D 0E 0F
      -- -- -- -- -- -- -- --  -- -- -- -- -- -- -- --
0A40:                      00                                  .        
```

#### Opcodes

```
  0: 0x0A47 [0x00] END_REQSTACK()
```

### Event 316

#### Metadata

| Field        | Value   |
|--------------|---------|
| Entrypoint   | 0x0A48  |
| Data Size    | 1 bytes |
| Instructions | 1       |

```
      00 01 02 03 04 05 06 07  08 09 0A 0B 0C 0D 0E 0F
      -- -- -- -- -- -- -- --  -- -- -- -- -- -- -- --
0A40:                          00                               .       
```

#### Opcodes

```
  0: 0x0A48 [0x00] END_REQSTACK()
```

### Event 320

#### Metadata

| Field        | Value   |
|--------------|---------|
| Entrypoint   | 0x0A49  |
| Data Size    | 1 bytes |
| Instructions | 1       |

```
      00 01 02 03 04 05 06 07  08 09 0A 0B 0C 0D 0E 0F
      -- -- -- -- -- -- -- --  -- -- -- -- -- -- -- --
0A40:                             00                             .      
```

#### Opcodes

```
  0: 0x0A49 [0x00] END_REQSTACK()
```

### Event 324

#### Metadata

| Field        | Value   |
|--------------|---------|
| Entrypoint   | 0x0A4A  |
| Data Size    | 1 bytes |
| Instructions | 1       |

```
      00 01 02 03 04 05 06 07  08 09 0A 0B 0C 0D 0E 0F
      -- -- -- -- -- -- -- --  -- -- -- -- -- -- -- --
0A40:                                00                           .     
```

#### Opcodes

```
  0: 0x0A4A [0x00] END_REQSTACK()
```
