# 17063962 - Goccilo

## Common Data

| Field            | Value                    |
|------------------|--------------------------|
| Zone             | Chocobo Circuit (ID: 70) |
| Block Size       | 8184 bytes               |
| Total Events     | 33                       |
| References Count | 75                       |

## List of Events

| Event ID                   | Entrypoint   |   Size |   Instructions |
|----------------------------|--------------|--------|----------------|
| [65535](#event-65535)      | 0x0000       |      1 |              1 |
| [427](#event-427)          | 0x0001       |      1 |              1 |
| [458](#event-458)          | 0x0002       |      1 |              1 |
| [469](#event-469)          | 0x0003       |      1 |              1 |
| [65535.1](#event-655351)   | 0x0004       |     21 |              2 |
| [100](#event-100)          | 0x0019       |      1 |              1 |
| [65535.2](#event-655352)   | 0x001A       |    174 |             18 |
| [65535.3](#event-655353)   | 0x00C8       |    171 |             17 |
| [65535.4](#event-655354)   | 0x0173       |    138 |             14 |
| [65535.5](#event-655355)   | 0x01FD       |    192 |             18 |
| [65535.6](#event-655356)   | 0x02BD       |    219 |             21 |
| [65535.7](#event-655357)   | 0x0398       |    189 |             19 |
| [65535.8](#event-655358)   | 0x0455       |    171 |             17 |
| [65535.9](#event-655359)   | 0x0500       |    237 |             23 |
| [65535.10](#event-6553510) | 0x05ED       |    138 |             14 |
| [65535.11](#event-6553511) | 0x0677       |    138 |             14 |
| [65535.12](#event-6553512) | 0x0701       |    138 |             14 |
| [65535.13](#event-6553513) | 0x078B       |    156 |             14 |
| [65535.14](#event-6553514) | 0x0827       |    135 |             13 |
| [65535.15](#event-6553515) | 0x08AE       |    117 |             11 |
| [65535.16](#event-6553516) | 0x0923       |    138 |             14 |
| [65535.17](#event-6553517) | 0x09AD       |    156 |             14 |
| [65535.18](#event-6553518) | 0x0A49       |    123 |             13 |
| [65535.19](#event-6553519) | 0x0AC4       |    120 |             12 |
| [65535.20](#event-6553520) | 0x0B3C       |    123 |             13 |
| [65535.21](#event-6553521) | 0x0BB7       |    156 |             14 |
| [65535.22](#event-6553522) | 0x0C53       |    158 |             24 |
| [65535.23](#event-6553523) | 0x0CF1       |    525 |             81 |
| [65535.24](#event-6553524) | 0x0EFE       |    168 |             32 |
| [65535.25](#event-6553525) | 0x0FA6       |   1556 |            156 |
| [65535.26](#event-6553526) | 0x15BA       |    121 |             21 |
| [65535.27](#event-6553527) | 0x1633       |     97 |             17 |
| [65535.28](#event-6553528) | 0x1694       |   1955 |            349 |

## DAT References (imed_data)

|   Index | Hex Value   |   Dec Value |
|---------|-------------|-------------|
|       0 | 0x0008      |           8 |
|       1 | 0x0000      |           0 |
|       2 | 0x0002      |           2 |
|       3 | 0x010E      |         270 |
|       4 | 0x00C0      |         192 |
|       5 | 0x000F      |          15 |
|       6 | 0x00C8      |         200 |
|       7 | 0x00BF      |         191 |
|       8 | 0x000B      |          11 |
|       9 | 0x003C      |          60 |
|      10 | 0x0368      |         872 |
|      11 | 0x0005      |           5 |
|      12 | 0x00E0      |         224 |
|      13 | 0x005A      |          90 |
|      14 | 0x001E      |          30 |
|      15 | 0x000C      |          12 |
|      16 | 0x0020      |          32 |
|      17 | 0x0078      |         120 |
|      18 | 0x0045      |          69 |
|      19 | 0x0041      |          65 |
|      20 | 0x0037      |          55 |
|      21 | 0x001D      |          29 |
|      22 | 0x0016      |          22 |
|      23 | 0x0079      |         121 |
|      24 | 0x006F      |         111 |
|      25 | 0x006E      |         110 |
|      26 | 0x0028      |          40 |
|      27 | 0x002A      |          42 |
|      28 | 0x0006      |           6 |
|      29 | 0x2279      |        8825 |
|      30 | 0x227A      |        8826 |
|      31 | 0x227B      |        8827 |
|      32 | 0x227C      |        8828 |
|      33 | 0x0004      |           4 |
|      34 | 0x0001      |           1 |
|      35 | 0x227D      |        8829 |
|      36 | 0x2280      |        8832 |
|      37 | 0x2281      |        8833 |
|      38 | 0x2286      |        8838 |
|      39 | 0x2285      |        8837 |
|      40 | 0x2282      |        8834 |
|      41 | 0x2284      |        8836 |
|      42 | 0x0003      |           3 |
|      43 | 0x2283      |        8835 |
|      44 | 0x0011      |          17 |
|      45 | 0x0018      |          24 |
|      46 | 0x001F      |          31 |
|      47 | 0x0012      |          18 |
|      48 | 0x0013      |          19 |
|      49 | 0x2287      |        8839 |
|      50 | 0x2288      |        8840 |
|      51 | 0x2289      |        8841 |
|      52 | 0x2299      |        8857 |
|      53 | 0x229A      |        8858 |
|      54 | 0x229E      |        8862 |
|      55 | 0x229D      |        8861 |
|      56 | 0x229B      |        8859 |
|      57 | 0x229C      |        8860 |
|      58 | 0x229F      |        8863 |
|      59 | 0x0007      |           7 |
|      60 | 0x22A0      |        8864 |
|      61 | 0x22A1      |        8865 |
|      62 | 0x22A2      |        8866 |
|      63 | 0x002B      |          43 |
|      64 | 0x0017      |          23 |
|      65 | 0xFFFFFFFE  |  4294967294 |
|      66 | 0x0019      |          25 |
|      67 | 0x0010      |          16 |
|      68 | 0x0014      |          20 |
|      69 | 0x001B      |          27 |
|      70 | 0x001C      |          28 |
|      71 | 0x012C      |         300 |
|      72 | 0x2378      |        9080 |
|      73 | 0x236C      |        9068 |
|      74 | 0xFFFFFFFF  |  4294967295 |

## String References

- **9068**: %0 %1 %2 %3
- **9080**: $0/$1/$2/$3 $4/$5/$6/$7

## Events

### Event 65535

#### Metadata

| Field        | Value   |
|--------------|---------|
| Entrypoint   | 0x0000  |
| Data Size    | 1 bytes |
| Instructions | 1       |

```
      00 01 02 03 04 05 06 07  08 09 0A 0B 0C 0D 0E 0F
      -- -- -- -- -- -- -- --  -- -- -- -- -- -- -- --
0000: 00                                                .               
```

#### Opcodes

```
  0: 0x0000 [0x00] END_REQSTACK()
```

### Event 427

#### Metadata

| Field        | Value   |
|--------------|---------|
| Entrypoint   | 0x0001  |
| Data Size    | 1 bytes |
| Instructions | 1       |

```
      00 01 02 03 04 05 06 07  08 09 0A 0B 0C 0D 0E 0F
      -- -- -- -- -- -- -- --  -- -- -- -- -- -- -- --
0000:    00                                              .              
```

#### Opcodes

```
  0: 0x0001 [0x00] END_REQSTACK()
```

### Event 458

#### Metadata

| Field        | Value   |
|--------------|---------|
| Entrypoint   | 0x0002  |
| Data Size    | 1 bytes |
| Instructions | 1       |

```
      00 01 02 03 04 05 06 07  08 09 0A 0B 0C 0D 0E 0F
      -- -- -- -- -- -- -- --  -- -- -- -- -- -- -- --
0000:       00                                            .             
```

#### Opcodes

```
  0: 0x0002 [0x00] END_REQSTACK()
```

### Event 469

#### Metadata

| Field        | Value   |
|--------------|---------|
| Entrypoint   | 0x0003  |
| Data Size    | 1 bytes |
| Instructions | 1       |

```
      00 01 02 03 04 05 06 07  08 09 0A 0B 0C 0D 0E 0F
      -- -- -- -- -- -- -- --  -- -- -- -- -- -- -- --
0000:          00                                          .            
```

#### Opcodes

```
  0: 0x0003 [0x00] END_REQSTACK()
```

### Event 65535.1

#### Metadata

| Field        | Value    |
|--------------|----------|
| Entrypoint   | 0x0004   |
| Data Size    | 21 bytes |
| Instructions | 2        |

```
      00 01 02 03 04 05 06 07  08 09 0A 0B 0C 0D 0E 0F
      -- -- -- -- -- -- -- --  -- -- -- -- -- -- -- --
0000:             B6 0B 08 10  00 80 01 80 02 80 02 80      ............
0010: 02 80 02 80 03 80 01 80  00                       .........       
```

#### Opcodes

```
  0: 0x0004 [0xB6] ENTITY_APPEARANCE_HANDLER(case=Full entity look, race=Work_Zone[8], hair=8*, head=0*, body=2*, hands=2*, legs=2*, feet=2*, main=270*, sub=0*)
  1: 0x0018 [0x00] END_REQSTACK()
```

### Event 100

#### Metadata

| Field        | Value   |
|--------------|---------|
| Entrypoint   | 0x0019  |
| Data Size    | 1 bytes |
| Instructions | 1       |

```
      00 01 02 03 04 05 06 07  08 09 0A 0B 0C 0D 0E 0F
      -- -- -- -- -- -- -- --  -- -- -- -- -- -- -- --
0010:                             00                             .      
```

#### Opcodes

```
  0: 0x0019 [0x00] END_REQSTACK()
```

### Event 65535.2

#### Metadata

| Field        | Value     |
|--------------|-----------|
| Entrypoint   | 0x001A    |
| Data Size    | 174 bytes |
| Instructions | 18        |

```
      00 01 02 03 04 05 06 07  08 09 0A 0B 0C 0D 0E 0F
      -- -- -- -- -- -- -- --  -- -- -- -- -- -- -- --
0010:                                45 04 80 1C 60 04            E...`.
0020: 01 1C 60 04 01 73 31 34  37 01 80 1C 05 80 45 06  ..`..s147.....E.
0030: 80 F0 FF FF 7F F0 FF FF  7F 66 64 69 30 01 80 45  .........fdi0..E
0040: 07 80 1C 60 04 01 1C 60  04 01 6B 61 6E 74 01 80  ...`...`..kant..
0050: 6E 1A 60 04 01 08 80 99  1A 60 04 01 1C 09 80 5B  n.`......`.....[
0060: 09 80 1B 60 04 01 1B 60  04 01 74 6C 6B 30 5B 0A  ...`...`..tlk0[.
0070: 80 1C 60 04 01 1C 60 04  01 68 69 30 37 1C 0B 80  ..`...`..hi07...
0080: 5B 0C 80 1C 60 04 01 1C  60 04 01 31 30 30 35 1C  [...`...`..1005.
0090: 0D 80 5B 09 80 1B 60 04  01 1B 60 04 01 74 6C 6B  ..[...`...`..tlk
00A0: 31 1C 0E 80 45 06 80 F0  FF FF 7F F0 FF FF 7F 66  1...E..........f
00B0: 64 6F 30 01 80 1C 05 80  52 04 80 1C 60 04 01 1C  do0.....R...`...
00C0: 60 04 01 73 31 34 37 00                           `..s147.        
```

#### Opcodes

```
  0: 0x001A [0x45] LOAD_SCHEDULED_TASK: Load scheduler "s147" with entities [Sakura (ID: 17063964/0x0104601C), Sakura (ID: 17063964/0x0104601C)], work=[192*, 0*]
  1: 0x002B [0x1C] WAIT(15* ticks)
  2: 0x002E [0x45] LOAD_SCHEDULED_TASK: Load scheduler "fdi0" with entities [LocalPlayer, LocalPlayer], work=[200*, 0*]
  3: 0x003F [0x45] LOAD_SCHEDULED_TASK: Load scheduler "kant" with entities [Sakura (ID: 17063964/0x0104601C), Sakura (ID: 17063964/0x0104601C)], work=[191*, 0*]
  4: 0x0050 [0x6E] Goccilo (ID: 17063962/0x0104601A) uses emote 11*
  5: 0x0057 [0x99] Wait for Goccilo (ID: 17063962/0x0104601A) animation to complete
  6: 0x005C [0x1C] WAIT(60* ticks)
  7: 0x005F [0x5B] LOAD_EXT_SCHEDULER: Load scheduler "tlk0" with entities [Markovich (ID: 17063963/0x0104601B), Markovich (ID: 17063963/0x0104601B)], work=60*
  8: 0x006E [0x5B] LOAD_EXT_SCHEDULER: Load scheduler "hi07" with entities [Sakura (ID: 17063964/0x0104601C), Sakura (ID: 17063964/0x0104601C)], work=872*
  9: 0x007D [0x1C] WAIT(5* ticks)
 10: 0x0080 [0x5B] LOAD_EXT_SCHEDULER: Load scheduler "1005" with entities [Sakura (ID: 17063964/0x0104601C), Sakura (ID: 17063964/0x0104601C)], work=224*
 11: 0x008F [0x1C] WAIT(90* ticks)
 12: 0x0092 [0x5B] LOAD_EXT_SCHEDULER: Load scheduler "tlk1" with entities [Markovich (ID: 17063963/0x0104601B), Markovich (ID: 17063963/0x0104601B)], work=60*
 13: 0x00A1 [0x1C] WAIT(30* ticks)
 14: 0x00A4 [0x45] LOAD_SCHEDULED_TASK: Load scheduler "fdo0" with entities [LocalPlayer, LocalPlayer], work=[200*, 0*]
 15: 0x00B5 [0x1C] WAIT(15* ticks)
 16: 0x00B8 [0x52] END_LOAD_SCHEDULER: End scheduler "s147" with entities [Sakura (ID: 17063964/0x0104601C), Sakura (ID: 17063964/0x0104601C)], work=192*
 17: 0x00C7 [0x00] END_REQSTACK()
```

### Event 65535.3

#### Metadata

| Field        | Value     |
|--------------|-----------|
| Entrypoint   | 0x00C8    |
| Data Size    | 171 bytes |
| Instructions | 17        |

```
      00 01 02 03 04 05 06 07  08 09 0A 0B 0C 0D 0E 0F
      -- -- -- -- -- -- -- --  -- -- -- -- -- -- -- --
00C0:                          45 04 80 1C 60 04 01 1C          E...`...
00D0: 60 04 01 73 31 35 32 01  80 1C 05 80 45 06 80 F0  `..s152.....E...
00E0: FF FF 7F F0 FF FF 7F 66  64 69 30 01 80 45 07 80  .......fdi0..E..
00F0: 1C 60 04 01 1C 60 04 01  6B 61 6E 74 01 80 5B 0A  .`...`..kant..[.
0100: 80 1C 60 04 01 1C 60 04  01 68 69 30 39 5B 0C 80  ..`...`..hi09[..
0110: 1C 60 04 01 1C 60 04 01  31 30 30 35 1C 09 80 6E  .`...`..1005...n
0120: 1A 60 04 01 0F 80 99 1A  60 04 01 5B 09 80 1B 60  .`......`..[...`
0130: 04 01 1B 60 04 01 74 6C  6B 30 1C 0D 80 5B 09 80  ...`..tlk0...[..
0140: 1B 60 04 01 1B 60 04 01  74 6C 6B 31 1C 0E 80 45  .`...`..tlk1...E
0150: 06 80 F0 FF FF 7F F0 FF  FF 7F 66 64 6F 30 01 80  ..........fdo0..
0160: 1C 05 80 52 04 80 1C 60  04 01 1C 60 04 01 73 31  ...R...`...`..s1
0170: 35 32 00                                          52.             
```

#### Opcodes

```
  0: 0x00C8 [0x45] LOAD_SCHEDULED_TASK: Load scheduler "s152" with entities [Sakura (ID: 17063964/0x0104601C), Sakura (ID: 17063964/0x0104601C)], work=[192*, 0*]
  1: 0x00D9 [0x1C] WAIT(15* ticks)
  2: 0x00DC [0x45] LOAD_SCHEDULED_TASK: Load scheduler "fdi0" with entities [LocalPlayer, LocalPlayer], work=[200*, 0*]
  3: 0x00ED [0x45] LOAD_SCHEDULED_TASK: Load scheduler "kant" with entities [Sakura (ID: 17063964/0x0104601C), Sakura (ID: 17063964/0x0104601C)], work=[191*, 0*]
  4: 0x00FE [0x5B] LOAD_EXT_SCHEDULER: Load scheduler "hi09" with entities [Sakura (ID: 17063964/0x0104601C), Sakura (ID: 17063964/0x0104601C)], work=872*
  5: 0x010D [0x5B] LOAD_EXT_SCHEDULER: Load scheduler "1005" with entities [Sakura (ID: 17063964/0x0104601C), Sakura (ID: 17063964/0x0104601C)], work=224*
  6: 0x011C [0x1C] WAIT(60* ticks)
  7: 0x011F [0x6E] Goccilo (ID: 17063962/0x0104601A) uses emote 12*
  8: 0x0126 [0x99] Wait for Goccilo (ID: 17063962/0x0104601A) animation to complete
  9: 0x012B [0x5B] LOAD_EXT_SCHEDULER: Load scheduler "tlk0" with entities [Markovich (ID: 17063963/0x0104601B), Markovich (ID: 17063963/0x0104601B)], work=60*
 10: 0x013A [0x1C] WAIT(90* ticks)
 11: 0x013D [0x5B] LOAD_EXT_SCHEDULER: Load scheduler "tlk1" with entities [Markovich (ID: 17063963/0x0104601B), Markovich (ID: 17063963/0x0104601B)], work=60*
 12: 0x014C [0x1C] WAIT(30* ticks)
 13: 0x014F [0x45] LOAD_SCHEDULED_TASK: Load scheduler "fdo0" with entities [LocalPlayer, LocalPlayer], work=[200*, 0*]
 14: 0x0160 [0x1C] WAIT(15* ticks)
 15: 0x0163 [0x52] END_LOAD_SCHEDULER: End scheduler "s152" with entities [Sakura (ID: 17063964/0x0104601C), Sakura (ID: 17063964/0x0104601C)], work=192*
 16: 0x0172 [0x00] END_REQSTACK()
```

### Event 65535.4

#### Metadata

| Field        | Value     |
|--------------|-----------|
| Entrypoint   | 0x0173    |
| Data Size    | 138 bytes |
| Instructions | 14        |

```
      00 01 02 03 04 05 06 07  08 09 0A 0B 0C 0D 0E 0F
      -- -- -- -- -- -- -- --  -- -- -- -- -- -- -- --
0170:          45 04 80 1C 60  04 01 1C 60 04 01 73 31     E...`...`..s1
0180: 35 33 01 80 1C 05 80 45  06 80 F0 FF FF 7F F0 FF  53.....E........
0190: FF 7F 66 64 69 30 01 80  45 07 80 1C 60 04 01 1C  ..fdi0..E...`...
01A0: 60 04 01 6B 61 6E 74 01  80 6E 1A 60 04 01 10 80  `..kant..n.`....
01B0: 99 1A 60 04 01 1C 09 80  5B 09 80 1B 60 04 01 1B  ..`.....[...`...
01C0: 60 04 01 74 68 6B 31 1C  11 80 45 06 80 F0 FF FF  `..thk1...E.....
01D0: 7F F0 FF FF 7F 66 64 6F  30 01 80 1C 05 80 5B 09  .....fdo0.....[.
01E0: 80 1B 60 04 01 1B 60 04  01 74 68 6B 32 52 04 80  ..`...`..thk2R..
01F0: 1C 60 04 01 1C 60 04 01  73 31 35 33 00           .`...`..s153.   
```

#### Opcodes

```
  0: 0x0173 [0x45] LOAD_SCHEDULED_TASK: Load scheduler "s153" with entities [Sakura (ID: 17063964/0x0104601C), Sakura (ID: 17063964/0x0104601C)], work=[192*, 0*]
  1: 0x0184 [0x1C] WAIT(15* ticks)
  2: 0x0187 [0x45] LOAD_SCHEDULED_TASK: Load scheduler "fdi0" with entities [LocalPlayer, LocalPlayer], work=[200*, 0*]
  3: 0x0198 [0x45] LOAD_SCHEDULED_TASK: Load scheduler "kant" with entities [Sakura (ID: 17063964/0x0104601C), Sakura (ID: 17063964/0x0104601C)], work=[191*, 0*]
  4: 0x01A9 [0x6E] Goccilo (ID: 17063962/0x0104601A) uses emote 32*
  5: 0x01B0 [0x99] Wait for Goccilo (ID: 17063962/0x0104601A) animation to complete
  6: 0x01B5 [0x1C] WAIT(60* ticks)
  7: 0x01B8 [0x5B] LOAD_EXT_SCHEDULER: Load scheduler "thk1" with entities [Markovich (ID: 17063963/0x0104601B), Markovich (ID: 17063963/0x0104601B)], work=60*
  8: 0x01C7 [0x1C] WAIT(120* ticks)
  9: 0x01CA [0x45] LOAD_SCHEDULED_TASK: Load scheduler "fdo0" with entities [LocalPlayer, LocalPlayer], work=[200*, 0*]
 10: 0x01DB [0x1C] WAIT(15* ticks)
 11: 0x01DE [0x5B] LOAD_EXT_SCHEDULER: Load scheduler "thk2" with entities [Markovich (ID: 17063963/0x0104601B), Markovich (ID: 17063963/0x0104601B)], work=60*
 12: 0x01ED [0x52] END_LOAD_SCHEDULER: End scheduler "s153" with entities [Sakura (ID: 17063964/0x0104601C), Sakura (ID: 17063964/0x0104601C)], work=192*
 13: 0x01FC [0x00] END_REQSTACK()
```

### Event 65535.5

#### Metadata

| Field        | Value     |
|--------------|-----------|
| Entrypoint   | 0x01FD    |
| Data Size    | 192 bytes |
| Instructions | 18        |

```
      00 01 02 03 04 05 06 07  08 09 0A 0B 0C 0D 0E 0F
      -- -- -- -- -- -- -- --  -- -- -- -- -- -- -- --
01F0:                                         45 04 80               E..
0200: 1C 60 04 01 1C 60 04 01  73 31 35 34 01 80 1C 05  .`...`..s154....
0210: 80 45 06 80 F0 FF FF 7F  F0 FF FF 7F 66 64 69 30  .E..........fdi0
0220: 01 80 45 07 80 1C 60 04  01 1C 60 04 01 6B 61 6E  ..E...`...`..kan
0230: 74 01 80 66 12 80 1A 60  04 01 1A 60 04 01 74 6C  t..f...`...`..tl
0240: 6B 30 1C 09 80 5B 0A 80  1C 60 04 01 1C 60 04 01  k0...[...`...`..
0250: 68 69 30 31 1C 0B 80 5B  0C 80 1C 60 04 01 1C 60  hi01...[...`...`
0260: 04 01 31 30 30 35 1C 0E  80 66 12 80 1A 60 04 01  ..1005...f...`..
0270: 1A 60 04 01 74 6C 6B 31  5B 09 80 1B 60 04 01 1B  .`..tlk1[...`...
0280: 60 04 01 68 61 6E 30 1C  0D 80 45 06 80 F0 FF FF  `..han0...E.....
0290: 7F F0 FF FF 7F 66 64 6F  30 01 80 1C 05 80 5B 09  .....fdo0.....[.
02A0: 80 1B 60 04 01 1B 60 04  01 68 61 6E 31 52 04 80  ..`...`..han1R..
02B0: 1C 60 04 01 1C 60 04 01  73 31 35 34 00           .`...`..s154.   
```

#### Opcodes

```
  0: 0x01FD [0x45] LOAD_SCHEDULED_TASK: Load scheduler "s154" with entities [Sakura (ID: 17063964/0x0104601C), Sakura (ID: 17063964/0x0104601C)], work=[192*, 0*]
  1: 0x020E [0x1C] WAIT(15* ticks)
  2: 0x0211 [0x45] LOAD_SCHEDULED_TASK: Load scheduler "fdi0" with entities [LocalPlayer, LocalPlayer], work=[200*, 0*]
  3: 0x0222 [0x45] LOAD_SCHEDULED_TASK: Load scheduler "kant" with entities [Sakura (ID: 17063964/0x0104601C), Sakura (ID: 17063964/0x0104601C)], work=[191*, 0*]
  4: 0x0233 [0x66] LOAD_EXT_SCHEDULER_MAIN: Load scheduler "tlk0" with entities [Goccilo (ID: 17063962/0x0104601A), Goccilo (ID: 17063962/0x0104601A)], work=69*
  5: 0x0242 [0x1C] WAIT(60* ticks)
  6: 0x0245 [0x5B] LOAD_EXT_SCHEDULER: Load scheduler "hi01" with entities [Sakura (ID: 17063964/0x0104601C), Sakura (ID: 17063964/0x0104601C)], work=872*
  7: 0x0254 [0x1C] WAIT(5* ticks)
  8: 0x0257 [0x5B] LOAD_EXT_SCHEDULER: Load scheduler "1005" with entities [Sakura (ID: 17063964/0x0104601C), Sakura (ID: 17063964/0x0104601C)], work=224*
  9: 0x0266 [0x1C] WAIT(30* ticks)
 10: 0x0269 [0x66] LOAD_EXT_SCHEDULER_MAIN: Load scheduler "tlk1" with entities [Goccilo (ID: 17063962/0x0104601A), Goccilo (ID: 17063962/0x0104601A)], work=69*
 11: 0x0278 [0x5B] LOAD_EXT_SCHEDULER: Load scheduler "han0" with entities [Markovich (ID: 17063963/0x0104601B), Markovich (ID: 17063963/0x0104601B)], work=60*
 12: 0x0287 [0x1C] WAIT(90* ticks)
 13: 0x028A [0x45] LOAD_SCHEDULED_TASK: Load scheduler "fdo0" with entities [LocalPlayer, LocalPlayer], work=[200*, 0*]
 14: 0x029B [0x1C] WAIT(15* ticks)
 15: 0x029E [0x5B] LOAD_EXT_SCHEDULER: Load scheduler "han1" with entities [Markovich (ID: 17063963/0x0104601B), Markovich (ID: 17063963/0x0104601B)], work=60*
 16: 0x02AD [0x52] END_LOAD_SCHEDULER: End scheduler "s154" with entities [Sakura (ID: 17063964/0x0104601C), Sakura (ID: 17063964/0x0104601C)], work=192*
 17: 0x02BC [0x00] END_REQSTACK()
```

### Event 65535.6

#### Metadata

| Field        | Value     |
|--------------|-----------|
| Entrypoint   | 0x02BD    |
| Data Size    | 219 bytes |
| Instructions | 21        |

```
      00 01 02 03 04 05 06 07  08 09 0A 0B 0C 0D 0E 0F
      -- -- -- -- -- -- -- --  -- -- -- -- -- -- -- --
02B0:                                         45 04 80               E..
02C0: 22 60 04 01 22 60 04 01  73 31 34 38 01 80 1C 05  "`.."`..s148....
02D0: 80 45 06 80 F0 FF FF 7F  F0 FF FF 7F 66 64 69 30  .E..........fdi0
02E0: 01 80 45 07 80 1F 60 04  01 1F 60 04 01 6B 61 6E  ..E...`...`..kan
02F0: 74 01 80 5B 13 80 1F 60  04 01 1F 60 04 01 63 6C  t..[...`...`..cl
0300: 61 30 5B 0E 80 20 60 04  01 20 60 04 01 74 6C 6B  a0[.. `.. `..tlk
0310: 30 1C 0E 80 5B 14 80 22  60 04 01 22 60 04 01 74  0...[.."`.."`..t
0320: 6C 6B 30 1C 0E 80 6E 23  60 04 01 0F 80 99 23 60  lk0...n#`.....#`
0330: 04 01 1C 0E 80 5B 01 80  21 60 04 01 21 60 04 01  .....[..!`..!`..
0340: 74 6C 6B 30 1C 09 80 45  06 80 F0 FF FF 7F F0 FF  tlk0...E........
0350: FF 7F 66 64 6F 30 01 80  1C 05 80 5B 0E 80 20 60  ..fdo0.....[.. `
0360: 04 01 20 60 04 01 74 6C  6B 31 5B 01 80 21 60 04  .. `..tlk1[..!`.
0370: 01 21 60 04 01 74 6C 6B  31 5B 14 80 22 60 04 01  .!`..tlk1[.."`..
0380: 22 60 04 01 74 6C 6B 31  52 04 80 22 60 04 01 22  "`..tlk1R.."`.."
0390: 60 04 01 73 31 34 38 00                           `..s148.        
```

#### Opcodes

```
  0: 0x02BD [0x45] LOAD_SCHEDULED_TASK: Load scheduler "s148" with entities [Unnamed NPC (ID: 17063970/0x01046022), Unnamed NPC (ID: 17063970/0x01046022)], work=[192*, 0*]
  1: 0x02CE [0x1C] WAIT(15* ticks)
  2: 0x02D1 [0x45] LOAD_SCHEDULED_TASK: Load scheduler "fdi0" with entities [LocalPlayer, LocalPlayer], work=[200*, 0*]
  3: 0x02E2 [0x45] LOAD_SCHEDULED_TASK: Load scheduler "kant" with entities [Unnamed NPC (ID: 17063967/0x0104601F), Unnamed NPC (ID: 17063967/0x0104601F)], work=[191*, 0*]
  4: 0x02F3 [0x5B] LOAD_EXT_SCHEDULER: Load scheduler "cla0" with entities [Unnamed NPC (ID: 17063967/0x0104601F), Unnamed NPC (ID: 17063967/0x0104601F)], work=65*
  5: 0x0302 [0x5B] LOAD_EXT_SCHEDULER: Load scheduler "tlk0" with entities [Unnamed NPC (ID: 17063968/0x01046020), Unnamed NPC (ID: 17063968/0x01046020)], work=30*
  6: 0x0311 [0x1C] WAIT(30* ticks)
  7: 0x0314 [0x5B] LOAD_EXT_SCHEDULER: Load scheduler "tlk0" with entities [Unnamed NPC (ID: 17063970/0x01046022), Unnamed NPC (ID: 17063970/0x01046022)], work=55*
  8: 0x0323 [0x1C] WAIT(30* ticks)
  9: 0x0326 [0x6E] Unnamed NPC (ID: 17063971/0x01046023) uses emote 12*
 10: 0x032D [0x99] Wait for Unnamed NPC (ID: 17063971/0x01046023) animation to complete
 11: 0x0332 [0x1C] WAIT(30* ticks)
 12: 0x0335 [0x5B] LOAD_EXT_SCHEDULER: Load scheduler "tlk0" with entities [Unnamed NPC (ID: 17063969/0x01046021), Unnamed NPC (ID: 17063969/0x01046021)], work=0*
 13: 0x0344 [0x1C] WAIT(60* ticks)
 14: 0x0347 [0x45] LOAD_SCHEDULED_TASK: Load scheduler "fdo0" with entities [LocalPlayer, LocalPlayer], work=[200*, 0*]
 15: 0x0358 [0x1C] WAIT(15* ticks)
 16: 0x035B [0x5B] LOAD_EXT_SCHEDULER: Load scheduler "tlk1" with entities [Unnamed NPC (ID: 17063968/0x01046020), Unnamed NPC (ID: 17063968/0x01046020)], work=30*
 17: 0x036A [0x5B] LOAD_EXT_SCHEDULER: Load scheduler "tlk1" with entities [Unnamed NPC (ID: 17063969/0x01046021), Unnamed NPC (ID: 17063969/0x01046021)], work=0*
 18: 0x0379 [0x5B] LOAD_EXT_SCHEDULER: Load scheduler "tlk1" with entities [Unnamed NPC (ID: 17063970/0x01046022), Unnamed NPC (ID: 17063970/0x01046022)], work=55*
 19: 0x0388 [0x52] END_LOAD_SCHEDULER: End scheduler "s148" with entities [Unnamed NPC (ID: 17063970/0x01046022), Unnamed NPC (ID: 17063970/0x01046022)], work=192*
 20: 0x0397 [0x00] END_REQSTACK()
```

### Event 65535.7

#### Metadata

| Field        | Value     |
|--------------|-----------|
| Entrypoint   | 0x0398    |
| Data Size    | 189 bytes |
| Instructions | 19        |

```
      00 01 02 03 04 05 06 07  08 09 0A 0B 0C 0D 0E 0F
      -- -- -- -- -- -- -- --  -- -- -- -- -- -- -- --
0390:                          45 04 80 21 60 04 01 21          E..!`..!
03A0: 60 04 01 73 31 34 39 01  80 1C 05 80 45 06 80 F0  `..s149.....E...
03B0: FF FF 7F F0 FF FF 7F 66  64 69 30 01 80 45 07 80  .......fdi0..E..
03C0: 20 60 04 01 20 60 04 01  6B 61 6E 74 01 80 5B 14   `.. `..kant..[.
03D0: 80 22 60 04 01 22 60 04  01 64 69 73 30 1C 0E 80  ."`.."`..dis0...
03E0: 5B 0E 80 20 60 04 01 20  60 04 01 74 68 6B 31 1C  [.. `.. `..thk1.
03F0: 0E 80 5B 01 80 21 60 04  01 21 60 04 01 74 68 6B  ..[..!`..!`..thk
0400: 31 1C 0D 80 6E 23 60 04  01 08 80 99 23 60 04 01  1...n#`.....#`..
0410: 1C 09 80 45 06 80 F0 FF  FF 7F F0 FF FF 7F 66 64  ...E..........fd
0420: 6F 30 01 80 1C 05 80 5B  0E 80 20 60 04 01 20 60  o0.....[.. `.. `
0430: 04 01 74 68 6B 32 5B 01  80 21 60 04 01 21 60 04  ..thk2[..!`..!`.
0440: 01 74 68 6B 32 52 04 80  21 60 04 01 21 60 04 01  .thk2R..!`..!`..
0450: 73 31 34 39 00                                    s149.           
```

#### Opcodes

```
  0: 0x0398 [0x45] LOAD_SCHEDULED_TASK: Load scheduler "s149" with entities [Unnamed NPC (ID: 17063969/0x01046021), Unnamed NPC (ID: 17063969/0x01046021)], work=[192*, 0*]
  1: 0x03A9 [0x1C] WAIT(15* ticks)
  2: 0x03AC [0x45] LOAD_SCHEDULED_TASK: Load scheduler "fdi0" with entities [LocalPlayer, LocalPlayer], work=[200*, 0*]
  3: 0x03BD [0x45] LOAD_SCHEDULED_TASK: Load scheduler "kant" with entities [Unnamed NPC (ID: 17063968/0x01046020), Unnamed NPC (ID: 17063968/0x01046020)], work=[191*, 0*]
  4: 0x03CE [0x5B] LOAD_EXT_SCHEDULER: Load scheduler "dis0" with entities [Unnamed NPC (ID: 17063970/0x01046022), Unnamed NPC (ID: 17063970/0x01046022)], work=55*
  5: 0x03DD [0x1C] WAIT(30* ticks)
  6: 0x03E0 [0x5B] LOAD_EXT_SCHEDULER: Load scheduler "thk1" with entities [Unnamed NPC (ID: 17063968/0x01046020), Unnamed NPC (ID: 17063968/0x01046020)], work=30*
  7: 0x03EF [0x1C] WAIT(30* ticks)
  8: 0x03F2 [0x5B] LOAD_EXT_SCHEDULER: Load scheduler "thk1" with entities [Unnamed NPC (ID: 17063969/0x01046021), Unnamed NPC (ID: 17063969/0x01046021)], work=0*
  9: 0x0401 [0x1C] WAIT(90* ticks)
 10: 0x0404 [0x6E] Unnamed NPC (ID: 17063971/0x01046023) uses emote 11*
 11: 0x040B [0x99] Wait for Unnamed NPC (ID: 17063971/0x01046023) animation to complete
 12: 0x0410 [0x1C] WAIT(60* ticks)
 13: 0x0413 [0x45] LOAD_SCHEDULED_TASK: Load scheduler "fdo0" with entities [LocalPlayer, LocalPlayer], work=[200*, 0*]
 14: 0x0424 [0x1C] WAIT(15* ticks)
 15: 0x0427 [0x5B] LOAD_EXT_SCHEDULER: Load scheduler "thk2" with entities [Unnamed NPC (ID: 17063968/0x01046020), Unnamed NPC (ID: 17063968/0x01046020)], work=30*
 16: 0x0436 [0x5B] LOAD_EXT_SCHEDULER: Load scheduler "thk2" with entities [Unnamed NPC (ID: 17063969/0x01046021), Unnamed NPC (ID: 17063969/0x01046021)], work=0*
 17: 0x0445 [0x52] END_LOAD_SCHEDULER: End scheduler "s149" with entities [Unnamed NPC (ID: 17063969/0x01046021), Unnamed NPC (ID: 17063969/0x01046021)], work=192*
 18: 0x0454 [0x00] END_REQSTACK()
```

### Event 65535.8

#### Metadata

| Field        | Value     |
|--------------|-----------|
| Entrypoint   | 0x0455    |
| Data Size    | 171 bytes |
| Instructions | 17        |

```
      00 01 02 03 04 05 06 07  08 09 0A 0B 0C 0D 0E 0F
      -- -- -- -- -- -- -- --  -- -- -- -- -- -- -- --
0450:                45 04 80  1F 60 04 01 1F 60 04 01       E...`...`..
0460: 73 31 35 30 01 80 1C 05  80 45 06 80 F0 FF FF 7F  s150.....E......
0470: F0 FF FF 7F 66 64 69 30  01 80 45 07 80 23 60 04  ....fdi0..E..#`.
0480: 01 23 60 04 01 6B 61 6E  74 01 80 5B 01 80 21 60  .#`..kant..[..!`
0490: 04 01 21 60 04 01 74 6C  6B 30 1C 09 80 6E 23 60  ..!`..tlk0...n#`
04A0: 04 01 15 80 99 23 60 04  01 1C 0E 80 5B 14 80 22  .....#`.....[.."
04B0: 60 04 01 22 60 04 01 74  68 61 31 1C 11 80 45 06  `.."`..tha1...E.
04C0: 80 F0 FF FF 7F F0 FF FF  7F 66 64 6F 30 01 80 1C  .........fdo0...
04D0: 05 80 5B 14 80 22 60 04  01 22 60 04 01 74 68 61  ..[.."`.."`..tha
04E0: 32 5B 01 80 21 60 04 01  21 60 04 01 74 6C 6B 31  2[..!`..!`..tlk1
04F0: 52 04 80 1F 60 04 01 1F  60 04 01 73 31 35 30 00  R...`...`..s150.
```

#### Opcodes

```
  0: 0x0455 [0x45] LOAD_SCHEDULED_TASK: Load scheduler "s150" with entities [Unnamed NPC (ID: 17063967/0x0104601F), Unnamed NPC (ID: 17063967/0x0104601F)], work=[192*, 0*]
  1: 0x0466 [0x1C] WAIT(15* ticks)
  2: 0x0469 [0x45] LOAD_SCHEDULED_TASK: Load scheduler "fdi0" with entities [LocalPlayer, LocalPlayer], work=[200*, 0*]
  3: 0x047A [0x45] LOAD_SCHEDULED_TASK: Load scheduler "kant" with entities [Unnamed NPC (ID: 17063971/0x01046023), Unnamed NPC (ID: 17063971/0x01046023)], work=[191*, 0*]
  4: 0x048B [0x5B] LOAD_EXT_SCHEDULER: Load scheduler "tlk0" with entities [Unnamed NPC (ID: 17063969/0x01046021), Unnamed NPC (ID: 17063969/0x01046021)], work=0*
  5: 0x049A [0x1C] WAIT(60* ticks)
  6: 0x049D [0x6E] Unnamed NPC (ID: 17063971/0x01046023) uses emote 29*
  7: 0x04A4 [0x99] Wait for Unnamed NPC (ID: 17063971/0x01046023) animation to complete
  8: 0x04A9 [0x1C] WAIT(30* ticks)
  9: 0x04AC [0x5B] LOAD_EXT_SCHEDULER: Load scheduler "tha1" with entities [Unnamed NPC (ID: 17063970/0x01046022), Unnamed NPC (ID: 17063970/0x01046022)], work=55*
 10: 0x04BB [0x1C] WAIT(120* ticks)
 11: 0x04BE [0x45] LOAD_SCHEDULED_TASK: Load scheduler "fdo0" with entities [LocalPlayer, LocalPlayer], work=[200*, 0*]
 12: 0x04CF [0x1C] WAIT(15* ticks)
 13: 0x04D2 [0x5B] LOAD_EXT_SCHEDULER: Load scheduler "tha2" with entities [Unnamed NPC (ID: 17063970/0x01046022), Unnamed NPC (ID: 17063970/0x01046022)], work=55*
 14: 0x04E1 [0x5B] LOAD_EXT_SCHEDULER: Load scheduler "tlk1" with entities [Unnamed NPC (ID: 17063969/0x01046021), Unnamed NPC (ID: 17063969/0x01046021)], work=0*
 15: 0x04F0 [0x52] END_LOAD_SCHEDULER: End scheduler "s150" with entities [Unnamed NPC (ID: 17063967/0x0104601F), Unnamed NPC (ID: 17063967/0x0104601F)], work=192*
 16: 0x04FF [0x00] END_REQSTACK()
```

### Event 65535.9

#### Metadata

| Field        | Value     |
|--------------|-----------|
| Entrypoint   | 0x0500    |
| Data Size    | 237 bytes |
| Instructions | 23        |

```
      00 01 02 03 04 05 06 07  08 09 0A 0B 0C 0D 0E 0F
      -- -- -- -- -- -- -- --  -- -- -- -- -- -- -- --
0500: 45 04 80 22 60 04 01 22  60 04 01 73 31 35 31 01  E.."`.."`..s151.
0510: 80 1C 05 80 45 06 80 F0  FF FF 7F F0 FF FF 7F 66  ....E..........f
0520: 64 69 30 01 80 45 07 80  1F 60 04 01 1F 60 04 01  di0..E...`...`..
0530: 6B 61 6E 74 01 80 5B 13  80 1F 60 04 01 1F 60 04  kant..[...`...`.
0540: 01 74 68 6B 31 1C 0E 80  5B 0E 80 20 60 04 01 20  .thk1...[.. `.. 
0550: 60 04 01 74 6C 6B 30 1C  0E 80 5B 14 80 22 60 04  `..tlk0...[.."`.
0560: 01 22 60 04 01 74 68 62  31 1C 0E 80 5B 01 80 21  ."`..thb1...[..!
0570: 60 04 01 21 60 04 01 74  68 6B 31 1C 0E 80 6E 23  `..!`..thk1...n#
0580: 60 04 01 16 80 99 23 60  04 01 1C 0D 80 45 06 80  `.....#`.....E..
0590: F0 FF FF 7F F0 FF FF 7F  66 64 6F 30 01 80 1C 05  ........fdo0....
05A0: 80 5B 0E 80 20 60 04 01  20 60 04 01 74 6C 6B 31  .[.. `.. `..tlk1
05B0: 5B 13 80 1F 60 04 01 1F  60 04 01 74 68 6B 32 5B  [...`...`..thk2[
05C0: 01 80 21 60 04 01 21 60  04 01 74 68 6B 32 5B 14  ..!`..!`..thk2[.
05D0: 80 22 60 04 01 22 60 04  01 74 68 62 32 52 04 80  ."`.."`..thb2R..
05E0: 22 60 04 01 22 60 04 01  73 31 35 31 00           "`.."`..s151.   
```

#### Opcodes

```
  0: 0x0500 [0x45] LOAD_SCHEDULED_TASK: Load scheduler "s151" with entities [Unnamed NPC (ID: 17063970/0x01046022), Unnamed NPC (ID: 17063970/0x01046022)], work=[192*, 0*]
  1: 0x0511 [0x1C] WAIT(15* ticks)
  2: 0x0514 [0x45] LOAD_SCHEDULED_TASK: Load scheduler "fdi0" with entities [LocalPlayer, LocalPlayer], work=[200*, 0*]
  3: 0x0525 [0x45] LOAD_SCHEDULED_TASK: Load scheduler "kant" with entities [Unnamed NPC (ID: 17063967/0x0104601F), Unnamed NPC (ID: 17063967/0x0104601F)], work=[191*, 0*]
  4: 0x0536 [0x5B] LOAD_EXT_SCHEDULER: Load scheduler "thk1" with entities [Unnamed NPC (ID: 17063967/0x0104601F), Unnamed NPC (ID: 17063967/0x0104601F)], work=65*
  5: 0x0545 [0x1C] WAIT(30* ticks)
  6: 0x0548 [0x5B] LOAD_EXT_SCHEDULER: Load scheduler "tlk0" with entities [Unnamed NPC (ID: 17063968/0x01046020), Unnamed NPC (ID: 17063968/0x01046020)], work=30*
  7: 0x0557 [0x1C] WAIT(30* ticks)
  8: 0x055A [0x5B] LOAD_EXT_SCHEDULER: Load scheduler "thb1" with entities [Unnamed NPC (ID: 17063970/0x01046022), Unnamed NPC (ID: 17063970/0x01046022)], work=55*
  9: 0x0569 [0x1C] WAIT(30* ticks)
 10: 0x056C [0x5B] LOAD_EXT_SCHEDULER: Load scheduler "thk1" with entities [Unnamed NPC (ID: 17063969/0x01046021), Unnamed NPC (ID: 17063969/0x01046021)], work=0*
 11: 0x057B [0x1C] WAIT(30* ticks)
 12: 0x057E [0x6E] Unnamed NPC (ID: 17063971/0x01046023) uses emote 22*
 13: 0x0585 [0x99] Wait for Unnamed NPC (ID: 17063971/0x01046023) animation to complete
 14: 0x058A [0x1C] WAIT(90* ticks)
 15: 0x058D [0x45] LOAD_SCHEDULED_TASK: Load scheduler "fdo0" with entities [LocalPlayer, LocalPlayer], work=[200*, 0*]
 16: 0x059E [0x1C] WAIT(15* ticks)
 17: 0x05A1 [0x5B] LOAD_EXT_SCHEDULER: Load scheduler "tlk1" with entities [Unnamed NPC (ID: 17063968/0x01046020), Unnamed NPC (ID: 17063968/0x01046020)], work=30*
 18: 0x05B0 [0x5B] LOAD_EXT_SCHEDULER: Load scheduler "thk2" with entities [Unnamed NPC (ID: 17063967/0x0104601F), Unnamed NPC (ID: 17063967/0x0104601F)], work=65*
 19: 0x05BF [0x5B] LOAD_EXT_SCHEDULER: Load scheduler "thk2" with entities [Unnamed NPC (ID: 17063969/0x01046021), Unnamed NPC (ID: 17063969/0x01046021)], work=0*
 20: 0x05CE [0x5B] LOAD_EXT_SCHEDULER: Load scheduler "thb2" with entities [Unnamed NPC (ID: 17063970/0x01046022), Unnamed NPC (ID: 17063970/0x01046022)], work=55*
 21: 0x05DD [0x52] END_LOAD_SCHEDULER: End scheduler "s151" with entities [Unnamed NPC (ID: 17063970/0x01046022), Unnamed NPC (ID: 17063970/0x01046022)], work=192*
 22: 0x05EC [0x00] END_REQSTACK()
```

### Event 65535.10

#### Metadata

| Field        | Value     |
|--------------|-----------|
| Entrypoint   | 0x05ED    |
| Data Size    | 138 bytes |
| Instructions | 14        |

```
      00 01 02 03 04 05 06 07  08 09 0A 0B 0C 0D 0E 0F
      -- -- -- -- -- -- -- --  -- -- -- -- -- -- -- --
05E0:                                         45 04 80               E..
05F0: 1D 60 04 01 1D 60 04 01  73 31 35 35 01 80 1C 05  .`...`..s155....
0600: 80 45 06 80 F0 FF FF 7F  F0 FF FF 7F 66 64 69 30  .E..........fdi0
0610: 01 80 45 07 80 1D 60 04  01 1D 60 04 01 6B 61 6E  ..E...`...`..kan
0620: 74 01 80 6E 1A 60 04 01  08 80 99 1A 60 04 01 5B  t..n.`......`..[
0630: 11 80 1D 60 04 01 1D 60  04 01 6C 61 75 30 1C 0D  ...`...`..lau0..
0640: 80 5B 11 80 1D 60 04 01  1D 60 04 01 6C 61 75 31  .[...`...`..lau1
0650: 1C 0E 80 45 06 80 F0 FF  FF 7F F0 FF FF 7F 66 64  ...E..........fd
0660: 6F 30 01 80 1C 05 80 52  04 80 1D 60 04 01 1D 60  o0.....R...`...`
0670: 04 01 73 31 35 35 00                              ..s155.         
```

#### Opcodes

```
  0: 0x05ED [0x45] LOAD_SCHEDULED_TASK: Load scheduler "s155" with entities [Pieuje (ID: 17063965/0x0104601D), Pieuje (ID: 17063965/0x0104601D)], work=[192*, 0*]
  1: 0x05FE [0x1C] WAIT(15* ticks)
  2: 0x0601 [0x45] LOAD_SCHEDULED_TASK: Load scheduler "fdi0" with entities [LocalPlayer, LocalPlayer], work=[200*, 0*]
  3: 0x0612 [0x45] LOAD_SCHEDULED_TASK: Load scheduler "kant" with entities [Pieuje (ID: 17063965/0x0104601D), Pieuje (ID: 17063965/0x0104601D)], work=[191*, 0*]
  4: 0x0623 [0x6E] Goccilo (ID: 17063962/0x0104601A) uses emote 11*
  5: 0x062A [0x99] Wait for Goccilo (ID: 17063962/0x0104601A) animation to complete
  6: 0x062F [0x5B] LOAD_EXT_SCHEDULER: Load scheduler "lau0" with entities [Pieuje (ID: 17063965/0x0104601D), Pieuje (ID: 17063965/0x0104601D)], work=120*
  7: 0x063E [0x1C] WAIT(90* ticks)
  8: 0x0641 [0x5B] LOAD_EXT_SCHEDULER: Load scheduler "lau1" with entities [Pieuje (ID: 17063965/0x0104601D), Pieuje (ID: 17063965/0x0104601D)], work=120*
  9: 0x0650 [0x1C] WAIT(30* ticks)
 10: 0x0653 [0x45] LOAD_SCHEDULED_TASK: Load scheduler "fdo0" with entities [LocalPlayer, LocalPlayer], work=[200*, 0*]
 11: 0x0664 [0x1C] WAIT(15* ticks)
 12: 0x0667 [0x52] END_LOAD_SCHEDULER: End scheduler "s155" with entities [Pieuje (ID: 17063965/0x0104601D), Pieuje (ID: 17063965/0x0104601D)], work=192*
 13: 0x0676 [0x00] END_REQSTACK()
```

### Event 65535.11

#### Metadata

| Field        | Value     |
|--------------|-----------|
| Entrypoint   | 0x0677    |
| Data Size    | 138 bytes |
| Instructions | 14        |

```
      00 01 02 03 04 05 06 07  08 09 0A 0B 0C 0D 0E 0F
      -- -- -- -- -- -- -- --  -- -- -- -- -- -- -- --
0670:                      45  04 80 1D 60 04 01 1D 60         E...`...`
0680: 04 01 73 31 35 36 01 80  1C 05 80 45 06 80 F0 FF  ..s156.....E....
0690: FF 7F F0 FF FF 7F 66 64  69 30 01 80 45 07 80 1D  ......fdi0..E...
06A0: 60 04 01 1D 60 04 01 6B  61 6E 74 01 80 5B 11 80  `...`..kant..[..
06B0: 1D 60 04 01 1D 60 04 01  61 72 61 30 6E 1A 60 04  .`...`..ara0n.`.
06C0: 01 0F 80 99 1A 60 04 01  1C 0D 80 5B 11 80 1D 60  .....`.....[...`
06D0: 04 01 1D 60 04 01 61 72  61 31 1C 0E 80 45 06 80  ...`..ara1...E..
06E0: F0 FF FF 7F F0 FF FF 7F  66 64 6F 30 01 80 1C 05  ........fdo0....
06F0: 80 52 04 80 1D 60 04 01  1D 60 04 01 73 31 35 36  .R...`...`..s156
0700: 00                                                .               
```

#### Opcodes

```
  0: 0x0677 [0x45] LOAD_SCHEDULED_TASK: Load scheduler "s156" with entities [Pieuje (ID: 17063965/0x0104601D), Pieuje (ID: 17063965/0x0104601D)], work=[192*, 0*]
  1: 0x0688 [0x1C] WAIT(15* ticks)
  2: 0x068B [0x45] LOAD_SCHEDULED_TASK: Load scheduler "fdi0" with entities [LocalPlayer, LocalPlayer], work=[200*, 0*]
  3: 0x069C [0x45] LOAD_SCHEDULED_TASK: Load scheduler "kant" with entities [Pieuje (ID: 17063965/0x0104601D), Pieuje (ID: 17063965/0x0104601D)], work=[191*, 0*]
  4: 0x06AD [0x5B] LOAD_EXT_SCHEDULER: Load scheduler "ara0" with entities [Pieuje (ID: 17063965/0x0104601D), Pieuje (ID: 17063965/0x0104601D)], work=120*
  5: 0x06BC [0x6E] Goccilo (ID: 17063962/0x0104601A) uses emote 12*
  6: 0x06C3 [0x99] Wait for Goccilo (ID: 17063962/0x0104601A) animation to complete
  7: 0x06C8 [0x1C] WAIT(90* ticks)
  8: 0x06CB [0x5B] LOAD_EXT_SCHEDULER: Load scheduler "ara1" with entities [Pieuje (ID: 17063965/0x0104601D), Pieuje (ID: 17063965/0x0104601D)], work=120*
  9: 0x06DA [0x1C] WAIT(30* ticks)
 10: 0x06DD [0x45] LOAD_SCHEDULED_TASK: Load scheduler "fdo0" with entities [LocalPlayer, LocalPlayer], work=[200*, 0*]
 11: 0x06EE [0x1C] WAIT(15* ticks)
 12: 0x06F1 [0x52] END_LOAD_SCHEDULER: End scheduler "s156" with entities [Pieuje (ID: 17063965/0x0104601D), Pieuje (ID: 17063965/0x0104601D)], work=192*
 13: 0x0700 [0x00] END_REQSTACK()
```

### Event 65535.12

#### Metadata

| Field        | Value     |
|--------------|-----------|
| Entrypoint   | 0x0701    |
| Data Size    | 138 bytes |
| Instructions | 14        |

```
      00 01 02 03 04 05 06 07  08 09 0A 0B 0C 0D 0E 0F
      -- -- -- -- -- -- -- --  -- -- -- -- -- -- -- --
0700:    45 04 80 1D 60 04 01  1D 60 04 01 73 31 35 37   E...`...`..s157
0710: 01 80 1C 05 80 45 06 80  F0 FF FF 7F F0 FF FF 7F  .....E..........
0720: 66 64 69 30 01 80 45 07  80 1D 60 04 01 1D 60 04  fdi0..E...`...`.
0730: 01 6B 61 6E 74 01 80 6E  1A 60 04 01 10 80 99 1A  .kant..n.`......
0740: 60 04 01 1C 0E 80 5B 17  80 1D 60 04 01 1D 60 04  `.....[...`...`.
0750: 01 74 68 6B 30 1C 11 80  45 06 80 F0 FF FF 7F F0  .thk0...E.......
0760: FF FF 7F 66 64 6F 30 01  80 1C 05 80 5B 17 80 1D  ...fdo0.....[...
0770: 60 04 01 1D 60 04 01 74  68 6B 31 52 04 80 1D 60  `...`..thk1R...`
0780: 04 01 1D 60 04 01 73 31  35 37 00                 ...`..s157.     
```

#### Opcodes

```
  0: 0x0701 [0x45] LOAD_SCHEDULED_TASK: Load scheduler "s157" with entities [Pieuje (ID: 17063965/0x0104601D), Pieuje (ID: 17063965/0x0104601D)], work=[192*, 0*]
  1: 0x0712 [0x1C] WAIT(15* ticks)
  2: 0x0715 [0x45] LOAD_SCHEDULED_TASK: Load scheduler "fdi0" with entities [LocalPlayer, LocalPlayer], work=[200*, 0*]
  3: 0x0726 [0x45] LOAD_SCHEDULED_TASK: Load scheduler "kant" with entities [Pieuje (ID: 17063965/0x0104601D), Pieuje (ID: 17063965/0x0104601D)], work=[191*, 0*]
  4: 0x0737 [0x6E] Goccilo (ID: 17063962/0x0104601A) uses emote 32*
  5: 0x073E [0x99] Wait for Goccilo (ID: 17063962/0x0104601A) animation to complete
  6: 0x0743 [0x1C] WAIT(30* ticks)
  7: 0x0746 [0x5B] LOAD_EXT_SCHEDULER: Load scheduler "thk0" with entities [Pieuje (ID: 17063965/0x0104601D), Pieuje (ID: 17063965/0x0104601D)], work=121*
  8: 0x0755 [0x1C] WAIT(120* ticks)
  9: 0x0758 [0x45] LOAD_SCHEDULED_TASK: Load scheduler "fdo0" with entities [LocalPlayer, LocalPlayer], work=[200*, 0*]
 10: 0x0769 [0x1C] WAIT(15* ticks)
 11: 0x076C [0x5B] LOAD_EXT_SCHEDULER: Load scheduler "thk1" with entities [Pieuje (ID: 17063965/0x0104601D), Pieuje (ID: 17063965/0x0104601D)], work=121*
 12: 0x077B [0x52] END_LOAD_SCHEDULER: End scheduler "s157" with entities [Pieuje (ID: 17063965/0x0104601D), Pieuje (ID: 17063965/0x0104601D)], work=192*
 13: 0x078A [0x00] END_REQSTACK()
```

### Event 65535.13

#### Metadata

| Field        | Value     |
|--------------|-----------|
| Entrypoint   | 0x078B    |
| Data Size    | 156 bytes |
| Instructions | 14        |

```
      00 01 02 03 04 05 06 07  08 09 0A 0B 0C 0D 0E 0F
      -- -- -- -- -- -- -- --  -- -- -- -- -- -- -- --
0780:                                   45 04 80 1D 60             E...`
0790: 04 01 1D 60 04 01 73 31  35 38 01 80 1C 05 80 45  ...`..s158.....E
07A0: 06 80 F0 FF FF 7F F0 FF  FF 7F 66 64 69 30 01 80  ..........fdi0..
07B0: 45 07 80 1D 60 04 01 1D  60 04 01 6B 61 6E 74 01  E...`...`..kant.
07C0: 80 66 12 80 1A 60 04 01  1A 60 04 01 74 6C 6B 30  .f...`...`..tlk0
07D0: 1C 0D 80 66 12 80 1A 60  04 01 1A 60 04 01 74 6C  ...f...`...`..tl
07E0: 6B 31 5B 11 80 1D 60 04  01 1D 60 04 01 74 6C 6B  k1[...`...`..tlk
07F0: 30 1C 11 80 45 06 80 F0  FF FF 7F F0 FF FF 7F 66  0...E..........f
0800: 64 6F 30 01 80 1C 05 80  5B 11 80 1D 60 04 01 1D  do0.....[...`...
0810: 60 04 01 74 6C 6B 31 52  04 80 1D 60 04 01 1D 60  `..tlk1R...`...`
0820: 04 01 73 31 35 38 00                              ..s158.         
```

#### Opcodes

```
  0: 0x078B [0x45] LOAD_SCHEDULED_TASK: Load scheduler "s158" with entities [Pieuje (ID: 17063965/0x0104601D), Pieuje (ID: 17063965/0x0104601D)], work=[192*, 0*]
  1: 0x079C [0x1C] WAIT(15* ticks)
  2: 0x079F [0x45] LOAD_SCHEDULED_TASK: Load scheduler "fdi0" with entities [LocalPlayer, LocalPlayer], work=[200*, 0*]
  3: 0x07B0 [0x45] LOAD_SCHEDULED_TASK: Load scheduler "kant" with entities [Pieuje (ID: 17063965/0x0104601D), Pieuje (ID: 17063965/0x0104601D)], work=[191*, 0*]
  4: 0x07C1 [0x66] LOAD_EXT_SCHEDULER_MAIN: Load scheduler "tlk0" with entities [Goccilo (ID: 17063962/0x0104601A), Goccilo (ID: 17063962/0x0104601A)], work=69*
  5: 0x07D0 [0x1C] WAIT(90* ticks)
  6: 0x07D3 [0x66] LOAD_EXT_SCHEDULER_MAIN: Load scheduler "tlk1" with entities [Goccilo (ID: 17063962/0x0104601A), Goccilo (ID: 17063962/0x0104601A)], work=69*
  7: 0x07E2 [0x5B] LOAD_EXT_SCHEDULER: Load scheduler "tlk0" with entities [Pieuje (ID: 17063965/0x0104601D), Pieuje (ID: 17063965/0x0104601D)], work=120*
  8: 0x07F1 [0x1C] WAIT(120* ticks)
  9: 0x07F4 [0x45] LOAD_SCHEDULED_TASK: Load scheduler "fdo0" with entities [LocalPlayer, LocalPlayer], work=[200*, 0*]
 10: 0x0805 [0x1C] WAIT(15* ticks)
 11: 0x0808 [0x5B] LOAD_EXT_SCHEDULER: Load scheduler "tlk1" with entities [Pieuje (ID: 17063965/0x0104601D), Pieuje (ID: 17063965/0x0104601D)], work=120*
 12: 0x0817 [0x52] END_LOAD_SCHEDULER: End scheduler "s158" with entities [Pieuje (ID: 17063965/0x0104601D), Pieuje (ID: 17063965/0x0104601D)], work=192*
 13: 0x0826 [0x00] END_REQSTACK()
```

### Event 65535.14

#### Metadata

| Field        | Value     |
|--------------|-----------|
| Entrypoint   | 0x0827    |
| Data Size    | 135 bytes |
| Instructions | 13        |

```
      00 01 02 03 04 05 06 07  08 09 0A 0B 0C 0D 0E 0F
      -- -- -- -- -- -- -- --  -- -- -- -- -- -- -- --
0820:                      45  04 80 1D 60 04 01 1D 60         E...`...`
0830: 04 01 73 31 35 39 01 80  1C 05 80 45 06 80 F0 FF  ..s159.....E....
0840: FF 7F F0 FF FF 7F 66 64  69 30 01 80 45 07 80 1D  ......fdi0..E...
0850: 60 04 01 1D 60 04 01 6B  61 6E 74 01 80 6E 1A 60  `...`..kant..n.`
0860: 04 01 08 80 99 1A 60 04  01 5B 18 80 1D 60 04 01  ......`..[...`..
0870: 1D 60 04 01 74 65 72 30  1C 11 80 45 06 80 F0 FF  .`..ter0...E....
0880: FF 7F F0 FF FF 7F 66 64  6F 30 01 80 1C 05 80 5B  ......fdo0.....[
0890: 18 80 1D 60 04 01 1D 60  04 01 74 65 72 31 52 04  ...`...`..ter1R.
08A0: 80 1D 60 04 01 1D 60 04  01 73 31 35 39 00        ..`...`..s159.  
```

#### Opcodes

```
  0: 0x0827 [0x45] LOAD_SCHEDULED_TASK: Load scheduler "s159" with entities [Pieuje (ID: 17063965/0x0104601D), Pieuje (ID: 17063965/0x0104601D)], work=[192*, 0*]
  1: 0x0838 [0x1C] WAIT(15* ticks)
  2: 0x083B [0x45] LOAD_SCHEDULED_TASK: Load scheduler "fdi0" with entities [LocalPlayer, LocalPlayer], work=[200*, 0*]
  3: 0x084C [0x45] LOAD_SCHEDULED_TASK: Load scheduler "kant" with entities [Pieuje (ID: 17063965/0x0104601D), Pieuje (ID: 17063965/0x0104601D)], work=[191*, 0*]
  4: 0x085D [0x6E] Goccilo (ID: 17063962/0x0104601A) uses emote 11*
  5: 0x0864 [0x99] Wait for Goccilo (ID: 17063962/0x0104601A) animation to complete
  6: 0x0869 [0x5B] LOAD_EXT_SCHEDULER: Load scheduler "ter0" with entities [Pieuje (ID: 17063965/0x0104601D), Pieuje (ID: 17063965/0x0104601D)], work=111*
  7: 0x0878 [0x1C] WAIT(120* ticks)
  8: 0x087B [0x45] LOAD_SCHEDULED_TASK: Load scheduler "fdo0" with entities [LocalPlayer, LocalPlayer], work=[200*, 0*]
  9: 0x088C [0x1C] WAIT(15* ticks)
 10: 0x088F [0x5B] LOAD_EXT_SCHEDULER: Load scheduler "ter1" with entities [Pieuje (ID: 17063965/0x0104601D), Pieuje (ID: 17063965/0x0104601D)], work=111*
 11: 0x089E [0x52] END_LOAD_SCHEDULER: End scheduler "s159" with entities [Pieuje (ID: 17063965/0x0104601D), Pieuje (ID: 17063965/0x0104601D)], work=192*
 12: 0x08AD [0x00] END_REQSTACK()
```

### Event 65535.15

#### Metadata

| Field        | Value     |
|--------------|-----------|
| Entrypoint   | 0x08AE    |
| Data Size    | 117 bytes |
| Instructions | 11        |

```
      00 01 02 03 04 05 06 07  08 09 0A 0B 0C 0D 0E 0F
      -- -- -- -- -- -- -- --  -- -- -- -- -- -- -- --
08A0:                                            45 04                E.
08B0: 80 1D 60 04 01 1D 60 04  01 73 31 36 30 01 80 45  ..`...`..s160..E
08C0: 06 80 F0 FF FF 7F F0 FF  FF 7F 66 64 69 30 01 80  ..........fdi0..
08D0: 45 07 80 1D 60 04 01 1D  60 04 01 6B 61 6E 74 01  E...`...`..kant.
08E0: 80 6E 1A 60 04 01 0F 80  99 1A 60 04 01 5B 19 80  .n.`......`..[..
08F0: 1D 60 04 01 1D 60 04 01  73 69 6A 30 1C 11 80 45  .`...`..sij0...E
0900: 06 80 F0 FF FF 7F F0 FF  FF 7F 66 64 6F 30 01 80  ..........fdo0..
0910: 1C 05 80 52 04 80 1D 60  04 01 1D 60 04 01 73 31  ...R...`...`..s1
0920: 36 30 00                                          60.             
```

#### Opcodes

```
  0: 0x08AE [0x45] LOAD_SCHEDULED_TASK: Load scheduler "s160" with entities [Pieuje (ID: 17063965/0x0104601D), Pieuje (ID: 17063965/0x0104601D)], work=[192*, 0*]
  1: 0x08BF [0x45] LOAD_SCHEDULED_TASK: Load scheduler "fdi0" with entities [LocalPlayer, LocalPlayer], work=[200*, 0*]
  2: 0x08D0 [0x45] LOAD_SCHEDULED_TASK: Load scheduler "kant" with entities [Pieuje (ID: 17063965/0x0104601D), Pieuje (ID: 17063965/0x0104601D)], work=[191*, 0*]
  3: 0x08E1 [0x6E] Goccilo (ID: 17063962/0x0104601A) uses emote 12*
  4: 0x08E8 [0x99] Wait for Goccilo (ID: 17063962/0x0104601A) animation to complete
  5: 0x08ED [0x5B] LOAD_EXT_SCHEDULER: Load scheduler "sij0" with entities [Pieuje (ID: 17063965/0x0104601D), Pieuje (ID: 17063965/0x0104601D)], work=110*
  6: 0x08FC [0x1C] WAIT(120* ticks)
  7: 0x08FF [0x45] LOAD_SCHEDULED_TASK: Load scheduler "fdo0" with entities [LocalPlayer, LocalPlayer], work=[200*, 0*]
  8: 0x0910 [0x1C] WAIT(15* ticks)
  9: 0x0913 [0x52] END_LOAD_SCHEDULER: End scheduler "s160" with entities [Pieuje (ID: 17063965/0x0104601D), Pieuje (ID: 17063965/0x0104601D)], work=192*
 10: 0x0922 [0x00] END_REQSTACK()
```

### Event 65535.16

#### Metadata

| Field        | Value     |
|--------------|-----------|
| Entrypoint   | 0x0923    |
| Data Size    | 138 bytes |
| Instructions | 14        |

```
      00 01 02 03 04 05 06 07  08 09 0A 0B 0C 0D 0E 0F
      -- -- -- -- -- -- -- --  -- -- -- -- -- -- -- --
0920:          45 04 80 1D 60  04 01 1D 60 04 01 73 31     E...`...`..s1
0930: 36 31 01 80 1C 05 80 45  06 80 F0 FF FF 7F F0 FF  61.....E........
0940: FF 7F 66 64 69 30 01 80  45 07 80 1D 60 04 01 1D  ..fdi0..E...`...
0950: 60 04 01 6B 61 6E 74 01  80 6E 1A 60 04 01 10 80  `..kant..n.`....
0960: 99 1A 60 04 01 1C 0E 80  5B 19 80 1D 60 04 01 1D  ..`.....[...`...
0970: 60 04 01 74 68 6B 31 1C  11 80 45 06 80 F0 FF FF  `..thk1...E.....
0980: 7F F0 FF FF 7F 66 64 6F  30 01 80 1C 05 80 5B 19  .....fdo0.....[.
0990: 80 1D 60 04 01 1D 60 04  01 74 68 6B 32 52 04 80  ..`...`..thk2R..
09A0: 1D 60 04 01 1D 60 04 01  73 31 36 31 00           .`...`..s161.   
```

#### Opcodes

```
  0: 0x0923 [0x45] LOAD_SCHEDULED_TASK: Load scheduler "s161" with entities [Pieuje (ID: 17063965/0x0104601D), Pieuje (ID: 17063965/0x0104601D)], work=[192*, 0*]
  1: 0x0934 [0x1C] WAIT(15* ticks)
  2: 0x0937 [0x45] LOAD_SCHEDULED_TASK: Load scheduler "fdi0" with entities [LocalPlayer, LocalPlayer], work=[200*, 0*]
  3: 0x0948 [0x45] LOAD_SCHEDULED_TASK: Load scheduler "kant" with entities [Pieuje (ID: 17063965/0x0104601D), Pieuje (ID: 17063965/0x0104601D)], work=[191*, 0*]
  4: 0x0959 [0x6E] Goccilo (ID: 17063962/0x0104601A) uses emote 32*
  5: 0x0960 [0x99] Wait for Goccilo (ID: 17063962/0x0104601A) animation to complete
  6: 0x0965 [0x1C] WAIT(30* ticks)
  7: 0x0968 [0x5B] LOAD_EXT_SCHEDULER: Load scheduler "thk1" with entities [Pieuje (ID: 17063965/0x0104601D), Pieuje (ID: 17063965/0x0104601D)], work=110*
  8: 0x0977 [0x1C] WAIT(120* ticks)
  9: 0x097A [0x45] LOAD_SCHEDULED_TASK: Load scheduler "fdo0" with entities [LocalPlayer, LocalPlayer], work=[200*, 0*]
 10: 0x098B [0x1C] WAIT(15* ticks)
 11: 0x098E [0x5B] LOAD_EXT_SCHEDULER: Load scheduler "thk2" with entities [Pieuje (ID: 17063965/0x0104601D), Pieuje (ID: 17063965/0x0104601D)], work=110*
 12: 0x099D [0x52] END_LOAD_SCHEDULER: End scheduler "s161" with entities [Pieuje (ID: 17063965/0x0104601D), Pieuje (ID: 17063965/0x0104601D)], work=192*
 13: 0x09AC [0x00] END_REQSTACK()
```

### Event 65535.17

#### Metadata

| Field        | Value     |
|--------------|-----------|
| Entrypoint   | 0x09AD    |
| Data Size    | 156 bytes |
| Instructions | 14        |

```
      00 01 02 03 04 05 06 07  08 09 0A 0B 0C 0D 0E 0F
      -- -- -- -- -- -- -- --  -- -- -- -- -- -- -- --
09A0:                                         45 04 80               E..
09B0: 1D 60 04 01 1D 60 04 01  73 31 36 32 01 80 1C 05  .`...`..s162....
09C0: 80 45 06 80 F0 FF FF 7F  F0 FF FF 7F 66 64 69 30  .E..........fdi0
09D0: 01 80 45 07 80 1D 60 04  01 1D 60 04 01 6B 61 6E  ..E...`...`..kan
09E0: 74 01 80 66 12 80 1A 60  04 01 1A 60 04 01 74 6C  t..f...`...`..tl
09F0: 6B 30 1C 0D 80 66 12 80  1A 60 04 01 1A 60 04 01  k0...f...`...`..
0A00: 74 6C 6B 31 5B 19 80 1D  60 04 01 1D 60 04 01 74  tlk1[...`...`..t
0A10: 6C 6B 30 1C 0D 80 45 06  80 F0 FF FF 7F F0 FF FF  lk0...E.........
0A20: 7F 66 64 6F 30 01 80 1C  05 80 5B 19 80 1D 60 04  .fdo0.....[...`.
0A30: 01 1D 60 04 01 74 6C 6B  31 52 04 80 1D 60 04 01  ..`..tlk1R...`..
0A40: 1D 60 04 01 73 31 36 32  00                       .`..s162.       
```

#### Opcodes

```
  0: 0x09AD [0x45] LOAD_SCHEDULED_TASK: Load scheduler "s162" with entities [Pieuje (ID: 17063965/0x0104601D), Pieuje (ID: 17063965/0x0104601D)], work=[192*, 0*]
  1: 0x09BE [0x1C] WAIT(15* ticks)
  2: 0x09C1 [0x45] LOAD_SCHEDULED_TASK: Load scheduler "fdi0" with entities [LocalPlayer, LocalPlayer], work=[200*, 0*]
  3: 0x09D2 [0x45] LOAD_SCHEDULED_TASK: Load scheduler "kant" with entities [Pieuje (ID: 17063965/0x0104601D), Pieuje (ID: 17063965/0x0104601D)], work=[191*, 0*]
  4: 0x09E3 [0x66] LOAD_EXT_SCHEDULER_MAIN: Load scheduler "tlk0" with entities [Goccilo (ID: 17063962/0x0104601A), Goccilo (ID: 17063962/0x0104601A)], work=69*
  5: 0x09F2 [0x1C] WAIT(90* ticks)
  6: 0x09F5 [0x66] LOAD_EXT_SCHEDULER_MAIN: Load scheduler "tlk1" with entities [Goccilo (ID: 17063962/0x0104601A), Goccilo (ID: 17063962/0x0104601A)], work=69*
  7: 0x0A04 [0x5B] LOAD_EXT_SCHEDULER: Load scheduler "tlk0" with entities [Pieuje (ID: 17063965/0x0104601D), Pieuje (ID: 17063965/0x0104601D)], work=110*
  8: 0x0A13 [0x1C] WAIT(90* ticks)
  9: 0x0A16 [0x45] LOAD_SCHEDULED_TASK: Load scheduler "fdo0" with entities [LocalPlayer, LocalPlayer], work=[200*, 0*]
 10: 0x0A27 [0x1C] WAIT(15* ticks)
 11: 0x0A2A [0x5B] LOAD_EXT_SCHEDULER: Load scheduler "tlk1" with entities [Pieuje (ID: 17063965/0x0104601D), Pieuje (ID: 17063965/0x0104601D)], work=110*
 12: 0x0A39 [0x52] END_LOAD_SCHEDULER: End scheduler "s162" with entities [Pieuje (ID: 17063965/0x0104601D), Pieuje (ID: 17063965/0x0104601D)], work=192*
 13: 0x0A48 [0x00] END_REQSTACK()
```

### Event 65535.18

#### Metadata

| Field        | Value     |
|--------------|-----------|
| Entrypoint   | 0x0A49    |
| Data Size    | 123 bytes |
| Instructions | 13        |

```
      00 01 02 03 04 05 06 07  08 09 0A 0B 0C 0D 0E 0F
      -- -- -- -- -- -- -- --  -- -- -- -- -- -- -- --
0A40:                             45 04 80 1E 60 04 01           E...`..
0A50: 1E 60 04 01 73 31 36 33  01 80 1C 05 80 45 06 80  .`..s163.....E..
0A60: F0 FF FF 7F F0 FF FF 7F  66 64 69 30 01 80 45 07  ........fdi0..E.
0A70: 80 1E 60 04 01 1E 60 04  01 6B 61 6E 74 01 80 6E  ..`...`..kant..n
0A80: 1A 60 04 01 08 80 99 1A  60 04 01 1C 0E 80 66 1A  .`......`.....f.
0A90: 80 1E 60 04 01 1E 60 04  01 77 61 69 30 1C 0D 80  ..`...`..wai0...
0AA0: 45 06 80 F0 FF FF 7F F0  FF FF 7F 66 64 6F 30 01  E..........fdo0.
0AB0: 80 1C 05 80 52 04 80 1E  60 04 01 1E 60 04 01 73  ....R...`...`..s
0AC0: 31 36 33 00                                       163.            
```

#### Opcodes

```
  0: 0x0A49 [0x45] LOAD_SCHEDULED_TASK: Load scheduler "s163" with entities [Kupipi (ID: 17063966/0x0104601E), Kupipi (ID: 17063966/0x0104601E)], work=[192*, 0*]
  1: 0x0A5A [0x1C] WAIT(15* ticks)
  2: 0x0A5D [0x45] LOAD_SCHEDULED_TASK: Load scheduler "fdi0" with entities [LocalPlayer, LocalPlayer], work=[200*, 0*]
  3: 0x0A6E [0x45] LOAD_SCHEDULED_TASK: Load scheduler "kant" with entities [Kupipi (ID: 17063966/0x0104601E), Kupipi (ID: 17063966/0x0104601E)], work=[191*, 0*]
  4: 0x0A7F [0x6E] Goccilo (ID: 17063962/0x0104601A) uses emote 11*
  5: 0x0A86 [0x99] Wait for Goccilo (ID: 17063962/0x0104601A) animation to complete
  6: 0x0A8B [0x1C] WAIT(30* ticks)
  7: 0x0A8E [0x66] LOAD_EXT_SCHEDULER_MAIN: Load scheduler "wai0" with entities [Kupipi (ID: 17063966/0x0104601E), Kupipi (ID: 17063966/0x0104601E)], work=40*
  8: 0x0A9D [0x1C] WAIT(90* ticks)
  9: 0x0AA0 [0x45] LOAD_SCHEDULED_TASK: Load scheduler "fdo0" with entities [LocalPlayer, LocalPlayer], work=[200*, 0*]
 10: 0x0AB1 [0x1C] WAIT(15* ticks)
 11: 0x0AB4 [0x52] END_LOAD_SCHEDULER: End scheduler "s163" with entities [Kupipi (ID: 17063966/0x0104601E), Kupipi (ID: 17063966/0x0104601E)], work=192*
 12: 0x0AC3 [0x00] END_REQSTACK()
```

### Event 65535.19

#### Metadata

| Field        | Value     |
|--------------|-----------|
| Entrypoint   | 0x0AC4    |
| Data Size    | 120 bytes |
| Instructions | 12        |

```
      00 01 02 03 04 05 06 07  08 09 0A 0B 0C 0D 0E 0F
      -- -- -- -- -- -- -- --  -- -- -- -- -- -- -- --
0AC0:             45 04 80 1E  60 04 01 1E 60 04 01 73      E...`...`..s
0AD0: 31 36 34 01 80 1C 05 80  45 06 80 F0 FF FF 7F F0  164.....E.......
0AE0: FF FF 7F 66 64 69 30 01  80 45 07 80 1E 60 04 01  ...fdi0..E...`..
0AF0: 1E 60 04 01 6B 61 6E 74  01 80 6E 1A 60 04 01 0F  .`..kant..n.`...
0B00: 80 99 1A 60 04 01 66 1A  80 1E 60 04 01 1E 60 04  ...`..f...`...`.
0B10: 01 73 79 75 30 1C 11 80  45 06 80 F0 FF FF 7F F0  .syu0...E.......
0B20: FF FF 7F 66 64 6F 30 01  80 1C 05 80 52 04 80 1E  ...fdo0.....R...
0B30: 60 04 01 1E 60 04 01 73  31 36 34 00              `...`..s164.    
```

#### Opcodes

```
  0: 0x0AC4 [0x45] LOAD_SCHEDULED_TASK: Load scheduler "s164" with entities [Kupipi (ID: 17063966/0x0104601E), Kupipi (ID: 17063966/0x0104601E)], work=[192*, 0*]
  1: 0x0AD5 [0x1C] WAIT(15* ticks)
  2: 0x0AD8 [0x45] LOAD_SCHEDULED_TASK: Load scheduler "fdi0" with entities [LocalPlayer, LocalPlayer], work=[200*, 0*]
  3: 0x0AE9 [0x45] LOAD_SCHEDULED_TASK: Load scheduler "kant" with entities [Kupipi (ID: 17063966/0x0104601E), Kupipi (ID: 17063966/0x0104601E)], work=[191*, 0*]
  4: 0x0AFA [0x6E] Goccilo (ID: 17063962/0x0104601A) uses emote 12*
  5: 0x0B01 [0x99] Wait for Goccilo (ID: 17063962/0x0104601A) animation to complete
  6: 0x0B06 [0x66] LOAD_EXT_SCHEDULER_MAIN: Load scheduler "syu0" with entities [Kupipi (ID: 17063966/0x0104601E), Kupipi (ID: 17063966/0x0104601E)], work=40*
  7: 0x0B15 [0x1C] WAIT(120* ticks)
  8: 0x0B18 [0x45] LOAD_SCHEDULED_TASK: Load scheduler "fdo0" with entities [LocalPlayer, LocalPlayer], work=[200*, 0*]
  9: 0x0B29 [0x1C] WAIT(15* ticks)
 10: 0x0B2C [0x52] END_LOAD_SCHEDULER: End scheduler "s164" with entities [Kupipi (ID: 17063966/0x0104601E), Kupipi (ID: 17063966/0x0104601E)], work=192*
 11: 0x0B3B [0x00] END_REQSTACK()
```

### Event 65535.20

#### Metadata

| Field        | Value     |
|--------------|-----------|
| Entrypoint   | 0x0B3C    |
| Data Size    | 123 bytes |
| Instructions | 13        |

```
      00 01 02 03 04 05 06 07  08 09 0A 0B 0C 0D 0E 0F
      -- -- -- -- -- -- -- --  -- -- -- -- -- -- -- --
0B30:                                      45 04 80 1E              E...
0B40: 60 04 01 1E 60 04 01 73  31 36 35 01 80 1C 05 80  `...`..s165.....
0B50: 45 06 80 F0 FF FF 7F F0  FF FF 7F 66 64 69 30 01  E..........fdi0.
0B60: 80 45 07 80 1E 60 04 01  1E 60 04 01 6B 61 6E 74  .E...`...`..kant
0B70: 01 80 6E 1A 60 04 01 10  80 99 1A 60 04 01 1C 0E  ..n.`......`....
0B80: 80 66 1B 80 1E 60 04 01  1E 60 04 01 6E 6D 6F 30  .f...`...`..nmo0
0B90: 1C 11 80 45 06 80 F0 FF  FF 7F F0 FF FF 7F 66 64  ...E..........fd
0BA0: 6F 30 01 80 1C 05 80 52  04 80 1E 60 04 01 1E 60  o0.....R...`...`
0BB0: 04 01 73 31 36 35 00                              ..s165.         
```

#### Opcodes

```
  0: 0x0B3C [0x45] LOAD_SCHEDULED_TASK: Load scheduler "s165" with entities [Kupipi (ID: 17063966/0x0104601E), Kupipi (ID: 17063966/0x0104601E)], work=[192*, 0*]
  1: 0x0B4D [0x1C] WAIT(15* ticks)
  2: 0x0B50 [0x45] LOAD_SCHEDULED_TASK: Load scheduler "fdi0" with entities [LocalPlayer, LocalPlayer], work=[200*, 0*]
  3: 0x0B61 [0x45] LOAD_SCHEDULED_TASK: Load scheduler "kant" with entities [Kupipi (ID: 17063966/0x0104601E), Kupipi (ID: 17063966/0x0104601E)], work=[191*, 0*]
  4: 0x0B72 [0x6E] Goccilo (ID: 17063962/0x0104601A) uses emote 32*
  5: 0x0B79 [0x99] Wait for Goccilo (ID: 17063962/0x0104601A) animation to complete
  6: 0x0B7E [0x1C] WAIT(30* ticks)
  7: 0x0B81 [0x66] LOAD_EXT_SCHEDULER_MAIN: Load scheduler "nmo0" with entities [Kupipi (ID: 17063966/0x0104601E), Kupipi (ID: 17063966/0x0104601E)], work=42*
  8: 0x0B90 [0x1C] WAIT(120* ticks)
  9: 0x0B93 [0x45] LOAD_SCHEDULED_TASK: Load scheduler "fdo0" with entities [LocalPlayer, LocalPlayer], work=[200*, 0*]
 10: 0x0BA4 [0x1C] WAIT(15* ticks)
 11: 0x0BA7 [0x52] END_LOAD_SCHEDULER: End scheduler "s165" with entities [Kupipi (ID: 17063966/0x0104601E), Kupipi (ID: 17063966/0x0104601E)], work=192*
 12: 0x0BB6 [0x00] END_REQSTACK()
```

### Event 65535.21

#### Metadata

| Field        | Value     |
|--------------|-----------|
| Entrypoint   | 0x0BB7    |
| Data Size    | 156 bytes |
| Instructions | 14        |

```
      00 01 02 03 04 05 06 07  08 09 0A 0B 0C 0D 0E 0F
      -- -- -- -- -- -- -- --  -- -- -- -- -- -- -- --
0BB0:                      45  04 80 1E 60 04 01 1E 60         E...`...`
0BC0: 04 01 73 31 36 36 01 80  1C 05 80 45 06 80 F0 FF  ..s166.....E....
0BD0: FF 7F F0 FF FF 7F 66 64  69 30 01 80 45 07 80 1E  ......fdi0..E...
0BE0: 60 04 01 1E 60 04 01 6B  61 6E 74 01 80 66 12 80  `...`..kant..f..
0BF0: 1A 60 04 01 1A 60 04 01  74 6C 6B 30 1C 0D 80 66  .`...`..tlk0...f
0C00: 12 80 1A 60 04 01 1A 60  04 01 74 6C 6B 31 66 1A  ...`...`..tlk1f.
0C10: 80 1E 60 04 01 1E 60 04  01 74 6C 6B 30 1C 0D 80  ..`...`..tlk0...
0C20: 66 1A 80 1E 60 04 01 1E  60 04 01 74 6C 6B 31 45  f...`...`..tlk1E
0C30: 06 80 F0 FF FF 7F F0 FF  FF 7F 66 64 6F 30 01 80  ..........fdo0..
0C40: 1C 05 80 52 04 80 1E 60  04 01 1E 60 04 01 73 31  ...R...`...`..s1
0C50: 36 36 00                                          66.             
```

#### Opcodes

```
  0: 0x0BB7 [0x45] LOAD_SCHEDULED_TASK: Load scheduler "s166" with entities [Kupipi (ID: 17063966/0x0104601E), Kupipi (ID: 17063966/0x0104601E)], work=[192*, 0*]
  1: 0x0BC8 [0x1C] WAIT(15* ticks)
  2: 0x0BCB [0x45] LOAD_SCHEDULED_TASK: Load scheduler "fdi0" with entities [LocalPlayer, LocalPlayer], work=[200*, 0*]
  3: 0x0BDC [0x45] LOAD_SCHEDULED_TASK: Load scheduler "kant" with entities [Kupipi (ID: 17063966/0x0104601E), Kupipi (ID: 17063966/0x0104601E)], work=[191*, 0*]
  4: 0x0BED [0x66] LOAD_EXT_SCHEDULER_MAIN: Load scheduler "tlk0" with entities [Goccilo (ID: 17063962/0x0104601A), Goccilo (ID: 17063962/0x0104601A)], work=69*
  5: 0x0BFC [0x1C] WAIT(90* ticks)
  6: 0x0BFF [0x66] LOAD_EXT_SCHEDULER_MAIN: Load scheduler "tlk1" with entities [Goccilo (ID: 17063962/0x0104601A), Goccilo (ID: 17063962/0x0104601A)], work=69*
  7: 0x0C0E [0x66] LOAD_EXT_SCHEDULER_MAIN: Load scheduler "tlk0" with entities [Kupipi (ID: 17063966/0x0104601E), Kupipi (ID: 17063966/0x0104601E)], work=40*
  8: 0x0C1D [0x1C] WAIT(90* ticks)
  9: 0x0C20 [0x66] LOAD_EXT_SCHEDULER_MAIN: Load scheduler "tlk1" with entities [Kupipi (ID: 17063966/0x0104601E), Kupipi (ID: 17063966/0x0104601E)], work=40*
 10: 0x0C2F [0x45] LOAD_SCHEDULED_TASK: Load scheduler "fdo0" with entities [LocalPlayer, LocalPlayer], work=[200*, 0*]
 11: 0x0C40 [0x1C] WAIT(15* ticks)
 12: 0x0C43 [0x52] END_LOAD_SCHEDULER: End scheduler "s166" with entities [Kupipi (ID: 17063966/0x0104601E), Kupipi (ID: 17063966/0x0104601E)], work=192*
 13: 0x0C52 [0x00] END_REQSTACK()
```

### Event 65535.22

#### Metadata

| Field        | Value     |
|--------------|-----------|
| Entrypoint   | 0x0C53    |
| Data Size    | 158 bytes |
| Instructions | 24        |

```
      00 01 02 03 04 05 06 07  08 09 0A 0B 0C 0D 0E 0F
      -- -- -- -- -- -- -- --  -- -- -- -- -- -- -- --
0C50:          45 07 80 F0 FF  FF 7F F0 FF FF 7F 6E 61     E..........na
0C60: 6B 73 01 80 45 07 80 F0  FF FF 7F F0 FF FF 7F 68  ks..E..........h
0C70: 61 73 73 01 80 45 07 80  11 60 04 01 11 60 04 01  ass..E...`...`..
0C80: 6B 61 6E 74 01 80 03 02  10 34 10 02 23 10 0B 80  kant.....4..#...
0C90: 00 96 0C 01 F0 0C 02 23  10 1C 80 00 A1 0C 01 F0  .......#........
0CA0: 0C 02 23 10 00 80 00 AC  0C 01 F0 0C 2B 1A 60 04  ..#.........+.`.
0CB0: 01 1D 80 1C 0D 80 2B 1A  60 04 01 1E 80 1C 09 80  ......+.`.......
0CC0: 2B 1B 60 04 01 1F 80 2B  1C 60 04 01 20 80 1C 0E  +.`....+.`.. ...
0CD0: 80 02 23 10 21 80 00 E1  0C 03 02 10 01 80 01 E6  ..#.!...........
0CE0: 0C 03 02 10 22 80 2B 1B  60 04 01 23 80 1C 0D 80  ....".+.`..#....
0CF0: 00                                                .               
```

#### Opcodes

```
  0: 0x0C53 [0x45] LOAD_SCHEDULED_TASK: Load scheduler "naks" with entities [LocalPlayer, LocalPlayer], work=[191*, 0*]
  1: 0x0C64 [0x45] LOAD_SCHEDULED_TASK: Load scheduler "hass" with entities [LocalPlayer, LocalPlayer], work=[191*, 0*]
  2: 0x0C75 [0x45] LOAD_SCHEDULED_TASK: Load scheduler "kant" with entities [Unnamed NPC (ID: 17063953/0x01046011), Unnamed NPC (ID: 17063953/0x01046011)], work=[191*, 0*]
  3: 0x0C86 [0x03] Work_Zone[2] = Work_Zone[52]
  4: 0x0C8B [0x02] IF !(Work_Zone[35] == 5*) GOTO 0x0C96
  5: 0x0C93 [0x01] GOTO 0x0CF0
  6: 0x0C96 [0x02] IF !(Work_Zone[35] == 6*) GOTO 0x0CA1
  7: 0x0C9E [0x01] GOTO 0x0CF0
  8: 0x0CA1 [0x02] IF !(Work_Zone[35] == 8*) GOTO 0x0CAC
  9: 0x0CA9 [0x01] GOTO 0x0CF0
 10: 0x0CAC [0x2B] Goccilo (ID: 17063962/0x0104601A) [8825*]:
     "And they're off!"
 11: 0x0CB3 [0x1C] WAIT(90* ticks)
 12: 0x0CB6 [0x2B] Goccilo (ID: 17063962/0x0104601A) [8826*]:
     "Markovich, what did you think of the start?"
 13: 0x0CBD [0x1C] WAIT(60* ticks)
 14: 0x0CC0 [0x2B] Markovich (ID: 17063963/0x0104601B) [8827*]:
     "Well, I fel--"
 15: 0x0CC7 [0x2B] Sakura (ID: 17063964/0x0104601C) [8828*]:
     "$3s$3%3s$3%3bI"
 16: 0x0CCE [0x1C] WAIT(30* ticks)
 17: 0x0CD1 [0x02] IF !(Work_Zone[35] == 4*) GOTO 0x0CE1
 18: 0x0CD9 [0x03] Work_Zone[2] = 0*
 19: 0x0CDE [0x01] GOTO 0x0CE6
 20: 0x0CE1 [0x03] Work_Zone[2] = 1*

SUBROUTINE_0CE6:
 21: 0x0CE6 [0x2B] Markovich (ID: 17063963/0x0104601B) [8829*]:
     "Sakura says it was a picture-perfect start and that I need to shut my mouth."
 22: 0x0CED [0x1C] WAIT(90* ticks)

SUBROUTINE_0CF0:
 23: 0x0CF0 [0x00] END_REQSTACK()
```

### Event 65535.23

#### Metadata

| Field        | Value     |
|--------------|-----------|
| Entrypoint   | 0x0CF1    |
| Data Size    | 525 bytes |
| Instructions | 46        |

```
      00 01 02 03 04 05 06 07  08 09 0A 0B 0C 0D 0E 0F
      -- -- -- -- -- -- -- --  -- -- -- -- -- -- -- --
0CF0:    1C 0E 80 45 06 80 F0  FF FF 7F F0 FF FF 7F 66   ...E..........f
0D00: 64 69 30 01 80 45 07 80  1A 60 04 01 1A 60 04 01  di0..E...`...`..
0D10: 6B 61 6E 74 01 80 66 12  80 1A 60 04 01 1A 60 04  kant..f...`...`.
0D20: 01 74 6C 6B 30 2B 1A 60  04 01 24 80 1C 0D 80 03  .tlk0+.`..$.....
0D30: 11 00 29 10 03 12 00 01  80 1A A8 16 03 3F 00 40  ..)..........?.@
0D40: 00 02 02 10 22 80 00 5E  0D 03 03 10 3D 00 1A 26  ...."..^....=..&
0D50: 1E 2B 1A 60 04 01 25 80  1A 31 1E 01 91 0D 02 23  .+.`..%..1.....#
0D60: 10 21 80 00 78 0D 02 02  10 02 80 00 75 0D 2B 1A  .!..x.......u.+.
0D70: 60 04 01 26 80 01 91 0D  02 02 10 34 10 00 8A 0D  `..&.......4....
0D80: 2B 1A 60 04 01 27 80 01  91 0D 2B 1A 60 04 01 28  +.`..'....+.`..(
0D90: 80 1C 0D 80 02 23 10 21  80 00 CB 0D 02 03 10 22  .....#.!......."
0DA0: 80 00 C8 0D 03 11 00 29  10 03 12 00 22 80 1A A8  .......)...."...
0DB0: 16 03 04 10 3F 00 03 03  10 22 80 1A 26 1E 2B 1A  ....?...."..&.+.
0DC0: 60 04 01 29 80 1A 31 1E  01 F1 0D 02 00 17 22 80  `..)..1.......".
0DD0: 00 F1 0D 03 11 00 29 10  03 12 00 22 80 1A A8 16  ......)...."....
0DE0: 03 03 10 3E 00 03 05 10  2A 80 2B 1A 60 04 01 2B  ...>....*.+.`..+
0DF0: 80 1C 0D 80 BF 40 01 80  2C 80 02 80 00 17 41 2D  .....@..,.....A-
0E00: 80 2E 80 00 17 02 10 BF  40 01 80 2F 80 02 80 00  ........@../....
0E10: 17 41 2D 80 2E 80 00 17  03 10 BF 40 01 80 30 80  .A-........@..0.
0E20: 02 80 00 17 41 2D 80 2E  80 00 17 04 10 07 02 10  ....A-..........
0E30: 03 10 07 02 10 04 10 02  02 10 01 80 01 49 0E 2B  .............I.+
0E40: 1A 60 04 01 31 80 1C 0D  80 66 12 80 1A 60 04 01  .`..1....f...`..
0E50: 1A 60 04 01 74 6C 6B 31  02 23 10 0B 80 00 63 0E  .`..tlk1.#....c.
0E60: 01 CC 0E 02 23 10 1C 80  00 6E 0E 01 CC 0E 02 23  ....#....n.....#
0E70: 10 00 80 00 79 0E 01 CC  0E 5B 0A 80 1C 60 04 01  ....y....[...`..
0E80: 1C 60 04 01 68 69 30 31  1C 0B 80 5B 0C 80 1C 60  .`..hi01...[...`
0E90: 04 01 1C 60 04 01 31 30  30 35 2B 1C 60 04 01 32  ...`..1005+.`..2
0EA0: 80 1C 09 80 5B 09 80 1B  60 04 01 1B 60 04 01 74  ....[...`...`..t
0EB0: 6C 6B 30 2B 1B 60 04 01  33 80 1C 0D 80 5B 09 80  lk0+.`..3....[..
0EC0: 1B 60 04 01 1B 60 04 01  74 6C 6B 31 45 07 80 1A  .`...`..tlk1E...
0ED0: 60 04 01 1A 60 04 01 6B  61 6F 66 01 80 45 06 80  `...`..kaof..E..
0EE0: F0 FF FF 7F F0 FF FF 7F  66 64 6F 30 01 80 55 06  ........fdo0..U.
0EF0: 80 F0 FF FF 7F F0 FF FF  7F 66 64 6F 30 00        .........fdo0.  
```

#### Opcodes

```
  0: 0x0CF1 [0x1C] WAIT(30* ticks)
  1: 0x0CF4 [0x45] LOAD_SCHEDULED_TASK: Load scheduler "fdi0" with entities [LocalPlayer, LocalPlayer], work=[200*, 0*]
  2: 0x0D05 [0x45] LOAD_SCHEDULED_TASK: Load scheduler "kant" with entities [Goccilo (ID: 17063962/0x0104601A), Goccilo (ID: 17063962/0x0104601A)], work=[191*, 0*]
  3: 0x0D16 [0x66] LOAD_EXT_SCHEDULER_MAIN: Load scheduler "tlk0" with entities [Goccilo (ID: 17063962/0x0104601A), Goccilo (ID: 17063962/0x0104601A)], work=69*
  4: 0x0D25 [0x2B] Goccilo (ID: 17063962/0x0104601A) [8832*]:
     "And as they pass the halfway mark..."
  5: 0x0D2C [0x1C] WAIT(90* ticks)
  6: 0x0D2F [0x03] ExtData[1]->WorkLocal[17] = Work_Zone[41]
  7: 0x0D34 [0x03] ExtData[1]->WorkLocal[18] = 0*
  8: 0x0D39 [0x1A] CALL_SUBROUTINE(address=0x16A8)
  9: 0x0D3C [0x03] ExtData[1]->WorkLocal[63] = ExtData[1]->WorkLocal[64]
 10: 0x0D41 [0x02] IF !(Work_Zone[2] == 1*) GOTO 0x0D5E
 11: 0x0D49 [0x03] Work_Zone[3] = ExtData[1]->WorkLocal[61]
 12: 0x0D4E [0x1A] CALL_SUBROUTINE(address=0x1E26)
 13: 0x0D51 [0x2B] Goccilo (ID: 17063962/0x0104601A) [8833*]:
     "#$1 $0 holds on to the lead!"
 14: 0x0D58 [0x1A] CALL_SUBROUTINE(address=0x1E31)
 15: 0x0D5B [0x01] GOTO 0x0D91
 16: 0x0D5E [0x02] IF !(Work_Zone[35] == 4*) GOTO 0x0D78
 17: 0x0D66 [0x02] IF !(Work_Zone[2] == 2*) GOTO 0x0D75
 18: 0x0D6E [0x2B] Goccilo (ID: 17063962/0x0104601A) [8838*]:
     "Neither of these two rivals are willing to yeild to the other! What an amazing race!"
 19: 0x0D75 [0x01] GOTO 0x0D91
 20: 0x0D78 [0x02] IF !(Work_Zone[2] == Work_Zone[52]) GOTO 0x0D8A
 21: 0x0D80 [0x2B] Goccilo (ID: 17063962/0x0104601A) [8837*]:
     "All $0 chocobos battle for the lead!"
 22: 0x0D87 [0x01] GOTO 0x0D91
 23: 0x0D8A [0x2B] Goccilo (ID: 17063962/0x0104601A) [8834*]:
     "$0 different chocobos continue their battle for the lead!"

SUBROUTINE_0D91:
 24: 0x0D91 [0x1C] WAIT(90* ticks)
 25: 0x0D94 [0x02] IF !(Work_Zone[35] == 4*) GOTO 0x0DCB
 26: 0x0D9C [0x02] IF !(Work_Zone[3] == 1*) GOTO 0x0DC8
 27: 0x0DA4 [0x03] ExtData[1]->WorkLocal[17] = Work_Zone[41]
 28: 0x0DA9 [0x03] ExtData[1]->WorkLocal[18] = 1*
 29: 0x0DAE [0x1A] CALL_SUBROUTINE(address=0x16A8)
 30: 0x0DB1 [0x03] Work_Zone[4] = ExtData[1]->WorkLocal[63]
 31: 0x0DB6 [0x03] Work_Zone[3] = 1*
 32: 0x0DBB [0x1A] CALL_SUBROUTINE(address=0x1E26)
 33: 0x0DBE [0x2B] Goccilo (ID: 17063962/0x0104601A) [8836*]:
     "While from behind, #$2 $0 seems to be vying for the perfect time to make its move!"
 34: 0x0DC5 [0x1A] CALL_SUBROUTINE(address=0x1E31)
 35: 0x0DC8 [0x01] GOTO 0x0DF1
 36: 0x0DCB [0x02] IF !(Work_Zone_1700[0] == 1*) GOTO 0x0DF1
 37: 0x0DD3 [0x03] ExtData[1]->WorkLocal[17] = Work_Zone[41]
 38: 0x0DD8 [0x03] ExtData[1]->WorkLocal[18] = 1*
 39: 0x0DDD [0x1A] CALL_SUBROUTINE(address=0x16A8)
 40: 0x0DE0 [0x03] Work_Zone[3] = ExtData[1]->WorkLocal[62]
 41: 0x0DE5 [0x03] Work_Zone[5] = 3*
 42: 0x0DEA [0x2B] Goccilo (ID: 17063962/0x0104601A) [8835*]:
     "While from behind the pack, #$1 $3 seems to be vying for the perfect time to make its move!"

SUBROUTINE_0DF1:
 43: 0x0DF1 [0x1C] WAIT(90* ticks)
 44: 0x0DF4 [0xBF] CHOCOBO_RACING_PARAMETER_GETTER(param_type=0x40)
 45: 0x0DF6 [0x01] GOTO 0x2C80
```

#### Data or dead code:

```
# Dead code (unreachable instructions):
     0x0DF9 [0x80] LOAD_WAIT(entity=Unknown NPC (ID: 385908738/0x17008002))
     0x0DFE [0x41] Work_Zone[2] = Work_Zone_1700[0] (bits 24*-31*)
     0x0E07 [0xBF] CHOCOBO_RACING_PARAMETER_GETTER(param_type=0x40)
     0x0E09 [0x01] GOTO 0x2F80
     0x0E0C [0x80] LOAD_WAIT(entity=Unknown NPC (ID: 385908738/0x17008002))
     0x0E11 [0x41] Work_Zone[3] = Work_Zone_1700[0] (bits 24*-31*)
     0x0E1A [0xBF] CHOCOBO_RACING_PARAMETER_GETTER(param_type=0x40)
     0x0E1C [0x01] GOTO 0x3080
     0x0E1F [0x80] LOAD_WAIT(entity=Unknown NPC (ID: 385908738/0x17008002))
     0x0E24 [0x41] Work_Zone[4] = Work_Zone_1700[0] (bits 24*-31*)
     0x0E2D [0x07] Work_Zone[2] += Work_Zone[3]
     0x0E32 [0x07] Work_Zone[2] += Work_Zone[4]
     0x0E37 [0x02] IF !(Work_Zone[2] == 0*) GOTO 0x0E49
     0x0E3F [0x2B] Goccilo (ID: 17063962/0x0104601A) [8839*]:
     "And would you look at that! Quite a battle is brewing in the tunnel!"
     0x0E46 [0x1C] WAIT(90* ticks)
     0x0E49 [0x66] LOAD_EXT_SCHEDULER_MAIN: Load scheduler "tlk1" with entities [Goccilo (ID: 17063962/0x0104601A), Goccilo (ID: 17063962/0x0104601A)], work=69*
     0x0E58 [0x02] IF !(Work_Zone[35] == 5*) GOTO 0x0E63
     0x0E60 [0x01] GOTO 0x0ECC
     0x0E63 [0x02] IF !(Work_Zone[35] == 6*) GOTO 0x0E6E
     0x0E6B [0x01] GOTO 0x0ECC
     0x0E6E [0x02] IF !(Work_Zone[35] == 8*) GOTO 0x0E79
     0x0E76 [0x01] GOTO 0x0ECC
     0x0E79 [0x5B] LOAD_EXT_SCHEDULER: Load scheduler "hi01" with entities [Sakura (ID: 17063964/0x0104601C), Sakura (ID: 17063964/0x0104601C)], work=872*
     0x0E88 [0x1C] WAIT(5* ticks)
     0x0E8B [0x5B] LOAD_EXT_SCHEDULER: Load scheduler "1005" with entities [Sakura (ID: 17063964/0x0104601C), Sakura (ID: 17063964/0x0104601C)], work=224*
     0x0E9A [0x2B] Sakura (ID: 17063964/0x0104601C) [8840*]:
     "$3s$3%3s$3%1I"
     0x0EA1 [0x1C] WAIT(60* ticks)
     0x0EA4 [0x5B] LOAD_EXT_SCHEDULER: Load scheduler "tlk0" with entities [Markovich (ID: 17063963/0x0104601B), Markovich (ID: 17063963/0x0104601B)], work=60*
     0x0EB3 [0x2B] Markovich (ID: 17063963/0x0104601B) [8841*]:
     "Sakura says, "The race ain't over until the fat chocobo sings.""
     0x0EBA [0x1C] WAIT(90* ticks)
     0x0EBD [0x5B] LOAD_EXT_SCHEDULER: Load scheduler "tlk1" with entities [Markovich (ID: 17063963/0x0104601B), Markovich (ID: 17063963/0x0104601B)], work=60*
     0x0ECC [0x45] LOAD_SCHEDULED_TASK: Load scheduler "kaof" with entities [Goccilo (ID: 17063962/0x0104601A), Goccilo (ID: 17063962/0x0104601A)], work=[191*, 0*]
     0x0EDD [0x45] LOAD_SCHEDULED_TASK: Load scheduler "fdo0" with entities [LocalPlayer, LocalPlayer], work=[200*, 0*]
     0x0EEE [0x55] WAIT_LOAD_SCHEDULER: Wait for scheduler "fdo0" with entities [LocalPlayer, LocalPlayer], work=200*
     0x0EFD [0x00] END_REQSTACK()
```

### Event 65535.24

#### Metadata

| Field        | Value     |
|--------------|-----------|
| Entrypoint   | 0x0EFE    |
| Data Size    | 168 bytes |
| Instructions | 32        |

```
      00 01 02 03 04 05 06 07  08 09 0A 0B 0C 0D 0E 0F
      -- -- -- -- -- -- -- --  -- -- -- -- -- -- -- --
0EF0:                                            2B 1A                +.
0F00: 60 04 01 34 80 1C 09 80  03 11 00 29 10 03 12 00  `..4.......)....
0F10: 01 80 1A A8 16 02 02 10  22 80 00 31 0F 03 02 10  ........"..1....
0F20: 01 80 03 03 10 3D 00 2B  1A 60 04 01 35 80 01 64  .....=.+.`..5..d
0F30: 0F 02 23 10 21 80 00 4B  0F 02 02 10 02 80 00 48  ..#.!..K.......H
0F40: 0F 2B 1A 60 04 01 36 80  01 64 0F 02 02 10 34 10  .+.`..6..d....4.
0F50: 00 5D 0F 2B 1A 60 04 01  37 80 01 64 0F 2B 1A 60  .].+.`..7..d.+.`
0F60: 04 01 38 80 1C 0D 80 02  00 17 22 80 00 A5 0F 03  ..8.......".....
0F70: 11 00 29 10 03 12 00 22  80 1A A8 16 02 23 10 21  ..)....".....#.!
0F80: 80 00 8C 0F 03 02 10 01  80 01 91 0F 03 02 10 22  ..............."
0F90: 80 03 05 10 2A 80 03 03  10 3E 00 2B 1A 60 04 01  ....*....>.+.`..
0FA0: 39 80 1C 0D 80 00                                 9.....          
```

#### Opcodes

```
  0: 0x0EFE [0x2B] Goccilo (ID: 17063962/0x0104601A) [8857*]:
     "And now they're approaching the final corner!"
  1: 0x0F05 [0x1C] WAIT(60* ticks)
  2: 0x0F08 [0x03] ExtData[1]->WorkLocal[17] = Work_Zone[41]
  3: 0x0F0D [0x03] ExtData[1]->WorkLocal[18] = 0*
  4: 0x0F12 [0x1A] CALL_SUBROUTINE(address=0x16A8)
  5: 0x0F15 [0x02] IF !(Work_Zone[2] == 1*) GOTO 0x0F31
  6: 0x0F1D [0x03] Work_Zone[2] = 0*
  7: 0x0F22 [0x03] Work_Zone[3] = ExtData[1]->WorkLocal[61]
  8: 0x0F27 [0x2B] Goccilo (ID: 17063962/0x0104601A) [8858*]:
     "#$1 $0 still holds on to the lead. Can it take it all the way to the finish!?"
  9: 0x0F2E [0x01] GOTO 0x0F64
 10: 0x0F31 [0x02] IF !(Work_Zone[35] == 4*) GOTO 0x0F4B
 11: 0x0F39 [0x02] IF !(Work_Zone[2] == 2*) GOTO 0x0F48
 12: 0x0F41 [0x2B] Goccilo (ID: 17063962/0x0104601A) [8862*]:
     "The two chocobos are neck and neck! This could be a screenshot finish!"
 13: 0x0F48 [0x01] GOTO 0x0F64
 14: 0x0F4B [0x02] IF !(Work_Zone[2] == Work_Zone[52]) GOTO 0x0F5D
 15: 0x0F53 [0x2B] Goccilo (ID: 17063962/0x0104601A) [8861*]:
     "It's crowded up front with all $0 chocobos still fighting for the lead!"
 16: 0x0F5A [0x01] GOTO 0x0F64
 17: 0x0F5D [0x2B] Goccilo (ID: 17063962/0x0104601A) [8859*]:
     "It's crowded up front with $0 chocobos still fighting for the lead! Which one will break through!?"

SUBROUTINE_0F64:
 18: 0x0F64 [0x1C] WAIT(90* ticks)
 19: 0x0F67 [0x02] IF !(Work_Zone_1700[0] == 1*) GOTO 0x0FA5
 20: 0x0F6F [0x03] ExtData[1]->WorkLocal[17] = Work_Zone[41]
 21: 0x0F74 [0x03] ExtData[1]->WorkLocal[18] = 1*
 22: 0x0F79 [0x1A] CALL_SUBROUTINE(address=0x16A8)
 23: 0x0F7C [0x02] IF !(Work_Zone[35] == 4*) GOTO 0x0F8C
 24: 0x0F84 [0x03] Work_Zone[2] = 0*
 25: 0x0F89 [0x01] GOTO 0x0F91
 26: 0x0F8C [0x03] Work_Zone[2] = 1*

SUBROUTINE_0F91:
 27: 0x0F91 [0x03] Work_Zone[5] = 3*
 28: 0x0F96 [0x03] Work_Zone[3] = ExtData[1]->WorkLocal[62]
 29: 0x0F9B [0x2B] Goccilo (ID: 17063962/0x0104601A) [8860*]:
     "#$1 $3 is starting to lag behind! Does it have enough energy left to make that final dash for the cash!?"
 30: 0x0FA2 [0x1C] WAIT(90* ticks)
 31: 0x0FA5 [0x00] END_REQSTACK()
```

### Event 65535.25

#### Metadata

| Field        | Value      |
|--------------|------------|
| Entrypoint   | 0x0FA6     |
| Data Size    | 1556 bytes |
| Instructions | 156        |

```
      00 01 02 03 04 05 06 07  08 09 0A 0B 0C 0D 0E 0F
      -- -- -- -- -- -- -- --  -- -- -- -- -- -- -- --
0FA0:                   27 03  11 60 04 01 16 27 03 12        '..`...'..
0FB0: 60 04 01 13 02 23 10 21  80 00 BF 0F 01 FF 0F 02  `....#.!........
0FC0: 23 10 22 80 00 CA 0F 01  F1 0F 02 23 10 02 80 00  #."........#....
0FD0: D5 0F 01 E3 0F 27 03 17  60 04 01 10 27 03 18 60  .....'..`...'..`
0FE0: 04 01 0D 27 03 15 60 04  01 14 27 03 16 60 04 01  ...'..`...'..`..
0FF0: 0E 27 03 13 60 04 01 13  27 03 14 60 04 01 11 45  .'..`...'..`...E
1000: 07 80 F0 FF FF 7F F0 FF  FF 7F 73 31 34 31 01 80  ..........s141..
1010: 45 07 80 1A 60 04 01 1A  60 04 01 6B 61 6E 74 01  E...`...`..kant.
1020: 80 03 11 00 0E 80 03 12  00 01 80 1A A8 16 41 01  ..............A.
1030: 80 2A 80 3A 00 35 00 41  01 80 2A 80 39 00 33 00  .*.:.5.A..*.9.3.
1040: 03 11 00 29 10 1A A8 16  41 01 80 2A 80 39 00 34  ...)....A..*.9.4
1050: 00 02 35 00 22 80 00 F6  10 02 33 00 34 00 00 AE  ..5.".....3.4...
1060: 10 03 02 10 22 80 1A 8C  1C 07 45 00 22 80 03 03  ....".....E."...
1070: 10 45 00 03 02 10 01 80  2B 1A 60 04 01 3A 80 41  .E......+.`..:.A
1080: 01 80 3B 80 30 10 33 00  02 33 00 01 80 00 9F 10  ..;.0.3..3......
1090: 41 01 80 3B 80 30 10 33  00 1C 22 80 01 88 10 03  A..;.0.3..".....
10A0: 02 10 01 80 2B 1A 60 04  01 3C 80 01 F3 10 03 02  ....+.`..<......
10B0: 10 22 80 1A 8C 1C 07 45  00 22 80 03 03 10 45 00  .".....E."....E.
10C0: 03 02 10 01 80 2B 1A 60  04 01 3D 80 41 01 80 3B  .....+.`..=.A..;
10D0: 80 30 10 33 00 02 33 00  01 80 00 EC 10 41 01 80  .0.3..3......A..
10E0: 3B 80 30 10 33 00 1C 22  80 01 D5 10 2B 1A 60 04  ;.0.3.."....+.`.
10F0: 01 3E 80 01 40 11 03 02  10 22 80 1A 8C 1C 07 45  .>..@....".....E
1100: 00 22 80 03 03 10 45 00  03 02 10 01 80 2B 1A 60  ."....E......+.`
1110: 04 01 3A 80 41 01 80 3B  80 30 10 33 00 02 33 00  ..:.A..;.0.3..3.
1120: 01 80 00 34 11 41 01 80  3B 80 30 10 33 00 1C 22  ...4.A..;.0.3.."
1130: 80 01 1D 11 03 02 10 01  80 2B 1A 60 04 01 3C 80  .........+.`..<.
1140: BB 3F 80 F0 FF FF 7F F0  FF FF 7F 6D 61 69 6E 01  .?.........main.
1150: 80 1C 11 80 BB 40 80 11  60 04 01 11 60 04 01 73  .....@..`...`..s
1160: 74 6F 70 01 80 BB 40 80  12 60 04 01 12 60 04 01  top...@..`...`..
1170: 73 74 6F 70 01 80 BB 40  80 13 60 04 01 13 60 04  stop...@..`...`.
1180: 01 73 74 6F 70 01 80 BB  40 80 14 60 04 01 14 60  .stop...@..`...`
1190: 04 01 73 74 6F 70 01 80  BB 40 80 15 60 04 01 15  ..stop...@..`...
11A0: 60 04 01 73 74 6F 70 01  80 BB 40 80 16 60 04 01  `..stop...@..`..
11B0: 16 60 04 01 73 74 6F 70  01 80 BB 40 80 17 60 04  .`..stop...@..`.
11C0: 01 17 60 04 01 73 74 6F  70 01 80 BB 40 80 18 60  ..`..stop...@..`
11D0: 04 01 18 60 04 01 73 74  6F 70 01 80 52 07 80 F0  ...`..stop..R...
11E0: FF FF 7F F0 FF FF 7F 73  31 34 31 02 23 10 41 80  .......s141.#.A.
11F0: 00 1E 15 41 01 80 2A 80  25 10 03 10 02 03 10 01  ...A..*.%.......
1200: 80 00 58 12 45 07 80 F0  FF FF 7F F0 FF FF 7F 73  ..X.E..........s
1210: 31 34 32 01 80 BB 42 80  F0 FF FF 7F F0 FF FF 7F  142...B.........
1220: 73 74 61 74 01 80 45 07  80 F0 FF FF 7F F0 FF FF  stat..E.........
1230: 7F 66 61 6E 31 01 80 55  07 80 F0 FF FF 7F F0 FF  .fan1..U........
1240: FF 7F 73 31 34 32 BB 42  80 F0 FF FF 7F F0 FF FF  ..s142.B........
1250: 7F 73 74 6F 70 01 80 00  41 21 80 3B 80 25 10 03  .stop...A!.;.%..
1260: 10 02 03 10 01 80 00 BD  12 45 07 80 F0 FF FF 7F  .........E......
1270: F0 FF FF 7F 73 32 30 34  01 80 BB 42 80 F0 FF FF  ....s204...B....
1280: 7F F0 FF FF 7F 73 74 61  74 01 80 45 07 80 F0 FF  .....stat..E....
1290: FF 7F F0 FF FF 7F 66 61  6E 31 01 80 55 07 80 F0  ......fan1..U...
12A0: FF FF 7F F0 FF FF 7F 73  32 30 34 BB 42 80 F0 FF  .......s204.B...
12B0: FF 7F F0 FF FF 7F 73 74  6F 70 01 80 00 41 00 80  ......stop...A..
12C0: 08 80 25 10 03 10 02 03  10 01 80 00 22 13 45 07  ..%.........".E.
12D0: 80 F0 FF FF 7F F0 FF FF  7F 73 32 30 32 01 80 BB  .........s202...
12E0: 42 80 F0 FF FF 7F F0 FF  FF 7F 73 74 61 74 01 80  B.........stat..
12F0: 45 07 80 F0 FF FF 7F F0  FF FF 7F 66 61 6E 31 01  E..........fan1.
1300: 80 55 07 80 F0 FF FF 7F  F0 FF FF 7F 73 32 30 32  .U..........s202
1310: BB 42 80 F0 FF FF 7F F0  FF FF 7F 73 74 6F 70 01  .B.........stop.
1320: 80 00 41 0F 80 05 80 25  10 03 10 02 03 10 01 80  ..A....%........
1330: 00 87 13 45 07 80 F0 FF  FF 7F F0 FF FF 7F 73 32  ...E..........s2
1340: 30 35 01 80 BB 42 80 F0  FF FF 7F F0 FF FF 7F 73  05...B.........s
1350: 74 61 74 01 80 45 07 80  F0 FF FF 7F F0 FF FF 7F  tat..E..........
1360: 66 61 6E 31 01 80 55 07  80 F0 FF FF 7F F0 FF FF  fan1..U.........
1370: 7F 73 32 30 35 BB 42 80  F0 FF FF 7F F0 FF FF 7F  .s205.B.........
1380: 73 74 6F 70 01 80 00 41  43 80 30 80 25 10 03 10  stop...AC.0.%...
1390: 02 03 10 01 80 00 EC 13  45 07 80 F0 FF FF 7F F0  ........E.......
13A0: FF FF 7F 73 32 30 36 01  80 BB 42 80 F0 FF FF 7F  ...s206...B.....
13B0: F0 FF FF 7F 73 74 61 74  01 80 45 07 80 F0 FF FF  ....stat..E.....
13C0: 7F F0 FF FF 7F 66 61 6E  31 01 80 55 07 80 F0 FF  .....fan1..U....
13D0: FF 7F F0 FF FF 7F 73 32  30 36 BB 42 80 F0 FF FF  ......s206.B....
13E0: 7F F0 FF FF 7F 73 74 6F  70 01 80 00 41 44 80 40  .....stop...AD.@
13F0: 80 25 10 03 10 02 03 10  01 80 00 51 14 45 07 80  .%.........Q.E..
1400: F0 FF FF 7F F0 FF FF 7F  73 32 30 37 01 80 BB 42  ........s207...B
1410: 80 F0 FF FF 7F F0 FF FF  7F 73 74 61 74 01 80 45  .........stat..E
1420: 07 80 F0 FF FF 7F F0 FF  FF 7F 66 61 6E 31 01 80  ..........fan1..
1430: 55 07 80 F0 FF FF 7F F0  FF FF 7F 73 32 30 37 BB  U..........s207.
1440: 42 80 F0 FF FF 7F F0 FF  FF 7F 73 74 6F 70 01 80  B.........stop..
1450: 00 41 2D 80 45 80 25 10  03 10 02 03 10 01 80 00  .A-.E.%.........
1460: B6 14 45 07 80 F0 FF FF  7F F0 FF FF 7F 73 32 30  ..E..........s20
1470: 33 01 80 BB 42 80 F0 FF  FF 7F F0 FF FF 7F 73 74  3...B.........st
1480: 61 74 01 80 45 07 80 F0  FF FF 7F F0 FF FF 7F 66  at..E..........f
1490: 61 6E 31 01 80 55 07 80  F0 FF FF 7F F0 FF FF 7F  an1..U..........
14A0: 73 32 30 33 BB 42 80 F0  FF FF 7F F0 FF FF 7F 73  s203.B.........s
14B0: 74 6F 70 01 80 00 41 46  80 2E 80 25 10 03 10 02  top...AF...%....
14C0: 03 10 01 80 00 1B 15 45  07 80 F0 FF FF 7F F0 FF  .......E........
14D0: FF 7F 73 32 30 38 01 80  BB 42 80 F0 FF FF 7F F0  ..s208...B......
14E0: FF FF 7F 73 74 61 74 01  80 45 07 80 F0 FF FF 7F  ...stat..E......
14F0: F0 FF FF 7F 66 61 6E 31  01 80 55 07 80 F0 FF FF  ....fan1..U.....
1500: 7F F0 FF FF 7F 73 32 30  38 BB 42 80 F0 FF FF 7F  .....s208.B.....
1510: F0 FF FF 7F 73 74 6F 70  01 80 00 01 B9 15 41 01  ....stop......A.
1520: 80 2A 80 25 10 02 10 02  02 10 01 80 00 85 15 45  .*.%...........E
1530: 07 80 F0 FF FF 7F F0 FF  FF 7F 73 31 34 32 01 80  ..........s142..
1540: BB 42 80 F0 FF FF 7F F0  FF FF 7F 73 74 61 74 01  .B.........stat.
1550: 80 45 07 80 F0 FF FF 7F  F0 FF FF 7F 66 61 6E 31  .E..........fan1
1560: 01 80 55 07 80 F0 FF FF  7F F0 FF FF 7F 73 31 34  ..U..........s14
1570: 32 BB 42 80 F0 FF FF 7F  F0 FF FF 7F 73 74 6F 70  2.B.........stop
1580: 01 80 01 B9 15 45 07 80  F0 FF FF 7F F0 FF FF 7F  .....E..........
1590: 73 31 34 36 01 80 45 07  80 F0 FF FF 7F F0 FF FF  s146..E.........
15A0: 7F 66 61 6E 32 01 80 1C  47 80 52 07 80 F0 FF FF  .fan2...G.R.....
15B0: 7F F0 FF FF 7F 73 31 34  36 00                    .....s146.      
```

#### Opcodes

```
  0: 0x0FA6 [0x27] REQ_SET(priority=0x03, entity_id=Unnamed NPC (ID: 17063953/0x01046011), tag_num=0x16)
  1: 0x0FAD [0x27] REQ_SET(priority=0x03, entity_id=Unnamed NPC (ID: 17063954/0x01046012), tag_num=0x13)
  2: 0x0FB4 [0x02] IF !(Work_Zone[35] == 4*) GOTO 0x0FBF
  3: 0x0FBC [0x01] GOTO 0x0FFF
  4: 0x0FBF [0x02] IF !(Work_Zone[35] == 1*) GOTO 0x0FCA
  5: 0x0FC7 [0x01] GOTO 0x0FF1
  6: 0x0FCA [0x02] IF !(Work_Zone[35] == 2*) GOTO 0x0FD5
  7: 0x0FD2 [0x01] GOTO 0x0FE3
  8: 0x0FD5 [0x27] REQ_SET(priority=0x03, entity_id=Unnamed NPC (ID: 17063959/0x01046017), tag_num=0x10)
  9: 0x0FDC [0x27] REQ_SET(priority=0x03, entity_id=Unnamed NPC (ID: 17063960/0x01046018), tag_num=0x0D)

SUBROUTINE_0FE3:
 10: 0x0FE3 [0x27] REQ_SET(priority=0x03, entity_id=Unnamed NPC (ID: 17063957/0x01046015), tag_num=0x14)
 11: 0x0FEA [0x27] REQ_SET(priority=0x03, entity_id=Unnamed NPC (ID: 17063958/0x01046016), tag_num=0x0E)

SUBROUTINE_0FF1:
 12: 0x0FF1 [0x27] REQ_SET(priority=0x03, entity_id=Unnamed NPC (ID: 17063955/0x01046013), tag_num=0x13)
 13: 0x0FF8 [0x27] REQ_SET(priority=0x03, entity_id=Unnamed NPC (ID: 17063956/0x01046014), tag_num=0x11)

SUBROUTINE_0FFF:
 14: 0x0FFF [0x45] LOAD_SCHEDULED_TASK: Load scheduler "s141" with entities [LocalPlayer, LocalPlayer], work=[191*, 0*]
 15: 0x1010 [0x45] LOAD_SCHEDULED_TASK: Load scheduler "kant" with entities [Goccilo (ID: 17063962/0x0104601A), Goccilo (ID: 17063962/0x0104601A)], work=[191*, 0*]
 16: 0x1021 [0x03] ExtData[1]->WorkLocal[17] = 30*
 17: 0x1026 [0x03] ExtData[1]->WorkLocal[18] = 0*
 18: 0x102B [0x1A] CALL_SUBROUTINE(address=0x16A8)
 19: 0x102E [0x41] ExtData[1]->WorkLocal[53] = ExtData[1]->WorkLocal[58] (bits 0*-3*)
 20: 0x1037 [0x41] ExtData[1]->WorkLocal[51] = ExtData[1]->WorkLocal[57] (bits 0*-3*)
 21: 0x1040 [0x03] ExtData[1]->WorkLocal[17] = Work_Zone[41]
 22: 0x1045 [0x1A] CALL_SUBROUTINE(address=0x16A8)
 23: 0x1048 [0x41] ExtData[1]->WorkLocal[52] = ExtData[1]->WorkLocal[57] (bits 0*-3*)
 24: 0x1051 [0x02] IF !(ExtData[1]->WorkLocal[53] == 1*) GOTO 0x10F6
 25: 0x1059 [0x02] IF !(ExtData[1]->WorkLocal[51] == ExtData[1]->WorkLocal[52]) GOTO 0x10AE
 26: 0x1061 [0x03] Work_Zone[2] = 1*
 27: 0x1066 [0x1A] CALL_SUBROUTINE(address=0x1C8C)
 28: 0x1069 [0x07] ExtData[1]->WorkLocal[69] += 1*
 29: 0x106E [0x03] Work_Zone[3] = ExtData[1]->WorkLocal[69]
 30: 0x1073 [0x03] Work_Zone[2] = 0*
 31: 0x1078 [0x2B] Goccilo (ID: 17063962/0x0104601A) [8863*]:
     "It doesn't look like anyone will be catching #$1 $0 today!"
 32: 0x107F [0x41] ExtData[1]->WorkLocal[51] = Work_Zone[48] (bits 0*-7*)

SUBROUTINE_1088:
 33: 0x1088 [0x02] IF !(ExtData[1]->WorkLocal[51] == 0*) GOTO 0x109F
 34: 0x1090 [0x41] ExtData[1]->WorkLocal[51] = Work_Zone[48] (bits 0*-7*)
 35: 0x1099 [0x1C] WAIT(1* ticks)
 36: 0x109C [0x01] GOTO 0x1088
 37: 0x109F [0x03] Work_Zone[2] = 0*
 38: 0x10A4 [0x2B] Goccilo (ID: 17063962/0x0104601A) [8864*]:
     "And $0 takes the crown!"
 39: 0x10AB [0x01] GOTO 0x10F3
 40: 0x10AE [0x03] Work_Zone[2] = 1*
 41: 0x10B3 [0x1A] CALL_SUBROUTINE(address=0x1C8C)
 42: 0x10B6 [0x07] ExtData[1]->WorkLocal[69] += 1*
 43: 0x10BB [0x03] Work_Zone[3] = ExtData[1]->WorkLocal[69]
 44: 0x10C0 [0x03] Work_Zone[2] = 0*
 45: 0x10C5 [0x2B] Goccilo (ID: 17063962/0x0104601A) [8865*]:
     "What's this? #$1 $0 is making its move on the lead!"
 46: 0x10CC [0x41] ExtData[1]->WorkLocal[51] = Work_Zone[48] (bits 0*-7*)

SUBROUTINE_10D5:
 47: 0x10D5 [0x02] IF !(ExtData[1]->WorkLocal[51] == 0*) GOTO 0x10EC
 48: 0x10DD [0x41] ExtData[1]->WorkLocal[51] = Work_Zone[48] (bits 0*-7*)
 49: 0x10E6 [0x1C] WAIT(1* ticks)
 50: 0x10E9 [0x01] GOTO 0x10D5
 51: 0x10EC [0x2B] Goccilo (ID: 17063962/0x0104601A) [8866*]:
     "And it's $0 by a beak!!!"

SUBROUTINE_10F3:
 52: 0x10F3 [0x01] GOTO 0x1140
 53: 0x10F6 [0x03] Work_Zone[2] = 1*
 54: 0x10FB [0x1A] CALL_SUBROUTINE(address=0x1C8C)
 55: 0x10FE [0x07] ExtData[1]->WorkLocal[69] += 1*
 56: 0x1103 [0x03] Work_Zone[3] = ExtData[1]->WorkLocal[69]
 57: 0x1108 [0x03] Work_Zone[2] = 0*
 58: 0x110D [0x2B] Goccilo (ID: 17063962/0x0104601A) [8863*]:
     "It doesn't look like anyone will be catching #$1 $0 today!"
 59: 0x1114 [0x41] ExtData[1]->WorkLocal[51] = Work_Zone[48] (bits 0*-7*)

SUBROUTINE_111D:
 60: 0x111D [0x02] IF !(ExtData[1]->WorkLocal[51] == 0*) GOTO 0x1134
 61: 0x1125 [0x41] ExtData[1]->WorkLocal[51] = Work_Zone[48] (bits 0*-7*)
 62: 0x112E [0x1C] WAIT(1* ticks)
 63: 0x1131 [0x01] GOTO 0x111D
 64: 0x1134 [0x03] Work_Zone[2] = 0*
 65: 0x1139 [0x2B] Goccilo (ID: 17063962/0x0104601A) [8864*]:
     "And $0 takes the crown!"

SUBROUTINE_1140:
 66: 0x1140 [0xBB] LOAD_EVENT_SCHEDULER_ALT: Load scheduler "main" with entities [LocalPlayer, LocalPlayer], work=[43*, 0*]
 67: 0x1151 [0x1C] WAIT(120* ticks)
 68: 0x1154 [0xBB] LOAD_EVENT_SCHEDULER_ALT: Load scheduler "stop" with entities [Unnamed NPC (ID: 17063953/0x01046011), Unnamed NPC (ID: 17063953/0x01046011)], work=[23*, 0*]
 69: 0x1165 [0xBB] LOAD_EVENT_SCHEDULER_ALT: Load scheduler "stop" with entities [Unnamed NPC (ID: 17063954/0x01046012), Unnamed NPC (ID: 17063954/0x01046012)], work=[23*, 0*]
 70: 0x1176 [0xBB] LOAD_EVENT_SCHEDULER_ALT: Load scheduler "stop" with entities [Unnamed NPC (ID: 17063955/0x01046013), Unnamed NPC (ID: 17063955/0x01046013)], work=[23*, 0*]
 71: 0x1187 [0xBB] LOAD_EVENT_SCHEDULER_ALT: Load scheduler "stop" with entities [Unnamed NPC (ID: 17063956/0x01046014), Unnamed NPC (ID: 17063956/0x01046014)], work=[23*, 0*]
 72: 0x1198 [0xBB] LOAD_EVENT_SCHEDULER_ALT: Load scheduler "stop" with entities [Unnamed NPC (ID: 17063957/0x01046015), Unnamed NPC (ID: 17063957/0x01046015)], work=[23*, 0*]
 73: 0x11A9 [0xBB] LOAD_EVENT_SCHEDULER_ALT: Load scheduler "stop" with entities [Unnamed NPC (ID: 17063958/0x01046016), Unnamed NPC (ID: 17063958/0x01046016)], work=[23*, 0*]
 74: 0x11BA [0xBB] LOAD_EVENT_SCHEDULER_ALT: Load scheduler "stop" with entities [Unnamed NPC (ID: 17063959/0x01046017), Unnamed NPC (ID: 17063959/0x01046017)], work=[23*, 0*]
 75: 0x11CB [0xBB] LOAD_EVENT_SCHEDULER_ALT: Load scheduler "stop" with entities [Unnamed NPC (ID: 17063960/0x01046018), Unnamed NPC (ID: 17063960/0x01046018)], work=[23*, 0*]
 76: 0x11DC [0x52] END_LOAD_SCHEDULER: End scheduler "s141" with entities [LocalPlayer, LocalPlayer], work=191*
 77: 0x11EB [0x02] IF !(Work_Zone[35] == 4294967294*) GOTO 0x151E
 78: 0x11F3 [0x41] Work_Zone[3] = Work_Zone[37] (bits 0*-3*)
 79: 0x11FC [0x02] IF !(Work_Zone[3] == 0*) GOTO 0x1258
 80: 0x1204 [0x45] LOAD_SCHEDULED_TASK: Load scheduler "s142" with entities [LocalPlayer, LocalPlayer], work=[191*, 0*]
 81: 0x1215 [0xBB] LOAD_EVENT_SCHEDULER_ALT: Load scheduler "stat" with entities [LocalPlayer, LocalPlayer], work=[25*, 0*]
 82: 0x1226 [0x45] LOAD_SCHEDULED_TASK: Load scheduler "fan1" with entities [LocalPlayer, LocalPlayer], work=[191*, 0*]
 83: 0x1237 [0x55] WAIT_LOAD_SCHEDULER: Wait for scheduler "s142" with entities [LocalPlayer, LocalPlayer], work=191*
 84: 0x1246 [0xBB] LOAD_EVENT_SCHEDULER_ALT: Load scheduler "stop" with entities [LocalPlayer, LocalPlayer], work=[25*, 0*]
 85: 0x1257 [0x00] END_REQSTACK()
 86: 0x1258 [0x41] Work_Zone[3] = Work_Zone[37] (bits 4*-7*)
 87: 0x1261 [0x02] IF !(Work_Zone[3] == 0*) GOTO 0x12BD
 88: 0x1269 [0x45] LOAD_SCHEDULED_TASK: Load scheduler "s204" with entities [LocalPlayer, LocalPlayer], work=[191*, 0*]
 89: 0x127A [0xBB] LOAD_EVENT_SCHEDULER_ALT: Load scheduler "stat" with entities [LocalPlayer, LocalPlayer], work=[25*, 0*]
 90: 0x128B [0x45] LOAD_SCHEDULED_TASK: Load scheduler "fan1" with entities [LocalPlayer, LocalPlayer], work=[191*, 0*]
 91: 0x129C [0x55] WAIT_LOAD_SCHEDULER: Wait for scheduler "s204" with entities [LocalPlayer, LocalPlayer], work=191*
 92: 0x12AB [0xBB] LOAD_EVENT_SCHEDULER_ALT: Load scheduler "stop" with entities [LocalPlayer, LocalPlayer], work=[25*, 0*]
 93: 0x12BC [0x00] END_REQSTACK()
 94: 0x12BD [0x41] Work_Zone[3] = Work_Zone[37] (bits 8*-11*)
 95: 0x12C6 [0x02] IF !(Work_Zone[3] == 0*) GOTO 0x1322
 96: 0x12CE [0x45] LOAD_SCHEDULED_TASK: Load scheduler "s202" with entities [LocalPlayer, LocalPlayer], work=[191*, 0*]
 97: 0x12DF [0xBB] LOAD_EVENT_SCHEDULER_ALT: Load scheduler "stat" with entities [LocalPlayer, LocalPlayer], work=[25*, 0*]
 98: 0x12F0 [0x45] LOAD_SCHEDULED_TASK: Load scheduler "fan1" with entities [LocalPlayer, LocalPlayer], work=[191*, 0*]
 99: 0x1301 [0x55] WAIT_LOAD_SCHEDULER: Wait for scheduler "s202" with entities [LocalPlayer, LocalPlayer], work=191*
100: 0x1310 [0xBB] LOAD_EVENT_SCHEDULER_ALT: Load scheduler "stop" with entities [LocalPlayer, LocalPlayer], work=[25*, 0*]
101: 0x1321 [0x00] END_REQSTACK()
102: 0x1322 [0x41] Work_Zone[3] = Work_Zone[37] (bits 12*-15*)
103: 0x132B [0x02] IF !(Work_Zone[3] == 0*) GOTO 0x1387
104: 0x1333 [0x45] LOAD_SCHEDULED_TASK: Load scheduler "s205" with entities [LocalPlayer, LocalPlayer], work=[191*, 0*]
105: 0x1344 [0xBB] LOAD_EVENT_SCHEDULER_ALT: Load scheduler "stat" with entities [LocalPlayer, LocalPlayer], work=[25*, 0*]
106: 0x1355 [0x45] LOAD_SCHEDULED_TASK: Load scheduler "fan1" with entities [LocalPlayer, LocalPlayer], work=[191*, 0*]
107: 0x1366 [0x55] WAIT_LOAD_SCHEDULER: Wait for scheduler "s205" with entities [LocalPlayer, LocalPlayer], work=191*
108: 0x1375 [0xBB] LOAD_EVENT_SCHEDULER_ALT: Load scheduler "stop" with entities [LocalPlayer, LocalPlayer], work=[25*, 0*]
109: 0x1386 [0x00] END_REQSTACK()
110: 0x1387 [0x41] Work_Zone[3] = Work_Zone[37] (bits 16*-19*)
111: 0x1390 [0x02] IF !(Work_Zone[3] == 0*) GOTO 0x13EC
112: 0x1398 [0x45] LOAD_SCHEDULED_TASK: Load scheduler "s206" with entities [LocalPlayer, LocalPlayer], work=[191*, 0*]
113: 0x13A9 [0xBB] LOAD_EVENT_SCHEDULER_ALT: Load scheduler "stat" with entities [LocalPlayer, LocalPlayer], work=[25*, 0*]
114: 0x13BA [0x45] LOAD_SCHEDULED_TASK: Load scheduler "fan1" with entities [LocalPlayer, LocalPlayer], work=[191*, 0*]
115: 0x13CB [0x55] WAIT_LOAD_SCHEDULER: Wait for scheduler "s206" with entities [LocalPlayer, LocalPlayer], work=191*
116: 0x13DA [0xBB] LOAD_EVENT_SCHEDULER_ALT: Load scheduler "stop" with entities [LocalPlayer, LocalPlayer], work=[25*, 0*]
117: 0x13EB [0x00] END_REQSTACK()
118: 0x13EC [0x41] Work_Zone[3] = Work_Zone[37] (bits 20*-23*)
119: 0x13F5 [0x02] IF !(Work_Zone[3] == 0*) GOTO 0x1451
120: 0x13FD [0x45] LOAD_SCHEDULED_TASK: Load scheduler "s207" with entities [LocalPlayer, LocalPlayer], work=[191*, 0*]
121: 0x140E [0xBB] LOAD_EVENT_SCHEDULER_ALT: Load scheduler "stat" with entities [LocalPlayer, LocalPlayer], work=[25*, 0*]
122: 0x141F [0x45] LOAD_SCHEDULED_TASK: Load scheduler "fan1" with entities [LocalPlayer, LocalPlayer], work=[191*, 0*]
123: 0x1430 [0x55] WAIT_LOAD_SCHEDULER: Wait for scheduler "s207" with entities [LocalPlayer, LocalPlayer], work=191*
124: 0x143F [0xBB] LOAD_EVENT_SCHEDULER_ALT: Load scheduler "stop" with entities [LocalPlayer, LocalPlayer], work=[25*, 0*]
125: 0x1450 [0x00] END_REQSTACK()
126: 0x1451 [0x41] Work_Zone[3] = Work_Zone[37] (bits 24*-27*)
127: 0x145A [0x02] IF !(Work_Zone[3] == 0*) GOTO 0x14B6
128: 0x1462 [0x45] LOAD_SCHEDULED_TASK: Load scheduler "s203" with entities [LocalPlayer, LocalPlayer], work=[191*, 0*]
129: 0x1473 [0xBB] LOAD_EVENT_SCHEDULER_ALT: Load scheduler "stat" with entities [LocalPlayer, LocalPlayer], work=[25*, 0*]
130: 0x1484 [0x45] LOAD_SCHEDULED_TASK: Load scheduler "fan1" with entities [LocalPlayer, LocalPlayer], work=[191*, 0*]
131: 0x1495 [0x55] WAIT_LOAD_SCHEDULER: Wait for scheduler "s203" with entities [LocalPlayer, LocalPlayer], work=191*
132: 0x14A4 [0xBB] LOAD_EVENT_SCHEDULER_ALT: Load scheduler "stop" with entities [LocalPlayer, LocalPlayer], work=[25*, 0*]
133: 0x14B5 [0x00] END_REQSTACK()
134: 0x14B6 [0x41] Work_Zone[3] = Work_Zone[37] (bits 28*-31*)
135: 0x14BF [0x02] IF !(Work_Zone[3] == 0*) GOTO 0x151B
136: 0x14C7 [0x45] LOAD_SCHEDULED_TASK: Load scheduler "s208" with entities [LocalPlayer, LocalPlayer], work=[191*, 0*]
137: 0x14D8 [0xBB] LOAD_EVENT_SCHEDULER_ALT: Load scheduler "stat" with entities [LocalPlayer, LocalPlayer], work=[25*, 0*]
138: 0x14E9 [0x45] LOAD_SCHEDULED_TASK: Load scheduler "fan1" with entities [LocalPlayer, LocalPlayer], work=[191*, 0*]
139: 0x14FA [0x55] WAIT_LOAD_SCHEDULER: Wait for scheduler "s208" with entities [LocalPlayer, LocalPlayer], work=191*
140: 0x1509 [0xBB] LOAD_EVENT_SCHEDULER_ALT: Load scheduler "stop" with entities [LocalPlayer, LocalPlayer], work=[25*, 0*]
141: 0x151A [0x00] END_REQSTACK()
142: 0x151B [0x01] GOTO 0x15B9
143: 0x151E [0x41] Work_Zone[2] = Work_Zone[37] (bits 0*-3*)
144: 0x1527 [0x02] IF !(Work_Zone[2] == 0*) GOTO 0x1585
145: 0x152F [0x45] LOAD_SCHEDULED_TASK: Load scheduler "s142" with entities [LocalPlayer, LocalPlayer], work=[191*, 0*]
146: 0x1540 [0xBB] LOAD_EVENT_SCHEDULER_ALT: Load scheduler "stat" with entities [LocalPlayer, LocalPlayer], work=[25*, 0*]
147: 0x1551 [0x45] LOAD_SCHEDULED_TASK: Load scheduler "fan1" with entities [LocalPlayer, LocalPlayer], work=[191*, 0*]
148: 0x1562 [0x55] WAIT_LOAD_SCHEDULER: Wait for scheduler "s142" with entities [LocalPlayer, LocalPlayer], work=191*
149: 0x1571 [0xBB] LOAD_EVENT_SCHEDULER_ALT: Load scheduler "stop" with entities [LocalPlayer, LocalPlayer], work=[25*, 0*]
150: 0x1582 [0x01] GOTO 0x15B9
151: 0x1585 [0x45] LOAD_SCHEDULED_TASK: Load scheduler "s146" with entities [LocalPlayer, LocalPlayer], work=[191*, 0*]
152: 0x1596 [0x45] LOAD_SCHEDULED_TASK: Load scheduler "fan2" with entities [LocalPlayer, LocalPlayer], work=[191*, 0*]
153: 0x15A7 [0x1C] WAIT(300* ticks)
154: 0x15AA [0x52] END_LOAD_SCHEDULER: End scheduler "s146" with entities [LocalPlayer, LocalPlayer], work=191*

SUBROUTINE_15B9:
155: 0x15B9 [0x00] END_REQSTACK()
```

### Event 65535.26

#### Metadata

| Field        | Value     |
|--------------|-----------|
| Entrypoint   | 0x15BA    |
| Data Size    | 121 bytes |
| Instructions | 21        |

```
      00 01 02 03 04 05 06 07  08 09 0A 0B 0C 0D 0E 0F
      -- -- -- -- -- -- -- --  -- -- -- -- -- -- -- --
15B0:                                B4 01 13 00 01 80            ......
15C0: B4 01 17 00 22 80 B4 01  1B 00 02 80 B4 01 1F 00  ...."...........
15D0: 2A 80 3E 3B 10 01 80 E3  15 C3 01 80 13 00 22 80  *.>;..........".
15E0: 01 EA 15 C3 01 80 13 00  01 80 3E 3B 10 22 80 FB  ..........>;."..
15F0: 15 C3 22 80 17 00 22 80  01 02 16 C3 22 80 17 00  .."..."....."...
1600: 01 80 3E 3B 10 02 80 13  16 C3 02 80 1B 00 22 80  ..>;..........".
1610: 01 1A 16 C3 02 80 1B 00  01 80 3E 3B 10 2A 80 2B  ..........>;.*.+
1620: 16 C3 2A 80 1F 00 22 80  01 32 16 C3 2A 80 1F 00  ..*..."..2..*...
1630: 01 80 00                                          ...             
```

#### Opcodes

```
  0: 0x15BA [0xB4] UI_WINDOW_STRING_HANDLER(case=0x01 - Copy string from event strings table, work_offset=ExtData[1]->WorkLocal[19], string_index=0*)
  1: 0x15C0 [0xB4] UI_WINDOW_STRING_HANDLER(case=0x01 - Copy string from event strings table, work_offset=ExtData[1]->WorkLocal[23], string_index=1*)
  2: 0x15C6 [0xB4] UI_WINDOW_STRING_HANDLER(case=0x01 - Copy string from event strings table, work_offset=ExtData[1]->WorkLocal[27], string_index=2*)
  3: 0x15CC [0xB4] UI_WINDOW_STRING_HANDLER(case=0x01 - Copy string from event strings table, work_offset=ExtData[1]->WorkLocal[31], string_index=3*)
  4: 0x15D2 [0x3E] IF !(Work_Zone[59] bit 0*) GOTO 0x15E3
  5: 0x15D9 [0xC3] COPY_STRING_TO_ARRAY(array_index=0x8001, string_value=0x13, additional_value=0x8022)
  6: 0x15E0 [0x01] GOTO 0x15EA
