# 17064131 - Bonanza Moogle

## Common Data

| Field            | Value                    |
|------------------|--------------------------|
| Zone             | Chocobo Circuit (ID: 70) |
| Block Size       | 3412 bytes               |
| Total Events     | 5                        |
| References Count | 96                       |

## List of Events

| Event ID              | Entrypoint   |   Size |   Instructions |
|-----------------------|--------------|--------|----------------|
| [65535](#event-65535) | 0x0000       |      1 |              1 |
| [400](#event-400)     | 0x0001       |   1296 |            259 |
| [401](#event-401)     | 0x0511       |    416 |             87 |
| [402](#event-402)     | 0x06B1       |    686 |            154 |
| [403](#event-403)     | 0x095F       |    590 |            175 |

## DAT References (imed_data)

|   Index | Hex Value   |   Dec Value |
|---------|-------------|-------------|
|       0 | 0x0000      |           0 |
|       1 | 0x2616      |        9750 |
|       2 | 0x09FF      |        2559 |
|       3 | 0x16DD      |        5853 |
|       4 | 0x2617      |        9751 |
|       5 | 0x0009      |           9 |
|       6 | 0x2618      |        9752 |
|       7 | 0x000A      |          10 |
|       8 | 0x0001      |           1 |
|       9 | 0x0060      |          96 |
|      10 | 0x2619      |        9753 |
|      11 | 0x261A      |        9754 |
|      12 | 0x0002      |           2 |
|      13 | 0x2627      |        9767 |
|      14 | 0x2628      |        9768 |
|      15 | 0x2629      |        9769 |
|      16 | 0x0064      |         100 |
|      17 | 0x03E8      |        1000 |
|      18 | 0x2710      |       10000 |
|      19 | 0x262B      |        9771 |
|      20 | 0x262C      |        9772 |
|      21 | 0x07D0      |        2000 |
|      22 | 0x262D      |        9773 |
|      23 | 0x262E      |        9774 |
|      24 | 0x262A      |        9770 |
|      25 | 0x0005      |           5 |
|      26 | 0x1869F     |       99999 |
|      27 | 0x2630      |        9776 |
|      28 | 0x2652      |        9810 |
|      29 | 0x0003      |           3 |
|      30 | 0x0008      |           8 |
|      31 | 0x001F      |          31 |
|      32 | 0x262F      |        9775 |
|      33 | 0x2650      |        9808 |
|      34 | 0x0004      |           4 |
|      35 | 0x2651      |        9809 |
|      36 | 0x261B      |        9755 |
|      37 | 0x261C      |        9756 |
|      38 | 0x261D      |        9757 |
|      39 | 0x261E      |        9758 |
|      40 | 0x261F      |        9759 |
|      41 | 0x2620      |        9760 |
|      42 | 0x2621      |        9761 |
|      43 | 0x2622      |        9762 |
|      44 | 0x0006      |           6 |
|      45 | 0x0007      |           7 |
|      46 | 0x000B      |          11 |
|      47 | 0x000C      |          12 |
|      48 | 0x000D      |          13 |
|      49 | 0x000E      |          14 |
|      50 | 0x000F      |          15 |
|      51 | 0x0010      |          16 |
|      52 | 0x0011      |          17 |
|      53 | 0x0012      |          18 |
|      54 | 0x0013      |          19 |
|      55 | 0x0014      |          20 |
|      56 | 0x2624      |        9764 |
|      57 | 0x2625      |        9765 |
|      58 | 0x0017      |          23 |
|      59 | 0x2626      |        9766 |
|      60 | 0x0016      |          22 |
|      61 | 0x2631      |        9777 |
|      62 | 0x2632      |        9778 |
|      63 | 0x2635      |        9781 |
|      64 | 0x2637      |        9783 |
|      65 | 0x2633      |        9779 |
|      66 | 0x2638      |        9784 |
|      67 | 0x2639      |        9785 |
|      68 | 0x263A      |        9786 |
|      69 | 0x263B      |        9787 |
|      70 | 0x263C      |        9788 |
|      71 | 0x263D      |        9789 |
|      72 | 0x263E      |        9790 |
|      73 | 0x263F      |        9791 |
|      74 | 0x2640      |        9792 |
|      75 | 0x2641      |        9793 |
|      76 | 0x2642      |        9794 |
|      77 | 0x2643      |        9795 |
|      78 | 0xFFFFFFFF  |  4294967295 |
|      79 | 0xFFFFFFFE  |  4294967294 |
|      80 | 0x2644      |        9796 |
|      81 | 0x2645      |        9797 |
|      82 | 0x4824      |       18468 |
|      83 | 0x264D      |        9805 |
|      84 | 0x264C      |        9804 |
|      85 | 0x2649      |        9801 |
|      86 | 0x264A      |        9802 |
|      87 | 0x2646      |        9798 |
|      88 | 0x2647      |        9799 |
|      89 | 0x264B      |        9803 |
|      90 | 0x0015      |          21 |
|      91 | 0x2659      |        9817 |
|      92 | 0x43AE      |       17326 |
|      93 | 0x264E      |        9806 |
|      94 | 0x264F      |        9807 |
|      95 | 0x2623      |        9763 |

## String References

- **9750**: Kupopopo... You do realize what we're selling here, don't you?
- **9751**: Whatever could they be selling? [%./$1.]
- **9752**: If you looked up the entry for "wrong answer" in an encyclopedia, that's exactly what would appear, kupo!
- **9753**: You can purchase your $2 tickets here, kupo.
- **9754**: What would you like to do? [Purchase ticket./Learn about prizes./Learn about the [Mog Bonanza/Nomad Mog Bonanza]./Nothing.]
- **9755**: The Mog Bonanza is a number guessing game, kupo.
- **9756**: The player selects a number between 0 and $3. This number is then recorded on $0, which can be purchased for $1 gil, kupo.
- **9757**: The winning numbers will be announced at a later date, so make sure you don't misplace your $0.
- **9758**: You can record the same number on multiple $0. This will mean bigger earnings should you have a winning number, kupo!
- **9759**: Trade me $0 that has a winning number, and I'll give you a prize in exchange.
- **9760**: But remember to trade winning numbers before the deadline, otherwise they'll be as good as trash.
- **9761**: One more thing. You can only have up to $1 $0, so select your numbers carefully, kupo!
- **9762**: View which rank of prizes? [Rank 1./Rank 2./Rank 3./Rank 4./Rank 5./Nothing.]
- **9763**: $26Rank $21 prize list: [??? gil./$1./$2./$3./$4./$5./$6./$7./$8./$9./$10./$11./$12./$13./$14./$15./$16./$17./$18./$19./$20./[Next/Previous] page./Back.]
- **9765**: The cash prize for rank $21 is $0 gil, kupo!
- **9766**: $22 is a rank $21 prize, kupo!
- **9767**: Great! Please select a number between 0 and $3, kupo. You can also leave this to me if you like.
- **9768**: What will you do? [Leave it up to you./Select my own number./Nothing.]
- **9769**: All right then... How about this number, kupo?
- **9770**: What number would you like?
- **9771**: $0.
- **9772**: Confirm number $0? [Yes please./Changed my mind./Cancel purchase.]
- **9773**: Affirmative! That will be $1 gil, kupo. Is that okay?
- **9774**: What would you like to do? [Purchase number $0 for $1 gil./Cancel purchase.]
- **9775**: Thank you, and good luck, kupo!
- **9776**: I'm afraid that number is not available. Please pick a different number, kupo.
- **9777**: You can check winning numbers and claim prizes for the $2 here, kupo.
- **9778**: What would you like to do? [See winning numbers./Learn how to claim a prize./Nothing.]
- **9779**: The winning numbers for each rank are: [Rank 1 "$5$6$7$8$9"/Rank 2 (last $1 digits) "$10$11$12$13"/Rank 3 (last $2 digits) "$14$15$16"/Rank 4 (last $3 digits) "$17$18"/Rank 5 (last $4 digit) "$19"/Back.]
- **9781**: If you have $0 for the $2, trade them to me one at a time.
- **9783**: I'll give you a prize for each $0 with a winning number, kupo.
- **9784**: Let me check the number on your $0...
- **9785**: ...
- **9786**: <Gasp>! It...it...it's a miracle, kupo!!!
- **9787**: You won a Rank 1 Prize!!! I-I'm so excited, I-I...k-k-k-kupoooooo!!!
- **9788**: Oh my sparkling stars!!! Th-this is...!!!
- **9789**: You won a Rank 2 Prize!!! That's incredible, kupo!!!
- **9790**: Wowsers! Wonderful!
- **9791**: You won a Rank 3 Prize! Congratulations, kupo!
- **9792**: Hmmm...!
- **9793**: You won a Rank 4 Prize! Congratulations, kupo!
- **9794**: Hmmm...
- **9795**: You won a Rank 5 Prize! Well done, kupo.
- **9796**: Hm...
- **9797**: I'm sorry, but you got the least-coveted Rank [6/4] Prize, kupo.
- **9798**: Please choose a prize from the following list, kupo.
- **9799**: What will it be? [$0 gil./$1./$2./$3./$4./$5./$6./$7./$8./$9./$10./$11./$12./$13./$14./$15./$16./$17./$18./$19./$20./[Next/Previous] page./Choose later.]
- **9801**: You got it! Just a moment, kupo.
- **9802**: Understood. Please come back when you've made up your mind, kupo.
- **9803**: You chose $0 gil. [Confirm./Changed my mind./Choose later.]
- **9804**: You chose $22. [Confirm./Changed my mind./Choose later.]
- **9805**: Your consolation prize is $0, kupo!
- **9806**: I'll dispose of the $0 for you, kupo.
- **9807**: Here you go... Can't imagine why you'd want it, though, kupo.
- **9808**: Sorry, but you can have only up to $1 $0, kupo.
- **9809**: Sorry, but your main job level has to be $1 or more to buy $0, kupo.
- **9810**: Sorry, but I cannot serve you at the moment. Please try again later, kupo.
- **9817**: plz select [mes/query/end]

## Events

### Event 65535

#### Metadata

| Field        | Value   |
|--------------|---------|
| Entrypoint   | 0x0000  |
| Data Size    | 1 bytes |
| Instructions | 1       |

```
      00 01 02 03 04 05 06 07  08 09 0A 0B 0C 0D 0E 0F
      -- -- -- -- -- -- -- --  -- -- -- -- -- -- -- --
0000: 00                                                .               
```

#### Opcodes

```
  0: 0x0000 [0x00] END_REQSTACK()
```

### Event 400

#### Metadata

| Field        | Value      |
|--------------|------------|
| Entrypoint   | 0x0001     |
| Data Size    | 1296 bytes |
| Instructions | 254        |

```
      00 01 02 03 04 05 06 07  08 09 0A 0B 0C 0D 0E 0F
      -- -- -- -- -- -- -- --  -- -- -- -- -- -- -- --
0000:    42 03 15 00 02 10 4A  F8 FF FF 7F F0 FF FF 7F   B.....J........
0010: 02 03 10 00 80 00 4C 00  1D 01 80 23 03 02 10 02  ......L....#....
0020: 80 03 03 10 03 80 24 04  80 00 80 00 80 25 02 00  ......$......%..
0030: 10 00 80 00 3E 00 03 01  10 05 80 01 49 00 1D 06  ....>.......I...
0040: 80 23 03 01 10 07 80 21  00 01 4C 00 03 16 17 00  .#.....!..L.....
0050: 80 03 00 00 08 80 03 04  10 09 80 1D 0A 80 23 02  ..............#.
0060: 00 00 00 80 02 A9 00 03  04 10 09 80 24 0B 80 00  ............$...
0070: 80 00 80 25 02 00 10 00  80 00 82 00 1A AB 00 01  ...%............
0080: A6 00 02 00 10 08 80 00  90 00 1A BD 02 01 A6 00  ................
0090: 02 00 10 0C 80 00 9E 00  1A 87 02 01 A6 00 06 00  ................
00A0: 00 03 01 10 05 80 01 5F  00 21 00 0B 00 00 02 00  ......._.!......
00B0: 00 08 80 02 01 02 1D 0D  80 23 24 0E 80 00 80 00  .........#$.....
00C0: 80 25 02 00 10 00 80 00  73 01 1D 0F 80 23 13 02  .%......s....#..
00D0: 10 05 80 1C 08 80 13 03  10 05 80 14 03 10 07 80  ................
00E0: 07 02 10 03 10 1C 08 80  13 03 10 05 80 14 03 10  ................
00F0: 10 80 07 02 10 03 10 1C  08 80 13 03 10 05 80 14  ................
0100: 03 10 11 80 07 02 10 03  10 1C 08 80 13 03 10 05  ................
0110: 80 14 03 10 12 80 07 02  10 03 10 1D 13 80 23 24  ..............#$
0120: 14 80 08 80 00 80 25 02  00 10 00 80 00 5F 01 03  ......%......_..
0130: 03 10 15 80 1D 16 80 23  24 17 80 00 80 00 80 25  .......#$......%
0140: 02 00 10 00 80 00 4E 01  1A 02 02 01 5C 01 02 00  ......N.....\...
0150: 10 08 80 00 5C 01 0C 00  00 01 5C 01 01 70 01 02  ....\.....\..p..
0160: 00 10 08 80 00 6D 01 01  CA 00 01 70 01 0C 00 00  .....m.....p....
0170: 01 FE 01 02 00 10 08 80  00 FB 01 1D 18 80 23 71  ..............#q
0180: 12 08 80 19 80 71 13 02  10 02 02 10 00 80 04 F4  .....q..........
0190: 01 02 02 10 1A 80 05 ED  01 24 14 80 08 80 00 80  .........$......
01A0: 25 02 00 10 00 80 00 D9  01 03 03 10 15 80 1D 16  %...............
01B0: 80 23 24 17 80 00 80 00  80 25 02 00 10 00 80 00  .#$......%......
01C0: C8 01 1A 02 02 01 D6 01  02 00 10 08 80 00 D6 01  ................
01D0: 0C 00 00 01 D6 01 01 EA  01 02 00 10 08 80 00 E7  ................
01E0: 01 01 7B 01 01 EA 01 0C  00 00 01 F1 01 1D 1B 80  ..{.............
01F0: 23 01 F8 01 1D 1B 80 23  01 FE 01 0C 00 00 01 AE  #......#........
0200: 00 1B 02 02 10 00 80 03  28 02 02 02 10 1A 80 02  ........(.......
0210: 28 02 1D 1C 80 23 03 01  10 1D 80 40 1E 80 1F 80  (....#.....@....
0220: 01 10 09 10 06 00 00 1B  03 01 10 0C 80 40 1E 80  .............@..
0230: 1F 80 01 10 02 10 43 00  43 01 02 09 10 00 80 00  ......C.C.......
0240: 49 02 1D 20 80 23 01 75  02 02 09 10 1D 80 80 5D  I.. .#.u.......]
0250: 02 03 02 10 02 80 1D 21  80 23 01 75 02 02 09 10  .......!.#.u....
0260: 22 80 80 71 02 03 02 10  02 80 1D 23 80 23 01 75  "..q.......#.#.u
0270: 02 1D 1C 80 23 03 01 10  1D 80 40 1E 80 1F 80 01  ....#.....@.....
0280: 10 09 10 06 00 00 1B 03  04 10 09 80 1D 24 80 23  .............$.#
0290: 03 02 10 02 80 03 03 10  15 80 1D 25 80 23 03 05  ...........%.#..
02A0: 10 1A 80 1D 26 80 23 1D  27 80 23 1D 28 80 23 1D  ....&.#.'.#.(.#.
02B0: 29 80 23 03 03 10 15 00  1D 2A 80 23 1B 0B 00 00  ).#......*.#....
02C0: 02 00 00 08 80 02 EC 02  24 2B 80 00 80 00 80 25  ........$+.....%
02D0: 02 00 10 19 80 00 DE 02  0C 00 00 01 E9 02 03 01  ................
02E0: 00 00 10 1A B4 03 1A ED  02 01 C0 02 1B 0B 00 00  ................
02F0: 02 00 00 0C 80 02 B3 03  03 0D 17 01 00 0B 0D 17  ................
0300: D4 03 08 80 03 10 D4 03  0C 80 04 10 D4 03 1D 80  ................
0310: 05 10 D4 03 22 80 06 10  D4 03 19 80 07 10 D4 03  ...."...........
0320: 2C 80 08 10 D4 03 2D 80  09 10 D4 03 1E 80 00 17  ,.....-.........
0330: D4 03 05 80 01 17 D4 03  07 80 02 17 D4 03 2E 80  ................
0340: 03 17 D4 03 2F 80 04 17  D4 03 30 80 05 17 D4 03  ..../.....0.....
0350: 31 80 06 17 D4 03 32 80  07 17 D4 03 33 80 08 17  1.....2.....3...
0360: D4 03 34 80 09 17 D4 03  35 80 0A 17 D4 03 36 80  ..4.....5.....6.
0370: 0B 17 D4 03 37 80 0C 17  D4 02 38 80 00 80 0E 00  ....7.....8.....
0380: 25 02 00 10 00 80 00 90  03 1D 39 80 23 01 B0 03  %.........9.#...
0390: 02 00 10 3A 80 00 9E 03  0C 00 00 01 B0 03 9D 00  ...:............
03A0: E1 04 0E 17 00 10 93 0E  17 1D 3B 80 23 93 00 80  ..........;.#...
03B0: 01 F0 02 1B 03 01 10 00  80 40 1E 80 1F 80 01 10  .........@......
03C0: 01 00 43 00 43 01 03 03  00 02 10 03 04 00 03 10  ..C.C...........
03D0: 03 05 00 04 10 03 06 00  05 10 03 07 00 06 10 03  ................
03E0: 08 00 07 10 03 09 00 08  10 03 0A 00 09 10 03 01  ................
03F0: 10 08 80 40 1E 80 1F 80  01 10 01 00 43 00 43 01  ...@........C.C.
0400: 03 0B 00 02 10 03 0C 00  03 10 03 0D 00 04 10 03  ................
0410: 0E 00 05 10 3C 0E 00 3C  80 08 80 3C 0E 00 3A 80  ....<..<...<..:.
0420: 08 80 03 16 00 06 10 03  02 10 03 00 41 00 80 32  ............A..2
0430: 80 04 00 03 10 41 33 80  1F 80 04 00 04 10 41 00  .....A3.......A.
0440: 80 32 80 05 00 05 10 41  33 80 1F 80 05 00 06 10  .2.....A3.......
0450: 41 00 80 32 80 06 00 07  10 41 33 80 1F 80 06 00  A..2.....A3.....
0460: 08 10 41 00 80 32 80 07  00 09 10 41 33 80 1F 80  ..A..2.....A3...
0470: 07 00 00 17 41 00 80 32  80 08 00 01 17 41 33 80  ....A..2.....A3.
0480: 1F 80 08 00 02 17 41 00  80 32 80 09 00 03 17 41  ......A..2.....A
0490: 33 80 1F 80 09 00 04 17  41 00 80 32 80 0A 00 05  3.......A..2....
04A0: 17 41 33 80 1F 80 0A 00  06 17 41 00 80 32 80 0B  .A3.......A..2..
04B0: 00 07 17 41 33 80 1F 80  0B 00 08 17 41 00 80 32  ...A3.......A..2
04C0: 80 0C 00 09 17 41 33 80  1F 80 0C 00 0A 17 41 00  .....A3.......A.
04D0: 80 32 80 0D 00 0B 17 41  33 80 1F 80 0D 00 0C 17  .2.....A3.......
04E0: 1B 02 10 03 10 04 10 05  10 06 10 07 10 08 10 09  ................
04F0: 10 00 17 01 17 02 17 03  17 04 17 05 17 06 17 07  ................
0500: 17 08 17 09 17 0A 17 0B  17 0C 17 0D 17 0E 17 0F  ................
0510: 17                                                .               
```

#### Opcodes

```
  0: 0x0001 [0x42] SET_CLI_EVENT_CANCEL_DATA()
  1: 0x0002 [0x03] ExtData[1]->WorkLocal[21] = Work_Zone[2]
  2: 0x0007 [0x4A] EventEntity looks at LocalPlayer
  3: 0x0010 [0x02] IF !(Work_Zone[3] == 0*) GOTO 0x004C
  4: 0x0018 [0x1D] PRINT_EVENT_MESSAGE(message_id=9750*)
    → "Kupopopo... You do realize what we're selling here, don't you?"
  5: 0x001B [0x23] WAIT_FOR_DIALOG_INTERACTION
  6: 0x001C [0x03] Work_Zone[2] = 2559*
  7: 0x0021 [0x03] Work_Zone[3] = 5853*
  8: 0x0026 [0x24] CREATE_DIALOG(message_id=9751*, default_option=0*, option_flags=0*)
    → "Whatever could they be selling? [%./$1.]"
  9: 0x002D [0x25] WAIT_DIALOG_SELECT()
 10: 0x002E [0x02] IF !(Work_Zone[0] == 0*) GOTO 0x003E
 11: 0x0036 [0x03] Work_Zone[1] = 9*
 12: 0x003B [0x01] GOTO 0x0049
 13: 0x003E [0x1D] PRINT_EVENT_MESSAGE(message_id=9752*)
    → "If you looked up the entry for "wrong answer" in an encyclopedia, that's exactly what would appear, kupo!"
 14: 0x0041 [0x23] WAIT_FOR_DIALOG_INTERACTION
 15: 0x0042 [0x03] Work_Zone[1] = 10*
 16: 0x0047 [0x21] END_EVENT
 17: 0x0048 [0x00] END_REQSTACK()

SUBROUTINE_0049:
 18: 0x0049 [0x01] GOTO 0x004C

SUBROUTINE_004C:
 19: 0x004C [0x03] Work_Zone_1700[22] = 0*
 20: 0x0051 [0x03] ExtData[1]->WorkLocal[0] = 1*
 21: 0x0056 [0x03] Work_Zone[4] = 96*
 22: 0x005B [0x1D] PRINT_EVENT_MESSAGE(message_id=9753*)
    → "You can purchase your $2 tickets here, kupo."
 23: 0x005E [0x23] WAIT_FOR_DIALOG_INTERACTION

SUBROUTINE_005F:
 24: 0x005F [0x02] IF !(ExtData[1]->WorkLocal[0] <= 0*) GOTO 0x00A9
 25: 0x0067 [0x03] Work_Zone[4] = 96*
 26: 0x006C [0x24] CREATE_DIALOG(message_id=9754*, default_option=0*, option_flags=0*)
    → "What would you like to do? [Purchase ticket./Learn about prizes./Learn about the [Mog Bonanza/Nomad Mog Bonanza]./Nothing.]"
 27: 0x0073 [0x25] WAIT_DIALOG_SELECT()
 28: 0x0074 [0x02] IF !(Work_Zone[0] == 0*) GOTO 0x0082
 29: 0x007C [0x1A] CALL_SUBROUTINE(address=0x00AB)
 30: 0x007F [0x01] GOTO 0x00A6
 31: 0x0082 [0x02] IF !(Work_Zone[0] == 1*) GOTO 0x0090
 32: 0x008A [0x1A] CALL_SUBROUTINE(address=0x02BD)
 33: 0x008D [0x01] GOTO 0x00A6
 34: 0x0090 [0x02] IF !(Work_Zone[0] == 2*) GOTO 0x009E
 35: 0x0098 [0x1A] CALL_SUBROUTINE(address=0x0287)
 36: 0x009B [0x01] GOTO 0x00A6
 37: 0x009E [0x06] ExtData[1]->WorkLocal[0] = 0
 38: 0x00A1 [0x03] Work_Zone[1] = 9*

SUBROUTINE_00A6:
 39: 0x00A6 [0x01] GOTO 0x005F
 40: 0x00A9 [0x21] END_EVENT
 41: 0x00AA [0x00] END_REQSTACK()

SUBROUTINE_00AB:
 42: 0x00AB [0x0B] ExtData[1]->WorkLocal[0]++

SUBROUTINE_00AE:
 43: 0x00AE [0x02] IF !(ExtData[1]->WorkLocal[0] <= 1*) GOTO 0x0201
 44: 0x00B6 [0x1D] PRINT_EVENT_MESSAGE(message_id=9767*)
    → "Great! Please select a number between 0 and $3, kupo. You can also leave this to me if you like."
 45: 0x00B9 [0x23] WAIT_FOR_DIALOG_INTERACTION
 46: 0x00BA [0x24] CREATE_DIALOG(message_id=9768*, default_option=0*, option_flags=0*)
    → "What will you do? [Leave it up to you./Select my own number./Nothing.]"
 47: 0x00C1 [0x25] WAIT_DIALOG_SELECT()
 48: 0x00C2 [0x02] IF !(Work_Zone[0] == 0*) GOTO 0x0173

SUBROUTINE_00CA:
 49: 0x00CA [0x1D] PRINT_EVENT_MESSAGE(message_id=9769*)
    → "All right then... How about this number, kupo?"
 50: 0x00CD [0x23] WAIT_FOR_DIALOG_INTERACTION
 51: 0x00CE [0x13] Work_Zone[2] = rand() % 9*
 52: 0x00D3 [0x1C] WAIT(1* ticks)
 53: 0x00D6 [0x13] Work_Zone[3] = rand() % 9*
 54: 0x00DB [0x14] Work_Zone[3] *= 10*
 55: 0x00E0 [0x07] Work_Zone[2] += Work_Zone[3]
 56: 0x00E5 [0x1C] WAIT(1* ticks)
 57: 0x00E8 [0x13] Work_Zone[3] = rand() % 9*
 58: 0x00ED [0x14] Work_Zone[3] *= 100*
 59: 0x00F2 [0x07] Work_Zone[2] += Work_Zone[3]
 60: 0x00F7 [0x1C] WAIT(1* ticks)
 61: 0x00FA [0x13] Work_Zone[3] = rand() % 9*
 62: 0x00FF [0x14] Work_Zone[3] *= 1000*
 63: 0x0104 [0x07] Work_Zone[2] += Work_Zone[3]
 64: 0x0109 [0x1C] WAIT(1* ticks)
 65: 0x010C [0x13] Work_Zone[3] = rand() % 9*
 66: 0x0111 [0x14] Work_Zone[3] *= 10000*
 67: 0x0116 [0x07] Work_Zone[2] += Work_Zone[3]
 68: 0x011B [0x1D] PRINT_EVENT_MESSAGE(message_id=9771*)
    → "$0."
 69: 0x011E [0x23] WAIT_FOR_DIALOG_INTERACTION
 70: 0x011F [0x24] CREATE_DIALOG(message_id=9772*, default_option=1*, option_flags=0*)
    → "Confirm number $0? [Yes please./Changed my mind./Cancel purchase.]"
 71: 0x0126 [0x25] WAIT_DIALOG_SELECT()
 72: 0x0127 [0x02] IF !(Work_Zone[0] == 0*) GOTO 0x015F
 73: 0x012F [0x03] Work_Zone[3] = 2000*
 74: 0x0134 [0x1D] PRINT_EVENT_MESSAGE(message_id=9773*)
    → "Affirmative! That will be $1 gil, kupo. Is that okay?"
 75: 0x0137 [0x23] WAIT_FOR_DIALOG_INTERACTION
 76: 0x0138 [0x24] CREATE_DIALOG(message_id=9774*, default_option=0*, option_flags=0*)
    → "What would you like to do? [Purchase number $0 for $1 gil./Cancel purchase.]"
 77: 0x013F [0x25] WAIT_DIALOG_SELECT()
 78: 0x0140 [0x02] IF !(Work_Zone[0] == 0*) GOTO 0x014E
 79: 0x0148 [0x1A] CALL_SUBROUTINE(address=0x0202)
 80: 0x014B [0x01] GOTO 0x015C
 81: 0x014E [0x02] IF !(Work_Zone[0] == 1*) GOTO 0x015C
 82: 0x0156 [0x0C] ExtData[1]->WorkLocal[0]--
 83: 0x0159 [0x01] GOTO 0x015C

SUBROUTINE_015C:
 84: 0x015C [0x01] GOTO 0x0170
 85: 0x015F [0x02] IF !(Work_Zone[0] == 1*) GOTO 0x016D
 86: 0x0167 [0x01] GOTO 0x00CA

SUBROUTINE_0170:
 87: 0x0170 [0x01] GOTO 0x01FE
 88: 0x0173 [0x02] IF !(Work_Zone[0] == 1*) GOTO 0x01FB

SUBROUTINE_017B:
 89: 0x017B [0x1D] PRINT_EVENT_MESSAGE(message_id=9770*)
    → "What number would you like?"
 90: 0x017E [0x23] WAIT_FOR_DIALOG_INTERACTION
 91: 0x017F [0x71] USER_INPUT_HANDLER: Open numerical input with params (work=[1*, 5*])
 92: 0x0185 [0x71] USER_INPUT_HANDLER: Process numerical input B (work=Work_Zone[2])
 93: 0x0189 [0x02] IF !(Work_Zone[2] < 0*) GOTO 0x01F4
 94: 0x0191 [0x02] IF !(Work_Zone[2] > 99999*) GOTO 0x01ED
 95: 0x0199 [0x24] CREATE_DIALOG(message_id=9772*, default_option=1*, option_flags=0*)
    → "Confirm number $0? [Yes please./Changed my mind./Cancel purchase.]"
 96: 0x01A0 [0x25] WAIT_DIALOG_SELECT()
 97: 0x01A1 [0x02] IF !(Work_Zone[0] == 0*) GOTO 0x01D9
 98: 0x01A9 [0x03] Work_Zone[3] = 2000*
 99: 0x01AE [0x1D] PRINT_EVENT_MESSAGE(message_id=9773*)
    → "Affirmative! That will be $1 gil, kupo. Is that okay?"
100: 0x01B1 [0x23] WAIT_FOR_DIALOG_INTERACTION
101: 0x01B2 [0x24] CREATE_DIALOG(message_id=9774*, default_option=0*, option_flags=0*)
    → "What would you like to do? [Purchase number $0 for $1 gil./Cancel purchase.]"
102: 0x01B9 [0x25] WAIT_DIALOG_SELECT()
103: 0x01BA [0x02] IF !(Work_Zone[0] == 0*) GOTO 0x01C8
104: 0x01C2 [0x1A] CALL_SUBROUTINE(address=0x0202)
105: 0x01C5 [0x01] GOTO 0x01D6
106: 0x01C8 [0x02] IF !(Work_Zone[0] == 1*) GOTO 0x01D6
107: 0x01D0 [0x0C] ExtData[1]->WorkLocal[0]--
108: 0x01D3 [0x01] GOTO 0x01D6

SUBROUTINE_01D6:
109: 0x01D6 [0x01] GOTO 0x01EA
110: 0x01D9 [0x02] IF !(Work_Zone[0] == 1*) GOTO 0x01E7
111: 0x01E1 [0x01] GOTO 0x017B

SUBROUTINE_01EA:
112: 0x01EA [0x01] GOTO 0x01F1
113: 0x01ED [0x1D] PRINT_EVENT_MESSAGE(message_id=9776*)
    → "I'm afraid that number is not available. Please pick a different number, kupo."
114: 0x01F0 [0x23] WAIT_FOR_DIALOG_INTERACTION

SUBROUTINE_01F1:
115: 0x01F1 [0x01] GOTO 0x01F8
116: 0x01F4 [0x1D] PRINT_EVENT_MESSAGE(message_id=9776*)
    → "I'm afraid that number is not available. Please pick a different number, kupo."
117: 0x01F7 [0x23] WAIT_FOR_DIALOG_INTERACTION

SUBROUTINE_01F8:
118: 0x01F8 [0x01] GOTO 0x01FE
119: 0x01FB [0x0C] ExtData[1]->WorkLocal[0]--

SUBROUTINE_01FE:
120: 0x01FE [0x01] GOTO 0x00AE
121: 0x0201 [0x1B] RETURN

SUBROUTINE_0202:
122: 0x0202 [0x02] IF !(Work_Zone[2] >= 0*) GOTO 0x0228
123: 0x020A [0x02] IF !(Work_Zone[2] <= 99999*) GOTO 0x0228
124: 0x0212 [0x1D] PRINT_EVENT_MESSAGE(message_id=9810*)
    → "Sorry, but I cannot serve you at the moment. Please try again later, kupo."
125: 0x0215 [0x23] WAIT_FOR_DIALOG_INTERACTION
126: 0x0216 [0x03] Work_Zone[1] = 3*
127: 0x021B [0x40] SET_BIT_WORK_RANGE(start_bit=8*, end_bit=31*, target=Work_Zone[1], source=Work_Zone[9])
128: 0x0224 [0x06] ExtData[1]->WorkLocal[0] = 0
129: 0x0227 [0x1B] RETURN
130: 0x0228 [0x03] Work_Zone[1] = 2*
131: 0x022D [0x40] SET_BIT_WORK_RANGE(start_bit=8*, end_bit=31*, target=Work_Zone[1], source=Work_Zone[2])
132: 0x0236 [0x43] SEND_EVENT_UPDATE: Send pending tag to server (packet 0x005B)
133: 0x0238 [0x43] SEND_EVENT_UPDATE: Check pending flag (skip if not pending)
134: 0x023A [0x02] IF !(Work_Zone[9] == 0*) GOTO 0x0249
135: 0x0242 [0x1D] PRINT_EVENT_MESSAGE(message_id=9775*)
    → "Thank you, and good luck, kupo!"
136: 0x0245 [0x23] WAIT_FOR_DIALOG_INTERACTION
137: 0x0246 [0x01] GOTO 0x0275
138: 0x0249 [0x02] IF !(Work_Zone[9] == 3*) GOTO 0x025D
139: 0x0251 [0x03] Work_Zone[2] = 2559*
140: 0x0256 [0x1D] PRINT_EVENT_MESSAGE(message_id=9808*)
    → "Sorry, but you can have only up to $1 $0, kupo."
141: 0x0259 [0x23] WAIT_FOR_DIALOG_INTERACTION
142: 0x025A [0x01] GOTO 0x0275
143: 0x025D [0x02] IF !(Work_Zone[9] == 4*) GOTO 0x0271
144: 0x0265 [0x03] Work_Zone[2] = 2559*
145: 0x026A [0x1D] PRINT_EVENT_MESSAGE(message_id=9809*)
    → "Sorry, but your main job level has to be $1 or more to buy $0, kupo."
146: 0x026D [0x23] WAIT_FOR_DIALOG_INTERACTION
147: 0x026E [0x01] GOTO 0x0275
148: 0x0271 [0x1D] PRINT_EVENT_MESSAGE(message_id=9810*)
    → "Sorry, but I cannot serve you at the moment. Please try again later, kupo."
149: 0x0274 [0x23] WAIT_FOR_DIALOG_INTERACTION

SUBROUTINE_0275:
150: 0x0275 [0x03] Work_Zone[1] = 3*
151: 0x027A [0x40] SET_BIT_WORK_RANGE(start_bit=8*, end_bit=31*, target=Work_Zone[1], source=Work_Zone[9])
152: 0x0283 [0x06] ExtData[1]->WorkLocal[0] = 0
153: 0x0286 [0x1B] RETURN

SUBROUTINE_0287:
154: 0x0287 [0x03] Work_Zone[4] = 96*
155: 0x028C [0x1D] PRINT_EVENT_MESSAGE(message_id=9755*)
    → "The Mog Bonanza is a number guessing game, kupo."
156: 0x028F [0x23] WAIT_FOR_DIALOG_INTERACTION
157: 0x0290 [0x03] Work_Zone[2] = 2559*
158: 0x0295 [0x03] Work_Zone[3] = 2000*
159: 0x029A [0x1D] PRINT_EVENT_MESSAGE(message_id=9756*)
    → "The player selects a number between 0 and $3. This number is then recorded on $0, which can be purchased for $1 gil, kupo."
160: 0x029D [0x23] WAIT_FOR_DIALOG_INTERACTION
161: 0x029E [0x03] Work_Zone[5] = 99999*
162: 0x02A3 [0x1D] PRINT_EVENT_MESSAGE(message_id=9757*)
    → "The winning numbers will be announced at a later date, so make sure you don't misplace your $0."
163: 0x02A6 [0x23] WAIT_FOR_DIALOG_INTERACTION
164: 0x02A7 [0x1D] PRINT_EVENT_MESSAGE(message_id=9758*)
    → "You can record the same number on multiple $0. This will mean bigger earnings should you have a winning number, kupo!"
165: 0x02AA [0x23] WAIT_FOR_DIALOG_INTERACTION
166: 0x02AB [0x1D] PRINT_EVENT_MESSAGE(message_id=9759*)
    → "Trade me $0 that has a winning number, and I'll give you a prize in exchange."
167: 0x02AE [0x23] WAIT_FOR_DIALOG_INTERACTION
168: 0x02AF [0x1D] PRINT_EVENT_MESSAGE(message_id=9760*)
    → "But remember to trade winning numbers before the deadline, otherwise they'll be as good as trash."
169: 0x02B2 [0x23] WAIT_FOR_DIALOG_INTERACTION
170: 0x02B3 [0x03] Work_Zone[3] = ExtData[1]->WorkLocal[21]
171: 0x02B8 [0x1D] PRINT_EVENT_MESSAGE(message_id=9761*)
    → "One more thing. You can only have up to $1 $0, so select your numbers carefully, kupo!"
172: 0x02BB [0x23] WAIT_FOR_DIALOG_INTERACTION
173: 0x02BC [0x1B] RETURN

SUBROUTINE_02BD:
174: 0x02BD [0x0B] ExtData[1]->WorkLocal[0]++

SUBROUTINE_02C0:
175: 0x02C0 [0x02] IF !(ExtData[1]->WorkLocal[0] <= 1*) GOTO 0x02EC
176: 0x02C8 [0x24] CREATE_DIALOG(message_id=9762*, default_option=0*, option_flags=0*)
    → "View which rank of prizes? [Rank 1./Rank 2./Rank 3./Rank 4./Rank 5./Nothing.]"
177: 0x02CF [0x25] WAIT_DIALOG_SELECT()
178: 0x02D0 [0x02] IF !(Work_Zone[0] == 5*) GOTO 0x02DE
179: 0x02D8 [0x0C] ExtData[1]->WorkLocal[0]--
180: 0x02DB [0x01] GOTO 0x02E9
181: 0x02DE [0x03] ExtData[1]->WorkLocal[1] = Work_Zone[0]
182: 0x02E3 [0x1A] CALL_SUBROUTINE(address=0x03B4)
183: 0x02E6 [0x1A] CALL_SUBROUTINE(address=0x02ED)

SUBROUTINE_02E9:
184: 0x02E9 [0x01] GOTO 0x02C0
185: 0x02EC [0x1B] RETURN

SUBROUTINE_02ED:
186: 0x02ED [0x0B] ExtData[1]->WorkLocal[0]++

SUBROUTINE_02F0:
187: 0x02F0 [0x02] IF !(ExtData[1]->WorkLocal[0] <= 2*) GOTO 0x03B3
188: 0x02F8 [0x03] Work_Zone_1700[13] = ExtData[1]->WorkLocal[1]
189: 0x02FD [0x0B] Work_Zone_1700[13]++
190: 0x0300 [0xD4] MAP_QUERY_WINDOW: Prepare buffer configuration A (buffer=[08 80 03 10 D4 03 0C 80...])
191: 0x031E [0xD4] MAP_QUERY_WINDOW: Prepare buffer configuration A (buffer=[2C 80 08 10 D4 03 2D 80...])
192: 0x033C [0xD4] MAP_QUERY_WINDOW: Prepare buffer configuration A (buffer=[2E 80 03 17 D4 03 2F 80...])
193: 0x035A [0xD4] MAP_QUERY_WINDOW: Prepare buffer configuration A (buffer=[33 80 08 17 D4 03 34 80...])
194: 0x0378 [0xD4] MAP_QUERY_WINDOW: Test and open query window (flag=0x38, work=[0x80, 0x0E80, 0x2500])
195: 0x0381 [0x02] IF !(Work_Zone[0] == 0*) GOTO 0x0390
196: 0x0389 [0x1D] PRINT_EVENT_MESSAGE(message_id=9765*)
    → "The cash prize for rank $21 is $0 gil, kupo!"
197: 0x038C [0x23] WAIT_FOR_DIALOG_INTERACTION
198: 0x038D [0x01] GOTO 0x03B0
199: 0x0390 [0x02] IF !(Work_Zone[0] == 23*) GOTO 0x039E
200: 0x0398 [0x0C] ExtData[1]->WorkLocal[0]--
201: 0x039B [0x01] GOTO 0x03B0
202: 0x039E [0x9D] Work_Zone_1700[14] = 0x04E1[Work_Zone[0]] // Read WORD
203: 0x03A6 [0x93] DISPLAY_ITEM_INFO(item_id=Work_Zone_1700[14])
204: 0x03A9 [0x1D] PRINT_EVENT_MESSAGE(message_id=9766*)
    → "$22 is a rank $21 prize, kupo!"
205: 0x03AC [0x23] WAIT_FOR_DIALOG_INTERACTION
206: 0x03AD [0x93] DISPLAY_ITEM_INFO(item_id=0*)

SUBROUTINE_03B0:
207: 0x03B0 [0x01] GOTO 0x02F0
208: 0x03B3 [0x1B] RETURN

SUBROUTINE_03B4:
209: 0x03B4 [0x03] Work_Zone[1] = 0*
210: 0x03B9 [0x40] SET_BIT_WORK_RANGE(start_bit=8*, end_bit=31*, target=Work_Zone[1], source=ExtData[1]->WorkLocal[1])
211: 0x03C2 [0x43] SEND_EVENT_UPDATE: Send pending tag to server (packet 0x005B)
212: 0x03C4 [0x43] SEND_EVENT_UPDATE: Check pending flag (skip if not pending)
213: 0x03C6 [0x03] ExtData[1]->WorkLocal[3] = Work_Zone[2]
214: 0x03CB [0x03] ExtData[1]->WorkLocal[4] = Work_Zone[3]
215: 0x03D0 [0x03] ExtData[1]->WorkLocal[5] = Work_Zone[4]
216: 0x03D5 [0x03] ExtData[1]->WorkLocal[6] = Work_Zone[5]
217: 0x03DA [0x03] ExtData[1]->WorkLocal[7] = Work_Zone[6]
218: 0x03DF [0x03] ExtData[1]->WorkLocal[8] = Work_Zone[7]
219: 0x03E4 [0x03] ExtData[1]->WorkLocal[9] = Work_Zone[8]
220: 0x03E9 [0x03] ExtData[1]->WorkLocal[10] = Work_Zone[9]
221: 0x03EE [0x03] Work_Zone[1] = 1*
222: 0x03F3 [0x40] SET_BIT_WORK_RANGE(start_bit=8*, end_bit=31*, target=Work_Zone[1], source=ExtData[1]->WorkLocal[1])
223: 0x03FC [0x43] SEND_EVENT_UPDATE: Send pending tag to server (packet 0x005B)
224: 0x03FE [0x43] SEND_EVENT_UPDATE: Check pending flag (skip if not pending)
225: 0x0400 [0x03] ExtData[1]->WorkLocal[11] = Work_Zone[2]
226: 0x0405 [0x03] ExtData[1]->WorkLocal[12] = Work_Zone[3]
227: 0x040A [0x03] ExtData[1]->WorkLocal[13] = Work_Zone[4]
228: 0x040F [0x03] ExtData[1]->WorkLocal[14] = Work_Zone[5]
229: 0x0414 [0x3C] SET_BIT_FLAG_CONDITIONAL(target_work_offset=ExtData[1]->WorkLocal[14], bit_index_work_offset=22*, condition_work_offset=1*)
230: 0x041B [0x3C] SET_BIT_FLAG_CONDITIONAL(target_work_offset=ExtData[1]->WorkLocal[14], bit_index_work_offset=23*, condition_work_offset=1*)
231: 0x0422 [0x03] ExtData[1]->WorkLocal[22] = Work_Zone[6]
232: 0x0427 [0x03] Work_Zone[2] = ExtData[1]->WorkLocal[3]
233: 0x042C [0x41] Work_Zone[3] = ExtData[1]->WorkLocal[4] (bits 0*-15*)
234: 0x0435 [0x41] Work_Zone[4] = ExtData[1]->WorkLocal[4] (bits 16*-31*)
235: 0x043E [0x41] Work_Zone[5] = ExtData[1]->WorkLocal[5] (bits 0*-15*)
236: 0x0447 [0x41] Work_Zone[6] = ExtData[1]->WorkLocal[5] (bits 16*-31*)
237: 0x0450 [0x41] Work_Zone[7] = ExtData[1]->WorkLocal[6] (bits 0*-15*)
238: 0x0459 [0x41] Work_Zone[8] = ExtData[1]->WorkLocal[6] (bits 16*-31*)
239: 0x0462 [0x41] Work_Zone[9] = ExtData[1]->WorkLocal[7] (bits 0*-15*)
240: 0x046B [0x41] Work_Zone_1700[0] = ExtData[1]->WorkLocal[7] (bits 16*-31*)
241: 0x0474 [0x41] Work_Zone_1700[1] = ExtData[1]->WorkLocal[8] (bits 0*-15*)
242: 0x047D [0x41] Work_Zone_1700[2] = ExtData[1]->WorkLocal[8] (bits 16*-31*)
243: 0x0486 [0x41] Work_Zone_1700[3] = ExtData[1]->WorkLocal[9] (bits 0*-15*)
244: 0x048F [0x41] Work_Zone_1700[4] = ExtData[1]->WorkLocal[9] (bits 16*-31*)
245: 0x0498 [0x41] Work_Zone_1700[5] = ExtData[1]->WorkLocal[10] (bits 0*-15*)
246: 0x04A1 [0x41] Work_Zone_1700[6] = ExtData[1]->WorkLocal[10] (bits 16*-31*)
247: 0x04AA [0x41] Work_Zone_1700[7] = ExtData[1]->WorkLocal[11] (bits 0*-15*)
248: 0x04B3 [0x41] Work_Zone_1700[8] = ExtData[1]->WorkLocal[11] (bits 16*-31*)
249: 0x04BC [0x41] Work_Zone_1700[9] = ExtData[1]->WorkLocal[12] (bits 0*-15*)
250: 0x04C5 [0x41] Work_Zone_1700[10] = ExtData[1]->WorkLocal[12] (bits 16*-31*)
251: 0x04CE [0x41] Work_Zone_1700[11] = ExtData[1]->WorkLocal[13] (bits 0*-15*)
252: 0x04D7 [0x41] Work_Zone_1700[12] = ExtData[1]->WorkLocal[13] (bits 16*-31*)
253: 0x04E0 [0x1B] RETURN
```

#### Data or dead code:

```
# Data Section: 0x04E1 (48 bytes)
     0x04E1: 02 10 03 10 04 10 05 10 06 10 07 10 08 10 09 10
     0x04F1: 00 17 01 17 02 17 03 17 04 17 05 17 06 17 07 17
     0x0501: 08 17 09 17 0A 17 0B 17 0C 17 0D 17 0E 17 0F 17
# Dead code (unreachable instructions):
     0x016A [0x01] GOTO 0x0170
# Dead code (unreachable instructions):
     0x01E4 [0x01] GOTO 0x01EA
```

### Event 401

#### Metadata

| Field        | Value     |
|--------------|-----------|
| Entrypoint   | 0x0511    |
| Data Size    | 416 bytes |
| Instructions | 87        |

```
      00 01 02 03 04 05 06 07  08 09 0A 0B 0C 0D 0E 0F
      -- -- -- -- -- -- -- --  -- -- -- -- -- -- -- --
0510:    42 03 0F 00 02 10 03  10 00 03 10 03 11 00 04   B..............
0520: 10 03 12 00 05 10 03 13  00 06 10 4A F8 FF FF 7F  ...........J....
0530: F0 FF FF 7F 03 00 00 08  80 03 04 10 09 80 1D 3D  ...............=
0540: 80 23 02 00 00 00 80 02  79 05 03 04 10 09 80 24  .#......y......$
0550: 3E 80 00 80 00 80 25 02  00 10 00 80 00 65 05 1A  >.....%......e..
0560: 8E 05 01 76 05 02 00 10  08 80 00 73 05 1A 7B 05  ...v.......s..{.
0570: 01 76 05 06 00 00 01 42  05 21 00 03 02 10 02 80  .v.....B.!......
0580: 03 04 10 09 80 1D 3F 80  23 1D 40 80 23 1B 0B 00  ......?.#.@.#...
0590: 00 02 00 00 08 80 02 B0  06 03 03 10 22 80 03 04  ............"...
05A0: 10 1D 80 03 05 10 0C 80  03 06 10 08 80 03 07 10  ................
05B0: 0F 00 15 07 10 12 80 03  08 10 0F 00 3F 08 10 08  ............?...
05C0: 10 12 80 15 08 10 11 80  03 09 10 0F 00 3F 09 10  .............?..
05D0: 09 10 11 80 15 09 10 10  80 03 00 17 0F 00 3F 00  ..............?.
05E0: 17 00 17 10 80 15 00 17  07 80 03 01 17 0F 00 3F  ...............?
05F0: 01 17 01 17 07 80 03 02  17 10 00 3F 02 17 02 17  ...........?....
0600: 12 80 15 02 17 11 80 03  03 17 10 00 3F 03 17 03  ............?...
0610: 17 11 80 15 03 17 10 80  03 04 17 10 00 3F 04 17  .............?..
0620: 04 17 10 80 15 04 17 07  80 03 05 17 10 00 3F 05  ..............?.
0630: 17 05 17 07 80 03 06 17  11 00 3F 06 17 06 17 11  ..........?.....
0640: 80 15 06 17 10 80 03 07  17 11 00 3F 07 17 07 17  ...........?....
0650: 10 80 15 07 17 07 80 03  08 17 11 00 3F 08 17 08  ............?...
0660: 17 07 80 03 09 17 12 00  3F 09 17 09 17 10 80 15  ........?.......
0670: 09 17 07 80 03 0A 17 12  00 3F 0A 17 0A 17 07 80  .........?......
0680: 03 0B 17 13 00 3F 0B 17  0B 17 07 80 24 41 80 00  .....?......$A..
0690: 80 00 80 25 02 00 10 19  80 00 A2 06 0C 00 00 01  ...%............
06A0: AD 06 03 01 00 00 10 1A  B4 03 1A ED 02 01 91 05  ................
06B0: 1B                                                .               
```

#### Opcodes

```
  0: 0x0511 [0x42] SET_CLI_EVENT_CANCEL_DATA()
  1: 0x0512 [0x03] ExtData[1]->WorkLocal[15] = Work_Zone[2]
  2: 0x0517 [0x03] ExtData[1]->WorkLocal[16] = Work_Zone[3]
  3: 0x051C [0x03] ExtData[1]->WorkLocal[17] = Work_Zone[4]
  4: 0x0521 [0x03] ExtData[1]->WorkLocal[18] = Work_Zone[5]
  5: 0x0526 [0x03] ExtData[1]->WorkLocal[19] = Work_Zone[6]
  6: 0x052B [0x4A] EventEntity looks at LocalPlayer
  7: 0x0534 [0x03] ExtData[1]->WorkLocal[0] = 1*
  8: 0x0539 [0x03] Work_Zone[4] = 96*
  9: 0x053E [0x1D] PRINT_EVENT_MESSAGE(message_id=9777*)
    → "You can check winning numbers and claim prizes for the $2 here, kupo."
 10: 0x0541 [0x23] WAIT_FOR_DIALOG_INTERACTION
 11: 0x0542 [0x02] IF !(ExtData[1]->WorkLocal[0] <= 0*) GOTO 0x0579
 12: 0x054A [0x03] Work_Zone[4] = 96*
 13: 0x054F [0x24] CREATE_DIALOG(message_id=9778*, default_option=0*, option_flags=0*)
    → "What would you like to do? [See winning numbers./Learn how to claim a prize./Nothing.]"
 14: 0x0556 [0x25] WAIT_DIALOG_SELECT()
 15: 0x0557 [0x02] IF !(Work_Zone[0] == 0*) GOTO 0x0565
 16: 0x055F [0x1A] CALL_SUBROUTINE(address=0x058E)
 17: 0x0562 [0x01] GOTO 0x0576
 18: 0x0565 [0x02] IF !(Work_Zone[0] == 1*) GOTO 0x0573
 19: 0x056D [0x1A] CALL_SUBROUTINE(address=0x057B)
 20: 0x0570 [0x01] GOTO 0x0576
 21: 0x0573 [0x06] ExtData[1]->WorkLocal[0] = 0

SUBROUTINE_0576:
 22: 0x0576 [0x01] GOTO 0x0542
 23: 0x0579 [0x21] END_EVENT
 24: 0x057A [0x00] END_REQSTACK()

SUBROUTINE_057B:
 25: 0x057B [0x03] Work_Zone[2] = 2559*
 26: 0x0580 [0x03] Work_Zone[4] = 96*
 27: 0x0585 [0x1D] PRINT_EVENT_MESSAGE(message_id=9781*)
    → "If you have $0 for the $2, trade them to me one at a time."
 28: 0x0588 [0x23] WAIT_FOR_DIALOG_INTERACTION
 29: 0x0589 [0x1D] PRINT_EVENT_MESSAGE(message_id=9783*)
    → "I'll give you a prize for each $0 with a winning number, kupo."
 30: 0x058C [0x23] WAIT_FOR_DIALOG_INTERACTION
 31: 0x058D [0x1B] RETURN

SUBROUTINE_058E:
 32: 0x058E [0x0B] ExtData[1]->WorkLocal[0]++

SUBROUTINE_0591:
 33: 0x0591 [0x02] IF !(ExtData[1]->WorkLocal[0] <= 1*) GOTO 0x06B0
 34: 0x0599 [0x03] Work_Zone[3] = 4*
 35: 0x059E [0x03] Work_Zone[4] = 3*
 36: 0x05A3 [0x03] Work_Zone[5] = 2*
 37: 0x05A8 [0x03] Work_Zone[6] = 1*
 38: 0x05AD [0x03] Work_Zone[7] = ExtData[1]->WorkLocal[15]
 39: 0x05B2 [0x15] Work_Zone[7] /= 10000*
 40: 0x05B7 [0x03] Work_Zone[8] = ExtData[1]->WorkLocal[15]
 41: 0x05BC [0x3F] Work_Zone[8] = Work_Zone[8] % 10000*
 42: 0x05C3 [0x15] Work_Zone[8] /= 1000*
 43: 0x05C8 [0x03] Work_Zone[9] = ExtData[1]->WorkLocal[15]
 44: 0x05CD [0x3F] Work_Zone[9] = Work_Zone[9] % 1000*
 45: 0x05D4 [0x15] Work_Zone[9] /= 100*
 46: 0x05D9 [0x03] Work_Zone_1700[0] = ExtData[1]->WorkLocal[15]
 47: 0x05DE [0x3F] Work_Zone_1700[0] = Work_Zone_1700[0] % 100*
 48: 0x05E5 [0x15] Work_Zone_1700[0] /= 10*
 49: 0x05EA [0x03] Work_Zone_1700[1] = ExtData[1]->WorkLocal[15]
 50: 0x05EF [0x3F] Work_Zone_1700[1] = Work_Zone_1700[1] % 10*
 51: 0x05F6 [0x03] Work_Zone_1700[2] = ExtData[1]->WorkLocal[16]
 52: 0x05FB [0x3F] Work_Zone_1700[2] = Work_Zone_1700[2] % 10000*
 53: 0x0602 [0x15] Work_Zone_1700[2] /= 1000*
 54: 0x0607 [0x03] Work_Zone_1700[3] = ExtData[1]->WorkLocal[16]
 55: 0x060C [0x3F] Work_Zone_1700[3] = Work_Zone_1700[3] % 1000*
 56: 0x0613 [0x15] Work_Zone_1700[3] /= 100*
 57: 0x0618 [0x03] Work_Zone_1700[4] = ExtData[1]->WorkLocal[16]
 58: 0x061D [0x3F] Work_Zone_1700[4] = Work_Zone_1700[4] % 100*
 59: 0x0624 [0x15] Work_Zone_1700[4] /= 10*
 60: 0x0629 [0x03] Work_Zone_1700[5] = ExtData[1]->WorkLocal[16]
 61: 0x062E [0x3F] Work_Zone_1700[5] = Work_Zone_1700[5] % 10*
 62: 0x0635 [0x03] Work_Zone_1700[6] = ExtData[1]->WorkLocal[17]
 63: 0x063A [0x3F] Work_Zone_1700[6] = Work_Zone_1700[6] % 1000*
 64: 0x0641 [0x15] Work_Zone_1700[6] /= 100*
 65: 0x0646 [0x03] Work_Zone_1700[7] = ExtData[1]->WorkLocal[17]
 66: 0x064B [0x3F] Work_Zone_1700[7] = Work_Zone_1700[7] % 100*
 67: 0x0652 [0x15] Work_Zone_1700[7] /= 10*
 68: 0x0657 [0x03] Work_Zone_1700[8] = ExtData[1]->WorkLocal[17]
 69: 0x065C [0x3F] Work_Zone_1700[8] = Work_Zone_1700[8] % 10*
 70: 0x0663 [0x03] Work_Zone_1700[9] = ExtData[1]->WorkLocal[18]
 71: 0x0668 [0x3F] Work_Zone_1700[9] = Work_Zone_1700[9] % 100*
 72: 0x066F [0x15] Work_Zone_1700[9] /= 10*
 73: 0x0674 [0x03] Work_Zone_1700[10] = ExtData[1]->WorkLocal[18]
 74: 0x0679 [0x3F] Work_Zone_1700[10] = Work_Zone_1700[10] % 10*
 75: 0x0680 [0x03] Work_Zone_1700[11] = ExtData[1]->WorkLocal[19]
 76: 0x0685 [0x3F] Work_Zone_1700[11] = Work_Zone_1700[11] % 10*
 77: 0x068C [0x24] CREATE_DIALOG(message_id=9779*, default_option=0*, option_flags=0*)
    → "The winning numbers for each rank are: [Rank 1 "$5$6$7$8$9"/Rank 2 (last $1 digits) "$10$11$12$13"/Rank 3 (last $2 digits) "$14$15$16"/Rank 4 (last $3 digits) "$17$18"/Rank 5 (last $4 digit) "$19"/Back.]"
 78: 0x0693 [0x25] WAIT_DIALOG_SELECT()
 79: 0x0694 [0x02] IF !(Work_Zone[0] == 5*) GOTO 0x06A2
 80: 0x069C [0x0C] ExtData[1]->WorkLocal[0]--
 81: 0x069F [0x01] GOTO 0x06AD
 82: 0x06A2 [0x03] ExtData[1]->WorkLocal[1] = Work_Zone[0]
 83: 0x06A7 [0x1A] CALL_SUBROUTINE(address=0x03B4)
 84: 0x06AA [0x1A] CALL_SUBROUTINE(address=0x02ED)

SUBROUTINE_06AD:
 85: 0x06AD [0x01] GOTO 0x0591
 86: 0x06B0 [0x1B] RETURN
```

### Event 402

#### Metadata

| Field        | Value     |
|--------------|-----------|
| Entrypoint   | 0x06B1    |
| Data Size    | 686 bytes |
| Instructions | 154       |

```
      00 01 02 03 04 05 06 07  08 09 0A 0B 0C 0D 0E 0F
      -- -- -- -- -- -- -- --  -- -- -- -- -- -- -- --
06B0:    42 4A F8 FF FF 7F F0  FF FF 7F 03 02 10 02 80   BJ.............
06C0: 1D 42 80 23 1D 43 80 23  03 01 10 1E 80 43 00 43  .B.#.C.#.....C.C
06D0: 01 02 09 10 00 80 00 75  07 02 02 10 00 80 80 F7  .......u........
06E0: 06 1D 44 80 23 1D 45 80  23 03 01 00 02 10 1A B4  ..D.#.E.#.......
06F0: 03 1A EA 07 01 72 07 02  02 10 08 80 80 15 07 1D  .....r..........
0700: 46 80 23 1D 47 80 23 03  01 00 02 10 1A B4 03 1A  F.#.G.#.........
0710: EA 07 01 72 07 02 02 10  0C 80 80 33 07 1D 48 80  ...r.......3..H.
0720: 23 1D 49 80 23 03 01 00  02 10 1A B4 03 1A EA 07  #.I.#...........
0730: 01 72 07 02 02 10 1D 80  80 51 07 1D 4A 80 23 1D  .r.......Q..J.#.
0740: 4B 80 23 03 01 00 02 10  1A B4 03 1A EA 07 01 72  K.#............r
0750: 07 02 02 10 22 80 80 6F  07 1D 4C 80 23 1D 4D 80  ...."..o..L.#.M.
0760: 23 03 01 00 02 10 1A B4  03 1A EA 07 01 72 07 1A  #............r..
0770: 98 07 01 96 07 02 09 10  4E 80 00 83 07 1A 98 07  ........N.......
0780: 01 96 07 02 09 10 4F 80  00 91 07 1A 98 07 01 96  ......O.........
0790: 07 03 01 10 19 80 21 00  03 16 17 00 80 1D 50 80  ......!.......P.
07A0: 23 1D 51 80 23 03 02 10  52 80 1D 53 80 23 03 0E  #.Q.#...R..S.#..
07B0: 17 52 80 24 54 80 00 80  0C 80 25 02 00 10 00 80  .R.$T.....%.....
07C0: 00 D2 07 1D 55 80 23 03  01 10 2C 80 06 00 00 01  ....U.#...,.....
07D0: E9 07 02 00 10 08 80 00  DD 07 01 E9 07 1D 56 80  ..............V.
07E0: 23 03 01 10 2D 80 06 00  00 1B 1D 57 80 23 03 00  #...-......W.#..
07F0: 00 08 80 06 14 00 02 00  00 00 80 02 5E 09 03 0D  ............^...
0800: 17 01 00 0B 0D 17 D4 03  08 80 03 10 D4 03 0C 80  ................
0810: 04 10 D4 03 1D 80 05 10  D4 03 22 80 06 10 D4 03  ..........".....
0820: 19 80 07 10 D4 03 2C 80  08 10 D4 03 2D 80 09 10  ......,.....-...
0830: D4 03 1E 80 00 17 D4 03  05 80 01 17 D4 03 07 80  ................
0840: 02 17 D4 03 2E 80 03 17  D4 03 2F 80 04 17 D4 03  ........../.....
0850: 30 80 05 17 D4 03 31 80  06 17 D4 03 32 80 07 17  0.....1.....2...
0860: D4 03 33 80 08 17 D4 03  34 80 09 17 D4 03 35 80  ..3.....4.....5.
0870: 0A 17 D4 03 36 80 0B 17  D4 03 37 80 0C 17 D4 02  ....6.....7.....
0880: 58 80 00 80 0E 00 25 02  00 10 00 80 00 DF 08 03  X.....%.........
0890: 14 00 00 10 24 59 80 08  80 00 80 25 02 00 10 00  ....$Y.....%....
08A0: 80 00 C5 08 1D 55 80 23  03 01 10 22 80 40 1E 80  .....U.#...".@..
08B0: 32 80 01 10 00 80 40 33  80 1F 80 01 10 14 00 0C  2.....@3........
08C0: 00 00 01 DC 08 02 00 10  08 80 00 D0 08 01 DC 08  ................
08D0: 1D 56 80 23 0C 00 00 03  01 10 19 80 01 58 09 02  .V.#.........X..
08E0: 00 10 5A 80 00 F6 08 0C  00 00 1D 56 80 23 03 01  ..Z........V.#..
08F0: 10 19 80 01 58 09 03 14  00 00 10 9D 00 E1 04 0E  ....X...........
0900: 17 00 10 93 0E 17 1D 3B  80 23 93 00 80 24 54 80  .......;.#...$T.
0910: 08 80 00 80 25 02 00 10  00 80 00 3E 09 1D 55 80  ....%......>..U.
0920: 23 03 01 10 22 80 40 1E  80 32 80 01 10 0E 17 40  #...".@..2.....@
0930: 33 80 1F 80 01 10 14 00  0C 00 00 01 58 09 02 00  3...........X...
0940: 10 08 80 00 49 09 01 58  09 1D 56 80 23 0C 00 00  ....I..X..V.#...
0950: 03 01 10 19 80 0C 00 00  06 14 00 01 F6 07 1B     ............... 
```

#### Opcodes

```
  0: 0x06B1 [0x42] SET_CLI_EVENT_CANCEL_DATA()
  1: 0x06B2 [0x4A] EventEntity looks at LocalPlayer
  2: 0x06BB [0x03] Work_Zone[2] = 2559*
  3: 0x06C0 [0x1D] PRINT_EVENT_MESSAGE(message_id=9784*)
    → "Let me check the number on your $0..."
  4: 0x06C3 [0x23] WAIT_FOR_DIALOG_INTERACTION
  5: 0x06C4 [0x1D] PRINT_EVENT_MESSAGE(message_id=9785*)
    → "..."
  6: 0x06C7 [0x23] WAIT_FOR_DIALOG_INTERACTION
  7: 0x06C8 [0x03] Work_Zone[1] = 8*
  8: 0x06CD [0x43] SEND_EVENT_UPDATE: Send pending tag to server (packet 0x005B)
  9: 0x06CF [0x43] SEND_EVENT_UPDATE: Check pending flag (skip if not pending)
 10: 0x06D1 [0x02] IF !(Work_Zone[9] == 0*) GOTO 0x0775
 11: 0x06D9 [0x02] IF !(Work_Zone[2] == 0*) GOTO 0x06F7
 12: 0x06E1 [0x1D] PRINT_EVENT_MESSAGE(message_id=9786*)
    → "<Gasp>! It...it...it's a miracle, kupo!!!"
 13: 0x06E4 [0x23] WAIT_FOR_DIALOG_INTERACTION
 14: 0x06E5 [0x1D] PRINT_EVENT_MESSAGE(message_id=9787*)
    → "You won a Rank 1 Prize!!! I-I'm so excited, I-I...k-k-k-kupoooooo!!!"
 15: 0x06E8 [0x23] WAIT_FOR_DIALOG_INTERACTION
 16: 0x06E9 [0x03] ExtData[1]->WorkLocal[1] = Work_Zone[2]
 17: 0x06EE [0x1A] CALL_SUBROUTINE(address=0x03B4)
 18: 0x06F1 [0x1A] CALL_SUBROUTINE(address=0x07EA)
 19: 0x06F4 [0x01] GOTO 0x0772
 20: 0x06F7 [0x02] IF !(Work_Zone[2] == 1*) GOTO 0x0715
 21: 0x06FF [0x1D] PRINT_EVENT_MESSAGE(message_id=9788*)
    → "Oh my sparkling stars!!! Th-this is...!!!"
 22: 0x0702 [0x23] WAIT_FOR_DIALOG_INTERACTION
 23: 0x0703 [0x1D] PRINT_EVENT_MESSAGE(message_id=9789*)
    → "You won a Rank 2 Prize!!! That's incredible, kupo!!!"
 24: 0x0706 [0x23] WAIT_FOR_DIALOG_INTERACTION
 25: 0x0707 [0x03] ExtData[1]->WorkLocal[1] = Work_Zone[2]
 26: 0x070C [0x1A] CALL_SUBROUTINE(address=0x03B4)
 27: 0x070F [0x1A] CALL_SUBROUTINE(address=0x07EA)
 28: 0x0712 [0x01] GOTO 0x0772
 29: 0x0715 [0x02] IF !(Work_Zone[2] == 2*) GOTO 0x0733
 30: 0x071D [0x1D] PRINT_EVENT_MESSAGE(message_id=9790*)
    → "Wowsers! Wonderful!"
 31: 0x0720 [0x23] WAIT_FOR_DIALOG_INTERACTION
 32: 0x0721 [0x1D] PRINT_EVENT_MESSAGE(message_id=9791*)
    → "You won a Rank 3 Prize! Congratulations, kupo!"
 33: 0x0724 [0x23] WAIT_FOR_DIALOG_INTERACTION
 34: 0x0725 [0x03] ExtData[1]->WorkLocal[1] = Work_Zone[2]
 35: 0x072A [0x1A] CALL_SUBROUTINE(address=0x03B4)
 36: 0x072D [0x1A] CALL_SUBROUTINE(address=0x07EA)
 37: 0x0730 [0x01] GOTO 0x0772
 38: 0x0733 [0x02] IF !(Work_Zone[2] == 3*) GOTO 0x0751
 39: 0x073B [0x1D] PRINT_EVENT_MESSAGE(message_id=9792*)
    → "Hmmm...!"
 40: 0x073E [0x23] WAIT_FOR_DIALOG_INTERACTION
 41: 0x073F [0x1D] PRINT_EVENT_MESSAGE(message_id=9793*)
    → "You won a Rank 4 Prize! Congratulations, kupo!"
 42: 0x0742 [0x23] WAIT_FOR_DIALOG_INTERACTION
 43: 0x0743 [0x03] ExtData[1]->WorkLocal[1] = Work_Zone[2]
 44: 0x0748 [0x1A] CALL_SUBROUTINE(address=0x03B4)
 45: 0x074B [0x1A] CALL_SUBROUTINE(address=0x07EA)
 46: 0x074E [0x01] GOTO 0x0772
 47: 0x0751 [0x02] IF !(Work_Zone[2] == 4*) GOTO 0x076F
 48: 0x0759 [0x1D] PRINT_EVENT_MESSAGE(message_id=9794*)
    → "Hmmm..."
 49: 0x075C [0x23] WAIT_FOR_DIALOG_INTERACTION
 50: 0x075D [0x1D] PRINT_EVENT_MESSAGE(message_id=9795*)
    → "You won a Rank 5 Prize! Well done, kupo."
 51: 0x0760 [0x23] WAIT_FOR_DIALOG_INTERACTION
 52: 0x0761 [0x03] ExtData[1]->WorkLocal[1] = Work_Zone[2]
 53: 0x0766 [0x1A] CALL_SUBROUTINE(address=0x03B4)
 54: 0x0769 [0x1A] CALL_SUBROUTINE(address=0x07EA)
 55: 0x076C [0x01] GOTO 0x0772
 56: 0x076F [0x1A] CALL_SUBROUTINE(address=0x0798)

SUBROUTINE_0772:
 57: 0x0772 [0x01] GOTO 0x0796
 58: 0x0775 [0x02] IF !(Work_Zone[9] == 4294967295*) GOTO 0x0783
 59: 0x077D [0x1A] CALL_SUBROUTINE(address=0x0798)
 60: 0x0780 [0x01] GOTO 0x0796
 61: 0x0783 [0x02] IF !(Work_Zone[9] == 4294967294*) GOTO 0x0791
 62: 0x078B [0x1A] CALL_SUBROUTINE(address=0x0798)
 63: 0x078E [0x01] GOTO 0x0796
 64: 0x0791 [0x03] Work_Zone[1] = 5*

SUBROUTINE_0796:
 65: 0x0796 [0x21] END_EVENT
 66: 0x0797 [0x00] END_REQSTACK()

SUBROUTINE_0798:
 67: 0x0798 [0x03] Work_Zone_1700[22] = 0*
 68: 0x079D [0x1D] PRINT_EVENT_MESSAGE(message_id=9796*)
    → "Hm..."
 69: 0x07A0 [0x23] WAIT_FOR_DIALOG_INTERACTION
 70: 0x07A1 [0x1D] PRINT_EVENT_MESSAGE(message_id=9797*)
    → "I'm sorry, but you got the least-coveted Rank [6/4] Prize, kupo."
 71: 0x07A4 [0x23] WAIT_FOR_DIALOG_INTERACTION
 72: 0x07A5 [0x03] Work_Zone[2] = 18468*
 73: 0x07AA [0x1D] PRINT_EVENT_MESSAGE(message_id=9805*)
    → "Your consolation prize is $0, kupo!"
 74: 0x07AD [0x23] WAIT_FOR_DIALOG_INTERACTION
 75: 0x07AE [0x03] Work_Zone_1700[14] = 18468*
 76: 0x07B3 [0x24] CREATE_DIALOG(message_id=9804*, default_option=0*, option_flags=2*)
    → "You chose $22. [Confirm./Changed my mind./Choose later.]"
 77: 0x07BA [0x25] WAIT_DIALOG_SELECT()
 78: 0x07BB [0x02] IF !(Work_Zone[0] == 0*) GOTO 0x07D2
 79: 0x07C3 [0x1D] PRINT_EVENT_MESSAGE(message_id=9801*)
    → "You got it! Just a moment, kupo."
 80: 0x07C6 [0x23] WAIT_FOR_DIALOG_INTERACTION
 81: 0x07C7 [0x03] Work_Zone[1] = 6*
 82: 0x07CC [0x06] ExtData[1]->WorkLocal[0] = 0
 83: 0x07CF [0x01] GOTO 0x07E9
 84: 0x07D2 [0x02] IF !(Work_Zone[0] == 1*) GOTO 0x07DD
 85: 0x07DA [0x01] GOTO 0x07E9
 86: 0x07DD [0x1D] PRINT_EVENT_MESSAGE(message_id=9802*)
    → "Understood. Please come back when you've made up your mind, kupo."
 87: 0x07E0 [0x23] WAIT_FOR_DIALOG_INTERACTION
 88: 0x07E1 [0x03] Work_Zone[1] = 7*
 89: 0x07E6 [0x06] ExtData[1]->WorkLocal[0] = 0

SUBROUTINE_07E9:
 90: 0x07E9 [0x1B] RETURN

SUBROUTINE_07EA:
 91: 0x07EA [0x1D] PRINT_EVENT_MESSAGE(message_id=9798*)
    → "Please choose a prize from the following list, kupo."
 92: 0x07ED [0x23] WAIT_FOR_DIALOG_INTERACTION
 93: 0x07EE [0x03] ExtData[1]->WorkLocal[0] = 1*
 94: 0x07F3 [0x06] ExtData[1]->WorkLocal[20] = 0

SUBROUTINE_07F6:
 95: 0x07F6 [0x02] IF !(ExtData[1]->WorkLocal[0] <= 0*) GOTO 0x095E
 96: 0x07FE [0x03] Work_Zone_1700[13] = ExtData[1]->WorkLocal[1]
 97: 0x0803 [0x0B] Work_Zone_1700[13]++
 98: 0x0806 [0xD4] MAP_QUERY_WINDOW: Prepare buffer configuration A (buffer=[08 80 03 10 D4 03 0C 80...])
 99: 0x0824 [0xD4] MAP_QUERY_WINDOW: Prepare buffer configuration A (buffer=[2C 80 08 10 D4 03 2D 80...])
100: 0x0842 [0xD4] MAP_QUERY_WINDOW: Prepare buffer configuration A (buffer=[2E 80 03 17 D4 03 2F 80...])
101: 0x0860 [0xD4] MAP_QUERY_WINDOW: Prepare buffer configuration A (buffer=[33 80 08 17 D4 03 34 80...])
102: 0x087E [0xD4] MAP_QUERY_WINDOW: Test and open query window (flag=0x58, work=[0x80, 0x0E80, 0x2500])
103: 0x0887 [0x02] IF !(Work_Zone[0] == 0*) GOTO 0x08DF
104: 0x088F [0x03] ExtData[1]->WorkLocal[20] = Work_Zone[0]
105: 0x0894 [0x24] CREATE_DIALOG(message_id=9803*, default_option=1*, option_flags=0*)
    → "You chose $0 gil. [Confirm./Changed my mind./Choose later.]"
106: 0x089B [0x25] WAIT_DIALOG_SELECT()
107: 0x089C [0x02] IF !(Work_Zone[0] == 0*) GOTO 0x08C5
108: 0x08A4 [0x1D] PRINT_EVENT_MESSAGE(message_id=9801*)
    → "You got it! Just a moment, kupo."
109: 0x08A7 [0x23] WAIT_FOR_DIALOG_INTERACTION
110: 0x08A8 [0x03] Work_Zone[1] = 4*
111: 0x08AD [0x40] SET_BIT_WORK_RANGE(start_bit=8*, end_bit=15*, target=Work_Zone[1], source=0*)
112: 0x08B6 [0x40] SET_BIT_WORK_RANGE(start_bit=16*, end_bit=31*, target=Work_Zone[1], source=ExtData[1]->WorkLocal[20])
113: 0x08BF [0x0C] ExtData[1]->WorkLocal[0]--
114: 0x08C2 [0x01] GOTO 0x08DC
115: 0x08C5 [0x02] IF !(Work_Zone[0] == 1*) GOTO 0x08D0
116: 0x08CD [0x01] GOTO 0x08DC
117: 0x08D0 [0x1D] PRINT_EVENT_MESSAGE(message_id=9802*)
    → "Understood. Please come back when you've made up your mind, kupo."
118: 0x08D3 [0x23] WAIT_FOR_DIALOG_INTERACTION
119: 0x08D4 [0x0C] ExtData[1]->WorkLocal[0]--
120: 0x08D7 [0x03] Work_Zone[1] = 5*

SUBROUTINE_08DC:
121: 0x08DC [0x01] GOTO 0x0958
122: 0x08DF [0x02] IF !(Work_Zone[0] == 21*) GOTO 0x08F6
123: 0x08E7 [0x0C] ExtData[1]->WorkLocal[0]--
124: 0x08EA [0x1D] PRINT_EVENT_MESSAGE(message_id=9802*)
    → "Understood. Please come back when you've made up your mind, kupo."
125: 0x08ED [0x23] WAIT_FOR_DIALOG_INTERACTION
126: 0x08EE [0x03] Work_Zone[1] = 5*
127: 0x08F3 [0x01] GOTO 0x0958
128: 0x08F6 [0x03] ExtData[1]->WorkLocal[20] = Work_Zone[0]
129: 0x08FB [0x9D] Work_Zone_1700[14] = 0x04E1[Work_Zone[0]] // Read WORD
130: 0x0903 [0x93] DISPLAY_ITEM_INFO(item_id=Work_Zone_1700[14])
131: 0x0906 [0x1D] PRINT_EVENT_MESSAGE(message_id=9766*)
    → "$22 is a rank $21 prize, kupo!"
132: 0x0909 [0x23] WAIT_FOR_DIALOG_INTERACTION
133: 0x090A [0x93] DISPLAY_ITEM_INFO(item_id=0*)
134: 0x090D [0x24] CREATE_DIALOG(message_id=9804*, default_option=1*, option_flags=0*)
    → "You chose $22. [Confirm./Changed my mind./Choose later.]"
135: 0x0914 [0x25] WAIT_DIALOG_SELECT()
136: 0x0915 [0x02] IF !(Work_Zone[0] == 0*) GOTO 0x093E
137: 0x091D [0x1D] PRINT_EVENT_MESSAGE(message_id=9801*)
    → "You got it! Just a moment, kupo."
138: 0x0920 [0x23] WAIT_FOR_DIALOG_INTERACTION
139: 0x0921 [0x03] Work_Zone[1] = 4*
140: 0x0926 [0x40] SET_BIT_WORK_RANGE(start_bit=8*, end_bit=15*, target=Work_Zone[1], source=Work_Zone_1700[14])
141: 0x092F [0x40] SET_BIT_WORK_RANGE(start_bit=16*, end_bit=31*, target=Work_Zone[1], source=ExtData[1]->WorkLocal[20])
142: 0x0938 [0x0C] ExtData[1]->WorkLocal[0]--
143: 0x093B [0x01] GOTO 0x0958
144: 0x093E [0x02] IF !(Work_Zone[0] == 1*) GOTO 0x0949
145: 0x0946 [0x01] GOTO 0x0958
146: 0x0949 [0x1D] PRINT_EVENT_MESSAGE(message_id=9802*)
    → "Understood. Please come back when you've made up your mind, kupo."
147: 0x094C [0x23] WAIT_FOR_DIALOG_INTERACTION
148: 0x094D [0x0C] ExtData[1]->WorkLocal[0]--
149: 0x0950 [0x03] Work_Zone[1] = 5*
150: 0x0955 [0x0C] ExtData[1]->WorkLocal[0]--

SUBROUTINE_0958:
151: 0x0958 [0x06] ExtData[1]->WorkLocal[20] = 0
152: 0x095B [0x01] GOTO 0x07F6
153: 0x095E [0x1B] RETURN
```

### Event 403

#### Metadata

| Field        | Value     |
|--------------|-----------|
| Entrypoint   | 0x095F    |
| Data Size    | 590 bytes |
| Instructions | 175       |

```
      00 01 02 03 04 05 06 07  08 09 0A 0B 0C 0D 0E 0F
      -- -- -- -- -- -- -- --  -- -- -- -- -- -- -- --
0950:                                               02                 .
0960: 08 80 08 80 00 90 09 24  5B 80 00 80 00 80 25 02  .......$[.....%.
0970: 00 10 00 80 00 7D 09 1A  92 09 01 8D 09 02 00 10  .....}..........
0980: 08 80 00 8B 09 1A 5F 0A  01 8D 09 21 00 01 5F 09  ......_....!.._.
0990: 21 00 03 04 10 09 80 1D  0A 80 23 1D 24 80 23 03  !.........#.$.#.
09A0: 02 10 02 80 03 03 10 11  80 03 05 10 1A 80 1D 25  ...............%
09B0: 80 23 1D 26 80 23 1D 27  80 23 1D 28 80 23 1D 29  .#.&.#.'.#.(.#.)
09C0: 80 23 1D 2A 80 23 03 0D  17 08 80 03 02 10 0C 80  .#.*.#..........
09D0: 03 0E 17 5C 80 1D 39 80  23 1D 3B 80 23 1D 0D 80  ...\..9.#.;.#...
09E0: 23 1D 0F 80 23 1D 18 80  23 1D 13 80 23 1D 16 80  #...#...#...#...
09F0: 23 1D 20 80 23 1D 1B 80  23 1D 3D 80 23 03 02 10  #. .#...#.=.#...
0A00: 02 80 1D 3F 80 23 1D 40  80 23 1D 42 80 23 1D 43  ...?.#.@.#.B.#.C
0A10: 80 23 1D 44 80 23 1D 45  80 23 1D 46 80 23 1D 47  .#.D.#.E.#.F.#.G
0A20: 80 23 1D 48 80 23 1D 49  80 23 1D 4A 80 23 1D 4B  .#.H.#.I.#.J.#.K
0A30: 80 23 1D 4C 80 23 1D 4D  80 23 1D 50 80 23 1D 51  .#.L.#.M.#.P.#.Q
0A40: 80 23 1D 57 80 23 1D 55  80 23 1D 56 80 23 1D 5D  .#.W.#.U.#.V.#.]
0A50: 80 23 1D 5E 80 23 1D 21  80 23 1D 23 80 23 1B 03  .#.^.#.!.#.#.#..
0A60: 02 10 02 80 03 03 10 02  80 03 04 10 02 80 03 05  ................
0A70: 10 02 80 03 06 10 02 80  03 07 10 02 80 03 08 10  ................
0A80: 02 80 03 09 10 02 80 03  00 17 02 80 03 01 17 02  ................
0A90: 80 03 02 17 02 80 03 03  17 02 80 03 04 17 02 80  ................
0AA0: 03 05 17 02 80 03 06 17  02 80 03 07 17 02 80 03  ................
0AB0: 08 17 02 80 03 09 17 02  80 03 0A 17 02 80 03 0B  ................
0AC0: 17 02 80 03 0C 17 02 80  24 0B 80 00 80 00 80 25  ........$......%
0AD0: 02 00 10 00 80 00 DB 0A  01 DB 0A 24 2B 80 00 80  ...........$+...
0AE0: 00 80 25 02 00 10 00 80  00 EE 0A 01 EE 0A 24 5F  ..%...........$_
0AF0: 80 00 80 00 80 25 02 00  10 00 80 00 01 0B 01 01  .....%..........
0B00: 0B 24 0E 80 00 80 00 80  25 02 00 10 00 80 00 14  .$......%.......
0B10: 0B 01 14 0B 24 14 80 00  80 00 80 25 02 00 10 00  ....$......%....
0B20: 80 00 27 0B 01 27 0B 24  17 80 00 80 00 80 25 02  ..'..'.$......%.
0B30: 00 10 00 80 00 3A 0B 01  3A 0B 24 3E 80 00 80 00  .....:..:.$>....
0B40: 80 25 02 00 10 00 80 00  4D 0B 01 4D 0B 24 41 80  .%......M..M.$A.
0B50: 00 80 00 80 25 02 00 10  00 80 00 60 0B 01 60 0B  ....%......`..`.
0B60: 24 58 80 00 80 00 80 25  02 00 10 00 80 00 73 0B  $X.....%......s.
0B70: 01 73 0B 24 59 80 00 80  00 80 25 02 00 10 00 80  .s.$Y.....%.....
0B80: 00 86 0B 01 86 0B 24 54  80 00 80 00 80 25 02 00  ......$T.....%..
0B90: 10 00 80 00 99 0B 01 99  0B 24 53 80 00 80 00 80  .........$S.....
0BA0: 25 02 00 10 00 80 00 AC  0B 01 AC 0B 1B           %............   
```

#### Opcodes

```
  0: 0x095F [0x02] IF !(1* == 1*) GOTO 0x0990
  1: 0x0967 [0x24] CREATE_DIALOG(message_id=9817*, default_option=0*, option_flags=0*)
    → "plz select [mes/query/end]"
  2: 0x096E [0x25] WAIT_DIALOG_SELECT()
  3: 0x096F [0x02] IF !(Work_Zone[0] == 0*) GOTO 0x097D
  4: 0x0977 [0x1A] CALL_SUBROUTINE(address=0x0992)
  5: 0x097A [0x01] GOTO 0x098D
  6: 0x097D [0x02] IF !(Work_Zone[0] == 1*) GOTO 0x098B
  7: 0x0985 [0x1A] CALL_SUBROUTINE(address=0x0A5F)
  8: 0x0988 [0x01] GOTO 0x098D
  9: 0x098B [0x21] END_EVENT
 10: 0x098C [0x00] END_REQSTACK()

SUBROUTINE_098D:
 11: 0x098D [0x01] GOTO 0x095F
 12: 0x0990 [0x21] END_EVENT
 13: 0x0991 [0x00] END_REQSTACK()

SUBROUTINE_0992:
 14: 0x0992 [0x03] Work_Zone[4] = 96*
 15: 0x0997 [0x1D] PRINT_EVENT_MESSAGE(message_id=9753*)
    → "You can purchase your $2 tickets here, kupo."
 16: 0x099A [0x23] WAIT_FOR_DIALOG_INTERACTION
 17: 0x099B [0x1D] PRINT_EVENT_MESSAGE(message_id=9755*)
    → "The Mog Bonanza is a number guessing game, kupo."
 18: 0x099E [0x23] WAIT_FOR_DIALOG_INTERACTION
 19: 0x099F [0x03] Work_Zone[2] = 2559*
 20: 0x09A4 [0x03] Work_Zone[3] = 1000*
 21: 0x09A9 [0x03] Work_Zone[5] = 99999*
 22: 0x09AE [0x1D] PRINT_EVENT_MESSAGE(message_id=9756*)
    → "The player selects a number between 0 and $3. This number is then recorded on $0, which can be purchased for $1 gil, kupo."
 23: 0x09B1 [0x23] WAIT_FOR_DIALOG_INTERACTION
 24: 0x09B2 [0x1D] PRINT_EVENT_MESSAGE(message_id=9757*)
    → "The winning numbers will be announced at a later date, so make sure you don't misplace your $0."
 25: 0x09B5 [0x23] WAIT_FOR_DIALOG_INTERACTION
 26: 0x09B6 [0x1D] PRINT_EVENT_MESSAGE(message_id=9758*)
    → "You can record the same number on multiple $0. This will mean bigger earnings should you have a winning number, kupo!"
 27: 0x09B9 [0x23] WAIT_FOR_DIALOG_INTERACTION
 28: 0x09BA [0x1D] PRINT_EVENT_MESSAGE(message_id=9759*)
    → "Trade me $0 that has a winning number, and I'll give you a prize in exchange."
 29: 0x09BD [0x23] WAIT_FOR_DIALOG_INTERACTION
 30: 0x09BE [0x1D] PRINT_EVENT_MESSAGE(message_id=9760*)
    → "But remember to trade winning numbers before the deadline, otherwise they'll be as good as trash."
 31: 0x09C1 [0x23] WAIT_FOR_DIALOG_INTERACTION
 32: 0x09C2 [0x1D] PRINT_EVENT_MESSAGE(message_id=9761*)
    → "One more thing. You can only have up to $1 $0, so select your numbers carefully, kupo!"
 33: 0x09C5 [0x23] WAIT_FOR_DIALOG_INTERACTION
 34: 0x09C6 [0x03] Work_Zone_1700[13] = 1*
 35: 0x09CB [0x03] Work_Zone[2] = 2*
 36: 0x09D0 [0x03] Work_Zone_1700[14] = 17326*
 37: 0x09D5 [0x1D] PRINT_EVENT_MESSAGE(message_id=9765*)
    → "The cash prize for rank $21 is $0 gil, kupo!"
 38: 0x09D8 [0x23] WAIT_FOR_DIALOG_INTERACTION
 39: 0x09D9 [0x1D] PRINT_EVENT_MESSAGE(message_id=9766*)
    → "$22 is a rank $21 prize, kupo!"
 40: 0x09DC [0x23] WAIT_FOR_DIALOG_INTERACTION
 41: 0x09DD [0x1D] PRINT_EVENT_MESSAGE(message_id=9767*)
    → "Great! Please select a number between 0 and $3, kupo. You can also leave this to me if you like."
 42: 0x09E0 [0x23] WAIT_FOR_DIALOG_INTERACTION
 43: 0x09E1 [0x1D] PRINT_EVENT_MESSAGE(message_id=9769*)
    → "All right then... How about this number, kupo?"
 44: 0x09E4 [0x23] WAIT_FOR_DIALOG_INTERACTION
 45: 0x09E5 [0x1D] PRINT_EVENT_MESSAGE(message_id=9770*)
    → "What number would you like?"
 46: 0x09E8 [0x23] WAIT_FOR_DIALOG_INTERACTION
 47: 0x09E9 [0x1D] PRINT_EVENT_MESSAGE(message_id=9771*)
    → "$0."
 48: 0x09EC [0x23] WAIT_FOR_DIALOG_INTERACTION
 49: 0x09ED [0x1D] PRINT_EVENT_MESSAGE(message_id=9773*)
    → "Affirmative! That will be $1 gil, kupo. Is that okay?"
 50: 0x09F0 [0x23] WAIT_FOR_DIALOG_INTERACTION
 51: 0x09F1 [0x1D] PRINT_EVENT_MESSAGE(message_id=9775*)
    → "Thank you, and good luck, kupo!"
 52: 0x09F4 [0x23] WAIT_FOR_DIALOG_INTERACTION
 53: 0x09F5 [0x1D] PRINT_EVENT_MESSAGE(message_id=9776*)
    → "I'm afraid that number is not available. Please pick a different number, kupo."
 54: 0x09F8 [0x23] WAIT_FOR_DIALOG_INTERACTION
 55: 0x09F9 [0x1D] PRINT_EVENT_MESSAGE(message_id=9777*)
    → "You can check winning numbers and claim prizes for the $2 here, kupo."
 56: 0x09FC [0x23] WAIT_FOR_DIALOG_INTERACTION
 57: 0x09FD [0x03] Work_Zone[2] = 2559*
 58: 0x0A02 [0x1D] PRINT_EVENT_MESSAGE(message_id=9781*)
    → "If you have $0 for the $2, trade them to me one at a time."
 59: 0x0A05 [0x23] WAIT_FOR_DIALOG_INTERACTION
 60: 0x0A06 [0x1D] PRINT_EVENT_MESSAGE(message_id=9783*)
    → "I'll give you a prize for each $0 with a winning number, kupo."
 61: 0x0A09 [0x23] WAIT_FOR_DIALOG_INTERACTION
 62: 0x0A0A [0x1D] PRINT_EVENT_MESSAGE(message_id=9784*)
    → "Let me check the number on your $0..."
 63: 0x0A0D [0x23] WAIT_FOR_DIALOG_INTERACTION
 64: 0x0A0E [0x1D] PRINT_EVENT_MESSAGE(message_id=9785*)
    → "..."
 65: 0x0A11 [0x23] WAIT_FOR_DIALOG_INTERACTION
 66: 0x0A12 [0x1D] PRINT_EVENT_MESSAGE(message_id=9786*)
    → "<Gasp>! It...it...it's a miracle, kupo!!!"
 67: 0x0A15 [0x23] WAIT_FOR_DIALOG_INTERACTION
 68: 0x0A16 [0x1D] PRINT_EVENT_MESSAGE(message_id=9787*)
    → "You won a Rank 1 Prize!!! I-I'm so excited, I-I...k-k-k-kupoooooo!!!"
 69: 0x0A19 [0x23] WAIT_FOR_DIALOG_INTERACTION
 70: 0x0A1A [0x1D] PRINT_EVENT_MESSAGE(message_id=9788*)
    → "Oh my sparkling stars!!! Th-this is...!!!"
 71: 0x0A1D [0x23] WAIT_FOR_DIALOG_INTERACTION
 72: 0x0A1E [0x1D] PRINT_EVENT_MESSAGE(message_id=9789*)
    → "You won a Rank 2 Prize!!! That's incredible, kupo!!!"
 73: 0x0A21 [0x23] WAIT_FOR_DIALOG_INTERACTION
 74: 0x0A22 [0x1D] PRINT_EVENT_MESSAGE(message_id=9790*)
    → "Wowsers! Wonderful!"
 75: 0x0A25 [0x23] WAIT_FOR_DIALOG_INTERACTION
 76: 0x0A26 [0x1D] PRINT_EVENT_MESSAGE(message_id=9791*)
    → "You won a Rank 3 Prize! Congratulations, kupo!"
 77: 0x0A29 [0x23] WAIT_FOR_DIALOG_INTERACTION
 78: 0x0A2A [0x1D] PRINT_EVENT_MESSAGE(message_id=9792*)
    → "Hmmm...!"
 79: 0x0A2D [0x23] WAIT_FOR_DIALOG_INTERACTION
 80: 0x0A2E [0x1D] PRINT_EVENT_MESSAGE(message_id=9793*)
    → "You won a Rank 4 Prize! Congratulations, kupo!"
 81: 0x0A31 [0x23] WAIT_FOR_DIALOG_INTERACTION
 82: 0x0A32 [0x1D] PRINT_EVENT_MESSAGE(message_id=9794*)
    → "Hmmm..."
 83: 0x0A35 [0x23] WAIT_FOR_DIALOG_INTERACTION
 84: 0x0A36 [0x1D] PRINT_EVENT_MESSAGE(message_id=9795*)
    → "You won a Rank 5 Prize! Well done, kupo."
 85: 0x0A39 [0x23] WAIT_FOR_DIALOG_INTERACTION
 86: 0x0A3A [0x1D] PRINT_EVENT_MESSAGE(message_id=9796*)
    → "Hm..."
 87: 0x0A3D [0x23] WAIT_FOR_DIALOG_INTERACTION
 88: 0x0A3E [0x1D] PRINT_EVENT_MESSAGE(message_id=9797*)
    → "I'm sorry, but you got the least-coveted Rank [6/4] Prize, kupo."
 89: 0x0A41 [0x23] WAIT_FOR_DIALOG_INTERACTION
 90: 0x0A42 [0x1D] PRINT_EVENT_MESSAGE(message_id=9798*)
    → "Please choose a prize from the following list, kupo."
 91: 0x0A45 [0x23] WAIT_FOR_DIALOG_INTERACTION
 92: 0x0A46 [0x1D] PRINT_EVENT_MESSAGE(message_id=9801*)
    → "You got it! Just a moment, kupo."
 93: 0x0A49 [0x23] WAIT_FOR_DIALOG_INTERACTION
 94: 0x0A4A [0x1D] PRINT_EVENT_MESSAGE(message_id=9802*)
    → "Understood. Please come back when you've made up your mind, kupo."
 95: 0x0A4D [0x23] WAIT_FOR_DIALOG_INTERACTION
 96: 0x0A4E [0x1D] PRINT_EVENT_MESSAGE(message_id=9806*)
    → "I'll dispose of the $0 for you, kupo."
 97: 0x0A51 [0x23] WAIT_FOR_DIALOG_INTERACTION
 98: 0x0A52 [0x1D] PRINT_EVENT_MESSAGE(message_id=9807*)
    → "Here you go... Can't imagine why you'd want it, though, kupo."
 99: 0x0A55 [0x23] WAIT_FOR_DIALOG_INTERACTION
100: 0x0A56 [0x1D] PRINT_EVENT_MESSAGE(message_id=9808*)
    → "Sorry, but you can have only up to $1 $0, kupo."
101: 0x0A59 [0x23] WAIT_FOR_DIALOG_INTERACTION
102: 0x0A5A [0x1D] PRINT_EVENT_MESSAGE(message_id=9809*)
    → "Sorry, but your main job level has to be $1 or more to buy $0, kupo."
103: 0x0A5D [0x23] WAIT_FOR_DIALOG_INTERACTION
104: 0x0A5E [0x1B] RETURN

SUBROUTINE_0A5F:
105: 0x0A5F [0x03] Work_Zone[2] = 2559*
106: 0x0A64 [0x03] Work_Zone[3] = 2559*
107: 0x0A69 [0x03] Work_Zone[4] = 2559*
108: 0x0A6E [0x03] Work_Zone[5] = 2559*
109: 0x0A73 [0x03] Work_Zone[6] = 2559*
110: 0x0A78 [0x03] Work_Zone[7] = 2559*
111: 0x0A7D [0x03] Work_Zone[8] = 2559*
112: 0x0A82 [0x03] Work_Zone[9] = 2559*
113: 0x0A87 [0x03] Work_Zone_1700[0] = 2559*
114: 0x0A8C [0x03] Work_Zone_1700[1] = 2559*
115: 0x0A91 [0x03] Work_Zone_1700[2] = 2559*
116: 0x0A96 [0x03] Work_Zone_1700[3] = 2559*
117: 0x0A9B [0x03] Work_Zone_1700[4] = 2559*
118: 0x0AA0 [0x03] Work_Zone_1700[5] = 2559*
119: 0x0AA5 [0x03] Work_Zone_1700[6] = 2559*
120: 0x0AAA [0x03] Work_Zone_1700[7] = 2559*
121: 0x0AAF [0x03] Work_Zone_1700[8] = 2559*
122: 0x0AB4 [0x03] Work_Zone_1700[9] = 2559*
123: 0x0AB9 [0x03] Work_Zone_1700[10] = 2559*
124: 0x0ABE [0x03] Work_Zone_1700[11] = 2559*
125: 0x0AC3 [0x03] Work_Zone_1700[12] = 2559*
126: 0x0AC8 [0x24] CREATE_DIALOG(message_id=9754*, default_option=0*, option_flags=0*)
    → "What would you like to do? [Purchase ticket./Learn about prizes./Learn about the [Mog Bonanza/Nomad Mog Bonanza]./Nothing.]"
127: 0x0ACF [0x25] WAIT_DIALOG_SELECT()
128: 0x0AD0 [0x02] IF !(Work_Zone[0] == 0*) GOTO 0x0ADB
129: 0x0AD8 [0x01] GOTO 0x0ADB

SUBROUTINE_0ADB:
130: 0x0ADB [0x24] CREATE_DIALOG(message_id=9762*, default_option=0*, option_flags=0*)
    → "View which rank of prizes? [Rank 1./Rank 2./Rank 3./Rank 4./Rank 5./Nothing.]"
131: 0x0AE2 [0x25] WAIT_DIALOG_SELECT()
132: 0x0AE3 [0x02] IF !(Work_Zone[0] == 0*) GOTO 0x0AEE
133: 0x0AEB [0x01] GOTO 0x0AEE

SUBROUTINE_0AEE:
134: 0x0AEE [0x24] CREATE_DIALOG(message_id=9763*, default_option=0*, option_flags=0*)
    → "$26Rank $21 prize list: [??? gil./$1./$2./$3./$4./$5./$6./$7./$8./$9./$10./$11./$12./$13./$14./$15./$16./$17./$18./$19./$20./[Next/Previous] page./Back.]"
135: 0x0AF5 [0x25] WAIT_DIALOG_SELECT()
136: 0x0AF6 [0x02] IF !(Work_Zone[0] == 0*) GOTO 0x0B01
137: 0x0AFE [0x01] GOTO 0x0B01

SUBROUTINE_0B01:
138: 0x0B01 [0x24] CREATE_DIALOG(message_id=9768*, default_option=0*, option_flags=0*)
    → "What will you do? [Leave it up to you./Select my own number./Nothing.]"
139: 0x0B08 [0x25] WAIT_DIALOG_SELECT()
140: 0x0B09 [0x02] IF !(Work_Zone[0] == 0*) GOTO 0x0B14
141: 0x0B11 [0x01] GOTO 0x0B14

SUBROUTINE_0B14:
142: 0x0B14 [0x24] CREATE_DIALOG(message_id=9772*, default_option=0*, option_flags=0*)
    → "Confirm number $0? [Yes please./Changed my mind./Cancel purchase.]"
143: 0x0B1B [0x25] WAIT_DIALOG_SELECT()
144: 0x0B1C [0x02] IF !(Work_Zone[0] == 0*) GOTO 0x0B27
145: 0x0B24 [0x01] GOTO 0x0B27

SUBROUTINE_0B27:
146: 0x0B27 [0x24] CREATE_DIALOG(message_id=9774*, default_option=0*, option_flags=0*)
    → "What would you like to do? [Purchase number $0 for $1 gil./Cancel purchase.]"
147: 0x0B2E [0x25] WAIT_DIALOG_SELECT()
148: 0x0B2F [0x02] IF !(Work_Zone[0] == 0*) GOTO 0x0B3A
149: 0x0B37 [0x01] GOTO 0x0B3A

SUBROUTINE_0B3A:
150: 0x0B3A [0x24] CREATE_DIALOG(message_id=9778*, default_option=0*, option_flags=0*)
    → "What would you like to do? [See winning numbers./Learn how to claim a prize./Nothing.]"
151: 0x0B41 [0x25] WAIT_DIALOG_SELECT()
152: 0x0B42 [0x02] IF !(Work_Zone[0] == 0*) GOTO 0x0B4D
153: 0x0B4A [0x01] GOTO 0x0B4D

SUBROUTINE_0B4D:
154: 0x0B4D [0x24] CREATE_DIALOG(message_id=9779*, default_option=0*, option_flags=0*)
    → "The winning numbers for each rank are: [Rank 1 "$5$6$7$8$9"/Rank 2 (last $1 digits) "$10$11$12$13"/Rank 3 (last $2 digits) "$14$15$16"/Rank 4 (last $3 digits) "$17$18"/Rank 5 (last $4 digit) "$19"/Back.]"
155: 0x0B54 [0x25] WAIT_DIALOG_SELECT()
156: 0x0B55 [0x02] IF !(Work_Zone[0] == 0*) GOTO 0x0B60
157: 0x0B5D [0x01] GOTO 0x0B60

SUBROUTINE_0B60:
158: 0x0B60 [0x24] CREATE_DIALOG(message_id=9799*, default_option=0*, option_flags=0*)
    → "What will it be? [$0 gil./$1./$2./$3./$4./$5./$6./$7./$8./$9./$10./$11./$12./$13./$14./$15./$16./$17./$18./$19./$20./[Next/Previous] page./Choose later.]"
159: 0x0B67 [0x25] WAIT_DIALOG_SELECT()
160: 0x0B68 [0x02] IF !(Work_Zone[0] == 0*) GOTO 0x0B73
161: 0x0B70 [0x01] GOTO 0x0B73

SUBROUTINE_0B73:
162: 0x0B73 [0x24] CREATE_DIALOG(message_id=9803*, default_option=0*, option_flags=0*)
    → "You chose $0 gil. [Confirm./Changed my mind./Choose later.]"
163: 0x0B7A [0x25] WAIT_DIALOG_SELECT()
164: 0x0B7B [0x02] IF !(Work_Zone[0] == 0*) GOTO 0x0B86
165: 0x0B83 [0x01] GOTO 0x0B86

SUBROUTINE_0B86:
166: 0x0B86 [0x24] CREATE_DIALOG(message_id=9804*, default_option=0*, option_flags=0*)
    → "You chose $22. [Confirm./Changed my mind./Choose later.]"
167: 0x0B8D [0x25] WAIT_DIALOG_SELECT()
168: 0x0B8E [0x02] IF !(Work_Zone[0] == 0*) GOTO 0x0B99
169: 0x0B96 [0x01] GOTO 0x0B99

SUBROUTINE_0B99:
170: 0x0B99 [0x24] CREATE_DIALOG(message_id=9805*, default_option=0*, option_flags=0*)
    → "Your consolation prize is $0, kupo!"
171: 0x0BA0 [0x25] WAIT_DIALOG_SELECT()
172: 0x0BA1 [0x02] IF !(Work_Zone[0] == 0*) GOTO 0x0BAC
173: 0x0BA9 [0x01] GOTO 0x0BAC

SUBROUTINE_0BAC:
174: 0x0BAC [0x1B] RETURN
```
