# 17064113

## Common Data

| Field            | Value                    |
|------------------|--------------------------|
| Zone             | Chocobo Circuit (ID: 70) |
| Block Size       | 108 bytes                |
| Total Events     | 2                        |
| References Count | 5                        |

## List of Events

| Event ID              | Entrypoint   |   Size |   Instructions |
|-----------------------|--------------|--------|----------------|
| [65535](#event-65535) | 0x0000       |      1 |              1 |
| [261](#event-261)     | 0x0001       |     60 |             13 |

## DAT References (imed_data)

|   Index | Hex Value   |   Dec Value |
|---------|-------------|-------------|
|       0 | 0x251A      |        9498 |
|       1 | 0x0001      |           1 |
|       2 | 0x0000      |           0 |
|       3 | 0x0003      |           3 |
|       4 | 0x0078      |         120 |

## String References

- **9498**: Do you wish to take a copy? [Yes./No.]

## Events

### Event 65535

#### Metadata

| Field        | Value   |
|--------------|---------|
| Entrypoint   | 0x0000  |
| Data Size    | 1 bytes |
| Instructions | 1       |

```
      00 01 02 03 04 05 06 07  08 09 0A 0B 0C 0D 0E 0F
      -- -- -- -- -- -- -- --  -- -- -- -- -- -- -- --
0000: 00                                                .               
```

#### Opcodes

```
  0: 0x0000 [0x00] END_REQSTACK()
```

### Event 261

#### Metadata

| Field        | Value    |
|--------------|----------|
| Entrypoint   | 0x0001   |
| Data Size    | 60 bytes |
| Instructions | 13       |

```
      00 01 02 03 04 05 06 07  08 09 0A 0B 0C 0D 0E 0F
      -- -- -- -- -- -- -- --  -- -- -- -- -- -- -- --
0000:    20 01 24 00 80 01 80  02 80 25 02 00 10 02 80    .$......%.....
0010: 00 30 00 42 03 01 10 01  80 62 03 80 F8 FF FF 7F  .0.B.....b......
0020: F8 FF FF 7F 6D 61 69 6E  02 80 1C 04 80 01 3B 00  ....main......;.
0030: 02 00 10 01 80 00 3B 00  01 3B 00 21 00           ......;..;.!.   
```

#### Opcodes

```
  0: 0x0001 [0x20] SET_CLI_EVENT_UC_FLAG: Lock player control
  1: 0x0003 [0x24] CREATE_DIALOG(message_id=9498*, default_option=1*, option_flags=0*)
    → "Do you wish to take a copy? [Yes./No.]"
  2: 0x000A [0x25] WAIT_DIALOG_SELECT()
  3: 0x000B [0x02] IF !(Work_Zone[0] == 0*) GOTO 0x0030
  4: 0x0013 [0x42] SET_CLI_EVENT_CANCEL_DATA()
  5: 0x0014 [0x03] Work_Zone[1] = 1*
  6: 0x0019 [0x62] LOAD_EVENT_SCHEDULER: Load scheduler "main" with entities [EventEntity, EventEntity], work=[3*, 0*]
  7: 0x002A [0x1C] WAIT(120* ticks)
  8: 0x002D [0x01] GOTO 0x003B
  9: 0x0030 [0x02] IF !(Work_Zone[0] == 1*) GOTO 0x003B
 10: 0x0038 [0x01] GOTO 0x003B

SUBROUTINE_003B:
 11: 0x003B [0x21] END_EVENT
 12: 0x003C [0x00] END_REQSTACK()
```
