# 17063961 - Goccilo

## Common Data

| Field            | Value                    |
|------------------|--------------------------|
| Zone             | Chocobo Circuit (ID: 70) |
| Block Size       | 8928 bytes               |
| Total Events     | 33                       |
| References Count | 70                       |

## List of Events

| Event ID                   | Entrypoint   |   Size |   Instructions |
|----------------------------|--------------|--------|----------------|
| [65535](#event-65535)      | 0x0000       |      1 |              1 |
| [115](#event-115)          | 0x0001       |      1 |              1 |
| [65535.1](#event-655351)   | 0x0002       |      1 |              1 |
| [210](#event-210)          | 0x0003       |      1 |              1 |
| [65535.2](#event-655352)   | 0x0004       |     21 |              2 |
| [100](#event-100)          | 0x0019       |      1 |              1 |
| [65535.3](#event-655353)   | 0x001A       |    174 |             18 |
| [65535.4](#event-655354)   | 0x00C8       |    171 |             17 |
| [65535.5](#event-655355)   | 0x0173       |    138 |             14 |
| [65535.6](#event-655356)   | 0x01FD       |    192 |             18 |
| [65535.7](#event-655357)   | 0x02BD       |    219 |             21 |
| [65535.8](#event-655358)   | 0x0398       |    189 |             19 |
| [65535.9](#event-655359)   | 0x0455       |    171 |             17 |
| [65535.10](#event-6553510) | 0x0500       |    237 |             23 |
| [65535.11](#event-6553511) | 0x05ED       |    138 |             14 |
| [65535.12](#event-6553512) | 0x0677       |    138 |             14 |
| [65535.13](#event-6553513) | 0x0701       |    138 |             14 |
| [65535.14](#event-6553514) | 0x078B       |    156 |             14 |
| [65535.15](#event-6553515) | 0x0827       |    135 |             13 |
| [65535.16](#event-6553516) | 0x08AE       |    117 |             11 |
| [65535.17](#event-6553517) | 0x0923       |    138 |             14 |
| [65535.18](#event-6553518) | 0x09AD       |    156 |             14 |
| [65535.19](#event-6553519) | 0x0A49       |    123 |             13 |
| [65535.20](#event-6553520) | 0x0AC4       |    120 |             12 |
| [65535.21](#event-6553521) | 0x0B3C       |    123 |             13 |
| [65535.22](#event-6553522) | 0x0BB7       |    156 |             14 |
| [65535.23](#event-6553523) | 0x0C53       |    109 |             15 |
| [65535.24](#event-6553524) | 0x0CC0       |    405 |             58 |
| [65535.25](#event-6553525) | 0x0E55       |    134 |             27 |
| [65535.26](#event-6553526) | 0x0EDB       |   1322 |            133 |
| [65535.27](#event-6553527) | 0x1405       |    121 |             21 |
| [65535.28](#event-6553528) | 0x147E       |     97 |             17 |
| [65535.29](#event-6553529) | 0x14DF       |   3155 |            560 |

## DAT References (imed_data)

|   Index | Hex Value   |   Dec Value |
|---------|-------------|-------------|
|       0 | 0x0008      |           8 |
|       1 | 0x0000      |           0 |
|       2 | 0x0002      |           2 |
|       3 | 0x010E      |         270 |
|       4 | 0x00C0      |         192 |
|       5 | 0x000F      |          15 |
|       6 | 0x00C8      |         200 |
|       7 | 0x00BF      |         191 |
|       8 | 0x000B      |          11 |
|       9 | 0x003C      |          60 |
|      10 | 0x0368      |         872 |
|      11 | 0x0005      |           5 |
|      12 | 0x00E0      |         224 |
|      13 | 0x005A      |          90 |
|      14 | 0x001E      |          30 |
|      15 | 0x000C      |          12 |
|      16 | 0x0020      |          32 |
|      17 | 0x0078      |         120 |
|      18 | 0x0045      |          69 |
|      19 | 0x0041      |          65 |
|      20 | 0x0037      |          55 |
|      21 | 0x001D      |          29 |
|      22 | 0x0016      |          22 |
|      23 | 0x0079      |         121 |
|      24 | 0x006F      |         111 |
|      25 | 0x006E      |         110 |
|      26 | 0x0028      |          40 |
|      27 | 0x002A      |          42 |
|      28 | 0x2279      |        8825 |
|      29 | 0x227A      |        8826 |
|      30 | 0x227B      |        8827 |
|      31 | 0x227C      |        8828 |
|      32 | 0x0001      |           1 |
|      33 | 0x227D      |        8829 |
|      34 | 0x2280      |        8832 |
|      35 | 0x2281      |        8833 |
|      36 | 0x2285      |        8837 |
|      37 | 0x2282      |        8834 |
|      38 | 0x0003      |           3 |
|      39 | 0x2283      |        8835 |
|      40 | 0x0011      |          17 |
|      41 | 0x0018      |          24 |
|      42 | 0x001F      |          31 |
|      43 | 0x0012      |          18 |
|      44 | 0x0013      |          19 |
|      45 | 0x2287      |        8839 |
|      46 | 0x2288      |        8840 |
|      47 | 0x2289      |        8841 |
|      48 | 0x2299      |        8857 |
|      49 | 0x229A      |        8858 |
|      50 | 0x229D      |        8861 |
|      51 | 0x229B      |        8859 |
|      52 | 0x229C      |        8860 |
|      53 | 0x229F      |        8863 |
|      54 | 0x0007      |           7 |
|      55 | 0x22A0      |        8864 |
|      56 | 0x22A1      |        8865 |
|      57 | 0x22A2      |        8866 |
|      58 | 0x002B      |          43 |
|      59 | 0x0017      |          23 |
|      60 | 0x0019      |          25 |
|      61 | 0x0004      |           4 |
|      62 | 0x0010      |          16 |
|      63 | 0x0014      |          20 |
|      64 | 0x001B      |          27 |
|      65 | 0x001C      |          28 |
|      66 | 0x0006      |           6 |
|      67 | 0x2378      |        9080 |
|      68 | 0x236C      |        9068 |
|      69 | 0xFFFFFFFF  |  4294967295 |

## String References

- **9068**: %0 %1 %2 %3
- **9080**: $0/$1/$2/$3 $4/$5/$6/$7

## Events

### Event 65535

#### Metadata

| Field        | Value   |
|--------------|---------|
| Entrypoint   | 0x0000  |
| Data Size    | 1 bytes |
| Instructions | 1       |

```
      00 01 02 03 04 05 06 07  08 09 0A 0B 0C 0D 0E 0F
      -- -- -- -- -- -- -- --  -- -- -- -- -- -- -- --
0000: 00                                                .               
```

#### Opcodes

```
  0: 0x0000 [0x00] END_REQSTACK()
```

### Event 115

#### Metadata

| Field        | Value   |
|--------------|---------|
| Entrypoint   | 0x0001  |
| Data Size    | 1 bytes |
| Instructions | 1       |

```
      00 01 02 03 04 05 06 07  08 09 0A 0B 0C 0D 0E 0F
      -- -- -- -- -- -- -- --  -- -- -- -- -- -- -- --
0000:    00                                              .              
```

#### Opcodes

```
  0: 0x0001 [0x00] END_REQSTACK()
```

### Event 65535.1

#### Metadata

| Field        | Value   |
|--------------|---------|
| Entrypoint   | 0x0002  |
| Data Size    | 1 bytes |
| Instructions | 1       |

```
      00 01 02 03 04 05 06 07  08 09 0A 0B 0C 0D 0E 0F
      -- -- -- -- -- -- -- --  -- -- -- -- -- -- -- --
0000:       00                                            .             
```

#### Opcodes

```
  0: 0x0002 [0x00] END_REQSTACK()
```

### Event 210

#### Metadata

| Field        | Value   |
|--------------|---------|
| Entrypoint   | 0x0003  |
| Data Size    | 1 bytes |
| Instructions | 1       |

```
      00 01 02 03 04 05 06 07  08 09 0A 0B 0C 0D 0E 0F
      -- -- -- -- -- -- -- --  -- -- -- -- -- -- -- --
0000:          00                                          .            
```

#### Opcodes

```
  0: 0x0003 [0x00] END_REQSTACK()
```

### Event 65535.2

#### Metadata

| Field        | Value    |
|--------------|----------|
| Entrypoint   | 0x0004   |
| Data Size    | 21 bytes |
| Instructions | 2        |

```
      00 01 02 03 04 05 06 07  08 09 0A 0B 0C 0D 0E 0F
      -- -- -- -- -- -- -- --  -- -- -- -- -- -- -- --
0000:             B6 0B 08 10  00 80 01 80 02 80 02 80      ............
0010: 02 80 02 80 03 80 01 80  00                       .........       
```

#### Opcodes

```
  0: 0x0004 [0xB6] ENTITY_APPEARANCE_HANDLER(case=Full entity look, race=Work_Zone[8], hair=8*, head=0*, body=2*, hands=2*, legs=2*, feet=2*, main=270*, sub=0*)
  1: 0x0018 [0x00] END_REQSTACK()
```

### Event 100

#### Metadata

| Field        | Value   |
|--------------|---------|
| Entrypoint   | 0x0019  |
| Data Size    | 1 bytes |
| Instructions | 1       |

```
      00 01 02 03 04 05 06 07  08 09 0A 0B 0C 0D 0E 0F
      -- -- -- -- -- -- -- --  -- -- -- -- -- -- -- --
0010:                             00                             .      
```

#### Opcodes

```
  0: 0x0019 [0x00] END_REQSTACK()
```

### Event 65535.3

#### Metadata

| Field        | Value     |
|--------------|-----------|
| Entrypoint   | 0x001A    |
| Data Size    | 174 bytes |
| Instructions | 18        |

```
      00 01 02 03 04 05 06 07  08 09 0A 0B 0C 0D 0E 0F
      -- -- -- -- -- -- -- --  -- -- -- -- -- -- -- --
0010:                                45 04 80 1C 60 04            E...`.
0020: 01 1C 60 04 01 73 31 34  37 01 80 1C 05 80 45 06  ..`..s147.....E.
0030: 80 F0 FF FF 7F F0 FF FF  7F 66 64 69 30 01 80 45  .........fdi0..E
0040: 07 80 1C 60 04 01 1C 60  04 01 6B 61 6E 74 01 80  ...`...`..kant..
0050: 6E 19 60 04 01 08 80 99  19 60 04 01 1C 09 80 5B  n.`......`.....[
0060: 09 80 1B 60 04 01 1B 60  04 01 74 6C 6B 30 5B 0A  ...`...`..tlk0[.
0070: 80 1C 60 04 01 1C 60 04  01 68 69 30 37 1C 0B 80  ..`...`..hi07...
0080: 5B 0C 80 1C 60 04 01 1C  60 04 01 31 30 30 35 1C  [...`...`..1005.
0090: 0D 80 5B 09 80 1B 60 04  01 1B 60 04 01 74 6C 6B  ..[...`...`..tlk
00A0: 31 1C 0E 80 45 06 80 F0  FF FF 7F F0 FF FF 7F 66  1...E..........f
00B0: 64 6F 30 01 80 1C 05 80  52 04 80 1C 60 04 01 1C  do0.....R...`...
00C0: 60 04 01 73 31 34 37 00                           `..s147.        
```

#### Opcodes

```
  0: 0x001A [0x45] LOAD_SCHEDULED_TASK: Load scheduler "s147" with entities [Sakura (ID: 17063964/0x0104601C), Sakura (ID: 17063964/0x0104601C)], work=[192*, 0*]
  1: 0x002B [0x1C] WAIT(15* ticks)
  2: 0x002E [0x45] LOAD_SCHEDULED_TASK: Load scheduler "fdi0" with entities [LocalPlayer, LocalPlayer], work=[200*, 0*]
  3: 0x003F [0x45] LOAD_SCHEDULED_TASK: Load scheduler "kant" with entities [Sakura (ID: 17063964/0x0104601C), Sakura (ID: 17063964/0x0104601C)], work=[191*, 0*]
  4: 0x0050 [0x6E] Goccilo (ID: 17063961/0x01046019) uses emote 11*
  5: 0x0057 [0x99] Wait for Goccilo (ID: 17063961/0x01046019) animation to complete
  6: 0x005C [0x1C] WAIT(60* ticks)
  7: 0x005F [0x5B] LOAD_EXT_SCHEDULER: Load scheduler "tlk0" with entities [Markovich (ID: 17063963/0x0104601B), Markovich (ID: 17063963/0x0104601B)], work=60*
  8: 0x006E [0x5B] LOAD_EXT_SCHEDULER: Load scheduler "hi07" with entities [Sakura (ID: 17063964/0x0104601C), Sakura (ID: 17063964/0x0104601C)], work=872*
  9: 0x007D [0x1C] WAIT(5* ticks)
 10: 0x0080 [0x5B] LOAD_EXT_SCHEDULER: Load scheduler "1005" with entities [Sakura (ID: 17063964/0x0104601C), Sakura (ID: 17063964/0x0104601C)], work=224*
 11: 0x008F [0x1C] WAIT(90* ticks)
 12: 0x0092 [0x5B] LOAD_EXT_SCHEDULER: Load scheduler "tlk1" with entities [Markovich (ID: 17063963/0x0104601B), Markovich (ID: 17063963/0x0104601B)], work=60*
 13: 0x00A1 [0x1C] WAIT(30* ticks)
 14: 0x00A4 [0x45] LOAD_SCHEDULED_TASK: Load scheduler "fdo0" with entities [LocalPlayer, LocalPlayer], work=[200*, 0*]
 15: 0x00B5 [0x1C] WAIT(15* ticks)
 16: 0x00B8 [0x52] END_LOAD_SCHEDULER: End scheduler "s147" with entities [Sakura (ID: 17063964/0x0104601C), Sakura (ID: 17063964/0x0104601C)], work=192*
 17: 0x00C7 [0x00] END_REQSTACK()
```

### Event 65535.4

#### Metadata

| Field        | Value     |
|--------------|-----------|
| Entrypoint   | 0x00C8    |
| Data Size    | 171 bytes |
| Instructions | 17        |

```
      00 01 02 03 04 05 06 07  08 09 0A 0B 0C 0D 0E 0F
      -- -- -- -- -- -- -- --  -- -- -- -- -- -- -- --
00C0:                          45 04 80 1C 60 04 01 1C          E...`...
00D0: 60 04 01 73 31 35 32 01  80 1C 05 80 45 06 80 F0  `..s152.....E...
00E0: FF FF 7F F0 FF FF 7F 66  64 69 30 01 80 45 07 80  .......fdi0..E..
00F0: 1C 60 04 01 1C 60 04 01  6B 61 6E 74 01 80 5B 0A  .`...`..kant..[.
0100: 80 1C 60 04 01 1C 60 04  01 68 69 30 39 5B 0C 80  ..`...`..hi09[..
0110: 1C 60 04 01 1C 60 04 01  31 30 30 35 1C 09 80 6E  .`...`..1005...n
0120: 19 60 04 01 0F 80 99 19  60 04 01 5B 09 80 1B 60  .`......`..[...`
0130: 04 01 1B 60 04 01 74 6C  6B 30 1C 0D 80 5B 09 80  ...`..tlk0...[..
0140: 1B 60 04 01 1B 60 04 01  74 6C 6B 31 1C 0E 80 45  .`...`..tlk1...E
0150: 06 80 F0 FF FF 7F F0 FF  FF 7F 66 64 6F 30 01 80  ..........fdo0..
0160: 1C 05 80 52 04 80 1C 60  04 01 1C 60 04 01 73 31  ...R...`...`..s1
0170: 35 32 00                                          52.             
```

#### Opcodes

```
  0: 0x00C8 [0x45] LOAD_SCHEDULED_TASK: Load scheduler "s152" with entities [Sakura (ID: 17063964/0x0104601C), Sakura (ID: 17063964/0x0104601C)], work=[192*, 0*]
  1: 0x00D9 [0x1C] WAIT(15* ticks)
  2: 0x00DC [0x45] LOAD_SCHEDULED_TASK: Load scheduler "fdi0" with entities [LocalPlayer, LocalPlayer], work=[200*, 0*]
  3: 0x00ED [0x45] LOAD_SCHEDULED_TASK: Load scheduler "kant" with entities [Sakura (ID: 17063964/0x0104601C), Sakura (ID: 17063964/0x0104601C)], work=[191*, 0*]
  4: 0x00FE [0x5B] LOAD_EXT_SCHEDULER: Load scheduler "hi09" with entities [Sakura (ID: 17063964/0x0104601C), Sakura (ID: 17063964/0x0104601C)], work=872*
  5: 0x010D [0x5B] LOAD_EXT_SCHEDULER: Load scheduler "1005" with entities [Sakura (ID: 17063964/0x0104601C), Sakura (ID: 17063964/0x0104601C)], work=224*
  6: 0x011C [0x1C] WAIT(60* ticks)
  7: 0x011F [0x6E] Goccilo (ID: 17063961/0x01046019) uses emote 12*
  8: 0x0126 [0x99] Wait for Goccilo (ID: 17063961/0x01046019) animation to complete
  9: 0x012B [0x5B] LOAD_EXT_SCHEDULER: Load scheduler "tlk0" with entities [Markovich (ID: 17063963/0x0104601B), Markovich (ID: 17063963/0x0104601B)], work=60*
 10: 0x013A [0x1C] WAIT(90* ticks)
 11: 0x013D [0x5B] LOAD_EXT_SCHEDULER: Load scheduler "tlk1" with entities [Markovich (ID: 17063963/0x0104601B), Markovich (ID: 17063963/0x0104601B)], work=60*
 12: 0x014C [0x1C] WAIT(30* ticks)
 13: 0x014F [0x45] LOAD_SCHEDULED_TASK: Load scheduler "fdo0" with entities [LocalPlayer, LocalPlayer], work=[200*, 0*]
 14: 0x0160 [0x1C] WAIT(15* ticks)
 15: 0x0163 [0x52] END_LOAD_SCHEDULER: End scheduler "s152" with entities [Sakura (ID: 17063964/0x0104601C), Sakura (ID: 17063964/0x0104601C)], work=192*
 16: 0x0172 [0x00] END_REQSTACK()
```

### Event 65535.5

#### Metadata

| Field        | Value     |
|--------------|-----------|
| Entrypoint   | 0x0173    |
| Data Size    | 138 bytes |
| Instructions | 14        |

```
      00 01 02 03 04 05 06 07  08 09 0A 0B 0C 0D 0E 0F
      -- -- -- -- -- -- -- --  -- -- -- -- -- -- -- --
0170:          45 04 80 1C 60  04 01 1C 60 04 01 73 31     E...`...`..s1
0180: 35 33 01 80 1C 05 80 45  06 80 F0 FF FF 7F F0 FF  53.....E........
0190: FF 7F 66 64 69 30 01 80  45 07 80 1C 60 04 01 1C  ..fdi0..E...`...
01A0: 60 04 01 6B 61 6E 74 01  80 6E 19 60 04 01 10 80  `..kant..n.`....
01B0: 99 19 60 04 01 1C 09 80  5B 09 80 1B 60 04 01 1B  ..`.....[...`...
01C0: 60 04 01 74 68 6B 31 1C  11 80 45 06 80 F0 FF FF  `..thk1...E.....
01D0: 7F F0 FF FF 7F 66 64 6F  30 01 80 1C 05 80 5B 09  .....fdo0.....[.
01E0: 80 1B 60 04 01 1B 60 04  01 74 68 6B 32 52 04 80  ..`...`..thk2R..
01F0: 1C 60 04 01 1C 60 04 01  73 31 35 33 00           .`...`..s153.   
```

#### Opcodes

```
  0: 0x0173 [0x45] LOAD_SCHEDULED_TASK: Load scheduler "s153" with entities [Sakura (ID: 17063964/0x0104601C), Sakura (ID: 17063964/0x0104601C)], work=[192*, 0*]
  1: 0x0184 [0x1C] WAIT(15* ticks)
  2: 0x0187 [0x45] LOAD_SCHEDULED_TASK: Load scheduler "fdi0" with entities [LocalPlayer, LocalPlayer], work=[200*, 0*]
  3: 0x0198 [0x45] LOAD_SCHEDULED_TASK: Load scheduler "kant" with entities [Sakura (ID: 17063964/0x0104601C), Sakura (ID: 17063964/0x0104601C)], work=[191*, 0*]
  4: 0x01A9 [0x6E] Goccilo (ID: 17063961/0x01046019) uses emote 32*
  5: 0x01B0 [0x99] Wait for Goccilo (ID: 17063961/0x01046019) animation to complete
  6: 0x01B5 [0x1C] WAIT(60* ticks)
  7: 0x01B8 [0x5B] LOAD_EXT_SCHEDULER: Load scheduler "thk1" with entities [Markovich (ID: 17063963/0x0104601B), Markovich (ID: 17063963/0x0104601B)], work=60*
  8: 0x01C7 [0x1C] WAIT(120* ticks)
  9: 0x01CA [0x45] LOAD_SCHEDULED_TASK: Load scheduler "fdo0" with entities [LocalPlayer, LocalPlayer], work=[200*, 0*]
 10: 0x01DB [0x1C] WAIT(15* ticks)
 11: 0x01DE [0x5B] LOAD_EXT_SCHEDULER: Load scheduler "thk2" with entities [Markovich (ID: 17063963/0x0104601B), Markovich (ID: 17063963/0x0104601B)], work=60*
 12: 0x01ED [0x52] END_LOAD_SCHEDULER: End scheduler "s153" with entities [Sakura (ID: 17063964/0x0104601C), Sakura (ID: 17063964/0x0104601C)], work=192*
 13: 0x01FC [0x00] END_REQSTACK()
```

### Event 65535.6

#### Metadata

| Field        | Value     |
|--------------|-----------|
| Entrypoint   | 0x01FD    |
| Data Size    | 192 bytes |
| Instructions | 18        |

```
      00 01 02 03 04 05 06 07  08 09 0A 0B 0C 0D 0E 0F
      -- -- -- -- -- -- -- --  -- -- -- -- -- -- -- --
01F0:                                         45 04 80               E..
0200: 1C 60 04 01 1C 60 04 01  73 31 35 34 01 80 1C 05  .`...`..s154....
0210: 80 45 06 80 F0 FF FF 7F  F0 FF FF 7F 66 64 69 30  .E..........fdi0
0220: 01 80 45 07 80 1C 60 04  01 1C 60 04 01 6B 61 6E  ..E...`...`..kan
0230: 74 01 80 66 12 80 19 60  04 01 19 60 04 01 74 6C  t..f...`...`..tl
0240: 6B 30 1C 09 80 5B 0A 80  1C 60 04 01 1C 60 04 01  k0...[...`...`..
0250: 68 69 30 31 1C 0B 80 5B  0C 80 1C 60 04 01 1C 60  hi01...[...`...`
0260: 04 01 31 30 30 35 1C 0E  80 66 12 80 19 60 04 01  ..1005...f...`..
0270: 19 60 04 01 74 6C 6B 31  5B 09 80 1B 60 04 01 1B  .`..tlk1[...`...
0280: 60 04 01 68 61 6E 30 1C  0D 80 45 06 80 F0 FF FF  `..han0...E.....
0290: 7F F0 FF FF 7F 66 64 6F  30 01 80 1C 05 80 5B 09  .....fdo0.....[.
02A0: 80 1B 60 04 01 1B 60 04  01 68 61 6E 31 52 04 80  ..`...`..han1R..
02B0: 1C 60 04 01 1C 60 04 01  73 31 35 34 00           .`...`..s154.   
```

#### Opcodes

```
  0: 0x01FD [0x45] LOAD_SCHEDULED_TASK: Load scheduler "s154" with entities [Sakura (ID: 17063964/0x0104601C), Sakura (ID: 17063964/0x0104601C)], work=[192*, 0*]
  1: 0x020E [0x1C] WAIT(15* ticks)
  2: 0x0211 [0x45] LOAD_SCHEDULED_TASK: Load scheduler "fdi0" with entities [LocalPlayer, LocalPlayer], work=[200*, 0*]
  3: 0x0222 [0x45] LOAD_SCHEDULED_TASK: Load scheduler "kant" with entities [Sakura (ID: 17063964/0x0104601C), Sakura (ID: 17063964/0x0104601C)], work=[191*, 0*]
  4: 0x0233 [0x66] LOAD_EXT_SCHEDULER_MAIN: Load scheduler "tlk0" with entities [Goccilo (ID: 17063961/0x01046019), Goccilo (ID: 17063961/0x01046019)], work=69*
  5: 0x0242 [0x1C] WAIT(60* ticks)
  6: 0x0245 [0x5B] LOAD_EXT_SCHEDULER: Load scheduler "hi01" with entities [Sakura (ID: 17063964/0x0104601C), Sakura (ID: 17063964/0x0104601C)], work=872*
  7: 0x0254 [0x1C] WAIT(5* ticks)
  8: 0x0257 [0x5B] LOAD_EXT_SCHEDULER: Load scheduler "1005" with entities [Sakura (ID: 17063964/0x0104601C), Sakura (ID: 17063964/0x0104601C)], work=224*
  9: 0x0266 [0x1C] WAIT(30* ticks)
 10: 0x0269 [0x66] LOAD_EXT_SCHEDULER_MAIN: Load scheduler "tlk1" with entities [Goccilo (ID: 17063961/0x01046019), Goccilo (ID: 17063961/0x01046019)], work=69*
 11: 0x0278 [0x5B] LOAD_EXT_SCHEDULER: Load scheduler "han0" with entities [Markovich (ID: 17063963/0x0104601B), Markovich (ID: 17063963/0x0104601B)], work=60*
 12: 0x0287 [0x1C] WAIT(90* ticks)
 13: 0x028A [0x45] LOAD_SCHEDULED_TASK: Load scheduler "fdo0" with entities [LocalPlayer, LocalPlayer], work=[200*, 0*]
 14: 0x029B [0x1C] WAIT(15* ticks)
 15: 0x029E [0x5B] LOAD_EXT_SCHEDULER: Load scheduler "han1" with entities [Markovich (ID: 17063963/0x0104601B), Markovich (ID: 17063963/0x0104601B)], work=60*
 16: 0x02AD [0x52] END_LOAD_SCHEDULER: End scheduler "s154" with entities [Sakura (ID: 17063964/0x0104601C), Sakura (ID: 17063964/0x0104601C)], work=192*
 17: 0x02BC [0x00] END_REQSTACK()
```

### Event 65535.7

#### Metadata

| Field        | Value     |
|--------------|-----------|
| Entrypoint   | 0x02BD    |
| Data Size    | 219 bytes |
| Instructions | 21        |

```
      00 01 02 03 04 05 06 07  08 09 0A 0B 0C 0D 0E 0F
      -- -- -- -- -- -- -- --  -- -- -- -- -- -- -- --
02B0:                                         45 04 80               E..
02C0: 22 60 04 01 22 60 04 01  73 31 34 38 01 80 1C 05  "`.."`..s148....
02D0: 80 45 06 80 F0 FF FF 7F  F0 FF FF 7F 66 64 69 30  .E..........fdi0
02E0: 01 80 45 07 80 1F 60 04  01 1F 60 04 01 6B 61 6E  ..E...`...`..kan
02F0: 74 01 80 5B 13 80 1F 60  04 01 1F 60 04 01 63 6C  t..[...`...`..cl
0300: 61 30 5B 0E 80 20 60 04  01 20 60 04 01 74 6C 6B  a0[.. `.. `..tlk
0310: 30 1C 0E 80 5B 14 80 22  60 04 01 22 60 04 01 74  0...[.."`.."`..t
0320: 6C 6B 30 1C 0E 80 6E 23  60 04 01 0F 80 99 23 60  lk0...n#`.....#`
0330: 04 01 1C 0E 80 5B 01 80  21 60 04 01 21 60 04 01  .....[..!`..!`..
0340: 74 6C 6B 30 1C 09 80 45  06 80 F0 FF FF 7F F0 FF  tlk0...E........
0350: FF 7F 66 64 6F 30 01 80  1C 05 80 5B 0E 80 20 60  ..fdo0.....[.. `
0360: 04 01 20 60 04 01 74 6C  6B 31 5B 01 80 21 60 04  .. `..tlk1[..!`.
0370: 01 21 60 04 01 74 6C 6B  31 5B 14 80 22 60 04 01  .!`..tlk1[.."`..
0380: 22 60 04 01 74 6C 6B 31  52 04 80 22 60 04 01 22  "`..tlk1R.."`.."
0390: 60 04 01 73 31 34 38 00                           `..s148.        
```

#### Opcodes

```
  0: 0x02BD [0x45] LOAD_SCHEDULED_TASK: Load scheduler "s148" with entities [Unnamed NPC (ID: 17063970/0x01046022), Unnamed NPC (ID: 17063970/0x01046022)], work=[192*, 0*]
  1: 0x02CE [0x1C] WAIT(15* ticks)
  2: 0x02D1 [0x45] LOAD_SCHEDULED_TASK: Load scheduler "fdi0" with entities [LocalPlayer, LocalPlayer], work=[200*, 0*]
  3: 0x02E2 [0x45] LOAD_SCHEDULED_TASK: Load scheduler "kant" with entities [Unnamed NPC (ID: 17063967/0x0104601F), Unnamed NPC (ID: 17063967/0x0104601F)], work=[191*, 0*]
  4: 0x02F3 [0x5B] LOAD_EXT_SCHEDULER: Load scheduler "cla0" with entities [Unnamed NPC (ID: 17063967/0x0104601F), Unnamed NPC (ID: 17063967/0x0104601F)], work=65*
  5: 0x0302 [0x5B] LOAD_EXT_SCHEDULER: Load scheduler "tlk0" with entities [Unnamed NPC (ID: 17063968/0x01046020), Unnamed NPC (ID: 17063968/0x01046020)], work=30*
  6: 0x0311 [0x1C] WAIT(30* ticks)
  7: 0x0314 [0x5B] LOAD_EXT_SCHEDULER: Load scheduler "tlk0" with entities [Unnamed NPC (ID: 17063970/0x01046022), Unnamed NPC (ID: 17063970/0x01046022)], work=55*
  8: 0x0323 [0x1C] WAIT(30* ticks)
  9: 0x0326 [0x6E] Unnamed NPC (ID: 17063971/0x01046023) uses emote 12*
 10: 0x032D [0x99] Wait for Unnamed NPC (ID: 17063971/0x01046023) animation to complete
 11: 0x0332 [0x1C] WAIT(30* ticks)
 12: 0x0335 [0x5B] LOAD_EXT_SCHEDULER: Load scheduler "tlk0" with entities [Unnamed NPC (ID: 17063969/0x01046021), Unnamed NPC (ID: 17063969/0x01046021)], work=0*
 13: 0x0344 [0x1C] WAIT(60* ticks)
 14: 0x0347 [0x45] LOAD_SCHEDULED_TASK: Load scheduler "fdo0" with entities [LocalPlayer, LocalPlayer], work=[200*, 0*]
 15: 0x0358 [0x1C] WAIT(15* ticks)
 16: 0x035B [0x5B] LOAD_EXT_SCHEDULER: Load scheduler "tlk1" with entities [Unnamed NPC (ID: 17063968/0x01046020), Unnamed NPC (ID: 17063968/0x01046020)], work=30*
 17: 0x036A [0x5B] LOAD_EXT_SCHEDULER: Load scheduler "tlk1" with entities [Unnamed NPC (ID: 17063969/0x01046021), Unnamed NPC (ID: 17063969/0x01046021)], work=0*
 18: 0x0379 [0x5B] LOAD_EXT_SCHEDULER: Load scheduler "tlk1" with entities [Unnamed NPC (ID: 17063970/0x01046022), Unnamed NPC (ID: 17063970/0x01046022)], work=55*
 19: 0x0388 [0x52] END_LOAD_SCHEDULER: End scheduler "s148" with entities [Unnamed NPC (ID: 17063970/0x01046022), Unnamed NPC (ID: 17063970/0x01046022)], work=192*
 20: 0x0397 [0x00] END_REQSTACK()
```

### Event 65535.8

#### Metadata

| Field        | Value     |
|--------------|-----------|
| Entrypoint   | 0x0398    |
| Data Size    | 189 bytes |
| Instructions | 19        |

```
      00 01 02 03 04 05 06 07  08 09 0A 0B 0C 0D 0E 0F
      -- -- -- -- -- -- -- --  -- -- -- -- -- -- -- --
0390:                          45 04 80 21 60 04 01 21          E..!`..!
03A0: 60 04 01 73 31 34 39 01  80 1C 05 80 45 06 80 F0  `..s149.....E...
03B0: FF FF 7F F0 FF FF 7F 66  64 69 30 01 80 45 07 80  .......fdi0..E..
03C0: 20 60 04 01 20 60 04 01  6B 61 6E 74 01 80 5B 14   `.. `..kant..[.
03D0: 80 22 60 04 01 22 60 04  01 64 69 73 30 1C 0E 80  ."`.."`..dis0...
03E0: 5B 0E 80 20 60 04 01 20  60 04 01 74 68 6B 31 1C  [.. `.. `..thk1.
03F0: 0E 80 5B 01 80 21 60 04  01 21 60 04 01 74 68 6B  ..[..!`..!`..thk
0400: 31 1C 0D 80 6E 23 60 04  01 08 80 99 23 60 04 01  1...n#`.....#`..
0410: 1C 09 80 45 06 80 F0 FF  FF 7F F0 FF FF 7F 66 64  ...E..........fd
0420: 6F 30 01 80 1C 05 80 5B  0E 80 20 60 04 01 20 60  o0.....[.. `.. `
0430: 04 01 74 68 6B 32 5B 01  80 21 60 04 01 21 60 04  ..thk2[..!`..!`.
0440: 01 74 68 6B 32 52 04 80  21 60 04 01 21 60 04 01  .thk2R..!`..!`..
0450: 73 31 34 39 00                                    s149.           
```

#### Opcodes

```
  0: 0x0398 [0x45] LOAD_SCHEDULED_TASK: Load scheduler "s149" with entities [Unnamed NPC (ID: 17063969/0x01046021), Unnamed NPC (ID: 17063969/0x01046021)], work=[192*, 0*]
  1: 0x03A9 [0x1C] WAIT(15* ticks)
  2: 0x03AC [0x45] LOAD_SCHEDULED_TASK: Load scheduler "fdi0" with entities [LocalPlayer, LocalPlayer], work=[200*, 0*]
  3: 0x03BD [0x45] LOAD_SCHEDULED_TASK: Load scheduler "kant" with entities [Unnamed NPC (ID: 17063968/0x01046020), Unnamed NPC (ID: 17063968/0x01046020)], work=[191*, 0*]
  4: 0x03CE [0x5B] LOAD_EXT_SCHEDULER: Load scheduler "dis0" with entities [Unnamed NPC (ID: 17063970/0x01046022), Unnamed NPC (ID: 17063970/0x01046022)], work=55*
  5: 0x03DD [0x1C] WAIT(30* ticks)
  6: 0x03E0 [0x5B] LOAD_EXT_SCHEDULER: Load scheduler "thk1" with entities [Unnamed NPC (ID: 17063968/0x01046020), Unnamed NPC (ID: 17063968/0x01046020)], work=30*
  7: 0x03EF [0x1C] WAIT(30* ticks)
  8: 0x03F2 [0x5B] LOAD_EXT_SCHEDULER: Load scheduler "thk1" with entities [Unnamed NPC (ID: 17063969/0x01046021), Unnamed NPC (ID: 17063969/0x01046021)], work=0*
  9: 0x0401 [0x1C] WAIT(90* ticks)
 10: 0x0404 [0x6E] Unnamed NPC (ID: 17063971/0x01046023) uses emote 11*
 11: 0x040B [0x99] Wait for Unnamed NPC (ID: 17063971/0x01046023) animation to complete
 12: 0x0410 [0x1C] WAIT(60* ticks)
 13: 0x0413 [0x45] LOAD_SCHEDULED_TASK: Load scheduler "fdo0" with entities [LocalPlayer, LocalPlayer], work=[200*, 0*]
 14: 0x0424 [0x1C] WAIT(15* ticks)
 15: 0x0427 [0x5B] LOAD_EXT_SCHEDULER: Load scheduler "thk2" with entities [Unnamed NPC (ID: 17063968/0x01046020), Unnamed NPC (ID: 17063968/0x01046020)], work=30*
 16: 0x0436 [0x5B] LOAD_EXT_SCHEDULER: Load scheduler "thk2" with entities [Unnamed NPC (ID: 17063969/0x01046021), Unnamed NPC (ID: 17063969/0x01046021)], work=0*
 17: 0x0445 [0x52] END_LOAD_SCHEDULER: End scheduler "s149" with entities [Unnamed NPC (ID: 17063969/0x01046021), Unnamed NPC (ID: 17063969/0x01046021)], work=192*
 18: 0x0454 [0x00] END_REQSTACK()
```

### Event 65535.9

#### Metadata

| Field        | Value     |
|--------------|-----------|
| Entrypoint   | 0x0455    |
| Data Size    | 171 bytes |
| Instructions | 17        |

```
      00 01 02 03 04 05 06 07  08 09 0A 0B 0C 0D 0E 0F
      -- -- -- -- -- -- -- --  -- -- -- -- -- -- -- --
0450:                45 04 80  1F 60 04 01 1F 60 04 01       E...`...`..
0460: 73 31 35 30 01 80 1C 05  80 45 06 80 F0 FF FF 7F  s150.....E......
0470: F0 FF FF 7F 66 64 69 30  01 80 45 07 80 23 60 04  ....fdi0..E..#`.
0480: 01 23 60 04 01 6B 61 6E  74 01 80 5B 01 80 21 60  .#`..kant..[..!`
0490: 04 01 21 60 04 01 74 6C  6B 30 1C 09 80 6E 23 60  ..!`..tlk0...n#`
04A0: 04 01 15 80 99 23 60 04  01 1C 0E 80 5B 14 80 22  .....#`.....[.."
04B0: 60 04 01 22 60 04 01 74  68 61 31 1C 11 80 45 06  `.."`..tha1...E.
04C0: 80 F0 FF FF 7F F0 FF FF  7F 66 64 6F 30 01 80 1C  .........fdo0...
04D0: 05 80 5B 14 80 22 60 04  01 22 60 04 01 74 68 61  ..[.."`.."`..tha
04E0: 32 5B 01 80 21 60 04 01  21 60 04 01 74 6C 6B 31  2[..!`..!`..tlk1
04F0: 52 04 80 1F 60 04 01 1F  60 04 01 73 31 35 30 00  R...`...`..s150.
```

#### Opcodes

```
  0: 0x0455 [0x45] LOAD_SCHEDULED_TASK: Load scheduler "s150" with entities [Unnamed NPC (ID: 17063967/0x0104601F), Unnamed NPC (ID: 17063967/0x0104601F)], work=[192*, 0*]
  1: 0x0466 [0x1C] WAIT(15* ticks)
  2: 0x0469 [0x45] LOAD_SCHEDULED_TASK: Load scheduler "fdi0" with entities [LocalPlayer, LocalPlayer], work=[200*, 0*]
  3: 0x047A [0x45] LOAD_SCHEDULED_TASK: Load scheduler "kant" with entities [Unnamed NPC (ID: 17063971/0x01046023), Unnamed NPC (ID: 17063971/0x01046023)], work=[191*, 0*]
  4: 0x048B [0x5B] LOAD_EXT_SCHEDULER: Load scheduler "tlk0" with entities [Unnamed NPC (ID: 17063969/0x01046021), Unnamed NPC (ID: 17063969/0x01046021)], work=0*
  5: 0x049A [0x1C] WAIT(60* ticks)
  6: 0x049D [0x6E] Unnamed NPC (ID: 17063971/0x01046023) uses emote 29*
  7: 0x04A4 [0x99] Wait for Unnamed NPC (ID: 17063971/0x01046023) animation to complete
  8: 0x04A9 [0x1C] WAIT(30* ticks)
  9: 0x04AC [0x5B] LOAD_EXT_SCHEDULER: Load scheduler "tha1" with entities [Unnamed NPC (ID: 17063970/0x01046022), Unnamed NPC (ID: 17063970/0x01046022)], work=55*
 10: 0x04BB [0x1C] WAIT(120* ticks)
 11: 0x04BE [0x45] LOAD_SCHEDULED_TASK: Load scheduler "fdo0" with entities [LocalPlayer, LocalPlayer], work=[200*, 0*]
 12: 0x04CF [0x1C] WAIT(15* ticks)
 13: 0x04D2 [0x5B] LOAD_EXT_SCHEDULER: Load scheduler "tha2" with entities [Unnamed NPC (ID: 17063970/0x01046022), Unnamed NPC (ID: 17063970/0x01046022)], work=55*
 14: 0x04E1 [0x5B] LOAD_EXT_SCHEDULER: Load scheduler "tlk1" with entities [Unnamed NPC (ID: 17063969/0x01046021), Unnamed NPC (ID: 17063969/0x01046021)], work=0*
 15: 0x04F0 [0x52] END_LOAD_SCHEDULER: End scheduler "s150" with entities [Unnamed NPC (ID: 17063967/0x0104601F), Unnamed NPC (ID: 17063967/0x0104601F)], work=192*
 16: 0x04FF [0x00] END_REQSTACK()
```

### Event 65535.10

#### Metadata

| Field        | Value     |
|--------------|-----------|
| Entrypoint   | 0x0500    |
| Data Size    | 237 bytes |
| Instructions | 23        |

```
      00 01 02 03 04 05 06 07  08 09 0A 0B 0C 0D 0E 0F
      -- -- -- -- -- -- -- --  -- -- -- -- -- -- -- --
0500: 45 04 80 22 60 04 01 22  60 04 01 73 31 35 31 01  E.."`.."`..s151.
0510: 80 1C 05 80 45 06 80 F0  FF FF 7F F0 FF FF 7F 66  ....E..........f
0520: 64 69 30 01 80 45 07 80  1F 60 04 01 1F 60 04 01  di0..E...`...`..
0530: 6B 61 6E 74 01 80 5B 13  80 1F 60 04 01 1F 60 04  kant..[...`...`.
0540: 01 74 68 6B 31 1C 0E 80  5B 0E 80 20 60 04 01 20  .thk1...[.. `.. 
0550: 60 04 01 74 6C 6B 30 1C  0E 80 5B 14 80 22 60 04  `..tlk0...[.."`.
0560: 01 22 60 04 01 74 68 62  31 1C 0E 80 5B 01 80 21  ."`..thb1...[..!
0570: 60 04 01 21 60 04 01 74  68 6B 31 1C 0E 80 6E 23  `..!`..thk1...n#
0580: 60 04 01 16 80 99 23 60  04 01 1C 0D 80 45 06 80  `.....#`.....E..
0590: F0 FF FF 7F F0 FF FF 7F  66 64 6F 30 01 80 1C 05  ........fdo0....
05A0: 80 5B 0E 80 20 60 04 01  20 60 04 01 74 6C 6B 31  .[.. `.. `..tlk1
05B0: 5B 13 80 1F 60 04 01 1F  60 04 01 74 68 6B 32 5B  [...`...`..thk2[
05C0: 01 80 21 60 04 01 21 60  04 01 74 68 6B 32 5B 14  ..!`..!`..thk2[.
05D0: 80 22 60 04 01 22 60 04  01 74 68 62 32 52 04 80  ."`.."`..thb2R..
05E0: 22 60 04 01 22 60 04 01  73 31 35 31 00           "`.."`..s151.   
```

#### Opcodes

```
  0: 0x0500 [0x45] LOAD_SCHEDULED_TASK: Load scheduler "s151" with entities [Unnamed NPC (ID: 17063970/0x01046022), Unnamed NPC (ID: 17063970/0x01046022)], work=[192*, 0*]
  1: 0x0511 [0x1C] WAIT(15* ticks)
  2: 0x0514 [0x45] LOAD_SCHEDULED_TASK: Load scheduler "fdi0" with entities [LocalPlayer, LocalPlayer], work=[200*, 0*]
  3: 0x0525 [0x45] LOAD_SCHEDULED_TASK: Load scheduler "kant" with entities [Unnamed NPC (ID: 17063967/0x0104601F), Unnamed NPC (ID: 17063967/0x0104601F)], work=[191*, 0*]
  4: 0x0536 [0x5B] LOAD_EXT_SCHEDULER: Load scheduler "thk1" with entities [Unnamed NPC (ID: 17063967/0x0104601F), Unnamed NPC (ID: 17063967/0x0104601F)], work=65*
  5: 0x0545 [0x1C] WAIT(30* ticks)
  6: 0x0548 [0x5B] LOAD_EXT_SCHEDULER: Load scheduler "tlk0" with entities [Unnamed NPC (ID: 17063968/0x01046020), Unnamed NPC (ID: 17063968/0x01046020)], work=30*
  7: 0x0557 [0x1C] WAIT(30* ticks)
  8: 0x055A [0x5B] LOAD_EXT_SCHEDULER: Load scheduler "thb1" with entities [Unnamed NPC (ID: 17063970/0x01046022), Unnamed NPC (ID: 17063970/0x01046022)], work=55*
  9: 0x0569 [0x1C] WAIT(30* ticks)
 10: 0x056C [0x5B] LOAD_EXT_SCHEDULER: Load scheduler "thk1" with entities [Unnamed NPC (ID: 17063969/0x01046021), Unnamed NPC (ID: 17063969/0x01046021)], work=0*
 11: 0x057B [0x1C] WAIT(30* ticks)
 12: 0x057E [0x6E] Unnamed NPC (ID: 17063971/0x01046023) uses emote 22*
 13: 0x0585 [0x99] Wait for Unnamed NPC (ID: 17063971/0x01046023) animation to complete
 14: 0x058A [0x1C] WAIT(90* ticks)
 15: 0x058D [0x45] LOAD_SCHEDULED_TASK: Load scheduler "fdo0" with entities [LocalPlayer, LocalPlayer], work=[200*, 0*]
 16: 0x059E [0x1C] WAIT(15* ticks)
 17: 0x05A1 [0x5B] LOAD_EXT_SCHEDULER: Load scheduler "tlk1" with entities [Unnamed NPC (ID: 17063968/0x01046020), Unnamed NPC (ID: 17063968/0x01046020)], work=30*
 18: 0x05B0 [0x5B] LOAD_EXT_SCHEDULER: Load scheduler "thk2" with entities [Unnamed NPC (ID: 17063967/0x0104601F), Unnamed NPC (ID: 17063967/0x0104601F)], work=65*
 19: 0x05BF [0x5B] LOAD_EXT_SCHEDULER: Load scheduler "thk2" with entities [Unnamed NPC (ID: 17063969/0x01046021), Unnamed NPC (ID: 17063969/0x01046021)], work=0*
 20: 0x05CE [0x5B] LOAD_EXT_SCHEDULER: Load scheduler "thb2" with entities [Unnamed NPC (ID: 17063970/0x01046022), Unnamed NPC (ID: 17063970/0x01046022)], work=55*
 21: 0x05DD [0x52] END_LOAD_SCHEDULER: End scheduler "s151" with entities [Unnamed NPC (ID: 17063970/0x01046022), Unnamed NPC (ID: 17063970/0x01046022)], work=192*
 22: 0x05EC [0x00] END_REQSTACK()
```

### Event 65535.11

#### Metadata

| Field        | Value     |
|--------------|-----------|
| Entrypoint   | 0x05ED    |
| Data Size    | 138 bytes |
| Instructions | 14        |

```
      00 01 02 03 04 05 06 07  08 09 0A 0B 0C 0D 0E 0F
      -- -- -- -- -- -- -- --  -- -- -- -- -- -- -- --
05E0:                                         45 04 80               E..
05F0: 1D 60 04 01 1D 60 04 01  73 31 35 35 01 80 1C 05  .`...`..s155....
0600: 80 45 06 80 F0 FF FF 7F  F0 FF FF 7F 66 64 69 30  .E..........fdi0
0610: 01 80 45 07 80 1D 60 04  01 1D 60 04 01 6B 61 6E  ..E...`...`..kan
0620: 74 01 80 6E 19 60 04 01  08 80 99 19 60 04 01 5B  t..n.`......`..[
0630: 11 80 1D 60 04 01 1D 60  04 01 6C 61 75 30 1C 0D  ...`...`..lau0..
0640: 80 5B 11 80 1D 60 04 01  1D 60 04 01 6C 61 75 31  .[...`...`..lau1
0650: 1C 0E 80 45 06 80 F0 FF  FF 7F F0 FF FF 7F 66 64  ...E..........fd
0660: 6F 30 01 80 1C 05 80 52  04 80 1D 60 04 01 1D 60  o0.....R...`...`
0670: 04 01 73 31 35 35 00                              ..s155.         
```

#### Opcodes

```
  0: 0x05ED [0x45] LOAD_SCHEDULED_TASK: Load scheduler "s155" with entities [Pieuje (ID: 17063965/0x0104601D), Pieuje (ID: 17063965/0x0104601D)], work=[192*, 0*]
  1: 0x05FE [0x1C] WAIT(15* ticks)
  2: 0x0601 [0x45] LOAD_SCHEDULED_TASK: Load scheduler "fdi0" with entities [LocalPlayer, LocalPlayer], work=[200*, 0*]
  3: 0x0612 [0x45] LOAD_SCHEDULED_TASK: Load scheduler "kant" with entities [Pieuje (ID: 17063965/0x0104601D), Pieuje (ID: 17063965/0x0104601D)], work=[191*, 0*]
  4: 0x0623 [0x6E] Goccilo (ID: 17063961/0x01046019) uses emote 11*
  5: 0x062A [0x99] Wait for Goccilo (ID: 17063961/0x01046019) animation to complete
  6: 0x062F [0x5B] LOAD_EXT_SCHEDULER: Load scheduler "lau0" with entities [Pieuje (ID: 17063965/0x0104601D), Pieuje (ID: 17063965/0x0104601D)], work=120*
  7: 0x063E [0x1C] WAIT(90* ticks)
  8: 0x0641 [0x5B] LOAD_EXT_SCHEDULER: Load scheduler "lau1" with entities [Pieuje (ID: 17063965/0x0104601D), Pieuje (ID: 17063965/0x0104601D)], work=120*
  9: 0x0650 [0x1C] WAIT(30* ticks)
 10: 0x0653 [0x45] LOAD_SCHEDULED_TASK: Load scheduler "fdo0" with entities [LocalPlayer, LocalPlayer], work=[200*, 0*]
 11: 0x0664 [0x1C] WAIT(15* ticks)
 12: 0x0667 [0x52] END_LOAD_SCHEDULER: End scheduler "s155" with entities [Pieuje (ID: 17063965/0x0104601D), Pieuje (ID: 17063965/0x0104601D)], work=192*
 13: 0x0676 [0x00] END_REQSTACK()
```

### Event 65535.12

#### Metadata

| Field        | Value     |
|--------------|-----------|
| Entrypoint   | 0x0677    |
| Data Size    | 138 bytes |
| Instructions | 14        |

```
      00 01 02 03 04 05 06 07  08 09 0A 0B 0C 0D 0E 0F
      -- -- -- -- -- -- -- --  -- -- -- -- -- -- -- --
0670:                      45  04 80 1D 60 04 01 1D 60         E...`...`
0680: 04 01 73 31 35 36 01 80  1C 05 80 45 06 80 F0 FF  ..s156.....E....
0690: FF 7F F0 FF FF 7F 66 64  69 30 01 80 45 07 80 1D  ......fdi0..E...
06A0: 60 04 01 1D 60 04 01 6B  61 6E 74 01 80 5B 11 80  `...`..kant..[..
06B0: 1D 60 04 01 1D 60 04 01  61 72 61 30 6E 19 60 04  .`...`..ara0n.`.
06C0: 01 0F 80 99 19 60 04 01  1C 0D 80 5B 11 80 1D 60  .....`.....[...`
06D0: 04 01 1D 60 04 01 61 72  61 31 1C 0E 80 45 06 80  ...`..ara1...E..
06E0: F0 FF FF 7F F0 FF FF 7F  66 64 6F 30 01 80 1C 05  ........fdo0....
06F0: 80 52 04 80 1D 60 04 01  1D 60 04 01 73 31 35 36  .R...`...`..s156
0700: 00                                                .               
```

#### Opcodes

```
  0: 0x0677 [0x45] LOAD_SCHEDULED_TASK: Load scheduler "s156" with entities [Pieuje (ID: 17063965/0x0104601D), Pieuje (ID: 17063965/0x0104601D)], work=[192*, 0*]
  1: 0x0688 [0x1C] WAIT(15* ticks)
  2: 0x068B [0x45] LOAD_SCHEDULED_TASK: Load scheduler "fdi0" with entities [LocalPlayer, LocalPlayer], work=[200*, 0*]
  3: 0x069C [0x45] LOAD_SCHEDULED_TASK: Load scheduler "kant" with entities [Pieuje (ID: 17063965/0x0104601D), Pieuje (ID: 17063965/0x0104601D)], work=[191*, 0*]
  4: 0x06AD [0x5B] LOAD_EXT_SCHEDULER: Load scheduler "ara0" with entities [Pieuje (ID: 17063965/0x0104601D), Pieuje (ID: 17063965/0x0104601D)], work=120*
  5: 0x06BC [0x6E] Goccilo (ID: 17063961/0x01046019) uses emote 12*
  6: 0x06C3 [0x99] Wait for Goccilo (ID: 17063961/0x01046019) animation to complete
  7: 0x06C8 [0x1C] WAIT(90* ticks)
  8: 0x06CB [0x5B] LOAD_EXT_SCHEDULER: Load scheduler "ara1" with entities [Pieuje (ID: 17063965/0x0104601D), Pieuje (ID: 17063965/0x0104601D)], work=120*
  9: 0x06DA [0x1C] WAIT(30* ticks)
 10: 0x06DD [0x45] LOAD_SCHEDULED_TASK: Load scheduler "fdo0" with entities [LocalPlayer, LocalPlayer], work=[200*, 0*]
 11: 0x06EE [0x1C] WAIT(15* ticks)
 12: 0x06F1 [0x52] END_LOAD_SCHEDULER: End scheduler "s156" with entities [Pieuje (ID: 17063965/0x0104601D), Pieuje (ID: 17063965/0x0104601D)], work=192*
 13: 0x0700 [0x00] END_REQSTACK()
```

### Event 65535.13

#### Metadata

| Field        | Value     |
|--------------|-----------|
| Entrypoint   | 0x0701    |
| Data Size    | 138 bytes |
| Instructions | 14        |

```
      00 01 02 03 04 05 06 07  08 09 0A 0B 0C 0D 0E 0F
      -- -- -- -- -- -- -- --  -- -- -- -- -- -- -- --
0700:    45 04 80 1D 60 04 01  1D 60 04 01 73 31 35 37   E...`...`..s157
0710: 01 80 1C 05 80 45 06 80  F0 FF FF 7F F0 FF FF 7F  .....E..........
0720: 66 64 69 30 01 80 45 07  80 1D 60 04 01 1D 60 04  fdi0..E...`...`.
0730: 01 6B 61 6E 74 01 80 6E  19 60 04 01 10 80 99 19  .kant..n.`......
0740: 60 04 01 1C 0E 80 5B 17  80 1D 60 04 01 1D 60 04  `.....[...`...`.
0750: 01 74 68 6B 30 1C 11 80  45 06 80 F0 FF FF 7F F0  .thk0...E.......
0760: FF FF 7F 66 64 6F 30 01  80 1C 05 80 5B 17 80 1D  ...fdo0.....[...
0770: 60 04 01 1D 60 04 01 74  68 6B 31 52 04 80 1D 60  `...`..thk1R...`
0780: 04 01 1D 60 04 01 73 31  35 37 00                 ...`..s157.     
```

#### Opcodes

```
  0: 0x0701 [0x45] LOAD_SCHEDULED_TASK: Load scheduler "s157" with entities [Pieuje (ID: 17063965/0x0104601D), Pieuje (ID: 17063965/0x0104601D)], work=[192*, 0*]
  1: 0x0712 [0x1C] WAIT(15* ticks)
  2: 0x0715 [0x45] LOAD_SCHEDULED_TASK: Load scheduler "fdi0" with entities [LocalPlayer, LocalPlayer], work=[200*, 0*]
  3: 0x0726 [0x45] LOAD_SCHEDULED_TASK: Load scheduler "kant" with entities [Pieuje (ID: 17063965/0x0104601D), Pieuje (ID: 17063965/0x0104601D)], work=[191*, 0*]
  4: 0x0737 [0x6E] Goccilo (ID: 17063961/0x01046019) uses emote 32*
  5: 0x073E [0x99] Wait for Goccilo (ID: 17063961/0x01046019) animation to complete
  6: 0x0743 [0x1C] WAIT(30* ticks)
  7: 0x0746 [0x5B] LOAD_EXT_SCHEDULER: Load scheduler "thk0" with entities [Pieuje (ID: 17063965/0x0104601D), Pieuje (ID: 17063965/0x0104601D)], work=121*
  8: 0x0755 [0x1C] WAIT(120* ticks)
  9: 0x0758 [0x45] LOAD_SCHEDULED_TASK: Load scheduler "fdo0" with entities [LocalPlayer, LocalPlayer], work=[200*, 0*]
 10: 0x0769 [0x1C] WAIT(15* ticks)
 11: 0x076C [0x5B] LOAD_EXT_SCHEDULER: Load scheduler "thk1" with entities [Pieuje (ID: 17063965/0x0104601D), Pieuje (ID: 17063965/0x0104601D)], work=121*
 12: 0x077B [0x52] END_LOAD_SCHEDULER: End scheduler "s157" with entities [Pieuje (ID: 17063965/0x0104601D), Pieuje (ID: 17063965/0x0104601D)], work=192*
 13: 0x078A [0x00] END_REQSTACK()
```

### Event 65535.14

#### Metadata

| Field        | Value     |
|--------------|-----------|
| Entrypoint   | 0x078B    |
| Data Size    | 156 bytes |
| Instructions | 14        |

```
      00 01 02 03 04 05 06 07  08 09 0A 0B 0C 0D 0E 0F
      -- -- -- -- -- -- -- --  -- -- -- -- -- -- -- --
0780:                                   45 04 80 1D 60             E...`
0790: 04 01 1D 60 04 01 73 31  35 38 01 80 1C 05 80 45  ...`..s158.....E
07A0: 06 80 F0 FF FF 7F F0 FF  FF 7F 66 64 69 30 01 80  ..........fdi0..
07B0: 45 07 80 1D 60 04 01 1D  60 04 01 6B 61 6E 74 01  E...`...`..kant.
07C0: 80 66 12 80 19 60 04 01  19 60 04 01 74 6C 6B 30  .f...`...`..tlk0
07D0: 1C 0D 80 66 12 80 19 60  04 01 19 60 04 01 74 6C  ...f...`...`..tl
07E0: 6B 31 5B 11 80 1D 60 04  01 1D 60 04 01 74 6C 6B  k1[...`...`..tlk
07F0: 30 1C 11 80 45 06 80 F0  FF FF 7F F0 FF FF 7F 66  0...E..........f
0800: 64 6F 30 01 80 1C 05 80  5B 11 80 1D 60 04 01 1D  do0.....[...`...
0810: 60 04 01 74 6C 6B 31 52  04 80 1D 60 04 01 1D 60  `..tlk1R...`...`
0820: 04 01 73 31 35 38 00                              ..s158.         
```

#### Opcodes

```
  0: 0x078B [0x45] LOAD_SCHEDULED_TASK: Load scheduler "s158" with entities [Pieuje (ID: 17063965/0x0104601D), Pieuje (ID: 17063965/0x0104601D)], work=[192*, 0*]
  1: 0x079C [0x1C] WAIT(15* ticks)
  2: 0x079F [0x45] LOAD_SCHEDULED_TASK: Load scheduler "fdi0" with entities [LocalPlayer, LocalPlayer], work=[200*, 0*]
  3: 0x07B0 [0x45] LOAD_SCHEDULED_TASK: Load scheduler "kant" with entities [Pieuje (ID: 17063965/0x0104601D), Pieuje (ID: 17063965/0x0104601D)], work=[191*, 0*]
  4: 0x07C1 [0x66] LOAD_EXT_SCHEDULER_MAIN: Load scheduler "tlk0" with entities [Goccilo (ID: 17063961/0x01046019), Goccilo (ID: 17063961/0x01046019)], work=69*
  5: 0x07D0 [0x1C] WAIT(90* ticks)
  6: 0x07D3 [0x66] LOAD_EXT_SCHEDULER_MAIN: Load scheduler "tlk1" with entities [Goccilo (ID: 17063961/0x01046019), Goccilo (ID: 17063961/0x01046019)], work=69*
  7: 0x07E2 [0x5B] LOAD_EXT_SCHEDULER: Load scheduler "tlk0" with entities [Pieuje (ID: 17063965/0x0104601D), Pieuje (ID: 17063965/0x0104601D)], work=120*
  8: 0x07F1 [0x1C] WAIT(120* ticks)
  9: 0x07F4 [0x45] LOAD_SCHEDULED_TASK: Load scheduler "fdo0" with entities [LocalPlayer, LocalPlayer], work=[200*, 0*]
 10: 0x0805 [0x1C] WAIT(15* ticks)
 11: 0x0808 [0x5B] LOAD_EXT_SCHEDULER: Load scheduler "tlk1" with entities [Pieuje (ID: 17063965/0x0104601D), Pieuje (ID: 17063965/0x0104601D)], work=120*
 12: 0x0817 [0x52] END_LOAD_SCHEDULER: End scheduler "s158" with entities [Pieuje (ID: 17063965/0x0104601D), Pieuje (ID: 17063965/0x0104601D)], work=192*
 13: 0x0826 [0x00] END_REQSTACK()
```

### Event 65535.15

#### Metadata

| Field        | Value     |
|--------------|-----------|
| Entrypoint   | 0x0827    |
| Data Size    | 135 bytes |
| Instructions | 13        |

```
      00 01 02 03 04 05 06 07  08 09 0A 0B 0C 0D 0E 0F
      -- -- -- -- -- -- -- --  -- -- -- -- -- -- -- --
0820:                      45  04 80 1D 60 04 01 1D 60         E...`...`
0830: 04 01 73 31 35 39 01 80  1C 05 80 45 06 80 F0 FF  ..s159.....E....
0840: FF 7F F0 FF FF 7F 66 64  69 30 01 80 45 07 80 1D  ......fdi0..E...
0850: 60 04 01 1D 60 04 01 6B  61 6E 74 01 80 6E 19 60  `...`..kant..n.`
0860: 04 01 08 80 99 19 60 04  01 5B 18 80 1D 60 04 01  ......`..[...`..
0870: 1D 60 04 01 74 65 72 30  1C 11 80 45 06 80 F0 FF  .`..ter0...E....
0880: FF 7F F0 FF FF 7F 66 64  6F 30 01 80 1C 05 80 5B  ......fdo0.....[
0890: 18 80 1D 60 04 01 1D 60  04 01 74 65 72 31 52 04  ...`...`..ter1R.
08A0: 80 1D 60 04 01 1D 60 04  01 73 31 35 39 00        ..`...`..s159.  
```

#### Opcodes

```
  0: 0x0827 [0x45] LOAD_SCHEDULED_TASK: Load scheduler "s159" with entities [Pieuje (ID: 17063965/0x0104601D), Pieuje (ID: 17063965/0x0104601D)], work=[192*, 0*]
  1: 0x0838 [0x1C] WAIT(15* ticks)
  2: 0x083B [0x45] LOAD_SCHEDULED_TASK: Load scheduler "fdi0" with entities [LocalPlayer, LocalPlayer], work=[200*, 0*]
  3: 0x084C [0x45] LOAD_SCHEDULED_TASK: Load scheduler "kant" with entities [Pieuje (ID: 17063965/0x0104601D), Pieuje (ID: 17063965/0x0104601D)], work=[191*, 0*]
  4: 0x085D [0x6E] Goccilo (ID: 17063961/0x01046019) uses emote 11*
  5: 0x0864 [0x99] Wait for Goccilo (ID: 17063961/0x01046019) animation to complete
  6: 0x0869 [0x5B] LOAD_EXT_SCHEDULER: Load scheduler "ter0" with entities [Pieuje (ID: 17063965/0x0104601D), Pieuje (ID: 17063965/0x0104601D)], work=111*
  7: 0x0878 [0x1C] WAIT(120* ticks)
  8: 0x087B [0x45] LOAD_SCHEDULED_TASK: Load scheduler "fdo0" with entities [LocalPlayer, LocalPlayer], work=[200*, 0*]
  9: 0x088C [0x1C] WAIT(15* ticks)
 10: 0x088F [0x5B] LOAD_EXT_SCHEDULER: Load scheduler "ter1" with entities [Pieuje (ID: 17063965/0x0104601D), Pieuje (ID: 17063965/0x0104601D)], work=111*
 11: 0x089E [0x52] END_LOAD_SCHEDULER: End scheduler "s159" with entities [Pieuje (ID: 17063965/0x0104601D), Pieuje (ID: 17063965/0x0104601D)], work=192*
 12: 0x08AD [0x00] END_REQSTACK()
```

### Event 65535.16

#### Metadata

| Field        | Value     |
|--------------|-----------|
| Entrypoint   | 0x08AE    |
| Data Size    | 117 bytes |
| Instructions | 11        |

```
      00 01 02 03 04 05 06 07  08 09 0A 0B 0C 0D 0E 0F
      -- -- -- -- -- -- -- --  -- -- -- -- -- -- -- --
08A0:                                            45 04                E.
08B0: 80 1D 60 04 01 1D 60 04  01 73 31 36 30 01 80 45  ..`...`..s160..E
08C0: 06 80 F0 FF FF 7F F0 FF  FF 7F 66 64 69 30 01 80  ..........fdi0..
08D0: 45 07 80 1D 60 04 01 1D  60 04 01 6B 61 6E 74 01  E...`...`..kant.
08E0: 80 6E 19 60 04 01 0F 80  99 19 60 04 01 5B 19 80  .n.`......`..[..
08F0: 1D 60 04 01 1D 60 04 01  73 69 6A 30 1C 11 80 45  .`...`..sij0...E
0900: 06 80 F0 FF FF 7F F0 FF  FF 7F 66 64 6F 30 01 80  ..........fdo0..
0910: 1C 05 80 52 04 80 1D 60  04 01 1D 60 04 01 73 31  ...R...`...`..s1
0920: 36 30 00                                          60.             
```

#### Opcodes

```
  0: 0x08AE [0x45] LOAD_SCHEDULED_TASK: Load scheduler "s160" with entities [Pieuje (ID: 17063965/0x0104601D), Pieuje (ID: 17063965/0x0104601D)], work=[192*, 0*]
  1: 0x08BF [0x45] LOAD_SCHEDULED_TASK: Load scheduler "fdi0" with entities [LocalPlayer, LocalPlayer], work=[200*, 0*]
  2: 0x08D0 [0x45] LOAD_SCHEDULED_TASK: Load scheduler "kant" with entities [Pieuje (ID: 17063965/0x0104601D), Pieuje (ID: 17063965/0x0104601D)], work=[191*, 0*]
  3: 0x08E1 [0x6E] Goccilo (ID: 17063961/0x01046019) uses emote 12*
  4: 0x08E8 [0x99] Wait for Goccilo (ID: 17063961/0x01046019) animation to complete
  5: 0x08ED [0x5B] LOAD_EXT_SCHEDULER: Load scheduler "sij0" with entities [Pieuje (ID: 17063965/0x0104601D), Pieuje (ID: 17063965/0x0104601D)], work=110*
  6: 0x08FC [0x1C] WAIT(120* ticks)
  7: 0x08FF [0x45] LOAD_SCHEDULED_TASK: Load scheduler "fdo0" with entities [LocalPlayer, LocalPlayer], work=[200*, 0*]
  8: 0x0910 [0x1C] WAIT(15* ticks)
  9: 0x0913 [0x52] END_LOAD_SCHEDULER: End scheduler "s160" with entities [Pieuje (ID: 17063965/0x0104601D), Pieuje (ID: 17063965/0x0104601D)], work=192*
 10: 0x0922 [0x00] END_REQSTACK()
```

### Event 65535.17

#### Metadata

| Field        | Value     |
|--------------|-----------|
| Entrypoint   | 0x0923    |
| Data Size    | 138 bytes |
| Instructions | 14        |

```
      00 01 02 03 04 05 06 07  08 09 0A 0B 0C 0D 0E 0F
      -- -- -- -- -- -- -- --  -- -- -- -- -- -- -- --
0920:          45 04 80 1D 60  04 01 1D 60 04 01 73 31     E...`...`..s1
0930: 36 31 01 80 1C 05 80 45  06 80 F0 FF FF 7F F0 FF  61.....E........
0940: FF 7F 66 64 69 30 01 80  45 07 80 1D 60 04 01 1D  ..fdi0..E...`...
0950: 60 04 01 6B 61 6E 74 01  80 6E 19 60 04 01 10 80  `..kant..n.`....
0960: 99 19 60 04 01 1C 0E 80  5B 19 80 1D 60 04 01 1D  ..`.....[...`...
0970: 60 04 01 74 68 6B 31 1C  11 80 45 06 80 F0 FF FF  `..thk1...E.....
0980: 7F F0 FF FF 7F 66 64 6F  30 01 80 1C 05 80 5B 19  .....fdo0.....[.
0990: 80 1D 60 04 01 1D 60 04  01 74 68 6B 32 52 04 80  ..`...`..thk2R..
09A0: 1D 60 04 01 1D 60 04 01  73 31 36 31 00           .`...`..s161.   
```

#### Opcodes

```
  0: 0x0923 [0x45] LOAD_SCHEDULED_TASK: Load scheduler "s161" with entities [Pieuje (ID: 17063965/0x0104601D), Pieuje (ID: 17063965/0x0104601D)], work=[192*, 0*]
  1: 0x0934 [0x1C] WAIT(15* ticks)
  2: 0x0937 [0x45] LOAD_SCHEDULED_TASK: Load scheduler "fdi0" with entities [LocalPlayer, LocalPlayer], work=[200*, 0*]
  3: 0x0948 [0x45] LOAD_SCHEDULED_TASK: Load scheduler "kant" with entities [Pieuje (ID: 17063965/0x0104601D), Pieuje (ID: 17063965/0x0104601D)], work=[191*, 0*]
  4: 0x0959 [0x6E] Goccilo (ID: 17063961/0x01046019) uses emote 32*
  5: 0x0960 [0x99] Wait for Goccilo (ID: 17063961/0x01046019) animation to complete
  6: 0x0965 [0x1C] WAIT(30* ticks)
  7: 0x0968 [0x5B] LOAD_EXT_SCHEDULER: Load scheduler "thk1" with entities [Pieuje (ID: 17063965/0x0104601D), Pieuje (ID: 17063965/0x0104601D)], work=110*
  8: 0x0977 [0x1C] WAIT(120* ticks)
  9: 0x097A [0x45] LOAD_SCHEDULED_TASK: Load scheduler "fdo0" with entities [LocalPlayer, LocalPlayer], work=[200*, 0*]
 10: 0x098B [0x1C] WAIT(15* ticks)
 11: 0x098E [0x5B] LOAD_EXT_SCHEDULER: Load scheduler "thk2" with entities [Pieuje (ID: 17063965/0x0104601D), Pieuje (ID: 17063965/0x0104601D)], work=110*
 12: 0x099D [0x52] END_LOAD_SCHEDULER: End scheduler "s161" with entities [Pieuje (ID: 17063965/0x0104601D), Pieuje (ID: 17063965/0x0104601D)], work=192*
 13: 0x09AC [0x00] END_REQSTACK()
```

### Event 65535.18

#### Metadata

| Field        | Value     |
|--------------|-----------|
| Entrypoint   | 0x09AD    |
| Data Size    | 156 bytes |
| Instructions | 14        |

```
      00 01 02 03 04 05 06 07  08 09 0A 0B 0C 0D 0E 0F
      -- -- -- -- -- -- -- --  -- -- -- -- -- -- -- --
09A0:                                         45 04 80               E..
09B0: 1D 60 04 01 1D 60 04 01  73 31 36 32 01 80 1C 05  .`...`..s162....
09C0: 80 45 06 80 F0 FF FF 7F  F0 FF FF 7F 66 64 69 30  .E..........fdi0
09D0: 01 80 45 07 80 1D 60 04  01 1D 60 04 01 6B 61 6E  ..E...`...`..kan
09E0: 74 01 80 66 12 80 19 60  04 01 19 60 04 01 74 6C  t..f...`...`..tl
09F0: 6B 30 1C 0D 80 66 12 80  19 60 04 01 19 60 04 01  k0...f...`...`..
0A00: 74 6C 6B 31 5B 19 80 1D  60 04 01 1D 60 04 01 74  tlk1[...`...`..t
0A10: 6C 6B 30 1C 0D 80 45 06  80 F0 FF FF 7F F0 FF FF  lk0...E.........
0A20: 7F 66 64 6F 30 01 80 1C  05 80 5B 19 80 1D 60 04  .fdo0.....[...`.
0A30: 01 1D 60 04 01 74 6C 6B  31 52 04 80 1D 60 04 01  ..`..tlk1R...`..
0A40: 1D 60 04 01 73 31 36 32  00                       .`..s162.       
```

#### Opcodes

```
  0: 0x09AD [0x45] LOAD_SCHEDULED_TASK: Load scheduler "s162" with entities [Pieuje (ID: 17063965/0x0104601D), Pieuje (ID: 17063965/0x0104601D)], work=[192*, 0*]
  1: 0x09BE [0x1C] WAIT(15* ticks)
  2: 0x09C1 [0x45] LOAD_SCHEDULED_TASK: Load scheduler "fdi0" with entities [LocalPlayer, LocalPlayer], work=[200*, 0*]
  3: 0x09D2 [0x45] LOAD_SCHEDULED_TASK: Load scheduler "kant" with entities [Pieuje (ID: 17063965/0x0104601D), Pieuje (ID: 17063965/0x0104601D)], work=[191*, 0*]
  4: 0x09E3 [0x66] LOAD_EXT_SCHEDULER_MAIN: Load scheduler "tlk0" with entities [Goccilo (ID: 17063961/0x01046019), Goccilo (ID: 17063961/0x01046019)], work=69*
  5: 0x09F2 [0x1C] WAIT(90* ticks)
  6: 0x09F5 [0x66] LOAD_EXT_SCHEDULER_MAIN: Load scheduler "tlk1" with entities [Goccilo (ID: 17063961/0x01046019), Goccilo (ID: 17063961/0x01046019)], work=69*
  7: 0x0A04 [0x5B] LOAD_EXT_SCHEDULER: Load scheduler "tlk0" with entities [Pieuje (ID: 17063965/0x0104601D), Pieuje (ID: 17063965/0x0104601D)], work=110*
  8: 0x0A13 [0x1C] WAIT(90* ticks)
  9: 0x0A16 [0x45] LOAD_SCHEDULED_TASK: Load scheduler "fdo0" with entities [LocalPlayer, LocalPlayer], work=[200*, 0*]
 10: 0x0A27 [0x1C] WAIT(15* ticks)
 11: 0x0A2A [0x5B] LOAD_EXT_SCHEDULER: Load scheduler "tlk1" with entities [Pieuje (ID: 17063965/0x0104601D), Pieuje (ID: 17063965/0x0104601D)], work=110*
 12: 0x0A39 [0x52] END_LOAD_SCHEDULER: End scheduler "s162" with entities [Pieuje (ID: 17063965/0x0104601D), Pieuje (ID: 17063965/0x0104601D)], work=192*
 13: 0x0A48 [0x00] END_REQSTACK()
```

### Event 65535.19

#### Metadata

| Field        | Value     |
|--------------|-----------|
| Entrypoint   | 0x0A49    |
| Data Size    | 123 bytes |
| Instructions | 13        |

```
      00 01 02 03 04 05 06 07  08 09 0A 0B 0C 0D 0E 0F
      -- -- -- -- -- -- -- --  -- -- -- -- -- -- -- --
0A40:                             45 04 80 1E 60 04 01           E...`..
0A50: 1E 60 04 01 73 31 36 33  01 80 1C 05 80 45 06 80  .`..s163.....E..
0A60: F0 FF FF 7F F0 FF FF 7F  66 64 69 30 01 80 45 07  ........fdi0..E.
0A70: 80 1E 60 04 01 1E 60 04  01 6B 61 6E 74 01 80 6E  ..`...`..kant..n
0A80: 19 60 04 01 08 80 99 19  60 04 01 1C 0E 80 66 1A  .`......`.....f.
0A90: 80 1E 60 04 01 1E 60 04  01 77 61 69 30 1C 0D 80  ..`...`..wai0...
0AA0: 45 06 80 F0 FF FF 7F F0  FF FF 7F 66 64 6F 30 01  E..........fdo0.
0AB0: 80 1C 05 80 52 04 80 1E  60 04 01 1E 60 04 01 73  ....R...`...`..s
0AC0: 31 36 33 00                                       163.            
```

#### Opcodes

```
  0: 0x0A49 [0x45] LOAD_SCHEDULED_TASK: Load scheduler "s163" with entities [Kupipi (ID: 17063966/0x0104601E), Kupipi (ID: 17063966/0x0104601E)], work=[192*, 0*]
  1: 0x0A5A [0x1C] WAIT(15* ticks)
  2: 0x0A5D [0x45] LOAD_SCHEDULED_TASK: Load scheduler "fdi0" with entities [LocalPlayer, LocalPlayer], work=[200*, 0*]
  3: 0x0A6E [0x45] LOAD_SCHEDULED_TASK: Load scheduler "kant" with entities [Kupipi (ID: 17063966/0x0104601E), Kupipi (ID: 17063966/0x0104601E)], work=[191*, 0*]
  4: 0x0A7F [0x6E] Goccilo (ID: 17063961/0x01046019) uses emote 11*
  5: 0x0A86 [0x99] Wait for Goccilo (ID: 17063961/0x01046019) animation to complete
  6: 0x0A8B [0x1C] WAIT(30* ticks)
  7: 0x0A8E [0x66] LOAD_EXT_SCHEDULER_MAIN: Load scheduler "wai0" with entities [Kupipi (ID: 17063966/0x0104601E), Kupipi (ID: 17063966/0x0104601E)], work=40*
  8: 0x0A9D [0x1C] WAIT(90* ticks)
  9: 0x0AA0 [0x45] LOAD_SCHEDULED_TASK: Load scheduler "fdo0" with entities [LocalPlayer, LocalPlayer], work=[200*, 0*]
 10: 0x0AB1 [0x1C] WAIT(15* ticks)
 11: 0x0AB4 [0x52] END_LOAD_SCHEDULER: End scheduler "s163" with entities [Kupipi (ID: 17063966/0x0104601E), Kupipi (ID: 17063966/0x0104601E)], work=192*
 12: 0x0AC3 [0x00] END_REQSTACK()
```

### Event 65535.20

#### Metadata

| Field        | Value     |
|--------------|-----------|
| Entrypoint   | 0x0AC4    |
| Data Size    | 120 bytes |
| Instructions | 12        |

```
      00 01 02 03 04 05 06 07  08 09 0A 0B 0C 0D 0E 0F
      -- -- -- -- -- -- -- --  -- -- -- -- -- -- -- --
0AC0:             45 04 80 1E  60 04 01 1E 60 04 01 73      E...`...`..s
0AD0: 31 36 34 01 80 1C 05 80  45 06 80 F0 FF FF 7F F0  164.....E.......
0AE0: FF FF 7F 66 64 69 30 01  80 45 07 80 1E 60 04 01  ...fdi0..E...`..
0AF0: 1E 60 04 01 6B 61 6E 74  01 80 6E 19 60 04 01 0F  .`..kant..n.`...
0B00: 80 99 19 60 04 01 66 1A  80 1E 60 04 01 1E 60 04  ...`..f...`...`.
0B10: 01 73 79 75 30 1C 11 80  45 06 80 F0 FF FF 7F F0  .syu0...E.......
0B20: FF FF 7F 66 64 6F 30 01  80 1C 05 80 52 04 80 1E  ...fdo0.....R...
0B30: 60 04 01 1E 60 04 01 73  31 36 34 00              `...`..s164.    
```

#### Opcodes

```
  0: 0x0AC4 [0x45] LOAD_SCHEDULED_TASK: Load scheduler "s164" with entities [Kupipi (ID: 17063966/0x0104601E), Kupipi (ID: 17063966/0x0104601E)], work=[192*, 0*]
  1: 0x0AD5 [0x1C] WAIT(15* ticks)
  2: 0x0AD8 [0x45] LOAD_SCHEDULED_TASK: Load scheduler "fdi0" with entities [LocalPlayer, LocalPlayer], work=[200*, 0*]
  3: 0x0AE9 [0x45] LOAD_SCHEDULED_TASK: Load scheduler "kant" with entities [Kupipi (ID: 17063966/0x0104601E), Kupipi (ID: 17063966/0x0104601E)], work=[191*, 0*]
  4: 0x0AFA [0x6E] Goccilo (ID: 17063961/0x01046019) uses emote 12*
  5: 0x0B01 [0x99] Wait for Goccilo (ID: 17063961/0x01046019) animation to complete
  6: 0x0B06 [0x66] LOAD_EXT_SCHEDULER_MAIN: Load scheduler "syu0" with entities [Kupipi (ID: 17063966/0x0104601E), Kupipi (ID: 17063966/0x0104601E)], work=40*
  7: 0x0B15 [0x1C] WAIT(120* ticks)
  8: 0x0B18 [0x45] LOAD_SCHEDULED_TASK: Load scheduler "fdo0" with entities [LocalPlayer, LocalPlayer], work=[200*, 0*]
  9: 0x0B29 [0x1C] WAIT(15* ticks)
 10: 0x0B2C [0x52] END_LOAD_SCHEDULER: End scheduler "s164" with entities [Kupipi (ID: 17063966/0x0104601E), Kupipi (ID: 17063966/0x0104601E)], work=192*
 11: 0x0B3B [0x00] END_REQSTACK()
```

### Event 65535.21

#### Metadata

| Field        | Value     |
|--------------|-----------|
| Entrypoint   | 0x0B3C    |
| Data Size    | 123 bytes |
| Instructions | 13        |

```
      00 01 02 03 04 05 06 07  08 09 0A 0B 0C 0D 0E 0F
      -- -- -- -- -- -- -- --  -- -- -- -- -- -- -- --
0B30:                                      45 04 80 1E              E...
0B40: 60 04 01 1E 60 04 01 73  31 36 35 01 80 1C 05 80  `...`..s165.....
0B50: 45 06 80 F0 FF FF 7F F0  FF FF 7F 66 64 69 30 01  E..........fdi0.
0B60: 80 45 07 80 1E 60 04 01  1E 60 04 01 6B 61 6E 74  .E...`...`..kant
0B70: 01 80 6E 19 60 04 01 10  80 99 19 60 04 01 1C 0E  ..n.`......`....
0B80: 80 66 1B 80 1E 60 04 01  1E 60 04 01 6E 6D 6F 30  .f...`...`..nmo0
0B90: 1C 11 80 45 06 80 F0 FF  FF 7F F0 FF FF 7F 66 64  ...E..........fd
0BA0: 6F 30 01 80 1C 05 80 52  04 80 1E 60 04 01 1E 60  o0.....R...`...`
0BB0: 04 01 73 31 36 35 00                              ..s165.         
```

#### Opcodes

```
  0: 0x0B3C [0x45] LOAD_SCHEDULED_TASK: Load scheduler "s165" with entities [Kupipi (ID: 17063966/0x0104601E), Kupipi (ID: 17063966/0x0104601E)], work=[192*, 0*]
  1: 0x0B4D [0x1C] WAIT(15* ticks)
  2: 0x0B50 [0x45] LOAD_SCHEDULED_TASK: Load scheduler "fdi0" with entities [LocalPlayer, LocalPlayer], work=[200*, 0*]
  3: 0x0B61 [0x45] LOAD_SCHEDULED_TASK: Load scheduler "kant" with entities [Kupipi (ID: 17063966/0x0104601E), Kupipi (ID: 17063966/0x0104601E)], work=[191*, 0*]
  4: 0x0B72 [0x6E] Goccilo (ID: 17063961/0x01046019) uses emote 32*
  5: 0x0B79 [0x99] Wait for Goccilo (ID: 17063961/0x01046019) animation to complete
  6: 0x0B7E [0x1C] WAIT(30* ticks)
  7: 0x0B81 [0x66] LOAD_EXT_SCHEDULER_MAIN: Load scheduler "nmo0" with entities [Kupipi (ID: 17063966/0x0104601E), Kupipi (ID: 17063966/0x0104601E)], work=42*
  8: 0x0B90 [0x1C] WAIT(120* ticks)
  9: 0x0B93 [0x45] LOAD_SCHEDULED_TASK: Load scheduler "fdo0" with entities [LocalPlayer, LocalPlayer], work=[200*, 0*]
 10: 0x0BA4 [0x1C] WAIT(15* ticks)
 11: 0x0BA7 [0x52] END_LOAD_SCHEDULER: End scheduler "s165" with entities [Kupipi (ID: 17063966/0x0104601E), Kupipi (ID: 17063966/0x0104601E)], work=192*
 12: 0x0BB6 [0x00] END_REQSTACK()
```

### Event 65535.22

#### Metadata

| Field        | Value     |
|--------------|-----------|
| Entrypoint   | 0x0BB7    |
| Data Size    | 156 bytes |
| Instructions | 14        |

```
      00 01 02 03 04 05 06 07  08 09 0A 0B 0C 0D 0E 0F
      -- -- -- -- -- -- -- --  -- -- -- -- -- -- -- --
0BB0:                      45  04 80 1E 60 04 01 1E 60         E...`...`
0BC0: 04 01 73 31 36 36 01 80  1C 05 80 45 06 80 F0 FF  ..s166.....E....
0BD0: FF 7F F0 FF FF 7F 66 64  69 30 01 80 45 07 80 1E  ......fdi0..E...
0BE0: 60 04 01 1E 60 04 01 6B  61 6E 74 01 80 66 12 80  `...`..kant..f..
0BF0: 19 60 04 01 19 60 04 01  74 6C 6B 30 1C 0D 80 66  .`...`..tlk0...f
0C00: 12 80 19 60 04 01 19 60  04 01 74 6C 6B 31 66 1A  ...`...`..tlk1f.
0C10: 80 1E 60 04 01 1E 60 04  01 74 6C 6B 30 1C 0D 80  ..`...`..tlk0...
0C20: 66 1A 80 1E 60 04 01 1E  60 04 01 74 6C 6B 31 45  f...`...`..tlk1E
0C30: 06 80 F0 FF FF 7F F0 FF  FF 7F 66 64 6F 30 01 80  ..........fdo0..
0C40: 1C 05 80 52 04 80 1E 60  04 01 1E 60 04 01 73 31  ...R...`...`..s1
0C50: 36 36 00                                          66.             
```

#### Opcodes

```
  0: 0x0BB7 [0x45] LOAD_SCHEDULED_TASK: Load scheduler "s166" with entities [Kupipi (ID: 17063966/0x0104601E), Kupipi (ID: 17063966/0x0104601E)], work=[192*, 0*]
  1: 0x0BC8 [0x1C] WAIT(15* ticks)
  2: 0x0BCB [0x45] LOAD_SCHEDULED_TASK: Load scheduler "fdi0" with entities [LocalPlayer, LocalPlayer], work=[200*, 0*]
  3: 0x0BDC [0x45] LOAD_SCHEDULED_TASK: Load scheduler "kant" with entities [Kupipi (ID: 17063966/0x0104601E), Kupipi (ID: 17063966/0x0104601E)], work=[191*, 0*]
  4: 0x0BED [0x66] LOAD_EXT_SCHEDULER_MAIN: Load scheduler "tlk0" with entities [Goccilo (ID: 17063961/0x01046019), Goccilo (ID: 17063961/0x01046019)], work=69*
  5: 0x0BFC [0x1C] WAIT(90* ticks)
  6: 0x0BFF [0x66] LOAD_EXT_SCHEDULER_MAIN: Load scheduler "tlk1" with entities [Goccilo (ID: 17063961/0x01046019), Goccilo (ID: 17063961/0x01046019)], work=69*
  7: 0x0C0E [0x66] LOAD_EXT_SCHEDULER_MAIN: Load scheduler "tlk0" with entities [Kupipi (ID: 17063966/0x0104601E), Kupipi (ID: 17063966/0x0104601E)], work=40*
  8: 0x0C1D [0x1C] WAIT(90* ticks)
  9: 0x0C20 [0x66] LOAD_EXT_SCHEDULER_MAIN: Load scheduler "tlk1" with entities [Kupipi (ID: 17063966/0x0104601E), Kupipi (ID: 17063966/0x0104601E)], work=40*
 10: 0x0C2F [0x45] LOAD_SCHEDULED_TASK: Load scheduler "fdo0" with entities [LocalPlayer, LocalPlayer], work=[200*, 0*]
 11: 0x0C40 [0x1C] WAIT(15* ticks)
 12: 0x0C43 [0x52] END_LOAD_SCHEDULER: End scheduler "s166" with entities [Kupipi (ID: 17063966/0x0104601E), Kupipi (ID: 17063966/0x0104601E)], work=192*
 13: 0x0C52 [0x00] END_REQSTACK()
```

### Event 65535.23

#### Metadata

| Field        | Value     |
|--------------|-----------|
| Entrypoint   | 0x0C53    |
| Data Size    | 109 bytes |
| Instructions | 15        |

```
      00 01 02 03 04 05 06 07  08 09 0A 0B 0C 0D 0E 0F
      -- -- -- -- -- -- -- --  -- -- -- -- -- -- -- --
0C50:          45 07 80 F0 FF  FF 7F F0 FF FF 7F 6E 61     E..........na
0C60: 6B 73 01 80 45 07 80 F0  FF FF 7F F0 FF FF 7F 68  ks..E..........h
0C70: 61 73 73 01 80 45 07 80  11 60 04 01 11 60 04 01  ass..E...`...`..
0C80: 6B 61 6E 74 01 80 03 02  10 34 10 2B 19 60 04 01  kant.....4.+.`..
0C90: 1C 80 1C 0D 80 2B 19 60  04 01 1D 80 1C 09 80 2B  .....+.`.......+
0CA0: 1B 60 04 01 1E 80 2B 1C  60 04 01 1F 80 1C 0E 80  .`....+.`.......
0CB0: 03 02 10 20 80 2B 1B 60  04 01 21 80 1C 0D 80 00  ... .+.`..!.....
```

#### Opcodes

```
  0: 0x0C53 [0x45] LOAD_SCHEDULED_TASK: Load scheduler "naks" with entities [LocalPlayer, LocalPlayer], work=[191*, 0*]
  1: 0x0C64 [0x45] LOAD_SCHEDULED_TASK: Load scheduler "hass" with entities [LocalPlayer, LocalPlayer], work=[191*, 0*]
  2: 0x0C75 [0x45] LOAD_SCHEDULED_TASK: Load scheduler "kant" with entities [Unnamed NPC (ID: 17063953/0x01046011), Unnamed NPC (ID: 17063953/0x01046011)], work=[191*, 0*]
  3: 0x0C86 [0x03] Work_Zone[2] = Work_Zone[52]
  4: 0x0C8B [0x2B] Goccilo (ID: 17063961/0x01046019) [8825*]:
     "And they're off!"
  5: 0x0C92 [0x1C] WAIT(90* ticks)
  6: 0x0C95 [0x2B] Goccilo (ID: 17063961/0x01046019) [8826*]:
     "Markovich, what did you think of the start?"
  7: 0x0C9C [0x1C] WAIT(60* ticks)
  8: 0x0C9F [0x2B] Markovich (ID: 17063963/0x0104601B) [8827*]:
     "Well, I fel--"
  9: 0x0CA6 [0x2B] Sakura (ID: 17063964/0x0104601C) [8828*]:
     "$3s$3%3s$3%3bI"
 10: 0x0CAD [0x1C] WAIT(30* ticks)
 11: 0x0CB0 [0x03] Work_Zone[2] = 1*
 12: 0x0CB5 [0x2B] Markovich (ID: 17063963/0x0104601B) [8829*]:
     "Sakura says it was a picture-perfect start and that I need to shut my mouth."
 13: 0x0CBC [0x1C] WAIT(90* ticks)
 14: 0x0CBF [0x00] END_REQSTACK()
```

### Event 65535.24

#### Metadata

| Field        | Value     |
|--------------|-----------|
| Entrypoint   | 0x0CC0    |
| Data Size    | 405 bytes |
| Instructions | 29        |

```
      00 01 02 03 04 05 06 07  08 09 0A 0B 0C 0D 0E 0F
      -- -- -- -- -- -- -- --  -- -- -- -- -- -- -- --
0CC0: 1C 0E 80 45 06 80 F0 FF  FF 7F F0 FF FF 7F 66 64  ...E..........fd
0CD0: 69 30 01 80 45 07 80 19  60 04 01 19 60 04 01 6B  i0..E...`...`..k
0CE0: 61 6E 74 01 80 66 12 80  19 60 04 01 19 60 04 01  ant..f...`...`..
0CF0: 74 6C 6B 30 2B 19 60 04  01 22 80 1C 0D 80 03 11  tlk0+.`.."......
0D00: 00 29 10 03 12 00 01 80  1A F3 14 02 02 10 20 80  .)............ .
0D10: 00 27 0D 03 03 10 3D 00  03 02 10 01 80 2B 19 60  .'....=......+.`
0D20: 04 01 23 80 01 40 0D 02  02 10 34 10 00 39 0D 2B  ..#..@....4..9.+
0D30: 19 60 04 01 24 80 01 40  0D 2B 19 60 04 01 25 80  .`..$..@.+.`..%.
0D40: 1C 0D 80 02 00 17 20 80  00 69 0D 03 11 00 29 10  ...... ..i....).
0D50: 03 12 00 20 80 1A F3 14  03 03 10 3E 00 03 05 10  ... .......>....
0D60: 26 80 2B 19 60 04 01 27  80 1C 0D 80 BF 40 01 80  &.+.`..'.....@..
0D70: 28 80 02 80 00 17 41 29  80 2A 80 00 17 02 10 BF  (.....A).*......
0D80: 40 01 80 2B 80 02 80 00  17 41 29 80 2A 80 00 17  @..+.....A).*...
0D90: 03 10 BF 40 01 80 2C 80  02 80 00 17 41 29 80 2A  ...@..,.....A).*
0DA0: 80 00 17 04 10 07 02 10  03 10 07 02 10 04 10 02  ................
0DB0: 02 10 01 80 01 C1 0D 2B  19 60 04 01 2D 80 1C 0D  .......+.`..-...
0DC0: 80 66 12 80 19 60 04 01  19 60 04 01 74 6C 6B 31  .f...`...`..tlk1
0DD0: 5B 0A 80 1C 60 04 01 1C  60 04 01 68 69 30 31 1C  [...`...`..hi01.
0DE0: 0B 80 5B 0C 80 1C 60 04  01 1C 60 04 01 31 30 30  ..[...`...`..100
0DF0: 35 2B 1C 60 04 01 2E 80  1C 09 80 5B 09 80 1B 60  5+.`.......[...`
0E00: 04 01 1B 60 04 01 74 6C  6B 30 2B 1B 60 04 01 2F  ...`..tlk0+.`../
0E10: 80 1C 0D 80 5B 09 80 1B  60 04 01 1B 60 04 01 74  ....[...`...`..t
0E20: 6C 6B 31 45 07 80 19 60  04 01 19 60 04 01 6B 61  lk1E...`...`..ka
0E30: 6F 66 01 80 45 06 80 F0  FF FF 7F F0 FF FF 7F 66  of..E..........f
0E40: 64 6F 30 01 80 55 06 80  F0 FF FF 7F F0 FF FF 7F  do0..U..........
0E50: 66 64 6F 30 00                                    fdo0.           
```

#### Opcodes

```
  0: 0x0CC0 [0x1C] WAIT(30* ticks)
  1: 0x0CC3 [0x45] LOAD_SCHEDULED_TASK: Load scheduler "fdi0" with entities [LocalPlayer, LocalPlayer], work=[200*, 0*]
  2: 0x0CD4 [0x45] LOAD_SCHEDULED_TASK: Load scheduler "kant" with entities [Goccilo (ID: 17063961/0x01046019), Goccilo (ID: 17063961/0x01046019)], work=[191*, 0*]
  3: 0x0CE5 [0x66] LOAD_EXT_SCHEDULER_MAIN: Load scheduler "tlk0" with entities [Goccilo (ID: 17063961/0x01046019), Goccilo (ID: 17063961/0x01046019)], work=69*
  4: 0x0CF4 [0x2B] Goccilo (ID: 17063961/0x01046019) [8832*]:
     "And as they pass the halfway mark..."
  5: 0x0CFB [0x1C] WAIT(90* ticks)
  6: 0x0CFE [0x03] ExtData[1]->WorkLocal[17] = Work_Zone[41]
  7: 0x0D03 [0x03] ExtData[1]->WorkLocal[18] = 0*
  8: 0x0D08 [0x1A] CALL_SUBROUTINE(address=0x14F3)
  9: 0x0D0B [0x02] IF !(Work_Zone[2] == 1*) GOTO 0x0D27
 10: 0x0D13 [0x03] Work_Zone[3] = ExtData[1]->WorkLocal[61]
 11: 0x0D18 [0x03] Work_Zone[2] = 0*
 12: 0x0D1D [0x2B] Goccilo (ID: 17063961/0x01046019) [8833*]:
     "#$1 $0 holds on to the lead!"
 13: 0x0D24 [0x01] GOTO 0x0D40
 14: 0x0D27 [0x02] IF !(Work_Zone[2] == Work_Zone[52]) GOTO 0x0D39
 15: 0x0D2F [0x2B] Goccilo (ID: 17063961/0x01046019) [8837*]:
     "All $0 chocobos battle for the lead!"
 16: 0x0D36 [0x01] GOTO 0x0D40
 17: 0x0D39 [0x2B] Goccilo (ID: 17063961/0x01046019) [8834*]:
     "$0 different chocobos continue their battle for the lead!"

SUBROUTINE_0D40:
 18: 0x0D40 [0x1C] WAIT(90* ticks)
 19: 0x0D43 [0x02] IF !(Work_Zone_1700[0] == 1*) GOTO 0x0D69
 20: 0x0D4B [0x03] ExtData[1]->WorkLocal[17] = Work_Zone[41]
 21: 0x0D50 [0x03] ExtData[1]->WorkLocal[18] = 1*
 22: 0x0D55 [0x1A] CALL_SUBROUTINE(address=0x14F3)
 23: 0x0D58 [0x03] Work_Zone[3] = ExtData[1]->WorkLocal[62]
 24: 0x0D5D [0x03] Work_Zone[5] = 3*
 25: 0x0D62 [0x2B] Goccilo (ID: 17063961/0x01046019) [8835*]:
     "While from behind the pack, #$1 $3 seems to be vying for the perfect time to make its move!"
 26: 0x0D69 [0x1C] WAIT(90* ticks)
 27: 0x0D6C [0xBF] CHOCOBO_RACING_PARAMETER_GETTER(param_type=0x40)
 28: 0x0D6E [0x01] GOTO 0x2880
```

#### Data or dead code:

```
# Dead code (unreachable instructions):
     0x0D71 [0x80] LOAD_WAIT(entity=Unknown NPC (ID: 385908738/0x17008002))
     0x0D76 [0x41] Work_Zone[2] = Work_Zone_1700[0] (bits 24*-31*)
     0x0D7F [0xBF] CHOCOBO_RACING_PARAMETER_GETTER(param_type=0x40)
     0x0D81 [0x01] GOTO 0x2B80
     0x0D84 [0x80] LOAD_WAIT(entity=Unknown NPC (ID: 385908738/0x17008002))
     0x0D89 [0x41] Work_Zone[3] = Work_Zone_1700[0] (bits 24*-31*)
     0x0D92 [0xBF] CHOCOBO_RACING_PARAMETER_GETTER(param_type=0x40)
     0x0D94 [0x01] GOTO 0x2C80
     0x0D97 [0x80] LOAD_WAIT(entity=Unknown NPC (ID: 385908738/0x17008002))
     0x0D9C [0x41] Work_Zone[4] = Work_Zone_1700[0] (bits 24*-31*)
     0x0DA5 [0x07] Work_Zone[2] += Work_Zone[3]
     0x0DAA [0x07] Work_Zone[2] += Work_Zone[4]
     0x0DAF [0x02] IF !(Work_Zone[2] == 0*) GOTO 0x0DC1
     0x0DB7 [0x2B] Goccilo (ID: 17063961/0x01046019) [8839*]:
     "And would you look at that! Quite a battle is brewing in the tunnel!"
     0x0DBE [0x1C] WAIT(90* ticks)
     0x0DC1 [0x66] LOAD_EXT_SCHEDULER_MAIN: Load scheduler "tlk1" with entities [Goccilo (ID: 17063961/0x01046019), Goccilo (ID: 17063961/0x01046019)], work=69*
     0x0DD0 [0x5B] LOAD_EXT_SCHEDULER: Load scheduler "hi01" with entities [Sakura (ID: 17063964/0x0104601C), Sakura (ID: 17063964/0x0104601C)], work=872*
     0x0DDF [0x1C] WAIT(5* ticks)
     0x0DE2 [0x5B] LOAD_EXT_SCHEDULER: Load scheduler "1005" with entities [Sakura (ID: 17063964/0x0104601C), Sakura (ID: 17063964/0x0104601C)], work=224*
     0x0DF1 [0x2B] Sakura (ID: 17063964/0x0104601C) [8840*]:
     "$3s$3%3s$3%1I"
     0x0DF8 [0x1C] WAIT(60* ticks)
     0x0DFB [0x5B] LOAD_EXT_SCHEDULER: Load scheduler "tlk0" with entities [Markovich (ID: 17063963/0x0104601B), Markovich (ID: 17063963/0x0104601B)], work=60*
     0x0E0A [0x2B] Markovich (ID: 17063963/0x0104601B) [8841*]:
     "Sakura says, "The race ain't over until the fat chocobo sings.""
     0x0E11 [0x1C] WAIT(90* ticks)
     0x0E14 [0x5B] LOAD_EXT_SCHEDULER: Load scheduler "tlk1" with entities [Markovich (ID: 17063963/0x0104601B), Markovich (ID: 17063963/0x0104601B)], work=60*
     0x0E23 [0x45] LOAD_SCHEDULED_TASK: Load scheduler "kaof" with entities [Goccilo (ID: 17063961/0x01046019), Goccilo (ID: 17063961/0x01046019)], work=[191*, 0*]
     0x0E34 [0x45] LOAD_SCHEDULED_TASK: Load scheduler "fdo0" with entities [LocalPlayer, LocalPlayer], work=[200*, 0*]
     0x0E45 [0x55] WAIT_LOAD_SCHEDULER: Wait for scheduler "fdo0" with entities [LocalPlayer, LocalPlayer], work=200*
     0x0E54 [0x00] END_REQSTACK()
```

### Event 65535.25

#### Metadata

| Field        | Value     |
|--------------|-----------|
| Entrypoint   | 0x0E55    |
| Data Size    | 134 bytes |
| Instructions | 27        |

```
      00 01 02 03 04 05 06 07  08 09 0A 0B 0C 0D 0E 0F
      -- -- -- -- -- -- -- --  -- -- -- -- -- -- -- --
0E50:                2B 19 60  04 01 30 80 1C 09 80 03       +.`..0.....
0E60: 11 00 29 10 03 12 00 01  80 1A F3 14 02 02 10 20  ..)............ 
0E70: 80 00 90 0E 1A 24 18 03  03 10 3D 00 08 3D 00 20  .....$....=..=. 
0E80: 80 03 02 10 01 80 2B 19  60 04 01 31 80 01 A9 0E  ......+.`..1....
0E90: 02 02 10 34 10 00 A2 0E  2B 19 60 04 01 32 80 01  ...4....+.`..2..
0EA0: A9 0E 2B 19 60 04 01 33  80 1C 0D 80 02 00 17 20  ..+.`..3....... 
0EB0: 80 00 DA 0E 03 11 00 29  10 03 12 00 20 80 1A F3  .......).... ...
0EC0: 14 03 02 10 20 80 03 03  10 3E 00 03 05 10 26 80  .... ....>....&.
0ED0: 2B 19 60 04 01 34 80 1C  0D 80 00                 +.`..4.....     
```

#### Opcodes

```
  0: 0x0E55 [0x2B] Goccilo (ID: 17063961/0x01046019) [8857*]:
     "And now they're approaching the final corner!"
  1: 0x0E5C [0x1C] WAIT(60* ticks)
  2: 0x0E5F [0x03] ExtData[1]->WorkLocal[17] = Work_Zone[41]
  3: 0x0E64 [0x03] ExtData[1]->WorkLocal[18] = 0*
  4: 0x0E69 [0x1A] CALL_SUBROUTINE(address=0x14F3)
  5: 0x0E6C [0x02] IF !(Work_Zone[2] == 1*) GOTO 0x0E90
  6: 0x0E74 [0x1A] CALL_SUBROUTINE(address=0x1824)
  7: 0x0E77 [0x03] Work_Zone[3] = ExtData[1]->WorkLocal[61]
  8: 0x0E7C [0x08] ExtData[1]->WorkLocal[61] -= 1*
  9: 0x0E81 [0x03] Work_Zone[2] = 0*
 10: 0x0E86 [0x2B] Goccilo (ID: 17063961/0x01046019) [8858*]:
     "#$1 $0 still holds on to the lead. Can it take it all the way to the finish!?"
 11: 0x0E8D [0x01] GOTO 0x0EA9
 12: 0x0E90 [0x02] IF !(Work_Zone[2] == Work_Zone[52]) GOTO 0x0EA2
 13: 0x0E98 [0x2B] Goccilo (ID: 17063961/0x01046019) [8861*]:
     "It's crowded up front with all $0 chocobos still fighting for the lead!"
 14: 0x0E9F [0x01] GOTO 0x0EA9
 15: 0x0EA2 [0x2B] Goccilo (ID: 17063961/0x01046019) [8859*]:
     "It's crowded up front with $0 chocobos still fighting for the lead! Which one will break through!?"

SUBROUTINE_0EA9:
 16: 0x0EA9 [0x1C] WAIT(90* ticks)
 17: 0x0EAC [0x02] IF !(Work_Zone_1700[0] == 1*) GOTO 0x0EDA
 18: 0x0EB4 [0x03] ExtData[1]->WorkLocal[17] = Work_Zone[41]
 19: 0x0EB9 [0x03] ExtData[1]->WorkLocal[18] = 1*
 20: 0x0EBE [0x1A] CALL_SUBROUTINE(address=0x14F3)
 21: 0x0EC1 [0x03] Work_Zone[2] = 1*
 22: 0x0EC6 [0x03] Work_Zone[3] = ExtData[1]->WorkLocal[62]
 23: 0x0ECB [0x03] Work_Zone[5] = 3*
 24: 0x0ED0 [0x2B] Goccilo (ID: 17063961/0x01046019) [8860*]:
     "#$1 $3 is starting to lag behind! Does it have enough energy left to make that final dash for the cash!?"
 25: 0x0ED7 [0x1C] WAIT(90* ticks)
 26: 0x0EDA [0x00] END_REQSTACK()
```

### Event 65535.26

#### Metadata

| Field        | Value      |
|--------------|------------|
| Entrypoint   | 0x0EDB     |
| Data Size    | 1322 bytes |
| Instructions | 133        |

```
      00 01 02 03 04 05 06 07  08 09 0A 0B 0C 0D 0E 0F
      -- -- -- -- -- -- -- --  -- -- -- -- -- -- -- --
0ED0:                                   45 07 80 F0 FF             E....
0EE0: FF 7F F0 FF FF 7F 73 31  34 31 01 80 45 07 80 19  ......s141..E...
0EF0: 60 04 01 19 60 04 01 6B  61 6E 74 01 80 03 11 00  `...`..kant.....
0F00: 0E 80 03 12 00 01 80 1A  F3 14 41 01 80 26 80 3A  ..........A..&.:
0F10: 00 35 00 41 01 80 26 80  39 00 33 00 03 11 00 29  .5.A..&.9.3....)
0F20: 10 1A F3 14 41 01 80 26  80 39 00 34 00 02 35 00  ....A..&.9.4..5.
0F30: 20 80 00 DF 0F 02 33 00  34 00 00 92 0F 03 02 10   .....3.4.......
0F40: 20 80 1A FE 1D 07 43 00  20 80 03 03 10 43 00 03   .....C. ....C..
0F50: 02 10 01 80 2B 19 60 04  01 35 80 41 01 80 36 80  ....+.`..5.A..6.
0F60: 30 10 33 00 02 33 00 01  80 00 7B 0F 41 01 80 36  0.3..3....{.A..6
0F70: 80 30 10 33 00 1C 20 80  01 64 0F 03 02 10 20 80  .0.3.. ..d.... .
0F80: 1A 98 1F 03 02 10 01 80  2B 19 60 04 01 37 80 01  ........+.`..7..
0F90: DC 0F 03 02 10 20 80 1A  FE 1D 07 43 00 20 80 03  ..... .....C. ..
0FA0: 03 10 43 00 03 02 10 01  80 2B 19 60 04 01 38 80  ..C......+.`..8.
0FB0: 41 01 80 36 80 30 10 33  00 02 33 00 01 80 00 D0  A..6.0.3..3.....
0FC0: 0F 41 01 80 36 80 30 10  33 00 1C 20 80 01 B9 0F  .A..6.0.3.. ....
0FD0: 03 02 10 01 80 2B 19 60  04 01 39 80 01 31 10 03  .....+.`..9..1..
0FE0: 02 10 20 80 1A FE 1D 07  43 00 20 80 03 03 10 43  .. .....C. ....C
0FF0: 00 03 02 10 01 80 2B 19  60 04 01 35 80 41 01 80  ......+.`..5.A..
1000: 36 80 30 10 33 00 02 33  00 01 80 00 1D 10 41 01  6.0.3..3......A.
1010: 80 36 80 30 10 33 00 1C  20 80 01 06 10 03 02 10  .6.0.3.. .......
1020: 20 80 1A 98 1F 03 02 10  01 80 2B 19 60 04 01 37   .........+.`..7
1030: 80 BB 3A 80 F0 FF FF 7F  F0 FF FF 7F 6D 61 69 6E  ..:.........main
1040: 01 80 1C 11 80 BB 3B 80  11 60 04 01 11 60 04 01  ......;..`...`..
1050: 73 74 6F 70 01 80 BB 3B  80 12 60 04 01 12 60 04  stop...;..`...`.
1060: 01 73 74 6F 70 01 80 BB  3B 80 13 60 04 01 13 60  .stop...;..`...`
1070: 04 01 73 74 6F 70 01 80  BB 3B 80 14 60 04 01 14  ..stop...;..`...
1080: 60 04 01 73 74 6F 70 01  80 BB 3B 80 15 60 04 01  `..stop...;..`..
1090: 15 60 04 01 73 74 6F 70  01 80 BB 3B 80 16 60 04  .`..stop...;..`.
10A0: 01 16 60 04 01 73 74 6F  70 01 80 BB 3B 80 17 60  ..`..stop...;..`
10B0: 04 01 17 60 04 01 73 74  6F 70 01 80 BB 3B 80 18  ...`..stop...;..
10C0: 60 04 01 18 60 04 01 73  74 6F 70 01 80 52 07 80  `...`..stop..R..
10D0: F0 FF FF 7F F0 FF FF 7F  73 31 34 31 41 01 80 26  ........s141A..&
10E0: 80 25 10 03 10 02 03 10  01 80 00 41 11 45 07 80  .%.........A.E..
10F0: F0 FF FF 7F F0 FF FF 7F  73 31 34 32 01 80 BB 3C  ........s142...<
1100: 80 F0 FF FF 7F F0 FF FF  7F 73 74 61 74 01 80 45  .........stat..E
1110: 07 80 F0 FF FF 7F F0 FF  FF 7F 66 61 6E 31 01 80  ..........fan1..
1120: 55 07 80 F0 FF FF 7F F0  FF FF 7F 73 31 34 32 BB  U..........s142.
1130: 3C 80 F0 FF FF 7F F0 FF  FF 7F 73 74 6F 70 01 80  <.........stop..
1140: 00 41 3D 80 36 80 25 10  03 10 02 03 10 01 80 00  .A=.6.%.........
1150: A6 11 45 07 80 F0 FF FF  7F F0 FF FF 7F 73 32 30  ..E..........s20
1160: 34 01 80 BB 3C 80 F0 FF  FF 7F F0 FF FF 7F 73 74  4...<.........st
1170: 61 74 01 80 45 07 80 F0  FF FF 7F F0 FF FF 7F 66  at..E..........f
1180: 61 6E 31 01 80 55 07 80  F0 FF FF 7F F0 FF FF 7F  an1..U..........
1190: 73 32 30 34 BB 3C 80 F0  FF FF 7F F0 FF FF 7F 73  s204.<.........s
11A0: 74 6F 70 01 80 00 41 00  80 08 80 25 10 03 10 02  top...A....%....
11B0: 03 10 01 80 00 0B 12 45  07 80 F0 FF FF 7F F0 FF  .......E........
11C0: FF 7F 73 32 30 32 01 80  BB 3C 80 F0 FF FF 7F F0  ..s202...<......
11D0: FF FF 7F 73 74 61 74 01  80 45 07 80 F0 FF FF 7F  ...stat..E......
11E0: F0 FF FF 7F 66 61 6E 31  01 80 55 07 80 F0 FF FF  ....fan1..U.....
11F0: 7F F0 FF FF 7F 73 32 30  32 BB 3C 80 F0 FF FF 7F  .....s202.<.....
1200: F0 FF FF 7F 73 74 6F 70  01 80 00 41 0F 80 05 80  ....stop...A....
1210: 25 10 03 10 02 03 10 01  80 00 70 12 45 07 80 F0  %.........p.E...
1220: FF FF 7F F0 FF FF 7F 73  32 30 35 01 80 BB 3C 80  .......s205...<.
1230: F0 FF FF 7F F0 FF FF 7F  73 74 61 74 01 80 45 07  ........stat..E.
1240: 80 F0 FF FF 7F F0 FF FF  7F 66 61 6E 31 01 80 55  .........fan1..U
1250: 07 80 F0 FF FF 7F F0 FF  FF 7F 73 32 30 35 BB 3C  ..........s205.<
1260: 80 F0 FF FF 7F F0 FF FF  7F 73 74 6F 70 01 80 00  .........stop...
1270: 41 3E 80 2C 80 25 10 03  10 02 03 10 01 80 00 D5  A>.,.%..........
1280: 12 45 07 80 F0 FF FF 7F  F0 FF FF 7F 73 32 30 36  .E..........s206
1290: 01 80 BB 3C 80 F0 FF FF  7F F0 FF FF 7F 73 74 61  ...<.........sta
12A0: 74 01 80 45 07 80 F0 FF  FF 7F F0 FF FF 7F 66 61  t..E..........fa
12B0: 6E 31 01 80 55 07 80 F0  FF FF 7F F0 FF FF 7F 73  n1..U..........s
12C0: 32 30 36 BB 3C 80 F0 FF  FF 7F F0 FF FF 7F 73 74  206.<.........st
12D0: 6F 70 01 80 00 41 3F 80  3B 80 25 10 03 10 02 03  op...A?.;.%.....
12E0: 10 01 80 00 3A 13 45 07  80 F0 FF FF 7F F0 FF FF  ....:.E.........
12F0: 7F 73 32 30 37 01 80 BB  3C 80 F0 FF FF 7F F0 FF  .s207...<.......
1300: FF 7F 73 74 61 74 01 80  45 07 80 F0 FF FF 7F F0  ..stat..E.......
1310: FF FF 7F 66 61 6E 31 01  80 55 07 80 F0 FF FF 7F  ...fan1..U......
1320: F0 FF FF 7F 73 32 30 37  BB 3C 80 F0 FF FF 7F F0  ....s207.<......
1330: FF FF 7F 73 74 6F 70 01  80 00 41 29 80 40 80 25  ...stop...A).@.%
1340: 10 03 10 02 03 10 01 80  00 9F 13 45 07 80 F0 FF  ...........E....
1350: FF 7F F0 FF FF 7F 73 32  30 33 01 80 BB 3C 80 F0  ......s203...<..
1360: FF FF 7F F0 FF FF 7F 73  74 61 74 01 80 45 07 80  .......stat..E..
1370: F0 FF FF 7F F0 FF FF 7F  66 61 6E 31 01 80 55 07  ........fan1..U.
1380: 80 F0 FF FF 7F F0 FF FF  7F 73 32 30 33 BB 3C 80  .........s203.<.
1390: F0 FF FF 7F F0 FF FF 7F  73 74 6F 70 01 80 00 41  ........stop...A
13A0: 41 80 2A 80 25 10 03 10  02 03 10 01 80 00 04 14  A.*.%...........
13B0: 45 07 80 F0 FF FF 7F F0  FF FF 7F 73 32 30 38 01  E..........s208.
13C0: 80 BB 3C 80 F0 FF FF 7F  F0 FF FF 7F 73 74 61 74  ..<.........stat
13D0: 01 80 45 07 80 F0 FF FF  7F F0 FF FF 7F 66 61 6E  ..E..........fan
13E0: 31 01 80 55 07 80 F0 FF  FF 7F F0 FF FF 7F 73 32  1..U..........s2
13F0: 30 38 BB 3C 80 F0 FF FF  7F F0 FF FF 7F 73 74 6F  08.<.........sto
1400: 70 01 80 00 00                                    p....           
```

#### Opcodes

```
  0: 0x0EDB [0x45] LOAD_SCHEDULED_TASK: Load scheduler "s141" with entities [LocalPlayer, LocalPlayer], work=[191*, 0*]
  1: 0x0EEC [0x45] LOAD_SCHEDULED_TASK: Load scheduler "kant" with entities [Goccilo (ID: 17063961/0x01046019), Goccilo (ID: 17063961/0x01046019)], work=[191*, 0*]
  2: 0x0EFD [0x03] ExtData[1]->WorkLocal[17] = 30*
  3: 0x0F02 [0x03] ExtData[1]->WorkLocal[18] = 0*
  4: 0x0F07 [0x1A] CALL_SUBROUTINE(address=0x14F3)
  5: 0x0F0A [0x41] ExtData[1]->WorkLocal[53] = ExtData[1]->WorkLocal[58] (bits 0*-3*)
  6: 0x0F13 [0x41] ExtData[1]->WorkLocal[51] = ExtData[1]->WorkLocal[57] (bits 0*-3*)
  7: 0x0F1C [0x03] ExtData[1]->WorkLocal[17] = Work_Zone[41]
  8: 0x0F21 [0x1A] CALL_SUBROUTINE(address=0x14F3)
  9: 0x0F24 [0x41] ExtData[1]->WorkLocal[52] = ExtData[1]->WorkLocal[57] (bits 0*-3*)
 10: 0x0F2D [0x02] IF !(ExtData[1]->WorkLocal[53] == 1*) GOTO 0x0FDF
 11: 0x0F35 [0x02] IF !(ExtData[1]->WorkLocal[51] == ExtData[1]->WorkLocal[52]) GOTO 0x0F92
 12: 0x0F3D [0x03] Work_Zone[2] = 1*
 13: 0x0F42 [0x1A] CALL_SUBROUTINE(address=0x1DFE)
 14: 0x0F45 [0x07] ExtData[1]->WorkLocal[67] += 1*
 15: 0x0F4A [0x03] Work_Zone[3] = ExtData[1]->WorkLocal[67]
 16: 0x0F4F [0x03] Work_Zone[2] = 0*
 17: 0x0F54 [0x2B] Goccilo (ID: 17063961/0x01046019) [8863*]:
     "It doesn't look like anyone will be catching #$1 $0 today!"
 18: 0x0F5B [0x41] ExtData[1]->WorkLocal[51] = Work_Zone[48] (bits 0*-7*)
 19: 0x0F64 [0x02] IF !(ExtData[1]->WorkLocal[51] == 0*) GOTO 0x0F7B
 20: 0x0F6C [0x41] ExtData[1]->WorkLocal[51] = Work_Zone[48] (bits 0*-7*)
 21: 0x0F75 [0x1C] WAIT(1* ticks)
 22: 0x0F78 [0x01] GOTO 0x0F64
 23: 0x0F7B [0x03] Work_Zone[2] = 1*
 24: 0x0F80 [0x1A] CALL_SUBROUTINE(address=0x1F98)
 25: 0x0F83 [0x03] Work_Zone[2] = 0*
 26: 0x0F88 [0x2B] Goccilo (ID: 17063961/0x01046019) [8864*]:
     "And $0 takes the crown!"
 27: 0x0F8F [0x01] GOTO 0x0FDC
 28: 0x0F92 [0x03] Work_Zone[2] = 1*
 29: 0x0F97 [0x1A] CALL_SUBROUTINE(address=0x1DFE)
 30: 0x0F9A [0x07] ExtData[1]->WorkLocal[67] += 1*
 31: 0x0F9F [0x03] Work_Zone[3] = ExtData[1]->WorkLocal[67]
 32: 0x0FA4 [0x03] Work_Zone[2] = 0*
 33: 0x0FA9 [0x2B] Goccilo (ID: 17063961/0x01046019) [8865*]:
     "What's this? #$1 $0 is making its move on the lead!"
 34: 0x0FB0 [0x41] ExtData[1]->WorkLocal[51] = Work_Zone[48] (bits 0*-7*)

SUBROUTINE_0FB9:
 35: 0x0FB9 [0x02] IF !(ExtData[1]->WorkLocal[51] == 0*) GOTO 0x0FD0
 36: 0x0FC1 [0x41] ExtData[1]->WorkLocal[51] = Work_Zone[48] (bits 0*-7*)
 37: 0x0FCA [0x1C] WAIT(1* ticks)
 38: 0x0FCD [0x01] GOTO 0x0FB9
 39: 0x0FD0 [0x03] Work_Zone[2] = 0*
 40: 0x0FD5 [0x2B] Goccilo (ID: 17063961/0x01046019) [8866*]:
     "And it's $0 by a beak!!!"

SUBROUTINE_0FDC:
 41: 0x0FDC [0x01] GOTO 0x1031
 42: 0x0FDF [0x03] Work_Zone[2] = 1*
 43: 0x0FE4 [0x1A] CALL_SUBROUTINE(address=0x1DFE)
 44: 0x0FE7 [0x07] ExtData[1]->WorkLocal[67] += 1*
 45: 0x0FEC [0x03] Work_Zone[3] = ExtData[1]->WorkLocal[67]
 46: 0x0FF1 [0x03] Work_Zone[2] = 0*
 47: 0x0FF6 [0x2B] Goccilo (ID: 17063961/0x01046019) [8863*]:
     "It doesn't look like anyone will be catching #$1 $0 today!"
 48: 0x0FFD [0x41] ExtData[1]->WorkLocal[51] = Work_Zone[48] (bits 0*-7*)

SUBROUTINE_1006:
 49: 0x1006 [0x02] IF !(ExtData[1]->WorkLocal[51] == 0*) GOTO 0x101D
 50: 0x100E [0x41] ExtData[1]->WorkLocal[51] = Work_Zone[48] (bits 0*-7*)
 51: 0x1017 [0x1C] WAIT(1* ticks)
 52: 0x101A [0x01] GOTO 0x1006
 53: 0x101D [0x03] Work_Zone[2] = 1*
 54: 0x1022 [0x1A] CALL_SUBROUTINE(address=0x1F98)
 55: 0x1025 [0x03] Work_Zone[2] = 0*
 56: 0x102A [0x2B] Goccilo (ID: 17063961/0x01046019) [8864*]:
     "And $0 takes the crown!"

SUBROUTINE_1031:
 57: 0x1031 [0xBB] LOAD_EVENT_SCHEDULER_ALT: Load scheduler "main" with entities [LocalPlayer, LocalPlayer], work=[43*, 0*]
 58: 0x1042 [0x1C] WAIT(120* ticks)
 59: 0x1045 [0xBB] LOAD_EVENT_SCHEDULER_ALT: Load scheduler "stop" with entities [Unnamed NPC (ID: 17063953/0x01046011), Unnamed NPC (ID: 17063953/0x01046011)], work=[23*, 0*]
 60: 0x1056 [0xBB] LOAD_EVENT_SCHEDULER_ALT: Load scheduler "stop" with entities [Unnamed NPC (ID: 17063954/0x01046012), Unnamed NPC (ID: 17063954/0x01046012)], work=[23*, 0*]
 61: 0x1067 [0xBB] LOAD_EVENT_SCHEDULER_ALT: Load scheduler "stop" with entities [Unnamed NPC (ID: 17063955/0x01046013), Unnamed NPC (ID: 17063955/0x01046013)], work=[23*, 0*]
 62: 0x1078 [0xBB] LOAD_EVENT_SCHEDULER_ALT: Load scheduler "stop" with entities [Unnamed NPC (ID: 17063956/0x01046014), Unnamed NPC (ID: 17063956/0x01046014)], work=[23*, 0*]
 63: 0x1089 [0xBB] LOAD_EVENT_SCHEDULER_ALT: Load scheduler "stop" with entities [Unnamed NPC (ID: 17063957/0x01046015), Unnamed NPC (ID: 17063957/0x01046015)], work=[23*, 0*]
 64: 0x109A [0xBB] LOAD_EVENT_SCHEDULER_ALT: Load scheduler "stop" with entities [Unnamed NPC (ID: 17063958/0x01046016), Unnamed NPC (ID: 17063958/0x01046016)], work=[23*, 0*]
 65: 0x10AB [0xBB] LOAD_EVENT_SCHEDULER_ALT: Load scheduler "stop" with entities [Unnamed NPC (ID: 17063959/0x01046017), Unnamed NPC (ID: 17063959/0x01046017)], work=[23*, 0*]
 66: 0x10BC [0xBB] LOAD_EVENT_SCHEDULER_ALT: Load scheduler "stop" with entities [Unnamed NPC (ID: 17063960/0x01046018), Unnamed NPC (ID: 17063960/0x01046018)], work=[23*, 0*]
 67: 0x10CD [0x52] END_LOAD_SCHEDULER: End scheduler "s141" with entities [LocalPlayer, LocalPlayer], work=191*
 68: 0x10DC [0x41] Work_Zone[3] = Work_Zone[37] (bits 0*-3*)
 69: 0x10E5 [0x02] IF !(Work_Zone[3] == 0*) GOTO 0x1141
 70: 0x10ED [0x45] LOAD_SCHEDULED_TASK: Load scheduler "s142" with entities [LocalPlayer, LocalPlayer], work=[191*, 0*]
 71: 0x10FE [0xBB] LOAD_EVENT_SCHEDULER_ALT: Load scheduler "stat" with entities [LocalPlayer, LocalPlayer], work=[25*, 0*]
 72: 0x110F [0x45] LOAD_SCHEDULED_TASK: Load scheduler "fan1" with entities [LocalPlayer, LocalPlayer], work=[191*, 0*]
 73: 0x1120 [0x55] WAIT_LOAD_SCHEDULER: Wait for scheduler "s142" with entities [LocalPlayer, LocalPlayer], work=191*
 74: 0x112F [0xBB] LOAD_EVENT_SCHEDULER_ALT: Load scheduler "stop" with entities [LocalPlayer, LocalPlayer], work=[25*, 0*]
 75: 0x1140 [0x00] END_REQSTACK()
 76: 0x1141 [0x41] Work_Zone[3] = Work_Zone[37] (bits 4*-7*)
 77: 0x114A [0x02] IF !(Work_Zone[3] == 0*) GOTO 0x11A6
 78: 0x1152 [0x45] LOAD_SCHEDULED_TASK: Load scheduler "s204" with entities [LocalPlayer, LocalPlayer], work=[191*, 0*]
 79: 0x1163 [0xBB] LOAD_EVENT_SCHEDULER_ALT: Load scheduler "stat" with entities [LocalPlayer, LocalPlayer], work=[25*, 0*]
 80: 0x1174 [0x45] LOAD_SCHEDULED_TASK: Load scheduler "fan1" with entities [LocalPlayer, LocalPlayer], work=[191*, 0*]
 81: 0x1185 [0x55] WAIT_LOAD_SCHEDULER: Wait for scheduler "s204" with entities [LocalPlayer, LocalPlayer], work=191*
 82: 0x1194 [0xBB] LOAD_EVENT_SCHEDULER_ALT: Load scheduler "stop" with entities [LocalPlayer, LocalPlayer], work=[25*, 0*]
 83: 0x11A5 [0x00] END_REQSTACK()
 84: 0x11A6 [0x41] Work_Zone[3] = Work_Zone[37] (bits 8*-11*)
 85: 0x11AF [0x02] IF !(Work_Zone[3] == 0*) GOTO 0x120B
 86: 0x11B7 [0x45] LOAD_SCHEDULED_TASK: Load scheduler "s202" with entities [LocalPlayer, LocalPlayer], work=[191*, 0*]
 87: 0x11C8 [0xBB] LOAD_EVENT_SCHEDULER_ALT: Load scheduler "stat" with entities [LocalPlayer, LocalPlayer], work=[25*, 0*]
 88: 0x11D9 [0x45] LOAD_SCHEDULED_TASK: Load scheduler "fan1" with entities [LocalPlayer, LocalPlayer], work=[191*, 0*]
 89: 0x11EA [0x55] WAIT_LOAD_SCHEDULER: Wait for scheduler "s202" with entities [LocalPlayer, LocalPlayer], work=191*
 90: 0x11F9 [0xBB] LOAD_EVENT_SCHEDULER_ALT: Load scheduler "stop" with entities [LocalPlayer, LocalPlayer], work=[25*, 0*]
 91: 0x120A [0x00] END_REQSTACK()
 92: 0x120B [0x41] Work_Zone[3] = Work_Zone[37] (bits 12*-15*)
 93: 0x1214 [0x02] IF !(Work_Zone[3] == 0*) GOTO 0x1270
 94: 0x121C [0x45] LOAD_SCHEDULED_TASK: Load scheduler "s205" with entities [LocalPlayer, LocalPlayer], work=[191*, 0*]
 95: 0x122D [0xBB] LOAD_EVENT_SCHEDULER_ALT: Load scheduler "stat" with entities [LocalPlayer, LocalPlayer], work=[25*, 0*]
 96: 0x123E [0x45] LOAD_SCHEDULED_TASK: Load scheduler "fan1" with entities [LocalPlayer, LocalPlayer], work=[191*, 0*]
 97: 0x124F [0x55] WAIT_LOAD_SCHEDULER: Wait for scheduler "s205" with entities [LocalPlayer, LocalPlayer], work=191*
 98: 0x125E [0xBB] LOAD_EVENT_SCHEDULER_ALT: Load scheduler "stop" with entities [LocalPlayer, LocalPlayer], work=[25*, 0*]
 99: 0x126F [0x00] END_REQSTACK()
100: 0x1270 [0x41] Work_Zone[3] = Work_Zone[37] (bits 16*-19*)
101: 0x1279 [0x02] IF !(Work_Zone[3] == 0*) GOTO 0x12D5
102: 0x1281 [0x45] LOAD_SCHEDULED_TASK: Load scheduler "s206" with entities [LocalPlayer, LocalPlayer], work=[191*, 0*]
103: 0x1292 [0xBB] LOAD_EVENT_SCHEDULER_ALT: Load scheduler "stat" with entities [LocalPlayer, LocalPlayer], work=[25*, 0*]
104: 0x12A3 [0x45] LOAD_SCHEDULED_TASK: Load scheduler "fan1" with entities [LocalPlayer, LocalPlayer], work=[191*, 0*]
105: 0x12B4 [0x55] WAIT_LOAD_SCHEDULER: Wait for scheduler "s206" with entities [LocalPlayer, LocalPlayer], work=191*
106: 0x12C3 [0xBB] LOAD_EVENT_SCHEDULER_ALT: Load scheduler "stop" with entities [LocalPlayer, LocalPlayer], work=[25*, 0*]
107: 0x12D4 [0x00] END_REQSTACK()
108: 0x12D5 [0x41] Work_Zone[3] = Work_Zone[37] (bits 20*-23*)
109: 0x12DE [0x02] IF !(Work_Zone[3] == 0*) GOTO 0x133A
110: 0x12E6 [0x45] LOAD_SCHEDULED_TASK: Load scheduler "s207" with entities [LocalPlayer, LocalPlayer], work=[191*, 0*]
111: 0x12F7 [0xBB] LOAD_EVENT_SCHEDULER_ALT: Load scheduler "stat" with entities [LocalPlayer, LocalPlayer], work=[25*, 0*]
112: 0x1308 [0x45] LOAD_SCHEDULED_TASK: Load scheduler "fan1" with entities [LocalPlayer, LocalPlayer], work=[191*, 0*]
113: 0x1319 [0x55] WAIT_LOAD_SCHEDULER: Wait for scheduler "s207" with entities [LocalPlayer, LocalPlayer], work=191*
114: 0x1328 [0xBB] LOAD_EVENT_SCHEDULER_ALT: Load scheduler "stop" with entities [LocalPlayer, LocalPlayer], work=[25*, 0*]
115: 0x1339 [0x00] END_REQSTACK()
116: 0x133A [0x41] Work_Zone[3] = Work_Zone[37] (bits 24*-27*)
117: 0x1343 [0x02] IF !(Work_Zone[3] == 0*) GOTO 0x139F
118: 0x134B [0x45] LOAD_SCHEDULED_TASK: Load scheduler "s203" with entities [LocalPlayer, LocalPlayer], work=[191*, 0*]
119: 0x135C [0xBB] LOAD_EVENT_SCHEDULER_ALT: Load scheduler "stat" with entities [LocalPlayer, LocalPlayer], work=[25*, 0*]
120: 0x136D [0x45] LOAD_SCHEDULED_TASK: Load scheduler "fan1" with entities [LocalPlayer, LocalPlayer], work=[191*, 0*]
121: 0x137E [0x55] WAIT_LOAD_SCHEDULER: Wait for scheduler "s203" with entities [LocalPlayer, LocalPlayer], work=191*
122: 0x138D [0xBB] LOAD_EVENT_SCHEDULER_ALT: Load scheduler "stop" with entities [LocalPlayer, LocalPlayer], work=[25*, 0*]
123: 0x139E [0x00] END_REQSTACK()
124: 0x139F [0x41] Work_Zone[3] = Work_Zone[37] (bits 28*-31*)
125: 0x13A8 [0x02] IF !(Work_Zone[3] == 0*) GOTO 0x1404
126: 0x13B0 [0x45] LOAD_SCHEDULED_TASK: Load scheduler "s208" with entities [LocalPlayer, LocalPlayer], work=[191*, 0*]
127: 0x13C1 [0xBB] LOAD_EVENT_SCHEDULER_ALT: Load scheduler "stat" with entities [LocalPlayer, LocalPlayer], work=[25*, 0*]
128: 0x13D2 [0x45] LOAD_SCHEDULED_TASK: Load scheduler "fan1" with entities [LocalPlayer, LocalPlayer], work=[191*, 0*]
129: 0x13E3 [0x55] WAIT_LOAD_SCHEDULER: Wait for scheduler "s208" with entities [LocalPlayer, LocalPlayer], work=191*
130: 0x13F2 [0xBB] LOAD_EVENT_SCHEDULER_ALT: Load scheduler "stop" with entities [LocalPlayer, LocalPlayer], work=[25*, 0*]
131: 0x1403 [0x00] END_REQSTACK()
132: 0x1404 [0x00] END_REQSTACK()
```

### Event 65535.27

#### Metadata

| Field        | Value     |
|--------------|-----------|
| Entrypoint   | 0x1405    |
| Data Size    | 121 bytes |
| Instructions | 21        |

```
      00 01 02 03 04 05 06 07  08 09 0A 0B 0C 0D 0E 0F
      -- -- -- -- -- -- -- --  -- -- -- -- -- -- -- --
1400:                B4 01 13  00 01 80 B4 01 17 00 20       .......... 
1410: 80 B4 01 1B 00 02 80 B4  01 1F 00 26 80 3E 3B 10  ...........&.>;.
1420: 01 80 2E 14 C3 01 80 13  00 20 80 01 35 14 C3 01  ......... ..5...
1430: 80 13 00 01 80 3E 3B 10  20 80 46 14 C3 20 80 17  .....>;. .F.. ..
1440: 00 20 80 01 4D 14 C3 20  80 17 00 01 80 3E 3B 10  . ..M.. .....>;.
1450: 02 80 5E 14 C3 02 80 1B  00 20 80 01 65 14 C3 02  ..^...... ..e...
1460: 80 1B 00 01 80 3E 3B 10  26 80 76 14 C3 26 80 1F  .....>;.&.v..&..
1470: 00 20 80 01 7D 14 C3 26  80 1F 00 01 80 00        . ..}..&......  
```

#### Opcodes

```
  0: 0x1405 [0xB4] UI_WINDOW_STRING_HANDLER(case=0x01 - Copy string from event strings table, work_offset=ExtData[1]->WorkLocal[19], string_index=0*)
  1: 0x140B [0xB4] UI_WINDOW_STRING_HANDLER(case=0x01 - Copy string from event strings table, work_offset=ExtData[1]->WorkLocal[23], string_index=1*)
  2: 0x1411 [0xB4] UI_WINDOW_STRING_HANDLER(case=0x01 - Copy string from event strings table, work_offset=ExtData[1]->WorkLocal[27], string_index=2*)
  3: 0x1417 [0xB4] UI_WINDOW_STRING_HANDLER(case=0x01 - Copy string from event strings table, work_offset=ExtData[1]->WorkLocal[31], string_index=3*)
  4: 0x141D [0x3E] IF !(Work_Zone[59] bit 0*) GOTO 0x142E
  5: 0x1424 [0xC3] COPY_STRING_TO_ARRAY(array_index=0x8001, string_value=0x13, additional_value=0x8020)
  6: 0x142B [0x01] GOTO 0x1435
  7: 0x142E [0xC3] COPY_STRING_TO_ARRAY(array_index=0x8001, string_value=0x13, additional_value=0x8001)

SUBROUTINE_1435:
  8: 0x1435 [0x3E] IF !(Work_Zone[59] bit 1*) GOTO 0x1446
  9: 0x143C [0xC3] COPY_STRING_TO_ARRAY(array_index=0x8020, string_value=0x17, additional_value=0x8020)
 10: 0x1443 [0x01] GOTO 0x144D
 11: 0x1446 [0xC3] COPY_STRING_TO_ARRAY(array_index=0x8020, string_value=0x17, additional_value=0x8001)

SUBROUTINE_144D:
 12: 0x144D [0x3E] IF !(Work_Zone[59] bit 2*) GOTO 0x145E
 13: 0x1454 [0xC3] COPY_STRING_TO_ARRAY(array_index=0x8002, string_value=0x1B, additional_value=0x8020)
 14: 0x145B [0x01] GOTO 0x1465
 15: 0x145E [0xC3] COPY_STRING_TO_ARRAY(array_index=0x8002, string_value=0x1B, additional_value=0x8001)

SUBROUTINE_1465:
 16: 0x1465 [0x3E] IF !(Work_Zone[59] bit 3*) GOTO 0x1476
 17: 0x146C [0xC3] COPY_STRING_TO_ARRAY(array_index=0x8026, string_value=0x1F, additional_value=0x8020)
 18: 0x1473 [0x01] GOTO 0x147D
 19: 0x1476 [0xC3] COPY_STRING_TO_ARRAY(array_index=0x8026, string_value=0x1F, additional_value=0x8001)

SUBROUTINE_147D:
 20: 0x147D [0x00] END_REQSTACK()
```

### Event 65535.28

#### Metadata

| Field        | Value    |
|--------------|----------|
| Entrypoint   | 0x147E   |
| Data Size    | 97 bytes |
| Instructions | 17       |

```
      00 01 02 03 04 05 06 07  08 09 0A 0B 0C 0D 0E 0F
      -- -- -- -- -- -- -- --  -- -- -- -- -- -- -- --
1470:                                            B4 01                ..
1480: 23 00 01 80 B4 01 27 00  20 80 B4 01 2B 00 02 80  #.....'. ...+...
1490: B4 01 2F 00 26 80 3E 3B  10 0B 80 A7 14 C3 20 80  ../.&.>;...... .
14A0: 27 00 20 80 01 AE 14 C3  20 80 27 00 01 80 3E 3B  '. ..... .'...>;
14B0: 10 42 80 BF 14 C3 02 80  2B 00 20 80 01 C6 14 C3  .B......+. .....
14C0: 02 80 2B 00 01 80 3E 3B  10 36 80 D7 14 C3 26 80  ..+...>;.6....&.
14D0: 2F 00 20 80 01 DE 14 C3  26 80 2F 00 01 80 00     /. .....&./.... 
```

#### Opcodes

```
  0: 0x147E [0xB4] UI_WINDOW_STRING_HANDLER(case=0x01 - Copy string from event strings table, work_offset=ExtData[1]->WorkLocal[35], string_index=0*)
  1: 0x1484 [0xB4] UI_WINDOW_STRING_HANDLER(case=0x01 - Copy string from event strings table, work_offset=ExtData[1]->WorkLocal[39], string_index=1*)
  2: 0x148A [0xB4] UI_WINDOW_STRING_HANDLER(case=0x01 - Copy string from event strings table, work_offset=ExtData[1]->WorkLocal[43], string_index=2*)
  3: 0x1490 [0xB4] UI_WINDOW_STRING_HANDLER(case=0x01 - Copy string from event strings table, work_offset=ExtData[1]->WorkLocal[47], string_index=3*)
  4: 0x1496 [0x3E] IF !(Work_Zone[59] bit 5*) GOTO 0x14A7
  5: 0x149D [0xC3] COPY_STRING_TO_ARRAY(array_index=0x8020, string_value=0x27, additional_value=0x8020)
  6: 0x14A4 [0x01] GOTO 0x14AE
  7: 0x14A7 [0xC3] COPY_STRING_TO_ARRAY(array_index=0x8020, string_value=0x27, additional_value=0x8001)

SUBROUTINE_14AE:
  8: 0x14AE [0x3E] IF !(Work_Zone[59] bit 6*) GOTO 0x14BF
  9: 0x14B5 [0xC3] COPY_STRING_TO_ARRAY(array_index=0x8002, string_value=0x2B, additional_value=0x8020)
 10: 0x14BC [0x01] GOTO 0x14C6
 11: 0x14BF [0xC3] COPY_STRING_TO_ARRAY(array_index=0x8002, string_value=0x2B, additional_value=0x8001)

SUBROUTINE_14C6:
 12: 0x14C6 [0x3E] IF !(Work_Zone[59] bit 7*) GOTO 0x14D7
 13: 0x14CD [0xC3] COPY_STRING_TO_ARRAY(array_index=0x8026, string_value=0x2F, additional_value=0x8020)
 14: 0x14D4 [0x01] GOTO 0x14DE
 15: 0x14D7 [0xC3] COPY_STRING_TO_ARRAY(array_index=0x8026, string_value=0x2F, additional_value=0x8001)

SUBROUTINE_14DE:
 16: 0x14DE [0x00] END_REQSTACK()
```

### Event 65535.29

#### Metadata

| Field        | Value      |
|--------------|------------|
| Entrypoint   | 0x14DF     |
| Data Size    | 3155 bytes |
| Instructions | 8          |

```
      00 01 02 03 04 05 06 07  08 09 0A 0B 0C 0D 0E 0F
      -- -- -- -- -- -- -- --  -- -- -- -- -- -- -- --
14D0:                                               03                 .
14E0: 11 00 29 10 03 12 00 01  80 1A F3 14 48 43 80 48  ..).........HC.H
14F0: 44 80 00 BF 40 01 80 11  00 01 80 00 00 02 12 00  D...@...........
1500: 01 80 00 AD 15 03 39 00  45 80 06 36 00 06 37 00  ......9.E..6..7.
1510: 06 3B 00 06 03 00 02 36  00 3E 80 03 AA 15 06 38  .;.....6.>.....8
1520: 00 06 3A 00 02 38 00 34  10 03 7A 15 03 0D 00 38  ..:..8.4..z....8
1530: 00 14 0D 00 3D 80 03 0E  00 0D 00 07 0E 00 26 80  ....=.........&.
1540: 41 0D 00 0E 00 00 00 3C  00 02 3C 00 36 00 00 74  A......<..<.6..t
1550: 15 03 0F 00 37 00 14 0F  00 3D 80 03 10 00 0F 00  ....7....=......
1560: 07 10 00 26 80 40 0F 00  10 00 39 00 38 00 0B 37  ...&.@....9.8..7
1570: 00 0B 3A 00 0B 38 00 01  24 15 02 3A 00 01 80 02  ..:..8..$..:....
1580: A4 15 03 0F 00 3B 00 14  0F 00 3D 80 03 10 00 0F  .....;....=.....
1590: 00 07 10 00 26 80 40 0F  00 10 00 03 00 3A 00 07  ....&.@......:..
15A0: 3B 00 3A 00 0B 36 00 01  16 15 01 54 16 03 39 00  ;.:..6.....T..9.
15B0: 45 80 03 36 00 05 80 06  37 00 06 3B 00 06 03 00  E..6....7..;....
15C0: 02 36 00 01 80 04 54 16  06 38 00 06 3A 00 02 38  .6....T..8..:..8
15D0: 00 34 10 03 24 16 03 0D  00 38 00 14 0D 00 3D 80  .4..$....8....=.
15E0: 03 0E 00 0D 00 07 0E 00  26 80 41 0D 00 0E 00 00  ........&.A.....
15F0: 00 3C 00 02 3C 00 36 00  00 1E 16 03 0F 00 37 00  .<..<.6.......7.
1600: 14 0F 00 3D 80 03 10 00  0F 00 07 10 00 26 80 40  ...=.........&.@
1610: 0F 00 10 00 39 00 38 00  0B 37 00 0B 3A 00 0B 38  ....9.8..7..:..8
1620: 00 01 CE 15 02 3A 00 01  80 02 4E 16 03 0F 00 3B  .....:....N....;
1630: 00 14 0F 00 3D 80 03 10  00 0F 00 07 10 00 26 80  ....=.........&.
1640: 40 0F 00 10 00 03 00 3A  00 07 3B 00 3A 00 0C 36  @......:..;.:..6
1650: 00 01 C0 15 41 01 80 26  80 39 00 02 10 03 3D 00  ....A..&.9....=.
1660: 02 10 07 3D 00 20 80 06  03 10 1A F3 16 41 3D 80  ...=. .......A=.
1670: 36 80 39 00 02 10 03 03  10 20 80 1A F3 16 41 00  6.9...... ....A.
1680: 80 08 80 39 00 02 10 03  03 10 02 80 1A F3 16 41  ...9...........A
1690: 0F 80 05 80 39 00 02 10  03 3E 00 02 10 07 3E 00  ....9....>....>.
16A0: 20 80 03 03 10 26 80 1A  F3 16 41 41 80 2A 80 03   ....&....AA.*..
16B0: 00 09 10 41 29 80 40 80  03 00 08 10 41 3F 80 3B  ...A).@.....A?.;
16C0: 80 03 00 07 10 41 3E 80  2C 80 03 00 06 10 41 0F  .....A>.,.....A.
16D0: 80 05 80 03 00 05 10 41  00 80 08 80 03 00 04 10  .......A........
16E0: 41 3D 80 36 80 03 00 03  10 41 01 80 26 80 03 00  A=.6.....A..&...
16F0: 02 10 1B 02 02 10 01 80  00 19 17 B4 04 13 00 03  ................
1700: 10 3E 3B 10 01 80 12 17  C3 03 10 13 00 20 80 01  .>;.......... ..
1710: 19 17 C3 03 10 13 00 01  80 02 02 10 20 80 00 3F  ............ ..?
1720: 17 B4 04 17 00 03 10 3E  3B 10 20 80 38 17 C3 03  .......>;. .8...
1730: 10 17 00 20 80 01 3F 17  C3 03 10 17 00 01 80 02  ... ..?.........
1740: 02 10 02 80 00 65 17 B4  04 1B 00 03 10 3E 3B 10  .....e.......>;.
