# 17064072 - Fhaht Beablrucch

## Common Data

| Field            | Value                    |
|------------------|--------------------------|
| Zone             | Chocobo Circuit (ID: 70) |
| Block Size       | 4544 bytes               |
| Total Events     | 9                        |
| References Count | 238                      |

## List of Events

| Event ID              | Entrypoint   |   Size |   Instructions |
|-----------------------|--------------|--------|----------------|
| [65535](#event-65535) | 0x0000       |      1 |              1 |
| [214](#event-214)     | 0x0001       |   3499 |            753 |
| [219](#event-219)     | 0x0DAC       |     14 |              6 |
| [234](#event-234)     | 0x0DBA       |     14 |              6 |
| [223](#event-223)     | 0x0DC8       |      5 |              3 |
| [213](#event-213)     | 0x0DCD       |      1 |              1 |
| [212](#event-212)     | 0x0DCE       |      1 |              1 |
| [215](#event-215)     | 0x0DCF       |      1 |              1 |
| [228](#event-228)     | 0x0DD0       |      1 |              1 |

## DAT References (imed_data)

|   Index | Hex Value   |   Dec Value |
|---------|-------------|-------------|
|       0 | 0x0000      |           0 |
|       1 | 0x0008      |           8 |
|       2 | 0x0012      |          18 |
|       3 | 0x0017      |          23 |
|       4 | 0x0011      |          17 |
|       5 | 0x001E      |          30 |
|       6 | 0x24DB      |        9435 |
|       7 | 0x24DC      |        9436 |
|       8 | 0x2326      |        8998 |
|       9 | 0x0001      |           1 |
|      10 | 0x0002      |           2 |
|      11 | 0x0003      |           3 |
|      12 | 0x0004      |           4 |
|      13 | 0x0005      |           5 |
|      14 | 0x0006      |           6 |
|      15 | 0x0007      |           7 |
|      16 | 0x24E0      |        9440 |
|      17 | 0x00C8      |         200 |
|      18 | 0x0120      |         288 |
|      19 | 0x003C      |          60 |
|      20 | 0x005A      |          90 |
|      21 | 0xFFFFFFFF  |  4294967295 |
|      22 | 0x24EF      |        9455 |
|      23 | 0x24FA      |        9466 |
|      24 | 0x24F9      |        9465 |
|      25 | 0x0009      |           9 |
|      26 | 0x001B      |          27 |
|      27 | 0x0019      |          25 |
|      28 | 0x0010      |          16 |
|      29 | 0x0018      |          24 |
|      30 | 0x0013      |          19 |
|      31 | 0xFFFF3310  |  4294914832 |
|      32 | 0xFFFEC620  |  4294886944 |
|      33 | 0x0830      |        2096 |
|      34 | 0x000F      |          15 |
|      35 | 0x00DF      |         223 |
|      36 | 0x0023      |          35 |
|      37 | 0x0090      |         144 |
|      38 | 0x24DD      |        9437 |
|      39 | 0x24DF      |        9439 |
|      40 | 0x24DE      |        9438 |
|      41 | 0x0020      |          32 |
|      42 | 0x001F      |          31 |
|      43 | 0x232A      |        9002 |
|      44 | 0x0014      |          20 |
|      45 | 0x000C      |          12 |
|      46 | 0x000D      |          13 |
|      47 | 0x232B      |        9003 |
|      48 | 0x0078      |         120 |
|      49 | 0x250A      |        9482 |
|      50 | 0x24E1      |        9441 |
|      51 | 0x24E2      |        9442 |
|      52 | 0x24E3      |        9443 |
|      53 | 0x24E4      |        9444 |
|      54 | 0x24E5      |        9445 |
|      55 | 0x000A      |          10 |
|      56 | 0x24E6      |        9446 |
|      57 | 0x24E7      |        9447 |
|      58 | 0x24E8      |        9448 |
|      59 | 0x03E7      |         999 |
|      60 | 0x24ED      |        9453 |
|      61 | 0x24EB      |        9451 |
|      62 | 0x24EC      |        9452 |
|      63 | 0x0064      |         100 |
|      64 | 0x24E9      |        9449 |
|      65 | 0x000B      |          11 |
|      66 | 0x0016      |          22 |
|      67 | 0x24EA      |        9450 |
|      68 | 0x2503      |        9475 |
|      69 | 0x24F0      |        9456 |
|      70 | 0x24F1      |        9457 |
|      71 | 0x24F2      |        9458 |
|      72 | 0x24F3      |        9459 |
|      73 | 0x24F4      |        9460 |
|      74 | 0x24F5      |        9461 |
|      75 | 0x24F6      |        9462 |
|      76 | 0x24F7      |        9463 |
|      77 | 0x24F8      |        9464 |
|      78 | 0x0028      |          40 |
|      79 | 0x002D      |          45 |
|      80 | 0x0032      |          50 |
|      81 | 0x01F4      |         500 |
|      82 | 0x03E8      |        1000 |
|      83 | 0x05DC      |        1500 |
|      84 | 0x0BB8      |        3000 |
|      85 | 0x1388      |        5000 |
|      86 | 0x157C      |        5500 |
|      87 | 0x1770      |        6000 |
|      88 | 0x1964      |        6500 |
|      89 | 0x1B58      |        7000 |
|      90 | 0x1D4C      |        7500 |
|      91 | 0x1F40      |        8000 |
|      92 | 0x2134      |        8500 |
|      93 | 0x2328      |        9000 |
|      94 | 0x2710      |       10000 |
|      95 | 0x0037      |          55 |
|      96 | 0x0041      |          65 |
|      97 | 0x0046      |          70 |
|      98 | 0x004B      |          75 |
|      99 | 0x0050      |          80 |
|     100 | 0x0055      |          85 |
|     101 | 0x000E      |          14 |
|     102 | 0x0096      |         150 |
|     103 | 0x012C      |         300 |
|     104 | 0x0190      |         400 |
|     105 | 0x0258      |         600 |
|     106 | 0x0320      |         800 |
|     107 | 0x07D0      |        2000 |
|     108 | 0x09C4      |        2500 |
|     109 | 0x0DAC      |        3500 |
|     110 | 0x0FA0      |        4000 |
|     111 | 0x1194      |        4500 |
|     112 | 0x251C      |        9500 |
|     113 | 0x2AF8      |       11000 |
|     114 | 0x2EE0      |       12000 |
|     115 | 0x32C8      |       13000 |
|     116 | 0x36B0      |       14000 |
|     117 | 0x3A98      |       15000 |
|     118 | 0x3E80      |       16000 |
|     119 | 0x4268      |       17000 |
|     120 | 0x4650      |       18000 |
|     121 | 0x4A38      |       19000 |
|     122 | 0x4E20      |       20000 |
|     123 | 0x55F0      |       22000 |
|     124 | 0x5DC0      |       24000 |
|     125 | 0x6590      |       26000 |
|     126 | 0x6D60      |       28000 |
|     127 | 0x7530      |       30000 |
|     128 | 0x7D00      |       32000 |
|     129 | 0x84D0      |       34000 |
|     130 | 0x8CA0      |       36000 |
|     131 | 0x9470      |       38000 |
|     132 | 0x9C40      |       40000 |
|     133 | 0xA410      |       42000 |
|     134 | 0xABE0      |       44000 |
|     135 | 0xB3B0      |       46000 |
|     136 | 0xBB80      |       48000 |
|     137 | 0xC350      |       50000 |
|     138 | 0xD6D8      |       55000 |
|     139 | 0xEA60      |       60000 |
|     140 | 0xFDE8      |       65000 |
|     141 | 0x11170     |       70000 |
|     142 | 0x124F8     |       75000 |
|     143 | 0x13880     |       80000 |
|     144 | 0x14C08     |       85000 |
|     145 | 0x15F90     |       90000 |
|     146 | 0x17318     |       95000 |
|     147 | 0x186A0     |      100000 |
|     148 | 0x0955      |        2389 |
|     149 | 0x0956      |        2390 |
|     150 | 0x0957      |        2391 |
|     151 | 0x0958      |        2392 |
|     152 | 0x0959      |        2393 |
|     153 | 0x095A      |        2394 |
|     154 | 0x095B      |        2395 |
|     155 | 0x095C      |        2396 |
|     156 | 0x095D      |        2397 |
|     157 | 0x095E      |        2398 |
|     158 | 0x095F      |        2399 |
|     159 | 0x0960      |        2400 |
|     160 | 0x0961      |        2401 |
|     161 | 0x00FF      |         255 |
|     162 | 0x2506      |        9478 |
|     163 | 0x2507      |        9479 |
|     164 | 0x24FD      |        9469 |
|     165 | 0x24FE      |        9470 |
|     166 | 0x24FF      |        9471 |
|     167 | 0x2500      |        9472 |
|     168 | 0x2508      |        9480 |
|     169 | 0x2509      |        9481 |
|     170 | 0x2501      |        9473 |
|     171 | 0x2502      |        9474 |
|     172 | 0x251D      |        9501 |
|     173 | 0x251F      |        9503 |
|     174 | 0x2521      |        9505 |
|     175 | 0x2523      |        9507 |
|     176 | 0x2525      |        9509 |
|     177 | 0x2527      |        9511 |
|     178 | 0x2529      |        9513 |
|     179 | 0x252B      |        9515 |
|     180 | 0x252D      |        9517 |
|     181 | 0x252F      |        9519 |
|     182 | 0x2531      |        9521 |
|     183 | 0x2533      |        9523 |
|     184 | 0x2535      |        9525 |
|     185 | 0x2537      |        9527 |
|     186 | 0x2539      |        9529 |
|     187 | 0x253B      |        9531 |
|     188 | 0x253D      |        9533 |
|     189 | 0x253F      |        9535 |
|     190 | 0x2541      |        9537 |
|     191 | 0x2543      |        9539 |
|     192 | 0x2545      |        9541 |
|     193 | 0x2547      |        9543 |
|     194 | 0x2549      |        9545 |
|     195 | 0x254B      |        9547 |
|     196 | 0x254D      |        9549 |
|     197 | 0x254F      |        9551 |
|     198 | 0x2551      |        9553 |
|     199 | 0x2553      |        9555 |
|     200 | 0x2555      |        9557 |
|     201 | 0x2557      |        9559 |
|     202 | 0x2559      |        9561 |
|     203 | 0x255B      |        9563 |
|     204 | 0x255D      |        9565 |
|     205 | 0x255F      |        9567 |
|     206 | 0x2561      |        9569 |
|     207 | 0x2563      |        9571 |
|     208 | 0x2565      |        9573 |
|     209 | 0x2567      |        9575 |
|     210 | 0x2569      |        9577 |
|     211 | 0x256B      |        9579 |
|     212 | 0x256D      |        9581 |
|     213 | 0x256F      |        9583 |
|     214 | 0x2571      |        9585 |
|     215 | 0x2573      |        9587 |
|     216 | 0x2575      |        9589 |
|     217 | 0x2577      |        9591 |
|     218 | 0x2579      |        9593 |
|     219 | 0x257B      |        9595 |
|     220 | 0x257D      |        9597 |
|     221 | 0x257F      |        9599 |
|     222 | 0x2581      |        9601 |
|     223 | 0x2583      |        9603 |
|     224 | 0x2585      |        9605 |
|     225 | 0x2587      |        9607 |
|     226 | 0x2589      |        9609 |
|     227 | 0x258B      |        9611 |
|     228 | 0x258D      |        9613 |
|     229 | 0x258F      |        9615 |
|     230 | 0x2591      |        9617 |
|     231 | 0x2593      |        9619 |
|     232 | 0x2595      |        9621 |
|     233 | 0x2597      |        9623 |
|     234 | 0x2599      |        9625 |
|     235 | 0x259B      |        9627 |
|     236 | 0x24FB      |        9467 |
|     237 | 0x24FC      |        9468 |

## String References

- **8998**: Please select chocobo: [Entry No. 1./Entry No. 2./Entry No. 3./Entry No. 4./Entry No. 5./Entry No. 6./Entry No. 7./Entry No. 8./Quit./Return.]
- **9002**: Strength: [Poor/Substandard/A bit deficient/Average/Better than average/Impressive/Outstanding/First-class] Endurance: [Poor/Substandard/A bit deficient/Average/Better than average/Impressive/Outstanding/First-class] Discernment: [Poor/Substandard/A bit deficient/Average/Better than average/Impressive/Outstanding/First-class] Receptivity: [Poor/Substandard/A bit deficient/Average/Better than average/Impressive/Outstanding/First-class]
- **9003**: Weather: Prefers: [Clear days/Hot, sunny days/Rainy days/Sandstorms/Windy days/Snowy days/Thunderstorms/Auroras/Dark days/None/Cloudy days] Dislikes: [None/Rainy days/Thunderstorms/Windy days/Snowy days/Hot, sunny days/Sandstorms/Dark days/Auroras/None/None] Abilities: [None/Gallop/Canter/Burrow/Bore/Auto-Regen/Treasure Finder][/ & Gallop/ & Canter/ & Burrow/ & Bore/ & Auto-Regen/ & Treasure Finder]
- **9435**: I am currently accepting chocobets for the following race:
- **9436**: What would you like to do? [Visit the paddock./See a list of the chocobos./Check the toteboard./Purchase a chocobet ticket./Get an explanation./Quit.]
- **9437**: Entry No. $0 \` %1 \`
- **9438**: Affiliation: [None/San d'Oria/Bastok/Windurst] Gender: [Male/Female] Orders: [Sprint/Keep Pace/Final Spurt] Equipment: $3
- **9439**: Affiliation: [None/San d'Oria/Bastok/Windurst] Gender: [Male/Female] Orders: [Sprint/Keep Pace/Final Spurt] Equipment: None
- **9440**: The weather forecast for today's race calls for [-/clear skies/cloudy skies/-/a heat wave/-/rain/-/sandstorms/-/wind/-/snow/-/thunderstorms/-/Auroras/-/dark skies/-].
- **9441**: The current odds are as follows:
- **9442**: Please select the two chocobos that you think will place first and second.
- **9443**: [First/Second]:
- **9444**: Which chocobo would you like to select? [Entry No. 1./Entry No. 2./Entry No. 3./Entry No. 4./Entry No. 5./Entry No. 6./Entry No. 7./Entry No. 8./Quit./Return.]
- **9445**: I'm sorry, [sir/ma'am], but you have already selected that chocobo.
- **9446**: You have selected Entries No. $0 and No. $1. This pairing will pay back $2 gil on each quill.
- **9447**: Proceed? [Yes./No.]
- **9448**: Your chocobet ticket will cost 100 gil per quill. How many quills would you like to purchase?
- **9449**: $1 [quill/quills] brings your total to $2 gil. Would you care to proceed?
- **9450**: Best of luck! Thank you for your patronage.
- **9451**: Are you having second thoughts?
- **9452**: Cancel your bet? [Yes, this doesn't feel right.../No, no, no! Let it ride!]
- **9453**: You can only purchase up to 999 quills on a single chocobet ticket.
- **9455**: I'm sorry, [sir/ma'am], but I am currently not accepting chocobets.
- **9456**: What topic would you like clarification on? [Chocobet tickets./Winnings./Quit./Return.]
- **9457**: When purchasing a chocobet ticket, you will be asked to place a quinella bet. This means that you will choose the two chocobos that you think will place first and second. If you are lucky enough to win, you may then exchange the ticket and collect your winnings.
- **9458**: In our current chocobet system, as long as your two picks finish in the top two, the order doesn't matter.
- **9459**: The size of a chocobet ticket is measured in quills. One quill costs 100 gil, and a single ticket can contain up to 999 quills. Try it once, and you'll get hooked for sure!
- **9460**: You can stand to make quite a profit if you buy a chocobet ticket and it hits!
- **9461**: The fewer the bettors who have selected the same chocobos as you, the greater your winnings will be! In the industry, we call those the "odds."
- **9462**: You can always check the current odds when you place a chocobet. However, the odds are always apt to change right up until the chocobet window closes for that race. So be careful!
- **9463**: To collect your winnings, simply bring your chocobet ticket back to any of us here at the betting center.
- **9464**: However, you should know that a winning chocobet ticket is only valid for one week following completion of the race. After that, it will expire, so be sure to cash it in before then!
- **9465**: Attention, bettors! Only $0 [minute/minutes] remaining to place your chocobets!
- **9466**: Attention, bettors! Last call! Last call for chocobets!
- **9467**: I'm sorry, [sir/ma'am], but we are currently not accepting chocobets.
- **9468**: Bettors may now cash in their chocobet tickets. Please come forward with your winning stubs.
- **9469**: This chocobet ticket is worth $0 gil. Would you like to cash it in now?
- **9470**: Collect your winnings? [Yes./No.]
- **9471**: Very well. Here is your ticket back then, [sir/ma'am]. Next!
- **9472**: Unfortunately, this is what we call a "losing ticket." More specifically, the chocobos you selected didn't win. Better luck next time!
- **9473**: The one-week grace period on your chocobet ticket has expired. Regrettably, we are unable to cash you out...
- **9474**: The outcome of that race is not yet decided. Please come back after the race is finished. Good luck!
- **9475**: Unfortunately, there was an error in the processing of your chocobet. Please place your bet again.
- **9478**: You wish to inquire as to the status of your chocobet ticket? Very well; one moment, please.
- **9479**: The results for that race are in. The top two chocobos were No. $1 and No. $2.
- **9480**: Would you like me to process your chocobet ticket?
- **9481**: Have your ticket processed? [Yes, please./Not now, thank you.]
- **9482**: The following is a list of the chocobos entered in the race.

## Events

### Event 65535

#### Metadata

| Field        | Value   |
|--------------|---------|
| Entrypoint   | 0x0000  |
| Data Size    | 1 bytes |
| Instructions | 1       |

```
      00 01 02 03 04 05 06 07  08 09 0A 0B 0C 0D 0E 0F
      -- -- -- -- -- -- -- --  -- -- -- -- -- -- -- --
0000: 00                                                .               
```

#### Opcodes

```
  0: 0x0000 [0x00] END_REQSTACK()
```

### Event 214

#### Metadata

| Field        | Value      |
|--------------|------------|
| Entrypoint   | 0x0001     |
| Data Size    | 3499 bytes |
| Instructions | 420        |

```
      00 01 02 03 04 05 06 07  08 09 0A 0B 0C 0D 0E 0F
      -- -- -- -- -- -- -- --  -- -- -- -- -- -- -- --
0000:    03 01 10 00 80 38 01  80 41 02 80 03 80 02 10   .....8..A......
0010: 11 00 41 00 80 04 80 02  10 12 00 03 03 00 03 10  ..A.............
0020: 03 04 00 04 10 03 05 00  05 10 03 06 00 06 10 03  ................
0030: 0C 00 08 10 03 14 00 09  10 1E F0 FF FF 7F 1C 05  ................
0040: 80 1D 06 80 23 03 02 10  12 00 9D 00 2C 0D 11 00  ....#.......,...
0050: 11 00 1D 11 00 23 2E 24  07 80 00 80 00 80 25 02  .....#.$......%.
0060: 00 10 00 80 00 8B 04 42  06 00 00 03 01 00 01 80  .......B........
0070: 02 00 00 00 80 00 87 04  24 08 80 00 80 00 80 25  ........$......%
0080: 02 00 10 00 80 00 90 00  03 01 00 00 80 01 95 02  ................
0090: 02 00 10 09 80 00 A0 00  03 01 00 09 80 01 95 02  ................
00A0: 02 00 10 0A 80 00 B0 00  03 01 00 0A 80 01 95 02  ................
00B0: 02 00 10 0B 80 00 C0 00  03 01 00 0B 80 01 95 02  ................
00C0: 02 00 10 0C 80 00 D0 00  03 01 00 0C 80 01 95 02  ................
00D0: 02 00 10 0D 80 00 E0 00  03 01 00 0D 80 01 95 02  ................
00E0: 02 00 10 0E 80 00 F0 00  03 01 00 0E 80 01 95 02  ................
00F0: 02 00 10 0F 80 00 00 01  03 01 00 0F 80 01 95 02  ................
0100: 02 00 10 01 80 00 D7 01  02 01 00 01 80 00 13 01  ................
0110: 01 29 01 02 0C 00 00 80  00 20 01 03 0C 00 09 80  .)....... ......
0120: 03 02 10 0C 00 1D 10 80  23 02 13 00 09 80 00 A7  ........#.......
0130: 01 45 11 80 F8 FF FF 7F  F8 FF FF 7F 66 64 6F 31  .E..........fdo1
0140: 00 80 55 11 80 F8 FF FF  7F F8 FF FF 7F 66 64 6F  ..U..........fdo
0150: 31 52 12 80 F8 FF FF 7F  F8 FF FF 7F 73 30 33 38  1R..........s038
0160: 4E 00 F0 FF FF 7F BA F0  FF FF 7F 03 00 04 00 05  N...............
0170: 00 06 00 80 F0 FF FF 7F  80 F8 FF FF 7F 45 11 80  .............E..
0180: F0 FF FF 7F F0 FF FF 7F  63 30 30 69 00 80 46 00  ........c00i..F.
0190: 1C 13 80 45 11 80 F8 FF  FF 7F F8 FF FF 7F 66 64  ...E..........fd
01A0: 69 32 00 80 1C 14 80 03  01 10 0B 80 43 00 43 01  i2..........C.C.
01B0: 02 02 10 15 80 00 BF 01  1D 16 80 23 01 D2 01 02  ...........#....
01C0: 02 10 00 80 00 CE 01 1D  17 80 23 01 D2 01 1D 18  ..........#.....
01D0: 80 23 21 00 01 95 02 02  00 10 19 80 00 95 02 02  .#!.............
01E0: 01 00 01 80 00 EA 01 01  00 02 02 0C 00 00 80 00  ................
01F0: F7 01 03 0C 00 09 80 03  02 10 0C 00 1D 10 80 23  ...............#
0200: 02 13 00 09 80 00 8F 02  03 13 00 00 80 45 11 80  .............E..
0210: F8 FF FF 7F F8 FF FF 7F  66 64 6F 31 00 80 55 11  ........fdo1..U.
0220: 80 F8 FF FF 7F F8 FF FF  7F 66 64 6F 31 52 12 80  .........fdo1R..
0230: F8 FF FF 7F F8 FF FF 7F  73 30 33 38 38 19 80 4E  ........s0388..N
0240: 01 27 60 04 01 2F 01 27  60 04 01 4E 00 F0 FF FF  .'`../.'`..N....
0250: 7F BA F0 FF FF 7F 03 00  04 00 05 00 06 00 80 F0  ................
0260: FF FF 7F 80 F8 FF FF 7F  45 11 80 F0 FF FF 7F F0  ........E.......
0270: FF FF 7F 63 30 30 69 00  80 46 00 1C 13 80 45 11  ...c00i..F....E.
0280: 80 F8 FF FF 7F F8 FF FF  7F 66 64 69 32 00 80 01  .........fdi2...
0290: 56 00 01 95 02 03 13 00  09 80 45 11 80 F8 FF FF  V.........E.....
02A0: 7F F8 FF FF 7F 66 64 6F  31 00 80 55 11 80 F8 FF  .....fdo1..U....
02B0: FF 7F F8 FF FF 7F 66 64  6F 31 03 01 10 00 80 40  ......fdo1.....@
02C0: 0B 80 0E 80 01 10 01 00  43 00 43 01 46 01 38 1A  ........C.C.F.8.
02D0: 80 4E 01 F0 FF FF 7F 2F  00 27 60 04 01 4E 00 27  .N...../.'`..N.'
02E0: 60 04 01 03 07 00 03 10  03 08 00 04 10 03 09 00  `...............
02F0: 05 10 03 0A 00 06 10 03  0B 00 07 10 03 0C 00 08  ................
0300: 10 03 02 10 00 80 41 1B  80 1A 80 0B 00 03 10 3E  ......A........>
0310: 0A 00 1C 80 1E 03 03 04  10 09 80 01 21 03 06 04  ............!...
0320: 10 3E 0A 00 00 80 30 03  03 05 10 09 80 01 33 03  .>....0.......3.
0330: 06 05 10 3E 0A 00 01 80  42 03 03 06 10 09 80 01  ...>....B.......
0340: 45 03 06 06 10 27 05 27  60 04 01 06 2A 05 27 60  E....'.'`...*.'`
0350: 04 01 41 1D 80 1D 80 0B  00 04 10 41 04 80 1E 80  ..A........A....
0360: 0B 00 05 10 BA 27 60 04  01 1F 80 20 80 00 80 21  .....'`.... ...!
0370: 80 80 27 60 04 01 45 12  80 F8 FF FF 7F F8 FF FF  ..'`..E.........
0380: 7F 73 30 33 38 00 80 1C  22 80 45 11 80 F8 FF FF  .s038...".E.....
0390: 7F F8 FF FF 7F 66 64 69  32 00 80 55 11 80 F8 FF  .....fdi2..U....
03A0: FF 7F F8 FF FF 7F 66 64  69 32 5B 23 80 27 60 04  ......fdi2[#.'`.
03B0: 01 27 60 04 01 6E 61 6B  30 1C 24 80 45 25 80 27  .'`..nak0.$.E%.'
03C0: 60 04 01 27 60 04 01 6E  61 6B 32 00 80 03 02 10  `..'`..nak2.....
03D0: 01 00 07 02 10 09 80 48  26 80 23 03 03 10 07 00  .......H&.#.....
03E0: 9D 00 F6 0A 05 10 09 00  03 06 10 08 00 02 05 10  ................
03F0: 00 80 00 FC 03 48 27 80  23 01 00 04 48 28 80 23  .....H'.#...H(.#
0400: 41 00 80 0F 80 0A 00 02  10 15 02 10 29 80 41 01  A...........).A.
0410: 80 22 80 0A 00 03 10 15  03 10 29 80 41 1C 80 03  ."........).A...
0420: 80 0A 00 04 10 15 04 10  29 80 41 1D 80 2A 80 0A  ........).A..*..
0430: 00 05 10 15 05 10 29 80  48 2B 80 23 41 2C 80 03  ......).H+.#A,..
0440: 80 0B 00 02 10 41 19 80  2D 80 0B 00 03 10 41 2E  .....A..-.....A.
0450: 80 1C 80 0B 00 04 10 48  2F 80 23 5B 23 80 27 60  .......H/.#[#.'`
0460: 04 01 27 60 04 01 6E 61  6B 30 1C 24 80 45 25 80  ..'`..nak0.$.E%.
0470: 27 60 04 01 27 60 04 01  6E 61 6B 32 00 80 1C 30  '`..'`..nak2...0
0480: 80 06 00 00 01 70 00 2E  01 C9 08 02 00 10 09 80  .....p..........
0490: 00 C9 04 42 03 01 10 0C  80 43 00 43 01 B4 11 09  ...B.....C.C....
04A0: 10 07 10 1D 31 80 23 B4  12 00 80 00 80 02 0C 00  ....1.#.........
04B0: 00 80 00 BA 04 03 0C 00  09 80 03 02 10 0C 00 1D  ................
04C0: 10 80 23 01 56 00 01 C9  08 02 00 10 0A 80 00 F1  ..#.V...........
04D0: 04 42 03 01 10 0C 80 43  00 43 01 B4 0F 09 10 07  .B.....C.C......
04E0: 10 1D 32 80 23 B4 10 00  80 00 80 01 56 00 01 C9  ..2.#.......V...
04F0: 08 02 00 10 0B 80 00 37  08 1D 33 80 23 03 04 10  .......7..3.#...
0500: 09 80 1D 34 80 23 24 35  80 00 80 00 80 25 02 00  ...4.#$5.....%..
0510: 10 00 80 00 1E 05 03 0E  00 00 80 01 D4 05 02 00  ................
0520: 10 09 80 00 2E 05 03 0E  00 09 80 01 D4 05 02 00  ................
0530: 10 0A 80 00 3E 05 03 0E  00 0A 80 01 D4 05 02 00  ....>...........
0540: 10 0B 80 00 4E 05 03 0E  00 0B 80 01 D4 05 02 00  ....N...........
0550: 10 0C 80 00 5E 05 03 0E  00 0C 80 01 D4 05 02 00  ....^...........
0560: 10 0D 80 00 6E 05 03 0E  00 0D 80 01 D4 05 02 00  ....n...........
0570: 10 0E 80 00 7E 05 03 0E  00 0E 80 01 D4 05 02 00  ....~...........
0580: 10 0F 80 00 8E 05 03 0E  00 0F 80 01 D4 05 02 00  ................
0590: 10 01 80 00 C6 05 03 01  10 0B 80 43 00 43 01 02  ...........C.C..
05A0: 02 10 15 80 00 AE 05 1D  16 80 23 01 C1 05 02 02  ..........#.....
05B0: 10 00 80 00 BD 05 1D 17  80 23 01 C1 05 1D 18 80  .........#......
05C0: 23 21 00 01 D4 05 02 00  10 19 80 00 D4 05 01 56  #!.............V
05D0: 00 01 D4 05 06 16 17 3C  16 17 0E 00 09 80 03 04  .......<........
05E0: 10 0A 80 1D 34 80 23 24  35 80 00 80 16 17 25 02  ....4.#$5.....%.
05F0: 00 10 00 80 00 FF 05 03  0F 00 00 80 01 B5 06 02  ................
0600: 00 10 09 80 00 0F 06 03  0F 00 09 80 01 B5 06 02  ................
0610: 00 10 0A 80 00 1F 06 03  0F 00 0A 80 01 B5 06 02  ................
0620: 00 10 0B 80 00 2F 06 03  0F 00 0B 80 01 B5 06 02  ...../..........
0630: 00 10 0C 80 00 3F 06 03  0F 00 0C 80 01 B5 06 02  .....?..........
0640: 00 10 0D 80 00 4F 06 03  0F 00 0D 80 01 B5 06 02  .....O..........
0650: 00 10 0E 80 00 5F 06 03  0F 00 0E 80 01 B5 06 02  ....._..........
0660: 00 10 0F 80 00 6F 06 03  0F 00 0F 80 01 B5 06 02  .....o..........
0670: 00 10 01 80 00 A7 06 03  01 10 0B 80 43 00 43 01  ............C.C.
0680: 02 02 10 15 80 00 8F 06  1D 16 80 23 01 A2 06 02  ...........#....
0690: 02 10 00 80 00 9E 06 1D  17 80 23 01 A2 06 1D 18  ..........#.....
06A0: 80 23 21 00 01 B5 06 02  00 10 19 80 00 B5 06 01  .#!.............
06B0: FD 04 01 B5 06 02 0E 00  0F 00 00 C4 06 1D 36 80  ..............6.
06C0: 23 01 D4 05 42 03 01 10  09 80 40 0B 80 0E 80 01  #...B.....@.....
06D0: 10 0E 00 40 0F 80 37 80  01 10 0F 00 43 00 43 01  ...@..7.....C.C.
06E0: 03 02 10 0E 00 03 03 10  0F 00 07 02 10 09 80 07  ................
06F0: 03 10 09 80 1D 38 80 23  24 39 80 09 80 00 80 25  .....8.#$9.....%
0700: 02 00 10 00 80 00 30 08  1D 3A 80 23 71 10 00 80  ......0..:.#q...
0710: 71 11 10 00 02 10 00 3B  80 02 23 07 1D 3C 80 23  q......;..#..<.#
0720: 01 2A 08 02 10 00 00 80  00 80 07 1D 3D 80 23 24  .*..........=.#$
0730: 3E 80 09 80 00 80 25 02  00 10 00 80 00 6F 07 03  >.....%......o..
0740: 01 10 0B 80 43 00 43 01  02 02 10 15 80 00 57 07  ....C.C.......W.
0750: 1D 16 80 23 01 6A 07 02  02 10 00 80 00 66 07 1D  ...#.j.......f..
0760: 17 80 23 01 6A 07 1D 18  80 23 21 00 01 7D 07 02  ..#.j....#!..}..
0770: 00 10 09 80 00 7D 07 01  0C 07 01 7D 07 01 2A 08  .....}.....}..*.
0780: 03 03 10 10 00 03 04 10  10 00 14 04 10 3F 80 1D  .............?..
0790: 40 80 23 24 39 80 09 80  00 80 25 02 00 10 00 80  @.#$9.....%.....
07A0: 00 2A 08 03 01 10 0A 80  40 0B 80 0E 80 01 10 0E  .*......@.......
07B0: 00 40 0F 80 37 80 01 10  0F 00 40 41 80 42 80 01  .@..7.....@A.B..
07C0: 10 10 00 43 00 43 01 02  02 10 09 80 00 D8 07 1D  ...C.C..........
07D0: 43 80 23 21 00 01 27 08  02 02 10 0A 80 00 E9 07  C.#!..'.........
07E0: 1D 16 80 23 21 00 01 27  08 02 02 10 0B 80 00 FA  ...#!..'........
07F0: 07 1D 44 80 23 21 00 01  27 08 03 01 10 0B 80 43  ..D.#!..'......C
0800: 00 43 01 02 02 10 15 80  00 12 08 1D 16 80 23 01  .C............#.
0810: 25 08 02 02 10 00 80 00  21 08 1D 17 80 23 01 25  %.......!....#.%
0820: 08 1D 18 80 23 21 00 01  2A 08 01 0C 07 01 30 08  ....#!..*.....0.
0830: 2E 01 FD 04 01 C9 08 02  00 10 0C 80 00 C9 08 24  ...............$
0840: 45 80 00 80 00 80 25 02  00 10 00 80 00 5E 08 1D  E.....%......^..
0850: 46 80 23 1D 47 80 23 1D  48 80 23 01 C3 08 02 00  F.#.G.#.H.#.....
0860: 10 09 80 00 7D 08 1D 49  80 23 1D 4A 80 23 1D 4B  ....}..I.#.J.#.K
0870: 80 23 1D 4C 80 23 1D 4D  80 23 01 C3 08 02 00 10  .#.L.#.M.#......
0880: 0A 80 00 B5 08 03 01 10  0B 80 43 00 43 01 02 02  ..........C.C...
0890: 10 15 80 00 9D 08 1D 16  80 23 01 B0 08 02 02 10  .........#......
08A0: 00 80 00 AC 08 1D 17 80  23 01 B0 08 1D 18 80 23  ........#......#
08B0: 21 00 01 C3 08 02 00 10  0B 80 00 C3 08 01 56 00  !.............V.
08C0: 01 C3 08 01 3F 08 01 C9  08 03 01 10 0B 80 43 00  ....?.........C.
08D0: 43 01 02 02 10 15 80 00  E1 08 1D 16 80 23 01 F4  C............#..
08E0: 08 02 02 10 00 80 00 F0  08 1D 17 80 23 01 F4 08  ............#...
08F0: 1D 18 80 23 21 00 00 80  00 80 00 80 0B 80 0D 80  ...#!...........
0900: 37 80 22 80 2C 80 1B 80  05 80 24 80 4E 80 4F 80  7.".,.....$.N.O.
0910: 50 80 3F 80 3F 80 3F 80  3F 80 3F 80 3F 80 3F 80  P.?.?.?.?.?.?.?.
0920: 3F 80 3F 80 3F 80 3F 80  3F 80 3F 80 3F 80 3F 80  ?.?.?.?.?.?.?.?.
0930: 3F 80 3F 80 3F 80 00 80  00 80 00 80 09 80 09 80  ?.?.?...........
0940: 09 80 09 80 09 80 0A 80  0B 80 0B 80 0C 80 0C 80  ................
0950: 0D 80 3F 80 3F 80 3F 80  3F 80 3F 80 3F 80 3F 80  ..?.?.?.?.?.?.?.
0960: 3F 80 3F 80 3F 80 3F 80  3F 80 3F 80 3F 80 3F 80  ?.?.?.?.?.?.?.?.
0970: 3F 80 3F 80 3F 80 51 80  52 80 53 80 54 80 55 80  ?.?.?.Q.R.S.T.U.
0980: 56 80 57 80 58 80 59 80  5A 80 5B 80 5C 80 5D 80  V.W.X.Y.Z.[.\.].
0990: 5E 80 00 80 00 80 00 80  00 80 00 80 00 80 00 80  ^...............
09A0: 00 80 00 80 00 80 00 80  00 80 00 80 00 80 00 80  ................
09B0: 00 80 00 80 00 80 09 80  09 80 09 80 05 80 50 80  ..............P.
09C0: 5F 80 13 80 60 80 61 80  62 80 63 80 64 80 14 80  _...`.a.b.c.d...
09D0: 3F 80 00 80 00 80 00 80  00 80 00 80 00 80 00 80  ?...............
09E0: 00 80 00 80 00 80 00 80  00 80 00 80 00 80 00 80  ................
09F0: 00 80 00 80 00 80 00 80  00 80 0B 80 00 80 00 80  ................
0A00: 00 80 00 80 37 80 22 80  22 80 2C 80 2C 80 05 80  ....7.".".,.,...
0A10: 05 80 00 80 00 80 00 80  00 80 00 80 00 80 00 80  ................
0A20: 00 80 00 80 00 80 00 80  00 80 00 80 00 80 00 80  ................
0A30: 00 80 00 80 00 80 09 80  09 80 09 80 09 80 09 80  ................
0A40: 09 80 09 80 09 80 0A 80  0E 80 0E 80 65 80 09 80  ............e...
0A50: 0E 80 09 80 09 80 09 80  09 80 09 80 09 80 09 80  ................
0A60: 09 80 09 80 09 80 3F 80  66 80 11 80 67 80 68 80  ......?.f...g.h.
0A70: 69 80 6A 80 52 80 53 80  6B 80 6C 80 54 80 6D 80  i.j.R.S.k.l.T.m.
0A80: 6E 80 6F 80 55 80 56 80  57 80 58 80 59 80 5A 80  n.o.U.V.W.X.Y.Z.
0A90: 5B 80 5C 80 5D 80 70 80  5E 80 71 80 72 80 73 80  [.\.].p.^.q.r.s.
0AA0: 74 80 75 80 76 80 77 80  78 80 79 80 7A 80 7B 80  t.u.v.w.x.y.z.{.
0AB0: 7C 80 7D 80 7E 80 7F 80  80 80 81 80 82 80 83 80  |.}.~...........
0AC0: 84 80 85 80 86 80 87 80  88 80 89 80 8A 80 8B 80  ................
0AD0: 8C 80 8D 80 8E 80 8F 80  90 80 91 80 92 80 93 80  ................
0AE0: 93 80 93 80 93 80 0D 80  0B 80 09 80 09 80 09 80  ................
0AF0: 09 80 09 80 00 80 00 80  94 80 95 80 96 80 97 80  ................
0B00: 98 80 99 80 9A 80 9B 80  9C 80 00 80 00 80 00 80  ................
0B10: 00 80 00 80 00 80 00 80  00 80 00 80 00 80 00 80  ................
0B20: 00 80 00 80 00 80 00 80  00 80 00 80 9D 80 9E 80  ................
0B30: 9F 80 A0 80 A1 80 0C 80  0E 80 01 80 0A 80 01 80  ................
0B40: 01 80 0B 80 01 80 0A 80  01 80 01 80 01 80 01 80  ................
0B50: 01 80 01 80 01 80 00 80  00 80 00 80 00 80 0A 80  ................
0B60: 0B 80 00 80 09 80 00 80  00 80 00 80 00 80 0B 80  ................
0B70: 09 80 00 80 0A 80 00 80  00 80 00 80 00 80 09 80  ................
0B80: 0A 80 00 80 0B 80 0C 80  0C 80 0C 80 0C 80 0C 80  ................
0B90: 0C 80 00 80 00 80 0C 80  0C 80 0C 80 0C 80 0C 80  ................
0BA0: 0C 80 00 80 00 80 0C 80  0C 80 0C 80 0C 80 0C 80  ................
0BB0: 0C 80 00 80 00 80 00 80  00 80 00 80 00 80 00 80  ................
0BC0: 00 80 00 80 00 80 00 80  00 80 00 80 0D 80 0C 80  ................
0BD0: 00 80 00 80 00 80 00 80  00 80 00 80 00 80 00 80  ................
0BE0: 00 80 00 80 00 80 00 80  00 80 00 80 00 80 00 80  ................
0BF0: 00 80 00 80 00 80 00 80  00 80 00 80 00 80 00 80  ................
0C00: 00 80 00 80 00 80 00 80  00 80 00 80 00 80 00 80  ................
0C10: 00 80 00 80 00 80 00 80  00 80 00 80 00 80 00 80  ................
0C20: 00 80 00 80 00 80 42 03  15 00 06 10 03 01 10 00  ......B.........
0C30: 80 1E F0 FF FF 7F 1C 05  80 1D A2 80 23 03 01 10  ............#...
0C40: 09 80 43 00 43 01 02 09  10 00 80 00 52 0C 1D A3  ..C.C.......R...
0C50: 80 23 02 15 00 00 80 80  66 0C 1D 44 80 23 03 01  .#......f..D.#..
0C60: 10 0A 80 01 2B 0D 02 15  00 09 80 80 A1 0C 1D A4  ....+...........
0C70: 80 23 24 A5 80 09 80 00  80 25 02 00 10 00 80 00  .#$......%......
0C80: 8A 0C 03 01 10 09 80 01  9E 0C 02 00 10 09 80 00  ................
0C90: 9E 0C 1D A6 80 23 03 01  10 0A 80 01 9E 0C 01 2B  .....#.........+
0CA0: 0D 02 15 00 0A 80 80 DC  0C 1D A7 80 23 1D A8 80  ............#...
0CB0: 23 24 A9 80 09 80 00 80  25 02 00 10 00 80 00 C9  #$......%.......
0CC0: 0C 03 01 10 0B 80 01 D9  0C 02 00 10 09 80 00 D9  ................
0CD0: 0C 03 01 10 0A 80 01 D9  0C 01 2B 0D 02 15 00 0B  ..........+.....
0CE0: 80 80 17 0D 1D AA 80 23  1D A8 80 23 24 A9 80 09  .......#...#$...
0CF0: 80 00 80 25 02 00 10 00  80 00 04 0D 03 01 10 0B  ...%............
0D00: 80 01 14 0D 02 00 10 09  80 00 14 0D 03 01 10 0A  ................
0D10: 80 01 14 0D 01 2B 0D 02  15 00 0C 80 80 2B 0D 1D  .....+.......+..
0D20: AB 80 23 03 01 10 0A 80  01 2B 0D 1B AC 80 AD 80  ..#......+......
0D30: AE 80 AF 80 B0 80 B1 80  B2 80 B3 80 B4 80 B5 80  ................
0D40: B6 80 B7 80 B8 80 B9 80  BA 80 BB 80 BC 80 BD 80  ................
0D50: BE 80 BF 80 C0 80 C1 80  C2 80 C3 80 C4 80 C5 80  ................
0D60: C6 80 C7 80 C8 80 C9 80  CA 80 CB 80 CC 80 CD 80  ................
0D70: CE 80 CF 80 D0 80 D1 80  D2 80 D3 80 D4 80 D5 80  ................
0D80: D6 80 D7 80 D8 80 D9 80  DA 80 DB 80 DC 80 DD 80  ................
0D90: DE 80 DF 80 E0 80 E1 80  E2 80 E3 80 E4 80 E5 80  ................
0DA0: E6 80 E7 80 E8 80 E9 80  EA 80 EB 80              ............    
```

#### Opcodes

```
  0: 0x0001 [0x03] Work_Zone[1] = 0*
  1: 0x0006 [0x38] SET_CLIENT_EVENT_MODE(mode=8*)
  2: 0x0009 [0x41] ExtData[1]->WorkLocal[17] = Work_Zone[2] (bits 18*-23*)
  3: 0x0012 [0x41] ExtData[1]->WorkLocal[18] = Work_Zone[2] (bits 0*-17*)
  4: 0x001B [0x03] ExtData[1]->WorkLocal[3] = Work_Zone[3]
  5: 0x0020 [0x03] ExtData[1]->WorkLocal[4] = Work_Zone[4]
  6: 0x0025 [0x03] ExtData[1]->WorkLocal[5] = Work_Zone[5]
  7: 0x002A [0x03] ExtData[1]->WorkLocal[6] = Work_Zone[6]
  8: 0x002F [0x03] ExtData[1]->WorkLocal[12] = Work_Zone[8]
  9: 0x0034 [0x03] ExtData[1]->WorkLocal[20] = Work_Zone[9]
 10: 0x0039 [0x1E] EventEntity looks at LocalPlayer and starts talking
 11: 0x003E [0x1C] WAIT(30* ticks)
 12: 0x0041 [0x1D] PRINT_EVENT_MESSAGE(message_id=9435*)
    → "I am currently accepting chocobets for the following race:"
 13: 0x0044 [0x23] WAIT_FOR_DIALOG_INTERACTION
 14: 0x0045 [0x03] Work_Zone[2] = ExtData[1]->WorkLocal[18]
 15: 0x004A [0x9D] ExtData[1]->WorkLocal[17] = 0x0D2C[ExtData[1]->WorkLocal[17]] // Read WORD
 16: 0x0052 [0x1D] PRINT_EVENT_MESSAGE(message_id=ExtData[1]->WorkLocal[17])
 17: 0x0055 [0x23] WAIT_FOR_DIALOG_INTERACTION
 18: 0x0056 [0x2E] SET_CLI_EVENT_CANCEL_FLAGS()
 19: 0x0057 [0x24] CREATE_DIALOG(message_id=9436*, default_option=0*, option_flags=0*)
    → "What would you like to do? [Visit the paddock./See a list of the chocobos./Check the toteboard./Purchase a chocobet ticket./Get an explanation./Quit.]"
 20: 0x005E [0x25] WAIT_DIALOG_SELECT()
 21: 0x005F [0x02] IF !(Work_Zone[0] == 0*) GOTO 0x048B
 22: 0x0067 [0x42] SET_CLI_EVENT_CANCEL_DATA()
 23: 0x0068 [0x06] ExtData[1]->WorkLocal[0] = 0
 24: 0x006B [0x03] ExtData[1]->WorkLocal[1] = 8*
 25: 0x0070 [0x02] IF !(ExtData[1]->WorkLocal[0] == 0*) GOTO 0x0487
 26: 0x0078 [0x24] CREATE_DIALOG(message_id=8998*, default_option=0*, option_flags=0*)
    → "Please select chocobo: [Entry No. 1./Entry No. 2./Entry No. 3./Entry No. 4./Entry No. 5./Entry No. 6./Entry No. 7./Entry No. 8./Quit./Return.]"
 27: 0x007F [0x25] WAIT_DIALOG_SELECT()
 28: 0x0080 [0x02] IF !(Work_Zone[0] == 0*) GOTO 0x0090
 29: 0x0088 [0x03] ExtData[1]->WorkLocal[1] = 0*
 30: 0x008D [0x01] GOTO 0x0295
 31: 0x0090 [0x02] IF !(Work_Zone[0] == 1*) GOTO 0x00A0
 32: 0x0098 [0x03] ExtData[1]->WorkLocal[1] = 1*
 33: 0x009D [0x01] GOTO 0x0295
 34: 0x00A0 [0x02] IF !(Work_Zone[0] == 2*) GOTO 0x00B0
 35: 0x00A8 [0x03] ExtData[1]->WorkLocal[1] = 2*
 36: 0x00AD [0x01] GOTO 0x0295
 37: 0x00B0 [0x02] IF !(Work_Zone[0] == 3*) GOTO 0x00C0
 38: 0x00B8 [0x03] ExtData[1]->WorkLocal[1] = 3*
 39: 0x00BD [0x01] GOTO 0x0295
 40: 0x00C0 [0x02] IF !(Work_Zone[0] == 4*) GOTO 0x00D0
 41: 0x00C8 [0x03] ExtData[1]->WorkLocal[1] = 4*
 42: 0x00CD [0x01] GOTO 0x0295
 43: 0x00D0 [0x02] IF !(Work_Zone[0] == 5*) GOTO 0x00E0
 44: 0x00D8 [0x03] ExtData[1]->WorkLocal[1] = 5*
 45: 0x00DD [0x01] GOTO 0x0295
 46: 0x00E0 [0x02] IF !(Work_Zone[0] == 6*) GOTO 0x00F0
 47: 0x00E8 [0x03] ExtData[1]->WorkLocal[1] = 6*
 48: 0x00ED [0x01] GOTO 0x0295
 49: 0x00F0 [0x02] IF !(Work_Zone[0] == 7*) GOTO 0x0100
 50: 0x00F8 [0x03] ExtData[1]->WorkLocal[1] = 7*
 51: 0x00FD [0x01] GOTO 0x0295
 52: 0x0100 [0x02] IF !(Work_Zone[0] == 8*) GOTO 0x01D7
 53: 0x0108 [0x02] IF !(ExtData[1]->WorkLocal[1] == 8*) GOTO 0x0113
 54: 0x0110 [0x01] GOTO 0x0129
 55: 0x0113 [0x02] IF !(ExtData[1]->WorkLocal[12] == 0*) GOTO 0x0120
 56: 0x011B [0x03] ExtData[1]->WorkLocal[12] = 1*
 57: 0x0120 [0x03] Work_Zone[2] = ExtData[1]->WorkLocal[12]
 58: 0x0125 [0x1D] PRINT_EVENT_MESSAGE(message_id=9440*)
    → "The weather forecast for today's race calls for [-/clear skies/cloudy skies/-/a heat wave/-/rain/-/sandstorms/-/wind/-/snow/-/thunderstorms/-/Auroras/-/dark skies/-]."
 59: 0x0128 [0x23] WAIT_FOR_DIALOG_INTERACTION

SUBROUTINE_0129:
 60: 0x0129 [0x02] IF !(ExtData[1]->WorkLocal[19] == 1*) GOTO 0x01A7
 61: 0x0131 [0x45] LOAD_SCHEDULED_TASK: Load scheduler "fdo1" with entities [EventEntity, EventEntity], work=[200*, 0*]
 62: 0x0142 [0x55] WAIT_LOAD_SCHEDULER: Wait for scheduler "fdo1" with entities [EventEntity, EventEntity], work=200*
 63: 0x0151 [0x52] END_LOAD_SCHEDULER: End scheduler "s038" with entities [EventEntity, EventEntity], work=288*
 64: 0x0160 [0x4E] SET_ENTITY_HIDE_FLAG: Show LocalPlayer
 65: 0x0166 [0xBA] SET_ENTITY_POSITION(entity_id=LocalPlayer, pos_x=ExtData[1]->WorkLocal[3], pos_z=ExtData[1]->WorkLocal[4], pos_y=ExtData[1]->WorkLocal[5], direction=ExtData[1]->WorkLocal[6])
 66: 0x0173 [0x80] LOAD_WAIT(entity=LocalPlayer)
 67: 0x0178 [0x80] LOAD_WAIT(entity=EventEntity)
 68: 0x017D [0x45] LOAD_SCHEDULED_TASK: Load scheduler "c00i" with entities [LocalPlayer, LocalPlayer], work=[200*, 0*]
 69: 0x018E [0x46] CAMERA_CONTROL: Restore default settings
 70: 0x0190 [0x1C] WAIT(60* ticks)
 71: 0x0193 [0x45] LOAD_SCHEDULED_TASK: Load scheduler "fdi2" with entities [EventEntity, EventEntity], work=[200*, 0*]
 72: 0x01A4 [0x1C] WAIT(90* ticks)
 73: 0x01A7 [0x03] Work_Zone[1] = 3*
 74: 0x01AC [0x43] SEND_EVENT_UPDATE: Send pending tag to server (packet 0x005B)
 75: 0x01AE [0x43] SEND_EVENT_UPDATE: Check pending flag (skip if not pending)
 76: 0x01B0 [0x02] IF !(Work_Zone[2] == 4294967295*) GOTO 0x01BF
 77: 0x01B8 [0x1D] PRINT_EVENT_MESSAGE(message_id=9455*)
    → "I'm sorry, [sir/ma'am], but I am currently not accepting chocobets."
 78: 0x01BB [0x23] WAIT_FOR_DIALOG_INTERACTION
 79: 0x01BC [0x01] GOTO 0x01D2
 80: 0x01BF [0x02] IF !(Work_Zone[2] == 0*) GOTO 0x01CE
 81: 0x01C7 [0x1D] PRINT_EVENT_MESSAGE(message_id=9466*)
    → "Attention, bettors! Last call! Last call for chocobets!"
 82: 0x01CA [0x23] WAIT_FOR_DIALOG_INTERACTION
 83: 0x01CB [0x01] GOTO 0x01D2
 84: 0x01CE [0x1D] PRINT_EVENT_MESSAGE(message_id=9465*)
    → "Attention, bettors! Only $0 [minute/minutes] remaining to place your chocobets!"
 85: 0x01D1 [0x23] WAIT_FOR_DIALOG_INTERACTION

SUBROUTINE_01D2:
 86: 0x01D2 [0x21] END_EVENT
 87: 0x01D3 [0x00] END_REQSTACK()

SUBROUTINE_0200:
 88: 0x0200 [0x02] IF !(ExtData[1]->WorkLocal[19] == 1*) GOTO 0x028F
 89: 0x0208 [0x03] ExtData[1]->WorkLocal[19] = 0*
 90: 0x020D [0x45] LOAD_SCHEDULED_TASK: Load scheduler "fdo1" with entities [EventEntity, EventEntity], work=[200*, 0*]
 91: 0x021E [0x55] WAIT_LOAD_SCHEDULER: Wait for scheduler "fdo1" with entities [EventEntity, EventEntity], work=200*
 92: 0x022D [0x52] END_LOAD_SCHEDULER: End scheduler "s038" with entities [EventEntity, EventEntity], work=288*
 93: 0x023C [0x38] SET_CLIENT_EVENT_MODE(mode=9*)
 94: 0x023F [0x4E] SET_ENTITY_HIDE_FLAG: Hide Unnamed NPC (ID: 17063975/0x01046027)
 95: 0x0245 [0x2F] Unnamed NPC (ID: 17063975/0x01046027)->Render.Flags0 |= 0x80000 // Bit 19
 96: 0x024B [0x4E] SET_ENTITY_HIDE_FLAG: Show LocalPlayer
 97: 0x0251 [0xBA] SET_ENTITY_POSITION(entity_id=LocalPlayer, pos_x=ExtData[1]->WorkLocal[3], pos_z=ExtData[1]->WorkLocal[4], pos_y=ExtData[1]->WorkLocal[5], direction=ExtData[1]->WorkLocal[6])
 98: 0x025E [0x80] LOAD_WAIT(entity=LocalPlayer)
 99: 0x0263 [0x80] LOAD_WAIT(entity=EventEntity)
100: 0x0268 [0x45] LOAD_SCHEDULED_TASK: Load scheduler "c00i" with entities [LocalPlayer, LocalPlayer], work=[200*, 0*]
101: 0x0279 [0x46] CAMERA_CONTROL: Restore default settings
102: 0x027B [0x1C] WAIT(60* ticks)
103: 0x027E [0x45] LOAD_SCHEDULED_TASK: Load scheduler "fdi2" with entities [EventEntity, EventEntity], work=[200*, 0*]
104: 0x028F [0x01] GOTO 0x0056

SUBROUTINE_0295:
105: 0x0295 [0x03] ExtData[1]->WorkLocal[19] = 1*
106: 0x029A [0x45] LOAD_SCHEDULED_TASK: Load scheduler "fdo1" with entities [EventEntity, EventEntity], work=[200*, 0*]
107: 0x02AB [0x55] WAIT_LOAD_SCHEDULER: Wait for scheduler "fdo1" with entities [EventEntity, EventEntity], work=200*
108: 0x02BA [0x03] Work_Zone[1] = 0*
109: 0x02BF [0x40] SET_BIT_WORK_RANGE(start_bit=3*, end_bit=6*, target=Work_Zone[1], source=ExtData[1]->WorkLocal[1])
110: 0x02C8 [0x43] SEND_EVENT_UPDATE: Send pending tag to server (packet 0x005B)
111: 0x02CA [0x43] SEND_EVENT_UPDATE: Check pending flag (skip if not pending)
112: 0x02CC [0x46] CAMERA_CONTROL: Disable user control
113: 0x02CE [0x38] SET_CLIENT_EVENT_MODE(mode=27*)
114: 0x02D1 [0x4E] SET_ENTITY_HIDE_FLAG: Hide LocalPlayer
115: 0x02D7 [0x2F] Unnamed NPC (ID: 17063975/0x01046027)->Render.Flags0 &= ~0x80000 // Bit 19
116: 0x02DD [0x4E] SET_ENTITY_HIDE_FLAG: Show Unnamed NPC (ID: 17063975/0x01046027)
117: 0x02E3 [0x03] ExtData[1]->WorkLocal[7] = Work_Zone[3]
118: 0x02E8 [0x03] ExtData[1]->WorkLocal[8] = Work_Zone[4]
119: 0x02ED [0x03] ExtData[1]->WorkLocal[9] = Work_Zone[5]
120: 0x02F2 [0x03] ExtData[1]->WorkLocal[10] = Work_Zone[6]
121: 0x02F7 [0x03] ExtData[1]->WorkLocal[11] = Work_Zone[7]
122: 0x02FC [0x03] ExtData[1]->WorkLocal[12] = Work_Zone[8]
123: 0x0301 [0x03] Work_Zone[2] = 0*
124: 0x0306 [0x41] Work_Zone[3] = ExtData[1]->WorkLocal[11] (bits 25*-27*)
125: 0x030F [0x3E] IF !(ExtData[1]->WorkLocal[10] bit 16*) GOTO 0x031E
126: 0x0316 [0x03] Work_Zone[4] = 1*
127: 0x031B [0x01] GOTO 0x0321
128: 0x031E [0x06] Work_Zone[4] = 0

SUBROUTINE_0321:
129: 0x0321 [0x3E] IF !(ExtData[1]->WorkLocal[10] bit 0*) GOTO 0x0330
130: 0x0328 [0x03] Work_Zone[5] = 1*
131: 0x032D [0x01] GOTO 0x0333
132: 0x0330 [0x06] Work_Zone[5] = 0

SUBROUTINE_0333:
133: 0x0333 [0x3E] IF !(ExtData[1]->WorkLocal[10] bit 8*) GOTO 0x0342
134: 0x033A [0x03] Work_Zone[6] = 1*
135: 0x033F [0x01] GOTO 0x0345
136: 0x0342 [0x06] Work_Zone[6] = 0

SUBROUTINE_0345:
137: 0x0345 [0x27] REQ_SET(priority=0x05, entity_id=Unnamed NPC (ID: 17063975/0x01046027), tag_num=0x06)
138: 0x034C [0x2A] GET_REQ_LEVEL(level=5, entity_id=Unnamed NPC (ID: 17063975/0x01046027))
139: 0x0352 [0x41] Work_Zone[4] = ExtData[1]->WorkLocal[11] (bits 24*-24*)
140: 0x035B [0x41] Work_Zone[5] = ExtData[1]->WorkLocal[11] (bits 17*-19*)
141: 0x0364 [0xBA] SET_ENTITY_POSITION(entity_id=Unnamed NPC (ID: 17063975/0x01046027), pos_x=-52.464*, pos_z=-80.352*, pos_y=0.000*, direction=184.2°*)
142: 0x0371 [0x80] LOAD_WAIT(entity=Unnamed NPC (ID: 17063975/0x01046027))
143: 0x0376 [0x45] LOAD_SCHEDULED_TASK: Load scheduler "s038" with entities [EventEntity, EventEntity], work=[288*, 0*]
144: 0x0387 [0x1C] WAIT(15* ticks)
145: 0x038A [0x45] LOAD_SCHEDULED_TASK: Load scheduler "fdi2" with entities [EventEntity, EventEntity], work=[200*, 0*]
146: 0x039B [0x55] WAIT_LOAD_SCHEDULER: Wait for scheduler "fdi2" with entities [EventEntity, EventEntity], work=200*
147: 0x03AA [0x5B] LOAD_EXT_SCHEDULER: Load scheduler "nak0" with entities [Unnamed NPC (ID: 17063975/0x01046027), Unnamed NPC (ID: 17063975/0x01046027)], work=223*
148: 0x03B9 [0x1C] WAIT(35* ticks)
149: 0x03BC [0x45] LOAD_SCHEDULED_TASK: Load scheduler "nak2" with entities [Unnamed NPC (ID: 17063975/0x01046027), Unnamed NPC (ID: 17063975/0x01046027)], work=[144*, 0*]
150: 0x03CD [0x03] Work_Zone[2] = ExtData[1]->WorkLocal[1]
151: 0x03D2 [0x07] Work_Zone[2] += 1*
152: 0x03D7 [0x48] [System] [9437*]:
    → "Entry No. $0 ` %1 `"
153: 0x03DA [0x23] WAIT_FOR_DIALOG_INTERACTION
154: 0x03DB [0x03] Work_Zone[3] = ExtData[1]->WorkLocal[7]
155: 0x03E0 [0x9D] Work_Zone[5] = 0x0AF6[ExtData[1]->WorkLocal[9]] // Read WORD
156: 0x03E8 [0x03] Work_Zone[6] = ExtData[1]->WorkLocal[8]
157: 0x03ED [0x02] IF !(Work_Zone[5] == 0*) GOTO 0x03FC
158: 0x03F5 [0x48] [System] [9439*]:
    → "Affiliation: [None/San d'Oria/Bastok/Windurst] Gender: [Male/Female] Orders: [Sprint/Keep Pace/Final Spurt] Equipment: None"
159: 0x03F8 [0x23] WAIT_FOR_DIALOG_INTERACTION
160: 0x03F9 [0x01] GOTO 0x0400
161: 0x03FC [0x48] [System] [9438*]:
    → "Affiliation: [None/San d'Oria/Bastok/Windurst] Gender: [Male/Female] Orders: [Sprint/Keep Pace/Final Spurt] Equipment: $3"
162: 0x03FF [0x23] WAIT_FOR_DIALOG_INTERACTION

SUBROUTINE_0400:
163: 0x0400 [0x41] Work_Zone[2] = ExtData[1]->WorkLocal[10] (bits 0*-7*)
164: 0x0409 [0x15] Work_Zone[2] /= 32*
165: 0x040E [0x41] Work_Zone[3] = ExtData[1]->WorkLocal[10] (bits 8*-15*)
166: 0x0417 [0x15] Work_Zone[3] /= 32*
167: 0x041C [0x41] Work_Zone[4] = ExtData[1]->WorkLocal[10] (bits 16*-23*)
168: 0x0425 [0x15] Work_Zone[4] /= 32*
169: 0x042A [0x41] Work_Zone[5] = ExtData[1]->WorkLocal[10] (bits 24*-31*)
170: 0x0433 [0x15] Work_Zone[5] /= 32*
171: 0x0438 [0x48] [System] [9002*]:
    → "Strength: [Poor/Substandard/A bit deficient/Average/Better than average/Impressive/Outstanding/First-class] Endurance: [Poor/Substandard/A bit deficient/Average/Better than average/Impressive/Outstanding/First-class] Discernment: [Poor/Substandard/A bit deficient/Average/Better than average/Impressive/Outstanding/First-class] Receptivity: [Poor/Substandard/A bit deficient/Average/Better than average/Impressive/Outstanding/First-class]"
172: 0x043B [0x23] WAIT_FOR_DIALOG_INTERACTION
173: 0x043C [0x41] Work_Zone[2] = ExtData[1]->WorkLocal[11] (bits 20*-23*)
174: 0x0445 [0x41] Work_Zone[3] = ExtData[1]->WorkLocal[11] (bits 9*-12*)
175: 0x044E [0x41] Work_Zone[4] = ExtData[1]->WorkLocal[11] (bits 13*-16*)
176: 0x0457 [0x48] [System] [9003*]:
    → "Weather: Prefers: [Clear days/Hot, sunny days/Rainy days/Sandstorms/Windy days/Snowy days/Thunderstorms/Auroras/Dark days/None/Cloudy days] Dislikes: [None/Rainy days/Thunderstorms/Windy days/Snowy days/Hot, sunny days/Sandstorms/Dark days/Auroras/None/None] Abilities: [None/Gallop/Canter/Burrow/Bore/Auto-Regen/Treasure Finder][/ & Gallop/ & Canter/ & Burrow/ & Bore/ & Auto-Regen/ & Treasure Finder]"
177: 0x045A [0x23] WAIT_FOR_DIALOG_INTERACTION
178: 0x045B [0x5B] LOAD_EXT_SCHEDULER: Load scheduler "nak0" with entities [Unnamed NPC (ID: 17063975/0x01046027), Unnamed NPC (ID: 17063975/0x01046027)], work=223*
179: 0x046A [0x1C] WAIT(35* ticks)
180: 0x046D [0x45] LOAD_SCHEDULED_TASK: Load scheduler "nak2" with entities [Unnamed NPC (ID: 17063975/0x01046027), Unnamed NPC (ID: 17063975/0x01046027)], work=[144*, 0*]
181: 0x047E [0x1C] WAIT(120* ticks)
182: 0x0481 [0x06] ExtData[1]->WorkLocal[0] = 0
183: 0x0484 [0x01] GOTO 0x0070
184: 0x0487 [0x2E] SET_CLI_EVENT_CANCEL_FLAGS()
185: 0x0488 [0x01] GOTO 0x08C9
186: 0x048B [0x02] IF !(Work_Zone[0] == 1*) GOTO 0x04C9
187: 0x0493 [0x42] SET_CLI_EVENT_CANCEL_DATA()
188: 0x0494 [0x03] Work_Zone[1] = 4*
189: 0x0499 [0x43] SEND_EVENT_UPDATE: Send pending tag to server (packet 0x005B)
190: 0x049B [0x43] SEND_EVENT_UPDATE: Check pending flag (skip if not pending)
191: 0x049D [0xB4] UI_WINDOW_STRING_HANDLER(case=0x11 - Open chocobo racing card window, work_offset1=Work_Zone[9], work_offset2=Work_Zone[7])
192: 0x04A3 [0x1D] PRINT_EVENT_MESSAGE(message_id=9482*)
    → "The following is a list of the chocobos entered in the race."
193: 0x04A6 [0x23] WAIT_FOR_DIALOG_INTERACTION
194: 0x04A7 [0xB4] UI_WINDOW_STRING_HANDLER(case=0x12 - Close chocobo racing card window, work_offset1=0*, work_offset2=0*)
195: 0x04AD [0x02] IF !(ExtData[1]->WorkLocal[12] == 0*) GOTO 0x04BA
196: 0x04B5 [0x03] ExtData[1]->WorkLocal[12] = 1*
197: 0x04BA [0x03] Work_Zone[2] = ExtData[1]->WorkLocal[12]
198: 0x04BF [0x1D] PRINT_EVENT_MESSAGE(message_id=9440*)
    → "The weather forecast for today's race calls for [-/clear skies/cloudy skies/-/a heat wave/-/rain/-/sandstorms/-/wind/-/snow/-/thunderstorms/-/Auroras/-/dark skies/-]."
199: 0x04C2 [0x23] WAIT_FOR_DIALOG_INTERACTION
200: 0x04C3 [0x01] GOTO 0x0056

SUBROUTINE_04FD:
201: 0x04FD [0x03] Work_Zone[4] = 1*
202: 0x0502 [0x1D] PRINT_EVENT_MESSAGE(message_id=9443*)
    → "[First/Second]:"
203: 0x0505 [0x23] WAIT_FOR_DIALOG_INTERACTION
204: 0x0506 [0x24] CREATE_DIALOG(message_id=9444*, default_option=0*, option_flags=0*)
    → "Which chocobo would you like to select? [Entry No. 1./Entry No. 2./Entry No. 3./Entry No. 4./Entry No. 5./Entry No. 6./Entry No. 7./Entry No. 8./Quit./Return.]"
205: 0x050D [0x25] WAIT_DIALOG_SELECT()
206: 0x050E [0x02] IF !(Work_Zone[0] == 0*) GOTO 0x051E
207: 0x0516 [0x03] ExtData[1]->WorkLocal[14] = 0*
208: 0x051B [0x01] GOTO 0x05D4
209: 0x051E [0x02] IF !(Work_Zone[0] == 1*) GOTO 0x052E
210: 0x0526 [0x03] ExtData[1]->WorkLocal[14] = 1*
211: 0x052B [0x01] GOTO 0x05D4
212: 0x052E [0x02] IF !(Work_Zone[0] == 2*) GOTO 0x053E
213: 0x0536 [0x03] ExtData[1]->WorkLocal[14] = 2*
214: 0x053B [0x01] GOTO 0x05D4
215: 0x053E [0x02] IF !(Work_Zone[0] == 3*) GOTO 0x054E
216: 0x0546 [0x03] ExtData[1]->WorkLocal[14] = 3*
217: 0x054B [0x01] GOTO 0x05D4
218: 0x054E [0x02] IF !(Work_Zone[0] == 4*) GOTO 0x055E
219: 0x0556 [0x03] ExtData[1]->WorkLocal[14] = 4*
220: 0x055B [0x01] GOTO 0x05D4
221: 0x055E [0x02] IF !(Work_Zone[0] == 5*) GOTO 0x056E
222: 0x0566 [0x03] ExtData[1]->WorkLocal[14] = 5*
223: 0x056B [0x01] GOTO 0x05D4
224: 0x056E [0x02] IF !(Work_Zone[0] == 6*) GOTO 0x057E
225: 0x0576 [0x03] ExtData[1]->WorkLocal[14] = 6*
226: 0x057B [0x01] GOTO 0x05D4
227: 0x057E [0x02] IF !(Work_Zone[0] == 7*) GOTO 0x058E
228: 0x0586 [0x03] ExtData[1]->WorkLocal[14] = 7*
229: 0x058B [0x01] GOTO 0x05D4
230: 0x058E [0x02] IF !(Work_Zone[0] == 8*) GOTO 0x05C6
231: 0x0596 [0x03] Work_Zone[1] = 3*
232: 0x059B [0x43] SEND_EVENT_UPDATE: Send pending tag to server (packet 0x005B)
233: 0x059D [0x43] SEND_EVENT_UPDATE: Check pending flag (skip if not pending)
234: 0x059F [0x02] IF !(Work_Zone[2] == 4294967295*) GOTO 0x05AE
235: 0x05A7 [0x1D] PRINT_EVENT_MESSAGE(message_id=9455*)
    → "I'm sorry, [sir/ma'am], but I am currently not accepting chocobets."
236: 0x05AA [0x23] WAIT_FOR_DIALOG_INTERACTION
237: 0x05AB [0x01] GOTO 0x05C1
238: 0x05AE [0x02] IF !(Work_Zone[2] == 0*) GOTO 0x05BD
239: 0x05B6 [0x1D] PRINT_EVENT_MESSAGE(message_id=9466*)
    → "Attention, bettors! Last call! Last call for chocobets!"
240: 0x05B9 [0x23] WAIT_FOR_DIALOG_INTERACTION
241: 0x05BA [0x01] GOTO 0x05C1
242: 0x05BD [0x1D] PRINT_EVENT_MESSAGE(message_id=9465*)
    → "Attention, bettors! Only $0 [minute/minutes] remaining to place your chocobets!"
243: 0x05C0 [0x23] WAIT_FOR_DIALOG_INTERACTION

SUBROUTINE_05C1:
244: 0x05C1 [0x21] END_EVENT
245: 0x05C2 [0x00] END_REQSTACK()

SUBROUTINE_05D4:
246: 0x05D4 [0x06] Work_Zone_1700[22] = 0
247: 0x05D7 [0x3C] SET_BIT_FLAG_CONDITIONAL(target_work_offset=Work_Zone_1700[22], bit_index_work_offset=ExtData[1]->WorkLocal[14], condition_work_offset=1*)
248: 0x05DE [0x03] Work_Zone[4] = 2*
249: 0x05E3 [0x1D] PRINT_EVENT_MESSAGE(message_id=9443*)
    → "[First/Second]:"
250: 0x05E6 [0x23] WAIT_FOR_DIALOG_INTERACTION
251: 0x05E7 [0x24] CREATE_DIALOG(message_id=9444*, default_option=0*, option_flags=Work_Zone_1700[22])
    → "Which chocobo would you like to select? [Entry No. 1./Entry No. 2./Entry No. 3./Entry No. 4./Entry No. 5./Entry No. 6./Entry No. 7./Entry No. 8./Quit./Return.]"
252: 0x05EE [0x25] WAIT_DIALOG_SELECT()
253: 0x05EF [0x02] IF !(Work_Zone[0] == 0*) GOTO 0x05FF
254: 0x05F7 [0x03] ExtData[1]->WorkLocal[15] = 0*
255: 0x05FC [0x01] GOTO 0x06B5
256: 0x05FF [0x02] IF !(Work_Zone[0] == 1*) GOTO 0x060F
257: 0x0607 [0x03] ExtData[1]->WorkLocal[15] = 1*
258: 0x060C [0x01] GOTO 0x06B5
259: 0x060F [0x02] IF !(Work_Zone[0] == 2*) GOTO 0x061F
260: 0x0617 [0x03] ExtData[1]->WorkLocal[15] = 2*
261: 0x061C [0x01] GOTO 0x06B5
262: 0x061F [0x02] IF !(Work_Zone[0] == 3*) GOTO 0x062F
263: 0x0627 [0x03] ExtData[1]->WorkLocal[15] = 3*
264: 0x062C [0x01] GOTO 0x06B5
265: 0x062F [0x02] IF !(Work_Zone[0] == 4*) GOTO 0x063F
266: 0x0637 [0x03] ExtData[1]->WorkLocal[15] = 4*
267: 0x063C [0x01] GOTO 0x06B5
268: 0x063F [0x02] IF !(Work_Zone[0] == 5*) GOTO 0x064F
269: 0x0647 [0x03] ExtData[1]->WorkLocal[15] = 5*
270: 0x064C [0x01] GOTO 0x06B5
271: 0x064F [0x02] IF !(Work_Zone[0] == 6*) GOTO 0x065F
272: 0x0657 [0x03] ExtData[1]->WorkLocal[15] = 6*
273: 0x065C [0x01] GOTO 0x06B5
274: 0x065F [0x02] IF !(Work_Zone[0] == 7*) GOTO 0x066F
275: 0x0667 [0x03] ExtData[1]->WorkLocal[15] = 7*
276: 0x066C [0x01] GOTO 0x06B5
277: 0x066F [0x02] IF !(Work_Zone[0] == 8*) GOTO 0x06A7
278: 0x0677 [0x03] Work_Zone[1] = 3*
279: 0x067C [0x43] SEND_EVENT_UPDATE: Send pending tag to server (packet 0x005B)
280: 0x067E [0x43] SEND_EVENT_UPDATE: Check pending flag (skip if not pending)
281: 0x0680 [0x02] IF !(Work_Zone[2] == 4294967295*) GOTO 0x068F
282: 0x0688 [0x1D] PRINT_EVENT_MESSAGE(message_id=9455*)
    → "I'm sorry, [sir/ma'am], but I am currently not accepting chocobets."
283: 0x068B [0x23] WAIT_FOR_DIALOG_INTERACTION
284: 0x068C [0x01] GOTO 0x06A2
285: 0x068F [0x02] IF !(Work_Zone[2] == 0*) GOTO 0x069E
286: 0x0697 [0x1D] PRINT_EVENT_MESSAGE(message_id=9466*)
    → "Attention, bettors! Last call! Last call for chocobets!"
287: 0x069A [0x23] WAIT_FOR_DIALOG_INTERACTION
288: 0x069B [0x01] GOTO 0x06A2
289: 0x069E [0x1D] PRINT_EVENT_MESSAGE(message_id=9465*)
    → "Attention, bettors! Only $0 [minute/minutes] remaining to place your chocobets!"
290: 0x06A1 [0x23] WAIT_FOR_DIALOG_INTERACTION

SUBROUTINE_06A2:
291: 0x06A2 [0x21] END_EVENT
292: 0x06A3 [0x00] END_REQSTACK()

SUBROUTINE_06B5:
293: 0x06B5 [0x02] IF !(ExtData[1]->WorkLocal[14] == ExtData[1]->WorkLocal[15]) GOTO 0x06C4
294: 0x06BD [0x1D] PRINT_EVENT_MESSAGE(message_id=9445*)
    → "I'm sorry, [sir/ma'am], but you have already selected that chocobo."
295: 0x06C0 [0x23] WAIT_FOR_DIALOG_INTERACTION
296: 0x06C1 [0x01] GOTO 0x05D4
297: 0x06C4 [0x42] SET_CLI_EVENT_CANCEL_DATA()
298: 0x06C5 [0x03] Work_Zone[1] = 1*
299: 0x06CA [0x40] SET_BIT_WORK_RANGE(start_bit=3*, end_bit=6*, target=Work_Zone[1], source=ExtData[1]->WorkLocal[14])
300: 0x06D3 [0x40] SET_BIT_WORK_RANGE(start_bit=7*, end_bit=10*, target=Work_Zone[1], source=ExtData[1]->WorkLocal[15])
301: 0x06DC [0x43] SEND_EVENT_UPDATE: Send pending tag to server (packet 0x005B)
302: 0x06DE [0x43] SEND_EVENT_UPDATE: Check pending flag (skip if not pending)
303: 0x06E0 [0x03] Work_Zone[2] = ExtData[1]->WorkLocal[14]
304: 0x06E5 [0x03] Work_Zone[3] = ExtData[1]->WorkLocal[15]
305: 0x06EA [0x07] Work_Zone[2] += 1*
306: 0x06EF [0x07] Work_Zone[3] += 1*
307: 0x06F4 [0x1D] PRINT_EVENT_MESSAGE(message_id=9446*)
    → "You have selected Entries No. $0 and No. $1. This pairing will pay back $2 gil on each quill."
308: 0x06F7 [0x23] WAIT_FOR_DIALOG_INTERACTION
309: 0x06F8 [0x24] CREATE_DIALOG(message_id=9447*, default_option=1*, option_flags=0*)
    → "Proceed? [Yes./No.]"
310: 0x06FF [0x25] WAIT_DIALOG_SELECT()
311: 0x0700 [0x02] IF !(Work_Zone[0] == 0*) GOTO 0x0830
312: 0x0708 [0x1D] PRINT_EVENT_MESSAGE(message_id=9448*)
    → "Your chocobet ticket will cost 100 gil per quill. How many quills would you like to purchase?"
313: 0x070B [0x23] WAIT_FOR_DIALOG_INTERACTION

SUBROUTINE_070C:
314: 0x070C [0x71] USER_INPUT_HANDLER: Open numerical input dialog (work=0*)
315: 0x0710 [0x71] USER_INPUT_HANDLER: Process numerical input A (work=ExtData[1]->WorkLocal[16])
316: 0x0714 [0x02] IF !(ExtData[1]->WorkLocal[16] <= 999*) GOTO 0x0723
317: 0x071C [0x1D] PRINT_EVENT_MESSAGE(message_id=9453*)
    → "You can only purchase up to 999 quills on a single chocobet ticket."
318: 0x071F [0x23] WAIT_FOR_DIALOG_INTERACTION
319: 0x0720 [0x01] GOTO 0x082A
320: 0x0723 [0x02] IF !(ExtData[1]->WorkLocal[16] == 0*) GOTO 0x0780
321: 0x072B [0x1D] PRINT_EVENT_MESSAGE(message_id=9451*)
    → "Are you having second thoughts?"
322: 0x072E [0x23] WAIT_FOR_DIALOG_INTERACTION
323: 0x072F [0x24] CREATE_DIALOG(message_id=9452*, default_option=1*, option_flags=0*)
    → "Cancel your bet? [Yes, this doesn't feel right.../No, no, no! Let it ride!]"
324: 0x0736 [0x25] WAIT_DIALOG_SELECT()
325: 0x0737 [0x02] IF !(Work_Zone[0] == 0*) GOTO 0x076F
326: 0x073F [0x03] Work_Zone[1] = 3*
327: 0x0744 [0x43] SEND_EVENT_UPDATE: Send pending tag to server (packet 0x005B)
328: 0x0746 [0x43] SEND_EVENT_UPDATE: Check pending flag (skip if not pending)
329: 0x0748 [0x02] IF !(Work_Zone[2] == 4294967295*) GOTO 0x0757
330: 0x0750 [0x1D] PRINT_EVENT_MESSAGE(message_id=9455*)
    → "I'm sorry, [sir/ma'am], but I am currently not accepting chocobets."
331: 0x0753 [0x23] WAIT_FOR_DIALOG_INTERACTION
332: 0x0754 [0x01] GOTO 0x076A
333: 0x0757 [0x02] IF !(Work_Zone[2] == 0*) GOTO 0x0766
334: 0x075F [0x1D] PRINT_EVENT_MESSAGE(message_id=9466*)
    → "Attention, bettors! Last call! Last call for chocobets!"
335: 0x0762 [0x23] WAIT_FOR_DIALOG_INTERACTION
336: 0x0763 [0x01] GOTO 0x076A
337: 0x0766 [0x1D] PRINT_EVENT_MESSAGE(message_id=9465*)
    → "Attention, bettors! Only $0 [minute/minutes] remaining to place your chocobets!"
338: 0x0769 [0x23] WAIT_FOR_DIALOG_INTERACTION

SUBROUTINE_076A:
339: 0x076A [0x21] END_EVENT
340: 0x076B [0x00] END_REQSTACK()

SUBROUTINE_077D:
341: 0x077D [0x01] GOTO 0x082A
342: 0x0780 [0x03] Work_Zone[3] = ExtData[1]->WorkLocal[16]
343: 0x0785 [0x03] Work_Zone[4] = ExtData[1]->WorkLocal[16]
344: 0x078A [0x14] Work_Zone[4] *= 100*
345: 0x078F [0x1D] PRINT_EVENT_MESSAGE(message_id=9449*)
    → "$1 [quill/quills] brings your total to $2 gil. Would you care to proceed?"
346: 0x0792 [0x23] WAIT_FOR_DIALOG_INTERACTION
347: 0x0793 [0x24] CREATE_DIALOG(message_id=9447*, default_option=1*, option_flags=0*)
    → "Proceed? [Yes./No.]"
348: 0x079A [0x25] WAIT_DIALOG_SELECT()
349: 0x079B [0x02] IF !(Work_Zone[0] == 0*) GOTO 0x082A
350: 0x07A3 [0x03] Work_Zone[1] = 2*
351: 0x07A8 [0x40] SET_BIT_WORK_RANGE(start_bit=3*, end_bit=6*, target=Work_Zone[1], source=ExtData[1]->WorkLocal[14])
352: 0x07B1 [0x40] SET_BIT_WORK_RANGE(start_bit=7*, end_bit=10*, target=Work_Zone[1], source=ExtData[1]->WorkLocal[15])
353: 0x07BA [0x40] SET_BIT_WORK_RANGE(start_bit=11*, end_bit=22*, target=Work_Zone[1], source=ExtData[1]->WorkLocal[16])
354: 0x07C3 [0x43] SEND_EVENT_UPDATE: Send pending tag to server (packet 0x005B)
355: 0x07C5 [0x43] SEND_EVENT_UPDATE: Check pending flag (skip if not pending)
356: 0x07C7 [0x02] IF !(Work_Zone[2] == 1*) GOTO 0x07D8
357: 0x07CF [0x1D] PRINT_EVENT_MESSAGE(message_id=9450*)
    → "Best of luck! Thank you for your patronage."
358: 0x07D2 [0x23] WAIT_FOR_DIALOG_INTERACTION
359: 0x07D3 [0x21] END_EVENT
360: 0x07D4 [0x00] END_REQSTACK()

SUBROUTINE_0825:
361: 0x0825 [0x21] END_EVENT
362: 0x0826 [0x00] END_REQSTACK()

SUBROUTINE_082A:
363: 0x082A [0x01] GOTO 0x070C

SUBROUTINE_0830:
364: 0x0830 [0x2E] SET_CLI_EVENT_CANCEL_FLAGS()
365: 0x0831 [0x01] GOTO 0x04FD

SUBROUTINE_083F:
366: 0x083F [0x24] CREATE_DIALOG(message_id=9456*, default_option=0*, option_flags=0*)
    → "What topic would you like clarification on? [Chocobet tickets./Winnings./Quit./Return.]"
367: 0x0846 [0x25] WAIT_DIALOG_SELECT()
368: 0x0847 [0x02] IF !(Work_Zone[0] == 0*) GOTO 0x085E
369: 0x084F [0x1D] PRINT_EVENT_MESSAGE(message_id=9457*)
    → "When purchasing a chocobet ticket, you will be asked to place a quinella bet. This means that you will choose the two chocobos that you think will place first and second. If you are lucky enough to win, you may then exchange the ticket and collect your winnings."
370: 0x0852 [0x23] WAIT_FOR_DIALOG_INTERACTION
371: 0x0853 [0x1D] PRINT_EVENT_MESSAGE(message_id=9458*)
    → "In our current chocobet system, as long as your two picks finish in the top two, the order doesn't matter."
372: 0x0856 [0x23] WAIT_FOR_DIALOG_INTERACTION
373: 0x0857 [0x1D] PRINT_EVENT_MESSAGE(message_id=9459*)
    → "The size of a chocobet ticket is measured in quills. One quill costs 100 gil, and a single ticket can contain up to 999 quills. Try it once, and you'll get hooked for sure!"
374: 0x085A [0x23] WAIT_FOR_DIALOG_INTERACTION
375: 0x085B [0x01] GOTO 0x08C3
376: 0x085E [0x02] IF !(Work_Zone[0] == 1*) GOTO 0x087D
377: 0x0866 [0x1D] PRINT_EVENT_MESSAGE(message_id=9460*)
    → "You can stand to make quite a profit if you buy a chocobet ticket and it hits!"
378: 0x0869 [0x23] WAIT_FOR_DIALOG_INTERACTION
379: 0x086A [0x1D] PRINT_EVENT_MESSAGE(message_id=9461*)
    → "The fewer the bettors who have selected the same chocobos as you, the greater your winnings will be! In the industry, we call those the "odds.""
380: 0x086D [0x23] WAIT_FOR_DIALOG_INTERACTION
381: 0x086E [0x1D] PRINT_EVENT_MESSAGE(message_id=9462*)
    → "You can always check the current odds when you place a chocobet. However, the odds are always apt to change right up until the chocobet window closes for that race. So be careful!"
382: 0x0871 [0x23] WAIT_FOR_DIALOG_INTERACTION
383: 0x0872 [0x1D] PRINT_EVENT_MESSAGE(message_id=9463*)
    → "To collect your winnings, simply bring your chocobet ticket back to any of us here at the betting center."
384: 0x0875 [0x23] WAIT_FOR_DIALOG_INTERACTION
385: 0x0876 [0x1D] PRINT_EVENT_MESSAGE(message_id=9464*)
    → "However, you should know that a winning chocobet ticket is only valid for one week following completion of the race. After that, it will expire, so be sure to cash it in before then!"
386: 0x0879 [0x23] WAIT_FOR_DIALOG_INTERACTION
387: 0x087A [0x01] GOTO 0x08C3
388: 0x087D [0x02] IF !(Work_Zone[0] == 2*) GOTO 0x08B5
389: 0x0885 [0x03] Work_Zone[1] = 3*
390: 0x088A [0x43] SEND_EVENT_UPDATE: Send pending tag to server (packet 0x005B)
391: 0x088C [0x43] SEND_EVENT_UPDATE: Check pending flag (skip if not pending)
392: 0x088E [0x02] IF !(Work_Zone[2] == 4294967295*) GOTO 0x089D
393: 0x0896 [0x1D] PRINT_EVENT_MESSAGE(message_id=9455*)
    → "I'm sorry, [sir/ma'am], but I am currently not accepting chocobets."
394: 0x0899 [0x23] WAIT_FOR_DIALOG_INTERACTION
395: 0x089A [0x01] GOTO 0x08B0
396: 0x089D [0x02] IF !(Work_Zone[2] == 0*) GOTO 0x08AC
397: 0x08A5 [0x1D] PRINT_EVENT_MESSAGE(message_id=9466*)
    → "Attention, bettors! Last call! Last call for chocobets!"
398: 0x08A8 [0x23] WAIT_FOR_DIALOG_INTERACTION
399: 0x08A9 [0x01] GOTO 0x08B0
400: 0x08AC [0x1D] PRINT_EVENT_MESSAGE(message_id=9465*)
    → "Attention, bettors! Only $0 [minute/minutes] remaining to place your chocobets!"
401: 0x08AF [0x23] WAIT_FOR_DIALOG_INTERACTION

SUBROUTINE_08B0:
402: 0x08B0 [0x21] END_EVENT
403: 0x08B1 [0x00] END_REQSTACK()

SUBROUTINE_08C3:
404: 0x08C3 [0x01] GOTO 0x083F

SUBROUTINE_08C9:
405: 0x08C9 [0x03] Work_Zone[1] = 3*
406: 0x08CE [0x43] SEND_EVENT_UPDATE: Send pending tag to server (packet 0x005B)
407: 0x08D0 [0x43] SEND_EVENT_UPDATE: Check pending flag (skip if not pending)
408: 0x08D2 [0x02] IF !(Work_Zone[2] == 4294967295*) GOTO 0x08E1
409: 0x08DA [0x1D] PRINT_EVENT_MESSAGE(message_id=9455*)
    → "I'm sorry, [sir/ma'am], but I am currently not accepting chocobets."
410: 0x08DD [0x23] WAIT_FOR_DIALOG_INTERACTION
411: 0x08DE [0x01] GOTO 0x08F4
412: 0x08E1 [0x02] IF !(Work_Zone[2] == 0*) GOTO 0x08F0
413: 0x08E9 [0x1D] PRINT_EVENT_MESSAGE(message_id=9466*)
    → "Attention, bettors! Last call! Last call for chocobets!"
414: 0x08EC [0x23] WAIT_FOR_DIALOG_INTERACTION
415: 0x08ED [0x01] GOTO 0x08F4
416: 0x08F0 [0x1D] PRINT_EVENT_MESSAGE(message_id=9465*)
    → "Attention, bettors! Only $0 [minute/minutes] remaining to place your chocobets!"
417: 0x08F3 [0x23] WAIT_FOR_DIALOG_INTERACTION

SUBROUTINE_08F4:
418: 0x08F4 [0x21] END_EVENT
419: 0x08F5 [0x00] END_REQSTACK()
```

#### Data or dead code:

```
# Data Section: 0x0D2C (128 bytes)
     0x0D2C: AC 80 AD 80 AE 80 AF 80 B0 80 B1 80 B2 80 B3 80
     0x0D3C: B4 80 B5 80 B6 80 B7 80 B8 80 B9 80 BA 80 BB 80
     0x0D4C: BC 80 BD 80 BE 80 BF 80 C0 80 C1 80 C2 80 C3 80
     0x0D5C: C4 80 C5 80 C6 80 C7 80 C8 80 C9 80 CA 80 CB 80
     0x0D6C: CC 80 CD 80 CE 80 CF 80 D0 80 D1 80 D2 80 D3 80
     0x0D7C: D4 80 D5 80 D6 80 D7 80 D8 80 D9 80 DA 80 DB 80
     0x0D8C: DC 80 DD 80 DE 80 DF 80 E0 80 E1 80 E2 80 E3 80
     0x0D9C: E4 80 E5 80 E6 80 E7 80 E8 80 E9 80 EA 80 EB 80
# Dead code (unreachable instructions):
     0x01D4 [0x01] GOTO 0x0295
# Dead code (unreachable instructions):
     0x0292 [0x01] GOTO 0x0295
# Dead code (unreachable instructions):
     0x04C6 [0x01] GOTO 0x08C9
     0x04EE [0x01] GOTO 0x08C9
# Dead code (unreachable instructions):
     0x05C3 [0x01] GOTO 0x05D4
     0x05D1 [0x01] GOTO 0x05D4
# Dead code (unreachable instructions):
     0x06A4 [0x01] GOTO 0x06B5
     0x06B2 [0x01] GOTO 0x06B5
# Dead code (unreachable instructions):
     0x076C [0x01] GOTO 0x077D
     0x077A [0x01] GOTO 0x077D
# Dead code (unreachable instructions):
     0x07D5 [0x01] GOTO 0x0827
     0x07E6 [0x01] GOTO 0x0827
     0x07F7 [0x01] GOTO 0x0827
# Dead code (unreachable instructions):
     0x0827 [0x01] GOTO 0x082A
# Dead code (unreachable instructions):
     0x082D [0x01] GOTO 0x0830
# Dead code (unreachable instructions):
     0x0834 [0x01] GOTO 0x08C9
# Dead code (unreachable instructions):
     0x08B2 [0x01] GOTO 0x08C3
     0x08C0 [0x01] GOTO 0x08C3
# Dead code (unreachable instructions):
     0x08C6 [0x01] GOTO 0x08C9
# Dead code (unreachable instructions):
     0x08F6 [0x00] END_REQSTACK()
     0x08F7 [0x80] LOAD_WAIT(entity=Unknown NPC (ID: 2147516416/0x80008000))
     0x08FC [0x0B] 0x0D80++
     0x08FF [0x80] LOAD_WAIT(entity=Unknown NPC (ID: 2149744695/0x80228037))
     0x0904 [0x2C] CREATE_SCHEDULER_TASK: Create scheduler 0x50804F80 with entities [Unknown NPC (ID: 92281728/0x05801B80), Unknown NPC (ID: 1317020800/0x4E802480)]
     0x0911 [0x80] LOAD_WAIT(entity=Unknown NPC (ID: 2151645247/0x803F803F))
     0x0916 [0x3F] 0x3F80 = 0x3F80 % 0x3F80
     0x091D [0x80] LOAD_WAIT(entity=Unknown NPC (ID: 2151645247/0x803F803F))
     0x0922 [0x3F] 0x3F80 = 0x3F80 % 0x3F80
     0x0929 [0x80] LOAD_WAIT(entity=Unknown NPC (ID: 2151645247/0x803F803F))
     0x092E [0x3F] 0x3F80 = 0x3F80 % 0x3F80
     0x0935 [0x80] LOAD_WAIT(entity=Unknown NPC (ID: 2147516416/0x80008000))
     0x093A [0x00] END_REQSTACK()
     0x093B [0x80] LOAD_WAIT(entity=Unknown NPC (ID: 2148106249/0x80098009))
     0x0940 [0x09] 0x0980 |= (1 << 0x0980)
     0x0945 [0x80] LOAD_WAIT(entity=Unknown NPC (ID: 2148237322/0x800B800A))
     0x094A [0x0B] 0x0C80++
     0x094D [0x80] LOAD_WAIT(entity=Unknown NPC (ID: 2148368396/0x800D800C))
     0x0952 [0x3F] 0x3F80 = 0x3F80 % 0x3F80
     0x0959 [0x80] LOAD_WAIT(entity=Unknown NPC (ID: 2151645247/0x803F803F))
     0x095E [0x3F] 0x3F80 = 0x3F80 % 0x3F80
     0x0965 [0x80] LOAD_WAIT(entity=Unknown NPC (ID: 2151645247/0x803F803F))
     0x096A [0x3F] 0x3F80 = 0x3F80 % 0x3F80
     0x0971 [0x80] LOAD_WAIT(entity=Unknown NPC (ID: 2151645247/0x803F803F))
     0x0976 [0x51] END_MAP_SCHEDULER: End scheduler 0x57805680 with entities [Unknown NPC (ID: 1400918656/0x53805280), Unknown NPC (ID: 1434473600/0x55805480)]
     0x0983 [0x80] LOAD_WAIT(entity=Unknown NPC (ID: 2153349208/0x80598058))
     0x0988 [0x5A] UPDATE_EVENT_POSITION: Move EventEntity incrementally towards MovePosition
     0x098A [0x5B] LOAD_EXT_SCHEDULER: Load scheduler 0x00800080 with entities [Unknown NPC (ID: 1585470848/0x5E805D80), Unknown NPC (ID: 8388736/0x00800080)], work=0x5C80
     0x0999 [0x80] LOAD_WAIT(entity=Unknown NPC (ID: 2147516416/0x80008000))
     0x099E [0x00] END_REQSTACK()
     0x099F [0x80] LOAD_WAIT(entity=Unknown NPC (ID: 2147516416/0x80008000))
     0x09A4 [0x00] END_REQSTACK()
     0x09A5 [0x80] LOAD_WAIT(entity=Unknown NPC (ID: 2147516416/0x80008000))
     0x09AA [0x00] END_REQSTACK()
     0x09AB [0x80] LOAD_WAIT(entity=Unknown NPC (ID: 2147516416/0x80008000))
     0x09B0 [0x00] END_REQSTACK()
     0x09B1 [0x80] LOAD_WAIT(entity=Unknown NPC (ID: 2147516416/0x80008000))
     0x09B6 [0x09] 0x0980 |= (1 << 0x0980)
     0x09BB [0x80] LOAD_WAIT(entity=Unknown NPC (ID: 2152759301/0x80508005))
     0x09C0 [0x5F] MULTI_HANDLER_COMPLEX(mode=0x80 - Unknown)
     0x09C2 [0x13] 0x6080 = rand() % 0x6180
     0x09C7 [0x80] LOAD_WAIT(entity=Unknown NPC (ID: 2154004578/0x80638062))
     0x09CC [0x64] CALCULATE_DISTANCE: 0x1480 = distance between point1(0x3F80, 0x80) and point2(0x80, 0x80)
     0x09D7 [0x80] LOAD_WAIT(entity=Unknown NPC (ID: 2147516416/0x80008000))
     0x09DC [0x00] END_REQSTACK()
     0x09DD [0x80] LOAD_WAIT(entity=Unknown NPC (ID: 2147516416/0x80008000))
     0x09E2 [0x00] END_REQSTACK()
     0x09E3 [0x80] LOAD_WAIT(entity=Unknown NPC (ID: 2147516416/0x80008000))
     0x09E8 [0x00] END_REQSTACK()
     0x09E9 [0x80] LOAD_WAIT(entity=Unknown NPC (ID: 2147516416/0x80008000))
     0x09EE [0x00] END_REQSTACK()
     0x09EF [0x80] LOAD_WAIT(entity=Unknown NPC (ID: 2147516416/0x80008000))
     0x09F4 [0x00] END_REQSTACK()
     0x09F5 [0x80] LOAD_WAIT(entity=Unknown NPC (ID: 2147516416/0x80008000))
     0x09FA [0x0B] 0x80++
     0x09FD [0x80] LOAD_WAIT(entity=Unknown NPC (ID: 2147516416/0x80008000))
     0x0A02 [0x00] END_REQSTACK()
     0x0A03 [0x80] LOAD_WAIT(entity=Unknown NPC (ID: 2149744695/0x80228037))
     0x0A08 [0x22] ENTITY_HIDE_FLAG(enabled=0x80)
     0x0A0A [0x2C] CREATE_SCHEDULER_TASK: Create scheduler 0x00800080 with entities [Unknown NPC (ID: 92286080/0x05802C80), Unknown NPC (ID: 8390016/0x00800580)]
     0x0A17 [0x80] LOAD_WAIT(entity=Unknown NPC (ID: 2147516416/0x80008000))
     0x0A1C [0x00] END_REQSTACK()
     0x0A1D [0x80] LOAD_WAIT(entity=Unknown NPC (ID: 2147516416/0x80008000))
     0x0A22 [0x00] END_REQSTACK()
     0x0A23 [0x80] LOAD_WAIT(entity=Unknown NPC (ID: 2147516416/0x80008000))
     0x0A28 [0x00] END_REQSTACK()
     0x0A29 [0x80] LOAD_WAIT(entity=Unknown NPC (ID: 2147516416/0x80008000))
     0x0A2E [0x00] END_REQSTACK()
     0x0A2F [0x80] LOAD_WAIT(entity=Unknown NPC (ID: 2147516416/0x80008000))
     0x0A34 [0x00] END_REQSTACK()
     0x0A35 [0x80] LOAD_WAIT(entity=Unknown NPC (ID: 2148106249/0x80098009))
     0x0A3A [0x09] 0x0980 |= (1 << 0x0980)
     0x0A3F [0x80] LOAD_WAIT(entity=Unknown NPC (ID: 2148106249/0x80098009))
     0x0A44 [0x09] 0x0A80 |= (1 << 0x0E80)
     0x0A49 [0x80] LOAD_WAIT(entity=Unknown NPC (ID: 2154135566/0x8065800E))
     0x0A4E [0x09] 0x0E80 |= (1 << 0x0980)
     0x0A53 [0x80] LOAD_WAIT(entity=Unknown NPC (ID: 2148106249/0x80098009))
     0x0A58 [0x09] 0x0980 |= (1 << 0x0980)
     0x0A5D [0x80] LOAD_WAIT(entity=Unknown NPC (ID: 2148106249/0x80098009))
     0x0A62 [0x09] 0x0980 |= (1 << 0x3F80)
     0x0A67 [0x80] LOAD_WAIT(entity=Unknown NPC (ID: 2148630630/0x80118066))
     0x0A6C [0x67] HIDE_HUD_ELEMENTS(param1=0x6880, param2=0x6980)
     0x0A71 [0x80] LOAD_WAIT(entity=Unknown NPC (ID: 2152890474/0x8052806A))
     0x0A76 [0x53] WAIT_SCHEDULER_TASK: Wait for scheduler 0x6F806E80 with entities [Unknown NPC (ID: 1820355456/0x6C806B80), Unknown NPC (ID: 1837126784/0x6D805480)]
     0x0A83 [0x80] LOAD_WAIT(entity=Unknown NPC (ID: 2153152597/0x80568055))
     0x0A88 [0x57] CREATE_FRAME_DELAY(delay=0x5880)
     0x0A8B [0x80] LOAD_WAIT(entity=Unknown NPC (ID: 2153414745/0x805A8059))
     0x0A90 [0x5B] LOAD_EXT_SCHEDULER: Load scheduler 0x73807280 with entities [Unknown NPC (ID: 1887460736/0x70805D80), Unknown NPC (ID: 1904238208/0x71805E80)], work=0x5C80
     0x0A9F [0x80] LOAD_WAIT(entity=Unknown NPC (ID: 2155184244/0x80758074))
     0x0AA4 [0x76] CHECK_ENTITY_RENDER_FLAGS: Wait until Unknown NPC (ID: 2021685120/0x78807780) Render.Flags0 and Render.Flags3 conditions are met
     0x0AA9 [0x80] LOAD_WAIT(entity=Unknown NPC (ID: 2155511929/0x807A8079))
     0x0AAE [0x7B] Unknown NPC (ID: 2105572480/0x7D807C80) stops talking
     0x0AB3 [0x80] LOAD_WAIT(entity=Unknown NPC (ID: 2155839614/0x807F807E))
     0x0AB8 [0x80] LOAD_WAIT(entity=Unknown NPC (ID: 2189459840/0x82808180))
     0x0ABD [0x80] LOAD_WAIT(entity=Unknown NPC (ID: 2156167299/0x80848083))
     0x0AC2 [0x85] OPEN_MOOGLE_MENU()
     0x0AC3 [0x80] LOAD_WAIT(entity=Unknown NPC (ID: 2156363910/0x80878086))
     0x0AC8 [0x88] WORLD_PASS_HANDLER_B: Send world pass packet 0x1B (Para=1, sets RecFriendPassFlag)
     0x0AC9 [0x80] LOAD_WAIT(entity=Unknown NPC (ID: 2156560521/0x808A8089))
     0x0ACE [0x8B] SET_EVENT_MARK: Add/update map marker on map References[3200] at (References[3712], References[3968]), index=References[3456], name=(no name)
     0x0AD7 [0x80] LOAD_WAIT(entity=Unknown NPC (ID: 2157019280/0x80918090))
     0x0ADC [0x92] Unknown NPC (ID: 2157150355/0x80938093)->Render.Flags3 ^= 0x80
     0x0AE2 [0x93] DISPLAY_ITEM_INFO(item_id=0x9380)
     0x0AE5 [0x80] LOAD_WAIT(entity=Unknown NPC (ID: 2148237325/0x800B800D))
     0x0AEA [0x09] 0x0980 |= (1 << 0x0980)
     0x0AEF [0x80] LOAD_WAIT(entity=Unknown NPC (ID: 2148106249/0x80098009))
     0x0AF4 [0x00] END_REQSTACK()
     0x0AF5 [0x80] LOAD_WAIT(entity=Unknown NPC (ID: 2157215744/0x80948000))
     0x0AFA [0x95] SETUP_EVENT_NPC: Prepare NPC for event (Render.Flags3 = 0x9680)
     0x0AFD [0x80] LOAD_WAIT(entity=Unknown NPC (ID: 2157478039/0x80988097))
     0x0B02 [0x99] Wait for Unknown NPC (ID: 2608896640/0x9B809A80) animation to complete
     0x0B07 [0x80] LOAD_WAIT(entity=Unknown NPC (ID: 2147516572/0x8000809C))
     0x0B0C [0x00] END_REQSTACK()
     0x0B0D [0x80] LOAD_WAIT(entity=Unknown NPC (ID: 2147516416/0x80008000))
     0x0B12 [0x00] END_REQSTACK()
     0x0B13 [0x80] LOAD_WAIT(entity=Unknown NPC (ID: 2147516416/0x80008000))
     0x0B18 [0x00] END_REQSTACK()
     0x0B19 [0x80] LOAD_WAIT(entity=Unknown NPC (ID: 2147516416/0x80008000))
     0x0B1E [0x00] END_REQSTACK()
     0x0B1F [0x80] LOAD_WAIT(entity=Unknown NPC (ID: 2147516416/0x80008000))
     0x0B24 [0x00] END_REQSTACK()
     0x0B25 [0x80] LOAD_WAIT(entity=Unknown NPC (ID: 2147516416/0x80008000))
     0x0B2A [0x00] END_REQSTACK()
     0x0B2B [0x80] LOAD_WAIT(entity=Unknown NPC (ID: 2157871261/0x809E809D))
     0x0B30 [0x9F] LOAD_SCHEDULED_TASK_ALT: Load scheduler 0x01800A80 with entities [Unknown NPC (ID: 209756544/0x0C80A180), Unknown NPC (ID: 25169536/0x01800E80)], work=[0xA080, 0x0180]
     0x0B41 [0x80] LOAD_WAIT(entity=Unknown NPC (ID: 2147581963/0x8001800B))
     0x0B46 [0x0A] 0x0180 &= ~(1 << 0x0180)
     0x0B4B [0x80] LOAD_WAIT(entity=Unknown NPC (ID: 2147581953/0x80018001))
     0x0B50 [0x01] GOTO 0x0180
     0x0B53 [0x80] LOAD_WAIT(entity=Unknown NPC (ID: 2147516417/0x80008001))
     0x0B58 [0x00] END_REQSTACK()
     0x0B59 [0x80] LOAD_WAIT(entity=Unknown NPC (ID: 2147516416/0x80008000))
     0x0B5E [0x0A] 0x0B80 &= ~(1 << 0x80)
     0x0B63 [0x80] LOAD_WAIT(entity=Unknown NPC (ID: 2147516425/0x80008009))
     0x0B68 [0x00] END_REQSTACK()
     0x0B69 [0x80] LOAD_WAIT(entity=Unknown NPC (ID: 2147516416/0x80008000))
     0x0B6E [0x0B] 0x0980++
     0x0B71 [0x80] LOAD_WAIT(entity=Unknown NPC (ID: 2148171776/0x800A8000))
     0x0B76 [0x00] END_REQSTACK()
     0x0B77 [0x80] LOAD_WAIT(entity=Unknown NPC (ID: 2147516416/0x80008000))
     0x0B7C [0x00] END_REQSTACK()
     0x0B7D [0x80] LOAD_WAIT(entity=Unknown NPC (ID: 2148171785/0x800A8009))
     0x0B82 [0x00] END_REQSTACK()
     0x0B83 [0x80] LOAD_WAIT(entity=Unknown NPC (ID: 2148302859/0x800C800B))
     0x0B88 [0x0C] 0x0C80--
     0x0B8B [0x80] LOAD_WAIT(entity=Unknown NPC (ID: 2148302860/0x800C800C))
     0x0B90 [0x0C] 0x80--
     0x0B93 [0x80] LOAD_WAIT(entity=Unknown NPC (ID: 2148302848/0x800C8000))
     0x0B98 [0x0C] 0x0C80--
     0x0B9B [0x80] LOAD_WAIT(entity=Unknown NPC (ID: 2148302860/0x800C800C))
     0x0BA0 [0x0C] 0x80--
     0x0BA3 [0x80] LOAD_WAIT(entity=Unknown NPC (ID: 2148302848/0x800C8000))
     0x0BA8 [0x0C] 0x0C80--
     0x0BAB [0x80] LOAD_WAIT(entity=Unknown NPC (ID: 2148302860/0x800C800C))
     0x0BB0 [0x0C] 0x80--
     0x0BB3 [0x80] LOAD_WAIT(entity=Unknown NPC (ID: 2147516416/0x80008000))
     0x0BB8 [0x00] END_REQSTACK()
     0x0BB9 [0x80] LOAD_WAIT(entity=Unknown NPC (ID: 2147516416/0x80008000))
     0x0BBE [0x00] END_REQSTACK()
     0x0BBF [0x80] LOAD_WAIT(entity=Unknown NPC (ID: 2147516416/0x80008000))
     0x0BC4 [0x00] END_REQSTACK()
     0x0BC5 [0x80] LOAD_WAIT(entity=Unknown NPC (ID: 2147516416/0x80008000))
     0x0BCA [0x00] END_REQSTACK()
     0x0BCB [0x80] LOAD_WAIT(entity=Unknown NPC (ID: 2148302861/0x800C800D))
     0x0BD0 [0x00] END_REQSTACK()
     0x0BD1 [0x80] LOAD_WAIT(entity=Unknown NPC (ID: 2147516416/0x80008000))
     0x0BD6 [0x00] END_REQSTACK()
     0x0BD7 [0x80] LOAD_WAIT(entity=Unknown NPC (ID: 2147516416/0x80008000))
     0x0BDC [0x00] END_REQSTACK()
     0x0BDD [0x80] LOAD_WAIT(entity=Unknown NPC (ID: 2147516416/0x80008000))
     0x0BE2 [0x00] END_REQSTACK()
     0x0BE3 [0x80] LOAD_WAIT(entity=Unknown NPC (ID: 2147516416/0x80008000))
     0x0BE8 [0x00] END_REQSTACK()
     0x0BE9 [0x80] LOAD_WAIT(entity=Unknown NPC (ID: 2147516416/0x80008000))
     0x0BEE [0x00] END_REQSTACK()
     0x0BEF [0x80] LOAD_WAIT(entity=Unknown NPC (ID: 2147516416/0x80008000))
     0x0BF4 [0x00] END_REQSTACK()
     0x0BF5 [0x80] LOAD_WAIT(entity=Unknown NPC (ID: 2147516416/0x80008000))
     0x0BFA [0x00] END_REQSTACK()
     0x0BFB [0x80] LOAD_WAIT(entity=Unknown NPC (ID: 2147516416/0x80008000))
     0x0C00 [0x00] END_REQSTACK()
     0x0C01 [0x80] LOAD_WAIT(entity=Unknown NPC (ID: 2147516416/0x80008000))
     0x0C06 [0x00] END_REQSTACK()
     0x0C07 [0x80] LOAD_WAIT(entity=Unknown NPC (ID: 2147516416/0x80008000))
     0x0C0C [0x00] END_REQSTACK()
     0x0C0D [0x80] LOAD_WAIT(entity=Unknown NPC (ID: 2147516416/0x80008000))
     0x0C12 [0x00] END_REQSTACK()
     0x0C13 [0x80] LOAD_WAIT(entity=Unknown NPC (ID: 2147516416/0x80008000))
     0x0C18 [0x00] END_REQSTACK()
     0x0C19 [0x80] LOAD_WAIT(entity=Unknown NPC (ID: 2147516416/0x80008000))
     0x0C1E [0x00] END_REQSTACK()
     0x0C1F [0x80] LOAD_WAIT(entity=Unknown NPC (ID: 2147516416/0x80008000))
     0x0C24 [0x00] END_REQSTACK()
     0x0C25 [0x80] LOAD_WAIT(entity=Unknown NPC (ID: 1377090/0x00150342))
     0x0C2A [0x06] 0x0310 = 0
     0x0C2D [0x01] GOTO 0x0010
     0x0C30 [0x80] LOAD_WAIT(entity=Unknown NPC (ID: 4294963230/0xFFFFF01E))
     0x0C35 [0x7F] WAIT_DIALOG_SELECT_ALT()
     0x0C36 [0x1C] WAIT(30* ticks)
     0x0C39 [0x1D] PRINT_EVENT_MESSAGE(message_id=9478*)
    → "You wish to inquire as to the status of your chocobet ticket? Very well; one moment, please."
     0x0C3C [0x23] WAIT_FOR_DIALOG_INTERACTION
     0x0C3D [0x03] Work_Zone[1] = 1*
     0x0C42 [0x43] SEND_EVENT_UPDATE: Send pending tag to server (packet 0x005B)
     0x0C44 [0x43] SEND_EVENT_UPDATE: Check pending flag (skip if not pending)
     0x0C46 [0x02] IF !(Work_Zone[9] == 0*) GOTO 0x0C52
     0x0C4E [0x1D] PRINT_EVENT_MESSAGE(message_id=9479*)
    → "The results for that race are in. The top two chocobos were No. $1 and No. $2."
     0x0C51 [0x23] WAIT_FOR_DIALOG_INTERACTION
     0x0C52 [0x02] IF !(ExtData[1]->WorkLocal[21] == 0*) GOTO 0x0C66
     0x0C5A [0x1D] PRINT_EVENT_MESSAGE(message_id=9475*)
    → "Unfortunately, there was an error in the processing of your chocobet. Please place your bet again."
     0x0C5D [0x23] WAIT_FOR_DIALOG_INTERACTION
     0x0C5E [0x03] Work_Zone[1] = 2*
     0x0C63 [0x01] GOTO 0x0D2B
     0x0C66 [0x02] IF !(ExtData[1]->WorkLocal[21] == 1*) GOTO 0x0CA1
     0x0C6E [0x1D] PRINT_EVENT_MESSAGE(message_id=9469*)
    → "This chocobet ticket is worth $0 gil. Would you like to cash it in now?"
     0x0C71 [0x23] WAIT_FOR_DIALOG_INTERACTION
     0x0C72 [0x24] CREATE_DIALOG(message_id=9470*, default_option=1*, option_flags=0*)
    → "Collect your winnings? [Yes./No.]"
     0x0C79 [0x25] WAIT_DIALOG_SELECT()
     0x0C7A [0x02] IF !(Work_Zone[0] == 0*) GOTO 0x0C8A
     0x0C82 [0x03] Work_Zone[1] = 1*
     0x0C87 [0x01] GOTO 0x0C9E
     0x0C8A [0x02] IF !(Work_Zone[0] == 1*) GOTO 0x0C9E
     0x0C92 [0x1D] PRINT_EVENT_MESSAGE(message_id=9471*)
    → "Very well. Here is your ticket back then, [sir/ma'am]. Next!"
     0x0C95 [0x23] WAIT_FOR_DIALOG_INTERACTION
     0x0C96 [0x03] Work_Zone[1] = 2*
     0x0C9B [0x01] GOTO 0x0C9E
     0x0C9E [0x01] GOTO 0x0D2B
     0x0CA1 [0x02] IF !(ExtData[1]->WorkLocal[21] == 2*) GOTO 0x0CDC
     0x0CA9 [0x1D] PRINT_EVENT_MESSAGE(message_id=9472*)
    → "Unfortunately, this is what we call a "losing ticket." More specifically, the chocobos you selected didn't win. Better luck next time!"
     0x0CAC [0x23] WAIT_FOR_DIALOG_INTERACTION
     0x0CAD [0x1D] PRINT_EVENT_MESSAGE(message_id=9480*)
    → "Would you like me to process your chocobet ticket?"
     0x0CB0 [0x23] WAIT_FOR_DIALOG_INTERACTION
     0x0CB1 [0x24] CREATE_DIALOG(message_id=9481*, default_option=1*, option_flags=0*)
    → "Have your ticket processed? [Yes, please./Not now, thank you.]"
     0x0CB8 [0x25] WAIT_DIALOG_SELECT()
     0x0CB9 [0x02] IF !(Work_Zone[0] == 0*) GOTO 0x0CC9
     0x0CC1 [0x03] Work_Zone[1] = 3*
     0x0CC6 [0x01] GOTO 0x0CD9
     0x0CC9 [0x02] IF !(Work_Zone[0] == 1*) GOTO 0x0CD9
     0x0CD1 [0x03] Work_Zone[1] = 2*
     0x0CD6 [0x01] GOTO 0x0CD9
     0x0CD9 [0x01] GOTO 0x0D2B
     0x0CDC [0x02] IF !(ExtData[1]->WorkLocal[21] == 3*) GOTO 0x0D17
     0x0CE4 [0x1D] PRINT_EVENT_MESSAGE(message_id=9473*)
    → "The one-week grace period on your chocobet ticket has expired. Regrettably, we are unable to cash you out..."
     0x0CE7 [0x23] WAIT_FOR_DIALOG_INTERACTION
     0x0CE8 [0x1D] PRINT_EVENT_MESSAGE(message_id=9480*)
    → "Would you like me to process your chocobet ticket?"
     0x0CEB [0x23] WAIT_FOR_DIALOG_INTERACTION
     0x0CEC [0x24] CREATE_DIALOG(message_id=9481*, default_option=1*, option_flags=0*)
    → "Have your ticket processed? [Yes, please./Not now, thank you.]"
     0x0CF3 [0x25] WAIT_DIALOG_SELECT()
     0x0CF4 [0x02] IF !(Work_Zone[0] == 0*) GOTO 0x0D04
     0x0CFC [0x03] Work_Zone[1] = 3*
     0x0D01 [0x01] GOTO 0x0D14
     0x0D04 [0x02] IF !(Work_Zone[0] == 1*) GOTO 0x0D14
     0x0D0C [0x03] Work_Zone[1] = 2*
     0x0D11 [0x01] GOTO 0x0D14
     0x0D14 [0x01] GOTO 0x0D2B
     0x0D17 [0x02] IF !(ExtData[1]->WorkLocal[21] == 4*) GOTO 0x0D2B
     0x0D1F [0x1D] PRINT_EVENT_MESSAGE(message_id=9474*)
    → "The outcome of that race is not yet decided. Please come back after the race is finished. Good luck!"
     0x0D22 [0x23] WAIT_FOR_DIALOG_INTERACTION
     0x0D23 [0x03] Work_Zone[1] = 2*
     0x0D28 [0x01] GOTO 0x0D2B
     0x0D2B [0x1B] RETURN
```

### Event 219

#### Metadata

| Field        | Value    |
|--------------|----------|
| Entrypoint   | 0x0DAC   |
| Data Size    | 14 bytes |
| Instructions | 6        |

```
      00 01 02 03 04 05 06 07  08 09 0A 0B 0C 0D 0E 0F
      -- -- -- -- -- -- -- --  -- -- -- -- -- -- -- --
0DA0:                                      1E F0 FF FF              ....
0DB0: 7F 1C 05 80 1D EC 80 23  21 00                    .......#!.      
```

#### Opcodes

```
  0: 0x0DAC [0x1E] EventEntity looks at LocalPlayer and starts talking
  1: 0x0DB1 [0x1C] WAIT(30* ticks)
  2: 0x0DB4 [0x1D] PRINT_EVENT_MESSAGE(message_id=9467*)
    → "I'm sorry, [sir/ma'am], but we are currently not accepting chocobets."
  3: 0x0DB7 [0x23] WAIT_FOR_DIALOG_INTERACTION
  4: 0x0DB8 [0x21] END_EVENT
  5: 0x0DB9 [0x00] END_REQSTACK()
```

### Event 234

#### Metadata

| Field        | Value    |
|--------------|----------|
| Entrypoint   | 0x0DBA   |
| Data Size    | 14 bytes |
| Instructions | 6        |

```
      00 01 02 03 04 05 06 07  08 09 0A 0B 0C 0D 0E 0F
      -- -- -- -- -- -- -- --  -- -- -- -- -- -- -- --
0DB0:                                1E F0 FF FF 7F 1C            ......
0DC0: 05 80 1D ED 80 23 21 00                           .....#!.        
```

#### Opcodes

```
  0: 0x0DBA [0x1E] EventEntity looks at LocalPlayer and starts talking
  1: 0x0DBF [0x1C] WAIT(30* ticks)
  2: 0x0DC2 [0x1D] PRINT_EVENT_MESSAGE(message_id=9468*)
    → "Bettors may now cash in their chocobet tickets. Please come forward with your winning stubs."
  3: 0x0DC5 [0x23] WAIT_FOR_DIALOG_INTERACTION
  4: 0x0DC6 [0x21] END_EVENT
  5: 0x0DC7 [0x00] END_REQSTACK()
```

### Event 223

#### Metadata

| Field        | Value   |
|--------------|---------|
| Entrypoint   | 0x0DC8  |
| Data Size    | 5 bytes |
| Instructions | 3       |

```
      00 01 02 03 04 05 06 07  08 09 0A 0B 0C 0D 0E 0F
      -- -- -- -- -- -- -- --  -- -- -- -- -- -- -- --
0DC0:                          1A 26 0C 21 00                   .&.!.   
```

#### Opcodes

```
  0: 0x0DC8 [0x1A] CALL_SUBROUTINE(address=0x0C26)
  1: 0x0DCB [0x21] END_EVENT
  2: 0x0DCC [0x00] END_REQSTACK()
```

### Event 213

#### Metadata

| Field        | Value   |
|--------------|---------|
| Entrypoint   | 0x0DCD  |
| Data Size    | 1 bytes |
| Instructions | 1       |

```
      00 01 02 03 04 05 06 07  08 09 0A 0B 0C 0D 0E 0F
      -- -- -- -- -- -- -- --  -- -- -- -- -- -- -- --
0DC0:                                         00                     .  
```

#### Opcodes

```
  0: 0x0DCD [0x00] END_REQSTACK()
```

### Event 212

#### Metadata

| Field        | Value   |
|--------------|---------|
| Entrypoint   | 0x0DCE  |
| Data Size    | 1 bytes |
| Instructions | 1       |

```
      00 01 02 03 04 05 06 07  08 09 0A 0B 0C 0D 0E 0F
      -- -- -- -- -- -- -- --  -- -- -- -- -- -- -- --
0DC0:                                            00                   . 
```

#### Opcodes

```
  0: 0x0DCE [0x00] END_REQSTACK()
```

### Event 215

#### Metadata

| Field        | Value   |
|--------------|---------|
| Entrypoint   | 0x0DCF  |
| Data Size    | 1 bytes |
| Instructions | 1       |

```
      00 01 02 03 04 05 06 07  08 09 0A 0B 0C 0D 0E 0F
      -- -- -- -- -- -- -- --  -- -- -- -- -- -- -- --
0DC0:                                               00                 .
```

#### Opcodes

```
  0: 0x0DCF [0x00] END_REQSTACK()
```

### Event 228

#### Metadata

| Field        | Value   |
|--------------|---------|
| Entrypoint   | 0x0DD0  |
| Data Size    | 1 bytes |
| Instructions | 1       |

```
      00 01 02 03 04 05 06 07  08 09 0A 0B 0C 0D 0E 0F
      -- -- -- -- -- -- -- --  -- -- -- -- -- -- -- --
0DD0: 00                                                .               
```

#### Opcodes

```
  0: 0x0DD0 [0x00] END_REQSTACK()
```
