# 17063986

## Common Data

| Field            | Value                    |
|------------------|--------------------------|
| Zone             | Chocobo Circuit (ID: 70) |
| Block Size       | 1112 bytes               |
| Total Events     | 15                       |
| References Count | 27                       |

## List of Events

| Event ID                   | Entrypoint   |   Size |   Instructions |
|----------------------------|--------------|--------|----------------|
| [65535](#event-65535)      | 0x0000       |      1 |              1 |
| [479](#event-479)          | 0x0001       |      7 |              2 |
| [488](#event-488)          | 0x0008       |      7 |              2 |
| [497](#event-497)          | 0x000F       |      7 |              2 |
| [65535.1](#event-655351)   | 0x0016       |      1 |              1 |
| [65535.2](#event-655352)   | 0x0017       |     55 |             10 |
| [65535.3](#event-655353)   | 0x004E       |     42 |              6 |
| [65535.4](#event-655354)   | 0x0078       |    267 |             49 |
| [65535.5](#event-655355)   | 0x0183       |    455 |             87 |
| [65535.6](#event-655356)   | 0x034A       |     31 |              4 |
| [65535.7](#event-655357)   | 0x0369       |     22 |              6 |
| [65535.8](#event-655358)   | 0x037F       |     15 |              5 |
| [65535.9](#event-655359)   | 0x038E       |      9 |              3 |
| [65535.10](#event-6553510) | 0x0397       |      3 |              2 |
| [65535.11](#event-6553511) | 0x039A       |      3 |              2 |

## DAT References (imed_data)

|   Index | Hex Value   |   Dec Value |
|---------|-------------|-------------|
|       0 | 0x0000      |           0 |
|       1 | 0x000F      |          15 |
|       2 | 0x0155      |         341 |
|       3 | 0x0035      |          53 |
|       4 | 0x0050      |          80 |
|       5 | 0x0003      |           3 |
|       6 | 0x0001      |           1 |
|       7 | 0x0002      |           2 |
|       8 | 0x0838      |        2104 |
|       9 | 0x0020      |          32 |
|      10 | 0x0004      |           4 |
|      11 | 0x0007      |           7 |
|      12 | 0x0008      |           8 |
|      13 | 0x03E8      |        1000 |
|      14 | 0x001E      |          30 |
|      15 | 0x001F      |          31 |
|      16 | 0x0009      |           9 |
|      17 | 0x0028      |          40 |
|      18 | 0x000E      |          14 |
|      19 | 0x70496     |      459926 |
|      20 | 0x5A72B     |      370475 |
|      21 | 0x5F97      |       24471 |
|      22 | 0x0014      |          20 |
|      23 | 0x70144     |      459076 |
|      24 | 0x5AA04     |      371204 |
|      25 | 0x5F42      |       24386 |
|      26 | 0x2710      |       10000 |

## Events

### Event 65535

#### Metadata

| Field        | Value   |
|--------------|---------|
| Entrypoint   | 0x0000  |
| Data Size    | 1 bytes |
| Instructions | 1       |

```
      00 01 02 03 04 05 06 07  08 09 0A 0B 0C 0D 0E 0F
      -- -- -- -- -- -- -- --  -- -- -- -- -- -- -- --
0000: 00                                                .               
```

#### Opcodes

```
  0: 0x0000 [0x00] END_REQSTACK()
```

### Event 479

#### Metadata

| Field        | Value   |
|--------------|---------|
| Entrypoint   | 0x0001  |
| Data Size    | 7 bytes |
| Instructions | 2       |

```
      00 01 02 03 04 05 06 07  08 09 0A 0B 0C 0D 0E 0F
      -- -- -- -- -- -- -- --  -- -- -- -- -- -- -- --
0000:    94 01 F8 FF FF 7F 00                            .......        
```

#### Opcodes

```
  0: 0x0001 [0x94] EventEntity->Render.Flags3 ^= 0x01
  1: 0x0007 [0x00] END_REQSTACK()
```

### Event 488

#### Metadata

| Field        | Value   |
|--------------|---------|
| Entrypoint   | 0x0008  |
| Data Size    | 7 bytes |
| Instructions | 2       |

```
      00 01 02 03 04 05 06 07  08 09 0A 0B 0C 0D 0E 0F
      -- -- -- -- -- -- -- --  -- -- -- -- -- -- -- --
0000:                          94 01 F8 FF FF 7F 00             ....... 
```

#### Opcodes

```
  0: 0x0008 [0x94] EventEntity->Render.Flags3 ^= 0x01
  1: 0x000E [0x00] END_REQSTACK()
```

### Event 497

#### Metadata

| Field        | Value   |
|--------------|---------|
| Entrypoint   | 0x000F  |
| Data Size    | 7 bytes |
| Instructions | 2       |

```
      00 01 02 03 04 05 06 07  08 09 0A 0B 0C 0D 0E 0F
      -- -- -- -- -- -- -- --  -- -- -- -- -- -- -- --
0000:                                               94                 .
0010: 01 F8 FF FF 7F 00                                 ......          
```

#### Opcodes

```
  0: 0x000F [0x94] EventEntity->Render.Flags3 ^= 0x01
  1: 0x0015 [0x00] END_REQSTACK()
```

### Event 65535.1

#### Metadata

| Field        | Value   |
|--------------|---------|
| Entrypoint   | 0x0016  |
| Data Size    | 1 bytes |
| Instructions | 1       |

```
      00 01 02 03 04 05 06 07  08 09 0A 0B 0C 0D 0E 0F
      -- -- -- -- -- -- -- --  -- -- -- -- -- -- -- --
0010:                   00                                    .         
```

#### Opcodes

```
  0: 0x0016 [0x00] END_REQSTACK()
```

### Event 65535.2

#### Metadata

| Field        | Value    |
|--------------|----------|
| Entrypoint   | 0x0017   |
| Data Size    | 55 bytes |
| Instructions | 10       |

```
      00 01 02 03 04 05 06 07  08 09 0A 0B 0C 0D 0E 0F
      -- -- -- -- -- -- -- --  -- -- -- -- -- -- -- --
0010:                      41  00 80 01 80 42 10 00 00         A....B...
0020: 02 00 00 00 80 01 46 00  B6 00 00 00 02 00 00 02  ......F.........
0030: 80 00 43 00 AB 0D 2C F8  FF FF 7F F8 FF FF 7F 6B  ..C...,........k
0040: 69 6C 6C 01 4A 00 B6 00  03 80 32 04 80 00        ill.J.....2...  
```

#### Opcodes

```
  0: 0x0017 [0x41] ExtData[1]->WorkLocal[0] = Work_Zone[66] (bits 0*-15*)
  1: 0x0020 [0x02] IF !(ExtData[1]->WorkLocal[0] == 0*) GOTO 0x0046
  2: 0x0028 [0xB6] ENTITY_APPEARANCE_HANDLER(case=Hair style, value=ExtData[1]->WorkLocal[0])
  3: 0x002C [0x02] IF !(ExtData[1]->WorkLocal[0] == 341*) GOTO 0x0043
  4: 0x0034 [0xAB] EventEntity->Render.Flags4 |= 0x01 // Set bit 0
  5: 0x0036 [0x2C] CREATE_SCHEDULER_TASK: Create scheduler "kill" with entities [EventEntity, EventEntity]
  6: 0x0043 [0x01] GOTO 0x004A
  7: 0x0046 [0xB6] ENTITY_APPEARANCE_HANDLER(case=Hair style, value=53*)

SUBROUTINE_004A:
  8: 0x004A [0x32] ExtData[1]->MainSpeed = 80* * 0.1
  9: 0x004D [0x00] END_REQSTACK()
```

### Event 65535.3

#### Metadata

| Field        | Value    |
|--------------|----------|
| Entrypoint   | 0x004E   |
| Data Size    | 42 bytes |
| Instructions | 6        |

```
      00 01 02 03 04 05 06 07  08 09 0A 0B 0C 0D 0E 0F
      -- -- -- -- -- -- -- --  -- -- -- -- -- -- -- --
0040:                                            9D 03                ..
0050: 05 80 04 00 00 80 9D 03  05 80 05 00 06 80 9D 03  ................
0060: 05 80 06 00 07 80 9D 03  05 80 07 00 05 80 37 04  ..............7.
0070: 00 06 00 05 00 08 80 00                           ........        
```

#### Opcodes

```
  0: 0x004E [0x9D] 0* = Work_Zone[3*][ExtData[1]->WorkLocal[4]] // Via remapped space
  1: 0x0056 [0x9D] 1* = Work_Zone[3*][ExtData[1]->WorkLocal[5]] // Via remapped space
  2: 0x005E [0x9D] 2* = Work_Zone[3*][ExtData[1]->WorkLocal[6]] // Via remapped space
  3: 0x0066 [0x9D] 3* = Work_Zone[3*][ExtData[1]->WorkLocal[7]] // Via remapped space
  4: 0x006E [0x37] UPDATE_EVENT_POSITION_AND_DIR: x=ExtData[1]->WorkLocal[4], z=ExtData[1]->WorkLocal[6], y=ExtData[1]->WorkLocal[5], direction=184.9°*
  5: 0x0077 [0x00] END_REQSTACK()
```

### Event 65535.4

#### Metadata

| Field        | Value     |
|--------------|-----------|
| Entrypoint   | 0x0078    |
| Data Size    | 267 bytes |
| Instructions | 49        |

```
      00 01 02 03 04 05 06 07  08 09 0A 0B 0C 0D 0E 0F
      -- -- -- -- -- -- -- --  -- -- -- -- -- -- -- --
0070:                          03 02 00 2C 10 03 09 00          ...,....
0080: 2C 10 03 0A 00 2D 10 03  0C 00 29 10 02 0C 00 09  ,....-....).....
0090: 80 03 B4 00 41 0A 80 0B  80 26 10 0E 00 03 0D 00  ....A....&......
00A0: 0C 80 08 0D 00 0E 00 07  09 00 0D 00 03 0E 00 0D  ................
00B0: 00 01 B7 00 06 0E 00 02  0C 00 09 80 03 DF 00 41  ...............A
00C0: 0A 80 0B 80 27 10 0F 00  03 0D 00 0C 80 08 0D 00  ....'...........
00D0: 0F 00 07 0A 00 0D 00 03  0F 00 0D 00 01 E2 00 06  ................
00E0: 0F 00 03 03 00 09 00 14  03 00 0A 80 9D 03 05 80  ................
00F0: 04 00 03 00 0B 03 00 9D  03 05 80 05 00 03 00 0B  ................
0100: 03 00 9D 03 05 80 06 00  03 00 0B 03 00 9D 03 05  ................
0110: 80 07 00 03 00 02 0C 00  00 80 00 20 01 01 27 01  ........... ..'.
0120: 36 04 00 06 00 05 00 40  0C 80 01 80 35 10 0C 00  6......@....5...
0130: 08 0F 00 0E 00 9D 03 00  80 0E 00 0C 00 07 0F 00  ................
0140: 0E 00 9D 03 00 80 0D 00  0C 00 14 0F 00 0D 80 15  ................
0150: 0F 00 0D 00 03 0D 00 0F  00 03 0E 00 0C 00 14 0E  ................
0160: 00 0C 80 07 0E 00 06 80  9D 03 06 80 0E 00 0E 00  ................
0170: 14 0D 00 0E 00 03 08 00  0D 00 15 08 00 0D 80 32  ...............2
0180: 08 00 00                                          ...             
```

#### Opcodes

```
  0: 0x0078 [0x03] ExtData[1]->WorkLocal[2] = Work_Zone[44]
  1: 0x007D [0x03] ExtData[1]->WorkLocal[9] = Work_Zone[44]
  2: 0x0082 [0x03] ExtData[1]->WorkLocal[10] = Work_Zone[45]
  3: 0x0087 [0x03] ExtData[1]->WorkLocal[12] = Work_Zone[41]
  4: 0x008C [0x02] IF !(ExtData[1]->WorkLocal[12] >= 32*) GOTO 0x00B4
  5: 0x0094 [0x41] ExtData[1]->WorkLocal[14] = Work_Zone[38] (bits 4*-7*)
  6: 0x009D [0x03] ExtData[1]->WorkLocal[13] = 8*
  7: 0x00A2 [0x08] ExtData[1]->WorkLocal[13] -= ExtData[1]->WorkLocal[14]
  8: 0x00A7 [0x07] ExtData[1]->WorkLocal[9] += ExtData[1]->WorkLocal[13]
  9: 0x00AC [0x03] ExtData[1]->WorkLocal[14] = ExtData[1]->WorkLocal[13]
 10: 0x00B1 [0x01] GOTO 0x00B7
 11: 0x00B4 [0x06] ExtData[1]->WorkLocal[14] = 0

SUBROUTINE_00B7:
 12: 0x00B7 [0x02] IF !(ExtData[1]->WorkLocal[12] >= 32*) GOTO 0x00DF
 13: 0x00BF [0x41] ExtData[1]->WorkLocal[15] = Work_Zone[39] (bits 4*-7*)
 14: 0x00C8 [0x03] ExtData[1]->WorkLocal[13] = 8*
 15: 0x00CD [0x08] ExtData[1]->WorkLocal[13] -= ExtData[1]->WorkLocal[15]
 16: 0x00D2 [0x07] ExtData[1]->WorkLocal[10] += ExtData[1]->WorkLocal[13]
 17: 0x00D7 [0x03] ExtData[1]->WorkLocal[15] = ExtData[1]->WorkLocal[13]
 18: 0x00DC [0x01] GOTO 0x00E2
 19: 0x00DF [0x06] ExtData[1]->WorkLocal[15] = 0

SUBROUTINE_00E2:
 20: 0x00E2 [0x03] ExtData[1]->WorkLocal[3] = ExtData[1]->WorkLocal[9]
 21: 0x00E7 [0x14] ExtData[1]->WorkLocal[3] *= 4*
 22: 0x00EC [0x9D] ExtData[1]->WorkLocal[3] = Work_Zone[3*][ExtData[1]->WorkLocal[4]] // Via remapped space
 23: 0x00F4 [0x0B] ExtData[1]->WorkLocal[3]++
 24: 0x00F7 [0x9D] ExtData[1]->WorkLocal[3] = Work_Zone[3*][ExtData[1]->WorkLocal[5]] // Via remapped space
 25: 0x00FF [0x0B] ExtData[1]->WorkLocal[3]++
 26: 0x0102 [0x9D] ExtData[1]->WorkLocal[3] = Work_Zone[3*][ExtData[1]->WorkLocal[6]] // Via remapped space
 27: 0x010A [0x0B] ExtData[1]->WorkLocal[3]++
 28: 0x010D [0x9D] ExtData[1]->WorkLocal[3] = Work_Zone[3*][ExtData[1]->WorkLocal[7]] // Via remapped space
 29: 0x0115 [0x02] IF !(ExtData[1]->WorkLocal[12] == 0*) GOTO 0x0120
 30: 0x011D [0x01] GOTO 0x0127
 31: 0x0120 [0x36] SET_ENTITY_EVENT_POSITION(pos_x=ExtData[1]->WorkLocal[4], pos_z=ExtData[1]->WorkLocal[6], pos_y=ExtData[1]->WorkLocal[5])

SUBROUTINE_0127:
 32: 0x0127 [0x40] SET_BIT_WORK_RANGE(start_bit=8*, end_bit=15*, target=Work_Zone[53], source=ExtData[1]->WorkLocal[12])
 33: 0x0130 [0x08] ExtData[1]->WorkLocal[15] -= ExtData[1]->WorkLocal[14]
 34: 0x0135 [0x9D] ExtData[1]->WorkLocal[12] = Work_Zone[0][ExtData[1]->WorkLocal[14]] // Via remapped space
 35: 0x013D [0x07] ExtData[1]->WorkLocal[15] += ExtData[1]->WorkLocal[14]
 36: 0x0142 [0x9D] ExtData[1]->WorkLocal[12] = Work_Zone[0][ExtData[1]->WorkLocal[13]] // Via remapped space
 37: 0x014A [0x14] ExtData[1]->WorkLocal[15] *= 1000*
 38: 0x014F [0x15] ExtData[1]->WorkLocal[15] /= ExtData[1]->WorkLocal[13]
 39: 0x0154 [0x03] ExtData[1]->WorkLocal[13] = ExtData[1]->WorkLocal[15]
 40: 0x0159 [0x03] ExtData[1]->WorkLocal[14] = ExtData[1]->WorkLocal[12]
 41: 0x015E [0x14] ExtData[1]->WorkLocal[14] *= 8*
 42: 0x0163 [0x07] ExtData[1]->WorkLocal[14] += 1*
 43: 0x0168 [0x9D] ExtData[1]->WorkLocal[14] = Work_Zone[1*][ExtData[1]->WorkLocal[14]] // Via remapped space
 44: 0x0170 [0x14] ExtData[1]->WorkLocal[13] *= ExtData[1]->WorkLocal[14]
 45: 0x0175 [0x03] ExtData[1]->WorkLocal[8] = ExtData[1]->WorkLocal[13]
 46: 0x017A [0x15] ExtData[1]->WorkLocal[8] /= 1000*
 47: 0x017F [0x32] ExtData[1]->MainSpeed = ExtData[1]->WorkLocal[8] * 0.1
 48: 0x0182 [0x00] END_REQSTACK()
```

### Event 65535.5

#### Metadata

| Field        | Value     |
|--------------|-----------|
| Entrypoint   | 0x0183    |
| Data Size    | 455 bytes |
| Instructions | 66        |

```
      00 01 02 03 04 05 06 07  08 09 0A 0B 0C 0D 0E 0F
      -- -- -- -- -- -- -- --  -- -- -- -- -- -- -- --
0180:          03 02 00 09 00  02 0C 00 0E 80 00 95 01     .............
0190: 03 02 00 0A 00 02 0C 00  0F 80 00 A5 01 03 02 00  ................
01A0: 31 10 0C 02 00 02 02 00  33 10 05 67 02 02 02 00  1.......3..g....
01B0: 0A 00 05 1D 02 02 31 10  02 00 05 C4 01 3C 30 10  ......1......<0.
01C0: 06 80 06 80 02 02 00 33  10 02 CF 01 01 67 02 03  .......3.....g..
01D0: 03 00 02 00 14 03 00 0A  80 9D 03 05 80 04 00 03  ................
01E0: 00 0B 03 00 9D 03 05 80  05 00 03 00 0B 03 00 9D  ................
01F0: 03 05 80 06 00 03 00 0B  03 00 9D 03 05 80 07 00  ................
0200: 03 00 02 0C 00 00 80 00  0D 02 01 17 02 1F 00 04  ................
0210: 00 06 00 05 00 1F 01 0B  02 00 01 AD 01 07 0C 00  ................
0220: 06 80 40 0C 80 01 80 35  10 0C 00 3C 30 10 10 80  ..@....5...<0...
0230: 06 80 03 09 00 0A 00 9D  03 00 80 0B 00 0C 00 07  ................
0240: 0A 00 0B 00 1A 68 02 02  0C 00 0E 80 00 54 02 03  .....h.......T..
0250: 02 00 0A 00 02 0C 00 0F  80 00 64 02 03 02 00 31  ..........d....1
0260: 10 0C 02 00 01 A5 01 00  03 12 00 09 00 03 13 00  ................
0270: 0A 00 02 0C 00 09 80 03  A4 02 BF 40 00 80 0C 00  ...........@....
0280: 00 80 10 00 41 0A 80 0B  80 10 00 0E 00 03 0D 00  ....A...........
0290: 0C 80 08 0D 00 0E 00 07  09 00 0D 00 03 0E 00 0D  ................
02A0: 00 01 A9 02 03 0E 00 00  80 02 0C 00 09 80 03 DB  ................
02B0: 02 BF 40 00 80 0C 00 06  80 11 00 41 0A 80 0B 80  ..@........A....
02C0: 11 00 0F 00 03 0D 00 0C  80 08 0D 00 0F 00 07 0A  ................
02D0: 00 0D 00 03 0F 00 0D 00  01 E0 02 03 0F 00 00 80  ................
02E0: 08 0F 00 0E 00 9D 03 00  80 0E 00 0C 00 07 0F 00  ................
02F0: 0E 00 9D 03 00 80 0D 00  0C 00 14 0F 00 0D 80 15  ................
0300: 0F 00 0D 00 03 0D 00 0F  00 03 0E 00 0C 00 14 0E  ................
0310: 00 0C 80 07 0E 00 06 80  9D 03 06 80 0E 00 0E 00  ................
0320: 14 0D 00 0E 00 03 08 00  0D 00 15 08 00 0D 80 02  ................
0330: 0C 00 09 80 04 3C 03 03  08 00 11 80 32 08 00 03  .....<......2...
0340: 09 00 12 00 03 0A 00 13  00 1B                    ..........      
```

#### Opcodes

```
  0: 0x0183 [0x03] ExtData[1]->WorkLocal[2] = ExtData[1]->WorkLocal[9]
  1: 0x0188 [0x02] IF !(ExtData[1]->WorkLocal[12] == 30*) GOTO 0x0195
  2: 0x0190 [0x03] ExtData[1]->WorkLocal[2] = ExtData[1]->WorkLocal[10]
  3: 0x0195 [0x02] IF !(ExtData[1]->WorkLocal[12] == 31*) GOTO 0x01A5
  4: 0x019D [0x03] ExtData[1]->WorkLocal[2] = Work_Zone[49]
  5: 0x01A2 [0x0C] ExtData[1]->WorkLocal[2]--
  6: 0x01A5 [0x02] IF !(ExtData[1]->WorkLocal[2] > Work_Zone[51]) GOTO 0x0267
  7: 0x01AD [0x02] IF !(ExtData[1]->WorkLocal[2] > ExtData[1]->WorkLocal[10]) GOTO 0x021D
  8: 0x01B5 [0x02] IF !(Work_Zone[49] > ExtData[1]->WorkLocal[2]) GOTO 0x01C4
  9: 0x01BD [0x3C] SET_BIT_FLAG_CONDITIONAL(target_work_offset=Work_Zone[48], bit_index_work_offset=1*, condition_work_offset=1*)
 10: 0x01C4 [0x02] IF !(ExtData[1]->WorkLocal[2] <= Work_Zone[51]) GOTO 0x01CF
 11: 0x01CC [0x01] GOTO 0x0267
 12: 0x01CF [0x03] ExtData[1]->WorkLocal[3] = ExtData[1]->WorkLocal[2]
 13: 0x01D4 [0x14] ExtData[1]->WorkLocal[3] *= 4*
 14: 0x01D9 [0x9D] ExtData[1]->WorkLocal[3] = Work_Zone[3*][ExtData[1]->WorkLocal[4]] // Via remapped space
 15: 0x01E1 [0x0B] ExtData[1]->WorkLocal[3]++
 16: 0x01E4 [0x9D] ExtData[1]->WorkLocal[3] = Work_Zone[3*][ExtData[1]->WorkLocal[5]] // Via remapped space
 17: 0x01EC [0x0B] ExtData[1]->WorkLocal[3]++
 18: 0x01EF [0x9D] ExtData[1]->WorkLocal[3] = Work_Zone[3*][ExtData[1]->WorkLocal[6]] // Via remapped space
 19: 0x01F7 [0x0B] ExtData[1]->WorkLocal[3]++
 20: 0x01FA [0x9D] ExtData[1]->WorkLocal[3] = Work_Zone[3*][ExtData[1]->WorkLocal[7]] // Via remapped space
 21: 0x0202 [0x02] IF !(ExtData[1]->WorkLocal[12] == 0*) GOTO 0x020D
 22: 0x020A [0x01] GOTO 0x0217
 23: 0x020D [0x1F] MOVE_ENTITY: EventEntity moves to X=ExtData[1]->WorkLocal[4], Z=ExtData[1]->WorkLocal[6], Y=ExtData[1]->WorkLocal[5]
 24: 0x0215 [0x1F] MOVE_ENTITY: Update entity position (mode=1)

SUBROUTINE_0217:
 25: 0x0217 [0x0B] ExtData[1]->WorkLocal[2]++
 26: 0x021A [0x01] GOTO 0x01AD
 27: 0x021D [0x07] ExtData[1]->WorkLocal[12] += 1*
 28: 0x0222 [0x40] SET_BIT_WORK_RANGE(start_bit=8*, end_bit=15*, target=Work_Zone[53], source=ExtData[1]->WorkLocal[12])
 29: 0x022B [0x3C] SET_BIT_FLAG_CONDITIONAL(target_work_offset=Work_Zone[48], bit_index_work_offset=9*, condition_work_offset=1*)
 30: 0x0232 [0x03] ExtData[1]->WorkLocal[9] = ExtData[1]->WorkLocal[10]
 31: 0x0237 [0x9D] ExtData[1]->WorkLocal[12] = Work_Zone[0][ExtData[1]->WorkLocal[11]] // Via remapped space
 32: 0x023F [0x07] ExtData[1]->WorkLocal[10] += ExtData[1]->WorkLocal[11]
 33: 0x0244 [0x1A] CALL_SUBROUTINE(address=0x0268)
 34: 0x0247 [0x02] IF !(ExtData[1]->WorkLocal[12] == 30*) GOTO 0x0254
 35: 0x024F [0x03] ExtData[1]->WorkLocal[2] = ExtData[1]->WorkLocal[10]
 36: 0x0254 [0x02] IF !(ExtData[1]->WorkLocal[12] == 31*) GOTO 0x0264
 37: 0x025C [0x03] ExtData[1]->WorkLocal[2] = Work_Zone[49]
 38: 0x0261 [0x0C] ExtData[1]->WorkLocal[2]--
 39: 0x0264 [0x01] GOTO 0x01A5

SUBROUTINE_0267:
 40: 0x0267 [0x00] END_REQSTACK()

SUBROUTINE_0268:
 41: 0x0268 [0x03] ExtData[1]->WorkLocal[18] = ExtData[1]->WorkLocal[9]
 42: 0x026D [0x03] ExtData[1]->WorkLocal[19] = ExtData[1]->WorkLocal[10]
 43: 0x0272 [0x02] IF !(ExtData[1]->WorkLocal[12] >= 32*) GOTO 0x02A4
 44: 0x027A [0xBF] CHOCOBO_RACING_PARAMETER_GETTER(param_type=0x40)
 45: 0x027C [0x00] END_REQSTACK()

SUBROUTINE_02E0:
 46: 0x02E0 [0x08] ExtData[1]->WorkLocal[15] -= ExtData[1]->WorkLocal[14]
 47: 0x02E5 [0x9D] ExtData[1]->WorkLocal[12] = Work_Zone[0][ExtData[1]->WorkLocal[14]] // Via remapped space
 48: 0x02ED [0x07] ExtData[1]->WorkLocal[15] += ExtData[1]->WorkLocal[14]
 49: 0x02F2 [0x9D] ExtData[1]->WorkLocal[12] = Work_Zone[0][ExtData[1]->WorkLocal[13]] // Via remapped space
 50: 0x02FA [0x14] ExtData[1]->WorkLocal[15] *= 1000*
 51: 0x02FF [0x15] ExtData[1]->WorkLocal[15] /= ExtData[1]->WorkLocal[13]
 52: 0x0304 [0x03] ExtData[1]->WorkLocal[13] = ExtData[1]->WorkLocal[15]
 53: 0x0309 [0x03] ExtData[1]->WorkLocal[14] = ExtData[1]->WorkLocal[12]
 54: 0x030E [0x14] ExtData[1]->WorkLocal[14] *= 8*
 55: 0x0313 [0x07] ExtData[1]->WorkLocal[14] += 1*
 56: 0x0318 [0x9D] ExtData[1]->WorkLocal[14] = Work_Zone[1*][ExtData[1]->WorkLocal[14]] // Via remapped space
 57: 0x0320 [0x14] ExtData[1]->WorkLocal[13] *= ExtData[1]->WorkLocal[14]
 58: 0x0325 [0x03] ExtData[1]->WorkLocal[8] = ExtData[1]->WorkLocal[13]
 59: 0x032A [0x15] ExtData[1]->WorkLocal[8] /= 1000*
 60: 0x032F [0x02] IF !(ExtData[1]->WorkLocal[12] < 32*) GOTO 0x033C
 61: 0x0337 [0x03] ExtData[1]->WorkLocal[8] = 40*
 62: 0x033C [0x32] ExtData[1]->MainSpeed = ExtData[1]->WorkLocal[8] * 0.1
 63: 0x033F [0x03] ExtData[1]->WorkLocal[9] = ExtData[1]->WorkLocal[18]
 64: 0x0344 [0x03] ExtData[1]->WorkLocal[10] = ExtData[1]->WorkLocal[19]
 65: 0x0349 [0x1B] RETURN
```

#### Data or dead code:

```
# Dead code (unreachable instructions):
     0x027D [0x80] LOAD_WAIT(entity=Unknown NPC (ID: 2147483660/0x8000000C))
     0x0282 [0x10] 0x4100 <<= 4*
     0x0287 [0x0B] 0x1080++
     0x028A [0x00] END_REQSTACK()
     0x028B [0x0E] 0x0300 |= ExtData[1]->WorkLocal[13]
     0x0290 [0x0C] 0x0880--
     0x0293 [0x0D] 0x0E00 &= 0x0700
     0x0298 [0x09] 0x0D00 |= (1 << 0x0300)
     0x029D [0x0E] 0x0D00 |= 0x0100
     0x02A2 [0xA9] DISABLE_GAME_TIME_SET_SPECIFIC(time_offset=0x0302)
```

### Event 65535.6

#### Metadata

| Field        | Value    |
|--------------|----------|
| Entrypoint   | 0x034A   |
| Data Size    | 31 bytes |
| Instructions | 4        |

```
      00 01 02 03 04 05 06 07  08 09 0A 0B 0C 0D 0E 0F
      -- -- -- -- -- -- -- --  -- -- -- -- -- -- -- --
0340:                                B4 00 01 00 53 61            ....Sa
0350: 6B 75 72 61 00 00 00 00  00 00 00 00 00 00 B5 00  kura............
0360: 01 00 92 01 F8 FF FF 7F  00                       .........       
```

#### Opcodes

```
  0: 0x034A [0xB4] UI_WINDOW_STRING_HANDLER(case=0x00 - Copy string from opcode, work_offset=ExtData[1]->WorkLocal[1], string="Sakura")
  1: 0x035E [0xB5] SET_EVENT_ENTITY_NAME: Change EventEntity name to ExtData[1]->WorkLocal[1]
  2: 0x0362 [0x92] EventEntity->Render.Flags3 ^= 0x01
  3: 0x0368 [0x00] END_REQSTACK()
```

### Event 65535.7

#### Metadata

| Field        | Value    |
|--------------|----------|
| Entrypoint   | 0x0369   |
| Data Size    | 22 bytes |
| Instructions | 6        |

```
      00 01 02 03 04 05 06 07  08 09 0A 0B 0C 0D 0E 0F
      -- -- -- -- -- -- -- --  -- -- -- -- -- -- -- --
0360:                             32 12 80 1F 00 13 80           2......
0370: 14 80 15 80 1F 01 1E F0  FF FF 7F 1C 0E 80 00     ............... 
```

#### Opcodes

```
  0: 0x0369 [0x32] ExtData[1]->MainSpeed = 14* * 0.1
  1: 0x036C [0x1F] MOVE_ENTITY: EventEntity moves to X=459.926*, Z=370.475*, Y=24.471*
  2: 0x0374 [0x1F] MOVE_ENTITY: Update entity position (mode=1)
  3: 0x0376 [0x1E] EventEntity looks at LocalPlayer and starts talking
  4: 0x037B [0x1C] WAIT(30* ticks)
  5: 0x037E [0x00] END_REQSTACK()
```

### Event 65535.8

#### Metadata

| Field        | Value    |
|--------------|----------|
| Entrypoint   | 0x037F   |
| Data Size    | 15 bytes |
| Instructions | 5        |

```
      00 01 02 03 04 05 06 07  08 09 0A 0B 0C 0D 0E 0F
      -- -- -- -- -- -- -- --  -- -- -- -- -- -- -- --
0370:                                               32                 2
0380: 16 80 1F 00 17 80 18 80  19 80 1F 01 6F 00        ............o.  
```

#### Opcodes

```
  0: 0x037F [0x32] ExtData[1]->MainSpeed = 20* * 0.1
  1: 0x0382 [0x1F] MOVE_ENTITY: EventEntity moves to X=459.076*, Z=371.204*, Y=24.386*
  2: 0x038A [0x1F] MOVE_ENTITY: Update entity position (mode=1)
  3: 0x038C [0x6F] WAIT_FRAME_DELAY: Yield until WaitTime reaches zero
  4: 0x038D [0x00] END_REQSTACK()
```

### Event 65535.9

#### Metadata

| Field        | Value   |
|--------------|---------|
| Entrypoint   | 0x038E  |
| Data Size    | 9 bytes |
| Instructions | 3       |

```
      00 01 02 03 04 05 06 07  08 09 0A 0B 0C 0D 0E 0F
      -- -- -- -- -- -- -- --  -- -- -- -- -- -- -- --
0380:                                            2B 2F                +/
0390: 60 04 01 1A 80 23 00                              `....#.         
```

#### Opcodes

```
  0: 0x038E [0x2B] Unnamed NPC (ID: 17063983/0x0104602F) [10000*]:
    → "You were but a down-covered chick when the queen departed from this world. You were accompanying Her Majesty on a journey, when a horde of monsters attacked without warning. She protected you from the relentless fiends, but alas, was forced over the cliff face..."
  1: 0x0395 [0x23] WAIT_FOR_DIALOG_INTERACTION
  2: 0x0396 [0x00] END_REQSTACK()
```

### Event 65535.10

#### Metadata

| Field        | Value   |
|--------------|---------|
| Entrypoint   | 0x0397  |
| Data Size    | 3 bytes |
| Instructions | 2       |

```
      00 01 02 03 04 05 06 07  08 09 0A 0B 0C 0D 0E 0F
      -- -- -- -- -- -- -- --  -- -- -- -- -- -- -- --
0390:                      61  00 00                           a..      
```

#### Opcodes

```
  0: 0x0397 [0x61] EventEntity->Render.Flags2 &= ~0x00000001
  1: 0x0399 [0x00] END_REQSTACK()
```

### Event 65535.11

#### Metadata

| Field        | Value   |
|--------------|---------|
| Entrypoint   | 0x039A  |
| Data Size    | 3 bytes |
| Instructions | 2       |

```
      00 01 02 03 04 05 06 07  08 09 0A 0B 0C 0D 0E 0F
      -- -- -- -- -- -- -- --  -- -- -- -- -- -- -- --
0390:                                61 01 00                     a..   
```

#### Opcodes

```
  0: 0x039A [0x61] EventEntity->Render.Flags2 |= 0x00000001
  1: 0x039C [0x00] END_REQSTACK()
```
