# 17063954

## Common Data

| Field            | Value                    |
|------------------|--------------------------|
| Zone             | Chocobo Circuit (ID: 70) |
| Block Size       | 1500 bytes               |
| Total Events     | 21                       |
| References Count | 28                       |

## List of Events

| Event ID                   | Entrypoint   |   Size |   Instructions |
|----------------------------|--------------|--------|----------------|
| [65535](#event-65535)      | 0x0000       |      1 |              1 |
| [100](#event-100)          | 0x0001       |      1 |              1 |
| [115](#event-115)          | 0x0002       |      1 |              1 |
| [65535.1](#event-655351)   | 0x0003       |      1 |              1 |
| [427](#event-427)          | 0x0004       |      1 |              1 |
| [458](#event-458)          | 0x0005       |      1 |              1 |
| [469](#event-469)          | 0x0006       |      1 |              1 |
| [210](#event-210)          | 0x0007       |      1 |              1 |
| [65535.2](#event-655352)   | 0x0008       |     15 |              4 |
| [65535.3](#event-655353)   | 0x0017       |     80 |              9 |
| [65535.4](#event-655354)   | 0x0067       |     49 |              6 |
| [65535.5](#event-655355)   | 0x0098       |     49 |              6 |
| [65535.6](#event-655356)   | 0x00C9       |     49 |              6 |
| [65535.7](#event-655357)   | 0x00FA       |     49 |              6 |
| [65535.8](#event-655358)   | 0x012B       |     49 |              6 |
| [65535.9](#event-655359)   | 0x015C       |     49 |              6 |
| [65535.10](#event-6553510) | 0x018D       |    107 |             29 |
| [65535.11](#event-6553511) | 0x01F8       |    277 |             51 |
| [65535.12](#event-6553512) | 0x030D       |    499 |             98 |
| [65535.13](#event-6553513) | 0x0500       |      3 |              2 |
| [65535.14](#event-6553514) | 0x0503       |      3 |              2 |

## DAT References (imed_data)

|   Index | Hex Value   |   Dec Value |
|---------|-------------|-------------|
|       0 | 0x0000      |           0 |
|       1 | 0x0008      |           8 |
|       2 | 0x0002      |           2 |
|       3 | 0x00BC      |         188 |
|       4 | 0x0006      |           6 |
|       5 | 0x0050      |          80 |
|       6 | 0x000E      |          14 |
|       7 | 0x0010      |          16 |
|       8 | 0x000C      |          12 |
|       9 | 0x000D      |          13 |
|      10 | 0x0001      |           1 |
|      11 | 0x0005      |           5 |
|      12 | 0x008A      |         138 |
|      13 | 0x001B      |          27 |
|      14 | 0xFFFE91EE  |  4294873582 |
|      15 | 0xFFFED36C  |  4294890348 |
|      16 | 0xFFFFFE0C  |  4294966796 |
|      17 | 0x001C      |          28 |
|      18 | 0x001E      |          30 |
|      19 | 0x0019      |          25 |
|      20 | 0x0020      |          32 |
|      21 | 0x0004      |           4 |
|      22 | 0x0007      |           7 |
|      23 | 0x0003      |           3 |
|      24 | 0x000F      |          15 |
|      25 | 0x03E8      |        1000 |
|      26 | 0x001F      |          31 |
|      27 | 0x0009      |           9 |

## Events

### Event 65535

#### Metadata

| Field        | Value   |
|--------------|---------|
| Entrypoint   | 0x0000  |
| Data Size    | 1 bytes |
| Instructions | 1       |

```
      00 01 02 03 04 05 06 07  08 09 0A 0B 0C 0D 0E 0F
      -- -- -- -- -- -- -- --  -- -- -- -- -- -- -- --
0000: 00                                                .               
```

#### Opcodes

```
  0: 0x0000 [0x00] END_REQSTACK()
```

### Event 100

#### Metadata

| Field        | Value   |
|--------------|---------|
| Entrypoint   | 0x0001  |
| Data Size    | 1 bytes |
| Instructions | 1       |

```
      00 01 02 03 04 05 06 07  08 09 0A 0B 0C 0D 0E 0F
      -- -- -- -- -- -- -- --  -- -- -- -- -- -- -- --
0000:    00                                              .              
```

#### Opcodes

```
  0: 0x0001 [0x00] END_REQSTACK()
```

### Event 115

#### Metadata

| Field        | Value   |
|--------------|---------|
| Entrypoint   | 0x0002  |
| Data Size    | 1 bytes |
| Instructions | 1       |

```
      00 01 02 03 04 05 06 07  08 09 0A 0B 0C 0D 0E 0F
      -- -- -- -- -- -- -- --  -- -- -- -- -- -- -- --
0000:       00                                            .             
```

#### Opcodes

```
  0: 0x0002 [0x00] END_REQSTACK()
```

### Event 65535.1

#### Metadata

| Field        | Value   |
|--------------|---------|
| Entrypoint   | 0x0003  |
| Data Size    | 1 bytes |
| Instructions | 1       |

```
      00 01 02 03 04 05 06 07  08 09 0A 0B 0C 0D 0E 0F
      -- -- -- -- -- -- -- --  -- -- -- -- -- -- -- --
0000:          00                                          .            
```

#### Opcodes

```
  0: 0x0003 [0x00] END_REQSTACK()
```

### Event 427

#### Metadata

| Field        | Value   |
|--------------|---------|
| Entrypoint   | 0x0004  |
| Data Size    | 1 bytes |
| Instructions | 1       |

```
      00 01 02 03 04 05 06 07  08 09 0A 0B 0C 0D 0E 0F
      -- -- -- -- -- -- -- --  -- -- -- -- -- -- -- --
0000:             00                                        .           
```

#### Opcodes

```
  0: 0x0004 [0x00] END_REQSTACK()
```

### Event 458

#### Metadata

| Field        | Value   |
|--------------|---------|
| Entrypoint   | 0x0005  |
| Data Size    | 1 bytes |
| Instructions | 1       |

```
      00 01 02 03 04 05 06 07  08 09 0A 0B 0C 0D 0E 0F
      -- -- -- -- -- -- -- --  -- -- -- -- -- -- -- --
0000:                00                                      .          
```

#### Opcodes

```
  0: 0x0005 [0x00] END_REQSTACK()
```

### Event 469

#### Metadata

| Field        | Value   |
|--------------|---------|
| Entrypoint   | 0x0006  |
| Data Size    | 1 bytes |
| Instructions | 1       |

```
      00 01 02 03 04 05 06 07  08 09 0A 0B 0C 0D 0E 0F
      -- -- -- -- -- -- -- --  -- -- -- -- -- -- -- --
0000:                   00                                    .         
```

#### Opcodes

```
  0: 0x0006 [0x00] END_REQSTACK()
```

### Event 210

#### Metadata

| Field        | Value   |
|--------------|---------|
| Entrypoint   | 0x0007  |
| Data Size    | 1 bytes |
| Instructions | 1       |

```
      00 01 02 03 04 05 06 07  08 09 0A 0B 0C 0D 0E 0F
      -- -- -- -- -- -- -- --  -- -- -- -- -- -- -- --
0000:                      00                                  .        
```

#### Opcodes

```
  0: 0x0007 [0x00] END_REQSTACK()
```

### Event 65535.2

#### Metadata

| Field        | Value    |
|--------------|----------|
| Entrypoint   | 0x0008   |
| Data Size    | 15 bytes |
| Instructions | 4        |

```
      00 01 02 03 04 05 06 07  08 09 0A 0B 0C 0D 0E 0F
      -- -- -- -- -- -- -- --  -- -- -- -- -- -- -- --
0000:                          7E 05 F8 FF FF 7F 22 01          ~.....".
0010: 2F 01 F8 FF FF 7F 00                              /......         
```

#### Opcodes

```
  0: 0x0008 [0x7E] CHOCOBO_MOUNT: Dismount EventEntity (status = 0)
  1: 0x000E [0x22] ENTITY_HIDE_FLAG(enabled=0x01)
  2: 0x0010 [0x2F] EventEntity->Render.Flags0 |= 0x80000 // Bit 19
  3: 0x0016 [0x00] END_REQSTACK()
```

### Event 65535.3

#### Metadata

| Field        | Value    |
|--------------|----------|
| Entrypoint   | 0x0017   |
| Data Size    | 80 bytes |
| Instructions | 9        |

```
      00 01 02 03 04 05 06 07  08 09 0A 0B 0C 0D 0E 0F
      -- -- -- -- -- -- -- --  -- -- -- -- -- -- -- --
0010:                      1A  9B 01 02 01 00 00 80 00         .........
0020: 39 00 B6 0B 01 80 02 80  00 80 03 80 04 80 04 80  9...............
0030: 04 80 00 80 00 80 01 4D  00 B6 0B 01 00 02 80 00  .......M........
0040: 80 03 80 04 80 04 80 04  80 00 80 00 80 7E 03 F8  .............~..
0050: FF FF 7F 02 00 00 80 03  00 04 00 05 00 7E 04 F8  .............~..
0060: FF FF 7F 32 05 80 00                              ...2...         
```

#### Opcodes

```
  0: 0x0017 [0x1A] CALL_SUBROUTINE(address=0x019B)
  1: 0x001A [0x02] IF !(ExtData[1]->WorkLocal[1] == 0*) GOTO 0x0039
  2: 0x0022 [0xB6] ENTITY_APPEARANCE_HANDLER(case=Full entity look, race=8*, hair=2*, head=0*, body=188*, hands=6*, legs=6*, feet=6*, main=0*, sub=0*)
  3: 0x0036 [0x01] GOTO 0x004D
  4: 0x0039 [0xB6] ENTITY_APPEARANCE_HANDLER(case=Full entity look, race=ExtData[1]->WorkLocal[1], hair=2*, head=0*, body=188*, hands=6*, legs=6*, feet=6*, main=0*, sub=0*)

SUBROUTINE_004D:
  5: 0x004D [0x7E] CHOCOBO_MOUNT: Mount custom chocobo on EventEntity (index=2, color=32768, name_id=3)
  6: 0x005D [0x7E] CHOCOBO_MOUNT: Mode 4 on EventEntity
  7: 0x0063 [0x32] ExtData[1]->MainSpeed = 80* * 0.1
  8: 0x0066 [0x00] END_REQSTACK()
```

### Event 65535.4

#### Metadata

| Field        | Value    |
|--------------|----------|
| Entrypoint   | 0x0067   |
| Data Size    | 49 bytes |
| Instructions | 6        |

```
      00 01 02 03 04 05 06 07  08 09 0A 0B 0C 0D 0E 0F
      -- -- -- -- -- -- -- --  -- -- -- -- -- -- -- --
0060:                      B6  0B 02 80 06 80 00 80 03         .........
0070: 80 07 80 07 80 07 80 00  80 00 80 1A 9B 01 7E 03  ..............~.
0080: F8 FF FF 7F 02 00 00 80  03 00 04 00 05 00 7E 04  ..............~.
0090: F8 FF FF 7F 32 05 80 00                           ....2...        
```

#### Opcodes

```
  0: 0x0067 [0xB6] ENTITY_APPEARANCE_HANDLER(case=Full entity look, race=2*, hair=14*, head=0*, body=188*, hands=16*, legs=16*, feet=16*, main=0*, sub=0*)
  1: 0x007B [0x1A] CALL_SUBROUTINE(address=0x019B)
  2: 0x007E [0x7E] CHOCOBO_MOUNT: Mount custom chocobo on EventEntity (index=2, color=32768, name_id=3)
  3: 0x008E [0x7E] CHOCOBO_MOUNT: Mode 4 on EventEntity
  4: 0x0094 [0x32] ExtData[1]->MainSpeed = 80* * 0.1
  5: 0x0097 [0x00] END_REQSTACK()
```

### Event 65535.5

#### Metadata

| Field        | Value    |
|--------------|----------|
| Entrypoint   | 0x0098   |
| Data Size    | 49 bytes |
| Instructions | 6        |

```
      00 01 02 03 04 05 06 07  08 09 0A 0B 0C 0D 0E 0F
      -- -- -- -- -- -- -- --  -- -- -- -- -- -- -- --
0090:                          B6 0B 01 80 08 80 00 80          ........
00A0: 03 80 07 80 07 80 07 80  00 80 00 80 1A 9B 01 7E  ...............~
00B0: 03 F8 FF FF 7F 02 00 00  80 03 00 04 00 05 00 7E  ...............~
00C0: 04 F8 FF FF 7F 32 05 80  00                       .....2...       
```

#### Opcodes

```
  0: 0x0098 [0xB6] ENTITY_APPEARANCE_HANDLER(case=Full entity look, race=8*, hair=12*, head=0*, body=188*, hands=16*, legs=16*, feet=16*, main=0*, sub=0*)
  1: 0x00AC [0x1A] CALL_SUBROUTINE(address=0x019B)
  2: 0x00AF [0x7E] CHOCOBO_MOUNT: Mount custom chocobo on EventEntity (index=2, color=32768, name_id=3)
  3: 0x00BF [0x7E] CHOCOBO_MOUNT: Mode 4 on EventEntity
  4: 0x00C5 [0x32] ExtData[1]->MainSpeed = 80* * 0.1
  5: 0x00C8 [0x00] END_REQSTACK()
```

### Event 65535.6

#### Metadata

| Field        | Value    |
|--------------|----------|
| Entrypoint   | 0x00C9   |
| Data Size    | 49 bytes |
| Instructions | 6        |

```
      00 01 02 03 04 05 06 07  08 09 0A 0B 0C 0D 0E 0F
      -- -- -- -- -- -- -- --  -- -- -- -- -- -- -- --
00C0:                             B6 0B 04 80 09 80 00           .......
00D0: 80 03 80 07 80 07 80 07  80 00 80 00 80 1A 9B 01  ................
00E0: 7E 03 F8 FF FF 7F 02 00  00 80 03 00 04 00 05 00  ~...............
00F0: 7E 04 F8 FF FF 7F 32 05  80 00                    ~.....2...      
```

#### Opcodes

```
  0: 0x00C9 [0xB6] ENTITY_APPEARANCE_HANDLER(case=Full entity look, race=6*, hair=13*, head=0*, body=188*, hands=16*, legs=16*, feet=16*, main=0*, sub=0*)
  1: 0x00DD [0x1A] CALL_SUBROUTINE(address=0x019B)
  2: 0x00E0 [0x7E] CHOCOBO_MOUNT: Mount custom chocobo on EventEntity (index=2, color=32768, name_id=3)
  3: 0x00F0 [0x7E] CHOCOBO_MOUNT: Mode 4 on EventEntity
  4: 0x00F6 [0x32] ExtData[1]->MainSpeed = 80* * 0.1
  5: 0x00F9 [0x00] END_REQSTACK()
```

### Event 65535.7

#### Metadata

| Field        | Value    |
|--------------|----------|
| Entrypoint   | 0x00FA   |
| Data Size    | 49 bytes |
| Instructions | 6        |

```
      00 01 02 03 04 05 06 07  08 09 0A 0B 0C 0D 0E 0F
      -- -- -- -- -- -- -- --  -- -- -- -- -- -- -- --
00F0:                                B6 0B 0A 80 02 80            ......
0100: 00 80 03 80 04 80 04 80  04 80 00 80 00 80 1A 9B  ................
0110: 01 7E 03 F8 FF FF 7F 02  00 00 80 03 00 04 00 05  .~..............
0120: 00 7E 04 F8 FF FF 7F 32  05 80 00                 .~.....2...     
```

#### Opcodes

```
  0: 0x00FA [0xB6] ENTITY_APPEARANCE_HANDLER(case=Full entity look, race=1*, hair=2*, head=0*, body=188*, hands=6*, legs=6*, feet=6*, main=0*, sub=0*)
  1: 0x010E [0x1A] CALL_SUBROUTINE(address=0x019B)
  2: 0x0111 [0x7E] CHOCOBO_MOUNT: Mount custom chocobo on EventEntity (index=2, color=32768, name_id=3)
  3: 0x0121 [0x7E] CHOCOBO_MOUNT: Mode 4 on EventEntity
  4: 0x0127 [0x32] ExtData[1]->MainSpeed = 80* * 0.1
  5: 0x012A [0x00] END_REQSTACK()
```

### Event 65535.8

#### Metadata

| Field        | Value    |
|--------------|----------|
| Entrypoint   | 0x012B   |
| Data Size    | 49 bytes |
| Instructions | 6        |

```
      00 01 02 03 04 05 06 07  08 09 0A 0B 0C 0D 0E 0F
      -- -- -- -- -- -- -- --  -- -- -- -- -- -- -- --
0120:                                   B6 0B 0A 80 0B             .....
0130: 80 00 80 03 80 0C 80 0C  80 0C 80 00 80 00 80 1A  ................
0140: 9B 01 7E 03 F8 FF FF 7F  02 00 00 80 03 00 04 00  ..~.............
0150: 05 00 7E 04 F8 FF FF 7F  32 05 80 00              ..~.....2...    
```

#### Opcodes

```
  0: 0x012B [0xB6] ENTITY_APPEARANCE_HANDLER(case=Full entity look, race=1*, hair=5*, head=0*, body=188*, hands=138*, legs=138*, feet=138*, main=0*, sub=0*)
  1: 0x013F [0x1A] CALL_SUBROUTINE(address=0x019B)
  2: 0x0142 [0x7E] CHOCOBO_MOUNT: Mount custom chocobo on EventEntity (index=2, color=32768, name_id=3)
  3: 0x0152 [0x7E] CHOCOBO_MOUNT: Mode 4 on EventEntity
  4: 0x0158 [0x32] ExtData[1]->MainSpeed = 80* * 0.1
  5: 0x015B [0x00] END_REQSTACK()
```

### Event 65535.9

#### Metadata

| Field        | Value    |
|--------------|----------|
| Entrypoint   | 0x015C   |
| Data Size    | 49 bytes |
| Instructions | 6        |

```
      00 01 02 03 04 05 06 07  08 09 0A 0B 0C 0D 0E 0F
      -- -- -- -- -- -- -- --  -- -- -- -- -- -- -- --
0150:                                      B6 0B 0A 80              ....
0160: 00 80 00 80 03 80 07 80  07 80 07 80 00 80 00 80  ................
0170: 1A 9B 01 7E 03 F8 FF FF  7F 02 00 00 80 03 00 04  ...~............
0180: 00 05 00 7E 04 F8 FF FF  7F 32 05 80 00           ...~.....2...   
```

#### Opcodes

```
  0: 0x015C [0xB6] ENTITY_APPEARANCE_HANDLER(case=Full entity look, race=1*, hair=0*, head=0*, body=188*, hands=16*, legs=16*, feet=16*, main=0*, sub=0*)
  1: 0x0170 [0x1A] CALL_SUBROUTINE(address=0x019B)
  2: 0x0173 [0x7E] CHOCOBO_MOUNT: Mount custom chocobo on EventEntity (index=2, color=32768, name_id=3)
  3: 0x0183 [0x7E] CHOCOBO_MOUNT: Mode 4 on EventEntity
  4: 0x0189 [0x32] ExtData[1]->MainSpeed = 80* * 0.1
  5: 0x018C [0x00] END_REQSTACK()
```

### Event 65535.10

#### Metadata

| Field        | Value     |
|--------------|-----------|
| Entrypoint   | 0x018D    |
| Data Size    | 107 bytes |
| Instructions | 4         |

```
      00 01 02 03 04 05 06 07  08 09 0A 0B 0C 0D 0E 0F
      -- -- -- -- -- -- -- --  -- -- -- -- -- -- -- --
0180:                                         32 0D 80               2..
0190: 1F 00 0E 80 0F 80 10 80  1F 01 00 BF 20 00 80 0A  ............ ...
01A0: 80 02 80 00 00 41 11 80  12 80 00 00 01 00 41 13  .....A........A.
01B0: 80 0D 80 00 00 02 00 BF  20 00 80 0A 80 0A 80 00  ........ .......
01C0: 00 3E 00 00 07 80 D0 01  03 03 00 0A 80 01 D3 01  .>..............
01D0: 06 03 00 3E 00 00 00 80  E2 01 03 04 00 0A 80 01  ...>............
01E0: E5 01 06 04 00 3E 00 00  01 80 F4 01 03 05 00 0A  .....>..........
01F0: 80 01 F7 01 06 04 00 1B                           ........        
```

#### Opcodes

```
  0: 0x018D [0x32] ExtData[1]->MainSpeed = 27* * 0.1
  1: 0x0190 [0x1F] MOVE_ENTITY: EventEntity moves to X=-93.714*, Z=-76.948*, Y=-0.500*
  2: 0x0198 [0x1F] MOVE_ENTITY: Update entity position (mode=1)
  3: 0x019A [0x00] END_REQSTACK()
```

#### Data or dead code:

```
# Dead code (unreachable instructions):
     0x019B [0xBF] CHOCOBO_RACING_PARAMETER_GETTER(param_type=0x20)
     0x019D [0x00] END_REQSTACK()
     0x019E [0x80] LOAD_WAIT(entity=Unknown NPC (ID: 2147647498/0x8002800A))
     0x01A3 [0x00] END_REQSTACK()
     0x01A4 [0x00] END_REQSTACK()
     0x01A5 [0x41] ExtData[1]->WorkLocal[1] = ExtData[1]->WorkLocal[0] (bits 28*-30*)
     0x01AE [0x41] ExtData[1]->WorkLocal[2] = ExtData[1]->WorkLocal[0] (bits 25*-27*)
     0x01B7 [0xBF] CHOCOBO_RACING_PARAMETER_GETTER(param_type=0x20)
     0x01B9 [0x00] END_REQSTACK()
     0x01BA [0x80] LOAD_WAIT(entity=Unknown NPC (ID: 2148171786/0x800A800A))
     0x01BF [0x00] END_REQSTACK()
     0x01C0 [0x00] END_REQSTACK()
     0x01C1 [0x3E] IF !(ExtData[1]->WorkLocal[0] bit 16*) GOTO 0x01D0
     0x01C8 [0x03] ExtData[1]->WorkLocal[3] = 1*
     0x01CD [0x01] GOTO 0x01D3
     0x01D0 [0x06] ExtData[1]->WorkLocal[3] = 0
     0x01D3 [0x3E] IF !(ExtData[1]->WorkLocal[0] bit 0*) GOTO 0x01E2
     0x01DA [0x03] ExtData[1]->WorkLocal[4] = 1*
     0x01DF [0x01] GOTO 0x01E5
     0x01E2 [0x06] ExtData[1]->WorkLocal[4] = 0
     0x01E5 [0x3E] IF !(ExtData[1]->WorkLocal[0] bit 8*) GOTO 0x01F4
     0x01EC [0x03] ExtData[1]->WorkLocal[5] = 1*
     0x01F1 [0x01] GOTO 0x01F7
     0x01F4 [0x06] ExtData[1]->WorkLocal[4] = 0
     0x01F7 [0x1B] RETURN
```

### Event 65535.11

#### Metadata

| Field        | Value     |
|--------------|-----------|
| Entrypoint   | 0x01F8    |
| Data Size    | 277 bytes |
| Instructions | 51        |

```
      00 01 02 03 04 05 06 07  08 09 0A 0B 0C 0D 0E 0F
      -- -- -- -- -- -- -- --  -- -- -- -- -- -- -- --
01F0:                          03 06 00 2C 10 03 0D 00          ...,....
0200: 2C 10 03 0E 00 2D 10 03  10 00 29 10 02 10 00 14  ,....-....).....
0210: 80 03 34 02 41 15 80 16  80 26 10 12 00 03 11 00  ..4.A....&......
0220: 01 80 08 11 00 12 00 07  0D 00 11 00 03 12 00 11  ................
0230: 00 01 37 02 06 12 00 02  10 00 14 80 03 5F 02 41  ..7.........._.A
0240: 15 80 16 80 27 10 13 00  03 11 00 01 80 08 11 00  ....'...........
0250: 13 00 07 0E 00 11 00 03  13 00 11 00 01 62 02 06  .............b..
0260: 13 00 03 07 00 0D 00 14  07 00 15 80 9D 03 17 80  ................
0270: 08 00 07 00 0B 07 00 9D  03 17 80 09 00 07 00 0B  ................
0280: 07 00 9D 03 17 80 0A 00  07 00 0B 07 00 9D 03 17  ................
0290: 80 0B 00 07 00 02 10 00  00 80 00 A0 02 01 A7 02  ................
02A0: 36 08 00 0A 00 09 00 40  01 80 18 80 35 10 10 00  6......@....5...
02B0: 08 13 00 12 00 9D 03 00  80 12 00 10 00 07 13 00  ................
02C0: 12 00 9D 03 00 80 11 00  10 00 14 13 00 19 80 15  ................
02D0: 13 00 11 00 03 11 00 13  00 03 12 00 10 00 14 12  ................
02E0: 00 01 80 07 12 00 0A 80  9D 03 0A 80 12 00 12 00  ................
02F0: 14 11 00 12 00 15 11 00  19 80 03 0C 00 05 80 14  ................
0300: 0C 00 11 00 15 0C 00 19  80 32 0C 00 00           .........2...   
```

#### Opcodes

```
  0: 0x01F8 [0x03] ExtData[1]->WorkLocal[6] = Work_Zone[44]
  1: 0x01FD [0x03] ExtData[1]->WorkLocal[13] = Work_Zone[44]
  2: 0x0202 [0x03] ExtData[1]->WorkLocal[14] = Work_Zone[45]
  3: 0x0207 [0x03] ExtData[1]->WorkLocal[16] = Work_Zone[41]
  4: 0x020C [0x02] IF !(ExtData[1]->WorkLocal[16] >= 32*) GOTO 0x0234
  5: 0x0214 [0x41] ExtData[1]->WorkLocal[18] = Work_Zone[38] (bits 4*-7*)
  6: 0x021D [0x03] ExtData[1]->WorkLocal[17] = 8*
  7: 0x0222 [0x08] ExtData[1]->WorkLocal[17] -= ExtData[1]->WorkLocal[18]
  8: 0x0227 [0x07] ExtData[1]->WorkLocal[13] += ExtData[1]->WorkLocal[17]
  9: 0x022C [0x03] ExtData[1]->WorkLocal[18] = ExtData[1]->WorkLocal[17]
 10: 0x0231 [0x01] GOTO 0x0237
 11: 0x0234 [0x06] ExtData[1]->WorkLocal[18] = 0

SUBROUTINE_0237:
 12: 0x0237 [0x02] IF !(ExtData[1]->WorkLocal[16] >= 32*) GOTO 0x025F
 13: 0x023F [0x41] ExtData[1]->WorkLocal[19] = Work_Zone[39] (bits 4*-7*)
 14: 0x0248 [0x03] ExtData[1]->WorkLocal[17] = 8*
 15: 0x024D [0x08] ExtData[1]->WorkLocal[17] -= ExtData[1]->WorkLocal[19]
 16: 0x0252 [0x07] ExtData[1]->WorkLocal[14] += ExtData[1]->WorkLocal[17]
 17: 0x0257 [0x03] ExtData[1]->WorkLocal[19] = ExtData[1]->WorkLocal[17]
 18: 0x025C [0x01] GOTO 0x0262
 19: 0x025F [0x06] ExtData[1]->WorkLocal[19] = 0

SUBROUTINE_0262:
 20: 0x0262 [0x03] ExtData[1]->WorkLocal[7] = ExtData[1]->WorkLocal[13]
 21: 0x0267 [0x14] ExtData[1]->WorkLocal[7] *= 4*
 22: 0x026C [0x9D] ExtData[1]->WorkLocal[7] = Work_Zone[3*][ExtData[1]->WorkLocal[8]] // Via remapped space
 23: 0x0274 [0x0B] ExtData[1]->WorkLocal[7]++
 24: 0x0277 [0x9D] ExtData[1]->WorkLocal[7] = Work_Zone[3*][ExtData[1]->WorkLocal[9]] // Via remapped space
 25: 0x027F [0x0B] ExtData[1]->WorkLocal[7]++
 26: 0x0282 [0x9D] ExtData[1]->WorkLocal[7] = Work_Zone[3*][ExtData[1]->WorkLocal[10]] // Via remapped space
 27: 0x028A [0x0B] ExtData[1]->WorkLocal[7]++
 28: 0x028D [0x9D] ExtData[1]->WorkLocal[7] = Work_Zone[3*][ExtData[1]->WorkLocal[11]] // Via remapped space
 29: 0x0295 [0x02] IF !(ExtData[1]->WorkLocal[16] == 0*) GOTO 0x02A0
 30: 0x029D [0x01] GOTO 0x02A7
 31: 0x02A0 [0x36] SET_ENTITY_EVENT_POSITION(pos_x=ExtData[1]->WorkLocal[8], pos_z=ExtData[1]->WorkLocal[10], pos_y=ExtData[1]->WorkLocal[9])

SUBROUTINE_02A7:
 32: 0x02A7 [0x40] SET_BIT_WORK_RANGE(start_bit=8*, end_bit=15*, target=Work_Zone[53], source=ExtData[1]->WorkLocal[16])
 33: 0x02B0 [0x08] ExtData[1]->WorkLocal[19] -= ExtData[1]->WorkLocal[18]
 34: 0x02B5 [0x9D] ExtData[1]->WorkLocal[16] = Work_Zone[0][ExtData[1]->WorkLocal[18]] // Via remapped space
 35: 0x02BD [0x07] ExtData[1]->WorkLocal[19] += ExtData[1]->WorkLocal[18]
 36: 0x02C2 [0x9D] ExtData[1]->WorkLocal[16] = Work_Zone[0][ExtData[1]->WorkLocal[17]] // Via remapped space
 37: 0x02CA [0x14] ExtData[1]->WorkLocal[19] *= 1000*
 38: 0x02CF [0x15] ExtData[1]->WorkLocal[19] /= ExtData[1]->WorkLocal[17]
 39: 0x02D4 [0x03] ExtData[1]->WorkLocal[17] = ExtData[1]->WorkLocal[19]
 40: 0x02D9 [0x03] ExtData[1]->WorkLocal[18] = ExtData[1]->WorkLocal[16]
 41: 0x02DE [0x14] ExtData[1]->WorkLocal[18] *= 8*
 42: 0x02E3 [0x07] ExtData[1]->WorkLocal[18] += 1*
 43: 0x02E8 [0x9D] ExtData[1]->WorkLocal[18] = Work_Zone[1*][ExtData[1]->WorkLocal[18]] // Via remapped space
 44: 0x02F0 [0x14] ExtData[1]->WorkLocal[17] *= ExtData[1]->WorkLocal[18]
 45: 0x02F5 [0x15] ExtData[1]->WorkLocal[17] /= 1000*
 46: 0x02FA [0x03] ExtData[1]->WorkLocal[12] = 80*
 47: 0x02FF [0x14] ExtData[1]->WorkLocal[12] *= ExtData[1]->WorkLocal[17]
 48: 0x0304 [0x15] ExtData[1]->WorkLocal[12] /= 1000*
 49: 0x0309 [0x32] ExtData[1]->MainSpeed = ExtData[1]->WorkLocal[12] * 0.1
 50: 0x030C [0x00] END_REQSTACK()
```

### Event 65535.12

#### Metadata

| Field        | Value     |
|--------------|-----------|
| Entrypoint   | 0x030D    |
| Data Size    | 499 bytes |
| Instructions | 52        |

```
      00 01 02 03 04 05 06 07  08 09 0A 0B 0C 0D 0E 0F
      -- -- -- -- -- -- -- --  -- -- -- -- -- -- -- --
0300:                                         03 06 00               ...
0310: 0D 00 02 10 00 12 80 00  1F 03 03 06 00 0E 00 02  ................
0320: 10 00 1A 80 00 2F 03 03  06 00 31 10 0C 06 00 02  ...../....1.....
0330: 06 00 33 10 05 2A 04 02  06 00 0E 00 05 E0 03 02  ..3..*..........
0340: 31 10 06 00 05 4E 03 3C  30 10 0A 80 0A 80 02 06  1....N.<0.......
0350: 00 33 10 02 59 03 01 2A  04 02 37 10 02 80 00 92  .3..Y..*..7.....
0360: 03 BF 60 00 80 00 80 11  00 41 15 80 16 80 11 00  ..`......A......
0370: 11 00 02 11 00 00 80 00  8F 03 03 02 10 31 10 07  .............1..
0380: 02 10 04 80 02 02 10 06  00 05 8F 03 01 2A 04 01  .............*..
0390: 92 03 03 07 00 06 00 14  07 00 15 80 9D 03 17 80  ................
03A0: 08 00 07 00 0B 07 00 9D  03 17 80 09 00 07 00 0B  ................
03B0: 07 00 9D 03 17 80 0A 00  07 00 0B 07 00 9D 03 17  ................
03C0: 80 0B 00 07 00 02 10 00  00 80 00 D0 03 01 DA 03  ................
03D0: 1F 00 08 00 0A 00 09 00  1F 01 0B 06 00 01 37 03  ..............7.
03E0: 07 10 00 0A 80 40 01 80  18 80 35 10 10 00 3C 30  .....@....5...<0
03F0: 10 1B 80 0A 80 03 0D 00  0E 00 9D 03 00 80 0F 00  ................
0400: 10 00 07 0E 00 0F 00 1A  2B 04 02 10 00 12 80 00  ........+.......
0410: 17 04 03 06 00 0E 00 02  10 00 1A 80 00 27 04 03  .............'..
0420: 06 00 31 10 0C 06 00 01  2F 03 00 03 16 00 0D 00  ..1...../.......
0430: 03 17 00 0E 00 02 10 00  14 80 03 62 04 BF 40 00  ...........b..@.
0440: 80 10 00 00 80 14 00 41  15 80 16 80 14 00 12 00  .......A........
0450: 03 11 00 01 80 08 11 00  12 00 03 12 00 11 00 01  ................
0460: 67 04 03 12 00 00 80 02  10 00 14 80 03 94 04 BF  g...............
0470: 40 00 80 10 00 0A 80 15  00 41 15 80 16 80 15 00  @........A......
0480: 13 00 03 11 00 01 80 08  11 00 13 00 03 13 00 11  ................
0490: 00 01 99 04 03 13 00 00  80 08 13 00 12 00 9D 03  ................
04A0: 00 80 12 00 10 00 07 13  00 12 00 9D 03 00 80 11  ................
04B0: 00 10 00 14 13 00 19 80  15 13 00 11 00 03 11 00  ................
04C0: 13 00 03 12 00 10 00 14  12 00 01 80 07 12 00 0A  ................
04D0: 80 9D 03 0A 80 12 00 12  00 14 11 00 12 00 15 11  ................
04E0: 00 19 80 03 0C 00 05 80  14 0C 00 11 00 15 0C 00  ................
04F0: 19 80 32 0C 00 03 0D 00  16 00 03 0E 00 17 00 1B  ..2.............
```

#### Opcodes

```
  0: 0x030D [0x03] ExtData[1]->WorkLocal[6] = ExtData[1]->WorkLocal[13]
  1: 0x0312 [0x02] IF !(ExtData[1]->WorkLocal[16] == 30*) GOTO 0x031F
  2: 0x031A [0x03] ExtData[1]->WorkLocal[6] = ExtData[1]->WorkLocal[14]
  3: 0x031F [0x02] IF !(ExtData[1]->WorkLocal[16] == 31*) GOTO 0x032F
  4: 0x0327 [0x03] ExtData[1]->WorkLocal[6] = Work_Zone[49]
  5: 0x032C [0x0C] ExtData[1]->WorkLocal[6]--
  6: 0x032F [0x02] IF !(ExtData[1]->WorkLocal[6] > Work_Zone[51]) GOTO 0x042A
  7: 0x0337 [0x02] IF !(ExtData[1]->WorkLocal[6] > ExtData[1]->WorkLocal[14]) GOTO 0x03E0
  8: 0x033F [0x02] IF !(Work_Zone[49] > ExtData[1]->WorkLocal[6]) GOTO 0x034E
  9: 0x0347 [0x3C] SET_BIT_FLAG_CONDITIONAL(target_work_offset=Work_Zone[48], bit_index_work_offset=1*, condition_work_offset=1*)
 10: 0x034E [0x02] IF !(ExtData[1]->WorkLocal[6] <= Work_Zone[51]) GOTO 0x0359
 11: 0x0356 [0x01] GOTO 0x042A
 12: 0x0359 [0x02] IF !(Work_Zone[55] == 2*) GOTO 0x0392
 13: 0x0361 [0xBF] CHOCOBO_RACING_PARAMETER_GETTER(param_type=0x60)
 14: 0x0363 [0x00] END_REQSTACK()

SUBROUTINE_0392:
 15: 0x0392 [0x03] ExtData[1]->WorkLocal[7] = ExtData[1]->WorkLocal[6]
 16: 0x0397 [0x14] ExtData[1]->WorkLocal[7] *= 4*
 17: 0x039C [0x9D] ExtData[1]->WorkLocal[7] = Work_Zone[3*][ExtData[1]->WorkLocal[8]] // Via remapped space
 18: 0x03A4 [0x0B] ExtData[1]->WorkLocal[7]++
 19: 0x03A7 [0x9D] ExtData[1]->WorkLocal[7] = Work_Zone[3*][ExtData[1]->WorkLocal[9]] // Via remapped space
 20: 0x03AF [0x0B] ExtData[1]->WorkLocal[7]++
 21: 0x03B2 [0x9D] ExtData[1]->WorkLocal[7] = Work_Zone[3*][ExtData[1]->WorkLocal[10]] // Via remapped space
 22: 0x03BA [0x0B] ExtData[1]->WorkLocal[7]++
 23: 0x03BD [0x9D] ExtData[1]->WorkLocal[7] = Work_Zone[3*][ExtData[1]->WorkLocal[11]] // Via remapped space
 24: 0x03C5 [0x02] IF !(ExtData[1]->WorkLocal[16] == 0*) GOTO 0x03D0
 25: 0x03CD [0x01] GOTO 0x03DA
 26: 0x03D0 [0x1F] MOVE_ENTITY: EventEntity moves to X=ExtData[1]->WorkLocal[8], Z=ExtData[1]->WorkLocal[10], Y=ExtData[1]->WorkLocal[9]
 27: 0x03D8 [0x1F] MOVE_ENTITY: Update entity position (mode=1)

SUBROUTINE_03DA:
 28: 0x03DA [0x0B] ExtData[1]->WorkLocal[6]++
 29: 0x03DD [0x01] GOTO 0x0337
 30: 0x03E0 [0x07] ExtData[1]->WorkLocal[16] += 1*
 31: 0x03E5 [0x40] SET_BIT_WORK_RANGE(start_bit=8*, end_bit=15*, target=Work_Zone[53], source=ExtData[1]->WorkLocal[16])
 32: 0x03EE [0x3C] SET_BIT_FLAG_CONDITIONAL(target_work_offset=Work_Zone[48], bit_index_work_offset=9*, condition_work_offset=1*)
 33: 0x03F5 [0x03] ExtData[1]->WorkLocal[13] = ExtData[1]->WorkLocal[14]
 34: 0x03FA [0x9D] ExtData[1]->WorkLocal[16] = Work_Zone[0][ExtData[1]->WorkLocal[15]] // Via remapped space
 35: 0x0402 [0x07] ExtData[1]->WorkLocal[14] += ExtData[1]->WorkLocal[15]
 36: 0x0407 [0x1A] CALL_SUBROUTINE(address=0x042B)
 37: 0x040A [0x02] IF !(ExtData[1]->WorkLocal[16] == 30*) GOTO 0x0417
 38: 0x0412 [0x03] ExtData[1]->WorkLocal[6] = ExtData[1]->WorkLocal[14]
 39: 0x0417 [0x02] IF !(ExtData[1]->WorkLocal[16] == 31*) GOTO 0x0427
 40: 0x041F [0x03] ExtData[1]->WorkLocal[6] = Work_Zone[49]
 41: 0x0424 [0x0C] ExtData[1]->WorkLocal[6]--
 42: 0x0427 [0x01] GOTO 0x032F

SUBROUTINE_042A:
 43: 0x042A [0x00] END_REQSTACK()

SUBROUTINE_042B:
 44: 0x042B [0x03] ExtData[1]->WorkLocal[22] = ExtData[1]->WorkLocal[13]
 45: 0x0430 [0x03] ExtData[1]->WorkLocal[23] = ExtData[1]->WorkLocal[14]
 46: 0x0435 [0x02] IF !(ExtData[1]->WorkLocal[16] >= 32*) GOTO 0x0462
 47: 0x043D [0xBF] CHOCOBO_RACING_PARAMETER_GETTER(param_type=0x40)
 48: 0x043F [0x00] END_REQSTACK()

SUBROUTINE_0467:
 49: 0x0467 [0x02] IF !(ExtData[1]->WorkLocal[16] >= 32*) GOTO 0x0494
 50: 0x046F [0xBF] CHOCOBO_RACING_PARAMETER_GETTER(param_type=0x40)
 51: 0x0471 [0x00] END_REQSTACK()
```

#### Data or dead code:

```
# Dead code (unreachable instructions):
     0x0364 [0x80] LOAD_WAIT(entity=Unknown NPC (ID: 1146880/0x00118000))
     0x0369 [0x41] ExtData[1]->WorkLocal[17] = ExtData[1]->WorkLocal[17] (bits 4*-7*)
     0x0372 [0x02] IF !(ExtData[1]->WorkLocal[17] == 0*) GOTO 0x038F
     0x037A [0x03] Work_Zone[2] = Work_Zone[49]
     0x037F [0x07] Work_Zone[2] += 6*
     0x0384 [0x02] IF !(Work_Zone[2] > ExtData[1]->WorkLocal[6]) GOTO 0x038F
     0x038C [0x01] GOTO 0x042A
     0x038F [0x01] GOTO 0x0392
# Dead code (unreachable instructions):
     0x0440 [0x80] LOAD_WAIT(entity=Unknown NPC (ID: 2147483664/0x80000010))
     0x0445 [0x14] 0x4100 *= 4*
     0x044A [0x16] 0x1480 = sin(0x1200) * 0x0300
     0x0451 [0x11] 0x0100 >>= 0x0880
     0x0456 [0x11] 0x1200 >>= 0x0300
     0x045B [0x12] Work_Zone_Memorize[0] = rand()
     0x045E [0x00] END_REQSTACK()
     0x045F [0x01] GOTO 0x0467
# Dead code (unreachable instructions):
     0x0472 [0x80] LOAD_WAIT(entity=Unknown NPC (ID: 2148139024/0x800A0010))
     0x0477 [0x15] 0x4100 /= 4*
     0x047C [0x16] 0x1580 = sin(0x1300) * 0x0300
     0x0483 [0x11] 0x0100 >>= 0x0880
     0x0488 [0x11] 0x1300 >>= 0x0300
     0x048D [0x13] Work_Zone_Memorize[0] = rand() % 0x0100
     0x0492 [0x99] Wait for Unknown NPC (ID: 1245956/0x00130304) animation to complete
     0x049E [0x9D] ExtData[1]->WorkLocal[16] = Work_Zone[0][ExtData[1]->WorkLocal[18]] // Via remapped space
     0x04A6 [0x07] ExtData[1]->WorkLocal[19] += ExtData[1]->WorkLocal[18]
     0x04AB [0x9D] ExtData[1]->WorkLocal[16] = Work_Zone[0][ExtData[1]->WorkLocal[17]] // Via remapped space
     0x04B3 [0x14] ExtData[1]->WorkLocal[19] *= 1000*
     0x04B8 [0x15] ExtData[1]->WorkLocal[19] /= ExtData[1]->WorkLocal[17]
     0x04BD [0x03] ExtData[1]->WorkLocal[17] = ExtData[1]->WorkLocal[19]
     0x04C2 [0x03] ExtData[1]->WorkLocal[18] = ExtData[1]->WorkLocal[16]
     0x04C7 [0x14] ExtData[1]->WorkLocal[18] *= 8*
     0x04CC [0x07] ExtData[1]->WorkLocal[18] += 1*
     0x04D1 [0x9D] ExtData[1]->WorkLocal[18] = Work_Zone[1*][ExtData[1]->WorkLocal[18]] // Via remapped space
     0x04D9 [0x14] ExtData[1]->WorkLocal[17] *= ExtData[1]->WorkLocal[18]
     0x04DE [0x15] ExtData[1]->WorkLocal[17] /= 1000*
     0x04E3 [0x03] ExtData[1]->WorkLocal[12] = 80*
     0x04E8 [0x14] ExtData[1]->WorkLocal[12] *= ExtData[1]->WorkLocal[17]
     0x04ED [0x15] ExtData[1]->WorkLocal[12] /= 1000*
     0x04F2 [0x32] ExtData[1]->MainSpeed = ExtData[1]->WorkLocal[12] * 0.1
     0x04F5 [0x03] ExtData[1]->WorkLocal[13] = ExtData[1]->WorkLocal[22]
     0x04FA [0x03] ExtData[1]->WorkLocal[14] = ExtData[1]->WorkLocal[23]
     0x04FF [0x1B] RETURN
```

### Event 65535.13

#### Metadata

| Field        | Value   |
|--------------|---------|
| Entrypoint   | 0x0500  |
| Data Size    | 3 bytes |
| Instructions | 2       |

```
      00 01 02 03 04 05 06 07  08 09 0A 0B 0C 0D 0E 0F
      -- -- -- -- -- -- -- --  -- -- -- -- -- -- -- --
0500: 61 00 00                                          a..             
```

#### Opcodes

```
  0: 0x0500 [0x61] EventEntity->Render.Flags2 &= ~0x00000001
  1: 0x0502 [0x00] END_REQSTACK()
```

### Event 65535.14

#### Metadata

| Field        | Value   |
|--------------|---------|
| Entrypoint   | 0x0503  |
| Data Size    | 3 bytes |
| Instructions | 2       |

```
      00 01 02 03 04 05 06 07  08 09 0A 0B 0C 0D 0E 0F
      -- -- -- -- -- -- -- --  -- -- -- -- -- -- -- --
0500:          61 01 00                                    a..          
```

#### Opcodes

```
  0: 0x0503 [0x61] EventEntity->Render.Flags2 |= 0x00000001
  1: 0x0505 [0x00] END_REQSTACK()
```
