# 17063959

## Common Data

| Field            | Value                    |
|------------------|--------------------------|
| Zone             | Chocobo Circuit (ID: 70) |
| Block Size       | 1356 bytes               |
| Total Events     | 18                       |
| References Count | 29                       |

## List of Events

| Event ID                   | Entrypoint   |   Size |   Instructions |
|----------------------------|--------------|--------|----------------|
| [65535](#event-65535)      | 0x0000       |      1 |              1 |
| [100](#event-100)          | 0x0001       |      1 |              1 |
| [115](#event-115)          | 0x0002       |      1 |              1 |
| [427](#event-427)          | 0x0003       |      1 |              1 |
| [458](#event-458)          | 0x0004       |      1 |              1 |
| [469](#event-469)          | 0x0005       |      1 |              1 |
| [65535.1](#event-655351)   | 0x0006       |      1 |              1 |
| [210](#event-210)          | 0x0007       |      1 |              1 |
| [65535.2](#event-655352)   | 0x0008       |     15 |              4 |
| [65535.3](#event-655353)   | 0x0017       |     45 |              4 |
| [65535.4](#event-655354)   | 0x0044       |     45 |              4 |
| [65535.5](#event-655355)   | 0x0071       |     45 |              4 |
| [65535.6](#event-655356)   | 0x009E       |     93 |             12 |
| [65535.7](#event-655357)   | 0x00FB       |    107 |             23 |
| [65535.8](#event-655358)   | 0x0166       |    277 |             51 |
| [65535.9](#event-655359)   | 0x027B       |    509 |             96 |
| [65535.10](#event-6553510) | 0x0478       |      3 |              2 |
| [65535.11](#event-6553511) | 0x047B       |      3 |              2 |

## DAT References (imed_data)

|   Index | Hex Value   |   Dec Value |
|---------|-------------|-------------|
|       0 | 0x0003      |           3 |
|       1 | 0x0006      |           6 |
|       2 | 0x0000      |           0 |
|       3 | 0x0065      |         101 |
|       4 | 0x0008      |           8 |
|       5 | 0x0007      |           7 |
|       6 | 0x0012      |          18 |
|       7 | 0x0010      |          16 |
|       8 | 0x0013      |          19 |
|       9 | 0x000B      |          11 |
|      10 | 0x000A      |          10 |
|      11 | 0x00BC      |         188 |
|      12 | 0x0050      |          80 |
|      13 | 0x001B      |          27 |
|      14 | 0xFFFE91BC  |  4294873532 |
|      15 | 0xFFFEBADA  |  4294884058 |
|      16 | 0xFFFFFE0C  |  4294966796 |
|      17 | 0x0002      |           2 |
|      18 | 0x001C      |          28 |
|      19 | 0x001E      |          30 |
|      20 | 0x0019      |          25 |
|      21 | 0x0001      |           1 |
|      22 | 0x0020      |          32 |
|      23 | 0x0018      |          24 |
|      24 | 0x0004      |           4 |
|      25 | 0x0017      |          23 |
|      26 | 0x03E8      |        1000 |
|      27 | 0x001F      |          31 |
|      28 | 0x000E      |          14 |

## Events

### Event 65535

#### Metadata

| Field        | Value   |
|--------------|---------|
| Entrypoint   | 0x0000  |
| Data Size    | 1 bytes |
| Instructions | 1       |

```
      00 01 02 03 04 05 06 07  08 09 0A 0B 0C 0D 0E 0F
      -- -- -- -- -- -- -- --  -- -- -- -- -- -- -- --
0000: 00                                                .               
```

#### Opcodes

```
  0: 0x0000 [0x00] END_REQSTACK()
```

### Event 100

#### Metadata

| Field        | Value   |
|--------------|---------|
| Entrypoint   | 0x0001  |
| Data Size    | 1 bytes |
| Instructions | 1       |

```
      00 01 02 03 04 05 06 07  08 09 0A 0B 0C 0D 0E 0F
      -- -- -- -- -- -- -- --  -- -- -- -- -- -- -- --
0000:    00                                              .              
```

#### Opcodes

```
  0: 0x0001 [0x00] END_REQSTACK()
```

### Event 115

#### Metadata

| Field        | Value   |
|--------------|---------|
| Entrypoint   | 0x0002  |
| Data Size    | 1 bytes |
| Instructions | 1       |

```
      00 01 02 03 04 05 06 07  08 09 0A 0B 0C 0D 0E 0F
      -- -- -- -- -- -- -- --  -- -- -- -- -- -- -- --
0000:       00                                            .             
```

#### Opcodes

```
  0: 0x0002 [0x00] END_REQSTACK()
```

### Event 427

#### Metadata

| Field        | Value   |
|--------------|---------|
| Entrypoint   | 0x0003  |
| Data Size    | 1 bytes |
| Instructions | 1       |

```
      00 01 02 03 04 05 06 07  08 09 0A 0B 0C 0D 0E 0F
      -- -- -- -- -- -- -- --  -- -- -- -- -- -- -- --
0000:          00                                          .            
```

#### Opcodes

```
  0: 0x0003 [0x00] END_REQSTACK()
```

### Event 458

#### Metadata

| Field        | Value   |
|--------------|---------|
| Entrypoint   | 0x0004  |
| Data Size    | 1 bytes |
| Instructions | 1       |

```
      00 01 02 03 04 05 06 07  08 09 0A 0B 0C 0D 0E 0F
      -- -- -- -- -- -- -- --  -- -- -- -- -- -- -- --
0000:             00                                        .           
```

#### Opcodes

```
  0: 0x0004 [0x00] END_REQSTACK()
```

### Event 469

#### Metadata

| Field        | Value   |
|--------------|---------|
| Entrypoint   | 0x0005  |
| Data Size    | 1 bytes |
| Instructions | 1       |

```
      00 01 02 03 04 05 06 07  08 09 0A 0B 0C 0D 0E 0F
      -- -- -- -- -- -- -- --  -- -- -- -- -- -- -- --
0000:                00                                      .          
```

#### Opcodes

```
  0: 0x0005 [0x00] END_REQSTACK()
```

### Event 65535.1

#### Metadata

| Field        | Value   |
|--------------|---------|
| Entrypoint   | 0x0006  |
| Data Size    | 1 bytes |
| Instructions | 1       |

```
      00 01 02 03 04 05 06 07  08 09 0A 0B 0C 0D 0E 0F
      -- -- -- -- -- -- -- --  -- -- -- -- -- -- -- --
0000:                   00                                    .         
```

#### Opcodes

```
  0: 0x0006 [0x00] END_REQSTACK()
```

### Event 210

#### Metadata

| Field        | Value   |
|--------------|---------|
| Entrypoint   | 0x0007  |
| Data Size    | 1 bytes |
| Instructions | 1       |

```
      00 01 02 03 04 05 06 07  08 09 0A 0B 0C 0D 0E 0F
      -- -- -- -- -- -- -- --  -- -- -- -- -- -- -- --
0000:                      00                                  .        
```

#### Opcodes

```
  0: 0x0007 [0x00] END_REQSTACK()
```

### Event 65535.2

#### Metadata

| Field        | Value    |
|--------------|----------|
| Entrypoint   | 0x0008   |
| Data Size    | 15 bytes |
| Instructions | 4        |

```
      00 01 02 03 04 05 06 07  08 09 0A 0B 0C 0D 0E 0F
      -- -- -- -- -- -- -- --  -- -- -- -- -- -- -- --
0000:                          7E 05 F8 FF FF 7F 22 01          ~.....".
0010: 2F 01 F8 FF FF 7F 00                              /......         
```

#### Opcodes

```
  0: 0x0008 [0x7E] CHOCOBO_MOUNT: Dismount EventEntity (status = 0)
  1: 0x000E [0x22] ENTITY_HIDE_FLAG(enabled=0x01)
  2: 0x0010 [0x2F] EventEntity->Render.Flags0 |= 0x80000 // Bit 19
  3: 0x0016 [0x00] END_REQSTACK()
```

### Event 65535.3

#### Metadata

| Field        | Value    |
|--------------|----------|
| Entrypoint   | 0x0017   |
| Data Size    | 45 bytes |
| Instructions | 4        |

```
      00 01 02 03 04 05 06 07  08 09 0A 0B 0C 0D 0E 0F
      -- -- -- -- -- -- -- --  -- -- -- -- -- -- -- --
0010:                      B6  0B 00 80 01 80 02 80 03         .........
0020: 80 03 80 03 80 03 80 02  80 02 80 B4 00 06 00 48  ...............H
0030: 61 6E 74 69 6C 65 6F 6E  00 00 00 00 00 00 00 B5  antileon........
0040: 00 06 00 00                                       ....            
```

#### Opcodes

```
  0: 0x0017 [0xB6] ENTITY_APPEARANCE_HANDLER(case=Full entity look, race=3*, hair=6*, head=0*, body=101*, hands=101*, legs=101*, feet=101*, main=0*, sub=0*)
  1: 0x002B [0xB4] UI_WINDOW_STRING_HANDLER(case=0x00 - Copy string from opcode, work_offset=ExtData[1]->WorkLocal[6], string="Hantileon")
  2: 0x003F [0xB5] SET_EVENT_ENTITY_NAME: Change EventEntity name to ExtData[1]->WorkLocal[6]
  3: 0x0043 [0x00] END_REQSTACK()
```

### Event 65535.4

#### Metadata

| Field        | Value    |
|--------------|----------|
| Entrypoint   | 0x0044   |
| Data Size    | 45 bytes |
| Instructions | 4        |

```
      00 01 02 03 04 05 06 07  08 09 0A 0B 0C 0D 0E 0F
      -- -- -- -- -- -- -- --  -- -- -- -- -- -- -- --
0040:             B6 0B 04 80  05 80 02 80 06 80 06 80      ............
0050: 06 80 06 80 02 80 02 80  B4 00 06 00 5A 6F 70 61  ............Zopa
0060: 67 6F 00 00 00 00 00 00  00 00 00 00 B5 00 06 00  go..............
0070: 00                                                .               
```

#### Opcodes

```
  0: 0x0044 [0xB6] ENTITY_APPEARANCE_HANDLER(case=Full entity look, race=8*, hair=7*, head=0*, body=18*, hands=18*, legs=18*, feet=18*, main=0*, sub=0*)
  1: 0x0058 [0xB4] UI_WINDOW_STRING_HANDLER(case=0x00 - Copy string from opcode, work_offset=ExtData[1]->WorkLocal[6], string="Zopago")
  2: 0x006C [0xB5] SET_EVENT_ENTITY_NAME: Change EventEntity name to ExtData[1]->WorkLocal[6]
  3: 0x0070 [0x00] END_REQSTACK()
```

### Event 65535.5

#### Metadata

| Field        | Value    |
|--------------|----------|
| Entrypoint   | 0x0071   |
| Data Size    | 45 bytes |
| Instructions | 4        |

```
      00 01 02 03 04 05 06 07  08 09 0A 0B 0C 0D 0E 0F
      -- -- -- -- -- -- -- --  -- -- -- -- -- -- -- --
0070:    B6 0B 01 80 07 80 02  80 08 80 08 80 08 80 08   ...............
0080: 80 02 80 02 80 B4 00 06  00 50 75 6C 6F 6E 6F 6E  .........Pulonon
0090: 6F 00 00 00 00 00 00 00  00 B5 00 06 00 00        o.............  
```

#### Opcodes

```
  0: 0x0071 [0xB6] ENTITY_APPEARANCE_HANDLER(case=Full entity look, race=6*, hair=16*, head=0*, body=19*, hands=19*, legs=19*, feet=19*, main=0*, sub=0*)
  1: 0x0085 [0xB4] UI_WINDOW_STRING_HANDLER(case=0x00 - Copy string from opcode, work_offset=ExtData[1]->WorkLocal[6], string="Pulonono")
  2: 0x0099 [0xB5] SET_EVENT_ENTITY_NAME: Change EventEntity name to ExtData[1]->WorkLocal[6]
  3: 0x009D [0x00] END_REQSTACK()
```

### Event 65535.6

#### Metadata

| Field        | Value    |
|--------------|----------|
| Entrypoint   | 0x009E   |
| Data Size    | 93 bytes |
| Instructions | 12       |

```
      00 01 02 03 04 05 06 07  08 09 0A 0B 0C 0D 0E 0F
      -- -- -- -- -- -- -- --  -- -- -- -- -- -- -- --
0090:                                            02 23                .#
00A0: 10 09 80 00 AB 00 22 01  01 F7 00 1A 09 01 02 01  ......".........
00B0: 00 02 80 00 CD 00 B6 0B  04 80 0A 80 02 80 0B 80  ................
00C0: 01 80 01 80 01 80 02 80  02 80 01 E1 00 B6 0B 01  ................
00D0: 00 0A 80 02 80 0B 80 01  80 01 80 01 80 02 80 02  ................
00E0: 80 7E 03 F8 FF FF 7F 02  00 02 80 03 00 04 00 05  .~..............
00F0: 00 7E 04 F8 FF FF 7F 32  0C 80 00                 .~.....2...     
```

#### Opcodes

```
  0: 0x009E [0x02] IF !(Work_Zone[35] == 11*) GOTO 0x00AB
  1: 0x00A6 [0x22] ENTITY_HIDE_FLAG(enabled=0x01)
  2: 0x00A8 [0x01] GOTO 0x00F7
  3: 0x00AB [0x1A] CALL_SUBROUTINE(address=0x0109)
  4: 0x00AE [0x02] IF !(ExtData[1]->WorkLocal[1] == 0*) GOTO 0x00CD
  5: 0x00B6 [0xB6] ENTITY_APPEARANCE_HANDLER(case=Full entity look, race=8*, hair=10*, head=0*, body=188*, hands=6*, legs=6*, feet=6*, main=0*, sub=0*)
  6: 0x00CA [0x01] GOTO 0x00E1
  7: 0x00CD [0xB6] ENTITY_APPEARANCE_HANDLER(case=Full entity look, race=ExtData[1]->WorkLocal[1], hair=10*, head=0*, body=188*, hands=6*, legs=6*, feet=6*, main=0*, sub=0*)

SUBROUTINE_00E1:
  8: 0x00E1 [0x7E] CHOCOBO_MOUNT: Mount custom chocobo on EventEntity (index=2, color=32770, name_id=3)
  9: 0x00F1 [0x7E] CHOCOBO_MOUNT: Mode 4 on EventEntity

SUBROUTINE_00F7:
 10: 0x00F7 [0x32] ExtData[1]->MainSpeed = 80* * 0.1
 11: 0x00FA [0x00] END_REQSTACK()
```

### Event 65535.7

#### Metadata

| Field        | Value     |
|--------------|-----------|
| Entrypoint   | 0x00FB    |
| Data Size    | 107 bytes |
| Instructions | 4         |

```
      00 01 02 03 04 05 06 07  08 09 0A 0B 0C 0D 0E 0F
      -- -- -- -- -- -- -- --  -- -- -- -- -- -- -- --
00F0:                                   32 0D 80 1F 00             2....
0100: 0E 80 0F 80 10 80 1F 01  00 BF 20 02 80 01 80 11  .......... .....
0110: 80 00 00 41 12 80 13 80  00 00 01 00 41 14 80 0D  ...A........A...
0120: 80 00 00 02 00 BF 20 02  80 01 80 15 80 00 00 3E  ...... ........>
0130: 00 00 07 80 3E 01 03 03  00 15 80 01 41 01 06 03  ....>.......A...
0140: 00 3E 00 00 02 80 50 01  03 04 00 15 80 01 53 01  .>....P.......S.
0150: 06 04 00 3E 00 00 04 80  62 01 03 05 00 15 80 01  ...>....b.......
0160: 65 01 06 04 00 1B                                 e.....          
```

#### Opcodes

```
  0: 0x00FB [0x32] ExtData[1]->MainSpeed = 27* * 0.1
  1: 0x00FE [0x1F] MOVE_ENTITY: EventEntity moves to X=-93.764*, Z=-83.238*, Y=-0.500*
  2: 0x0106 [0x1F] MOVE_ENTITY: Update entity position (mode=1)
  3: 0x0108 [0x00] END_REQSTACK()
```

#### Data or dead code:

```
# Dead code (unreachable instructions):
     0x0109 [0xBF] CHOCOBO_RACING_PARAMETER_GETTER(param_type=0x20)
     0x010B [0x02] IF !(0x0180 == 0x1180) GOTO 0x0000
     0x0113 [0x41] ExtData[1]->WorkLocal[1] = ExtData[1]->WorkLocal[0] (bits 28*-30*)
     0x011C [0x41] ExtData[1]->WorkLocal[2] = ExtData[1]->WorkLocal[0] (bits 25*-27*)
     0x0125 [0xBF] CHOCOBO_RACING_PARAMETER_GETTER(param_type=0x20)
     0x0127 [0x02] IF !(0x0180 == 0x1580) GOTO 0x0000
     0x012F [0x3E] IF !(ExtData[1]->WorkLocal[0] bit 16*) GOTO 0x013E
     0x0136 [0x03] ExtData[1]->WorkLocal[3] = 1*
     0x013B [0x01] GOTO 0x0141
     0x013E [0x06] ExtData[1]->WorkLocal[3] = 0
     0x0141 [0x3E] IF !(ExtData[1]->WorkLocal[0] bit 0*) GOTO 0x0150
     0x0148 [0x03] ExtData[1]->WorkLocal[4] = 1*
     0x014D [0x01] GOTO 0x0153
     0x0150 [0x06] ExtData[1]->WorkLocal[4] = 0
     0x0153 [0x3E] IF !(ExtData[1]->WorkLocal[0] bit 8*) GOTO 0x0162
     0x015A [0x03] ExtData[1]->WorkLocal[5] = 1*
     0x015F [0x01] GOTO 0x0165
     0x0162 [0x06] ExtData[1]->WorkLocal[4] = 0
     0x0165 [0x1B] RETURN
```

### Event 65535.8

#### Metadata

| Field        | Value     |
|--------------|-----------|
| Entrypoint   | 0x0166    |
| Data Size    | 277 bytes |
| Instructions | 51        |

```
      00 01 02 03 04 05 06 07  08 09 0A 0B 0C 0D 0E 0F
      -- -- -- -- -- -- -- --  -- -- -- -- -- -- -- --
0160:                   03 07  00 2C 10 03 0E 00 2C 10        ...,....,.
0170: 03 0F 00 2D 10 03 11 00  29 10 02 11 00 16 80 03  ...-....).......
0180: A2 01 41 17 80 0D 80 26  10 13 00 03 12 00 04 80  ..A....&........
0190: 08 12 00 13 00 07 0E 00  12 00 03 13 00 12 00 01  ................
01A0: A5 01 06 13 00 02 11 00  16 80 03 CD 01 41 17 80  .............A..
01B0: 0D 80 27 10 14 00 03 12  00 04 80 08 12 00 14 00  ..'.............
01C0: 07 0F 00 12 00 03 14 00  12 00 01 D0 01 06 14 00  ................
01D0: 03 08 00 0E 00 14 08 00  18 80 9D 03 04 80 09 00  ................
01E0: 08 00 0B 08 00 9D 03 04  80 0A 00 08 00 0B 08 00  ................
01F0: 9D 03 04 80 0B 00 08 00  0B 08 00 9D 03 04 80 0C  ................
0200: 00 08 00 02 11 00 02 80  00 0E 02 01 15 02 36 09  ..............6.
0210: 00 0B 00 0A 00 40 07 80  19 80 36 10 11 00 08 14  .....@....6.....
0220: 00 13 00 9D 03 02 80 13  00 11 00 07 14 00 13 00  ................
0230: 9D 03 02 80 12 00 11 00  14 14 00 1A 80 15 14 00  ................
0240: 12 00 03 12 00 14 00 03  13 00 11 00 14 13 00 04  ................
0250: 80 07 13 00 01 80 9D 03  15 80 13 00 13 00 14 12  ................
0260: 00 13 00 15 12 00 1A 80  03 0D 00 0C 80 14 0D 00  ................
0270: 12 00 15 0D 00 1A 80 32  0D 00 00                 .......2...     
```

#### Opcodes

```
  0: 0x0166 [0x03] ExtData[1]->WorkLocal[7] = Work_Zone[44]
  1: 0x016B [0x03] ExtData[1]->WorkLocal[14] = Work_Zone[44]
  2: 0x0170 [0x03] ExtData[1]->WorkLocal[15] = Work_Zone[45]
  3: 0x0175 [0x03] ExtData[1]->WorkLocal[17] = Work_Zone[41]
  4: 0x017A [0x02] IF !(ExtData[1]->WorkLocal[17] >= 32*) GOTO 0x01A2
  5: 0x0182 [0x41] ExtData[1]->WorkLocal[19] = Work_Zone[38] (bits 24*-27*)
  6: 0x018B [0x03] ExtData[1]->WorkLocal[18] = 8*
  7: 0x0190 [0x08] ExtData[1]->WorkLocal[18] -= ExtData[1]->WorkLocal[19]
  8: 0x0195 [0x07] ExtData[1]->WorkLocal[14] += ExtData[1]->WorkLocal[18]
  9: 0x019A [0x03] ExtData[1]->WorkLocal[19] = ExtData[1]->WorkLocal[18]
 10: 0x019F [0x01] GOTO 0x01A5
 11: 0x01A2 [0x06] ExtData[1]->WorkLocal[19] = 0

SUBROUTINE_01A5:
 12: 0x01A5 [0x02] IF !(ExtData[1]->WorkLocal[17] >= 32*) GOTO 0x01CD
 13: 0x01AD [0x41] ExtData[1]->WorkLocal[20] = Work_Zone[39] (bits 24*-27*)
 14: 0x01B6 [0x03] ExtData[1]->WorkLocal[18] = 8*
 15: 0x01BB [0x08] ExtData[1]->WorkLocal[18] -= ExtData[1]->WorkLocal[20]
 16: 0x01C0 [0x07] ExtData[1]->WorkLocal[15] += ExtData[1]->WorkLocal[18]
 17: 0x01C5 [0x03] ExtData[1]->WorkLocal[20] = ExtData[1]->WorkLocal[18]
 18: 0x01CA [0x01] GOTO 0x01D0
 19: 0x01CD [0x06] ExtData[1]->WorkLocal[20] = 0

SUBROUTINE_01D0:
 20: 0x01D0 [0x03] ExtData[1]->WorkLocal[8] = ExtData[1]->WorkLocal[14]
 21: 0x01D5 [0x14] ExtData[1]->WorkLocal[8] *= 4*
 22: 0x01DA [0x9D] ExtData[1]->WorkLocal[8] = Work_Zone[8*][ExtData[1]->WorkLocal[9]] // Via remapped space
 23: 0x01E2 [0x0B] ExtData[1]->WorkLocal[8]++
 24: 0x01E5 [0x9D] ExtData[1]->WorkLocal[8] = Work_Zone[8*][ExtData[1]->WorkLocal[10]] // Via remapped space
 25: 0x01ED [0x0B] ExtData[1]->WorkLocal[8]++
 26: 0x01F0 [0x9D] ExtData[1]->WorkLocal[8] = Work_Zone[8*][ExtData[1]->WorkLocal[11]] // Via remapped space
 27: 0x01F8 [0x0B] ExtData[1]->WorkLocal[8]++
 28: 0x01FB [0x9D] ExtData[1]->WorkLocal[8] = Work_Zone[8*][ExtData[1]->WorkLocal[12]] // Via remapped space
 29: 0x0203 [0x02] IF !(ExtData[1]->WorkLocal[17] == 0*) GOTO 0x020E
 30: 0x020B [0x01] GOTO 0x0215
 31: 0x020E [0x36] SET_ENTITY_EVENT_POSITION(pos_x=ExtData[1]->WorkLocal[9], pos_z=ExtData[1]->WorkLocal[11], pos_y=ExtData[1]->WorkLocal[10])

SUBROUTINE_0215:
 32: 0x0215 [0x40] SET_BIT_WORK_RANGE(start_bit=16*, end_bit=23*, target=Work_Zone[54], source=ExtData[1]->WorkLocal[17])
 33: 0x021E [0x08] ExtData[1]->WorkLocal[20] -= ExtData[1]->WorkLocal[19]
 34: 0x0223 [0x9D] ExtData[1]->WorkLocal[17] = Work_Zone[0*][ExtData[1]->WorkLocal[19]] // Via remapped space
 35: 0x022B [0x07] ExtData[1]->WorkLocal[20] += ExtData[1]->WorkLocal[19]
 36: 0x0230 [0x9D] ExtData[1]->WorkLocal[17] = Work_Zone[0*][ExtData[1]->WorkLocal[18]] // Via remapped space
 37: 0x0238 [0x14] ExtData[1]->WorkLocal[20] *= 1000*
 38: 0x023D [0x15] ExtData[1]->WorkLocal[20] /= ExtData[1]->WorkLocal[18]
 39: 0x0242 [0x03] ExtData[1]->WorkLocal[18] = ExtData[1]->WorkLocal[20]
 40: 0x0247 [0x03] ExtData[1]->WorkLocal[19] = ExtData[1]->WorkLocal[17]
 41: 0x024C [0x14] ExtData[1]->WorkLocal[19] *= 8*
 42: 0x0251 [0x07] ExtData[1]->WorkLocal[19] += 6*
 43: 0x0256 [0x9D] ExtData[1]->WorkLocal[19] = Work_Zone[1*][ExtData[1]->WorkLocal[19]] // Via remapped space
 44: 0x025E [0x14] ExtData[1]->WorkLocal[18] *= ExtData[1]->WorkLocal[19]
 45: 0x0263 [0x15] ExtData[1]->WorkLocal[18] /= 1000*
 46: 0x0268 [0x03] ExtData[1]->WorkLocal[13] = 80*
 47: 0x026D [0x14] ExtData[1]->WorkLocal[13] *= ExtData[1]->WorkLocal[18]
 48: 0x0272 [0x15] ExtData[1]->WorkLocal[13] /= 1000*
 49: 0x0277 [0x32] ExtData[1]->MainSpeed = ExtData[1]->WorkLocal[13] * 0.1
 50: 0x027A [0x00] END_REQSTACK()
```

### Event 65535.9

#### Metadata

| Field        | Value     |
|--------------|-----------|
| Entrypoint   | 0x027B    |
| Data Size    | 509 bytes |
| Instructions | 93        |

```
      00 01 02 03 04 05 06 07  08 09 0A 0B 0C 0D 0E 0F
      -- -- -- -- -- -- -- --  -- -- -- -- -- -- -- --
0270:                                   03 07 00 0E 00             .....
0280: 02 11 00 13 80 00 8D 02  03 07 00 0F 00 02 11 00  ................
0290: 1B 80 00 9D 02 03 07 00  31 10 0C 07 00 02 07 00  ........1.......
02A0: 33 10 05 98 03 02 07 00  0F 00 05 4E 03 02 31 10  3..........N..1.
02B0: 07 00 05 BC 02 3C 30 10  01 80 15 80 02 07 00 33  .....<0........3
02C0: 10 02 C7 02 01 98 03 02  37 10 11 80 00 00 03 BF  ........7.......
02D0: 60 02 80 02 80 12 00 41  17 80 0D 80 12 00 12 00  `......A........
02E0: 02 12 00 02 80 00 FD 02  03 02 10 31 10 07 02 10  ...........1....
02F0: 01 80 02 02 10 07 00 05  FD 02 01 98 03 01 00 03  ................
0300: 03 08 00 07 00 14 08 00  18 80 9D 03 04 80 09 00  ................
0310: 08 00 0B 08 00 9D 03 04  80 0A 00 08 00 0B 08 00  ................
0320: 9D 03 04 80 0B 00 08 00  0B 08 00 9D 03 04 80 0C  ................
0330: 00 08 00 02 11 00 02 80  00 3E 03 01 48 03 1F 00  .........>..H...
0340: 09 00 0B 00 0A 00 1F 01  0B 07 00 01 A5 02 07 11  ................
0350: 00 15 80 40 07 80 19 80  36 10 11 00 3C 30 10 1C  ...@....6...<0..
0360: 80 15 80 03 0E 00 0F 00  9D 03 02 80 10 00 11 00  ................
0370: 07 0F 00 10 00 1A 99 03  02 11 00 13 80 00 85 03  ................
0380: 03 07 00 0F 00 02 11 00  1B 80 00 95 03 03 07 00  ................
0390: 31 10 0C 07 00 01 9D 02  00 03 17 00 0E 00 03 18  1...............
03A0: 00 0F 00 02 11 00 16 80  03 D5 03 BF 40 02 80 11  ............@...
03B0: 00 02 80 15 00 41 17 80  0D 80 15 00 13 00 03 12  .....A..........
03C0: 00 04 80 08 12 00 13 00  07 0E 00 12 00 03 13 00  ................
03D0: 12 00 01 DA 03 03 13 00  02 80 02 11 00 16 80 03  ................
03E0: 0C 04 BF 40 02 80 11 00  15 80 16 00 41 17 80 0D  ...@........A...
03F0: 80 16 00 14 00 03 12 00  04 80 08 12 00 14 00 07  ................
0400: 0F 00 12 00 03 14 00 12  00 01 11 04 03 14 00 02  ................
0410: 80 08 14 00 13 00 9D 03  02 80 13 00 11 00 07 14  ................
0420: 00 13 00 9D 03 02 80 12  00 11 00 14 14 00 1A 80  ................
0430: 15 14 00 12 00 03 12 00  14 00 03 13 00 11 00 14  ................
0440: 13 00 04 80 07 13 00 01  80 9D 03 15 80 13 00 13  ................
0450: 00 14 12 00 13 00 15 12  00 1A 80 03 0D 00 0C 80  ................
0460: 14 0D 00 12 00 15 0D 00  1A 80 32 0D 00 03 0E 00  ..........2.....
0470: 17 00 03 0F 00 18 00 1B                           ........        
```

#### Opcodes

```
  0: 0x027B [0x03] ExtData[1]->WorkLocal[7] = ExtData[1]->WorkLocal[14]
  1: 0x0280 [0x02] IF !(ExtData[1]->WorkLocal[17] == 30*) GOTO 0x028D
  2: 0x0288 [0x03] ExtData[1]->WorkLocal[7] = ExtData[1]->WorkLocal[15]
  3: 0x028D [0x02] IF !(ExtData[1]->WorkLocal[17] == 31*) GOTO 0x029D
  4: 0x0295 [0x03] ExtData[1]->WorkLocal[7] = Work_Zone[49]
  5: 0x029A [0x0C] ExtData[1]->WorkLocal[7]--
  6: 0x029D [0x02] IF !(ExtData[1]->WorkLocal[7] > Work_Zone[51]) GOTO 0x0398
  7: 0x02A5 [0x02] IF !(ExtData[1]->WorkLocal[7] > ExtData[1]->WorkLocal[15]) GOTO 0x034E
  8: 0x02AD [0x02] IF !(Work_Zone[49] > ExtData[1]->WorkLocal[7]) GOTO 0x02BC
  9: 0x02B5 [0x3C] SET_BIT_FLAG_CONDITIONAL(target_work_offset=Work_Zone[48], bit_index_work_offset=6*, condition_work_offset=1*)
 10: 0x02BC [0x02] IF !(ExtData[1]->WorkLocal[7] <= Work_Zone[51]) GOTO 0x02C7
 11: 0x02C4 [0x01] GOTO 0x0398
 12: 0x02C7 [0x02] IF !(Work_Zone[55] == 2*) GOTO 0x0300
 13: 0x02CF [0xBF] CHOCOBO_RACING_PARAMETER_GETTER(param_type=0x60)
 14: 0x02D1 [0x02] IF !(0x0280 == 0x1280) GOTO 0x1741
 15: 0x02D9 [0x80] LOAD_WAIT(entity=Unknown NPC (ID: 1212429/0x0012800D))
 16: 0x02DE [0x12] 0x0200 = rand()
 17: 0x02E1 [0x12] 0x0200 = rand()
 18: 0x02E4 [0x80] LOAD_WAIT(entity=Unknown NPC (ID: 50527488/0x0302FD00))
 19: 0x02E9 [0x02] IF !(0x3110 <= 0x0710) GOTO 0x0110
 20: 0x02F1 [0x80] LOAD_WAIT(entity=Unknown NPC (ID: 118489602/0x07100202))
 21: 0x02F6 [0x00] END_REQSTACK()

SUBROUTINE_0300:
 22: 0x0300 [0x03] ExtData[1]->WorkLocal[8] = ExtData[1]->WorkLocal[7]
 23: 0x0305 [0x14] ExtData[1]->WorkLocal[8] *= 4*
 24: 0x030A [0x9D] ExtData[1]->WorkLocal[8] = Work_Zone[8*][ExtData[1]->WorkLocal[9]] // Via remapped space
 25: 0x0312 [0x0B] ExtData[1]->WorkLocal[8]++
 26: 0x0315 [0x9D] ExtData[1]->WorkLocal[8] = Work_Zone[8*][ExtData[1]->WorkLocal[10]] // Via remapped space
 27: 0x031D [0x0B] ExtData[1]->WorkLocal[8]++
 28: 0x0320 [0x9D] ExtData[1]->WorkLocal[8] = Work_Zone[8*][ExtData[1]->WorkLocal[11]] // Via remapped space
 29: 0x0328 [0x0B] ExtData[1]->WorkLocal[8]++
 30: 0x032B [0x9D] ExtData[1]->WorkLocal[8] = Work_Zone[8*][ExtData[1]->WorkLocal[12]] // Via remapped space
 31: 0x0333 [0x02] IF !(ExtData[1]->WorkLocal[17] == 0*) GOTO 0x033E
 32: 0x033B [0x01] GOTO 0x0348
 33: 0x033E [0x1F] MOVE_ENTITY: EventEntity moves to X=ExtData[1]->WorkLocal[9], Z=ExtData[1]->WorkLocal[11], Y=ExtData[1]->WorkLocal[10]
 34: 0x0346 [0x1F] MOVE_ENTITY: Update entity position (mode=1)

SUBROUTINE_0348:
 35: 0x0348 [0x0B] ExtData[1]->WorkLocal[7]++
 36: 0x034B [0x01] GOTO 0x02A5
 37: 0x034E [0x07] ExtData[1]->WorkLocal[17] += 1*
 38: 0x0353 [0x40] SET_BIT_WORK_RANGE(start_bit=16*, end_bit=23*, target=Work_Zone[54], source=ExtData[1]->WorkLocal[17])
 39: 0x035C [0x3C] SET_BIT_FLAG_CONDITIONAL(target_work_offset=Work_Zone[48], bit_index_work_offset=14*, condition_work_offset=1*)
 40: 0x0363 [0x03] ExtData[1]->WorkLocal[14] = ExtData[1]->WorkLocal[15]
 41: 0x0368 [0x9D] ExtData[1]->WorkLocal[17] = Work_Zone[0*][ExtData[1]->WorkLocal[16]] // Via remapped space
 42: 0x0370 [0x07] ExtData[1]->WorkLocal[15] += ExtData[1]->WorkLocal[16]
 43: 0x0375 [0x1A] CALL_SUBROUTINE(address=0x0399)
 44: 0x0378 [0x02] IF !(ExtData[1]->WorkLocal[17] == 30*) GOTO 0x0385
 45: 0x0380 [0x03] ExtData[1]->WorkLocal[7] = ExtData[1]->WorkLocal[15]
 46: 0x0385 [0x02] IF !(ExtData[1]->WorkLocal[17] == 31*) GOTO 0x0395
 47: 0x038D [0x03] ExtData[1]->WorkLocal[7] = Work_Zone[49]
 48: 0x0392 [0x0C] ExtData[1]->WorkLocal[7]--
 49: 0x0395 [0x01] GOTO 0x029D

SUBROUTINE_0398:
 50: 0x0398 [0x00] END_REQSTACK()

SUBROUTINE_0399:
 51: 0x0399 [0x03] ExtData[1]->WorkLocal[23] = ExtData[1]->WorkLocal[14]
 52: 0x039E [0x03] ExtData[1]->WorkLocal[24] = ExtData[1]->WorkLocal[15]
 53: 0x03A3 [0x02] IF !(ExtData[1]->WorkLocal[17] >= 32*) GOTO 0x03D5
 54: 0x03AB [0xBF] CHOCOBO_RACING_PARAMETER_GETTER(param_type=0x40)
 55: 0x03AD [0x02] IF !(0x1180 == 0x0200) GOTO 0x0015
 56: 0x03B5 [0x41] ExtData[1]->WorkLocal[19] = ExtData[1]->WorkLocal[21] (bits 24*-27*)
 57: 0x03BE [0x03] ExtData[1]->WorkLocal[18] = 8*
 58: 0x03C3 [0x08] ExtData[1]->WorkLocal[18] -= ExtData[1]->WorkLocal[19]
 59: 0x03C8 [0x07] ExtData[1]->WorkLocal[14] += ExtData[1]->WorkLocal[18]
 60: 0x03CD [0x03] ExtData[1]->WorkLocal[19] = ExtData[1]->WorkLocal[18]
 61: 0x03D2 [0x01] GOTO 0x03DA
 62: 0x03D5 [0x03] ExtData[1]->WorkLocal[19] = 0*

SUBROUTINE_03DA:
 63: 0x03DA [0x02] IF !(ExtData[1]->WorkLocal[17] >= 32*) GOTO 0x040C
 64: 0x03E2 [0xBF] CHOCOBO_RACING_PARAMETER_GETTER(param_type=0x40)
 65: 0x03E4 [0x02] IF !(0x1180 == 0x1500) GOTO 0x0016
 66: 0x03EC [0x41] ExtData[1]->WorkLocal[20] = ExtData[1]->WorkLocal[22] (bits 24*-27*)
 67: 0x03F5 [0x03] ExtData[1]->WorkLocal[18] = 8*
 68: 0x03FA [0x08] ExtData[1]->WorkLocal[18] -= ExtData[1]->WorkLocal[20]
 69: 0x03FF [0x07] ExtData[1]->WorkLocal[15] += ExtData[1]->WorkLocal[18]
 70: 0x0404 [0x03] ExtData[1]->WorkLocal[20] = ExtData[1]->WorkLocal[18]
 71: 0x0409 [0x01] GOTO 0x0411
 72: 0x040C [0x03] ExtData[1]->WorkLocal[20] = 0*

SUBROUTINE_0411:
 73: 0x0411 [0x08] ExtData[1]->WorkLocal[20] -= ExtData[1]->WorkLocal[19]
 74: 0x0416 [0x9D] ExtData[1]->WorkLocal[17] = Work_Zone[0*][ExtData[1]->WorkLocal[19]] // Via remapped space
 75: 0x041E [0x07] ExtData[1]->WorkLocal[20] += ExtData[1]->WorkLocal[19]
 76: 0x0423 [0x9D] ExtData[1]->WorkLocal[17] = Work_Zone[0*][ExtData[1]->WorkLocal[18]] // Via remapped space
 77: 0x042B [0x14] ExtData[1]->WorkLocal[20] *= 1000*
 78: 0x0430 [0x15] ExtData[1]->WorkLocal[20] /= ExtData[1]->WorkLocal[18]
 79: 0x0435 [0x03] ExtData[1]->WorkLocal[18] = ExtData[1]->WorkLocal[20]
 80: 0x043A [0x03] ExtData[1]->WorkLocal[19] = ExtData[1]->WorkLocal[17]
 81: 0x043F [0x14] ExtData[1]->WorkLocal[19] *= 8*
 82: 0x0444 [0x07] ExtData[1]->WorkLocal[19] += 6*
 83: 0x0449 [0x9D] ExtData[1]->WorkLocal[19] = Work_Zone[1*][ExtData[1]->WorkLocal[19]] // Via remapped space
 84: 0x0451 [0x14] ExtData[1]->WorkLocal[18] *= ExtData[1]->WorkLocal[19]
 85: 0x0456 [0x15] ExtData[1]->WorkLocal[18] /= 1000*
 86: 0x045B [0x03] ExtData[1]->WorkLocal[13] = 80*
 87: 0x0460 [0x14] ExtData[1]->WorkLocal[13] *= ExtData[1]->WorkLocal[18]
 88: 0x0465 [0x15] ExtData[1]->WorkLocal[13] /= 1000*
 89: 0x046A [0x32] ExtData[1]->MainSpeed = ExtData[1]->WorkLocal[13] * 0.1
 90: 0x046D [0x03] ExtData[1]->WorkLocal[14] = ExtData[1]->WorkLocal[23]
 91: 0x0472 [0x03] ExtData[1]->WorkLocal[15] = ExtData[1]->WorkLocal[24]
 92: 0x0477 [0x1B] RETURN
```

#### Data or dead code:

```
# Dead code (unreachable instructions):
     0x02F7 [0x05] 0x02FD = 1
     0x02FA [0x01] GOTO 0x0398
     0x02FD [0x01] GOTO 0x0300
```

### Event 65535.10

#### Metadata

| Field        | Value   |
|--------------|---------|
| Entrypoint   | 0x0478  |
| Data Size    | 3 bytes |
| Instructions | 2       |

```
      00 01 02 03 04 05 06 07  08 09 0A 0B 0C 0D 0E 0F
      -- -- -- -- -- -- -- --  -- -- -- -- -- -- -- --
0470:                          61 00 00                         a..     
```

#### Opcodes

```
  0: 0x0478 [0x61] EventEntity->Render.Flags2 &= ~0x00000001
  1: 0x047A [0x00] END_REQSTACK()
```

### Event 65535.11

#### Metadata

| Field        | Value   |
|--------------|---------|
| Entrypoint   | 0x047B  |
| Data Size    | 3 bytes |
| Instructions | 2       |

```
      00 01 02 03 04 05 06 07  08 09 0A 0B 0C 0D 0E 0F
      -- -- -- -- -- -- -- --  -- -- -- -- -- -- -- --
0470:                                   61 01 00                   a..  
```

#### Opcodes

```
  0: 0x047B [0x61] EventEntity->Render.Flags2 |= 0x00000001
  1: 0x047D [0x00] END_REQSTACK()
```
