# 17064140 - Michaela

## Common Data

| Field            | Value                    |
|------------------|--------------------------|
| Zone             | Chocobo Circuit (ID: 70) |
| Block Size       | 544 bytes                |
| Total Events     | 3                        |
| References Count | 27                       |

## List of Events

| Event ID              | Entrypoint   |   Size |   Instructions |
|-----------------------|--------------|--------|----------------|
| [65535](#event-65535) | 0x0000       |      1 |              1 |
| [404](#event-404)     | 0x0001       |    328 |             78 |
| [405](#event-405)     | 0x0149       |     77 |             18 |

## DAT References (imed_data)

|   Index | Hex Value   |   Dec Value |
|---------|-------------|-------------|
|       0 | 0x40000000  |  1073741824 |
|       1 | 0x012F      |         303 |
|       2 | 0x0130      |         304 |
|       3 | 0x0131      |         305 |
|       4 | 0x2663      |        9827 |
|       5 | 0x2664      |        9828 |
|       6 | 0x2665      |        9829 |
|       7 | 0x0001      |           1 |
|       8 | 0x0000      |           0 |
|       9 | 0x0177      |         375 |
|      10 | 0x0178      |         376 |
|      11 | 0x0179      |         377 |
|      12 | 0x2668      |        9832 |
|      13 | 0x2669      |        9833 |
|      14 | 0x266A      |        9834 |
|      15 | 0x266B      |        9835 |
|      16 | 0x266C      |        9836 |
|      17 | 0x266D      |        9837 |
|      18 | 0x266F      |        9839 |
|      19 | 0x2671      |        9841 |
|      20 | 0x2666      |        9830 |
|      21 | 0x000A      |          10 |
|      22 | 0x2667      |        9831 |
|      23 | 0x0002      |           2 |
|      24 | 0x2670      |        9840 |
|      25 | 0x2672      |        9842 |
|      26 | 0x2673      |        9843 |

## String References

- **9827**: Greetings. We are now offering, free of charge, an official line of classy display pedestals designed for housing your CRA trophies. There are currently models available for $0, $1, and $2.
- **9828**: Furthermore, by handing in both your trophy and matching stand together, we will gladly engrave them with the details of your memorable victory.
- **9829**: What will you do? [Receive a trophy stand./Hear the details./Quit.]
- **9830**: Which trophy stand would you like? [$0./$1./$2./Never mind.]
- **9831**: Very well, [sir/ma'am]. Here is your new, complimentary trophy stand. On behalf of the CRA, congratulations on your achievement!
- **9832**: The CRA awards trophies to the victors of races held at the Chocobo Circuit.
- **9833**: Recently, we have been receiving complaints from some of our more avid racers that their Mog Houses are literally bursting at the seams with their amassed trophies.
- **9834**: Not wishing to deny our loyal patrons the elbowroom they deserve, the CRA has issued a lineup of fashionable stands for the convenient storage of trophies. Also, by turning in a trophy and stand set, you can receive an engraving of your victory details.
- **9835**: Trophy stands are currently being offered free of charge. If you wish to have your display stand engraved, simply hand it in here together with its matching trophy.
- **9836**: Three distinct stands are available, each designed specifically for housing a certain trophy. They are as follows.
- **9837**: % for $3. $1 for $4. $2 for $5.
- **9839**: The display stands are designed so that the trophy may be placed on top in plain view. They are extremely tasteful and will make a welcome addition to any Mog House interior.
- **9840**: You have come for the trophy stand engraving, yes? Very well. We will see to it immediately that all of your $0 details are inscribed onto your $1.
- **9841**: We are required to warn you, however, that should you ever lose or dispose of your trophy stand, all engraved information will be lost. Unfortunately, there is nothing we can do in such an event to replace any lost items or data.
- **9842**: Continue with the engraving? [Yes, please./No, thank you.]
- **9843**: The engraving process is complete. Your victory details have been immortalized in your $1. Thank you for your patronage, and congratulations again on your accomplishments!

## Events

### Event 65535

#### Metadata

| Field        | Value   |
|--------------|---------|
| Entrypoint   | 0x0000  |
| Data Size    | 1 bytes |
| Instructions | 1       |

```
      00 01 02 03 04 05 06 07  08 09 0A 0B 0C 0D 0E 0F
      -- -- -- -- -- -- -- --  -- -- -- -- -- -- -- --
0000: 00                                                .               
```

#### Opcodes

```
  0: 0x0000 [0x00] END_REQSTACK()
```

### Event 404

#### Metadata

| Field        | Value     |
|--------------|-----------|
| Entrypoint   | 0x0001    |
| Data Size    | 328 bytes |
| Instructions | 41        |

```
      00 01 02 03 04 05 06 07  08 09 0A 0B 0C 0D 0E 0F
      -- -- -- -- -- -- -- --  -- -- -- -- -- -- -- --
0000:    03 01 10 00 80 1E F0  FF FF 7F 03 02 10 01 80   ...............
0010: 03 03 10 02 80 03 04 10  03 80 1D 04 80 23 1D 05  .............#..
0020: 80 23 24 06 80 07 80 08  80 25 02 00 10 07 80 00  .#$......%......
0030: 76 00 03 02 10 09 80 03  03 10 0A 80 03 04 10 0B  v...............
0040: 80 03 05 10 01 80 03 06  10 02 80 03 07 10 03 80  ................
0050: 1D 0C 80 23 1D 0D 80 23  1D 0E 80 23 1D 0F 80 23  ...#...#...#...#
0060: 1D 10 80 23 1D 11 80 23  1D 12 80 23 1D 13 80 23  ...#...#...#...#
0070: 01 22 00 01 47 01 02 00  10 08 80 00 3C 01 03 02  ."..G.......<...
0080: 10 09 80 03 03 10 0A 80  03 04 10 0B 80 03 05 10  ................
0090: 01 80 03 06 10 02 80 03  07 10 03 80 24 14 80 08  ............$...
00A0: 80 08 80 25 02 00 10 08  80 00 D4 00 42 66 15 80  ...%........Bf..
00B0: F8 FF FF 7F F8 FF FF 7F  70 61 73 30 1D 16 80 23  ........pas0...#
00C0: 53 F8 FF FF 7F F8 FF FF  7F 70 61 73 30 1D 13 80  S........pas0...
00D0: 23 01 34 01 02 00 10 07  80 00 04 01 42 66 15 80  #.4.........Bf..
00E0: F8 FF FF 7F F8 FF FF 7F  70 61 73 30 1D 16 80 23  ........pas0...#
00F0: 53 F8 FF FF 7F F8 FF FF  7F 70 61 73 30 1D 13 80  S........pas0...
0100: 23 01 34 01 02 00 10 17  80 00 34 01 42 66 15 80  #.4.......4.Bf..
0110: F8 FF FF 7F F8 FF FF 7F  70 61 73 30 1D 16 80 23  ........pas0...#
0120: 53 F8 FF FF 7F F8 FF FF  7F 70 61 73 30 1D 13 80  S........pas0...
0130: 23 01 34 01 03 01 10 00  10 01 47 01 02 00 10 17  #.4.......G.....
0140: 80 00 47 01 01 47 01 21  00                       ..G..G.!.       
```

#### Opcodes

```
  0: 0x0001 [0x03] Work_Zone[1] = 1073741824*
  1: 0x0006 [0x1E] EventEntity looks at LocalPlayer and starts talking
  2: 0x000B [0x03] Work_Zone[2] = 303*
  3: 0x0010 [0x03] Work_Zone[3] = 304*
  4: 0x0015 [0x03] Work_Zone[4] = 305*
  5: 0x001A [0x1D] PRINT_EVENT_MESSAGE(message_id=9827*)
    → "Greetings. We are now offering, free of charge, an official line of classy display pedestals designed for housing your CRA trophies. There are currently models available for $0, $1, and $2."
  6: 0x001D [0x23] WAIT_FOR_DIALOG_INTERACTION
  7: 0x001E [0x1D] PRINT_EVENT_MESSAGE(message_id=9828*)
    → "Furthermore, by handing in both your trophy and matching stand together, we will gladly engrave them with the details of your memorable victory."
  8: 0x0021 [0x23] WAIT_FOR_DIALOG_INTERACTION
  9: 0x0022 [0x24] CREATE_DIALOG(message_id=9829*, default_option=1*, option_flags=0*)
    → "What will you do? [Receive a trophy stand./Hear the details./Quit.]"
 10: 0x0029 [0x25] WAIT_DIALOG_SELECT()
 11: 0x002A [0x02] IF !(Work_Zone[0] == 1*) GOTO 0x0076
 12: 0x0032 [0x03] Work_Zone[2] = 375*
 13: 0x0037 [0x03] Work_Zone[3] = 376*
 14: 0x003C [0x03] Work_Zone[4] = 377*
 15: 0x0041 [0x03] Work_Zone[5] = 303*
 16: 0x0046 [0x03] Work_Zone[6] = 304*
 17: 0x004B [0x03] Work_Zone[7] = 305*
 18: 0x0050 [0x1D] PRINT_EVENT_MESSAGE(message_id=9832*)
    → "The CRA awards trophies to the victors of races held at the Chocobo Circuit."
 19: 0x0053 [0x23] WAIT_FOR_DIALOG_INTERACTION
 20: 0x0054 [0x1D] PRINT_EVENT_MESSAGE(message_id=9833*)
    → "Recently, we have been receiving complaints from some of our more avid racers that their Mog Houses are literally bursting at the seams with their amassed trophies."
 21: 0x0057 [0x23] WAIT_FOR_DIALOG_INTERACTION
 22: 0x0058 [0x1D] PRINT_EVENT_MESSAGE(message_id=9834*)
    → "Not wishing to deny our loyal patrons the elbowroom they deserve, the CRA has issued a lineup of fashionable stands for the convenient storage of trophies. Also, by turning in a trophy and stand set, you can receive an engraving of your victory details."
 23: 0x005B [0x23] WAIT_FOR_DIALOG_INTERACTION
 24: 0x005C [0x1D] PRINT_EVENT_MESSAGE(message_id=9835*)
    → "Trophy stands are currently being offered free of charge. If you wish to have your display stand engraved, simply hand it in here together with its matching trophy."
 25: 0x005F [0x23] WAIT_FOR_DIALOG_INTERACTION
 26: 0x0060 [0x1D] PRINT_EVENT_MESSAGE(message_id=9836*)
    → "Three distinct stands are available, each designed specifically for housing a certain trophy. They are as follows."
 27: 0x0063 [0x23] WAIT_FOR_DIALOG_INTERACTION
 28: 0x0064 [0x1D] PRINT_EVENT_MESSAGE(message_id=9837*)
    → "% for $3. $1 for $4. $2 for $5."
 29: 0x0067 [0x23] WAIT_FOR_DIALOG_INTERACTION
 30: 0x0068 [0x1D] PRINT_EVENT_MESSAGE(message_id=9839*)
    → "The display stands are designed so that the trophy may be placed on top in plain view. They are extremely tasteful and will make a welcome addition to any Mog House interior."
 31: 0x006B [0x23] WAIT_FOR_DIALOG_INTERACTION
 32: 0x006C [0x1D] PRINT_EVENT_MESSAGE(message_id=9841*)
    → "We are required to warn you, however, that should you ever lose or dispose of your trophy stand, all engraved information will be lost. Unfortunately, there is nothing we can do in such an event to replace any lost items or data."
 33: 0x006F [0x23] WAIT_FOR_DIALOG_INTERACTION
 34: 0x0070 [0x01] GOTO 0x0022

SUBROUTINE_0134:
 35: 0x0134 [0x03] Work_Zone[1] = Work_Zone[0]
 36: 0x0139 [0x01] GOTO 0x0147
 37: 0x013C [0x02] IF !(Work_Zone[0] == 2*) GOTO 0x0147
 38: 0x0144 [0x01] GOTO 0x0147

SUBROUTINE_0147:
 39: 0x0147 [0x21] END_EVENT
 40: 0x0148 [0x00] END_REQSTACK()
```

#### Data or dead code:

```
# Dead code (unreachable instructions):
     0x0073 [0x01] GOTO 0x0147
```

### Event 405

#### Metadata

| Field        | Value    |
|--------------|----------|
| Entrypoint   | 0x0149   |
| Data Size    | 77 bytes |
| Instructions | 18       |

```
      00 01 02 03 04 05 06 07  08 09 0A 0B 0C 0D 0E 0F
      -- -- -- -- -- -- -- --  -- -- -- -- -- -- -- --
0140:                             42 03 01 10 00 80 1E           B......
0150: F0 FF FF 7F 1D 18 80 23  1D 13 80 23 24 19 80 07  .......#...#$...
0160: 80 08 80 25 02 00 10 08  80 00 8F 01 66 15 80 F8  ...%........f...
0170: FF FF 7F F8 FF FF 7F 70  61 73 30 1D 1A 80 23 53  .......pas0...#S
0180: F8 FF FF 7F F8 FF FF 7F  70 61 73 30 01 8F 01 03  ........pas0....
0190: 01 10 00 10 21 00                                 ....!.          
```

#### Opcodes

```
  0: 0x0149 [0x42] SET_CLI_EVENT_CANCEL_DATA()
  1: 0x014A [0x03] Work_Zone[1] = 1073741824*
  2: 0x014F [0x1E] EventEntity looks at LocalPlayer and starts talking
  3: 0x0154 [0x1D] PRINT_EVENT_MESSAGE(message_id=9840*)
    → "You have come for the trophy stand engraving, yes? Very well. We will see to it immediately that all of your $0 details are inscribed onto your $1."
  4: 0x0157 [0x23] WAIT_FOR_DIALOG_INTERACTION
  5: 0x0158 [0x1D] PRINT_EVENT_MESSAGE(message_id=9841*)
    → "We are required to warn you, however, that should you ever lose or dispose of your trophy stand, all engraved information will be lost. Unfortunately, there is nothing we can do in such an event to replace any lost items or data."
  6: 0x015B [0x23] WAIT_FOR_DIALOG_INTERACTION
  7: 0x015C [0x24] CREATE_DIALOG(message_id=9842*, default_option=1*, option_flags=0*)
    → "Continue with the engraving? [Yes, please./No, thank you.]"
  8: 0x0163 [0x25] WAIT_DIALOG_SELECT()
  9: 0x0164 [0x02] IF !(Work_Zone[0] == 0*) GOTO 0x018F
 10: 0x016C [0x66] LOAD_EXT_SCHEDULER_MAIN: Load scheduler "pas0" with entities [EventEntity, EventEntity], work=10*
 11: 0x017B [0x1D] PRINT_EVENT_MESSAGE(message_id=9843*)
    → "The engraving process is complete. Your victory details have been immortalized in your $1. Thank you for your patronage, and congratulations again on your accomplishments!"
 12: 0x017E [0x23] WAIT_FOR_DIALOG_INTERACTION
 13: 0x017F [0x53] WAIT_SCHEDULER_TASK: Wait for scheduler "pas0" with entities [EventEntity, EventEntity]
 14: 0x018C [0x01] GOTO 0x018F

SUBROUTINE_018F:
 15: 0x018F [0x03] Work_Zone[1] = Work_Zone[0]
 16: 0x0194 [0x21] END_EVENT
 17: 0x0195 [0x00] END_REQSTACK()
```
