# 17064118 - Eugenia

## Common Data

| Field            | Value                    |
|------------------|--------------------------|
| Zone             | Chocobo Circuit (ID: 70) |
| Block Size       | 196 bytes                |
| Total Events     | 4                        |
| References Count | 9                        |

## List of Events

| Event ID              | Entrypoint   |   Size |   Instructions |
|-----------------------|--------------|--------|----------------|
| [65535](#event-65535) | 0x0000       |      1 |              1 |
| [359](#event-359)     | 0x0001       |     49 |             13 |
| [360](#event-360)     | 0x0032       |     36 |              8 |
| [361](#event-361)     | 0x0056       |     40 |             10 |

## DAT References (imed_data)

|   Index | Hex Value   |   Dec Value |
|---------|-------------|-------------|
|       0 | 0x25AB      |        9643 |
|       1 | 0x25AC      |        9644 |
|       2 | 0x25AD      |        9645 |
|       3 | 0x25AE      |        9646 |
|       4 | 0x25B1      |        9649 |
|       5 | 0x25B2      |        9650 |
|       6 | 0x25B4      |        9652 |
|       7 | 0x25B5      |        9653 |
|       8 | 0x25B6      |        9654 |

## String References

- **9643**: I'm cheering for "ID$3:$0-$1"! Why? Because they're so cute, silly!
- **9645**: Teehee!
- **9646**: They're so cute, I wish I could take them home with me!
- **9649**: Yaaay!!! See? I knew they could do it!
- **9652**: Nooo... They lost...
- **9654**: Teehee! You're so kind, I like you even more than the chocobos!

## Events

### Event 65535

#### Metadata

| Field        | Value   |
|--------------|---------|
| Entrypoint   | 0x0000  |
| Data Size    | 1 bytes |
| Instructions | 1       |

```
      00 01 02 03 04 05 06 07  08 09 0A 0B 0C 0D 0E 0F
      -- -- -- -- -- -- -- --  -- -- -- -- -- -- -- --
0000: 00                                                .               
```

#### Opcodes

```
  0: 0x0000 [0x00] END_REQSTACK()
```

### Event 359

#### Metadata

| Field        | Value    |
|--------------|----------|
| Entrypoint   | 0x0001   |
| Data Size    | 49 bytes |
| Instructions | 13       |

```
      00 01 02 03 04 05 06 07  08 09 0A 0B 0C 0D 0E 0F
      -- -- -- -- -- -- -- --  -- -- -- -- -- -- -- --
0000:    79 00 F8 FF FF 7F B7  60 04 01 1D 00 80 23 27   y......`.....#'
0010: 80 B7 60 04 01 04 B0 00  B7 60 04 01 B7 60 04 01  ..`......`...`..
0020: 01 80 23 1D 02 80 23 7B  B7 60 04 01 1D 03 80 23  ..#...#{.`.....#
0030: 21 00                                             !.              
```

#### Opcodes

```
  0: 0x0001 [0x79] EventEntity looks at Berthold (ID: 17064119/0x010460B7) (Basic look)
  1: 0x000B [0x1D] PRINT_EVENT_MESSAGE(message_id=9643*)
    → "I'm cheering for "ID$3:$0-$1"! Why? Because they're so cute, silly!"
  2: 0x000E [0x23] WAIT_FOR_DIALOG_INTERACTION
  3: 0x000F [0x27] REQ_SET(priority=0x80, entity_id=Berthold (ID: 17064119/0x010460B7), tag_num=0x04)
  4: 0x0016 [0xB0] PRINT_EVENT_MESSAGE(unknown1=0x00, speaker_id=0x010460B7, listener_id=0x010460B7, message_offset=0x8001)
  5: 0x0022 [0x23] WAIT_FOR_DIALOG_INTERACTION
  6: 0x0023 [0x1D] PRINT_EVENT_MESSAGE(message_id=9645*)
    → "Teehee!"
  7: 0x0026 [0x23] WAIT_FOR_DIALOG_INTERACTION
  8: 0x0027 [0x7B] Berthold (ID: 17064119/0x010460B7) stops talking
  9: 0x002C [0x1D] PRINT_EVENT_MESSAGE(message_id=9646*)
    → "They're so cute, I wish I could take them home with me!"
 10: 0x002F [0x23] WAIT_FOR_DIALOG_INTERACTION
 11: 0x0030 [0x21] END_EVENT
 12: 0x0031 [0x00] END_REQSTACK()
```

### Event 360

#### Metadata

| Field        | Value    |
|--------------|----------|
| Entrypoint   | 0x0032   |
| Data Size    | 36 bytes |
| Instructions | 8        |

```
      00 01 02 03 04 05 06 07  08 09 0A 0B 0C 0D 0E 0F
      -- -- -- -- -- -- -- --  -- -- -- -- -- -- -- --
0030:       79 00 F8 FF FF 7F  B7 60 04 01 1D 04 80 23    y......`.....#
0040: 27 80 B7 60 04 01 04 B0  00 B7 60 04 01 B7 60 04  '..`......`...`.
0050: 01 05 80 23 21 00                                 ...#!.          
```

#### Opcodes

```
  0: 0x0032 [0x79] EventEntity looks at Berthold (ID: 17064119/0x010460B7) (Basic look)
  1: 0x003C [0x1D] PRINT_EVENT_MESSAGE(message_id=9649*)
    → "Yaaay!!! See? I knew they could do it!"
  2: 0x003F [0x23] WAIT_FOR_DIALOG_INTERACTION
  3: 0x0040 [0x27] REQ_SET(priority=0x80, entity_id=Berthold (ID: 17064119/0x010460B7), tag_num=0x04)
  4: 0x0047 [0xB0] PRINT_EVENT_MESSAGE(unknown1=0x00, speaker_id=0x010460B7, listener_id=0x010460B7, message_offset=0x8005)
  5: 0x0053 [0x23] WAIT_FOR_DIALOG_INTERACTION
  6: 0x0054 [0x21] END_EVENT
  7: 0x0055 [0x00] END_REQSTACK()
```

### Event 361

#### Metadata

| Field        | Value    |
|--------------|----------|
| Entrypoint   | 0x0056   |
| Data Size    | 40 bytes |
| Instructions | 10       |

```
      00 01 02 03 04 05 06 07  08 09 0A 0B 0C 0D 0E 0F
      -- -- -- -- -- -- -- --  -- -- -- -- -- -- -- --
0050:                   1D 06  80 23 27 80 B7 60 04 01        ...#'..`..
0060: 04 B0 00 B7 60 04 01 B7  60 04 01 07 80 23 79 00  ....`...`....#y.
0070: F8 FF FF 7F B7 60 04 01  1D 08 80 23 21 00        .....`.....#!.  
```

#### Opcodes

```
  0: 0x0056 [0x1D] PRINT_EVENT_MESSAGE(message_id=9652*)
    → "Nooo... They lost..."
  1: 0x0059 [0x23] WAIT_FOR_DIALOG_INTERACTION
  2: 0x005A [0x27] REQ_SET(priority=0x80, entity_id=Berthold (ID: 17064119/0x010460B7), tag_num=0x04)
  3: 0x0061 [0xB0] PRINT_EVENT_MESSAGE(unknown1=0x00, speaker_id=0x010460B7, listener_id=0x010460B7, message_offset=0x8007)
  4: 0x006D [0x23] WAIT_FOR_DIALOG_INTERACTION
  5: 0x006E [0x79] EventEntity looks at Berthold (ID: 17064119/0x010460B7) (Basic look)
  6: 0x0078 [0x1D] PRINT_EVENT_MESSAGE(message_id=9654*)
    → "Teehee! You're so kind, I like you even more than the chocobos!"
  7: 0x007B [0x23] WAIT_FOR_DIALOG_INTERACTION
  8: 0x007C [0x21] END_EVENT
  9: 0x007D [0x00] END_REQSTACK()
```
