# 17064005 - Goccilo

## Common Data

| Field            | Value                    |
|------------------|--------------------------|
| Zone             | Chocobo Circuit (ID: 70) |
| Block Size       | 5920 bytes               |
| Total Events     | 28                       |
| References Count | 75                       |

## List of Events

| Event ID                   | Entrypoint   |   Size |   Instructions |
|----------------------------|--------------|--------|----------------|
| [65535](#event-65535)      | 0x0000       |      1 |              1 |
| [479](#event-479)          | 0x0001       |      1 |              1 |
| [488](#event-488)          | 0x0002       |      1 |              1 |
| [497](#event-497)          | 0x0003       |      1 |              1 |
| [65535.1](#event-655351)   | 0x0004       |      1 |              1 |
| [65535.2](#event-655352)   | 0x0005       |     21 |              2 |
| [65535.3](#event-655353)   | 0x001A       |    141 |             15 |
| [65535.4](#event-655354)   | 0x00A7       |    123 |             13 |
| [65535.5](#event-655355)   | 0x0122       |    141 |             15 |
| [65535.6](#event-655356)   | 0x01AF       |    123 |             13 |
| [65535.7](#event-655357)   | 0x022A       |    138 |             14 |
| [65535.8](#event-655358)   | 0x02B4       |    123 |             13 |
| [65535.9](#event-655359)   | 0x032F       |    156 |             14 |
| [65535.10](#event-6553510) | 0x03CB       |    159 |             15 |
| [65535.11](#event-6553511) | 0x046A       |    213 |             19 |
| [65535.12](#event-6553512) | 0x053F       |    189 |             19 |
| [65535.13](#event-6553513) | 0x05FC       |    171 |             17 |
| [65535.14](#event-6553514) | 0x06A7       |    237 |             23 |
| [65535.15](#event-6553515) | 0x0794       |    136 |             20 |
| [65535.16](#event-6553516) | 0x081C       |     10 |              4 |
| [65535.17](#event-6553517) | 0x0826       |    122 |             23 |
| [65535.18](#event-6553518) | 0x08A0       |     90 |             17 |
| [65535.19](#event-6553519) | 0x08FA       |     90 |             17 |
| [65535.20](#event-6553520) | 0x0954       |    134 |             26 |
| [65535.21](#event-6553521) | 0x09DA       |    814 |             93 |
| [65535.22](#event-6553522) | 0x0D08       |    121 |             21 |
| [65535.23](#event-6553523) | 0x0D81       |     97 |             17 |
| [65535.24](#event-6553524) | 0x0DE2       |   1938 |            344 |

## DAT References (imed_data)

|   Index | Hex Value   |   Dec Value |
|---------|-------------|-------------|
|       0 | 0x0008      |           8 |
|       1 | 0x0000      |           0 |
|       2 | 0x0002      |           2 |
|       3 | 0x010E      |         270 |
|       4 | 0x0151      |         337 |
|       5 | 0x000F      |          15 |
|       6 | 0x00C8      |         200 |
|       7 | 0x00BF      |         191 |
|       8 | 0x000B      |          11 |
|       9 | 0x003C      |          60 |
|      10 | 0x005A      |          90 |
|      11 | 0x001E      |          30 |
|      12 | 0x0028      |          40 |
|      13 | 0x0096      |         150 |
|      14 | 0x000C      |          12 |
|      15 | 0x0020      |          32 |
|      16 | 0x0078      |         120 |
|      17 | 0x0045      |          69 |
|      18 | 0x0029      |          41 |
|      19 | 0x0041      |          65 |
|      20 | 0x0037      |          55 |
|      21 | 0x001D      |          29 |
|      22 | 0x0016      |          22 |
|      23 | 0x272E      |       10030 |
|      24 | 0x2730      |       10032 |
|      25 | 0x2731      |       10033 |
|      26 | 0x227A      |        8826 |
|      27 | 0x0009      |           9 |
|      28 | 0x0001      |           1 |
|      29 | 0x272F      |       10031 |
|      30 | 0x0063      |          99 |
|      31 | 0x004B      |          75 |
|      32 | 0x000E      |          14 |
|      33 | 0x2753      |       10067 |
|      34 | 0x2754      |       10068 |
|      35 | 0x2755      |       10069 |
|      36 | 0x0003      |           3 |
|      37 | 0x2756      |       10070 |
|      38 | 0x2757      |       10071 |
|      39 | 0x2758      |       10072 |
|      40 | 0x2759      |       10073 |
|      41 | 0x275A      |       10074 |
|      42 | 0x275B      |       10075 |
|      43 | 0x275C      |       10076 |
|      44 | 0x275D      |       10077 |
|      45 | 0x275E      |       10078 |
|      46 | 0x2299      |        8857 |
|      47 | 0x273C      |       10044 |
|      48 | 0x273A      |       10042 |
|      49 | 0x2739      |       10041 |
|      50 | 0x2738      |       10040 |
|      51 | 0x273D      |       10045 |
|      52 | 0x273E      |       10046 |
|      53 | 0x0007      |           7 |
|      54 | 0x22A0      |        8864 |
|      55 | 0x273F      |       10047 |
|      56 | 0x22A2      |        8866 |
|      57 | 0x002B      |          43 |
|      58 | 0x0017      |          23 |
|      59 | 0x00E1      |         225 |
|      60 | 0x0019      |          25 |
|      61 | 0x012C      |         300 |
|      62 | 0x0005      |           5 |
|      63 | 0x0006      |           6 |
|      64 | 0x2378      |        9080 |
|      65 | 0x236C      |        9068 |
|      66 | 0xFFFFFFFF  |  4294967295 |
|      67 | 0x0010      |          16 |
|      68 | 0x0004      |           4 |
|      69 | 0x001C      |          28 |
|      70 | 0x001F      |          31 |
|      71 | 0x0018      |          24 |
|      72 | 0x001B      |          27 |
|      73 | 0x0014      |          20 |
|      74 | 0x0013      |          19 |

## String References

- **9068**: %0 %1 %2 %3
- **9080**: $0/$1/$2/$3 $4/$5/$6/$7

## Events

### Event 65535

#### Metadata

| Field        | Value   |
|--------------|---------|
| Entrypoint   | 0x0000  |
| Data Size    | 1 bytes |
| Instructions | 1       |

```
      00 01 02 03 04 05 06 07  08 09 0A 0B 0C 0D 0E 0F
      -- -- -- -- -- -- -- --  -- -- -- -- -- -- -- --
0000: 00                                                .               
```

#### Opcodes

```
  0: 0x0000 [0x00] END_REQSTACK()
```

### Event 479

#### Metadata

| Field        | Value   |
|--------------|---------|
| Entrypoint   | 0x0001  |
| Data Size    | 1 bytes |
| Instructions | 1       |

```
      00 01 02 03 04 05 06 07  08 09 0A 0B 0C 0D 0E 0F
      -- -- -- -- -- -- -- --  -- -- -- -- -- -- -- --
0000:    00                                              .              
```

#### Opcodes

```
  0: 0x0001 [0x00] END_REQSTACK()
```

### Event 488

#### Metadata

| Field        | Value   |
|--------------|---------|
| Entrypoint   | 0x0002  |
| Data Size    | 1 bytes |
| Instructions | 1       |

```
      00 01 02 03 04 05 06 07  08 09 0A 0B 0C 0D 0E 0F
      -- -- -- -- -- -- -- --  -- -- -- -- -- -- -- --
0000:       00                                            .             
```

#### Opcodes

```
  0: 0x0002 [0x00] END_REQSTACK()
```

### Event 497

#### Metadata

| Field        | Value   |
|--------------|---------|
| Entrypoint   | 0x0003  |
| Data Size    | 1 bytes |
| Instructions | 1       |

```
      00 01 02 03 04 05 06 07  08 09 0A 0B 0C 0D 0E 0F
      -- -- -- -- -- -- -- --  -- -- -- -- -- -- -- --
0000:          00                                          .            
```

#### Opcodes

```
  0: 0x0003 [0x00] END_REQSTACK()
```

### Event 65535.1

#### Metadata

| Field        | Value   |
|--------------|---------|
| Entrypoint   | 0x0004  |
| Data Size    | 1 bytes |
| Instructions | 1       |

```
      00 01 02 03 04 05 06 07  08 09 0A 0B 0C 0D 0E 0F
      -- -- -- -- -- -- -- --  -- -- -- -- -- -- -- --
0000:             00                                        .           
```

#### Opcodes

```
  0: 0x0004 [0x00] END_REQSTACK()
```

### Event 65535.2

#### Metadata

| Field        | Value    |
|--------------|----------|
| Entrypoint   | 0x0005   |
| Data Size    | 21 bytes |
| Instructions | 2        |

```
      00 01 02 03 04 05 06 07  08 09 0A 0B 0C 0D 0E 0F
      -- -- -- -- -- -- -- --  -- -- -- -- -- -- -- --
0000:                B6 0B 08  10 00 80 01 80 02 80 02       ...........
0010: 80 02 80 02 80 03 80 01  80 00                    ..........      
```

#### Opcodes

```
  0: 0x0005 [0xB6] ENTITY_APPEARANCE_HANDLER(case=Full entity look, race=Work_Zone[8], hair=8*, head=0*, body=2*, hands=2*, legs=2*, feet=2*, main=270*, sub=0*)
  1: 0x0019 [0x00] END_REQSTACK()
```

### Event 65535.3

#### Metadata

| Field        | Value     |
|--------------|-----------|
| Entrypoint   | 0x001A    |
| Data Size    | 141 bytes |
| Instructions | 15        |

```
      00 01 02 03 04 05 06 07  08 09 0A 0B 0C 0D 0E 0F
      -- -- -- -- -- -- -- --  -- -- -- -- -- -- -- --
0010:                                45 04 80 45 60 04            E..E`.
0020: 01 45 60 04 01 73 30 30  39 01 80 1C 05 80 45 06  .E`..s009.....E.
0030: 80 F0 FF FF 7F F0 FF FF  7F 66 64 69 30 01 80 45  .........fdi0..E
0040: 07 80 45 60 04 01 45 60  04 01 6B 61 6E 74 01 80  ..E`..E`..kant..
0050: 6E 45 60 04 01 08 80 99  45 60 04 01 1C 09 80 5B  nE`.....E`.....[
0060: 09 80 43 60 04 01 43 60  04 01 74 6C 6B 30 1C 0A  ..C`..C`..tlk0..
0070: 80 5B 09 80 43 60 04 01  43 60 04 01 74 6C 6B 31  .[..C`..C`..tlk1
0080: 1C 0B 80 45 06 80 F0 FF  FF 7F F0 FF FF 7F 66 64  ...E..........fd
0090: 6F 30 01 80 1C 05 80 52  04 80 45 60 04 01 45 60  o0.....R..E`..E`
00A0: 04 01 73 30 30 39 00                              ..s009.         
```

#### Opcodes

```
  0: 0x001A [0x45] LOAD_SCHEDULED_TASK: Load scheduler "s009" with entities [Goccilo (ID: 17064005/0x01046045), Goccilo (ID: 17064005/0x01046045)], work=[337*, 0*]
  1: 0x002B [0x1C] WAIT(15* ticks)
  2: 0x002E [0x45] LOAD_SCHEDULED_TASK: Load scheduler "fdi0" with entities [LocalPlayer, LocalPlayer], work=[200*, 0*]
  3: 0x003F [0x45] LOAD_SCHEDULED_TASK: Load scheduler "kant" with entities [Goccilo (ID: 17064005/0x01046045), Goccilo (ID: 17064005/0x01046045)], work=[191*, 0*]
  4: 0x0050 [0x6E] Goccilo (ID: 17064005/0x01046045) uses emote 11*
  5: 0x0057 [0x99] Wait for Goccilo (ID: 17064005/0x01046045) animation to complete
  6: 0x005C [0x1C] WAIT(60* ticks)
  7: 0x005F [0x5B] LOAD_EXT_SCHEDULER: Load scheduler "tlk0" with entities [Markovich (ID: 17064003/0x01046043), Markovich (ID: 17064003/0x01046043)], work=60*
  8: 0x006E [0x1C] WAIT(90* ticks)
  9: 0x0071 [0x5B] LOAD_EXT_SCHEDULER: Load scheduler "tlk1" with entities [Markovich (ID: 17064003/0x01046043), Markovich (ID: 17064003/0x01046043)], work=60*
 10: 0x0080 [0x1C] WAIT(30* ticks)
 11: 0x0083 [0x45] LOAD_SCHEDULED_TASK: Load scheduler "fdo0" with entities [LocalPlayer, LocalPlayer], work=[200*, 0*]
 12: 0x0094 [0x1C] WAIT(15* ticks)
 13: 0x0097 [0x52] END_LOAD_SCHEDULER: End scheduler "s009" with entities [Goccilo (ID: 17064005/0x01046045), Goccilo (ID: 17064005/0x01046045)], work=337*
 14: 0x00A6 [0x00] END_REQSTACK()
```

### Event 65535.4

#### Metadata

| Field        | Value     |
|--------------|-----------|
| Entrypoint   | 0x00A7    |
| Data Size    | 123 bytes |
| Instructions | 13        |

```
      00 01 02 03 04 05 06 07  08 09 0A 0B 0C 0D 0E 0F
      -- -- -- -- -- -- -- --  -- -- -- -- -- -- -- --
00A0:                      45  04 80 45 60 04 01 45 60         E..E`..E`
00B0: 04 01 73 30 37 30 01 80  1C 05 80 45 06 80 F0 FF  ..s070.....E....
00C0: FF 7F F0 FF FF 7F 66 64  69 30 01 80 45 07 80 45  ......fdi0..E..E
00D0: 60 04 01 45 60 04 01 6B  61 6E 74 01 80 6E 45 60  `..E`..kant..nE`
00E0: 04 01 08 80 99 45 60 04  01 1C 0B 80 66 0C 80 47  .....E`.....f..G
00F0: 60 04 01 47 60 04 01 77  61 69 30 1C 0D 80 45 06  `..G`..wai0...E.
0100: 80 F0 FF FF 7F F0 FF FF  7F 66 64 6F 30 01 80 1C  .........fdo0...
0110: 05 80 52 04 80 45 60 04  01 45 60 04 01 73 30 37  ..R..E`..E`..s07
0120: 30 00                                             0.              
```

#### Opcodes

```
  0: 0x00A7 [0x45] LOAD_SCHEDULED_TASK: Load scheduler "s070" with entities [Goccilo (ID: 17064005/0x01046045), Goccilo (ID: 17064005/0x01046045)], work=[337*, 0*]
  1: 0x00B8 [0x1C] WAIT(15* ticks)
  2: 0x00BB [0x45] LOAD_SCHEDULED_TASK: Load scheduler "fdi0" with entities [LocalPlayer, LocalPlayer], work=[200*, 0*]
  3: 0x00CC [0x45] LOAD_SCHEDULED_TASK: Load scheduler "kant" with entities [Goccilo (ID: 17064005/0x01046045), Goccilo (ID: 17064005/0x01046045)], work=[191*, 0*]
  4: 0x00DD [0x6E] Goccilo (ID: 17064005/0x01046045) uses emote 11*
  5: 0x00E4 [0x99] Wait for Goccilo (ID: 17064005/0x01046045) animation to complete
  6: 0x00E9 [0x1C] WAIT(30* ticks)
  7: 0x00EC [0x66] LOAD_EXT_SCHEDULER_MAIN: Load scheduler "wai0" with entities [Shantotto (ID: 17064007/0x01046047), Shantotto (ID: 17064007/0x01046047)], work=40*
  8: 0x00FB [0x1C] WAIT(150* ticks)
  9: 0x00FE [0x45] LOAD_SCHEDULED_TASK: Load scheduler "fdo0" with entities [LocalPlayer, LocalPlayer], work=[200*, 0*]
 10: 0x010F [0x1C] WAIT(15* ticks)
 11: 0x0112 [0x52] END_LOAD_SCHEDULER: End scheduler "s070" with entities [Goccilo (ID: 17064005/0x01046045), Goccilo (ID: 17064005/0x01046045)], work=337*
 12: 0x0121 [0x00] END_REQSTACK()
```

### Event 65535.5

#### Metadata

| Field        | Value     |
|--------------|-----------|
| Entrypoint   | 0x0122    |
| Data Size    | 141 bytes |
| Instructions | 15        |

```
      00 01 02 03 04 05 06 07  08 09 0A 0B 0C 0D 0E 0F
      -- -- -- -- -- -- -- --  -- -- -- -- -- -- -- --
0120:       45 04 80 45 60 04  01 45 60 04 01 73 30 31    E..E`..E`..s01
0130: 30 01 80 1C 05 80 45 06  80 F0 FF FF 7F F0 FF FF  0.....E.........
0140: 7F 66 64 69 30 01 80 45  07 80 45 60 04 01 45 60  .fdi0..E..E`..E`
0150: 04 01 6B 61 6E 74 01 80  6E 45 60 04 01 0E 80 99  ..kant..nE`.....
0160: 45 60 04 01 1C 09 80 5B  09 80 43 60 04 01 43 60  E`.....[..C`..C`
0170: 04 01 74 6C 6B 30 1C 0A  80 5B 09 80 43 60 04 01  ..tlk0...[..C`..
0180: 43 60 04 01 74 6C 6B 31  1C 0B 80 45 06 80 F0 FF  C`..tlk1...E....
0190: FF 7F F0 FF FF 7F 66 64  6F 30 01 80 1C 05 80 52  ......fdo0.....R
01A0: 04 80 45 60 04 01 45 60  04 01 73 30 31 30 00     ..E`..E`..s010. 
```

#### Opcodes

```
  0: 0x0122 [0x45] LOAD_SCHEDULED_TASK: Load scheduler "s010" with entities [Goccilo (ID: 17064005/0x01046045), Goccilo (ID: 17064005/0x01046045)], work=[337*, 0*]
  1: 0x0133 [0x1C] WAIT(15* ticks)
  2: 0x0136 [0x45] LOAD_SCHEDULED_TASK: Load scheduler "fdi0" with entities [LocalPlayer, LocalPlayer], work=[200*, 0*]
  3: 0x0147 [0x45] LOAD_SCHEDULED_TASK: Load scheduler "kant" with entities [Goccilo (ID: 17064005/0x01046045), Goccilo (ID: 17064005/0x01046045)], work=[191*, 0*]
  4: 0x0158 [0x6E] Goccilo (ID: 17064005/0x01046045) uses emote 12*
  5: 0x015F [0x99] Wait for Goccilo (ID: 17064005/0x01046045) animation to complete
  6: 0x0164 [0x1C] WAIT(60* ticks)
  7: 0x0167 [0x5B] LOAD_EXT_SCHEDULER: Load scheduler "tlk0" with entities [Markovich (ID: 17064003/0x01046043), Markovich (ID: 17064003/0x01046043)], work=60*
  8: 0x0176 [0x1C] WAIT(90* ticks)
  9: 0x0179 [0x5B] LOAD_EXT_SCHEDULER: Load scheduler "tlk1" with entities [Markovich (ID: 17064003/0x01046043), Markovich (ID: 17064003/0x01046043)], work=60*
 10: 0x0188 [0x1C] WAIT(30* ticks)
 11: 0x018B [0x45] LOAD_SCHEDULED_TASK: Load scheduler "fdo0" with entities [LocalPlayer, LocalPlayer], work=[200*, 0*]
 12: 0x019C [0x1C] WAIT(15* ticks)
 13: 0x019F [0x52] END_LOAD_SCHEDULER: End scheduler "s010" with entities [Goccilo (ID: 17064005/0x01046045), Goccilo (ID: 17064005/0x01046045)], work=337*
 14: 0x01AE [0x00] END_REQSTACK()
```

### Event 65535.6

#### Metadata

| Field        | Value     |
|--------------|-----------|
| Entrypoint   | 0x01AF    |
| Data Size    | 123 bytes |
| Instructions | 13        |

```
      00 01 02 03 04 05 06 07  08 09 0A 0B 0C 0D 0E 0F
      -- -- -- -- -- -- -- --  -- -- -- -- -- -- -- --
01A0:                                               45                 E
01B0: 04 80 45 60 04 01 45 60  04 01 73 30 37 31 01 80  ..E`..E`..s071..
01C0: 1C 05 80 45 06 80 F0 FF  FF 7F F0 FF FF 7F 66 64  ...E..........fd
01D0: 69 30 01 80 45 07 80 45  60 04 01 45 60 04 01 6B  i0..E..E`..E`..k
01E0: 61 6E 74 01 80 6E 45 60  04 01 0E 80 99 45 60 04  ant..nE`.....E`.
01F0: 01 1C 0B 80 66 0C 80 47  60 04 01 47 60 04 01 77  ....f..G`..G`..w
0200: 61 76 30 1C 0D 80 45 06  80 F0 FF FF 7F F0 FF FF  av0...E.........
0210: 7F 66 64 6F 30 01 80 1C  05 80 52 04 80 45 60 04  .fdo0.....R..E`.
0220: 01 45 60 04 01 73 30 37  31 00                    .E`..s071.      
```

#### Opcodes

```
  0: 0x01AF [0x45] LOAD_SCHEDULED_TASK: Load scheduler "s071" with entities [Goccilo (ID: 17064005/0x01046045), Goccilo (ID: 17064005/0x01046045)], work=[337*, 0*]
  1: 0x01C0 [0x1C] WAIT(15* ticks)
  2: 0x01C3 [0x45] LOAD_SCHEDULED_TASK: Load scheduler "fdi0" with entities [LocalPlayer, LocalPlayer], work=[200*, 0*]
  3: 0x01D4 [0x45] LOAD_SCHEDULED_TASK: Load scheduler "kant" with entities [Goccilo (ID: 17064005/0x01046045), Goccilo (ID: 17064005/0x01046045)], work=[191*, 0*]
  4: 0x01E5 [0x6E] Goccilo (ID: 17064005/0x01046045) uses emote 12*
  5: 0x01EC [0x99] Wait for Goccilo (ID: 17064005/0x01046045) animation to complete
  6: 0x01F1 [0x1C] WAIT(30* ticks)
  7: 0x01F4 [0x66] LOAD_EXT_SCHEDULER_MAIN: Load scheduler "wav0" with entities [Shantotto (ID: 17064007/0x01046047), Shantotto (ID: 17064007/0x01046047)], work=40*
  8: 0x0203 [0x1C] WAIT(150* ticks)
  9: 0x0206 [0x45] LOAD_SCHEDULED_TASK: Load scheduler "fdo0" with entities [LocalPlayer, LocalPlayer], work=[200*, 0*]
 10: 0x0217 [0x1C] WAIT(15* ticks)
 11: 0x021A [0x52] END_LOAD_SCHEDULER: End scheduler "s071" with entities [Goccilo (ID: 17064005/0x01046045), Goccilo (ID: 17064005/0x01046045)], work=337*
 12: 0x0229 [0x00] END_REQSTACK()
```

### Event 65535.7

#### Metadata

| Field        | Value     |
|--------------|-----------|
| Entrypoint   | 0x022A    |
| Data Size    | 138 bytes |
| Instructions | 14        |

```
      00 01 02 03 04 05 06 07  08 09 0A 0B 0C 0D 0E 0F
      -- -- -- -- -- -- -- --  -- -- -- -- -- -- -- --
0220:                                45 04 80 45 60 04            E..E`.
0230: 01 45 60 04 01 73 30 31  31 01 80 1C 05 80 45 06  .E`..s011.....E.
0240: 80 F0 FF FF 7F F0 FF FF  7F 66 64 69 30 01 80 45  .........fdi0..E
0250: 07 80 45 60 04 01 45 60  04 01 6B 61 6E 74 01 80  ..E`..E`..kant..
0260: 6E 45 60 04 01 0F 80 99  45 60 04 01 1C 09 80 5B  nE`.....E`.....[
0270: 09 80 43 60 04 01 43 60  04 01 74 68 6B 31 1C 10  ..C`..C`..thk1..
0280: 80 45 06 80 F0 FF FF 7F  F0 FF FF 7F 66 64 6F 30  .E..........fdo0
0290: 01 80 1C 05 80 5B 09 80  43 60 04 01 43 60 04 01  .....[..C`..C`..
02A0: 74 68 6B 32 52 04 80 45  60 04 01 45 60 04 01 73  thk2R..E`..E`..s
02B0: 30 31 31 00                                       011.            
```

#### Opcodes

```
  0: 0x022A [0x45] LOAD_SCHEDULED_TASK: Load scheduler "s011" with entities [Goccilo (ID: 17064005/0x01046045), Goccilo (ID: 17064005/0x01046045)], work=[337*, 0*]
  1: 0x023B [0x1C] WAIT(15* ticks)
  2: 0x023E [0x45] LOAD_SCHEDULED_TASK: Load scheduler "fdi0" with entities [LocalPlayer, LocalPlayer], work=[200*, 0*]
  3: 0x024F [0x45] LOAD_SCHEDULED_TASK: Load scheduler "kant" with entities [Goccilo (ID: 17064005/0x01046045), Goccilo (ID: 17064005/0x01046045)], work=[191*, 0*]
  4: 0x0260 [0x6E] Goccilo (ID: 17064005/0x01046045) uses emote 32*
  5: 0x0267 [0x99] Wait for Goccilo (ID: 17064005/0x01046045) animation to complete
  6: 0x026C [0x1C] WAIT(60* ticks)
  7: 0x026F [0x5B] LOAD_EXT_SCHEDULER: Load scheduler "thk1" with entities [Markovich (ID: 17064003/0x01046043), Markovich (ID: 17064003/0x01046043)], work=60*
  8: 0x027E [0x1C] WAIT(120* ticks)
  9: 0x0281 [0x45] LOAD_SCHEDULED_TASK: Load scheduler "fdo0" with entities [LocalPlayer, LocalPlayer], work=[200*, 0*]
 10: 0x0292 [0x1C] WAIT(15* ticks)
 11: 0x0295 [0x5B] LOAD_EXT_SCHEDULER: Load scheduler "thk2" with entities [Markovich (ID: 17064003/0x01046043), Markovich (ID: 17064003/0x01046043)], work=60*
 12: 0x02A4 [0x52] END_LOAD_SCHEDULER: End scheduler "s011" with entities [Goccilo (ID: 17064005/0x01046045), Goccilo (ID: 17064005/0x01046045)], work=337*
 13: 0x02B3 [0x00] END_REQSTACK()
```

### Event 65535.8

#### Metadata

| Field        | Value     |
|--------------|-----------|
| Entrypoint   | 0x02B4    |
| Data Size    | 123 bytes |
| Instructions | 13        |

```
      00 01 02 03 04 05 06 07  08 09 0A 0B 0C 0D 0E 0F
      -- -- -- -- -- -- -- --  -- -- -- -- -- -- -- --
02B0:             45 04 80 45  60 04 01 45 60 04 01 73      E..E`..E`..s
02C0: 30 37 32 01 80 1C 05 80  45 06 80 F0 FF FF 7F F0  072.....E.......
02D0: FF FF 7F 66 64 69 30 01  80 45 07 80 45 60 04 01  ...fdi0..E..E`..
02E0: 45 60 04 01 6B 61 6E 74  01 80 6E 45 60 04 01 0F  E`..kant..nE`...
02F0: 80 99 45 60 04 01 1C 0B  80 66 0C 80 47 60 04 01  ..E`.....f..G`..
0300: 47 60 04 01 64 69 73 30  1C 0D 80 45 06 80 F0 FF  G`..dis0...E....
0310: FF 7F F0 FF FF 7F 66 64  6F 30 01 80 1C 05 80 52  ......fdo0.....R
0320: 04 80 45 60 04 01 45 60  04 01 73 30 37 32 00     ..E`..E`..s072. 
```

#### Opcodes

```
  0: 0x02B4 [0x45] LOAD_SCHEDULED_TASK: Load scheduler "s072" with entities [Goccilo (ID: 17064005/0x01046045), Goccilo (ID: 17064005/0x01046045)], work=[337*, 0*]
  1: 0x02C5 [0x1C] WAIT(15* ticks)
  2: 0x02C8 [0x45] LOAD_SCHEDULED_TASK: Load scheduler "fdi0" with entities [LocalPlayer, LocalPlayer], work=[200*, 0*]
  3: 0x02D9 [0x45] LOAD_SCHEDULED_TASK: Load scheduler "kant" with entities [Goccilo (ID: 17064005/0x01046045), Goccilo (ID: 17064005/0x01046045)], work=[191*, 0*]
  4: 0x02EA [0x6E] Goccilo (ID: 17064005/0x01046045) uses emote 32*
  5: 0x02F1 [0x99] Wait for Goccilo (ID: 17064005/0x01046045) animation to complete
  6: 0x02F6 [0x1C] WAIT(30* ticks)
  7: 0x02F9 [0x66] LOAD_EXT_SCHEDULER_MAIN: Load scheduler "dis0" with entities [Shantotto (ID: 17064007/0x01046047), Shantotto (ID: 17064007/0x01046047)], work=40*
  8: 0x0308 [0x1C] WAIT(150* ticks)
  9: 0x030B [0x45] LOAD_SCHEDULED_TASK: Load scheduler "fdo0" with entities [LocalPlayer, LocalPlayer], work=[200*, 0*]
 10: 0x031C [0x1C] WAIT(15* ticks)
 11: 0x031F [0x52] END_LOAD_SCHEDULER: End scheduler "s072" with entities [Goccilo (ID: 17064005/0x01046045), Goccilo (ID: 17064005/0x01046045)], work=337*
 12: 0x032E [0x00] END_REQSTACK()
```

### Event 65535.9

#### Metadata

| Field        | Value     |
|--------------|-----------|
| Entrypoint   | 0x032F    |
| Data Size    | 156 bytes |
| Instructions | 14        |

```
      00 01 02 03 04 05 06 07  08 09 0A 0B 0C 0D 0E 0F
      -- -- -- -- -- -- -- --  -- -- -- -- -- -- -- --
0320:                                               45                 E
0330: 04 80 45 60 04 01 45 60  04 01 73 30 31 32 01 80  ..E`..E`..s012..
0340: 1C 05 80 45 06 80 F0 FF  FF 7F F0 FF FF 7F 66 64  ...E..........fd
0350: 69 30 01 80 45 07 80 45  60 04 01 45 60 04 01 6B  i0..E..E`..E`..k
0360: 61 6E 74 01 80 66 11 80  45 60 04 01 45 60 04 01  ant..f..E`..E`..
0370: 74 6C 6B 30 1C 0A 80 66  11 80 45 60 04 01 45 60  tlk0...f..E`..E`
0380: 04 01 74 6C 6B 31 5B 09  80 43 60 04 01 43 60 04  ..tlk1[..C`..C`.
0390: 01 68 61 6E 30 1C 0A 80  45 06 80 F0 FF FF 7F F0  .han0...E.......
03A0: FF FF 7F 66 64 6F 30 01  80 1C 05 80 5B 09 80 43  ...fdo0.....[..C
03B0: 60 04 01 43 60 04 01 68  61 6E 31 52 04 80 45 60  `..C`..han1R..E`
03C0: 04 01 45 60 04 01 73 30  31 32 00                 ..E`..s012.     
```

#### Opcodes

```
  0: 0x032F [0x45] LOAD_SCHEDULED_TASK: Load scheduler "s012" with entities [Goccilo (ID: 17064005/0x01046045), Goccilo (ID: 17064005/0x01046045)], work=[337*, 0*]
  1: 0x0340 [0x1C] WAIT(15* ticks)
  2: 0x0343 [0x45] LOAD_SCHEDULED_TASK: Load scheduler "fdi0" with entities [LocalPlayer, LocalPlayer], work=[200*, 0*]
  3: 0x0354 [0x45] LOAD_SCHEDULED_TASK: Load scheduler "kant" with entities [Goccilo (ID: 17064005/0x01046045), Goccilo (ID: 17064005/0x01046045)], work=[191*, 0*]
  4: 0x0365 [0x66] LOAD_EXT_SCHEDULER_MAIN: Load scheduler "tlk0" with entities [Goccilo (ID: 17064005/0x01046045), Goccilo (ID: 17064005/0x01046045)], work=69*
  5: 0x0374 [0x1C] WAIT(90* ticks)
  6: 0x0377 [0x66] LOAD_EXT_SCHEDULER_MAIN: Load scheduler "tlk1" with entities [Goccilo (ID: 17064005/0x01046045), Goccilo (ID: 17064005/0x01046045)], work=69*
  7: 0x0386 [0x5B] LOAD_EXT_SCHEDULER: Load scheduler "han0" with entities [Markovich (ID: 17064003/0x01046043), Markovich (ID: 17064003/0x01046043)], work=60*
  8: 0x0395 [0x1C] WAIT(90* ticks)
  9: 0x0398 [0x45] LOAD_SCHEDULED_TASK: Load scheduler "fdo0" with entities [LocalPlayer, LocalPlayer], work=[200*, 0*]
 10: 0x03A9 [0x1C] WAIT(15* ticks)
 11: 0x03AC [0x5B] LOAD_EXT_SCHEDULER: Load scheduler "han1" with entities [Markovich (ID: 17064003/0x01046043), Markovich (ID: 17064003/0x01046043)], work=60*
 12: 0x03BB [0x52] END_LOAD_SCHEDULER: End scheduler "s012" with entities [Goccilo (ID: 17064005/0x01046045), Goccilo (ID: 17064005/0x01046045)], work=337*
 13: 0x03CA [0x00] END_REQSTACK()
```

### Event 65535.10

#### Metadata

| Field        | Value     |
|--------------|-----------|
| Entrypoint   | 0x03CB    |
| Data Size    | 159 bytes |
| Instructions | 15        |

```
      00 01 02 03 04 05 06 07  08 09 0A 0B 0C 0D 0E 0F
      -- -- -- -- -- -- -- --  -- -- -- -- -- -- -- --
03C0:                                   45 04 80 45 60             E..E`
03D0: 04 01 45 60 04 01 73 30  37 33 01 80 1C 05 80 45  ..E`..s073.....E
03E0: 06 80 F0 FF FF 7F F0 FF  FF 7F 66 64 69 30 01 80  ..........fdi0..
03F0: 45 07 80 45 60 04 01 45  60 04 01 6B 61 6E 74 01  E..E`..E`..kant.
0400: 80 66 11 80 45 60 04 01  45 60 04 01 74 6C 6B 30  .f..E`..E`..tlk0
0410: 1C 0B 80 66 12 80 47 60  04 01 47 60 04 01 6F 68  ...f..G`..G`..oh
0420: 68 30 1C 09 80 66 11 80  45 60 04 01 45 60 04 01  h0...f..E`..E`..
0430: 74 6C 6B 31 1C 0A 80 45  06 80 F0 FF FF 7F F0 FF  tlk1...E........
0440: FF 7F 66 64 6F 30 01 80  1C 05 80 66 12 80 47 60  ..fdo0.....f..G`
0450: 04 01 47 60 04 01 6F 68  68 31 52 04 80 45 60 04  ..G`..ohh1R..E`.
0460: 01 45 60 04 01 73 30 37  33 00                    .E`..s073.      
```

#### Opcodes

```
  0: 0x03CB [0x45] LOAD_SCHEDULED_TASK: Load scheduler "s073" with entities [Goccilo (ID: 17064005/0x01046045), Goccilo (ID: 17064005/0x01046045)], work=[337*, 0*]
  1: 0x03DC [0x1C] WAIT(15* ticks)
  2: 0x03DF [0x45] LOAD_SCHEDULED_TASK: Load scheduler "fdi0" with entities [LocalPlayer, LocalPlayer], work=[200*, 0*]
  3: 0x03F0 [0x45] LOAD_SCHEDULED_TASK: Load scheduler "kant" with entities [Goccilo (ID: 17064005/0x01046045), Goccilo (ID: 17064005/0x01046045)], work=[191*, 0*]
  4: 0x0401 [0x66] LOAD_EXT_SCHEDULER_MAIN: Load scheduler "tlk0" with entities [Goccilo (ID: 17064005/0x01046045), Goccilo (ID: 17064005/0x01046045)], work=69*
  5: 0x0410 [0x1C] WAIT(30* ticks)
  6: 0x0413 [0x66] LOAD_EXT_SCHEDULER_MAIN: Load scheduler "ohh0" with entities [Shantotto (ID: 17064007/0x01046047), Shantotto (ID: 17064007/0x01046047)], work=41*
  7: 0x0422 [0x1C] WAIT(60* ticks)
  8: 0x0425 [0x66] LOAD_EXT_SCHEDULER_MAIN: Load scheduler "tlk1" with entities [Goccilo (ID: 17064005/0x01046045), Goccilo (ID: 17064005/0x01046045)], work=69*
  9: 0x0434 [0x1C] WAIT(90* ticks)
 10: 0x0437 [0x45] LOAD_SCHEDULED_TASK: Load scheduler "fdo0" with entities [LocalPlayer, LocalPlayer], work=[200*, 0*]
 11: 0x0448 [0x1C] WAIT(15* ticks)
 12: 0x044B [0x66] LOAD_EXT_SCHEDULER_MAIN: Load scheduler "ohh1" with entities [Shantotto (ID: 17064007/0x01046047), Shantotto (ID: 17064007/0x01046047)], work=41*
 13: 0x045A [0x52] END_LOAD_SCHEDULER: End scheduler "s073" with entities [Goccilo (ID: 17064005/0x01046045), Goccilo (ID: 17064005/0x01046045)], work=337*
 14: 0x0469 [0x00] END_REQSTACK()
```

### Event 65535.11

#### Metadata

| Field        | Value     |
|--------------|-----------|
| Entrypoint   | 0x046A    |
| Data Size    | 213 bytes |
| Instructions | 19        |

```
      00 01 02 03 04 05 06 07  08 09 0A 0B 0C 0D 0E 0F
      -- -- -- -- -- -- -- --  -- -- -- -- -- -- -- --
0460:                                45 04 80 3E 60 04            E..>`.
0470: 01 3E 60 04 01 73 30 31  33 01 80 1C 05 80 45 06  .>`..s013.....E.
0480: 80 F0 FF FF 7F F0 FF FF  7F 66 64 69 30 01 80 45  .........fdi0..E
0490: 07 80 3B 60 04 01 3B 60  04 01 6B 61 6E 74 01 80  ..;`..;`..kant..
04A0: 5B 01 80 3D 60 04 01 3D  60 04 01 74 6C 6B 30 5B  [..=`..=`..tlk0[
04B0: 0B 80 3C 60 04 01 3C 60  04 01 74 6C 6B 30 5B 13  ..<`..<`..tlk0[.
04C0: 80 3B 60 04 01 3B 60 04  01 63 6C 61 30 1C 0B 80  .;`..;`..cla0...
04D0: 5B 14 80 3E 60 04 01 3E  60 04 01 74 6C 6B 30 6E  [..>`..>`..tlk0n
04E0: 3F 60 04 01 0E 80 99 3F  60 04 01 1C 10 80 45 06  ?`.....?`.....E.
04F0: 80 F0 FF FF 7F F0 FF FF  7F 66 64 6F 30 01 80 1C  .........fdo0...
0500: 05 80 5B 0B 80 3C 60 04  01 3C 60 04 01 74 6C 6B  ..[..<`..<`..tlk
0510: 31 5B 01 80 3D 60 04 01  3D 60 04 01 74 6C 6B 31  1[..=`..=`..tlk1
0520: 5B 14 80 3E 60 04 01 3E  60 04 01 74 6C 6B 31 52  [..>`..>`..tlk1R
0530: 04 80 3E 60 04 01 3E 60  04 01 73 30 31 33 00     ..>`..>`..s013. 
```

#### Opcodes

```
  0: 0x046A [0x45] LOAD_SCHEDULED_TASK: Load scheduler "s013" with entities [Unnamed NPC (ID: 17063998/0x0104603E), Unnamed NPC (ID: 17063998/0x0104603E)], work=[337*, 0*]
  1: 0x047B [0x1C] WAIT(15* ticks)
  2: 0x047E [0x45] LOAD_SCHEDULED_TASK: Load scheduler "fdi0" with entities [LocalPlayer, LocalPlayer], work=[200*, 0*]
  3: 0x048F [0x45] LOAD_SCHEDULED_TASK: Load scheduler "kant" with entities [Unnamed NPC (ID: 17063995/0x0104603B), Unnamed NPC (ID: 17063995/0x0104603B)], work=[191*, 0*]
  4: 0x04A0 [0x5B] LOAD_EXT_SCHEDULER: Load scheduler "tlk0" with entities [Unnamed NPC (ID: 17063997/0x0104603D), Unnamed NPC (ID: 17063997/0x0104603D)], work=0*
  5: 0x04AF [0x5B] LOAD_EXT_SCHEDULER: Load scheduler "tlk0" with entities [Unnamed NPC (ID: 17063996/0x0104603C), Unnamed NPC (ID: 17063996/0x0104603C)], work=30*
  6: 0x04BE [0x5B] LOAD_EXT_SCHEDULER: Load scheduler "cla0" with entities [Unnamed NPC (ID: 17063995/0x0104603B), Unnamed NPC (ID: 17063995/0x0104603B)], work=65*
  7: 0x04CD [0x1C] WAIT(30* ticks)
  8: 0x04D0 [0x5B] LOAD_EXT_SCHEDULER: Load scheduler "tlk0" with entities [Unnamed NPC (ID: 17063998/0x0104603E), Unnamed NPC (ID: 17063998/0x0104603E)], work=55*
  9: 0x04DF [0x6E] Unnamed NPC (ID: 17063999/0x0104603F) uses emote 12*
 10: 0x04E6 [0x99] Wait for Unnamed NPC (ID: 17063999/0x0104603F) animation to complete
 11: 0x04EB [0x1C] WAIT(120* ticks)
 12: 0x04EE [0x45] LOAD_SCHEDULED_TASK: Load scheduler "fdo0" with entities [LocalPlayer, LocalPlayer], work=[200*, 0*]
 13: 0x04FF [0x1C] WAIT(15* ticks)
 14: 0x0502 [0x5B] LOAD_EXT_SCHEDULER: Load scheduler "tlk1" with entities [Unnamed NPC (ID: 17063996/0x0104603C), Unnamed NPC (ID: 17063996/0x0104603C)], work=30*
 15: 0x0511 [0x5B] LOAD_EXT_SCHEDULER: Load scheduler "tlk1" with entities [Unnamed NPC (ID: 17063997/0x0104603D), Unnamed NPC (ID: 17063997/0x0104603D)], work=0*
 16: 0x0520 [0x5B] LOAD_EXT_SCHEDULER: Load scheduler "tlk1" with entities [Unnamed NPC (ID: 17063998/0x0104603E), Unnamed NPC (ID: 17063998/0x0104603E)], work=55*
 17: 0x052F [0x52] END_LOAD_SCHEDULER: End scheduler "s013" with entities [Unnamed NPC (ID: 17063998/0x0104603E), Unnamed NPC (ID: 17063998/0x0104603E)], work=337*
 18: 0x053E [0x00] END_REQSTACK()
```

### Event 65535.12

#### Metadata

| Field        | Value     |
|--------------|-----------|
| Entrypoint   | 0x053F    |
| Data Size    | 189 bytes |
| Instructions | 19        |

```
      00 01 02 03 04 05 06 07  08 09 0A 0B 0C 0D 0E 0F
      -- -- -- -- -- -- -- --  -- -- -- -- -- -- -- --
0530:                                               45                 E
0540: 04 80 3D 60 04 01 3D 60  04 01 73 30 31 34 01 80  ..=`..=`..s014..
0550: 1C 05 80 5B 0B 80 3C 60  04 01 3C 60 04 01 74 68  ...[..<`..<`..th
0560: 6B 31 45 06 80 F0 FF FF  7F F0 FF FF 7F 66 64 69  k1E..........fdi
0570: 30 01 80 45 07 80 3C 60  04 01 3C 60 04 01 6B 61  0..E..<`..<`..ka
0580: 6E 74 01 80 1C 0B 80 5B  13 80 3B 60 04 01 3B 60  nt.....[..;`..;`
0590: 04 01 74 68 6B 31 1C 0B  80 5B 14 80 3E 60 04 01  ..thk1...[..>`..
05A0: 3E 60 04 01 64 69 73 30  1C 0A 80 6E 3F 60 04 01  >`..dis0...n?`..
05B0: 08 80 99 3F 60 04 01 1C  09 80 45 06 80 F0 FF FF  ...?`.....E.....
05C0: 7F F0 FF FF 7F 66 64 6F  30 01 80 1C 05 80 5B 0B  .....fdo0.....[.
05D0: 80 3C 60 04 01 3C 60 04  01 74 68 6B 32 5B 13 80  .<`..<`..thk2[..
05E0: 3B 60 04 01 3B 60 04 01  74 68 6B 32 52 04 80 3D  ;`..;`..thk2R..=
05F0: 60 04 01 3D 60 04 01 73  30 31 34 00              `..=`..s014.    
```

#### Opcodes

```
  0: 0x053F [0x45] LOAD_SCHEDULED_TASK: Load scheduler "s014" with entities [Unnamed NPC (ID: 17063997/0x0104603D), Unnamed NPC (ID: 17063997/0x0104603D)], work=[337*, 0*]
  1: 0x0550 [0x1C] WAIT(15* ticks)
  2: 0x0553 [0x5B] LOAD_EXT_SCHEDULER: Load scheduler "thk1" with entities [Unnamed NPC (ID: 17063996/0x0104603C), Unnamed NPC (ID: 17063996/0x0104603C)], work=30*
  3: 0x0562 [0x45] LOAD_SCHEDULED_TASK: Load scheduler "fdi0" with entities [LocalPlayer, LocalPlayer], work=[200*, 0*]
  4: 0x0573 [0x45] LOAD_SCHEDULED_TASK: Load scheduler "kant" with entities [Unnamed NPC (ID: 17063996/0x0104603C), Unnamed NPC (ID: 17063996/0x0104603C)], work=[191*, 0*]
  5: 0x0584 [0x1C] WAIT(30* ticks)
  6: 0x0587 [0x5B] LOAD_EXT_SCHEDULER: Load scheduler "thk1" with entities [Unnamed NPC (ID: 17063995/0x0104603B), Unnamed NPC (ID: 17063995/0x0104603B)], work=65*
  7: 0x0596 [0x1C] WAIT(30* ticks)
  8: 0x0599 [0x5B] LOAD_EXT_SCHEDULER: Load scheduler "dis0" with entities [Unnamed NPC (ID: 17063998/0x0104603E), Unnamed NPC (ID: 17063998/0x0104603E)], work=55*
  9: 0x05A8 [0x1C] WAIT(90* ticks)
 10: 0x05AB [0x6E] Unnamed NPC (ID: 17063999/0x0104603F) uses emote 11*
 11: 0x05B2 [0x99] Wait for Unnamed NPC (ID: 17063999/0x0104603F) animation to complete
 12: 0x05B7 [0x1C] WAIT(60* ticks)
 13: 0x05BA [0x45] LOAD_SCHEDULED_TASK: Load scheduler "fdo0" with entities [LocalPlayer, LocalPlayer], work=[200*, 0*]
 14: 0x05CB [0x1C] WAIT(15* ticks)
 15: 0x05CE [0x5B] LOAD_EXT_SCHEDULER: Load scheduler "thk2" with entities [Unnamed NPC (ID: 17063996/0x0104603C), Unnamed NPC (ID: 17063996/0x0104603C)], work=30*
 16: 0x05DD [0x5B] LOAD_EXT_SCHEDULER: Load scheduler "thk2" with entities [Unnamed NPC (ID: 17063995/0x0104603B), Unnamed NPC (ID: 17063995/0x0104603B)], work=65*
 17: 0x05EC [0x52] END_LOAD_SCHEDULER: End scheduler "s014" with entities [Unnamed NPC (ID: 17063997/0x0104603D), Unnamed NPC (ID: 17063997/0x0104603D)], work=337*
 18: 0x05FB [0x00] END_REQSTACK()
```

### Event 65535.13

#### Metadata

| Field        | Value     |
|--------------|-----------|
| Entrypoint   | 0x05FC    |
| Data Size    | 171 bytes |
| Instructions | 17        |

```
      00 01 02 03 04 05 06 07  08 09 0A 0B 0C 0D 0E 0F
      -- -- -- -- -- -- -- --  -- -- -- -- -- -- -- --
05F0:                                      45 04 80 3B              E..;
0600: 60 04 01 3B 60 04 01 73  30 31 35 01 80 1C 05 80  `..;`..s015.....
0610: 45 06 80 F0 FF FF 7F F0  FF FF 7F 66 64 69 30 01  E..........fdi0.
0620: 80 45 07 80 3F 60 04 01  3F 60 04 01 6B 61 6E 74  .E..?`..?`..kant
0630: 01 80 5B 14 80 3E 60 04  01 3E 60 04 01 74 68 61  ..[..>`..>`..tha
0640: 31 1C 0A 80 6E 3F 60 04  01 15 80 99 3F 60 04 01  1...n?`.....?`..
0650: 1C 0B 80 5B 13 80 3B 60  04 01 3B 60 04 01 74 6C  ...[..;`..;`..tl
0660: 6B 30 1C 09 80 45 06 80  F0 FF FF 7F F0 FF FF 7F  k0...E..........
0670: 66 64 6F 30 01 80 1C 05  80 5B 14 80 3E 60 04 01  fdo0.....[..>`..
0680: 3E 60 04 01 74 68 61 32  5B 13 80 3B 60 04 01 3B  >`..tha2[..;`..;
0690: 60 04 01 74 6C 6B 31 52  04 80 3B 60 04 01 3B 60  `..tlk1R..;`..;`
06A0: 04 01 73 30 31 35 00                              ..s015.         
```

#### Opcodes

```
  0: 0x05FC [0x45] LOAD_SCHEDULED_TASK: Load scheduler "s015" with entities [Unnamed NPC (ID: 17063995/0x0104603B), Unnamed NPC (ID: 17063995/0x0104603B)], work=[337*, 0*]
  1: 0x060D [0x1C] WAIT(15* ticks)
  2: 0x0610 [0x45] LOAD_SCHEDULED_TASK: Load scheduler "fdi0" with entities [LocalPlayer, LocalPlayer], work=[200*, 0*]
  3: 0x0621 [0x45] LOAD_SCHEDULED_TASK: Load scheduler "kant" with entities [Unnamed NPC (ID: 17063999/0x0104603F), Unnamed NPC (ID: 17063999/0x0104603F)], work=[191*, 0*]
  4: 0x0632 [0x5B] LOAD_EXT_SCHEDULER: Load scheduler "tha1" with entities [Unnamed NPC (ID: 17063998/0x0104603E), Unnamed NPC (ID: 17063998/0x0104603E)], work=55*
  5: 0x0641 [0x1C] WAIT(90* ticks)
  6: 0x0644 [0x6E] Unnamed NPC (ID: 17063999/0x0104603F) uses emote 29*
  7: 0x064B [0x99] Wait for Unnamed NPC (ID: 17063999/0x0104603F) animation to complete
  8: 0x0650 [0x1C] WAIT(30* ticks)
  9: 0x0653 [0x5B] LOAD_EXT_SCHEDULER: Load scheduler "tlk0" with entities [Unnamed NPC (ID: 17063995/0x0104603B), Unnamed NPC (ID: 17063995/0x0104603B)], work=65*
 10: 0x0662 [0x1C] WAIT(60* ticks)
 11: 0x0665 [0x45] LOAD_SCHEDULED_TASK: Load scheduler "fdo0" with entities [LocalPlayer, LocalPlayer], work=[200*, 0*]
 12: 0x0676 [0x1C] WAIT(15* ticks)
 13: 0x0679 [0x5B] LOAD_EXT_SCHEDULER: Load scheduler "tha2" with entities [Unnamed NPC (ID: 17063998/0x0104603E), Unnamed NPC (ID: 17063998/0x0104603E)], work=55*
 14: 0x0688 [0x5B] LOAD_EXT_SCHEDULER: Load scheduler "tlk1" with entities [Unnamed NPC (ID: 17063995/0x0104603B), Unnamed NPC (ID: 17063995/0x0104603B)], work=65*
 15: 0x0697 [0x52] END_LOAD_SCHEDULER: End scheduler "s015" with entities [Unnamed NPC (ID: 17063995/0x0104603B), Unnamed NPC (ID: 17063995/0x0104603B)], work=337*
 16: 0x06A6 [0x00] END_REQSTACK()
```

### Event 65535.14

#### Metadata

| Field        | Value     |
|--------------|-----------|
| Entrypoint   | 0x06A7    |
| Data Size    | 237 bytes |
| Instructions | 23        |

```
      00 01 02 03 04 05 06 07  08 09 0A 0B 0C 0D 0E 0F
      -- -- -- -- -- -- -- --  -- -- -- -- -- -- -- --
06A0:                      45  04 80 3E 60 04 01 3E 60         E..>`..>`
06B0: 04 01 73 30 31 36 01 80  1C 05 80 45 06 80 F0 FF  ..s016.....E....
06C0: FF 7F F0 FF FF 7F 66 64  69 30 01 80 45 07 80 3B  ......fdi0..E..;
06D0: 60 04 01 3B 60 04 01 6B  61 6E 74 01 80 5B 14 80  `..;`..kant..[..
06E0: 3E 60 04 01 3E 60 04 01  74 68 62 31 1C 0B 80 5B  >`..>`..thb1...[
06F0: 0B 80 3C 60 04 01 3C 60  04 01 74 6C 6B 30 1C 0B  ..<`..<`..tlk0..
0700: 80 5B 13 80 3B 60 04 01  3B 60 04 01 74 68 6B 31  .[..;`..;`..thk1
0710: 1C 0B 80 6E 3F 60 04 01  16 80 99 3F 60 04 01 1C  ...n?`.....?`...
0720: 0B 80 5B 01 80 3D 60 04  01 3D 60 04 01 74 68 6B  ..[..=`..=`..thk
0730: 31 1C 0A 80 45 06 80 F0  FF FF 7F F0 FF FF 7F 66  1...E..........f
0740: 64 6F 30 01 80 1C 05 80  5B 0B 80 3C 60 04 01 3C  do0.....[..<`..<
0750: 60 04 01 74 6C 6B 31 5B  13 80 3B 60 04 01 3B 60  `..tlk1[..;`..;`
0760: 04 01 74 68 6B 32 5B 01  80 3D 60 04 01 3D 60 04  ..thk2[..=`..=`.
0770: 01 74 68 6B 32 5B 14 80  3E 60 04 01 3E 60 04 01  .thk2[..>`..>`..
0780: 74 68 62 32 52 04 80 3E  60 04 01 3E 60 04 01 73  thb2R..>`..>`..s
0790: 30 31 36 00                                       016.            
```

#### Opcodes

```
  0: 0x06A7 [0x45] LOAD_SCHEDULED_TASK: Load scheduler "s016" with entities [Unnamed NPC (ID: 17063998/0x0104603E), Unnamed NPC (ID: 17063998/0x0104603E)], work=[337*, 0*]
  1: 0x06B8 [0x1C] WAIT(15* ticks)
  2: 0x06BB [0x45] LOAD_SCHEDULED_TASK: Load scheduler "fdi0" with entities [LocalPlayer, LocalPlayer], work=[200*, 0*]
  3: 0x06CC [0x45] LOAD_SCHEDULED_TASK: Load scheduler "kant" with entities [Unnamed NPC (ID: 17063995/0x0104603B), Unnamed NPC (ID: 17063995/0x0104603B)], work=[191*, 0*]
  4: 0x06DD [0x5B] LOAD_EXT_SCHEDULER: Load scheduler "thb1" with entities [Unnamed NPC (ID: 17063998/0x0104603E), Unnamed NPC (ID: 17063998/0x0104603E)], work=55*
  5: 0x06EC [0x1C] WAIT(30* ticks)
  6: 0x06EF [0x5B] LOAD_EXT_SCHEDULER: Load scheduler "tlk0" with entities [Unnamed NPC (ID: 17063996/0x0104603C), Unnamed NPC (ID: 17063996/0x0104603C)], work=30*
  7: 0x06FE [0x1C] WAIT(30* ticks)
  8: 0x0701 [0x5B] LOAD_EXT_SCHEDULER: Load scheduler "thk1" with entities [Unnamed NPC (ID: 17063995/0x0104603B), Unnamed NPC (ID: 17063995/0x0104603B)], work=65*
  9: 0x0710 [0x1C] WAIT(30* ticks)
 10: 0x0713 [0x6E] Unnamed NPC (ID: 17063999/0x0104603F) uses emote 22*
 11: 0x071A [0x99] Wait for Unnamed NPC (ID: 17063999/0x0104603F) animation to complete
 12: 0x071F [0x1C] WAIT(30* ticks)
 13: 0x0722 [0x5B] LOAD_EXT_SCHEDULER: Load scheduler "thk1" with entities [Unnamed NPC (ID: 17063997/0x0104603D), Unnamed NPC (ID: 17063997/0x0104603D)], work=0*
 14: 0x0731 [0x1C] WAIT(90* ticks)
 15: 0x0734 [0x45] LOAD_SCHEDULED_TASK: Load scheduler "fdo0" with entities [LocalPlayer, LocalPlayer], work=[200*, 0*]
 16: 0x0745 [0x1C] WAIT(15* ticks)
 17: 0x0748 [0x5B] LOAD_EXT_SCHEDULER: Load scheduler "tlk1" with entities [Unnamed NPC (ID: 17063996/0x0104603C), Unnamed NPC (ID: 17063996/0x0104603C)], work=30*
 18: 0x0757 [0x5B] LOAD_EXT_SCHEDULER: Load scheduler "thk2" with entities [Unnamed NPC (ID: 17063995/0x0104603B), Unnamed NPC (ID: 17063995/0x0104603B)], work=65*
 19: 0x0766 [0x5B] LOAD_EXT_SCHEDULER: Load scheduler "thk2" with entities [Unnamed NPC (ID: 17063997/0x0104603D), Unnamed NPC (ID: 17063997/0x0104603D)], work=0*
 20: 0x0775 [0x5B] LOAD_EXT_SCHEDULER: Load scheduler "thb2" with entities [Unnamed NPC (ID: 17063998/0x0104603E), Unnamed NPC (ID: 17063998/0x0104603E)], work=55*
 21: 0x0784 [0x52] END_LOAD_SCHEDULER: End scheduler "s016" with entities [Unnamed NPC (ID: 17063998/0x0104603E), Unnamed NPC (ID: 17063998/0x0104603E)], work=337*
 22: 0x0793 [0x00] END_REQSTACK()
```

### Event 65535.15

#### Metadata

| Field        | Value     |
|--------------|-----------|
| Entrypoint   | 0x0794    |
| Data Size    | 136 bytes |
| Instructions | 20        |

```
      00 01 02 03 04 05 06 07  08 09 0A 0B 0C 0D 0E 0F
      -- -- -- -- -- -- -- --  -- -- -- -- -- -- -- --
0790:             45 07 80 F0  FF FF 7F F0 FF FF 7F 6E      E..........n
07A0: 61 6B 73 01 80 45 07 80  F0 FF FF 7F F0 FF FF 7F  aks..E..........
07B0: 68 61 73 73 01 80 45 07  80 2E 60 04 01 2E 60 04  hass..E...`...`.
07C0: 01 6B 61 6E 74 01 80 03  02 10 34 10 2B 45 60 04  .kant.....4.+E`.
07D0: 01 17 80 1C 0A 80 02 23  10 0E 80 00 F2 07 2B 45  .......#......+E
07E0: 60 04 01 18 80 1C 09 80  2B 47 60 04 01 19 80 01  `.......+G`.....
07F0: 18 08 2B 45 60 04 01 1A  80 1C 09 80 02 23 10 1B  ..+E`........#..
0800: 80 00 0C 08 03 02 10 01  80 01 11 08 03 02 10 1C  ................
0810: 80 2B 43 60 04 01 1D 80  1C 0A 80 00              .+C`........    
```

#### Opcodes

```
  0: 0x0794 [0x45] LOAD_SCHEDULED_TASK: Load scheduler "naks" with entities [LocalPlayer, LocalPlayer], work=[191*, 0*]
  1: 0x07A5 [0x45] LOAD_SCHEDULED_TASK: Load scheduler "hass" with entities [LocalPlayer, LocalPlayer], work=[191*, 0*]
  2: 0x07B6 [0x45] LOAD_SCHEDULED_TASK: Load scheduler "kant" with entities [Unnamed NPC (ID: 17063982/0x0104602E), Unnamed NPC (ID: 17063982/0x0104602E)], work=[191*, 0*]
  3: 0x07C7 [0x03] Work_Zone[2] = Work_Zone[52]
  4: 0x07CC [0x2B] Goccilo (ID: 17064005/0x01046045) [10030*]:
    → "And they're off!"
  5: 0x07D3 [0x1C] WAIT(90* ticks)
  6: 0x07D6 [0x02] IF !(Work_Zone[35] == 12*) GOTO 0x07F2
  7: 0x07DE [0x2B] Goccilo (ID: 17064005/0x01046045) [10032*]:
    → "Professor Shantotto, what did you think of the start?"
  8: 0x07E5 [0x1C] WAIT(60* ticks)
  9: 0x07E8 [0x2B] Shantotto (ID: 17064007/0x01046047) [10033*]:
    → "All of the chocobos started well, in my general observance. But faced against my Cardians, that won't make the tiniest difference."
 10: 0x07EF [0x01] GOTO 0x0818
 11: 0x07F2 [0x2B] Goccilo (ID: 17064005/0x01046045) [8826*]:
    → "Markovich, what did you think of the start?"
 12: 0x07F9 [0x1C] WAIT(60* ticks)
 13: 0x07FC [0x02] IF !(Work_Zone[35] == 9*) GOTO 0x080C
 14: 0x0804 [0x03] Work_Zone[2] = 0*
 15: 0x0809 [0x01] GOTO 0x0811
 16: 0x080C [0x03] Work_Zone[2] = 1*

SUBROUTINE_0811:
 17: 0x0811 [0x2B] Markovich (ID: 17064003/0x01046043) [10031*]:
    → "Hrmmm! [Both/All of the] contestants have gotten off to a great start!"

SUBROUTINE_0818:
 18: 0x0818 [0x1C] WAIT(90* ticks)
 19: 0x081B [0x00] END_REQSTACK()
```

### Event 65535.16

#### Metadata

| Field        | Value    |
|--------------|----------|
| Entrypoint   | 0x081C   |
| Data Size    | 10 bytes |
| Instructions | 4        |

```
      00 01 02 03 04 05 06 07  08 09 0A 0B 0C 0D 0E 0F
      -- -- -- -- -- -- -- --  -- -- -- -- -- -- -- --
0810:                                      06 36 00 06              .6..
0820: 37 00 06 38 00 00                                 7..8..          
```

#### Opcodes

```
  0: 0x081C [0x06] ExtData[1]->WorkLocal[54] = 0
  1: 0x081F [0x06] ExtData[1]->WorkLocal[55] = 0
  2: 0x0822 [0x06] ExtData[1]->WorkLocal[56] = 0
  3: 0x0825 [0x00] END_REQSTACK()
```

### Event 65535.17

#### Metadata

| Field        | Value     |
|--------------|-----------|
| Entrypoint   | 0x0826    |
| Data Size    | 122 bytes |
| Instructions | 23        |

```
      00 01 02 03 04 05 06 07  08 09 0A 0B 0C 0D 0E 0F
      -- -- -- -- -- -- -- --  -- -- -- -- -- -- -- --
0820:                   13 02  10 1E 80 02 02 10 1F 80        ..........
0830: 04 34 08 00 02 36 00 01  80 80 66 08 02 23 10 20  .4...6....f..#. 
0840: 80 00 47 08 01 63 08 02  23 10 0E 80 00 57 08 03  ..G..c..#....W..
0850: 02 10 1C 80 01 5C 08 03  02 10 01 80 2B 45 60 04  .....\......+E`.
0860: 01 21 80 01 9C 08 02 36  00 1C 80 80 78 08 2B 45  .!.....6....x.+E
0870: 60 04 01 22 80 01 9C 08  02 36 00 02 80 80 8A 08  `..".....6......
0880: 2B 45 60 04 01 23 80 01  9C 08 02 36 00 24 80 80  +E`..#.....6.$..
0890: 9C 08 2B 45 60 04 01 25  80 01 9C 08 0B 36 00 00  ..+E`..%.....6..
```

#### Opcodes

```
  0: 0x0826 [0x13] Work_Zone[2] = rand() % 99*
  1: 0x082B [0x02] IF !(Work_Zone[2] < 75*) GOTO 0x0834
  2: 0x0833 [0x00] END_REQSTACK()
  3: 0x0834 [0x02] IF !(ExtData[1]->WorkLocal[54] == 0*) GOTO 0x0866
  4: 0x083C [0x02] IF !(Work_Zone[35] == 14*) GOTO 0x0847
  5: 0x0844 [0x01] GOTO 0x0863
  6: 0x0847 [0x02] IF !(Work_Zone[35] == 12*) GOTO 0x0857
  7: 0x084F [0x03] Work_Zone[2] = 1*
  8: 0x0854 [0x01] GOTO 0x085C
  9: 0x0857 [0x03] Work_Zone[2] = 0*

SUBROUTINE_085C:
 10: 0x085C [0x2B] Goccilo (ID: 17064005/0x01046045) [10067*]:
    → "What marvels could possibly lie in store for us today? I've heard it being said that today's [creatures/Cardians] have quite the arsenal of abilities at their disposal. This could get heavy, folks!"

SUBROUTINE_0863:
 11: 0x0863 [0x01] GOTO 0x089C
 12: 0x0866 [0x02] IF !(ExtData[1]->WorkLocal[54] == 1*) GOTO 0x0878
 13: 0x086E [0x2B] Goccilo (ID: 17064005/0x01046045) [10068*]:
    → "All of the contestants certainly appear to have quite a bit of steam left in them. Are they holding back? Could they possibly be working in cahoots with one another!?"
 14: 0x0875 [0x01] GOTO 0x089C
 15: 0x0878 [0x02] IF !(ExtData[1]->WorkLocal[54] == 2*) GOTO 0x088A
 16: 0x0880 [0x2B] Goccilo (ID: 17064005/0x01046045) [10069*]:
    → "It seems as though there has been a general quickening of pace amongst the participants!"
 17: 0x0887 [0x01] GOTO 0x089C
 18: 0x088A [0x02] IF !(ExtData[1]->WorkLocal[54] == 3*) GOTO 0x089C
 19: 0x0892 [0x2B] Goccilo (ID: 17064005/0x01046045) [10070*]:
    → "There's still plenty of race to go, race fans! More than enough time for an awe-inspiring accident or some downright nasty drama!"
 20: 0x0899 [0x01] GOTO 0x089C

SUBROUTINE_089C:
 21: 0x089C [0x0B] ExtData[1]->WorkLocal[54]++
 22: 0x089F [0x00] END_REQSTACK()
```

### Event 65535.18

#### Metadata

| Field        | Value    |
|--------------|----------|
| Entrypoint   | 0x08A0   |
| Data Size    | 90 bytes |
| Instructions | 17       |

```
      00 01 02 03 04 05 06 07  08 09 0A 0B 0C 0D 0E 0F
      -- -- -- -- -- -- -- --  -- -- -- -- -- -- -- --
08A0: 13 02 10 1E 80 02 02 10  1F 80 04 AE 08 00 02 37  ...............7
08B0: 00 01 80 80 C0 08 2B 45  60 04 01 26 80 01 F6 08  ......+E`..&....
08C0: 02 37 00 1C 80 80 D2 08  2B 45 60 04 01 27 80 01  .7......+E`..'..
08D0: F6 08 02 37 00 02 80 80  E4 08 2B 45 60 04 01 28  ...7......+E`..(
08E0: 80 01 F6 08 02 37 00 24  80 80 F6 08 2B 45 60 04  .....7.$....+E`.
08F0: 01 29 80 01 F6 08 0B 37  00 00                    .).....7..      
```

#### Opcodes

```
  0: 0x08A0 [0x13] Work_Zone[2] = rand() % 99*
  1: 0x08A5 [0x02] IF !(Work_Zone[2] < 75*) GOTO 0x08AE
  2: 0x08AD [0x00] END_REQSTACK()
  3: 0x08AE [0x02] IF !(ExtData[1]->WorkLocal[55] == 0*) GOTO 0x08C0
  4: 0x08B6 [0x2B] Goccilo (ID: 17064005/0x01046045) [10071*]:
    → "And it looks as though the contestants have have settled in and found their groove!"
  5: 0x08BD [0x01] GOTO 0x08F6
  6: 0x08C0 [0x02] IF !(ExtData[1]->WorkLocal[55] == 1*) GOTO 0x08D2
  7: 0x08C8 [0x2B] Goccilo (ID: 17064005/0x01046045) [10072*]:
    → "The racers look to have gotten themselves into a bit of a rut now. This could make or break the race! Let's see if they can manage to pull through!"
  8: 0x08CF [0x01] GOTO 0x08F6
  9: 0x08D2 [0x02] IF !(ExtData[1]->WorkLocal[55] == 2*) GOTO 0x08E4
 10: 0x08DA [0x2B] Goccilo (ID: 17064005/0x01046045) [10073*]:
    → "This is where it really pays off to have an edge in endurance over your opponent. Let's see if any contestants have the discipline to save some steam for the home stretch!"
 11: 0x08E1 [0x01] GOTO 0x08F6
 12: 0x08E4 [0x02] IF !(ExtData[1]->WorkLocal[55] == 3*) GOTO 0x08F6
 13: 0x08EC [0x2B] Goccilo (ID: 17064005/0x01046045) [10074*]:
    → "And here's where we get down to the nitty-gritty! Let's see if some of our racers can provide a flamboyant finish for us here today!"
 14: 0x08F3 [0x01] GOTO 0x08F6

SUBROUTINE_08F6:
 15: 0x08F6 [0x0B] ExtData[1]->WorkLocal[55]++
 16: 0x08F9 [0x00] END_REQSTACK()
```

### Event 65535.19

#### Metadata

| Field        | Value    |
|--------------|----------|
| Entrypoint   | 0x08FA   |
| Data Size    | 90 bytes |
| Instructions | 17       |

```
      00 01 02 03 04 05 06 07  08 09 0A 0B 0C 0D 0E 0F
      -- -- -- -- -- -- -- --  -- -- -- -- -- -- -- --
08F0:                                13 02 10 1E 80 02            ......
0900: 02 10 1F 80 04 08 09 00  02 38 00 01 80 80 1A 09  .........8......
0910: 2B 45 60 04 01 2A 80 01  50 09 02 38 00 1C 80 80  +E`..*..P..8....
0920: 2C 09 2B 45 60 04 01 2B  80 01 50 09 02 38 00 02  ,.+E`..+..P..8..
0930: 80 80 3E 09 2B 45 60 04  01 2C 80 01 50 09 02 38  ..>.+E`..,..P..8
0940: 00 24 80 80 50 09 2B 45  60 04 01 2D 80 01 50 09  .$..P.+E`..-..P.
0950: 0B 38 00 00                                       .8..            
```

#### Opcodes

```
  0: 0x08FA [0x13] Work_Zone[2] = rand() % 99*
  1: 0x08FF [0x02] IF !(Work_Zone[2] < 75*) GOTO 0x0908
  2: 0x0907 [0x00] END_REQSTACK()
  3: 0x0908 [0x02] IF !(ExtData[1]->WorkLocal[56] == 0*) GOTO 0x091A
  4: 0x0910 [0x2B] Goccilo (ID: 17064005/0x01046045) [10075*]:
    → "And there they go! A clear boost in speed for the lot of them! But will they have the endurance to maintain their new pace for long?"
  5: 0x0917 [0x01] GOTO 0x0950
  6: 0x091A [0x02] IF !(ExtData[1]->WorkLocal[56] == 1*) GOTO 0x092C
  7: 0x0922 [0x2B] Goccilo (ID: 17064005/0x01046045) [10076*]:
    → "I am at a loss for words, folks! It's just too hard to call! Which racer will Lady Luck see fit to shine upon today!?"
  8: 0x0929 [0x01] GOTO 0x0950
  9: 0x092C [0x02] IF !(ExtData[1]->WorkLocal[56] == 2*) GOTO 0x093E
 10: 0x0934 [0x2B] Goccilo (ID: 17064005/0x01046045) [10077*]:
    → "It's painfully obvious that those thoroughbreds have nothing but the finish line in their sights now! The time for a final spurt is now or never!"
 11: 0x093B [0x01] GOTO 0x0950
 12: 0x093E [0x02] IF !(ExtData[1]->WorkLocal[56] == 3*) GOTO 0x0950
 13: 0x0946 [0x2B] Goccilo (ID: 17064005/0x01046045) [10078*]:
    → "And here they come down the home stretch! How is this one going to end up!?"
 14: 0x094D [0x01] GOTO 0x0950

SUBROUTINE_0950:
 15: 0x0950 [0x0B] ExtData[1]->WorkLocal[56]++
 16: 0x0953 [0x00] END_REQSTACK()
```

### Event 65535.20

#### Metadata

| Field        | Value     |
|--------------|-----------|
| Entrypoint   | 0x0954    |
| Data Size    | 134 bytes |
| Instructions | 26        |

```
      00 01 02 03 04 05 06 07  08 09 0A 0B 0C 0D 0E 0F
      -- -- -- -- -- -- -- --  -- -- -- -- -- -- -- --
0950:             2B 45 60 04  01 2E 80 1C 09 80 03 11      +E`.........
0960: 00 29 10 03 12 00 01 80  1A F6 0D 02 02 10 1C 80  .)..............
0970: 00 82 09 03 02 10 01 80  2B 45 60 04 01 2F 80 01  ........+E`../..
0980: AD 09 02 02 10 34 10 00  A6 09 02 23 10 1B 80 00  .....4.....#....
0990: 9C 09 2B 45 60 04 01 30  80 01 A3 09 2B 45 60 04  ..+E`..0....+E`.
09A0: 01 31 80 01 AD 09 2B 45  60 04 01 32 80 1C 0A 80  .1....+E`..2....
09B0: 02 00 17 1C 80 00 D9 09  03 11 00 29 10 03 12 00  ...........)....
09C0: 1C 80 1A F6 0D 03 02 10  01 80 03 03 10 1C 80 2B  ...............+
09D0: 45 60 04 01 33 80 1C 0A  80 00                    E`..3.....      
```

#### Opcodes

```
  0: 0x0954 [0x2B] Goccilo (ID: 17064005/0x01046045) [8857*]:
    → "And now they're approaching the final corner!"
  1: 0x095B [0x1C] WAIT(60* ticks)
  2: 0x095E [0x03] ExtData[1]->WorkLocal[17] = Work_Zone[41]
  3: 0x0963 [0x03] ExtData[1]->WorkLocal[18] = 0*
  4: 0x0968 [0x1A] CALL_SUBROUTINE(address=0x0DF6)
  5: 0x096B [0x02] IF !(Work_Zone[2] == 1*) GOTO 0x0982
  6: 0x0973 [0x03] Work_Zone[2] = 0*
  7: 0x0978 [0x2B] Goccilo (ID: 17064005/0x01046045) [10044*]:
    → "$0 still holds on to the lead. Can it take it all the way to the finish!?"
  8: 0x097F [0x01] GOTO 0x09AD
  9: 0x0982 [0x02] IF !(Work_Zone[2] == Work_Zone[52]) GOTO 0x09A6
 10: 0x098A [0x02] IF !(Work_Zone[35] == 9*) GOTO 0x099C
 11: 0x0992 [0x2B] Goccilo (ID: 17064005/0x01046045) [10042*]:
    → "The two contestants are neck and neck! This could be a screenshot finish!"
 12: 0x0999 [0x01] GOTO 0x09A3
 13: 0x099C [0x2B] Goccilo (ID: 17064005/0x01046045) [10041*]:
    → "It's crowded up front with all $0 contestants still fighting for the lead!"

SUBROUTINE_09A3:
 14: 0x09A3 [0x01] GOTO 0x09AD
 15: 0x09A6 [0x2B] Goccilo (ID: 17064005/0x01046045) [10040*]:
    → "It's crowded up front with $0 contestants still fighting for the lead! Which one will break through!?"

SUBROUTINE_09AD:
 16: 0x09AD [0x1C] WAIT(90* ticks)
 17: 0x09B0 [0x02] IF !(Work_Zone_1700[0] == 1*) GOTO 0x09D9
 18: 0x09B8 [0x03] ExtData[1]->WorkLocal[17] = Work_Zone[41]
 19: 0x09BD [0x03] ExtData[1]->WorkLocal[18] = 1*
 20: 0x09C2 [0x1A] CALL_SUBROUTINE(address=0x0DF6)
 21: 0x09C5 [0x03] Work_Zone[2] = 0*
 22: 0x09CA [0x03] Work_Zone[3] = 1*
 23: 0x09CF [0x2B] Goccilo (ID: 17064005/0x01046045) [10045*]:
    → "$0 is starting to lag behind! Does it have enough energy left to make that final dash for the cash!?"
 24: 0x09D6 [0x1C] WAIT(90* ticks)
 25: 0x09D9 [0x00] END_REQSTACK()
```

### Event 65535.21

#### Metadata

| Field        | Value     |
|--------------|-----------|
| Entrypoint   | 0x09DA    |
| Data Size    | 814 bytes |
| Instructions | 93        |

```
      00 01 02 03 04 05 06 07  08 09 0A 0B 0C 0D 0E 0F
      -- -- -- -- -- -- -- --  -- -- -- -- -- -- -- --
09D0:                                27 03 2E 60 04 01            '..`..
09E0: 09 27 03 32 60 04 01 0D  02 23 10 1C 80 00 F3 09  .'.2`....#......
09F0: 01 3D 0A 02 23 10 20 80  00 13 0A 27 03 37 60 04  .=..#. ....'.7`.
0A00: 01 09 27 03 38 60 04 01  09 27 03 39 60 04 01 09  ..'.8`...'.9`...
0A10: 01 28 0A 27 03 33 60 04  01 09 27 03 34 60 04 01  .(.'.3`...'.4`..
0A20: 09 27 03 35 60 04 01 09  27 03 2F 60 04 01 0D 27  .'.5`...'./`...'
0A30: 03 30 60 04 01 0D 27 03  31 60 04 01 09 45 04 80  .0`...'.1`...E..
0A40: F0 FF FF 7F F0 FF FF 7F  73 30 33 35 01 80 45 07  ........s035..E.
0A50: 80 45 60 04 01 45 60 04  01 6B 61 6E 74 01 80 03  .E`..E`..kant...
0A60: 11 00 0B 80 03 12 00 01  80 1A F6 0D 41 01 80 24  ............A..$
0A70: 80 3D 00 35 00 41 01 80  24 80 3C 00 33 00 03 11  .=.5.A..$.<.3...
0A80: 00 29 10 1A F6 0D 41 01  80 24 80 3C 00 34 00 02  .)....A..$.<.4..
0A90: 35 00 1C 80 00 25 0B 02  33 00 34 00 00 E2 0A 03  5....%..3.4.....
0AA0: 02 10 1C 80 1A DA 13 03  02 10 01 80 2B 45 60 04  ............+E`.
0AB0: 01 34 80 41 01 80 35 80  30 10 33 00 02 33 00 01  .4.A..5.0.3..3..
0AC0: 80 00 D3 0A 41 01 80 35  80 30 10 33 00 1C 1C 80  ....A..5.0.3....
0AD0: 01 BC 0A 03 02 10 01 80  2B 45 60 04 01 36 80 01  ........+E`..6..
0AE0: 22 0B 03 02 10 1C 80 1A  DA 13 03 02 10 01 80 2B  "..............+
0AF0: 45 60 04 01 37 80 41 01  80 35 80 30 10 33 00 02  E`..7.A..5.0.3..
0B00: 33 00 01 80 00 16 0B 41  01 80 35 80 30 10 33 00  3......A..5.0.3.
0B10: 1C 1C 80 01 FF 0A 03 02  10 01 80 2B 45 60 04 01  ...........+E`..
0B20: 38 80 01 65 0B 03 02 10  1C 80 1A DA 13 03 02 10  8..e............
0B30: 01 80 2B 45 60 04 01 34  80 41 01 80 35 80 30 10  ..+E`..4.A..5.0.
0B40: 33 00 02 33 00 01 80 00  59 0B 41 01 80 35 80 30  3..3....Y.A..5.0
0B50: 10 33 00 1C 1C 80 01 42  0B 03 02 10 01 80 2B 45  .3.....B......+E
0B60: 60 04 01 36 80 2C 42 60  04 01 42 60 04 01 73 70  `..6.,B`..B`..sp
0B70: 30 32 BB 39 80 F0 FF FF  7F F0 FF FF 7F 6D 61 69  02.9.........mai
0B80: 6E 01 80 1C 10 80 BB 3A  80 2E 60 04 01 2E 60 04  n......:..`...`.
0B90: 01 73 74 6F 70 01 80 BB  3A 80 2F 60 04 01 2F 60  .stop...:./`../`
0BA0: 04 01 73 74 6F 70 01 80  BB 3A 80 30 60 04 01 30  ..stop...:.0`..0
0BB0: 60 04 01 73 74 6F 70 01  80 BB 3A 80 31 60 04 01  `..stop...:.1`..
0BC0: 31 60 04 01 73 74 6F 70  01 80 02 23 10 20 80 01  1`..stop...#. ..
0BD0: 19 0C BB 3B 80 32 60 04  01 32 60 04 01 73 74 6F  ...;.2`..2`..sto
0BE0: 70 01 80 BB 3B 80 33 60  04 01 33 60 04 01 73 74  p...;.3`..3`..st
0BF0: 6F 70 01 80 BB 3B 80 34  60 04 01 34 60 04 01 73  op...;.4`..4`..s
0C00: 74 6F 70 01 80 BB 3B 80  35 60 04 01 35 60 04 01  top...;.5`..5`..
0C10: 73 74 6F 70 01 80 01 5D  0C BB 3A 80 32 60 04 01  stop...]..:.2`..
0C20: 32 60 04 01 73 74 6F 70  01 80 BB 3A 80 37 60 04  2`..stop...:.7`.
0C30: 01 37 60 04 01 73 74 6F  70 01 80 BB 3A 80 38 60  .7`..stop...:.8`
0C40: 04 01 38 60 04 01 73 74  6F 70 01 80 BB 3A 80 39  ..8`..stop...:.9
0C50: 60 04 01 39 60 04 01 73  74 6F 70 01 80 52 04 80  `..9`..stop..R..
0C60: F0 FF FF 7F F0 FF FF 7F  73 30 33 35 41 01 80 24  ........s035A..$
0C70: 80 25 10 02 10 02 02 10  01 80 00 D3 0C 45 04 80  .%...........E..
0C80: F0 FF FF 7F F0 FF FF 7F  73 30 33 36 01 80 BB 3C  ........s036...<
0C90: 80 F0 FF FF 7F F0 FF FF  7F 73 74 61 74 01 80 45  .........stat..E
0CA0: 07 80 2E 60 04 01 2E 60  04 01 66 61 6E 31 01 80  ...`...`..fan1..
0CB0: 55 04 80 F0 FF FF 7F F0  FF FF 7F 73 30 33 36 BB  U..........s036.
0CC0: 3C 80 F0 FF FF 7F F0 FF  FF 7F 73 74 6F 70 01 80  <.........stop..
0CD0: 01 07 0D 45 04 80 F0 FF  FF 7F F0 FF FF 7F 73 30  ...E..........s0
0CE0: 33 37 01 80 45 07 80 2E  60 04 01 2E 60 04 01 66  37..E...`...`..f
0CF0: 61 6E 32 01 80 1C 3D 80  52 04 80 F0 FF FF 7F F0  an2...=.R.......
0D00: FF FF 7F 73 30 33 37 00                           ...s037.        
```

#### Opcodes

```
  0: 0x09DA [0x27] REQ_SET(priority=0x03, entity_id=Unnamed NPC (ID: 17063982/0x0104602E), tag_num=0x09)
  1: 0x09E1 [0x27] REQ_SET(priority=0x03, entity_id=Unnamed NPC (ID: 17063986/0x01046032), tag_num=0x0D)
  2: 0x09E8 [0x02] IF !(Work_Zone[35] == 1*) GOTO 0x09F3
  3: 0x09F0 [0x01] GOTO 0x0A3D
  4: 0x09F3 [0x02] IF !(Work_Zone[35] == 14*) GOTO 0x0A13
  5: 0x09FB [0x27] REQ_SET(priority=0x03, entity_id=Unnamed NPC (ID: 17063991/0x01046037), tag_num=0x09)
  6: 0x0A02 [0x27] REQ_SET(priority=0x03, entity_id=Unnamed NPC (ID: 17063992/0x01046038), tag_num=0x09)
  7: 0x0A09 [0x27] REQ_SET(priority=0x03, entity_id=Unnamed NPC (ID: 17063993/0x01046039), tag_num=0x09)
  8: 0x0A10 [0x01] GOTO 0x0A28
  9: 0x0A13 [0x27] REQ_SET(priority=0x03, entity_id=Unnamed NPC (ID: 17063987/0x01046033), tag_num=0x09)
 10: 0x0A1A [0x27] REQ_SET(priority=0x03, entity_id=Unnamed NPC (ID: 17063988/0x01046034), tag_num=0x09)
 11: 0x0A21 [0x27] REQ_SET(priority=0x03, entity_id=Unnamed NPC (ID: 17063989/0x01046035), tag_num=0x09)

SUBROUTINE_0A28:
 12: 0x0A28 [0x27] REQ_SET(priority=0x03, entity_id=Unnamed NPC (ID: 17063983/0x0104602F), tag_num=0x0D)
 13: 0x0A2F [0x27] REQ_SET(priority=0x03, entity_id=Unnamed NPC (ID: 17063984/0x01046030), tag_num=0x0D)
 14: 0x0A36 [0x27] REQ_SET(priority=0x03, entity_id=Unnamed NPC (ID: 17063985/0x01046031), tag_num=0x09)

SUBROUTINE_0A3D:
 15: 0x0A3D [0x45] LOAD_SCHEDULED_TASK: Load scheduler "s035" with entities [LocalPlayer, LocalPlayer], work=[337*, 0*]
 16: 0x0A4E [0x45] LOAD_SCHEDULED_TASK: Load scheduler "kant" with entities [Goccilo (ID: 17064005/0x01046045), Goccilo (ID: 17064005/0x01046045)], work=[191*, 0*]
 17: 0x0A5F [0x03] ExtData[1]->WorkLocal[17] = 30*
 18: 0x0A64 [0x03] ExtData[1]->WorkLocal[18] = 0*
 19: 0x0A69 [0x1A] CALL_SUBROUTINE(address=0x0DF6)
 20: 0x0A6C [0x41] ExtData[1]->WorkLocal[53] = ExtData[1]->WorkLocal[61] (bits 0*-3*)
 21: 0x0A75 [0x41] ExtData[1]->WorkLocal[51] = ExtData[1]->WorkLocal[60] (bits 0*-3*)
 22: 0x0A7E [0x03] ExtData[1]->WorkLocal[17] = Work_Zone[41]
 23: 0x0A83 [0x1A] CALL_SUBROUTINE(address=0x0DF6)
 24: 0x0A86 [0x41] ExtData[1]->WorkLocal[52] = ExtData[1]->WorkLocal[60] (bits 0*-3*)
 25: 0x0A8F [0x02] IF !(ExtData[1]->WorkLocal[53] == 1*) GOTO 0x0B25
 26: 0x0A97 [0x02] IF !(ExtData[1]->WorkLocal[51] == ExtData[1]->WorkLocal[52]) GOTO 0x0AE2
 27: 0x0A9F [0x03] Work_Zone[2] = 1*
 28: 0x0AA4 [0x1A] CALL_SUBROUTINE(address=0x13DA)
 29: 0x0AA7 [0x03] Work_Zone[2] = 0*
 30: 0x0AAC [0x2B] Goccilo (ID: 17064005/0x01046045) [10046*]:
    → "It doesn't look like anyone will be catching $0 today!"
 31: 0x0AB3 [0x41] ExtData[1]->WorkLocal[51] = Work_Zone[48] (bits 0*-7*)

SUBROUTINE_0ABC:
 32: 0x0ABC [0x02] IF !(ExtData[1]->WorkLocal[51] == 0*) GOTO 0x0AD3
 33: 0x0AC4 [0x41] ExtData[1]->WorkLocal[51] = Work_Zone[48] (bits 0*-7*)
 34: 0x0ACD [0x1C] WAIT(1* ticks)
 35: 0x0AD0 [0x01] GOTO 0x0ABC
 36: 0x0AD3 [0x03] Work_Zone[2] = 0*
 37: 0x0AD8 [0x2B] Goccilo (ID: 17064005/0x01046045) [8864*]:
    → "And $0 takes the crown!"
 38: 0x0ADF [0x01] GOTO 0x0B22
 39: 0x0AE2 [0x03] Work_Zone[2] = 1*
 40: 0x0AE7 [0x1A] CALL_SUBROUTINE(address=0x13DA)
 41: 0x0AEA [0x03] Work_Zone[2] = 0*
 42: 0x0AEF [0x2B] Goccilo (ID: 17064005/0x01046045) [10047*]:
    → "What's this? $0 is making its move on the lead!"
 43: 0x0AF6 [0x41] ExtData[1]->WorkLocal[51] = Work_Zone[48] (bits 0*-7*)

SUBROUTINE_0AFF:
 44: 0x0AFF [0x02] IF !(ExtData[1]->WorkLocal[51] == 0*) GOTO 0x0B16
 45: 0x0B07 [0x41] ExtData[1]->WorkLocal[51] = Work_Zone[48] (bits 0*-7*)
 46: 0x0B10 [0x1C] WAIT(1* ticks)
 47: 0x0B13 [0x01] GOTO 0x0AFF
 48: 0x0B16 [0x03] Work_Zone[2] = 0*
 49: 0x0B1B [0x2B] Goccilo (ID: 17064005/0x01046045) [8866*]:
    → "And it's $0 by a beak!!!"

SUBROUTINE_0B22:
 50: 0x0B22 [0x01] GOTO 0x0B65
 51: 0x0B25 [0x03] Work_Zone[2] = 1*
 52: 0x0B2A [0x1A] CALL_SUBROUTINE(address=0x13DA)
 53: 0x0B2D [0x03] Work_Zone[2] = 0*
 54: 0x0B32 [0x2B] Goccilo (ID: 17064005/0x01046045) [10046*]:
    → "It doesn't look like anyone will be catching $0 today!"
 55: 0x0B39 [0x41] ExtData[1]->WorkLocal[51] = Work_Zone[48] (bits 0*-7*)

SUBROUTINE_0B42:
 56: 0x0B42 [0x02] IF !(ExtData[1]->WorkLocal[51] == 0*) GOTO 0x0B59
 57: 0x0B4A [0x41] ExtData[1]->WorkLocal[51] = Work_Zone[48] (bits 0*-7*)
 58: 0x0B53 [0x1C] WAIT(1* ticks)
 59: 0x0B56 [0x01] GOTO 0x0B42
 60: 0x0B59 [0x03] Work_Zone[2] = 0*
 61: 0x0B5E [0x2B] Goccilo (ID: 17064005/0x01046045) [8864*]:
    → "And $0 takes the crown!"

SUBROUTINE_0B65:
 62: 0x0B65 [0x2C] CREATE_SCHEDULER_TASK: Create scheduler "sp02" with entities [Unnamed NPC (ID: 17064002/0x01046042), Unnamed NPC (ID: 17064002/0x01046042)]
 63: 0x0B72 [0xBB] LOAD_EVENT_SCHEDULER_ALT: Load scheduler "main" with entities [LocalPlayer, LocalPlayer], work=[43*, 0*]
 64: 0x0B83 [0x1C] WAIT(120* ticks)
 65: 0x0B86 [0xBB] LOAD_EVENT_SCHEDULER_ALT: Load scheduler "stop" with entities [Unnamed NPC (ID: 17063982/0x0104602E), Unnamed NPC (ID: 17063982/0x0104602E)], work=[23*, 0*]
 66: 0x0B97 [0xBB] LOAD_EVENT_SCHEDULER_ALT: Load scheduler "stop" with entities [Unnamed NPC (ID: 17063983/0x0104602F), Unnamed NPC (ID: 17063983/0x0104602F)], work=[23*, 0*]
 67: 0x0BA8 [0xBB] LOAD_EVENT_SCHEDULER_ALT: Load scheduler "stop" with entities [Unnamed NPC (ID: 17063984/0x01046030), Unnamed NPC (ID: 17063984/0x01046030)], work=[23*, 0*]
 68: 0x0BB9 [0xBB] LOAD_EVENT_SCHEDULER_ALT: Load scheduler "stop" with entities [Unnamed NPC (ID: 17063985/0x01046031), Unnamed NPC (ID: 17063985/0x01046031)], work=[23*, 0*]
 69: 0x0BCA [0x02] IF !(Work_Zone[35] == 14*) GOTO 0x0C19
 70: 0x0BD2 [0xBB] LOAD_EVENT_SCHEDULER_ALT: Load scheduler "stop" with entities [Unnamed NPC (ID: 17063986/0x01046032), Unnamed NPC (ID: 17063986/0x01046032)], work=[225*, 0*]
 71: 0x0BE3 [0xBB] LOAD_EVENT_SCHEDULER_ALT: Load scheduler "stop" with entities [Unnamed NPC (ID: 17063987/0x01046033), Unnamed NPC (ID: 17063987/0x01046033)], work=[225*, 0*]
 72: 0x0BF4 [0xBB] LOAD_EVENT_SCHEDULER_ALT: Load scheduler "stop" with entities [Unnamed NPC (ID: 17063988/0x01046034), Unnamed NPC (ID: 17063988/0x01046034)], work=[225*, 0*]
 73: 0x0C05 [0xBB] LOAD_EVENT_SCHEDULER_ALT: Load scheduler "stop" with entities [Unnamed NPC (ID: 17063989/0x01046035), Unnamed NPC (ID: 17063989/0x01046035)], work=[225*, 0*]
 74: 0x0C16 [0x01] GOTO 0x0C5D
 75: 0x0C19 [0xBB] LOAD_EVENT_SCHEDULER_ALT: Load scheduler "stop" with entities [Unnamed NPC (ID: 17063986/0x01046032), Unnamed NPC (ID: 17063986/0x01046032)], work=[23*, 0*]
 76: 0x0C2A [0xBB] LOAD_EVENT_SCHEDULER_ALT: Load scheduler "stop" with entities [Unnamed NPC (ID: 17063991/0x01046037), Unnamed NPC (ID: 17063991/0x01046037)], work=[23*, 0*]
 77: 0x0C3B [0xBB] LOAD_EVENT_SCHEDULER_ALT: Load scheduler "stop" with entities [Unnamed NPC (ID: 17063992/0x01046038), Unnamed NPC (ID: 17063992/0x01046038)], work=[23*, 0*]
 78: 0x0C4C [0xBB] LOAD_EVENT_SCHEDULER_ALT: Load scheduler "stop" with entities [Unnamed NPC (ID: 17063993/0x01046039), Unnamed NPC (ID: 17063993/0x01046039)], work=[23*, 0*]

SUBROUTINE_0C5D:
 79: 0x0C5D [0x52] END_LOAD_SCHEDULER: End scheduler "s035" with entities [LocalPlayer, LocalPlayer], work=337*
 80: 0x0C6C [0x41] Work_Zone[2] = Work_Zone[37] (bits 0*-3*)
 81: 0x0C75 [0x02] IF !(Work_Zone[2] == 0*) GOTO 0x0CD3
 82: 0x0C7D [0x45] LOAD_SCHEDULED_TASK: Load scheduler "s036" with entities [LocalPlayer, LocalPlayer], work=[337*, 0*]
 83: 0x0C8E [0xBB] LOAD_EVENT_SCHEDULER_ALT: Load scheduler "stat" with entities [LocalPlayer, LocalPlayer], work=[25*, 0*]
 84: 0x0C9F [0x45] LOAD_SCHEDULED_TASK: Load scheduler "fan1" with entities [Unnamed NPC (ID: 17063982/0x0104602E), Unnamed NPC (ID: 17063982/0x0104602E)], work=[191*, 0*]
 85: 0x0CB0 [0x55] WAIT_LOAD_SCHEDULER: Wait for scheduler "s036" with entities [LocalPlayer, LocalPlayer], work=337*
 86: 0x0CBF [0xBB] LOAD_EVENT_SCHEDULER_ALT: Load scheduler "stop" with entities [LocalPlayer, LocalPlayer], work=[25*, 0*]
 87: 0x0CD0 [0x01] GOTO 0x0D07
 88: 0x0CD3 [0x45] LOAD_SCHEDULED_TASK: Load scheduler "s037" with entities [LocalPlayer, LocalPlayer], work=[337*, 0*]
 89: 0x0CE4 [0x45] LOAD_SCHEDULED_TASK: Load scheduler "fan2" with entities [Unnamed NPC (ID: 17063982/0x0104602E), Unnamed NPC (ID: 17063982/0x0104602E)], work=[191*, 0*]
 90: 0x0CF5 [0x1C] WAIT(300* ticks)
 91: 0x0CF8 [0x52] END_LOAD_SCHEDULER: End scheduler "s037" with entities [LocalPlayer, LocalPlayer], work=337*

SUBROUTINE_0D07:
 92: 0x0D07 [0x00] END_REQSTACK()
```

### Event 65535.22

#### Metadata

| Field        | Value     |
|--------------|-----------|
| Entrypoint   | 0x0D08    |
| Data Size    | 121 bytes |
| Instructions | 21        |

```
      00 01 02 03 04 05 06 07  08 09 0A 0B 0C 0D 0E 0F
      -- -- -- -- -- -- -- --  -- -- -- -- -- -- -- --
0D00:                          B4 01 13 00 01 80 B4 01          ........
0D10: 17 00 1C 80 B4 01 1B 00  02 80 B4 01 1F 00 24 80  ..............$.
0D20: 3E 3B 10 01 80 31 0D C3  01 80 13 00 1C 80 01 38  >;...1.........8
0D30: 0D C3 01 80 13 00 01 80  3E 3B 10 1C 80 49 0D C3  ........>;...I..
0D40: 1C 80 17 00 1C 80 01 50  0D C3 1C 80 17 00 01 80  .......P........
0D50: 3E 3B 10 02 80 61 0D C3  02 80 1B 00 1C 80 01 68  >;...a.........h
0D60: 0D C3 02 80 1B 00 01 80  3E 3B 10 24 80 79 0D C3  ........>;.$.y..
0D70: 24 80 1F 00 1C 80 01 80  0D C3 24 80 1F 00 01 80  $.........$.....
0D80: 00                                                .               
```

#### Opcodes

```
  0: 0x0D08 [0xB4] UI_WINDOW_STRING_HANDLER(case=0x01 - Copy string from event strings table, work_offset=ExtData[1]->WorkLocal[19], string_index=0*)
  1: 0x0D0E [0xB4] UI_WINDOW_STRING_HANDLER(case=0x01 - Copy string from event strings table, work_offset=ExtData[1]->WorkLocal[23], string_index=1*)
  2: 0x0D14 [0xB4] UI_WINDOW_STRING_HANDLER(case=0x01 - Copy string from event strings table, work_offset=ExtData[1]->WorkLocal[27], string_index=2*)
  3: 0x0D1A [0xB4] UI_WINDOW_STRING_HANDLER(case=0x01 - Copy string from event strings table, work_offset=ExtData[1]->WorkLocal[31], string_index=3*)
  4: 0x0D20 [0x3E] IF !(Work_Zone[59] bit 0*) GOTO 0x0D31
  5: 0x0D27 [0xC3] COPY_STRING_TO_ARRAY(array_index=0x8001, string_value=0x13, additional_value=0x801C)
  6: 0x0D2E [0x01] GOTO 0x0D38
  7: 0x0D31 [0xC3] COPY_STRING_TO_ARRAY(array_index=0x8001, string_value=0x13, additional_value=0x8001)

SUBROUTINE_0D38:
  8: 0x0D38 [0x3E] IF !(Work_Zone[59] bit 1*) GOTO 0x0D49
  9: 0x0D3F [0xC3] COPY_STRING_TO_ARRAY(array_index=0x801C, string_value=0x17, additional_value=0x801C)
 10: 0x0D46 [0x01] GOTO 0x0D50
 11: 0x0D49 [0xC3] COPY_STRING_TO_ARRAY(array_index=0x801C, string_value=0x17, additional_value=0x8001)

SUBROUTINE_0D50:
 12: 0x0D50 [0x3E] IF !(Work_Zone[59] bit 2*) GOTO 0x0D61
 13: 0x0D57 [0xC3] COPY_STRING_TO_ARRAY(array_index=0x8002, string_value=0x1B, additional_value=0x801C)
 14: 0x0D5E [0x01] GOTO 0x0D68
 15: 0x0D61 [0xC3] COPY_STRING_TO_ARRAY(array_index=0x8002, string_value=0x1B, additional_value=0x8001)

SUBROUTINE_0D68:
 16: 0x0D68 [0x3E] IF !(Work_Zone[59] bit 3*) GOTO 0x0D79
 17: 0x0D6F [0xC3] COPY_STRING_TO_ARRAY(array_index=0x8024, string_value=0x1F, additional_value=0x801C)
 18: 0x0D76 [0x01] GOTO 0x0D80
 19: 0x0D79 [0xC3] COPY_STRING_TO_ARRAY(array_index=0x8024, string_value=0x1F, additional_value=0x8001)

SUBROUTINE_0D80:
 20: 0x0D80 [0x00] END_REQSTACK()
```

### Event 65535.23

#### Metadata

| Field        | Value    |
|--------------|----------|
| Entrypoint   | 0x0D81   |
| Data Size    | 97 bytes |
| Instructions | 17       |

```
      00 01 02 03 04 05 06 07  08 09 0A 0B 0C 0D 0E 0F
      -- -- -- -- -- -- -- --  -- -- -- -- -- -- -- --
0D80:    B4 01 23 00 01 80 B4  01 27 00 1C 80 B4 01 2B   ..#.....'.....+
0D90: 00 02 80 B4 01 2F 00 24  80 3E 3B 10 3E 80 AA 0D  ...../.$.>;.>...
0DA0: C3 1C 80 27 00 1C 80 01  B1 0D C3 1C 80 27 00 01  ...'.........'..
0DB0: 80 3E 3B 10 3F 80 C2 0D  C3 02 80 2B 00 1C 80 01  .>;.?......+....
0DC0: C9 0D C3 02 80 2B 00 01  80 3E 3B 10 35 80 DA 0D  .....+...>;.5...
0DD0: C3 24 80 2F 00 1C 80 01  E1 0D C3 24 80 2F 00 01  .$./.......$./..
0DE0: 80 00                                             ..              
```

#### Opcodes

```
  0: 0x0D81 [0xB4] UI_WINDOW_STRING_HANDLER(case=0x01 - Copy string from event strings table, work_offset=ExtData[1]->WorkLocal[35], string_index=0*)
  1: 0x0D87 [0xB4] UI_WINDOW_STRING_HANDLER(case=0x01 - Copy string from event strings table, work_offset=ExtData[1]->WorkLocal[39], string_index=1*)
  2: 0x0D8D [0xB4] UI_WINDOW_STRING_HANDLER(case=0x01 - Copy string from event strings table, work_offset=ExtData[1]->WorkLocal[43], string_index=2*)
  3: 0x0D93 [0xB4] UI_WINDOW_STRING_HANDLER(case=0x01 - Copy string from event strings table, work_offset=ExtData[1]->WorkLocal[47], string_index=3*)
  4: 0x0D99 [0x3E] IF !(Work_Zone[59] bit 5*) GOTO 0x0DAA
  5: 0x0DA0 [0xC3] COPY_STRING_TO_ARRAY(array_index=0x801C, string_value=0x27, additional_value=0x801C)
  6: 0x0DA7 [0x01] GOTO 0x0DB1
  7: 0x0DAA [0xC3] COPY_STRING_TO_ARRAY(array_index=0x801C, string_value=0x27, additional_value=0x8001)

SUBROUTINE_0DB1:
  8: 0x0DB1 [0x3E] IF !(Work_Zone[59] bit 6*) GOTO 0x0DC2
  9: 0x0DB8 [0xC3] COPY_STRING_TO_ARRAY(array_index=0x8002, string_value=0x2B, additional_value=0x801C)
 10: 0x0DBF [0x01] GOTO 0x0DC9
 11: 0x0DC2 [0xC3] COPY_STRING_TO_ARRAY(array_index=0x8002, string_value=0x2B, additional_value=0x8001)

SUBROUTINE_0DC9:
 12: 0x0DC9 [0x3E] IF !(Work_Zone[59] bit 7*) GOTO 0x0DDA
 13: 0x0DD0 [0xC3] COPY_STRING_TO_ARRAY(array_index=0x8024, string_value=0x2F, additional_value=0x801C)
 14: 0x0DD7 [0x01] GOTO 0x0DE1
 15: 0x0DDA [0xC3] COPY_STRING_TO_ARRAY(array_index=0x8024, string_value=0x2F, additional_value=0x8001)

SUBROUTINE_0DE1:
 16: 0x0DE1 [0x00] END_REQSTACK()
```

### Event 65535.24

#### Metadata

| Field        | Value      |
|--------------|------------|
| Entrypoint   | 0x0DE2     |
| Data Size    | 1938 bytes |
| Instructions | 57         |

```
      00 01 02 03 04 05 06 07  08 09 0A 0B 0C 0D 0E 0F
      -- -- -- -- -- -- -- --  -- -- -- -- -- -- -- --
0DE0:       03 11 00 29 10 03  12 00 01 80 1A F6 0D 48    ...).........H
0DF0: 40 80 48 41 80 00 BF 40  01 80 11 00 01 80 00 00  @.HA...@........
0E00: 02 12 00 01 80 00 B0 0E  03 3C 00 42 80 06 39 00  .........<.B..9.
0E10: 06 3A 00 06 3E 00 06 03  00 02 39 00 43 80 03 AD  .:..>.....9.C...
0E20: 0E 06 3B 00 06 3D 00 02  3B 00 34 10 03 7D 0E 03  ..;..=..;.4..}..
0E30: 0D 00 3B 00 14 0D 00 44  80 03 0E 00 0D 00 07 0E  ..;....D........
0E40: 00 24 80 41 0D 00 0E 00  00 00 3F 00 02 3F 00 39  .$.A......?..?.9
0E50: 00 00 77 0E 03 0F 00 3A  00 14 0F 00 44 80 03 10  ..w....:....D...
0E60: 00 0F 00 07 10 00 24 80  40 0F 00 10 00 3C 00 3B  ......$.@....<.;
0E70: 00 0B 3A 00 0B 3D 00 0B  3B 00 01 27 0E 02 3D 00  ..:..=..;..'..=.
0E80: 01 80 02 A7 0E 03 0F 00  3E 00 14 0F 00 44 80 03  ........>....D..
0E90: 10 00 0F 00 07 10 00 24  80 40 0F 00 10 00 03 00  .......$.@......
0EA0: 3D 00 07 3E 00 3D 00 0B  39 00 01 19 0E 01 57 0F  =..>.=..9.....W.
0EB0: 03 3C 00 42 80 03 39 00  05 80 06 3A 00 06 3E 00  .<.B..9....:..>.
0EC0: 06 03 00 02 39 00 01 80  04 57 0F 06 3B 00 06 3D  ....9....W..;..=
0ED0: 00 02 3B 00 34 10 03 27  0F 03 0D 00 3B 00 14 0D  ..;.4..'....;...
0EE0: 00 44 80 03 0E 00 0D 00  07 0E 00 24 80 41 0D 00  .D.........$.A..
0EF0: 0E 00 00 00 3F 00 02 3F  00 39 00 00 21 0F 03 0F  ....?..?.9..!...
0F00: 00 3A 00 14 0F 00 44 80  03 10 00 0F 00 07 10 00  .:....D.........
0F10: 24 80 40 0F 00 10 00 3C  00 3B 00 0B 3A 00 0B 3D  $.@....<.;..:..=
0F20: 00 0B 3B 00 01 D1 0E 02  3D 00 01 80 02 51 0F 03  ..;.....=....Q..
0F30: 0F 00 3E 00 14 0F 00 44  80 03 10 00 0F 00 07 10  ..>....D........
0F40: 00 24 80 40 0F 00 10 00  03 00 3D 00 07 3E 00 3D  .$.@......=..>.=
0F50: 00 0C 39 00 01 C3 0E 41  01 80 24 80 3C 00 02 10  ..9....A..$.<...
0F60: 03 40 00 02 10 07 40 00  1C 80 06 03 10 1A 00 10  .@....@.........
0F70: 41 44 80 35 80 3C 00 02  10 03 43 00 02 10 07 43  AD.5.<....C....C
0F80: 00 1C 80 03 03 10 1C 80  1A 00 10 41 00 80 08 80  ...........A....
0F90: 3C 00 02 10 03 03 10 02  80 1A 00 10 41 0E 80 05  <...........A...
0FA0: 80 3C 00 02 10 03 41 00  02 10 07 41 00 1C 80 03  .<....A....A....
0FB0: 03 10 24 80 1A 00 10 41  45 80 46 80 03 00 09 10  ..$....AE.F.....
0FC0: 41 47 80 48 80 03 00 08  10 41 49 80 3A 80 03 00  AG.H.....AI.:...
0FD0: 07 10 41 43 80 4A 80 03  00 06 10 41 0E 80 05 80  ..AC.J.....A....
0FE0: 03 00 05 10 41 00 80 08  80 03 00 04 10 41 44 80  ....A........AD.
0FF0: 35 80 03 00 03 10 41 01  80 24 80 03 00 02 10 1B  5.....A..$......
1000: 02 02 10 01 80 00 26 10  B4 04 13 00 03 10 3E 3B  ......&.......>;
1010: 10 01 80 1F 10 C3 03 10  13 00 1C 80 01 26 10 C3  .............&..
1020: 03 10 13 00 01 80 02 02  10 1C 80 00 4C 10 B4 04  ............L...
1030: 17 00 03 10 3E 3B 10 1C  80 45 10 C3 03 10 17 00  ....>;...E......
1040: 1C 80 01 4C 10 C3 03 10  17 00 01 80 02 02 10 02  ...L............
1050: 80 00 72 10 B4 04 1B 00  03 10 3E 3B 10 02 80 6B  ..r.......>;...k
1060: 10 C3 03 10 1B 00 1C 80  01 72 10 C3 03 10 1B 00  .........r......
1070: 01 80 02 02 10 24 80 00  98 10 B4 04 1F 00 03 10  .....$..........
1080: 3E 3B 10 24 80 91 10 C3  03 10 1F 00 1C 80 01 98  >;.$............
1090: 10 C3 03 10 1F 00 01 80  02 02 10 44 80 00 BE 10  ...........D....
10A0: B4 04 23 00 03 10 3E 3B  10 44 80 B7 10 C3 03 10  ..#...>;.D......
10B0: 23 00 1C 80 01 BE 10 C3  03 10 23 00 01 80 02 02  #.........#.....
10C0: 10 3E 80 00 E4 10 B4 04  27 00 03 10 3E 3B 10 3E  .>......'...>;.>
10D0: 80 DD 10 C3 03 10 27 00  1C 80 01 E4 10 C3 03 10  ......'.........
10E0: 27 00 01 80 02 02 10 3F  80 00 0A 11 B4 04 2B 00  '......?......+.
10F0: 03 10 3E 3B 10 3F 80 03  11 C3 03 10 2B 00 1C 80  ..>;.?......+...
1100: 01 0A 11 C3 03 10 2B 00  01 80 02 02 10 35 80 00  ......+......5..
1110: 30 11 B4 04 2F 00 03 10  3E 3B 10 35 80 29 11 C3  0.../...>;.5.)..
1120: 03 10 2F 00 1C 80 01 30  11 C3 03 10 2F 00 01 80  ../....0..../...
1130: 1B BF 40 01 80 02 10 01  80 00 00 BF 40 01 80 02  ..@.........@...
1140: 10 1C 80 01 00 03 02 00  03 10 41 01 80 24 80 00  ..........A..$..
1150: 00 02 10 41 01 80 24 80  01 00 05 00 08 05 00 02  ...A..$.........
1160: 10 07 05 00 05 80 41 44  80 35 80 00 00 02 10 41  ......AD.5.....A
1170: 44 80 35 80 01 00 06 00  08 06 00 02 10 07 06 00  D.5.............
1180: 05 80 41 00 80 08 80 00  00 02 10 41 00 80 08 80  ..A........A....
1190: 01 00 07 00 08 07 00 02  10 07 07 00 05 80 41 0E  ..............A.
11A0: 80 05 80 00 00 02 10 41  0E 80 05 80 01 00 08 00  .......A........
11B0: 08 08 00 02 10 07 08 00  05 80 41 43 80 4A 80 00  ..........AC.J..
11C0: 00 02 10 41 43 80 4A 80  01 00 09 00 08 09 00 02  ...AC.J.........
11D0: 10 07 09 00 05 80 41 49  80 3A 80 00 00 02 10 41  ......AI.:.....A
11E0: 49 80 3A 80 01 00 0A 00  08 0A 00 02 10 07 0A 00  I.:.............
11F0: 05 80 41 47 80 48 80 00  00 02 10 41 47 80 48 80  ..AG.H.....AG.H.
1200: 01 00 0B 00 08 0B 00 02  10 07 0B 00 05 80 41 45  ..............AE
1210: 80 46 80 00 00 02 10 41  45 80 46 80 01 00 0C 00  .F.....AE.F.....
1220: 08 0C 00 02 10 07 0C 00  05 80 06 03 00 03 02 10  ................
1230: 05 00 15 02 10 02 80 40  01 80 24 80 03 00 02 10  .......@..$.....
1240: 03 02 10 06 00 15 02 10  02 80 40 44 80 35 80 03  ..........@D.5..
1250: 00 02 10 03 02 10 07 00  15 02 10 02 80 40 00 80  .............@..
1260: 08 80 03 00 02 10 03 02  10 08 00 15 02 10 02 80  ................
1270: 40 0E 80 05 80 03 00 02  10 03 02 10 09 00 15 02  @...............
1280: 10 02 80 40 43 80 4A 80  03 00 02 10 03 02 10 0A  ...@C.J.........
1290: 00 15 02 10 02 80 40 49  80 3A 80 03 00 02 10 03  ......@I.:......
12A0: 02 10 0B 00 15 02 10 02  80 40 47 80 48 80 03 00  .........@G.H...
12B0: 02 10 03 02 10 0C 00 15  02 10 02 80 40 45 80 46  ............@E.F
12C0: 80 03 00 02 10 03 01 17  03 00 02 02 00 01 80 00  ................
12D0: 51 13 03 04 00 42 80 06  0C 17 06 0D 17 02 0C 17  Q....B..........
12E0: 43 80 03 4E 13 06 00 17  02 00 17 34 10 03 3B 13  C..N.......4..;.
12F0: 03 0D 00 00 17 14 0D 00  44 80 03 0E 00 0D 00 07  ........D.......
1300: 0E 00 24 80 41 0D 00 0E  00 01 17 02 17 02 02 17  ..$.A...........
1310: 0C 17 00 35 13 03 0F 00  0D 17 14 0F 00 44 80 03  ...5.........D..
1320: 10 00 0F 00 07 10 00 24  80 40 0F 00 10 00 03 00  .......$.@......
1330: 02 17 0B 0D 17 0B 00 17  01 E8 12 0B 0C 17 02 0D  ................
1340: 17 35 80 02 4B 13 03 0C  17 43 80 01 DD 12 01 CF  .5..K....C......
1350: 13 03 04 00 42 80 03 0C  17 05 80 06 0D 17 02 0C  ....B...........
1360: 17 01 80 04 CF 13 06 00  17 02 00 17 34 10 03 BC  ............4...
1370: 13 03 0D 00 00 17 14 0D  00 44 80 03 0E 00 0D 00  .........D......
1380: 07 0E 00 24 80 41 0D 00  0E 00 01 17 02 17 02 02  ...$.A..........
1390: 17 0C 17 00 B6 13 03 0F  00 0D 17 14 0F 00 44 80  ..............D.
13A0: 03 10 00 0F 00 07 10 00  24 80 40 0F 00 10 00 03  ........$.@.....
13B0: 00 02 17 0B 0D 17 0B 00  17 01 69 13 0C 0C 17 02  ..........i.....
13C0: 0D 17 35 80 02 CC 13 03  0C 17 42 80 01 5E 13 03  ..5.......B..^..
13D0: 02 10 03 00 03 03 10 04  00 1B 03 46 00 02 10 02  ...........F....
13E0: 46 00 00 80 02 EB 13 1B  01 F4 13 02 46 00 1C 80  F...........F...
13F0: 03 F4 13 1B 08 46 00 1C  80 06 47 00 06 48 00 02  .....F....G..H..
1400: 47 00 01 80 00 43 14 03  44 00 44 80 14 44 00 48  G....C..D.D..D.H
1410: 00 03 45 00 44 00 07 45  00 24 80 41 44 00 45 00  ..E.D..E.$.AD.E.
1420: 25 10 49 00 02 46 00 49  00 00 32 14 05 47 00 01  %.I..F.I..2..G..
1430: 40 14 0B 48 00 02 48 00  00 80 04 40 14 05 47 00  @..H..H....@..G.
1440: 01 FF 13 02 48 00 01 80  00 69 14 B4 04 13 00 01  ....H....i......
1450: 80 3E 3B 10 01 80 62 14  C3 01 80 13 00 1C 80 01  .>;...b.........
1460: 69 14 C3 01 80 13 00 01  80 02 48 00 1C 80 00 8F  i.........H.....
1470: 14 B4 04 17 00 01 80 3E  3B 10 1C 80 88 14 C3 01  .......>;.......
1480: 80 17 00 1C 80 01 8F 14  C3 01 80 17 00 01 80 02  ................
1490: 48 00 02 80 00 B5 14 B4  04 1B 00 01 80 3E 3B 10  H............>;.
14A0: 02 80 AE 14 C3 01 80 1B  00 1C 80 01 B5 14 C3 01  ................
14B0: 80 1B 00 01 80 02 48 00  24 80 00 DB 14 B4 04 1F  ......H.$.......
14C0: 00 01 80 3E 3B 10 24 80  D4 14 C3 01 80 1F 00 1C  ...>;.$.........
14D0: 80 01 DB 14 C3 01 80 1F  00 01 80 02 48 00 44 80  ............H.D.
14E0: 00 01 15 B4 04 23 00 01  80 3E 3B 10 44 80 FA 14  .....#...>;.D...
14F0: C3 01 80 23 00 1C 80 01  01 15 C3 01 80 23 00 01  ...#.........#..
1500: 80 02 48 00 3E 80 00 27  15 B4 04 27 00 01 80 3E  ..H.>..'...'...>
1510: 3B 10 3E 80 20 15 C3 01  80 27 00 1C 80 01 27 15  ;.>. ....'....'.
1520: C3 01 80 27 00 01 80 02  48 00 3F 80 00 4D 15 B4  ...'....H.?..M..
1530: 04 2B 00 01 80 3E 3B 10  3F 80 46 15 C3 01 80 2B  .+...>;.?.F....+
1540: 00 1C 80 01 4D 15 C3 01  80 2B 00 01 80 02 48 00  ....M....+....H.
1550: 35 80 00 73 15 B4 04 2F  00 01 80 3E 3B 10 35 80  5..s.../...>;.5.
1560: 6C 15 C3 01 80 2F 00 1C  80 01 73 15 C3 01 80 2F  l..../....s..../
1570: 00 01 80 1B                                       ....            
```

#### Opcodes

```
  0: 0x0DE2 [0x03] ExtData[1]->WorkLocal[17] = Work_Zone[41]
  1: 0x0DE7 [0x03] ExtData[1]->WorkLocal[18] = 0*
  2: 0x0DEC [0x1A] CALL_SUBROUTINE(address=0x0DF6)
  3: 0x0DEF [0x48] [System] [9080*]:
    → "$0/$1/$2/$3 $4/$5/$6/$7"
  4: 0x0DF2 [0x48] [System] [9068*]:
    → "%0 %1 %2 %3"
  5: 0x0DF5 [0x00] END_REQSTACK()

SUBROUTINE_0DF6:
  6: 0x0DF6 [0xBF] CHOCOBO_RACING_PARAMETER_GETTER(param_type=0x40)
  7: 0x0DF8 [0x01] GOTO 0x1180

SUBROUTINE_12DD:
  8: 0x12DD [0x02] IF !(Work_Zone_1700[12] >= 16*) GOTO 0x134E
  9: 0x12E5 [0x06] Work_Zone_1700[0] = 0

SUBROUTINE_12E8:
 10: 0x12E8 [0x02] IF !(Work_Zone_1700[0] >= Work_Zone[52]) GOTO 0x133B
 11: 0x12F0 [0x03] ExtData[1]->WorkLocal[13] = Work_Zone_1700[0]
 12: 0x12F5 [0x14] ExtData[1]->WorkLocal[13] *= 4*
 13: 0x12FA [0x03] ExtData[1]->WorkLocal[14] = ExtData[1]->WorkLocal[13]
 14: 0x12FF [0x07] ExtData[1]->WorkLocal[14] += 3*
 15: 0x1304 [0x41] Work_Zone_1700[2] = Work_Zone_1700[1] (bits ExtData[1]->WorkLocal[13]-ExtData[1]->WorkLocal[14])
 16: 0x130D [0x02] IF !(Work_Zone_1700[2] == Work_Zone_1700[12]) GOTO 0x1335
 17: 0x1315 [0x03] ExtData[1]->WorkLocal[15] = Work_Zone_1700[13]
 18: 0x131A [0x14] ExtData[1]->WorkLocal[15] *= 4*
 19: 0x131F [0x03] ExtData[1]->WorkLocal[16] = ExtData[1]->WorkLocal[15]
 20: 0x1324 [0x07] ExtData[1]->WorkLocal[16] += 3*
 21: 0x1329 [0x40] SET_BIT_WORK_RANGE(start_bit=ExtData[1]->WorkLocal[15], end_bit=ExtData[1]->WorkLocal[16], target=ExtData[1]->WorkLocal[3], source=Work_Zone_1700[2])
 22: 0x1332 [0x0B] Work_Zone_1700[13]++
 23: 0x1335 [0x0B] Work_Zone_1700[0]++
 24: 0x1338 [0x01] GOTO 0x12E8
 25: 0x133B [0x0B] Work_Zone_1700[12]++
 26: 0x133E [0x02] IF !(Work_Zone_1700[13] <= 7*) GOTO 0x134B
 27: 0x1346 [0x03] Work_Zone_1700[12] = 16*
 28: 0x134B [0x01] GOTO 0x12DD
 29: 0x134E [0x01] GOTO 0x13CF
 30: 0x1351 [0x03] ExtData[1]->WorkLocal[4] = 4294967295*
 31: 0x1356 [0x03] Work_Zone_1700[12] = 15*
 32: 0x135B [0x06] Work_Zone_1700[13] = 0

SUBROUTINE_135E:
 33: 0x135E [0x02] IF !(Work_Zone_1700[12] < 0*) GOTO 0x13CF
 34: 0x1366 [0x06] Work_Zone_1700[0] = 0

SUBROUTINE_1369:
 35: 0x1369 [0x02] IF !(Work_Zone_1700[0] >= Work_Zone[52]) GOTO 0x13BC
 36: 0x1371 [0x03] ExtData[1]->WorkLocal[13] = Work_Zone_1700[0]
 37: 0x1376 [0x14] ExtData[1]->WorkLocal[13] *= 4*
 38: 0x137B [0x03] ExtData[1]->WorkLocal[14] = ExtData[1]->WorkLocal[13]
 39: 0x1380 [0x07] ExtData[1]->WorkLocal[14] += 3*
 40: 0x1385 [0x41] Work_Zone_1700[2] = Work_Zone_1700[1] (bits ExtData[1]->WorkLocal[13]-ExtData[1]->WorkLocal[14])
 41: 0x138E [0x02] IF !(Work_Zone_1700[2] == Work_Zone_1700[12]) GOTO 0x13B6
 42: 0x1396 [0x03] ExtData[1]->WorkLocal[15] = Work_Zone_1700[13]
 43: 0x139B [0x14] ExtData[1]->WorkLocal[15] *= 4*
 44: 0x13A0 [0x03] ExtData[1]->WorkLocal[16] = ExtData[1]->WorkLocal[15]
 45: 0x13A5 [0x07] ExtData[1]->WorkLocal[16] += 3*
 46: 0x13AA [0x40] SET_BIT_WORK_RANGE(start_bit=ExtData[1]->WorkLocal[15], end_bit=ExtData[1]->WorkLocal[16], target=ExtData[1]->WorkLocal[3], source=Work_Zone_1700[2])
 47: 0x13B3 [0x0B] Work_Zone_1700[13]++
 48: 0x13B6 [0x0B] Work_Zone_1700[0]++
 49: 0x13B9 [0x01] GOTO 0x1369
 50: 0x13BC [0x0C] Work_Zone_1700[12]--
 51: 0x13BF [0x02] IF !(Work_Zone_1700[13] <= 7*) GOTO 0x13CC
 52: 0x13C7 [0x03] Work_Zone_1700[12] = 4294967295*
 53: 0x13CC [0x01] GOTO 0x135E

SUBROUTINE_13CF:
 54: 0x13CF [0x03] Work_Zone[2] = ExtData[1]->WorkLocal[3]
 55: 0x13D4 [0x03] Work_Zone[3] = ExtData[1]->WorkLocal[4]
 56: 0x13D9 [0x1B] RETURN
```

#### Data or dead code:

```
# Dead code (unreachable instructions):
     0x0DFB [0x00] END_REQSTACK()
     0x0DFC [0x01] GOTO 0x0080
     0x0DFF [0x00] END_REQSTACK()
     0x0E00 [0x02] IF !(ExtData[1]->WorkLocal[18] == 0*) GOTO 0x0EB0
     0x0E08 [0x03] ExtData[1]->WorkLocal[60] = 4294967295*
     0x0E0D [0x06] ExtData[1]->WorkLocal[57] = 0
     0x0E10 [0x06] ExtData[1]->WorkLocal[58] = 0
     0x0E13 [0x06] ExtData[1]->WorkLocal[62] = 0
     0x0E16 [0x06] ExtData[1]->WorkLocal[3] = 0
     0x0E19 [0x02] IF !(ExtData[1]->WorkLocal[57] >= 16*) GOTO 0x0EAD
     0x0E21 [0x06] ExtData[1]->WorkLocal[59] = 0
     0x0E24 [0x06] ExtData[1]->WorkLocal[61] = 0
     0x0E27 [0x02] IF !(ExtData[1]->WorkLocal[59] >= Work_Zone[52]) GOTO 0x0E7D
     0x0E2F [0x03] ExtData[1]->WorkLocal[13] = ExtData[1]->WorkLocal[59]
     0x0E34 [0x14] ExtData[1]->WorkLocal[13] *= 4*
     0x0E39 [0x03] ExtData[1]->WorkLocal[14] = ExtData[1]->WorkLocal[13]
     0x0E3E [0x07] ExtData[1]->WorkLocal[14] += 3*
     0x0E43 [0x41] ExtData[1]->WorkLocal[63] = ExtData[1]->WorkLocal[0] (bits ExtData[1]->WorkLocal[13]-ExtData[1]->WorkLocal[14])
     0x0E4C [0x02] IF !(ExtData[1]->WorkLocal[63] == ExtData[1]->WorkLocal[57]) GOTO 0x0E77
     0x0E54 [0x03] ExtData[1]->WorkLocal[15] = ExtData[1]->WorkLocal[58]
     0x0E59 [0x14] ExtData[1]->WorkLocal[15] *= 4*
     0x0E5E [0x03] ExtData[1]->WorkLocal[16] = ExtData[1]->WorkLocal[15]
     0x0E63 [0x07] ExtData[1]->WorkLocal[16] += 3*
     0x0E68 [0x40] SET_BIT_WORK_RANGE(start_bit=ExtData[1]->WorkLocal[15], end_bit=ExtData[1]->WorkLocal[16], target=ExtData[1]->WorkLocal[60], source=ExtData[1]->WorkLocal[59])
     0x0E71 [0x0B] ExtData[1]->WorkLocal[58]++
     0x0E74 [0x0B] ExtData[1]->WorkLocal[61]++
     0x0E77 [0x0B] ExtData[1]->WorkLocal[59]++
     0x0E7A [0x01] GOTO 0x0E27
     0x0E7D [0x02] IF !(ExtData[1]->WorkLocal[61] <= 0*) GOTO 0x0EA7
     0x0E85 [0x03] ExtData[1]->WorkLocal[15] = ExtData[1]->WorkLocal[62]
     0x0E8A [0x14] ExtData[1]->WorkLocal[15] *= 4*
     0x0E8F [0x03] ExtData[1]->WorkLocal[16] = ExtData[1]->WorkLocal[15]
     0x0E94 [0x07] ExtData[1]->WorkLocal[16] += 3*
     0x0E99 [0x40] SET_BIT_WORK_RANGE(start_bit=ExtData[1]->WorkLocal[15], end_bit=ExtData[1]->WorkLocal[16], target=ExtData[1]->WorkLocal[3], source=ExtData[1]->WorkLocal[61])
     0x0EA2 [0x07] ExtData[1]->WorkLocal[62] += ExtData[1]->WorkLocal[61]
     0x0EA7 [0x0B] ExtData[1]->WorkLocal[57]++
     0x0EAA [0x01] GOTO 0x0E19
     0x0EAD [0x01] GOTO 0x0F57
     0x0EB0 [0x03] ExtData[1]->WorkLocal[60] = 4294967295*
     0x0EB5 [0x03] ExtData[1]->WorkLocal[57] = 15*
     0x0EBA [0x06] ExtData[1]->WorkLocal[58] = 0
     0x0EBD [0x06] ExtData[1]->WorkLocal[62] = 0
     0x0EC0 [0x06] ExtData[1]->WorkLocal[3] = 0
     0x0EC3 [0x02] IF !(ExtData[1]->WorkLocal[57] < 0*) GOTO 0x0F57
     0x0ECB [0x06] ExtData[1]->WorkLocal[59] = 0
     0x0ECE [0x06] ExtData[1]->WorkLocal[61] = 0
     0x0ED1 [0x02] IF !(ExtData[1]->WorkLocal[59] >= Work_Zone[52]) GOTO 0x0F27
     0x0ED9 [0x03] ExtData[1]->WorkLocal[13] = ExtData[1]->WorkLocal[59]
     0x0EDE [0x14] ExtData[1]->WorkLocal[13] *= 4*
     0x0EE3 [0x03] ExtData[1]->WorkLocal[14] = ExtData[1]->WorkLocal[13]
     0x0EE8 [0x07] ExtData[1]->WorkLocal[14] += 3*
     0x0EED [0x41] ExtData[1]->WorkLocal[63] = ExtData[1]->WorkLocal[0] (bits ExtData[1]->WorkLocal[13]-ExtData[1]->WorkLocal[14])
     0x0EF6 [0x02] IF !(ExtData[1]->WorkLocal[63] == ExtData[1]->WorkLocal[57]) GOTO 0x0F21
     0x0EFE [0x03] ExtData[1]->WorkLocal[15] = ExtData[1]->WorkLocal[58]
     0x0F03 [0x14] ExtData[1]->WorkLocal[15] *= 4*
     0x0F08 [0x03] ExtData[1]->WorkLocal[16] = ExtData[1]->WorkLocal[15]
     0x0F0D [0x07] ExtData[1]->WorkLocal[16] += 3*
     0x0F12 [0x40] SET_BIT_WORK_RANGE(start_bit=ExtData[1]->WorkLocal[15], end_bit=ExtData[1]->WorkLocal[16], target=ExtData[1]->WorkLocal[60], source=ExtData[1]->WorkLocal[59])
     0x0F1B [0x0B] ExtData[1]->WorkLocal[58]++
     0x0F1E [0x0B] ExtData[1]->WorkLocal[61]++
     0x0F21 [0x0B] ExtData[1]->WorkLocal[59]++
     0x0F24 [0x01] GOTO 0x0ED1
     0x0F27 [0x02] IF !(ExtData[1]->WorkLocal[61] <= 0*) GOTO 0x0F51
     0x0F2F [0x03] ExtData[1]->WorkLocal[15] = ExtData[1]->WorkLocal[62]
     0x0F34 [0x14] ExtData[1]->WorkLocal[15] *= 4*
     0x0F39 [0x03] ExtData[1]->WorkLocal[16] = ExtData[1]->WorkLocal[15]
     0x0F3E [0x07] ExtData[1]->WorkLocal[16] += 3*
     0x0F43 [0x40] SET_BIT_WORK_RANGE(start_bit=ExtData[1]->WorkLocal[15], end_bit=ExtData[1]->WorkLocal[16], target=ExtData[1]->WorkLocal[3], source=ExtData[1]->WorkLocal[61])
     0x0F4C [0x07] ExtData[1]->WorkLocal[62] += ExtData[1]->WorkLocal[61]
     0x0F51 [0x0C] ExtData[1]->WorkLocal[57]--
     0x0F54 [0x01] GOTO 0x0EC3
     0x0F57 [0x41] Work_Zone[2] = ExtData[1]->WorkLocal[60] (bits 0*-3*)
     0x0F60 [0x03] ExtData[1]->WorkLocal[64] = Work_Zone[2]
     0x0F65 [0x07] ExtData[1]->WorkLocal[64] += 1*
     0x0F6A [0x06] Work_Zone[3] = 0
     0x0F6D [0x1A] CALL_SUBROUTINE(address=0x1000)
     0x0F70 [0x41] Work_Zone[2] = ExtData[1]->WorkLocal[60] (bits 4*-7*)
     0x0F79 [0x03] ExtData[1]->WorkLocal[67] = Work_Zone[2]
     0x0F7E [0x07] ExtData[1]->WorkLocal[67] += 1*
     0x0F83 [0x03] Work_Zone[3] = 1*
     0x0F88 [0x1A] CALL_SUBROUTINE(address=0x1000)
     0x0F8B [0x41] Work_Zone[2] = ExtData[1]->WorkLocal[60] (bits 8*-11*)
     0x0F94 [0x03] Work_Zone[3] = 2*
     0x0F99 [0x1A] CALL_SUBROUTINE(address=0x1000)
     0x0F9C [0x41] Work_Zone[2] = ExtData[1]->WorkLocal[60] (bits 12*-15*)
     0x0FA5 [0x03] ExtData[1]->WorkLocal[65] = Work_Zone[2]
     0x0FAA [0x07] ExtData[1]->WorkLocal[65] += 1*
     0x0FAF [0x03] Work_Zone[3] = 3*
     0x0FB4 [0x1A] CALL_SUBROUTINE(address=0x1000)
     0x0FB7 [0x41] Work_Zone[9] = ExtData[1]->WorkLocal[3] (bits 28*-31*)
     0x0FC0 [0x41] Work_Zone[8] = ExtData[1]->WorkLocal[3] (bits 24*-27*)
     0x0FC9 [0x41] Work_Zone[7] = ExtData[1]->WorkLocal[3] (bits 20*-23*)
     0x0FD2 [0x41] Work_Zone[6] = ExtData[1]->WorkLocal[3] (bits 16*-19*)
     0x0FDB [0x41] Work_Zone[5] = ExtData[1]->WorkLocal[3] (bits 12*-15*)
     0x0FE4 [0x41] Work_Zone[4] = ExtData[1]->WorkLocal[3] (bits 8*-11*)
     0x0FED [0x41] Work_Zone[3] = ExtData[1]->WorkLocal[3] (bits 4*-7*)
     0x0FF6 [0x41] Work_Zone[2] = ExtData[1]->WorkLocal[3] (bits 0*-3*)
     0x0FFF [0x1B] RETURN
     0x1000 [0x02] IF !(Work_Zone[2] == 0*) GOTO 0x1026
     0x1008 [0xB4] UI_WINDOW_STRING_HANDLER(case=0x04 - Copy string to shared buffers, work_offset1=ExtData[1]->WorkLocal[19], work_offset2=Work_Zone[3])
     0x100E [0x3E] IF !(Work_Zone[59] bit 0*) GOTO 0x101F
     0x1015 [0xC3] COPY_STRING_TO_ARRAY(array_index=0x1003, string_value=0x13, additional_value=0x801C)
     0x101C [0x01] GOTO 0x1026
     0x101F [0xC3] COPY_STRING_TO_ARRAY(array_index=0x1003, string_value=0x13, additional_value=0x8001)
     0x1026 [0x02] IF !(Work_Zone[2] == 1*) GOTO 0x104C
     0x102E [0xB4] UI_WINDOW_STRING_HANDLER(case=0x04 - Copy string to shared buffers, work_offset1=ExtData[1]->WorkLocal[23], work_offset2=Work_Zone[3])
     0x1034 [0x3E] IF !(Work_Zone[59] bit 1*) GOTO 0x1045
     0x103B [0xC3] COPY_STRING_TO_ARRAY(array_index=0x1003, string_value=0x17, additional_value=0x801C)
     0x1042 [0x01] GOTO 0x104C
     0x1045 [0xC3] COPY_STRING_TO_ARRAY(array_index=0x1003, string_value=0x17, additional_value=0x8001)
     0x104C [0x02] IF !(Work_Zone[2] == 2*) GOTO 0x1072
     0x1054 [0xB4] UI_WINDOW_STRING_HANDLER(case=0x04 - Copy string to shared buffers, work_offset1=ExtData[1]->WorkLocal[27], work_offset2=Work_Zone[3])
     0x105A [0x3E] IF !(Work_Zone[59] bit 2*) GOTO 0x106B
     0x1061 [0xC3] COPY_STRING_TO_ARRAY(array_index=0x1003, string_value=0x1B, additional_value=0x801C)
     0x1068 [0x01] GOTO 0x1072
     0x106B [0xC3] COPY_STRING_TO_ARRAY(array_index=0x1003, string_value=0x1B, additional_value=0x8001)
     0x1072 [0x02] IF !(Work_Zone[2] == 3*) GOTO 0x1098
     0x107A [0xB4] UI_WINDOW_STRING_HANDLER(case=0x04 - Copy string to shared buffers, work_offset1=ExtData[1]->WorkLocal[31], work_offset2=Work_Zone[3])
     0x1080 [0x3E] IF !(Work_Zone[59] bit 3*) GOTO 0x1091
     0x1087 [0xC3] COPY_STRING_TO_ARRAY(array_index=0x1003, string_value=0x1F, additional_value=0x801C)
     0x108E [0x01] GOTO 0x1098
     0x1091 [0xC3] COPY_STRING_TO_ARRAY(array_index=0x1003, string_value=0x1F, additional_value=0x8001)
     0x1098 [0x02] IF !(Work_Zone[2] == 4*) GOTO 0x10BE
     0x10A0 [0xB4] UI_WINDOW_STRING_HANDLER(case=0x04 - Copy string to shared buffers, work_offset1=ExtData[1]->WorkLocal[35], work_offset2=Work_Zone[3])
     0x10A6 [0x3E] IF !(Work_Zone[59] bit 4*) GOTO 0x10B7
     0x10AD [0xC3] COPY_STRING_TO_ARRAY(array_index=0x1003, string_value=0x23, additional_value=0x801C)
     0x10B4 [0x01] GOTO 0x10BE
     0x10B7 [0xC3] COPY_STRING_TO_ARRAY(array_index=0x1003, string_value=0x23, additional_value=0x8001)
     0x10BE [0x02] IF !(Work_Zone[2] == 5*) GOTO 0x10E4
     0x10C6 [0xB4] UI_WINDOW_STRING_HANDLER(case=0x04 - Copy string to shared buffers, work_offset1=ExtData[1]->WorkLocal[39], work_offset2=Work_Zone[3])
     0x10CC [0x3E] IF !(Work_Zone[59] bit 5*) GOTO 0x10DD
     0x10D3 [0xC3] COPY_STRING_TO_ARRAY(array_index=0x1003, string_value=0x27, additional_value=0x801C)
     0x10DA [0x01] GOTO 0x10E4
     0x10DD [0xC3] COPY_STRING_TO_ARRAY(array_index=0x1003, string_value=0x27, additional_value=0x8001)
     0x10E4 [0x02] IF !(Work_Zone[2] == 6*) GOTO 0x110A
     0x10EC [0xB4] UI_WINDOW_STRING_HANDLER(case=0x04 - Copy string to shared buffers, work_offset1=ExtData[1]->WorkLocal[43], work_offset2=Work_Zone[3])
     0x10F2 [0x3E] IF !(Work_Zone[59] bit 6*) GOTO 0x1103
     0x10F9 [0xC3] COPY_STRING_TO_ARRAY(array_index=0x1003, string_value=0x2B, additional_value=0x801C)
     0x1100 [0x01] GOTO 0x110A
     0x1103 [0xC3] COPY_STRING_TO_ARRAY(array_index=0x1003, string_value=0x2B, additional_value=0x8001)
     0x110A [0x02] IF !(Work_Zone[2] == 7*) GOTO 0x1130
     0x1112 [0xB4] UI_WINDOW_STRING_HANDLER(case=0x04 - Copy string to shared buffers, work_offset1=ExtData[1]->WorkLocal[47], work_offset2=Work_Zone[3])
     0x1118 [0x3E] IF !(Work_Zone[59] bit 7*) GOTO 0x1129
     0x111F [0xC3] COPY_STRING_TO_ARRAY(array_index=0x1003, string_value=0x2F, additional_value=0x801C)
     0x1126 [0x01] GOTO 0x1130
     0x1129 [0xC3] COPY_STRING_TO_ARRAY(array_index=0x1003, string_value=0x2F, additional_value=0x8001)
     0x1130 [0x1B] RETURN
     0x1131 [0xBF] CHOCOBO_RACING_PARAMETER_GETTER(param_type=0x40)
     0x1133 [0x01] GOTO 0x0280
     0x1136 [0x10] 0* <<= ExtData[1]->WorkLocal[0]
     0x113B [0xBF] CHOCOBO_RACING_PARAMETER_GETTER(param_type=0x40)
     0x113D [0x01] GOTO 0x0280
     0x1140 [0x10] 1* <<= ExtData[1]->WorkLocal[1]
     0x1145 [0x03] ExtData[1]->WorkLocal[2] = Work_Zone[3]
     0x114A [0x41] Work_Zone[2] = ExtData[1]->WorkLocal[0] (bits 0*-3*)
     0x1153 [0x41] ExtData[1]->WorkLocal[5] = ExtData[1]->WorkLocal[1] (bits 0*-3*)
     0x115C [0x08] ExtData[1]->WorkLocal[5] -= Work_Zone[2]
     0x1161 [0x07] ExtData[1]->WorkLocal[5] += 15*
     0x1166 [0x41] Work_Zone[2] = ExtData[1]->WorkLocal[0] (bits 4*-7*)
     0x116F [0x41] ExtData[1]->WorkLocal[6] = ExtData[1]->WorkLocal[1] (bits 4*-7*)
     0x1178 [0x08] ExtData[1]->WorkLocal[6] -= Work_Zone[2]
     0x117D [0x07] ExtData[1]->WorkLocal[6] += 15*
# Dead code (unreachable instructions):
     0x13DA [0x03] ExtData[1]->WorkLocal[70] = Work_Zone[2]
     0x13DF [0x02] IF !(ExtData[1]->WorkLocal[70] <= 8*) GOTO 0x13EB
     0x13E7 [0x1B] RETURN
     0x13E8 [0x01] GOTO 0x13F4
     0x13EB [0x02] IF !(ExtData[1]->WorkLocal[70] >= 1*) GOTO 0x13F4
     0x13F3 [0x1B] RETURN
     0x13F4 [0x08] ExtData[1]->WorkLocal[70] -= 1*
     0x13F9 [0x06] ExtData[1]->WorkLocal[71] = 0
     0x13FC [0x06] ExtData[1]->WorkLocal[72] = 0
     0x13FF [0x02] IF !(ExtData[1]->WorkLocal[71] == 0*) GOTO 0x1443
     0x1407 [0x03] ExtData[1]->WorkLocal[68] = 4*
     0x140C [0x14] ExtData[1]->WorkLocal[68] *= ExtData[1]->WorkLocal[72]
     0x1411 [0x03] ExtData[1]->WorkLocal[69] = ExtData[1]->WorkLocal[68]
     0x1416 [0x07] ExtData[1]->WorkLocal[69] += 3*
     0x141B [0x41] ExtData[1]->WorkLocal[73] = Work_Zone[37] (bits ExtData[1]->WorkLocal[68]-ExtData[1]->WorkLocal[69])
     0x1424 [0x02] IF !(ExtData[1]->WorkLocal[70] == ExtData[1]->WorkLocal[73]) GOTO 0x1432
     0x142C [0x05] ExtData[1]->WorkLocal[71] = 1
     0x142F [0x01] GOTO 0x1440
     0x1432 [0x0B] ExtData[1]->WorkLocal[72]++
     0x1435 [0x02] IF !(ExtData[1]->WorkLocal[72] < 8*) GOTO 0x1440
     0x143D [0x05] ExtData[1]->WorkLocal[71] = 1
     0x1440 [0x01] GOTO 0x13FF
     0x1443 [0x02] IF !(ExtData[1]->WorkLocal[72] == 0*) GOTO 0x1469
     0x144B [0xB4] UI_WINDOW_STRING_HANDLER(case=0x04 - Copy string to shared buffers, work_offset1=ExtData[1]->WorkLocal[19], work_offset2=0*)
     0x1451 [0x3E] IF !(Work_Zone[59] bit 0*) GOTO 0x1462
     0x1458 [0xC3] COPY_STRING_TO_ARRAY(array_index=0x8001, string_value=0x13, additional_value=0x801C)
     0x145F [0x01] GOTO 0x1469
     0x1462 [0xC3] COPY_STRING_TO_ARRAY(array_index=0x8001, string_value=0x13, additional_value=0x8001)
     0x1469 [0x02] IF !(ExtData[1]->WorkLocal[72] == 1*) GOTO 0x148F
     0x1471 [0xB4] UI_WINDOW_STRING_HANDLER(case=0x04 - Copy string to shared buffers, work_offset1=ExtData[1]->WorkLocal[23], work_offset2=0*)
     0x1477 [0x3E] IF !(Work_Zone[59] bit 1*) GOTO 0x1488
     0x147E [0xC3] COPY_STRING_TO_ARRAY(array_index=0x8001, string_value=0x17, additional_value=0x801C)
     0x1485 [0x01] GOTO 0x148F
     0x1488 [0xC3] COPY_STRING_TO_ARRAY(array_index=0x8001, string_value=0x17, additional_value=0x8001)
     0x148F [0x02] IF !(ExtData[1]->WorkLocal[72] == 2*) GOTO 0x14B5
     0x1497 [0xB4] UI_WINDOW_STRING_HANDLER(case=0x04 - Copy string to shared buffers, work_offset1=ExtData[1]->WorkLocal[27], work_offset2=0*)
     0x149D [0x3E] IF !(Work_Zone[59] bit 2*) GOTO 0x14AE
     0x14A4 [0xC3] COPY_STRING_TO_ARRAY(array_index=0x8001, string_value=0x1B, additional_value=0x801C)
     0x14AB [0x01] GOTO 0x14B5
     0x14AE [0xC3] COPY_STRING_TO_ARRAY(array_index=0x8001, string_value=0x1B, additional_value=0x8001)
     0x14B5 [0x02] IF !(ExtData[1]->WorkLocal[72] == 3*) GOTO 0x14DB
     0x14BD [0xB4] UI_WINDOW_STRING_HANDLER(case=0x04 - Copy string to shared buffers, work_offset1=ExtData[1]->WorkLocal[31], work_offset2=0*)
     0x14C3 [0x3E] IF !(Work_Zone[59] bit 3*) GOTO 0x14D4
     0x14CA [0xC3] COPY_STRING_TO_ARRAY(array_index=0x8001, string_value=0x1F, additional_value=0x801C)
     0x14D1 [0x01] GOTO 0x14DB
     0x14D4 [0xC3] COPY_STRING_TO_ARRAY(array_index=0x8001, string_value=0x1F, additional_value=0x8001)
     0x14DB [0x02] IF !(ExtData[1]->WorkLocal[72] == 4*) GOTO 0x1501
     0x14E3 [0xB4] UI_WINDOW_STRING_HANDLER(case=0x04 - Copy string to shared buffers, work_offset1=ExtData[1]->WorkLocal[35], work_offset2=0*)
     0x14E9 [0x3E] IF !(Work_Zone[59] bit 4*) GOTO 0x14FA
