# 17064058

## Common Data

| Field            | Value                    |
|------------------|--------------------------|
| Zone             | Chocobo Circuit (ID: 70) |
| Block Size       | 13100 bytes              |
| Total Events     | 15                       |
| References Count | 248                      |

## List of Events

| Event ID                   | Entrypoint   |   Size |   Instructions |
|----------------------------|--------------|--------|----------------|
| [65535](#event-65535)      | 0x0000       |      1 |              1 |
| [210](#event-210)          | 0x0001       |      1 |              1 |
| [65535.1](#event-655351)   | 0x0002       |   2671 |            422 |
| [65535.2](#event-655352)   | 0x0A71       |    300 |             38 |
| [65535.3](#event-655353)   | 0x0B9D       |     76 |             17 |
| [65535.4](#event-655354)   | 0x0BE9       |     76 |             17 |
| [65535.5](#event-655355)   | 0x0C35       |    111 |             25 |
| [65535.6](#event-655356)   | 0x0CA4       |    111 |             25 |
| [65535.7](#event-655357)   | 0x0D13       |    142 |             30 |
| [65535.8](#event-655358)   | 0x0DA1       |    147 |             31 |
| [65535.9](#event-655359)   | 0x0E34       |    267 |             50 |
| [65535.10](#event-6553510) | 0x0F3F       |   1320 |            145 |
| [65535.11](#event-6553511) | 0x1467       |     80 |             10 |
| [65535.12](#event-6553512) | 0x14B7       |   1070 |            154 |
| [65535.13](#event-6553513) | 0x18E5       |   5657 |            821 |

## DAT References (imed_data)

|   Index | Hex Value   |   Dec Value |
|---------|-------------|-------------|
|       0 | 0x0040      |          64 |
|       1 | 0x0078      |         120 |
|       2 | 0x0000      |           0 |
|       3 | 0x001E      |          30 |
|       4 | 0x000F      |          15 |
|       5 | 0x00C8      |         200 |
|       6 | 0x0004      |           4 |
|       7 | 0x0005      |           5 |
|       8 | 0x0008      |           8 |
|       9 | 0x001F      |          31 |
|      10 | 0x0001      |           1 |
|      11 | 0xFFFE8A6B  |  4294871659 |
|      12 | 0xFFFECFEA  |  4294889450 |
|      13 | 0x07FB      |        2043 |
|      14 | 0xFFFF19B2  |  4294908338 |
|      15 | 0xFFFE8B60  |  4294871904 |
|      16 | 0xFFFFEE6C  |  4294962796 |
|      17 | 0x0BF7      |        3063 |
|      18 | 0xFFFEF0A4  |  4294897828 |
|      19 | 0xFFFE8E11  |  4294872593 |
|      20 | 0x0C7B      |        3195 |
|      21 | 0xFFFEF3EC  |  4294898668 |
|      22 | 0xFFFE83E8  |  4294869992 |
|      23 | 0x0CD4      |        3284 |
|      24 | 0xFFFEFCD2  |  4294900946 |
|      25 | 0xFFFE8988  |  4294871432 |
|      26 | 0xFFFFEE6D  |  4294962797 |
|      27 | 0xFFFEF691  |  4294899345 |
|      28 | 0xFFFE88FE  |  4294871294 |
|      29 | 0x0C96      |        3222 |
|      30 | 0xFFFEFD54  |  4294901076 |
|      31 | 0xFFFE8446  |  4294870086 |
|      32 | 0x0020      |          32 |
|      33 | 0x0021      |          33 |
|      34 | 0x0007      |           7 |
|      35 | 0x0010      |          16 |
|      36 | 0x0017      |          23 |
|      37 | 0x0018      |          24 |
|      38 | 0x0002      |           2 |
|      39 | 0x00BF      |         191 |
|      40 | 0x0014      |          20 |
|      41 | 0x001C      |          28 |
|      42 | 0x0003      |           3 |
|      43 | 0x0006      |           6 |
|      44 | 0x0011      |          17 |
|      45 | 0x00B0      |         176 |
|      46 | 0x0009      |           9 |
|      47 | 0x0955      |        2389 |
|      48 | 0x228A      |        8842 |
|      49 | 0x003C      |          60 |
|      50 | 0x228C      |        8844 |
|      51 | 0x0956      |        2390 |
|      52 | 0x228D      |        8845 |
|      53 | 0x0957      |        2391 |
|      54 | 0x228E      |        8846 |
|      55 | 0x0958      |        2392 |
|      56 | 0x228F      |        8847 |
|      57 | 0x2297      |        8855 |
|      58 | 0x0959      |        2393 |
|      59 | 0x2290      |        8848 |
|      60 | 0x095A      |        2394 |
|      61 | 0x2292      |        8850 |
|      62 | 0x2291      |        8849 |
|      63 | 0x2298      |        8856 |
|      64 | 0x095B      |        2395 |
|      65 | 0x2294      |        8852 |
|      66 | 0x2293      |        8851 |
|      67 | 0x095C      |        2396 |
|      68 | 0x2295      |        8853 |
|      69 | 0x095D      |        2397 |
|      70 | 0x2296      |        8854 |
|      71 | 0x001A      |          26 |
|      72 | 0x001B      |          27 |
|      73 | 0x0016      |          22 |
|      74 | 0x2279      |        8825 |
|      75 | 0x005A      |          90 |
|      76 | 0x227E      |        8830 |
|      77 | 0x227F      |        8831 |
|      78 | 0xFFFEA363  |  4294878051 |
|      79 | 0xFFFEDAAB  |  4294892203 |
|      80 | 0x0867      |        2151 |
|      81 | 0xFFFEAB25  |  4294880037 |
|      82 | 0xFFFED527  |  4294890791 |
|      83 | 0x082F      |        2095 |
|      84 | 0xFFFEACAD  |  4294880429 |
|      85 | 0xFFFECEBD  |  4294889149 |
|      86 | 0x080D      |        2061 |
|      87 | 0xFFFEAA2B  |  4294879787 |
|      88 | 0xFFFEC9B8  |  4294887864 |
|      89 | 0x089F      |        2207 |
|      90 | 0xFFFEAFDA  |  4294881242 |
|      91 | 0xFFFEC3E1  |  4294886369 |
|      92 | 0x07F3      |        2035 |
|      93 | 0xFFFEB03B  |  4294881339 |
|      94 | 0xFFFEBE96  |  4294885014 |
|      95 | 0x0804      |        2052 |
|      96 | 0xFFFEB074  |  4294881396 |
|      97 | 0xFFFEB847  |  4294883399 |
|      98 | 0xFFFEAA85  |  4294879877 |
|      99 | 0xFFFEB223  |  4294881827 |
|     100 | 0x0883      |        2179 |
|     101 | 0xFFFF13B5  |  4294906805 |
|     102 | 0xFFFE8B86  |  4294871942 |
|     103 | 0x0C24      |        3108 |
|     104 | 0xFFFF1604  |  4294907396 |
|     105 | 0xFFFE9379  |  4294873977 |
|     106 | 0xFFFFEA85  |  4294961797 |
|     107 | 0x00C0      |         192 |
|     108 | 0x03E7      |         999 |
|     109 | 0x0042      |          66 |
|     110 | 0x01F4      |         500 |
|     111 | 0x001D      |          29 |
|     112 | 0x0027      |          39 |
|     113 | 0x0029      |          41 |
|     114 | 0x0028      |          40 |
|     115 | 0x0036      |          54 |
|     116 | 0x0038      |          56 |
|     117 | 0x0037      |          55 |
|     118 | 0x0258      |         600 |
|     119 | 0x007F      |         127 |
|     120 | 0x0045      |          69 |
|     121 | 0x2236      |        8758 |
|     122 | 0x0A41      |        2625 |
|     123 | 0x2237      |        8759 |
|     124 | 0x2238      |        8760 |
|     125 | 0x2239      |        8761 |
|     126 | 0x0368      |         872 |
|     127 | 0x00E0      |         224 |
|     128 | 0x223A      |        8762 |
|     129 | 0x223B      |        8763 |
|     130 | 0x000B      |          11 |
|     131 | 0x223C      |        8764 |
|     132 | 0x223D      |        8765 |
|     133 | 0x223E      |        8766 |
|     134 | 0x0096      |         150 |
|     135 | 0x221B      |        8731 |
|     136 | 0x2385      |        9093 |
|     137 | 0x223F      |        8767 |
|     138 | 0x002A      |          42 |
|     139 | 0x00B1      |         177 |
|     140 | 0x22B2      |        8882 |
|     141 | 0x22B3      |        8883 |
|     142 | 0x22B4      |        8884 |
|     143 | 0x22B5      |        8885 |
|     144 | 0x0019      |          25 |
|     145 | 0x00F0      |         240 |
|     146 | 0x22B6      |        8886 |
|     147 | 0x22B7      |        8887 |
|     148 | 0x22B8      |        8888 |
|     149 | 0x22B9      |        8889 |
|     150 | 0xFFFF2793  |  4294911891 |
|     151 | 0xFFFECDE8  |  4294888936 |
|     152 | 0x03EC      |        1004 |
|     153 | 0xFFFF1F35  |  4294909749 |
|     154 | 0xFFFED2A5  |  4294890149 |
|     155 | 0xFFFF2465  |  4294911077 |
|     156 | 0xFFFEB96A  |  4294883690 |
|     157 | 0x0C1D      |        3101 |
|     158 | 0xFFFF1B47  |  4294908743 |
|     159 | 0xFFFEB956  |  4294883670 |
|     160 | 0xFFFF1F31  |  4294909745 |
|     161 | 0xFFFEBE47  |  4294884935 |
|     162 | 0x22BA      |        8890 |
|     163 | 0x00DE      |         222 |
|     164 | 0x000A      |          10 |
|     165 | 0x22BB      |        8891 |
|     166 | 0x22BE      |        8894 |
|     167 | 0x22BF      |        8895 |
|     168 | 0x22C0      |        8896 |
|     169 | 0x221D      |        8733 |
|     170 | 0x22C1      |        8897 |
|     171 | 0x22C2      |        8898 |
|     172 | 0x002C      |          44 |
|     173 | 0x00B4      |         180 |
|     174 | 0x0112      |         274 |
|     175 | 0x0212      |         530 |
|     176 | 0x0023      |          35 |
|     177 | 0x002D      |          45 |
|     178 | 0x0032      |          50 |
|     179 | 0x0064      |         100 |
|     180 | 0x03E8      |        1000 |
|     181 | 0x05DC      |        1500 |
|     182 | 0x0BB8      |        3000 |
|     183 | 0x1388      |        5000 |
|     184 | 0x157C      |        5500 |
|     185 | 0x1770      |        6000 |
|     186 | 0x1964      |        6500 |
|     187 | 0x1B58      |        7000 |
|     188 | 0x1D4C      |        7500 |
|     189 | 0x1F40      |        8000 |
|     190 | 0x2134      |        8500 |
|     191 | 0x2328      |        9000 |
|     192 | 0x2710      |       10000 |
|     193 | 0x0041      |          65 |
|     194 | 0x0046      |          70 |
|     195 | 0x004B      |          75 |
|     196 | 0x0050      |          80 |
|     197 | 0x0055      |          85 |
|     198 | 0x000E      |          14 |
|     199 | 0x012C      |         300 |
|     200 | 0x0190      |         400 |
|     201 | 0x0320      |         800 |
|     202 | 0x07D0      |        2000 |
|     203 | 0x09C4      |        2500 |
|     204 | 0x0DAC      |        3500 |
|     205 | 0x0FA0      |        4000 |
|     206 | 0x1194      |        4500 |
|     207 | 0x251C      |        9500 |
|     208 | 0x2AF8      |       11000 |
|     209 | 0x2EE0      |       12000 |
|     210 | 0x32C8      |       13000 |
|     211 | 0x36B0      |       14000 |
|     212 | 0x3A98      |       15000 |
|     213 | 0x3E80      |       16000 |
|     214 | 0x4268      |       17000 |
|     215 | 0x4650      |       18000 |
|     216 | 0x4A38      |       19000 |
|     217 | 0x4E20      |       20000 |
|     218 | 0x55F0      |       22000 |
|     219 | 0x5DC0      |       24000 |
|     220 | 0x6590      |       26000 |
|     221 | 0x6D60      |       28000 |
|     222 | 0x7530      |       30000 |
|     223 | 0x7D00      |       32000 |
|     224 | 0x84D0      |       34000 |
|     225 | 0x8CA0      |       36000 |
|     226 | 0x9470      |       38000 |
|     227 | 0x9C40      |       40000 |
|     228 | 0xA410      |       42000 |
|     229 | 0xABE0      |       44000 |
|     230 | 0xB3B0      |       46000 |
|     231 | 0xBB80      |       48000 |
|     232 | 0xC350      |       50000 |
|     233 | 0xD6D8      |       55000 |
|     234 | 0xEA60      |       60000 |
|     235 | 0xFDE8      |       65000 |
|     236 | 0x11170     |       70000 |
|     237 | 0x124F8     |       75000 |
|     238 | 0x13880     |       80000 |
|     239 | 0x14C08     |       85000 |
|     240 | 0x15F90     |       90000 |
|     241 | 0x17318     |       95000 |
|     242 | 0x186A0     |      100000 |
|     243 | 0x095E      |        2398 |
|     244 | 0x095F      |        2399 |
|     245 | 0x0960      |        2400 |
|     246 | 0x0961      |        2401 |
|     247 | 0x00FF      |         255 |

## String References

- **9093**: Entry No. $0 \` %0 \`

## Events

### Event 65535

#### Metadata

| Field        | Value   |
|--------------|---------|
| Entrypoint   | 0x0000  |
| Data Size    | 1 bytes |
| Instructions | 1       |

```
      00 01 02 03 04 05 06 07  08 09 0A 0B 0C 0D 0E 0F
      -- -- -- -- -- -- -- --  -- -- -- -- -- -- -- --
0000: 00                                                .               
```

#### Opcodes

```
  0: 0x0000 [0x00] END_REQSTACK()
```

### Event 210

#### Metadata

| Field        | Value   |
|--------------|---------|
| Entrypoint   | 0x0001  |
| Data Size    | 1 bytes |
| Instructions | 1       |

```
      00 01 02 03 04 05 06 07  08 09 0A 0B 0C 0D 0E 0F
      -- -- -- -- -- -- -- --  -- -- -- -- -- -- -- --
0000:    00                                              .              
```

#### Opcodes

```
  0: 0x0001 [0x00] END_REQSTACK()
```

### Event 65535.1

#### Metadata

| Field        | Value      |
|--------------|------------|
| Entrypoint   | 0x0002     |
| Data Size    | 2671 bytes |
| Instructions | 322        |

```
      00 01 02 03 04 05 06 07  08 09 0A 0B 0C 0D 0E 0F
      -- -- -- -- -- -- -- --  -- -- -- -- -- -- -- --
0000:       5D 00 80 01 80 6A  02 80 03 80 04 80 45 05    ]....j......E.
0010: 80 F8 FF FF 7F F8 FF FF  7F 66 64 6F 30 02 80 55  .........fdo0..U
0020: 05 80 F8 FF FF 7F F8 FF  FF 7F 66 64 6F 30 83 07  ..........fdo0..
0030: 00 AA 07 00 07 00 07 00  07 00 07 00 09 00 07 00  ................
0040: 07 00 BF 00 02 80 02 80  07 00 41 02 80 06 80 07  ..........A.....
0050: 00 34 10 41 07 80 08 80  07 00 06 00 03 2E 10 02  .4.A............
0060: 80 03 2F 10 09 80 1C 0A  80 02 06 00 0A 80 00 83  ../.............
0070: 00 03 31 00 02 80 03 06  00 02 80 77 09 00 02 80  ..1........w....
0080: 01 8D 00 03 31 00 06 00  77 09 00 06 00 1C 0A 80  ....1...w.......
0090: AB 09 2F 00 26 60 04 01  4E 00 26 60 04 01 BA 26  ../.&`..N.&`...&
00A0: 60 04 01 0B 80 0C 80 02  80 0D 80 80 26 60 04 01  `...........&`..
00B0: 27 05 26 60 04 01 06 2F  00 19 60 04 01 4E 00 19  '.&`.../..`..N..
00C0: 60 04 01 BA 19 60 04 01  0E 80 0F 80 10 80 11 80  `....`..........
00D0: 80 19 60 04 01 92 01 19  60 04 01 2F 00 1F 60 04  ..`.....`../..`.
00E0: 01 4E 00 1F 60 04 01 BA  1F 60 04 01 12 80 13 80  .N..`....`......
00F0: 10 80 14 80 80 1F 60 04  01 2F 00 20 60 04 01 4E  ......`../. `..N
0100: 00 20 60 04 01 BA 20 60  04 01 15 80 16 80 10 80  . `... `........
0110: 17 80 80 20 60 04 01 2F  00 21 60 04 01 4E 00 21  ... `../.!`..N.!
0120: 60 04 01 BA 21 60 04 01  18 80 19 80 1A 80 17 80  `...!`..........
0130: 80 21 60 04 01 2F 00 22  60 04 01 4E 00 22 60 04  .!`../."`..N."`.
0140: 01 BA 22 60 04 01 1B 80  1C 80 10 80 1D 80 80 22  .."`..........."
0150: 60 04 01 2F 00 23 60 04  01 4E 00 23 60 04 01 BA  `../.#`..N.#`...
0160: 23 60 04 01 1E 80 1F 80  1A 80 17 80 80 23 60 04  #`...........#`.
0170: 01 03 02 10 02 80 02 23  10 02 80 04 8E 01 02 23  .......#.......#
0180: 10 00 80 03 8E 01 9D 00  8E 2E 30 00 23 10 4E 01  ..........0.#.N.
0190: F0 FF FF 7F 1A F9 19 1A  4C 20 06 00 00 06 02 00  ........L ......
01A0: 06 31 10 02 00 00 20 80  03 C0 01 9D 03 02 80 02  .1.... .........
01B0: 00 00 00 07 31 10 02 00  07 00 00 0A 80 01 A3 01  ....1...........
01C0: 06 00 00 06 02 00 06 33  10 02 00 00 21 80 05 E6  .......3....!...
01D0: 01 9D 03 02 80 02 00 00  00 07 33 10 02 00 07 00  ..........3.....
01E0: 00 0A 80 01 C9 01 06 02  10 02 02 10 34 10 03 FE  ............4...
01F0: 01 3C 2E 00 02 10 0A 80  0B 02 10 01 E9 01 03 00  .<..............
0200: 00 2E 10 40 02 80 22 80  35 10 00 00 40 08 80 04  ...@..".5...@...
0210: 80 35 10 00 00 40 23 80  24 80 35 10 00 00 40 25  .5...@#.$.5...@%
0220: 80 09 80 35 10 00 00 40  02 80 22 80 36 10 00 00  ...5...@..".6...
0230: 40 08 80 04 80 36 10 00  00 40 23 80 24 80 36 10  @....6...@#.$.6.
0240: 00 00 40 25 80 09 80 36  10 00 00 06 01 00 06 02  ..@%...6........
0250: 00 06 30 10 06 2F 00 02  00 00 2F 10 05 78 05 9D  ..0../..../..x..
0260: 03 02 80 02 10 00 00 02  02 10 02 80 01 72 05 06  .............r..
0270: 05 00 06 03 00 06 04 00  02 05 00 00 00 05 9A 02  ................
0280: 03 03 00 04 00 9D 03 02  80 02 00 05 00 07 04 00  ................
0290: 02 00 07 05 00 0A 80 01  78 02 03 2C 10 03 00 03  ........x..,....
02A0: 2D 10 04 00 03 2A 10 03  00 03 2B 10 02 00 03 29  -....*....+....)
02B0: 10 00 00 BF 40 02 80 00  00 02 80 26 10 BF 40 02  ....@......&..@.
02C0: 80 00 00 0A 80 27 10 BF  40 02 80 00 00 26 80 28  .....'..@....&.(
02D0: 10 41 25 80 09 80 28 10  2A 00 41 02 80 22 80 28  .A%...(.*.A..".(
02E0: 10 2B 00 41 08 80 04 80  28 10 2C 00 41 23 80 24  .+.A....(.,.A#.$
02F0: 80 28 10 2D 00 02 2A 00  02 80 00 11 04 1A 5C 18  .(.-..*.......\.
0300: 1A 7B 17 02 00 00 2E 10  00 14 03 1A 53 28 1A BB  .{..........S(..
0310: 28 01 0E 04 02 00 00 03  80 00 7A 03 45 05 80 F0  (.........z.E...
0320: FF FF 7F F0 FF FF 7F 66  64 6F 30 02 80 55 05 80  .......fdo0..U..
0330: F0 FF FF 7F F0 FF FF 7F  66 64 6F 30 29 05 24 60  ........fdo0).$`
0340: 04 01 06 1A 59 07 1A 97  06 1A 53 28 2A 05 19 60  ....Y.....S(*..`
0350: 04 01 1A BB 28 45 27 80  F0 FF FF 7F F0 FF FF 7F  ....(E'.........
0360: 6E 61 6B 73 02 80 45 27  80 F0 FF FF 7F F0 FF FF  naks..E'........
0370: 7F 68 61 73 73 02 80 1C  07 80 3F 02 10 00 00 06  .hass.....?.....
0380: 80 02 02 10 02 80 00 0E  04 02 00 00 23 80 00 94  ............#...
0390: 03 01 0E 04 02 00 00 28  80 00 A5 03 1A 53 28 1A  .......(.....S(.
03A0: BB 28 01 0E 04 02 00 00  29 80 00 B0 03 01 0E 04  .(......).......
03B0: 45 05 80 F0 FF FF 7F F0  FF FF 7F 66 64 6F 30 02  E..........fdo0.
03C0: 80 55 05 80 F0 FF FF 7F  F0 FF FF 7F 66 64 6F 30  .U..........fdo0
03D0: 29 05 24 60 04 01 06 1A  59 07 1A 97 06 1A 53 28  ).$`....Y.....S(
03E0: 2A 05 19 60 04 01 1A BB  28 45 27 80 F0 FF FF 7F  *..`....(E'.....
03F0: F0 FF FF 7F 6E 61 6B 73  02 80 45 27 80 F0 FF FF  ....naks..E'....
0400: 7F F0 FF FF 7F 68 61 73  73 02 80 1C 07 80 01 2B  .....hass......+
0410: 04 02 00 00 2E 10 00 25  04 1A 53 28 1A BB 28 1A  .......%..S(..(.
0420: F9 07 01 2B 04 1A F9 07  1A BB 28 41 25 80 09 80  ...+......(A%...
0430: 28 10 2A 00 02 2A 00 02  80 00 49 04 7A 00 0F 60  (.*..*....I.z..`
0440: 04 01 27 05 0F 60 04 01  04 40 08 80 04 80 30 10  ..'..`...@....0.
0450: 02 80 02 0A 80 0A 80 00  49 05 3E 30 10 09 80 78  ........I.>0...x
0460: 04 29 03 24 60 04 01 06  27 05 19 60 04 01 1D 2A  .).$`...'..`...*
0470: 05 19 60 04 01 01 78 05  03 07 00 08 80 03 08 00  ..`...x.........
0480: 22 80 07 08 00 34 10 06  2F 00 06 07 00 02 07 00  "....4../.......
0490: 34 10 03 2E 05 02 07 00  02 80 00 A6 04 41 02 80  4............A..
04A0: 22 80 35 10 08 00 02 07  00 0A 80 00 B7 04 41 08  ".5...........A.
04B0: 80 04 80 35 10 08 00 02  07 00 26 80 00 C8 04 41  ...5......&....A
04C0: 23 80 24 80 35 10 08 00  02 07 00 2A 80 00 D9 04  #.$.5......*....
04D0: 41 25 80 09 80 35 10 08  00 02 07 00 06 80 00 EA  A%...5..........
04E0: 04 41 02 80 22 80 36 10  08 00 02 07 00 07 80 00  .A..".6.........
04F0: FB 04 41 08 80 04 80 36  10 08 00 02 07 00 2B 80  ..A....6......+.
0500: 00 0C 05 41 23 80 24 80  36 10 08 00 02 07 00 22  ...A#.$.6......"
0510: 80 00 1D 05 41 25 80 09  80 36 10 08 00 02 08 00  ....A%...6......
0520: 00 00 02 28 05 0B 2F 00  0B 07 00 01 8D 04 03 07  ...(../.........
0530: 00 34 10 15 07 00 26 80  02 2F 00 07 00 04 43 05  .4....&../....C.
0540: 01 49 05 1C 0A 80 01 52  04 02 00 00 2C 80 00 62  .I.....R....,..b
0550: 05 1A 97 06 2A 05 0F 60  04 01 03 00 00 28 80 01  ....*..`.....(..
0560: 72 05 02 00 00 09 80 04  6D 05 01 72 05 07 00 00  r.......m..r....
0570: 0A 80 1C 0A 80 01 57 02  5D 02 80 01 80 4E 01 1F  ......W.]....N..
0580: 60 04 01 4E 01 20 60 04  01 4E 01 21 60 04 01 4E  `..N. `..N.!`..N
0590: 01 22 60 04 01 4E 01 23  60 04 01 4E 01 26 60 04  ."`..N.#`..N.&`.
05A0: 01 4E 01 0C 60 04 01 4E  01 0D 60 04 01 4E 01 0E  .N..`..N..`..N..
05B0: 60 04 01 4E 01 0F 60 04  01 4E 01 24 60 04 01 4E  `..N..`..N.$`..N
05C0: 01 25 60 04 01 2F 01 1F  60 04 01 2F 01 20 60 04  .%`../..`../. `.
05D0: 01 2F 01 21 60 04 01 2F  01 22 60 04 01 2F 01 23  ./.!`../."`../.#
05E0: 60 04 01 2F 01 26 60 04  01 2F 01 0C 60 04 01 2F  `../.&`../..`../
05F0: 01 0D 60 04 01 2F 01 0E  60 04 01 2F 01 0F 60 04  ..`../..`../..`.
0600: 01 2F 01 24 60 04 01 2F  01 25 60 04 01 5C 00 2D  ./.$`../.%`..\.-
0610: 80 5C 01 2D 80 9A 45 27  80 F0 FF FF 7F F0 FF FF  .\.-..E'........
0620: 7F 73 30 37 39 02 80 1A  97 06 29 05 11 60 04 01  .s079.....)..`..
0630: 08 29 05 12 60 04 01 08  29 05 13 60 04 01 08 29  .)..`...)..`...)
0640: 05 14 60 04 01 08 29 05  15 60 04 01 08 29 05 16  ..`...)..`...)..
0650: 60 04 01 07 29 05 17 60  04 01 08 29 05 18 60 04  `...)..`...)..`.
0660: 01 08 AE 00 06 00 04 80  1A B3 20 78 1C 0A 80 AB  .......... x....
0670: 0A 4E 00 F0 FF FF 7F 80  F0 FF FF 7F 1C 01 80 46  .N.............F
0680: 00 1C 01 80 45 05 80 F8  FF FF 7F F8 FF FF 7F 66  ....E..........f
0690: 64 69 32 02 80 21 00 1C  03 80 7A 00 11 60 04 01  di2..!....z..`..
06A0: 7A 00 12 60 04 01 7A 00  13 60 04 01 7A 00 14 60  z..`..z..`..z..`
06B0: 04 01 7A 00 15 60 04 01  7A 00 16 60 04 01 7A 00  ..z..`..z..`..z.
06C0: 17 60 04 01 7A 00 18 60  04 01 7A 00 F0 FF FF 7F  .`..z..`..z.....
06D0: BB 25 80 11 60 04 01 11  60 04 01 73 74 6F 70 02  .%..`...`..stop.
06E0: 80 BB 25 80 12 60 04 01  12 60 04 01 73 74 6F 70  ..%..`...`..stop
06F0: 02 80 BB 25 80 13 60 04  01 13 60 04 01 73 74 6F  ...%..`...`..sto
0700: 70 02 80 BB 25 80 14 60  04 01 14 60 04 01 73 74  p...%..`...`..st
0710: 6F 70 02 80 BB 25 80 15  60 04 01 15 60 04 01 73  op...%..`...`..s
0720: 74 6F 70 02 80 BB 25 80  16 60 04 01 16 60 04 01  top...%..`...`..
0730: 73 74 6F 70 02 80 BB 25  80 17 60 04 01 17 60 04  stop...%..`...`.
0740: 01 73 74 6F 70 02 80 BB  25 80 18 60 04 01 18 60  .stop...%..`...`
0750: 04 01 73 74 6F 70 02 80  1B 45 27 80 F0 FF FF 7F  ..stop...E'.....
0760: F0 FF FF 7F 6E 61 6B 65  02 80 45 27 80 F0 FF FF  ....nake..E'....
0770: 7F F0 FF FF 7F 68 61 73  65 02 80 13 02 10 22 80  .....hase.....".
0780: 02 02 10 02 80 00 8F 07  27 05 19 60 04 01 06 02  ........'..`....
0790: 02 10 0A 80 00 9E 07 27  05 19 60 04 01 07 02 02  .......'..`.....
07A0: 10 26 80 00 AD 07 27 05  19 60 04 01 08 02 02 10  .&....'..`......
07B0: 2A 80 00 BC 07 27 05 19  60 04 01 09 02 02 10 06  *....'..`.......
07C0: 80 00 CB 07 27 05 19 60  04 01 0A 02 02 10 07 80  ....'..`........
07D0: 00 DA 07 27 05 19 60 04  01 0B 02 02 10 2B 80 00  ...'..`......+..
07E0: E9 07 27 05 19 60 04 01  0C 02 02 10 22 80 00 F8  ..'..`......"...
07F0: 07 27 05 19 60 04 01 0D  1B 02 2A 00 02 80 00 5F  .'..`.....*...._
0800: 08 45 05 80 F0 FF FF 7F  F0 FF FF 7F 66 64 6F 30  .E..........fdo0
0810: 02 80 55 05 80 F0 FF FF  7F F0 FF FF 7F 66 64 6F  ..U..........fdo
0820: 30 29 05 24 60 04 01 06  1A 59 07 1A 97 06 1A 53  0).$`....Y.....S
0830: 28 2A 05 19 60 04 01 45  27 80 F0 FF FF 7F F0 FF  (*..`..E'.......
0840: FF 7F 6E 61 6B 73 02 80  45 27 80 F0 FF FF 7F F0  ..naks..E'......
0850: FF FF 7F 68 61 73 73 02  80 1A 5C 18 1A 7B 17 02  ...hass...\..{..
0860: 2A 00 0A 80 00 8F 08 7A  00 0F 60 04 01 27 01 0F  *......z..`..'..
0870: 60 04 01 06 27 05 7A 60  04 01 03 1C 04 80 45 05  `...'.z`......E.
0880: 80 F0 FF FF 7F F0 FF FF  7F 66 64 69 30 02 80 02  .........fdi0...
0890: 2A 00 26 80 00 BF 08 7A  00 0F 60 04 01 27 01 0F  *.&....z..`..'..
08A0: 60 04 01 06 27 05 7A 60  04 01 04 1C 04 80 45 05  `...'.z`......E.
08B0: 80 F0 FF FF 7F F0 FF FF  7F 66 64 69 30 02 80 02  .........fdi0...
08C0: 2A 00 2A 80 00 EF 08 7A  00 0F 60 04 01 27 01 0F  *.*....z..`..'..
08D0: 60 04 01 06 27 05 7A 60  04 01 05 1C 04 80 45 05  `...'.z`......E.
08E0: 80 F0 FF FF 7F F0 FF FF  7F 66 64 69 30 02 80 02  .........fdi0...
08F0: 2A 00 06 80 00 1F 09 7A  00 0F 60 04 01 27 01 0F  *......z..`..'..
0900: 60 04 01 07 27 05 7A 60  04 01 06 1C 04 80 45 05  `...'.z`......E.
0910: 80 F0 FF FF 7F F0 FF FF  7F 66 64 69 30 02 80 02  .........fdi0...
0920: 2A 00 07 80 00 4F 09 7A  00 0F 60 04 01 27 01 0F  *....O.z..`..'..
0930: 60 04 01 07 27 05 7A 60  04 01 07 1C 04 80 45 05  `...'.z`......E.
0940: 80 F0 FF FF 7F F0 FF FF  7F 66 64 69 30 02 80 02  .........fdi0...
0950: 2A 00 2B 80 00 7F 09 7A  00 0F 60 04 01 27 01 0F  *.+....z..`..'..
0960: 60 04 01 06 27 05 7A 60  04 01 08 1C 04 80 45 05  `...'.z`......E.
0970: 80 F0 FF FF 7F F0 FF FF  7F 66 64 69 30 02 80 02  .........fdi0...
0980: 2A 00 22 80 00 C3 09 7A  00 0F 60 04 01 27 01 0F  *."....z..`..'..
0990: 60 04 01 06 27 05 7A 60  04 01 09 1C 04 80 45 05  `...'.z`......E.
09A0: 80 F0 FF FF 7F F0 FF FF  7F 66 64 69 30 02 80 1C  .........fdi0...
09B0: 04 80 45 05 80 F0 FF FF  7F F0 FF FF 7F 66 64 69  ..E..........fdi
09C0: 30 02 80 02 2A 00 08 80  00 F3 09 7A 00 0F 60 04  0...*......z..`.
09D0: 01 27 01 0F 60 04 01 08  27 05 7A 60 04 01 0A 1C  .'..`...'.z`....
09E0: 04 80 45 05 80 F0 FF FF  7F F0 FF FF 7F 66 64 69  ..E..........fdi
09F0: 30 02 80 02 2A 00 2E 80  00 23 0A 7A 00 0F 60 04  0...*....#.z..`.
0A00: 01 27 01 0F 60 04 01 08  27 05 7A 60 04 01 0B 1C  .'..`...'.z`....
0A10: 04 80 45 05 80 F0 FF FF  7F F0 FF FF 7F 66 64 69  ..E..........fdi
0A20: 30 02 80 02 2A 00 20 80  00 3F 0A 7A 00 0F 60 04  0...*. ..?.z..`.
0A30: 01 27 01 0F 60 04 01 05  27 05 7A 60 04 01 0C 02  .'..`...'.z`....
0A40: 2A 00 21 80 00 6F 0A 7A  00 0F 60 04 01 27 01 0F  *.!..o.z..`..'..
0A50: 60 04 01 09 27 05 7A 60  04 01 0D 1C 04 80 45 05  `...'.z`......E.
0A60: 80 F0 FF FF 7F F0 FF FF  7F 66 64 69 30 02 80 1B  .........fdi0...
0A70: 1B                                                .               
```

#### Opcodes

```
  0: 0x0002 [0x5D] SET_MUSIC_VOLUME(volume=64*, fade_time=120*)
  1: 0x0007 [0x6A] CHANGE_SOUND_VOLUME: Set (Effects/System/Zone/Master)* volume to 0*, fade_time=30*
  2: 0x000E [0x45] LOAD_SCHEDULED_TASK: Load scheduler "fdo0" with entities [EventEntity, EventEntity], work=[200*, 0*]
  3: 0x001F [0x55] WAIT_LOAD_SCHEDULER: Wait for scheduler "fdo0" with entities [EventEntity, EventEntity], work=200*
  4: 0x002E [0x83] ExtData[1]->WorkLocal[7] = GetGameTime()
  5: 0x0031 [0xAA] VANA_DIEL_TIMESTAMP_CONVERTER(timestamp=ExtData[1]->WorkLocal[7], year=ExtData[1]->WorkLocal[7], month=ExtData[1]->WorkLocal[7], day=ExtData[1]->WorkLocal[7], weekday=ExtData[1]->WorkLocal[7], hour=ExtData[1]->WorkLocal[9], minute=ExtData[1]->WorkLocal[7], moon=ExtData[1]->WorkLocal[7])
  6: 0x0042 [0xBF] CHOCOBO_RACING_PARAMETER_GETTER(param_type=0x00)
  7: 0x0044 [0x02] IF !(0x0280 == 0x0780) GOTO 0x0241
  8: 0x004C [0x80] LOAD_WAIT(entity=Unknown NPC (ID: 491526/0x00078006))
  9: 0x0051 [0x34] LOAD_UNLOAD_ZONE(zone_id=0x4110)
 10: 0x0054 [0x07] 0x0880 += 0x0780
 11: 0x0059 [0x00] END_REQSTACK()
 12: 0x005A [0x06] 0x0300 = 0
 13: 0x005D [0x2E] SET_CLI_EVENT_CANCEL_FLAGS()
 14: 0x005E [0x10] 0* <<= 0x2F03
 15: 0x0063 [0x10] 31* <<= 0x0A1C
 16: 0x0068 [0x80] LOAD_WAIT(entity=Unknown NPC (ID: 167773698/0x0A000602))
 17: 0x006D [0x80] LOAD_WAIT(entity=Unknown NPC (ID: 50365184/0x03008300))
 18: 0x0072 [0x31] UPDATE_ENTITY_POSITION: Set EventEntity goal position to X=0.000*, Z=0x0603, Y=0x0200, Time=0x7780
 19: 0x007C [0x09] 0x0200 |= (1 << 0x0180)
 20: 0x0081 [0x8D] OPEN_MAP_WITH_PROPERTIES(map_id=0x0300, properties=ExtData[1]->WorkLocal[49])
 21: 0x0086 [0x06] 0x7700 = 0
 22: 0x0089 [0x09] 0x0600 |= (1 << 0x1C00)
 23: 0x008E [0x0A] 0xAB80 &= ~(1 << 0x2F09)
 24: 0x0093 [0x00] END_REQSTACK()

SUBROUTINE_0257:
 25: 0x0257 [0x02] IF !(ExtData[1]->WorkLocal[0] > Work_Zone[47]) GOTO 0x0578
 26: 0x025F [0x9D] ExtData[1]->WorkLocal[0] = Work_Zone[0*][Work_Zone[2]] // Via remapped space
 27: 0x0267 [0x02] IF !(Work_Zone[2] == 0*) GOTO 0x0572
 28: 0x026F [0x06] ExtData[1]->WorkLocal[5] = 0
 29: 0x0272 [0x06] ExtData[1]->WorkLocal[3] = 0
 30: 0x0275 [0x06] ExtData[1]->WorkLocal[4] = 0

SUBROUTINE_0278:
 31: 0x0278 [0x02] IF !(ExtData[1]->WorkLocal[5] > ExtData[1]->WorkLocal[0]) GOTO 0x029A
 32: 0x0280 [0x03] ExtData[1]->WorkLocal[3] = ExtData[1]->WorkLocal[4]
 33: 0x0285 [0x9D] ExtData[1]->WorkLocal[5] = Work_Zone[0*][ExtData[1]->WorkLocal[2]] // Via remapped space
 34: 0x028D [0x07] ExtData[1]->WorkLocal[4] += ExtData[1]->WorkLocal[2]
 35: 0x0292 [0x07] ExtData[1]->WorkLocal[5] += 1*
 36: 0x0297 [0x01] GOTO 0x0278
 37: 0x029A [0x03] Work_Zone[44] = ExtData[1]->WorkLocal[3]
 38: 0x029F [0x03] Work_Zone[45] = ExtData[1]->WorkLocal[4]
 39: 0x02A4 [0x03] Work_Zone[42] = ExtData[1]->WorkLocal[3]
 40: 0x02A9 [0x03] Work_Zone[43] = ExtData[1]->WorkLocal[2]
 41: 0x02AE [0x03] Work_Zone[41] = ExtData[1]->WorkLocal[0]
 42: 0x02B3 [0xBF] CHOCOBO_RACING_PARAMETER_GETTER(param_type=0x40)
 43: 0x02B5 [0x02] IF !(0x80 == 0x0200) GOTO 0x1026
 44: 0x02BD [0xBF] CHOCOBO_RACING_PARAMETER_GETTER(param_type=0x40)
 45: 0x02BF [0x02] IF !(0x80 == 0x0A00) GOTO 0x1027
 46: 0x02C7 [0xBF] CHOCOBO_RACING_PARAMETER_GETTER(param_type=0x40)
 47: 0x02C9 [0x02] IF !(0x80 == 0x2600) GOTO 0x1028
 48: 0x02D1 [0x41] ExtData[1]->WorkLocal[42] = Work_Zone[40] (bits 24*-31*)
 49: 0x02DA [0x41] ExtData[1]->WorkLocal[43] = Work_Zone[40] (bits 0*-7*)
 50: 0x02E3 [0x41] ExtData[1]->WorkLocal[44] = Work_Zone[40] (bits 8*-15*)
 51: 0x02EC [0x41] ExtData[1]->WorkLocal[45] = Work_Zone[40] (bits 16*-23*)
 52: 0x02F5 [0x02] IF !(ExtData[1]->WorkLocal[42] == 0*) GOTO 0x0411
 53: 0x02FD [0x1A] CALL_SUBROUTINE(address=0x185C)
 54: 0x0300 [0x1A] CALL_SUBROUTINE(address=0x177B)
 55: 0x0303 [0x02] IF !(ExtData[1]->WorkLocal[0] == Work_Zone[46]) GOTO 0x0314
 56: 0x030B [0x1A] CALL_SUBROUTINE(address=0x2853)
 57: 0x030E [0x1A] CALL_SUBROUTINE(address=0x28BB)
 58: 0x0311 [0x01] GOTO 0x040E
 59: 0x0314 [0x02] IF !(ExtData[1]->WorkLocal[0] == 30*) GOTO 0x037A
 60: 0x031C [0x45] LOAD_SCHEDULED_TASK: Load scheduler "fdo0" with entities [LocalPlayer, LocalPlayer], work=[200*, 0*]
 61: 0x032D [0x55] WAIT_LOAD_SCHEDULER: Wait for scheduler "fdo0" with entities [LocalPlayer, LocalPlayer], work=200*
 62: 0x033C [0x29] REQ_SET_WAIT(priority=0x05, entity_id=cameraA (ID: 17063972/0x01046024), tag_num=0x06)
 63: 0x0343 [0x1A] CALL_SUBROUTINE(address=0x0759)
 64: 0x0346 [0x1A] CALL_SUBROUTINE(address=0x0697)
 65: 0x0349 [0x1A] CALL_SUBROUTINE(address=0x2853)
 66: 0x034C [0x2A] GET_REQ_LEVEL(level=5, entity_id=Goccilo (ID: 17063961/0x01046019))
 67: 0x0352 [0x1A] CALL_SUBROUTINE(address=0x28BB)
 68: 0x0355 [0x45] LOAD_SCHEDULED_TASK: Load scheduler "naks" with entities [LocalPlayer, LocalPlayer], work=[191*, 0*]
 69: 0x0366 [0x45] LOAD_SCHEDULED_TASK: Load scheduler "hass" with entities [LocalPlayer, LocalPlayer], work=[191*, 0*]
 70: 0x0377 [0x1C] WAIT(5* ticks)
 71: 0x037A [0x3F] Work_Zone[2] = ExtData[1]->WorkLocal[0] % 4*
 72: 0x0381 [0x02] IF !(Work_Zone[2] == 0*) GOTO 0x040E
 73: 0x0389 [0x02] IF !(ExtData[1]->WorkLocal[0] == 16*) GOTO 0x0394
 74: 0x0391 [0x01] GOTO 0x040E
 75: 0x0394 [0x02] IF !(ExtData[1]->WorkLocal[0] == 20*) GOTO 0x03A5
 76: 0x039C [0x1A] CALL_SUBROUTINE(address=0x2853)
 77: 0x039F [0x1A] CALL_SUBROUTINE(address=0x28BB)
 78: 0x03A2 [0x01] GOTO 0x040E
 79: 0x03A5 [0x02] IF !(ExtData[1]->WorkLocal[0] == 28*) GOTO 0x03B0
 80: 0x03AD [0x01] GOTO 0x040E
 81: 0x03B0 [0x45] LOAD_SCHEDULED_TASK: Load scheduler "fdo0" with entities [LocalPlayer, LocalPlayer], work=[200*, 0*]
 82: 0x03C1 [0x55] WAIT_LOAD_SCHEDULER: Wait for scheduler "fdo0" with entities [LocalPlayer, LocalPlayer], work=200*
 83: 0x03D0 [0x29] REQ_SET_WAIT(priority=0x05, entity_id=cameraA (ID: 17063972/0x01046024), tag_num=0x06)
 84: 0x03D7 [0x1A] CALL_SUBROUTINE(address=0x0759)
 85: 0x03DA [0x1A] CALL_SUBROUTINE(address=0x0697)
 86: 0x03DD [0x1A] CALL_SUBROUTINE(address=0x2853)
 87: 0x03E0 [0x2A] GET_REQ_LEVEL(level=5, entity_id=Goccilo (ID: 17063961/0x01046019))
 88: 0x03E6 [0x1A] CALL_SUBROUTINE(address=0x28BB)
 89: 0x03E9 [0x45] LOAD_SCHEDULED_TASK: Load scheduler "naks" with entities [LocalPlayer, LocalPlayer], work=[191*, 0*]
 90: 0x03FA [0x45] LOAD_SCHEDULED_TASK: Load scheduler "hass" with entities [LocalPlayer, LocalPlayer], work=[191*, 0*]
 91: 0x040B [0x1C] WAIT(5* ticks)

SUBROUTINE_040E:
 92: 0x040E [0x01] GOTO 0x042B
 93: 0x0411 [0x02] IF !(ExtData[1]->WorkLocal[0] == Work_Zone[46]) GOTO 0x0425
 94: 0x0419 [0x1A] CALL_SUBROUTINE(address=0x2853)
 95: 0x041C [0x1A] CALL_SUBROUTINE(address=0x28BB)
 96: 0x041F [0x1A] CALL_SUBROUTINE(address=0x07F9)
 97: 0x0422 [0x01] GOTO 0x042B
 98: 0x0425 [0x1A] CALL_SUBROUTINE(address=0x07F9)
 99: 0x0428 [0x1A] CALL_SUBROUTINE(address=0x28BB)

SUBROUTINE_042B:
100: 0x042B [0x41] ExtData[1]->WorkLocal[42] = Work_Zone[40] (bits 24*-31*)
101: 0x0434 [0x02] IF !(ExtData[1]->WorkLocal[42] == 0*) GOTO 0x0449
102: 0x043C [0x7A] VM_CONTROL: Reset VM for Unnamed NPC (ID: 17063951/0x0104600F)
103: 0x0442 [0x27] REQ_SET(priority=0x05, entity_id=Unnamed NPC (ID: 17063951/0x0104600F), tag_num=0x04)
104: 0x0449 [0x40] SET_BIT_WORK_RANGE(start_bit=8*, end_bit=15*, target=Work_Zone[48], source=0*)

SUBROUTINE_0452:
105: 0x0452 [0x02] IF !(1* == 1*) GOTO 0x0549
106: 0x045A [0x3E] IF !(Work_Zone[48] bit 31*) GOTO 0x0478
107: 0x0461 [0x29] REQ_SET_WAIT(priority=0x03, entity_id=cameraA (ID: 17063972/0x01046024), tag_num=0x06)
108: 0x0468 [0x27] REQ_SET(priority=0x05, entity_id=Goccilo (ID: 17063961/0x01046019), tag_num=0x1D)
109: 0x046F [0x2A] GET_REQ_LEVEL(level=5, entity_id=Goccilo (ID: 17063961/0x01046019))
110: 0x0475 [0x01] GOTO 0x0578
111: 0x0478 [0x03] ExtData[1]->WorkLocal[7] = 8*
112: 0x047D [0x03] ExtData[1]->WorkLocal[8] = 7*
113: 0x0482 [0x07] ExtData[1]->WorkLocal[8] += Work_Zone[52]
114: 0x0487 [0x06] ExtData[1]->WorkLocal[47] = 0
115: 0x048A [0x06] ExtData[1]->WorkLocal[7] = 0

SUBROUTINE_048D:
116: 0x048D [0x02] IF !(ExtData[1]->WorkLocal[7] >= Work_Zone[52]) GOTO 0x052E
117: 0x0495 [0x02] IF !(ExtData[1]->WorkLocal[7] == 0*) GOTO 0x04A6
118: 0x049D [0x41] ExtData[1]->WorkLocal[8] = Work_Zone[53] (bits 0*-7*)
119: 0x04A6 [0x02] IF !(ExtData[1]->WorkLocal[7] == 1*) GOTO 0x04B7
120: 0x04AE [0x41] ExtData[1]->WorkLocal[8] = Work_Zone[53] (bits 8*-15*)
121: 0x04B7 [0x02] IF !(ExtData[1]->WorkLocal[7] == 2*) GOTO 0x04C8
122: 0x04BF [0x41] ExtData[1]->WorkLocal[8] = Work_Zone[53] (bits 16*-23*)
123: 0x04C8 [0x02] IF !(ExtData[1]->WorkLocal[7] == 3*) GOTO 0x04D9
124: 0x04D0 [0x41] ExtData[1]->WorkLocal[8] = Work_Zone[53] (bits 24*-31*)
125: 0x04D9 [0x02] IF !(ExtData[1]->WorkLocal[7] == 4*) GOTO 0x04EA
126: 0x04E1 [0x41] ExtData[1]->WorkLocal[8] = Work_Zone[54] (bits 0*-7*)
127: 0x04EA [0x02] IF !(ExtData[1]->WorkLocal[7] == 5*) GOTO 0x04FB
128: 0x04F2 [0x41] ExtData[1]->WorkLocal[8] = Work_Zone[54] (bits 8*-15*)
129: 0x04FB [0x02] IF !(ExtData[1]->WorkLocal[7] == 6*) GOTO 0x050C
130: 0x0503 [0x41] ExtData[1]->WorkLocal[8] = Work_Zone[54] (bits 16*-23*)
131: 0x050C [0x02] IF !(ExtData[1]->WorkLocal[7] == 7*) GOTO 0x051D
132: 0x0514 [0x41] ExtData[1]->WorkLocal[8] = Work_Zone[54] (bits 24*-31*)
133: 0x051D [0x02] IF !(ExtData[1]->WorkLocal[8] <= ExtData[1]->WorkLocal[0]) GOTO 0x0528
134: 0x0525 [0x0B] ExtData[1]->WorkLocal[47]++
135: 0x0528 [0x0B] ExtData[1]->WorkLocal[7]++
136: 0x052B [0x01] GOTO 0x048D
137: 0x052E [0x03] ExtData[1]->WorkLocal[7] = Work_Zone[52]
138: 0x0533 [0x15] ExtData[1]->WorkLocal[7] /= 2*
139: 0x0538 [0x02] IF !(ExtData[1]->WorkLocal[47] < ExtData[1]->WorkLocal[7]) GOTO 0x0543
140: 0x0540 [0x01] GOTO 0x0549
141: 0x0543 [0x1C] WAIT(1* ticks)
142: 0x0546 [0x01] GOTO 0x0452

SUBROUTINE_0549:
143: 0x0549 [0x02] IF !(ExtData[1]->WorkLocal[0] == 17*) GOTO 0x0562
144: 0x0551 [0x1A] CALL_SUBROUTINE(address=0x0697)
145: 0x0554 [0x2A] GET_REQ_LEVEL(level=5, entity_id=Unnamed NPC (ID: 17063951/0x0104600F))
146: 0x055A [0x03] ExtData[1]->WorkLocal[0] = 20*
147: 0x055F [0x01] GOTO 0x0572
148: 0x0562 [0x02] IF !(ExtData[1]->WorkLocal[0] < 31*) GOTO 0x056D
149: 0x056A [0x01] GOTO 0x0572
150: 0x056D [0x07] ExtData[1]->WorkLocal[0] += 1*

SUBROUTINE_0572:
151: 0x0572 [0x1C] WAIT(1* ticks)
152: 0x0575 [0x01] GOTO 0x0257

SUBROUTINE_0578:
153: 0x0578 [0x5D] SET_MUSIC_VOLUME(volume=0*, fade_time=120*)
154: 0x057D [0x4E] SET_ENTITY_HIDE_FLAG: Hide Unnamed NPC (ID: 17063967/0x0104601F)
155: 0x0583 [0x4E] SET_ENTITY_HIDE_FLAG: Hide Unnamed NPC (ID: 17063968/0x01046020)
156: 0x0589 [0x4E] SET_ENTITY_HIDE_FLAG: Hide Unnamed NPC (ID: 17063969/0x01046021)
157: 0x058F [0x4E] SET_ENTITY_HIDE_FLAG: Hide Unnamed NPC (ID: 17063970/0x01046022)
158: 0x0595 [0x4E] SET_ENTITY_HIDE_FLAG: Hide Unnamed NPC (ID: 17063971/0x01046023)
159: 0x059B [0x4E] SET_ENTITY_HIDE_FLAG: Hide Unnamed NPC (ID: 17063974/0x01046026)
160: 0x05A1 [0x4E] SET_ENTITY_HIDE_FLAG: Hide Unnamed NPC (ID: 17063948/0x0104600C)
161: 0x05A7 [0x4E] SET_ENTITY_HIDE_FLAG: Hide Unnamed NPC (ID: 17063949/0x0104600D)
162: 0x05AD [0x4E] SET_ENTITY_HIDE_FLAG: Hide Unnamed NPC (ID: 17063950/0x0104600E)
163: 0x05B3 [0x4E] SET_ENTITY_HIDE_FLAG: Hide Unnamed NPC (ID: 17063951/0x0104600F)
164: 0x05B9 [0x4E] SET_ENTITY_HIDE_FLAG: Hide cameraA (ID: 17063972/0x01046024)
165: 0x05BF [0x4E] SET_ENTITY_HIDE_FLAG: Hide cameraB (ID: 17063973/0x01046025)
166: 0x05C5 [0x2F] Unnamed NPC (ID: 17063967/0x0104601F)->Render.Flags0 |= 0x80000 // Bit 19
167: 0x05CB [0x2F] Unnamed NPC (ID: 17063968/0x01046020)->Render.Flags0 |= 0x80000 // Bit 19
168: 0x05D1 [0x2F] Unnamed NPC (ID: 17063969/0x01046021)->Render.Flags0 |= 0x80000 // Bit 19
169: 0x05D7 [0x2F] Unnamed NPC (ID: 17063970/0x01046022)->Render.Flags0 |= 0x80000 // Bit 19
170: 0x05DD [0x2F] Unnamed NPC (ID: 17063971/0x01046023)->Render.Flags0 |= 0x80000 // Bit 19
171: 0x05E3 [0x2F] Unnamed NPC (ID: 17063974/0x01046026)->Render.Flags0 |= 0x80000 // Bit 19
172: 0x05E9 [0x2F] Unnamed NPC (ID: 17063948/0x0104600C)->Render.Flags0 |= 0x80000 // Bit 19
173: 0x05EF [0x2F] Unnamed NPC (ID: 17063949/0x0104600D)->Render.Flags0 |= 0x80000 // Bit 19
174: 0x05F5 [0x2F] Unnamed NPC (ID: 17063950/0x0104600E)->Render.Flags0 |= 0x80000 // Bit 19
175: 0x05FB [0x2F] Unnamed NPC (ID: 17063951/0x0104600F)->Render.Flags0 |= 0x80000 // Bit 19
176: 0x0601 [0x2F] cameraA (ID: 17063972/0x01046024)->Render.Flags0 |= 0x80000 // Bit 19
177: 0x0607 [0x2F] cameraB (ID: 17063973/0x01046025)->Render.Flags0 |= 0x80000 // Bit 19
178: 0x060D [0x5C] MUSIC_CONTROL: Set Idle (Day) music to song 176*
179: 0x0611 [0x5C] MUSIC_CONTROL: Set Idle (Night) music to song 176*
180: 0x0615 [0x9A] WAIT_MUSIC_SERVER()
181: 0x0616 [0x45] LOAD_SCHEDULED_TASK: Load scheduler "s079" with entities [LocalPlayer, LocalPlayer], work=[191*, 0*]
182: 0x0627 [0x1A] CALL_SUBROUTINE(address=0x0697)
183: 0x062A [0x29] REQ_SET_WAIT(priority=0x05, entity_id=Unnamed NPC (ID: 17063953/0x01046011), tag_num=0x08)
184: 0x0631 [0x29] REQ_SET_WAIT(priority=0x05, entity_id=Unnamed NPC (ID: 17063954/0x01046012), tag_num=0x08)
185: 0x0638 [0x29] REQ_SET_WAIT(priority=0x05, entity_id=Unnamed NPC (ID: 17063955/0x01046013), tag_num=0x08)
186: 0x063F [0x29] REQ_SET_WAIT(priority=0x05, entity_id=Unnamed NPC (ID: 17063956/0x01046014), tag_num=0x08)
187: 0x0646 [0x29] REQ_SET_WAIT(priority=0x05, entity_id=Unnamed NPC (ID: 17063957/0x01046015), tag_num=0x08)
188: 0x064D [0x29] REQ_SET_WAIT(priority=0x05, entity_id=Unnamed NPC (ID: 17063958/0x01046016), tag_num=0x07)
189: 0x0654 [0x29] REQ_SET_WAIT(priority=0x05, entity_id=Unnamed NPC (ID: 17063959/0x01046017), tag_num=0x08)
190: 0x065B [0x29] REQ_SET_WAIT(priority=0x05, entity_id=Unnamed NPC (ID: 17063960/0x01046018), tag_num=0x08)
191: 0x0662 [0xAE] MULTI_PURPOSE_ENTITY_HANDLER(case_type=0x00 - Weather, param1=ExtData[1]->WorkLocal[6], param2=15*)
192: 0x0668 [0x1A] CALL_SUBROUTINE(address=0x20B3)
193: 0x066B [0x78] ENABLE_GAME_TIMER_RESET_WEATHER()
194: 0x066C [0x1C] WAIT(1* ticks)
195: 0x066F [0xAB] EventEntity->UnknownFlag = 0 // Disable unknown flag
196: 0x0671 [0x4E] SET_ENTITY_HIDE_FLAG: Show LocalPlayer
197: 0x0677 [0x80] LOAD_WAIT(entity=LocalPlayer)
198: 0x067C [0x1C] WAIT(120* ticks)
199: 0x067F [0x46] CAMERA_CONTROL: Restore default settings
200: 0x0681 [0x1C] WAIT(120* ticks)
201: 0x0684 [0x45] LOAD_SCHEDULED_TASK: Load scheduler "fdi2" with entities [EventEntity, EventEntity], work=[200*, 0*]
202: 0x0695 [0x21] END_EVENT
203: 0x0696 [0x00] END_REQSTACK()

SUBROUTINE_0697:
204: 0x0697 [0x1C] WAIT(30* ticks)
205: 0x069A [0x7A] VM_CONTROL: Reset VM for Unnamed NPC (ID: 17063953/0x01046011)
206: 0x06A0 [0x7A] VM_CONTROL: Reset VM for Unnamed NPC (ID: 17063954/0x01046012)
207: 0x06A6 [0x7A] VM_CONTROL: Reset VM for Unnamed NPC (ID: 17063955/0x01046013)
208: 0x06AC [0x7A] VM_CONTROL: Reset VM for Unnamed NPC (ID: 17063956/0x01046014)
209: 0x06B2 [0x7A] VM_CONTROL: Reset VM for Unnamed NPC (ID: 17063957/0x01046015)
210: 0x06B8 [0x7A] VM_CONTROL: Reset VM for Unnamed NPC (ID: 17063958/0x01046016)
211: 0x06BE [0x7A] VM_CONTROL: Reset VM for Unnamed NPC (ID: 17063959/0x01046017)
212: 0x06C4 [0x7A] VM_CONTROL: Reset VM for Unnamed NPC (ID: 17063960/0x01046018)
213: 0x06CA [0x7A] VM_CONTROL: Reset VM for LocalPlayer
214: 0x06D0 [0xBB] LOAD_EVENT_SCHEDULER_ALT: Load scheduler "stop" with entities [Unnamed NPC (ID: 17063953/0x01046011), Unnamed NPC (ID: 17063953/0x01046011)], work=[24*, 0*]
215: 0x06E1 [0xBB] LOAD_EVENT_SCHEDULER_ALT: Load scheduler "stop" with entities [Unnamed NPC (ID: 17063954/0x01046012), Unnamed NPC (ID: 17063954/0x01046012)], work=[24*, 0*]
216: 0x06F2 [0xBB] LOAD_EVENT_SCHEDULER_ALT: Load scheduler "stop" with entities [Unnamed NPC (ID: 17063955/0x01046013), Unnamed NPC (ID: 17063955/0x01046013)], work=[24*, 0*]
217: 0x0703 [0xBB] LOAD_EVENT_SCHEDULER_ALT: Load scheduler "stop" with entities [Unnamed NPC (ID: 17063956/0x01046014), Unnamed NPC (ID: 17063956/0x01046014)], work=[24*, 0*]
218: 0x0714 [0xBB] LOAD_EVENT_SCHEDULER_ALT: Load scheduler "stop" with entities [Unnamed NPC (ID: 17063957/0x01046015), Unnamed NPC (ID: 17063957/0x01046015)], work=[24*, 0*]
219: 0x0725 [0xBB] LOAD_EVENT_SCHEDULER_ALT: Load scheduler "stop" with entities [Unnamed NPC (ID: 17063958/0x01046016), Unnamed NPC (ID: 17063958/0x01046016)], work=[24*, 0*]
220: 0x0736 [0xBB] LOAD_EVENT_SCHEDULER_ALT: Load scheduler "stop" with entities [Unnamed NPC (ID: 17063959/0x01046017), Unnamed NPC (ID: 17063959/0x01046017)], work=[24*, 0*]
221: 0x0747 [0xBB] LOAD_EVENT_SCHEDULER_ALT: Load scheduler "stop" with entities [Unnamed NPC (ID: 17063960/0x01046018), Unnamed NPC (ID: 17063960/0x01046018)], work=[24*, 0*]
222: 0x0758 [0x1B] RETURN

SUBROUTINE_0759:
223: 0x0759 [0x45] LOAD_SCHEDULED_TASK: Load scheduler "nake" with entities [LocalPlayer, LocalPlayer], work=[191*, 0*]
224: 0x076A [0x45] LOAD_SCHEDULED_TASK: Load scheduler "hase" with entities [LocalPlayer, LocalPlayer], work=[191*, 0*]
225: 0x077B [0x13] Work_Zone[2] = rand() % 7*
226: 0x0780 [0x02] IF !(Work_Zone[2] == 0*) GOTO 0x078F
227: 0x0788 [0x27] REQ_SET(priority=0x05, entity_id=Goccilo (ID: 17063961/0x01046019), tag_num=0x06)
228: 0x078F [0x02] IF !(Work_Zone[2] == 1*) GOTO 0x079E
229: 0x0797 [0x27] REQ_SET(priority=0x05, entity_id=Goccilo (ID: 17063961/0x01046019), tag_num=0x07)
230: 0x079E [0x02] IF !(Work_Zone[2] == 2*) GOTO 0x07AD
231: 0x07A6 [0x27] REQ_SET(priority=0x05, entity_id=Goccilo (ID: 17063961/0x01046019), tag_num=0x08)
232: 0x07AD [0x02] IF !(Work_Zone[2] == 3*) GOTO 0x07BC
233: 0x07B5 [0x27] REQ_SET(priority=0x05, entity_id=Goccilo (ID: 17063961/0x01046019), tag_num=0x09)
234: 0x07BC [0x02] IF !(Work_Zone[2] == 4*) GOTO 0x07CB
235: 0x07C4 [0x27] REQ_SET(priority=0x05, entity_id=Goccilo (ID: 17063961/0x01046019), tag_num=0x0A)
236: 0x07CB [0x02] IF !(Work_Zone[2] == 5*) GOTO 0x07DA
237: 0x07D3 [0x27] REQ_SET(priority=0x05, entity_id=Goccilo (ID: 17063961/0x01046019), tag_num=0x0B)
238: 0x07DA [0x02] IF !(Work_Zone[2] == 6*) GOTO 0x07E9
239: 0x07E2 [0x27] REQ_SET(priority=0x05, entity_id=Goccilo (ID: 17063961/0x01046019), tag_num=0x0C)
240: 0x07E9 [0x02] IF !(Work_Zone[2] == 7*) GOTO 0x07F8
241: 0x07F1 [0x27] REQ_SET(priority=0x05, entity_id=Goccilo (ID: 17063961/0x01046019), tag_num=0x0D)
242: 0x07F8 [0x1B] RETURN

SUBROUTINE_07F9:
243: 0x07F9 [0x02] IF !(ExtData[1]->WorkLocal[42] == 0*) GOTO 0x085F
244: 0x0801 [0x45] LOAD_SCHEDULED_TASK: Load scheduler "fdo0" with entities [LocalPlayer, LocalPlayer], work=[200*, 0*]
245: 0x0812 [0x55] WAIT_LOAD_SCHEDULER: Wait for scheduler "fdo0" with entities [LocalPlayer, LocalPlayer], work=200*
246: 0x0821 [0x29] REQ_SET_WAIT(priority=0x05, entity_id=cameraA (ID: 17063972/0x01046024), tag_num=0x06)
247: 0x0828 [0x1A] CALL_SUBROUTINE(address=0x0759)
248: 0x082B [0x1A] CALL_SUBROUTINE(address=0x0697)
249: 0x082E [0x1A] CALL_SUBROUTINE(address=0x2853)
250: 0x0831 [0x2A] GET_REQ_LEVEL(level=5, entity_id=Goccilo (ID: 17063961/0x01046019))
251: 0x0837 [0x45] LOAD_SCHEDULED_TASK: Load scheduler "naks" with entities [LocalPlayer, LocalPlayer], work=[191*, 0*]
252: 0x0848 [0x45] LOAD_SCHEDULED_TASK: Load scheduler "hass" with entities [LocalPlayer, LocalPlayer], work=[191*, 0*]
253: 0x0859 [0x1A] CALL_SUBROUTINE(address=0x185C)
254: 0x085C [0x1A] CALL_SUBROUTINE(address=0x177B)
255: 0x085F [0x02] IF !(ExtData[1]->WorkLocal[42] == 1*) GOTO 0x088F
256: 0x0867 [0x7A] VM_CONTROL: Reset VM for Unnamed NPC (ID: 17063951/0x0104600F)
257: 0x086D [0x27] REQ_SET(priority=0x01, entity_id=Unnamed NPC (ID: 17063951/0x0104600F), tag_num=0x06)
258: 0x0874 [0x27] REQ_SET(priority=0x05, entity_id=Unnamed NPC (ID: 17064058/0x0104607A), tag_num=0x03)
259: 0x087B [0x1C] WAIT(15* ticks)
260: 0x087E [0x45] LOAD_SCHEDULED_TASK: Load scheduler "fdi0" with entities [LocalPlayer, LocalPlayer], work=[200*, 0*]
261: 0x088F [0x02] IF !(ExtData[1]->WorkLocal[42] == 2*) GOTO 0x08BF
262: 0x0897 [0x7A] VM_CONTROL: Reset VM for Unnamed NPC (ID: 17063951/0x0104600F)
263: 0x089D [0x27] REQ_SET(priority=0x01, entity_id=Unnamed NPC (ID: 17063951/0x0104600F), tag_num=0x06)
264: 0x08A4 [0x27] REQ_SET(priority=0x05, entity_id=Unnamed NPC (ID: 17064058/0x0104607A), tag_num=0x04)
265: 0x08AB [0x1C] WAIT(15* ticks)
266: 0x08AE [0x45] LOAD_SCHEDULED_TASK: Load scheduler "fdi0" with entities [LocalPlayer, LocalPlayer], work=[200*, 0*]
267: 0x08BF [0x02] IF !(ExtData[1]->WorkLocal[42] == 3*) GOTO 0x08EF
268: 0x08C7 [0x7A] VM_CONTROL: Reset VM for Unnamed NPC (ID: 17063951/0x0104600F)
269: 0x08CD [0x27] REQ_SET(priority=0x01, entity_id=Unnamed NPC (ID: 17063951/0x0104600F), tag_num=0x06)
270: 0x08D4 [0x27] REQ_SET(priority=0x05, entity_id=Unnamed NPC (ID: 17064058/0x0104607A), tag_num=0x05)
271: 0x08DB [0x1C] WAIT(15* ticks)
272: 0x08DE [0x45] LOAD_SCHEDULED_TASK: Load scheduler "fdi0" with entities [LocalPlayer, LocalPlayer], work=[200*, 0*]
273: 0x08EF [0x02] IF !(ExtData[1]->WorkLocal[42] == 4*) GOTO 0x091F
274: 0x08F7 [0x7A] VM_CONTROL: Reset VM for Unnamed NPC (ID: 17063951/0x0104600F)
275: 0x08FD [0x27] REQ_SET(priority=0x01, entity_id=Unnamed NPC (ID: 17063951/0x0104600F), tag_num=0x07)
276: 0x0904 [0x27] REQ_SET(priority=0x05, entity_id=Unnamed NPC (ID: 17064058/0x0104607A), tag_num=0x06)
277: 0x090B [0x1C] WAIT(15* ticks)
278: 0x090E [0x45] LOAD_SCHEDULED_TASK: Load scheduler "fdi0" with entities [LocalPlayer, LocalPlayer], work=[200*, 0*]
279: 0x091F [0x02] IF !(ExtData[1]->WorkLocal[42] == 5*) GOTO 0x094F
280: 0x0927 [0x7A] VM_CONTROL: Reset VM for Unnamed NPC (ID: 17063951/0x0104600F)
281: 0x092D [0x27] REQ_SET(priority=0x01, entity_id=Unnamed NPC (ID: 17063951/0x0104600F), tag_num=0x07)
282: 0x0934 [0x27] REQ_SET(priority=0x05, entity_id=Unnamed NPC (ID: 17064058/0x0104607A), tag_num=0x07)
283: 0x093B [0x1C] WAIT(15* ticks)
284: 0x093E [0x45] LOAD_SCHEDULED_TASK: Load scheduler "fdi0" with entities [LocalPlayer, LocalPlayer], work=[200*, 0*]
285: 0x094F [0x02] IF !(ExtData[1]->WorkLocal[42] == 6*) GOTO 0x097F
286: 0x0957 [0x7A] VM_CONTROL: Reset VM for Unnamed NPC (ID: 17063951/0x0104600F)
287: 0x095D [0x27] REQ_SET(priority=0x01, entity_id=Unnamed NPC (ID: 17063951/0x0104600F), tag_num=0x06)
288: 0x0964 [0x27] REQ_SET(priority=0x05, entity_id=Unnamed NPC (ID: 17064058/0x0104607A), tag_num=0x08)
289: 0x096B [0x1C] WAIT(15* ticks)
290: 0x096E [0x45] LOAD_SCHEDULED_TASK: Load scheduler "fdi0" with entities [LocalPlayer, LocalPlayer], work=[200*, 0*]
291: 0x097F [0x02] IF !(ExtData[1]->WorkLocal[42] == 7*) GOTO 0x09C3
292: 0x0987 [0x7A] VM_CONTROL: Reset VM for Unnamed NPC (ID: 17063951/0x0104600F)
293: 0x098D [0x27] REQ_SET(priority=0x01, entity_id=Unnamed NPC (ID: 17063951/0x0104600F), tag_num=0x06)
294: 0x0994 [0x27] REQ_SET(priority=0x05, entity_id=Unnamed NPC (ID: 17064058/0x0104607A), tag_num=0x09)
295: 0x099B [0x1C] WAIT(15* ticks)
296: 0x099E [0x45] LOAD_SCHEDULED_TASK: Load scheduler "fdi0" with entities [LocalPlayer, LocalPlayer], work=[200*, 0*]
297: 0x09AF [0x1C] WAIT(15* ticks)
298: 0x09B2 [0x45] LOAD_SCHEDULED_TASK: Load scheduler "fdi0" with entities [LocalPlayer, LocalPlayer], work=[200*, 0*]
299: 0x09C3 [0x02] IF !(ExtData[1]->WorkLocal[42] == 8*) GOTO 0x09F3
300: 0x09CB [0x7A] VM_CONTROL: Reset VM for Unnamed NPC (ID: 17063951/0x0104600F)
301: 0x09D1 [0x27] REQ_SET(priority=0x01, entity_id=Unnamed NPC (ID: 17063951/0x0104600F), tag_num=0x08)
302: 0x09D8 [0x27] REQ_SET(priority=0x05, entity_id=Unnamed NPC (ID: 17064058/0x0104607A), tag_num=0x0A)
303: 0x09DF [0x1C] WAIT(15* ticks)
304: 0x09E2 [0x45] LOAD_SCHEDULED_TASK: Load scheduler "fdi0" with entities [LocalPlayer, LocalPlayer], work=[200*, 0*]
305: 0x09F3 [0x02] IF !(ExtData[1]->WorkLocal[42] == 9*) GOTO 0x0A23
306: 0x09FB [0x7A] VM_CONTROL: Reset VM for Unnamed NPC (ID: 17063951/0x0104600F)
307: 0x0A01 [0x27] REQ_SET(priority=0x01, entity_id=Unnamed NPC (ID: 17063951/0x0104600F), tag_num=0x08)
308: 0x0A08 [0x27] REQ_SET(priority=0x05, entity_id=Unnamed NPC (ID: 17064058/0x0104607A), tag_num=0x0B)
309: 0x0A0F [0x1C] WAIT(15* ticks)
310: 0x0A12 [0x45] LOAD_SCHEDULED_TASK: Load scheduler "fdi0" with entities [LocalPlayer, LocalPlayer], work=[200*, 0*]
311: 0x0A23 [0x02] IF !(ExtData[1]->WorkLocal[42] == 32*) GOTO 0x0A3F
312: 0x0A2B [0x7A] VM_CONTROL: Reset VM for Unnamed NPC (ID: 17063951/0x0104600F)
313: 0x0A31 [0x27] REQ_SET(priority=0x01, entity_id=Unnamed NPC (ID: 17063951/0x0104600F), tag_num=0x05)
314: 0x0A38 [0x27] REQ_SET(priority=0x05, entity_id=Unnamed NPC (ID: 17064058/0x0104607A), tag_num=0x0C)
315: 0x0A3F [0x02] IF !(ExtData[1]->WorkLocal[42] == 33*) GOTO 0x0A6F
316: 0x0A47 [0x7A] VM_CONTROL: Reset VM for Unnamed NPC (ID: 17063951/0x0104600F)
317: 0x0A4D [0x27] REQ_SET(priority=0x01, entity_id=Unnamed NPC (ID: 17063951/0x0104600F), tag_num=0x09)
318: 0x0A54 [0x27] REQ_SET(priority=0x05, entity_id=Unnamed NPC (ID: 17064058/0x0104607A), tag_num=0x0D)
319: 0x0A5B [0x1C] WAIT(15* ticks)
320: 0x0A5E [0x45] LOAD_SCHEDULED_TASK: Load scheduler "fdi0" with entities [LocalPlayer, LocalPlayer], work=[200*, 0*]
321: 0x0A6F [0x1B] RETURN
```

#### Data or dead code:

```
# Dead code (unreachable instructions):
     0x0094 [0x26] DEPRECATED_YIELD
     0x0095 [0x60] ADJUST_RENDER_FLAGS1_MULTI: Deprecated mode 0x4 (no operation)
     0x0097 [0x01] GOTO 0x004E
     0x009A [0x26] DEPRECATED_YIELD
     0x009B [0x60] ADJUST_RENDER_FLAGS1_MULTI: Deprecated mode 0x4 (no operation)
     0x009D [0x01] GOTO 0x26BA
     0x00A0 [0x60] ADJUST_RENDER_FLAGS1_MULTI: Deprecated mode 0x4 (no operation)
     0x00A2 [0x01] GOTO 0x800B
     0x00A5 [0x0C] 0x0280--
     0x00A8 [0x80] LOAD_WAIT(entity=Unknown NPC (ID: 645955597/0x2680800D))
     0x00AD [0x60] ADJUST_RENDER_FLAGS1_MULTI: Deprecated mode 0x4 (no operation)
     0x00AF [0x01] GOTO 0x0527
     0x00B2 [0x26] DEPRECATED_YIELD
     0x00B3 [0x60] ADJUST_RENDER_FLAGS1_MULTI: Deprecated mode 0x4 (no operation)
     0x00B5 [0x01] GOTO 0x2F06
     0x00B8 [0x00] END_REQSTACK()
     0x00B9 [0x19] SWAP(0x0460, 0x4E01)
     0x00BE [0x00] END_REQSTACK()
     0x00BF [0x19] SWAP(0x0460, 0xBA01)
     0x00C4 [0x19] SWAP(0x0460, 0x0E01)
     0x00C9 [0x80] LOAD_WAIT(entity=Unknown NPC (ID: 2148565007/0x8010800F))
     0x00CE [0x11] 8762* >>= 0x6019
     0x00D3 [0x04] DEPRECATED_NOP(unused=0x9201)
     0x00D6 [0x01] GOTO 0x6019
     0x00D9 [0x04] DEPRECATED_NOP(unused=0x2F01)
     0x00DC [0x00] END_REQSTACK()
     0x00DD [0x1F] MOVE_ENTITY: Update entity position (mode=96)
     0x00DF [0x04] DEPRECATED_NOP(unused=0x4E01)
     0x00E2 [0x00] END_REQSTACK()
     0x00E3 [0x1F] MOVE_ENTITY: Update entity position (mode=96)
     0x00E5 [0x04] DEPRECATED_NOP(unused=0xBA01)
     0x00E8 [0x1F] MOVE_ENTITY: Update entity position (mode=96)
     0x00EA [0x04] DEPRECATED_NOP(unused=0x1201)
     0x00ED [0x80] LOAD_WAIT(entity=Unknown NPC (ID: 2148565011/0x80108013))
     0x00F2 [0x14] 8762* *= 0x601F
     0x00F7 [0x04] DEPRECATED_NOP(unused=0x2F01)
     0x00FA [0x00] END_REQSTACK()
     0x00FB [0x20] SET_CLI_EVENT_UC_FLAG: Unknown flag value 0x60
     0x00FD [0x04] DEPRECATED_NOP(unused=0x4E01)
     0x0100 [0x00] END_REQSTACK()
     0x0101 [0x20] SET_CLI_EVENT_UC_FLAG: Unknown flag value 0x60
     0x0103 [0x04] DEPRECATED_NOP(unused=0xBA01)
     0x0106 [0x20] SET_CLI_EVENT_UC_FLAG: Unknown flag value 0x60
     0x0108 [0x04] DEPRECATED_NOP(unused=0x1501)
     0x010B [0x80] LOAD_WAIT(entity=Unknown NPC (ID: 2148565014/0x80108016))
     0x0110 [0x17] 8762* = cos(0x6020) * 0x0104
     0x0117 [0x2F] Unnamed NPC (ID: 17063969/0x01046021)->Render.Flags0 &= ~0x80000 // Bit 19
     0x011D [0x4E] SET_ENTITY_HIDE_FLAG: Show Unnamed NPC (ID: 17063969/0x01046021)
     0x0123 [0xBA] SET_ENTITY_POSITION(entity_id=Unnamed NPC (ID: 17063969/0x01046021), pos_x=-66.350*, pos_z=-95.864*, pos_y=-4.499*, direction=288.6*)
     0x0130 [0x80] LOAD_WAIT(entity=Unnamed NPC (ID: 17063969/0x01046021))
     0x0135 [0x2F] Unnamed NPC (ID: 17063970/0x01046022)->Render.Flags0 &= ~0x80000 // Bit 19
     0x013B [0x4E] SET_ENTITY_HIDE_FLAG: Show Unnamed NPC (ID: 17063970/0x01046022)
     0x0141 [0xBA] SET_ENTITY_POSITION(entity_id=Unnamed NPC (ID: 17063970/0x01046022), pos_x=-67.951*, pos_z=-96.002*, pos_y=-4.500*, direction=283.2*)
     0x014E [0x80] LOAD_WAIT(entity=Unnamed NPC (ID: 17063970/0x01046022))
     0x0153 [0x2F] Unnamed NPC (ID: 17063971/0x01046023)->Render.Flags0 &= ~0x80000 // Bit 19
     0x0159 [0x4E] SET_ENTITY_HIDE_FLAG: Show Unnamed NPC (ID: 17063971/0x01046023)
     0x015F [0xBA] SET_ENTITY_POSITION(entity_id=Unnamed NPC (ID: 17063971/0x01046023), pos_x=-66.220*, pos_z=-97.210*, pos_y=-4.499*, direction=288.6*)
     0x016C [0x80] LOAD_WAIT(entity=Unnamed NPC (ID: 17063971/0x01046023))
     0x0171 [0x03] Work_Zone[2] = 0*
     0x0176 [0x02] IF !(Work_Zone[35] < 0*) GOTO 0x018E
     0x017E [0x02] IF !(Work_Zone[35] >= 64*) GOTO 0x018E
     0x0186 [0x9D] ExtData[1]->WorkLocal[48] = 0x2E8E[Work_Zone[35]] // Read WORD
     0x018E [0x4E] SET_ENTITY_HIDE_FLAG: Hide LocalPlayer
     0x0194 [0x1A] CALL_SUBROUTINE(address=0x19F9)
     0x0197 [0x1A] CALL_SUBROUTINE(address=0x204C)
     0x019A [0x06] ExtData[1]->WorkLocal[0] = 0
     0x019D [0x06] ExtData[1]->WorkLocal[2] = 0
     0x01A0 [0x06] Work_Zone[49] = 0
     0x01A3 [0x02] IF !(ExtData[1]->WorkLocal[0] >= 32*) GOTO 0x01C0
     0x01AB [0x9D] ExtData[1]->WorkLocal[0] = Work_Zone[0*][ExtData[1]->WorkLocal[2]] // Via remapped space
     0x01B3 [0x07] Work_Zone[49] += ExtData[1]->WorkLocal[2]
     0x01B8 [0x07] ExtData[1]->WorkLocal[0] += 1*
     0x01BD [0x01] GOTO 0x01A3
     0x01C0 [0x06] ExtData[1]->WorkLocal[0] = 0
     0x01C3 [0x06] ExtData[1]->WorkLocal[2] = 0
     0x01C6 [0x06] Work_Zone[51] = 0
     0x01C9 [0x02] IF !(ExtData[1]->WorkLocal[0] > 33*) GOTO 0x01E6
     0x01D1 [0x9D] ExtData[1]->WorkLocal[0] = Work_Zone[0*][ExtData[1]->WorkLocal[2]] // Via remapped space
     0x01D9 [0x07] Work_Zone[51] += ExtData[1]->WorkLocal[2]
     0x01DE [0x07] ExtData[1]->WorkLocal[0] += 1*
     0x01E3 [0x01] GOTO 0x01C9
     0x01E6 [0x06] Work_Zone[2] = 0
     0x01E9 [0x02] IF !(Work_Zone[2] >= Work_Zone[52]) GOTO 0x01FE
     0x01F1 [0x3C] SET_BIT_FLAG_CONDITIONAL(target_work_offset=ExtData[1]->WorkLocal[46], bit_index_work_offset=Work_Zone[2], condition_work_offset=1*)
     0x01F8 [0x0B] Work_Zone[2]++
     0x01FB [0x01] GOTO 0x01E9
     0x01FE [0x03] ExtData[1]->WorkLocal[0] = Work_Zone[46]
     0x0203 [0x40] SET_BIT_WORK_RANGE(start_bit=0*, end_bit=7*, target=Work_Zone[53], source=ExtData[1]->WorkLocal[0])
     0x020C [0x40] SET_BIT_WORK_RANGE(start_bit=8*, end_bit=15*, target=Work_Zone[53], source=ExtData[1]->WorkLocal[0])
     0x0215 [0x40] SET_BIT_WORK_RANGE(start_bit=16*, end_bit=23*, target=Work_Zone[53], source=ExtData[1]->WorkLocal[0])
     0x021E [0x40] SET_BIT_WORK_RANGE(start_bit=24*, end_bit=31*, target=Work_Zone[53], source=ExtData[1]->WorkLocal[0])
     0x0227 [0x40] SET_BIT_WORK_RANGE(start_bit=0*, end_bit=7*, target=Work_Zone[54], source=ExtData[1]->WorkLocal[0])
     0x0230 [0x40] SET_BIT_WORK_RANGE(start_bit=8*, end_bit=15*, target=Work_Zone[54], source=ExtData[1]->WorkLocal[0])
     0x0239 [0x40] SET_BIT_WORK_RANGE(start_bit=16*, end_bit=23*, target=Work_Zone[54], source=ExtData[1]->WorkLocal[0])
# Dead code (unreachable instructions):
     0x0A70 [0x1B] RETURN
```

### Event 65535.2

#### Metadata

| Field        | Value     |
|--------------|-----------|
| Entrypoint   | 0x0A71    |
| Data Size    | 300 bytes |
| Instructions | 38        |

```
      00 01 02 03 04 05 06 07  08 09 0A 0B 0C 0D 0E 0F
      -- -- -- -- -- -- -- --  -- -- -- -- -- -- -- --
0A70:    06 07 00 02 07 00 34  10 03 99 0A 3E 2B 00 07   ......4....>+..
0A80: 00 93 0A 1A 4A 10 1A C5  14 03 03 10 07 00 07 03  ....J...........
0A90: 10 0A 80 0B 07 00 01 74  0A 03 02 10 02 80 03 04  .......t........
0AA0: 10 2F 80 2B 19 60 04 01  30 80 1C 31 80 06 07 00  ./.+.`..0..1....
0AB0: 02 07 00 34 10 03 8D 0B  3E 2B 00 07 00 87 0B 02  ...4....>+......
0AC0: 07 00 02 80 00 D8 0A BB  25 80 11 60 04 01 11 60  ........%..`...`
0AD0: 04 01 73 74 61 74 02 80  02 07 00 0A 80 00 F1 0A  ..stat..........
0AE0: BB 25 80 12 60 04 01 12  60 04 01 73 74 61 74 02  .%..`...`..stat.
0AF0: 80 02 07 00 26 80 00 0A  0B BB 25 80 13 60 04 01  ....&.....%..`..
0B00: 13 60 04 01 73 74 61 74  02 80 02 07 00 2A 80 00  .`..stat.....*..
0B10: 23 0B BB 25 80 14 60 04  01 14 60 04 01 73 74 61  #..%..`...`..sta
0B20: 74 02 80 02 07 00 06 80  00 3C 0B BB 25 80 15 60  t........<..%..`
0B30: 04 01 15 60 04 01 73 74  61 74 02 80 02 07 00 07  ...`..stat......
0B40: 80 00 55 0B BB 25 80 16  60 04 01 16 60 04 01 73  ..U..%..`...`..s
0B50: 74 61 74 02 80 02 07 00  2B 80 00 6E 0B BB 25 80  tat.....+..n..%.
0B60: 17 60 04 01 17 60 04 01  73 74 61 74 02 80 02 07  .`...`..stat....
0B70: 00 22 80 00 87 0B BB 25  80 18 60 04 01 18 60 04  .".....%..`...`.
0B80: 01 73 74 61 74 02 80 0B  07 00 01 B0 0A 03 02 10  .stat...........
0B90: 02 80 2B 19 60 04 01 32  80 1C 31 80 00           ..+.`..2..1..   
```

#### Opcodes

```
  0: 0x0A71 [0x06] ExtData[1]->WorkLocal[7] = 0
  1: 0x0A74 [0x02] IF !(ExtData[1]->WorkLocal[7] >= Work_Zone[52]) GOTO 0x0A99
  2: 0x0A7C [0x3E] IF !(ExtData[1]->WorkLocal[43] bit ExtData[1]->WorkLocal[7]) GOTO 0x0A93
  3: 0x0A83 [0x1A] CALL_SUBROUTINE(address=0x104A)
  4: 0x0A86 [0x1A] CALL_SUBROUTINE(address=0x14C5)
  5: 0x0A89 [0x03] Work_Zone[3] = ExtData[1]->WorkLocal[7]
  6: 0x0A8E [0x07] Work_Zone[3] += 1*
  7: 0x0A93 [0x0B] ExtData[1]->WorkLocal[7]++
  8: 0x0A96 [0x01] GOTO 0x0A74
  9: 0x0A99 [0x03] Work_Zone[2] = 0*
 10: 0x0A9E [0x03] Work_Zone[4] = 2389*
 11: 0x0AA3 [0x2B] Goccilo (ID: 17063961/0x01046019) [8842*]:
     "What's this!? #$1 $0's jockey has pulled out $2!"
 12: 0x0AAA [0x1C] WAIT(60* ticks)
 13: 0x0AAD [0x06] ExtData[1]->WorkLocal[7] = 0

SUBROUTINE_0AB0:
 14: 0x0AB0 [0x02] IF !(ExtData[1]->WorkLocal[7] >= Work_Zone[52]) GOTO 0x0B8D
 15: 0x0AB8 [0x3E] IF !(ExtData[1]->WorkLocal[43] bit ExtData[1]->WorkLocal[7]) GOTO 0x0B87
 16: 0x0ABF [0x02] IF !(ExtData[1]->WorkLocal[7] == 0*) GOTO 0x0AD8
 17: 0x0AC7 [0xBB] LOAD_EVENT_SCHEDULER_ALT: Load scheduler "stat" with entities [Unnamed NPC (ID: 17063953/0x01046011), Unnamed NPC (ID: 17063953/0x01046011)], work=[24*, 0*]
 18: 0x0AD8 [0x02] IF !(ExtData[1]->WorkLocal[7] == 1*) GOTO 0x0AF1
 19: 0x0AE0 [0xBB] LOAD_EVENT_SCHEDULER_ALT: Load scheduler "stat" with entities [Unnamed NPC (ID: 17063954/0x01046012), Unnamed NPC (ID: 17063954/0x01046012)], work=[24*, 0*]
 20: 0x0AF1 [0x02] IF !(ExtData[1]->WorkLocal[7] == 2*) GOTO 0x0B0A
 21: 0x0AF9 [0xBB] LOAD_EVENT_SCHEDULER_ALT: Load scheduler "stat" with entities [Unnamed NPC (ID: 17063955/0x01046013), Unnamed NPC (ID: 17063955/0x01046013)], work=[24*, 0*]
 22: 0x0B0A [0x02] IF !(ExtData[1]->WorkLocal[7] == 3*) GOTO 0x0B23
 23: 0x0B12 [0xBB] LOAD_EVENT_SCHEDULER_ALT: Load scheduler "stat" with entities [Unnamed NPC (ID: 17063956/0x01046014), Unnamed NPC (ID: 17063956/0x01046014)], work=[24*, 0*]
 24: 0x0B23 [0x02] IF !(ExtData[1]->WorkLocal[7] == 4*) GOTO 0x0B3C
 25: 0x0B2B [0xBB] LOAD_EVENT_SCHEDULER_ALT: Load scheduler "stat" with entities [Unnamed NPC (ID: 17063957/0x01046015), Unnamed NPC (ID: 17063957/0x01046015)], work=[24*, 0*]
 26: 0x0B3C [0x02] IF !(ExtData[1]->WorkLocal[7] == 5*) GOTO 0x0B55
 27: 0x0B44 [0xBB] LOAD_EVENT_SCHEDULER_ALT: Load scheduler "stat" with entities [Unnamed NPC (ID: 17063958/0x01046016), Unnamed NPC (ID: 17063958/0x01046016)], work=[24*, 0*]
 28: 0x0B55 [0x02] IF !(ExtData[1]->WorkLocal[7] == 6*) GOTO 0x0B6E
 29: 0x0B5D [0xBB] LOAD_EVENT_SCHEDULER_ALT: Load scheduler "stat" with entities [Unnamed NPC (ID: 17063959/0x01046017), Unnamed NPC (ID: 17063959/0x01046017)], work=[24*, 0*]
 30: 0x0B6E [0x02] IF !(ExtData[1]->WorkLocal[7] == 7*) GOTO 0x0B87
 31: 0x0B76 [0xBB] LOAD_EVENT_SCHEDULER_ALT: Load scheduler "stat" with entities [Unnamed NPC (ID: 17063960/0x01046018), Unnamed NPC (ID: 17063960/0x01046018)], work=[24*, 0*]
 32: 0x0B87 [0x0B] ExtData[1]->WorkLocal[7]++
 33: 0x0B8A [0x01] GOTO 0x0AB0
 34: 0x0B8D [0x03] Work_Zone[2] = 0*
 35: 0x0B92 [0x2B] Goccilo (ID: 17063961/0x01046019) [8844*]:
     "Incredible! $0's speed is approaching dangerous limits!"
 36: 0x0B99 [0x1C] WAIT(60* ticks)
 37: 0x0B9C [0x00] END_REQSTACK()
```

### Event 65535.3

#### Metadata

| Field        | Value    |
|--------------|----------|
| Entrypoint   | 0x0B9D   |
| Data Size    | 76 bytes |
| Instructions | 17       |

```
      00 01 02 03 04 05 06 07  08 09 0A 0B 0C 0D 0E 0F
      -- -- -- -- -- -- -- --  -- -- -- -- -- -- -- --
0B90:                                         06 07 00               ...
0BA0: 02 07 00 34 10 03 C5 0B  3E 2B 00 07 00 BF 0B 1A  ...4....>+......
0BB0: 13 11 1A C5 14 03 03 10  07 00 07 03 10 0A 80 0B  ................
0BC0: 07 00 01 A0 0B 03 02 10  02 80 03 04 10 33 80 2B  .............3.+
0BD0: 19 60 04 01 30 80 1C 31  80 03 02 10 02 80 2B 19  .`..0..1......+.
0BE0: 60 04 01 34 80 1C 31 80  00                       `..4..1..       
```

#### Opcodes

```
  0: 0x0B9D [0x06] ExtData[1]->WorkLocal[7] = 0
  1: 0x0BA0 [0x02] IF !(ExtData[1]->WorkLocal[7] >= Work_Zone[52]) GOTO 0x0BC5
  2: 0x0BA8 [0x3E] IF !(ExtData[1]->WorkLocal[43] bit ExtData[1]->WorkLocal[7]) GOTO 0x0BBF
  3: 0x0BAF [0x1A] CALL_SUBROUTINE(address=0x1113)
  4: 0x0BB2 [0x1A] CALL_SUBROUTINE(address=0x14C5)
  5: 0x0BB5 [0x03] Work_Zone[3] = ExtData[1]->WorkLocal[7]
  6: 0x0BBA [0x07] Work_Zone[3] += 1*
  7: 0x0BBF [0x0B] ExtData[1]->WorkLocal[7]++
  8: 0x0BC2 [0x01] GOTO 0x0BA0
  9: 0x0BC5 [0x03] Work_Zone[2] = 0*
 10: 0x0BCA [0x03] Work_Zone[4] = 2390*
 11: 0x0BCF [0x2B] Goccilo (ID: 17063961/0x01046019) [8842*]:
     "What's this!? #$1 $0's jockey has pulled out $2!"
 12: 0x0BD6 [0x1C] WAIT(60* ticks)
 13: 0x0BD9 [0x03] Work_Zone[2] = 0*
 14: 0x0BDE [0x2B] Goccilo (ID: 17063961/0x01046019) [8845*]:
     "It looks like $0 is storing its stamina for one final dash to the finish!"
 15: 0x0BE5 [0x1C] WAIT(60* ticks)
 16: 0x0BE8 [0x00] END_REQSTACK()
```

### Event 65535.4

#### Metadata

| Field        | Value    |
|--------------|----------|
| Entrypoint   | 0x0BE9   |
| Data Size    | 76 bytes |
| Instructions | 17       |

```
      00 01 02 03 04 05 06 07  08 09 0A 0B 0C 0D 0E 0F
      -- -- -- -- -- -- -- --  -- -- -- -- -- -- -- --
0BE0:                             06 07 00 02 07 00 34           ......4
0BF0: 10 03 11 0C 3E 2B 00 07  00 0B 0C 1A DC 11 1A C5  ....>+..........
0C00: 14 03 03 10 07 00 07 03  10 0A 80 0B 07 00 01 EC  ................
0C10: 0B 03 02 10 02 80 03 04  10 35 80 2B 19 60 04 01  .........5.+.`..
0C20: 30 80 1C 31 80 03 02 10  02 80 2B 19 60 04 01 36  0..1......+.`..6
0C30: 80 1C 31 80 00                                    ..1..           
```

#### Opcodes

```
  0: 0x0BE9 [0x06] ExtData[1]->WorkLocal[7] = 0
  1: 0x0BEC [0x02] IF !(ExtData[1]->WorkLocal[7] >= Work_Zone[52]) GOTO 0x0C11
  2: 0x0BF4 [0x3E] IF !(ExtData[1]->WorkLocal[43] bit ExtData[1]->WorkLocal[7]) GOTO 0x0C0B
  3: 0x0BFB [0x1A] CALL_SUBROUTINE(address=0x11DC)
  4: 0x0BFE [0x1A] CALL_SUBROUTINE(address=0x14C5)
  5: 0x0C01 [0x03] Work_Zone[3] = ExtData[1]->WorkLocal[7]
  6: 0x0C06 [0x07] Work_Zone[3] += 1*
  7: 0x0C0B [0x0B] ExtData[1]->WorkLocal[7]++
  8: 0x0C0E [0x01] GOTO 0x0BEC
  9: 0x0C11 [0x03] Work_Zone[2] = 0*
 10: 0x0C16 [0x03] Work_Zone[4] = 2391*
 11: 0x0C1B [0x2B] Goccilo (ID: 17063961/0x01046019) [8842*]:
     "What's this!? #$1 $0's jockey has pulled out $2!"
 12: 0x0C22 [0x1C] WAIT(60* ticks)
 13: 0x0C25 [0x03] Work_Zone[2] = 0*
 14: 0x0C2A [0x2B] Goccilo (ID: 17063961/0x01046019) [8846*]:
     "$0 looks unstoppable! I would be surprised if it was affected by any further attacks."
 15: 0x0C31 [0x1C] WAIT(60* ticks)
 16: 0x0C34 [0x00] END_REQSTACK()
```

### Event 65535.5

#### Metadata

| Field        | Value     |
|--------------|-----------|
| Entrypoint   | 0x0C35    |
| Data Size    | 111 bytes |
| Instructions | 25        |

```
      00 01 02 03 04 05 06 07  08 09 0A 0B 0C 0D 0E 0F
      -- -- -- -- -- -- -- --  -- -- -- -- -- -- -- --
0C30:                06 07 00  02 07 00 34 10 03 5D 0C       ......4..].
0C40: 3E 2B 00 07 00 57 0C 1A  4A 10 1A C5 14 03 03 10  >+...W..J.......
0C50: 07 00 07 03 10 0A 80 0B  07 00 01 38 0C 03 02 10  ...........8....
0C60: 02 80 03 04 10 37 80 2B  19 60 04 01 30 80 1C 31  .....7.+.`..0..1
0C70: 80 02 2C 00 02 80 01 8E  0C 1A A5 12 1A 27 17 03  ..,..........'..
0C80: 02 10 02 80 2B 19 60 04  01 38 80 01 A0 0C 1A 86  ....+.`..8......
0C90: 13 1A 5F 17 03 02 10 02  80 2B 19 60 04 01 39 80  .._......+.`..9.
0CA0: 1C 31 80 00                                       .1..            
```

#### Opcodes

```
  0: 0x0C35 [0x06] ExtData[1]->WorkLocal[7] = 0
  1: 0x0C38 [0x02] IF !(ExtData[1]->WorkLocal[7] >= Work_Zone[52]) GOTO 0x0C5D
  2: 0x0C40 [0x3E] IF !(ExtData[1]->WorkLocal[43] bit ExtData[1]->WorkLocal[7]) GOTO 0x0C57
  3: 0x0C47 [0x1A] CALL_SUBROUTINE(address=0x104A)
  4: 0x0C4A [0x1A] CALL_SUBROUTINE(address=0x14C5)
  5: 0x0C4D [0x03] Work_Zone[3] = ExtData[1]->WorkLocal[7]
  6: 0x0C52 [0x07] Work_Zone[3] += 1*
  7: 0x0C57 [0x0B] ExtData[1]->WorkLocal[7]++
  8: 0x0C5A [0x01] GOTO 0x0C38
  9: 0x0C5D [0x03] Work_Zone[2] = 0*
 10: 0x0C62 [0x03] Work_Zone[4] = 2392*
 11: 0x0C67 [0x2B] Goccilo (ID: 17063961/0x01046019) [8842*]:
     "What's this!? #$1 $0's jockey has pulled out $2!"
 12: 0x0C6E [0x1C] WAIT(60* ticks)
 13: 0x0C71 [0x02] IF !(ExtData[1]->WorkLocal[44] == 0*) GOTO 0x0C8E
 14: 0x0C79 [0x1A] CALL_SUBROUTINE(address=0x12A5)
 15: 0x0C7C [0x1A] CALL_SUBROUTINE(address=0x1727)
 16: 0x0C7F [0x03] Work_Zone[2] = 0*
 17: 0x0C84 [0x2B] Goccilo (ID: 17063961/0x01046019) [8847*]:
     "$0's speed has begun to drop off!"
 18: 0x0C8B [0x01] GOTO 0x0CA0
 19: 0x0C8E [0x1A] CALL_SUBROUTINE(address=0x1386)
 20: 0x0C91 [0x1A] CALL_SUBROUTINE(address=0x175F)
 21: 0x0C94 [0x03] Work_Zone[2] = 0*
 22: 0x0C99 [0x2B] Goccilo (ID: 17063961/0x01046019) [8855*]:
     "And yet $0 seems completely unaffected by the attack!"

SUBROUTINE_0CA0:
 23: 0x0CA0 [0x1C] WAIT(60* ticks)
 24: 0x0CA3 [0x00] END_REQSTACK()
```

### Event 65535.6

#### Metadata

| Field        | Value     |
|--------------|-----------|
| Entrypoint   | 0x0CA4    |
| Data Size    | 111 bytes |
| Instructions | 25        |

```
      00 01 02 03 04 05 06 07  08 09 0A 0B 0C 0D 0E 0F
      -- -- -- -- -- -- -- --  -- -- -- -- -- -- -- --
0CA0:             06 07 00 02  07 00 34 10 03 CC 0C 3E      ......4....>
0CB0: 2B 00 07 00 C6 0C 1A 13  11 1A C5 14 03 03 10 07  +...............
0CC0: 00 07 03 10 0A 80 0B 07  00 01 A7 0C 03 02 10 02  ................
0CD0: 80 03 04 10 3A 80 2B 19  60 04 01 30 80 1C 31 80  ....:.+.`..0..1.
0CE0: 02 2C 00 02 80 01 FD 0C  1A A5 12 1A 43 17 03 02  .,..........C...
0CF0: 10 02 80 2B 19 60 04 01  3B 80 01 0F 0D 1A 86 13  ...+.`..;.......
0D00: 1A 5F 17 03 02 10 02 80  2B 19 60 04 01 39 80 1C  ._......+.`..9..
0D10: 31 80 00                                          1..             
```

#### Opcodes

```
  0: 0x0CA4 [0x06] ExtData[1]->WorkLocal[7] = 0
  1: 0x0CA7 [0x02] IF !(ExtData[1]->WorkLocal[7] >= Work_Zone[52]) GOTO 0x0CCC
  2: 0x0CAF [0x3E] IF !(ExtData[1]->WorkLocal[43] bit ExtData[1]->WorkLocal[7]) GOTO 0x0CC6
  3: 0x0CB6 [0x1A] CALL_SUBROUTINE(address=0x1113)
  4: 0x0CB9 [0x1A] CALL_SUBROUTINE(address=0x14C5)
  5: 0x0CBC [0x03] Work_Zone[3] = ExtData[1]->WorkLocal[7]
  6: 0x0CC1 [0x07] Work_Zone[3] += 1*
  7: 0x0CC6 [0x0B] ExtData[1]->WorkLocal[7]++
  8: 0x0CC9 [0x01] GOTO 0x0CA7
  9: 0x0CCC [0x03] Work_Zone[2] = 0*
 10: 0x0CD1 [0x03] Work_Zone[4] = 2393*
 11: 0x0CD6 [0x2B] Goccilo (ID: 17063961/0x01046019) [8842*]:
     "What's this!? #$1 $0's jockey has pulled out $2!"
 12: 0x0CDD [0x1C] WAIT(60* ticks)
 13: 0x0CE0 [0x02] IF !(ExtData[1]->WorkLocal[44] == 0*) GOTO 0x0CFD
 14: 0x0CE8 [0x1A] CALL_SUBROUTINE(address=0x12A5)
 15: 0x0CEB [0x1A] CALL_SUBROUTINE(address=0x1743)
 16: 0x0CEE [0x03] Work_Zone[2] = 0*
 17: 0x0CF3 [0x2B] Goccilo (ID: 17063961/0x01046019) [8848*]:
     "It looks like $0 has begun to tire!"
 18: 0x0CFA [0x01] GOTO 0x0D0F
 19: 0x0CFD [0x1A] CALL_SUBROUTINE(address=0x1386)
 20: 0x0D00 [0x1A] CALL_SUBROUTINE(address=0x175F)
 21: 0x0D03 [0x03] Work_Zone[2] = 0*
 22: 0x0D08 [0x2B] Goccilo (ID: 17063961/0x01046019) [8855*]:
     "And yet $0 seems completely unaffected by the attack!"

SUBROUTINE_0D0F:
 23: 0x0D0F [0x1C] WAIT(60* ticks)
 24: 0x0D12 [0x00] END_REQSTACK()
```

### Event 65535.7

#### Metadata

| Field        | Value     |
|--------------|-----------|
| Entrypoint   | 0x0D13    |
| Data Size    | 142 bytes |
| Instructions | 30        |

```
      00 01 02 03 04 05 06 07  08 09 0A 0B 0C 0D 0E 0F
      -- -- -- -- -- -- -- --  -- -- -- -- -- -- -- --
0D10:          06 07 00 02 07  00 34 10 03 3B 0D 3E 2B     ......4..;.>+
0D20: 00 07 00 35 0D 1A DC 11  1A C5 14 03 03 10 07 00  ...5............
0D30: 07 03 10 0A 80 0B 07 00  01 16 0D 03 02 10 02 80  ................
0D40: 03 04 10 3C 80 2B 19 60  04 01 30 80 1C 31 80 02  ...<.+.`..0..1..
0D50: 2C 00 02 80 01 79 0D 1A  A5 12 1A 86 13 02 23 10  ,....y........#.
0D60: 06 80 00 6F 0D 2B 19 60  04 01 3D 80 01 76 0D 2B  ...o.+.`..=..v.+
0D70: 19 60 04 01 3E 80 01 9D  0D 1A 86 13 02 23 10 06  .`..>........#..
0D80: 80 00 96 0D 1A 5F 17 03  02 10 02 80 2B 19 60 04  ....._......+.`.
0D90: 01 39 80 01 9D 0D 2B 19  60 04 01 3F 80 1C 31 80  .9....+.`..?..1.
0DA0: 00                                                .               
```

#### Opcodes

```
  0: 0x0D13 [0x06] ExtData[1]->WorkLocal[7] = 0
  1: 0x0D16 [0x02] IF !(ExtData[1]->WorkLocal[7] >= Work_Zone[52]) GOTO 0x0D3B
  2: 0x0D1E [0x3E] IF !(ExtData[1]->WorkLocal[43] bit ExtData[1]->WorkLocal[7]) GOTO 0x0D35
  3: 0x0D25 [0x1A] CALL_SUBROUTINE(address=0x11DC)
  4: 0x0D28 [0x1A] CALL_SUBROUTINE(address=0x14C5)
  5: 0x0D2B [0x03] Work_Zone[3] = ExtData[1]->WorkLocal[7]
  6: 0x0D30 [0x07] Work_Zone[3] += 1*
  7: 0x0D35 [0x0B] ExtData[1]->WorkLocal[7]++
  8: 0x0D38 [0x01] GOTO 0x0D16
  9: 0x0D3B [0x03] Work_Zone[2] = 0*
 10: 0x0D40 [0x03] Work_Zone[4] = 2394*
 11: 0x0D45 [0x2B] Goccilo (ID: 17063961/0x01046019) [8842*]:
     "What's this!? #$1 $0's jockey has pulled out $2!"
 12: 0x0D4C [0x1C] WAIT(60* ticks)
 13: 0x0D4F [0x02] IF !(ExtData[1]->WorkLocal[44] == 0*) GOTO 0x0D79
 14: 0x0D57 [0x1A] CALL_SUBROUTINE(address=0x12A5)
 15: 0x0D5A [0x1A] CALL_SUBROUTINE(address=0x1386)
 16: 0x0D5D [0x02] IF !(Work_Zone[35] == 4*) GOTO 0x0D6F
 17: 0x0D65 [0x2B] Goccilo (ID: 17063961/0x01046019) [8850*]:
     "The opponent's speed has begun to drop! Who could have predicted such a turn of events!?"
 18: 0x0D6C [0x01] GOTO 0x0D76
 19: 0x0D6F [0x2B] Goccilo (ID: 17063961/0x01046019) [8849*]:
     "The speed of the other chocobos has begun to drop! Who could have predicted such a turn of events!?"

SUBROUTINE_0D76:
 20: 0x0D76 [0x01] GOTO 0x0D9D
 21: 0x0D79 [0x1A] CALL_SUBROUTINE(address=0x1386)
 22: 0x0D7C [0x02] IF !(Work_Zone[35] == 4*) GOTO 0x0D96
 23: 0x0D84 [0x1A] CALL_SUBROUTINE(address=0x175F)
 24: 0x0D87 [0x03] Work_Zone[2] = 0*
 25: 0x0D8C [0x2B] Goccilo (ID: 17063961/0x01046019) [8855*]:
     "And yet $0 seems completely unaffected by the attack!"
 26: 0x0D93 [0x01] GOTO 0x0D9D
 27: 0x0D96 [0x2B] Goccilo (ID: 17063961/0x01046019) [8856*]:
     "And yet the chocobos seem completely unaffected by the attack!"

SUBROUTINE_0D9D:
 28: 0x0D9D [0x1C] WAIT(60* ticks)
 29: 0x0DA0 [0x00] END_REQSTACK()
```

### Event 65535.8

#### Metadata

| Field        | Value     |
|--------------|-----------|
| Entrypoint   | 0x0DA1    |
| Data Size    | 147 bytes |
| Instructions | 31        |

```
      00 01 02 03 04 05 06 07  08 09 0A 0B 0C 0D 0E 0F
      -- -- -- -- -- -- -- --  -- -- -- -- -- -- -- --
0DA0:    06 07 00 02 07 00 34  10 03 C9 0D 3E 2B 00 07   ......4....>+..
0DB0: 00 C3 0D 1A DC 11 1A C5  14 03 03 10 07 00 07 03  ................
0DC0: 10 0A 80 0B 07 00 01 A4  0D 03 02 10 02 80 03 04  ................
0DD0: 10 40 80 2B 19 60 04 01  30 80 1C 31 80 02 2C 00  .@.+.`..0..1..,.
0DE0: 02 80 01 0C 0E 1A A5 12  1A 86 13 03 02 10 02 80  ................
0DF0: 02 23 10 06 80 00 02 0E  2B 19 60 04 01 41 80 01  .#......+.`..A..
0E00: 09 0E 2B 19 60 04 01 42  80 01 30 0E 1A 86 13 02  ..+.`..B..0.....
0E10: 23 10 06 80 00 29 0E 1A  5F 17 03 02 10 02 80 2B  #....).._......+
0E20: 19 60 04 01 39 80 01 30  0E 2B 19 60 04 01 3F 80  .`..9..0.+.`..?.
0E30: 1C 31 80 00                                       .1..            
```

#### Opcodes

```
  0: 0x0DA1 [0x06] ExtData[1]->WorkLocal[7] = 0
  1: 0x0DA4 [0x02] IF !(ExtData[1]->WorkLocal[7] >= Work_Zone[52]) GOTO 0x0DC9
  2: 0x0DAC [0x3E] IF !(ExtData[1]->WorkLocal[43] bit ExtData[1]->WorkLocal[7]) GOTO 0x0DC3
  3: 0x0DB3 [0x1A] CALL_SUBROUTINE(address=0x11DC)
  4: 0x0DB6 [0x1A] CALL_SUBROUTINE(address=0x14C5)
  5: 0x0DB9 [0x03] Work_Zone[3] = ExtData[1]->WorkLocal[7]
  6: 0x0DBE [0x07] Work_Zone[3] += 1*
  7: 0x0DC3 [0x0B] ExtData[1]->WorkLocal[7]++
  8: 0x0DC6 [0x01] GOTO 0x0DA4
  9: 0x0DC9 [0x03] Work_Zone[2] = 0*
 10: 0x0DCE [0x03] Work_Zone[4] = 2395*
 11: 0x0DD3 [0x2B] Goccilo (ID: 17063961/0x01046019) [8842*]:
     "What's this!? #$1 $0's jockey has pulled out $2!"
 12: 0x0DDA [0x1C] WAIT(60* ticks)
 13: 0x0DDD [0x02] IF !(ExtData[1]->WorkLocal[44] == 0*) GOTO 0x0E0C
 14: 0x0DE5 [0x1A] CALL_SUBROUTINE(address=0x12A5)
 15: 0x0DE8 [0x1A] CALL_SUBROUTINE(address=0x1386)
 16: 0x0DEB [0x03] Work_Zone[2] = 0*
 17: 0x0DF0 [0x02] IF !(Work_Zone[35] == 4*) GOTO 0x0E02
 18: 0x0DF8 [0x2B] Goccilo (ID: 17063961/0x01046019) [8852*]:
     "The other chocobo is beginning to look confused! I doubt if its jockey will be able to use any more items!"
 19: 0x0DFF [0x01] GOTO 0x0E09
 20: 0x0E02 [0x2B] Goccilo (ID: 17063961/0x01046019) [8851*]:
     "The nearby chocobos are beginning to look confused! I doubt if their jockeys will be able to use any more items!"

SUBROUTINE_0E09:
 21: 0x0E09 [0x01] GOTO 0x0E30
 22: 0x0E0C [0x1A] CALL_SUBROUTINE(address=0x1386)
 23: 0x0E0F [0x02] IF !(Work_Zone[35] == 4*) GOTO 0x0E29
 24: 0x0E17 [0x1A] CALL_SUBROUTINE(address=0x175F)
 25: 0x0E1A [0x03] Work_Zone[2] = 0*
 26: 0x0E1F [0x2B] Goccilo (ID: 17063961/0x01046019) [8855*]:
     "And yet $0 seems completely unaffected by the attack!"
 27: 0x0E26 [0x01] GOTO 0x0E30
 28: 0x0E29 [0x2B] Goccilo (ID: 17063961/0x01046019) [8856*]:
     "And yet the chocobos seem completely unaffected by the attack!"

SUBROUTINE_0E30:
 29: 0x0E30 [0x1C] WAIT(60* ticks)
 30: 0x0E33 [0x00] END_REQSTACK()
```

### Event 65535.9

#### Metadata

| Field        | Value     |
|--------------|-----------|
| Entrypoint   | 0x0E34    |
| Data Size    | 267 bytes |
| Instructions | 50        |

```
      00 01 02 03 04 05 06 07  08 09 0A 0B 0C 0D 0E 0F
      -- -- -- -- -- -- -- --  -- -- -- -- -- -- -- --
0E30:             06 07 00 02  07 00 34 10 03 5C 0E 3E      ......4..\.>
0E40: 2B 00 07 00 56 0E 1A DC  11 1A C5 14 03 03 10 07  +...V...........
0E50: 00 07 03 10 0A 80 0B 07  00 01 37 0E 03 02 10 02  ..........7.....
0E60: 80 03 04 10 43 80 2B 19  60 04 01 30 80 1C 31 80  ....C.+.`..0..1.
0E70: 02 31 00 02 80 00 7B 0E  01 3E 0F 03 31 00 02 80  .1....{..>..1...
0E80: 4E 01 1F 60 04 01 4E 01  20 60 04 01 4E 01 21 60  N..`..N. `..N.!`
0E90: 04 01 4E 01 22 60 04 01  4E 01 23 60 04 01 4E 01  ..N."`..N.#`..N.
0EA0: 19 60 04 01 2F 01 1F 60  04 01 2F 01 20 60 04 01  .`../..`../. `..
0EB0: 2F 01 21 60 04 01 2F 01  22 60 04 01 2F 01 23 60  /.!`../."`../.#`
0EC0: 04 01 2F 01 19 60 04 01  AE 00 02 80 04 80 2B 19  ../..`........+.
0ED0: 60 04 01 44 80 1C 03 80  2F 00 1F 60 04 01 2F 00  `..D..../..`../.
0EE0: 20 60 04 01 2F 00 21 60  04 01 2F 00 22 60 04 01   `../.!`../."`..
0EF0: 2F 00 23 60 04 01 2F 00  19 60 04 01 4E 00 1F 60  /.#`../..`..N..`
0F00: 04 01 4E 00 20 60 04 01  4E 00 21 60 04 01 4E 00  ..N. `..N.!`..N.
0F10: 22 60 04 01 4E 00 23 60  04 01 4E 00 19 60 04 01  "`..N.#`..N..`..
0F20: 80 1F 60 04 01 80 20 60  04 01 80 21 60 04 01 80  ..`... `...!`...
0F30: 22 60 04 01 80 23 60 04  01 80 19 60 04 01 00     "`...#`....`... 
```

#### Opcodes

```
  0: 0x0E34 [0x06] ExtData[1]->WorkLocal[7] = 0
  1: 0x0E37 [0x02] IF !(ExtData[1]->WorkLocal[7] >= Work_Zone[52]) GOTO 0x0E5C
  2: 0x0E3F [0x3E] IF !(ExtData[1]->WorkLocal[43] bit ExtData[1]->WorkLocal[7]) GOTO 0x0E56
  3: 0x0E46 [0x1A] CALL_SUBROUTINE(address=0x11DC)
  4: 0x0E49 [0x1A] CALL_SUBROUTINE(address=0x14C5)
  5: 0x0E4C [0x03] Work_Zone[3] = ExtData[1]->WorkLocal[7]
  6: 0x0E51 [0x07] Work_Zone[3] += 1*
  7: 0x0E56 [0x0B] ExtData[1]->WorkLocal[7]++
  8: 0x0E59 [0x01] GOTO 0x0E37
  9: 0x0E5C [0x03] Work_Zone[2] = 0*
 10: 0x0E61 [0x03] Work_Zone[4] = 2396*
 11: 0x0E66 [0x2B] Goccilo (ID: 17063961/0x01046019) [8842*]:
     "What's this!? #$1 $0's jockey has pulled out $2!"
 12: 0x0E6D [0x1C] WAIT(60* ticks)
 13: 0x0E70 [0x02] IF !(ExtData[1]->WorkLocal[49] == 0*) GOTO 0x0E7B
 14: 0x0E78 [0x01] GOTO 0x0F3E
 15: 0x0E7B [0x03] ExtData[1]->WorkLocal[49] = 0*
 16: 0x0E80 [0x4E] SET_ENTITY_HIDE_FLAG: Hide Unnamed NPC (ID: 17063967/0x0104601F)
 17: 0x0E86 [0x4E] SET_ENTITY_HIDE_FLAG: Hide Unnamed NPC (ID: 17063968/0x01046020)
 18: 0x0E8C [0x4E] SET_ENTITY_HIDE_FLAG: Hide Unnamed NPC (ID: 17063969/0x01046021)
 19: 0x0E92 [0x4E] SET_ENTITY_HIDE_FLAG: Hide Unnamed NPC (ID: 17063970/0x01046022)
 20: 0x0E98 [0x4E] SET_ENTITY_HIDE_FLAG: Hide Unnamed NPC (ID: 17063971/0x01046023)
 21: 0x0E9E [0x4E] SET_ENTITY_HIDE_FLAG: Hide Goccilo (ID: 17063961/0x01046019)
 22: 0x0EA4 [0x2F] Unnamed NPC (ID: 17063967/0x0104601F)->Render.Flags0 |= 0x80000 // Bit 19
 23: 0x0EAA [0x2F] Unnamed NPC (ID: 17063968/0x01046020)->Render.Flags0 |= 0x80000 // Bit 19
 24: 0x0EB0 [0x2F] Unnamed NPC (ID: 17063969/0x01046021)->Render.Flags0 |= 0x80000 // Bit 19
 25: 0x0EB6 [0x2F] Unnamed NPC (ID: 17063970/0x01046022)->Render.Flags0 |= 0x80000 // Bit 19
 26: 0x0EBC [0x2F] Unnamed NPC (ID: 17063971/0x01046023)->Render.Flags0 |= 0x80000 // Bit 19
 27: 0x0EC2 [0x2F] Goccilo (ID: 17063961/0x01046019)->Render.Flags0 |= 0x80000 // Bit 19
 28: 0x0EC8 [0xAE] MULTI_PURPOSE_ENTITY_HANDLER(case_type=0x00 - Weather, param1=0*, param2=15*)
 29: 0x0ECE [0x2B] Goccilo (ID: 17063961/0x01046019) [8853*]:
     "The rain has stopped and the clouds have begun to part! Could this be a blessing for $0!?"
 30: 0x0ED5 [0x1C] WAIT(30* ticks)
 31: 0x0ED8 [0x2F] Unnamed NPC (ID: 17063967/0x0104601F)->Render.Flags0 &= ~0x80000 // Bit 19
 32: 0x0EDE [0x2F] Unnamed NPC (ID: 17063968/0x01046020)->Render.Flags0 &= ~0x80000 // Bit 19
 33: 0x0EE4 [0x2F] Unnamed NPC (ID: 17063969/0x01046021)->Render.Flags0 &= ~0x80000 // Bit 19
 34: 0x0EEA [0x2F] Unnamed NPC (ID: 17063970/0x01046022)->Render.Flags0 &= ~0x80000 // Bit 19
 35: 0x0EF0 [0x2F] Unnamed NPC (ID: 17063971/0x01046023)->Render.Flags0 &= ~0x80000 // Bit 19
 36: 0x0EF6 [0x2F] Goccilo (ID: 17063961/0x01046019)->Render.Flags0 &= ~0x80000 // Bit 19
 37: 0x0EFC [0x4E] SET_ENTITY_HIDE_FLAG: Show Unnamed NPC (ID: 17063967/0x0104601F)
 38: 0x0F02 [0x4E] SET_ENTITY_HIDE_FLAG: Show Unnamed NPC (ID: 17063968/0x01046020)
 39: 0x0F08 [0x4E] SET_ENTITY_HIDE_FLAG: Show Unnamed NPC (ID: 17063969/0x01046021)
 40: 0x0F0E [0x4E] SET_ENTITY_HIDE_FLAG: Show Unnamed NPC (ID: 17063970/0x01046022)
 41: 0x0F14 [0x4E] SET_ENTITY_HIDE_FLAG: Show Unnamed NPC (ID: 17063971/0x01046023)
 42: 0x0F1A [0x4E] SET_ENTITY_HIDE_FLAG: Show Goccilo (ID: 17063961/0x01046019)
 43: 0x0F20 [0x80] LOAD_WAIT(entity=Unnamed NPC (ID: 17063967/0x0104601F))
 44: 0x0F25 [0x80] LOAD_WAIT(entity=Unnamed NPC (ID: 17063968/0x01046020))
 45: 0x0F2A [0x80] LOAD_WAIT(entity=Unnamed NPC (ID: 17063969/0x01046021))
 46: 0x0F2F [0x80] LOAD_WAIT(entity=Unnamed NPC (ID: 17063970/0x01046022))
 47: 0x0F34 [0x80] LOAD_WAIT(entity=Unnamed NPC (ID: 17063971/0x01046023))
 48: 0x0F39 [0x80] LOAD_WAIT(entity=Goccilo (ID: 17063961/0x01046019))

SUBROUTINE_0F3E:
 49: 0x0F3E [0x00] END_REQSTACK()
```

### Event 65535.10

#### Metadata

| Field        | Value      |
|--------------|------------|
| Entrypoint   | 0x0F3F     |
| Data Size    | 1320 bytes |
| Instructions | 67         |

```
      00 01 02 03 04 05 06 07  08 09 0A 0B 0C 0D 0E 0F
      -- -- -- -- -- -- -- --  -- -- -- -- -- -- -- --
0F30:                                               06                 .
0F40: 07 00 02 07 00 34 10 03  67 0F 3E 2B 00 07 00 61  .....4..g.>+...a
0F50: 0F 1A DC 11 1A C5 14 03  03 10 07 00 07 03 10 0A  ................
0F60: 80 0B 07 00 01 42 0F 03  02 10 02 80 03 04 10 45  .....B.........E
0F70: 80 2B 19 60 04 01 30 80  1C 31 80 02 31 00 2B 80  .+.`..0..1..1.+.
0F80: 00 86 0F 01 49 10 4E 01  1F 60 04 01 4E 01 20 60  ....I.N..`..N. `
0F90: 04 01 4E 01 21 60 04 01  4E 01 22 60 04 01 4E 01  ..N.!`..N."`..N.
0FA0: 23 60 04 01 4E 01 19 60  04 01 2F 01 1F 60 04 01  #`..N..`../..`..
0FB0: 2F 01 20 60 04 01 2F 01  21 60 04 01 2F 01 22 60  /. `../.!`../."`
0FC0: 04 01 2F 01 23 60 04 01  2F 01 19 60 04 01 03 31  ../.#`../..`...1
0FD0: 00 2B 80 AE 00 2B 80 04  80 2B 19 60 04 01 46 80  .+...+...+.`..F.
0FE0: 1C 03 80 2F 00 1F 60 04  01 2F 00 20 60 04 01 2F  .../..`../. `../
0FF0: 00 21 60 04 01 2F 00 22  60 04 01 2F 00 23 60 04  .!`../."`../.#`.
1000: 01 2F 00 19 60 04 01 4E  00 1F 60 04 01 4E 00 20  ./..`..N..`..N. 
1010: 60 04 01 4E 00 21 60 04  01 4E 00 22 60 04 01 4E  `..N.!`..N."`..N
1020: 00 23 60 04 01 4E 00 19  60 04 01 80 1F 60 04 01  .#`..N..`....`..
1030: 80 20 60 04 01 80 21 60  04 01 80 22 60 04 01 80  . `...!`..."`...
1040: 23 60 04 01 80 19 60 04  01 00 02 07 00 02 80 00  #`....`.........
1050: 63 10 BB 47 80 11 60 04  01 11 60 04 01 6D 61 69  c..G..`...`..mai
1060: 6E 02 80 02 07 00 0A 80  00 7C 10 BB 47 80 12 60  n........|..G..`
1070: 04 01 12 60 04 01 6D 61  69 6E 02 80 02 07 00 26  ...`..main.....&
1080: 80 00 95 10 BB 47 80 13  60 04 01 13 60 04 01 6D  .....G..`...`..m
1090: 61 69 6E 02 80 02 07 00  2A 80 00 AE 10 BB 47 80  ain.....*.....G.
10A0: 14 60 04 01 14 60 04 01  6D 61 69 6E 02 80 02 07  .`...`..main....
10B0: 00 06 80 00 C7 10 BB 47  80 15 60 04 01 15 60 04  .......G..`...`.
10C0: 01 6D 61 69 6E 02 80 02  07 00 07 80 00 E0 10 BB  .main...........
10D0: 47 80 16 60 04 01 16 60  04 01 6D 61 69 6E 02 80  G..`...`..main..
10E0: 02 07 00 2B 80 00 F9 10  BB 47 80 17 60 04 01 17  ...+.....G..`...
10F0: 60 04 01 6D 61 69 6E 02  80 02 07 00 22 80 00 12  `..main....."...
1100: 11 BB 47 80 18 60 04 01  18 60 04 01 6D 61 69 6E  ..G..`...`..main
1110: 02 80 1B 02 07 00 02 80  00 2C 11 BB 48 80 11 60  .........,..H..`
1120: 04 01 11 60 04 01 6D 61  69 6E 02 80 02 07 00 0A  ...`..main......
1130: 80 00 45 11 BB 48 80 12  60 04 01 12 60 04 01 6D  ..E..H..`...`..m
1140: 61 69 6E 02 80 02 07 00  26 80 00 5E 11 BB 48 80  ain.....&..^..H.
1150: 13 60 04 01 13 60 04 01  6D 61 69 6E 02 80 02 07  .`...`..main....
1160: 00 2A 80 00 77 11 BB 48  80 14 60 04 01 14 60 04  .*..w..H..`...`.
1170: 01 6D 61 69 6E 02 80 02  07 00 06 80 00 90 11 BB  .main...........
1180: 48 80 15 60 04 01 15 60  04 01 6D 61 69 6E 02 80  H..`...`..main..
1190: 02 07 00 07 80 00 A9 11  BB 48 80 16 60 04 01 16  .........H..`...
11A0: 60 04 01 6D 61 69 6E 02  80 02 07 00 2B 80 00 C2  `..main.....+...
11B0: 11 BB 48 80 17 60 04 01  17 60 04 01 6D 61 69 6E  ..H..`...`..main
11C0: 02 80 02 07 00 22 80 00  DB 11 BB 48 80 18 60 04  .....".....H..`.
11D0: 01 18 60 04 01 6D 61 69  6E 02 80 1B 02 07 00 02  ..`..main.......
11E0: 80 00 F5 11 BB 29 80 11  60 04 01 11 60 04 01 6D  .....)..`...`..m
11F0: 61 69 6E 02 80 02 07 00  0A 80 00 0E 12 BB 29 80  ain...........).
1200: 12 60 04 01 12 60 04 01  6D 61 69 6E 02 80 02 07  .`...`..main....
1210: 00 26 80 00 27 12 BB 29  80 13 60 04 01 13 60 04  .&..'..)..`...`.
1220: 01 6D 61 69 6E 02 80 02  07 00 2A 80 00 40 12 BB  .main.....*..@..
1230: 29 80 14 60 04 01 14 60  04 01 6D 61 69 6E 02 80  )..`...`..main..
1240: 02 07 00 06 80 00 59 12  BB 29 80 15 60 04 01 15  ......Y..)..`...
1250: 60 04 01 6D 61 69 6E 02  80 02 07 00 07 80 00 72  `..main........r
1260: 12 BB 29 80 16 60 04 01  16 60 04 01 6D 61 69 6E  ..)..`...`..main
1270: 02 80 02 07 00 2B 80 00  8B 12 BB 29 80 17 60 04  .....+.....)..`.
1280: 01 17 60 04 01 6D 61 69  6E 02 80 02 07 00 22 80  ..`..main.....".
1290: 00 A4 12 BB 29 80 18 60  04 01 18 60 04 01 6D 61  ....)..`...`..ma
12A0: 69 6E 02 80 1B 06 07 00  02 07 00 34 10 03 85 13  in.........4....
12B0: 3E 2C 00 07 00 7F 13 02  07 00 02 80 00 D0 12 BB  >,..............
12C0: 49 80 11 60 04 01 11 60  04 01 6D 61 69 6E 02 80  I..`...`..main..
12D0: 02 07 00 0A 80 00 E9 12  BB 49 80 12 60 04 01 12  .........I..`...
12E0: 60 04 01 6D 61 69 6E 02  80 02 07 00 26 80 00 02  `..main.....&...
12F0: 13 BB 49 80 13 60 04 01  13 60 04 01 6D 61 69 6E  ..I..`...`..main
1300: 02 80 02 07 00 2A 80 00  1B 13 BB 49 80 14 60 04  .....*.....I..`.
1310: 01 14 60 04 01 6D 61 69  6E 02 80 02 07 00 06 80  ..`..main.......
1320: 00 34 13 BB 49 80 15 60  04 01 15 60 04 01 6D 61  .4..I..`...`..ma
1330: 69 6E 02 80 02 07 00 07  80 00 4D 13 BB 49 80 16  in........M..I..
1340: 60 04 01 16 60 04 01 6D  61 69 6E 02 80 02 07 00  `...`..main.....
1350: 2B 80 00 66 13 BB 49 80  17 60 04 01 17 60 04 01  +..f..I..`...`..
1360: 6D 61 69 6E 02 80 02 07  00 22 80 00 7F 13 BB 49  main.....".....I
1370: 80 18 60 04 01 18 60 04  01 6D 61 69 6E 02 80 0B  ..`...`..main...
1380: 07 00 01 A8 12 1B 06 07  00 02 07 00 34 10 03 66  ............4..f
1390: 14 3E 2D 00 07 00 60 14  02 07 00 02 80 00 B1 13  .>-...`.........
13A0: 62 22 80 11 60 04 01 11  60 04 01 6D 61 69 6E 02  b"..`...`..main.
13B0: 80 02 07 00 0A 80 00 CA  13 62 22 80 12 60 04 01  .........b"..`..
13C0: 12 60 04 01 6D 61 69 6E  02 80 02 07 00 26 80 00  .`..main.....&..
13D0: E3 13 62 22 80 13 60 04  01 13 60 04 01 6D 61 69  ..b"..`...`..mai
13E0: 6E 02 80 02 07 00 2A 80  00 FC 13 62 22 80 14 60  n.....*....b"..`
13F0: 04 01 14 60 04 01 6D 61  69 6E 02 80 02 07 00 06  ...`..main......
1400: 80 00 15 14 62 22 80 15  60 04 01 15 60 04 01 6D  ....b"..`...`..m
1410: 61 69 6E 02 80 02 07 00  07 80 00 2E 14 62 22 80  ain..........b".
1420: 16 60 04 01 16 60 04 01  6D 61 69 6E 02 80 02 07  .`...`..main....
1430: 00 2B 80 00 47 14 62 22  80 17 60 04 01 17 60 04  .+..G.b"..`...`.
1440: 01 6D 61 69 6E 02 80 02  07 00 22 80 00 60 14 62  .main....."..`.b
1450: 22 80 18 60 04 01 18 60  04 01 6D 61 69 6E 02 80  "..`...`..main..
1460: 0B 07 00 01 89 13 1B                              .......         
```

#### Opcodes

```
  0: 0x0F3F [0x06] ExtData[1]->WorkLocal[7] = 0
  1: 0x0F42 [0x02] IF !(ExtData[1]->WorkLocal[7] >= Work_Zone[52]) GOTO 0x0F67
  2: 0x0F4A [0x3E] IF !(ExtData[1]->WorkLocal[43] bit ExtData[1]->WorkLocal[7]) GOTO 0x0F61
  3: 0x0F51 [0x1A] CALL_SUBROUTINE(address=0x11DC)
  4: 0x0F54 [0x1A] CALL_SUBROUTINE(address=0x14C5)
  5: 0x0F57 [0x03] Work_Zone[3] = ExtData[1]->WorkLocal[7]
  6: 0x0F5C [0x07] Work_Zone[3] += 1*
  7: 0x0F61 [0x0B] ExtData[1]->WorkLocal[7]++
  8: 0x0F64 [0x01] GOTO 0x0F42
  9: 0x0F67 [0x03] Work_Zone[2] = 0*
 10: 0x0F6C [0x03] Work_Zone[4] = 2397*
 11: 0x0F71 [0x2B] Goccilo (ID: 17063961/0x01046019) [8842*]:
     "What's this!? #$1 $0's jockey has pulled out $2!"
 12: 0x0F78 [0x1C] WAIT(60* ticks)
 13: 0x0F7B [0x02] IF !(ExtData[1]->WorkLocal[49] == 6*) GOTO 0x0F86
 14: 0x0F83 [0x01] GOTO 0x1049
 15: 0x0F86 [0x4E] SET_ENTITY_HIDE_FLAG: Hide Unnamed NPC (ID: 17063967/0x0104601F)
 16: 0x0F8C [0x4E] SET_ENTITY_HIDE_FLAG: Hide Unnamed NPC (ID: 17063968/0x01046020)
 17: 0x0F92 [0x4E] SET_ENTITY_HIDE_FLAG: Hide Unnamed NPC (ID: 17063969/0x01046021)
 18: 0x0F98 [0x4E] SET_ENTITY_HIDE_FLAG: Hide Unnamed NPC (ID: 17063970/0x01046022)
 19: 0x0F9E [0x4E] SET_ENTITY_HIDE_FLAG: Hide Unnamed NPC (ID: 17063971/0x01046023)
 20: 0x0FA4 [0x4E] SET_ENTITY_HIDE_FLAG: Hide Goccilo (ID: 17063961/0x01046019)
 21: 0x0FAA [0x2F] Unnamed NPC (ID: 17063967/0x0104601F)->Render.Flags0 |= 0x80000 // Bit 19
 22: 0x0FB0 [0x2F] Unnamed NPC (ID: 17063968/0x01046020)->Render.Flags0 |= 0x80000 // Bit 19
 23: 0x0FB6 [0x2F] Unnamed NPC (ID: 17063969/0x01046021)->Render.Flags0 |= 0x80000 // Bit 19
 24: 0x0FBC [0x2F] Unnamed NPC (ID: 17063970/0x01046022)->Render.Flags0 |= 0x80000 // Bit 19
 25: 0x0FC2 [0x2F] Unnamed NPC (ID: 17063971/0x01046023)->Render.Flags0 |= 0x80000 // Bit 19
 26: 0x0FC8 [0x2F] Goccilo (ID: 17063961/0x01046019)->Render.Flags0 |= 0x80000 // Bit 19
 27: 0x0FCE [0x03] ExtData[1]->WorkLocal[49] = 6*
 28: 0x0FD3 [0xAE] MULTI_PURPOSE_ENTITY_HANDLER(case_type=0x00 - Weather, param1=6*, param2=15*)
 29: 0x0FD9 [0x2B] Goccilo (ID: 17063961/0x01046019) [8854*]:
     "Oh my! It has started to rain! Could this be a blessing for $0!?"
 30: 0x0FE0 [0x1C] WAIT(30* ticks)
 31: 0x0FE3 [0x2F] Unnamed NPC (ID: 17063967/0x0104601F)->Render.Flags0 &= ~0x80000 // Bit 19
 32: 0x0FE9 [0x2F] Unnamed NPC (ID: 17063968/0x01046020)->Render.Flags0 &= ~0x80000 // Bit 19
 33: 0x0FEF [0x2F] Unnamed NPC (ID: 17063969/0x01046021)->Render.Flags0 &= ~0x80000 // Bit 19
 34: 0x0FF5 [0x2F] Unnamed NPC (ID: 17063970/0x01046022)->Render.Flags0 &= ~0x80000 // Bit 19
 35: 0x0FFB [0x2F] Unnamed NPC (ID: 17063971/0x01046023)->Render.Flags0 &= ~0x80000 // Bit 19
 36: 0x1001 [0x2F] Goccilo (ID: 17063961/0x01046019)->Render.Flags0 &= ~0x80000 // Bit 19
 37: 0x1007 [0x4E] SET_ENTITY_HIDE_FLAG: Show Unnamed NPC (ID: 17063967/0x0104601F)
 38: 0x100D [0x4E] SET_ENTITY_HIDE_FLAG: Show Unnamed NPC (ID: 17063968/0x01046020)
 39: 0x1013 [0x4E] SET_ENTITY_HIDE_FLAG: Show Unnamed NPC (ID: 17063969/0x01046021)
 40: 0x1019 [0x4E] SET_ENTITY_HIDE_FLAG: Show Unnamed NPC (ID: 17063970/0x01046022)
 41: 0x101F [0x4E] SET_ENTITY_HIDE_FLAG: Show Unnamed NPC (ID: 17063971/0x01046023)
 42: 0x1025 [0x4E] SET_ENTITY_HIDE_FLAG: Show Goccilo (ID: 17063961/0x01046019)
 43: 0x102B [0x80] LOAD_WAIT(entity=Unnamed NPC (ID: 17063967/0x0104601F))
 44: 0x1030 [0x80] LOAD_WAIT(entity=Unnamed NPC (ID: 17063968/0x01046020))
 45: 0x1035 [0x80] LOAD_WAIT(entity=Unnamed NPC (ID: 17063969/0x01046021))
 46: 0x103A [0x80] LOAD_WAIT(entity=Unnamed NPC (ID: 17063970/0x01046022))
 47: 0x103F [0x80] LOAD_WAIT(entity=Unnamed NPC (ID: 17063971/0x01046023))
 48: 0x1044 [0x80] LOAD_WAIT(entity=Goccilo (ID: 17063961/0x01046019))

SUBROUTINE_1049:
 49: 0x1049 [0x00] END_REQSTACK()

SUBROUTINE_11DC:
 50: 0x11DC [0x02] IF !(ExtData[1]->WorkLocal[7] == 0*) GOTO 0x11F5
 51: 0x11E4 [0xBB] LOAD_EVENT_SCHEDULER_ALT: Load scheduler "main" with entities [Unnamed NPC (ID: 17063953/0x01046011), Unnamed NPC (ID: 17063953/0x01046011)], work=[28*, 0*]
 52: 0x11F5 [0x02] IF !(ExtData[1]->WorkLocal[7] == 1*) GOTO 0x120E
 53: 0x11FD [0xBB] LOAD_EVENT_SCHEDULER_ALT: Load scheduler "main" with entities [Unnamed NPC (ID: 17063954/0x01046012), Unnamed NPC (ID: 17063954/0x01046012)], work=[28*, 0*]
 54: 0x120E [0x02] IF !(ExtData[1]->WorkLocal[7] == 2*) GOTO 0x1227
 55: 0x1216 [0xBB] LOAD_EVENT_SCHEDULER_ALT: Load scheduler "main" with entities [Unnamed NPC (ID: 17063955/0x01046013), Unnamed NPC (ID: 17063955/0x01046013)], work=[28*, 0*]
 56: 0x1227 [0x02] IF !(ExtData[1]->WorkLocal[7] == 3*) GOTO 0x1240
 57: 0x122F [0xBB] LOAD_EVENT_SCHEDULER_ALT: Load scheduler "main" with entities [Unnamed NPC (ID: 17063956/0x01046014), Unnamed NPC (ID: 17063956/0x01046014)], work=[28*, 0*]
 58: 0x1240 [0x02] IF !(ExtData[1]->WorkLocal[7] == 4*) GOTO 0x1259
 59: 0x1248 [0xBB] LOAD_EVENT_SCHEDULER_ALT: Load scheduler "main" with entities [Unnamed NPC (ID: 17063957/0x01046015), Unnamed NPC (ID: 17063957/0x01046015)], work=[28*, 0*]
 60: 0x1259 [0x02] IF !(ExtData[1]->WorkLocal[7] == 5*) GOTO 0x1272
 61: 0x1261 [0xBB] LOAD_EVENT_SCHEDULER_ALT: Load scheduler "main" with entities [Unnamed NPC (ID: 17063958/0x01046016), Unnamed NPC (ID: 17063958/0x01046016)], work=[28*, 0*]
 62: 0x1272 [0x02] IF !(ExtData[1]->WorkLocal[7] == 6*) GOTO 0x128B
 63: 0x127A [0xBB] LOAD_EVENT_SCHEDULER_ALT: Load scheduler "main" with entities [Unnamed NPC (ID: 17063959/0x01046017), Unnamed NPC (ID: 17063959/0x01046017)], work=[28*, 0*]
 64: 0x128B [0x02] IF !(ExtData[1]->WorkLocal[7] == 7*) GOTO 0x12A4
 65: 0x1293 [0xBB] LOAD_EVENT_SCHEDULER_ALT: Load scheduler "main" with entities [Unnamed NPC (ID: 17063960/0x01046018), Unnamed NPC (ID: 17063960/0x01046018)], work=[28*, 0*]
 66: 0x12A4 [0x1B] RETURN
```

#### Data or dead code:

```
# Dead code (unreachable instructions):
     0x104A [0x02] IF !(ExtData[1]->WorkLocal[7] == 0*) GOTO 0x1063
     0x1052 [0xBB] LOAD_EVENT_SCHEDULER_ALT: Load scheduler "main" with entities [Unnamed NPC (ID: 17063953/0x01046011), Unnamed NPC (ID: 17063953/0x01046011)], work=[26*, 0*]
     0x1063 [0x02] IF !(ExtData[1]->WorkLocal[7] == 1*) GOTO 0x107C
     0x106B [0xBB] LOAD_EVENT_SCHEDULER_ALT: Load scheduler "main" with entities [Unnamed NPC (ID: 17063954/0x01046012), Unnamed NPC (ID: 17063954/0x01046012)], work=[26*, 0*]
     0x107C [0x02] IF !(ExtData[1]->WorkLocal[7] == 2*) GOTO 0x1095
     0x1084 [0xBB] LOAD_EVENT_SCHEDULER_ALT: Load scheduler "main" with entities [Unnamed NPC (ID: 17063955/0x01046013), Unnamed NPC (ID: 17063955/0x01046013)], work=[26*, 0*]
     0x1095 [0x02] IF !(ExtData[1]->WorkLocal[7] == 3*) GOTO 0x10AE
     0x109D [0xBB] LOAD_EVENT_SCHEDULER_ALT: Load scheduler "main" with entities [Unnamed NPC (ID: 17063956/0x01046014), Unnamed NPC (ID: 17063956/0x01046014)], work=[26*, 0*]
     0x10AE [0x02] IF !(ExtData[1]->WorkLocal[7] == 4*) GOTO 0x10C7
     0x10B6 [0xBB] LOAD_EVENT_SCHEDULER_ALT: Load scheduler "main" with entities [Unnamed NPC (ID: 17063957/0x01046015), Unnamed NPC (ID: 17063957/0x01046015)], work=[26*, 0*]
     0x10C7 [0x02] IF !(ExtData[1]->WorkLocal[7] == 5*) GOTO 0x10E0
     0x10CF [0xBB] LOAD_EVENT_SCHEDULER_ALT: Load scheduler "main" with entities [Unnamed NPC (ID: 17063958/0x01046016), Unnamed NPC (ID: 17063958/0x01046016)], work=[26*, 0*]
     0x10E0 [0x02] IF !(ExtData[1]->WorkLocal[7] == 6*) GOTO 0x10F9
     0x10E8 [0xBB] LOAD_EVENT_SCHEDULER_ALT: Load scheduler "main" with entities [Unnamed NPC (ID: 17063959/0x01046017), Unnamed NPC (ID: 17063959/0x01046017)], work=[26*, 0*]
     0x10F9 [0x02] IF !(ExtData[1]->WorkLocal[7] == 7*) GOTO 0x1112
     0x1101 [0xBB] LOAD_EVENT_SCHEDULER_ALT: Load scheduler "main" with entities [Unnamed NPC (ID: 17063960/0x01046018), Unnamed NPC (ID: 17063960/0x01046018)], work=[26*, 0*]
     0x1112 [0x1B] RETURN
     0x1113 [0x02] IF !(ExtData[1]->WorkLocal[7] == 0*) GOTO 0x112C
     0x111B [0xBB] LOAD_EVENT_SCHEDULER_ALT: Load scheduler "main" with entities [Unnamed NPC (ID: 17063953/0x01046011), Unnamed NPC (ID: 17063953/0x01046011)], work=[27*, 0*]
     0x112C [0x02] IF !(ExtData[1]->WorkLocal[7] == 1*) GOTO 0x1145
     0x1134 [0xBB] LOAD_EVENT_SCHEDULER_ALT: Load scheduler "main" with entities [Unnamed NPC (ID: 17063954/0x01046012), Unnamed NPC (ID: 17063954/0x01046012)], work=[27*, 0*]
     0x1145 [0x02] IF !(ExtData[1]->WorkLocal[7] == 2*) GOTO 0x115E
     0x114D [0xBB] LOAD_EVENT_SCHEDULER_ALT: Load scheduler "main" with entities [Unnamed NPC (ID: 17063955/0x01046013), Unnamed NPC (ID: 17063955/0x01046013)], work=[27*, 0*]
     0x115E [0x02] IF !(ExtData[1]->WorkLocal[7] == 3*) GOTO 0x1177
     0x1166 [0xBB] LOAD_EVENT_SCHEDULER_ALT: Load scheduler "main" with entities [Unnamed NPC (ID: 17063956/0x01046014), Unnamed NPC (ID: 17063956/0x01046014)], work=[27*, 0*]
     0x1177 [0x02] IF !(ExtData[1]->WorkLocal[7] == 4*) GOTO 0x1190
     0x117F [0xBB] LOAD_EVENT_SCHEDULER_ALT: Load scheduler "main" with entities [Unnamed NPC (ID: 17063957/0x01046015), Unnamed NPC (ID: 17063957/0x01046015)], work=[27*, 0*]
     0x1190 [0x02] IF !(ExtData[1]->WorkLocal[7] == 5*) GOTO 0x11A9
     0x1198 [0xBB] LOAD_EVENT_SCHEDULER_ALT: Load scheduler "main" with entities [Unnamed NPC (ID: 17063958/0x01046016), Unnamed NPC (ID: 17063958/0x01046016)], work=[27*, 0*]
     0x11A9 [0x02] IF !(ExtData[1]->WorkLocal[7] == 6*) GOTO 0x11C2
     0x11B1 [0xBB] LOAD_EVENT_SCHEDULER_ALT: Load scheduler "main" with entities [Unnamed NPC (ID: 17063959/0x01046017), Unnamed NPC (ID: 17063959/0x01046017)], work=[27*, 0*]
     0x11C2 [0x02] IF !(ExtData[1]->WorkLocal[7] == 7*) GOTO 0x11DB
     0x11CA [0xBB] LOAD_EVENT_SCHEDULER_ALT: Load scheduler "main" with entities [Unnamed NPC (ID: 17063960/0x01046018), Unnamed NPC (ID: 17063960/0x01046018)], work=[27*, 0*]
     0x11DB [0x1B] RETURN
# Dead code (unreachable instructions):
     0x12A5 [0x06] ExtData[1]->WorkLocal[7] = 0
     0x12A8 [0x02] IF !(ExtData[1]->WorkLocal[7] >= Work_Zone[52]) GOTO 0x1385
     0x12B0 [0x3E] IF !(ExtData[1]->WorkLocal[44] bit ExtData[1]->WorkLocal[7]) GOTO 0x137F
     0x12B7 [0x02] IF !(ExtData[1]->WorkLocal[7] == 0*) GOTO 0x12D0
     0x12BF [0xBB] LOAD_EVENT_SCHEDULER_ALT: Load scheduler "main" with entities [Unnamed NPC (ID: 17063953/0x01046011), Unnamed NPC (ID: 17063953/0x01046011)], work=[22*, 0*]
     0x12D0 [0x02] IF !(ExtData[1]->WorkLocal[7] == 1*) GOTO 0x12E9
     0x12D8 [0xBB] LOAD_EVENT_SCHEDULER_ALT: Load scheduler "main" with entities [Unnamed NPC (ID: 17063954/0x01046012), Unnamed NPC (ID: 17063954/0x01046012)], work=[22*, 0*]
     0x12E9 [0x02] IF !(ExtData[1]->WorkLocal[7] == 2*) GOTO 0x1302
     0x12F1 [0xBB] LOAD_EVENT_SCHEDULER_ALT: Load scheduler "main" with entities [Unnamed NPC (ID: 17063955/0x01046013), Unnamed NPC (ID: 17063955/0x01046013)], work=[22*, 0*]
     0x1302 [0x02] IF !(ExtData[1]->WorkLocal[7] == 3*) GOTO 0x131B
     0x130A [0xBB] LOAD_EVENT_SCHEDULER_ALT: Load scheduler "main" with entities [Unnamed NPC (ID: 17063956/0x01046014), Unnamed NPC (ID: 17063956/0x01046014)], work=[22*, 0*]
     0x131B [0x02] IF !(ExtData[1]->WorkLocal[7] == 4*) GOTO 0x1334
     0x1323 [0xBB] LOAD_EVENT_SCHEDULER_ALT: Load scheduler "main" with entities [Unnamed NPC (ID: 17063957/0x01046015), Unnamed NPC (ID: 17063957/0x01046015)], work=[22*, 0*]
     0x1334 [0x02] IF !(ExtData[1]->WorkLocal[7] == 5*) GOTO 0x134D
     0x133C [0xBB] LOAD_EVENT_SCHEDULER_ALT: Load scheduler "main" with entities [Unnamed NPC (ID: 17063958/0x01046016), Unnamed NPC (ID: 17063958/0x01046016)], work=[22*, 0*]
     0x134D [0x02] IF !(ExtData[1]->WorkLocal[7] == 6*) GOTO 0x1366
     0x1355 [0xBB] LOAD_EVENT_SCHEDULER_ALT: Load scheduler "main" with entities [Unnamed NPC (ID: 17063959/0x01046017), Unnamed NPC (ID: 17063959/0x01046017)], work=[22*, 0*]
     0x1366 [0x02] IF !(ExtData[1]->WorkLocal[7] == 7*) GOTO 0x137F
     0x136E [0xBB] LOAD_EVENT_SCHEDULER_ALT: Load scheduler "main" with entities [Unnamed NPC (ID: 17063960/0x01046018), Unnamed NPC (ID: 17063960/0x01046018)], work=[22*, 0*]
     0x137F [0x0B] ExtData[1]->WorkLocal[7]++
     0x1382 [0x01] GOTO 0x12A8
     0x1385 [0x1B] RETURN
     0x1386 [0x06] ExtData[1]->WorkLocal[7] = 0
     0x1389 [0x02] IF !(ExtData[1]->WorkLocal[7] >= Work_Zone[52]) GOTO 0x1466
     0x1391 [0x3E] IF !(ExtData[1]->WorkLocal[45] bit ExtData[1]->WorkLocal[7]) GOTO 0x1460
     0x1398 [0x02] IF !(ExtData[1]->WorkLocal[7] == 0*) GOTO 0x13B1
     0x13A0 [0x62] LOAD_EVENT_SCHEDULER: Load scheduler "main" with entities [Unnamed NPC (ID: 17063953/0x01046011), Unnamed NPC (ID: 17063953/0x01046011)], work=[7*, 0*]
     0x13B1 [0x02] IF !(ExtData[1]->WorkLocal[7] == 1*) GOTO 0x13CA
     0x13B9 [0x62] LOAD_EVENT_SCHEDULER: Load scheduler "main" with entities [Unnamed NPC (ID: 17063954/0x01046012), Unnamed NPC (ID: 17063954/0x01046012)], work=[7*, 0*]
     0x13CA [0x02] IF !(ExtData[1]->WorkLocal[7] == 2*) GOTO 0x13E3
