# 17063958

## Common Data

| Field            | Value                    |
|------------------|--------------------------|
| Zone             | Chocobo Circuit (ID: 70) |
| Block Size       | 1248 bytes               |
| Total Events     | 16                       |
| References Count | 27                       |

## List of Events

| Event ID                 | Entrypoint   |   Size |   Instructions |
|--------------------------|--------------|--------|----------------|
| [65535](#event-65535)    | 0x0000       |      1 |              1 |
| [100](#event-100)        | 0x0001       |      1 |              1 |
| [115](#event-115)        | 0x0002       |      1 |              1 |
| [427](#event-427)        | 0x0003       |      1 |              1 |
| [458](#event-458)        | 0x0004       |      1 |              1 |
| [469](#event-469)        | 0x0005       |      1 |              1 |
| [65535.1](#event-655351) | 0x0006       |      1 |              1 |
| [65535.2](#event-655352) | 0x0007       |     15 |              4 |
| [210](#event-210)        | 0x0016       |      1 |              1 |
| [65535.3](#event-655353) | 0x0017       |     45 |              4 |
| [65535.4](#event-655354) | 0x0044       |     93 |             12 |
| [65535.5](#event-655355) | 0x00A1       |    107 |             25 |
| [65535.6](#event-655356) | 0x010C       |    277 |             51 |
| [65535.7](#event-655357) | 0x0221       |    509 |            105 |
| [65535.8](#event-655358) | 0x041E       |      3 |              2 |
| [65535.9](#event-655359) | 0x0421       |      3 |              2 |

## DAT References (imed_data)

|   Index | Hex Value   |   Dec Value |
|---------|-------------|-------------|
|       0 | 0x0001      |           1 |
|       1 | 0x0000      |           0 |
|       2 | 0x0010      |          16 |
|       3 | 0x010E      |         270 |
|       4 | 0x000B      |          11 |
|       5 | 0x0008      |           8 |
|       6 | 0x0002      |           2 |
|       7 | 0x00BC      |         188 |
|       8 | 0x0006      |           6 |
|       9 | 0x0050      |          80 |
|      10 | 0x001B      |          27 |
|      11 | 0xFFFE91BC  |  4294873532 |
|      12 | 0xFFFEBFE5  |  4294885349 |
|      13 | 0xFFFFFE0C  |  4294966796 |
|      14 | 0x0005      |           5 |
|      15 | 0x001C      |          28 |
|      16 | 0x001E      |          30 |
|      17 | 0x0019      |          25 |
|      18 | 0x0020      |          32 |
|      19 | 0x0014      |          20 |
|      20 | 0x0017      |          23 |
|      21 | 0x0004      |           4 |
|      22 | 0x0007      |           7 |
|      23 | 0x000F      |          15 |
|      24 | 0x03E8      |        1000 |
|      25 | 0x001F      |          31 |
|      26 | 0x000D      |          13 |

## Events

### Event 65535

#### Metadata

| Field        | Value   |
|--------------|---------|
| Entrypoint   | 0x0000  |
| Data Size    | 1 bytes |
| Instructions | 1       |

```
      00 01 02 03 04 05 06 07  08 09 0A 0B 0C 0D 0E 0F
      -- -- -- -- -- -- -- --  -- -- -- -- -- -- -- --
0000: 00                                                .               
```

#### Opcodes

```
  0: 0x0000 [0x00] END_REQSTACK()
```

### Event 100

#### Metadata

| Field        | Value   |
|--------------|---------|
| Entrypoint   | 0x0001  |
| Data Size    | 1 bytes |
| Instructions | 1       |

```
      00 01 02 03 04 05 06 07  08 09 0A 0B 0C 0D 0E 0F
      -- -- -- -- -- -- -- --  -- -- -- -- -- -- -- --
0000:    00                                              .              
```

#### Opcodes

```
  0: 0x0001 [0x00] END_REQSTACK()
```

### Event 115

#### Metadata

| Field        | Value   |
|--------------|---------|
| Entrypoint   | 0x0002  |
| Data Size    | 1 bytes |
| Instructions | 1       |

```
      00 01 02 03 04 05 06 07  08 09 0A 0B 0C 0D 0E 0F
      -- -- -- -- -- -- -- --  -- -- -- -- -- -- -- --
0000:       00                                            .             
```

#### Opcodes

```
  0: 0x0002 [0x00] END_REQSTACK()
```

### Event 427

#### Metadata

| Field        | Value   |
|--------------|---------|
| Entrypoint   | 0x0003  |
| Data Size    | 1 bytes |
| Instructions | 1       |

```
      00 01 02 03 04 05 06 07  08 09 0A 0B 0C 0D 0E 0F
      -- -- -- -- -- -- -- --  -- -- -- -- -- -- -- --
0000:          00                                          .            
```

#### Opcodes

```
  0: 0x0003 [0x00] END_REQSTACK()
```

### Event 458

#### Metadata

| Field        | Value   |
|--------------|---------|
| Entrypoint   | 0x0004  |
| Data Size    | 1 bytes |
| Instructions | 1       |

```
      00 01 02 03 04 05 06 07  08 09 0A 0B 0C 0D 0E 0F
      -- -- -- -- -- -- -- --  -- -- -- -- -- -- -- --
0000:             00                                        .           
```

#### Opcodes

```
  0: 0x0004 [0x00] END_REQSTACK()
```

### Event 469

#### Metadata

| Field        | Value   |
|--------------|---------|
| Entrypoint   | 0x0005  |
| Data Size    | 1 bytes |
| Instructions | 1       |

```
      00 01 02 03 04 05 06 07  08 09 0A 0B 0C 0D 0E 0F
      -- -- -- -- -- -- -- --  -- -- -- -- -- -- -- --
0000:                00                                      .          
```

#### Opcodes

```
  0: 0x0005 [0x00] END_REQSTACK()
```

### Event 65535.1

#### Metadata

| Field        | Value   |
|--------------|---------|
| Entrypoint   | 0x0006  |
| Data Size    | 1 bytes |
| Instructions | 1       |

```
      00 01 02 03 04 05 06 07  08 09 0A 0B 0C 0D 0E 0F
      -- -- -- -- -- -- -- --  -- -- -- -- -- -- -- --
0000:                   00                                    .         
```

#### Opcodes

```
  0: 0x0006 [0x00] END_REQSTACK()
```

### Event 65535.2

#### Metadata

| Field        | Value    |
|--------------|----------|
| Entrypoint   | 0x0007   |
| Data Size    | 15 bytes |
| Instructions | 4        |

```
      00 01 02 03 04 05 06 07  08 09 0A 0B 0C 0D 0E 0F
      -- -- -- -- -- -- -- --  -- -- -- -- -- -- -- --
0000:                      7E  05 F8 FF FF 7F 22 01 2F         ~....."./
0010: 01 F8 FF FF 7F 00                                 ......          
```

#### Opcodes

```
  0: 0x0007 [0x7E] CHOCOBO_MOUNT: Dismount EventEntity (status = 0)
  1: 0x000D [0x22] ENTITY_HIDE_FLAG(enabled=0x01)
  2: 0x000F [0x2F] EventEntity->Render.Flags0 |= 0x80000 // Bit 19
  3: 0x0015 [0x00] END_REQSTACK()
```

### Event 210

#### Metadata

| Field        | Value   |
|--------------|---------|
| Entrypoint   | 0x0016  |
| Data Size    | 1 bytes |
| Instructions | 1       |

```
      00 01 02 03 04 05 06 07  08 09 0A 0B 0C 0D 0E 0F
      -- -- -- -- -- -- -- --  -- -- -- -- -- -- -- --
0010:                   00                                    .         
```

#### Opcodes

```
  0: 0x0016 [0x00] END_REQSTACK()
```

### Event 65535.3

#### Metadata

| Field        | Value    |
|--------------|----------|
| Entrypoint   | 0x0017   |
| Data Size    | 45 bytes |
| Instructions | 4        |

```
      00 01 02 03 04 05 06 07  08 09 0A 0B 0C 0D 0E 0F
      -- -- -- -- -- -- -- --  -- -- -- -- -- -- -- --
0010:                      B6  0B 00 80 01 80 01 80 02         .........
0020: 80 02 80 02 80 02 80 03  80 01 80 B4 00 06 00 57  ...............W
0030: 61 68 62 6F 75 64 00 00  00 00 00 00 00 00 00 B5  ahboud..........
0040: 00 06 00 00                                       ....            
```

#### Opcodes

```
  0: 0x0017 [0xB6] ENTITY_APPEARANCE_HANDLER(case=Full entity look, race=1*, hair=0*, head=0*, body=16*, hands=16*, legs=16*, feet=16*, main=270*, sub=0*)
  1: 0x002B [0xB4] UI_WINDOW_STRING_HANDLER(case=0x00 - Copy string from opcode, work_offset=ExtData[1]->WorkLocal[6], string="Wahboud")
  2: 0x003F [0xB5] SET_EVENT_ENTITY_NAME: Change EventEntity name to ExtData[1]->WorkLocal[6]
  3: 0x0043 [0x00] END_REQSTACK()
```

### Event 65535.4

#### Metadata

| Field        | Value    |
|--------------|----------|
| Entrypoint   | 0x0044   |
| Data Size    | 93 bytes |
| Instructions | 12       |

```
      00 01 02 03 04 05 06 07  08 09 0A 0B 0C 0D 0E 0F
      -- -- -- -- -- -- -- --  -- -- -- -- -- -- -- --
0040:             02 23 10 04  80 00 51 00 22 01 01 9D      .#....Q."...
0050: 00 1A AF 00 02 01 00 01  80 00 73 00 B6 0B 05 80  ..........s.....
0060: 06 80 01 80 07 80 08 80  08 80 08 80 01 80 01 80  ................
0070: 01 87 00 B6 0B 01 00 06  80 01 80 07 80 08 80 08  ................
0080: 80 08 80 01 80 01 80 7E  03 F8 FF FF 7F 02 00 01  .......~........
0090: 80 03 00 04 00 05 00 7E  04 F8 FF FF 7F 32 09 80  .......~.....2..
00A0: 00                                                .               
```

#### Opcodes

```
  0: 0x0044 [0x02] IF !(Work_Zone[35] == 11*) GOTO 0x0051
  1: 0x004C [0x22] ENTITY_HIDE_FLAG(enabled=0x01)
  2: 0x004E [0x01] GOTO 0x009D
  3: 0x0051 [0x1A] CALL_SUBROUTINE(address=0x00AF)
  4: 0x0054 [0x02] IF !(ExtData[1]->WorkLocal[1] == 0*) GOTO 0x0073
  5: 0x005C [0xB6] ENTITY_APPEARANCE_HANDLER(case=Full entity look, race=8*, hair=2*, head=0*, body=188*, hands=6*, legs=6*, feet=6*, main=0*, sub=0*)
  6: 0x0070 [0x01] GOTO 0x0087
  7: 0x0073 [0xB6] ENTITY_APPEARANCE_HANDLER(case=Full entity look, race=ExtData[1]->WorkLocal[1], hair=2*, head=0*, body=188*, hands=6*, legs=6*, feet=6*, main=0*, sub=0*)

SUBROUTINE_0087:
  8: 0x0087 [0x7E] CHOCOBO_MOUNT: Mount custom chocobo on EventEntity (index=2, color=32769, name_id=3)
  9: 0x0097 [0x7E] CHOCOBO_MOUNT: Mode 4 on EventEntity

SUBROUTINE_009D:
 10: 0x009D [0x32] ExtData[1]->MainSpeed = 80* * 0.1
 11: 0x00A0 [0x00] END_REQSTACK()
```

### Event 65535.5

#### Metadata

| Field        | Value     |
|--------------|-----------|
| Entrypoint   | 0x00A1    |
| Data Size    | 107 bytes |
| Instructions | 4         |

```
      00 01 02 03 04 05 06 07  08 09 0A 0B 0C 0D 0E 0F
      -- -- -- -- -- -- -- --  -- -- -- -- -- -- -- --
00A0:    32 0A 80 1F 00 0B 80  0C 80 0D 80 1F 01 00 BF   2..............
00B0: 20 01 80 0E 80 06 80 00  00 41 0F 80 10 80 00 00   ........A......
00C0: 01 00 41 11 80 0A 80 00  00 02 00 BF 20 01 80 0E  ..A......... ...
00D0: 80 00 80 00 00 3E 00 00  02 80 E4 00 03 03 00 00  .....>..........
00E0: 80 01 E7 00 06 03 00 3E  00 00 01 80 F6 00 03 04  .......>........
00F0: 00 00 80 01 F9 00 06 04  00 3E 00 00 05 80 08 01  .........>......
0100: 03 05 00 00 80 01 0B 01  06 04 00 1B              ............    
```

#### Opcodes

```
  0: 0x00A1 [0x32] ExtData[1]->MainSpeed = 27* * 0.1
  1: 0x00A4 [0x1F] MOVE_ENTITY: EventEntity moves to X=-93.764*, Z=-81.947*, Y=-0.500*
  2: 0x00AC [0x1F] MOVE_ENTITY: Update entity position (mode=1)
  3: 0x00AE [0x00] END_REQSTACK()
```

#### Data or dead code:

```
# Dead code (unreachable instructions):
     0x00AF [0xBF] CHOCOBO_RACING_PARAMETER_GETTER(param_type=0x20)
     0x00B1 [0x01] GOTO 0x0E80
     0x00B4 [0x80] LOAD_WAIT(entity=Unknown NPC (ID: 32774/0x00008006))
     0x00B9 [0x41] ExtData[1]->WorkLocal[1] = ExtData[1]->WorkLocal[0] (bits 28*-30*)
     0x00C2 [0x41] ExtData[1]->WorkLocal[2] = ExtData[1]->WorkLocal[0] (bits 25*-27*)
     0x00CB [0xBF] CHOCOBO_RACING_PARAMETER_GETTER(param_type=0x20)
     0x00CD [0x01] GOTO 0x0E80
     0x00D0 [0x80] LOAD_WAIT(entity=Unknown NPC (ID: 32768/0x00008000))
     0x00D5 [0x3E] IF !(ExtData[1]->WorkLocal[0] bit 16*) GOTO 0x00E4
     0x00DC [0x03] ExtData[1]->WorkLocal[3] = 1*
     0x00E1 [0x01] GOTO 0x00E7
     0x00E4 [0x06] ExtData[1]->WorkLocal[3] = 0
     0x00E7 [0x3E] IF !(ExtData[1]->WorkLocal[0] bit 0*) GOTO 0x00F6
     0x00EE [0x03] ExtData[1]->WorkLocal[4] = 1*
     0x00F3 [0x01] GOTO 0x00F9
     0x00F6 [0x06] ExtData[1]->WorkLocal[4] = 0
     0x00F9 [0x3E] IF !(ExtData[1]->WorkLocal[0] bit 8*) GOTO 0x0108
     0x0100 [0x03] ExtData[1]->WorkLocal[5] = 1*
     0x0105 [0x01] GOTO 0x010B
     0x0108 [0x06] ExtData[1]->WorkLocal[4] = 0
     0x010B [0x1B] RETURN
```

### Event 65535.6

#### Metadata

| Field        | Value     |
|--------------|-----------|
| Entrypoint   | 0x010C    |
| Data Size    | 277 bytes |
| Instructions | 51        |

```
      00 01 02 03 04 05 06 07  08 09 0A 0B 0C 0D 0E 0F
      -- -- -- -- -- -- -- --  -- -- -- -- -- -- -- --
0100:                                      03 07 00 2C              ...,
0110: 10 03 0E 00 2C 10 03 0F  00 2D 10 03 11 00 29 10  ....,....-....).
0120: 02 11 00 12 80 03 48 01  41 13 80 14 80 26 10 13  ......H.A....&..
0130: 00 03 12 00 05 80 08 12  00 13 00 07 0E 00 12 00  ................
0140: 03 13 00 12 00 01 4B 01  06 13 00 02 11 00 12 80  ......K.........
0150: 03 73 01 41 13 80 14 80  27 10 14 00 03 12 00 05  .s.A....'.......
0160: 80 08 12 00 14 00 07 0F  00 12 00 03 14 00 12 00  ................
0170: 01 76 01 06 14 00 03 08  00 0E 00 14 08 00 15 80  .v..............
0180: 9D 03 16 80 09 00 08 00  0B 08 00 9D 03 16 80 0A  ................
0190: 00 08 00 0B 08 00 9D 03  16 80 0B 00 08 00 0B 08  ................
01A0: 00 9D 03 16 80 0C 00 08  00 02 11 00 01 80 00 B4  ................
01B0: 01 01 BB 01 36 09 00 0B  00 0A 00 40 05 80 17 80  ....6......@....
01C0: 36 10 11 00 08 14 00 13  00 9D 03 01 80 13 00 11  6...............
01D0: 00 07 14 00 13 00 9D 03  01 80 12 00 11 00 14 14  ................
01E0: 00 18 80 15 14 00 12 00  03 12 00 14 00 03 13 00  ................
01F0: 11 00 14 13 00 05 80 07  13 00 0E 80 9D 03 00 80  ................
0200: 13 00 13 00 14 12 00 13  00 15 12 00 18 80 03 0D  ................
0210: 00 09 80 14 0D 00 12 00  15 0D 00 18 80 32 0D 00  .............2..
0220: 00                                                .               
```

#### Opcodes

```
  0: 0x010C [0x03] ExtData[1]->WorkLocal[7] = Work_Zone[44]
  1: 0x0111 [0x03] ExtData[1]->WorkLocal[14] = Work_Zone[44]
  2: 0x0116 [0x03] ExtData[1]->WorkLocal[15] = Work_Zone[45]
  3: 0x011B [0x03] ExtData[1]->WorkLocal[17] = Work_Zone[41]
  4: 0x0120 [0x02] IF !(ExtData[1]->WorkLocal[17] >= 32*) GOTO 0x0148
  5: 0x0128 [0x41] ExtData[1]->WorkLocal[19] = Work_Zone[38] (bits 20*-23*)
  6: 0x0131 [0x03] ExtData[1]->WorkLocal[18] = 8*
  7: 0x0136 [0x08] ExtData[1]->WorkLocal[18] -= ExtData[1]->WorkLocal[19]
  8: 0x013B [0x07] ExtData[1]->WorkLocal[14] += ExtData[1]->WorkLocal[18]
  9: 0x0140 [0x03] ExtData[1]->WorkLocal[19] = ExtData[1]->WorkLocal[18]
 10: 0x0145 [0x01] GOTO 0x014B
 11: 0x0148 [0x06] ExtData[1]->WorkLocal[19] = 0

SUBROUTINE_014B:
 12: 0x014B [0x02] IF !(ExtData[1]->WorkLocal[17] >= 32*) GOTO 0x0173
 13: 0x0153 [0x41] ExtData[1]->WorkLocal[20] = Work_Zone[39] (bits 20*-23*)
 14: 0x015C [0x03] ExtData[1]->WorkLocal[18] = 8*
 15: 0x0161 [0x08] ExtData[1]->WorkLocal[18] -= ExtData[1]->WorkLocal[20]
 16: 0x0166 [0x07] ExtData[1]->WorkLocal[15] += ExtData[1]->WorkLocal[18]
 17: 0x016B [0x03] ExtData[1]->WorkLocal[20] = ExtData[1]->WorkLocal[18]
 18: 0x0170 [0x01] GOTO 0x0176
 19: 0x0173 [0x06] ExtData[1]->WorkLocal[20] = 0

SUBROUTINE_0176:
 20: 0x0176 [0x03] ExtData[1]->WorkLocal[8] = ExtData[1]->WorkLocal[14]
 21: 0x017B [0x14] ExtData[1]->WorkLocal[8] *= 4*
 22: 0x0180 [0x9D] ExtData[1]->WorkLocal[8] = Work_Zone[7*][ExtData[1]->WorkLocal[9]] // Via remapped space
 23: 0x0188 [0x0B] ExtData[1]->WorkLocal[8]++
 24: 0x018B [0x9D] ExtData[1]->WorkLocal[8] = Work_Zone[7*][ExtData[1]->WorkLocal[10]] // Via remapped space
 25: 0x0193 [0x0B] ExtData[1]->WorkLocal[8]++
 26: 0x0196 [0x9D] ExtData[1]->WorkLocal[8] = Work_Zone[7*][ExtData[1]->WorkLocal[11]] // Via remapped space
 27: 0x019E [0x0B] ExtData[1]->WorkLocal[8]++
 28: 0x01A1 [0x9D] ExtData[1]->WorkLocal[8] = Work_Zone[7*][ExtData[1]->WorkLocal[12]] // Via remapped space
 29: 0x01A9 [0x02] IF !(ExtData[1]->WorkLocal[17] == 0*) GOTO 0x01B4
 30: 0x01B1 [0x01] GOTO 0x01BB
 31: 0x01B4 [0x36] SET_ENTITY_EVENT_POSITION(pos_x=ExtData[1]->WorkLocal[9], pos_z=ExtData[1]->WorkLocal[11], pos_y=ExtData[1]->WorkLocal[10])

SUBROUTINE_01BB:
 32: 0x01BB [0x40] SET_BIT_WORK_RANGE(start_bit=8*, end_bit=15*, target=Work_Zone[54], source=ExtData[1]->WorkLocal[17])
 33: 0x01C4 [0x08] ExtData[1]->WorkLocal[20] -= ExtData[1]->WorkLocal[19]
 34: 0x01C9 [0x9D] ExtData[1]->WorkLocal[17] = Work_Zone[0*][ExtData[1]->WorkLocal[19]] // Via remapped space
 35: 0x01D1 [0x07] ExtData[1]->WorkLocal[20] += ExtData[1]->WorkLocal[19]
 36: 0x01D6 [0x9D] ExtData[1]->WorkLocal[17] = Work_Zone[0*][ExtData[1]->WorkLocal[18]] // Via remapped space
 37: 0x01DE [0x14] ExtData[1]->WorkLocal[20] *= 1000*
 38: 0x01E3 [0x15] ExtData[1]->WorkLocal[20] /= ExtData[1]->WorkLocal[18]
 39: 0x01E8 [0x03] ExtData[1]->WorkLocal[18] = ExtData[1]->WorkLocal[20]
 40: 0x01ED [0x03] ExtData[1]->WorkLocal[19] = ExtData[1]->WorkLocal[17]
 41: 0x01F2 [0x14] ExtData[1]->WorkLocal[19] *= 8*
 42: 0x01F7 [0x07] ExtData[1]->WorkLocal[19] += 5*
 43: 0x01FC [0x9D] ExtData[1]->WorkLocal[19] = Work_Zone[1*][ExtData[1]->WorkLocal[19]] // Via remapped space
 44: 0x0204 [0x14] ExtData[1]->WorkLocal[18] *= ExtData[1]->WorkLocal[19]
 45: 0x0209 [0x15] ExtData[1]->WorkLocal[18] /= 1000*
 46: 0x020E [0x03] ExtData[1]->WorkLocal[13] = 80*
 47: 0x0213 [0x14] ExtData[1]->WorkLocal[13] *= ExtData[1]->WorkLocal[18]
 48: 0x0218 [0x15] ExtData[1]->WorkLocal[13] /= 1000*
 49: 0x021D [0x32] ExtData[1]->MainSpeed = ExtData[1]->WorkLocal[13] * 0.1
 50: 0x0220 [0x00] END_REQSTACK()
```

### Event 65535.7

#### Metadata

| Field        | Value     |
|--------------|-----------|
| Entrypoint   | 0x0221    |
| Data Size    | 509 bytes |
| Instructions | 72        |

```
      00 01 02 03 04 05 06 07  08 09 0A 0B 0C 0D 0E 0F
      -- -- -- -- -- -- -- --  -- -- -- -- -- -- -- --
0220:    03 07 00 0E 00 02 11  00 10 80 00 33 02 03 07   ...........3...
0230: 00 0F 00 02 11 00 19 80  00 43 02 03 07 00 31 10  .........C....1.
0240: 0C 07 00 02 07 00 33 10  05 3E 03 02 07 00 0F 00  ......3..>......
0250: 05 F4 02 02 31 10 07 00  05 62 02 3C 30 10 0E 80  ....1....b.<0...
0260: 00 80 02 07 00 33 10 02  6D 02 01 3E 03 02 37 10  .....3..m..>..7.
0270: 06 80 00 A6 02 BF 60 01  80 01 80 12 00 41 13 80  ......`......A..
0280: 14 80 12 00 12 00 02 12  00 01 80 00 A3 02 03 02  ................
0290: 10 31 10 07 02 10 08 80  02 02 10 07 00 05 A3 02  .1..............
02A0: 01 3E 03 01 A6 02 03 08  00 07 00 14 08 00 15 80  .>..............
02B0: 9D 03 16 80 09 00 08 00  0B 08 00 9D 03 16 80 0A  ................
02C0: 00 08 00 0B 08 00 9D 03  16 80 0B 00 08 00 0B 08  ................
02D0: 00 9D 03 16 80 0C 00 08  00 02 11 00 01 80 00 E4  ................
02E0: 02 01 EE 02 1F 00 09 00  0B 00 0A 00 1F 01 0B 07  ................
02F0: 00 01 4B 02 07 11 00 00  80 40 05 80 17 80 36 10  ..K......@....6.
0300: 11 00 3C 30 10 1A 80 00  80 03 0E 00 0F 00 9D 03  ..<0............
0310: 01 80 10 00 11 00 07 0F  00 10 00 1A 3F 03 02 11  ............?...
0320: 00 10 80 00 2B 03 03 07  00 0F 00 02 11 00 19 80  ....+...........
0330: 00 3B 03 03 07 00 31 10  0C 07 00 01 43 02 00 03  .;....1.....C...
0340: 17 00 0E 00 03 18 00 0F  00 02 11 00 12 80 03 7B  ...............{
0350: 03 BF 40 01 80 11 00 01  80 15 00 41 13 80 14 80  ..@........A....
0360: 15 00 13 00 03 12 00 05  80 08 12 00 13 00 07 0E  ................
0370: 00 12 00 03 13 00 12 00  01 80 03 03 13 00 01 80  ................
0380: 02 11 00 12 80 03 B2 03  BF 40 01 80 11 00 00 80  .........@......
0390: 16 00 41 13 80 14 80 16  00 14 00 03 12 00 05 80  ..A.............
03A0: 08 12 00 14 00 07 0F 00  12 00 03 14 00 12 00 01  ................
03B0: B7 03 03 14 00 01 80 08  14 00 13 00 9D 03 01 80  ................
03C0: 13 00 11 00 07 14 00 13  00 9D 03 01 80 12 00 11  ................
03D0: 00 14 14 00 18 80 15 14  00 12 00 03 12 00 14 00  ................
03E0: 03 13 00 11 00 14 13 00  05 80 07 13 00 0E 80 9D  ................
03F0: 03 00 80 13 00 13 00 14  12 00 13 00 15 12 00 18  ................
0400: 80 03 0D 00 09 80 14 0D  00 12 00 15 0D 00 18 80  ................
0410: 32 0D 00 03 0E 00 17 00  03 0F 00 18 00 1B        2.............  
```

#### Opcodes

```
  0: 0x0221 [0x03] ExtData[1]->WorkLocal[7] = ExtData[1]->WorkLocal[14]
  1: 0x0226 [0x02] IF !(ExtData[1]->WorkLocal[17] == 30*) GOTO 0x0233
  2: 0x022E [0x03] ExtData[1]->WorkLocal[7] = ExtData[1]->WorkLocal[15]
  3: 0x0233 [0x02] IF !(ExtData[1]->WorkLocal[17] == 31*) GOTO 0x0243
  4: 0x023B [0x03] ExtData[1]->WorkLocal[7] = Work_Zone[49]
  5: 0x0240 [0x0C] ExtData[1]->WorkLocal[7]--
  6: 0x0243 [0x02] IF !(ExtData[1]->WorkLocal[7] > Work_Zone[51]) GOTO 0x033E
  7: 0x024B [0x02] IF !(ExtData[1]->WorkLocal[7] > ExtData[1]->WorkLocal[15]) GOTO 0x02F4
  8: 0x0253 [0x02] IF !(Work_Zone[49] > ExtData[1]->WorkLocal[7]) GOTO 0x0262
  9: 0x025B [0x3C] SET_BIT_FLAG_CONDITIONAL(target_work_offset=Work_Zone[48], bit_index_work_offset=5*, condition_work_offset=1*)
 10: 0x0262 [0x02] IF !(ExtData[1]->WorkLocal[7] <= Work_Zone[51]) GOTO 0x026D
 11: 0x026A [0x01] GOTO 0x033E
 12: 0x026D [0x02] IF !(Work_Zone[55] == 2*) GOTO 0x02A6
 13: 0x0275 [0xBF] CHOCOBO_RACING_PARAMETER_GETTER(param_type=0x60)
 14: 0x0277 [0x01] GOTO 0x0180

SUBROUTINE_02A6:
 15: 0x02A6 [0x03] ExtData[1]->WorkLocal[8] = ExtData[1]->WorkLocal[7]
 16: 0x02AB [0x14] ExtData[1]->WorkLocal[8] *= 4*
 17: 0x02B0 [0x9D] ExtData[1]->WorkLocal[8] = Work_Zone[7*][ExtData[1]->WorkLocal[9]] // Via remapped space
 18: 0x02B8 [0x0B] ExtData[1]->WorkLocal[8]++
 19: 0x02BB [0x9D] ExtData[1]->WorkLocal[8] = Work_Zone[7*][ExtData[1]->WorkLocal[10]] // Via remapped space
 20: 0x02C3 [0x0B] ExtData[1]->WorkLocal[8]++
 21: 0x02C6 [0x9D] ExtData[1]->WorkLocal[8] = Work_Zone[7*][ExtData[1]->WorkLocal[11]] // Via remapped space
 22: 0x02CE [0x0B] ExtData[1]->WorkLocal[8]++
 23: 0x02D1 [0x9D] ExtData[1]->WorkLocal[8] = Work_Zone[7*][ExtData[1]->WorkLocal[12]] // Via remapped space
 24: 0x02D9 [0x02] IF !(ExtData[1]->WorkLocal[17] == 0*) GOTO 0x02E4
 25: 0x02E1 [0x01] GOTO 0x02EE
 26: 0x02E4 [0x1F] MOVE_ENTITY: EventEntity moves to X=ExtData[1]->WorkLocal[9], Z=ExtData[1]->WorkLocal[11], Y=ExtData[1]->WorkLocal[10]
 27: 0x02EC [0x1F] MOVE_ENTITY: Update entity position (mode=1)

SUBROUTINE_02EE:
 28: 0x02EE [0x0B] ExtData[1]->WorkLocal[7]++
 29: 0x02F1 [0x01] GOTO 0x024B
 30: 0x02F4 [0x07] ExtData[1]->WorkLocal[17] += 1*
 31: 0x02F9 [0x40] SET_BIT_WORK_RANGE(start_bit=8*, end_bit=15*, target=Work_Zone[54], source=ExtData[1]->WorkLocal[17])
 32: 0x0302 [0x3C] SET_BIT_FLAG_CONDITIONAL(target_work_offset=Work_Zone[48], bit_index_work_offset=13*, condition_work_offset=1*)
 33: 0x0309 [0x03] ExtData[1]->WorkLocal[14] = ExtData[1]->WorkLocal[15]
 34: 0x030E [0x9D] ExtData[1]->WorkLocal[17] = Work_Zone[0*][ExtData[1]->WorkLocal[16]] // Via remapped space
 35: 0x0316 [0x07] ExtData[1]->WorkLocal[15] += ExtData[1]->WorkLocal[16]
 36: 0x031B [0x1A] CALL_SUBROUTINE(address=0x033F)
 37: 0x031E [0x02] IF !(ExtData[1]->WorkLocal[17] == 30*) GOTO 0x032B
 38: 0x0326 [0x03] ExtData[1]->WorkLocal[7] = ExtData[1]->WorkLocal[15]
 39: 0x032B [0x02] IF !(ExtData[1]->WorkLocal[17] == 31*) GOTO 0x033B
 40: 0x0333 [0x03] ExtData[1]->WorkLocal[7] = Work_Zone[49]
 41: 0x0338 [0x0C] ExtData[1]->WorkLocal[7]--
 42: 0x033B [0x01] GOTO 0x0243

SUBROUTINE_033E:
 43: 0x033E [0x00] END_REQSTACK()

SUBROUTINE_033F:
 44: 0x033F [0x03] ExtData[1]->WorkLocal[23] = ExtData[1]->WorkLocal[14]
 45: 0x0344 [0x03] ExtData[1]->WorkLocal[24] = ExtData[1]->WorkLocal[15]
 46: 0x0349 [0x02] IF !(ExtData[1]->WorkLocal[17] >= 32*) GOTO 0x037B
 47: 0x0351 [0xBF] CHOCOBO_RACING_PARAMETER_GETTER(param_type=0x40)
 48: 0x0353 [0x01] GOTO 0x1180

SUBROUTINE_0380:
 49: 0x0380 [0x02] IF !(ExtData[1]->WorkLocal[17] >= 32*) GOTO 0x03B2
 50: 0x0388 [0xBF] CHOCOBO_RACING_PARAMETER_GETTER(param_type=0x40)
 51: 0x038A [0x01] GOTO 0x1180

SUBROUTINE_03B7:
 52: 0x03B7 [0x08] ExtData[1]->WorkLocal[20] -= ExtData[1]->WorkLocal[19]
 53: 0x03BC [0x9D] ExtData[1]->WorkLocal[17] = Work_Zone[0*][ExtData[1]->WorkLocal[19]] // Via remapped space
 54: 0x03C4 [0x07] ExtData[1]->WorkLocal[20] += ExtData[1]->WorkLocal[19]
 55: 0x03C9 [0x9D] ExtData[1]->WorkLocal[17] = Work_Zone[0*][ExtData[1]->WorkLocal[18]] // Via remapped space
 56: 0x03D1 [0x14] ExtData[1]->WorkLocal[20] *= 1000*
 57: 0x03D6 [0x15] ExtData[1]->WorkLocal[20] /= ExtData[1]->WorkLocal[18]
 58: 0x03DB [0x03] ExtData[1]->WorkLocal[18] = ExtData[1]->WorkLocal[20]
 59: 0x03E0 [0x03] ExtData[1]->WorkLocal[19] = ExtData[1]->WorkLocal[17]
 60: 0x03E5 [0x14] ExtData[1]->WorkLocal[19] *= 8*
 61: 0x03EA [0x07] ExtData[1]->WorkLocal[19] += 5*
 62: 0x03EF [0x9D] ExtData[1]->WorkLocal[19] = Work_Zone[1*][ExtData[1]->WorkLocal[19]] // Via remapped space
 63: 0x03F7 [0x14] ExtData[1]->WorkLocal[18] *= ExtData[1]->WorkLocal[19]
 64: 0x03FC [0x15] ExtData[1]->WorkLocal[18] /= 1000*
 65: 0x0401 [0x03] ExtData[1]->WorkLocal[13] = 80*
 66: 0x0406 [0x14] ExtData[1]->WorkLocal[13] *= ExtData[1]->WorkLocal[18]
 67: 0x040B [0x15] ExtData[1]->WorkLocal[13] /= 1000*
 68: 0x0410 [0x32] ExtData[1]->MainSpeed = ExtData[1]->WorkLocal[13] * 0.1
 69: 0x0413 [0x03] ExtData[1]->WorkLocal[14] = ExtData[1]->WorkLocal[23]
 70: 0x0418 [0x03] ExtData[1]->WorkLocal[15] = ExtData[1]->WorkLocal[24]
 71: 0x041D [0x1B] RETURN
```

#### Data or dead code:

```
# Dead code (unreachable instructions):
     0x027A [0x80] LOAD_WAIT(entity=Unknown NPC (ID: 323026962/0x13410012))
     0x027F [0x80] LOAD_WAIT(entity=Unknown NPC (ID: 1212436/0x00128014))
     0x0284 [0x12] 0x0200 = rand()
     0x0287 [0x12] 0x0100 = rand()
     0x028A [0x80] LOAD_WAIT(entity=Unknown NPC (ID: 50504448/0x0302A300))
     0x028F [0x02] IF !(0x3110 <= 0x0710) GOTO 0x0810
     0x0297 [0x80] LOAD_WAIT(entity=Unknown NPC (ID: 118489602/0x07100202))
     0x029C [0x00] END_REQSTACK()
     0x029D [0x05] 0x02A3 = 1
     0x02A0 [0x01] GOTO 0x033E
     0x02A3 [0x01] GOTO 0x02A6
# Dead code (unreachable instructions):
     0x0356 [0x00] END_REQSTACK()
     0x0357 [0x01] GOTO 0x1580
     0x035A [0x00] END_REQSTACK()
     0x035B [0x41] ExtData[1]->WorkLocal[19] = ExtData[1]->WorkLocal[21] (bits 20*-23*)
     0x0364 [0x03] ExtData[1]->WorkLocal[18] = 8*
     0x0369 [0x08] ExtData[1]->WorkLocal[18] -= ExtData[1]->WorkLocal[19]
     0x036E [0x07] ExtData[1]->WorkLocal[14] += ExtData[1]->WorkLocal[18]
     0x0373 [0x03] ExtData[1]->WorkLocal[19] = ExtData[1]->WorkLocal[18]
     0x0378 [0x01] GOTO 0x0380
# Dead code (unreachable instructions):
     0x038D [0x00] END_REQSTACK()
     0x038E [0x00] END_REQSTACK()
     0x038F [0x80] LOAD_WAIT(entity=Unknown NPC (ID: 323026966/0x13410016))
     0x0394 [0x80] LOAD_WAIT(entity=Unknown NPC (ID: 1474580/0x00168014))
     0x0399 [0x14] 0x0300 *= ExtData[1]->WorkLocal[18]
     0x039E [0x05] 0x0880 = 1
     0x03A1 [0x12] 0x1400 = rand()
     0x03A4 [0x00] END_REQSTACK()
     0x03A5 [0x07] ExtData[1]->WorkLocal[15] += ExtData[1]->WorkLocal[18]
     0x03AA [0x03] ExtData[1]->WorkLocal[20] = ExtData[1]->WorkLocal[18]
     0x03AF [0x01] GOTO 0x03B7
```

### Event 65535.8

#### Metadata

| Field        | Value   |
|--------------|---------|
| Entrypoint   | 0x041E  |
| Data Size    | 3 bytes |
| Instructions | 2       |

```
      00 01 02 03 04 05 06 07  08 09 0A 0B 0C 0D 0E 0F
      -- -- -- -- -- -- -- --  -- -- -- -- -- -- -- --
0410:                                            61 00                a.
0420: 00                                                .               
```

#### Opcodes

```
  0: 0x041E [0x61] EventEntity->Render.Flags2 &= ~0x00000001
  1: 0x0420 [0x00] END_REQSTACK()
```

### Event 65535.9

#### Metadata

| Field        | Value   |
|--------------|---------|
| Entrypoint   | 0x0421  |
| Data Size    | 3 bytes |
| Instructions | 2       |

```
      00 01 02 03 04 05 06 07  08 09 0A 0B 0C 0D 0E 0F
      -- -- -- -- -- -- -- --  -- -- -- -- -- -- -- --
0420:    61 01 00                                        a..            
```

#### Opcodes

```
  0: 0x0421 [0x61] EventEntity->Render.Flags2 |= 0x00000001
  1: 0x0423 [0x00] END_REQSTACK()
```
