# 17064010

## Common Data

| Field            | Value                    |
|------------------|--------------------------|
| Zone             | Chocobo Circuit (ID: 70) |
| Block Size       | 468 bytes                |
| Total Events     | 13                       |
| References Count | 26                       |

## List of Events

| Event ID                 | Entrypoint   |   Size |   Instructions |
|--------------------------|--------------|--------|----------------|
| [65535](#event-65535)    | 0x0000       |      1 |              1 |
| [473](#event-473)        | 0x0001       |      7 |              2 |
| [482](#event-482)        | 0x0008       |      7 |              2 |
| [491](#event-491)        | 0x000F       |      7 |              2 |
| [479](#event-479)        | 0x0016       |      1 |              1 |
| [488](#event-488)        | 0x0017       |      1 |              1 |
| [497](#event-497)        | 0x0018       |      1 |              1 |
| [65535.1](#event-655351) | 0x0019       |      7 |              2 |
| [65535.2](#event-655352) | 0x0020       |      5 |              2 |
| [65535.3](#event-655353) | 0x0025       |      1 |              1 |
| [65535.4](#event-655354) | 0x0026       |      5 |              2 |
| [65535.5](#event-655355) | 0x002B       |     39 |              5 |
| [65535.6](#event-655356) | 0x0052       |    211 |             51 |

## DAT References (imed_data)

|   Index | Hex Value   |   Dec Value |
|---------|-------------|-------------|
|       0 | 0x0035      |          53 |
|       1 | 0x0028      |          40 |
|       2 | 0xBAFE      |       47870 |
|       3 | 0xFFF49E7F  |  4294221439 |
|       4 | 0x0DAC      |        3500 |
|       5 | 0x0E83      |        3715 |
|       6 | 0x1B58      |        7000 |
|       7 | 0xBF99      |       49049 |
|       8 | 0xFFF48A7A  |  4294216314 |
|       9 | 0x0DAB      |        3499 |
|      10 | 0x001E      |          30 |
|      11 | 0x0001      |           1 |
|      12 | 0x0006      |           6 |
|      13 | 0x0000      |           0 |
|      14 | 0xAA37      |       43575 |
|      15 | 0xFFF48AF4  |  4294216436 |
|      16 | 0x0E5D      |        3677 |
|      17 | 0x003C      |          60 |
|      18 | 0x0002      |           2 |
|      19 | 0x0005      |           5 |
|      20 | 0x0003      |           3 |
|      21 | 0xD705      |       55045 |
|      22 | 0xFFF4848E  |  4294214798 |
|      23 | 0x0C28      |        3112 |
|      24 | 0x0004      |           4 |
|      25 | 0x000D      |          13 |

## Events

### Event 65535

#### Metadata

| Field        | Value   |
|--------------|---------|
| Entrypoint   | 0x0000  |
| Data Size    | 1 bytes |
| Instructions | 1       |

```
      00 01 02 03 04 05 06 07  08 09 0A 0B 0C 0D 0E 0F
      -- -- -- -- -- -- -- --  -- -- -- -- -- -- -- --
0000: 00                                                .               
```

#### Opcodes

```
  0: 0x0000 [0x00] END_REQSTACK()
```

### Event 473

#### Metadata

| Field        | Value   |
|--------------|---------|
| Entrypoint   | 0x0001  |
| Data Size    | 7 bytes |
| Instructions | 2       |

```
      00 01 02 03 04 05 06 07  08 09 0A 0B 0C 0D 0E 0F
      -- -- -- -- -- -- -- --  -- -- -- -- -- -- -- --
0000:    92 01 F8 FF FF 7F 00                            .......        
```

#### Opcodes

```
  0: 0x0001 [0x92] EventEntity->Render.Flags3 ^= 0x01
  1: 0x0007 [0x00] END_REQSTACK()
```

### Event 482

#### Metadata

| Field        | Value   |
|--------------|---------|
| Entrypoint   | 0x0008  |
| Data Size    | 7 bytes |
| Instructions | 2       |

```
      00 01 02 03 04 05 06 07  08 09 0A 0B 0C 0D 0E 0F
      -- -- -- -- -- -- -- --  -- -- -- -- -- -- -- --
0000:                          92 01 F8 FF FF 7F 00             ....... 
```

#### Opcodes

```
  0: 0x0008 [0x92] EventEntity->Render.Flags3 ^= 0x01
  1: 0x000E [0x00] END_REQSTACK()
```

### Event 491

#### Metadata

| Field        | Value   |
|--------------|---------|
| Entrypoint   | 0x000F  |
| Data Size    | 7 bytes |
| Instructions | 2       |

```
      00 01 02 03 04 05 06 07  08 09 0A 0B 0C 0D 0E 0F
      -- -- -- -- -- -- -- --  -- -- -- -- -- -- -- --
0000:                                               92                 .
0010: 01 F8 FF FF 7F 00                                 ......          
```

#### Opcodes

```
  0: 0x000F [0x92] EventEntity->Render.Flags3 ^= 0x01
  1: 0x0015 [0x00] END_REQSTACK()
```

### Event 479

#### Metadata

| Field        | Value   |
|--------------|---------|
| Entrypoint   | 0x0016  |
| Data Size    | 1 bytes |
| Instructions | 1       |

```
      00 01 02 03 04 05 06 07  08 09 0A 0B 0C 0D 0E 0F
      -- -- -- -- -- -- -- --  -- -- -- -- -- -- -- --
0010:                   00                                    .         
```

#### Opcodes

```
  0: 0x0016 [0x00] END_REQSTACK()
```

### Event 488

#### Metadata

| Field        | Value   |
|--------------|---------|
| Entrypoint   | 0x0017  |
| Data Size    | 1 bytes |
| Instructions | 1       |

```
      00 01 02 03 04 05 06 07  08 09 0A 0B 0C 0D 0E 0F
      -- -- -- -- -- -- -- --  -- -- -- -- -- -- -- --
0010:                      00                                  .        
```

#### Opcodes

```
  0: 0x0017 [0x00] END_REQSTACK()
```

### Event 497

#### Metadata

| Field        | Value   |
|--------------|---------|
| Entrypoint   | 0x0018  |
| Data Size    | 1 bytes |
| Instructions | 1       |

```
      00 01 02 03 04 05 06 07  08 09 0A 0B 0C 0D 0E 0F
      -- -- -- -- -- -- -- --  -- -- -- -- -- -- -- --
0010:                          00                               .       
```

#### Opcodes

```
  0: 0x0018 [0x00] END_REQSTACK()
```

### Event 65535.1

#### Metadata

| Field        | Value   |
|--------------|---------|
| Entrypoint   | 0x0019  |
| Data Size    | 7 bytes |
| Instructions | 2       |

```
      00 01 02 03 04 05 06 07  08 09 0A 0B 0C 0D 0E 0F
      -- -- -- -- -- -- -- --  -- -- -- -- -- -- -- --
0010:                             92 01 F8 FF FF 7F 00           .......
```

#### Opcodes

```
  0: 0x0019 [0x92] EventEntity->Render.Flags3 ^= 0x01
  1: 0x001F [0x00] END_REQSTACK()
```

### Event 65535.2

#### Metadata

| Field        | Value   |
|--------------|---------|
| Entrypoint   | 0x0020  |
| Data Size    | 5 bytes |
| Instructions | 2       |

```
      00 01 02 03 04 05 06 07  08 09 0A 0B 0C 0D 0E 0F
      -- -- -- -- -- -- -- --  -- -- -- -- -- -- -- --
0020: B6 00 02 10 00                                    .....           
```

#### Opcodes

```
  0: 0x0020 [0xB6] ENTITY_APPEARANCE_HANDLER(case=Hair style, value=Work_Zone[2])
  1: 0x0024 [0x00] END_REQSTACK()
```

### Event 65535.3

#### Metadata

| Field        | Value   |
|--------------|---------|
| Entrypoint   | 0x0025  |
| Data Size    | 1 bytes |
| Instructions | 1       |

```
      00 01 02 03 04 05 06 07  08 09 0A 0B 0C 0D 0E 0F
      -- -- -- -- -- -- -- --  -- -- -- -- -- -- -- --
0020:                00                                      .          
```

#### Opcodes

```
  0: 0x0025 [0x00] END_REQSTACK()
```

### Event 65535.4

#### Metadata

| Field        | Value   |
|--------------|---------|
| Entrypoint   | 0x0026  |
| Data Size    | 5 bytes |
| Instructions | 2       |

```
      00 01 02 03 04 05 06 07  08 09 0A 0B 0C 0D 0E 0F
      -- -- -- -- -- -- -- --  -- -- -- -- -- -- -- --
0020:                   B6 00  00 80 00                       .....     
```

#### Opcodes

```
  0: 0x0026 [0xB6] ENTITY_APPEARANCE_HANDLER(case=Hair style, value=53*)
  1: 0x002A [0x00] END_REQSTACK()
```

### Event 65535.5

#### Metadata

| Field        | Value    |
|--------------|----------|
| Entrypoint   | 0x002B   |
| Data Size    | 39 bytes |
| Instructions | 5        |

```
      00 01 02 03 04 05 06 07  08 09 0A 0B 0C 0D 0E 0F
      -- -- -- -- -- -- -- --  -- -- -- -- -- -- -- --
0020:                                   32 01 80 37 02             2..7.
0030: 80 03 80 04 80 05 80 BA  40 60 04 01 02 80 03 80  ........@`......
0040: 06 80 05 80 BA F0 FF FF  7F 02 80 03 80 04 80 05  ................
0050: 80 00                                             ..              
```

#### Opcodes

```
  0: 0x002B [0x32] ExtData[1]->MainSpeed = 40* * 0.1
  1: 0x002E [0x37] UPDATE_EVENT_POSITION_AND_DIR: x=47.870*, z=-745.857*, y=3.500*, direction=326.5°*
  2: 0x0037 [0xBA] SET_ENTITY_POSITION(entity_id=cameraA (ID: 17064000/0x01046040), pos_x=47.870*, pos_z=-745.857*, pos_y=7.000*, direction=326.5°*)
  3: 0x0044 [0xBA] SET_ENTITY_POSITION(entity_id=LocalPlayer, pos_x=47.870*, pos_z=-745.857*, pos_y=3.500*, direction=326.5°*)
  4: 0x0051 [0x00] END_REQSTACK()
```

### Event 65535.6

#### Metadata

| Field        | Value     |
|--------------|-----------|
| Entrypoint   | 0x0052    |
| Data Size    | 211 bytes |
| Instructions | 51        |

```
      00 01 02 03 04 05 06 07  08 09 0A 0B 0C 0D 0E 0F
      -- -- -- -- -- -- -- --  -- -- -- -- -- -- -- --
0050:       27 80 40 60 04 01  0D 1F 00 07 80 08 80 09    '.@`..........
0060: 80 1F 01 6F 1C 0A 80 02  39 10 0B 80 00 24 01 13  ...o....9....$..
0070: 06 00 0C 80 02 06 00 0D  80 80 82 00 32 01 80 01  ............2...
0080: 21 01 02 06 00 0B 80 80  9B 00 1F 00 0E 80 0F 80  !...............
0090: 10 80 1F 01 6F 1C 11 80  01 21 01 02 06 00 12 80  ....o....!......
00A0: 80 B4 00 1F 00 07 80 08  80 09 80 1F 01 6F 1C 13  .............o..
00B0: 80 01 21 01 02 06 00 14  80 80 CD 00 1F 00 15 80  ..!.............
00C0: 16 80 17 80 1F 01 6F 1C  13 80 01 21 01 02 06 00  ......o....!....
00D0: 18 80 80 E9 00 32 01 80  1F 00 0E 80 0F 80 10 80  .....2..........
00E0: 1F 01 6F 1C 0A 80 01 21  01 02 06 00 13 80 80 05  ..o....!........
00F0: 01 32 19 80 1F 00 07 80  08 80 09 80 1F 01 6F 1C  .2............o.
0100: 0A 80 01 21 01 02 06 00  0C 80 80 21 01 32 19 80  ...!.......!.2..
0110: 1F 00 15 80 16 80 17 80  1F 01 6F 1C 13 80 01 21  ..........o....!
0120: 01 01 67 00 00                                    ..g..           
```

#### Opcodes

```
  0: 0x0052 [0x27] REQ_SET(priority=0x80, entity_id=cameraA (ID: 17064000/0x01046040), tag_num=0x0D)
  1: 0x0059 [0x1F] MOVE_ENTITY: EventEntity moves to X=49.049*, Z=-750.982*, Y=3.499*
  2: 0x0061 [0x1F] MOVE_ENTITY: Update entity position (mode=1)
  3: 0x0063 [0x6F] WAIT_FRAME_DELAY: Yield until WaitTime reaches zero
  4: 0x0064 [0x1C] WAIT(30* ticks)
  5: 0x0067 [0x02] IF !(Work_Zone[57] == 1*) GOTO 0x0124
  6: 0x006F [0x13] ExtData[1]->WorkLocal[6] = rand() % 6*
  7: 0x0074 [0x02] IF !(ExtData[1]->WorkLocal[6] == 0*) GOTO 0x0082
  8: 0x007C [0x32] ExtData[1]->MainSpeed = 40* * 0.1
  9: 0x007F [0x01] GOTO 0x0121
 10: 0x0082 [0x02] IF !(ExtData[1]->WorkLocal[6] == 1*) GOTO 0x009B
 11: 0x008A [0x1F] MOVE_ENTITY: EventEntity moves to X=43.575*, Z=-750.860*, Y=3.677*
 12: 0x0092 [0x1F] MOVE_ENTITY: Update entity position (mode=1)
 13: 0x0094 [0x6F] WAIT_FRAME_DELAY: Yield until WaitTime reaches zero
 14: 0x0095 [0x1C] WAIT(60* ticks)
 15: 0x0098 [0x01] GOTO 0x0121
 16: 0x009B [0x02] IF !(ExtData[1]->WorkLocal[6] == 2*) GOTO 0x00B4
 17: 0x00A3 [0x1F] MOVE_ENTITY: EventEntity moves to X=49.049*, Z=-750.982*, Y=3.499*
 18: 0x00AB [0x1F] MOVE_ENTITY: Update entity position (mode=1)
 19: 0x00AD [0x6F] WAIT_FRAME_DELAY: Yield until WaitTime reaches zero
 20: 0x00AE [0x1C] WAIT(5* ticks)
 21: 0x00B1 [0x01] GOTO 0x0121
 22: 0x00B4 [0x02] IF !(ExtData[1]->WorkLocal[6] == 3*) GOTO 0x00CD
 23: 0x00BC [0x1F] MOVE_ENTITY: EventEntity moves to X=55.045*, Z=-752.498*, Y=3.112*
 24: 0x00C4 [0x1F] MOVE_ENTITY: Update entity position (mode=1)
 25: 0x00C6 [0x6F] WAIT_FRAME_DELAY: Yield until WaitTime reaches zero
 26: 0x00C7 [0x1C] WAIT(5* ticks)
 27: 0x00CA [0x01] GOTO 0x0121
 28: 0x00CD [0x02] IF !(ExtData[1]->WorkLocal[6] == 4*) GOTO 0x00E9
 29: 0x00D5 [0x32] ExtData[1]->MainSpeed = 40* * 0.1
 30: 0x00D8 [0x1F] MOVE_ENTITY: EventEntity moves to X=43.575*, Z=-750.860*, Y=3.677*
 31: 0x00E0 [0x1F] MOVE_ENTITY: Update entity position (mode=1)
 32: 0x00E2 [0x6F] WAIT_FRAME_DELAY: Yield until WaitTime reaches zero
 33: 0x00E3 [0x1C] WAIT(30* ticks)
 34: 0x00E6 [0x01] GOTO 0x0121
 35: 0x00E9 [0x02] IF !(ExtData[1]->WorkLocal[6] == 5*) GOTO 0x0105
 36: 0x00F1 [0x32] ExtData[1]->MainSpeed = 13* * 0.1
 37: 0x00F4 [0x1F] MOVE_ENTITY: EventEntity moves to X=49.049*, Z=-750.982*, Y=3.499*
 38: 0x00FC [0x1F] MOVE_ENTITY: Update entity position (mode=1)
 39: 0x00FE [0x6F] WAIT_FRAME_DELAY: Yield until WaitTime reaches zero
 40: 0x00FF [0x1C] WAIT(30* ticks)
 41: 0x0102 [0x01] GOTO 0x0121
 42: 0x0105 [0x02] IF !(ExtData[1]->WorkLocal[6] == 6*) GOTO 0x0121
 43: 0x010D [0x32] ExtData[1]->MainSpeed = 13* * 0.1
 44: 0x0110 [0x1F] MOVE_ENTITY: EventEntity moves to X=55.045*, Z=-752.498*, Y=3.112*
 45: 0x0118 [0x1F] MOVE_ENTITY: Update entity position (mode=1)
 46: 0x011A [0x6F] WAIT_FRAME_DELAY: Yield until WaitTime reaches zero
 47: 0x011B [0x1C] WAIT(5* ticks)
 48: 0x011E [0x01] GOTO 0x0121

SUBROUTINE_0121:
 49: 0x0121 [0x01] GOTO 0x0067
 50: 0x0124 [0x00] END_REQSTACK()
```
