# 17063984

## Common Data

| Field            | Value                    |
|------------------|--------------------------|
| Zone             | Chocobo Circuit (ID: 70) |
| Block Size       | 1164 bytes               |
| Total Events     | 15                       |
| References Count | 27                       |

## List of Events

| Event ID                   | Entrypoint   |   Size |   Instructions |
|----------------------------|--------------|--------|----------------|
| [65535](#event-65535)      | 0x0000       |      1 |              1 |
| [479](#event-479)          | 0x0001       |      1 |              1 |
| [488](#event-488)          | 0x0002       |      1 |              1 |
| [497](#event-497)          | 0x0003       |      1 |              1 |
| [65535.1](#event-655351)   | 0x0004       |      1 |              1 |
| [65535.2](#event-655352)   | 0x0005       |    110 |             27 |
| [65535.3](#event-655353)   | 0x0073       |     42 |              6 |
| [65535.4](#event-655354)   | 0x009D       |    267 |             49 |
| [65535.5](#event-655355)   | 0x01A8       |    455 |             89 |
| [65535.6](#event-655356)   | 0x036F       |     31 |              4 |
| [65535.7](#event-655357)   | 0x038E       |     24 |              6 |
| [65535.8](#event-655358)   | 0x03A6       |     14 |              4 |
| [65535.9](#event-655359)   | 0x03B4       |     25 |              3 |
| [65535.10](#event-6553510) | 0x03CD       |      3 |              2 |
| [65535.11](#event-6553511) | 0x03D0       |      3 |              2 |

## DAT References (imed_data)

|   Index | Hex Value   |   Dec Value |
|---------|-------------|-------------|
|       0 | 0x0000      |           0 |
|       1 | 0x0004      |           4 |
|       2 | 0x0002      |           2 |
|       3 | 0x001C      |          28 |
|       4 | 0x001E      |          30 |
|       5 | 0x0019      |          25 |
|       6 | 0x001B      |          27 |
|       7 | 0x0001      |           1 |
|       8 | 0x0010      |          16 |
|       9 | 0x0008      |           8 |
|      10 | 0x0050      |          80 |
|      11 | 0x0006      |           6 |
|      12 | 0x0003      |           3 |
|      13 | 0x0838      |        2104 |
|      14 | 0x0020      |          32 |
|      15 | 0x0013      |          19 |
|      16 | 0x0007      |           7 |
|      17 | 0x03E8      |        1000 |
|      18 | 0x001F      |          31 |
|      19 | 0x000C      |          12 |
|      20 | 0x0028      |          40 |
|      21 | 0x7242F     |      468015 |
|      22 | 0x65DF4     |      417268 |
|      23 | 0x5E10      |       24080 |
|      24 | 0x716C9     |      464585 |
|      25 | 0x66793     |      419731 |
|      26 | 0x5DF7      |       24055 |

## Events

### Event 65535

#### Metadata

| Field        | Value   |
|--------------|---------|
| Entrypoint   | 0x0000  |
| Data Size    | 1 bytes |
| Instructions | 1       |

```
      00 01 02 03 04 05 06 07  08 09 0A 0B 0C 0D 0E 0F
      -- -- -- -- -- -- -- --  -- -- -- -- -- -- -- --
0000: 00                                                .               
```

#### Opcodes

```
  0: 0x0000 [0x00] END_REQSTACK()
```

### Event 479

#### Metadata

| Field        | Value   |
|--------------|---------|
| Entrypoint   | 0x0001  |
| Data Size    | 1 bytes |
| Instructions | 1       |

```
      00 01 02 03 04 05 06 07  08 09 0A 0B 0C 0D 0E 0F
      -- -- -- -- -- -- -- --  -- -- -- -- -- -- -- --
0000:    00                                              .              
```

#### Opcodes

```
  0: 0x0001 [0x00] END_REQSTACK()
```

### Event 488

#### Metadata

| Field        | Value   |
|--------------|---------|
| Entrypoint   | 0x0002  |
| Data Size    | 1 bytes |
| Instructions | 1       |

```
      00 01 02 03 04 05 06 07  08 09 0A 0B 0C 0D 0E 0F
      -- -- -- -- -- -- -- --  -- -- -- -- -- -- -- --
0000:       00                                            .             
```

#### Opcodes

```
  0: 0x0002 [0x00] END_REQSTACK()
```

### Event 497

#### Metadata

| Field        | Value   |
|--------------|---------|
| Entrypoint   | 0x0003  |
| Data Size    | 1 bytes |
| Instructions | 1       |

```
      00 01 02 03 04 05 06 07  08 09 0A 0B 0C 0D 0E 0F
      -- -- -- -- -- -- -- --  -- -- -- -- -- -- -- --
0000:          00                                          .            
```

#### Opcodes

```
  0: 0x0003 [0x00] END_REQSTACK()
```

### Event 65535.1

#### Metadata

| Field        | Value   |
|--------------|---------|
| Entrypoint   | 0x0004  |
| Data Size    | 1 bytes |
| Instructions | 1       |

```
      00 01 02 03 04 05 06 07  08 09 0A 0B 0C 0D 0E 0F
      -- -- -- -- -- -- -- --  -- -- -- -- -- -- -- --
0000:             00                                        .           
```

#### Opcodes

```
  0: 0x0004 [0x00] END_REQSTACK()
```

### Event 65535.2

#### Metadata

| Field        | Value     |
|--------------|-----------|
| Entrypoint   | 0x0005    |
| Data Size    | 110 bytes |
| Instructions | 2         |

```
      00 01 02 03 04 05 06 07  08 09 0A 0B 0C 0D 0E 0F
      -- -- -- -- -- -- -- --  -- -- -- -- -- -- -- --
0000:                BF 20 00  80 01 80 02 80 00 00 41       . ........A
0010: 03 80 04 80 00 00 01 00  41 05 80 06 80 00 00 02  ........A.......
0020: 00 BF 20 00 80 01 80 07  80 00 00 3E 00 00 08 80  .. ........>....
0030: 3A 00 03 03 00 07 80 01  3D 00 06 03 00 3E 00 00  :.......=....>..
0040: 00 80 4C 00 03 04 00 07  80 01 4F 00 06 04 00 3E  ..L.......O....>
0050: 00 00 09 80 5E 00 03 05  00 07 80 01 61 00 06 04  ....^.......a...
0060: 00 B6 0D 01 00 02 00 07  80 03 00 04 00 05 00 32  ...............2
0070: 0A 80 00                                          ...             
```

#### Opcodes

```
  0: 0x0005 [0xBF] CHOCOBO_RACING_PARAMETER_GETTER(param_type=0x20)
  1: 0x0007 [0x00] END_REQSTACK()
```

#### Data or dead code:

```
# Dead code (unreachable instructions):
     0x0008 [0x80] LOAD_WAIT(entity=Unknown NPC (ID: 2147647489/0x80028001))
     0x000D [0x00] END_REQSTACK()
     0x000E [0x00] END_REQSTACK()
     0x000F [0x41] ExtData[1]->WorkLocal[1] = ExtData[1]->WorkLocal[0] (bits 28*-30*)
     0x0018 [0x41] ExtData[1]->WorkLocal[2] = ExtData[1]->WorkLocal[0] (bits 25*-27*)
     0x0021 [0xBF] CHOCOBO_RACING_PARAMETER_GETTER(param_type=0x20)
     0x0023 [0x00] END_REQSTACK()
     0x0024 [0x80] LOAD_WAIT(entity=Unknown NPC (ID: 2147975169/0x80078001))
     0x0029 [0x00] END_REQSTACK()
     0x002A [0x00] END_REQSTACK()
     0x002B [0x3E] IF !(ExtData[1]->WorkLocal[0] bit 16*) GOTO 0x003A
     0x0032 [0x03] ExtData[1]->WorkLocal[3] = 1*
     0x0037 [0x01] GOTO 0x003D
     0x003A [0x06] ExtData[1]->WorkLocal[3] = 0
     0x003D [0x3E] IF !(ExtData[1]->WorkLocal[0] bit 0*) GOTO 0x004C
     0x0044 [0x03] ExtData[1]->WorkLocal[4] = 1*
     0x0049 [0x01] GOTO 0x004F
     0x004C [0x06] ExtData[1]->WorkLocal[4] = 0
     0x004F [0x3E] IF !(ExtData[1]->WorkLocal[0] bit 8*) GOTO 0x005E
     0x0056 [0x03] ExtData[1]->WorkLocal[5] = 1*
     0x005B [0x01] GOTO 0x0061
     0x005E [0x06] ExtData[1]->WorkLocal[4] = 0
     0x0061 [0xB6] ENTITY_APPEARANCE_HANDLER(case=Look with Render flags, race=ExtData[1]->WorkLocal[1], face=ExtData[1]->WorkLocal[2], head=1*, body=ExtData[1]->WorkLocal[3], hands=ExtData[1]->WorkLocal[4], render_flags=0x0005)
     0x006F [0x32] ExtData[1]->MainSpeed = 80* * 0.1
     0x0072 [0x00] END_REQSTACK()
```

### Event 65535.3

#### Metadata

| Field        | Value    |
|--------------|----------|
| Entrypoint   | 0x0073   |
| Data Size    | 42 bytes |
| Instructions | 6        |

```
      00 01 02 03 04 05 06 07  08 09 0A 0B 0C 0D 0E 0F
      -- -- -- -- -- -- -- --  -- -- -- -- -- -- -- --
0070:          9D 03 0B 80 09  00 00 80 9D 03 0B 80 0A     .............
0080: 00 07 80 9D 03 0B 80 0B  00 02 80 9D 03 0B 80 0C  ................
0090: 00 0C 80 37 09 00 0B 00  0A 00 0D 80 00           ...7.........   
```

#### Opcodes

```
  0: 0x0073 [0x9D] 0* = Work_Zone[6*][ExtData[1]->WorkLocal[9]] // Via remapped space
  1: 0x007B [0x9D] 1* = Work_Zone[6*][ExtData[1]->WorkLocal[10]] // Via remapped space
  2: 0x0083 [0x9D] 2* = Work_Zone[6*][ExtData[1]->WorkLocal[11]] // Via remapped space
  3: 0x008B [0x9D] 3* = Work_Zone[6*][ExtData[1]->WorkLocal[12]] // Via remapped space
  4: 0x0093 [0x37] UPDATE_EVENT_POSITION_AND_DIR: x=ExtData[1]->WorkLocal[9], z=ExtData[1]->WorkLocal[11], y=ExtData[1]->WorkLocal[10], direction=184.9°*
  5: 0x009C [0x00] END_REQSTACK()
```

### Event 65535.4

#### Metadata

| Field        | Value     |
|--------------|-----------|
| Entrypoint   | 0x009D    |
| Data Size    | 267 bytes |
| Instructions | 49        |

```
      00 01 02 03 04 05 06 07  08 09 0A 0B 0C 0D 0E 0F
      -- -- -- -- -- -- -- --  -- -- -- -- -- -- -- --
0090:                                         03 07 00               ...
00A0: 2C 10 03 0E 00 2C 10 03  0F 00 2D 10 03 11 00 29  ,....,....-....)
00B0: 10 02 11 00 0E 80 03 D9  00 41 08 80 0F 80 26 10  .........A....&.
00C0: 13 00 03 12 00 09 80 08  12 00 13 00 07 0E 00 12  ................
00D0: 00 03 13 00 12 00 01 DC  00 06 13 00 02 11 00 0E  ................
00E0: 80 03 04 01 41 08 80 0F  80 27 10 14 00 03 12 00  ....A....'......
00F0: 09 80 08 12 00 14 00 07  0F 00 12 00 03 14 00 12  ................
0100: 00 01 07 01 06 14 00 03  08 00 0E 00 14 08 00 01  ................
0110: 80 9D 03 0B 80 09 00 08  00 0B 08 00 9D 03 0B 80  ................
0120: 0A 00 08 00 0B 08 00 9D  03 0B 80 0B 00 08 00 0B  ................
0130: 08 00 9D 03 0B 80 0C 00  08 00 02 11 00 00 80 00  ................
0140: 45 01 01 4C 01 36 09 00  0B 00 0A 00 40 00 80 10  E..L.6......@...
0150: 80 36 10 11 00 08 14 00  13 00 9D 03 00 80 13 00  .6..............
0160: 11 00 07 14 00 13 00 9D  03 00 80 12 00 11 00 14  ................
0170: 14 00 11 80 15 14 00 12  00 03 12 00 14 00 03 13  ................
0180: 00 11 00 14 13 00 09 80  07 13 00 01 80 9D 03 07  ................
0190: 80 13 00 13 00 14 12 00  13 00 03 0D 00 12 00 15  ................
01A0: 0D 00 11 80 32 0D 00 00                           ....2...        
```

#### Opcodes

```
  0: 0x009D [0x03] ExtData[1]->WorkLocal[7] = Work_Zone[44]
  1: 0x00A2 [0x03] ExtData[1]->WorkLocal[14] = Work_Zone[44]
  2: 0x00A7 [0x03] ExtData[1]->WorkLocal[15] = Work_Zone[45]
  3: 0x00AC [0x03] ExtData[1]->WorkLocal[17] = Work_Zone[41]
  4: 0x00B1 [0x02] IF !(ExtData[1]->WorkLocal[17] >= 32*) GOTO 0x00D9
  5: 0x00B9 [0x41] ExtData[1]->WorkLocal[19] = Work_Zone[38] (bits 16*-19*)
  6: 0x00C2 [0x03] ExtData[1]->WorkLocal[18] = 8*
  7: 0x00C7 [0x08] ExtData[1]->WorkLocal[18] -= ExtData[1]->WorkLocal[19]
  8: 0x00CC [0x07] ExtData[1]->WorkLocal[14] += ExtData[1]->WorkLocal[18]
  9: 0x00D1 [0x03] ExtData[1]->WorkLocal[19] = ExtData[1]->WorkLocal[18]
 10: 0x00D6 [0x01] GOTO 0x00DC
 11: 0x00D9 [0x06] ExtData[1]->WorkLocal[19] = 0

SUBROUTINE_00DC:
 12: 0x00DC [0x02] IF !(ExtData[1]->WorkLocal[17] >= 32*) GOTO 0x0104
 13: 0x00E4 [0x41] ExtData[1]->WorkLocal[20] = Work_Zone[39] (bits 16*-19*)
 14: 0x00ED [0x03] ExtData[1]->WorkLocal[18] = 8*
 15: 0x00F2 [0x08] ExtData[1]->WorkLocal[18] -= ExtData[1]->WorkLocal[20]
 16: 0x00F7 [0x07] ExtData[1]->WorkLocal[15] += ExtData[1]->WorkLocal[18]
 17: 0x00FC [0x03] ExtData[1]->WorkLocal[20] = ExtData[1]->WorkLocal[18]
 18: 0x0101 [0x01] GOTO 0x0107
 19: 0x0104 [0x06] ExtData[1]->WorkLocal[20] = 0

SUBROUTINE_0107:
 20: 0x0107 [0x03] ExtData[1]->WorkLocal[8] = ExtData[1]->WorkLocal[14]
 21: 0x010C [0x14] ExtData[1]->WorkLocal[8] *= 4*
 22: 0x0111 [0x9D] ExtData[1]->WorkLocal[8] = Work_Zone[6*][ExtData[1]->WorkLocal[9]] // Via remapped space
 23: 0x0119 [0x0B] ExtData[1]->WorkLocal[8]++
 24: 0x011C [0x9D] ExtData[1]->WorkLocal[8] = Work_Zone[6*][ExtData[1]->WorkLocal[10]] // Via remapped space
 25: 0x0124 [0x0B] ExtData[1]->WorkLocal[8]++
 26: 0x0127 [0x9D] ExtData[1]->WorkLocal[8] = Work_Zone[6*][ExtData[1]->WorkLocal[11]] // Via remapped space
 27: 0x012F [0x0B] ExtData[1]->WorkLocal[8]++
 28: 0x0132 [0x9D] ExtData[1]->WorkLocal[8] = Work_Zone[6*][ExtData[1]->WorkLocal[12]] // Via remapped space
 29: 0x013A [0x02] IF !(ExtData[1]->WorkLocal[17] == 0*) GOTO 0x0145
 30: 0x0142 [0x01] GOTO 0x014C
 31: 0x0145 [0x36] SET_ENTITY_EVENT_POSITION(pos_x=ExtData[1]->WorkLocal[9], pos_z=ExtData[1]->WorkLocal[11], pos_y=ExtData[1]->WorkLocal[10])

SUBROUTINE_014C:
 32: 0x014C [0x40] SET_BIT_WORK_RANGE(start_bit=0*, end_bit=7*, target=Work_Zone[54], source=ExtData[1]->WorkLocal[17])
 33: 0x0155 [0x08] ExtData[1]->WorkLocal[20] -= ExtData[1]->WorkLocal[19]
 34: 0x015A [0x9D] ExtData[1]->WorkLocal[17] = Work_Zone[0][ExtData[1]->WorkLocal[19]] // Via remapped space
 35: 0x0162 [0x07] ExtData[1]->WorkLocal[20] += ExtData[1]->WorkLocal[19]
 36: 0x0167 [0x9D] ExtData[1]->WorkLocal[17] = Work_Zone[0][ExtData[1]->WorkLocal[18]] // Via remapped space
 37: 0x016F [0x14] ExtData[1]->WorkLocal[20] *= 1000*
 38: 0x0174 [0x15] ExtData[1]->WorkLocal[20] /= ExtData[1]->WorkLocal[18]
 39: 0x0179 [0x03] ExtData[1]->WorkLocal[18] = ExtData[1]->WorkLocal[20]
 40: 0x017E [0x03] ExtData[1]->WorkLocal[19] = ExtData[1]->WorkLocal[17]
 41: 0x0183 [0x14] ExtData[1]->WorkLocal[19] *= 8*
 42: 0x0188 [0x07] ExtData[1]->WorkLocal[19] += 4*
 43: 0x018D [0x9D] ExtData[1]->WorkLocal[19] = Work_Zone[1*][ExtData[1]->WorkLocal[19]] // Via remapped space
 44: 0x0195 [0x14] ExtData[1]->WorkLocal[18] *= ExtData[1]->WorkLocal[19]
 45: 0x019A [0x03] ExtData[1]->WorkLocal[13] = ExtData[1]->WorkLocal[18]
 46: 0x019F [0x15] ExtData[1]->WorkLocal[13] /= 1000*
 47: 0x01A4 [0x32] ExtData[1]->MainSpeed = ExtData[1]->WorkLocal[13] * 0.1
 48: 0x01A7 [0x00] END_REQSTACK()
```

### Event 65535.5

#### Metadata

| Field        | Value     |
|--------------|-----------|
| Entrypoint   | 0x01A8    |
| Data Size    | 455 bytes |
| Instructions | 49        |

```
      00 01 02 03 04 05 06 07  08 09 0A 0B 0C 0D 0E 0F
      -- -- -- -- -- -- -- --  -- -- -- -- -- -- -- --
01A0:                          03 07 00 0E 00 02 11 00          ........
01B0: 04 80 00 BA 01 03 07 00  0F 00 02 11 00 12 80 00  ................
01C0: CA 01 03 07 00 31 10 0C  07 00 02 07 00 33 10 05  .....1.......3..
01D0: 8C 02 02 07 00 0F 00 05  42 02 02 31 10 07 00 05  ........B..1....
01E0: E9 01 3C 30 10 01 80 07  80 02 07 00 33 10 02 F4  ..<0........3...
01F0: 01 01 8C 02 03 08 00 07  00 14 08 00 01 80 9D 03  ................
0200: 0B 80 09 00 08 00 0B 08  00 9D 03 0B 80 0A 00 08  ................
0210: 00 0B 08 00 9D 03 0B 80  0B 00 08 00 0B 08 00 9D  ................
0220: 03 0B 80 0C 00 08 00 02  11 00 00 80 00 32 02 01  .............2..
0230: 3C 02 1F 00 09 00 0B 00  0A 00 1F 01 0B 07 00 01  <...............
0240: D2 01 07 11 00 07 80 40  00 80 10 80 36 10 11 00  .......@....6...
0250: 3C 30 10 13 80 07 80 03  0E 00 0F 00 9D 03 00 80  <0..............
0260: 10 00 11 00 07 0F 00 10  00 1A 8D 02 02 11 00 04  ................
0270: 80 00 79 02 03 07 00 0F  00 02 11 00 12 80 00 89  ..y.............
0280: 02 03 07 00 31 10 0C 07  00 01 CA 01 00 03 17 00  ....1...........
0290: 0E 00 03 18 00 0F 00 02  11 00 0E 80 03 C9 02 BF  ................
02A0: 40 00 80 11 00 00 80 15  00 41 08 80 0F 80 15 00  @........A......
02B0: 13 00 03 12 00 09 80 08  12 00 13 00 07 0E 00 12  ................
02C0: 00 03 13 00 12 00 01 CE  02 03 13 00 00 80 02 11  ................
02D0: 00 0E 80 03 00 03 BF 40  00 80 11 00 07 80 16 00  .......@........
02E0: 41 08 80 0F 80 16 00 14  00 03 12 00 09 80 08 12  A...............
02F0: 00 14 00 07 0F 00 12 00  03 14 00 12 00 01 05 03  ................
0300: 03 14 00 00 80 08 14 00  13 00 9D 03 00 80 13 00  ................
0310: 11 00 07 14 00 13 00 9D  03 00 80 12 00 11 00 14  ................
0320: 14 00 11 80 15 14 00 12  00 03 12 00 14 00 03 13  ................
0330: 00 11 00 14 13 00 09 80  07 13 00 01 80 9D 03 07  ................
0340: 80 13 00 13 00 14 12 00  13 00 03 0D 00 12 00 15  ................
0350: 0D 00 11 80 02 11 00 0E  80 04 61 03 03 0D 00 14  ..........a.....
0360: 80 32 0D 00 03 0E 00 17  00 03 0F 00 18 00 1B     .2............. 
```

#### Opcodes

```
  0: 0x01A8 [0x03] ExtData[1]->WorkLocal[7] = ExtData[1]->WorkLocal[14]
  1: 0x01AD [0x02] IF !(ExtData[1]->WorkLocal[17] == 30*) GOTO 0x01BA
  2: 0x01B5 [0x03] ExtData[1]->WorkLocal[7] = ExtData[1]->WorkLocal[15]
  3: 0x01BA [0x02] IF !(ExtData[1]->WorkLocal[17] == 31*) GOTO 0x01CA
  4: 0x01C2 [0x03] ExtData[1]->WorkLocal[7] = Work_Zone[49]
  5: 0x01C7 [0x0C] ExtData[1]->WorkLocal[7]--
  6: 0x01CA [0x02] IF !(ExtData[1]->WorkLocal[7] > Work_Zone[51]) GOTO 0x028C
  7: 0x01D2 [0x02] IF !(ExtData[1]->WorkLocal[7] > ExtData[1]->WorkLocal[15]) GOTO 0x0242
  8: 0x01DA [0x02] IF !(Work_Zone[49] > ExtData[1]->WorkLocal[7]) GOTO 0x01E9
  9: 0x01E2 [0x3C] SET_BIT_FLAG_CONDITIONAL(target_work_offset=Work_Zone[48], bit_index_work_offset=4*, condition_work_offset=1*)
 10: 0x01E9 [0x02] IF !(ExtData[1]->WorkLocal[7] <= Work_Zone[51]) GOTO 0x01F4
 11: 0x01F1 [0x01] GOTO 0x028C
 12: 0x01F4 [0x03] ExtData[1]->WorkLocal[8] = ExtData[1]->WorkLocal[7]
 13: 0x01F9 [0x14] ExtData[1]->WorkLocal[8] *= 4*
 14: 0x01FE [0x9D] ExtData[1]->WorkLocal[8] = Work_Zone[6*][ExtData[1]->WorkLocal[9]] // Via remapped space
 15: 0x0206 [0x0B] ExtData[1]->WorkLocal[8]++
 16: 0x0209 [0x9D] ExtData[1]->WorkLocal[8] = Work_Zone[6*][ExtData[1]->WorkLocal[10]] // Via remapped space
 17: 0x0211 [0x0B] ExtData[1]->WorkLocal[8]++
 18: 0x0214 [0x9D] ExtData[1]->WorkLocal[8] = Work_Zone[6*][ExtData[1]->WorkLocal[11]] // Via remapped space
 19: 0x021C [0x0B] ExtData[1]->WorkLocal[8]++
 20: 0x021F [0x9D] ExtData[1]->WorkLocal[8] = Work_Zone[6*][ExtData[1]->WorkLocal[12]] // Via remapped space
 21: 0x0227 [0x02] IF !(ExtData[1]->WorkLocal[17] == 0*) GOTO 0x0232
 22: 0x022F [0x01] GOTO 0x023C
 23: 0x0232 [0x1F] MOVE_ENTITY: EventEntity moves to X=ExtData[1]->WorkLocal[9], Z=ExtData[1]->WorkLocal[11], Y=ExtData[1]->WorkLocal[10]
 24: 0x023A [0x1F] MOVE_ENTITY: Update entity position (mode=1)

SUBROUTINE_023C:
 25: 0x023C [0x0B] ExtData[1]->WorkLocal[7]++
 26: 0x023F [0x01] GOTO 0x01D2
 27: 0x0242 [0x07] ExtData[1]->WorkLocal[17] += 1*
 28: 0x0247 [0x40] SET_BIT_WORK_RANGE(start_bit=0*, end_bit=7*, target=Work_Zone[54], source=ExtData[1]->WorkLocal[17])
 29: 0x0250 [0x3C] SET_BIT_FLAG_CONDITIONAL(target_work_offset=Work_Zone[48], bit_index_work_offset=12*, condition_work_offset=1*)
 30: 0x0257 [0x03] ExtData[1]->WorkLocal[14] = ExtData[1]->WorkLocal[15]
 31: 0x025C [0x9D] ExtData[1]->WorkLocal[17] = Work_Zone[0][ExtData[1]->WorkLocal[16]] // Via remapped space
 32: 0x0264 [0x07] ExtData[1]->WorkLocal[15] += ExtData[1]->WorkLocal[16]
 33: 0x0269 [0x1A] CALL_SUBROUTINE(address=0x028D)
 34: 0x026C [0x02] IF !(ExtData[1]->WorkLocal[17] == 30*) GOTO 0x0279
 35: 0x0274 [0x03] ExtData[1]->WorkLocal[7] = ExtData[1]->WorkLocal[15]
 36: 0x0279 [0x02] IF !(ExtData[1]->WorkLocal[17] == 31*) GOTO 0x0289
 37: 0x0281 [0x03] ExtData[1]->WorkLocal[7] = Work_Zone[49]
 38: 0x0286 [0x0C] ExtData[1]->WorkLocal[7]--
 39: 0x0289 [0x01] GOTO 0x01CA

SUBROUTINE_028C:
 40: 0x028C [0x00] END_REQSTACK()

SUBROUTINE_028D:
 41: 0x028D [0x03] ExtData[1]->WorkLocal[23] = ExtData[1]->WorkLocal[14]
 42: 0x0292 [0x03] ExtData[1]->WorkLocal[24] = ExtData[1]->WorkLocal[15]
 43: 0x0297 [0x02] IF !(ExtData[1]->WorkLocal[17] >= 32*) GOTO 0x02C9
 44: 0x029F [0xBF] CHOCOBO_RACING_PARAMETER_GETTER(param_type=0x40)
 45: 0x02A1 [0x00] END_REQSTACK()

SUBROUTINE_02CE:
 46: 0x02CE [0x02] IF !(ExtData[1]->WorkLocal[17] >= 32*) GOTO 0x0300
 47: 0x02D6 [0xBF] CHOCOBO_RACING_PARAMETER_GETTER(param_type=0x40)
 48: 0x02D8 [0x00] END_REQSTACK()
```

#### Data or dead code:

```
# Dead code (unreachable instructions):
     0x02A2 [0x80] LOAD_WAIT(entity=Unknown NPC (ID: 2147483665/0x80000011))
     0x02A7 [0x15] 0x4100 /= 16*
     0x02AC [0x0F] 0x1580 ^= 0x1300
     0x02B1 [0x00] END_REQSTACK()
     0x02B2 [0x03] ExtData[1]->WorkLocal[18] = 8*
     0x02B7 [0x08] ExtData[1]->WorkLocal[18] -= ExtData[1]->WorkLocal[19]
     0x02BC [0x07] ExtData[1]->WorkLocal[14] += ExtData[1]->WorkLocal[18]
     0x02C1 [0x03] ExtData[1]->WorkLocal[19] = ExtData[1]->WorkLocal[18]
     0x02C6 [0x01] GOTO 0x02CE
# Dead code (unreachable instructions):
     0x02D9 [0x80] LOAD_WAIT(entity=Unknown NPC (ID: 2147942417/0x80070011))
     0x02DE [0x16] 0x4100 = sin(16*) * 19*
     0x02E5 [0x16] 0x1400 = sin(0x0300) * ExtData[1]->WorkLocal[18]
     0x02EC [0x09] 0x0880 |= (1 << ExtData[1]->WorkLocal[18])
     0x02F1 [0x14] 0x0700 *= ExtData[1]->WorkLocal[15]
     0x02F6 [0x12] 0x0300 = rand()
     0x02F9 [0x14] 0x1200 *= 0x0100
     0x02FE [0x05] 0x0303 = 1
```

### Event 65535.6

#### Metadata

| Field        | Value    |
|--------------|----------|
| Entrypoint   | 0x036F   |
| Data Size    | 31 bytes |
| Instructions | 4        |

```
      00 01 02 03 04 05 06 07  08 09 0A 0B 0C 0D 0E 0F
      -- -- -- -- -- -- -- --  -- -- -- -- -- -- -- --
0360:                                               B4                 .
0370: 00 06 00 53 61 6B 75 72  61 00 00 00 00 00 00 00  ...Sakura.......
0380: 00 00 00 B5 00 06 00 92  01 F8 FF FF 7F 00        ..............  
```

#### Opcodes

```
  0: 0x036F [0xB4] UI_WINDOW_STRING_HANDLER(case=0x00 - Copy string from opcode, work_offset=ExtData[1]->WorkLocal[6], string="Sakura")
  1: 0x0383 [0xB5] SET_EVENT_ENTITY_NAME: Change EventEntity name to ExtData[1]->WorkLocal[6]
  2: 0x0387 [0x92] EventEntity->Render.Flags3 ^= 0x01
  3: 0x038D [0x00] END_REQSTACK()
```

### Event 65535.7

#### Metadata

| Field        | Value    |
|--------------|----------|
| Entrypoint   | 0x038E   |
| Data Size    | 24 bytes |
| Instructions | 6        |

```
      00 01 02 03 04 05 06 07  08 09 0A 0B 0C 0D 0E 0F
      -- -- -- -- -- -- -- --  -- -- -- -- -- -- -- --
0380:                                            32 06                2.
0390: 80 1F 00 15 80 16 80 17  80 1F 01 6F 4A F0 FF FF  ...........oJ...
03A0: 7F F8 FF FF 7F 00                                 ......          
```

#### Opcodes

```
  0: 0x038E [0x32] ExtData[1]->MainSpeed = 27* * 0.1
  1: 0x0391 [0x1F] MOVE_ENTITY: EventEntity moves to X=468.015*, Z=417.268*, Y=24.080*
  2: 0x0399 [0x1F] MOVE_ENTITY: Update entity position (mode=1)
  3: 0x039B [0x6F] WAIT_FRAME_DELAY: Yield until WaitTime reaches zero
  4: 0x039C [0x4A] LocalPlayer looks at EventEntity
  5: 0x03A5 [0x00] END_REQSTACK()
```

### Event 65535.8

#### Metadata

| Field        | Value    |
|--------------|----------|
| Entrypoint   | 0x03A6   |
| Data Size    | 14 bytes |
| Instructions | 4        |

```
      00 01 02 03 04 05 06 07  08 09 0A 0B 0C 0D 0E 0F
      -- -- -- -- -- -- -- --  -- -- -- -- -- -- -- --
03A0:                   32 06  80 1F 00 18 80 19 80 1A        2.........
03B0: 80 1F 01 00                                       ....            
```

#### Opcodes

```
  0: 0x03A6 [0x32] ExtData[1]->MainSpeed = 27* * 0.1
  1: 0x03A9 [0x1F] MOVE_ENTITY: EventEntity moves to X=464.585*, Z=419.731*, Y=24.055*
  2: 0x03B1 [0x1F] MOVE_ENTITY: Update entity position (mode=1)
  3: 0x03B3 [0x00] END_REQSTACK()
```

### Event 65535.9

#### Metadata

| Field        | Value    |
|--------------|----------|
| Entrypoint   | 0x03B4   |
| Data Size    | 25 bytes |
| Instructions | 3        |

```
      00 01 02 03 04 05 06 07  08 09 0A 0B 0C 0D 0E 0F
      -- -- -- -- -- -- -- --  -- -- -- -- -- -- -- --
03B0:             B4 00 06 00  00 00 00 00 00 00 00 00      ............
03C0: 00 00 00 00 00 00 00 00  B5 00 06 00 00           .............   
```

#### Opcodes

```
  0: 0x03B4 [0xB4] UI_WINDOW_STRING_HANDLER(case=0x00 - Copy string from opcode, work_offset=ExtData[1]->WorkLocal[6], string="")
  1: 0x03C8 [0xB5] SET_EVENT_ENTITY_NAME: Change EventEntity name to ExtData[1]->WorkLocal[6]
  2: 0x03CC [0x00] END_REQSTACK()
```

### Event 65535.10

#### Metadata

| Field        | Value   |
|--------------|---------|
| Entrypoint   | 0x03CD  |
| Data Size    | 3 bytes |
| Instructions | 2       |

```
      00 01 02 03 04 05 06 07  08 09 0A 0B 0C 0D 0E 0F
      -- -- -- -- -- -- -- --  -- -- -- -- -- -- -- --
03C0:                                         61 00 00               a..
```

#### Opcodes

```
  0: 0x03CD [0x61] EventEntity->Render.Flags2 &= ~0x00000001
  1: 0x03CF [0x00] END_REQSTACK()
```

### Event 65535.11

#### Metadata

| Field        | Value   |
|--------------|---------|
| Entrypoint   | 0x03D0  |
| Data Size    | 3 bytes |
| Instructions | 2       |

```
      00 01 02 03 04 05 06 07  08 09 0A 0B 0C 0D 0E 0F
      -- -- -- -- -- -- -- --  -- -- -- -- -- -- -- --
03D0: 61 01 00                                          a..             
```

#### Opcodes

```
  0: 0x03D0 [0x61] EventEntity->Render.Flags2 |= 0x00000001
  1: 0x03D2 [0x00] END_REQSTACK()
```
