# 17063948

## Common Data

| Field            | Value                    |
|------------------|--------------------------|
| Zone             | Chocobo Circuit (ID: 70) |
| Block Size       | 18468 bytes              |
| Total Events     | 8                        |
| References Count | 1985                     |

## List of Events

| Event ID                 | Entrypoint   |   Size |   Instructions |
|--------------------------|--------------|--------|----------------|
| [65535](#event-65535)    | 0x0000       |      1 |              1 |
| [115](#event-115)        | 0x0001       |      1 |              1 |
| [427](#event-427)        | 0x0002       |      1 |              1 |
| [458](#event-458)        | 0x0003       |      1 |              1 |
| [469](#event-469)        | 0x0004       |      1 |              1 |
| [65535.1](#event-655351) | 0x0005       |      1 |              1 |
| [210](#event-210)        | 0x0006       |      1 |              1 |
| [65535.2](#event-655352) | 0x0007       |  10473 |              6 |

## DAT References (imed_data)

|   Index | Hex Value   |   Dec Value |
|---------|-------------|-------------|
|       0 | 0x0000      |           0 |
|       1 | 0x0001      |           1 |
|       2 | 0x0002      |           2 |
|       3 | 0x0009      |           9 |
|       4 | 0xFFFE91C9  |  4294873545 |
|       5 | 0xFFFFFE0C  |  4294966796 |
|       6 | 0xFFFEDA08  |  4294892040 |
|       7 | 0xFFFE897C  |  4294871420 |
|       8 | 0xFFFED9FC  |  4294892028 |
|       9 | 0xFFFE81A8  |  4294869416 |
|      10 | 0xFFFEDA67  |  4294892135 |
|      11 | 0xFFFE794C  |  4294867276 |
|      12 | 0xFFFEDA32  |  4294892082 |
|      13 | 0xFFFE7129  |  4294865193 |
|      14 | 0xFFFEDAF5  |  4294892277 |
|      15 | 0xFFFE6964  |  4294863204 |
|      16 | 0xFFFEDA56  |  4294892118 |
|      17 | 0xFFFE6197  |  4294861207 |
|      18 | 0xFFFEDB84  |  4294892420 |
|      19 | 0xFFFE5A2E  |  4294859310 |
|      20 | 0xFFFEDB61  |  4294892385 |
|      21 | 0xFFFE52C2  |  4294857410 |
|      22 | 0xFFFE4AC2  |  4294855362 |
|      23 | 0xFFFEDAD3  |  4294892243 |
|      24 | 0xFFFE4300  |  4294853376 |
|      25 | 0xFFFEDBE3  |  4294892515 |
|      26 | 0xFFFE3B33  |  4294851379 |
|      27 | 0xFFFEDB73  |  4294892403 |
|      28 | 0xFFFE32B0  |  4294849200 |
|      29 | 0xFFFE2ABB  |  4294847163 |
|      30 | 0xFFFEDBA9  |  4294892457 |
|      31 | 0xFFFE246A  |  4294845546 |
|      32 | 0xFFFEDC12  |  4294892562 |
|      33 | 0xFFFE1C38  |  4294843448 |
|      34 | 0xFFFEDB08  |  4294892296 |
|      35 | 0xFFFE144F  |  4294841423 |
|      36 | 0xFFFEDA4D  |  4294892109 |
|      37 | 0xFFFE0B50  |  4294839120 |
|      38 | 0xFFFEDA6C  |  4294892140 |
|      39 | 0xFFFE02D5  |  4294836949 |
|      40 | 0xFFFEDA3D  |  4294892093 |
|      41 | 0xFFFDFB57  |  4294835031 |
|      42 | 0xFFFEDA09  |  4294892041 |
|      43 | 0xFFFDF404  |  4294833156 |
|      44 | 0xFFFDED00  |  4294831360 |
|      45 | 0xFFFED96A  |  4294891882 |
|      46 | 0xFFFDE5FC  |  4294829564 |
|      47 | 0xFFFED9CD  |  4294891981 |
|      48 | 0xFFFDDE14  |  4294827540 |
|      49 | 0xFFFEDA83  |  4294892163 |
|      50 | 0xFFFDD4B4  |  4294825140 |
|      51 | 0xFFFEDBB3  |  4294892467 |
|      52 | 0xFFFDCCCE  |  4294823118 |
|      53 | 0xFFFEDB8E  |  4294892430 |
|      54 | 0xFFFDC5C0  |  4294821312 |
|      55 | 0xFFFEDB2D  |  4294892333 |
|      56 | 0xFFFDBE1D  |  4294819357 |
|      57 | 0xFFFEDBAF  |  4294892463 |
|      58 | 0xFFFDB687  |  4294817415 |
|      59 | 0xFFFEDC36  |  4294892598 |
|      60 | 0xFFFDAE39  |  4294815289 |
|      61 | 0xFFFEDCEB  |  4294892779 |
|      62 | 0xFFFDA625  |  4294813221 |
|      63 | 0xFFFEDD87  |  4294892935 |
|      64 | 0xFFFD9E95  |  4294811285 |
|      65 | 0xFFFEDE44  |  4294893124 |
|      66 | 0xFFFD96A2  |  4294809250 |
|      67 | 0xFFFEDEF9  |  4294893305 |
|      68 | 0xFFFD8EF0  |  4294807280 |
|      69 | 0xFFFEDF7C  |  4294893436 |
|      70 | 0xFFFD86EB  |  4294805227 |
|      71 | 0xFFFEE0A0  |  4294893728 |
|      72 | 0xFFFD7F4C  |  4294803276 |
|      73 | 0xFFFEE23D  |  4294894141 |
|      74 | 0xFFFD7871  |  4294801521 |
|      75 | 0xFFFEE3A8  |  4294894504 |
|      76 | 0xFFFD704B  |  4294799435 |
|      77 | 0xFFFEE4FF  |  4294894847 |
|      78 | 0xFFFD6958  |  4294797656 |
|      79 | 0xFFFEE585  |  4294894981 |
|      80 | 0xFFFD6210  |  4294795792 |
|      81 | 0xFFFEE699  |  4294895257 |
|      82 | 0xFFFD5B7D  |  4294794109 |
|      83 | 0xFFFEE7CB  |  4294895563 |
|      84 | 0xFFFD5468  |  4294792296 |
|      85 | 0xFFFEE9CE  |  4294896078 |
|      86 | 0xFFFD4D03  |  4294790403 |
|      87 | 0xFFFEEB1A  |  4294896410 |
|      88 | 0xFFFD461D  |  4294788637 |
|      89 | 0xFFFEED55  |  4294896981 |
|      90 | 0xFFFD3DEB  |  4294786539 |
|      91 | 0xFFFEEED3  |  4294897363 |
|      92 | 0xFFFD37F2  |  4294785010 |
|      93 | 0xFFFEF190  |  4294898064 |
|      94 | 0xFFFD3119  |  4294783257 |
|      95 | 0xFFFEF2C1  |  4294898369 |
|      96 | 0xFFFD2A5A  |  4294781530 |
|      97 | 0xFFFEF59A  |  4294899098 |
|      98 | 0xFFFD2309  |  4294779657 |
|      99 | 0xFFFEF856  |  4294899798 |
|     100 | 0xFFFD1C81  |  4294777985 |
|     101 | 0xFFFEFBC1  |  4294900673 |
|     102 | 0xFFFD1597  |  4294776215 |
|     103 | 0xFFFEFDEC  |  4294901228 |
|     104 | 0xFFFD0F1B  |  4294774555 |
|     105 | 0xFFFF0186  |  4294902150 |
|     106 | 0xFFFD07F1  |  4294772721 |
|     107 | 0xFFFF0529  |  4294903081 |
|     108 | 0xFFFD0122  |  4294770978 |
|     109 | 0xFFFF08C5  |  4294904005 |
|     110 | 0xFFFCFAB5  |  4294769333 |
|     111 | 0xFFFF0C9A  |  4294904986 |
|     112 | 0xFFFCF51F  |  4294767903 |
|     113 | 0xFFFF1045  |  4294905925 |
|     114 | 0xFFFCEEB7  |  4294766263 |
|     115 | 0xFFFF14E0  |  4294907104 |
|     116 | 0xFFFCE944  |  4294764868 |
|     117 | 0xFFFF1956  |  4294908246 |
|     118 | 0xFFFCE38C  |  4294763404 |
|     119 | 0xFFFF1D26  |  4294909222 |
|     120 | 0xFFFCDDDE  |  4294761950 |
|     121 | 0xFFFF218C  |  4294910348 |
|     122 | 0xFFFCD896  |  4294760598 |
|     123 | 0xFFFF263F  |  4294911551 |
|     124 | 0xFFFCD2C5  |  4294759109 |
|     125 | 0xFFFF2AEB  |  4294912747 |
|     126 | 0xFFFCCDD5  |  4294757845 |
|     127 | 0xFFFF302C  |  4294914092 |
|     128 | 0xFFFCC7C7  |  4294756295 |
|     129 | 0xFFFF351A  |  4294915354 |
|     130 | 0xFFFCC314  |  4294755092 |
|     131 | 0xFFFF3A83  |  4294916739 |
|     132 | 0xFFFCBE27  |  4294753831 |
|     133 | 0xFFFF3FFF  |  4294918143 |
|     134 | 0xFFFCB991  |  4294752657 |
|     135 | 0xFFFF4544  |  4294919492 |
|     136 | 0xFFFCB486  |  4294751366 |
|     137 | 0xFFFF4AD6  |  4294920918 |
|     138 | 0xFFFCAFA4  |  4294750116 |
|     139 | 0xFFFF5178  |  4294922616 |
|     140 | 0xFFFCAB1A  |  4294748954 |
|     141 | 0xFFFF5726  |  4294924070 |
|     142 | 0xFFFCA6F4  |  4294747892 |
|     143 | 0xFFFF5D41  |  4294925633 |
|     144 | 0xFFFCA2FC  |  4294746876 |
|     145 | 0xFFFF6342  |  4294927170 |
|     146 | 0xFFFC9EE4  |  4294745828 |
|     147 | 0xFFFF690B  |  4294928651 |
|     148 | 0xFFFC9BCE  |  4294745038 |
|     149 | 0xFFFF6F65  |  4294930277 |
|     150 | 0xFFFC97DC  |  4294744028 |
|     151 | 0xFFFF753E  |  4294931774 |
|     152 | 0xFFFC9490  |  4294743184 |
|     153 | 0xFFFF7BF9  |  4294933497 |
|     154 | 0xFFFC91A7  |  4294742439 |
|     155 | 0xFFFF82AF  |  4294935215 |
|     156 | 0xFFFC8DF4  |  4294741492 |
|     157 | 0xFFFF89E3  |  4294937059 |
|     158 | 0xFFFC8AD4  |  4294740692 |
|     159 | 0xFFFF90F4  |  4294938868 |
|     160 | 0xFFFC8749  |  4294739785 |
|     161 | 0xFFFF972A  |  4294940458 |
|     162 | 0xFFFC8574  |  4294739316 |
|     163 | 0xFFFF9E65  |  4294942309 |
|     164 | 0xFFFC8285  |  4294738565 |
|     165 | 0xFFFFA596  |  4294944150 |
|     166 | 0xFFFC8151  |  4294738257 |
|     167 | 0xFFFFAC75  |  4294945909 |
|     168 | 0xFFFC7E54  |  4294737492 |
|     169 | 0xFFFFB32E  |  4294947630 |
|     170 | 0xFFFC7D63  |  4294737251 |
|     171 | 0xFFFFBABA  |  4294949562 |
|     172 | 0xFFFC7B26  |  4294736678 |
|     173 | 0xFFFFC1AB  |  4294951339 |
|     174 | 0xFFFC7A14  |  4294736404 |
|     175 | 0xFFFFC8CA  |  4294953162 |
|     176 | 0xFFFC789C  |  4294736028 |
|     177 | 0xFFFFD037  |  4294955063 |
|     178 | 0xFFFC7803  |  4294735875 |
|     179 | 0xFFFFD70F  |  4294956815 |
|     180 | 0xFFFC7726  |  4294735654 |
|     181 | 0xFFFFDEB3  |  4294958771 |
|     182 | 0xFFFC7690  |  4294735504 |
|     183 | 0xFFFFE5F3  |  4294960627 |
|     184 | 0xFFFC7601  |  4294735361 |
|     185 | 0xFFFFED60  |  4294962528 |
|     186 | 0xFFFC75BC  |  4294735292 |
|     187 | 0xFFFFF4A2  |  4294964386 |
|     188 | 0xFFFC75C0  |  4294735296 |
|     189 | 0xFFFFFC5F  |  4294966367 |
|     190 | 0xFFFC7588  |  4294735240 |
|     191 | 0x03EF      |        1007 |
|     192 | 0xFFFC7632  |  4294735410 |
|     193 | 0x0A89      |        2697 |
|     194 | 0xFFFC76C5  |  4294735557 |
|     195 | 0x1195      |        4501 |
|     196 | 0xFFFC7767  |  4294735719 |
|     197 | 0x18B4      |        6324 |
|     198 | 0xFFFC77CE  |  4294735822 |
|     199 | 0x2079      |        8313 |
|     200 | 0xFFFC7756  |  4294735702 |
|     201 | 0x27C3      |       10179 |
|     202 | 0xFFFC7A7E  |  4294736510 |
|     203 | 0x2EF3      |       12019 |
|     204 | 0xFFFC7BFA  |  4294736890 |
|     205 | 0x363F      |       13887 |
|     206 | 0xFFFC7E37  |  4294737463 |
|     207 | 0x3D38      |       15672 |
|     208 | 0xFFFC7F37  |  4294737719 |
|     209 | 0x446A      |       17514 |
|     210 | 0xFFFC81BB  |  4294738363 |
|     211 | 0x4B7D      |       19325 |
|     212 | 0xFFFC8338  |  4294738744 |
|     213 | 0x5274      |       21108 |
|     214 | 0xFFFC8613  |  4294739475 |
|     215 | 0x598D      |       22925 |
|     216 | 0xFFFC87DB  |  4294739931 |
|     217 | 0x5FDC      |       24540 |
|     218 | 0xFFFC8BA8  |  4294740904 |
|     219 | 0x6733      |       26419 |
|     220 | 0xFFFC8E37  |  4294741559 |
|     221 | 0x6DA9      |       28073 |
|     222 | 0xFFFC9172  |  4294742386 |
|     223 | 0x7578      |       30072 |
|     224 | 0xFFFC943C  |  4294743100 |
|     225 | 0x7B1E      |       31518 |
|     226 | 0x81AB      |       33195 |
|     227 | 0xFFFC9B59  |  4294744921 |
|     228 | 0x87B4      |       34740 |
|     229 | 0xFFFC9F82  |  4294745986 |
|     230 | 0x8E13      |       36371 |
|     231 | 0xFFFCA2BC  |  4294746812 |
|     232 | 0x950E      |       38158 |
|     233 | 0xFFFCA7A7  |  4294748071 |
|     234 | 0x9B58      |       39768 |
|     235 | 0xFFFCABED  |  4294749165 |
|     236 | 0xA22F      |       41519 |
|     237 | 0xFFFCB00E  |  4294750222 |
|     238 | 0xA783      |       42883 |
|     239 | 0xFFFCB548  |  4294751560 |
|     240 | 0xACA3      |       44195 |
|     241 | 0xB2E3      |       45795 |
|     242 | 0xFFFCBEB1  |  4294753969 |
|     243 | 0xB812      |       47122 |
|     244 | 0xFFFCC37E  |  4294755198 |
|     245 | 0xBE43      |       48707 |
|     246 | 0xFFFCC8A6  |  4294756518 |
|     247 | 0xC2BD      |       49853 |
|     248 | 0xFFFCCD36  |  4294757686 |
|     249 | 0xC791      |       51089 |
|     250 | 0xFFFCD202  |  4294758914 |
|     251 | 0xCCDD      |       52445 |
|     252 | 0xFFFCD7F7  |  4294760439 |
|     253 | 0xD17E      |       53630 |
|     254 | 0xFFFCDDD3  |  4294761939 |
|     255 | 0xD5F2      |       54770 |
|     256 | 0xFFFCE460  |  4294763616 |
|     257 | 0xDA97      |       55959 |
|     258 | 0xFFFCE9B3  |  4294764979 |
|     259 | 0xDEF9      |       57081 |
|     260 | 0xFFFCEF8A  |  4294766474 |
|     261 | 0xE312      |       58130 |
|     262 | 0xFFFCF592  |  4294768018 |
|     263 | 0xE766      |       59238 |
|     264 | 0xFFFCFC28  |  4294769704 |
|     265 | 0xEC2B      |       60459 |
|     266 | 0xFFFD01E2  |  4294771170 |
|     267 | 0xEF8D      |       61325 |
|     268 | 0xFFFD0890  |  4294772880 |
|     269 | 0xF2FE      |       62206 |
|     270 | 0xFFFD0F03  |  4294774531 |
|     271 | 0xF672      |       63090 |
|     272 | 0xFFFD1563  |  4294776163 |
|     273 | 0xF99C      |       63900 |
|     274 | 0xFFFD1C41  |  4294777921 |
|     275 | 0xFCBC      |       64700 |
|     276 | 0xFFFD233E  |  4294779710 |
|     277 | 0xFF67      |       65383 |
|     278 | 0xFFFD29D2  |  4294781394 |
|     279 | 0x102EB     |       66283 |
|     280 | 0xFFFD3182  |  4294783362 |
|     281 | 0x10492     |       66706 |
|     282 | 0xFFFD37F0  |  4294785008 |
|     283 | 0x1073E     |       67390 |
|     284 | 0xFFFD3EF4  |  4294786804 |
|     285 | 0x108EA     |       67818 |
|     286 | 0xFFFD45E4  |  4294788580 |
|     287 | 0x10B66     |       68454 |
|     288 | 0xFFFD4D6D  |  4294790509 |
|     289 | 0x10D0D     |       68877 |
|     290 | 0xFFFD5480  |  4294792320 |
|     291 | 0x10EF5     |       69365 |
|     292 | 0xFFFD5B48  |  4294794056 |
|     293 | 0x1105C     |       69724 |
|     294 | 0xFFFD6274  |  4294795892 |
|     295 | 0x1130F     |       70415 |
|     296 | 0xFFFD6A4E  |  4294797902 |
|     297 | 0x114DD     |       70877 |
|     298 | 0xFFFD70F3  |  4294799603 |
|     299 | 0x11612     |       71186 |
|     300 | 0xFFFD77E1  |  4294801377 |
|     301 | 0x11790     |       71568 |
|     302 | 0xFFFD7FD5  |  4294803413 |
|     303 | 0x118EA     |       71914 |
|     304 | 0xFFFD878A  |  4294805386 |
|     305 | 0x11AC1     |       72385 |
|     306 | 0xFFFD8ED3  |  4294807251 |
|     307 | 0x11B1A     |       72474 |
|     308 | 0xFFFD968F  |  4294809231 |
|     309 | 0x11C6C     |       72812 |
|     310 | 0xFFFD9E5D  |  4294811229 |
|     311 | 0x11CE8     |       72936 |
|     312 | 0xFFFDA6F9  |  4294813433 |
|     313 | 0x11D65     |       73061 |
|     314 | 0xFFFDAE65  |  4294815333 |
|     315 | 0x11D83     |       73091 |
|     316 | 0xFFFDB67B  |  4294817403 |
|     317 | 0xFFFDBDA9  |  4294819241 |
|     318 | 0x11DAD     |       73133 |
|     319 | 0xFFFDC4F5  |  4294821109 |
|     320 | 0x11DCF     |       73167 |
|     321 | 0xFFFDCCE4  |  4294823140 |
|     322 | 0x11D32     |       73010 |
|     323 | 0xFFFDD54B  |  4294825291 |
|     324 | 0xFFFDDCD2  |  4294827218 |
|     325 | 0x11D71     |       73073 |
|     326 | 0xFFFDE503  |  4294829315 |
|     327 | 0xFFFDECA0  |  4294831264 |
|     328 | 0xFFFDF58E  |  4294833550 |
|     329 | 0x11D30     |       73008 |
|     330 | 0xFFFDFC9D  |  4294835357 |
|     331 | 0x11CF4     |       72948 |
|     332 | 0xFFFE0472  |  4294837362 |
|     333 | 0xFFFE0BC0  |  4294839232 |
|     334 | 0x11D90     |       73104 |
|     335 | 0xFFFE13F4  |  4294841332 |
|     336 | 0xFFFE1B32  |  4294843186 |
|     337 | 0x11D42     |       73026 |
|     338 | 0xFFFE2377  |  4294845303 |
|     339 | 0xFFFE2B1F  |  4294847263 |
|     340 | 0xFFFE3398  |  4294849432 |
|     341 | 0xFFFE3BC7  |  4294851527 |
|     342 | 0xFFFE427C  |  4294853244 |
|     343 | 0xFFFE4A9D  |  4294855325 |
|     344 | 0x11D52     |       73042 |
|     345 | 0xFFFE5268  |  4294857320 |
|     346 | 0xFFFE5A1D  |  4294859293 |
|     347 | 0x11D13     |       72979 |
|     348 | 0xFFFE61EB  |  4294861291 |
|     349 | 0xFFFE696F  |  4294863215 |
|     350 | 0x11CE5     |       72933 |
|     351 | 0xFFFE710C  |  4294865164 |
|     352 | 0x11D51     |       73041 |
|     353 | 0xFFFE78FF  |  4294867199 |
|     354 | 0x11CC6     |       72902 |
|     355 | 0xFFFE80D9  |  4294869209 |
|     356 | 0x11CC5     |       72901 |
|     357 | 0xFFFE8998  |  4294871448 |
|     358 | 0x11C1A     |       72730 |
|     359 | 0xFFFE90F5  |  4294873333 |
|     360 | 0xFFFE988D  |  4294875277 |
|     361 | 0xFFFEA069  |  4294877289 |
|     362 | 0x11D0E     |       72974 |
|     363 | 0xFFFEA82C  |  4294879276 |
|     364 | 0x11C87     |       72839 |
|     365 | 0xFFFEB03C  |  4294881340 |
|     366 | 0xFFFEB7DC  |  4294883292 |
|     367 | 0x11D80     |       73088 |
|     368 | 0xFFFEBF67  |  4294885223 |
|     369 | 0x11D16     |       72982 |
|     370 | 0xFFFEC76C  |  4294887276 |
|     371 | 0x11D23     |       72995 |
|     372 | 0xFFFECF7C  |  4294889340 |
|     373 | 0xFFFED72B  |  4294891307 |
|     374 | 0xFFFEDEA7  |  4294893223 |
|     375 | 0xFFFEE6BB  |  4294895291 |
|     376 | 0xFFFEEE81  |  4294897281 |
|     377 | 0xFFFEF62C  |  4294899244 |
|     378 | 0xFFFEFDAC  |  4294901164 |
|     379 | 0xFFFF05DB  |  4294903259 |
|     380 | 0x11D9F     |       73119 |
|     381 | 0xFFFF0DC1  |  4294905281 |
|     382 | 0x11D8B     |       73099 |
|     383 | 0xFFFF153D  |  4294907197 |
|     384 | 0xFFFF2568  |  4294911336 |
|     385 | 0xFFFF2CFA  |  4294913274 |
|     386 | 0xFFFF3508  |  4294915336 |
|     387 | 0xFFFF3C24  |  4294917156 |
|     388 | 0xFFFF4380  |  4294919040 |
|     389 | 0xFFFF4AD9  |  4294920921 |
|     390 | 0xFFFF535E  |  4294923102 |
|     391 | 0xFFFF5B29  |  4294925097 |
|     392 | 0xFFFF636B  |  4294927211 |
|     393 | 0x11D04     |       72964 |
|     394 | 0xFFFF6B04  |  4294929156 |
|     395 | 0xFFFF72DC  |  4294931164 |
|     396 | 0xFFFF7AA4  |  4294933156 |
|     397 | 0xFFFF823D  |  4294935101 |
|     398 | 0x11D61     |       73057 |
|     399 | 0xFFFF8A09  |  4294937097 |
|     400 | 0xFFFF91EC  |  4294939116 |
|     401 | 0xFFFF9A5A  |  4294941274 |
|     402 | 0xFFFFA16D  |  4294943085 |
|     403 | 0xFFFFA8D4  |  4294944980 |
|     404 | 0xFFFFB13B  |  4294947131 |
|     405 | 0x11DBF     |       73151 |
|     406 | 0xFFFFB8E9  |  4294949097 |
|     407 | 0xFFFFC03F  |  4294950975 |
|     408 | 0xFFFFC84E  |  4294953038 |
|     409 | 0xFFFFD145  |  4294955333 |
|     410 | 0xFFFFD864  |  4294957156 |
|     411 | 0xFFFFE068  |  4294959208 |
|     412 | 0xFFFFE83F  |  4294961215 |
|     413 | 0xFFFFF056  |  4294963286 |
|     414 | 0xFFFFF803  |  4294965251 |
|     415 | 0x11D37     |       73015 |
|     416 | 0xFFFFFFF6  |  4294967286 |
|     417 | 0x11CA6     |       72870 |
|     418 | 0x0787      |        1927 |
|     419 | 0x11CCD     |       72909 |
|     420 | 0x0F76      |        3958 |
|     421 | 0x16A1      |        5793 |
|     422 | 0x11D6C     |       73068 |
|     423 | 0x1ED8      |        7896 |
|     424 | 0x268E      |        9870 |
|     425 | 0x11DD6     |       73174 |
|     426 | 0x2E58      |       11864 |
|     427 | 0x3647      |       13895 |
|     428 | 0x3E46      |       15942 |
|     429 | 0x11DAF     |       73135 |
|     430 | 0x466A      |       18026 |
|     431 | 0x4E14      |       19988 |
|     432 | 0x11CB6     |       72886 |
|     433 | 0x5623      |       22051 |
|     434 | 0x11D02     |       72962 |
|     435 | 0x5D76      |       23926 |
|     436 | 0x11CD5     |       72917 |
|     437 | 0x64D3      |       25811 |
|     438 | 0x6CF6      |       27894 |
|     439 | 0x74F6      |       29942 |
|     440 | 0x7BFA      |       31738 |
|     441 | 0x11CD6     |       72918 |
|     442 | 0x840F      |       33807 |
|     443 | 0x8C64      |       35940 |
|     444 | 0x949C      |       38044 |
|     445 | 0x9C87      |       40071 |
|     446 | 0xA48A      |       42122 |
|     447 | 0x11C98     |       72856 |
|     448 | 0xAC63      |       44131 |
|     449 | 0x11CB9     |       72889 |
|     450 | 0xB3D9      |       46041 |
|     451 | 0xBB09      |       47881 |
|     452 | 0xC21F      |       49695 |
|     453 | 0xCA4A      |       51786 |
|     454 | 0x11D2B     |       73003 |
|     455 | 0xD277      |       53879 |
|     456 | 0xDB09      |       56073 |
|     457 | 0x11C73     |       72819 |
|     458 | 0xE338      |       58168 |
|     459 | 0xEABB      |       60091 |
|     460 | 0x11D00     |       72960 |
|     461 | 0xF2F1      |       62193 |
|     462 | 0xFA34      |       64052 |
|     463 | 0x11CE4     |       72932 |
|     464 | 0x101D6     |       66006 |
|     465 | 0x10983     |       67971 |
|     466 | 0x11D1D     |       72989 |
|     467 | 0x11125     |       69925 |
|     468 | 0x11927     |       71975 |
|     469 | 0x11D55     |       73045 |
|     470 | 0x12113     |       74003 |
|     471 | 0x128F6     |       76022 |
|     472 | 0x11D63     |       73059 |
|     473 | 0x13101     |       78081 |
|     474 | 0x13861     |       79969 |
|     475 | 0x11E37     |       73271 |
|     476 | 0x13F47     |       81735 |
|     477 | 0x11EC0     |       73408 |
|     478 | 0x14821     |       84001 |
|     479 | 0x12051     |       73809 |
|     480 | 0x1508F     |       86159 |
|     481 | 0x1218A     |       74122 |
|     482 | 0x158B6     |       88246 |
|     483 | 0x122EA     |       74474 |
|     484 | 0x15FA6     |       90022 |
|     485 | 0x124D7     |       74967 |
|     486 | 0x16714     |       91924 |
|     487 | 0x124AF     |       74927 |
|     488 | 0x16F29     |       93993 |
|     489 | 0x176AC     |       95916 |
|     490 | 0x1251A     |       75034 |
|     491 | 0x17E75     |       97909 |
|     492 | 0x18622     |       99874 |
|     493 | 0x124FA     |       75002 |
|     494 | 0x18E2E     |      101934 |
|     495 | 0x124A2     |       74914 |
|     496 | 0x19691     |      104081 |
|     497 | 0x1243F     |       74815 |
|     498 | 0x19EBC     |      106172 |
|     499 | 0x1246C     |       74860 |
|     500 | 0x1A607     |      108039 |
|     501 | 0x1ADD3     |      110035 |
|     502 | 0x12436     |       74806 |
|     503 | 0x1B57D     |      111997 |
|     504 | 0x123E2     |       74722 |
|     505 | 0x1BD20     |      113952 |
|     506 | 0x12401     |       74753 |
|     507 | 0x1C4D3     |      115923 |
|     508 | 0x1CCA3     |      117923 |
|     509 | 0x1D4C5     |      120005 |
|     510 | 0x124DB     |       74971 |
|     511 | 0x1DC5B     |      121947 |
|     512 | 0x12543     |       75075 |
|     513 | 0x1E4D7     |      124119 |
|     514 | 0x124BC     |       74940 |
|     515 | 0x1EC49     |      126025 |
|     516 | 0x1FCA2     |      130210 |
|     517 | 0x20BB9     |      134073 |
|     518 | 0x1250D     |       75021 |
|     519 | 0x21BDC     |      138204 |
|     520 | 0xFFFFFE0B  |  4294966795 |
|     521 | 0x22AF4     |      142068 |
|     522 | 0x239D5     |      145877 |
|     523 | 0x24B05     |      150277 |
|     524 | 0x259E6     |      154086 |
|     525 | 0x26969     |      158057 |
|     526 | 0x27921     |      162081 |
|     527 | 0x288A4     |      166052 |
|     528 | 0x298C7     |      170183 |
|     529 | 0x121E8     |       74216 |
|     530 | 0x2A708     |      173832 |
|     531 | 0x11F64     |       73572 |
|     532 | 0x2B6C0     |      177856 |
|     533 | 0x11C75     |       72821 |
|     534 | 0x2C45F     |      181343 |
|     535 | 0x11950     |       72016 |
|     536 | 0x2D44D     |      185421 |
|     537 | 0x11413     |       70675 |
|     538 | 0x2E222     |      188962 |
|     539 | 0x10F41     |       69441 |
|     540 | 0x2E9C0     |      190912 |
|     541 | 0x10B81     |       68481 |
|     542 | 0x2F1A5     |      192933 |
|     543 | 0x10780     |       67456 |
|     544 | 0x2F83C     |      194620 |
|     545 | 0x103C0     |       66496 |
|     546 | 0x2FE38     |      196152 |
|     547 | 0x1005F     |       65631 |
|     548 | 0x3051A     |      197914 |
|     549 | 0xFCEC      |       64748 |
|     550 | 0x30BD8     |      199640 |
|     551 | 0xF909      |       63753 |
|     552 | 0x312A1     |      201377 |
|     553 | 0xF463      |       62563 |
|     554 | 0x3190C     |      203020 |
|     555 | 0xF03C      |       61500 |
|     556 | 0x31EDD     |      204509 |
|     557 | 0xEBB1      |       60337 |
|     558 | 0x324C9     |      206025 |
|     559 | 0xE7DA      |       59354 |
|     560 | 0x32B1B     |      207643 |
|     561 | 0xE262      |       57954 |
|     562 | 0x33268     |      209512 |
|     563 | 0xDD29      |       56617 |
|     564 | 0x33792     |      210834 |
|     565 | 0xD87A      |       55418 |
|     566 | 0x33CAD     |      212141 |
|     567 | 0xD3BB      |       54203 |
|     568 | 0x342D8     |      213720 |
|     569 | 0xCE18      |       52760 |
|     570 | 0x347FF     |      215039 |
|     571 | 0xC90A      |       51466 |
|     572 | 0x34D01     |      216321 |
|     573 | 0xC3B6      |       50102 |
|     574 | 0x3520E     |      217614 |
|     575 | 0xBE24      |       48676 |
|     576 | 0x3556C     |      218476 |
|     577 | 0xB6BB      |       46779 |
|     578 | 0x35AF2     |      219890 |
|     579 | 0xAF62      |       44898 |
|     580 | 0x35E7F     |      220799 |
|     581 | 0xA88A      |       43146 |
|     582 | 0x361F6     |      221686 |
|     583 | 0xA16C      |       41324 |
|     584 | 0x364B5     |      222389 |
|     585 | 0x9A24      |       39460 |
|     586 | 0x36730     |      223024 |
|     587 | 0x935F      |       37727 |
|     588 | 0x36935     |      223541 |
|     589 | 0x8C28      |       35880 |
|     590 | 0x36C13     |      224275 |
|     591 | 0x84FF      |       34047 |
|     592 | 0x36E1F     |      224799 |
|     593 | 0x7DC2      |       32194 |
|     594 | 0x370BC     |      225468 |
|     595 | 0x7644      |       30276 |
|     596 | 0x373DA     |      226266 |
|     597 | 0x6F28      |       28456 |
|     598 | 0x375F4     |      226804 |
|     599 | 0x675B      |       26459 |
|     600 | 0x378B4     |      227508 |
|     601 | 0x60B9      |       24761 |
|     602 | 0x37B20     |      228128 |
|     603 | 0x59D2      |       22994 |
|     604 | 0x37CE9     |      228585 |
|     605 | 0x538A      |       21386 |
|     606 | 0x37EB6     |      229046 |
|     607 | 0x4CAF      |       19631 |
|     608 | 0x38038     |      229432 |
|     609 | 0x4505      |       17669 |
|     610 | 0x381E5     |      229861 |
|     611 | 0x3D28      |       15656 |
|     612 | 0x38380     |      230272 |
|     613 | 0x3629      |       13865 |
|     614 | 0x3857A     |      230778 |
|     615 | 0x2F39      |       12089 |
|     616 | 0x3868F     |      231055 |
|     617 | 0x27BC      |       10172 |
|     618 | 0x38778     |      231288 |
|     619 | 0x207F      |        8319 |
|     620 | 0x387D4     |      231380 |
|     621 | 0x18D0      |        6352 |
|     622 | 0x3890F     |      231695 |
|     623 | 0x115E      |        4446 |
|     624 | 0x38915     |      231701 |
|     625 | 0x09B8      |        2488 |
|     626 | 0x389DD     |      231901 |
|     627 | 0x01D8      |         472 |
|     628 | 0x389A5     |      231845 |
|     629 | 0xFFFFFB5E  |  4294966110 |
|     630 | 0x389DB     |      231899 |
|     631 | 0xFFFFF44E  |  4294964302 |
|     632 | 0x38940     |      231744 |
|     633 | 0xFFFFED3A  |  4294962490 |
|     634 | 0x38975     |      231797 |
|     635 | 0xFFFFE594  |  4294960532 |
|     636 | 0x38868     |      231528 |
|     637 | 0xFFFFDE54  |  4294958676 |
|     638 | 0x387DE     |      231390 |
|     639 | 0xFFFFD673  |  4294956659 |
|     640 | 0x38611     |      230929 |
|     641 | 0xFFFFCF0D  |  4294954765 |
|     642 | 0x38514     |      230676 |
|     643 | 0xFFFFC7B8  |  4294952888 |
|     644 | 0x3833E     |      230206 |
|     645 | 0xFFFFC10C  |  4294951180 |
|     646 | 0x3824B     |      229963 |
|     647 | 0xFFFFB963  |  4294949219 |
|     648 | 0x380D2     |      229586 |
|     649 | 0xFFFFB2A3  |  4294947491 |
|     650 | 0x37F1C     |      229148 |
|     651 | 0xFFFFABDA  |  4294945754 |
|     652 | 0x37C68     |      228456 |
|     653 | 0xFFFFA4DC  |  4294943964 |
|     654 | 0x37ABA     |      228026 |
|     655 | 0xFFFF9D85  |  4294942085 |
|     656 | 0x377C7     |      227271 |
|     657 | 0xFFFF96FA  |  4294940410 |
|     658 | 0x3745C     |      226396 |
|     659 | 0xFFFF8F30  |  4294938416 |
|     660 | 0x3710C     |      225548 |
|     661 | 0xFFFF88AC  |  4294936748 |
|     662 | 0x36DFD     |      224765 |
|     663 | 0xFFFF8273  |  4294935155 |
|     664 | 0x36A7F     |      223871 |
|     665 | 0xFFFF7C4C  |  4294933580 |
|     666 | 0x3679F     |      223135 |
|     667 | 0xFFFF761C  |  4294931996 |
|     668 | 0x3646E     |      222318 |
|     669 | 0xFFFF6EF5  |  4294930165 |
|     670 | 0x360DA     |      221402 |
|     671 | 0xFFFF6761  |  4294928225 |
|     672 | 0x35C25     |      220197 |
|     673 | 0xFFFF6184  |  4294926724 |
|     674 | 0x358E4     |      219364 |
|     675 | 0xFFFF5BD6  |  4294925270 |
|     676 | 0x353DB     |      218075 |
|     677 | 0xFFFF55E5  |  4294923749 |
|     678 | 0x34FCC     |      217036 |
|     679 | 0xFFFF5034  |  4294922292 |
|     680 | 0x34A28     |      215592 |
|     681 | 0xFFFF4B62  |  4294921058 |
|     682 | 0x346A4     |      214692 |
|     683 | 0xFFFF4622  |  4294919714 |
|     684 | 0x34190     |      213392 |
|     685 | 0xFFFF40DF  |  4294918367 |
|     686 | 0x33CE0     |      212192 |
|     687 | 0xFFFF3A89  |  4294916745 |
|     688 | 0x33741     |      210753 |
|     689 | 0xFFFF358E  |  4294915470 |
|     690 | 0x33195     |      209301 |
|     691 | 0xFFFF2FDB  |  4294914011 |
|     692 | 0x32C71     |      207985 |
|     693 | 0xFFFF2AF1  |  4294912753 |
|     694 | 0x327D1     |      206801 |
|     695 | 0xFFFF25C9  |  4294911433 |
|     696 | 0x32208     |      205320 |
|     697 | 0xFFFF2171  |  4294910321 |
|     698 | 0x31C87     |      203911 |
|     699 | 0xFFFF1CA1  |  4294909089 |
|     700 | 0x31601     |      202241 |
|     701 | 0xFFFF18DA  |  4294908122 |
|     702 | 0x310A0     |      200864 |
|     703 | 0xFFFF1464  |  4294906980 |
|     704 | 0x30A14     |      199188 |
|     705 | 0xFFFF100F  |  4294905871 |
|     706 | 0x303C6     |      197574 |
|     707 | 0xFFFF0BD4  |  4294904788 |
|     708 | 0x2FD72     |      195954 |
|     709 | 0xFFFF0894  |  4294903956 |
|     710 | 0x2F74C     |      194380 |
|     711 | 0xFFFF04CF  |  4294902991 |
|     712 | 0x2F09C     |      192668 |
|     713 | 0xFFFF014D  |  4294902093 |
|     714 | 0x2EA35     |      191029 |
|     715 | 0xFFFEFD1C  |  4294901020 |
|     716 | 0x2E3AD     |      189357 |
|     717 | 0xFFFEF9D3  |  4294900179 |
|     718 | 0x2DC7A     |      187514 |
|     719 | 0xFFFEF661  |  4294899297 |
|     720 | 0x2D608     |      185864 |
|     721 | 0xFFFEF3F6  |  4294898678 |
|     722 | 0x2D000     |      184320 |
|     723 | 0xFFFEF13A  |  4294897978 |
|     724 | 0x2C932     |      182578 |
|     725 | 0xFFFEEE34  |  4294897204 |
|     726 | 0x2C29B     |      180891 |
|     727 | 0xFFFEEBA5  |  4294896549 |
|     728 | 0x2BB8D     |      179085 |
|     729 | 0xFFFEE95A  |  4294895962 |
|     730 | 0x2B448     |      177224 |
|     731 | 0xFFFEE704  |  4294895364 |
|     732 | 0x2AC64     |      175204 |
|     733 | 0xFFFEE535  |  4294894901 |
|     734 | 0x2A54B     |      173387 |
|     735 | 0xFFFEE39F  |  4294894495 |
|     736 | 0x29DF5     |      171509 |
|     737 | 0xFFFEE297  |  4294894231 |
|     738 | 0x296F8     |      169720 |
|     739 | 0xFFFEE0E0  |  4294893792 |
|     740 | 0x28F04     |      167684 |
|     741 | 0xFFFEDF2C  |  4294893356 |
|     742 | 0x28703     |      165635 |
|     743 | 0xFFFEDE14  |  4294893076 |
|     744 | 0x27F8A     |      163722 |
|     745 | 0xFFFEDCD3  |  4294892755 |
|     746 | 0x2780F     |      161807 |
|     747 | 0xFFFEDC2D  |  4294892589 |
|     748 | 0x270EB     |      159979 |
|     749 | 0xFFFEDB55  |  4294892373 |
|     750 | 0x26916     |      157974 |
|     751 | 0xFFFEDA9D  |  4294892189 |
|     752 | 0x2618D     |      156045 |
|     753 | 0xFFFEDA96  |  4294892182 |
|     754 | 0x259C0     |      154048 |
|     755 | 0xFFFED9F0  |  4294892016 |
|     756 | 0x251C2     |      152002 |
|     757 | 0xFFFEDA0D  |  4294892045 |
|     758 | 0x24A48     |      150088 |
|     759 | 0xFFFED9F4  |  4294892020 |
|     760 | 0x24248     |      148040 |
|     761 | 0xFFFED9D6  |  4294891990 |
|     762 | 0x23A6A     |      146026 |
|     763 | 0x232CF     |      144079 |
|     764 | 0xFFFEDA44  |  4294892100 |
|     765 | 0x22BC4     |      142276 |
|     766 | 0xFFFEDA42  |  4294892098 |
|     767 | 0x2238C     |      140172 |
|     768 | 0xFFFEDA5F  |  4294892127 |
|     769 | 0x21B97     |      138135 |
|     770 | 0x21389     |      136073 |
|     771 | 0xFFFED94E  |  4294891854 |
|     772 | 0xFFFED9A6  |  4294891942 |
|     773 | 0x203A3     |      132003 |
|     774 | 0x1FB8C     |      129932 |
|     775 | 0x1F3A0     |      127904 |
|     776 | 0x1EC4A     |      126026 |
|     777 | 0x1E538     |      124216 |
|     778 | 0xFFFEDA28  |  4294892072 |
|     779 | 0x1DD56     |      122198 |
|     780 | 0x1D551     |      120145 |
|     781 | 0x1CD78     |      118136 |
|     782 | 0x1C54F     |      116047 |
|     783 | 0xFFFED9A0  |  4294891936 |
|     784 | 0x1BD99     |      114073 |
|     785 | 0x1B60C     |      112140 |
|     786 | 0x1AE57     |      110167 |
|     787 | 0x1A6B3     |      108211 |
|     788 | 0xFFFEDA25  |  4294892069 |
|     789 | 0x19E79     |      106105 |
|     790 | 0x19696     |      104086 |
|     791 | 0xFFFED9ED  |  4294892013 |
|     792 | 0x18EE8     |      102120 |
|     793 | 0x18836     |      100406 |
|     794 | 0x18091     |       98449 |
|     795 | 0x17850     |       96336 |
|     796 | 0x16FC8     |       94152 |
|     797 | 0x1678C     |       92044 |
|     798 | 0xFFFEDA95  |  4294892181 |
|     799 | 0x15F4D     |       89933 |
|     800 | 0xFFFEDA90  |  4294892176 |
|     801 | 0x1571A     |       87834 |
|     802 | 0x14F21     |       85793 |
|     803 | 0x147A4     |       83876 |
|     804 | 0x13FDE     |       81886 |
|     805 | 0x13865     |       79973 |
|     806 | 0xFFFEDA79  |  4294892153 |
|     807 | 0x13138     |       78136 |
|     808 | 0x1297A     |       76154 |
|     809 | 0xFFFEDA41  |  4294892097 |
|     810 | 0x1215A     |       74074 |
|     811 | 0x11909     |       71945 |
|     812 | 0xFFFED9B6  |  4294891958 |
|     813 | 0x1112D     |       69933 |
|     814 | 0x1095B     |       67931 |
|     815 | 0xFFFED99A  |  4294891930 |
|     816 | 0x101EB     |       66027 |
|     817 | 0xFAA8      |       64168 |
|     818 | 0xF394      |       62356 |
|     819 | 0xEB69      |       60265 |
|     820 | 0xFFFEDA5D  |  4294892125 |
|     821 | 0xE367      |       58215 |
|     822 | 0xDBD7      |       56279 |
|     823 | 0xD389      |       54153 |
|     824 | 0xCB4A      |       52042 |
|     825 | 0xC30E      |       49934 |
|     826 | 0xBB64      |       47972 |
|     827 | 0xB41A      |       46106 |
|     828 | 0xAC0A      |       44042 |
|     829 | 0x9CCB      |       40139 |
|     830 | 0x94F9      |       38137 |
|     831 | 0x8D01      |       36097 |
|     832 | 0x851B      |       34075 |
|     833 | 0x7D6F      |       32111 |
|     834 | 0x74EE      |       29934 |
|     835 | 0x6DA5      |       28069 |
|     836 | 0x6510      |       25872 |
|     837 | 0x5D87      |       23943 |
|     838 | 0x561C      |       22044 |
|     839 | 0x4E11      |       19985 |
|     840 | 0x46DA      |       18138 |
|     841 | 0x3E9A      |       16026 |
|     842 | 0x3730      |       14128 |
|     843 | 0xFFFEDA3E  |  4294892094 |
|     844 | 0x2F78      |       12152 |
|     845 | 0x27A0      |       10144 |
|     846 | 0x1FAE      |        8110 |
|     847 | 0x185E      |        6238 |
|     848 | 0x1053      |        4179 |
|     849 | 0xFFFEDAB1  |  4294892209 |
|     850 | 0x0831      |        2097 |
|     851 | 0xFFFEDA8C  |  4294892172 |
|     852 | 0x006D      |         109 |
|     853 | 0xFFFFF8A1  |  4294965409 |
|     854 | 0xFFFEDADA  |  4294892250 |
|     855 | 0xFFFFF0BF  |  4294963391 |
|     856 | 0xFFFEDAE8  |  4294892264 |
|     857 | 0xFFFFE95F  |  4294961503 |
|     858 | 0xFFFFE19D  |  4294959517 |
|     859 | 0xFFFFD932  |  4294957362 |
|     860 | 0xFFFFD147  |  4294955335 |
|     861 | 0xFFFEDB20  |  4294892320 |
|     862 | 0xFFFFC9A2  |  4294953378 |
|     863 | 0xFFFFC240  |  4294951488 |
|     864 | 0xFFFFBA79  |  4294949497 |
|     865 | 0xFFFFB23F  |  4294947391 |
|     866 | 0xFFFFAA4C  |  4294945356 |
|     867 | 0xFFFFA290  |  4294943376 |
|     868 | 0xFFFF9BA6  |  4294941606 |
|     869 | 0xFFFF931A  |  4294939418 |
|     870 | 0xFFFED9D2  |  4294891986 |
|     871 | 0xFFFF8B2C  |  4294937388 |
|     872 | 0xFFFF8388  |  4294935432 |
|     873 | 0xFFFF7BEA  |  4294933482 |
|     874 | 0xFFFF742D  |  4294931501 |
|     875 | 0xFFFF6C59  |  4294929497 |
|     876 | 0xFFFF642C  |  4294927404 |
|     877 | 0xFFFF5BDF  |  4294925279 |
|     878 | 0xFFFF5499  |  4294923417 |
|     879 | 0xFFFF4C9C  |  4294921372 |
|     880 | 0xFFFF44DA  |  4294919386 |
|     881 | 0xFFFED9EF  |  4294892015 |
|     882 | 0xFFFF3D0C  |  4294917388 |
|     883 | 0xFFFF34F8  |  4294915320 |
|     884 | 0xFFFF2C91  |  4294913169 |
|     885 | 0xFFFF2547  |  4294911303 |
|     886 | 0xFFFED9BE  |  4294891966 |
|     887 | 0xFFFF1E3A  |  4294909498 |
|     888 | 0xFFFED957  |  4294891863 |
|     889 | 0xFFFF1705  |  4294907653 |
|     890 | 0xFFFED95C  |  4294891868 |
|     891 | 0xFFFF0EA9  |  4294905513 |
|     892 | 0xFFFF070B  |  4294903563 |
|     893 | 0xFFFED9D7  |  4294891991 |
|     894 | 0xFFFEFEDA  |  4294901466 |
|     895 | 0xFFFED9BB  |  4294891963 |
|     896 | 0xFFFEF664  |  4294899300 |
|     897 | 0xFFFEEEAE  |  4294897326 |
|     898 | 0xFFFEE72E  |  4294895406 |
|     899 | 0xFFFEDF6C  |  4294893420 |
|     900 | 0xFFFED7C6  |  4294891462 |
|     901 | 0xFFFED0C6  |  4294889670 |
|     902 | 0xFFFEC7FD  |  4294887421 |
|     903 | 0xFFFEBFAF  |  4294885295 |
|     904 | 0xFFFEB7D1  |  4294883281 |
|     905 | 0xFFFEDA51  |  4294892113 |
|     906 | 0xFFFEB0A1  |  4294881441 |
|     907 | 0xFFFEDA2E  |  4294892078 |
|     908 | 0xFFFEA8E4  |  4294879460 |
|     909 | 0xFFFEDA6A  |  4294892138 |
|     910 | 0xFFFEA0AF  |  4294877359 |
|     911 | 0xFFFE991D  |  4294875421 |
|     912 | 0xFFFE9328  |  4294873896 |
|     913 | 0xFFFFF977  |  4294965623 |
|     914 | 0xFFFED99D  |  4294891933 |
|     915 | 0xFFFE8B17  |  4294871831 |
|     916 | 0xFFFED915  |  4294891797 |
|     917 | 0xFFFE82C2  |  4294869698 |
|     918 | 0xFFFE7A54  |  4294867540 |
|     919 | 0xFFFED94B  |  4294891851 |
|     920 | 0xFFFE72F3  |  4294865651 |
|     921 | 0xFFFE6AC0  |  4294863552 |
|     922 | 0xFFFEDA59  |  4294892121 |
|     923 | 0xFFFE62B3  |  4294861491 |
|     924 | 0xFFFED9F7  |  4294892023 |
|     925 | 0xFFFE5B2C  |  4294859564 |
|     926 | 0xFFFED907  |  4294891783 |
|     927 | 0xFFFE5467  |  4294857831 |
|     928 | 0xFFFED951  |  4294891857 |
|     929 | 0xFFFE4C1F  |  4294855711 |
|     930 | 0xFFFED98E  |  4294891918 |
|     931 | 0xFFFE44CD  |  4294853837 |
|     932 | 0xFFFEDA4A  |  4294892106 |
|     933 | 0xFFFE3C04  |  4294851588 |
|     934 | 0xFFFEDA37  |  4294892087 |
|     935 | 0xFFFE3394  |  4294849428 |
|     936 | 0xFFFED9A4  |  4294891940 |
|     937 | 0xFFFE2C70  |  4294847600 |
|     938 | 0xFFFE25A2  |  4294845858 |
|     939 | 0xFFFEDA8D  |  4294892173 |
|     940 | 0xFFFE1C99  |  4294843545 |
|     941 | 0xFFFEDB24  |  4294892324 |
|     942 | 0xFFFE138B  |  4294841227 |
|     943 | 0xFFFE0B6F  |  4294839151 |
|     944 | 0xFFFEDC10  |  4294892560 |
|     945 | 0xFFFE0429  |  4294837289 |
|     946 | 0xFFFDFD0B  |  4294835467 |
|     947 | 0xFFFEDABF  |  4294892223 |
|     948 | 0xFFFDF5B3  |  4294833587 |
|     949 | 0xFFFDEDAC  |  4294831532 |
|     950 | 0xFFFEDBBF  |  4294892479 |
|     951 | 0xFFFDE5C2  |  4294829506 |
|     952 | 0xFFFDDDBE  |  4294827454 |
|     953 | 0xFFFEDB41  |  4294892353 |
|     954 | 0xFFFDD4D9  |  4294825177 |
|     955 | 0xFFFEDA7D  |  4294892157 |
|     956 | 0x0012      |          18 |
|     957 | 0x0011      |          17 |
|     958 | 0x000F      |          15 |
|     959 | 0x0015      |          21 |
|     960 | 0x000D      |          13 |
|     961 | 0x0008      |           8 |
|     962 | 0x0014      |          20 |
|     963 | 0x0010      |          16 |
|     964 | 0x000E      |          14 |
|     965 | 0x0013      |          19 |
|     966 | 0x0017      |          23 |
|     967 | 0x0029      |          41 |
|     968 | 0x03E8      |        1000 |
|     969 | 0x03ED      |        1005 |
|     970 | 0x03EC      |        1004 |
|     971 | 0x03E9      |        1001 |
|     972 | 0x03EE      |        1006 |
|     973 | 0x03F2      |        1010 |
|     974 | 0x03F3      |        1011 |
|     975 | 0x03F7      |        1015 |
|     976 | 0x040D      |        1037 |
|     977 | 0x0425      |        1061 |
|     978 | 0x0432      |        1074 |
|     979 | 0x0448      |        1096 |
|     980 | 0x0458      |        1112 |
|     981 | 0x0468      |        1128 |
|     982 | 0x03F4      |        1012 |
|     983 | 0x0407      |        1031 |
|     984 | 0x041B      |        1051 |
|     985 | 0x042D      |        1069 |
|     986 | 0x0437      |        1079 |
|     987 | 0x0446      |        1094 |
|     988 | 0x045A      |        1114 |
|     989 | 0x03F8      |        1016 |
|     990 | 0x0408      |        1032 |
|     991 | 0x041A      |        1050 |
|     992 | 0x0428      |        1064 |
|     993 | 0x0438      |        1080 |
|     994 | 0x044E      |        1102 |
|     995 | 0x03FC      |        1020 |
|     996 | 0x040C      |        1036 |
|     997 | 0x0419      |        1049 |
|     998 | 0x042F      |        1071 |
|     999 | 0x0443      |        1091 |
|    1000 | 0x044F      |        1103 |
|    1001 | 0x045F      |        1119 |
|    1002 | 0x0402      |        1026 |
|    1003 | 0x0415      |        1045 |
|    1004 | 0x0426      |        1062 |
|    1005 | 0x0439      |        1081 |
|    1006 | 0x0447      |        1095 |
|    1007 | 0x045D      |        1117 |
|    1008 | 0x03F6      |        1014 |
|    1009 | 0x040B      |        1035 |
|    1010 | 0x041D      |        1053 |
|    1011 | 0x042E      |        1070 |
|    1012 | 0x043E      |        1086 |
|    1013 | 0x0454      |        1108 |
|    1014 | 0x0465      |        1125 |
|    1015 | 0x03FB      |        1019 |
|    1016 | 0x0410      |        1040 |
|    1017 | 0x0420      |        1056 |
|    1018 | 0x0430      |        1072 |
|    1019 | 0x0452      |        1106 |
|    1020 | 0x0464      |        1124 |
|    1021 | 0x03EA      |        1002 |
|    1022 | 0x03F0      |        1008 |
|    1023 | 0x03F1      |        1009 |
|    1024 | 0x03F9      |        1017 |
|    1025 | 0x0400      |        1024 |
|    1026 | 0x03FD      |        1021 |
|    1027 | 0x0418      |        1048 |
|    1028 | 0x0429      |        1065 |
|    1029 | 0x0436      |        1078 |
|    1030 | 0x0445      |        1093 |
|    1031 | 0x0461      |        1121 |
|    1032 | 0x041C      |        1052 |
|    1033 | 0x0441      |        1089 |
|    1034 | 0x040A      |        1034 |
|    1035 | 0x0421      |        1057 |
|    1036 | 0x0473      |        1139 |
|    1037 | 0x042C      |        1068 |
|    1038 | 0x043A      |        1082 |
|    1039 | 0x0450      |        1104 |
|    1040 | 0x0422      |        1058 |
|    1041 | 0x045C      |        1116 |
|    1042 | 0x043B      |        1083 |
|    1043 | 0x03F5      |        1013 |
|    1044 | 0x0414      |        1044 |
|    1045 | 0x041F      |        1055 |
|    1046 | 0x043F      |        1087 |
|    1047 | 0x03EB      |        1003 |
|    1048 | 0xFFFE91BC  |  4294873532 |
|    1049 | 0xFFFEB553  |  4294882643 |
|    1050 | 0xFFFE898E  |  4294871438 |
|    1051 | 0xFFFEB5B4  |  4294882740 |
|    1052 | 0xFFFE819B  |  4294869403 |
|    1053 | 0xFFFEB5B2  |  4294882738 |
|    1054 | 0xFFFE7905  |  4294867205 |
|    1055 | 0xFFFEB55A  |  4294882650 |
|    1056 | 0xFFFE711C  |  4294865180 |
|    1057 | 0xFFFEB640  |  4294882880 |
|    1058 | 0xFFFE68B1  |  4294863025 |
|    1059 | 0xFFFEB654  |  4294882900 |
|    1060 | 0xFFFE6189  |  4294861193 |
|    1061 | 0xFFFEB6CF  |  4294883023 |
|    1062 | 0xFFFE59F8  |  4294859256 |
|    1063 | 0xFFFEB6F5  |  4294883061 |
|    1064 | 0xFFFE52B5  |  4294857397 |
|    1065 | 0xFFFEB719  |  4294883097 |
|    1066 | 0xFFFE42F3  |  4294853363 |
|    1067 | 0xFFFEB72E  |  4294883118 |
|    1068 | 0xFFFE3A39  |  4294851129 |
|    1069 | 0xFFFEB772  |  4294883186 |
|    1070 | 0xFFFE32A3  |  4294849187 |
|    1071 | 0xFFFE2B80  |  4294847360 |
|    1072 | 0xFFFEB760  |  4294883168 |
|    1073 | 0xFFFE245D  |  4294845533 |
|    1074 | 0xFFFEB75D  |  4294883165 |
|    1075 | 0xFFFE1BDE  |  4294843358 |
|    1076 | 0xFFFEB72B  |  4294883115 |
|    1077 | 0xFFFE137E  |  4294841214 |
|    1078 | 0xFFFE0B9F  |  4294839199 |
|    1079 | 0xFFFEB6FE  |  4294883070 |
|    1080 | 0xFFFE046E  |  4294837358 |
|    1081 | 0xFFFEB600  |  4294882816 |
|    1082 | 0xFFFDFC95  |  4294835349 |
|    1083 | 0xFFFEB6AF  |  4294882991 |
|    1084 | 0xFFFDF5A6  |  4294833574 |
|    1085 | 0xFFFDED14  |  4294831380 |
|    1086 | 0xFFFEB726  |  4294883110 |
|    1087 | 0xFFFDE411  |  4294829073 |
|    1088 | 0xFFFDDC70  |  4294827120 |
|    1089 | 0xFFFDD4A7  |  4294825127 |
|    1090 | 0xFFFDCDFF  |  4294823423 |
|    1091 | 0xFFFEB62E  |  4294882862 |
|    1092 | 0xFFFDC6FE  |  4294821630 |
|    1093 | 0xFFFEB5C4  |  4294882756 |
|    1094 | 0xFFFDBEFA  |  4294819578 |
|    1095 | 0xFFFEB687  |  4294882951 |
|    1096 | 0xFFFDB7B7  |  4294817719 |
|    1097 | 0xFFFEB768  |  4294883176 |
|    1098 | 0xFFFDAEEE  |  4294815470 |
|    1099 | 0xFFFEB80F  |  4294883343 |
|    1100 | 0xFFFDA751  |  4294813521 |
|    1101 | 0xFFFEB830  |  4294883376 |
|    1102 | 0xFFFD9F18  |  4294811416 |
|    1103 | 0xFFFEB978  |  4294883704 |
|    1104 | 0xFFFD9817  |  4294809623 |
|    1105 | 0xFFFEBB50  |  4294884176 |
|    1106 | 0xFFFD8EBF  |  4294807231 |
|    1107 | 0xFFFEBBC6  |  4294884294 |
|    1108 | 0xFFFD8621  |  4294805025 |
|    1109 | 0xFFFEBCE0  |  4294884576 |
|    1110 | 0xFFFD7DA1  |  4294802849 |
|    1111 | 0xFFFEBE26  |  4294884902 |
|    1112 | 0xFFFD761F  |  4294800927 |
|    1113 | 0xFFFEBF37  |  4294885175 |
|    1114 | 0xFFFD6E0D  |  4294798861 |
|    1115 | 0xFFFEBF7E  |  4294885246 |
|    1116 | 0xFFFD6681  |  4294796929 |
|    1117 | 0xFFFEC12B  |  4294885675 |
|    1118 | 0xFFFD5DD5  |  4294794709 |
|    1119 | 0xFFFEC292  |  4294886034 |
|    1120 | 0xFFFD561B  |  4294792731 |
|    1121 | 0xFFFEC44B  |  4294886475 |
|    1122 | 0xFFFD4E41  |  4294790721 |
|    1123 | 0xFFFEC639  |  4294886969 |
|    1124 | 0xFFFD46E0  |  4294788832 |
|    1125 | 0xFFFEC832  |  4294887474 |
|    1126 | 0xFFFD3E8C  |  4294786700 |
|    1127 | 0xFFFECA95  |  4294888085 |
|    1128 | 0xFFFD35B2  |  4294784434 |
|    1129 | 0xFFFECC7E  |  4294888574 |
|    1130 | 0xFFFD2D3D  |  4294782269 |
|    1131 | 0xFFFECF75  |  4294889333 |
|    1132 | 0xFFFD254C  |  4294780236 |
|    1133 | 0xFFFED2BD  |  4294890173 |
|    1134 | 0xFFFD1DFB  |  4294778363 |
|    1135 | 0xFFFED519  |  4294890777 |
|    1136 | 0xFFFD16DA  |  4294776538 |
|    1137 | 0xFFFED834  |  4294891572 |
|    1138 | 0xFFFD0EEA  |  4294774506 |
|    1139 | 0xFFFEDC68  |  4294892648 |
|    1140 | 0xFFFD07A0  |  4294772640 |
|    1141 | 0xFFFEE067  |  4294893671 |
|    1142 | 0xFFFCFF46  |  4294770502 |
|    1143 | 0xFFFEE354  |  4294894420 |
|    1144 | 0xFFFCF79E  |  4294768542 |
|    1145 | 0xFFFEE837  |  4294895671 |
|    1146 | 0xFFFCF097  |  4294766743 |
|    1147 | 0xFFFEEBBA  |  4294896570 |
|    1148 | 0xFFFCEA54  |  4294765140 |
|    1149 | 0xFFFEEF55  |  4294897493 |
|    1150 | 0xFFFCE397  |  4294763415 |
|    1151 | 0xFFFEF426  |  4294898726 |
|    1152 | 0xFFFCDD7A  |  4294761850 |
|    1153 | 0xFFFEF9CD  |  4294900173 |
|    1154 | 0xFFFCD603  |  4294759939 |
|    1155 | 0xFFFEFDFA  |  4294901242 |
|    1156 | 0xFFFCCFBC  |  4294758332 |
|    1157 | 0xFFFF03D3  |  4294902739 |
|    1158 | 0xFFFCC8FE  |  4294756606 |
|    1159 | 0xFFFF085D  |  4294903901 |
|    1160 | 0xFFFCC302  |  4294755074 |
|    1161 | 0xFFFF0E6E  |  4294905454 |
|    1162 | 0xFFFCBC87  |  4294753415 |
|    1163 | 0xFFFF12B3  |  4294906547 |
|    1164 | 0xFFFCB648  |  4294751816 |
|    1165 | 0xFFFF1909  |  4294908169 |
|    1166 | 0xFFFCB093  |  4294750355 |
|    1167 | 0xFFFF1E5A  |  4294909530 |
|    1168 | 0xFFFCAB40  |  4294748992 |
|    1169 | 0xFFFF247D  |  4294911101 |
|    1170 | 0xFFFCA539  |  4294747449 |
|    1171 | 0xFFFF2A4F  |  4294912591 |
|    1172 | 0xFFFCA039  |  4294746169 |
|    1173 | 0xFFFF3137  |  4294914359 |
|    1174 | 0xFFFC9AAF  |  4294744751 |
|    1175 | 0xFFFF3685  |  4294915717 |
|    1176 | 0xFFFC960B  |  4294743563 |
|    1177 | 0xFFFF3D84  |  4294917508 |
|    1178 | 0xFFFC911C  |  4294742300 |
|    1179 | 0xFFFF43A4  |  4294919076 |
|    1180 | 0xFFFC8C49  |  4294741065 |
|    1181 | 0xFFFF4B84  |  4294921092 |
|    1182 | 0xFFFC8718  |  4294739736 |
|    1183 | 0xFFFF5148  |  4294922568 |
|    1184 | 0xFFFC8360  |  4294738784 |
|    1185 | 0xFFFF58AA  |  4294924458 |
|    1186 | 0xFFFF5F21  |  4294926113 |
|    1187 | 0xFFFC7BBE  |  4294736830 |
|    1188 | 0xFFFF663D  |  4294927933 |
|    1189 | 0xFFFC7787  |  4294735751 |
|    1190 | 0xFFFF6CA9  |  4294929577 |
|    1191 | 0xFFFC741B  |  4294734875 |
|    1192 | 0xFFFF7516  |  4294931734 |
|    1193 | 0xFFFC7039  |  4294733881 |
|    1194 | 0xFFFF7BC8  |  4294933448 |
|    1195 | 0xFFFC6DBE  |  4294733246 |
|    1196 | 0xFFFF82A9  |  4294935209 |
|    1197 | 0xFFFC69AE  |  4294732206 |
|    1198 | 0xFFFF8A65  |  4294937189 |
|    1199 | 0xFFFC66F4  |  4294731508 |
|    1200 | 0xFFFF925B  |  4294939227 |
|    1201 | 0xFFFC63B5  |  4294730677 |
|    1202 | 0xFFFF9A78  |  4294941304 |
|    1203 | 0xFFFC6171  |  4294730097 |
|    1204 | 0xFFFFA27A  |  4294943354 |
|    1205 | 0xFFFC5ED1  |  4294729425 |
|    1206 | 0xFFFFAABB  |  4294945467 |
|    1207 | 0xFFFC5D33  |  4294729011 |
|    1208 | 0xFFFFB305  |  4294947589 |
|    1209 | 0xFFFC5AAF  |  4294728367 |
|    1210 | 0xFFFFBA5C  |  4294949468 |
|    1211 | 0xFFFC5961  |  4294728033 |
|    1212 | 0xFFFFC2B7  |  4294951607 |
|    1213 | 0xFFFC5751  |  4294727505 |
|    1214 | 0xFFFFCB32  |  4294953778 |
|    1215 | 0xFFFC56D6  |  4294727382 |
|    1216 | 0xFFFFD343  |  4294955843 |
|    1217 | 0xFFFC558A  |  4294727050 |
|    1218 | 0xFFFFDB76  |  4294957942 |
|    1219 | 0xFFFC55AD  |  4294727085 |
|    1220 | 0xFFFFE36F  |  4294959983 |
|    1221 | 0xFFFC54F8  |  4294726904 |
|    1222 | 0xFFFFEB47  |  4294961991 |
|    1223 | 0xFFFC54F1  |  4294726897 |
|    1224 | 0xFFFFF383  |  4294964099 |
|    1225 | 0xFFFC5496  |  4294726806 |
|    1226 | 0xFFFFFB4A  |  4294966090 |
|    1227 | 0xFFFC552F  |  4294726959 |
|    1228 | 0x0352      |         850 |
|    1229 | 0xFFFC54D7  |  4294726871 |
|    1230 | 0x0B9E      |        2974 |
|    1231 | 0xFFFC55F4  |  4294727156 |
|    1232 | 0x140E      |        5134 |
|    1233 | 0xFFFC561C  |  4294727196 |
|    1234 | 0x1C43      |        7235 |
|    1235 | 0xFFFC5792  |  4294727570 |
|    1236 | 0x252B      |        9515 |
|    1237 | 0xFFFC5856  |  4294727766 |
|    1238 | 0x2D7B      |       11643 |
|    1239 | 0xFFFC59B6  |  4294728118 |
|    1240 | 0x35C0      |       13760 |
|    1241 | 0xFFFC5B11  |  4294728465 |
|    1242 | 0x3D9E      |       15774 |
|    1243 | 0xFFFC5CEB  |  4294728939 |
|    1244 | 0x4543      |       17731 |
|    1245 | 0xFFFC5E3E  |  4294729278 |
|    1246 | 0x4D5F      |       19807 |
|    1247 | 0xFFFC6133  |  4294730035 |
|    1248 | 0x55D8      |       21976 |
|    1249 | 0xFFFC6353  |  4294730579 |
|    1250 | 0x5D62      |       23906 |
|    1251 | 0xFFFC668C  |  4294731404 |
|    1252 | 0x6449      |       25673 |
|    1253 | 0xFFFC6838  |  4294731832 |
|    1254 | 0x6CB1      |       27825 |
|    1255 | 0xFFFC6BE5  |  4294732773 |
|    1256 | 0x74DE      |       29918 |
|    1257 | 0xFFFC6E5F  |  4294733407 |
|    1258 | 0x7CB5      |       31925 |
|    1259 | 0xFFFC72D9  |  4294734553 |
|    1260 | 0x834F      |       33615 |
|    1261 | 0xFFFC75A6  |  4294735270 |
|    1262 | 0x8B42      |       35650 |
|    1263 | 0xFFFC7ADF  |  4294736607 |
|    1264 | 0x91C0      |       37312 |
|    1265 | 0xFFFC7DF7  |  4294737399 |
|    1266 | 0x98D4      |       39124 |
|    1267 | 0xFFFC81D3  |  4294738387 |
|    1268 | 0x9F1F      |       40735 |
|    1269 | 0xFFFC85E6  |  4294739430 |
|    1270 | 0xA6E4      |       42724 |
|    1271 | 0xFFFC8BFD  |  4294740989 |
|    1272 | 0xAD90      |       44432 |
|    1273 | 0xFFFC8FF7  |  4294742007 |
|    1274 | 0xB510      |       46352 |
|    1275 | 0xFFFC959E  |  4294743454 |
|    1276 | 0xBB79      |       47993 |
|    1277 | 0xFFFC9A33  |  4294744627 |
|    1278 | 0xC293      |       49811 |
|    1279 | 0xFFFCA050  |  4294746192 |
|    1280 | 0xC84F      |       51279 |
|    1281 | 0xFFFCA4FA  |  4294747386 |
|    1282 | 0xCF0D      |       53005 |
|    1283 | 0xFFFCAB34  |  4294748980 |
|    1284 | 0xD52E      |       54574 |
|    1285 | 0xFFFCB015  |  4294750229 |
|    1286 | 0xDBBE      |       56254 |
|    1287 | 0xFFFCB6DE  |  4294751966 |
|    1288 | 0xE089      |       57481 |
|    1289 | 0xFFFCBC8F  |  4294753423 |
|    1290 | 0xE57C      |       58748 |
|    1291 | 0xFFFCC28C  |  4294754956 |
|    1292 | 0xEB13      |       60179 |
|    1293 | 0xFFFCC844  |  4294756420 |
|    1294 | 0xF123      |       61731 |
|    1295 | 0xFFFCD011  |  4294758417 |
|    1296 | 0xF600      |       62976 |
|    1297 | 0xFFFCD5E4  |  4294759908 |
|    1298 | 0xFB50      |       64336 |
|    1299 | 0xFFFCDCFA  |  4294761722 |
|    1300 | 0xFF7D      |       65405 |
|    1301 | 0xFFFCE314  |  4294763284 |
|    1302 | 0x104D5     |       66773 |
|    1303 | 0xFFFCEAD2  |  4294765266 |
|    1304 | 0x108FA     |       67834 |
|    1305 | 0xFFFCF15B  |  4294766939 |
|    1306 | 0x10D5E     |       68958 |
|    1307 | 0xFFFCF7ED  |  4294768621 |
|    1308 | 0x1114C     |       69964 |
|    1309 | 0xFFFCFF09  |  4294770441 |
|    1310 | 0x1155B     |       71003 |
|    1311 | 0xFFFD077A  |  4294772602 |
|    1312 | 0x11912     |       71954 |
|    1313 | 0xFFFD0F3B  |  4294774587 |
|    1314 | 0x11CDA     |       72922 |
|    1315 | 0xFFFD16AD  |  4294776493 |
|    1316 | 0x1207F     |       73855 |
|    1317 | 0xFFFD1E0F  |  4294778383 |
|    1318 | 0x123E9     |       74729 |
|    1319 | 0xFFFD25E1  |  4294780385 |
|    1320 | 0x12736     |       75574 |
|    1321 | 0xFFFD2D7D  |  4294782333 |
|    1322 | 0x1298C     |       76172 |
|    1323 | 0xFFFD356E  |  4294784366 |
|    1324 | 0x12C83     |       76931 |
|    1325 | 0xFFFD3D69  |  4294786409 |
|    1326 | 0x12EF7     |       77559 |
|    1327 | 0xFFFD4556  |  4294788438 |
|    1328 | 0x131D1     |       78289 |
|    1329 | 0xFFFD4C9F  |  4294790303 |
|    1330 | 0x133D5     |       78805 |
|    1331 | 0xFFFD5489  |  4294792329 |
|    1332 | 0x135B4     |       79284 |
|    1333 | 0xFFFD5CB5  |  4294794421 |
|    1334 | 0x1379C     |       79772 |
|    1335 | 0xFFFD6580  |  4294796672 |
|    1336 | 0x13A4C     |       80460 |
|    1337 | 0xFFFD6D73  |  4294798707 |
|    1338 | 0x13BD2     |       80850 |
|    1339 | 0xFFFD750E  |  4294800654 |
|    1340 | 0x13D20     |       81184 |
|    1341 | 0xFFFD7DB3  |  4294802867 |
|    1342 | 0x13E73     |       81523 |
|    1343 | 0xFFFD8605  |  4294804997 |
|    1344 | 0x1404F     |       81999 |
|    1345 | 0xFFFD8E1D  |  4294807069 |
|    1346 | 0x14121     |       82209 |
|    1347 | 0xFFFD96FD  |  4294809341 |
|    1348 | 0x141B9     |       82361 |
|    1349 | 0xFFFD9E4F  |  4294811215 |
|    1350 | 0x14239     |       82489 |
|    1351 | 0xFFFDA5DF  |  4294813151 |
|    1352 | 0x143A8     |       82856 |
|    1353 | 0xFFFDADBD  |  4294815165 |
|    1354 | 0x142C5     |       82629 |
|    1355 | 0xFFFDB562  |  4294817122 |
|    1356 | 0xFFFDBD47  |  4294819143 |
|    1357 | 0x143C1     |       82881 |
|    1358 | 0xFFFDC56E  |  4294821230 |
|    1359 | 0xFFFDCCC5  |  4294823109 |
|    1360 | 0x1440B     |       82955 |
|    1361 | 0xFFFDD4F1  |  4294825201 |
|    1362 | 0xFFFDDCE1  |  4294827233 |
|    1363 | 0x1438F     |       82831 |
|    1364 | 0xFFFDE474  |  4294829172 |
|    1365 | 0xFFFDEC43  |  4294831171 |
|    1366 | 0x143DD     |       82909 |
|    1367 | 0xFFFDF480  |  4294833280 |
|    1368 | 0xFFFDFC02  |  4294835202 |
|    1369 | 0x14370     |       82800 |
|    1370 | 0xFFFE037A  |  4294837114 |
|    1371 | 0x14320     |       82720 |
|    1372 | 0xFFFE0B63  |  4294839139 |
|    1373 | 0x14312     |       82706 |
|    1374 | 0xFFFE12FD  |  4294841085 |
|    1375 | 0xFFFE1B03  |  4294843139 |
|    1376 | 0x142C4     |       82628 |
|    1377 | 0xFFFE2309  |  4294845193 |
|    1378 | 0x14297     |       82583 |
|    1379 | 0xFFFE2AA3  |  4294847139 |
|    1380 | 0x142F3     |       82675 |
|    1381 | 0xFFFE328C  |  4294849164 |
|    1382 | 0xFFFE3AAF  |  4294851247 |
|    1383 | 0x14296     |       82582 |
|    1384 | 0xFFFE4298  |  4294853272 |
|    1385 | 0xFFFE49F2  |  4294855154 |
|    1386 | 0x14331     |       82737 |
|    1387 | 0xFFFE5192  |  4294857106 |
|    1388 | 0xFFFE59A1  |  4294859169 |
|    1389 | 0x14341     |       82753 |
|    1390 | 0xFFFE6115  |  4294861077 |
|    1391 | 0xFFFE6912  |  4294863122 |
|    1392 | 0xFFFE7121  |  4294865185 |
|    1393 | 0xFFFE78C1  |  4294867137 |
|    1394 | 0xFFFE80A4  |  4294869156 |
|    1395 | 0xFFFE890C  |  4294871308 |
|    1396 | 0x14238     |       82488 |
|    1397 | 0xFFFE9139  |  4294873401 |
|    1398 | 0x142D4     |       82644 |
|    1399 | 0xFFFE9FAA  |  4294877098 |
|    1400 | 0xFFFEA7CF  |  4294879183 |
|    1401 | 0xFFFEAF2D  |  4294881069 |
|    1402 | 0xFFFEB750  |  4294883152 |
|    1403 | 0xFFFEBF39  |  4294885177 |
|    1404 | 0xFFFEC74D  |  4294887245 |
|    1405 | 0x142E4     |       82660 |
|    1406 | 0xFFFECEBC  |  4294889148 |
|    1407 | 0xFFFED6EC  |  4294891244 |
|    1408 | 0xFFFEDEC8  |  4294893256 |
|    1409 | 0xFFFEE63E  |  4294895166 |
|    1410 | 0xFFFEEDC2  |  4294897090 |
|    1411 | 0xFFFEF552  |  4294899026 |
|    1412 | 0xFFFEFD45  |  4294901061 |
|    1413 | 0xFFFF0494  |  4294902932 |
|    1414 | 0xFFFF0CC8  |  4294905032 |
|    1415 | 0xFFFF14FE  |  4294907134 |
|    1416 | 0xFFFF1D5D  |  4294909277 |
|    1417 | 0xFFFF249E  |  4294911134 |
|    1418 | 0x14303     |       82691 |
|    1419 | 0xFFFF2C63  |  4294913123 |
|    1420 | 0x14390     |       82832 |
|    1421 | 0xFFFF33FF  |  4294915071 |
|    1422 | 0x143BD     |       82877 |
|    1423 | 0xFFFF3B5D  |  4294916957 |
|    1424 | 0x14419     |       82969 |
|    1425 | 0xFFFF42F4  |  4294918900 |
|    1426 | 0xFFFF4A57  |  4294920791 |
|    1427 | 0x144A2     |       83106 |
|    1428 | 0xFFFF5265  |  4294922853 |
|    1429 | 0xFFFF5B75  |  4294925173 |
|    1430 | 0xFFFF635B  |  4294927195 |
|    1431 | 0x1437F     |       82815 |
|    1432 | 0xFFFF6B81  |  4294929281 |
|    1433 | 0xFFFF7349  |  4294931273 |
|    1434 | 0x143AE     |       82862 |
|    1435 | 0xFFFF7B04  |  4294933252 |
|    1436 | 0x143CD     |       82893 |
|    1437 | 0xFFFF8975  |  4294936949 |
|    1438 | 0xFFFF9132  |  4294938930 |
|    1439 | 0x144B6     |       83126 |
|    1440 | 0xFFFF98F8  |  4294940920 |
|    1441 | 0xFFFFA0E1  |  4294942945 |
|    1442 | 0x14469     |       83049 |
|    1443 | 0xFFFFA904  |  4294945028 |
|    1444 | 0xFFFFB0BF  |  4294947007 |
|    1445 | 0xFFFFB887  |  4294948999 |
|    1446 | 0xFFFFC011  |  4294950929 |
|    1447 | 0xFFFFC781  |  4294952833 |
|    1448 | 0xFFFFD0AA  |  4294955178 |
|    1449 | 0xFFFFD89F  |  4294957215 |
|    1450 | 0xFFFFE078  |  4294959224 |
|    1451 | 0xFFFFE822  |  4294961186 |
|    1452 | 0x143EC     |       82924 |
|    1453 | 0xFFFFF7A5  |  4294965157 |
|    1454 | 0xFFFFFFB7  |  4294967223 |
|    1455 | 0x07B0      |        1968 |
|    1456 | 0x0EDB      |        3803 |
|    1457 | 0x1622      |        5666 |
|    1458 | 0x1E6B      |        7787 |
|    1459 | 0x25A5      |        9637 |
|    1460 | 0x2D8E      |       11662 |
|    1461 | 0x35B0      |       13744 |
|    1462 | 0x3D9B      |       15771 |
|    1463 | 0x4533      |       17715 |
|    1464 | 0x4D4A      |       19786 |
|    1465 | 0x553F      |       21823 |
|    1466 | 0x5D85      |       23941 |
|    1467 | 0x143FC     |       82940 |
|    1468 | 0x654B      |       25931 |
|    1469 | 0x6D06      |       27910 |
|    1470 | 0x7334      |       29492 |
|    1471 | 0x7BCF      |       31695 |
|    1472 | 0x14369     |       82793 |
|    1473 | 0x8451      |       33873 |
|    1474 | 0x945D      |       37981 |
|    1475 | 0x9C40      |       40000 |
|    1476 | 0x143B0     |       82864 |
|    1477 | 0xA3E0      |       41952 |
|    1478 | 0xAB1E      |       43806 |
|    1479 | 0x143DA     |       82906 |
|    1480 | 0xB251      |       45649 |
|    1481 | 0xBAC2      |       47810 |
|    1482 | 0x1443D     |       83005 |
|    1483 | 0xC25D      |       49757 |
|    1484 | 0xCA74      |       51828 |
|    1485 | 0x1434D     |       82765 |
|    1486 | 0xD1E0      |       53728 |
|    1487 | 0xD9D1      |       55761 |
|    1488 | 0xE163      |       57699 |
|    1489 | 0xE912      |       59666 |
|    1490 | 0x14405     |       82949 |
|    1491 | 0xF0E6      |       61670 |
|    1492 | 0xF853      |       63571 |
|    1493 | 0x1445A     |       83034 |
|    1494 | 0x10069     |       65641 |
|    1495 | 0x10885     |       67717 |
|    1496 | 0x143A2     |       82850 |
|    1497 | 0x11075     |       69749 |
|    1498 | 0x118EF     |       71919 |
|    1499 | 0x143CC     |       82892 |
|    1500 | 0x1211F     |       74015 |
|    1501 | 0x14418     |       82968 |
|    1502 | 0x128CB     |       75979 |
|    1503 | 0x1442F     |       82991 |
|    1504 | 0x130CF     |       78031 |
|    1505 | 0x14452     |       83026 |
|    1506 | 0x1389A     |       80026 |
|    1507 | 0x1404D     |       81997 |
|    1508 | 0x1440F     |       82959 |
|    1509 | 0x14920     |       84256 |
|    1510 | 0x151FC     |       86524 |
|    1511 | 0x1438D     |       82829 |
|    1512 | 0x158C4     |       88260 |
|    1513 | 0x14394     |       82836 |
|    1514 | 0x15F1E     |       89886 |
|    1515 | 0x14333     |       82739 |
|    1516 | 0x166BF     |       91839 |
|    1517 | 0x16E66     |       93798 |
|    1518 | 0x1768D     |       95885 |
|    1519 | 0x14424     |       82980 |
|    1520 | 0x17E47     |       97863 |
|    1521 | 0x14443     |       83011 |
|    1522 | 0x18E89     |      102025 |
|    1523 | 0x143BF     |       82879 |
|    1524 | 0x196CF     |      104143 |
|    1525 | 0x14388     |       82824 |
|    1526 | 0x19E07     |      105991 |
|    1527 | 0x1A58A     |      107914 |
|    1528 | 0x1AD55     |      109909 |
|    1529 | 0x1438E     |       82830 |
|    1530 | 0x1B51F     |      111903 |
|    1531 | 0x1434A     |       82762 |
|    1532 | 0x1BD04     |      113924 |
|    1533 | 0x1435D     |       82781 |
|    1534 | 0x1CD15     |      118037 |
|    1535 | 0x1D4A6     |      119974 |
|    1536 | 0x143E6     |       82918 |
|    1537 | 0x1DC32     |      121906 |
|    1538 | 0x1E41C     |      123932 |
|    1539 | 0x143C7     |       82887 |
|    1540 | 0x1EBB0     |      125872 |
|    1541 | 0x1432C     |       82732 |
|    1542 | 0x1FBC1     |      129985 |
|    1543 | 0x142FB     |       82683 |
|    1544 | 0x20BA2     |      134050 |
|    1545 | 0x1429A     |       82586 |
|    1546 | 0x21C15     |      138261 |
|    1547 | 0x22B01     |      142081 |
|    1548 | 0x23AB0     |      146096 |
|    1549 | 0x24AF2     |      150258 |
|    1550 | 0x259AD     |      154029 |
|    1551 | 0x14483     |       83075 |
|    1552 | 0x268FA     |      157946 |
|    1553 | 0x143F0     |       82928 |
|    1554 | 0x2799E     |      162206 |
|    1555 | 0x28A73     |      166515 |
|    1556 | 0x29B18     |      170776 |
|    1557 | 0x1407F     |       82047 |
|    1558 | 0x2ACB1     |      175281 |
|    1559 | 0x13E95     |       81557 |
|    1560 | 0x2BD55     |      179541 |
|    1561 | 0x13AF3     |       80627 |
|    1562 | 0x2CD97     |      183703 |
|    1563 | 0x13750     |       79696 |
|    1564 | 0x2DE6C     |      188012 |
|    1565 | 0x131F5     |       78325 |
|    1566 | 0x2EE4D     |      192077 |
|    1567 | 0x12C07     |       76807 |
|    1568 | 0x2F618     |      194072 |
|    1569 | 0x12860     |       75872 |
|    1570 | 0x2FCA5     |      195749 |
|    1571 | 0x12586     |       75142 |
|    1572 | 0x305CD     |      198093 |
|    1573 | 0x12085     |       73861 |
|    1574 | 0x30D7A     |      200058 |
|    1575 | 0x11D1C     |       72988 |
|    1576 | 0x31500     |      201984 |
|    1577 | 0x117D9     |       71641 |
|    1578 | 0x31C04     |      203780 |
|    1579 | 0x113ED     |       70637 |
|    1580 | 0x3242E     |      205870 |
|    1581 | 0x10FEC     |       69612 |
|    1582 | 0x32B20     |      207648 |
|    1583 | 0x10AF0     |       68336 |
|    1584 | 0x33259     |      209497 |
|    1585 | 0x1066C     |       67180 |
|    1586 | 0x33884     |      211076 |
|    1587 | 0x10190     |       65936 |
|    1588 | 0x3402B     |      213035 |
|    1589 | 0xFC4F      |       64591 |
|    1590 | 0x346DD     |      214749 |
|    1591 | 0xF6DA      |       63194 |
|    1592 | 0x34D57     |      216407 |
|    1593 | 0xF142      |       61762 |
|    1594 | 0x3531B     |      217883 |
|    1595 | 0xEA6B      |       60011 |
|    1596 | 0x359F4     |      219636 |
|    1597 | 0xE46C      |       58476 |
|    1598 | 0x35FBA     |      221114 |
|    1599 | 0xDDCC      |       56780 |
|    1600 | 0x36557     |      222551 |
|    1601 | 0xD7B2      |       55218 |
|    1602 | 0x36AD3     |      223955 |
|    1603 | 0xD1BF      |       53695 |
|    1604 | 0x37008     |      225288 |
|    1605 | 0xCA96      |       51862 |
|    1606 | 0x375EB     |      226795 |
|    1607 | 0xC335      |       49973 |
|    1608 | 0x37AAD     |      228013 |
|    1609 | 0xBCAB      |       48299 |
|    1610 | 0x380C9     |      229577 |
|    1611 | 0xB5DC      |       46556 |
|    1612 | 0x384C6     |      230598 |
|    1613 | 0xAE45      |       44613 |
|    1614 | 0x388EA     |      231658 |
|    1615 | 0xA603      |       42499 |
|    1616 | 0x38C13     |      232467 |
|    1617 | 0x9EC8      |       40648 |
|    1618 | 0x38F02     |      233218 |
|    1619 | 0x989B      |       39067 |
|    1620 | 0x391CE     |      233934 |
|    1621 | 0x9062      |       36962 |
|    1622 | 0x39653     |      235091 |
|    1623 | 0x885A      |       34906 |
|    1624 | 0x398FA     |      235770 |
|    1625 | 0x8053      |       32851 |
|    1626 | 0x39B33     |      236339 |
|    1627 | 0x7819      |       30745 |
|    1628 | 0x39D6A     |      236906 |
|    1629 | 0x70BA      |       28858 |
|    1630 | 0x39FAB     |      237483 |
|    1631 | 0x6910      |       26896 |
|    1632 | 0x3A127     |      237863 |
|    1633 | 0x5F76      |       24438 |
|    1634 | 0x3A353     |      238419 |
|    1635 | 0x572F      |       22319 |
|    1636 | 0x3A53E     |      238910 |
|    1637 | 0x4E9C      |       20124 |
|    1638 | 0x3A5C3     |      239043 |
|    1639 | 0x461E      |       17950 |
|    1640 | 0x3A6F4     |      239348 |
|    1641 | 0x3DDC      |       15836 |
|    1642 | 0x3A89C     |      239772 |
|    1643 | 0x350D      |       13581 |
|    1644 | 0x3A908     |      239880 |
|    1645 | 0x2C81      |       11393 |
|    1646 | 0x3AAA4     |      240292 |
|    1647 | 0x2464      |        9316 |
|    1648 | 0x3AB4A     |      240458 |
|    1649 | 0x1C26      |        7206 |
|    1650 | 0x3AB0C     |      240396 |
|    1651 | 0x1353      |        4947 |
|    1652 | 0x3AA6C     |      240236 |
|    1653 | 0x0A5D      |        2653 |
|    1654 | 0x3AB25     |      240421 |
|    1655 | 0x02A7      |         679 |
|    1656 | 0x3AAAC     |      240300 |
|    1657 | 0xFFFFFA89  |  4294965897 |
|    1658 | 0x3AAC4     |      240324 |
|    1659 | 0xFFFFF324  |  4294964004 |
|    1660 | 0x3AA55     |      240213 |
|    1661 | 0xFFFFEA9A  |  4294961818 |
|    1662 | 0x3A9EB     |      240107 |
|    1663 | 0xFFFFE239  |  4294959673 |
|    1664 | 0x3A8A5     |      239781 |
|    1665 | 0xFFFFD944  |  4294957380 |
|    1666 | 0x3A83A     |      239674 |
|    1667 | 0xFFFFD0E1  |  4294955233 |
|    1668 | 0x3A73D     |      239421 |
|    1669 | 0xFFFFC9E6  |  4294953446 |
|    1670 | 0x3A5B0     |      239024 |
|    1671 | 0xFFFFC27F  |  4294951551 |
|    1672 | 0x3A45F     |      238687 |
|    1673 | 0xFFFFBA00  |  4294949376 |
|    1674 | 0x3A24E     |      238158 |
|    1675 | 0xFFFFB200  |  4294947328 |
|    1676 | 0x3A137     |      237879 |
|    1677 | 0xFFFFAA1E  |  4294945310 |
|    1678 | 0x39E7F     |      237183 |
|    1679 | 0xFFFFA1ED  |  4294943213 |
|    1680 | 0x39C46     |      236614 |
|    1681 | 0xFFFF9A58  |  4294941272 |
|    1682 | 0x39900     |      235776 |
|    1683 | 0xFFFF931F  |  4294939423 |
|    1684 | 0x39698     |      235160 |
|    1685 | 0xFFFF8AAC  |  4294937260 |
|    1686 | 0x39380     |      234368 |
|    1687 | 0xFFFF8378  |  4294935416 |
|    1688 | 0x390AC     |      233644 |
|    1689 | 0xFFFF7B10  |  4294933264 |
|    1690 | 0x38E00     |      232960 |
|    1691 | 0xFFFF73D2  |  4294931410 |
|    1692 | 0x389D3     |      231891 |
|    1693 | 0xFFFF6C6E  |  4294929518 |
|    1694 | 0x3858A     |      230794 |
|    1695 | 0xFFFF6570  |  4294927728 |
|    1696 | 0x3823F     |      229951 |
|    1697 | 0xFFFF5EE4  |  4294926052 |
|    1698 | 0x37CA8     |      228520 |
|    1699 | 0xFFFF5853  |  4294924371 |
|    1700 | 0x37940     |      227648 |
|    1701 | 0xFFFF5070  |  4294922352 |
|    1702 | 0x373C6     |      226246 |
|    1703 | 0xFFFF4840  |  4294920256 |
|    1704 | 0x36E3C     |      224828 |
|    1705 | 0xFFFF4216  |  4294918678 |
|    1706 | 0x3699F     |      223647 |
|    1707 | 0xFFFF3AB7  |  4294916791 |
|    1708 | 0x3643B     |      222267 |
|    1709 | 0xFFFF3526  |  4294915366 |
|    1710 | 0x35FE5     |      221157 |
|    1711 | 0xFFFF3090  |  4294914192 |
|    1712 | 0x35B08     |      219912 |
|    1713 | 0xFFFF29A1  |  4294912417 |
|    1714 | 0x35479     |      218233 |
|    1715 | 0xFFFF229A  |  4294910618 |
|    1716 | 0x34EB4     |      216756 |
|    1717 | 0xFFFF1CB1  |  4294909105 |
|    1718 | 0x3475C     |      214876 |
|    1719 | 0xFFFF16C2  |  4294907586 |
|    1720 | 0xFFFF115F  |  4294906207 |
|    1721 | 0x33B84     |      211844 |
|    1722 | 0xFFFF0C2F  |  4294904879 |
|    1723 | 0x335BD     |      210365 |
|    1724 | 0xFFFF07DF  |  4294903775 |
|    1725 | 0x32ED3     |      208595 |
|    1726 | 0xFFFF0274  |  4294902388 |
|    1727 | 0x328CE     |      207054 |
|    1728 | 0xFFFEFDDE  |  4294901214 |
|    1729 | 0x322FB     |      205563 |
|    1730 | 0xFFFEF926  |  4294900006 |
|    1731 | 0x31BDE     |      203742 |
|    1732 | 0xFFFEF513  |  4294898963 |
|    1733 | 0x31505     |      201989 |
|    1734 | 0xFFFEF0B0  |  4294897840 |
|    1735 | 0x30E05     |      200197 |
|    1736 | 0xFFFEEB5F  |  4294896479 |
|    1737 | 0x3076D     |      198509 |
|    1738 | 0xFFFEE67A  |  4294895226 |
|    1739 | 0x2FFC5     |      196549 |
|    1740 | 0xFFFEE294  |  4294894228 |
|    1741 | 0x2F842     |      194626 |
|    1742 | 0xFFFEDEDD  |  4294893277 |
|    1743 | 0x2F0D0     |      192720 |
|    1744 | 0xFFFEDB67  |  4294892391 |
|    1745 | 0x2E974     |      190836 |
|    1746 | 0xFFFED7AC  |  4294891436 |
|    1747 | 0x2E1C1     |      188865 |
|    1748 | 0xFFFED4A2  |  4294890658 |
|    1749 | 0x2DAE3     |      187107 |
|    1750 | 0xFFFED163  |  4294889827 |
|    1751 | 0x2D2B2     |      185010 |
|    1752 | 0xFFFECE91  |  4294889105 |
|    1753 | 0x2CAA2     |      182946 |
|    1754 | 0xFFFECC5F  |  4294888543 |
|    1755 | 0x2C26D     |      180845 |
|    1756 | 0xFFFECA53  |  4294888019 |
|    1757 | 0x2BA80     |      178816 |
|    1758 | 0xFFFEC815  |  4294887445 |
|    1759 | 0x2B275     |      176757 |
|    1760 | 0xFFFEC5E0  |  4294886880 |
|    1761 | 0x2AAC9     |      174793 |
|    1762 | 0xFFFEC3EA  |  4294886378 |
|    1763 | 0x2A2F9     |      172793 |
|    1764 | 0xFFFEC2C9  |  4294886089 |
|    1765 | 0x29AF7     |      170743 |
|    1766 | 0xFFFEC0E2  |  4294885602 |
|    1767 | 0x29237     |      168503 |
|    1768 | 0xFFFEBEBB  |  4294885051 |
|    1769 | 0x2895F     |      166239 |
|    1770 | 0xFFFEBD6A  |  4294884714 |
|    1771 | 0x280D2     |      164050 |
|    1772 | 0xFFFEBC46  |  4294884422 |
|    1773 | 0x278E0     |      162016 |
|    1774 | 0xFFFEBC1F  |  4294884383 |
|    1775 | 0x27107     |      160007 |
|    1776 | 0xFFFEBB87  |  4294884231 |
|    1777 | 0x26910     |      157968 |
|    1778 | 0xFFFEBB46  |  4294884166 |
|    1779 | 0x26105     |      155909 |
|    1780 | 0xFFFEBA76  |  4294883958 |
|    1781 | 0x25941     |      153921 |
|    1782 | 0xFFFEBA62  |  4294883938 |
|    1783 | 0x2518B     |      151947 |
|    1784 | 0xFFFEBA24  |  4294883876 |
|    1785 | 0x24A16     |      150038 |
|    1786 | 0xFFFEB9BD  |  4294883773 |
|    1787 | 0x241BF     |      147903 |
|    1788 | 0xFFFEB8C1  |  4294883521 |
|    1789 | 0x238A9     |      145577 |
|    1790 | 0xFFFEB8C5  |  4294883525 |
|    1791 | 0x23150     |      143696 |
|    1792 | 0xFFFEB838  |  4294883384 |
|    1793 | 0x22A76     |      141942 |
|    1794 | 0xFFFEB77B  |  4294883195 |
|    1795 | 0x22296     |      139926 |
|    1796 | 0xFFFEB7E6  |  4294883302 |
|    1797 | 0x21AA7     |      137895 |
|    1798 | 0xFFFEB728  |  4294883112 |
|    1799 | 0xFFFEB6BA  |  4294883002 |
|    1800 | 0x20CC6     |      134342 |
|    1801 | 0xFFFEB683  |  4294882947 |
|    1802 | 0x203D9     |      132057 |
|    1803 | 0xFFFEB631  |  4294882865 |
|    1804 | 0x1FBAC     |      129964 |
|    1805 | 0xFFFEB538  |  4294882616 |
|    1806 | 0x1F3D7     |      127959 |
|    1807 | 0xFFFEB556  |  4294882646 |
|    1808 | 0x1EC2F     |      125999 |
|    1809 | 0xFFFEB58B  |  4294882699 |
|    1810 | 0x1E45E     |      123998 |
|    1811 | 0x1DCAD     |      122029 |
|    1812 | 0xFFFEB5EB  |  4294882795 |
|    1813 | 0x1D492     |      119954 |
|    1814 | 0xFFFEB58D  |  4294882701 |
|    1815 | 0x1CCD4     |      117972 |
|    1816 | 0xFFFEB582  |  4294882690 |
|    1817 | 0x1C4AB     |      115883 |
|    1818 | 0xFFFEB53B  |  4294882619 |
|    1819 | 0x1BD12     |      113938 |
|    1820 | 0x1B568     |      111976 |
|    1821 | 0x1ADE7     |      110055 |
|    1822 | 0x1A660     |      108128 |
|    1823 | 0xFFFEB58F  |  4294882703 |
|    1824 | 0x19E18     |      106008 |
|    1825 | 0xFFFEB557  |  4294882647 |
|    1826 | 0x18E9A     |      102042 |
|    1827 | 0xFFFEB5DE  |  4294882782 |
|    1828 | 0x186E8     |      100072 |
|    1829 | 0xFFFEB573  |  4294882675 |
|    1830 | 0x17ECB     |       97995 |
|    1831 | 0x1773A     |       96058 |
|    1832 | 0x16EFB     |       93947 |
|    1833 | 0x16738     |       91960 |
|    1834 | 0xFFFEB636  |  4294882870 |
|    1835 | 0x15ED8     |       89816 |
|    1836 | 0xFFFEB5C7  |  4294882759 |
|    1837 | 0x14FAE     |       85934 |
|    1838 | 0x14813     |       83987 |
|    1839 | 0x14030     |       81968 |
|    1840 | 0x13881     |       80001 |
|    1841 | 0xFFFEB5FE  |  4294882814 |
|    1842 | 0x13106     |       78086 |
|    1843 | 0x12927     |       76071 |
|    1844 | 0xFFFEB51F  |  4294882591 |
|    1845 | 0x120E3     |       73955 |
|    1846 | 0x11979     |       72057 |
|    1847 | 0x11166     |       69990 |
|    1848 | 0x109E6     |       68070 |
|    1849 | 0x1023C     |       66108 |
|    1850 | 0xFA38      |       64056 |
|    1851 | 0xFFFEB5AB  |  4294882731 |
|    1852 | 0xF1C7      |       61895 |
|    1853 | 0xEA8A      |       60042 |
|    1854 | 0xE2EF      |       58095 |
|    1855 | 0xDB30      |       56112 |
|    1856 | 0xD279      |       53881 |
|    1857 | 0xCABE      |       51902 |
|    1858 | 0xC2FC      |       49916 |
|    1859 | 0xBB48      |       47944 |
|    1860 | 0xB37F      |       45951 |
|    1861 | 0xABEE      |       44014 |
|    1862 | 0xA4A7      |       42151 |
|    1863 | 0x9C24      |       39972 |
|    1864 | 0x9432      |       37938 |
|    1865 | 0x8C91      |       35985 |
|    1866 | 0x84B5      |       33973 |
|    1867 | 0x7CAC      |       31916 |
|    1868 | 0x74E5      |       29925 |
|    1869 | 0x6DC1      |       28097 |
|    1870 | 0x6660      |       26208 |
|    1871 | 0xFFFEB5E3  |  4294882787 |
|    1872 | 0x5598      |       21912 |
|    1873 | 0x46C0      |       18112 |
|    1874 | 0x3DF3      |       15859 |
|    1875 | 0x3632      |       13874 |
|    1876 | 0xFFFEB5D6  |  4294882774 |
|    1877 | 0x2ED0      |       11984 |
|    1878 | 0x27AD      |       10157 |
|    1879 | 0x1F3E      |        7998 |
|    1880 | 0xFFFEB66E  |  4294882926 |
|    1881 | 0x1738      |        5944 |
|    1882 | 0xFFFEB628  |  4294882856 |
|    1883 | 0x0F90      |        3984 |
|    1884 | 0x0768      |        1896 |
|    1885 | 0xFFFFFFE2  |  4294967266 |
|    1886 | 0xFFFFF83D  |  4294965309 |
|    1887 | 0xFFFFF088  |  4294963336 |
|    1888 | 0xFFFFE86D  |  4294961261 |
|    1889 | 0xFFFFE0D9  |  4294959321 |
|    1890 | 0xFFFFD8F0  |  4294957296 |
|    1891 | 0xFFFFD1B7  |  4294955447 |
|    1892 | 0xFFFFC8CE  |  4294953166 |
|    1893 | 0xFFFFC17D  |  4294951293 |
|    1894 | 0xFFFFBA0E  |  4294949390 |
|    1895 | 0xFFFFB1EB  |  4294947307 |
|    1896 | 0xFFFFA9EC  |  4294945260 |
|    1897 | 0xFFFFA259  |  4294943321 |
|    1898 | 0xFFFF9A6F  |  4294941295 |
|    1899 | 0xFFFF92C7  |  4294939335 |
|    1900 | 0xFFFF8AF2  |  4294937330 |
|    1901 | 0xFFFF8318  |  4294935320 |
|    1902 | 0xFFFF7B22  |  4294933282 |
|    1903 | 0xFFFF734E  |  4294931278 |
|    1904 | 0xFFFF6BD2  |  4294929362 |
|    1905 | 0xFFFEB566  |  4294882662 |
|    1906 | 0xFFFF6448  |  4294927432 |
|    1907 | 0xFFFF5BD5  |  4294925269 |
|    1908 | 0xFFFF539F  |  4294923167 |
|    1909 | 0xFFFF4C1B  |  4294921243 |
|    1910 | 0xFFFEB550  |  4294882640 |
|    1911 | 0xFFFF4447  |  4294919239 |
|    1912 | 0xFFFEB531  |  4294882609 |
|    1913 | 0xFFFF3C86  |  4294917254 |
|    1914 | 0xFFFEB589  |  4294882697 |
|    1915 | 0xFFFF3496  |  4294915222 |
|    1916 | 0xFFFEB593  |  4294882707 |
|    1917 | 0xFFFF2C1B  |  4294913051 |
|    1918 | 0xFFFEB56F  |  4294882671 |
|    1919 | 0xFFFF252E  |  4294911278 |
|    1920 | 0xFFFEB5DD  |  4294882781 |
|    1921 | 0xFFFF1DA5  |  4294909349 |
|    1922 | 0xFFFEB51C  |  4294882588 |
|    1923 | 0xFFFF15F8  |  4294907384 |
|    1924 | 0xFFFF0DF9  |  4294905337 |
|    1925 | 0xFFFEB580  |  4294882688 |
|    1926 | 0xFFFF0647  |  4294903367 |
|    1927 | 0xFFFEB562  |  4294882658 |
|    1928 | 0xFFFEFECD  |  4294901453 |
|    1929 | 0xFFFEB506  |  4294882566 |
|    1930 | 0xFFFEF728  |  4294899496 |
|    1931 | 0xFFFEB57B  |  4294882683 |
|    1932 | 0xFFFEEEA1  |  4294897313 |
|    1933 | 0xFFFEE6CC  |  4294895308 |
|    1934 | 0xFFFEDF5F  |  4294893407 |
|    1935 | 0xFFFED7DF  |  4294891487 |
|    1936 | 0xFFFED0B9  |  4294889657 |
|    1937 | 0xFFFEB54A  |  4294882634 |
|    1938 | 0xFFFEBFA2  |  4294885282 |
|    1939 | 0xFFFEB554  |  4294882644 |
|    1940 | 0xFFFEB7EA  |  4294883306 |
|    1941 | 0xFFFEB093  |  4294881427 |
|    1942 | 0xFFFEB579  |  4294882681 |
|    1943 | 0xFFFEA851  |  4294879313 |
|    1944 | 0xFFFEA0A2  |  4294877346 |
|    1945 | 0xFFFE9965  |  4294875493 |
|    1946 | 0xFFFE922C  |  4294873644 |
|    1947 | 0xFFFEB529  |  4294882601 |
|    1948 | 0xFFFE8A57  |  4294871639 |
|    1949 | 0xFFFEB4A3  |  4294882467 |
|    1950 | 0xFFFE825C  |  4294869596 |
|    1951 | 0xFFFEB4D7  |  4294882519 |
|    1952 | 0xFFFE799D  |  4294867357 |
|    1953 | 0xFFFEB563  |  4294882659 |
|    1954 | 0xFFFE723A  |  4294865466 |
|    1955 | 0xFFFE69F6  |  4294863350 |
|    1956 | 0xFFFEB4FD  |  4294882557 |
|    1957 | 0xFFFE626A  |  4294861418 |
|    1958 | 0xFFFEB57C  |  4294882684 |
|    1959 | 0xFFFE5AC7  |  4294859463 |
|    1960 | 0xFFFEB51E  |  4294882590 |
|    1961 | 0xFFFE52ED  |  4294857453 |
|    1962 | 0xFFFE4A68  |  4294855272 |
|    1963 | 0xFFFEB540  |  4294882624 |
|    1964 | 0xFFFE4225  |  4294853157 |
|    1965 | 0xFFFE3A2B  |  4294851115 |
|    1966 | 0xFFFE334D  |  4294849357 |
|    1967 | 0xFFFE2BE9  |  4294847465 |
|    1968 | 0xFFFE24CB  |  4294845643 |
|    1969 | 0xFFFEB586  |  4294882694 |
|    1970 | 0xFFFE1D42  |  4294843714 |
|    1971 | 0xFFFEB5A6  |  4294882726 |
|    1972 | 0xFFFE1517  |  4294841623 |
|    1973 | 0xFFFE0C3A  |  4294839354 |
|    1974 | 0xFFFEB60B  |  4294882827 |
|    1975 | 0xFFFE041C  |  4294837276 |
|    1976 | 0xFFFDFD92  |  4294835602 |
|    1977 | 0xFFFEB6B4  |  4294882996 |
|    1978 | 0xFFFDF627  |  4294833703 |
|    1979 | 0xFFFDEDFE  |  4294831614 |
|    1980 | 0xFFFEB62D  |  4294882861 |
|    1981 | 0xFFFDE5B5  |  4294829493 |
|    1982 | 0xFFFDDD50  |  4294827344 |
|    1983 | 0xFFFDD4E2  |  4294825186 |
|    1984 | 0xFFFEB560  |  4294882656 |

## Events

### Event 65535

#### Metadata

| Field        | Value   |
|--------------|---------|
| Entrypoint   | 0x0000  |
| Data Size    | 1 bytes |
| Instructions | 1       |

```
      00 01 02 03 04 05 06 07  08 09 0A 0B 0C 0D 0E 0F
      -- -- -- -- -- -- -- --  -- -- -- -- -- -- -- --
0000: 00                                                .               
```

#### Opcodes

```
  0: 0x0000 [0x00] END_REQSTACK()
```

### Event 115

#### Metadata

| Field        | Value   |
|--------------|---------|
| Entrypoint   | 0x0001  |
| Data Size    | 1 bytes |
| Instructions | 1       |

```
      00 01 02 03 04 05 06 07  08 09 0A 0B 0C 0D 0E 0F
      -- -- -- -- -- -- -- --  -- -- -- -- -- -- -- --
0000:    00                                              .              
```

#### Opcodes

```
  0: 0x0001 [0x00] END_REQSTACK()
```

### Event 427

#### Metadata

| Field        | Value   |
|--------------|---------|
| Entrypoint   | 0x0002  |
| Data Size    | 1 bytes |
| Instructions | 1       |

```
      00 01 02 03 04 05 06 07  08 09 0A 0B 0C 0D 0E 0F
      -- -- -- -- -- -- -- --  -- -- -- -- -- -- -- --
0000:       00                                            .             
```

#### Opcodes

```
  0: 0x0002 [0x00] END_REQSTACK()
```

### Event 458

#### Metadata

| Field        | Value   |
|--------------|---------|
| Entrypoint   | 0x0003  |
| Data Size    | 1 bytes |
| Instructions | 1       |

```
      00 01 02 03 04 05 06 07  08 09 0A 0B 0C 0D 0E 0F
      -- -- -- -- -- -- -- --  -- -- -- -- -- -- -- --
0000:          00                                          .            
```

#### Opcodes

```
  0: 0x0003 [0x00] END_REQSTACK()
```

### Event 469

#### Metadata

| Field        | Value   |
|--------------|---------|
| Entrypoint   | 0x0004  |
| Data Size    | 1 bytes |
| Instructions | 1       |

```
      00 01 02 03 04 05 06 07  08 09 0A 0B 0C 0D 0E 0F
      -- -- -- -- -- -- -- --  -- -- -- -- -- -- -- --
0000:             00                                        .           
```

#### Opcodes

```
  0: 0x0004 [0x00] END_REQSTACK()
```

### Event 65535.1

#### Metadata

| Field        | Value   |
|--------------|---------|
| Entrypoint   | 0x0005  |
| Data Size    | 1 bytes |
| Instructions | 1       |

```
      00 01 02 03 04 05 06 07  08 09 0A 0B 0C 0D 0E 0F
      -- -- -- -- -- -- -- --  -- -- -- -- -- -- -- --
0000:                00                                      .          
```

#### Opcodes

```
  0: 0x0005 [0x00] END_REQSTACK()
```

### Event 210

#### Metadata

| Field        | Value   |
|--------------|---------|
| Entrypoint   | 0x0006  |
| Data Size    | 1 bytes |
| Instructions | 1       |

```
      00 01 02 03 04 05 06 07  08 09 0A 0B 0C 0D 0E 0F
      -- -- -- -- -- -- -- --  -- -- -- -- -- -- -- --
0000:                   00                                    .         
```

#### Opcodes

```
  0: 0x0006 [0x00] END_REQSTACK()
```

### Event 65535.2

#### Metadata

| Field        | Value       |
|--------------|-------------|
| Entrypoint   | 0x0007      |
| Data Size    | 10473 bytes |
| Instructions | 5           |

```
      00 01 02 03 04 05 06 07  08 09 0A 0B 0C 0D 0E 0F
      -- -- -- -- -- -- -- --  -- -- -- -- -- -- -- --
0000:                      9D  02 20 13 00 80 9D 02 70         .. .....p
0010: 13 01 80 9D 02 20 00 02  80 9D 02 F0 15 03 80 00  ..... ..........
0020: 04 80 05 80 06 80 00 80  07 80 05 80 08 80 00 80  ................
0030: 09 80 05 80 0A 80 00 80  0B 80 05 80 0C 80 00 80  ................
0040: 0D 80 05 80 0E 80 00 80  0F 80 05 80 10 80 00 80  ................
0050: 11 80 05 80 12 80 00 80  13 80 05 80 14 80 00 80  ................
0060: 15 80 05 80 12 80 00 80  16 80 05 80 17 80 00 80  ................
0070: 18 80 05 80 19 80 00 80  1A 80 05 80 1B 80 00 80  ................
0080: 1C 80 05 80 19 80 00 80  1D 80 05 80 1E 80 00 80  ................
0090: 1F 80 05 80 20 80 00 80  21 80 05 80 22 80 00 80  .... ...!..."...
00A0: 23 80 05 80 24 80 00 80  25 80 05 80 26 80 00 80  #...$...%...&...
00B0: 25 80 05 80 26 80 00 80  27 80 05 80 28 80 00 80  %...&...'...(...
00C0: 29 80 05 80 2A 80 00 80  2B 80 05 80 28 80 00 80  )...*...+...(...
00D0: 2C 80 05 80 2D 80 00 80  2E 80 05 80 2F 80 00 80  ,...-......./...
00E0: 30 80 05 80 31 80 00 80  32 80 05 80 33 80 00 80  0...1...2...3...
00F0: 34 80 05 80 35 80 00 80  36 80 05 80 37 80 00 80  4...5...6...7...
0100: 38 80 05 80 39 80 00 80  3A 80 05 80 3B 80 00 80  8...9...:...;...
0110: 3C 80 05 80 3D 80 00 80  3E 80 05 80 3F 80 00 80  <...=...>...?...
0120: 40 80 05 80 41 80 00 80  42 80 05 80 43 80 00 80  @...A...B...C...
0130: 44 80 05 80 45 80 00 80  46 80 05 80 47 80 00 80  D...E...F...G...
0140: 46 80 05 80 47 80 00 80  48 80 05 80 49 80 00 80  F...G...H...I...
0150: 4A 80 05 80 4B 80 00 80  4C 80 05 80 4D 80 00 80  J...K...L...M...
0160: 4E 80 05 80 4F 80 00 80  50 80 05 80 51 80 00 80  N...O...P...Q...
0170: 52 80 05 80 53 80 00 80  54 80 05 80 55 80 00 80  R...S...T...U...
0180: 56 80 05 80 57 80 00 80  58 80 05 80 59 80 00 80  V...W...X...Y...
0190: 5A 80 05 80 5B 80 00 80  5C 80 05 80 5D 80 00 80  Z...[...\...]...
01A0: 5E 80 05 80 5F 80 00 80  60 80 05 80 61 80 00 80  ^..._...`...a...
01B0: 62 80 05 80 63 80 00 80  64 80 05 80 65 80 00 80  b...c...d...e...
01C0: 66 80 05 80 67 80 00 80  68 80 05 80 69 80 00 80  f...g...h...i...
01D0: 68 80 05 80 69 80 00 80  6A 80 05 80 6B 80 00 80  h...i...j...k...
01E0: 6C 80 05 80 6D 80 00 80  6E 80 05 80 6F 80 00 80  l...m...n...o...
01F0: 70 80 05 80 71 80 00 80  72 80 05 80 73 80 00 80  p...q...r...s...
0200: 74 80 05 80 75 80 00 80  76 80 05 80 77 80 00 80  t...u...v...w...
0210: 78 80 05 80 79 80 00 80  7A 80 05 80 7B 80 00 80  x...y...z...{...
0220: 7C 80 05 80 7D 80 00 80  7E 80 05 80 7F 80 00 80  |...}...~.......
0230: 80 80 05 80 81 80 00 80  82 80 05 80 83 80 00 80  ................
0240: 84 80 05 80 85 80 00 80  86 80 05 80 87 80 00 80  ................
0250: 88 80 05 80 89 80 00 80  8A 80 05 80 8B 80 00 80  ................
0260: 8A 80 05 80 8B 80 00 80  8C 80 05 80 8D 80 00 80  ................
0270: 8E 80 05 80 8F 80 00 80  90 80 05 80 91 80 00 80  ................
0280: 92 80 05 80 93 80 00 80  94 80 05 80 95 80 00 80  ................
0290: 96 80 05 80 97 80 00 80  98 80 05 80 99 80 00 80  ................
02A0: 9A 80 05 80 9B 80 00 80  9C 80 05 80 9D 80 00 80  ................
02B0: 9E 80 05 80 9F 80 00 80  A0 80 05 80 A1 80 00 80  ................
02C0: A2 80 05 80 A3 80 00 80  A4 80 05 80 A5 80 00 80  ................
02D0: A6 80 05 80 A7 80 00 80  A8 80 05 80 A9 80 00 80  ................
02E0: AA 80 05 80 AB 80 00 80  AC 80 05 80 AD 80 00 80  ................
02F0: AC 80 05 80 AD 80 00 80  AE 80 05 80 AF 80 00 80  ................
0300: B0 80 05 80 B1 80 00 80  B2 80 05 80 B3 80 00 80  ................
0310: B4 80 05 80 B5 80 00 80  B6 80 05 80 B7 80 00 80  ................
0320: B8 80 05 80 B9 80 00 80  BA 80 05 80 BB 80 00 80  ................
0330: BC 80 05 80 BD 80 00 80  BE 80 05 80 BF 80 00 80  ................
0340: C0 80 05 80 C1 80 00 80  C2 80 05 80 C3 80 00 80  ................
0350: C4 80 05 80 C5 80 00 80  C6 80 05 80 C7 80 00 80  ................
0360: C8 80 05 80 C9 80 00 80  CA 80 05 80 CB 80 00 80  ................
0370: CC 80 05 80 CD 80 00 80  CE 80 05 80 CF 80 00 80  ................
0380: CE 80 05 80 CF 80 00 80  D0 80 05 80 D1 80 00 80  ................
0390: D2 80 05 80 D3 80 00 80  D4 80 05 80 D5 80 00 80  ................
03A0: D6 80 05 80 D7 80 00 80  D8 80 05 80 D9 80 00 80  ................
03B0: DA 80 05 80 DB 80 00 80  DC 80 05 80 DD 80 00 80  ................
03C0: DE 80 05 80 DF 80 00 80  E0 80 05 80 E1 80 00 80  ................
03D0: 96 80 05 80 E2 80 00 80  E3 80 05 80 E4 80 00 80  ................
03E0: E5 80 05 80 E6 80 00 80  E7 80 05 80 E8 80 00 80  ................
03F0: E9 80 00 80 EA 80 00 80  EB 80 05 80 EC 80 00 80  ................
0400: ED 80 05 80 EE 80 00 80  ED 80 05 80 EE 80 00 80  ................
0410: EF 80 05 80 F0 80 00 80  86 80 05 80 F1 80 00 80  ................
0420: F2 80 05 80 F3 80 00 80  F4 80 05 80 F5 80 00 80  ................
0430: F6 80 05 80 F7 80 00 80  F8 80 05 80 F9 80 00 80  ................
0440: FA 80 05 80 FB 80 00 80  FC 80 05 80 FD 80 00 80  ................
0450: FE 80 05 80 FF 80 00 80  00 81 05 80 01 81 00 80  ................
0460: 02 81 05 80 03 81 00 80  04 81 05 80 05 81 00 80  ................
0470: 06 81 05 80 07 81 00 80  08 81 05 80 09 81 00 80  ................
0480: 0A 81 05 80 0B 81 00 80  0C 81 05 80 0D 81 00 80  ................
0490: 0E 81 05 80 0F 81 00 80  0E 81 05 80 0F 81 00 80  ................
04A0: 10 81 05 80 11 81 00 80  12 81 05 80 13 81 00 80  ................
04B0: 14 81 05 80 15 81 00 80  16 81 05 80 17 81 00 80  ................
04C0: 18 81 05 80 19 81 00 80  1A 81 05 80 1B 81 00 80  ................
04D0: 1C 81 05 80 1D 81 00 80  1E 81 05 80 1F 81 00 80  ................
04E0: 20 81 05 80 21 81 00 80  22 81 05 80 23 81 00 80   ...!..."...#...
04F0: 24 81 05 80 25 81 00 80  26 81 05 80 27 81 00 80  $...%...&...'...
0500: 28 81 05 80 29 81 00 80  2A 81 05 80 2B 81 00 80  (...)...*...+...
0510: 2C 81 05 80 2D 81 00 80  2E 81 05 80 2F 81 00 80  ,...-......./...
0520: 30 81 05 80 31 81 00 80  30 81 05 80 31 81 00 80  0...1...0...1...
0530: 32 81 05 80 33 81 00 80  34 81 05 80 35 81 00 80  2...3...4...5...
0540: 36 81 05 80 37 81 00 80  38 81 05 80 39 81 00 80  6...7...8...9...
0550: 3A 81 05 80 3B 81 00 80  3C 81 05 80 39 81 00 80  :...;...<...9...
0560: 3D 81 05 80 3E 81 00 80  3F 81 05 80 40 81 00 80  =...>...?...@...
0570: 41 81 05 80 42 81 00 80  43 81 05 80 39 81 00 80  A...B...C...9...
0580: 44 81 05 80 45 81 00 80  46 81 05 80 40 81 00 80  D...E...F...@...
0590: 47 81 05 80 42 81 00 80  48 81 05 80 49 81 00 80  G...B...H...I...
05A0: 4A 81 05 80 4B 81 00 80  4C 81 05 80 39 81 00 80  J...K...L...9...
05B0: 4D 81 05 80 4E 81 00 80  4D 81 05 80 4E 81 00 80  M...N...M...N...
05C0: 4F 81 05 80 40 81 00 80  50 81 05 80 51 81 00 80  O...@...P...Q...
05D0: 52 81 05 80 39 81 00 80  53 81 05 80 42 81 00 80  R...9...S...B...
05E0: 54 81 05 80 39 81 00 80  55 81 05 80 51 81 00 80  T...9...U...Q...
05F0: 56 81 05 80 49 81 00 80  57 81 05 80 58 81 00 80  V...I...W...X...
0600: 59 81 05 80 49 81 00 80  5A 81 05 80 5B 81 00 80  Y...I...Z...[...
0610: 5C 81 05 80 49 81 00 80  5D 81 05 80 5E 81 00 80  \...I...]...^...
0620: 5F 81 05 80 60 81 00 80  61 81 05 80 62 81 00 80  _...`...a...b...
0630: 63 81 05 80 64 81 00 80  65 81 05 80 66 81 00 80  c...d...e...f...
0640: 67 81 05 80 64 81 00 80  67 81 05 80 64 81 00 80  g...d...g...d...
0650: 68 81 05 80 4B 81 00 80  69 81 05 80 6A 81 00 80  h...K...i...j...
0660: 6B 81 05 80 6C 81 00 80  6D 81 05 80 60 81 00 80  k...l...m...`...
0670: 6E 81 05 80 6F 81 00 80  70 81 05 80 71 81 00 80  n...o...p...q...
0680: 72 81 05 80 73 81 00 80  74 81 05 80 71 81 00 80  r...s...t...q...
0690: 75 81 05 80 62 81 00 80  76 81 05 80 60 81 00 80  u...b...v...`...
06A0: 77 81 05 80 5E 81 00 80  78 81 05 80 60 81 00 80  w...^...x...`...
06B0: 79 81 05 80 73 81 00 80  7A 81 05 80 71 81 00 80  y...s...z...q...
06C0: 7B 81 05 80 7C 81 00 80  7D 81 05 80 7E 81 00 80  {...|...}...~...
06D0: 7F 81 05 80 42 81 00 80  7F 81 05 80 42 81 00 80  ....B.......B...
06E0: 77 80 05 80 7E 81 00 80  80 81 05 80 51 81 00 80  w...~.......Q...
06F0: 81 81 05 80 60 81 00 80  82 81 05 80 62 81 00 80  ....`.......b...
0700: 83 81 05 80 60 81 00 80  84 81 05 80 62 81 00 80  ....`.......b...
0710: 85 81 05 80 60 81 00 80  86 81 05 80 5E 81 00 80  ....`.......^...
0720: 87 81 05 80 60 81 00 80  88 81 05 80 89 81 00 80  ....`...........
0730: 8A 81 05 80 60 81 00 80  8B 81 05 80 4E 81 00 80  ....`.......N...
0740: 8C 81 05 80 7E 81 00 80  8D 81 05 80 8E 81 00 80  ....~...........
0750: 8F 81 05 80 60 81 00 80  90 81 05 80 42 81 00 80  ....`.......B...
0760: 91 81 05 80 7E 81 00 80  91 81 05 80 7E 81 00 80  ....~.......~...
0770: 92 81 05 80 6F 81 00 80  93 81 05 80 60 81 00 80  ....o.......`...
0780: 94 81 05 80 95 81 00 80  96 81 05 80 71 81 00 80  ............q...
0790: 97 81 05 80 5E 81 00 80  98 81 05 80 71 81 00 80  ....^.......q...
07A0: 99 81 05 80 73 81 00 80  9A 81 05 80 60 81 00 80  ....s.......`...
07B0: 9B 81 05 80 5B 81 00 80  9C 81 05 80 60 81 00 80  ....[.......`...
07C0: 9D 81 05 80 89 81 00 80  9E 81 05 80 9F 81 00 80  ................
07D0: A0 81 05 80 A1 81 00 80  A2 81 05 80 A3 81 00 80  ................
07E0: A4 81 05 80 4B 81 00 80  A5 81 05 80 A6 81 00 80  ....K...........
07F0: A7 81 05 80 6F 81 00 80  A7 81 05 80 6F 81 00 80  ....o.......o...
0800: A8 81 05 80 A9 81 00 80  AA 81 05 80 4E 81 00 80  ............N...
0810: AB 81 05 80 A6 81 00 80  AC 81 05 80 AD 81 00 80  ................
0820: AE 81 05 80 9F 81 00 80  AF 81 05 80 B0 81 00 80  ................
0830: B1 81 05 80 B2 81 00 80  B3 81 05 80 B4 81 00 80  ................
0840: B5 81 05 80 9F 81 00 80  B6 81 05 80 62 81 00 80  ............b...
0850: B7 81 05 80 9F 81 00 80  B8 81 05 80 B9 81 00 80  ................
0860: BA 81 05 80 9F 81 00 80  BB 81 05 80 6A 81 00 80  ............j...
0870: BB 81 05 80 6A 81 00 80  BC 81 05 80 B2 81 00 80  ....j...........
0880: BD 81 05 80 B9 81 00 80  BE 81 05 80 BF 81 00 80  ................
0890: C0 81 05 80 C1 81 00 80  C2 81 05 80 9F 81 00 80  ................
08A0: C3 81 05 80 C1 81 00 80  C4 81 05 80 A6 81 00 80  ................
08B0: C5 81 05 80 C6 81 00 80  C7 81 05 80 B2 81 00 80  ................
08C0: C8 81 05 80 C9 81 00 80  CA 81 05 80 A3 81 00 80  ................
08D0: CB 81 05 80 CC 81 00 80  CD 81 05 80 A6 81 00 80  ................
08E0: CE 81 05 80 CF 81 00 80  D0 81 05 80 B2 81 00 80  ................
08F0: D1 81 05 80 D2 81 00 80  D3 81 05 80 9F 81 00 80  ................
0900: D3 81 05 80 9F 81 00 80  D4 81 05 80 D5 81 00 80  ................
0910: D6 81 05 80 A6 81 00 80  D7 81 05 80 D8 81 00 80  ................
0920: D9 81 05 80 A6 81 00 80  DA 81 05 80 DB 81 00 80  ................
0930: DC 81 05 80 DD 81 00 80  DE 81 05 80 DF 81 00 80  ................
0940: E0 81 05 80 E1 81 00 80  E2 81 05 80 E3 81 00 80  ................
0950: E4 81 05 80 E5 81 00 80  E6 81 05 80 E7 81 00 80  ................
0960: E8 81 05 80 E5 81 00 80  E9 81 05 80 EA 81 00 80  ................
0970: EB 81 05 80 E5 81 00 80  EC 81 05 80 ED 81 00 80  ................
0980: EE 81 05 80 EF 81 00 80  F0 81 05 80 F1 81 00 80  ................
0990: F2 81 05 80 F3 81 00 80  F4 81 05 80 F1 81 00 80  ................
09A0: F5 81 05 80 F6 81 00 80  F5 81 05 80 F6 81 00 80  ................
09B0: F7 81 05 80 F8 81 00 80  F9 81 05 80 FA 81 00 80  ................
09C0: FB 81 05 80 F1 81 00 80  FC 81 05 80 EF 81 00 80  ................
09D0: FD 81 05 80 FE 81 00 80  FF 81 05 80 00 82 00 80  ................
09E0: 01 82 05 80 02 82 00 80  03 82 05 80 00 82 00 80  ................
09F0: 04 82 05 80 00 82 00 80  05 82 05 80 06 82 00 80  ................
0A00: 07 82 08 82 E5 81 00 80  09 82 08 82 E5 81 00 80  ................
0A10: 09 82 08 82 E5 81 00 80  0A 82 08 82 EF 81 00 80  ................
0A20: 0B 82 08 82 EF 81 00 80  0C 82 05 80 00 82 00 80  ................
0A30: 0D 82 05 80 00 82 00 80  0E 82 05 80 06 82 00 80  ................
0A40: 0F 82 05 80 F6 81 00 80  10 82 08 82 11 82 00 80  ................
0A50: 10 82 08 82 11 82 00 80  12 82 08 82 13 82 00 80  ................
0A60: 14 82 08 82 15 82 00 80  16 82 08 82 17 82 00 80  ................
0A70: 18 82 05 80 19 82 00 80  1A 82 05 80 1B 82 00 80  ................
0A80: 1C 82 05 80 1D 82 00 80  1E 82 05 80 1F 82 00 80  ................
0A90: 20 82 05 80 21 82 00 80  22 82 05 80 23 82 00 80   ...!..."...#...
0AA0: 24 82 05 80 25 82 00 80  26 82 05 80 27 82 00 80  $...%...&...'...
0AB0: 28 82 05 80 29 82 00 80  2A 82 05 80 2B 82 00 80  (...)...*...+...
0AC0: 2C 82 05 80 2D 82 00 80  2E 82 05 80 2F 82 00 80  ,...-......./...
0AD0: 30 82 05 80 31 82 00 80  32 82 05 80 33 82 00 80  0...1...2...3...
0AE0: 34 82 05 80 35 82 00 80  36 82 05 80 37 82 00 80  4...5...6...7...
0AF0: 36 82 05 80 37 82 00 80  38 82 05 80 39 82 00 80  6...7...8...9...
0B00: 3A 82 05 80 3B 82 00 80  3C 82 05 80 3D 82 00 80  :...;...<...=...
0B10: 3E 82 05 80 3F 82 00 80  40 82 05 80 41 82 00 80  >...?...@...A...
0B20: 42 82 05 80 43 82 00 80  44 82 05 80 45 82 00 80  B...C...D...E...
0B30: 46 82 05 80 47 82 00 80  48 82 05 80 49 82 00 80  F...G...H...I...
0B40: 4A 82 05 80 4B 82 00 80  4C 82 05 80 4D 82 00 80  J...K...L...M...
0B50: 4E 82 05 80 4F 82 00 80  50 82 05 80 51 82 00 80  N...O...P...Q...
0B60: 52 82 05 80 53 82 00 80  54 82 05 80 55 82 00 80  R...S...T...U...
0B70: 54 82 05 80 55 82 00 80  56 82 05 80 57 82 00 80  T...U...V...W...
0B80: 58 82 05 80 59 82 00 80  5A 82 05 80 5B 82 00 80  X...Y...Z...[...
0B90: 5C 82 05 80 5D 82 00 80  5E 82 05 80 5F 82 00 80  \...]...^..._...
0BA0: 60 82 05 80 61 82 00 80  62 82 05 80 63 82 00 80  `...a...b...c...
0BB0: 64 82 05 80 65 82 00 80  66 82 05 80 67 82 00 80  d...e...f...g...
0BC0: 68 82 05 80 69 82 00 80  6A 82 05 80 6B 82 00 80  h...i...j...k...
0BD0: 6C 82 05 80 6D 82 00 80  6E 82 05 80 6F 82 00 80  l...m...n...o...
0BE0: 70 82 05 80 71 82 00 80  72 82 05 80 73 82 00 80  p...q...r...s...
0BF0: 72 82 05 80 73 82 00 80  74 82 05 80 75 82 00 80  r...s...t...u...
0C00: 76 82 05 80 77 82 00 80  78 82 05 80 79 82 00 80  v...w...x...y...
0C10: 7A 82 05 80 7B 82 00 80  7C 82 05 80 7D 82 00 80  z...{...|...}...
0C20: 7E 82 05 80 7F 82 00 80  80 82 05 80 81 82 00 80  ~...............
0C30: 82 82 05 80 83 82 00 80  84 82 05 80 85 82 00 80  ................
0C40: 86 82 05 80 87 82 00 80  88 82 05 80 89 82 00 80  ................
0C50: 8A 82 05 80 8B 82 00 80  8C 82 05 80 8D 82 00 80  ................
0C60: 8E 82 05 80 8F 82 00 80  90 82 05 80 91 82 00 80  ................
0C70: 90 82 05 80 91 82 00 80  92 82 05 80 93 82 00 80  ................
0C80: 94 82 05 80 95 82 00 80  96 82 05 80 97 82 00 80  ................
0C90: 98 82 05 80 99 82 00 80  9A 82 05 80 9B 82 00 80  ................
0CA0: 9C 82 05 80 9D 82 00 80  9E 82 05 80 9F 82 00 80  ................
0CB0: A0 82 05 80 A1 82 00 80  A2 82 05 80 A3 82 00 80  ................
0CC0: A4 82 05 80 A5 82 00 80  A6 82 05 80 A7 82 00 80  ................
0CD0: A8 82 05 80 A9 82 00 80  AA 82 05 80 AB 82 00 80  ................
0CE0: AA 82 05 80 AB 82 00 80  AC 82 05 80 AD 82 00 80  ................
0CF0: AE 82 05 80 AF 82 00 80  B0 82 05 80 B1 82 00 80  ................
0D00: B2 82 05 80 B3 82 00 80  B4 82 05 80 B5 82 00 80  ................
0D10: B6 82 05 80 B7 82 00 80  B8 82 05 80 B9 82 00 80  ................
0D20: BA 82 05 80 BB 82 00 80  BC 82 05 80 BD 82 00 80  ................
0D30: BE 82 05 80 BF 82 00 80  C0 82 05 80 C1 82 00 80  ................
0D40: C2 82 05 80 C3 82 00 80  C4 82 05 80 C5 82 00 80  ................
0D50: C6 82 05 80 C7 82 00 80  C8 82 05 80 C9 82 00 80  ................
0D60: CA 82 05 80 CB 82 00 80  CC 82 05 80 CD 82 00 80  ................
0D70: CE 82 05 80 CF 82 00 80  CE 82 05 80 CF 82 00 80  ................
0D80: D0 82 05 80 D1 82 00 80  D2 82 05 80 D3 82 00 80  ................
0D90: D4 82 05 80 D5 82 00 80  D6 82 05 80 D7 82 00 80  ................
0DA0: D8 82 05 80 D9 82 00 80  DA 82 05 80 DB 82 00 80  ................
0DB0: DC 82 05 80 DD 82 00 80  DE 82 05 80 DF 82 00 80  ................
0DC0: E0 82 05 80 E1 82 00 80  E2 82 05 80 E3 82 00 80  ................
0DD0: E4 82 05 80 E5 82 00 80  E6 82 05 80 E7 82 00 80  ................
