# 17063994

## Common Data

| Field            | Value                    |
|------------------|--------------------------|
| Zone             | Chocobo Circuit (ID: 70) |
| Block Size       | 28668 bytes              |
| Total Events     | 18                       |
| References Count | 480                      |

## List of Events

| Event ID                   | Entrypoint   |   Size |   Instructions |
|----------------------------|--------------|--------|----------------|
| [65535](#event-65535)      | 0x0000       |      1 |              1 |
| [479](#event-479)          | 0x0001       |      1 |              1 |
| [488](#event-488)          | 0x0002       |      1 |              1 |
| [497](#event-497)          | 0x0003       |      1 |              1 |
| [65535.1](#event-655351)   | 0x0004       |   5311 |            729 |
| [65535.2](#event-655352)   | 0x14C3       |    606 |             84 |
| [65535.3](#event-655353)   | 0x1721       |    293 |             49 |
| [65535.4](#event-655354)   | 0x1846       |    209 |             37 |
| [65535.5](#event-655355)   | 0x1917       |    147 |             31 |
| [65535.6](#event-655356)   | 0x19AA       |    183 |             37 |
| [65535.7](#event-655357)   | 0x1A61       |    301 |             59 |
| [65535.8](#event-655358)   | 0x1B8E       |    297 |             56 |
| [65535.9](#event-655359)   | 0x1CB7       |    272 |             51 |
| [65535.10](#event-6553510) | 0x1DC7       |   1773 |            194 |
| [65535.11](#event-6553511) | 0x24B4       |     80 |             10 |
| [65535.12](#event-6553512) | 0x2504       |     14 |              4 |
| [65535.13](#event-6553513) | 0x2512       |   1539 |            179 |
| [65535.14](#event-6553514) | 0x2B15       |  15631 |           1945 |

## DAT References (imed_data)

|   Index | Hex Value   |   Dec Value |
|---------|-------------|-------------|
|       0 | 0x0000      |           0 |
|       1 | 0x001E      |          30 |
|       2 | 0x000F      |          15 |
|       3 | 0x0078      |         120 |
|       4 | 0x00C8      |         200 |
|       5 | 0x0004      |           4 |
|       6 | 0x0005      |           5 |
|       7 | 0x0008      |           8 |
|       8 | 0x0001      |           1 |
|       9 | 0x006D      |         109 |
|      10 | 0x000C      |          12 |
|      11 | 0x5A023     |      368675 |
|      12 | 0xFFFFFE38  |  4294966840 |
|      13 | 0x6113      |       24851 |
|      14 | 0x0816      |        2070 |
|      15 | 0x7120A     |      463370 |
|      16 | 0x64D9A     |      413082 |
|      17 | 0x32EB      |       13035 |
|      18 | 0x05E0      |        1504 |
|      19 | 0x7153E     |      464190 |
|      20 | 0x64A98     |      412312 |
|      21 | 0x0794      |        1940 |
|      22 | 0x70A9E     |      461470 |
|      23 | 0x64BA2     |      412578 |
|      24 | 0x76395     |      484245 |
|      25 | 0x62619     |      402969 |
|      26 | 0x602A      |       24618 |
|      27 | 0x01FB      |         507 |
|      28 | 0x75E2F     |      482863 |
|      29 | 0x62989     |      403849 |
|      30 | 0x6042      |       24642 |
|      31 | 0x01FC      |         508 |
|      32 | 0x75E70     |      482928 |
|      33 | 0x62579     |      402809 |
|      34 | 0x6026      |       24614 |
|      35 | 0x01F4      |         500 |
|      36 | 0x762B5     |      484021 |
|      37 | 0x62D22     |      404770 |
|      38 | 0x6064      |       24676 |
|      39 | 0x020B      |         523 |
|      40 | 0x76692     |      485010 |
|      41 | 0x6281C     |      403484 |
|      42 | 0x5FDA      |       24538 |
|      43 | 0x025E      |         606 |
|      44 | 0x0020      |          32 |
|      45 | 0x0007      |           7 |
|      46 | 0x0010      |          16 |
|      47 | 0x0017      |          23 |
|      48 | 0x0018      |          24 |
|      49 | 0x001F      |          31 |
|      50 | 0x0021      |          33 |
|      51 | 0x2200      |        8704 |
|      52 | 0x0002      |           2 |
|      53 | 0x0022      |          34 |
|      54 | 0x0003      |           3 |
|      55 | 0x2378      |        9080 |
|      56 | 0x6B7BB     |      440251 |
|      57 | 0x669D6     |      420310 |
|      58 | 0x2DF5      |       11765 |
|      59 | 0x00BF      |         191 |
|      60 | 0x001C      |          28 |
|      61 | 0x000A      |          10 |
|      62 | 0x0014      |          20 |
|      63 | 0x0006      |           6 |
|      64 | 0x00B0      |         176 |
|      65 | 0x0151      |         337 |
|      66 | 0xFFFFBA92  |  4294949522 |
|      67 | 0xFFFE9B43  |  4294875971 |
|      68 | 0x07D0      |        2000 |
|      69 | 0x0157      |         343 |
|      70 | 0x000E      |          14 |
|      71 | 0x0126      |         294 |
|      72 | 0x0009      |           9 |
|      73 | 0x0023      |          35 |
|      74 | 0x0024      |          36 |
|      75 | 0x0025      |          37 |
|      76 | 0x0026      |          38 |
|      77 | 0x0027      |          39 |
|      78 | 0x0028      |          40 |
|      79 | 0x0029      |          41 |
|      80 | 0x002A      |          42 |
|      81 | 0x002B      |          43 |
|      82 | 0x002C      |          44 |
|      83 | 0x002D      |          45 |
|      84 | 0x002E      |          46 |
|      85 | 0x002F      |          47 |
|      86 | 0x0030      |          48 |
|      87 | 0x0031      |          49 |
|      88 | 0x0032      |          50 |
|      89 | 0x0033      |          51 |
|      90 | 0x0955      |        2389 |
|      91 | 0x273A      |       10042 |
|      92 | 0x2740      |       10048 |
|      93 | 0x000D      |          13 |
|      94 | 0x2747      |       10055 |
|      95 | 0x003C      |          60 |
|      96 | 0x2749      |       10057 |
|      97 | 0x2742      |       10050 |
|      98 | 0x228C      |        8844 |
|      99 | 0x0956      |        2390 |
|     100 | 0x228D      |        8845 |
|     101 | 0x2741      |       10049 |
|     102 | 0x000B      |          11 |
|     103 | 0x2745      |       10053 |
|     104 | 0x0957      |        2391 |
|     105 | 0x2733      |       10035 |
|     106 | 0x2743      |       10051 |
|     107 | 0x2744      |       10052 |
|     108 | 0x0958      |        2392 |
|     109 | 0x005A      |          90 |
|     110 | 0x228F      |        8847 |
|     111 | 0x2297      |        8855 |
|     112 | 0x0959      |        2393 |
|     113 | 0x2746      |       10054 |
|     114 | 0x2290      |        8848 |
|     115 | 0x2298      |        8856 |
|     116 | 0x095A      |        2394 |
|     117 | 0x2748      |       10056 |
|     118 | 0x274A      |       10058 |
|     119 | 0x274B      |       10059 |
|     120 | 0x2734      |       10036 |
|     121 | 0x2736      |       10038 |
|     122 | 0x095B      |        2395 |
|     123 | 0x2735      |       10037 |
|     124 | 0x095C      |        2396 |
|     125 | 0x2295      |        8853 |
|     126 | 0x095D      |        2397 |
|     127 | 0x2296      |        8854 |
|     128 | 0x00E2      |         226 |
|     129 | 0x00E3      |         227 |
|     130 | 0x00E4      |         228 |
|     131 | 0x0016      |          22 |
|     132 | 0x00E0      |         224 |
|     133 | 0x272D      |       10029 |
|     134 | 0x2731      |       10033 |
|     135 | 0x2732      |       10034 |
|     136 | 0x0012      |          18 |
|     137 | 0x274C      |       10060 |
|     138 | 0x12CC8     |       77000 |
|     139 | 0x3D478     |      251000 |
|     140 | 0x1388      |        5000 |
|     141 | 0x0EBF      |        3775 |
|     142 | 0x00D1      |         209 |
|     143 | 0x274D      |       10061 |
|     144 | 0x274E      |       10062 |
|     145 | 0x274F      |       10063 |
|     146 | 0x03E8      |        1000 |
|     147 | 0x2750      |       10064 |
|     148 | 0x2751      |       10065 |
|     149 | 0x00E1      |         225 |
|     150 | 0x72FF5     |      471029 |
|     151 | 0x65632     |      415282 |
|     152 | 0x5FBF      |       24511 |
|     153 | 0x0044      |          68 |
|     154 | 0x716C9     |      464585 |
|     155 | 0x66793     |      419731 |
|     156 | 0x5DF7      |       24055 |
|     157 | 0x01D4      |         468 |
|     158 | 0x03E7      |         999 |
|     159 | 0x26E0      |        9952 |
|     160 | 0x05D3      |        1491 |
|     161 | 0x26E1      |        9953 |
|     162 | 0x26E2      |        9954 |
|     163 | 0x26E3      |        9955 |
|     164 | 0x26E4      |        9956 |
|     165 | 0x26E5      |        9957 |
|     166 | 0x26E6      |        9958 |
|     167 | 0x26E7      |        9959 |
|     168 | 0x26E8      |        9960 |
|     169 | 0x26E9      |        9961 |
|     170 | 0x26F2      |        9970 |
|     171 | 0x26F3      |        9971 |
|     172 | 0x26F4      |        9972 |
|     173 | 0x26F5      |        9973 |
|     174 | 0x26F6      |        9974 |
|     175 | 0x26F7      |        9975 |
|     176 | 0x26F8      |        9976 |
|     177 | 0x00C0      |         192 |
|     178 | 0x00C2      |         194 |
|     179 | 0x00C1      |         193 |
|     180 | 0x0045      |          69 |
|     181 | 0x2215      |        8725 |
|     182 | 0x076C      |        1900 |
|     183 | 0x2698      |        9880 |
|     184 | 0x2699      |        9881 |
|     185 | 0x269A      |        9882 |
|     186 | 0x269B      |        9883 |
|     187 | 0x269C      |        9884 |
|     188 | 0x269D      |        9885 |
|     189 | 0x269E      |        9886 |
|     190 | 0x0668      |        1640 |
|     191 | 0x269F      |        9887 |
|     192 | 0x26A0      |        9888 |
|     193 | 0x26A1      |        9889 |
|     194 | 0x26A2      |        9890 |
|     195 | 0x26A3      |        9891 |
|     196 | 0x26A4      |        9892 |
|     197 | 0x26A5      |        9893 |
|     198 | 0x26A6      |        9894 |
|     199 | 0x26A7      |        9895 |
|     200 | 0x26A8      |        9896 |
|     201 | 0x26A9      |        9897 |
|     202 | 0x26C2      |        9922 |
|     203 | 0x26C3      |        9923 |
|     204 | 0x00A3      |         163 |
|     205 | 0x26C4      |        9924 |
|     206 | 0x26C5      |        9925 |
|     207 | 0x26C6      |        9926 |
|     208 | 0x26C7      |        9927 |
|     209 | 0x26C8      |        9928 |
|     210 | 0x26C9      |        9929 |
|     211 | 0x26CA      |        9930 |
|     212 | 0x26CB      |        9931 |
|     213 | 0x26B3      |        9907 |
|     214 | 0x26B1      |        9905 |
|     215 | 0x26B2      |        9906 |
|     216 | 0x26AA      |        9898 |
|     217 | 0x26AB      |        9899 |
|     218 | 0x26AC      |        9900 |
|     219 | 0x26AD      |        9901 |
|     220 | 0x26B4      |        9908 |
|     221 | 0x26B5      |        9909 |
|     222 | 0x26B6      |        9910 |
|     223 | 0x26B7      |        9911 |
|     224 | 0x26BC      |        9916 |
|     225 | 0x26BD      |        9917 |
|     226 | 0x26BE      |        9918 |
|     227 | 0x26BF      |        9919 |
|     228 | 0x26C0      |        9920 |
|     229 | 0x26C1      |        9921 |
|     230 | 0x26CC      |        9932 |
|     231 | 0x26CD      |        9933 |
|     232 | 0x26CE      |        9934 |
|     233 | 0x26CF      |        9935 |
|     234 | 0x26D0      |        9936 |
|     235 | 0x26D1      |        9937 |
|     236 | 0x26D2      |        9938 |
|     237 | 0x26D3      |        9939 |
|     238 | 0x26D4      |        9940 |
|     239 | 0x26D5      |        9941 |
|     240 | 0x26D6      |        9942 |
|     241 | 0x26D7      |        9943 |
|     242 | 0x26EE      |        9966 |
|     243 | 0x26EF      |        9967 |
|     244 | 0x26EA      |        9962 |
|     245 | 0x26EB      |        9963 |
|     246 | 0x26EC      |        9964 |
|     247 | 0x26ED      |        9965 |
|     248 | 0x26F0      |        9968 |
|     249 | 0x26F9      |        9977 |
|     250 | 0x26FA      |        9978 |
|     251 | 0x26FB      |        9979 |
|     252 | 0x26FC      |        9980 |
|     253 | 0x26FD      |        9981 |
|     254 | 0x26FE      |        9982 |
|     255 | 0x0037      |          55 |
|     256 | 0x001D      |          29 |
|     257 | 0x0041      |          65 |
|     258 | 0x26FF      |        9983 |
|     259 | 0x0838      |        2104 |
|     260 | 0x2700      |        9984 |
|     261 | 0x2235      |        8757 |
|     262 | 0x00B1      |         177 |
|     263 | 0x22A3      |        8867 |
|     264 | 0x273F      |       10047 |
|     265 | 0x22A5      |        8869 |
|     266 | 0x0019      |          25 |
|     267 | 0x00F0      |         240 |
|     268 | 0x3F91      |       16273 |
|     269 | 0x72D3E     |      470334 |
|     270 | 0x658C3     |      415939 |
|     271 | 0x5F26      |       24358 |
|     272 | 0x0360      |         864 |
|     273 | 0x71F22     |      466722 |
|     274 | 0x66391     |      418705 |
|     275 | 0x5E03      |       24067 |
|     276 | 0x0242      |         578 |
|     277 | 0x26F1      |        9969 |
|     278 | 0x18F7      |        6391 |
|     279 | 0x26AE      |        9902 |
|     280 | 0x26AF      |        9903 |
|     281 | 0x26B0      |        9904 |
|     282 | 0x22B1      |        8881 |
|     283 | 0x26D8      |        9944 |
|     284 | 0x26D9      |        9945 |
|     285 | 0x26DA      |        9946 |
|     286 | 0x26DB      |        9947 |
|     287 | 0x26DC      |        9948 |
|     288 | 0x26DD      |        9949 |
|     289 | 0x26DE      |        9950 |
|     290 | 0x26DF      |        9951 |
|     291 | 0x70F6F     |      462703 |
|     292 | 0x59F44     |      368452 |
|     293 | 0x6296      |       25238 |
|     294 | 0x091A      |        2330 |
|     295 | 0x70B51     |      461649 |
|     296 | 0x598FA     |      366842 |
|     297 | 0x620F      |       25103 |
|     298 | 0x08DD      |        2269 |
|     299 | 0x70496     |      459926 |
|     300 | 0x5A72B     |      370475 |
|     301 | 0x5F97      |       24471 |
|     302 | 0x02CE      |         718 |
|     303 | 0x22BA      |        8890 |
|     304 | 0x00DE      |         222 |
|     305 | 0x22BB      |        8891 |
|     306 | 0x0400      |        1024 |
|     307 | 0x0133      |         307 |
|     308 | 0x2701      |        9985 |
|     309 | 0x089E      |        2206 |
|     310 | 0x22BD      |        8893 |
|     311 | 0x2702      |        9986 |
|     312 | 0x18FA      |        6394 |
|     313 | 0x00B4      |         180 |
|     314 | 0x6FF7A     |      458618 |
|     315 | 0x5AF27     |      372519 |
|     316 | 0x5EE9      |       24297 |
|     317 | 0x6E912     |      452882 |
|     318 | 0x5BEE7     |      376551 |
|     319 | 0x5D7E      |       23934 |
|     320 | 0x0273      |         627 |
|     321 | 0x717DA     |      464858 |
|     322 | 0x617B2     |      399282 |
|     323 | 0x6071      |       24689 |
|     324 | 0x099B      |        2459 |
|     325 | 0x70FC0     |      462784 |
|     326 | 0x62106     |      401670 |
|     327 | 0x6029      |       24617 |
|     328 | 0x016A      |         362 |
|     329 | 0x2703      |        9987 |
|     330 | 0x2704      |        9988 |
|     331 | 0x2705      |        9989 |
|     332 | 0x2706      |        9990 |
|     333 | 0x2707      |        9991 |
|     334 | 0x2708      |        9992 |
|     335 | 0x2709      |        9993 |
|     336 | 0x270A      |        9994 |
|     337 | 0x270B      |        9995 |
|     338 | 0x270C      |        9996 |
|     339 | 0x007C      |         124 |
|     340 | 0x270D      |        9997 |
|     341 | 0x270E      |        9998 |
|     342 | 0x006A      |         106 |
|     343 | 0xFFFCFFED  |  4294770669 |
|     344 | 0x6D8CF     |      448719 |
|     345 | 0x01F3      |         499 |
|     346 | 0x01C8      |         456 |
|     347 | 0xFFFCEFD5  |  4294766549 |
|     348 | 0x6DF7C     |      450428 |
|     349 | 0x0121      |         289 |
|     350 | 0x0180      |         384 |
|     351 | 0xFFFD4679  |  4294788729 |
|     352 | 0x69DCE     |      433614 |
|     353 | 0x0090      |         144 |
|     354 | 0x00D7      |         215 |
|     355 | 0x00C9      |         201 |
|     356 | 0xFFFC8564  |  4294739300 |
|     357 | 0x6F6D6     |      456406 |
|     358 | 0x1398      |        5016 |
|     359 | 0x0BFF      |        3071 |
|     360 | 0xFFFCD5F6  |  4294759926 |
|     361 | 0x6E183     |      450947 |
|     362 | 0xFFFFFC32  |  4294966322 |
|     363 | 0x00CB      |         203 |
|     364 | 0x2710      |       10000 |
|     365 | 0x0369      |         873 |
|     366 | 0x2711      |       10001 |
|     367 | 0x70144     |      459076 |
|     368 | 0x5AA04     |      371204 |
|     369 | 0x5F42      |       24386 |
|     370 | 0x704F3     |      460019 |
|     371 | 0x598C2     |      366786 |
|     372 | 0x60D3      |       24787 |
|     373 | 0x6FFED     |      458733 |
|     374 | 0x5968A     |      366218 |
|     375 | 0x60B6      |       24758 |
|     376 | 0x2712      |       10002 |
|     377 | 0x2713      |       10003 |
|     378 | 0x2714      |       10004 |
|     379 | 0x2715      |       10005 |
|     380 | 0x2716      |       10006 |
|     381 | 0x2717      |       10007 |
|     382 | 0x2718      |       10008 |
|     383 | 0x2719      |       10009 |
|     384 | 0x0096      |         150 |
|     385 | 0x271A      |       10010 |
|     386 | 0x271B      |       10011 |
|     387 | 0x271C      |       10012 |
|     388 | 0x271D      |       10013 |
|     389 | 0x271E      |       10014 |
|     390 | 0x271F      |       10015 |
|     391 | 0x2720      |       10016 |
|     392 | 0x2721      |       10017 |
|     393 | 0x00BC      |         188 |
|     394 | 0x2722      |       10018 |
|     395 | 0x2723      |       10019 |
|     396 | 0x2724      |       10020 |
|     397 | 0x2725      |       10021 |
|     398 | 0x2726      |       10022 |
|     399 | 0x2727      |       10023 |
|     400 | 0x2728      |       10024 |
|     401 | 0x2729      |       10025 |
|     402 | 0x272A      |       10026 |
|     403 | 0x272B      |       10027 |
|     404 | 0x272C      |       10028 |
|     405 | 0x22A6      |        8870 |
|     406 | 0x26B8      |        9912 |
|     407 | 0x26B9      |        9913 |
|     408 | 0x26BA      |        9914 |
|     409 | 0x26BB      |        9915 |
|     410 | 0x0013      |          19 |
|     411 | 0x001B      |          27 |
|     412 | 0x236D      |        9069 |
|     413 | 0x236E      |        9070 |
|     414 | 0x0109      |         265 |
|     415 | 0x0209      |         521 |
|     416 | 0x0064      |         100 |
|     417 | 0x05DC      |        1500 |
|     418 | 0x0BB8      |        3000 |
|     419 | 0x157C      |        5500 |
|     420 | 0x1770      |        6000 |
|     421 | 0x1964      |        6500 |
|     422 | 0x1B58      |        7000 |
|     423 | 0x1D4C      |        7500 |
|     424 | 0x1F40      |        8000 |
|     425 | 0x2134      |        8500 |
|     426 | 0x2328      |        9000 |
|     427 | 0x0046      |          70 |
|     428 | 0x004B      |          75 |
|     429 | 0x0050      |          80 |
|     430 | 0x0055      |          85 |
|     431 | 0x012C      |         300 |
|     432 | 0x0190      |         400 |
|     433 | 0x0258      |         600 |
|     434 | 0x0320      |         800 |
|     435 | 0x09C4      |        2500 |
|     436 | 0x0DAC      |        3500 |
|     437 | 0x0FA0      |        4000 |
|     438 | 0x1194      |        4500 |
|     439 | 0x251C      |        9500 |
|     440 | 0x2AF8      |       11000 |
|     441 | 0x2EE0      |       12000 |
|     442 | 0x32C8      |       13000 |
|     443 | 0x36B0      |       14000 |
|     444 | 0x3A98      |       15000 |
|     445 | 0x3E80      |       16000 |
|     446 | 0x4268      |       17000 |
|     447 | 0x4650      |       18000 |
|     448 | 0x4A38      |       19000 |
|     449 | 0x4E20      |       20000 |
|     450 | 0x55F0      |       22000 |
|     451 | 0x5DC0      |       24000 |
|     452 | 0x6590      |       26000 |
|     453 | 0x6D60      |       28000 |
|     454 | 0x7530      |       30000 |
|     455 | 0x7D00      |       32000 |
|     456 | 0x84D0      |       34000 |
|     457 | 0x8CA0      |       36000 |
|     458 | 0x9470      |       38000 |
|     459 | 0x9C40      |       40000 |
|     460 | 0xA410      |       42000 |
|     461 | 0xABE0      |       44000 |
|     462 | 0xB3B0      |       46000 |
|     463 | 0xBB80      |       48000 |
|     464 | 0xC350      |       50000 |
|     465 | 0xD6D8      |       55000 |
|     466 | 0xEA60      |       60000 |
|     467 | 0xFDE8      |       65000 |
|     468 | 0x11170     |       70000 |
|     469 | 0x124F8     |       75000 |
|     470 | 0x13880     |       80000 |
|     471 | 0x14C08     |       85000 |
|     472 | 0x15F90     |       90000 |
|     473 | 0x17318     |       95000 |
|     474 | 0x186A0     |      100000 |
|     475 | 0x095E      |        2398 |
|     476 | 0x095F      |        2399 |
|     477 | 0x0960      |        2400 |
|     478 | 0x0961      |        2401 |
|     479 | 0x00FF      |         255 |

## String References

- **6391**: Obtained: #.
- **6394**: Obtained key item: 3.
- **8704**: $0
- **9069**: ST $0/$1/$2/$3/$4/$5/$6/$7
- **9070**: ED $0/$1/$2/$3/$4/$5/$6/$7
- **9080**: $0/$1/$2/$3 $4/$5/$6/$7
- **9969**: You find $0.
- **10060**: Shantotto starts casting Tornado!
- **10061**: The speed of the chocobos has dropped!
- **10062**: The stamina of the chocobos has dropped!
- **10063**: The evasion rate of the chocobos has dropped!

## Events

### Event 65535

#### Metadata

| Field        | Value   |
|--------------|---------|
| Entrypoint   | 0x0000  |
| Data Size    | 1 bytes |
| Instructions | 1       |

```
      00 01 02 03 04 05 06 07  08 09 0A 0B 0C 0D 0E 0F
      -- -- -- -- -- -- -- --  -- -- -- -- -- -- -- --
0000: 00                                                .               
```

#### Opcodes

```
  0: 0x0000 [0x00] END_REQSTACK()
```

### Event 479

#### Metadata

| Field        | Value   |
|--------------|---------|
| Entrypoint   | 0x0001  |
| Data Size    | 1 bytes |
| Instructions | 1       |

```
      00 01 02 03 04 05 06 07  08 09 0A 0B 0C 0D 0E 0F
      -- -- -- -- -- -- -- --  -- -- -- -- -- -- -- --
0000:    00                                              .              
```

#### Opcodes

```
  0: 0x0001 [0x00] END_REQSTACK()
```

### Event 488

#### Metadata

| Field        | Value   |
|--------------|---------|
| Entrypoint   | 0x0002  |
| Data Size    | 1 bytes |
| Instructions | 1       |

```
      00 01 02 03 04 05 06 07  08 09 0A 0B 0C 0D 0E 0F
      -- -- -- -- -- -- -- --  -- -- -- -- -- -- -- --
0000:       00                                            .             
```

#### Opcodes

```
  0: 0x0002 [0x00] END_REQSTACK()
```

### Event 497

#### Metadata

| Field        | Value   |
|--------------|---------|
| Entrypoint   | 0x0003  |
| Data Size    | 1 bytes |
| Instructions | 1       |

```
      00 01 02 03 04 05 06 07  08 09 0A 0B 0C 0D 0E 0F
      -- -- -- -- -- -- -- --  -- -- -- -- -- -- -- --
0000:          00                                          .            
```

#### Opcodes

```
  0: 0x0003 [0x00] END_REQSTACK()
```

### Event 65535.1

#### Metadata

| Field        | Value      |
|--------------|------------|
| Entrypoint   | 0x0004     |
| Data Size    | 5311 bytes |
| Instructions | 9          |

```
      00 01 02 03 04 05 06 07  08 09 0A 0B 0C 0D 0E 0F
      -- -- -- -- -- -- -- --  -- -- -- -- -- -- -- --
0000:             6A 00 80 01  80 02 80 5D 00 80 03 80      j......]....
0010: 45 04 80 F8 FF FF 7F F8  FF FF 7F 66 64 6F 30 00  E..........fdo0.
0020: 80 55 04 80 F8 FF FF 7F  F8 FF FF 7F 66 64 6F 30  .U..........fdo0
0030: 83 08 00 AA 08 00 08 00  08 00 08 00 08 00 0A 00  ................
0040: 08 00 08 00 1A B3 61 BF  00 00 80 00 80 08 00 41  ......a........A
0050: 00 80 05 80 08 00 34 10  41 06 80 07 80 08 00 07  ......4.A.......
0060: 00 1C 08 80 34 09 80 02  07 00 08 80 00 81 00 03  ....4...........
0070: 32 00 00 80 03 07 00 00  80 77 0A 80 00 80 01 8B  2........w......
0080: 00 03 32 00 07 00 77 0A  80 07 00 1C 08 80 5C 00  ..2...w.......\.
0090: 00 80 5C 01 00 80 9A 4E  01 06 60 04 01 4E 01 08  ..\....N..`..N..
00A0: 60 04 01 4E 01 0A 60 04  01 2F 00 42 60 04 01 4E  `..N..`../.B`..N
00B0: 00 42 60 04 01 BA 42 60  04 01 0B 80 0C 80 0D 80  .B`...B`........
00C0: 0E 80 80 42 60 04 01 27  05 42 60 04 01 04 2F 00  ...B`..'.B`.../.
00D0: 45 60 04 01 4E 00 45 60  04 01 2F 00 43 60 04 01  E`..N.E`../.C`..
00E0: 02 23 10 0A 80 00 0B 01  BA 43 60 04 01 0F 80 10  .#.......C`.....
00F0: 80 11 80 12 80 2F 00 47  60 04 01 BA 47 60 04 01  ...../.G`...G`..
0100: 13 80 14 80 11 80 15 80  01 16 01 4E 00 43 60 04  ...........N.C`.
0110: 01 80 43 60 04 01 BA 45  60 04 01 16 80 17 80 11  ..C`...E`.......
0120: 80 12 80 80 45 60 04 01  92 01 45 60 04 01 92 01  ....E`....E`....
0130: 43 60 04 01 2F 00 3B 60  04 01 4E 00 3B 60 04 01  C`../.;`..N.;`..
0140: BA 3B 60 04 01 18 80 19  80 1A 80 1B 80 80 3B 60  .;`...........;`
0150: 04 01 2F 00 3C 60 04 01  4E 00 3C 60 04 01 BA 3C  ../.<`..N.<`...<
0160: 60 04 01 1C 80 1D 80 1E  80 1F 80 80 3C 60 04 01  `...........<`..
0170: 2F 00 3D 60 04 01 4E 00  3D 60 04 01 BA 3D 60 04  /.=`..N.=`...=`.
0180: 01 20 80 21 80 22 80 23  80 80 3D 60 04 01 2F 00  . .!.".#..=`../.
0190: 3E 60 04 01 4E 00 3E 60  04 01 BA 3E 60 04 01 24  >`..N.>`...>`..$
01A0: 80 25 80 26 80 27 80 80  3E 60 04 01 2F 00 3F 60  .%.&.'..>`../.?`
01B0: 04 01 4E 00 3F 60 04 01  BA 3F 60 04 01 28 80 29  ..N.?`...?`..(.)
01C0: 80 2A 80 2B 80 80 3F 60  04 01 29 05 3A 60 04 01  .*.+..?`..).:`..
01D0: 11 29 05 45 60 04 01 13  03 02 10 20 10 08 02 10  .).E`...... ....
01E0: 08 80 14 02 10 07 80 07  02 10 23 10 08 02 10 08  ..........#.....
01F0: 80 9D 00 54 67 02 10 02  10 1A 4A 44 06 00 00 06  ...Tg.....JD....
0200: 02 00 06 31 10 02 00 00  2C 80 03 22 02 9D 03 00  ...1....,.."....
0210: 80 02 00 00 00 07 31 10  02 00 07 00 00 08 80 01  ......1.........
0220: 05 02 06 00 00 06 02 00  06 33 10 02 00 00 2C 80  .........3....,.
0230: 05 48 02 9D 03 00 80 02  00 00 00 07 33 10 02 00  .H..........3...
0240: 07 00 00 08 80 01 2B 02  06 02 10 02 02 10 34 10  ......+.......4.
0250: 03 60 02 3C 2F 00 02 10  08 80 0B 02 10 01 4B 02  .`.</.........K.
0260: 03 00 00 2E 10 40 00 80  2D 80 35 10 00 00 40 07  .....@..-.5...@.
0270: 80 02 80 35 10 00 00 40  2E 80 2F 80 35 10 00 00  ...5...@../.5...
0280: 40 30 80 31 80 35 10 00  00 40 00 80 2D 80 36 10  @0.1.5...@..-.6.
0290: 00 00 40 07 80 02 80 36  10 00 00 40 2E 80 2F 80  ..@....6...@../.
02A0: 36 10 00 00 40 30 80 31  80 36 10 00 00 06 01 00  6...@0.1.6......
02B0: 06 02 00 06 30 10 06 30  00 02 00 00 2F 10 05 09  ....0..0..../...
02C0: 07 02 32 10 00 80 01 D9  02 02 00 00 32 80 03 D9  ..2.........2...
02D0: 02 03 02 10 00 00 48 33  80 9D 03 00 80 02 10 00  ......H3........
02E0: 00 02 02 10 00 80 01 03  07 06 05 00 06 03 00 06  ................
02F0: 04 00 02 05 00 00 00 05  14 03 03 03 00 04 00 9D  ................
0300: 03 00 80 02 00 05 00 07  04 00 02 00 07 05 00 08  ................
0310: 80 01 F2 02 03 2C 10 03  00 03 2D 10 04 00 03 2A  .....,....-....*
0320: 10 03 00 03 2B 10 02 00  03 29 10 00 00 BF 40 00  ....+....)....@.
0330: 80 00 00 00 80 26 10 BF  40 00 80 00 00 08 80 27  .....&..@......'
0340: 10 BF 40 00 80 00 00 34  80 28 10 41 30 80 31 80  ..@....4.(.A0.1.
0350: 28 10 2B 00 41 00 80 2D  80 28 10 2C 00 41 07 80  (.+.A..-.(.,.A..
0360: 02 80 28 10 2D 00 41 2E  80 2F 80 28 10 2E 00 03  ..(.-.A../.(....
0370: 31 00 00 00 0B 31 00 02  31 00 31 80 02 84 03 03  1....1..1.1.....
0380: 31 00 31 80 BF 40 00 80  31 00 34 80 44 10 41 30  1.1..@..1.4.D.A0
0390: 80 31 80 44 10 31 00 06  44 10 02 31 00 00 80 80  .1.D.1..D..1....
03A0: A5 03 01 CB 03 02 31 00  2C 80 80 B0 03 01 CB 03  ......1.,.......
03B0: 02 31 00 32 80 80 BB 03  01 CB 03 02 31 00 35 80  .1.2........1.5.
03C0: 80 C6 03 01 CB 03 03 44  10 08 80 06 02 10 06 03  .......D........
03D0: 10 03 04 10 36 80 06 05  10 06 15 17 06 16 17 02  ....6...........
03E0: 02 10 2D 80 05 14 04 41  03 10 04 10 26 10 05 10  ..-....A....&...
03F0: 02 05 10 15 17 03 02 04  03 05 10 15 17 03 16 17  ................
0400: 02 10 07 02 10 08 80 07  03 10 05 80 07 04 10 05  ................
0410: 80 01 DF 03 02 32 10 00  80 01 3B 04 02 00 00 31  .....2....;....1
0420: 80 03 3B 04 03 02 10 2B  00 03 03 10 2C 00 03 04  ..;....+....,...
0430: 10 2D 00 03 05 10 2E 00  48 37 80 3E 32 10 08 80  .-......H7.>2...
0440: 53 04 02 00 00 2E 10 00  50 04 1A F3 5F 1A 4C 61  S.......P..._.La
0450: 01 BD 05 02 2B 00 00 80  00 A3 05 1A 3D 2A 1A D4  ....+.......=*..
0460: 28 02 00 00 2E 10 00 72  04 1A F3 5F 1A 4C 61 01  (......r..._.La.
0470: A0 05 02 00 00 01 80 00  FA 04 45 04 80 F0 FF FF  ..........E.....
0480: 7F F0 FF FF 7F 66 64 6F  30 00 80 55 04 80 F0 FF  .....fdo0..U....
0490: FF 7F F0 FF FF 7F 66 64  6F 30 BA 42 60 04 01 38  ......fdo0.B`..8
04A0: 80 39 80 3A 80 0E 80 80  42 60 04 01 29 03 40 60  .9.:....B`..).@`
04B0: 04 01 0A 1A A1 09 1A 73  08 1A F3 5F 2A 05 45 60  .......s..._*.E`
04C0: 04 01 2C 42 60 04 01 42  60 04 01 73 70 30 31 1A  ..,B`..B`..sp01.
04D0: 4C 61 45 3B 80 F0 FF FF  7F F0 FF FF 7F 6E 61 6B  LaE;.........nak
04E0: 73 00 80 45 3B 80 F0 FF  FF 7F F0 FF FF 7F 68 61  s..E;.........ha
04F0: 73 73 00 80 1C 06 80 01  A0 05 3F 02 10 00 00 05  ss........?.....
0500: 80 02 02 10 00 80 00 75  05 02 00 00 3C 80 04 14  .......u....<...
0510: 05 01 72 05 45 04 80 F0  FF FF 7F F0 FF FF 7F 66  ..r.E..........f
0520: 64 6F 30 00 80 55 04 80  F0 FF FF 7F F0 FF FF 7F  do0..U..........
0530: 66 64 6F 30 29 03 40 60  04 01 0A 1A A1 09 1A 73  fdo0).@`.......s
0540: 08 1A F3 5F 2A 05 45 60  04 01 1A 4C 61 45 3B 80  ..._*.E`...LaE;.
0550: F0 FF FF 7F F0 FF FF 7F  6E 61 6B 73 00 80 45 3B  ........naks..E;
0560: 80 F0 FF FF 7F F0 FF FF  7F 68 61 73 73 00 80 1C  .........hass...
0570: 06 80 01 A0 05 02 00 00  3D 80 05 87 05 27 05 45  ........=....'.E
0580: 60 04 01 14 01 A0 05 02  00 00 3E 80 05 99 05 27  `.........>....'
0590: 05 45 60 04 01 15 01 A0  05 27 05 45 60 04 01 16  .E`......'.E`...
05A0: 01 BD 05 02 00 00 2E 10  00 B7 05 1A F3 5F 1A 4C  ............._.L
05B0: 61 1A 91 0A 01 BD 05 1A  91 0A 1A 4C 61 41 30 80  a..........LaA0.
05C0: 31 80 28 10 2B 00 02 2B  00 00 80 00 DB 05 7A 00  1.(.+..+......z.
05D0: 46 60 04 01 27 05 46 60  04 01 05 40 07 80 02 80  F`..'.F`...@....
05E0: 30 10 00 80 02 08 80 08  80 00 F3 06 3E 30 10 31  0...........>0.1
05F0: 80 0A 06 29 03 40 60 04  01 0A 27 05 45 60 04 01  ...).@`...'.E`..
0600: 18 2A 05 45 60 04 01 01  09 07 03 08 00 07 80 03  .*.E`...........
0610: 09 00 2D 80 07 09 00 34  10 06 30 00 06 08 00 02  ..-....4..0.....
0620: 08 00 34 10 03 D8 06 02  08 00 00 80 80 3B 06 41  ..4..........;.A
0630: 00 80 2D 80 35 10 09 00  01 C7 06 02 08 00 08 80  ..-.5...........
0640: 80 4F 06 41 07 80 02 80  35 10 09 00 01 C7 06 02  .O.A....5.......
0650: 08 00 34 80 80 63 06 41  2E 80 2F 80 35 10 09 00  ..4..c.A../.5...
0660: 01 C7 06 02 08 00 36 80  80 77 06 41 30 80 31 80  ......6..w.A0.1.
0670: 35 10 09 00 01 C7 06 02  08 00 05 80 80 8B 06 41  5..............A
0680: 00 80 2D 80 36 10 09 00  01 C7 06 02 08 00 06 80  ..-.6...........
0690: 80 9F 06 41 07 80 02 80  36 10 09 00 01 C7 06 02  ...A....6.......
06A0: 08 00 3F 80 80 B3 06 41  2E 80 2F 80 36 10 09 00  ..?....A../.6...
06B0: 01 C7 06 02 08 00 2D 80  80 C7 06 41 30 80 31 80  ......-....A0.1.
06C0: 36 10 09 00 01 C7 06 02  09 00 00 00 02 D2 06 0B  6...............
06D0: 30 00 0B 08 00 01 1F 06  03 08 00 34 10 15 08 00  0..........4....
06E0: 34 80 02 30 00 08 00 04  ED 06 01 F3 06 1C 08 80  4..0............
06F0: 01 E4 05 02 00 00 31 80  04 FE 06 01 03 07 07 00  ......1.........
0700: 00 08 80 1C 08 80 01 B9  02 5D 00 80 03 80 4E 01  .........]....N.
0710: 3B 60 04 01 4E 01 3C 60  04 01 4E 01 3D 60 04 01  ;`..N.<`..N.=`..
0720: 4E 01 3E 60 04 01 4E 01  3F 60 04 01 4E 01 2B 60  N.>`..N.?`..N.+`
0730: 04 01 4E 01 2C 60 04 01  4E 01 2D 60 04 01 4E 01  ..N.,`..N.-`..N.
0740: 46 60 04 01 4E 01 40 60  04 01 4E 01 41 60 04 01  F`..N.@`..N.A`..
0750: 2F 01 3B 60 04 01 2F 01  3C 60 04 01 2F 01 3D 60  /.;`../.<`../.=`
0760: 04 01 2F 01 3E 60 04 01  2F 01 3F 60 04 01 2F 01  ../.>`../.?`../.
0770: 2B 60 04 01 2F 01 2C 60  04 01 2F 01 2D 60 04 01  +`../.,`../.-`..
0780: 2F 01 46 60 04 01 2F 01  40 60 04 01 2F 01 41 60  /.F`../.@`../.A`
0790: 04 01 5C 00 40 80 5C 01  40 80 9A 45 41 80 F0 FF  ..\.@.\.@..EA...
07A0: FF 7F F0 FF FF 7F 73 30  33 38 00 80 4E 01 42 60  ......s038..N.B`
07B0: 04 01 2F 01 42 60 04 01  1A 73 08 22 01 2F 01 2F  ../.B`...s."././
07C0: 60 04 01 22 01 2F 01 30  60 04 01 22 01 2F 01 31  `.."./.0`.."./.1
07D0: 60 04 01 AE 00 07 00 02  80 1A B9 44 02 41 10 00  `..........D.A..
07E0: 80 80 0E 08 4E 00 06 60  04 01 4E 00 F0 FF FF 7F  ....N..`..N.....
07F0: BA F0 FF FF 7F 42 80 43  80 44 80 45 80 80 F0 FF  .....B.C.D.E....
0800: FF 7F 4A F0 FF FF 7F 06  60 04 01 01 72 08 02 41  ..J.....`...r..A
0810: 10 08 80 80 40 08 4E 00  08 60 04 01 4E 00 F0 FF  ....@.N..`..N...
0820: FF 7F BA F0 FF FF 7F 42  80 43 80 44 80 45 80 80  .......B.C.D.E..
0830: F0 FF FF 7F 4A F0 FF FF  7F 08 60 04 01 01 72 08  ....J.....`...r.
0840: 02 41 10 34 80 80 72 08  4E 00 0A 60 04 01 4E 00  .A.4..r.N..`..N.
0850: F0 FF FF 7F BA F0 FF FF  7F 42 80 43 80 44 80 45  .........B.C.D.E
0860: 80 80 F0 FF FF 7F 4A F0  FF FF 7F 0A 60 04 01 01  ......J.....`...
0870: 72 08 00 1C 01 80 7A 00  F0 FF FF 7F 7A 00 2E 60  r.....z.....z..`
0880: 04 01 7A 00 32 60 04 01  7A 00 2F 60 04 01 7A 00  ..z.2`..z./`..z.
0890: 30 60 04 01 7A 00 31 60  04 01 02 23 10 46 80 01  0`..z.1`...#.F..
08A0: B7 08 7A 00 33 60 04 01  7A 00 34 60 04 01 7A 00  ..z.3`..z.4`..z.
08B0: 35 60 04 01 01 C9 08 7A  00 37 60 04 01 7A 00 38  5`.....z.7`..z.8
08C0: 60 04 01 7A 00 39 60 04  01 BB 30 80 2E 60 04 01  `..z.9`...0..`..
08D0: 2E 60 04 01 73 74 6F 70  00 80 BB 30 80 2F 60 04  .`..stop...0./`.
08E0: 01 2F 60 04 01 73 74 6F  70 00 80 BB 30 80 30 60  ./`..stop...0.0`
08F0: 04 01 30 60 04 01 73 74  6F 70 00 80 BB 30 80 31  ..0`..stop...0.1
0900: 60 04 01 31 60 04 01 73  74 6F 70 00 80 02 23 10  `..1`..stop...#.
0910: 46 80 01 5C 09 BB 30 80  32 60 04 01 32 60 04 01  F..\..0.2`..2`..
0920: 73 74 6F 70 00 80 BB 30  80 33 60 04 01 33 60 04  stop...0.3`..3`.
0930: 01 73 74 6F 70 00 80 BB  30 80 34 60 04 01 34 60  .stop...0.4`..4`
0940: 04 01 73 74 6F 70 00 80  BB 30 80 35 60 04 01 35  ..stop...0.5`..5
0950: 60 04 01 73 74 6F 70 00  80 01 A0 09 BB 30 80 32  `..stop......0.2
0960: 60 04 01 32 60 04 01 73  74 6F 70 00 80 BB 30 80  `..2`..stop...0.
0970: 37 60 04 01 37 60 04 01  73 74 6F 70 00 80 BB 30  7`..7`..stop...0
0980: 80 38 60 04 01 38 60 04  01 73 74 6F 70 00 80 BB  .8`..8`..stop...
0990: 30 80 39 60 04 01 39 60  04 01 73 74 6F 70 00 80  0.9`..9`..stop..
09A0: 1B 45 3B 80 F0 FF FF 7F  F0 FF FF 7F 6E 61 6B 65  .E;.........nake
09B0: 00 80 45 3B 80 F0 FF FF  7F F0 FF FF 7F 68 61 73  ..E;.........has
09C0: 65 00 80 02 06 00 00 80  00 90 0A 13 02 10 2D 80  e.............-.
09D0: 02 02 10 00 80 00 F1 09  02 23 10 0A 80 00 EA 09  .........#......
09E0: 27 05 45 60 04 01 07 01  F1 09 27 05 45 60 04 01  '.E`......'.E`..
09F0: 06 02 02 10 08 80 00 12  0A 02 23 10 0A 80 00 0B  ..........#.....
0A00: 0A 27 05 45 60 04 01 09  01 12 0A 27 05 45 60 04  .'.E`......'.E`.
0A10: 01 08 02 02 10 34 80 00  33 0A 02 23 10 0A 80 00  .....4..3..#....
0A20: 2C 0A 27 05 45 60 04 01  0B 01 33 0A 27 05 45 60  ,.'.E`....3.'.E`
0A30: 04 01 0A 02 02 10 36 80  00 54 0A 02 23 10 0A 80  ......6..T..#...
0A40: 00 4D 0A 27 05 45 60 04  01 0D 01 54 0A 27 05 45  .M.'.E`....T.'.E
0A50: 60 04 01 0C 02 02 10 05  80 00 63 0A 27 05 45 60  `.........c.'.E`
0A60: 04 01 0E 02 02 10 06 80  00 72 0A 27 05 45 60 04  .........r.'.E`.
0A70: 01 0F 02 02 10 3F 80 00  81 0A 27 05 45 60 04 01  .....?....'.E`..
0A80: 10 02 02 10 2D 80 00 90  0A 27 05 45 60 04 01 11  ....-....'.E`...
0A90: 1B 02 2B 00 00 80 00 F7  0A 45 04 80 F0 FF FF 7F  ..+......E......
0AA0: F0 FF FF 7F 66 64 6F 30  00 80 55 04 80 F0 FF FF  ....fdo0..U.....
0AB0: 7F F0 FF FF 7F 66 64 6F  30 29 03 40 60 04 01 0A  .....fdo0).@`...
0AC0: 1A A1 09 1A 73 08 1A F3  5F 2A 05 45 60 04 01 45  ....s..._*.E`..E
0AD0: 3B 80 F0 FF FF 7F F0 FF  FF 7F 6E 61 6B 73 00 80  ;.........naks..
0AE0: 45 3B 80 F0 FF FF 7F F0  FF FF 7F 68 61 73 73 00  E;.........hass.
0AF0: 80 1A 3D 2A 1A D4 28 02  2B 00 08 80 00 4D 0B 7A  ..=*..(.+....M.z
0B00: 00 46 60 04 01 52 47 80  2E 60 04 01 2E 60 04 01  .F`..RG..`...`..
0B10: 72 6D 30 36 45 47 80 2E  60 04 01 2E 60 04 01 6B  rm06EG..`...`..k
0B20: 63 30 36 00 80 1A 5C 14  27 01 46 60 04 01 07 1C  c06...\.'.F`....
0B30: 01 80 27 05 3A 60 04 01  05 1C 02 80 45 04 80 F0  ..'.:`......E...
0B40: FF FF 7F F0 FF FF 7F 66  64 69 30 00 80 02 2B 00  .......fdi0...+.
0B50: 34 80 00 A3 0B 7A 00 46  60 04 01 52 47 80 2E 60  4....z.F`..RG..`
0B60: 04 01 2E 60 04 01 72 6D  30 36 45 47 80 2E 60 04  ...`..rm06EG..`.
0B70: 01 2E 60 04 01 6B 63 30  36 00 80 1A 5C 14 27 01  ..`..kc06...\.'.
0B80: 46 60 04 01 07 1C 01 80  27 05 3A 60 04 01 06 1C  F`......'.:`....
0B90: 02 80 45 04 80 F0 FF FF  7F F0 FF FF 7F 66 64 69  ..E..........fdi
0BA0: 30 00 80 02 2B 00 36 80  00 F9 0B 7A 00 46 60 04  0...+.6....z.F`.
0BB0: 01 52 47 80 2E 60 04 01  2E 60 04 01 72 6D 30 36  .RG..`...`..rm06
0BC0: 45 47 80 2E 60 04 01 2E  60 04 01 6B 63 30 36 00  EG..`...`..kc06.
0BD0: 80 1A 5C 14 27 01 46 60  04 01 07 1C 01 80 27 05  ..\.'.F`......'.
0BE0: 3A 60 04 01 07 1C 02 80  45 04 80 F0 FF FF 7F F0  :`......E.......
0BF0: FF FF 7F 66 64 69 30 00  80 02 2B 00 05 80 00 4F  ...fdi0...+....O
0C00: 0C 7A 00 46 60 04 01 52  47 80 2E 60 04 01 2E 60  .z.F`..RG..`...`
0C10: 04 01 72 6D 30 36 45 47  80 2E 60 04 01 2E 60 04  ..rm06EG..`...`.
0C20: 01 6B 63 30 36 00 80 1A  5C 14 27 01 46 60 04 01  .kc06...\.'.F`..
0C30: 08 1C 01 80 27 05 3A 60  04 01 08 1C 02 80 45 04  ....'.:`......E.
0C40: 80 F0 FF FF 7F F0 FF FF  7F 66 64 69 30 00 80 02  .........fdi0...
0C50: 2B 00 06 80 00 A5 0C 7A  00 46 60 04 01 52 47 80  +......z.F`..RG.
0C60: 2E 60 04 01 2E 60 04 01  72 6D 30 36 45 47 80 2E  .`...`..rm06EG..
0C70: 60 04 01 2E 60 04 01 6B  63 30 36 00 80 1A 5C 14  `...`..kc06...\.
0C80: 27 01 46 60 04 01 08 1C  01 80 27 05 3A 60 04 01  '.F`......'.:`..
0C90: 09 1C 02 80 45 04 80 F0  FF FF 7F F0 FF FF 7F 66  ....E..........f
0CA0: 64 69 30 00 80 02 2B 00  3F 80 00 FB 0C 7A 00 46  di0...+.?....z.F
0CB0: 60 04 01 52 47 80 2E 60  04 01 2E 60 04 01 72 6D  `..RG..`...`..rm
0CC0: 30 36 45 47 80 2E 60 04  01 2E 60 04 01 6B 63 30  06EG..`...`..kc0
0CD0: 36 00 80 1A 5C 14 27 01  46 60 04 01 07 1C 01 80  6...\.'.F`......
0CE0: 27 05 3A 60 04 01 0A 1C  02 80 45 04 80 F0 FF FF  '.:`......E.....
0CF0: 7F F0 FF FF 7F 66 64 69  30 00 80 02 2B 00 2D 80  .....fdi0...+.-.
0D00: 00 51 0D 7A 00 46 60 04  01 52 47 80 2E 60 04 01  .Q.z.F`..RG..`..
0D10: 2E 60 04 01 72 6D 30 36  45 47 80 2E 60 04 01 2E  .`..rm06EG..`...
0D20: 60 04 01 6B 63 30 36 00  80 1A 5C 14 27 01 46 60  `..kc06...\.'.F`
0D30: 04 01 07 1C 01 80 27 05  3A 60 04 01 0B 1C 02 80  ......'.:`......
0D40: 45 04 80 F0 FF FF 7F F0  FF FF 7F 66 64 69 30 00  E..........fdi0.
0D50: 80 02 2B 00 07 80 00 A7  0D 7A 00 46 60 04 01 52  ..+......z.F`..R
0D60: 47 80 2E 60 04 01 2E 60  04 01 72 6D 30 36 45 47  G..`...`..rm06EG
0D70: 80 2E 60 04 01 2E 60 04  01 6B 63 30 36 00 80 1A  ..`...`..kc06...
0D80: 5C 14 27 01 46 60 04 01  09 1C 01 80 27 05 3A 60  \.'.F`......'.:`
0D90: 04 01 0C 1C 02 80 45 04  80 F0 FF FF 7F F0 FF FF  ......E.........
0DA0: 7F 66 64 69 30 00 80 02  2B 00 48 80 00 FD 0D 7A  .fdi0...+.H....z
0DB0: 00 46 60 04 01 52 47 80  2E 60 04 01 2E 60 04 01  .F`..RG..`...`..
0DC0: 72 6D 30 36 45 47 80 2E  60 04 01 2E 60 04 01 6B  rm06EG..`...`..k
0DD0: 63 30 36 00 80 1A 5C 14  27 01 46 60 04 01 09 1C  c06...\.'.F`....
0DE0: 01 80 27 05 3A 60 04 01  0D 1C 02 80 45 04 80 F0  ..'.:`......E...
0DF0: FF FF 7F F0 FF FF 7F 66  64 69 30 00 80 02 2B 00  .......fdi0...+.
0E00: 2C 80 00 19 0E 7A 00 46  60 04 01 27 01 46 60 04  ,....z.F`..'.F`.
0E10: 01 06 27 05 3A 60 04 01  0E 02 2B 00 32 80 00 69  ..'.:`....+.2..i
0E20: 0E 7A 00 46 60 04 01 52  47 80 2E 60 04 01 2E 60  .z.F`..RG..`...`
0E30: 04 01 72 6D 30 36 45 47  80 2E 60 04 01 2E 60 04  ..rm06EG..`...`.
0E40: 01 6B 63 30 36 00 80 27  01 46 60 04 01 0A 27 05  .kc06..'.F`...'.
0E50: 3A 60 04 01 0F 1C 02 80  45 04 80 F0 FF FF 7F F0  :`......E.......
0E60: FF FF 7F 66 64 69 30 00  80 02 2B 00 35 80 00 A5  ...fdi0...+.5...
0E70: 0E 7A 00 46 60 04 01 52  47 80 2E 60 04 01 2E 60  .z.F`..RG..`...`
0E80: 04 01 72 6D 30 36 45 47  80 2E 60 04 01 2E 60 04  ..rm06EG..`...`.
0E90: 01 6B 63 30 36 00 80 29  03 40 60 04 01 0A 27 05  .kc06..).@`...'.
0EA0: 3A 60 04 01 10 02 2B 00  49 80 00 FB 0E 7A 00 46  :`....+.I....z.F
0EB0: 60 04 01 52 47 80 2E 60  04 01 2E 60 04 01 72 6D  `..RG..`...`..rm
0EC0: 30 36 45 47 80 2E 60 04  01 2E 60 04 01 6B 63 30  06EG..`...`..kc0
0ED0: 36 00 80 1A 5C 14 27 01  46 60 04 01 07 1C 01 80  6...\.'.F`......
0EE0: 27 05 3A 60 04 01 05 1C  02 80 45 04 80 F0 FF FF  '.:`......E.....
0EF0: 7F F0 FF FF 7F 66 64 69  30 00 80 02 2B 00 4A 80  .....fdi0...+.J.
0F00: 00 51 0F 7A 00 46 60 04  01 52 47 80 2E 60 04 01  .Q.z.F`..RG..`..
0F10: 2E 60 04 01 72 6D 30 36  45 47 80 2E 60 04 01 2E  .`..rm06EG..`...
0F20: 60 04 01 6B 63 30 36 00  80 1A 5C 14 27 01 46 60  `..kc06...\.'.F`
0F30: 04 01 07 1C 01 80 27 05  3A 60 04 01 05 1C 02 80  ......'.:`......
0F40: 45 04 80 F0 FF FF 7F F0  FF FF 7F 66 64 69 30 00  E..........fdi0.
0F50: 80 02 2B 00 4B 80 00 A7  0F 7A 00 46 60 04 01 52  ..+.K....z.F`..R
0F60: 47 80 2E 60 04 01 2E 60  04 01 72 6D 30 36 45 47  G..`...`..rm06EG
0F70: 80 2E 60 04 01 2E 60 04  01 6B 63 30 36 00 80 1A  ..`...`..kc06...
0F80: 5C 14 27 01 46 60 04 01  07 1C 01 80 27 05 3A 60  \.'.F`......'.:`
0F90: 04 01 06 1C 02 80 45 04  80 F0 FF FF 7F F0 FF FF  ......E.........
0FA0: 7F 66 64 69 30 00 80 02  2B 00 4C 80 00 FD 0F 7A  .fdi0...+.L....z
0FB0: 00 46 60 04 01 52 47 80  2E 60 04 01 2E 60 04 01  .F`..RG..`...`..
0FC0: 72 6D 30 36 45 47 80 2E  60 04 01 2E 60 04 01 6B  rm06EG..`...`..k
0FD0: 63 30 36 00 80 1A 5C 14  27 01 46 60 04 01 08 1C  c06...\.'.F`....
0FE0: 01 80 27 05 3A 60 04 01  08 1C 02 80 45 04 80 F0  ..'.:`......E...
0FF0: FF FF 7F F0 FF FF 7F 66  64 69 30 00 80 02 2B 00  .......fdi0...+.
1000: 4D 80 00 53 10 7A 00 46  60 04 01 52 47 80 2E 60  M..S.z.F`..RG..`
1010: 04 01 2E 60 04 01 72 6D  30 36 45 47 80 2E 60 04  ...`..rm06EG..`.
1020: 01 2E 60 04 01 6B 63 30  36 00 80 1A 5C 14 27 01  ..`..kc06...\.'.
1030: 46 60 04 01 07 1C 01 80  27 05 3A 60 04 01 05 1C  F`......'.:`....
1040: 02 80 45 04 80 F0 FF FF  7F F0 FF FF 7F 66 64 69  ..E..........fdi
1050: 30 00 80 02 2B 00 4E 80  00 A9 10 7A 00 46 60 04  0...+.N....z.F`.
1060: 01 52 47 80 2E 60 04 01  2E 60 04 01 72 6D 30 36  .RG..`...`..rm06
1070: 45 47 80 2E 60 04 01 2E  60 04 01 6B 63 30 36 00  EG..`...`..kc06.
1080: 80 1A 5C 14 27 01 46 60  04 01 07 1C 01 80 27 05  ..\.'.F`......'.
1090: 3A 60 04 01 07 1C 02 80  45 04 80 F0 FF FF 7F F0  :`......E.......
10A0: FF FF 7F 66 64 69 30 00  80 02 2B 00 4F 80 00 FF  ...fdi0...+.O...
10B0: 10 7A 00 46 60 04 01 52  47 80 2E 60 04 01 2E 60  .z.F`..RG..`...`
10C0: 04 01 72 6D 30 36 45 47  80 2E 60 04 01 2E 60 04  ..rm06EG..`...`.
10D0: 01 6B 63 30 36 00 80 1A  5C 14 27 01 46 60 04 01  .kc06...\.'.F`..
10E0: 07 1C 01 80 27 05 3A 60  04 01 0A 1C 02 80 45 04  ....'.:`......E.
10F0: 80 F0 FF FF 7F F0 FF FF  7F 66 64 69 30 00 80 02  .........fdi0...
1100: 2B 00 50 80 00 55 11 7A  00 46 60 04 01 52 47 80  +.P..U.z.F`..RG.
1110: 2E 60 04 01 2E 60 04 01  72 6D 30 36 45 47 80 2E  .`...`..rm06EG..
1120: 60 04 01 2E 60 04 01 6B  63 30 36 00 80 1A 5C 14  `...`..kc06...\.
1130: 27 01 46 60 04 01 07 1C  01 80 27 05 3A 60 04 01  '.F`......'.:`..
1140: 06 1C 02 80 45 04 80 F0  FF FF 7F F0 FF FF 7F 66  ....E..........f
1150: 64 69 30 00 80 02 2B 00  51 80 00 AB 11 7A 00 46  di0...+.Q....z.F
1160: 60 04 01 52 47 80 2E 60  04 01 2E 60 04 01 72 6D  `..RG..`...`..rm
1170: 30 36 45 47 80 2E 60 04  01 2E 60 04 01 6B 63 30  06EG..`...`..kc0
1180: 36 00 80 1A 5C 14 27 01  46 60 04 01 07 1C 01 80  6...\.'.F`......
1190: 27 05 3A 60 04 01 07 1C  02 80 45 04 80 F0 FF FF  '.:`......E.....
11A0: 7F F0 FF FF 7F 66 64 69  30 00 80 02 2B 00 52 80  .....fdi0...+.R.
11B0: 00 01 12 7A 00 46 60 04  01 52 47 80 2E 60 04 01  ...z.F`..RG..`..
11C0: 2E 60 04 01 72 6D 30 36  45 47 80 2E 60 04 01 2E  .`..rm06EG..`...
11D0: 60 04 01 6B 63 30 36 00  80 1A 5C 14 27 01 46 60  `..kc06...\.'.F`
11E0: 04 01 07 1C 01 80 27 05  3A 60 04 01 0A 1C 02 80  ......'.:`......
11F0: 45 04 80 F0 FF FF 7F F0  FF FF 7F 66 64 69 30 00  E..........fdi0.
1200: 80 02 2B 00 53 80 00 57  12 7A 00 46 60 04 01 52  ..+.S..W.z.F`..R
1210: 47 80 2E 60 04 01 2E 60  04 01 72 6D 30 36 45 47  G..`...`..rm06EG
1220: 80 2E 60 04 01 2E 60 04  01 6B 63 30 36 00 80 1A  ..`...`..kc06...
1230: 5C 14 27 01 46 60 04 01  07 1C 01 80 27 05 3A 60  \.'.F`......'.:`
1240: 04 01 09 1C 02 80 45 04  80 F0 FF FF 7F F0 FF FF  ......E.........
1250: 7F 66 64 69 30 00 80 02  2B 00 54 80 00 AD 12 7A  .fdi0...+.T....z
1260: 00 46 60 04 01 52 47 80  2E 60 04 01 2E 60 04 01  .F`..RG..`...`..
1270: 72 6D 30 36 45 47 80 2E  60 04 01 2E 60 04 01 6B  rm06EG..`...`..k
1280: 63 30 36 00 80 1A 5C 14  27 01 46 60 04 01 07 1C  c06...\.'.F`....
1290: 01 80 27 05 3A 60 04 01  06 1C 02 80 45 04 80 F0  ..'.:`......E...
12A0: FF FF 7F F0 FF FF 7F 66  64 69 30 00 80 02 2B 00  .......fdi0...+.
12B0: 55 80 00 03 13 7A 00 46  60 04 01 52 47 80 2E 60  U....z.F`..RG..`
12C0: 04 01 2E 60 04 01 72 6D  30 36 45 47 80 2E 60 04  ...`..rm06EG..`.
12D0: 01 2E 60 04 01 6B 63 30  36 00 80 1A 5C 14 27 01  ..`..kc06...\.'.
12E0: 46 60 04 01 07 1C 01 80  27 05 3A 60 04 01 0B 1C  F`......'.:`....
12F0: 02 80 45 04 80 F0 FF FF  7F F0 FF FF 7F 66 64 69  ..E..........fdi
1300: 30 00 80 02 2B 00 56 80  00 59 13 7A 00 46 60 04  0...+.V..Y.z.F`.
1310: 01 52 47 80 2E 60 04 01  2E 60 04 01 72 6D 30 36  .RG..`...`..rm06
1320: 45 47 80 2E 60 04 01 2E  60 04 01 6B 63 30 36 00  EG..`...`..kc06.
1330: 80 1A 5C 14 27 01 46 60  04 01 07 1C 01 80 27 05  ..\.'.F`......'.
1340: 3A 60 04 01 05 1C 02 80  45 04 80 F0 FF FF 7F F0  :`......E.......
1350: FF FF 7F 66 64 69 30 00  80 02 2B 00 57 80 00 AF  ...fdi0...+.W...
1360: 13 7A 00 46 60 04 01 52  47 80 2E 60 04 01 2E 60  .z.F`..RG..`...`
1370: 04 01 72 6D 30 36 45 47  80 2E 60 04 01 2E 60 04  ..rm06EG..`...`.
1380: 01 6B 63 30 36 00 80 1A  5C 14 27 01 46 60 04 01  .kc06...\.'.F`..
1390: 07 1C 01 80 27 05 3A 60  04 01 0A 1C 02 80 45 04  ....'.:`......E.
13A0: 80 F0 FF FF 7F F0 FF FF  7F 66 64 69 30 00 80 02  .........fdi0...
13B0: 2B 00 58 80 00 05 14 7A  00 46 60 04 01 52 47 80  +.X....z.F`..RG.
13C0: 2E 60 04 01 2E 60 04 01  72 6D 30 36 45 47 80 2E  .`...`..rm06EG..
13D0: 60 04 01 2E 60 04 01 6B  63 30 36 00 80 1A 5C 14  `...`..kc06...\.
13E0: 27 01 46 60 04 01 07 1C  01 80 27 05 3A 60 04 01  '.F`......'.:`..
13F0: 05 1C 02 80 45 04 80 F0  FF FF 7F F0 FF FF 7F 66  ....E..........f
1400: 64 69 30 00 80 02 2B 00  59 80 00 5B 14 7A 00 46  di0...+.Y..[.z.F
1410: 60 04 01 52 47 80 2E 60  04 01 2E 60 04 01 72 6D  `..RG..`...`..rm
1420: 30 36 45 47 80 2E 60 04  01 2E 60 04 01 6B 63 30  06EG..`...`..kc0
1430: 36 00 80 1A 5C 14 27 01  46 60 04 01 07 1C 01 80  6...\.'.F`......
1440: 27 05 3A 60 04 01 0A 1C  02 80 45 04 80 F0 FF FF  '.:`......E.....
1450: 7F F0 FF FF 7F 66 64 69  30 00 80 1B 27 03 2E 60  .....fdi0...'..`
1460: 04 01 09 27 03 32 60 04  01 0D 02 23 10 08 80 00  ...'.2`....#....
1470: 75 14 01 BF 14 02 23 10  46 80 00 95 14 27 03 37  u.....#.F....'.7
1480: 60 04 01 09 27 03 38 60  04 01 09 27 03 39 60 04  `...'.8`...'.9`.
1490: 01 09 01 AA 14 27 03 33  60 04 01 09 27 03 34 60  .....'.3`...'.4`
14A0: 04 01 09 27 03 35 60 04  01 09 27 03 2F 60 04 01  ...'.5`...'./`..
14B0: 0D 27 03 30 60 04 01 0D  27 03 31 60 04 01 09 1C  .'.0`...'.1`....
14C0: 3E 80 1B                                          >..             
```

#### Opcodes

```
  0: 0x0004 [0x6A] CHANGE_SOUND_VOLUME: Set (Effects/System/Zone/Master)* volume to 0*, fade_time=30*
  1: 0x000B [0x5D] SET_MUSIC_VOLUME(volume=0*, fade_time=120*)
  2: 0x0010 [0x45] LOAD_SCHEDULED_TASK: Load scheduler "fdo0" with entities [EventEntity, EventEntity], work=[200*, 0*]
  3: 0x0021 [0x55] WAIT_LOAD_SCHEDULER: Wait for scheduler "fdo0" with entities [EventEntity, EventEntity], work=200*
  4: 0x0030 [0x83] ExtData[1]->WorkLocal[8] = GetGameTime()
  5: 0x0033 [0xAA] VANA_DIEL_TIMESTAMP_CONVERTER(timestamp=ExtData[1]->WorkLocal[8], year=ExtData[1]->WorkLocal[8], month=ExtData[1]->WorkLocal[8], day=ExtData[1]->WorkLocal[8], weekday=ExtData[1]->WorkLocal[8], hour=ExtData[1]->WorkLocal[10], minute=ExtData[1]->WorkLocal[8], moon=ExtData[1]->WorkLocal[8])
  6: 0x0044 [0x1A] CALL_SUBROUTINE(address=0x61B3)
  7: 0x0047 [0xBF] CHOCOBO_RACING_PARAMETER_GETTER(param_type=0x00)
  8: 0x0049 [0x00] END_REQSTACK()
```

#### Data or dead code:

```
# Dead code (unreachable instructions):
     0x004A [0x80] LOAD_WAIT(entity=Unknown NPC (ID: 557056/0x00088000))
     0x004F [0x41] Work_Zone[52] = ExtData[1]->WorkLocal[8] (bits 0*-4*)
     0x0058 [0x41] ExtData[1]->WorkLocal[7] = ExtData[1]->WorkLocal[8] (bits 5*-8*)
     0x0061 [0x1C] WAIT(1* ticks)
     0x0064 [0x34] LOAD_UNLOAD_ZONE(zone_id=109*)
     0x0067 [0x02] IF !(ExtData[1]->WorkLocal[7] == 1*) GOTO 0x0081
     0x006F [0x03] ExtData[1]->WorkLocal[50] = 0*
     0x0074 [0x03] ExtData[1]->WorkLocal[7] = 0*
     0x0079 [0x77] SET_EVENT_TIME_WEATHER(hour=12*, weather=0*)
     0x007E [0x01] GOTO 0x008B
     0x0081 [0x03] ExtData[1]->WorkLocal[50] = ExtData[1]->WorkLocal[7]
     0x0086 [0x77] SET_EVENT_TIME_WEATHER(hour=12*, weather=ExtData[1]->WorkLocal[7])
     0x008B [0x1C] WAIT(1* ticks)
     0x008E [0x5C] MUSIC_CONTROL: Set Idle (Day) music to song 0*
     0x0092 [0x5C] MUSIC_CONTROL: Set Idle (Night) music to song 0*
     0x0096 [0x9A] WAIT_MUSIC_SERVER()
     0x0097 [0x4E] SET_ENTITY_HIDE_FLAG: Hide Lafaurelle (ID: 17063942/0x01046006)
     0x009D [0x4E] SET_ENTITY_HIDE_FLAG: Hide Zagied (ID: 17063944/0x01046008)
     0x00A3 [0x4E] SET_ENTITY_HIDE_FLAG: Hide Chualulu (ID: 17063946/0x0104600A)
     0x00A9 [0x2F] Unnamed NPC (ID: 17064002/0x01046042)->Render.Flags0 &= ~0x80000 // Bit 19
     0x00AF [0x4E] SET_ENTITY_HIDE_FLAG: Show Unnamed NPC (ID: 17064002/0x01046042)
     0x00B5 [0xBA] SET_ENTITY_POSITION(entity_id=Unnamed NPC (ID: 17064002/0x01046042), pos_x=368.675*, pos_z=-0.456*, pos_y=24.851*, direction=181.9*)
     0x00C2 [0x80] LOAD_WAIT(entity=Unnamed NPC (ID: 17064002/0x01046042))
     0x00C7 [0x27] REQ_SET(priority=0x05, entity_id=Unnamed NPC (ID: 17064002/0x01046042), tag_num=0x04)
     0x00CE [0x2F] Goccilo (ID: 17064005/0x01046045)->Render.Flags0 &= ~0x80000 // Bit 19
     0x00D4 [0x4E] SET_ENTITY_HIDE_FLAG: Show Goccilo (ID: 17064005/0x01046045)
     0x00DA [0x2F] Markovich (ID: 17064003/0x01046043)->Render.Flags0 &= ~0x80000 // Bit 19
     0x00E0 [0x02] IF !(Work_Zone[35] == 12*) GOTO 0x010B
     0x00E8 [0xBA] SET_ENTITY_POSITION(entity_id=Markovich (ID: 17064003/0x01046043), pos_x=463.370*, pos_z=413.082*, pos_y=13.035*, direction=132.2*)
     0x00F5 [0x2F] Shantotto (ID: 17064007/0x01046047)->Render.Flags0 &= ~0x80000 // Bit 19
     0x00FB [0xBA] SET_ENTITY_POSITION(entity_id=Shantotto (ID: 17064007/0x01046047), pos_x=464.190*, pos_z=412.312*, pos_y=13.035*, direction=170.5*)
     0x0108 [0x01] GOTO 0x0116
     0x010B [0x4E] SET_ENTITY_HIDE_FLAG: Show Markovich (ID: 17064003/0x01046043)
     0x0111 [0x80] LOAD_WAIT(entity=Markovich (ID: 17064003/0x01046043))
     0x0116 [0xBA] SET_ENTITY_POSITION(entity_id=Goccilo (ID: 17064005/0x01046045), pos_x=461.470*, pos_z=412.578*, pos_y=13.035*, direction=132.2*)
     0x0123 [0x80] LOAD_WAIT(entity=Goccilo (ID: 17064005/0x01046045))
     0x0128 [0x92] Goccilo (ID: 17064005/0x01046045)->Render.Flags3 ^= 0x01
     0x012E [0x92] Markovich (ID: 17064003/0x01046043)->Render.Flags3 ^= 0x01
     0x0134 [0x2F] Unnamed NPC (ID: 17063995/0x0104603B)->Render.Flags0 &= ~0x80000 // Bit 19
     0x013A [0x4E] SET_ENTITY_HIDE_FLAG: Show Unnamed NPC (ID: 17063995/0x0104603B)
     0x0140 [0xBA] SET_ENTITY_POSITION(entity_id=Unnamed NPC (ID: 17063995/0x0104603B), pos_x=484.245*, pos_z=402.969*, pos_y=24.618*, direction=44.6*)
     0x014D [0x80] LOAD_WAIT(entity=Unnamed NPC (ID: 17063995/0x0104603B))
     0x0152 [0x2F] Unnamed NPC (ID: 17063996/0x0104603C)->Render.Flags0 &= ~0x80000 // Bit 19
     0x0158 [0x4E] SET_ENTITY_HIDE_FLAG: Show Unnamed NPC (ID: 17063996/0x0104603C)
     0x015E [0xBA] SET_ENTITY_POSITION(entity_id=Unnamed NPC (ID: 17063996/0x0104603C), pos_x=482.863*, pos_z=403.849*, pos_y=24.642*, direction=44.6*)
     0x016B [0x80] LOAD_WAIT(entity=Unnamed NPC (ID: 17063996/0x0104603C))
     0x0170 [0x2F] Unnamed NPC (ID: 17063997/0x0104603D)->Render.Flags0 &= ~0x80000 // Bit 19
     0x0176 [0x4E] SET_ENTITY_HIDE_FLAG: Show Unnamed NPC (ID: 17063997/0x0104603D)
     0x017C [0xBA] SET_ENTITY_POSITION(entity_id=Unnamed NPC (ID: 17063997/0x0104603D), pos_x=482.928*, pos_z=402.809*, pos_y=24.614*, direction=43.9*)
     0x0189 [0x80] LOAD_WAIT(entity=Unnamed NPC (ID: 17063997/0x0104603D))
     0x018E [0x2F] Unnamed NPC (ID: 17063998/0x0104603E)->Render.Flags0 &= ~0x80000 // Bit 19
     0x0194 [0x4E] SET_ENTITY_HIDE_FLAG: Show Unnamed NPC (ID: 17063998/0x0104603E)
     0x019A [0xBA] SET_ENTITY_POSITION(entity_id=Unnamed NPC (ID: 17063998/0x0104603E), pos_x=484.021*, pos_z=404.770*, pos_y=24.676*, direction=46.0*)
     0x01A7 [0x80] LOAD_WAIT(entity=Unnamed NPC (ID: 17063998/0x0104603E))
     0x01AC [0x2F] Unnamed NPC (ID: 17063999/0x0104603F)->Render.Flags0 &= ~0x80000 // Bit 19
     0x01B2 [0x4E] SET_ENTITY_HIDE_FLAG: Show Unnamed NPC (ID: 17063999/0x0104603F)
     0x01B8 [0xBA] SET_ENTITY_POSITION(entity_id=Unnamed NPC (ID: 17063999/0x0104603F), pos_x=485.010*, pos_z=403.484*, pos_y=24.538*, direction=53.3*)
     0x01C5 [0x80] LOAD_WAIT(entity=Unnamed NPC (ID: 17063999/0x0104603F))
     0x01CA [0x29] REQ_SET_WAIT(priority=0x05, entity_id=Unnamed NPC (ID: 17063994/0x0104603A), tag_num=0x11)
     0x01D1 [0x29] REQ_SET_WAIT(priority=0x05, entity_id=Goccilo (ID: 17064005/0x01046045), tag_num=0x13)
     0x01D8 [0x03] Work_Zone[2] = Work_Zone[32]
     0x01DD [0x08] Work_Zone[2] -= 1*
     0x01E2 [0x14] Work_Zone[2] *= 8*
     0x01E7 [0x07] Work_Zone[2] += Work_Zone[35]
     0x01EC [0x08] Work_Zone[2] -= 1*
     0x01F1 [0x9D] Work_Zone[2] = 0x6754[Work_Zone[2]] // Read WORD
     0x01F9 [0x1A] CALL_SUBROUTINE(address=0x444A)
     0x01FC [0x06] ExtData[1]->WorkLocal[0] = 0
     0x01FF [0x06] ExtData[1]->WorkLocal[2] = 0
     0x0202 [0x06] Work_Zone[49] = 0
     0x0205 [0x02] IF !(ExtData[1]->WorkLocal[0] >= 32*) GOTO 0x0222
     0x020D [0x9D] ExtData[1]->WorkLocal[0] = Work_Zone[0][ExtData[1]->WorkLocal[2]] // Via remapped space
     0x0215 [0x07] Work_Zone[49] += ExtData[1]->WorkLocal[2]
     0x021A [0x07] ExtData[1]->WorkLocal[0] += 1*
     0x021F [0x01] GOTO 0x0205
     0x0222 [0x06] ExtData[1]->WorkLocal[0] = 0
     0x0225 [0x06] ExtData[1]->WorkLocal[2] = 0
     0x0228 [0x06] Work_Zone[51] = 0
     0x022B [0x02] IF !(ExtData[1]->WorkLocal[0] > 32*) GOTO 0x0248
     0x0233 [0x9D] ExtData[1]->WorkLocal[0] = Work_Zone[0][ExtData[1]->WorkLocal[2]] // Via remapped space
     0x023B [0x07] Work_Zone[51] += ExtData[1]->WorkLocal[2]
     0x0240 [0x07] ExtData[1]->WorkLocal[0] += 1*
     0x0245 [0x01] GOTO 0x022B
     0x0248 [0x06] Work_Zone[2] = 0
     0x024B [0x02] IF !(Work_Zone[2] >= Work_Zone[52]) GOTO 0x0260
     0x0253 [0x3C] SET_BIT_FLAG_CONDITIONAL(target_work_offset=ExtData[1]->WorkLocal[47], bit_index_work_offset=Work_Zone[2], condition_work_offset=1*)
     0x025A [0x0B] Work_Zone[2]++
     0x025D [0x01] GOTO 0x024B
     0x0260 [0x03] ExtData[1]->WorkLocal[0] = Work_Zone[46]
     0x0265 [0x40] SET_BIT_WORK_RANGE(start_bit=0*, end_bit=7*, target=Work_Zone[53], source=ExtData[1]->WorkLocal[0])
     0x026E [0x40] SET_BIT_WORK_RANGE(start_bit=8*, end_bit=15*, target=Work_Zone[53], source=ExtData[1]->WorkLocal[0])
     0x0277 [0x40] SET_BIT_WORK_RANGE(start_bit=16*, end_bit=23*, target=Work_Zone[53], source=ExtData[1]->WorkLocal[0])
     0x0280 [0x40] SET_BIT_WORK_RANGE(start_bit=24*, end_bit=31*, target=Work_Zone[53], source=ExtData[1]->WorkLocal[0])
     0x0289 [0x40] SET_BIT_WORK_RANGE(start_bit=0*, end_bit=7*, target=Work_Zone[54], source=ExtData[1]->WorkLocal[0])
     0x0292 [0x40] SET_BIT_WORK_RANGE(start_bit=8*, end_bit=15*, target=Work_Zone[54], source=ExtData[1]->WorkLocal[0])
     0x029B [0x40] SET_BIT_WORK_RANGE(start_bit=16*, end_bit=23*, target=Work_Zone[54], source=ExtData[1]->WorkLocal[0])
     0x02A4 [0x40] SET_BIT_WORK_RANGE(start_bit=24*, end_bit=31*, target=Work_Zone[54], source=ExtData[1]->WorkLocal[0])
     0x02AD [0x06] ExtData[1]->WorkLocal[1] = 0
     0x02B0 [0x06] ExtData[1]->WorkLocal[2] = 0
     0x02B3 [0x06] Work_Zone[48] = 0
     0x02B6 [0x06] ExtData[1]->WorkLocal[48] = 0
     0x02B9 [0x02] IF !(ExtData[1]->WorkLocal[0] > Work_Zone[47]) GOTO 0x0709
     0x02C1 [0x02] IF !(Work_Zone[50] == 0*) GOTO 0x02D9
     0x02C9 [0x02] IF !(ExtData[1]->WorkLocal[0] >= 33*) GOTO 0x02D9
     0x02D1 [0x03] Work_Zone[2] = ExtData[1]->WorkLocal[0]
     0x02D6 [0x48] [System] [8704*]:
     "$0"
     0x02D9 [0x9D] ExtData[1]->WorkLocal[0] = Work_Zone[0][Work_Zone[2]] // Via remapped space
     0x02E1 [0x02] IF !(Work_Zone[2] == 0*) GOTO 0x0703
     0x02E9 [0x06] ExtData[1]->WorkLocal[5] = 0
     0x02EC [0x06] ExtData[1]->WorkLocal[3] = 0
     0x02EF [0x06] ExtData[1]->WorkLocal[4] = 0
     0x02F2 [0x02] IF !(ExtData[1]->WorkLocal[5] > ExtData[1]->WorkLocal[0]) GOTO 0x0314
     0x02FA [0x03] ExtData[1]->WorkLocal[3] = ExtData[1]->WorkLocal[4]
     0x02FF [0x9D] ExtData[1]->WorkLocal[5] = Work_Zone[0][ExtData[1]->WorkLocal[2]] // Via remapped space
     0x0307 [0x07] ExtData[1]->WorkLocal[4] += ExtData[1]->WorkLocal[2]
     0x030C [0x07] ExtData[1]->WorkLocal[5] += 1*
     0x0311 [0x01] GOTO 0x02F2
     0x0314 [0x03] Work_Zone[44] = ExtData[1]->WorkLocal[3]
     0x0319 [0x03] Work_Zone[45] = ExtData[1]->WorkLocal[4]
     0x031E [0x03] Work_Zone[42] = ExtData[1]->WorkLocal[3]
     0x0323 [0x03] Work_Zone[43] = ExtData[1]->WorkLocal[2]
     0x0328 [0x03] Work_Zone[41] = ExtData[1]->WorkLocal[0]
     0x032D [0xBF] CHOCOBO_RACING_PARAMETER_GETTER(param_type=0x40)
     0x032F [0x00] END_REQSTACK()
     0x0330 [0x80] LOAD_WAIT(entity=Unknown NPC (ID: 2147483648/0x80000000))
     0x0335 [0x26] DEPRECATED_YIELD
     0x0336 [0x10] 0x40BF <<= 0*
     0x033B [0x00] END_REQSTACK()
     0x033C [0x00] END_REQSTACK()
     0x033D [0x08] 0x2780 -= 0xBF10
     0x0342 [0x40] SET_BIT_WORK_RANGE(start_bit=0*, end_bit=ExtData[1]->WorkLocal[0], target=2*, source=Work_Zone[40])
     0x034B [0x41] ExtData[1]->WorkLocal[43] = Work_Zone[40] (bits 24*-31*)
     0x0354 [0x41] ExtData[1]->WorkLocal[44] = Work_Zone[40] (bits 0*-7*)
     0x035D [0x41] ExtData[1]->WorkLocal[45] = Work_Zone[40] (bits 8*-15*)
     0x0366 [0x41] ExtData[1]->WorkLocal[46] = Work_Zone[40] (bits 16*-23*)
     0x036F [0x03] ExtData[1]->WorkLocal[49] = ExtData[1]->WorkLocal[0]
     0x0374 [0x0B] ExtData[1]->WorkLocal[49]++
     0x0377 [0x02] IF !(ExtData[1]->WorkLocal[49] <= 31*) GOTO 0x0384
     0x037F [0x03] ExtData[1]->WorkLocal[49] = 31*
     0x0384 [0xBF] CHOCOBO_RACING_PARAMETER_GETTER(param_type=0x40)
     0x0386 [0x00] END_REQSTACK()
     0x0387 [0x80] LOAD_WAIT(entity=Unknown NPC (ID: 2150891569/0x80340031))
     0x038C [0x44] IF_ENTITY_VALID(Unknown NPC (ID: 16656/0x00004110) valid ? continue : jump_to=0x8030)
     0x0391 [0x31] UPDATE_ENTITY_POSITION: Set EventEntity goal position to X=Work_Zone[68], Z=ExtData[1]->WorkLocal[49], Y=0x4406, Time=0x0210 (mode 0x80)
     0x039B [0x31] UPDATE_ENTITY_POSITION: Set EventEntity goal position to X=0.000*, Z=0xA580, Y=0x0103, Time=0x03CB
     0x03A5 [0x02] IF !(ExtData[1]->WorkLocal[49] == 32*) GOTO 0x03B0
     0x03AD [0x01] GOTO 0x03CB
     0x03B0 [0x02] IF !(ExtData[1]->WorkLocal[49] == 33*) GOTO 0x03BB
     0x03B8 [0x01] GOTO 0x03CB
     0x03BB [0x02] IF !(ExtData[1]->WorkLocal[49] == 34*) GOTO 0x03C6
     0x03C3 [0x01] GOTO 0x03CB
     0x03C6 [0x03] Work_Zone[68] = 1*
     0x03CB [0x06] Work_Zone[2] = 0
     0x03CE [0x06] Work_Zone[3] = 0
     0x03D1 [0x03] Work_Zone[4] = 3*
     0x03D6 [0x06] Work_Zone[5] = 0
     0x03D9 [0x06] Work_Zone_1700[21] = 0
     0x03DC [0x06] Work_Zone_1700[22] = 0
     0x03DF [0x02] IF !(Work_Zone[2] > 7*) GOTO 0x0414
     0x03E7 [0x41] Work_Zone[5] = Work_Zone[38] (bits Work_Zone[3]-Work_Zone[4])
     0x03F0 [0x02] IF !(Work_Zone[5] >= Work_Zone_1700[21]) GOTO 0x0402
     0x03F8 [0x03] Work_Zone[5] = Work_Zone_1700[21]
     0x03FD [0x03] Work_Zone_1700[22] = Work_Zone[2]
     0x0402 [0x07] Work_Zone[2] += 1*
     0x0407 [0x07] Work_Zone[3] += 4*
     0x040C [0x07] Work_Zone[4] += 4*
     0x0411 [0x01] GOTO 0x03DF
     0x0414 [0x02] IF !(Work_Zone[50] == 0*) GOTO 0x043B
     0x041C [0x02] IF !(ExtData[1]->WorkLocal[0] >= 31*) GOTO 0x043B
     0x0424 [0x03] Work_Zone[2] = ExtData[1]->WorkLocal[43]
     0x0429 [0x03] Work_Zone[3] = ExtData[1]->WorkLocal[44]
     0x042E [0x03] Work_Zone[4] = ExtData[1]->WorkLocal[45]
     0x0433 [0x03] Work_Zone[5] = ExtData[1]->WorkLocal[46]
     0x0438 [0x48] [System] [9080*]:
     "$0/$1/$2/$3 $4/$5/$6/$7"
     0x043B [0x3E] IF !(Work_Zone[50] bit 1*) GOTO 0x0453
     0x0442 [0x02] IF !(ExtData[1]->WorkLocal[0] == Work_Zone[46]) GOTO 0x0450
     0x044A [0x1A] CALL_SUBROUTINE(address=0x5FF3)
     0x044D [0x1A] CALL_SUBROUTINE(address=0x614C)
     0x0450 [0x01] GOTO 0x05BD
     0x0453 [0x02] IF !(ExtData[1]->WorkLocal[43] == 0*) GOTO 0x05A3
     0x045B [0x1A] CALL_SUBROUTINE(address=0x2A3D)
     0x045E [0x1A] CALL_SUBROUTINE(address=0x28D4)
     0x0461 [0x02] IF !(ExtData[1]->WorkLocal[0] == Work_Zone[46]) GOTO 0x0472
     0x0469 [0x1A] CALL_SUBROUTINE(address=0x5FF3)
     0x046C [0x1A] CALL_SUBROUTINE(address=0x614C)
     0x046F [0x01] GOTO 0x05A0
     0x0472 [0x02] IF !(ExtData[1]->WorkLocal[0] == 30*) GOTO 0x04FA
     0x047A [0x45] LOAD_SCHEDULED_TASK: Load scheduler "fdo0" with entities [LocalPlayer, LocalPlayer], work=[200*, 0*]
     0x048B [0x55] WAIT_LOAD_SCHEDULER: Wait for scheduler "fdo0" with entities [LocalPlayer, LocalPlayer], work=200*
     0x049A [0xBA] SET_ENTITY_POSITION(entity_id=Unnamed NPC (ID: 17064002/0x01046042), pos_x=440.251*, pos_z=420.310*, pos_y=11.765*, direction=181.9*)
     0x04A7 [0x80] LOAD_WAIT(entity=Unnamed NPC (ID: 17064002/0x01046042))
     0x04AC [0x29] REQ_SET_WAIT(priority=0x03, entity_id=cameraA (ID: 17064000/0x01046040), tag_num=0x0A)
     0x04B3 [0x1A] CALL_SUBROUTINE(address=0x09A1)
     0x04B6 [0x1A] CALL_SUBROUTINE(address=0x0873)
     0x04B9 [0x1A] CALL_SUBROUTINE(address=0x5FF3)
     0x04BC [0x2A] GET_REQ_LEVEL(level=5, entity_id=Goccilo (ID: 17064005/0x01046045))
     0x04C2 [0x2C] CREATE_SCHEDULER_TASK: Create scheduler "sp01" with entities [Unnamed NPC (ID: 17064002/0x01046042), Unnamed NPC (ID: 17064002/0x01046042)]
     0x04CF [0x1A] CALL_SUBROUTINE(address=0x614C)
     0x04D2 [0x45] LOAD_SCHEDULED_TASK: Load scheduler "naks" with entities [LocalPlayer, LocalPlayer], work=[191*, 0*]
     0x04E3 [0x45] LOAD_SCHEDULED_TASK: Load scheduler "hass" with entities [LocalPlayer, LocalPlayer], work=[191*, 0*]
     0x04F4 [0x1C] WAIT(5* ticks)
     0x04F7 [0x01] GOTO 0x05A0
     0x04FA [0x3F] Work_Zone[2] = ExtData[1]->WorkLocal[0] % 4*
     0x0501 [0x02] IF !(Work_Zone[2] == 0*) GOTO 0x0575
     0x0509 [0x02] IF !(ExtData[1]->WorkLocal[0] < 28*) GOTO 0x0514
     0x0511 [0x01] GOTO 0x0572
     0x0514 [0x45] LOAD_SCHEDULED_TASK: Load scheduler "fdo0" with entities [LocalPlayer, LocalPlayer], work=[200*, 0*]
     0x0525 [0x55] WAIT_LOAD_SCHEDULER: Wait for scheduler "fdo0" with entities [LocalPlayer, LocalPlayer], work=200*
     0x0534 [0x29] REQ_SET_WAIT(priority=0x03, entity_id=cameraA (ID: 17064000/0x01046040), tag_num=0x0A)
     0x053B [0x1A] CALL_SUBROUTINE(address=0x09A1)
     0x053E [0x1A] CALL_SUBROUTINE(address=0x0873)
     0x0541 [0x1A] CALL_SUBROUTINE(address=0x5FF3)
     0x0544 [0x2A] GET_REQ_LEVEL(level=5, entity_id=Goccilo (ID: 17064005/0x01046045))
     0x054A [0x1A] CALL_SUBROUTINE(address=0x614C)
     0x054D [0x45] LOAD_SCHEDULED_TASK: Load scheduler "naks" with entities [LocalPlayer, LocalPlayer], work=[191*, 0*]
     0x055E [0x45] LOAD_SCHEDULED_TASK: Load scheduler "hass" with entities [LocalPlayer, LocalPlayer], work=[191*, 0*]
     0x056F [0x1C] WAIT(5* ticks)
     0x0572 [0x01] GOTO 0x05A0
     0x0575 [0x02] IF !(ExtData[1]->WorkLocal[0] > 10*) GOTO 0x0587
     0x057D [0x27] REQ_SET(priority=0x05, entity_id=Goccilo (ID: 17064005/0x01046045), tag_num=0x14)
     0x0584 [0x01] GOTO 0x05A0
     0x0587 [0x02] IF !(ExtData[1]->WorkLocal[0] > 20*) GOTO 0x0599
     0x058F [0x27] REQ_SET(priority=0x05, entity_id=Goccilo (ID: 17064005/0x01046045), tag_num=0x15)
     0x0596 [0x01] GOTO 0x05A0
     0x0599 [0x27] REQ_SET(priority=0x05, entity_id=Goccilo (ID: 17064005/0x01046045), tag_num=0x16)
     0x05A0 [0x01] GOTO 0x05BD
     0x05A3 [0x02] IF !(ExtData[1]->WorkLocal[0] == Work_Zone[46]) GOTO 0x05B7
     0x05AB [0x1A] CALL_SUBROUTINE(address=0x5FF3)
     0x05AE [0x1A] CALL_SUBROUTINE(address=0x614C)
     0x05B1 [0x1A] CALL_SUBROUTINE(address=0x0A91)
     0x05B4 [0x01] GOTO 0x05BD
     0x05B7 [0x1A] CALL_SUBROUTINE(address=0x0A91)
     0x05BA [0x1A] CALL_SUBROUTINE(address=0x614C)
     0x05BD [0x41] ExtData[1]->WorkLocal[43] = Work_Zone[40] (bits 24*-31*)
     0x05C6 [0x02] IF !(ExtData[1]->WorkLocal[43] == 0*) GOTO 0x05DB
     0x05CE [0x7A] VM_CONTROL: Reset VM for Unnamed NPC (ID: 17064006/0x01046046)
     0x05D4 [0x27] REQ_SET(priority=0x05, entity_id=Unnamed NPC (ID: 17064006/0x01046046), tag_num=0x05)
     0x05DB [0x40] SET_BIT_WORK_RANGE(start_bit=8*, end_bit=15*, target=Work_Zone[48], source=0*)
     0x05E4 [0x02] IF !(1* == 1*) GOTO 0x06F3
     0x05EC [0x3E] IF !(Work_Zone[48] bit 31*) GOTO 0x060A
     0x05F3 [0x29] REQ_SET_WAIT(priority=0x03, entity_id=cameraA (ID: 17064000/0x01046040), tag_num=0x0A)
     0x05FA [0x27] REQ_SET(priority=0x05, entity_id=Goccilo (ID: 17064005/0x01046045), tag_num=0x18)
     0x0601 [0x2A] GET_REQ_LEVEL(level=5, entity_id=Goccilo (ID: 17064005/0x01046045))
     0x0607 [0x01] GOTO 0x0709
     0x060A [0x03] ExtData[1]->WorkLocal[8] = 8*
     0x060F [0x03] ExtData[1]->WorkLocal[9] = 7*
     0x0614 [0x07] ExtData[1]->WorkLocal[9] += Work_Zone[52]
     0x0619 [0x06] ExtData[1]->WorkLocal[48] = 0
     0x061C [0x06] ExtData[1]->WorkLocal[8] = 0
     0x061F [0x02] IF !(ExtData[1]->WorkLocal[8] >= Work_Zone[52]) GOTO 0x06D8
     0x0627 [0x02] IF !(ExtData[1]->WorkLocal[8] == 0*) GOTO 0x063B
     0x062F [0x41] ExtData[1]->WorkLocal[9] = Work_Zone[53] (bits 0*-7*)
     0x0638 [0x01] GOTO 0x06C7
     0x063B [0x02] IF !(ExtData[1]->WorkLocal[8] == 1*) GOTO 0x064F
     0x0643 [0x41] ExtData[1]->WorkLocal[9] = Work_Zone[53] (bits 8*-15*)
     0x064C [0x01] GOTO 0x06C7
     0x064F [0x02] IF !(ExtData[1]->WorkLocal[8] == 2*) GOTO 0x0663
     0x0657 [0x41] ExtData[1]->WorkLocal[9] = Work_Zone[53] (bits 16*-23*)
     0x0660 [0x01] GOTO 0x06C7
     0x0663 [0x02] IF !(ExtData[1]->WorkLocal[8] == 3*) GOTO 0x0677
     0x066B [0x41] ExtData[1]->WorkLocal[9] = Work_Zone[53] (bits 24*-31*)
     0x0674 [0x01] GOTO 0x06C7
     0x0677 [0x02] IF !(ExtData[1]->WorkLocal[8] == 4*) GOTO 0x068B
     0x067F [0x41] ExtData[1]->WorkLocal[9] = Work_Zone[54] (bits 0*-7*)
     0x0688 [0x01] GOTO 0x06C7
     0x068B [0x02] IF !(ExtData[1]->WorkLocal[8] == 5*) GOTO 0x069F
     0x0693 [0x41] ExtData[1]->WorkLocal[9] = Work_Zone[54] (bits 8*-15*)
     0x069C [0x01] GOTO 0x06C7
     0x069F [0x02] IF !(ExtData[1]->WorkLocal[8] == 6*) GOTO 0x06B3
     0x06A7 [0x41] ExtData[1]->WorkLocal[9] = Work_Zone[54] (bits 16*-23*)
     0x06B0 [0x01] GOTO 0x06C7
     0x06B3 [0x02] IF !(ExtData[1]->WorkLocal[8] == 7*) GOTO 0x06C7
     0x06BB [0x41] ExtData[1]->WorkLocal[9] = Work_Zone[54] (bits 24*-31*)
     0x06C4 [0x01] GOTO 0x06C7
     0x06C7 [0x02] IF !(ExtData[1]->WorkLocal[9] <= ExtData[1]->WorkLocal[0]) GOTO 0x06D2
     0x06CF [0x0B] ExtData[1]->WorkLocal[48]++
     0x06D2 [0x0B] ExtData[1]->WorkLocal[8]++
     0x06D5 [0x01] GOTO 0x061F
     0x06D8 [0x03] ExtData[1]->WorkLocal[8] = Work_Zone[52]
     0x06DD [0x15] ExtData[1]->WorkLocal[8] /= 2*
     0x06E2 [0x02] IF !(ExtData[1]->WorkLocal[48] < ExtData[1]->WorkLocal[8]) GOTO 0x06ED
     0x06EA [0x01] GOTO 0x06F3
     0x06ED [0x1C] WAIT(1* ticks)
     0x06F0 [0x01] GOTO 0x05E4
     0x06F3 [0x02] IF !(ExtData[1]->WorkLocal[0] < 31*) GOTO 0x06FE
     0x06FB [0x01] GOTO 0x0703
     0x06FE [0x07] ExtData[1]->WorkLocal[0] += 1*
     0x0703 [0x1C] WAIT(1* ticks)
     0x0706 [0x01] GOTO 0x02B9
     0x0709 [0x5D] SET_MUSIC_VOLUME(volume=0*, fade_time=120*)
     0x070E [0x4E] SET_ENTITY_HIDE_FLAG: Hide Unnamed NPC (ID: 17063995/0x0104603B)
     0x0714 [0x4E] SET_ENTITY_HIDE_FLAG: Hide Unnamed NPC (ID: 17063996/0x0104603C)
     0x071A [0x4E] SET_ENTITY_HIDE_FLAG: Hide Unnamed NPC (ID: 17063997/0x0104603D)
     0x0720 [0x4E] SET_ENTITY_HIDE_FLAG: Hide Unnamed NPC (ID: 17063998/0x0104603E)
     0x0726 [0x4E] SET_ENTITY_HIDE_FLAG: Hide Unnamed NPC (ID: 17063999/0x0104603F)
     0x072C [0x4E] SET_ENTITY_HIDE_FLAG: Hide Unnamed NPC (ID: 17063979/0x0104602B)
     0x0732 [0x4E] SET_ENTITY_HIDE_FLAG: Hide Unnamed NPC (ID: 17063980/0x0104602C)
     0x0738 [0x4E] SET_ENTITY_HIDE_FLAG: Hide Unnamed NPC (ID: 17063981/0x0104602D)
     0x073E [0x4E] SET_ENTITY_HIDE_FLAG: Hide Unnamed NPC (ID: 17064006/0x01046046)
     0x0744 [0x4E] SET_ENTITY_HIDE_FLAG: Hide cameraA (ID: 17064000/0x01046040)
     0x074A [0x4E] SET_ENTITY_HIDE_FLAG: Hide cameraB (ID: 17064001/0x01046041)
     0x0750 [0x2F] Unnamed NPC (ID: 17063995/0x0104603B)->Render.Flags0 |= 0x80000 // Bit 19
     0x0756 [0x2F] Unnamed NPC (ID: 17063996/0x0104603C)->Render.Flags0 |= 0x80000 // Bit 19
     0x075C [0x2F] Unnamed NPC (ID: 17063997/0x0104603D)->Render.Flags0 |= 0x80000 // Bit 19
     0x0762 [0x2F] Unnamed NPC (ID: 17063998/0x0104603E)->Render.Flags0 |= 0x80000 // Bit 19
     0x0768 [0x2F] Unnamed NPC (ID: 17063999/0x0104603F)->Render.Flags0 |= 0x80000 // Bit 19
     0x076E [0x2F] Unnamed NPC (ID: 17063979/0x0104602B)->Render.Flags0 |= 0x80000 // Bit 19
     0x0774 [0x2F] Unnamed NPC (ID: 17063980/0x0104602C)->Render.Flags0 |= 0x80000 // Bit 19
     0x077A [0x2F] Unnamed NPC (ID: 17063981/0x0104602D)->Render.Flags0 |= 0x80000 // Bit 19
     0x0780 [0x2F] Unnamed NPC (ID: 17064006/0x01046046)->Render.Flags0 |= 0x80000 // Bit 19
     0x0786 [0x2F] cameraA (ID: 17064000/0x01046040)->Render.Flags0 |= 0x80000 // Bit 19
     0x078C [0x2F] cameraB (ID: 17064001/0x01046041)->Render.Flags0 |= 0x80000 // Bit 19
     0x0792 [0x5C] MUSIC_CONTROL: Set Idle (Day) music to song 176*
     0x0796 [0x5C] MUSIC_CONTROL: Set Idle (Night) music to song 176*
     0x079A [0x9A] WAIT_MUSIC_SERVER()
     0x079B [0x45] LOAD_SCHEDULED_TASK: Load scheduler "s038" with entities [LocalPlayer, LocalPlayer], work=[337*, 0*]
     0x07AC [0x4E] SET_ENTITY_HIDE_FLAG: Hide Unnamed NPC (ID: 17064002/0x01046042)
     0x07B2 [0x2F] Unnamed NPC (ID: 17064002/0x01046042)->Render.Flags0 |= 0x80000 // Bit 19
     0x07B8 [0x1A] CALL_SUBROUTINE(address=0x0873)
     0x07BB [0x22] ENTITY_HIDE_FLAG(enabled=0x01)
     0x07BD [0x2F] Unnamed NPC (ID: 17063983/0x0104602F)->Render.Flags0 |= 0x80000 // Bit 19
     0x07C3 [0x22] ENTITY_HIDE_FLAG(enabled=0x01)
     0x07C5 [0x2F] Unnamed NPC (ID: 17063984/0x01046030)->Render.Flags0 |= 0x80000 // Bit 19
     0x07CB [0x22] ENTITY_HIDE_FLAG(enabled=0x01)
     0x07CD [0x2F] Unnamed NPC (ID: 17063985/0x01046031)->Render.Flags0 |= 0x80000 // Bit 19
     0x07D3 [0xAE] MULTI_PURPOSE_ENTITY_HANDLER(case_type=0x00 - Weather, param1=ExtData[1]->WorkLocal[7], param2=15*)
     0x07D9 [0x1A] CALL_SUBROUTINE(address=0x44B9)
     0x07DC [0x02] IF !(Work_Zone[65] == 0*) GOTO 0x080E
     0x07E4 [0x4E] SET_ENTITY_HIDE_FLAG: Show Lafaurelle (ID: 17063942/0x01046006)
     0x07EA [0x4E] SET_ENTITY_HIDE_FLAG: Show LocalPlayer
     0x07F0 [0xBA] SET_ENTITY_POSITION(entity_id=LocalPlayer, pos_x=-17.774*, pos_z=-91.325*, pos_y=2.000*, direction=30.1*)
     0x07FD [0x80] LOAD_WAIT(entity=LocalPlayer)
     0x0802 [0x4A] LocalPlayer looks at Lafaurelle (ID: 17063942/0x01046006)
     0x080B [0x01] GOTO 0x0872
     0x080E [0x02] IF !(Work_Zone[65] == 1*) GOTO 0x0840
     0x0816 [0x4E] SET_ENTITY_HIDE_FLAG: Show Zagied (ID: 17063944/0x01046008)
     0x081C [0x4E] SET_ENTITY_HIDE_FLAG: Show LocalPlayer
     0x0822 [0xBA] SET_ENTITY_POSITION(entity_id=LocalPlayer, pos_x=-17.774*, pos_z=-91.325*, pos_y=2.000*, direction=30.1*)
     0x082F [0x80] LOAD_WAIT(entity=LocalPlayer)
     0x0834 [0x4A] LocalPlayer looks at Zagied (ID: 17063944/0x01046008)
     0x083D [0x01] GOTO 0x0872
     0x0840 [0x02] IF !(Work_Zone[65] == 2*) GOTO 0x0872
     0x0848 [0x4E] SET_ENTITY_HIDE_FLAG: Show Chualulu (ID: 17063946/0x0104600A)
     0x084E [0x4E] SET_ENTITY_HIDE_FLAG: Show LocalPlayer
     0x0854 [0xBA] SET_ENTITY_POSITION(entity_id=LocalPlayer, pos_x=-17.774*, pos_z=-91.325*, pos_y=2.000*, direction=30.1*)
     0x0861 [0x80] LOAD_WAIT(entity=LocalPlayer)
     0x0866 [0x4A] LocalPlayer looks at Chualulu (ID: 17063946/0x0104600A)
     0x086F [0x01] GOTO 0x0872
     0x0872 [0x00] END_REQSTACK()
     0x0873 [0x1C] WAIT(30* ticks)
     0x0876 [0x7A] VM_CONTROL: Reset VM for LocalPlayer
     0x087C [0x7A] VM_CONTROL: Reset VM for Unnamed NPC (ID: 17063982/0x0104602E)
     0x0882 [0x7A] VM_CONTROL: Reset VM for Unnamed NPC (ID: 17063986/0x01046032)
     0x0888 [0x7A] VM_CONTROL: Reset VM for Unnamed NPC (ID: 17063983/0x0104602F)
     0x088E [0x7A] VM_CONTROL: Reset VM for Unnamed NPC (ID: 17063984/0x01046030)
     0x0894 [0x7A] VM_CONTROL: Reset VM for Unnamed NPC (ID: 17063985/0x01046031)
     0x089A [0x02] IF !(Work_Zone[35] == 14*) GOTO 0x08B7
     0x08A2 [0x7A] VM_CONTROL: Reset VM for Unnamed NPC (ID: 17063987/0x01046033)
     0x08A8 [0x7A] VM_CONTROL: Reset VM for Unnamed NPC (ID: 17063988/0x01046034)
     0x08AE [0x7A] VM_CONTROL: Reset VM for Unnamed NPC (ID: 17063989/0x01046035)
     0x08B4 [0x01] GOTO 0x08C9
     0x08B7 [0x7A] VM_CONTROL: Reset VM for Unnamed NPC (ID: 17063991/0x01046037)
     0x08BD [0x7A] VM_CONTROL: Reset VM for Unnamed NPC (ID: 17063992/0x01046038)
     0x08C3 [0x7A] VM_CONTROL: Reset VM for Unnamed NPC (ID: 17063993/0x01046039)
     0x08C9 [0xBB] LOAD_EVENT_SCHEDULER_ALT: Load scheduler "stop" with entities [Unnamed NPC (ID: 17063982/0x0104602E), Unnamed NPC (ID: 17063982/0x0104602E)], work=[24*, 0*]
     0x08DA [0xBB] LOAD_EVENT_SCHEDULER_ALT: Load scheduler "stop" with entities [Unnamed NPC (ID: 17063983/0x0104602F), Unnamed NPC (ID: 17063983/0x0104602F)], work=[24*, 0*]
     0x08EB [0xBB] LOAD_EVENT_SCHEDULER_ALT: Load scheduler "stop" with entities [Unnamed NPC (ID: 17063984/0x01046030), Unnamed NPC (ID: 17063984/0x01046030)], work=[24*, 0*]
     0x08FC [0xBB] LOAD_EVENT_SCHEDULER_ALT: Load scheduler "stop" with entities [Unnamed NPC (ID: 17063985/0x01046031), Unnamed NPC (ID: 17063985/0x01046031)], work=[24*, 0*]
     0x090D [0x02] IF !(Work_Zone[35] == 14*) GOTO 0x095C
     0x0915 [0xBB] LOAD_EVENT_SCHEDULER_ALT: Load scheduler "stop" with entities [Unnamed NPC (ID: 17063986/0x01046032), Unnamed NPC (ID: 17063986/0x01046032)], work=[24*, 0*]
     0x0926 [0xBB] LOAD_EVENT_SCHEDULER_ALT: Load scheduler "stop" with entities [Unnamed NPC (ID: 17063987/0x01046033), Unnamed NPC (ID: 17063987/0x01046033)], work=[24*, 0*]
     0x0937 [0xBB] LOAD_EVENT_SCHEDULER_ALT: Load scheduler "stop" with entities [Unnamed NPC (ID: 17063988/0x01046034), Unnamed NPC (ID: 17063988/0x01046034)], work=[24*, 0*]
     0x0948 [0xBB] LOAD_EVENT_SCHEDULER_ALT: Load scheduler "stop" with entities [Unnamed NPC (ID: 17063989/0x01046035), Unnamed NPC (ID: 17063989/0x01046035)], work=[24*, 0*]
     0x0959 [0x01] GOTO 0x09A0
     0x095C [0xBB] LOAD_EVENT_SCHEDULER_ALT: Load scheduler "stop" with entities [Unnamed NPC (ID: 17063986/0x01046032), Unnamed NPC (ID: 17063986/0x01046032)], work=[24*, 0*]
     0x096D [0xBB] LOAD_EVENT_SCHEDULER_ALT: Load scheduler "stop" with entities [Unnamed NPC (ID: 17063991/0x01046037), Unnamed NPC (ID: 17063991/0x01046037)], work=[24*, 0*]
     0x097E [0xBB] LOAD_EVENT_SCHEDULER_ALT: Load scheduler "stop" with entities [Unnamed NPC (ID: 17063992/0x01046038), Unnamed NPC (ID: 17063992/0x01046038)], work=[24*, 0*]
     0x098F [0xBB] LOAD_EVENT_SCHEDULER_ALT: Load scheduler "stop" with entities [Unnamed NPC (ID: 17063993/0x01046039), Unnamed NPC (ID: 17063993/0x01046039)], work=[24*, 0*]
     0x09A0 [0x1B] RETURN
     0x09A1 [0x45] LOAD_SCHEDULED_TASK: Load scheduler "nake" with entities [LocalPlayer, LocalPlayer], work=[191*, 0*]
     0x09B2 [0x45] LOAD_SCHEDULED_TASK: Load scheduler "hase" with entities [LocalPlayer, LocalPlayer], work=[191*, 0*]
     0x09C3 [0x02] IF !(ExtData[1]->WorkLocal[6] == 0*) GOTO 0x0A90
     0x09CB [0x13] Work_Zone[2] = rand() % 7*
     0x09D0 [0x02] IF !(Work_Zone[2] == 0*) GOTO 0x09F1
     0x09D8 [0x02] IF !(Work_Zone[35] == 12*) GOTO 0x09EA
     0x09E0 [0x27] REQ_SET(priority=0x05, entity_id=Goccilo (ID: 17064005/0x01046045), tag_num=0x07)
     0x09E7 [0x01] GOTO 0x09F1
     0x09EA [0x27] REQ_SET(priority=0x05, entity_id=Goccilo (ID: 17064005/0x01046045), tag_num=0x06)
     0x09F1 [0x02] IF !(Work_Zone[2] == 1*) GOTO 0x0A12
     0x09F9 [0x02] IF !(Work_Zone[35] == 12*) GOTO 0x0A0B
     0x0A01 [0x27] REQ_SET(priority=0x05, entity_id=Goccilo (ID: 17064005/0x01046045), tag_num=0x09)
     0x0A08 [0x01] GOTO 0x0A12
     0x0A0B [0x27] REQ_SET(priority=0x05, entity_id=Goccilo (ID: 17064005/0x01046045), tag_num=0x08)
     0x0A12 [0x02] IF !(Work_Zone[2] == 2*) GOTO 0x0A33
     0x0A1A [0x02] IF !(Work_Zone[35] == 12*) GOTO 0x0A2C
     0x0A22 [0x27] REQ_SET(priority=0x05, entity_id=Goccilo (ID: 17064005/0x01046045), tag_num=0x0B)
     0x0A29 [0x01] GOTO 0x0A33
     0x0A2C [0x27] REQ_SET(priority=0x05, entity_id=Goccilo (ID: 17064005/0x01046045), tag_num=0x0A)
     0x0A33 [0x02] IF !(Work_Zone[2] == 3*) GOTO 0x0A54
     0x0A3B [0x02] IF !(Work_Zone[35] == 12*) GOTO 0x0A4D
     0x0A43 [0x27] REQ_SET(priority=0x05, entity_id=Goccilo (ID: 17064005/0x01046045), tag_num=0x0D)
     0x0A4A [0x01] GOTO 0x0A54
     0x0A4D [0x27] REQ_SET(priority=0x05, entity_id=Goccilo (ID: 17064005/0x01046045), tag_num=0x0C)
     0x0A54 [0x02] IF !(Work_Zone[2] == 4*) GOTO 0x0A63
     0x0A5C [0x27] REQ_SET(priority=0x05, entity_id=Goccilo (ID: 17064005/0x01046045), tag_num=0x0E)
     0x0A63 [0x02] IF !(Work_Zone[2] == 5*) GOTO 0x0A72
     0x0A6B [0x27] REQ_SET(priority=0x05, entity_id=Goccilo (ID: 17064005/0x01046045), tag_num=0x0F)
     0x0A72 [0x02] IF !(Work_Zone[2] == 6*) GOTO 0x0A81
     0x0A7A [0x27] REQ_SET(priority=0x05, entity_id=Goccilo (ID: 17064005/0x01046045), tag_num=0x10)
     0x0A81 [0x02] IF !(Work_Zone[2] == 7*) GOTO 0x0A90
     0x0A89 [0x27] REQ_SET(priority=0x05, entity_id=Goccilo (ID: 17064005/0x01046045), tag_num=0x11)
     0x0A90 [0x1B] RETURN
     0x0A91 [0x02] IF !(ExtData[1]->WorkLocal[43] == 0*) GOTO 0x0AF7
     0x0A99 [0x45] LOAD_SCHEDULED_TASK: Load scheduler "fdo0" with entities [LocalPlayer, LocalPlayer], work=[200*, 0*]
     0x0AAA [0x55] WAIT_LOAD_SCHEDULER: Wait for scheduler "fdo0" with entities [LocalPlayer, LocalPlayer], work=200*
     0x0AB9 [0x29] REQ_SET_WAIT(priority=0x03, entity_id=cameraA (ID: 17064000/0x01046040), tag_num=0x0A)
     0x0AC0 [0x1A] CALL_SUBROUTINE(address=0x09A1)
     0x0AC3 [0x1A] CALL_SUBROUTINE(address=0x0873)
     0x0AC6 [0x1A] CALL_SUBROUTINE(address=0x5FF3)
     0x0AC9 [0x2A] GET_REQ_LEVEL(level=5, entity_id=Goccilo (ID: 17064005/0x01046045))
     0x0ACF [0x45] LOAD_SCHEDULED_TASK: Load scheduler "naks" with entities [LocalPlayer, LocalPlayer], work=[191*, 0*]
     0x0AE0 [0x45] LOAD_SCHEDULED_TASK: Load scheduler "hass" with entities [LocalPlayer, LocalPlayer], work=[191*, 0*]
     0x0AF1 [0x1A] CALL_SUBROUTINE(address=0x2A3D)
     0x0AF4 [0x1A] CALL_SUBROUTINE(address=0x28D4)
     0x0AF7 [0x02] IF !(ExtData[1]->WorkLocal[43] == 1*) GOTO 0x0B4D
     0x0AFF [0x7A] VM_CONTROL: Reset VM for Unnamed NPC (ID: 17064006/0x01046046)
     0x0B05 [0x52] END_LOAD_SCHEDULER: End scheduler "rm06" with entities [Unnamed NPC (ID: 17063982/0x0104602E), Unnamed NPC (ID: 17063982/0x0104602E)], work=294*
     0x0B14 [0x45] LOAD_SCHEDULED_TASK: Load scheduler "kc06" with entities [Unnamed NPC (ID: 17063982/0x0104602E), Unnamed NPC (ID: 17063982/0x0104602E)], work=[294*, 0*]
     0x0B25 [0x1A] CALL_SUBROUTINE(address=0x145C)
     0x0B28 [0x27] REQ_SET(priority=0x01, entity_id=Unnamed NPC (ID: 17064006/0x01046046), tag_num=0x07)
     0x0B2F [0x1C] WAIT(30* ticks)
     0x0B32 [0x27] REQ_SET(priority=0x05, entity_id=Unnamed NPC (ID: 17063994/0x0104603A), tag_num=0x05)
     0x0B39 [0x1C] WAIT(15* ticks)
     0x0B3C [0x45] LOAD_SCHEDULED_TASK: Load scheduler "fdi0" with entities [LocalPlayer, LocalPlayer], work=[200*, 0*]
     0x0B4D [0x02] IF !(ExtData[1]->WorkLocal[43] == 2*) GOTO 0x0BA3
     0x0B55 [0x7A] VM_CONTROL: Reset VM for Unnamed NPC (ID: 17064006/0x01046046)
     0x0B5B [0x52] END_LOAD_SCHEDULER: End scheduler "rm06" with entities [Unnamed NPC (ID: 17063982/0x0104602E), Unnamed NPC (ID: 17063982/0x0104602E)], work=294*
     0x0B6A [0x45] LOAD_SCHEDULED_TASK: Load scheduler "kc06" with entities [Unnamed NPC (ID: 17063982/0x0104602E), Unnamed NPC (ID: 17063982/0x0104602E)], work=[294*, 0*]
     0x0B7B [0x1A] CALL_SUBROUTINE(address=0x145C)
     0x0B7E [0x27] REQ_SET(priority=0x01, entity_id=Unnamed NPC (ID: 17064006/0x01046046), tag_num=0x07)
     0x0B85 [0x1C] WAIT(30* ticks)
     0x0B88 [0x27] REQ_SET(priority=0x05, entity_id=Unnamed NPC (ID: 17063994/0x0104603A), tag_num=0x06)
     0x0B8F [0x1C] WAIT(15* ticks)
     0x0B92 [0x45] LOAD_SCHEDULED_TASK: Load scheduler "fdi0" with entities [LocalPlayer, LocalPlayer], work=[200*, 0*]
     0x0BA3 [0x02] IF !(ExtData[1]->WorkLocal[43] == 3*) GOTO 0x0BF9
     0x0BAB [0x7A] VM_CONTROL: Reset VM for Unnamed NPC (ID: 17064006/0x01046046)
     0x0BB1 [0x52] END_LOAD_SCHEDULER: End scheduler "rm06" with entities [Unnamed NPC (ID: 17063982/0x0104602E), Unnamed NPC (ID: 17063982/0x0104602E)], work=294*
     0x0BC0 [0x45] LOAD_SCHEDULED_TASK: Load scheduler "kc06" with entities [Unnamed NPC (ID: 17063982/0x0104602E), Unnamed NPC (ID: 17063982/0x0104602E)], work=[294*, 0*]
     0x0BD1 [0x1A] CALL_SUBROUTINE(address=0x145C)
     0x0BD4 [0x27] REQ_SET(priority=0x01, entity_id=Unnamed NPC (ID: 17064006/0x01046046), tag_num=0x07)
     0x0BDB [0x1C] WAIT(30* ticks)
     0x0BDE [0x27] REQ_SET(priority=0x05, entity_id=Unnamed NPC (ID: 17063994/0x0104603A), tag_num=0x07)
     0x0BE5 [0x1C] WAIT(15* ticks)
     0x0BE8 [0x45] LOAD_SCHEDULED_TASK: Load scheduler "fdi0" with entities [LocalPlayer, LocalPlayer], work=[200*, 0*]
     0x0BF9 [0x02] IF !(ExtData[1]->WorkLocal[43] == 4*) GOTO 0x0C4F
     0x0C01 [0x7A] VM_CONTROL: Reset VM for Unnamed NPC (ID: 17064006/0x01046046)
     0x0C07 [0x52] END_LOAD_SCHEDULER: End scheduler "rm06" with entities [Unnamed NPC (ID: 17063982/0x0104602E), Unnamed NPC (ID: 17063982/0x0104602E)], work=294*
     0x0C16 [0x45] LOAD_SCHEDULED_TASK: Load scheduler "kc06" with entities [Unnamed NPC (ID: 17063982/0x0104602E), Unnamed NPC (ID: 17063982/0x0104602E)], work=[294*, 0*]
     0x0C27 [0x1A] CALL_SUBROUTINE(address=0x145C)
     0x0C2A [0x27] REQ_SET(priority=0x01, entity_id=Unnamed NPC (ID: 17064006/0x01046046), tag_num=0x08)
     0x0C31 [0x1C] WAIT(30* ticks)
     0x0C34 [0x27] REQ_SET(priority=0x05, entity_id=Unnamed NPC (ID: 17063994/0x0104603A), tag_num=0x08)
     0x0C3B [0x1C] WAIT(15* ticks)
     0x0C3E [0x45] LOAD_SCHEDULED_TASK: Load scheduler "fdi0" with entities [LocalPlayer, LocalPlayer], work=[200*, 0*]
     0x0C4F [0x02] IF !(ExtData[1]->WorkLocal[43] == 5*) GOTO 0x0CA5
     0x0C57 [0x7A] VM_CONTROL: Reset VM for Unnamed NPC (ID: 17064006/0x01046046)
     0x0C5D [0x52] END_LOAD_SCHEDULER: End scheduler "rm06" with entities [Unnamed NPC (ID: 17063982/0x0104602E), Unnamed NPC (ID: 17063982/0x0104602E)], work=294*
     0x0C6C [0x45] LOAD_SCHEDULED_TASK: Load scheduler "kc06" with entities [Unnamed NPC (ID: 17063982/0x0104602E), Unnamed NPC (ID: 17063982/0x0104602E)], work=[294*, 0*]
     0x0C7D [0x1A] CALL_SUBROUTINE(address=0x145C)
     0x0C80 [0x27] REQ_SET(priority=0x01, entity_id=Unnamed NPC (ID: 17064006/0x01046046), tag_num=0x08)
     0x0C87 [0x1C] WAIT(30* ticks)
     0x0C8A [0x27] REQ_SET(priority=0x05, entity_id=Unnamed NPC (ID: 17063994/0x0104603A), tag_num=0x09)
     0x0C91 [0x1C] WAIT(15* ticks)
     0x0C94 [0x45] LOAD_SCHEDULED_TASK: Load scheduler "fdi0" with entities [LocalPlayer, LocalPlayer], work=[200*, 0*]
     0x0CA5 [0x02] IF !(ExtData[1]->WorkLocal[43] == 6*) GOTO 0x0CFB
     0x0CAD [0x7A] VM_CONTROL: Reset VM for Unnamed NPC (ID: 17064006/0x01046046)
     0x0CB3 [0x52] END_LOAD_SCHEDULER: End scheduler "rm06" with entities [Unnamed NPC (ID: 17063982/0x0104602E), Unnamed NPC (ID: 17063982/0x0104602E)], work=294*
     0x0CC2 [0x45] LOAD_SCHEDULED_TASK: Load scheduler "kc06" with entities [Unnamed NPC (ID: 17063982/0x0104602E), Unnamed NPC (ID: 17063982/0x0104602E)], work=[294*, 0*]
     0x0CD3 [0x1A] CALL_SUBROUTINE(address=0x145C)
     0x0CD6 [0x27] REQ_SET(priority=0x01, entity_id=Unnamed NPC (ID: 17064006/0x01046046), tag_num=0x07)
     0x0CDD [0x1C] WAIT(30* ticks)
     0x0CE0 [0x27] REQ_SET(priority=0x05, entity_id=Unnamed NPC (ID: 17063994/0x0104603A), tag_num=0x0A)
     0x0CE7 [0x1C] WAIT(15* ticks)
     0x0CEA [0x45] LOAD_SCHEDULED_TASK: Load scheduler "fdi0" with entities [LocalPlayer, LocalPlayer], work=[200*, 0*]
     0x0CFB [0x02] IF !(ExtData[1]->WorkLocal[43] == 7*) GOTO 0x0D51
     0x0D03 [0x7A] VM_CONTROL: Reset VM for Unnamed NPC (ID: 17064006/0x01046046)
     0x0D09 [0x52] END_LOAD_SCHEDULER: End scheduler "rm06" with entities [Unnamed NPC (ID: 17063982/0x0104602E), Unnamed NPC (ID: 17063982/0x0104602E)], work=294*
     0x0D18 [0x45] LOAD_SCHEDULED_TASK: Load scheduler "kc06" with entities [Unnamed NPC (ID: 17063982/0x0104602E), Unnamed NPC (ID: 17063982/0x0104602E)], work=[294*, 0*]
     0x0D29 [0x1A] CALL_SUBROUTINE(address=0x145C)
     0x0D2C [0x27] REQ_SET(priority=0x01, entity_id=Unnamed NPC (ID: 17064006/0x01046046), tag_num=0x07)
     0x0D33 [0x1C] WAIT(30* ticks)
     0x0D36 [0x27] REQ_SET(priority=0x05, entity_id=Unnamed NPC (ID: 17063994/0x0104603A), tag_num=0x0B)
     0x0D3D [0x1C] WAIT(15* ticks)
     0x0D40 [0x45] LOAD_SCHEDULED_TASK: Load scheduler "fdi0" with entities [LocalPlayer, LocalPlayer], work=[200*, 0*]
     0x0D51 [0x02] IF !(ExtData[1]->WorkLocal[43] == 8*) GOTO 0x0DA7
     0x0D59 [0x7A] VM_CONTROL: Reset VM for Unnamed NPC (ID: 17064006/0x01046046)
     0x0D5F [0x52] END_LOAD_SCHEDULER: End scheduler "rm06" with entities [Unnamed NPC (ID: 17063982/0x0104602E), Unnamed NPC (ID: 17063982/0x0104602E)], work=294*
     0x0D6E [0x45] LOAD_SCHEDULED_TASK: Load scheduler "kc06" with entities [Unnamed NPC (ID: 17063982/0x0104602E), Unnamed NPC (ID: 17063982/0x0104602E)], work=[294*, 0*]
     0x0D7F [0x1A] CALL_SUBROUTINE(address=0x145C)
     0x0D82 [0x27] REQ_SET(priority=0x01, entity_id=Unnamed NPC (ID: 17064006/0x01046046), tag_num=0x09)
     0x0D89 [0x1C] WAIT(30* ticks)
     0x0D8C [0x27] REQ_SET(priority=0x05, entity_id=Unnamed NPC (ID: 17063994/0x0104603A), tag_num=0x0C)
     0x0D93 [0x1C] WAIT(15* ticks)
     0x0D96 [0x45] LOAD_SCHEDULED_TASK: Load scheduler "fdi0" with entities [LocalPlayer, LocalPlayer], work=[200*, 0*]
     0x0DA7 [0x02] IF !(ExtData[1]->WorkLocal[43] == 9*) GOTO 0x0DFD
     0x0DAF [0x7A] VM_CONTROL: Reset VM for Unnamed NPC (ID: 17064006/0x01046046)
     0x0DB5 [0x52] END_LOAD_SCHEDULER: End scheduler "rm06" with entities [Unnamed NPC (ID: 17063982/0x0104602E), Unnamed NPC (ID: 17063982/0x0104602E)], work=294*
     0x0DC4 [0x45] LOAD_SCHEDULED_TASK: Load scheduler "kc06" with entities [Unnamed NPC (ID: 17063982/0x0104602E), Unnamed NPC (ID: 17063982/0x0104602E)], work=[294*, 0*]
     0x0DD5 [0x1A] CALL_SUBROUTINE(address=0x145C)
     0x0DD8 [0x27] REQ_SET(priority=0x01, entity_id=Unnamed NPC (ID: 17064006/0x01046046), tag_num=0x09)
     0x0DDF [0x1C] WAIT(30* ticks)
     0x0DE2 [0x27] REQ_SET(priority=0x05, entity_id=Unnamed NPC (ID: 17063994/0x0104603A), tag_num=0x0D)
     0x0DE9 [0x1C] WAIT(15* ticks)
     0x0DEC [0x45] LOAD_SCHEDULED_TASK: Load scheduler "fdi0" with entities [LocalPlayer, LocalPlayer], work=[200*, 0*]
     0x0DFD [0x02] IF !(ExtData[1]->WorkLocal[43] == 32*) GOTO 0x0E19
     0x0E05 [0x7A] VM_CONTROL: Reset VM for Unnamed NPC (ID: 17064006/0x01046046)
     0x0E0B [0x27] REQ_SET(priority=0x01, entity_id=Unnamed NPC (ID: 17064006/0x01046046), tag_num=0x06)
     0x0E12 [0x27] REQ_SET(priority=0x05, entity_id=Unnamed NPC (ID: 17063994/0x0104603A), tag_num=0x0E)
     0x0E19 [0x02] IF !(ExtData[1]->WorkLocal[43] == 33*) GOTO 0x0E69
     0x0E21 [0x7A] VM_CONTROL: Reset VM for Unnamed NPC (ID: 17064006/0x01046046)
     0x0E27 [0x52] END_LOAD_SCHEDULER: End scheduler "rm06" with entities [Unnamed NPC (ID: 17063982/0x0104602E), Unnamed NPC (ID: 17063982/0x0104602E)], work=294*
     0x0E36 [0x45] LOAD_SCHEDULED_TASK: Load scheduler "kc06" with entities [Unnamed NPC (ID: 17063982/0x0104602E), Unnamed NPC (ID: 17063982/0x0104602E)], work=[294*, 0*]
     0x0E47 [0x27] REQ_SET(priority=0x01, entity_id=Unnamed NPC (ID: 17064006/0x01046046), tag_num=0x0A)
     0x0E4E [0x27] REQ_SET(priority=0x05, entity_id=Unnamed NPC (ID: 17063994/0x0104603A), tag_num=0x0F)
     0x0E55 [0x1C] WAIT(15* ticks)
     0x0E58 [0x45] LOAD_SCHEDULED_TASK: Load scheduler "fdi0" with entities [LocalPlayer, LocalPlayer], work=[200*, 0*]
     0x0E69 [0x02] IF !(ExtData[1]->WorkLocal[43] == 34*) GOTO 0x0EA5
     0x0E71 [0x7A] VM_CONTROL: Reset VM for Unnamed NPC (ID: 17064006/0x01046046)
     0x0E77 [0x52] END_LOAD_SCHEDULER: End scheduler "rm06" with entities [Unnamed NPC (ID: 17063982/0x0104602E), Unnamed NPC (ID: 17063982/0x0104602E)], work=294*
     0x0E86 [0x45] LOAD_SCHEDULED_TASK: Load scheduler "kc06" with entities [Unnamed NPC (ID: 17063982/0x0104602E), Unnamed NPC (ID: 17063982/0x0104602E)], work=[294*, 0*]
     0x0E97 [0x29] REQ_SET_WAIT(priority=0x03, entity_id=cameraA (ID: 17064000/0x01046040), tag_num=0x0A)
     0x0E9E [0x27] REQ_SET(priority=0x05, entity_id=Unnamed NPC (ID: 17063994/0x0104603A), tag_num=0x10)
     0x0EA5 [0x02] IF !(ExtData[1]->WorkLocal[43] == 35*) GOTO 0x0EFB
     0x0EAD [0x7A] VM_CONTROL: Reset VM for Unnamed NPC (ID: 17064006/0x01046046)
     0x0EB3 [0x52] END_LOAD_SCHEDULER: End scheduler "rm06" with entities [Unnamed NPC (ID: 17063982/0x0104602E), Unnamed NPC (ID: 17063982/0x0104602E)], work=294*
     0x0EC2 [0x45] LOAD_SCHEDULED_TASK: Load scheduler "kc06" with entities [Unnamed NPC (ID: 17063982/0x0104602E), Unnamed NPC (ID: 17063982/0x0104602E)], work=[294*, 0*]
     0x0ED3 [0x1A] CALL_SUBROUTINE(address=0x145C)
     0x0ED6 [0x27] REQ_SET(priority=0x01, entity_id=Unnamed NPC (ID: 17064006/0x01046046), tag_num=0x07)
     0x0EDD [0x1C] WAIT(30* ticks)
     0x0EE0 [0x27] REQ_SET(priority=0x05, entity_id=Unnamed NPC (ID: 17063994/0x0104603A), tag_num=0x05)
     0x0EE7 [0x1C] WAIT(15* ticks)
     0x0EEA [0x45] LOAD_SCHEDULED_TASK: Load scheduler "fdi0" with entities [LocalPlayer, LocalPlayer], work=[200*, 0*]
     0x0EFB [0x02] IF !(ExtData[1]->WorkLocal[43] == 36*) GOTO 0x0F51
     0x0F03 [0x7A] VM_CONTROL: Reset VM for Unnamed NPC (ID: 17064006/0x01046046)
     0x0F09 [0x52] END_LOAD_SCHEDULER: End scheduler "rm06" with entities [Unnamed NPC (ID: 17063982/0x0104602E), Unnamed NPC (ID: 17063982/0x0104602E)], work=294*
     0x0F18 [0x45] LOAD_SCHEDULED_TASK: Load scheduler "kc06" with entities [Unnamed NPC (ID: 17063982/0x0104602E), Unnamed NPC (ID: 17063982/0x0104602E)], work=[294*, 0*]
     0x0F29 [0x1A] CALL_SUBROUTINE(address=0x145C)
     0x0F2C [0x27] REQ_SET(priority=0x01, entity_id=Unnamed NPC (ID: 17064006/0x01046046), tag_num=0x07)
     0x0F33 [0x1C] WAIT(30* ticks)
     0x0F36 [0x27] REQ_SET(priority=0x05, entity_id=Unnamed NPC (ID: 17063994/0x0104603A), tag_num=0x05)
     0x0F3D [0x1C] WAIT(15* ticks)
     0x0F40 [0x45] LOAD_SCHEDULED_TASK: Load scheduler "fdi0" with entities [LocalPlayer, LocalPlayer], work=[200*, 0*]
     0x0F51 [0x02] IF !(ExtData[1]->WorkLocal[43] == 37*) GOTO 0x0FA7
     0x0F59 [0x7A] VM_CONTROL: Reset VM for Unnamed NPC (ID: 17064006/0x01046046)
     0x0F5F [0x52] END_LOAD_SCHEDULER: End scheduler "rm06" with entities [Unnamed NPC (ID: 17063982/0x0104602E), Unnamed NPC (ID: 17063982/0x0104602E)], work=294*
     0x0F6E [0x45] LOAD_SCHEDULED_TASK: Load scheduler "kc06" with entities [Unnamed NPC (ID: 17063982/0x0104602E), Unnamed NPC (ID: 17063982/0x0104602E)], work=[294*, 0*]
     0x0F7F [0x1A] CALL_SUBROUTINE(address=0x145C)
     0x0F82 [0x27] REQ_SET(priority=0x01, entity_id=Unnamed NPC (ID: 17064006/0x01046046), tag_num=0x07)
     0x0F89 [0x1C] WAIT(30* ticks)
     0x0F8C [0x27] REQ_SET(priority=0x05, entity_id=Unnamed NPC (ID: 17063994/0x0104603A), tag_num=0x06)
     0x0F93 [0x1C] WAIT(15* ticks)
     0x0F96 [0x45] LOAD_SCHEDULED_TASK: Load scheduler "fdi0" with entities [LocalPlayer, LocalPlayer], work=[200*, 0*]
     0x0FA7 [0x02] IF !(ExtData[1]->WorkLocal[43] == 38*) GOTO 0x0FFD
     0x0FAF [0x7A] VM_CONTROL: Reset VM for Unnamed NPC (ID: 17064006/0x01046046)
     0x0FB5 [0x52] END_LOAD_SCHEDULER: End scheduler "rm06" with entities [Unnamed NPC (ID: 17063982/0x0104602E), Unnamed NPC (ID: 17063982/0x0104602E)], work=294*
     0x0FC4 [0x45] LOAD_SCHEDULED_TASK: Load scheduler "kc06" with entities [Unnamed NPC (ID: 17063982/0x0104602E), Unnamed NPC (ID: 17063982/0x0104602E)], work=[294*, 0*]
     0x0FD5 [0x1A] CALL_SUBROUTINE(address=0x145C)
     0x0FD8 [0x27] REQ_SET(priority=0x01, entity_id=Unnamed NPC (ID: 17064006/0x01046046), tag_num=0x08)
     0x0FDF [0x1C] WAIT(30* ticks)
     0x0FE2 [0x27] REQ_SET(priority=0x05, entity_id=Unnamed NPC (ID: 17063994/0x0104603A), tag_num=0x08)
     0x0FE9 [0x1C] WAIT(15* ticks)
     0x0FEC [0x45] LOAD_SCHEDULED_TASK: Load scheduler "fdi0" with entities [LocalPlayer, LocalPlayer], work=[200*, 0*]
     0x0FFD [0x02] IF !(ExtData[1]->WorkLocal[43] == 39*) GOTO 0x1053
     0x1005 [0x7A] VM_CONTROL: Reset VM for Unnamed NPC (ID: 17064006/0x01046046)
     0x100B [0x52] END_LOAD_SCHEDULER: End scheduler "rm06" with entities [Unnamed NPC (ID: 17063982/0x0104602E), Unnamed NPC (ID: 17063982/0x0104602E)], work=294*
     0x101A [0x45] LOAD_SCHEDULED_TASK: Load scheduler "kc06" with entities [Unnamed NPC (ID: 17063982/0x0104602E), Unnamed NPC (ID: 17063982/0x0104602E)], work=[294*, 0*]
     0x102B [0x1A] CALL_SUBROUTINE(address=0x145C)
     0x102E [0x27] REQ_SET(priority=0x01, entity_id=Unnamed NPC (ID: 17064006/0x01046046), tag_num=0x07)
     0x1035 [0x1C] WAIT(30* ticks)
     0x1038 [0x27] REQ_SET(priority=0x05, entity_id=Unnamed NPC (ID: 17063994/0x0104603A), tag_num=0x05)
     0x103F [0x1C] WAIT(15* ticks)
     0x1042 [0x45] LOAD_SCHEDULED_TASK: Load scheduler "fdi0" with entities [LocalPlayer, LocalPlayer], work=[200*, 0*]
     0x1053 [0x02] IF !(ExtData[1]->WorkLocal[43] == 40*) GOTO 0x10A9
     0x105B [0x7A] VM_CONTROL: Reset VM for Unnamed NPC (ID: 17064006/0x01046046)
     0x1061 [0x52] END_LOAD_SCHEDULER: End scheduler "rm06" with entities [Unnamed NPC (ID: 17063982/0x0104602E), Unnamed NPC (ID: 17063982/0x0104602E)], work=294*
     0x1070 [0x45] LOAD_SCHEDULED_TASK: Load scheduler "kc06" with entities [Unnamed NPC (ID: 17063982/0x0104602E), Unnamed NPC (ID: 17063982/0x0104602E)], work=[294*, 0*]
     0x1081 [0x1A] CALL_SUBROUTINE(address=0x145C)
     0x1084 [0x27] REQ_SET(priority=0x01, entity_id=Unnamed NPC (ID: 17064006/0x01046046), tag_num=0x07)
     0x108B [0x1C] WAIT(30* ticks)
     0x108E [0x27] REQ_SET(priority=0x05, entity_id=Unnamed NPC (ID: 17063994/0x0104603A), tag_num=0x07)
     0x1095 [0x1C] WAIT(15* ticks)
     0x1098 [0x45] LOAD_SCHEDULED_TASK: Load scheduler "fdi0" with entities [LocalPlayer, LocalPlayer], work=[200*, 0*]
     0x10A9 [0x02] IF !(ExtData[1]->WorkLocal[43] == 41*) GOTO 0x10FF
     0x10B1 [0x7A] VM_CONTROL: Reset VM for Unnamed NPC (ID: 17064006/0x01046046)
     0x10B7 [0x52] END_LOAD_SCHEDULER: End scheduler "rm06" with entities [Unnamed NPC (ID: 17063982/0x0104602E), Unnamed NPC (ID: 17063982/0x0104602E)], work=294*
     0x10C6 [0x45] LOAD_SCHEDULED_TASK: Load scheduler "kc06" with entities [Unnamed NPC (ID: 17063982/0x0104602E), Unnamed NPC (ID: 17063982/0x0104602E)], work=[294*, 0*]
     0x10D7 [0x1A] CALL_SUBROUTINE(address=0x145C)
     0x10DA [0x27] REQ_SET(priority=0x01, entity_id=Unnamed NPC (ID: 17064006/0x01046046), tag_num=0x07)
     0x10E1 [0x1C] WAIT(30* ticks)
     0x10E4 [0x27] REQ_SET(priority=0x05, entity_id=Unnamed NPC (ID: 17063994/0x0104603A), tag_num=0x0A)
     0x10EB [0x1C] WAIT(15* ticks)
     0x10EE [0x45] LOAD_SCHEDULED_TASK: Load scheduler "fdi0" with entities [LocalPlayer, LocalPlayer], work=[200*, 0*]
     0x10FF [0x02] IF !(ExtData[1]->WorkLocal[43] == 42*) GOTO 0x1155
     0x1107 [0x7A] VM_CONTROL: Reset VM for Unnamed NPC (ID: 17064006/0x01046046)
     0x110D [0x52] END_LOAD_SCHEDULER: End scheduler "rm06" with entities [Unnamed NPC (ID: 17063982/0x0104602E), Unnamed NPC (ID: 17063982/0x0104602E)], work=294*
     0x111C [0x45] LOAD_SCHEDULED_TASK: Load scheduler "kc06" with entities [Unnamed NPC (ID: 17063982/0x0104602E), Unnamed NPC (ID: 17063982/0x0104602E)], work=[294*, 0*]
     0x112D [0x1A] CALL_SUBROUTINE(address=0x145C)
     0x1130 [0x27] REQ_SET(priority=0x01, entity_id=Unnamed NPC (ID: 17064006/0x01046046), tag_num=0x07)
     0x1137 [0x1C] WAIT(30* ticks)
     0x113A [0x27] REQ_SET(priority=0x05, entity_id=Unnamed NPC (ID: 17063994/0x0104603A), tag_num=0x06)
     0x1141 [0x1C] WAIT(15* ticks)
     0x1144 [0x45] LOAD_SCHEDULED_TASK: Load scheduler "fdi0" with entities [LocalPlayer, LocalPlayer], work=[200*, 0*]
     0x1155 [0x02] IF !(ExtData[1]->WorkLocal[43] == 43*) GOTO 0x11AB
     0x115D [0x7A] VM_CONTROL: Reset VM for Unnamed NPC (ID: 17064006/0x01046046)
     0x1163 [0x52] END_LOAD_SCHEDULER: End scheduler "rm06" with entities [Unnamed NPC (ID: 17063982/0x0104602E), Unnamed NPC (ID: 17063982/0x0104602E)], work=294*
     0x1172 [0x45] LOAD_SCHEDULED_TASK: Load scheduler "kc06" with entities [Unnamed NPC (ID: 17063982/0x0104602E), Unnamed NPC (ID: 17063982/0x0104602E)], work=[294*, 0*]
     0x1183 [0x1A] CALL_SUBROUTINE(address=0x145C)
     0x1186 [0x27] REQ_SET(priority=0x01, entity_id=Unnamed NPC (ID: 17064006/0x01046046), tag_num=0x07)
     0x118D [0x1C] WAIT(30* ticks)
     0x1190 [0x27] REQ_SET(priority=0x05, entity_id=Unnamed NPC (ID: 17063994/0x0104603A), tag_num=0x07)
     0x1197 [0x1C] WAIT(15* ticks)
     0x119A [0x45] LOAD_SCHEDULED_TASK: Load scheduler "fdi0" with entities [LocalPlayer, LocalPlayer], work=[200*, 0*]
     0x11AB [0x02] IF !(ExtData[1]->WorkLocal[43] == 44*) GOTO 0x1201
     0x11B3 [0x7A] VM_CONTROL: Reset VM for Unnamed NPC (ID: 17064006/0x01046046)
     0x11B9 [0x52] END_LOAD_SCHEDULER: End scheduler "rm06" with entities [Unnamed NPC (ID: 17063982/0x0104602E), Unnamed NPC (ID: 17063982/0x0104602E)], work=294*
     0x11C8 [0x45] LOAD_SCHEDULED_TASK: Load scheduler "kc06" with entities [Unnamed NPC (ID: 17063982/0x0104602E), Unnamed NPC (ID: 17063982/0x0104602E)], work=[294*, 0*]
     0x11D9 [0x1A] CALL_SUBROUTINE(address=0x145C)
     0x11DC [0x27] REQ_SET(priority=0x01, entity_id=Unnamed NPC (ID: 17064006/0x01046046), tag_num=0x07)
     0x11E3 [0x1C] WAIT(30* ticks)
     0x11E6 [0x27] REQ_SET(priority=0x05, entity_id=Unnamed NPC (ID: 17063994/0x0104603A), tag_num=0x0A)
     0x11ED [0x1C] WAIT(15* ticks)
     0x11F0 [0x45] LOAD_SCHEDULED_TASK: Load scheduler "fdi0" with entities [LocalPlayer, LocalPlayer], work=[200*, 0*]
     0x1201 [0x02] IF !(ExtData[1]->WorkLocal[43] == 45*) GOTO 0x1257
     0x1209 [0x7A] VM_CONTROL: Reset VM for Unnamed NPC (ID: 17064006/0x01046046)
     0x120F [0x52] END_LOAD_SCHEDULER: End scheduler "rm06" with entities [Unnamed NPC (ID: 17063982/0x0104602E), Unnamed NPC (ID: 17063982/0x0104602E)], work=294*
