# 17064009

## Common Data

| Field            | Value                    |
|------------------|--------------------------|
| Zone             | Chocobo Circuit (ID: 70) |
| Block Size       | 2536 bytes               |
| Total Events     | 12                       |
| References Count | 42                       |

## List of Events

| Event ID                 | Entrypoint   |   Size |   Instructions |
|--------------------------|--------------|--------|----------------|
| [65535](#event-65535)    | 0x0000       |      1 |              1 |
| [473](#event-473)        | 0x0001       |      1 |              1 |
| [482](#event-482)        | 0x0002       |      1 |              1 |
| [491](#event-491)        | 0x0003       |      1 |              1 |
| [479](#event-479)        | 0x0004       |      1 |              1 |
| [488](#event-488)        | 0x0005       |      1 |              1 |
| [497](#event-497)        | 0x0006       |      1 |              1 |
| [65535.1](#event-655351) | 0x0007       |      1 |              1 |
| [65535.2](#event-655352) | 0x0008       |     15 |              2 |
| [65535.3](#event-655353) | 0x0017       |    107 |             22 |
| [65535.4](#event-655354) | 0x0082       |    194 |             27 |
| [65535.5](#event-655355) | 0x0144       |   1979 |            376 |

## DAT References (imed_data)

|   Index | Hex Value   |   Dec Value |
|---------|-------------|-------------|
|       0 | 0x0001      |           1 |
|       1 | 0x0000      |           0 |
|       2 | 0x0002      |           2 |
|       3 | 0x001C      |          28 |
|       4 | 0x001E      |          30 |
|       5 | 0x0019      |          25 |
|       6 | 0x001B      |          27 |
|       7 | 0x0010      |          16 |
|       8 | 0x0008      |           8 |
|       9 | 0x0028      |          40 |
|      10 | 0xBAFE      |       47870 |
|      11 | 0xFFF49E7F  |  4294221439 |
|      12 | 0x0DAC      |        3500 |
|      13 | 0x0E83      |        3715 |
|      14 | 0x0003      |           3 |
|      15 | 0x0004      |           4 |
|      16 | 0xBF99      |       49049 |
|      17 | 0xFFF48A7A  |  4294216314 |
|      18 | 0x0DAB      |        3499 |
|      19 | 0x00DC      |         220 |
|      20 | 0x0009      |           9 |
|      21 | 0xAA37      |       43575 |
|      22 | 0xFFF48AF4  |  4294216436 |
|      23 | 0x0E5D      |        3677 |
|      24 | 0x003C      |          60 |
|      25 | 0x0005      |           5 |
|      26 | 0xD705      |       55045 |
|      27 | 0xFFF4848E  |  4294214798 |
|      28 | 0x0C28      |        3112 |
|      29 | 0x0078      |         120 |
|      30 | 0x0006      |           6 |
|      31 | 0x0007      |           7 |
|      32 | 0x000D      |          13 |
|      33 | 0x00F0      |         240 |
|      34 | 0x00B4      |         180 |
|      35 | 0xAFF9      |       45049 |
|      36 | 0x1193      |        4499 |
|      37 | 0xBBB1      |       48049 |
|      38 | 0xC061      |       49249 |
|      39 | 0x0A8B      |        2699 |
|      40 | 0xBAE9      |       47849 |
|      41 | 0x10CB      |        4299 |

## Events

### Event 65535

#### Metadata

| Field        | Value   |
|--------------|---------|
| Entrypoint   | 0x0000  |
| Data Size    | 1 bytes |
| Instructions | 1       |

```
      00 01 02 03 04 05 06 07  08 09 0A 0B 0C 0D 0E 0F
      -- -- -- -- -- -- -- --  -- -- -- -- -- -- -- --
0000: 00                                                .               
```

#### Opcodes

```
  0: 0x0000 [0x00] END_REQSTACK()
```

### Event 473

#### Metadata

| Field        | Value   |
|--------------|---------|
| Entrypoint   | 0x0001  |
| Data Size    | 1 bytes |
| Instructions | 1       |

```
      00 01 02 03 04 05 06 07  08 09 0A 0B 0C 0D 0E 0F
      -- -- -- -- -- -- -- --  -- -- -- -- -- -- -- --
0000:    00                                              .              
```

#### Opcodes

```
  0: 0x0001 [0x00] END_REQSTACK()
```

### Event 482

#### Metadata

| Field        | Value   |
|--------------|---------|
| Entrypoint   | 0x0002  |
| Data Size    | 1 bytes |
| Instructions | 1       |

```
      00 01 02 03 04 05 06 07  08 09 0A 0B 0C 0D 0E 0F
      -- -- -- -- -- -- -- --  -- -- -- -- -- -- -- --
0000:       00                                            .             
```

#### Opcodes

```
  0: 0x0002 [0x00] END_REQSTACK()
```

### Event 491

#### Metadata

| Field        | Value   |
|--------------|---------|
| Entrypoint   | 0x0003  |
| Data Size    | 1 bytes |
| Instructions | 1       |

```
      00 01 02 03 04 05 06 07  08 09 0A 0B 0C 0D 0E 0F
      -- -- -- -- -- -- -- --  -- -- -- -- -- -- -- --
0000:          00                                          .            
```

#### Opcodes

```
  0: 0x0003 [0x00] END_REQSTACK()
```

### Event 479

#### Metadata

| Field        | Value   |
|--------------|---------|
| Entrypoint   | 0x0004  |
| Data Size    | 1 bytes |
| Instructions | 1       |

```
      00 01 02 03 04 05 06 07  08 09 0A 0B 0C 0D 0E 0F
      -- -- -- -- -- -- -- --  -- -- -- -- -- -- -- --
0000:             00                                        .           
```

#### Opcodes

```
  0: 0x0004 [0x00] END_REQSTACK()
```

### Event 488

#### Metadata

| Field        | Value   |
|--------------|---------|
| Entrypoint   | 0x0005  |
| Data Size    | 1 bytes |
| Instructions | 1       |

```
      00 01 02 03 04 05 06 07  08 09 0A 0B 0C 0D 0E 0F
      -- -- -- -- -- -- -- --  -- -- -- -- -- -- -- --
0000:                00                                      .          
```

#### Opcodes

```
  0: 0x0005 [0x00] END_REQSTACK()
```

### Event 497

#### Metadata

| Field        | Value   |
|--------------|---------|
| Entrypoint   | 0x0006  |
| Data Size    | 1 bytes |
| Instructions | 1       |

```
      00 01 02 03 04 05 06 07  08 09 0A 0B 0C 0D 0E 0F
      -- -- -- -- -- -- -- --  -- -- -- -- -- -- -- --
0000:                   00                                    .         
```

#### Opcodes

```
  0: 0x0006 [0x00] END_REQSTACK()
```

### Event 65535.1

#### Metadata

| Field        | Value   |
|--------------|---------|
| Entrypoint   | 0x0007  |
| Data Size    | 1 bytes |
| Instructions | 1       |

```
      00 01 02 03 04 05 06 07  08 09 0A 0B 0C 0D 0E 0F
      -- -- -- -- -- -- -- --  -- -- -- -- -- -- -- --
0000:                      00                                  .        
```

#### Opcodes

```
  0: 0x0007 [0x00] END_REQSTACK()
```

### Event 65535.2

#### Metadata

| Field        | Value    |
|--------------|----------|
| Entrypoint   | 0x0008   |
| Data Size    | 15 bytes |
| Instructions | 2        |

```
      00 01 02 03 04 05 06 07  08 09 0A 0B 0C 0D 0E 0F
      -- -- -- -- -- -- -- --  -- -- -- -- -- -- -- --
0000:                          B6 0D 02 10 03 10 00 80          ........
0010: 04 10 05 10 06 10 00                              .......         
```

#### Opcodes

```
  0: 0x0008 [0xB6] ENTITY_APPEARANCE_HANDLER(case=Look with Render flags, race=Work_Zone[2], face=Work_Zone[3], head=1*, body=Work_Zone[4], hands=Work_Zone[5], render_flags=0x1006)
  1: 0x0016 [0x00] END_REQSTACK()
```

### Event 65535.3

#### Metadata

| Field        | Value     |
|--------------|-----------|
| Entrypoint   | 0x0017    |
| Data Size    | 107 bytes |
| Instructions | 2         |

```
      00 01 02 03 04 05 06 07  08 09 0A 0B 0C 0D 0E 0F
      -- -- -- -- -- -- -- --  -- -- -- -- -- -- -- --
0010:                      BF  20 01 80 01 80 02 80 00         . .......
0020: 00 41 03 80 04 80 00 00  01 00 41 05 80 06 80 00  .A........A.....
0030: 00 02 00 BF 20 01 80 01  80 00 80 00 00 3E 00 00  .... ........>..
0040: 07 80 4C 00 03 03 00 00  80 01 4F 00 06 03 00 3E  ..L.......O....>
0050: 00 00 01 80 5E 00 03 04  00 00 80 01 61 00 06 04  ....^.......a...
0060: 00 3E 00 00 08 80 70 00  03 05 00 00 80 01 73 00  .>....p.......s.
0070: 06 04 00 B6 0D 01 00 02  00 01 80 03 00 04 00 05  ................
0080: 00 00                                             ..              
```

#### Opcodes

```
  0: 0x0017 [0xBF] CHOCOBO_RACING_PARAMETER_GETTER(param_type=0x20)
  1: 0x0019 [0x01] GOTO 0x0180
```

#### Data or dead code:

```
# Dead code (unreachable instructions):
     0x001C [0x80] LOAD_WAIT(entity=Unknown NPC (ID: 32770/0x00008002))
     0x0021 [0x41] ExtData[1]->WorkLocal[1] = ExtData[1]->WorkLocal[0] (bits 28*-30*)
     0x002A [0x41] ExtData[1]->WorkLocal[2] = ExtData[1]->WorkLocal[0] (bits 25*-27*)
     0x0033 [0xBF] CHOCOBO_RACING_PARAMETER_GETTER(param_type=0x20)
     0x0035 [0x01] GOTO 0x0180
     0x0038 [0x80] LOAD_WAIT(entity=Unknown NPC (ID: 32768/0x00008000))
     0x003D [0x3E] IF !(ExtData[1]->WorkLocal[0] bit 16*) GOTO 0x004C
     0x0044 [0x03] ExtData[1]->WorkLocal[3] = 1*
     0x0049 [0x01] GOTO 0x004F
     0x004C [0x06] ExtData[1]->WorkLocal[3] = 0
     0x004F [0x3E] IF !(ExtData[1]->WorkLocal[0] bit 0*) GOTO 0x005E
     0x0056 [0x03] ExtData[1]->WorkLocal[4] = 1*
     0x005B [0x01] GOTO 0x0061
     0x005E [0x06] ExtData[1]->WorkLocal[4] = 0
     0x0061 [0x3E] IF !(ExtData[1]->WorkLocal[0] bit 8*) GOTO 0x0070
     0x0068 [0x03] ExtData[1]->WorkLocal[5] = 1*
     0x006D [0x01] GOTO 0x0073
     0x0070 [0x06] ExtData[1]->WorkLocal[4] = 0
     0x0073 [0xB6] ENTITY_APPEARANCE_HANDLER(case=Look with Render flags, race=ExtData[1]->WorkLocal[1], face=ExtData[1]->WorkLocal[2], head=0*, body=ExtData[1]->WorkLocal[3], hands=ExtData[1]->WorkLocal[4], render_flags=0x0005)
     0x0081 [0x00] END_REQSTACK()
```

### Event 65535.4

#### Metadata

| Field        | Value     |
|--------------|-----------|
| Entrypoint   | 0x0082    |
| Data Size    | 194 bytes |
| Instructions | 27        |

```
      00 01 02 03 04 05 06 07  08 09 0A 0B 0C 0D 0E 0F
      -- -- -- -- -- -- -- --  -- -- -- -- -- -- -- --
0080:       02 38 10 01 80 80  A6 00 32 09 80 37 0A 80    .8......2..7..
0090: 0B 80 0C 80 0D 80 BA 40  60 04 01 0A 80 0B 80 0C  .......@`.......
00A0: 80 0D 80 01 36 01 02 38  10 00 80 80 CA 00 32 09  ....6..8......2.
00B0: 80 37 0A 80 0B 80 0C 80  0D 80 BA 40 60 04 01 0A  .7.........@`...
00C0: 80 0B 80 0C 80 0D 80 01  36 01 02 38 10 02 80 80  ........6..8....
00D0: EE 00 32 09 80 37 0A 80  0B 80 0C 80 0D 80 BA 40  ..2..7.........@
00E0: 60 04 01 0A 80 0B 80 0C  80 0D 80 01 36 01 02 38  `...........6..8
00F0: 10 0E 80 80 12 01 32 09  80 37 0A 80 0B 80 0C 80  ......2..7......
0100: 0D 80 BA 40 60 04 01 0A  80 0B 80 0C 80 0D 80 01  ...@`...........
0110: 36 01 02 38 10 0F 80 80  36 01 32 09 80 37 0A 80  6..8....6.2..7..
0120: 0B 80 0C 80 0D 80 BA 40  60 04 01 0A 80 0B 80 0C  .......@`.......
0130: 80 0D 80 01 36 01 BA F0  FF FF 7F 0A 80 0B 80 0C  ....6...........
0140: 80 0D 80 00                                       ....            
```

#### Opcodes

```
  0: 0x0082 [0x02] IF !(Work_Zone[56] == 0*) GOTO 0x00A6
  1: 0x008A [0x32] ExtData[1]->MainSpeed = 40* * 0.1
  2: 0x008D [0x37] UPDATE_EVENT_POSITION_AND_DIR: x=47.870*, z=-745.857*, y=3.500*, direction=326.5°*
  3: 0x0096 [0xBA] SET_ENTITY_POSITION(entity_id=cameraA (ID: 17064000/0x01046040), pos_x=47.870*, pos_z=-745.857*, pos_y=3.500*, direction=326.5°*)
  4: 0x00A3 [0x01] GOTO 0x0136
  5: 0x00A6 [0x02] IF !(Work_Zone[56] == 1*) GOTO 0x00CA
  6: 0x00AE [0x32] ExtData[1]->MainSpeed = 40* * 0.1
  7: 0x00B1 [0x37] UPDATE_EVENT_POSITION_AND_DIR: x=47.870*, z=-745.857*, y=3.500*, direction=326.5°*
  8: 0x00BA [0xBA] SET_ENTITY_POSITION(entity_id=cameraA (ID: 17064000/0x01046040), pos_x=47.870*, pos_z=-745.857*, pos_y=3.500*, direction=326.5°*)
  9: 0x00C7 [0x01] GOTO 0x0136
 10: 0x00CA [0x02] IF !(Work_Zone[56] == 2*) GOTO 0x00EE
 11: 0x00D2 [0x32] ExtData[1]->MainSpeed = 40* * 0.1
 12: 0x00D5 [0x37] UPDATE_EVENT_POSITION_AND_DIR: x=47.870*, z=-745.857*, y=3.500*, direction=326.5°*
 13: 0x00DE [0xBA] SET_ENTITY_POSITION(entity_id=cameraA (ID: 17064000/0x01046040), pos_x=47.870*, pos_z=-745.857*, pos_y=3.500*, direction=326.5°*)
 14: 0x00EB [0x01] GOTO 0x0136
 15: 0x00EE [0x02] IF !(Work_Zone[56] == 3*) GOTO 0x0112
 16: 0x00F6 [0x32] ExtData[1]->MainSpeed = 40* * 0.1
 17: 0x00F9 [0x37] UPDATE_EVENT_POSITION_AND_DIR: x=47.870*, z=-745.857*, y=3.500*, direction=326.5°*
 18: 0x0102 [0xBA] SET_ENTITY_POSITION(entity_id=cameraA (ID: 17064000/0x01046040), pos_x=47.870*, pos_z=-745.857*, pos_y=3.500*, direction=326.5°*)
 19: 0x010F [0x01] GOTO 0x0136
 20: 0x0112 [0x02] IF !(Work_Zone[56] == 4*) GOTO 0x0136
 21: 0x011A [0x32] ExtData[1]->MainSpeed = 40* * 0.1
 22: 0x011D [0x37] UPDATE_EVENT_POSITION_AND_DIR: x=47.870*, z=-745.857*, y=3.500*, direction=326.5°*
 23: 0x0126 [0xBA] SET_ENTITY_POSITION(entity_id=cameraA (ID: 17064000/0x01046040), pos_x=47.870*, pos_z=-745.857*, pos_y=3.500*, direction=326.5°*)
 24: 0x0133 [0x01] GOTO 0x0136

SUBROUTINE_0136:
 25: 0x0136 [0xBA] SET_ENTITY_POSITION(entity_id=LocalPlayer, pos_x=47.870*, pos_z=-745.857*, pos_y=3.500*, direction=326.5°*)
 26: 0x0143 [0x00] END_REQSTACK()
```

### Event 65535.5

#### Metadata

| Field        | Value      |
|--------------|------------|
| Entrypoint   | 0x0144     |
| Data Size    | 1979 bytes |
| Instructions | 376        |

```
      00 01 02 03 04 05 06 07  08 09 0A 0B 0C 0D 0E 0F
      -- -- -- -- -- -- -- --  -- -- -- -- -- -- -- --
0140:             02 38 10 01  80 80 A1 02 27 80 40 60      .8......'.@`
0150: 04 01 0C 1F 00 10 80 11  80 12 80 1F 01 6F 1C 04  .............o..
0160: 80 5B 13 80 27 60 04 01  27 60 04 01 79 6F 72 30  .[..'`..'`..yor0
0170: 53 27 60 04 01 27 60 04  01 79 6F 72 30 02 39 10  S'`..'`..yor0.9.
0180: 00 80 00 9E 02 13 07 00  14 80 02 07 00 01 80 80  ................
0190: B1 01 5B 13 80 27 60 04  01 27 60 04 01 79 6F 72  ..[..'`..'`..yor
01A0: 30 53 27 60 04 01 27 60  04 01 79 6F 72 30 01 9B  0S'`..'`..yor0..
01B0: 02 02 07 00 00 80 80 CA  01 1F 00 15 80 16 80 17  ................
01C0: 80 1F 01 6F 1C 18 80 01  9B 02 02 07 00 02 80 80  ...o............
01D0: E3 01 1F 00 10 80 11 80  12 80 1F 01 6F 1C 19 80  ............o...
01E0: 01 9B 02 02 07 00 0E 80  80 FC 01 1F 00 1A 80 1B  ................
01F0: 80 1C 80 1F 01 6F 1C 19  80 01 9B 02 02 07 00 0F  .....o..........
0200: 80 80 2E 02 1C 04 80 5B  13 80 F8 FF FF 7F F8 FF  .......[........
0210: FF 7F 74 6F 6E 30 1C 18  80 5B 13 80 F8 FF FF 7F  ..ton0...[......
0220: F8 FF FF 7F 74 6F 6E 31  1C 1D 80 01 9B 02 02 07  ....ton1........
0230: 00 19 80 80 47 02 1F 00  1A 80 1B 80 1C 80 1F 01  ....G...........
0240: 6F 1C 19 80 01 9B 02 02  07 00 1E 80 80 63 02 32  o............c.2
0250: 09 80 1F 00 15 80 16 80  17 80 1F 01 6F 1C 19 80  ............o...
0260: 01 9B 02 02 07 00 1F 80  80 7F 02 32 09 80 1F 00  ...........2....
0270: 10 80 11 80 12 80 1F 01  6F 1C 19 80 01 9B 02 02  ........o.......
0280: 07 00 08 80 80 9B 02 32  20 80 1F 00 1A 80 1B 80  .......2 .......
0290: 1C 80 1F 01 6F 1C 19 80  01 9B 02 01 7D 01 01 FE  ....o.......}...
02A0: 08 02 38 10 00 80 80 19  04 27 80 40 60 04 01 0C  ..8......'.@`...
02B0: 1F 00 10 80 11 80 12 80  1F 01 6F 1C 04 80 5B 13  ..........o...[.
02C0: 80 27 60 04 01 27 60 04  01 79 6F 72 30 53 27 60  .'`..'`..yor0S'`
02D0: 04 01 27 60 04 01 79 6F  72 30 02 39 10 00 80 00  ..'`..yor0.9....
02E0: 16 04 13 07 00 14 80 02  07 00 01 80 80 11 03 5B  ...............[
02F0: 13 80 27 60 04 01 27 60  04 01 79 6F 72 30 53 27  ..'`..'`..yor0S'
0300: 60 04 01 27 60 04 01 79  6F 72 30 32 09 80 01 13  `..'`..yor02....
0310: 04 02 07 00 00 80 80 2A  03 1F 00 15 80 16 80 17  .......*........
0320: 80 1F 01 6F 1C 18 80 01  13 04 02 07 00 02 80 80  ...o............
0330: 43 03 1F 00 10 80 11 80  12 80 1F 01 6F 1C 19 80  C...........o...
0340: 01 13 04 02 07 00 0E 80  80 5C 03 1F 00 1A 80 1B  .........\......
0350: 80 1C 80 1F 01 6F 1C 19  80 01 13 04 02 07 00 0F  .....o..........
0360: 80 80 88 03 5B 13 80 F8  FF FF 7F F8 FF FF 7F 74  ....[..........t
0370: 6F 6E 30 1C 1D 80 5B 13  80 F8 FF FF 7F F8 FF FF  on0...[.........
0380: 7F 74 6F 6E 31 01 13 04  02 07 00 19 80 80 A1 03  .ton1...........
0390: 1F 00 1A 80 1B 80 1C 80  1F 01 6F 1C 19 80 01 13  ..........o.....
03A0: 04 02 07 00 1E 80 80 BD  03 32 20 80 1F 00 15 80  .........2 .....
03B0: 16 80 17 80 1F 01 6F 1C  19 80 01 13 04 02 07 00  ......o.........
03C0: 1F 80 80 F7 03 32 20 80  1F 00 10 80 11 80 12 80  .....2 .........
03D0: 1F 01 6F 5B 13 80 F8 FF  FF 7F F8 FF FF 7F 74 6F  ..o[..........to
03E0: 6E 30 1C 18 80 5B 13 80  F8 FF FF 7F F8 FF FF 7F  n0...[..........
03F0: 74 6F 6E 31 01 13 04 02  07 00 08 80 80 13 04 32  ton1...........2
0400: 20 80 1F 00 1A 80 1B 80  1C 80 1F 01 6F 1C 19 80   ...........o...
0410: 01 13 04 01 DA 02 01 FE  08 02 38 10 02 80 80 B3  ..........8.....
0420: 05 27 80 40 60 04 01 0C  1F 00 10 80 11 80 12 80  .'.@`...........
0430: 1F 01 6F 1C 04 80 5B 13  80 27 60 04 01 27 60 04  ..o...[..'`..'`.
0440: 01 79 6F 72 30 53 27 60  04 01 27 60 04 01 79 6F  .yor0S'`..'`..yo
0450: 72 30 02 39 10 00 80 00  B0 05 13 07 00 14 80 02  r0.9............
0460: 07 00 01 80 80 91 04 5B  13 80 F8 FF FF 7F F8 FF  .......[........
0470: FF 7F 74 6F 6E 30 1C 18  80 5B 13 80 F8 FF FF 7F  ..ton0...[......
0480: F8 FF FF 7F 74 6F 6E 31  1C 04 80 1C 18 80 01 AD  ....ton1........
0490: 05 02 07 00 00 80 80 AA  04 1F 00 15 80 16 80 17  ................
04A0: 80 1F 01 6F 1C 21 80 01  AD 05 02 07 00 02 80 80  ...o.!..........
04B0: C3 04 1F 00 10 80 11 80  12 80 1F 01 6F 1C 19 80  ............o...
04C0: 01 AD 05 02 07 00 0E 80  80 03 05 32 09 80 1F 00  ...........2....
04D0: 1A 80 1B 80 1C 80 1F 01  6F 1C 21 80 5B 13 80 F8  ........o.!.[...
04E0: FF FF 7F F8 FF FF 7F 74  6F 6E 30 1C 18 80 5B 13  .......ton0...[.
04F0: 80 F8 FF FF 7F F8 FF FF  7F 74 6F 6E 31 1C 1D 80  .........ton1...
0500: 01 AD 05 02 07 00 0F 80  80 1C 05 1F 00 10 80 11  ................
0510: 80 12 80 1F 01 6F 1C 19  80 01 AD 05 02 07 00 19  .....o..........
0520: 80 80 35 05 1F 00 1A 80  1B 80 1C 80 1F 01 6F 1C  ..5...........o.
0530: 19 80 01 AD 05 02 07 00  1E 80 80 75 05 5B 13 80  ...........u.[..
0540: F8 FF FF 7F F8 FF FF 7F  74 6F 6E 30 1C 18 80 5B  ........ton0...[
0550: 13 80 F8 FF FF 7F F8 FF  FF 7F 74 6F 6E 31 1C 18  ..........ton1..
0560: 80 32 20 80 1F 00 15 80  16 80 17 80 1F 01 6F 1C  .2 ...........o.
0570: 19 80 01 AD 05 02 07 00  1F 80 80 91 05 32 20 80  .............2 .
0580: 1F 00 10 80 11 80 12 80  1F 01 6F 1C 19 80 01 AD  ..........o.....
0590: 05 02 07 00 08 80 80 AD  05 32 20 80 1F 00 1A 80  .........2 .....
05A0: 1B 80 1C 80 1F 01 6F 1C  19 80 01 AD 05 01 52 04  ......o.......R.
05B0: 01 FE 08 02 38 10 0E 80  80 64 07 27 80 40 60 04  ....8....d.'.@`.
05C0: 01 0C 1F 00 10 80 11 80  12 80 1F 01 6F 1C 04 80  ............o...
05D0: 5B 13 80 27 60 04 01 27  60 04 01 79 6F 72 30 53  [..'`..'`..yor0S
05E0: 27 60 04 01 27 60 04 01  79 6F 72 30 02 39 10 00  '`..'`..yor0.9..
05F0: 80 00 61 07 13 07 00 14  80 02 07 00 01 80 80 4F  ..a............O
0600: 06 1C 18 80 5B 13 80 F8  FF FF 7F F8 FF FF 7F 74  ....[..........t
0610: 6F 6E 30 1C 22 80 5B 13  80 F8 FF FF 7F F8 FF FF  on0.".[.........
0620: 7F 74 6F 6E 31 1C 18 80  5B 13 80 F8 FF FF 7F F8  .ton1...[.......
0630: FF FF 7F 6D 6F 67 30 1C  18 80 5B 13 80 F8 FF FF  ...mog0...[.....
0640: 7F F8 FF FF 7F 6D 6F 67  31 1C 1D 80 01 5E 07 02  .....mog1....^..
0650: 07 00 00 80 80 6B 06 1C  1D 80 1F 00 15 80 16 80  .....k..........
0660: 17 80 1F 01 6F 1C 19 80  01 5E 07 02 07 00 02 80  ....o....^......
0670: 80 84 06 1F 00 10 80 11  80 12 80 1F 01 6F 1C 19  .............o..
0680: 80 01 5E 07 02 07 00 0E  80 80 A0 06 1C 21 80 1F  ..^..........!..
0690: 00 1A 80 1B 80 1C 80 1F  01 6F 1C 19 80 01 5E 07  .........o....^.
06A0: 02 07 00 0F 80 80 C7 06  1F 00 10 80 11 80 12 80  ................
06B0: 1F 01 6F 1C 21 80 1F 00  23 80 11 80 24 80 1F 01  ..o.!...#...$...
06C0: 6F 1C 19 80 01 5E 07 02  07 00 19 80 80 D5 06 1C  o....^..........
06D0: 21 80 01 5E 07 02 07 00  1E 80 80 07 07 32 20 80  !..^.........2 .
06E0: 1C 21 80 5B 13 80 F8 FF  FF 7F F8 FF FF 7F 6D 6F  .!.[..........mo
06F0: 67 30 1C 18 80 5B 13 80  F8 FF FF 7F F8 FF FF 7F  g0...[..........
0700: 6D 6F 67 31 01 5E 07 02  07 00 1F 80 80 3F 07 32  mog1.^.......?.2
0710: 20 80 1F 00 25 80 11 80  12 80 1F 01 6F 1C 21 80   ...%.......o.!.
0720: 1F 00 26 80 11 80 27 80  1F 01 6F 1C 21 80 1F 00  ..&...'...o.!...
0730: 28 80 11 80 29 80 1F 01  6F 1C 19 80 01 5E 07 02  (...)...o....^..
0740: 07 00 08 80 80 5E 07 32  20 80 1C 18 80 1F 00 1A  .....^.2 .......
0750: 80 1B 80 1C 80 1F 01 6F  1C 19 80 01 5E 07 01 EC  .......o....^...
0760: 05 01 FE 08 02 38 10 0F  80 80 FE 08 27 80 40 60  .....8......'.@`
0770: 04 01 0C 1F 00 10 80 11  80 12 80 1F 01 6F 1C 04  .............o..
0780: 80 5B 13 80 27 60 04 01  27 60 04 01 79 6F 72 30  .[..'`..'`..yor0
0790: 53 27 60 04 01 27 60 04  01 79 6F 72 30 02 39 10  S'`..'`..yor0.9.
07A0: 00 80 00 FB 08 13 07 00  14 80 02 07 00 01 80 80  ................
07B0: D4 07 5B 13 80 27 60 04  01 27 60 04 01 79 6F 72  ..[..'`..'`..yor
07C0: 30 53 27 60 04 01 27 60  04 01 79 6F 72 30 32 09  0S'`..'`..yor02.
07D0: 80 01 F8 08 02 07 00 00  80 80 ED 07 1F 00 15 80  ................
07E0: 16 80 17 80 1F 01 6F 1C  18 80 01 F8 08 02 07 00  ......o.........
07F0: 02 80 80 06 08 1F 00 10  80 11 80 12 80 1F 01 6F  ...............o
0800: 1C 19 80 01 F8 08 02 07  00 0E 80 80 11 08 01 F8  ................
0810: 08 02 07 00 0F 80 80 43  08 1C 04 80 5B 13 80 F8  .......C....[...
0820: FF FF 7F F8 FF FF 7F 74  6F 6E 30 1C 1D 80 5B 13  .......ton0...[.
0830: 80 F8 FF FF 7F F8 FF FF  7F 74 6F 6E 31 1C 18 80  .........ton1...
0840: 01 F8 08 02 07 00 19 80  80 5C 08 1F 00 1A 80 1B  .........\......
0850: 80 1C 80 1F 01 6F 1C 19  80 01 F8 08 02 07 00 1E  .....o..........
0860: 80 80 9C 08 32 09 80 1F  00 15 80 16 80 17 80 1F  ....2...........
0870: 01 6F 1C 04 80 5B 13 80  F8 FF FF 7F F8 FF FF 7F  .o...[..........
0880: 6D 6F 67 30 1C 18 80 5B  13 80 F8 FF FF 7F F8 FF  mog0...[........
0890: FF 7F 6D 6F 67 31 1C 18  80 01 F8 08 02 07 00 1F  ..mog1..........
08A0: 80 80 DC 08 32 20 80 1F  00 10 80 11 80 12 80 1F  ....2 ..........
08B0: 01 6F 1C 04 80 5B 13 80  F8 FF FF 7F F8 FF FF 7F  .o...[..........
08C0: 74 6F 6E 30 1C 18 80 5B  13 80 F8 FF FF 7F F8 FF  ton0...[........
08D0: FF 7F 74 6F 6E 31 1C 18  80 01 F8 08 02 07 00 08  ..ton1..........
08E0: 80 80 F8 08 32 20 80 1F  00 1A 80 1B 80 1C 80 1F  ....2 ..........
08F0: 01 6F 1C 19 80 01 F8 08  01 9D 07 01 FE 08 00     .o............. 
```

#### Opcodes

```
  0: 0x0144 [0x02] IF !(Work_Zone[56] == 0*) GOTO 0x02A1
  1: 0x014C [0x27] REQ_SET(priority=0x80, entity_id=cameraA (ID: 17064000/0x01046040), tag_num=0x0C)
  2: 0x0153 [0x1F] MOVE_ENTITY: EventEntity moves to X=49.049*, Z=-750.982*, Y=3.499*
  3: 0x015B [0x1F] MOVE_ENTITY: Update entity position (mode=1)
  4: 0x015D [0x6F] WAIT_FRAME_DELAY: Yield until WaitTime reaches zero
  5: 0x015E [0x1C] WAIT(30* ticks)
  6: 0x0161 [0x5B] LOAD_EXT_SCHEDULER: Load scheduler "yor0" with entities [Unnamed NPC (ID: 17063975/0x01046027), Unnamed NPC (ID: 17063975/0x01046027)], work=220*
  7: 0x0170 [0x53] WAIT_SCHEDULER_TASK: Wait for scheduler "yor0" with entities [Unnamed NPC (ID: 17063975/0x01046027), Unnamed NPC (ID: 17063975/0x01046027)]
  8: 0x017D [0x02] IF !(Work_Zone[57] == 1*) GOTO 0x029E
  9: 0x0185 [0x13] ExtData[1]->WorkLocal[7] = rand() % 9*
 10: 0x018A [0x02] IF !(ExtData[1]->WorkLocal[7] == 0*) GOTO 0x01B1
 11: 0x0192 [0x5B] LOAD_EXT_SCHEDULER: Load scheduler "yor0" with entities [Unnamed NPC (ID: 17063975/0x01046027), Unnamed NPC (ID: 17063975/0x01046027)], work=220*
 12: 0x01A1 [0x53] WAIT_SCHEDULER_TASK: Wait for scheduler "yor0" with entities [Unnamed NPC (ID: 17063975/0x01046027), Unnamed NPC (ID: 17063975/0x01046027)]
 13: 0x01AE [0x01] GOTO 0x029B
 14: 0x01B1 [0x02] IF !(ExtData[1]->WorkLocal[7] == 1*) GOTO 0x01CA
 15: 0x01B9 [0x1F] MOVE_ENTITY: EventEntity moves to X=43.575*, Z=-750.860*, Y=3.677*
 16: 0x01C1 [0x1F] MOVE_ENTITY: Update entity position (mode=1)
 17: 0x01C3 [0x6F] WAIT_FRAME_DELAY: Yield until WaitTime reaches zero
 18: 0x01C4 [0x1C] WAIT(60* ticks)
 19: 0x01C7 [0x01] GOTO 0x029B
 20: 0x01CA [0x02] IF !(ExtData[1]->WorkLocal[7] == 2*) GOTO 0x01E3
 21: 0x01D2 [0x1F] MOVE_ENTITY: EventEntity moves to X=49.049*, Z=-750.982*, Y=3.499*
 22: 0x01DA [0x1F] MOVE_ENTITY: Update entity position (mode=1)
 23: 0x01DC [0x6F] WAIT_FRAME_DELAY: Yield until WaitTime reaches zero
 24: 0x01DD [0x1C] WAIT(5* ticks)
 25: 0x01E0 [0x01] GOTO 0x029B
 26: 0x01E3 [0x02] IF !(ExtData[1]->WorkLocal[7] == 3*) GOTO 0x01FC
 27: 0x01EB [0x1F] MOVE_ENTITY: EventEntity moves to X=55.045*, Z=-752.498*, Y=3.112*
 28: 0x01F3 [0x1F] MOVE_ENTITY: Update entity position (mode=1)
 29: 0x01F5 [0x6F] WAIT_FRAME_DELAY: Yield until WaitTime reaches zero
 30: 0x01F6 [0x1C] WAIT(5* ticks)
 31: 0x01F9 [0x01] GOTO 0x029B
 32: 0x01FC [0x02] IF !(ExtData[1]->WorkLocal[7] == 4*) GOTO 0x022E
 33: 0x0204 [0x1C] WAIT(30* ticks)
 34: 0x0207 [0x5B] LOAD_EXT_SCHEDULER: Load scheduler "ton0" with entities [EventEntity, EventEntity], work=220*
 35: 0x0216 [0x1C] WAIT(60* ticks)
 36: 0x0219 [0x5B] LOAD_EXT_SCHEDULER: Load scheduler "ton1" with entities [EventEntity, EventEntity], work=220*
 37: 0x0228 [0x1C] WAIT(120* ticks)
 38: 0x022B [0x01] GOTO 0x029B
 39: 0x022E [0x02] IF !(ExtData[1]->WorkLocal[7] == 5*) GOTO 0x0247
 40: 0x0236 [0x1F] MOVE_ENTITY: EventEntity moves to X=55.045*, Z=-752.498*, Y=3.112*
 41: 0x023E [0x1F] MOVE_ENTITY: Update entity position (mode=1)
 42: 0x0240 [0x6F] WAIT_FRAME_DELAY: Yield until WaitTime reaches zero
 43: 0x0241 [0x1C] WAIT(5* ticks)
 44: 0x0244 [0x01] GOTO 0x029B
 45: 0x0247 [0x02] IF !(ExtData[1]->WorkLocal[7] == 6*) GOTO 0x0263
 46: 0x024F [0x32] ExtData[1]->MainSpeed = 40* * 0.1
 47: 0x0252 [0x1F] MOVE_ENTITY: EventEntity moves to X=43.575*, Z=-750.860*, Y=3.677*
 48: 0x025A [0x1F] MOVE_ENTITY: Update entity position (mode=1)
 49: 0x025C [0x6F] WAIT_FRAME_DELAY: Yield until WaitTime reaches zero
 50: 0x025D [0x1C] WAIT(5* ticks)
 51: 0x0260 [0x01] GOTO 0x029B
 52: 0x0263 [0x02] IF !(ExtData[1]->WorkLocal[7] == 7*) GOTO 0x027F
 53: 0x026B [0x32] ExtData[1]->MainSpeed = 40* * 0.1
 54: 0x026E [0x1F] MOVE_ENTITY: EventEntity moves to X=49.049*, Z=-750.982*, Y=3.499*
 55: 0x0276 [0x1F] MOVE_ENTITY: Update entity position (mode=1)
 56: 0x0278 [0x6F] WAIT_FRAME_DELAY: Yield until WaitTime reaches zero
 57: 0x0279 [0x1C] WAIT(5* ticks)
 58: 0x027C [0x01] GOTO 0x029B
 59: 0x027F [0x02] IF !(ExtData[1]->WorkLocal[7] == 8*) GOTO 0x029B
 60: 0x0287 [0x32] ExtData[1]->MainSpeed = 13* * 0.1
 61: 0x028A [0x1F] MOVE_ENTITY: EventEntity moves to X=55.045*, Z=-752.498*, Y=3.112*
 62: 0x0292 [0x1F] MOVE_ENTITY: Update entity position (mode=1)
 63: 0x0294 [0x6F] WAIT_FRAME_DELAY: Yield until WaitTime reaches zero
 64: 0x0295 [0x1C] WAIT(5* ticks)
 65: 0x0298 [0x01] GOTO 0x029B

SUBROUTINE_029B:
 66: 0x029B [0x01] GOTO 0x017D
 67: 0x029E [0x01] GOTO 0x08FE
 68: 0x02A1 [0x02] IF !(Work_Zone[56] == 1*) GOTO 0x0419
 69: 0x02A9 [0x27] REQ_SET(priority=0x80, entity_id=cameraA (ID: 17064000/0x01046040), tag_num=0x0C)
 70: 0x02B0 [0x1F] MOVE_ENTITY: EventEntity moves to X=49.049*, Z=-750.982*, Y=3.499*
 71: 0x02B8 [0x1F] MOVE_ENTITY: Update entity position (mode=1)
 72: 0x02BA [0x6F] WAIT_FRAME_DELAY: Yield until WaitTime reaches zero
 73: 0x02BB [0x1C] WAIT(30* ticks)
 74: 0x02BE [0x5B] LOAD_EXT_SCHEDULER: Load scheduler "yor0" with entities [Unnamed NPC (ID: 17063975/0x01046027), Unnamed NPC (ID: 17063975/0x01046027)], work=220*
 75: 0x02CD [0x53] WAIT_SCHEDULER_TASK: Wait for scheduler "yor0" with entities [Unnamed NPC (ID: 17063975/0x01046027), Unnamed NPC (ID: 17063975/0x01046027)]

SUBROUTINE_02DA:
 76: 0x02DA [0x02] IF !(Work_Zone[57] == 1*) GOTO 0x0416
 77: 0x02E2 [0x13] ExtData[1]->WorkLocal[7] = rand() % 9*
 78: 0x02E7 [0x02] IF !(ExtData[1]->WorkLocal[7] == 0*) GOTO 0x0311
 79: 0x02EF [0x5B] LOAD_EXT_SCHEDULER: Load scheduler "yor0" with entities [Unnamed NPC (ID: 17063975/0x01046027), Unnamed NPC (ID: 17063975/0x01046027)], work=220*
 80: 0x02FE [0x53] WAIT_SCHEDULER_TASK: Wait for scheduler "yor0" with entities [Unnamed NPC (ID: 17063975/0x01046027), Unnamed NPC (ID: 17063975/0x01046027)]
 81: 0x030B [0x32] ExtData[1]->MainSpeed = 40* * 0.1
 82: 0x030E [0x01] GOTO 0x0413
 83: 0x0311 [0x02] IF !(ExtData[1]->WorkLocal[7] == 1*) GOTO 0x032A
 84: 0x0319 [0x1F] MOVE_ENTITY: EventEntity moves to X=43.575*, Z=-750.860*, Y=3.677*
 85: 0x0321 [0x1F] MOVE_ENTITY: Update entity position (mode=1)
 86: 0x0323 [0x6F] WAIT_FRAME_DELAY: Yield until WaitTime reaches zero
 87: 0x0324 [0x1C] WAIT(60* ticks)
 88: 0x0327 [0x01] GOTO 0x0413
 89: 0x032A [0x02] IF !(ExtData[1]->WorkLocal[7] == 2*) GOTO 0x0343
 90: 0x0332 [0x1F] MOVE_ENTITY: EventEntity moves to X=49.049*, Z=-750.982*, Y=3.499*
 91: 0x033A [0x1F] MOVE_ENTITY: Update entity position (mode=1)
 92: 0x033C [0x6F] WAIT_FRAME_DELAY: Yield until WaitTime reaches zero
 93: 0x033D [0x1C] WAIT(5* ticks)
 94: 0x0340 [0x01] GOTO 0x0413
 95: 0x0343 [0x02] IF !(ExtData[1]->WorkLocal[7] == 3*) GOTO 0x035C
 96: 0x034B [0x1F] MOVE_ENTITY: EventEntity moves to X=55.045*, Z=-752.498*, Y=3.112*
 97: 0x0353 [0x1F] MOVE_ENTITY: Update entity position (mode=1)
 98: 0x0355 [0x6F] WAIT_FRAME_DELAY: Yield until WaitTime reaches zero
 99: 0x0356 [0x1C] WAIT(5* ticks)
100: 0x0359 [0x01] GOTO 0x0413
101: 0x035C [0x02] IF !(ExtData[1]->WorkLocal[7] == 4*) GOTO 0x0388
102: 0x0364 [0x5B] LOAD_EXT_SCHEDULER: Load scheduler "ton0" with entities [EventEntity, EventEntity], work=220*
103: 0x0373 [0x1C] WAIT(120* ticks)
104: 0x0376 [0x5B] LOAD_EXT_SCHEDULER: Load scheduler "ton1" with entities [EventEntity, EventEntity], work=220*
105: 0x0385 [0x01] GOTO 0x0413
106: 0x0388 [0x02] IF !(ExtData[1]->WorkLocal[7] == 5*) GOTO 0x03A1
107: 0x0390 [0x1F] MOVE_ENTITY: EventEntity moves to X=55.045*, Z=-752.498*, Y=3.112*
108: 0x0398 [0x1F] MOVE_ENTITY: Update entity position (mode=1)
109: 0x039A [0x6F] WAIT_FRAME_DELAY: Yield until WaitTime reaches zero
110: 0x039B [0x1C] WAIT(5* ticks)
111: 0x039E [0x01] GOTO 0x0413
112: 0x03A1 [0x02] IF !(ExtData[1]->WorkLocal[7] == 6*) GOTO 0x03BD
113: 0x03A9 [0x32] ExtData[1]->MainSpeed = 13* * 0.1
114: 0x03AC [0x1F] MOVE_ENTITY: EventEntity moves to X=43.575*, Z=-750.860*, Y=3.677*
115: 0x03B4 [0x1F] MOVE_ENTITY: Update entity position (mode=1)
116: 0x03B6 [0x6F] WAIT_FRAME_DELAY: Yield until WaitTime reaches zero
117: 0x03B7 [0x1C] WAIT(5* ticks)
118: 0x03BA [0x01] GOTO 0x0413
119: 0x03BD [0x02] IF !(ExtData[1]->WorkLocal[7] == 7*) GOTO 0x03F7
120: 0x03C5 [0x32] ExtData[1]->MainSpeed = 13* * 0.1
121: 0x03C8 [0x1F] MOVE_ENTITY: EventEntity moves to X=49.049*, Z=-750.982*, Y=3.499*
122: 0x03D0 [0x1F] MOVE_ENTITY: Update entity position (mode=1)
123: 0x03D2 [0x6F] WAIT_FRAME_DELAY: Yield until WaitTime reaches zero
124: 0x03D3 [0x5B] LOAD_EXT_SCHEDULER: Load scheduler "ton0" with entities [EventEntity, EventEntity], work=220*
125: 0x03E2 [0x1C] WAIT(60* ticks)
126: 0x03E5 [0x5B] LOAD_EXT_SCHEDULER: Load scheduler "ton1" with entities [EventEntity, EventEntity], work=220*
127: 0x03F4 [0x01] GOTO 0x0413
128: 0x03F7 [0x02] IF !(ExtData[1]->WorkLocal[7] == 8*) GOTO 0x0413
129: 0x03FF [0x32] ExtData[1]->MainSpeed = 13* * 0.1
130: 0x0402 [0x1F] MOVE_ENTITY: EventEntity moves to X=55.045*, Z=-752.498*, Y=3.112*
131: 0x040A [0x1F] MOVE_ENTITY: Update entity position (mode=1)
132: 0x040C [0x6F] WAIT_FRAME_DELAY: Yield until WaitTime reaches zero
133: 0x040D [0x1C] WAIT(5* ticks)
134: 0x0410 [0x01] GOTO 0x0413

SUBROUTINE_0413:
135: 0x0413 [0x01] GOTO 0x02DA
136: 0x0416 [0x01] GOTO 0x08FE
137: 0x0419 [0x02] IF !(Work_Zone[56] == 2*) GOTO 0x05B3
138: 0x0421 [0x27] REQ_SET(priority=0x80, entity_id=cameraA (ID: 17064000/0x01046040), tag_num=0x0C)
139: 0x0428 [0x1F] MOVE_ENTITY: EventEntity moves to X=49.049*, Z=-750.982*, Y=3.499*
140: 0x0430 [0x1F] MOVE_ENTITY: Update entity position (mode=1)
141: 0x0432 [0x6F] WAIT_FRAME_DELAY: Yield until WaitTime reaches zero
142: 0x0433 [0x1C] WAIT(30* ticks)
143: 0x0436 [0x5B] LOAD_EXT_SCHEDULER: Load scheduler "yor0" with entities [Unnamed NPC (ID: 17063975/0x01046027), Unnamed NPC (ID: 17063975/0x01046027)], work=220*
144: 0x0445 [0x53] WAIT_SCHEDULER_TASK: Wait for scheduler "yor0" with entities [Unnamed NPC (ID: 17063975/0x01046027), Unnamed NPC (ID: 17063975/0x01046027)]

SUBROUTINE_0452:
145: 0x0452 [0x02] IF !(Work_Zone[57] == 1*) GOTO 0x05B0
146: 0x045A [0x13] ExtData[1]->WorkLocal[7] = rand() % 9*
147: 0x045F [0x02] IF !(ExtData[1]->WorkLocal[7] == 0*) GOTO 0x0491
148: 0x0467 [0x5B] LOAD_EXT_SCHEDULER: Load scheduler "ton0" with entities [EventEntity, EventEntity], work=220*
149: 0x0476 [0x1C] WAIT(60* ticks)
150: 0x0479 [0x5B] LOAD_EXT_SCHEDULER: Load scheduler "ton1" with entities [EventEntity, EventEntity], work=220*
151: 0x0488 [0x1C] WAIT(30* ticks)
152: 0x048B [0x1C] WAIT(60* ticks)
153: 0x048E [0x01] GOTO 0x05AD
154: 0x0491 [0x02] IF !(ExtData[1]->WorkLocal[7] == 1*) GOTO 0x04AA
155: 0x0499 [0x1F] MOVE_ENTITY: EventEntity moves to X=43.575*, Z=-750.860*, Y=3.677*
156: 0x04A1 [0x1F] MOVE_ENTITY: Update entity position (mode=1)
157: 0x04A3 [0x6F] WAIT_FRAME_DELAY: Yield until WaitTime reaches zero
158: 0x04A4 [0x1C] WAIT(240* ticks)
159: 0x04A7 [0x01] GOTO 0x05AD
160: 0x04AA [0x02] IF !(ExtData[1]->WorkLocal[7] == 2*) GOTO 0x04C3
161: 0x04B2 [0x1F] MOVE_ENTITY: EventEntity moves to X=49.049*, Z=-750.982*, Y=3.499*
162: 0x04BA [0x1F] MOVE_ENTITY: Update entity position (mode=1)
163: 0x04BC [0x6F] WAIT_FRAME_DELAY: Yield until WaitTime reaches zero
164: 0x04BD [0x1C] WAIT(5* ticks)
165: 0x04C0 [0x01] GOTO 0x05AD
166: 0x04C3 [0x02] IF !(ExtData[1]->WorkLocal[7] == 3*) GOTO 0x0503
167: 0x04CB [0x32] ExtData[1]->MainSpeed = 40* * 0.1
168: 0x04CE [0x1F] MOVE_ENTITY: EventEntity moves to X=55.045*, Z=-752.498*, Y=3.112*
169: 0x04D6 [0x1F] MOVE_ENTITY: Update entity position (mode=1)
170: 0x04D8 [0x6F] WAIT_FRAME_DELAY: Yield until WaitTime reaches zero
171: 0x04D9 [0x1C] WAIT(240* ticks)
172: 0x04DC [0x5B] LOAD_EXT_SCHEDULER: Load scheduler "ton0" with entities [EventEntity, EventEntity], work=220*
173: 0x04EB [0x1C] WAIT(60* ticks)
174: 0x04EE [0x5B] LOAD_EXT_SCHEDULER: Load scheduler "ton1" with entities [EventEntity, EventEntity], work=220*
175: 0x04FD [0x1C] WAIT(120* ticks)
176: 0x0500 [0x01] GOTO 0x05AD
177: 0x0503 [0x02] IF !(ExtData[1]->WorkLocal[7] == 4*) GOTO 0x051C
178: 0x050B [0x1F] MOVE_ENTITY: EventEntity moves to X=49.049*, Z=-750.982*, Y=3.499*
179: 0x0513 [0x1F] MOVE_ENTITY: Update entity position (mode=1)
180: 0x0515 [0x6F] WAIT_FRAME_DELAY: Yield until WaitTime reaches zero
181: 0x0516 [0x1C] WAIT(5* ticks)
182: 0x0519 [0x01] GOTO 0x05AD
183: 0x051C [0x02] IF !(ExtData[1]->WorkLocal[7] == 5*) GOTO 0x0535
184: 0x0524 [0x1F] MOVE_ENTITY: EventEntity moves to X=55.045*, Z=-752.498*, Y=3.112*
185: 0x052C [0x1F] MOVE_ENTITY: Update entity position (mode=1)
186: 0x052E [0x6F] WAIT_FRAME_DELAY: Yield until WaitTime reaches zero
187: 0x052F [0x1C] WAIT(5* ticks)
188: 0x0532 [0x01] GOTO 0x05AD
189: 0x0535 [0x02] IF !(ExtData[1]->WorkLocal[7] == 6*) GOTO 0x0575
190: 0x053D [0x5B] LOAD_EXT_SCHEDULER: Load scheduler "ton0" with entities [EventEntity, EventEntity], work=220*
191: 0x054C [0x1C] WAIT(60* ticks)
192: 0x054F [0x5B] LOAD_EXT_SCHEDULER: Load scheduler "ton1" with entities [EventEntity, EventEntity], work=220*
193: 0x055E [0x1C] WAIT(60* ticks)
194: 0x0561 [0x32] ExtData[1]->MainSpeed = 13* * 0.1
195: 0x0564 [0x1F] MOVE_ENTITY: EventEntity moves to X=43.575*, Z=-750.860*, Y=3.677*
196: 0x056C [0x1F] MOVE_ENTITY: Update entity position (mode=1)
197: 0x056E [0x6F] WAIT_FRAME_DELAY: Yield until WaitTime reaches zero
198: 0x056F [0x1C] WAIT(5* ticks)
199: 0x0572 [0x01] GOTO 0x05AD
200: 0x0575 [0x02] IF !(ExtData[1]->WorkLocal[7] == 7*) GOTO 0x0591
201: 0x057D [0x32] ExtData[1]->MainSpeed = 13* * 0.1
202: 0x0580 [0x1F] MOVE_ENTITY: EventEntity moves to X=49.049*, Z=-750.982*, Y=3.499*
203: 0x0588 [0x1F] MOVE_ENTITY: Update entity position (mode=1)
204: 0x058A [0x6F] WAIT_FRAME_DELAY: Yield until WaitTime reaches zero
205: 0x058B [0x1C] WAIT(5* ticks)
206: 0x058E [0x01] GOTO 0x05AD
207: 0x0591 [0x02] IF !(ExtData[1]->WorkLocal[7] == 8*) GOTO 0x05AD
208: 0x0599 [0x32] ExtData[1]->MainSpeed = 13* * 0.1
209: 0x059C [0x1F] MOVE_ENTITY: EventEntity moves to X=55.045*, Z=-752.498*, Y=3.112*
210: 0x05A4 [0x1F] MOVE_ENTITY: Update entity position (mode=1)
211: 0x05A6 [0x6F] WAIT_FRAME_DELAY: Yield until WaitTime reaches zero
212: 0x05A7 [0x1C] WAIT(5* ticks)
213: 0x05AA [0x01] GOTO 0x05AD

SUBROUTINE_05AD:
214: 0x05AD [0x01] GOTO 0x0452
215: 0x05B0 [0x01] GOTO 0x08FE
216: 0x05B3 [0x02] IF !(Work_Zone[56] == 3*) GOTO 0x0764
217: 0x05BB [0x27] REQ_SET(priority=0x80, entity_id=cameraA (ID: 17064000/0x01046040), tag_num=0x0C)
218: 0x05C2 [0x1F] MOVE_ENTITY: EventEntity moves to X=49.049*, Z=-750.982*, Y=3.499*
219: 0x05CA [0x1F] MOVE_ENTITY: Update entity position (mode=1)
220: 0x05CC [0x6F] WAIT_FRAME_DELAY: Yield until WaitTime reaches zero
221: 0x05CD [0x1C] WAIT(30* ticks)
222: 0x05D0 [0x5B] LOAD_EXT_SCHEDULER: Load scheduler "yor0" with entities [Unnamed NPC (ID: 17063975/0x01046027), Unnamed NPC (ID: 17063975/0x01046027)], work=220*
223: 0x05DF [0x53] WAIT_SCHEDULER_TASK: Wait for scheduler "yor0" with entities [Unnamed NPC (ID: 17063975/0x01046027), Unnamed NPC (ID: 17063975/0x01046027)]

SUBROUTINE_05EC:
224: 0x05EC [0x02] IF !(Work_Zone[57] == 1*) GOTO 0x0761
225: 0x05F4 [0x13] ExtData[1]->WorkLocal[7] = rand() % 9*
226: 0x05F9 [0x02] IF !(ExtData[1]->WorkLocal[7] == 0*) GOTO 0x064F
227: 0x0601 [0x1C] WAIT(60* ticks)
228: 0x0604 [0x5B] LOAD_EXT_SCHEDULER: Load scheduler "ton0" with entities [EventEntity, EventEntity], work=220*
229: 0x0613 [0x1C] WAIT(180* ticks)
230: 0x0616 [0x5B] LOAD_EXT_SCHEDULER: Load scheduler "ton1" with entities [EventEntity, EventEntity], work=220*
231: 0x0625 [0x1C] WAIT(60* ticks)
232: 0x0628 [0x5B] LOAD_EXT_SCHEDULER: Load scheduler "mog0" with entities [EventEntity, EventEntity], work=220*
233: 0x0637 [0x1C] WAIT(60* ticks)
234: 0x063A [0x5B] LOAD_EXT_SCHEDULER: Load scheduler "mog1" with entities [EventEntity, EventEntity], work=220*
235: 0x0649 [0x1C] WAIT(120* ticks)
236: 0x064C [0x01] GOTO 0x075E
237: 0x064F [0x02] IF !(ExtData[1]->WorkLocal[7] == 1*) GOTO 0x066B
238: 0x0657 [0x1C] WAIT(120* ticks)
239: 0x065A [0x1F] MOVE_ENTITY: EventEntity moves to X=43.575*, Z=-750.860*, Y=3.677*
240: 0x0662 [0x1F] MOVE_ENTITY: Update entity position (mode=1)
241: 0x0664 [0x6F] WAIT_FRAME_DELAY: Yield until WaitTime reaches zero
242: 0x0665 [0x1C] WAIT(5* ticks)
243: 0x0668 [0x01] GOTO 0x075E
244: 0x066B [0x02] IF !(ExtData[1]->WorkLocal[7] == 2*) GOTO 0x0684
245: 0x0673 [0x1F] MOVE_ENTITY: EventEntity moves to X=49.049*, Z=-750.982*, Y=3.499*
246: 0x067B [0x1F] MOVE_ENTITY: Update entity position (mode=1)
247: 0x067D [0x6F] WAIT_FRAME_DELAY: Yield until WaitTime reaches zero
248: 0x067E [0x1C] WAIT(5* ticks)
249: 0x0681 [0x01] GOTO 0x075E
250: 0x0684 [0x02] IF !(ExtData[1]->WorkLocal[7] == 3*) GOTO 0x06A0
251: 0x068C [0x1C] WAIT(240* ticks)
252: 0x068F [0x1F] MOVE_ENTITY: EventEntity moves to X=55.045*, Z=-752.498*, Y=3.112*
253: 0x0697 [0x1F] MOVE_ENTITY: Update entity position (mode=1)
254: 0x0699 [0x6F] WAIT_FRAME_DELAY: Yield until WaitTime reaches zero
255: 0x069A [0x1C] WAIT(5* ticks)
256: 0x069D [0x01] GOTO 0x075E
257: 0x06A0 [0x02] IF !(ExtData[1]->WorkLocal[7] == 4*) GOTO 0x06C7
258: 0x06A8 [0x1F] MOVE_ENTITY: EventEntity moves to X=49.049*, Z=-750.982*, Y=3.499*
259: 0x06B0 [0x1F] MOVE_ENTITY: Update entity position (mode=1)
260: 0x06B2 [0x6F] WAIT_FRAME_DELAY: Yield until WaitTime reaches zero
261: 0x06B3 [0x1C] WAIT(240* ticks)
262: 0x06B6 [0x1F] MOVE_ENTITY: EventEntity moves to X=45.049*, Z=-750.982*, Y=4.499*
263: 0x06BE [0x1F] MOVE_ENTITY: Update entity position (mode=1)
264: 0x06C0 [0x6F] WAIT_FRAME_DELAY: Yield until WaitTime reaches zero
265: 0x06C1 [0x1C] WAIT(5* ticks)
266: 0x06C4 [0x01] GOTO 0x075E
267: 0x06C7 [0x02] IF !(ExtData[1]->WorkLocal[7] == 5*) GOTO 0x06D5
268: 0x06CF [0x1C] WAIT(240* ticks)
269: 0x06D2 [0x01] GOTO 0x075E
270: 0x06D5 [0x02] IF !(ExtData[1]->WorkLocal[7] == 6*) GOTO 0x0707
271: 0x06DD [0x32] ExtData[1]->MainSpeed = 13* * 0.1
272: 0x06E0 [0x1C] WAIT(240* ticks)
273: 0x06E3 [0x5B] LOAD_EXT_SCHEDULER: Load scheduler "mog0" with entities [EventEntity, EventEntity], work=220*
274: 0x06F2 [0x1C] WAIT(60* ticks)
275: 0x06F5 [0x5B] LOAD_EXT_SCHEDULER: Load scheduler "mog1" with entities [EventEntity, EventEntity], work=220*
276: 0x0704 [0x01] GOTO 0x075E
277: 0x0707 [0x02] IF !(ExtData[1]->WorkLocal[7] == 7*) GOTO 0x073F
278: 0x070F [0x32] ExtData[1]->MainSpeed = 13* * 0.1
279: 0x0712 [0x1F] MOVE_ENTITY: EventEntity moves to X=48.049*, Z=-750.982*, Y=3.499*
280: 0x071A [0x1F] MOVE_ENTITY: Update entity position (mode=1)
281: 0x071C [0x6F] WAIT_FRAME_DELAY: Yield until WaitTime reaches zero
282: 0x071D [0x1C] WAIT(240* ticks)
283: 0x0720 [0x1F] MOVE_ENTITY: EventEntity moves to X=49.249*, Z=-750.982*, Y=2.699*
284: 0x0728 [0x1F] MOVE_ENTITY: Update entity position (mode=1)
285: 0x072A [0x6F] WAIT_FRAME_DELAY: Yield until WaitTime reaches zero
286: 0x072B [0x1C] WAIT(240* ticks)
287: 0x072E [0x1F] MOVE_ENTITY: EventEntity moves to X=47.849*, Z=-750.982*, Y=4.299*
288: 0x0736 [0x1F] MOVE_ENTITY: Update entity position (mode=1)
289: 0x0738 [0x6F] WAIT_FRAME_DELAY: Yield until WaitTime reaches zero
290: 0x0739 [0x1C] WAIT(5* ticks)
291: 0x073C [0x01] GOTO 0x075E
292: 0x073F [0x02] IF !(ExtData[1]->WorkLocal[7] == 8*) GOTO 0x075E
293: 0x0747 [0x32] ExtData[1]->MainSpeed = 13* * 0.1
294: 0x074A [0x1C] WAIT(60* ticks)
295: 0x074D [0x1F] MOVE_ENTITY: EventEntity moves to X=55.045*, Z=-752.498*, Y=3.112*
296: 0x0755 [0x1F] MOVE_ENTITY: Update entity position (mode=1)
297: 0x0757 [0x6F] WAIT_FRAME_DELAY: Yield until WaitTime reaches zero
298: 0x0758 [0x1C] WAIT(5* ticks)
299: 0x075B [0x01] GOTO 0x075E

SUBROUTINE_075E:
300: 0x075E [0x01] GOTO 0x05EC
301: 0x0761 [0x01] GOTO 0x08FE
302: 0x0764 [0x02] IF !(Work_Zone[56] == 4*) GOTO 0x08FE
303: 0x076C [0x27] REQ_SET(priority=0x80, entity_id=cameraA (ID: 17064000/0x01046040), tag_num=0x0C)
304: 0x0773 [0x1F] MOVE_ENTITY: EventEntity moves to X=49.049*, Z=-750.982*, Y=3.499*
305: 0x077B [0x1F] MOVE_ENTITY: Update entity position (mode=1)
306: 0x077D [0x6F] WAIT_FRAME_DELAY: Yield until WaitTime reaches zero
307: 0x077E [0x1C] WAIT(30* ticks)
308: 0x0781 [0x5B] LOAD_EXT_SCHEDULER: Load scheduler "yor0" with entities [Unnamed NPC (ID: 17063975/0x01046027), Unnamed NPC (ID: 17063975/0x01046027)], work=220*
309: 0x0790 [0x53] WAIT_SCHEDULER_TASK: Wait for scheduler "yor0" with entities [Unnamed NPC (ID: 17063975/0x01046027), Unnamed NPC (ID: 17063975/0x01046027)]

SUBROUTINE_079D:
310: 0x079D [0x02] IF !(Work_Zone[57] == 1*) GOTO 0x08FB
311: 0x07A5 [0x13] ExtData[1]->WorkLocal[7] = rand() % 9*
312: 0x07AA [0x02] IF !(ExtData[1]->WorkLocal[7] == 0*) GOTO 0x07D4
313: 0x07B2 [0x5B] LOAD_EXT_SCHEDULER: Load scheduler "yor0" with entities [Unnamed NPC (ID: 17063975/0x01046027), Unnamed NPC (ID: 17063975/0x01046027)], work=220*
314: 0x07C1 [0x53] WAIT_SCHEDULER_TASK: Wait for scheduler "yor0" with entities [Unnamed NPC (ID: 17063975/0x01046027), Unnamed NPC (ID: 17063975/0x01046027)]
315: 0x07CE [0x32] ExtData[1]->MainSpeed = 40* * 0.1
316: 0x07D1 [0x01] GOTO 0x08F8
317: 0x07D4 [0x02] IF !(ExtData[1]->WorkLocal[7] == 1*) GOTO 0x07ED
318: 0x07DC [0x1F] MOVE_ENTITY: EventEntity moves to X=43.575*, Z=-750.860*, Y=3.677*
319: 0x07E4 [0x1F] MOVE_ENTITY: Update entity position (mode=1)
320: 0x07E6 [0x6F] WAIT_FRAME_DELAY: Yield until WaitTime reaches zero
321: 0x07E7 [0x1C] WAIT(60* ticks)
322: 0x07EA [0x01] GOTO 0x08F8
323: 0x07ED [0x02] IF !(ExtData[1]->WorkLocal[7] == 2*) GOTO 0x0806
324: 0x07F5 [0x1F] MOVE_ENTITY: EventEntity moves to X=49.049*, Z=-750.982*, Y=3.499*
325: 0x07FD [0x1F] MOVE_ENTITY: Update entity position (mode=1)
326: 0x07FF [0x6F] WAIT_FRAME_DELAY: Yield until WaitTime reaches zero
327: 0x0800 [0x1C] WAIT(5* ticks)
328: 0x0803 [0x01] GOTO 0x08F8
329: 0x0806 [0x02] IF !(ExtData[1]->WorkLocal[7] == 3*) GOTO 0x0811
330: 0x080E [0x01] GOTO 0x08F8
331: 0x0811 [0x02] IF !(ExtData[1]->WorkLocal[7] == 4*) GOTO 0x0843
332: 0x0819 [0x1C] WAIT(30* ticks)
333: 0x081C [0x5B] LOAD_EXT_SCHEDULER: Load scheduler "ton0" with entities [EventEntity, EventEntity], work=220*
334: 0x082B [0x1C] WAIT(120* ticks)
335: 0x082E [0x5B] LOAD_EXT_SCHEDULER: Load scheduler "ton1" with entities [EventEntity, EventEntity], work=220*
336: 0x083D [0x1C] WAIT(60* ticks)
337: 0x0840 [0x01] GOTO 0x08F8
338: 0x0843 [0x02] IF !(ExtData[1]->WorkLocal[7] == 5*) GOTO 0x085C
339: 0x084B [0x1F] MOVE_ENTITY: EventEntity moves to X=55.045*, Z=-752.498*, Y=3.112*
340: 0x0853 [0x1F] MOVE_ENTITY: Update entity position (mode=1)
341: 0x0855 [0x6F] WAIT_FRAME_DELAY: Yield until WaitTime reaches zero
342: 0x0856 [0x1C] WAIT(5* ticks)
343: 0x0859 [0x01] GOTO 0x08F8
344: 0x085C [0x02] IF !(ExtData[1]->WorkLocal[7] == 6*) GOTO 0x089C
345: 0x0864 [0x32] ExtData[1]->MainSpeed = 40* * 0.1
346: 0x0867 [0x1F] MOVE_ENTITY: EventEntity moves to X=43.575*, Z=-750.860*, Y=3.677*
347: 0x086F [0x1F] MOVE_ENTITY: Update entity position (mode=1)
348: 0x0871 [0x6F] WAIT_FRAME_DELAY: Yield until WaitTime reaches zero
349: 0x0872 [0x1C] WAIT(30* ticks)
350: 0x0875 [0x5B] LOAD_EXT_SCHEDULER: Load scheduler "mog0" with entities [EventEntity, EventEntity], work=220*
351: 0x0884 [0x1C] WAIT(60* ticks)
352: 0x0887 [0x5B] LOAD_EXT_SCHEDULER: Load scheduler "mog1" with entities [EventEntity, EventEntity], work=220*
353: 0x0896 [0x1C] WAIT(60* ticks)
354: 0x0899 [0x01] GOTO 0x08F8
355: 0x089C [0x02] IF !(ExtData[1]->WorkLocal[7] == 7*) GOTO 0x08DC
356: 0x08A4 [0x32] ExtData[1]->MainSpeed = 13* * 0.1
357: 0x08A7 [0x1F] MOVE_ENTITY: EventEntity moves to X=49.049*, Z=-750.982*, Y=3.499*
358: 0x08AF [0x1F] MOVE_ENTITY: Update entity position (mode=1)
359: 0x08B1 [0x6F] WAIT_FRAME_DELAY: Yield until WaitTime reaches zero
360: 0x08B2 [0x1C] WAIT(30* ticks)
361: 0x08B5 [0x5B] LOAD_EXT_SCHEDULER: Load scheduler "ton0" with entities [EventEntity, EventEntity], work=220*
362: 0x08C4 [0x1C] WAIT(60* ticks)
363: 0x08C7 [0x5B] LOAD_EXT_SCHEDULER: Load scheduler "ton1" with entities [EventEntity, EventEntity], work=220*
364: 0x08D6 [0x1C] WAIT(60* ticks)
365: 0x08D9 [0x01] GOTO 0x08F8
366: 0x08DC [0x02] IF !(ExtData[1]->WorkLocal[7] == 8*) GOTO 0x08F8
367: 0x08E4 [0x32] ExtData[1]->MainSpeed = 13* * 0.1
368: 0x08E7 [0x1F] MOVE_ENTITY: EventEntity moves to X=55.045*, Z=-752.498*, Y=3.112*
369: 0x08EF [0x1F] MOVE_ENTITY: Update entity position (mode=1)
370: 0x08F1 [0x6F] WAIT_FRAME_DELAY: Yield until WaitTime reaches zero
371: 0x08F2 [0x1C] WAIT(5* ticks)
372: 0x08F5 [0x01] GOTO 0x08F8

SUBROUTINE_08F8:
373: 0x08F8 [0x01] GOTO 0x079D
374: 0x08FB [0x01] GOTO 0x08FE

SUBROUTINE_08FE:
375: 0x08FE [0x00] END_REQSTACK()
```
