# 17063943 - Jazgeh

## Common Data

| Field            | Value                    |
|------------------|--------------------------|
| Zone             | Chocobo Circuit (ID: 70) |
| Block Size       | 11260 bytes              |
| Total Events     | 14                       |
| References Count | 320                      |

## List of Events

| Event ID                 | Entrypoint   |   Size |   Instructions |
|--------------------------|--------------|--------|----------------|
| [65535](#event-65535)    | 0x0000       |      1 |              1 |
| [451](#event-451)        | 0x0001       |    339 |            115 |
| [452](#event-452)        | 0x0154       |     26 |             10 |
| [453](#event-453)        | 0x016E       |     57 |             20 |
| [454](#event-454)        | 0x01A7       |    189 |             51 |
| [455](#event-455)        | 0x0264       |    163 |             46 |
| [456](#event-456)        | 0x0307       |     72 |             21 |
| [457](#event-457)        | 0x034F       |     25 |             11 |
| [458](#event-458)        | 0x0368       |    666 |            135 |
| [459](#event-459)        | 0x0602       |     23 |              9 |
| [460](#event-460)        | 0x0619       |      5 |              1 |
| [65535.1](#event-655351) | 0x061E       |      5 |              3 |
| [461](#event-461)        | 0x0623       |      5 |              1 |
| [65535.2](#event-655352) | 0x0628       |   8330 |           1699 |

## DAT References (imed_data)

|   Index | Hex Value   |   Dec Value |
|---------|-------------|-------------|
|       0 | 0x0001      |           1 |
|       1 | 0x22D0      |        8912 |
|       2 | 0x0909      |        2313 |
|       3 | 0x22D2      |        8914 |
|       4 | 0x22D3      |        8915 |
|       5 | 0x22D4      |        8916 |
|       6 | 0x22D5      |        8917 |
|       7 | 0x0000      |           0 |
|       8 | 0x22D8      |        8920 |
|       9 | 0x22D9      |        8921 |
|      10 | 0x22DA      |        8922 |
|      11 | 0x22DB      |        8923 |
|      12 | 0x22DC      |        8924 |
|      13 | 0x22DD      |        8925 |
|      14 | 0x22DE      |        8926 |
|      15 | 0x0962      |        2402 |
|      16 | 0x22DF      |        8927 |
|      17 | 0x22E0      |        8928 |
|      18 | 0x22E1      |        8929 |
|      19 | 0x22E2      |        8930 |
|      20 | 0x0002      |           2 |
|      21 | 0x22E3      |        8931 |
|      22 | 0x22E4      |        8932 |
|      23 | 0x22E5      |        8933 |
|      24 | 0x22E6      |        8934 |
|      25 | 0x0003      |           3 |
|      26 | 0x22E7      |        8935 |
|      27 | 0x22E8      |        8936 |
|      28 | 0x22E9      |        8937 |
|      29 | 0x0004      |           4 |
|      30 | 0x22EA      |        8938 |
|      31 | 0x22EB      |        8939 |
|      32 | 0x22EC      |        8940 |
|      33 | 0x22ED      |        8941 |
|      34 | 0x22EE      |        8942 |
|      35 | 0x22EF      |        8943 |
|      36 | 0x22F0      |        8944 |
|      37 | 0x0005      |           5 |
|      38 | 0x22F1      |        8945 |
|      39 | 0x22F2      |        8946 |
|      40 | 0x22F3      |        8947 |
|      41 | 0x22F4      |        8948 |
|      42 | 0x22F5      |        8949 |
|      43 | 0x22F6      |        8950 |
|      44 | 0x0006      |           6 |
|      45 | 0x22D6      |        8918 |
|      46 | 0x22D7      |        8919 |
|      47 | 0x2493      |        9363 |
|      48 | 0x22F7      |        8951 |
|      49 | 0x22F8      |        8952 |
|      50 | 0x22F9      |        8953 |
|      51 | 0x22FA      |        8954 |
|      52 | 0x22FB      |        8955 |
|      53 | 0x22FC      |        8956 |
|      54 | 0x22FD      |        8957 |
|      55 | 0x22FE      |        8958 |
|      56 | 0x001E      |          30 |
|      57 | 0x22FF      |        8959 |
|      58 | 0x2300      |        8960 |
|      59 | 0x2301      |        8961 |
|      60 | 0x2302      |        8962 |
|      61 | 0x2303      |        8963 |
|      62 | 0x2348      |        9032 |
|      63 | 0x2349      |        9033 |
|      64 | 0x234A      |        9034 |
|      65 | 0x234E      |        9038 |
|      66 | 0x234B      |        9035 |
|      67 | 0x234C      |        9036 |
|      68 | 0x234D      |        9037 |
|      69 | 0x2355      |        9045 |
|      70 | 0x0134      |         308 |
|      71 | 0x235A      |        9050 |
|      72 | 0x2356      |        9046 |
|      73 | 0x235B      |        9051 |
|      74 | 0x2357      |        9047 |
|      75 | 0x2358      |        9048 |
|      76 | 0x2359      |        9049 |
|      77 | 0x00C8      |         200 |
|      78 | 0x001B      |          27 |
|      79 | 0x000F      |          15 |
|      80 | 0x003C      |          60 |
|      81 | 0x2304      |        8964 |
|      82 | 0x000E      |          14 |
|      83 | 0x0040      |          64 |
|      84 | 0x186A0     |      100000 |
|      85 | 0x2305      |        8965 |
|      86 | 0x2308      |        8968 |
|      87 | 0x2309      |        8969 |
|      88 | 0x2307      |        8967 |
|      89 | 0x0010      |          16 |
|      90 | 0x0008      |           8 |
|      91 | 0x001F      |          31 |
|      92 | 0x2341      |        9025 |
|      93 | 0x2340      |        9024 |
|      94 | 0x22D1      |        8913 |
|      95 | 0xFFFFE815  |  4294961173 |
|      96 | 0xFFFEF13B  |  4294897979 |
|      97 | 0xFFFFF060  |  4294963296 |
|      98 | 0x03E8      |        1000 |
|      99 | 0x00F6      |         246 |
|     100 | 0x0012      |          18 |
|     101 | 0x0013      |          19 |
|     102 | 0x0017      |          23 |
|     103 | 0x0018      |          24 |
|     104 | 0x0019      |          25 |
|     105 | 0x001D      |          29 |
|     106 | 0x0009      |           9 |
|     107 | 0x000A      |          10 |
|     108 | 0x230B      |        8971 |
|     109 | 0x230C      |        8972 |
|     110 | 0xFFFFFFFF  |  4294967295 |
|     111 | 0x230D      |        8973 |
|     112 | 0x0074      |         116 |
|     113 | 0x000C      |          12 |
|     114 | 0x001C      |          28 |
|     115 | 0x0011      |          17 |
|     116 | 0x03E7      |         999 |
|     117 | 0x2327      |        8999 |
|     118 | 0x2328      |        9000 |
|     119 | 0x0007      |           7 |
|     120 | 0x0020      |          32 |
|     121 | 0x232A      |        9002 |
|     122 | 0x0014      |          20 |
|     123 | 0x000D      |          13 |
|     124 | 0x232B      |        9003 |
|     125 | 0x230A      |        8970 |
|     126 | 0x000B      |          11 |
|     127 | 0x0015      |          21 |
|     128 | 0x0016      |          22 |
|     129 | 0x001A      |          26 |
|     130 | 0x2332      |        9010 |
|     131 | 0x2333      |        9011 |
|     132 | 0x2334      |        9012 |
|     133 | 0x2335      |        9013 |
|     134 | 0x2336      |        9014 |
|     135 | 0x2337      |        9015 |
|     136 | 0x2338      |        9016 |
|     137 | 0x2339      |        9017 |
|     138 | 0x233A      |        9018 |
|     139 | 0x233B      |        9019 |
|     140 | 0x233C      |        9020 |
|     141 | 0x233D      |        9021 |
|     142 | 0x233E      |        9022 |
|     143 | 0x230E      |        8974 |
|     144 | 0x2310      |        8976 |
|     145 | 0x2311      |        8977 |
|     146 | 0x2312      |        8978 |
|     147 | 0x2313      |        8979 |
|     148 | 0x0102      |         258 |
|     149 | 0xFFFFFFFB  |  4294967291 |
|     150 | 0x2200      |        8704 |
|     151 | 0x24D9      |        9433 |
|     152 | 0x24DA      |        9434 |
|     153 | 0xFFFFFFFC  |  4294967292 |
|     154 | 0x234F      |        9039 |
|     155 | 0xFFFFFFFA  |  4294967290 |
|     156 | 0x230F      |        8975 |
|     157 | 0x0202      |         514 |
|     158 | 0xFFFFFFFE  |  4294967294 |
|     159 | 0xFFFFFFF9  |  4294967289 |
|     160 | 0xFFFFFFFD  |  4294967293 |
|     161 | 0x2350      |        9040 |
|     162 | 0x2351      |        9041 |
|     163 | 0x2314      |        8980 |
|     164 | 0x2325      |        8997 |
|     165 | 0x2315      |        8981 |
|     166 | 0x2316      |        8982 |
|     167 | 0x2317      |        8983 |
|     168 | 0x2318      |        8984 |
|     169 | 0x2319      |        8985 |
|     170 | 0x231A      |        8986 |
|     171 | 0x231B      |        8987 |
|     172 | 0x231C      |        8988 |
|     173 | 0x231D      |        8989 |
|     174 | 0x231E      |        8990 |
|     175 | 0x231F      |        8991 |
|     176 | 0x2320      |        8992 |
|     177 | 0x2321      |        8993 |
|     178 | 0x2322      |        8994 |
|     179 | 0x2323      |        8995 |
|     180 | 0x2324      |        8996 |
|     181 | 0x2326      |        8998 |
|     182 | 0x2329      |        9001 |
|     183 | 0x0046      |          70 |
|     184 | 0xFFF86B89  |  4294470537 |
|     185 | 0xFFFA5E61  |  4294598241 |
|     186 | 0xFFFFFFF1  |  4294967281 |
|     187 | 0x0816      |        2070 |
|     188 | 0x0214      |         532 |
|     189 | 0xFFF8561A  |  4294465050 |
|     190 | 0xFFF7E072  |  4294434930 |
|     191 | 0x01B1      |         433 |
|     192 | 0xFFFDE467  |  4294829159 |
|     193 | 0xFFF7D404  |  4294431748 |
|     194 | 0xFFFFFFEF  |  4294967279 |
|     195 | 0x03D9      |         985 |
|     196 | 0xFFF86078  |  4294467704 |
|     197 | 0xFFFA682A  |  4294600746 |
|     198 | 0xFFF86B25  |  4294470437 |
|     199 | 0xFFFA68B0  |  4294600880 |
|     200 | 0xFFFFFFF4  |  4294967284 |
|     201 | 0x07A3      |        1955 |
|     202 | 0xFFF863C6  |  4294468550 |
|     203 | 0xFFF7DECA  |  4294434506 |
|     204 | 0x0A00      |        2560 |
|     205 | 0xFFF85CED  |  4294466797 |
|     206 | 0xFFF7E648  |  4294436424 |
|     207 | 0xFFFFFFF6  |  4294967286 |
|     208 | 0x01D6      |         470 |
|     209 | 0xFFFDDC02  |  4294827010 |
|     210 | 0xFFF7CC7C  |  4294429820 |
|     211 | 0xFFFFFC22  |  4294966306 |
|     212 | 0x0C00      |        3072 |
|     213 | 0xFFFDDC0D  |  4294827021 |
|     214 | 0xFFF7D394  |  4294431636 |
|     215 | 0xFFFFFFF0  |  4294967280 |
|     216 | 0x03DC      |         988 |
|     217 | 0x232C      |        9004 |
|     218 | 0x232D      |        9005 |
|     219 | 0x2330      |        9008 |
|     220 | 0x232E      |        9006 |
|     221 | 0x232F      |        9007 |
|     222 | 0x2331      |        9009 |
|     223 | 0x2371      |        9073 |
|     224 | 0x2372      |        9074 |
|     225 | 0x2373      |        9075 |
|     226 | 0x2374      |        9076 |
|     227 | 0x2207      |        8711 |
|     228 | 0x2375      |        9077 |
|     229 | 0x2376      |        9078 |
|     230 | 0x2377      |        9079 |
|     231 | 0x00B0      |         176 |
|     232 | 0x2378      |        9080 |
|     233 | 0x2345      |        9029 |
|     234 | 0x2346      |        9030 |
|     235 | 0x2347      |        9031 |
|     236 | 0x2342      |        9026 |
|     237 | 0x2344      |        9028 |
|     238 | 0x0023      |          35 |
|     239 | 0x0028      |          40 |
|     240 | 0x002D      |          45 |
|     241 | 0x0032      |          50 |
|     242 | 0x0064      |         100 |
|     243 | 0x01F4      |         500 |
|     244 | 0x05DC      |        1500 |
|     245 | 0x0BB8      |        3000 |
|     246 | 0x1388      |        5000 |
|     247 | 0x157C      |        5500 |
|     248 | 0x1770      |        6000 |
|     249 | 0x1964      |        6500 |
|     250 | 0x1B58      |        7000 |
|     251 | 0x1D4C      |        7500 |
|     252 | 0x1F40      |        8000 |
|     253 | 0x2134      |        8500 |
|     254 | 0x2710      |       10000 |
|     255 | 0x0037      |          55 |
|     256 | 0x0041      |          65 |
|     257 | 0x004B      |          75 |
|     258 | 0x0050      |          80 |
|     259 | 0x0055      |          85 |
|     260 | 0x005A      |          90 |
|     261 | 0x0096      |         150 |
|     262 | 0x012C      |         300 |
|     263 | 0x0190      |         400 |
|     264 | 0x0258      |         600 |
|     265 | 0x0320      |         800 |
|     266 | 0x07D0      |        2000 |
|     267 | 0x09C4      |        2500 |
|     268 | 0x0DAC      |        3500 |
|     269 | 0x0FA0      |        4000 |
|     270 | 0x1194      |        4500 |
|     271 | 0x251C      |        9500 |
|     272 | 0x2AF8      |       11000 |
|     273 | 0x2EE0      |       12000 |
|     274 | 0x32C8      |       13000 |
|     275 | 0x36B0      |       14000 |
|     276 | 0x3A98      |       15000 |
|     277 | 0x3E80      |       16000 |
|     278 | 0x4268      |       17000 |
|     279 | 0x4650      |       18000 |
|     280 | 0x4A38      |       19000 |
|     281 | 0x4E20      |       20000 |
|     282 | 0x55F0      |       22000 |
|     283 | 0x5DC0      |       24000 |
|     284 | 0x6590      |       26000 |
|     285 | 0x6D60      |       28000 |
|     286 | 0x7530      |       30000 |
|     287 | 0x7D00      |       32000 |
|     288 | 0x84D0      |       34000 |
|     289 | 0x8CA0      |       36000 |
|     290 | 0x9470      |       38000 |
|     291 | 0x9C40      |       40000 |
|     292 | 0xA410      |       42000 |
|     293 | 0xABE0      |       44000 |
|     294 | 0xB3B0      |       46000 |
|     295 | 0xBB80      |       48000 |
|     296 | 0xC350      |       50000 |
|     297 | 0xD6D8      |       55000 |
|     298 | 0xEA60      |       60000 |
|     299 | 0xFDE8      |       65000 |
|     300 | 0x11170     |       70000 |
|     301 | 0x124F8     |       75000 |
|     302 | 0x13880     |       80000 |
|     303 | 0x14C08     |       85000 |
|     304 | 0x15F90     |       90000 |
|     305 | 0x17318     |       95000 |
|     306 | 0x0955      |        2389 |
|     307 | 0x0956      |        2390 |
|     308 | 0x0957      |        2391 |
|     309 | 0x0958      |        2392 |
|     310 | 0x0959      |        2393 |
|     311 | 0x095A      |        2394 |
|     312 | 0x095B      |        2395 |
|     313 | 0x095C      |        2396 |
|     314 | 0x095D      |        2397 |
|     315 | 0x095E      |        2398 |
|     316 | 0x095F      |        2399 |
|     317 | 0x0960      |        2400 |
|     318 | 0x0961      |        2401 |
|     319 | 0x00FF      |         255 |

## String References

- **8704**: $0
- **8711**: Recreating race from points $0\`$1.
- **8912**: Welcome to the Chocobo Racing Association's (CRA) [San d'Oria/Bastok/Windurst] branch. This service desk is here to accommodate our beginning and intermediate racers.
- **8913**: I am sorry, but there are no races scheduled at the moment.
- **8914**: Participation in our organization's races requires that you either possess $0 or currently have your own full-grown chocobo.
- **8915**: How about you, [sir/ma'am]?
- **8916**: If possible, we would like you to join us, and help show those trainers in [Bastok and Windurst/San d'Oria and Windurst/San d'Oria and Bastok] which racing team is truly the best in Vana'diel.
- **8917**: What do you say? [Tell me more./Sign me up!/Not today.]
- **8918**: Congratulations, <Player>! You are now an official member of the CRA's [San d'Oria/Bastok/Windurst] racing team.
- **8919**: I see. Please come back if you ever change your mind!
- **8920**: What would you like to know? [Why race chocobos, anyway?/How do I register for a race?/How do I prepare for a race?/What are chocobucks?/What kind of races are there?/What are "racing teams"?/Quit./Return.]
- **8921**: Why not!? Our original plan was to establish locations across Vana'diel where people could test their birds' skills.
- **8922**: We felt that this would help us maintain breeder motivation, which in turn would ensure healthier, happier chocobos. A "win-win situation," as we like to call it in the business.
- **8923**: However, as rumors of these new facilities began to leak out into the world, people began speculating about the possibility of officially sanctioned chocobo races...
- **8924**: The VCS could not ignore the voice of the masses, and it was not long before a meeting was held, a vote was taken, and the CRA was formed.
- **8925**: And that's why I'm here, trying to enlist you and other top breeders into our noble ranks.
- **8926**: Oh, and for our more seasoned veterans who feel there are no challenges left for them here at the track, the CRA has finished preparing a new race. And rumor has that it's a doozie!
- **8927**: First of all, your chocobo must be fully grown. It doesn't matter if you are still tending to it, or if it has been sent to pasture, as long as it is large enough to ride.
- **8928**: Next, you must bring me either $0 or $1. This is all I will require. There are no hidden fees.
- **8929**: As your chocobo develops, be sure to re-register it. This will ensure that your steed is provided with the equipment that most suits its current condition.
- **8930**: Finally, you may only register one chocobo at a time, but are free to register a new bird whenever you wish. You need only speak with me to make any necessary changes.
- **8931**: Once you have registered your chocobo and entered it in a competition, the CRA will proceed in assigning it a licensed jockey.
- **8932**: Before each race you will be given the opportunity to give the jockey specific orders on his or her riding style.
- **8933**: In addition to these orders, you can also provide the jockey with items to use while riding, as well as equipment to improve your chocobo's performance.
- **8934**: Before a race, you can also check the strengths and weaknesses of the other participating chocobos. It is recommended that you use this data when deciding on what orders to give, or which items to equip.
- **8935**: Depending on your chocobo's performance in select CRA-sanctioned races, you may or may not receive a prize consisting of VCS-mint chocobucks.
- **8936**: Chocobucks can be used to purchase items, as well as upgrade your mount. Chocobucks are also required to participate in official races.
- **8937**: Currently, players can earn up to, but no more than, 1000 chocobucks. However, this may change without notice.
- **8938**: There are two main types of races.
- **8939**: The first type is called an official race. To participate in one of these, you will require chocobucks.
- **8940**: Placing in an official race will earn you gil. The more races you complete, the more respected you will become in the breeder community.
- **8941**: You may also take part in an official race as often as needed to complete the specified objectives.
- **8942**: However, after some of the more grueling races, you may be required to wait before entering the next. This is to give your chocobo, as well as the others, an opportunity to rest before running again.
- **8943**: The second type of race is called a free run. Unlike the official races, these can be run at any time, regardless of the results of a previous match.
- **8944**: You must pay a fee in gil to participate in free runs, but you will have the opportunity to earn chocobucks depending on your chocobo's performance. You can join as many free runs as you wish in a single day (Earth time), but extra fees may be required for each additional race. (Stable hands have to make a living, too!)
- **8945**: The CRA is split up into three racing teams representing Bastok, Windurst, and San d'Oria.
- **8946**: Each team has its own skilled jockeys, and offers unique services that cannot be obtained at the other two.
- **8947**: Breeders are allowed to register with any team they like, and may change their affiliation at any time.
- **8948**: In the event that you wish to leave a racing team, all official race results, as well as earned chocobucks, will be saved.
- **8949**: You never have to worry that your past accomplishments may be deleted and lost forever. You only need rejoin the team to restore all your old data.
- **8950**: Anyway, there is no harm in visiting all three racing teams to find which one suits you best (though I know you'll choose this one).
- **8951**: Ah, it says here that you are a member of the [San d'Oria/Bastok/Windurst] racing team.
- **8952**: Have you come today to change your affiliation?
- **8953**: Remember, you will not be able to use any chocobucks earned in [San d'Oria/Bastok/Windurst] here, and you will also lose any Solo Victory Points that you may have. Are you sure you want to go through with this?
- **8954**: Join this team? [Yes./No.]
- **8955**: Congratulations! You are the newest member of the CRA's [San d'Oria/Bastok/Windurst] racing team!
- **8956**: Understood. But remember, we are always looking for great racers like you to join our team. If you ever change your mind, I'll be right here waiting.
- **8957**: Ah, so you have brought items for your chocobo.
- **8958**: What do we have here...
- **8959**: #:
- **8960**: Alright, <Player>, I will store this in our safe.
- **8961**: Alright, <Player>, I will store these in our safe.
- **8962**: I am sorry, but you have already brought me one of those.
- **8963**: I am sorry, but you have already brought me these items.
- **8964**: Hello! What might I interest you in today?
- **8965**: (You have $3 [chocobuck/chocobucks].) [Chocobo [registration/confirmation]./Item confirmation./Free run ($1 gil)./Official race ($2 [chocobuck/chocobucks])./Re-run./Rule confirmation./Nothing.]
- **8967**: You cannot access this menu until you have registered a chocobo to race.
- **8968**: To register your chocobo, you must first bring me either $0 or $1.
- **8969**: You can only register one chocobo at a time, but you may always register a new one whenever you wish.
- **8970**: We currently hold for you: [/$1./$2./$3./$4./$5./$6./$7./$8./$9./$10./$11./$12./$13./$14./$15./$16./$17./$18./$19./$20./$21./$22./$23./$24./$25./$26./$27./$28./$29./$30./Quit./Return.]
- **8971**: With newly developed CRA technology, you can now relive the excitement of a previously cleared official race!
- **8972**: You may participate in these "re-runs" as many times as you wish, but just remember--the race may be the same, but the prizes for placing won't!
- **8973**: Re-run which race? [Novice Race I./Novice Race II./Novice Race III./Challenge Race I./International Race I./International Race II./Challenge Race II./CRA Classic./Quit./Return.]
- **8974**: ***Race Preparations*** [Race overview./Visit the paddock./Jockey orders: [Sprint/Keep pace/Final spurt]./Equipment: $1./Start race./Quit./Return.]
- **8975**: ***Race Preparations*** [Race overview./Visit the paddock./Jockey orders: [Sprint/Keep pace/Final spurt]./Equipment: None./Start race./Quit./Return.]
- **8976**: Here is the information on the next race:
- **8977**: ----------------------------------------
- **8978**: $26Free Run$26 Chocobos: 8 Objective: None
- **8979**: While free runs usually have no specific objectives, the higher your chocobo places, the better the prize you will receive. We suggest you use these races to improve your skills before embarking on the more difficult official races.
- **8980**: Here is the information on the next race:
- **8981**: $26Novice Race I$26 Chocobos: 4 Objective: Place 3rd or higher
- **8982**: Use this race to learn the ropes. Try not to worry too much about the other chocobos, and concentrate on discovering your bird's strengths and weaknesses.
- **8983**: $26Novice Race II$26 Chocobos: 6 Objective: Place 3rd or higher
- **8984**: This time, your chocobo will be pitted against five opponents. Use your knowledge of your bird's strengths to provide the jockey with the most appropriate orders.
- **8985**: $26Novice Race III$26 Chocobos: 8 Objective: Place 3rd or higher
- **8986**: This race is quite similar to a free run in that there will be seven other chocobos racing against you. If you have one available, try equipping an item to improve your bird's performance.
- **8987**: $26Challenge Race I$26 Chocobos: 2 Objective: Place 1st
- **8988**: Three of our most revered breeders have heard of your success and wish to challenge you in a head-to-head match.
- **8989**: $26International Race I$26 Chocobos: 8 Objective: Place 3rd or higher
- **8990**: The [Bastok/Windurst/San d'Oria] racing team has requested your participation in a nationally sponsored match. The pride of our branch is at stake, <Player>!
- **8991**: $26International Race II$26 Chocobos: 8 Objective: Place 3rd or higher
- **8992**: The [Windurst/San d'Oria/Bastok] racing team has requested your participation in a nationally sponsored match. You represented us well last time, <Player>. We're counting on you again!
- **8993**: $26Challenge Race II$26 Chocobos: 3 Objective: Place 1st
- **8994**: The challengers you defeated previously have requested a rematch. Also, [Hantileon/Zopago/Pulonono] has expressed interest in this race, and would like to participate as well.
- **8995**: $26CRA Classic$26 Chocobos: 8 Objective: Place 1st
- **8996**: The title of "fastest chocobo in the [Kingdom/Republic/Federation]" is up for grabs at the [d'Oraguille Victory Malm/Gustaberg Derby/Rakapopo Cup] sponsored by [the king himself/the president himself/Manustery minister Apururu herself]!
- **8997**: Participation fee: $0 [chocobuck/chocobucks].
- **8998**: Please select chocobo: [Entry No. 1./Entry No. 2./Entry No. 3./Entry No. 4./Entry No. 5./Entry No. 6./Entry No. 7./Entry No. 8./Quit./Return.]
- **8999**: $0 \` Owner: %7Affiliation: [None/San d'Oria Branch/Bastok Branch/Windurst Branch] Gender: [Male/Female]
- **9000**: Entry No. $3 $0 \` Owner: %7Affiliation: [None/San d'Oria/Bastok/Windurst] Gender: [Male/Female]
- **9001**: Entry No. $3 $1 \` Affiliation: [None/San d'Oria/Bastok/Windurst] Gender: [Male/Female] Orders: [Sprint/Keep pace/Final spurt]
- **9002**: Strength: [Poor/Substandard/A bit deficient/Average/Better than average/Impressive/Outstanding/First-class] Endurance: [Poor/Substandard/A bit deficient/Average/Better than average/Impressive/Outstanding/First-class] Discernment: [Poor/Substandard/A bit deficient/Average/Better than average/Impressive/Outstanding/First-class] Receptivity: [Poor/Substandard/A bit deficient/Average/Better than average/Impressive/Outstanding/First-class]
- **9003**: Weather: Prefers: [Clear days/Hot, sunny days/Rainy days/Sandstorms/Windy days/Snowy days/Thunderstorms/Auroras/Dark days/None/Cloudy days] Dislikes: [None/Rainy days/Thunderstorms/Windy days/Snowy days/Hot, sunny days/Sandstorms/Dark days/Auroras/None/None] Abilities: [None/Gallop/Canter/Burrow/Bore/Auto-Regen/Treasure Finder][/ & Gallop/ & Canter/ & Burrow/ & Bore/ & Auto-Regen/ & Treasure Finder]
- **9004**: Change orders to: [Sprint./Keep pace./Final spurt./Quit./Return.]
- **9005**: Sprint: Have the jockey push your chocobo to its limits from the get go.
- **9006**: Keep pace: Have the jockey maintain a consistent pace throughout the whole race.
- **9007**: Final spurt: Have the jockey save your chocobo's energy until the end of the race.
- **9008**: Is this what you want? [Definitely./Not at all.]
- **9009**: Equip which item? [Nothing./$1./$2./$3./$4./$5./$6./$7./$8./$9./$10./$11./$12./$13./$14./$15./$16./$17./$18./$19./$20./$21./$22./$23./$24./$25./$26./$27./$28./$29./$30./Quit./Return.]
- **9010**: These are used during a race to temporarily boost the speed of your chocobo.
- **9011**: These are used during a race to temporarily regenerate your chocobo's stamina.
- **9012**: These are used during a race to temporarily resist the effects of any detrimental items aimed at your chocobo.
- **9013**: These are used during a race to greatly reduce the speed of an opponent chocobo.
- **9014**: These are used during a race to greatly reduce the stamina of an opponent chocobo.
- **9015**: These are used during a race to temporarily reduce the speed of all surrounding opponent chocobos.
- **9016**: These are used during a race to reduce the discernment of all surrounding opponent chocobos.
- **9017**: These are used during a race to temporarily clear up the weather.
- **9018**: These are used during a race to temporarily call upon a rainstorm.
- **9019**: When equipped during a race, this item will slightly increase the strength of your chocobo.
- **9020**: When equipped during a race, this item will slightly increase the stamina of your chocobo.
- **9021**: When equipped during a race, this item will slightly increase the discernment of your chocobo.
- **9022**: When equipped during a race, this item will slightly increase the receptivity of your chocobo.
- **9024**: I am so sorry, but it seems you do not possess enough chocobucks to participate in the next race.
- **9025**: I am so, so sorry, but it seems that you do not possess enough gil to enter your chocobo in the next race.
- **9026**: Congratulations[ on your victory/], <Player>. All of us here wish you the best of luck on your next race!
- **9028**: Don't worry too much about the results of that last race. You must learn from your experience and prepare yourself for the next challenge.
- **9029**: Congratulations! That final victory has put you in leagues with [San d'Oria's/Bastok's/Windurst's] finest riders!
- **9030**: All of us here are eager to see what accomplishments you will achieve next!
- **9031**: Oh, and do be careful with your $0. If you happen to accidentally dispose of it, you will never be able to receive one again.
- **9032**: So you wish to register a chocobo.
- **9033**: Let me see... $1 has already been registered.
- **9034**: Do you wish to cancel $1's registration and sign up $0?
- **9035**: Register $0? [Yes./No.]
- **9036**: Excellent! $0 has been successfully registered.
- **9037**: Very well.
- **9038**: I'm sorry. You have already registered that chocobo. You may race it at any time.
- **9039**: I'm sorry. Things are a little confusing now with all these entries. Would you mind coming back a little later? Thank you.
- **9040**: I'm sorry. The other chocobos have not finished resting. Please come back a little later.
- **9041**: One moment please while entries are confirmed with CRA headquarters.
- **9045**: Ah, <Player>. We have been holding on to the prize from your last race until you had room enough in your gobbiebag to carry it back to your Mog House.
- **9046**: Might you be <Player>? Excellent. VCS headquarters was informed that you would be stopping by our branch, and sent this package containing the prize from your last race.
- **9047**: <Player>, thank you for waiting.
- **9048**: Much to the VCS and the CRA's delight, the recent efforts of chocobo breeders across Vana'diel has helped to generate an unprecedented amount of interest in our endeavor. More people than ever have begun to express an interest in raising their own chocobo.
- **9049**: As a means of expressing our gratitude, we have therefore decided to confer upon the victors of CRA Classics rewards befitting a champion. We congratulate you on your impressive achievement, <Player>. You are a true inspiration for breeders everywhere!
- **9050**: Hello there, <Player>. Why yes, we are holding your $0. Here you are.
- **9051**: Good day to you, <Player>. Indeed, we are currently holding your $0 from the CRA for safekeeping. Here you are.
- **9073**: Select goodness: [Race portion ($0/$1)./Cut Scene ([Yes/No])./Opening ([Yes/No])./On screen text ([On/Off])./Cancel Race./Start Race.]
- **9074**: Select race portion? [Yes./No.]
- **9075**: Select starting node. (0-31)
- **9076**: Select ending node. (1-32)
- **9077**: Play Cut Scene? [Yessir./No way.]
- **9078**: Play Opening? [Yep./Nope.]
- **9079**: Display Condition? [Yes./No. (Default)]
- **9080**: $0/$1/$2/$3 $4/$5/$6/$7
- **9363**: My apologies, [sir/ma'am], but it appears that you have yet to conduct all of the necessary processing at the service area for advanced and veteran racers. Please speak to the attendants there for further assistance.
- **9433**: Skip the racing scene? [Yes, please./No. I've got front-row seats!]
- **9434**: You have placed [first/second/third/fourth/fifth/sixth/seventh/eighth]!

## Events

### Event 65535

#### Metadata

| Field        | Value   |
|--------------|---------|
| Entrypoint   | 0x0000  |
| Data Size    | 1 bytes |
| Instructions | 1       |

```
      00 01 02 03 04 05 06 07  08 09 0A 0B 0C 0D 0E 0F
      -- -- -- -- -- -- -- --  -- -- -- -- -- -- -- --
0000: 00                                                .               
```

#### Opcodes

```
  0: 0x0000 [0x00] END_REQSTACK()
```

### Event 451

#### Metadata

| Field        | Value     |
|--------------|-----------|
| Entrypoint   | 0x0001    |
| Data Size    | 339 bytes |
| Instructions | 113       |

```
      00 01 02 03 04 05 06 07  08 09 0A 0B 0C 0D 0E 0F
      -- -- -- -- -- -- -- --  -- -- -- -- -- -- -- --
0000:    03 41 10 00 80 42 1E  F0 FF FF 7F 03 1D 00 02   .A...B.........
0010: 10 1D 01 80 23 03 03 10  02 10 03 02 10 02 80 1D  ....#...........
0020: 03 80 23 03 02 10 1D 00  1D 04 80 23 1D 05 80 23  ..#........#...#
0030: 24 06 80 07 80 07 80 25  02 00 10 07 80 00 32 01  $......%......2.
0040: 06 17 00 02 17 00 07 80  00 2F 01 24 08 80 07 80  ........./.$....
0050: 07 80 25 02 00 10 07 80  00 76 00 1D 09 80 23 1D  ..%......v....#.
0060: 0A 80 23 1D 0B 80 23 1D  0C 80 23 1D 0D 80 23 1D  ..#...#...#...#.
0070: 0E 80 23 01 2C 01 02 00  10 00 80 00 9B 00 03 02  ..#.,...........
0080: 10 02 80 03 03 10 0F 80  1D 10 80 23 1D 11 80 23  ...........#...#
0090: 1D 12 80 23 1D 13 80 23  01 2C 01 02 00 10 14 80  ...#...#.,......
00A0: 00 B6 00 1D 15 80 23 1D  16 80 23 1D 17 80 23 1D  ......#...#...#.
00B0: 18 80 23 01 2C 01 02 00  10 19 80 00 CD 00 1D 1A  ..#.,...........
00C0: 80 23 1D 1B 80 23 1D 1C  80 23 01 2C 01 02 00 10  .#...#...#.,....
00D0: 1D 80 00 F4 00 1D 1E 80  23 1D 1F 80 23 1D 20 80  ........#...#. .
00E0: 23 1D 21 80 23 1D 22 80  23 1D 23 80 23 1D 24 80  #.!.#.".#.#.#.$.
00F0: 23 01 2C 01 02 00 10 25  80 00 1C 01 1D 26 80 23  #.,....%.....&.#
0100: 1D 27 80 23 1D 28 80 23  1D 29 80 23 1D 2A 80 23  .'.#.(.#.).#.*.#
0110: 03 02 10 1D 00 1D 2B 80  23 01 2C 01 02 00 10 2C  ......+.#.,....,
0120: 80 00 29 01 21 00 01 2C  01 01 30 00 01 43 00 01  ..).!..,..0..C..
0130: 52 01 02 00 10 00 80 00  4B 01 03 03 10 1D 00 1D  R.......K.......
0140: 2D 80 23 03 01 10 00 80  01 52 01 1D 2E 80 23 06  -.#......R....#.
0150: 01 10 21 00                                       ..!.            
```

#### Opcodes

```
  0: 0x0001 [0x03] Work_Zone[65] = 1*
  1: 0x0006 [0x42] SET_CLI_EVENT_CANCEL_DATA()
  2: 0x0007 [0x1E] EventEntity looks at LocalPlayer and starts talking
  3: 0x000C [0x03] ExtData[1]->WorkLocal[29] = Work_Zone[2]
  4: 0x0011 [0x1D] PRINT_EVENT_MESSAGE(message_id=8912*)
    → "Welcome to the Chocobo Racing Association's (CRA) [San d'Oria/Bastok/Windurst] branch. This service desk is here to accommodate our beginning and intermediate racers."
  5: 0x0014 [0x23] WAIT_FOR_DIALOG_INTERACTION
  6: 0x0015 [0x03] Work_Zone[3] = Work_Zone[2]
  7: 0x001A [0x03] Work_Zone[2] = 2313*
  8: 0x001F [0x1D] PRINT_EVENT_MESSAGE(message_id=8914*)
    → "Participation in our organization's races requires that you either possess $0 or currently have your own full-grown chocobo."
  9: 0x0022 [0x23] WAIT_FOR_DIALOG_INTERACTION
 10: 0x0023 [0x03] Work_Zone[2] = ExtData[1]->WorkLocal[29]
 11: 0x0028 [0x1D] PRINT_EVENT_MESSAGE(message_id=8915*)
    → "How about you, [sir/ma'am]?"
 12: 0x002B [0x23] WAIT_FOR_DIALOG_INTERACTION
 13: 0x002C [0x1D] PRINT_EVENT_MESSAGE(message_id=8916*)
    → "If possible, we would like you to join us, and help show those trainers in [Bastok and Windurst/San d'Oria and Windurst/San d'Oria and Bastok] which racing team is truly the best in Vana'diel."
 14: 0x002F [0x23] WAIT_FOR_DIALOG_INTERACTION
 15: 0x0030 [0x24] CREATE_DIALOG(message_id=8917*, default_option=0*, option_flags=0*)
    → "What do you say? [Tell me more./Sign me up!/Not today.]"
 16: 0x0037 [0x25] WAIT_DIALOG_SELECT()
 17: 0x0038 [0x02] IF !(Work_Zone[0] == 0*) GOTO 0x0132
 18: 0x0040 [0x06] ExtData[1]->WorkLocal[23] = 0
 19: 0x0043 [0x02] IF !(ExtData[1]->WorkLocal[23] == 0*) GOTO 0x012F
 20: 0x004B [0x24] CREATE_DIALOG(message_id=8920*, default_option=0*, option_flags=0*)
    → "What would you like to know? [Why race chocobos, anyway?/How do I register for a race?/How do I prepare for a race?/What are chocobucks?/What kind of races are there?/What are "racing teams"?/Quit./Return.]"
 21: 0x0052 [0x25] WAIT_DIALOG_SELECT()
 22: 0x0053 [0x02] IF !(Work_Zone[0] == 0*) GOTO 0x0076
 23: 0x005B [0x1D] PRINT_EVENT_MESSAGE(message_id=8921*)
    → "Why not!? Our original plan was to establish locations across Vana'diel where people could test their birds' skills."
 24: 0x005E [0x23] WAIT_FOR_DIALOG_INTERACTION
 25: 0x005F [0x1D] PRINT_EVENT_MESSAGE(message_id=8922*)
    → "We felt that this would help us maintain breeder motivation, which in turn would ensure healthier, happier chocobos. A "win-win situation," as we like to call it in the business."
 26: 0x0062 [0x23] WAIT_FOR_DIALOG_INTERACTION
 27: 0x0063 [0x1D] PRINT_EVENT_MESSAGE(message_id=8923*)
    → "However, as rumors of these new facilities began to leak out into the world, people began speculating about the possibility of officially sanctioned chocobo races..."
 28: 0x0066 [0x23] WAIT_FOR_DIALOG_INTERACTION
 29: 0x0067 [0x1D] PRINT_EVENT_MESSAGE(message_id=8924*)
    → "The VCS could not ignore the voice of the masses, and it was not long before a meeting was held, a vote was taken, and the CRA was formed."
 30: 0x006A [0x23] WAIT_FOR_DIALOG_INTERACTION
 31: 0x006B [0x1D] PRINT_EVENT_MESSAGE(message_id=8925*)
    → "And that's why I'm here, trying to enlist you and other top breeders into our noble ranks."
 32: 0x006E [0x23] WAIT_FOR_DIALOG_INTERACTION
 33: 0x006F [0x1D] PRINT_EVENT_MESSAGE(message_id=8926*)
    → "Oh, and for our more seasoned veterans who feel there are no challenges left for them here at the track, the CRA has finished preparing a new race. And rumor has that it's a doozie!"
 34: 0x0072 [0x23] WAIT_FOR_DIALOG_INTERACTION
 35: 0x0073 [0x01] GOTO 0x012C
 36: 0x0076 [0x02] IF !(Work_Zone[0] == 1*) GOTO 0x009B
 37: 0x007E [0x03] Work_Zone[2] = 2313*
 38: 0x0083 [0x03] Work_Zone[3] = 2402*
 39: 0x0088 [0x1D] PRINT_EVENT_MESSAGE(message_id=8927*)
    → "First of all, your chocobo must be fully grown. It doesn't matter if you are still tending to it, or if it has been sent to pasture, as long as it is large enough to ride."
 40: 0x008B [0x23] WAIT_FOR_DIALOG_INTERACTION
 41: 0x008C [0x1D] PRINT_EVENT_MESSAGE(message_id=8928*)
    → "Next, you must bring me either $0 or $1. This is all I will require. There are no hidden fees."
 42: 0x008F [0x23] WAIT_FOR_DIALOG_INTERACTION
 43: 0x0090 [0x1D] PRINT_EVENT_MESSAGE(message_id=8929*)
    → "As your chocobo develops, be sure to re-register it. This will ensure that your steed is provided with the equipment that most suits its current condition."
 44: 0x0093 [0x23] WAIT_FOR_DIALOG_INTERACTION
 45: 0x0094 [0x1D] PRINT_EVENT_MESSAGE(message_id=8930*)
    → "Finally, you may only register one chocobo at a time, but are free to register a new bird whenever you wish. You need only speak with me to make any necessary changes."
 46: 0x0097 [0x23] WAIT_FOR_DIALOG_INTERACTION
 47: 0x0098 [0x01] GOTO 0x012C
 48: 0x009B [0x02] IF !(Work_Zone[0] == 2*) GOTO 0x00B6
 49: 0x00A3 [0x1D] PRINT_EVENT_MESSAGE(message_id=8931*)
    → "Once you have registered your chocobo and entered it in a competition, the CRA will proceed in assigning it a licensed jockey."
 50: 0x00A6 [0x23] WAIT_FOR_DIALOG_INTERACTION
 51: 0x00A7 [0x1D] PRINT_EVENT_MESSAGE(message_id=8932*)
    → "Before each race you will be given the opportunity to give the jockey specific orders on his or her riding style."
 52: 0x00AA [0x23] WAIT_FOR_DIALOG_INTERACTION
 53: 0x00AB [0x1D] PRINT_EVENT_MESSAGE(message_id=8933*)
    → "In addition to these orders, you can also provide the jockey with items to use while riding, as well as equipment to improve your chocobo's performance."
 54: 0x00AE [0x23] WAIT_FOR_DIALOG_INTERACTION
 55: 0x00AF [0x1D] PRINT_EVENT_MESSAGE(message_id=8934*)
    → "Before a race, you can also check the strengths and weaknesses of the other participating chocobos. It is recommended that you use this data when deciding on what orders to give, or which items to equip."
 56: 0x00B2 [0x23] WAIT_FOR_DIALOG_INTERACTION
 57: 0x00B3 [0x01] GOTO 0x012C
 58: 0x00B6 [0x02] IF !(Work_Zone[0] == 3*) GOTO 0x00CD
 59: 0x00BE [0x1D] PRINT_EVENT_MESSAGE(message_id=8935*)
    → "Depending on your chocobo's performance in select CRA-sanctioned races, you may or may not receive a prize consisting of VCS-mint chocobucks."
 60: 0x00C1 [0x23] WAIT_FOR_DIALOG_INTERACTION
 61: 0x00C2 [0x1D] PRINT_EVENT_MESSAGE(message_id=8936*)
    → "Chocobucks can be used to purchase items, as well as upgrade your mount. Chocobucks are also required to participate in official races."
 62: 0x00C5 [0x23] WAIT_FOR_DIALOG_INTERACTION
 63: 0x00C6 [0x1D] PRINT_EVENT_MESSAGE(message_id=8937*)
    → "Currently, players can earn up to, but no more than, 1000 chocobucks. However, this may change without notice."
 64: 0x00C9 [0x23] WAIT_FOR_DIALOG_INTERACTION
 65: 0x00CA [0x01] GOTO 0x012C
 66: 0x00CD [0x02] IF !(Work_Zone[0] == 4*) GOTO 0x00F4
 67: 0x00D5 [0x1D] PRINT_EVENT_MESSAGE(message_id=8938*)
    → "There are two main types of races."
 68: 0x00D8 [0x23] WAIT_FOR_DIALOG_INTERACTION
 69: 0x00D9 [0x1D] PRINT_EVENT_MESSAGE(message_id=8939*)
    → "The first type is called an official race. To participate in one of these, you will require chocobucks."
 70: 0x00DC [0x23] WAIT_FOR_DIALOG_INTERACTION
 71: 0x00DD [0x1D] PRINT_EVENT_MESSAGE(message_id=8940*)
    → "Placing in an official race will earn you gil. The more races you complete, the more respected you will become in the breeder community."
 72: 0x00E0 [0x23] WAIT_FOR_DIALOG_INTERACTION
 73: 0x00E1 [0x1D] PRINT_EVENT_MESSAGE(message_id=8941*)
    → "You may also take part in an official race as often as needed to complete the specified objectives."
 74: 0x00E4 [0x23] WAIT_FOR_DIALOG_INTERACTION
 75: 0x00E5 [0x1D] PRINT_EVENT_MESSAGE(message_id=8942*)
    → "However, after some of the more grueling races, you may be required to wait before entering the next. This is to give your chocobo, as well as the others, an opportunity to rest before running again."
 76: 0x00E8 [0x23] WAIT_FOR_DIALOG_INTERACTION
 77: 0x00E9 [0x1D] PRINT_EVENT_MESSAGE(message_id=8943*)
    → "The second type of race is called a free run. Unlike the official races, these can be run at any time, regardless of the results of a previous match."
 78: 0x00EC [0x23] WAIT_FOR_DIALOG_INTERACTION
 79: 0x00ED [0x1D] PRINT_EVENT_MESSAGE(message_id=8944*)
    → "You must pay a fee in gil to participate in free runs, but you will have the opportunity to earn chocobucks depending on your chocobo's performance. You can join as many free runs as you wish in a single day (Earth time), but extra fees may be required for each additional race. (Stable hands have to make a living, too!)"
 80: 0x00F0 [0x23] WAIT_FOR_DIALOG_INTERACTION
 81: 0x00F1 [0x01] GOTO 0x012C
 82: 0x00F4 [0x02] IF !(Work_Zone[0] == 5*) GOTO 0x011C
 83: 0x00FC [0x1D] PRINT_EVENT_MESSAGE(message_id=8945*)
    → "The CRA is split up into three racing teams representing Bastok, Windurst, and San d'Oria."
 84: 0x00FF [0x23] WAIT_FOR_DIALOG_INTERACTION
 85: 0x0100 [0x1D] PRINT_EVENT_MESSAGE(message_id=8946*)
    → "Each team has its own skilled jockeys, and offers unique services that cannot be obtained at the other two."
 86: 0x0103 [0x23] WAIT_FOR_DIALOG_INTERACTION
 87: 0x0104 [0x1D] PRINT_EVENT_MESSAGE(message_id=8947*)
    → "Breeders are allowed to register with any team they like, and may change their affiliation at any time."
 88: 0x0107 [0x23] WAIT_FOR_DIALOG_INTERACTION
 89: 0x0108 [0x1D] PRINT_EVENT_MESSAGE(message_id=8948*)
    → "In the event that you wish to leave a racing team, all official race results, as well as earned chocobucks, will be saved."
 90: 0x010B [0x23] WAIT_FOR_DIALOG_INTERACTION
 91: 0x010C [0x1D] PRINT_EVENT_MESSAGE(message_id=8949*)
    → "You never have to worry that your past accomplishments may be deleted and lost forever. You only need rejoin the team to restore all your old data."
 92: 0x010F [0x23] WAIT_FOR_DIALOG_INTERACTION
 93: 0x0110 [0x03] Work_Zone[2] = ExtData[1]->WorkLocal[29]
 94: 0x0115 [0x1D] PRINT_EVENT_MESSAGE(message_id=8950*)
    → "Anyway, there is no harm in visiting all three racing teams to find which one suits you best (though I know you'll choose this one)."
 95: 0x0118 [0x23] WAIT_FOR_DIALOG_INTERACTION
 96: 0x0119 [0x01] GOTO 0x012C
 97: 0x011C [0x02] IF !(Work_Zone[0] == 6*) GOTO 0x0129
 98: 0x0124 [0x21] END_EVENT
 99: 0x0125 [0x00] END_REQSTACK()

SUBROUTINE_012C:
100: 0x012C [0x01] GOTO 0x0043
101: 0x012F [0x01] GOTO 0x0152
102: 0x0132 [0x02] IF !(Work_Zone[0] == 1*) GOTO 0x014B
103: 0x013A [0x03] Work_Zone[3] = ExtData[1]->WorkLocal[29]
104: 0x013F [0x1D] PRINT_EVENT_MESSAGE(message_id=8918*)
    → "Congratulations, <Player>! You are now an official member of the CRA's [San d'Oria/Bastok/Windurst] racing team."
105: 0x0142 [0x23] WAIT_FOR_DIALOG_INTERACTION
106: 0x0143 [0x03] Work_Zone[1] = 1*
107: 0x0148 [0x01] GOTO 0x0152
108: 0x014B [0x1D] PRINT_EVENT_MESSAGE(message_id=8919*)
    → "I see. Please come back if you ever change your mind!"
109: 0x014E [0x23] WAIT_FOR_DIALOG_INTERACTION
110: 0x014F [0x06] Work_Zone[1] = 0

SUBROUTINE_0152:
111: 0x0152 [0x21] END_EVENT
112: 0x0153 [0x00] END_REQSTACK()
```

#### Data or dead code:

```
# Dead code (unreachable instructions):
     0x0126 [0x01] GOTO 0x012C
```

### Event 452

#### Metadata

| Field        | Value    |
|--------------|----------|
| Entrypoint   | 0x0154   |
| Data Size    | 26 bytes |
| Instructions | 10       |

```
      00 01 02 03 04 05 06 07  08 09 0A 0B 0C 0D 0E 0F
      -- -- -- -- -- -- -- --  -- -- -- -- -- -- -- --
0150:             03 41 10 00  80 42 1E F0 FF FF 7F 03      .A...B......
0160: 1D 00 02 10 1D 01 80 23  1D 2F 80 23 21 00        .......#./.#!.  
```

#### Opcodes

```
  0: 0x0154 [0x03] Work_Zone[65] = 1*
  1: 0x0159 [0x42] SET_CLI_EVENT_CANCEL_DATA()
  2: 0x015A [0x1E] EventEntity looks at LocalPlayer and starts talking
  3: 0x015F [0x03] ExtData[1]->WorkLocal[29] = Work_Zone[2]
  4: 0x0164 [0x1D] PRINT_EVENT_MESSAGE(message_id=8912*)
    → "Welcome to the Chocobo Racing Association's (CRA) [San d'Oria/Bastok/Windurst] branch. This service desk is here to accommodate our beginning and intermediate racers."
  5: 0x0167 [0x23] WAIT_FOR_DIALOG_INTERACTION
  6: 0x0168 [0x1D] PRINT_EVENT_MESSAGE(message_id=9363*)
    → "My apologies, [sir/ma'am], but it appears that you have yet to conduct all of the necessary processing at the service area for advanced and veteran racers. Please speak to the attendants there for further assistance."
  7: 0x016B [0x23] WAIT_FOR_DIALOG_INTERACTION
  8: 0x016C [0x21] END_EVENT
  9: 0x016D [0x00] END_REQSTACK()
```

### Event 453

#### Metadata

| Field        | Value    |
|--------------|----------|
| Entrypoint   | 0x016E   |
| Data Size    | 57 bytes |
| Instructions | 20       |

```
      00 01 02 03 04 05 06 07  08 09 0A 0B 0C 0D 0E 0F
      -- -- -- -- -- -- -- --  -- -- -- -- -- -- -- --
0160:                                            03 41                .A
0170: 10 00 80 42 1E F0 FF FF  7F 1D 30 80 23 1D 31 80  ...B......0.#.1.
0180: 23 1D 32 80 23 24 33 80  00 80 07 80 25 02 00 10  #.2.#$3.....%...
0190: 07 80 00 A1 01 1D 34 80  23 03 01 10 00 80 01 A5  ......4.#.......
01A0: 01 1D 35 80 23 21 00                              ..5.#!.         
```

#### Opcodes

```
  0: 0x016E [0x03] Work_Zone[65] = 1*
  1: 0x0173 [0x42] SET_CLI_EVENT_CANCEL_DATA()
  2: 0x0174 [0x1E] EventEntity looks at LocalPlayer and starts talking
  3: 0x0179 [0x1D] PRINT_EVENT_MESSAGE(message_id=8951*)
    → "Ah, it says here that you are a member of the [San d'Oria/Bastok/Windurst] racing team."
  4: 0x017C [0x23] WAIT_FOR_DIALOG_INTERACTION
  5: 0x017D [0x1D] PRINT_EVENT_MESSAGE(message_id=8952*)
    → "Have you come today to change your affiliation?"
  6: 0x0180 [0x23] WAIT_FOR_DIALOG_INTERACTION
  7: 0x0181 [0x1D] PRINT_EVENT_MESSAGE(message_id=8953*)
    → "Remember, you will not be able to use any chocobucks earned in [San d'Oria/Bastok/Windurst] here, and you will also lose any Solo Victory Points that you may have. Are you sure you want to go through with this?"
  8: 0x0184 [0x23] WAIT_FOR_DIALOG_INTERACTION
  9: 0x0185 [0x24] CREATE_DIALOG(message_id=8954*, default_option=1*, option_flags=0*)
    → "Join this team? [Yes./No.]"
 10: 0x018C [0x25] WAIT_DIALOG_SELECT()
 11: 0x018D [0x02] IF !(Work_Zone[0] == 0*) GOTO 0x01A1
 12: 0x0195 [0x1D] PRINT_EVENT_MESSAGE(message_id=8955*)
    → "Congratulations! You are the newest member of the CRA's [San d'Oria/Bastok/Windurst] racing team!"
 13: 0x0198 [0x23] WAIT_FOR_DIALOG_INTERACTION
 14: 0x0199 [0x03] Work_Zone[1] = 1*
 15: 0x019E [0x01] GOTO 0x01A5
 16: 0x01A1 [0x1D] PRINT_EVENT_MESSAGE(message_id=8956*)
    → "Understood. But remember, we are always looking for great racers like you to join our team. If you ever change your mind, I'll be right here waiting."
 17: 0x01A4 [0x23] WAIT_FOR_DIALOG_INTERACTION

SUBROUTINE_01A5:
 18: 0x01A5 [0x21] END_EVENT
 19: 0x01A6 [0x00] END_REQSTACK()
```

### Event 454

#### Metadata

| Field        | Value     |
|--------------|-----------|
| Entrypoint   | 0x01A7    |
| Data Size    | 189 bytes |
| Instructions | 51        |

```
      00 01 02 03 04 05 06 07  08 09 0A 0B 0C 0D 0E 0F
      -- -- -- -- -- -- -- --  -- -- -- -- -- -- -- --
01A0:                      03  41 10 00 80 42 1E F0 FF         .A...B...
01B0: FF 7F 1D 36 80 23 02 02  10 07 80 00 5E 02 1D 37  ...6.#......^..7
01C0: 80 23 03 17 00 00 80 06  02 10 06 00 17 02 17 00  .#..............
01D0: 38 80 05 FE 01 3E 03 10  17 00 F6 01 9D 00 71 25  8....>........q%
01E0: 02 10 17 00 93 02 10 1D  39 80 23 03 1D 17 17 00  ........9.#.....
01F0: 1A B4 0C 0B 00 17 07 17  00 00 80 01 CD 01 93 07  ................
0200: 80 02 00 17 00 80 00 10  02 1D 3A 80 23 01 14 02  ..........:.#...
0210: 1D 3B 80 23 06 17 00 06  00 17 02 17 00 38 80 05  .;.#.........8..
0220: 40 02 3E 05 10 17 00 38  02 9D 00 71 25 02 10 17  @.>....8...q%...
0230: 00 1D 39 80 23 0B 00 17  07 17 00 00 80 01 1A 02  ..9.#...........
0240: 02 00 17 07 80 02 5B 02  02 00 17 00 80 00 57 02  ......[.......W.
0250: 1D 3C 80 23 01 5B 02 1D  3D 80 23 01 62 02 1D 3C  .<.#.[..=.#.b..<
0260: 80 23 21 00                                       .#!.            
```

#### Opcodes

```
  0: 0x01A7 [0x03] Work_Zone[65] = 1*
  1: 0x01AC [0x42] SET_CLI_EVENT_CANCEL_DATA()
  2: 0x01AD [0x1E] EventEntity looks at LocalPlayer and starts talking
  3: 0x01B2 [0x1D] PRINT_EVENT_MESSAGE(message_id=8957*)
    → "Ah, so you have brought items for your chocobo."
  4: 0x01B5 [0x23] WAIT_FOR_DIALOG_INTERACTION
  5: 0x01B6 [0x02] IF !(Work_Zone[2] == 0*) GOTO 0x025E
  6: 0x01BE [0x1D] PRINT_EVENT_MESSAGE(message_id=8958*)
    → "What do we have here..."
  7: 0x01C1 [0x23] WAIT_FOR_DIALOG_INTERACTION
  8: 0x01C2 [0x03] ExtData[1]->WorkLocal[23] = 1*
  9: 0x01C7 [0x06] Work_Zone[2] = 0
 10: 0x01CA [0x06] Work_Zone_1700[0] = 0
 11: 0x01CD [0x02] IF !(ExtData[1]->WorkLocal[23] > 30*) GOTO 0x01FE
 12: 0x01D5 [0x3E] IF !(Work_Zone[3] bit ExtData[1]->WorkLocal[23]) GOTO 0x01F6
 13: 0x01DC [0x9D] Work_Zone[2] = 0x2571[ExtData[1]->WorkLocal[23]] // Read WORD
 14: 0x01E4 [0x93] DISPLAY_ITEM_INFO(item_id=Work_Zone[2])
 15: 0x01E7 [0x1D] PRINT_EVENT_MESSAGE(message_id=8959*)
    → "#:"
 16: 0x01EA [0x23] WAIT_FOR_DIALOG_INTERACTION
 17: 0x01EB [0x03] Work_Zone_1700[29] = ExtData[1]->WorkLocal[23]
 18: 0x01F0 [0x1A] CALL_SUBROUTINE(address=0x0CB4)
 19: 0x01F3 [0x0B] Work_Zone_1700[0]++
 20: 0x01F6 [0x07] ExtData[1]->WorkLocal[23] += 1*
 21: 0x01FB [0x01] GOTO 0x01CD
 22: 0x01FE [0x93] DISPLAY_ITEM_INFO(item_id=0*)
 23: 0x0201 [0x02] IF !(Work_Zone_1700[0] == 1*) GOTO 0x0210
 24: 0x0209 [0x1D] PRINT_EVENT_MESSAGE(message_id=8960*)
    → "Alright, <Player>, I will store this in our safe."
 25: 0x020C [0x23] WAIT_FOR_DIALOG_INTERACTION
 26: 0x020D [0x01] GOTO 0x0214
 27: 0x0210 [0x1D] PRINT_EVENT_MESSAGE(message_id=8961*)
    → "Alright, <Player>, I will store these in our safe."
 28: 0x0213 [0x23] WAIT_FOR_DIALOG_INTERACTION

SUBROUTINE_0214:
 29: 0x0214 [0x06] ExtData[1]->WorkLocal[23] = 0
 30: 0x0217 [0x06] Work_Zone_1700[0] = 0

SUBROUTINE_021A:
 31: 0x021A [0x02] IF !(ExtData[1]->WorkLocal[23] > 30*) GOTO 0x0240
 32: 0x0222 [0x3E] IF !(Work_Zone[5] bit ExtData[1]->WorkLocal[23]) GOTO 0x0238
 33: 0x0229 [0x9D] Work_Zone[2] = 0x2571[ExtData[1]->WorkLocal[23]] // Read WORD
 34: 0x0231 [0x1D] PRINT_EVENT_MESSAGE(message_id=8959*)
    → "#:"
 35: 0x0234 [0x23] WAIT_FOR_DIALOG_INTERACTION
 36: 0x0235 [0x0B] Work_Zone_1700[0]++
 37: 0x0238 [0x07] ExtData[1]->WorkLocal[23] += 1*
 38: 0x023D [0x01] GOTO 0x021A
 39: 0x0240 [0x02] IF !(Work_Zone_1700[0] <= 0*) GOTO 0x025B
 40: 0x0248 [0x02] IF !(Work_Zone_1700[0] == 1*) GOTO 0x0257
 41: 0x0250 [0x1D] PRINT_EVENT_MESSAGE(message_id=8962*)
    → "I am sorry, but you have already brought me one of those."
 42: 0x0253 [0x23] WAIT_FOR_DIALOG_INTERACTION
 43: 0x0254 [0x01] GOTO 0x025B
 44: 0x0257 [0x1D] PRINT_EVENT_MESSAGE(message_id=8963*)
    → "I am sorry, but you have already brought me these items."
 45: 0x025A [0x23] WAIT_FOR_DIALOG_INTERACTION

SUBROUTINE_025B:
 46: 0x025B [0x01] GOTO 0x0262
 47: 0x025E [0x1D] PRINT_EVENT_MESSAGE(message_id=8962*)
    → "I am sorry, but you have already brought me one of those."
 48: 0x0261 [0x23] WAIT_FOR_DIALOG_INTERACTION

SUBROUTINE_0262:
 49: 0x0262 [0x21] END_EVENT
 50: 0x0263 [0x00] END_REQSTACK()
```

### Event 455

#### Metadata

| Field        | Value     |
|--------------|-----------|
| Entrypoint   | 0x0264    |
| Data Size    | 163 bytes |
| Instructions | 46        |

```
      00 01 02 03 04 05 06 07  08 09 0A 0B 0C 0D 0E 0F
      -- -- -- -- -- -- -- --  -- -- -- -- -- -- -- --
0260:             03 41 10 00  80 42 1E F0 FF FF 7F 1D      .A...B......
0270: 3E 80 23 B4 01 3C 10 07  80 03 40 10 03 10 C3 07  >.#..<....@.....
0280: 80 3C 10 40 10 02 02 10  07 80 00 90 02 01 DD 02  .<.@............
0290: B4 01 3C 10 00 80 03 40  10 04 10 C3 00 80 3C 10  ..<....@......<.
02A0: 40 10 02 02 10 00 80 00  C5 02 1A 6D 08 03 03 10  @..........m....
02B0: 00 80 1D 3F 80 23 03 02  10 07 80 1D 40 80 23 1A  ...?.#......@.#.
02C0: 6E 08 01 DD 02 1A 6D 08  03 03 10 00 80 1D 3F 80  n.....m.......?.
02D0: 23 1A 6E 08 1D 41 80 23  06 01 10 21 00 03 02 10  #.n..A.#...!....
02E0: 07 80 24 42 80 00 80 07  80 25 02 00 10 07 80 00  ..$B.....%......
02F0: FE 02 1D 43 80 23 03 01  10 00 80 01 05 03 1D 44  ...C.#.........D
0300: 80 23 06 01 10 21 00                              .#...!.         
```

#### Opcodes

```
  0: 0x0264 [0x03] Work_Zone[65] = 1*
  1: 0x0269 [0x42] SET_CLI_EVENT_CANCEL_DATA()
  2: 0x026A [0x1E] EventEntity looks at LocalPlayer and starts talking
  3: 0x026F [0x1D] PRINT_EVENT_MESSAGE(message_id=9032*)
    → "So you wish to register a chocobo."
  4: 0x0272 [0x23] WAIT_FOR_DIALOG_INTERACTION
  5: 0x0273 [0xB4] UI_WINDOW_STRING_HANDLER(case=0x01 - Copy string from event strings table, work_offset=Work_Zone[60], string_index=0*)
  6: 0x0279 [0x03] Work_Zone[64] = Work_Zone[3]
  7: 0x027E [0xC3] COPY_STRING_TO_ARRAY(array_index=0x8007, string_value=0x103C, additional_value=0x1040)
  8: 0x0285 [0x02] IF !(Work_Zone[2] == 0*) GOTO 0x0290
  9: 0x028D [0x01] GOTO 0x02DD
 10: 0x0290 [0xB4] UI_WINDOW_STRING_HANDLER(case=0x01 - Copy string from event strings table, work_offset=Work_Zone[60], string_index=1*)
 11: 0x0296 [0x03] Work_Zone[64] = Work_Zone[4]
 12: 0x029B [0xC3] COPY_STRING_TO_ARRAY(array_index=0x8000, string_value=0x103C, additional_value=0x1040)
 13: 0x02A2 [0x02] IF !(Work_Zone[2] == 1*) GOTO 0x02C5
 14: 0x02AA [0x1A] CALL_SUBROUTINE(address=0x086D)
 15: 0x02AD [0x03] Work_Zone[3] = 1*
 16: 0x02B2 [0x1D] PRINT_EVENT_MESSAGE(message_id=9033*)
    → "Let me see... $1 has already been registered."
 17: 0x02B5 [0x23] WAIT_FOR_DIALOG_INTERACTION
 18: 0x02B6 [0x03] Work_Zone[2] = 0*
 19: 0x02BB [0x1D] PRINT_EVENT_MESSAGE(message_id=9034*)
    → "Do you wish to cancel $1's registration and sign up $0?"
 20: 0x02BE [0x23] WAIT_FOR_DIALOG_INTERACTION
 21: 0x02BF [0x1A] CALL_SUBROUTINE(address=0x086E)
 22: 0x02C2 [0x01] GOTO 0x02DD
 23: 0x02C5 [0x1A] CALL_SUBROUTINE(address=0x086D)
 24: 0x02C8 [0x03] Work_Zone[3] = 1*
 25: 0x02CD [0x1D] PRINT_EVENT_MESSAGE(message_id=9033*)
    → "Let me see... $1 has already been registered."
 26: 0x02D0 [0x23] WAIT_FOR_DIALOG_INTERACTION
 27: 0x02D1 [0x1A] CALL_SUBROUTINE(address=0x086E)
 28: 0x02D4 [0x1D] PRINT_EVENT_MESSAGE(message_id=9038*)
    → "I'm sorry. You have already registered that chocobo. You may race it at any time."
 29: 0x02D7 [0x23] WAIT_FOR_DIALOG_INTERACTION
 30: 0x02D8 [0x06] Work_Zone[1] = 0
 31: 0x02DB [0x21] END_EVENT
 32: 0x02DC [0x00] END_REQSTACK()

SUBROUTINE_02DD:
 33: 0x02DD [0x03] Work_Zone[2] = 0*
 34: 0x02E2 [0x24] CREATE_DIALOG(message_id=9035*, default_option=1*, option_flags=0*)
    → "Register $0? [Yes./No.]"
 35: 0x02E9 [0x25] WAIT_DIALOG_SELECT()
 36: 0x02EA [0x02] IF !(Work_Zone[0] == 0*) GOTO 0x02FE
 37: 0x02F2 [0x1D] PRINT_EVENT_MESSAGE(message_id=9036*)
    → "Excellent! $0 has been successfully registered."
 38: 0x02F5 [0x23] WAIT_FOR_DIALOG_INTERACTION
 39: 0x02F6 [0x03] Work_Zone[1] = 1*
 40: 0x02FB [0x01] GOTO 0x0305
 41: 0x02FE [0x1D] PRINT_EVENT_MESSAGE(message_id=9037*)
    → "Very well."
 42: 0x0301 [0x23] WAIT_FOR_DIALOG_INTERACTION
 43: 0x0302 [0x06] Work_Zone[1] = 0

SUBROUTINE_0305:
 44: 0x0305 [0x21] END_EVENT
 45: 0x0306 [0x00] END_REQSTACK()
```

### Event 456

#### Metadata

| Field        | Value    |
|--------------|----------|
| Entrypoint   | 0x0307   |
| Data Size    | 72 bytes |
| Instructions | 21       |

```
      00 01 02 03 04 05 06 07  08 09 0A 0B 0C 0D 0E 0F
      -- -- -- -- -- -- -- --  -- -- -- -- -- -- -- --
0300:                      03  41 10 00 80 42 1E F0 FF         .A...B...
0310: FF 7F 02 02 10 03 10 00  35 03 02 04 10 07 80 00  ........5.......
0320: 29 03 1D 45 80 23 01 32  03 03 02 10 46 80 1D 47  )..E.#.2....F..G
0330: 80 23 01 4D 03 02 04 10  07 80 00 44 03 1D 48 80  .#.M.......D..H.
0340: 23 01 4D 03 03 02 10 46  80 1D 49 80 23 21 00     #.M....F..I.#!. 
```

#### Opcodes

```
  0: 0x0307 [0x03] Work_Zone[65] = 1*
  1: 0x030C [0x42] SET_CLI_EVENT_CANCEL_DATA()
  2: 0x030D [0x1E] EventEntity looks at LocalPlayer and starts talking
  3: 0x0312 [0x02] IF !(Work_Zone[2] == Work_Zone[3]) GOTO 0x0335
  4: 0x031A [0x02] IF !(Work_Zone[4] == 0*) GOTO 0x0329
  5: 0x0322 [0x1D] PRINT_EVENT_MESSAGE(message_id=9045*)
    → "Ah, <Player>. We have been holding on to the prize from your last race until you had room enough in your gobbiebag to carry it back to your Mog House."
  6: 0x0325 [0x23] WAIT_FOR_DIALOG_INTERACTION
  7: 0x0326 [0x01] GOTO 0x0332
  8: 0x0329 [0x03] Work_Zone[2] = 308*
  9: 0x032E [0x1D] PRINT_EVENT_MESSAGE(message_id=9050*)
    → "Hello there, <Player>. Why yes, we are holding your $0. Here you are."
 10: 0x0331 [0x23] WAIT_FOR_DIALOG_INTERACTION

SUBROUTINE_0332:
 11: 0x0332 [0x01] GOTO 0x034D
 12: 0x0335 [0x02] IF !(Work_Zone[4] == 0*) GOTO 0x0344
 13: 0x033D [0x1D] PRINT_EVENT_MESSAGE(message_id=9046*)
    → "Might you be <Player>? Excellent. VCS headquarters was informed that you would be stopping by our branch, and sent this package containing the prize from your last race."
 14: 0x0340 [0x23] WAIT_FOR_DIALOG_INTERACTION
 15: 0x0341 [0x01] GOTO 0x034D
 16: 0x0344 [0x03] Work_Zone[2] = 308*
 17: 0x0349 [0x1D] PRINT_EVENT_MESSAGE(message_id=9051*)
    → "Good day to you, <Player>. Indeed, we are currently holding your $0 from the CRA for safekeeping. Here you are."
 18: 0x034C [0x23] WAIT_FOR_DIALOG_INTERACTION

SUBROUTINE_034D:
 19: 0x034D [0x21] END_EVENT
 20: 0x034E [0x00] END_REQSTACK()
```

### Event 457

#### Metadata

| Field        | Value    |
|--------------|----------|
| Entrypoint   | 0x034F   |
| Data Size    | 25 bytes |
| Instructions | 11       |

```
      00 01 02 03 04 05 06 07  08 09 0A 0B 0C 0D 0E 0F
      -- -- -- -- -- -- -- --  -- -- -- -- -- -- -- --
0340:                                               03                 .
0350: 41 10 00 80 42 1E F0 FF  FF 7F 1D 4A 80 23 1D 4B  A...B......J.#.K
0360: 80 23 1D 4C 80 23 21 00                           .#.L.#!.        
```

#### Opcodes

```
  0: 0x034F [0x03] Work_Zone[65] = 1*
  1: 0x0354 [0x42] SET_CLI_EVENT_CANCEL_DATA()
  2: 0x0355 [0x1E] EventEntity looks at LocalPlayer and starts talking
  3: 0x035A [0x1D] PRINT_EVENT_MESSAGE(message_id=9047*)
    → "<Player>, thank you for waiting."
  4: 0x035D [0x23] WAIT_FOR_DIALOG_INTERACTION
  5: 0x035E [0x1D] PRINT_EVENT_MESSAGE(message_id=9048*)
    → "Much to the VCS and the CRA's delight, the recent efforts of chocobo breeders across Vana'diel has helped to generate an unprecedented amount of interest in our endeavor. More people than ever have begun to express an interest in raising their own chocobo."
  6: 0x0361 [0x23] WAIT_FOR_DIALOG_INTERACTION
  7: 0x0362 [0x1D] PRINT_EVENT_MESSAGE(message_id=9049*)
    → "As a means of expressing our gratitude, we have therefore decided to confer upon the victors of CRA Classics rewards befitting a champion. We congratulate you on your impressive achievement, <Player>. You are a true inspiration for breeders everywhere!"
  8: 0x0365 [0x23] WAIT_FOR_DIALOG_INTERACTION
  9: 0x0366 [0x21] END_EVENT
 10: 0x0367 [0x00] END_REQSTACK()
```

### Event 458

#### Metadata

| Field        | Value     |
|--------------|-----------|
| Entrypoint   | 0x0368    |
| Data Size    | 666 bytes |
| Instructions | 135       |

```
      00 01 02 03 04 05 06 07  08 09 0A 0B 0C 0D 0E 0F
      -- -- -- -- -- -- -- --  -- -- -- -- -- -- -- --
0360:                          03 41 10 00 80 42 45 4D          .A...BEM
0370: 80 F8 FF FF 7F F8 FF FF  7F 66 64 6F 31 07 80 55  .........fdo1..U
0380: 4D 80 F8 FF FF 7F F8 FF  FF 7F 66 64 6F 31 46 01  M.........fdo1F.
0390: 38 4E 80 92 01 F8 FF FF  7F 80 F8 FF FF 7F 1A 54  8N.............T
03A0: 1B 1C 4F 80 45 4D 80 F8  FF FF 7F F8 FF FF 7F 66  ..O.EM.........f
03B0: 64 69 30 07 80 1C 50 80  1A 34 06 02 1B 00 07 80  di0...P..4......
03C0: 00 C7 03 1D 51 80 23 06  17 00 02 17 00 07 80 00  ....Q.#.........
03D0: 00 06 1A 34 06 02 1B 00  07 80 01 1A 04 03 01 10  ...4............
03E0: 52 80 43 00 43 01 03 0D  00 02 10 03 0E 00 03 10  R.C.C...........
03F0: 02 0E 00 00 80 00 FE 03  1A 9F 0D 01 17 04 02 0E  ................
0400: 00 07 80 00 0C 04 1A 8B  11 01 17 04 02 0E 00 14  ................
0410: 80 00 17 04 01 1A 04 01  FD 05 03 02 10 09 00 02  ................
0420: 0A 00 53 80 03 32 04 9D  00 E1 24 15 00 0A 00 01  ..S..2....$.....
0430: 37 04 03 15 00 54 80 03  03 10 15 00 03 0D 00 02  7....T..........
0440: 00 0C 0D 00 9D 00 71 23  16 00 0D 00 03 04 10 16  ......q#........
0450: 00 03 05 10 01 00 24 55  80 07 80 18 00 25 02 00  ......$U.....%..
0460: 10 07 80 00 F4 04 02 09  00 07 80 00 89 04 03 02  ................
0470: 10 02 80 03 03 10 0F 80  1A 6D 08 1D 56 80 23 1D  .........m..V.#.
0480: 57 80 23 1A 6E 08 01 F1  04 03 20 00 07 80 03 1C  W.#.n..... .....
0490: 00 07 80 03 1E 00 07 80  1A 26 09 45 4D 80 F8 FF  .........&.EM...
04A0: FF 7F F8 FF FF 7F 66 64  6F 31 07 80 55 4D 80 F8  ......fdo1..UM..
04B0: FF FF 7F F8 FF FF 7F 66  64 6F 31 7A 00 27 60 04  .......fdo1z.'`.
04C0: 01 4E 01 27 60 04 01 2F  01 27 60 04 01 7A 00 28  .N.'`../.'`..z.(
04D0: 60 04 01 27 05 28 60 04  01 08 1A 49 1B 1C 4F 80  `..'.(`....I..O.
04E0: 45 4D 80 F8 FF FF 7F F8  FF FF 7F 66 64 69 32 07  EM.........fdi2.
04F0: 80 01 FD 05 02 00 10 00  80 00 02 05 1A EB 0A 01  ................
0500: FD 05 02 00 10 14 80 00  4C 05 02 09 00 07 80 00  ........L.......
0510: 1F 05 1A 6D 08 1D 58 80  23 1A 6E 08 01 49 05 03  ...m..X.#.n..I..
0520: 01 10 59 80 40 5A 80 5B  80 01 10 15 00 43 00 43  ..Y.@Z.[.....C.C
0530: 01 02 02 10 07 80 00 3F  05 1A 9F 0D 01 49 05 1A  .......?.....I..
0540: 6D 08 1D 5C 80 23 1A 6E  08 01 FD 05 02 00 10 19  m..\.#.n........
0550: 80 00 91 05 02 09 00 07  80 00 69 05 1A 6D 08 1D  ..........i..m..
0560: 58 80 23 1A 6E 08 01 8E  05 02 16 00 01 00 05 84  X.#.n...........
0570: 05 02 08 00 5A 80 03 81  05 03 19 00 02 00 1A 8B  ....Z...........
0580: 11 01 8E 05 1A 6D 08 1D  5D 80 23 1A 6E 08 01 FD  .....m..].#.n...
0590: 05 02 00 10 1D 80 00 B4  05 02 09 00 07 80 00 AE  ................
05A0: 05 1A 6D 08 1D 58 80 23  1A 6E 08 01 B1 05 1A 6F  ..m..X.#.n.....o
05B0: 08 01 FD 05 02 00 10 25  80 00 C2 05 1A 22 07 01  .......%....."..
05C0: FD 05 45 4D 80 F8 FF FF  7F F8 FF FF 7F 66 64 6F  ..EM.........fdo
05D0: 31 07 80 55 4D 80 F8 FF  FF 7F F8 FF FF 7F 66 64  1..UM.........fd
05E0: 6F 31 1A 6A 1D 46 00 1C  50 80 45 4D 80 F8 FF FF  o1.j.F..P.EM....
05F0: 7F F8 FF FF 7F 66 64 69  32 07 80 21 00 01 CA 03  .....fdi2..!....
0600: 21 00                                             !.              
```

#### Opcodes

```
  0: 0x0368 [0x03] Work_Zone[65] = 1*
  1: 0x036D [0x42] SET_CLI_EVENT_CANCEL_DATA()
  2: 0x036E [0x45] LOAD_SCHEDULED_TASK: Load scheduler "fdo1" with entities [EventEntity, EventEntity], work=[200*, 0*]
  3: 0x037F [0x55] WAIT_LOAD_SCHEDULER: Wait for scheduler "fdo1" with entities [EventEntity, EventEntity], work=200*
  4: 0x038E [0x46] CAMERA_CONTROL: Disable user control
  5: 0x0390 [0x38] SET_CLIENT_EVENT_MODE(mode=27*)
  6: 0x0393 [0x92] EventEntity->Render.Flags3 ^= 0x01
  7: 0x0399 [0x80] LOAD_WAIT(entity=EventEntity)
  8: 0x039E [0x1A] CALL_SUBROUTINE(address=0x1B54)
  9: 0x03A1 [0x1C] WAIT(15* ticks)
 10: 0x03A4 [0x45] LOAD_SCHEDULED_TASK: Load scheduler "fdi0" with entities [EventEntity, EventEntity], work=[200*, 0*]
 11: 0x03B5 [0x1C] WAIT(60* ticks)
 12: 0x03B8 [0x1A] CALL_SUBROUTINE(address=0x0634)
 13: 0x03BB [0x02] IF !(ExtData[1]->WorkLocal[27] == 0*) GOTO 0x03C7
 14: 0x03C3 [0x1D] PRINT_EVENT_MESSAGE(message_id=8964*)
    → "Hello! What might I interest you in today?"
 15: 0x03C6 [0x23] WAIT_FOR_DIALOG_INTERACTION
 16: 0x03C7 [0x06] ExtData[1]->WorkLocal[23] = 0
 17: 0x03CA [0x02] IF !(ExtData[1]->WorkLocal[23] == 0*) GOTO 0x0600
 18: 0x03D2 [0x1A] CALL_SUBROUTINE(address=0x0634)
 19: 0x03D5 [0x02] IF !(ExtData[1]->WorkLocal[27] == 0*) GOTO 0x041A
 20: 0x03DD [0x03] Work_Zone[1] = 14*
 21: 0x03E2 [0x43] SEND_EVENT_UPDATE: Send pending tag to server (packet 0x005B)
 22: 0x03E4 [0x43] SEND_EVENT_UPDATE: Check pending flag (skip if not pending)
 23: 0x03E6 [0x03] ExtData[1]->WorkLocal[13] = Work_Zone[2]
 24: 0x03EB [0x03] ExtData[1]->WorkLocal[14] = Work_Zone[3]
 25: 0x03F0 [0x02] IF !(ExtData[1]->WorkLocal[14] == 1*) GOTO 0x03FE
 26: 0x03F8 [0x1A] CALL_SUBROUTINE(address=0x0D9F)
 27: 0x03FB [0x01] GOTO 0x0417
 28: 0x03FE [0x02] IF !(ExtData[1]->WorkLocal[14] == 0*) GOTO 0x040C
 29: 0x0406 [0x1A] CALL_SUBROUTINE(address=0x118B)
 30: 0x0409 [0x01] GOTO 0x0417
 31: 0x040C [0x02] IF !(ExtData[1]->WorkLocal[14] == 2*) GOTO 0x0417
 32: 0x0414 [0x01] GOTO 0x041A

SUBROUTINE_0417:
 33: 0x0417 [0x01] GOTO 0x05FD

SUBROUTINE_041A:
 34: 0x041A [0x03] Work_Zone[2] = ExtData[1]->WorkLocal[9]
 35: 0x041F [0x02] IF !(ExtData[1]->WorkLocal[10] >= 64*) GOTO 0x0432
 36: 0x0427 [0x9D] ExtData[1]->WorkLocal[21] = 0x24E1[ExtData[1]->WorkLocal[10]] // Read WORD
 37: 0x042F [0x01] GOTO 0x0437
 38: 0x0432 [0x03] ExtData[1]->WorkLocal[21] = 100000*

SUBROUTINE_0437:
 39: 0x0437 [0x03] Work_Zone[3] = ExtData[1]->WorkLocal[21]
 40: 0x043C [0x03] ExtData[1]->WorkLocal[13] = ExtData[1]->WorkLocal[2]
 41: 0x0441 [0x0C] ExtData[1]->WorkLocal[13]--
 42: 0x0444 [0x9D] ExtData[1]->WorkLocal[22] = 0x2371[ExtData[1]->WorkLocal[13]] // Read WORD
 43: 0x044C [0x03] Work_Zone[4] = ExtData[1]->WorkLocal[22]
 44: 0x0451 [0x03] Work_Zone[5] = ExtData[1]->WorkLocal[1]
 45: 0x0456 [0x24] CREATE_DIALOG(message_id=8965*, default_option=0*, option_flags=ExtData[1]->WorkLocal[24])
    → "(You have $3 [chocobuck/chocobucks].) [Chocobo [registration/confirmation]./Item confirmation./Free run ($1 gil)./Official race ($2 [chocobuck/chocobucks])./Re-run./Rule confirmation./Nothing.]"
 46: 0x045D [0x25] WAIT_DIALOG_SELECT()
 47: 0x045E [0x02] IF !(Work_Zone[0] == 0*) GOTO 0x04F4
 48: 0x0466 [0x02] IF !(ExtData[1]->WorkLocal[9] == 0*) GOTO 0x0489
 49: 0x046E [0x03] Work_Zone[2] = 2313*
 50: 0x0473 [0x03] Work_Zone[3] = 2402*
 51: 0x0478 [0x1A] CALL_SUBROUTINE(address=0x086D)
 52: 0x047B [0x1D] PRINT_EVENT_MESSAGE(message_id=8968*)
    → "To register your chocobo, you must first bring me either $0 or $1."
 53: 0x047E [0x23] WAIT_FOR_DIALOG_INTERACTION
 54: 0x047F [0x1D] PRINT_EVENT_MESSAGE(message_id=8969*)
    → "You can only register one chocobo at a time, but you may always register a new one whenever you wish."
 55: 0x0482 [0x23] WAIT_FOR_DIALOG_INTERACTION
 56: 0x0483 [0x1A] CALL_SUBROUTINE(address=0x086E)
 57: 0x0486 [0x01] GOTO 0x04F1
 58: 0x0489 [0x03] ExtData[1]->WorkLocal[32] = 0*
 59: 0x048E [0x03] ExtData[1]->WorkLocal[28] = 0*
 60: 0x0493 [0x03] ExtData[1]->WorkLocal[30] = 0*
 61: 0x0498 [0x1A] CALL_SUBROUTINE(address=0x0926)
 62: 0x049B [0x45] LOAD_SCHEDULED_TASK: Load scheduler "fdo1" with entities [EventEntity, EventEntity], work=[200*, 0*]
 63: 0x04AC [0x55] WAIT_LOAD_SCHEDULER: Wait for scheduler "fdo1" with entities [EventEntity, EventEntity], work=200*
 64: 0x04BB [0x7A] VM_CONTROL: Reset VM for Unnamed NPC (ID: 17063975/0x01046027)
 65: 0x04C1 [0x4E] SET_ENTITY_HIDE_FLAG: Hide Unnamed NPC (ID: 17063975/0x01046027)
 66: 0x04C7 [0x2F] Unnamed NPC (ID: 17063975/0x01046027)->Render.Flags0 |= 0x80000 // Bit 19
 67: 0x04CD [0x7A] VM_CONTROL: Reset VM for cameraA (ID: 17063976/0x01046028)
 68: 0x04D3 [0x27] REQ_SET(priority=0x05, entity_id=cameraA (ID: 17063976/0x01046028), tag_num=0x08)
 69: 0x04DA [0x1A] CALL_SUBROUTINE(address=0x1B49)
 70: 0x04DD [0x1C] WAIT(15* ticks)
 71: 0x04E0 [0x45] LOAD_SCHEDULED_TASK: Load scheduler "fdi2" with entities [EventEntity, EventEntity], work=[200*, 0*]

SUBROUTINE_04F1:
 72: 0x04F1 [0x01] GOTO 0x05FD
 73: 0x04F4 [0x02] IF !(Work_Zone[0] == 1*) GOTO 0x0502
 74: 0x04FC [0x1A] CALL_SUBROUTINE(address=0x0AEB)
 75: 0x04FF [0x01] GOTO 0x05FD
 76: 0x0502 [0x02] IF !(Work_Zone[0] == 2*) GOTO 0x054C
 77: 0x050A [0x02] IF !(ExtData[1]->WorkLocal[9] == 0*) GOTO 0x051F
 78: 0x0512 [0x1A] CALL_SUBROUTINE(address=0x086D)
 79: 0x0515 [0x1D] PRINT_EVENT_MESSAGE(message_id=8967*)
    → "You cannot access this menu until you have registered a chocobo to race."
 80: 0x0518 [0x23] WAIT_FOR_DIALOG_INTERACTION
 81: 0x0519 [0x1A] CALL_SUBROUTINE(address=0x086E)
 82: 0x051C [0x01] GOTO 0x0549
 83: 0x051F [0x03] Work_Zone[1] = 16*
 84: 0x0524 [0x40] SET_BIT_WORK_RANGE(start_bit=8*, end_bit=31*, target=Work_Zone[1], source=ExtData[1]->WorkLocal[21])
 85: 0x052D [0x43] SEND_EVENT_UPDATE: Send pending tag to server (packet 0x005B)
 86: 0x052F [0x43] SEND_EVENT_UPDATE: Check pending flag (skip if not pending)
 87: 0x0531 [0x02] IF !(Work_Zone[2] == 0*) GOTO 0x053F
 88: 0x0539 [0x1A] CALL_SUBROUTINE(address=0x0D9F)
 89: 0x053C [0x01] GOTO 0x0549
 90: 0x053F [0x1A] CALL_SUBROUTINE(address=0x086D)
 91: 0x0542 [0x1D] PRINT_EVENT_MESSAGE(message_id=9025*)
    → "I am so, so sorry, but it seems that you do not possess enough gil to enter your chocobo in the next race."
 92: 0x0545 [0x23] WAIT_FOR_DIALOG_INTERACTION
 93: 0x0546 [0x1A] CALL_SUBROUTINE(address=0x086E)

SUBROUTINE_0549:
 94: 0x0549 [0x01] GOTO 0x05FD
 95: 0x054C [0x02] IF !(Work_Zone[0] == 3*) GOTO 0x0591
 96: 0x0554 [0x02] IF !(ExtData[1]->WorkLocal[9] == 0*) GOTO 0x0569
 97: 0x055C [0x1A] CALL_SUBROUTINE(address=0x086D)
 98: 0x055F [0x1D] PRINT_EVENT_MESSAGE(message_id=8967*)
    → "You cannot access this menu until you have registered a chocobo to race."
 99: 0x0562 [0x23] WAIT_FOR_DIALOG_INTERACTION
100: 0x0563 [0x1A] CALL_SUBROUTINE(address=0x086E)
101: 0x0566 [0x01] GOTO 0x058E
102: 0x0569 [0x02] IF !(ExtData[1]->WorkLocal[22] > ExtData[1]->WorkLocal[1]) GOTO 0x0584
103: 0x0571 [0x02] IF !(ExtData[1]->WorkLocal[8] >= 8*) GOTO 0x0581
104: 0x0579 [0x03] ExtData[1]->WorkLocal[25] = ExtData[1]->WorkLocal[2]
105: 0x057E [0x1A] CALL_SUBROUTINE(address=0x118B)
106: 0x0581 [0x01] GOTO 0x058E
107: 0x0584 [0x1A] CALL_SUBROUTINE(address=0x086D)
108: 0x0587 [0x1D] PRINT_EVENT_MESSAGE(message_id=9024*)
    → "I am so sorry, but it seems you do not possess enough chocobucks to participate in the next race."
109: 0x058A [0x23] WAIT_FOR_DIALOG_INTERACTION
110: 0x058B [0x1A] CALL_SUBROUTINE(address=0x086E)

SUBROUTINE_058E:
111: 0x058E [0x01] GOTO 0x05FD
112: 0x0591 [0x02] IF !(Work_Zone[0] == 4*) GOTO 0x05B4
113: 0x0599 [0x02] IF !(ExtData[1]->WorkLocal[9] == 0*) GOTO 0x05AE
114: 0x05A1 [0x1A] CALL_SUBROUTINE(address=0x086D)
115: 0x05A4 [0x1D] PRINT_EVENT_MESSAGE(message_id=8967*)
    → "You cannot access this menu until you have registered a chocobo to race."
116: 0x05A7 [0x23] WAIT_FOR_DIALOG_INTERACTION
117: 0x05A8 [0x1A] CALL_SUBROUTINE(address=0x086E)
118: 0x05AB [0x01] GOTO 0x05B1
119: 0x05AE [0x1A] CALL_SUBROUTINE(address=0x086F)

SUBROUTINE_05B1:
120: 0x05B1 [0x01] GOTO 0x05FD
121: 0x05B4 [0x02] IF !(Work_Zone[0] == 5*) GOTO 0x05C2
122: 0x05BC [0x1A] CALL_SUBROUTINE(address=0x0722)
123: 0x05BF [0x01] GOTO 0x05FD
124: 0x05C2 [0x45] LOAD_SCHEDULED_TASK: Load scheduler "fdo1" with entities [EventEntity, EventEntity], work=[200*, 0*]
125: 0x05D3 [0x55] WAIT_LOAD_SCHEDULER: Wait for scheduler "fdo1" with entities [EventEntity, EventEntity], work=200*
126: 0x05E2 [0x1A] CALL_SUBROUTINE(address=0x1D6A)
127: 0x05E5 [0x46] CAMERA_CONTROL: Restore default settings
128: 0x05E7 [0x1C] WAIT(60* ticks)
129: 0x05EA [0x45] LOAD_SCHEDULED_TASK: Load scheduler "fdi2" with entities [EventEntity, EventEntity], work=[200*, 0*]
130: 0x05FB [0x21] END_EVENT
131: 0x05FC [0x00] END_REQSTACK()

SUBROUTINE_05FD:
132: 0x05FD [0x01] GOTO 0x03CA
133: 0x0600 [0x21] END_EVENT
134: 0x0601 [0x00] END_REQSTACK()
```

### Event 459

#### Metadata

| Field        | Value    |
|--------------|----------|
| Entrypoint   | 0x0602   |
| Data Size    | 23 bytes |
| Instructions | 9        |

```
      00 01 02 03 04 05 06 07  08 09 0A 0B 0C 0D 0E 0F
      -- -- -- -- -- -- -- --  -- -- -- -- -- -- -- --
0600:       03 41 10 00 80 1E  F0 FF FF 7F 1C 38 80 1D    .A.........8..
0610: 01 80 23 1D 5E 80 23 21  00                       ..#.^.#!.       
```

#### Opcodes

```
  0: 0x0602 [0x03] Work_Zone[65] = 1*
  1: 0x0607 [0x1E] EventEntity looks at LocalPlayer and starts talking
  2: 0x060C [0x1C] WAIT(30* ticks)
  3: 0x060F [0x1D] PRINT_EVENT_MESSAGE(message_id=8912*)
    → "Welcome to the Chocobo Racing Association's (CRA) [San d'Oria/Bastok/Windurst] branch. This service desk is here to accommodate our beginning and intermediate racers."
  4: 0x0612 [0x23] WAIT_FOR_DIALOG_INTERACTION
  5: 0x0613 [0x1D] PRINT_EVENT_MESSAGE(message_id=8913*)
    → "I am sorry, but there are no races scheduled at the moment."
  6: 0x0616 [0x23] WAIT_FOR_DIALOG_INTERACTION
  7: 0x0617 [0x21] END_EVENT
  8: 0x0618 [0x00] END_REQSTACK()
```

### Event 460

#### Metadata

| Field        | Value   |
|--------------|---------|
| Entrypoint   | 0x0619  |
| Data Size    | 5 bytes |
| Instructions | 1       |

```
      00 01 02 03 04 05 06 07  08 09 0A 0B 0C 0D 0E 0F
      -- -- -- -- -- -- -- --  -- -- -- -- -- -- -- --
0610:                             03 41 10 00 80                 .A...  
```

#### Opcodes

```
  0: 0x0619 [0x03] Work_Zone[65] = 1*
```

### Event 65535.1

#### Metadata

| Field        | Value   |
|--------------|---------|
| Entrypoint   | 0x061E  |
| Data Size    | 5 bytes |
| Instructions | 3       |

```
      00 01 02 03 04 05 06 07  08 09 0A 0B 0C 0D 0E 0F
      -- -- -- -- -- -- -- --  -- -- -- -- -- -- -- --
0610:                                            43 00                C.
0620: 43 01 00                                          C..             
```

#### Opcodes

```
  0: 0x061E [0x43] SEND_EVENT_UPDATE: Send pending tag to server (packet 0x005B)
  1: 0x0620 [0x43] SEND_EVENT_UPDATE: Check pending flag (skip if not pending)
  2: 0x0622 [0x00] END_REQSTACK()
```

### Event 461

#### Metadata

| Field        | Value   |
|--------------|---------|
| Entrypoint   | 0x0623  |
| Data Size    | 5 bytes |
| Instructions | 1       |

```
      00 01 02 03 04 05 06 07  08 09 0A 0B 0C 0D 0E 0F
      -- -- -- -- -- -- -- --  -- -- -- -- -- -- -- --
0620:          03 41 10 00 80                              .A...        
```

#### Opcodes

```
  0: 0x0623 [0x03] Work_Zone[65] = 1*
```

### Event 65535.2

#### Metadata

| Field        | Value      |
|--------------|------------|
| Entrypoint   | 0x0628     |
| Data Size    | 8330 bytes |
| Instructions | 3          |

```
      00 01 02 03 04 05 06 07  08 09 0A 0B 0C 0D 0E 0F
      -- -- -- -- -- -- -- --  -- -- -- -- -- -- -- --
0620:                          33 01 37 5F 80 60 80 61          3.7_.`.a
0630: 80 62 80 00 03 01 10 63  80 43 00 43 01 06 01 00  .b.....c.C.C....
0640: 06 00 00 06 02 00 06 08  00 06 03 00 06 0A 00 06  ................
0650: 04 00 06 05 00 06 06 00  06 07 00 06 09 00 06 32  ...............2
0660: 10 06 1A 00 06 1B 00 41  07 80 4F 80 02 10 01 00  .......A..O.....
0670: 41 59 80 64 80 02 10 00  00 41 65 80 66 80 02 10  AY.d.....Ae.f...
0680: 08 00 41 67 80 67 80 02  10 03 00 41 68 80 68 80  ..Ag.g.....Ah.h.
0690: 02 10 09 00 41 69 80 69  80 02 10 1A 00 41 38 80  ....Ai.i.....A8.
06A0: 38 80 02 10 1B 00 03 04  00 03 10 03 0A 00 07 10  8...............
06B0: 41 07 80 19 80 04 10 05  00 41 1D 80 6A 80 04 10  A........A..j...
06C0: 06 00 03 07 00 06 00 9D  00 71 25 07 00 07 00 41  .........q%....A
06D0: 6B 80 6B 80 04 10 32 10  06 18 00 03 02 00 08 00  k.k...2.........
06E0: 07 02 00 00 80 02 03 00  07 80 01 F4 06 3C 18 00  .............<..
06F0: 19 80 00 80 02 08 00 19  80 03 03 07 3C 18 00 14  ............<...
0700: 80 00 80 02 08 00 00 80  03 12 07 3C 18 00 1D 80  ...........<....
0710: 00 80 02 08 00 5A 80 04  21 07 3C 18 00 19 80 00  .....Z..!.<.....
0720: 80 1B 06 17 00 02 17 00  07 80 00 6C 08 24 08 80  ...........l.$..
0730: 07 80 07 80 25 02 00 10  07 80 00 5E 07 1A 6D 08  ....%......^..m.
0740: 1D 09 80 23 1D 0A 80 23  1D 0B 80 23 1D 0C 80 23  ...#...#...#...#
0750: 1D 0D 80 23 1D 0E 80 23  1A 6E 08 01 69 08 02 00  ...#...#.n..i...
0760: 10 00 80 00 89 07 1A 6D  08 03 02 10 02 80 03 03  .......m........
0770: 10 0F 80 1D 10 80 23 1D  11 80 23 1D 12 80 23 1D  ......#...#...#.
0780: 13 80 23 1A 6E 08 01 69  08 02 00 10 14 80 00 AA  ..#.n..i........
0790: 07 1A 6D 08 1D 15 80 23  1D 16 80 23 1D 17 80 23  ..m....#...#...#
07A0: 1D 18 80 23 1A 6E 08 01  69 08 02 00 10 19 80 00  ...#.n..i.......
07B0: C7 07 1A 6D 08 1D 1A 80  23 1D 1B 80 23 1D 1C 80  ...m....#...#...
07C0: 23 1A 6E 08 01 69 08 02  00 10 1D 80 00 F4 07 1A  #.n..i..........
07D0: 6D 08 1D 1E 80 23 1D 1F  80 23 1D 20 80 23 1D 21  m....#...#. .#.!
07E0: 80 23 1D 22 80 23 1D 23  80 23 1D 24 80 23 1A 6E  .#.".#.#.#.$.#.n
07F0: 08 01 69 08 02 00 10 25  80 00 22 08 1A 6D 08 1D  ..i....%.."..m..
0800: 26 80 23 1D 27 80 23 1D  28 80 23 1D 29 80 23 1D  &.#.'.#.(.#.).#.
0810: 2A 80 23 03 02 10 00 80  1D 2B 80 23 1A 6E 08 01  *.#......+.#.n..
0820: 69 08 02 00 10 2C 80 00  68 08 45 4D 80 F8 FF FF  i....,..h.EM....
0830: 7F F8 FF FF 7F 66 64 6F  31 07 80 55 4D 80 F8 FF  .....fdo1..UM...
0840: FF 7F F8 FF FF 7F 66 64  6F 31 1A 6A 1D 46 00 1C  ......fdo1.j.F..
0850: 50 80 45 4D 80 F8 FF FF  7F F8 FF FF 7F 66 64 69  P.EM.........fdi
0860: 32 07 80 21 1B 01 69 08  1B 01 25 07 1B 1B 1B 1A  2..!..i...%.....
0870: 6D 08 1D 6C 80 23 1D 6D  80 23 1A 6E 08 02 00 80  m..l.#.m.#.n....
0880: 00 80 00 25 09 06 00 17  03 01 17 6E 80 02 00 17  ...%.......n....
0890: 08 00 03 A2 08 3D 01 17  00 17 00 80 0B 00 17 01  .....=..........
08A0: 8D 08 3D 01 17 5A 80 00  80 3D 01 17 6A 80 00 80  ..=..Z...=..j...
08B0: 24 6F 80 07 80 01 17 25  02 00 10 5A 80 00 FE 08  $o.....%...Z....
08C0: 45 4D 80 F8 FF FF 7F F8  FF FF 7F 66 64 6F 31 07  EM.........fdo1.
08D0: 80 55 4D 80 F8 FF FF 7F  F8 FF FF 7F 66 64 6F 31  .UM.........fdo1
08E0: 1A 6A 1D 46 00 1C 50 80  45 4D 80 F8 FF FF 7F F8  .j.F..P.EM......
08F0: FF FF 7F 66 64 69 32 07  80 21 1B 01 0A 09 02 00  ...fdi2..!......
0900: 10 6A 80 00 0A 09 1B 01  0A 09 03 19 00 00 10 07  .j..............
0910: 19 00 00 80 1A 76 16 02  02 10 07 80 00 22 09 1A  .....v......."..
0920: 8B 11 01 7D 08 1B 6A 07  80 38 80 4F 80 45 4D 80  ...}..j..8.O.EM.
0930: F8 FF FF 7F F8 FF FF 7F  66 64 6F 31 07 80 55 4D  ........fdo1..UM
0940: 80 F8 FF FF 7F F8 FF FF  7F 66 64 6F 31 1A 6A 1D  .........fdo1.j.
0950: 4E 01 F0 FF FF 7F 4E 01  05 60 04 01 4E 01 07 60  N.....N..`..N..`
0960: 04 01 4E 01 09 60 04 01  2F 00 2A 60 04 01 4E 00  ..N..`../.*`..N.
0970: 2A 60 04 01 02 20 00 07  80 00 89 09 03 20 00 00  *`... ....... ..
0980: 80 34 70 80 77 71 80 07  80 03 01 10 2C 80 43 00  .4p.wq......,.C.
0990: 43 01 03 0D 00 02 10 03  0E 00 03 10 41 72 80 38  C...........Ar.8
09A0: 80 0E 00 02 10 41 68 80  4E 80 0E 00 03 10 3E 0D  .....Ah.N.....>.
09B0: 00 59 80 BD 09 03 04 10  00 80 01 C0 09 06 04 10  .Y..............
09C0: 3E 0D 00 07 80 CF 09 03  05 10 00 80 01 D2 09 06  >...............
09D0: 05 10 3E 0D 00 5A 80 E1  09 03 06 10 00 80 01 E4  ..>..Z..........
09E0: 09 06 06 10 27 05 2A 60  04 01 05 2A 05 2A 60 04  ....'.*`...*.*`.
09F0: 01 03 03 10 00 00 41 67  80 67 80 0E 00 04 10 41  ......Ag.g.....A
0A00: 73 80 65 80 0E 00 05 10  B4 01 3C 10 07 80 03 40  s.e.......<....@
0A10: 10 04 10 C3 07 80 3C 10  40 10 03 39 10 07 80 7A  ......<.@..9...z
0A20: 00 2A 60 04 01 03 38 10  05 10 03 39 10 00 80 29  .*`...8....9...)
0A30: 80 2A 60 04 01 07 80 2A  60 04 01 27 80 2A 60 04  .*`....*`..'.*`.
0A40: 01 08 1C 4F 80 45 4D 80  F8 FF FF 7F F8 FF FF 7F  ...O.EM.........
0A50: 66 64 69 32 07 80 1C 50  80 6A 74 80 4F 80 4F 80  fdi2...P.jt.O.O.
0A60: 02 1E 00 07 80 00 75 0A  1A A1 26 48 75 80 23 1A  ......u...&Hu.#.
0A70: AC 26 01 84 0A 03 05 10  00 80 1A A1 26 48 76 80  .&..........&Hv.
0A80: 23 1A AC 26 41 07 80 77  80 0D 00 02 10 15 02 10  #..&A..w........
0A90: 78 80 41 5A 80 4F 80 0D  00 03 10 15 03 10 78 80  x.AZ.O........x.
0AA0: 41 59 80 66 80 0D 00 04  10 15 04 10 78 80 41 67  AY.f........x.Ag
0AB0: 80 5B 80 0D 00 05 10 15  05 10 78 80 48 79 80 23  .[........x.Hy.#
0AC0: 41 7A 80 66 80 0E 00 02  10 41 6A 80 71 80 0E 00  Az.f.....Aj.q...
0AD0: 03 10 41 7B 80 59 80 0E  00 04 10 48 7C 80 23 03  ..A{.Y.....H|.#.
0AE0: 39 10 07 80 2A 80 2A 60  04 01 1B 1A 7F 0B 02 00  9...*.*`........
0AF0: 80 00 80 00 7E 0B 24 7D  80 00 80 0D 00 25 02 00  ....~.$}.....%..
0B00: 10 07 80 00 09 0B 01 5B  0B 02 00 10 5B 80 00 4F  .......[....[..O
0B10: 0B 45 4D 80 F8 FF FF 7F  F8 FF FF 7F 66 64 6F 31  .EM.........fdo1
0B20: 07 80 55 4D 80 F8 FF FF  7F F8 FF FF 7F 66 64 6F  ..UM.........fdo
0B30: 31 1A 6A 1D 46 00 1C 50  80 45 4D 80 F8 FF FF 7F  1.j.F..P.EM.....
0B40: F8 FF FF 7F 66 64 69 32  07 80 21 1B 01 5B 0B 02  ....fdi2..!..[..
0B50: 00 10 78 80 00 5B 0B 1B  01 5B 0B 03 0E 00 00 10  ..x..[...[......
0B60: 9D 00 71 25 1E 17 0E 00  03 1D 17 0E 00 93 1E 17  ..q%............
0B70: 03 02 10 1E 17 1A B4 0C  93 07 80 01 EE 0A 1B 9D  ................
0B80: 00 71 25 02 10 07 80 9D  00 71 25 03 10 00 80 9D  .q%......q%.....
0B90: 00 71 25 04 10 14 80 9D  00 71 25 05 10 19 80 9D  .q%......q%.....
0BA0: 00 71 25 06 10 1D 80 9D  00 71 25 07 10 25 80 9D  .q%......q%..%..
0BB0: 00 71 25 08 10 2C 80 9D  00 71 25 09 10 77 80 9D  .q%..,...q%..w..
0BC0: 00 71 25 00 17 5A 80 9D  00 71 25 01 17 6A 80 9D  .q%..Z...q%..j..
0BD0: 00 71 25 02 17 6B 80 9D  00 71 25 03 17 7E 80 9D  .q%..k...q%..~..
0BE0: 00 71 25 04 17 71 80 9D  00 71 25 05 17 7B 80 9D  .q%..q...q%..{..
0BF0: 00 71 25 06 17 52 80 9D  00 71 25 07 17 4F 80 9D  .q%..R...q%..O..
0C00: 00 71 25 08 17 59 80 9D  00 71 25 09 17 73 80 9D  .q%..Y...q%..s..
0C10: 00 71 25 0A 17 64 80 9D  00 71 25 0B 17 65 80 9D  .q%..d...q%..e..
0C20: 00 71 25 0C 17 7A 80 9D  00 71 25 0D 17 7F 80 9D  .q%..z...q%.....
0C30: 00 71 25 0E 17 80 80 9D  00 71 25 0F 17 66 80 9D  .q%......q%..f..
0C40: 00 71 25 10 17 67 80 9D  00 71 25 11 17 68 80 9D  .q%..g...q%..h..
0C50: 00 71 25 12 17 81 80 9D  00 71 25 13 17 4E 80 9D  .q%......q%..N..
0C60: 00 71 25 14 17 72 80 9D  00 71 25 15 17 69 80 9D  .q%..r...q%..i..
0C70: 00 71 25 16 17 38 80 06  0D 00 03 0E 00 00 80 02  .q%..8..........
0C80: 0E 00 78 80 03 A5 0C 3E  04 00 0E 00 98 0C 3D 0D  ..x....>......=.
0C90: 00 0E 00 00 80 01 9F 0C  3C 0D 00 0E 00 00 80 0B  ........<.......
0CA0: 0E 00 01 7F 0C 3C 0D 00  07 80 00 80 3D 0D 00 5B  .....<......=..[
0CB0: 80 00 80 1B 02 1D 17 00  80 00 C6 0C 1A 6D 08 1D  .............m..
0CC0: 82 80 23 1A 6E 08 02 1D  17 14 80 00 D8 0C 1A 6D  ..#.n..........m
0CD0: 08 1D 83 80 23 1A 6E 08  02 1D 17 19 80 00 EA 0C  ....#.n.........
0CE0: 1A 6D 08 1D 84 80 23 1A  6E 08 02 1D 17 1D 80 00  .m....#.n.......
0CF0: FC 0C 1A 6D 08 1D 85 80  23 1A 6E 08 02 1D 17 25  ...m....#.n....%
0D00: 80 00 0E 0D 1A 6D 08 1D  86 80 23 1A 6E 08 02 1D  .....m....#.n...
0D10: 17 2C 80 00 20 0D 1A 6D  08 1D 87 80 23 1A 6E 08  .,.. ..m....#.n.
0D20: 02 1D 17 77 80 00 32 0D  1A 6D 08 1D 88 80 23 1A  ...w..2..m....#.
0D30: 6E 08 02 1D 17 5A 80 00  44 0D 1A 6D 08 1D 89 80  n....Z..D..m....
0D40: 23 1A 6E 08 02 1D 17 6A  80 00 56 0D 1A 6D 08 1D  #.n....j..V..m..
0D50: 8A 80 23 1A 6E 08 02 1D  17 4E 80 00 68 0D 1A 6D  ..#.n....N..h..m
0D60: 08 1D 8B 80 23 1A 6E 08  02 1D 17 72 80 00 7A 0D  ....#.n....r..z.
0D70: 1A 6D 08 1D 8C 80 23 1A  6E 08 02 1D 17 69 80 00  .m....#.n....i..
0D80: 8C 0D 1A 6D 08 1D 8D 80  23 1A 6E 08 02 1D 17 38  ...m....#.n....8
0D90: 80 00 9E 0D 1A 6D 08 1D  8E 80 23 1A 6E 08 1B 02  .....m....#.n...
0DA0: 1B 00 07 80 01 AA 0D 01  26 0E 02 17 00 07 80 00  ........&.......
0DB0: 8A 11 1A 34 06 02 06 00  07 80 01 AD 0F 03 02 10  ...4............
0DC0: 05 00 03 03 10 07 00 24  8F 80 07 80 07 80 25 02  .......$......%.
0DD0: 00 10 07 80 00 F4 0D 1D  90 80 23 48 91 80 23 48  ..........#H..#H
0DE0: 92 80 23 1A 6D 08 48 93  80 23 1A 6E 08 48 91 80  ..#.m.H..#.n.H..
0DF0: 23 01 AA 0F 02 00 10 00  80 00 02 0E 1A 66 18 01  #............f..
0E00: AA 0F 02 00 10 14 80 00  10 0E 1A C5 1D 01 AA 0F  ................
0E10: 02 00 10 19 80 00 1E 0E  1A E0 1E 01 AA 0F 02 00  ................
0E20: 10 1D 80 00 5D 0F 03 01  10 94 80 43 00 43 01 02  ....]......C.C..
0E30: 09 10 07 80 00 57 0F 03  19 00 6E 80 03 37 10 00  .....W....n..7..
0E40: 80 1A D8 15 02 09 10 95  80 00 33 0F 03 25 10 06  ..........3..%..
0E50: 10 03 0B 00 07 10 03 0C  00 08 10 02 32 10 07 80  ............2...
0E60: 01 86 0E 03 02 10 06 10  BF 60 07 80 07 80 02 10  .........`......
0E70: 48 96 80 23 03 02 10 07  10 48 96 80 23 03 02 10  H..#.....H..#...
0E80: 08 10 48 96 80 23 24 97  80 07 80 07 80 25 02 00  ..H..#$......%..
0E90: 10 07 80 00 BF 0E 03 1F  00 00 80 45 4D 80 F8 FF  ...........EM...
0EA0: FF 7F F8 FF FF 7F 66 64  6F 31 07 80 1C 50 80 41  ......fdo1...P.A
0EB0: 07 80 19 80 25 10 02 10  48 98 80 23 01 D8 0E 02  ....%...H..#....
0EC0: 00 10 00 80 00 D8 0E 03  1F 00 07 80 1A B7 1F 1A  ................
0ED0: 4D 1B 1C 50 80 01 D8 0E  45 4D 80 F8 FF FF 7F F8  M..P....EM......
0EE0: FF FF 7F 66 64 69 31 07  80 1C 50 80 1A D7 21 45  ...fdi1...P...!E
0EF0: 4D 80 F8 FF FF 7F F8 FF  FF 7F 66 64 6F 31 07 80  M.........fdo1..
0F00: 55 4D 80 F8 FF FF 7F F8  FF FF 7F 66 64 6F 31 1A  UM.........fdo1.
0F10: 6A 1D 46 00 AE 00 14 80  00 80 1C 50 80 45 4D 80  j.F........P.EM.
0F20: F8 FF FF 7F F8 FF FF 7F  66 64 69 32 07 80 21 00  ........fdi2..!.
0F30: 01 54 0F 02 09 10 99 80  00 48 0F 1A 6D 08 1D 9A  .T.......H..m...
0F40: 80 23 1A 6E 08 01 54 0F  02 09 10 9B 80 00 54 0F  .#.n..T.......T.
0F50: 1D 9A 80 23 01 5A 0F 1A  8F 15 01 AA 0F 02 00 10  ...#.Z..........
0F60: 25 80 00 A9 0F 45 4D 80  F8 FF FF 7F F8 FF FF 7F  %....EM.........
0F70: 66 64 6F 31 07 80 55 4D  80 F8 FF FF 7F F8 FF FF  fdo1..UM........
0F80: 7F 66 64 6F 31 1A 6A 1D  46 00 AE 00 14 80 00 80  .fdo1.j.F.......
0F90: 1C 50 80 45 4D 80 F8 FF  FF 7F F8 FF FF 7F 66 64  .P.EM.........fd
0FA0: 69 32 07 80 21 1B 01 AA  0F 1B 01 87 11 03 02 10  i2..!...........
0FB0: 05 00 24 9C 80 07 80 07  80 25 02 00 10 07 80 00  ..$......%......
0FC0: DF 0F 1D 90 80 23 48 91  80 23 48 92 80 23 1A 6D  .....#H..#H..#.m
0FD0: 08 48 93 80 23 1A 6E 08  48 91 80 23 01 87 11 02  .H..#.n.H..#....
0FE0: 00 10 00 80 00 ED 0F 1A  66 18 01 87 11 02 00 10  ........f.......
0FF0: 14 80 00 FB 0F 1A C5 1D  01 87 11 02 00 10 19 80  ................
1000: 00 09 10 1A E0 1E 01 87  11 02 00 10 1D 80 00 3A  ...............:
1010: 11 03 01 10 94 80 43 00  43 01 02 09 10 07 80 00  ......C.C.......
1020: 34 11 03 19 00 6E 80 03  37 10 00 80 1A D8 15 02  4....n..7.......
1030: 09 10 95 80 00 16 11 03  25 10 06 10 03 0B 00 07  ........%.......
1040: 10 03 0C 00 08 10 02 32  10 07 80 01 69 10 03 02  .......2....i...
1050: 10 06 10 48 96 80 23 03  02 10 07 10 48 96 80 23  ...H..#.....H..#
1060: 03 02 10 08 10 48 96 80  23 24 97 80 07 80 07 80  .....H..#$......
1070: 25 02 00 10 07 80 00 A2  10 03 1F 00 00 80 45 4D  %.............EM
1080: 80 F8 FF FF 7F F8 FF FF  7F 66 64 6F 31 07 80 1C  .........fdo1...
1090: 50 80 41 07 80 19 80 25  10 02 10 48 98 80 23 01  P.A....%...H..#.
10A0: BB 10 02 00 10 00 80 00  BB 10 03 1F 00 07 80 1A  ................
10B0: B7 1F 1A 4D 1B 1C 50 80  01 BB 10 45 4D 80 F8 FF  ...M..P....EM...
10C0: FF 7F F8 FF FF 7F 66 64  69 31 07 80 1C 50 80 1A  ......fdi1...P..
10D0: D7 21 45 4D 80 F8 FF FF  7F F8 FF FF 7F 66 64 6F  .!EM.........fdo
10E0: 31 07 80 55 4D 80 F8 FF  FF 7F F8 FF FF 7F 66 64  1..UM.........fd
10F0: 6F 31 1A 6A 1D 46 00 AE  00 14 80 00 80 1C 50 80  o1.j.F........P.
1100: 45 4D 80 F8 FF FF 7F F8  FF FF 7F 66 64 69 32 07  EM.........fdi2.
1110: 80 21 00 01 31 11 02 09  10 99 80 00 25 11 1D 9A  .!..1.......%...
1120: 80 23 01 31 11 02 09 10  9B 80 00 31 11 1D 9A 80  .#.1.......1....
1130: 23 01 37 11 1A 8F 15 01  87 11 02 00 10 25 80 00  #.7..........%..
1140: 86 11 45 4D 80 F8 FF FF  7F F8 FF FF 7F 66 64 6F  ..EM.........fdo
1150: 31 07 80 55 4D 80 F8 FF  FF 7F F8 FF FF 7F 66 64  1..UM.........fd
1160: 6F 31 1A 6A 1D 46 00 AE  00 14 80 00 80 1C 50 80  o1.j.F........P.
1170: 45 4D 80 F8 FF FF 7F F8  FF FF 7F 66 64 69 32 07  EM.........fdi2.
1180: 80 21 1B 01 87 11 1B 01  AA 0D 1B 02 1B 00 07 80  .!..............
1190: 01 96 11 01 00 12 02 17  00 07 80 00 8E 15 1A 34  ...............4
11A0: 06 02 06 00 07 80 01 9E  13 03 02 10 05 00 03 03  ................
11B0: 10 07 00 24 8F 80 07 80  07 80 25 02 00 10 07 80  ...$......%.....
11C0: 00 C9 11 1A 4C 16 01 9B  13 02 00 10 00 80 00 DC  ....L...........
11D0: 11 03 1C 00 07 80 1A 36  17 01 9B 13 02 00 10 14  .......6........
11E0: 80 00 EA 11 1A C5 1D 01  9B 13 02 00 10 19 80 00  ................
11F0: F8 11 1A E0 1E 01 9B 13  02 00 10 1D 80 00 54 13  ..............T.
1200: 03 01 10 9D 80 40 59 80  5B 80 01 10 19 00 43 00  .....@Y.[.....C.
1210: 43 01 02 09 10 07 80 00  4E 13 03 37 10 07 80 1A  C.......N..7....
1220: D8 15 02 09 10 95 80 00  30 13 03 25 10 06 10 03  ........0..%....
1230: 0B 00 07 10 03 0C 00 08  10 02 32 10 07 80 01 5C  ..........2....\
1240: 12 03 02 10 06 10 48 96  80 23 03 02 10 07 10 48  ......H..#.....H
1250: 96 80 23 03 02 10 08 10  48 96 80 23 02 19 00 08  ..#.....H..#....
1260: 00 05 CD 12 24 97 80 07  80 07 80 25 02 00 10 07  ....$......%....
1270: 80 00 9D 12 03 1F 00 00  80 45 4D 80 F8 FF FF 7F  .........EM.....
1280: F8 FF FF 7F 66 64 6F 31  07 80 1C 50 80 41 07 80  ....fdo1...P.A..
1290: 19 80 25 10 02 10 48 98  80 23 01 B6 12 02 00 10  ..%...H..#......
12A0: 00 80 00 B6 12 03 1F 00  07 80 1A B7 1F 1A 4D 1B  ..............M.
12B0: 1C 50 80 01 B6 12 45 4D  80 F8 FF FF 7F F8 FF FF  .P....EM........
12C0: 7F 66 64 69 31 07 80 1C  50 80 01 EF 12 03 1F 00  .fdi1...P.......
12D0: 07 80 1A B7 1F 1A 4D 1B  1C 50 80 45 4D 80 F8 FF  ......M..P.EM...
12E0: FF 7F F8 FF FF 7F 66 64  69 31 07 80 1C 50 80 1A  ......fdi1...P..
12F0: D7 21 45 4D 80 F8 FF FF  7F F8 FF FF 7F 66 64 6F  .!EM.........fdo
1300: 31 07 80 55 4D 80 F8 FF  FF 7F F8 FF FF 7F 66 64  1..UM.........fd
1310: 6F 31 1A 6A 1D 46 00 1C  50 80 45 4D 80 F8 FF FF  o1.j.F..P.EM....
1320: 7F F8 FF FF 7F 66 64 69  32 07 80 21 00 01 4B 13  .....fdi2..!..K.
1330: 02 09 10 99 80 00 3F 13  1D 9A 80 23 01 4B 13 02  ......?....#.K..
1340: 09 10 9B 80 00 4B 13 1D  9A 80 23 01 51 13 1A 8F  .....K....#.Q...
1350: 15 01 9B 13 02 00 10 25  80 00 9A 13 45 4D 80 F8  .......%....EM..
1360: FF FF 7F F8 FF FF 7F 66  64 6F 31 07 80 55 4D 80  .......fdo1..UM.
1370: F8 FF FF 7F F8 FF FF 7F  66 64 6F 31 1A 6A 1D 46  ........fdo1.j.F
1380: 00 1C 50 80 45 4D 80 F8  FF FF 7F F8 FF FF 7F 66  ..P.EM.........f
1390: 64 69 32 07 80 21 1B 01  9B 13 1B 01 8B 15 03 02  di2..!..........
13A0: 10 05 00 24 9C 80 07 80  07 80 25 02 00 10 07 80  ...$......%.....
13B0: 00 B9 13 1A 4C 16 01 8B  15 02 00 10 00 80 00 CC  ....L...........
13C0: 13 03 1C 00 07 80 1A 36  17 01 8B 15 02 00 10 14  .......6........
13D0: 80 00 DA 13 1A C5 1D 01  8B 15 02 00 10 19 80 00  ................
13E0: E8 13 1A E0 1E 01 8B 15  02 00 10 1D 80 00 44 15  ..............D.
13F0: 03 01 10 9D 80 40 59 80  5B 80 01 10 19 00 43 00  .....@Y.[.....C.
1400: 43 01 02 09 10 07 80 00  3E 15 03 37 10 07 80 1A  C.......>..7....
1410: D8 15 02 09 10 95 80 00  20 15 03 25 10 06 10 03  ........ ..%....
1420: 0B 00 07 10 03 0C 00 08  10 02 32 10 07 80 01 4C  ..........2....L
1430: 14 03 02 10 06 10 48 96  80 23 03 02 10 07 10 48  ......H..#.....H
1440: 96 80 23 03 02 10 08 10  48 96 80 23 02 19 00 08  ..#.....H..#....
1450: 00 05 BD 14 24 97 80 07  80 07 80 25 02 00 10 07  ....$......%....
1460: 80 00 8D 14 03 1F 00 00  80 45 4D 80 F8 FF FF 7F  .........EM.....
1470: F8 FF FF 7F 66 64 6F 31  07 80 1C 50 80 41 07 80  ....fdo1...P.A..
1480: 19 80 25 10 02 10 48 98  80 23 01 A6 14 02 00 10  ..%...H..#......
1490: 00 80 00 A6 14 03 1F 00  07 80 1A B7 1F 1A 4D 1B  ..............M.
14A0: 1C 50 80 01 A6 14 45 4D  80 F8 FF FF 7F F8 FF FF  .P....EM........
14B0: 7F 66 64 69 31 07 80 1C  50 80 01 DF 14 03 1F 00  .fdi1...P.......
14C0: 07 80 1A B7 1F 1A 4D 1B  1C 50 80 45 4D 80 F8 FF  ......M..P.EM...
14D0: FF 7F F8 FF FF 7F 66 64  69 31 07 80 1C 50 80 1A  ......fdi1...P..
14E0: D7 21 45 4D 80 F8 FF FF  7F F8 FF FF 7F 66 64 6F  .!EM.........fdo
14F0: 31 07 80 55 4D 80 F8 FF  FF 7F F8 FF FF 7F 66 64  1..UM.........fd
1500: 6F 31 1A 6A 1D 46 00 1C  50 80 45 4D 80 F8 FF FF  o1.j.F..P.EM....
1510: 7F F8 FF FF 7F 66 64 69  32 07 80 21 00 01 3B 15  .....fdi2..!..;.
1520: 02 09 10 99 80 00 2F 15  1D 9A 80 23 01 3B 15 02  ....../....#.;..
1530: 09 10 9B 80 00 3B 15 1D  9A 80 23 01 41 15 1A 8F  .....;....#.A...
1540: 15 01 8B 15 02 00 10 25  80 00 8A 15 45 4D 80 F8  .......%....EM..
1550: FF FF 7F F8 FF FF 7F 66  64 6F 31 07 80 55 4D 80  .......fdo1..UM.
1560: F8 FF FF 7F F8 FF FF 7F  66 64 6F 31 1A 6A 1D 46  ........fdo1.j.F
1570: 00 1C 50 80 45 4D 80 F8  FF FF 7F F8 FF FF 7F 66  ..P.EM.........f
1580: 64 69 32 07 80 21 1B 01  8B 15 1B 01 96 11 1B 02  di2..!..........
1590: 09 10 6E 80 00 A1 15 1A  6D 08 1D 9A 80 23 1A 6E  ..n.....m....#.n
15A0: 08 02 09 10 9E 80 00 B3  15 1A 6D 08 1D 5C 80 23  ..........m..\.#
15B0: 1A 6E 08 02 09 10 9F 80  00 C5 15 1A 6D 08 1D 5D  .n..........m..]
15C0: 80 23 1A 6E 08 02 09 10  A0 80 00 D7 15 1A 6D 08  .#.n..........m.
15D0: 1D A1 80 23 1A 6E 08 1B  1D A2 80 06 17 00 03 09  ...#.n..........
15E0: 10 99 80 02 17 00 38 80  05 1F 16 1C 50 80 03 01  ......8.....P...
15F0: 10 25 80 43 00 43 01 02  09 10 99 80 00 02 16 0B  .%.C.C..........
1600: 17 00 02 09 10 9B 80 00  0F 16 03 17 00 5B 80 02  .............[..
1610: 09 10 95 80 00 1C 16 03  17 00 5B 80 01 E3 15 02  ..........[.....
1620: 32 10 07 80 01 4B 16 03  02 10 06 10 48 96 80 23  2....K......H..#
1630: 03 02 10 07 10 48 96 80  23 03 02 10 08 10 48 96  .....H..#.....H.
1640: 80 23 03 02 10 09 10 48  96 80 23 1B 1D A3 80 23  .#.....H..#....#
1650: 48 91 80 23 03 02 10 00  00 08 02 10 00 80 1A B5  H..#............
1660: 16 03 0D 00 19 00 0C 0D  00 9D 00 71 23 02 10 0D  ...........q#...
1670: 00 48 91 80 23 1B 48 91  80 23 03 02 10 00 00 08  .H..#.H..#......
1680: 02 10 00 80 1A B5 16 03  0D 00 19 00 0C 0D 00 9D  ................
1690: 00 B1 23 02 10 0D 00 48  A4 80 23 48 91 80 23 02  ..#....H..#H..#.
16A0: 02 10 01 00 05 AD 16 06  02 10 01 B4 16 1D 5D 80  ..............].
16B0: 23 05 02 10 1B 02 19 00  00 80 00 C5 16 48 A5 80  #............H..
16C0: 23 48 A6 80 23 02 19 00  14 80 00 D5 16 48 A7 80  #H..#........H..
16D0: 23 48 A8 80 23 02 19 00  19 80 00 E5 16 48 A9 80  #H..#........H..
16E0: 23 48 AA 80 23 02 19 00  1D 80 00 F5 16 48 AB 80  #H..#........H..
16F0: 23 48 AC 80 23 02 19 00  25 80 00 05 17 48 AD 80  #H..#...%....H..
1700: 23 48 AE 80 23 02 19 00  2C 80 00 15 17 48 AF 80  #H..#...,....H..
1710: 23 48 B0 80 23 02 19 00  77 80 00 25 17 48 B1 80  #H..#...w..%.H..
1720: 23 48 B2 80 23 02 19 00  5A 80 00 35 17 48 B3 80  #H..#...Z..5.H..
1730: 23 48 B4 80 23 1B 03 20  00 07 80 03 1C 00 07 80  #H..#.. ........
1740: 03 02 10 19 00 08 02 10  00 80 9D 00 B1 25 02 10  .............%..
1750: 02 10 03 18 00 6E 80 06  03 10 02 03 10 02 10 03  .....n..........
1760: 6F 17 3D 18 00 03 10 00  80 0B 03 10 01 5A 17 3D  o.=..........Z.=
1770: 18 00 5A 80 00 80 3D 18  00 6A 80 00 80 06 17 00  ..Z...=..j......
1780: 02 17 00 07 80 00 65 18  24 B5 80 07 80 18 00 25  ......e.$......%
1790: 02 00 10 07 80 00 A3 17  03 1E 00 00 80 1A 26 09  ..............&.
17A0: 01 62 18 02 00 10 5A 80  00 F6 17 45 4D 80 F8 FF  .b....Z....EM...
17B0: FF 7F F8 FF FF 7F 66 64  6F 31 07 80 55 4D 80 F8  ......fdo1..UM..
17C0: FF FF 7F F8 FF FF 7F 66  64 6F 31 7A 00 28 60 04  .......fdo1z.(`.
17D0: 01 27 05 28 60 04 01 08  1A 49 1B 46 00 1C 50 80  .'.(`....I.F..P.
17E0: 45 4D 80 F8 FF FF 7F F8  FF FF 7F 66 64 69 32 07  EM.........fdi2.
17F0: 80 21 1B 01 62 18 02 00  10 6A 80 00 5A 18 02 20  .!..b....j..Z.. 
1800: 00 00 80 00 56 18 45 4D  80 F8 FF FF 7F F8 FF FF  ....V.EM........
1810: 7F 66 64 6F 31 07 80 55  4D 80 F8 FF FF 7F F8 FF  .fdo1..UM.......
1820: FF 7F 66 64 6F 31 4E 01  2A 60 04 01 2F 01 2A 60  ..fdo1N.*`../.*`
1830: 04 01 7A 00 28 60 04 01  27 05 28 60 04 01 08 1A  ..z.(`..'.(`....
1840: 49 1B 1C 4F 80 45 4D 80  F8 FF FF 7F F8 FF FF 7F  I..O.EM.........
1850: 66 64 69 32 07 80 1B 01  62 18 03 0D 00 00 10 1A  fdi2....b.......
1860: 61 19 01 80 17 1B 03 1C  00 07 80 03 20 00 07 80  a........... ...
1870: 06 17 00 02 17 00 07 80  00 58 19 24 B5 80 07 80  .........X.$....
1880: 07 80 25 02 00 10 07 80  00 96 18 03 1E 00 00 80  ..%.............
1890: 1A 26 09 01 55 19 02 00  10 5A 80 00 E9 18 45 4D  .&..U....Z....EM
18A0: 80 F8 FF FF 7F F8 FF FF  7F 66 64 6F 31 07 80 55  .........fdo1..U
18B0: 4D 80 F8 FF FF 7F F8 FF  FF 7F 66 64 6F 31 7A 00  M.........fdo1z.
18C0: 28 60 04 01 27 05 28 60  04 01 08 1A 49 1B 46 00  (`..'.(`....I.F.
18D0: 1C 50 80 45 4D 80 F8 FF  FF 7F F8 FF FF 7F 66 64  .P.EM.........fd
18E0: 69 32 07 80 21 1B 01 55  19 02 00 10 6A 80 00 4D  i2..!..U....j..M
18F0: 19 02 20 00 00 80 00 49  19 45 4D 80 F8 FF FF 7F  .. ....I.EM.....
1900: F8 FF FF 7F 66 64 6F 31  07 80 55 4D 80 F8 FF FF  ....fdo1..UM....
1910: 7F F8 FF FF 7F 66 64 6F  31 4E 01 2A 60 04 01 2F  .....fdo1N.*`../
1920: 01 2A 60 04 01 7A 00 28  60 04 01 27 05 28 60 04  .*`..z.(`..'.(`.
1930: 01 08 1A 49 1B 1C 4F 80  45 4D 80 F8 FF FF 7F F8  ...I..O.EM......
1940: FF FF 7F 66 64 69 32 07  80 1B 01 55 19 03 0D 00  ...fdi2....U....
1950: 00 10 1A 59 19 01 73 18  1B 03 0E 00 77 80 01 66  ...Y..s.....w..f
1960: 19 03 0E 00 5A 80 6A 07  80 38 80 4F 80 02 1C 00  ....Z.j..8.O....
1970: 07 80 00 75 19 45 4D 80  F8 FF FF 7F F8 FF FF 7F  ...u.EM.........
1980: 66 64 6F 31 07 80 55 4D  80 F8 FF FF 7F F8 FF FF  fdo1..UM........
1990: 7F 66 64 6F 31 1A 6A 1D  4E 01 F0 FF FF 7F 2F 00  .fdo1.j.N...../.
19A0: 2A 60 04 01 4E 00 2A 60  04 01 02 20 00 07 80 00  *`..N.*`... ....
19B0: BF 19 03 20 00 00 80 34  70 80 77 71 80 07 80 0C  ... ...4p.wq....
19C0: 0D 00 03 14 00 0D 00 03  01 10 0E 00 40 59 80 66  ............@Y.f
