# 17063983

## Common Data

| Field            | Value                    |
|------------------|--------------------------|
| Zone             | Chocobo Circuit (ID: 70) |
| Block Size       | 1184 bytes               |
| Total Events     | 15                       |
| References Count | 27                       |

## List of Events

| Event ID                   | Entrypoint   |   Size |   Instructions |
|----------------------------|--------------|--------|----------------|
| [65535](#event-65535)      | 0x0000       |      1 |              1 |
| [479](#event-479)          | 0x0001       |      1 |              1 |
| [488](#event-488)          | 0x0002       |      1 |              1 |
| [497](#event-497)          | 0x0003       |      1 |              1 |
| [65535.1](#event-655351)   | 0x0004       |      7 |              2 |
| [65535.2](#event-655352)   | 0x000B       |    110 |             27 |
| [65535.3](#event-655353)   | 0x0079       |     42 |              6 |
| [65535.4](#event-655354)   | 0x00A3       |    267 |             49 |
| [65535.5](#event-655355)   | 0x01AE       |    455 |             89 |
| [65535.6](#event-655356)   | 0x0375       |     31 |              4 |
| [65535.7](#event-655357)   | 0x0394       |     24 |              6 |
| [65535.8](#event-655358)   | 0x03AC       |     31 |              4 |
| [65535.9](#event-655359)   | 0x03CB       |     22 |              6 |
| [65535.10](#event-6553510) | 0x03E1       |      3 |              2 |
| [65535.11](#event-6553511) | 0x03E4       |      3 |              2 |

## DAT References (imed_data)

|   Index | Hex Value   |   Dec Value |
|---------|-------------|-------------|
|       0 | 0x0000      |           0 |
|       1 | 0x0002      |           2 |
|       2 | 0x001C      |          28 |
|       3 | 0x001E      |          30 |
|       4 | 0x0019      |          25 |
|       5 | 0x001B      |          27 |
|       6 | 0x0001      |           1 |
|       7 | 0x0010      |          16 |
|       8 | 0x0008      |           8 |
|       9 | 0x0050      |          80 |
|      10 | 0x0004      |           4 |
|      11 | 0x0003      |           3 |
|      12 | 0x0838      |        2104 |
|      13 | 0x0020      |          32 |
|      14 | 0x000B      |          11 |
|      15 | 0x0017      |          23 |
|      16 | 0x03E8      |        1000 |
|      17 | 0x001F      |          31 |
|      18 | 0x000A      |          10 |
|      19 | 0x0028      |          40 |
|      20 | 0x000E      |          14 |
|      21 | 0x7242F     |      468015 |
|      22 | 0x65DF4     |      417268 |
|      23 | 0x5E10      |       24080 |
|      24 | 0x6F465     |      455781 |
|      25 | 0x5B193     |      373139 |
|      26 | 0x5E69      |       24169 |

## Events

### Event 65535

#### Metadata

| Field        | Value   |
|--------------|---------|
| Entrypoint   | 0x0000  |
| Data Size    | 1 bytes |
| Instructions | 1       |

```
      00 01 02 03 04 05 06 07  08 09 0A 0B 0C 0D 0E 0F
      -- -- -- -- -- -- -- --  -- -- -- -- -- -- -- --
0000: 00                                                .               
```

#### Opcodes

```
  0: 0x0000 [0x00] END_REQSTACK()
```

### Event 479

#### Metadata

| Field        | Value   |
|--------------|---------|
| Entrypoint   | 0x0001  |
| Data Size    | 1 bytes |
| Instructions | 1       |

```
      00 01 02 03 04 05 06 07  08 09 0A 0B 0C 0D 0E 0F
      -- -- -- -- -- -- -- --  -- -- -- -- -- -- -- --
0000:    00                                              .              
```

#### Opcodes

```
  0: 0x0001 [0x00] END_REQSTACK()
```

### Event 488

#### Metadata

| Field        | Value   |
|--------------|---------|
| Entrypoint   | 0x0002  |
| Data Size    | 1 bytes |
| Instructions | 1       |

```
      00 01 02 03 04 05 06 07  08 09 0A 0B 0C 0D 0E 0F
      -- -- -- -- -- -- -- --  -- -- -- -- -- -- -- --
0000:       00                                            .             
```

#### Opcodes

```
  0: 0x0002 [0x00] END_REQSTACK()
```

### Event 497

#### Metadata

| Field        | Value   |
|--------------|---------|
| Entrypoint   | 0x0003  |
| Data Size    | 1 bytes |
| Instructions | 1       |

```
      00 01 02 03 04 05 06 07  08 09 0A 0B 0C 0D 0E 0F
      -- -- -- -- -- -- -- --  -- -- -- -- -- -- -- --
0000:          00                                          .            
```

#### Opcodes

```
  0: 0x0003 [0x00] END_REQSTACK()
```

### Event 65535.1

#### Metadata

| Field        | Value   |
|--------------|---------|
| Entrypoint   | 0x0004  |
| Data Size    | 7 bytes |
| Instructions | 2       |

```
      00 01 02 03 04 05 06 07  08 09 0A 0B 0C 0D 0E 0F
      -- -- -- -- -- -- -- --  -- -- -- -- -- -- -- --
0000:             92 01 F8 FF  FF 7F 00                     .......     
```

#### Opcodes

```
  0: 0x0004 [0x92] EventEntity->Render.Flags3 ^= 0x01
  1: 0x000A [0x00] END_REQSTACK()
```

### Event 65535.2

#### Metadata

| Field        | Value     |
|--------------|-----------|
| Entrypoint   | 0x000B    |
| Data Size    | 110 bytes |
| Instructions | 2         |

```
      00 01 02 03 04 05 06 07  08 09 0A 0B 0C 0D 0E 0F
      -- -- -- -- -- -- -- --  -- -- -- -- -- -- -- --
0000:                                   BF 20 00 80 01             . ...
0010: 80 01 80 00 00 41 02 80  03 80 00 00 01 00 41 04  .....A........A.
0020: 80 05 80 00 00 02 00 BF  20 00 80 01 80 06 80 00  ........ .......
0030: 00 3E 00 00 07 80 40 00  03 03 00 06 80 01 43 00  .>....@.......C.
0040: 06 03 00 3E 00 00 00 80  52 00 03 04 00 06 80 01  ...>....R.......
0050: 55 00 06 04 00 3E 00 00  08 80 64 00 03 05 00 06  U....>....d.....
0060: 80 01 67 00 06 04 00 B6  0D 01 00 02 00 06 80 03  ..g.............
0070: 00 04 00 05 00 32 09 80  00                       .....2...       
```

#### Opcodes

```
  0: 0x000B [0xBF] CHOCOBO_RACING_PARAMETER_GETTER(param_type=0x20)
  1: 0x000D [0x00] END_REQSTACK()
```

#### Data or dead code:

```
# Dead code (unreachable instructions):
     0x000E [0x80] LOAD_WAIT(entity=Unknown NPC (ID: 2147581953/0x80018001))
     0x0013 [0x00] END_REQSTACK()
     0x0014 [0x00] END_REQSTACK()
     0x0015 [0x41] ExtData[1]->WorkLocal[1] = ExtData[1]->WorkLocal[0] (bits 28*-30*)
     0x001E [0x41] ExtData[1]->WorkLocal[2] = ExtData[1]->WorkLocal[0] (bits 25*-27*)
     0x0027 [0xBF] CHOCOBO_RACING_PARAMETER_GETTER(param_type=0x20)
     0x0029 [0x00] END_REQSTACK()
     0x002A [0x80] LOAD_WAIT(entity=Unknown NPC (ID: 2147909633/0x80068001))
     0x002F [0x00] END_REQSTACK()
     0x0030 [0x00] END_REQSTACK()
     0x0031 [0x3E] IF !(ExtData[1]->WorkLocal[0] bit 16*) GOTO 0x0040
     0x0038 [0x03] ExtData[1]->WorkLocal[3] = 1*
     0x003D [0x01] GOTO 0x0043
     0x0040 [0x06] ExtData[1]->WorkLocal[3] = 0
     0x0043 [0x3E] IF !(ExtData[1]->WorkLocal[0] bit 0*) GOTO 0x0052
     0x004A [0x03] ExtData[1]->WorkLocal[4] = 1*
     0x004F [0x01] GOTO 0x0055
     0x0052 [0x06] ExtData[1]->WorkLocal[4] = 0
     0x0055 [0x3E] IF !(ExtData[1]->WorkLocal[0] bit 8*) GOTO 0x0064
     0x005C [0x03] ExtData[1]->WorkLocal[5] = 1*
     0x0061 [0x01] GOTO 0x0067
     0x0064 [0x06] ExtData[1]->WorkLocal[4] = 0
     0x0067 [0xB6] ENTITY_APPEARANCE_HANDLER(case=Look with Render flags, race=ExtData[1]->WorkLocal[1], face=ExtData[1]->WorkLocal[2], head=1*, body=ExtData[1]->WorkLocal[3], hands=ExtData[1]->WorkLocal[4], render_flags=0x0005)
     0x0075 [0x32] ExtData[1]->MainSpeed = 80* * 0.1
     0x0078 [0x00] END_REQSTACK()
```

### Event 65535.3

#### Metadata

| Field        | Value    |
|--------------|----------|
| Entrypoint   | 0x0079   |
| Data Size    | 42 bytes |
| Instructions | 6        |

```
      00 01 02 03 04 05 06 07  08 09 0A 0B 0C 0D 0E 0F
      -- -- -- -- -- -- -- --  -- -- -- -- -- -- -- --
0070:                             9D 03 0A 80 09 00 00           .......
0080: 80 9D 03 0A 80 0A 00 06  80 9D 03 0A 80 0B 00 01  ................
0090: 80 9D 03 0A 80 0C 00 0B  80 37 09 00 0B 00 0A 00  .........7......
00A0: 0C 80 00                                          ...             
```

#### Opcodes

```
  0: 0x0079 [0x9D] 0* = Work_Zone[4*][ExtData[1]->WorkLocal[9]] // Via remapped space
  1: 0x0081 [0x9D] 1* = Work_Zone[4*][ExtData[1]->WorkLocal[10]] // Via remapped space
  2: 0x0089 [0x9D] 2* = Work_Zone[4*][ExtData[1]->WorkLocal[11]] // Via remapped space
  3: 0x0091 [0x9D] 3* = Work_Zone[4*][ExtData[1]->WorkLocal[12]] // Via remapped space
  4: 0x0099 [0x37] UPDATE_EVENT_POSITION_AND_DIR: x=ExtData[1]->WorkLocal[9], z=ExtData[1]->WorkLocal[11], y=ExtData[1]->WorkLocal[10], direction=184.9°*
  5: 0x00A2 [0x00] END_REQSTACK()
```

### Event 65535.4

#### Metadata

| Field        | Value     |
|--------------|-----------|
| Entrypoint   | 0x00A3    |
| Data Size    | 267 bytes |
| Instructions | 49        |

```
      00 01 02 03 04 05 06 07  08 09 0A 0B 0C 0D 0E 0F
      -- -- -- -- -- -- -- --  -- -- -- -- -- -- -- --
00A0:          03 07 00 2C 10  03 0E 00 2C 10 03 0F 00     ...,....,....
00B0: 2D 10 03 11 00 29 10 02  11 00 0D 80 03 DF 00 41  -....).........A
00C0: 08 80 0E 80 26 10 13 00  03 12 00 08 80 08 12 00  ....&...........
00D0: 13 00 07 0E 00 12 00 03  13 00 12 00 01 E2 00 06  ................
00E0: 13 00 02 11 00 0D 80 03  0A 01 41 08 80 0E 80 27  ..........A....'
00F0: 10 14 00 03 12 00 08 80  08 12 00 14 00 07 0F 00  ................
0100: 12 00 03 14 00 12 00 01  0D 01 06 14 00 03 08 00  ................
0110: 0E 00 14 08 00 0A 80 9D  03 0A 80 09 00 08 00 0B  ................
0120: 08 00 9D 03 0A 80 0A 00  08 00 0B 08 00 9D 03 0A  ................
0130: 80 0B 00 08 00 0B 08 00  9D 03 0A 80 0C 00 08 00  ................
0140: 02 11 00 00 80 00 4B 01  01 52 01 36 09 00 0B 00  ......K..R.6....
0150: 0A 00 40 07 80 0F 80 35  10 11 00 08 14 00 13 00  ..@....5........
0160: 9D 03 00 80 13 00 11 00  07 14 00 13 00 9D 03 00  ................
0170: 80 12 00 11 00 14 14 00  10 80 15 14 00 12 00 03  ................
0180: 12 00 14 00 03 13 00 11  00 14 13 00 08 80 07 13  ................
0190: 00 01 80 9D 03 06 80 13  00 13 00 14 12 00 13 00  ................
01A0: 03 0D 00 12 00 15 0D 00  10 80 32 0D 00 00        ..........2...  
```

#### Opcodes

```
  0: 0x00A3 [0x03] ExtData[1]->WorkLocal[7] = Work_Zone[44]
  1: 0x00A8 [0x03] ExtData[1]->WorkLocal[14] = Work_Zone[44]
  2: 0x00AD [0x03] ExtData[1]->WorkLocal[15] = Work_Zone[45]
  3: 0x00B2 [0x03] ExtData[1]->WorkLocal[17] = Work_Zone[41]
  4: 0x00B7 [0x02] IF !(ExtData[1]->WorkLocal[17] >= 32*) GOTO 0x00DF
  5: 0x00BF [0x41] ExtData[1]->WorkLocal[19] = Work_Zone[38] (bits 8*-11*)
  6: 0x00C8 [0x03] ExtData[1]->WorkLocal[18] = 8*
  7: 0x00CD [0x08] ExtData[1]->WorkLocal[18] -= ExtData[1]->WorkLocal[19]
  8: 0x00D2 [0x07] ExtData[1]->WorkLocal[14] += ExtData[1]->WorkLocal[18]
  9: 0x00D7 [0x03] ExtData[1]->WorkLocal[19] = ExtData[1]->WorkLocal[18]
 10: 0x00DC [0x01] GOTO 0x00E2
 11: 0x00DF [0x06] ExtData[1]->WorkLocal[19] = 0

SUBROUTINE_00E2:
 12: 0x00E2 [0x02] IF !(ExtData[1]->WorkLocal[17] >= 32*) GOTO 0x010A
 13: 0x00EA [0x41] ExtData[1]->WorkLocal[20] = Work_Zone[39] (bits 8*-11*)
 14: 0x00F3 [0x03] ExtData[1]->WorkLocal[18] = 8*
 15: 0x00F8 [0x08] ExtData[1]->WorkLocal[18] -= ExtData[1]->WorkLocal[20]
 16: 0x00FD [0x07] ExtData[1]->WorkLocal[15] += ExtData[1]->WorkLocal[18]
 17: 0x0102 [0x03] ExtData[1]->WorkLocal[20] = ExtData[1]->WorkLocal[18]
 18: 0x0107 [0x01] GOTO 0x010D
 19: 0x010A [0x06] ExtData[1]->WorkLocal[20] = 0

SUBROUTINE_010D:
 20: 0x010D [0x03] ExtData[1]->WorkLocal[8] = ExtData[1]->WorkLocal[14]
 21: 0x0112 [0x14] ExtData[1]->WorkLocal[8] *= 4*
 22: 0x0117 [0x9D] ExtData[1]->WorkLocal[8] = Work_Zone[4*][ExtData[1]->WorkLocal[9]] // Via remapped space
 23: 0x011F [0x0B] ExtData[1]->WorkLocal[8]++
 24: 0x0122 [0x9D] ExtData[1]->WorkLocal[8] = Work_Zone[4*][ExtData[1]->WorkLocal[10]] // Via remapped space
 25: 0x012A [0x0B] ExtData[1]->WorkLocal[8]++
 26: 0x012D [0x9D] ExtData[1]->WorkLocal[8] = Work_Zone[4*][ExtData[1]->WorkLocal[11]] // Via remapped space
 27: 0x0135 [0x0B] ExtData[1]->WorkLocal[8]++
 28: 0x0138 [0x9D] ExtData[1]->WorkLocal[8] = Work_Zone[4*][ExtData[1]->WorkLocal[12]] // Via remapped space
 29: 0x0140 [0x02] IF !(ExtData[1]->WorkLocal[17] == 0*) GOTO 0x014B
 30: 0x0148 [0x01] GOTO 0x0152
 31: 0x014B [0x36] SET_ENTITY_EVENT_POSITION(pos_x=ExtData[1]->WorkLocal[9], pos_z=ExtData[1]->WorkLocal[11], pos_y=ExtData[1]->WorkLocal[10])

SUBROUTINE_0152:
 32: 0x0152 [0x40] SET_BIT_WORK_RANGE(start_bit=16*, end_bit=23*, target=Work_Zone[53], source=ExtData[1]->WorkLocal[17])
 33: 0x015B [0x08] ExtData[1]->WorkLocal[20] -= ExtData[1]->WorkLocal[19]
 34: 0x0160 [0x9D] ExtData[1]->WorkLocal[17] = Work_Zone[0][ExtData[1]->WorkLocal[19]] // Via remapped space
 35: 0x0168 [0x07] ExtData[1]->WorkLocal[20] += ExtData[1]->WorkLocal[19]
 36: 0x016D [0x9D] ExtData[1]->WorkLocal[17] = Work_Zone[0][ExtData[1]->WorkLocal[18]] // Via remapped space
 37: 0x0175 [0x14] ExtData[1]->WorkLocal[20] *= 1000*
 38: 0x017A [0x15] ExtData[1]->WorkLocal[20] /= ExtData[1]->WorkLocal[18]
 39: 0x017F [0x03] ExtData[1]->WorkLocal[18] = ExtData[1]->WorkLocal[20]
 40: 0x0184 [0x03] ExtData[1]->WorkLocal[19] = ExtData[1]->WorkLocal[17]
 41: 0x0189 [0x14] ExtData[1]->WorkLocal[19] *= 8*
 42: 0x018E [0x07] ExtData[1]->WorkLocal[19] += 2*
 43: 0x0193 [0x9D] ExtData[1]->WorkLocal[19] = Work_Zone[1*][ExtData[1]->WorkLocal[19]] // Via remapped space
 44: 0x019B [0x14] ExtData[1]->WorkLocal[18] *= ExtData[1]->WorkLocal[19]
 45: 0x01A0 [0x03] ExtData[1]->WorkLocal[13] = ExtData[1]->WorkLocal[18]
 46: 0x01A5 [0x15] ExtData[1]->WorkLocal[13] /= 1000*
 47: 0x01AA [0x32] ExtData[1]->MainSpeed = ExtData[1]->WorkLocal[13] * 0.1
 48: 0x01AD [0x00] END_REQSTACK()
```

### Event 65535.5

#### Metadata

| Field        | Value     |
|--------------|-----------|
| Entrypoint   | 0x01AE    |
| Data Size    | 455 bytes |
| Instructions | 49        |

```
      00 01 02 03 04 05 06 07  08 09 0A 0B 0C 0D 0E 0F
      -- -- -- -- -- -- -- --  -- -- -- -- -- -- -- --
01A0:                                            03 07                ..
01B0: 00 0E 00 02 11 00 03 80  00 C0 01 03 07 00 0F 00  ................
01C0: 02 11 00 11 80 00 D0 01  03 07 00 31 10 0C 07 00  ...........1....
01D0: 02 07 00 33 10 05 92 02  02 07 00 0F 00 05 48 02  ...3..........H.
01E0: 02 31 10 07 00 05 EF 01  3C 30 10 01 80 06 80 02  .1......<0......
01F0: 07 00 33 10 02 FA 01 01  92 02 03 08 00 07 00 14  ..3.............
0200: 08 00 0A 80 9D 03 0A 80  09 00 08 00 0B 08 00 9D  ................
0210: 03 0A 80 0A 00 08 00 0B  08 00 9D 03 0A 80 0B 00  ................
0220: 08 00 0B 08 00 9D 03 0A  80 0C 00 08 00 02 11 00  ................
0230: 00 80 00 38 02 01 42 02  1F 00 09 00 0B 00 0A 00  ...8..B.........
0240: 1F 01 0B 07 00 01 D8 01  07 11 00 06 80 40 07 80  .............@..
0250: 0F 80 35 10 11 00 3C 30  10 12 80 06 80 03 0E 00  ..5...<0........
0260: 0F 00 9D 03 00 80 10 00  11 00 07 0F 00 10 00 1A  ................
0270: 93 02 02 11 00 03 80 00  7F 02 03 07 00 0F 00 02  ................
0280: 11 00 11 80 00 8F 02 03  07 00 31 10 0C 07 00 01  ..........1.....
0290: D0 01 00 03 17 00 0E 00  03 18 00 0F 00 02 11 00  ................
02A0: 0D 80 03 CF 02 BF 40 00  80 11 00 00 80 15 00 41  ......@........A
02B0: 08 80 0E 80 15 00 13 00  03 12 00 08 80 08 12 00  ................
02C0: 13 00 07 0E 00 12 00 03  13 00 12 00 01 D4 02 03  ................
02D0: 13 00 00 80 02 11 00 0D  80 03 06 03 BF 40 00 80  .............@..
02E0: 11 00 06 80 16 00 41 08  80 0E 80 16 00 14 00 03  ......A.........
02F0: 12 00 08 80 08 12 00 14  00 07 0F 00 12 00 03 14  ................
0300: 00 12 00 01 0B 03 03 14  00 00 80 08 14 00 13 00  ................
0310: 9D 03 00 80 13 00 11 00  07 14 00 13 00 9D 03 00  ................
0320: 80 12 00 11 00 14 14 00  10 80 15 14 00 12 00 03  ................
0330: 12 00 14 00 03 13 00 11  00 14 13 00 08 80 07 13  ................
0340: 00 01 80 9D 03 06 80 13  00 13 00 14 12 00 13 00  ................
0350: 03 0D 00 12 00 15 0D 00  10 80 02 11 00 0D 80 04  ................
0360: 67 03 03 0D 00 13 80 32  0D 00 03 0E 00 17 00 03  g......2........
0370: 0F 00 18 00 1B                                    .....           
```

#### Opcodes

```
  0: 0x01AE [0x03] ExtData[1]->WorkLocal[7] = ExtData[1]->WorkLocal[14]
  1: 0x01B3 [0x02] IF !(ExtData[1]->WorkLocal[17] == 30*) GOTO 0x01C0
  2: 0x01BB [0x03] ExtData[1]->WorkLocal[7] = ExtData[1]->WorkLocal[15]
  3: 0x01C0 [0x02] IF !(ExtData[1]->WorkLocal[17] == 31*) GOTO 0x01D0
  4: 0x01C8 [0x03] ExtData[1]->WorkLocal[7] = Work_Zone[49]
  5: 0x01CD [0x0C] ExtData[1]->WorkLocal[7]--
  6: 0x01D0 [0x02] IF !(ExtData[1]->WorkLocal[7] > Work_Zone[51]) GOTO 0x0292
  7: 0x01D8 [0x02] IF !(ExtData[1]->WorkLocal[7] > ExtData[1]->WorkLocal[15]) GOTO 0x0248
  8: 0x01E0 [0x02] IF !(Work_Zone[49] > ExtData[1]->WorkLocal[7]) GOTO 0x01EF
  9: 0x01E8 [0x3C] SET_BIT_FLAG_CONDITIONAL(target_work_offset=Work_Zone[48], bit_index_work_offset=2*, condition_work_offset=1*)
 10: 0x01EF [0x02] IF !(ExtData[1]->WorkLocal[7] <= Work_Zone[51]) GOTO 0x01FA
 11: 0x01F7 [0x01] GOTO 0x0292
 12: 0x01FA [0x03] ExtData[1]->WorkLocal[8] = ExtData[1]->WorkLocal[7]
 13: 0x01FF [0x14] ExtData[1]->WorkLocal[8] *= 4*
 14: 0x0204 [0x9D] ExtData[1]->WorkLocal[8] = Work_Zone[4*][ExtData[1]->WorkLocal[9]] // Via remapped space
 15: 0x020C [0x0B] ExtData[1]->WorkLocal[8]++
 16: 0x020F [0x9D] ExtData[1]->WorkLocal[8] = Work_Zone[4*][ExtData[1]->WorkLocal[10]] // Via remapped space
 17: 0x0217 [0x0B] ExtData[1]->WorkLocal[8]++
 18: 0x021A [0x9D] ExtData[1]->WorkLocal[8] = Work_Zone[4*][ExtData[1]->WorkLocal[11]] // Via remapped space
 19: 0x0222 [0x0B] ExtData[1]->WorkLocal[8]++
 20: 0x0225 [0x9D] ExtData[1]->WorkLocal[8] = Work_Zone[4*][ExtData[1]->WorkLocal[12]] // Via remapped space
 21: 0x022D [0x02] IF !(ExtData[1]->WorkLocal[17] == 0*) GOTO 0x0238
 22: 0x0235 [0x01] GOTO 0x0242
 23: 0x0238 [0x1F] MOVE_ENTITY: EventEntity moves to X=ExtData[1]->WorkLocal[9], Z=ExtData[1]->WorkLocal[11], Y=ExtData[1]->WorkLocal[10]
 24: 0x0240 [0x1F] MOVE_ENTITY: Update entity position (mode=1)

SUBROUTINE_0242:
 25: 0x0242 [0x0B] ExtData[1]->WorkLocal[7]++
 26: 0x0245 [0x01] GOTO 0x01D8
 27: 0x0248 [0x07] ExtData[1]->WorkLocal[17] += 1*
 28: 0x024D [0x40] SET_BIT_WORK_RANGE(start_bit=16*, end_bit=23*, target=Work_Zone[53], source=ExtData[1]->WorkLocal[17])
 29: 0x0256 [0x3C] SET_BIT_FLAG_CONDITIONAL(target_work_offset=Work_Zone[48], bit_index_work_offset=10*, condition_work_offset=1*)
 30: 0x025D [0x03] ExtData[1]->WorkLocal[14] = ExtData[1]->WorkLocal[15]
 31: 0x0262 [0x9D] ExtData[1]->WorkLocal[17] = Work_Zone[0][ExtData[1]->WorkLocal[16]] // Via remapped space
 32: 0x026A [0x07] ExtData[1]->WorkLocal[15] += ExtData[1]->WorkLocal[16]
 33: 0x026F [0x1A] CALL_SUBROUTINE(address=0x0293)
 34: 0x0272 [0x02] IF !(ExtData[1]->WorkLocal[17] == 30*) GOTO 0x027F
 35: 0x027A [0x03] ExtData[1]->WorkLocal[7] = ExtData[1]->WorkLocal[15]
 36: 0x027F [0x02] IF !(ExtData[1]->WorkLocal[17] == 31*) GOTO 0x028F
 37: 0x0287 [0x03] ExtData[1]->WorkLocal[7] = Work_Zone[49]
 38: 0x028C [0x0C] ExtData[1]->WorkLocal[7]--
 39: 0x028F [0x01] GOTO 0x01D0

SUBROUTINE_0292:
 40: 0x0292 [0x00] END_REQSTACK()

SUBROUTINE_0293:
 41: 0x0293 [0x03] ExtData[1]->WorkLocal[23] = ExtData[1]->WorkLocal[14]
 42: 0x0298 [0x03] ExtData[1]->WorkLocal[24] = ExtData[1]->WorkLocal[15]
 43: 0x029D [0x02] IF !(ExtData[1]->WorkLocal[17] >= 32*) GOTO 0x02CF
 44: 0x02A5 [0xBF] CHOCOBO_RACING_PARAMETER_GETTER(param_type=0x40)
 45: 0x02A7 [0x00] END_REQSTACK()

SUBROUTINE_02D4:
 46: 0x02D4 [0x02] IF !(ExtData[1]->WorkLocal[17] >= 32*) GOTO 0x0306
 47: 0x02DC [0xBF] CHOCOBO_RACING_PARAMETER_GETTER(param_type=0x40)
 48: 0x02DE [0x00] END_REQSTACK()
```

#### Data or dead code:

```
# Dead code (unreachable instructions):
     0x02A8 [0x80] LOAD_WAIT(entity=Unknown NPC (ID: 2147483665/0x80000011))
     0x02AD [0x15] 0x4100 /= 8*
     0x02B2 [0x0E] 0x1580 |= 0x1300
     0x02B7 [0x00] END_REQSTACK()
     0x02B8 [0x03] ExtData[1]->WorkLocal[18] = 8*
     0x02BD [0x08] ExtData[1]->WorkLocal[18] -= ExtData[1]->WorkLocal[19]
     0x02C2 [0x07] ExtData[1]->WorkLocal[14] += ExtData[1]->WorkLocal[18]
     0x02C7 [0x03] ExtData[1]->WorkLocal[19] = ExtData[1]->WorkLocal[18]
     0x02CC [0x01] GOTO 0x02D4
# Dead code (unreachable instructions):
     0x02DF [0x80] LOAD_WAIT(entity=Unknown NPC (ID: 2147876881/0x80060011))
     0x02E4 [0x16] 0x4100 = sin(8*) * 11*
     0x02EB [0x16] 0x1400 = sin(0x0300) * ExtData[1]->WorkLocal[18]
     0x02F2 [0x08] 0x0880 -= ExtData[1]->WorkLocal[18]
     0x02F7 [0x14] 0x0700 *= ExtData[1]->WorkLocal[15]
     0x02FC [0x12] 0x0300 = rand()
     0x02FF [0x14] 0x1200 *= 0x0100
     0x0304 [0x0B] 0x0303++
```

### Event 65535.6

#### Metadata

| Field        | Value    |
|--------------|----------|
| Entrypoint   | 0x0375   |
| Data Size    | 31 bytes |
| Instructions | 4        |

```
      00 01 02 03 04 05 06 07  08 09 0A 0B 0C 0D 0E 0F
      -- -- -- -- -- -- -- --  -- -- -- -- -- -- -- --
0370:                B4 00 06  00 53 61 6B 75 72 61 00       ....Sakura.
0380: 00 00 00 00 00 00 00 00  00 B5 00 06 00 92 01 F8  ................
0390: FF FF 7F 00                                       ....            
```

#### Opcodes

```
  0: 0x0375 [0xB4] UI_WINDOW_STRING_HANDLER(case=0x00 - Copy string from opcode, work_offset=ExtData[1]->WorkLocal[6], string="Sakura")
  1: 0x0389 [0xB5] SET_EVENT_ENTITY_NAME: Change EventEntity name to ExtData[1]->WorkLocal[6]
  2: 0x038D [0x92] EventEntity->Render.Flags3 ^= 0x01
  3: 0x0393 [0x00] END_REQSTACK()
```

### Event 65535.7

#### Metadata

| Field        | Value    |
|--------------|----------|
| Entrypoint   | 0x0394   |
| Data Size    | 24 bytes |
| Instructions | 6        |

```
      00 01 02 03 04 05 06 07  08 09 0A 0B 0C 0D 0E 0F
      -- -- -- -- -- -- -- --  -- -- -- -- -- -- -- --
0390:             32 14 80 1F  00 15 80 16 80 17 80 1F      2...........
03A0: 01 6F 4A F0 FF FF 7F F8  FF FF 7F 00              .oJ.........    
```

#### Opcodes

```
  0: 0x0394 [0x32] ExtData[1]->MainSpeed = 14* * 0.1
  1: 0x0397 [0x1F] MOVE_ENTITY: EventEntity moves to X=468.015*, Z=417.268*, Y=24.080*
  2: 0x039F [0x1F] MOVE_ENTITY: Update entity position (mode=1)
  3: 0x03A1 [0x6F] WAIT_FRAME_DELAY: Yield until WaitTime reaches zero
  4: 0x03A2 [0x4A] LocalPlayer looks at EventEntity
  5: 0x03AB [0x00] END_REQSTACK()
```

### Event 65535.8

#### Metadata

| Field        | Value    |
|--------------|----------|
| Entrypoint   | 0x03AC   |
| Data Size    | 31 bytes |
| Instructions | 4        |

```
      00 01 02 03 04 05 06 07  08 09 0A 0B 0C 0D 0E 0F
      -- -- -- -- -- -- -- --  -- -- -- -- -- -- -- --
03A0:                                      B4 00 06 00              ....
03B0: 4B 65 79 61 6B 69 00 00  00 00 00 00 00 00 00 00  Keyaki..........
03C0: B5 00 06 00 92 01 F8 FF  FF 7F 00                 ...........     
```

#### Opcodes

```
  0: 0x03AC [0xB4] UI_WINDOW_STRING_HANDLER(case=0x00 - Copy string from opcode, work_offset=ExtData[1]->WorkLocal[6], string="Keyaki")
  1: 0x03C0 [0xB5] SET_EVENT_ENTITY_NAME: Change EventEntity name to ExtData[1]->WorkLocal[6]
  2: 0x03C4 [0x92] EventEntity->Render.Flags3 ^= 0x01
  3: 0x03CA [0x00] END_REQSTACK()
```

### Event 65535.9

#### Metadata

| Field        | Value    |
|--------------|----------|
| Entrypoint   | 0x03CB   |
| Data Size    | 22 bytes |
| Instructions | 6        |

```
      00 01 02 03 04 05 06 07  08 09 0A 0B 0C 0D 0E 0F
      -- -- -- -- -- -- -- --  -- -- -- -- -- -- -- --
03C0:                                   32 09 80 1F 00             2....
03D0: 18 80 19 80 1A 80 1F 01  1E 32 60 04 01 1C 03 80  .........2`.....
03E0: 00                                                .               
```

#### Opcodes

```
  0: 0x03CB [0x32] ExtData[1]->MainSpeed = 80* * 0.1
  1: 0x03CE [0x1F] MOVE_ENTITY: EventEntity moves to X=455.781*, Z=373.139*, Y=24.169*
  2: 0x03D6 [0x1F] MOVE_ENTITY: Update entity position (mode=1)
  3: 0x03D8 [0x1E] EventEntity looks at Unnamed NPC (ID: 17063986/0x01046032) and starts talking
  4: 0x03DD [0x1C] WAIT(30* ticks)
  5: 0x03E0 [0x00] END_REQSTACK()
```

### Event 65535.10

#### Metadata

| Field        | Value   |
|--------------|---------|
| Entrypoint   | 0x03E1  |
| Data Size    | 3 bytes |
| Instructions | 2       |

```
      00 01 02 03 04 05 06 07  08 09 0A 0B 0C 0D 0E 0F
      -- -- -- -- -- -- -- --  -- -- -- -- -- -- -- --
03E0:    61 00 00                                        a..            
```

#### Opcodes

```
  0: 0x03E1 [0x61] EventEntity->Render.Flags2 &= ~0x00000001
  1: 0x03E3 [0x00] END_REQSTACK()
```

### Event 65535.11

#### Metadata

| Field        | Value   |
|--------------|---------|
| Entrypoint   | 0x03E4  |
| Data Size    | 3 bytes |
| Instructions | 2       |

```
      00 01 02 03 04 05 06 07  08 09 0A 0B 0C 0D 0E 0F
      -- -- -- -- -- -- -- --  -- -- -- -- -- -- -- --
03E0:             61 01 00                                  a..         
```

#### Opcodes

```
  0: 0x03E4 [0x61] EventEntity->Render.Flags2 |= 0x00000001
  1: 0x03E6 [0x00] END_REQSTACK()
```
