# 17063976 - cameraA

## Common Data

| Field            | Value                    |
|------------------|--------------------------|
| Zone             | Chocobo Circuit (ID: 70) |
| Block Size       | 3336 bytes               |
| Total Events     | 9                        |
| References Count | 167                      |

## List of Events

| Event ID                 | Entrypoint   |   Size |   Instructions |
|--------------------------|--------------|--------|----------------|
| [65535](#event-65535)    | 0x0000       |      1 |              1 |
| [116](#event-116)        | 0x0001       |      1 |              1 |
| [427](#event-427)        | 0x0002       |      1 |              1 |
| [458](#event-458)        | 0x0003       |      1 |              1 |
| [469](#event-469)        | 0x0004       |      1 |              1 |
| [65535.1](#event-655351) | 0x0005       |   1799 |            172 |
| [65535.2](#event-655352) | 0x070C       |    741 |             96 |
| [65535.3](#event-655353) | 0x09F1       |     36 |              4 |
| [65535.4](#event-655354) | 0x0A15       |     33 |              3 |

## DAT References (imed_data)

|   Index | Hex Value   |   Dec Value |
|---------|-------------|-------------|
|       0 | 0x0000      |           0 |
|       1 | 0x00BF      |         191 |
|       2 | 0x0001      |           1 |
|       3 | 0x0126      |         294 |
|       4 | 0x0002      |           2 |
|       5 | 0x0003      |           3 |
|       6 | 0x0004      |           4 |
|       7 | 0x0005      |           5 |
|       8 | 0x0006      |           6 |
|       9 | 0x0007      |           7 |
|      10 | 0x0008      |           8 |
|      11 | 0x000B      |          11 |
|      12 | 0x000C      |          12 |
|      13 | 0x000D      |          13 |
|      14 | 0x000E      |          14 |
|      15 | 0x000F      |          15 |
|      16 | 0x0010      |          16 |
|      17 | 0x0011      |          17 |
|      18 | 0x0012      |          18 |
|      19 | 0x0015      |          21 |
|      20 | 0x0016      |          22 |
|      21 | 0x0017      |          23 |
|      22 | 0x0018      |          24 |
|      23 | 0x0019      |          25 |
|      24 | 0x001A      |          26 |
|      25 | 0x001B      |          27 |
|      26 | 0x001C      |          28 |
|      27 | 0x001F      |          31 |
|      28 | 0x0020      |          32 |
|      29 | 0x0021      |          33 |
|      30 | 0x0022      |          34 |
|      31 | 0x0023      |          35 |
|      32 | 0x0024      |          36 |
|      33 | 0x0025      |          37 |
|      34 | 0x0026      |          38 |
|      35 | 0x0029      |          41 |
|      36 | 0x002A      |          42 |
|      37 | 0x002B      |          43 |
|      38 | 0x002C      |          44 |
|      39 | 0x002D      |          45 |
|      40 | 0x002E      |          46 |
|      41 | 0x002F      |          47 |
|      42 | 0x0030      |          48 |
|      43 | 0x0032      |          50 |
|      44 | 0x0033      |          51 |
|      45 | 0x0034      |          52 |
|      46 | 0x0035      |          53 |
|      47 | 0xFFFE3C86  |  4294851718 |
|      48 | 0xFFFEEE98  |  4294897304 |
|      49 | 0xFFFFF0AF  |  4294963375 |
|      50 | 0x0353      |         851 |
|      51 | 0xFFFDC617  |  4294821399 |
|      52 | 0xFFFEA887  |  4294879367 |
|      53 | 0xFFFFECC4  |  4294962372 |
|      54 | 0x0CFA      |        3322 |
|      55 | 0xFFFD5947  |  4294793543 |
|      56 | 0xFFFEECCE  |  4294896846 |
|      57 | 0xFFFFF09D  |  4294963357 |
|      58 | 0x0510      |        1296 |
|      59 | 0xFFFCB2C3  |  4294750915 |
|      60 | 0xFFFEFE13  |  4294901267 |
|      61 | 0xFFFFEFDC  |  4294963164 |
|      62 | 0x0D05      |        3333 |
|      63 | 0xFFFC6258  |  4294730328 |
|      64 | 0xFFFF7755  |  4294932309 |
|      65 | 0xFFFFE7C8  |  4294961096 |
|      66 | 0x05A4      |        1444 |
|      67 | 0xFFFC2FD6  |  4294717398 |
|      68 | 0xFFFFFC91  |  4294966417 |
|      69 | 0xFFFFE84A  |  4294961226 |
|      70 | 0x03C4      |         964 |
|      71 | 0xFFFCACB9  |  4294749369 |
|      72 | 0x89B9      |       35257 |
|      73 | 0xFFFFF094  |  4294963348 |
|      74 | 0x0A29      |        2601 |
|      75 | 0xFFFCB68A  |  4294751882 |
|      76 | 0x10695     |       67221 |
|      77 | 0xFFFFEC68  |  4294962280 |
|      78 | 0x02F8      |         760 |
|      79 | 0xFFFD620E  |  4294795790 |
|      80 | 0x10288     |       66184 |
|      81 | 0xFFFFE6A1  |  4294960801 |
|      82 | 0x0AE7      |        2791 |
|      83 | 0x0009      |           9 |
|      84 | 0xFFFDBADB  |  4294818523 |
|      85 | 0x156FC     |       87804 |
|      86 | 0xFFFFEF57  |  4294963031 |
|      87 | 0x057F      |        1407 |
|      88 | 0x000A      |          10 |
|      89 | 0xFFFE4E68  |  4294856296 |
|      90 | 0x10D88     |       69000 |
|      91 | 0xFFFFDE38  |  4294958648 |
|      92 | 0x0E2E      |        3630 |
|      93 | 0xFFFE8CDB  |  4294872283 |
|      94 | 0x10730     |       67376 |
|      95 | 0xFFFFF353  |  4294964051 |
|      96 | 0xFFFF508D  |  4294922381 |
|      97 | 0x10B8A     |       68490 |
|      98 | 0xFFFFE87F  |  4294961279 |
|      99 | 0x0BC9      |        3017 |
|     100 | 0xFFFFE4D0  |  4294960336 |
|     101 | 0x130FB     |       78075 |
|     102 | 0xFFFFECB4  |  4294962356 |
|     103 | 0x0F96      |        3990 |
|     104 | 0x4F10      |       20240 |
|     105 | 0x1122B     |       70187 |
|     106 | 0xFFFFF060  |  4294963296 |
|     107 | 0x084E      |        2126 |
|     108 | 0x94B7      |       38071 |
|     109 | 0x1530E     |       86798 |
|     110 | 0xFFFFF113  |  4294963475 |
|     111 | 0x08C5      |        2245 |
|     112 | 0x1509B     |       86171 |
|     113 | 0x14FCB     |       85963 |
|     114 | 0xFFFFD5EF  |  4294956527 |
|     115 | 0x038E      |         910 |
|     116 | 0x0013      |          19 |
|     117 | 0x0014      |          20 |
|     118 | 0x3658C     |      222604 |
|     119 | 0x7C82      |       31874 |
|     120 | 0xFFFFF38B  |  4294964107 |
|     121 | 0x0FF5      |        4085 |
|     122 | 0x389F6     |      231926 |
|     123 | 0x809C      |       32924 |
|     124 | 0xFFFFBDDF  |  4294950367 |
|     125 | 0x0DEE      |        3566 |
|     126 | 0x3843F     |      230463 |
|     127 | 0xFFFFF0C4  |  4294963396 |
|     128 | 0xFFFFF0E5  |  4294963429 |
|     129 | 0x0043      |          67 |
|     130 | 0x39E7A     |      237178 |
|     131 | 0xFFFF579F  |  4294924191 |
|     132 | 0xFFFFF0DD  |  4294963421 |
|     133 | 0x0B7B      |        2939 |
|     134 | 0x2FE54     |      196180 |
|     135 | 0xFFFF6F6D  |  4294930285 |
|     136 | 0xFFFFEE66  |  4294962790 |
|     137 | 0x01A6      |         422 |
|     138 | 0x2ACC4     |      175300 |
|     139 | 0xFFFEA7CC  |  4294879180 |
|     140 | 0xFFFFEBA0  |  4294962080 |
|     141 | 0x09EF      |        2543 |
|     142 | 0x1FFB8     |      131000 |
|     143 | 0xFFFEE6C0  |  4294895296 |
|     144 | 0xFFFFE835  |  4294961205 |
|     145 | 0x0FDE      |        4062 |
|     146 | 0x15F90     |       90000 |
|     147 | 0xFFFEAC28  |  4294880296 |
|     148 | 0xFFFFE83D  |  4294961213 |
|     149 | 0x0175      |         373 |
|     150 | 0xFCB1      |       64689 |
|     151 | 0xFFFEE716  |  4294895382 |
|     152 | 0xFFFFE363  |  4294959971 |
|     153 | 0x001D      |          29 |
|     154 | 0xA323      |       41763 |
|     155 | 0xFFFEE273  |  4294894195 |
|     156 | 0xFFFFECAE  |  4294962350 |
|     157 | 0x03E9      |        1001 |
|     158 | 0x001E      |          30 |
|     159 | 0x1721      |        5921 |
|     160 | 0xFFFEF01C  |  4294897692 |
|     161 | 0xFFFFF397  |  4294964119 |
|     162 | 0x0483      |        1155 |
|     163 | 0xFFFF607E  |  4294926462 |
|     164 | 0xFFFEA1C8  |  4294877640 |
|     165 | 0xFFFFE684  |  4294960772 |
|     166 | 0x046D      |        1133 |

## Events

### Event 65535

#### Metadata

| Field        | Value   |
|--------------|---------|
| Entrypoint   | 0x0000  |
| Data Size    | 1 bytes |
| Instructions | 1       |

```
      00 01 02 03 04 05 06 07  08 09 0A 0B 0C 0D 0E 0F
      -- -- -- -- -- -- -- --  -- -- -- -- -- -- -- --
0000: 00                                                .               
```

#### Opcodes

```
  0: 0x0000 [0x00] END_REQSTACK()
```

### Event 116

#### Metadata

| Field        | Value   |
|--------------|---------|
| Entrypoint   | 0x0001  |
| Data Size    | 1 bytes |
| Instructions | 1       |

```
      00 01 02 03 04 05 06 07  08 09 0A 0B 0C 0D 0E 0F
      -- -- -- -- -- -- -- --  -- -- -- -- -- -- -- --
0000:    00                                              .              
```

#### Opcodes

```
  0: 0x0001 [0x00] END_REQSTACK()
```

### Event 427

#### Metadata

| Field        | Value   |
|--------------|---------|
| Entrypoint   | 0x0002  |
| Data Size    | 1 bytes |
| Instructions | 1       |

```
      00 01 02 03 04 05 06 07  08 09 0A 0B 0C 0D 0E 0F
      -- -- -- -- -- -- -- --  -- -- -- -- -- -- -- --
0000:       00                                            .             
```

#### Opcodes

```
  0: 0x0002 [0x00] END_REQSTACK()
```

### Event 458

#### Metadata

| Field        | Value   |
|--------------|---------|
| Entrypoint   | 0x0003  |
| Data Size    | 1 bytes |
| Instructions | 1       |

```
      00 01 02 03 04 05 06 07  08 09 0A 0B 0C 0D 0E 0F
      -- -- -- -- -- -- -- --  -- -- -- -- -- -- -- --
0000:          00                                          .            
```

#### Opcodes

```
  0: 0x0003 [0x00] END_REQSTACK()
```

### Event 469

#### Metadata

| Field        | Value   |
|--------------|---------|
| Entrypoint   | 0x0004  |
| Data Size    | 1 bytes |
| Instructions | 1       |

```
      00 01 02 03 04 05 06 07  08 09 0A 0B 0C 0D 0E 0F
      -- -- -- -- -- -- -- --  -- -- -- -- -- -- -- --
0000:             00                                        .           
```

#### Opcodes

```
  0: 0x0004 [0x00] END_REQSTACK()
```

### Event 65535.1

#### Metadata

| Field        | Value      |
|--------------|------------|
| Entrypoint   | 0x0005     |
| Data Size    | 1799 bytes |
| Instructions | 172        |

```
      00 01 02 03 04 05 06 07  08 09 0A 0B 0C 0D 0E 0F
      -- -- -- -- -- -- -- --  -- -- -- -- -- -- -- --
0000:                02 3A 10  00 80 80 1F 00 52 01 80       .:......R..
0010: 10 60 04 01 10 60 04 01  73 31 33 38 01 0B 07 02  .`...`..s138....
0020: 3A 10 02 80 80 4A 00 52  03 80 28 60 04 01 11 60  :....J.R..(`...`
0030: 04 01 72 6D 30 31 45 03  80 28 60 04 01 11 60 04  ..rm01E..(`...`.
0040: 01 6B 63 30 31 00 80 01  0B 07 02 3A 10 04 80 80  .kc01......:....
0050: 75 00 52 03 80 28 60 04  01 12 60 04 01 72 6D 30  u.R..(`...`..rm0
0060: 31 45 03 80 28 60 04 01  12 60 04 01 6B 63 30 31  1E..(`...`..kc01
0070: 00 80 01 0B 07 02 3A 10  05 80 80 A0 00 52 03 80  ......:......R..
0080: 28 60 04 01 13 60 04 01  72 6D 30 31 45 03 80 28  (`...`..rm01E..(
0090: 60 04 01 13 60 04 01 6B  63 30 31 00 80 01 0B 07  `...`..kc01.....
00A0: 02 3A 10 06 80 80 CB 00  52 03 80 28 60 04 01 14  .:......R..(`...
00B0: 60 04 01 72 6D 30 31 45  03 80 28 60 04 01 14 60  `..rm01E..(`...`
00C0: 04 01 6B 63 30 31 00 80  01 0B 07 02 3A 10 07 80  ..kc01......:...
00D0: 80 F6 00 52 03 80 28 60  04 01 15 60 04 01 72 6D  ...R..(`...`..rm
00E0: 30 31 45 03 80 28 60 04  01 15 60 04 01 6B 63 30  01E..(`...`..kc0
00F0: 31 00 80 01 0B 07 02 3A  10 08 80 80 21 01 52 03  1......:....!.R.
0100: 80 28 60 04 01 16 60 04  01 72 6D 30 31 45 03 80  .(`...`..rm01E..
0110: 28 60 04 01 16 60 04 01  6B 63 30 31 00 80 01 0B  (`...`..kc01....
0120: 07 02 3A 10 09 80 80 4C  01 52 03 80 28 60 04 01  ..:....L.R..(`..
0130: 17 60 04 01 72 6D 30 31  45 03 80 28 60 04 01 17  .`..rm01E..(`...
0140: 60 04 01 6B 63 30 31 00  80 01 0B 07 02 3A 10 0A  `..kc01......:..
0150: 80 80 77 01 52 03 80 28  60 04 01 18 60 04 01 72  ..w.R..(`...`..r
0160: 6D 30 31 45 03 80 28 60  04 01 18 60 04 01 6B 63  m01E..(`...`..kc
0170: 30 31 00 80 01 0B 07 02  3A 10 0B 80 80 A2 01 52  01......:......R
0180: 03 80 11 60 04 01 28 60  04 01 72 6D 30 30 45 03  ...`..(`..rm00E.
0190: 80 11 60 04 01 29 60 04  01 6B 63 30 30 00 80 01  ..`..)`..kc00...
01A0: 0B 07 02 3A 10 0C 80 80  CD 01 52 03 80 12 60 04  ...:......R...`.
01B0: 01 28 60 04 01 72 6D 30  30 45 03 80 12 60 04 01  .(`..rm00E...`..
01C0: 29 60 04 01 6B 63 30 30  00 80 01 0B 07 02 3A 10  )`..kc00......:.
01D0: 0D 80 80 F8 01 52 03 80  13 60 04 01 28 60 04 01  .....R...`..(`..
01E0: 72 6D 30 30 45 03 80 13  60 04 01 29 60 04 01 6B  rm00E...`..)`..k
01F0: 63 30 30 00 80 01 0B 07  02 3A 10 0E 80 80 23 02  c00......:....#.
0200: 52 03 80 14 60 04 01 28  60 04 01 72 6D 30 30 45  R...`..(`..rm00E
0210: 03 80 14 60 04 01 29 60  04 01 6B 63 30 30 00 80  ...`..)`..kc00..
0220: 01 0B 07 02 3A 10 0F 80  80 4E 02 52 03 80 15 60  ....:....N.R...`
0230: 04 01 28 60 04 01 72 6D  30 30 45 03 80 15 60 04  ..(`..rm00E...`.
0240: 01 29 60 04 01 6B 63 30  30 00 80 01 0B 07 02 3A  .)`..kc00......:
0250: 10 10 80 80 79 02 52 03  80 16 60 04 01 28 60 04  ....y.R...`..(`.
0260: 01 72 6D 30 30 45 03 80  16 60 04 01 29 60 04 01  .rm00E...`..)`..
0270: 6B 63 30 30 00 80 01 0B  07 02 3A 10 11 80 80 A4  kc00......:.....
0280: 02 52 03 80 17 60 04 01  28 60 04 01 72 6D 30 30  .R...`..(`..rm00
0290: 45 03 80 17 60 04 01 29  60 04 01 6B 63 30 30 00  E...`..)`..kc00.
02A0: 80 01 0B 07 02 3A 10 12  80 80 CF 02 52 03 80 18  .....:......R...
02B0: 60 04 01 28 60 04 01 72  6D 30 30 45 03 80 18 60  `..(`..rm00E...`
02C0: 04 01 29 60 04 01 6B 63  30 30 00 80 01 0B 07 02  ..)`..kc00......
02D0: 3A 10 13 80 80 EB 02 45  03 80 11 60 04 01 29 60  :......E...`..)`
02E0: 04 01 6B 63 30 32 00 80  01 0B 07 02 3A 10 14 80  ..kc02......:...
02F0: 80 07 03 45 03 80 12 60  04 01 29 60 04 01 6B 63  ...E...`..)`..kc
0300: 30 32 00 80 01 0B 07 02  3A 10 15 80 80 23 03 45  02......:....#.E
0310: 03 80 13 60 04 01 29 60  04 01 6B 63 30 32 00 80  ...`..)`..kc02..
0320: 01 0B 07 02 3A 10 16 80  80 3F 03 45 03 80 14 60  ....:....?.E...`
0330: 04 01 29 60 04 01 6B 63  30 32 00 80 01 0B 07 02  ..)`..kc02......
0340: 3A 10 17 80 80 5B 03 45  03 80 15 60 04 01 29 60  :....[.E...`..)`
0350: 04 01 6B 63 30 32 00 80  01 0B 07 02 3A 10 18 80  ..kc02......:...
0360: 80 77 03 45 03 80 16 60  04 01 29 60 04 01 6B 63  .w.E...`..)`..kc
0370: 30 32 00 80 01 0B 07 02  3A 10 19 80 80 93 03 45  02......:......E
0380: 03 80 17 60 04 01 29 60  04 01 6B 63 30 32 00 80  ...`..)`..kc02..
0390: 01 0B 07 02 3A 10 1A 80  80 AF 03 45 03 80 18 60  ....:......E...`
03A0: 04 01 29 60 04 01 6B 63  30 32 00 80 01 0B 07 02  ..)`..kc02......
03B0: 3A 10 1B 80 80 DA 03 52  03 80 11 60 04 01 11 60  :......R...`...`
03C0: 04 01 72 6D 30 33 45 03  80 11 60 04 01 11 60 04  ..rm03E...`...`.
03D0: 01 6B 63 30 33 00 80 01  0B 07 02 3A 10 1C 80 80  .kc03......:....
03E0: 05 04 52 03 80 12 60 04  01 12 60 04 01 72 6D 30  ..R...`...`..rm0
03F0: 33 45 03 80 12 60 04 01  12 60 04 01 6B 63 30 33  3E...`...`..kc03
0400: 00 80 01 0B 07 02 3A 10  1D 80 80 30 04 52 03 80  ......:....0.R..
0410: 13 60 04 01 13 60 04 01  72 6D 30 33 45 03 80 13  .`...`..rm03E...
0420: 60 04 01 13 60 04 01 6B  63 30 33 00 80 01 0B 07  `...`..kc03.....
0430: 02 3A 10 1E 80 80 5B 04  52 03 80 14 60 04 01 14  .:....[.R...`...
0440: 60 04 01 72 6D 30 33 45  03 80 14 60 04 01 14 60  `..rm03E...`...`
0450: 04 01 6B 63 30 33 00 80  01 0B 07 02 3A 10 1F 80  ..kc03......:...
0460: 80 86 04 52 03 80 15 60  04 01 15 60 04 01 72 6D  ...R...`...`..rm
0470: 30 33 45 03 80 15 60 04  01 15 60 04 01 6B 63 30  03E...`...`..kc0
0480: 33 00 80 01 0B 07 02 3A  10 20 80 80 B1 04 52 03  3......:. ....R.
0490: 80 16 60 04 01 16 60 04  01 72 6D 30 33 45 03 80  ..`...`..rm03E..
04A0: 16 60 04 01 16 60 04 01  6B 63 30 33 00 80 01 0B  .`...`..kc03....
04B0: 07 02 3A 10 21 80 80 DC  04 52 03 80 17 60 04 01  ..:.!....R...`..
04C0: 17 60 04 01 72 6D 30 33  45 03 80 17 60 04 01 17  .`..rm03E...`...
04D0: 60 04 01 6B 63 30 33 00  80 01 0B 07 02 3A 10 22  `..kc03......:."
04E0: 80 80 07 05 52 03 80 18  60 04 01 18 60 04 01 72  ....R...`...`..r
04F0: 6D 30 33 45 03 80 18 60  04 01 18 60 04 01 6B 63  m03E...`...`..kc
0500: 30 33 00 80 01 0B 07 02  3A 10 23 80 80 32 05 52  03......:.#..2.R
0510: 03 80 11 60 04 01 29 60  04 01 72 6D 30 34 45 03  ...`..)`..rm04E.
0520: 80 11 60 04 01 29 60 04  01 6B 63 30 34 00 80 01  ..`..)`..kc04...
0530: 0B 07 02 3A 10 24 80 80  5D 05 52 03 80 12 60 04  ...:.$..].R...`.
0540: 01 29 60 04 01 72 6D 30  34 45 03 80 12 60 04 01  .)`..rm04E...`..
0550: 29 60 04 01 6B 63 30 34  00 80 01 0B 07 02 3A 10  )`..kc04......:.
0560: 25 80 80 88 05 52 03 80  13 60 04 01 29 60 04 01  %....R...`..)`..
0570: 72 6D 30 34 45 03 80 13  60 04 01 29 60 04 01 6B  rm04E...`..)`..k
0580: 63 30 34 00 80 01 0B 07  02 3A 10 26 80 80 B3 05  c04......:.&....
0590: 52 03 80 14 60 04 01 29  60 04 01 72 6D 30 34 45  R...`..)`..rm04E
05A0: 03 80 14 60 04 01 29 60  04 01 6B 63 30 34 00 80  ...`..)`..kc04..
05B0: 01 0B 07 02 3A 10 27 80  80 DE 05 52 03 80 15 60  ....:.'....R...`
05C0: 04 01 29 60 04 01 72 6D  30 34 45 03 80 15 60 04  ..)`..rm04E...`.
05D0: 01 29 60 04 01 6B 63 30  34 00 80 01 0B 07 02 3A  .)`..kc04......:
05E0: 10 28 80 80 09 06 52 03  80 16 60 04 01 29 60 04  .(....R...`..)`.
05F0: 01 72 6D 30 34 45 03 80  16 60 04 01 29 60 04 01  .rm04E...`..)`..
0600: 6B 63 30 34 00 80 01 0B  07 02 3A 10 29 80 80 34  kc04......:.)..4
0610: 06 52 03 80 17 60 04 01  29 60 04 01 72 6D 30 34  .R...`..)`..rm04
0620: 45 03 80 17 60 04 01 29  60 04 01 6B 63 30 34 00  E...`..)`..kc04.
0630: 80 01 0B 07 02 3A 10 2A  80 80 5F 06 52 03 80 18  .....:.*.._.R...
0640: 60 04 01 29 60 04 01 72  6D 30 34 45 03 80 18 60  `..)`..rm04E...`
0650: 04 01 29 60 04 01 6B 63  30 34 00 80 01 0B 07 02  ..)`..kc04......
0660: 3A 10 2B 80 80 8A 06 52  03 80 28 60 04 01 28 60  :.+....R..(`..(`
0670: 04 01 70 63 30 30 45 03  80 28 60 04 01 28 60 04  ..pc00E..(`..(`.
0680: 01 6B 70 30 30 00 80 01  0B 07 02 3A 10 2C 80 80  .kp00......:.,..
0690: B5 06 52 03 80 28 60 04  01 28 60 04 01 70 63 30  ..R..(`..(`..pc0
06A0: 31 45 03 80 28 60 04 01  28 60 04 01 6B 70 30 31  1E..(`..(`..kp01
06B0: 00 80 01 0B 07 02 3A 10  2D 80 80 E0 06 52 03 80  ......:.-....R..
06C0: 28 60 04 01 28 60 04 01  70 63 30 32 45 03 80 28  (`..(`..pc02E..(
06D0: 60 04 01 28 60 04 01 6B  70 30 32 00 80 01 0B 07  `..(`..kp02.....
06E0: 02 3A 10 2E 80 80 0B 07  52 03 80 28 60 04 01 28  .:......R..(`..(
06F0: 60 04 01 70 63 30 33 45  03 80 28 60 04 01 28 60  `..pc03E..(`..(`
0700: 04 01 6B 70 30 33 00 80  01 0B 07 00              ..kp03......    
```

#### Opcodes

```
  0: 0x0005 [0x02] IF !(Work_Zone[58] == 0*) GOTO 0x001F
  1: 0x000D [0x52] END_LOAD_SCHEDULER: End scheduler "s138" with entities [Unnamed NPC (ID: 17063952/0x01046010), Unnamed NPC (ID: 17063952/0x01046010)], work=191*
  2: 0x001C [0x01] GOTO 0x070B
  3: 0x001F [0x02] IF !(Work_Zone[58] == 1*) GOTO 0x004A
  4: 0x0027 [0x52] END_LOAD_SCHEDULER: End scheduler "rm01" with entities [cameraA (ID: 17063976/0x01046028), Unnamed NPC (ID: 17063953/0x01046011)], work=294*
  5: 0x0036 [0x45] LOAD_SCHEDULED_TASK: Load scheduler "kc01" with entities [cameraA (ID: 17063976/0x01046028), Unnamed NPC (ID: 17063953/0x01046011)], work=[294*, 0*]
  6: 0x0047 [0x01] GOTO 0x070B
  7: 0x004A [0x02] IF !(Work_Zone[58] == 2*) GOTO 0x0075
  8: 0x0052 [0x52] END_LOAD_SCHEDULER: End scheduler "rm01" with entities [cameraA (ID: 17063976/0x01046028), Unnamed NPC (ID: 17063954/0x01046012)], work=294*
  9: 0x0061 [0x45] LOAD_SCHEDULED_TASK: Load scheduler "kc01" with entities [cameraA (ID: 17063976/0x01046028), Unnamed NPC (ID: 17063954/0x01046012)], work=[294*, 0*]
 10: 0x0072 [0x01] GOTO 0x070B
 11: 0x0075 [0x02] IF !(Work_Zone[58] == 3*) GOTO 0x00A0
 12: 0x007D [0x52] END_LOAD_SCHEDULER: End scheduler "rm01" with entities [cameraA (ID: 17063976/0x01046028), Unnamed NPC (ID: 17063955/0x01046013)], work=294*
 13: 0x008C [0x45] LOAD_SCHEDULED_TASK: Load scheduler "kc01" with entities [cameraA (ID: 17063976/0x01046028), Unnamed NPC (ID: 17063955/0x01046013)], work=[294*, 0*]
 14: 0x009D [0x01] GOTO 0x070B
 15: 0x00A0 [0x02] IF !(Work_Zone[58] == 4*) GOTO 0x00CB
 16: 0x00A8 [0x52] END_LOAD_SCHEDULER: End scheduler "rm01" with entities [cameraA (ID: 17063976/0x01046028), Unnamed NPC (ID: 17063956/0x01046014)], work=294*
 17: 0x00B7 [0x45] LOAD_SCHEDULED_TASK: Load scheduler "kc01" with entities [cameraA (ID: 17063976/0x01046028), Unnamed NPC (ID: 17063956/0x01046014)], work=[294*, 0*]
 18: 0x00C8 [0x01] GOTO 0x070B
 19: 0x00CB [0x02] IF !(Work_Zone[58] == 5*) GOTO 0x00F6
 20: 0x00D3 [0x52] END_LOAD_SCHEDULER: End scheduler "rm01" with entities [cameraA (ID: 17063976/0x01046028), Unnamed NPC (ID: 17063957/0x01046015)], work=294*
 21: 0x00E2 [0x45] LOAD_SCHEDULED_TASK: Load scheduler "kc01" with entities [cameraA (ID: 17063976/0x01046028), Unnamed NPC (ID: 17063957/0x01046015)], work=[294*, 0*]
 22: 0x00F3 [0x01] GOTO 0x070B
 23: 0x00F6 [0x02] IF !(Work_Zone[58] == 6*) GOTO 0x0121
 24: 0x00FE [0x52] END_LOAD_SCHEDULER: End scheduler "rm01" with entities [cameraA (ID: 17063976/0x01046028), Unnamed NPC (ID: 17063958/0x01046016)], work=294*
 25: 0x010D [0x45] LOAD_SCHEDULED_TASK: Load scheduler "kc01" with entities [cameraA (ID: 17063976/0x01046028), Unnamed NPC (ID: 17063958/0x01046016)], work=[294*, 0*]
 26: 0x011E [0x01] GOTO 0x070B
 27: 0x0121 [0x02] IF !(Work_Zone[58] == 7*) GOTO 0x014C
 28: 0x0129 [0x52] END_LOAD_SCHEDULER: End scheduler "rm01" with entities [cameraA (ID: 17063976/0x01046028), Unnamed NPC (ID: 17063959/0x01046017)], work=294*
 29: 0x0138 [0x45] LOAD_SCHEDULED_TASK: Load scheduler "kc01" with entities [cameraA (ID: 17063976/0x01046028), Unnamed NPC (ID: 17063959/0x01046017)], work=[294*, 0*]
 30: 0x0149 [0x01] GOTO 0x070B
 31: 0x014C [0x02] IF !(Work_Zone[58] == 8*) GOTO 0x0177
 32: 0x0154 [0x52] END_LOAD_SCHEDULER: End scheduler "rm01" with entities [cameraA (ID: 17063976/0x01046028), Unnamed NPC (ID: 17063960/0x01046018)], work=294*
 33: 0x0163 [0x45] LOAD_SCHEDULED_TASK: Load scheduler "kc01" with entities [cameraA (ID: 17063976/0x01046028), Unnamed NPC (ID: 17063960/0x01046018)], work=[294*, 0*]
 34: 0x0174 [0x01] GOTO 0x070B
 35: 0x0177 [0x02] IF !(Work_Zone[58] == 11*) GOTO 0x01A2
 36: 0x017F [0x52] END_LOAD_SCHEDULER: End scheduler "rm00" with entities [Unnamed NPC (ID: 17063953/0x01046011), cameraA (ID: 17063976/0x01046028)], work=294*
 37: 0x018E [0x45] LOAD_SCHEDULED_TASK: Load scheduler "kc00" with entities [Unnamed NPC (ID: 17063953/0x01046011), cameraB (ID: 17063977/0x01046029)], work=[294*, 0*]
 38: 0x019F [0x01] GOTO 0x070B
 39: 0x01A2 [0x02] IF !(Work_Zone[58] == 12*) GOTO 0x01CD
 40: 0x01AA [0x52] END_LOAD_SCHEDULER: End scheduler "rm00" with entities [Unnamed NPC (ID: 17063954/0x01046012), cameraA (ID: 17063976/0x01046028)], work=294*
 41: 0x01B9 [0x45] LOAD_SCHEDULED_TASK: Load scheduler "kc00" with entities [Unnamed NPC (ID: 17063954/0x01046012), cameraB (ID: 17063977/0x01046029)], work=[294*, 0*]
 42: 0x01CA [0x01] GOTO 0x070B
 43: 0x01CD [0x02] IF !(Work_Zone[58] == 13*) GOTO 0x01F8
 44: 0x01D5 [0x52] END_LOAD_SCHEDULER: End scheduler "rm00" with entities [Unnamed NPC (ID: 17063955/0x01046013), cameraA (ID: 17063976/0x01046028)], work=294*
 45: 0x01E4 [0x45] LOAD_SCHEDULED_TASK: Load scheduler "kc00" with entities [Unnamed NPC (ID: 17063955/0x01046013), cameraB (ID: 17063977/0x01046029)], work=[294*, 0*]
 46: 0x01F5 [0x01] GOTO 0x070B
 47: 0x01F8 [0x02] IF !(Work_Zone[58] == 14*) GOTO 0x0223
 48: 0x0200 [0x52] END_LOAD_SCHEDULER: End scheduler "rm00" with entities [Unnamed NPC (ID: 17063956/0x01046014), cameraA (ID: 17063976/0x01046028)], work=294*
 49: 0x020F [0x45] LOAD_SCHEDULED_TASK: Load scheduler "kc00" with entities [Unnamed NPC (ID: 17063956/0x01046014), cameraB (ID: 17063977/0x01046029)], work=[294*, 0*]
 50: 0x0220 [0x01] GOTO 0x070B
 51: 0x0223 [0x02] IF !(Work_Zone[58] == 15*) GOTO 0x024E
 52: 0x022B [0x52] END_LOAD_SCHEDULER: End scheduler "rm00" with entities [Unnamed NPC (ID: 17063957/0x01046015), cameraA (ID: 17063976/0x01046028)], work=294*
 53: 0x023A [0x45] LOAD_SCHEDULED_TASK: Load scheduler "kc00" with entities [Unnamed NPC (ID: 17063957/0x01046015), cameraB (ID: 17063977/0x01046029)], work=[294*, 0*]
 54: 0x024B [0x01] GOTO 0x070B
 55: 0x024E [0x02] IF !(Work_Zone[58] == 16*) GOTO 0x0279
 56: 0x0256 [0x52] END_LOAD_SCHEDULER: End scheduler "rm00" with entities [Unnamed NPC (ID: 17063958/0x01046016), cameraA (ID: 17063976/0x01046028)], work=294*
 57: 0x0265 [0x45] LOAD_SCHEDULED_TASK: Load scheduler "kc00" with entities [Unnamed NPC (ID: 17063958/0x01046016), cameraB (ID: 17063977/0x01046029)], work=[294*, 0*]
 58: 0x0276 [0x01] GOTO 0x070B
 59: 0x0279 [0x02] IF !(Work_Zone[58] == 17*) GOTO 0x02A4
 60: 0x0281 [0x52] END_LOAD_SCHEDULER: End scheduler "rm00" with entities [Unnamed NPC (ID: 17063959/0x01046017), cameraA (ID: 17063976/0x01046028)], work=294*
 61: 0x0290 [0x45] LOAD_SCHEDULED_TASK: Load scheduler "kc00" with entities [Unnamed NPC (ID: 17063959/0x01046017), cameraB (ID: 17063977/0x01046029)], work=[294*, 0*]
 62: 0x02A1 [0x01] GOTO 0x070B
 63: 0x02A4 [0x02] IF !(Work_Zone[58] == 18*) GOTO 0x02CF
 64: 0x02AC [0x52] END_LOAD_SCHEDULER: End scheduler "rm00" with entities [Unnamed NPC (ID: 17063960/0x01046018), cameraA (ID: 17063976/0x01046028)], work=294*
 65: 0x02BB [0x45] LOAD_SCHEDULED_TASK: Load scheduler "kc00" with entities [Unnamed NPC (ID: 17063960/0x01046018), cameraB (ID: 17063977/0x01046029)], work=[294*, 0*]
 66: 0x02CC [0x01] GOTO 0x070B
 67: 0x02CF [0x02] IF !(Work_Zone[58] == 21*) GOTO 0x02EB
 68: 0x02D7 [0x45] LOAD_SCHEDULED_TASK: Load scheduler "kc02" with entities [Unnamed NPC (ID: 17063953/0x01046011), cameraB (ID: 17063977/0x01046029)], work=[294*, 0*]
 69: 0x02E8 [0x01] GOTO 0x070B
 70: 0x02EB [0x02] IF !(Work_Zone[58] == 22*) GOTO 0x0307
 71: 0x02F3 [0x45] LOAD_SCHEDULED_TASK: Load scheduler "kc02" with entities [Unnamed NPC (ID: 17063954/0x01046012), cameraB (ID: 17063977/0x01046029)], work=[294*, 0*]
 72: 0x0304 [0x01] GOTO 0x070B
 73: 0x0307 [0x02] IF !(Work_Zone[58] == 23*) GOTO 0x0323
 74: 0x030F [0x45] LOAD_SCHEDULED_TASK: Load scheduler "kc02" with entities [Unnamed NPC (ID: 17063955/0x01046013), cameraB (ID: 17063977/0x01046029)], work=[294*, 0*]
 75: 0x0320 [0x01] GOTO 0x070B
 76: 0x0323 [0x02] IF !(Work_Zone[58] == 24*) GOTO 0x033F
 77: 0x032B [0x45] LOAD_SCHEDULED_TASK: Load scheduler "kc02" with entities [Unnamed NPC (ID: 17063956/0x01046014), cameraB (ID: 17063977/0x01046029)], work=[294*, 0*]
 78: 0x033C [0x01] GOTO 0x070B
 79: 0x033F [0x02] IF !(Work_Zone[58] == 25*) GOTO 0x035B
 80: 0x0347 [0x45] LOAD_SCHEDULED_TASK: Load scheduler "kc02" with entities [Unnamed NPC (ID: 17063957/0x01046015), cameraB (ID: 17063977/0x01046029)], work=[294*, 0*]
 81: 0x0358 [0x01] GOTO 0x070B
 82: 0x035B [0x02] IF !(Work_Zone[58] == 26*) GOTO 0x0377
 83: 0x0363 [0x45] LOAD_SCHEDULED_TASK: Load scheduler "kc02" with entities [Unnamed NPC (ID: 17063958/0x01046016), cameraB (ID: 17063977/0x01046029)], work=[294*, 0*]
 84: 0x0374 [0x01] GOTO 0x070B
 85: 0x0377 [0x02] IF !(Work_Zone[58] == 27*) GOTO 0x0393
 86: 0x037F [0x45] LOAD_SCHEDULED_TASK: Load scheduler "kc02" with entities [Unnamed NPC (ID: 17063959/0x01046017), cameraB (ID: 17063977/0x01046029)], work=[294*, 0*]
 87: 0x0390 [0x01] GOTO 0x070B
 88: 0x0393 [0x02] IF !(Work_Zone[58] == 28*) GOTO 0x03AF
 89: 0x039B [0x45] LOAD_SCHEDULED_TASK: Load scheduler "kc02" with entities [Unnamed NPC (ID: 17063960/0x01046018), cameraB (ID: 17063977/0x01046029)], work=[294*, 0*]
 90: 0x03AC [0x01] GOTO 0x070B
 91: 0x03AF [0x02] IF !(Work_Zone[58] == 31*) GOTO 0x03DA
 92: 0x03B7 [0x52] END_LOAD_SCHEDULER: End scheduler "rm03" with entities [Unnamed NPC (ID: 17063953/0x01046011), Unnamed NPC (ID: 17063953/0x01046011)], work=294*
 93: 0x03C6 [0x45] LOAD_SCHEDULED_TASK: Load scheduler "kc03" with entities [Unnamed NPC (ID: 17063953/0x01046011), Unnamed NPC (ID: 17063953/0x01046011)], work=[294*, 0*]
 94: 0x03D7 [0x01] GOTO 0x070B
 95: 0x03DA [0x02] IF !(Work_Zone[58] == 32*) GOTO 0x0405
 96: 0x03E2 [0x52] END_LOAD_SCHEDULER: End scheduler "rm03" with entities [Unnamed NPC (ID: 17063954/0x01046012), Unnamed NPC (ID: 17063954/0x01046012)], work=294*
 97: 0x03F1 [0x45] LOAD_SCHEDULED_TASK: Load scheduler "kc03" with entities [Unnamed NPC (ID: 17063954/0x01046012), Unnamed NPC (ID: 17063954/0x01046012)], work=[294*, 0*]
 98: 0x0402 [0x01] GOTO 0x070B
 99: 0x0405 [0x02] IF !(Work_Zone[58] == 33*) GOTO 0x0430
100: 0x040D [0x52] END_LOAD_SCHEDULER: End scheduler "rm03" with entities [Unnamed NPC (ID: 17063955/0x01046013), Unnamed NPC (ID: 17063955/0x01046013)], work=294*
101: 0x041C [0x45] LOAD_SCHEDULED_TASK: Load scheduler "kc03" with entities [Unnamed NPC (ID: 17063955/0x01046013), Unnamed NPC (ID: 17063955/0x01046013)], work=[294*, 0*]
102: 0x042D [0x01] GOTO 0x070B
103: 0x0430 [0x02] IF !(Work_Zone[58] == 34*) GOTO 0x045B
104: 0x0438 [0x52] END_LOAD_SCHEDULER: End scheduler "rm03" with entities [Unnamed NPC (ID: 17063956/0x01046014), Unnamed NPC (ID: 17063956/0x01046014)], work=294*
105: 0x0447 [0x45] LOAD_SCHEDULED_TASK: Load scheduler "kc03" with entities [Unnamed NPC (ID: 17063956/0x01046014), Unnamed NPC (ID: 17063956/0x01046014)], work=[294*, 0*]
106: 0x0458 [0x01] GOTO 0x070B
107: 0x045B [0x02] IF !(Work_Zone[58] == 35*) GOTO 0x0486
108: 0x0463 [0x52] END_LOAD_SCHEDULER: End scheduler "rm03" with entities [Unnamed NPC (ID: 17063957/0x01046015), Unnamed NPC (ID: 17063957/0x01046015)], work=294*
109: 0x0472 [0x45] LOAD_SCHEDULED_TASK: Load scheduler "kc03" with entities [Unnamed NPC (ID: 17063957/0x01046015), Unnamed NPC (ID: 17063957/0x01046015)], work=[294*, 0*]
110: 0x0483 [0x01] GOTO 0x070B
111: 0x0486 [0x02] IF !(Work_Zone[58] == 36*) GOTO 0x04B1
112: 0x048E [0x52] END_LOAD_SCHEDULER: End scheduler "rm03" with entities [Unnamed NPC (ID: 17063958/0x01046016), Unnamed NPC (ID: 17063958/0x01046016)], work=294*
113: 0x049D [0x45] LOAD_SCHEDULED_TASK: Load scheduler "kc03" with entities [Unnamed NPC (ID: 17063958/0x01046016), Unnamed NPC (ID: 17063958/0x01046016)], work=[294*, 0*]
114: 0x04AE [0x01] GOTO 0x070B
115: 0x04B1 [0x02] IF !(Work_Zone[58] == 37*) GOTO 0x04DC
116: 0x04B9 [0x52] END_LOAD_SCHEDULER: End scheduler "rm03" with entities [Unnamed NPC (ID: 17063959/0x01046017), Unnamed NPC (ID: 17063959/0x01046017)], work=294*
117: 0x04C8 [0x45] LOAD_SCHEDULED_TASK: Load scheduler "kc03" with entities [Unnamed NPC (ID: 17063959/0x01046017), Unnamed NPC (ID: 17063959/0x01046017)], work=[294*, 0*]
118: 0x04D9 [0x01] GOTO 0x070B
119: 0x04DC [0x02] IF !(Work_Zone[58] == 38*) GOTO 0x0507
120: 0x04E4 [0x52] END_LOAD_SCHEDULER: End scheduler "rm03" with entities [Unnamed NPC (ID: 17063960/0x01046018), Unnamed NPC (ID: 17063960/0x01046018)], work=294*
121: 0x04F3 [0x45] LOAD_SCHEDULED_TASK: Load scheduler "kc03" with entities [Unnamed NPC (ID: 17063960/0x01046018), Unnamed NPC (ID: 17063960/0x01046018)], work=[294*, 0*]
122: 0x0504 [0x01] GOTO 0x070B
123: 0x0507 [0x02] IF !(Work_Zone[58] == 41*) GOTO 0x0532
124: 0x050F [0x52] END_LOAD_SCHEDULER: End scheduler "rm04" with entities [Unnamed NPC (ID: 17063953/0x01046011), cameraB (ID: 17063977/0x01046029)], work=294*
125: 0x051E [0x45] LOAD_SCHEDULED_TASK: Load scheduler "kc04" with entities [Unnamed NPC (ID: 17063953/0x01046011), cameraB (ID: 17063977/0x01046029)], work=[294*, 0*]
126: 0x052F [0x01] GOTO 0x070B
127: 0x0532 [0x02] IF !(Work_Zone[58] == 42*) GOTO 0x055D
128: 0x053A [0x52] END_LOAD_SCHEDULER: End scheduler "rm04" with entities [Unnamed NPC (ID: 17063954/0x01046012), cameraB (ID: 17063977/0x01046029)], work=294*
129: 0x0549 [0x45] LOAD_SCHEDULED_TASK: Load scheduler "kc04" with entities [Unnamed NPC (ID: 17063954/0x01046012), cameraB (ID: 17063977/0x01046029)], work=[294*, 0*]
130: 0x055A [0x01] GOTO 0x070B
131: 0x055D [0x02] IF !(Work_Zone[58] == 43*) GOTO 0x0588
132: 0x0565 [0x52] END_LOAD_SCHEDULER: End scheduler "rm04" with entities [Unnamed NPC (ID: 17063955/0x01046013), cameraB (ID: 17063977/0x01046029)], work=294*
133: 0x0574 [0x45] LOAD_SCHEDULED_TASK: Load scheduler "kc04" with entities [Unnamed NPC (ID: 17063955/0x01046013), cameraB (ID: 17063977/0x01046029)], work=[294*, 0*]
134: 0x0585 [0x01] GOTO 0x070B
135: 0x0588 [0x02] IF !(Work_Zone[58] == 44*) GOTO 0x05B3
136: 0x0590 [0x52] END_LOAD_SCHEDULER: End scheduler "rm04" with entities [Unnamed NPC (ID: 17063956/0x01046014), cameraB (ID: 17063977/0x01046029)], work=294*
137: 0x059F [0x45] LOAD_SCHEDULED_TASK: Load scheduler "kc04" with entities [Unnamed NPC (ID: 17063956/0x01046014), cameraB (ID: 17063977/0x01046029)], work=[294*, 0*]
138: 0x05B0 [0x01] GOTO 0x070B
139: 0x05B3 [0x02] IF !(Work_Zone[58] == 45*) GOTO 0x05DE
140: 0x05BB [0x52] END_LOAD_SCHEDULER: End scheduler "rm04" with entities [Unnamed NPC (ID: 17063957/0x01046015), cameraB (ID: 17063977/0x01046029)], work=294*
141: 0x05CA [0x45] LOAD_SCHEDULED_TASK: Load scheduler "kc04" with entities [Unnamed NPC (ID: 17063957/0x01046015), cameraB (ID: 17063977/0x01046029)], work=[294*, 0*]
142: 0x05DB [0x01] GOTO 0x070B
143: 0x05DE [0x02] IF !(Work_Zone[58] == 46*) GOTO 0x0609
144: 0x05E6 [0x52] END_LOAD_SCHEDULER: End scheduler "rm04" with entities [Unnamed NPC (ID: 17063958/0x01046016), cameraB (ID: 17063977/0x01046029)], work=294*
145: 0x05F5 [0x45] LOAD_SCHEDULED_TASK: Load scheduler "kc04" with entities [Unnamed NPC (ID: 17063958/0x01046016), cameraB (ID: 17063977/0x01046029)], work=[294*, 0*]
146: 0x0606 [0x01] GOTO 0x070B
147: 0x0609 [0x02] IF !(Work_Zone[58] == 47*) GOTO 0x0634
148: 0x0611 [0x52] END_LOAD_SCHEDULER: End scheduler "rm04" with entities [Unnamed NPC (ID: 17063959/0x01046017), cameraB (ID: 17063977/0x01046029)], work=294*
149: 0x0620 [0x45] LOAD_SCHEDULED_TASK: Load scheduler "kc04" with entities [Unnamed NPC (ID: 17063959/0x01046017), cameraB (ID: 17063977/0x01046029)], work=[294*, 0*]
150: 0x0631 [0x01] GOTO 0x070B
151: 0x0634 [0x02] IF !(Work_Zone[58] == 48*) GOTO 0x065F
152: 0x063C [0x52] END_LOAD_SCHEDULER: End scheduler "rm04" with entities [Unnamed NPC (ID: 17063960/0x01046018), cameraB (ID: 17063977/0x01046029)], work=294*
153: 0x064B [0x45] LOAD_SCHEDULED_TASK: Load scheduler "kc04" with entities [Unnamed NPC (ID: 17063960/0x01046018), cameraB (ID: 17063977/0x01046029)], work=[294*, 0*]
154: 0x065C [0x01] GOTO 0x070B
155: 0x065F [0x02] IF !(Work_Zone[58] == 50*) GOTO 0x068A
156: 0x0667 [0x52] END_LOAD_SCHEDULER: End scheduler "pc00" with entities [cameraA (ID: 17063976/0x01046028), cameraA (ID: 17063976/0x01046028)], work=294*
157: 0x0676 [0x45] LOAD_SCHEDULED_TASK: Load scheduler "kp00" with entities [cameraA (ID: 17063976/0x01046028), cameraA (ID: 17063976/0x01046028)], work=[294*, 0*]
158: 0x0687 [0x01] GOTO 0x070B
159: 0x068A [0x02] IF !(Work_Zone[58] == 51*) GOTO 0x06B5
160: 0x0692 [0x52] END_LOAD_SCHEDULER: End scheduler "pc01" with entities [cameraA (ID: 17063976/0x01046028), cameraA (ID: 17063976/0x01046028)], work=294*
161: 0x06A1 [0x45] LOAD_SCHEDULED_TASK: Load scheduler "kp01" with entities [cameraA (ID: 17063976/0x01046028), cameraA (ID: 17063976/0x01046028)], work=[294*, 0*]
162: 0x06B2 [0x01] GOTO 0x070B
163: 0x06B5 [0x02] IF !(Work_Zone[58] == 52*) GOTO 0x06E0
164: 0x06BD [0x52] END_LOAD_SCHEDULER: End scheduler "pc02" with entities [cameraA (ID: 17063976/0x01046028), cameraA (ID: 17063976/0x01046028)], work=294*
165: 0x06CC [0x45] LOAD_SCHEDULED_TASK: Load scheduler "kp02" with entities [cameraA (ID: 17063976/0x01046028), cameraA (ID: 17063976/0x01046028)], work=[294*, 0*]
166: 0x06DD [0x01] GOTO 0x070B
167: 0x06E0 [0x02] IF !(Work_Zone[58] == 53*) GOTO 0x070B
168: 0x06E8 [0x52] END_LOAD_SCHEDULER: End scheduler "pc03" with entities [cameraA (ID: 17063976/0x01046028), cameraA (ID: 17063976/0x01046028)], work=294*
169: 0x06F7 [0x45] LOAD_SCHEDULED_TASK: Load scheduler "kp03" with entities [cameraA (ID: 17063976/0x01046028), cameraA (ID: 17063976/0x01046028)], work=[294*, 0*]
170: 0x0708 [0x01] GOTO 0x070B

SUBROUTINE_070B:
171: 0x070B [0x00] END_REQSTACK()
```

### Event 65535.2

#### Metadata

| Field        | Value     |
|--------------|-----------|
| Entrypoint   | 0x070C    |
| Data Size    | 741 bytes |
| Instructions | 96        |

```
      00 01 02 03 04 05 06 07  08 09 0A 0B 0C 0D 0E 0F
      -- -- -- -- -- -- -- --  -- -- -- -- -- -- -- --
0700:                                      02 29 10 00              .)..
0710: 80 80 24 07 BA 28 60 04  01 2F 80 30 80 31 80 32  ..$..(`../.0.1.2
0720: 80 01 F0 09 02 29 10 02  80 80 3C 07 BA 28 60 04  .....)....<..(`.
0730: 01 33 80 34 80 35 80 36  80 01 F0 09 02 29 10 04  .3.4.5.6.....)..
0740: 80 80 54 07 BA 28 60 04  01 37 80 38 80 39 80 3A  ..T..(`..7.8.9.:
0750: 80 01 F0 09 02 29 10 05  80 80 6C 07 BA 28 60 04  .....)....l..(`.
0760: 01 3B 80 3C 80 3D 80 3E  80 01 F0 09 02 29 10 06  .;.<.=.>.....)..
0770: 80 80 84 07 BA 28 60 04  01 3F 80 40 80 41 80 42  .....(`..?.@.A.B
0780: 80 01 F0 09 02 29 10 07  80 80 9C 07 BA 28 60 04  .....).......(`.
0790: 01 43 80 44 80 45 80 46  80 01 F0 09 02 29 10 08  .C.D.E.F.....)..
07A0: 80 80 B4 07 BA 28 60 04  01 47 80 48 80 49 80 4A  .....(`..G.H.I.J
07B0: 80 01 F0 09 02 29 10 09  80 80 CC 07 BA 28 60 04  .....).......(`.
07C0: 01 4B 80 4C 80 4D 80 4E  80 01 F0 09 02 29 10 0A  .K.L.M.N.....)..
07D0: 80 80 E4 07 BA 28 60 04  01 4F 80 50 80 51 80 52  .....(`..O.P.Q.R
07E0: 80 01 F0 09 02 29 10 53  80 80 FC 07 BA 28 60 04  .....).S.....(`.
07F0: 01 54 80 55 80 56 80 57  80 01 F0 09 02 29 10 58  .T.U.V.W.....).X
0800: 80 80 14 08 BA 28 60 04  01 59 80 5A 80 5B 80 5C  .....(`..Y.Z.[.\
0810: 80 01 F0 09 02 29 10 0B  80 80 2C 08 BA 28 60 04  .....)....,..(`.
0820: 01 5D 80 5E 80 5F 80 5C  80 01 F0 09 02 29 10 0C  .].^._.\.....)..
0830: 80 80 44 08 BA 28 60 04  01 60 80 61 80 62 80 63  ..D..(`..`.a.b.c
0840: 80 01 F0 09 02 29 10 0D  80 80 5C 08 BA 28 60 04  .....)....\..(`.
0850: 01 64 80 65 80 66 80 67  80 01 F0 09 02 29 10 0E  .d.e.f.g.....)..
0860: 80 80 74 08 BA 28 60 04  01 68 80 69 80 6A 80 6B  ..t..(`..h.i.j.k
0870: 80 01 F0 09 02 29 10 0F  80 80 8C 08 BA 28 60 04  .....).......(`.
0880: 01 6C 80 6D 80 6E 80 6F  80 01 F0 09 02 29 10 10  .l.m.n.o.....)..
0890: 80 80 A4 08 BA 28 60 04  01 70 80 71 80 72 80 73  .....(`..p.q.r.s
08A0: 80 01 F0 09 02 29 10 11  80 80 AF 08 01 F0 09 02  .....)..........
08B0: 29 10 12 80 80 BA 08 01  F0 09 02 29 10 74 80 80  )..........).t..
08C0: C5 08 01 F0 09 02 29 10  75 80 80 DD 08 BA 28 60  ......).u.....(`
08D0: 04 01 76 80 77 80 78 80  79 80 01 F0 09 02 29 10  ..v.w.x.y.....).
08E0: 13 80 80 F5 08 BA 28 60  04 01 7A 80 7B 80 7C 80  ......(`..z.{.|.
08F0: 7D 80 01 F0 09 02 29 10  14 80 80 0D 09 BA 28 60  }.....).......(`
0900: 04 01 7E 80 7F 80 80 80  81 80 01 F0 09 02 29 10  ..~...........).
0910: 15 80 80 25 09 BA 28 60  04 01 82 80 83 80 84 80  ...%..(`........
0920: 85 80 01 F0 09 02 29 10  16 80 80 3D 09 BA 28 60  ......)....=..(`
0930: 04 01 86 80 87 80 88 80  89 80 01 F0 09 02 29 10  ..............).
0940: 17 80 80 55 09 BA 28 60  04 01 8A 80 8B 80 8C 80  ...U..(`........
0950: 8D 80 01 F0 09 02 29 10  18 80 80 6D 09 BA 28 60  ......)....m..(`
0960: 04 01 8E 80 8F 80 90 80  91 80 01 F0 09 02 29 10  ..............).
0970: 19 80 80 85 09 BA 28 60  04 01 92 80 93 80 94 80  ......(`........
0980: 95 80 01 F0 09 02 29 10  1A 80 80 9D 09 BA 28 60  ......).......(`
0990: 04 01 96 80 97 80 98 80  95 80 01 F0 09 02 29 10  ..............).
09A0: 99 80 80 B5 09 BA 28 60  04 01 9A 80 9B 80 9C 80  ......(`........
09B0: 9D 80 01 F0 09 02 29 10  9E 80 80 CD 09 BA 28 60  ......).......(`
09C0: 04 01 9F 80 A0 80 A1 80  A2 80 01 F0 09 02 29 10  ..............).
09D0: 1B 80 80 E5 09 BA 28 60  04 01 A3 80 A4 80 A5 80  ......(`........
09E0: A6 80 01 F0 09 02 29 10  1C 80 80 F0 09 01 F0 09  ......).........
09F0: 00                                                .               
```

#### Opcodes

```
  0: 0x070C [0x02] IF !(Work_Zone[41] == 0*) GOTO 0x0724
  1: 0x0714 [0xBA] SET_ENTITY_POSITION(entity_id=cameraA (ID: 17063976/0x01046028), pos_x=-115.578*, pos_z=-69.992*, pos_y=-3.921*, direction=74.8°*)
  2: 0x0721 [0x01] GOTO 0x09F0
  3: 0x0724 [0x02] IF !(Work_Zone[41] == 1*) GOTO 0x073C
  4: 0x072C [0xBA] SET_ENTITY_POSITION(entity_id=cameraA (ID: 17063976/0x01046028), pos_x=-145.897*, pos_z=-87.929*, pos_y=-4.924*, direction=292.0°*)
  5: 0x0739 [0x01] GOTO 0x09F0
  6: 0x073C [0x02] IF !(Work_Zone[41] == 2*) GOTO 0x0754
  7: 0x0744 [0xBA] SET_ENTITY_POSITION(entity_id=cameraA (ID: 17063976/0x01046028), pos_x=-173.753*, pos_z=-70.450*, pos_y=-3.939*, direction=113.9°*)
  8: 0x0751 [0x01] GOTO 0x09F0
  9: 0x0754 [0x02] IF !(Work_Zone[41] == 3*) GOTO 0x076C
 10: 0x075C [0xBA] SET_ENTITY_POSITION(entity_id=cameraA (ID: 17063976/0x01046028), pos_x=-216.381*, pos_z=-66.029*, pos_y=-4.132*, direction=292.9°*)
 11: 0x0769 [0x01] GOTO 0x09F0
 12: 0x076C [0x02] IF !(Work_Zone[41] == 4*) GOTO 0x0784
 13: 0x0774 [0xBA] SET_ENTITY_POSITION(entity_id=cameraA (ID: 17063976/0x01046028), pos_x=-236.968*, pos_z=-34.987*, pos_y=-6.200*, direction=126.9°*)
 14: 0x0781 [0x01] GOTO 0x09F0
 15: 0x0784 [0x02] IF !(Work_Zone[41] == 5*) GOTO 0x079C
 16: 0x078C [0xBA] SET_ENTITY_POSITION(entity_id=cameraA (ID: 17063976/0x01046028), pos_x=-249.898*, pos_z=-0.879*, pos_y=-6.070*, direction=84.7°*)
 17: 0x0799 [0x01] GOTO 0x09F0
 18: 0x079C [0x02] IF !(Work_Zone[41] == 6*) GOTO 0x07B4
 19: 0x07A4 [0xBA] SET_ENTITY_POSITION(entity_id=cameraA (ID: 17063976/0x01046028), pos_x=-217.927*, pos_z=35.257*, pos_y=-3.948*, direction=228.6°*)
 20: 0x07B1 [0x01] GOTO 0x09F0
 21: 0x07B4 [0x02] IF !(Work_Zone[41] == 7*) GOTO 0x07CC
 22: 0x07BC [0xBA] SET_ENTITY_POSITION(entity_id=cameraA (ID: 17063976/0x01046028), pos_x=-215.414*, pos_z=67.221*, pos_y=-5.016*, direction=66.8°*)
 23: 0x07C9 [0x01] GOTO 0x09F0
 24: 0x07CC [0x02] IF !(Work_Zone[41] == 8*) GOTO 0x07E4
 25: 0x07D4 [0xBA] SET_ENTITY_POSITION(entity_id=cameraA (ID: 17063976/0x01046028), pos_x=-171.506*, pos_z=66.184*, pos_y=-6.495*, direction=245.3°*)
 26: 0x07E1 [0x01] GOTO 0x09F0
 27: 0x07E4 [0x02] IF !(Work_Zone[41] == 9*) GOTO 0x07FC
 28: 0x07EC [0xBA] SET_ENTITY_POSITION(entity_id=cameraA (ID: 17063976/0x01046028), pos_x=-148.773*, pos_z=87.804*, pos_y=-4.265*, direction=123.7°*)
 29: 0x07F9 [0x01] GOTO 0x09F0
 30: 0x07FC [0x02] IF !(Work_Zone[41] == 10*) GOTO 0x0814
 31: 0x0804 [0xBA] SET_ENTITY_POSITION(entity_id=cameraA (ID: 17063976/0x01046028), pos_x=-111.000*, pos_z=69.000*, pos_y=-8.648*, direction=319.0°*)
 32: 0x0811 [0x01] GOTO 0x09F0
 33: 0x0814 [0x02] IF !(Work_Zone[41] == 11*) GOTO 0x082C
 34: 0x081C [0xBA] SET_ENTITY_POSITION(entity_id=cameraA (ID: 17063976/0x01046028), pos_x=-95.013*, pos_z=67.376*, pos_y=-3.245*, direction=319.0°*)
 35: 0x0829 [0x01] GOTO 0x09F0
 36: 0x082C [0x02] IF !(Work_Zone[41] == 12*) GOTO 0x0844
 37: 0x0834 [0xBA] SET_ENTITY_POSITION(entity_id=cameraA (ID: 17063976/0x01046028), pos_x=-44.915*, pos_z=68.490*, pos_y=-6.017*, direction=265.2°*)
 38: 0x0841 [0x01] GOTO 0x09F0
 39: 0x0844 [0x02] IF !(Work_Zone[41] == 13*) GOTO 0x085C
 40: 0x084C [0xBA] SET_ENTITY_POSITION(entity_id=cameraA (ID: 17063976/0x01046028), pos_x=-6.960*, pos_z=78.075*, pos_y=-4.940*, direction=350.7°*)
 41: 0x0859 [0x01] GOTO 0x09F0
 42: 0x085C [0x02] IF !(Work_Zone[41] == 14*) GOTO 0x0874
 43: 0x0864 [0xBA] SET_ENTITY_POSITION(entity_id=cameraA (ID: 17063976/0x01046028), pos_x=20.240*, pos_z=70.187*, pos_y=-4.000*, direction=186.8°*)
 44: 0x0871 [0x01] GOTO 0x09F0
 45: 0x0874 [0x02] IF !(Work_Zone[41] == 15*) GOTO 0x088C
 46: 0x087C [0xBA] SET_ENTITY_POSITION(entity_id=cameraA (ID: 17063976/0x01046028), pos_x=38.071*, pos_z=86.798*, pos_y=-3.821*, direction=197.3°*)
 47: 0x0889 [0x01] GOTO 0x09F0
 48: 0x088C [0x02] IF !(Work_Zone[41] == 16*) GOTO 0x08A4
 49: 0x0894 [0xBA] SET_ENTITY_POSITION(entity_id=cameraA (ID: 17063976/0x01046028), pos_x=86.171*, pos_z=85.963*, pos_y=-10.769*, direction=80.0°*)
 50: 0x08A1 [0x01] GOTO 0x09F0
 51: 0x08A4 [0x02] IF !(Work_Zone[41] == 17*) GOTO 0x08AF
 52: 0x08AC [0x01] GOTO 0x09F0
 53: 0x08AF [0x02] IF !(Work_Zone[41] == 18*) GOTO 0x08BA
 54: 0x08B7 [0x01] GOTO 0x09F0
 55: 0x08BA [0x02] IF !(Work_Zone[41] == 19*) GOTO 0x08C5
 56: 0x08C2 [0x01] GOTO 0x09F0
 57: 0x08C5 [0x02] IF !(Work_Zone[41] == 20*) GOTO 0x08DD
 58: 0x08CD [0xBA] SET_ENTITY_POSITION(entity_id=cameraA (ID: 17063976/0x01046028), pos_x=222.604*, pos_z=31.874*, pos_y=-3.189*, direction=359.0°*)
 59: 0x08DA [0x01] GOTO 0x09F0
 60: 0x08DD [0x02] IF !(Work_Zone[41] == 21*) GOTO 0x08F5
 61: 0x08E5 [0xBA] SET_ENTITY_POSITION(entity_id=cameraA (ID: 17063976/0x01046028), pos_x=231.926*, pos_z=32.924*, pos_y=-16.929*, direction=313.4°*)
 62: 0x08F2 [0x01] GOTO 0x09F0
 63: 0x08F5 [0x02] IF !(Work_Zone[41] == 22*) GOTO 0x090D
 64: 0x08FD [0xBA] SET_ENTITY_POSITION(entity_id=cameraA (ID: 17063976/0x01046028), pos_x=230.463*, pos_z=-3.900*, pos_y=-3.867*, direction=5.9°*)
 65: 0x090A [0x01] GOTO 0x09F0
 66: 0x090D [0x02] IF !(Work_Zone[41] == 23*) GOTO 0x0925
 67: 0x0915 [0xBA] SET_ENTITY_POSITION(entity_id=cameraA (ID: 17063976/0x01046028), pos_x=237.178*, pos_z=-43.105*, pos_y=-3.875*, direction=258.3°*)
 68: 0x0922 [0x01] GOTO 0x09F0
 69: 0x0925 [0x02] IF !(Work_Zone[41] == 24*) GOTO 0x093D
 70: 0x092D [0xBA] SET_ENTITY_POSITION(entity_id=cameraA (ID: 17063976/0x01046028), pos_x=196.180*, pos_z=-37.011*, pos_y=-4.506*, direction=37.1°*)
 71: 0x093A [0x01] GOTO 0x09F0
 72: 0x093D [0x02] IF !(Work_Zone[41] == 25*) GOTO 0x0955
 73: 0x0945 [0xBA] SET_ENTITY_POSITION(entity_id=cameraA (ID: 17063976/0x01046028), pos_x=175.300*, pos_z=-88.116*, pos_y=-5.216*, direction=223.5°*)
 74: 0x0952 [0x01] GOTO 0x09F0
 75: 0x0955 [0x02] IF !(Work_Zone[41] == 26*) GOTO 0x096D
 76: 0x095D [0xBA] SET_ENTITY_POSITION(entity_id=cameraA (ID: 17063976/0x01046028), pos_x=131.000*, pos_z=-72.000*, pos_y=-6.091*, direction=357.0°*)
 77: 0x096A [0x01] GOTO 0x09F0
 78: 0x096D [0x02] IF !(Work_Zone[41] == 27*) GOTO 0x0985
 79: 0x0975 [0xBA] SET_ENTITY_POSITION(entity_id=cameraA (ID: 17063976/0x01046028), pos_x=90.000*, pos_z=-87.000*, pos_y=-6.083*, direction=32.8°*)
 80: 0x0982 [0x01] GOTO 0x09F0
 81: 0x0985 [0x02] IF !(Work_Zone[41] == 28*) GOTO 0x099D
 82: 0x098D [0xBA] SET_ENTITY_POSITION(entity_id=cameraA (ID: 17063976/0x01046028), pos_x=64.689*, pos_z=-71.914*, pos_y=-7.325*, direction=32.8°*)
 83: 0x099A [0x01] GOTO 0x09F0
 84: 0x099D [0x02] IF !(Work_Zone[41] == 29*) GOTO 0x09B5
 85: 0x09A5 [0xBA] SET_ENTITY_POSITION(entity_id=cameraA (ID: 17063976/0x01046028), pos_x=41.763*, pos_z=-73.101*, pos_y=-4.946*, direction=88.0°*)
 86: 0x09B2 [0x01] GOTO 0x09F0
 87: 0x09B5 [0x02] IF !(Work_Zone[41] == 30*) GOTO 0x09CD
 88: 0x09BD [0xBA] SET_ENTITY_POSITION(entity_id=cameraA (ID: 17063976/0x01046028), pos_x=5.921*, pos_z=-69.604*, pos_y=-3.177*, direction=101.5°*)
 89: 0x09CA [0x01] GOTO 0x09F0
 90: 0x09CD [0x02] IF !(Work_Zone[41] == 31*) GOTO 0x09E5
 91: 0x09D5 [0xBA] SET_ENTITY_POSITION(entity_id=cameraA (ID: 17063976/0x01046028), pos_x=-40.834*, pos_z=-89.656*, pos_y=-6.524*, direction=99.6°*)
 92: 0x09E2 [0x01] GOTO 0x09F0
 93: 0x09E5 [0x02] IF !(Work_Zone[41] == 32*) GOTO 0x09F0
 94: 0x09ED [0x01] GOTO 0x09F0

SUBROUTINE_09F0:
 95: 0x09F0 [0x00] END_REQSTACK()
```

### Event 65535.3

#### Metadata

| Field        | Value    |
|--------------|----------|
| Entrypoint   | 0x09F1   |
| Data Size    | 36 bytes |
| Instructions | 3        |

```
      00 01 02 03 04 05 06 07  08 09 0A 0B 0C 0D 0E 0F
      -- -- -- -- -- -- -- --  -- -- -- -- -- -- -- --
09F0:    45 03 80 2A 60 04 01  28 60 04 01 63 68 6F 30   E..*`..(`..cho0
0A00: 00 80 55 03 80 2A 60 04  01 28 60 04 01 63 68 6F  ..U..*`..(`..cho
0A10: 30 01 F1 09 00                                    0....           
```

#### Opcodes

```
  0: 0x09F1 [0x45] LOAD_SCHEDULED_TASK: Load scheduler "cho0" with entities [Unnamed NPC (ID: 17063978/0x0104602A), cameraA (ID: 17063976/0x01046028)], work=[294*, 0*]
  1: 0x0A02 [0x55] WAIT_LOAD_SCHEDULER: Wait for scheduler "cho0" with entities [Unnamed NPC (ID: 17063978/0x0104602A), cameraA (ID: 17063976/0x01046028)], work=294*
  2: 0x0A11 [0x01] GOTO 0x09F1
```

#### Data or dead code:

```
# Dead code (unreachable instructions):
     0x0A14 [0x00] END_REQSTACK()
```

### Event 65535.4

#### Metadata

| Field        | Value    |
|--------------|----------|
| Entrypoint   | 0x0A15   |
| Data Size    | 33 bytes |
| Instructions | 3        |

```
      00 01 02 03 04 05 06 07  08 09 0A 0B 0C 0D 0E 0F
      -- -- -- -- -- -- -- --  -- -- -- -- -- -- -- --
0A10:                52 03 80  2A 60 04 01 28 60 04 01       R..*`..(`..
0A20: 63 68 6F 30 45 03 80 2A  60 04 01 28 60 04 01 6B  cho0E..*`..(`..k
0A30: 63 63 30 00 80 00                                 cc0...          
```

#### Opcodes

```
  0: 0x0A15 [0x52] END_LOAD_SCHEDULER: End scheduler "cho0" with entities [Unnamed NPC (ID: 17063978/0x0104602A), cameraA (ID: 17063976/0x01046028)], work=294*
  1: 0x0A24 [0x45] LOAD_SCHEDULED_TASK: Load scheduler "kcc0" with entities [Unnamed NPC (ID: 17063978/0x0104602A), cameraA (ID: 17063976/0x01046028)], work=[294*, 0*]
  2: 0x0A35 [0x00] END_REQSTACK()
```
