# 17063957

## Common Data

| Field            | Value                    |
|------------------|--------------------------|
| Zone             | Chocobo Circuit (ID: 70) |
| Block Size       | 1604 bytes               |
| Total Events     | 22                       |
| References Count | 36                       |

## List of Events

| Event ID                   | Entrypoint   |   Size |   Instructions |
|----------------------------|--------------|--------|----------------|
| [65535](#event-65535)      | 0x0000       |      1 |              1 |
| [100](#event-100)          | 0x0001       |      1 |              1 |
| [115](#event-115)          | 0x0002       |      1 |              1 |
| [65535.1](#event-655351)   | 0x0003       |      1 |              1 |
| [427](#event-427)          | 0x0004       |      1 |              1 |
| [458](#event-458)          | 0x0005       |      1 |              1 |
| [469](#event-469)          | 0x0006       |      1 |              1 |
| [210](#event-210)          | 0x0007       |      1 |              1 |
| [65535.2](#event-655352)   | 0x0008       |     15 |              4 |
| [65535.3](#event-655353)   | 0x0017       |     45 |              4 |
| [65535.4](#event-655354)   | 0x0044       |     93 |             12 |
| [65535.5](#event-655355)   | 0x00A1       |     49 |              6 |
| [65535.6](#event-655356)   | 0x00D2       |     49 |              6 |
| [65535.7](#event-655357)   | 0x0103       |     49 |              6 |
| [65535.8](#event-655358)   | 0x0134       |     49 |              6 |
| [65535.9](#event-655359)   | 0x0165       |     49 |              6 |
| [65535.10](#event-6553510) | 0x0196       |     49 |              6 |
| [65535.11](#event-6553511) | 0x01C7       |    107 |             23 |
| [65535.12](#event-6553512) | 0x0232       |    277 |             51 |
| [65535.13](#event-6553513) | 0x0347       |    509 |             96 |
| [65535.14](#event-6553514) | 0x0544       |      3 |              2 |
| [65535.15](#event-6553515) | 0x0547       |      3 |              2 |

## DAT References (imed_data)

|   Index | Hex Value   |   Dec Value |
|---------|-------------|-------------|
|       0 | 0x0001      |           1 |
|       1 | 0x0005      |           5 |
|       2 | 0x0000      |           0 |
|       3 | 0x008A      |         138 |
|       4 | 0x00F9      |         249 |
|       5 | 0x000B      |          11 |
|       6 | 0x0008      |           8 |
|       7 | 0x0006      |           6 |
|       8 | 0x00BC      |         188 |
|       9 | 0x0050      |          80 |
|      10 | 0x0003      |           3 |
|      11 | 0x0007      |           7 |
|      12 | 0x00BF      |         191 |
|      13 | 0x0002      |           2 |
|      14 | 0x003E      |          62 |
|      15 | 0x003C      |          60 |
|      16 | 0x000C      |          12 |
|      17 | 0x0018      |          24 |
|      18 | 0x0011      |          17 |
|      19 | 0x0009      |           9 |
|      20 | 0x000A      |          10 |
|      21 | 0x0017      |          23 |
|      22 | 0x000D      |          13 |
|      23 | 0x0013      |          19 |
|      24 | 0x001B      |          27 |
|      25 | 0xFFFE91FA  |  4294873594 |
|      26 | 0xFFFEC4B3  |  4294886579 |
|      27 | 0xFFFFFE0C  |  4294966796 |
|      28 | 0x0004      |           4 |
|      29 | 0x001C      |          28 |
|      30 | 0x001E      |          30 |
|      31 | 0x0019      |          25 |
|      32 | 0x0010      |          16 |
|      33 | 0x0020      |          32 |
|      34 | 0x03E8      |        1000 |
|      35 | 0x001F      |          31 |

## Events

### Event 65535

#### Metadata

| Field        | Value   |
|--------------|---------|
| Entrypoint   | 0x0000  |
| Data Size    | 1 bytes |
| Instructions | 1       |

```
      00 01 02 03 04 05 06 07  08 09 0A 0B 0C 0D 0E 0F
      -- -- -- -- -- -- -- --  -- -- -- -- -- -- -- --
0000: 00                                                .               
```

#### Opcodes

```
  0: 0x0000 [0x00] END_REQSTACK()
```

### Event 100

#### Metadata

| Field        | Value   |
|--------------|---------|
| Entrypoint   | 0x0001  |
| Data Size    | 1 bytes |
| Instructions | 1       |

```
      00 01 02 03 04 05 06 07  08 09 0A 0B 0C 0D 0E 0F
      -- -- -- -- -- -- -- --  -- -- -- -- -- -- -- --
0000:    00                                              .              
```

#### Opcodes

```
  0: 0x0001 [0x00] END_REQSTACK()
```

### Event 115

#### Metadata

| Field        | Value   |
|--------------|---------|
| Entrypoint   | 0x0002  |
| Data Size    | 1 bytes |
| Instructions | 1       |

```
      00 01 02 03 04 05 06 07  08 09 0A 0B 0C 0D 0E 0F
      -- -- -- -- -- -- -- --  -- -- -- -- -- -- -- --
0000:       00                                            .             
```

#### Opcodes

```
  0: 0x0002 [0x00] END_REQSTACK()
```

### Event 65535.1

#### Metadata

| Field        | Value   |
|--------------|---------|
| Entrypoint   | 0x0003  |
| Data Size    | 1 bytes |
| Instructions | 1       |

```
      00 01 02 03 04 05 06 07  08 09 0A 0B 0C 0D 0E 0F
      -- -- -- -- -- -- -- --  -- -- -- -- -- -- -- --
0000:          00                                          .            
```

#### Opcodes

```
  0: 0x0003 [0x00] END_REQSTACK()
```

### Event 427

#### Metadata

| Field        | Value   |
|--------------|---------|
| Entrypoint   | 0x0004  |
| Data Size    | 1 bytes |
| Instructions | 1       |

```
      00 01 02 03 04 05 06 07  08 09 0A 0B 0C 0D 0E 0F
      -- -- -- -- -- -- -- --  -- -- -- -- -- -- -- --
0000:             00                                        .           
```

#### Opcodes

```
  0: 0x0004 [0x00] END_REQSTACK()
```

### Event 458

#### Metadata

| Field        | Value   |
|--------------|---------|
| Entrypoint   | 0x0005  |
| Data Size    | 1 bytes |
| Instructions | 1       |

```
      00 01 02 03 04 05 06 07  08 09 0A 0B 0C 0D 0E 0F
      -- -- -- -- -- -- -- --  -- -- -- -- -- -- -- --
0000:                00                                      .          
```

#### Opcodes

```
  0: 0x0005 [0x00] END_REQSTACK()
```

### Event 469

#### Metadata

| Field        | Value   |
|--------------|---------|
| Entrypoint   | 0x0006  |
| Data Size    | 1 bytes |
| Instructions | 1       |

```
      00 01 02 03 04 05 06 07  08 09 0A 0B 0C 0D 0E 0F
      -- -- -- -- -- -- -- --  -- -- -- -- -- -- -- --
0000:                   00                                    .         
```

#### Opcodes

```
  0: 0x0006 [0x00] END_REQSTACK()
```

### Event 210

#### Metadata

| Field        | Value   |
|--------------|---------|
| Entrypoint   | 0x0007  |
| Data Size    | 1 bytes |
| Instructions | 1       |

```
      00 01 02 03 04 05 06 07  08 09 0A 0B 0C 0D 0E 0F
      -- -- -- -- -- -- -- --  -- -- -- -- -- -- -- --
0000:                      00                                  .        
```

#### Opcodes

```
  0: 0x0007 [0x00] END_REQSTACK()
```

### Event 65535.2

#### Metadata

| Field        | Value    |
|--------------|----------|
| Entrypoint   | 0x0008   |
| Data Size    | 15 bytes |
| Instructions | 4        |

```
      00 01 02 03 04 05 06 07  08 09 0A 0B 0C 0D 0E 0F
      -- -- -- -- -- -- -- --  -- -- -- -- -- -- -- --
0000:                          7E 05 F8 FF FF 7F 22 01          ~.....".
0010: 2F 01 F8 FF FF 7F 00                              /......         
```

#### Opcodes

```
  0: 0x0008 [0x7E] CHOCOBO_MOUNT: Dismount EventEntity (status = 0)
  1: 0x000E [0x22] ENTITY_HIDE_FLAG(enabled=0x01)
  2: 0x0010 [0x2F] EventEntity->Render.Flags0 |= 0x80000 // Bit 19
  3: 0x0016 [0x00] END_REQSTACK()
```

### Event 65535.3

#### Metadata

| Field        | Value    |
|--------------|----------|
| Entrypoint   | 0x0017   |
| Data Size    | 45 bytes |
| Instructions | 4        |

```
      00 01 02 03 04 05 06 07  08 09 0A 0B 0C 0D 0E 0F
      -- -- -- -- -- -- -- --  -- -- -- -- -- -- -- --
0010:                      B6  0B 00 80 01 80 02 80 03         .........
0020: 80 03 80 03 80 03 80 04  80 02 80 B4 00 06 00 46  ...............F
0030: 6F 75 64 65 65 6C 00 00  00 00 00 00 00 00 00 B5  oudeel..........
0040: 00 06 00 00                                       ....            
```

#### Opcodes

```
  0: 0x0017 [0xB6] ENTITY_APPEARANCE_HANDLER(case=Full entity look, race=1*, hair=5*, head=0*, body=138*, hands=138*, legs=138*, feet=138*, main=249*, sub=0*)
  1: 0x002B [0xB4] UI_WINDOW_STRING_HANDLER(case=0x00 - Copy string from opcode, work_offset=ExtData[1]->WorkLocal[6], string="Foudeel")
  2: 0x003F [0xB5] SET_EVENT_ENTITY_NAME: Change EventEntity name to ExtData[1]->WorkLocal[6]
  3: 0x0043 [0x00] END_REQSTACK()
```

### Event 65535.4

#### Metadata

| Field        | Value    |
|--------------|----------|
| Entrypoint   | 0x0044   |
| Data Size    | 93 bytes |
| Instructions | 12       |

```
      00 01 02 03 04 05 06 07  08 09 0A 0B 0C 0D 0E 0F
      -- -- -- -- -- -- -- --  -- -- -- -- -- -- -- --
0040:             02 23 10 05  80 00 51 00 22 01 01 9D      .#....Q."...
0050: 00 1A D5 01 02 01 00 02  80 00 73 00 B6 0B 06 80  ..........s.....
0060: 07 80 02 80 08 80 07 80  07 80 07 80 02 80 02 80  ................
0070: 01 87 00 B6 0B 01 00 07  80 02 80 08 80 07 80 07  ................
0080: 80 07 80 02 80 02 80 7E  03 F8 FF FF 7F 02 00 02  .......~........
0090: 80 03 00 04 00 05 00 7E  04 F8 FF FF 7F 32 09 80  .......~.....2..
00A0: 00                                                .               
```

#### Opcodes

```
  0: 0x0044 [0x02] IF !(Work_Zone[35] == 11*) GOTO 0x0051
  1: 0x004C [0x22] ENTITY_HIDE_FLAG(enabled=0x01)
  2: 0x004E [0x01] GOTO 0x009D
  3: 0x0051 [0x1A] CALL_SUBROUTINE(address=0x01D5)
  4: 0x0054 [0x02] IF !(ExtData[1]->WorkLocal[1] == 0*) GOTO 0x0073
  5: 0x005C [0xB6] ENTITY_APPEARANCE_HANDLER(case=Full entity look, race=8*, hair=6*, head=0*, body=188*, hands=6*, legs=6*, feet=6*, main=0*, sub=0*)
  6: 0x0070 [0x01] GOTO 0x0087
  7: 0x0073 [0xB6] ENTITY_APPEARANCE_HANDLER(case=Full entity look, race=ExtData[1]->WorkLocal[1], hair=6*, head=0*, body=188*, hands=6*, legs=6*, feet=6*, main=0*, sub=0*)

SUBROUTINE_0087:
  8: 0x0087 [0x7E] CHOCOBO_MOUNT: Mount custom chocobo on EventEntity (index=2, color=32770, name_id=3)
  9: 0x0097 [0x7E] CHOCOBO_MOUNT: Mode 4 on EventEntity

SUBROUTINE_009D:
 10: 0x009D [0x32] ExtData[1]->MainSpeed = 80* * 0.1
 11: 0x00A0 [0x00] END_REQSTACK()
```

### Event 65535.5

#### Metadata

| Field        | Value    |
|--------------|----------|
| Entrypoint   | 0x00A1   |
| Data Size    | 49 bytes |
| Instructions | 6        |

```
      00 01 02 03 04 05 06 07  08 09 0A 0B 0C 0D 0E 0F
      -- -- -- -- -- -- -- --  -- -- -- -- -- -- -- --
00A0:    B6 0B 0A 80 0B 80 02  80 0C 80 02 80 06 80 06   ...............
00B0: 80 02 80 02 80 1A D5 01  7E 03 F8 FF FF 7F 02 00  ........~.......
00C0: 02 80 03 00 04 00 05 00  7E 04 F8 FF FF 7F 32 09  ........~.....2.
00D0: 80 00                                             ..              
```

#### Opcodes

```
  0: 0x00A1 [0xB6] ENTITY_APPEARANCE_HANDLER(case=Full entity look, race=3*, hair=7*, head=0*, body=191*, hands=0*, legs=8*, feet=8*, main=0*, sub=0*)
  1: 0x00B5 [0x1A] CALL_SUBROUTINE(address=0x01D5)
  2: 0x00B8 [0x7E] CHOCOBO_MOUNT: Mount custom chocobo on EventEntity (index=2, color=32770, name_id=3)
  3: 0x00C8 [0x7E] CHOCOBO_MOUNT: Mode 4 on EventEntity
  4: 0x00CE [0x32] ExtData[1]->MainSpeed = 80* * 0.1
  5: 0x00D1 [0x00] END_REQSTACK()
```

### Event 65535.6

#### Metadata

| Field        | Value    |
|--------------|----------|
| Entrypoint   | 0x00D2   |
| Data Size    | 49 bytes |
| Instructions | 6        |

```
      00 01 02 03 04 05 06 07  08 09 0A 0B 0C 0D 0E 0F
      -- -- -- -- -- -- -- --  -- -- -- -- -- -- -- --
00D0:       B6 0B 0A 80 0D 80  02 80 0C 80 0E 80 0F 80    ..............
00E0: 0F 80 02 80 02 80 1A D5  01 7E 03 F8 FF FF 7F 02  .........~......
00F0: 00 02 80 03 00 04 00 05  00 7E 04 F8 FF FF 7F 32  .........~.....2
0100: 09 80 00                                          ...             
```

#### Opcodes

```
  0: 0x00D2 [0xB6] ENTITY_APPEARANCE_HANDLER(case=Full entity look, race=3*, hair=2*, head=0*, body=191*, hands=62*, legs=60*, feet=60*, main=0*, sub=0*)
  1: 0x00E6 [0x1A] CALL_SUBROUTINE(address=0x01D5)
  2: 0x00E9 [0x7E] CHOCOBO_MOUNT: Mount custom chocobo on EventEntity (index=2, color=32770, name_id=3)
  3: 0x00F9 [0x7E] CHOCOBO_MOUNT: Mode 4 on EventEntity
  4: 0x00FF [0x32] ExtData[1]->MainSpeed = 80* * 0.1
  5: 0x0102 [0x00] END_REQSTACK()
```

### Event 65535.7

#### Metadata

| Field        | Value    |
|--------------|----------|
| Entrypoint   | 0x0103   |
| Data Size    | 49 bytes |
| Instructions | 6        |

```
      00 01 02 03 04 05 06 07  08 09 0A 0B 0C 0D 0E 0F
      -- -- -- -- -- -- -- --  -- -- -- -- -- -- -- --
0100:          B6 0B 00 80 01  80 02 80 0C 80 02 80 10     .............
0110: 80 11 80 02 80 02 80 1A  D5 01 7E 03 F8 FF FF 7F  ..........~.....
0120: 02 00 02 80 03 00 04 00  05 00 7E 04 F8 FF FF 7F  ..........~.....
0130: 32 09 80 00                                       2...            
```

#### Opcodes

```
  0: 0x0103 [0xB6] ENTITY_APPEARANCE_HANDLER(case=Full entity look, race=1*, hair=5*, head=0*, body=191*, hands=0*, legs=12*, feet=24*, main=0*, sub=0*)
  1: 0x0117 [0x1A] CALL_SUBROUTINE(address=0x01D5)
  2: 0x011A [0x7E] CHOCOBO_MOUNT: Mount custom chocobo on EventEntity (index=2, color=32770, name_id=3)
  3: 0x012A [0x7E] CHOCOBO_MOUNT: Mode 4 on EventEntity
  4: 0x0130 [0x32] ExtData[1]->MainSpeed = 80* * 0.1
  5: 0x0133 [0x00] END_REQSTACK()
```

### Event 65535.8

#### Metadata

| Field        | Value    |
|--------------|----------|
| Entrypoint   | 0x0134   |
| Data Size    | 49 bytes |
| Instructions | 6        |

```
      00 01 02 03 04 05 06 07  08 09 0A 0B 0C 0D 0E 0F
      -- -- -- -- -- -- -- --  -- -- -- -- -- -- -- --
0130:             B6 0B 0D 80  0A 80 12 80 0C 80 02 80      ............
0140: 13 80 13 80 02 80 02 80  1A D5 01 7E 03 F8 FF FF  ...........~....
0150: 7F 02 00 02 80 03 00 04  00 05 00 7E 04 F8 FF FF  ...........~....
0160: 7F 32 09 80 00                                    .2...           
```

#### Opcodes

```
  0: 0x0134 [0xB6] ENTITY_APPEARANCE_HANDLER(case=Full entity look, race=2*, hair=3*, head=17*, body=191*, hands=0*, legs=9*, feet=9*, main=0*, sub=0*)
  1: 0x0148 [0x1A] CALL_SUBROUTINE(address=0x01D5)
  2: 0x014B [0x7E] CHOCOBO_MOUNT: Mount custom chocobo on EventEntity (index=2, color=32770, name_id=3)
  3: 0x015B [0x7E] CHOCOBO_MOUNT: Mode 4 on EventEntity
  4: 0x0161 [0x32] ExtData[1]->MainSpeed = 80* * 0.1
  5: 0x0164 [0x00] END_REQSTACK()
```

### Event 65535.9

#### Metadata

| Field        | Value    |
|--------------|----------|
| Entrypoint   | 0x0165   |
| Data Size    | 49 bytes |
| Instructions | 6        |

```
      00 01 02 03 04 05 06 07  08 09 0A 0B 0C 0D 0E 0F
      -- -- -- -- -- -- -- --  -- -- -- -- -- -- -- --
0160:                B6 0B 01  80 14 80 02 80 0C 80 15       ...........
0170: 80 15 80 05 80 02 80 02  80 1A D5 01 7E 03 F8 FF  ............~...
0180: FF 7F 02 00 02 80 03 00  04 00 05 00 7E 04 F8 FF  ............~...
0190: FF 7F 32 09 80 00                                 ..2...          
```

#### Opcodes

```
  0: 0x0165 [0xB6] ENTITY_APPEARANCE_HANDLER(case=Full entity look, race=5*, hair=10*, head=0*, body=191*, hands=23*, legs=23*, feet=11*, main=0*, sub=0*)
  1: 0x0179 [0x1A] CALL_SUBROUTINE(address=0x01D5)
  2: 0x017C [0x7E] CHOCOBO_MOUNT: Mount custom chocobo on EventEntity (index=2, color=32770, name_id=3)
  3: 0x018C [0x7E] CHOCOBO_MOUNT: Mode 4 on EventEntity
  4: 0x0192 [0x32] ExtData[1]->MainSpeed = 80* * 0.1
  5: 0x0195 [0x00] END_REQSTACK()
```

### Event 65535.10

#### Metadata

| Field        | Value    |
|--------------|----------|
| Entrypoint   | 0x0196   |
| Data Size    | 49 bytes |
| Instructions | 6        |

```
      00 01 02 03 04 05 06 07  08 09 0A 0B 0C 0D 0E 0F
      -- -- -- -- -- -- -- --  -- -- -- -- -- -- -- --
0190:                   B6 0B  01 80 16 80 17 80 0C 80        ..........
01A0: 15 80 15 80 15 80 02 80  02 80 1A D5 01 7E 03 F8  .............~..
01B0: FF FF 7F 02 00 02 80 03  00 04 00 05 00 7E 04 F8  .............~..
01C0: FF FF 7F 32 09 80 00                              ...2...         
```

#### Opcodes

```
  0: 0x0196 [0xB6] ENTITY_APPEARANCE_HANDLER(case=Full entity look, race=5*, hair=13*, head=19*, body=191*, hands=23*, legs=23*, feet=23*, main=0*, sub=0*)
  1: 0x01AA [0x1A] CALL_SUBROUTINE(address=0x01D5)
  2: 0x01AD [0x7E] CHOCOBO_MOUNT: Mount custom chocobo on EventEntity (index=2, color=32770, name_id=3)
  3: 0x01BD [0x7E] CHOCOBO_MOUNT: Mode 4 on EventEntity
  4: 0x01C3 [0x32] ExtData[1]->MainSpeed = 80* * 0.1
  5: 0x01C6 [0x00] END_REQSTACK()
```

### Event 65535.11

#### Metadata

| Field        | Value     |
|--------------|-----------|
| Entrypoint   | 0x01C7    |
| Data Size    | 107 bytes |
| Instructions | 4         |

```
      00 01 02 03 04 05 06 07  08 09 0A 0B 0C 0D 0E 0F
      -- -- -- -- -- -- -- --  -- -- -- -- -- -- -- --
01C0:                      32  18 80 1F 00 19 80 1A 80         2........
01D0: 1B 80 1F 01 00 BF 20 02  80 1C 80 0D 80 00 00 41  ...... ........A
01E0: 1D 80 1E 80 00 00 01 00  41 1F 80 18 80 00 00 02  ........A.......
01F0: 00 BF 20 02 80 1C 80 00  80 00 00 3E 00 00 20 80  .. ........>.. .
0200: 0A 02 03 03 00 00 80 01  0D 02 06 03 00 3E 00 00  .............>..
0210: 02 80 1C 02 03 04 00 00  80 01 1F 02 06 04 00 3E  ...............>
0220: 00 00 06 80 2E 02 03 05  00 00 80 01 31 02 06 04  ............1...
0230: 00 1B                                             ..              
```

#### Opcodes

```
  0: 0x01C7 [0x32] ExtData[1]->MainSpeed = 27* * 0.1
  1: 0x01CA [0x1F] MOVE_ENTITY: EventEntity moves to X=-93.702*, Z=-80.717*, Y=-0.500*
  2: 0x01D2 [0x1F] MOVE_ENTITY: Update entity position (mode=1)
  3: 0x01D4 [0x00] END_REQSTACK()
```

#### Data or dead code:

```
# Dead code (unreachable instructions):
     0x01D5 [0xBF] CHOCOBO_RACING_PARAMETER_GETTER(param_type=0x20)
     0x01D7 [0x02] IF !(0x1C80 == 0x0D80) GOTO 0x0000
     0x01DF [0x41] ExtData[1]->WorkLocal[1] = ExtData[1]->WorkLocal[0] (bits 28*-30*)
     0x01E8 [0x41] ExtData[1]->WorkLocal[2] = ExtData[1]->WorkLocal[0] (bits 25*-27*)
     0x01F1 [0xBF] CHOCOBO_RACING_PARAMETER_GETTER(param_type=0x20)
     0x01F3 [0x02] IF !(0x1C80 == 0x80) GOTO 0x0000
     0x01FB [0x3E] IF !(ExtData[1]->WorkLocal[0] bit 16*) GOTO 0x020A
     0x0202 [0x03] ExtData[1]->WorkLocal[3] = 1*
     0x0207 [0x01] GOTO 0x020D
     0x020A [0x06] ExtData[1]->WorkLocal[3] = 0
     0x020D [0x3E] IF !(ExtData[1]->WorkLocal[0] bit 0*) GOTO 0x021C
     0x0214 [0x03] ExtData[1]->WorkLocal[4] = 1*
     0x0219 [0x01] GOTO 0x021F
     0x021C [0x06] ExtData[1]->WorkLocal[4] = 0
     0x021F [0x3E] IF !(ExtData[1]->WorkLocal[0] bit 8*) GOTO 0x022E
     0x0226 [0x03] ExtData[1]->WorkLocal[5] = 1*
     0x022B [0x01] GOTO 0x0231
     0x022E [0x06] ExtData[1]->WorkLocal[4] = 0
     0x0231 [0x1B] RETURN
```

### Event 65535.12

#### Metadata

| Field        | Value     |
|--------------|-----------|
| Entrypoint   | 0x0232    |
| Data Size    | 277 bytes |
| Instructions | 51        |

```
      00 01 02 03 04 05 06 07  08 09 0A 0B 0C 0D 0E 0F
      -- -- -- -- -- -- -- --  -- -- -- -- -- -- -- --
0230:       03 07 00 2C 10 03  0E 00 2C 10 03 0F 00 2D    ...,....,....-
0240: 10 03 11 00 29 10 02 11  00 21 80 03 6E 02 41 20  ....)....!..n.A 
0250: 80 17 80 26 10 13 00 03  12 00 06 80 08 12 00 13  ...&............
0260: 00 07 0E 00 12 00 03 13  00 12 00 01 71 02 06 13  ............q...
0270: 00 02 11 00 21 80 03 99  02 41 20 80 17 80 27 10  ....!....A ...'.
0280: 14 00 03 12 00 06 80 08  12 00 14 00 07 0F 00 12  ................
0290: 00 03 14 00 12 00 01 9C  02 06 14 00 03 08 00 0E  ................
02A0: 00 14 08 00 1C 80 9D 03  07 80 09 00 08 00 0B 08  ................
02B0: 00 9D 03 07 80 0A 00 08  00 0B 08 00 9D 03 07 80  ................
02C0: 0B 00 08 00 0B 08 00 9D  03 07 80 0C 00 08 00 02  ................
02D0: 11 00 02 80 00 DA 02 01  E1 02 36 09 00 0B 00 0A  ..........6.....
02E0: 00 40 02 80 0B 80 36 10  11 00 08 14 00 13 00 9D  .@....6.........
02F0: 03 02 80 13 00 11 00 07  14 00 13 00 9D 03 02 80  ................
0300: 12 00 11 00 14 14 00 22  80 15 14 00 12 00 03 12  ......."........
0310: 00 14 00 03 13 00 11 00  14 13 00 06 80 07 13 00  ................
0320: 1C 80 9D 03 00 80 13 00  13 00 14 12 00 13 00 15  ................
0330: 12 00 22 80 03 0D 00 09  80 14 0D 00 12 00 15 0D  ..".............
0340: 00 22 80 32 0D 00 00                              .".2...         
```

#### Opcodes

```
  0: 0x0232 [0x03] ExtData[1]->WorkLocal[7] = Work_Zone[44]
  1: 0x0237 [0x03] ExtData[1]->WorkLocal[14] = Work_Zone[44]
  2: 0x023C [0x03] ExtData[1]->WorkLocal[15] = Work_Zone[45]
  3: 0x0241 [0x03] ExtData[1]->WorkLocal[17] = Work_Zone[41]
  4: 0x0246 [0x02] IF !(ExtData[1]->WorkLocal[17] >= 32*) GOTO 0x026E
  5: 0x024E [0x41] ExtData[1]->WorkLocal[19] = Work_Zone[38] (bits 16*-19*)
  6: 0x0257 [0x03] ExtData[1]->WorkLocal[18] = 8*
  7: 0x025C [0x08] ExtData[1]->WorkLocal[18] -= ExtData[1]->WorkLocal[19]
  8: 0x0261 [0x07] ExtData[1]->WorkLocal[14] += ExtData[1]->WorkLocal[18]
  9: 0x0266 [0x03] ExtData[1]->WorkLocal[19] = ExtData[1]->WorkLocal[18]
 10: 0x026B [0x01] GOTO 0x0271
 11: 0x026E [0x06] ExtData[1]->WorkLocal[19] = 0

SUBROUTINE_0271:
 12: 0x0271 [0x02] IF !(ExtData[1]->WorkLocal[17] >= 32*) GOTO 0x0299
 13: 0x0279 [0x41] ExtData[1]->WorkLocal[20] = Work_Zone[39] (bits 16*-19*)
 14: 0x0282 [0x03] ExtData[1]->WorkLocal[18] = 8*
 15: 0x0287 [0x08] ExtData[1]->WorkLocal[18] -= ExtData[1]->WorkLocal[20]
 16: 0x028C [0x07] ExtData[1]->WorkLocal[15] += ExtData[1]->WorkLocal[18]
 17: 0x0291 [0x03] ExtData[1]->WorkLocal[20] = ExtData[1]->WorkLocal[18]
 18: 0x0296 [0x01] GOTO 0x029C
 19: 0x0299 [0x06] ExtData[1]->WorkLocal[20] = 0

SUBROUTINE_029C:
 20: 0x029C [0x03] ExtData[1]->WorkLocal[8] = ExtData[1]->WorkLocal[14]
 21: 0x02A1 [0x14] ExtData[1]->WorkLocal[8] *= 4*
 22: 0x02A6 [0x9D] ExtData[1]->WorkLocal[8] = Work_Zone[6*][ExtData[1]->WorkLocal[9]] // Via remapped space
 23: 0x02AE [0x0B] ExtData[1]->WorkLocal[8]++
 24: 0x02B1 [0x9D] ExtData[1]->WorkLocal[8] = Work_Zone[6*][ExtData[1]->WorkLocal[10]] // Via remapped space
 25: 0x02B9 [0x0B] ExtData[1]->WorkLocal[8]++
 26: 0x02BC [0x9D] ExtData[1]->WorkLocal[8] = Work_Zone[6*][ExtData[1]->WorkLocal[11]] // Via remapped space
 27: 0x02C4 [0x0B] ExtData[1]->WorkLocal[8]++
 28: 0x02C7 [0x9D] ExtData[1]->WorkLocal[8] = Work_Zone[6*][ExtData[1]->WorkLocal[12]] // Via remapped space
 29: 0x02CF [0x02] IF !(ExtData[1]->WorkLocal[17] == 0*) GOTO 0x02DA
 30: 0x02D7 [0x01] GOTO 0x02E1
 31: 0x02DA [0x36] SET_ENTITY_EVENT_POSITION(pos_x=ExtData[1]->WorkLocal[9], pos_z=ExtData[1]->WorkLocal[11], pos_y=ExtData[1]->WorkLocal[10])

SUBROUTINE_02E1:
 32: 0x02E1 [0x40] SET_BIT_WORK_RANGE(start_bit=0*, end_bit=7*, target=Work_Zone[54], source=ExtData[1]->WorkLocal[17])
 33: 0x02EA [0x08] ExtData[1]->WorkLocal[20] -= ExtData[1]->WorkLocal[19]
 34: 0x02EF [0x9D] ExtData[1]->WorkLocal[17] = Work_Zone[0*][ExtData[1]->WorkLocal[19]] // Via remapped space
 35: 0x02F7 [0x07] ExtData[1]->WorkLocal[20] += ExtData[1]->WorkLocal[19]
 36: 0x02FC [0x9D] ExtData[1]->WorkLocal[17] = Work_Zone[0*][ExtData[1]->WorkLocal[18]] // Via remapped space
 37: 0x0304 [0x14] ExtData[1]->WorkLocal[20] *= 1000*
 38: 0x0309 [0x15] ExtData[1]->WorkLocal[20] /= ExtData[1]->WorkLocal[18]
 39: 0x030E [0x03] ExtData[1]->WorkLocal[18] = ExtData[1]->WorkLocal[20]
 40: 0x0313 [0x03] ExtData[1]->WorkLocal[19] = ExtData[1]->WorkLocal[17]
 41: 0x0318 [0x14] ExtData[1]->WorkLocal[19] *= 8*
 42: 0x031D [0x07] ExtData[1]->WorkLocal[19] += 4*
 43: 0x0322 [0x9D] ExtData[1]->WorkLocal[19] = Work_Zone[1*][ExtData[1]->WorkLocal[19]] // Via remapped space
 44: 0x032A [0x14] ExtData[1]->WorkLocal[18] *= ExtData[1]->WorkLocal[19]
 45: 0x032F [0x15] ExtData[1]->WorkLocal[18] /= 1000*
 46: 0x0334 [0x03] ExtData[1]->WorkLocal[13] = 80*
 47: 0x0339 [0x14] ExtData[1]->WorkLocal[13] *= ExtData[1]->WorkLocal[18]
 48: 0x033E [0x15] ExtData[1]->WorkLocal[13] /= 1000*
 49: 0x0343 [0x32] ExtData[1]->MainSpeed = ExtData[1]->WorkLocal[13] * 0.1
 50: 0x0346 [0x00] END_REQSTACK()
```

### Event 65535.13

#### Metadata

| Field        | Value     |
|--------------|-----------|
| Entrypoint   | 0x0347    |
| Data Size    | 509 bytes |
| Instructions | 93        |

```
      00 01 02 03 04 05 06 07  08 09 0A 0B 0C 0D 0E 0F
      -- -- -- -- -- -- -- --  -- -- -- -- -- -- -- --
0340:                      03  07 00 0E 00 02 11 00 1E         .........
0350: 80 00 59 03 03 07 00 0F  00 02 11 00 23 80 00 69  ..Y.........#..i
0360: 03 03 07 00 31 10 0C 07  00 02 07 00 33 10 05 64  ....1.......3..d
0370: 04 02 07 00 0F 00 05 1A  04 02 31 10 07 00 05 88  ..........1.....
0380: 03 3C 30 10 1C 80 00 80  02 07 00 33 10 02 93 03  .<0........3....
0390: 01 64 04 02 37 10 0D 80  00 CC 03 BF 60 02 80 02  .d..7.......`...
03A0: 80 12 00 41 20 80 17 80  12 00 12 00 02 12 00 02  ...A ...........
03B0: 80 00 C9 03 03 02 10 31  10 07 02 10 07 80 02 02  .......1........
03C0: 10 07 00 05 C9 03 01 64  04 01 CC 03 03 08 00 07  .......d........
03D0: 00 14 08 00 1C 80 9D 03  07 80 09 00 08 00 0B 08  ................
03E0: 00 9D 03 07 80 0A 00 08  00 0B 08 00 9D 03 07 80  ................
03F0: 0B 00 08 00 0B 08 00 9D  03 07 80 0C 00 08 00 02  ................
0400: 11 00 02 80 00 0A 04 01  14 04 1F 00 09 00 0B 00  ................
0410: 0A 00 1F 01 0B 07 00 01  71 03 07 11 00 00 80 40  ........q......@
0420: 02 80 0B 80 36 10 11 00  3C 30 10 10 80 00 80 03  ....6...<0......
0430: 0E 00 0F 00 9D 03 02 80  10 00 11 00 07 0F 00 10  ................
0440: 00 1A 65 04 02 11 00 1E  80 00 51 04 03 07 00 0F  ..e.......Q.....
0450: 00 02 11 00 23 80 00 61  04 03 07 00 31 10 0C 07  ....#..a....1...
0460: 00 01 69 03 00 03 17 00  0E 00 03 18 00 0F 00 02  ..i.............
0470: 11 00 21 80 03 A1 04 BF  40 02 80 11 00 02 80 15  ..!.....@.......
0480: 00 41 20 80 17 80 15 00  13 00 03 12 00 06 80 08  .A .............
0490: 12 00 13 00 07 0E 00 12  00 03 13 00 12 00 01 A6  ................
04A0: 04 03 13 00 02 80 02 11  00 21 80 03 D8 04 BF 40  .........!.....@
04B0: 02 80 11 00 00 80 16 00  41 20 80 17 80 16 00 14  ........A ......
04C0: 00 03 12 00 06 80 08 12  00 14 00 07 0F 00 12 00  ................
04D0: 03 14 00 12 00 01 DD 04  03 14 00 02 80 08 14 00  ................
04E0: 13 00 9D 03 02 80 13 00  11 00 07 14 00 13 00 9D  ................
04F0: 03 02 80 12 00 11 00 14  14 00 22 80 15 14 00 12  ..........".....
0500: 00 03 12 00 14 00 03 13  00 11 00 14 13 00 06 80  ................
0510: 07 13 00 1C 80 9D 03 00  80 13 00 13 00 14 12 00  ................
0520: 13 00 15 12 00 22 80 03  0D 00 09 80 14 0D 00 12  ....."..........
0530: 00 15 0D 00 22 80 32 0D  00 03 0E 00 17 00 03 0F  ....".2.........
0540: 00 18 00 1B                                       ....            
```

#### Opcodes

```
  0: 0x0347 [0x03] ExtData[1]->WorkLocal[7] = ExtData[1]->WorkLocal[14]
  1: 0x034C [0x02] IF !(ExtData[1]->WorkLocal[17] == 30*) GOTO 0x0359
  2: 0x0354 [0x03] ExtData[1]->WorkLocal[7] = ExtData[1]->WorkLocal[15]
  3: 0x0359 [0x02] IF !(ExtData[1]->WorkLocal[17] == 31*) GOTO 0x0369
  4: 0x0361 [0x03] ExtData[1]->WorkLocal[7] = Work_Zone[49]
  5: 0x0366 [0x0C] ExtData[1]->WorkLocal[7]--
  6: 0x0369 [0x02] IF !(ExtData[1]->WorkLocal[7] > Work_Zone[51]) GOTO 0x0464
  7: 0x0371 [0x02] IF !(ExtData[1]->WorkLocal[7] > ExtData[1]->WorkLocal[15]) GOTO 0x041A
  8: 0x0379 [0x02] IF !(Work_Zone[49] > ExtData[1]->WorkLocal[7]) GOTO 0x0388
  9: 0x0381 [0x3C] SET_BIT_FLAG_CONDITIONAL(target_work_offset=Work_Zone[48], bit_index_work_offset=4*, condition_work_offset=1*)
 10: 0x0388 [0x02] IF !(ExtData[1]->WorkLocal[7] <= Work_Zone[51]) GOTO 0x0393
 11: 0x0390 [0x01] GOTO 0x0464
 12: 0x0393 [0x02] IF !(Work_Zone[55] == 2*) GOTO 0x03CC
 13: 0x039B [0xBF] CHOCOBO_RACING_PARAMETER_GETTER(param_type=0x60)
 14: 0x039D [0x02] IF !(0x0280 == 0x1280) GOTO 0x2041
 15: 0x03A5 [0x80] LOAD_WAIT(entity=Unknown NPC (ID: 1212439/0x00128017))
 16: 0x03AA [0x12] 0x0200 = rand()
 17: 0x03AD [0x12] 0x0200 = rand()
 18: 0x03B0 [0x80] LOAD_WAIT(entity=Unknown NPC (ID: 50579712/0x0303C900))
 19: 0x03B5 [0x02] IF !(0x3110 <= 0x0710) GOTO 0x0710
 20: 0x03BD [0x80] LOAD_WAIT(entity=Unknown NPC (ID: 118489602/0x07100202))
 21: 0x03C2 [0x00] END_REQSTACK()

SUBROUTINE_03CC:
 22: 0x03CC [0x03] ExtData[1]->WorkLocal[8] = ExtData[1]->WorkLocal[7]
 23: 0x03D1 [0x14] ExtData[1]->WorkLocal[8] *= 4*
 24: 0x03D6 [0x9D] ExtData[1]->WorkLocal[8] = Work_Zone[6*][ExtData[1]->WorkLocal[9]] // Via remapped space
 25: 0x03DE [0x0B] ExtData[1]->WorkLocal[8]++
 26: 0x03E1 [0x9D] ExtData[1]->WorkLocal[8] = Work_Zone[6*][ExtData[1]->WorkLocal[10]] // Via remapped space
 27: 0x03E9 [0x0B] ExtData[1]->WorkLocal[8]++
 28: 0x03EC [0x9D] ExtData[1]->WorkLocal[8] = Work_Zone[6*][ExtData[1]->WorkLocal[11]] // Via remapped space
 29: 0x03F4 [0x0B] ExtData[1]->WorkLocal[8]++
 30: 0x03F7 [0x9D] ExtData[1]->WorkLocal[8] = Work_Zone[6*][ExtData[1]->WorkLocal[12]] // Via remapped space
 31: 0x03FF [0x02] IF !(ExtData[1]->WorkLocal[17] == 0*) GOTO 0x040A
 32: 0x0407 [0x01] GOTO 0x0414
 33: 0x040A [0x1F] MOVE_ENTITY: EventEntity moves to X=ExtData[1]->WorkLocal[9], Z=ExtData[1]->WorkLocal[11], Y=ExtData[1]->WorkLocal[10]
 34: 0x0412 [0x1F] MOVE_ENTITY: Update entity position (mode=1)

SUBROUTINE_0414:
 35: 0x0414 [0x0B] ExtData[1]->WorkLocal[7]++
 36: 0x0417 [0x01] GOTO 0x0371
 37: 0x041A [0x07] ExtData[1]->WorkLocal[17] += 1*
 38: 0x041F [0x40] SET_BIT_WORK_RANGE(start_bit=0*, end_bit=7*, target=Work_Zone[54], source=ExtData[1]->WorkLocal[17])
 39: 0x0428 [0x3C] SET_BIT_FLAG_CONDITIONAL(target_work_offset=Work_Zone[48], bit_index_work_offset=12*, condition_work_offset=1*)
 40: 0x042F [0x03] ExtData[1]->WorkLocal[14] = ExtData[1]->WorkLocal[15]
 41: 0x0434 [0x9D] ExtData[1]->WorkLocal[17] = Work_Zone[0*][ExtData[1]->WorkLocal[16]] // Via remapped space
 42: 0x043C [0x07] ExtData[1]->WorkLocal[15] += ExtData[1]->WorkLocal[16]
 43: 0x0441 [0x1A] CALL_SUBROUTINE(address=0x0465)
 44: 0x0444 [0x02] IF !(ExtData[1]->WorkLocal[17] == 30*) GOTO 0x0451
 45: 0x044C [0x03] ExtData[1]->WorkLocal[7] = ExtData[1]->WorkLocal[15]
 46: 0x0451 [0x02] IF !(ExtData[1]->WorkLocal[17] == 31*) GOTO 0x0461
 47: 0x0459 [0x03] ExtData[1]->WorkLocal[7] = Work_Zone[49]
 48: 0x045E [0x0C] ExtData[1]->WorkLocal[7]--
 49: 0x0461 [0x01] GOTO 0x0369

SUBROUTINE_0464:
 50: 0x0464 [0x00] END_REQSTACK()

SUBROUTINE_0465:
 51: 0x0465 [0x03] ExtData[1]->WorkLocal[23] = ExtData[1]->WorkLocal[14]
 52: 0x046A [0x03] ExtData[1]->WorkLocal[24] = ExtData[1]->WorkLocal[15]
 53: 0x046F [0x02] IF !(ExtData[1]->WorkLocal[17] >= 32*) GOTO 0x04A1
 54: 0x0477 [0xBF] CHOCOBO_RACING_PARAMETER_GETTER(param_type=0x40)
 55: 0x0479 [0x02] IF !(0x1180 == 0x0200) GOTO 0x0015
 56: 0x0481 [0x41] ExtData[1]->WorkLocal[19] = ExtData[1]->WorkLocal[21] (bits 16*-19*)
 57: 0x048A [0x03] ExtData[1]->WorkLocal[18] = 8*
 58: 0x048F [0x08] ExtData[1]->WorkLocal[18] -= ExtData[1]->WorkLocal[19]
 59: 0x0494 [0x07] ExtData[1]->WorkLocal[14] += ExtData[1]->WorkLocal[18]
 60: 0x0499 [0x03] ExtData[1]->WorkLocal[19] = ExtData[1]->WorkLocal[18]
 61: 0x049E [0x01] GOTO 0x04A6
 62: 0x04A1 [0x03] ExtData[1]->WorkLocal[19] = 0*

SUBROUTINE_04A6:
 63: 0x04A6 [0x02] IF !(ExtData[1]->WorkLocal[17] >= 32*) GOTO 0x04D8
 64: 0x04AE [0xBF] CHOCOBO_RACING_PARAMETER_GETTER(param_type=0x40)
 65: 0x04B0 [0x02] IF !(0x1180 == ExtData[1]->WorkLocal[0]) GOTO 0x0016
 66: 0x04B8 [0x41] ExtData[1]->WorkLocal[20] = ExtData[1]->WorkLocal[22] (bits 16*-19*)
 67: 0x04C1 [0x03] ExtData[1]->WorkLocal[18] = 8*
 68: 0x04C6 [0x08] ExtData[1]->WorkLocal[18] -= ExtData[1]->WorkLocal[20]
 69: 0x04CB [0x07] ExtData[1]->WorkLocal[15] += ExtData[1]->WorkLocal[18]
 70: 0x04D0 [0x03] ExtData[1]->WorkLocal[20] = ExtData[1]->WorkLocal[18]
 71: 0x04D5 [0x01] GOTO 0x04DD
 72: 0x04D8 [0x03] ExtData[1]->WorkLocal[20] = 0*

SUBROUTINE_04DD:
 73: 0x04DD [0x08] ExtData[1]->WorkLocal[20] -= ExtData[1]->WorkLocal[19]
 74: 0x04E2 [0x9D] ExtData[1]->WorkLocal[17] = Work_Zone[0*][ExtData[1]->WorkLocal[19]] // Via remapped space
 75: 0x04EA [0x07] ExtData[1]->WorkLocal[20] += ExtData[1]->WorkLocal[19]
 76: 0x04EF [0x9D] ExtData[1]->WorkLocal[17] = Work_Zone[0*][ExtData[1]->WorkLocal[18]] // Via remapped space
 77: 0x04F7 [0x14] ExtData[1]->WorkLocal[20] *= 1000*
 78: 0x04FC [0x15] ExtData[1]->WorkLocal[20] /= ExtData[1]->WorkLocal[18]
 79: 0x0501 [0x03] ExtData[1]->WorkLocal[18] = ExtData[1]->WorkLocal[20]
 80: 0x0506 [0x03] ExtData[1]->WorkLocal[19] = ExtData[1]->WorkLocal[17]
 81: 0x050B [0x14] ExtData[1]->WorkLocal[19] *= 8*
 82: 0x0510 [0x07] ExtData[1]->WorkLocal[19] += 4*
 83: 0x0515 [0x9D] ExtData[1]->WorkLocal[19] = Work_Zone[1*][ExtData[1]->WorkLocal[19]] // Via remapped space
 84: 0x051D [0x14] ExtData[1]->WorkLocal[18] *= ExtData[1]->WorkLocal[19]
 85: 0x0522 [0x15] ExtData[1]->WorkLocal[18] /= 1000*
 86: 0x0527 [0x03] ExtData[1]->WorkLocal[13] = 80*
 87: 0x052C [0x14] ExtData[1]->WorkLocal[13] *= ExtData[1]->WorkLocal[18]
 88: 0x0531 [0x15] ExtData[1]->WorkLocal[13] /= 1000*
 89: 0x0536 [0x32] ExtData[1]->MainSpeed = ExtData[1]->WorkLocal[13] * 0.1
 90: 0x0539 [0x03] ExtData[1]->WorkLocal[14] = ExtData[1]->WorkLocal[23]
 91: 0x053E [0x03] ExtData[1]->WorkLocal[15] = ExtData[1]->WorkLocal[24]
 92: 0x0543 [0x1B] RETURN
```

#### Data or dead code:

```
# Dead code (unreachable instructions):
     0x03C3 [0x05] 0x03C9 = 1
     0x03C6 [0x01] GOTO 0x0464
     0x03C9 [0x01] GOTO 0x03CC
```

### Event 65535.14

#### Metadata

| Field        | Value   |
|--------------|---------|
| Entrypoint   | 0x0544  |
| Data Size    | 3 bytes |
| Instructions | 2       |

```
      00 01 02 03 04 05 06 07  08 09 0A 0B 0C 0D 0E 0F
      -- -- -- -- -- -- -- --  -- -- -- -- -- -- -- --
0540:             61 00 00                                  a..         
```

#### Opcodes

```
  0: 0x0544 [0x61] EventEntity->Render.Flags2 &= ~0x00000001
  1: 0x0546 [0x00] END_REQSTACK()
```

### Event 65535.15

#### Metadata

| Field        | Value   |
|--------------|---------|
| Entrypoint   | 0x0547  |
| Data Size    | 3 bytes |
| Instructions | 2       |

```
      00 01 02 03 04 05 06 07  08 09 0A 0B 0C 0D 0E 0F
      -- -- -- -- -- -- -- --  -- -- -- -- -- -- -- --
0540:                      61  01 00                           a..      
```

#### Opcodes

```
  0: 0x0547 [0x61] EventEntity->Render.Flags2 |= 0x00000001
  1: 0x0549 [0x00] END_REQSTACK()
```
