# 17063987

## Common Data

| Field            | Value                    |
|------------------|--------------------------|
| Zone             | Chocobo Circuit (ID: 70) |
| Block Size       | 948 bytes                |
| Total Events     | 11                       |
| References Count | 20                       |

## List of Events

| Event ID                 | Entrypoint   |   Size |   Instructions |
|--------------------------|--------------|--------|----------------|
| [65535](#event-65535)    | 0x0000       |      1 |              1 |
| [479](#event-479)        | 0x0001       |      1 |              1 |
| [488](#event-488)        | 0x0002       |      1 |              1 |
| [497](#event-497)        | 0x0003       |      1 |              1 |
| [65535.1](#event-655351) | 0x0004       |      1 |              1 |
| [65535.2](#event-655352) | 0x0005       |     32 |              7 |
| [65535.3](#event-655353) | 0x0025       |     42 |              6 |
| [65535.4](#event-655354) | 0x004F       |    267 |             49 |
| [65535.5](#event-655355) | 0x015A       |    455 |             83 |
| [65535.6](#event-655356) | 0x0321       |      3 |              2 |
| [65535.7](#event-655357) | 0x0324       |      3 |              2 |

## DAT References (imed_data)

|   Index | Hex Value   |   Dec Value |
|---------|-------------|-------------|
|       0 | 0x0010      |          16 |
|       1 | 0x001F      |          31 |
|       2 | 0x0000      |           0 |
|       3 | 0x0035      |          53 |
|       4 | 0x0050      |          80 |
|       5 | 0x0005      |           5 |
|       6 | 0x0001      |           1 |
|       7 | 0x0002      |           2 |
|       8 | 0x0003      |           3 |
|       9 | 0x0838      |        2104 |
|      10 | 0x0020      |          32 |
|      11 | 0x000C      |          12 |
|      12 | 0x000F      |          15 |
|      13 | 0x0008      |           8 |
|      14 | 0x0004      |           4 |
|      15 | 0x0018      |          24 |
|      16 | 0x03E8      |        1000 |
|      17 | 0x001E      |          30 |
|      18 | 0x000B      |          11 |
|      19 | 0x0028      |          40 |

## Events

### Event 65535

#### Metadata

| Field        | Value   |
|--------------|---------|
| Entrypoint   | 0x0000  |
| Data Size    | 1 bytes |
| Instructions | 1       |

```
      00 01 02 03 04 05 06 07  08 09 0A 0B 0C 0D 0E 0F
      -- -- -- -- -- -- -- --  -- -- -- -- -- -- -- --
0000: 00                                                .               
```

#### Opcodes

```
  0: 0x0000 [0x00] END_REQSTACK()
```

### Event 479

#### Metadata

| Field        | Value   |
|--------------|---------|
| Entrypoint   | 0x0001  |
| Data Size    | 1 bytes |
| Instructions | 1       |

```
      00 01 02 03 04 05 06 07  08 09 0A 0B 0C 0D 0E 0F
      -- -- -- -- -- -- -- --  -- -- -- -- -- -- -- --
0000:    00                                              .              
```

#### Opcodes

```
  0: 0x0001 [0x00] END_REQSTACK()
```

### Event 488

#### Metadata

| Field        | Value   |
|--------------|---------|
| Entrypoint   | 0x0002  |
| Data Size    | 1 bytes |
| Instructions | 1       |

```
      00 01 02 03 04 05 06 07  08 09 0A 0B 0C 0D 0E 0F
      -- -- -- -- -- -- -- --  -- -- -- -- -- -- -- --
0000:       00                                            .             
```

#### Opcodes

```
  0: 0x0002 [0x00] END_REQSTACK()
```

### Event 497

#### Metadata

| Field        | Value   |
|--------------|---------|
| Entrypoint   | 0x0003  |
| Data Size    | 1 bytes |
| Instructions | 1       |

```
      00 01 02 03 04 05 06 07  08 09 0A 0B 0C 0D 0E 0F
      -- -- -- -- -- -- -- --  -- -- -- -- -- -- -- --
0000:          00                                          .            
```

#### Opcodes

```
  0: 0x0003 [0x00] END_REQSTACK()
```

### Event 65535.1

#### Metadata

| Field        | Value   |
|--------------|---------|
| Entrypoint   | 0x0004  |
| Data Size    | 1 bytes |
| Instructions | 1       |

```
      00 01 02 03 04 05 06 07  08 09 0A 0B 0C 0D 0E 0F
      -- -- -- -- -- -- -- --  -- -- -- -- -- -- -- --
0000:             00                                        .           
```

#### Opcodes

```
  0: 0x0004 [0x00] END_REQSTACK()
```

### Event 65535.2

#### Metadata

| Field        | Value    |
|--------------|----------|
| Entrypoint   | 0x0005   |
| Data Size    | 32 bytes |
| Instructions | 7        |

```
      00 01 02 03 04 05 06 07  08 09 0A 0B 0C 0D 0E 0F
      -- -- -- -- -- -- -- --  -- -- -- -- -- -- -- --
0000:                41 00 80  01 80 42 10 00 00 02 00       A....B.....
0010: 00 02 80 01 1D 00 B6 00  00 00 01 21 00 B6 00 03  ...........!....
0020: 80 32 04 80 00                                    .2...           
```

#### Opcodes

```
  0: 0x0005 [0x41] ExtData[1]->WorkLocal[0] = Work_Zone[66] (bits 16*-31*)
  1: 0x000E [0x02] IF !(ExtData[1]->WorkLocal[0] == 0*) GOTO 0x001D
  2: 0x0016 [0xB6] ENTITY_APPEARANCE_HANDLER(case=Hair style, value=ExtData[1]->WorkLocal[0])
  3: 0x001A [0x01] GOTO 0x0021
  4: 0x001D [0xB6] ENTITY_APPEARANCE_HANDLER(case=Hair style, value=53*)

SUBROUTINE_0021:
  5: 0x0021 [0x32] ExtData[1]->MainSpeed = 80* * 0.1
  6: 0x0024 [0x00] END_REQSTACK()
```

### Event 65535.3

#### Metadata

| Field        | Value    |
|--------------|----------|
| Entrypoint   | 0x0025   |
| Data Size    | 42 bytes |
| Instructions | 6        |

```
      00 01 02 03 04 05 06 07  08 09 0A 0B 0C 0D 0E 0F
      -- -- -- -- -- -- -- --  -- -- -- -- -- -- -- --
0020:                9D 03 05  80 03 00 02 80 9D 03 05       ...........
0030: 80 04 00 06 80 9D 03 05  80 05 00 07 80 9D 03 05  ................
0040: 80 06 00 08 80 37 03 00  05 00 04 00 09 80 00     .....7......... 
```

#### Opcodes

```
  0: 0x0025 [0x9D] 0* = Work_Zone[5*][ExtData[1]->WorkLocal[3]] // Via remapped space
  1: 0x002D [0x9D] 1* = Work_Zone[5*][ExtData[1]->WorkLocal[4]] // Via remapped space
  2: 0x0035 [0x9D] 2* = Work_Zone[5*][ExtData[1]->WorkLocal[5]] // Via remapped space
  3: 0x003D [0x9D] 3* = Work_Zone[5*][ExtData[1]->WorkLocal[6]] // Via remapped space
  4: 0x0045 [0x37] UPDATE_EVENT_POSITION_AND_DIR: x=ExtData[1]->WorkLocal[3], z=ExtData[1]->WorkLocal[5], y=ExtData[1]->WorkLocal[4], direction=184.9°*
  5: 0x004E [0x00] END_REQSTACK()
```

### Event 65535.4

#### Metadata

| Field        | Value     |
|--------------|-----------|
| Entrypoint   | 0x004F    |
| Data Size    | 267 bytes |
| Instructions | 49        |

```
      00 01 02 03 04 05 06 07  08 09 0A 0B 0C 0D 0E 0F
      -- -- -- -- -- -- -- --  -- -- -- -- -- -- -- --
0040:                                               03                 .
0050: 01 00 2C 10 03 08 00 2C  10 03 09 00 2D 10 03 0B  ..,....,....-...
0060: 00 29 10 02 0B 00 0A 80  03 8B 00 41 0B 80 0C 80  .).........A....
0070: 26 10 0D 00 03 0C 00 0D  80 08 0C 00 0D 00 07 08  &...............
0080: 00 0C 00 03 0D 00 0C 00  01 8E 00 06 0D 00 02 0B  ................
0090: 00 0A 80 03 B6 00 41 0B  80 0C 80 27 10 0E 00 03  ......A....'....
00A0: 0C 00 0D 80 08 0C 00 0E  00 07 09 00 0C 00 03 0E  ................
00B0: 00 0C 00 01 B9 00 06 0E  00 03 02 00 08 00 14 02  ................
00C0: 00 0E 80 9D 03 05 80 03  00 02 00 0B 02 00 9D 03  ................
00D0: 05 80 04 00 02 00 0B 02  00 9D 03 05 80 05 00 02  ................
00E0: 00 0B 02 00 9D 03 05 80  06 00 02 00 02 0B 00 02  ................
00F0: 80 00 F7 00 01 FE 00 36  03 00 05 00 04 00 40 0F  .......6......@.
0100: 80 01 80 35 10 0B 00 08  0E 00 0D 00 9D 03 02 80  ...5............
0110: 0D 00 0B 00 07 0E 00 0D  00 9D 03 02 80 0C 00 0B  ................
0120: 00 14 0E 00 10 80 15 0E  00 0C 00 03 0C 00 0E 00  ................
0130: 03 0D 00 0B 00 14 0D 00  0D 80 07 0D 00 08 80 9D  ................
0140: 03 06 80 0D 00 0D 00 14  0C 00 0D 00 03 07 00 0C  ................
0150: 00 15 07 00 10 80 32 07  00 00                    ......2...      
```

#### Opcodes

```
  0: 0x004F [0x03] ExtData[1]->WorkLocal[1] = Work_Zone[44]
  1: 0x0054 [0x03] ExtData[1]->WorkLocal[8] = Work_Zone[44]
  2: 0x0059 [0x03] ExtData[1]->WorkLocal[9] = Work_Zone[45]
  3: 0x005E [0x03] ExtData[1]->WorkLocal[11] = Work_Zone[41]
  4: 0x0063 [0x02] IF !(ExtData[1]->WorkLocal[11] >= 32*) GOTO 0x008B
  5: 0x006B [0x41] ExtData[1]->WorkLocal[13] = Work_Zone[38] (bits 12*-15*)
  6: 0x0074 [0x03] ExtData[1]->WorkLocal[12] = 8*
  7: 0x0079 [0x08] ExtData[1]->WorkLocal[12] -= ExtData[1]->WorkLocal[13]
  8: 0x007E [0x07] ExtData[1]->WorkLocal[8] += ExtData[1]->WorkLocal[12]
  9: 0x0083 [0x03] ExtData[1]->WorkLocal[13] = ExtData[1]->WorkLocal[12]
 10: 0x0088 [0x01] GOTO 0x008E
 11: 0x008B [0x06] ExtData[1]->WorkLocal[13] = 0

SUBROUTINE_008E:
 12: 0x008E [0x02] IF !(ExtData[1]->WorkLocal[11] >= 32*) GOTO 0x00B6
 13: 0x0096 [0x41] ExtData[1]->WorkLocal[14] = Work_Zone[39] (bits 12*-15*)
 14: 0x009F [0x03] ExtData[1]->WorkLocal[12] = 8*
 15: 0x00A4 [0x08] ExtData[1]->WorkLocal[12] -= ExtData[1]->WorkLocal[14]
 16: 0x00A9 [0x07] ExtData[1]->WorkLocal[9] += ExtData[1]->WorkLocal[12]
 17: 0x00AE [0x03] ExtData[1]->WorkLocal[14] = ExtData[1]->WorkLocal[12]
 18: 0x00B3 [0x01] GOTO 0x00B9
 19: 0x00B6 [0x06] ExtData[1]->WorkLocal[14] = 0

SUBROUTINE_00B9:
 20: 0x00B9 [0x03] ExtData[1]->WorkLocal[2] = ExtData[1]->WorkLocal[8]
 21: 0x00BE [0x14] ExtData[1]->WorkLocal[2] *= 4*
 22: 0x00C3 [0x9D] ExtData[1]->WorkLocal[2] = Work_Zone[5*][ExtData[1]->WorkLocal[3]] // Via remapped space
 23: 0x00CB [0x0B] ExtData[1]->WorkLocal[2]++
 24: 0x00CE [0x9D] ExtData[1]->WorkLocal[2] = Work_Zone[5*][ExtData[1]->WorkLocal[4]] // Via remapped space
 25: 0x00D6 [0x0B] ExtData[1]->WorkLocal[2]++
 26: 0x00D9 [0x9D] ExtData[1]->WorkLocal[2] = Work_Zone[5*][ExtData[1]->WorkLocal[5]] // Via remapped space
 27: 0x00E1 [0x0B] ExtData[1]->WorkLocal[2]++
 28: 0x00E4 [0x9D] ExtData[1]->WorkLocal[2] = Work_Zone[5*][ExtData[1]->WorkLocal[6]] // Via remapped space
 29: 0x00EC [0x02] IF !(ExtData[1]->WorkLocal[11] == 0*) GOTO 0x00F7
 30: 0x00F4 [0x01] GOTO 0x00FE
 31: 0x00F7 [0x36] SET_ENTITY_EVENT_POSITION(pos_x=ExtData[1]->WorkLocal[3], pos_z=ExtData[1]->WorkLocal[5], pos_y=ExtData[1]->WorkLocal[4])

SUBROUTINE_00FE:
 32: 0x00FE [0x40] SET_BIT_WORK_RANGE(start_bit=24*, end_bit=31*, target=Work_Zone[53], source=ExtData[1]->WorkLocal[11])
 33: 0x0107 [0x08] ExtData[1]->WorkLocal[14] -= ExtData[1]->WorkLocal[13]
 34: 0x010C [0x9D] ExtData[1]->WorkLocal[11] = Work_Zone[0*][ExtData[1]->WorkLocal[13]] // Via remapped space
 35: 0x0114 [0x07] ExtData[1]->WorkLocal[14] += ExtData[1]->WorkLocal[13]
 36: 0x0119 [0x9D] ExtData[1]->WorkLocal[11] = Work_Zone[0*][ExtData[1]->WorkLocal[12]] // Via remapped space
 37: 0x0121 [0x14] ExtData[1]->WorkLocal[14] *= 1000*
 38: 0x0126 [0x15] ExtData[1]->WorkLocal[14] /= ExtData[1]->WorkLocal[12]
 39: 0x012B [0x03] ExtData[1]->WorkLocal[12] = ExtData[1]->WorkLocal[14]
 40: 0x0130 [0x03] ExtData[1]->WorkLocal[13] = ExtData[1]->WorkLocal[11]
 41: 0x0135 [0x14] ExtData[1]->WorkLocal[13] *= 8*
 42: 0x013A [0x07] ExtData[1]->WorkLocal[13] += 3*
 43: 0x013F [0x9D] ExtData[1]->WorkLocal[13] = Work_Zone[1*][ExtData[1]->WorkLocal[13]] // Via remapped space
 44: 0x0147 [0x14] ExtData[1]->WorkLocal[12] *= ExtData[1]->WorkLocal[13]
 45: 0x014C [0x03] ExtData[1]->WorkLocal[7] = ExtData[1]->WorkLocal[12]
 46: 0x0151 [0x15] ExtData[1]->WorkLocal[7] /= 1000*
 47: 0x0156 [0x32] ExtData[1]->MainSpeed = ExtData[1]->WorkLocal[7] * 0.1
 48: 0x0159 [0x00] END_REQSTACK()
```

### Event 65535.5

#### Metadata

| Field        | Value     |
|--------------|-----------|
| Entrypoint   | 0x015A    |
| Data Size    | 455 bytes |
| Instructions | 83        |

```
      00 01 02 03 04 05 06 07  08 09 0A 0B 0C 0D 0E 0F
      -- -- -- -- -- -- -- --  -- -- -- -- -- -- -- --
0150:                                03 01 00 08 00 02            ......
0160: 0B 00 11 80 00 6C 01 03  01 00 09 00 02 0B 00 01  .....l..........
0170: 80 00 7C 01 03 01 00 31  10 0C 01 00 02 01 00 33  ..|....1.......3
0180: 10 05 3E 02 02 01 00 09  00 05 F4 01 02 31 10 01  ..>..........1..
0190: 00 05 9B 01 3C 30 10 08  80 06 80 02 01 00 33 10  ....<0........3.
01A0: 02 A6 01 01 3E 02 03 02  00 01 00 14 02 00 0E 80  ....>...........
01B0: 9D 03 05 80 03 00 02 00  0B 02 00 9D 03 05 80 04  ................
01C0: 00 02 00 0B 02 00 9D 03  05 80 05 00 02 00 0B 02  ................
01D0: 00 9D 03 05 80 06 00 02  00 02 0B 00 02 80 00 E4  ................
01E0: 01 01 EE 01 1F 00 03 00  05 00 04 00 1F 01 0B 01  ................
01F0: 00 01 84 01 07 0B 00 06  80 40 0F 80 01 80 35 10  .........@....5.
0200: 0B 00 3C 30 10 12 80 06  80 03 08 00 09 00 9D 03  ..<0............
0210: 02 80 0A 00 0B 00 07 09  00 0A 00 1A 3F 02 02 0B  ............?...
0220: 00 11 80 00 2B 02 03 01  00 09 00 02 0B 00 01 80  ....+...........
0230: 00 3B 02 03 01 00 31 10  0C 01 00 01 7C 01 00 03  .;....1.....|...
0240: 11 00 08 00 03 12 00 09  00 02 0B 00 0A 80 03 7B  ...............{
0250: 02 BF 40 02 80 0B 00 02  80 0F 00 41 0B 80 0C 80  ..@........A....
0260: 0F 00 0D 00 03 0C 00 0D  80 08 0C 00 0D 00 07 08  ................
0270: 00 0C 00 03 0D 00 0C 00  01 80 02 03 0D 00 02 80  ................
0280: 02 0B 00 0A 80 03 B2 02  BF 40 02 80 0B 00 06 80  .........@......
0290: 10 00 41 0B 80 0C 80 10  00 0E 00 03 0C 00 0D 80  ..A.............
02A0: 08 0C 00 0E 00 07 09 00  0C 00 03 0E 00 0C 00 01  ................
02B0: B7 02 03 0E 00 02 80 08  0E 00 0D 00 9D 03 02 80  ................
02C0: 0D 00 0B 00 07 0E 00 0D  00 9D 03 02 80 0C 00 0B  ................
02D0: 00 14 0E 00 10 80 15 0E  00 0C 00 03 0C 00 0E 00  ................
02E0: 03 0D 00 0B 00 14 0D 00  0D 80 07 0D 00 08 80 9D  ................
02F0: 03 06 80 0D 00 0D 00 14  0C 00 0D 00 03 07 00 0C  ................
0300: 00 15 07 00 10 80 02 0B  00 0A 80 04 13 03 03 07  ................
0310: 00 13 80 32 07 00 03 08  00 11 00 03 09 00 12 00  ...2............
0320: 1B                                                .               
```

#### Opcodes

```
  0: 0x015A [0x03] ExtData[1]->WorkLocal[1] = ExtData[1]->WorkLocal[8]
  1: 0x015F [0x02] IF !(ExtData[1]->WorkLocal[11] == 30*) GOTO 0x016C
  2: 0x0167 [0x03] ExtData[1]->WorkLocal[1] = ExtData[1]->WorkLocal[9]
  3: 0x016C [0x02] IF !(ExtData[1]->WorkLocal[11] == 31*) GOTO 0x017C
  4: 0x0174 [0x03] ExtData[1]->WorkLocal[1] = Work_Zone[49]
  5: 0x0179 [0x0C] ExtData[1]->WorkLocal[1]--
  6: 0x017C [0x02] IF !(ExtData[1]->WorkLocal[1] > Work_Zone[51]) GOTO 0x023E
  7: 0x0184 [0x02] IF !(ExtData[1]->WorkLocal[1] > ExtData[1]->WorkLocal[9]) GOTO 0x01F4
  8: 0x018C [0x02] IF !(Work_Zone[49] > ExtData[1]->WorkLocal[1]) GOTO 0x019B
  9: 0x0194 [0x3C] SET_BIT_FLAG_CONDITIONAL(target_work_offset=Work_Zone[48], bit_index_work_offset=3*, condition_work_offset=1*)
 10: 0x019B [0x02] IF !(ExtData[1]->WorkLocal[1] <= Work_Zone[51]) GOTO 0x01A6
 11: 0x01A3 [0x01] GOTO 0x023E
 12: 0x01A6 [0x03] ExtData[1]->WorkLocal[2] = ExtData[1]->WorkLocal[1]
 13: 0x01AB [0x14] ExtData[1]->WorkLocal[2] *= 4*
 14: 0x01B0 [0x9D] ExtData[1]->WorkLocal[2] = Work_Zone[5*][ExtData[1]->WorkLocal[3]] // Via remapped space
 15: 0x01B8 [0x0B] ExtData[1]->WorkLocal[2]++
 16: 0x01BB [0x9D] ExtData[1]->WorkLocal[2] = Work_Zone[5*][ExtData[1]->WorkLocal[4]] // Via remapped space
 17: 0x01C3 [0x0B] ExtData[1]->WorkLocal[2]++
 18: 0x01C6 [0x9D] ExtData[1]->WorkLocal[2] = Work_Zone[5*][ExtData[1]->WorkLocal[5]] // Via remapped space
 19: 0x01CE [0x0B] ExtData[1]->WorkLocal[2]++
 20: 0x01D1 [0x9D] ExtData[1]->WorkLocal[2] = Work_Zone[5*][ExtData[1]->WorkLocal[6]] // Via remapped space
 21: 0x01D9 [0x02] IF !(ExtData[1]->WorkLocal[11] == 0*) GOTO 0x01E4
 22: 0x01E1 [0x01] GOTO 0x01EE
 23: 0x01E4 [0x1F] MOVE_ENTITY: EventEntity moves to X=ExtData[1]->WorkLocal[3], Z=ExtData[1]->WorkLocal[5], Y=ExtData[1]->WorkLocal[4]
 24: 0x01EC [0x1F] MOVE_ENTITY: Update entity position (mode=1)

SUBROUTINE_01EE:
 25: 0x01EE [0x0B] ExtData[1]->WorkLocal[1]++
 26: 0x01F1 [0x01] GOTO 0x0184
 27: 0x01F4 [0x07] ExtData[1]->WorkLocal[11] += 1*
 28: 0x01F9 [0x40] SET_BIT_WORK_RANGE(start_bit=24*, end_bit=31*, target=Work_Zone[53], source=ExtData[1]->WorkLocal[11])
 29: 0x0202 [0x3C] SET_BIT_FLAG_CONDITIONAL(target_work_offset=Work_Zone[48], bit_index_work_offset=11*, condition_work_offset=1*)
 30: 0x0209 [0x03] ExtData[1]->WorkLocal[8] = ExtData[1]->WorkLocal[9]
 31: 0x020E [0x9D] ExtData[1]->WorkLocal[11] = Work_Zone[0*][ExtData[1]->WorkLocal[10]] // Via remapped space
 32: 0x0216 [0x07] ExtData[1]->WorkLocal[9] += ExtData[1]->WorkLocal[10]
 33: 0x021B [0x1A] CALL_SUBROUTINE(address=0x023F)
 34: 0x021E [0x02] IF !(ExtData[1]->WorkLocal[11] == 30*) GOTO 0x022B
 35: 0x0226 [0x03] ExtData[1]->WorkLocal[1] = ExtData[1]->WorkLocal[9]
 36: 0x022B [0x02] IF !(ExtData[1]->WorkLocal[11] == 31*) GOTO 0x023B
 37: 0x0233 [0x03] ExtData[1]->WorkLocal[1] = Work_Zone[49]
 38: 0x0238 [0x0C] ExtData[1]->WorkLocal[1]--
 39: 0x023B [0x01] GOTO 0x017C

SUBROUTINE_023E:
 40: 0x023E [0x00] END_REQSTACK()

SUBROUTINE_023F:
 41: 0x023F [0x03] ExtData[1]->WorkLocal[17] = ExtData[1]->WorkLocal[8]
 42: 0x0244 [0x03] ExtData[1]->WorkLocal[18] = ExtData[1]->WorkLocal[9]
 43: 0x0249 [0x02] IF !(ExtData[1]->WorkLocal[11] >= 32*) GOTO 0x027B
 44: 0x0251 [0xBF] CHOCOBO_RACING_PARAMETER_GETTER(param_type=0x40)
 45: 0x0253 [0x02] IF !(0x0B80 == 0x0200) GOTO 0x000F
 46: 0x025B [0x41] ExtData[1]->WorkLocal[13] = ExtData[1]->WorkLocal[15] (bits 12*-15*)
 47: 0x0264 [0x03] ExtData[1]->WorkLocal[12] = 8*
 48: 0x0269 [0x08] ExtData[1]->WorkLocal[12] -= ExtData[1]->WorkLocal[13]
 49: 0x026E [0x07] ExtData[1]->WorkLocal[8] += ExtData[1]->WorkLocal[12]
 50: 0x0273 [0x03] ExtData[1]->WorkLocal[13] = ExtData[1]->WorkLocal[12]
 51: 0x0278 [0x01] GOTO 0x0280
 52: 0x027B [0x03] ExtData[1]->WorkLocal[13] = 0*

SUBROUTINE_0280:
 53: 0x0280 [0x02] IF !(ExtData[1]->WorkLocal[11] >= 32*) GOTO 0x02B2
 54: 0x0288 [0xBF] CHOCOBO_RACING_PARAMETER_GETTER(param_type=0x40)
 55: 0x028A [0x02] IF !(0x0B80 == 0x0600) GOTO 0x0010
 56: 0x0292 [0x41] ExtData[1]->WorkLocal[14] = ExtData[1]->WorkLocal[16] (bits 12*-15*)
 57: 0x029B [0x03] ExtData[1]->WorkLocal[12] = 8*
 58: 0x02A0 [0x08] ExtData[1]->WorkLocal[12] -= ExtData[1]->WorkLocal[14]
 59: 0x02A5 [0x07] ExtData[1]->WorkLocal[9] += ExtData[1]->WorkLocal[12]
 60: 0x02AA [0x03] ExtData[1]->WorkLocal[14] = ExtData[1]->WorkLocal[12]
 61: 0x02AF [0x01] GOTO 0x02B7
 62: 0x02B2 [0x03] ExtData[1]->WorkLocal[14] = 0*

SUBROUTINE_02B7:
 63: 0x02B7 [0x08] ExtData[1]->WorkLocal[14] -= ExtData[1]->WorkLocal[13]
 64: 0x02BC [0x9D] ExtData[1]->WorkLocal[11] = Work_Zone[0*][ExtData[1]->WorkLocal[13]] // Via remapped space
 65: 0x02C4 [0x07] ExtData[1]->WorkLocal[14] += ExtData[1]->WorkLocal[13]
 66: 0x02C9 [0x9D] ExtData[1]->WorkLocal[11] = Work_Zone[0*][ExtData[1]->WorkLocal[12]] // Via remapped space
 67: 0x02D1 [0x14] ExtData[1]->WorkLocal[14] *= 1000*
 68: 0x02D6 [0x15] ExtData[1]->WorkLocal[14] /= ExtData[1]->WorkLocal[12]
 69: 0x02DB [0x03] ExtData[1]->WorkLocal[12] = ExtData[1]->WorkLocal[14]
 70: 0x02E0 [0x03] ExtData[1]->WorkLocal[13] = ExtData[1]->WorkLocal[11]
 71: 0x02E5 [0x14] ExtData[1]->WorkLocal[13] *= 8*
 72: 0x02EA [0x07] ExtData[1]->WorkLocal[13] += 3*
 73: 0x02EF [0x9D] ExtData[1]->WorkLocal[13] = Work_Zone[1*][ExtData[1]->WorkLocal[13]] // Via remapped space
 74: 0x02F7 [0x14] ExtData[1]->WorkLocal[12] *= ExtData[1]->WorkLocal[13]
 75: 0x02FC [0x03] ExtData[1]->WorkLocal[7] = ExtData[1]->WorkLocal[12]
 76: 0x0301 [0x15] ExtData[1]->WorkLocal[7] /= 1000*
 77: 0x0306 [0x02] IF !(ExtData[1]->WorkLocal[11] < 32*) GOTO 0x0313
 78: 0x030E [0x03] ExtData[1]->WorkLocal[7] = 40*
 79: 0x0313 [0x32] ExtData[1]->MainSpeed = ExtData[1]->WorkLocal[7] * 0.1
 80: 0x0316 [0x03] ExtData[1]->WorkLocal[8] = ExtData[1]->WorkLocal[17]
 81: 0x031B [0x03] ExtData[1]->WorkLocal[9] = ExtData[1]->WorkLocal[18]
 82: 0x0320 [0x1B] RETURN
```

### Event 65535.6

#### Metadata

| Field        | Value   |
|--------------|---------|
| Entrypoint   | 0x0321  |
| Data Size    | 3 bytes |
| Instructions | 2       |

```
      00 01 02 03 04 05 06 07  08 09 0A 0B 0C 0D 0E 0F
      -- -- -- -- -- -- -- --  -- -- -- -- -- -- -- --
0320:    61 00 00                                        a..            
```

#### Opcodes

```
  0: 0x0321 [0x61] EventEntity->Render.Flags2 &= ~0x00000001
  1: 0x0323 [0x00] END_REQSTACK()
```

### Event 65535.7

#### Metadata

| Field        | Value   |
|--------------|---------|
| Entrypoint   | 0x0324  |
| Data Size    | 3 bytes |
| Instructions | 2       |

```
      00 01 02 03 04 05 06 07  08 09 0A 0B 0C 0D 0E 0F
      -- -- -- -- -- -- -- --  -- -- -- -- -- -- -- --
0320:             61 01 00                                  a..         
```

#### Opcodes

```
  0: 0x0324 [0x61] EventEntity->Render.Flags2 |= 0x00000001
  1: 0x0326 [0x00] END_REQSTACK()
```
