# 17063979

## Common Data

| Field            | Value                    |
|------------------|--------------------------|
| Zone             | Chocobo Circuit (ID: 70) |
| Block Size       | 14880 bytes              |
| Total Events     | 7                        |
| References Count | 1709                     |

## List of Events

| Event ID                 | Entrypoint   |   Size |   Instructions |
|--------------------------|--------------|--------|----------------|
| [65535](#event-65535)    | 0x0000       |      1 |              1 |
| [479](#event-479)        | 0x0001       |      1 |              1 |
| [488](#event-488)        | 0x0002       |      1 |              1 |
| [497](#event-497)        | 0x0003       |      1 |              1 |
| [65535.1](#event-655351) | 0x0004       |      1 |              1 |
| [65535.2](#event-655352) | 0x0005       |   7993 |              6 |
| [65535.3](#event-655353) | 0x1F3E       |      1 |              1 |

## DAT References (imed_data)

|   Index | Hex Value   |   Dec Value |
|---------|-------------|-------------|
|       0 | 0x0000      |           0 |
|       1 | 0x0001      |           1 |
|       2 | 0x0002      |           2 |
|       3 | 0x0009      |           9 |
|       4 | 0x5A779     |      370553 |
|       5 | 0x2DF5      |       11765 |
|       6 | 0x043F      |        1087 |
|       7 | 0x03E8      |        1000 |
|       8 | 0x59EA2     |      368290 |
|       9 | 0x04A9      |        1193 |
|      10 | 0x59505     |      365829 |
|      11 | 0x04E6      |        1254 |
|      12 | 0x58B8A     |      363402 |
|      13 | 0x04E1      |        1249 |
|      14 | 0x58253     |      361043 |
|      15 | 0x0494      |        1172 |
|      16 | 0x578E8     |      358632 |
|      17 | 0x0541      |        1345 |
|      18 | 0x56FB0     |      356272 |
|      19 | 0x0527      |        1319 |
|      20 | 0x56697     |      353943 |
|      21 | 0x04FE      |        1278 |
|      22 | 0x55D18     |      351512 |
|      23 | 0x0484      |        1156 |
|      24 | 0x553EF     |      349167 |
|      25 | 0x54AB2     |      346802 |
|      26 | 0x0493      |        1171 |
|      27 | 0x53FC9     |      344009 |
|      28 | 0x05E3      |        1507 |
|      29 | 0x5369C     |      341660 |
|      30 | 0x05F7      |        1527 |
|      31 | 0x52C13     |      338963 |
|      32 | 0x06E2      |        1762 |
|      33 | 0x52116     |      336150 |
|      34 | 0x066C      |        1644 |
|      35 | 0x5168E     |      333454 |
|      36 | 0x50C05     |      330757 |
|      37 | 0x502DD     |      328413 |
|      38 | 0x4FA2A     |      326186 |
|      39 | 0x4EF2C     |      323372 |
|      40 | 0x4E519     |      320793 |
|      41 | 0x4DBF1     |      318449 |
|      42 | 0x4D2C8     |      316104 |
|      43 | 0x4C8B5     |      313525 |
|      44 | 0x4BF8C     |      311180 |
|      45 | 0x4B579     |      308601 |
|      46 | 0x0582      |        1410 |
|      47 | 0x4AAF1     |      305905 |
|      48 | 0x0422      |        1058 |
|      49 | 0x4A153     |      303443 |
|      50 | 0x01D8      |         472 |
|      51 | 0x49740     |      300864 |
|      52 | 0xFFFFFF8E  |  4294967182 |
|      53 | 0x48E18     |      298520 |
|      54 | 0xFFFFFD44  |  4294966596 |
|      55 | 0x48565     |      296293 |
|      56 | 0xFFFFFA84  |  4294965892 |
|      57 | 0x47BC7     |      293831 |
|      58 | 0xFFFFF750  |  4294965072 |
|      59 | 0x4729E     |      291486 |
|      60 | 0xFFFFF41B  |  4294964251 |
|      61 | 0x469EB     |      289259 |
|      62 | 0xFFFFF0E7  |  4294963431 |
|      63 | 0x460C2     |      286914 |
|      64 | 0xFFFFEC52  |  4294962258 |
|      65 | 0x45884     |      284804 |
|      66 | 0xFFFFE8A9  |  4294961321 |
|      67 | 0x44EE6     |      282342 |
|      68 | 0xFFFFE414  |  4294960148 |
|      69 | 0x44633     |      280115 |
|      70 | 0xFFFFDE96  |  4294958742 |
|      71 | 0x43D80     |      277888 |
|      72 | 0xFFFFD917  |  4294957335 |
|      73 | 0x43542     |      275778 |
|      74 | 0xFFFFD398  |  4294955928 |
|      75 | 0x42AB9     |      273081 |
|      76 | 0xFFFFD14E  |  4294955342 |
|      77 | 0x42206     |      270854 |
|      78 | 0xFFFFCF04  |  4294954756 |
|      79 | 0x417F3     |      268275 |
|      80 | 0xFFFFCD2F  |  4294954287 |
|      81 | 0x40DE0     |      265696 |
|      82 | 0xFFFFCBCF  |  4294953935 |
|      83 | 0x404B8     |      263352 |
|      84 | 0xFFFFC910  |  4294953232 |
|      85 | 0x3FC04     |      261124 |
|      86 | 0xFFFFC7B0  |  4294952880 |
|      87 | 0x3F2DC     |      258780 |
|      88 | 0xFFFFC651  |  4294952529 |
|      89 | 0x3E853     |      256083 |
|      90 | 0xFFFFC4F1  |  4294952177 |
|      91 | 0x3DDCB     |      253387 |
|      92 | 0xFFFFC406  |  4294951942 |
|      93 | 0x3D3B8     |      250808 |
|      94 | 0xFFFFC31C  |  4294951708 |
|      95 | 0x3CB7A     |      248698 |
|      96 | 0xFFFFC232  |  4294951474 |
|      97 | 0x3C252     |      246354 |
|      98 | 0xFFFFC147  |  4294951239 |
|      99 | 0x3BA89     |      244361 |
|     100 | 0xFFFFBFE7  |  4294950887 |
|     101 | 0x3B076     |      241782 |
|     102 | 0xFFFFBD9D  |  4294950301 |
|     103 | 0x3A922     |      239906 |
|     104 | 0xFFFFBD28  |  4294950184 |
|     105 | 0x39FFA     |      237562 |
|     106 | 0xFFFFBB53  |  4294949715 |
|     107 | 0x39746     |      235334 |
|     108 | 0xFFFFB9F3  |  4294949363 |
|     109 | 0x38F08     |      233224 |
|     110 | 0xFFFFB81E  |  4294948894 |
|     111 | 0x385E0     |      230880 |
|     112 | 0xFFFFB7A9  |  4294948777 |
|     113 | 0x37C42     |      228418 |
|     114 | 0xFFFFB734  |  4294948660 |
|     115 | 0x37319     |      226073 |
|     116 | 0x36891     |      223377 |
|     117 | 0x35E7E     |      220798 |
|     118 | 0xFFFFB894  |  4294949012 |
|     119 | 0x354E0     |      218336 |
|     120 | 0xFFFFB909  |  4294949129 |
|     121 | 0x34BB8     |      215992 |
|     122 | 0xFFFFB97E  |  4294949246 |
|     123 | 0x3428F     |      213647 |
|     124 | 0x338F1     |      211185 |
|     125 | 0x3303E     |      208958 |
|     126 | 0xFFFFBBC8  |  4294949832 |
|     127 | 0x3278B     |      206731 |
|     128 | 0x31ED7     |      204503 |
|     129 | 0xFFFFBE88  |  4294950536 |
|     130 | 0x317F9     |      202745 |
|     131 | 0xFFFFBEFD  |  4294950653 |
|     132 | 0x310A5     |      200869 |
|     133 | 0xFFFFC05D  |  4294951005 |
|     134 | 0x305E7     |      198119 |
|     135 | 0xFFFFC1A4  |  4294951332 |
|     136 | 0x2FC85     |      195717 |
|     137 | 0xFFFFC597  |  4294952343 |
|     138 | 0x2F51C     |      193820 |
|     139 | 0xFFFFCB06  |  4294953734 |
|     140 | 0x2ECB7     |      191671 |
|     141 | 0xFFFFCF78  |  4294954872 |
|     142 | 0x2E64C     |      190028 |
|     143 | 0xFFFFD6E0  |  4294956768 |
|     144 | 0x2DFE0     |      188384 |
|     145 | 0xFFFFDE49  |  4294958665 |
|     146 | 0x2DA71     |      186993 |
|     147 | 0xFFFFE5B1  |  4294960561 |
|     148 | 0x2D581     |      185729 |
|     149 | 0xFFFFEC1D  |  4294962205 |
|     150 | 0x2D10F     |      184591 |
|     151 | 0xFFFFF404  |  4294964228 |
|     152 | 0x2CF16     |      184086 |
|     153 | 0xFFFFFEE1  |  4294967009 |
|     154 | 0x2CE19     |      183833 |
|     155 | 0x08C1      |        2241 |
|     156 | 0x2CBA1     |      183201 |
|     157 | 0x11A5      |        4517 |
|     158 | 0x2CB22     |      183074 |
|     159 | 0x1D01      |        7425 |
|     160 | 0x2760      |       10080 |
|     161 | 0x32BC      |       12988 |
|     162 | 0x3D99      |       15769 |
|     163 | 0x2CAA4     |      182948 |
|     164 | 0x467D      |       18045 |
|     165 | 0x2CA25     |      182821 |
|     166 | 0x505D      |       20573 |
|     167 | 0x5ABC      |       23228 |
|     168 | 0x659A      |       26010 |
|     169 | 0x6F7A      |       28538 |
|     170 | 0x2C9A7     |      182695 |
|     171 | 0x79D9      |       31193 |
|     172 | 0x2C72F     |      182063 |
|     173 | 0x83BA      |       33722 |
|     174 | 0x2C6B0     |      181936 |
|     175 | 0x8F16      |       36630 |
|     176 | 0x2C632     |      181810 |
|     177 | 0x9974      |       39284 |
|     178 | 0x2C5B4     |      181684 |
|     179 | 0xA2D7      |       41687 |
|     180 | 0x2C535     |      181557 |
|     181 | 0xAC39      |       44089 |
|     182 | 0x2C1C0     |      180672 |
|     183 | 0xB51C      |       46364 |
|     184 | 0x2BB55     |      179029 |
|     185 | 0xBE00      |       48640 |
|     186 | 0x2B3EC     |      177132 |
|     187 | 0xC568      |       50536 |
|     188 | 0x2AC84     |      175236 |
|     189 | 0xCAD7      |       51927 |
|     190 | 0x2A3A0     |      172960 |
|     191 | 0xD0C4      |       53444 |
|     192 | 0x29ABC     |      170684 |
|     193 | 0xD536      |       54582 |
|     194 | 0x291D9     |      168409 |
|     195 | 0xD8AB      |       55467 |
|     196 | 0x28877     |      166007 |
|     197 | 0xDD1D      |       56605 |
|     198 | 0x27F93     |      163731 |
|     199 | 0xE092      |       57490 |
|     200 | 0x276AF     |      161455 |
|     201 | 0xE18F      |       57743 |
|     202 | 0x26CCF     |      158927 |
|     203 | 0xE28C      |       57996 |
|     204 | 0x2636D     |      156525 |
|     205 | 0xE601      |       58881 |
|     206 | 0x25B07     |      154375 |
|     207 | 0xE8F7      |       59639 |
|     208 | 0x25224     |      152100 |
|     209 | 0xECEB      |       60651 |
|     210 | 0x24C37     |      150583 |
|     211 | 0xF356      |       62294 |
|     212 | 0x2454D     |      148813 |
|     213 | 0xFABF      |       64191 |
|     214 | 0x23F60     |      147296 |
|     215 | 0x103A2     |       66466 |
|     216 | 0x23972     |      145778 |
|     217 | 0x10C07     |       68615 |
|     218 | 0x23404     |      144388 |
|     219 | 0x112F1     |       70385 |
|     220 | 0x22F92     |      143250 |
|     221 | 0x11BD5     |       72661 |
|     222 | 0x22B9F     |      142239 |
|     223 | 0x12537     |       75063 |
|     224 | 0x227AB     |      141227 |
|     225 | 0x12E99     |       77465 |
|     226 | 0x22533     |      140595 |
|     227 | 0x1387A     |       79994 |
|     228 | 0x2223C     |      139836 |
|     229 | 0x1415E     |       82270 |
|     230 | 0x221BE     |      139710 |
|     231 | 0x14AC0     |       84672 |
|     232 | 0x1551F     |       87327 |
|     233 | 0x22339     |      140089 |
|     234 | 0x15FFC     |       90108 |
|     235 | 0x222BB     |      139963 |
|     236 | 0x1695E     |       92510 |
|     237 | 0x172C0     |       94912 |
|     238 | 0x22043     |      139331 |
|     239 | 0x17CA1     |       97441 |
|     240 | 0x21EC7     |      138951 |
|     241 | 0x18603     |       99843 |
|     242 | 0x21E2A     |      138794 |
|     243 | 0x1913C     |      102716 |
|     244 | 0x19B9F     |      105375 |
|     245 | 0x21EBD     |      138941 |
|     246 | 0x1A602     |      108034 |
|     247 | 0x2210C     |      139532 |
|     248 | 0x1AFD1     |      110545 |
|     249 | 0x1BA34     |      113204 |
|     250 | 0x22078     |      139384 |
|     251 | 0x1C2DB     |      115419 |
|     252 | 0x1CD3E     |      118078 |
|     253 | 0x21D96     |      138646 |
|     254 | 0x1D4BF     |      119999 |
|     255 | 0x21AB3     |      137907 |
|     256 | 0x1DCD3     |      122067 |
|     257 | 0x21865     |      137317 |
|     258 | 0x1E60E     |      124430 |
|     259 | 0x21582     |      136578 |
|     260 | 0x1EF49     |      126793 |
|     261 | 0x21051     |      135249 |
|     262 | 0x1F7F1     |      129009 |
|     263 | 0x20D6E     |      134510 |
|     264 | 0x20005     |      131077 |
|     265 | 0x2055A     |      132442 |
|     266 | 0x206F2     |      132850 |
|     267 | 0x1FF95     |      130965 |
|     268 | 0x20DDE     |      134622 |
|     269 | 0x1F815     |      129045 |
|     270 | 0x21437     |      136247 |
|     271 | 0x1F094     |      127124 |
|     272 | 0x219FC     |      137724 |
|     273 | 0x1E880     |      125056 |
|     274 | 0x21E9A     |      138906 |
|     275 | 0x1E100     |      123136 |
|     276 | 0x2245F     |      140383 |
|     277 | 0x1D858     |      120920 |
|     278 | 0x227D5     |      141269 |
|     279 | 0x1CF1D     |      118557 |
|     280 | 0x22B4C     |      142156 |
|     281 | 0x1C5E1     |      116193 |
|     282 | 0x22D9A     |      142746 |
|     283 | 0x1BD3A     |      113978 |
|     284 | 0x22F56     |      143190 |
|     285 | 0x1B36B     |      111467 |
|     286 | 0x23111     |      143633 |
|     287 | 0x1AB57     |      109399 |
|     288 | 0x231A4     |      143780 |
|     289 | 0x1A188     |      106888 |
|     290 | 0x1984C     |      104524 |
|     291 | 0x23238     |      143928 |
|     292 | 0x18F11     |      102161 |
|     293 | 0x18669     |       99945 |
|     294 | 0x17A4B     |       96843 |
|     295 | 0x16EC1     |       93889 |
|     296 | 0x1645E     |       91230 |
|     297 | 0x158D4     |       88276 |
|     298 | 0x22EC2     |      143042 |
|     299 | 0x14F05     |       85765 |
|     300 | 0x22D07     |      142599 |
|     301 | 0x144A2     |       83106 |
|     302 | 0x13917     |       80151 |
|     303 | 0x12CF9     |       77049 |
|     304 | 0x12203     |       74243 |
|     305 | 0x23487     |      144519 |
|     306 | 0x118C7     |       71879 |
|     307 | 0x23925     |      145701 |
|     308 | 0x11020     |       69664 |
|     309 | 0x23E56     |      147030 |
|     310 | 0x107C0     |       67520 |
|     311 | 0x24330     |      148272 |
|     312 | 0x101E9     |       66025 |
|     313 | 0x24A60     |      150112 |
|     314 | 0xFF37      |       65335 |
|     315 | 0x25202     |      152066 |
|     316 | 0xFA47      |       64071 |
|     317 | 0x25A18     |      154136 |
|     318 | 0xF808      |       63496 |
|     319 | 0x261BA     |      156090 |
|     320 | 0xF63C      |       63036 |
|     321 | 0x26CF4     |      158964 |
|     322 | 0xF5C9      |       62921 |
|     323 | 0x2757D     |      161149 |
|     324 | 0xF556      |       62806 |
|     325 | 0x27F5E     |      163678 |
|     326 | 0xF4E3      |       62691 |
|     327 | 0x28A99     |      166553 |
|     328 | 0x29407     |      168967 |
|     329 | 0x29C90     |      171152 |
|     330 | 0xF722      |       63266 |
|     331 | 0x2A7CA     |      174026 |
|     332 | 0xF9D4      |       63956 |
|     333 | 0x2B138     |      176440 |
|     334 | 0xFABA      |       64186 |
|     335 | 0x2BB8D     |      179085 |
|     336 | 0x2C6C7     |      181959 |
|     337 | 0x2D11B     |      184603 |
|     338 | 0x2D931     |      186673 |
|     339 | 0x2E22C     |      188972 |
|     340 | 0xF87B      |       63611 |
|     341 | 0x2EAB5     |      191157 |
|     342 | 0xF795      |       63381 |
|     343 | 0x2F423     |      193571 |
|     344 | 0x2FE77     |      196215 |
|     345 | 0x308CC     |      198860 |
|     346 | 0x311C7     |      201159 |
|     347 | 0x31BA9     |      203689 |
|     348 | 0x32517     |      206103 |
|     349 | 0x32F6B     |      208747 |
|     350 | 0x337F4     |      210932 |
|     351 | 0x340EF     |      213231 |
|     352 | 0xF470      |       62576 |
|     353 | 0x34905     |      215301 |
|     354 | 0xF2A4      |       62116 |
|     355 | 0x3511A     |      217370 |
|     356 | 0xF14B      |       61771 |
|     357 | 0x35AFC     |      219900 |
|     358 | 0xEF7F      |       61311 |
|     359 | 0x3646A     |      222314 |
|     360 | 0xED40      |       60736 |
|     361 | 0x36D65     |      224613 |
|     362 | 0xEBE7      |       60391 |
|     363 | 0x37508     |      226568 |
|     364 | 0xEA8F      |       60047 |
|     365 | 0x37E76     |      228982 |
|     366 | 0x38858     |      231512 |
|     367 | 0xEC5A      |       60506 |
|     368 | 0x3906D     |      233581 |
|     369 | 0xEF0C      |       61196 |
|     370 | 0x398F6     |      235766 |
|     371 | 0xF065      |       61541 |
|     372 | 0x3A34A     |      238410 |
|     373 | 0xF3FD      |       62461 |
|     374 | 0x3AC46     |      240710 |
|     375 | 0xF6AF      |       63151 |
|     376 | 0x3B627     |      243239 |
|     377 | 0x3C008     |      245768 |
|     378 | 0xFD6B      |       64875 |
|     379 | 0x3CAD0     |      248528 |
|     380 | 0x3D3CB     |      250827 |
|     381 | 0x10103     |       65795 |
|     382 | 0x3DDAC     |      253356 |
|     383 | 0x3E801     |      256001 |
|     384 | 0x10176     |       65910 |
|     385 | 0x3F16F     |      258415 |
|     386 | 0x10090     |       65680 |
|     387 | 0x3FADE     |      260830 |
|     388 | 0xFC85      |       64645 |
|     389 | 0x403D9     |      263129 |
|     390 | 0xF961      |       63841 |
|     391 | 0x40C62     |      265314 |
|     392 | 0x41404     |      267268 |
|     393 | 0xF38A      |       62346 |
|     394 | 0x41C8D     |      269453 |
|     395 | 0xF231      |       62001 |
|     396 | 0x42919     |      272665 |
|     397 | 0xF090      |       61584 |
|     398 | 0x436B6     |      276150 |
|     399 | 0xF0AE      |       61614 |
|     400 | 0x44465     |      279653 |
|     401 | 0xF03B      |       61499 |
|     402 | 0x45459     |      283737 |
|     403 | 0xF01D      |       61469 |
|     404 | 0x46134     |      287028 |
|     405 | 0xEF8B      |       61323 |
|     406 | 0x4708B     |      290955 |
|     407 | 0x47F50     |      294736 |
|     408 | 0xF1E8      |       61928 |
|     409 | 0x48D59     |      298329 |
|     410 | 0x49B33     |      301875 |
|     411 | 0xF526      |       62758 |
|     412 | 0x4A5F3     |      304627 |
|     413 | 0xF6AD      |       63149 |
|     414 | 0x4B0A5     |      307365 |
|     415 | 0xF7B2      |       63410 |
|     416 | 0x4BA51     |      309841 |
|     417 | 0xF96A      |       63850 |
|     418 | 0x2DFD      |       11773 |
|     419 | 0x4C4B4     |      312500 |
|     420 | 0xFC6D      |       64621 |
|     421 | 0x4DB4E     |      318286 |
|     422 | 0x1005A     |       65626 |
|     423 | 0x4ECB9     |      322745 |
|     424 | 0x102E5     |       66277 |
|     425 | 0x4F76A     |      325482 |
|     426 | 0x107FD     |       67581 |
|     427 | 0x50094     |      327828 |
|     428 | 0x1122C     |       70188 |
|     429 | 0x511E4     |      332260 |
|     430 | 0x1194C     |       72012 |
|     431 | 0x51A09     |      334345 |
|     432 | 0x1206D     |       73837 |
|     433 | 0x51FA3     |      335779 |
|     434 | 0x132C1     |       78529 |
|     435 | 0x52746     |      337734 |
|     436 | 0x13FB6     |       81846 |
|     437 | 0x52CB9     |      339129 |
|     438 | 0x14E40     |       85568 |
|     439 | 0x53400     |      340992 |
|     440 | 0x15F8F     |       89999 |
|     441 | 0x53EB2     |      343730 |
|     442 | 0x16E53     |       93779 |
|     443 | 0x547DC     |      346076 |
|     444 | 0x17B14     |       97044 |
|     445 | 0x2DF7      |       11767 |
|     446 | 0x554E0     |      349408 |
|     447 | 0x1812A     |       98602 |
|     448 | 0x55C39     |      351289 |
|     449 | 0x18641     |       99905 |
|     450 | 0x562D8     |      352984 |
|     451 | 0x1894F     |      100687 |
|     452 | 0x56C02     |      355330 |
|     453 | 0x18C5D     |      101469 |
|     454 | 0x57631     |      357937 |
|     455 | 0x18EE9     |      102121 |
|     456 | 0x57F5B     |      360283 |
|     457 | 0x190F2     |      102642 |
|     458 | 0x58885     |      362629 |
|     459 | 0x1937E     |      103294 |
|     460 | 0x5940C     |      365580 |
|     461 | 0x19712     |      104210 |
|     462 | 0x59CB0     |      367792 |
|     463 | 0x19D2B     |      105771 |
|     464 | 0x5A2FF     |      369407 |
|     465 | 0x1A44B     |      107595 |
|     466 | 0x5A99D     |      371101 |
|     467 | 0x1AA67     |      109159 |
|     468 | 0x5AF37     |      372535 |
|     469 | 0x1B20B     |      111115 |
|     470 | 0x5B4D0     |      373968 |
|     471 | 0x1BC39     |      113721 |
|     472 | 0x5B8E3     |      375011 |
|     473 | 0x1C3DC     |      115676 |
|     474 | 0x5BDFB     |      376315 |
|     475 | 0x1CB80     |      117632 |
|     476 | 0x5C086     |      376966 |
|     477 | 0x1D631     |      120369 |
|     478 | 0x5C109     |      377097 |
|     479 | 0x1DFDD     |      122845 |
|     480 | 0x5C394     |      377748 |
|     481 | 0x1E907     |      125191 |
|     482 | 0x5C59E     |      378270 |
|     483 | 0x1F231     |      127537 |
|     484 | 0x5C620     |      378400 |
|     485 | 0x1FC60     |      130144 |
|     486 | 0x20486     |      132230 |
|     487 | 0x5C499     |      378009 |
|     488 | 0x20E32     |      134706 |
|     489 | 0x5C290     |      377488 |
|     490 | 0x2175C     |      137052 |
|     491 | 0x22086     |      139398 |
|     492 | 0x5BD78     |      376184 |
|     493 | 0x227A7     |      141223 |
|     494 | 0x5BBF1     |      375793 |
|     495 | 0x230D1     |      143569 |
|     496 | 0x23B00     |      146176 |
|     497 | 0x5B75C     |      374620 |
|     498 | 0x243A8     |      148392 |
|     499 | 0x5B7DF     |      374751 |
|     500 | 0x24CD2     |      150738 |
|     501 | 0x5BAED     |      375533 |
|     502 | 0x2557A     |      152954 |
|     503 | 0x5C004     |      376836 |
|     504 | 0x25F26     |      155430 |
|     505 | 0x2674C     |      157516 |
|     506 | 0x5C6A2     |      378530 |
|     507 | 0x26FF3     |      159731 |
|     508 | 0x2791E     |      162078 |
|     509 | 0x5C51B     |      378139 |
|     510 | 0x28248     |      164424 |
|     511 | 0x28D7B     |      167291 |
|     512 | 0x5C20D     |      377357 |
|     513 | 0x29728     |      169768 |
|     514 | 0x29ECB     |      171723 |
|     515 | 0x5C312     |      377618 |
|     516 | 0x2A773     |      173939 |
|     517 | 0x2B01A     |      176154 |
|     518 | 0x5CAB5     |      379573 |
|     519 | 0x2BA49     |      178761 |
|     520 | 0x5CEC8     |      380616 |
|     521 | 0x2C3F6     |      181238 |
|     522 | 0x5D154     |      381268 |
|     523 | 0x2CC1B     |      183323 |
|     524 | 0x5D35D     |      381789 |
|     525 | 0x2D6CC     |      186060 |
|     526 | 0x5D2DB     |      381659 |
|     527 | 0x2DDED     |      187885 |
|     528 | 0x5D04F     |      381007 |
|     529 | 0x2E695     |      190101 |
|     530 | 0x5CDC3     |      380355 |
|     531 | 0x2EFBF     |      192447 |
|     532 | 0x5CA33     |      379443 |
|     533 | 0x2F8E9     |      194793 |
|     534 | 0x5C725     |      378661 |
|     535 | 0x3010E     |      196878 |
|     536 | 0x30ABB     |      199355 |
|     537 | 0x31363     |      201571 |
|     538 | 0x31C8D     |      203917 |
|     539 | 0x32535     |      206133 |
|     540 | 0x32CD8     |      208088 |
|     541 | 0x3347B     |      210043 |
|     542 | 0x5B2C7     |      373447 |
|     543 | 0x33CD7     |      212183 |
|     544 | 0x5AB78     |      371576 |
|     545 | 0x34287     |      213639 |
|     546 | 0x5A382     |      369538 |
|     547 | 0x34837     |      215095 |
|     548 | 0x59AFA     |      367354 |
|     549 | 0x34C32     |      216114 |
|     550 | 0x59273     |      365171 |
|     551 | 0x34DE7     |      216551 |
|     552 | 0x58836     |      362550 |
|     553 | 0x57E8C     |      360076 |
|     554 | 0x34F9B     |      216987 |
|     555 | 0x573BE     |      357310 |
|     556 | 0x35396     |      218006 |
|     557 | 0x56A13     |      354835 |
|     558 | 0x3566E     |      218734 |
|     559 | 0x55F45     |      352069 |
|     560 | 0x35AFB     |      219899 |
|     561 | 0x55508     |      349448 |
|     562 | 0x35EF6     |      220918 |
|     563 | 0x54BEF     |      347119 |
|     564 | 0x365C9     |      222665 |
|     565 | 0x5448B     |      345227 |
|     566 | 0x36F74     |      225140 |
|     567 | 0x53EDB     |      343771 |
|     568 | 0x3791E     |      227614 |
|     569 | 0x53A4E     |      342606 |
|     570 | 0x38238     |      229944 |
|     571 | 0x5340D     |      341005 |
|     572 | 0x38BE2     |      232418 |
|     573 | 0x53012     |      339986 |
|     574 | 0x3946A     |      234602 |
|     575 | 0x52C17     |      338967 |
|     576 | 0x39E15     |      237077 |
|     577 | 0x5293F     |      338239 |
|     578 | 0x3A8E3     |      239843 |
|     579 | 0x526F9     |      337657 |
|     580 | 0x3B33A     |      242490 |
|     581 | 0x523E1     |      336865 |
|     582 | 0x3BCBA     |      244922 |
|     583 | 0x3C6F5     |      247541 |
|     584 | 0x3D1EC     |      250348 |
|     585 | 0x3DC27     |      252967 |
|     586 | 0x52557     |      337239 |
|     587 | 0x3E5A7     |      255399 |
|     588 | 0x52612     |      337426 |
|     589 | 0x3EE6D     |      257645 |
|     590 | 0x3F7ED     |      260077 |
|     591 | 0x526CD     |      337613 |
|     592 | 0x40228     |      262696 |
|     593 | 0x40BA8     |      265128 |
|     594 | 0x52788     |      337800 |
|     595 | 0x415E4     |      267748 |
|     596 | 0x41F64     |      270180 |
|     597 | 0x528FE     |      338174 |
|     598 | 0x4299F     |      272799 |
|     599 | 0x52B2F     |      338735 |
|     600 | 0x433DB     |      275419 |
|     601 | 0x52CA6     |      339110 |
|     602 | 0x43E16     |      278038 |
|     603 | 0x52F92     |      339858 |
|     604 | 0x44796     |      280470 |
|     605 | 0x5327E     |      340606 |
|     606 | 0x45117     |      282903 |
|     607 | 0x533F5     |      340981 |
|     608 | 0x45A97     |      285335 |
|     609 | 0x53626     |      341542 |
|     610 | 0x462A1     |      287393 |
|     611 | 0x53857     |      342103 |
|     612 | 0x46CDC     |      290012 |
|     613 | 0x53CBA     |      343226 |
|     614 | 0x475A1     |      292257 |
|     615 | 0x54061     |      344161 |
|     616 | 0x47C35     |      293941 |
|     617 | 0x5463A     |      345658 |
|     618 | 0x48384     |      295812 |
|     619 | 0x54CCE     |      347342 |
|     620 | 0x4895D     |      297309 |
|     621 | 0x554D8     |      349400 |
|     622 | 0x48E7B     |      298619 |
|     623 | 0x55D9D     |      351645 |
|     624 | 0x4950F     |      300303 |
|     625 | 0x565A7     |      353703 |
|     626 | 0x49A2C     |      301612 |
|     627 | 0x56F27     |      356135 |
|     628 | 0x49BA2     |      301986 |
|     629 | 0x57AD9     |      359129 |
|     630 | 0x49D19     |      302361 |
|     631 | 0x58514     |      361748 |
|     632 | 0x4A17B     |      303483 |
|     633 | 0x5900B     |      364555 |
|     634 | 0x4A5DE     |      304606 |
|     635 | 0x5998B     |      366987 |
|     636 | 0x4ABB7     |      306103 |
|     637 | 0x5A195     |      369045 |
|     638 | 0x4B24A     |      307786 |
|     639 | 0x5A8E4     |      370916 |
|     640 | 0x4B999     |      309657 |
|     641 | 0x5AF78     |      372600 |
|     642 | 0x4C02D     |      311341 |
|     643 | 0x5B6C7     |      374471 |
|     644 | 0x4C77C     |      313212 |
|     645 | 0x5BBE5     |      375781 |
|     646 | 0x4D0FD     |      315645 |
|     647 | 0x5BE16     |      376342 |
|     648 | 0x4DA7D     |      318077 |
|     649 | 0x5C1BD     |      377277 |
|     650 | 0x4E4B8     |      320696 |
|     651 | 0x5C3EF     |      377839 |
|     652 | 0x4EEF3     |      323315 |
|     653 | 0x5C6DB     |      378587 |
|     654 | 0x4F7B9     |      325561 |
|     655 | 0x5C90C     |      379148 |
|     656 | 0x50139     |      327993 |
|     657 | 0x5CEE5     |      380645 |
|     658 | 0x509FE     |      330238 |
|     659 | 0x5D116     |      381206 |
|     660 | 0x5137E     |      332670 |
|     661 | 0x5D579     |      382329 |
|     662 | 0x51A12     |      334354 |
|     663 | 0x5DB52     |      383826 |
|     664 | 0x522D7     |      336599 |
|     665 | 0x5DFB4     |      384948 |
|     666 | 0x52AE1     |      338657 |
|     667 | 0x5E935     |      387381 |
|     668 | 0x52FFF     |      339967 |
|     669 | 0x5F1FA     |      389626 |
|     670 | 0x535D8     |      341464 |
|     671 | 0x5FCF0     |      392432 |
|     672 | 0x5397F     |      342399 |
|     673 | 0x607E7     |      395239 |
|     674 | 0x53BB1     |      342961 |
|     675 | 0x61222     |      397858 |
|     676 | 0x61E8F     |      401039 |
|     677 | 0x53F58     |      343896 |
|     678 | 0x628CA     |      403658 |
|     679 | 0x54245     |      344645 |
|     680 | 0x63305     |      406277 |
|     681 | 0x54531     |      345393 |
|     682 | 0x63BCB     |      408523 |
|     683 | 0x54BC5     |      347077 |
|     684 | 0x6454B     |      410955 |
|     685 | 0x5519E     |      348574 |
|     686 | 0x64E10     |      413200 |
|     687 | 0x559A8     |      350632 |
|     688 | 0x654A4     |      414884 |
|     689 | 0x5626D     |      352877 |
|     690 | 0x659C2     |      416194 |
|     691 | 0x56BED     |      355309 |
|     692 | 0x65D69     |      417129 |
|     693 | 0x5756D     |      357741 |
|     694 | 0x57EEE     |      360174 |
|     695 | 0x65EDF     |      417503 |
|     696 | 0x58929     |      362793 |
|     697 | 0x65F9A     |      417690 |
|     698 | 0x59364     |      365412 |
|     699 | 0x59CE5     |      367845 |
|     700 | 0x66055     |      417877 |
|     701 | 0x5A665     |      370277 |
|     702 | 0x5AF2A     |      372522 |
|     703 | 0x66110     |      418064 |
|     704 | 0x5BA20     |      375328 |
|     705 | 0x5C2E6     |      377574 |
|     706 | 0x661CC     |      418252 |
|     707 | 0x5CC66     |      380006 |
|     708 | 0x66342     |      418626 |
|     709 | 0x5D52B     |      382251 |
|     710 | 0x5E021     |      385057 |
|     711 | 0x663FD     |      418813 |
|     712 | 0x5E82B     |      387115 |
|     713 | 0x5F1AC     |      389548 |
|     714 | 0x5FB2C     |      391980 |
|     715 | 0x664B8     |      419000 |
|     716 | 0x604AC     |      394412 |
|     717 | 0x66573     |      419187 |
|     718 | 0x60E2D     |      396845 |
|     719 | 0x617AD     |      399277 |
|     720 | 0x6662E     |      419374 |
|     721 | 0x6212D     |      401709 |
|     722 | 0x666E9     |      419561 |
|     723 | 0x629F2     |      403954 |
|     724 | 0x6342E     |      406574 |
|     725 | 0x63DAE     |      409006 |
|     726 | 0x6685F     |      419935 |
|     727 | 0x645B8     |      411064 |
|     728 | 0x64F38     |      413496 |
|     729 | 0x657FD     |      415741 |
|     730 | 0x66007     |      417799 |
|     731 | 0x6691B     |      420123 |
|     732 | 0x668CC     |      420044 |
|     733 | 0x6724D     |      422477 |
|     734 | 0x67BCD     |      424909 |
|     735 | 0x6854D     |      427341 |
|     736 | 0x68F89     |      429961 |
|     737 | 0x699C4     |      432580 |
|     738 | 0x6A3FF     |      435199 |
|     739 | 0x6AE3B     |      437819 |
|     740 | 0x6B7BB     |      440251 |
|     741 | 0x669D6     |      420310 |
|     742 | 0x6C2B1     |      443057 |
|     743 | 0x66A91     |      420497 |
|     744 | 0x6CC32     |      445490 |
|     745 | 0x66B4C     |      420684 |
|     746 | 0x6D4F7     |      447735 |
|     747 | 0x66D7D     |      421245 |
|     748 | 0x6DDED     |      450029 |
|     749 | 0x671C2     |      422338 |
|     750 | 0x6E39F     |      451487 |
|     751 | 0x67687     |      423559 |
|     752 | 0x6EA6E     |      453230 |
|     753 | 0x67BE9     |      424937 |
|     754 | 0x6F06F     |      454767 |
|     755 | 0x682AE     |      426670 |
|     756 | 0x6F4D1     |      455889 |
|     757 | 0x68AB8     |      428728 |
|     758 | 0x6F9EF     |      457199 |
|     759 | 0x69438     |      431160 |
|     760 | 0x6FCDB     |      457947 |
|     761 | 0x69CFE     |      433406 |
|     762 | 0x700D1     |      458961 |
|     763 | 0x6A52F     |      435503 |
|     764 | 0x7020C     |      459276 |
|     765 | 0x6AE7F     |      437887 |
|     766 | 0x70383     |      459651 |
|     767 | 0x6B7FF     |      440319 |
|     768 | 0x70420     |      459808 |
|     769 | 0x6C2A7     |      443047 |
|     770 | 0x705DC     |      460252 |
|     771 | 0x6CD31     |      445745 |
|     772 | 0x709E5     |      461285 |
|     773 | 0x6D64F     |      448079 |
|     774 | 0x71179     |      463225 |
|     775 | 0x6DF27     |      450343 |
|     776 | 0x71A20     |      465440 |
|     777 | 0x6E5D9     |      452057 |
|     778 | 0x723E5     |      467941 |
|     779 | 0x6EB32     |      453426 |
|     780 | 0x72BEF     |      469999 |
|     781 | 0x6F10A     |      454922 |
|     782 | 0x734B4     |      472244 |
|     783 | 0x6F4AC     |      455852 |
|     784 | 0x73E35     |      474677 |
|     785 | 0x6F79E     |      456606 |
|     786 | 0x747B5     |      477109 |
|     787 | 0x6F9D0     |      457168 |
|     788 | 0x7507A     |      479354 |
|     789 | 0x6FD77     |      458103 |
|     790 | 0x75AB5     |      481973 |
|     791 | 0x70063     |      458851 |
|     792 | 0x76436     |      484406 |
|     793 | 0x70295     |      459413 |
|     794 | 0x76DB6     |      486838 |
|     795 | 0x70350     |      459600 |
|     796 | 0x777F1     |      489457 |
|     797 | 0x70581     |      460161 |
|     798 | 0x780B7     |      491703 |
|     799 | 0x7086E     |      460910 |
|     800 | 0x78A37     |      494135 |
|     801 | 0x70C15     |      461845 |
|     802 | 0x79472     |      496754 |
|     803 | 0x711EE     |      463342 |
|     804 | 0x79BC1     |      498625 |
|     805 | 0x717C7     |      464839 |
|     806 | 0x7A1E0     |      500192 |
|     807 | 0x72046     |      467014 |
|     808 | 0x7A6B8     |      501432 |
|     809 | 0x72951     |      469329 |
|     810 | 0x7A8E9     |      501993 |
|     811 | 0x73216     |      471574 |
|     812 | 0x7AA5F     |      502367 |
|     813 | 0x73C51     |      474193 |
|     814 | 0x7ABD5     |      502741 |
|     815 | 0x745D2     |      476626 |
|     816 | 0x7AC3E     |      502846 |
|     817 | 0x7504A     |      479306 |
|     818 | 0x7AE79     |      503417 |
|     819 | 0x75C8B     |      482443 |
|     820 | 0x7AF96     |      503702 |
|     821 | 0x769E9     |      485865 |
|     822 | 0x7750D     |      488717 |
|     823 | 0x7B1D0     |      504272 |
|     824 | 0x7814E     |      491854 |
|     825 | 0x78C71     |      494705 |
|     826 | 0x000D      |          13 |
|     827 | 0xFFFFFE4B  |  4294966859 |
|     828 | 0x0050      |          80 |
|     829 | 0x004F      |          79 |
|     830 | 0x004E      |          78 |
|     831 | 0x0052      |          82 |
|     832 | 0x004D      |          77 |
|     833 | 0x0054      |          84 |
|     834 | 0x0055      |          85 |
|     835 | 0x004A      |          74 |
|     836 | 0x0051      |          81 |
|     837 | 0x004C      |          76 |
|     838 | 0x0053      |          83 |
|     839 | 0x0056      |          86 |
|     840 | 0x0058      |          88 |
|     841 | 0x004B      |          75 |
|     842 | 0x005A      |          90 |
|     843 | 0x005B      |          91 |
|     844 | 0x0045      |          69 |
|     845 | 0x0061      |          97 |
|     846 | 0x0041      |          65 |
|     847 | 0x0066      |         102 |
|     848 | 0x0057      |          87 |
|     849 | 0x0048      |          72 |
|     850 | 0x0059      |          89 |
|     851 | 0x0046      |          70 |
|     852 | 0x0044      |          68 |
|     853 | 0x005D      |          93 |
|     854 | 0x0049      |          73 |
|     855 | 0x0043      |          67 |
|     856 | 0x0062      |          98 |
|     857 | 0x003E      |          62 |
|     858 | 0x005C      |          92 |
|     859 | 0x0060      |          96 |
|     860 | 0x0047      |          71 |
|     861 | 0x005E      |          94 |
|     862 | 0x003F      |          63 |
|     863 | 0x0039      |          57 |
|     864 | 0x0040      |          64 |
|     865 | 0x005F      |          95 |
|     866 | 0x0042      |          66 |
|     867 | 0x0064      |         100 |
|     868 | 0x5A653     |      370259 |
|     869 | 0x2DEF      |       11759 |
|     870 | 0xFFFFE21A  |  4294959642 |
|     871 | 0x59D91     |      368017 |
|     872 | 0xFFFFE211  |  4294959633 |
|     873 | 0x59451     |      365649 |
|     874 | 0xFFFFE206  |  4294959622 |
|     875 | 0x58B03     |      363267 |
|     876 | 0xFFFFE1FF  |  4294959615 |
|     877 | 0x581D7     |      360919 |
|     878 | 0xFFFFE19F  |  4294959519 |
|     879 | 0x57812     |      358418 |
|     880 | 0xFFFFE1B5  |  4294959541 |
|     881 | 0x56F36     |      356150 |
|     882 | 0xFFFFE163  |  4294959459 |
|     883 | 0x56605     |      353797 |
|     884 | 0xFFFFE1BC  |  4294959548 |
|     885 | 0x55D1E     |      351518 |
|     886 | 0xFFFFE219  |  4294959641 |
|     887 | 0x550CC     |      348364 |
|     888 | 0xFFFFE2DF  |  4294959839 |
|     889 | 0x546B7     |      345783 |
|     890 | 0xFFFFE2E3  |  4294959843 |
|     891 | 0x53D94     |      343444 |
|     892 | 0xFFFFE3AD  |  4294960045 |
|     893 | 0x53540     |      341312 |
|     894 | 0xFFFFE519  |  4294960409 |
|     895 | 0x52BB5     |      338869 |
|     896 | 0xFFFFE61D  |  4294960669 |
|     897 | 0x5218D     |      336269 |
|     898 | 0xFFFFE755  |  4294960981 |
|     899 | 0x5179A     |      333722 |
|     900 | 0xFFFFE5E9  |  4294960617 |
|     901 | 0x50CA3     |      330915 |
|     902 | 0x5034B     |      328523 |
|     903 | 0xFFFFE5B5  |  4294960565 |
|     904 | 0x4FA5C     |      326236 |
|     905 | 0xFFFFE6B9  |  4294960825 |
|     906 | 0x4F139     |      323897 |
|     907 | 0xFFFFE685  |  4294960773 |
|     908 | 0x4E8E5     |      321765 |
|     909 | 0x4DE22     |      319010 |
|     910 | 0xFFFFE6ED  |  4294960877 |
|     911 | 0x4D532     |      316722 |
|     912 | 0x4CC0F     |      314383 |
|     913 | 0x4C3BC     |      312252 |
|     914 | 0x4BB34     |      310068 |
|     915 | 0x4B3E5     |      308197 |
|     916 | 0xFFFFE54D  |  4294960461 |
|     917 | 0x4AA8D     |      305805 |
|     918 | 0xFFFFE311  |  4294959889 |
|     919 | 0x4A19E     |      303518 |
|     920 | 0xFFFFE172  |  4294959474 |
|     921 | 0x4994A     |      301386 |
|     922 | 0xFFFFE06E  |  4294959214 |
|     923 | 0x48F8B     |      298891 |
|     924 | 0xFFFFDE32  |  4294958642 |
|     925 | 0x48808     |      296968 |
|     926 | 0xFFFFDB5A  |  4294957914 |
|     927 | 0x47E48     |      294472 |
|     928 | 0xFFFFD77E  |  4294956926 |
|     929 | 0x475C1     |      292289 |
|     930 | 0xFFFFD4A6  |  4294956198 |
|     931 | 0x46DA1     |      290209 |
|     932 | 0xFFFFD0CB  |  4294955211 |
|     933 | 0x4661E     |      288286 |
|     934 | 0xFFFFCCBB  |  4294954171 |
|     935 | 0x45F6A     |      286570 |
|     936 | 0xFFFFC8AB  |  4294953131 |
|     937 | 0x4577F     |      284543 |
|     938 | 0xFFFFC400  |  4294951936 |
|     939 | 0x44F5F     |      282463 |
|     940 | 0xFFFFC024  |  4294950948 |
|     941 | 0x445D4     |      280020 |
|     942 | 0xFFFFBAA8  |  4294949544 |
|     943 | 0x4379D     |      276381 |
|     944 | 0xFFFFB4F9  |  4294948089 |
|     945 | 0x42B06     |      273158 |
|     946 | 0xFFFFB0E9  |  4294947049 |
|     947 | 0x420AB     |      270507 |
|     948 | 0xFFFFAE45  |  4294946373 |
|     949 | 0x4161B     |      267803 |
|     950 | 0xFFFFABD5  |  4294945749 |
|     951 | 0x40B58     |      265048 |
|     952 | 0xFFFFAA69  |  4294945385 |
|     953 | 0x40131     |      262449 |
|     954 | 0xFFFFA791  |  4294944657 |
|     955 | 0x3F841     |      260161 |
|     956 | 0xFFFFA729  |  4294944553 |
|     957 | 0x3ED4A     |      257354 |
|     958 | 0xFFFFA4BA  |  4294943930 |
|     959 | 0x3E323     |      254755 |
|     960 | 0xFFFFA24A  |  4294943306 |
|     961 | 0x3D75B     |      251739 |
|     962 | 0xFFFFA216  |  4294943254 |
|     963 | 0x3CD68     |      249192 |
|     964 | 0xFFFFA17A  |  4294943098 |
|     965 | 0x3C515     |      247061 |
|     966 | 0xFFFFA00E  |  4294942734 |
|     967 | 0x3BD29     |      245033 |
|     968 | 0xFFFF9F72  |  4294942578 |
|     969 | 0x3B43A     |      242746 |
|     970 | 0xFFFF9E6E  |  4294942318 |
|     971 | 0x3ABE6     |      240614 |
|     972 | 0xFFFF9C9A  |  4294941850 |
|     973 | 0x3A3C7     |      238535 |
|     974 | 0xFFFF9B62  |  4294941538 |
|     975 | 0x39A6F     |      236143 |
|     976 | 0xFFFF9926  |  4294940966 |
|     977 | 0x390B0     |      233648 |
|     978 | 0xFFFF98F2  |  4294940914 |
|     979 | 0x38725     |      231205 |
|     980 | 0xFFFF97EE  |  4294940654 |
|     981 | 0x37D31     |      228657 |
|     982 | 0x372D6     |      226006 |
|     983 | 0xFFFF96EB  |  4294940395 |
|     984 | 0x36847     |      223303 |
|     985 | 0xFFFF971F  |  4294940447 |
|     986 | 0x35E1F     |      220703 |
|     987 | 0xFFFF9822  |  4294940706 |
|     988 | 0x354C8     |      218312 |
|     989 | 0xFFFF998E  |  4294941070 |
|     990 | 0x34B09     |      215817 |
|     991 | 0xFFFF9A5E  |  4294941278 |
|     992 | 0x341B1     |      213425 |
|     993 | 0x33756     |      210774 |
|     994 | 0xFFFF9C32  |  4294941746 |
|     995 | 0x32DCB     |      208331 |
|     996 | 0xFFFF9D02  |  4294941954 |
|     997 | 0x32473     |      205939 |
|     998 | 0xFFFF9E3A  |  4294942266 |
|     999 | 0x31B50     |      203600 |
|    1000 | 0x31260     |      201312 |
|    1001 | 0x309A5     |      199077 |
|    1002 | 0x2FCDA     |      195802 |
|    1003 | 0xFFFFA452  |  4294943826 |
|    1004 | 0x2F077     |      192631 |
|    1005 | 0xFFFFA965  |  4294945125 |
|    1006 | 0x2E378     |      189304 |
|    1007 | 0xFFFFAF7D  |  4294946685 |
|    1008 | 0x2D644     |      185924 |
|    1009 | 0xFFFFB8D4  |  4294949076 |
|    1010 | 0x2CC51     |      183377 |
|    1011 | 0xFFFFC3CC  |  4294951884 |
|    1012 | 0x2C56A     |      181610 |
|    1013 | 0xFFFFCE5B  |  4294954587 |
|    1014 | 0x2BDB2     |      179634 |
|    1015 | 0xFFFFD576  |  4294956406 |
|    1016 | 0x2B836     |      178230 |
|    1017 | 0xFFFFDF36  |  4294958902 |
|    1018 | 0x2B323     |      176931 |
|    1019 | 0xFFFFEA2D  |  4294961709 |
|    1020 | 0x2AFAF     |      176047 |
|    1021 | 0xFFFFF864  |  4294965348 |
|    1022 | 0x2AD73     |      175475 |
|    1023 | 0x02BF      |         703 |
|    1024 | 0x2AA67     |      174695 |
|    1025 | 0x0EBB      |        3771 |
|    1026 | 0x2AA33     |      174643 |
|    1027 | 0x1A4E      |        6734 |
|    1028 | 0x2A997     |      174487 |
|    1029 | 0x274D      |       10061 |
|    1030 | 0x2A92F     |      174383 |
|    1031 | 0x32E0      |       13024 |
|    1032 | 0x2A9CB     |      174539 |
|    1033 | 0x3D6F      |       15727 |
|    1034 | 0x462B      |       17963 |
|    1035 | 0x4FEA      |       20458 |
|    1036 | 0x2AACF     |      174799 |
|    1037 | 0x59DE      |       23006 |
|    1038 | 0x2AB03     |      174851 |
|    1039 | 0x639D      |       25501 |
|    1040 | 0x2A963     |      174435 |
|    1041 | 0x6D28      |       27944 |
|    1042 | 0x7750      |       30544 |
|    1043 | 0x2A893     |      174227 |
|    1044 | 0x7ED3      |       32467 |
|    1045 | 0x2A6F4     |      173812 |
|    1046 | 0x878F      |       34703 |
|    1047 | 0x2A7C3     |      174019 |
|    1048 | 0x8FAE      |       36782 |
|    1049 | 0x9869      |       39017 |
|    1050 | 0x2A6C0     |      173760 |
|    1051 | 0xA0BD      |       41149 |
|    1052 | 0x2A4EC     |      173292 |
|    1053 | 0xA7D8      |       42968 |
|    1054 | 0x29FA4     |      171940 |
|    1055 | 0xAE24      |       44580 |
|    1056 | 0x2998C     |      170380 |
|    1057 | 0xB1CC      |       45516 |
|    1058 | 0x29375     |      168821 |
|    1059 | 0xB5A8      |       46504 |
|    1060 | 0x28BF1     |      166897 |
|    1061 | 0xB817      |       47127 |
|    1062 | 0x284A2     |      165026 |
|    1063 | 0xB9EB      |       47595 |
|    1064 | 0x27E56     |      163414 |
|    1065 | 0xBC8F      |       48271 |
|    1066 | 0x2783F     |      161855 |
|    1067 | 0xC003      |       49155 |
|    1068 | 0x2718B     |      160139 |
|    1069 | 0xC2A7      |       49831 |
|    1070 | 0x269D4     |      158164 |
|    1071 | 0xC447      |       50247 |
|    1072 | 0x2617A     |      156026 |
|    1073 | 0xC513      |       50451 |
|    1074 | 0x2578F     |      153487 |
|    1075 | 0xC7F2      |       51186 |
|    1076 | 0x24D61     |      150881 |
|    1077 | 0xCCA4      |       52388 |
|    1078 | 0x24228     |      148008 |
|    1079 | 0xD19A      |       53658 |
|    1080 | 0x23627     |      144935 |
|    1081 | 0xDA36      |       55862 |
|    1082 | 0x22C7F     |      142463 |
|    1083 | 0xE638      |       58936 |
|    1084 | 0x2235C     |      140124 |
|    1085 | 0xF0A8      |       61608 |
|    1086 | 0x21D9E     |      138654 |
|    1087 | 0xFB9F      |       64415 |
|    1088 | 0x21823     |      137251 |
|    1089 | 0x103B6     |       66486 |
|    1090 | 0x211E0     |      135648 |
|    1091 | 0x10E69     |       69225 |
|    1092 | 0x20DB3     |      134579 |
|    1093 | 0x1195F     |       72031 |
|    1094 | 0x209C8     |      133576 |
|    1095 | 0x1234A     |       74570 |
|    1096 | 0x20621     |      132641 |
|    1097 | 0x1309A     |       77978 |
|    1098 | 0x2044D     |      132173 |
|    1099 | 0x13C16     |       80918 |
|    1100 | 0x200E9     |      131305 |
|    1101 | 0x1489D     |       84125 |
|    1102 | 0x20020     |      131104 |
|    1103 | 0x15524     |       87332 |
|    1104 | 0x2012C     |      131372 |
|    1105 | 0x15F0F     |       89871 |
|    1106 | 0x168B7     |       92343 |
|    1107 | 0x17111     |       94481 |
|    1108 | 0x17BC4     |       97220 |
|    1109 | 0x1FD41     |      130369 |
|    1110 | 0x1841E     |       99358 |
|    1111 | 0x1FE0A     |      130570 |
|    1112 | 0x18E09     |      101897 |
|    1113 | 0x1FE4D     |      130637 |
|    1114 | 0x1987A     |      104570 |
|    1115 | 0x1FF15     |      130837 |
|    1116 | 0x1A370     |      107376 |
|    1117 | 0x1FF9B     |      130971 |
|    1118 | 0x1AD18     |      109848 |
|    1119 | 0x20063     |      131171 |
|    1120 | 0x1B5F8     |      112120 |
|    1121 | 0x1BED7     |      114391 |
|    1122 | 0x1C6AC     |      116396 |
|    1123 | 0x1CEC3     |      118467 |
|    1124 | 0x1FB6E     |      129902 |
|    1125 | 0x1D549     |      120137 |
|    1126 | 0x1FB2B     |      129835 |
|    1127 | 0x1DCDB     |      122075 |
|    1128 | 0x1F7C6     |      128966 |
|    1129 | 0x1E42A     |      123946 |
|    1130 | 0x1F462     |      128098 |
|    1131 | 0x1EA6D     |      125549 |
|    1132 | 0x1EF29     |      126761 |
|    1133 | 0x1EFA5     |      126885 |
|    1134 | 0x1EABA     |      125626 |
|    1135 | 0x1F4DE     |      128222 |
|    1136 | 0x1E581     |      124289 |
|    1137 | 0x1F94E     |      129358 |
|    1138 | 0x1E006     |      122886 |
|    1139 | 0x1FE43     |      130627 |
|    1140 | 0x1DA06     |      121350 |
|    1141 | 0x20165     |      131429 |
|    1142 | 0x1D3C2     |      119746 |
|    1143 | 0x2054F     |      132431 |
|    1144 | 0x1CE8A     |      118410 |
|    1145 | 0x2097C     |      133500 |
|    1146 | 0x1C889     |      116873 |
|    1147 | 0x20C5B     |      134235 |
|    1148 | 0x1C1C0     |      115136 |
|    1149 | 0x20EF7     |      134903 |
|    1150 | 0x1B9EB     |      113131 |
|    1151 | 0x21002     |      135170 |
|    1152 | 0x1B25A     |      111194 |
|    1153 | 0x21150     |      135504 |
|    1154 | 0x1AAC8     |      109256 |
|    1155 | 0x21367     |      136039 |
|    1156 | 0x1A3BC     |      107452 |
|    1157 | 0x213AA     |      136106 |
|    1158 | 0x19BE8     |      105448 |
|    1159 | 0x194DC     |      103644 |
|    1160 | 0x21324     |      135972 |
|    1161 | 0x18D8D     |      101773 |
|    1162 | 0x2129E     |      135838 |
|    1163 | 0x184F0     |       99568 |
|    1164 | 0x17C11     |       97297 |
|    1165 | 0x21193     |      135571 |
|    1166 | 0x1743C     |       95292 |
|    1167 | 0x16C68     |       93288 |
|    1168 | 0x16345     |       90949 |
|    1169 | 0x20FBF     |      135103 |
|    1170 | 0x15701     |       87809 |
|    1171 | 0x14821     |       84001 |
|    1172 | 0x20EB4     |      134836 |
|    1173 | 0x13AD1     |       80593 |
|    1174 | 0x12A1D     |       76317 |
|    1175 | 0x118E3     |       71907 |
|    1176 | 0x21794     |      137108 |
|    1177 | 0x1097D     |       67965 |
|    1178 | 0x21D0F     |      138511 |
|    1179 | 0xFDBF      |       64959 |
|    1180 | 0x22569     |      140649 |
|    1181 | 0xF34E      |       62286 |
|    1182 | 0x22C32     |      142386 |
|    1183 | 0xE815      |       59413 |
|    1184 | 0x23834     |      145460 |
|    1185 | 0xE1D2      |       57810 |
|    1186 | 0x24478     |      148600 |
|    1187 | 0xDD1F      |       56607 |
|    1188 | 0x24EA6     |      151206 |
|    1189 | 0xD8AF      |       55471 |
|    1190 | 0x25A21     |      154145 |
|    1191 | 0xD3FD      |       54269 |
|    1192 | 0x26AD5     |      158421 |
|    1193 | 0xD482      |       54402 |
|    1194 | 0x27546     |      161094 |
|    1195 | 0xD4C5      |       54469 |
|    1196 | 0x28210     |      164368 |
|    1197 | 0x28C80     |      167040 |
|    1198 | 0x296F1     |      169713 |
|    1199 | 0x2A11F     |      172319 |
|    1200 | 0xD71E      |       55070 |
|    1201 | 0x2AB0A     |      174858 |
|    1202 | 0xD86C      |       55404 |
|    1203 | 0x2B4F4     |      177396 |
|    1204 | 0xD9BB      |       55739 |
|    1205 | 0x2BCC9     |      179401 |
|    1206 | 0xDB4B      |       56139 |
|    1207 | 0x2C566     |      181606 |
|    1208 | 0xDB09      |       56073 |
|    1209 | 0x2CE45     |      183877 |
|    1210 | 0xDA83      |       55939 |
|    1211 | 0x2D7AB     |      186283 |
|    1212 | 0xD9FD      |       55805 |
|    1213 | 0x2E0CD     |      188621 |
|    1214 | 0xD8F2      |       55538 |
|    1215 | 0x2E81C     |      190492 |
|    1216 | 0xD7E7      |       55271 |
|    1217 | 0x2F207     |      193031 |
|    1218 | 0x2FBAF     |      195503 |
|    1219 | 0xD54B      |       54603 |
|    1220 | 0x3072B     |      198443 |
|    1221 | 0x3104D     |      200781 |
|    1222 | 0x3192D     |      203053 |
|    1223 | 0xD613      |       54803 |
|    1224 | 0x3235B     |      205659 |
|    1225 | 0xD656      |       54870 |
|    1226 | 0x32E0E     |      208398 |
|    1227 | 0x335A0     |      210336 |
|    1228 | 0x33D74     |      212340 |
|    1229 | 0xD377      |       54135 |
|    1230 | 0x34611     |      214545 |
|    1231 | 0xD26C      |       53868 |
|    1232 | 0x34DE5     |      216549 |
|    1233 | 0xD0DB      |       53467 |
|    1234 | 0x354F1     |      218353 |
|    1235 | 0xCFD0      |       53200 |
|    1236 | 0x35D8E     |      220558 |
|    1237 | 0xCDB9      |       52665 |
|    1238 | 0x366F3     |      222963 |
|    1239 | 0xCCAE      |       52398 |
|    1240 | 0x370DE     |      225502 |
|    1241 | 0xCBA3      |       52131 |
|    1242 | 0x37EB3     |      229043 |
|    1243 | 0xCCF1      |       52465 |
|    1244 | 0x38E5C     |      233052 |
|    1245 | 0xCF8D      |       53133 |
|    1246 | 0x39AA0     |      236192 |
|    1247 | 0x3A4CE     |      238798 |
|    1248 | 0xD3BA      |       54202 |
|    1249 | 0x3AF82     |      241538 |
|    1250 | 0x3B81E     |      243742 |
|    1251 | 0x3C141     |      246081 |
|    1252 | 0xDB8E      |       56206 |
|    1253 | 0x3C8D2     |      248018 |
|    1254 | 0xDDA5      |       56741 |
|    1255 | 0x3D12D     |      250157 |
|    1256 | 0xDDE8      |       56808 |
|    1257 | 0x3D944     |      252228 |
|    1258 | 0xE084      |       57476 |
|    1259 | 0x3E118     |      254232 |
|    1260 | 0x3E824     |      256036 |
|    1261 | 0xE109      |       57609 |
|    1262 | 0x3F07E     |      258174 |
|    1263 | 0xDFFE      |       57342 |
|    1264 | 0x3F78A     |      259978 |
|    1265 | 0xDC9A      |       56474 |
|    1266 | 0x3FE10     |      261648 |
|    1267 | 0xD935      |       55605 |
|    1268 | 0x4066A     |      263786 |
|    1269 | 0xD58E      |       54670 |
|    1270 | 0x40FD0     |      266192 |
|    1271 | 0xD43F      |       54335 |
|    1272 | 0x41AC6     |      268998 |
|    1273 | 0x42707     |      272135 |
|    1274 | 0xD266      |       53862 |
|    1275 | 0x434D3     |      275667 |
|    1276 | 0xD166      |       53606 |
|    1277 | 0x442BB     |      279227 |
|    1278 | 0xD09E      |       53406 |
|    1279 | 0x45593     |      284051 |
|    1280 | 0xD092      |       53394 |
|    1281 | 0x463DB     |      287707 |
|    1282 | 0xD044      |       53316 |
|    1283 | 0x47494     |      291988 |
|    1284 | 0xD055      |       53333 |
|    1285 | 0x48478     |      296056 |
|    1286 | 0xD1E0      |       53728 |
|    1287 | 0x492C6     |      299718 |
|    1288 | 0xD2AF      |       53935 |
|    1289 | 0x4A0A9     |      303273 |
|    1290 | 0x4A9CC     |      305612 |
|    1291 | 0xD699      |       54937 |
|    1292 | 0x4B653     |      308819 |
|    1293 | 0xD7A4      |       55204 |
|    1294 | 0x4BFFB     |      311291 |
|    1295 | 0xD978      |       55672 |
|    1296 | 0x4C91D     |      313629 |
|    1297 | 0xDCCA      |       56522 |
|    1298 | 0x4DFA2     |      319394 |
|    1299 | 0xE14C      |       57676 |
|    1300 | 0x4F3A8     |      324520 |
|    1301 | 0xE5FF      |       58879 |
|    1302 | 0x50994     |      330132 |
|    1303 | 0xED0B      |       60683 |
|    1304 | 0x515D9     |      333273 |
|    1305 | 0xFAE0      |       64224 |
|    1306 | 0x52B82     |      338818 |
|    1307 | 0x1082F     |       67631 |
|    1308 | 0x535B0     |      341424 |
|    1309 | 0x113EE     |       70638 |
|    1310 | 0x53E4D     |      343629 |
|    1311 | 0x127C4     |       75716 |
|    1312 | 0x546EA     |      345834 |
|    1313 | 0x1346E     |       78958 |
|    1314 | 0x54B6C     |      346988 |
|    1315 | 0x1408F     |       82063 |
|    1316 | 0x55265     |      348773 |
|    1317 | 0x14E21     |       85537 |
|    1318 | 0x55C50     |      351312 |
|    1319 | 0x15BF7     |       89079 |
|    1320 | 0x56530     |      353584 |
|    1321 | 0x167B5     |       92085 |
|    1322 | 0x57069     |      356457 |
|    1323 | 0x16A94     |       92820 |
|    1324 | 0x57775     |      358261 |
|    1325 | 0x57E81     |      360065 |
|    1326 | 0x16F8A     |       94090 |
|    1327 | 0x58698     |      362136 |
|    1328 | 0x16FCC     |       94156 |
|    1329 | 0x58EAF     |      364207 |
|    1330 | 0x171E3     |       94691 |
|    1331 | 0x595FE     |      366078 |
|    1332 | 0x173F9     |       95225 |
|    1333 | 0x59E9B     |      368283 |
|    1334 | 0x1771B     |       96027 |
|    1335 | 0x5A8C9     |      370889 |
|    1336 | 0x17E6A     |       97898 |
|    1337 | 0x5B37C     |      373628 |
|    1338 | 0x18707     |      100103 |
|    1339 | 0x5BC5C     |      375900 |
|    1340 | 0x191FD     |      102909 |
|    1341 | 0x5C689     |      378505 |
|    1342 | 0x19BA5     |      105381 |
|    1343 | 0x5CE5E     |      380510 |
|    1344 | 0x1A590     |      107920 |
|    1345 | 0x5D353     |      381779 |
|    1346 | 0x1AFBE     |      110526 |
|    1347 | 0x5D849     |      383049 |
|    1348 | 0x1B923     |      112931 |
|    1349 | 0x5DD3E     |      384318 |
|    1350 | 0x1C673     |      116339 |
|    1351 | 0x5E060     |      385120 |
|    1352 | 0x1D33C     |      119612 |
|    1353 | 0x5E234     |      385588 |
|    1354 | 0x1DDAD     |      122285 |
|    1355 | 0x5E44A     |      386122 |
|    1356 | 0x1E9AE     |      125358 |
|    1357 | 0x5E661     |      386657 |
|    1358 | 0x1F783     |      128899 |
|    1359 | 0x5E6E6     |      386790 |
|    1360 | 0x5E5DB     |      386523 |
|    1361 | 0x20A91     |      133777 |
|    1362 | 0x5E407     |      386055 |
|    1363 | 0x212EB     |      135915 |
|    1364 | 0x5E1AE     |      385454 |
|    1365 | 0x21B88     |      138120 |
|    1366 | 0x5DFDA     |      384986 |
|    1367 | 0x22425     |      140325 |
|    1368 | 0x5DDC4     |      384452 |
|    1369 | 0x22B31     |      142129 |
|    1370 | 0x5DAA2     |      383650 |
|    1371 | 0x2338B     |      144267 |
|    1372 | 0x5D911     |      383249 |
|    1373 | 0x23AD9     |      146137 |
|    1374 | 0x5D780     |      382848 |
|    1375 | 0x242AE     |      148142 |
|    1376 | 0x5D9DA     |      383450 |
|    1377 | 0x2486C     |      149612 |
|    1378 | 0x5DD81     |      384385 |
|    1379 | 0x24FFD     |      151549 |
|    1380 | 0x5E1F1     |      385521 |
|    1381 | 0x259A5     |      154021 |
|    1382 | 0x5E598     |      386456 |
|    1383 | 0x263D3     |      156627 |
|    1384 | 0x5E729     |      386857 |
|    1385 | 0x2705A     |      159834 |
|    1386 | 0x27ACB     |      162507 |
|    1387 | 0x28473     |      164979 |
|    1388 | 0x5E4D0     |      386256 |
|    1389 | 0x28C04     |      166916 |
|    1390 | 0x5E33F     |      385855 |
|    1391 | 0x29310     |      168720 |
|    1392 | 0x5E276     |      385654 |
|    1393 | 0x29954     |      170324 |
|    1394 | 0x5E2FC     |      385788 |
|    1395 | 0x29F12     |      171794 |
|    1396 | 0x2A61E     |      173598 |
|    1397 | 0x5E8FD     |      387325 |
|    1398 | 0x2AEBB     |      175803 |
|    1399 | 0x5EC1F     |      388127 |
|    1400 | 0x2BA79     |      178809 |
|    1401 | 0x5F114     |      389396 |
|    1402 | 0x2CA22     |      182818 |
|    1403 | 0x5F36D     |      389997 |
|    1404 | 0x2DCED     |      187629 |
|    1405 | 0x5F32B     |      389931 |
|    1406 | 0x2E4C1     |      189633 |
|    1407 | 0x5F0D1     |      389329 |
|    1408 | 0x2F0C3     |      192707 |
|    1409 | 0x5EB99     |      387993 |
|    1410 | 0x2F854     |      194644 |
|    1411 | 0x2FF1D     |      196381 |
|    1412 | 0x30561     |      197985 |
|    1413 | 0x30CF2     |      199922 |
|    1414 | 0x5E3C5     |      385989 |
|    1415 | 0x31937     |      203063 |
|    1416 | 0x328DF     |      207071 |
|    1417 | 0x5DECF     |      384719 |
|    1418 | 0x333D6     |      209878 |
|    1419 | 0x5D997     |      383383 |
|    1420 | 0x3405D     |      213085 |
|    1421 | 0x5D248     |      381512 |
|    1422 | 0x34CE4     |      216292 |
|    1423 | 0x5C8A0     |      379040 |
|    1424 | 0x3568C     |      218764 |
|    1425 | 0x5BCE1     |      376033 |
|    1426 | 0x35EA3     |      220835 |
|    1427 | 0x5B4CA     |      373962 |
|    1428 | 0x365F2     |      222706 |
|    1429 | 0x5A77B     |      370555 |
|    1430 | 0x36A1F     |      223775 |
|    1431 | 0x599A5     |      367013 |
|    1432 | 0x36B6D     |      224109 |
|    1433 | 0x58C99     |      363673 |
|    1434 | 0x36C78     |      224376 |
|    1435 | 0x58160     |      360800 |
|    1436 | 0x36E4C     |      224844 |
|    1437 | 0x57A11     |      358929 |
|    1438 | 0x37062     |      225378 |
|    1439 | 0x5727F     |      356991 |
|    1440 | 0x372FF     |      226047 |
|    1441 | 0x569A0     |      354720 |
|    1442 | 0x376A6     |      226982 |
|    1443 | 0x56319     |      353049 |
|    1444 | 0x37D2C     |      228652 |
|    1445 | 0x55FB5     |      352181 |
|    1446 | 0x38265     |      229989 |
|    1447 | 0x55B88     |      351112 |
|    1448 | 0x38822     |      231458 |
|    1449 | 0x5575B     |      350043 |
|    1450 | 0x38EEC     |      233196 |
|    1451 | 0x553B3     |      349107 |
|    1452 | 0x39572     |      234866 |
|    1453 | 0x55092     |      348306 |
|    1454 | 0x39B30     |      236336 |
|    1455 | 0x54CEA     |      347370 |
|    1456 | 0x3A068     |      237672 |
|    1457 | 0x5487A     |      346234 |
|    1458 | 0x3A774     |      239476 |
|    1459 | 0x54838     |      346168 |
|    1460 | 0x3B011     |      241681 |
|    1461 | 0x54664     |      345700 |
|    1462 | 0x3B71D     |      243485 |
|    1463 | 0x544D3     |      345299 |
|    1464 | 0x3BDA3     |      245155 |
|    1465 | 0x5440B     |      345099 |
|    1466 | 0x3C5FD     |      247293 |
|    1467 | 0x54490     |      345232 |
|    1468 | 0x3CF63     |      249699 |
|    1469 | 0x3D885     |      252037 |
|    1470 | 0x545DE     |      345566 |
|    1471 | 0x3E2B3     |      254643 |
|    1472 | 0x5459C     |      345500 |
|    1473 | 0x3EC9E     |      257182 |
|    1474 | 0x3F794     |      259988 |
|    1475 | 0x5472C     |      345900 |
|    1476 | 0x4013C     |      262460 |
|    1477 | 0x40A5E     |      264798 |
|    1478 | 0x41276     |      266870 |
|    1479 | 0x5476F     |      345967 |
|    1480 | 0x41C1E     |      269342 |
|    1481 | 0x54986     |      346502 |
|    1482 | 0x42478     |      271480 |
|    1483 | 0x54A91     |      346769 |
|    1484 | 0x42C4C     |      273484 |
|    1485 | 0x54C22     |      347170 |
|    1486 | 0x434E9     |      275689 |
|    1487 | 0x54DB3     |      347571 |
|    1488 | 0x43D43     |      277827 |
|    1489 | 0x550D4     |      348372 |
|    1490 | 0x44666     |      280166 |
|    1491 | 0x55117     |      348439 |
|    1492 | 0x44E3A     |      282170 |
|    1493 | 0x5547C     |      349308 |
|    1494 | 0x45589     |      284041 |
|    1495 | 0x55650     |      349776 |
|    1496 | 0x45C95     |      285845 |
|    1497 | 0x55971     |      350577 |
|    1498 | 0x4635E     |      287582 |
|    1499 | 0x55C0D     |      351245 |
|    1500 | 0x46896     |      288918 |
|    1501 | 0x55FF8     |      352248 |
|    1502 | 0x46CC3     |      289987 |
|    1503 | 0x47133     |      291123 |
|    1504 | 0x56A25     |      354853 |
|    1505 | 0x47455     |      291925 |
|    1506 | 0x57131     |      356657 |
|    1507 | 0x47907     |      293127 |
|    1508 | 0x47ADB     |      293595 |
|    1509 | 0x57F07     |      360199 |
|    1510 | 0x47D34     |      294196 |
|    1511 | 0x5858D     |      361869 |
|    1512 | 0x47F8E     |      294798 |
|    1513 | 0x482B0     |      295600 |
|    1514 | 0x59A2B     |      367147 |
|    1515 | 0x488B0     |      297136 |
|    1516 | 0x5AA5A     |      371290 |
|    1517 | 0x49364     |      299876 |
|    1518 | 0x5B7EC     |      374764 |
|    1519 | 0x49C43     |      302147 |
|    1520 | 0x5C2E2     |      377570 |
|    1521 | 0x4A418     |      304152 |
|    1522 | 0x5C8E3     |      379107 |
|    1523 | 0x4ACF7     |      306423 |
|    1524 | 0x4BA04     |      309764 |
|    1525 | 0x5D88C     |      383116 |
|    1526 | 0x4C475     |      312437 |
|    1527 | 0x5DBF0     |      383984 |
|    1528 | 0x4D1C4     |      315844 |
|    1529 | 0x5E128     |      385320 |
|    1530 | 0x4DBF2     |      318450 |
|    1531 | 0x5E382     |      385922 |
|    1532 | 0x4E383     |      320387 |
|    1533 | 0x5E61E     |      386590 |
|    1534 | 0x4EA8F     |      322191 |
|    1535 | 0x5E6A4     |      386724 |
|    1536 | 0x4F221     |      324129 |
|    1537 | 0x5EA4B     |      387659 |
|    1538 | 0x4F9F5     |      326133 |
|    1539 | 0x50101     |      327937 |
|    1540 | 0x5EE78     |      388728 |
|    1541 | 0x50702     |      329474 |
|    1542 | 0x50D46     |      331078 |
|    1543 | 0x5F68F     |      390799 |
|    1544 | 0x51173     |      332147 |
|    1545 | 0x5FD16     |      392470 |
|    1546 | 0x51346     |      332614 |
|    1547 | 0x603DF     |      394207 |
|    1548 | 0x51625     |      333349 |
|    1549 | 0x60A22     |      395810 |
|    1550 | 0x518C1     |      334017 |
|    1551 | 0x611B4     |      397748 |
|    1552 | 0x51A95     |      334485 |
|    1553 | 0x61988     |      399752 |
|    1554 | 0x51C26     |      334886 |
|    1555 | 0x62330     |      402224 |
|    1556 | 0x51F48     |      335688 |
|    1557 | 0x62EAC     |      405164 |
|    1558 | 0x52375     |      336757 |
|    1559 | 0x63E55     |      409173 |
|    1560 | 0x52933     |      338227 |
|    1561 | 0x64D78     |      413048 |
|    1562 | 0x5318D     |      340365 |
|    1563 | 0x659BC     |      416188 |
|    1564 | 0x53BBA     |      342970 |
|    1565 | 0x6657B     |      419195 |
|    1566 | 0x546F3     |      345843 |
|    1567 | 0x6702E     |      421934 |
|    1568 | 0x55617     |      349719 |
|    1569 | 0x678CB     |      424139 |
|    1570 | 0x5642E     |      353326 |
|    1571 | 0x67E46     |      425542 |
|    1572 | 0x57289     |      357001 |
|    1573 | 0x67F0F     |      425743 |
|    1574 | 0x57E8B     |      360075 |
|    1575 | 0x67F94     |      425876 |
|    1576 | 0x58876     |      362614 |
|    1577 | 0x592E6     |      365286 |
|    1578 | 0x67F51     |      425809 |
|    1579 | 0x59C4B     |      367691 |
|    1580 | 0x5A6FF     |      370431 |
|    1581 | 0x5AF16     |      372502 |
|    1582 | 0x6801A     |      426010 |
|    1583 | 0x5B770     |      374640 |
|    1584 | 0x68125     |      426277 |
|    1585 | 0x5C093     |      376979 |
|    1586 | 0x681AB     |      426411 |
|    1587 | 0x5CAC0     |      379584 |
|    1588 | 0x5D4AB     |      382123 |
|    1589 | 0x68230     |      426544 |
|    1590 | 0x5DED9     |      384729 |
|    1591 | 0x68273     |      426611 |
|    1592 | 0x5E8C4     |      387268 |
|    1593 | 0x6833C     |      426812 |
|    1594 | 0x5F1E6     |      389606 |
|    1595 | 0x5FA83     |      391811 |
|    1596 | 0x683C1     |      426945 |
|    1597 | 0x602DD     |      393949 |
|    1598 | 0x684CD     |      427213 |
|    1599 | 0x60D0B     |      396555 |
|    1600 | 0x6850F     |      427279 |
|    1601 | 0x61739     |      399161 |
|    1602 | 0x68595     |      427413 |
|    1603 | 0x62018     |      401432 |
|    1604 | 0x62A46     |      404038 |
|    1605 | 0x6861B     |      427547 |
|    1606 | 0x632A0     |      406176 |
|    1607 | 0x686A0     |      427680 |
|    1608 | 0x63AB7     |      408247 |
|    1609 | 0x64528     |      410920 |
|    1610 | 0x687EE     |      428014 |
|    1611 | 0x64E08     |      413192 |
|    1612 | 0x65556     |      415062 |
|    1613 | 0x68831     |      428081 |
|    1614 | 0x65EBC     |      417468 |
|    1615 | 0x68874     |      428148 |
|    1616 | 0x667DE     |      419806 |
|    1617 | 0x6707B     |      422011 |
|    1618 | 0x6799D     |      424349 |
|    1619 | 0x68303     |      426755 |
|    1620 | 0x688B7     |      428215 |
|    1621 | 0x68EC1     |      429761 |
|    1622 | 0x688FA     |      428282 |
|    1623 | 0x699FA     |      432634 |
|    1624 | 0x6A3A2     |      435106 |
|    1625 | 0x6AC82     |      437378 |
|    1626 | 0x6B3D1     |      439249 |
|    1627 | 0x6BB62     |      441186 |
|    1628 | 0x687AC     |      427948 |
|    1629 | 0x6C22C     |      442924 |
|    1630 | 0x6C8F5     |      444661 |
|    1631 | 0x6893C     |      428348 |
|    1632 | 0x6CE70     |      446064 |
|    1633 | 0x68F3D     |      429885 |
|    1634 | 0x6D3EB     |      447467 |
|    1635 | 0x69327     |      430887 |
|    1636 | 0x6D85B     |      448603 |
|    1637 | 0x698A2     |      432290 |
|    1638 | 0x6DCCB     |      449739 |
|    1639 | 0x69D98     |      433560 |
|    1640 | 0x6DF24     |      450340 |
|    1641 | 0x6A461     |      435297 |
|    1642 | 0x6E1C0     |      451008 |
|    1643 | 0x6ABF3     |      437235 |
|    1644 | 0x6E246     |      451142 |
|    1645 | 0x6B384     |      439172 |
|    1646 | 0x6E4E2     |      451810 |
|    1647 | 0x6B9C8     |      440776 |
|    1648 | 0x6C117     |      442647 |
|    1649 | 0x6E6F8     |      452344 |
|    1650 | 0x6C971     |      444785 |
|    1651 | 0x6E6B6     |      452278 |
|    1652 | 0x6D102     |      446722 |
|    1653 | 0x6E952     |      452946 |
|    1654 | 0x6D80E     |      448526 |
|    1655 | 0x6EE8A     |      454282 |
|    1656 | 0x6E626     |      452134 |
|    1657 | 0x6F7AC     |      456620 |
|    1658 | 0x6F506     |      455942 |
|    1659 | 0x7053F     |      460095 |
|    1660 | 0x6FEAF     |      458415 |
|    1661 | 0x71209     |      463369 |
|    1662 | 0x706C6     |      460486 |
|    1663 | 0x71BB1     |      465841 |
|    1664 | 0x70F63     |      462691 |
|    1665 | 0x7287B     |      469115 |
|    1666 | 0x71284     |      463492 |
|    1667 | 0x734BF     |      472255 |
|    1668 | 0x715A6     |      464294 |
|    1669 | 0x73E67     |      474727 |
|    1670 | 0x719D3     |      465363 |
|    1671 | 0x7480F     |      477199 |
|    1672 | 0x71C2C     |      465964 |
|    1673 | 0x7523D     |      479805 |
|    1674 | 0x71FD4     |      466900 |
|    1675 | 0x75B1C     |      482076 |
|    1676 | 0x722B3     |      467635 |
|    1677 | 0x765D0     |      484816 |
|    1678 | 0x7237B     |      467835 |
|    1679 | 0x76E6D     |      487021 |
|    1680 | 0x7250C     |      468236 |
|    1681 | 0x775BB     |      488891 |
|    1682 | 0x7269D     |      468637 |
|    1683 | 0x77BBC     |      490428 |
|    1684 | 0x72939     |      469305 |
|    1685 | 0x77FA6     |      491430 |
|    1686 | 0x72C5B     |      470107 |
|    1687 | 0x783D3     |      492499 |
|    1688 | 0x72F7D     |      470909 |
|    1689 | 0x7862D     |      493101 |
|    1690 | 0x7342F     |      472111 |
|    1691 | 0x789D4     |      494036 |
|    1692 | 0x73925     |      473381 |
|    1693 | 0x78A17     |      494103 |
|    1694 | 0x73E5D     |      474717 |
|    1695 | 0x78B22     |      494370 |
|    1696 | 0x74353     |      475987 |
|    1697 | 0x78BEB     |      494571 |
|    1698 | 0x749D9     |      477657 |
|    1699 | 0x78CF6     |      494838 |
|    1700 | 0x751F0     |      479728 |
|    1701 | 0x78E44     |      495172 |
|    1702 | 0x75D6C     |      482668 |
|    1703 | 0x769B0     |      485808 |
|    1704 | 0x78E87     |      495239 |
|    1705 | 0x7752C     |      488748 |
|    1706 | 0x78022     |      491554 |
|    1707 | 0x79018     |      495640 |
|    1708 | 0x78A93     |      494227 |

## Events

### Event 65535

#### Metadata

| Field        | Value   |
|--------------|---------|
| Entrypoint   | 0x0000  |
| Data Size    | 1 bytes |
| Instructions | 1       |

```
      00 01 02 03 04 05 06 07  08 09 0A 0B 0C 0D 0E 0F
      -- -- -- -- -- -- -- --  -- -- -- -- -- -- -- --
0000: 00                                                .               
```

#### Opcodes

```
  0: 0x0000 [0x00] END_REQSTACK()
```

### Event 479

#### Metadata

| Field        | Value   |
|--------------|---------|
| Entrypoint   | 0x0001  |
| Data Size    | 1 bytes |
| Instructions | 1       |

```
      00 01 02 03 04 05 06 07  08 09 0A 0B 0C 0D 0E 0F
      -- -- -- -- -- -- -- --  -- -- -- -- -- -- -- --
0000:    00                                              .              
```

#### Opcodes

```
  0: 0x0001 [0x00] END_REQSTACK()
```

### Event 488

#### Metadata

| Field        | Value   |
|--------------|---------|
| Entrypoint   | 0x0002  |
| Data Size    | 1 bytes |
| Instructions | 1       |

```
      00 01 02 03 04 05 06 07  08 09 0A 0B 0C 0D 0E 0F
      -- -- -- -- -- -- -- --  -- -- -- -- -- -- -- --
0000:       00                                            .             
```

#### Opcodes

```
  0: 0x0002 [0x00] END_REQSTACK()
```

### Event 497

#### Metadata

| Field        | Value   |
|--------------|---------|
| Entrypoint   | 0x0003  |
| Data Size    | 1 bytes |
| Instructions | 1       |

```
      00 01 02 03 04 05 06 07  08 09 0A 0B 0C 0D 0E 0F
      -- -- -- -- -- -- -- --  -- -- -- -- -- -- -- --
0000:          00                                          .            
```

#### Opcodes

```
  0: 0x0003 [0x00] END_REQSTACK()
```

### Event 65535.1

#### Metadata

| Field        | Value   |
|--------------|---------|
| Entrypoint   | 0x0004  |
| Data Size    | 1 bytes |
| Instructions | 1       |

```
      00 01 02 03 04 05 06 07  08 09 0A 0B 0C 0D 0E 0F
      -- -- -- -- -- -- -- --  -- -- -- -- -- -- -- --
0000:             00                                        .           
```

#### Opcodes

```
  0: 0x0004 [0x00] END_REQSTACK()
```

### Event 65535.2

#### Metadata

| Field        | Value      |
|--------------|------------|
| Entrypoint   | 0x0005     |
| Data Size    | 7993 bytes |
| Instructions | 5          |

```
      00 01 02 03 04 05 06 07  08 09 0A 0B 0C 0D 0E 0F
      -- -- -- -- -- -- -- --  -- -- -- -- -- -- -- --
0000:                9D 02 7E  0E 00 80 9D 02 CE 0E 01       ..~........
0010: 80 9D 02 1E 00 02 80 9D  02 DE 10 03 80 00 04 80  ................
0020: 05 80 06 80 07 80 08 80  05 80 09 80 07 80 0A 80  ................
0030: 05 80 0B 80 07 80 0C 80  05 80 0D 80 07 80 0E 80  ................
0040: 05 80 0F 80 07 80 10 80  05 80 11 80 07 80 12 80  ................
0050: 05 80 13 80 07 80 14 80  05 80 15 80 07 80 16 80  ................
0060: 05 80 17 80 07 80 18 80  05 80 15 80 07 80 19 80  ................
0070: 05 80 1A 80 07 80 1B 80  05 80 1C 80 07 80 1D 80  ................
0080: 05 80 1E 80 07 80 1F 80  05 80 20 80 07 80 21 80  .......... ...!.
0090: 05 80 22 80 07 80 23 80  05 80 22 80 07 80 24 80  .."...#..."...$.
00A0: 05 80 22 80 07 80 25 80  05 80 1E 80 07 80 26 80  .."...%.......&.
00B0: 05 80 1E 80 07 80 27 80  05 80 22 80 07 80 28 80  ......'..."...(.
00C0: 05 80 22 80 07 80 29 80  05 80 22 80 07 80 2A 80  .."...)..."...*.
00D0: 05 80 22 80 07 80 2B 80  05 80 20 80 07 80 2C 80  .."...+... ...,.
00E0: 05 80 22 80 07 80 2D 80  05 80 2E 80 07 80 2F 80  .."...-......./.
00F0: 05 80 30 80 07 80 31 80  05 80 32 80 07 80 33 80  ..0...1...2...3.
0100: 05 80 34 80 07 80 35 80  05 80 36 80 07 80 37 80  ..4...5...6...7.
0110: 05 80 38 80 07 80 39 80  05 80 3A 80 07 80 3B 80  ..8...9...:...;.
0120: 05 80 3C 80 07 80 3D 80  05 80 3E 80 07 80 3F 80  ..<...=...>...?.
0130: 05 80 40 80 07 80 41 80  05 80 42 80 07 80 43 80  ..@...A...B...C.
0140: 05 80 44 80 07 80 45 80  05 80 46 80 07 80 47 80  ..D...E...F...G.
0150: 05 80 48 80 07 80 49 80  05 80 4A 80 07 80 4B 80  ..H...I...J...K.
0160: 05 80 4C 80 07 80 4D 80  05 80 4E 80 07 80 4F 80  ..L...M...N...O.
0170: 05 80 50 80 07 80 51 80  05 80 52 80 07 80 53 80  ..P...Q...R...S.
0180: 05 80 54 80 07 80 55 80  05 80 56 80 07 80 57 80  ..T...U...V...W.
0190: 05 80 58 80 07 80 59 80  05 80 5A 80 07 80 5B 80  ..X...Y...Z...[.
01A0: 05 80 5C 80 07 80 5D 80  05 80 5E 80 07 80 5F 80  ..\...]...^..._.
01B0: 05 80 60 80 07 80 61 80  05 80 62 80 07 80 63 80  ..`...a...b...c.
01C0: 05 80 64 80 07 80 65 80  05 80 66 80 07 80 67 80  ..d...e...f...g.
01D0: 05 80 68 80 07 80 69 80  05 80 6A 80 07 80 6B 80  ..h...i...j...k.
01E0: 05 80 6C 80 07 80 6D 80  05 80 6E 80 07 80 6F 80  ..l...m...n...o.
01F0: 05 80 70 80 07 80 71 80  05 80 72 80 07 80 73 80  ..p...q...r...s.
0200: 05 80 72 80 07 80 74 80  05 80 6E 80 07 80 75 80  ..r...t...n...u.
0210: 05 80 76 80 07 80 77 80  05 80 78 80 07 80 79 80  ..v...w...x...y.
0220: 05 80 7A 80 07 80 7B 80  05 80 6C 80 07 80 7C 80  ..z...{...l...|.
0230: 05 80 6A 80 07 80 7D 80  05 80 7E 80 07 80 7F 80  ..j...}...~.....
0240: 05 80 68 80 07 80 80 80  05 80 81 80 07 80 82 80  ..h.............
0250: 05 80 83 80 07 80 84 80  05 80 85 80 07 80 86 80  ................
0260: 05 80 87 80 07 80 88 80  05 80 89 80 07 80 8A 80  ................
0270: 05 80 8B 80 07 80 8C 80  05 80 8D 80 07 80 8E 80  ................
0280: 05 80 8F 80 07 80 90 80  05 80 91 80 07 80 92 80  ................
0290: 05 80 93 80 07 80 94 80  05 80 95 80 07 80 96 80  ................
02A0: 05 80 97 80 07 80 98 80  05 80 99 80 07 80 9A 80  ................
02B0: 05 80 9B 80 07 80 9C 80  05 80 9D 80 07 80 9E 80  ................
02C0: 05 80 9F 80 07 80 9E 80  05 80 A0 80 07 80 9E 80  ................
02D0: 05 80 A1 80 07 80 9E 80  05 80 A2 80 07 80 A3 80  ................
02E0: 05 80 A4 80 07 80 A5 80  05 80 A6 80 07 80 9E 80  ................
02F0: 05 80 A7 80 07 80 9E 80  05 80 A8 80 07 80 A3 80  ................
0300: 05 80 A9 80 07 80 AA 80  05 80 AB 80 07 80 AC 80  ................
0310: 05 80 AD 80 07 80 AE 80  05 80 AF 80 07 80 B0 80  ................
0320: 05 80 B1 80 07 80 B2 80  05 80 B3 80 07 80 B4 80  ................
0330: 05 80 B5 80 07 80 B6 80  05 80 B7 80 07 80 B8 80  ................
0340: 05 80 B9 80 07 80 BA 80  05 80 BB 80 07 80 BC 80  ................
0350: 05 80 BD 80 07 80 BE 80  05 80 BF 80 07 80 C0 80  ................
0360: 05 80 C1 80 07 80 C2 80  05 80 C3 80 07 80 C4 80  ................
0370: 05 80 C5 80 07 80 C6 80  05 80 C7 80 07 80 C8 80  ................
0380: 05 80 C9 80 07 80 CA 80  05 80 CB 80 07 80 CC 80  ................
0390: 05 80 CD 80 07 80 CE 80  05 80 CF 80 07 80 D0 80  ................
03A0: 05 80 D1 80 07 80 D2 80  05 80 D3 80 07 80 D4 80  ................
03B0: 05 80 D5 80 07 80 D6 80  05 80 D7 80 07 80 D8 80  ................
03C0: 05 80 D9 80 07 80 DA 80  05 80 DB 80 07 80 DC 80  ................
03D0: 05 80 DD 80 07 80 DE 80  05 80 DF 80 07 80 E0 80  ................
03E0: 05 80 E1 80 07 80 E2 80  05 80 E3 80 07 80 E4 80  ................
03F0: 05 80 E5 80 07 80 E6 80  05 80 E7 80 07 80 E6 80  ................
0400: 05 80 E8 80 07 80 E9 80  05 80 EA 80 07 80 EB 80  ................
0410: 05 80 EC 80 07 80 E4 80  05 80 ED 80 07 80 EE 80  ................
0420: 05 80 EF 80 07 80 F0 80  05 80 F1 80 07 80 F2 80  ................
0430: 05 80 F3 80 07 80 F2 80  05 80 F4 80 07 80 F5 80  ................
0440: 05 80 F6 80 07 80 F7 80  05 80 F8 80 07 80 F7 80  ................
0450: 05 80 F9 80 07 80 FA 80  05 80 FB 80 07 80 F5 80  ................
0460: 05 80 FC 80 07 80 FD 80  05 80 FE 80 07 80 FF 80  ................
0470: 05 80 00 81 07 80 01 81  05 80 02 81 07 80 03 81  ................
0480: 05 80 04 81 07 80 05 81  05 80 06 81 07 80 07 81  ................
0490: 05 80 08 81 07 80 09 81  05 80 0A 81 07 80 0B 81  ................
04A0: 05 80 0C 81 07 80 0D 81  05 80 0E 81 07 80 0F 81  ................
04B0: 05 80 10 81 07 80 11 81  05 80 12 81 07 80 13 81  ................
04C0: 05 80 14 81 07 80 15 81  05 80 16 81 07 80 17 81  ................
04D0: 05 80 18 81 07 80 19 81  05 80 1A 81 07 80 1B 81  ................
04E0: 05 80 1C 81 07 80 1D 81  05 80 1E 81 07 80 1F 81  ................
04F0: 05 80 20 81 07 80 21 81  05 80 20 81 07 80 22 81  .. ...!... ...".
0500: 05 80 23 81 07 80 24 81  05 80 23 81 07 80 25 81  ..#...$...#...%.
0510: 05 80 20 81 07 80 26 81  05 80 20 81 07 80 27 81  .. ...&... ...'.
0520: 05 80 23 81 07 80 28 81  05 80 1C 81 07 80 29 81  ..#...(.......).
0530: 05 80 2A 81 07 80 2B 81  05 80 2C 81 07 80 2D 81  ..*...+...,...-.
0540: 05 80 1A 81 07 80 2E 81  05 80 2A 81 07 80 2F 81  ..........*.../.
0550: 05 80 1E 81 07 80 30 81  05 80 31 81 07 80 32 81  ......0...1...2.
0560: 05 80 33 81 07 80 34 81  05 80 35 81 07 80 36 81  ..3...4...5...6.
0570: 05 80 37 81 07 80 38 81  05 80 39 81 07 80 3A 81  ..7...8...9...:.
0580: 05 80 3B 81 07 80 3C 81  05 80 3D 81 07 80 3E 81  ..;...<...=...>.
0590: 05 80 3F 81 07 80 40 81  05 80 41 81 07 80 42 81  ..?...@...A...B.
05A0: 05 80 43 81 07 80 44 81  05 80 45 81 07 80 46 81  ..C...D...E...F.
05B0: 05 80 47 81 07 80 46 81  05 80 48 81 07 80 44 81  ..G...F...H...D.
05C0: 05 80 49 81 07 80 4A 81  05 80 4B 81 07 80 4C 81  ..I...J...K...L.
05D0: 05 80 4D 81 07 80 4E 81  05 80 4F 81 07 80 4E 81  ..M...N...O...N.
05E0: 05 80 50 81 07 80 4E 81  05 80 51 81 07 80 4E 81  ..P...N...Q...N.
05F0: 05 80 52 81 07 80 4E 81  05 80 53 81 07 80 54 81  ..R...N...S...T.
0600: 05 80 55 81 07 80 56 81  05 80 57 81 07 80 4A 81  ..U...V...W...J.
0610: 05 80 58 81 07 80 40 81  05 80 59 81 07 80 42 81  ..X...@...Y...B.
0620: 05 80 5A 81 07 80 40 81  05 80 5B 81 07 80 40 81  ..Z...@...[...@.
0630: 05 80 5C 81 07 80 40 81  05 80 5D 81 07 80 44 81  ..\...@...]...D.
0640: 05 80 5E 81 07 80 46 81  05 80 5F 81 07 80 60 81  ..^...F..._...`.
0650: 05 80 61 81 07 80 62 81  05 80 63 81 07 80 64 81  ..a...b...c...d.
0660: 05 80 65 81 07 80 66 81  05 80 67 81 07 80 68 81  ..e...f...g...h.
0670: 05 80 69 81 07 80 6A 81  05 80 6B 81 07 80 6C 81  ..i...j...k...l.
0680: 05 80 6D 81 07 80 6C 81  05 80 6E 81 07 80 6F 81  ..m...l...n...o.
0690: 05 80 70 81 07 80 71 81  05 80 72 81 07 80 73 81  ..p...q...r...s.
06A0: 05 80 74 81 07 80 75 81  05 80 76 81 07 80 77 81  ..t...u...v...w.
06B0: 05 80 78 81 07 80 3C 81  05 80 79 81 07 80 7A 81  ..x...<...y...z.
06C0: 05 80 7B 81 07 80 3A 81  05 80 7C 81 07 80 7D 81  ..{...:...|...}.
06D0: 05 80 7E 81 07 80 7D 81  05 80 7F 81 07 80 80 81  ..~...}.........
06E0: 05 80 81 81 07 80 82 81  05 80 83 81 07 80 84 81  ................
06F0: 05 80 85 81 07 80 86 81  05 80 87 81 07 80 60 81  ..............`.
0700: 05 80 88 81 07 80 89 81  05 80 8A 81 07 80 8B 81  ................
0710: 05 80 8C 81 07 80 8D 81  05 80 8E 81 07 80 8F 81  ................
0720: 05 80 90 81 07 80 91 81  05 80 92 81 07 80 93 81  ................
0730: 05 80 94 81 07 80 95 81  05 80 96 81 07 80 73 81  ..............s.
0740: 05 80 97 81 07 80 98 81  05 80 99 81 07 80 60 81  ..............`.
0750: 05 80 9A 81 07 80 9B 81  05 80 9C 81 07 80 9D 81  ................
0760: 05 80 9E 81 07 80 9F 81  05 80 A0 81 07 80 A1 81  ................
0770: A2 81 A3 81 07 80 A4 81  05 80 A5 81 07 80 A6 81  ................
0780: 05 80 A7 81 07 80 A8 81  05 80 A9 81 07 80 AA 81  ................
0790: 05 80 AB 81 07 80 AC 81  05 80 AD 81 07 80 AE 81  ................
07A0: 05 80 AF 81 07 80 B0 81  05 80 B1 81 07 80 B2 81  ................
07B0: 05 80 B3 81 07 80 B4 81  05 80 B5 81 07 80 B6 81  ................
07C0: 05 80 B7 81 07 80 B8 81  05 80 B9 81 07 80 BA 81  ................
07D0: 05 80 BB 81 07 80 BC 81  BD 81 BE 81 07 80 BF 81  ................
07E0: 05 80 C0 81 07 80 C1 81  05 80 C2 81 07 80 C3 81  ................
07F0: 05 80 C4 81 07 80 C5 81  05 80 C6 81 07 80 C7 81  ................
0800: 05 80 C8 81 07 80 C9 81  05 80 CA 81 07 80 CB 81  ................
0810: 05 80 CC 81 07 80 CD 81  05 80 CE 81 07 80 CF 81  ................
0820: 05 80 D0 81 07 80 D1 81  05 80 D2 81 07 80 D3 81  ................
0830: 05 80 D4 81 07 80 D5 81  05 80 D6 81 07 80 D7 81  ................
0840: 05 80 D8 81 07 80 D9 81  05 80 DA 81 07 80 DB 81  ................
0850: 05 80 DC 81 07 80 DD 81  05 80 DE 81 07 80 DF 81  ................
0860: 05 80 E0 81 07 80 E1 81  05 80 E2 81 07 80 E3 81  ................
0870: 05 80 E4 81 07 80 E5 81  05 80 E4 81 07 80 E6 81  ................
0880: 05 80 E7 81 07 80 E8 81  05 80 E9 81 07 80 EA 81  ................
0890: 05 80 DC 81 07 80 EB 81  05 80 EC 81 07 80 ED 81  ................
08A0: 05 80 EE 81 07 80 EF 81  05 80 D8 81 07 80 F0 81  ................
08B0: 05 80 F1 81 07 80 F2 81  05 80 F3 81 07 80 F4 81  ................
08C0: 05 80 F5 81 07 80 F6 81  05 80 F7 81 07 80 F8 81  ................
08D0: 05 80 E0 81 07 80 F9 81  05 80 FA 81 07 80 FB 81  ................
08E0: 05 80 FA 81 07 80 FC 81  05 80 FD 81 07 80 FE 81  ................
08F0: 05 80 E0 81 07 80 FF 81  05 80 00 82 07 80 01 82  ................
0900: 05 80 00 82 07 80 02 82  05 80 03 82 07 80 04 82  ................
0910: 05 80 FA 81 07 80 05 82  05 80 06 82 07 80 07 82  ................
0920: 05 80 08 82 07 80 09 82  05 80 0A 82 07 80 0B 82  ................
0930: 05 80 0C 82 07 80 0D 82  05 80 0E 82 07 80 0F 82  ................
0940: 05 80 10 82 07 80 11 82  05 80 12 82 07 80 13 82  ................
0950: 05 80 14 82 07 80 15 82  05 80 16 82 07 80 17 82  ................
0960: 05 80 E7 81 07 80 18 82  05 80 E7 81 07 80 19 82  ................
0970: 05 80 E7 81 07 80 1A 82  05 80 DE 81 07 80 1B 82  ................
0980: 05 80 DA 81 07 80 1C 82  05 80 D8 81 07 80 1D 82  ................
0990: 05 80 1E 82 07 80 1F 82  05 80 20 82 07 80 21 82  .......... ...!.
09A0: 05 80 22 82 07 80 23 82  05 80 24 82 07 80 25 82  .."...#...$...%.
09B0: 05 80 26 82 07 80 27 82  05 80 28 82 07 80 27 82  ..&...'...(...'.
09C0: 05 80 29 82 07 80 2A 82  05 80 2B 82 07 80 2C 82  ..)...*...+...,.
09D0: 05 80 2D 82 07 80 2E 82  05 80 2F 82 07 80 30 82  ..-......./...0.
09E0: 05 80 31 82 07 80 32 82  05 80 33 82 07 80 34 82  ..1...2...3...4.
09F0: 05 80 35 82 07 80 36 82  05 80 37 82 07 80 38 82  ..5...6...7...8.
0A00: 05 80 39 82 07 80 3A 82  05 80 3B 82 07 80 3C 82  ..9...:...;...<.
0A10: 05 80 3D 82 07 80 3E 82  05 80 3F 82 07 80 40 82  ..=...>...?...@.
0A20: 05 80 41 82 07 80 42 82  05 80 43 82 07 80 44 82  ..A...B...C...D.
0A30: 05 80 45 82 07 80 46 82  05 80 45 82 07 80 47 82  ..E...F...E...G.
0A40: 05 80 45 82 07 80 48 82  05 80 45 82 07 80 49 82  ..E...H...E...I.
0A50: 05 80 4A 82 07 80 4B 82  05 80 4C 82 07 80 4D 82  ..J...K...L...M.
0A60: 05 80 4C 82 07 80 4E 82  05 80 4F 82 07 80 50 82  ..L...N...O...P.
0A70: 05 80 4F 82 07 80 51 82  05 80 52 82 07 80 53 82  ..O...Q...R...S.
0A80: 05 80 52 82 07 80 54 82  05 80 55 82 07 80 56 82  ..R...T...U...V.
0A90: 05 80 57 82 07 80 58 82  05 80 59 82 07 80 5A 82  ..W...X...Y...Z.
0AA0: 05 80 5B 82 07 80 5C 82  05 80 5D 82 07 80 5E 82  ..[...\...]...^.
0AB0: 05 80 5F 82 07 80 60 82  05 80 61 82 07 80 62 82  .._...`...a...b.
0AC0: 05 80 63 82 07 80 64 82  05 80 65 82 07 80 66 82  ..c...d...e...f.
0AD0: 05 80 67 82 07 80 68 82  05 80 69 82 07 80 6A 82  ..g...h...i...j.
0AE0: 05 80 6B 82 07 80 6C 82  05 80 6D 82 07 80 6E 82  ..k...l...m...n.
0AF0: 05 80 6F 82 07 80 70 82  05 80 71 82 07 80 72 82  ..o...p...q...r.
0B00: 05 80 73 82 07 80 74 82  05 80 75 82 07 80 76 82  ..s...t...u...v.
0B10: 05 80 77 82 07 80 78 82  05 80 79 82 07 80 7A 82  ..w...x...y...z.
0B20: 05 80 7B 82 07 80 7C 82  05 80 7D 82 07 80 7E 82  ..{...|...}...~.
0B30: 05 80 7F 82 07 80 80 82  05 80 81 82 07 80 82 82  ................
0B40: 05 80 83 82 07 80 84 82  05 80 85 82 07 80 86 82  ................
0B50: 05 80 87 82 07 80 88 82  05 80 89 82 07 80 8A 82  ................
0B60: 05 80 8B 82 07 80 8C 82  05 80 8D 82 07 80 8E 82  ................
0B70: 05 80 8F 82 07 80 90 82  05 80 91 82 07 80 92 82  ................
0B80: 05 80 93 82 07 80 94 82  05 80 95 82 07 80 96 82  ................
0B90: 05 80 97 82 07 80 98 82  05 80 99 82 07 80 9A 82  ................
0BA0: 05 80 9B 82 07 80 9C 82  05 80 9D 82 07 80 9E 82  ................
0BB0: 05 80 9F 82 07 80 A0 82  05 80 A1 82 07 80 A2 82  ................
0BC0: 05 80 A3 82 07 80 A2 82  05 80 A4 82 07 80 A5 82  ................
0BD0: 05 80 A6 82 07 80 A7 82  05 80 A8 82 07 80 A9 82  ................
0BE0: 05 80 AA 82 07 80 AB 82  05 80 AC 82 07 80 AD 82  ................
0BF0: 05 80 AE 82 07 80 AF 82  05 80 B0 82 07 80 B1 82  ................
0C00: 05 80 B2 82 07 80 B3 82  05 80 B4 82 07 80 B5 82  ................
0C10: 05 80 B4 82 07 80 B6 82  05 80 B7 82 07 80 B8 82  ................
0C20: 05 80 B9 82 07 80 BA 82  05 80 B9 82 07 80 BB 82  ................
0C30: 05 80 BC 82 07 80 BD 82  05 80 BC 82 07 80 BE 82  ................
0C40: 05 80 BF 82 07 80 C0 82  05 80 BF 82 07 80 C1 82  ................
0C50: 05 80 C2 82 07 80 C3 82  05 80 C4 82 07 80 C5 82  ................
0C60: 05 80 C4 82 07 80 C6 82  05 80 C7 82 07 80 C8 82  ................
0C70: 05 80 C7 82 07 80 C9 82  05 80 C7 82 07 80 CA 82  ................
0C80: 05 80 CB 82 07 80 CC 82  05 80 CD 82 07 80 CE 82  ................
0C90: 05 80 CD 82 07 80 CF 82  05 80 D0 82 07 80 D1 82  ................
0CA0: 05 80 D2 82 07 80 D3 82  05 80 D2 82 07 80 D4 82  ................
0CB0: 05 80 D2 82 07 80 D5 82  05 80 D6 82 07 80 D7 82  ................
0CC0: 05 80 D6 82 07 80 D8 82  05 80 D6 82 07 80 D9 82  ................
0CD0: 05 80 D6 82 07 80 DA 82  05 80 DB 82 07 80 DC 82  ................
0CE0: 05 80 DB 82 07 80 DD 82  05 80 DB 82 07 80 DE 82  ................
0CF0: 05 80 DB 82 07 80 DF 82  05 80 DB 82 07 80 E0 82  ................
0D00: 05 80 DB 82 07 80 E1 82  05 80 DB 82 07 80 E2 82  ................
0D10: 05 80 DB 82 07 80 E3 82  05 80 DB 82 07 80 E4 82  ................
0D20: 05 80 E5 82 07 80 E6 82  05 80 E7 82 07 80 E8 82  ................
0D30: 05 80 E9 82 07 80 EA 82  05 80 EB 82 07 80 EC 82  ................
0D40: 05 80 ED 82 07 80 EE 82  05 80 EF 82 07 80 F0 82  ................
0D50: 05 80 F1 82 07 80 F2 82  05 80 F3 82 07 80 F4 82  ................
0D60: 05 80 F5 82 07 80 F6 82  05 80 F7 82 07 80 F8 82  ................
0D70: 05 80 F9 82 07 80 FA 82  05 80 FB 82 07 80 FC 82  ................
0D80: 05 80 FD 82 07 80 FE 82  05 80 FF 82 07 80 00 83  ................
0D90: 05 80 01 83 07 80 02 83  05 80 03 83 07 80 04 83  ................
0DA0: 05 80 05 83 07 80 06 83  05 80 07 83 07 80 08 83  ................
0DB0: 05 80 09 83 07 80 0A 83  05 80 0B 83 07 80 0C 83  ................
0DC0: 05 80 0D 83 07 80 0E 83  05 80 0F 83 07 80 10 83  ................
0DD0: 05 80 11 83 07 80 12 83  05 80 13 83 07 80 14 83  ................
0DE0: 05 80 15 83 07 80 16 83  05 80 17 83 07 80 18 83  ................
0DF0: 05 80 19 83 07 80 1A 83  05 80 1B 83 07 80 1C 83  ................
0E00: 05 80 1D 83 07 80 1E 83  05 80 1F 83 07 80 20 83  .............. .
0E10: 05 80 21 83 07 80 22 83  05 80 23 83 07 80 24 83  ..!..."...#...$.
0E20: 05 80 25 83 07 80 26 83  05 80 27 83 07 80 28 83  ..%...&...'...(.
0E30: 05 80 29 83 07 80 2A 83  05 80 2B 83 07 80 2C 83  ..)...*...+...,.
0E40: 05 80 2D 83 07 80 2E 83  05 80 2F 83 07 80 30 83  ..-......./...0.
0E50: 05 80 31 83 07 80 32 83  05 80 33 83 07 80 34 83  ..1...2...3...4.
0E60: 05 80 35 83 07 80 34 83  05 80 36 83 07 80 37 83  ..5...4...6...7.
0E70: 05 80 38 83 07 80 37 83  05 80 39 83 07 80 3A 83  ..8...7...9...:.
0E80: 3A 83 3A 83 3A 83 3A 83  3A 83 3A 83 3A 83 3A 83  :.:.:.:.:.:.:.:.
0E90: 3A 83 3A 83 3A 83 3A 83  3A 83 3A 83 3A 83 3A 83  :.:.:.:.:.:.:.:.
0EA0: 3A 83 3A 83 3A 83 3A 83  3A 83 3A 83 3A 83 3A 83  :.:.:.:.:.:.:.:.
0EB0: 3A 83 3A 83 3A 83 3A 83  3A 83 3A 83 3A 83 3A 83  :.:.:.:.:.:.:.:.
0EC0: 03 80 3B 83 01 80 01 80  01 80 01 80 01 80 3C 83  ..;...........<.
0ED0: 3C 83 3C 83 3C 83 3C 83  3D 83 3D 83 3C 83 3C 83  <.<.<.<.=.=.<.<.
0EE0: 3E 83 3F 83 40 83 41 83  40 83 42 83 43 83 3C 83  >.?.@.A.@.B.C.<.
0EF0: 3E 83 44 83 40 83 44 83  45 83 46 83 43 83 3C 83  >.D.@.D.E.F.C.<.
0F00: 46 83 3E 83 47 83 40 83  48 83 49 83 4A 83 3C 83  F.>.G.@.H.I.J.<.
0F10: 3C 83 3D 83 44 83 3E 83  44 83 40 83 3F 83 3C 83  <.=.D.>.D.@.?.<.
0F20: 42 83 49 83 4B 83 4C 83  4D 83 4E 83 4F 83 3C 83  B.I.K.L.M.N.O.<.
0F30: 46 83 3E 83 41 83 45 83  50 83 51 83 52 83 3C 83  F.>.A.E.P.Q.R.<.
0F40: 43 83 42 83 53 83 50 83  54 83 55 83 4E 83 3C 83  C.B.S.P.T.U.N.<.
0F50: 42 83 40 83 48 83 49 83  50 83 51 83 50 83 3C 83  B.@.H.I.P.Q.P.<.
0F60: 44 83 3E 83 41 83 40 83  50 83 56 83 48 83 3C 83  D.>.A.@.P.V.H.<.
0F70: 45 83 3F 83 56 83 41 83  4C 83 50 83 53 83 3C 83  E.?.V.A.L.P.S.<.
0F80: 45 83 47 83 53 83 4B 83  57 83 58 83 59 83 3C 83  E.G.S.K.W.X.Y.<.
0F90: 3F 83 40 83 42 83 51 83  52 83 53 83 52 83 3C 83  ?.@.B.Q.R.S.R.<.
0FA0: 50 83 49 83 5A 83 53 83  5B 83 4E 83 4F 83 3C 83  P.I.Z.S.[.N.O.<.
0FB0: 3D 83 44 83 3E 83 46 83  40 83 3F 83 40 83 3C 83  =.D.>.F.@.?.@.<.
0FC0: 46 83 3E 83 42 83 43 83  50 83 49 83 52 83 3C 83  F.>.B.C.P.I.R.<.
0FD0: 40 83 46 83 43 83 47 83  56 83 50 83 5C 83 3C 83  @.F.C.G.V.P.\.<.
0FE0: 44 83 3E 83 3F 83 45 83  3F 83 43 83 46 83 3C 83  D.>.?.E.?.C.F.<.
0FF0: 46 83 3E 83 42 83 40 83  48 83 45 83 4A 83 3C 83  F.>.B.@.H.E.J.<.
1000: 3F 83 3E 83 46 83 45 83  42 83 45 83 42 83 3C 83  ?.>.F.E.B.E.B.<.
1010: 46 83 40 83 50 83 43 83  52 83 4C 83 4A 83 3C 83  F.@.P.C.R.L.J.<.
1020: 40 83 46 83 43 83 50 83  56 83 48 83 56 83 3C 83  @.F.C.P.V.H.V.<.
1030: 46 83 49 83 50 83 5C 83  4A 83 5C 83 5D 83 3C 83  F.I.P.\.J.\.].<.
1040: 41 83 45 83 48 83 43 83  4B 83 53 83 5D 83 3C 83  A.E.H.C.K.S.].<.
1050: 43 83 47 83 54 83 4B 83  5E 83 5B 83 5F 83 3C 83  C.G.T.K.^.[._.<.
1060: 3C 83 44 83 3D 83 3F 83  3E 83 3F 83 49 83 3C 83  <.D.=.?.>.?.I.<.
1070: 43 83 42 83 4C 83 48 83  60 83 5A 83 59 83 3C 83  C.B.L.H.`.Z.Y.<.
1080: 42 83 45 83 4A 83 43 83  55 83 5C 83 61 83 3C 83  B.E.J.C.U.\.a.<.
1090: 3E 83 3F 83 49 83 46 83  56 83 50 83 56 83 3C 83  >.?.I.F.V.P.V.<.
10A0: 41 83 45 83 52 83 51 83  55 83 57 83 4D 83 3C 83  A.E.R.Q.U.W.M.<.
10B0: 3D 83 3C 83 3C 83 3C 83  3C 83 3C 83 3D 83 3C 83  =.<.<.<.<.<.=.<.
10C0: 3C 83 3C 83 3D 83 44 83  3C 83 44 83 3D 83 3C 83  <.<.=.D.<.D.=.<.
10D0: 56 83 50 83 4C 83 5A 83  62 83 63 83 5E 83 64 83  V.P.L.Z.b.c.^.d.
10E0: 65 83 66 83 07 80 67 83  A2 81 68 83 07 80 69 83  e.f...g...h...i.
10F0: A2 81 6A 83 07 80 6B 83  A2 81 6C 83 07 80 6D 83  ..j...k...l...m.
1100: A2 81 6E 83 07 80 6F 83  A2 81 70 83 07 80 71 83  ..n...o...p...q.
1110: A2 81 72 83 07 80 73 83  A2 81 74 83 07 80 75 83  ..r...s...t...u.
1120: A2 81 76 83 07 80 77 83  A2 81 78 83 07 80 79 83  ..v...w...x...y.
1130: A2 81 7A 83 07 80 7B 83  A2 81 7C 83 07 80 7D 83  ..z...{...|...}.
1140: A2 81 7E 83 07 80 7F 83  A2 81 80 83 07 80 81 83  ..~.............
1150: A2 81 82 83 07 80 83 83  A2 81 84 83 07 80 85 83  ................
1160: A2 81 80 83 07 80 86 83  A2 81 87 83 07 80 88 83  ................
1170: A2 81 89 83 07 80 8A 83  A2 81 8B 83 07 80 8C 83  ................
1180: A2 81 89 83 07 80 8D 83  A2 81 8E 83 07 80 8F 83  ................
1190: A2 81 8E 83 07 80 90 83  A2 81 8E 83 07 80 91 83  ................
11A0: A2 81 87 83 07 80 92 83  A2 81 84 83 07 80 93 83  ................
11B0: A2 81 94 83 07 80 95 83  A2 81 96 83 07 80 97 83  ................
11C0: A2 81 98 83 07 80 99 83  A2 81 9A 83 07 80 9B 83  ................
11D0: A2 81 9C 83 07 80 9D 83  A2 81 9E 83 07 80 9F 83  ................
11E0: A2 81 A0 83 07 80 A1 83  A2 81 A2 83 07 80 A3 83  ................
11F0: A2 81 A4 83 07 80 A5 83  A2 81 A6 83 07 80 A7 83  ................
1200: A2 81 A8 83 07 80 A9 83  A2 81 AA 83 07 80 AB 83  ................
1210: A2 81 AC 83 07 80 AD 83  A2 81 AE 83 07 80 AF 83  ................
1220: A2 81 B0 83 07 80 B1 83  A2 81 B2 83 07 80 B3 83  ................
1230: A2 81 B4 83 07 80 B5 83  A2 81 B6 83 07 80 B7 83  ................
1240: A2 81 B8 83 07 80 B9 83  A2 81 BA 83 07 80 BB 83  ................
1250: A2 81 BC 83 07 80 BD 83  A2 81 BE 83 07 80 BF 83  ................
1260: A2 81 C0 83 07 80 C1 83  A2 81 C2 83 07 80 C3 83  ................
1270: A2 81 C4 83 07 80 C5 83  A2 81 C6 83 07 80 C7 83  ................
1280: A2 81 C8 83 07 80 C9 83  A2 81 CA 83 07 80 CB 83  ................
1290: A2 81 CC 83 07 80 CD 83  A2 81 CE 83 07 80 CF 83  ................
12A0: A2 81 D0 83 07 80 D1 83  A2 81 D2 83 07 80 D3 83  ................
12B0: A2 81 D4 83 07 80 D5 83  A2 81 D4 83 07 80 D6 83  ................
12C0: A2 81 D7 83 07 80 D8 83  A2 81 D9 83 07 80 DA 83  ................
12D0: A2 81 DB 83 07 80 DC 83  A2 81 DD 83 07 80 DE 83  ................
12E0: A2 81 DF 83 07 80 E0 83  A2 81 CE 83 07 80 E1 83  ................
12F0: A2 81 E2 83 07 80 E3 83  A2 81 E4 83 07 80 E5 83  ................
1300: A2 81 E6 83 07 80 E7 83  A2 81 C8 83 07 80 E8 83  ................
1310: A2 81 C4 83 07 80 E9 83  A2 81 C0 83 07 80 EA 83  ................
1320: A2 81 EB 83 07 80 EC 83  A2 81 ED 83 07 80 EE 83  ................
1330: A2 81 EF 83 07 80 F0 83  A2 81 F1 83 07 80 F2 83  ................
1340: A2 81 F3 83 07 80 F4 83  A2 81 F5 83 07 80 F6 83  ................
1350: A2 81 F7 83 07 80 F8 83  A2 81 F9 83 07 80 FA 83  ................
1360: A2 81 FB 83 07 80 FC 83  A2 81 FD 83 07 80 FE 83  ................
1370: A2 81 FF 83 07 80 00 84  A2 81 01 84 07 80 02 84  ................
1380: A2 81 03 84 07 80 04 84  A2 81 05 84 07 80 06 84  ................
1390: A2 81 07 84 07 80 08 84  A2 81 09 84 07 80 06 84  ................
13A0: A2 81 0A 84 07 80 02 84  A2 81 0B 84 07 80 0C 84  ................
13B0: A2 81 0D 84 07 80 0E 84  A2 81 0F 84 07 80 10 84  ................
13C0: A2 81 11 84 07 80 06 84  A2 81 12 84 07 80 13 84  ................
13D0: A2 81 14 84 07 80 15 84  A2 81 16 84 07 80 17 84  ................
13E0: A2 81 18 84 07 80 15 84  A2 81 19 84 07 80 1A 84  ................
13F0: A2 81 1B 84 07 80 1C 84  A2 81 1D 84 07 80 1E 84  ................
1400: A2 81 1F 84 07 80 20 84  A2 81 21 84 07 80 22 84  ...... ...!...".
1410: A2 81 23 84 07 80 24 84  A2 81 25 84 07 80 26 84  ..#...$...%...&.
1420: A2 81 27 84 07 80 28 84  A2 81 29 84 07 80 2A 84  ..'...(...)...*.
1430: A2 81 2B 84 07 80 2C 84  A2 81 2D 84 07 80 2E 84  ..+...,...-.....
1440: A2 81 2F 84 07 80 30 84  A2 81 31 84 07 80 32 84  ../...0...1...2.
1450: A2 81 33 84 07 80 34 84  A2 81 35 84 07 80 36 84  ..3...4...5...6.
1460: A2 81 37 84 07 80 38 84  A2 81 39 84 07 80 3A 84  ..7...8...9...:.
1470: A2 81 3B 84 07 80 3C 84  A2 81 3D 84 07 80 3E 84  ..;...<...=...>.
1480: A2 81 3F 84 07 80 40 84  A2 81 41 84 07 80 42 84  ..?...@...A...B.
1490: A2 81 43 84 07 80 44 84  A2 81 45 84 07 80 46 84  ..C...D...E...F.
14A0: A2 81 47 84 07 80 48 84  A2 81 49 84 07 80 4A 84  ..G...H...I...J.
14B0: A2 81 4B 84 07 80 4C 84  A2 81 4D 84 07 80 4E 84  ..K...L...M...N.
14C0: A2 81 4F 84 07 80 50 84  A2 81 51 84 07 80 50 84  ..O...P...Q...P.
14D0: A2 81 52 84 07 80 50 84  A2 81 53 84 07 80 50 84  ..R...P...S...P.
14E0: A2 81 54 84 07 80 55 84  A2 81 56 84 07 80 57 84  ..T...U...V...W.
14F0: A2 81 58 84 07 80 59 84  A2 81 5A 84 07 80 5B 84  ..X...Y...Z...[.
1500: A2 81 5C 84 07 80 5D 84  A2 81 5E 84 07 80 5F 84  ..\...]...^..._.
1510: A2 81 60 84 07 80 5F 84  A2 81 61 84 07 80 4E 84  ..`..._...a...N.
1520: A2 81 62 84 07 80 5D 84  A2 81 63 84 07 80 64 84  ..b...]...c...d.
1530: A2 81 65 84 07 80 66 84  A2 81 67 84 07 80 68 84  ..e...f...g...h.
1540: A2 81 69 84 07 80 6A 84  A2 81 6B 84 07 80 6C 84  ..i...j...k...l.
1550: A2 81 6D 84 07 80 6E 84  A2 81 6F 84 07 80 70 84  ..m...n...o...p.
1560: A2 81 71 84 07 80 72 84  A2 81 73 84 07 80 74 84  ..q...r...s...t.
1570: A2 81 75 84 07 80 76 84  A2 81 77 84 07 80 78 84  ..u...v...w...x.
1580: A2 81 79 84 07 80 7A 84  A2 81 7B 84 07 80 7C 84  ..y...z...{...|.
1590: A2 81 7D 84 07 80 7E 84  A2 81 7F 84 07 80 80 84  ..}...~.........
15A0: A2 81 81 84 07 80 82 84  A2 81 83 84 07 80 84 84  ................
15B0: A2 81 85 84 07 80 86 84  A2 81 83 84 07 80 87 84  ................
15C0: A2 81 88 84 07 80 89 84  A2 81 8A 84 07 80 8B 84  ................
15D0: A2 81 8A 84 07 80 8C 84  A2 81 8D 84 07 80 8E 84  ................
15E0: A2 81 8A 84 07 80 8F 84  A2 81 81 84 07 80 90 84  ................
15F0: A2 81 91 84 07 80 92 84  A2 81 91 84 07 80 93 84  ................
1600: A2 81 94 84 07 80 95 84  A2 81 91 84 07 80 96 84  ................
1610: A2 81 8D 84 07 80 97 84  A2 81 98 84 07 80 99 84  ................
1620: A2 81 9A 84 07 80 9B 84  A2 81 9C 84 07 80 9D 84  ................
1630: A2 81 9E 84 07 80 9F 84  A2 81 A0 84 07 80 A1 84  ................
1640: A2 81 A2 84 07 80 A3 84  A2 81 A4 84 07 80 A5 84  ................
1650: A2 81 A6 84 07 80 A7 84  A2 81 A8 84 07 80 A9 84  ................
1660: A2 81 AA 84 07 80 AB 84  A2 81 AC 84 07 80 AB 84  ................
1670: A2 81 AD 84 07 80 A9 84  A2 81 AE 84 07 80 A7 84  ................
1680: A2 81 AF 84 07 80 B0 84  A2 81 B1 84 07 80 B2 84  ................
1690: A2 81 B3 84 07 80 B4 84  A2 81 B5 84 07 80 B6 84  ................
16A0: A2 81 B7 84 07 80 B8 84  A2 81 B9 84 07 80 BA 84  ................
16B0: A2 81 BB 84 07 80 BC 84  A2 81 BD 84 07 80 BE 84  ................
16C0: A2 81 BF 84 07 80 C0 84  A2 81 C1 84 07 80 B0 84  ................
16D0: A2 81 C2 84 07 80 C3 84  A2 81 C4 84 07 80 C3 84  ................
16E0: A2 81 C5 84 07 80 C3 84  A2 81 C6 84 07 80 C7 84  ................
16F0: A2 81 C8 84 07 80 C9 84  A2 81 CA 84 07 80 C9 84  ................
1700: A2 81 CB 84 07 80 AB 84  A2 81 CC 84 07 80 CD 84  ................
1710: A2 81 CE 84 07 80 CF 84  A2 81 D0 84 07 80 D1 84  ................
1720: A2 81 D2 84 07 80 D3 84  A2 81 D4 84 07 80 D5 84  ................
1730: A2 81 D6 84 07 80 D7 84  A2 81 D8 84 07 80 D9 84  ................
1740: A2 81 DA 84 07 80 DB 84  A2 81 DC 84 07 80 DD 84  ................
1750: A2 81 DE 84 07 80 D1 84  A2 81 DF 84 07 80 E0 84  ................
1760: A2 81 E1 84 07 80 B0 84  A2 81 E2 84 07 80 C0 84  ................
1770: A2 81 E3 84 07 80 E4 84  A2 81 E5 84 07 80 E6 84  ................
1780: A2 81 E7 84 07 80 E8 84  A2 81 E9 84 07 80 EA 84  ................
1790: A2 81 EB 84 07 80 EA 84  A2 81 EC 84 07 80 ED 84  ................
17A0: A2 81 EE 84 07 80 EF 84  A2 81 F0 84 07 80 F1 84  ................
17B0: A2 81 F2 84 07 80 F3 84  A2 81 F4 84 07 80 F5 84  ................
17C0: A2 81 F6 84 07 80 F7 84  A2 81 F8 84 07 80 CF 84  ................
17D0: A2 81 F9 84 07 80 FA 84  A2 81 FB 84 07 80 FC 84  ................
17E0: A2 81 FD 84 07 80 FE 84  A2 81 FF 84 07 80 00 85  ................
17F0: A2 81 01 85 07 80 02 85  A2 81 03 85 07 80 04 85  ................
1800: A2 81 05 85 07 80 06 85  A2 81 07 85 07 80 08 85  ................
