# 17064050 - Boirie

## Common Data

| Field            | Value                    |
|------------------|--------------------------|
| Zone             | Chocobo Circuit (ID: 70) |
| Block Size       | 508 bytes                |
| Total Events     | 2                        |
| References Count | 30                       |

## List of Events

| Event ID              | Entrypoint   |   Size |   Instructions |
|-----------------------|--------------|--------|----------------|
| [65535](#event-65535) | 0x0000       |      1 |              1 |
| [266](#event-266)     | 0x0001       |    360 |             76 |

## DAT References (imed_data)

|   Index | Hex Value   |   Dec Value |
|---------|-------------|-------------|
|       0 | 0x0000      |           0 |
|       1 | 0x23E7      |        9191 |
|       2 | 0x0032      |          50 |
|       3 | 0x038C      |         908 |
|       4 | 0x23E8      |        9192 |
|       5 | 0x0001      |           1 |
|       6 | 0x23EA      |        9194 |
|       7 | 0x0010      |          16 |
|       8 | 0x23EB      |        9195 |
|       9 | 0x23E9      |        9193 |
|      10 | 0x0011      |          17 |
|      11 | 0x18FC      |        6396 |
|      12 | 0x23EE      |        9198 |
|      13 | 0x00C8      |         200 |
|      14 | 0x0012      |          18 |
|      15 | 0xFFFF1331  |  4294906673 |
|      16 | 0xFFFE1575  |  4294841717 |
|      17 | 0xFFFFC75C  |  4294952796 |
|      18 | 0xFFFFFC00  |  4294966272 |
|      19 | 0x0002      |           2 |
|      20 | 0xFFFF74C1  |  4294931649 |
|      21 | 0x0003      |           3 |
|      22 | 0xFFFEB7D9  |  4294883289 |
|      23 | 0x0004      |           4 |
|      24 | 0xFFFFD2FD  |  4294955773 |
|      25 | 0x0005      |           5 |
|      26 | 0xFFFE5A55  |  4294859349 |
|      27 | 0x003C      |          60 |
|      28 | 0x23EC      |        9196 |
|      29 | 0x005A      |          90 |

## String References

- **6396**: You do not have enough gil.
- **9191**: This is the entrance to the grandstand. You'll be able to take in every sight and spectacle of the race from here!
- **9192**: To enter, please either show your $3 or pay an admission fee of $0 gil.
- **9193**: Pay the admission fee? [Yes./No.]
- **9194**: Enter the grounds? [Sure./Not right now.]
- **9195**: You hand the $3 to %.
- **9196**: Go right ahead, [sir/ma'am]. Enjoy the races!
- **9198**: Please note that once you exit, you will be required to pay an additional admission fee to reenter.

## Events

### Event 65535

#### Metadata

| Field        | Value   |
|--------------|---------|
| Entrypoint   | 0x0000  |
| Data Size    | 1 bytes |
| Instructions | 1       |

```
      00 01 02 03 04 05 06 07  08 09 0A 0B 0C 0D 0E 0F
      -- -- -- -- -- -- -- --  -- -- -- -- -- -- -- --
0000: 00                                                .               
```

#### Opcodes

```
  0: 0x0000 [0x00] END_REQSTACK()
```

### Event 266

#### Metadata

| Field        | Value     |
|--------------|-----------|
| Entrypoint   | 0x0001    |
| Data Size    | 360 bytes |
| Instructions | 76        |

```
      00 01 02 03 04 05 06 07  08 09 0A 0B 0C 0D 0E 0F
      -- -- -- -- -- -- -- --  -- -- -- -- -- -- -- --
0000:    03 00 00 02 10 03 01  00 03 10 02 04 10 00 80   ...............
0010: 01 22 00 4A F8 FF FF 7F  F0 FF FF 7F 1A A0 00 01  .".J............
0020: 9E 00 4A F8 FF FF 7F F0  FF FF 7F 1D 01 80 23 03  ..J...........#.
0030: 02 10 02 80 03 03 10 03  80 1D 04 80 23 02 00 00  ............#...
0040: 05 80 00 70 00 24 06 80  05 80 00 80 25 02 00 10  ...p.$......%...
0050: 00 80 00 6D 00 03 01 10  07 80 43 00 43 01 03 03  ...m......C.C...
0060: 10 03 80 48 08 80 23 1A  A0 00 01 6D 00 01 9E 00  ...H..#....m....
0070: 24 09 80 05 80 00 80 25  02 00 10 00 80 00 9E 00  $......%........
0080: 03 01 10 0A 80 43 00 43  01 02 02 10 00 80 00 97  .....C.C........
0090: 00 1A A0 00 01 9B 00 48  0B 80 23 01 9E 00 21 00  .......H..#...!.
00A0: 42 1D 0C 80 23 45 0D 80  F8 FF FF 7F F8 FF FF 7F  B...#E..........
00B0: 66 64 6F 31 00 80 55 0D  80 F8 FF FF 7F F8 FF FF  fdo1..U.........
00C0: 7F 66 64 6F 31 03 01 10  0E 80 02 01 00 05 80 80  .fdo1...........
00D0: E1 00 47 00 0F 80 10 80  11 80 12 80 47 01 01 49  ..G.........G..I
00E0: 01 02 01 00 13 80 80 F8  00 47 00 14 80 10 80 11  .........G......
00F0: 80 12 80 47 01 01 49 01  02 01 00 15 80 80 0F 01  ...G..I.........
0100: 47 00 16 80 10 80 11 80  12 80 47 01 01 49 01 02  G.........G..I..
0110: 01 00 17 80 80 26 01 47  00 18 80 10 80 11 80 12  .....&.G........
0120: 80 47 01 01 49 01 02 01  00 19 80 80 3D 01 47 00  .G..I.......=.G.
0130: 1A 80 10 80 11 80 12 80  47 01 01 49 01 47 00 0F  ........G..I.G..
0140: 80 10 80 11 80 12 80 47  01 1C 1B 80 1D 1C 80 23  .......G.......#
0150: 1C 1B 80 45 0D 80 F8 FF  FF 7F F8 FF FF 7F 66 64  ...E..........fd
0160: 69 32 00 80 1C 1D 80 2E  1B                       i2.......       
```

#### Opcodes

```
  0: 0x0001 [0x03] ExtData[1]->WorkLocal[0] = Work_Zone[2]
  1: 0x0006 [0x03] ExtData[1]->WorkLocal[1] = Work_Zone[3]
  2: 0x000B [0x02] IF !(Work_Zone[4] == 0*) GOTO 0x0022
  3: 0x0013 [0x4A] EventEntity looks at LocalPlayer
  4: 0x001C [0x1A] CALL_SUBROUTINE(address=0x00A0)
  5: 0x001F [0x01] GOTO 0x009E
  6: 0x0022 [0x4A] EventEntity looks at LocalPlayer
  7: 0x002B [0x1D] PRINT_EVENT_MESSAGE(message_id=9191*)
    → "This is the entrance to the grandstand. You'll be able to take in every sight and spectacle of the race from here!"
  8: 0x002E [0x23] WAIT_FOR_DIALOG_INTERACTION
  9: 0x002F [0x03] Work_Zone[2] = 50*
 10: 0x0034 [0x03] Work_Zone[3] = 908*
 11: 0x0039 [0x1D] PRINT_EVENT_MESSAGE(message_id=9192*)
    → "To enter, please either show your $3 or pay an admission fee of $0 gil."
 12: 0x003C [0x23] WAIT_FOR_DIALOG_INTERACTION
 13: 0x003D [0x02] IF !(ExtData[1]->WorkLocal[0] == 1*) GOTO 0x0070
 14: 0x0045 [0x24] CREATE_DIALOG(message_id=9194*, default_option=1*, option_flags=0*)
    → "Enter the grounds? [Sure./Not right now.]"
 15: 0x004C [0x25] WAIT_DIALOG_SELECT()
 16: 0x004D [0x02] IF !(Work_Zone[0] == 0*) GOTO 0x006D
 17: 0x0055 [0x03] Work_Zone[1] = 16*
 18: 0x005A [0x43] SEND_EVENT_UPDATE: Send pending tag to server (packet 0x005B)
 19: 0x005C [0x43] SEND_EVENT_UPDATE: Check pending flag (skip if not pending)
 20: 0x005E [0x03] Work_Zone[3] = 908*
 21: 0x0063 [0x48] [System] [9195*]:
    → "You hand the $3 to %."
 22: 0x0066 [0x23] WAIT_FOR_DIALOG_INTERACTION
 23: 0x0067 [0x1A] CALL_SUBROUTINE(address=0x00A0)
 24: 0x006A [0x01] GOTO 0x006D

SUBROUTINE_006D:
 25: 0x006D [0x01] GOTO 0x009E
 26: 0x0070 [0x24] CREATE_DIALOG(message_id=9193*, default_option=1*, option_flags=0*)
    → "Pay the admission fee? [Yes./No.]"
 27: 0x0077 [0x25] WAIT_DIALOG_SELECT()
 28: 0x0078 [0x02] IF !(Work_Zone[0] == 0*) GOTO 0x009E
 29: 0x0080 [0x03] Work_Zone[1] = 17*
 30: 0x0085 [0x43] SEND_EVENT_UPDATE: Send pending tag to server (packet 0x005B)
 31: 0x0087 [0x43] SEND_EVENT_UPDATE: Check pending flag (skip if not pending)
 32: 0x0089 [0x02] IF !(Work_Zone[2] == 0*) GOTO 0x0097
 33: 0x0091 [0x1A] CALL_SUBROUTINE(address=0x00A0)
 34: 0x0094 [0x01] GOTO 0x009B
 35: 0x0097 [0x48] [System] [6396*]:
    → "You do not have enough gil."
 36: 0x009A [0x23] WAIT_FOR_DIALOG_INTERACTION

SUBROUTINE_009B:
 37: 0x009B [0x01] GOTO 0x009E

SUBROUTINE_009E:
 38: 0x009E [0x21] END_EVENT
 39: 0x009F [0x00] END_REQSTACK()

SUBROUTINE_00A0:
 40: 0x00A0 [0x42] SET_CLI_EVENT_CANCEL_DATA()
 41: 0x00A1 [0x1D] PRINT_EVENT_MESSAGE(message_id=9198*)
    → "Please note that once you exit, you will be required to pay an additional admission fee to reenter."
 42: 0x00A4 [0x23] WAIT_FOR_DIALOG_INTERACTION
 43: 0x00A5 [0x45] LOAD_SCHEDULED_TASK: Load scheduler "fdo1" with entities [EventEntity, EventEntity], work=[200*, 0*]
 44: 0x00B6 [0x55] WAIT_LOAD_SCHEDULER: Wait for scheduler "fdo1" with entities [EventEntity, EventEntity], work=200*
 45: 0x00C5 [0x03] Work_Zone[1] = 18*
 46: 0x00CA [0x02] IF !(ExtData[1]->WorkLocal[1] == 1*) GOTO 0x00E1
 47: 0x00D2 [0x47] UPDATE_PLAYER_POS(-60.623*, -125.579*, -14.500*, yaw=377476129.2°*)
 48: 0x00DC [0x47] WAIT_PLAYER_POS_UPDATE
 49: 0x00DE [0x01] GOTO 0x0149
 50: 0x00E1 [0x02] IF !(ExtData[1]->WorkLocal[1] == 2*) GOTO 0x00F8
 51: 0x00E9 [0x47] UPDATE_PLAYER_POS(-35.647*, -125.579*, -14.500*, yaw=377476129.2°*)
 52: 0x00F3 [0x47] WAIT_PLAYER_POS_UPDATE
 53: 0x00F5 [0x01] GOTO 0x0149
 54: 0x00F8 [0x02] IF !(ExtData[1]->WorkLocal[1] == 3*) GOTO 0x010F
 55: 0x0100 [0x47] UPDATE_PLAYER_POS(-84.007*, -125.579*, -14.500*, yaw=377476129.2°*)
 56: 0x010A [0x47] WAIT_PLAYER_POS_UPDATE
 57: 0x010C [0x01] GOTO 0x0149
 58: 0x010F [0x02] IF !(ExtData[1]->WorkLocal[1] == 4*) GOTO 0x0126
 59: 0x0117 [0x47] UPDATE_PLAYER_POS(-11.523*, -125.579*, -14.500*, yaw=377476129.2°*)
 60: 0x0121 [0x47] WAIT_PLAYER_POS_UPDATE
 61: 0x0123 [0x01] GOTO 0x0149
 62: 0x0126 [0x02] IF !(ExtData[1]->WorkLocal[1] == 5*) GOTO 0x013D
 63: 0x012E [0x47] UPDATE_PLAYER_POS(-107.947*, -125.579*, -14.500*, yaw=377476129.2°*)
 64: 0x0138 [0x47] WAIT_PLAYER_POS_UPDATE
 65: 0x013A [0x01] GOTO 0x0149
 66: 0x013D [0x47] UPDATE_PLAYER_POS(-60.623*, -125.579*, -14.500*, yaw=377476129.2°*)
 67: 0x0147 [0x47] WAIT_PLAYER_POS_UPDATE

SUBROUTINE_0149:
 68: 0x0149 [0x1C] WAIT(60* ticks)
 69: 0x014C [0x1D] PRINT_EVENT_MESSAGE(message_id=9196*)
    → "Go right ahead, [sir/ma'am]. Enjoy the races!"
 70: 0x014F [0x23] WAIT_FOR_DIALOG_INTERACTION
 71: 0x0150 [0x1C] WAIT(60* ticks)
 72: 0x0153 [0x45] LOAD_SCHEDULED_TASK: Load scheduler "fdi2" with entities [EventEntity, EventEntity], work=[200*, 0*]
 73: 0x0164 [0x1C] WAIT(90* ticks)
 74: 0x0167 [0x2E] SET_CLI_EVENT_CANCEL_FLAGS()
 75: 0x0168 [0x1B] RETURN
```
