# 17063973 - cameraB

## Common Data

| Field            | Value                    |
|------------------|--------------------------|
| Zone             | Chocobo Circuit (ID: 70) |
| Block Size       | 1032 bytes               |
| Total Events     | 7                        |
| References Count | 41                       |

## List of Events

| Event ID                 | Entrypoint   |   Size |   Instructions |
|--------------------------|--------------|--------|----------------|
| [65535](#event-65535)    | 0x0000       |      1 |              1 |
| [116](#event-116)        | 0x0001       |      1 |              1 |
| [115](#event-115)        | 0x0002       |      1 |              1 |
| [65535.1](#event-655351) | 0x0003       |      1 |              1 |
| [210](#event-210)        | 0x0004       |      1 |              1 |
| [100](#event-100)        | 0x0005       |      1 |              1 |
| [65535.2](#event-655352) | 0x0006       |    817 |            103 |

## DAT References (imed_data)

|   Index | Hex Value   |   Dec Value |
|---------|-------------|-------------|
|       0 | 0x0000      |           0 |
|       1 | 0x23A50     |      146000 |
|       2 | 0xFFFFF830  |  4294965296 |
|       3 | 0xC564      |       50532 |
|       4 | 0x0D7A      |        3450 |
|       5 | 0x0001      |           1 |
|       6 | 0x0002      |           2 |
|       7 | 0xFFFDC5B0  |  4294821296 |
|       8 | 0x07D0      |        2000 |
|       9 | 0xC8D1      |       51409 |
|      10 | 0x0003      |           3 |
|      11 | 0x0004      |           4 |
|      12 | 0x0005      |           5 |
|      13 | 0x0006      |           6 |
|      14 | 0x0007      |           7 |
|      15 | 0x0008      |           8 |
|      16 | 0x0009      |           9 |
|      17 | 0x000A      |          10 |
|      18 | 0x000B      |          11 |
|      19 | 0x000C      |          12 |
|      20 | 0x000D      |          13 |
|      21 | 0x000E      |          14 |
|      22 | 0x000F      |          15 |
|      23 | 0x0010      |          16 |
|      24 | 0x0011      |          17 |
|      25 | 0x0012      |          18 |
|      26 | 0x0013      |          19 |
|      27 | 0x0014      |          20 |
|      28 | 0x0015      |          21 |
|      29 | 0x0016      |          22 |
|      30 | 0x0017      |          23 |
|      31 | 0x0018      |          24 |
|      32 | 0x0019      |          25 |
|      33 | 0x001A      |          26 |
|      34 | 0x001B      |          27 |
|      35 | 0x001C      |          28 |
|      36 | 0x001D      |          29 |
|      37 | 0x001E      |          30 |
|      38 | 0x001F      |          31 |
|      39 | 0x0020      |          32 |
|      40 | 0x0021      |          33 |

## Events

### Event 65535

#### Metadata

| Field        | Value   |
|--------------|---------|
| Entrypoint   | 0x0000  |
| Data Size    | 1 bytes |
| Instructions | 1       |

```
      00 01 02 03 04 05 06 07  08 09 0A 0B 0C 0D 0E 0F
      -- -- -- -- -- -- -- --  -- -- -- -- -- -- -- --
0000: 00                                                .               
```

#### Opcodes

```
  0: 0x0000 [0x00] END_REQSTACK()
```

### Event 116

#### Metadata

| Field        | Value   |
|--------------|---------|
| Entrypoint   | 0x0001  |
| Data Size    | 1 bytes |
| Instructions | 1       |

```
      00 01 02 03 04 05 06 07  08 09 0A 0B 0C 0D 0E 0F
      -- -- -- -- -- -- -- --  -- -- -- -- -- -- -- --
0000:    00                                              .              
```

#### Opcodes

```
  0: 0x0001 [0x00] END_REQSTACK()
```

### Event 115

#### Metadata

| Field        | Value   |
|--------------|---------|
| Entrypoint   | 0x0002  |
| Data Size    | 1 bytes |
| Instructions | 1       |

```
      00 01 02 03 04 05 06 07  08 09 0A 0B 0C 0D 0E 0F
      -- -- -- -- -- -- -- --  -- -- -- -- -- -- -- --
0000:       00                                            .             
```

#### Opcodes

```
  0: 0x0002 [0x00] END_REQSTACK()
```

### Event 65535.1

#### Metadata

| Field        | Value   |
|--------------|---------|
| Entrypoint   | 0x0003  |
| Data Size    | 1 bytes |
| Instructions | 1       |

```
      00 01 02 03 04 05 06 07  08 09 0A 0B 0C 0D 0E 0F
      -- -- -- -- -- -- -- --  -- -- -- -- -- -- -- --
0000:          00                                          .            
```

#### Opcodes

```
  0: 0x0003 [0x00] END_REQSTACK()
```

### Event 210

#### Metadata

| Field        | Value   |
|--------------|---------|
| Entrypoint   | 0x0004  |
| Data Size    | 1 bytes |
| Instructions | 1       |

```
      00 01 02 03 04 05 06 07  08 09 0A 0B 0C 0D 0E 0F
      -- -- -- -- -- -- -- --  -- -- -- -- -- -- -- --
0000:             00                                        .           
```

#### Opcodes

```
  0: 0x0004 [0x00] END_REQSTACK()
```

### Event 100

#### Metadata

| Field        | Value   |
|--------------|---------|
| Entrypoint   | 0x0005  |
| Data Size    | 1 bytes |
| Instructions | 1       |

```
      00 01 02 03 04 05 06 07  08 09 0A 0B 0C 0D 0E 0F
      -- -- -- -- -- -- -- --  -- -- -- -- -- -- -- --
0000:                00                                      .          
```

#### Opcodes

```
  0: 0x0005 [0x00] END_REQSTACK()
```

### Event 65535.2

#### Metadata

| Field        | Value     |
|--------------|-----------|
| Entrypoint   | 0x0006    |
| Data Size    | 817 bytes |
| Instructions | 69        |

```
      00 01 02 03 04 05 06 07  08 09 0A 0B 0C 0D 0E 0F
      -- -- -- -- -- -- -- --  -- -- -- -- -- -- -- --
0000:                   02 29  10 00 80 80 1E 00 BA 25        .).......%
0010: 60 04 01 01 80 02 80 03  80 04 80 01 36 03 02 29  `...........6..)
0020: 10 05 80 80 36 00 BA 25  60 04 01 01 80 02 80 03  ....6..%`.......
0030: 80 04 80 01 36 03 02 29  10 06 80 80 4E 00 BA 25  ....6..)....N..%
0040: 60 04 01 07 80 08 80 09  80 04 80 01 36 03 02 29  `...........6..)
0050: 10 0A 80 80 66 00 BA 25  60 04 01 07 80 08 80 09  ....f..%`.......
0060: 80 04 80 01 36 03 02 29  10 0B 80 80 7E 00 BA 25  ....6..)....~..%
0070: 60 04 01 07 80 08 80 09  80 04 80 01 36 03 02 29  `...........6..)
0080: 10 0C 80 80 96 00 BA 25  60 04 01 07 80 08 80 09  .......%`.......
0090: 80 04 80 01 36 03 02 29  10 0D 80 80 AE 00 BA 25  ....6..).......%
00A0: 60 04 01 07 80 08 80 09  80 04 80 01 36 03 02 29  `...........6..)
00B0: 10 0E 80 80 C6 00 BA 25  60 04 01 07 80 08 80 09  .......%`.......
00C0: 80 04 80 01 36 03 02 29  10 0F 80 80 DE 00 BA 25  ....6..).......%
00D0: 60 04 01 07 80 08 80 09  80 04 80 01 36 03 02 29  `...........6..)
00E0: 10 10 80 80 F6 00 BA 25  60 04 01 07 80 08 80 09  .......%`.......
00F0: 80 04 80 01 36 03 02 29  10 11 80 80 0E 01 BA 25  ....6..).......%
0100: 60 04 01 07 80 08 80 09  80 04 80 01 36 03 02 29  `...........6..)
0110: 10 12 80 80 26 01 BA 25  60 04 01 07 80 08 80 09  ....&..%`.......
0120: 80 04 80 01 36 03 02 29  10 13 80 80 3E 01 BA 25  ....6..)....>..%
0130: 60 04 01 07 80 08 80 09  80 04 80 01 36 03 02 29  `...........6..)
0140: 10 14 80 80 56 01 BA 25  60 04 01 07 80 08 80 09  ....V..%`.......
0150: 80 04 80 01 36 03 02 29  10 15 80 80 6E 01 BA 25  ....6..)....n..%
0160: 60 04 01 07 80 08 80 09  80 04 80 01 36 03 02 29  `...........6..)
0170: 10 16 80 80 86 01 BA 25  60 04 01 07 80 08 80 09  .......%`.......
0180: 80 04 80 01 36 03 02 29  10 17 80 80 9E 01 BA 25  ....6..).......%
0190: 60 04 01 07 80 08 80 09  80 04 80 01 36 03 02 29  `...........6..)
01A0: 10 18 80 80 B6 01 BA 25  60 04 01 07 80 08 80 09  .......%`.......
01B0: 80 04 80 01 36 03 02 29  10 19 80 80 CE 01 BA 25  ....6..).......%
01C0: 60 04 01 01 80 02 80 03  80 04 80 01 36 03 02 29  `...........6..)
01D0: 10 1A 80 80 E6 01 BA 25  60 04 01 01 80 02 80 03  .......%`.......
01E0: 80 04 80 01 36 03 02 29  10 1B 80 80 FE 01 BA 25  ....6..).......%
01F0: 60 04 01 01 80 02 80 03  80 04 80 01 36 03 02 29  `...........6..)
0200: 10 1C 80 80 16 02 BA 25  60 04 01 01 80 02 80 03  .......%`.......
0210: 80 04 80 01 36 03 02 29  10 1D 80 80 2E 02 01 36  ....6..).......6
0220: 03 BA 25 60 04 01 01 80  02 80 03 80 04 80 02 29  ..%`...........)
0230: 10 1E 80 80 46 02 BA 25  60 04 01 01 80 02 80 03  ....F..%`.......
0240: 80 04 80 01 36 03 02 29  10 1F 80 80 5E 02 BA 25  ....6..)....^..%
0250: 60 04 01 01 80 02 80 03  80 04 80 01 36 03 02 29  `...........6..)
0260: 10 20 80 80 76 02 BA 25  60 04 01 01 80 02 80 03  . ..v..%`.......
0270: 80 04 80 01 36 03 02 29  10 21 80 80 8E 02 BA 25  ....6..).!.....%
0280: 60 04 01 01 80 02 80 03  80 04 80 01 36 03 02 29  `...........6..)
0290: 10 22 80 80 A6 02 BA 25  60 04 01 01 80 02 80 03  .".....%`.......
02A0: 80 04 80 01 36 03 02 29  10 23 80 80 BE 02 BA 25  ....6..).#.....%
02B0: 60 04 01 01 80 02 80 03  80 04 80 01 36 03 02 29  `...........6..)
02C0: 10 24 80 80 D6 02 BA 25  60 04 01 01 80 02 80 03  .$.....%`.......
02D0: 80 04 80 01 36 03 02 29  10 25 80 80 EE 02 BA 25  ....6..).%.....%
02E0: 60 04 01 01 80 02 80 03  80 04 80 01 36 03 02 29  `...........6..)
02F0: 10 26 80 80 06 03 BA 25  60 04 01 01 80 02 80 03  .&.....%`.......
0300: 80 04 80 01 36 03 02 29  10 27 80 80 1E 03 BA 25  ....6..).'.....%
0310: 60 04 01 01 80 02 80 03  80 04 80 01 36 03 02 29  `...........6..)
0320: 10 28 80 80 36 03 BA 25  60 04 01 01 80 02 80 03  .(..6..%`.......
0330: 80 04 80 01 36 03 00                              ....6..         
```

#### Opcodes

```
  0: 0x0006 [0x02] IF !(Work_Zone[41] == 0*) GOTO 0x001E
  1: 0x000E [0xBA] SET_ENTITY_POSITION(entity_id=cameraB (ID: 17063973/0x01046025), pos_x=146.000*, pos_z=-2.000*, pos_y=50.532*, direction=303.2°*)
  2: 0x001B [0x01] GOTO 0x0336
  3: 0x001E [0x02] IF !(Work_Zone[41] == 1*) GOTO 0x0036
  4: 0x0026 [0xBA] SET_ENTITY_POSITION(entity_id=cameraB (ID: 17063973/0x01046025), pos_x=146.000*, pos_z=-2.000*, pos_y=50.532*, direction=303.2°*)
  5: 0x0033 [0x01] GOTO 0x0336
  6: 0x0036 [0x02] IF !(Work_Zone[41] == 2*) GOTO 0x004E
  7: 0x003E [0xBA] SET_ENTITY_POSITION(entity_id=cameraB (ID: 17063973/0x01046025), pos_x=-146.000*, pos_z=2.000*, pos_y=51.409*, direction=303.2°*)
  8: 0x004B [0x01] GOTO 0x0336
  9: 0x004E [0x02] IF !(Work_Zone[41] == 3*) GOTO 0x0066
 10: 0x0056 [0xBA] SET_ENTITY_POSITION(entity_id=cameraB (ID: 17063973/0x01046025), pos_x=-146.000*, pos_z=2.000*, pos_y=51.409*, direction=303.2°*)
 11: 0x0063 [0x01] GOTO 0x0336
 12: 0x0066 [0x02] IF !(Work_Zone[41] == 4*) GOTO 0x007E
 13: 0x006E [0xBA] SET_ENTITY_POSITION(entity_id=cameraB (ID: 17063973/0x01046025), pos_x=-146.000*, pos_z=2.000*, pos_y=51.409*, direction=303.2°*)
 14: 0x007B [0x01] GOTO 0x0336
 15: 0x007E [0x02] IF !(Work_Zone[41] == 5*) GOTO 0x0096
 16: 0x0086 [0xBA] SET_ENTITY_POSITION(entity_id=cameraB (ID: 17063973/0x01046025), pos_x=-146.000*, pos_z=2.000*, pos_y=51.409*, direction=303.2°*)
 17: 0x0093 [0x01] GOTO 0x0336
 18: 0x0096 [0x02] IF !(Work_Zone[41] == 6*) GOTO 0x00AE
 19: 0x009E [0xBA] SET_ENTITY_POSITION(entity_id=cameraB (ID: 17063973/0x01046025), pos_x=-146.000*, pos_z=2.000*, pos_y=51.409*, direction=303.2°*)
 20: 0x00AB [0x01] GOTO 0x0336
 21: 0x00AE [0x02] IF !(Work_Zone[41] == 7*) GOTO 0x00C6
 22: 0x00B6 [0xBA] SET_ENTITY_POSITION(entity_id=cameraB (ID: 17063973/0x01046025), pos_x=-146.000*, pos_z=2.000*, pos_y=51.409*, direction=303.2°*)
 23: 0x00C3 [0x01] GOTO 0x0336
 24: 0x00C6 [0x02] IF !(Work_Zone[41] == 8*) GOTO 0x00DE
 25: 0x00CE [0xBA] SET_ENTITY_POSITION(entity_id=cameraB (ID: 17063973/0x01046025), pos_x=-146.000*, pos_z=2.000*, pos_y=51.409*, direction=303.2°*)
 26: 0x00DB [0x01] GOTO 0x0336
 27: 0x00DE [0x02] IF !(Work_Zone[41] == 9*) GOTO 0x00F6
 28: 0x00E6 [0xBA] SET_ENTITY_POSITION(entity_id=cameraB (ID: 17063973/0x01046025), pos_x=-146.000*, pos_z=2.000*, pos_y=51.409*, direction=303.2°*)
 29: 0x00F3 [0x01] GOTO 0x0336
 30: 0x00F6 [0x02] IF !(Work_Zone[41] == 10*) GOTO 0x010E
 31: 0x00FE [0xBA] SET_ENTITY_POSITION(entity_id=cameraB (ID: 17063973/0x01046025), pos_x=-146.000*, pos_z=2.000*, pos_y=51.409*, direction=303.2°*)
 32: 0x010B [0x01] GOTO 0x0336
 33: 0x010E [0x02] IF !(Work_Zone[41] == 11*) GOTO 0x0126
 34: 0x0116 [0xBA] SET_ENTITY_POSITION(entity_id=cameraB (ID: 17063973/0x01046025), pos_x=-146.000*, pos_z=2.000*, pos_y=51.409*, direction=303.2°*)
 35: 0x0123 [0x01] GOTO 0x0336
 36: 0x0126 [0x02] IF !(Work_Zone[41] == 12*) GOTO 0x013E
 37: 0x012E [0xBA] SET_ENTITY_POSITION(entity_id=cameraB (ID: 17063973/0x01046025), pos_x=-146.000*, pos_z=2.000*, pos_y=51.409*, direction=303.2°*)
 38: 0x013B [0x01] GOTO 0x0336
 39: 0x013E [0x02] IF !(Work_Zone[41] == 13*) GOTO 0x0156
 40: 0x0146 [0xBA] SET_ENTITY_POSITION(entity_id=cameraB (ID: 17063973/0x01046025), pos_x=-146.000*, pos_z=2.000*, pos_y=51.409*, direction=303.2°*)
 41: 0x0153 [0x01] GOTO 0x0336
 42: 0x0156 [0x02] IF !(Work_Zone[41] == 14*) GOTO 0x016E
 43: 0x015E [0xBA] SET_ENTITY_POSITION(entity_id=cameraB (ID: 17063973/0x01046025), pos_x=-146.000*, pos_z=2.000*, pos_y=51.409*, direction=303.2°*)
 44: 0x016B [0x01] GOTO 0x0336
 45: 0x016E [0x02] IF !(Work_Zone[41] == 15*) GOTO 0x0186
 46: 0x0176 [0xBA] SET_ENTITY_POSITION(entity_id=cameraB (ID: 17063973/0x01046025), pos_x=-146.000*, pos_z=2.000*, pos_y=51.409*, direction=303.2°*)
 47: 0x0183 [0x01] GOTO 0x0336
 48: 0x0186 [0x02] IF !(Work_Zone[41] == 16*) GOTO 0x019E
 49: 0x018E [0xBA] SET_ENTITY_POSITION(entity_id=cameraB (ID: 17063973/0x01046025), pos_x=-146.000*, pos_z=2.000*, pos_y=51.409*, direction=303.2°*)
 50: 0x019B [0x01] GOTO 0x0336
 51: 0x019E [0x02] IF !(Work_Zone[41] == 17*) GOTO 0x01B6
 52: 0x01A6 [0xBA] SET_ENTITY_POSITION(entity_id=cameraB (ID: 17063973/0x01046025), pos_x=-146.000*, pos_z=2.000*, pos_y=51.409*, direction=303.2°*)
 53: 0x01B3 [0x01] GOTO 0x0336
 54: 0x01B6 [0x02] IF !(Work_Zone[41] == 18*) GOTO 0x01CE
 55: 0x01BE [0xBA] SET_ENTITY_POSITION(entity_id=cameraB (ID: 17063973/0x01046025), pos_x=146.000*, pos_z=-2.000*, pos_y=50.532*, direction=303.2°*)
 56: 0x01CB [0x01] GOTO 0x0336
 57: 0x01CE [0x02] IF !(Work_Zone[41] == 19*) GOTO 0x01E6
 58: 0x01D6 [0xBA] SET_ENTITY_POSITION(entity_id=cameraB (ID: 17063973/0x01046025), pos_x=146.000*, pos_z=-2.000*, pos_y=50.532*, direction=303.2°*)
 59: 0x01E3 [0x01] GOTO 0x0336
 60: 0x01E6 [0x02] IF !(Work_Zone[41] == 20*) GOTO 0x01FE
 61: 0x01EE [0xBA] SET_ENTITY_POSITION(entity_id=cameraB (ID: 17063973/0x01046025), pos_x=146.000*, pos_z=-2.000*, pos_y=50.532*, direction=303.2°*)
 62: 0x01FB [0x01] GOTO 0x0336
 63: 0x01FE [0x02] IF !(Work_Zone[41] == 21*) GOTO 0x0216
 64: 0x0206 [0xBA] SET_ENTITY_POSITION(entity_id=cameraB (ID: 17063973/0x01046025), pos_x=146.000*, pos_z=-2.000*, pos_y=50.532*, direction=303.2°*)
 65: 0x0213 [0x01] GOTO 0x0336
 66: 0x0216 [0x02] IF !(Work_Zone[41] == 22*) GOTO 0x022E
 67: 0x021E [0x01] GOTO 0x0336

SUBROUTINE_0336:
 68: 0x0336 [0x00] END_REQSTACK()
```

#### Data or dead code:

```
# Dead code (unreachable instructions):
     0x0221 [0xBA] SET_ENTITY_POSITION(entity_id=cameraB (ID: 17063973/0x01046025), pos_x=146.000*, pos_z=-2.000*, pos_y=50.532*, direction=303.2°*)
```
