# 17063993

## Common Data

| Field            | Value                    |
|------------------|--------------------------|
| Zone             | Chocobo Circuit (ID: 70) |
| Block Size       | 1032 bytes               |
| Total Events     | 11                       |
| References Count | 21                       |

## List of Events

| Event ID                 | Entrypoint   |   Size |   Instructions |
|--------------------------|--------------|--------|----------------|
| [65535](#event-65535)    | 0x0000       |      1 |              1 |
| [479](#event-479)        | 0x0001       |      1 |              1 |
| [488](#event-488)        | 0x0002       |      1 |              1 |
| [497](#event-497)        | 0x0003       |      1 |              1 |
| [65535.1](#event-655351) | 0x0004       |      1 |              1 |
| [65535.2](#event-655352) | 0x0005       |    110 |             27 |
| [65535.3](#event-655353) | 0x0073       |     42 |              6 |
| [65535.4](#event-655354) | 0x009D       |    267 |             49 |
| [65535.5](#event-655355) | 0x01A8       |    455 |             89 |
| [65535.6](#event-655356) | 0x036F       |      3 |              2 |
| [65535.7](#event-655357) | 0x0372       |      3 |              2 |

## DAT References (imed_data)

|   Index | Hex Value   |   Dec Value |
|---------|-------------|-------------|
|       0 | 0x0000      |           0 |
|       1 | 0x0007      |           7 |
|       2 | 0x0002      |           2 |
|       3 | 0x001C      |          28 |
|       4 | 0x001E      |          30 |
|       5 | 0x0019      |          25 |
|       6 | 0x001B      |          27 |
|       7 | 0x0001      |           1 |
|       8 | 0x0010      |          16 |
|       9 | 0x0008      |           8 |
|      10 | 0x0050      |          80 |
|      11 | 0x0009      |           9 |
|      12 | 0x0003      |           3 |
|      13 | 0x0838      |        2104 |
|      14 | 0x0020      |          32 |
|      15 | 0x001F      |          31 |
|      16 | 0x0004      |           4 |
|      17 | 0x0018      |          24 |
|      18 | 0x03E8      |        1000 |
|      19 | 0x000F      |          15 |
|      20 | 0x0028      |          40 |

## Events

### Event 65535

#### Metadata

| Field        | Value   |
|--------------|---------|
| Entrypoint   | 0x0000  |
| Data Size    | 1 bytes |
| Instructions | 1       |

```
      00 01 02 03 04 05 06 07  08 09 0A 0B 0C 0D 0E 0F
      -- -- -- -- -- -- -- --  -- -- -- -- -- -- -- --
0000: 00                                                .               
```

#### Opcodes

```
  0: 0x0000 [0x00] END_REQSTACK()
```

### Event 479

#### Metadata

| Field        | Value   |
|--------------|---------|
| Entrypoint   | 0x0001  |
| Data Size    | 1 bytes |
| Instructions | 1       |

```
      00 01 02 03 04 05 06 07  08 09 0A 0B 0C 0D 0E 0F
      -- -- -- -- -- -- -- --  -- -- -- -- -- -- -- --
0000:    00                                              .              
```

#### Opcodes

```
  0: 0x0001 [0x00] END_REQSTACK()
```

### Event 488

#### Metadata

| Field        | Value   |
|--------------|---------|
| Entrypoint   | 0x0002  |
| Data Size    | 1 bytes |
| Instructions | 1       |

```
      00 01 02 03 04 05 06 07  08 09 0A 0B 0C 0D 0E 0F
      -- -- -- -- -- -- -- --  -- -- -- -- -- -- -- --
0000:       00                                            .             
```

#### Opcodes

```
  0: 0x0002 [0x00] END_REQSTACK()
```

### Event 497

#### Metadata

| Field        | Value   |
|--------------|---------|
| Entrypoint   | 0x0003  |
| Data Size    | 1 bytes |
| Instructions | 1       |

```
      00 01 02 03 04 05 06 07  08 09 0A 0B 0C 0D 0E 0F
      -- -- -- -- -- -- -- --  -- -- -- -- -- -- -- --
0000:          00                                          .            
```

#### Opcodes

```
  0: 0x0003 [0x00] END_REQSTACK()
```

### Event 65535.1

#### Metadata

| Field        | Value   |
|--------------|---------|
| Entrypoint   | 0x0004  |
| Data Size    | 1 bytes |
| Instructions | 1       |

```
      00 01 02 03 04 05 06 07  08 09 0A 0B 0C 0D 0E 0F
      -- -- -- -- -- -- -- --  -- -- -- -- -- -- -- --
0000:             00                                        .           
```

#### Opcodes

```
  0: 0x0004 [0x00] END_REQSTACK()
```

### Event 65535.2

#### Metadata

| Field        | Value     |
|--------------|-----------|
| Entrypoint   | 0x0005    |
| Data Size    | 110 bytes |
| Instructions | 2         |

```
      00 01 02 03 04 05 06 07  08 09 0A 0B 0C 0D 0E 0F
      -- -- -- -- -- -- -- --  -- -- -- -- -- -- -- --
0000:                BF 20 00  80 01 80 02 80 00 00 41       . ........A
0010: 03 80 04 80 00 00 01 00  41 05 80 06 80 00 00 02  ........A.......
0020: 00 BF 20 00 80 01 80 07  80 00 00 3E 00 00 08 80  .. ........>....
0030: 3A 00 03 03 00 07 80 01  3D 00 06 03 00 3E 00 00  :.......=....>..
0040: 00 80 4C 00 03 04 00 07  80 01 4F 00 06 04 00 3E  ..L.......O....>
0050: 00 00 09 80 5E 00 03 05  00 07 80 01 61 00 06 04  ....^.......a...
0060: 00 B6 0D 01 00 02 00 07  80 03 00 04 00 05 00 32  ...............2
0070: 0A 80 00                                          ...             
```

#### Opcodes

```
  0: 0x0005 [0xBF] CHOCOBO_RACING_PARAMETER_GETTER(param_type=0x20)
  1: 0x0007 [0x00] END_REQSTACK()
```

#### Data or dead code:

```
# Dead code (unreachable instructions):
     0x0008 [0x80] LOAD_WAIT(entity=Unknown NPC (ID: 2147647489/0x80028001))
     0x000D [0x00] END_REQSTACK()
     0x000E [0x00] END_REQSTACK()
     0x000F [0x41] ExtData[1]->WorkLocal[1] = ExtData[1]->WorkLocal[0] (bits 28*-30*)
     0x0018 [0x41] ExtData[1]->WorkLocal[2] = ExtData[1]->WorkLocal[0] (bits 25*-27*)
     0x0021 [0xBF] CHOCOBO_RACING_PARAMETER_GETTER(param_type=0x20)
     0x0023 [0x00] END_REQSTACK()
     0x0024 [0x80] LOAD_WAIT(entity=Unknown NPC (ID: 2147975169/0x80078001))
     0x0029 [0x00] END_REQSTACK()
     0x002A [0x00] END_REQSTACK()
     0x002B [0x3E] IF !(ExtData[1]->WorkLocal[0] bit 16*) GOTO 0x003A
     0x0032 [0x03] ExtData[1]->WorkLocal[3] = 1*
     0x0037 [0x01] GOTO 0x003D
     0x003A [0x06] ExtData[1]->WorkLocal[3] = 0
     0x003D [0x3E] IF !(ExtData[1]->WorkLocal[0] bit 0*) GOTO 0x004C
     0x0044 [0x03] ExtData[1]->WorkLocal[4] = 1*
     0x0049 [0x01] GOTO 0x004F
     0x004C [0x06] ExtData[1]->WorkLocal[4] = 0
     0x004F [0x3E] IF !(ExtData[1]->WorkLocal[0] bit 8*) GOTO 0x005E
     0x0056 [0x03] ExtData[1]->WorkLocal[5] = 1*
     0x005B [0x01] GOTO 0x0061
     0x005E [0x06] ExtData[1]->WorkLocal[4] = 0
     0x0061 [0xB6] ENTITY_APPEARANCE_HANDLER(case=Look with Render flags, race=ExtData[1]->WorkLocal[1], face=ExtData[1]->WorkLocal[2], head=1*, body=ExtData[1]->WorkLocal[3], hands=ExtData[1]->WorkLocal[4], render_flags=0x0005)
     0x006F [0x32] ExtData[1]->MainSpeed = 80* * 0.1
     0x0072 [0x00] END_REQSTACK()
```

### Event 65535.3

#### Metadata

| Field        | Value    |
|--------------|----------|
| Entrypoint   | 0x0073   |
| Data Size    | 42 bytes |
| Instructions | 6        |

```
      00 01 02 03 04 05 06 07  08 09 0A 0B 0C 0D 0E 0F
      -- -- -- -- -- -- -- --  -- -- -- -- -- -- -- --
0070:          9D 03 0B 80 08  00 00 80 9D 03 0B 80 09     .............
0080: 00 07 80 9D 03 0B 80 0A  00 02 80 9D 03 0B 80 0B  ................
0090: 00 0C 80 37 08 00 0A 00  09 00 0D 80 00           ...7.........   
```

#### Opcodes

```
  0: 0x0073 [0x9D] 0* = Work_Zone[9*][ExtData[1]->WorkLocal[8]] // Via remapped space
  1: 0x007B [0x9D] 1* = Work_Zone[9*][ExtData[1]->WorkLocal[9]] // Via remapped space
  2: 0x0083 [0x9D] 2* = Work_Zone[9*][ExtData[1]->WorkLocal[10]] // Via remapped space
  3: 0x008B [0x9D] 3* = Work_Zone[9*][ExtData[1]->WorkLocal[11]] // Via remapped space
  4: 0x0093 [0x37] UPDATE_EVENT_POSITION_AND_DIR: x=ExtData[1]->WorkLocal[8], z=ExtData[1]->WorkLocal[10], y=ExtData[1]->WorkLocal[9], direction=184.9°*
  5: 0x009C [0x00] END_REQSTACK()
```

### Event 65535.4

#### Metadata

| Field        | Value     |
|--------------|-----------|
| Entrypoint   | 0x009D    |
| Data Size    | 267 bytes |
| Instructions | 49        |

```
      00 01 02 03 04 05 06 07  08 09 0A 0B 0C 0D 0E 0F
      -- -- -- -- -- -- -- --  -- -- -- -- -- -- -- --
0090:                                         03 06 00               ...
00A0: 2C 10 03 0D 00 2C 10 03  0E 00 2D 10 03 10 00 29  ,....,....-....)
00B0: 10 02 10 00 0E 80 03 D9  00 41 03 80 0F 80 26 10  .........A....&.
00C0: 12 00 03 11 00 09 80 08  11 00 12 00 07 0D 00 11  ................
00D0: 00 03 12 00 11 00 01 DC  00 06 12 00 02 10 00 0E  ................
00E0: 80 03 04 01 41 03 80 0F  80 27 10 13 00 03 11 00  ....A....'......
00F0: 09 80 08 11 00 13 00 07  0E 00 11 00 03 13 00 11  ................
0100: 00 01 07 01 06 13 00 03  07 00 0D 00 14 07 00 10  ................
0110: 80 9D 03 0B 80 08 00 07  00 0B 07 00 9D 03 0B 80  ................
0120: 09 00 07 00 0B 07 00 9D  03 0B 80 0A 00 07 00 0B  ................
0130: 07 00 9D 03 0B 80 0B 00  07 00 02 10 00 00 80 00  ................
0140: 45 01 01 4C 01 36 08 00  0A 00 09 00 40 11 80 0F  E..L.6......@...
0150: 80 36 10 10 00 08 13 00  12 00 9D 03 00 80 12 00  .6..............
0160: 10 00 07 13 00 12 00 9D  03 00 80 11 00 10 00 14  ................
0170: 13 00 12 80 15 13 00 11  00 03 11 00 13 00 03 12  ................
0180: 00 10 00 14 12 00 09 80  07 12 00 01 80 9D 03 07  ................
0190: 80 12 00 12 00 14 11 00  12 00 03 0C 00 11 00 15  ................
01A0: 0C 00 12 80 32 0C 00 00                           ....2...        
```

#### Opcodes

```
  0: 0x009D [0x03] ExtData[1]->WorkLocal[6] = Work_Zone[44]
  1: 0x00A2 [0x03] ExtData[1]->WorkLocal[13] = Work_Zone[44]
  2: 0x00A7 [0x03] ExtData[1]->WorkLocal[14] = Work_Zone[45]
  3: 0x00AC [0x03] ExtData[1]->WorkLocal[16] = Work_Zone[41]
  4: 0x00B1 [0x02] IF !(ExtData[1]->WorkLocal[16] >= 32*) GOTO 0x00D9
  5: 0x00B9 [0x41] ExtData[1]->WorkLocal[18] = Work_Zone[38] (bits 28*-31*)
  6: 0x00C2 [0x03] ExtData[1]->WorkLocal[17] = 8*
  7: 0x00C7 [0x08] ExtData[1]->WorkLocal[17] -= ExtData[1]->WorkLocal[18]
  8: 0x00CC [0x07] ExtData[1]->WorkLocal[13] += ExtData[1]->WorkLocal[17]
  9: 0x00D1 [0x03] ExtData[1]->WorkLocal[18] = ExtData[1]->WorkLocal[17]
 10: 0x00D6 [0x01] GOTO 0x00DC
 11: 0x00D9 [0x06] ExtData[1]->WorkLocal[18] = 0

SUBROUTINE_00DC:
 12: 0x00DC [0x02] IF !(ExtData[1]->WorkLocal[16] >= 32*) GOTO 0x0104
 13: 0x00E4 [0x41] ExtData[1]->WorkLocal[19] = Work_Zone[39] (bits 28*-31*)
 14: 0x00ED [0x03] ExtData[1]->WorkLocal[17] = 8*
 15: 0x00F2 [0x08] ExtData[1]->WorkLocal[17] -= ExtData[1]->WorkLocal[19]
 16: 0x00F7 [0x07] ExtData[1]->WorkLocal[14] += ExtData[1]->WorkLocal[17]
 17: 0x00FC [0x03] ExtData[1]->WorkLocal[19] = ExtData[1]->WorkLocal[17]
 18: 0x0101 [0x01] GOTO 0x0107
 19: 0x0104 [0x06] ExtData[1]->WorkLocal[19] = 0

SUBROUTINE_0107:
 20: 0x0107 [0x03] ExtData[1]->WorkLocal[7] = ExtData[1]->WorkLocal[13]
 21: 0x010C [0x14] ExtData[1]->WorkLocal[7] *= 4*
 22: 0x0111 [0x9D] ExtData[1]->WorkLocal[7] = Work_Zone[9*][ExtData[1]->WorkLocal[8]] // Via remapped space
 23: 0x0119 [0x0B] ExtData[1]->WorkLocal[7]++
 24: 0x011C [0x9D] ExtData[1]->WorkLocal[7] = Work_Zone[9*][ExtData[1]->WorkLocal[9]] // Via remapped space
 25: 0x0124 [0x0B] ExtData[1]->WorkLocal[7]++
 26: 0x0127 [0x9D] ExtData[1]->WorkLocal[7] = Work_Zone[9*][ExtData[1]->WorkLocal[10]] // Via remapped space
 27: 0x012F [0x0B] ExtData[1]->WorkLocal[7]++
 28: 0x0132 [0x9D] ExtData[1]->WorkLocal[7] = Work_Zone[9*][ExtData[1]->WorkLocal[11]] // Via remapped space
 29: 0x013A [0x02] IF !(ExtData[1]->WorkLocal[16] == 0*) GOTO 0x0145
 30: 0x0142 [0x01] GOTO 0x014C
 31: 0x0145 [0x36] SET_ENTITY_EVENT_POSITION(pos_x=ExtData[1]->WorkLocal[8], pos_z=ExtData[1]->WorkLocal[10], pos_y=ExtData[1]->WorkLocal[9])

SUBROUTINE_014C:
 32: 0x014C [0x40] SET_BIT_WORK_RANGE(start_bit=24*, end_bit=31*, target=Work_Zone[54], source=ExtData[1]->WorkLocal[16])
 33: 0x0155 [0x08] ExtData[1]->WorkLocal[19] -= ExtData[1]->WorkLocal[18]
 34: 0x015A [0x9D] ExtData[1]->WorkLocal[16] = Work_Zone[0][ExtData[1]->WorkLocal[18]] // Via remapped space
 35: 0x0162 [0x07] ExtData[1]->WorkLocal[19] += ExtData[1]->WorkLocal[18]
 36: 0x0167 [0x9D] ExtData[1]->WorkLocal[16] = Work_Zone[0][ExtData[1]->WorkLocal[17]] // Via remapped space
 37: 0x016F [0x14] ExtData[1]->WorkLocal[19] *= 1000*
 38: 0x0174 [0x15] ExtData[1]->WorkLocal[19] /= ExtData[1]->WorkLocal[17]
 39: 0x0179 [0x03] ExtData[1]->WorkLocal[17] = ExtData[1]->WorkLocal[19]
 40: 0x017E [0x03] ExtData[1]->WorkLocal[18] = ExtData[1]->WorkLocal[16]
 41: 0x0183 [0x14] ExtData[1]->WorkLocal[18] *= 8*
 42: 0x0188 [0x07] ExtData[1]->WorkLocal[18] += 7*
 43: 0x018D [0x9D] ExtData[1]->WorkLocal[18] = Work_Zone[1*][ExtData[1]->WorkLocal[18]] // Via remapped space
 44: 0x0195 [0x14] ExtData[1]->WorkLocal[17] *= ExtData[1]->WorkLocal[18]
 45: 0x019A [0x03] ExtData[1]->WorkLocal[12] = ExtData[1]->WorkLocal[17]
 46: 0x019F [0x15] ExtData[1]->WorkLocal[12] /= 1000*
 47: 0x01A4 [0x32] ExtData[1]->MainSpeed = ExtData[1]->WorkLocal[12] * 0.1
 48: 0x01A7 [0x00] END_REQSTACK()
```

### Event 65535.5

#### Metadata

| Field        | Value     |
|--------------|-----------|
| Entrypoint   | 0x01A8    |
| Data Size    | 455 bytes |
| Instructions | 69        |

```
      00 01 02 03 04 05 06 07  08 09 0A 0B 0C 0D 0E 0F
      -- -- -- -- -- -- -- --  -- -- -- -- -- -- -- --
01A0:                          03 06 00 0D 00 02 10 00          ........
01B0: 04 80 00 BA 01 03 06 00  0E 00 02 10 00 0F 80 00  ................
01C0: CA 01 03 06 00 31 10 0C  06 00 02 06 00 33 10 05  .....1.......3..
01D0: 8C 02 02 06 00 0E 00 05  42 02 02 31 10 06 00 05  ........B..1....
01E0: E9 01 3C 30 10 01 80 07  80 02 06 00 33 10 02 F4  ..<0........3...
01F0: 01 01 8C 02 03 07 00 06  00 14 07 00 10 80 9D 03  ................
0200: 0B 80 08 00 07 00 0B 07  00 9D 03 0B 80 09 00 07  ................
0210: 00 0B 07 00 9D 03 0B 80  0A 00 07 00 0B 07 00 9D  ................
0220: 03 0B 80 0B 00 07 00 02  10 00 00 80 00 32 02 01  .............2..
0230: 3C 02 1F 00 08 00 0A 00  09 00 1F 01 0B 06 00 01  <...............
0240: D2 01 07 10 00 07 80 40  11 80 0F 80 36 10 10 00  .......@....6...
0250: 3C 30 10 13 80 07 80 03  0D 00 0E 00 9D 03 00 80  <0..............
0260: 0F 00 10 00 07 0E 00 0F  00 1A 8D 02 02 10 00 04  ................
0270: 80 00 79 02 03 06 00 0E  00 02 10 00 0F 80 00 89  ..y.............
0280: 02 03 06 00 31 10 0C 06  00 01 CA 01 00 03 16 00  ....1...........
0290: 0D 00 03 17 00 0E 00 02  10 00 0E 80 03 C9 02 BF  ................
02A0: 40 00 80 10 00 00 80 14  00 41 03 80 0F 80 14 00  @........A......
02B0: 12 00 03 11 00 09 80 08  11 00 12 00 07 0D 00 11  ................
02C0: 00 03 12 00 11 00 01 CE  02 03 12 00 00 80 02 10  ................
02D0: 00 0E 80 03 00 03 BF 40  00 80 10 00 07 80 15 00  .......@........
02E0: 41 03 80 0F 80 15 00 13  00 03 11 00 09 80 08 11  A...............
02F0: 00 13 00 07 0E 00 11 00  03 13 00 11 00 01 05 03  ................
0300: 03 13 00 00 80 08 13 00  12 00 9D 03 00 80 12 00  ................
0310: 10 00 07 13 00 12 00 9D  03 00 80 11 00 10 00 14  ................
0320: 13 00 12 80 15 13 00 11  00 03 11 00 13 00 03 12  ................
0330: 00 10 00 14 12 00 09 80  07 12 00 01 80 9D 03 07  ................
0340: 80 12 00 12 00 14 11 00  12 00 03 0C 00 11 00 15  ................
0350: 0C 00 12 80 02 10 00 0E  80 04 61 03 03 0C 00 14  ..........a.....
0360: 80 32 0C 00 03 0D 00 16  00 03 0E 00 17 00 1B     .2............. 
```

#### Opcodes

```
  0: 0x01A8 [0x03] ExtData[1]->WorkLocal[6] = ExtData[1]->WorkLocal[13]
  1: 0x01AD [0x02] IF !(ExtData[1]->WorkLocal[16] == 30*) GOTO 0x01BA
  2: 0x01B5 [0x03] ExtData[1]->WorkLocal[6] = ExtData[1]->WorkLocal[14]
  3: 0x01BA [0x02] IF !(ExtData[1]->WorkLocal[16] == 31*) GOTO 0x01CA
  4: 0x01C2 [0x03] ExtData[1]->WorkLocal[6] = Work_Zone[49]
  5: 0x01C7 [0x0C] ExtData[1]->WorkLocal[6]--
  6: 0x01CA [0x02] IF !(ExtData[1]->WorkLocal[6] > Work_Zone[51]) GOTO 0x028C
  7: 0x01D2 [0x02] IF !(ExtData[1]->WorkLocal[6] > ExtData[1]->WorkLocal[14]) GOTO 0x0242
  8: 0x01DA [0x02] IF !(Work_Zone[49] > ExtData[1]->WorkLocal[6]) GOTO 0x01E9
  9: 0x01E2 [0x3C] SET_BIT_FLAG_CONDITIONAL(target_work_offset=Work_Zone[48], bit_index_work_offset=7*, condition_work_offset=1*)
 10: 0x01E9 [0x02] IF !(ExtData[1]->WorkLocal[6] <= Work_Zone[51]) GOTO 0x01F4
 11: 0x01F1 [0x01] GOTO 0x028C
 12: 0x01F4 [0x03] ExtData[1]->WorkLocal[7] = ExtData[1]->WorkLocal[6]
 13: 0x01F9 [0x14] ExtData[1]->WorkLocal[7] *= 4*
 14: 0x01FE [0x9D] ExtData[1]->WorkLocal[7] = Work_Zone[9*][ExtData[1]->WorkLocal[8]] // Via remapped space
 15: 0x0206 [0x0B] ExtData[1]->WorkLocal[7]++
 16: 0x0209 [0x9D] ExtData[1]->WorkLocal[7] = Work_Zone[9*][ExtData[1]->WorkLocal[9]] // Via remapped space
 17: 0x0211 [0x0B] ExtData[1]->WorkLocal[7]++
 18: 0x0214 [0x9D] ExtData[1]->WorkLocal[7] = Work_Zone[9*][ExtData[1]->WorkLocal[10]] // Via remapped space
 19: 0x021C [0x0B] ExtData[1]->WorkLocal[7]++
 20: 0x021F [0x9D] ExtData[1]->WorkLocal[7] = Work_Zone[9*][ExtData[1]->WorkLocal[11]] // Via remapped space
 21: 0x0227 [0x02] IF !(ExtData[1]->WorkLocal[16] == 0*) GOTO 0x0232
 22: 0x022F [0x01] GOTO 0x023C
 23: 0x0232 [0x1F] MOVE_ENTITY: EventEntity moves to X=ExtData[1]->WorkLocal[8], Z=ExtData[1]->WorkLocal[10], Y=ExtData[1]->WorkLocal[9]
 24: 0x023A [0x1F] MOVE_ENTITY: Update entity position (mode=1)

SUBROUTINE_023C:
 25: 0x023C [0x0B] ExtData[1]->WorkLocal[6]++
 26: 0x023F [0x01] GOTO 0x01D2
 27: 0x0242 [0x07] ExtData[1]->WorkLocal[16] += 1*
 28: 0x0247 [0x40] SET_BIT_WORK_RANGE(start_bit=24*, end_bit=31*, target=Work_Zone[54], source=ExtData[1]->WorkLocal[16])
 29: 0x0250 [0x3C] SET_BIT_FLAG_CONDITIONAL(target_work_offset=Work_Zone[48], bit_index_work_offset=15*, condition_work_offset=1*)
 30: 0x0257 [0x03] ExtData[1]->WorkLocal[13] = ExtData[1]->WorkLocal[14]
 31: 0x025C [0x9D] ExtData[1]->WorkLocal[16] = Work_Zone[0][ExtData[1]->WorkLocal[15]] // Via remapped space
 32: 0x0264 [0x07] ExtData[1]->WorkLocal[14] += ExtData[1]->WorkLocal[15]
 33: 0x0269 [0x1A] CALL_SUBROUTINE(address=0x028D)
 34: 0x026C [0x02] IF !(ExtData[1]->WorkLocal[16] == 30*) GOTO 0x0279
 35: 0x0274 [0x03] ExtData[1]->WorkLocal[6] = ExtData[1]->WorkLocal[14]
 36: 0x0279 [0x02] IF !(ExtData[1]->WorkLocal[16] == 31*) GOTO 0x0289
 37: 0x0281 [0x03] ExtData[1]->WorkLocal[6] = Work_Zone[49]
 38: 0x0286 [0x0C] ExtData[1]->WorkLocal[6]--
 39: 0x0289 [0x01] GOTO 0x01CA

SUBROUTINE_028C:
 40: 0x028C [0x00] END_REQSTACK()

SUBROUTINE_028D:
 41: 0x028D [0x03] ExtData[1]->WorkLocal[22] = ExtData[1]->WorkLocal[13]
 42: 0x0292 [0x03] ExtData[1]->WorkLocal[23] = ExtData[1]->WorkLocal[14]
 43: 0x0297 [0x02] IF !(ExtData[1]->WorkLocal[16] >= 32*) GOTO 0x02C9
 44: 0x029F [0xBF] CHOCOBO_RACING_PARAMETER_GETTER(param_type=0x40)
 45: 0x02A1 [0x00] END_REQSTACK()

SUBROUTINE_02CE:
 46: 0x02CE [0x02] IF !(ExtData[1]->WorkLocal[16] >= 32*) GOTO 0x0300
 47: 0x02D6 [0xBF] CHOCOBO_RACING_PARAMETER_GETTER(param_type=0x40)
 48: 0x02D8 [0x00] END_REQSTACK()

SUBROUTINE_0305:
 49: 0x0305 [0x08] ExtData[1]->WorkLocal[19] -= ExtData[1]->WorkLocal[18]
 50: 0x030A [0x9D] ExtData[1]->WorkLocal[16] = Work_Zone[0][ExtData[1]->WorkLocal[18]] // Via remapped space
 51: 0x0312 [0x07] ExtData[1]->WorkLocal[19] += ExtData[1]->WorkLocal[18]
 52: 0x0317 [0x9D] ExtData[1]->WorkLocal[16] = Work_Zone[0][ExtData[1]->WorkLocal[17]] // Via remapped space
 53: 0x031F [0x14] ExtData[1]->WorkLocal[19] *= 1000*
 54: 0x0324 [0x15] ExtData[1]->WorkLocal[19] /= ExtData[1]->WorkLocal[17]
 55: 0x0329 [0x03] ExtData[1]->WorkLocal[17] = ExtData[1]->WorkLocal[19]
 56: 0x032E [0x03] ExtData[1]->WorkLocal[18] = ExtData[1]->WorkLocal[16]
 57: 0x0333 [0x14] ExtData[1]->WorkLocal[18] *= 8*
 58: 0x0338 [0x07] ExtData[1]->WorkLocal[18] += 7*
 59: 0x033D [0x9D] ExtData[1]->WorkLocal[18] = Work_Zone[1*][ExtData[1]->WorkLocal[18]] // Via remapped space
 60: 0x0345 [0x14] ExtData[1]->WorkLocal[17] *= ExtData[1]->WorkLocal[18]
 61: 0x034A [0x03] ExtData[1]->WorkLocal[12] = ExtData[1]->WorkLocal[17]
 62: 0x034F [0x15] ExtData[1]->WorkLocal[12] /= 1000*
 63: 0x0354 [0x02] IF !(ExtData[1]->WorkLocal[16] < 32*) GOTO 0x0361
 64: 0x035C [0x03] ExtData[1]->WorkLocal[12] = 40*
 65: 0x0361 [0x32] ExtData[1]->MainSpeed = ExtData[1]->WorkLocal[12] * 0.1
 66: 0x0364 [0x03] ExtData[1]->WorkLocal[13] = ExtData[1]->WorkLocal[22]
 67: 0x0369 [0x03] ExtData[1]->WorkLocal[14] = ExtData[1]->WorkLocal[23]
 68: 0x036E [0x1B] RETURN
```

#### Data or dead code:

```
# Dead code (unreachable instructions):
     0x02A2 [0x80] LOAD_WAIT(entity=Unknown NPC (ID: 2147483664/0x80000010))
     0x02A7 [0x14] 0x4100 *= 28*
     0x02AC [0x0F] 0x1480 ^= 0x1200
     0x02B1 [0x00] END_REQSTACK()
     0x02B2 [0x03] ExtData[1]->WorkLocal[17] = 8*
     0x02B7 [0x08] ExtData[1]->WorkLocal[17] -= ExtData[1]->WorkLocal[18]
     0x02BC [0x07] ExtData[1]->WorkLocal[13] += ExtData[1]->WorkLocal[17]
     0x02C1 [0x03] ExtData[1]->WorkLocal[18] = ExtData[1]->WorkLocal[17]
     0x02C6 [0x01] GOTO 0x02CE
# Dead code (unreachable instructions):
     0x02D9 [0x80] LOAD_WAIT(entity=Unknown NPC (ID: 2147942416/0x80070010))
     0x02DE [0x15] 0x4100 /= 28*
     0x02E3 [0x0F] 0x1580 ^= 0x1300
     0x02E8 [0x00] END_REQSTACK()
     0x02E9 [0x03] ExtData[1]->WorkLocal[17] = 8*
     0x02EE [0x08] ExtData[1]->WorkLocal[17] -= ExtData[1]->WorkLocal[19]
     0x02F3 [0x07] ExtData[1]->WorkLocal[14] += ExtData[1]->WorkLocal[17]
     0x02F8 [0x03] ExtData[1]->WorkLocal[19] = ExtData[1]->WorkLocal[17]
     0x02FD [0x01] GOTO 0x0305
```

### Event 65535.6

#### Metadata

| Field        | Value   |
|--------------|---------|
| Entrypoint   | 0x036F  |
| Data Size    | 3 bytes |
| Instructions | 2       |

```
      00 01 02 03 04 05 06 07  08 09 0A 0B 0C 0D 0E 0F
      -- -- -- -- -- -- -- --  -- -- -- -- -- -- -- --
0360:                                               61                 a
0370: 00 00                                             ..              
```

#### Opcodes

```
  0: 0x036F [0x61] EventEntity->Render.Flags2 &= ~0x00000001
  1: 0x0371 [0x00] END_REQSTACK()
```

### Event 65535.7

#### Metadata

| Field        | Value   |
|--------------|---------|
| Entrypoint   | 0x0372  |
| Data Size    | 3 bytes |
| Instructions | 2       |

```
      00 01 02 03 04 05 06 07  08 09 0A 0B 0C 0D 0E 0F
      -- -- -- -- -- -- -- --  -- -- -- -- -- -- -- --
0370:       61 01 00                                      a..           
```

#### Opcodes

```
  0: 0x0372 [0x61] EventEntity->Render.Flags2 |= 0x00000001
  1: 0x0374 [0x00] END_REQSTACK()
```
