# 17063953

## Common Data

| Field            | Value                    |
|------------------|--------------------------|
| Zone             | Chocobo Circuit (ID: 70) |
| Block Size       | 1652 bytes               |
| Total Events     | 24                       |
| References Count | 27                       |

## List of Events

| Event ID                   | Entrypoint   |   Size |   Instructions |
|----------------------------|--------------|--------|----------------|
| [65535](#event-65535)      | 0x0000       |      1 |              1 |
| [100](#event-100)          | 0x0001       |      1 |              1 |
| [115](#event-115)          | 0x0002       |      1 |              1 |
| [65535.1](#event-655351)   | 0x0003       |      1 |              1 |
| [427](#event-427)          | 0x0004       |      1 |              1 |
| [458](#event-458)          | 0x0005       |      1 |              1 |
| [469](#event-469)          | 0x0006       |      1 |              1 |
| [210](#event-210)          | 0x0007       |      1 |              1 |
| [65535.2](#event-655352)   | 0x0008       |     15 |              4 |
| [65535.3](#event-655353)   | 0x0017       |     80 |              9 |
| [65535.4](#event-655354)   | 0x0067       |     49 |              6 |
| [65535.5](#event-655355)   | 0x0098       |     49 |              6 |
| [65535.6](#event-655356)   | 0x00C9       |     49 |              6 |
| [65535.7](#event-655357)   | 0x00FA       |     49 |              6 |
| [65535.8](#event-655358)   | 0x012B       |     49 |              6 |
| [65535.9](#event-655359)   | 0x015C       |     49 |              6 |
| [65535.10](#event-6553510) | 0x018D       |     49 |              6 |
| [65535.11](#event-6553511) | 0x01BE       |     49 |              6 |
| [65535.12](#event-6553512) | 0x01EF       |     14 |              4 |
| [65535.13](#event-6553513) | 0x01FD       |    107 |             29 |
| [65535.14](#event-6553514) | 0x0268       |    277 |             51 |
| [65535.15](#event-6553515) | 0x037D       |    530 |            104 |
| [65535.16](#event-6553516) | 0x058F       |      3 |              2 |
| [65535.17](#event-6553517) | 0x0592       |      3 |              2 |

## DAT References (imed_data)

|   Index | Hex Value   |   Dec Value |
|---------|-------------|-------------|
|       0 | 0x0000      |           0 |
|       1 | 0x0008      |           8 |
|       2 | 0x00BC      |         188 |
|       3 | 0x0006      |           6 |
|       4 | 0x0050      |          80 |
|       5 | 0x0001      |           1 |
|       6 | 0x000A      |          10 |
|       7 | 0x00BB      |         187 |
|       8 | 0x0002      |           2 |
|       9 | 0x0003      |           3 |
|      10 | 0x000E      |          14 |
|      11 | 0x0004      |           4 |
|      12 | 0x0005      |           5 |
|      13 | 0x0007      |           7 |
|      14 | 0x001B      |          27 |
|      15 | 0xFFFE91C9  |  4294873545 |
|      16 | 0xFFFEDA08  |  4294892040 |
|      17 | 0xFFFFFE0C  |  4294966796 |
|      18 | 0xFFFEE2D3  |  4294894291 |
|      19 | 0xFFFEDC24  |  4294892580 |
|      20 | 0x001C      |          28 |
|      21 | 0x001E      |          30 |
|      22 | 0x0019      |          25 |
|      23 | 0x0010      |          16 |
|      24 | 0x0020      |          32 |
|      25 | 0x03E8      |        1000 |
|      26 | 0x001F      |          31 |

## Events

### Event 65535

#### Metadata

| Field        | Value   |
|--------------|---------|
| Entrypoint   | 0x0000  |
| Data Size    | 1 bytes |
| Instructions | 1       |

```
      00 01 02 03 04 05 06 07  08 09 0A 0B 0C 0D 0E 0F
      -- -- -- -- -- -- -- --  -- -- -- -- -- -- -- --
0000: 00                                                .               
```

#### Opcodes

```
  0: 0x0000 [0x00] END_REQSTACK()
```

### Event 100

#### Metadata

| Field        | Value   |
|--------------|---------|
| Entrypoint   | 0x0001  |
| Data Size    | 1 bytes |
| Instructions | 1       |

```
      00 01 02 03 04 05 06 07  08 09 0A 0B 0C 0D 0E 0F
      -- -- -- -- -- -- -- --  -- -- -- -- -- -- -- --
0000:    00                                              .              
```

#### Opcodes

```
  0: 0x0001 [0x00] END_REQSTACK()
```

### Event 115

#### Metadata

| Field        | Value   |
|--------------|---------|
| Entrypoint   | 0x0002  |
| Data Size    | 1 bytes |
| Instructions | 1       |

```
      00 01 02 03 04 05 06 07  08 09 0A 0B 0C 0D 0E 0F
      -- -- -- -- -- -- -- --  -- -- -- -- -- -- -- --
0000:       00                                            .             
```

#### Opcodes

```
  0: 0x0002 [0x00] END_REQSTACK()
```

### Event 65535.1

#### Metadata

| Field        | Value   |
|--------------|---------|
| Entrypoint   | 0x0003  |
| Data Size    | 1 bytes |
| Instructions | 1       |

```
      00 01 02 03 04 05 06 07  08 09 0A 0B 0C 0D 0E 0F
      -- -- -- -- -- -- -- --  -- -- -- -- -- -- -- --
0000:          00                                          .            
```

#### Opcodes

```
  0: 0x0003 [0x00] END_REQSTACK()
```

### Event 427

#### Metadata

| Field        | Value   |
|--------------|---------|
| Entrypoint   | 0x0004  |
| Data Size    | 1 bytes |
| Instructions | 1       |

```
      00 01 02 03 04 05 06 07  08 09 0A 0B 0C 0D 0E 0F
      -- -- -- -- -- -- -- --  -- -- -- -- -- -- -- --
0000:             00                                        .           
```

#### Opcodes

```
  0: 0x0004 [0x00] END_REQSTACK()
```

### Event 458

#### Metadata

| Field        | Value   |
|--------------|---------|
| Entrypoint   | 0x0005  |
| Data Size    | 1 bytes |
| Instructions | 1       |

```
      00 01 02 03 04 05 06 07  08 09 0A 0B 0C 0D 0E 0F
      -- -- -- -- -- -- -- --  -- -- -- -- -- -- -- --
0000:                00                                      .          
```

#### Opcodes

```
  0: 0x0005 [0x00] END_REQSTACK()
```

### Event 469

#### Metadata

| Field        | Value   |
|--------------|---------|
| Entrypoint   | 0x0006  |
| Data Size    | 1 bytes |
| Instructions | 1       |

```
      00 01 02 03 04 05 06 07  08 09 0A 0B 0C 0D 0E 0F
      -- -- -- -- -- -- -- --  -- -- -- -- -- -- -- --
0000:                   00                                    .         
```

#### Opcodes

```
  0: 0x0006 [0x00] END_REQSTACK()
```

### Event 210

#### Metadata

| Field        | Value   |
|--------------|---------|
| Entrypoint   | 0x0007  |
| Data Size    | 1 bytes |
| Instructions | 1       |

```
      00 01 02 03 04 05 06 07  08 09 0A 0B 0C 0D 0E 0F
      -- -- -- -- -- -- -- --  -- -- -- -- -- -- -- --
0000:                      00                                  .        
```

#### Opcodes

```
  0: 0x0007 [0x00] END_REQSTACK()
```

### Event 65535.2

#### Metadata

| Field        | Value    |
|--------------|----------|
| Entrypoint   | 0x0008   |
| Data Size    | 15 bytes |
| Instructions | 4        |

```
      00 01 02 03 04 05 06 07  08 09 0A 0B 0C 0D 0E 0F
      -- -- -- -- -- -- -- --  -- -- -- -- -- -- -- --
0000:                          7E 05 F8 FF FF 7F 22 01          ~.....".
0010: 2F 01 F8 FF FF 7F 00                              /......         
```

#### Opcodes

```
  0: 0x0008 [0x7E] CHOCOBO_MOUNT: Dismount EventEntity (status = 0)
  1: 0x000E [0x22] ENTITY_HIDE_FLAG(enabled=0x01)
  2: 0x0010 [0x2F] EventEntity->Render.Flags0 |= 0x80000 // Bit 19
  3: 0x0016 [0x00] END_REQSTACK()
```

### Event 65535.3

#### Metadata

| Field        | Value    |
|--------------|----------|
| Entrypoint   | 0x0017   |
| Data Size    | 80 bytes |
| Instructions | 9        |

```
      00 01 02 03 04 05 06 07  08 09 0A 0B 0C 0D 0E 0F
      -- -- -- -- -- -- -- --  -- -- -- -- -- -- -- --
0010:                      1A  0B 02 02 01 00 00 80 00         .........
0020: 39 00 B6 0B 01 80 01 80  00 80 02 80 03 80 03 80  9...............
0030: 03 80 00 80 00 80 01 4D  00 B6 0B 01 00 01 80 00  .......M........
0040: 80 02 80 03 80 03 80 03  80 00 80 00 80 7E 03 F8  .............~..
0050: FF FF 7F 02 00 00 80 03  00 04 00 05 00 7E 04 F8  .............~..
0060: FF FF 7F 32 04 80 00                              ...2...         
```

#### Opcodes

```
  0: 0x0017 [0x1A] CALL_SUBROUTINE(address=0x020B)
  1: 0x001A [0x02] IF !(ExtData[1]->WorkLocal[1] == 0*) GOTO 0x0039
  2: 0x0022 [0xB6] ENTITY_APPEARANCE_HANDLER(case=Full entity look, race=8*, hair=8*, head=0*, body=188*, hands=6*, legs=6*, feet=6*, main=0*, sub=0*)
  3: 0x0036 [0x01] GOTO 0x004D
  4: 0x0039 [0xB6] ENTITY_APPEARANCE_HANDLER(case=Full entity look, race=ExtData[1]->WorkLocal[1], hair=8*, head=0*, body=188*, hands=6*, legs=6*, feet=6*, main=0*, sub=0*)

SUBROUTINE_004D:
  5: 0x004D [0x7E] CHOCOBO_MOUNT: Mount custom chocobo on EventEntity (index=2, color=32768, name_id=3)
  6: 0x005D [0x7E] CHOCOBO_MOUNT: Mode 4 on EventEntity
  7: 0x0063 [0x32] ExtData[1]->MainSpeed = 80* * 0.1
  8: 0x0066 [0x00] END_REQSTACK()
```

### Event 65535.4

#### Metadata

| Field        | Value    |
|--------------|----------|
| Entrypoint   | 0x0067   |
| Data Size    | 49 bytes |
| Instructions | 6        |

```
      00 01 02 03 04 05 06 07  08 09 0A 0B 0C 0D 0E 0F
      -- -- -- -- -- -- -- --  -- -- -- -- -- -- -- --
0060:                      B6  0B 05 80 06 80 00 80 07         .........
0070: 80 08 80 08 80 08 80 00  80 00 80 1A 0B 02 7E 03  ..............~.
0080: F8 FF FF 7F 02 00 00 80  03 00 04 00 05 00 7E 04  ..............~.
0090: F8 FF FF 7F 32 04 80 00                           ....2...        
```

#### Opcodes

```
  0: 0x0067 [0xB6] ENTITY_APPEARANCE_HANDLER(case=Full entity look, race=1*, hair=10*, head=0*, body=187*, hands=2*, legs=2*, feet=2*, main=0*, sub=0*)
  1: 0x007B [0x1A] CALL_SUBROUTINE(address=0x020B)
  2: 0x007E [0x7E] CHOCOBO_MOUNT: Mount custom chocobo on EventEntity (index=2, color=32768, name_id=3)
  3: 0x008E [0x7E] CHOCOBO_MOUNT: Mode 4 on EventEntity
  4: 0x0094 [0x32] ExtData[1]->MainSpeed = 80* * 0.1
  5: 0x0097 [0x00] END_REQSTACK()
```

### Event 65535.5

#### Metadata

| Field        | Value    |
|--------------|----------|
| Entrypoint   | 0x0098   |
| Data Size    | 49 bytes |
| Instructions | 6        |

```
      00 01 02 03 04 05 06 07  08 09 0A 0B 0C 0D 0E 0F
      -- -- -- -- -- -- -- --  -- -- -- -- -- -- -- --
0090:                          B6 0B 08 80 03 80 00 80          ........
00A0: 07 80 08 80 08 80 08 80  00 80 00 80 1A 0B 02 7E  ...............~
00B0: 03 F8 FF FF 7F 02 00 00  80 03 00 04 00 05 00 7E  ...............~
00C0: 04 F8 FF FF 7F 32 04 80  00                       .....2...       
```

#### Opcodes

```
  0: 0x0098 [0xB6] ENTITY_APPEARANCE_HANDLER(case=Full entity look, race=2*, hair=6*, head=0*, body=187*, hands=2*, legs=2*, feet=2*, main=0*, sub=0*)
  1: 0x00AC [0x1A] CALL_SUBROUTINE(address=0x020B)
  2: 0x00AF [0x7E] CHOCOBO_MOUNT: Mount custom chocobo on EventEntity (index=2, color=32768, name_id=3)
  3: 0x00BF [0x7E] CHOCOBO_MOUNT: Mode 4 on EventEntity
  4: 0x00C5 [0x32] ExtData[1]->MainSpeed = 80* * 0.1
  5: 0x00C8 [0x00] END_REQSTACK()
```

### Event 65535.6

#### Metadata

| Field        | Value    |
|--------------|----------|
| Entrypoint   | 0x00C9   |
| Data Size    | 49 bytes |
| Instructions | 6        |

```
      00 01 02 03 04 05 06 07  08 09 0A 0B 0C 0D 0E 0F
      -- -- -- -- -- -- -- --  -- -- -- -- -- -- -- --
00C0:                             B6 0B 09 80 0A 80 00           .......
00D0: 80 07 80 08 80 08 80 08  80 00 80 00 80 1A 0B 02  ................
00E0: 7E 03 F8 FF FF 7F 02 00  00 80 03 00 04 00 05 00  ~...............
00F0: 7E 04 F8 FF FF 7F 32 04  80 00                    ~.....2...      
```

#### Opcodes

```
  0: 0x00C9 [0xB6] ENTITY_APPEARANCE_HANDLER(case=Full entity look, race=3*, hair=14*, head=0*, body=187*, hands=2*, legs=2*, feet=2*, main=0*, sub=0*)
  1: 0x00DD [0x1A] CALL_SUBROUTINE(address=0x020B)
  2: 0x00E0 [0x7E] CHOCOBO_MOUNT: Mount custom chocobo on EventEntity (index=2, color=32768, name_id=3)
  3: 0x00F0 [0x7E] CHOCOBO_MOUNT: Mode 4 on EventEntity
  4: 0x00F6 [0x32] ExtData[1]->MainSpeed = 80* * 0.1
  5: 0x00F9 [0x00] END_REQSTACK()
```

### Event 65535.7

#### Metadata

| Field        | Value    |
|--------------|----------|
| Entrypoint   | 0x00FA   |
| Data Size    | 49 bytes |
| Instructions | 6        |

```
      00 01 02 03 04 05 06 07  08 09 0A 0B 0C 0D 0E 0F
      -- -- -- -- -- -- -- --  -- -- -- -- -- -- -- --
00F0:                                B6 0B 0B 80 05 80            ......
0100: 00 80 07 80 08 80 08 80  08 80 00 80 00 80 1A 0B  ................
0110: 02 7E 03 F8 FF FF 7F 02  00 00 80 03 00 04 00 05  .~..............
0120: 00 7E 04 F8 FF FF 7F 32  04 80 00                 .~.....2...     
```

#### Opcodes

```
  0: 0x00FA [0xB6] ENTITY_APPEARANCE_HANDLER(case=Full entity look, race=4*, hair=1*, head=0*, body=187*, hands=2*, legs=2*, feet=2*, main=0*, sub=0*)
  1: 0x010E [0x1A] CALL_SUBROUTINE(address=0x020B)
  2: 0x0111 [0x7E] CHOCOBO_MOUNT: Mount custom chocobo on EventEntity (index=2, color=32768, name_id=3)
  3: 0x0121 [0x7E] CHOCOBO_MOUNT: Mode 4 on EventEntity
  4: 0x0127 [0x32] ExtData[1]->MainSpeed = 80* * 0.1
  5: 0x012A [0x00] END_REQSTACK()
```

### Event 65535.8

#### Metadata

| Field        | Value    |
|--------------|----------|
| Entrypoint   | 0x012B   |
| Data Size    | 49 bytes |
| Instructions | 6        |

```
      00 01 02 03 04 05 06 07  08 09 0A 0B 0C 0D 0E 0F
      -- -- -- -- -- -- -- --  -- -- -- -- -- -- -- --
0120:                                   B6 0B 0C 80 01             .....
0130: 80 00 80 07 80 08 80 08  80 08 80 00 80 00 80 1A  ................
0140: 0B 02 7E 03 F8 FF FF 7F  02 00 00 80 03 00 04 00  ..~.............
0150: 05 00 7E 04 F8 FF FF 7F  32 04 80 00              ..~.....2...    
```

#### Opcodes

```
  0: 0x012B [0xB6] ENTITY_APPEARANCE_HANDLER(case=Full entity look, race=5*, hair=8*, head=0*, body=187*, hands=2*, legs=2*, feet=2*, main=0*, sub=0*)
  1: 0x013F [0x1A] CALL_SUBROUTINE(address=0x020B)
  2: 0x0142 [0x7E] CHOCOBO_MOUNT: Mount custom chocobo on EventEntity (index=2, color=32768, name_id=3)
  3: 0x0152 [0x7E] CHOCOBO_MOUNT: Mode 4 on EventEntity
  4: 0x0158 [0x32] ExtData[1]->MainSpeed = 80* * 0.1
  5: 0x015B [0x00] END_REQSTACK()
```

### Event 65535.9

#### Metadata

| Field        | Value    |
|--------------|----------|
| Entrypoint   | 0x015C   |
| Data Size    | 49 bytes |
| Instructions | 6        |

```
      00 01 02 03 04 05 06 07  08 09 0A 0B 0C 0D 0E 0F
      -- -- -- -- -- -- -- --  -- -- -- -- -- -- -- --
0150:                                      B6 0B 03 80              ....
0160: 06 80 00 80 07 80 08 80  08 80 08 80 00 80 00 80  ................
0170: 1A 0B 02 7E 03 F8 FF FF  7F 02 00 00 80 03 00 04  ...~............
0180: 00 05 00 7E 04 F8 FF FF  7F 32 04 80 00           ...~.....2...   
```

#### Opcodes

```
  0: 0x015C [0xB6] ENTITY_APPEARANCE_HANDLER(case=Full entity look, race=6*, hair=10*, head=0*, body=187*, hands=2*, legs=2*, feet=2*, main=0*, sub=0*)
  1: 0x0170 [0x1A] CALL_SUBROUTINE(address=0x020B)
  2: 0x0173 [0x7E] CHOCOBO_MOUNT: Mount custom chocobo on EventEntity (index=2, color=32768, name_id=3)
  3: 0x0183 [0x7E] CHOCOBO_MOUNT: Mode 4 on EventEntity
  4: 0x0189 [0x32] ExtData[1]->MainSpeed = 80* * 0.1
  5: 0x018C [0x00] END_REQSTACK()
```

### Event 65535.10

#### Metadata

| Field        | Value    |
|--------------|----------|
| Entrypoint   | 0x018D   |
| Data Size    | 49 bytes |
| Instructions | 6        |

```
      00 01 02 03 04 05 06 07  08 09 0A 0B 0C 0D 0E 0F
      -- -- -- -- -- -- -- --  -- -- -- -- -- -- -- --
0180:                                         B6 0B 0D               ...
0190: 80 0C 80 00 80 07 80 08  80 08 80 08 80 00 80 00  ................
01A0: 80 1A 0B 02 7E 03 F8 FF  FF 7F 02 00 00 80 03 00  ....~...........
01B0: 04 00 05 00 7E 04 F8 FF  FF 7F 32 04 80 00        ....~.....2...  
```

#### Opcodes

```
  0: 0x018D [0xB6] ENTITY_APPEARANCE_HANDLER(case=Full entity look, race=7*, hair=5*, head=0*, body=187*, hands=2*, legs=2*, feet=2*, main=0*, sub=0*)
  1: 0x01A1 [0x1A] CALL_SUBROUTINE(address=0x020B)
  2: 0x01A4 [0x7E] CHOCOBO_MOUNT: Mount custom chocobo on EventEntity (index=2, color=32768, name_id=3)
  3: 0x01B4 [0x7E] CHOCOBO_MOUNT: Mode 4 on EventEntity
  4: 0x01BA [0x32] ExtData[1]->MainSpeed = 80* * 0.1
  5: 0x01BD [0x00] END_REQSTACK()
```

### Event 65535.11

#### Metadata

| Field        | Value    |
|--------------|----------|
| Entrypoint   | 0x01BE   |
| Data Size    | 49 bytes |
| Instructions | 6        |

```
      00 01 02 03 04 05 06 07  08 09 0A 0B 0C 0D 0E 0F
      -- -- -- -- -- -- -- --  -- -- -- -- -- -- -- --
01B0:                                            B6 0B                ..
01C0: 01 80 00 80 00 80 07 80  08 80 08 80 08 80 00 80  ................
01D0: 00 80 1A 0B 02 7E 03 F8  FF FF 7F 02 00 00 80 03  .....~..........
01E0: 00 04 00 05 00 7E 04 F8  FF FF 7F 32 04 80 00     .....~.....2... 
```

#### Opcodes

```
  0: 0x01BE [0xB6] ENTITY_APPEARANCE_HANDLER(case=Full entity look, race=8*, hair=0*, head=0*, body=187*, hands=2*, legs=2*, feet=2*, main=0*, sub=0*)
  1: 0x01D2 [0x1A] CALL_SUBROUTINE(address=0x020B)
  2: 0x01D5 [0x7E] CHOCOBO_MOUNT: Mount custom chocobo on EventEntity (index=2, color=32768, name_id=3)
  3: 0x01E5 [0x7E] CHOCOBO_MOUNT: Mode 4 on EventEntity
  4: 0x01EB [0x32] ExtData[1]->MainSpeed = 80* * 0.1
  5: 0x01EE [0x00] END_REQSTACK()
```

### Event 65535.12

#### Metadata

| Field        | Value    |
|--------------|----------|
| Entrypoint   | 0x01EF   |
| Data Size    | 14 bytes |
| Instructions | 4        |

```
      00 01 02 03 04 05 06 07  08 09 0A 0B 0C 0D 0E 0F
      -- -- -- -- -- -- -- --  -- -- -- -- -- -- -- --
01E0:                                               32                 2
01F0: 0E 80 1F 00 0F 80 10 80  11 80 1F 01 00           .............   
```

#### Opcodes

```
  0: 0x01EF [0x32] ExtData[1]->MainSpeed = 27* * 0.1
  1: 0x01F2 [0x1F] MOVE_ENTITY: EventEntity moves to X=-93.751*, Z=-75.256*, Y=-0.500*
  2: 0x01FA [0x1F] MOVE_ENTITY: Update entity position (mode=1)
  3: 0x01FC [0x00] END_REQSTACK()
```

### Event 65535.13

#### Metadata

| Field        | Value     |
|--------------|-----------|
| Entrypoint   | 0x01FD    |
| Data Size    | 107 bytes |
| Instructions | 4         |

```
      00 01 02 03 04 05 06 07  08 09 0A 0B 0C 0D 0E 0F
      -- -- -- -- -- -- -- --  -- -- -- -- -- -- -- --
01F0:                                         32 04 80               2..
0200: 1F 00 12 80 13 80 00 80  1F 01 00 BF 20 00 80 00  ............ ...
0210: 80 08 80 00 00 41 14 80  15 80 00 00 01 00 41 16  .....A........A.
0220: 80 0E 80 00 00 02 00 BF  20 00 80 00 80 05 80 00  ........ .......
0230: 00 3E 00 00 17 80 40 02  03 03 00 05 80 01 43 02  .>....@.......C.
0240: 06 03 00 3E 00 00 00 80  52 02 03 04 00 05 80 01  ...>....R.......
0250: 55 02 06 04 00 3E 00 00  01 80 64 02 03 05 00 05  U....>....d.....
0260: 80 01 67 02 06 04 00 1B                           ..g.....        
```

#### Opcodes

```
  0: 0x01FD [0x32] ExtData[1]->MainSpeed = 80* * 0.1
  1: 0x0200 [0x1F] MOVE_ENTITY: EventEntity moves to X=-73.005*, Z=-74.716*, Y=0.000*
  2: 0x0208 [0x1F] MOVE_ENTITY: Update entity position (mode=1)
  3: 0x020A [0x00] END_REQSTACK()
```

#### Data or dead code:

```
# Dead code (unreachable instructions):
     0x020B [0xBF] CHOCOBO_RACING_PARAMETER_GETTER(param_type=0x20)
     0x020D [0x00] END_REQSTACK()
     0x020E [0x80] LOAD_WAIT(entity=Unknown NPC (ID: 2148040704/0x80088000))
     0x0213 [0x00] END_REQSTACK()
     0x0214 [0x00] END_REQSTACK()
     0x0215 [0x41] ExtData[1]->WorkLocal[1] = ExtData[1]->WorkLocal[0] (bits 28*-30*)
     0x021E [0x41] ExtData[1]->WorkLocal[2] = ExtData[1]->WorkLocal[0] (bits 25*-27*)
     0x0227 [0xBF] CHOCOBO_RACING_PARAMETER_GETTER(param_type=0x20)
     0x0229 [0x00] END_REQSTACK()
     0x022A [0x80] LOAD_WAIT(entity=Unknown NPC (ID: 2147844096/0x80058000))
     0x022F [0x00] END_REQSTACK()
     0x0230 [0x00] END_REQSTACK()
     0x0231 [0x3E] IF !(ExtData[1]->WorkLocal[0] bit 16*) GOTO 0x0240
     0x0238 [0x03] ExtData[1]->WorkLocal[3] = 1*
     0x023D [0x01] GOTO 0x0243
     0x0240 [0x06] ExtData[1]->WorkLocal[3] = 0
     0x0243 [0x3E] IF !(ExtData[1]->WorkLocal[0] bit 0*) GOTO 0x0252
     0x024A [0x03] ExtData[1]->WorkLocal[4] = 1*
     0x024F [0x01] GOTO 0x0255
     0x0252 [0x06] ExtData[1]->WorkLocal[4] = 0
     0x0255 [0x3E] IF !(ExtData[1]->WorkLocal[0] bit 8*) GOTO 0x0264
     0x025C [0x03] ExtData[1]->WorkLocal[5] = 1*
     0x0261 [0x01] GOTO 0x0267
     0x0264 [0x06] ExtData[1]->WorkLocal[4] = 0
     0x0267 [0x1B] RETURN
```

### Event 65535.14

#### Metadata

| Field        | Value     |
|--------------|-----------|
| Entrypoint   | 0x0268    |
| Data Size    | 277 bytes |
| Instructions | 51        |

```
      00 01 02 03 04 05 06 07  08 09 0A 0B 0C 0D 0E 0F
      -- -- -- -- -- -- -- --  -- -- -- -- -- -- -- --
0260:                          03 06 00 2C 10 03 0D 00          ...,....
0270: 2C 10 03 0E 00 2D 10 03  0F 00 29 10 02 0F 00 18  ,....-....).....
0280: 80 05 A4 02 41 00 80 09  80 26 10 12 00 03 11 00  ....A....&......
0290: 01 80 08 11 00 12 00 07  0D 00 11 00 03 12 00 11  ................
02A0: 00 01 A7 02 06 12 00 02  0F 00 18 80 03 CF 02 41  ...............A
02B0: 00 80 09 80 27 10 13 00  03 11 00 01 80 08 11 00  ....'...........
02C0: 13 00 07 0E 00 11 00 03  13 00 11 00 01 D2 02 06  ................
02D0: 13 00 03 07 00 0D 00 14  07 00 0B 80 9D 03 08 80  ................
02E0: 08 00 07 00 0B 07 00 9D  03 08 80 09 00 07 00 0B  ................
02F0: 07 00 9D 03 08 80 0A 00  07 00 0B 07 00 9D 03 08  ................
0300: 80 0B 00 07 00 02 0F 00  00 80 00 10 03 01 17 03  ................
0310: 36 08 00 0A 00 09 00 40  00 80 0D 80 35 10 0F 00  6......@....5...
0320: 08 13 00 12 00 9D 03 00  80 12 00 0F 00 07 13 00  ................
0330: 12 00 9D 03 00 80 11 00  0F 00 14 13 00 19 80 15  ................
0340: 13 00 11 00 03 11 00 13  00 03 12 00 0F 00 14 12  ................
0350: 00 01 80 07 12 00 00 80  9D 03 05 80 12 00 12 00  ................
0360: 14 11 00 12 00 15 11 00  19 80 03 0C 00 04 80 14  ................
0370: 0C 00 11 00 15 0C 00 19  80 32 0C 00 00           .........2...   
```

#### Opcodes

```
  0: 0x0268 [0x03] ExtData[1]->WorkLocal[6] = Work_Zone[44]
  1: 0x026D [0x03] ExtData[1]->WorkLocal[13] = Work_Zone[44]
  2: 0x0272 [0x03] ExtData[1]->WorkLocal[14] = Work_Zone[45]
  3: 0x0277 [0x03] ExtData[1]->WorkLocal[15] = Work_Zone[41]
  4: 0x027C [0x02] IF !(ExtData[1]->WorkLocal[15] > 32*) GOTO 0x02A4
  5: 0x0284 [0x41] ExtData[1]->WorkLocal[18] = Work_Zone[38] (bits 0*-3*)
  6: 0x028D [0x03] ExtData[1]->WorkLocal[17] = 8*
  7: 0x0292 [0x08] ExtData[1]->WorkLocal[17] -= ExtData[1]->WorkLocal[18]
  8: 0x0297 [0x07] ExtData[1]->WorkLocal[13] += ExtData[1]->WorkLocal[17]
  9: 0x029C [0x03] ExtData[1]->WorkLocal[18] = ExtData[1]->WorkLocal[17]
 10: 0x02A1 [0x01] GOTO 0x02A7
 11: 0x02A4 [0x06] ExtData[1]->WorkLocal[18] = 0

SUBROUTINE_02A7:
 12: 0x02A7 [0x02] IF !(ExtData[1]->WorkLocal[15] >= 32*) GOTO 0x02CF
 13: 0x02AF [0x41] ExtData[1]->WorkLocal[19] = Work_Zone[39] (bits 0*-3*)
 14: 0x02B8 [0x03] ExtData[1]->WorkLocal[17] = 8*
 15: 0x02BD [0x08] ExtData[1]->WorkLocal[17] -= ExtData[1]->WorkLocal[19]
 16: 0x02C2 [0x07] ExtData[1]->WorkLocal[14] += ExtData[1]->WorkLocal[17]
 17: 0x02C7 [0x03] ExtData[1]->WorkLocal[19] = ExtData[1]->WorkLocal[17]
 18: 0x02CC [0x01] GOTO 0x02D2
 19: 0x02CF [0x06] ExtData[1]->WorkLocal[19] = 0

SUBROUTINE_02D2:
 20: 0x02D2 [0x03] ExtData[1]->WorkLocal[7] = ExtData[1]->WorkLocal[13]
 21: 0x02D7 [0x14] ExtData[1]->WorkLocal[7] *= 4*
 22: 0x02DC [0x9D] ExtData[1]->WorkLocal[7] = Work_Zone[2*][ExtData[1]->WorkLocal[8]] // Via remapped space
 23: 0x02E4 [0x0B] ExtData[1]->WorkLocal[7]++
 24: 0x02E7 [0x9D] ExtData[1]->WorkLocal[7] = Work_Zone[2*][ExtData[1]->WorkLocal[9]] // Via remapped space
 25: 0x02EF [0x0B] ExtData[1]->WorkLocal[7]++
 26: 0x02F2 [0x9D] ExtData[1]->WorkLocal[7] = Work_Zone[2*][ExtData[1]->WorkLocal[10]] // Via remapped space
 27: 0x02FA [0x0B] ExtData[1]->WorkLocal[7]++
 28: 0x02FD [0x9D] ExtData[1]->WorkLocal[7] = Work_Zone[2*][ExtData[1]->WorkLocal[11]] // Via remapped space
 29: 0x0305 [0x02] IF !(ExtData[1]->WorkLocal[15] == 0*) GOTO 0x0310
 30: 0x030D [0x01] GOTO 0x0317
 31: 0x0310 [0x36] SET_ENTITY_EVENT_POSITION(pos_x=ExtData[1]->WorkLocal[8], pos_z=ExtData[1]->WorkLocal[10], pos_y=ExtData[1]->WorkLocal[9])

SUBROUTINE_0317:
 32: 0x0317 [0x40] SET_BIT_WORK_RANGE(start_bit=0*, end_bit=7*, target=Work_Zone[53], source=ExtData[1]->WorkLocal[15])
 33: 0x0320 [0x08] ExtData[1]->WorkLocal[19] -= ExtData[1]->WorkLocal[18]
 34: 0x0325 [0x9D] ExtData[1]->WorkLocal[15] = Work_Zone[0][ExtData[1]->WorkLocal[18]] // Via remapped space
 35: 0x032D [0x07] ExtData[1]->WorkLocal[19] += ExtData[1]->WorkLocal[18]
 36: 0x0332 [0x9D] ExtData[1]->WorkLocal[15] = Work_Zone[0][ExtData[1]->WorkLocal[17]] // Via remapped space
 37: 0x033A [0x14] ExtData[1]->WorkLocal[19] *= 1000*
 38: 0x033F [0x15] ExtData[1]->WorkLocal[19] /= ExtData[1]->WorkLocal[17]
 39: 0x0344 [0x03] ExtData[1]->WorkLocal[17] = ExtData[1]->WorkLocal[19]
 40: 0x0349 [0x03] ExtData[1]->WorkLocal[18] = ExtData[1]->WorkLocal[15]
 41: 0x034E [0x14] ExtData[1]->WorkLocal[18] *= 8*
 42: 0x0353 [0x07] ExtData[1]->WorkLocal[18] += 0*
 43: 0x0358 [0x9D] ExtData[1]->WorkLocal[18] = Work_Zone[1*][ExtData[1]->WorkLocal[18]] // Via remapped space
 44: 0x0360 [0x14] ExtData[1]->WorkLocal[17] *= ExtData[1]->WorkLocal[18]
 45: 0x0365 [0x15] ExtData[1]->WorkLocal[17] /= 1000*
 46: 0x036A [0x03] ExtData[1]->WorkLocal[12] = 80*
 47: 0x036F [0x14] ExtData[1]->WorkLocal[12] *= ExtData[1]->WorkLocal[17]
 48: 0x0374 [0x15] ExtData[1]->WorkLocal[12] /= 1000*
 49: 0x0379 [0x32] ExtData[1]->MainSpeed = ExtData[1]->WorkLocal[12] * 0.1
 50: 0x037C [0x00] END_REQSTACK()
```

### Event 65535.15

#### Metadata

| Field        | Value     |
|--------------|-----------|
| Entrypoint   | 0x037D    |
| Data Size    | 530 bytes |
| Instructions | 72        |

```
      00 01 02 03 04 05 06 07  08 09 0A 0B 0C 0D 0E 0F
      -- -- -- -- -- -- -- --  -- -- -- -- -- -- -- --
0370:                                         03 06 00               ...
0380: 0D 00 02 0F 00 15 80 00  8F 03 03 06 00 0E 00 02  ................
0390: 0F 00 1A 80 00 9F 03 03  06 00 31 10 0C 06 00 02  ..........1.....
03A0: 06 00 33 10 05 AF 04 02  06 00 0E 00 05 65 04 02  ..3..........e..
03B0: 31 10 06 00 05 BE 03 3C  30 10 00 80 05 80 02 06  1......<0.......
03C0: 00 33 10 02 C9 03 01 AF  04 02 37 10 08 80 00 02  .3........7.....
03D0: 04 BF 60 00 80 00 80 11  00 41 00 80 09 80 11 00  ..`......A......
03E0: 11 00 02 11 00 00 80 00  FF 03 03 02 10 31 10 07  .............1..
03F0: 02 10 03 80 02 02 10 06  00 05 FF 03 01 AF 04 01  ................
0400: 17 04 03 02 10 31 10 07  02 10 03 80 02 02 10 06  .....1..........
0410: 00 05 17 04 01 AF 04 03  07 00 06 00 14 07 00 0B  ................
0420: 80 9D 03 08 80 08 00 07  00 0B 07 00 9D 03 08 80  ................
0430: 09 00 07 00 0B 07 00 9D  03 08 80 0A 00 07 00 0B  ................
0440: 07 00 9D 03 08 80 0B 00  07 00 02 0F 00 00 80 00  ................
0450: 55 04 01 5F 04 1F 00 08  00 0A 00 09 00 1F 01 0B  U.._............
0460: 06 00 01 A7 03 07 0F 00  05 80 3C 30 10 01 80 05  ..........<0....
0470: 80 40 00 80 0D 80 35 10  0F 00 03 0D 00 0E 00 9D  .@....5.........
0480: 03 00 80 10 00 0F 00 07  0E 00 10 00 1A B0 04 02  ................
0490: 0F 00 15 80 00 9C 04 03  06 00 0E 00 02 0F 00 1A  ................
04A0: 80 00 AC 04 03 06 00 31  10 0C 06 00 01 9F 03 00  .......1........
04B0: 03 16 00 0D 00 03 17 00  0E 00 02 0F 00 18 80 03  ................
04C0: EC 04 BF 40 00 80 0F 00  00 80 14 00 41 00 80 09  ...@........A...
04D0: 80 14 00 12 00 03 11 00  01 80 08 11 00 12 00 07  ................
04E0: 0D 00 11 00 03 12 00 11  00 01 F1 04 03 12 00 00  ................
04F0: 80 02 0F 00 18 80 03 23  05 BF 40 00 80 0F 00 05  .......#..@.....
0500: 80 15 00 41 00 80 09 80  15 00 13 00 03 11 00 01  ...A............
0510: 80 08 11 00 13 00 07 0E  00 11 00 03 13 00 11 00  ................
0520: 01 28 05 03 13 00 00 80  08 13 00 12 00 9D 03 00  .(..............
0530: 80 12 00 0F 00 07 13 00  12 00 9D 03 00 80 11 00  ................
0540: 0F 00 14 13 00 19 80 15  13 00 11 00 03 11 00 13  ................
0550: 00 03 12 00 0F 00 14 12  00 01 80 07 12 00 00 80  ................
0560: 9D 03 05 80 12 00 12 00  14 11 00 12 00 15 11 00  ................
0570: 19 80 03 0C 00 04 80 14  0C 00 11 00 15 0C 00 19  ................
0580: 80 32 0C 00 03 0D 00 16  00 03 0E 00 17 00 1B     .2............. 
```

#### Opcodes

```
  0: 0x037D [0x03] ExtData[1]->WorkLocal[6] = ExtData[1]->WorkLocal[13]
  1: 0x0382 [0x02] IF !(ExtData[1]->WorkLocal[15] == 30*) GOTO 0x038F
  2: 0x038A [0x03] ExtData[1]->WorkLocal[6] = ExtData[1]->WorkLocal[14]
  3: 0x038F [0x02] IF !(ExtData[1]->WorkLocal[15] == 31*) GOTO 0x039F
  4: 0x0397 [0x03] ExtData[1]->WorkLocal[6] = Work_Zone[49]
  5: 0x039C [0x0C] ExtData[1]->WorkLocal[6]--
  6: 0x039F [0x02] IF !(ExtData[1]->WorkLocal[6] > Work_Zone[51]) GOTO 0x04AF
  7: 0x03A7 [0x02] IF !(ExtData[1]->WorkLocal[6] > ExtData[1]->WorkLocal[14]) GOTO 0x0465
  8: 0x03AF [0x02] IF !(Work_Zone[49] > ExtData[1]->WorkLocal[6]) GOTO 0x03BE
  9: 0x03B7 [0x3C] SET_BIT_FLAG_CONDITIONAL(target_work_offset=Work_Zone[48], bit_index_work_offset=0*, condition_work_offset=1*)
 10: 0x03BE [0x02] IF !(ExtData[1]->WorkLocal[6] <= Work_Zone[51]) GOTO 0x03C9
 11: 0x03C6 [0x01] GOTO 0x04AF
 12: 0x03C9 [0x02] IF !(Work_Zone[55] == 2*) GOTO 0x0402
 13: 0x03D1 [0xBF] CHOCOBO_RACING_PARAMETER_GETTER(param_type=0x60)
 14: 0x03D3 [0x00] END_REQSTACK()

SUBROUTINE_0417:
 15: 0x0417 [0x03] ExtData[1]->WorkLocal[7] = ExtData[1]->WorkLocal[6]
 16: 0x041C [0x14] ExtData[1]->WorkLocal[7] *= 4*
 17: 0x0421 [0x9D] ExtData[1]->WorkLocal[7] = Work_Zone[2*][ExtData[1]->WorkLocal[8]] // Via remapped space
 18: 0x0429 [0x0B] ExtData[1]->WorkLocal[7]++
 19: 0x042C [0x9D] ExtData[1]->WorkLocal[7] = Work_Zone[2*][ExtData[1]->WorkLocal[9]] // Via remapped space
 20: 0x0434 [0x0B] ExtData[1]->WorkLocal[7]++
 21: 0x0437 [0x9D] ExtData[1]->WorkLocal[7] = Work_Zone[2*][ExtData[1]->WorkLocal[10]] // Via remapped space
 22: 0x043F [0x0B] ExtData[1]->WorkLocal[7]++
 23: 0x0442 [0x9D] ExtData[1]->WorkLocal[7] = Work_Zone[2*][ExtData[1]->WorkLocal[11]] // Via remapped space
 24: 0x044A [0x02] IF !(ExtData[1]->WorkLocal[15] == 0*) GOTO 0x0455
 25: 0x0452 [0x01] GOTO 0x045F
 26: 0x0455 [0x1F] MOVE_ENTITY: EventEntity moves to X=ExtData[1]->WorkLocal[8], Z=ExtData[1]->WorkLocal[10], Y=ExtData[1]->WorkLocal[9]
 27: 0x045D [0x1F] MOVE_ENTITY: Update entity position (mode=1)

SUBROUTINE_045F:
 28: 0x045F [0x0B] ExtData[1]->WorkLocal[6]++
 29: 0x0462 [0x01] GOTO 0x03A7
 30: 0x0465 [0x07] ExtData[1]->WorkLocal[15] += 1*
 31: 0x046A [0x3C] SET_BIT_FLAG_CONDITIONAL(target_work_offset=Work_Zone[48], bit_index_work_offset=8*, condition_work_offset=1*)
 32: 0x0471 [0x40] SET_BIT_WORK_RANGE(start_bit=0*, end_bit=7*, target=Work_Zone[53], source=ExtData[1]->WorkLocal[15])
 33: 0x047A [0x03] ExtData[1]->WorkLocal[13] = ExtData[1]->WorkLocal[14]
 34: 0x047F [0x9D] ExtData[1]->WorkLocal[15] = Work_Zone[0][ExtData[1]->WorkLocal[16]] // Via remapped space
 35: 0x0487 [0x07] ExtData[1]->WorkLocal[14] += ExtData[1]->WorkLocal[16]
 36: 0x048C [0x1A] CALL_SUBROUTINE(address=0x04B0)
 37: 0x048F [0x02] IF !(ExtData[1]->WorkLocal[15] == 30*) GOTO 0x049C
 38: 0x0497 [0x03] ExtData[1]->WorkLocal[6] = ExtData[1]->WorkLocal[14]
 39: 0x049C [0x02] IF !(ExtData[1]->WorkLocal[15] == 31*) GOTO 0x04AC
 40: 0x04A4 [0x03] ExtData[1]->WorkLocal[6] = Work_Zone[49]
 41: 0x04A9 [0x0C] ExtData[1]->WorkLocal[6]--
 42: 0x04AC [0x01] GOTO 0x039F

SUBROUTINE_04AF:
 43: 0x04AF [0x00] END_REQSTACK()

SUBROUTINE_04B0:
 44: 0x04B0 [0x03] ExtData[1]->WorkLocal[22] = ExtData[1]->WorkLocal[13]
 45: 0x04B5 [0x03] ExtData[1]->WorkLocal[23] = ExtData[1]->WorkLocal[14]
 46: 0x04BA [0x02] IF !(ExtData[1]->WorkLocal[15] >= 32*) GOTO 0x04EC
 47: 0x04C2 [0xBF] CHOCOBO_RACING_PARAMETER_GETTER(param_type=0x40)
 48: 0x04C4 [0x00] END_REQSTACK()

SUBROUTINE_04F1:
 49: 0x04F1 [0x02] IF !(ExtData[1]->WorkLocal[15] >= 32*) GOTO 0x0523
 50: 0x04F9 [0xBF] CHOCOBO_RACING_PARAMETER_GETTER(param_type=0x40)
 51: 0x04FB [0x00] END_REQSTACK()

SUBROUTINE_0528:
 52: 0x0528 [0x08] ExtData[1]->WorkLocal[19] -= ExtData[1]->WorkLocal[18]
 53: 0x052D [0x9D] ExtData[1]->WorkLocal[15] = Work_Zone[0][ExtData[1]->WorkLocal[18]] // Via remapped space
 54: 0x0535 [0x07] ExtData[1]->WorkLocal[19] += ExtData[1]->WorkLocal[18]
 55: 0x053A [0x9D] ExtData[1]->WorkLocal[15] = Work_Zone[0][ExtData[1]->WorkLocal[17]] // Via remapped space
 56: 0x0542 [0x14] ExtData[1]->WorkLocal[19] *= 1000*
 57: 0x0547 [0x15] ExtData[1]->WorkLocal[19] /= ExtData[1]->WorkLocal[17]
 58: 0x054C [0x03] ExtData[1]->WorkLocal[17] = ExtData[1]->WorkLocal[19]
 59: 0x0551 [0x03] ExtData[1]->WorkLocal[18] = ExtData[1]->WorkLocal[15]
 60: 0x0556 [0x14] ExtData[1]->WorkLocal[18] *= 8*
 61: 0x055B [0x07] ExtData[1]->WorkLocal[18] += 0*
 62: 0x0560 [0x9D] ExtData[1]->WorkLocal[18] = Work_Zone[1*][ExtData[1]->WorkLocal[18]] // Via remapped space
 63: 0x0568 [0x14] ExtData[1]->WorkLocal[17] *= ExtData[1]->WorkLocal[18]
 64: 0x056D [0x15] ExtData[1]->WorkLocal[17] /= 1000*
 65: 0x0572 [0x03] ExtData[1]->WorkLocal[12] = 80*
 66: 0x0577 [0x14] ExtData[1]->WorkLocal[12] *= ExtData[1]->WorkLocal[17]
 67: 0x057C [0x15] ExtData[1]->WorkLocal[12] /= 1000*
 68: 0x0581 [0x32] ExtData[1]->MainSpeed = ExtData[1]->WorkLocal[12] * 0.1
 69: 0x0584 [0x03] ExtData[1]->WorkLocal[13] = ExtData[1]->WorkLocal[22]
 70: 0x0589 [0x03] ExtData[1]->WorkLocal[14] = ExtData[1]->WorkLocal[23]
 71: 0x058E [0x1B] RETURN
```

#### Data or dead code:

```
# Dead code (unreachable instructions):
     0x03D4 [0x80] LOAD_WAIT(entity=Unknown NPC (ID: 1146880/0x00118000))
     0x03D9 [0x41] ExtData[1]->WorkLocal[17] = ExtData[1]->WorkLocal[17] (bits 0*-3*)
     0x03E2 [0x02] IF !(ExtData[1]->WorkLocal[17] == 0*) GOTO 0x03FF
     0x03EA [0x03] Work_Zone[2] = Work_Zone[49]
     0x03EF [0x07] Work_Zone[2] += 6*
     0x03F4 [0x02] IF !(Work_Zone[2] > ExtData[1]->WorkLocal[6]) GOTO 0x03FF
     0x03FC [0x01] GOTO 0x04AF
     0x03FF [0x01] GOTO 0x0417
# Dead code (unreachable instructions):
     0x04C5 [0x80] LOAD_WAIT(entity=Unknown NPC (ID: 2147483663/0x8000000F))
     0x04CA [0x14] 0x4100 *= 0*
     0x04CF [0x09] 0x1480 |= (1 << 0x1200)
     0x04D4 [0x00] END_REQSTACK()
     0x04D5 [0x03] ExtData[1]->WorkLocal[17] = 8*
     0x04DA [0x08] ExtData[1]->WorkLocal[17] -= ExtData[1]->WorkLocal[18]
     0x04DF [0x07] ExtData[1]->WorkLocal[13] += ExtData[1]->WorkLocal[17]
     0x04E4 [0x03] ExtData[1]->WorkLocal[18] = ExtData[1]->WorkLocal[17]
     0x04E9 [0x01] GOTO 0x04F1
# Dead code (unreachable instructions):
     0x04FC [0x80] LOAD_WAIT(entity=Unknown NPC (ID: 2147811343/0x8005000F))
     0x0501 [0x15] 0x4100 /= 0*
     0x0506 [0x09] 0x1580 |= (1 << 0x1300)
     0x050B [0x00] END_REQSTACK()
     0x050C [0x03] ExtData[1]->WorkLocal[17] = 8*
     0x0511 [0x08] ExtData[1]->WorkLocal[17] -= ExtData[1]->WorkLocal[19]
     0x0516 [0x07] ExtData[1]->WorkLocal[14] += ExtData[1]->WorkLocal[17]
     0x051B [0x03] ExtData[1]->WorkLocal[19] = ExtData[1]->WorkLocal[17]
     0x0520 [0x01] GOTO 0x0528
```

### Event 65535.16

#### Metadata

| Field        | Value   |
|--------------|---------|
| Entrypoint   | 0x058F  |
| Data Size    | 3 bytes |
| Instructions | 2       |

```
      00 01 02 03 04 05 06 07  08 09 0A 0B 0C 0D 0E 0F
      -- -- -- -- -- -- -- --  -- -- -- -- -- -- -- --
0580:                                               61                 a
0590: 00 00                                             ..              
```

#### Opcodes

```
  0: 0x058F [0x61] EventEntity->Render.Flags2 &= ~0x00000001
  1: 0x0591 [0x00] END_REQSTACK()
```

### Event 65535.17

#### Metadata

| Field        | Value   |
|--------------|---------|
| Entrypoint   | 0x0592  |
| Data Size    | 3 bytes |
| Instructions | 2       |

```
      00 01 02 03 04 05 06 07  08 09 0A 0B 0C 0D 0E 0F
      -- -- -- -- -- -- -- --  -- -- -- -- -- -- -- --
0590:       61 01 00                                      a..           
```

#### Opcodes

```
  0: 0x0592 [0x61] EventEntity->Render.Flags2 |= 0x00000001
  1: 0x0594 [0x00] END_REQSTACK()
```
