# 0x7FFFFFF0 - Zone Events

## Common Data

| Field            | Value                    |
|------------------|--------------------------|
| Zone             | Chocobo Circuit (ID: 70) |
| Block Size       | 4016 bytes               |
| Total Events     | 32                       |
| References Count | 77                       |

## List of Events

| Event ID                   | Entrypoint   |   Size |   Instructions |
|----------------------------|--------------|--------|----------------|
| [65535](#event-65535)      | 0x0000       |      1 |              1 |
| [65534](#event-65534)      | 0x0001       |      1 |              1 |
| [65535.1](#event-655351)   | 0x0002       |     14 |              4 |
| [355](#event-355)          | 0x0010       |     54 |              9 |
| [65535.2](#event-655352)   | 0x0046       |     51 |             11 |
| [65535.3](#event-655353)   | 0x0079       |     14 |              4 |
| [65535.4](#event-655354)   | 0x0087       |     15 |              5 |
| [65535.5](#event-655355)   | 0x0096       |     24 |              4 |
| [65535.6](#event-655356)   | 0x00AE       |    185 |             37 |
| [65535.7](#event-655357)   | 0x0167       |     51 |             11 |
| [65535.8](#event-655358)   | 0x019A       |     16 |              4 |
| [65535.9](#event-655359)   | 0x01AA       |    349 |             66 |
| [65535.10](#event-6553510) | 0x0307       |    413 |             83 |
| [65535.11](#event-6553511) | 0x04A4       |    339 |             64 |
| [65535.12](#event-6553512) | 0x05F7       |    451 |             92 |
| [210](#event-210)          | 0x07BA       |    588 |            111 |
| [65535.13](#event-6553513) | 0x0A06       |      5 |              3 |
| [65535.14](#event-6553514) | 0x0A0B       |      5 |              3 |
| [406](#event-406)          | 0x0A10       |    197 |             46 |
| [249](#event-249)          | 0x0AD5       |     67 |             17 |
| [250](#event-250)          | 0x0B18       |     67 |             17 |
| [251](#event-251)          | 0x0B5B       |     67 |             17 |
| [252](#event-252)          | 0x0B9E       |     67 |             17 |
| [253](#event-253)          | 0x0BE1       |     67 |             17 |
| [254](#event-254)          | 0x0C24       |     67 |             17 |
| [255](#event-255)          | 0x0C67       |     67 |             17 |
| [256](#event-256)          | 0x0CAA       |     67 |             17 |
| [257](#event-257)          | 0x0CED       |     67 |             17 |
| [258](#event-258)          | 0x0D30       |     67 |             17 |
| [259](#event-259)          | 0x0D73       |     41 |              5 |
| [260](#event-260)          | 0x0D9C       |     38 |              4 |
| [65535.15](#event-6553515) | 0x0DC2       |     42 |              6 |

## DAT References (imed_data)

|   Index | Hex Value   |   Dec Value |
|---------|-------------|-------------|
|       0 | 0x0050      |          80 |
|       1 | 0xFFFEE2D3  |  4294894291 |
|       2 | 0xFFFEDC24  |  4294892580 |
|       3 | 0x0000      |           0 |
|       4 | 0x00C8      |         200 |
|       5 | 0x003C      |          60 |
|       6 | 0x033A      |         826 |
|       7 | 0x001E      |          30 |
|       8 | 0x0008      |           8 |
|       9 | 0x00B4      |         180 |
|      10 | 0x0415      |        1045 |
|      11 | 0x000D      |          13 |
|      12 | 0xFFFF204B  |  4294910027 |
|      13 | 0xFFFEC845  |  4294887493 |
|      14 | 0x72A4E     |      469582 |
|      15 | 0x65BD6     |      416726 |
|      16 | 0x5ED2      |       24274 |
|      17 | 0x0005      |           5 |
|      18 | 0x0001      |           1 |
|      19 | 0x0002      |           2 |
|      20 | 0x000A      |          10 |
|      21 | 0x0009      |           9 |
|      22 | 0x0046      |          70 |
|      23 | 0x008C      |         140 |
|      24 | 0x00D2      |         210 |
|      25 | 0x0AC6      |        2758 |
|      26 | 0x07C7      |        1991 |
|      27 | 0x0026      |          38 |
|      28 | 0x0004      |           4 |
|      29 | 0x0003      |           3 |
|      30 | 0x0020      |          32 |
|      31 | 0x03E8      |        1000 |
|      32 | 0x0007      |           7 |
|      33 | 0x001F      |          31 |
|      34 | 0x0006      |           6 |
|      35 | 0xFFFFFFFB  |  4294967291 |
|      36 | 0x0012      |          18 |
|      37 | 0x0017      |          23 |
|      38 | 0xFFFFFFFC  |  4294967292 |
|      39 | 0x234F      |        9039 |
|      40 | 0xFFFFFFFA  |  4294967290 |
|      41 | 0xFFFFFFFF  |  4294967295 |
|      42 | 0xFFFFFFFE  |  4294967294 |
|      43 | 0x2341      |        9025 |
|      44 | 0xFFFFFFF9  |  4294967289 |
|      45 | 0x2340      |        9024 |
|      46 | 0xFFFFFFFD  |  4294967293 |
|      47 | 0x2350      |        9040 |
|      48 | 0x2351      |        9041 |
|      49 | 0x00BF      |         191 |
|      50 | 0x2360      |        9056 |
|      51 | 0x2517      |        9495 |
|      52 | 0x2518      |        9496 |
|      53 | 0xFFF84F40  |  4294463296 |
|      54 | 0xFFFA8D78  |  4294610296 |
|      55 | 0x1000      |        4096 |
|      56 | 0xFFF889D8  |  4294478296 |
|      57 | 0xFFF7ED98  |  4294438296 |
|      58 | 0x09E1      |        2529 |
|      59 | 0xFFFDB610  |  4294817296 |
|      60 | 0xFFF7B6E8  |  4294424296 |
|      61 | 0x0C00      |        3072 |
|      62 | 0xFFFB0690  |  4294641296 |
|      63 | 0xFFFB8778  |  4294674296 |
|      64 | 0x0400      |        1024 |
|      65 | 0x2516      |        9494 |
|      66 | 0xFFFA81C0  |  4294607296 |
|      67 | 0xFFF8EF68  |  4294504296 |
|      68 | 0xFFFFF060  |  4294963296 |
|      69 | 0xFFF86A98  |  4294470296 |
|      70 | 0xFFFBBA40  |  4294687296 |
|      71 | 0xFFFB1248  |  4294644296 |
|      72 | 0xFFF94940  |  4294527296 |
|      73 | 0x0800      |        2048 |
|      74 | 0xFFFD7F60  |  4294803296 |
|      75 | 0xFFFA4EF8  |  4294594296 |
|      76 | 0x00AA      |         170 |

## String References

- **9024**: I am so sorry, but it seems you do not possess enough chocobucks to participate in the next race.
- **9025**: I am so, so sorry, but it seems that you do not possess enough gil to enter your chocobo in the next race.
- **9039**: I'm sorry. Things are a little confusing now with all these entries. Would you mind coming back a little later? Thank you.
- **9040**: I'm sorry. The other chocobos have not finished resting. Please come back a little later.
- **9041**: One moment please while entries are confirmed with CRA headquarters.
- **9056**: Enter #$470607P. Q. R. S. T. U. V. W. X. Cancel. Confirm.
- **9494**: Use the device? [Yes./No.]
- **9495**: You may teleport once to any entrance lobby in the three nations or Jeuno.
- **9496**: Teleport to which lobby? [Stay put./San d'Oria./Bastok./Windurst./Jeuno.]

## Events

### Event 65535

#### Metadata

| Field        | Value   |
|--------------|---------|
| Entrypoint   | 0x0000  |
| Data Size    | 1 bytes |
| Instructions | 1       |

```
      00 01 02 03 04 05 06 07  08 09 0A 0B 0C 0D 0E 0F
      -- -- -- -- -- -- -- --  -- -- -- -- -- -- -- --
0000: 00                                                .               
```

#### Opcodes

```
  0: 0x0000 [0x00] END_REQSTACK()
```

### Event 65534

#### Metadata

| Field        | Value   |
|--------------|---------|
| Entrypoint   | 0x0001  |
| Data Size    | 1 bytes |
| Instructions | 1       |

```
      00 01 02 03 04 05 06 07  08 09 0A 0B 0C 0D 0E 0F
      -- -- -- -- -- -- -- --  -- -- -- -- -- -- -- --
0000:    00                                              .              
```

#### Opcodes

```
  0: 0x0001 [0x00] END_REQSTACK()
```

### Event 65535.1

#### Metadata

| Field        | Value    |
|--------------|----------|
| Entrypoint   | 0x0002   |
| Data Size    | 14 bytes |
| Instructions | 4        |

```
      00 01 02 03 04 05 06 07  08 09 0A 0B 0C 0D 0E 0F
      -- -- -- -- -- -- -- --  -- -- -- -- -- -- -- --
0000:       32 00 80 1F 00 01  80 02 80 03 80 1F 01 00    2.............
```

#### Opcodes

```
  0: 0x0002 [0x32] ExtData[1]->MainSpeed = 80* * 0.1
  1: 0x0005 [0x1F] MOVE_ENTITY: EventEntity moves to X=-73.005*, Z=-74.716*, Y=0.000*
  2: 0x000D [0x1F] MOVE_ENTITY: Update entity position (mode=1)
  3: 0x000F [0x00] END_REQSTACK()
```

### Event 355

#### Metadata

| Field        | Value    |
|--------------|----------|
| Entrypoint   | 0x0010   |
| Data Size    | 54 bytes |
| Instructions | 9        |

```
      00 01 02 03 04 05 06 07  08 09 0A 0B 0C 0D 0E 0F
      -- -- -- -- -- -- -- --  -- -- -- -- -- -- -- --
0010: 42 B4 10 03 80 03 80 B4  12 03 80 03 80 45 04 80  B............E..
0020: F0 FF FF 7F F0 FF FF 7F  63 30 30 69 03 80 46 00  ........c00i..F.
0030: 1C 05 80 45 04 80 F8 FF  FF 7F F8 FF FF 7F 66 64  ...E..........fd
0040: 69 30 03 80 21 00                                 i0..!.          
```

#### Opcodes

```
  0: 0x0010 [0x42] SET_CLI_EVENT_CANCEL_DATA()
  1: 0x0011 [0xB4] UI_WINDOW_STRING_HANDLER(case=0x10 - Close chocobo racing window, work_offset1=0*, work_offset2=0*)
  2: 0x0017 [0xB4] UI_WINDOW_STRING_HANDLER(case=0x12 - Close chocobo racing card window, work_offset1=0*, work_offset2=0*)
  3: 0x001D [0x45] LOAD_SCHEDULED_TASK: Load scheduler "c00i" with entities [LocalPlayer, LocalPlayer], work=[200*, 0*]
  4: 0x002E [0x46] CAMERA_CONTROL: Restore default settings
  5: 0x0030 [0x1C] WAIT(60* ticks)
  6: 0x0033 [0x45] LOAD_SCHEDULED_TASK: Load scheduler "fdi0" with entities [EventEntity, EventEntity], work=[200*, 0*]
  7: 0x0044 [0x21] END_EVENT
  8: 0x0045 [0x00] END_REQSTACK()
```

### Event 65535.2

#### Metadata

| Field        | Value    |
|--------------|----------|
| Entrypoint   | 0x0046   |
| Data Size    | 51 bytes |
| Instructions | 11       |

```
      00 01 02 03 04 05 06 07  08 09 0A 0B 0C 0D 0E 0F
      -- -- -- -- -- -- -- --  -- -- -- -- -- -- -- --
0040:                   4B F0  FF FF 7F 06 80 1C 07 80        K.........
0050: 6E F0 FF FF 7F 08 80 99  F0 FF FF 7F 1C 09 80 4B  n..............K
0060: F0 FF FF 7F 0A 80 1C 07  80 6E F0 FF FF 7F 08 80  .........n......
0070: 99 F0 FF FF 7F 1C 09 80  00                       .........       
```

#### Opcodes

```
  0: 0x0046 [0x4B] UPDATE_ENTITY_YAW(entity=LocalPlayer, yaw=4.5째*)
  1: 0x004D [0x1C] WAIT(30* ticks)
  2: 0x0050 [0x6E] LocalPlayer uses emote 8*
  3: 0x0057 [0x99] Wait for LocalPlayer animation to complete
  4: 0x005C [0x1C] WAIT(180* ticks)
  5: 0x005F [0x4B] UPDATE_ENTITY_YAW(entity=LocalPlayer, yaw=5.7째*)
  6: 0x0066 [0x1C] WAIT(30* ticks)
  7: 0x0069 [0x6E] LocalPlayer uses emote 8*
  8: 0x0070 [0x99] Wait for LocalPlayer animation to complete
  9: 0x0075 [0x1C] WAIT(180* ticks)
 10: 0x0078 [0x00] END_REQSTACK()
```

### Event 65535.3

#### Metadata

| Field        | Value    |
|--------------|----------|
| Entrypoint   | 0x0079   |
| Data Size    | 14 bytes |
| Instructions | 4        |

```
      00 01 02 03 04 05 06 07  08 09 0A 0B 0C 0D 0E 0F
      -- -- -- -- -- -- -- --  -- -- -- -- -- -- -- --
0070:                             32 0B 80 1F 00 0C 80           2......
0080: 0D 80 03 80 1F 01 00                              .......         
```

#### Opcodes

```
  0: 0x0079 [0x32] ExtData[1]->MainSpeed = 13* * 0.1
  1: 0x007C [0x1F] MOVE_ENTITY: EventEntity moves to X=-57.269*, Z=-79.803*, Y=0.000*
  2: 0x0084 [0x1F] MOVE_ENTITY: Update entity position (mode=1)
  3: 0x0086 [0x00] END_REQSTACK()
```

### Event 65535.4

#### Metadata

| Field        | Value    |
|--------------|----------|
| Entrypoint   | 0x0087   |
| Data Size    | 15 bytes |
| Instructions | 5        |

```
      00 01 02 03 04 05 06 07  08 09 0A 0B 0C 0D 0E 0F
      -- -- -- -- -- -- -- --  -- -- -- -- -- -- -- --
0080:                      32  0B 80 1F 00 0E 80 0F 80         2........
0090: 10 80 1F 01 6F 00                                 ....o.          
```

#### Opcodes

```
  0: 0x0087 [0x32] ExtData[1]->MainSpeed = 13* * 0.1
  1: 0x008A [0x1F] MOVE_ENTITY: EventEntity moves to X=469.582*, Z=416.726*, Y=24.274*
  2: 0x0092 [0x1F] MOVE_ENTITY: Update entity position (mode=1)
  3: 0x0094 [0x6F] WAIT_FRAME_DELAY: Yield until WaitTime reaches zero
  4: 0x0095 [0x00] END_REQSTACK()
```

### Event 65535.5

#### Metadata

| Field        | Value    |
|--------------|----------|
| Entrypoint   | 0x0096   |
| Data Size    | 24 bytes |
| Instructions | 4        |

```
      00 01 02 03 04 05 06 07  08 09 0A 0B 0C 0D 0E 0F
      -- -- -- -- -- -- -- --  -- -- -- -- -- -- -- --
0090:                   03 00  00 07 7F 1A D3 00 66 01        ........f.
00A0: 00 F8 FF FF 7F F8 FF FF  7F 73 68 61 30 00        .........sha0.  
```

#### Opcodes

```
  0: 0x0096 [0x03] ExtData[1]->WorkLocal[0] = Entity->Race
  1: 0x009B [0x1A] CALL_SUBROUTINE(address=0x00D3)
  2: 0x009E [0x66] LOAD_EXT_SCHEDULER_MAIN: Load scheduler "sha0" with entities [EventEntity, EventEntity], work=ExtData[1]->WorkLocal[1]
  3: 0x00AD [0x00] END_REQSTACK()
```

### Event 65535.6

#### Metadata

| Field        | Value     |
|--------------|-----------|
| Entrypoint   | 0x00AE    |
| Data Size    | 185 bytes |
| Instructions | 13        |

```
      00 01 02 03 04 05 06 07  08 09 0A 0B 0C 0D 0E 0F
      -- -- -- -- -- -- -- --  -- -- -- -- -- -- -- --
00A0:                                            03 00                ..
00B0: 00 07 7F 1A D3 00 66 01  00 F8 FF FF 7F F8 FF FF  ......f.........
00C0: 7F 73 68 61 31 53 F8 FF  FF 7F F8 FF FF 7F 73 68  .sha1S........sh
00D0: 61 31 00 03 01 00 00 00  02 01 00 11 80 05 E8 00  a1..............
00E0: 08 01 00 12 80 01 ED 00  08 01 00 13 80 14 01 00  ................
00F0: 14 80 07 01 00 15 80 1B  03 01 00 00 00 02 01 00  ................
0100: 11 80 05 0D 01 08 01 00  12 80 01 12 01 08 01 00  ................
0110: 13 80 14 01 00 14 80 07  01 00 16 80 1B 03 01 00  ................
0120: 00 00 02 01 00 11 80 05  32 01 08 01 00 12 80 01  ........2.......
0130: 37 01 08 01 00 13 80 14  01 00 14 80 07 01 00 17  7...............
0140: 80 1B 03 01 00 00 00 02  01 00 11 80 05 57 01 08  .............W..
0150: 01 00 12 80 01 5C 01 08  01 00 13 80 14 01 00 14  .....\..........
0160: 80 07 01 00 18 80 1B                              .......         
```

#### Opcodes

```
  0: 0x00AE [0x03] ExtData[1]->WorkLocal[0] = Entity->Race
  1: 0x00B3 [0x1A] CALL_SUBROUTINE(address=0x00D3)
  2: 0x00B6 [0x66] LOAD_EXT_SCHEDULER_MAIN: Load scheduler "sha1" with entities [EventEntity, EventEntity], work=ExtData[1]->WorkLocal[1]
  3: 0x00C5 [0x53] WAIT_SCHEDULER_TASK: Wait for scheduler "sha1" with entities [EventEntity, EventEntity]
  4: 0x00D2 [0x00] END_REQSTACK()

SUBROUTINE_00D3:
  5: 0x00D3 [0x03] ExtData[1]->WorkLocal[1] = ExtData[1]->WorkLocal[0]
  6: 0x00D8 [0x02] IF !(ExtData[1]->WorkLocal[1] > 5*) GOTO 0x00E8
  7: 0x00E0 [0x08] ExtData[1]->WorkLocal[1] -= 1*
  8: 0x00E5 [0x01] GOTO 0x00ED
  9: 0x00E8 [0x08] ExtData[1]->WorkLocal[1] -= 2*

SUBROUTINE_00ED:
 10: 0x00ED [0x14] ExtData[1]->WorkLocal[1] *= 10*
 11: 0x00F2 [0x07] ExtData[1]->WorkLocal[1] += 9*
 12: 0x00F7 [0x1B] RETURN
```

#### Data or dead code:

```
# Dead code (unreachable instructions):
     0x00F8 [0x03] ExtData[1]->WorkLocal[1] = ExtData[1]->WorkLocal[0]
     0x00FD [0x02] IF !(ExtData[1]->WorkLocal[1] > 5*) GOTO 0x010D
     0x0105 [0x08] ExtData[1]->WorkLocal[1] -= 1*
     0x010A [0x01] GOTO 0x0112
     0x010D [0x08] ExtData[1]->WorkLocal[1] -= 2*
     0x0112 [0x14] ExtData[1]->WorkLocal[1] *= 10*
     0x0117 [0x07] ExtData[1]->WorkLocal[1] += 70*
     0x011C [0x1B] RETURN
     0x011D [0x03] ExtData[1]->WorkLocal[1] = ExtData[1]->WorkLocal[0]
     0x0122 [0x02] IF !(ExtData[1]->WorkLocal[1] > 5*) GOTO 0x0132
     0x012A [0x08] ExtData[1]->WorkLocal[1] -= 1*
     0x012F [0x01] GOTO 0x0137
     0x0132 [0x08] ExtData[1]->WorkLocal[1] -= 2*
     0x0137 [0x14] ExtData[1]->WorkLocal[1] *= 10*
     0x013C [0x07] ExtData[1]->WorkLocal[1] += 140*
     0x0141 [0x1B] RETURN
     0x0142 [0x03] ExtData[1]->WorkLocal[1] = ExtData[1]->WorkLocal[0]
     0x0147 [0x02] IF !(ExtData[1]->WorkLocal[1] > 5*) GOTO 0x0157
     0x014F [0x08] ExtData[1]->WorkLocal[1] -= 1*
     0x0154 [0x01] GOTO 0x015C
     0x0157 [0x08] ExtData[1]->WorkLocal[1] -= 2*
     0x015C [0x14] ExtData[1]->WorkLocal[1] *= 10*
     0x0161 [0x07] ExtData[1]->WorkLocal[1] += 210*
     0x0166 [0x1B] RETURN
```

### Event 65535.7

#### Metadata

| Field        | Value    |
|--------------|----------|
| Entrypoint   | 0x0167   |
| Data Size    | 51 bytes |
| Instructions | 11       |

```
      00 01 02 03 04 05 06 07  08 09 0A 0B 0C 0D 0E 0F
      -- -- -- -- -- -- -- --  -- -- -- -- -- -- -- --
0160:                      4B  F0 FF FF 7F 19 80 1C 07         K........
0170: 80 6E F0 FF FF 7F 08 80  99 F0 FF FF 7F 1C 09 80  .n..............
0180: 4B F0 FF FF 7F 1A 80 1C  07 80 6E F0 FF FF 7F 08  K.........n.....
0190: 80 99 F0 FF FF 7F 1C 09  80 00                    ..........      
```

#### Opcodes

```
  0: 0x0167 [0x4B] UPDATE_ENTITY_YAW(entity=LocalPlayer, yaw=15.2째*)
  1: 0x016E [0x1C] WAIT(30* ticks)
  2: 0x0171 [0x6E] LocalPlayer uses emote 8*
  3: 0x0178 [0x99] Wait for LocalPlayer animation to complete
  4: 0x017D [0x1C] WAIT(180* ticks)
  5: 0x0180 [0x4B] UPDATE_ENTITY_YAW(entity=LocalPlayer, yaw=10.9째*)
  6: 0x0187 [0x1C] WAIT(30* ticks)
  7: 0x018A [0x6E] LocalPlayer uses emote 8*
  8: 0x0191 [0x99] Wait for LocalPlayer animation to complete
  9: 0x0196 [0x1C] WAIT(180* ticks)
 10: 0x0199 [0x00] END_REQSTACK()
```

### Event 65535.8

#### Metadata

| Field        | Value    |
|--------------|----------|
| Entrypoint   | 0x019A   |
| Data Size    | 16 bytes |
| Instructions | 4        |

```
      00 01 02 03 04 05 06 07  08 09 0A 0B 0C 0D 0E 0F
      -- -- -- -- -- -- -- --  -- -- -- -- -- -- -- --
0190:                                1C 05 80 6E F0 FF            ...n..
01A0: FF 7F 1B 80 99 F0 FF FF  7F 00                    ..........      
```

#### Opcodes

```
  0: 0x019A [0x1C] WAIT(60* ticks)
  1: 0x019D [0x6E] LocalPlayer uses emote 38*
  2: 0x01A4 [0x99] Wait for LocalPlayer animation to complete
  3: 0x01A9 [0x00] END_REQSTACK()
```

### Event 65535.9

#### Metadata

| Field        | Value     |
|--------------|-----------|
| Entrypoint   | 0x01AA    |
| Data Size    | 349 bytes |
| Instructions | 3         |

```
      00 01 02 03 04 05 06 07  08 09 0A 0B 0C 0D 0E 0F
      -- -- -- -- -- -- -- --  -- -- -- -- -- -- -- --
01A0:                                BF 60 03 80 03 80            .`....
01B0: 0F 00 06 10 00 02 10 00  08 80 03 EB 01 03 13 00  ................
01C0: 10 00 14 13 00 1C 80 03  14 00 13 00 07 14 00 1D  ................
01D0: 80 41 13 00 14 00 0F 00  0D 00 02 0D 00 03 80 00  .A..............
01E0: E5 01 01 EB 01 0B 10 00  01 B5 01 9D 00 8A 07 11  ................
01F0: 00 10 00 9D 00 9A 07 12  00 10 00 03 02 00 2C 10  ..............,.
0200: 03 09 00 2C 10 03 0A 00  2D 10 03 0B 00 29 10 02  ...,....-....)..
0210: 0B 00 1E 80 05 37 02 41  13 00 14 00 26 10 0E 00  .....7.A....&...
0220: 03 0D 00 08 80 08 0D 00  0E 00 07 09 00 0D 00 03  ................
0230: 0E 00 0D 00 01 3A 02 06  0E 00 02 0B 00 1E 80 03  .....:..........
0240: 62 02 41 13 00 14 00 27  10 0F 00 03 0D 00 08 80  b.A....'........
0250: 08 0D 00 0F 00 07 0A 00  0D 00 03 0F 00 0D 00 01  ................
0260: 65 02 06 0F 00 03 03 00  09 00 14 03 00 1C 80 9D  e...............
0270: 03 11 00 04 00 03 00 0B  03 00 9D 03 11 00 05 00  ................
0280: 03 00 0B 03 00 9D 03 11  00 06 00 03 00 0B 03 00  ................
0290: 9D 03 11 00 07 00 03 00  02 0B 00 03 80 00 A3 02  ................
02A0: 01 AA 02 36 04 00 06 00  05 00 08 0F 00 0E 00 9D  ...6............
02B0: 03 03 80 0E 00 0B 00 07  0F 00 0E 00 9D 03 03 80  ................
02C0: 0D 00 0B 00 14 0F 00 1F  80 15 0F 00 0D 00 03 0D  ................
02D0: 00 0F 00 03 0E 00 0B 00  14 0E 00 08 80 07 0E 00  ................
02E0: 12 00 9D 03 12 80 0E 00  0E 00 14 0D 00 0E 00 15  ................
02F0: 0D 00 1F 80 03 08 00 00  80 14 08 00 0D 00 15 08  ................
0300: 00 1F 80 32 08 00 00                              ...2...         
```

#### Opcodes

```
  0: 0x01AA [0xBF] CHOCOBO_RACING_PARAMETER_GETTER(param_type=0x60)
  1: 0x01AC [0x03] 0x0380 = 0x0F80
  2: 0x01B1 [0x00] END_REQSTACK()
```

#### Data or dead code:

```
# Dead code (unreachable instructions):
     0x01B2 [0x06] ExtData[1]->WorkLocal[16] = 0
     0x01B5 [0x02] IF !(ExtData[1]->WorkLocal[16] >= 8*) GOTO 0x01EB
     0x01BD [0x03] ExtData[1]->WorkLocal[19] = ExtData[1]->WorkLocal[16]
     0x01C2 [0x14] ExtData[1]->WorkLocal[19] *= 4*
     0x01C7 [0x03] ExtData[1]->WorkLocal[20] = ExtData[1]->WorkLocal[19]
     0x01CC [0x07] ExtData[1]->WorkLocal[20] += 3*
     0x01D1 [0x41] ExtData[1]->WorkLocal[13] = ExtData[1]->WorkLocal[15] (bits ExtData[1]->WorkLocal[19]-ExtData[1]->WorkLocal[20])
     0x01DA [0x02] IF !(ExtData[1]->WorkLocal[13] == 0*) GOTO 0x01E5
     0x01E2 [0x01] GOTO 0x01EB
     0x01E5 [0x0B] ExtData[1]->WorkLocal[16]++
     0x01E8 [0x01] GOTO 0x01B5
     0x01EB [0x9D] ExtData[1]->WorkLocal[17] = 0x078A[ExtData[1]->WorkLocal[16]] // Read WORD
     0x01F3 [0x9D] ExtData[1]->WorkLocal[18] = 0x079A[ExtData[1]->WorkLocal[16]] // Read WORD
     0x01FB [0x03] ExtData[1]->WorkLocal[2] = Work_Zone[44]
     0x0200 [0x03] ExtData[1]->WorkLocal[9] = Work_Zone[44]
     0x0205 [0x03] ExtData[1]->WorkLocal[10] = Work_Zone[45]
     0x020A [0x03] ExtData[1]->WorkLocal[11] = Work_Zone[41]
     0x020F [0x02] IF !(ExtData[1]->WorkLocal[11] > 32*) GOTO 0x0237
     0x0217 [0x41] ExtData[1]->WorkLocal[14] = Work_Zone[38] (bits ExtData[1]->WorkLocal[19]-ExtData[1]->WorkLocal[20])
     0x0220 [0x03] ExtData[1]->WorkLocal[13] = 8*
     0x0225 [0x08] ExtData[1]->WorkLocal[13] -= ExtData[1]->WorkLocal[14]
     0x022A [0x07] ExtData[1]->WorkLocal[9] += ExtData[1]->WorkLocal[13]
     0x022F [0x03] ExtData[1]->WorkLocal[14] = ExtData[1]->WorkLocal[13]
     0x0234 [0x01] GOTO 0x023A
     0x0237 [0x06] ExtData[1]->WorkLocal[14] = 0
     0x023A [0x02] IF !(ExtData[1]->WorkLocal[11] >= 32*) GOTO 0x0262
     0x0242 [0x41] ExtData[1]->WorkLocal[15] = Work_Zone[39] (bits ExtData[1]->WorkLocal[19]-ExtData[1]->WorkLocal[20])
     0x024B [0x03] ExtData[1]->WorkLocal[13] = 8*
     0x0250 [0x08] ExtData[1]->WorkLocal[13] -= ExtData[1]->WorkLocal[15]
     0x0255 [0x07] ExtData[1]->WorkLocal[10] += ExtData[1]->WorkLocal[13]
     0x025A [0x03] ExtData[1]->WorkLocal[15] = ExtData[1]->WorkLocal[13]
     0x025F [0x01] GOTO 0x0265
     0x0262 [0x06] ExtData[1]->WorkLocal[15] = 0
     0x0265 [0x03] ExtData[1]->WorkLocal[3] = ExtData[1]->WorkLocal[9]
     0x026A [0x14] ExtData[1]->WorkLocal[3] *= 4*
     0x026F [0x9D] ExtData[1]->WorkLocal[3] = Work_Zone[ExtData[1]->WorkLocal[17]][ExtData[1]->WorkLocal[4]] // Via remapped space
     0x0277 [0x0B] ExtData[1]->WorkLocal[3]++
     0x027A [0x9D] ExtData[1]->WorkLocal[3] = Work_Zone[ExtData[1]->WorkLocal[17]][ExtData[1]->WorkLocal[5]] // Via remapped space
     0x0282 [0x0B] ExtData[1]->WorkLocal[3]++
     0x0285 [0x9D] ExtData[1]->WorkLocal[3] = Work_Zone[ExtData[1]->WorkLocal[17]][ExtData[1]->WorkLocal[6]] // Via remapped space
     0x028D [0x0B] ExtData[1]->WorkLocal[3]++
     0x0290 [0x9D] ExtData[1]->WorkLocal[3] = Work_Zone[ExtData[1]->WorkLocal[17]][ExtData[1]->WorkLocal[7]] // Via remapped space
     0x0298 [0x02] IF !(ExtData[1]->WorkLocal[11] == 0*) GOTO 0x02A3
     0x02A0 [0x01] GOTO 0x02AA
     0x02A3 [0x36] SET_ENTITY_EVENT_POSITION(pos_x=ExtData[1]->WorkLocal[4], pos_z=ExtData[1]->WorkLocal[6], pos_y=ExtData[1]->WorkLocal[5])
     0x02AA [0x08] ExtData[1]->WorkLocal[15] -= ExtData[1]->WorkLocal[14]
     0x02AF [0x9D] ExtData[1]->WorkLocal[11] = Work_Zone[0*][ExtData[1]->WorkLocal[14]] // Via remapped space
     0x02B7 [0x07] ExtData[1]->WorkLocal[15] += ExtData[1]->WorkLocal[14]
     0x02BC [0x9D] ExtData[1]->WorkLocal[11] = Work_Zone[0*][ExtData[1]->WorkLocal[13]] // Via remapped space
     0x02C4 [0x14] ExtData[1]->WorkLocal[15] *= 1000*
     0x02C9 [0x15] ExtData[1]->WorkLocal[15] /= ExtData[1]->WorkLocal[13]
     0x02CE [0x03] ExtData[1]->WorkLocal[13] = ExtData[1]->WorkLocal[15]
     0x02D3 [0x03] ExtData[1]->WorkLocal[14] = ExtData[1]->WorkLocal[11]
     0x02D8 [0x14] ExtData[1]->WorkLocal[14] *= 8*
     0x02DD [0x07] ExtData[1]->WorkLocal[14] += ExtData[1]->WorkLocal[18]
     0x02E2 [0x9D] ExtData[1]->WorkLocal[14] = Work_Zone[1*][ExtData[1]->WorkLocal[14]] // Via remapped space
     0x02EA [0x14] ExtData[1]->WorkLocal[13] *= ExtData[1]->WorkLocal[14]
     0x02EF [0x15] ExtData[1]->WorkLocal[13] /= 1000*
     0x02F4 [0x03] ExtData[1]->WorkLocal[8] = 80*
     0x02F9 [0x14] ExtData[1]->WorkLocal[8] *= ExtData[1]->WorkLocal[13]
     0x02FE [0x15] ExtData[1]->WorkLocal[8] /= 1000*
     0x0303 [0x32] ExtData[1]->MainSpeed = ExtData[1]->WorkLocal[8] * 0.1
     0x0306 [0x00] END_REQSTACK()
```

### Event 65535.10

#### Metadata

| Field        | Value     |
|--------------|-----------|
| Entrypoint   | 0x0307    |
| Data Size    | 413 bytes |
| Instructions | 67        |

```
      00 01 02 03 04 05 06 07  08 09 0A 0B 0C 0D 0E 0F
      -- -- -- -- -- -- -- --  -- -- -- -- -- -- -- --
0300:                      03  02 00 09 00 02 02 00 33         ........3
0310: 10 05 C4 03 02 02 00 0A  00 05 8E 03 03 0D 00 31  ...............1
0320: 10 08 0D 00 20 80 02 0D  00 02 00 05 35 03 3C 30  .... .......5.<0
0330: 10 21 80 12 80 02 02 00  33 10 02 40 03 01 C4 03  .!......3..@....
0340: 03 03 00 02 00 14 03 00  1C 80 9D 03 11 00 04 00  ................
0350: 03 00 0B 03 00 9D 03 11  00 05 00 03 00 0B 03 00  ................
0360: 9D 03 11 00 06 00 03 00  0B 03 00 9D 03 11 00 07  ................
0370: 00 03 00 02 0B 00 03 80  00 7E 03 01 88 03 1F 00  .........~......
0380: 04 00 06 00 05 00 1F 01  0B 02 00 01 14 03 07 0B  ................
0390: 00 12 80 03 09 00 0A 00  9D 03 03 80 0C 00 0B 00  ................
03A0: 07 0A 00 0C 00 1A C5 03  03 0D 00 31 10 08 0D 00  ...........1....
03B0: 20 80 02 0D 00 02 00 05  C1 03 3C 30 10 21 80 12   .........<0.!..
03C0: 80 01 0C 03 00 03 17 00  09 00 03 18 00 0A 00 02  ................
03D0: 0B 00 1E 80 03 01 04 BF  40 03 80 0B 00 03 80 15  ........@.......
03E0: 00 41 13 00 14 00 15 00  0E 00 03 0D 00 08 80 08  .A..............
03F0: 0D 00 0E 00 07 09 00 0D  00 03 0E 00 0D 00 01 06  ................
0400: 04 03 0E 00 03 80 02 0B  00 1E 80 03 38 04 BF 40  ............8..@
0410: 03 80 0B 00 12 80 16 00  41 13 00 14 00 16 00 0F  ........A.......
0420: 00 03 0D 00 08 80 08 0D  00 0F 00 07 0A 00 0D 00  ................
0430: 03 0F 00 0D 00 01 3D 04  03 0F 00 03 80 08 0F 00  ......=.........
0440: 0E 00 9D 03 03 80 0E 00  0B 00 07 0F 00 0E 00 9D  ................
0450: 03 03 80 0D 00 0B 00 14  0F 00 1F 80 15 0F 00 0D  ................
0460: 00 03 0D 00 0F 00 03 0E  00 0B 00 14 0E 00 08 80  ................
0470: 07 0E 00 12 00 9D 03 12  80 0E 00 0E 00 14 0D 00  ................
0480: 0E 00 15 0D 00 1F 80 03  08 00 00 80 14 08 00 0D  ................
0490: 00 15 08 00 1F 80 32 08  00 03 09 00 17 00 03 0A  ......2.........
04A0: 00 18 00 1B                                       ....            
```

#### Opcodes

```
  0: 0x0307 [0x03] ExtData[1]->WorkLocal[2] = ExtData[1]->WorkLocal[9]
  1: 0x030C [0x02] IF !(ExtData[1]->WorkLocal[2] > Work_Zone[51]) GOTO 0x03C4
  2: 0x0314 [0x02] IF !(ExtData[1]->WorkLocal[2] > ExtData[1]->WorkLocal[10]) GOTO 0x038E
  3: 0x031C [0x03] ExtData[1]->WorkLocal[13] = Work_Zone[49]
  4: 0x0321 [0x08] ExtData[1]->WorkLocal[13] -= 7*
  5: 0x0326 [0x02] IF !(ExtData[1]->WorkLocal[13] > ExtData[1]->WorkLocal[2]) GOTO 0x0335
  6: 0x032E [0x3C] SET_BIT_FLAG_CONDITIONAL(target_work_offset=Work_Zone[48], bit_index_work_offset=31*, condition_work_offset=1*)
  7: 0x0335 [0x02] IF !(ExtData[1]->WorkLocal[2] <= Work_Zone[51]) GOTO 0x0340
  8: 0x033D [0x01] GOTO 0x03C4
  9: 0x0340 [0x03] ExtData[1]->WorkLocal[3] = ExtData[1]->WorkLocal[2]
 10: 0x0345 [0x14] ExtData[1]->WorkLocal[3] *= 4*
 11: 0x034A [0x9D] ExtData[1]->WorkLocal[3] = Work_Zone[ExtData[1]->WorkLocal[17]][ExtData[1]->WorkLocal[4]] // Via remapped space
 12: 0x0352 [0x0B] ExtData[1]->WorkLocal[3]++
 13: 0x0355 [0x9D] ExtData[1]->WorkLocal[3] = Work_Zone[ExtData[1]->WorkLocal[17]][ExtData[1]->WorkLocal[5]] // Via remapped space
 14: 0x035D [0x0B] ExtData[1]->WorkLocal[3]++
 15: 0x0360 [0x9D] ExtData[1]->WorkLocal[3] = Work_Zone[ExtData[1]->WorkLocal[17]][ExtData[1]->WorkLocal[6]] // Via remapped space
 16: 0x0368 [0x0B] ExtData[1]->WorkLocal[3]++
 17: 0x036B [0x9D] ExtData[1]->WorkLocal[3] = Work_Zone[ExtData[1]->WorkLocal[17]][ExtData[1]->WorkLocal[7]] // Via remapped space
 18: 0x0373 [0x02] IF !(ExtData[1]->WorkLocal[11] == 0*) GOTO 0x037E
 19: 0x037B [0x01] GOTO 0x0388
 20: 0x037E [0x1F] MOVE_ENTITY: EventEntity moves to X=ExtData[1]->WorkLocal[4], Z=ExtData[1]->WorkLocal[6], Y=ExtData[1]->WorkLocal[5]
 21: 0x0386 [0x1F] MOVE_ENTITY: Update entity position (mode=1)

SUBROUTINE_0388:
 22: 0x0388 [0x0B] ExtData[1]->WorkLocal[2]++
 23: 0x038B [0x01] GOTO 0x0314
 24: 0x038E [0x07] ExtData[1]->WorkLocal[11] += 1*
 25: 0x0393 [0x03] ExtData[1]->WorkLocal[9] = ExtData[1]->WorkLocal[10]
 26: 0x0398 [0x9D] ExtData[1]->WorkLocal[11] = Work_Zone[0*][ExtData[1]->WorkLocal[12]] // Via remapped space
 27: 0x03A0 [0x07] ExtData[1]->WorkLocal[10] += ExtData[1]->WorkLocal[12]
 28: 0x03A5 [0x1A] CALL_SUBROUTINE(address=0x03C5)
 29: 0x03A8 [0x03] ExtData[1]->WorkLocal[13] = Work_Zone[49]
 30: 0x03AD [0x08] ExtData[1]->WorkLocal[13] -= 7*
 31: 0x03B2 [0x02] IF !(ExtData[1]->WorkLocal[13] > ExtData[1]->WorkLocal[2]) GOTO 0x03C1
 32: 0x03BA [0x3C] SET_BIT_FLAG_CONDITIONAL(target_work_offset=Work_Zone[48], bit_index_work_offset=31*, condition_work_offset=1*)
 33: 0x03C1 [0x01] GOTO 0x030C

SUBROUTINE_03C4:
 34: 0x03C4 [0x00] END_REQSTACK()

SUBROUTINE_03C5:
 35: 0x03C5 [0x03] ExtData[1]->WorkLocal[23] = ExtData[1]->WorkLocal[9]
 36: 0x03CA [0x03] ExtData[1]->WorkLocal[24] = ExtData[1]->WorkLocal[10]
 37: 0x03CF [0x02] IF !(ExtData[1]->WorkLocal[11] >= 32*) GOTO 0x0401
 38: 0x03D7 [0xBF] CHOCOBO_RACING_PARAMETER_GETTER(param_type=0x40)
 39: 0x03D9 [0x03] 0x0B80 = 0x0300
 40: 0x03DE [0x80] LOAD_WAIT(entity=Unknown NPC (ID: 323026965/0x13410015))
 41: 0x03E3 [0x00] END_REQSTACK()

SUBROUTINE_0406:
 42: 0x0406 [0x02] IF !(ExtData[1]->WorkLocal[11] >= 32*) GOTO 0x0438
 43: 0x040E [0xBF] CHOCOBO_RACING_PARAMETER_GETTER(param_type=0x40)
 44: 0x0410 [0x03] 0x0B80 = 0x1200
 45: 0x0415 [0x80] LOAD_WAIT(entity=Unknown NPC (ID: 323026966/0x13410016))
 46: 0x041A [0x00] END_REQSTACK()

SUBROUTINE_043D:
 47: 0x043D [0x08] ExtData[1]->WorkLocal[15] -= ExtData[1]->WorkLocal[14]
 48: 0x0442 [0x9D] ExtData[1]->WorkLocal[11] = Work_Zone[0*][ExtData[1]->WorkLocal[14]] // Via remapped space
 49: 0x044A [0x07] ExtData[1]->WorkLocal[15] += ExtData[1]->WorkLocal[14]
 50: 0x044F [0x9D] ExtData[1]->WorkLocal[11] = Work_Zone[0*][ExtData[1]->WorkLocal[13]] // Via remapped space
 51: 0x0457 [0x14] ExtData[1]->WorkLocal[15] *= 1000*
 52: 0x045C [0x15] ExtData[1]->WorkLocal[15] /= ExtData[1]->WorkLocal[13]
 53: 0x0461 [0x03] ExtData[1]->WorkLocal[13] = ExtData[1]->WorkLocal[15]
 54: 0x0466 [0x03] ExtData[1]->WorkLocal[14] = ExtData[1]->WorkLocal[11]
 55: 0x046B [0x14] ExtData[1]->WorkLocal[14] *= 8*
 56: 0x0470 [0x07] ExtData[1]->WorkLocal[14] += ExtData[1]->WorkLocal[18]
 57: 0x0475 [0x9D] ExtData[1]->WorkLocal[14] = Work_Zone[1*][ExtData[1]->WorkLocal[14]] // Via remapped space
 58: 0x047D [0x14] ExtData[1]->WorkLocal[13] *= ExtData[1]->WorkLocal[14]
 59: 0x0482 [0x15] ExtData[1]->WorkLocal[13] /= 1000*
 60: 0x0487 [0x03] ExtData[1]->WorkLocal[8] = 80*
 61: 0x048C [0x14] ExtData[1]->WorkLocal[8] *= ExtData[1]->WorkLocal[13]
 62: 0x0491 [0x15] ExtData[1]->WorkLocal[8] /= 1000*
 63: 0x0496 [0x32] ExtData[1]->MainSpeed = ExtData[1]->WorkLocal[8] * 0.1
 64: 0x0499 [0x03] ExtData[1]->WorkLocal[9] = ExtData[1]->WorkLocal[23]
 65: 0x049E [0x03] ExtData[1]->WorkLocal[10] = ExtData[1]->WorkLocal[24]
 66: 0x04A3 [0x1B] RETURN
```

#### Data or dead code:

```
# Dead code (unreachable instructions):
     0x03E4 [0x14] 0x1500 *= 0x0E00
     0x03E9 [0x00] END_REQSTACK()
     0x03EA [0x03] ExtData[1]->WorkLocal[13] = 8*
     0x03EF [0x08] ExtData[1]->WorkLocal[13] -= ExtData[1]->WorkLocal[14]
     0x03F4 [0x07] ExtData[1]->WorkLocal[9] += ExtData[1]->WorkLocal[13]
     0x03F9 [0x03] ExtData[1]->WorkLocal[14] = ExtData[1]->WorkLocal[13]
     0x03FE [0x01] GOTO 0x0406
# Dead code (unreachable instructions):
     0x041B [0x14] 0x1600 *= 0x0F00
     0x0420 [0x00] END_REQSTACK()
     0x0421 [0x03] ExtData[1]->WorkLocal[13] = 8*
     0x0426 [0x08] ExtData[1]->WorkLocal[13] -= ExtData[1]->WorkLocal[15]
     0x042B [0x07] ExtData[1]->WorkLocal[10] += ExtData[1]->WorkLocal[13]
     0x0430 [0x03] ExtData[1]->WorkLocal[15] = ExtData[1]->WorkLocal[13]
     0x0435 [0x01] GOTO 0x043D
```

### Event 65535.11

#### Metadata

| Field        | Value     |
|--------------|-----------|
| Entrypoint   | 0x04A4    |
| Data Size    | 339 bytes |
| Instructions | 3         |

```
      00 01 02 03 04 05 06 07  08 09 0A 0B 0C 0D 0E 0F
      -- -- -- -- -- -- -- --  -- -- -- -- -- -- -- --
04A0:             BF 60 03 80  03 80 0F 00 06 10 00 02      .`..........
04B0: 10 00 08 80 03 E5 04 03  13 00 10 00 14 13 00 1C  ................
04C0: 80 03 14 00 13 00 07 14  00 1D 80 41 13 00 14 00  ...........A....
04D0: 0F 00 0D 00 02 0D 00 03  80 00 DF 04 01 E5 04 0B  ................
04E0: 10 00 01 AF 04 9D 00 8A  07 11 00 10 00 9D 00 9A  ................
04F0: 07 12 00 10 00 03 02 00  2C 10 03 09 00 2C 10 03  ........,....,..
0500: 0A 00 2D 10 03 0B 00 29  10 02 0B 00 1E 80 05 31  ..-....).......1
0510: 05 41 13 00 14 00 26 10  0E 00 03 0D 00 08 80 08  .A....&.........
0520: 0D 00 0E 00 07 09 00 0D  00 03 0E 00 0D 00 01 34  ...............4
0530: 05 06 0E 00 02 0B 00 1E  80 03 5C 05 41 13 00 14  ..........\.A...
0540: 00 27 10 0F 00 03 0D 00  08 80 08 0D 00 0F 00 07  .'..............
0550: 0A 00 0D 00 03 0F 00 0D  00 01 5F 05 06 0F 00 03  .........._.....
0560: 03 00 09 00 14 03 00 1C  80 9D 03 11 00 04 00 03  ................
0570: 00 0B 03 00 9D 03 11 00  05 00 03 00 0B 03 00 9D  ................
0580: 03 11 00 06 00 03 00 0B  03 00 9D 03 11 00 07 00  ................
0590: 03 00 02 0B 00 03 80 00  9D 05 01 A4 05 36 04 00  .............6..
05A0: 06 00 05 00 08 0F 00 0E  00 9D 03 03 80 0E 00 0B  ................
05B0: 00 07 0F 00 0E 00 9D 03  03 80 0D 00 0B 00 14 0F  ................
05C0: 00 1F 80 15 0F 00 0D 00  03 0D 00 0F 00 03 0E 00  ................
05D0: 0B 00 14 0E 00 08 80 07  0E 00 12 00 9D 03 12 80  ................
05E0: 0E 00 0E 00 14 0D 00 0E  00 03 08 00 0D 00 15 08  ................
05F0: 00 1F 80 32 08 00 00                              ...2...         
```

#### Opcodes

```
  0: 0x04A4 [0xBF] CHOCOBO_RACING_PARAMETER_GETTER(param_type=0x60)
  1: 0x04A6 [0x03] 0x0380 = 0x0F80
  2: 0x04AB [0x00] END_REQSTACK()
```

#### Data or dead code:

```
# Dead code (unreachable instructions):
     0x04AC [0x06] ExtData[1]->WorkLocal[16] = 0
     0x04AF [0x02] IF !(ExtData[1]->WorkLocal[16] >= 8*) GOTO 0x04E5
     0x04B7 [0x03] ExtData[1]->WorkLocal[19] = ExtData[1]->WorkLocal[16]
     0x04BC [0x14] ExtData[1]->WorkLocal[19] *= 4*
     0x04C1 [0x03] ExtData[1]->WorkLocal[20] = ExtData[1]->WorkLocal[19]
     0x04C6 [0x07] ExtData[1]->WorkLocal[20] += 3*
     0x04CB [0x41] ExtData[1]->WorkLocal[13] = ExtData[1]->WorkLocal[15] (bits ExtData[1]->WorkLocal[19]-ExtData[1]->WorkLocal[20])
     0x04D4 [0x02] IF !(ExtData[1]->WorkLocal[13] == 0*) GOTO 0x04DF
     0x04DC [0x01] GOTO 0x04E5
     0x04DF [0x0B] ExtData[1]->WorkLocal[16]++
     0x04E2 [0x01] GOTO 0x04AF
     0x04E5 [0x9D] ExtData[1]->WorkLocal[17] = 0x078A[ExtData[1]->WorkLocal[16]] // Read WORD
     0x04ED [0x9D] ExtData[1]->WorkLocal[18] = 0x079A[ExtData[1]->WorkLocal[16]] // Read WORD
     0x04F5 [0x03] ExtData[1]->WorkLocal[2] = Work_Zone[44]
     0x04FA [0x03] ExtData[1]->WorkLocal[9] = Work_Zone[44]
     0x04FF [0x03] ExtData[1]->WorkLocal[10] = Work_Zone[45]
     0x0504 [0x03] ExtData[1]->WorkLocal[11] = Work_Zone[41]
     0x0509 [0x02] IF !(ExtData[1]->WorkLocal[11] > 32*) GOTO 0x0531
     0x0511 [0x41] ExtData[1]->WorkLocal[14] = Work_Zone[38] (bits ExtData[1]->WorkLocal[19]-ExtData[1]->WorkLocal[20])
     0x051A [0x03] ExtData[1]->WorkLocal[13] = 8*
     0x051F [0x08] ExtData[1]->WorkLocal[13] -= ExtData[1]->WorkLocal[14]
     0x0524 [0x07] ExtData[1]->WorkLocal[9] += ExtData[1]->WorkLocal[13]
     0x0529 [0x03] ExtData[1]->WorkLocal[14] = ExtData[1]->WorkLocal[13]
     0x052E [0x01] GOTO 0x0534
     0x0531 [0x06] ExtData[1]->WorkLocal[14] = 0
     0x0534 [0x02] IF !(ExtData[1]->WorkLocal[11] >= 32*) GOTO 0x055C
     0x053C [0x41] ExtData[1]->WorkLocal[15] = Work_Zone[39] (bits ExtData[1]->WorkLocal[19]-ExtData[1]->WorkLocal[20])
     0x0545 [0x03] ExtData[1]->WorkLocal[13] = 8*
     0x054A [0x08] ExtData[1]->WorkLocal[13] -= ExtData[1]->WorkLocal[15]
     0x054F [0x07] ExtData[1]->WorkLocal[10] += ExtData[1]->WorkLocal[13]
     0x0554 [0x03] ExtData[1]->WorkLocal[15] = ExtData[1]->WorkLocal[13]
     0x0559 [0x01] GOTO 0x055F
     0x055C [0x06] ExtData[1]->WorkLocal[15] = 0
     0x055F [0x03] ExtData[1]->WorkLocal[3] = ExtData[1]->WorkLocal[9]
     0x0564 [0x14] ExtData[1]->WorkLocal[3] *= 4*
     0x0569 [0x9D] ExtData[1]->WorkLocal[3] = Work_Zone[ExtData[1]->WorkLocal[17]][ExtData[1]->WorkLocal[4]] // Via remapped space
     0x0571 [0x0B] ExtData[1]->WorkLocal[3]++
     0x0574 [0x9D] ExtData[1]->WorkLocal[3] = Work_Zone[ExtData[1]->WorkLocal[17]][ExtData[1]->WorkLocal[5]] // Via remapped space
     0x057C [0x0B] ExtData[1]->WorkLocal[3]++
     0x057F [0x9D] ExtData[1]->WorkLocal[3] = Work_Zone[ExtData[1]->WorkLocal[17]][ExtData[1]->WorkLocal[6]] // Via remapped space
     0x0587 [0x0B] ExtData[1]->WorkLocal[3]++
     0x058A [0x9D] ExtData[1]->WorkLocal[3] = Work_Zone[ExtData[1]->WorkLocal[17]][ExtData[1]->WorkLocal[7]] // Via remapped space
     0x0592 [0x02] IF !(ExtData[1]->WorkLocal[11] == 0*) GOTO 0x059D
     0x059A [0x01] GOTO 0x05A4
     0x059D [0x36] SET_ENTITY_EVENT_POSITION(pos_x=ExtData[1]->WorkLocal[4], pos_z=ExtData[1]->WorkLocal[6], pos_y=ExtData[1]->WorkLocal[5])
     0x05A4 [0x08] ExtData[1]->WorkLocal[15] -= ExtData[1]->WorkLocal[14]
     0x05A9 [0x9D] ExtData[1]->WorkLocal[11] = Work_Zone[0*][ExtData[1]->WorkLocal[14]] // Via remapped space
     0x05B1 [0x07] ExtData[1]->WorkLocal[15] += ExtData[1]->WorkLocal[14]
     0x05B6 [0x9D] ExtData[1]->WorkLocal[11] = Work_Zone[0*][ExtData[1]->WorkLocal[13]] // Via remapped space
     0x05BE [0x14] ExtData[1]->WorkLocal[15] *= 1000*
     0x05C3 [0x15] ExtData[1]->WorkLocal[15] /= ExtData[1]->WorkLocal[13]
     0x05C8 [0x03] ExtData[1]->WorkLocal[13] = ExtData[1]->WorkLocal[15]
     0x05CD [0x03] ExtData[1]->WorkLocal[14] = ExtData[1]->WorkLocal[11]
     0x05D2 [0x14] ExtData[1]->WorkLocal[14] *= 8*
     0x05D7 [0x07] ExtData[1]->WorkLocal[14] += ExtData[1]->WorkLocal[18]
     0x05DC [0x9D] ExtData[1]->WorkLocal[14] = Work_Zone[1*][ExtData[1]->WorkLocal[14]] // Via remapped space
     0x05E4 [0x14] ExtData[1]->WorkLocal[13] *= ExtData[1]->WorkLocal[14]
     0x05E9 [0x03] ExtData[1]->WorkLocal[8] = ExtData[1]->WorkLocal[13]
     0x05EE [0x15] ExtData[1]->WorkLocal[8] /= 1000*
     0x05F3 [0x32] ExtData[1]->MainSpeed = ExtData[1]->WorkLocal[8] * 0.1
     0x05F6 [0x00] END_REQSTACK()
```

### Event 65535.12

#### Metadata

| Field        | Value     |
|--------------|-----------|
| Entrypoint   | 0x05F7    |
| Data Size    | 451 bytes |
| Instructions | 65        |

```
      00 01 02 03 04 05 06 07  08 09 0A 0B 0C 0D 0E 0F
      -- -- -- -- -- -- -- --  -- -- -- -- -- -- -- --
05F0:                      03  02 00 09 00 02 02 00 33         ........3
0600: 10 05 B4 06 02 02 00 0A  00 05 7E 06 03 0D 00 31  ..........~....1
0610: 10 08 0D 00 20 80 02 0D  00 02 00 05 25 06 3C 30  .... .......%.<0
0620: 10 21 80 12 80 02 02 00  33 10 02 30 06 01 B4 06  .!......3..0....
0630: 03 03 00 02 00 14 03 00  1C 80 9D 03 11 00 04 00  ................
0640: 03 00 0B 03 00 9D 03 11  00 05 00 03 00 0B 03 00  ................
0650: 9D 03 11 00 06 00 03 00  0B 03 00 9D 03 11 00 07  ................
0660: 00 03 00 02 0B 00 03 80  00 6E 06 01 78 06 1F 00  .........n..x...
0670: 04 00 06 00 05 00 1F 01  0B 02 00 01 04 06 07 0B  ................
0680: 00 12 80 03 09 00 0A 00  9D 03 03 80 0C 00 0B 00  ................
0690: 07 0A 00 0C 00 1A B5 06  03 0D 00 31 10 08 0D 00  ...........1....
06A0: 20 80 02 0D 00 02 00 05  B1 06 3C 30 10 21 80 12   .........<0.!..
06B0: 80 01 FC 05 00 03 17 00  09 00 03 18 00 0A 00 02  ................
06C0: 0B 00 1E 80 03 F1 06 BF  40 03 80 0B 00 03 80 15  ........@.......
06D0: 00 41 13 00 14 00 15 00  0E 00 03 0D 00 08 80 08  .A..............
06E0: 0D 00 0E 00 07 09 00 0D  00 03 0E 00 0D 00 01 F6  ................
06F0: 06 03 0E 00 03 80 02 0B  00 1E 80 03 28 07 BF 40  ............(..@
0700: 03 80 0B 00 12 80 16 00  41 13 00 14 00 16 00 0F  ........A.......
0710: 00 03 0D 00 08 80 08 0D  00 0F 00 07 0A 00 0D 00  ................
0720: 03 0F 00 0D 00 01 2D 07  03 0F 00 03 80 08 0F 00  ......-.........
0730: 0E 00 9D 03 03 80 0E 00  0B 00 07 0F 00 0E 00 9D  ................
0740: 03 03 80 0D 00 0B 00 14  0F 00 1F 80 15 0F 00 0D  ................
0750: 00 03 0D 00 0F 00 03 0E  00 0B 00 14 0E 00 08 80  ................
0760: 07 0E 00 12 00 9D 03 12  80 0E 00 0E 00 14 0D 00  ................
0770: 0E 00 03 08 00 0D 00 15  08 00 1F 80 32 08 00 03  ............2...
0780: 09 00 17 00 03 0A 00 18  00 1B 13 80 1D 80 1C 80  ................
0790: 11 80 22 80 20 80 08 80  15 80 03 80 12 80 13 80  ..". ...........
07A0: 1D 80 1C 80 11 80 22 80  20 80 03 80 12 80 13 80  ......". .......
07B0: 1D 80 1C 80 11 80 22 80  20 80                    ......". .      
```

#### Opcodes

```
  0: 0x05F7 [0x03] ExtData[1]->WorkLocal[2] = ExtData[1]->WorkLocal[9]
  1: 0x05FC [0x02] IF !(ExtData[1]->WorkLocal[2] > Work_Zone[51]) GOTO 0x06B4
  2: 0x0604 [0x02] IF !(ExtData[1]->WorkLocal[2] > ExtData[1]->WorkLocal[10]) GOTO 0x067E
  3: 0x060C [0x03] ExtData[1]->WorkLocal[13] = Work_Zone[49]
  4: 0x0611 [0x08] ExtData[1]->WorkLocal[13] -= 7*
  5: 0x0616 [0x02] IF !(ExtData[1]->WorkLocal[13] > ExtData[1]->WorkLocal[2]) GOTO 0x0625
  6: 0x061E [0x3C] SET_BIT_FLAG_CONDITIONAL(target_work_offset=Work_Zone[48], bit_index_work_offset=31*, condition_work_offset=1*)
  7: 0x0625 [0x02] IF !(ExtData[1]->WorkLocal[2] <= Work_Zone[51]) GOTO 0x0630
  8: 0x062D [0x01] GOTO 0x06B4
  9: 0x0630 [0x03] ExtData[1]->WorkLocal[3] = ExtData[1]->WorkLocal[2]
 10: 0x0635 [0x14] ExtData[1]->WorkLocal[3] *= 4*
 11: 0x063A [0x9D] ExtData[1]->WorkLocal[3] = Work_Zone[ExtData[1]->WorkLocal[17]][ExtData[1]->WorkLocal[4]] // Via remapped space
 12: 0x0642 [0x0B] ExtData[1]->WorkLocal[3]++
 13: 0x0645 [0x9D] ExtData[1]->WorkLocal[3] = Work_Zone[ExtData[1]->WorkLocal[17]][ExtData[1]->WorkLocal[5]] // Via remapped space
 14: 0x064D [0x0B] ExtData[1]->WorkLocal[3]++
 15: 0x0650 [0x9D] ExtData[1]->WorkLocal[3] = Work_Zone[ExtData[1]->WorkLocal[17]][ExtData[1]->WorkLocal[6]] // Via remapped space
 16: 0x0658 [0x0B] ExtData[1]->WorkLocal[3]++
 17: 0x065B [0x9D] ExtData[1]->WorkLocal[3] = Work_Zone[ExtData[1]->WorkLocal[17]][ExtData[1]->WorkLocal[7]] // Via remapped space
 18: 0x0663 [0x02] IF !(ExtData[1]->WorkLocal[11] == 0*) GOTO 0x066E
 19: 0x066B [0x01] GOTO 0x0678
 20: 0x066E [0x1F] MOVE_ENTITY: EventEntity moves to X=ExtData[1]->WorkLocal[4], Z=ExtData[1]->WorkLocal[6], Y=ExtData[1]->WorkLocal[5]
 21: 0x0676 [0x1F] MOVE_ENTITY: Update entity position (mode=1)

SUBROUTINE_0678:
 22: 0x0678 [0x0B] ExtData[1]->WorkLocal[2]++
 23: 0x067B [0x01] GOTO 0x0604
 24: 0x067E [0x07] ExtData[1]->WorkLocal[11] += 1*
 25: 0x0683 [0x03] ExtData[1]->WorkLocal[9] = ExtData[1]->WorkLocal[10]
 26: 0x0688 [0x9D] ExtData[1]->WorkLocal[11] = Work_Zone[0*][ExtData[1]->WorkLocal[12]] // Via remapped space
 27: 0x0690 [0x07] ExtData[1]->WorkLocal[10] += ExtData[1]->WorkLocal[12]
 28: 0x0695 [0x1A] CALL_SUBROUTINE(address=0x06B5)
 29: 0x0698 [0x03] ExtData[1]->WorkLocal[13] = Work_Zone[49]
 30: 0x069D [0x08] ExtData[1]->WorkLocal[13] -= 7*
 31: 0x06A2 [0x02] IF !(ExtData[1]->WorkLocal[13] > ExtData[1]->WorkLocal[2]) GOTO 0x06B1
 32: 0x06AA [0x3C] SET_BIT_FLAG_CONDITIONAL(target_work_offset=Work_Zone[48], bit_index_work_offset=31*, condition_work_offset=1*)
 33: 0x06B1 [0x01] GOTO 0x05FC

SUBROUTINE_06B4:
 34: 0x06B4 [0x00] END_REQSTACK()

SUBROUTINE_06B5:
 35: 0x06B5 [0x03] ExtData[1]->WorkLocal[23] = ExtData[1]->WorkLocal[9]
 36: 0x06BA [0x03] ExtData[1]->WorkLocal[24] = ExtData[1]->WorkLocal[10]
 37: 0x06BF [0x02] IF !(ExtData[1]->WorkLocal[11] >= 32*) GOTO 0x06F1
 38: 0x06C7 [0xBF] CHOCOBO_RACING_PARAMETER_GETTER(param_type=0x40)
 39: 0x06C9 [0x03] 0x0B80 = 0x0300
 40: 0x06CE [0x80] LOAD_WAIT(entity=Unknown NPC (ID: 323026965/0x13410015))
 41: 0x06D3 [0x00] END_REQSTACK()

SUBROUTINE_06F6:
 42: 0x06F6 [0x02] IF !(ExtData[1]->WorkLocal[11] >= 32*) GOTO 0x0728
 43: 0x06FE [0xBF] CHOCOBO_RACING_PARAMETER_GETTER(param_type=0x40)
 44: 0x0700 [0x03] 0x0B80 = 0x1200
 45: 0x0705 [0x80] LOAD_WAIT(entity=Unknown NPC (ID: 323026966/0x13410016))
 46: 0x070A [0x00] END_REQSTACK()

SUBROUTINE_072D:
 47: 0x072D [0x08] ExtData[1]->WorkLocal[15] -= ExtData[1]->WorkLocal[14]
 48: 0x0732 [0x9D] ExtData[1]->WorkLocal[11] = Work_Zone[0*][ExtData[1]->WorkLocal[14]] // Via remapped space
 49: 0x073A [0x07] ExtData[1]->WorkLocal[15] += ExtData[1]->WorkLocal[14]
 50: 0x073F [0x9D] ExtData[1]->WorkLocal[11] = Work_Zone[0*][ExtData[1]->WorkLocal[13]] // Via remapped space
 51: 0x0747 [0x14] ExtData[1]->WorkLocal[15] *= 1000*
 52: 0x074C [0x15] ExtData[1]->WorkLocal[15] /= ExtData[1]->WorkLocal[13]
 53: 0x0751 [0x03] ExtData[1]->WorkLocal[13] = ExtData[1]->WorkLocal[15]
 54: 0x0756 [0x03] ExtData[1]->WorkLocal[14] = ExtData[1]->WorkLocal[11]
 55: 0x075B [0x14] ExtData[1]->WorkLocal[14] *= 8*
 56: 0x0760 [0x07] ExtData[1]->WorkLocal[14] += ExtData[1]->WorkLocal[18]
 57: 0x0765 [0x9D] ExtData[1]->WorkLocal[14] = Work_Zone[1*][ExtData[1]->WorkLocal[14]] // Via remapped space
 58: 0x076D [0x14] ExtData[1]->WorkLocal[13] *= ExtData[1]->WorkLocal[14]
 59: 0x0772 [0x03] ExtData[1]->WorkLocal[8] = ExtData[1]->WorkLocal[13]
 60: 0x0777 [0x15] ExtData[1]->WorkLocal[8] /= 1000*
 61: 0x077C [0x32] ExtData[1]->MainSpeed = ExtData[1]->WorkLocal[8] * 0.1
 62: 0x077F [0x03] ExtData[1]->WorkLocal[9] = ExtData[1]->WorkLocal[23]
 63: 0x0784 [0x03] ExtData[1]->WorkLocal[10] = ExtData[1]->WorkLocal[24]
 64: 0x0789 [0x1B] RETURN
```

#### Data or dead code:

```
# Dead code (unreachable instructions):
     0x06D4 [0x14] 0x1500 *= 0x0E00
     0x06D9 [0x00] END_REQSTACK()
     0x06DA [0x03] ExtData[1]->WorkLocal[13] = 8*
     0x06DF [0x08] ExtData[1]->WorkLocal[13] -= ExtData[1]->WorkLocal[14]
     0x06E4 [0x07] ExtData[1]->WorkLocal[9] += ExtData[1]->WorkLocal[13]
     0x06E9 [0x03] ExtData[1]->WorkLocal[14] = ExtData[1]->WorkLocal[13]
     0x06EE [0x01] GOTO 0x06F6
# Dead code (unreachable instructions):
     0x070B [0x14] 0x1600 *= 0x0F00
     0x0710 [0x00] END_REQSTACK()
     0x0711 [0x03] ExtData[1]->WorkLocal[13] = 8*
     0x0716 [0x08] ExtData[1]->WorkLocal[13] -= ExtData[1]->WorkLocal[15]
     0x071B [0x07] ExtData[1]->WorkLocal[10] += ExtData[1]->WorkLocal[13]
     0x0720 [0x03] ExtData[1]->WorkLocal[15] = ExtData[1]->WorkLocal[13]
     0x0725 [0x01] GOTO 0x072D
# Dead code (unreachable instructions):
     0x078A [0x13] 0x1D80 = rand() % 0x1C80
     0x078F [0x80] LOAD_WAIT(entity=Unknown NPC (ID: 2149744657/0x80228011))
     0x0794 [0x20] SET_CLI_EVENT_UC_FLAG: Unknown flag value 0x80
     0x0796 [0x08] 0x1580 -= 0x0380
     0x079B [0x80] LOAD_WAIT(entity=Unknown NPC (ID: 2148761618/0x80138012))
     0x07A0 [0x1D] PRINT_EVENT_MESSAGE(message_id=0x1C80)
     0x07A3 [0x80] LOAD_WAIT(entity=Unknown NPC (ID: 2149744657/0x80228011))
     0x07A8 [0x20] SET_CLI_EVENT_UC_FLAG: Unknown flag value 0x80
     0x07AA [0x03] 0x1280 = 0x1380
     0x07AF [0x80] LOAD_WAIT(entity=Unknown NPC (ID: 2149351453/0x801C801D))
     0x07B4 [0x11] 0x2280 >>= 0x2080
```

### Event 210

#### Metadata

| Field        | Value     |
|--------------|-----------|
| Entrypoint   | 0x07BA    |
| Data Size    | 588 bytes |
| Instructions | 56        |

```
      00 01 02 03 04 05 06 07  08 09 0A 0B 0C 0D 0E 0F
      -- -- -- -- -- -- -- --  -- -- -- -- -- -- -- --
07B0:                                42 B4 10 03 80 03            B.....
07C0: 80 B4 12 03 80 03 80 03  38 00 02 10 03 39 00 03  ........8....9..
07D0: 10 03 37 10 13 80 1A 77  08 02 09 10 23 80 00 01  ..7....w....#...
07E0: 08 03 25 10 06 10 03 24  00 07 10 03 25 00 08 10  ..%....$....%...
07F0: 41 24 80 25 80 39 00 32  00 1A BF 08 21 00 01 2D  A$.%.9.2....!..-
0800: 08 02 09 10 26 80 00 0F  08 48 27 80 01 1A 08 02  ....&....H'.....
0810: 09 10 28 80 00 1A 08 48  27 80 45 04 80 F0 FF FF  ..(....H'.E.....
0820: 7F F0 FF FF 7F 63 30 30  69 03 80 46 00 21 00 02  .....c00i..F.!..
0830: 09 10 29 80 00 40 08 1A  33 09 1D 27 80 1A 34 09  ..)..@..3..'..4.
0840: 02 09 10 2A 80 00 52 08  1A 33 09 1D 2B 80 23 1A  ...*..R..3..+.#.
0850: 34 09 02 09 10 2C 80 00  64 08 1A 33 09 1D 2D 80  4....,..d..3..-.
0860: 23 1A 34 09 02 09 10 2E  80 00 76 08 1A 33 09 1D  #.4.......v..3..
0870: 2F 80 23 1A 34 09 1B 48  30 80 06 30 00 03 09 10  /.#.4..H0..0....
0880: 26 80 02 30 00 07 80 05  BE 08 1C 05 80 03 01 10  &..0............
0890: 11 80 43 00 43 01 02 09  10 26 80 00 A1 08 0B 30  ..C.C....&.....0
08A0: 00 02 09 10 28 80 00 AE  08 03 30 00 21 80 02 09  ....(.....0.!...
08B0: 10 23 80 00 BB 08 03 30  00 21 80 01 82 08 1B 46  .#.....0.!.....F
08C0: 01 2F 00 7A 60 04 01 2F  00 0C 60 04 01 2F 00 0D  ./.z`../..`../..
08D0: 60 04 01 2F 00 0E 60 04  01 2F 00 0F 60 04 01 2F  `../..`../..`../
08E0: 00 24 60 04 01 2F 00 25  60 04 01 4E 00 24 60 04  .$`../.%`..N.$`.
08F0: 01 4E 00 25 60 04 01 29  80 0C 60 04 01 07 29 80  .N.%`..)..`...).
0900: 0D 60 04 01 07 29 80 0E  60 04 01 07 03 20 10 19  .`...)..`.... ..
0910: 00 03 23 10 32 00 03 21  10 1E 00 03 22 10 1F 00  ..#.2..!...."...
0920: 03 24 10 21 00 27 80 7A  60 04 01 02 2A 80 7A 60  .$.!.'.z`...*.z`
0930: 04 01 1B 1B 1B 52 31 80  F0 FF FF 7F F0 FF FF 7F  .....R1.........
0940: 73 31 38 38 52 31 80 F0  FF FF 7F F0 FF FF 7F 73  s188R1.........s
0950: 31 38 39 52 31 80 F0 FF  FF 7F F0 FF FF 7F 73 31  189R1.........s1
0960: 39 30 52 31 80 F0 FF FF  7F F0 FF FF 7F 73 31 39  90R1.........s19
0970: 31 52 31 80 F0 FF FF 7F  F0 FF FF 7F 73 31 39 32  1R1.........s192
0980: 52 31 80 F0 FF FF 7F F0  FF FF 7F 73 31 39 33 52  R1.........s193R
0990: 31 80 F0 FF FF 7F F0 FF  FF 7F 73 31 39 34 52 31  1.........s194R1
09A0: 80 F0 FF FF 7F F0 FF FF  7F 73 31 39 35 52 31 80  .........s195R1.
09B0: F0 FF FF 7F F0 FF FF 7F  73 31 39 36 1B 06 02 10  ........s196....
09C0: 02 12 80 12 80 00 05 0A  24 32 80 03 80 03 80 25  ........$2.....%
09D0: 02 00 10 03 80 00 DB 09  01 DB 09 02 00 10 15 80  ................
09E0: 05 F0 09 14 02 10 14 80  07 02 10 00 10 01 02 0A  ................
09F0: 02 00 10 14 80 00 01 0A  03 02 10 29 80 1B 01 02  ...........)....
0A00: 0A 1B 01 C0 09 1B                                 ......          
```

#### Opcodes

```
  0: 0x07BA [0x42] SET_CLI_EVENT_CANCEL_DATA()
  1: 0x07BB [0xB4] UI_WINDOW_STRING_HANDLER(case=0x10 - Close chocobo racing window, work_offset1=0*, work_offset2=0*)
  2: 0x07C1 [0xB4] UI_WINDOW_STRING_HANDLER(case=0x12 - Close chocobo racing card window, work_offset1=0*, work_offset2=0*)
  3: 0x07C7 [0x03] ExtData[1]->WorkLocal[56] = Work_Zone[2]
  4: 0x07CC [0x03] ExtData[1]->WorkLocal[57] = Work_Zone[3]
  5: 0x07D1 [0x03] Work_Zone[55] = 2*
  6: 0x07D6 [0x1A] CALL_SUBROUTINE(address=0x0877)
  7: 0x07D9 [0x02] IF !(Work_Zone[9] == 4294967291*) GOTO 0x0801
  8: 0x07E1 [0x03] Work_Zone[37] = Work_Zone[6]
  9: 0x07E6 [0x03] ExtData[1]->WorkLocal[36] = Work_Zone[7]
 10: 0x07EB [0x03] ExtData[1]->WorkLocal[37] = Work_Zone[8]
 11: 0x07F0 [0x41] ExtData[1]->WorkLocal[50] = ExtData[1]->WorkLocal[57] (bits 18*-23*)
 12: 0x07F9 [0x1A] CALL_SUBROUTINE(address=0x08BF)
 13: 0x07FC [0x21] END_EVENT
 14: 0x07FD [0x00] END_REQSTACK()

SUBROUTINE_081A:
 15: 0x081A [0x45] LOAD_SCHEDULED_TASK: Load scheduler "c00i" with entities [LocalPlayer, LocalPlayer], work=[200*, 0*]
 16: 0x082B [0x46] CAMERA_CONTROL: Restore default settings

SUBROUTINE_082D:
 17: 0x082D [0x21] END_EVENT
 18: 0x082E [0x00] END_REQSTACK()

SUBROUTINE_0877:
 19: 0x0877 [0x48] [System] [9041*]:
     "One moment please while entries are confirmed with CRA headquarters."
 20: 0x087A [0x06] ExtData[1]->WorkLocal[48] = 0
 21: 0x087D [0x03] Work_Zone[9] = 4294967292*

SUBROUTINE_0882:
 22: 0x0882 [0x02] IF !(ExtData[1]->WorkLocal[48] > 30*) GOTO 0x08BE
 23: 0x088A [0x1C] WAIT(60* ticks)
 24: 0x088D [0x03] Work_Zone[1] = 5*
 25: 0x0892 [0x43] SEND_EVENT_UPDATE: Send pending tag to server (packet 0x005B)
 26: 0x0894 [0x43] SEND_EVENT_UPDATE: Check pending flag (skip if not pending)
 27: 0x0896 [0x02] IF !(Work_Zone[9] == 4294967292*) GOTO 0x08A1
 28: 0x089E [0x0B] ExtData[1]->WorkLocal[48]++
 29: 0x08A1 [0x02] IF !(Work_Zone[9] == 4294967290*) GOTO 0x08AE
 30: 0x08A9 [0x03] ExtData[1]->WorkLocal[48] = 31*
 31: 0x08AE [0x02] IF !(Work_Zone[9] == 4294967291*) GOTO 0x08BB
 32: 0x08B6 [0x03] ExtData[1]->WorkLocal[48] = 31*
 33: 0x08BB [0x01] GOTO 0x0882
 34: 0x08BE [0x1B] RETURN

SUBROUTINE_08BF:
 35: 0x08BF [0x46] CAMERA_CONTROL: Disable user control
 36: 0x08C1 [0x2F] Unnamed NPC (ID: 17064058/0x0104607A)->Render.Flags0 &= ~0x80000 // Bit 19
 37: 0x08C7 [0x2F] Unnamed NPC (ID: 17063948/0x0104600C)->Render.Flags0 &= ~0x80000 // Bit 19
 38: 0x08CD [0x2F] Unnamed NPC (ID: 17063949/0x0104600D)->Render.Flags0 &= ~0x80000 // Bit 19
 39: 0x08D3 [0x2F] Unnamed NPC (ID: 17063950/0x0104600E)->Render.Flags0 &= ~0x80000 // Bit 19
 40: 0x08D9 [0x2F] Unnamed NPC (ID: 17063951/0x0104600F)->Render.Flags0 &= ~0x80000 // Bit 19
 41: 0x08DF [0x2F] cameraA (ID: 17063972/0x01046024)->Render.Flags0 &= ~0x80000 // Bit 19
 42: 0x08E5 [0x2F] cameraB (ID: 17063973/0x01046025)->Render.Flags0 &= ~0x80000 // Bit 19
 43: 0x08EB [0x4E] SET_ENTITY_HIDE_FLAG: Show cameraA (ID: 17063972/0x01046024)
 44: 0x08F1 [0x4E] SET_ENTITY_HIDE_FLAG: Show cameraB (ID: 17063973/0x01046025)
 45: 0x08F7 [0x29] REQ_SET_WAIT(priority=0x80, entity_id=Unnamed NPC (ID: 17063948/0x0104600C), tag_num=0x07)
 46: 0x08FE [0x29] REQ_SET_WAIT(priority=0x80, entity_id=Unnamed NPC (ID: 17063949/0x0104600D), tag_num=0x07)
 47: 0x0905 [0x29] REQ_SET_WAIT(priority=0x80, entity_id=Unnamed NPC (ID: 17063950/0x0104600E), tag_num=0x07)
 48: 0x090C [0x03] Work_Zone[32] = ExtData[1]->WorkLocal[25]
 49: 0x0911 [0x03] Work_Zone[35] = ExtData[1]->WorkLocal[50]
 50: 0x0916 [0x03] Work_Zone[33] = ExtData[1]->WorkLocal[30]
 51: 0x091B [0x03] Work_Zone[34] = ExtData[1]->WorkLocal[31]
 52: 0x0920 [0x03] Work_Zone[36] = ExtData[1]->WorkLocal[33]
 53: 0x0925 [0x27] REQ_SET(priority=0x80, entity_id=Unnamed NPC (ID: 17064058/0x0104607A), tag_num=0x02)
 54: 0x092C [0x2A] GET_REQ_LEVEL(level=128, entity_id=Unnamed NPC (ID: 17064058/0x0104607A))
 55: 0x0932 [0x1B] RETURN
```

#### Data or dead code:

```
# Dead code (unreachable instructions):
     0x07FE [0x01] GOTO 0x082D
# Dead code (unreachable instructions):
     0x082F [0x02] IF !(Work_Zone[9] == 4294967295*) GOTO 0x0840
     0x0837 [0x1A] CALL_SUBROUTINE(address=0x0933)
     0x083A [0x1D] PRINT_EVENT_MESSAGE(message_id=9039*)
     "I'm sorry. Things are a little confusing now with all these entries. Would you mind coming back a little later? Thank you."
     0x083D [0x1A] CALL_SUBROUTINE(address=0x0934)
     0x0840 [0x02] IF !(Work_Zone[9] == 4294967294*) GOTO 0x0852
     0x0848 [0x1A] CALL_SUBROUTINE(address=0x0933)
     0x084B [0x1D] PRINT_EVENT_MESSAGE(message_id=9025*)
     "I am so, so sorry, but it seems that you do not possess enough gil to enter your chocobo in the next race."
     0x084E [0x23] WAIT_FOR_DIALOG_INTERACTION
     0x084F [0x1A] CALL_SUBROUTINE(address=0x0934)
     0x0852 [0x02] IF !(Work_Zone[9] == 4294967289*) GOTO 0x0864
     0x085A [0x1A] CALL_SUBROUTINE(address=0x0933)
     0x085D [0x1D] PRINT_EVENT_MESSAGE(message_id=9024*)
     "I am so sorry, but it seems you do not possess enough chocobucks to participate in the next race."
     0x0860 [0x23] WAIT_FOR_DIALOG_INTERACTION
     0x0861 [0x1A] CALL_SUBROUTINE(address=0x0934)
     0x0864 [0x02] IF !(Work_Zone[9] == 4294967293*) GOTO 0x0876
     0x086C [0x1A] CALL_SUBROUTINE(address=0x0933)
     0x086F [0x1D] PRINT_EVENT_MESSAGE(message_id=9040*)
     "I'm sorry. The other chocobos have not finished resting. Please come back a little later."
     0x0872 [0x23] WAIT_FOR_DIALOG_INTERACTION
     0x0873 [0x1A] CALL_SUBROUTINE(address=0x0934)
     0x0876 [0x1B] RETURN
# Dead code (unreachable instructions):
     0x0933 [0x1B] RETURN
     0x0934 [0x1B] RETURN
     0x0935 [0x52] END_LOAD_SCHEDULER: End scheduler "s188" with entities [LocalPlayer, LocalPlayer], work=191*
     0x0944 [0x52] END_LOAD_SCHEDULER: End scheduler "s189" with entities [LocalPlayer, LocalPlayer], work=191*
     0x0953 [0x52] END_LOAD_SCHEDULER: End scheduler "s190" with entities [LocalPlayer, LocalPlayer], work=191*
     0x0962 [0x52] END_LOAD_SCHEDULER: End scheduler "s191" with entities [LocalPlayer, LocalPlayer], work=191*
     0x0971 [0x52] END_LOAD_SCHEDULER: End scheduler "s192" with entities [LocalPlayer, LocalPlayer], work=191*
     0x0980 [0x52] END_LOAD_SCHEDULER: End scheduler "s193" with entities [LocalPlayer, LocalPlayer], work=191*
     0x098F [0x52] END_LOAD_SCHEDULER: End scheduler "s194" with entities [LocalPlayer, LocalPlayer], work=191*
     0x099E [0x52] END_LOAD_SCHEDULER: End scheduler "s195" with entities [LocalPlayer, LocalPlayer], work=191*
     0x09AD [0x52] END_LOAD_SCHEDULER: End scheduler "s196" with entities [LocalPlayer, LocalPlayer], work=191*
     0x09BC [0x1B] RETURN
     0x09BD [0x06] Work_Zone[2] = 0
     0x09C0 [0x02] IF !(1* == 1*) GOTO 0x0A05
     0x09C8 [0x24] CREATE_DIALOG(message_id=9056*, default_option=0*, option_flags=0*)
     "Enter #$470607P. Q. R. S. T. U. V. W. X. Cancel. Confirm."
     0x09CF [0x25] WAIT_DIALOG_SELECT()
     0x09D0 [0x02] IF !(Work_Zone[0] == 0*) GOTO 0x09DB
     0x09D8 [0x01] GOTO 0x09DB
     0x09DB [0x02] IF !(Work_Zone[0] > 9*) GOTO 0x09F0
     0x09E3 [0x14] Work_Zone[2] *= 10*
     0x09E8 [0x07] Work_Zone[2] += Work_Zone[0]
     0x09ED [0x01] GOTO 0x0A02
     0x09F0 [0x02] IF !(Work_Zone[0] == 10*) GOTO 0x0A01
     0x09F8 [0x03] Work_Zone[2] = 4294967295*
     0x09FD [0x1B] RETURN
     0x09FE [0x01] GOTO 0x0A02
     0x0A01 [0x1B] RETURN
     0x0A02 [0x01] GOTO 0x09C0
     0x0A05 [0x1B] RETURN
```

### Event 65535.13

#### Metadata

| Field        | Value   |
|--------------|---------|
| Entrypoint   | 0x0A06  |
| Data Size    | 5 bytes |
| Instructions | 3       |

```
      00 01 02 03 04 05 06 07  08 09 0A 0B 0C 0D 0E 0F
      -- -- -- -- -- -- -- --  -- -- -- -- -- -- -- --
0A00:                   43 00  43 01 00                       C.C..     
```

#### Opcodes

```
  0: 0x0A06 [0x43] SEND_EVENT_UPDATE: Send pending tag to server (packet 0x005B)
  1: 0x0A08 [0x43] SEND_EVENT_UPDATE: Check pending flag (skip if not pending)
  2: 0x0A0A [0x00] END_REQSTACK()
```

### Event 65535.14

#### Metadata

| Field        | Value   |
|--------------|---------|
| Entrypoint   | 0x0A0B  |
| Data Size    | 5 bytes |
| Instructions | 3       |

```
      00 01 02 03 04 05 06 07  08 09 0A 0B 0C 0D 0E 0F
      -- -- -- -- -- -- -- --  -- -- -- -- -- -- -- --
0A00:                                   43 00 43 01 00             C.C..
```

#### Opcodes

```
  0: 0x0A0B [0x43] SEND_EVENT_UPDATE: Send pending tag to server (packet 0x005B)
  1: 0x0A0D [0x43] SEND_EVENT_UPDATE: Check pending flag (skip if not pending)
  2: 0x0A0F [0x00] END_REQSTACK()
```

### Event 406

#### Metadata

| Field        | Value     |
|--------------|-----------|
| Entrypoint   | 0x0A10    |
| Data Size    | 197 bytes |
| Instructions | 46        |

```
      00 01 02 03 04 05 06 07  08 09 0A 0B 0C 0D 0E 0F
      -- -- -- -- -- -- -- --  -- -- -- -- -- -- -- --
0A10: 20 01 48 33 80 23 24 34  80 03 80 03 80 25 02 00   .H3.#$4.....%..
0A20: 10 03 80 00 29 0A 01 D1  0A 02 00 10 12 80 00 53  ....)..........S
0A30: 0A 42 43 00 43 01 29 01  F0 FF FF 7F 1D 47 00 35  .BC.C.)......G.5
0A40: 80 36 80 03 80 37 80 47  01 29 01 F0 FF FF 7F 1E  .6...7.G.)......
0A50: 01 D1 0A 02 00 10 13 80  00 7D 0A 42 43 00 43 01  .........}.BC.C.
0A60: 29 01 F0 FF FF 7F 1D 47  00 38 80 39 80 03 80 3A  )......G.8.9...:
0A70: 80 47 01 29 01 F0 FF FF  7F 1E 01 D1 0A 02 00 10  .G.)............
0A80: 1D 80 00 A7 0A 42 43 00  43 01 29 01 F0 FF FF 7F  .....BC.C.).....
0A90: 1D 47 00 3B 80 3C 80 03  80 3D 80 47 01 29 01 F0  .G.;.<...=.G.)..
0AA0: FF FF 7F 1E 01 D1 0A 02  00 10 1C 80 00 D1 0A 42  ...............B
0AB0: 43 00 43 01 29 01 F0 FF  FF 7F 1D 47 00 3E 80 3F  C.C.)......G.>.?
0AC0: 80 03 80 40 80 47 01 29  01 F0 FF FF 7F 1E 01 D1  ...@.G.)........
0AD0: 0A 20 00 21 00                                    . .!.           
```

#### Opcodes

```
  0: 0x0A10 [0x20] SET_CLI_EVENT_UC_FLAG: Lock player control
  1: 0x0A12 [0x48] [System] [9495*]:
     "You may teleport once to any entrance lobby in the three nations or Jeuno."
  2: 0x0A15 [0x23] WAIT_FOR_DIALOG_INTERACTION
  3: 0x0A16 [0x24] CREATE_DIALOG(message_id=9496*, default_option=0*, option_flags=0*)
     "Teleport to which lobby? [Stay put./San d'Oria./Bastok./Windurst./Jeuno.]"
  4: 0x0A1D [0x25] WAIT_DIALOG_SELECT()
  5: 0x0A1E [0x02] IF !(Work_Zone[0] == 0*) GOTO 0x0A29
  6: 0x0A26 [0x01] GOTO 0x0AD1
  7: 0x0A29 [0x02] IF !(Work_Zone[0] == 1*) GOTO 0x0A53
  8: 0x0A31 [0x42] SET_CLI_EVENT_CANCEL_DATA()
  9: 0x0A32 [0x43] SEND_EVENT_UPDATE: Send pending tag to server (packet 0x005B)
 10: 0x0A34 [0x43] SEND_EVENT_UPDATE: Check pending flag (skip if not pending)
 11: 0x0A36 [0x29] REQ_SET_WAIT(priority=0x01, entity_id=LocalPlayer, tag_num=0x1D)
 12: 0x0A3D [0x47] UPDATE_PLAYER_POS(-504.000*, -357.000*, 0.000*, yaw=360.0째*)
 13: 0x0A47 [0x47] WAIT_PLAYER_POS_UPDATE
 14: 0x0A49 [0x29] REQ_SET_WAIT(priority=0x01, entity_id=LocalPlayer, tag_num=0x1E)
 15: 0x0A50 [0x01] GOTO 0x0AD1
 16: 0x0A53 [0x02] IF !(Work_Zone[0] == 2*) GOTO 0x0A7D
 17: 0x0A5B [0x42] SET_CLI_EVENT_CANCEL_DATA()
 18: 0x0A5C [0x43] SEND_EVENT_UPDATE: Send pending tag to server (packet 0x005B)
 19: 0x0A5E [0x43] SEND_EVENT_UPDATE: Check pending flag (skip if not pending)
 20: 0x0A60 [0x29] REQ_SET_WAIT(priority=0x01, entity_id=LocalPlayer, tag_num=0x1D)
 21: 0x0A67 [0x47] UPDATE_PLAYER_POS(-489.000*, -529.000*, 0.000*, yaw=222.3째*)
 22: 0x0A71 [0x47] WAIT_PLAYER_POS_UPDATE
 23: 0x0A73 [0x29] REQ_SET_WAIT(priority=0x01, entity_id=LocalPlayer, tag_num=0x1E)
 24: 0x0A7A [0x01] GOTO 0x0AD1
 25: 0x0A7D [0x02] IF !(Work_Zone[0] == 3*) GOTO 0x0AA7
 26: 0x0A85 [0x42] SET_CLI_EVENT_CANCEL_DATA()
 27: 0x0A86 [0x43] SEND_EVENT_UPDATE: Send pending tag to server (packet 0x005B)
 28: 0x0A88 [0x43] SEND_EVENT_UPDATE: Check pending flag (skip if not pending)
 29: 0x0A8A [0x29] REQ_SET_WAIT(priority=0x01, entity_id=LocalPlayer, tag_num=0x1D)
 30: 0x0A91 [0x47] UPDATE_PLAYER_POS(-150.000*, -543.000*, 0.000*, yaw=270.0째*)
 31: 0x0A9B [0x47] WAIT_PLAYER_POS_UPDATE
 32: 0x0A9D [0x29] REQ_SET_WAIT(priority=0x01, entity_id=LocalPlayer, tag_num=0x1E)
 33: 0x0AA4 [0x01] GOTO 0x0AD1
 34: 0x0AA7 [0x02] IF !(Work_Zone[0] == 4*) GOTO 0x0AD1
 35: 0x0AAF [0x42] SET_CLI_EVENT_CANCEL_DATA()
 36: 0x0AB0 [0x43] SEND_EVENT_UPDATE: Send pending tag to server (packet 0x005B)
 37: 0x0AB2 [0x43] SEND_EVENT_UPDATE: Check pending flag (skip if not pending)
 38: 0x0AB4 [0x29] REQ_SET_WAIT(priority=0x01, entity_id=LocalPlayer, tag_num=0x1D)
 39: 0x0ABB [0x47] UPDATE_PLAYER_POS(-326.000*, -293.000*, 0.000*, yaw=90.0째*)
 40: 0x0AC5 [0x47] WAIT_PLAYER_POS_UPDATE
 41: 0x0AC7 [0x29] REQ_SET_WAIT(priority=0x01, entity_id=LocalPlayer, tag_num=0x1E)
 42: 0x0ACE [0x01] GOTO 0x0AD1

SUBROUTINE_0AD1:
 43: 0x0AD1 [0x20] SET_CLI_EVENT_UC_FLAG: Unlock player control
 44: 0x0AD3 [0x21] END_EVENT
 45: 0x0AD4 [0x00] END_REQSTACK()
```

### Event 249

#### Metadata

| Field        | Value    |
|--------------|----------|
| Entrypoint   | 0x0AD5   |
| Data Size    | 67 bytes |
| Instructions | 17       |

```
      00 01 02 03 04 05 06 07  08 09 0A 0B 0C 0D 0E 0F
      -- -- -- -- -- -- -- --  -- -- -- -- -- -- -- --
0AD0:                20 01 24  41 80 12 80 03 80 25 02        .$A.....%.
0AE0: 00 10 03 80 00 09 0B 42  43 00 43 01 29 01 F0 FF  .......BC.C.)...
0AF0: FF 7F 1D 47 00 42 80 43  80 44 80 40 80 47 01 29  ...G.B.C.D.@.G.)
0B00: 01 F0 FF FF 7F 1E 01 14  0B 02 00 10 12 80 00 14  ................
0B10: 0B 01 14 0B 20 00 21 00                           .... .!.        
```

#### Opcodes

```
  0: 0x0AD5 [0x20] SET_CLI_EVENT_UC_FLAG: Lock player control
  1: 0x0AD7 [0x24] CREATE_DIALOG(message_id=9494*, default_option=1*, option_flags=0*)
     "Use the device? [Yes./No.]"
  2: 0x0ADE [0x25] WAIT_DIALOG_SELECT()
  3: 0x0ADF [0x02] IF !(Work_Zone[0] == 0*) GOTO 0x0B09
  4: 0x0AE7 [0x42] SET_CLI_EVENT_CANCEL_DATA()
  5: 0x0AE8 [0x43] SEND_EVENT_UPDATE: Send pending tag to server (packet 0x005B)
  6: 0x0AEA [0x43] SEND_EVENT_UPDATE: Check pending flag (skip if not pending)
  7: 0x0AEC [0x29] REQ_SET_WAIT(priority=0x01, entity_id=LocalPlayer, tag_num=0x1D)
  8: 0x0AF3 [0x47] UPDATE_PLAYER_POS(-360.000*, -463.000*, -4.000*, yaw=90.0째*)
  9: 0x0AFD [0x47] WAIT_PLAYER_POS_UPDATE
 10: 0x0AFF [0x29] REQ_SET_WAIT(priority=0x01, entity_id=LocalPlayer, tag_num=0x1E)
 11: 0x0B06 [0x01] GOTO 0x0B14
 12: 0x0B09 [0x02] IF !(Work_Zone[0] == 1*) GOTO 0x0B14
 13: 0x0B11 [0x01] GOTO 0x0B14

SUBROUTINE_0B14:
 14: 0x0B14 [0x20] SET_CLI_EVENT_UC_FLAG: Unlock player control
 15: 0x0B16 [0x21] END_EVENT
 16: 0x0B17 [0x00] END_REQSTACK()
```

### Event 250

#### Metadata

| Field        | Value    |
|--------------|----------|
| Entrypoint   | 0x0B18   |
| Data Size    | 67 bytes |
| Instructions | 17       |

```
      00 01 02 03 04 05 06 07  08 09 0A 0B 0C 0D 0E 0F
      -- -- -- -- -- -- -- --  -- -- -- -- -- -- -- --
0B10:                          20 01 24 41 80 12 80 03           .$A....
0B20: 80 25 02 00 10 03 80 00  4C 0B 42 43 00 43 01 29  .%......L.BC.C.)
0B30: 01 F0 FF FF 7F 1D 47 00  35 80 36 80 03 80 37 80  ......G.5.6...7.
0B40: 47 01 29 01 F0 FF FF 7F  1E 01 57 0B 02 00 10 12  G.).......W.....
0B50: 80 00 57 0B 01 57 0B 20  00 21 00                 ..W..W. .!.     
```

#### Opcodes

```
  0: 0x0B18 [0x20] SET_CLI_EVENT_UC_FLAG: Lock player control
  1: 0x0B1A [0x24] CREATE_DIALOG(message_id=9494*, default_option=1*, option_flags=0*)
     "Use the device? [Yes./No.]"
  2: 0x0B21 [0x25] WAIT_DIALOG_SELECT()
  3: 0x0B22 [0x02] IF !(Work_Zone[0] == 0*) GOTO 0x0B4C
  4: 0x0B2A [0x42] SET_CLI_EVENT_CANCEL_DATA()
  5: 0x0B2B [0x43] SEND_EVENT_UPDATE: Send pending tag to server (packet 0x005B)
  6: 0x0B2D [0x43] SEND_EVENT_UPDATE: Check pending flag (skip if not pending)
  7: 0x0B2F [0x29] REQ_SET_WAIT(priority=0x01, entity_id=LocalPlayer, tag_num=0x1D)
  8: 0x0B36 [0x47] UPDATE_PLAYER_POS(-504.000*, -357.000*, 0.000*, yaw=360.0째*)
  9: 0x0B40 [0x47] WAIT_PLAYER_POS_UPDATE
 10: 0x0B42 [0x29] REQ_SET_WAIT(priority=0x01, entity_id=LocalPlayer, tag_num=0x1E)
 11: 0x0B49 [0x01] GOTO 0x0B57
 12: 0x0B4C [0x02] IF !(Work_Zone[0] == 1*) GOTO 0x0B57
 13: 0x0B54 [0x01] GOTO 0x0B57

SUBROUTINE_0B57:
 14: 0x0B57 [0x20] SET_CLI_EVENT_UC_FLAG: Unlock player control
 15: 0x0B59 [0x21] END_EVENT
 16: 0x0B5A [0x00] END_REQSTACK()
```

### Event 251

#### Metadata

| Field        | Value    |
|--------------|----------|
| Entrypoint   | 0x0B5B   |
| Data Size    | 67 bytes |
| Instructions | 17       |

```
      00 01 02 03 04 05 06 07  08 09 0A 0B 0C 0D 0E 0F
      -- -- -- -- -- -- -- --  -- -- -- -- -- -- -- --
0B50:                                   20 01 24 41 80              .$A.
0B60: 12 80 03 80 25 02 00 10  03 80 00 8F 0B 42 43 00  ....%........BC.
0B70: 43 01 29 01 F0 FF FF 7F  1D 47 00 42 80 45 80 44  C.)......G.B.E.D
0B80: 80 3D 80 47 01 29 01 F0  FF FF 7F 1E 01 9A 0B 02  .=.G.)..........
0B90: 00 10 12 80 00 9A 0B 01  9A 0B 20 00 21 00        .......... .!.  
```

#### Opcodes

```
  0: 0x0B5B [0x20] SET_CLI_EVENT_UC_FLAG: Lock player control
  1: 0x0B5D [0x24] CREATE_DIALOG(message_id=9494*, default_option=1*, option_flags=0*)
     "Use the device? [Yes./No.]"
  2: 0x0B64 [0x25] WAIT_DIALOG_SELECT()
  3: 0x0B65 [0x02] IF !(Work_Zone[0] == 0*) GOTO 0x0B8F
  4: 0x0B6D [0x42] SET_CLI_EVENT_CANCEL_DATA()
  5: 0x0B6E [0x43] SEND_EVENT_UPDATE: Send pending tag to server (packet 0x005B)
  6: 0x0B70 [0x43] SEND_EVENT_UPDATE: Check pending flag (skip if not pending)
  7: 0x0B72 [0x29] REQ_SET_WAIT(priority=0x01, entity_id=LocalPlayer, tag_num=0x1D)
  8: 0x0B79 [0x47] UPDATE_PLAYER_POS(-360.000*, -497.000*, -4.000*, yaw=270.0째*)
  9: 0x0B83 [0x47] WAIT_PLAYER_POS_UPDATE
 10: 0x0B85 [0x29] REQ_SET_WAIT(priority=0x01, entity_id=LocalPlayer, tag_num=0x1E)
 11: 0x0B8C [0x01] GOTO 0x0B9A
 12: 0x0B8F [0x02] IF !(Work_Zone[0] == 1*) GOTO 0x0B9A
 13: 0x0B97 [0x01] GOTO 0x0B9A

SUBROUTINE_0B9A:
 14: 0x0B9A [0x20] SET_CLI_EVENT_UC_FLAG: Unlock player control
 15: 0x0B9C [0x21] END_EVENT
 16: 0x0B9D [0x00] END_REQSTACK()
```

### Event 252

#### Metadata

| Field        | Value    |
|--------------|----------|
| Entrypoint   | 0x0B9E   |
| Data Size    | 67 bytes |
| Instructions | 17       |

```
      00 01 02 03 04 05 06 07  08 09 0A 0B 0C 0D 0E 0F
      -- -- -- -- -- -- -- --  -- -- -- -- -- -- -- --
0B90:                                            20 01                 .
0BA0: 24 41 80 12 80 03 80 25  02 00 10 03 80 00 D2 0B  $A.....%........
0BB0: 42 43 00 43 01 29 01 F0  FF FF 7F 1D 47 00 38 80  BC.C.)......G.8.
0BC0: 39 80 03 80 3A 80 47 01  29 01 F0 FF FF 7F 1E 01  9...:.G.).......
0BD0: DD 0B 02 00 10 12 80 00  DD 0B 01 DD 0B 20 00 21  ............. .!
0BE0: 00                                                .               
```

#### Opcodes

```
  0: 0x0B9E [0x20] SET_CLI_EVENT_UC_FLAG: Lock player control
  1: 0x0BA0 [0x24] CREATE_DIALOG(message_id=9494*, default_option=1*, option_flags=0*)
     "Use the device? [Yes./No.]"
  2: 0x0BA7 [0x25] WAIT_DIALOG_SELECT()
  3: 0x0BA8 [0x02] IF !(Work_Zone[0] == 0*) GOTO 0x0BD2
  4: 0x0BB0 [0x42] SET_CLI_EVENT_CANCEL_DATA()
  5: 0x0BB1 [0x43] SEND_EVENT_UPDATE: Send pending tag to server (packet 0x005B)
  6: 0x0BB3 [0x43] SEND_EVENT_UPDATE: Check pending flag (skip if not pending)
  7: 0x0BB5 [0x29] REQ_SET_WAIT(priority=0x01, entity_id=LocalPlayer, tag_num=0x1D)
  8: 0x0BBC [0x47] UPDATE_PLAYER_POS(-489.000*, -529.000*, 0.000*, yaw=222.3째*)
  9: 0x0BC6 [0x47] WAIT_PLAYER_POS_UPDATE
 10: 0x0BC8 [0x29] REQ_SET_WAIT(priority=0x01, entity_id=LocalPlayer, tag_num=0x1E)
 11: 0x0BCF [0x01] GOTO 0x0BDD
 12: 0x0BD2 [0x02] IF !(Work_Zone[0] == 1*) GOTO 0x0BDD
 13: 0x0BDA [0x01] GOTO 0x0BDD

SUBROUTINE_0BDD:
 14: 0x0BDD [0x20] SET_CLI_EVENT_UC_FLAG: Unlock player control
 15: 0x0BDF [0x21] END_EVENT
 16: 0x0BE0 [0x00] END_REQSTACK()
```

### Event 253

#### Metadata

| Field        | Value    |
|--------------|----------|
| Entrypoint   | 0x0BE1   |
| Data Size    | 67 bytes |
| Instructions | 17       |

```
      00 01 02 03 04 05 06 07  08 09 0A 0B 0C 0D 0E 0F
      -- -- -- -- -- -- -- --  -- -- -- -- -- -- -- --
0BE0:    20 01 24 41 80 12 80  03 80 25 02 00 10 03 80    .$A.....%.....
0BF0: 00 15 0C 42 43 00 43 01  29 01 F0 FF FF 7F 1D 47  ...BC.C.)......G
0C00: 00 46 80 45 80 44 80 3D  80 47 01 29 01 F0 FF FF  .F.E.D.=.G.)....
0C10: 7F 1E 01 20 0C 02 00 10  12 80 00 20 0C 01 20 0C  ... ....... .. .
0C20: 20 00 21 00                                        .!.            
```

#### Opcodes

```
  0: 0x0BE1 [0x20] SET_CLI_EVENT_UC_FLAG: Lock player control
  1: 0x0BE3 [0x24] CREATE_DIALOG(message_id=9494*, default_option=1*, option_flags=0*)
     "Use the device? [Yes./No.]"
  2: 0x0BEA [0x25] WAIT_DIALOG_SELECT()
  3: 0x0BEB [0x02] IF !(Work_Zone[0] == 0*) GOTO 0x0C15
  4: 0x0BF3 [0x42] SET_CLI_EVENT_CANCEL_DATA()
  5: 0x0BF4 [0x43] SEND_EVENT_UPDATE: Send pending tag to server (packet 0x005B)
  6: 0x0BF6 [0x43] SEND_EVENT_UPDATE: Check pending flag (skip if not pending)
  7: 0x0BF8 [0x29] REQ_SET_WAIT(priority=0x01, entity_id=LocalPlayer, tag_num=0x1D)
  8: 0x0BFF [0x47] UPDATE_PLAYER_POS(-280.000*, -497.000*, -4.000*, yaw=270.0째*)
  9: 0x0C09 [0x47] WAIT_PLAYER_POS_UPDATE
 10: 0x0C0B [0x29] REQ_SET_WAIT(priority=0x01, entity_id=LocalPlayer, tag_num=0x1E)
 11: 0x0C12 [0x01] GOTO 0x0C20
 12: 0x0C15 [0x02] IF !(Work_Zone[0] == 1*) GOTO 0x0C20
 13: 0x0C1D [0x01] GOTO 0x0C20

SUBROUTINE_0C20:
 14: 0x0C20 [0x20] SET_CLI_EVENT_UC_FLAG: Unlock player control
 15: 0x0C22 [0x21] END_EVENT
 16: 0x0C23 [0x00] END_REQSTACK()
```

### Event 254

#### Metadata

| Field        | Value    |
|--------------|----------|
| Entrypoint   | 0x0C24   |
| Data Size    | 67 bytes |
| Instructions | 17       |

```
      00 01 02 03 04 05 06 07  08 09 0A 0B 0C 0D 0E 0F
      -- -- -- -- -- -- -- --  -- -- -- -- -- -- -- --
0C20:             20 01 24 41  80 12 80 03 80 25 02 00       .$A.....%..
0C30: 10 03 80 00 58 0C 42 43  00 43 01 29 01 F0 FF FF  ....X.BC.C.)....
0C40: 7F 1D 47 00 3B 80 3C 80  03 80 3D 80 47 01 29 01  ..G.;.<...=.G.).
0C50: F0 FF FF 7F 1E 01 63 0C  02 00 10 12 80 00 63 0C  ......c.......c.
0C60: 01 63 0C 20 00 21 00                              .c. .!.         
```

#### Opcodes

```
  0: 0x0C24 [0x20] SET_CLI_EVENT_UC_FLAG: Lock player control
  1: 0x0C26 [0x24] CREATE_DIALOG(message_id=9494*, default_option=1*, option_flags=0*)
     "Use the device? [Yes./No.]"
  2: 0x0C2D [0x25] WAIT_DIALOG_SELECT()
  3: 0x0C2E [0x02] IF !(Work_Zone[0] == 0*) GOTO 0x0C58
  4: 0x0C36 [0x42] SET_CLI_EVENT_CANCEL_DATA()
  5: 0x0C37 [0x43] SEND_EVENT_UPDATE: Send pending tag to server (packet 0x005B)
  6: 0x0C39 [0x43] SEND_EVENT_UPDATE: Check pending flag (skip if not pending)
  7: 0x0C3B [0x29] REQ_SET_WAIT(priority=0x01, entity_id=LocalPlayer, tag_num=0x1D)
  8: 0x0C42 [0x47] UPDATE_PLAYER_POS(-150.000*, -543.000*, 0.000*, yaw=270.0째*)
  9: 0x0C4C [0x47] WAIT_PLAYER_POS_UPDATE
 10: 0x0C4E [0x29] REQ_SET_WAIT(priority=0x01, entity_id=LocalPlayer, tag_num=0x1E)
 11: 0x0C55 [0x01] GOTO 0x0C63
 12: 0x0C58 [0x02] IF !(Work_Zone[0] == 1*) GOTO 0x0C63
 13: 0x0C60 [0x01] GOTO 0x0C63

SUBROUTINE_0C63:
 14: 0x0C63 [0x20] SET_CLI_EVENT_UC_FLAG: Unlock player control
 15: 0x0C65 [0x21] END_EVENT
 16: 0x0C66 [0x00] END_REQSTACK()
```

### Event 255

#### Metadata

| Field        | Value    |
|--------------|----------|
| Entrypoint   | 0x0C67   |
| Data Size    | 67 bytes |
| Instructions | 17       |

```
      00 01 02 03 04 05 06 07  08 09 0A 0B 0C 0D 0E 0F
      -- -- -- -- -- -- -- --  -- -- -- -- -- -- -- --
0C60:                      20  01 24 41 80 12 80 03 80          .$A.....
0C70: 25 02 00 10 03 80 00 9B  0C 42 43 00 43 01 29 01  %........BC.C.).
0C80: F0 FF FF 7F 1D 47 00 47  80 48 80 44 80 49 80 47  .....G.G.H.D.I.G
0C90: 01 29 01 F0 FF FF 7F 1E  01 A6 0C 02 00 10 12 80  .)..............
0CA0: 00 A6 0C 01 A6 0C 20 00  21 00                    ...... .!.      
```

#### Opcodes

```
  0: 0x0C67 [0x20] SET_CLI_EVENT_UC_FLAG: Lock player control
  1: 0x0C69 [0x24] CREATE_DIALOG(message_id=9494*, default_option=1*, option_flags=0*)
     "Use the device? [Yes./No.]"
  2: 0x0C70 [0x25] WAIT_DIALOG_SELECT()
  3: 0x0C71 [0x02] IF !(Work_Zone[0] == 0*) GOTO 0x0C9B
  4: 0x0C79 [0x42] SET_CLI_EVENT_CANCEL_DATA()
  5: 0x0C7A [0x43] SEND_EVENT_UPDATE: Send pending tag to server (packet 0x005B)
  6: 0x0C7C [0x43] SEND_EVENT_UPDATE: Check pending flag (skip if not pending)
  7: 0x0C7E [0x29] REQ_SET_WAIT(priority=0x01, entity_id=LocalPlayer, tag_num=0x1D)
  8: 0x0C85 [0x47] UPDATE_PLAYER_POS(-323.000*, -440.000*, -4.000*, yaw=180.0째*)
  9: 0x0C8F [0x47] WAIT_PLAYER_POS_UPDATE
 10: 0x0C91 [0x29] REQ_SET_WAIT(priority=0x01, entity_id=LocalPlayer, tag_num=0x1E)
 11: 0x0C98 [0x01] GOTO 0x0CA6
 12: 0x0C9B [0x02] IF !(Work_Zone[0] == 1*) GOTO 0x0CA6
 13: 0x0CA3 [0x01] GOTO 0x0CA6

SUBROUTINE_0CA6:
 14: 0x0CA6 [0x20] SET_CLI_EVENT_UC_FLAG: Unlock player control
 15: 0x0CA8 [0x21] END_EVENT
 16: 0x0CA9 [0x00] END_REQSTACK()
```

### Event 256

#### Metadata

| Field        | Value    |
|--------------|----------|
| Entrypoint   | 0x0CAA   |
| Data Size    | 67 bytes |
| Instructions | 17       |

```
      00 01 02 03 04 05 06 07  08 09 0A 0B 0C 0D 0E 0F
      -- -- -- -- -- -- -- --  -- -- -- -- -- -- -- --
0CA0:                                20 01 24 41 80 12             .$A..
0CB0: 80 03 80 25 02 00 10 03  80 00 DE 0C 42 43 00 43  ...%........BC.C
0CC0: 01 29 01 F0 FF FF 7F 1D  47 00 3E 80 3F 80 03 80  .)......G.>.?...
0CD0: 40 80 47 01 29 01 F0 FF  FF 7F 1E 01 E9 0C 02 00  @.G.)...........
0CE0: 10 12 80 00 E9 0C 01 E9  0C 20 00 21 00           ......... .!.   
```

#### Opcodes

```
  0: 0x0CAA [0x20] SET_CLI_EVENT_UC_FLAG: Lock player control
  1: 0x0CAC [0x24] CREATE_DIALOG(message_id=9494*, default_option=1*, option_flags=0*)
     "Use the device? [Yes./No.]"
  2: 0x0CB3 [0x25] WAIT_DIALOG_SELECT()
  3: 0x0CB4 [0x02] IF !(Work_Zone[0] == 0*) GOTO 0x0CDE
  4: 0x0CBC [0x42] SET_CLI_EVENT_CANCEL_DATA()
  5: 0x0CBD [0x43] SEND_EVENT_UPDATE: Send pending tag to server (packet 0x005B)
  6: 0x0CBF [0x43] SEND_EVENT_UPDATE: Check pending flag (skip if not pending)
  7: 0x0CC1 [0x29] REQ_SET_WAIT(priority=0x01, entity_id=LocalPlayer, tag_num=0x1D)
  8: 0x0CC8 [0x47] UPDATE_PLAYER_POS(-326.000*, -293.000*, 0.000*, yaw=90.0째*)
  9: 0x0CD2 [0x47] WAIT_PLAYER_POS_UPDATE
 10: 0x0CD4 [0x29] REQ_SET_WAIT(priority=0x01, entity_id=LocalPlayer, tag_num=0x1E)
 11: 0x0CDB [0x01] GOTO 0x0CE9
 12: 0x0CDE [0x02] IF !(Work_Zone[0] == 1*) GOTO 0x0CE9
 13: 0x0CE6 [0x01] GOTO 0x0CE9

SUBROUTINE_0CE9:
 14: 0x0CE9 [0x20] SET_CLI_EVENT_UC_FLAG: Unlock player control
 15: 0x0CEB [0x21] END_EVENT
 16: 0x0CEC [0x00] END_REQSTACK()
```

### Event 257

#### Metadata

| Field        | Value    |
|--------------|----------|
| Entrypoint   | 0x0CED   |
| Data Size    | 67 bytes |
| Instructions | 17       |

```
      00 01 02 03 04 05 06 07  08 09 0A 0B 0C 0D 0E 0F
      -- -- -- -- -- -- -- --  -- -- -- -- -- -- -- --
0CE0:                                         20 01 24                .$
0CF0: 41 80 12 80 03 80 25 02  00 10 03 80 00 21 0D 42  A.....%......!.B
0D00: 43 00 43 01 29 01 F0 FF  FF 7F 1D 47 00 46 80 43  C.C.)......G.F.C
0D10: 80 44 80 40 80 47 01 29  01 F0 FF FF 7F 1E 01 2C  .D.@.G.).......,
0D20: 0D 02 00 10 12 80 00 2C  0D 01 2C 0D 20 00 21 00  .......,..,. .!.
```

#### Opcodes

```
  0: 0x0CED [0x20] SET_CLI_EVENT_UC_FLAG: Lock player control
  1: 0x0CEF [0x24] CREATE_DIALOG(message_id=9494*, default_option=1*, option_flags=0*)
     "Use the device? [Yes./No.]"
  2: 0x0CF6 [0x25] WAIT_DIALOG_SELECT()
  3: 0x0CF7 [0x02] IF !(Work_Zone[0] == 0*) GOTO 0x0D21
  4: 0x0CFF [0x42] SET_CLI_EVENT_CANCEL_DATA()
  5: 0x0D00 [0x43] SEND_EVENT_UPDATE: Send pending tag to server (packet 0x005B)
  6: 0x0D02 [0x43] SEND_EVENT_UPDATE: Check pending flag (skip if not pending)
  7: 0x0D04 [0x29] REQ_SET_WAIT(priority=0x01, entity_id=LocalPlayer, tag_num=0x1D)
  8: 0x0D0B [0x47] UPDATE_PLAYER_POS(-280.000*, -463.000*, -4.000*, yaw=90.0째*)
  9: 0x0D15 [0x47] WAIT_PLAYER_POS_UPDATE
 10: 0x0D17 [0x29] REQ_SET_WAIT(priority=0x01, entity_id=LocalPlayer, tag_num=0x1E)
 11: 0x0D1E [0x01] GOTO 0x0D2C
 12: 0x0D21 [0x02] IF !(Work_Zone[0] == 1*) GOTO 0x0D2C
 13: 0x0D29 [0x01] GOTO 0x0D2C

SUBROUTINE_0D2C:
 14: 0x0D2C [0x20] SET_CLI_EVENT_UC_FLAG: Unlock player control
 15: 0x0D2E [0x21] END_EVENT
 16: 0x0D2F [0x00] END_REQSTACK()
```

### Event 258

#### Metadata

| Field        | Value    |
|--------------|----------|
| Entrypoint   | 0x0D30   |
| Data Size    | 67 bytes |
| Instructions | 17       |

```
      00 01 02 03 04 05 06 07  08 09 0A 0B 0C 0D 0E 0F
      -- -- -- -- -- -- -- --  -- -- -- -- -- -- -- --
0D30: 20 01 24 41 80 12 80 03  80 25 02 00 10 03 80 00   .$A.....%......
0D40: 64 0D 42 43 00 43 01 29  01 F0 FF FF 7F 1D 47 00  d.BC.C.)......G.
0D50: 4A 80 4B 80 03 80 40 80  47 01 29 01 F0 FF FF 7F  J.K...@.G.).....
0D60: 1E 01 6F 0D 02 00 10 12  80 00 6F 0D 01 6F 0D 20  ..o.......o..o. 
0D70: 00 21 00                                          .!.             
```

#### Opcodes

```
  0: 0x0D30 [0x20] SET_CLI_EVENT_UC_FLAG: Lock player control
  1: 0x0D32 [0x24] CREATE_DIALOG(message_id=9494*, default_option=1*, option_flags=0*)
     "Use the device? [Yes./No.]"
  2: 0x0D39 [0x25] WAIT_DIALOG_SELECT()
  3: 0x0D3A [0x02] IF !(Work_Zone[0] == 0*) GOTO 0x0D64
  4: 0x0D42 [0x42] SET_CLI_EVENT_CANCEL_DATA()
  5: 0x0D43 [0x43] SEND_EVENT_UPDATE: Send pending tag to server (packet 0x005B)
  6: 0x0D45 [0x43] SEND_EVENT_UPDATE: Check pending flag (skip if not pending)
  7: 0x0D47 [0x29] REQ_SET_WAIT(priority=0x01, entity_id=LocalPlayer, tag_num=0x1D)
  8: 0x0D4E [0x47] UPDATE_PLAYER_POS(-164.000*, -373.000*, 0.000*, yaw=90.0째*)
  9: 0x0D58 [0x47] WAIT_PLAYER_POS_UPDATE
 10: 0x0D5A [0x29] REQ_SET_WAIT(priority=0x01, entity_id=LocalPlayer, tag_num=0x1E)
 11: 0x0D61 [0x01] GOTO 0x0D6F
 12: 0x0D64 [0x02] IF !(Work_Zone[0] == 1*) GOTO 0x0D6F
 13: 0x0D6C [0x01] GOTO 0x0D6F

SUBROUTINE_0D6F:
 14: 0x0D6F [0x20] SET_CLI_EVENT_UC_FLAG: Unlock player control
 15: 0x0D71 [0x21] END_EVENT
 16: 0x0D72 [0x00] END_REQSTACK()
```

### Event 259

#### Metadata

| Field        | Value    |
|--------------|----------|
| Entrypoint   | 0x0D73   |
| Data Size    | 41 bytes |
| Instructions | 5        |

```
      00 01 02 03 04 05 06 07  08 09 0A 0B 0C 0D 0E 0F
      -- -- -- -- -- -- -- --  -- -- -- -- -- -- -- --
0D70:          62 12 80 F0 FF  FF 7F F0 FF FF 7F 6D 61     b..........ma
0D80: 69 6E 03 80 1C 17 80 45  04 80 F0 FF FF 7F F0 FF  in.....E........
0D90: FF 7F 66 64 6F 31 03 80  1C 05 80 00              ..fdo1......    
```

#### Opcodes

```
  0: 0x0D73 [0x62] LOAD_EVENT_SCHEDULER: Load scheduler "main" with entities [LocalPlayer, LocalPlayer], work=[1*, 0*]
  1: 0x0D84 [0x1C] WAIT(140* ticks)
  2: 0x0D87 [0x45] LOAD_SCHEDULED_TASK: Load scheduler "fdo1" with entities [LocalPlayer, LocalPlayer], work=[200*, 0*]
  3: 0x0D98 [0x1C] WAIT(60* ticks)
  4: 0x0D9B [0x00] END_REQSTACK()
```

### Event 260

#### Metadata

| Field        | Value    |
|--------------|----------|
| Entrypoint   | 0x0D9C   |
| Data Size    | 38 bytes |
| Instructions | 4        |

```
      00 01 02 03 04 05 06 07  08 09 0A 0B 0C 0D 0E 0F
      -- -- -- -- -- -- -- --  -- -- -- -- -- -- -- --
0D90:                                      45 04 80 F0              E...
0DA0: FF FF 7F F0 FF FF 7F 66  64 69 31 03 80 62 13 80  .......fdi1..b..
0DB0: F0 FF FF 7F F0 FF FF 7F  6D 61 69 6E 03 80 1C 4C  ........main...L
0DC0: 80 00                                             ..              
```

#### Opcodes

```
  0: 0x0D9C [0x45] LOAD_SCHEDULED_TASK: Load scheduler "fdi1" with entities [LocalPlayer, LocalPlayer], work=[200*, 0*]
  1: 0x0DAD [0x62] LOAD_EVENT_SCHEDULER: Load scheduler "main" with entities [LocalPlayer, LocalPlayer], work=[2*, 0*]
  2: 0x0DBE [0x1C] WAIT(170* ticks)
  3: 0x0DC1 [0x00] END_REQSTACK()
```

### Event 65535.15

#### Metadata

| Field        | Value    |
|--------------|----------|
| Entrypoint   | 0x0DC2   |
| Data Size    | 42 bytes |
| Instructions | 6        |

```
      00 01 02 03 04 05 06 07  08 09 0A 0B 0C 0D 0E 0F
      -- -- -- -- -- -- -- --  -- -- -- -- -- -- -- --
0DC0:       03 00 00 07 7F 1A  D3 00 66 01 00 F8 FF FF    ........f.....
0DD0: 7F F8 FF FF 7F 74 6C 6B  30 1C 05 80 66 01 00 F8  .....tlk0...f...
0DE0: FF FF 7F F8 FF FF 7F 74  6C 6B 31 00              .......tlk1.    
```

#### Opcodes

```
  0: 0x0DC2 [0x03] ExtData[1]->WorkLocal[0] = Entity->Race
  1: 0x0DC7 [0x1A] CALL_SUBROUTINE(address=0x00D3)
  2: 0x0DCA [0x66] LOAD_EXT_SCHEDULER_MAIN: Load scheduler "tlk0" with entities [EventEntity, EventEntity], work=ExtData[1]->WorkLocal[1]
  3: 0x0DD9 [0x1C] WAIT(60* ticks)
  4: 0x0DDC [0x66] LOAD_EXT_SCHEDULER_MAIN: Load scheduler "tlk1" with entities [EventEntity, EventEntity], work=ExtData[1]->WorkLocal[1]
  5: 0x0DEB [0x00] END_REQSTACK()
```
