# Event 65535

## Metadata

| Field           | Value    |
|-----------------|----------|
| Event Index     | 4/16     |
| Offset          | 0x001A   |
| Data Size       | 54 bytes |
| Calculated Size | 54 bytes |
| Instructions    | 10       |

```
      00 01 02 03 04 05 06 07  08 09 0A 0B 0C 0D 0E 0F
      -- -- -- -- -- -- -- --  -- -- -- -- -- -- -- --
0010:                                39 08 80 1C 09 80            9.....
0020: 5B 0A 80 F8 FF FF 7F F8  FF FF 7F 74 6C 6B 30 1C  [..........tlk0.
0030: 0B 80 39 0C 80 1C 09 80  5B 0A 80 F8 FF FF 7F F8  ..9.....[.......
0040: FF FF 7F 74 6C 6B 30 1C  0B 80 5E 69 64 6C 30 00  ...tlk0...^idl0.
```

## Opcodes

```
  0: 0x001A [0x39] SET_ENTITY_DIRECTION(direction=7.6°*)
  1: 0x001D [0x1C] WAIT(90* ticks)
  2: 0x0020 [0x5B] LOAD_EXT_SCHEDULER(work_offset=75*, entity1=EventEntity, entity2=EventEntity, action="tlk0")
  3: 0x002F [0x1C] WAIT(60* ticks)
  4: 0x0032 [0x39] SET_ENTITY_DIRECTION(direction=19.2°*)
  5: 0x0035 [0x1C] WAIT(90* ticks)
  6: 0x0038 [0x5B] LOAD_EXT_SCHEDULER(work_offset=75*, entity1=EventEntity, entity2=EventEntity, action="tlk0")
  7: 0x0047 [0x1C] WAIT(60* ticks)
  8: 0x004A [0x5E] EventEntity goes idle (kills current action) (animation: "idl0")
  9: 0x004F [0x00] END_REQSTACK()
```
