# Event 65535

## Metadata

| Field           | Value    |
|-----------------|----------|
| Event Index     | 11/81    |
| Offset          | 0x0B0F   |
| Data Size       | 53 bytes |
| Calculated Size | 53 bytes |
| Instructions    | 10       |

```
      00 01 02 03 04 05 06 07  08 09 0A 0B 0C 0D 0E 0F
      -- -- -- -- -- -- -- --  -- -- -- -- -- -- -- --
0B00:                                               3B                 ;
0B10: F0 FF FF 7F 03 00 04 00  02 00 02 04 00 83 80 03  ................
0B20: 34 0B 08 04 00 8A 80 1F  00 03 00 04 00 85 80 1F  4...............
0B30: 01 01 43 0B 07 04 00 8A  80 1F 00 03 00 04 00 85  ..C.............
0B40: 80 1F 01 00                                       ....            
```

## Opcodes

```
  0: 0x0B0F [0x3B] GET_ENTITY_POSITION(entity=LocalPlayer, x_destination=ExtData[1]->WorkLocal[3], y_destination=ExtData[1]->WorkLocal[4], z_destination=ExtData[1]->WorkLocal[2])
  1: 0x0B1A [0x02] IF !(ExtData[1]->WorkLocal[4] >= 4294847296*) GOTO 0x0B34
  2: 0x0B22 [0x08] ExtData[1]->WorkLocal[4] -= 2000*
  3: 0x0B27 [0x1F] MOVE_ENTITY: EventEntity moves to X=0.003, Z=0.004, Y=5.499*
  4: 0x0B2F [0x1F] MOVE_ENTITY: Update entity position (mode=1)
  5: 0x0B31 [0x01] GOTO 0x0B43
  6: 0x0B34 [0x07] ExtData[1]->WorkLocal[4] += 2000*
  7: 0x0B39 [0x1F] MOVE_ENTITY: EventEntity moves to X=0.003, Z=0.004, Y=5.499*
  8: 0x0B41 [0x1F] MOVE_ENTITY: Update entity position (mode=1)
  9: 0x0B43 [0x00] END_REQSTACK()
```
