# Event 65535

## Metadata

| Field           | Value    |
|-----------------|----------|
| Event Index     | 69/81    |
| Offset          | 0x4251   |
| Data Size       | 41 bytes |
| Calculated Size | 41 bytes |
| Instructions    | 10       |

```
      00 01 02 03 04 05 06 07  08 09 0A 0B 0C 0D 0E 0F
      -- -- -- -- -- -- -- --  -- -- -- -- -- -- -- --
4250:    03 08 00 80 82 06 09  00 B4 0A 08 00 02 08 00   ...............
4260: 07 80 02 6C 42 B4 0C 08  00 01 5D 42 B4 0B 02 09  ...lB.....]B....
4270: 00 07 80 00 79 42 B4 06  00 00                    ....yB....      
```

## Opcodes

```
  0: 0x4251 [0x03] ExtData[1]->WorkLocal[8] = 3600*
  1: 0x4256 [0x06] ExtData[1]->WorkLocal[9] = 0
  2: 0x4259 [0xB4] UI_WINDOW_STRING_HANDLER(case=0x0A - Open event time window, work_offset=ExtData[1]->WorkLocal[8])
  3: 0x425D [0x02] IF !(ExtData[1]->WorkLocal[8] <= 0*) GOTO 0x426C
  4: 0x4265 [0xB4] UI_WINDOW_STRING_HANDLER(case=0x0C - Get event time count value, work_offset=ExtData[1]->WorkLocal[8])
  5: 0x4269 [0x01] GOTO 0x425D

SUBROUTINE_426C:
  6: 0x426C [0xB4] UI_WINDOW_STRING_HANDLER(case=0x0B - Destroy event time window)
  7: 0x426E [0x02] IF !(ExtData[1]->WorkLocal[9] == 0*) GOTO 0x4279
  8: 0x4276 [0xB4] UI_WINDOW_STRING_HANDLER(case=0x06 - Toggle query message flag, flag_value=0x00)
  9: 0x4279 [0x00] END_REQSTACK()
```
