# Event 73

## Metadata

| Field           | Value    |
|-----------------|----------|
| Event Index     | 8/81     |
| Offset          | 0x0A1B   |
| Data Size       | 83 bytes |
| Calculated Size | 83 bytes |
| Instructions    | 12       |

```
      00 01 02 03 04 05 06 07  08 09 0A 0B 0C 0D 0E 0F
      -- -- -- -- -- -- -- --  -- -- -- -- -- -- -- --
0A10:                                   20 01 42 45 11              .BE.
0A20: 80 F0 FF FF 7F F0 FF FF  7F 66 64 69 32 07 80 46  .........fdi2..F
0A30: 01 45 06 80 F0 FF FF 7F  F0 FF FF 7F 73 73 63 62  .E..........sscb
0A40: 81 80 1C 82 80 45 11 80  F0 FF FF 7F F0 FF FF 7F  .....E..........
0A50: 66 64 6F 31 07 80 1C 17  80 45 11 80 F0 FF FF 7F  fdo1.....E......
0A60: F0 FF FF 7F 66 64 69 31  07 80 46 00 21 00        ....fdi1..F.!.  
```

## Opcodes

```
  0: 0x0A1B [0x20] SET_CLI_EVENT_UC_FLAG: Lock player control
  1: 0x0A1D [0x42] SET_CLI_EVENT_CANCEL_DATA()
  2: 0x0A1E [0x45] LOAD_SCHEDULED_TASK: Load scheduler "fdi2" with entities [LocalPlayer, LocalPlayer], work=[200*, 0*]
  3: 0x0A2F [0x46] CAMERA_CONTROL: Disable user control
  4: 0x0A31 [0x45] LOAD_SCHEDULED_TASK: Load scheduler "sscb" with entities [LocalPlayer, LocalPlayer], work=[136*, 600*]
  5: 0x0A42 [0x1C] WAIT(540* ticks)
  6: 0x0A45 [0x45] LOAD_SCHEDULED_TASK: Load scheduler "fdo1" with entities [LocalPlayer, LocalPlayer], work=[200*, 0*]
  7: 0x0A56 [0x1C] WAIT(60* ticks)
  8: 0x0A59 [0x45] LOAD_SCHEDULED_TASK: Load scheduler "fdi1" with entities [LocalPlayer, LocalPlayer], work=[200*, 0*]
  9: 0x0A6A [0x46] CAMERA_CONTROL: Restore default settings
 10: 0x0A6C [0x21] END_EVENT
 11: 0x0A6D [0x00] END_REQSTACK()
```
