# Event 12

## Metadata

| Field           | Value    |
|-----------------|----------|
| Event Index     | 8/8      |
| Offset          | 0x010E   |
| Data Size       | 49 bytes |
| Calculated Size | 49 bytes |
| Instructions    | 13       |

```
      00 01 02 03 04 05 06 07  08 09 0A 0B 0C 0D 0E 0F
      -- -- -- -- -- -- -- --  -- -- -- -- -- -- -- --
0100:                                            42 03                B.
0110: 00 00 02 10 03 01 00 03  10 03 02 00 04 10 03 03  ................
0120: 00 05 10 32 06 80 1F 00  00 00 02 00 01 00 1F 01  ...2............
0130: 6F 47 00 00 00 02 00 01  00 03 00 47 01 21 00     oG.........G.!. 
```

## Opcodes

```
  0: 0x010E [0x42] SET_CLI_EVENT_CANCEL_DATA()
  1: 0x010F [0x03] ExtData[1]->WorkLocal[0] = Work_Zone[2]
  2: 0x0114 [0x03] ExtData[1]->WorkLocal[1] = Work_Zone[3]
  3: 0x0119 [0x03] ExtData[1]->WorkLocal[2] = Work_Zone[4]
  4: 0x011E [0x03] ExtData[1]->WorkLocal[3] = Work_Zone[5]
  5: 0x0123 [0x32] ExtData[1]->MainSpeed = 40* * 0.1
  6: 0x0126 [0x1F] MOVE_ENTITY: EventEntity moves to X=0.000, Z=0.002, Y=0.001
  7: 0x012E [0x1F] MOVE_ENTITY: Update entity position (mode=1)
  8: 0x0130 [0x6F] WAIT_FRAME_DELAY: Yield until WaitTime reaches zero
  9: 0x0131 [0x47] UPDATE_PLAYER_POS(ExtData[1]->WorkLocal[0], ExtData[1]->WorkLocal[2], ExtData[1]->WorkLocal[1], yaw=ExtData[1]->WorkLocal[3])
 10: 0x013B [0x47] WAIT_PLAYER_POS_UPDATE
 11: 0x013D [0x21] END_EVENT
 12: 0x013E [0x00] END_REQSTACK()
```
