# Event 65535

## Metadata

| Field           | Value    |
|-----------------|----------|
| Event Index     | 4/4      |
| Offset          | 0x0023   |
| Data Size       | 65 bytes |
| Calculated Size | 65 bytes |
| Instructions    | 8        |

```
      00 01 02 03 04 05 06 07  08 09 0A 0B 0C 0D 0E 0F
      -- -- -- -- -- -- -- --  -- -- -- -- -- -- -- --
0020:          37 06 80 07 80  08 80 09 80 22 00 1C 01     7........"...
0030: 80 45 0A 80 F0 FF FF 7F  F0 FF FF 7F 73 67 31 39  .E..........sg19
0040: 00 80 66 0B 80 F3 02 09  01 F3 02 09 01 61 74 30  ..f..........at0
0050: 31 1C 0C 80 5B 0D 80 F1  02 09 01 F1 02 09 01 64  1...[..........d
0060: 61 6D 30 00                                       am0.            
```

## Opcodes

```
  0: 0x0023 [0x37] UPDATE_EVENT_POSITION_AND_DIR: x=-180.746*, z=-141.911*, y=60.295*, direction=359.1°*
  1: 0x002C [0x22] ENTITY_HIDE_FLAG(enabled=0x00)
  2: 0x002E [0x1C] WAIT(1* ticks)
  3: 0x0031 [0x45] LOAD_SCHEDULED_TASK(work_offset1=44*, entity1=LocalPlayer, entity2=LocalPlayer, scheduler_id="sg19", work_offset2=0*)
  4: 0x0042 [0x66] LOAD_EXT_SCHEDULER_MAIN(work_offset=11*, entity1=Ayame (ID: 17367795/0x010902F3), entity2=Ayame (ID: 17367795/0x010902F3), action="at01")
  5: 0x0051 [0x1C] WAIT(30* ticks)
  6: 0x0054 [0x5B] LOAD_EXT_SCHEDULER(work_offset=409*, entity1=Dark Dragon (ID: 17367793/0x010902F1), entity2=Dark Dragon (ID: 17367793/0x010902F1), action="dam0")
  7: 0x0063 [0x00] END_REQSTACK()
```
