# 17825913 - Debadle-Levadle

## Common Data

| Field            | Value                     |
|------------------|---------------------------|
| Zone             | Western Adoulin (ID: 256) |
| Block Size       | 3120 bytes                |
| Total Events     | 10                        |
| References Count | 215                       |

## List of Events

| Event ID              | Entrypoint   |   Size |   Instructions |
|-----------------------|--------------|--------|----------------|
| [65535](#event-65535) | 0x0000       |      1 |              1 |
| [14](#event-14)       | 0x0001       |     63 |             20 |
| [15](#event-15)       | 0x0040       |   2126 |            476 |
| [89](#event-89)       | 0x088E       |      1 |              1 |
| [93](#event-93)       | 0x088F       |      1 |              1 |
| [94](#event-94)       | 0x0890       |      1 |              1 |
| [95](#event-95)       | 0x0891       |      1 |              1 |
| [96](#event-96)       | 0x0892       |      1 |              1 |
| [97](#event-97)       | 0x0893       |      1 |              1 |
| [172](#event-172)     | 0x0894       |      7 |              3 |

## DAT References (imed_data)

|   Index | Hex Value   |   Dec Value |
|---------|-------------|-------------|
|       0 | 0x001E      |          30 |
|       1 | 0x0001      |           1 |
|       2 | 0x0000      |           0 |
|       3 | 0x2099      |        8345 |
|       4 | 0x209A      |        8346 |
|       5 | 0x209E      |        8350 |
|       6 | 0x001F      |          31 |
|       7 | 0x0007      |           7 |
|       8 | 0x0002      |           2 |
|       9 | 0x0008      |           8 |
|      10 | 0x209B      |        8347 |
|      11 | 0x209C      |        8348 |
|      12 | 0xFFFFFFFE  |  4294967294 |
|      13 | 0x0003      |           3 |
|      14 | 0x0004      |           4 |
|      15 | 0x0005      |           5 |
|      16 | 0x0006      |           6 |
|      17 | 0x00C8      |         200 |
|      18 | 0x012C      |         300 |
|      19 | 0x0190      |         400 |
|      20 | 0x01F4      |         500 |
|      21 | 0x0258      |         600 |
|      22 | 0x02BC      |         700 |
|      23 | 0x209D      |        8349 |
|      24 | 0x40000000  |  1073741824 |
|      25 | 0x20A4      |        8356 |
|      26 | 0x20A1      |        8353 |
|      27 | 0x20A2      |        8354 |
|      28 | 0xFFFFFFFF  |  4294967295 |
|      29 | 0x0012      |          18 |
|      30 | 0x0013      |          19 |
|      31 | 0x0020      |          32 |
|      32 | 0x0021      |          33 |
|      33 | 0x0010      |          16 |
|      34 | 0x0026      |          38 |
|      35 | 0x0027      |          39 |
|      36 | 0x0028      |          40 |
|      37 | 0x0029      |          41 |
|      38 | 0x0039      |          57 |
|      39 | 0x0016      |          22 |
|      40 | 0x20A8      |        8360 |
|      41 | 0x01A6      |         422 |
|      42 | 0x017A      |         378 |
|      43 | 0x012E      |         302 |
|      44 | 0x01B1      |         433 |
|      45 | 0x01D3      |         467 |
|      46 | 0x01D4      |         468 |
|      47 | 0x00A4      |         164 |
|      48 | 0x00A6      |         166 |
|      49 | 0x00A7      |         167 |
|      50 | 0x00A8      |         168 |
|      51 | 0x00A9      |         169 |
|      52 | 0x019B      |         411 |
|      53 | 0x20A5      |        8357 |
|      54 | 0x20A7      |        8359 |
|      55 | 0x0014      |          20 |
|      56 | 0x03AF      |         943 |
|      57 | 0x008A      |         138 |
|      58 | 0x0009      |           9 |
|      59 | 0x030D      |         781 |
|      60 | 0x0313      |         787 |
|      61 | 0x0240      |         576 |
|      62 | 0x038E      |         910 |
|      63 | 0x09C4      |        2500 |
|      64 | 0x0909      |        2313 |
|      65 | 0x3CAD      |       15533 |
|      66 | 0x20A6      |        8358 |
|      67 | 0x0011      |          17 |
|      68 | 0x20A0      |        8352 |
|      69 | 0x0344      |         836 |
|      70 | 0x0345      |         837 |
|      71 | 0x0346      |         838 |
|      72 | 0x0347      |         839 |
|      73 | 0x0348      |         840 |
|      74 | 0x0349      |         841 |
|      75 | 0x034A      |         842 |
|      76 | 0x034B      |         843 |
|      77 | 0x0350      |         848 |
|      78 | 0x0352      |         850 |
|      79 | 0x0355      |         853 |
|      80 | 0x0356      |         854 |
|      81 | 0x0357      |         855 |
|      82 | 0x0358      |         856 |
|      83 | 0x0359      |         857 |
|      84 | 0x035E      |         862 |
|      85 | 0x0363      |         867 |
|      86 | 0x0368      |         872 |
|      87 | 0x036D      |         877 |
|      88 | 0x0372      |         882 |
|      89 | 0x0378      |         888 |
|      90 | 0x0377      |         887 |
|      91 | 0x0351      |         849 |
|      92 | 0x037C      |         892 |
|      93 | 0x037D      |         893 |
|      94 | 0x0381      |         897 |
|      95 | 0x0382      |         898 |
|      96 | 0x0383      |         899 |
|      97 | 0x035A      |         858 |
|      98 | 0x035F      |         863 |
|      99 | 0x0364      |         868 |
|     100 | 0x0369      |         873 |
|     101 | 0x036E      |         878 |
|     102 | 0x0373      |         883 |
|     103 | 0x0379      |         889 |
|     104 | 0x037A      |         890 |
|     105 | 0x037B      |         891 |
|     106 | 0x0386      |         902 |
|     107 | 0x0387      |         903 |
|     108 | 0x0388      |         904 |
|     109 | 0x0389      |         905 |
|     110 | 0x037F      |         895 |
|     111 | 0x0380      |         896 |
|     112 | 0x038A      |         906 |
|     113 | 0x038C      |         908 |
|     114 | 0x0391      |         913 |
|     115 | 0x0396      |         918 |
|     116 | 0x0397      |         919 |
|     117 | 0x039A      |         922 |
|     118 | 0x039B      |         923 |
|     119 | 0x039C      |         924 |
|     120 | 0x039D      |         925 |
|     121 | 0x039E      |         926 |
|     122 | 0x03A7      |         935 |
|     123 | 0x03CC      |         972 |
|     124 | 0x03CE      |         974 |
|     125 | 0x035B      |         859 |
|     126 | 0x0360      |         864 |
|     127 | 0x0365      |         869 |
|     128 | 0x036A      |         874 |
|     129 | 0x036F      |         879 |
|     130 | 0x0374      |         884 |
|     131 | 0x038D      |         909 |
|     132 | 0x0392      |         914 |
|     133 | 0x0398      |         920 |
|     134 | 0x0327      |         807 |
|     135 | 0x039F      |         927 |
|     136 | 0x03A0      |         928 |
|     137 | 0x03A1      |         929 |
|     138 | 0x03A2      |         930 |
|     139 | 0x03A3      |         931 |
|     140 | 0x03A4      |         932 |
|     141 | 0x03A5      |         933 |
|     142 | 0x03A6      |         934 |
|     143 | 0x03A8      |         936 |
|     144 | 0x03A9      |         937 |
|     145 | 0x03AB      |         939 |
|     146 | 0x03D3      |         979 |
|     147 | 0x0414      |        1044 |
|     148 | 0x0415      |        1045 |
|     149 | 0x045D      |        1117 |
|     150 | 0x045E      |        1118 |
|     151 | 0x045F      |        1119 |
|     152 | 0x0468      |        1128 |
|     153 | 0x02F4      |         756 |
|     154 | 0x02F5      |         757 |
|     155 | 0x02F9      |         761 |
|     156 | 0x02FA      |         762 |
|     157 | 0x02FB      |         763 |
|     158 | 0x034E      |         846 |
|     159 | 0x034F      |         847 |
|     160 | 0x02FC      |         764 |
|     161 | 0x035C      |         860 |
|     162 | 0x0361      |         865 |
|     163 | 0x0366      |         870 |
|     164 | 0x036B      |         875 |
|     165 | 0x0370      |         880 |
|     166 | 0x0375      |         885 |
|     167 | 0x02FD      |         765 |
|     168 | 0x02FE      |         766 |
|     169 | 0x02FF      |         767 |
|     170 | 0x0300      |         768 |
|     171 | 0x0301      |         769 |
|     172 | 0x030F      |         783 |
|     173 | 0x0319      |         793 |
|     174 | 0x0393      |         915 |
|     175 | 0x0399      |         921 |
|     176 | 0x0322      |         802 |
|     177 | 0x0328      |         808 |
|     178 | 0x03D4      |         980 |
|     179 | 0x02F6      |         758 |
|     180 | 0x02F7      |         759 |
|     181 | 0x02F8      |         760 |
|     182 | 0x0353      |         851 |
|     183 | 0x0354      |         852 |
|     184 | 0x035D      |         861 |
|     185 | 0x0362      |         866 |
|     186 | 0x0367      |         871 |
|     187 | 0x036C      |         876 |
|     188 | 0x0371      |         881 |
|     189 | 0x0376      |         886 |
|     190 | 0x031A      |         794 |
|     191 | 0x031B      |         795 |
|     192 | 0x031C      |         796 |
|     193 | 0x038F      |         911 |
|     194 | 0x0394      |         916 |
|     195 | 0x0323      |         803 |
|     196 | 0x0329      |         809 |
|     197 | 0x033F      |         831 |
|     198 | 0x033C      |         828 |
|     199 | 0x033D      |         829 |
|     200 | 0x033E      |         830 |
|     201 | 0x0340      |         832 |
|     202 | 0x0341      |         833 |
|     203 | 0x0478      |        1144 |
|     204 | 0x0479      |        1145 |
|     205 | 0x0390      |         912 |
|     206 | 0x0395      |         917 |
|     207 | 0x03B4      |         948 |
|     208 | 0x042D      |        1069 |
|     209 | 0x042E      |        1070 |
|     210 | 0x042F      |        1071 |
|     211 | 0x0430      |        1072 |
|     212 | 0x0431      |        1073 |
|     213 | 0x0433      |        1075 |
|     214 | 0x0022      |          34 |

## String References

- **8345**: $6, a hero's story! The deeds of %0, in all their gloryt
- **8346**: A traveling bard walks far and near While wand'ring this celestial sphere From bustling towns to godforsaken lands. But none I love more than the swell Inhabitants of Vana'diel, Espec'lly when their gil comes to my hands.t
- **8347**: Pay me what you think I'm worth And songs of legend may spring forth.t
- **8348**: Open your ears and take a ration Of my melodic cantillation.t
- **8349**: How much will you give the bard? [Nothing./$0 gil./$1 gil./$2 gil./$3 gil./$4 gil./$5 gil./Let the bard decide your title./Unlock achievement.]
- **8350**: I cannot weave a ballad fair Out of moonbeams and thin air.t
- **8352**: Which title do you return to? [None./$1./$2./$3./$4./$5./$6./$7./$8./$9./$10./$11./$12./$13./$14./$15./$16./$17./$18./$19./$20./$21./$22./$23./$24./$25./$26./$27./$28.]
- **8353**: I'll add you to my repertoire And sing of you! So, au revoir!t
- **8354**: The power of song, a mystical thing That comes forth only when you sing. A minstrel's job in life is never done. So sing a doodle-doodle-lay And be upon your merry way-- And check your title, too, oh worthy one.t
- **8356**: Oh, what a soul, intrepid and bold To care not how your name is toldt
- **8357**: Unlock which achievement? [None./Job Level./Synthesis Skill 100./San d'Oria Rank 10./Bastok Rank 10./Windurst Rank 10./Zilart Missions./Promathia Missions./Aht Urhgan Missions./Mercenary Rank./$27./$28./$29./$30./$31./$32./$33./$34./$35./$36./$37./$38./View next page.]
- **8358**: Unlock which achievement? [None./Artifact related Quests./Guildworkers' Union Entry./Wings of the Goddess Missions./Past Vana'diel Nation Quests./$3./$3./$3./$3./$3./$3./$3./$3./Support Jobs./Extra Jobs./$16./$17./$18.]
- **8359**: Unlock which achievement? [None./Level 75 Warrior./Level 75 Monk./Level 75 White Mage./Level 75 Black Mage./Level 75 Red Mage./Level 75 Thief./Level 75 Paladin./Level 75 Dark Knight./Level 75 Beastmaster./Level 75 Bard./Level 75 Ranger./Level 75 Samurai./Level 75 Ninja./Level 75 Dragoon./Level 75 Summoner./Level 75 Blue Mage./Level 75 Corsair./Level 75 Puppetmaster./Level 75 Dancer./Level 75 Scholar.]
- **8360**: You have no achievements to unlock.

## Events

### Event 65535

#### Metadata

| Field        | Value   |
|--------------|---------|
| Entrypoint   | 0x0000  |
| Data Size    | 1 bytes |
| Instructions | 1       |

```
      00 01 02 03 04 05 06 07  08 09 0A 0B 0C 0D 0E 0F
      -- -- -- -- -- -- -- --  -- -- -- -- -- -- -- --
0000: 00                                                .               
```

#### Opcodes

```
  0: 0x0000 [0x00] END_REQSTACK()
```

### Event 14

#### Metadata

| Field        | Value    |
|--------------|----------|
| Entrypoint   | 0x0001   |
| Data Size    | 63 bytes |
| Instructions | 20       |

```
      00 01 02 03 04 05 06 07  08 09 0A 0B 0C 0D 0E 0F
      -- -- -- -- -- -- -- --  -- -- -- -- -- -- -- --
0000:    1C 00 80 86 01 F8 FF  FF 7F 1E F0 FF FF 7F 6F   ..............o
0010: 70 3E 08 10 00 80 25 00  3D 08 10 00 80 01 80 05  p>....%.=.......
0020: 01 17 01 28 00 06 01 17  02 08 10 02 80 01 34 00  ...(..........4.
0030: 1D 03 80 23 1D 04 80 23  1D 05 80 23 20 00 21 00  ...#...#...# .!.
```

#### Opcodes

```
  0: 0x0001 [0x1C] WAIT(30* ticks)
  1: 0x0004 [0x86] EventEntity->Render.Flags3 ^= 0x01
  2: 0x000A [0x1E] EventEntity looks at LocalPlayer and starts talking
  3: 0x000F [0x6F] WAIT_FRAME_DELAY: Yield until WaitTime reaches zero
  4: 0x0010 [0x70] WAIT_ENTITY_RENDER_FLAG: Wait while EventEntity->Render.Flags3 bit 2 is set (cancel turn if not)
  5: 0x0011 [0x3E] IF !(Work_Zone[8] bit 30*) GOTO 0x0025
  6: 0x0018 [0x3D] CLEAR_BIT_FLAG_CONDITIONAL(target_work_offset=Work_Zone[8], bit_index_work_offset=30*, condition_work_offset=1*)
  7: 0x001F [0x05] Work_Zone_1700[1] = 1
  8: 0x0022 [0x01] GOTO 0x0028
  9: 0x0025 [0x06] Work_Zone_1700[1] = 0

SUBROUTINE_0028:
 10: 0x0028 [0x02] IF !(Work_Zone[8] == 0*) GOTO 0x0034
 11: 0x0030 [0x1D] PRINT_EVENT_MESSAGE(message_id=8345*)
    → "$6, a hero's story! The deeds of %0, in all their gloryt"
 12: 0x0033 [0x23] WAIT_FOR_DIALOG_INTERACTION
 13: 0x0034 [0x1D] PRINT_EVENT_MESSAGE(message_id=8346*)
    → "A traveling bard walks far and near While wand'ring this celestial sphere From bustling towns to godforsaken lands. But none I love more than the swell Inhabitants of Vana'diel, Espec'lly when their gil comes to my hands.t"
 14: 0x0037 [0x23] WAIT_FOR_DIALOG_INTERACTION
 15: 0x0038 [0x1D] PRINT_EVENT_MESSAGE(message_id=8350*)
    → "I cannot weave a ballad fair Out of moonbeams and thin air.t"
 16: 0x003B [0x23] WAIT_FOR_DIALOG_INTERACTION
 17: 0x003C [0x20] SET_CLI_EVENT_UC_FLAG: Unlock player control
 18: 0x003E [0x21] END_EVENT
 19: 0x003F [0x00] END_REQSTACK()
```

### Event 15

#### Metadata

| Field        | Value      |
|--------------|------------|
| Entrypoint   | 0x0040     |
| Data Size    | 2126 bytes |
| Instructions | 354        |

```
      00 01 02 03 04 05 06 07  08 09 0A 0B 0C 0D 0E 0F
      -- -- -- -- -- -- -- --  -- -- -- -- -- -- -- --
0040: 1C 00 80 86 01 F8 FF FF  7F 1E F0 FF FF 7F 6F 70  ..............op
0050: 3E 08 10 00 80 64 00 3D  08 10 00 80 01 80 05 01  >....d.=........
0060: 17 01 67 00 06 01 17 06  00 00 3E 08 10 06 80 7B  ..g.......>....{
0070: 00 3D 08 10 06 80 01 80  01 82 00 3C 00 00 07 80  .=.........<....
0080: 01 80 B1 02 0A 00 02 0A  00 08 80 00 98 00 3D 00  ..............=.
0090: 00 09 80 01 80 01 9F 00  3C 00 00 09 80 01 80 02  ........<.......
00A0: 08 10 02 80 01 AB 00 1D  03 80 23 1D 04 80 23 1D  ..........#...#.
00B0: 0A 80 23 1D 0B 80 23 02  02 10 0C 80 00 C6 00 3C  ..#...#........<
00C0: 00 00 01 80 01 80 02 03  10 0C 80 00 D5 00 3C 00  ..............<.
00D0: 00 08 80 01 80 02 04 10  0C 80 00 E4 00 3C 00 00  .............<..
00E0: 0D 80 01 80 02 05 10 0C  80 00 F3 00 3C 00 00 0E  ............<...
00F0: 80 01 80 02 06 10 0C 80  00 02 01 3C 00 00 0F 80  ...........<....
0100: 01 80 02 07 10 0C 80 00  11 01 3C 00 00 10 80 01  ..........<.....
0110: 80 03 01 00 02 10 03 02  00 03 10 03 03 00 04 10  ................
0120: 03 04 00 05 10 03 05 00  06 10 03 06 00 07 10 03  ................
0130: 02 10 11 80 03 03 10 12  80 03 04 10 13 80 03 05  ................
0140: 10 14 80 03 06 10 15 80  03 07 10 16 80 24 17 80  .............$..
0150: 02 80 00 00 25 02 00 10  02 80 00 67 01 03 01 10  ....%......g....
0160: 18 80 21 00 01 1E 05 02  00 10 01 80 00 95 01 02  ..!.............
0170: 09 10 11 80 03 82 01 1D  05 80 23 03 01 10 18 80  ..........#.....
0180: 21 00 03 00 00 01 00 03  08 00 02 80 1A 56 05 1A  !............V..
0190: AE 05 01 1E 05 02 00 10  08 80 00 C3 01 02 09 10  ................
01A0: 12 80 03 B0 01 1D 05 80  23 03 01 10 18 80 21 00  ........#.....!.
01B0: 03 00 00 02 00 03 08 00  01 80 1A 56 05 1A 3B 06  ...........V..;.
01C0: 01 1E 05 02 00 10 0D 80  00 F1 01 02 09 10 13 80  ................
01D0: 03 DE 01 1D 05 80 23 03  01 10 18 80 21 00 03 00  ......#.....!...
01E0: 00 03 00 03 08 00 08 80  1A 56 05 1A C8 06 01 1E  .........V......
01F0: 05 02 00 10 0E 80 00 1F  02 02 09 10 14 80 03 0C  ................
0200: 02 1D 05 80 23 03 01 10  18 80 21 00 03 00 00 04  ....#.....!.....
0210: 00 03 08 00 0D 80 1A 56  05 1A 55 07 01 1E 05 02  .......V..U.....
0220: 00 10 0F 80 00 4D 02 02  09 10 15 80 03 3A 02 1D  .....M.......:..
0230: 05 80 23 03 01 10 18 80  21 00 03 00 00 05 00 03  ..#.....!.......
0240: 08 00 0E 80 1A 56 05 1A  DD 07 01 1E 05 02 00 10  .....V..........
0250: 10 80 00 7B 02 02 09 10  16 80 03 68 02 1D 05 80  ...{.......h....
0260: 23 03 01 10 18 80 21 00  03 00 00 06 00 03 08 00  #.....!.........
0270: 0F 80 1A 56 05 1A 60 08  01 1E 05 02 00 10 07 80  ...V..`.........
0280: 00 99 02 1D 19 80 23 1D  1A 80 23 1D 1B 80 23 03  ......#...#...#.
0290: 01 10 1C 80 21 00 01 1E  05 02 00 10 09 80 00 1E  ....!...........
02A0: 05 43 00 43 01 B1 02 0A  00 02 0A 00 08 80 00 B1  .C.C............
02B0: 03 03 0F 00 01 80 06 0B  00 02 0F 00 1D 80 05 DC  ................
02C0: 02 B1 04 0F 00 10 00 02  10 00 02 80 01 D6 02 3C  ...............<
02D0: 0B 00 0F 00 01 80 0B 0F  00 01 B9 02 06 0C 00 03  ................
02E0: 0F 00 1E 80 03 0E 00 08  80 02 0F 00 1F 80 05 0F  ................
02F0: 03 B1 04 0F 00 10 00 02  10 00 02 80 01 06 03 3C  ...............<
0300: 0C 00 0E 00 01 80 0B 0F  00 0B 0E 00 01 E9 02 03  ................
0310: 0F 00 20 80 03 0E 00 21  80 02 0F 00 22 80 05 3F  .. ....!...."..?
0320: 03 B1 04 0F 00 10 00 02  10 00 02 80 01 36 03 3C  .............6.<
0330: 0C 00 0E 00 01 80 0B 0F  00 0B 0E 00 01 19 03 03  ................
0340: 0F 00 23 80 03 0E 00 1E  80 02 0F 00 24 80 05 6F  ..#.........$..o
0350: 03 B1 04 0F 00 10 00 02  10 00 02 80 01 66 03 3C  .............f.<
0360: 0B 00 0E 00 01 80 0B 0F  00 0B 0E 00 01 49 03 06  .............I..
0370: 0D 00 03 0F 00 25 80 03  0E 00 01 80 02 0F 00 26  .....%.........&
0380: 80 05 A2 03 B1 04 0F 00  10 00 02 10 00 02 80 01  ................
0390: 99 03 3C 0D 00 0E 00 01  80 0B 0F 00 0B 0E 00 01  ..<.............
03A0: 7C 03 0E 02 10 0B 00 0E  03 10 0C 00 0E 04 10 0D  |...............
03B0: 00 02 02 10 0C 80 00 C3  03 3C 03 10 01 80 01 80  .........<......
03C0: 01 CA 03 3D 03 10 01 80  01 80 02 04 10 0C 80 00  ...=............
03D0: DC 03 3C 03 10 27 80 01  80 01 E3 03 3D 03 10 27  ..<..'......=..'
03E0: 80 01 80 02 02 10 0C 80  00 01 04 02 03 10 0C 80  ................
03F0: 00 01 04 02 04 10 0C 80  00 01 04 1D 28 80 23 21  ............(.#!
0400: 00 03 13 17 29 80 03 14  17 2A 80 03 15 17 2B 80  ....)....*....+.
0410: 03 16 17 2C 80 03 17 17  2D 80 03 18 17 2E 80 03  ...,....-.......
0420: 19 17 2F 80 03 1A 17 30  80 03 1B 17 31 80 03 1C  ../....0....1...
0430: 17 32 80 03 1D 17 33 80  03 1E 17 34 80 24 35 80  .2....3....4.$5.
0440: 02 80 03 10 25 02 00 10  02 80 00 57 04 03 01 10  ....%......W....
0450: 18 80 21 00 01 FA 04 02  00 10 01 80 00 91 04 24  ..!............$
0460: 36 80 02 80 02 10 25 02  00 10 02 80 00 79 04 03  6.....%......y..
0470: 01 10 18 80 21 00 01 79  04 03 0F 00 00 10 02 00  ....!..y........
0480: 10 1D 80 02 8B 04 07 0F  00 37 80 01 04 05 01 FA  .........7......
0490: 04 02 00 10 27 80 00 FA  04 03 00 17 38 80 03 01  ....'.......8...
04A0: 17 39 80 03 02 17 09 80  03 03 17 3A 80 03 04 17  .9.........:....
04B0: 3B 80 03 05 17 3C 80 03  06 17 3D 80 03 07 17 3E  ;....<....=....>
04C0: 80 03 08 17 3F 80 03 09  17 40 80 03 0A 17 41 80  ....?....@....A.
04D0: 24 42 80 02 80 04 10 25  02 00 10 02 80 00 EA 04  $B.....%........
04E0: 03 01 10 18 80 21 00 01  EA 04 03 0F 00 00 10 07  .....!..........
04F0: 0F 00 24 80 01 04 05 01  FA 04 03 0F 00 00 10 07  ..$.............
0500: 0F 00 43 80 B1 04 0F 00  10 00 02 10 00 02 80 00  ..C.............
0510: 19 05 B1 03 0F 00 01 A5  02 21 00 01 1E 05 24 44  .........!....$D
0520: 80 02 80 00 00 25 02 00  10 02 80 00 38 05 03 01  .....%......8...
0530: 10 18 80 21 00 01 38 05  03 07 00 00 10 03 01 10  ...!..8.........
0540: 08 00 10 01 10 09 80 07  01 10 07 00 1D 1A 80 23  ...............#
0550: 1D 1B 80 23 21 00 06 02  10 06 03 10 06 04 10 06  ...#!...........
0560: 05 10 06 06 10 06 07 10  06 08 10 06 09 10 06 00  ................
0570: 17 06 01 17 06 02 17 06  03 17 06 04 17 06 05 17  ................
0580: 06 06 17 06 07 17 06 08  17 06 09 17 06 0A 17 06  ................
0590: 0B 17 06 0C 17 06 0D 17  06 0E 17 06 0F 17 06 10  ................
05A0: 17 06 11 17 06 12 17 06  13 17 06 14 17 1B 03 03  ................
05B0: 10 45 80 03 04 10 46 80  03 05 10 47 80 03 06 10  .E....F....G....
05C0: 48 80 03 07 10 49 80 03  08 10 4A 80 03 09 10 4B  H....I....J....K
05D0: 80 03 00 17 4C 80 03 01  17 4D 80 03 02 17 4E 80  ....L....M....N.
05E0: 03 03 17 4F 80 03 04 17  50 80 03 05 17 51 80 03  ...O....P....Q..
05F0: 06 17 52 80 03 07 17 53  80 03 08 17 54 80 03 09  ..R....S....T...
0600: 17 55 80 03 0A 17 56 80  03 0B 17 57 80 03 0C 17  .U....V....W....
0610: 58 80 03 0D 17 59 80 03  0E 17 5A 80 03 0F 17 5B  X....Y....Z....[
0620: 80 03 10 17 5C 80 03 11  17 5D 80 03 12 17 5E 80  ....\....]....^.
0630: 03 13 17 5F 80 03 14 17  60 80 1B 03 03 10 61 80  ..._....`.....a.
0640: 03 04 10 62 80 03 05 10  63 80 03 06 10 64 80 03  ...b....c....d..
0650: 07 10 65 80 03 08 10 66  80 03 09 10 67 80 03 00  ..e....f....g...
0660: 17 68 80 03 01 17 69 80  03 02 17 6A 80 03 03 17  .h....i....j....
0670: 6B 80 03 04 17 6C 80 03  05 17 6D 80 03 06 17 6E  k....l....m....n
0680: 80 03 07 17 6F 80 03 08  17 70 80 03 09 17 71 80  ....o....p....q.
0690: 03 0A 17 72 80 03 0B 17  73 80 03 0C 17 74 80 03  ...r....s....t..
06A0: 0D 17 75 80 03 0E 17 76  80 03 0F 17 77 80 03 10  ..u....v....w...
06B0: 17 78 80 03 11 17 79 80  03 12 17 7A 80 03 13 17  .x....y....z....
06C0: 7B 80 03 14 17 7C 80 1B  03 03 10 7D 80 03 04 10  {....|.....}....
06D0: 7E 80 03 05 10 7F 80 03  06 10 80 80 03 07 10 81  ~...............
06E0: 80 03 08 10 82 80 03 09  10 83 80 03 00 17 84 80  ................
06F0: 03 01 17 85 80 03 02 17  86 80 03 03 17 87 80 03  ................
0700: 04 17 88 80 03 05 17 89  80 03 06 17 8A 80 03 07  ................
0710: 17 8B 80 03 08 17 8C 80  03 09 17 8D 80 03 0A 17  ................
0720: 8E 80 03 0B 17 8F 80 03  0C 17 90 80 03 0D 17 91  ................
0730: 80 03 0E 17 92 80 03 0F  17 93 80 03 10 17 94 80  ................
0740: 03 11 17 95 80 03 12 17  96 80 03 13 17 97 80 03  ................
0750: 14 17 98 80 1B 03 03 10  99 80 03 04 10 9A 80 03  ................
0760: 05 10 9B 80 03 06 10 9C  80 03 07 10 9D 80 03 08  ................
0770: 10 9E 80 03 09 10 9F 80  03 00 17 A0 80 03 01 17  ................
0780: A1 80 03 02 17 A2 80 03  03 17 A3 80 03 04 17 A4  ................
0790: 80 03 05 17 A5 80 03 06  17 A6 80 03 07 17 A7 80  ................
07A0: 03 08 17 A8 80 03 09 17  A9 80 03 0A 17 AA 80 03  ................
07B0: 0B 17 AB 80 03 0C 17 AC  80 03 0D 17 AD 80 03 0E  ................
07C0: 17 3E 80 03 0F 17 AE 80  03 10 17 AF 80 03 11 17  .>..............
07D0: B0 80 03 12 17 B1 80 03  13 17 B2 80 1B 03 03 10  ................
07E0: B3 80 03 04 10 B4 80 03  05 10 B5 80 03 06 10 B6  ................
07F0: 80 03 07 10 B7 80 03 08  10 B8 80 03 09 10 B9 80  ................
0800: 03 00 17 BA 80 03 01 17  BB 80 03 02 17 BC 80 03  ................
0810: 03 17 BD 80 03 04 17 BE  80 03 05 17 BF 80 03 06  ................
0820: 17 C0 80 03 07 17 C1 80  03 08 17 C2 80 03 09 17  ................
0830: C3 80 03 0A 17 C4 80 03  0B 17 C5 80 03 0C 17 C6  ................
0840: 80 03 0D 17 C7 80 03 0E  17 C8 80 03 0F 17 C9 80  ................
0850: 03 10 17 CA 80 03 11 17  CB 80 03 12 17 CC 80 1B  ................
0860: 03 03 10 CD 80 03 04 10  CE 80 03 05 10 CF 80 03  ................
0870: 06 10 D0 80 03 07 10 D1  80 03 08 10 D2 80 03 09  ................
0880: 10 D3 80 03 00 17 D4 80  03 01 17 D5 80 1B        ..............  
```

#### Opcodes

```
  0: 0x0040 [0x1C] WAIT(30* ticks)
  1: 0x0043 [0x86] EventEntity->Render.Flags3 ^= 0x01
  2: 0x0049 [0x1E] EventEntity looks at LocalPlayer and starts talking
  3: 0x004E [0x6F] WAIT_FRAME_DELAY: Yield until WaitTime reaches zero
  4: 0x004F [0x70] WAIT_ENTITY_RENDER_FLAG: Wait while EventEntity->Render.Flags3 bit 2 is set (cancel turn if not)
  5: 0x0050 [0x3E] IF !(Work_Zone[8] bit 30*) GOTO 0x0064
  6: 0x0057 [0x3D] CLEAR_BIT_FLAG_CONDITIONAL(target_work_offset=Work_Zone[8], bit_index_work_offset=30*, condition_work_offset=1*)
  7: 0x005E [0x05] Work_Zone_1700[1] = 1
  8: 0x0061 [0x01] GOTO 0x0067
  9: 0x0064 [0x06] Work_Zone_1700[1] = 0

SUBROUTINE_0067:
 10: 0x0067 [0x06] ExtData[1]->WorkLocal[0] = 0
 11: 0x006A [0x3E] IF !(Work_Zone[8] bit 31*) GOTO 0x007B
 12: 0x0071 [0x3D] CLEAR_BIT_FLAG_CONDITIONAL(target_work_offset=Work_Zone[8], bit_index_work_offset=31*, condition_work_offset=1*)
 13: 0x0078 [0x01] GOTO 0x0082
 14: 0x007B [0x3C] SET_BIT_FLAG_CONDITIONAL(target_work_offset=ExtData[1]->WorkLocal[0], bit_index_work_offset=7*, condition_work_offset=1*)

SUBROUTINE_0082:
 15: 0x0082 [0xB1] GET_APP_FLAG(flag_type=0x02, dest_offset=0x0A)
 16: 0x0086 [0x02] IF !(ExtData[1]->WorkLocal[10] == 2*) GOTO 0x0098
 17: 0x008E [0x3D] CLEAR_BIT_FLAG_CONDITIONAL(target_work_offset=ExtData[1]->WorkLocal[0], bit_index_work_offset=8*, condition_work_offset=1*)
 18: 0x0095 [0x01] GOTO 0x009F
 19: 0x0098 [0x3C] SET_BIT_FLAG_CONDITIONAL(target_work_offset=ExtData[1]->WorkLocal[0], bit_index_work_offset=8*, condition_work_offset=1*)

SUBROUTINE_009F:
 20: 0x009F [0x02] IF !(Work_Zone[8] == 0*) GOTO 0x00AB
 21: 0x00A7 [0x1D] PRINT_EVENT_MESSAGE(message_id=8345*)
    → "$6, a hero's story! The deeds of %0, in all their gloryt"
 22: 0x00AA [0x23] WAIT_FOR_DIALOG_INTERACTION
 23: 0x00AB [0x1D] PRINT_EVENT_MESSAGE(message_id=8346*)
    → "A traveling bard walks far and near While wand'ring this celestial sphere From bustling towns to godforsaken lands. But none I love more than the swell Inhabitants of Vana'diel, Espec'lly when their gil comes to my hands.t"
 24: 0x00AE [0x23] WAIT_FOR_DIALOG_INTERACTION
 25: 0x00AF [0x1D] PRINT_EVENT_MESSAGE(message_id=8347*)
    → "Pay me what you think I'm worth And songs of legend may spring forth.t"
 26: 0x00B2 [0x23] WAIT_FOR_DIALOG_INTERACTION
 27: 0x00B3 [0x1D] PRINT_EVENT_MESSAGE(message_id=8348*)
    → "Open your ears and take a ration Of my melodic cantillation.t"
 28: 0x00B6 [0x23] WAIT_FOR_DIALOG_INTERACTION
 29: 0x00B7 [0x02] IF !(Work_Zone[2] == 4294967294*) GOTO 0x00C6
 30: 0x00BF [0x3C] SET_BIT_FLAG_CONDITIONAL(target_work_offset=ExtData[1]->WorkLocal[0], bit_index_work_offset=1*, condition_work_offset=1*)
 31: 0x00C6 [0x02] IF !(Work_Zone[3] == 4294967294*) GOTO 0x00D5
 32: 0x00CE [0x3C] SET_BIT_FLAG_CONDITIONAL(target_work_offset=ExtData[1]->WorkLocal[0], bit_index_work_offset=2*, condition_work_offset=1*)
 33: 0x00D5 [0x02] IF !(Work_Zone[4] == 4294967294*) GOTO 0x00E4
 34: 0x00DD [0x3C] SET_BIT_FLAG_CONDITIONAL(target_work_offset=ExtData[1]->WorkLocal[0], bit_index_work_offset=3*, condition_work_offset=1*)
 35: 0x00E4 [0x02] IF !(Work_Zone[5] == 4294967294*) GOTO 0x00F3
 36: 0x00EC [0x3C] SET_BIT_FLAG_CONDITIONAL(target_work_offset=ExtData[1]->WorkLocal[0], bit_index_work_offset=4*, condition_work_offset=1*)
 37: 0x00F3 [0x02] IF !(Work_Zone[6] == 4294967294*) GOTO 0x0102
 38: 0x00FB [0x3C] SET_BIT_FLAG_CONDITIONAL(target_work_offset=ExtData[1]->WorkLocal[0], bit_index_work_offset=5*, condition_work_offset=1*)
 39: 0x0102 [0x02] IF !(Work_Zone[7] == 4294967294*) GOTO 0x0111
 40: 0x010A [0x3C] SET_BIT_FLAG_CONDITIONAL(target_work_offset=ExtData[1]->WorkLocal[0], bit_index_work_offset=6*, condition_work_offset=1*)
 41: 0x0111 [0x03] ExtData[1]->WorkLocal[1] = Work_Zone[2]
 42: 0x0116 [0x03] ExtData[1]->WorkLocal[2] = Work_Zone[3]
 43: 0x011B [0x03] ExtData[1]->WorkLocal[3] = Work_Zone[4]
 44: 0x0120 [0x03] ExtData[1]->WorkLocal[4] = Work_Zone[5]
 45: 0x0125 [0x03] ExtData[1]->WorkLocal[5] = Work_Zone[6]
 46: 0x012A [0x03] ExtData[1]->WorkLocal[6] = Work_Zone[7]
 47: 0x012F [0x03] Work_Zone[2] = 200*
 48: 0x0134 [0x03] Work_Zone[3] = 300*
 49: 0x0139 [0x03] Work_Zone[4] = 400*
 50: 0x013E [0x03] Work_Zone[5] = 500*
 51: 0x0143 [0x03] Work_Zone[6] = 600*
 52: 0x0148 [0x03] Work_Zone[7] = 700*
 53: 0x014D [0x24] CREATE_DIALOG(message_id=8349*, default_option=0*, option_flags=ExtData[1]->WorkLocal[0])
    → "How much will you give the bard? [Nothing./$0 gil./$1 gil./$2 gil./$3 gil./$4 gil./$5 gil./Let the bard decide your title./Unlock achievement.]"
 54: 0x0154 [0x25] WAIT_DIALOG_SELECT()
 55: 0x0155 [0x02] IF !(Work_Zone[0] == 0*) GOTO 0x0167
 56: 0x015D [0x03] Work_Zone[1] = 1073741824*
 57: 0x0162 [0x21] END_EVENT
 58: 0x0163 [0x00] END_REQSTACK()

SUBROUTINE_02A5:
 59: 0x02A5 [0xB1] GET_APP_FLAG(flag_type=0x02, dest_offset=0x0A)
 60: 0x02A9 [0x02] IF !(ExtData[1]->WorkLocal[10] == 2*) GOTO 0x03B1
 61: 0x02B1 [0x03] ExtData[1]->WorkLocal[15] = 1*
 62: 0x02B6 [0x06] ExtData[1]->WorkLocal[11] = 0
 63: 0x02B9 [0x02] IF !(ExtData[1]->WorkLocal[15] > 18*) GOTO 0x02DC
 64: 0x02C1 [0xB1] GET_APP_FLAG(flag_type=0x04, dest_offset=0x0F)
 65: 0x02C5 [0x10] 0x0200 <<= ExtData[1]->WorkLocal[16]
 66: 0x02CA [0x02] IF !(0x0180 UNKNOWN_COND_12 0x02D6) GOTO 0x000B
 67: 0x02D2 [0x0F] 0x0100 ^= 0x0B80
 68: 0x02D7 [0x0F] 0x0100 ^= 0x02B9
 69: 0x02DC [0x06] ExtData[1]->WorkLocal[12] = 0
 70: 0x02DF [0x03] ExtData[1]->WorkLocal[15] = 19*
 71: 0x02E4 [0x03] ExtData[1]->WorkLocal[14] = 2*

SUBROUTINE_02E9:
 72: 0x02E9 [0x02] IF !(ExtData[1]->WorkLocal[15] > 32*) GOTO 0x030F
 73: 0x02F1 [0xB1] GET_APP_FLAG(flag_type=0x04, dest_offset=0x0F)
 74: 0x02F5 [0x10] 0x0200 <<= ExtData[1]->WorkLocal[16]
 75: 0x02FA [0x02] IF !(0x0180 UNKNOWN_COND_12 0x0306) GOTO 0x000C
 76: 0x0302 [0x0E] 0x0100 |= 0x0B80
 77: 0x0307 [0x0F] 0x0B00 ^= ExtData[1]->WorkLocal[14]
 78: 0x030C [0x01] GOTO 0x02E9
 79: 0x030F [0x03] ExtData[1]->WorkLocal[15] = 33*
 80: 0x0314 [0x03] ExtData[1]->WorkLocal[14] = 16*

SUBROUTINE_0319:
 81: 0x0319 [0x02] IF !(ExtData[1]->WorkLocal[15] > 38*) GOTO 0x033F
 82: 0x0321 [0xB1] GET_APP_FLAG(flag_type=0x04, dest_offset=0x0F)
 83: 0x0325 [0x10] 0x0200 <<= ExtData[1]->WorkLocal[16]
 84: 0x032A [0x02] IF !(0x0180 UNKNOWN_COND_12 0x0336) GOTO 0x000C
 85: 0x0332 [0x0E] 0x0100 |= 0x0B80
 86: 0x0337 [0x0F] 0x0B00 ^= ExtData[1]->WorkLocal[14]
 87: 0x033C [0x01] GOTO 0x0319
 88: 0x033F [0x03] ExtData[1]->WorkLocal[15] = 39*
 89: 0x0344 [0x03] ExtData[1]->WorkLocal[14] = 19*

SUBROUTINE_0349:
 90: 0x0349 [0x02] IF !(ExtData[1]->WorkLocal[15] > 40*) GOTO 0x036F
 91: 0x0351 [0xB1] GET_APP_FLAG(flag_type=0x04, dest_offset=0x0F)
 92: 0x0355 [0x10] 0x0200 <<= ExtData[1]->WorkLocal[16]
 93: 0x035A [0x02] IF !(0x0180 UNKNOWN_COND_12 0x0366) GOTO 0x000B
 94: 0x0362 [0x0E] 0x0100 |= 0x0B80
 95: 0x0367 [0x0F] 0x0B00 ^= ExtData[1]->WorkLocal[14]
 96: 0x036C [0x01] GOTO 0x0349
 97: 0x036F [0x06] ExtData[1]->WorkLocal[13] = 0
 98: 0x0372 [0x03] ExtData[1]->WorkLocal[15] = 41*
 99: 0x0377 [0x03] ExtData[1]->WorkLocal[14] = 1*

SUBROUTINE_037C:
100: 0x037C [0x02] IF !(ExtData[1]->WorkLocal[15] > 57*) GOTO 0x03A2
101: 0x0384 [0xB1] GET_APP_FLAG(flag_type=0x04, dest_offset=0x0F)
102: 0x0388 [0x10] 0x0200 <<= ExtData[1]->WorkLocal[16]
103: 0x038D [0x02] IF !(0x0180 UNKNOWN_COND_12 0x0399) GOTO 0x000D
104: 0x0395 [0x0E] 0x0100 |= 0x0B80
105: 0x039A [0x0F] 0x0B00 ^= ExtData[1]->WorkLocal[14]
106: 0x039F [0x01] GOTO 0x037C
107: 0x03A2 [0x0E] Work_Zone[2] |= ExtData[1]->WorkLocal[11]
108: 0x03A7 [0x0E] Work_Zone[3] |= ExtData[1]->WorkLocal[12]
109: 0x03AC [0x0E] Work_Zone[4] |= ExtData[1]->WorkLocal[13]
110: 0x03B1 [0x02] IF !(Work_Zone[2] == 4294967294*) GOTO 0x03C3
111: 0x03B9 [0x3C] SET_BIT_FLAG_CONDITIONAL(target_work_offset=Work_Zone[3], bit_index_work_offset=1*, condition_work_offset=1*)
112: 0x03C0 [0x01] GOTO 0x03CA
113: 0x03C3 [0x3D] CLEAR_BIT_FLAG_CONDITIONAL(target_work_offset=Work_Zone[3], bit_index_work_offset=1*, condition_work_offset=1*)

SUBROUTINE_03CA:
114: 0x03CA [0x02] IF !(Work_Zone[4] == 4294967294*) GOTO 0x03DC
115: 0x03D2 [0x3C] SET_BIT_FLAG_CONDITIONAL(target_work_offset=Work_Zone[3], bit_index_work_offset=22*, condition_work_offset=1*)
116: 0x03D9 [0x01] GOTO 0x03E3
117: 0x03DC [0x3D] CLEAR_BIT_FLAG_CONDITIONAL(target_work_offset=Work_Zone[3], bit_index_work_offset=22*, condition_work_offset=1*)

SUBROUTINE_03E3:
118: 0x03E3 [0x02] IF !(Work_Zone[2] == 4294967294*) GOTO 0x0401
119: 0x03EB [0x02] IF !(Work_Zone[3] == 4294967294*) GOTO 0x0401
120: 0x03F3 [0x02] IF !(Work_Zone[4] == 4294967294*) GOTO 0x0401
121: 0x03FB [0x1D] PRINT_EVENT_MESSAGE(message_id=8360*)
    → "You have no achievements to unlock."
122: 0x03FE [0x23] WAIT_FOR_DIALOG_INTERACTION
123: 0x03FF [0x21] END_EVENT
124: 0x0400 [0x00] END_REQSTACK()
125: 0x0401 [0x03] Work_Zone_1700[19] = 422*
126: 0x0406 [0x03] Work_Zone_1700[20] = 378*
127: 0x040B [0x03] Work_Zone_1700[21] = 302*
128: 0x0410 [0x03] Work_Zone_1700[22] = 433*
129: 0x0415 [0x03] Work_Zone_1700[23] = 467*
130: 0x041A [0x03] Work_Zone_1700[24] = 468*
131: 0x041F [0x03] Work_Zone_1700[25] = 164*
132: 0x0424 [0x03] Work_Zone_1700[26] = 166*
133: 0x0429 [0x03] Work_Zone_1700[27] = 167*
134: 0x042E [0x03] Work_Zone_1700[28] = 168*
135: 0x0433 [0x03] Work_Zone_1700[29] = 169*
136: 0x0438 [0x03] Work_Zone_1700[30] = 411*
137: 0x043D [0x24] CREATE_DIALOG(message_id=8357*, default_option=0*, option_flags=Work_Zone[3])
    → "Unlock which achievement? [None./Job Level./Synthesis Skill 100./San d'Oria Rank 10./Bastok Rank 10./Windurst Rank 10./Zilart Missions./Promathia Missions./Aht Urhgan Missions./Mercenary Rank./$27./$28./$29./$30./$31./$32./$33./$34./$35./$36./$37./$38./View next page.]"
138: 0x0444 [0x25] WAIT_DIALOG_SELECT()
139: 0x0445 [0x02] IF !(Work_Zone[0] == 0*) GOTO 0x0457
140: 0x044D [0x03] Work_Zone[1] = 1073741824*
141: 0x0452 [0x21] END_EVENT
142: 0x0453 [0x00] END_REQSTACK()

SUBROUTINE_0479:
143: 0x0479 [0x03] ExtData[1]->WorkLocal[15] = Work_Zone[0]
144: 0x047E [0x02] IF !(Work_Zone[0] <= 18*) GOTO 0x048B
145: 0x0486 [0x07] ExtData[1]->WorkLocal[15] += 20*
146: 0x048B [0x01] GOTO 0x0504

SUBROUTINE_04EA:
147: 0x04EA [0x03] ExtData[1]->WorkLocal[15] = Work_Zone[0]
148: 0x04EF [0x07] ExtData[1]->WorkLocal[15] += 40*
149: 0x04F4 [0x01] GOTO 0x0504

SUBROUTINE_04FA:
150: 0x04FA [0x03] ExtData[1]->WorkLocal[15] = Work_Zone[0]
151: 0x04FF [0x07] ExtData[1]->WorkLocal[15] += 17*

SUBROUTINE_0504:
152: 0x0504 [0xB1] GET_APP_FLAG(flag_type=0x04, dest_offset=0x0F)
153: 0x0508 [0x10] 0x0200 <<= ExtData[1]->WorkLocal[16]
154: 0x050D [0x02] IF !(0x80 == 0x0519) GOTO 0x0F03
155: 0x0515 [0x00] END_REQSTACK()

SUBROUTINE_051E:
156: 0x051E [0x24] CREATE_DIALOG(message_id=8352*, default_option=0*, option_flags=ExtData[1]->WorkLocal[0])
    → "Which title do you return to? [None./$1./$2./$3./$4./$5./$6./$7./$8./$9./$10./$11./$12./$13./$14./$15./$16./$17./$18./$19./$20./$21./$22./$23./$24./$25./$26./$27./$28.]"
157: 0x0525 [0x25] WAIT_DIALOG_SELECT()
158: 0x0526 [0x02] IF !(Work_Zone[0] == 0*) GOTO 0x0538
159: 0x052E [0x03] Work_Zone[1] = 1073741824*
160: 0x0533 [0x21] END_EVENT
161: 0x0534 [0x00] END_REQSTACK()

SUBROUTINE_0538:
162: 0x0538 [0x03] ExtData[1]->WorkLocal[7] = Work_Zone[0]
163: 0x053D [0x03] Work_Zone[1] = ExtData[1]->WorkLocal[8]
164: 0x0542 [0x10] Work_Zone[1] <<= 8*
165: 0x0547 [0x07] Work_Zone[1] += ExtData[1]->WorkLocal[7]
166: 0x054C [0x1D] PRINT_EVENT_MESSAGE(message_id=8353*)
    → "I'll add you to my repertoire And sing of you! So, au revoir!t"
167: 0x054F [0x23] WAIT_FOR_DIALOG_INTERACTION
168: 0x0550 [0x1D] PRINT_EVENT_MESSAGE(message_id=8354*)
    → "The power of song, a mystical thing That comes forth only when you sing. A minstrel's job in life is never done. So sing a doodle-doodle-lay And be upon your merry way-- And check your title, too, oh worthy one.t"
169: 0x0553 [0x23] WAIT_FOR_DIALOG_INTERACTION
170: 0x0554 [0x21] END_EVENT
171: 0x0555 [0x00] END_REQSTACK()

SUBROUTINE_0556:
172: 0x0556 [0x06] Work_Zone[2] = 0
173: 0x0559 [0x06] Work_Zone[3] = 0
174: 0x055C [0x06] Work_Zone[4] = 0
175: 0x055F [0x06] Work_Zone[5] = 0
176: 0x0562 [0x06] Work_Zone[6] = 0
177: 0x0565 [0x06] Work_Zone[7] = 0
178: 0x0568 [0x06] Work_Zone[8] = 0
179: 0x056B [0x06] Work_Zone[9] = 0
180: 0x056E [0x06] Work_Zone_1700[0] = 0
181: 0x0571 [0x06] Work_Zone_1700[1] = 0
182: 0x0574 [0x06] Work_Zone_1700[2] = 0
183: 0x0577 [0x06] Work_Zone_1700[3] = 0
184: 0x057A [0x06] Work_Zone_1700[4] = 0
185: 0x057D [0x06] Work_Zone_1700[5] = 0
186: 0x0580 [0x06] Work_Zone_1700[6] = 0
187: 0x0583 [0x06] Work_Zone_1700[7] = 0
188: 0x0586 [0x06] Work_Zone_1700[8] = 0
189: 0x0589 [0x06] Work_Zone_1700[9] = 0
190: 0x058C [0x06] Work_Zone_1700[10] = 0
191: 0x058F [0x06] Work_Zone_1700[11] = 0
192: 0x0592 [0x06] Work_Zone_1700[12] = 0
193: 0x0595 [0x06] Work_Zone_1700[13] = 0
194: 0x0598 [0x06] Work_Zone_1700[14] = 0
195: 0x059B [0x06] Work_Zone_1700[15] = 0
196: 0x059E [0x06] Work_Zone_1700[16] = 0
197: 0x05A1 [0x06] Work_Zone_1700[17] = 0
198: 0x05A4 [0x06] Work_Zone_1700[18] = 0
199: 0x05A7 [0x06] Work_Zone_1700[19] = 0
200: 0x05AA [0x06] Work_Zone_1700[20] = 0
201: 0x05AD [0x1B] RETURN

SUBROUTINE_05AE:
202: 0x05AE [0x03] Work_Zone[3] = 836*
203: 0x05B3 [0x03] Work_Zone[4] = 837*
204: 0x05B8 [0x03] Work_Zone[5] = 838*
205: 0x05BD [0x03] Work_Zone[6] = 839*
206: 0x05C2 [0x03] Work_Zone[7] = 840*
207: 0x05C7 [0x03] Work_Zone[8] = 841*
208: 0x05CC [0x03] Work_Zone[9] = 842*
209: 0x05D1 [0x03] Work_Zone_1700[0] = 843*
210: 0x05D6 [0x03] Work_Zone_1700[1] = 848*
211: 0x05DB [0x03] Work_Zone_1700[2] = 850*
212: 0x05E0 [0x03] Work_Zone_1700[3] = 853*
213: 0x05E5 [0x03] Work_Zone_1700[4] = 854*
214: 0x05EA [0x03] Work_Zone_1700[5] = 855*
215: 0x05EF [0x03] Work_Zone_1700[6] = 856*
216: 0x05F4 [0x03] Work_Zone_1700[7] = 857*
217: 0x05F9 [0x03] Work_Zone_1700[8] = 862*
218: 0x05FE [0x03] Work_Zone_1700[9] = 867*
219: 0x0603 [0x03] Work_Zone_1700[10] = 872*
220: 0x0608 [0x03] Work_Zone_1700[11] = 877*
221: 0x060D [0x03] Work_Zone_1700[12] = 882*
222: 0x0612 [0x03] Work_Zone_1700[13] = 888*
223: 0x0617 [0x03] Work_Zone_1700[14] = 887*
224: 0x061C [0x03] Work_Zone_1700[15] = 849*
225: 0x0621 [0x03] Work_Zone_1700[16] = 892*
226: 0x0626 [0x03] Work_Zone_1700[17] = 893*
227: 0x062B [0x03] Work_Zone_1700[18] = 897*
228: 0x0630 [0x03] Work_Zone_1700[19] = 898*
229: 0x0635 [0x03] Work_Zone_1700[20] = 899*
230: 0x063A [0x1B] RETURN

SUBROUTINE_063B:
231: 0x063B [0x03] Work_Zone[3] = 858*
232: 0x0640 [0x03] Work_Zone[4] = 863*
233: 0x0645 [0x03] Work_Zone[5] = 868*
234: 0x064A [0x03] Work_Zone[6] = 873*
235: 0x064F [0x03] Work_Zone[7] = 878*
236: 0x0654 [0x03] Work_Zone[8] = 883*
237: 0x0659 [0x03] Work_Zone[9] = 889*
238: 0x065E [0x03] Work_Zone_1700[0] = 890*
239: 0x0663 [0x03] Work_Zone_1700[1] = 891*
240: 0x0668 [0x03] Work_Zone_1700[2] = 902*
241: 0x066D [0x03] Work_Zone_1700[3] = 903*
242: 0x0672 [0x03] Work_Zone_1700[4] = 904*
243: 0x0677 [0x03] Work_Zone_1700[5] = 905*
244: 0x067C [0x03] Work_Zone_1700[6] = 895*
245: 0x0681 [0x03] Work_Zone_1700[7] = 896*
246: 0x0686 [0x03] Work_Zone_1700[8] = 906*
247: 0x068B [0x03] Work_Zone_1700[9] = 908*
248: 0x0690 [0x03] Work_Zone_1700[10] = 913*
249: 0x0695 [0x03] Work_Zone_1700[11] = 918*
250: 0x069A [0x03] Work_Zone_1700[12] = 919*
251: 0x069F [0x03] Work_Zone_1700[13] = 922*
252: 0x06A4 [0x03] Work_Zone_1700[14] = 923*
253: 0x06A9 [0x03] Work_Zone_1700[15] = 924*
254: 0x06AE [0x03] Work_Zone_1700[16] = 925*
255: 0x06B3 [0x03] Work_Zone_1700[17] = 926*
256: 0x06B8 [0x03] Work_Zone_1700[18] = 935*
257: 0x06BD [0x03] Work_Zone_1700[19] = 972*
258: 0x06C2 [0x03] Work_Zone_1700[20] = 974*
259: 0x06C7 [0x1B] RETURN

SUBROUTINE_06C8:
260: 0x06C8 [0x03] Work_Zone[3] = 859*
261: 0x06CD [0x03] Work_Zone[4] = 864*
262: 0x06D2 [0x03] Work_Zone[5] = 869*
263: 0x06D7 [0x03] Work_Zone[6] = 874*
264: 0x06DC [0x03] Work_Zone[7] = 879*
265: 0x06E1 [0x03] Work_Zone[8] = 884*
266: 0x06E6 [0x03] Work_Zone[9] = 909*
267: 0x06EB [0x03] Work_Zone_1700[0] = 914*
268: 0x06F0 [0x03] Work_Zone_1700[1] = 920*
269: 0x06F5 [0x03] Work_Zone_1700[2] = 807*
270: 0x06FA [0x03] Work_Zone_1700[3] = 927*
271: 0x06FF [0x03] Work_Zone_1700[4] = 928*
272: 0x0704 [0x03] Work_Zone_1700[5] = 929*
273: 0x0709 [0x03] Work_Zone_1700[6] = 930*
274: 0x070E [0x03] Work_Zone_1700[7] = 931*
275: 0x0713 [0x03] Work_Zone_1700[8] = 932*
276: 0x0718 [0x03] Work_Zone_1700[9] = 933*
277: 0x071D [0x03] Work_Zone_1700[10] = 934*
278: 0x0722 [0x03] Work_Zone_1700[11] = 936*
279: 0x0727 [0x03] Work_Zone_1700[12] = 937*
280: 0x072C [0x03] Work_Zone_1700[13] = 939*
281: 0x0731 [0x03] Work_Zone_1700[14] = 979*
282: 0x0736 [0x03] Work_Zone_1700[15] = 1044*
283: 0x073B [0x03] Work_Zone_1700[16] = 1045*
284: 0x0740 [0x03] Work_Zone_1700[17] = 1117*
285: 0x0745 [0x03] Work_Zone_1700[18] = 1118*
286: 0x074A [0x03] Work_Zone_1700[19] = 1119*
287: 0x074F [0x03] Work_Zone_1700[20] = 1128*
288: 0x0754 [0x1B] RETURN

SUBROUTINE_0755:
289: 0x0755 [0x03] Work_Zone[3] = 756*
290: 0x075A [0x03] Work_Zone[4] = 757*
291: 0x075F [0x03] Work_Zone[5] = 761*
292: 0x0764 [0x03] Work_Zone[6] = 762*
293: 0x0769 [0x03] Work_Zone[7] = 763*
294: 0x076E [0x03] Work_Zone[8] = 846*
295: 0x0773 [0x03] Work_Zone[9] = 847*
296: 0x0778 [0x03] Work_Zone_1700[0] = 764*
297: 0x077D [0x03] Work_Zone_1700[1] = 860*
298: 0x0782 [0x03] Work_Zone_1700[2] = 865*
299: 0x0787 [0x03] Work_Zone_1700[3] = 870*
300: 0x078C [0x03] Work_Zone_1700[4] = 875*
301: 0x0791 [0x03] Work_Zone_1700[5] = 880*
302: 0x0796 [0x03] Work_Zone_1700[6] = 885*
303: 0x079B [0x03] Work_Zone_1700[7] = 765*
304: 0x07A0 [0x03] Work_Zone_1700[8] = 766*
305: 0x07A5 [0x03] Work_Zone_1700[9] = 767*
306: 0x07AA [0x03] Work_Zone_1700[10] = 768*
307: 0x07AF [0x03] Work_Zone_1700[11] = 769*
308: 0x07B4 [0x03] Work_Zone_1700[12] = 783*
309: 0x07B9 [0x03] Work_Zone_1700[13] = 793*
310: 0x07BE [0x03] Work_Zone_1700[14] = 910*
311: 0x07C3 [0x03] Work_Zone_1700[15] = 915*
312: 0x07C8 [0x03] Work_Zone_1700[16] = 921*
313: 0x07CD [0x03] Work_Zone_1700[17] = 802*
314: 0x07D2 [0x03] Work_Zone_1700[18] = 808*
315: 0x07D7 [0x03] Work_Zone_1700[19] = 980*
316: 0x07DC [0x1B] RETURN

SUBROUTINE_07DD:
317: 0x07DD [0x03] Work_Zone[3] = 758*
318: 0x07E2 [0x03] Work_Zone[4] = 759*
319: 0x07E7 [0x03] Work_Zone[5] = 760*
320: 0x07EC [0x03] Work_Zone[6] = 851*
321: 0x07F1 [0x03] Work_Zone[7] = 852*
322: 0x07F6 [0x03] Work_Zone[8] = 861*
323: 0x07FB [0x03] Work_Zone[9] = 866*
324: 0x0800 [0x03] Work_Zone_1700[0] = 871*
325: 0x0805 [0x03] Work_Zone_1700[1] = 876*
326: 0x080A [0x03] Work_Zone_1700[2] = 881*
327: 0x080F [0x03] Work_Zone_1700[3] = 886*
328: 0x0814 [0x03] Work_Zone_1700[4] = 794*
329: 0x0819 [0x03] Work_Zone_1700[5] = 795*
330: 0x081E [0x03] Work_Zone_1700[6] = 796*
331: 0x0823 [0x03] Work_Zone_1700[7] = 911*
332: 0x0828 [0x03] Work_Zone_1700[8] = 916*
333: 0x082D [0x03] Work_Zone_1700[9] = 803*
334: 0x0832 [0x03] Work_Zone_1700[10] = 809*
335: 0x0837 [0x03] Work_Zone_1700[11] = 831*
336: 0x083C [0x03] Work_Zone_1700[12] = 828*
337: 0x0841 [0x03] Work_Zone_1700[13] = 829*
338: 0x0846 [0x03] Work_Zone_1700[14] = 830*
339: 0x084B [0x03] Work_Zone_1700[15] = 832*
340: 0x0850 [0x03] Work_Zone_1700[16] = 833*
341: 0x0855 [0x03] Work_Zone_1700[17] = 1144*
342: 0x085A [0x03] Work_Zone_1700[18] = 1145*
343: 0x085F [0x1B] RETURN

SUBROUTINE_0860:
344: 0x0860 [0x03] Work_Zone[3] = 912*
345: 0x0865 [0x03] Work_Zone[4] = 917*
346: 0x086A [0x03] Work_Zone[5] = 948*
347: 0x086F [0x03] Work_Zone[6] = 1069*
348: 0x0874 [0x03] Work_Zone[7] = 1070*
349: 0x0879 [0x03] Work_Zone[8] = 1071*
350: 0x087E [0x03] Work_Zone[9] = 1072*
351: 0x0883 [0x03] Work_Zone_1700[0] = 1073*
352: 0x0888 [0x03] Work_Zone_1700[1] = 1075*
353: 0x088D [0x1B] RETURN
```

#### Data or dead code:

```
# Dead code (unreachable instructions):
     0x0164 [0x01] GOTO 0x051E
     0x0296 [0x01] GOTO 0x051E
# Dead code (unreachable instructions):
     0x0454 [0x01] GOTO 0x04FA
     0x0476 [0x01] GOTO 0x0479
# Dead code (unreachable instructions):
     0x048E [0x01] GOTO 0x04FA
     0x04E7 [0x01] GOTO 0x04EA
# Dead code (unreachable instructions):
     0x04F7 [0x01] GOTO 0x04FA
# Dead code (unreachable instructions):
     0x0516 [0x01] GOTO 0x02A5
     0x0519 [0x21] END_EVENT
     0x051A [0x00] END_REQSTACK()
     0x051B [0x01] GOTO 0x051E
# Dead code (unreachable instructions):
     0x0535 [0x01] GOTO 0x0538
```

### Event 89

#### Metadata

| Field        | Value   |
|--------------|---------|
| Entrypoint   | 0x088E  |
| Data Size    | 1 bytes |
| Instructions | 1       |

```
      00 01 02 03 04 05 06 07  08 09 0A 0B 0C 0D 0E 0F
      -- -- -- -- -- -- -- --  -- -- -- -- -- -- -- --
0880:                                            00                   . 
```

#### Opcodes

```
  0: 0x088E [0x00] END_REQSTACK()
```

### Event 93

#### Metadata

| Field        | Value   |
|--------------|---------|
| Entrypoint   | 0x088F  |
| Data Size    | 1 bytes |
| Instructions | 1       |

```
      00 01 02 03 04 05 06 07  08 09 0A 0B 0C 0D 0E 0F
      -- -- -- -- -- -- -- --  -- -- -- -- -- -- -- --
0880:                                               00                 .
```

#### Opcodes

```
  0: 0x088F [0x00] END_REQSTACK()
```

### Event 94

#### Metadata

| Field        | Value   |
|--------------|---------|
| Entrypoint   | 0x0890  |
| Data Size    | 1 bytes |
| Instructions | 1       |

```
      00 01 02 03 04 05 06 07  08 09 0A 0B 0C 0D 0E 0F
      -- -- -- -- -- -- -- --  -- -- -- -- -- -- -- --
0890: 00                                                .               
```

#### Opcodes

```
  0: 0x0890 [0x00] END_REQSTACK()
```

### Event 95

#### Metadata

| Field        | Value   |
|--------------|---------|
| Entrypoint   | 0x0891  |
| Data Size    | 1 bytes |
| Instructions | 1       |

```
      00 01 02 03 04 05 06 07  08 09 0A 0B 0C 0D 0E 0F
      -- -- -- -- -- -- -- --  -- -- -- -- -- -- -- --
0890:    00                                              .              
```

#### Opcodes

```
  0: 0x0891 [0x00] END_REQSTACK()
```

### Event 96

#### Metadata

| Field        | Value   |
|--------------|---------|
| Entrypoint   | 0x0892  |
| Data Size    | 1 bytes |
| Instructions | 1       |

```
      00 01 02 03 04 05 06 07  08 09 0A 0B 0C 0D 0E 0F
      -- -- -- -- -- -- -- --  -- -- -- -- -- -- -- --
0890:       00                                            .             
```

#### Opcodes

```
  0: 0x0892 [0x00] END_REQSTACK()
```

### Event 97

#### Metadata

| Field        | Value   |
|--------------|---------|
| Entrypoint   | 0x0893  |
| Data Size    | 1 bytes |
| Instructions | 1       |

```
      00 01 02 03 04 05 06 07  08 09 0A 0B 0C 0D 0E 0F
      -- -- -- -- -- -- -- --  -- -- -- -- -- -- -- --
0890:          00                                          .            
```

#### Opcodes

```
  0: 0x0893 [0x00] END_REQSTACK()
```

### Event 172

#### Metadata

| Field        | Value   |
|--------------|---------|
| Entrypoint   | 0x0894  |
| Data Size    | 7 bytes |
| Instructions | 3       |

```
      00 01 02 03 04 05 06 07  08 09 0A 0B 0C 0D 0E 0F
      -- -- -- -- -- -- -- --  -- -- -- -- -- -- -- --
0890:             AB 03 AC 01  D6 80 00                     .......     
```

#### Opcodes

```
  0: 0x0894 [0xAB] EventEntity->Render.Flags0 ^= 0x20000 // Toggle bit 17
  1: 0x0896 [0xAC] EventEntity->StatusEvent = 34*
  2: 0x089A [0x00] END_REQSTACK()
```
