# 17826113 - Gaddiux

## Common Data

| Field            | Value                     |
|------------------|---------------------------|
| Zone             | Western Adoulin (ID: 256) |
| Block Size       | 1800 bytes                |
| Total Events     | 21                        |
| References Count | 73                        |

## List of Events

| Event ID                 | Entrypoint   |   Size |   Instructions |
|--------------------------|--------------|--------|----------------|
| [65535](#event-65535)    | 0x0000       |      1 |              1 |
| [107](#event-107)        | 0x0001       |      1 |              1 |
| [108](#event-108)        | 0x0002       |      1 |              1 |
| [119](#event-119)        | 0x0003       |      1 |              1 |
| [120](#event-120)        | 0x0004       |      1 |              1 |
| [121](#event-121)        | 0x0005       |      1 |              1 |
| [122](#event-122)        | 0x0006       |      1 |              1 |
| [65535.1](#event-655351) | 0x0007       |     14 |              4 |
| [65535.2](#event-655352) | 0x0015       |     14 |              4 |
| [65535.3](#event-655353) | 0x0023       |     14 |              4 |
| [5112](#event-5112)      | 0x0031       |    344 |             56 |
| [5113](#event-5113)      | 0x0189       |     98 |             18 |
| [5114](#event-5114)      | 0x01EB       |    122 |             26 |
| [5115](#event-5115)      | 0x0265       |     37 |             11 |
| [5116](#event-5116)      | 0x028A       |      1 |              1 |
| [5117](#event-5117)      | 0x028B       |     33 |              9 |
| [5200](#event-5200)      | 0x02AC       |      7 |              2 |
| [5119](#event-5119)      | 0x02B3       |    339 |             72 |
| [5120](#event-5120)      | 0x0406       |    232 |             56 |
| [5121](#event-5121)      | 0x04EE       |    142 |             37 |
| [5122](#event-5122)      | 0x057C       |      1 |              1 |

## DAT References (imed_data)

|   Index | Hex Value   |   Dec Value |
|---------|-------------|-------------|
|       0 | 0x000D      |          13 |
|       1 | 0x131EF     |       78319 |
|       2 | 0xFFFF04BC  |  4294902972 |
|       3 | 0xFFFFFF6C  |  4294967148 |
|       4 | 0x125F2     |       75250 |
|       5 | 0xFFFEF9E2  |  4294900194 |
|       6 | 0x0000      |           0 |
|       7 | 0x15F13     |       89875 |
|       8 | 0xFFFF0DA9  |  4294905257 |
|       9 | 0xFFFFFD77  |  4294966647 |
|      10 | 0x0095      |         149 |
|      11 | 0x2D45      |       11589 |
|      12 | 0x2D46      |       11590 |
|      13 | 0x0009      |           9 |
|      14 | 0x2D47      |       11591 |
|      15 | 0x0A0A      |        2570 |
|      16 | 0x2D48      |       11592 |
|      17 | 0x2D49      |       11593 |
|      18 | 0x2D4C      |       11596 |
|      19 | 0x2D4D      |       11597 |
|      20 | 0x025D      |         605 |
|      21 | 0x2D4E      |       11598 |
|      22 | 0x0001      |           1 |
|      23 | 0x2D4A      |       11594 |
|      24 | 0x2D4B      |       11595 |
|      25 | 0x0007      |           7 |
|      26 | 0x2D4F      |       11599 |
|      27 | 0x005A      |          90 |
|      28 | 0x2D50      |       11600 |
|      29 | 0x2D51      |       11601 |
|      30 | 0x2D52      |       11602 |
|      31 | 0x0006      |           6 |
|      32 | 0x0020      |          32 |
|      33 | 0x2D62      |       11618 |
|      34 | 0x2D72      |       11634 |
|      35 | 0x000A      |          10 |
|      36 | 0x003C      |          60 |
|      37 | 0x2D6B      |       11627 |
|      38 | 0x2D6C      |       11628 |
|      39 | 0x002D      |          45 |
|      40 | 0x2D6D      |       11629 |
|      41 | 0x2D6E      |       11630 |
|      42 | 0x2D6F      |       11631 |
|      43 | 0x2D70      |       11632 |
|      44 | 0x2D73      |       11635 |
|      45 | 0x0013      |          19 |
|      46 | 0x0032      |          50 |
|      47 | 0x2D71      |       11633 |
|      48 | 0x2D74      |       11636 |
|      49 | 0x2D75      |       11637 |
|      50 | 0x2D76      |       11638 |
|      51 | 0x2D77      |       11639 |
|      52 | 0x2D7D      |       11645 |
|      53 | 0x510D      |       20749 |
|      54 | 0x2D7E      |       11646 |
|      55 | 0x2D7F      |       11647 |
|      56 | 0x2D80      |       11648 |
|      57 | 0x2D81      |       11649 |
|      58 | 0x0002      |           2 |
|      59 | 0x0026      |          38 |
|      60 | 0x2D82      |       11650 |
|      61 | 0x2D83      |       11651 |
|      62 | 0x2D85      |       11653 |
|      63 | 0x2D86      |       11654 |
|      64 | 0x2D84      |       11652 |
|      65 | 0x2D79      |       11641 |
|      66 | 0x000B      |          11 |
|      67 | 0x2D7A      |       11642 |
|      68 | 0x0003      |           3 |
|      69 | 0x000C      |          12 |
|      70 | 0x2D7B      |       11643 |
|      71 | 0x2D78      |       11640 |
|      72 | 0x2D7C      |       11644 |

## String References

- **11589**: Hmmm... Quite the quandary, this is...
- **11590**: Wait, aren't you that rune fencer whom I can never quite seem to remember? What brings you to the Inventors' Coalition?
- **11591**: Well, if that's the case, I'm having trouble with this runic caliper here. Every time I try to open it, the thing screeches like a dying umbril and refuses to budge!
- **11592**: I want to fix it, but I don't have any of the $5 used in making its ethereal lubricant. What a pain it's going to be to find them...
- **11593**: Have anything to say? [Should I get some for you?/Have fun with that.]
- **11594**: It may be presumptuous of me, but I'm swamped with repair orders! I've no time to venture into the wilds, risking life and limb for an ingredient.
- **11595**: Please, think of the coalition!
- **11596**: You've truly brightened me day. It's so comforting to know that there are still kind souls on this harsh frontier.
- **11597**: Now, I've never heard of a lone $3, but you can probably find them packed into clumps within Yorcia Weald.
- **11598**: Maybe the Scouts' Coalition can "dig up some dirt" with just their eyes and ears, but I think you'll be needing $1 or two for this job.
- **11599**: Splendid! Your selfless act is duly noted, fair pioneer.
- **11600**: Yes, this is exactly what the inventor ordered! No terrifying screams, and look how it opens! This baby's smoother than a merchant's tongue!
- **11601**: Who knows, I might actually get that thing back to Runje Desaali before she skins my hide.
- **11602**: She's nice enough outside of work, but don't ever get on her bad side when doing business with her. You'll likely end up sleeping with the orobons off the waterfront.
- **11618**: I'm happy for your accomplishment and all, but how am I supposed to measure runic equipment without a caliper?
- **11627**: Innovations that are fun for the whole family, safe and reliable services, and not a hint of--hm?
- **11628**: Wait, you're...c'mon, I know I can get it this time...<Player>?
- **11629**: I heard you've matured into quite the rune fencer.
- **11630**: ...Exactly the type who could complete this assignment, I'd say.
- **11631**: We desperately need your finely honed skills to test the durability of this greatsword here. Sounds like the opportunity of a lifetime, right?
- **11632**: How does it sound? [Good enough. Yay, science!/Stupid, that's how.]
- **11633**: Oh... In hindsight, I guess it kind of does. You might be too renowned for this type of thing, but your cooperation would still be appreciated.
- **11634**: I suppose you've taken time to think my offer over. So, how does flailing around a greatsword sound now?
- **11635**: It's always good to meet someone with a burning passion for discovery.
- **11636**: What makes this especially intriguing for aficionados of experimentation is that this sword has been altered to record data regarding usage.
- **11637**: We really outdid ourselves with it. The device we forged into this weapon can accurately measure the bearer's swings down to a thousandth of an ilm.
- **11638**: With such an awe-inspiring revision, I'd be amazed if something didn't happen by employing weapon skills while using it. You can never tell what sort of gore will ensue with them normally, so this should really be a feast for the eyes.
- **11639**: All I can say is that I'll need it back after you've unleashed your weapon skills a number of times that I deem sufficient.
- **11640**: Oh boy, oh boy, oh boy, I can't wait to--hey, it says you haven't even used it once!
- **11641**: Hmmm... If I look really hard, I think I can see some space between the needle and the baseline.
- **11642**: I see, I see... That's smack-dab in the middle of the meter, I'd say.
- **11643**: Ohohoho! You're extremely close. It's almost as if the needle's about to fly off the gauge, so palpable is the tension.
- **11644**: If Amchuchu's hypothesis is correct, just keep swinging away and you'll eventually get there. Don't lose hope.
- **11645**: How's the experiment going? Does it measure up to your expectations? Heh heh.
- **11646**: Anything to say? [No issues here./I lost my $0./I've had enough of this.]
- **11647**: What!? How could you!?
- **11648**: Luckily, we also live by the words "Always be prepared." Use this one instead.
- **11649**: We're not miracle workers, though. We can't recover any of the information stored on the old device, so you'll have to start over from scratch.
- **11650**: Don't be too hasty now! All the results you've archived will be struck from the record if you give up! Doesn't that bother you in the least?
- **11651**: Does it bother you? [No, I'm through./Yes, let me think on it.]
- **11652**: Phew...I had little pools of sweat welling up from my hands when you told me you were out.
- **11653**: ...If that's how you're going to be, there's little I can do. Hopefully we'll find an intrepid soul who wishes to see the whole thing to fruition.
- **11654**: Oh, that's right. You can dispose of that $0 if you want. It's basically worthless now.

## Events

### Event 65535

#### Metadata

| Field        | Value   |
|--------------|---------|
| Entrypoint   | 0x0000  |
| Data Size    | 1 bytes |
| Instructions | 1       |

```
      00 01 02 03 04 05 06 07  08 09 0A 0B 0C 0D 0E 0F
      -- -- -- -- -- -- -- --  -- -- -- -- -- -- -- --
0000: 00                                                .               
```

#### Opcodes

```
  0: 0x0000 [0x00] END_REQSTACK()
```

### Event 107

#### Metadata

| Field        | Value   |
|--------------|---------|
| Entrypoint   | 0x0001  |
| Data Size    | 1 bytes |
| Instructions | 1       |

```
      00 01 02 03 04 05 06 07  08 09 0A 0B 0C 0D 0E 0F
      -- -- -- -- -- -- -- --  -- -- -- -- -- -- -- --
0000:    00                                              .              
```

#### Opcodes

```
  0: 0x0001 [0x00] END_REQSTACK()
```

### Event 108

#### Metadata

| Field        | Value   |
|--------------|---------|
| Entrypoint   | 0x0002  |
| Data Size    | 1 bytes |
| Instructions | 1       |

```
      00 01 02 03 04 05 06 07  08 09 0A 0B 0C 0D 0E 0F
      -- -- -- -- -- -- -- --  -- -- -- -- -- -- -- --
0000:       00                                            .             
```

#### Opcodes

```
  0: 0x0002 [0x00] END_REQSTACK()
```

### Event 119

#### Metadata

| Field        | Value   |
|--------------|---------|
| Entrypoint   | 0x0003  |
| Data Size    | 1 bytes |
| Instructions | 1       |

```
      00 01 02 03 04 05 06 07  08 09 0A 0B 0C 0D 0E 0F
      -- -- -- -- -- -- -- --  -- -- -- -- -- -- -- --
0000:          00                                          .            
```

#### Opcodes

```
  0: 0x0003 [0x00] END_REQSTACK()
```

### Event 120

#### Metadata

| Field        | Value   |
|--------------|---------|
| Entrypoint   | 0x0004  |
| Data Size    | 1 bytes |
| Instructions | 1       |

```
      00 01 02 03 04 05 06 07  08 09 0A 0B 0C 0D 0E 0F
      -- -- -- -- -- -- -- --  -- -- -- -- -- -- -- --
0000:             00                                        .           
```

#### Opcodes

```
  0: 0x0004 [0x00] END_REQSTACK()
```

### Event 121

#### Metadata

| Field        | Value   |
|--------------|---------|
| Entrypoint   | 0x0005  |
| Data Size    | 1 bytes |
| Instructions | 1       |

```
      00 01 02 03 04 05 06 07  08 09 0A 0B 0C 0D 0E 0F
      -- -- -- -- -- -- -- --  -- -- -- -- -- -- -- --
0000:                00                                      .          
```

#### Opcodes

```
  0: 0x0005 [0x00] END_REQSTACK()
```

### Event 122

#### Metadata

| Field        | Value   |
|--------------|---------|
| Entrypoint   | 0x0006  |
| Data Size    | 1 bytes |
| Instructions | 1       |

```
      00 01 02 03 04 05 06 07  08 09 0A 0B 0C 0D 0E 0F
      -- -- -- -- -- -- -- --  -- -- -- -- -- -- -- --
0000:                   00                                    .         
```

#### Opcodes

```
  0: 0x0006 [0x00] END_REQSTACK()
```

### Event 65535.1

#### Metadata

| Field        | Value    |
|--------------|----------|
| Entrypoint   | 0x0007   |
| Data Size    | 14 bytes |
| Instructions | 4        |

```
      00 01 02 03 04 05 06 07  08 09 0A 0B 0C 0D 0E 0F
      -- -- -- -- -- -- -- --  -- -- -- -- -- -- -- --
0000:                      32  00 80 1F 00 01 80 02 80         2........
0010: 03 80 1F 01 00                                    .....           
```

#### Opcodes

```
  0: 0x0007 [0x32] ExtData[1]->MainSpeed = 13* * 0.1
  1: 0x000A [0x1F] MOVE_ENTITY: EventEntity moves to X=78.319*, Z=-64.324*, Y=-0.148*
  2: 0x0012 [0x1F] MOVE_ENTITY: Update entity position (mode=1)
  3: 0x0014 [0x00] END_REQSTACK()
```

### Event 65535.2

#### Metadata

| Field        | Value    |
|--------------|----------|
| Entrypoint   | 0x0015   |
| Data Size    | 14 bytes |
| Instructions | 4        |

```
      00 01 02 03 04 05 06 07  08 09 0A 0B 0C 0D 0E 0F
      -- -- -- -- -- -- -- --  -- -- -- -- -- -- -- --
0010:                32 00 80  1F 00 04 80 05 80 06 80       2..........
0020: 1F 01 00                                          ...             
```

#### Opcodes

```
  0: 0x0015 [0x32] ExtData[1]->MainSpeed = 13* * 0.1
  1: 0x0018 [0x1F] MOVE_ENTITY: EventEntity moves to X=75.250*, Z=-67.102*, Y=0.000*
  2: 0x0020 [0x1F] MOVE_ENTITY: Update entity position (mode=1)
  3: 0x0022 [0x00] END_REQSTACK()
```

### Event 65535.3

#### Metadata

| Field        | Value    |
|--------------|----------|
| Entrypoint   | 0x0023   |
| Data Size    | 14 bytes |
| Instructions | 4        |

```
      00 01 02 03 04 05 06 07  08 09 0A 0B 0C 0D 0E 0F
      -- -- -- -- -- -- -- --  -- -- -- -- -- -- -- --
0020:          32 00 80 1F 00  07 80 08 80 09 80 1F 01     2............
0030: 00                                                .               
```

#### Opcodes

```
  0: 0x0023 [0x32] ExtData[1]->MainSpeed = 13* * 0.1
  1: 0x0026 [0x1F] MOVE_ENTITY: EventEntity moves to X=89.875*, Z=-62.039*, Y=-0.649*
  2: 0x002E [0x1F] MOVE_ENTITY: Update entity position (mode=1)
  3: 0x0030 [0x00] END_REQSTACK()
```

### Event 5112

#### Metadata

| Field        | Value     |
|--------------|-----------|
| Entrypoint   | 0x0031    |
| Data Size    | 344 bytes |
| Instructions | 56        |

```
      00 01 02 03 04 05 06 07  08 09 0A 0B 0C 0D 0E 0F
      -- -- -- -- -- -- -- --  -- -- -- -- -- -- -- --
0030:    42 06 01 10 4A F0 FF  FF 7F 41 01 10 01 6F 76   B...J....A...ov
0040: F0 FF FF 7F 66 0A 80 F8  FF FF 7F F8 FF FF 7F 74  ....f..........t
0050: 68 6B 30 1D 0B 80 23 53  F8 FF FF 7F F8 FF FF 7F  hk0...#S........
0060: 74 68 6B 30 66 0A 80 F8  FF FF 7F F8 FF FF 7F 74  thk0f..........t
0070: 68 6B 31 53 F8 FF FF 7F  F8 FF FF 7F 74 68 6B 31  hk1S........thk1
0080: 1E F0 FF FF 7F 6F 70 1D  0C 80 23 29 08 F0 FF FF  .....op...#)....
0090: 7F 10 66 0D 80 F8 FF FF  7F F8 FF FF 7F 74 6C 6B  ..f..........tlk
00A0: 30 1D 0E 80 23 53 F8 FF  FF 7F F8 FF FF 7F 74 6C  0...#S........tl
00B0: 6B 30 66 0D 80 F8 FF FF  7F F8 FF FF 7F 74 6C 6B  k0f..........tlk
00C0: 31 03 03 10 0F 80 1D 10  80 23 53 F8 FF FF 7F F8  1........#S.....
00D0: FF FF 7F 74 6C 6B 31 24  11 80 06 80 06 80 25 02  ...tlk1$......%.
00E0: 00 10 06 80 00 3C 01 42  05 01 10 66 0A 80 F8 FF  .....<.B...f....
00F0: FF 7F F8 FF FF 7F 74 6C  6B 30 1D 12 80 23 53 F8  ......tlk0...#S.
0100: FF FF 7F F8 FF FF 7F 74  6C 6B 30 03 02 10 0F 80  .......tlk0.....
0110: 1D 13 80 23 66 0A 80 F8  FF FF 7F F8 FF FF 7F 74  ...#f..........t
0120: 6C 6B 31 03 03 10 14 80  1D 15 80 23 53 F8 FF FF  lk1........#S...
0130: 7F F8 FF FF 7F 74 6C 6B  31 01 87 01 02 00 10 16  .....tlk1.......
0140: 80 00 87 01 66 0A 80 F8  FF FF 7F F8 FF FF 7F 74  ....f..........t
0150: 6C 6B 30 1D 17 80 23 53  F8 FF FF 7F F8 FF FF 7F  lk0...#S........
0160: 74 6C 6B 30 66 0A 80 F8  FF FF 7F F8 FF FF 7F 74  tlk0f..........t
0170: 6C 6B 31 1D 18 80 23 53  F8 FF FF 7F F8 FF FF 7F  lk1...#S........
0180: 74 6C 6B 31 01 87 01 21  00                       tlk1...!.       
```

#### Opcodes

```
  0: 0x0031 [0x42] SET_CLI_EVENT_CANCEL_DATA()
  1: 0x0032 [0x06] Work_Zone[1] = 0
  2: 0x0035 [0x4A] LocalPlayer looks at Gaddiux (ID: 17826113/0x01100141)
  3: 0x003E [0x6F] WAIT_FRAME_DELAY: Yield until WaitTime reaches zero
  4: 0x003F [0x76] CHECK_ENTITY_RENDER_FLAGS: Wait until LocalPlayer Render.Flags0 and Render.Flags3 conditions are met
  5: 0x0044 [0x66] LOAD_EXT_SCHEDULER_MAIN: Load scheduler "thk0" with entities [EventEntity, EventEntity], work=149*
  6: 0x0053 [0x1D] PRINT_EVENT_MESSAGE(message_id=11589*)
    → "Hmmm... Quite the quandary, this is..."
  7: 0x0056 [0x23] WAIT_FOR_DIALOG_INTERACTION
  8: 0x0057 [0x53] WAIT_SCHEDULER_TASK: Wait for scheduler "thk0" with entities [EventEntity, EventEntity]
  9: 0x0064 [0x66] LOAD_EXT_SCHEDULER_MAIN: Load scheduler "thk1" with entities [EventEntity, EventEntity], work=149*
 10: 0x0073 [0x53] WAIT_SCHEDULER_TASK: Wait for scheduler "thk1" with entities [EventEntity, EventEntity]
 11: 0x0080 [0x1E] EventEntity looks at LocalPlayer and starts talking
 12: 0x0085 [0x6F] WAIT_FRAME_DELAY: Yield until WaitTime reaches zero
 13: 0x0086 [0x70] WAIT_ENTITY_RENDER_FLAG: Wait while EventEntity->Render.Flags3 bit 2 is set (cancel turn if not)
 14: 0x0087 [0x1D] PRINT_EVENT_MESSAGE(message_id=11590*)
    → "Wait, aren't you that rune fencer whom I can never quite seem to remember? What brings you to the Inventors' Coalition?"
 15: 0x008A [0x23] WAIT_FOR_DIALOG_INTERACTION
 16: 0x008B [0x29] REQ_SET_WAIT(priority=0x08, entity_id=LocalPlayer, tag_num=0x10)
 17: 0x0092 [0x66] LOAD_EXT_SCHEDULER_MAIN: Load scheduler "tlk0" with entities [EventEntity, EventEntity], work=9*
 18: 0x00A1 [0x1D] PRINT_EVENT_MESSAGE(message_id=11591*)
    → "Well, if that's the case, I'm having trouble with this runic caliper here. Every time I try to open it, the thing screeches like a dying umbril and refuses to budge!"
 19: 0x00A4 [0x23] WAIT_FOR_DIALOG_INTERACTION
 20: 0x00A5 [0x53] WAIT_SCHEDULER_TASK: Wait for scheduler "tlk0" with entities [EventEntity, EventEntity]
 21: 0x00B2 [0x66] LOAD_EXT_SCHEDULER_MAIN: Load scheduler "tlk1" with entities [EventEntity, EventEntity], work=9*
 22: 0x00C1 [0x03] Work_Zone[3] = 2570*
 23: 0x00C6 [0x1D] PRINT_EVENT_MESSAGE(message_id=11592*)
    → "I want to fix it, but I don't have any of the $5 used in making its ethereal lubricant. What a pain it's going to be to find them..."
 24: 0x00C9 [0x23] WAIT_FOR_DIALOG_INTERACTION
 25: 0x00CA [0x53] WAIT_SCHEDULER_TASK: Wait for scheduler "tlk1" with entities [EventEntity, EventEntity]
 26: 0x00D7 [0x24] CREATE_DIALOG(message_id=11593*, default_option=0*, option_flags=0*)
    → "Have anything to say? [Should I get some for you?/Have fun with that.]"
 27: 0x00DE [0x25] WAIT_DIALOG_SELECT()
 28: 0x00DF [0x02] IF !(Work_Zone[0] == 0*) GOTO 0x013C
 29: 0x00E7 [0x42] SET_CLI_EVENT_CANCEL_DATA()
 30: 0x00E8 [0x05] Work_Zone[1] = 1
 31: 0x00EB [0x66] LOAD_EXT_SCHEDULER_MAIN: Load scheduler "tlk0" with entities [EventEntity, EventEntity], work=149*
 32: 0x00FA [0x1D] PRINT_EVENT_MESSAGE(message_id=11596*)
    → "You've truly brightened me day. It's so comforting to know that there are still kind souls on this harsh frontier."
 33: 0x00FD [0x23] WAIT_FOR_DIALOG_INTERACTION
 34: 0x00FE [0x53] WAIT_SCHEDULER_TASK: Wait for scheduler "tlk0" with entities [EventEntity, EventEntity]
 35: 0x010B [0x03] Work_Zone[2] = 2570*
 36: 0x0110 [0x1D] PRINT_EVENT_MESSAGE(message_id=11597*)
    → "Now, I've never heard of a lone $3, but you can probably find them packed into clumps within Yorcia Weald."
 37: 0x0113 [0x23] WAIT_FOR_DIALOG_INTERACTION
 38: 0x0114 [0x66] LOAD_EXT_SCHEDULER_MAIN: Load scheduler "tlk1" with entities [EventEntity, EventEntity], work=149*
 39: 0x0123 [0x03] Work_Zone[3] = 605*
 40: 0x0128 [0x1D] PRINT_EVENT_MESSAGE(message_id=11598*)
    → "Maybe the Scouts' Coalition can "dig up some dirt" with just their eyes and ears, but I think you'll be needing $1 or two for this job."
 41: 0x012B [0x23] WAIT_FOR_DIALOG_INTERACTION
 42: 0x012C [0x53] WAIT_SCHEDULER_TASK: Wait for scheduler "tlk1" with entities [EventEntity, EventEntity]
 43: 0x0139 [0x01] GOTO 0x0187
 44: 0x013C [0x02] IF !(Work_Zone[0] == 1*) GOTO 0x0187
 45: 0x0144 [0x66] LOAD_EXT_SCHEDULER_MAIN: Load scheduler "tlk0" with entities [EventEntity, EventEntity], work=149*
 46: 0x0153 [0x1D] PRINT_EVENT_MESSAGE(message_id=11594*)
    → "It may be presumptuous of me, but I'm swamped with repair orders! I've no time to venture into the wilds, risking life and limb for an ingredient."
 47: 0x0156 [0x23] WAIT_FOR_DIALOG_INTERACTION
 48: 0x0157 [0x53] WAIT_SCHEDULER_TASK: Wait for scheduler "tlk0" with entities [EventEntity, EventEntity]
 49: 0x0164 [0x66] LOAD_EXT_SCHEDULER_MAIN: Load scheduler "tlk1" with entities [EventEntity, EventEntity], work=149*
 50: 0x0173 [0x1D] PRINT_EVENT_MESSAGE(message_id=11595*)
    → "Please, think of the coalition!"
 51: 0x0176 [0x23] WAIT_FOR_DIALOG_INTERACTION
 52: 0x0177 [0x53] WAIT_SCHEDULER_TASK: Wait for scheduler "tlk1" with entities [EventEntity, EventEntity]
 53: 0x0184 [0x01] GOTO 0x0187

SUBROUTINE_0187:
 54: 0x0187 [0x21] END_EVENT
 55: 0x0188 [0x00] END_REQSTACK()
```

### Event 5113

#### Metadata

| Field        | Value    |
|--------------|----------|
| Entrypoint   | 0x0189   |
| Data Size    | 98 bytes |
| Instructions | 18       |

```
      00 01 02 03 04 05 06 07  08 09 0A 0B 0C 0D 0E 0F
      -- -- -- -- -- -- -- --  -- -- -- -- -- -- -- --
0180:                             1E F0 FF FF 7F 6F 70           .....op
0190: 4A F0 FF FF 7F 41 01 10  01 6F 76 F0 FF FF 7F 66  J....A...ov....f
01A0: 0D 80 F8 FF FF 7F F8 FF  FF 7F 74 6C 6B 30 03 02  ..........tlk0..
01B0: 10 0F 80 1D 13 80 23 53  F8 FF FF 7F F8 FF FF 7F  ......#S........
01C0: 74 6C 6B 30 66 0D 80 F8  FF FF 7F F8 FF FF 7F 74  tlk0f..........t
01D0: 6C 6B 31 03 03 10 14 80  1D 15 80 23 53 F8 FF FF  lk1........#S...
01E0: 7F F8 FF FF 7F 74 6C 6B  31 21 00                 .....tlk1!.     
```

#### Opcodes

```
  0: 0x0189 [0x1E] EventEntity looks at LocalPlayer and starts talking
  1: 0x018E [0x6F] WAIT_FRAME_DELAY: Yield until WaitTime reaches zero
  2: 0x018F [0x70] WAIT_ENTITY_RENDER_FLAG: Wait while EventEntity->Render.Flags3 bit 2 is set (cancel turn if not)
  3: 0x0190 [0x4A] LocalPlayer looks at Gaddiux (ID: 17826113/0x01100141)
  4: 0x0199 [0x6F] WAIT_FRAME_DELAY: Yield until WaitTime reaches zero
  5: 0x019A [0x76] CHECK_ENTITY_RENDER_FLAGS: Wait until LocalPlayer Render.Flags0 and Render.Flags3 conditions are met
  6: 0x019F [0x66] LOAD_EXT_SCHEDULER_MAIN: Load scheduler "tlk0" with entities [EventEntity, EventEntity], work=9*
  7: 0x01AE [0x03] Work_Zone[2] = 2570*
  8: 0x01B3 [0x1D] PRINT_EVENT_MESSAGE(message_id=11597*)
    → "Now, I've never heard of a lone $3, but you can probably find them packed into clumps within Yorcia Weald."
  9: 0x01B6 [0x23] WAIT_FOR_DIALOG_INTERACTION
 10: 0x01B7 [0x53] WAIT_SCHEDULER_TASK: Wait for scheduler "tlk0" with entities [EventEntity, EventEntity]
 11: 0x01C4 [0x66] LOAD_EXT_SCHEDULER_MAIN: Load scheduler "tlk1" with entities [EventEntity, EventEntity], work=9*
 12: 0x01D3 [0x03] Work_Zone[3] = 605*
 13: 0x01D8 [0x1D] PRINT_EVENT_MESSAGE(message_id=11598*)
    → "Maybe the Scouts' Coalition can "dig up some dirt" with just their eyes and ears, but I think you'll be needing $1 or two for this job."
 14: 0x01DB [0x23] WAIT_FOR_DIALOG_INTERACTION
 15: 0x01DC [0x53] WAIT_SCHEDULER_TASK: Wait for scheduler "tlk1" with entities [EventEntity, EventEntity]
 16: 0x01E9 [0x21] END_EVENT
 17: 0x01EA [0x00] END_REQSTACK()
```

### Event 5114

#### Metadata

| Field        | Value     |
|--------------|-----------|
| Entrypoint   | 0x01EB    |
| Data Size    | 122 bytes |
| Instructions | 26        |

```
      00 01 02 03 04 05 06 07  08 09 0A 0B 0C 0D 0E 0F
      -- -- -- -- -- -- -- --  -- -- -- -- -- -- -- --
01E0:                                   42 06 01 10 1E             B....
01F0: F0 FF FF 7F 6F 70 4A F0  FF FF 7F 41 01 10 01 6F  ....opJ....A...o
0200: 76 F0 FF FF 7F 6E F8 FF  FF 7F 19 80 99 F8 FF FF  v....n..........
0210: 7F 1D 1A 80 23 29 08 F0  FF FF 7F 06 1C 1B 80 66  ....#).........f
0220: 0A 80 F8 FF FF 7F F8 FF  FF 7F 74 6C 6B 30 1D 1C  ..........tlk0..
0230: 80 23 1D 1D 80 23 53 F8  FF FF 7F F8 FF FF 7F 74  .#...#S........t
0240: 6C 6B 30 66 0A 80 F8 FF  FF 7F F8 FF FF 7F 74 6C  lk0f..........tl
0250: 6B 31 1D 1E 80 23 53 F8  FF FF 7F F8 FF FF 7F 74  k1...#S........t
0260: 6C 6B 31 21 00                                    lk1!.           
```

#### Opcodes

```
  0: 0x01EB [0x42] SET_CLI_EVENT_CANCEL_DATA()
  1: 0x01EC [0x06] Work_Zone[1] = 0
  2: 0x01EF [0x1E] EventEntity looks at LocalPlayer and starts talking
  3: 0x01F4 [0x6F] WAIT_FRAME_DELAY: Yield until WaitTime reaches zero
  4: 0x01F5 [0x70] WAIT_ENTITY_RENDER_FLAG: Wait while EventEntity->Render.Flags3 bit 2 is set (cancel turn if not)
  5: 0x01F6 [0x4A] LocalPlayer looks at Gaddiux (ID: 17826113/0x01100141)
  6: 0x01FF [0x6F] WAIT_FRAME_DELAY: Yield until WaitTime reaches zero
  7: 0x0200 [0x76] CHECK_ENTITY_RENDER_FLAGS: Wait until LocalPlayer Render.Flags0 and Render.Flags3 conditions are met
  8: 0x0205 [0x6E] EventEntity uses emote 7*
  9: 0x020C [0x99] Wait for EventEntity animation to complete
 10: 0x0211 [0x1D] PRINT_EVENT_MESSAGE(message_id=11599*)
    → "Splendid! Your selfless act is duly noted, fair pioneer."
 11: 0x0214 [0x23] WAIT_FOR_DIALOG_INTERACTION
 12: 0x0215 [0x29] REQ_SET_WAIT(priority=0x08, entity_id=LocalPlayer, tag_num=0x06)
 13: 0x021C [0x1C] WAIT(90* ticks)
 14: 0x021F [0x66] LOAD_EXT_SCHEDULER_MAIN: Load scheduler "tlk0" with entities [EventEntity, EventEntity], work=149*
 15: 0x022E [0x1D] PRINT_EVENT_MESSAGE(message_id=11600*)
    → "Yes, this is exactly what the inventor ordered! No terrifying screams, and look how it opens! This baby's smoother than a merchant's tongue!"
 16: 0x0231 [0x23] WAIT_FOR_DIALOG_INTERACTION
 17: 0x0232 [0x1D] PRINT_EVENT_MESSAGE(message_id=11601*)
    → "Who knows, I might actually get that thing back to Runje Desaali before she skins my hide."
 18: 0x0235 [0x23] WAIT_FOR_DIALOG_INTERACTION
 19: 0x0236 [0x53] WAIT_SCHEDULER_TASK: Wait for scheduler "tlk0" with entities [EventEntity, EventEntity]
 20: 0x0243 [0x66] LOAD_EXT_SCHEDULER_MAIN: Load scheduler "tlk1" with entities [EventEntity, EventEntity], work=149*
 21: 0x0252 [0x1D] PRINT_EVENT_MESSAGE(message_id=11602*)
    → "She's nice enough outside of work, but don't ever get on her bad side when doing business with her. You'll likely end up sleeping with the orobons off the waterfront."
 22: 0x0255 [0x23] WAIT_FOR_DIALOG_INTERACTION
 23: 0x0256 [0x53] WAIT_SCHEDULER_TASK: Wait for scheduler "tlk1" with entities [EventEntity, EventEntity]
 24: 0x0263 [0x21] END_EVENT
 25: 0x0264 [0x00] END_REQSTACK()
```

### Event 5115

#### Metadata

| Field        | Value    |
|--------------|----------|
| Entrypoint   | 0x0265   |
| Data Size    | 37 bytes |
| Instructions | 11       |

```
      00 01 02 03 04 05 06 07  08 09 0A 0B 0C 0D 0E 0F
      -- -- -- -- -- -- -- --  -- -- -- -- -- -- -- --
0260:                4A F0 FF  FF 7F 41 01 10 01 6F 76       J....A...ov
0270: F0 FF FF 7F 1D 1D 80 23  6E F8 FF FF 7F 1F 80 99  .......#n.......
0280: F8 FF FF 7F 1D 1E 80 23  21 00                    .......#!.      
```

#### Opcodes

```
  0: 0x0265 [0x4A] LocalPlayer looks at Gaddiux (ID: 17826113/0x01100141)
  1: 0x026E [0x6F] WAIT_FRAME_DELAY: Yield until WaitTime reaches zero
  2: 0x026F [0x76] CHECK_ENTITY_RENDER_FLAGS: Wait until LocalPlayer Render.Flags0 and Render.Flags3 conditions are met
  3: 0x0274 [0x1D] PRINT_EVENT_MESSAGE(message_id=11601*)
    → "Who knows, I might actually get that thing back to Runje Desaali before she skins my hide."
  4: 0x0277 [0x23] WAIT_FOR_DIALOG_INTERACTION
  5: 0x0278 [0x6E] EventEntity uses emote 6*
  6: 0x027F [0x99] Wait for EventEntity animation to complete
  7: 0x0284 [0x1D] PRINT_EVENT_MESSAGE(message_id=11602*)
    → "She's nice enough outside of work, but don't ever get on her bad side when doing business with her. You'll likely end up sleeping with the orobons off the waterfront."
  8: 0x0287 [0x23] WAIT_FOR_DIALOG_INTERACTION
  9: 0x0288 [0x21] END_EVENT
 10: 0x0289 [0x00] END_REQSTACK()
```

### Event 5116

#### Metadata

| Field        | Value   |
|--------------|---------|
| Entrypoint   | 0x028A  |
| Data Size    | 1 bytes |
| Instructions | 1       |

```
      00 01 02 03 04 05 06 07  08 09 0A 0B 0C 0D 0E 0F
      -- -- -- -- -- -- -- --  -- -- -- -- -- -- -- --
0280:                                00                           .     
```

#### Opcodes

```
  0: 0x028A [0x00] END_REQSTACK()
```

### Event 5117

#### Metadata

| Field        | Value    |
|--------------|----------|
| Entrypoint   | 0x028B   |
| Data Size    | 33 bytes |
| Instructions | 9        |

```
      00 01 02 03 04 05 06 07  08 09 0A 0B 0C 0D 0E 0F
      -- -- -- -- -- -- -- --  -- -- -- -- -- -- -- --
0280:                                   4A F0 FF FF 7F             J....
0290: 41 01 10 01 6F 76 F0 FF  FF 7F 6E F8 FF FF 7F 20  A...ov....n.... 
02A0: 80 99 F8 FF FF 7F 1D 21  80 23 21 00              .......!.#!.    
```

#### Opcodes

```
  0: 0x028B [0x4A] LocalPlayer looks at Gaddiux (ID: 17826113/0x01100141)
  1: 0x0294 [0x6F] WAIT_FRAME_DELAY: Yield until WaitTime reaches zero
  2: 0x0295 [0x76] CHECK_ENTITY_RENDER_FLAGS: Wait until LocalPlayer Render.Flags0 and Render.Flags3 conditions are met
  3: 0x029A [0x6E] EventEntity uses emote 32*
  4: 0x02A1 [0x99] Wait for EventEntity animation to complete
  5: 0x02A6 [0x1D] PRINT_EVENT_MESSAGE(message_id=11618*)
    → "I'm happy for your accomplishment and all, but how am I supposed to measure runic equipment without a caliper?"
  6: 0x02A9 [0x23] WAIT_FOR_DIALOG_INTERACTION
  7: 0x02AA [0x21] END_EVENT
  8: 0x02AB [0x00] END_REQSTACK()
```

### Event 5200

#### Metadata

| Field        | Value   |
|--------------|---------|
| Entrypoint   | 0x02AC  |
| Data Size    | 7 bytes |
| Instructions | 2       |

```
      00 01 02 03 04 05 06 07  08 09 0A 0B 0C 0D 0E 0F
      -- -- -- -- -- -- -- --  -- -- -- -- -- -- -- --
02A0:                                      92 01 F8 FF              ....
02B0: FF 7F 00                                          ...             
```

#### Opcodes

```
  0: 0x02AC [0x92] EventEntity->Render.Flags3 ^= 0x01
  1: 0x02B2 [0x00] END_REQSTACK()
```

### Event 5119

#### Metadata

| Field        | Value     |
|--------------|-----------|
| Entrypoint   | 0x02B3    |
| Data Size    | 339 bytes |
| Instructions | 71        |

```
      00 01 02 03 04 05 06 07  08 09 0A 0B 0C 0D 0E 0F
      -- -- -- -- -- -- -- --  -- -- -- -- -- -- -- --
02B0:          42 03 00 00 02  10 1E F0 FF FF 7F 6F 70     B..........op
02C0: 4A F0 FF FF 7F 41 01 10  01 6F 76 F0 FF FF 7F 02  J....A...ov.....
02D0: 00 00 16 80 00 DE 02 1D  22 80 23 01 4E 03 6E 41  ........".#.N.nA
02E0: 01 10 01 23 80 99 41 01  10 01 1C 24 80 1D 25 80  ...#..A....$..%.
02F0: 23 1C 1B 80 6E 41 01 10  01 20 80 99 41 01 10 01  #...nA... ..A...
0300: 1C 24 80 1D 26 80 23 1C  27 80 1D 28 80 23 66 0D  .$..&.#.'..(.#f.
0310: 80 F8 FF FF 7F F8 FF FF  7F 74 6C 6B 30 1D 29 80  .........tlk0.).
0320: 23 53 F8 FF FF 7F F8 FF  FF 7F 74 6C 6B 30 66 0D  #S........tlk0f.
0330: 80 F8 FF FF 7F F8 FF FF  7F 74 6C 6B 31 1D 2A 80  .........tlk1.*.
0340: 23 53 F8 FF FF 7F F8 FF  FF 7F 74 6C 6B 31 06 01  #S........tlk1..
0350: 10 24 2B 80 06 80 06 80  25 02 00 10 06 80 00 78  .$+.....%......x
0360: 03 42 6E 41 01 10 01 19  80 99 41 01 10 01 1C 24  .BnA......A....$
0370: 80 1D 2C 80 23 01 9B 03  02 00 10 16 80 00 9B 03  ..,.#...........
0380: 6E 41 01 10 01 2D 80 99  41 01 10 01 1C 2E 80 1D  nA...-..A.......
0390: 2F 80 23 1C 24 80 21 00  01 9B 03 66 06 80 F8 FF  /.#.$.!....f....
03A0: FF 7F F8 FF FF 7F 70 61  73 30 53 F8 FF FF 7F F8  ......pas0S.....
03B0: FF FF 7F 70 61 73 30 66  0A 80 F8 FF FF 7F F8 FF  ...pas0f........
03C0: FF 7F 74 6C 6B 30 1D 30  80 23 1D 31 80 23 1D 32  ..tlk0.0.#.1.#.2
03D0: 80 23 53 F8 FF FF 7F F8  FF FF 7F 74 6C 6B 30 66  .#S........tlk0f
03E0: 0A 80 F8 FF FF 7F F8 FF  FF 7F 74 6C 6B 31 1D 33  ..........tlk1.3
03F0: 80 23 53 F8 FF FF 7F F8  FF FF 7F 74 6C 6B 31 03  .#S........tlk1.
0400: 01 10 16 80 21 00                                 ....!.          
```

#### Opcodes

```
  0: 0x02B3 [0x42] SET_CLI_EVENT_CANCEL_DATA()
  1: 0x02B4 [0x03] ExtData[1]->WorkLocal[0] = Work_Zone[2]
  2: 0x02B9 [0x1E] EventEntity looks at LocalPlayer and starts talking
  3: 0x02BE [0x6F] WAIT_FRAME_DELAY: Yield until WaitTime reaches zero
  4: 0x02BF [0x70] WAIT_ENTITY_RENDER_FLAG: Wait while EventEntity->Render.Flags3 bit 2 is set (cancel turn if not)
  5: 0x02C0 [0x4A] LocalPlayer looks at Gaddiux (ID: 17826113/0x01100141)
  6: 0x02C9 [0x6F] WAIT_FRAME_DELAY: Yield until WaitTime reaches zero
  7: 0x02CA [0x76] CHECK_ENTITY_RENDER_FLAGS: Wait until LocalPlayer Render.Flags0 and Render.Flags3 conditions are met
  8: 0x02CF [0x02] IF !(ExtData[1]->WorkLocal[0] == 1*) GOTO 0x02DE
  9: 0x02D7 [0x1D] PRINT_EVENT_MESSAGE(message_id=11634*)
    → "I suppose you've taken time to think my offer over. So, how does flailing around a greatsword sound now?"
 10: 0x02DA [0x23] WAIT_FOR_DIALOG_INTERACTION
 11: 0x02DB [0x01] GOTO 0x034E
 12: 0x02DE [0x6E] Gaddiux (ID: 17826113/0x01100141) uses emote 10*
 13: 0x02E5 [0x99] Wait for Gaddiux (ID: 17826113/0x01100141) animation to complete
 14: 0x02EA [0x1C] WAIT(60* ticks)
 15: 0x02ED [0x1D] PRINT_EVENT_MESSAGE(message_id=11627*)
    → "Innovations that are fun for the whole family, safe and reliable services, and not a hint of--hm?"
 16: 0x02F0 [0x23] WAIT_FOR_DIALOG_INTERACTION
 17: 0x02F1 [0x1C] WAIT(90* ticks)
 18: 0x02F4 [0x6E] Gaddiux (ID: 17826113/0x01100141) uses emote 32*
 19: 0x02FB [0x99] Wait for Gaddiux (ID: 17826113/0x01100141) animation to complete
 20: 0x0300 [0x1C] WAIT(60* ticks)
 21: 0x0303 [0x1D] PRINT_EVENT_MESSAGE(message_id=11628*)
    → "Wait, you're...c'mon, I know I can get it this time...<Player>?"
 22: 0x0306 [0x23] WAIT_FOR_DIALOG_INTERACTION
 23: 0x0307 [0x1C] WAIT(45* ticks)
 24: 0x030A [0x1D] PRINT_EVENT_MESSAGE(message_id=11629*)
    → "I heard you've matured into quite the rune fencer."
 25: 0x030D [0x23] WAIT_FOR_DIALOG_INTERACTION
 26: 0x030E [0x66] LOAD_EXT_SCHEDULER_MAIN: Load scheduler "tlk0" with entities [EventEntity, EventEntity], work=9*
 27: 0x031D [0x1D] PRINT_EVENT_MESSAGE(message_id=11630*)
    → "...Exactly the type who could complete this assignment, I'd say."
 28: 0x0320 [0x23] WAIT_FOR_DIALOG_INTERACTION
 29: 0x0321 [0x53] WAIT_SCHEDULER_TASK: Wait for scheduler "tlk0" with entities [EventEntity, EventEntity]
 30: 0x032E [0x66] LOAD_EXT_SCHEDULER_MAIN: Load scheduler "tlk1" with entities [EventEntity, EventEntity], work=9*
 31: 0x033D [0x1D] PRINT_EVENT_MESSAGE(message_id=11631*)
    → "We desperately need your finely honed skills to test the durability of this greatsword here. Sounds like the opportunity of a lifetime, right?"
 32: 0x0340 [0x23] WAIT_FOR_DIALOG_INTERACTION
 33: 0x0341 [0x53] WAIT_SCHEDULER_TASK: Wait for scheduler "tlk1" with entities [EventEntity, EventEntity]

SUBROUTINE_034E:
 34: 0x034E [0x06] Work_Zone[1] = 0
 35: 0x0351 [0x24] CREATE_DIALOG(message_id=11632*, default_option=0*, option_flags=0*)
    → "How does it sound? [Good enough. Yay, science!/Stupid, that's how.]"
 36: 0x0358 [0x25] WAIT_DIALOG_SELECT()
 37: 0x0359 [0x02] IF !(Work_Zone[0] == 0*) GOTO 0x0378
 38: 0x0361 [0x42] SET_CLI_EVENT_CANCEL_DATA()
 39: 0x0362 [0x6E] Gaddiux (ID: 17826113/0x01100141) uses emote 7*
 40: 0x0369 [0x99] Wait for Gaddiux (ID: 17826113/0x01100141) animation to complete
 41: 0x036E [0x1C] WAIT(60* ticks)
 42: 0x0371 [0x1D] PRINT_EVENT_MESSAGE(message_id=11635*)
    → "It's always good to meet someone with a burning passion for discovery."
 43: 0x0374 [0x23] WAIT_FOR_DIALOG_INTERACTION
 44: 0x0375 [0x01] GOTO 0x039B
 45: 0x0378 [0x02] IF !(Work_Zone[0] == 1*) GOTO 0x039B
 46: 0x0380 [0x6E] Gaddiux (ID: 17826113/0x01100141) uses emote 19*
 47: 0x0387 [0x99] Wait for Gaddiux (ID: 17826113/0x01100141) animation to complete
 48: 0x038C [0x1C] WAIT(50* ticks)
 49: 0x038F [0x1D] PRINT_EVENT_MESSAGE(message_id=11633*)
    → "Oh... In hindsight, I guess it kind of does. You might be too renowned for this type of thing, but your cooperation would still be appreciated."
 50: 0x0392 [0x23] WAIT_FOR_DIALOG_INTERACTION
 51: 0x0393 [0x1C] WAIT(60* ticks)
 52: 0x0396 [0x21] END_EVENT
 53: 0x0397 [0x00] END_REQSTACK()

SUBROUTINE_039B:
 54: 0x039B [0x66] LOAD_EXT_SCHEDULER_MAIN: Load scheduler "pas0" with entities [EventEntity, EventEntity], work=0*
 55: 0x03AA [0x53] WAIT_SCHEDULER_TASK: Wait for scheduler "pas0" with entities [EventEntity, EventEntity]
 56: 0x03B7 [0x66] LOAD_EXT_SCHEDULER_MAIN: Load scheduler "tlk0" with entities [EventEntity, EventEntity], work=149*
 57: 0x03C6 [0x1D] PRINT_EVENT_MESSAGE(message_id=11636*)
    → "What makes this especially intriguing for aficionados of experimentation is that this sword has been altered to record data regarding usage."
 58: 0x03C9 [0x23] WAIT_FOR_DIALOG_INTERACTION
 59: 0x03CA [0x1D] PRINT_EVENT_MESSAGE(message_id=11637*)
    → "We really outdid ourselves with it. The device we forged into this weapon can accurately measure the bearer's swings down to a thousandth of an ilm."
 60: 0x03CD [0x23] WAIT_FOR_DIALOG_INTERACTION
 61: 0x03CE [0x1D] PRINT_EVENT_MESSAGE(message_id=11638*)
    → "With such an awe-inspiring revision, I'd be amazed if something didn't happen by employing weapon skills while using it. You can never tell what sort of gore will ensue with them normally, so this should really be a feast for the eyes."
 62: 0x03D1 [0x23] WAIT_FOR_DIALOG_INTERACTION
 63: 0x03D2 [0x53] WAIT_SCHEDULER_TASK: Wait for scheduler "tlk0" with entities [EventEntity, EventEntity]
 64: 0x03DF [0x66] LOAD_EXT_SCHEDULER_MAIN: Load scheduler "tlk1" with entities [EventEntity, EventEntity], work=149*
 65: 0x03EE [0x1D] PRINT_EVENT_MESSAGE(message_id=11639*)
    → "All I can say is that I'll need it back after you've unleashed your weapon skills a number of times that I deem sufficient."
 66: 0x03F1 [0x23] WAIT_FOR_DIALOG_INTERACTION
 67: 0x03F2 [0x53] WAIT_SCHEDULER_TASK: Wait for scheduler "tlk1" with entities [EventEntity, EventEntity]
 68: 0x03FF [0x03] Work_Zone[1] = 1*
 69: 0x0404 [0x21] END_EVENT
 70: 0x0405 [0x00] END_REQSTACK()
```

#### Data or dead code:

```
# Dead code (unreachable instructions):
     0x0398 [0x01] GOTO 0x039B
```

### Event 5120

#### Metadata

| Field        | Value     |
|--------------|-----------|
| Entrypoint   | 0x0406    |
| Data Size    | 232 bytes |
| Instructions | 56        |

```
      00 01 02 03 04 05 06 07  08 09 0A 0B 0C 0D 0E 0F
      -- -- -- -- -- -- -- --  -- -- -- -- -- -- -- --
0400:                   03 00  00 02 10 1E F0 FF FF 7F        ..........
0410: 6F 70 4A F0 FF FF 7F 41  01 10 01 6F 76 F0 FF FF  opJ....A...ov...
0420: 7F 1D 34 80 23 06 01 10  02 00 00 16 80 00 37 04  ..4.#.........7.
0430: 3C 01 00 16 80 16 80 03  02 10 35 80 24 36 80 06  <.........5.$6..
0440: 80 01 00 25 02 00 10 06  80 00 4F 04 01 EC 04 02  ...%......O.....
0450: 00 10 16 80 00 9C 04 42  6E F8 FF FF 7F 2D 80 99  .......Bn....-..
0460: F8 FF FF 7F 03 02 10 35  80 1D 37 80 23 1C 2E 80  .......5..7.#...
0470: 1D 38 80 23 66 06 80 F8  FF FF 7F F8 FF FF 7F 70  .8.#f..........p
0480: 61 73 30 53 F8 FF FF 7F  F8 FF FF 7F 70 61 73 30  as0S........pas0
0490: 1D 39 80 23 03 01 10 16  80 01 EC 04 02 00 10 3A  .9.#...........:
04A0: 80 00 EC 04 6E F8 FF FF  7F 3B 80 99 F8 FF FF 7F  ....n....;......
04B0: 1D 3C 80 23 24 3D 80 16  80 06 80 25 02 00 10 06  .<.#$=.....%....
04C0: 80 00 DA 04 42 1D 3E 80  23 03 02 10 35 80 1D 3F  ....B.>.#...5..?
04D0: 80 23 03 01 10 3A 80 01  E9 04 02 00 10 16 80 00  .#...:..........
04E0: E9 04 1D 40 80 23 01 E9  04 01 EC 04 21 00        ...@.#......!.  
```

#### Opcodes

```
  0: 0x0406 [0x03] ExtData[1]->WorkLocal[0] = Work_Zone[2]
  1: 0x040B [0x1E] EventEntity looks at LocalPlayer and starts talking
  2: 0x0410 [0x6F] WAIT_FRAME_DELAY: Yield until WaitTime reaches zero
  3: 0x0411 [0x70] WAIT_ENTITY_RENDER_FLAG: Wait while EventEntity->Render.Flags3 bit 2 is set (cancel turn if not)
  4: 0x0412 [0x4A] LocalPlayer looks at Gaddiux (ID: 17826113/0x01100141)
  5: 0x041B [0x6F] WAIT_FRAME_DELAY: Yield until WaitTime reaches zero
  6: 0x041C [0x76] CHECK_ENTITY_RENDER_FLAGS: Wait until LocalPlayer Render.Flags0 and Render.Flags3 conditions are met
  7: 0x0421 [0x1D] PRINT_EVENT_MESSAGE(message_id=11645*)
    → "How's the experiment going? Does it measure up to your expectations? Heh heh."
  8: 0x0424 [0x23] WAIT_FOR_DIALOG_INTERACTION
  9: 0x0425 [0x06] Work_Zone[1] = 0
 10: 0x0428 [0x02] IF !(ExtData[1]->WorkLocal[0] == 1*) GOTO 0x0437
 11: 0x0430 [0x3C] SET_BIT_FLAG_CONDITIONAL(target_work_offset=ExtData[1]->WorkLocal[1], bit_index_work_offset=1*, condition_work_offset=1*)
 12: 0x0437 [0x03] Work_Zone[2] = 20749*
 13: 0x043C [0x24] CREATE_DIALOG(message_id=11646*, default_option=0*, option_flags=ExtData[1]->WorkLocal[1])
    → "Anything to say? [No issues here./I lost my $0./I've had enough of this.]"
 14: 0x0443 [0x25] WAIT_DIALOG_SELECT()
 15: 0x0444 [0x02] IF !(Work_Zone[0] == 0*) GOTO 0x044F
 16: 0x044C [0x01] GOTO 0x04EC
 17: 0x044F [0x02] IF !(Work_Zone[0] == 1*) GOTO 0x049C
 18: 0x0457 [0x42] SET_CLI_EVENT_CANCEL_DATA()
 19: 0x0458 [0x6E] EventEntity uses emote 19*
 20: 0x045F [0x99] Wait for EventEntity animation to complete
 21: 0x0464 [0x03] Work_Zone[2] = 20749*
 22: 0x0469 [0x1D] PRINT_EVENT_MESSAGE(message_id=11647*)
    → "What!? How could you!?"
 23: 0x046C [0x23] WAIT_FOR_DIALOG_INTERACTION
 24: 0x046D [0x1C] WAIT(50* ticks)
 25: 0x0470 [0x1D] PRINT_EVENT_MESSAGE(message_id=11648*)
    → "Luckily, we also live by the words "Always be prepared." Use this one instead."
 26: 0x0473 [0x23] WAIT_FOR_DIALOG_INTERACTION
 27: 0x0474 [0x66] LOAD_EXT_SCHEDULER_MAIN: Load scheduler "pas0" with entities [EventEntity, EventEntity], work=0*
 28: 0x0483 [0x53] WAIT_SCHEDULER_TASK: Wait for scheduler "pas0" with entities [EventEntity, EventEntity]
 29: 0x0490 [0x1D] PRINT_EVENT_MESSAGE(message_id=11649*)
    → "We're not miracle workers, though. We can't recover any of the information stored on the old device, so you'll have to start over from scratch."
 30: 0x0493 [0x23] WAIT_FOR_DIALOG_INTERACTION
 31: 0x0494 [0x03] Work_Zone[1] = 1*
 32: 0x0499 [0x01] GOTO 0x04EC
 33: 0x049C [0x02] IF !(Work_Zone[0] == 2*) GOTO 0x04EC
 34: 0x04A4 [0x6E] EventEntity uses emote 38*
 35: 0x04AB [0x99] Wait for EventEntity animation to complete
 36: 0x04B0 [0x1D] PRINT_EVENT_MESSAGE(message_id=11650*)
    → "Don't be too hasty now! All the results you've archived will be struck from the record if you give up! Doesn't that bother you in the least?"
 37: 0x04B3 [0x23] WAIT_FOR_DIALOG_INTERACTION
 38: 0x04B4 [0x24] CREATE_DIALOG(message_id=11651*, default_option=1*, option_flags=0*)
    → "Does it bother you? [No, I'm through./Yes, let me think on it.]"
 39: 0x04BB [0x25] WAIT_DIALOG_SELECT()
 40: 0x04BC [0x02] IF !(Work_Zone[0] == 0*) GOTO 0x04DA
 41: 0x04C4 [0x42] SET_CLI_EVENT_CANCEL_DATA()
 42: 0x04C5 [0x1D] PRINT_EVENT_MESSAGE(message_id=11653*)
    → "...If that's how you're going to be, there's little I can do. Hopefully we'll find an intrepid soul who wishes to see the whole thing to fruition."
 43: 0x04C8 [0x23] WAIT_FOR_DIALOG_INTERACTION
 44: 0x04C9 [0x03] Work_Zone[2] = 20749*
 45: 0x04CE [0x1D] PRINT_EVENT_MESSAGE(message_id=11654*)
    → "Oh, that's right. You can dispose of that $0 if you want. It's basically worthless now."
 46: 0x04D1 [0x23] WAIT_FOR_DIALOG_INTERACTION
 47: 0x04D2 [0x03] Work_Zone[1] = 2*
 48: 0x04D7 [0x01] GOTO 0x04E9
 49: 0x04DA [0x02] IF !(Work_Zone[0] == 1*) GOTO 0x04E9
 50: 0x04E2 [0x1D] PRINT_EVENT_MESSAGE(message_id=11652*)
    → "Phew...I had little pools of sweat welling up from my hands when you told me you were out."
 51: 0x04E5 [0x23] WAIT_FOR_DIALOG_INTERACTION
 52: 0x04E6 [0x01] GOTO 0x04E9

SUBROUTINE_04E9:
 53: 0x04E9 [0x01] GOTO 0x04EC

SUBROUTINE_04EC:
 54: 0x04EC [0x21] END_EVENT
 55: 0x04ED [0x00] END_REQSTACK()
```

### Event 5121

#### Metadata

| Field        | Value     |
|--------------|-----------|
| Entrypoint   | 0x04EE    |
| Data Size    | 142 bytes |
| Instructions | 37        |

```
      00 01 02 03 04 05 06 07  08 09 0A 0B 0C 0D 0E 0F
      -- -- -- -- -- -- -- --  -- -- -- -- -- -- -- --
04E0:                                            03 00                ..
04F0: 00 02 10 1E F0 FF FF 7F  6F 70 4A F0 FF FF 7F 41  ........opJ....A
0500: 01 10 01 6F 76 F0 FF FF  7F 02 00 00 16 80 80 27  ...ov..........'
0510: 05 6E 41 01 10 01 19 80  99 41 01 10 01 1C 24 80  .nA......A....$.
0520: 1D 41 80 23 01 76 05 02  00 00 3A 80 80 45 05 6E  .A.#.v....:..E.n
0530: 41 01 10 01 42 80 99 41  01 10 01 1C 24 80 1D 43  A...B..A....$..C
0540: 80 23 01 76 05 02 00 00  44 80 80 63 05 6E 41 01  .#.v....D..c.nA.
0550: 10 01 45 80 99 41 01 10  01 1C 24 80 1D 46 80 23  ..E..A....$..F.#
0560: 01 76 05 6E 41 01 10 01  20 80 99 41 01 10 01 1C  .v.nA... ..A....
0570: 24 80 1D 47 80 23 1D 48  80 23 21 00              $..G.#.H.#!.    
```

#### Opcodes

```
  0: 0x04EE [0x03] ExtData[1]->WorkLocal[0] = Work_Zone[2]
  1: 0x04F3 [0x1E] EventEntity looks at LocalPlayer and starts talking
  2: 0x04F8 [0x6F] WAIT_FRAME_DELAY: Yield until WaitTime reaches zero
  3: 0x04F9 [0x70] WAIT_ENTITY_RENDER_FLAG: Wait while EventEntity->Render.Flags3 bit 2 is set (cancel turn if not)
  4: 0x04FA [0x4A] LocalPlayer looks at Gaddiux (ID: 17826113/0x01100141)
  5: 0x0503 [0x6F] WAIT_FRAME_DELAY: Yield until WaitTime reaches zero
  6: 0x0504 [0x76] CHECK_ENTITY_RENDER_FLAGS: Wait until LocalPlayer Render.Flags0 and Render.Flags3 conditions are met
  7: 0x0509 [0x02] IF !(ExtData[1]->WorkLocal[0] == 1*) GOTO 0x0527
  8: 0x0511 [0x6E] Gaddiux (ID: 17826113/0x01100141) uses emote 7*
  9: 0x0518 [0x99] Wait for Gaddiux (ID: 17826113/0x01100141) animation to complete
 10: 0x051D [0x1C] WAIT(60* ticks)
 11: 0x0520 [0x1D] PRINT_EVENT_MESSAGE(message_id=11641*)
    → "Hmmm... If I look really hard, I think I can see some space between the needle and the baseline."
 12: 0x0523 [0x23] WAIT_FOR_DIALOG_INTERACTION
 13: 0x0524 [0x01] GOTO 0x0576
 14: 0x0527 [0x02] IF !(ExtData[1]->WorkLocal[0] == 2*) GOTO 0x0545
 15: 0x052F [0x6E] Gaddiux (ID: 17826113/0x01100141) uses emote 11*
 16: 0x0536 [0x99] Wait for Gaddiux (ID: 17826113/0x01100141) animation to complete
 17: 0x053B [0x1C] WAIT(60* ticks)
 18: 0x053E [0x1D] PRINT_EVENT_MESSAGE(message_id=11642*)
    → "I see, I see... That's smack-dab in the middle of the meter, I'd say."
 19: 0x0541 [0x23] WAIT_FOR_DIALOG_INTERACTION
 20: 0x0542 [0x01] GOTO 0x0576
 21: 0x0545 [0x02] IF !(ExtData[1]->WorkLocal[0] == 3*) GOTO 0x0563
 22: 0x054D [0x6E] Gaddiux (ID: 17826113/0x01100141) uses emote 12*
 23: 0x0554 [0x99] Wait for Gaddiux (ID: 17826113/0x01100141) animation to complete
 24: 0x0559 [0x1C] WAIT(60* ticks)
 25: 0x055C [0x1D] PRINT_EVENT_MESSAGE(message_id=11643*)
    → "Ohohoho! You're extremely close. It's almost as if the needle's about to fly off the gauge, so palpable is the tension."
 26: 0x055F [0x23] WAIT_FOR_DIALOG_INTERACTION
 27: 0x0560 [0x01] GOTO 0x0576
 28: 0x0563 [0x6E] Gaddiux (ID: 17826113/0x01100141) uses emote 32*
 29: 0x056A [0x99] Wait for Gaddiux (ID: 17826113/0x01100141) animation to complete
 30: 0x056F [0x1C] WAIT(60* ticks)
 31: 0x0572 [0x1D] PRINT_EVENT_MESSAGE(message_id=11640*)
    → "Oh boy, oh boy, oh boy, I can't wait to--hey, it says you haven't even used it once!"
 32: 0x0575 [0x23] WAIT_FOR_DIALOG_INTERACTION

SUBROUTINE_0576:
 33: 0x0576 [0x1D] PRINT_EVENT_MESSAGE(message_id=11644*)
    → "If Amchuchu's hypothesis is correct, just keep swinging away and you'll eventually get there. Don't lose hope."
 34: 0x0579 [0x23] WAIT_FOR_DIALOG_INTERACTION
 35: 0x057A [0x21] END_EVENT
 36: 0x057B [0x00] END_REQSTACK()
```

### Event 5122

#### Metadata

| Field        | Value   |
|--------------|---------|
| Entrypoint   | 0x057C  |
| Data Size    | 1 bytes |
| Instructions | 1       |

```
      00 01 02 03 04 05 06 07  08 09 0A 0B 0C 0D 0E 0F
      -- -- -- -- -- -- -- --  -- -- -- -- -- -- -- --
0570:                                      00                       .   
```

#### Opcodes

```
  0: 0x057C [0x00] END_REQSTACK()
```
