# 17825937 - Levil

## Common Data

| Field            | Value                     |
|------------------|---------------------------|
| Zone             | Western Adoulin (ID: 256) |
| Block Size       | 1816 bytes                |
| Total Events     | 62                        |
| References Count | 101                       |

## List of Events

| Event ID                   | Entrypoint   |   Size |   Instructions |
|----------------------------|--------------|--------|----------------|
| [65535](#event-65535)      | 0x0000       |      1 |              1 |
| [3](#event-3)              | 0x0001       |      1 |              1 |
| [4](#event-4)              | 0x0002       |      1 |              1 |
| [6](#event-6)              | 0x0003       |      1 |              1 |
| [7](#event-7)              | 0x0004       |      1 |              1 |
| [9](#event-9)              | 0x0005       |      1 |              1 |
| [65535.1](#event-655351)   | 0x0006       |     15 |              5 |
| [65535.2](#event-655352)   | 0x0015       |     17 |              5 |
| [40](#event-40)            | 0x0026       |     40 |             13 |
| [65535.3](#event-655353)   | 0x004E       |     23 |              5 |
| [65535.4](#event-655354)   | 0x0065       |     14 |              4 |
| [102](#event-102)          | 0x0073       |     41 |             13 |
| [103](#event-103)          | 0x009C       |     29 |             11 |
| [123](#event-123)          | 0x00B9       |      1 |              1 |
| [124](#event-124)          | 0x00BA       |     25 |              7 |
| [125](#event-125)          | 0x00D3       |      1 |              1 |
| [126](#event-126)          | 0x00D4       |     33 |              9 |
| [127](#event-127)          | 0x00F5       |     45 |             11 |
| [129](#event-129)          | 0x0122       |      1 |              1 |
| [131](#event-131)          | 0x0123       |      1 |              1 |
| [132](#event-132)          | 0x0124       |      1 |              1 |
| [65535.5](#event-655355)   | 0x0125       |     14 |              4 |
| [133](#event-133)          | 0x0133       |      1 |              1 |
| [135](#event-135)          | 0x0134       |      1 |              1 |
| [137](#event-137)          | 0x0135       |      1 |              1 |
| [145](#event-145)          | 0x0136       |      1 |              1 |
| [138](#event-138)          | 0x0137       |     25 |              9 |
| [140](#event-140)          | 0x0150       |     21 |              7 |
| [141](#event-141)          | 0x0165       |     21 |              7 |
| [142](#event-142)          | 0x017A       |     25 |              9 |
| [143](#event-143)          | 0x0193       |     25 |              9 |
| [144](#event-144)          | 0x01AC       |     21 |              7 |
| [152](#event-152)          | 0x01C1       |     21 |              7 |
| [146](#event-146)          | 0x01D6       |     21 |              7 |
| [154](#event-154)          | 0x01EB       |      1 |              1 |
| [65535.6](#event-655356)   | 0x01EC       |     37 |              7 |
| [158](#event-158)          | 0x0211       |      1 |              1 |
| [159](#event-159)          | 0x0212       |      1 |              1 |
| [65535.7](#event-655357)   | 0x0213       |     17 |              5 |
| [160](#event-160)          | 0x0224       |      1 |              1 |
| [161](#event-161)          | 0x0225       |     21 |              7 |
| [164](#event-164)          | 0x023A       |     25 |              9 |
| [165](#event-165)          | 0x0253       |     21 |              7 |
| [166](#event-166)          | 0x0268       |     25 |              9 |
| [177](#event-177)          | 0x0281       |      1 |              1 |
| [180](#event-180)          | 0x0282       |     25 |              9 |
| [178](#event-178)          | 0x029B       |      1 |              1 |
| [183](#event-183)          | 0x029C       |     21 |              7 |
| [5218](#event-5218)        | 0x02B1       |      7 |              2 |
| [65535.8](#event-655358)   | 0x02B8       |     31 |              9 |
| [65535.9](#event-655359)   | 0x02D7       |     13 |              3 |
| [65535.10](#event-6553510) | 0x02E4       |     13 |              3 |
| [65535.11](#event-6553511) | 0x02F1       |     13 |              3 |
| [65535.12](#event-6553512) | 0x02FE       |      9 |              3 |
| [65535.13](#event-6553513) | 0x0307       |     96 |             19 |
| [5220](#event-5220)        | 0x0367       |      7 |              2 |
| [5221](#event-5221)        | 0x036E       |      7 |              2 |
| [65535.14](#event-6553514) | 0x0375       |     30 |              8 |
| [65535.15](#event-6553515) | 0x0393       |     74 |             16 |
| [5222](#event-5222)        | 0x03DD       |    111 |             32 |
| [5225](#event-5225)        | 0x044C       |      7 |              2 |
| [5226](#event-5226)        | 0x0453       |     38 |             14 |

## DAT References (imed_data)

|   Index | Hex Value   |   Dec Value |
|---------|-------------|-------------|
|       0 | 0x000B      |          11 |
|       1 | 0xFFFEA382  |  4294878082 |
|       2 | 0x3C78      |       15480 |
|       3 | 0x0D15      |        3349 |
|       4 | 0xFFFEA375  |  4294878069 |
|       5 | 0x408C      |       16524 |
|       6 | 0x001E      |          30 |
|       7 | 0x0001      |           1 |
|       8 | 0x210E      |        8462 |
|       9 | 0x210F      |        8463 |
|      10 | 0x2117      |        8471 |
|      11 | 0x000D      |          13 |
|      12 | 0xFFFEA68D  |  4294878861 |
|      13 | 0x24FD      |        9469 |
|      14 | 0xFFFEA395  |  4294878101 |
|      15 | 0x2E16      |       11798 |
|      16 | 0x2132      |        8498 |
|      17 | 0x2133      |        8499 |
|      18 | 0x2134      |        8500 |
|      19 | 0x2169      |        8553 |
|      20 | 0x216D      |        8557 |
|      21 | 0x216E      |        8558 |
|      22 | 0x3149      |       12617 |
|      23 | 0x314D      |       12621 |
|      24 | 0x3150      |       12624 |
|      25 | 0x216F      |        8559 |
|      26 | 0x2170      |        8560 |
|      27 | 0xFFFEA949  |  4294879561 |
|      28 | 0x3085      |       12421 |
|      29 | 0x21E1      |        8673 |
|      30 | 0x21E2      |        8674 |
|      31 | 0x2246      |        8774 |
|      32 | 0x2263      |        8803 |
|      33 | 0x2271      |        8817 |
|      34 | 0x2272      |        8818 |
|      35 | 0x22F3      |        8947 |
|      36 | 0x22F4      |        8948 |
|      37 | 0x2305      |        8965 |
|      38 | 0x230E      |        8974 |
|      39 | 0x31C8      |       12744 |
|      40 | 0xFFFFC692  |  4294952594 |
|      41 | 0x03E7      |         999 |
|      42 | 0x0009      |           9 |
|      43 | 0xFFFEA457  |  4294878295 |
|      44 | 0x2A23      |       10787 |
|      45 | 0x233F      |        9023 |
|      46 | 0x23A8      |        9128 |
|      47 | 0x23A9      |        9129 |
|      48 | 0x23E2      |        9186 |
|      49 | 0x23E5      |        9189 |
|      50 | 0x23E6      |        9190 |
|      51 | 0x316B      |       12651 |
|      52 | 0x316C      |       12652 |
|      53 | 0x3180      |       12672 |
|      54 | 0x0028      |          40 |
|      55 | 0xA028      |       41000 |
|      56 | 0xFFFFB564  |  4294948196 |
|      57 | 0x03E8      |        1000 |
|      58 | 0x7148      |       29000 |
|      59 | 0x07FF      |        2047 |
|      60 | 0x0024      |          36 |
|      61 | 0x062B      |        1579 |
|      62 | 0x0004      |           4 |
|      63 | 0x0005      |           5 |
|      64 | 0x003C      |          60 |
|      65 | 0x012C      |         300 |
|      66 | 0x0002      |           2 |
|      67 | 0x0000      |           0 |
|      68 | 0x0010      |          16 |
|      69 | 0x000C      |          12 |
|      70 | 0x000A      |          10 |
|      71 | 0xFFFF8008  |  4294934536 |
|      72 | 0xFFFE8AE0  |  4294871776 |
|      73 | 0xFFFFFD76  |  4294966646 |
|      74 | 0xFFFF7E32  |  4294934066 |
|      75 | 0xFFFE85EA  |  4294870506 |
|      76 | 0xFFFF7662  |  4294932066 |
|      77 | 0xFFFE7B9A  |  4294867866 |
|      78 | 0xFFFF6F28  |  4294930216 |
|      79 | 0xFFFE717C  |  4294865276 |
|      80 | 0xFFFF6D34  |  4294929716 |
|      81 | 0xFFFE68EE  |  4294863086 |
|      82 | 0xFFFF6E56  |  4294930006 |
|      83 | 0xFFFE6060  |  4294860896 |
|      84 | 0xFFFF71DA  |  4294930906 |
|      85 | 0xFFFE59BC  |  4294859196 |
|      86 | 0xFFFF7E46  |  4294934086 |
|      87 | 0xFFFE4BAC  |  4294855596 |
|      88 | 0x2BA2      |       11170 |
|      89 | 0x2BA1      |       11169 |
|      90 | 0x0078      |         120 |
|      91 | 0x2C0F      |       11279 |
|      92 | 0x2C10      |       11280 |
|      93 | 0x0006      |           6 |
|      94 | 0x2C11      |       11281 |
|      95 | 0x2C12      |       11282 |
|      96 | 0x010B      |         267 |
|      97 | 0x2C48      |       11336 |
|      98 | 0x2C49      |       11337 |
|      99 | 0x2C4A      |       11338 |
|     100 | 0x2C4B      |       11339 |

## String References

- **8462**: Maybe this is all in a day's work for you adventurers? I guess you've been lassoing Vana'diel's wildest afore the first bison drive.
- **8463**: Travelers've told many a tall tale about your exploits. I guess they weren't so tall after all...
- **8471**: You already adjusted to life on the good ol' Adoulin ranch? Hope so, because we're lookin' for you to wrangle us some big'uns, [sonny/missy].
- **8498**: We need information more than anything else--no use going in blind. You might be able to find out something at the Mummers' Coalition, what with all the pioneers coming and going.
- **8499**: (Not like I can say for sure...)
- **8500**: Hmm? Oh, pay my ramblings no heed. Goddessspeed, <Player>!
- **8553**: She guards it like a protective mother would guard her son. Never once has anyone seen her without it.
- **8557**: Not that I expect her to give it up like some piece of hard candy, but if you want to try, you can find the princess in Castle Adoulin.
- **8558**: Sure, it might be like wringing blood from a stone, but it's at least worth a shot! It's the only way to figure out what's going wrong with the land!
- **8673**: I'm sure her vessel will arrive at any moment, so you'd best hurry. She certainly would not take kindly to being kept waiting.
- **8674**: I've made sure she knows who to look for, and I'll send word to the castle so they'll be expecting you.
- **8774**: I heard the princess stumbled her way to the $7. Head there and see if you can take her mind off things.
- **8803**: My point is that Arciela may feel alone, but she's not. As our representative, stick by her through thick and thin so she knows just how important she is to this city!
- **8817**: That ol' Teodor fella has been milling about the Mummers' Coalition since Arciela was knee-high to a leafkin. No doubt you'll find him there.
- **8818**: While you're there, use my bayld to bring a smile to your face. Wish I could go along, too...but I'm stuck here for a while longer.
- **8947**: My weekend... My lunch...
- **8948**: Things are just getting worse and worse. <Player>, leave me to drown in my sorrows and head over to Celennia Memorial Library...
- **8965**: Hmmm...a tiger more golden than the shiniest belt buckle on the islands? Maybe the Scouts' Coalition knows. They lasso all sorts o' intelligence of a woodsy nature.
- **8974**: I just hope it doesn't come to something like that... Having the search party get lost underground would be a tragedy.
- **9023**: Our slave driver--er, maester--wants me to ask you to investigate the issue with the Couriers' Coalition.
- **9128**: Damn minister of finance, making my life a living apocalypse!
- **9129**: ...Oooh, feels kind of nice to blame someone besides Lhe once in a while. Anyway, I'm sure we'll need your help soon enough, so don't stray too far.
- **9186**: Why're you here all by your lonesome and not out escorting the princess!? Didn't my talk scare you straight at all?
- **9189**: I've never been out there myself, but it doesn't make any sense. There's no business for a forest to be in that desolate wasteland.
- **9190**: On the other hand, Ulbuka is a land of mysteries. Who can really tell? Yorcia and Hennetiel are forests, and the soil there reeks of poison.
- **11169**: That guy'll never know what hit him!
- **11170**: I'm heading over to the Mummers' Coalition as soon as I'm on my break.
- **11279**: The Viridian Aristocrat... He's one tough customer.
- **11280**: Let's head over to the Mummers' Coalition as soon as my break starts!
- **11281**: B cut short, that reduces the amount of time I can spend at the Mummers' Coalition...
- **11282**: Now that I think about it, <Player>, can you really afford to be wasting time like this?
- **11336**: Phew... I was fortunately able to get out of having to go to $8. It only cost me my next day off...
- **11337**: Although, it's not like the princess takes any breaks. I suppose I just need to buckle down and work harder.
- **11338**: By the way, didn't Leathery Lhe tell you to go visit Arciela?
- **11339**: You'd better hurry up and do it, if you know what's good for you.
- **12651**: <Player>...if anyone knows how to rouse her spirits, it's you.
- **12652**: Go to Arciela--for both our sakes.
- **12672**: Now that I think about it, I haven't seen Arciela 'round here recently. I think you'd better make sure she's all right.

## Events

### Event 65535

#### Metadata

| Field        | Value   |
|--------------|---------|
| Entrypoint   | 0x0000  |
| Data Size    | 1 bytes |
| Instructions | 1       |

```
      00 01 02 03 04 05 06 07  08 09 0A 0B 0C 0D 0E 0F
      -- -- -- -- -- -- -- --  -- -- -- -- -- -- -- --
0000: 00                                                .               
```

#### Opcodes

```
  0: 0x0000 [0x00] END_REQSTACK()
```

### Event 3

#### Metadata

| Field        | Value   |
|--------------|---------|
| Entrypoint   | 0x0001  |
| Data Size    | 1 bytes |
| Instructions | 1       |

```
      00 01 02 03 04 05 06 07  08 09 0A 0B 0C 0D 0E 0F
      -- -- -- -- -- -- -- --  -- -- -- -- -- -- -- --
0000:    00                                              .              
```

#### Opcodes

```
  0: 0x0001 [0x00] END_REQSTACK()
```

### Event 4

#### Metadata

| Field        | Value   |
|--------------|---------|
| Entrypoint   | 0x0002  |
| Data Size    | 1 bytes |
| Instructions | 1       |

```
      00 01 02 03 04 05 06 07  08 09 0A 0B 0C 0D 0E 0F
      -- -- -- -- -- -- -- --  -- -- -- -- -- -- -- --
0000:       00                                            .             
```

#### Opcodes

```
  0: 0x0002 [0x00] END_REQSTACK()
```

### Event 6

#### Metadata

| Field        | Value   |
|--------------|---------|
| Entrypoint   | 0x0003  |
| Data Size    | 1 bytes |
| Instructions | 1       |

```
      00 01 02 03 04 05 06 07  08 09 0A 0B 0C 0D 0E 0F
      -- -- -- -- -- -- -- --  -- -- -- -- -- -- -- --
0000:          00                                          .            
```

#### Opcodes

```
  0: 0x0003 [0x00] END_REQSTACK()
```

### Event 7

#### Metadata

| Field        | Value   |
|--------------|---------|
| Entrypoint   | 0x0004  |
| Data Size    | 1 bytes |
| Instructions | 1       |

```
      00 01 02 03 04 05 06 07  08 09 0A 0B 0C 0D 0E 0F
      -- -- -- -- -- -- -- --  -- -- -- -- -- -- -- --
0000:             00                                        .           
```

#### Opcodes

```
  0: 0x0004 [0x00] END_REQSTACK()
```

### Event 9

#### Metadata

| Field        | Value   |
|--------------|---------|
| Entrypoint   | 0x0005  |
| Data Size    | 1 bytes |
| Instructions | 1       |

```
      00 01 02 03 04 05 06 07  08 09 0A 0B 0C 0D 0E 0F
      -- -- -- -- -- -- -- --  -- -- -- -- -- -- -- --
0000:                00                                      .          
```

#### Opcodes

```
  0: 0x0005 [0x00] END_REQSTACK()
```

### Event 65535.1

#### Metadata

| Field        | Value    |
|--------------|----------|
| Entrypoint   | 0x0006   |
| Data Size    | 15 bytes |
| Instructions | 5        |

```
      00 01 02 03 04 05 06 07  08 09 0A 0B 0C 0D 0E 0F
      -- -- -- -- -- -- -- --  -- -- -- -- -- -- -- --
0000:                   32 00  80 1F 00 01 80 02 80 03        2.........
0010: 80 1F 01 6F 00                                    ...o.           
```

#### Opcodes

```
  0: 0x0006 [0x32] ExtData[1]->MainSpeed = 11* * 0.1
  1: 0x0009 [0x1F] MOVE_ENTITY: EventEntity moves to X=-89.214*, Z=15.480*, Y=3.349*
  2: 0x0011 [0x1F] MOVE_ENTITY: Update entity position (mode=1)
  3: 0x0013 [0x6F] WAIT_FRAME_DELAY: Yield until WaitTime reaches zero
  4: 0x0014 [0x00] END_REQSTACK()
```

### Event 65535.2

#### Metadata

| Field        | Value    |
|--------------|----------|
| Entrypoint   | 0x0015   |
| Data Size    | 17 bytes |
| Instructions | 5        |

```
      00 01 02 03 04 05 06 07  08 09 0A 0B 0C 0D 0E 0F
      -- -- -- -- -- -- -- --  -- -- -- -- -- -- -- --
0010:                32 00 80  1F 00 04 80 05 80 03 80       2..........
0020: 1F 01 1C 06 80 00                                 ......          
```

#### Opcodes

```
  0: 0x0015 [0x32] ExtData[1]->MainSpeed = 11* * 0.1
  1: 0x0018 [0x1F] MOVE_ENTITY: EventEntity moves to X=-89.227*, Z=16.524*, Y=3.349*
  2: 0x0020 [0x1F] MOVE_ENTITY: Update entity position (mode=1)
  3: 0x0022 [0x1C] WAIT(30* ticks)
  4: 0x0025 [0x00] END_REQSTACK()
```

### Event 40

#### Metadata

| Field        | Value    |
|--------------|----------|
| Entrypoint   | 0x0026   |
| Data Size    | 40 bytes |
| Instructions | 13       |

```
      00 01 02 03 04 05 06 07  08 09 0A 0B 0C 0D 0E 0F
      -- -- -- -- -- -- -- --  -- -- -- -- -- -- -- --
0020:                   4A F8  FF FF 7F F0 FF FF 7F 6F        J........o
0030: 76 F8 FF FF 7F 02 03 10  07 80 04 48 00 1D 08 80  v..........H....
0040: 23 1D 09 80 23 01 4C 00  1D 0A 80 23 21 00        #...#.L....#!.  
```

#### Opcodes

```
  0: 0x0026 [0x4A] EventEntity looks at LocalPlayer
  1: 0x002F [0x6F] WAIT_FRAME_DELAY: Yield until WaitTime reaches zero
  2: 0x0030 [0x76] CHECK_ENTITY_RENDER_FLAGS: Wait until EventEntity Render.Flags0 and Render.Flags3 conditions are met
  3: 0x0035 [0x02] IF !(Work_Zone[3] < 1*) GOTO 0x0048
  4: 0x003D [0x1D] PRINT_EVENT_MESSAGE(message_id=8462*)
    → "Maybe this is all in a day's work for you adventurers? I guess you've been lassoing Vana'diel's wildest afore the first bison drive."
  5: 0x0040 [0x23] WAIT_FOR_DIALOG_INTERACTION
  6: 0x0041 [0x1D] PRINT_EVENT_MESSAGE(message_id=8463*)
    → "Travelers've told many a tall tale about your exploits. I guess they weren't so tall after all..."
  7: 0x0044 [0x23] WAIT_FOR_DIALOG_INTERACTION
  8: 0x0045 [0x01] GOTO 0x004C
  9: 0x0048 [0x1D] PRINT_EVENT_MESSAGE(message_id=8471*)
    → "You already adjusted to life on the good ol' Adoulin ranch? Hope so, because we're lookin' for you to wrangle us some big'uns, [sonny/missy]."
 10: 0x004B [0x23] WAIT_FOR_DIALOG_INTERACTION

SUBROUTINE_004C:
 11: 0x004C [0x21] END_EVENT
 12: 0x004D [0x00] END_REQSTACK()
```

### Event 65535.3

#### Metadata

| Field        | Value    |
|--------------|----------|
| Entrypoint   | 0x004E   |
| Data Size    | 23 bytes |
| Instructions | 5        |

```
      00 01 02 03 04 05 06 07  08 09 0A 0B 0C 0D 0E 0F
      -- -- -- -- -- -- -- --  -- -- -- -- -- -- -- --
0040:                                            32 0B                2.
0050: 80 1F 00 0C 80 0D 80 03  80 1F 01 4A F0 FF FF 7F  ...........J....
0060: F8 FF FF 7F 00                                    .....           
```

#### Opcodes

```
  0: 0x004E [0x32] ExtData[1]->MainSpeed = 13* * 0.1
  1: 0x0051 [0x1F] MOVE_ENTITY: EventEntity moves to X=-88.435*, Z=9.469*, Y=3.349*
  2: 0x0059 [0x1F] MOVE_ENTITY: Update entity position (mode=1)
  3: 0x005B [0x4A] LocalPlayer looks at EventEntity
  4: 0x0064 [0x00] END_REQSTACK()
```

### Event 65535.4

#### Metadata

| Field        | Value    |
|--------------|----------|
| Entrypoint   | 0x0065   |
| Data Size    | 14 bytes |
| Instructions | 4        |

```
      00 01 02 03 04 05 06 07  08 09 0A 0B 0C 0D 0E 0F
      -- -- -- -- -- -- -- --  -- -- -- -- -- -- -- --
0060:                32 0B 80  1F 00 0E 80 0F 80 03 80       2..........
0070: 1F 01 00                                          ...             
```

#### Opcodes

```
  0: 0x0065 [0x32] ExtData[1]->MainSpeed = 13* * 0.1
  1: 0x0068 [0x1F] MOVE_ENTITY: EventEntity moves to X=-89.195*, Z=11.798*, Y=3.349*
  2: 0x0070 [0x1F] MOVE_ENTITY: Update entity position (mode=1)
  3: 0x0072 [0x00] END_REQSTACK()
```

### Event 102

#### Metadata

| Field        | Value    |
|--------------|----------|
| Entrypoint   | 0x0073   |
| Data Size    | 41 bytes |
| Instructions | 13       |

```
      00 01 02 03 04 05 06 07  08 09 0A 0B 0C 0D 0E 0F
      -- -- -- -- -- -- -- --  -- -- -- -- -- -- -- --
0070:          4A F8 FF FF 7F  F0 FF FF 7F 6F 76 F8 FF     J........ov..
0080: FF 7F 1D 10 80 23 7C 00  91 00 10 01 1D 11 80 23  .....#|........#
0090: 7C 01 91 00 10 01 1D 12  80 23 21 00              |........#!.    
```

#### Opcodes

```
  0: 0x0073 [0x4A] EventEntity looks at LocalPlayer
  1: 0x007C [0x6F] WAIT_FRAME_DELAY: Yield until WaitTime reaches zero
  2: 0x007D [0x76] CHECK_ENTITY_RENDER_FLAGS: Wait until EventEntity Render.Flags0 and Render.Flags3 conditions are met
  3: 0x0082 [0x1D] PRINT_EVENT_MESSAGE(message_id=8498*)
    → "We need information more than anything else--no use going in blind. You might be able to find out something at the Mummers' Coalition, what with all the pioneers coming and going."
  4: 0x0085 [0x23] WAIT_FOR_DIALOG_INTERACTION
  5: 0x0086 [0x7C] Levil (ID: 17825937/0x01100091)->Render.Flags2 |= 0x00
  6: 0x008C [0x1D] PRINT_EVENT_MESSAGE(message_id=8499*)
    → "(Not like I can say for sure...)"
  7: 0x008F [0x23] WAIT_FOR_DIALOG_INTERACTION
  8: 0x0090 [0x7C] Levil (ID: 17825937/0x01100091)->Render.Flags2 |= 0x01
  9: 0x0096 [0x1D] PRINT_EVENT_MESSAGE(message_id=8500*)
    → "Hmm? Oh, pay my ramblings no heed. Goddessspeed, <Player>!"
 10: 0x0099 [0x23] WAIT_FOR_DIALOG_INTERACTION
 11: 0x009A [0x21] END_EVENT
 12: 0x009B [0x00] END_REQSTACK()
```

### Event 103

#### Metadata

| Field        | Value    |
|--------------|----------|
| Entrypoint   | 0x009C   |
| Data Size    | 29 bytes |
| Instructions | 11       |

```
      00 01 02 03 04 05 06 07  08 09 0A 0B 0C 0D 0E 0F
      -- -- -- -- -- -- -- --  -- -- -- -- -- -- -- --
0090:                                      4A F8 FF FF              J...
00A0: 7F F0 FF FF 7F 6F 76 F8  FF FF 7F 1D 13 80 23 1D  .....ov.......#.
00B0: 14 80 23 1D 15 80 23 21  00                       ..#...#!.       
```

#### Opcodes

```
  0: 0x009C [0x4A] EventEntity looks at LocalPlayer
  1: 0x00A5 [0x6F] WAIT_FRAME_DELAY: Yield until WaitTime reaches zero
  2: 0x00A6 [0x76] CHECK_ENTITY_RENDER_FLAGS: Wait until EventEntity Render.Flags0 and Render.Flags3 conditions are met
  3: 0x00AB [0x1D] PRINT_EVENT_MESSAGE(message_id=8553*)
    → "She guards it like a protective mother would guard her son. Never once has anyone seen her without it."
  4: 0x00AE [0x23] WAIT_FOR_DIALOG_INTERACTION
  5: 0x00AF [0x1D] PRINT_EVENT_MESSAGE(message_id=8557*)
    → "Not that I expect her to give it up like some piece of hard candy, but if you want to try, you can find the princess in Castle Adoulin."
  6: 0x00B2 [0x23] WAIT_FOR_DIALOG_INTERACTION
  7: 0x00B3 [0x1D] PRINT_EVENT_MESSAGE(message_id=8558*)
    → "Sure, it might be like wringing blood from a stone, but it's at least worth a shot! It's the only way to figure out what's going wrong with the land!"
  8: 0x00B6 [0x23] WAIT_FOR_DIALOG_INTERACTION
  9: 0x00B7 [0x21] END_EVENT
 10: 0x00B8 [0x00] END_REQSTACK()
```

### Event 123

#### Metadata

| Field        | Value   |
|--------------|---------|
| Entrypoint   | 0x00B9  |
| Data Size    | 1 bytes |
| Instructions | 1       |

```
      00 01 02 03 04 05 06 07  08 09 0A 0B 0C 0D 0E 0F
      -- -- -- -- -- -- -- --  -- -- -- -- -- -- -- --
00B0:                             00                             .      
```

#### Opcodes

```
  0: 0x00B9 [0x00] END_REQSTACK()
```

### Event 124

#### Metadata

| Field        | Value    |
|--------------|----------|
| Entrypoint   | 0x00BA   |
| Data Size    | 25 bytes |
| Instructions | 7        |

```
      00 01 02 03 04 05 06 07  08 09 0A 0B 0C 0D 0E 0F
      -- -- -- -- -- -- -- --  -- -- -- -- -- -- -- --
00B0:                                4A F8 FF FF 7F F0            J.....
00C0: FF FF 7F 6F 76 F8 FF FF  7F 2B 91 00 10 01 16 80  ...ov....+......
00D0: 23 21 00                                          #!.             
```

#### Opcodes

```
  0: 0x00BA [0x4A] EventEntity looks at LocalPlayer
  1: 0x00C3 [0x6F] WAIT_FRAME_DELAY: Yield until WaitTime reaches zero
  2: 0x00C4 [0x76] CHECK_ENTITY_RENDER_FLAGS: Wait until EventEntity Render.Flags0 and Render.Flags3 conditions are met
  3: 0x00C9 [0x2B] Levil (ID: 17825937/0x01100091) [12617*]:
    → "...Well, I ain't much of no reader, but iff'n yer lookin' to turn a page or two about all the ill will between the two factions, the $7 is a good place to start."
  4: 0x00D0 [0x23] WAIT_FOR_DIALOG_INTERACTION
  5: 0x00D1 [0x21] END_EVENT
  6: 0x00D2 [0x00] END_REQSTACK()
```

### Event 125

#### Metadata

| Field        | Value   |
|--------------|---------|
| Entrypoint   | 0x00D3  |
| Data Size    | 1 bytes |
| Instructions | 1       |

```
      00 01 02 03 04 05 06 07  08 09 0A 0B 0C 0D 0E 0F
      -- -- -- -- -- -- -- --  -- -- -- -- -- -- -- --
00D0:          00                                          .            
```

#### Opcodes

```
  0: 0x00D3 [0x00] END_REQSTACK()
```

### Event 126

#### Metadata

| Field        | Value    |
|--------------|----------|
| Entrypoint   | 0x00D4   |
| Data Size    | 33 bytes |
| Instructions | 9        |

```
      00 01 02 03 04 05 06 07  08 09 0A 0B 0C 0D 0E 0F
      -- -- -- -- -- -- -- --  -- -- -- -- -- -- -- --
00D0:             4A F8 FF FF  7F F0 FF FF 7F 6F 76 F8      J........ov.
00E0: FF FF 7F 2B 91 00 10 01  17 80 23 2B 91 00 10 01  ...+......#+....
00F0: 18 80 23 21 00                                    ..#!.           
```

#### Opcodes

```
  0: 0x00D4 [0x4A] EventEntity looks at LocalPlayer
  1: 0x00DD [0x6F] WAIT_FRAME_DELAY: Yield until WaitTime reaches zero
  2: 0x00DE [0x76] CHECK_ENTITY_RENDER_FLAGS: Wait until EventEntity Render.Flags0 and Render.Flags3 conditions are met
  3: 0x00E3 [0x2B] Levil (ID: 17825937/0x01100091) [12621*]:
    → "We've heard a few whoops 'n 'ollers from concerned citizens about some young people skirtin' in 'n out of the waterways. It looks like they're up to no good, given all the whisperin' and mumblin' they do."
  4: 0x00EA [0x23] WAIT_FOR_DIALOG_INTERACTION
  5: 0x00EB [0x2B] Levil (ID: 17825937/0x01100091) [12624*]:
    → "Could you do me a favor and mosey on down to the Rala Waterways to check things out?"
  6: 0x00F2 [0x23] WAIT_FOR_DIALOG_INTERACTION
  7: 0x00F3 [0x21] END_EVENT
  8: 0x00F4 [0x00] END_REQSTACK()
```

### Event 127

#### Metadata

| Field        | Value    |
|--------------|----------|
| Entrypoint   | 0x00F5   |
| Data Size    | 45 bytes |
| Instructions | 11       |

```
      00 01 02 03 04 05 06 07  08 09 0A 0B 0C 0D 0E 0F
      -- -- -- -- -- -- -- --  -- -- -- -- -- -- -- --
00F0:                4A F8 FF  FF 7F F0 FF FF 7F 6F 76       J........ov
0100: F8 FF FF 7F 2B 91 00 10  01 19 80 23 7C 00 91 00  ....+......#|...
0110: 10 01 2B 91 00 10 01 1A  80 23 7C 01 91 00 10 01  ..+......#|.....
0120: 21 00                                             !.              
```

#### Opcodes

```
  0: 0x00F5 [0x4A] EventEntity looks at LocalPlayer
  1: 0x00FE [0x6F] WAIT_FRAME_DELAY: Yield until WaitTime reaches zero
  2: 0x00FF [0x76] CHECK_ENTITY_RENDER_FLAGS: Wait until EventEntity Render.Flags0 and Render.Flags3 conditions are met
  3: 0x0104 [0x2B] Levil (ID: 17825937/0x01100091) [8559*]:
    → "So, hey...there've been rumors you were spotted together with Arciela in the jungle. (For Altana's sake, didn't I tell [him/her] to find Arciela at the castle, not by traipsing about Ulbuka?)"
  4: 0x010B [0x23] WAIT_FOR_DIALOG_INTERACTION
  5: 0x010C [0x7C] Levil (ID: 17825937/0x01100091)->Render.Flags2 |= 0x00
  6: 0x0112 [0x2B] Levil (ID: 17825937/0x01100091) [8560*]:
    → "Well, that'll teach me to go sticking my nose into things. Just go along with your business."
  7: 0x0119 [0x23] WAIT_FOR_DIALOG_INTERACTION
  8: 0x011A [0x7C] Levil (ID: 17825937/0x01100091)->Render.Flags2 |= 0x01
  9: 0x0120 [0x21] END_EVENT
 10: 0x0121 [0x00] END_REQSTACK()
```

### Event 129

#### Metadata

| Field        | Value   |
|--------------|---------|
| Entrypoint   | 0x0122  |
| Data Size    | 1 bytes |
| Instructions | 1       |

```
      00 01 02 03 04 05 06 07  08 09 0A 0B 0C 0D 0E 0F
      -- -- -- -- -- -- -- --  -- -- -- -- -- -- -- --
0120:       00                                            .             
```

#### Opcodes

```
  0: 0x0122 [0x00] END_REQSTACK()
```

### Event 131

#### Metadata

| Field        | Value   |
|--------------|---------|
| Entrypoint   | 0x0123  |
| Data Size    | 1 bytes |
| Instructions | 1       |

```
      00 01 02 03 04 05 06 07  08 09 0A 0B 0C 0D 0E 0F
      -- -- -- -- -- -- -- --  -- -- -- -- -- -- -- --
0120:          00                                          .            
```

#### Opcodes

```
  0: 0x0123 [0x00] END_REQSTACK()
```

### Event 132

#### Metadata

| Field        | Value   |
|--------------|---------|
| Entrypoint   | 0x0124  |
| Data Size    | 1 bytes |
| Instructions | 1       |

```
      00 01 02 03 04 05 06 07  08 09 0A 0B 0C 0D 0E 0F
      -- -- -- -- -- -- -- --  -- -- -- -- -- -- -- --
0120:             00                                        .           
```

#### Opcodes

```
  0: 0x0124 [0x00] END_REQSTACK()
```

### Event 65535.5

#### Metadata

| Field        | Value    |
|--------------|----------|
| Entrypoint   | 0x0125   |
| Data Size    | 14 bytes |
| Instructions | 4        |

```
      00 01 02 03 04 05 06 07  08 09 0A 0B 0C 0D 0E 0F
      -- -- -- -- -- -- -- --  -- -- -- -- -- -- -- --
0120:                32 0B 80  1F 00 1B 80 1C 80 03 80       2..........
0130: 1F 01 00                                          ...             
```

#### Opcodes

```
  0: 0x0125 [0x32] ExtData[1]->MainSpeed = 13* * 0.1
  1: 0x0128 [0x1F] MOVE_ENTITY: EventEntity moves to X=-87.735*, Z=12.421*, Y=3.349*
  2: 0x0130 [0x1F] MOVE_ENTITY: Update entity position (mode=1)
  3: 0x0132 [0x00] END_REQSTACK()
```

### Event 133

#### Metadata

| Field        | Value   |
|--------------|---------|
| Entrypoint   | 0x0133  |
| Data Size    | 1 bytes |
| Instructions | 1       |

```
      00 01 02 03 04 05 06 07  08 09 0A 0B 0C 0D 0E 0F
      -- -- -- -- -- -- -- --  -- -- -- -- -- -- -- --
0130:          00                                          .            
```

#### Opcodes

```
  0: 0x0133 [0x00] END_REQSTACK()
```

### Event 135

#### Metadata

| Field        | Value   |
|--------------|---------|
| Entrypoint   | 0x0134  |
| Data Size    | 1 bytes |
| Instructions | 1       |

```
      00 01 02 03 04 05 06 07  08 09 0A 0B 0C 0D 0E 0F
      -- -- -- -- -- -- -- --  -- -- -- -- -- -- -- --
0130:             00                                        .           
```

#### Opcodes

```
  0: 0x0134 [0x00] END_REQSTACK()
```

### Event 137

#### Metadata

| Field        | Value   |
|--------------|---------|
| Entrypoint   | 0x0135  |
| Data Size    | 1 bytes |
| Instructions | 1       |

```
      00 01 02 03 04 05 06 07  08 09 0A 0B 0C 0D 0E 0F
      -- -- -- -- -- -- -- --  -- -- -- -- -- -- -- --
0130:                00                                      .          
```

#### Opcodes

```
  0: 0x0135 [0x00] END_REQSTACK()
```

### Event 145

#### Metadata

| Field        | Value   |
|--------------|---------|
| Entrypoint   | 0x0136  |
| Data Size    | 1 bytes |
| Instructions | 1       |

```
      00 01 02 03 04 05 06 07  08 09 0A 0B 0C 0D 0E 0F
      -- -- -- -- -- -- -- --  -- -- -- -- -- -- -- --
0130:                   00                                    .         
```

#### Opcodes

```
  0: 0x0136 [0x00] END_REQSTACK()
```

### Event 138

#### Metadata

| Field        | Value    |
|--------------|----------|
| Entrypoint   | 0x0137   |
| Data Size    | 25 bytes |
| Instructions | 9        |

```
      00 01 02 03 04 05 06 07  08 09 0A 0B 0C 0D 0E 0F
      -- -- -- -- -- -- -- --  -- -- -- -- -- -- -- --
0130:                      4A  F8 FF FF 7F F0 FF FF 7F         J........
0140: 6F 76 F8 FF FF 7F 1D 1D  80 23 1D 1E 80 23 21 00  ov.......#...#!.
```

#### Opcodes

```
  0: 0x0137 [0x4A] EventEntity looks at LocalPlayer
  1: 0x0140 [0x6F] WAIT_FRAME_DELAY: Yield until WaitTime reaches zero
  2: 0x0141 [0x76] CHECK_ENTITY_RENDER_FLAGS: Wait until EventEntity Render.Flags0 and Render.Flags3 conditions are met
  3: 0x0146 [0x1D] PRINT_EVENT_MESSAGE(message_id=8673*)
    → "I'm sure her vessel will arrive at any moment, so you'd best hurry. She certainly would not take kindly to being kept waiting."
  4: 0x0149 [0x23] WAIT_FOR_DIALOG_INTERACTION
  5: 0x014A [0x1D] PRINT_EVENT_MESSAGE(message_id=8674*)
    → "I've made sure she knows who to look for, and I'll send word to the castle so they'll be expecting you."
  6: 0x014D [0x23] WAIT_FOR_DIALOG_INTERACTION
  7: 0x014E [0x21] END_EVENT
  8: 0x014F [0x00] END_REQSTACK()
```

### Event 140

#### Metadata

| Field        | Value    |
|--------------|----------|
| Entrypoint   | 0x0150   |
| Data Size    | 21 bytes |
| Instructions | 7        |

```
      00 01 02 03 04 05 06 07  08 09 0A 0B 0C 0D 0E 0F
      -- -- -- -- -- -- -- --  -- -- -- -- -- -- -- --
0150: 4A F8 FF FF 7F F0 FF FF  7F 6F 76 F8 FF FF 7F 1D  J........ov.....
0160: 1F 80 23 21 00                                    ..#!.           
```

#### Opcodes

```
  0: 0x0150 [0x4A] EventEntity looks at LocalPlayer
  1: 0x0159 [0x6F] WAIT_FRAME_DELAY: Yield until WaitTime reaches zero
  2: 0x015A [0x76] CHECK_ENTITY_RENDER_FLAGS: Wait until EventEntity Render.Flags0 and Render.Flags3 conditions are met
  3: 0x015F [0x1D] PRINT_EVENT_MESSAGE(message_id=8774*)
    → "I heard the princess stumbled her way to the $7. Head there and see if you can take her mind off things."
  4: 0x0162 [0x23] WAIT_FOR_DIALOG_INTERACTION
  5: 0x0163 [0x21] END_EVENT
  6: 0x0164 [0x00] END_REQSTACK()
```

### Event 141

#### Metadata

| Field        | Value    |
|--------------|----------|
| Entrypoint   | 0x0165   |
| Data Size    | 21 bytes |
| Instructions | 7        |

```
      00 01 02 03 04 05 06 07  08 09 0A 0B 0C 0D 0E 0F
      -- -- -- -- -- -- -- --  -- -- -- -- -- -- -- --
0160:                4A F8 FF  FF 7F F0 FF FF 7F 6F 76       J........ov
0170: F8 FF FF 7F 1D 20 80 23  21 00                    ..... .#!.      
```

#### Opcodes

```
  0: 0x0165 [0x4A] EventEntity looks at LocalPlayer
  1: 0x016E [0x6F] WAIT_FRAME_DELAY: Yield until WaitTime reaches zero
  2: 0x016F [0x76] CHECK_ENTITY_RENDER_FLAGS: Wait until EventEntity Render.Flags0 and Render.Flags3 conditions are met
  3: 0x0174 [0x1D] PRINT_EVENT_MESSAGE(message_id=8803*)
    → "My point is that Arciela may feel alone, but she's not. As our representative, stick by her through thick and thin so she knows just how important she is to this city!"
  4: 0x0177 [0x23] WAIT_FOR_DIALOG_INTERACTION
  5: 0x0178 [0x21] END_EVENT
  6: 0x0179 [0x00] END_REQSTACK()
```

### Event 142

#### Metadata

| Field        | Value    |
|--------------|----------|
| Entrypoint   | 0x017A   |
| Data Size    | 25 bytes |
| Instructions | 9        |

```
      00 01 02 03 04 05 06 07  08 09 0A 0B 0C 0D 0E 0F
      -- -- -- -- -- -- -- --  -- -- -- -- -- -- -- --
0170:                                4A F8 FF FF 7F F0            J.....
0180: FF FF 7F 6F 76 F8 FF FF  7F 1D 21 80 23 1D 22 80  ...ov.....!.#.".
0190: 23 21 00                                          #!.             
```

#### Opcodes

```
  0: 0x017A [0x4A] EventEntity looks at LocalPlayer
  1: 0x0183 [0x6F] WAIT_FRAME_DELAY: Yield until WaitTime reaches zero
  2: 0x0184 [0x76] CHECK_ENTITY_RENDER_FLAGS: Wait until EventEntity Render.Flags0 and Render.Flags3 conditions are met
  3: 0x0189 [0x1D] PRINT_EVENT_MESSAGE(message_id=8817*)
    → "That ol' Teodor fella has been milling about the Mummers' Coalition since Arciela was knee-high to a leafkin. No doubt you'll find him there."
  4: 0x018C [0x23] WAIT_FOR_DIALOG_INTERACTION
  5: 0x018D [0x1D] PRINT_EVENT_MESSAGE(message_id=8818*)
    → "While you're there, use my bayld to bring a smile to your face. Wish I could go along, too...but I'm stuck here for a while longer."
  6: 0x0190 [0x23] WAIT_FOR_DIALOG_INTERACTION
  7: 0x0191 [0x21] END_EVENT
  8: 0x0192 [0x00] END_REQSTACK()
```

### Event 143

#### Metadata

| Field        | Value    |
|--------------|----------|
| Entrypoint   | 0x0193   |
| Data Size    | 25 bytes |
| Instructions | 9        |

```
      00 01 02 03 04 05 06 07  08 09 0A 0B 0C 0D 0E 0F
      -- -- -- -- -- -- -- --  -- -- -- -- -- -- -- --
0190:          4A F8 FF FF 7F  F0 FF FF 7F 6F 76 F8 FF     J........ov..
01A0: FF 7F 1D 23 80 23 1D 24  80 23 21 00              ...#.#.$.#!.    
```

#### Opcodes

```
  0: 0x0193 [0x4A] EventEntity looks at LocalPlayer
  1: 0x019C [0x6F] WAIT_FRAME_DELAY: Yield until WaitTime reaches zero
  2: 0x019D [0x76] CHECK_ENTITY_RENDER_FLAGS: Wait until EventEntity Render.Flags0 and Render.Flags3 conditions are met
  3: 0x01A2 [0x1D] PRINT_EVENT_MESSAGE(message_id=8947*)
    → "My weekend... My lunch..."
  4: 0x01A5 [0x23] WAIT_FOR_DIALOG_INTERACTION
  5: 0x01A6 [0x1D] PRINT_EVENT_MESSAGE(message_id=8948*)
    → "Things are just getting worse and worse. <Player>, leave me to drown in my sorrows and head over to Celennia Memorial Library..."
  6: 0x01A9 [0x23] WAIT_FOR_DIALOG_INTERACTION
  7: 0x01AA [0x21] END_EVENT
  8: 0x01AB [0x00] END_REQSTACK()
```

### Event 144

#### Metadata

| Field        | Value    |
|--------------|----------|
| Entrypoint   | 0x01AC   |
| Data Size    | 21 bytes |
| Instructions | 7        |

```
      00 01 02 03 04 05 06 07  08 09 0A 0B 0C 0D 0E 0F
      -- -- -- -- -- -- -- --  -- -- -- -- -- -- -- --
01A0:                                      4A F8 FF FF              J...
01B0: 7F F0 FF FF 7F 6F 76 F8  FF FF 7F 1D 25 80 23 21  .....ov.....%.#!
01C0: 00                                                .               
```

#### Opcodes

```
  0: 0x01AC [0x4A] EventEntity looks at LocalPlayer
  1: 0x01B5 [0x6F] WAIT_FRAME_DELAY: Yield until WaitTime reaches zero
  2: 0x01B6 [0x76] CHECK_ENTITY_RENDER_FLAGS: Wait until EventEntity Render.Flags0 and Render.Flags3 conditions are met
  3: 0x01BB [0x1D] PRINT_EVENT_MESSAGE(message_id=8965*)
    → "Hmmm...a tiger more golden than the shiniest belt buckle on the islands? Maybe the Scouts' Coalition knows. They lasso all sorts o' intelligence of a woodsy nature."
  4: 0x01BE [0x23] WAIT_FOR_DIALOG_INTERACTION
  5: 0x01BF [0x21] END_EVENT
  6: 0x01C0 [0x00] END_REQSTACK()
```

### Event 152

#### Metadata

| Field        | Value    |
|--------------|----------|
| Entrypoint   | 0x01C1   |
| Data Size    | 21 bytes |
| Instructions | 7        |

```
      00 01 02 03 04 05 06 07  08 09 0A 0B 0C 0D 0E 0F
      -- -- -- -- -- -- -- --  -- -- -- -- -- -- -- --
01C0:    4A F8 FF FF 7F F0 FF  FF 7F 6F 76 F8 FF FF 7F   J........ov....
01D0: 1D 26 80 23 21 00                                 .&.#!.          
```

#### Opcodes

```
  0: 0x01C1 [0x4A] EventEntity looks at LocalPlayer
  1: 0x01CA [0x6F] WAIT_FRAME_DELAY: Yield until WaitTime reaches zero
  2: 0x01CB [0x76] CHECK_ENTITY_RENDER_FLAGS: Wait until EventEntity Render.Flags0 and Render.Flags3 conditions are met
  3: 0x01D0 [0x1D] PRINT_EVENT_MESSAGE(message_id=8974*)
    → "I just hope it doesn't come to something like that... Having the search party get lost underground would be a tragedy."
  4: 0x01D3 [0x23] WAIT_FOR_DIALOG_INTERACTION
  5: 0x01D4 [0x21] END_EVENT
  6: 0x01D5 [0x00] END_REQSTACK()
```

### Event 146

#### Metadata

| Field        | Value    |
|--------------|----------|
| Entrypoint   | 0x01D6   |
| Data Size    | 21 bytes |
| Instructions | 7        |

```
      00 01 02 03 04 05 06 07  08 09 0A 0B 0C 0D 0E 0F
      -- -- -- -- -- -- -- --  -- -- -- -- -- -- -- --
01D0:                   4A F8  FF FF 7F F0 FF FF 7F 6F        J........o
01E0: 76 F8 FF FF 7F 1D 0A 80  23 21 00                 v.......#!.     
```

#### Opcodes

```
  0: 0x01D6 [0x4A] EventEntity looks at LocalPlayer
  1: 0x01DF [0x6F] WAIT_FRAME_DELAY: Yield until WaitTime reaches zero
  2: 0x01E0 [0x76] CHECK_ENTITY_RENDER_FLAGS: Wait until EventEntity Render.Flags0 and Render.Flags3 conditions are met
  3: 0x01E5 [0x1D] PRINT_EVENT_MESSAGE(message_id=8471*)
    → "You already adjusted to life on the good ol' Adoulin ranch? Hope so, because we're lookin' for you to wrangle us some big'uns, [sonny/missy]."
  4: 0x01E8 [0x23] WAIT_FOR_DIALOG_INTERACTION
  5: 0x01E9 [0x21] END_EVENT
  6: 0x01EA [0x00] END_REQSTACK()
```

### Event 154

#### Metadata

| Field        | Value   |
|--------------|---------|
| Entrypoint   | 0x01EB  |
| Data Size    | 1 bytes |
| Instructions | 1       |

```
      00 01 02 03 04 05 06 07  08 09 0A 0B 0C 0D 0E 0F
      -- -- -- -- -- -- -- --  -- -- -- -- -- -- -- --
01E0:                                   00                         .    
```

#### Opcodes

```
  0: 0x01EB [0x00] END_REQSTACK()
```

### Event 65535.6

#### Metadata

| Field        | Value    |
|--------------|----------|
| Entrypoint   | 0x01EC   |
| Data Size    | 37 bytes |
| Instructions | 7        |

```
      00 01 02 03 04 05 06 07  08 09 0A 0B 0C 0D 0E 0F
      -- -- -- -- -- -- -- --  -- -- -- -- -- -- -- --
01E0:                                      32 0B 80 1F              2...
01F0: 00 27 80 28 80 29 80 1F  01 1E 9C 00 10 01 1C 06  .'.(.)..........
0200: 80 66 2A 80 91 00 10 01  91 00 10 01 74 6C 6B 30  .f*.........tlk0
0210: 00                                                .               
```

#### Opcodes

```
  0: 0x01EC [0x32] ExtData[1]->MainSpeed = 13* * 0.1
  1: 0x01EF [0x1F] MOVE_ENTITY: EventEntity moves to X=12.744*, Z=-14.702*, Y=0.999*
  2: 0x01F7 [0x1F] MOVE_ENTITY: Update entity position (mode=1)
  3: 0x01F9 [0x1E] EventEntity looks at Ingrid (ID: 17825948/0x0110009C) and starts talking
  4: 0x01FE [0x1C] WAIT(30* ticks)
  5: 0x0201 [0x66] LOAD_EXT_SCHEDULER_MAIN: Load scheduler "tlk0" with entities [Levil (ID: 17825937/0x01100091), Levil (ID: 17825937/0x01100091)], work=9*
  6: 0x0210 [0x00] END_REQSTACK()
```

### Event 158

#### Metadata

| Field        | Value   |
|--------------|---------|
| Entrypoint   | 0x0211  |
| Data Size    | 1 bytes |
| Instructions | 1       |

```
      00 01 02 03 04 05 06 07  08 09 0A 0B 0C 0D 0E 0F
      -- -- -- -- -- -- -- --  -- -- -- -- -- -- -- --
0210:    00                                              .              
```

#### Opcodes

```
  0: 0x0211 [0x00] END_REQSTACK()
```

### Event 159

#### Metadata

| Field        | Value   |
|--------------|---------|
| Entrypoint   | 0x0212  |
| Data Size    | 1 bytes |
| Instructions | 1       |

```
      00 01 02 03 04 05 06 07  08 09 0A 0B 0C 0D 0E 0F
      -- -- -- -- -- -- -- --  -- -- -- -- -- -- -- --
0210:       00                                            .             
```

#### Opcodes

```
  0: 0x0212 [0x00] END_REQSTACK()
```

### Event 65535.7

#### Metadata

| Field        | Value    |
|--------------|----------|
| Entrypoint   | 0x0213   |
| Data Size    | 17 bytes |
| Instructions | 5        |

```
      00 01 02 03 04 05 06 07  08 09 0A 0B 0C 0D 0E 0F
      -- -- -- -- -- -- -- --  -- -- -- -- -- -- -- --
0210:          32 0B 80 1F 00  2B 80 2C 80 03 80 1F 01     2....+.,.....
0220: 1C 06 80 00                                       ....            
```

#### Opcodes

```
  0: 0x0213 [0x32] ExtData[1]->MainSpeed = 13* * 0.1
  1: 0x0216 [0x1F] MOVE_ENTITY: EventEntity moves to X=-89.001*, Z=10.787*, Y=3.349*
  2: 0x021E [0x1F] MOVE_ENTITY: Update entity position (mode=1)
  3: 0x0220 [0x1C] WAIT(30* ticks)
  4: 0x0223 [0x00] END_REQSTACK()
```

### Event 160

#### Metadata

| Field        | Value   |
|--------------|---------|
| Entrypoint   | 0x0224  |
| Data Size    | 1 bytes |
| Instructions | 1       |

```
      00 01 02 03 04 05 06 07  08 09 0A 0B 0C 0D 0E 0F
      -- -- -- -- -- -- -- --  -- -- -- -- -- -- -- --
0220:             00                                        .           
```

#### Opcodes

```
  0: 0x0224 [0x00] END_REQSTACK()
```

### Event 161

#### Metadata

| Field        | Value    |
|--------------|----------|
| Entrypoint   | 0x0225   |
| Data Size    | 21 bytes |
| Instructions | 7        |

```
      00 01 02 03 04 05 06 07  08 09 0A 0B 0C 0D 0E 0F
      -- -- -- -- -- -- -- --  -- -- -- -- -- -- -- --
0220:                4A F8 FF  FF 7F F0 FF FF 7F 6F 76       J........ov
0230: F8 FF FF 7F 1D 2D 80 23  21 00                    .....-.#!.      
```

#### Opcodes

```
  0: 0x0225 [0x4A] EventEntity looks at LocalPlayer
  1: 0x022E [0x6F] WAIT_FRAME_DELAY: Yield until WaitTime reaches zero
  2: 0x022F [0x76] CHECK_ENTITY_RENDER_FLAGS: Wait until EventEntity Render.Flags0 and Render.Flags3 conditions are met
  3: 0x0234 [0x1D] PRINT_EVENT_MESSAGE(message_id=9023*)
    → "Our slave driver--er, maester--wants me to ask you to investigate the issue with the Couriers' Coalition."
  4: 0x0237 [0x23] WAIT_FOR_DIALOG_INTERACTION
  5: 0x0238 [0x21] END_EVENT
  6: 0x0239 [0x00] END_REQSTACK()
```

### Event 164

#### Metadata

| Field        | Value    |
|--------------|----------|
| Entrypoint   | 0x023A   |
| Data Size    | 25 bytes |
| Instructions | 9        |

```
      00 01 02 03 04 05 06 07  08 09 0A 0B 0C 0D 0E 0F
      -- -- -- -- -- -- -- --  -- -- -- -- -- -- -- --
0230:                                4A F8 FF FF 7F F0            J.....
0240: FF FF 7F 6F 76 F8 FF FF  7F 1D 2E 80 23 1D 2F 80  ...ov.......#./.
0250: 23 21 00                                          #!.             
```

#### Opcodes

```
  0: 0x023A [0x4A] EventEntity looks at LocalPlayer
  1: 0x0243 [0x6F] WAIT_FRAME_DELAY: Yield until WaitTime reaches zero
  2: 0x0244 [0x76] CHECK_ENTITY_RENDER_FLAGS: Wait until EventEntity Render.Flags0 and Render.Flags3 conditions are met
  3: 0x0249 [0x1D] PRINT_EVENT_MESSAGE(message_id=9128*)
    → "Damn minister of finance, making my life a living apocalypse!"
  4: 0x024C [0x23] WAIT_FOR_DIALOG_INTERACTION
  5: 0x024D [0x1D] PRINT_EVENT_MESSAGE(message_id=9129*)
    → "...Oooh, feels kind of nice to blame someone besides Lhe once in a while. Anyway, I'm sure we'll need your help soon enough, so don't stray too far."
  6: 0x0250 [0x23] WAIT_FOR_DIALOG_INTERACTION
  7: 0x0251 [0x21] END_EVENT
  8: 0x0252 [0x00] END_REQSTACK()
```

### Event 165

#### Metadata

| Field        | Value    |
|--------------|----------|
| Entrypoint   | 0x0253   |
| Data Size    | 21 bytes |
| Instructions | 7        |

```
      00 01 02 03 04 05 06 07  08 09 0A 0B 0C 0D 0E 0F
      -- -- -- -- -- -- -- --  -- -- -- -- -- -- -- --
0250:          4A F8 FF FF 7F  F0 FF FF 7F 6F 76 F8 FF     J........ov..
0260: FF 7F 1D 30 80 23 21 00                           ...0.#!.        
```

#### Opcodes

```
  0: 0x0253 [0x4A] EventEntity looks at LocalPlayer
  1: 0x025C [0x6F] WAIT_FRAME_DELAY: Yield until WaitTime reaches zero
  2: 0x025D [0x76] CHECK_ENTITY_RENDER_FLAGS: Wait until EventEntity Render.Flags0 and Render.Flags3 conditions are met
  3: 0x0262 [0x1D] PRINT_EVENT_MESSAGE(message_id=9186*)
    → "Why're you here all by your lonesome and not out escorting the princess!? Didn't my talk scare you straight at all?"
  4: 0x0265 [0x23] WAIT_FOR_DIALOG_INTERACTION
  5: 0x0266 [0x21] END_EVENT
  6: 0x0267 [0x00] END_REQSTACK()
```

### Event 166

#### Metadata

| Field        | Value    |
|--------------|----------|
| Entrypoint   | 0x0268   |
| Data Size    | 25 bytes |
| Instructions | 9        |

```
      00 01 02 03 04 05 06 07  08 09 0A 0B 0C 0D 0E 0F
      -- -- -- -- -- -- -- --  -- -- -- -- -- -- -- --
0260:                          4A F8 FF FF 7F F0 FF FF          J.......
0270: 7F 6F 76 F8 FF FF 7F 1D  31 80 23 1D 32 80 23 21  .ov.....1.#.2.#!
0280: 00                                                .               
```

#### Opcodes

```
  0: 0x0268 [0x4A] EventEntity looks at LocalPlayer
  1: 0x0271 [0x6F] WAIT_FRAME_DELAY: Yield until WaitTime reaches zero
  2: 0x0272 [0x76] CHECK_ENTITY_RENDER_FLAGS: Wait until EventEntity Render.Flags0 and Render.Flags3 conditions are met
  3: 0x0277 [0x1D] PRINT_EVENT_MESSAGE(message_id=9189*)
    → "I've never been out there myself, but it doesn't make any sense. There's no business for a forest to be in that desolate wasteland."
  4: 0x027A [0x23] WAIT_FOR_DIALOG_INTERACTION
  5: 0x027B [0x1D] PRINT_EVENT_MESSAGE(message_id=9190*)
    → "On the other hand, Ulbuka is a land of mysteries. Who can really tell? Yorcia and Hennetiel are forests, and the soil there reeks of poison."
  6: 0x027E [0x23] WAIT_FOR_DIALOG_INTERACTION
  7: 0x027F [0x21] END_EVENT
  8: 0x0280 [0x00] END_REQSTACK()
```

### Event 177

#### Metadata

| Field        | Value   |
|--------------|---------|
| Entrypoint   | 0x0281  |
| Data Size    | 1 bytes |
| Instructions | 1       |

```
      00 01 02 03 04 05 06 07  08 09 0A 0B 0C 0D 0E 0F
      -- -- -- -- -- -- -- --  -- -- -- -- -- -- -- --
0280:    00                                              .              
```

#### Opcodes

```
  0: 0x0281 [0x00] END_REQSTACK()
```

### Event 180

#### Metadata

| Field        | Value    |
|--------------|----------|
| Entrypoint   | 0x0282   |
| Data Size    | 25 bytes |
| Instructions | 9        |

```
      00 01 02 03 04 05 06 07  08 09 0A 0B 0C 0D 0E 0F
      -- -- -- -- -- -- -- --  -- -- -- -- -- -- -- --
0280:       4A F8 FF FF 7F F0  FF FF 7F 6F 76 F8 FF FF    J........ov...
0290: 7F 1D 33 80 23 1D 34 80  23 21 00                 ..3.#.4.#!.     
```

#### Opcodes

```
  0: 0x0282 [0x4A] EventEntity looks at LocalPlayer
  1: 0x028B [0x6F] WAIT_FRAME_DELAY: Yield until WaitTime reaches zero
  2: 0x028C [0x76] CHECK_ENTITY_RENDER_FLAGS: Wait until EventEntity Render.Flags0 and Render.Flags3 conditions are met
  3: 0x0291 [0x1D] PRINT_EVENT_MESSAGE(message_id=12651*)
    → "<Player>...if anyone knows how to rouse her spirits, it's you."
  4: 0x0294 [0x23] WAIT_FOR_DIALOG_INTERACTION
  5: 0x0295 [0x1D] PRINT_EVENT_MESSAGE(message_id=12652*)
    → "Go to Arciela--for both our sakes."
  6: 0x0298 [0x23] WAIT_FOR_DIALOG_INTERACTION
  7: 0x0299 [0x21] END_EVENT
  8: 0x029A [0x00] END_REQSTACK()
```

### Event 178

#### Metadata

| Field        | Value   |
|--------------|---------|
| Entrypoint   | 0x029B  |
| Data Size    | 1 bytes |
| Instructions | 1       |

```
      00 01 02 03 04 05 06 07  08 09 0A 0B 0C 0D 0E 0F
      -- -- -- -- -- -- -- --  -- -- -- -- -- -- -- --
0290:                                   00                         .    
```

#### Opcodes

```
  0: 0x029B [0x00] END_REQSTACK()
```

### Event 183

#### Metadata

| Field        | Value    |
|--------------|----------|
| Entrypoint   | 0x029C   |
| Data Size    | 21 bytes |
| Instructions | 7        |

```
      00 01 02 03 04 05 06 07  08 09 0A 0B 0C 0D 0E 0F
      -- -- -- -- -- -- -- --  -- -- -- -- -- -- -- --
0290:                                      4A F8 FF FF              J...
02A0: 7F F0 FF FF 7F 6F 76 F8  FF FF 7F 1D 35 80 23 21  .....ov.....5.#!
02B0: 00                                                .               
```

#### Opcodes

```
  0: 0x029C [0x4A] EventEntity looks at LocalPlayer
  1: 0x02A5 [0x6F] WAIT_FRAME_DELAY: Yield until WaitTime reaches zero
  2: 0x02A6 [0x76] CHECK_ENTITY_RENDER_FLAGS: Wait until EventEntity Render.Flags0 and Render.Flags3 conditions are met
  3: 0x02AB [0x1D] PRINT_EVENT_MESSAGE(message_id=12672*)
    → "Now that I think about it, I haven't seen Arciela 'round here recently. I think you'd better make sure she's all right."
  4: 0x02AE [0x23] WAIT_FOR_DIALOG_INTERACTION
  5: 0x02AF [0x21] END_EVENT
  6: 0x02B0 [0x00] END_REQSTACK()
```

### Event 5218

#### Metadata

| Field        | Value   |
|--------------|---------|
| Entrypoint   | 0x02B1  |
| Data Size    | 7 bytes |
| Instructions | 2       |

```
      00 01 02 03 04 05 06 07  08 09 0A 0B 0C 0D 0E 0F
      -- -- -- -- -- -- -- --  -- -- -- -- -- -- -- --
02B0:    92 01 F8 FF FF 7F 00                            .......        
```

#### Opcodes

```
  0: 0x02B1 [0x92] EventEntity->Render.Flags3 ^= 0x01
  1: 0x02B7 [0x00] END_REQSTACK()
```

### Event 65535.8

#### Metadata

| Field        | Value    |
|--------------|----------|
| Entrypoint   | 0x02B8   |
| Data Size    | 31 bytes |
| Instructions | 9        |

```
      00 01 02 03 04 05 06 07  08 09 0A 0B 0C 0D 0E 0F
      -- -- -- -- -- -- -- --  -- -- -- -- -- -- -- --
02B0:                          32 36 80 61 00 1F 00 37          26.a...7
02C0: 80 38 80 39 80 1F 01 61  01 1F 00 3A 80 38 80 39  .8.9...a...:.8.9
02D0: 80 1F 01 39 3B 80 00                              ...9;..         
```

#### Opcodes

```
  0: 0x02B8 [0x32] ExtData[1]->MainSpeed = 40* * 0.1
  1: 0x02BB [0x61] EventEntity->Render.Flags2 &= ~0x00000001
  2: 0x02BD [0x1F] MOVE_ENTITY: EventEntity moves to X=41.000*, Z=-19.100*, Y=1.000*
  3: 0x02C5 [0x1F] MOVE_ENTITY: Update entity position (mode=1)
  4: 0x02C7 [0x61] EventEntity->Render.Flags2 |= 0x00000001
  5: 0x02C9 [0x1F] MOVE_ENTITY: EventEntity moves to X=29.000*, Z=-19.100*, Y=1.000*
  6: 0x02D1 [0x1F] MOVE_ENTITY: Update entity position (mode=1)
  7: 0x02D3 [0x39] SET_ENTITY_DIRECTION(direction=11.2°*)
  8: 0x02D6 [0x00] END_REQSTACK()
```

### Event 65535.9

#### Metadata

| Field        | Value    |
|--------------|----------|
| Entrypoint   | 0x02D7   |
| Data Size    | 13 bytes |
| Instructions | 3        |

```
      00 01 02 03 04 05 06 07  08 09 0A 0B 0C 0D 0E 0F
      -- -- -- -- -- -- -- --  -- -- -- -- -- -- -- --
02D0:                      6E  F8 FF FF 7F 3C 80 99 F8         n....<...
02E0: FF FF 7F 00                                       ....            
```

#### Opcodes

```
  0: 0x02D7 [0x6E] EventEntity uses emote 36*
  1: 0x02DE [0x99] Wait for EventEntity animation to complete
  2: 0x02E3 [0x00] END_REQSTACK()
```

### Event 65535.10

#### Metadata

| Field        | Value    |
|--------------|----------|
| Entrypoint   | 0x02E4   |
| Data Size    | 13 bytes |
| Instructions | 3        |

```
      00 01 02 03 04 05 06 07  08 09 0A 0B 0C 0D 0E 0F
      -- -- -- -- -- -- -- --  -- -- -- -- -- -- -- --
02E0:             6E F8 FF FF  7F 3D 80 99 F8 FF FF 7F      n....=......
02F0: 00                                                .               
```

#### Opcodes

```
  0: 0x02E4 [0x6E] EventEntity uses emote 1579*
  1: 0x02EB [0x99] Wait for EventEntity animation to complete
  2: 0x02F0 [0x00] END_REQSTACK()
```

### Event 65535.11

#### Metadata

| Field        | Value    |
|--------------|----------|
| Entrypoint   | 0x02F1   |
| Data Size    | 13 bytes |
| Instructions | 3        |

```
      00 01 02 03 04 05 06 07  08 09 0A 0B 0C 0D 0E 0F
      -- -- -- -- -- -- -- --  -- -- -- -- -- -- -- --
02F0:    6E F8 FF FF 7F 3E 80  99 F8 FF FF 7F 00         n....>.......  
```

#### Opcodes

```
  0: 0x02F1 [0x6E] EventEntity uses emote 4*
  1: 0x02F8 [0x99] Wait for EventEntity animation to complete
  2: 0x02FD [0x00] END_REQSTACK()
```

### Event 65535.12

#### Metadata

| Field        | Value   |
|--------------|---------|
| Entrypoint   | 0x02FE  |
| Data Size    | 9 bytes |
| Instructions | 3       |

```
      00 01 02 03 04 05 06 07  08 09 0A 0B 0C 0D 0E 0F
      -- -- -- -- -- -- -- --  -- -- -- -- -- -- -- --
02F0:                                            7B F8                {.
0300: FF FF 7F 39 3B 80 00                              ...9;..         
```

#### Opcodes

```
  0: 0x02FE [0x7B] EventEntity stops talking
  1: 0x0303 [0x39] SET_ENTITY_DIRECTION(direction=11.2°*)
  2: 0x0306 [0x00] END_REQSTACK()
```

### Event 65535.13

#### Metadata

| Field        | Value    |
|--------------|----------|
| Entrypoint   | 0x0307   |
| Data Size    | 96 bytes |
| Instructions | 18       |

```
      00 01 02 03 04 05 06 07  08 09 0A 0B 0C 0D 0E 0F
      -- -- -- -- -- -- -- --  -- -- -- -- -- -- -- --
0300:                      13  00 00 3F 80 14 00 00 40         ...?....@
0310: 80 07 00 00 41 80 1C 00  00 13 00 00 42 80 02 00  ....A.......B...
0320: 00 43 80 80 35 03 6E F8  FF FF 7F 44 80 99 F8 FF  .C..5.n....D....
0330: FF 7F 01 63 03 02 00 00  07 80 80 4C 03 6E F8 FF  ...c.......L.n..
0340: FF 7F 45 80 99 F8 FF FF  7F 01 63 03 02 00 00 42  ..E.......c....B
0350: 80 80 63 03 6E F8 FF FF  7F 3E 80 99 F8 FF FF 7F  ..c.n....>......
0360: 01 63 03 01 07 03 00                              .c.....         
```

#### Opcodes

```
  0: 0x0307 [0x13] ExtData[1]->WorkLocal[0] = rand() % 5*
  1: 0x030C [0x14] ExtData[1]->WorkLocal[0] *= 60*
  2: 0x0311 [0x07] ExtData[1]->WorkLocal[0] += 300*
  3: 0x0316 [0x1C] WAIT(ExtData[1]->WorkLocal[0] ticks)
  4: 0x0319 [0x13] ExtData[1]->WorkLocal[0] = rand() % 2*
  5: 0x031E [0x02] IF !(ExtData[1]->WorkLocal[0] == 0*) GOTO 0x0335
  6: 0x0326 [0x6E] EventEntity uses emote 16*
  7: 0x032D [0x99] Wait for EventEntity animation to complete
  8: 0x0332 [0x01] GOTO 0x0363
  9: 0x0335 [0x02] IF !(ExtData[1]->WorkLocal[0] == 1*) GOTO 0x034C
 10: 0x033D [0x6E] EventEntity uses emote 12*
 11: 0x0344 [0x99] Wait for EventEntity animation to complete
 12: 0x0349 [0x01] GOTO 0x0363
 13: 0x034C [0x02] IF !(ExtData[1]->WorkLocal[0] == 2*) GOTO 0x0363
 14: 0x0354 [0x6E] EventEntity uses emote 4*
 15: 0x035B [0x99] Wait for EventEntity animation to complete
 16: 0x0360 [0x01] GOTO 0x0363

SUBROUTINE_0363:
 17: 0x0363 [0x01] GOTO 0x0307
```

#### Data or dead code:

```
# Dead code (unreachable instructions):
     0x0366 [0x00] END_REQSTACK()
```

### Event 5220

#### Metadata

| Field        | Value   |
|--------------|---------|
| Entrypoint   | 0x0367  |
| Data Size    | 7 bytes |
| Instructions | 2       |

```
      00 01 02 03 04 05 06 07  08 09 0A 0B 0C 0D 0E 0F
      -- -- -- -- -- -- -- --  -- -- -- -- -- -- -- --
0360:                      92  01 F8 FF FF 7F 00               .......  
```

#### Opcodes

```
  0: 0x0367 [0x92] EventEntity->Render.Flags3 ^= 0x01
  1: 0x036D [0x00] END_REQSTACK()
```

### Event 5221

#### Metadata

| Field        | Value   |
|--------------|---------|
| Entrypoint   | 0x036E  |
| Data Size    | 7 bytes |
| Instructions | 2       |

```
      00 01 02 03 04 05 06 07  08 09 0A 0B 0C 0D 0E 0F
      -- -- -- -- -- -- -- --  -- -- -- -- -- -- -- --
0360:                                            92 01                ..
0370: F8 FF FF 7F 00                                    .....           
```

#### Opcodes

```
  0: 0x036E [0x92] EventEntity->Render.Flags3 ^= 0x01
  1: 0x0374 [0x00] END_REQSTACK()
```

### Event 65535.14

#### Metadata

| Field        | Value    |
|--------------|----------|
| Entrypoint   | 0x0375   |
| Data Size    | 30 bytes |
| Instructions | 8        |

```
      00 01 02 03 04 05 06 07  08 09 0A 0B 0C 0D 0E 0F
      -- -- -- -- -- -- -- --  -- -- -- -- -- -- -- --
0370:                32 0B 80  39 3B 80 1C 46 80 1F 00       2..9;..F...
0380: 47 80 48 80 49 80 1F 01  1E F0 FF FF 7F 7B F8 FF  G.H.I........{..
0390: FF 7F 00                                          ...             
```

#### Opcodes

```
  0: 0x0375 [0x32] ExtData[1]->MainSpeed = 13* * 0.1
  1: 0x0378 [0x39] SET_ENTITY_DIRECTION(direction=11.2°*)
  2: 0x037B [0x1C] WAIT(10* ticks)
  3: 0x037E [0x1F] MOVE_ENTITY: EventEntity moves to X=-32.760*, Z=-95.520*, Y=-0.650*
  4: 0x0386 [0x1F] MOVE_ENTITY: Update entity position (mode=1)
  5: 0x0388 [0x1E] EventEntity looks at LocalPlayer and starts talking
  6: 0x038D [0x7B] EventEntity stops talking
  7: 0x0392 [0x00] END_REQSTACK()
```

### Event 65535.15

#### Metadata

| Field        | Value    |
|--------------|----------|
| Entrypoint   | 0x0393   |
| Data Size    | 74 bytes |
| Instructions | 16       |

```
      00 01 02 03 04 05 06 07  08 09 0A 0B 0C 0D 0E 0F
      -- -- -- -- -- -- -- --  -- -- -- -- -- -- -- --
0390:          32 36 80 1F 00  4A 80 4B 80 49 80 1F 01     26...J.K.I...
03A0: 1F 00 4C 80 4D 80 49 80  1F 01 1F 00 4E 80 4F 80  ..L.M.I.....N.O.
03B0: 49 80 1F 01 1F 00 50 80  51 80 49 80 1F 01 1F 00  I.....P.Q.I.....
03C0: 52 80 53 80 49 80 1F 01  1F 00 54 80 55 80 49 80  R.S.I.....T.U.I.
03D0: 1F 01 1F 00 56 80 57 80  49 80 1F 01 00           ....V.W.I....   
```

#### Opcodes

```
  0: 0x0393 [0x32] ExtData[1]->MainSpeed = 40* * 0.1
  1: 0x0396 [0x1F] MOVE_ENTITY: EventEntity moves to X=-33.230*, Z=-96.790*, Y=-0.650*
  2: 0x039E [0x1F] MOVE_ENTITY: Update entity position (mode=1)
  3: 0x03A0 [0x1F] MOVE_ENTITY: EventEntity moves to X=-35.230*, Z=-99.430*, Y=-0.650*
  4: 0x03A8 [0x1F] MOVE_ENTITY: Update entity position (mode=1)
  5: 0x03AA [0x1F] MOVE_ENTITY: EventEntity moves to X=-37.080*, Z=-102.020*, Y=-0.650*
  6: 0x03B2 [0x1F] MOVE_ENTITY: Update entity position (mode=1)
  7: 0x03B4 [0x1F] MOVE_ENTITY: EventEntity moves to X=-37.580*, Z=-104.210*, Y=-0.650*
  8: 0x03BC [0x1F] MOVE_ENTITY: Update entity position (mode=1)
  9: 0x03BE [0x1F] MOVE_ENTITY: EventEntity moves to X=-37.290*, Z=-106.400*, Y=-0.650*
 10: 0x03C6 [0x1F] MOVE_ENTITY: Update entity position (mode=1)
 11: 0x03C8 [0x1F] MOVE_ENTITY: EventEntity moves to X=-36.390*, Z=-108.100*, Y=-0.650*
 12: 0x03D0 [0x1F] MOVE_ENTITY: Update entity position (mode=1)
 13: 0x03D2 [0x1F] MOVE_ENTITY: EventEntity moves to X=-33.210*, Z=-111.700*, Y=-0.650*
 14: 0x03DA [0x1F] MOVE_ENTITY: Update entity position (mode=1)
 15: 0x03DC [0x00] END_REQSTACK()
```

### Event 5222

#### Metadata

| Field        | Value     |
|--------------|-----------|
| Entrypoint   | 0x03DD    |
| Data Size    | 111 bytes |
| Instructions | 32        |

```
      00 01 02 03 04 05 06 07  08 09 0A 0B 0C 0D 0E 0F
      -- -- -- -- -- -- -- --  -- -- -- -- -- -- -- --
03D0:                                         1E F0 FF               ...
03E0: FF 7F 6F 70 02 02 10 43  80 80 06 04 1D 58 80 23  ..op...C.....X.#
03F0: 6E F8 FF FF 7F 3C 80 99  F8 FF FF 7F 1D 59 80 1C  n....<.......Y..
0400: 5A 80 23 01 4A 04 02 02  10 07 80 80 28 04 1D 5B  Z.#.J.......(..[
0410: 80 23 6E F8 FF FF 7F 3C  80 99 F8 FF FF 7F 1D 5C  .#n....<.......\
0420: 80 1C 5A 80 23 01 4A 04  02 02 10 42 80 80 4A 04  ..Z.#.J....B..J.
0430: 6E F8 FF FF 7F 5D 80 99  F8 FF FF 7F 1D 5E 80 23  n....].......^.#
0440: 1D 5F 80 1C 5A 80 23 01  4A 04 21 00              ._..Z.#.J.!.    
```

#### Opcodes

```
  0: 0x03DD [0x1E] EventEntity looks at LocalPlayer and starts talking
  1: 0x03E2 [0x6F] WAIT_FRAME_DELAY: Yield until WaitTime reaches zero
  2: 0x03E3 [0x70] WAIT_ENTITY_RENDER_FLAG: Wait while EventEntity->Render.Flags3 bit 2 is set (cancel turn if not)
  3: 0x03E4 [0x02] IF !(Work_Zone[2] == 0*) GOTO 0x0406
  4: 0x03EC [0x1D] PRINT_EVENT_MESSAGE(message_id=11170*)
    → "I'm heading over to the Mummers' Coalition as soon as I'm on my break."
  5: 0x03EF [0x23] WAIT_FOR_DIALOG_INTERACTION
  6: 0x03F0 [0x6E] EventEntity uses emote 36*
  7: 0x03F7 [0x99] Wait for EventEntity animation to complete
  8: 0x03FC [0x1D] PRINT_EVENT_MESSAGE(message_id=11169*)
    → "That guy'll never know what hit him!"
  9: 0x03FF [0x1C] WAIT(120* ticks)
 10: 0x0402 [0x23] WAIT_FOR_DIALOG_INTERACTION
 11: 0x0403 [0x01] GOTO 0x044A
 12: 0x0406 [0x02] IF !(Work_Zone[2] == 1*) GOTO 0x0428
 13: 0x040E [0x1D] PRINT_EVENT_MESSAGE(message_id=11279*)
    → "The Viridian Aristocrat... He's one tough customer."
 14: 0x0411 [0x23] WAIT_FOR_DIALOG_INTERACTION
 15: 0x0412 [0x6E] EventEntity uses emote 36*
 16: 0x0419 [0x99] Wait for EventEntity animation to complete
 17: 0x041E [0x1D] PRINT_EVENT_MESSAGE(message_id=11280*)
    → "Let's head over to the Mummers' Coalition as soon as my break starts!"
 18: 0x0421 [0x1C] WAIT(120* ticks)
 19: 0x0424 [0x23] WAIT_FOR_DIALOG_INTERACTION
 20: 0x0425 [0x01] GOTO 0x044A
 21: 0x0428 [0x02] IF !(Work_Zone[2] == 2*) GOTO 0x044A
 22: 0x0430 [0x6E] EventEntity uses emote 6*
 23: 0x0437 [0x99] Wait for EventEntity animation to complete
 24: 0x043C [0x1D] PRINT_EVENT_MESSAGE(message_id=11281*)
    → "B cut short, that reduces the amount of time I can spend at the Mummers' Coalition..."
 25: 0x043F [0x23] WAIT_FOR_DIALOG_INTERACTION
 26: 0x0440 [0x1D] PRINT_EVENT_MESSAGE(message_id=11282*)
    → "Now that I think about it, <Player>, can you really afford to be wasting time like this?"
 27: 0x0443 [0x1C] WAIT(120* ticks)
 28: 0x0446 [0x23] WAIT_FOR_DIALOG_INTERACTION
 29: 0x0447 [0x01] GOTO 0x044A

SUBROUTINE_044A:
 30: 0x044A [0x21] END_EVENT
 31: 0x044B [0x00] END_REQSTACK()
```

### Event 5225

#### Metadata

| Field        | Value   |
|--------------|---------|
| Entrypoint   | 0x044C  |
| Data Size    | 7 bytes |
| Instructions | 2       |

```
      00 01 02 03 04 05 06 07  08 09 0A 0B 0C 0D 0E 0F
      -- -- -- -- -- -- -- --  -- -- -- -- -- -- -- --
0440:                                      92 01 F8 FF              ....
0450: FF 7F 00                                          ...             
```

#### Opcodes

```
  0: 0x044C [0x92] EventEntity->Render.Flags3 ^= 0x01
  1: 0x0452 [0x00] END_REQSTACK()
```

### Event 5226

#### Metadata

| Field        | Value    |
|--------------|----------|
| Entrypoint   | 0x0453   |
| Data Size    | 38 bytes |
| Instructions | 14       |

```
      00 01 02 03 04 05 06 07  08 09 0A 0B 0C 0D 0E 0F
      -- -- -- -- -- -- -- --  -- -- -- -- -- -- -- --
0450:          4A F8 FF FF 7F  F0 FF FF 7F 6F 76 F8 FF     J........ov..
0460: FF 7F 03 02 10 60 80 1D  61 80 23 1D 62 80 23 1D  .....`..a.#.b.#.
0470: 63 80 23 1D 64 80 23 21  00                       c.#.d.#!.       
```

#### Opcodes

```
  0: 0x0453 [0x4A] EventEntity looks at LocalPlayer
  1: 0x045C [0x6F] WAIT_FRAME_DELAY: Yield until WaitTime reaches zero
  2: 0x045D [0x76] CHECK_ENTITY_RENDER_FLAGS: Wait until EventEntity Render.Flags0 and Render.Flags3 conditions are met
  3: 0x0462 [0x03] Work_Zone[2] = 267*
  4: 0x0467 [0x1D] PRINT_EVENT_MESSAGE(message_id=11336*)
    → "Phew... I was fortunately able to get out of having to go to $8. It only cost me my next day off..."
  5: 0x046A [0x23] WAIT_FOR_DIALOG_INTERACTION
  6: 0x046B [0x1D] PRINT_EVENT_MESSAGE(message_id=11337*)
    → "Although, it's not like the princess takes any breaks. I suppose I just need to buckle down and work harder."
  7: 0x046E [0x23] WAIT_FOR_DIALOG_INTERACTION
  8: 0x046F [0x1D] PRINT_EVENT_MESSAGE(message_id=11338*)
    → "By the way, didn't Leathery Lhe tell you to go visit Arciela?"
  9: 0x0472 [0x23] WAIT_FOR_DIALOG_INTERACTION
 10: 0x0473 [0x1D] PRINT_EVENT_MESSAGE(message_id=11339*)
    → "You'd better hurry up and do it, if you know what's good for you."
 11: 0x0476 [0x23] WAIT_FOR_DIALOG_INTERACTION
 12: 0x0477 [0x21] END_EVENT
 13: 0x0478 [0x00] END_REQSTACK()
```
