# 17825990

## Common Data

| Field            | Value                     |
|------------------|---------------------------|
| Zone             | Western Adoulin (ID: 256) |
| Block Size       | 48896 bytes               |
| Total Events     | 32                        |
| References Count | 1008                      |

## List of Events

| Event ID              | Entrypoint   |   Size |   Instructions |
|-----------------------|--------------|--------|----------------|
| [65535](#event-65535) | 0x0000       |      1 |              1 |
| [5032](#event-5032)   | 0x0001       |    290 |             37 |
| [5056](#event-5056)   | 0x0123       |   3444 |            404 |
| [5061](#event-5061)   | 0x0E97       |    532 |             62 |
| [5034](#event-5034)   | 0x10AB       |   1900 |            218 |
| [5035](#event-5035)   | 0x1817       |   2682 |            300 |
| [5037](#event-5037)   | 0x2291       |   3889 |            465 |
| [5039](#event-5039)   | 0x31C2       |   1419 |            165 |
| [5023](#event-5023)   | 0x374D       |   1718 |            190 |
| [5024](#event-5024)   | 0x3E03       |    943 |            108 |
| [5028](#event-5028)   | 0x41B2       |   1416 |            158 |
| [5019](#event-5019)   | 0x473A       |   1520 |            186 |
| [5020](#event-5020)   | 0x4D2A       |    316 |             42 |
| [5021](#event-5021)   | 0x4E66       |    752 |             89 |
| [5072](#event-5072)   | 0x5156       |   1028 |            122 |
| [5073](#event-5073)   | 0x555A       |    308 |             40 |
| [5074](#event-5074)   | 0x568E       |    792 |             94 |
| [5075](#event-5075)   | 0x59A6       |    322 |             42 |
| [5076](#event-5076)   | 0x5AE8       |    738 |             81 |
| [5078](#event-5078)   | 0x5DCA       |    696 |             90 |
| [5083](#event-5083)   | 0x6082       |   1575 |            192 |
| [5084](#event-5084)   | 0x66A9       |    315 |             41 |
| [5085](#event-5085)   | 0x67E4       |   1833 |            211 |
| [168](#event-168)     | 0x6F0D       |   1356 |            160 |
| [169](#event-169)     | 0x7459       |    318 |             41 |
| [170](#event-170)     | 0x7597       |   1142 |            139 |
| [181](#event-181)     | 0x7A0D       |   1311 |            177 |
| [185](#event-185)     | 0x7F2C       |   2823 |            315 |
| [186](#event-186)     | 0x8A33       |    313 |             41 |
| [187](#event-187)     | 0x8B6C       |   4646 |            532 |
| [189](#event-189)     | 0x9D92       |    879 |            116 |
| [190](#event-190)     | 0xA101       |   3502 |            406 |

## DAT References (imed_data)

|   Index | Hex Value   |   Dec Value |
|---------|-------------|-------------|
|       0 | 0x00C8      |         200 |
|       1 | 0x0000      |           0 |
|       2 | 0x001B      |          27 |
|       3 | 0xFFFFEADC  |  4294961884 |
|       4 | 0xFFFE7BBE  |  4294867902 |
|       5 | 0xFFFFFF6C  |  4294967148 |
|       6 | 0x06B4      |        1716 |
|       7 | 0x001E      |          30 |
|       8 | 0x026C      |         620 |
|       9 | 0x000F      |          15 |
|      10 | 0x000A      |          10 |
|      11 | 0x2401      |        9217 |
|      12 | 0x2402      |        9218 |
|      13 | 0x0027      |          39 |
|      14 | 0x2403      |        9219 |
|      15 | 0x2404      |        9220 |
|      16 | 0x0001      |           1 |
|      17 | 0x0013      |          19 |
|      18 | 0xFFFFE5E6  |  4294960614 |
|      19 | 0xFFFE8726  |  4294870822 |
|      20 | 0x097D      |        2429 |
|      21 | 0xFFFFFAC7  |  4294965959 |
|      22 | 0xFFFE94D0  |  4294874320 |
|      23 | 0x05A0      |        1440 |
|      24 | 0xFFFFF807  |  4294965255 |
|      25 | 0xFFFE8F0F  |  4294872847 |
|      26 | 0x05E0      |        1504 |
|      27 | 0xFFFFFBB4  |  4294966196 |
|      28 | 0xFFFE8D5B  |  4294872411 |
|      29 | 0x0698      |        1688 |
|      30 | 0xFFFFC2AD  |  4294951597 |
|      31 | 0xFFFE8B1B  |  4294871835 |
|      32 | 0x0069      |         105 |
|      33 | 0xFFFFDFE2  |  4294959074 |
|      34 | 0xFFFE78B0  |  4294867120 |
|      35 | 0x0CB0      |        3248 |
|      36 | 0x2405      |        9221 |
|      37 | 0x2406      |        9222 |
|      38 | 0x0005      |           5 |
|      39 | 0x2407      |        9223 |
|      40 | 0x2408      |        9224 |
|      41 | 0x0009      |           9 |
|      42 | 0x2409      |        9225 |
|      43 | 0x240A      |        9226 |
|      44 | 0x240B      |        9227 |
|      45 | 0x240C      |        9228 |
|      46 | 0x240D      |        9229 |
|      47 | 0x240E      |        9230 |
|      48 | 0x0016      |          22 |
|      49 | 0x240F      |        9231 |
|      50 | 0x00B3      |         179 |
|      51 | 0x2410      |        9232 |
|      52 | 0x2411      |        9233 |
|      53 | 0x2412      |        9234 |
|      54 | 0x0006      |           6 |
|      55 | 0x2413      |        9235 |
|      56 | 0x2414      |        9236 |
|      57 | 0x2415      |        9237 |
|      58 | 0x2416      |        9238 |
|      59 | 0x2417      |        9239 |
|      60 | 0x2418      |        9240 |
|      61 | 0x0007      |           7 |
|      62 | 0x2419      |        9241 |
|      63 | 0x003C      |          60 |
|      64 | 0x005A      |          90 |
|      65 | 0x012C      |         300 |
|      66 | 0x241A      |        9242 |
|      67 | 0xFFFFE4FA  |  4294960378 |
|      68 | 0xFFFE7FDB  |  4294868955 |
|      69 | 0x0041      |          65 |
|      70 | 0x241B      |        9243 |
|      71 | 0x241C      |        9244 |
|      72 | 0x241D      |        9245 |
|      73 | 0x241E      |        9246 |
|      74 | 0x241F      |        9247 |
|      75 | 0x2420      |        9248 |
|      76 | 0x2421      |        9249 |
|      77 | 0x2422      |        9250 |
|      78 | 0x2423      |        9251 |
|      79 | 0x2424      |        9252 |
|      80 | 0x2425      |        9253 |
|      81 | 0x2426      |        9254 |
|      82 | 0x2427      |        9255 |
|      83 | 0x2428      |        9256 |
|      84 | 0x000C      |          12 |
|      85 | 0xFFFF9795  |  4294940565 |
|      86 | 0xFFFEA5D3  |  4294878675 |
|      87 | 0xFFFF1579  |  4294907257 |
|      88 | 0x073C      |        1852 |
|      89 | 0x064E      |        1614 |
|      90 | 0xFFFF8856  |  4294936662 |
|      91 | 0xFFFE982F  |  4294875183 |
|      92 | 0xFFFF15A0  |  4294907296 |
|      93 | 0x0933      |        2355 |
|      94 | 0xFFFF9856  |  4294940758 |
|      95 | 0xFFFE8DEB  |  4294872555 |
|      96 | 0x00D5      |         213 |
|      97 | 0x00AA      |         170 |
|      98 | 0x2429      |        9257 |
|      99 | 0x0014      |          20 |
|     100 | 0x007B      |         123 |
|     101 | 0x0078      |         120 |
|     102 | 0xFFFFD46A  |  4294956138 |
|     103 | 0xFFFE9425  |  4294874149 |
|     104 | 0x0EEA      |        3818 |
|     105 | 0xFFFFFA58  |  4294965848 |
|     106 | 0xFFFE997D  |  4294875517 |
|     107 | 0x084F      |        2127 |
|     108 | 0xFFFFD20C  |  4294955532 |
|     109 | 0xFFFE9C6F  |  4294876271 |
|     110 | 0x0F57      |        3927 |
|     111 | 0xFFFFFED1  |  4294966993 |
|     112 | 0xFFFEA076  |  4294877302 |
|     113 | 0x07F9      |        2041 |
|     114 | 0x00D7      |         215 |
|     115 | 0x242A      |        9258 |
|     116 | 0xFFFFE5CD  |  4294960589 |
|     117 | 0xFFFE8170  |  4294869360 |
|     118 | 0xFFFFEA62  |  4294961762 |
|     119 | 0xFFFE8828  |  4294871080 |
|     120 | 0x242B      |        9259 |
|     121 | 0x24C7      |        9415 |
|     122 | 0x245C      |        9308 |
|     123 | 0x242C      |        9260 |
|     124 | 0x0050      |          80 |
|     125 | 0x0028      |          40 |
|     126 | 0x242D      |        9261 |
|     127 | 0x3380      |       13184 |
|     128 | 0xFFFDDC90  |  4294827152 |
|     129 | 0x0440      |        1088 |
|     130 | 0x242F      |        9263 |
|     131 | 0x07D8      |        2008 |
|     132 | 0x00B4      |         180 |
|     133 | 0x562B      |       22059 |
|     134 | 0xFFFE544D  |  4294857805 |
|     135 | 0x0010      |          16 |
|     136 | 0x2430      |        9264 |
|     137 | 0x2431      |        9265 |
|     138 | 0x2432      |        9266 |
|     139 | 0x00F4      |         244 |
|     140 | 0x00FF      |         255 |
|     141 | 0x01BE      |         446 |
|     142 | 0xFFFF1E58  |  4294909528 |
|     143 | 0xFFFFD737  |  4294956855 |
|     144 | 0xFFFFFE0C  |  4294966796 |
|     145 | 0x0E97      |        3735 |
|     146 | 0xFFFF1CE9  |  4294909161 |
|     147 | 0xFFFFEE6C  |  4294962796 |
|     148 | 0x0FFF      |        4095 |
|     149 | 0x0094      |         148 |
|     150 | 0x2433      |        9267 |
|     151 | 0x2434      |        9268 |
|     152 | 0x2435      |        9269 |
|     153 | 0x2436      |        9270 |
|     154 | 0x2437      |        9271 |
|     155 | 0x2438      |        9272 |
|     156 | 0x2439      |        9273 |
|     157 | 0x243A      |        9274 |
|     158 | 0x243B      |        9275 |
|     159 | 0x243C      |        9276 |
|     160 | 0x243D      |        9277 |
|     161 | 0x243E      |        9278 |
|     162 | 0x02BC      |         700 |
|     163 | 0x682A      |       26666 |
|     164 | 0xFFFE546E  |  4294857838 |
|     165 | 0xFFFFFD11  |  4294966545 |
|     166 | 0x07F0      |        2032 |
|     167 | 0x64AC      |       25772 |
|     168 | 0xFFFE2521  |  4294845729 |
|     169 | 0x07CC      |        1996 |
|     170 | 0x596D      |       22893 |
|     171 | 0xFFFE3BDF  |  4294851551 |
|     172 | 0x0C07      |        3079 |
|     173 | 0x243F      |        9279 |
|     174 | 0x0046      |          70 |
|     175 | 0x2440      |        9280 |
|     176 | 0x2441      |        9281 |
|     177 | 0x2442      |        9282 |
|     178 | 0x2443      |        9283 |
|     179 | 0x2444      |        9284 |
|     180 | 0x2445      |        9285 |
|     181 | 0x2446      |        9286 |
|     182 | 0x2447      |        9287 |
|     183 | 0xFFFFD813  |  4294957075 |
|     184 | 0xFFFE8823  |  4294871075 |
|     185 | 0x0148      |         328 |
|     186 | 0x2448      |        9288 |
|     187 | 0x2449      |        9289 |
|     188 | 0x244A      |        9290 |
|     189 | 0x244B      |        9291 |
|     190 | 0x244C      |        9292 |
|     191 | 0x244D      |        9293 |
|     192 | 0x244E      |        9294 |
|     193 | 0x244F      |        9295 |
|     194 | 0x2450      |        9296 |
|     195 | 0x2451      |        9297 |
|     196 | 0x2452      |        9298 |
|     197 | 0x2453      |        9299 |
|     198 | 0x2454      |        9300 |
|     199 | 0x2455      |        9301 |
|     200 | 0x2456      |        9302 |
|     201 | 0x2457      |        9303 |
|     202 | 0x2458      |        9304 |
|     203 | 0x2459      |        9305 |
|     204 | 0x245A      |        9306 |
|     205 | 0x245B      |        9307 |
|     206 | 0x245D      |        9309 |
|     207 | 0x245E      |        9310 |
|     208 | 0x245F      |        9311 |
|     209 | 0x2460      |        9312 |
|     210 | 0x2461      |        9313 |
|     211 | 0x2462      |        9314 |
|     212 | 0xFFFFDE7E  |  4294958718 |
|     213 | 0xFFFE8750  |  4294870864 |
|     214 | 0x074F      |        1871 |
|     215 | 0x2463      |        9315 |
|     216 | 0x2464      |        9316 |
|     217 | 0x2465      |        9317 |
|     218 | 0x2466      |        9318 |
|     219 | 0x2467      |        9319 |
|     220 | 0x2468      |        9320 |
|     221 | 0x2469      |        9321 |
|     222 | 0x246A      |        9322 |
|     223 | 0x246B      |        9323 |
|     224 | 0x246C      |        9324 |
|     225 | 0x246D      |        9325 |
|     226 | 0x246E      |        9326 |
|     227 | 0x246F      |        9327 |
|     228 | 0x2470      |        9328 |
|     229 | 0xFFFFE58A  |  4294960522 |
|     230 | 0xFFFE802D  |  4294869037 |
|     231 | 0x016B      |         363 |
|     232 | 0x2471      |        9329 |
|     233 | 0x2472      |        9330 |
|     234 | 0x0003      |           3 |
|     235 | 0x2473      |        9331 |
|     236 | 0x2474      |        9332 |
|     237 | 0x2475      |        9333 |
|     238 | 0x2476      |        9334 |
|     239 | 0x2477      |        9335 |
|     240 | 0x00E6      |         230 |
|     241 | 0xFFFFDFC9  |  4294959049 |
|     242 | 0xFFFE681E  |  4294862878 |
|     243 | 0x0577      |        1399 |
|     244 | 0x0BEE      |        3054 |
|     245 | 0xFFFFCF06  |  4294954758 |
|     246 | 0xFFFE73B0  |  4294865840 |
|     247 | 0x0545      |        1349 |
|     248 | 0x0182      |         386 |
|     249 | 0xFFFFCFC6  |  4294954950 |
|     250 | 0xFFFE6971  |  4294863217 |
|     251 | 0x0BDC      |        3036 |
|     252 | 0xFFFFE8B6  |  4294961334 |
|     253 | 0xFFFE7918  |  4294867224 |
|     254 | 0xFFFFDE8D  |  4294958733 |
|     255 | 0xFFFE93AB  |  4294874027 |
|     256 | 0x0560      |        1376 |
|     257 | 0x01D4      |         468 |
|     258 | 0xFFFFE569  |  4294960489 |
|     259 | 0xFFFE9502  |  4294874370 |
|     260 | 0x0404      |        1028 |
|     261 | 0xFFFFDE56  |  4294958678 |
|     262 | 0xFFFE9B4F  |  4294875983 |
|     263 | 0x0564      |        1380 |
|     264 | 0xFFFFE2D9  |  4294959833 |
|     265 | 0xFFFE9D2B  |  4294876459 |
|     266 | 0x0CAC      |        3244 |
|     267 | 0x2478      |        9336 |
|     268 | 0x2479      |        9337 |
|     269 | 0x0008      |           8 |
|     270 | 0xFFFFDF9B  |  4294959003 |
|     271 | 0xFFFE7111  |  4294865169 |
|     272 | 0x060C      |        1548 |
|     273 | 0x007C      |         124 |
|     274 | 0x0064      |         100 |
|     275 | 0x247A      |        9338 |
|     276 | 0x247B      |        9339 |
|     277 | 0x247C      |        9340 |
|     278 | 0x0032      |          50 |
|     279 | 0x247D      |        9341 |
|     280 | 0x247E      |        9342 |
|     281 | 0x247F      |        9343 |
|     282 | 0x2480      |        9344 |
|     283 | 0x2481      |        9345 |
|     284 | 0x2482      |        9346 |
|     285 | 0x2483      |        9347 |
|     286 | 0x2484      |        9348 |
|     287 | 0x2485      |        9349 |
|     288 | 0x2486      |        9350 |
|     289 | 0x2487      |        9351 |
|     290 | 0x2488      |        9352 |
|     291 | 0x2489      |        9353 |
|     292 | 0x248A      |        9354 |
|     293 | 0x248B      |        9355 |
|     294 | 0x248C      |        9356 |
|     295 | 0x03E7      |         999 |
|     296 | 0x449B      |       17563 |
|     297 | 0xFFFECBAF  |  4294888367 |
|     298 | 0x0CA4      |        3236 |
|     299 | 0x4979      |       18809 |
|     300 | 0xFFFEC994  |  4294887828 |
|     301 | 0x4C78      |       19576 |
|     302 | 0xFFFEC15A  |  4294885722 |
|     303 | 0x0BA2      |        2978 |
|     304 | 0x4907      |       18695 |
|     305 | 0xFFFEBC52  |  4294884434 |
|     306 | 0x0BD2      |        3026 |
|     307 | 0x1F44      |        8004 |
|     308 | 0xFFFE91B2  |  4294873522 |
|     309 | 0x1FC6      |        8134 |
|     310 | 0xFFFE98D7  |  4294875351 |
|     311 | 0x3E1C      |       15900 |
|     312 | 0xFFFEAC2E  |  4294880302 |
|     313 | 0x03D0      |         976 |
|     314 | 0x0B52      |        2898 |
|     315 | 0x248D      |        9357 |
|     316 | 0x248E      |        9358 |
|     317 | 0x248F      |        9359 |
|     318 | 0x2490      |        9360 |
|     319 | 0x2491      |        9361 |
|     320 | 0x23B8      |        9144 |
|     321 | 0xFFFE91BA  |  4294873530 |
|     322 | 0x0DEF      |        3567 |
|     323 | 0x2492      |        9362 |
|     324 | 0x2493      |        9363 |
|     325 | 0x2494      |        9364 |
|     326 | 0x2495      |        9365 |
|     327 | 0x2496      |        9366 |
|     328 | 0x2497      |        9367 |
|     329 | 0x2498      |        9368 |
|     330 | 0x2499      |        9369 |
|     331 | 0x249A      |        9370 |
|     332 | 0x249B      |        9371 |
|     333 | 0x4B49      |       19273 |
|     334 | 0xFFFEBBE3  |  4294884323 |
|     335 | 0x0448      |        1096 |
|     336 | 0x4BA1      |       19361 |
|     337 | 0xFFFE8540  |  4294870336 |
|     338 | 0x0C36      |        3126 |
|     339 | 0x249C      |        9372 |
|     340 | 0x249D      |        9373 |
|     341 | 0x249E      |        9374 |
|     342 | 0x249F      |        9375 |
|     343 | 0x24A0      |        9376 |
|     344 | 0x24A1      |        9377 |
|     345 | 0x24A2      |        9378 |
|     346 | 0x24A3      |        9379 |
|     347 | 0x0983      |        2435 |
|     348 | 0xFFFE9730  |  4294874928 |
|     349 | 0x0E05      |        3589 |
|     350 | 0xFFFEA991  |  4294879633 |
|     351 | 0x1907      |        6407 |
|     352 | 0xFFFE9C1B  |  4294876187 |
|     353 | 0x102E      |        4142 |
|     354 | 0xFFFE9F2A  |  4294876970 |
|     355 | 0xFFFFC10C  |  4294951180 |
|     356 | 0xFFFE8B9F  |  4294871967 |
|     357 | 0x0F9C      |        3996 |
|     358 | 0x0096      |         150 |
|     359 | 0x24A6      |        9382 |
|     360 | 0x24A7      |        9383 |
|     361 | 0x24A8      |        9384 |
|     362 | 0x24A9      |        9385 |
|     363 | 0x24AA      |        9386 |
|     364 | 0x001D      |          29 |
|     365 | 0x24AB      |        9387 |
|     366 | 0x24AC      |        9388 |
|     367 | 0x24AD      |        9389 |
|     368 | 0x24AE      |        9390 |
|     369 | 0xFFFFFEFC  |  4294967036 |
|     370 | 0xFFFE8E0F  |  4294872591 |
|     371 | 0x0C94      |        3220 |
|     372 | 0x24AF      |        9391 |
|     373 | 0x24B0      |        9392 |
|     374 | 0x24B1      |        9393 |
|     375 | 0x0065      |         101 |
|     376 | 0x24B2      |        9394 |
|     377 | 0x24B3      |        9395 |
|     378 | 0x00C9      |         201 |
|     379 | 0x0249      |         585 |
|     380 | 0xFFFEA008  |  4294877192 |
|     381 | 0x04A7      |        1191 |
|     382 | 0x0D15      |        3349 |
|     383 | 0x0C3D      |        3133 |
|     384 | 0xFFFEA602  |  4294878722 |
|     385 | 0x0E03      |        3587 |
|     386 | 0x0643      |        1603 |
|     387 | 0xFFFE9DA7  |  4294876583 |
|     388 | 0x0E59      |        3673 |
|     389 | 0x03D3      |         979 |
|     390 | 0xFFFE8F10  |  4294872848 |
|     391 | 0x3DFA      |       15866 |
|     392 | 0x0CCC      |        3276 |
|     393 | 0x0CCE      |        3278 |
|     394 | 0x022E      |         558 |
|     395 | 0x007F      |         127 |
|     396 | 0x24B7      |        9399 |
|     397 | 0x0045      |          69 |
|     398 | 0x24B8      |        9400 |
|     399 | 0x24B9      |        9401 |
|     400 | 0x24BA      |        9402 |
|     401 | 0x24BB      |        9403 |
|     402 | 0x24BC      |        9404 |
|     403 | 0x0BC1      |        3009 |
|     404 | 0x24BD      |        9405 |
|     405 | 0xFFFEA157  |  4294877527 |
|     406 | 0x280B      |       10251 |
|     407 | 0x04CA      |        1226 |
|     408 | 0x24BE      |        9406 |
|     409 | 0x24BF      |        9407 |
|     410 | 0x24C0      |        9408 |
|     411 | 0x24C1      |        9409 |
|     412 | 0x24C2      |        9410 |
|     413 | 0x24C3      |        9411 |
|     414 | 0x24C4      |        9412 |
|     415 | 0x24C5      |        9413 |
|     416 | 0x24C6      |        9414 |
|     417 | 0x24C8      |        9416 |
|     418 | 0x24CD      |        9421 |
|     419 | 0x24CE      |        9422 |
|     420 | 0x24CF      |        9423 |
|     421 | 0x24D0      |        9424 |
|     422 | 0x24D1      |        9425 |
|     423 | 0xFFFE989B  |  4294875291 |
|     424 | 0x01BC      |         444 |
|     425 | 0x0EA2      |        3746 |
|     426 | 0xFFFE9888  |  4294875272 |
|     427 | 0x09E4      |        2532 |
|     428 | 0x00FB      |         251 |
|     429 | 0xFFFEA242  |  4294877762 |
|     430 | 0x0600      |        1536 |
|     431 | 0x07C3      |        1987 |
|     432 | 0x24C9      |        9417 |
|     433 | 0x24CA      |        9418 |
|     434 | 0x24CB      |        9419 |
|     435 | 0x24CC      |        9420 |
|     436 | 0x043F      |        1087 |
|     437 | 0xFFFEA2A3  |  4294877859 |
|     438 | 0x0423      |        1059 |
|     439 | 0xFFFE9951  |  4294875473 |
|     440 | 0x0527      |        1319 |
|     441 | 0x0512      |        1298 |
|     442 | 0x24D9      |        9433 |
|     443 | 0x24DA      |        9434 |
|     444 | 0xFFFE9D69  |  4294876521 |
|     445 | 0x239D      |        9117 |
|     446 | 0x24DB      |        9435 |
|     447 | 0x24DC      |        9436 |
|     448 | 0x24DD      |        9437 |
|     449 | 0x24DE      |        9438 |
|     450 | 0x24DF      |        9439 |
|     451 | 0x24E0      |        9440 |
|     452 | 0x0F93      |        3987 |
|     453 | 0x24E1      |        9441 |
|     454 | 0x24E2      |        9442 |
|     455 | 0x0CCF      |        3279 |
|     456 | 0x24E3      |        9443 |
|     457 | 0x0CCD      |        3277 |
|     458 | 0x24E4      |        9444 |
|     459 | 0x24E5      |        9445 |
|     460 | 0x24E6      |        9446 |
|     461 | 0x24E7      |        9447 |
|     462 | 0x24E8      |        9448 |
|     463 | 0x24E9      |        9449 |
|     464 | 0x24EA      |        9450 |
|     465 | 0x24EB      |        9451 |
|     466 | 0x24EC      |        9452 |
|     467 | 0x0251      |         593 |
|     468 | 0x003E      |          62 |
|     469 | 0xFFFFC30F  |  4294951695 |
|     470 | 0x0264      |         612 |
|     471 | 0x0271      |         625 |
|     472 | 0xFFFFD5DA  |  4294956506 |
|     473 | 0x0AE6      |        2790 |
|     474 | 0x0994      |        2452 |
|     475 | 0xFFFFD859  |  4294957145 |
|     476 | 0x0FCC      |        4044 |
|     477 | 0xFFFFA653  |  4294944339 |
|     478 | 0x0C00      |        3072 |
|     479 | 0xFFFFB335  |  4294947637 |
|     480 | 0x0BFF      |        3071 |
|     481 | 0xFFFFFFB1  |  4294967217 |
|     482 | 0xFFFFB966  |  4294949222 |
|     483 | 0x026D      |         621 |
|     484 | 0x00BD      |         189 |
|     485 | 0x24EF      |        9455 |
|     486 | 0x24F0      |        9456 |
|     487 | 0x0F4B      |        3915 |
|     488 | 0x24F1      |        9457 |
|     489 | 0x009F      |         159 |
|     490 | 0x24F2      |        9458 |
|     491 | 0xFFFFFCFA  |  4294966522 |
|     492 | 0xFFFFACD2  |  4294946002 |
|     493 | 0x24F3      |        9459 |
|     494 | 0x24F4      |        9460 |
|     495 | 0x24F5      |        9461 |
|     496 | 0x24F6      |        9462 |
|     497 | 0x0015      |          21 |
|     498 | 0x24F7      |        9463 |
|     499 | 0x24F8      |        9464 |
|     500 | 0xFFFFF743  |  4294965059 |
|     501 | 0xFFFFB00F  |  4294946831 |
|     502 | 0x00C0      |         192 |
|     503 | 0x24F9      |        9465 |
|     504 | 0x24FA      |        9466 |
|     505 | 0xFFFFFD3A  |  4294966586 |
|     506 | 0xFFFFC62C  |  4294952492 |
|     507 | 0x00D2      |         210 |
|     508 | 0xFFFFBF77  |  4294950775 |
|     509 | 0x24FB      |        9467 |
|     510 | 0x24FC      |        9468 |
|     511 | 0x24FD      |        9469 |
|     512 | 0x24FE      |        9470 |
|     513 | 0x24FF      |        9471 |
|     514 | 0x2500      |        9472 |
|     515 | 0xFFFFA89A  |  4294944922 |
|     516 | 0x0BB2      |        2994 |
|     517 | 0x005B      |          91 |
|     518 | 0xFFFFB228  |  4294947368 |
|     519 | 0x2501      |        9473 |
|     520 | 0x06D7      |        1751 |
|     521 | 0xFFFFC90C  |  4294953228 |
|     522 | 0x0609      |        1545 |
|     523 | 0x2502      |        9474 |
|     524 | 0x2503      |        9475 |
|     525 | 0x2504      |        9476 |
|     526 | 0x2505      |        9477 |
|     527 | 0x0051      |          81 |
|     528 | 0x2506      |        9478 |
|     529 | 0x2507      |        9479 |
|     530 | 0x0272      |         626 |
|     531 | 0x250A      |        9482 |
|     532 | 0x250B      |        9483 |
|     533 | 0x250C      |        9484 |
|     534 | 0x05A1      |        1441 |
|     535 | 0xFFFFBF97  |  4294950807 |
|     536 | 0x0BD9      |        3033 |
|     537 | 0x250D      |        9485 |
|     538 | 0x250E      |        9486 |
|     539 | 0x0927      |        2343 |
|     540 | 0x250F      |        9487 |
|     541 | 0x2510      |        9488 |
|     542 | 0x2511      |        9489 |
|     543 | 0x2512      |        9490 |
|     544 | 0x2513      |        9491 |
|     545 | 0x2514      |        9492 |
|     546 | 0x2515      |        9493 |
|     547 | 0x2516      |        9494 |
|     548 | 0x2517      |        9495 |
|     549 | 0x2518      |        9496 |
|     550 | 0x2519      |        9497 |
|     551 | 0x251A      |        9498 |
|     552 | 0x251B      |        9499 |
|     553 | 0x251C      |        9500 |
|     554 | 0x251D      |        9501 |
|     555 | 0x251E      |        9502 |
|     556 | 0x251F      |        9503 |
|     557 | 0xFFFF2201  |  4294910465 |
|     558 | 0xFFFFDE1C  |  4294958620 |
|     559 | 0x053E      |        1342 |
|     560 | 0x024B      |         587 |
|     561 | 0x16291     |       90769 |
|     562 | 0xFFFED2B7  |  4294890167 |
|     563 | 0xFFFFFD76  |  4294966646 |
|     564 | 0x0AB7      |        2743 |
|     565 | 0x2520      |        9504 |
|     566 | 0x2521      |        9505 |
|     567 | 0x2522      |        9506 |
|     568 | 0x2523      |        9507 |
|     569 | 0x2524      |        9508 |
|     570 | 0x15CFF     |       89343 |
|     571 | 0xFFFEDAEA  |  4294892266 |
|     572 | 0xFFFFFD75  |  4294966645 |
|     573 | 0x0200      |         512 |
|     574 | 0x2525      |        9509 |
|     575 | 0x2526      |        9510 |
|     576 | 0x2527      |        9511 |
|     577 | 0x2528      |        9512 |
|     578 | 0xFFFF21F2  |  4294910450 |
|     579 | 0xFFFFE92B  |  4294961451 |
|     580 | 0xFFFF3737  |  4294915895 |
|     581 | 0x0A7A      |        2682 |
|     582 | 0xFFFFFE0D  |  4294966797 |
|     583 | 0x0572      |        1394 |
|     584 | 0xFFFF2897  |  4294912151 |
|     585 | 0x0A27      |        2599 |
|     586 | 0x003D      |          61 |
|     587 | 0x2529      |        9513 |
|     588 | 0x252A      |        9514 |
|     589 | 0x252B      |        9515 |
|     590 | 0x252C      |        9516 |
|     591 | 0x252D      |        9517 |
|     592 | 0x252E      |        9518 |
|     593 | 0x252F      |        9519 |
|     594 | 0x2530      |        9520 |
|     595 | 0x003B      |          59 |
|     596 | 0x07EB      |        2027 |
|     597 | 0xFFFFD808  |  4294957064 |
|     598 | 0x00B9      |         185 |
|     599 | 0xFFFFD2C5  |  4294955717 |
|     600 | 0x0BDA      |        3034 |
|     601 | 0x0273      |         627 |
|     602 | 0x2531      |        9521 |
|     603 | 0x2532      |        9522 |
|     604 | 0x2533      |        9523 |
|     605 | 0x2534      |        9524 |
|     606 | 0x2535      |        9525 |
|     607 | 0x2536      |        9526 |
|     608 | 0x2537      |        9527 |
|     609 | 0x2538      |        9528 |
|     610 | 0x2539      |        9529 |
|     611 | 0x253A      |        9530 |
|     612 | 0x253B      |        9531 |
|     613 | 0x253C      |        9532 |
|     614 | 0x253D      |        9533 |
|     615 | 0x253E      |        9534 |
|     616 | 0x253F      |        9535 |
|     617 | 0x2540      |        9536 |
|     618 | 0x2541      |        9537 |
|     619 | 0x2542      |        9538 |
|     620 | 0x2543      |        9539 |
|     621 | 0x2544      |        9540 |
|     622 | 0x2545      |        9541 |
|     623 | 0x2546      |        9542 |
|     624 | 0x2547      |        9543 |
|     625 | 0x2548      |        9544 |
|     626 | 0x2549      |        9545 |
|     627 | 0xFFFFDD06  |  4294958342 |
|     628 | 0x03EE      |        1006 |
|     629 | 0x0017      |          23 |
|     630 | 0xFFFFE405  |  4294960133 |
|     631 | 0x00A0      |         160 |
|     632 | 0x254A      |        9546 |
|     633 | 0x254B      |        9547 |
|     634 | 0x254C      |        9548 |
|     635 | 0x254D      |        9549 |
|     636 | 0x254E      |        9550 |
|     637 | 0x254F      |        9551 |
|     638 | 0x0CBD      |        3261 |
|     639 | 0x2550      |        9552 |
|     640 | 0x2551      |        9553 |
|     641 | 0x2552      |        9554 |
|     642 | 0x2553      |        9555 |
|     643 | 0x2554      |        9556 |
|     644 | 0x2555      |        9557 |
|     645 | 0x2556      |        9558 |
|     646 | 0x008C      |         140 |
|     647 | 0x2557      |        9559 |
|     648 | 0x2558      |        9560 |
|     649 | 0x2559      |        9561 |
|     650 | 0x255A      |        9562 |
|     651 | 0x255B      |        9563 |
|     652 | 0x255C      |        9564 |
|     653 | 0x255D      |        9565 |
|     654 | 0x255E      |        9566 |
|     655 | 0x255F      |        9567 |
|     656 | 0x2560      |        9568 |
|     657 | 0x2561      |        9569 |
|     658 | 0x2562      |        9570 |
|     659 | 0x2563      |        9571 |
|     660 | 0x0179      |         377 |
|     661 | 0xFFFFD463  |  4294956131 |
|     662 | 0x067E      |        1662 |
|     663 | 0xFFFFD224  |  4294955556 |
|     664 | 0x000D      |          13 |
|     665 | 0xFFFFBF61  |  4294950753 |
|     666 | 0x0278      |         632 |
|     667 | 0x2564      |        9572 |
|     668 | 0x2565      |        9573 |
|     669 | 0x2566      |        9574 |
|     670 | 0x2567      |        9575 |
|     671 | 0x2568      |        9576 |
|     672 | 0x2569      |        9577 |
|     673 | 0x256A      |        9578 |
|     674 | 0x256B      |        9579 |
|     675 | 0x256C      |        9580 |
|     676 | 0x256D      |        9581 |
|     677 | 0x256E      |        9582 |
|     678 | 0x256F      |        9583 |
|     679 | 0x2570      |        9584 |
|     680 | 0x2571      |        9585 |
|     681 | 0x2572      |        9586 |
|     682 | 0x2573      |        9587 |
|     683 | 0x2574      |        9588 |
|     684 | 0x01E0      |         480 |
|     685 | 0xFFFFC9DE  |  4294953438 |
|     686 | 0x0C7A      |        3194 |
|     687 | 0xFFFFFFFD  |  4294967293 |
|     688 | 0xFFFFCE22  |  4294954530 |
|     689 | 0x0C01      |        3073 |
|     690 | 0xFFFFFFF8  |  4294967288 |
|     691 | 0xFFFFE7E3  |  4294961123 |
|     692 | 0x03E2      |         994 |
|     693 | 0xFFFFEF44  |  4294963012 |
|     694 | 0x0717      |        1815 |
|     695 | 0xFFFFC01F  |  4294950943 |
|     696 | 0x0031      |          49 |
|     697 | 0x2575      |        9589 |
|     698 | 0x2576      |        9590 |
|     699 | 0x2577      |        9591 |
|     700 | 0x0CBE      |        3262 |
|     701 | 0x2578      |        9592 |
|     702 | 0x2579      |        9593 |
|     703 | 0x257A      |        9594 |
|     704 | 0x257B      |        9595 |
|     705 | 0x257C      |        9596 |
|     706 | 0x257D      |        9597 |
|     707 | 0x257E      |        9598 |
|     708 | 0x257F      |        9599 |
|     709 | 0x2580      |        9600 |
|     710 | 0xFFFDF04F  |  4294832207 |
|     711 | 0xFFFFB7F4  |  4294948852 |
|     712 | 0x0F9F      |        3999 |
|     713 | 0x080D      |        2061 |
|     714 | 0xFFFDAF9D  |  4294815645 |
|     715 | 0xFFFF96DD  |  4294940381 |
|     716 | 0xFFFDAF45  |  4294815557 |
|     717 | 0xFFFF9D0F  |  4294941967 |
|     718 | 0xFFFDC01A  |  4294819866 |
|     719 | 0xFFFF9A12  |  4294941202 |
|     720 | 0x084A      |        2122 |
|     721 | 0xFFFDCC83  |  4294823043 |
|     722 | 0xFFFF932A  |  4294939434 |
|     723 | 0x0851      |        2129 |
|     724 | 0xFFFDCB43  |  4294822723 |
|     725 | 0xFFFFA1B7  |  4294943159 |
|     726 | 0x07D6      |        2006 |
|     727 | 0xFFFDC641  |  4294821441 |
|     728 | 0xFFFF954F  |  4294939983 |
|     729 | 0xFFFDC5C3  |  4294821315 |
|     730 | 0xFFFF9F5C  |  4294942556 |
|     731 | 0x0838      |        2104 |
|     732 | 0xFFFDCEF2  |  4294823666 |
|     733 | 0xFFFF9962  |  4294941026 |
|     734 | 0xFFFDB3A1  |  4294816673 |
|     735 | 0xFFFFBABB  |  4294949563 |
|     736 | 0x0243      |         579 |
|     737 | 0x0CB9      |        3257 |
|     738 | 0x003F      |          63 |
|     739 | 0x02E7      |         743 |
|     740 | 0x2582      |        9602 |
|     741 | 0x0019      |          25 |
|     742 | 0x2583      |        9603 |
|     743 | 0x0024      |          36 |
|     744 | 0x2584      |        9604 |
|     745 | 0x2585      |        9605 |
|     746 | 0x2586      |        9606 |
|     747 | 0x2587      |        9607 |
|     748 | 0x2588      |        9608 |
|     749 | 0x2589      |        9609 |
|     750 | 0x0683      |        1667 |
|     751 | 0xFFFFD7F2  |  4294957042 |
|     752 | 0x02EB      |         747 |
|     753 | 0x258A      |        9610 |
|     754 | 0x258B      |        9611 |
|     755 | 0x258C      |        9612 |
|     756 | 0x258D      |        9613 |
|     757 | 0x258E      |        9614 |
|     758 | 0x258F      |        9615 |
|     759 | 0x2590      |        9616 |
|     760 | 0x2591      |        9617 |
|     761 | 0xFFFFF8A6  |  4294965414 |
|     762 | 0xFFFFC864  |  4294953060 |
|     763 | 0x0D70      |        3440 |
|     764 | 0x2592      |        9618 |
|     765 | 0x2593      |        9619 |
|     766 | 0x2594      |        9620 |
|     767 | 0x2595      |        9621 |
|     768 | 0x2596      |        9622 |
|     769 | 0x2597      |        9623 |
|     770 | 0x2598      |        9624 |
|     771 | 0x0002      |           2 |
|     772 | 0x2599      |        9625 |
|     773 | 0x259A      |        9626 |
|     774 | 0x259B      |        9627 |
|     775 | 0x259C      |        9628 |
|     776 | 0x259D      |        9629 |
|     777 | 0x259E      |        9630 |
|     778 | 0xFFFFFCE0  |  4294966496 |
|     779 | 0xF230      |       62000 |
|     780 | 0xFFFFAA10  |  4294945296 |
|     781 | 0xF239      |       62009 |
|     782 | 0xFFFFAA42  |  4294945346 |
|     783 | 0x0FD1      |        4049 |
|     784 | 0x00AD      |         173 |
|     785 | 0x00A1      |         161 |
|     786 | 0x259F      |        9631 |
|     787 | 0x25A0      |        9632 |
|     788 | 0x25A1      |        9633 |
|     789 | 0x25A2      |        9634 |
|     790 | 0x25A3      |        9635 |
|     791 | 0x25A4      |        9636 |
|     792 | 0x25A5      |        9637 |
|     793 | 0xFFFF1AF4  |  4294908660 |
|     794 | 0xFFFFD210  |  4294955536 |
|     795 | 0xFFFFFB50  |  4294966096 |
|     796 | 0x0AAB      |        2731 |
|     797 | 0xFFFF1D6A  |  4294909290 |
|     798 | 0x0B46      |        2886 |
|     799 | 0x0571      |        1393 |
|     800 | 0xFFFF22F6  |  4294910710 |
|     801 | 0xFFFFD776  |  4294956918 |
|     802 | 0xFFFF2716  |  4294911766 |
|     803 | 0xFFFFD952  |  4294957394 |
|     804 | 0x04EE      |        1262 |
|     805 | 0xFFFF1ADC  |  4294908636 |
|     806 | 0xFFFFF52D  |  4294964525 |
|     807 | 0x029F      |         671 |
|     808 | 0xFFFF18F3  |  4294908147 |
|     809 | 0xFFFFF95F  |  4294965599 |
|     810 | 0xFFFF15AA  |  4294907306 |
|     811 | 0xFFFFF875  |  4294965365 |
|     812 | 0x0D23      |        3363 |
|     813 | 0x25A6      |        9638 |
|     814 | 0x25A7      |        9639 |
|     815 | 0x25A8      |        9640 |
|     816 | 0x25A9      |        9641 |
|     817 | 0xFFFF1832  |  4294907954 |
|     818 | 0xFFFFF955  |  4294965589 |
|     819 | 0x25AA      |        9642 |
|     820 | 0x007A      |         122 |
|     821 | 0x25AB      |        9643 |
|     822 | 0x25AC      |        9644 |
|     823 | 0xFFFF22F5  |  4294910709 |
|     824 | 0xFFFFE320  |  4294959904 |
|     825 | 0x0511      |        1297 |
|     826 | 0x25AD      |        9645 |
|     827 | 0xFFFF2A03  |  4294912515 |
|     828 | 0xFFFFE411  |  4294960145 |
|     829 | 0xFFFF24C7  |  4294911175 |
|     830 | 0xFFFFDEA2  |  4294958754 |
|     831 | 0x0510      |        1296 |
|     832 | 0x25AE      |        9646 |
|     833 | 0x25AF      |        9647 |
|     834 | 0x25B0      |        9648 |
|     835 | 0x25B1      |        9649 |
|     836 | 0x25B2      |        9650 |
|     837 | 0x25B3      |        9651 |
|     838 | 0x25B4      |        9652 |
|     839 | 0x25B5      |        9653 |
|     840 | 0x25B6      |        9654 |
|     841 | 0x25B7      |        9655 |
|     842 | 0x25B8      |        9656 |
|     843 | 0xFFFF290B  |  4294912267 |
|     844 | 0xFFFFDFEA  |  4294959082 |
|     845 | 0x25B9      |        9657 |
|     846 | 0x25BA      |        9658 |
|     847 | 0x25BB      |        9659 |
|     848 | 0x25BC      |        9660 |
|     849 | 0x0018      |          24 |
|     850 | 0x25BD      |        9661 |
|     851 | 0x25BE      |        9662 |
|     852 | 0xFFFF2296  |  4294910614 |
|     853 | 0xFFFFE7CD  |  4294961101 |
|     854 | 0x0596      |        1430 |
|     855 | 0x25BF      |        9663 |
|     856 | 0x25C0      |        9664 |
|     857 | 0x25C1      |        9665 |
|     858 | 0x25C2      |        9666 |
|     859 | 0x25C3      |        9667 |
|     860 | 0x25C4      |        9668 |
|     861 | 0x25C5      |        9669 |
|     862 | 0x25C6      |        9670 |
|     863 | 0x25C7      |        9671 |
|     864 | 0x25C8      |        9672 |
|     865 | 0x25C9      |        9673 |
|     866 | 0x25CA      |        9674 |
|     867 | 0x25CB      |        9675 |
|     868 | 0x25CC      |        9676 |
|     869 | 0x25CD      |        9677 |
|     870 | 0x25CE      |        9678 |
|     871 | 0x000B      |          11 |
|     872 | 0x25CF      |        9679 |
|     873 | 0xFFFF2036  |  4294910006 |
|     874 | 0xFFFFE94C  |  4294961484 |
|     875 | 0xFFFF24CD  |  4294911181 |
|     876 | 0xFFFFE418  |  4294960152 |
|     877 | 0x087A      |        2170 |
|     878 | 0x25D0      |        9680 |
|     879 | 0x25D1      |        9681 |
|     880 | 0x25D2      |        9682 |
|     881 | 0x25D3      |        9683 |
|     882 | 0x25D4      |        9684 |
|     883 | 0x25D5      |        9685 |
|     884 | 0x25D6      |        9686 |
|     885 | 0x25D7      |        9687 |
|     886 | 0x25D8      |        9688 |
|     887 | 0x25D9      |        9689 |
|     888 | 0x25DA      |        9690 |
|     889 | 0x25DB      |        9691 |
|     890 | 0xFFFF261F  |  4294911519 |
|     891 | 0xFFFFE015  |  4294959125 |
|     892 | 0x25DC      |        9692 |
|     893 | 0x25DD      |        9693 |
|     894 | 0x25DE      |        9694 |
|     895 | 0x25DF      |        9695 |
|     896 | 0x001A      |          26 |
|     897 | 0x25E0      |        9696 |
|     898 | 0x25E1      |        9697 |
|     899 | 0x25E2      |        9698 |
|     900 | 0x25E3      |        9699 |
|     901 | 0x25E4      |        9700 |
|     902 | 0x015F      |         351 |
|     903 | 0xFFFFDA0E  |  4294957582 |
|     904 | 0x0BE8      |        3048 |
|     905 | 0x25E6      |        9702 |
|     906 | 0x6F40      |       28480 |
|     907 | 0x25E7      |        9703 |
|     908 | 0x25E8      |        9704 |
|     909 | 0x25E9      |        9705 |
|     910 | 0x25EA      |        9706 |
|     911 | 0xFFFFD1F5  |  4294955509 |
|     912 | 0x25F0      |        9712 |
|     913 | 0x25EB      |        9707 |
|     914 | 0x25EC      |        9708 |
|     915 | 0x0047      |          71 |
|     916 | 0x25ED      |        9709 |
|     917 | 0x25EE      |        9710 |
|     918 | 0x25EF      |        9711 |
|     919 | 0x11827     |       71719 |
|     920 | 0xFFFF977C  |  4294940540 |
|     921 | 0x0BF1      |        3057 |
|     922 | 0x1158E     |       71054 |
|     923 | 0xFFFF8FFF  |  4294938623 |
|     924 | 0x11FB3     |       73651 |
|     925 | 0xFFFF9C25  |  4294941733 |
|     926 | 0x05CE      |        1486 |
|     927 | 0x11D8E     |       73102 |
|     928 | 0xFFFFA2BE  |  4294943422 |
|     929 | 0x04D0      |        1232 |
|     930 | 0x115F4     |       71156 |
|     931 | 0xFFFF9F5F  |  4294942559 |
|     932 | 0x02D5      |         725 |
|     933 | 0x1111B     |       69915 |
|     934 | 0xFFFF9B48  |  4294941512 |
|     935 | 0x01AE      |         430 |
|     936 | 0x02EC      |         748 |
|     937 | 0x25F1      |        9713 |
|     938 | 0x25F2      |        9714 |
|     939 | 0x25F3      |        9715 |
|     940 | 0x25F4      |        9716 |
|     941 | 0x25F5      |        9717 |
|     942 | 0x25F6      |        9718 |
|     943 | 0x25F7      |        9719 |
|     944 | 0x25F8      |        9720 |
|     945 | 0x25F9      |        9721 |
|     946 | 0x25FA      |        9722 |
|     947 | 0x25FB      |        9723 |
|     948 | 0x11AE7     |       72423 |
|     949 | 0xFFFFA10E  |  4294942990 |
|     950 | 0x25FC      |        9724 |
|     951 | 0x25FD      |        9725 |
|     952 | 0x25FE      |        9726 |
|     953 | 0x25FF      |        9727 |
|     954 | 0x2600      |        9728 |
|     955 | 0x2601      |        9729 |
|     956 | 0x0020      |          32 |
|     957 | 0x11A65     |       72293 |
|     958 | 0xFFFF96D3  |  4294940371 |
|     959 | 0x0C1F      |        3103 |
|     960 | 0x02E9      |         745 |
|     961 | 0xFFFF1CCA  |  4294909130 |
|     962 | 0xFFFFD669  |  4294956649 |
|     963 | 0xFFFFFDDA  |  4294966746 |
|     964 | 0xFFFF222C  |  4294910508 |
|     965 | 0xFFFFDBD8  |  4294958040 |
|     966 | 0x0523      |        1315 |
|     967 | 0xFFFF2291  |  4294910609 |
|     968 | 0xFFFFD740  |  4294956864 |
|     969 | 0x0426      |        1062 |
|     970 | 0xFFFF191E  |  4294908190 |
|     971 | 0xFFFFF7D5  |  4294965205 |
|     972 | 0xFFFF1447  |  4294906951 |
|     973 | 0xFFFFF3B7  |  4294964151 |
|     974 | 0x0D03      |        3331 |
|     975 | 0x2602      |        9730 |
|     976 | 0x2603      |        9731 |
|     977 | 0x2604      |        9732 |
|     978 | 0xFFFF200E  |  4294909966 |
|     979 | 0xFFFFDAEA  |  4294957802 |
|     980 | 0x0044      |          68 |
|     981 | 0x2605      |        9733 |
|     982 | 0x2606      |        9734 |
|     983 | 0x2607      |        9735 |
|     984 | 0x2608      |        9736 |
|     985 | 0x2609      |        9737 |
|     986 | 0x260A      |        9738 |
|     987 | 0x260B      |        9739 |
|     988 | 0x260C      |        9740 |
|     989 | 0x260D      |        9741 |
|     990 | 0x260E      |        9742 |
|     991 | 0x260F      |        9743 |
|     992 | 0x2610      |        9744 |
|     993 | 0x2611      |        9745 |
|     994 | 0xFFFF1CAD  |  4294909101 |
|     995 | 0xFFFFF012  |  4294963218 |
|     996 | 0x02C9      |         713 |
|     997 | 0x2612      |        9746 |
|     998 | 0x2613      |        9747 |
|     999 | 0x2614      |        9748 |
|    1000 | 0x2615      |        9749 |
|    1001 | 0x2616      |        9750 |
|    1002 | 0x2617      |        9751 |
|    1003 | 0x2618      |        9752 |
|    1004 | 0x2619      |        9753 |
|    1005 | 0x261A      |        9754 |
|    1006 | 0x261B      |        9755 |
|    1007 | 0x261C      |        9756 |

## String References

- **9284**: Any questions? [What's a rockberry?/Nothing in particular.]
- **9338**: The raptor joyously munches on the rockberry.
- **9415**: Lend a hand? [Might as well./You couldn't pay me enough.]
- **9531**: What do you wish to know? [What happened ten years ago?/How is the medicine coming along?]
- **9548**: What is your response? [Tell her what you learned./Say you didn't find anything out.]
- **9619**: Inquire about what? [Alianne's health./The contagious malady.]
- **9708**: How do you respond? ($1 bayld) [Donate ten thousand bayld./Forget it.]

## Events

### Event 65535

#### Metadata

| Field        | Value   |
|--------------|---------|
| Entrypoint   | 0x0000  |
| Data Size    | 1 bytes |
| Instructions | 1       |

```
      00 01 02 03 04 05 06 07  08 09 0A 0B 0C 0D 0E 0F
      -- -- -- -- -- -- -- --  -- -- -- -- -- -- -- --
0000: 00                                                .               
```

#### Opcodes

```
  0: 0x0000 [0x00] END_REQSTACK()
```

### Event 5032

#### Metadata

| Field        | Value     |
|--------------|-----------|
| Entrypoint   | 0x0001    |
| Data Size    | 290 bytes |
| Instructions | 37        |

```
      00 01 02 03 04 05 06 07  08 09 0A 0B 0C 0D 0E 0F
      -- -- -- -- -- -- -- --  -- -- -- -- -- -- -- --
0000:    42 45 00 80 F0 FF FF  7F F0 FF FF 7F 66 64 6F   BE..........fdo
0010: 31 01 80 55 00 80 F0 FF  FF 7F F0 FF FF 7F 66 64  1..U..........fd
0020: 6F 31 46 01 38 02 80 BA  F0 FF FF 7F 03 80 04 80  o1F.8...........
0030: 05 80 06 80 80 F0 FF FF  7F 80 C9 00 10 01 4A C9  ..............J.
0040: 00 10 01 F0 FF FF 7F 4A  F0 FF FF 7F C9 00 10 01  .......J........
0050: 1C 07 80 45 08 80 F8 FF  FF 7F F8 FF FF 7F 73 30  ...E..........s0
0060: 30 30 01 80 1C 09 80 45  00 80 F0 FF FF 7F F0 FF  00.....E........
0070: FF 7F 66 64 69 31 01 80  6E C9 00 10 01 0A 80 99  ..fdi1..n.......
0080: C9 00 10 01 2B C9 00 10  01 0B 80 23 2B C9 00 10  ....+......#+...
0090: 01 0C 80 23 52 08 80 F8  FF FF 7F F8 FF FF 7F 73  ...#R..........s
00A0: 30 30 30 45 08 80 F8 FF  FF 7F F8 FF FF 7F 73 30  000E..........s0
00B0: 30 31 01 80 66 0D 80 C9  00 10 01 C9 00 10 01 74  01..f..........t
00C0: 6C 6B 30 2B C9 00 10 01  0E 80 23 2B C9 00 10 01  lk0+......#+....
00D0: 0F 80 23 45 00 80 F0 FF  FF 7F F0 FF FF 7F 66 64  ..#E..........fd
00E0: 6F 31 01 80 55 00 80 F0  FF FF 7F F0 FF FF 7F 66  o1..U..........f
00F0: 64 6F 31 52 08 80 F8 FF  FF 7F F8 FF FF 7F 73 30  do1R..........s0
0100: 30 31 46 00 02 03 10 10  80 00 20 01 45 00 80 F8  01F....... .E...
0110: FF FF 7F F8 FF FF 7F 66  64 69 32 01 80 01 21 01  .......fdi2...!.
0120: 30 21 00                                          0!.             
```

#### Opcodes

```
  0: 0x0001 [0x42] SET_CLI_EVENT_CANCEL_DATA()
  1: 0x0002 [0x45] LOAD_SCHEDULED_TASK: Load scheduler "fdo1" with entities [LocalPlayer, LocalPlayer], work=[200*, 0*]
  2: 0x0013 [0x55] WAIT_LOAD_SCHEDULER: Wait for scheduler "fdo1" with entities [LocalPlayer, LocalPlayer], work=200*
  3: 0x0022 [0x46] CAMERA_CONTROL: Disable user control
  4: 0x0024 [0x38] SET_CLIENT_EVENT_MODE(mode=27*)
  5: 0x0027 [0xBA] SET_ENTITY_POSITION(entity_id=LocalPlayer, pos_x=-5.412*, pos_z=-99.394*, pos_y=-0.148*, direction=150.8°*)
  6: 0x0034 [0x80] LOAD_WAIT(entity=LocalPlayer)
  7: 0x0039 [0x80] LOAD_WAIT(entity=Pagnelle (ID: 17825993/0x011000C9))
  8: 0x003E [0x4A] Pagnelle (ID: 17825993/0x011000C9) looks at LocalPlayer
  9: 0x0047 [0x4A] LocalPlayer looks at Pagnelle (ID: 17825993/0x011000C9)
 10: 0x0050 [0x1C] WAIT(30* ticks)
 11: 0x0053 [0x45] LOAD_SCHEDULED_TASK: Load scheduler "s000" with entities [EventEntity, EventEntity], work=[620*, 0*]
 12: 0x0064 [0x1C] WAIT(15* ticks)
 13: 0x0067 [0x45] LOAD_SCHEDULED_TASK: Load scheduler "fdi1" with entities [LocalPlayer, LocalPlayer], work=[200*, 0*]
 14: 0x0078 [0x6E] Pagnelle (ID: 17825993/0x011000C9) uses emote 10*
 15: 0x007F [0x99] Wait for Pagnelle (ID: 17825993/0x011000C9) animation to complete
 16: 0x0084 [0x2B] Pagnelle (ID: 17825993/0x011000C9) [9217*]:
    → "On behalf of the Mummers' Coalition, I welcome you to Adoulin."
 17: 0x008B [0x23] WAIT_FOR_DIALOG_INTERACTION
 18: 0x008C [0x2B] Pagnelle (ID: 17825993/0x011000C9) [9218*]:
    → "Unlike the other coalitions, our support of you pioneers is rather indirect. We provide all manner of recreational and relaxation services to help you get back into the field well-rested and ready for action."
 19: 0x0093 [0x23] WAIT_FOR_DIALOG_INTERACTION
 20: 0x0094 [0x52] END_LOAD_SCHEDULER: End scheduler "s000" with entities [EventEntity, EventEntity], work=620*
 21: 0x00A3 [0x45] LOAD_SCHEDULED_TASK: Load scheduler "s001" with entities [EventEntity, EventEntity], work=[620*, 0*]
 22: 0x00B4 [0x66] LOAD_EXT_SCHEDULER_MAIN: Load scheduler "tlk0" with entities [Pagnelle (ID: 17825993/0x011000C9), Pagnelle (ID: 17825993/0x011000C9)], work=39*
 23: 0x00C3 [0x2B] Pagnelle (ID: 17825993/0x011000C9) [9219*]:
    → "One of our more popular events is the raptor fights that occur periodically in the Watergarden Coliseum, located in Rala Waterways."
 24: 0x00CA [0x23] WAIT_FOR_DIALOG_INTERACTION
 25: 0x00CB [0x2B] Pagnelle (ID: 17825993/0x011000C9) [9220*]:
    → "Well, as long as you're here, you might as well let me give you a brief description of them."
 26: 0x00D2 [0x23] WAIT_FOR_DIALOG_INTERACTION
 27: 0x00D3 [0x45] LOAD_SCHEDULED_TASK: Load scheduler "fdo1" with entities [LocalPlayer, LocalPlayer], work=[200*, 0*]
 28: 0x00E4 [0x55] WAIT_LOAD_SCHEDULER: Wait for scheduler "fdo1" with entities [LocalPlayer, LocalPlayer], work=200*
 29: 0x00F3 [0x52] END_LOAD_SCHEDULER: End scheduler "s001" with entities [EventEntity, EventEntity], work=620*
 30: 0x0102 [0x46] CAMERA_CONTROL: Restore default settings
 31: 0x0104 [0x02] IF !(Work_Zone[3] == 1*) GOTO 0x0120
 32: 0x010C [0x45] LOAD_SCHEDULED_TASK: Load scheduler "fdi2" with entities [EventEntity, EventEntity], work=[200*, 0*]
 33: 0x011D [0x01] GOTO 0x0121
 34: 0x0120 [0x30] SET_UCOFF_CONTINUE_ZERO()

SUBROUTINE_0121:
 35: 0x0121 [0x21] END_EVENT
 36: 0x0122 [0x00] END_REQSTACK()
```

### Event 5056

#### Metadata

| Field        | Value      |
|--------------|------------|
| Entrypoint   | 0x0123     |
| Data Size    | 3444 bytes |
| Instructions | 403        |

```
      00 01 02 03 04 05 06 07  08 09 0A 0B 0C 0D 0E 0F
      -- -- -- -- -- -- -- --  -- -- -- -- -- -- -- --
0120:          42 03 01 10 01  80 45 00 80 F0 FF FF 7F     B.....E......
0130: F0 FF FF 7F 66 64 6F 31  01 80 55 00 80 F0 FF FF  ....fdo1..U.....
0140: 7F F0 FF FF 7F 66 64 6F  31 46 01 38 11 80 2F 00  .....fdo1F.8../.
0150: CA 00 10 01 2F 00 CB 00  10 01 2F 00 CC 00 10 01  ..../...../.....
0160: 2F 00 95 00 10 01 4E 00  CA 00 10 01 4E 00 CB 00  /.....N.....N...
0170: 10 01 4E 00 CC 00 10 01  4E 00 95 00 10 01 22 00  ..N.....N.....".
0180: 4E 00 F0 FF FF 7F 94 01  CA 00 10 01 94 01 CB 00  N...............
0190: 10 01 94 01 CC 00 10 01  94 01 C9 00 10 01 94 01  ................
01A0: F0 FF FF 7F 94 01 95 00  10 01 37 12 80 13 80 05  ..........7.....
01B0: 80 14 80 BA CA 00 10 01  15 80 16 80 01 80 17 80  ................
01C0: BA CB 00 10 01 18 80 19  80 01 80 1A 80 BA CC 00  ................
01D0: 10 01 1B 80 1C 80 01 80  1D 80 BA 95 00 10 01 1E  ................
01E0: 80 1F 80 05 80 20 80 BA  C9 00 10 01 21 80 22 80  ..... ......!.".
01F0: 05 80 23 80 BA F0 FF FF  7F 03 80 04 80 05 80 06  ..#.............
0200: 80 80 F0 FF FF 7F 80 C9  00 10 01 80 CA 00 10 01  ................
0210: 80 CB 00 10 01 80 CC 00  10 01 80 95 00 10 01 4A  ...............J
0220: C9 00 10 01 F0 FF FF 7F  4A CA 00 10 01 C9 00 10  ........J.......
0230: 01 4A CB 00 10 01 C9 00  10 01 4A CC 00 10 01 C9  .J........J.....
0240: 00 10 01 4A 95 00 10 01  CA 00 10 01 4A F0 FF FF  ...J........J...
0250: 7F C9 00 10 01 1C 07 80  45 08 80 F8 FF FF 7F F8  ........E.......
0260: FF FF 7F 73 30 30 35 01  80 1C 09 80 45 00 80 F0  ...s005.....E...
0270: FF FF 7F F0 FF FF 7F 66  64 69 31 01 80 2B C9 00  .......fdi1..+..
0280: 10 01 24 80 23 52 08 80  F8 FF FF 7F F8 FF FF 7F  ..$.#R..........
0290: 73 30 30 35 45 08 80 F8  FF FF 7F F8 FF FF 7F 73  s005E..........s
02A0: 30 30 36 01 80 66 0D 80  C9 00 10 01 C9 00 10 01  006..f..........
02B0: 74 6C 6B 30 2B C9 00 10  01 25 80 23 66 0D 80 C9  tlk0+....%.#f...
02C0: 00 10 01 C9 00 10 01 74  6C 6B 31 27 05 CB 00 10  .......tlk1'....
02D0: 01 04 1C 26 80 27 05 CC  00 10 01 02 1C 26 80 27  ...&.'.......&.'
02E0: 05 CA 00 10 01 02 1C 09  80 52 08 80 F8 FF FF 7F  .........R......
02F0: F8 FF FF 7F 73 30 30 36  45 08 80 F8 FF FF 7F F8  ....s006E.......
0300: FF FF 7F 73 30 30 37 01  80 2B CB 00 10 01 27 80  ...s007..+....'.
0310: 23 4A C9 00 10 01 CB 00  10 01 1C 07 80 2B C9 00  #J...........+..
0320: 10 01 28 80 23 2A 05 CB  00 10 01 66 29 80 CB 00  ..(.#*.....f)...
0330: 10 01 CB 00 10 01 74 6C  6B 30 52 08 80 F8 FF FF  ......tlk0R.....
0340: 7F F8 FF FF 7F 73 30 30  37 45 08 80 F8 FF FF 7F  .....s007E......
0350: F8 FF FF 7F 73 30 30 38  01 80 2B CB 00 10 01 2A  ....s008..+....*
0360: 80 23 66 29 80 CB 00 10  01 CB 00 10 01 74 6C 6B  .#f).........tlk
0370: 31 52 08 80 F8 FF FF 7F  F8 FF FF 7F 73 30 30 38  1R..........s008
0380: 45 08 80 F8 FF FF 7F F8  FF FF 7F 73 30 30 39 01  E..........s009.
0390: 80 2B C9 00 10 01 2B 80  23 55 08 80 F8 FF FF 7F  .+....+.#U......
03A0: F8 FF FF 7F 73 30 30 38  27 05 95 00 10 01 02 1C  ....s008'.......
03B0: 09 80 45 08 80 F8 FF FF  7F F8 FF FF 7F 73 30 31  ..E..........s01
03C0: 30 01 80 2B 95 00 10 01  2C 80 23 52 08 80 F8 FF  0..+....,.#R....
03D0: FF 7F F8 FF FF 7F 73 30  31 30 45 08 80 F8 FF FF  ......s010E.....
03E0: 7F F8 FF FF 7F 73 30 31  31 01 80 4A CA 00 10 01  .....s011..J....
03F0: 95 00 10 01 1C 09 80 4A  CB 00 10 01 95 00 10 01  .......J........
0400: 1C 09 80 4A CC 00 10 01  95 00 10 01 2B CA 00 10  ...J........+...
0410: 01 2D 80 23 4A C9 00 10  01 95 00 10 01 4A F0 FF  .-.#J........J..
0420: FF 7F 95 00 10 01 27 05  CB 00 10 01 05 2B CB 00  ......'......+..
0430: 10 01 2E 80 23 2A 05 CB  00 10 01 2A 05 95 00 10  ....#*.....*....
0440: 01 52 08 80 F8 FF FF 7F  F8 FF FF 7F 73 30 31 31  .R..........s011
0450: 45 08 80 F8 FF FF 7F F8  FF FF 7F 73 30 31 32 01  E..........s012.
0460: 80 4A 95 00 10 01 CB 00  10 01 1C 07 80 2B 95 00  .J...........+..
0470: 10 01 2F 80 23 6E 95 00  10 01 30 80 99 95 00 10  ../.#n....0.....
0480: 01 2B 95 00 10 01 31 80  23 52 08 80 F8 FF FF 7F  .+....1.#R......
0490: F8 FF FF 7F 73 30 31 32  45 08 80 F8 FF FF 7F F8  ....s012E.......
04A0: FF FF 7F 73 30 31 33 01  80 66 32 80 C9 00 10 01  ...s013..f2.....
04B0: C9 00 10 01 74 6C 6B 30  2B C9 00 10 01 33 80 23  ....tlk0+....3.#
04C0: 66 32 80 C9 00 10 01 C9  00 10 01 74 6C 6B 31 4A  f2.........tlk1J
04D0: 95 00 10 01 C9 00 10 01  1C 07 80 2B 95 00 10 01  ...........+....
04E0: 34 80 23 52 08 80 F8 FF  FF 7F F8 FF FF 7F 73 30  4.#R..........s0
04F0: 31 33 45 08 80 F8 FF FF  7F F8 FF FF 7F 73 30 31  13E..........s01
0500: 34 01 80 6E CB 00 10 01  30 80 99 CB 00 10 01 2B  4..n....0......+
0510: CB 00 10 01 35 80 23 6E  CB 00 10 01 36 80 99 CB  ....5.#n....6...
0520: 00 10 01 2B CB 00 10 01  37 80 23 52 08 80 F8 FF  ...+....7.#R....
0530: FF 7F F8 FF FF 7F 73 30  31 34 45 08 80 F8 FF FF  ......s014E.....
0540: 7F F8 FF FF 7F 73 30 31  35 01 80 6E 95 00 10 01  .....s015..n....
0550: 30 80 99 95 00 10 01 2B  95 00 10 01 38 80 23 52  0......+....8.#R
0560: 08 80 F8 FF FF 7F F8 FF  FF 7F 73 30 31 35 45 08  ..........s015E.
0570: 80 F8 FF FF 7F F8 FF FF  7F 73 30 31 36 01 80 79  .........s016..y
0580: 00 CA 00 10 01 F8 FF FF  7F 1C 09 80 4A 95 00 10  ............J...
0590: 01 CB 00 10 01 2B CA 00  10 01 39 80 23 52 08 80  .....+....9.#R..
05A0: F8 FF FF 7F F8 FF FF 7F  73 30 31 36 45 08 80 F8  ........s016E...
05B0: FF FF 7F F8 FF FF 7F 73  30 31 37 01 80 79 00 95  .......s017..y..
05C0: 00 10 01 CA 00 10 01 2B  95 00 10 01 3A 80 23 52  .......+....:.#R
05D0: 08 80 F8 FF FF 7F F8 FF  FF 7F 73 30 31 37 45 08  ..........s017E.
05E0: 80 F8 FF FF 7F F8 FF FF  7F 73 30 31 38 01 80 79  .........s018..y
05F0: 00 95 00 10 01 CB 00 10  01 6E CB 00 10 01 30 80  .........n....0.
0600: 99 CB 00 10 01 2B CB 00  10 01 3B 80 23 79 00 CA  .....+....;.#y..
0610: 00 10 01 95 00 10 01 66  29 80 CB 00 10 01 CB 00  .......f).......
0620: 10 01 74 6C 6B 30 2B CB  00 10 01 3C 80 23 66 29  ..tlk0+....<.#f)
0630: 80 CB 00 10 01 CB 00 10  01 74 6C 6B 31 52 08 80  .........tlk1R..
0640: F8 FF FF 7F F8 FF FF 7F  73 30 31 38 45 08 80 F8  ........s018E...
0650: FF FF 7F F8 FF FF 7F 73  30 31 39 01 80 6E 95 00  .......s019..n..
0660: 10 01 3D 80 99 95 00 10  01 2B 95 00 10 01 3E 80  ..=......+....>.
0670: 1C 3F 80 4A 95 00 10 01  CA 00 10 01 1C 07 80 6E  .?.J...........n
0680: 95 00 10 01 30 80 99 95  00 10 01 1C 40 80 23 52  ....0.......@.#R
0690: 08 80 F8 FF FF 7F F8 FF  FF 7F 73 30 31 39 45 08  ..........s019E.
06A0: 80 F8 FF FF 7F F8 FF FF  7F 73 30 32 30 01 80 27  .........s020..'
06B0: 05 CB 00 10 01 06 1C 09  80 7B C9 00 10 01 27 05  .........{....'.
06C0: CC 00 10 01 03 1C 26 80  27 05 95 00 10 01 03 7B  ......&.'......{
06D0: 95 00 10 01 1C 41 80 52  08 80 F8 FF FF 7F F8 FF  .....A.R........
06E0: FF 7F 73 30 32 30 45 08  80 F8 FF FF 7F F8 FF FF  ..s020E.........
06F0: 7F 73 30 32 31 01 80 6E  C9 00 10 01 36 80 99 C9  .s021..n....6...
0700: 00 10 01 4A CA 00 10 01  C9 00 10 01 79 00 F0 FF  ...J........y...
0710: FF 7F C9 00 10 01 2B C9  00 10 01 42 80 23 4E 01  ......+....B.#N.
0720: CB 00 10 01 4E 01 CC 00  10 01 4E 01 95 00 10 01  ....N.....N.....
0730: 37 43 80 44 80 05 80 14  80 5B 45 80 CA 00 10 01  7C.D.....[E.....
0740: CA 00 10 01 6A 69 6D 31  2B CA 00 10 01 46 80 23  ....jim1+....F.#
0750: 52 08 80 F8 FF FF 7F F8  FF FF 7F 73 30 32 31 45  R..........s021E
0760: 08 80 F8 FF FF 7F F8 FF  FF 7F 73 30 32 32 01 80  ..........s022..
0770: 4A C9 00 10 01 CA 00 10  01 1C 07 80 2B C9 00 10  J...........+...
0780: 01 47 80 23 79 00 CA 00  10 01 F8 FF FF 7F 7C 00  .G.#y.........|.
0790: CA 00 10 01 2B CA 00 10  01 48 80 23 7C 01 CA 00  ....+....H.#|...
07A0: 10 01 52 08 80 F8 FF FF  7F F8 FF FF 7F 73 30 32  ..R..........s02
07B0: 32 45 08 80 F8 FF FF 7F  F8 FF FF 7F 73 30 32 33  2E..........s023
07C0: 01 80 2B CA 00 10 01 49  80 23 52 08 80 F8 FF FF  ..+....I.#R.....
07D0: 7F F8 FF FF 7F 73 30 32  33 45 08 80 F8 FF FF 7F  .....s023E......
07E0: F8 FF FF 7F 73 30 32 34  01 80 79 00 CA 00 10 01  ....s024..y.....
07F0: C9 00 10 01 2B C9 00 10  01 4A 80 23 52 08 80 F8  ....+....J.#R...
0800: FF FF 7F F8 FF FF 7F 73  30 32 34 45 08 80 F8 FF  .......s024E....
0810: FF 7F F8 FF FF 7F 73 30  32 35 01 80 66 0D 80 C9  ......s025..f...
0820: 00 10 01 C9 00 10 01 74  6C 6B 30 2B C9 00 10 01  .......tlk0+....
0830: 4B 80 23 66 0D 80 C9 00  10 01 C9 00 10 01 74 6C  K.#f..........tl
0840: 6B 31 5B 45 80 CA 00 10  01 CA 00 10 01 6A 69 6D  k1[E.........jim
0850: 30 2B CA 00 10 01 4C 80  23 2B CA 00 10 01 4D 80  0+....L.#+....M.
0860: 23 5B 45 80 CA 00 10 01  CA 00 10 01 73 74 64 30  #[E.........std0
0870: 52 08 80 F8 FF FF 7F F8  FF FF 7F 73 30 32 35 45  R..........s025E
0880: 08 80 F8 FF FF 7F F8 FF  FF 7F 73 30 32 36 01 80  ..........s026..
0890: 6E C9 00 10 01 3D 80 99  C9 00 10 01 2B C9 00 10  n....=......+...
08A0: 01 4E 80 23 52 08 80 F8  FF FF 7F F8 FF FF 7F 73  .N.#R..........s
08B0: 30 32 36 45 08 80 F8 FF  FF 7F F8 FF FF 7F 73 30  026E..........s0
08C0: 32 37 01 80 27 05 C9 00  10 01 03 5B 45 80 CA 00  27..'......[E...
08D0: 10 01 CA 00 10 01 6A 69  6D 30 2B CA 00 10 01 4F  ......jim0+....O
08E0: 80 23 2A 05 C9 00 10 01  6E C9 00 10 01 36 80 99  .#*.....n....6..
08F0: C9 00 10 01 2B C9 00 10  01 50 80 23 52 08 80 F8  ....+....P.#R...
0900: FF FF 7F F8 FF FF 7F 73  30 32 37 45 08 80 F8 FF  .......s027E....
0910: FF 7F F8 FF FF 7F 73 30  32 38 01 80 5B 45 80 CA  ......s028..[E..
0920: 00 10 01 CA 00 10 01 73  74 64 30 1C 07 80 79 00  .......std0...y.
0930: CA 00 10 01 F0 FF FF 7F  1C 40 80 52 08 80 F8 FF  .........@.R....
0940: FF 7F F8 FF FF 7F 73 30  32 38 45 08 80 F8 FF FF  ......s028E.....
0950: 7F F8 FF FF 7F 73 30 32  39 01 80 4A C9 00 10 01  .....s029..J....
0960: F0 FF FF 7F 1C 3F 80 4A  CA 00 10 01 F0 FF FF 7F  .....?.J........
0970: 66 32 80 C9 00 10 01 C9  00 10 01 74 6C 6B 30 2B  f2.........tlk0+
0980: C9 00 10 01 51 80 23 52  08 80 F8 FF FF 7F F8 FF  ....Q.#R........
0990: FF 7F 73 30 32 39 45 08  80 F8 FF FF 7F F8 FF FF  ..s029E.........
09A0: 7F 73 30 33 30 01 80 2B  C9 00 10 01 52 80 23 2B  .s030..+....R.#+
09B0: C9 00 10 01 53 80 23 45  00 80 F0 FF FF 7F F0 FF  ....S.#E........
09C0: FF 7F 66 64 6F 31 01 80  55 00 80 F0 FF FF 7F F0  ..fdo1..U.......
09D0: FF FF 7F 66 64 6F 31 52  08 80 F8 FF FF 7F F8 FF  ...fdo1R........
09E0: FF 7F 73 30 33 30 77 54  80 10 80 7B C9 00 10 01  ..s030wT...{....
09F0: 6B 69 64 6C 30 C9 00 10  01 2F 00 D0 00 10 01 4E  kidl0..../.....N
0A00: 00 D0 00 10 01 27 05 CA  00 10 01 03 33 01 59 05  .....'......3.Y.
0A10: C9 00 10 01 01 59 05 D0  00 10 01 01 59 05 CA 00  .....Y......Y...
0A20: 10 01 01 37 55 80 56 80  57 80 58 80 BA C9 00 10  ...7U.V.W.X.....
0A30: 01 55 80 56 80 57 80 59  80 BA CA 00 10 01 5A 80  .U.V.W.Y......Z.
0A40: 5B 80 5C 80 5D 80 BA D0  00 10 01 5E 80 5F 80 5C  [.\.]......^._.\
0A50: 80 5D 80 80 F8 FF FF 7F  80 C9 00 10 01 80 CA 00  .]..............
0A60: 10 01 80 D0 00 10 01 4A  CA 00 10 01 C9 00 10 01  .......J........
0A70: 1C 3F 80 C5 60 80 F8 FF  FF 7F F8 FF FF 7F 73 30  .?..`.........s0
0A80: 30 30 01 80 45 08 80 F8  FF FF 7F F8 FF FF 7F 73  00..E..........s
0A90: 32 33 30 01 80 1C 09 80  66 61 80 C9 00 10 01 C9  230.....fa......
0AA0: 00 10 01 6D 61 62 30 45  00 80 F0 FF FF 7F F0 FF  ...mab0E........
0AB0: FF 7F 66 64 69 31 01 80  2B CA 00 10 01 62 80 1C  ..fdi1..+....b..
0AC0: 3F 80 27 05 D0 00 10 01  02 1C 63 80 52 08 80 F8  ?.'.......c.R...
0AD0: FF FF 7F F8 FF FF 7F 73  32 33 30 45 08 80 F8 FF  .......s230E....
0AE0: FF 7F F8 FF FF 7F 73 32  33 31 01 80 2A 05 D0 00  ......s231..*...
0AF0: 10 01 C4 02 64 80 D0 00  10 01 CA 00 10 01 1C 65  ....d..........e
0B00: 80 27 05 CA 00 10 01 05  52 08 80 F8 FF FF 7F F8  .'......R.......
0B10: FF FF 7F 73 32 33 31 45  08 80 F8 FF FF 7F F8 FF  ...s231E........
0B20: FF 7F 73 32 33 32 01 80  66 61 80 C9 00 10 01 C9  ..s232..fa......
0B30: 00 10 01 6D 61 62 31 1C  3F 80 23 45 00 80 F0 FF  ...mab1.?.#E....
0B40: FF 7F F0 FF FF 7F 66 64  6F 31 01 80 55 00 80 F0  ......fdo1..U...
0B50: FF FF 7F F0 FF FF 7F 66  64 6F 31 52 08 80 F8 FF  .......fdo1R....
0B60: FF 7F F8 FF FF 7F 73 32  33 32 C5 60 80 F8 FF FF  ......s232.`....
0B70: 7F F8 FF FF 7F 6B 69 6C  30 01 80 27 05 CA 00 10  .....kil0..'....
0B80: 01 04 6B 69 64 6C 30 C9  00 10 01 4E 00 95 00 10  ..kidl0....N....
0B90: 01 BA 95 00 10 01 66 80  67 80 05 80 68 80 BA C9  ......f.g...h...
0BA0: 00 10 01 69 80 6A 80 01  80 6B 80 BA CA 00 10 01  ...i.j...k......
0BB0: 6C 80 6D 80 05 80 6E 80  BA D0 00 10 01 6F 80 70  l.m...n......o.p
0BC0: 80 01 80 71 80 80 95 00  10 01 80 C9 00 10 01 80  ...q............
0BD0: CA 00 10 01 80 D0 00 10  01 4A 95 00 10 01 C9 00  .........J......
0BE0: 10 01 4A CA 00 10 01 C9  00 10 01 27 05 C9 00 10  ..J........'....
0BF0: 01 04 1C 26 80 27 05 D0  00 10 01 03 1C 07 80 66  ...&.'.........f
0C00: 0D 80 95 00 10 01 95 00  10 01 74 68 6B 31 1C 07  ..........thk1..
0C10: 80 45 08 80 F8 FF FF 7F  F8 FF FF 7F 73 32 32 39  .E..........s229
0C20: 01 80 1C 09 80 45 72 80  F0 FF FF 7F F0 FF FF 7F  .....Er.........
0C30: 65 66 6F 6E 01 80 55 72  80 F0 FF FF 7F F0 FF FF  efon..Ur........
0C40: 7F 65 66 6F 6E 2B C9 00  10 01 73 80 1C 3F 80 5B  .efon+....s..?.[
0C50: 45 80 CA 00 10 01 CA 00  10 01 6A 69 6D 30 23 2A  E.........jim0#*
0C60: 05 C9 00 10 01 45 00 80  F0 FF FF 7F F0 FF FF 7F  .....E..........
0C70: 66 64 6F 31 01 80 55 00  80 F0 FF FF 7F F0 FF FF  fdo1..U.........
0C80: 7F 66 64 6F 31 52 08 80  F8 FF FF 7F F8 FF FF 7F  .fdo1R..........
0C90: 73 32 32 39 78 4E 01 D0  00 10 01 4E 01 95 00 10  s229xN.....N....
0CA0: 01 6B 69 64 6C 30 C9 00  10 01 6B 69 64 6C 30 CA  .kidl0....kidl0.
0CB0: 00 10 01 BA C9 00 10 01  74 80 75 80 05 80 14 80  ........t.u.....
0CC0: BA CA 00 10 01 76 80 77  80 05 80 06 80 80 CA 00  .....v.w........
0CD0: 10 01 4A C9 00 10 01 F0  FF FF 7F 4A CA 00 10 01  ..J........J....
0CE0: F0 FF FF 7F 1C 07 80 66  0D 80 C9 00 10 01 C9 00  .......f........
0CF0: 10 01 74 6C 6B 30 45 08  80 F8 FF FF 7F F8 FF FF  ..tlk0E.........
0D00: 7F 73 30 33 32 01 80 1C  09 80 45 00 80 F0 FF FF  .s032.....E.....
0D10: 7F F0 FF FF 7F 66 64 69  31 01 80 2B C9 00 10 01  .....fdi1..+....
0D20: 78 80 23 66 0D 80 C9 00  10 01 C9 00 10 01 74 6C  x.#f..........tl
0D30: 6B 31 24 79 80 01 80 01  80 25 02 00 10 10 80 00  k1$y.....%......
0D40: C0 0D 52 08 80 F8 FF FF  7F F8 FF FF 7F 73 30 33  ..R..........s03
0D50: 32 45 08 80 F8 FF FF 7F  F8 FF FF 7F 73 32 31 39  2E..........s219
0D60: 01 80 6E C9 00 10 01 36  80 99 C9 00 10 01 2B C9  ..n....6......+.
0D70: 00 10 01 7A 80 23 45 00  80 F0 FF FF 7F F0 FF FF  ...z.#E.........
0D80: 7F 66 64 6F 31 01 80 55  00 80 F0 FF FF 7F F0 FF  .fdo1..U........
0D90: FF 7F 66 64 6F 31 52 08  80 F8 FF FF 7F F8 FF FF  ..fdo1R.........
0DA0: 7F 73 32 31 39 46 00 1C  3F 80 45 00 80 F0 FF FF  .s219F..?.E.....
0DB0: 7F F0 FF FF 7F 66 64 69  32 01 80 21 00 01 C0 0D  .....fdi2..!....
0DC0: 52 08 80 F8 FF FF 7F F8  FF FF 7F 73 30 33 32 45  R..........s032E
0DD0: 08 80 F8 FF FF 7F F8 FF  FF 7F 73 30 33 33 01 80  ..........s033..
0DE0: 66 0D 80 C9 00 10 01 C9  00 10 01 74 6C 6B 30 2B  f..........tlk0+
0DF0: C9 00 10 01 7B 80 23 66  0D 80 C9 00 10 01 C9 00  ....{.#f........
0E00: 10 01 74 6C 6B 31 27 05  F0 FF FF 7F 09 1C 7C 80  ..tlk1'.......|.
0E10: 27 05 F0 FF FF 7F 0A 1C  7D 80 52 08 80 F8 FF FF  '.......}.R.....
0E20: 7F F8 FF FF 7F 73 30 33  33 45 08 80 F8 FF FF 7F  .....s033E......
0E30: F8 FF FF 7F 73 30 33 34  01 80 6E C9 00 10 01 3D  ....s034..n....=
0E40: 80 99 C9 00 10 01 2B C9  00 10 01 7E 80 23 45 00  ......+....~.#E.
0E50: 80 F0 FF FF 7F F0 FF FF  7F 66 64 6F 31 01 80 55  .........fdo1..U
0E60: 00 80 F0 FF FF 7F F0 FF  FF 7F 66 64 6F 31 52 08  ..........fdo1R.
0E70: 80 F8 FF FF 7F F8 FF FF  7F 73 30 33 34 03 01 10  .........s034...
0E80: 10 80 46 00 45 00 80 F0  FF FF 7F F0 FF FF 7F 66  ..F.E..........f
0E90: 64 69 32 01 80 21 00                              di2..!.         
```

#### Opcodes

```
  0: 0x0123 [0x42] SET_CLI_EVENT_CANCEL_DATA()
  1: 0x0124 [0x03] Work_Zone[1] = 0*
  2: 0x0129 [0x45] LOAD_SCHEDULED_TASK: Load scheduler "fdo1" with entities [LocalPlayer, LocalPlayer], work=[200*, 0*]
  3: 0x013A [0x55] WAIT_LOAD_SCHEDULER: Wait for scheduler "fdo1" with entities [LocalPlayer, LocalPlayer], work=200*
  4: 0x0149 [0x46] CAMERA_CONTROL: Disable user control
  5: 0x014B [0x38] SET_CLIENT_EVENT_MODE(mode=19*)
  6: 0x014E [0x2F] Wesley (ID: 17825994/0x011000CA)->Render.Flags0 &= ~0x80000 // Bit 19
  7: 0x0154 [0x2F] Aristide (ID: 17825995/0x011000CB)->Render.Flags0 &= ~0x80000 // Bit 19
  8: 0x015A [0x2F] Unnamed NPC (ID: 17825996/0x011000CC)->Render.Flags0 &= ~0x80000 // Bit 19
  9: 0x0160 [0x2F] Flaviria (ID: 17825941/0x01100095)->Render.Flags0 &= ~0x80000 // Bit 19
 10: 0x0166 [0x4E] SET_ENTITY_HIDE_FLAG: Show Wesley (ID: 17825994/0x011000CA)
 11: 0x016C [0x4E] SET_ENTITY_HIDE_FLAG: Show Aristide (ID: 17825995/0x011000CB)
 12: 0x0172 [0x4E] SET_ENTITY_HIDE_FLAG: Show Unnamed NPC (ID: 17825996/0x011000CC)
 13: 0x0178 [0x4E] SET_ENTITY_HIDE_FLAG: Show Flaviria (ID: 17825941/0x01100095)
 14: 0x017E [0x22] ENTITY_HIDE_FLAG(enabled=0x00)
 15: 0x0180 [0x4E] SET_ENTITY_HIDE_FLAG: Show LocalPlayer
 16: 0x0186 [0x94] Wesley (ID: 17825994/0x011000CA)->Render.Flags3 ^= 0x01
 17: 0x018C [0x94] Aristide (ID: 17825995/0x011000CB)->Render.Flags3 ^= 0x01
 18: 0x0192 [0x94] Unnamed NPC (ID: 17825996/0x011000CC)->Render.Flags3 ^= 0x01
 19: 0x0198 [0x94] Pagnelle (ID: 17825993/0x011000C9)->Render.Flags3 ^= 0x01
 20: 0x019E [0x94] LocalPlayer->Render.Flags3 ^= 0x01
 21: 0x01A4 [0x94] Flaviria (ID: 17825941/0x01100095)->Render.Flags3 ^= 0x01
 22: 0x01AA [0x37] UPDATE_EVENT_POSITION_AND_DIR: x=-6.682*, z=-96.474*, y=-0.148*, direction=213.5°*
 23: 0x01B3 [0xBA] SET_ENTITY_POSITION(entity_id=Wesley (ID: 17825994/0x011000CA), pos_x=-1.337*, pos_z=-92.976*, pos_y=0.000*, direction=126.6°*)
 24: 0x01C0 [0xBA] SET_ENTITY_POSITION(entity_id=Aristide (ID: 17825995/0x011000CB), pos_x=-2.041*, pos_z=-94.449*, pos_y=0.000*, direction=132.2°*)
 25: 0x01CD [0xBA] SET_ENTITY_POSITION(entity_id=Unnamed NPC (ID: 17825996/0x011000CC), pos_x=-1.100*, pos_z=-94.885*, pos_y=0.000*, direction=148.4°*)
 26: 0x01DA [0xBA] SET_ENTITY_POSITION(entity_id=Flaviria (ID: 17825941/0x01100095), pos_x=-15.699*, pos_z=-95.461*, pos_y=-0.148*, direction=9.2°*)
 27: 0x01E7 [0xBA] SET_ENTITY_POSITION(entity_id=Pagnelle (ID: 17825993/0x011000C9), pos_x=-8.222*, pos_z=-100.176*, pos_y=-0.148*, direction=285.5°*)
 28: 0x01F4 [0xBA] SET_ENTITY_POSITION(entity_id=LocalPlayer, pos_x=-5.412*, pos_z=-99.394*, pos_y=-0.148*, direction=150.8°*)
 29: 0x0201 [0x80] LOAD_WAIT(entity=LocalPlayer)
 30: 0x0206 [0x80] LOAD_WAIT(entity=Pagnelle (ID: 17825993/0x011000C9))
 31: 0x020B [0x80] LOAD_WAIT(entity=Wesley (ID: 17825994/0x011000CA))
 32: 0x0210 [0x80] LOAD_WAIT(entity=Aristide (ID: 17825995/0x011000CB))
 33: 0x0215 [0x80] LOAD_WAIT(entity=Unnamed NPC (ID: 17825996/0x011000CC))
 34: 0x021A [0x80] LOAD_WAIT(entity=Flaviria (ID: 17825941/0x01100095))
 35: 0x021F [0x4A] Pagnelle (ID: 17825993/0x011000C9) looks at LocalPlayer
 36: 0x0228 [0x4A] Wesley (ID: 17825994/0x011000CA) looks at Pagnelle (ID: 17825993/0x011000C9)
 37: 0x0231 [0x4A] Aristide (ID: 17825995/0x011000CB) looks at Pagnelle (ID: 17825993/0x011000C9)
 38: 0x023A [0x4A] Unnamed NPC (ID: 17825996/0x011000CC) looks at Pagnelle (ID: 17825993/0x011000C9)
 39: 0x0243 [0x4A] Flaviria (ID: 17825941/0x01100095) looks at Wesley (ID: 17825994/0x011000CA)
 40: 0x024C [0x4A] LocalPlayer looks at Pagnelle (ID: 17825993/0x011000C9)
 41: 0x0255 [0x1C] WAIT(30* ticks)
 42: 0x0258 [0x45] LOAD_SCHEDULED_TASK: Load scheduler "s005" with entities [EventEntity, EventEntity], work=[620*, 0*]
 43: 0x0269 [0x1C] WAIT(15* ticks)
 44: 0x026C [0x45] LOAD_SCHEDULED_TASK: Load scheduler "fdi1" with entities [LocalPlayer, LocalPlayer], work=[200*, 0*]
 45: 0x027D [0x2B] Pagnelle (ID: 17825993/0x011000C9) [9221*]:
    → "I'll bet you're just itching to catch a glimpse of the excitement, aren't you?"
 46: 0x0284 [0x23] WAIT_FOR_DIALOG_INTERACTION
 47: 0x0285 [0x52] END_LOAD_SCHEDULER: End scheduler "s005" with entities [EventEntity, EventEntity], work=620*
 48: 0x0294 [0x45] LOAD_SCHEDULED_TASK: Load scheduler "s006" with entities [EventEntity, EventEntity], work=[620*, 0*]
 49: 0x02A5 [0x66] LOAD_EXT_SCHEDULER_MAIN: Load scheduler "tlk0" with entities [Pagnelle (ID: 17825993/0x011000C9), Pagnelle (ID: 17825993/0x011000C9)], work=39*
 50: 0x02B4 [0x2B] Pagnelle (ID: 17825993/0x011000C9) [9222*]:
    → "Well, you'll be able to scratch that itch soon enough, for another bout is scheduled in the not-too-distant future. Just don't scream yourself hoarse rooting for one that catches your eye."
 51: 0x02BB [0x23] WAIT_FOR_DIALOG_INTERACTION
 52: 0x02BC [0x66] LOAD_EXT_SCHEDULER_MAIN: Load scheduler "tlk1" with entities [Pagnelle (ID: 17825993/0x011000C9), Pagnelle (ID: 17825993/0x011000C9)], work=39*
 53: 0x02CB [0x27] REQ_SET(priority=0x05, entity_id=Aristide (ID: 17825995/0x011000CB), tag_num=0x04)
 54: 0x02D2 [0x1C] WAIT(5* ticks)
 55: 0x02D5 [0x27] REQ_SET(priority=0x05, entity_id=Unnamed NPC (ID: 17825996/0x011000CC), tag_num=0x02)
 56: 0x02DC [0x1C] WAIT(5* ticks)
 57: 0x02DF [0x27] REQ_SET(priority=0x05, entity_id=Wesley (ID: 17825994/0x011000CA), tag_num=0x02)
 58: 0x02E6 [0x1C] WAIT(15* ticks)
 59: 0x02E9 [0x52] END_LOAD_SCHEDULER: End scheduler "s006" with entities [EventEntity, EventEntity], work=620*
 60: 0x02F8 [0x45] LOAD_SCHEDULED_TASK: Load scheduler "s007" with entities [EventEntity, EventEntity], work=[620*, 0*]
 61: 0x0309 [0x2B] Aristide (ID: 17825995/0x011000CB) [9223*]:
    → "There won't be any need to worry about that. The raptor tournament is going to be canceled."
 62: 0x0310 [0x23] WAIT_FOR_DIALOG_INTERACTION
 63: 0x0311 [0x4A] Pagnelle (ID: 17825993/0x011000C9) looks at Aristide (ID: 17825995/0x011000CB)
 64: 0x031A [0x1C] WAIT(30* ticks)
 65: 0x031D [0x2B] Pagnelle (ID: 17825993/0x011000C9) [9224*]:
    → "But--aren't you from the Peacekeepers' Coalition? On what grounds would you shut it down?"
 66: 0x0324 [0x23] WAIT_FOR_DIALOG_INTERACTION
 67: 0x0325 [0x2A] GET_REQ_LEVEL(level=5, entity_id=Aristide (ID: 17825995/0x011000CB))
 68: 0x032B [0x66] LOAD_EXT_SCHEDULER_MAIN: Load scheduler "tlk0" with entities [Aristide (ID: 17825995/0x011000CB), Aristide (ID: 17825995/0x011000CB)], work=9*
 69: 0x033A [0x52] END_LOAD_SCHEDULER: End scheduler "s007" with entities [EventEntity, EventEntity], work=620*
 70: 0x0349 [0x45] LOAD_SCHEDULED_TASK: Load scheduler "s008" with entities [EventEntity, EventEntity], work=[620*, 0*]
 71: 0x035A [0x2B] Aristide (ID: 17825995/0x011000CB) [9225*]:
    → "One of your raptors went on a bit of a rampage. Call down Maester Flaviria immediately."
 72: 0x0361 [0x23] WAIT_FOR_DIALOG_INTERACTION
 73: 0x0362 [0x66] LOAD_EXT_SCHEDULER_MAIN: Load scheduler "tlk1" with entities [Aristide (ID: 17825995/0x011000CB), Aristide (ID: 17825995/0x011000CB)], work=9*
 74: 0x0371 [0x52] END_LOAD_SCHEDULER: End scheduler "s008" with entities [EventEntity, EventEntity], work=620*
 75: 0x0380 [0x45] LOAD_SCHEDULED_TASK: Load scheduler "s009" with entities [EventEntity, EventEntity], work=[620*, 0*]
 76: 0x0391 [0x2B] Pagnelle (ID: 17825993/0x011000C9) [9226*]:
    → "A rampage? What sort of lunacy is this!?"
 77: 0x0398 [0x23] WAIT_FOR_DIALOG_INTERACTION
 78: 0x0399 [0x55] WAIT_LOAD_SCHEDULER: Wait for scheduler "s008" with entities [EventEntity, EventEntity], work=620*
 79: 0x03A8 [0x27] REQ_SET(priority=0x05, entity_id=Flaviria (ID: 17825941/0x01100095), tag_num=0x02)
 80: 0x03AF [0x1C] WAIT(15* ticks)
 81: 0x03B2 [0x45] LOAD_SCHEDULED_TASK: Load scheduler "s010" with entities [EventEntity, EventEntity], work=[620*, 0*]
 82: 0x03C3 [0x2B] Flaviria (ID: 17825941/0x01100095) [9227*]:
    → "Wesley! There you are. Where on Vana'diel were you wandering around this whole time?"
 83: 0x03CA [0x23] WAIT_FOR_DIALOG_INTERACTION
 84: 0x03CB [0x52] END_LOAD_SCHEDULER: End scheduler "s010" with entities [EventEntity, EventEntity], work=620*
 85: 0x03DA [0x45] LOAD_SCHEDULED_TASK: Load scheduler "s011" with entities [EventEntity, EventEntity], work=[620*, 0*]
 86: 0x03EB [0x4A] Wesley (ID: 17825994/0x011000CA) looks at Flaviria (ID: 17825941/0x01100095)
 87: 0x03F4 [0x1C] WAIT(15* ticks)
 88: 0x03F7 [0x4A] Aristide (ID: 17825995/0x011000CB) looks at Flaviria (ID: 17825941/0x01100095)
 89: 0x0400 [0x1C] WAIT(15* ticks)
 90: 0x0403 [0x4A] Unnamed NPC (ID: 17825996/0x011000CC) looks at Flaviria (ID: 17825941/0x01100095)
 91: 0x040C [0x2B] Wesley (ID: 17825994/0x011000CA) [9228*]:
    → "Maester Flaviria..."
 92: 0x0413 [0x23] WAIT_FOR_DIALOG_INTERACTION
 93: 0x0414 [0x4A] Pagnelle (ID: 17825993/0x011000C9) looks at Flaviria (ID: 17825941/0x01100095)
 94: 0x041D [0x4A] LocalPlayer looks at Flaviria (ID: 17825941/0x01100095)
 95: 0x0426 [0x27] REQ_SET(priority=0x05, entity_id=Aristide (ID: 17825995/0x011000CB), tag_num=0x05)
 96: 0x042D [0x2B] Aristide (ID: 17825995/0x011000CB) [9229*]:
    → "Impeccable timing, as always. There is a matter I wish to discuss."
 97: 0x0434 [0x23] WAIT_FOR_DIALOG_INTERACTION
 98: 0x0435 [0x2A] GET_REQ_LEVEL(level=5, entity_id=Aristide (ID: 17825995/0x011000CB))
 99: 0x043B [0x2A] GET_REQ_LEVEL(level=5, entity_id=Flaviria (ID: 17825941/0x01100095))
100: 0x0441 [0x52] END_LOAD_SCHEDULER: End scheduler "s011" with entities [EventEntity, EventEntity], work=620*
101: 0x0450 [0x45] LOAD_SCHEDULED_TASK: Load scheduler "s012" with entities [EventEntity, EventEntity], work=[620*, 0*]
102: 0x0461 [0x4A] Flaviria (ID: 17825941/0x01100095) looks at Aristide (ID: 17825995/0x011000CB)
103: 0x046A [0x1C] WAIT(30* ticks)
104: 0x046D [0x2B] Flaviria (ID: 17825941/0x01100095) [9230*]:
    → "Oh? What could the Peacekeepers' Coalition want with me?"
105: 0x0474 [0x23] WAIT_FOR_DIALOG_INTERACTION
106: 0x0475 [0x6E] Flaviria (ID: 17825941/0x01100095) uses emote 22*
107: 0x047C [0x99] Wait for Flaviria (ID: 17825941/0x01100095) animation to complete
108: 0x0481 [0x2B] Flaviria (ID: 17825941/0x01100095) [9231*]:
    → "And at such a busy time! We're all running around like chocobos with our heads cut off preparing for the upcoming fights."
109: 0x0488 [0x23] WAIT_FOR_DIALOG_INTERACTION
110: 0x0489 [0x52] END_LOAD_SCHEDULER: End scheduler "s012" with entities [EventEntity, EventEntity], work=620*
111: 0x0498 [0x45] LOAD_SCHEDULED_TASK: Load scheduler "s013" with entities [EventEntity, EventEntity], work=[620*, 0*]
112: 0x04A9 [0x66] LOAD_EXT_SCHEDULER_MAIN: Load scheduler "tlk0" with entities [Pagnelle (ID: 17825993/0x011000C9), Pagnelle (ID: 17825993/0x011000C9)], work=179*
113: 0x04B8 [0x2B] Pagnelle (ID: 17825993/0x011000C9) [9232*]:
    → "Maester, he says that one of our raptors has caused a bit of an incident."
114: 0x04BF [0x23] WAIT_FOR_DIALOG_INTERACTION
115: 0x04C0 [0x66] LOAD_EXT_SCHEDULER_MAIN: Load scheduler "tlk1" with entities [Pagnelle (ID: 17825993/0x011000C9), Pagnelle (ID: 17825993/0x011000C9)], work=179*
116: 0x04CF [0x4A] Flaviria (ID: 17825941/0x01100095) looks at Pagnelle (ID: 17825993/0x011000C9)
117: 0x04D8 [0x1C] WAIT(30* ticks)
118: 0x04DB [0x2B] Flaviria (ID: 17825941/0x01100095) [9233*]:
    → "Incident? What's this now?"
119: 0x04E2 [0x23] WAIT_FOR_DIALOG_INTERACTION
120: 0x04E3 [0x52] END_LOAD_SCHEDULER: End scheduler "s013" with entities [EventEntity, EventEntity], work=620*
121: 0x04F2 [0x45] LOAD_SCHEDULED_TASK: Load scheduler "s014" with entities [EventEntity, EventEntity], work=[620*, 0*]
122: 0x0503 [0x6E] Aristide (ID: 17825995/0x011000CB) uses emote 22*
123: 0x050A [0x99] Wait for Aristide (ID: 17825995/0x011000CB) animation to complete
124: 0x050F [0x2B] Aristide (ID: 17825995/0x011000CB) [9234*]:
    → "One of your raptors broke out of its stable and put some civilians in extreme danger."
125: 0x0516 [0x23] WAIT_FOR_DIALOG_INTERACTION
126: 0x0517 [0x6E] Aristide (ID: 17825995/0x011000CB) uses emote 6*
127: 0x051E [0x99] Wait for Aristide (ID: 17825995/0x011000CB) animation to complete
128: 0x0523 [0x2B] Aristide (ID: 17825995/0x011000CB) [9235*]:
    → "We managed to find it before it caused any real damage, but if we had been even a moment later..."
129: 0x052A [0x23] WAIT_FOR_DIALOG_INTERACTION
130: 0x052B [0x52] END_LOAD_SCHEDULER: End scheduler "s014" with entities [EventEntity, EventEntity], work=620*
131: 0x053A [0x45] LOAD_SCHEDULED_TASK: Load scheduler "s015" with entities [EventEntity, EventEntity], work=[620*, 0*]
132: 0x054B [0x6E] Flaviria (ID: 17825941/0x01100095) uses emote 22*
133: 0x0552 [0x99] Wait for Flaviria (ID: 17825941/0x01100095) animation to complete
134: 0x0557 [0x2B] Flaviria (ID: 17825941/0x01100095) [9236*]:
    → "I find such brazen accusations rather hard to swallow, with Wesley there watching him the whole time."
135: 0x055E [0x23] WAIT_FOR_DIALOG_INTERACTION
136: 0x055F [0x52] END_LOAD_SCHEDULER: End scheduler "s015" with entities [EventEntity, EventEntity], work=620*
137: 0x056E [0x45] LOAD_SCHEDULED_TASK: Load scheduler "s016" with entities [EventEntity, EventEntity], work=[620*, 0*]
138: 0x057F [0x79] Wesley (ID: 17825994/0x011000CA) looks at EventEntity (Basic look)
139: 0x0589 [0x1C] WAIT(15* ticks)
140: 0x058C [0x4A] Flaviria (ID: 17825941/0x01100095) looks at Aristide (ID: 17825995/0x011000CB)
141: 0x0595 [0x2B] Wesley (ID: 17825994/0x011000CA) [9237*]:
    → "I turned my head away just for an instant, and before I knew it..."
142: 0x059C [0x23] WAIT_FOR_DIALOG_INTERACTION
143: 0x059D [0x52] END_LOAD_SCHEDULER: End scheduler "s016" with entities [EventEntity, EventEntity], work=620*
144: 0x05AC [0x45] LOAD_SCHEDULED_TASK: Load scheduler "s017" with entities [EventEntity, EventEntity], work=[620*, 0*]
145: 0x05BD [0x79] Flaviria (ID: 17825941/0x01100095) looks at Wesley (ID: 17825994/0x011000CA) (Basic look)
146: 0x05C7 [0x2B] Flaviria (ID: 17825941/0x01100095) [9238*]:
    → "Preposterous."
147: 0x05CE [0x23] WAIT_FOR_DIALOG_INTERACTION
148: 0x05CF [0x52] END_LOAD_SCHEDULER: End scheduler "s017" with entities [EventEntity, EventEntity], work=620*
149: 0x05DE [0x45] LOAD_SCHEDULED_TASK: Load scheduler "s018" with entities [EventEntity, EventEntity], work=[620*, 0*]
150: 0x05EF [0x79] Flaviria (ID: 17825941/0x01100095) looks at Aristide (ID: 17825995/0x011000CB) (Basic look)
151: 0x05F9 [0x6E] Aristide (ID: 17825995/0x011000CB) uses emote 22*
152: 0x0600 [0x99] Wait for Aristide (ID: 17825995/0x011000CB) animation to complete
153: 0x0605 [0x2B] Aristide (ID: 17825995/0x011000CB) [9239*]:
    → "In my opinion, the system for monitoring those creatures is wholly insufficient. It's only a matter of time before another one escapes...and next time we may not be so lucky. The Peacekeepers' Coalition sees no easy way to resolve this issue."
154: 0x060C [0x23] WAIT_FOR_DIALOG_INTERACTION
155: 0x060D [0x79] Wesley (ID: 17825994/0x011000CA) looks at Flaviria (ID: 17825941/0x01100095) (Basic look)
156: 0x0617 [0x66] LOAD_EXT_SCHEDULER_MAIN: Load scheduler "tlk0" with entities [Aristide (ID: 17825995/0x011000CB), Aristide (ID: 17825995/0x011000CB)], work=9*
157: 0x0626 [0x2B] Aristide (ID: 17825995/0x011000CB) [9240*]:
    → "Accordingly, we would like to ask for your cooperation in discussing this matter. Please accompany me back to our headquarters so that my superiors may consult with you directly."
158: 0x062D [0x23] WAIT_FOR_DIALOG_INTERACTION
159: 0x062E [0x66] LOAD_EXT_SCHEDULER_MAIN: Load scheduler "tlk1" with entities [Aristide (ID: 17825995/0x011000CB), Aristide (ID: 17825995/0x011000CB)], work=9*
160: 0x063D [0x52] END_LOAD_SCHEDULER: End scheduler "s018" with entities [EventEntity, EventEntity], work=620*
161: 0x064C [0x45] LOAD_SCHEDULED_TASK: Load scheduler "s019" with entities [EventEntity, EventEntity], work=[620*, 0*]
162: 0x065D [0x6E] Flaviria (ID: 17825941/0x01100095) uses emote 7*
163: 0x0664 [0x99] Wait for Flaviria (ID: 17825941/0x01100095) animation to complete
164: 0x0669 [0x2B] Flaviria (ID: 17825941/0x01100095) [9241*]:
    → "Fine. As for the two of you--just keep this between us. I don't want things to exacerbate an already tense situation."
165: 0x0670 [0x1C] WAIT(60* ticks)
166: 0x0673 [0x4A] Flaviria (ID: 17825941/0x01100095) looks at Wesley (ID: 17825994/0x011000CA)
167: 0x067C [0x1C] WAIT(30* ticks)
168: 0x067F [0x6E] Flaviria (ID: 17825941/0x01100095) uses emote 22*
169: 0x0686 [0x99] Wait for Flaviria (ID: 17825941/0x01100095) animation to complete
170: 0x068B [0x1C] WAIT(90* ticks)
171: 0x068E [0x23] WAIT_FOR_DIALOG_INTERACTION
172: 0x068F [0x52] END_LOAD_SCHEDULER: End scheduler "s019" with entities [EventEntity, EventEntity], work=620*
173: 0x069E [0x45] LOAD_SCHEDULED_TASK: Load scheduler "s020" with entities [EventEntity, EventEntity], work=[620*, 0*]
174: 0x06AF [0x27] REQ_SET(priority=0x05, entity_id=Aristide (ID: 17825995/0x011000CB), tag_num=0x06)
175: 0x06B6 [0x1C] WAIT(15* ticks)
176: 0x06B9 [0x7B] Pagnelle (ID: 17825993/0x011000C9) stops talking
177: 0x06BE [0x27] REQ_SET(priority=0x05, entity_id=Unnamed NPC (ID: 17825996/0x011000CC), tag_num=0x03)
178: 0x06C5 [0x1C] WAIT(5* ticks)
179: 0x06C8 [0x27] REQ_SET(priority=0x05, entity_id=Flaviria (ID: 17825941/0x01100095), tag_num=0x03)
180: 0x06CF [0x7B] Flaviria (ID: 17825941/0x01100095) stops talking
181: 0x06D4 [0x1C] WAIT(300* ticks)
182: 0x06D7 [0x52] END_LOAD_SCHEDULER: End scheduler "s020" with entities [EventEntity, EventEntity], work=620*
183: 0x06E6 [0x45] LOAD_SCHEDULED_TASK: Load scheduler "s021" with entities [EventEntity, EventEntity], work=[620*, 0*]
184: 0x06F7 [0x6E] Pagnelle (ID: 17825993/0x011000C9) uses emote 6*
185: 0x06FE [0x99] Wait for Pagnelle (ID: 17825993/0x011000C9) animation to complete
186: 0x0703 [0x4A] Wesley (ID: 17825994/0x011000CA) looks at Pagnelle (ID: 17825993/0x011000C9)
187: 0x070C [0x79] LocalPlayer looks at Pagnelle (ID: 17825993/0x011000C9) (Basic look)
188: 0x0716 [0x2B] Pagnelle (ID: 17825993/0x011000C9) [9242*]:
    → "I can't believe it."
189: 0x071D [0x23] WAIT_FOR_DIALOG_INTERACTION
190: 0x071E [0x4E] SET_ENTITY_HIDE_FLAG: Hide Aristide (ID: 17825995/0x011000CB)
191: 0x0724 [0x4E] SET_ENTITY_HIDE_FLAG: Hide Unnamed NPC (ID: 17825996/0x011000CC)
192: 0x072A [0x4E] SET_ENTITY_HIDE_FLAG: Hide Flaviria (ID: 17825941/0x01100095)
193: 0x0730 [0x37] UPDATE_EVENT_POSITION_AND_DIR: x=-6.918*, z=-98.341*, y=-0.148*, direction=213.5°*
194: 0x0739 [0x5B] LOAD_EXT_SCHEDULER: Load scheduler "jim1" with entities [Wesley (ID: 17825994/0x011000CA), Wesley (ID: 17825994/0x011000CA)], work=65*
195: 0x0748 [0x2B] Wesley (ID: 17825994/0x011000CA) [9243*]:
    → "It is all my responsibility. If I had been more careful..."
196: 0x074F [0x23] WAIT_FOR_DIALOG_INTERACTION
197: 0x0750 [0x52] END_LOAD_SCHEDULER: End scheduler "s021" with entities [EventEntity, EventEntity], work=620*
198: 0x075F [0x45] LOAD_SCHEDULED_TASK: Load scheduler "s022" with entities [EventEntity, EventEntity], work=[620*, 0*]
199: 0x0770 [0x4A] Pagnelle (ID: 17825993/0x011000C9) looks at Wesley (ID: 17825994/0x011000CA)
200: 0x0779 [0x1C] WAIT(30* ticks)
201: 0x077C [0x2B] Pagnelle (ID: 17825993/0x011000C9) [9244*]:
    → "Wesley, which one broke out?"
202: 0x0783 [0x23] WAIT_FOR_DIALOG_INTERACTION
203: 0x0784 [0x79] Wesley (ID: 17825994/0x011000CA) looks at EventEntity (Basic look)
204: 0x078E [0x7C] Wesley (ID: 17825994/0x011000CA)->Render.Flags2 |= 0x00
205: 0x0794 [0x2B] Wesley (ID: 17825994/0x011000CA) [9245*]:
    → "It..."
206: 0x079B [0x23] WAIT_FOR_DIALOG_INTERACTION
207: 0x079C [0x7C] Wesley (ID: 17825994/0x011000CA)->Render.Flags2 |= 0x01
208: 0x07A2 [0x52] END_LOAD_SCHEDULER: End scheduler "s022" with entities [EventEntity, EventEntity], work=620*
209: 0x07B1 [0x45] LOAD_SCHEDULED_TASK: Load scheduler "s023" with entities [EventEntity, EventEntity], work=[620*, 0*]
210: 0x07C2 [0x2B] Wesley (ID: 17825994/0x011000CA) [9246*]:
    → "...It was Vorahal."
211: 0x07C9 [0x23] WAIT_FOR_DIALOG_INTERACTION
212: 0x07CA [0x52] END_LOAD_SCHEDULER: End scheduler "s023" with entities [EventEntity, EventEntity], work=620*
213: 0x07D9 [0x45] LOAD_SCHEDULED_TASK: Load scheduler "s024" with entities [EventEntity, EventEntity], work=[620*, 0*]
214: 0x07EA [0x79] Wesley (ID: 17825994/0x011000CA) looks at Pagnelle (ID: 17825993/0x011000C9) (Basic look)
215: 0x07F4 [0x2B] Pagnelle (ID: 17825993/0x011000C9) [9247*]:
    → "What!?"
216: 0x07FB [0x23] WAIT_FOR_DIALOG_INTERACTION
217: 0x07FC [0x52] END_LOAD_SCHEDULER: End scheduler "s024" with entities [EventEntity, EventEntity], work=620*
218: 0x080B [0x45] LOAD_SCHEDULED_TASK: Load scheduler "s025" with entities [EventEntity, EventEntity], work=[620*, 0*]
219: 0x081C [0x66] LOAD_EXT_SCHEDULER_MAIN: Load scheduler "tlk0" with entities [Pagnelle (ID: 17825993/0x011000C9), Pagnelle (ID: 17825993/0x011000C9)], work=39*
220: 0x082B [0x2B] Pagnelle (ID: 17825993/0x011000C9) [9248*]:
    → "Vorahal may be the fiercest gladiator ever to grace our raptor fights, but never once have I heard of him harming a soul outside the ring!"
221: 0x0832 [0x23] WAIT_FOR_DIALOG_INTERACTION
222: 0x0833 [0x66] LOAD_EXT_SCHEDULER_MAIN: Load scheduler "tlk1" with entities [Pagnelle (ID: 17825993/0x011000C9), Pagnelle (ID: 17825993/0x011000C9)], work=39*
223: 0x0842 [0x5B] LOAD_EXT_SCHEDULER: Load scheduler "jim0" with entities [Wesley (ID: 17825994/0x011000CA), Wesley (ID: 17825994/0x011000CA)], work=65*
224: 0x0851 [0x2B] Wesley (ID: 17825994/0x011000CA) [9249*]:
    → "But we have no reason to doubt that the Peacekeeper representative was telling us the truth."
225: 0x0858 [0x23] WAIT_FOR_DIALOG_INTERACTION
226: 0x0859 [0x2B] Wesley (ID: 17825994/0x011000CA) [9250*]:
    → "They also say the victim was a man in the residential district named Ilney."
227: 0x0860 [0x23] WAIT_FOR_DIALOG_INTERACTION
228: 0x0861 [0x5B] LOAD_EXT_SCHEDULER: Load scheduler "std0" with entities [Wesley (ID: 17825994/0x011000CA), Wesley (ID: 17825994/0x011000CA)], work=65*
229: 0x0870 [0x52] END_LOAD_SCHEDULER: End scheduler "s025" with entities [EventEntity, EventEntity], work=620*
230: 0x087F [0x45] LOAD_SCHEDULED_TASK: Load scheduler "s026" with entities [EventEntity, EventEntity], work=[620*, 0*]
231: 0x0890 [0x6E] Pagnelle (ID: 17825993/0x011000C9) uses emote 7*
232: 0x0897 [0x99] Wait for Pagnelle (ID: 17825993/0x011000C9) animation to complete
233: 0x089C [0x2B] Pagnelle (ID: 17825993/0x011000C9) [9251*]:
    → "Then I'll go and ask him to tell his story!"
234: 0x08A3 [0x23] WAIT_FOR_DIALOG_INTERACTION
235: 0x08A4 [0x52] END_LOAD_SCHEDULER: End scheduler "s026" with entities [EventEntity, EventEntity], work=620*
236: 0x08B3 [0x45] LOAD_SCHEDULED_TASK: Load scheduler "s027" with entities [EventEntity, EventEntity], work=[620*, 0*]
237: 0x08C4 [0x27] REQ_SET(priority=0x05, entity_id=Pagnelle (ID: 17825993/0x011000C9), tag_num=0x03)
238: 0x08CB [0x5B] LOAD_EXT_SCHEDULER: Load scheduler "jim0" with entities [Wesley (ID: 17825994/0x011000CA), Wesley (ID: 17825994/0x011000CA)], work=65*
239: 0x08DA [0x2B] Wesley (ID: 17825994/0x011000CA) [9252*]:
    → "B-but...the Maester just told us to keep quiet and mind our own business!"
240: 0x08E1 [0x23] WAIT_FOR_DIALOG_INTERACTION
241: 0x08E2 [0x2A] GET_REQ_LEVEL(level=5, entity_id=Pagnelle (ID: 17825993/0x011000C9))
242: 0x08E8 [0x6E] Pagnelle (ID: 17825993/0x011000C9) uses emote 6*
243: 0x08EF [0x99] Wait for Pagnelle (ID: 17825993/0x011000C9) animation to complete
244: 0x08F4 [0x2B] Pagnelle (ID: 17825993/0x011000C9) [9253*]:
    → "We've gotta do something!"
245: 0x08FB [0x23] WAIT_FOR_DIALOG_INTERACTION
246: 0x08FC [0x52] END_LOAD_SCHEDULER: End scheduler "s027" with entities [EventEntity, EventEntity], work=620*
247: 0x090B [0x45] LOAD_SCHEDULED_TASK: Load scheduler "s028" with entities [EventEntity, EventEntity], work=[620*, 0*]
248: 0x091C [0x5B] LOAD_EXT_SCHEDULER: Load scheduler "std0" with entities [Wesley (ID: 17825994/0x011000CA), Wesley (ID: 17825994/0x011000CA)], work=65*
249: 0x092B [0x1C] WAIT(30* ticks)
250: 0x092E [0x79] Wesley (ID: 17825994/0x011000CA) looks at LocalPlayer (Basic look)
251: 0x0938 [0x1C] WAIT(90* ticks)
252: 0x093B [0x52] END_LOAD_SCHEDULER: End scheduler "s028" with entities [EventEntity, EventEntity], work=620*
253: 0x094A [0x45] LOAD_SCHEDULED_TASK: Load scheduler "s029" with entities [EventEntity, EventEntity], work=[620*, 0*]
254: 0x095B [0x4A] Pagnelle (ID: 17825993/0x011000C9) looks at LocalPlayer
255: 0x0964 [0x1C] WAIT(60* ticks)
256: 0x0967 [0x4A] Wesley (ID: 17825994/0x011000CA) looks at LocalPlayer
257: 0x0970 [0x66] LOAD_EXT_SCHEDULER_MAIN: Load scheduler "tlk0" with entities [Pagnelle (ID: 17825993/0x011000C9), Pagnelle (ID: 17825993/0x011000C9)], work=179*
258: 0x097F [0x2B] Pagnelle (ID: 17825993/0x011000C9) [9254*]:
    → "E-excuse me, [sir/madam]?"
259: 0x0986 [0x23] WAIT_FOR_DIALOG_INTERACTION
260: 0x0987 [0x52] END_LOAD_SCHEDULER: End scheduler "s029" with entities [EventEntity, EventEntity], work=620*
261: 0x0996 [0x45] LOAD_SCHEDULED_TASK: Load scheduler "s030" with entities [EventEntity, EventEntity], work=[620*, 0*]
262: 0x09A7 [0x2B] Pagnelle (ID: 17825993/0x011000C9) [9255*]:
    → "Forgive me for going above my station, but..."
263: 0x09AE [0x23] WAIT_FOR_DIALOG_INTERACTION
264: 0x09AF [0x2B] Pagnelle (ID: 17825993/0x011000C9) [9256*]:
    → "...But something doesn't sit right. There's no way that Vorahal would assault an innocent person."
265: 0x09B6 [0x23] WAIT_FOR_DIALOG_INTERACTION
266: 0x09B7 [0x45] LOAD_SCHEDULED_TASK: Load scheduler "fdo1" with entities [LocalPlayer, LocalPlayer], work=[200*, 0*]
267: 0x09C8 [0x55] WAIT_LOAD_SCHEDULER: Wait for scheduler "fdo1" with entities [LocalPlayer, LocalPlayer], work=200*
268: 0x09D7 [0x52] END_LOAD_SCHEDULER: End scheduler "s030" with entities [EventEntity, EventEntity], work=620*
269: 0x09E6 [0x77] SET_EVENT_TIME_WEATHER(hour=12*, weather=1*)
270: 0x09EB [0x7B] Pagnelle (ID: 17825993/0x011000C9) stops talking
271: 0x09F0 [0x6B] STOP_AND_IDLE: Pagnelle (ID: 17825993/0x011000C9) stops current action and resets to idle (animation="idl0")
272: 0x09F9 [0x2F] Unnamed NPC (ID: 17826000/0x011000D0)->Render.Flags0 &= ~0x80000 // Bit 19
273: 0x09FF [0x4E] SET_ENTITY_HIDE_FLAG: Show Unnamed NPC (ID: 17826000/0x011000D0)
274: 0x0A05 [0x27] REQ_SET(priority=0x05, entity_id=Wesley (ID: 17825994/0x011000CA), tag_num=0x03)
275: 0x0A0C [0x33] EventEntity->Render.Flags0 |= 0x200000 // Bit 21 (flag=0x01)
276: 0x0A0E [0x59] UPDATE_ENTITY_DATA: Pagnelle (ID: 17825993/0x011000C9)->Render.Flags0 |= 0x200000
277: 0x0A15 [0x59] UPDATE_ENTITY_DATA: Unnamed NPC (ID: 17826000/0x011000D0)->Render.Flags0 |= 0x200000
278: 0x0A1C [0x59] UPDATE_ENTITY_DATA: Wesley (ID: 17825994/0x011000CA)->Render.Flags0 |= 0x200000
279: 0x0A23 [0x37] UPDATE_EVENT_POSITION_AND_DIR: x=-26.731*, z=-88.621*, y=-60.039*, direction=162.8°*
280: 0x0A2C [0xBA] SET_ENTITY_POSITION(entity_id=Pagnelle (ID: 17825993/0x011000C9), pos_x=-26.731*, pos_z=-88.621*, pos_y=-60.039*, direction=141.9°*)
281: 0x0A39 [0xBA] SET_ENTITY_POSITION(entity_id=Wesley (ID: 17825994/0x011000CA), pos_x=-30.634*, pos_z=-92.113*, pos_y=-60.000*, direction=207.0°*)
282: 0x0A46 [0xBA] SET_ENTITY_POSITION(entity_id=Unnamed NPC (ID: 17826000/0x011000D0), pos_x=-26.538*, pos_z=-94.741*, pos_y=-60.000*, direction=207.0°*)
283: 0x0A53 [0x80] LOAD_WAIT(entity=EventEntity)
284: 0x0A58 [0x80] LOAD_WAIT(entity=Pagnelle (ID: 17825993/0x011000C9))
285: 0x0A5D [0x80] LOAD_WAIT(entity=Wesley (ID: 17825994/0x011000CA))
286: 0x0A62 [0x80] LOAD_WAIT(entity=Unnamed NPC (ID: 17826000/0x011000D0))
287: 0x0A67 [0x4A] Wesley (ID: 17825994/0x011000CA) looks at Pagnelle (ID: 17825993/0x011000C9)
288: 0x0A70 [0x1C] WAIT(60* ticks)
289: 0x0A73 [0xC5] LOAD_SCHEDULED_TASK_ALT3: Load scheduler 0x80013030 for entities [EventEntity, EventEntity], work=213*, param=12403
290: 0x0A84 [0x45] LOAD_SCHEDULED_TASK: Load scheduler "s230" with entities [EventEntity, EventEntity], work=[620*, 0*]
291: 0x0A95 [0x1C] WAIT(15* ticks)
292: 0x0A98 [0x66] LOAD_EXT_SCHEDULER_MAIN: Load scheduler "mab0" with entities [Pagnelle (ID: 17825993/0x011000C9), Pagnelle (ID: 17825993/0x011000C9)], work=170*
293: 0x0AA7 [0x45] LOAD_SCHEDULED_TASK: Load scheduler "fdi1" with entities [LocalPlayer, LocalPlayer], work=[200*, 0*]
294: 0x0AB8 [0x2B] Wesley (ID: 17825994/0x011000CA) [9257*]:
    → "You see, Vorahal once saved her in her moment of need, when she was under attack by the creatures of the forest."
295: 0x0ABF [0x1C] WAIT(60* ticks)
296: 0x0AC2 [0x27] REQ_SET(priority=0x05, entity_id=Unnamed NPC (ID: 17826000/0x011000D0), tag_num=0x02)
297: 0x0AC9 [0x1C] WAIT(20* ticks)
298: 0x0ACC [0x52] END_LOAD_SCHEDULER: End scheduler "s230" with entities [EventEntity, EventEntity], work=620*
299: 0x0ADB [0x45] LOAD_SCHEDULED_TASK: Load scheduler "s231" with entities [EventEntity, EventEntity], work=[620*, 0*]
300: 0x0AEC [0x2A] GET_REQ_LEVEL(level=5, entity_id=Unnamed NPC (ID: 17826000/0x011000D0))
301: 0x0AF2 [0xC4] SCHEDULE_MAGIC_CASTING_ALT (arg=18): Unnamed NPC (ID: 17826000/0x011000D0) casts magic 123* on Wesley (ID: 17825994/0x011000CA)
302: 0x0AFE [0x1C] WAIT(120* ticks)
303: 0x0B01 [0x27] REQ_SET(priority=0x05, entity_id=Wesley (ID: 17825994/0x011000CA), tag_num=0x05)
304: 0x0B08 [0x52] END_LOAD_SCHEDULER: End scheduler "s231" with entities [EventEntity, EventEntity], work=620*
305: 0x0B17 [0x45] LOAD_SCHEDULED_TASK: Load scheduler "s232" with entities [EventEntity, EventEntity], work=[620*, 0*]
306: 0x0B28 [0x66] LOAD_EXT_SCHEDULER_MAIN: Load scheduler "mab1" with entities [Pagnelle (ID: 17825993/0x011000C9), Pagnelle (ID: 17825993/0x011000C9)], work=170*
307: 0x0B37 [0x1C] WAIT(60* ticks)
308: 0x0B3A [0x23] WAIT_FOR_DIALOG_INTERACTION
309: 0x0B3B [0x45] LOAD_SCHEDULED_TASK: Load scheduler "fdo1" with entities [LocalPlayer, LocalPlayer], work=[200*, 0*]
310: 0x0B4C [0x55] WAIT_LOAD_SCHEDULER: Wait for scheduler "fdo1" with entities [LocalPlayer, LocalPlayer], work=200*
311: 0x0B5B [0x52] END_LOAD_SCHEDULER: End scheduler "s232" with entities [EventEntity, EventEntity], work=620*
312: 0x0B6A [0xC5] LOAD_SCHEDULED_TASK_ALT3: Load scheduler 0x8001306C for entities [EventEntity, EventEntity], work=213*, param=26987
313: 0x0B7B [0x27] REQ_SET(priority=0x05, entity_id=Wesley (ID: 17825994/0x011000CA), tag_num=0x04)
314: 0x0B82 [0x6B] STOP_AND_IDLE: Pagnelle (ID: 17825993/0x011000C9) stops current action and resets to idle (animation="idl0")
315: 0x0B8B [0x4E] SET_ENTITY_HIDE_FLAG: Show Flaviria (ID: 17825941/0x01100095)
316: 0x0B91 [0xBA] SET_ENTITY_POSITION(entity_id=Flaviria (ID: 17825941/0x01100095), pos_x=-11.158*, pos_z=-93.147*, pos_y=-0.148*, direction=335.6°*)
317: 0x0B9E [0xBA] SET_ENTITY_POSITION(entity_id=Pagnelle (ID: 17825993/0x011000C9), pos_x=-1.448*, pos_z=-91.779*, pos_y=0.000*, direction=186.9°*)
318: 0x0BAB [0xBA] SET_ENTITY_POSITION(entity_id=Wesley (ID: 17825994/0x011000CA), pos_x=-11.764*, pos_z=-91.025*, pos_y=-0.148*, direction=345.1°*)
319: 0x0BB8 [0xBA] SET_ENTITY_POSITION(entity_id=Unnamed NPC (ID: 17826000/0x011000D0), pos_x=-0.303*, pos_z=-89.994*, pos_y=0.000*, direction=179.4°*)
320: 0x0BC5 [0x80] LOAD_WAIT(entity=Flaviria (ID: 17825941/0x01100095))
321: 0x0BCA [0x80] LOAD_WAIT(entity=Pagnelle (ID: 17825993/0x011000C9))
322: 0x0BCF [0x80] LOAD_WAIT(entity=Wesley (ID: 17825994/0x011000CA))
323: 0x0BD4 [0x80] LOAD_WAIT(entity=Unnamed NPC (ID: 17826000/0x011000D0))
324: 0x0BD9 [0x4A] Flaviria (ID: 17825941/0x01100095) looks at Pagnelle (ID: 17825993/0x011000C9)
325: 0x0BE2 [0x4A] Wesley (ID: 17825994/0x011000CA) looks at Pagnelle (ID: 17825993/0x011000C9)
326: 0x0BEB [0x27] REQ_SET(priority=0x05, entity_id=Pagnelle (ID: 17825993/0x011000C9), tag_num=0x04)
327: 0x0BF2 [0x1C] WAIT(5* ticks)
328: 0x0BF5 [0x27] REQ_SET(priority=0x05, entity_id=Unnamed NPC (ID: 17826000/0x011000D0), tag_num=0x03)
329: 0x0BFC [0x1C] WAIT(30* ticks)
330: 0x0BFF [0x66] LOAD_EXT_SCHEDULER_MAIN: Load scheduler "thk1" with entities [Flaviria (ID: 17825941/0x01100095), Flaviria (ID: 17825941/0x01100095)], work=39*
331: 0x0C0E [0x1C] WAIT(30* ticks)
332: 0x0C11 [0x45] LOAD_SCHEDULED_TASK: Load scheduler "s229" with entities [EventEntity, EventEntity], work=[620*, 0*]
333: 0x0C22 [0x1C] WAIT(15* ticks)
334: 0x0C25 [0x45] LOAD_SCHEDULED_TASK: Load scheduler "efon" with entities [LocalPlayer, LocalPlayer], work=[215*, 0*]
335: 0x0C36 [0x55] WAIT_LOAD_SCHEDULER: Wait for scheduler "efon" with entities [LocalPlayer, LocalPlayer], work=215*
336: 0x0C45 [0x2B] Pagnelle (ID: 17825993/0x011000C9) [9258*]:
    → "That's what brought Vorahal to the Mummers' Coalition. I just KNOW there has to be some misunderstanding."
337: 0x0C4C [0x1C] WAIT(60* ticks)
338: 0x0C4F [0x5B] LOAD_EXT_SCHEDULER: Load scheduler "jim0" with entities [Wesley (ID: 17825994/0x011000CA), Wesley (ID: 17825994/0x011000CA)], work=65*
339: 0x0C5E [0x23] WAIT_FOR_DIALOG_INTERACTION
340: 0x0C5F [0x2A] GET_REQ_LEVEL(level=5, entity_id=Pagnelle (ID: 17825993/0x011000C9))
341: 0x0C65 [0x45] LOAD_SCHEDULED_TASK: Load scheduler "fdo1" with entities [LocalPlayer, LocalPlayer], work=[200*, 0*]
342: 0x0C76 [0x55] WAIT_LOAD_SCHEDULER: Wait for scheduler "fdo1" with entities [LocalPlayer, LocalPlayer], work=200*
343: 0x0C85 [0x52] END_LOAD_SCHEDULER: End scheduler "s229" with entities [EventEntity, EventEntity], work=620*
344: 0x0C94 [0x78] ENABLE_GAME_TIMER_RESET_WEATHER()
345: 0x0C95 [0x4E] SET_ENTITY_HIDE_FLAG: Hide Unnamed NPC (ID: 17826000/0x011000D0)
346: 0x0C9B [0x4E] SET_ENTITY_HIDE_FLAG: Hide Flaviria (ID: 17825941/0x01100095)
347: 0x0CA1 [0x6B] STOP_AND_IDLE: Pagnelle (ID: 17825993/0x011000C9) stops current action and resets to idle (animation="idl0")
348: 0x0CAA [0x6B] STOP_AND_IDLE: Wesley (ID: 17825994/0x011000CA) stops current action and resets to idle (animation="idl0")
349: 0x0CB3 [0xBA] SET_ENTITY_POSITION(entity_id=Pagnelle (ID: 17825993/0x011000C9), pos_x=-6.707*, pos_z=-97.936*, pos_y=-0.148*, direction=213.5°*)
350: 0x0CC0 [0xBA] SET_ENTITY_POSITION(entity_id=Wesley (ID: 17825994/0x011000CA), pos_x=-5.534*, pos_z=-96.216*, pos_y=-0.148*, direction=150.8°*)
351: 0x0CCD [0x80] LOAD_WAIT(entity=Wesley (ID: 17825994/0x011000CA))
352: 0x0CD2 [0x4A] Pagnelle (ID: 17825993/0x011000C9) looks at LocalPlayer
353: 0x0CDB [0x4A] Wesley (ID: 17825994/0x011000CA) looks at LocalPlayer
354: 0x0CE4 [0x1C] WAIT(30* ticks)
355: 0x0CE7 [0x66] LOAD_EXT_SCHEDULER_MAIN: Load scheduler "tlk0" with entities [Pagnelle (ID: 17825993/0x011000C9), Pagnelle (ID: 17825993/0x011000C9)], work=39*
356: 0x0CF6 [0x45] LOAD_SCHEDULED_TASK: Load scheduler "s032" with entities [EventEntity, EventEntity], work=[620*, 0*]
357: 0x0D07 [0x1C] WAIT(15* ticks)
358: 0x0D0A [0x45] LOAD_SCHEDULED_TASK: Load scheduler "fdi1" with entities [LocalPlayer, LocalPlayer], work=[200*, 0*]
