# 17826059 - Mastan

## Common Data

| Field            | Value                     |
|------------------|---------------------------|
| Zone             | Western Adoulin (ID: 256) |
| Block Size       | 1428 bytes                |
| Total Events     | 4                         |
| References Count | 51                        |

## List of Events

| Event ID              | Entrypoint   |   Size |   Instructions |
|-----------------------|--------------|--------|----------------|
| [65535](#event-65535) | 0x0000       |      1 |              1 |
| [525](#event-525)     | 0x0001       |     17 |              9 |
| [70](#event-70)       | 0x0012       |     18 |             10 |
| [184](#event-184)     | 0x0024       |   1153 |            157 |

## DAT References (imed_data)

|   Index | Hex Value   |   Dec Value |
|---------|-------------|-------------|
|       0 | 0x266F      |        9839 |
|       1 | 0x2670      |        9840 |
|       2 | 0x1FCD      |        8141 |
|       3 | 0x1FCE      |        8142 |
|       4 | 0x0014      |          20 |
|       5 | 0x2DB3      |       11699 |
|       6 | 0x0000      |           0 |
|       7 | 0x0064      |         100 |
|       8 | 0x2DB4      |       11700 |
|       9 | 0x0001      |           1 |
|      10 | 0x0002      |           2 |
|      11 | 0x0003      |           3 |
|      12 | 0x0AFC      |        2812 |
|      13 | 0x2DB5      |       11701 |
|      14 | 0x0078      |         120 |
|      15 | 0x2DB6      |       11702 |
|      16 | 0x2DB7      |       11703 |
|      17 | 0x2DB8      |       11704 |
|      18 | 0x2DB9      |       11705 |
|      19 | 0x2DBA      |       11706 |
|      20 | 0x0096      |         150 |
|      21 | 0x0512      |        1298 |
|      22 | 0x2DBB      |       11707 |
|      23 | 0x2DBC      |       11708 |
|      24 | 0x03FC      |        1020 |
|      25 | 0x2DBD      |       11709 |
|      26 | 0x00C8      |         200 |
|      27 | 0x003C      |          60 |
|      28 | 0x2071      |        8305 |
|      29 | 0x002D      |          45 |
|      30 | 0x2DBE      |       11710 |
|      31 | 0x2DBF      |       11711 |
|      32 | 0x2DC0      |       11712 |
|      33 | 0x2DC1      |       11713 |
|      34 | 0x2DC2      |       11714 |
|      35 | 0x2DC3      |       11715 |
|      36 | 0x2DC4      |       11716 |
|      37 | 0x2DC5      |       11717 |
|      38 | 0x2DC6      |       11718 |
|      39 | 0x2DC7      |       11719 |
|      40 | 0x2DC8      |       11720 |
|      41 | 0x2DC9      |       11721 |
|      42 | 0x2DCA      |       11722 |
|      43 | 0x2DCB      |       11723 |
|      44 | 0x2DCC      |       11724 |
|      45 | 0x2DCD      |       11725 |
|      46 | 0x2DCE      |       11726 |
|      47 | 0x2DCF      |       11727 |
|      48 | 0x2DD0      |       11728 |
|      49 | 0x0082      |         130 |
|      50 | 0x2DD1      |       11729 |

## String References

- **8141**: Yes, this is the manse of Reginald, maester of the Couriers' Coalition.
- **8142**: Your information on the Order of Shneddick is accurate, at least to the best of my knowledge. Thank you for confirming. Once you're done with that task, stop by the coalition and lend them a hand, okay?
- **8305**: @@
- **9839**: The Couriers' Coalition isn't simply an assembly of grunts who carry heavy things long distances. We are the blood that flows swiftly and efficiently through Ulbuka's body, providing it much-needed nutrition.
- **9840**: Sounds profound, right? That's because they're words from none other than our leader, Reginald. He also has this one: "Ulbuka lives and dies by the effort the Couriers' Coalition puts forth."
- **11701**: Have any inquiries to make? [I've undertaken many courier assignments./Tell me about Souffriand's death./I'll be leaving./Show him the $3.]
- **11727**: What do you think? [I believe you./You've got to be joking.]

## Events

### Event 65535

#### Metadata

| Field        | Value   |
|--------------|---------|
| Entrypoint   | 0x0000  |
| Data Size    | 1 bytes |
| Instructions | 1       |

```
      00 01 02 03 04 05 06 07  08 09 0A 0B 0C 0D 0E 0F
      -- -- -- -- -- -- -- --  -- -- -- -- -- -- -- --
0000: 00                                                .               
```

#### Opcodes

```
  0: 0x0000 [0x00] END_REQSTACK()
```

### Event 525

#### Metadata

| Field        | Value    |
|--------------|----------|
| Entrypoint   | 0x0001   |
| Data Size    | 17 bytes |
| Instructions | 9        |

```
      00 01 02 03 04 05 06 07  08 09 0A 0B 0C 0D 0E 0F
      -- -- -- -- -- -- -- --  -- -- -- -- -- -- -- --
0000:    1E F0 FF FF 7F 6F 70  1D 00 80 23 1D 01 80 23   .....op...#...#
0010: 21 00                                             !.              
```

#### Opcodes

```
  0: 0x0001 [0x1E] EventEntity looks at LocalPlayer and starts talking
  1: 0x0006 [0x6F] WAIT_FRAME_DELAY: Yield until WaitTime reaches zero
  2: 0x0007 [0x70] WAIT_ENTITY_RENDER_FLAG: Wait while EventEntity->Render.Flags3 bit 2 is set (cancel turn if not)
  3: 0x0008 [0x1D] PRINT_EVENT_MESSAGE(message_id=9839*)
    → "The Couriers' Coalition isn't simply an assembly of grunts who carry heavy things long distances. We are the blood that flows swiftly and efficiently through Ulbuka's body, providing it much-needed nutrition."
  4: 0x000B [0x23] WAIT_FOR_DIALOG_INTERACTION
  5: 0x000C [0x1D] PRINT_EVENT_MESSAGE(message_id=9840*)
    → "Sounds profound, right? That's because they're words from none other than our leader, Reginald. He also has this one: "Ulbuka lives and dies by the effort the Couriers' Coalition puts forth.""
  6: 0x000F [0x23] WAIT_FOR_DIALOG_INTERACTION
  7: 0x0010 [0x21] END_EVENT
  8: 0x0011 [0x00] END_REQSTACK()
```

### Event 70

#### Metadata

| Field        | Value    |
|--------------|----------|
| Entrypoint   | 0x0012   |
| Data Size    | 18 bytes |
| Instructions | 10       |

```
      00 01 02 03 04 05 06 07  08 09 0A 0B 0C 0D 0E 0F
      -- -- -- -- -- -- -- --  -- -- -- -- -- -- -- --
0010:       42 1E F0 FF FF 7F  6F 70 1D 02 80 23 1D 03    B.....op...#..
0020: 80 23 21 00                                       .#!.            
```

#### Opcodes

```
  0: 0x0012 [0x42] SET_CLI_EVENT_CANCEL_DATA()
  1: 0x0013 [0x1E] EventEntity looks at LocalPlayer and starts talking
  2: 0x0018 [0x6F] WAIT_FRAME_DELAY: Yield until WaitTime reaches zero
  3: 0x0019 [0x70] WAIT_ENTITY_RENDER_FLAG: Wait while EventEntity->Render.Flags3 bit 2 is set (cancel turn if not)
  4: 0x001A [0x1D] PRINT_EVENT_MESSAGE(message_id=8141*)
    → "Yes, this is the manse of Reginald, maester of the Couriers' Coalition."
  5: 0x001D [0x23] WAIT_FOR_DIALOG_INTERACTION
  6: 0x001E [0x1D] PRINT_EVENT_MESSAGE(message_id=8142*)
    → "Your information on the Order of Shneddick is accurate, at least to the best of my knowledge. Thank you for confirming. Once you're done with that task, stop by the coalition and lend them a hand, okay?"
  7: 0x0021 [0x23] WAIT_FOR_DIALOG_INTERACTION
  8: 0x0022 [0x21] END_EVENT
  9: 0x0023 [0x00] END_REQSTACK()
```

### Event 184

#### Metadata

| Field        | Value      |
|--------------|------------|
| Entrypoint   | 0x0024     |
| Data Size    | 1153 bytes |
| Instructions | 124        |

```
      00 01 02 03 04 05 06 07  08 09 0A 0B 0C 0D 0E 0F
      -- -- -- -- -- -- -- --  -- -- -- -- -- -- -- --
0020:             06 01 10 4A  F0 FF FF 7F 0B 01 10 01      ...J........
0030: 1C 04 80 6F 76 F0 FF FF  7F 4A 0B 01 10 01 F0 FF  ...ov....J......
0040: FF 7F 6F 76 0B 01 10 01  2B 0B 01 10 01 05 80 23  ..ov....+......#
0050: 5F 06 06 80 F8 FF FF 7F  F8 FF FF 7F 74 6C 6B 31  _...........tlk1
0060: 07 80 2B 0B 01 10 01 08  80 06 00 00 02 03 10 09  ..+.............
0070: 80 00 77 00 01 7E 00 3C  00 00 06 80 09 80 3C 00  ..w..~.<......<.
0080: 00 0A 80 09 80 3C 00 00  0B 80 09 80 5F 07 F8 FF  .....<......_...
0090: FF 7F F8 FF FF 7F 74 6C  6B 31 23 03 03 10 0C 80  ......tlk1#.....
00A0: 24 0D 80 06 80 00 00 25  02 00 10 06 80 00 DF 00  $......%........
00B0: 5F 06 06 80 F8 FF FF 7F  F8 FF FF 7F 74 65 6E 31  _...........ten1
00C0: 0E 80 2B 0B 01 10 01 0F  80 5F 07 F8 FF FF 7F F8  ..+......_......
00D0: FF FF 7F 74 65 6E 31 23  06 01 10 21 01 C9 01 02  ...ten1#...!....
00E0: 00 10 09 80 00 64 01 5F  06 06 80 F8 FF FF 7F F8  .....d._........
00F0: FF FF 7F 74 65 6E 31 0E  80 2B 0B 01 10 01 10 80  ...ten1..+......
0100: 5F 07 F8 FF FF 7F F8 FF  FF 7F 74 65 6E 31 23 29  _.........ten1#)
0110: 08 F0 FF FF 7F 10 1C 07  80 2B 0B 01 10 01 11 80  .........+......
0120: 23 2B 0B 01 10 01 12 80  23 5F 06 06 80 F8 FF FF  #+......#_......
0130: 7F F8 FF FF 7F 74 6C 6B  31 07 80 2B 0B 01 10 01  .....tlk1..+....
0140: 13 80 3C 00 00 06 80 09  80 3C 00 00 09 80 09 80  ..<......<......
0150: 3D 00 00 0A 80 09 80 3D  00 00 0B 80 09 80 01 8C  =......=........
0160: 00 01 C9 01 02 00 10 0A  80 00 93 01 5F 06 06 80  ............_...
0170: F8 FF FF 7F F8 FF FF 7F  74 65 6E 31 0E 80 5F 07  ........ten1.._.
0180: F8 FF FF 7F F8 FF FF 7F  74 65 6E 31 06 01 10 21  ........ten1...!
0190: 01 C9 01 02 00 10 0B 80  00 C9 01 42 5F 06 06 80  ...........B_...
01A0: F8 FF FF 7F F8 FF FF 7F  74 65 6E 31 0E 80 5F 07  ........ten1.._.
01B0: F8 FF FF 7F F8 FF FF 7F  74 65 6E 31 27 08 F0 FF  ........ten1'...
01C0: FF 7F 06 1C 14 80 01 C9  01 5F 05 15 80 F8 FF FF  ........._......
01D0: 7F F8 FF FF 7F 61 73 65  30 0E 80 2B 0B 01 10 01  .....ase0..+....
01E0: 16 80 23 2B 0B 01 10 01  17 80 5F 07 F8 FF FF 7F  ..#+......_.....
01F0: F8 FF FF 7F 61 73 65 30  23 5F 05 15 80 F8 FF FF  ....ase0#_......
0200: 7F F8 FF FF 7F 61 73 65  31 0E 80 5F 07 F8 FF FF  .....ase1.._....
0210: 7F F8 FF FF 7F 61 73 65  31 4B 0B 01 10 01 18 80  .....ase1K......
0220: 6F 76 0B 01 10 01 5F 06  0B 80 F8 FF FF 7F F8 FF  ov...._.........
0230: FF 7F 73 64 6F 30 0E 80  2B 0B 01 10 01 19 80 5F  ..sdo0..+......_
0240: 07 F8 FF FF 7F F8 FF FF  7F 73 64 6F 30 45 1A 80  .........sdo0E..
0250: F0 FF FF 7F F0 FF FF 7F  66 64 6F 31 06 80 55 1A  ........fdo1..U.
0260: 80 F0 FF FF 7F F0 FF FF  7F 66 64 6F 31 23 1C 1B  .........fdo1#..
0270: 80 48 1C 80 23 1C 1D 80  5F 06 0B 80 F8 FF FF 7F  .H..#..._.......
0280: F8 FF FF 7F 73 64 6F 31  0E 80 45 1A 80 F0 FF FF  ....sdo1..E.....
0290: 7F F0 FF FF 7F 66 64 69  31 06 80 55 1A 80 F0 FF  .....fdi1..U....
02A0: FF 7F F0 FF FF 7F 66 64  69 31 5F 07 F8 FF FF 7F  ......fdi1_.....
02B0: F8 FF FF 7F 73 64 6F 31  2B 0B 01 10 01 1E 80 1C  ....sdo1+.......
02C0: 1B 80 23 4A 0B 01 10 01  F0 FF FF 7F 6F 76 0B 01  ..#J........ov..
02D0: 10 01 2B 0B 01 10 01 1F  80 23 5F 06 06 80 F8 FF  ..+......#_.....
02E0: FF 7F F8 FF FF 7F 74 6C  6B 30 0E 80 2B 0B 01 10  ......tlk0..+...
02F0: 01 20 80 23 2B 0B 01 10  01 21 80 23 2B 0B 01 10  . .#+....!.#+...
0300: 01 22 80 5F 07 F8 FF FF  7F F8 FF FF 7F 74 6C 6B  ."._.........tlk
0310: 30 23 5F 06 06 80 F8 FF  FF 7F F8 FF FF 7F 74 65  0#_...........te
0320: 6E 30 0E 80 2B 0B 01 10  01 23 80 5F 07 F8 FF FF  n0..+....#._....
0330: 7F F8 FF FF 7F 74 65 6E  30 23 5F 06 0A 80 F8 FF  .....ten0#_.....
0340: FF 7F F8 FF FF 7F 74 6C  64 30 0E 80 2B 0B 01 10  ......tld0..+...
0350: 01 24 80 23 2B 0B 01 10  01 25 80 5F 07 F8 FF FF  .$.#+....%._....
0360: 7F F8 FF FF 7F 74 6C 64  30 23 5F 06 0A 80 F8 FF  .....tld0#_.....
0370: FF 7F F8 FF FF 7F 74 6C  64 31 0E 80 2B 0B 01 10  ......tld1..+...
0380: 01 26 80 23 2B 0B 01 10  01 27 80 5F 07 F8 FF FF  .&.#+....'._....
0390: 7F F8 FF FF 7F 74 6C 64  31 23 5F 06 0A 80 F8 FF  .....tld1#_.....
03A0: FF 7F F8 FF FF 7F 74 68  62 31 0E 80 2B 0B 01 10  ......thb1..+...
03B0: 01 28 80 23 2B 0B 01 10  01 29 80 23 2B 0B 01 10  .(.#+....).#+...
03C0: 01 2A 80 5F 07 F8 FF FF  7F F8 FF FF 7F 74 68 62  .*._.........thb
03D0: 31 23 5F 06 0A 80 F8 FF  FF 7F F8 FF FF 7F 74 68  1#_...........th
03E0: 62 32 0E 80 2B 0B 01 10  01 2B 80 5F 07 F8 FF FF  b2..+....+._....
03F0: 7F F8 FF FF 7F 74 68 62  32 23 5F 06 06 80 F8 FF  .....thb2#_.....
0400: FF 7F F8 FF FF 7F 74 6C  6B 30 0E 80 2B 0B 01 10  ......tlk0..+...
0410: 01 2C 80 23 2B 0B 01 10  01 2D 80 5F 07 F8 FF FF  .,.#+....-._....
0420: 7F F8 FF FF 7F 74 6C 6B  30 23 5F 06 06 80 F8 FF  .....tlk0#_.....
0430: FF 7F F8 FF FF 7F 74 65  6E 30 0E 80 2B 0B 01 10  ......ten0..+...
0440: 01 2E 80 5F 07 F8 FF FF  7F F8 FF FF 7F 74 65 6E  ..._.........ten
0450: 30 23 24 2F 80 06 80 06  80 25 02 00 10 06 80 00  0#$/.....%......
0460: 6D 04 2B 0B 01 10 01 30  80 23 01 A0 04 02 00 10  m.+....0.#......
0470: 09 80 00 A0 04 5F 06 06  80 F8 FF FF 7F F8 FF FF  ....._..........
0480: 7F 64 69 73 30 31 80 2B  0B 01 10 01 32 80 5F 07  .dis01.+....2._.
0490: F8 FF FF 7F F8 FF FF 7F  64 69 73 30 23 01 A0 04  ........dis0#...
04A0: 05 01 10 21 00                                    ...!.           
```

#### Opcodes

```
  0: 0x0024 [0x06] Work_Zone[1] = 0
  1: 0x0027 [0x4A] LocalPlayer looks at Mastan (ID: 17826059/0x0110010B)
  2: 0x0030 [0x1C] WAIT(20* ticks)
  3: 0x0033 [0x6F] WAIT_FRAME_DELAY: Yield until WaitTime reaches zero
  4: 0x0034 [0x76] CHECK_ENTITY_RENDER_FLAGS: Wait until LocalPlayer Render.Flags0 and Render.Flags3 conditions are met
  5: 0x0039 [0x4A] Mastan (ID: 17826059/0x0110010B) looks at LocalPlayer
  6: 0x0042 [0x6F] WAIT_FRAME_DELAY: Yield until WaitTime reaches zero
  7: 0x0043 [0x76] CHECK_ENTITY_RENDER_FLAGS: Wait until Mastan (ID: 17826059/0x0110010B) Render.Flags0 and Render.Flags3 conditions are met
  8: 0x0048 [0x2B] Mastan (ID: 17826059/0x0110010B) [11699*]:
    → "Hm? You have business with Maester Reginald?"
  9: 0x004F [0x23] WAIT_FOR_DIALOG_INTERACTION
 10: 0x0050 [0x5F] MULTI_HANDLER_COMPLEX(mode=0x06 - Load ext scheduler with flag (OpCode 0x5B mode 1, flag 1), ref=0*, entity1=EventEntity, entity2=EventEntity, string="tlk1", extra=100*)
 11: 0x0062 [0x2B] Mastan (ID: 17826059/0x0110010B) [11700*]:
    → "He is currently away on business, but I will assist you in any way I am able."
 12: 0x0069 [0x06] ExtData[1]->WorkLocal[0] = 0
 13: 0x006C [0x02] IF !(Work_Zone[3] == 1*) GOTO 0x0077
 14: 0x0074 [0x01] GOTO 0x007E
 15: 0x0077 [0x3C] SET_BIT_FLAG_CONDITIONAL(target_work_offset=ExtData[1]->WorkLocal[0], bit_index_work_offset=0*, condition_work_offset=1*)

SUBROUTINE_007E:
 16: 0x007E [0x3C] SET_BIT_FLAG_CONDITIONAL(target_work_offset=ExtData[1]->WorkLocal[0], bit_index_work_offset=2*, condition_work_offset=1*)
 17: 0x0085 [0x3C] SET_BIT_FLAG_CONDITIONAL(target_work_offset=ExtData[1]->WorkLocal[0], bit_index_work_offset=3*, condition_work_offset=1*)

SUBROUTINE_008C:
 18: 0x008C [0x5F] MULTI_HANDLER_COMPLEX(mode=0x07 - Wait scheduler task (OpCode 0x53))
 19: 0x009A [0x23] WAIT_FOR_DIALOG_INTERACTION
 20: 0x009B [0x03] Work_Zone[3] = 2812*
 21: 0x00A0 [0x24] CREATE_DIALOG(message_id=11701*, default_option=0*, option_flags=ExtData[1]->WorkLocal[0])
    → "Have any inquiries to make? [I've undertaken many courier assignments./Tell me about Souffriand's death./I'll be leaving./Show him the $3.]"
 22: 0x00A7 [0x25] WAIT_DIALOG_SELECT()
 23: 0x00A8 [0x02] IF !(Work_Zone[0] == 0*) GOTO 0x00DF
 24: 0x00B0 [0x5F] MULTI_HANDLER_COMPLEX(mode=0x06 - Load ext scheduler with flag (OpCode 0x5B mode 1, flag 1), ref=0*, entity1=EventEntity, entity2=EventEntity, string="ten1", extra=120*)
 25: 0x00C2 [0x2B] Mastan (ID: 17826059/0x0110010B) [11702*]:
    → "The coalition greatly appreciates all the work you have put into the pioneering efforts. We hope you continue to serve us well into the future."
 26: 0x00C9 [0x5F] MULTI_HANDLER_COMPLEX(mode=0x07 - Wait scheduler task (OpCode 0x53))
 27: 0x00D7 [0x23] WAIT_FOR_DIALOG_INTERACTION
 28: 0x00D8 [0x06] Work_Zone[1] = 0
 29: 0x00DB [0x21] END_EVENT

SUBROUTINE_01C9:
 30: 0x01C9 [0x5F] MULTI_HANDLER_COMPLEX(mode=0x05 - Load ext scheduler with flag (OpCode 0x5B mode 0, flag 1), ref=1298*, entity1=EventEntity, entity2=EventEntity, string="ase0", extra=120*)
 31: 0x01DB [0x2B] Mastan (ID: 17826059/0x0110010B) [11707*]:
    → "Urk--!?"
 32: 0x01E2 [0x23] WAIT_FOR_DIALOG_INTERACTION
 33: 0x01E3 [0x2B] Mastan (ID: 17826059/0x0110010B) [11708*]:
    → "Th-that's Melvien?"
 34: 0x01EA [0x5F] MULTI_HANDLER_COMPLEX(mode=0x07 - Wait scheduler task (OpCode 0x53))
 35: 0x01F8 [0x23] WAIT_FOR_DIALOG_INTERACTION
 36: 0x01F9 [0x5F] MULTI_HANDLER_COMPLEX(mode=0x05 - Load ext scheduler with flag (OpCode 0x5B mode 0, flag 1), ref=1298*, entity1=EventEntity, entity2=EventEntity, string="ase1", extra=120*)
 37: 0x020B [0x5F] MULTI_HANDLER_COMPLEX(mode=0x07 - Wait scheduler task (OpCode 0x53))
 38: 0x0219 [0x4B] UPDATE_ENTITY_YAW(entity=Mastan (ID: 17826059/0x0110010B), yaw=5.6°*)
 39: 0x0220 [0x6F] WAIT_FRAME_DELAY: Yield until WaitTime reaches zero
 40: 0x0221 [0x76] CHECK_ENTITY_RENDER_FLAGS: Wait until Mastan (ID: 17826059/0x0110010B) Render.Flags0 and Render.Flags3 conditions are met
 41: 0x0226 [0x5F] MULTI_HANDLER_COMPLEX(mode=0x06 - Load ext scheduler with flag (OpCode 0x5B mode 1, flag 1), ref=3*, entity1=EventEntity, entity2=EventEntity, string="sdo0", extra=120*)
 42: 0x0238 [0x2B] Mastan (ID: 17826059/0x0110010B) [11709*]:
    → "Oh, the poor lad..."
 43: 0x023F [0x5F] MULTI_HANDLER_COMPLEX(mode=0x07 - Wait scheduler task (OpCode 0x53))
 44: 0x024D [0x45] LOAD_SCHEDULED_TASK: Load scheduler "fdo1" with entities [LocalPlayer, LocalPlayer], work=[200*, 0*]
 45: 0x025E [0x55] WAIT_LOAD_SCHEDULER: Wait for scheduler "fdo1" with entities [LocalPlayer, LocalPlayer], work=200*
 46: 0x026D [0x23] WAIT_FOR_DIALOG_INTERACTION
 47: 0x026E [0x1C] WAIT(60* ticks)
 48: 0x0271 [0x48] [System] [8305*]:
    → "@@"
 49: 0x0274 [0x23] WAIT_FOR_DIALOG_INTERACTION
 50: 0x0275 [0x1C] WAIT(45* ticks)
 51: 0x0278 [0x5F] MULTI_HANDLER_COMPLEX(mode=0x06 - Load ext scheduler with flag (OpCode 0x5B mode 1, flag 1), ref=3*, entity1=EventEntity, entity2=EventEntity, string="sdo1", extra=120*)
 52: 0x028A [0x45] LOAD_SCHEDULED_TASK: Load scheduler "fdi1" with entities [LocalPlayer, LocalPlayer], work=[200*, 0*]
 53: 0x029B [0x55] WAIT_LOAD_SCHEDULER: Wait for scheduler "fdi1" with entities [LocalPlayer, LocalPlayer], work=200*
 54: 0x02AA [0x5F] MULTI_HANDLER_COMPLEX(mode=0x07 - Wait scheduler task (OpCode 0x53))
 55: 0x02B8 [0x2B] Mastan (ID: 17826059/0x0110010B) [11710*]:
    → "...No. A grown man should never be moved to tears."
 56: 0x02BF [0x1C] WAIT(60* ticks)
 57: 0x02C2 [0x23] WAIT_FOR_DIALOG_INTERACTION
 58: 0x02C3 [0x4A] Mastan (ID: 17826059/0x0110010B) looks at LocalPlayer
 59: 0x02CC [0x6F] WAIT_FRAME_DELAY: Yield until WaitTime reaches zero
 60: 0x02CD [0x76] CHECK_ENTITY_RENDER_FLAGS: Wait until Mastan (ID: 17826059/0x0110010B) Render.Flags0 and Render.Flags3 conditions are met
 61: 0x02D2 [0x2B] Mastan (ID: 17826059/0x0110010B) [11711*]:
    → "Fine. I will share with you what happened that day."
 62: 0x02D9 [0x23] WAIT_FOR_DIALOG_INTERACTION
 63: 0x02DA [0x5F] MULTI_HANDLER_COMPLEX(mode=0x06 - Load ext scheduler with flag (OpCode 0x5B mode 1, flag 1), ref=0*, entity1=EventEntity, entity2=EventEntity, string="tlk0", extra=120*)
 64: 0x02EC [0x2B] Mastan (ID: 17826059/0x0110010B) [11712*]:
    → "It was not just Melvien and Souffriand who ventured out. It was a unit headed by Reginald and his honor guard."
 65: 0x02F3 [0x23] WAIT_FOR_DIALOG_INTERACTION
 66: 0x02F4 [0x2B] Mastan (ID: 17826059/0x0110010B) [11713*]:
    → "The two were accompanying them, not the other way around."
 67: 0x02FB [0x23] WAIT_FOR_DIALOG_INTERACTION
 68: 0x02FC [0x2B] Mastan (ID: 17826059/0x0110010B) [11714*]:
    → "Still, it was a small regiment, numbering a half dozen, including two of the city's most decorated soldiers. As the junior of the group, my "glorious" duties included hauling supplies and shining boots."
 69: 0x0303 [0x5F] MULTI_HANDLER_COMPLEX(mode=0x07 - Wait scheduler task (OpCode 0x53))
 70: 0x0311 [0x23] WAIT_FOR_DIALOG_INTERACTION
 71: 0x0312 [0x5F] MULTI_HANDLER_COMPLEX(mode=0x06 - Load ext scheduler with flag (OpCode 0x5B mode 1, flag 1), ref=0*, entity1=EventEntity, entity2=EventEntity, string="ten0", extra=120*)
 72: 0x0324 [0x2B] Mastan (ID: 17826059/0x0110010B) [11715*]:
    → "The incident occurred as we were conducting a survey in Marjami Ravine, just across the border from Yorcia Weald."
 73: 0x032B [0x5F] MULTI_HANDLER_COMPLEX(mode=0x07 - Wait scheduler task (OpCode 0x53))
 74: 0x0339 [0x23] WAIT_FOR_DIALOG_INTERACTION
 75: 0x033A [0x5F] MULTI_HANDLER_COMPLEX(mode=0x06 - Load ext scheduler with flag (OpCode 0x5B mode 1, flag 1), ref=2*, entity1=EventEntity, entity2=EventEntity, string="tld0", extra=120*)
 76: 0x034C [0x2B] Mastan (ID: 17826059/0x0110010B) [11716*]:
    → "Despite the sky being as blue as the Senroh Sea, a forked bolt of lightning split the sky, striking Souffriand and Melvien each on the head."
 77: 0x0353 [0x23] WAIT_FOR_DIALOG_INTERACTION
 78: 0x0354 [0x2B] Mastan (ID: 17826059/0x0110010B) [11717*]:
    → "The two leaders were injured in the ensuing shockwave, driving the team into a confused frenzy."
 79: 0x035B [0x5F] MULTI_HANDLER_COMPLEX(mode=0x07 - Wait scheduler task (OpCode 0x53))
 80: 0x0369 [0x23] WAIT_FOR_DIALOG_INTERACTION
 81: 0x036A [0x5F] MULTI_HANDLER_COMPLEX(mode=0x06 - Load ext scheduler with flag (OpCode 0x5B mode 1, flag 1), ref=2*, entity1=EventEntity, entity2=EventEntity, string="tld1", extra=120*)
 82: 0x037C [0x2B] Mastan (ID: 17826059/0x0110010B) [11718*]:
    → "I would scarce believe that such a phenomenon could happen in a cloudless sky were I not there myself."
 83: 0x0383 [0x23] WAIT_FOR_DIALOG_INTERACTION
 84: 0x0384 [0x2B] Mastan (ID: 17826059/0x0110010B) [11719*]:
    → "Talk about hearts stopping is oft hyperbolic, but Melvien and Souffriand suffered exactly that. The entourage was wrapped in despair."
 85: 0x038B [0x5F] MULTI_HANDLER_COMPLEX(mode=0x07 - Wait scheduler task (OpCode 0x53))
 86: 0x0399 [0x23] WAIT_FOR_DIALOG_INTERACTION
 87: 0x039A [0x5F] MULTI_HANDLER_COMPLEX(mode=0x06 - Load ext scheduler with flag (OpCode 0x5B mode 1, flag 1), ref=2*, entity1=EventEntity, entity2=EventEntity, string="thb1", extra=120*)
 88: 0x03AC [0x2B] Mastan (ID: 17826059/0x0110010B) [11720*]:
    → "What choice did we have but to teleport back to town with the four victims?"
 89: 0x03B3 [0x23] WAIT_FOR_DIALOG_INTERACTION
 90: 0x03B4 [0x2B] Mastan (ID: 17826059/0x0110010B) [11721*]:
    → "As soon as we returned, I hurried to the Order of Janniston and banged on the door."
 91: 0x03BB [0x23] WAIT_FOR_DIALOG_INTERACTION
 92: 0x03BC [0x2B] Mastan (ID: 17826059/0x0110010B) [11722*]:
    → "White mages were dispatched posthaste, but my two superiors...did not make it."
 93: 0x03C3 [0x5F] MULTI_HANDLER_COMPLEX(mode=0x07 - Wait scheduler task (OpCode 0x53))
 94: 0x03D1 [0x23] WAIT_FOR_DIALOG_INTERACTION
 95: 0x03D2 [0x5F] MULTI_HANDLER_COMPLEX(mode=0x06 - Load ext scheduler with flag (OpCode 0x5B mode 1, flag 1), ref=2*, entity1=EventEntity, entity2=EventEntity, string="thb2", extra=120*)
 96: 0x03E4 [0x2B] Mastan (ID: 17826059/0x0110010B) [11723*]:
    → "Souffriand did not even make it that far."
 97: 0x03EB [0x5F] MULTI_HANDLER_COMPLEX(mode=0x07 - Wait scheduler task (OpCode 0x53))
 98: 0x03F9 [0x23] WAIT_FOR_DIALOG_INTERACTION
 99: 0x03FA [0x5F] MULTI_HANDLER_COMPLEX(mode=0x06 - Load ext scheduler with flag (OpCode 0x5B mode 1, flag 1), ref=0*, entity1=EventEntity, entity2=EventEntity, string="tlk0", extra=120*)
100: 0x040C [0x2B] Mastan (ID: 17826059/0x0110010B) [11724*]:
    → "Melvien, however, made a miraculous recovery."
101: 0x0413 [0x23] WAIT_FOR_DIALOG_INTERACTION
102: 0x0414 [0x2B] Mastan (ID: 17826059/0x0110010B) [11725*]:
    → "It was the sole point of light in a darkened sky."
103: 0x041B [0x5F] MULTI_HANDLER_COMPLEX(mode=0x07 - Wait scheduler task (OpCode 0x53))
104: 0x0429 [0x23] WAIT_FOR_DIALOG_INTERACTION
105: 0x042A [0x5F] MULTI_HANDLER_COMPLEX(mode=0x06 - Load ext scheduler with flag (OpCode 0x5B mode 1, flag 1), ref=0*, entity1=EventEntity, entity2=EventEntity, string="ten0", extra=120*)
106: 0x043C [0x2B] Mastan (ID: 17826059/0x0110010B) [11726*]:
    → "There is nothing left to tell. Do you believe me to tell the truth, or do you doubt like so many before you?"
107: 0x0443 [0x5F] MULTI_HANDLER_COMPLEX(mode=0x07 - Wait scheduler task (OpCode 0x53))
108: 0x0451 [0x23] WAIT_FOR_DIALOG_INTERACTION
109: 0x0452 [0x24] CREATE_DIALOG(message_id=11727*, default_option=0*, option_flags=0*)
    → "What do you think? [I believe you./You've got to be joking.]"
110: 0x0459 [0x25] WAIT_DIALOG_SELECT()
111: 0x045A [0x02] IF !(Work_Zone[0] == 0*) GOTO 0x046D
112: 0x0462 [0x2B] Mastan (ID: 17826059/0x0110010B) [11728*]:
    → "I know not whether your words are fair or farce, but I thank you nonetheless. None would even go so far as to feign belief."
113: 0x0469 [0x23] WAIT_FOR_DIALOG_INTERACTION
114: 0x046A [0x01] GOTO 0x04A0
115: 0x046D [0x02] IF !(Work_Zone[0] == 1*) GOTO 0x04A0
116: 0x0475 [0x5F] MULTI_HANDLER_COMPLEX(mode=0x06 - Load ext scheduler with flag (OpCode 0x5B mode 1, flag 1), ref=0*, entity1=EventEntity, entity2=EventEntity, string="dis0", extra=130*)
117: 0x0487 [0x2B] Mastan (ID: 17826059/0x0110010B) [11729*]:
    → "Hahaha... Of course you don't. It goes against all the laws of nature. ...Forget I said anything."
118: 0x048E [0x5F] MULTI_HANDLER_COMPLEX(mode=0x07 - Wait scheduler task (OpCode 0x53))
119: 0x049C [0x23] WAIT_FOR_DIALOG_INTERACTION
120: 0x049D [0x01] GOTO 0x04A0

SUBROUTINE_04A0:
121: 0x04A0 [0x05] Work_Zone[1] = 1
122: 0x04A3 [0x21] END_EVENT
123: 0x04A4 [0x00] END_REQSTACK()
```

#### Data or dead code:

```
# Dead code (unreachable instructions):
     0x00DC [0x01] GOTO 0x01C9
     0x0161 [0x01] GOTO 0x01C9
     0x0190 [0x01] GOTO 0x01C9
```
