# 17826057 - Vaulois

## Common Data

| Field            | Value                     |
|------------------|---------------------------|
| Zone             | Western Adoulin (ID: 256) |
| Block Size       | 556 bytes                 |
| Total Events     | 18                        |
| References Count | 37                        |

## List of Events

| Event ID                 | Entrypoint   |   Size |   Instructions |
|--------------------------|--------------|--------|----------------|
| [65535](#event-65535)    | 0x0000       |      1 |              1 |
| [520](#event-520)        | 0x0001       |     47 |             11 |
| [2](#event-2)            | 0x0030       |      1 |              1 |
| [65535.1](#event-655351) | 0x0031       |     15 |              5 |
| [65535.2](#event-655352) | 0x0040       |     15 |              5 |
| [65535.3](#event-655353) | 0x004F       |     15 |              5 |
| [65535.4](#event-655354) | 0x005E       |     15 |              5 |
| [65535.5](#event-655355) | 0x006D       |     15 |              5 |
| [65535.6](#event-655356) | 0x007C       |     24 |              3 |
| [65535.7](#event-655357) | 0x0094       |     24 |              3 |
| [2590](#event-2590)      | 0x00AC       |     61 |             19 |
| [2591](#event-2591)      | 0x00E9       |     78 |             20 |
| [89](#event-89)          | 0x0137       |      1 |              1 |
| [93](#event-93)          | 0x0138       |      1 |              1 |
| [94](#event-94)          | 0x0139       |      1 |              1 |
| [95](#event-95)          | 0x013A       |      1 |              1 |
| [96](#event-96)          | 0x013B       |      1 |              1 |
| [97](#event-97)          | 0x013C       |      1 |              1 |

## DAT References (imed_data)

|   Index | Hex Value   |   Dec Value |
|---------|-------------|-------------|
|       0 | 0x0014      |          20 |
|       1 | 0x2665      |        9829 |
|       2 | 0x2666      |        9830 |
|       3 | 0x0028      |          40 |
|       4 | 0xF792      |       63378 |
|       5 | 0x220AE     |      139438 |
|       6 | 0x7CFF      |       31999 |
|       7 | 0x51C98     |      335000 |
|       8 | 0xFFFF9688  |  4294940296 |
|       9 | 0x0F9F      |        3999 |
|      10 | 0xFFFDB610  |  4294817296 |
|      11 | 0xFFFF9E58  |  4294942296 |
|      12 | 0x000D      |          13 |
|      13 | 0xFFFE7960  |  4294867296 |
|      14 | 0xFFFFC950  |  4294953296 |
|      15 | 0xFFFD40E0  |  4294787296 |
|      16 | 0xFFFFC180  |  4294951296 |
|      17 | 0x0001      |           1 |
|      18 | 0x0008      |           8 |
|      19 | 0x0000      |           0 |
|      20 | 0x0007      |           7 |
|      21 | 0x0003      |           3 |
|      22 | 0x0018      |          24 |
|      23 | 0x0031      |          49 |
|      24 | 0x00AB      |         171 |
|      25 | 0x0063      |          99 |
|      26 | 0x1F3A      |        7994 |
|      27 | 0x1F3B      |        7995 |
|      28 | 0x1F3C      |        7996 |
|      29 | 0x1F3D      |        7997 |
|      30 | 0x1F3E      |        7998 |
|      31 | 0x1F44      |        8004 |
|      32 | 0x1F45      |        8005 |
|      33 | 0x1F46      |        8006 |
|      34 | 0x1F47      |        8007 |
|      35 | 0x1F48      |        8008 |
|      36 | 0x00C9      |         201 |

## String References

- **7994**: What excellent timing! I am loath to impose, but I require your assistance.
- **7995**: It is such a blight on my spotless record that I hesitate to even explain why I must seek your aid...but it is inevitable.
- **7996**: I...I did not exercise the appropriate amount of caution, and we have received the wrong supplies.
- **7997**: The item in question still remains in my possession, but I have not the time to rectify this error myself. Would you be so kind as to deliver it to the warehouse at the Adoulin Waterfront for me?
- **7998**: Passing it off to the supervisor there will be sufficient. It is his job to transport it to the assigned location.
- **8004**: I have been informed that the package made it to its destination safely. Thank you so much.
- **8005**: I know full well that such mistakes are a common occurrence, but I cannot help but feel the crushing weight of failure upon my shoulders whenever confronted with such situations. The saving grace of it all is that nothing happened to the package.
- **8006**: From now on, I pledge to be even more involved in the supervision of Couriers' Coalition members.
- **8007**: My apologies. I have already squandered so much of your precious time. I shall waste no more with trivial banter.
- **8008**: Fare thee well, pioneer.
- **9829**: [Sir/Madame], know you of the Couriers' Coalition? We supervise the domestic transport and inspection of all provisions in a very thorough manner, if I do say so myself.
- **9830**: I must admit, however, that the impeccable work ethic exhibited by most of our members stems not from passion, but from fear of retribution from the Order of Woltaris.

## Events

### Event 65535

#### Metadata

| Field        | Value   |
|--------------|---------|
| Entrypoint   | 0x0000  |
| Data Size    | 1 bytes |
| Instructions | 1       |

```
      00 01 02 03 04 05 06 07  08 09 0A 0B 0C 0D 0E 0F
      -- -- -- -- -- -- -- --  -- -- -- -- -- -- -- --
0000: 00                                                .               
```

#### Opcodes

```
  0: 0x0000 [0x00] END_REQSTACK()
```

### Event 520

#### Metadata

| Field        | Value    |
|--------------|----------|
| Entrypoint   | 0x0001   |
| Data Size    | 47 bytes |
| Instructions | 11       |

```
      00 01 02 03 04 05 06 07  08 09 0A 0B 0C 0D 0E 0F
      -- -- -- -- -- -- -- --  -- -- -- -- -- -- -- --
0000:    1E F0 FF FF 7F 6F 70  66 00 80 F8 FF FF 7F F8   .....opf.......
0010: FF FF 7F 74 6C 6B 30 1D  01 80 23 1D 02 80 23 66  ...tlk0...#...#f
0020: 00 80 F8 FF FF 7F F8 FF  FF 7F 74 6C 6B 31 21 00  ..........tlk1!.
```

#### Opcodes

```
  0: 0x0001 [0x1E] EventEntity looks at LocalPlayer and starts talking
  1: 0x0006 [0x6F] WAIT_FRAME_DELAY: Yield until WaitTime reaches zero
  2: 0x0007 [0x70] WAIT_ENTITY_RENDER_FLAG: Wait while EventEntity->Render.Flags3 bit 2 is set (cancel turn if not)
  3: 0x0008 [0x66] LOAD_EXT_SCHEDULER_MAIN: Load scheduler "tlk0" with entities [EventEntity, EventEntity], work=20*
  4: 0x0017 [0x1D] PRINT_EVENT_MESSAGE(message_id=9829*)
    → "[Sir/Madame], know you of the Couriers' Coalition? We supervise the domestic transport and inspection of all provisions in a very thorough manner, if I do say so myself."
  5: 0x001A [0x23] WAIT_FOR_DIALOG_INTERACTION
  6: 0x001B [0x1D] PRINT_EVENT_MESSAGE(message_id=9830*)
    → "I must admit, however, that the impeccable work ethic exhibited by most of our members stems not from passion, but from fear of retribution from the Order of Woltaris."
  7: 0x001E [0x23] WAIT_FOR_DIALOG_INTERACTION
  8: 0x001F [0x66] LOAD_EXT_SCHEDULER_MAIN: Load scheduler "tlk1" with entities [EventEntity, EventEntity], work=20*
  9: 0x002E [0x21] END_EVENT
 10: 0x002F [0x00] END_REQSTACK()
```

### Event 2

#### Metadata

| Field        | Value   |
|--------------|---------|
| Entrypoint   | 0x0030  |
| Data Size    | 1 bytes |
| Instructions | 1       |

```
      00 01 02 03 04 05 06 07  08 09 0A 0B 0C 0D 0E 0F
      -- -- -- -- -- -- -- --  -- -- -- -- -- -- -- --
0030: 00                                                .               
```

#### Opcodes

```
  0: 0x0030 [0x00] END_REQSTACK()
```

### Event 65535.1

#### Metadata

| Field        | Value    |
|--------------|----------|
| Entrypoint   | 0x0031   |
| Data Size    | 15 bytes |
| Instructions | 5        |

```
      00 01 02 03 04 05 06 07  08 09 0A 0B 0C 0D 0E 0F
      -- -- -- -- -- -- -- --  -- -- -- -- -- -- -- --
0030:    32 03 80 1F 00 04 80  05 80 06 80 1F 01 6F 00   2............o.
```

#### Opcodes

```
  0: 0x0031 [0x32] ExtData[1]->MainSpeed = 40* * 0.1
  1: 0x0034 [0x1F] MOVE_ENTITY: EventEntity moves to X=63.378*, Z=139.438*, Y=31.999*
  2: 0x003C [0x1F] MOVE_ENTITY: Update entity position (mode=1)
  3: 0x003E [0x6F] WAIT_FRAME_DELAY: Yield until WaitTime reaches zero
  4: 0x003F [0x00] END_REQSTACK()
```

### Event 65535.2

#### Metadata

| Field        | Value    |
|--------------|----------|
| Entrypoint   | 0x0040   |
| Data Size    | 15 bytes |
| Instructions | 5        |

```
      00 01 02 03 04 05 06 07  08 09 0A 0B 0C 0D 0E 0F
      -- -- -- -- -- -- -- --  -- -- -- -- -- -- -- --
0040: 32 03 80 1F 00 07 80 08  80 09 80 1F 01 6F 00     2............o. 
```

#### Opcodes

```
  0: 0x0040 [0x32] ExtData[1]->MainSpeed = 40* * 0.1
  1: 0x0043 [0x1F] MOVE_ENTITY: EventEntity moves to X=335.000*, Z=-27.000*, Y=3.999*
  2: 0x004B [0x1F] MOVE_ENTITY: Update entity position (mode=1)
  3: 0x004D [0x6F] WAIT_FRAME_DELAY: Yield until WaitTime reaches zero
  4: 0x004E [0x00] END_REQSTACK()
```

### Event 65535.3

#### Metadata

| Field        | Value    |
|--------------|----------|
| Entrypoint   | 0x004F   |
| Data Size    | 15 bytes |
| Instructions | 5        |

```
      00 01 02 03 04 05 06 07  08 09 0A 0B 0C 0D 0E 0F
      -- -- -- -- -- -- -- --  -- -- -- -- -- -- -- --
0040:                                               32                 2
0050: 03 80 1F 00 0A 80 0B 80  09 80 1F 01 6F 00        ............o.  
```

#### Opcodes

```
  0: 0x004F [0x32] ExtData[1]->MainSpeed = 40* * 0.1
  1: 0x0052 [0x1F] MOVE_ENTITY: EventEntity moves to X=-150.000*, Z=-25.000*, Y=3.999*
  2: 0x005A [0x1F] MOVE_ENTITY: Update entity position (mode=1)
  3: 0x005C [0x6F] WAIT_FRAME_DELAY: Yield until WaitTime reaches zero
  4: 0x005D [0x00] END_REQSTACK()
```

### Event 65535.4

#### Metadata

| Field        | Value    |
|--------------|----------|
| Entrypoint   | 0x005E   |
| Data Size    | 15 bytes |
| Instructions | 5        |

```
      00 01 02 03 04 05 06 07  08 09 0A 0B 0C 0D 0E 0F
      -- -- -- -- -- -- -- --  -- -- -- -- -- -- -- --
0050:                                            32 0C                2.
0060: 80 1F 00 0D 80 0E 80 09  80 1F 01 6F 00           ...........o.   
```

#### Opcodes

```
  0: 0x005E [0x32] ExtData[1]->MainSpeed = 13* * 0.1
  1: 0x0061 [0x1F] MOVE_ENTITY: EventEntity moves to X=-100.000*, Z=-14.000*, Y=3.999*
  2: 0x0069 [0x1F] MOVE_ENTITY: Update entity position (mode=1)
  3: 0x006B [0x6F] WAIT_FRAME_DELAY: Yield until WaitTime reaches zero
  4: 0x006C [0x00] END_REQSTACK()
```

### Event 65535.5

#### Metadata

| Field        | Value    |
|--------------|----------|
| Entrypoint   | 0x006D   |
| Data Size    | 15 bytes |
| Instructions | 5        |

```
      00 01 02 03 04 05 06 07  08 09 0A 0B 0C 0D 0E 0F
      -- -- -- -- -- -- -- --  -- -- -- -- -- -- -- --
0060:                                         32 0C 80               2..
0070: 1F 00 0F 80 10 80 09 80  1F 01 6F 00              ..........o.    
```

#### Opcodes

```
  0: 0x006D [0x32] ExtData[1]->MainSpeed = 13* * 0.1
  1: 0x0070 [0x1F] MOVE_ENTITY: EventEntity moves to X=-180.000*, Z=-16.000*, Y=3.999*
  2: 0x0078 [0x1F] MOVE_ENTITY: Update entity position (mode=1)
  3: 0x007A [0x6F] WAIT_FRAME_DELAY: Yield until WaitTime reaches zero
  4: 0x007B [0x00] END_REQSTACK()
```

### Event 65535.6

#### Metadata

| Field        | Value    |
|--------------|----------|
| Entrypoint   | 0x007C   |
| Data Size    | 24 bytes |
| Instructions | 3        |

```
      00 01 02 03 04 05 06 07  08 09 0A 0B 0C 0D 0E 0F
      -- -- -- -- -- -- -- --  -- -- -- -- -- -- -- --
0070:                                      B6 0B 11 80              ....
0080: 12 80 13 80 14 80 14 80  14 80 14 80 13 80 13 80  ................
0090: C0 11 80 00                                       ....            
```

#### Opcodes

```
  0: 0x007C [0xB6] ENTITY_APPEARANCE_HANDLER(case=Full entity look, race=1*, hair=8*, head=0*, body=7*, hands=7*, legs=7*, feet=7*, main=0*, sub=0*)
  1: 0x0090 [0xC0] EventEntity->Render.Flags3 |= 0x1000 // Set bit 12 (from 1*)
  2: 0x0093 [0x00] END_REQSTACK()
```

### Event 65535.7

#### Metadata

| Field        | Value    |
|--------------|----------|
| Entrypoint   | 0x0094   |
| Data Size    | 24 bytes |
| Instructions | 3        |

```
      00 01 02 03 04 05 06 07  08 09 0A 0B 0C 0D 0E 0F
      -- -- -- -- -- -- -- --  -- -- -- -- -- -- -- --
0090:             B6 0B 15 80  13 80 16 80 17 80 13 80      ............
00A0: 18 80 19 80 13 80 13 80  C0 11 80 00              ............    
```

#### Opcodes

```
  0: 0x0094 [0xB6] ENTITY_APPEARANCE_HANDLER(case=Full entity look, race=3*, hair=0*, head=24*, body=49*, hands=0*, legs=171*, feet=99*, main=0*, sub=0*)
  1: 0x00A8 [0xC0] EventEntity->Render.Flags3 |= 0x1000 // Set bit 12 (from 1*)
  2: 0x00AB [0x00] END_REQSTACK()
```

### Event 2590

#### Metadata

| Field        | Value    |
|--------------|----------|
| Entrypoint   | 0x00AC   |
| Data Size    | 61 bytes |
| Instructions | 19       |

```
      00 01 02 03 04 05 06 07  08 09 0A 0B 0C 0D 0E 0F
      -- -- -- -- -- -- -- --  -- -- -- -- -- -- -- --
00A0:                                      1E F0 FF FF              ....
00B0: 7F 42 6F 70 66 00 80 F8  FF FF 7F F8 FF FF 7F 74  .Bopf..........t
00C0: 6C 6B 30 1D 1A 80 23 1D  1B 80 23 1D 1C 80 23 1D  lk0...#...#...#.
00D0: 1D 80 23 1D 1E 80 23 66  00 80 F8 FF FF 7F F8 FF  ..#...#f........
00E0: FF 7F 74 6C 6B 31 2E 21  00                       ..tlk1.!.       
```

#### Opcodes

```
  0: 0x00AC [0x1E] EventEntity looks at LocalPlayer and starts talking
  1: 0x00B1 [0x42] SET_CLI_EVENT_CANCEL_DATA()
  2: 0x00B2 [0x6F] WAIT_FRAME_DELAY: Yield until WaitTime reaches zero
  3: 0x00B3 [0x70] WAIT_ENTITY_RENDER_FLAG: Wait while EventEntity->Render.Flags3 bit 2 is set (cancel turn if not)
  4: 0x00B4 [0x66] LOAD_EXT_SCHEDULER_MAIN: Load scheduler "tlk0" with entities [EventEntity, EventEntity], work=20*
  5: 0x00C3 [0x1D] PRINT_EVENT_MESSAGE(message_id=7994*)
    → "What excellent timing! I am loath to impose, but I require your assistance."
  6: 0x00C6 [0x23] WAIT_FOR_DIALOG_INTERACTION
  7: 0x00C7 [0x1D] PRINT_EVENT_MESSAGE(message_id=7995*)
    → "It is such a blight on my spotless record that I hesitate to even explain why I must seek your aid...but it is inevitable."
  8: 0x00CA [0x23] WAIT_FOR_DIALOG_INTERACTION
  9: 0x00CB [0x1D] PRINT_EVENT_MESSAGE(message_id=7996*)
    → "I...I did not exercise the appropriate amount of caution, and we have received the wrong supplies."
 10: 0x00CE [0x23] WAIT_FOR_DIALOG_INTERACTION
 11: 0x00CF [0x1D] PRINT_EVENT_MESSAGE(message_id=7997*)
    → "The item in question still remains in my possession, but I have not the time to rectify this error myself. Would you be so kind as to deliver it to the warehouse at the Adoulin Waterfront for me?"
 12: 0x00D2 [0x23] WAIT_FOR_DIALOG_INTERACTION
 13: 0x00D3 [0x1D] PRINT_EVENT_MESSAGE(message_id=7998*)
    → "Passing it off to the supervisor there will be sufficient. It is his job to transport it to the assigned location."
 14: 0x00D6 [0x23] WAIT_FOR_DIALOG_INTERACTION
 15: 0x00D7 [0x66] LOAD_EXT_SCHEDULER_MAIN: Load scheduler "tlk1" with entities [EventEntity, EventEntity], work=20*
 16: 0x00E6 [0x2E] SET_CLI_EVENT_CANCEL_FLAGS()
 17: 0x00E7 [0x21] END_EVENT
 18: 0x00E8 [0x00] END_REQSTACK()
```

### Event 2591

#### Metadata

| Field        | Value    |
|--------------|----------|
| Entrypoint   | 0x00E9   |
| Data Size    | 78 bytes |
| Instructions | 20       |

```
      00 01 02 03 04 05 06 07  08 09 0A 0B 0C 0D 0E 0F
      -- -- -- -- -- -- -- --  -- -- -- -- -- -- -- --
00E0:                             1E F0 FF FF 7F 42 6F           .....Bo
00F0: 70 66 00 80 F8 FF FF 7F  F8 FF FF 7F 74 6C 6B 30  pf..........tlk0
0100: 1D 1F 80 23 1D 20 80 23  1D 21 80 23 1D 22 80 23  ...#. .#.!.#.".#
0110: 1D 23 80 23 45 24 80 F8  FF FF 7F F8 FF FF 7F 71  .#.#E$.........q
0120: 73 74 63 13 80 66 00 80  F8 FF FF 7F F8 FF FF 7F  stc..f..........
0130: 74 6C 6B 31 2E 21 00                              tlk1.!.         
```

#### Opcodes

```
  0: 0x00E9 [0x1E] EventEntity looks at LocalPlayer and starts talking
  1: 0x00EE [0x42] SET_CLI_EVENT_CANCEL_DATA()
  2: 0x00EF [0x6F] WAIT_FRAME_DELAY: Yield until WaitTime reaches zero
  3: 0x00F0 [0x70] WAIT_ENTITY_RENDER_FLAG: Wait while EventEntity->Render.Flags3 bit 2 is set (cancel turn if not)
  4: 0x00F1 [0x66] LOAD_EXT_SCHEDULER_MAIN: Load scheduler "tlk0" with entities [EventEntity, EventEntity], work=20*
  5: 0x0100 [0x1D] PRINT_EVENT_MESSAGE(message_id=8004*)
    → "I have been informed that the package made it to its destination safely. Thank you so much."
  6: 0x0103 [0x23] WAIT_FOR_DIALOG_INTERACTION
  7: 0x0104 [0x1D] PRINT_EVENT_MESSAGE(message_id=8005*)
    → "I know full well that such mistakes are a common occurrence, but I cannot help but feel the crushing weight of failure upon my shoulders whenever confronted with such situations. The saving grace of it all is that nothing happened to the package."
  8: 0x0107 [0x23] WAIT_FOR_DIALOG_INTERACTION
  9: 0x0108 [0x1D] PRINT_EVENT_MESSAGE(message_id=8006*)
    → "From now on, I pledge to be even more involved in the supervision of Couriers' Coalition members."
 10: 0x010B [0x23] WAIT_FOR_DIALOG_INTERACTION
 11: 0x010C [0x1D] PRINT_EVENT_MESSAGE(message_id=8007*)
    → "My apologies. I have already squandered so much of your precious time. I shall waste no more with trivial banter."
 12: 0x010F [0x23] WAIT_FOR_DIALOG_INTERACTION
 13: 0x0110 [0x1D] PRINT_EVENT_MESSAGE(message_id=8008*)
    → "Fare thee well, pioneer."
 14: 0x0113 [0x23] WAIT_FOR_DIALOG_INTERACTION
 15: 0x0114 [0x45] LOAD_SCHEDULED_TASK: Load scheduler "qstc" with entities [EventEntity, EventEntity], work=[201*, 0*]
 16: 0x0125 [0x66] LOAD_EXT_SCHEDULER_MAIN: Load scheduler "tlk1" with entities [EventEntity, EventEntity], work=20*
 17: 0x0134 [0x2E] SET_CLI_EVENT_CANCEL_FLAGS()
 18: 0x0135 [0x21] END_EVENT
 19: 0x0136 [0x00] END_REQSTACK()
```

### Event 89

#### Metadata

| Field        | Value   |
|--------------|---------|
| Entrypoint   | 0x0137  |
| Data Size    | 1 bytes |
| Instructions | 1       |

```
      00 01 02 03 04 05 06 07  08 09 0A 0B 0C 0D 0E 0F
      -- -- -- -- -- -- -- --  -- -- -- -- -- -- -- --
0130:                      00                                  .        
```

#### Opcodes

```
  0: 0x0137 [0x00] END_REQSTACK()
```

### Event 93

#### Metadata

| Field        | Value   |
|--------------|---------|
| Entrypoint   | 0x0138  |
| Data Size    | 1 bytes |
| Instructions | 1       |

```
      00 01 02 03 04 05 06 07  08 09 0A 0B 0C 0D 0E 0F
      -- -- -- -- -- -- -- --  -- -- -- -- -- -- -- --
0130:                          00                               .       
```

#### Opcodes

```
  0: 0x0138 [0x00] END_REQSTACK()
```

### Event 94

#### Metadata

| Field        | Value   |
|--------------|---------|
| Entrypoint   | 0x0139  |
| Data Size    | 1 bytes |
| Instructions | 1       |

```
      00 01 02 03 04 05 06 07  08 09 0A 0B 0C 0D 0E 0F
      -- -- -- -- -- -- -- --  -- -- -- -- -- -- -- --
0130:                             00                             .      
```

#### Opcodes

```
  0: 0x0139 [0x00] END_REQSTACK()
```

### Event 95

#### Metadata

| Field        | Value   |
|--------------|---------|
| Entrypoint   | 0x013A  |
| Data Size    | 1 bytes |
| Instructions | 1       |

```
      00 01 02 03 04 05 06 07  08 09 0A 0B 0C 0D 0E 0F
      -- -- -- -- -- -- -- --  -- -- -- -- -- -- -- --
0130:                                00                           .     
```

#### Opcodes

```
  0: 0x013A [0x00] END_REQSTACK()
```

### Event 96

#### Metadata

| Field        | Value   |
|--------------|---------|
| Entrypoint   | 0x013B  |
| Data Size    | 1 bytes |
| Instructions | 1       |

```
      00 01 02 03 04 05 06 07  08 09 0A 0B 0C 0D 0E 0F
      -- -- -- -- -- -- -- --  -- -- -- -- -- -- -- --
0130:                                   00                         .    
```

#### Opcodes

```
  0: 0x013B [0x00] END_REQSTACK()
```

### Event 97

#### Metadata

| Field        | Value   |
|--------------|---------|
| Entrypoint   | 0x013C  |
| Data Size    | 1 bytes |
| Instructions | 1       |

```
      00 01 02 03 04 05 06 07  08 09 0A 0B 0C 0D 0E 0F
      -- -- -- -- -- -- -- --  -- -- -- -- -- -- -- --
0130:                                      00                       .   
```

#### Opcodes

```
  0: 0x013C [0x00] END_REQSTACK()
```
