# 17825933

## Common Data

| Field            | Value                     |
|------------------|---------------------------|
| Zone             | Western Adoulin (ID: 256) |
| Block Size       | 65496 bytes               |
| Total Events     | 23                        |
| References Count | 1077                      |

## List of Events

| Event ID              | Entrypoint   |   Size |   Instructions |
|-----------------------|--------------|--------|----------------|
| [65535](#event-65535) | 0x0000       |      1 |              1 |
| [2](#event-2)         | 0x0001       |   5320 |            725 |
| [3](#event-3)         | 0x14C9       |   3226 |            403 |
| [4](#event-4)         | 0x2163       |   1097 |            152 |
| [6](#event-6)         | 0x25AC       |   1721 |            215 |
| [7](#event-7)         | 0x2C65       |    627 |             87 |
| [8](#event-8)         | 0x2ED8       |   3276 |            444 |
| [9](#event-9)         | 0x3BA4       |    658 |             90 |
| [80](#event-80)       | 0x3E36       |    553 |             80 |
| [81](#event-81)       | 0x405F       |    356 |             51 |
| [83](#event-83)       | 0x41C3       |   1297 |            180 |
| [85](#event-85)       | 0x46D4       |    575 |             78 |
| [87](#event-87)       | 0x4913       |   1128 |            137 |
| [129](#event-129)     | 0x4D7B       |   3918 |            458 |
| [130](#event-130)     | 0x5CC9       |   7426 |            910 |
| [131](#event-131)     | 0x79CB       |   1668 |            201 |
| [132](#event-132)     | 0x804F       |   2836 |            347 |
| [133](#event-133)     | 0x8B63       |   1257 |            161 |
| [134](#event-134)     | 0x904C       |  10828 |           1522 |
| [153](#event-153)     | 0xBA98       |   9045 |           1025 |
| [135](#event-135)     | 0xDDED       |   2385 |            287 |
| [137](#event-137)     | 0xE73E       |    627 |             83 |
| [145](#event-145)     | 0xE9B1       |   1253 |            149 |

## DAT References (imed_data)

|   Index | Hex Value   |   Dec Value |
|---------|-------------|-------------|
|       0 | 0x0093      |         147 |
|       1 | 0x00FF      |         255 |
|       2 | 0x0000      |           0 |
|       3 | 0x0001      |           1 |
|       4 | 0x0002      |           2 |
|       5 | 0x19DCA     |      105930 |
|       6 | 0x2441E     |      148510 |
|       7 | 0x7530      |       30000 |
|       8 | 0x01DD      |         477 |
|       9 | 0x19C69     |      105577 |
|      10 | 0x2418B     |      147851 |
|      11 | 0x7531      |       30001 |
|      12 | 0x01BF      |         447 |
|      13 | 0x1CD42     |      118082 |
|      14 | 0x1E6BE     |      124606 |
|      15 | 0x7D00      |       32000 |
|      16 | 0x02B3      |         691 |
|      17 | 0xB8B3      |       47283 |
|      18 | 0x1C4A4     |      115876 |
|      19 | 0x7CFF      |       31999 |
|      20 | 0x0600      |        1536 |
|      21 | 0xB408      |       46088 |
|      22 | 0x1BB7F     |      113535 |
|      23 | 0x0F00      |        3840 |
|      24 | 0xC393      |       50067 |
|      25 | 0x1E7E9     |      124905 |
|      26 | 0x1246C     |       74860 |
|      27 | 0x25826     |      153638 |
|      28 | 0xB83D      |       47165 |
|      29 | 0x1E4FA     |      124154 |
|      30 | 0x03DA      |         986 |
|      31 | 0xB14D      |       45389 |
|      32 | 0x1E191     |      123281 |
|      33 | 0x0E00      |        3584 |
|      34 | 0x2AF80     |      176000 |
|      35 | 0xFFFFE0C0  |  4294959296 |
|      36 | 0x0FA0      |        4000 |
|      37 | 0x0800      |        2048 |
|      38 | 0x9F0A      |       40714 |
|      39 | 0xFFFFE561  |  4294960481 |
|      40 | 0x0700      |        1792 |
|      41 | 0x1F40      |        8000 |
|      42 | 0xFFFF63C0  |  4294927296 |
|      43 | 0x0400      |        1024 |
|      44 | 0x34B3      |       13491 |
|      45 | 0x0807      |        2055 |
|      46 | 0x0100      |         256 |
|      47 | 0xFFFD88A9  |  4294805673 |
|      48 | 0xFFFF99CB  |  4294941131 |
|      49 | 0x0A8B      |        2699 |
|      50 | 0xFFFE1204  |  4294840836 |
|      51 | 0xFFFFA54A  |  4294944074 |
|      52 | 0x0F9F      |        3999 |
|      53 | 0x0030      |          48 |
|      54 | 0x001E      |          30 |
|      55 | 0x003A      |          58 |
|      56 | 0x0050      |          80 |
|      57 | 0x0154      |         340 |
|      58 | 0x20BA      |        8378 |
|      59 | 0x0243      |         579 |
|      60 | 0xCC5F      |       52319 |
|      61 | 0x1E8BB     |      125115 |
|      62 | 0x0034      |          52 |
|      63 | 0x003C      |          60 |
|      64 | 0x0064      |         100 |
|      65 | 0x0014      |          20 |
|      66 | 0x8F03      |       36611 |
|      67 | 0xFFFFE2EC  |  4294959852 |
|      68 | 0x0500      |        1280 |
|      69 | 0xFFFF8E0A  |  4294938122 |
|      70 | 0x18B57     |      101207 |
|      71 | 0x4C70      |       19568 |
|      72 | 0x0FFC      |        4092 |
|      73 | 0x2F3E      |       12094 |
|      74 | 0x1831D     |       99101 |
|      75 | 0x7CF6      |       31990 |
|      76 | 0x07FB      |        2043 |
|      77 | 0x005A      |          90 |
|      78 | 0x000F      |          15 |
|      79 | 0x000A      |          10 |
|      80 | 0x38F3      |       14579 |
|      81 | 0x07B7      |        1975 |
|      82 | 0x0760      |        1888 |
|      83 | 0x4F1C      |       20252 |
|      84 | 0xFFFFE4BD  |  4294960317 |
|      85 | 0x03E8      |        1000 |
|      86 | 0x0A01      |        2561 |
|      87 | 0x51FC8     |      335816 |
|      88 | 0xFFFFAAC9  |  4294945481 |
|      89 | 0x45AF      |       17839 |
|      90 | 0xFFFFD0C7  |  4294955207 |
|      91 | 0x426B      |       17003 |
|      92 | 0x0096      |         150 |
|      93 | 0x3778      |       14200 |
|      94 | 0xFFFFDA6D  |  4294957677 |
|      95 | 0x0C11      |        3089 |
|      96 | 0x0005      |           5 |
|      97 | 0x4766      |       18278 |
|      98 | 0x1192      |        4498 |
|      99 | 0x278D0     |      162000 |
|     100 | 0xFFFFEA84  |  4294961796 |
|     101 | 0x27100     |      160000 |
|     102 | 0xFFFFF060  |  4294963296 |
|     103 | 0x26354     |      156500 |
|     104 | 0xFFFFCD9C  |  4294954396 |
|     105 | 0xFFFFD120  |  4294955296 |
|     106 | 0x25967     |      153959 |
|     107 | 0xFFFFECF3  |  4294962419 |
|     108 | 0x0028      |          40 |
|     109 | 0x47D00     |      294144 |
|     110 | 0xFFFFE32B  |  4294959915 |
|     111 | 0x4778B     |      292747 |
|     112 | 0xFFFFE000  |  4294959104 |
|     113 | 0x3BDC8     |      245192 |
|     114 | 0xFFFFD2A5  |  4294955685 |
|     115 | 0x386B3     |      231091 |
|     116 | 0xFFFFC2B9  |  4294951609 |
|     117 | 0x36056     |      221270 |
|     118 | 0xFFFF9D97  |  4294942103 |
|     119 | 0x012C      |         300 |
|     120 | 0xFFFE60AA  |  4294860970 |
|     121 | 0xFFFFC4BF  |  4294952127 |
|     122 | 0xFFFE5FE2  |  4294860770 |
|     123 | 0xFFFFBFE4  |  4294950884 |
|     124 | 0x0951      |        2385 |
|     125 | 0xFFFE586F  |  4294858863 |
|     126 | 0xFFFFBD81  |  4294950273 |
|     127 | 0x0F84      |        3972 |
|     128 | 0xFFFE5A56  |  4294859350 |
|     129 | 0xFFFFBB09  |  4294949641 |
|     130 | 0x08E9      |        2281 |
|     131 | 0xFFFE15E3  |  4294841827 |
|     132 | 0xFFFFB811  |  4294948881 |
|     133 | 0x0184      |         388 |
|     134 | 0xFFFE0564  |  4294837604 |
|     135 | 0xFFFFBA78  |  4294949496 |
|     136 | 0xFFFE0912  |  4294838546 |
|     137 | 0xFFFFBE75  |  4294950517 |
|     138 | 0x20BE      |        8382 |
|     139 | 0x0013      |          19 |
|     140 | 0xFFFD9F48  |  4294811464 |
|     141 | 0xFFFFA969  |  4294945129 |
|     142 | 0xFFFD98F7  |  4294809847 |
|     143 | 0xFFFF8BE0  |  4294937568 |
|     144 | 0xFFFDD50F  |  4294825231 |
|     145 | 0xFFFF76EC  |  4294932204 |
|     146 | 0x0F0B      |        3851 |
|     147 | 0x0620      |        1568 |
|     148 | 0xFFFDCEB6  |  4294823606 |
|     149 | 0xFFFF7724  |  4294932260 |
|     150 | 0x0E41      |        3649 |
|     151 | 0xFFFDA89A  |  4294813850 |
|     152 | 0xFFFFA9A4  |  4294945188 |
|     153 | 0x0DB1      |        3505 |
|     154 | 0xFFFE115C  |  4294840668 |
|     155 | 0xFFFF9940  |  4294940992 |
|     156 | 0x2071      |        8305 |
|     157 | 0x003B      |          59 |
|     158 | 0x00B4      |         180 |
|     159 | 0x008D      |         141 |
|     160 | 0x0078      |         120 |
|     161 | 0xFFFE0983  |  4294838659 |
|     162 | 0xFFFFA4A3  |  4294943907 |
|     163 | 0x0FCA      |        4042 |
|     164 | 0x0C82      |        3202 |
|     165 | 0x00A0      |         160 |
|     166 | 0x20A9      |        8361 |
|     167 | 0xFFFE3780  |  4294850432 |
|     168 | 0xFFFFAE7F  |  4294946431 |
|     169 | 0x0E2E      |        3630 |
|     170 | 0xFFFE5837  |  4294858807 |
|     171 | 0xFFFFBD2D  |  4294950189 |
|     172 | 0x0750      |        1872 |
|     173 | 0xFFFE8707  |  4294870791 |
|     174 | 0xFFFFD3CC  |  4294955980 |
|     175 | 0x03A7      |         935 |
|     176 | 0xFFFF5614  |  4294923796 |
|     177 | 0xFFFFA240  |  4294943296 |
|     178 | 0x015E      |         350 |
|     179 | 0x20AA      |        8362 |
|     180 | 0x004B      |          75 |
|     181 | 0x0090      |         144 |
|     182 | 0x20AB      |        8363 |
|     183 | 0x006E      |         110 |
|     184 | 0x20AC      |        8364 |
|     185 | 0x20AD      |        8365 |
|     186 | 0x20AE      |        8366 |
|     187 | 0x20AF      |        8367 |
|     188 | 0xFFFEB451  |  4294882385 |
|     189 | 0xFFFFC54E  |  4294952270 |
|     190 | 0x0813      |        2067 |
|     191 | 0x00DC      |         220 |
|     192 | 0x20B0      |        8368 |
|     193 | 0x20B1      |        8369 |
|     194 | 0xFFFE611B  |  4294861083 |
|     195 | 0xFFFFC527  |  4294952231 |
|     196 | 0x0E2F      |        3631 |
|     197 | 0xFFFE39FB  |  4294851067 |
|     198 | 0xFFFFAA8C  |  4294945420 |
|     199 | 0x20B2      |        8370 |
|     200 | 0x20B3      |        8371 |
|     201 | 0x20B4      |        8372 |
|     202 | 0xFFFEEE90  |  4294897296 |
|     203 | 0xFFFFC950  |  4294953296 |
|     204 | 0x0BB8      |        3000 |
|     205 | 0x00D2      |         210 |
|     206 | 0x0008      |           8 |
|     207 | 0xFFFE352F  |  4294849839 |
|     208 | 0xFFFFC75A  |  4294952794 |
|     209 | 0xFFFE3720  |  4294850336 |
|     210 | 0xFFFFC194  |  4294951316 |
|     211 | 0xFFFD5198  |  4294791576 |
|     212 | 0xFFFFBFCD  |  4294950861 |
|     213 | 0xFFFE1D7D  |  4294843773 |
|     214 | 0xFFFFBDA5  |  4294950309 |
|     215 | 0x0003      |           3 |
|     216 | 0x0004      |           4 |
|     217 | 0x0006      |           6 |
|     218 | 0x0007      |           7 |
|     219 | 0xFFFDD550  |  4294825296 |
|     220 | 0xFFFFC180  |  4294951296 |
|     221 | 0xFFFFB9B0  |  4294949296 |
|     222 | 0xFFFE98A0  |  4294875296 |
|     223 | 0xFFFFB1E0  |  4294947296 |
|     224 | 0xFFFFAEF2  |  4294946546 |
|     225 | 0x20B5      |        8373 |
|     226 | 0x0960      |        2400 |
|     227 | 0x20B6      |        8374 |
|     228 | 0xFFFE4AE8  |  4294855400 |
|     229 | 0xFFFFC4C5  |  4294952133 |
|     230 | 0x20B7      |        8375 |
|     231 | 0x20B8      |        8376 |
|     232 | 0x20B9      |        8377 |
|     233 | 0xFFFDC998  |  4294822296 |
|     234 | 0xFFFF9E58  |  4294942296 |
|     235 | 0x0EAE      |        3758 |
|     236 | 0x009F      |         159 |
|     237 | 0x002D      |          45 |
|     238 | 0x00C8      |         200 |
|     239 | 0x0249      |         585 |
|     240 | 0xFFFEA4C4  |  4294878404 |
|     241 | 0x46A3      |       18083 |
|     242 | 0x0D15      |        3349 |
|     243 | 0xFFFEAFEC  |  4294881260 |
|     244 | 0x46C9      |       18121 |
|     245 | 0xFFFEAB5C  |  4294880092 |
|     246 | 0x316F      |       12655 |
|     247 | 0x08F5      |        2293 |
|     248 | 0x20D0      |        8400 |
|     249 | 0x20FE      |        8446 |
|     250 | 0x20FF      |        8447 |
|     251 | 0x2100      |        8448 |
|     252 | 0x086C      |        2156 |
|     253 | 0x20BF      |        8383 |
|     254 | 0x0009      |           9 |
|     255 | 0x20C0      |        8384 |
|     256 | 0x20C1      |        8385 |
|     257 | 0x20C2      |        8386 |
|     258 | 0x20C3      |        8387 |
|     259 | 0x20C4      |        8388 |
|     260 | 0x0095      |         149 |
|     261 | 0x20C5      |        8389 |
|     262 | 0x086D      |        2157 |
|     263 | 0x20C6      |        8390 |
|     264 | 0x20C7      |        8391 |
|     265 | 0x20C8      |        8392 |
|     266 | 0x0102      |         258 |
|     267 | 0x20C9      |        8393 |
|     268 | 0x20CA      |        8394 |
|     269 | 0x0047      |          71 |
|     270 | 0x20CB      |        8395 |
|     271 | 0x20CC      |        8396 |
|     272 | 0x20CD      |        8397 |
|     273 | 0x20CE      |        8398 |
|     274 | 0x20CF      |        8399 |
|     275 | 0x20D1      |        8401 |
|     276 | 0x20D2      |        8402 |
|     277 | 0x20D3      |        8403 |
|     278 | 0x20D4      |        8404 |
|     279 | 0x20D5      |        8405 |
|     280 | 0x20D6      |        8406 |
|     281 | 0x20D7      |        8407 |
|     282 | 0x20D8      |        8408 |
|     283 | 0x20D9      |        8409 |
|     284 | 0x20DA      |        8410 |
|     285 | 0x20DB      |        8411 |
|     286 | 0x20DC      |        8412 |
|     287 | 0x20DD      |        8413 |
|     288 | 0x20DE      |        8414 |
|     289 | 0x20DF      |        8415 |
|     290 | 0x20E0      |        8416 |
|     291 | 0x20E1      |        8417 |
|     292 | 0x20E2      |        8418 |
|     293 | 0x20E3      |        8419 |
|     294 | 0x20E4      |        8420 |
|     295 | 0x20E5      |        8421 |
|     296 | 0x20E6      |        8422 |
|     297 | 0x20E7      |        8423 |
|     298 | 0x20E8      |        8424 |
|     299 | 0x20E9      |        8425 |
|     300 | 0x0020      |          32 |
|     301 | 0x20EA      |        8426 |
|     302 | 0x20EB      |        8427 |
|     303 | 0x20EC      |        8428 |
|     304 | 0x20ED      |        8429 |
|     305 | 0x20EE      |        8430 |
|     306 | 0x20EF      |        8431 |
|     307 | 0x20F0      |        8432 |
|     308 | 0x20F1      |        8433 |
|     309 | 0x20F2      |        8434 |
|     310 | 0x20F3      |        8435 |
|     311 | 0x20F4      |        8436 |
|     312 | 0x20F5      |        8437 |
|     313 | 0x20F6      |        8438 |
|     314 | 0x0024      |          36 |
|     315 | 0x20F7      |        8439 |
|     316 | 0x20F8      |        8440 |
|     317 | 0x20F9      |        8441 |
|     318 | 0x20FA      |        8442 |
|     319 | 0x20FB      |        8443 |
|     320 | 0x20FC      |        8444 |
|     321 | 0x20FD      |        8445 |
|     322 | 0x2101      |        8449 |
|     323 | 0x2102      |        8450 |
|     324 | 0x2103      |        8451 |
|     325 | 0x2104      |        8452 |
|     326 | 0x2105      |        8453 |
|     327 | 0xFFFEA35F  |  4294878047 |
|     328 | 0x46B5      |       18101 |
|     329 | 0x07F0      |        2032 |
|     330 | 0xFFFEB012  |  4294881298 |
|     331 | 0x4047      |       16455 |
|     332 | 0xFFFEA380  |  4294878080 |
|     333 | 0x31F7      |       12791 |
|     334 | 0x0C01      |        3073 |
|     335 | 0x2106      |        8454 |
|     336 | 0x2107      |        8455 |
|     337 | 0x2108      |        8456 |
|     338 | 0x2109      |        8457 |
|     339 | 0x210A      |        8458 |
|     340 | 0x2110      |        8464 |
|     341 | 0x2111      |        8465 |
|     342 | 0x2112      |        8466 |
|     343 | 0x2113      |        8467 |
|     344 | 0x2114      |        8468 |
|     345 | 0x2115      |        8469 |
|     346 | 0x210B      |        8459 |
|     347 | 0x210C      |        8460 |
|     348 | 0x210D      |        8461 |
|     349 | 0x210E      |        8462 |
|     350 | 0x210F      |        8463 |
|     351 | 0x000C      |          12 |
|     352 | 0xFFFEA2E4  |  4294877924 |
|     353 | 0x3551      |       13649 |
|     354 | 0x010E      |         270 |
|     355 | 0xFFFF9795  |  4294940565 |
|     356 | 0xFFFEA5D3  |  4294878675 |
|     357 | 0xFFFF1579  |  4294907257 |
|     358 | 0x073C      |        1852 |
|     359 | 0x064E      |        1614 |
|     360 | 0x00D5      |         213 |
|     361 | 0x0091      |         145 |
|     362 | 0x026E      |         622 |
|     363 | 0x2118      |        8472 |
|     364 | 0x2119      |        8473 |
|     365 | 0x211A      |        8474 |
|     366 | 0x211B      |        8475 |
|     367 | 0x211C      |        8476 |
|     368 | 0x211D      |        8477 |
|     369 | 0x211E      |        8478 |
|     370 | 0x211F      |        8479 |
|     371 | 0x2120      |        8480 |
|     372 | 0x2121      |        8481 |
|     373 | 0x2122      |        8482 |
|     374 | 0x2123      |        8483 |
|     375 | 0x2124      |        8484 |
|     376 | 0x2125      |        8485 |
|     377 | 0x2126      |        8486 |
|     378 | 0x2127      |        8487 |
|     379 | 0x2128      |        8488 |
|     380 | 0x2129      |        8489 |
|     381 | 0x212A      |        8490 |
|     382 | 0x212B      |        8491 |
|     383 | 0x212C      |        8492 |
|     384 | 0x212D      |        8493 |
|     385 | 0x212E      |        8494 |
|     386 | 0x212F      |        8495 |
|     387 | 0x2132      |        8498 |
|     388 | 0x2133      |        8499 |
|     389 | 0x2134      |        8500 |
|     390 | 0x2130      |        8496 |
|     391 | 0x2131      |        8497 |
|     392 | 0x024C      |         588 |
|     393 | 0xFFFF8A0C  |  4294937100 |
|     394 | 0xFFFE9011  |  4294873105 |
|     395 | 0xFFFFFB96  |  4294966166 |
|     396 | 0x0D92      |        3474 |
|     397 | 0xFFFFFD66  |  4294966630 |
|     398 | 0xFFFF7C9A  |  4294933658 |
|     399 | 0xFFFE74BB  |  4294866107 |
|     400 | 0xFFFFFD76  |  4294966646 |
|     401 | 0x0B8E      |        2958 |
|     402 | 0x0286      |         646 |
|     403 | 0x0CC5      |        3269 |
|     404 | 0xFFFF8A3D  |  4294937149 |
|     405 | 0xFFFE869C  |  4294870684 |
|     406 | 0x2135      |        8501 |
|     407 | 0x0CC4      |        3268 |
|     408 | 0x2136      |        8502 |
|     409 | 0x2137      |        8503 |
|     410 | 0x2138      |        8504 |
|     411 | 0x2139      |        8505 |
|     412 | 0x213A      |        8506 |
|     413 | 0x0CC3      |        3267 |
|     414 | 0x213C      |        8508 |
|     415 | 0x213D      |        8509 |
|     416 | 0x213B      |        8507 |
|     417 | 0x0CC8      |        3272 |
|     418 | 0x213E      |        8510 |
|     419 | 0x0044      |          68 |
|     420 | 0xFFFFFF9C  |  4294967196 |
|     421 | 0x18768     |      100200 |
|     422 | 0x1338A     |       78730 |
|     423 | 0x06E0      |        1760 |
|     424 | 0xFFFF2A04  |  4294912516 |
|     425 | 0x00F0      |         240 |
|     426 | 0x213F      |        8511 |
|     427 | 0xFFFFDE9A  |  4294958746 |
|     428 | 0xFFFFFD9E  |  4294966686 |
|     429 | 0x07D0      |        2000 |
|     430 | 0xFFFEFA48  |  4294900296 |
|     431 | 0x2140      |        8512 |
|     432 | 0xFFFFFF9B  |  4294967195 |
|     433 | 0xFFFE73CA  |  4294865866 |
|     434 | 0x168C8     |       92360 |
|     435 | 0x06B8      |        1720 |
|     436 | 0x16580     |       91520 |
|     437 | 0x0190      |         400 |
|     438 | 0x01E0      |         480 |
|     439 | 0x2141      |        8513 |
|     440 | 0x1662      |        5730 |
|     441 | 0x06A4      |        1700 |
|     442 | 0x044C      |        1100 |
|     443 | 0x01F4      |         500 |
|     444 | 0x2142      |        8514 |
|     445 | 0x2143      |        8515 |
|     446 | 0x2144      |        8516 |
|     447 | 0x2145      |        8517 |
|     448 | 0x2146      |        8518 |
|     449 | 0x2147      |        8519 |
|     450 | 0x2148      |        8520 |
|     451 | 0x0CC7      |        3271 |
|     452 | 0x2149      |        8521 |
|     453 | 0x214A      |        8522 |
|     454 | 0x0CC2      |        3266 |
|     455 | 0x214B      |        8523 |
|     456 | 0x214C      |        8524 |
|     457 | 0x214D      |        8525 |
|     458 | 0x214E      |        8526 |
|     459 | 0x214F      |        8527 |
|     460 | 0x2150      |        8528 |
|     461 | 0x2151      |        8529 |
|     462 | 0x2152      |        8530 |
|     463 | 0x2153      |        8531 |
|     464 | 0x2154      |        8532 |
|     465 | 0x2155      |        8533 |
|     466 | 0xFFFFFF9A  |  4294967194 |
|     467 | 0x229E8     |      141800 |
|     468 | 0xFFFF1BCC  |  4294908876 |
|     469 | 0x0942      |        2370 |
|     470 | 0x1162      |        4450 |
|     471 | 0x2156      |        8534 |
|     472 | 0xFFFE2168  |  4294844776 |
|     473 | 0xFFFF595C  |  4294924636 |
|     474 | 0x0992      |        2450 |
|     475 | 0xFFFEA9D0  |  4294879696 |
|     476 | 0xFFFF96F6  |  4294940406 |
|     477 | 0x062C      |        1580 |
|     478 | 0x0258      |         600 |
|     479 | 0x2157      |        8535 |
|     480 | 0x2158      |        8536 |
|     481 | 0x2159      |        8537 |
|     482 | 0x215A      |        8538 |
|     483 | 0x215B      |        8539 |
|     484 | 0x215C      |        8540 |
|     485 | 0x215D      |        8541 |
|     486 | 0x215E      |        8542 |
|     487 | 0x215F      |        8543 |
|     488 | 0x2160      |        8544 |
|     489 | 0x2161      |        8545 |
|     490 | 0x2162      |        8546 |
|     491 | 0x2163      |        8547 |
|     492 | 0x2164      |        8548 |
|     493 | 0x0653      |        1619 |
|     494 | 0x2165      |        8549 |
|     495 | 0x2166      |        8550 |
|     496 | 0x2167      |        8551 |
|     497 | 0x2168      |        8552 |
|     498 | 0x2169      |        8553 |
|     499 | 0x216A      |        8554 |
|     500 | 0x216B      |        8555 |
|     501 | 0x216C      |        8556 |
|     502 | 0x216D      |        8557 |
|     503 | 0x216E      |        8558 |
|     504 | 0x175AA     |       95658 |
|     505 | 0xFFFF983F  |  4294940735 |
|     506 | 0x03C7      |         967 |
|     507 | 0x026F      |         623 |
|     508 | 0x003F      |          63 |
|     509 | 0x2171      |        8561 |
|     510 | 0x2172      |        8562 |
|     511 | 0x2173      |        8563 |
|     512 | 0x2174      |        8564 |
|     513 | 0x2175      |        8565 |
|     514 | 0x2176      |        8566 |
|     515 | 0x2177      |        8567 |
|     516 | 0x2178      |        8568 |
|     517 | 0x2179      |        8569 |
|     518 | 0x217A      |        8570 |
|     519 | 0x217B      |        8571 |
|     520 | 0x217C      |        8572 |
|     521 | 0x217D      |        8573 |
|     522 | 0x217E      |        8574 |
|     523 | 0x217F      |        8575 |
|     524 | 0x2180      |        8576 |
|     525 | 0x2181      |        8577 |
|     526 | 0xFFFF69B6  |  4294928822 |
|     527 | 0xFFFE76C7  |  4294866631 |
|     528 | 0xFFFFF924  |  4294965540 |
|     529 | 0x0200      |         512 |
|     530 | 0xFFFF6DE4  |  4294929892 |
|     531 | 0xFFFE7318  |  4294865688 |
|     532 | 0xFFFFFD77  |  4294966647 |
|     533 | 0x0976      |        2422 |
|     534 | 0xFFFF742D  |  4294931501 |
|     535 | 0xFFFE6BB7  |  4294863799 |
|     536 | 0x017E      |         382 |
|     537 | 0x0CC6      |        3270 |
|     538 | 0x2182      |        8578 |
|     539 | 0x2183      |        8579 |
|     540 | 0x2184      |        8580 |
|     541 | 0x2185      |        8581 |
|     542 | 0x2186      |        8582 |
|     543 | 0x2188      |        8584 |
|     544 | 0x2189      |        8585 |
|     545 | 0x218A      |        8586 |
|     546 | 0x218B      |        8587 |
|     547 | 0x218C      |        8588 |
|     548 | 0x218D      |        8589 |
|     549 | 0x218E      |        8590 |
|     550 | 0x218F      |        8591 |
|     551 | 0x2190      |        8592 |
|     552 | 0x2191      |        8593 |
|     553 | 0x2192      |        8594 |
|     554 | 0x2193      |        8595 |
|     555 | 0x2194      |        8596 |
|     556 | 0x024A      |         586 |
|     557 | 0xFFFF9F67  |  4294942567 |
|     558 | 0x743A      |       29754 |
|     559 | 0x0210      |         528 |
|     560 | 0x2195      |        8597 |
|     561 | 0x2196      |        8598 |
|     562 | 0x0952      |        2386 |
|     563 | 0x2197      |        8599 |
|     564 | 0x2198      |        8600 |
|     565 | 0x2199      |        8601 |
|     566 | 0x219A      |        8602 |
|     567 | 0x219B      |        8603 |
|     568 | 0x219C      |        8604 |
|     569 | 0x219D      |        8605 |
|     570 | 0x219E      |        8606 |
|     571 | 0x219F      |        8607 |
|     572 | 0x21A0      |        8608 |
|     573 | 0x21A1      |        8609 |
|     574 | 0x21A2      |        8610 |
|     575 | 0x21A3      |        8611 |
|     576 | 0x21A4      |        8612 |
|     577 | 0x175E9     |       95721 |
|     578 | 0xFFFF8FF8  |  4294938616 |
|     579 | 0xFFFFFF6C  |  4294967148 |
|     580 | 0x0BF5      |        3061 |
|     581 | 0x0113      |         275 |
|     582 | 0x21A5      |        8613 |
|     583 | 0x21A6      |        8614 |
|     584 | 0x21A7      |        8615 |
|     585 | 0x21A8      |        8616 |
|     586 | 0x21A9      |        8617 |
|     587 | 0x21AA      |        8618 |
|     588 | 0x21AB      |        8619 |
|     589 | 0x21AC      |        8620 |
|     590 | 0x21AD      |        8621 |
|     591 | 0x21AE      |        8622 |
|     592 | 0x21AF      |        8623 |
|     593 | 0x21B0      |        8624 |
|     594 | 0x21B1      |        8625 |
|     595 | 0x21B2      |        8626 |
|     596 | 0x21B3      |        8627 |
|     597 | 0x21B4      |        8628 |
|     598 | 0x21B5      |        8629 |
|     599 | 0x21B6      |        8630 |
|     600 | 0x21B7      |        8631 |
|     601 | 0x00C9      |         201 |
|     602 | 0xFFFE9553  |  4294874451 |
|     603 | 0x3BC2      |       15298 |
|     604 | 0x0118      |         280 |
|     605 | 0x0266      |         614 |
|     606 | 0x21E7      |        8679 |
|     607 | 0x21BB      |        8635 |
|     608 | 0x21BC      |        8636 |
|     609 | 0x21BD      |        8637 |
|     610 | 0x21BE      |        8638 |
|     611 | 0x21BF      |        8639 |
|     612 | 0x21C0      |        8640 |
|     613 | 0x21C1      |        8641 |
|     614 | 0x0016      |          22 |
|     615 | 0x21C2      |        8642 |
|     616 | 0x21C3      |        8643 |
|     617 | 0x21C4      |        8644 |
|     618 | 0x21C5      |        8645 |
|     619 | 0x21C6      |        8646 |
|     620 | 0x21C7      |        8647 |
|     621 | 0x21C8      |        8648 |
|     622 | 0x21C9      |        8649 |
|     623 | 0x21CA      |        8650 |
|     624 | 0xFFFEA140  |  4294877504 |
|     625 | 0x3550      |       13648 |
|     626 | 0xFFFE3E97  |  4294852247 |
|     627 | 0x0CB9      |        3257 |
|     628 | 0x0032      |          50 |
|     629 | 0x21CB      |        8651 |
|     630 | 0x21CC      |        8652 |
|     631 | 0x21CD      |        8653 |
|     632 | 0x21CE      |        8654 |
|     633 | 0x21CF      |        8655 |
|     634 | 0x21D0      |        8656 |
|     635 | 0x21D1      |        8657 |
|     636 | 0x21D2      |        8658 |
|     637 | 0x21D3      |        8659 |
|     638 | 0x21D4      |        8660 |
|     639 | 0x0046      |          70 |
|     640 | 0x001D      |          29 |
|     641 | 0x21D5      |        8661 |
|     642 | 0x0262      |         610 |
|     643 | 0x21D6      |        8662 |
|     644 | 0x21D7      |        8663 |
|     645 | 0x21D8      |        8664 |
|     646 | 0x21D9      |        8665 |
|     647 | 0x0022      |          34 |
|     648 | 0x21DA      |        8666 |
|     649 | 0x21DB      |        8667 |
|     650 | 0x21DC      |        8668 |
|     651 | 0x21DD      |        8669 |
|     652 | 0x21DE      |        8670 |
|     653 | 0x21DF      |        8671 |
|     654 | 0x21E0      |        8672 |
|     655 | 0x21E1      |        8673 |
|     656 | 0x21E2      |        8674 |
|     657 | 0x21E3      |        8675 |
|     658 | 0x21E4      |        8676 |
|     659 | 0x21E5      |        8677 |
|     660 | 0x21E6      |        8678 |
|     661 | 0x44CD      |       17613 |
|     662 | 0x1EAFA     |      125690 |
|     663 | 0x0C04      |        3076 |
|     664 | 0x534A      |       21322 |
|     665 | 0x23ADA     |      146138 |
|     666 | 0x0684      |        1668 |
|     667 | 0x57CC      |       22476 |
|     668 | 0x24386     |      148358 |
|     669 | 0x5B03      |       23299 |
|     670 | 0x23DEF     |      146927 |
|     671 | 0x392D      |       14637 |
|     672 | 0x28007     |      163847 |
|     673 | 0x038A      |         906 |
|     674 | 0x64E4      |       25828 |
|     675 | 0x20E5F     |      134751 |
|     676 | 0x0BA8      |        2984 |
|     677 | 0x0CDB      |        3291 |
|     678 | 0x0023      |          35 |
|     679 | 0x0019      |          25 |
|     680 | 0x21E8      |        8680 |
|     681 | 0x21E9      |        8681 |
|     682 | 0x21EA      |        8682 |
|     683 | 0x001A      |          26 |
|     684 | 0x21EB      |        8683 |
|     685 | 0x0CDC      |        3292 |
|     686 | 0x21EC      |        8684 |
|     687 | 0x21ED      |        8685 |
|     688 | 0x007F      |         127 |
|     689 | 0x21EE      |        8686 |
|     690 | 0x21EF      |        8687 |
|     691 | 0x0CDD      |        3293 |
|     692 | 0x21F0      |        8688 |
|     693 | 0x21F1      |        8689 |
|     694 | 0x21F2      |        8690 |
|     695 | 0x0267      |         615 |
|     696 | 0x21F3      |        8691 |
|     697 | 0x21F4      |        8692 |
|     698 | 0x21F5      |        8693 |
|     699 | 0x21F6      |        8694 |
|     700 | 0x21F7      |        8695 |
|     701 | 0x21F8      |        8696 |
|     702 | 0x21F9      |        8697 |
|     703 | 0x21FA      |        8698 |
|     704 | 0x21FB      |        8699 |
|     705 | 0x21FC      |        8700 |
|     706 | 0x21FD      |        8701 |
|     707 | 0x21FE      |        8702 |
|     708 | 0x001F      |          31 |
|     709 | 0x5360      |       21344 |
|     710 | 0x23B63     |      146275 |
|     711 | 0xFFFEA5FE  |  4294878718 |
|     712 | 0x0612      |        1554 |
|     713 | 0x5185      |       20869 |
|     714 | 0x239B2     |      145842 |
|     715 | 0x09C4      |        2500 |
|     716 | 0x0CF7      |        3319 |
|     717 | 0x21FF      |        8703 |
|     718 | 0x2200      |        8704 |
|     719 | 0x2201      |        8705 |
|     720 | 0x2202      |        8706 |
|     721 | 0x2203      |        8707 |
|     722 | 0x2204      |        8708 |
|     723 | 0x2205      |        8709 |
|     724 | 0x2206      |        8710 |
|     725 | 0x2207      |        8711 |
|     726 | 0x2208      |        8712 |
|     727 | 0x2209      |        8713 |
|     728 | 0x220A      |        8714 |
|     729 | 0x220B      |        8715 |
|     730 | 0x220C      |        8716 |
|     731 | 0x220D      |        8717 |
|     732 | 0x220E      |        8718 |
|     733 | 0x220F      |        8719 |
|     734 | 0x2210      |        8720 |
|     735 | 0x2211      |        8721 |
|     736 | 0x2212      |        8722 |
|     737 | 0x2213      |        8723 |
|     738 | 0x2214      |        8724 |
|     739 | 0x2215      |        8725 |
|     740 | 0x2216      |        8726 |
|     741 | 0xFFFFFF91  |  4294967185 |
|     742 | 0xFFFF0C7C  |  4294904956 |
|     743 | 0x16EAE     |       93870 |
|     744 | 0x060E      |        1550 |
|     745 | 0x6702      |       26370 |
|     746 | 0x2217      |        8727 |
|     747 | 0x2218      |        8728 |
|     748 | 0xFFFFDC2E  |  4294958126 |
|     749 | 0xA21C      |       41500 |
|     750 | 0xFFFF5A56  |  4294924886 |
|     751 | 0x0145      |         325 |
|     752 | 0x0168      |         360 |
|     753 | 0x2219      |        8729 |
|     754 | 0x221A      |        8730 |
|     755 | 0x221B      |        8731 |
|     756 | 0xFFFFFF90  |  4294967184 |
|     757 | 0x1A8CE     |      108750 |
|     758 | 0xFFFE3E78  |  4294852216 |
|     759 | 0x0708      |        1800 |
|     760 | 0x1D150     |      119120 |
|     761 | 0x221C      |        8732 |
|     762 | 0xFFFF6A14  |  4294928916 |
|     763 | 0x1F072     |      127090 |
|     764 | 0xFFFE1844  |  4294842436 |
|     765 | 0x011F      |         287 |
|     766 | 0x221D      |        8733 |
|     767 | 0xFFFEBF56  |  4294885206 |
|     768 | 0xFFFF4AF2  |  4294920946 |
|     769 | 0x0672      |        1650 |
|     770 | 0x0338      |         824 |
|     771 | 0x221E      |        8734 |
|     772 | 0x5BF3      |       23539 |
|     773 | 0x25673     |      153203 |
|     774 | 0x058D      |        1421 |
|     775 | 0x6B6E      |       27502 |
|     776 | 0x24973     |      149875 |
|     777 | 0x06A0      |        1696 |
|     778 | 0x400C      |       16396 |
|     779 | 0x2362B     |      144939 |
|     780 | 0x0E67      |        3687 |
|     781 | 0x49D7      |       18903 |
|     782 | 0x22A62     |      141922 |
|     783 | 0x5B2A      |       23338 |
|     784 | 0x22346     |      140102 |
|     785 | 0x0B06      |        2822 |
|     786 | 0x0080      |         128 |
|     787 | 0x00A6      |         166 |
|     788 | 0x0D0F      |        3343 |
|     789 | 0x221F      |        8735 |
|     790 | 0x088B      |        2187 |
|     791 | 0x2220      |        8736 |
|     792 | 0x2221      |        8737 |
|     793 | 0x2222      |        8738 |
|     794 | 0x2223      |        8739 |
|     795 | 0x2224      |        8740 |
|     796 | 0x2225      |        8741 |
|     797 | 0x2226      |        8742 |
|     798 | 0x2227      |        8743 |
|     799 | 0x2231      |        8753 |
|     800 | 0x2232      |        8754 |
|     801 | 0x2233      |        8755 |
|     802 | 0x2234      |        8756 |
|     803 | 0x2235      |        8757 |
|     804 | 0x2236      |        8758 |
|     805 | 0x2237      |        8759 |
|     806 | 0x2238      |        8760 |
|     807 | 0x2239      |        8761 |
|     808 | 0x223A      |        8762 |
|     809 | 0x223B      |        8763 |
|     810 | 0x223C      |        8764 |
|     811 | 0x223D      |        8765 |
|     812 | 0x223E      |        8766 |
|     813 | 0x223F      |        8767 |
|     814 | 0x2240      |        8768 |
|     815 | 0x2241      |        8769 |
|     816 | 0x2242      |        8770 |
|     817 | 0x2243      |        8771 |
|     818 | 0x2244      |        8772 |
|     819 | 0x2245      |        8773 |
|     820 | 0xFFFE9A91  |  4294875793 |
|     821 | 0x1C8B      |        7307 |
|     822 | 0x2247      |        8775 |
|     823 | 0x2248      |        8776 |
|     824 | 0x2249      |        8777 |
|     825 | 0x0C84      |        3204 |
|     826 | 0x224A      |        8778 |
|     827 | 0x224B      |        8779 |
|     828 | 0x224C      |        8780 |
|     829 | 0x224D      |        8781 |
|     830 | 0x0C85      |        3205 |
|     831 | 0x224E      |        8782 |
|     832 | 0x224F      |        8783 |
|     833 | 0x2250      |        8784 |
|     834 | 0x2251      |        8785 |
|     835 | 0x2252      |        8786 |
|     836 | 0x091E      |        2334 |
|     837 | 0x2253      |        8787 |
|     838 | 0x2254      |        8788 |
|     839 | 0x2255      |        8789 |
|     840 | 0x2256      |        8790 |
|     841 | 0x2257      |        8791 |
|     842 | 0x2258      |        8792 |
|     843 | 0x2259      |        8793 |
|     844 | 0x225A      |        8794 |
|     845 | 0x225B      |        8795 |
|     846 | 0x225C      |        8796 |
|     847 | 0x0015      |          21 |
|     848 | 0x225D      |        8797 |
|     849 | 0x225E      |        8798 |
|     850 | 0x225F      |        8799 |
|     851 | 0x2260      |        8800 |
|     852 | 0x2261      |        8801 |
|     853 | 0x2262      |        8802 |
|     854 | 0x2263      |        8803 |
|     855 | 0x027E      |         638 |
|     856 | 0x2264      |        8804 |
|     857 | 0x2265      |        8805 |
|     858 | 0x2266      |        8806 |
|     859 | 0x2267      |        8807 |
|     860 | 0x2268      |        8808 |
|     861 | 0x2269      |        8809 |
|     862 | 0x226A      |        8810 |
|     863 | 0x226B      |        8811 |
|     864 | 0x226C      |        8812 |
|     865 | 0x226D      |        8813 |
|     866 | 0x226E      |        8814 |
|     867 | 0x226F      |        8815 |
|     868 | 0x0018      |          24 |
|     869 | 0x2270      |        8816 |
|     870 | 0xFFFF757F  |  4294931839 |
|     871 | 0xFFFE50B0  |  4294856880 |
|     872 | 0x09FE      |        2558 |
|     873 | 0xFFFF8E1F  |  4294938143 |
|     874 | 0xFFFE8F77  |  4294872951 |
|     875 | 0xFFFFFD60  |  4294966624 |
|     876 | 0x053F      |        1343 |
|     877 | 0xFFFF6D5C  |  4294929756 |
|     878 | 0xFFFE7387  |  4294865799 |
|     879 | 0xFFFF74B1  |  4294931633 |
|     880 | 0xFFFE6B44  |  4294863684 |
|     881 | 0xFFFF7360  |  4294931296 |
|     882 | 0xFFFE7D48  |  4294868296 |
|     883 | 0xFFFFFA01  |  4294965761 |
|     884 | 0x0041      |          65 |
|     885 | 0xFFFF8931  |  4294936881 |
|     886 | 0xFFFE86FA  |  4294870778 |
|     887 | 0xFFFF9120  |  4294938912 |
|     888 | 0xFFFE85F4  |  4294870516 |
|     889 | 0x07FF      |        2047 |
|     890 | 0xFFFF88CB  |  4294936779 |
|     891 | 0xFFFE8DFF  |  4294872575 |
|     892 | 0x01FF      |         511 |
|     893 | 0x0CC9      |        3273 |
|     894 | 0x2273      |        8819 |
|     895 | 0x2274      |        8820 |
|     896 | 0x2275      |        8821 |
|     897 | 0x2276      |        8822 |
|     898 | 0x2277      |        8823 |
|     899 | 0x2278      |        8824 |
|     900 | 0x2279      |        8825 |
|     901 | 0x227A      |        8826 |
|     902 | 0x227B      |        8827 |
|     903 | 0x227C      |        8828 |
|     904 | 0x0012      |          18 |
|     905 | 0x227D      |        8829 |
|     906 | 0x2283      |        8835 |
|     907 | 0x2284      |        8836 |
|     908 | 0x22B4      |        8884 |
|     909 | 0x227E      |        8830 |
|     910 | 0x227F      |        8831 |
|     911 | 0x2280      |        8832 |
|     912 | 0x2281      |        8833 |
|     913 | 0x2282      |        8834 |
|     914 | 0x2285      |        8837 |
|     915 | 0x2286      |        8838 |
|     916 | 0x2287      |        8839 |
|     917 | 0x2288      |        8840 |
|     918 | 0x2289      |        8841 |
|     919 | 0x228A      |        8842 |
|     920 | 0x228B      |        8843 |
|     921 | 0x228C      |        8844 |
|     922 | 0x228D      |        8845 |
|     923 | 0x0040      |          64 |
|     924 | 0x000B      |          11 |
|     925 | 0x229C      |        8860 |
|     926 | 0x229D      |        8861 |
|     927 | 0x22A2      |        8866 |
|     928 | 0x22A3      |        8867 |
|     929 | 0x22A4      |        8868 |
|     930 | 0x229E      |        8862 |
|     931 | 0x0083      |         131 |
|     932 | 0x2FA5      |       12197 |
|     933 | 0x229F      |        8863 |
|     934 | 0x228F      |        8847 |
|     935 | 0x2290      |        8848 |
|     936 | 0x2291      |        8849 |
|     937 | 0x2292      |        8850 |
|     938 | 0x2293      |        8851 |
|     939 | 0x2F9E      |       12190 |
|     940 | 0x2F9F      |       12191 |
|     941 | 0x2F9C      |       12188 |
|     942 | 0x2298      |        8856 |
|     943 | 0x2299      |        8857 |
|     944 | 0x229A      |        8858 |
|     945 | 0x229B      |        8859 |
|     946 | 0x2294      |        8852 |
|     947 | 0x2295      |        8853 |
|     948 | 0x2296      |        8854 |
|     949 | 0x2297      |        8855 |
|     950 | 0x22A0      |        8864 |
|     951 | 0x22A1      |        8865 |
|     952 | 0x22A5      |        8869 |
|     953 | 0x2FA7      |       12199 |
|     954 | 0x2FA0      |       12192 |
|     955 | 0x2FA1      |       12193 |
|     956 | 0x2FA6      |       12198 |
|     957 | 0x7FFFFFFE  |  2147483646 |
|     958 | 0x2FA2      |       12194 |
|     959 | 0x00E7      |         231 |
|     960 | 0x2FA3      |       12195 |
|     961 | 0x00A8      |         168 |
|     962 | 0x2FA4      |       12196 |
|     963 | 0x2F6D      |       12141 |
|     964 | 0x228E      |        8846 |
|     965 | 0xFFFF8A14  |  4294937108 |
|     966 | 0xFFFE8CB9  |  4294872249 |
|     967 | 0x008C      |         140 |
|     968 | 0x00AA      |         170 |
|     969 | 0x00BE      |         190 |
|     970 | 0x22B2      |        8882 |
|     971 | 0x22B3      |        8883 |
|     972 | 0x22B0      |        8880 |
|     973 | 0x22B1      |        8881 |
|     974 | 0x22B5      |        8885 |
|     975 | 0x22B6      |        8886 |
|     976 | 0x22B7      |        8887 |
|     977 | 0x22B8      |        8888 |
|     978 | 0x22B9      |        8889 |
|     979 | 0x22BA      |        8890 |
|     980 | 0x22BB      |        8891 |
|     981 | 0x22BC      |        8892 |
|     982 | 0xFFFF91EA  |  4294939114 |
|     983 | 0xFFFE98A9  |  4294875305 |
|     984 | 0x22BD      |        8893 |
|     985 | 0x22BF      |        8895 |
|     986 | 0xFFFF8FC5  |  4294938565 |
|     987 | 0xFFFEA3DF  |  4294878175 |
|     988 | 0xFFFF1641  |  4294907457 |
|     989 | 0xFFFF9605  |  4294940165 |
|     990 | 0xFFFF1321  |  4294906657 |
|     991 | 0xFFFF9CA9  |  4294941865 |
|     992 | 0xFFFEABAF  |  4294880175 |
|     993 | 0xFFFEA605  |  4294878725 |
|     994 | 0xFFFF1673  |  4294907507 |
|     995 | 0x0CFA      |        3322 |
|     996 | 0x0C90      |        3216 |
|     997 | 0x0BC3      |        3011 |
|     998 | 0x22C0      |        8896 |
|     999 | 0x0BC4      |        3012 |
|    1000 | 0x22C1      |        8897 |
|    1001 | 0x0CFD      |        3325 |
|    1002 | 0x22C2      |        8898 |
|    1003 | 0x22C3      |        8899 |
|    1004 | 0x22C4      |        8900 |
|    1005 | 0x22C5      |        8901 |
|    1006 | 0x22C6      |        8902 |
|    1007 | 0x22C7      |        8903 |
|    1008 | 0x22C8      |        8904 |
|    1009 | 0x22C9      |        8905 |
|    1010 | 0x22CA      |        8906 |
|    1011 | 0x22CB      |        8907 |
|    1012 | 0x22CC      |        8908 |
|    1013 | 0x22CD      |        8909 |
|    1014 | 0x22CE      |        8910 |
|    1015 | 0x22CF      |        8911 |
|    1016 | 0x22D0      |        8912 |
|    1017 | 0x22D1      |        8913 |
|    1018 | 0x22D2      |        8914 |
|    1019 | 0x22A6      |        8870 |
|    1020 | 0x22AF      |        8879 |
|    1021 | 0x22A7      |        8871 |
|    1022 | 0x22A8      |        8872 |
|    1023 | 0x22A9      |        8873 |
|    1024 | 0x22AA      |        8874 |
|    1025 | 0x22AB      |        8875 |
|    1026 | 0x22AC      |        8876 |
|    1027 | 0x22AD      |        8877 |
|    1028 | 0x22AE      |        8878 |
|    1029 | 0xFFFE9CC8  |  4294876360 |
|    1030 | 0x1384      |        4996 |
|    1031 | 0x0D16      |        3350 |
|    1032 | 0xFFFFFC01  |  4294966273 |
|    1033 | 0x22DC      |        8924 |
|    1034 | 0x22DD      |        8925 |
|    1035 | 0x22DE      |        8926 |
|    1036 | 0x22DF      |        8927 |
|    1037 | 0x22E0      |        8928 |
|    1038 | 0x22E1      |        8929 |
|    1039 | 0x22E2      |        8930 |
|    1040 | 0x22E3      |        8931 |
|    1041 | 0x0CCC      |        3276 |
|    1042 | 0x22E4      |        8932 |
|    1043 | 0x22E5      |        8933 |
|    1044 | 0x22E6      |        8934 |
|    1045 | 0x22E7      |        8935 |
|    1046 | 0x0CD0      |        3280 |
|    1047 | 0x0CCE      |        3278 |
|    1048 | 0x22E8      |        8936 |
|    1049 | 0x22E9      |        8937 |
|    1050 | 0x22EA      |        8938 |
|    1051 | 0x22EB      |        8939 |
|    1052 | 0x0512      |        1298 |
|    1053 | 0x22EC      |        8940 |
|    1054 | 0x22ED      |        8941 |
|    1055 | 0x22EE      |        8942 |
|    1056 | 0x22EF      |        8943 |
|    1057 | 0x22F0      |        8944 |
|    1058 | 0x22F1      |        8945 |
|    1059 | 0x22F2      |        8946 |
|    1060 | 0x22FF      |        8959 |
|    1061 | 0x2300      |        8960 |
|    1062 | 0x0268      |         616 |
|    1063 | 0x2301      |        8961 |
|    1064 | 0x2302      |        8962 |
|    1065 | 0x2303      |        8963 |
|    1066 | 0x2304      |        8964 |
|    1067 | 0x2306      |        8966 |
|    1068 | 0x2307      |        8967 |
|    1069 | 0x2308      |        8968 |
|    1070 | 0x2309      |        8969 |
|    1071 | 0x230A      |        8970 |
|    1072 | 0x230B      |        8971 |
|    1073 | 0x230C      |        8972 |
|    1074 | 0x230D      |        8973 |
|    1075 | 0x230E      |        8974 |
|    1076 | 0x00D7      |         215 |

## String References

- **8305**: @@
- **8378**: @@@As the eighth century came to a close, @@@so did the islands' old regime.
- **8382**: @@@It is upon this oppidan landscape that @@@adventurers will first leave their mark @@@...in the next chapter of Vana'diel's @@@history.
- **8395**: <Player> obtained: $3.
- **8400**: What do you wish to know about? [The six coalitions./Coalition imprimaturs./Services and edification./Bayld./I've nothing to ask.]
- **8447**: Have Brenton stop babbling? [Wait, I must know something!/Yes, and how!]
- **8475**: Have you been to there? [Yes. What a sight to behold./No. But it sounds interesting...]
- **8478**: Do you know of their queen? [Of course. What a story!/Umm...does she have a crown?]
- **8494**: Find the leafkin queen? [Yes. What an adventure!/Leaves scare me.]
- **8504**: What would you like to discuss? [Meeting the leafkin queen.]
- **8520**: Well, do you? [So you mean the leafkin...?]
- **8540**: Who is the bearer of the blade? [It must be Arciela!]
- **8573**: Let the man die happy? [Sure, I'll search for it./If I can't be happy, no one can.]
- **8641**: Inquire about what? [What's an exorcist?/Never heard of them./...]
- **8652**: Have any questions? [So Ingrid is an exorcist?/What would Ingrid want with me?]
- **8660**: Inquire about what? [What would Ms. Merciless want with me?/"Ingrid the Merciless"?]
- **8672**: Will you greet Ingrid? [A real exorcist? Yes!/I'm a bit busy right now...]
- **8682**: How will you address her? [You mean "Ingrid the Merciless"?]
- **8695**: What will you ask? [Girl?/Just how old are you?]
- **8700**: Have you heard about her mission? [Not one whit./I've only heard about your beauty...]
- **8712**: Any comments? [Who's Hildebert?/Of course--that old guy./...]
- **8721**: Have you heard of the Great Expedition? [O-of course!/The what, now?]
- **8758**: Any idea what's wrong? [Of course./Not really.]
- **8772**: Go help Arciela? [Yes...of course./Like I have any choice.]
- **8794**: How is Arciela faring? [I spoke to her in the library./She's got a sweet tooth./I asked about guys and what she's into...]
- **8805**: Are you here to see him? [No, I'm looking for someone./Yes, I came to give my regards.]
- **8823**: What will you ask? [Can you help with the Ygnas issue?/Well, you do look quite dapper...]
- **8830**: Take him up on his offer? [Lady Luck's smilin' on me!/Not when I come up snake eyes.../What's "Boom or Bust"?]
- **8868**: Teodor used the old switcheroo! His $1 has been exchanged with your $2, and your total is now $3.
- **8869**: Teodor forces you to shoot again! Your shot for turn number $1 is now $2, and your total is now $3.
- **8896**: Where was Ygnas pointing? [At her chest!/At her waist!/Toward the sky!]
- **8900**: What was there? [A sword?/Her hip bone?]
- **8925**: What would you like to ask about? [Ortharsyne./The bearded guy in black./How to win at Boom or Bust.]
- **8960**: What can he do for you? [Give me information on Arciela./Talk about the golden tiger.]
- **8969**: Have anything to say? [Do you know where they went?/They didn't tell you a single thing?]
- **12141**: End the amusement? [No, I can't quit now!/Yes, I've had enough.]
- **12188**: You shot a $2, for a total of $3 on turn number $1.
- **12190**: It is now turn number $1 for [you/your opponent].
- **12191**: [You/Your opponent] [shot/stayed].
- **12192**: What will you do? [Shoot./Stay./Use a trick up my sleeve./Fold.]
- **12193**: Which trick will you use? [None, I've changed my mind./Sneak Peek./Switcheroo./Crooked Die.]
- **12194**: Look at which shot? ([Sneak Peek/Switcheroo/Reroll]) [None, I've changed my mind./Shot one. [???/1/2/3/4/5/6]/Shot two. [???/1/2/3/4/5/6]/Shot three. [???/1/2/3/4/5/6]/Shot four. [???/1/2/3/4/5/6]/Shot five. [???/1/2/3/4/5/6]/Shot six. [???/1/2/3/4/5/6]/Shot seven. [???/1/2/3/4/5/6]/Shot eight. [???/1/2/3/4/5/6]/Shot nine. [???/1/2/3/4/5/6]/Shot ten. [???/1/2/3/4/5/6]/Shot eleven. [???/1/2/3/4/5/6]]
- **12195**: You snuck a peek at one of your opponent's dice! Shot number $1 was a $2 for him.
- **12196**: You used the old switcheroo! Your $1 has been exchanged with your opponent's $2, and your total is now $3.
- **12197**: You forced your opponent to shoot again! His shot for turn number $1 is now $2.
- **12198**: Choose [your opponent's/your] die and [peek at it/exchange it/make him shoot again].
- **12199**: Your opponent's total: $1[/ (Bust!)] Your total: $2[/ (Bust!)] [You win, and thus have the right to gloat all you want until your rematch./Don't go throwing your dice just because you lost, all right?/You are equally matched, and have drawn.]

## Events

### Event 65535

#### Metadata

| Field        | Value   |
|--------------|---------|
| Entrypoint   | 0x0000  |
| Data Size    | 1 bytes |
| Instructions | 1       |

```
      00 01 02 03 04 05 06 07  08 09 0A 0B 0C 0D 0E 0F
      -- -- -- -- -- -- -- --  -- -- -- -- -- -- -- --
0000: 00                                                .               
```

#### Opcodes

```
  0: 0x0000 [0x00] END_REQSTACK()
```

### Event 2

#### Metadata

| Field        | Value      |
|--------------|------------|
| Entrypoint   | 0x0001     |
| Data Size    | 5320 bytes |
| Instructions | 725        |

```
      00 01 02 03 04 05 06 07  08 09 0A 0B 0C 0D 0E 0F
      -- -- -- -- -- -- -- --  -- -- -- -- -- -- -- --
0000:    42 1A 68 EC 46 01 38  00 80 4E 00 F0 FF FF 7F   B.h.F.8..N.....
0010: 77 01 80 02 80 03 01 10  03 80 43 00 43 01 03 04  w.........C.C...
0020: 00 02 10 02 09 10 03 80  00 33 00 03 04 00 03 80  .........3......
0030: 01 40 00 02 09 10 04 80  00 40 00 03 04 00 02 80  .@.......@......
0040: BA 26 01 10 01 05 80 06  80 07 80 08 80 BA 1F 01  .&..............
0050: 10 01 09 80 0A 80 0B 80  0C 80 BA 2A 01 10 01 0D  ...........*....
0060: 80 0E 80 0F 80 10 80 27  10 1F 01 10 01 0A 80 26  .......'.......&
0070: 01 10 01 80 1F 01 10 01  27 10 26 01 10 01 03 27  ........'.&....'
0080: 10 1F 01 10 01 08 2F 00  CE 00 10 01 4E 00 CE 00  ....../.....N...
0090: 10 01 BA FA 00 10 01 11  80 12 80 13 80 14 80 BA  ................
00A0: 30 01 10 01 15 80 16 80  13 80 17 80 BA 09 01 10  0...............
00B0: 01 18 80 19 80 13 80 14  80 BA 08 01 10 01 1A 80  ................
00C0: 1B 80 13 80 14 80 BA 17  01 10 01 1C 80 1D 80 13  ................
00D0: 80 1E 80 BA CE 00 10 01  1F 80 20 80 13 80 21 80  .......... ...!.
00E0: BA 93 00 10 01 22 80 23  80 24 80 25 80 BA B1 00  .....".#.$.%....
00F0: 10 01 26 80 27 80 02 80  28 80 BA B2 00 10 01 29  ..&.'...(......)
0100: 80 2A 80 02 80 2B 80 BA  03 01 10 01 2C 80 2D 80  .*...+......,.-.
0110: 02 80 2E 80 92 01 92 00  10 01 92 01 93 00 10 01  ................
0120: 92 01 26 01 10 01 92 01  1F 01 10 01 92 01 FA 00  ..&.............
0130: 10 01 92 01 FB 00 10 01  92 01 30 01 10 01 92 01  ..........0.....
0140: 08 01 10 01 92 01 09 01  10 01 92 01 17 01 10 01  ................
0150: 92 01 CE 00 10 01 92 01  19 01 10 01 92 01 03 01  ................
0160: 10 01 92 01 02 01 10 01  92 01 1E 01 10 01 92 01  ................
0170: B1 00 10 01 92 01 B2 00  10 01 92 01 2A 01 10 01  ............*...
0180: 92 01 FE 00 10 01 94 01  92 00 10 01 94 01 93 00  ................
0190: 10 01 94 01 26 01 10 01  94 01 1F 01 10 01 94 01  ....&...........
01A0: FA 00 10 01 94 01 FB 00  10 01 94 01 30 01 10 01  ............0...
01B0: 94 01 08 01 10 01 94 01  09 01 10 01 94 01 17 01  ................
01C0: 10 01 94 01 CE 00 10 01  94 01 19 01 10 01 94 01  ................
01D0: 03 01 10 01 94 01 02 01  10 01 94 01 1E 01 10 01  ................
01E0: 94 01 B1 00 10 01 94 01  B2 00 10 01 94 01 2A 01  ..............*.
01F0: 10 01 94 01 FE 00 10 01  27 10 17 01 10 01 06 27  ........'......'
0200: 10 CE 00 10 01 12 27 10  93 00 10 01 04 27 10 93  ......'......'..
0210: 00 10 01 09 27 10 92 00  10 01 04 27 10 B1 00 10  ....'......'....
0220: 01 04 27 10 B2 00 10 01  04 27 10 03 01 10 01 03  ..'......'......
0230: 2A 10 26 01 10 01 2A 10  1F 01 10 01 94 01 F0 FF  *.&...*.........
0240: FF 7F 02 04 00 02 80 00  5A 02 BA F0 FF FF 7F 2F  ........Z....../
0250: 80 30 80 31 80 02 80 01  85 02 BA F0 FF FF 7F 32  .0.1...........2
0260: 80 33 80 34 80 35 80 80  F0 FF FF 7F 1C 36 80 92  .3.4.5.......6..
0270: 01 F0 FF FF 7F 6C F0 FF  FF 7F 02 80 03 80 27 05  .....l........'.
0280: F0 FF FF 7F 04 5C 00 37  80 5C 01 37 80 9A 80 92  .....\.7.\.7....
0290: 00 10 01 80 93 00 10 01  80 26 01 10 01 80 1F 01  .........&......
02A0: 10 01 80 FA 00 10 01 80  FB 00 10 01 80 30 01 10  .............0..
02B0: 01 80 08 01 10 01 80 09  01 10 01 80 17 01 10 01  ................
02C0: 80 CE 00 10 01 80 19 01  10 01 80 03 01 10 01 80  ................
02D0: 02 01 10 01 80 1E 01 10  01 80 B1 00 10 01 80 B2  ................
02E0: 00 10 01 80 2A 01 10 01  80 FE 00 10 01 67 38 80  ....*........g8.
02F0: 39 80 48 3A 80 23 1A 37  03 1A D2 03 1A 46 04 1A  9.H:.#.7.....F..
0300: E0 04 1A 0F 06 1A 11 07  1A 35 07 1A 50 07 02 04  .........5..P...
0310: 00 02 80 00 1C 03 1A DD  09 1A 08 0A 1A 3B 0A 1A  .............;..
0320: CF 0A 1A 8C 0B 1A D6 0B  1A 0D 0D 1A D0 0D 1A 00  ................
0330: 0F 1A C0 0F 01 8C 13 45  3B 80 F8 FF FF 7F F8 FF  .......E;.......
0340: FF 7F 33 30 30 30 02 80  1A 47 EC BA 1E 01 10 01  ..3000...G......
0350: 3C 80 3D 80 13 80 14 80  27 10 1E 01 10 01 06 80  <.=.....'.......
0360: 1E 01 10 01 27 10 FA 00  10 01 05 27 10 CE 00 10  ....'......'....
0370: 01 13 66 3E 80 03 01 10  01 03 01 10 01 77 61 76  ..f>.........wav
0380: 30 1C 36 80 27 10 89 00  10 01 02 1C 3F 80 52 3B  0.6.'.......?.R;
0390: 80 F8 FF FF 7F F8 FF FF  7F 33 30 30 30 45 3B 80  .........3000E;.
03A0: F8 FF FF 7F F8 FF FF 7F  6B 79 6F 31 02 80 1C 40  ........kyo1...@
03B0: 80 27 10 09 01 10 01 03  27 10 1E 01 10 01 03 1C  .'......'.......
03C0: 41 80 52 3B 80 F8 FF FF  7F F8 FF FF 7F 6B 79 6F  A.R;.........kyo
03D0: 31 1B 45 3B 80 F8 FF FF  7F F8 FF FF 7F 33 30 30  1.E;.........300
03E0: 32 02 80 BA 2A 01 10 01  42 80 43 80 02 80 44 80  2...*...B.C...D.
03F0: BA 26 01 10 01 45 80 46  80 47 80 48 80 BA 1F 01  .&...E.F.G.H....
0400: 10 01 49 80 4A 80 4B 80  4C 80 27 10 26 01 10 01  ..I.J.K.L.'.&...
0410: 04 27 10 1F 01 10 01 09  1C 4D 80 27 10 FA 00 10  .'.......M.'....
0420: 01 06 27 10 26 01 10 01  06 1C 4E 80 27 10 1F 01  ..'.&.....N.'...
0430: 10 01 10 1C 41 80 52 3B  80 F8 FF FF 7F F8 FF FF  ....A.R;........
0440: 7F 33 30 30 32 1B 45 3B  80 F8 FF FF 7F F8 FF FF  .3002.E;........
0450: 7F 33 30 30 33 02 80 1C  4F 80 BA FE 00 10 01 50  .3003...O......P
0460: 80 51 80 02 80 52 80 BA  02 01 10 01 53 80 54 80  .Q...R......S.T.
0470: 55 80 56 80 27 10 FE 00  10 01 05 27 10 08 01 10  U.V.'......'....
0480: 01 05 27 10 30 01 10 01  03 27 10 FA 00 10 01 07  ..'.0....'......
0490: 7A 00 CE 00 10 01 27 10  CE 00 10 01 14 BA 30 01  z.....'.......0.
04A0: 10 01 57 80 58 80 34 80  02 80 BA CE 00 10 01 59  ..W.X.4........Y
04B0: 80 5A 80 55 80 2B 80 BA  19 01 10 01 5B 80 5A 80  .Z.U.+......[.Z.
04C0: 55 80 2B 80 4A 19 01 10  01 CE 00 10 01 1C 5C 80  U.+.J.........\.
04D0: 52 3B 80 F8 FF FF 7F F8  FF FF 7F 33 30 30 33 1B  R;.........3003.
04E0: 7A 00 26 01 10 01 7A 00  1F 01 10 01 27 10 2A 01  z.&...z.....'.*.
04F0: 10 01 03 27 10 02 01 10  01 03 45 3B 80 F8 FF FF  ...'......E;....
0500: 7F F8 FF FF 7F 33 30 30  35 02 80 27 10 89 00 10  .....3005..'....
0510: 01 03 BA 08 01 10 01 5D  80 5E 80 55 80 5F 80 80  .......].^.U._..
0520: 08 01 10 01 27 10 08 01  10 01 06 1C 4F 80 27 10  ....'.......O.'.
0530: CE 00 10 01 15 27 10 B1  00 10 01 09 27 10 B2 00  .....'......'...
0540: 10 01 09 1C 60 80 7A 00  1F 01 10 01 27 10 FE 00  ....`.z.....'...
0550: 10 01 06 1C 4E 80 27 10  1F 01 10 01 0E BA 1F 01  ....N.'.........
0560: 10 01 61 80 62 80 02 80  14 80 7A 00 26 01 10 01  ..a.b.....z.&...
0570: 7A 00 1E 01 10 01 27 10  26 01 10 01 07 27 10 1E  z.....'.&....'..
0580: 01 10 01 05 BA 26 01 10  01 63 80 64 80 24 80 25  .....&...c.d.$.%
0590: 80 BA FA 00 10 01 65 80  66 80 24 80 2B 80 BA 09  ......e.f.$.+...
05A0: 01 10 01 67 80 68 80 34  80 02 80 BA 1E 01 10 01  ...g.h.4........
05B0: 67 80 69 80 34 80 02 80  BA 17 01 10 01 6A 80 6B  g.i.4........j.k
05C0: 80 34 80 2B 80 4A 26 01  10 01 FA 00 10 01 4A FA  .4.+.J&.......J.
05D0: 00 10 01 26 01 10 01 7B  17 01 10 01 7B 1F 01 10  ...&...{....{...
05E0: 01 1C 6C 80 27 10 1F 01  10 01 0B 2A 10 CE 00 10  ..l.'......*....
05F0: 01 27 10 CE 00 10 01 16  27 10 19 01 10 01 03 52  .'......'......R
0600: 3B 80 F8 FF FF 7F F8 FF  FF 7F 33 30 30 35 1B 7A  ;.........3005.z
0610: 00 1F 01 10 01 7A 00 CE  00 10 01 7A 00 19 01 10  .....z.....z....
0620: 01 80 93 00 10 01 27 10  1E 01 10 01 04 27 10 09  ......'......'..
0630: 01 10 01 04 1C 4F 80 27  10 93 00 10 01 0C 45 3B  .....O.'......E;
0640: 80 F8 FF FF 7F F8 FF FF  7F 33 30 30 36 02 80 27  .........3006..'
0650: 10 89 00 10 01 04 29 10  26 01 10 01 08 27 10 26  ......).&....'.&
0660: 01 10 01 09 27 10 FA 00  10 01 09 1C 4F 80 7A 00  ....'.......O.z.
0670: FE 00 10 01 7A 00 03 01  10 01 7A 00 08 01 10 01  ....z.....z.....
0680: 7A 00 B1 00 10 01 7A 00  B2 00 10 01 1C 03 80 BA  z.....z.........
0690: 03 01 10 01 6D 80 6E 80  24 80 02 80 BA FE 00 10  ....m.n.$.......
06A0: 01 6F 80 70 80 24 80 02  80 BA 08 01 10 01 71 80  .o.p.$........q.
06B0: 72 80 24 80 02 80 BA B1  00 10 01 73 80 74 80 24  r.$........s.t.$
06C0: 80 02 80 BA B2 00 10 01  75 80 76 80 24 80 02 80  ........u.v.$...
06D0: 27 10 B2 00 10 01 0C 27  10 03 01 10 01 05 27 10  '......'......'.
06E0: 08 01 10 01 09 27 10 FE  00 10 01 08 27 10 30 01  .....'......'.0.
06F0: 10 01 04 27 10 B1 00 10  01 0A 27 10 B2 00 10 01  ...'......'.....
0700: 0A 52 3B 80 F8 FF FF 7F  F8 FF FF 7F 33 30 30 36  .R;.........3006
0710: 1B 45 3B 80 F8 FF FF 7F  F8 FF FF 7F 33 30 30 37  .E;.........3007
0720: 02 80 55 3B 80 F8 FF FF  7F F8 FF FF 7F 33 30 30  ..U;.........300
0730: 37 1C 36 80 1B 5D 02 80  77 80 7A 00 92 00 10 01  7.6..]..w.z.....
0740: 6B 69 64 6C 30 CE 00 10  01 1A 68 EC 1C 36 80 1B  kidl0.....h..6..
0750: 45 3B 80 F8 FF FF 7F F8  FF FF 7F 30 30 30 30 02  E;.........0000.
0760: 80 7A 00 17 01 10 01 7A  00 CE 00 10 01 7A 00 FA  .z.....z.....z..
0770: 00 10 01 7A 00 FB 00 10  01 7A 00 30 01 10 01 7A  ...z.....z.0...z
0780: 00 FE 00 10 01 7A 00 03  01 10 01 7A 00 08 01 10  .....z.....z....
0790: 01 7A 00 B1 00 10 01 7A  00 B2 00 10 01 7A 00 93  .z.....z.....z..
07A0: 00 10 01 7A 00 2A 01 10  01 7A 00 FE 00 10 01 7A  ...z.*...z.....z
07B0: 00 26 01 10 01 7A 00 02  01 10 01 7A 00 1F 01 10  .&...z.....z....
07C0: 01 1C 03 80 27 10 17 01  10 01 08 27 10 CE 00 10  ....'......'....
07D0: 01 14 27 10 FB 00 10 01  04 02 87 7F 60 80 00 EB  ..'.........`...
07E0: 07 27 10 B2 00 10 01 0F  01 F2 07 27 10 B2 00 10  .'.........'....
07F0: 01 10 27 10 FE 00 10 01  05 27 10 26 01 10 01 0A  ..'......'.&....
0800: 27 10 02 01 10 01 07 BA  92 00 10 01 78 80 79 80  '...........x.y.
0810: 34 80 2B 80 BA 17 01 10  01 7A 80 7B 80 34 80 7C  4.+......z.{.4.|
0820: 80 BA CE 00 10 01 7D 80  7E 80 34 80 7F 80 BA 19  ......}.~.4.....
0830: 01 10 01 80 80 81 80 34  80 82 80 4A 92 00 10 01  .......4...J....
0840: CE 00 10 01 7B 92 00 10  01 4A 17 01 10 01 92 00  ....{....J......
0850: 10 01 7B 17 01 10 01 4A  CE 00 10 01 92 00 10 01  ..{....J........
0860: 7B CE 00 10 01 BA 93 00  10 01 83 80 84 80 34 80  {.............4.
0870: 85 80 BA 08 01 10 01 86  80 87 80 34 80 02 80 BA  ...........4....
0880: FE 00 10 01 88 80 89 80  34 80 02 80 48 8A 80 23  ........4...H..#
0890: 4A 93 00 10 01 08 01 10  01 7B 93 00 10 01 4A 08  J........{....J.
08A0: 01 10 01 93 00 10 01 7B  08 01 10 01 4A FE 00 10  .......{....J...
08B0: 01 93 00 10 01 7B FE 00  10 01 66 8B 80 93 00 10  .....{....f.....
08C0: 01 93 00 10 01 74 6C 73  30 BA FA 00 10 01 8C 80  .....tls0.......
08D0: 8D 80 34 80 02 80 BA FB  00 10 01 8E 80 8F 80 34  ..4............4
08E0: 80 02 80 BA B1 00 10 01  90 80 91 80 92 80 93 80  ................
08F0: BA B2 00 10 01 94 80 95  80 92 80 96 80 BA 2A 01  ..............*.
0900: 10 01 97 80 98 80 34 80  99 80 BA 1F 01 10 01 9A  ......4.........
0910: 80 9B 80 34 80 25 80 4E  01 02 01 10 01 27 10 2A  ...4.%.N.....'.*
0920: 01 10 01 05 27 10 1F 01  10 01 0C 27 10 09 01 10  ....'......'....
0930: 01 06 80 92 00 10 01 80  17 01 10 01 80 CE 00 10  ................
0940: 01 80 19 01 10 01 68 48  9C 80 23 5C 00 9D 80 5C  ......hH..#\...\
0950: 01 9D 80 9A 02 04 00 02  80 00 8F 09 45 3B 80 F8  ............E;..
0960: FF FF 7F F8 FF FF 7F 31  36 30 31 02 80 1C 60 80  .......1601...`.
0970: 27 10 F0 FF FF 7F 14 1A  47 EC 1C 9E 80 52 3B 80  '.......G....R;.
0980: F8 FF FF 7F F8 FF FF 7F  31 36 30 31 01 DC 09 45  ........1601...E
0990: 3B 80 F8 FF FF 7F F8 FF  FF 7F 74 65 6E 30 02 80  ;.........ten0..
09A0: 1C 4E 80 1A 47 EC CD 9F  80 F0 FF FF 7F F0 FF FF  .N..G...........
09B0: 7F 6D 61 69 6E 02 80 1C  4D 80 92 00 F0 FF FF 7F  .main...M.......
09C0: 1C 36 80 27 05 F0 FF FF  7F 05 1C A0 80 52 3B 80  .6.'.........R;.
09D0: F8 FF FF 7F F8 FF FF 7F  74 65 6E 30 1B 45 3B 80  ........ten0.E;.
09E0: F8 FF FF 7F F8 FF FF 7F  31 34 31 38 02 80 27 10  ........1418..'.
09F0: B1 00 10 01 0C 1C 9E 80  52 3B 80 F8 FF FF 7F F8  ........R;......
0A00: FF FF 7F 31 34 31 38 1B  45 3B 80 F8 FF FF 7F F8  ...1418.E;......
0A10: FF FF 7F 31 34 31 39 02  80 1C 36 80 4E 01 03 01  ...1419...6.N...
0A20: 10 01 1C 5C 80 7A 00 F0  FF FF 7F 52 3B 80 F8 FF  ...\.z.....R;...
0A30: FF 7F F8 FF FF 7F 31 34  31 39 1B 45 3B 80 F8 FF  ......1419.E;...
0A40: FF 7F F8 FF FF 7F 31 36  30 39 02 80 BA F0 FF FF  ......1609......
0A50: 7F A1 80 A2 80 34 80 A3  80 1C 5C 80 4A 92 00 10  .....4....\.J...
0A60: 01 F0 FF FF 7F 7B 92 00  10 01 6F 76 92 00 10 01  .....{....ov....
0A70: 5B A4 80 92 00 10 01 92  00 10 01 77 61 76 30 03  [..........wav0.
0A80: 02 10 A5 80 27 10 B0 00  10 01 09 27 10 B2 00 10  ....'......'....
0A90: 01 0D 2B 92 00 10 01 A6  80 1C 4E 80 79 00 F0 FF  ..+.......N.y...
0AA0: FF 7F 92 00 10 01 1C 36  80 23 4A F0 FF FF 7F 92  .......6.#J.....
0AB0: 00 10 01 6F 76 F0 FF FF  7F 2A 10 B0 00 10 01 52  ...ov....*.....R
0AC0: 3B 80 F8 FF FF 7F F8 FF  FF 7F 31 36 30 39 1B 45  ;.........1609.E
0AD0: 3B 80 F8 FF FF 7F F8 FF  FF 7F 31 36 31 30 02 80  ;.........1610..
0AE0: 7A 00 02 01 10 01 1C 03  80 BA F0 FF FF 7F A7 80  z...............
0AF0: A8 80 34 80 A9 80 BA 92  00 10 01 AA 80 AB 80 34  ..4............4
0B00: 80 AC 80 7A 00 1F 01 10  01 7A 00 30 01 10 01 1C  ...z.....z.0....
0B10: 03 80 BA 1F 01 10 01 AD  80 AE 80 92 80 AF 80 BA  ................
0B20: 30 01 10 01 B0 80 B1 80  B2 80 2B 80 27 10 30 01  0.........+.'.0.
0B30: 10 01 03 27 10 F0 FF FF  7F 15 27 10 92 00 10 01  ...'......'.....
0B40: 0D 1C 3F 80 27 10 17 01  10 01 09 27 10 CE 00 10  ..?.'......'....
0B50: 01 17 27 10 19 01 10 01  05 2A 10 92 00 10 01 4A  ..'......*.....J
0B60: 92 00 10 01 F0 FF FF 7F  7B 92 00 10 01 2A 10 F0  ........{....*..
0B70: FF FF 7F 4A F0 FF FF 7F  92 00 10 01 52 3B 80 F8  ...J........R;..
0B80: FF FF 7F F8 FF FF 7F 31  36 31 30 1B 45 3B 80 F8  .......1610.E;..
0B90: FF FF 7F F8 FF FF 7F 31  36 31 31 02 80 5B A4 80  .......1611..[..
0BA0: 92 00 10 01 92 00 10 01  74 6C 6B 30 03 02 10 38  ........tlk0...8
0BB0: 80 27 10 B0 00 10 01 09  2B 92 00 10 01 B3 80 23  .'......+......#
0BC0: 2A 10 B0 00 10 01 52 3B  80 F8 FF FF 7F F8 FF FF  *.....R;........
0BD0: 7F 31 36 31 31 1B 5B A4  80 92 00 10 01 92 00 10  .1611.[.........
0BE0: 01 74 6C 6B 31 1C 60 80  45 3B 80 F8 FF FF 7F F8  .tlk1.`.E;......
0BF0: FF FF 7F 31 36 31 32 02  80 27 10 B2 00 10 01 0E  ...1612..'......
0C00: 1C 36 80 29 10 F0 FF FF  7F 10 1C B4 80 03 02 10  .6.)............
0C10: B5 80 27 10 B0 00 10 01  09 5B A4 80 92 00 10 01  ..'......[......
0C20: 92 00 10 01 79 65 73 30  2B 92 00 10 01 B6 80 23  ....yes0+......#
0C30: 2A 10 B0 00 10 01 52 3B  80 F8 FF FF 7F F8 FF FF  *.....R;........
0C40: 7F 31 36 31 32 45 3B 80  F8 FF FF 7F F8 FF FF 7F  .1612E;.........
0C50: 33 30 31 31 02 80 1C 4E  80 27 10 B1 00 10 01 0D  3011...N.'......
0C60: 81 00 92 00 10 01 5B A4  80 92 00 10 01 92 00 10  ......[.........
0C70: 01 6A 6F 79 30 03 02 10  B7 80 27 10 B0 00 10 01  .joy0.....'.....
0C80: 09 2B 92 00 10 01 B8 80  23 2B 92 00 10 01 B9 80  .+......#+......
0C90: 23 2A 10 B0 00 10 01 5B  A4 80 92 00 10 01 92 00  #*.....[........
0CA0: 10 01 6A 6F 79 31 81 01  92 00 10 01 2B 92 00 10  ..joy1......+...
0CB0: 01 BA 80 23 53 92 00 10  01 92 00 10 01 6A 6F 79  ...#S........joy
0CC0: 31 4E 01 F0 FF FF 7F 79  00 CE 00 10 01 92 00 10  1N.....y........
0CD0: 01 5B A4 80 92 00 10 01  92 00 10 01 74 6C 6B 30  .[..........tlk0
0CE0: 03 02 10 4D 80 27 10 B0  00 10 01 09 1C 36 80 2B  ...M.'.......6.+
0CF0: 92 00 10 01 BB 80 23 2A  10 B0 00 10 01 52 3B 80  ......#*.....R;.
0D00: F8 FF FF 7F F8 FF FF 7F  33 30 31 31 1B 45 3B 80  ........3011.E;.
0D10: F8 FF FF 7F F8 FF FF 7F  33 30 31 32 02 80 7A 00  ........3012..z.
0D20: 09 01 10 01 1C 03 80 BA  09 01 10 01 BC 80 BD 80  ................
0D30: 34 80 BE 80 66 8B 80 93  00 10 01 93 00 10 01 74  4...f..........t
0D40: 6C 73 31 79 00 19 01 10  01 92 00 10 01 5B A4 80  ls1y.........[..
0D50: 92 00 10 01 92 00 10 01  6D 61 72 75 03 02 10 BF  ........maru....
0D60: 80 27 10 B0 00 10 01 09  2B 92 00 10 01 C0 80 23  .'......+......#
0D70: 2A 10 B0 00 10 01 52 3B  80 F8 FF FF 7F F8 FF FF  *.....R;........
0D80: 7F 33 30 31 32 45 3B 80  F8 FF FF 7F F8 FF FF 7F  .3012E;.........
0D90: 33 30 31 30 02 80 81 01  92 00 10 01 7C 01 92 00  3010........|...
0DA0: 10 01 1C 4E 80 4E 00 F0  FF FF 7F 2B 92 00 10 01  ...N.N.....+....
0DB0: C1 80 23 BA 26 01 10 01  C2 80 C3 80 34 80 C4 80  ..#.&.......4...
0DC0: 52 3B 80 F8 FF FF 7F F8  FF FF 7F 33 30 31 30 1B  R;.........3010.
0DD0: 7A 00 2A 01 10 01 1C 03  80 BA B2 00 10 01 C5 80  z.*.............
0DE0: C6 80 34 80 C4 80 27 10  B2 00 10 01 0B 45 3B 80  ..4...'......E;.
0DF0: F8 FF FF 7F F8 FF FF 7F  31 36 31 34 02 80 27 10  ........1614..'.
0E00: 26 01 10 01 0D 5B A4 80  92 00 10 01 92 00 10 01  &....[..........
0E10: 74 6C 6B 30 03 02 10 38  80 27 10 B0 00 10 01 09  tlk0...8.'......
0E20: 2B 92 00 10 01 C7 80 23  2A 10 B0 00 10 01 79 00  +......#*.....y.
0E30: CE 00 10 01 F0 FF FF 7F  5B A4 80 92 00 10 01 92  ........[.......
0E40: 00 10 01 74 6C 6B 31 2B  92 00 10 01 C8 80 23 53  ...tlk1+......#S
0E50: 92 00 10 01 92 00 10 01  74 6C 6B 31 5B A4 80 92  ........tlk1[...
0E60: 00 10 01 92 00 10 01 77  61 76 30 03 02 10 A5 80  .......wav0.....
0E70: 27 10 B0 00 10 01 09 2B  92 00 10 01 C9 80 23 27  '......+......#'
0E80: 10 17 01 10 01 0A 27 10  19 01 10 01 06 2A 10 B0  ......'......*..
0E90: 00 10 01 4B 92 00 10 01  02 80 6F 76 92 00 10 01  ...K......ov....
0EA0: 27 10 92 00 10 01 0E 27  10 CE 00 10 01 18 1C 36  '......'.......6
0EB0: 80 BA 02 01 10 01 CA 80  CB 80 CC 80 2B 80 27 10  ............+.'.
0EC0: 30 01 10 01 07 27 10 02  01 10 01 05 27 10 09 01  0....'......'...
0ED0: 10 01 07 7A 00 B2 00 10  01 1C 03 80 BA B2 00 10  ...z............
0EE0: 01 C5 80 C6 80 34 80 C4  80 27 10 B2 00 10 01 0B  .....4...'......
0EF0: 52 3B 80 F8 FF FF 7F F8  FF FF 7F 31 36 31 34 1B  R;.........1614.
0F00: 45 3B 80 F8 FF FF 7F F8  FF FF 7F 33 30 31 33 02  E;.........3013.
0F10: 80 7A 00 26 01 10 01 2A  10 92 00 10 01 1C 36 80  .z.&...*......6.
0F20: 5B A4 80 92 00 10 01 92  00 10 01 77 61 76 31 03  [..........wav1.
0F30: 02 10 CD 80 27 10 B0 00  10 01 09 1C 4D 80 6E F0  ....'.......M.n.
0F40: FF FF 7F CE 80 99 F0 FF  FF 7F 2A 10 B0 00 10 01  ..........*.....
0F50: BA 08 01 10 01 CF 80 D0  80 34 80 02 80 BA FE 00  .........4......
0F60: 10 01 D1 80 D2 80 34 80  02 80 27 10 08 01 10 01  ......4...'.....
0F70: 0A 27 10 FE 00 10 01 09  27 10 92 00 10 01 0F 1C  .'......'.......
0F80: A0 80 BA 2A 01 10 01 D3  80 D4 80 24 80 99 80 4E  ...*.......$...N
0F90: 01 26 01 10 01 BA 93 00  10 01 D5 80 D6 80 34 80  .&............4.
0FA0: A9 80 27 10 2A 01 10 01  06 55 3B 80 F8 FF FF 7F  ..'.*....U;.....
0FB0: F8 FF FF 7F 33 30 31 33  27 10 93 00 10 01 0D 1B  ....3013'.......
0FC0: 02 87 7F 03 80 80 DC 0F  45 3B 80 F8 FF FF 7F F8  ........E;......
0FD0: FF FF 7F 73 30 31 31 02  80 01 A0 10 02 87 7F 04  ...s011.........
0FE0: 80 80 F8 0F 45 3B 80 F8  FF FF 7F F8 FF FF 7F 73  ....E;.........s
0FF0: 30 31 31 02 80 01 A0 10  02 87 7F D7 80 80 14 10  011.............
1000: 45 3B 80 F8 FF FF 7F F8  FF FF 7F 73 30 31 31 02  E;.........s011.
1010: 80 01 A0 10 02 87 7F D8  80 80 30 10 45 3B 80 F8  ..........0.E;..
1020: FF FF 7F F8 FF FF 7F 73  30 31 31 02 80 01 A0 10  .......s011.....
1030: 02 87 7F 60 80 80 4C 10  45 3B 80 F8 FF FF 7F F8  ...`..L.E;......
1040: FF FF 7F 73 30 31 35 02  80 01 A0 10 02 87 7F D9  ...s015.........
1050: 80 80 68 10 45 3B 80 F8  FF FF 7F F8 FF FF 7F 73  ..h.E;.........s
1060: 30 31 35 02 80 01 A0 10  02 87 7F DA 80 80 84 10  015.............
1070: 45 3B 80 F8 FF FF 7F F8  FF FF 7F 73 30 31 31 02  E;.........s011.
1080: 80 01 A0 10 02 87 7F CE  80 80 A0 10 45 3B 80 F8  ............E;..
1090: FF FF 7F F8 FF FF 7F 73  30 31 38 02 80 01 A0 10  .......s018.....
10A0: 7A 00 09 01 10 01 1C 03  80 BA 09 01 10 01 DB 80  z...............
10B0: DC 80 34 80 2B 80 27 10  09 01 10 01 08 99 F0 FF  ..4.+.'.........
10C0: FF 7F 1C A0 80 55 3B 80  F8 FF FF 7F F8 FF FF 7F  .....U;.........
10D0: 73 30 31 31 55 3B 80 F8  FF FF 7F F8 FF FF 7F 73  s011U;.........s
10E0: 30 31 32 55 3B 80 F8 FF  FF 7F F8 FF FF 7F 73 30  012U;.........s0
10F0: 31 33 55 3B 80 F8 FF FF  7F F8 FF FF 7F 73 30 31  13U;.........s01
1100: 34 55 3B 80 F8 FF FF 7F  F8 FF FF 7F 73 30 31 35  4U;.........s015
1110: 55 3B 80 F8 FF FF 7F F8  FF FF 7F 73 30 31 37 55  U;.........s017U
1120: 3B 80 F8 FF FF 7F F8 FF  FF 7F 73 30 31 38 27 10  ;.........s018'.
1130: 2A 01 10 01 07 7A 00 92  00 10 01 7A 00 17 01 10  *....z.....z....
1140: 01 7A 00 CE 00 10 01 7A  00 19 01 10 01 1C 03 80  .z.....z........
1150: 27 10 92 00 10 01 05 4E  01 17 01 10 01 27 10 CE  '......N.....'..
1160: 00 10 01 12 BA CE 00 10  01 DD 80 B1 80 02 80 02  ................
1170: 80 4E 01 19 01 10 01 7A  00 30 01 10 01 7A 00 02  .N.....z.0...z..
1180: 01 10 01 1C 03 80 BA 30  01 10 01 DE 80 DF 80 34  .......0.......4
1190: 80 2B 80 BA 02 01 10 01  DE 80 E0 80 34 80 2B 80  .+..........4.+.
11A0: 27 10 30 01 10 01 06 27  10 02 01 10 01 08 2A 10  '.0....'......*.
11B0: 93 00 10 01 66 8B 80 93  00 10 01 93 00 10 01 74  ....f..........t
11C0: 6C 73 30 2B 93 00 10 01  E1 80 23 45 3B 80 F8 FF  ls0+......#E;...
11D0: FF 7F F8 FF FF 7F 33 30  31 35 02 80 66 8B 80 93  ......3015..f...
11E0: 00 10 01 93 00 10 01 74  6C 73 31 7B F0 FF FF 7F  .......tls1{....
11F0: 4B F0 FF FF 7F E2 80 27  10 93 00 10 01 0E 2A 10  K......'......*.
1200: 93 00 10 01 4A 93 00 10  01 F0 FF FF 7F 7B 93 00  ....J........{..
1210: 10 01 66 8B 80 93 00 10  01 93 00 10 01 74 6C 73  ..f..........tls
1220: 30 2B 93 00 10 01 E3 80  23 66 8B 80 93 00 10 01  0+......#f......
1230: 93 00 10 01 74 6C 73 31  1C 36 80 29 10 F0 FF FF  ....tls1.6.)....
1240: 7F 10 1C 4D 80 52 3B 80  F8 FF FF 7F F8 FF FF 7F  ...M.R;.........
1250: 33 30 31 35 45 3B 80 F8  FF FF 7F F8 FF FF 7F 31  3015E;.........1
1260: 36 31 38 02 80 1C 03 80  BA 03 01 10 01 E4 80 E5  618.............
1270: 80 34 80 02 80 66 8B 80  93 00 10 01 93 00 10 01  .4...f..........
1280: 74 6C 73 30 2B 93 00 10  01 E6 80 23 1C 36 80 4E  tls0+......#.6.N
1290: 00 03 01 10 01 2B 93 00  10 01 E7 80 23 52 3B 80  .....+......#R;.
12A0: F8 FF FF 7F F8 FF FF 7F  31 36 31 38 45 3B 80 F8  ........1618E;..
12B0: FF FF 7F F8 FF FF 7F 31  36 31 39 02 80 66 8B 80  .......1619..f..
12C0: 93 00 10 01 93 00 10 01  74 6C 73 31 2B 93 00 10  ........tls1+...
12D0: 01 E8 80 23 27 10 03 01  10 01 06 4E 01 B2 00 10  ...#'......N....
12E0: 01 BA B1 00 10 01 E9 80  EA 80 34 80 02 80 27 10  ..........4...'.
12F0: B1 00 10 01 0B 27 10 30  01 10 01 08 27 10 02 01  .....'.0....'...
1300: 10 01 06 27 10 09 01 10  01 07 27 10 CE 00 10 01  ...'......'.....
1310: 1B 53 93 00 10 01 93 00  10 01 74 6C 73 31 4B 93  .S........tls1K.
1320: 00 10 01 EB 80 1C 41 80  52 3B 80 F8 FF FF 7F F8  ......A.R;......
1330: FF FF 7F 31 36 31 39 45  3B 80 F8 FF FF 7F F8 FF  ...1619E;.......
1340: FF 7F 31 36 32 30 02 80  6F 76 93 00 10 01 66 EC  ..1620..ov....f.
1350: 80 93 00 10 01 93 00 10  01 70 6E 74 30 03 02 10  .........pnt0...
1360: A0 80 27 10 B0 00 10 01  09 1C ED 80 4B F0 FF FF  ..'.........K...
1370: 7F A9 80 2A 10 B0 00 10  01 1C 77 80 52 3B 80 F8  ...*......w.R;..
1380: FF FF 7F F8 FF FF 7F 31  36 32 30 1B 1A 68 EC 1C  .......1620..h..
1390: 36 80 52 3B 80 F8 FF FF  7F F8 FF FF 7F 31 36 32  6.R;.........162
13A0: 30 45 3B 80 F8 FF FF 7F  F8 FF FF 7F 30 30 30 30  0E;.........0000
13B0: 02 80 7A 00 FE 00 10 01  7A 00 08 01 10 01 7A 00  ..z.....z.....z.
13C0: 03 01 10 01 7A 00 09 01  10 01 7A 00 02 01 10 01  ....z.....z.....
13D0: 7A 00 30 01 10 01 7A 00  B1 00 10 01 27 10 93 00  z.0...z.....'...
13E0: 10 01 0B 27 10 FA 00 10  01 0A 27 10 FB 00 10 01  ...'......'.....
13F0: 04 27 10 30 01 10 01 09  27 10 08 01 10 01 0B 27  .'.0....'......'
1400: 10 09 01 10 01 09 27 10  1E 01 10 01 07 27 10 26  ......'......'.&
1410: 01 10 01 0F 27 10 1F 01  10 01 0F 27 10 02 01 10  ....'......'....
1420: 01 09 27 10 03 01 10 01  08 27 10 17 01 10 01 08  ..'......'......
1430: 27 10 CE 00 10 01 0C 27  10 19 01 10 01 04 27 10  '......'......'.
1440: B2 00 10 01 10 27 10 FE  00 10 01 0A 80 93 00 10  .....'..........
1450: 01 80 26 01 10 01 80 1F  01 10 01 80 FA 00 10 01  ..&.............
1460: 80 FB 00 10 01 80 30 01  10 01 80 08 01 10 01 80  ......0.........
1470: 09 01 10 01 80 17 01 10  01 80 CE 00 10 01 80 19  ................
1480: 01 10 01 80 03 01 10 01  80 02 01 10 01 80 1E 01  ................
1490: 10 01 80 B1 00 10 01 80  B2 00 10 01 80 2A 01 10  .............*..
14A0: 01 80 FE 00 10 01 78 1C  3F 80 1C 4E 80 AB 11 02  ......x.?..N....
14B0: 80 1C 03 80 46 00 45 EE  80 F0 FF FF 7F F0 FF FF  ....F.E.........
14C0: 7F 66 64 69 32 02 80 21  00                       .fdi2..!.       
```

#### Opcodes

```
  0: 0x0001 [0x42] SET_CLI_EVENT_CANCEL_DATA()
  1: 0x0002 [0x1A] CALL_SUBROUTINE(address=0xEC68)
  2: 0x0005 [0x46] CAMERA_CONTROL: Disable user control
  3: 0x0007 [0x38] SET_CLIENT_EVENT_MODE(mode=147*)
  4: 0x000A [0x4E] SET_ENTITY_HIDE_FLAG: Show LocalPlayer
  5: 0x0010 [0x77] SET_EVENT_TIME_WEATHER(hour=255*, weather=0*)
  6: 0x0015 [0x03] Work_Zone[1] = 1*
  7: 0x001A [0x43] SEND_EVENT_UPDATE: Send pending tag to server (packet 0x005B)
  8: 0x001C [0x43] SEND_EVENT_UPDATE: Check pending flag (skip if not pending)
  9: 0x001E [0x03] ExtData[1]->WorkLocal[4] = Work_Zone[2]
 10: 0x0023 [0x02] IF !(Work_Zone[9] == 1*) GOTO 0x0033
 11: 0x002B [0x03] ExtData[1]->WorkLocal[4] = 1*
 12: 0x0030 [0x01] GOTO 0x0040
 13: 0x0033 [0x02] IF !(Work_Zone[9] == 2*) GOTO 0x0040
 14: 0x003B [0x03] ExtData[1]->WorkLocal[4] = 0*

SUBROUTINE_0040:
 15: 0x0040 [0xBA] SET_ENTITY_POSITION(entity_id=Jorin (ID: 17826086/0x01100126), pos_x=105.930*, pos_z=148.510*, pos_y=30.000*, direction=41.9*)
 16: 0x004D [0xBA] SET_ENTITY_POSITION(entity_id=Andrival (ID: 17826079/0x0110011F), pos_x=105.577*, pos_z=147.851*, pos_y=30.001*, direction=39.3*)
 17: 0x005A [0xBA] SET_ENTITY_POSITION(entity_id=Delionna (ID: 17826090/0x0110012A), pos_x=118.082*, pos_z=124.606*, pos_y=32.000*, direction=60.7*)
 18: 0x0067 [0x27] REQ_SET(priority=0x10, entity_id=Andrival (ID: 17826079/0x0110011F), tag_num=0x0A)
 19: 0x006E [0x80] LOAD_WAIT(entity=Jorin (ID: 17826086/0x01100126))
 20: 0x0073 [0x80] LOAD_WAIT(entity=Andrival (ID: 17826079/0x0110011F))
 21: 0x0078 [0x27] REQ_SET(priority=0x10, entity_id=Jorin (ID: 17826086/0x01100126), tag_num=0x03)
 22: 0x007F [0x27] REQ_SET(priority=0x10, entity_id=Andrival (ID: 17826079/0x0110011F), tag_num=0x08)
 23: 0x0086 [0x2F] Distrova (ID: 17825998/0x011000CE)->Render.Flags0 &= ~0x80000 // Bit 19
 24: 0x008C [0x4E] SET_ENTITY_HIDE_FLAG: Show Distrova (ID: 17825998/0x011000CE)
 25: 0x0092 [0xBA] SET_ENTITY_POSITION(entity_id=Volgoi (ID: 17826042/0x011000FA), pos_x=47.283*, pos_z=115.876*, pos_y=31.999*, direction=135.0*)
 26: 0x009F [0xBA] SET_ENTITY_POSITION(entity_id=Aindemont (ID: 17826096/0x01100130), pos_x=46.088*, pos_z=113.535*, pos_y=31.999*, direction=337.5*)
 27: 0x00AC [0xBA] SET_ENTITY_POSITION(entity_id=Vaulois (ID: 17826057/0x01100109), pos_x=50.067*, pos_z=124.905*, pos_y=31.999*, direction=135.0*)
 28: 0x00B9 [0xBA] SET_ENTITY_POSITION(entity_id=Clemmar (ID: 17826056/0x01100108), pos_x=74.860*, pos_z=153.638*, pos_y=31.999*, direction=135.0*)
 29: 0x00C6 [0xBA] SET_ENTITY_POSITION(entity_id=Merleg (ID: 17826071/0x01100117), pos_x=47.165*, pos_z=124.154*, pos_y=31.999*, direction=86.7*)
 30: 0x00D3 [0xBA] SET_ENTITY_POSITION(entity_id=Distrova (ID: 17825998/0x011000CE), pos_x=45.389*, pos_z=123.281*, pos_y=31.999*, direction=315.0*)
 31: 0x00E0 [0xBA] SET_ENTITY_POSITION(entity_id=Brenna (ID: 17825939/0x01100093), pos_x=176.000*, pos_z=-8.000*, pos_y=4.000*, direction=180.0*)
 32: 0x00ED [0xBA] SET_ENTITY_POSITION(entity_id=Unnamed NPC (ID: 17825969/0x011000B1), pos_x=40.714*, pos_z=-6.815*, pos_y=0.000*, direction=157.5*)
 33: 0x00FA [0xBA] SET_ENTITY_POSITION(entity_id=Unnamed NPC (ID: 17825970/0x011000B2), pos_x=8.000*, pos_z=-40.000*, pos_y=0.000*, direction=90.0*)
 34: 0x0107 [0xBA] SET_ENTITY_POSITION(entity_id=Behff Oibbah (ID: 17826051/0x01100103), pos_x=13.491*, pos_z=2.055*, pos_y=0.000*, direction=22.5*)
 35: 0x0114 [0x92] Tiana (ID: 17825938/0x01100092)->Render.Flags3 ^= 0x01
 36: 0x011A [0x92] Brenna (ID: 17825939/0x01100093)->Render.Flags3 ^= 0x01
 37: 0x0120 [0x92] Jorin (ID: 17826086/0x01100126)->Render.Flags3 ^= 0x01
 38: 0x0126 [0x92] Andrival (ID: 17826079/0x0110011F)->Render.Flags3 ^= 0x01
 39: 0x012C [0x92] Volgoi (ID: 17826042/0x011000FA)->Render.Flags3 ^= 0x01
 40: 0x0132 [0x92] Rising Solstice (ID: 17826043/0x011000FB)->Render.Flags3 ^= 0x01
 41: 0x0138 [0x92] Aindemont (ID: 17826096/0x01100130)->Render.Flags3 ^= 0x01
 42: 0x013E [0x92] Clemmar (ID: 17826056/0x01100108)->Render.Flags3 ^= 0x01
 43: 0x0144 [0x92] Vaulois (ID: 17826057/0x01100109)->Render.Flags3 ^= 0x01
 44: 0x014A [0x92] Merleg (ID: 17826071/0x01100117)->Render.Flags3 ^= 0x01
 45: 0x0150 [0x92] Distrova (ID: 17825998/0x011000CE)->Render.Flags3 ^= 0x01
 46: 0x0156 [0x92] Clautaire (ID: 17826073/0x01100119)->Render.Flags3 ^= 0x01
 47: 0x015C [0x92] Behff Oibbah (ID: 17826051/0x01100103)->Render.Flags3 ^= 0x01
 48: 0x0162 [0x92] Mosil-Nosil (ID: 17826050/0x01100102)->Render.Flags3 ^= 0x01
 49: 0x0168 [0x92] Safrick (ID: 17826078/0x0110011E)->Render.Flags3 ^= 0x01
 50: 0x016E [0x92] Unnamed NPC (ID: 17825969/0x011000B1)->Render.Flags3 ^= 0x01
 51: 0x0174 [0x92] Unnamed NPC (ID: 17825970/0x011000B2)->Render.Flags3 ^= 0x01
 52: 0x017A [0x92] Delionna (ID: 17826090/0x0110012A)->Render.Flags3 ^= 0x01
 53: 0x0180 [0x92] Zaoso (ID: 17826046/0x011000FE)->Render.Flags3 ^= 0x01
 54: 0x0186 [0x94] Tiana (ID: 17825938/0x01100092)->Render.Flags3 ^= 0x01
 55: 0x018C [0x94] Brenna (ID: 17825939/0x01100093)->Render.Flags3 ^= 0x01
 56: 0x0192 [0x94] Jorin (ID: 17826086/0x01100126)->Render.Flags3 ^= 0x01
 57: 0x0198 [0x94] Andrival (ID: 17826079/0x0110011F)->Render.Flags3 ^= 0x01
 58: 0x019E [0x94] Volgoi (ID: 17826042/0x011000FA)->Render.Flags3 ^= 0x01
 59: 0x01A4 [0x94] Rising Solstice (ID: 17826043/0x011000FB)->Render.Flags3 ^= 0x01
 60: 0x01AA [0x94] Aindemont (ID: 17826096/0x01100130)->Render.Flags3 ^= 0x01
 61: 0x01B0 [0x94] Clemmar (ID: 17826056/0x01100108)->Render.Flags3 ^= 0x01
 62: 0x01B6 [0x94] Vaulois (ID: 17826057/0x01100109)->Render.Flags3 ^= 0x01
 63: 0x01BC [0x94] Merleg (ID: 17826071/0x01100117)->Render.Flags3 ^= 0x01
 64: 0x01C2 [0x94] Distrova (ID: 17825998/0x011000CE)->Render.Flags3 ^= 0x01
 65: 0x01C8 [0x94] Clautaire (ID: 17826073/0x01100119)->Render.Flags3 ^= 0x01
 66: 0x01CE [0x94] Behff Oibbah (ID: 17826051/0x01100103)->Render.Flags3 ^= 0x01
 67: 0x01D4 [0x94] Mosil-Nosil (ID: 17826050/0x01100102)->Render.Flags3 ^= 0x01
 68: 0x01DA [0x94] Safrick (ID: 17826078/0x0110011E)->Render.Flags3 ^= 0x01
 69: 0x01E0 [0x94] Unnamed NPC (ID: 17825969/0x011000B1)->Render.Flags3 ^= 0x01
 70: 0x01E6 [0x94] Unnamed NPC (ID: 17825970/0x011000B2)->Render.Flags3 ^= 0x01
 71: 0x01EC [0x94] Delionna (ID: 17826090/0x0110012A)->Render.Flags3 ^= 0x01
 72: 0x01F2 [0x94] Zaoso (ID: 17826046/0x011000FE)->Render.Flags3 ^= 0x01
 73: 0x01F8 [0x27] REQ_SET(priority=0x10, entity_id=Merleg (ID: 17826071/0x01100117), tag_num=0x06)
 74: 0x01FF [0x27] REQ_SET(priority=0x10, entity_id=Distrova (ID: 17825998/0x011000CE), tag_num=0x12)
 75: 0x0206 [0x27] REQ_SET(priority=0x10, entity_id=Brenna (ID: 17825939/0x01100093), tag_num=0x04)
 76: 0x020D [0x27] REQ_SET(priority=0x10, entity_id=Brenna (ID: 17825939/0x01100093), tag_num=0x09)
 77: 0x0214 [0x27] REQ_SET(priority=0x10, entity_id=Tiana (ID: 17825938/0x01100092), tag_num=0x04)
 78: 0x021B [0x27] REQ_SET(priority=0x10, entity_id=Unnamed NPC (ID: 17825969/0x011000B1), tag_num=0x04)
 79: 0x0222 [0x27] REQ_SET(priority=0x10, entity_id=Unnamed NPC (ID: 17825970/0x011000B2), tag_num=0x04)
 80: 0x0229 [0x27] REQ_SET(priority=0x10, entity_id=Behff Oibbah (ID: 17826051/0x01100103), tag_num=0x03)
 81: 0x0230 [0x2A] GET_REQ_LEVEL(level=16, entity_id=Jorin (ID: 17826086/0x01100126))
 82: 0x0236 [0x2A] GET_REQ_LEVEL(level=16, entity_id=Andrival (ID: 17826079/0x0110011F))
 83: 0x023C [0x94] LocalPlayer->Render.Flags3 ^= 0x01
 84: 0x0242 [0x02] IF !(ExtData[1]->WorkLocal[4] == 0*) GOTO 0x025A
 85: 0x024A [0xBA] SET_ENTITY_POSITION(entity_id=LocalPlayer, pos_x=-161.623*, pos_z=-26.165*, pos_y=2.699*, direction=0.0*)
 86: 0x0257 [0x01] GOTO 0x0285
 87: 0x025A [0xBA] SET_ENTITY_POSITION(entity_id=LocalPlayer, pos_x=-126.460*, pos_z=-23.222*, pos_y=3.999*, direction=4.2*)
 88: 0x0267 [0x80] LOAD_WAIT(entity=LocalPlayer)
 89: 0x026C [0x1C] WAIT(30* ticks)
 90: 0x026F [0x92] LocalPlayer->Render.Flags3 ^= 0x01
 91: 0x0275 [0x6C] FADE_ENTITY_COLOR(entity_id=LocalPlayer, end_alpha=0*, fade_time=1*)
 92: 0x027E [0x27] REQ_SET(priority=0x05, entity_id=LocalPlayer, tag_num=0x04)

SUBROUTINE_0285:
 93: 0x0285 [0x5C] MUSIC_CONTROL: Set Idle (Day) music to song 58*
 94: 0x0289 [0x5C] MUSIC_CONTROL: Set Idle (Night) music to song 58*
 95: 0x028D [0x9A] WAIT_MUSIC_SERVER()
 96: 0x028E [0x80] LOAD_WAIT(entity=Tiana (ID: 17825938/0x01100092))
 97: 0x0293 [0x80] LOAD_WAIT(entity=Brenna (ID: 17825939/0x01100093))
 98: 0x0298 [0x80] LOAD_WAIT(entity=Jorin (ID: 17826086/0x01100126))
 99: 0x029D [0x80] LOAD_WAIT(entity=Andrival (ID: 17826079/0x0110011F))
100: 0x02A2 [0x80] LOAD_WAIT(entity=Volgoi (ID: 17826042/0x011000FA))
101: 0x02A7 [0x80] LOAD_WAIT(entity=Rising Solstice (ID: 17826043/0x011000FB))
102: 0x02AC [0x80] LOAD_WAIT(entity=Aindemont (ID: 17826096/0x01100130))
103: 0x02B1 [0x80] LOAD_WAIT(entity=Clemmar (ID: 17826056/0x01100108))
104: 0x02B6 [0x80] LOAD_WAIT(entity=Vaulois (ID: 17826057/0x01100109))
105: 0x02BB [0x80] LOAD_WAIT(entity=Merleg (ID: 17826071/0x01100117))
106: 0x02C0 [0x80] LOAD_WAIT(entity=Distrova (ID: 17825998/0x011000CE))
107: 0x02C5 [0x80] LOAD_WAIT(entity=Clautaire (ID: 17826073/0x01100119))
108: 0x02CA [0x80] LOAD_WAIT(entity=Behff Oibbah (ID: 17826051/0x01100103))
109: 0x02CF [0x80] LOAD_WAIT(entity=Mosil-Nosil (ID: 17826050/0x01100102))
110: 0x02D4 [0x80] LOAD_WAIT(entity=Safrick (ID: 17826078/0x0110011E))
111: 0x02D9 [0x80] LOAD_WAIT(entity=Unnamed NPC (ID: 17825969/0x011000B1))
112: 0x02DE [0x80] LOAD_WAIT(entity=Unnamed NPC (ID: 17825970/0x011000B2))
113: 0x02E3 [0x80] LOAD_WAIT(entity=Delionna (ID: 17826090/0x0110012A))
114: 0x02E8 [0x80] LOAD_WAIT(entity=Zaoso (ID: 17826046/0x011000FE))
115: 0x02ED [0x67] HIDE_HUD_ELEMENTS(param1=0x8038, param2=0x8039)
116: 0x02F2 [0x48] [System] [8378*]:
     "@@@As the eighth century came to a close, @@@so did the islands' old regime."
117: 0x02F5 [0x23] WAIT_FOR_DIALOG_INTERACTION
118: 0x02F6 [0x1A] CALL_SUBROUTINE(address=0x0337)
119: 0x02F9 [0x1A] CALL_SUBROUTINE(address=0x03D2)
120: 0x02FC [0x1A] CALL_SUBROUTINE(address=0x0446)
121: 0x02FF [0x1A] CALL_SUBROUTINE(address=0x04E0)
122: 0x0302 [0x1A] CALL_SUBROUTINE(address=0x060F)
123: 0x0305 [0x1A] CALL_SUBROUTINE(address=0x0711)
124: 0x0308 [0x1A] CALL_SUBROUTINE(address=0x0735)
125: 0x030B [0x1A] CALL_SUBROUTINE(address=0x0750)
126: 0x030E [0x02] IF !(ExtData[1]->WorkLocal[4] == 0*) GOTO 0x031C
127: 0x0316 [0x1A] CALL_SUBROUTINE(address=0x09DD)
128: 0x0319 [0x1A] CALL_SUBROUTINE(address=0x0A08)
129: 0x031C [0x1A] CALL_SUBROUTINE(address=0x0A3B)
130: 0x031F [0x1A] CALL_SUBROUTINE(address=0x0ACF)
131: 0x0322 [0x1A] CALL_SUBROUTINE(address=0x0B8C)
132: 0x0325 [0x1A] CALL_SUBROUTINE(address=0x0BD6)
133: 0x0328 [0x1A] CALL_SUBROUTINE(address=0x0D0D)
134: 0x032B [0x1A] CALL_SUBROUTINE(address=0x0DD0)
135: 0x032E [0x1A] CALL_SUBROUTINE(address=0x0F00)
136: 0x0331 [0x1A] CALL_SUBROUTINE(address=0x0FC0)
137: 0x0334 [0x01] GOTO 0x138C

SUBROUTINE_0337:
138: 0x0337 [0x45] LOAD_SCHEDULED_TASK: Load scheduler "3000" with entities [EventEntity, EventEntity], work=[579*, 0*]
139: 0x0348 [0x1A] CALL_SUBROUTINE(address=0xEC47)
140: 0x034B [0xBA] SET_ENTITY_POSITION(entity_id=Safrick (ID: 17826078/0x0110011E), pos_x=52.319*, pos_z=125.115*, pos_y=31.999*, direction=135.0*)
141: 0x0358 [0x27] REQ_SET(priority=0x10, entity_id=Safrick (ID: 17826078/0x0110011E), tag_num=0x06)
142: 0x035F [0x80] LOAD_WAIT(entity=Safrick (ID: 17826078/0x0110011E))
143: 0x0364 [0x27] REQ_SET(priority=0x10, entity_id=Volgoi (ID: 17826042/0x011000FA), tag_num=0x05)
144: 0x036B [0x27] REQ_SET(priority=0x10, entity_id=Distrova (ID: 17825998/0x011000CE), tag_num=0x13)
145: 0x0372 [0x66] LOAD_EXT_SCHEDULER_MAIN: Load scheduler "wav0" with entities [Behff Oibbah (ID: 17826051/0x01100103), Behff Oibbah (ID: 17826051/0x01100103)], work=52*
146: 0x0381 [0x1C] WAIT(30* ticks)
147: 0x0384 [0x27] REQ_SET(priority=0x10, entity_id=Unnamed NPC (ID: 17825929/0x01100089), tag_num=0x02)
148: 0x038B [0x1C] WAIT(60* ticks)
149: 0x038E [0x52] END_LOAD_SCHEDULER: End scheduler "3000" with entities [EventEntity, EventEntity], work=579*
150: 0x039D [0x45] LOAD_SCHEDULED_TASK: Load scheduler "kyo1" with entities [EventEntity, EventEntity], work=[579*, 0*]
151: 0x03AE [0x1C] WAIT(100* ticks)
152: 0x03B1 [0x27] REQ_SET(priority=0x10, entity_id=Vaulois (ID: 17826057/0x01100109), tag_num=0x03)
153: 0x03B8 [0x27] REQ_SET(priority=0x10, entity_id=Safrick (ID: 17826078/0x0110011E), tag_num=0x03)
154: 0x03BF [0x1C] WAIT(20* ticks)
155: 0x03C2 [0x52] END_LOAD_SCHEDULER: End scheduler "kyo1" with entities [EventEntity, EventEntity], work=579*
156: 0x03D1 [0x1B] RETURN

SUBROUTINE_03D2:
157: 0x03D2 [0x45] LOAD_SCHEDULED_TASK: Load scheduler "3002" with entities [EventEntity, EventEntity], work=[579*, 0*]
158: 0x03E3 [0xBA] SET_ENTITY_POSITION(entity_id=Delionna (ID: 17826090/0x0110012A), pos_x=36.611*, pos_z=-7.444*, pos_y=0.000*, direction=112.5*)
159: 0x03F0 [0xBA] SET_ENTITY_POSITION(entity_id=Jorin (ID: 17826086/0x01100126), pos_x=-29.174*, pos_z=101.207*, pos_y=19.568*, direction=359.6*)
160: 0x03FD [0xBA] SET_ENTITY_POSITION(entity_id=Andrival (ID: 17826079/0x0110011F), pos_x=12.094*, pos_z=99.101*, pos_y=31.990*, direction=179.6*)
161: 0x040A [0x27] REQ_SET(priority=0x10, entity_id=Jorin (ID: 17826086/0x01100126), tag_num=0x04)
162: 0x0411 [0x27] REQ_SET(priority=0x10, entity_id=Andrival (ID: 17826079/0x0110011F), tag_num=0x09)
163: 0x0418 [0x1C] WAIT(90* ticks)
164: 0x041B [0x27] REQ_SET(priority=0x10, entity_id=Volgoi (ID: 17826042/0x011000FA), tag_num=0x06)
165: 0x0422 [0x27] REQ_SET(priority=0x10, entity_id=Jorin (ID: 17826086/0x01100126), tag_num=0x06)
166: 0x0429 [0x1C] WAIT(15* ticks)
167: 0x042C [0x27] REQ_SET(priority=0x10, entity_id=Andrival (ID: 17826079/0x0110011F), tag_num=0x10)
168: 0x0433 [0x1C] WAIT(20* ticks)
169: 0x0436 [0x52] END_LOAD_SCHEDULER: End scheduler "3002" with entities [EventEntity, EventEntity], work=579*
170: 0x0445 [0x1B] RETURN

SUBROUTINE_0446:
171: 0x0446 [0x45] LOAD_SCHEDULED_TASK: Load scheduler "3003" with entities [EventEntity, EventEntity], work=[579*, 0*]
172: 0x0457 [0x1C] WAIT(10* ticks)
173: 0x045A [0xBA] SET_ENTITY_POSITION(entity_id=Zaoso (ID: 17826046/0x011000FE), pos_x=14.579*, pos_z=1.975*, pos_y=0.000*, direction=165.9*)
174: 0x0467 [0xBA] SET_ENTITY_POSITION(entity_id=Mosil-Nosil (ID: 17826050/0x01100102), pos_x=20.252*, pos_z=-6.979*, pos_y=1.000*, direction=225.1*)
175: 0x0474 [0x27] REQ_SET(priority=0x10, entity_id=Zaoso (ID: 17826046/0x011000FE), tag_num=0x05)
176: 0x047B [0x27] REQ_SET(priority=0x10, entity_id=Clemmar (ID: 17826056/0x01100108), tag_num=0x05)
177: 0x0482 [0x27] REQ_SET(priority=0x10, entity_id=Aindemont (ID: 17826096/0x01100130), tag_num=0x03)
178: 0x0489 [0x27] REQ_SET(priority=0x10, entity_id=Volgoi (ID: 17826042/0x011000FA), tag_num=0x07)
179: 0x0490 [0x7A] VM_CONTROL: Reset VM for Distrova (ID: 17825998/0x011000CE)
180: 0x0496 [0x27] REQ_SET(priority=0x10, entity_id=Distrova (ID: 17825998/0x011000CE), tag_num=0x14)
181: 0x049D [0xBA] SET_ENTITY_POSITION(entity_id=Aindemont (ID: 17826096/0x01100130), pos_x=335.816*, pos_z=-21.815*, pos_y=3.999*, direction=0.0*)
182: 0x04AA [0xBA] SET_ENTITY_POSITION(entity_id=Distrova (ID: 17825998/0x011000CE), pos_x=17.839*, pos_z=-12.089*, pos_y=1.000*, direction=90.0*)
183: 0x04B7 [0xBA] SET_ENTITY_POSITION(entity_id=Clautaire (ID: 17826073/0x01100119), pos_x=17.003*, pos_z=-12.089*, pos_y=1.000*, direction=90.0*)
184: 0x04C4 [0x4A] Clautaire (ID: 17826073/0x01100119) looks at Distrova (ID: 17825998/0x011000CE)
185: 0x04CD [0x1C] WAIT(150* ticks)
186: 0x04D0 [0x52] END_LOAD_SCHEDULER: End scheduler "3003" with entities [EventEntity, EventEntity], work=579*
187: 0x04DF [0x1B] RETURN

SUBROUTINE_04E0:
188: 0x04E0 [0x7A] VM_CONTROL: Reset VM for Jorin (ID: 17826086/0x01100126)
189: 0x04E6 [0x7A] VM_CONTROL: Reset VM for Andrival (ID: 17826079/0x0110011F)
190: 0x04EC [0x27] REQ_SET(priority=0x10, entity_id=Delionna (ID: 17826090/0x0110012A), tag_num=0x03)
191: 0x04F3 [0x27] REQ_SET(priority=0x10, entity_id=Mosil-Nosil (ID: 17826050/0x01100102), tag_num=0x03)
192: 0x04FA [0x45] LOAD_SCHEDULED_TASK: Load scheduler "3005" with entities [EventEntity, EventEntity], work=[579*, 0*]
193: 0x050B [0x27] REQ_SET(priority=0x10, entity_id=Unnamed NPC (ID: 17825929/0x01100089), tag_num=0x03)
194: 0x0512 [0xBA] SET_ENTITY_POSITION(entity_id=Clemmar (ID: 17826056/0x01100108), pos_x=14.200*, pos_z=-9.619*, pos_y=1.000*, direction=271.5*)
195: 0x051F [0x80] LOAD_WAIT(entity=Clemmar (ID: 17826056/0x01100108))
196: 0x0524 [0x27] REQ_SET(priority=0x10, entity_id=Clemmar (ID: 17826056/0x01100108), tag_num=0x06)
197: 0x052B [0x1C] WAIT(10* ticks)
198: 0x052E [0x27] REQ_SET(priority=0x10, entity_id=Distrova (ID: 17825998/0x011000CE), tag_num=0x15)
199: 0x0535 [0x27] REQ_SET(priority=0x10, entity_id=Unnamed NPC (ID: 17825969/0x011000B1), tag_num=0x09)
200: 0x053C [0x27] REQ_SET(priority=0x10, entity_id=Unnamed NPC (ID: 17825970/0x011000B2), tag_num=0x09)
201: 0x0543 [0x1C] WAIT(5* ticks)
202: 0x0546 [0x7A] VM_CONTROL: Reset VM for Andrival (ID: 17826079/0x0110011F)
203: 0x054C [0x27] REQ_SET(priority=0x10, entity_id=Zaoso (ID: 17826046/0x011000FE), tag_num=0x06)
204: 0x0553 [0x1C] WAIT(15* ticks)
205: 0x0556 [0x27] REQ_SET(priority=0x10, entity_id=Andrival (ID: 17826079/0x0110011F), tag_num=0x0E)
206: 0x055D [0xBA] SET_ENTITY_POSITION(entity_id=Andrival (ID: 17826079/0x0110011F), pos_x=18.278*, pos_z=4.498*, pos_y=0.000*, direction=135.0*)
207: 0x056A [0x7A] VM_CONTROL: Reset VM for Jorin (ID: 17826086/0x01100126)
208: 0x0570 [0x7A] VM_CONTROL: Reset VM for Safrick (ID: 17826078/0x0110011E)
209: 0x0576 [0x27] REQ_SET(priority=0x10, entity_id=Jorin (ID: 17826086/0x01100126), tag_num=0x07)
210: 0x057D [0x27] REQ_SET(priority=0x10, entity_id=Safrick (ID: 17826078/0x0110011E), tag_num=0x05)
211: 0x0584 [0xBA] SET_ENTITY_POSITION(entity_id=Jorin (ID: 17826086/0x01100126), pos_x=162.000*, pos_z=-5.500*, pos_y=4.000*, direction=180.0*)
212: 0x0591 [0xBA] SET_ENTITY_POSITION(entity_id=Volgoi (ID: 17826042/0x011000FA), pos_x=160.000*, pos_z=-4.000*, pos_y=4.000*, direction=90.0*)
213: 0x059E [0xBA] SET_ENTITY_POSITION(entity_id=Vaulois (ID: 17826057/0x01100109), pos_x=156.500*, pos_z=-12.900*, pos_y=3.999*, direction=0.0*)
214: 0x05AB [0xBA] SET_ENTITY_POSITION(entity_id=Safrick (ID: 17826078/0x0110011E), pos_x=156.500*, pos_z=-12.000*, pos_y=3.999*, direction=0.0*)
215: 0x05B8 [0xBA] SET_ENTITY_POSITION(entity_id=Merleg (ID: 17826071/0x01100117), pos_x=153.959*, pos_z=-4.877*, pos_y=3.999*, direction=90.0*)
216: 0x05C5 [0x4A] Jorin (ID: 17826086/0x01100126) looks at Volgoi (ID: 17826042/0x011000FA)
217: 0x05CE [0x4A] Volgoi (ID: 17826042/0x011000FA) looks at Jorin (ID: 17826086/0x01100126)
218: 0x05D7 [0x7B] Merleg (ID: 17826071/0x01100117) stops talking
219: 0x05DC [0x7B] Andrival (ID: 17826079/0x0110011F) stops talking
220: 0x05E1 [0x1C] WAIT(40* ticks)
221: 0x05E4 [0x27] REQ_SET(priority=0x10, entity_id=Andrival (ID: 17826079/0x0110011F), tag_num=0x0B)
222: 0x05EB [0x2A] GET_REQ_LEVEL(level=16, entity_id=Distrova (ID: 17825998/0x011000CE))
223: 0x05F1 [0x27] REQ_SET(priority=0x10, entity_id=Distrova (ID: 17825998/0x011000CE), tag_num=0x16)
224: 0x05F8 [0x27] REQ_SET(priority=0x10, entity_id=Clautaire (ID: 17826073/0x01100119), tag_num=0x03)
225: 0x05FF [0x52] END_LOAD_SCHEDULER: End scheduler "3005" with entities [EventEntity, EventEntity], work=579*
226: 0x060E [0x1B] RETURN

SUBROUTINE_060F:
227: 0x060F [0x7A] VM_CONTROL: Reset VM for Andrival (ID: 17826079/0x0110011F)
228: 0x0615 [0x7A] VM_CONTROL: Reset VM for Distrova (ID: 17825998/0x011000CE)
229: 0x061B [0x7A] VM_CONTROL: Reset VM for Clautaire (ID: 17826073/0x01100119)
230: 0x0621 [0x80] LOAD_WAIT(entity=Brenna (ID: 17825939/0x01100093))
231: 0x0626 [0x27] REQ_SET(priority=0x10, entity_id=Safrick (ID: 17826078/0x0110011E), tag_num=0x04)
232: 0x062D [0x27] REQ_SET(priority=0x10, entity_id=Vaulois (ID: 17826057/0x01100109), tag_num=0x04)
233: 0x0634 [0x1C] WAIT(10* ticks)
234: 0x0637 [0x27] REQ_SET(priority=0x10, entity_id=Brenna (ID: 17825939/0x01100093), tag_num=0x0C)
235: 0x063E [0x45] LOAD_SCHEDULED_TASK: Load scheduler "3006" with entities [EventEntity, EventEntity], work=[579*, 0*]
236: 0x064F [0x27] REQ_SET(priority=0x10, entity_id=Unnamed NPC (ID: 17825929/0x01100089), tag_num=0x04)
237: 0x0656 [0x29] REQ_SET_WAIT(priority=0x10, entity_id=Jorin (ID: 17826086/0x01100126), tag_num=0x08)
238: 0x065D [0x27] REQ_SET(priority=0x10, entity_id=Jorin (ID: 17826086/0x01100126), tag_num=0x09)
239: 0x0664 [0x27] REQ_SET(priority=0x10, entity_id=Volgoi (ID: 17826042/0x011000FA), tag_num=0x09)
240: 0x066B [0x1C] WAIT(10* ticks)
241: 0x066E [0x7A] VM_CONTROL: Reset VM for Zaoso (ID: 17826046/0x011000FE)
242: 0x0674 [0x7A] VM_CONTROL: Reset VM for Behff Oibbah (ID: 17826051/0x01100103)
243: 0x067A [0x7A] VM_CONTROL: Reset VM for Clemmar (ID: 17826056/0x01100108)
244: 0x0680 [0x7A] VM_CONTROL: Reset VM for Unnamed NPC (ID: 17825969/0x011000B1)
245: 0x0686 [0x7A] VM_CONTROL: Reset VM for Unnamed NPC (ID: 17825970/0x011000B2)
246: 0x068C [0x1C] WAIT(1* ticks)
247: 0x068F [0xBA] SET_ENTITY_POSITION(entity_id=Behff Oibbah (ID: 17826051/0x01100103), pos_x=294.144*, pos_z=-7.381*, pos_y=4.000*, direction=0.0*)
248: 0x069C [0xBA] SET_ENTITY_POSITION(entity_id=Zaoso (ID: 17826046/0x011000FE), pos_x=292.747*, pos_z=-8.192*, pos_y=4.000*, direction=0.0*)
249: 0x06A9 [0xBA] SET_ENTITY_POSITION(entity_id=Clemmar (ID: 17826056/0x01100108), pos_x=245.192*, pos_z=-11.611*, pos_y=4.000*, direction=0.0*)
250: 0x06B6 [0xBA] SET_ENTITY_POSITION(entity_id=Unnamed NPC (ID: 17825969/0x011000B1), pos_x=231.091*, pos_z=-15.687*, pos_y=4.000*, direction=0.0*)
251: 0x06C3 [0xBA] SET_ENTITY_POSITION(entity_id=Unnamed NPC (ID: 17825970/0x011000B2), pos_x=221.270*, pos_z=-25.193*, pos_y=4.000*, direction=0.0*)
252: 0x06D0 [0x27] REQ_SET(priority=0x10, entity_id=Unnamed NPC (ID: 17825970/0x011000B2), tag_num=0x0C)
253: 0x06D7 [0x27] REQ_SET(priority=0x10, entity_id=Behff Oibbah (ID: 17826051/0x01100103), tag_num=0x05)
254: 0x06DE [0x27] REQ_SET(priority=0x10, entity_id=Clemmar (ID: 17826056/0x01100108), tag_num=0x09)
255: 0x06E5 [0x27] REQ_SET(priority=0x10, entity_id=Zaoso (ID: 17826046/0x011000FE), tag_num=0x08)
256: 0x06EC [0x27] REQ_SET(priority=0x10, entity_id=Aindemont (ID: 17826096/0x01100130), tag_num=0x04)
257: 0x06F3 [0x27] REQ_SET(priority=0x10, entity_id=Unnamed NPC (ID: 17825969/0x011000B1), tag_num=0x0A)
258: 0x06FA [0x27] REQ_SET(priority=0x10, entity_id=Unnamed NPC (ID: 17825970/0x011000B2), tag_num=0x0A)
259: 0x0701 [0x52] END_LOAD_SCHEDULER: End scheduler "3006" with entities [EventEntity, EventEntity], work=579*
260: 0x0710 [0x1B] RETURN

SUBROUTINE_0711:
261: 0x0711 [0x45] LOAD_SCHEDULED_TASK: Load scheduler "3007" with entities [EventEntity, EventEntity], work=[579*, 0*]
262: 0x0722 [0x55] WAIT_LOAD_SCHEDULER: Wait for scheduler "3007" with entities [EventEntity, EventEntity], work=579*
263: 0x0731 [0x1C] WAIT(30* ticks)
264: 0x0734 [0x1B] RETURN

SUBROUTINE_0735:
265: 0x0735 [0x5D] SET_MUSIC_VOLUME(volume=0*, fade_time=300*)
266: 0x073A [0x7A] VM_CONTROL: Reset VM for Tiana (ID: 17825938/0x01100092)
267: 0x0740 [0x6B] STOP_AND_IDLE: Distrova (ID: 17825998/0x011000CE) stops current action and resets to idle (animation="idl0")
268: 0x0749 [0x1A] CALL_SUBROUTINE(address=0xEC68)
269: 0x074C [0x1C] WAIT(30* ticks)
270: 0x074F [0x1B] RETURN

SUBROUTINE_0750:
271: 0x0750 [0x45] LOAD_SCHEDULED_TASK: Load scheduler "0000" with entities [EventEntity, EventEntity], work=[579*, 0*]
272: 0x0761 [0x7A] VM_CONTROL: Reset VM for Merleg (ID: 17826071/0x01100117)
273: 0x0767 [0x7A] VM_CONTROL: Reset VM for Distrova (ID: 17825998/0x011000CE)
274: 0x076D [0x7A] VM_CONTROL: Reset VM for Volgoi (ID: 17826042/0x011000FA)
275: 0x0773 [0x7A] VM_CONTROL: Reset VM for Rising Solstice (ID: 17826043/0x011000FB)
276: 0x0779 [0x7A] VM_CONTROL: Reset VM for Aindemont (ID: 17826096/0x01100130)
277: 0x077F [0x7A] VM_CONTROL: Reset VM for Zaoso (ID: 17826046/0x011000FE)
278: 0x0785 [0x7A] VM_CONTROL: Reset VM for Behff Oibbah (ID: 17826051/0x01100103)
279: 0x078B [0x7A] VM_CONTROL: Reset VM for Clemmar (ID: 17826056/0x01100108)
280: 0x0791 [0x7A] VM_CONTROL: Reset VM for Unnamed NPC (ID: 17825969/0x011000B1)
281: 0x0797 [0x7A] VM_CONTROL: Reset VM for Unnamed NPC (ID: 17825970/0x011000B2)
282: 0x079D [0x7A] VM_CONTROL: Reset VM for Brenna (ID: 17825939/0x01100093)
283: 0x07A3 [0x7A] VM_CONTROL: Reset VM for Delionna (ID: 17826090/0x0110012A)
284: 0x07A9 [0x7A] VM_CONTROL: Reset VM for Zaoso (ID: 17826046/0x011000FE)
285: 0x07AF [0x7A] VM_CONTROL: Reset VM for Jorin (ID: 17826086/0x01100126)
286: 0x07B5 [0x7A] VM_CONTROL: Reset VM for Mosil-Nosil (ID: 17826050/0x01100102)
287: 0x07BB [0x7A] VM_CONTROL: Reset VM for Andrival (ID: 17826079/0x0110011F)
288: 0x07C1 [0x1C] WAIT(1* ticks)
289: 0x07C4 [0x27] REQ_SET(priority=0x10, entity_id=Merleg (ID: 17826071/0x01100117), tag_num=0x08)
290: 0x07CB [0x27] REQ_SET(priority=0x10, entity_id=Distrova (ID: 17825998/0x011000CE), tag_num=0x14)
291: 0x07D2 [0x27] REQ_SET(priority=0x10, entity_id=Rising Solstice (ID: 17826043/0x011000FB), tag_num=0x04)
