# 17826109

## Common Data

| Field            | Value                     |
|------------------|---------------------------|
| Zone             | Western Adoulin (ID: 256) |
| Block Size       | 8352 bytes                |
| Total Events     | 19                        |
| References Count | 199                       |

## List of Events

| Event ID              | Entrypoint   |   Size |   Instructions |
|-----------------------|--------------|--------|----------------|
| [65535](#event-65535) | 0x0000       |    658 |             62 |
| [107](#event-107)     | 0x0292       |     34 |              8 |
| [108](#event-108)     | 0x02B4       |     42 |             10 |
| [106](#event-106)     | 0x02DE       |     15 |              5 |
| [109](#event-109)     | 0x02ED       |   1099 |            146 |
| [110](#event-110)     | 0x0738       |     19 |              7 |
| [111](#event-111)     | 0x074B       |    816 |            111 |
| [112](#event-112)     | 0x0A7B       |     59 |             13 |
| [113](#event-113)     | 0x0AB6       |     19 |              7 |
| [115](#event-115)     | 0x0AC9       |    540 |             78 |
| [116](#event-116)     | 0x0CE5       |     59 |             13 |
| [117](#event-117)     | 0x0D20       |    307 |             48 |
| [118](#event-118)     | 0x0E53       |     19 |              7 |
| [119](#event-119)     | 0x0E66       |   1613 |            215 |
| [120](#event-120)     | 0x14B3       |    115 |             23 |
| [121](#event-121)     | 0x1526       |    894 |            120 |
| [122](#event-122)     | 0x18A4       |     34 |              8 |
| [128](#event-128)     | 0x18C6       |    924 |            176 |
| [114](#event-114)     | 0x1C62       |    198 |             40 |

## DAT References (imed_data)

|   Index | Hex Value   |   Dec Value |
|---------|-------------|-------------|
|       0 | 0x00C8      |         200 |
|       1 | 0x0000      |           0 |
|       2 | 0x00C9      |         201 |
|       3 | 0x0001      |           1 |
|       4 | 0x002D      |          45 |
|       5 | 0x0002      |           2 |
|       6 | 0x001E      |          30 |
|       7 | 0x00D7      |         215 |
|       8 | 0x30E7      |       12519 |
|       9 | 0x30E5      |       12517 |
|      10 | 0x30E6      |       12518 |
|      11 | 0x30E8      |       12520 |
|      12 | 0x0013      |          19 |
|      13 | 0xD2B7      |       53943 |
|      14 | 0x28438     |      164920 |
|      15 | 0x6D5F      |       27999 |
|      16 | 0x0654      |        1620 |
|      17 | 0xE065      |       57445 |
|      18 | 0x25AA8     |      154280 |
|      19 | 0x7CFF      |       31999 |
|      20 | 0x0AE4      |        2788 |
|      21 | 0x0263      |         611 |
|      22 | 0x003C      |          60 |
|      23 | 0x001F      |          31 |
|      24 | 0x00F0      |         240 |
|      25 | 0x005A      |          90 |
|      26 | 0x30E9      |       12521 |
|      27 | 0x001D      |          29 |
|      28 | 0x30EA      |       12522 |
|      29 | 0x0046      |          70 |
|      30 | 0x30EB      |       12523 |
|      31 | 0x30EC      |       12524 |
|      32 | 0x000F      |          15 |
|      33 | 0x006E      |         110 |
|      34 | 0x30EE      |       12526 |
|      35 | 0x30EF      |       12527 |
|      36 | 0x30F0      |       12528 |
|      37 | 0x00BD      |         189 |
|      38 | 0x30F1      |       12529 |
|      39 | 0x30F2      |       12530 |
|      40 | 0x0031      |          49 |
|      41 | 0x30F3      |       12531 |
|      42 | 0x0932      |        2354 |
|      43 | 0x0934      |        2356 |
|      44 | 0x30F4      |       12532 |
|      45 | 0x0022      |          34 |
|      46 | 0x30F5      |       12533 |
|      47 | 0x30F6      |       12534 |
|      48 | 0x30F7      |       12535 |
|      49 | 0x0016      |          22 |
|      50 | 0x30ED      |       12525 |
|      51 | 0x007F      |         127 |
|      52 | 0x0078      |         120 |
|      53 | 0x30F8      |       12536 |
|      54 | 0x30F9      |       12537 |
|      55 | 0xCA5E      |       51806 |
|      56 | 0x27A3C     |      162364 |
|      57 | 0x0591      |        1425 |
|      58 | 0xD353      |       54099 |
|      59 | 0x26B2F     |      158511 |
|      60 | 0x004B      |          75 |
|      61 | 0x0064      |         100 |
|      62 | 0x30FA      |       12538 |
|      63 | 0x30FB      |       12539 |
|      64 | 0x30FC      |       12540 |
|      65 | 0x0931      |        2353 |
|      66 | 0x30FD      |       12541 |
|      67 | 0x30FE      |       12542 |
|      68 | 0x30FF      |       12543 |
|      69 | 0x0007      |           7 |
|      70 | 0x3100      |       12544 |
|      71 | 0x0019      |          25 |
|      72 | 0x3101      |       12545 |
|      73 | 0x3102      |       12546 |
|      74 | 0x3103      |       12547 |
|      75 | 0x3104      |       12548 |
|      76 | 0x3105      |       12549 |
|      77 | 0x3106      |       12550 |
|      78 | 0x3107      |       12551 |
|      79 | 0x0941      |        2369 |
|      80 | 0x3108      |       12552 |
|      81 | 0x3109      |       12553 |
|      82 | 0x310A      |       12554 |
|      83 | 0x310B      |       12555 |
|      84 | 0x310C      |       12556 |
|      85 | 0x310D      |       12557 |
|      86 | 0x310E      |       12558 |
|      87 | 0x310F      |       12559 |
|      88 | 0x3110      |       12560 |
|      89 | 0xCDB4      |       52660 |
|      90 | 0x27C95     |      162965 |
|      91 | 0x6D60      |       28000 |
|      92 | 0x0014      |          20 |
|      93 | 0x3111      |       12561 |
|      94 | 0x006F      |         111 |
|      95 | 0x000B      |          11 |
|      96 | 0x00B4      |         180 |
|      97 | 0x125F2     |       75250 |
|      98 | 0xFFFEF9E2  |  4294900194 |
|      99 | 0x0738      |        1848 |
|     100 | 0x11DBB     |       73147 |
|     101 | 0xFFFEFBD5  |  4294900693 |
|     102 | 0x00BB      |         187 |
|     103 | 0x0009      |           9 |
|     104 | 0x0F7D      |        3965 |
|     105 | 0x3112      |       12562 |
|     106 | 0x3113      |       12563 |
|     107 | 0x0095      |         149 |
|     108 | 0x3114      |       12564 |
|     109 | 0x3116      |       12566 |
|     110 | 0x3117      |       12567 |
|     111 | 0x0943      |        2371 |
|     112 | 0x311B      |       12571 |
|     113 | 0x311C      |       12572 |
|     114 | 0x08E7      |        2279 |
|     115 | 0x311D      |       12573 |
|     116 | 0x010A      |         266 |
|     117 | 0x311E      |       12574 |
|     118 | 0x311F      |       12575 |
|     119 | 0x001A      |          26 |
|     120 | 0x3120      |       12576 |
|     121 | 0x3121      |       12577 |
|     122 | 0x3122      |       12578 |
|     123 | 0x3123      |       12579 |
|     124 | 0x000C      |          12 |
|     125 | 0x0041      |          65 |
|     126 | 0x0032      |          50 |
|     127 | 0x3118      |       12568 |
|     128 | 0x0020      |          32 |
|     129 | 0x0050      |          80 |
|     130 | 0x3119      |       12569 |
|     131 | 0x13438     |       78904 |
|     132 | 0xFFFF05D5  |  4294903253 |
|     133 | 0xFFFFFF6C  |  4294967148 |
|     134 | 0x05CB      |        1483 |
|     135 | 0x000A      |          10 |
|     136 | 0x311A      |       12570 |
|     137 | 0x0037      |          55 |
|     138 | 0x012C      |         300 |
|     139 | 0x01A4      |         420 |
|     140 | 0x3115      |       12565 |
|     141 | 0x0003      |           3 |
|     142 | 0x0004      |           4 |
|     143 | 0x15CA2     |       89250 |
|     144 | 0xFFFF07F4  |  4294903796 |
|     145 | 0xFFFFFD77  |  4294966647 |
|     146 | 0x0D52      |        3410 |
|     147 | 0x16237     |       90679 |
|     148 | 0xFFFF1188  |  4294906248 |
|     149 | 0x053F      |        1343 |
|     150 | 0x3124      |       12580 |
|     151 | 0x0096      |         150 |
|     152 | 0x3125      |       12581 |
|     153 | 0x3126      |       12582 |
|     154 | 0x3127      |       12583 |
|     155 | 0xFFFFFE5C  |  4294966876 |
|     156 | 0x3128      |       12584 |
|     157 | 0x0044      |          68 |
|     158 | 0x024B      |         587 |
|     159 | 0x1A5AC     |      107948 |
|     160 | 0xFFFEE2A6  |  4294894246 |
|     161 | 0x0D19      |        3353 |
|     162 | 0x191E0     |      102880 |
|     163 | 0xFFFEC66D  |  4294887021 |
|     164 | 0xFFFFFD76  |  4294966646 |
|     165 | 0x0D9C      |        3484 |
|     166 | 0x1A578     |      107896 |
|     167 | 0xFFFEE630  |  4294895152 |
|     168 | 0xFFFFFC18  |  4294966296 |
|     169 | 0x0869      |        2153 |
|     170 | 0x193D2     |      103378 |
|     171 | 0xFFFEF267  |  4294898279 |
|     172 | 0x01D5      |         469 |
|     173 | 0x0008      |           8 |
|     174 | 0x00D2      |         210 |
|     175 | 0x3129      |       12585 |
|     176 | 0x0028      |          40 |
|     177 | 0x312A      |       12586 |
|     178 | 0xFFFFFF06  |  4294967046 |
|     179 | 0x01C2      |         450 |
|     180 | 0x312B      |       12587 |
|     181 | 0x312C      |       12588 |
|     182 | 0x312D      |       12589 |
|     183 | 0x312E      |       12590 |
|     184 | 0x0023      |          35 |
|     185 | 0x312F      |       12591 |
|     186 | 0x3130      |       12592 |
|     187 | 0x0035      |          53 |
|     188 | 0x0018      |          24 |
|     189 | 0x3131      |       12593 |
|     190 | 0x3132      |       12594 |
|     191 | 0x0024      |          36 |
|     192 | 0x003B      |          59 |
|     193 | 0x3133      |       12595 |
|     194 | 0x3134      |       12596 |
|     195 | 0x3135      |       12597 |
|     196 | 0x0262      |         610 |
|     197 | 0x0005      |           5 |
|     198 | 0x0006      |           6 |

## String References

- **12520**: Globules of slag and various bits of string lay strewn about haphazardly...
- **12524**: Is that what you came here to ask? [Yes, it is./No, it's not.]
- **12536**: Attached to the barrel is a note, written in a strong and decisive hand, that reads thus:
- **12537**: "Don't ask me to make-wake anything right now. Go the hell away. --Yestin-Ovestin"
- **12546**: A rhythmical clanking can be heard from within, mixed with the concentrated mumblings of a craftsman deep in thought.
- **12549**: "[Sir/Madam] <Player>, I've ordered the Couriers' Coalition to deliver the sword to Octavien postaru-haste. --Yestin-Ovestin"
- **12558**: The telltale clack of a loom can be heard from within, mixed with the concentrated mumblings of a craftsman deep in thought.
- **12562**: What will you ask? [Are you swimming in bayld?/How have you been?/How about that Adoulinian kelp?/What wonderful weather we're having./Nothing.]
- **12567**: What do you want to know? [The trial objectives./Is that rune stone still here?/Will I die today?/Nothing. I've had enough.]

## Events

### Event 65535

#### Metadata

| Field        | Value     |
|--------------|-----------|
| Entrypoint   | 0x0000    |
| Data Size    | 658 bytes |
| Instructions | 1         |

```
      00 01 02 03 04 05 06 07  08 09 0A 0B 0C 0D 0E 0F
      -- -- -- -- -- -- -- --  -- -- -- -- -- -- -- --
0000: 00 45 00 80 F0 FF FF 7F  F0 FF FF 7F 66 64 69 30  .E..........fdi0
0010: 01 80 55 00 80 F0 FF FF  7F F0 FF FF 7F 66 64 69  ..U..........fdi
0020: 30 1B 45 00 80 F0 FF FF  7F F0 FF FF 7F 66 64 6F  0.E..........fdo
0030: 30 01 80 55 00 80 F0 FF  FF 7F F0 FF FF 7F 66 64  0..U..........fd
0040: 6F 30 1B 45 00 80 F0 FF  FF 7F F0 FF FF 7F 66 64  o0.E..........fd
0050: 69 31 01 80 55 00 80 F0  FF FF 7F F0 FF FF 7F 66  i1..U..........f
0060: 64 69 31 1B 45 00 80 F0  FF FF 7F F0 FF FF 7F 66  di1.E..........f
0070: 64 6F 31 01 80 55 00 80  F0 FF FF 7F F0 FF FF 7F  do1..U..........
0080: 66 64 6F 31 1B 45 02 80  F0 FF FF 7F F0 FF FF 7F  fdo1.E..........
0090: 77 68 69 31 01 80 55 02  80 F0 FF FF 7F F0 FF FF  whi1..U.........
00A0: 7F 77 68 69 31 1B 45 02  80 F0 FF FF 7F F0 FF FF  .whi1.E.........
00B0: 7F 77 68 6F 31 01 80 55  02 80 F0 FF FF 7F F0 FF  .who1..U........
00C0: FF 7F 77 68 6F 31 1B 45  02 80 F0 FF FF 7F F0 FF  ..who1.E........
00D0: FF 7F 77 68 6F 32 01 80  55 02 80 F0 FF FF 7F F0  ..who2..U.......
00E0: FF FF 7F 77 68 6F 32 1B  45 02 80 F0 FF FF 7F F0  ...who2.E.......
00F0: FF FF 7F 77 68 6F 33 01  80 55 02 80 F0 FF FF 7F  ...who3..U......
0100: F0 FF FF 7F 77 68 6F 33  1B 62 03 80 F0 FF FF 7F  ....who3.b......
0110: F0 FF FF 7F 6D 61 69 6E  01 80 1C 04 80 45 00 80  ....main.....E..
0120: F0 FF FF 7F F0 FF FF 7F  66 64 6F 31 01 80 55 00  ........fdo1..U.
0130: 80 F0 FF FF 7F F0 FF FF  7F 66 64 6F 31 1B 45 00  .........fdo1.E.
0140: 80 F0 FF FF 7F F0 FF FF  7F 66 64 69 31 01 80 62  .........fdi1..b
0150: 05 80 F0 FF FF 7F F0 FF  FF 7F 6D 61 69 6E 01 80  ..........main..
0160: 1C 06 80 55 00 80 F0 FF  FF 7F F0 FF FF 7F 66 64  ...U..........fd
0170: 69 31 1B 45 00 80 F0 FF  FF 7F F0 FF FF 7F 62 6C  i1.E..........bl
0180: 6F 6E 01 80 45 02 80 F0  FF FF 7F F0 FF FF 7F 62  on..E..........b
0190: 6C 6F 6E 01 80 1B 45 02  80 F0 FF FF 7F F0 FF FF  lon...E.........
01A0: 7F 77 68 69 30 01 80 55  02 80 F0 FF FF 7F F0 FF  .whi0..U........
01B0: FF 7F 77 68 69 30 1B 45  02 80 F0 FF FF 7F F0 FF  ..whi0.E........
01C0: FF 7F 77 68 6F 30 01 80  55 02 80 F0 FF FF 7F F0  ..who0..U.......
01D0: FF FF 7F 77 68 6F 30 1B  45 07 80 F0 FF FF 7F F0  ...who0.E.......
01E0: FF FF 7F 65 66 6F 6E 01  80 55 07 80 F0 FF FF 7F  ...efon..U......
01F0: F0 FF FF 7F 65 66 6F 6E  1B 45 00 80 F0 FF FF 7F  ....efon.E......
0200: F0 FF FF 7F 66 64 69 73  01 80 1B 45 00 80 F0 FF  ....fdis...E....
0210: FF 7F F0 FF FF 7F 66 64  6F 73 01 80 55 00 80 F0  ......fdos..U...
0220: FF FF 7F F0 FF FF 7F 66  64 6F 73 1B 45 00 80 F0  .......fdos.E...
0230: FF FF 7F F0 FF FF 7F 66  64 69 66 01 80 1B 45 00  .......fdif...E.
0240: 80 F0 FF FF 7F F0 FF FF  7F 66 64 6F 66 01 80 55  .........fdof..U
0250: 00 80 F0 FF FF 7F F0 FF  FF 7F 66 64 6F 66 1B 45  ..........fdof.E
0260: 00 80 F0 FF FF 7F F0 FF  FF 7F 66 64 69 70 01 80  ..........fdip..
0270: 1B 45 00 80 F0 FF FF 7F  F0 FF FF 7F 66 64 6F 70  .E..........fdop
0280: 01 80 55 00 80 F0 FF FF  7F F0 FF FF 7F 66 64 6F  ..U..........fdo
0290: 70 1B                                             p.              
```

#### Opcodes

```
  0: 0x0000 [0x00] END_REQSTACK()
```

#### Data or dead code:

```
# Dead code (unreachable instructions):
     0x0001 [0x45] LOAD_SCHEDULED_TASK: Load scheduler "fdi0" with entities [LocalPlayer, LocalPlayer], work=[200*, 0*]
     0x0012 [0x55] WAIT_LOAD_SCHEDULER: Wait for scheduler "fdi0" with entities [LocalPlayer, LocalPlayer], work=200*
     0x0021 [0x1B] RETURN
     0x0022 [0x45] LOAD_SCHEDULED_TASK: Load scheduler "fdo0" with entities [LocalPlayer, LocalPlayer], work=[200*, 0*]
     0x0033 [0x55] WAIT_LOAD_SCHEDULER: Wait for scheduler "fdo0" with entities [LocalPlayer, LocalPlayer], work=200*
     0x0042 [0x1B] RETURN
     0x0043 [0x45] LOAD_SCHEDULED_TASK: Load scheduler "fdi1" with entities [LocalPlayer, LocalPlayer], work=[200*, 0*]
     0x0054 [0x55] WAIT_LOAD_SCHEDULER: Wait for scheduler "fdi1" with entities [LocalPlayer, LocalPlayer], work=200*
     0x0063 [0x1B] RETURN
     0x0064 [0x45] LOAD_SCHEDULED_TASK: Load scheduler "fdo1" with entities [LocalPlayer, LocalPlayer], work=[200*, 0*]
     0x0075 [0x55] WAIT_LOAD_SCHEDULER: Wait for scheduler "fdo1" with entities [LocalPlayer, LocalPlayer], work=200*
     0x0084 [0x1B] RETURN
     0x0085 [0x45] LOAD_SCHEDULED_TASK: Load scheduler "whi1" with entities [LocalPlayer, LocalPlayer], work=[201*, 0*]
     0x0096 [0x55] WAIT_LOAD_SCHEDULER: Wait for scheduler "whi1" with entities [LocalPlayer, LocalPlayer], work=201*
     0x00A5 [0x1B] RETURN
     0x00A6 [0x45] LOAD_SCHEDULED_TASK: Load scheduler "who1" with entities [LocalPlayer, LocalPlayer], work=[201*, 0*]
     0x00B7 [0x55] WAIT_LOAD_SCHEDULER: Wait for scheduler "who1" with entities [LocalPlayer, LocalPlayer], work=201*
     0x00C6 [0x1B] RETURN
     0x00C7 [0x45] LOAD_SCHEDULED_TASK: Load scheduler "who2" with entities [LocalPlayer, LocalPlayer], work=[201*, 0*]
     0x00D8 [0x55] WAIT_LOAD_SCHEDULER: Wait for scheduler "who2" with entities [LocalPlayer, LocalPlayer], work=201*
     0x00E7 [0x1B] RETURN
     0x00E8 [0x45] LOAD_SCHEDULED_TASK: Load scheduler "who3" with entities [LocalPlayer, LocalPlayer], work=[201*, 0*]
     0x00F9 [0x55] WAIT_LOAD_SCHEDULER: Wait for scheduler "who3" with entities [LocalPlayer, LocalPlayer], work=201*
     0x0108 [0x1B] RETURN
     0x0109 [0x62] LOAD_EVENT_SCHEDULER: Load scheduler "main" with entities [LocalPlayer, LocalPlayer], work=[1*, 0*]
     0x011A [0x1C] WAIT(45* ticks)
     0x011D [0x45] LOAD_SCHEDULED_TASK: Load scheduler "fdo1" with entities [LocalPlayer, LocalPlayer], work=[200*, 0*]
     0x012E [0x55] WAIT_LOAD_SCHEDULER: Wait for scheduler "fdo1" with entities [LocalPlayer, LocalPlayer], work=200*
     0x013D [0x1B] RETURN
     0x013E [0x45] LOAD_SCHEDULED_TASK: Load scheduler "fdi1" with entities [LocalPlayer, LocalPlayer], work=[200*, 0*]
     0x014F [0x62] LOAD_EVENT_SCHEDULER: Load scheduler "main" with entities [LocalPlayer, LocalPlayer], work=[2*, 0*]
     0x0160 [0x1C] WAIT(30* ticks)
     0x0163 [0x55] WAIT_LOAD_SCHEDULER: Wait for scheduler "fdi1" with entities [LocalPlayer, LocalPlayer], work=200*
     0x0172 [0x1B] RETURN
     0x0173 [0x45] LOAD_SCHEDULED_TASK: Load scheduler "blon" with entities [LocalPlayer, LocalPlayer], work=[200*, 0*]
     0x0184 [0x45] LOAD_SCHEDULED_TASK: Load scheduler "blon" with entities [LocalPlayer, LocalPlayer], work=[201*, 0*]
     0x0195 [0x1B] RETURN
     0x0196 [0x45] LOAD_SCHEDULED_TASK: Load scheduler "whi0" with entities [LocalPlayer, LocalPlayer], work=[201*, 0*]
     0x01A7 [0x55] WAIT_LOAD_SCHEDULER: Wait for scheduler "whi0" with entities [LocalPlayer, LocalPlayer], work=201*
     0x01B6 [0x1B] RETURN
     0x01B7 [0x45] LOAD_SCHEDULED_TASK: Load scheduler "who0" with entities [LocalPlayer, LocalPlayer], work=[201*, 0*]
     0x01C8 [0x55] WAIT_LOAD_SCHEDULER: Wait for scheduler "who0" with entities [LocalPlayer, LocalPlayer], work=201*
     0x01D7 [0x1B] RETURN
     0x01D8 [0x45] LOAD_SCHEDULED_TASK: Load scheduler "efon" with entities [LocalPlayer, LocalPlayer], work=[215*, 0*]
     0x01E9 [0x55] WAIT_LOAD_SCHEDULER: Wait for scheduler "efon" with entities [LocalPlayer, LocalPlayer], work=215*
     0x01F8 [0x1B] RETURN
     0x01F9 [0x45] LOAD_SCHEDULED_TASK: Load scheduler "fdis" with entities [LocalPlayer, LocalPlayer], work=[200*, 0*]
     0x020A [0x1B] RETURN
     0x020B [0x45] LOAD_SCHEDULED_TASK: Load scheduler "fdos" with entities [LocalPlayer, LocalPlayer], work=[200*, 0*]
     0x021C [0x55] WAIT_LOAD_SCHEDULER: Wait for scheduler "fdos" with entities [LocalPlayer, LocalPlayer], work=200*
     0x022B [0x1B] RETURN
     0x022C [0x45] LOAD_SCHEDULED_TASK: Load scheduler "fdif" with entities [LocalPlayer, LocalPlayer], work=[200*, 0*]
     0x023D [0x1B] RETURN
     0x023E [0x45] LOAD_SCHEDULED_TASK: Load scheduler "fdof" with entities [LocalPlayer, LocalPlayer], work=[200*, 0*]
     0x024F [0x55] WAIT_LOAD_SCHEDULER: Wait for scheduler "fdof" with entities [LocalPlayer, LocalPlayer], work=200*
     0x025E [0x1B] RETURN
     0x025F [0x45] LOAD_SCHEDULED_TASK: Load scheduler "fdip" with entities [LocalPlayer, LocalPlayer], work=[200*, 0*]
     0x0270 [0x1B] RETURN
     0x0271 [0x45] LOAD_SCHEDULED_TASK: Load scheduler "fdop" with entities [LocalPlayer, LocalPlayer], work=[200*, 0*]
     0x0282 [0x55] WAIT_LOAD_SCHEDULER: Wait for scheduler "fdop" with entities [LocalPlayer, LocalPlayer], work=200*
     0x0291 [0x1B] RETURN
```

### Event 107

#### Metadata

| Field        | Value    |
|--------------|----------|
| Entrypoint   | 0x0292   |
| Data Size    | 34 bytes |
| Instructions | 8        |

```
      00 01 02 03 04 05 06 07  08 09 0A 0B 0C 0D 0E 0F
      -- -- -- -- -- -- -- --  -- -- -- -- -- -- -- --
0290:       4A F0 FF FF 7F 41  01 10 01 4A 41 01 10 01    J....A...JA...
02A0: F0 FF FF 7F 6F 76 41 01  10 01 2B 41 01 10 01 08  ....ovA...+A....
02B0: 80 23 21 00                                       .#!.            
```

#### Opcodes

```
  0: 0x0292 [0x4A] LocalPlayer looks at Gaddiux (ID: 17826113/0x01100141)
  1: 0x029B [0x4A] Gaddiux (ID: 17826113/0x01100141) looks at LocalPlayer
  2: 0x02A4 [0x6F] WAIT_FRAME_DELAY: Yield until WaitTime reaches zero
  3: 0x02A5 [0x76] CHECK_ENTITY_RENDER_FLAGS: Wait until Gaddiux (ID: 17826113/0x01100141) Render.Flags0 and Render.Flags3 conditions are met
  4: 0x02AA [0x2B] Gaddiux (ID: 17826113/0x01100141) [12519*]:
    → "Innovations that are fun for the whole family, safe and reliable services, and not a hint of blood money anywhere! That's the Inventors' Coalition in a nutshell."
  5: 0x02B1 [0x23] WAIT_FOR_DIALOG_INTERACTION
  6: 0x02B2 [0x21] END_EVENT
  7: 0x02B3 [0x00] END_REQSTACK()
```

### Event 108

#### Metadata

| Field        | Value    |
|--------------|----------|
| Entrypoint   | 0x02B4   |
| Data Size    | 42 bytes |
| Instructions | 10       |

```
      00 01 02 03 04 05 06 07  08 09 0A 0B 0C 0D 0E 0F
      -- -- -- -- -- -- -- --  -- -- -- -- -- -- -- --
02B0:             4A F0 FF FF  7F 41 01 10 01 4A 41 01      J....A...JA.
02C0: 10 01 F0 FF FF 7F 6F 76  41 01 10 01 2B 41 01 10  ......ovA...+A..
02D0: 01 09 80 23 2B 41 01 10  01 0A 80 23 21 00        ...#+A.....#!.  
```

#### Opcodes

```
  0: 0x02B4 [0x4A] LocalPlayer looks at Gaddiux (ID: 17826113/0x01100141)
  1: 0x02BD [0x4A] Gaddiux (ID: 17826113/0x01100141) looks at LocalPlayer
  2: 0x02C6 [0x6F] WAIT_FRAME_DELAY: Yield until WaitTime reaches zero
  3: 0x02C7 [0x76] CHECK_ENTITY_RENDER_FLAGS: Wait until Gaddiux (ID: 17826113/0x01100141) Render.Flags0 and Render.Flags3 conditions are met
  4: 0x02CC [0x2B] Gaddiux (ID: 17826113/0x01100141) [12517*]:
    → "If it's a smith you seek, the only one that comes to my mind is Yestin-Ovestin."
  5: 0x02D3 [0x23] WAIT_FOR_DIALOG_INTERACTION
  6: 0x02D4 [0x2B] Gaddiux (ID: 17826113/0x01100141) [12518*]:
    → "He never seems to accept work from anyone, so you can always find him waddling around the waterfront. The only thing you're apt to get from him is a wad of spit in the eye, but you never know."
  7: 0x02DB [0x23] WAIT_FOR_DIALOG_INTERACTION
  8: 0x02DC [0x21] END_EVENT
  9: 0x02DD [0x00] END_REQSTACK()
```

### Event 106

#### Metadata

| Field        | Value    |
|--------------|----------|
| Entrypoint   | 0x02DE   |
| Data Size    | 15 bytes |
| Instructions | 5        |

```
      00 01 02 03 04 05 06 07  08 09 0A 0B 0C 0D 0E 0F
      -- -- -- -- -- -- -- --  -- -- -- -- -- -- -- --
02D0:                                            4A F0                J.
02E0: FF FF 7F 42 01 10 01 48  0B 80 23 21 00           ...B...H..#!.   
```

#### Opcodes

```
  0: 0x02DE [0x4A] LocalPlayer looks at Inconspicuous Barrel (ID: 17826114/0x01100142)
  1: 0x02E7 [0x48] [System] [12520*]:
    → "Globules of slag and various bits of string lay strewn about haphazardly..."
  2: 0x02EA [0x23] WAIT_FOR_DIALOG_INTERACTION
  3: 0x02EB [0x21] END_EVENT
  4: 0x02EC [0x00] END_REQSTACK()
```

### Event 109

#### Metadata

| Field        | Value      |
|--------------|------------|
| Entrypoint   | 0x02ED     |
| Data Size    | 1099 bytes |
| Instructions | 146        |

```
      00 01 02 03 04 05 06 07  08 09 0A 0B 0C 0D 0E 0F
      -- -- -- -- -- -- -- --  -- -- -- -- -- -- -- --
02E0:                                         42 1A 64               B.d
02F0: 00 46 01 38 0C 80 27 10  45 01 10 01 04 92 01 45  .F.8..'.E......E
0300: 01 10 01 94 01 45 01 10  01 29 10 45 01 10 01 23  .....E...).E...#
0310: BA 45 01 10 01 0D 80 0E  80 0F 80 10 80 BA F0 FF  .E..............
0320: FF 7F 11 80 12 80 13 80  14 80 80 F0 FF FF 7F 80  ................
0330: 45 01 10 01 45 15 80 F0  FF FF 7F F0 FF FF 7F 73  E...E..........s
0340: 30 38 38 01 80 1A 43 00  1C 16 80 29 10 F0 FF FF  088...C....)....
0350: 7F 6A 5D 17 80 18 80 1C  19 80 52 15 80 F0 FF FF  .j].......R.....
0360: 7F F0 FF FF 7F 73 30 38  38 45 15 80 F0 FF FF 7F  .....s088E......
0370: F0 FF FF 7F 73 30 39 31  01 80 27 10 45 01 10 01  ....s091..'.E...
0380: 26 79 00 45 01 10 01 F0  FF FF 7F 2B 45 01 10 01  &y.E.......+E...
0390: 1A 80 23 1C 06 80 6E F0  FF FF 7F 1B 80 99 F0 FF  ..#...n.........
03A0: FF 7F 52 15 80 F0 FF FF  7F F0 FF FF 7F 73 30 39  ..R..........s09
03B0: 31 1A DA 1C 02 01 00 03  80 00 D0 03 45 15 80 F0  1...........E...
03C0: FF FF 7F F0 FF FF 7F 73  30 39 30 01 80 01 E1 03  .......s090.....
03D0: 45 15 80 F0 FF FF 7F F0  FF FF 7F 73 30 38 39 01  E..........s089.
03E0: 80 1C 19 80 2B 45 01 10  01 1C 80 23 1C 06 80 4A  ....+E.....#...J
03F0: F0 FF FF 7F 45 01 10 01  1C 1D 80 52 15 80 F0 FF  ....E......R....
0400: FF 7F F0 FF FF 7F 73 30  39 30 52 15 80 F0 FF FF  ......s090R.....
0410: 7F F0 FF FF 7F 73 30 38  39 45 15 80 F0 FF FF 7F  .....s089E......
0420: F0 FF FF 7F 73 30 39 32  01 80 29 10 45 01 10 01  ....s092..).E...
0430: 24 2B 45 01 10 01 1E 80  23 52 15 80 F0 FF FF 7F  $+E.....#R......
0440: F0 FF FF 7F 73 30 39 32  45 15 80 F0 FF FF 7F F0  ....s092E.......
0450: FF FF 7F 73 30 39 33 01  80 06 01 10 24 1F 80 01  ...s093.....$...
0460: 80 01 80 25 02 00 10 01  80 00 A2 06 52 15 80 F0  ...%........R...
0470: FF FF 7F F0 FF FF 7F 73  30 39 33 05 01 10 45 15  .......s093...E.
0480: 80 F0 FF FF 7F F0 FF FF  7F 73 30 39 35 01 80 1C  .........s095...
0490: 20 80 4A 45 01 10 01 F0  FF FF 7F 6F 76 45 01 10   .JE.......ovE..
04A0: 01 1C 21 80 6E 45 01 10  01 01 80 99 45 01 10 01  ..!.nE......E...
04B0: 1C 06 80 52 15 80 F0 FF  FF 7F F0 FF FF 7F 73 30  ...R..........s0
04C0: 39 35 45 15 80 F0 FF FF  7F F0 FF FF 7F 73 30 39  95E..........s09
04D0: 36 01 80 2B 45 01 10 01  22 80 23 52 15 80 F0 FF  6..+E...".#R....
04E0: FF 7F F0 FF FF 7F 73 30  39 36 45 15 80 F0 FF FF  ......s096E.....
04F0: 7F F0 FF FF 7F 73 30 39  37 01 80 2B 45 01 10 01  .....s097..+E...
0500: 23 80 23 2B 45 01 10 01  24 80 23 52 15 80 F0 FF  #.#+E...$.#R....
0510: FF 7F F0 FF FF 7F 73 30  39 37 45 15 80 F0 FF FF  ......s097E.....
0520: 7F F0 FF FF 7F 73 30 39  38 01 80 66 25 80 45 01  .....s098..f%.E.
0530: 10 01 45 01 10 01 74 6C  6B 30 1C 06 80 2B 45 01  ..E...tlk0...+E.
0540: 10 01 26 80 23 2B 45 01  10 01 27 80 23 1C 06 80  ..&.#+E...'.#...
0550: 66 25 80 45 01 10 01 45  01 10 01 74 6C 6B 31 1C  f%.E...E...tlk1.
0560: 06 80 7B 45 01 10 01 66  28 80 45 01 10 01 45 01  ..{E...f(.E...E.
0570: 10 01 74 68 6B 31 1C 20  80 52 15 80 F0 FF FF 7F  ..thk1. .R......
0580: F0 FF FF 7F 73 30 39 38  45 15 80 F0 FF FF 7F F0  ....s098E.......
0590: FF FF 7F 73 30 39 39 01  80 1C 20 80 2B 45 01 10  ...s099... .+E..
05A0: 01 29 80 23 66 28 80 45  01 10 01 45 01 10 01 74  .).#f(.E...E...t
05B0: 68 6B 32 79 00 45 01 10  01 F0 FF FF 7F 1C 20 80  hk2y.E........ .
05C0: 52 15 80 F0 FF FF 7F F0  FF FF 7F 73 30 39 39 45  R..........s099E
05D0: 15 80 F0 FF FF 7F F0 FF  FF 7F 73 31 30 30 01 80  ..........s100..
05E0: 1C 20 80 03 02 10 2A 80  03 03 10 2B 80 2B 45 01  . ....*....+.+E.
05F0: 10 01 2C 80 23 1C 20 80  66 2D 80 45 01 10 01 45  ..,.#. .f-.E...E
0600: 01 10 01 74 6C 62 30 52  15 80 F0 FF FF 7F F0 FF  ...tlb0R........
0610: FF 7F 73 31 30 30 45 15  80 F0 FF FF 7F F0 FF FF  ..s100E.........
0620: 7F 73 31 30 31 01 80 1C  20 80 03 03 10 2B 80 2B  .s101... ....+.+
0630: 45 01 10 01 2E 80 23 1C  20 80 52 15 80 F0 FF FF  E.....#. .R.....
0640: 7F F0 FF FF 7F 73 31 30  31 45 15 80 F0 FF FF 7F  .....s101E......
0650: F0 FF FF 7F 73 31 30 32  01 80 1C 20 80 66 2D 80  ....s102... .f-.
0660: 45 01 10 01 45 01 10 01  74 6C 62 31 1C 06 80 2B  E...E...tlb1...+
0670: 45 01 10 01 2F 80 23 52  15 80 F0 FF FF 7F F0 FF  E.../.#R........
0680: FF 7F 73 31 30 32 45 15  80 F0 FF FF 7F F0 FF FF  ..s102E.........
0690: 7F 73 31 30 33 01 80 2B  45 01 10 01 30 80 23 01  .s103..+E...0.#.
06A0: E4 06 02 00 10 03 80 00  E4 06 52 15 80 F0 FF FF  ..........R.....
06B0: 7F F0 FF FF 7F 73 30 39  33 45 15 80 F0 FF FF 7F  .....s093E......
06C0: F0 FF FF 7F 73 30 39 34  01 80 6E 45 01 10 01 31  ....s094..nE...1
06D0: 80 99 45 01 10 01 1C 04  80 2B 45 01 10 01 32 80  ..E......+E...2.
06E0: 23 01 E4 06 27 10 45 01  10 01 28 1C 16 80 1A 64  #...'.E...(....d
06F0: 00 1C 06 80 52 15 80 F0  FF FF 7F F0 FF FF 7F 73  ....R..........s
0700: 31 30 33 52 15 80 F0 FF  FF 7F F0 FF FF 7F 73 30  103R..........s0
0710: 39 34 5D 33 80 34 80 1C  20 80 AB 11 01 80 1C 03  94]3.4.. .......
0720: 80 AB 0A 46 00 45 00 80  F0 FF FF 7F F0 FF FF 7F  ...F.E..........
0730: 66 64 69 32 01 80 21 00                           fdi2..!.        
```

#### Opcodes

```
  0: 0x02ED [0x42] SET_CLI_EVENT_CANCEL_DATA()
  1: 0x02EE [0x1A] CALL_SUBROUTINE(address=0x0064)
  2: 0x02F1 [0x46] CAMERA_CONTROL: Disable user control
  3: 0x02F3 [0x38] SET_CLIENT_EVENT_MODE(mode=19*)
  4: 0x02F6 [0x27] REQ_SET(priority=0x10, entity_id=Unnamed NPC (ID: 17826117/0x01100145), tag_num=0x04)
  5: 0x02FD [0x92] Unnamed NPC (ID: 17826117/0x01100145)->Render.Flags3 ^= 0x01
  6: 0x0303 [0x94] Unnamed NPC (ID: 17826117/0x01100145)->Render.Flags3 ^= 0x01
  7: 0x0309 [0x29] REQ_SET_WAIT(priority=0x10, entity_id=Unnamed NPC (ID: 17826117/0x01100145), tag_num=0x23)
  8: 0x0310 [0xBA] SET_ENTITY_POSITION(entity_id=Unnamed NPC (ID: 17826117/0x01100145), pos_x=53.943*, pos_z=164.920*, pos_y=27.999*, direction=142.4°*)
  9: 0x031D [0xBA] SET_ENTITY_POSITION(entity_id=LocalPlayer, pos_x=57.445*, pos_z=154.280*, pos_y=31.999*, direction=245.0°*)
 10: 0x032A [0x80] LOAD_WAIT(entity=LocalPlayer)
 11: 0x032F [0x80] LOAD_WAIT(entity=Unnamed NPC (ID: 17826117/0x01100145))
 12: 0x0334 [0x45] LOAD_SCHEDULED_TASK: Load scheduler "s088" with entities [LocalPlayer, LocalPlayer], work=[611*, 0*]
 13: 0x0345 [0x1A] CALL_SUBROUTINE(address=0x0043)
 14: 0x0348 [0x1C] WAIT(60* ticks)
 15: 0x034B [0x29] REQ_SET_WAIT(priority=0x10, entity_id=LocalPlayer, tag_num=0x6A)
 16: 0x0352 [0x5D] SET_MUSIC_VOLUME(volume=31*, fade_time=240*)
 17: 0x0357 [0x1C] WAIT(90* ticks)
 18: 0x035A [0x52] END_LOAD_SCHEDULER: End scheduler "s088" with entities [LocalPlayer, LocalPlayer], work=611*
 19: 0x0369 [0x45] LOAD_SCHEDULED_TASK: Load scheduler "s091" with entities [LocalPlayer, LocalPlayer], work=[611*, 0*]
 20: 0x037A [0x27] REQ_SET(priority=0x10, entity_id=Unnamed NPC (ID: 17826117/0x01100145), tag_num=0x26)
 21: 0x0381 [0x79] Unnamed NPC (ID: 17826117/0x01100145) looks at LocalPlayer (Basic look)
 22: 0x038B [0x2B] Unnamed NPC (ID: 17826117/0x01100145) [12521*]:
    → "For the lastaru time, I don't give a damn about behemoth horn aphro...oh."
 23: 0x0392 [0x23] WAIT_FOR_DIALOG_INTERACTION
 24: 0x0393 [0x1C] WAIT(30* ticks)
 25: 0x0396 [0x6E] LocalPlayer uses emote 29*
 26: 0x039D [0x99] Wait for LocalPlayer animation to complete
 27: 0x03A2 [0x52] END_LOAD_SCHEDULER: End scheduler "s091" with entities [LocalPlayer, LocalPlayer], work=611*
 28: 0x03B1 [0x1A] CALL_SUBROUTINE(address=0x1CDA)
 29: 0x03B4 [0x02] IF !(ExtData[1]->WorkLocal[1] == 1*) GOTO 0x03D0
 30: 0x03BC [0x45] LOAD_SCHEDULED_TASK: Load scheduler "s090" with entities [LocalPlayer, LocalPlayer], work=[611*, 0*]
 31: 0x03CD [0x01] GOTO 0x03E1
 32: 0x03D0 [0x45] LOAD_SCHEDULED_TASK: Load scheduler "s089" with entities [LocalPlayer, LocalPlayer], work=[611*, 0*]

SUBROUTINE_03E1:
 33: 0x03E1 [0x1C] WAIT(90* ticks)
 34: 0x03E4 [0x2B] Unnamed NPC (ID: 17826117/0x01100145) [12522*]:
    → "So you're the servantaru Octavien said he was going to send..."
 35: 0x03EB [0x23] WAIT_FOR_DIALOG_INTERACTION
 36: 0x03EC [0x1C] WAIT(30* ticks)
 37: 0x03EF [0x4A] LocalPlayer looks at Unnamed NPC (ID: 17826117/0x01100145)
 38: 0x03F8 [0x1C] WAIT(70* ticks)
 39: 0x03FB [0x52] END_LOAD_SCHEDULER: End scheduler "s090" with entities [LocalPlayer, LocalPlayer], work=611*
 40: 0x040A [0x52] END_LOAD_SCHEDULER: End scheduler "s089" with entities [LocalPlayer, LocalPlayer], work=611*
 41: 0x0419 [0x45] LOAD_SCHEDULED_TASK: Load scheduler "s092" with entities [LocalPlayer, LocalPlayer], work=[611*, 0*]
 42: 0x042A [0x29] REQ_SET_WAIT(priority=0x10, entity_id=Unnamed NPC (ID: 17826117/0x01100145), tag_num=0x24)
 43: 0x0431 [0x2B] Unnamed NPC (ID: 17826117/0x01100145) [12523*]:
    → "You need me to forgey-worge a blade for you, then?"
 44: 0x0438 [0x23] WAIT_FOR_DIALOG_INTERACTION
 45: 0x0439 [0x52] END_LOAD_SCHEDULER: End scheduler "s092" with entities [LocalPlayer, LocalPlayer], work=611*
 46: 0x0448 [0x45] LOAD_SCHEDULED_TASK: Load scheduler "s093" with entities [LocalPlayer, LocalPlayer], work=[611*, 0*]
 47: 0x0459 [0x06] Work_Zone[1] = 0
 48: 0x045C [0x24] CREATE_DIALOG(message_id=12524*, default_option=0*, option_flags=0*)
    → "Is that what you came here to ask? [Yes, it is./No, it's not.]"
 49: 0x0463 [0x25] WAIT_DIALOG_SELECT()
 50: 0x0464 [0x02] IF !(Work_Zone[0] == 0*) GOTO 0x06A2
 51: 0x046C [0x52] END_LOAD_SCHEDULER: End scheduler "s093" with entities [LocalPlayer, LocalPlayer], work=611*
 52: 0x047B [0x05] Work_Zone[1] = 1
 53: 0x047E [0x45] LOAD_SCHEDULED_TASK: Load scheduler "s095" with entities [LocalPlayer, LocalPlayer], work=[611*, 0*]
 54: 0x048F [0x1C] WAIT(15* ticks)
 55: 0x0492 [0x4A] Unnamed NPC (ID: 17826117/0x01100145) looks at LocalPlayer
 56: 0x049B [0x6F] WAIT_FRAME_DELAY: Yield until WaitTime reaches zero
 57: 0x049C [0x76] CHECK_ENTITY_RENDER_FLAGS: Wait until Unnamed NPC (ID: 17826117/0x01100145) Render.Flags0 and Render.Flags3 conditions are met
 58: 0x04A1 [0x1C] WAIT(110* ticks)
 59: 0x04A4 [0x6E] Unnamed NPC (ID: 17826117/0x01100145) uses emote 0*
 60: 0x04AB [0x99] Wait for Unnamed NPC (ID: 17826117/0x01100145) animation to complete
 61: 0x04B0 [0x1C] WAIT(30* ticks)
 62: 0x04B3 [0x52] END_LOAD_SCHEDULER: End scheduler "s095" with entities [LocalPlayer, LocalPlayer], work=611*
 63: 0x04C2 [0x45] LOAD_SCHEDULED_TASK: Load scheduler "s096" with entities [LocalPlayer, LocalPlayer], work=[611*, 0*]
 64: 0x04D3 [0x2B] Unnamed NPC (ID: 17826117/0x01100145) [12526*]:
    → "Well, tough troll teats."
 65: 0x04DA [0x23] WAIT_FOR_DIALOG_INTERACTION
 66: 0x04DB [0x52] END_LOAD_SCHEDULER: End scheduler "s096" with entities [LocalPlayer, LocalPlayer], work=611*
 67: 0x04EA [0x45] LOAD_SCHEDULED_TASK: Load scheduler "s097" with entities [LocalPlayer, LocalPlayer], work=[611*, 0*]
 68: 0x04FB [0x2B] Unnamed NPC (ID: 17826117/0x01100145) [12527*]:
    → "The Order of Orvail wants a sword that is normally produced using techniques that died out centuries-wenturies ago. The ones in which we contemporary blacksmiths are versed are barely applicable."
 69: 0x0502 [0x23] WAIT_FOR_DIALOG_INTERACTION
 70: 0x0503 [0x2B] Unnamed NPC (ID: 17826117/0x01100145) [12528*]:
    → "If I add even the slightaruest bit too much or too little of certain ingredients after smelting, the blade will turn out duller than that intolerable geomancer Sylvie."
 71: 0x050A [0x23] WAIT_FOR_DIALOG_INTERACTION
 72: 0x050B [0x52] END_LOAD_SCHEDULER: End scheduler "s097" with entities [LocalPlayer, LocalPlayer], work=611*
 73: 0x051A [0x45] LOAD_SCHEDULED_TASK: Load scheduler "s098" with entities [LocalPlayer, LocalPlayer], work=[611*, 0*]
 74: 0x052B [0x66] LOAD_EXT_SCHEDULER_MAIN: Load scheduler "tlk0" with entities [Unnamed NPC (ID: 17826117/0x01100145), Unnamed NPC (ID: 17826117/0x01100145)], work=189*
 75: 0x053A [0x1C] WAIT(30* ticks)
 76: 0x053D [0x2B] Unnamed NPC (ID: 17826117/0x01100145) [12529*]:
    → "Sabers, broadswords, rapiers, they're all living, breathing things...and they all feed off their forgers' souls. Your attitudes and intentions when imbuing-wuing the steel are absorbed and determine its personality--for bettaru or worse."
 77: 0x0544 [0x23] WAIT_FOR_DIALOG_INTERACTION
 78: 0x0545 [0x2B] Unnamed NPC (ID: 17826117/0x01100145) [12530*]:
    → "Someone as adeptaru at smithing as me can bring this sword to life in exchange for shortening my own. The real problem, however, is getting the materials-werials together."
 79: 0x054C [0x23] WAIT_FOR_DIALOG_INTERACTION
 80: 0x054D [0x1C] WAIT(30* ticks)
 81: 0x0550 [0x66] LOAD_EXT_SCHEDULER_MAIN: Load scheduler "tlk1" with entities [Unnamed NPC (ID: 17826117/0x01100145), Unnamed NPC (ID: 17826117/0x01100145)], work=189*
 82: 0x055F [0x1C] WAIT(30* ticks)
 83: 0x0562 [0x7B] Unnamed NPC (ID: 17826117/0x01100145) stops talking
 84: 0x0567 [0x66] LOAD_EXT_SCHEDULER_MAIN: Load scheduler "thk1" with entities [Unnamed NPC (ID: 17826117/0x01100145), Unnamed NPC (ID: 17826117/0x01100145)], work=49*
 85: 0x0576 [0x1C] WAIT(15* ticks)
 86: 0x0579 [0x52] END_LOAD_SCHEDULER: End scheduler "s098" with entities [LocalPlayer, LocalPlayer], work=611*
 87: 0x0588 [0x45] LOAD_SCHEDULED_TASK: Load scheduler "s099" with entities [LocalPlayer, LocalPlayer], work=[611*, 0*]
 88: 0x0599 [0x1C] WAIT(15* ticks)
 89: 0x059C [0x2B] Unnamed NPC (ID: 17826117/0x01100145) [12531*]:
    → "I have the requisitaru metals and leather, but for a weapon as mountainous-wountainous as this, you'll need to venture forth into the heart of Ulbuka's darkness to find some exceptionally powerful resources."
 90: 0x05A3 [0x23] WAIT_FOR_DIALOG_INTERACTION
 91: 0x05A4 [0x66] LOAD_EXT_SCHEDULER_MAIN: Load scheduler "thk2" with entities [Unnamed NPC (ID: 17826117/0x01100145), Unnamed NPC (ID: 17826117/0x01100145)], work=49*
 92: 0x05B3 [0x79] Unnamed NPC (ID: 17826117/0x01100145) looks at LocalPlayer (Basic look)
 93: 0x05BD [0x1C] WAIT(15* ticks)
 94: 0x05C0 [0x52] END_LOAD_SCHEDULER: End scheduler "s099" with entities [LocalPlayer, LocalPlayer], work=611*
 95: 0x05CF [0x45] LOAD_SCHEDULED_TASK: Load scheduler "s100" with entities [LocalPlayer, LocalPlayer], work=[611*, 0*]
 96: 0x05E0 [0x1C] WAIT(15* ticks)
 97: 0x05E3 [0x03] Work_Zone[2] = 2354*
 98: 0x05E8 [0x03] Work_Zone[3] = 2356*
 99: 0x05ED [0x2B] Unnamed NPC (ID: 17826117/0x01100145) [12532*]:
    → "I don't have either $6 or $6, but they're both indispensable-wensable."
100: 0x05F4 [0x23] WAIT_FOR_DIALOG_INTERACTION
101: 0x05F5 [0x1C] WAIT(15* ticks)
102: 0x05F8 [0x66] LOAD_EXT_SCHEDULER_MAIN: Load scheduler "tlb0" with entities [Unnamed NPC (ID: 17826117/0x01100145), Unnamed NPC (ID: 17826117/0x01100145)], work=34*
103: 0x0607 [0x52] END_LOAD_SCHEDULER: End scheduler "s100" with entities [LocalPlayer, LocalPlayer], work=611*
104: 0x0616 [0x45] LOAD_SCHEDULED_TASK: Load scheduler "s101" with entities [LocalPlayer, LocalPlayer], work=[611*, 0*]
105: 0x0627 [0x1C] WAIT(15* ticks)
106: 0x062A [0x03] Work_Zone[3] = 2356*
107: 0x062F [0x2B] Unnamed NPC (ID: 17826117/0x01100145) [12533*]:
    → "I've heard you can find $5 in $7, but I've certainly never been there. It's no stroll past the statue of the Goddess-woddess with your lover, and only those either blinded by fame and fortune or seeking the sweet reprieve of eternal slumber-wumber ever set out for it."
108: 0x0636 [0x23] WAIT_FOR_DIALOG_INTERACTION
109: 0x0637 [0x1C] WAIT(15* ticks)
110: 0x063A [0x52] END_LOAD_SCHEDULER: End scheduler "s101" with entities [LocalPlayer, LocalPlayer], work=611*
111: 0x0649 [0x45] LOAD_SCHEDULED_TASK: Load scheduler "s102" with entities [LocalPlayer, LocalPlayer], work=[611*, 0*]
112: 0x065A [0x1C] WAIT(15* ticks)
113: 0x065D [0x66] LOAD_EXT_SCHEDULER_MAIN: Load scheduler "tlb1" with entities [Unnamed NPC (ID: 17826117/0x01100145), Unnamed NPC (ID: 17826117/0x01100145)], work=34*
114: 0x066C [0x1C] WAIT(30* ticks)
115: 0x066F [0x2B] Unnamed NPC (ID: 17826117/0x01100145) [12534*]:
    → "I may shape swords for a living, but I wouldn't be caughtaru dead swinging one. There's no way I'm going out there."
116: 0x0676 [0x23] WAIT_FOR_DIALOG_INTERACTION
117: 0x0677 [0x52] END_LOAD_SCHEDULER: End scheduler "s102" with entities [LocalPlayer, LocalPlayer], work=611*
118: 0x0686 [0x45] LOAD_SCHEDULED_TASK: Load scheduler "s103" with entities [LocalPlayer, LocalPlayer], work=[611*, 0*]
119: 0x0697 [0x2B] Unnamed NPC (ID: 17826117/0x01100145) [12535*]:
    → "Go back to whatever Goddessforsaken continentaru you came from and forget about that sword."
120: 0x069E [0x23] WAIT_FOR_DIALOG_INTERACTION
121: 0x069F [0x01] GOTO 0x06E4
122: 0x06A2 [0x02] IF !(Work_Zone[0] == 1*) GOTO 0x06E4
123: 0x06AA [0x52] END_LOAD_SCHEDULER: End scheduler "s093" with entities [LocalPlayer, LocalPlayer], work=611*
124: 0x06B9 [0x45] LOAD_SCHEDULED_TASK: Load scheduler "s094" with entities [LocalPlayer, LocalPlayer], work=[611*, 0*]
125: 0x06CA [0x6E] Unnamed NPC (ID: 17826117/0x01100145) uses emote 22*
126: 0x06D1 [0x99] Wait for Unnamed NPC (ID: 17826117/0x01100145) animation to complete
127: 0x06D6 [0x1C] WAIT(45* ticks)
128: 0x06D9 [0x2B] Unnamed NPC (ID: 17826117/0x01100145) [12525*]:
    → "Then why the hell did you come here? Wait, don't answer that. Just make like a log and splitaru."
129: 0x06E0 [0x23] WAIT_FOR_DIALOG_INTERACTION
130: 0x06E1 [0x01] GOTO 0x06E4

SUBROUTINE_06E4:
131: 0x06E4 [0x27] REQ_SET(priority=0x10, entity_id=Unnamed NPC (ID: 17826117/0x01100145), tag_num=0x28)
132: 0x06EB [0x1C] WAIT(60* ticks)
133: 0x06EE [0x1A] CALL_SUBROUTINE(address=0x0064)
134: 0x06F1 [0x1C] WAIT(30* ticks)
135: 0x06F4 [0x52] END_LOAD_SCHEDULER: End scheduler "s103" with entities [LocalPlayer, LocalPlayer], work=611*
136: 0x0703 [0x52] END_LOAD_SCHEDULER: End scheduler "s094" with entities [LocalPlayer, LocalPlayer], work=611*
137: 0x0712 [0x5D] SET_MUSIC_VOLUME(volume=127*, fade_time=120*)
138: 0x0717 [0x1C] WAIT(15* ticks)
139: 0x071A [0xAB] EventEntity->DespawnValue = 0* // Set despawn value
140: 0x071E [0x1C] WAIT(1* ticks)
141: 0x0721 [0xAB] EventEntity->UnknownFlag = 0 // Disable unknown flag
142: 0x0723 [0x46] CAMERA_CONTROL: Restore default settings
143: 0x0725 [0x45] LOAD_SCHEDULED_TASK: Load scheduler "fdi2" with entities [LocalPlayer, LocalPlayer], work=[200*, 0*]
144: 0x0736 [0x21] END_EVENT
145: 0x0737 [0x00] END_REQSTACK()
```

### Event 110

#### Metadata

| Field        | Value    |
|--------------|----------|
| Entrypoint   | 0x0738   |
| Data Size    | 19 bytes |
| Instructions | 7        |

```
      00 01 02 03 04 05 06 07  08 09 0A 0B 0C 0D 0E 0F
      -- -- -- -- -- -- -- --  -- -- -- -- -- -- -- --
0730:                          4A F0 FF FF 7F 42 01 10          J....B..
0740: 01 48 35 80 23 48 36 80  23 21 00                 .H5.#H6.#!.     
```

#### Opcodes

```
  0: 0x0738 [0x4A] LocalPlayer looks at Inconspicuous Barrel (ID: 17826114/0x01100142)
  1: 0x0741 [0x48] [System] [12536*]:
    → "Attached to the barrel is a note, written in a strong and decisive hand, that reads thus:"
  2: 0x0744 [0x23] WAIT_FOR_DIALOG_INTERACTION
  3: 0x0745 [0x48] [System] [12537*]:
    → ""Don't ask me to make-wake anything right now. Go the hell away. --Yestin-Ovestin""
  4: 0x0748 [0x23] WAIT_FOR_DIALOG_INTERACTION
  5: 0x0749 [0x21] END_EVENT
  6: 0x074A [0x00] END_REQSTACK()
```

### Event 111

#### Metadata

| Field        | Value     |
|--------------|-----------|
| Entrypoint   | 0x074B    |
| Data Size    | 816 bytes |
| Instructions | 111       |

```
      00 01 02 03 04 05 06 07  08 09 0A 0B 0C 0D 0E 0F
      -- -- -- -- -- -- -- --  -- -- -- -- -- -- -- --
0740:                                   42 1A 64 00 46             B.d.F
0750: 01 38 0C 80 27 10 45 01  10 01 04 92 01 45 01 10  .8..'.E......E..
0760: 01 94 01 45 01 10 01 29  10 45 01 10 01 25 BA 45  ...E...).E...%.E
0770: 01 10 01 37 80 38 80 0F  80 39 80 BA F0 FF FF 7F  ...7.8...9......
0780: 3A 80 3B 80 13 80 14 80  4A 45 01 10 01 F0 FF FF  :.;.....JE......
0790: 7F 4A F0 FF FF 7F 45 01  10 01 6F 70 6F 70 80 45  .J....E...opop.E
07A0: 01 10 01 80 F0 FF FF 7F  45 15 80 F0 FF FF 7F F0  ........E.......
07B0: FF FF 7F 73 31 35 30 01  80 1A 43 00 1C 3C 80 52  ...s150...C..<.R
07C0: 15 80 F0 FF FF 7F F0 FF  FF 7F 73 31 35 30 1A DA  ..........s150..
07D0: 1C 02 01 00 03 80 00 ED  07 45 15 80 F0 FF FF 7F  .........E......
07E0: F0 FF FF 7F 73 31 34 37  01 80 01 FE 07 45 15 80  ....s147.....E..
07F0: F0 FF FF 7F F0 FF FF 7F  73 31 34 38 01 80 29 10  ........s148..).
0800: F0 FF FF 7F 6D 1C 3D 80  66 25 80 45 01 10 01 45  ....m.=.f%.E...E
0810: 01 10 01 74 6C 6B 30 52  15 80 F0 FF FF 7F F0 FF  ...tlk0R........
0820: FF 7F 73 31 34 37 52 15  80 F0 FF FF 7F F0 FF FF  ..s147R.........
0830: 7F 73 31 34 38 45 15 80  F0 FF FF 7F F0 FF FF 7F  .s148E..........
0840: 73 31 30 39 01 80 1C 06  80 03 04 10 2B 80 2B 45  s109........+.+E
0850: 01 10 01 3E 80 23 1C 04  80 52 15 80 F0 FF FF 7F  ...>.#...R......
0860: F0 FF FF 7F 73 31 30 39  1A DA 1C 02 01 00 03 80  ....s109........
0870: 00 87 08 45 15 80 F0 FF  FF 7F F0 FF FF 7F 73 31  ...E..........s1
0880: 34 37 01 80 01 98 08 45  15 80 F0 FF FF 7F F0 FF  47.....E........
0890: FF 7F 73 31 34 38 01 80  29 10 F0 FF FF 7F 6D 1C  ..s148..).....m.
08A0: 3D 80 52 15 80 F0 FF FF  7F F0 FF FF 7F 73 31 34  =.R..........s14
08B0: 37 52 15 80 F0 FF FF 7F  F0 FF FF 7F 73 31 34 38  7R..........s148
08C0: 45 15 80 F0 FF FF 7F F0  FF FF 7F 73 31 30 39 01  E..........s109.
08D0: 80 1C 06 80 03 03 10 2A  80 2B 45 01 10 01 3F 80  .......*.+E...?.
08E0: 23 1C 06 80 66 25 80 45  01 10 01 45 01 10 01 74  #...f%.E...E...t
08F0: 6C 6B 31 1C 06 80 2B 45  01 10 01 40 80 23 52 15  lk1...+E...@.#R.
0900: 80 F0 FF FF 7F F0 FF FF  7F 73 31 30 39 45 15 80  .........s109E..
0910: F0 FF FF 7F F0 FF FF 7F  73 31 31 30 01 80 29 10  ........s110..).
0920: F0 FF FF 7F 10 52 15 80  F0 FF FF 7F F0 FF FF 7F  .....R..........
0930: 73 31 31 30 45 15 80 F0  FF FF 7F F0 FF FF 7F 73  s110E..........s
0940: 31 31 31 01 80 1C 16 80  03 02 10 41 80 2B 45 01  111........A.+E.
0950: 10 01 42 80 23 1C 06 80  7B 45 01 10 01 66 28 80  ..B.#...{E...f(.
0960: 45 01 10 01 45 01 10 01  74 68 6B 31 52 15 80 F0  E...E...thk1R...
0970: FF FF 7F F0 FF FF 7F 73  31 31 31 45 15 80 F0 FF  .......s111E....
0980: FF 7F F0 FF FF 7F 73 31  31 32 01 80 1C 20 80 2B  ......s112... .+
0990: 45 01 10 01 43 80 23 1C  06 80 66 28 80 45 01 10  E...C.#...f(.E..
09A0: 01 45 01 10 01 74 68 6B  32 79 00 45 01 10 01 F0  .E...thk2y.E....
09B0: FF FF 7F 1C 06 80 2B 45  01 10 01 44 80 23 6E 45  ......+E...D.#nE
09C0: 01 10 01 45 80 99 45 01  10 01 03 03 10 2A 80 03  ...E..E......*..
09D0: 04 10 2B 80 2B 45 01 10  01 46 80 23 1C 04 80 52  ..+.+E...F.#...R
09E0: 15 80 F0 FF FF 7F F0 FF  FF 7F 73 31 31 32 45 15  ..........s112E.
09F0: 80 F0 FF FF 7F F0 FF FF  7F 73 31 31 33 01 80 7B  .........s113..{
0A00: 45 01 10 01 6E 45 01 10  01 47 80 99 45 01 10 01  E...nE...G..E...
0A10: 2B 45 01 10 01 48 80 23  1C 47 80 52 15 80 F0 FF  +E...H.#.G.R....
0A20: FF 7F F0 FF FF 7F 73 31  31 33 45 15 80 F0 FF FF  ......s113E.....
0A30: 7F F0 FF FF 7F 73 31 34  39 01 80 27 10 45 01 10  .....s149..'.E..
0A40: 01 29 1C 06 80 1A 64 00  1C 06 80 52 15 80 F0 FF  .)....d....R....
0A50: FF 7F F0 FF FF 7F 73 31  34 39 1C 20 80 AB 11 01  ......s149. ....
0A60: 80 1C 03 80 AB 0A 46 00  45 00 80 F0 FF FF 7F F0  ......F.E.......
0A70: FF FF 7F 66 64 69 32 01  80 21 00                 ...fdi2..!.     
```

#### Opcodes

```
  0: 0x074B [0x42] SET_CLI_EVENT_CANCEL_DATA()
  1: 0x074C [0x1A] CALL_SUBROUTINE(address=0x0064)
  2: 0x074F [0x46] CAMERA_CONTROL: Disable user control
  3: 0x0751 [0x38] SET_CLIENT_EVENT_MODE(mode=19*)
  4: 0x0754 [0x27] REQ_SET(priority=0x10, entity_id=Unnamed NPC (ID: 17826117/0x01100145), tag_num=0x04)
  5: 0x075B [0x92] Unnamed NPC (ID: 17826117/0x01100145)->Render.Flags3 ^= 0x01
  6: 0x0761 [0x94] Unnamed NPC (ID: 17826117/0x01100145)->Render.Flags3 ^= 0x01
  7: 0x0767 [0x29] REQ_SET_WAIT(priority=0x10, entity_id=Unnamed NPC (ID: 17826117/0x01100145), tag_num=0x25)
  8: 0x076E [0xBA] SET_ENTITY_POSITION(entity_id=Unnamed NPC (ID: 17826117/0x01100145), pos_x=51.806*, pos_z=162.364*, pos_y=27.999*, direction=125.2°*)
  9: 0x077B [0xBA] SET_ENTITY_POSITION(entity_id=LocalPlayer, pos_x=54.099*, pos_z=158.511*, pos_y=31.999*, direction=245.0°*)
 10: 0x0788 [0x4A] Unnamed NPC (ID: 17826117/0x01100145) looks at LocalPlayer
 11: 0x0791 [0x4A] LocalPlayer looks at Unnamed NPC (ID: 17826117/0x01100145)
 12: 0x079A [0x6F] WAIT_FRAME_DELAY: Yield until WaitTime reaches zero
 13: 0x079B [0x70] WAIT_ENTITY_RENDER_FLAG: Wait while EventEntity->Render.Flags3 bit 2 is set (cancel turn if not)
 14: 0x079C [0x6F] WAIT_FRAME_DELAY: Yield until WaitTime reaches zero
 15: 0x079D [0x70] WAIT_ENTITY_RENDER_FLAG: Wait while EventEntity->Render.Flags3 bit 2 is set (cancel turn if not)
 16: 0x079E [0x80] LOAD_WAIT(entity=Unnamed NPC (ID: 17826117/0x01100145))
 17: 0x07A3 [0x80] LOAD_WAIT(entity=LocalPlayer)
 18: 0x07A8 [0x45] LOAD_SCHEDULED_TASK: Load scheduler "s150" with entities [LocalPlayer, LocalPlayer], work=[611*, 0*]
 19: 0x07B9 [0x1A] CALL_SUBROUTINE(address=0x0043)
 20: 0x07BC [0x1C] WAIT(75* ticks)
 21: 0x07BF [0x52] END_LOAD_SCHEDULER: End scheduler "s150" with entities [LocalPlayer, LocalPlayer], work=611*
 22: 0x07CE [0x1A] CALL_SUBROUTINE(address=0x1CDA)
 23: 0x07D1 [0x02] IF !(ExtData[1]->WorkLocal[1] == 1*) GOTO 0x07ED
 24: 0x07D9 [0x45] LOAD_SCHEDULED_TASK: Load scheduler "s147" with entities [LocalPlayer, LocalPlayer], work=[611*, 0*]
 25: 0x07EA [0x01] GOTO 0x07FE
 26: 0x07ED [0x45] LOAD_SCHEDULED_TASK: Load scheduler "s148" with entities [LocalPlayer, LocalPlayer], work=[611*, 0*]

SUBROUTINE_07FE:
 27: 0x07FE [0x29] REQ_SET_WAIT(priority=0x10, entity_id=LocalPlayer, tag_num=0x6D)
 28: 0x0805 [0x1C] WAIT(100* ticks)
 29: 0x0808 [0x66] LOAD_EXT_SCHEDULER_MAIN: Load scheduler "tlk0" with entities [Unnamed NPC (ID: 17826117/0x01100145), Unnamed NPC (ID: 17826117/0x01100145)], work=189*
 30: 0x0817 [0x52] END_LOAD_SCHEDULER: End scheduler "s147" with entities [LocalPlayer, LocalPlayer], work=611*
 31: 0x0826 [0x52] END_LOAD_SCHEDULER: End scheduler "s148" with entities [LocalPlayer, LocalPlayer], work=611*
 32: 0x0835 [0x45] LOAD_SCHEDULED_TASK: Load scheduler "s109" with entities [LocalPlayer, LocalPlayer], work=[611*, 0*]
 33: 0x0846 [0x1C] WAIT(30* ticks)
 34: 0x0849 [0x03] Work_Zone[4] = 2356*
 35: 0x084E [0x2B] Unnamed NPC (ID: 17826117/0x01100145) [12538*]:
    → "By the Goddess almighty-wighty, th-this is...$6! So, you were truly able to bestaru that apparition..."
 36: 0x0855 [0x23] WAIT_FOR_DIALOG_INTERACTION
 37: 0x0856 [0x1C] WAIT(45* ticks)
 38: 0x0859 [0x52] END_LOAD_SCHEDULER: End scheduler "s109" with entities [LocalPlayer, LocalPlayer], work=611*
 39: 0x0868 [0x1A] CALL_SUBROUTINE(address=0x1CDA)
 40: 0x086B [0x02] IF !(ExtData[1]->WorkLocal[1] == 1*) GOTO 0x0887
 41: 0x0873 [0x45] LOAD_SCHEDULED_TASK: Load scheduler "s147" with entities [LocalPlayer, LocalPlayer], work=[611*, 0*]
 42: 0x0884 [0x01] GOTO 0x0898
 43: 0x0887 [0x45] LOAD_SCHEDULED_TASK: Load scheduler "s148" with entities [LocalPlayer, LocalPlayer], work=[611*, 0*]

SUBROUTINE_0898:
 44: 0x0898 [0x29] REQ_SET_WAIT(priority=0x10, entity_id=LocalPlayer, tag_num=0x6D)
 45: 0x089F [0x1C] WAIT(100* ticks)
 46: 0x08A2 [0x52] END_LOAD_SCHEDULER: End scheduler "s147" with entities [LocalPlayer, LocalPlayer], work=611*
 47: 0x08B1 [0x52] END_LOAD_SCHEDULER: End scheduler "s148" with entities [LocalPlayer, LocalPlayer], work=611*
 48: 0x08C0 [0x45] LOAD_SCHEDULED_TASK: Load scheduler "s109" with entities [LocalPlayer, LocalPlayer], work=[611*, 0*]
 49: 0x08D1 [0x1C] WAIT(30* ticks)
 50: 0x08D4 [0x03] Work_Zone[3] = 2354*
 51: 0x08D9 [0x2B] Unnamed NPC (ID: 17826117/0x01100145) [12539*]:
    → "And you even managed to get ahold of $6?"
 52: 0x08E0 [0x23] WAIT_FOR_DIALOG_INTERACTION
 53: 0x08E1 [0x1C] WAIT(30* ticks)
 54: 0x08E4 [0x66] LOAD_EXT_SCHEDULER_MAIN: Load scheduler "tlk1" with entities [Unnamed NPC (ID: 17826117/0x01100145), Unnamed NPC (ID: 17826117/0x01100145)], work=189*
 55: 0x08F3 [0x1C] WAIT(30* ticks)
 56: 0x08F6 [0x2B] Unnamed NPC (ID: 17826117/0x01100145) [12540*]:
    → "Inconceivable-weivable! It'd take millennia for the stars to align as they have for you! You must've used some sort of pioneer trickery."
 57: 0x08FD [0x23] WAIT_FOR_DIALOG_INTERACTION
 58: 0x08FE [0x52] END_LOAD_SCHEDULER: End scheduler "s109" with entities [LocalPlayer, LocalPlayer], work=611*
 59: 0x090D [0x45] LOAD_SCHEDULED_TASK: Load scheduler "s110" with entities [LocalPlayer, LocalPlayer], work=[611*, 0*]
 60: 0x091E [0x29] REQ_SET_WAIT(priority=0x10, entity_id=LocalPlayer, tag_num=0x10)
 61: 0x0925 [0x52] END_LOAD_SCHEDULER: End scheduler "s110" with entities [LocalPlayer, LocalPlayer], work=611*
 62: 0x0934 [0x45] LOAD_SCHEDULED_TASK: Load scheduler "s111" with entities [LocalPlayer, LocalPlayer], work=[611*, 0*]
 63: 0x0945 [0x1C] WAIT(60* ticks)
 64: 0x0948 [0x03] Work_Zone[2] = 2353*
 65: 0x094D [0x2B] Unnamed NPC (ID: 17826117/0x01100145) [12541*]:
    → "Ah...Jerra. But if she was willing to partaru with it, that must mean...you're one of the elite who're engraved with the $3."
 66: 0x0954 [0x23] WAIT_FOR_DIALOG_INTERACTION
 67: 0x0955 [0x1C] WAIT(30* ticks)
 68: 0x0958 [0x7B] Unnamed NPC (ID: 17826117/0x01100145) stops talking
 69: 0x095D [0x66] LOAD_EXT_SCHEDULER_MAIN: Load scheduler "thk1" with entities [Unnamed NPC (ID: 17826117/0x01100145), Unnamed NPC (ID: 17826117/0x01100145)], work=49*
 70: 0x096C [0x52] END_LOAD_SCHEDULER: End scheduler "s111" with entities [LocalPlayer, LocalPlayer], work=611*
 71: 0x097B [0x45] LOAD_SCHEDULED_TASK: Load scheduler "s112" with entities [LocalPlayer, LocalPlayer], work=[611*, 0*]
 72: 0x098C [0x1C] WAIT(15* ticks)
 73: 0x098F [0x2B] Unnamed NPC (ID: 17826117/0x01100145) [12542*]:
    → "I wouldn't want to disappointaru someone as devoted to swinging swords as I am to smithing them. Just let me gather-wather myself."
 74: 0x0996 [0x23] WAIT_FOR_DIALOG_INTERACTION
 75: 0x0997 [0x1C] WAIT(30* ticks)
 76: 0x099A [0x66] LOAD_EXT_SCHEDULER_MAIN: Load scheduler "thk2" with entities [Unnamed NPC (ID: 17826117/0x01100145), Unnamed NPC (ID: 17826117/0x01100145)], work=49*
 77: 0x09A9 [0x79] Unnamed NPC (ID: 17826117/0x01100145) looks at LocalPlayer (Basic look)
 78: 0x09B3 [0x1C] WAIT(30* ticks)
 79: 0x09B6 [0x2B] Unnamed NPC (ID: 17826117/0x01100145) [12543*]:
    → "First, I must expunge all the conflictaruing thoughts from my mind."
 80: 0x09BD [0x23] WAIT_FOR_DIALOG_INTERACTION
 81: 0x09BE [0x6E] Unnamed NPC (ID: 17826117/0x01100145) uses emote 7*
 82: 0x09C5 [0x99] Wait for Unnamed NPC (ID: 17826117/0x01100145) animation to complete
 83: 0x09CA [0x03] Work_Zone[3] = 2354*
 84: 0x09CF [0x03] Work_Zone[4] = 2356*
 85: 0x09D4 [0x2B] Unnamed NPC (ID: 17826117/0x01100145) [12544*]:
    → "...There. I'm now in the correctaru state of mind to receive your $3 and $3. Thank you."
 86: 0x09DB [0x23] WAIT_FOR_DIALOG_INTERACTION
 87: 0x09DC [0x1C] WAIT(45* ticks)
 88: 0x09DF [0x52] END_LOAD_SCHEDULER: End scheduler "s112" with entities [LocalPlayer, LocalPlayer], work=611*
 89: 0x09EE [0x45] LOAD_SCHEDULED_TASK: Load scheduler "s113" with entities [LocalPlayer, LocalPlayer], work=[611*, 0*]
 90: 0x09FF [0x7B] Unnamed NPC (ID: 17826117/0x01100145) stops talking
 91: 0x0A04 [0x6E] Unnamed NPC (ID: 17826117/0x01100145) uses emote 25*
 92: 0x0A0B [0x99] Wait for Unnamed NPC (ID: 17826117/0x01100145) animation to complete
 93: 0x0A10 [0x2B] Unnamed NPC (ID: 17826117/0x01100145) [12545*]:
    → "Oho, I can feel the fire of the forge burning-wurning passionately within me once again!"
 94: 0x0A17 [0x23] WAIT_FOR_DIALOG_INTERACTION
 95: 0x0A18 [0x1C] WAIT(25* ticks)
 96: 0x0A1B [0x52] END_LOAD_SCHEDULER: End scheduler "s113" with entities [LocalPlayer, LocalPlayer], work=611*
 97: 0x0A2A [0x45] LOAD_SCHEDULED_TASK: Load scheduler "s149" with entities [LocalPlayer, LocalPlayer], work=[611*, 0*]
 98: 0x0A3B [0x27] REQ_SET(priority=0x10, entity_id=Unnamed NPC (ID: 17826117/0x01100145), tag_num=0x29)
 99: 0x0A42 [0x1C] WAIT(30* ticks)
100: 0x0A45 [0x1A] CALL_SUBROUTINE(address=0x0064)
101: 0x0A48 [0x1C] WAIT(30* ticks)
102: 0x0A4B [0x52] END_LOAD_SCHEDULER: End scheduler "s149" with entities [LocalPlayer, LocalPlayer], work=611*
103: 0x0A5A [0x1C] WAIT(15* ticks)
104: 0x0A5D [0xAB] EventEntity->DespawnValue = 0* // Set despawn value
105: 0x0A61 [0x1C] WAIT(1* ticks)
106: 0x0A64 [0xAB] EventEntity->UnknownFlag = 0 // Disable unknown flag
107: 0x0A66 [0x46] CAMERA_CONTROL: Restore default settings
108: 0x0A68 [0x45] LOAD_SCHEDULED_TASK: Load scheduler "fdi2" with entities [LocalPlayer, LocalPlayer], work=[200*, 0*]
109: 0x0A79 [0x21] END_EVENT
110: 0x0A7A [0x00] END_REQSTACK()
```

### Event 112

#### Metadata

| Field        | Value    |
|--------------|----------|
| Entrypoint   | 0x0A7B   |
| Data Size    | 59 bytes |
| Instructions | 13       |

```
      00 01 02 03 04 05 06 07  08 09 0A 0B 0C 0D 0E 0F
      -- -- -- -- -- -- -- --  -- -- -- -- -- -- -- --
0A70:                                   27 10 45 01 10             '.E..
0A80: 01 04 27 10 46 01 10 01  04 29 10 45 01 10 01 25  ..'.F....).E...%
0A90: 29 10 46 01 10 01 15 4A  F0 FF FF 7F 42 01 10 01  ).F....J....B...
0AA0: 48 49 80 23 2B 46 01 10  01 4A 80 23 2B 45 01 10  HI.#+F...J.#+E..
0AB0: 01 4B 80 23 21 00                                 .K.#!.          
```

#### Opcodes

```
  0: 0x0A7B [0x27] REQ_SET(priority=0x10, entity_id=Unnamed NPC (ID: 17826117/0x01100145), tag_num=0x04)
  1: 0x0A82 [0x27] REQ_SET(priority=0x10, entity_id=Unnamed NPC (ID: 17826118/0x01100146), tag_num=0x04)
  2: 0x0A89 [0x29] REQ_SET_WAIT(priority=0x10, entity_id=Unnamed NPC (ID: 17826117/0x01100145), tag_num=0x25)
  3: 0x0A90 [0x29] REQ_SET_WAIT(priority=0x10, entity_id=Unnamed NPC (ID: 17826118/0x01100146), tag_num=0x15)
  4: 0x0A97 [0x4A] LocalPlayer looks at Inconspicuous Barrel (ID: 17826114/0x01100142)
  5: 0x0AA0 [0x48] [System] [12546*]:
    → "A rhythmical clanking can be heard from within, mixed with the concentrated mumblings of a craftsman deep in thought."
  6: 0x0AA3 [0x23] WAIT_FOR_DIALOG_INTERACTION
  7: 0x0AA4 [0x2B] Unnamed NPC (ID: 17826118/0x01100146) [12547*]:
    → "Why'd you have to make this so heavy? I feel like it's going to rrrip my arms from their sockets!"
  8: 0x0AAB [0x23] WAIT_FOR_DIALOG_INTERACTION
  9: 0x0AAC [0x2B] Unnamed NPC (ID: 17826117/0x01100145) [12548*]:
    → "I'll "rrrip" your arms off myself if you insultaru my masterpiece again!"
 10: 0x0AB3 [0x23] WAIT_FOR_DIALOG_INTERACTION
 11: 0x0AB4 [0x21] END_EVENT
 12: 0x0AB5 [0x00] END_REQSTACK()
```

### Event 113

#### Metadata

| Field        | Value    |
|--------------|----------|
| Entrypoint   | 0x0AB6   |
| Data Size    | 19 bytes |
| Instructions | 7        |

```
      00 01 02 03 04 05 06 07  08 09 0A 0B 0C 0D 0E 0F
      -- -- -- -- -- -- -- --  -- -- -- -- -- -- -- --
0AB0:                   4A F0  FF FF 7F 42 01 10 01 48        J....B...H
0AC0: 35 80 23 48 4C 80 23 21  00                       5.#HL.#!.       
```

#### Opcodes

```
  0: 0x0AB6 [0x4A] LocalPlayer looks at Inconspicuous Barrel (ID: 17826114/0x01100142)
  1: 0x0ABF [0x48] [System] [12536*]:
    → "Attached to the barrel is a note, written in a strong and decisive hand, that reads thus:"
  2: 0x0AC2 [0x23] WAIT_FOR_DIALOG_INTERACTION
  3: 0x0AC3 [0x48] [System] [12549*]:
    → ""[Sir/Madam] <Player>, I've ordered the Couriers' Coalition to deliver the sword to Octavien postaru-haste. --Yestin-Ovestin""
  4: 0x0AC6 [0x23] WAIT_FOR_DIALOG_INTERACTION
  5: 0x0AC7 [0x21] END_EVENT
  6: 0x0AC8 [0x00] END_REQSTACK()
```

### Event 115

#### Metadata

| Field        | Value     |
|--------------|-----------|
| Entrypoint   | 0x0AC9    |
| Data Size    | 540 bytes |
| Instructions | 78        |

```
      00 01 02 03 04 05 06 07  08 09 0A 0B 0C 0D 0E 0F
      -- -- -- -- -- -- -- --  -- -- -- -- -- -- -- --
0AC0:                             42 1A 64 00 46 01 38           B.d.F.8
0AD0: 0C 80 27 10 45 01 10 01  04 92 01 45 01 10 01 94  ..'.E......E....
0AE0: 01 45 01 10 01 29 10 45  01 10 01 25 BA 45 01 10  .E...).E...%.E..
0AF0: 01 0D 80 0E 80 0F 80 10  80 BA F0 FF FF 7F 3A 80  ..............:.
0B00: 3B 80 13 80 14 80 4A F0  FF FF 7F 45 01 10 01 4A  ;.....J....E...J
0B10: 45 01 10 01 F0 FF FF 7F  80 F0 FF FF 7F 80 45 01  E.............E.
0B20: 10 01 45 15 80 F0 FF FF  7F F0 FF FF 7F 73 31 31  ..E..........s11
0B30: 35 01 80 1A 43 00 29 10  45 01 10 01 26 2B 45 01  5...C.).E...&+E.
0B40: 10 01 4D 80 23 1C 20 80  4A 45 01 10 01 F0 FF FF  ..M.#. .JE......
0B50: 7F 52 15 80 F0 FF FF 7F  F0 FF FF 7F 73 31 31 35  .R..........s115
0B60: 45 15 80 F0 FF FF 7F F0  FF FF 7F 73 31 31 36 01  E..........s116.
0B70: 80 6F 70 1C 20 80 2B 45  01 10 01 4E 80 23 03 03  .op. .+E...N.#..
0B80: 10 4F 80 2B 45 01 10 01  50 80 23 1C 20 80 66 25  .O.+E...P.#. .f%
0B90: 80 45 01 10 01 45 01 10  01 74 6C 6B 30 1C 06 80  .E...E...tlk0...
0BA0: 2B 45 01 10 01 51 80 23  52 15 80 F0 FF FF 7F F0  +E...Q.#R.......
0BB0: FF FF 7F 73 31 31 36 1A  DA 1C 02 01 00 03 80 00  ...s116.........
0BC0: D6 0B 45 15 80 F0 FF FF  7F F0 FF FF 7F 73 31 31  ..E..........s11
0BD0: 38 01 80 01 E7 0B 45 15  80 F0 FF FF 7F F0 FF FF  8.....E.........
0BE0: 7F 73 31 31 37 01 80 29  10 F0 FF FF 7F 6D 1C 3D  .s117..).....m.=
0BF0: 80 66 25 80 45 01 10 01  45 01 10 01 74 6C 6B 31  .f%.E...E...tlk1
0C00: 52 15 80 F0 FF FF 7F F0  FF FF 7F 73 31 31 37 52  R..........s117R
0C10: 15 80 F0 FF FF 7F F0 FF  FF 7F 73 31 31 38 45 15  ..........s118E.
0C20: 80 F0 FF FF 7F F0 FF FF  7F 73 31 35 31 01 80 1C  .........s151...
0C30: 06 80 7B 45 01 10 01 66  28 80 45 01 10 01 45 01  ..{E...f(.E...E.
0C40: 10 01 74 68 6B 31 2B 45  01 10 01 52 80 23 2B 45  ..thk1+E...R.#+E
0C50: 01 10 01 53 80 23 66 28  80 45 01 10 01 45 01 10  ...S.#f(.E...E..
0C60: 01 74 68 6B 32 79 00 45  01 10 01 F0 FF FF 7F 1C  .thk2y.E........
0C70: 20 80 52 15 80 F0 FF FF  7F F0 FF FF 7F 73 31 35   .R..........s15
0C80: 31 45 15 80 F0 FF FF 7F  F0 FF FF 7F 73 31 31 39  1E..........s119
0C90: 01 80 1C 06 80 2B 45 01  10 01 54 80 23 2B 45 01  .....+E...T.#+E.
0CA0: 10 01 55 80 23 27 10 45  01 10 01 29 1C 20 80 1A  ..U.#'.E...). ..
0CB0: 64 00 1C 06 80 52 15 80  F0 FF FF 7F F0 FF FF 7F  d....R..........
0CC0: 73 31 31 39 1C 20 80 AB  11 01 80 1C 03 80 AB 0A  s119. ..........
0CD0: 46 00 45 00 80 F0 FF FF  7F F0 FF FF 7F 66 64 69  F.E..........fdi
0CE0: 32 01 80 21 00                                    2..!.           
```

#### Opcodes

```
  0: 0x0AC9 [0x42] SET_CLI_EVENT_CANCEL_DATA()
  1: 0x0ACA [0x1A] CALL_SUBROUTINE(address=0x0064)
  2: 0x0ACD [0x46] CAMERA_CONTROL: Disable user control
  3: 0x0ACF [0x38] SET_CLIENT_EVENT_MODE(mode=19*)
  4: 0x0AD2 [0x27] REQ_SET(priority=0x10, entity_id=Unnamed NPC (ID: 17826117/0x01100145), tag_num=0x04)
  5: 0x0AD9 [0x92] Unnamed NPC (ID: 17826117/0x01100145)->Render.Flags3 ^= 0x01
  6: 0x0ADF [0x94] Unnamed NPC (ID: 17826117/0x01100145)->Render.Flags3 ^= 0x01
  7: 0x0AE5 [0x29] REQ_SET_WAIT(priority=0x10, entity_id=Unnamed NPC (ID: 17826117/0x01100145), tag_num=0x25)
  8: 0x0AEC [0xBA] SET_ENTITY_POSITION(entity_id=Unnamed NPC (ID: 17826117/0x01100145), pos_x=53.943*, pos_z=164.920*, pos_y=27.999*, direction=142.4°*)
  9: 0x0AF9 [0xBA] SET_ENTITY_POSITION(entity_id=LocalPlayer, pos_x=54.099*, pos_z=158.511*, pos_y=31.999*, direction=245.0°*)
 10: 0x0B06 [0x4A] LocalPlayer looks at Unnamed NPC (ID: 17826117/0x01100145)
 11: 0x0B0F [0x4A] Unnamed NPC (ID: 17826117/0x01100145) looks at LocalPlayer
 12: 0x0B18 [0x80] LOAD_WAIT(entity=LocalPlayer)
 13: 0x0B1D [0x80] LOAD_WAIT(entity=Unnamed NPC (ID: 17826117/0x01100145))
 14: 0x0B22 [0x45] LOAD_SCHEDULED_TASK: Load scheduler "s115" with entities [LocalPlayer, LocalPlayer], work=[611*, 0*]
 15: 0x0B33 [0x1A] CALL_SUBROUTINE(address=0x0043)
 16: 0x0B36 [0x29] REQ_SET_WAIT(priority=0x10, entity_id=Unnamed NPC (ID: 17826117/0x01100145), tag_num=0x26)
 17: 0x0B3D [0x2B] Unnamed NPC (ID: 17826117/0x01100145) [12550*]:
    → "Oh, it's you. Give me a minutaru and I'll get that equipment Octavien ordered for--"
 18: 0x0B44 [0x23] WAIT_FOR_DIALOG_INTERACTION
 19: 0x0B45 [0x1C] WAIT(15* ticks)
 20: 0x0B48 [0x4A] Unnamed NPC (ID: 17826117/0x01100145) looks at LocalPlayer
 21: 0x0B51 [0x52] END_LOAD_SCHEDULER: End scheduler "s115" with entities [LocalPlayer, LocalPlayer], work=611*
 22: 0x0B60 [0x45] LOAD_SCHEDULED_TASK: Load scheduler "s116" with entities [LocalPlayer, LocalPlayer], work=[611*, 0*]
 23: 0x0B71 [0x6F] WAIT_FRAME_DELAY: Yield until WaitTime reaches zero
 24: 0x0B72 [0x70] WAIT_ENTITY_RENDER_FLAG: Wait while EventEntity->Render.Flags3 bit 2 is set (cancel turn if not)
 25: 0x0B73 [0x1C] WAIT(15* ticks)
 26: 0x0B76 [0x2B] Unnamed NPC (ID: 17826117/0x01100145) [12551*]:
    → "That's not what I think-wink it is, is it!?"
 27: 0x0B7D [0x23] WAIT_FOR_DIALOG_INTERACTION
 28: 0x0B7E [0x03] Work_Zone[3] = 2369*
 29: 0x0B83 [0x2B] Unnamed NPC (ID: 17826117/0x01100145) [12552*]:
    → "It is! Never in my wildestaru dreams did I ever think I'd get a chance to read the fabled-wabled $3."
 30: 0x0B8A [0x23] WAIT_FOR_DIALOG_INTERACTION
 31: 0x0B8B [0x1C] WAIT(15* ticks)
 32: 0x0B8E [0x66] LOAD_EXT_SCHEDULER_MAIN: Load scheduler "tlk0" with entities [Unnamed NPC (ID: 17826117/0x01100145), Unnamed NPC (ID: 17826117/0x01100145)], work=189*
 33: 0x0B9D [0x1C] WAIT(30* ticks)
 34: 0x0BA0 [0x2B] Unnamed NPC (ID: 17826117/0x01100145) [12553*]:
    → "Gimme-wimme that."
 35: 0x0BA7 [0x23] WAIT_FOR_DIALOG_INTERACTION
 36: 0x0BA8 [0x52] END_LOAD_SCHEDULER: End scheduler "s116" with entities [LocalPlayer, LocalPlayer], work=611*
 37: 0x0BB7 [0x1A] CALL_SUBROUTINE(address=0x1CDA)
 38: 0x0BBA [0x02] IF !(ExtData[1]->WorkLocal[1] == 1*) GOTO 0x0BD6
 39: 0x0BC2 [0x45] LOAD_SCHEDULED_TASK: Load scheduler "s118" with entities [LocalPlayer, LocalPlayer], work=[611*, 0*]
 40: 0x0BD3 [0x01] GOTO 0x0BE7
 41: 0x0BD6 [0x45] LOAD_SCHEDULED_TASK: Load scheduler "s117" with entities [LocalPlayer, LocalPlayer], work=[611*, 0*]

SUBROUTINE_0BE7:
 42: 0x0BE7 [0x29] REQ_SET_WAIT(priority=0x10, entity_id=LocalPlayer, tag_num=0x6D)
 43: 0x0BEE [0x1C] WAIT(100* ticks)
 44: 0x0BF1 [0x66] LOAD_EXT_SCHEDULER_MAIN: Load scheduler "tlk1" with entities [Unnamed NPC (ID: 17826117/0x01100145), Unnamed NPC (ID: 17826117/0x01100145)], work=189*
 45: 0x0C00 [0x52] END_LOAD_SCHEDULER: End scheduler "s117" with entities [LocalPlayer, LocalPlayer], work=611*
 46: 0x0C0F [0x52] END_LOAD_SCHEDULER: End scheduler "s118" with entities [LocalPlayer, LocalPlayer], work=611*
 47: 0x0C1E [0x45] LOAD_SCHEDULED_TASK: Load scheduler "s151" with entities [LocalPlayer, LocalPlayer], work=[611*, 0*]
 48: 0x0C2F [0x1C] WAIT(30* ticks)
 49: 0x0C32 [0x7B] Unnamed NPC (ID: 17826117/0x01100145) stops talking
 50: 0x0C37 [0x66] LOAD_EXT_SCHEDULER_MAIN: Load scheduler "thk1" with entities [Unnamed NPC (ID: 17826117/0x01100145), Unnamed NPC (ID: 17826117/0x01100145)], work=49*
 51: 0x0C46 [0x2B] Unnamed NPC (ID: 17826117/0x01100145) [12554*]:
    → "<Mumble> Ahhh, I see... <Mumble> Of course! How could I be so stupid!?"
 52: 0x0C4D [0x23] WAIT_FOR_DIALOG_INTERACTION
 53: 0x0C4E [0x2B] Unnamed NPC (ID: 17826117/0x01100145) [12555*]:
    → "Unbelievable... Applying these techniques to your equipmentaru will increase your defenses against any malady!"
 54: 0x0C55 [0x23] WAIT_FOR_DIALOG_INTERACTION
 55: 0x0C56 [0x66] LOAD_EXT_SCHEDULER_MAIN: Load scheduler "thk2" with entities [Unnamed NPC (ID: 17826117/0x01100145), Unnamed NPC (ID: 17826117/0x01100145)], work=49*
 56: 0x0C65 [0x79] Unnamed NPC (ID: 17826117/0x01100145) looks at LocalPlayer (Basic look)
 57: 0x0C6F [0x1C] WAIT(15* ticks)
 58: 0x0C72 [0x52] END_LOAD_SCHEDULER: End scheduler "s151" with entities [LocalPlayer, LocalPlayer], work=611*
 59: 0x0C81 [0x45] LOAD_SCHEDULED_TASK: Load scheduler "s119" with entities [LocalPlayer, LocalPlayer], work=[611*, 0*]
 60: 0x0C92 [0x1C] WAIT(30* ticks)
 61: 0x0C95 [0x2B] Unnamed NPC (ID: 17826117/0x01100145) [12556*]:
    → "Sorry, but I'll need to alter my designs a bit. I can't in good conscience-wonscience give it to you like this."
 62: 0x0C9C [0x23] WAIT_FOR_DIALOG_INTERACTION
 63: 0x0C9D [0x2B] Unnamed NPC (ID: 17826117/0x01100145) [12557*]:
    → "There's no way I could live with myself if I gave this to you in its currentaru state. This calls for some alterations."
 64: 0x0CA4 [0x23] WAIT_FOR_DIALOG_INTERACTION
 65: 0x0CA5 [0x27] REQ_SET(priority=0x10, entity_id=Unnamed NPC (ID: 17826117/0x01100145), tag_num=0x29)
 66: 0x0CAC [0x1C] WAIT(15* ticks)
 67: 0x0CAF [0x1A] CALL_SUBROUTINE(address=0x0064)
 68: 0x0CB2 [0x1C] WAIT(30* ticks)
 69: 0x0CB5 [0x52] END_LOAD_SCHEDULER: End scheduler "s119" with entities [LocalPlayer, LocalPlayer], work=611*
 70: 0x0CC4 [0x1C] WAIT(15* ticks)
 71: 0x0CC7 [0xAB] EventEntity->DespawnValue = 0* // Set despawn value
 72: 0x0CCB [0x1C] WAIT(1* ticks)
 73: 0x0CCE [0xAB] EventEntity->UnknownFlag = 0 // Disable unknown flag
 74: 0x0CD0 [0x46] CAMERA_CONTROL: Restore default settings
 75: 0x0CD2 [0x45] LOAD_SCHEDULED_TASK: Load scheduler "fdi2" with entities [LocalPlayer, LocalPlayer], work=[200*, 0*]
 76: 0x0CE3 [0x21] END_EVENT
 77: 0x0CE4 [0x00] END_REQSTACK()
```

### Event 116

#### Metadata

| Field        | Value    |
|--------------|----------|
| Entrypoint   | 0x0CE5   |
| Data Size    | 59 bytes |
| Instructions | 13       |

```
      00 01 02 03 04 05 06 07  08 09 0A 0B 0C 0D 0E 0F
      -- -- -- -- -- -- -- --  -- -- -- -- -- -- -- --
0CE0:                27 10 45  01 10 01 04 27 10 46 01       '.E....'.F.
0CF0: 10 01 04 29 10 45 01 10  01 25 29 10 46 01 10 01  ...).E...%).F...
0D00: 15 4A F0 FF FF 7F 42 01  10 01 48 56 80 23 2B 46  .J....B...HV.#+F
0D10: 01 10 01 57 80 23 2B 45  01 10 01 58 80 23 21 00  ...W.#+E...X.#!.
```

#### Opcodes

```
  0: 0x0CE5 [0x27] REQ_SET(priority=0x10, entity_id=Unnamed NPC (ID: 17826117/0x01100145), tag_num=0x04)
  1: 0x0CEC [0x27] REQ_SET(priority=0x10, entity_id=Unnamed NPC (ID: 17826118/0x01100146), tag_num=0x04)
  2: 0x0CF3 [0x29] REQ_SET_WAIT(priority=0x10, entity_id=Unnamed NPC (ID: 17826117/0x01100145), tag_num=0x25)
  3: 0x0CFA [0x29] REQ_SET_WAIT(priority=0x10, entity_id=Unnamed NPC (ID: 17826118/0x01100146), tag_num=0x15)
  4: 0x0D01 [0x4A] LocalPlayer looks at Inconspicuous Barrel (ID: 17826114/0x01100142)
  5: 0x0D0A [0x48] [System] [12558*]:
    → "The telltale clack of a loom can be heard from within, mixed with the concentrated mumblings of a craftsman deep in thought."
  6: 0x0D0D [0x23] WAIT_FOR_DIALOG_INTERACTION
  7: 0x0D0E [0x2B] Unnamed NPC (ID: 17826118/0x01100146) [12559*]:
    → "How dare you make me make it from scrrratch again! I worked my tail off on it!"
  8: 0x0D15 [0x23] WAIT_FOR_DIALOG_INTERACTION
  9: 0x0D16 [0x2B] Unnamed NPC (ID: 17826117/0x01100145) [12560*]:
    → "I won't ask a buffoon like you to understand, but a true artisan pays the utmost respectaru possible to every piece he makes."
 10: 0x0D1D [0x23] WAIT_FOR_DIALOG_INTERACTION
 11: 0x0D1E [0x21] END_EVENT
 12: 0x0D1F [0x00] END_REQSTACK()
```

### Event 117

#### Metadata

| Field        | Value     |
|--------------|-----------|
| Entrypoint   | 0x0D20    |
| Data Size    | 307 bytes |
| Instructions | 48        |

```
      00 01 02 03 04 05 06 07  08 09 0A 0B 0C 0D 0E 0F
      -- -- -- -- -- -- -- --  -- -- -- -- -- -- -- --
0D20: 42 1A 64 00 46 01 38 0C  80 27 10 45 01 10 01 04  B.d.F.8..'.E....
0D30: 92 01 45 01 10 01 94 01  45 01 10 01 29 10 45 01  ..E.....E...).E.
0D40: 10 01 25 BA 45 01 10 01  59 80 5A 80 5B 80 10 80  ..%.E...Y.Z.[...
0D50: BA F0 FF FF 7F 3A 80 3B  80 13 80 14 80 4A F0 FF  .....:.;.....J..
0D60: FF 7F 45 01 10 01 80 F0  FF FF 7F 80 45 01 10 01  ..E.........E...
0D70: 27 10 45 01 10 01 27 1C  5C 80 45 15 80 F0 FF FF  '.E...'.\.E.....
0D80: 7F F0 FF FF 7F 73 31 32  30 01 80 1A 43 00 2A 10  .....s120...C.*.
0D90: 45 01 10 01 1C 20 80 7B  45 01 10 01 4A 45 01 10  E.... .{E...JE..
0DA0: 01 F0 FF FF 7F 6F 70 2B  45 01 10 01 5D 80 23 66  .....op+E...].#f
0DB0: 5E 80 45 01 10 01 45 01  10 01 70 61 73 30 1C 34  ^.E...E...pas0.4
0DC0: 80 52 15 80 F0 FF FF 7F  F0 FF FF 7F 73 31 32 30  .R..........s120
0DD0: 45 15 80 F0 FF FF 7F F0  FF FF 7F 73 31 35 32 01  E..........s152.
0DE0: 80 6E F0 FF FF 7F 5F 80  99 F0 FF FF 7F 1C 34 80  .n...._.......4.
0DF0: 27 10 F0 FF FF 7F 6B 1C  60 80 66 28 80 45 01 10  '.....k.`.f(.E..
0E00: 01 45 01 10 01 73 68 61  30 1C 3C 80 1A 64 00 1C  .E...sha0.<..d..
0E10: 06 80 52 15 80 F0 FF FF  7F F0 FF FF 7F 73 31 35  ..R..........s15
0E20: 32 1C 20 80 AB 11 01 80  1C 03 80 AB 0A 46 00 45  2. ..........F.E
0E30: 02 80 F8 FF FF 7F F8 FF  FF 7F 71 73 74 63 01 80  ..........qstc..
0E40: 45 00 80 F0 FF FF 7F F0  FF FF 7F 66 64 69 32 01  E..........fdi2.
0E50: 80 21 00                                          .!.             
```

#### Opcodes

```
  0: 0x0D20 [0x42] SET_CLI_EVENT_CANCEL_DATA()
  1: 0x0D21 [0x1A] CALL_SUBROUTINE(address=0x0064)
  2: 0x0D24 [0x46] CAMERA_CONTROL: Disable user control
  3: 0x0D26 [0x38] SET_CLIENT_EVENT_MODE(mode=19*)
  4: 0x0D29 [0x27] REQ_SET(priority=0x10, entity_id=Unnamed NPC (ID: 17826117/0x01100145), tag_num=0x04)
  5: 0x0D30 [0x92] Unnamed NPC (ID: 17826117/0x01100145)->Render.Flags3 ^= 0x01
  6: 0x0D36 [0x94] Unnamed NPC (ID: 17826117/0x01100145)->Render.Flags3 ^= 0x01
  7: 0x0D3C [0x29] REQ_SET_WAIT(priority=0x10, entity_id=Unnamed NPC (ID: 17826117/0x01100145), tag_num=0x25)
  8: 0x0D43 [0xBA] SET_ENTITY_POSITION(entity_id=Unnamed NPC (ID: 17826117/0x01100145), pos_x=52.660*, pos_z=162.965*, pos_y=28.000*, direction=142.4°*)
  9: 0x0D50 [0xBA] SET_ENTITY_POSITION(entity_id=LocalPlayer, pos_x=54.099*, pos_z=158.511*, pos_y=31.999*, direction=245.0°*)
 10: 0x0D5D [0x4A] LocalPlayer looks at Unnamed NPC (ID: 17826117/0x01100145)
 11: 0x0D66 [0x80] LOAD_WAIT(entity=LocalPlayer)
 12: 0x0D6B [0x80] LOAD_WAIT(entity=Unnamed NPC (ID: 17826117/0x01100145))
 13: 0x0D70 [0x27] REQ_SET(priority=0x10, entity_id=Unnamed NPC (ID: 17826117/0x01100145), tag_num=0x27)
 14: 0x0D77 [0x1C] WAIT(20* ticks)
 15: 0x0D7A [0x45] LOAD_SCHEDULED_TASK: Load scheduler "s120" with entities [LocalPlayer, LocalPlayer], work=[611*, 0*]
 16: 0x0D8B [0x1A] CALL_SUBROUTINE(address=0x0043)
 17: 0x0D8E [0x2A] GET_REQ_LEVEL(level=16, entity_id=Unnamed NPC (ID: 17826117/0x01100145))
 18: 0x0D94 [0x1C] WAIT(15* ticks)
 19: 0x0D97 [0x7B] Unnamed NPC (ID: 17826117/0x01100145) stops talking
 20: 0x0D9C [0x4A] Unnamed NPC (ID: 17826117/0x01100145) looks at LocalPlayer
 21: 0x0DA5 [0x6F] WAIT_FRAME_DELAY: Yield until WaitTime reaches zero
 22: 0x0DA6 [0x70] WAIT_ENTITY_RENDER_FLAG: Wait while EventEntity->Render.Flags3 bit 2 is set (cancel turn if not)
 23: 0x0DA7 [0x2B] Unnamed NPC (ID: 17826117/0x01100145) [12561*]:
    → "And, finally... Here you go. What a mastarupiece it is, if I may say so myself."
 24: 0x0DAE [0x23] WAIT_FOR_DIALOG_INTERACTION
 25: 0x0DAF [0x66] LOAD_EXT_SCHEDULER_MAIN: Load scheduler "pas0" with entities [Unnamed NPC (ID: 17826117/0x01100145), Unnamed NPC (ID: 17826117/0x01100145)], work=111*
 26: 0x0DBE [0x1C] WAIT(120* ticks)
 27: 0x0DC1 [0x52] END_LOAD_SCHEDULER: End scheduler "s120" with entities [LocalPlayer, LocalPlayer], work=611*
 28: 0x0DD0 [0x45] LOAD_SCHEDULED_TASK: Load scheduler "s152" with entities [LocalPlayer, LocalPlayer], work=[611*, 0*]
 29: 0x0DE1 [0x6E] LocalPlayer uses emote 11*
 30: 0x0DE8 [0x99] Wait for LocalPlayer animation to complete
 31: 0x0DED [0x1C] WAIT(120* ticks)
 32: 0x0DF0 [0x27] REQ_SET(priority=0x10, entity_id=LocalPlayer, tag_num=0x6B)
 33: 0x0DF7 [0x1C] WAIT(180* ticks)
 34: 0x0DFA [0x66] LOAD_EXT_SCHEDULER_MAIN: Load scheduler "sha0" with entities [Unnamed NPC (ID: 17826117/0x01100145), Unnamed NPC (ID: 17826117/0x01100145)], work=49*
 35: 0x0E09 [0x1C] WAIT(75* ticks)
 36: 0x0E0C [0x1A] CALL_SUBROUTINE(address=0x0064)
 37: 0x0E0F [0x1C] WAIT(30* ticks)
 38: 0x0E12 [0x52] END_LOAD_SCHEDULER: End scheduler "s152" with entities [LocalPlayer, LocalPlayer], work=611*
 39: 0x0E21 [0x1C] WAIT(15* ticks)
 40: 0x0E24 [0xAB] EventEntity->DespawnValue = 0* // Set despawn value
 41: 0x0E28 [0x1C] WAIT(1* ticks)
 42: 0x0E2B [0xAB] EventEntity->UnknownFlag = 0 // Disable unknown flag
 43: 0x0E2D [0x46] CAMERA_CONTROL: Restore default settings
 44: 0x0E2F [0x45] LOAD_SCHEDULED_TASK: Load scheduler "qstc" with entities [EventEntity, EventEntity], work=[201*, 0*]
 45: 0x0E40 [0x45] LOAD_SCHEDULED_TASK: Load scheduler "fdi2" with entities [LocalPlayer, LocalPlayer], work=[200*, 0*]
 46: 0x0E51 [0x21] END_EVENT
 47: 0x0E52 [0x00] END_REQSTACK()
```

### Event 118

#### Metadata

| Field        | Value    |
|--------------|----------|
| Entrypoint   | 0x0E53   |
| Data Size    | 19 bytes |
| Instructions | 7        |

```
      00 01 02 03 04 05 06 07  08 09 0A 0B 0C 0D 0E 0F
      -- -- -- -- -- -- -- --  -- -- -- -- -- -- -- --
0E50:          4A F0 FF FF 7F  42 01 10 01 48 35 80 23     J....B...H5.#
0E60: 48 36 80 23 21 00                                 H6.#!.          
```

#### Opcodes

```
  0: 0x0E53 [0x4A] LocalPlayer looks at Inconspicuous Barrel (ID: 17826114/0x01100142)
  1: 0x0E5C [0x48] [System] [12536*]:
    → "Attached to the barrel is a note, written in a strong and decisive hand, that reads thus:"
  2: 0x0E5F [0x23] WAIT_FOR_DIALOG_INTERACTION
  3: 0x0E60 [0x48] [System] [12537*]:
    → ""Don't ask me to make-wake anything right now. Go the hell away. --Yestin-Ovestin""
  4: 0x0E63 [0x23] WAIT_FOR_DIALOG_INTERACTION
  5: 0x0E64 [0x21] END_EVENT
  6: 0x0E65 [0x00] END_REQSTACK()
```

### Event 119

#### Metadata

| Field        | Value      |
|--------------|------------|
| Entrypoint   | 0x0E66     |
| Data Size    | 1613 bytes |
| Instructions | 198        |

```
      00 01 02 03 04 05 06 07  08 09 0A 0B 0C 0D 0E 0F
      -- -- -- -- -- -- -- --  -- -- -- -- -- -- -- --
0E60:                   42 1A  64 00 46 01 38 0C 80 92        B.d.F.8...
0E70: 01 41 01 10 01 94 01 41  01 10 01 BA 41 01 10 01  .A.....A....A...
0E80: 61 80 62 80 01 80 63 80  BA F0 FF FF 7F 64 80 65  a.b...c......d.e
0E90: 80 01 80 66 80 4A F0 FF  FF 7F 41 01 10 01 4A 41  ...f.J....A...JA
0EA0: 01 10 01 F0 FF FF 7F 4A  F0 FF FF 7F 41 01 10 01  .......J....A...
0EB0: 66 67 80 41 01 10 01 41  01 10 01 74 6C 6B 30 80  fg.A...A...tlk0.
0EC0: F0 FF FF 7F 80 41 01 10  01 45 15 80 F0 FF FF 7F  .....A...E......
0ED0: F0 FF FF 7F 73 31 30 34  01 80 1A 43 00 1C 3C 80  ....s104...C..<.
0EE0: 2B 41 01 10 01 08 80 23  1C 06 80 66 67 80 41 01  +A.....#...fg.A.
0EF0: 10 01 41 01 10 01 74 6C  6B 31 1C 06 80 52 15 80  ..A...tlk1...R..
0F00: F0 FF FF 7F F0 FF FF 7F  73 31 30 34 45 15 80 F0  ........s104E...
0F10: FF FF 7F F0 FF FF 7F 73  31 32 31 01 80 03 02 10  .......s121.....
0F20: 68 80 24 69 80 01 80 01  80 25 02 00 10 01 80 00  h.$i.....%......
0F30: 72 0F 52 15 80 F0 FF FF  7F F0 FF FF 7F 73 31 32  r.R..........s12
0F40: 31 45 15 80 F0 FF FF 7F  F0 FF FF 7F 73 31 32 32  1E..........s122
0F50: 01 80 1C 06 80 66 67 80  41 01 10 01 41 01 10 01  .....fg.A...A...
0F60: 74 6C 6B 30 1C 5C 80 2B  41 01 10 01 6A 80 23 01  tlk0.\.+A...j.#.
0F70: 69 14 02 00 10 03 80 00  BA 0F 52 15 80 F0 FF FF  i.........R.....
0F80: 7F F0 FF FF 7F 73 31 32  31 45 15 80 F0 FF FF 7F  .....s121E......
0F90: F0 FF FF 7F 73 31 32 32  01 80 1C 06 80 66 6B 80  ....s122.....fk.
0FA0: 41 01 10 01 41 01 10 01  74 6C 6B 30 1C 5C 80 2B  A...A...tlk0.\.+
0FB0: 41 01 10 01 6C 80 23 01  69 14 02 00 10 05 80 00  A...l.#.i.......
0FC0: FA 13 52 15 80 F0 FF FF  7F F0 FF FF 7F 73 31 32  ..R..........s12
0FD0: 31 5D 17 80 18 80 45 15  80 F0 FF FF 7F F0 FF FF  1]....E.........
0FE0: 7F 73 31 32 34 01 80 66  6B 80 41 01 10 01 41 01  .s124..fk.A...A.
0FF0: 10 01 73 61 73 30 1C 5C  80 2B 41 01 10 01 6D 80  ..sas0.\.+A...m.
1000: 23 1C 5C 80 66 6B 80 41  01 10 01 41 01 10 01 73  #.\.fk.A...A...s
1010: 61 73 31 1C 04 80 52 15  80 F0 FF FF 7F F0 FF FF  as1...R.........
1020: 7F 73 31 32 34 03 02 00  03 80 45 15 80 F0 FF FF  .s124.....E.....
1030: 7F F0 FF FF 7F 73 31 32  31 01 80 06 01 10 24 6E  .....s121.....$n
1040: 80 01 80 02 00 25 02 00  10 01 80 00 53 12 52 15  .....%......S.R.
1050: 80 F0 FF FF 7F F0 FF FF  7F 73 31 32 31 05 01 10  .........s121...
1060: 27 10 F0 FF FF 7F 09 1C  04 80 27 10 F0 FF FF 7F  '.........'.....
1070: 0A 45 15 80 F0 FF FF 7F  F0 FF FF 7F 73 31 32 39  .E..........s129
1080: 01 80 1C 06 80 66 67 80  41 01 10 01 41 01 10 01  .....fg.A...A...
1090: 74 6C 6B 30 1C 5C 80 03  02 10 6F 80 2B 41 01 10  tlk0.\....o.+A..
10A0: 01 70 80 23 03 02 10 6F  80 2B 41 01 10 01 71 80  .p.#...o.+A...q.
10B0: 23 1C 06 80 66 67 80 41  01 10 01 41 01 10 01 74  #...fg.A...A...t
10C0: 6C 6B 31 1C 5C 80 52 15  80 F0 FF FF 7F F0 FF FF  lk1.\.R.........
10D0: 7F 73 31 32 39 45 15 80  F0 FF FF 7F F0 FF FF 7F  .s129E..........
10E0: 73 31 33 30 01 80 03 03  10 72 80 2B 41 01 10 01  s130.....r.+A...
10F0: 73 80 23 52 15 80 F0 FF  FF 7F F0 FF FF 7F 73 31  s.#R..........s1
1100: 33 30 45 15 80 F0 FF FF  7F F0 FF FF 7F 73 31 33  30E..........s13
1110: 31 01 80 1C 06 80 66 6B  80 41 01 10 01 41 01 10  1.....fk.A...A..
1120: 01 74 6C 6B 30 1C 5C 80  03 04 10 74 80 2B 41 01  .tlk0.\....t.+A.
1130: 10 01 75 80 23 2B 41 01  10 01 76 80 23 1C 06 80  ..u.#+A...v.#...
1140: 66 6B 80 41 01 10 01 41  01 10 01 74 6C 6B 31 52  fk.A...A...tlk1R
1150: 15 80 F0 FF FF 7F F0 FF  FF 7F 73 31 33 31 45 15  ..........s131E.
1160: 80 F0 FF FF 7F F0 FF FF  7F 73 31 33 32 01 80 6E  .........s132..n
1170: 41 01 10 01 77 80 99 41  01 10 01 2B 41 01 10 01  A...w..A...+A...
1180: 78 80 23 1C 16 80 52 15  80 F0 FF FF 7F F0 FF FF  x.#...R.........
1190: 7F 73 31 33 32 45 15 80  F0 FF FF 7F F0 FF FF 7F  .s132E..........
11A0: 73 31 33 33 01 80 1C 06  80 66 67 80 41 01 10 01  s133.....fg.A...
11B0: 41 01 10 01 74 6C 6B 30  1C 5C 80 2B 41 01 10 01  A...tlk0.\.+A...
11C0: 79 80 23 2B 41 01 10 01  7A 80 23 1C 06 80 66 67  y.#+A...z.#...fg
11D0: 80 41 01 10 01 41 01 10  01 74 6C 6B 31 1C 5C 80  .A...A...tlk1.\.
11E0: 52 15 80 F0 FF FF 7F F0  FF FF 7F 73 31 33 33 45  R..........s133E
11F0: 15 80 F0 FF FF 7F F0 FF  FF 7F 73 31 33 34 01 80  ..........s134..
1200: 2B 41 01 10 01 7B 80 23  6E 41 01 10 01 7C 80 99  +A...{.#nA...|..
1210: 41 01 10 01 1C 20 80 52  15 80 F0 FF FF 7F F0 FF  A.... .R........
1220: FF 7F 73 31 33 34 45 15  80 F0 FF FF 7F F0 FF FF  ..s134E.........
1230: 7F 73 31 33 35 01 80 6E  F0 FF FF 7F 45 80 99 F0  .s135..n....E...
1240: FF FF 7F 1C 7D 80 27 10  F0 FF FF 7F 6C 1C 7E 80  ....}.'.....l.~.
1250: 01 F7 13 02 00 10 03 80  00 7B 13 52 15 80 F0 FF  .........{.R....
1260: FF 7F F0 FF FF 7F 73 31  32 31 27 10 F0 FF FF 7F  ......s121'.....
1270: 09 1C 04 80 27 10 F0 FF  FF 7F 0A 02 02 00 01 80  ....'...........
1280: 00 86 12 01 46 13 45 15  80 F0 FF FF 7F F0 FF FF  ....F.E.........
1290: 7F 73 31 32 35 01 80 2B  41 01 10 01 7F 80 23 6E  .s125..+A.....#n
12A0: 41 01 10 01 80 80 99 41  01 10 01 1C 81 80 2B 41  A......A......+A
12B0: 01 10 01 82 80 23 52 15  80 F0 FF FF 7F F0 FF FF  .....#R.........
12C0: 7F 73 31 32 35 45 15 80  F0 FF FF 7F F0 FF FF 7F  .s125E..........
12D0: 73 31 32 36 01 80 27 10  41 01 10 01 07 1C 81 80  s126..'.A.......
12E0: 1A 64 00 1C 06 80 52 15  80 F0 FF FF 7F F0 FF FF  .d....R.........
12F0: 7F 73 31 32 36 7B 41 01  10 01 BA 41 01 10 01 83  .s126{A....A....
1300: 80 84 80 85 80 86 80 1C  16 80 45 15 80 F0 FF FF  ..........E.....
1310: 7F F0 FF FF 7F 73 31 32  37 01 80 27 10 41 01 10  .....s127..'.A..
1320: 01 08 1C 87 80 1A 43 00  2A 10 41 01 10 01 4A 41  ......C.*.A...JA
1330: 01 10 01 F0 FF FF 7F 52  15 80 F0 FF FF 7F F0 FF  .......R........
1340: FF 7F 73 31 32 37 45 15  80 F0 FF FF 7F F0 FF FF  ..s127E.........
1350: 7F 73 31 32 38 01 80 2B  41 01 10 01 88 80 23 52  .s128..+A.....#R
1360: 15 80 F0 FF FF 7F F0 FF  FF 7F 73 31 32 38 3D 02  ..........s128=.
1370: 00 01 80 03 80 01 2A 10  01 F7 13 02 00 10 05 80  ......*.........
1380: 00 DD 13 52 15 80 F0 FF  FF 7F F0 FF FF 7F 73 31  ...R..........s1
1390: 32 31 45 15 80 F0 FF FF  7F F0 FF FF 7F 73 31 32  21E..........s12
13A0: 33 01 80 1C 89 80 79 02  41 01 10 01 8A 80 8B 80  3.....y.A.......
13B0: 1C 04 80 2B 41 01 10 01  8C 80 23 1C 81 80 52 15  ...+A.....#...R.
13C0: 80 F0 FF FF 7F F0 FF FF  7F 73 31 32 33 79 00 41  .........s123y.A
13D0: 01 10 01 F0 FF FF 7F 01  2A 10 01 F7 13 02 00 10  ........*.......
13E0: 8D 80 00 F7 13 52 15 80  F0 FF FF 7F F0 FF FF 7F  .....R..........
13F0: 73 31 32 31 01 F7 13 01  69 14 02 00 10 8D 80 00  s121....i.......
1400: 4F 14 52 15 80 F0 FF FF  7F F0 FF FF 7F 73 31 32  O.R..........s12
1410: 31 45 15 80 F0 FF FF 7F  F0 FF FF 7F 73 31 32 33  1E..........s123
1420: 01 80 1C 89 80 79 02 41  01 10 01 8A 80 8B 80 1C  .....y.A........
1430: 04 80 2B 41 01 10 01 8C  80 23 1C 81 80 52 15 80  ..+A.....#...R..
1440: F0 FF FF 7F F0 FF FF 7F  73 31 32 33 01 69 14 02  ........s123.i..
1450: 00 10 8E 80 00 69 14 52  15 80 F0 FF FF 7F F0 FF  .....i.R........
1460: FF 7F 73 31 32 31 01 69  14 1A 64 00 5D 33 80 34  ..s121.i..d.]3.4
1470: 80 1C 06 80 52 15 80 F0  FF FF 7F F0 FF FF 7F 73  ....R..........s
1480: 31 32 32 52 15 80 F0 FF  FF 7F F0 FF FF 7F 73 31  122R..........s1
1490: 33 35 1C 20 80 AB 11 01  80 1C 03 80 AB 0A 46 00  35. ..........F.
14A0: 45 00 80 F0 FF FF 7F F0  FF FF 7F 66 64 69 32 01  E..........fdi2.
14B0: 80 21 00                                          .!.             
```

#### Opcodes

```
  0: 0x0E66 [0x42] SET_CLI_EVENT_CANCEL_DATA()
  1: 0x0E67 [0x1A] CALL_SUBROUTINE(address=0x0064)
  2: 0x0E6A [0x46] CAMERA_CONTROL: Disable user control
  3: 0x0E6C [0x38] SET_CLIENT_EVENT_MODE(mode=19*)
  4: 0x0E6F [0x92] Gaddiux (ID: 17826113/0x01100141)->Render.Flags3 ^= 0x01
  5: 0x0E75 [0x94] Gaddiux (ID: 17826113/0x01100141)->Render.Flags3 ^= 0x01
  6: 0x0E7B [0xBA] SET_ENTITY_POSITION(entity_id=Gaddiux (ID: 17826113/0x01100141), pos_x=75.250*, pos_z=-67.102*, pos_y=0.000*, direction=162.4°*)
  7: 0x0E88 [0xBA] SET_ENTITY_POSITION(entity_id=LocalPlayer, pos_x=73.147*, pos_z=-66.603*, pos_y=0.000*, direction=16.4°*)
  8: 0x0E95 [0x4A] LocalPlayer looks at Gaddiux (ID: 17826113/0x01100141)
  9: 0x0E9E [0x4A] Gaddiux (ID: 17826113/0x01100141) looks at LocalPlayer
 10: 0x0EA7 [0x4A] LocalPlayer looks at Gaddiux (ID: 17826113/0x01100141)
 11: 0x0EB0 [0x66] LOAD_EXT_SCHEDULER_MAIN: Load scheduler "tlk0" with entities [Gaddiux (ID: 17826113/0x01100141), Gaddiux (ID: 17826113/0x01100141)], work=9*
 12: 0x0EBF [0x80] LOAD_WAIT(entity=LocalPlayer)
 13: 0x0EC4 [0x80] LOAD_WAIT(entity=Gaddiux (ID: 17826113/0x01100141))
 14: 0x0EC9 [0x45] LOAD_SCHEDULED_TASK: Load scheduler "s104" with entities [LocalPlayer, LocalPlayer], work=[611*, 0*]
 15: 0x0EDA [0x1A] CALL_SUBROUTINE(address=0x0043)
 16: 0x0EDD [0x1C] WAIT(75* ticks)
 17: 0x0EE0 [0x2B] Gaddiux (ID: 17826113/0x01100141) [12519*]:
    → "Innovations that are fun for the whole family, safe and reliable services, and not a hint of blood money anywhere! That's the Inventors' Coalition in a nutshell."
 18: 0x0EE7 [0x23] WAIT_FOR_DIALOG_INTERACTION
 19: 0x0EE8 [0x1C] WAIT(30* ticks)
 20: 0x0EEB [0x66] LOAD_EXT_SCHEDULER_MAIN: Load scheduler "tlk1" with entities [Gaddiux (ID: 17826113/0x01100141), Gaddiux (ID: 17826113/0x01100141)], work=9*
 21: 0x0EFA [0x1C] WAIT(30* ticks)
 22: 0x0EFD [0x52] END_LOAD_SCHEDULER: End scheduler "s104" with entities [LocalPlayer, LocalPlayer], work=611*
 23: 0x0F0C [0x45] LOAD_SCHEDULED_TASK: Load scheduler "s121" with entities [LocalPlayer, LocalPlayer], work=[611*, 0*]
 24: 0x0F1D [0x03] Work_Zone[2] = 3965*
 25: 0x0F22 [0x24] CREATE_DIALOG(message_id=12562*, default_option=0*, option_flags=0*)
    → "What will you ask? [Are you swimming in bayld?/How have you been?/How about that Adoulinian kelp?/What wonderful weather we're having./Nothing.]"
 26: 0x0F29 [0x25] WAIT_DIALOG_SELECT()
 27: 0x0F2A [0x02] IF !(Work_Zone[0] == 0*) GOTO 0x0F72
 28: 0x0F32 [0x52] END_LOAD_SCHEDULER: End scheduler "s121" with entities [LocalPlayer, LocalPlayer], work=611*
 29: 0x0F41 [0x45] LOAD_SCHEDULED_TASK: Load scheduler "s122" with entities [LocalPlayer, LocalPlayer], work=[611*, 0*]
 30: 0x0F52 [0x1C] WAIT(30* ticks)
 31: 0x0F55 [0x66] LOAD_EXT_SCHEDULER_MAIN: Load scheduler "tlk0" with entities [Gaddiux (ID: 17826113/0x01100141), Gaddiux (ID: 17826113/0x01100141)], work=9*
 32: 0x0F64 [0x1C] WAIT(20* ticks)
 33: 0x0F67 [0x2B] Gaddiux (ID: 17826113/0x01100141) [12563*]:
    → "I wouldn't say swimming, but I have enough to dip into every once in a while."
 34: 0x0F6E [0x23] WAIT_FOR_DIALOG_INTERACTION
 35: 0x0F6F [0x01] GOTO 0x1469
 36: 0x0F72 [0x02] IF !(Work_Zone[0] == 1*) GOTO 0x0FBA
 37: 0x0F7A [0x52] END_LOAD_SCHEDULER: End scheduler "s121" with entities [LocalPlayer, LocalPlayer], work=611*
 38: 0x0F89 [0x45] LOAD_SCHEDULED_TASK: Load scheduler "s122" with entities [LocalPlayer, LocalPlayer], work=[611*, 0*]
 39: 0x0F9A [0x1C] WAIT(30* ticks)
 40: 0x0F9D [0x66] LOAD_EXT_SCHEDULER_MAIN: Load scheduler "tlk0" with entities [Gaddiux (ID: 17826113/0x01100141), Gaddiux (ID: 17826113/0x01100141)], work=149*
 41: 0x0FAC [0x1C] WAIT(20* ticks)
 42: 0x0FAF [0x2B] Gaddiux (ID: 17826113/0x01100141) [12564*]:
    → "I've really got my work cut out for me with all the new types of arcane glyptics. I'm lucky if I get even two winks of sleep a night."
 43: 0x0FB6 [0x23] WAIT_FOR_DIALOG_INTERACTION
 44: 0x0FB7 [0x01] GOTO 0x1469
 45: 0x0FBA [0x02] IF !(Work_Zone[0] == 2*) GOTO 0x13FA
 46: 0x0FC2 [0x52] END_LOAD_SCHEDULER: End scheduler "s121" with entities [LocalPlayer, LocalPlayer], work=611*
 47: 0x0FD1 [0x5D] SET_MUSIC_VOLUME(volume=31*, fade_time=240*)
 48: 0x0FD6 [0x45] LOAD_SCHEDULED_TASK: Load scheduler "s124" with entities [LocalPlayer, LocalPlayer], work=[611*, 0*]
 49: 0x0FE7 [0x66] LOAD_EXT_SCHEDULER_MAIN: Load scheduler "sas0" with entities [Gaddiux (ID: 17826113/0x01100141), Gaddiux (ID: 17826113/0x01100141)], work=149*
 50: 0x0FF6 [0x1C] WAIT(20* ticks)
 51: 0x0FF9 [0x2B] Gaddiux (ID: 17826113/0x01100141) [12566*]:
    → "Well, well, well. So you're the [guy/gal]. What is it you want to know about the incident two years ago?"
 52: 0x1000 [0x23] WAIT_FOR_DIALOG_INTERACTION
 53: 0x1001 [0x1C] WAIT(20* ticks)
 54: 0x1004 [0x66] LOAD_EXT_SCHEDULER_MAIN: Load scheduler "sas1" with entities [Gaddiux (ID: 17826113/0x01100141), Gaddiux (ID: 17826113/0x01100141)], work=149*
 55: 0x1013 [0x1C] WAIT(45* ticks)
 56: 0x1016 [0x52] END_LOAD_SCHEDULER: End scheduler "s124" with entities [LocalPlayer, LocalPlayer], work=611*
 57: 0x1025 [0x03] ExtData[1]->WorkLocal[2] = 1*

SUBROUTINE_102A:
 58: 0x102A [0x45] LOAD_SCHEDULED_TASK: Load scheduler "s121" with entities [LocalPlayer, LocalPlayer], work=[611*, 0*]
 59: 0x103B [0x06] Work_Zone[1] = 0
 60: 0x103E [0x24] CREATE_DIALOG(message_id=12567*, default_option=0*, option_flags=ExtData[1]->WorkLocal[2])
    → "What do you want to know? [The trial objectives./Is that rune stone still here?/Will I die today?/Nothing. I've had enough.]"
 61: 0x1045 [0x25] WAIT_DIALOG_SELECT()
 62: 0x1046 [0x02] IF !(Work_Zone[0] == 0*) GOTO 0x1253
 63: 0x104E [0x52] END_LOAD_SCHEDULER: End scheduler "s121" with entities [LocalPlayer, LocalPlayer], work=611*
 64: 0x105D [0x05] Work_Zone[1] = 1
 65: 0x1060 [0x27] REQ_SET(priority=0x10, entity_id=LocalPlayer, tag_num=0x09)
 66: 0x1067 [0x1C] WAIT(45* ticks)
 67: 0x106A [0x27] REQ_SET(priority=0x10, entity_id=LocalPlayer, tag_num=0x0A)
 68: 0x1071 [0x45] LOAD_SCHEDULED_TASK: Load scheduler "s129" with entities [LocalPlayer, LocalPlayer], work=[611*, 0*]
 69: 0x1082 [0x1C] WAIT(30* ticks)
 70: 0x1085 [0x66] LOAD_EXT_SCHEDULER_MAIN: Load scheduler "tlk0" with entities [Gaddiux (ID: 17826113/0x01100141), Gaddiux (ID: 17826113/0x01100141)], work=9*
 71: 0x1094 [0x1C] WAIT(20* ticks)
 72: 0x1097 [0x03] Work_Zone[2] = 2371*
 73: 0x109C [0x2B] Gaddiux (ID: 17826113/0x01100141) [12571*]:
    → "It didn't sound like there was that much to it. All you had to do was get ahold of $6, which is used for dyeing clothing..."
 74: 0x10A3 [0x23] WAIT_FOR_DIALOG_INTERACTION
 75: 0x10A4 [0x03] Work_Zone[2] = 2371*
 76: 0x10A9 [0x2B] Gaddiux (ID: 17826113/0x01100141) [12572*]:
    → "If you want, I can tell you how to get one."
 77: 0x10B0 [0x23] WAIT_FOR_DIALOG_INTERACTION
 78: 0x10B1 [0x1C] WAIT(30* ticks)
 79: 0x10B4 [0x66] LOAD_EXT_SCHEDULER_MAIN: Load scheduler "tlk1" with entities [Gaddiux (ID: 17826113/0x01100141), Gaddiux (ID: 17826113/0x01100141)], work=9*
 80: 0x10C3 [0x1C] WAIT(20* ticks)
 81: 0x10C6 [0x52] END_LOAD_SCHEDULER: End scheduler "s129" with entities [LocalPlayer, LocalPlayer], work=611*
 82: 0x10D5 [0x45] LOAD_SCHEDULED_TASK: Load scheduler "s130" with entities [LocalPlayer, LocalPlayer], work=[611*, 0*]
 83: 0x10E6 [0x03] Work_Zone[3] = 2279*
 84: 0x10EB [0x2B] Gaddiux (ID: 17826113/0x01100141) [12573*]:
    → "First you have to procure $6 in $7..."
 85: 0x10F2 [0x23] WAIT_FOR_DIALOG_INTERACTION
 86: 0x10F3 [0x52] END_LOAD_SCHEDULER: End scheduler "s130" with entities [LocalPlayer, LocalPlayer], work=611*
 87: 0x1102 [0x45] LOAD_SCHEDULED_TASK: Load scheduler "s131" with entities [LocalPlayer, LocalPlayer], work=[611*, 0*]
 88: 0x1113 [0x1C] WAIT(30* ticks)
 89: 0x1116 [0x66] LOAD_EXT_SCHEDULER_MAIN: Load scheduler "tlk0" with entities [Gaddiux (ID: 17826113/0x01100141), Gaddiux (ID: 17826113/0x01100141)], work=149*
 90: 0x1125 [0x1C] WAIT(20* ticks)
 91: 0x1128 [0x03] Work_Zone[4] = 266*
 92: 0x112D [0x2B] Gaddiux (ID: 17826113/0x01100141) [12574*]:
    → "Then you tramp on over to $8 and set the whole river there to boiling."
 93: 0x1134 [0x23] WAIT_FOR_DIALOG_INTERACTION
 94: 0x1135 [0x2B] Gaddiux (ID: 17826113/0x01100141) [12575*]:
    → "Now, I'm no rune fencer, but I'm pretty sure Ignis would be the right rune to use if you had a grudge against chilly water."
 95: 0x113C [0x23] WAIT_FOR_DIALOG_INTERACTION
 96: 0x113D [0x1C] WAIT(30* ticks)
 97: 0x1140 [0x66] LOAD_EXT_SCHEDULER_MAIN: Load scheduler "tlk1" with entities [Gaddiux (ID: 17826113/0x01100141), Gaddiux (ID: 17826113/0x01100141)], work=149*
 98: 0x114F [0x52] END_LOAD_SCHEDULER: End scheduler "s131" with entities [LocalPlayer, LocalPlayer], work=611*
 99: 0x115E [0x45] LOAD_SCHEDULED_TASK: Load scheduler "s132" with entities [LocalPlayer, LocalPlayer], work=[611*, 0*]
100: 0x116F [0x6E] Gaddiux (ID: 17826113/0x01100141) uses emote 26*
101: 0x1176 [0x99] Wait for Gaddiux (ID: 17826113/0x01100141) animation to complete
102: 0x117B [0x2B] Gaddiux (ID: 17826113/0x01100141) [12576*]:
    → "Aw, damn me and my loose lips! Well, not much more I can do now that the cat's out of the bag..."
103: 0x1182 [0x23] WAIT_FOR_DIALOG_INTERACTION
104: 0x1183 [0x1C] WAIT(60* ticks)
105: 0x1186 [0x52] END_LOAD_SCHEDULER: End scheduler "s132" with entities [LocalPlayer, LocalPlayer], work=611*
106: 0x1195 [0x45] LOAD_SCHEDULED_TASK: Load scheduler "s133" with entities [LocalPlayer, LocalPlayer], work=[611*, 0*]
107: 0x11A6 [0x1C] WAIT(30* ticks)
108: 0x11A9 [0x66] LOAD_EXT_SCHEDULER_MAIN: Load scheduler "tlk0" with entities [Gaddiux (ID: 17826113/0x01100141), Gaddiux (ID: 17826113/0x01100141)], work=9*
109: 0x11B8 [0x1C] WAIT(20* ticks)
110: 0x11BB [0x2B] Gaddiux (ID: 17826113/0x01100141) [12577*]:
    → "I've been struck with a bout of lethargy of late, but if you were nice enough to bring me that dye, then the spring might come back into my step and I'd get to looking for that rune stone with you-know-what on it."
111: 0x11C2 [0x23] WAIT_FOR_DIALOG_INTERACTION
112: 0x11C3 [0x2B] Gaddiux (ID: 17826113/0x01100141) [12578*]:
    → "We need that dye to color some armor that came in, but we haven't had any in stock since the incident. No rune fencers want to go out and get any for us, which I understand."
113: 0x11CA [0x23] WAIT_FOR_DIALOG_INTERACTION
114: 0x11CB [0x1C] WAIT(30* ticks)
115: 0x11CE [0x66] LOAD_EXT_SCHEDULER_MAIN: Load scheduler "tlk1" with entities [Gaddiux (ID: 17826113/0x01100141), Gaddiux (ID: 17826113/0x01100141)], work=9*
116: 0x11DD [0x1C] WAIT(20* ticks)
117: 0x11E0 [0x52] END_LOAD_SCHEDULER: End scheduler "s133" with entities [LocalPlayer, LocalPlayer], work=611*
118: 0x11EF [0x45] LOAD_SCHEDULED_TASK: Load scheduler "s134" with entities [LocalPlayer, LocalPlayer], work=[611*, 0*]
119: 0x1200 [0x2B] Gaddiux (ID: 17826113/0x01100141) [12579*]:
    → "Anyway, just think of it as collateral or quid pro quo or whatnot. Enjoy your jungle jaunt, now!"
120: 0x1207 [0x23] WAIT_FOR_DIALOG_INTERACTION
121: 0x1208 [0x6E] Gaddiux (ID: 17826113/0x01100141) uses emote 12*
122: 0x120F [0x99] Wait for Gaddiux (ID: 17826113/0x01100141) animation to complete
123: 0x1214 [0x1C] WAIT(15* ticks)
124: 0x1217 [0x52] END_LOAD_SCHEDULER: End scheduler "s134" with entities [LocalPlayer, LocalPlayer], work=611*
125: 0x1226 [0x45] LOAD_SCHEDULED_TASK: Load scheduler "s135" with entities [LocalPlayer, LocalPlayer], work=[611*, 0*]
126: 0x1237 [0x6E] LocalPlayer uses emote 7*
127: 0x123E [0x99] Wait for LocalPlayer animation to complete
128: 0x1243 [0x1C] WAIT(65* ticks)
129: 0x1246 [0x27] REQ_SET(priority=0x10, entity_id=LocalPlayer, tag_num=0x6C)
130: 0x124D [0x1C] WAIT(50* ticks)
131: 0x1250 [0x01] GOTO 0x13F7
132: 0x1253 [0x02] IF !(Work_Zone[0] == 1*) GOTO 0x137B
133: 0x125B [0x52] END_LOAD_SCHEDULER: End scheduler "s121" with entities [LocalPlayer, LocalPlayer], work=611*
134: 0x126A [0x27] REQ_SET(priority=0x10, entity_id=LocalPlayer, tag_num=0x09)
135: 0x1271 [0x1C] WAIT(45* ticks)
136: 0x1274 [0x27] REQ_SET(priority=0x10, entity_id=LocalPlayer, tag_num=0x0A)
137: 0x127B [0x02] IF !(ExtData[1]->WorkLocal[2] == 0*) GOTO 0x1286
138: 0x1283 [0x01] GOTO 0x1346
139: 0x1286 [0x45] LOAD_SCHEDULED_TASK: Load scheduler "s125" with entities [LocalPlayer, LocalPlayer], work=[611*, 0*]
140: 0x1297 [0x2B] Gaddiux (ID: 17826113/0x01100141) [12568*]:
    → "You mean the one that recorded the events that day?"
141: 0x129E [0x23] WAIT_FOR_DIALOG_INTERACTION
142: 0x129F [0x6E] Gaddiux (ID: 17826113/0x01100141) uses emote 32*
143: 0x12A6 [0x99] Wait for Gaddiux (ID: 17826113/0x01100141) animation to complete
144: 0x12AB [0x1C] WAIT(80* ticks)
145: 0x12AE [0x2B] Gaddiux (ID: 17826113/0x01100141) [12569*]:
    → "I can't imagine it's not, but I'll have to check. Just wait a second."
146: 0x12B5 [0x23] WAIT_FOR_DIALOG_INTERACTION
147: 0x12B6 [0x52] END_LOAD_SCHEDULER: End scheduler "s125" with entities [LocalPlayer, LocalPlayer], work=611*
148: 0x12C5 [0x45] LOAD_SCHEDULED_TASK: Load scheduler "s126" with entities [LocalPlayer, LocalPlayer], work=[611*, 0*]
149: 0x12D6 [0x27] REQ_SET(priority=0x10, entity_id=Gaddiux (ID: 17826113/0x01100141), tag_num=0x07)
150: 0x12DD [0x1C] WAIT(80* ticks)
151: 0x12E0 [0x1A] CALL_SUBROUTINE(address=0x0064)
152: 0x12E3 [0x1C] WAIT(30* ticks)
153: 0x12E6 [0x52] END_LOAD_SCHEDULER: End scheduler "s126" with entities [LocalPlayer, LocalPlayer], work=611*
154: 0x12F5 [0x7B] Gaddiux (ID: 17826113/0x01100141) stops talking
155: 0x12FA [0xBA] SET_ENTITY_POSITION(entity_id=Gaddiux (ID: 17826113/0x01100141), pos_x=78.904*, pos_z=-64.043*, pos_y=-0.148*, direction=130.3°*)
156: 0x1307 [0x1C] WAIT(60* ticks)
157: 0x130A [0x45] LOAD_SCHEDULED_TASK: Load scheduler "s127" with entities [LocalPlayer, LocalPlayer], work=[611*, 0*]
158: 0x131B [0x27] REQ_SET(priority=0x10, entity_id=Gaddiux (ID: 17826113/0x01100141), tag_num=0x08)
159: 0x1322 [0x1C] WAIT(10* ticks)
160: 0x1325 [0x1A] CALL_SUBROUTINE(address=0x0043)
161: 0x1328 [0x2A] GET_REQ_LEVEL(level=16, entity_id=Gaddiux (ID: 17826113/0x01100141))
162: 0x132E [0x4A] Gaddiux (ID: 17826113/0x01100141) looks at LocalPlayer
163: 0x1337 [0x52] END_LOAD_SCHEDULER: End scheduler "s127" with entities [LocalPlayer, LocalPlayer], work=611*

SUBROUTINE_1346:
164: 0x1346 [0x45] LOAD_SCHEDULED_TASK: Load scheduler "s128" with entities [LocalPlayer, LocalPlayer], work=[611*, 0*]
165: 0x1357 [0x2B] Gaddiux (ID: 17826113/0x01100141) [12570*]:
    → "We've got ponzes upon ponzes of them strewn all over the shelves, so it's going to take some time to find the right one."
166: 0x135E [0x23] WAIT_FOR_DIALOG_INTERACTION
167: 0x135F [0x52] END_LOAD_SCHEDULER: End scheduler "s128" with entities [LocalPlayer, LocalPlayer], work=611*
168: 0x136E [0x3D] CLEAR_BIT_FLAG_CONDITIONAL(target_work_offset=ExtData[1]->WorkLocal[2], bit_index_work_offset=0*, condition_work_offset=1*)
169: 0x1375 [0x01] GOTO 0x102A

SUBROUTINE_13F7:
170: 0x13F7 [0x01] GOTO 0x1469
171: 0x13FA [0x02] IF !(Work_Zone[0] == 3*) GOTO 0x144F
172: 0x1402 [0x52] END_LOAD_SCHEDULER: End scheduler "s121" with entities [LocalPlayer, LocalPlayer], work=611*
173: 0x1411 [0x45] LOAD_SCHEDULED_TASK: Load scheduler "s123" with entities [LocalPlayer, LocalPlayer], work=[611*, 0*]
174: 0x1422 [0x1C] WAIT(55* ticks)
175: 0x1425 [0x79] Gaddiux (ID: 17826113/0x01100141) looks at Unknown NPC (ID: 2156626058/0x808B808A) (Direct axis set)
