# 17826009 - Mischief Marker

## Common Data

| Field            | Value                     |
|------------------|---------------------------|
| Zone             | Western Adoulin (ID: 256) |
| Block Size       | 27884 bytes               |
| Total Events     | 15                        |
| References Count | 369                       |

## List of Events

| Event ID                 | Entrypoint   |   Size |   Instructions |
|--------------------------|--------------|--------|----------------|
| [65535](#event-65535)    | 0x0000       |      1 |              1 |
| [5045](#event-5045)      | 0x0001       |   3506 |            426 |
| [5046](#event-5046)      | 0x0DB3       |   2227 |            307 |
| [5047](#event-5047)      | 0x1666       |   2195 |            301 |
| [5048](#event-5048)      | 0x1EF9       |   2795 |            351 |
| [5049](#event-5049)      | 0x29E4       |    904 |            132 |
| [5050](#event-5050)      | 0x2D6C       |    904 |            132 |
| [5051](#event-5051)      | 0x30F4       |   1483 |            253 |
| [5067](#event-5067)      | 0x36BF       |   9158 |           1223 |
| [5068](#event-5068)      | 0x5A85       |      1 |              1 |
| [65535.1](#event-655351) | 0x5A86       |   3154 |            598 |
| [5094](#event-5094)      | 0x66D8       |      1 |              1 |
| [5095](#event-5095)      | 0x66D9       |      1 |              1 |
| [5096](#event-5096)      | 0x66DA       |      1 |              1 |
| [5217](#event-5217)      | 0x66DB       |      1 |              1 |

## DAT References (imed_data)

|   Index | Hex Value   |   Dec Value |
|---------|-------------|-------------|
|       0 | 0x00C8      |         200 |
|       1 | 0x0000      |           0 |
|       2 | 0x0013      |          19 |
|       3 | 0x172CF     |       94927 |
|       4 | 0xFFFE273C  |  4294846268 |
|       5 | 0x0883      |        2179 |
|       6 | 0x083B      |        2107 |
|       7 | 0x17086     |       94342 |
|       8 | 0xFFFE22F1  |  4294845169 |
|       9 | 0x0B8F      |        2959 |
|      10 | 0x001E      |          30 |
|      11 | 0x00B4      |         180 |
|      12 | 0x17638     |       95800 |
|      13 | 0xFFFE4166  |  4294852966 |
|      14 | 0x0FA0      |        4000 |
|      15 | 0x0500      |        1280 |
|      16 | 0x170CC     |       94412 |
|      17 | 0xFFFE2176  |  4294844790 |
|      18 | 0x027B      |         635 |
|      19 | 0x27AB      |       10155 |
|      20 | 0x0028      |          40 |
|      21 | 0x27AC      |       10156 |
|      22 | 0x0804      |        2052 |
|      23 | 0x0032      |          50 |
|      24 | 0x00D2      |         210 |
|      25 | 0x27AD      |       10157 |
|      26 | 0x0031      |          49 |
|      27 | 0x27AE      |       10158 |
|      28 | 0x27AF      |       10159 |
|      29 | 0x003C      |          60 |
|      30 | 0x27B0      |       10160 |
|      31 | 0x0078      |         120 |
|      32 | 0x0801      |        2049 |
|      33 | 0x00FA      |         250 |
|      34 | 0x27B1      |       10161 |
|      35 | 0x27B2      |       10162 |
|      36 | 0x27B3      |       10163 |
|      37 | 0x27B4      |       10164 |
|      38 | 0x0001      |           1 |
|      39 | 0x000F      |          15 |
|      40 | 0x27B6      |       10166 |
|      41 | 0x0002      |           2 |
|      42 | 0x27B7      |       10167 |
|      43 | 0x0029      |          41 |
|      44 | 0x27B8      |       10168 |
|      45 | 0x27B9      |       10169 |
|      46 | 0x27BA      |       10170 |
|      47 | 0x005A      |          90 |
|      48 | 0x27BB      |       10171 |
|      49 | 0x27BC      |       10172 |
|      50 | 0x27BD      |       10173 |
|      51 | 0x002A      |          42 |
|      52 | 0x27BE      |       10174 |
|      53 | 0x27BF      |       10175 |
|      54 | 0x27C0      |       10176 |
|      55 | 0x27C1      |       10177 |
|      56 | 0x27C2      |       10178 |
|      57 | 0x27C3      |       10179 |
|      58 | 0x27C4      |       10180 |
|      59 | 0x27C5      |       10181 |
|      60 | 0x00A5      |         165 |
|      61 | 0x27C6      |       10182 |
|      62 | 0x27C7      |       10183 |
|      63 | 0x27C8      |       10184 |
|      64 | 0x27C9      |       10185 |
|      65 | 0x27CA      |       10186 |
|      66 | 0x1154      |        4436 |
|      67 | 0x27CB      |       10187 |
|      68 | 0x27CC      |       10188 |
|      69 | 0x27CD      |       10189 |
|      70 | 0x00BD      |         189 |
|      71 | 0x27CE      |       10190 |
|      72 | 0x0095      |         149 |
|      73 | 0x0096      |         150 |
|      74 | 0x0802      |        2050 |
|      75 | 0x0008      |           8 |
|      76 | 0x0010      |          16 |
|      77 | 0x281C      |       10268 |
|      78 | 0x2842      |       10306 |
|      79 | 0x2820      |       10272 |
|      80 | 0x281F      |       10271 |
|      81 | 0x281E      |       10270 |
|      82 | 0x281D      |       10269 |
|      83 | 0x1117      |        4375 |
|      84 | 0x27CF      |       10191 |
|      85 | 0x27D0      |       10192 |
|      86 | 0x27D1      |       10193 |
|      87 | 0x0072      |         114 |
|      88 | 0x27D2      |       10194 |
|      89 | 0x1453      |        5203 |
|      90 | 0x14AE      |        5294 |
|      91 | 0x11D4      |        4564 |
|      92 | 0x1196      |        4502 |
|      93 | 0x1434      |        5172 |
|      94 | 0x1128      |        4392 |
|      95 | 0x111D      |        4381 |
|      96 | 0x112B      |        4395 |
|      97 | 0x161E8     |       90600 |
|      98 | 0xFFFE2C08  |  4294847496 |
|      99 | 0x27D6      |       10198 |
|     100 | 0x27D7      |       10199 |
|     101 | 0x0009      |           9 |
|     102 | 0x27DB      |       10203 |
|     103 | 0x27DC      |       10204 |
|     104 | 0x27DD      |       10205 |
|     105 | 0x27DE      |       10206 |
|     106 | 0x27DF      |       10207 |
|     107 | 0x27E0      |       10208 |
|     108 | 0x27E1      |       10209 |
|     109 | 0x001D      |          29 |
|     110 | 0x00F0      |         240 |
|     111 | 0x03A9      |         937 |
|     112 | 0x27E2      |       10210 |
|     113 | 0x27E3      |       10211 |
|     114 | 0x27E4      |       10212 |
|     115 | 0x27E5      |       10213 |
|     116 | 0x27E6      |       10214 |
|     117 | 0x27E7      |       10215 |
|     118 | 0x1156      |        4438 |
|     119 | 0x27E8      |       10216 |
|     120 | 0x11D6      |        4566 |
|     121 | 0x27E9      |       10217 |
|     122 | 0x27EA      |       10218 |
|     123 | 0x27EB      |       10219 |
|     124 | 0x27EC      |       10220 |
|     125 | 0x27ED      |       10221 |
|     126 | 0x27EE      |       10222 |
|     127 | 0x001C      |          28 |
|     128 | 0x027D      |         637 |
|     129 | 0x27EF      |       10223 |
|     130 | 0x27F0      |       10224 |
|     131 | 0x27F1      |       10225 |
|     132 | 0x1136      |        4406 |
|     133 | 0x27F2      |       10226 |
|     134 | 0x1116      |        4374 |
|     135 | 0x27F3      |       10227 |
|     136 | 0x27F4      |       10228 |
|     137 | 0x27F5      |       10229 |
|     138 | 0x12188     |       74120 |
|     139 | 0xFFFE111E  |  4294840606 |
|     140 | 0x0F9F      |        3999 |
|     141 | 0x0C00      |        3072 |
|     142 | 0xABA4      |       43940 |
|     143 | 0xFFFE44A4  |  4294853796 |
|     144 | 0x07D0      |        2000 |
|     145 | 0x0400      |        1024 |
|     146 | 0x27F6      |       10230 |
|     147 | 0x27F7      |       10231 |
|     148 | 0x27F8      |       10232 |
|     149 | 0x001B      |          27 |
|     150 | 0x0484      |        1156 |
|     151 | 0x27F9      |       10233 |
|     152 | 0x27FA      |       10234 |
|     153 | 0x27FB      |       10235 |
|     154 | 0x27FC      |       10236 |
|     155 | 0x27FD      |       10237 |
|     156 | 0x27FE      |       10238 |
|     157 | 0x27FF      |       10239 |
|     158 | 0x2800      |       10240 |
|     159 | 0x2801      |       10241 |
|     160 | 0x002F      |          47 |
|     161 | 0x14820     |       84000 |
|     162 | 0xFFFE2B40  |  4294847296 |
|     163 | 0xFFFFFF80  |  4294967168 |
|     164 | 0x16308     |       90888 |
|     165 | 0xFFFE327A  |  4294849146 |
|     166 | 0x2802      |       10242 |
|     167 | 0x2803      |       10243 |
|     168 | 0x2804      |       10244 |
|     169 | 0x2805      |       10245 |
|     170 | 0x2806      |       10246 |
|     171 | 0x05FA      |        1530 |
|     172 | 0x2807      |       10247 |
|     173 | 0x00C7      |         199 |
|     174 | 0x2808      |       10248 |
|     175 | 0x003B      |          59 |
|     176 | 0x2809      |       10249 |
|     177 | 0x280A      |       10250 |
|     178 | 0x0015      |          21 |
|     179 | 0x280B      |       10251 |
|     180 | 0x007F      |         127 |
|     181 | 0x280C      |       10252 |
|     182 | 0x0007      |           7 |
|     183 | 0x280D      |       10253 |
|     184 | 0x02FF      |         767 |
|     185 | 0x280E      |       10254 |
|     186 | 0x280F      |       10255 |
|     187 | 0x2810      |       10256 |
|     188 | 0x007C      |         124 |
|     189 | 0x2811      |       10257 |
|     190 | 0x0258      |         600 |
|     191 | 0x00C9      |         201 |
|     192 | 0x2812      |       10258 |
|     193 | 0x27D3      |       10195 |
|     194 | 0x27D4      |       10196 |
|     195 | 0x27D5      |       10197 |
|     196 | 0x0003      |           3 |
|     197 | 0x0004      |           4 |
|     198 | 0x0005      |           5 |
|     199 | 0x0006      |           6 |
|     200 | 0x000B      |          11 |
|     201 | 0x000C      |          12 |
|     202 | 0x000D      |          13 |
|     203 | 0x000E      |          14 |
|     204 | 0x27D9      |       10201 |
|     205 | 0x27DA      |       10202 |
|     206 | 0x17781     |       96129 |
|     207 | 0xFFFE4404  |  4294853636 |
|     208 | 0x0603      |        1539 |
|     209 | 0x12E44     |       77380 |
|     210 | 0xFFFE15AB  |  4294841771 |
|     211 | 0xFFFFFBFD  |  4294966269 |
|     212 | 0x1172F     |       71471 |
|     213 | 0xFFFE1FD2  |  4294844370 |
|     214 | 0x2871      |       10353 |
|     215 | 0x2872      |       10354 |
|     216 | 0x2873      |       10355 |
|     217 | 0x2874      |       10356 |
|     218 | 0x2875      |       10357 |
|     219 | 0x2876      |       10358 |
|     220 | 0x2877      |       10359 |
|     221 | 0x2878      |       10360 |
|     222 | 0x2879      |       10361 |
|     223 | 0x287A      |       10362 |
|     224 | 0x287B      |       10363 |
|     225 | 0x287C      |       10364 |
|     226 | 0x1189      |        4489 |
|     227 | 0x287D      |       10365 |
|     228 | 0x287E      |       10366 |
|     229 | 0x287F      |       10367 |
|     230 | 0x115C      |        4444 |
|     231 | 0x2880      |       10368 |
|     232 | 0x00A9      |         169 |
|     233 | 0x2881      |       10369 |
|     234 | 0x2882      |       10370 |
|     235 | 0x2883      |       10371 |
|     236 | 0x168F      |        5775 |
|     237 | 0x2884      |       10372 |
|     238 | 0x2885      |       10373 |
|     239 | 0x2886      |       10374 |
|     240 | 0x2887      |       10375 |
|     241 | 0x2888      |       10376 |
|     242 | 0x2889      |       10377 |
|     243 | 0x288A      |       10378 |
|     244 | 0x288B      |       10379 |
|     245 | 0x288C      |       10380 |
|     246 | 0x288D      |       10381 |
|     247 | 0x288E      |       10382 |
|     248 | 0x288F      |       10383 |
|     249 | 0x2890      |       10384 |
|     250 | 0x000A      |          10 |
|     251 | 0x0064      |         100 |
|     252 | 0x03E8      |        1000 |
|     253 | 0x2710      |       10000 |
|     254 | 0x2891      |       10385 |
|     255 | 0x2892      |       10386 |
|     256 | 0x2893      |       10387 |
|     257 | 0x2894      |       10388 |
|     258 | 0x2895      |       10389 |
|     259 | 0x2896      |       10390 |
|     260 | 0x2897      |       10391 |
|     261 | 0x2898      |       10392 |
|     262 | 0xD431      |       54321 |
|     263 | 0x0024      |          36 |
|     264 | 0x0082      |         130 |
|     265 | 0x2899      |       10393 |
|     266 | 0x289A      |       10394 |
|     267 | 0x289B      |       10395 |
|     268 | 0x289C      |       10396 |
|     269 | 0x289D      |       10397 |
|     270 | 0x289E      |       10398 |
|     271 | 0x289F      |       10399 |
|     272 | 0x0087      |         135 |
|     273 | 0x28A2      |       10402 |
|     274 | 0x28A3      |       10403 |
|     275 | 0x28A4      |       10404 |
|     276 | 0x28A5      |       10405 |
|     277 | 0x28A6      |       10406 |
|     278 | 0x28A7      |       10407 |
|     279 | 0x28A8      |       10408 |
|     280 | 0x28A9      |       10409 |
|     281 | 0x28AA      |       10410 |
|     282 | 0x28AB      |       10411 |
|     283 | 0x28AC      |       10412 |
|     284 | 0x28AD      |       10413 |
|     285 | 0x28AE      |       10414 |
|     286 | 0x28AF      |       10415 |
|     287 | 0x28B1      |       10417 |
|     288 | 0x1701      |        5889 |
|     289 | 0x28B2      |       10418 |
|     290 | 0x28B3      |       10419 |
|     291 | 0x28B4      |       10420 |
|     292 | 0x28B5      |       10421 |
|     293 | 0x28B6      |       10422 |
|     294 | 0x28B7      |       10423 |
|     295 | 0x28B8      |       10424 |
|     296 | 0x28B9      |       10425 |
|     297 | 0xF4D3      |       62675 |
|     298 | 0x1E061     |      122977 |
|     299 | 0x7D00      |       32000 |
|     300 | 0xFFFFFE01  |  4294966785 |
|     301 | 0x2864      |       10340 |
|     302 | 0x0020      |          32 |
|     303 | 0x28BA      |       10426 |
|     304 | 0x28BB      |       10427 |
|     305 | 0x28B0      |       10416 |
|     306 | 0x008C      |         140 |
|     307 | 0x165F1     |       91633 |
|     308 | 0xFFFE318F  |  4294848911 |
|     309 | 0x01FF      |         511 |
|     310 | 0xFFFFFFFF  |  4294967295 |
|     311 | 0x28A0      |       10400 |
|     312 | 0x001A      |          26 |
|     313 | 0x0051      |          81 |
|     314 | 0x0019      |          25 |
|     315 | 0x28A1      |       10401 |
|     316 | 0x3EED      |       16109 |
|     317 | 0x365C      |       13916 |
|     318 | 0x28CE      |       10446 |
|     319 | 0x2CE2      |       11490 |
|     320 | 0x2A7B      |       10875 |
|     321 | 0x3B60      |       15200 |
|     322 | 0x3B61      |       15201 |
|     323 | 0x3B62      |       15202 |
|     324 | 0x3B63      |       15203 |
|     325 | 0x3EFC      |       16124 |
|     326 | 0x6C71      |       27761 |
|     327 | 0x6C89      |       27785 |
|     328 | 0x2A95      |       10901 |
|     329 | 0x2A7C      |       10876 |
|     330 | 0x2CEF      |       11503 |
|     331 | 0x6C72      |       27762 |
|     332 | 0x6C88      |       27784 |
|     333 | 0x2A9A      |       10906 |
|     334 | 0x2A7D      |       10877 |
|     335 | 0x2CF0      |       11504 |
|     336 | 0x6C73      |       27763 |
|     337 | 0x6C86      |       27782 |
|     338 | 0x2A9F      |       10911 |
|     339 | 0x2A7E      |       10878 |
|     340 | 0x2CF1      |       11505 |
|     341 | 0x00C6      |         198 |
|     342 | 0x0148      |         328 |
|     343 | 0x008E      |         142 |
|     344 | 0x007A      |         122 |
|     345 | 0x0090      |         144 |
|     346 | 0x0093      |         147 |
|     347 | 0x0091      |         145 |
|     348 | 0x0092      |         146 |
|     349 | 0x00D1      |         209 |
|     350 | 0x0162      |         354 |
|     351 | 0x0156      |         342 |
|     352 | 0x00C3      |         195 |
|     353 | 0x0145      |         325 |
|     354 | 0x00EF      |         239 |
|     355 | 0x0163      |         355 |
|     356 | 0x0157      |         343 |
|     357 | 0x00C4      |         196 |
|     358 | 0x0146      |         326 |
|     359 | 0x00F1      |         241 |
|     360 | 0x0164      |         356 |
|     361 | 0x0158      |         344 |
|     362 | 0x00C5      |         197 |
|     363 | 0x0147      |         327 |
|     364 | 0x1135      |        4405 |
|     365 | 0x1636      |        5686 |
|     366 | 0x1145      |        4421 |
|     367 | 0x1113      |        4371 |
|     368 | 0x11B9      |        4537 |

## String References

- **10163**: Ask them to sign something? [Wonderful idea!/Not on your life./Wait...are you Tarutaru Sauce?]
- **10201**: Synthesis failed. Tuffle-Buffle lost the crystal he was using.
- **10202**: $0 was lost.
- **10206**: Tuffle-Buffle synthesized $1 $0 .
- **10242**: Enough, you two!!!
- **10253**: You write your name on the parchment.
- **10258**: You have earned the trust and respect of Peladi Shalmohr! ...Probably.
- **10268**: Necessary skills: [Fishing/Woodworking/Smithing/Goldsmithing/Clothcraft/Leatherworking/Bonecraft/Alchemy/Cooking][ /, Woodworking/, Smithing/, Goldsmithing/, Clothcraft/, Leatherworking/, Bonecraft/, Alchemy/, Cooking][ /, Woodworking/, Smithing/, Goldsmithing/, Clothcraft/, Leatherworking/, Bonecraft/, Alchemy/, Cooking][ /, & Woodworking/, & Smithing/, & Goldsmithing/, & Clothcraft/, & Leatherworking/, & Bonecraft/, & Alchemy/, & Cooking] Necessary crystal: $4 Necessary items:
- **10269**: $4 x $0 $5 x $0$0 $6 x $0 $7 x $0$3
- **10270**: $4 x $0 $5 x $0$0 $6 x $0
- **10271**: $4 x $0 $5 x $0$0
- **10272**: $4 x $0
- **10306**: Necessary skills: [Fishing/Woodworking/Smithing/Goldsmithing/Clothcraft/Leatherworking/Bonecraft/Alchemy/Cooking][ /, Woodworking/, Smithing/, Goldsmithing/, Clothcraft/, Leatherworking/, Bonecraft/, Alchemy/, Cooking][ /, Woodworking/, Smithing/, Goldsmithing/, Clothcraft/, Leatherworking/, Bonecraft/, Alchemy/, Cooking][ /, & Woodworking/, & Smithing/, & Goldsmithing/, & Clothcraft/, & Leatherworking/, & Bonecraft/, & Alchemy/, & Cooking] Necessary crystal: $4 Necessary key item: $3 Necessary items:
- **10384**: What would you like them to change into? [The $0./The $1./The $2./The $3./The $4.]
- **10386**: Pleased with your choice? [That would look faaabulous./Not so much...]
- **10424**: Your management skill has increased by 0.$0!
- **10425**: ...Probably.

## Events

### Event 65535

#### Metadata

| Field        | Value   |
|--------------|---------|
| Entrypoint   | 0x0000  |
| Data Size    | 1 bytes |
| Instructions | 1       |

```
      00 01 02 03 04 05 06 07  08 09 0A 0B 0C 0D 0E 0F
      -- -- -- -- -- -- -- --  -- -- -- -- -- -- -- --
0000: 00                                                .               
```

#### Opcodes

```
  0: 0x0000 [0x00] END_REQSTACK()
```

### Event 5045

#### Metadata

| Field        | Value      |
|--------------|------------|
| Entrypoint   | 0x0001     |
| Data Size    | 3506 bytes |
| Instructions | 391        |

```
      00 01 02 03 04 05 06 07  08 09 0A 0B 0C 0D 0E 0F
      -- -- -- -- -- -- -- --  -- -- -- -- -- -- -- --
0000:    42 45 00 80 F0 FF FF  7F F0 FF FF 7F 66 64 6F   BE..........fdo
0010: 31 01 80 55 00 80 F0 FF  FF 7F F0 FF FF 7F 66 64  1..U..........fd
0020: 6F 31 46 01 38 02 80 2F  00 DA 00 10 01 4E 00 DA  o1F.8../.....N..
0030: 00 10 01 94 01 DA 00 10  01 BA DA 00 10 01 03 80  ................
0040: 04 80 05 80 06 80 2F 00  DB 00 10 01 4E 00 DB 00  ....../.....N...
0050: 10 01 94 01 DB 00 10 01  BA DB 00 10 01 07 80 08  ................
0060: 80 05 80 09 80 80 DA 00  10 01 80 DB 00 10 01 1C  ................
0070: 0A 80 66 0B 80 DA 00 10  01 DA 00 10 01 6F 72 7A  ..f..........orz
0080: 30 53 DA 00 10 01 DA 00  10 01 6F 72 7A 30 94 01  0S........orz0..
0090: F0 FF FF 7F BA F0 FF FF  7F 0C 80 0D 80 0E 80 0F  ................
00A0: 80 37 10 80 11 80 05 80  09 80 1C 0A 80 45 12 80  .7...........E..
00B0: F8 FF FF 7F F8 FF FF 7F  73 30 31 32 01 80 45 00  ........s012..E.
00C0: 80 F0 FF FF 7F F0 FF FF  7F 66 64 69 31 01 80 2B  .........fdi1..+
00D0: DA 00 10 01 13 80 23 52  12 80 F8 FF FF 7F F8 FF  ......#R........
00E0: FF 7F 73 30 31 32 45 12  80 F8 FF FF 7F F8 FF FF  ..s012E.........
00F0: 7F 73 30 31 34 01 80 79  00 DB 00 10 01 DA 00 10  .s014..y........
0100: 01 66 14 80 DB 00 10 01  DB 00 10 01 74 6C 6B 30  .f..........tlk0
0110: 2B DB 00 10 01 15 80 23  66 14 80 DB 00 10 01 DB  +......#f.......
0120: 00 10 01 74 6C 6B 31 52  12 80 F8 FF FF 7F F8 FF  ...tlk1R........
0130: FF 7F 73 30 31 34 45 12  80 F8 FF FF 7F F8 FF FF  ..s014E.........
0140: 7F 73 30 31 33 01 80 5B  16 80 DA 00 10 01 DA 00  .s013..[........
0150: 10 01 68 69 7A 31 1C 17  80 79 00 DA 00 10 01 DB  ..hiz1...y......
0160: 00 10 01 1C 0A 80 03 00  17 18 80 27 10 DA 00 10  ...........'....
0170: 01 38 2B DA 00 10 01 19  80 23 2A 10 DA 00 10 01  .8+......#*.....
0180: 66 1A 80 DA 00 10 01 DA  00 10 01 74 6C 6B 30 2B  f..........tlk0+
0190: DA 00 10 01 1B 80 23 66  1A 80 DA 00 10 01 DA 00  ......#f........
01A0: 10 01 74 6C 6B 31 52 12  80 F8 FF FF 7F F8 FF FF  ..tlk1R.........
01B0: 7F 73 30 31 33 45 12 80  F8 FF FF 7F F8 FF FF 7F  .s013E..........
01C0: 73 30 31 34 01 80 66 14  80 DB 00 10 01 DB 00 10  s014..f.........
01D0: 01 74 6C 6B 30 2B DB 00  10 01 1C 80 23 66 14 80  .tlk0+......#f..
01E0: DB 00 10 01 DB 00 10 01  74 6C 6B 31 52 12 80 F8  ........tlk1R...
01F0: FF FF 7F F8 FF FF 7F 73  30 31 34 45 12 80 F8 FF  .......s014E....
0200: FF 7F F8 FF FF 7F 73 30  31 33 01 80 53 DA 00 10  ......s013..S...
0210: 01 DA 00 10 01 6E 6D 69  30 81 00 F8 FF FF 7F 03  .....nmi0.......
0220: 00 17 1D 80 27 10 DA 00  10 01 39 2B DA 00 10 01  ....'.....9+....
0230: 1E 80 23 2A 10 DA 00 10  01 81 01 F8 FF FF 7F 66  ..#*...........f
0240: 1A 80 DA 00 10 01 DA 00  10 01 74 68 6B 32 1C 0A  ..........thk2..
0250: 80 27 10 F0 FF FF 7F 38  59 01 DA 00 10 01 17 80  .'.....8Y.......
0260: 27 10 DA 00 10 01 09 4A  DB 00 10 01 F0 FF FF 7F  '......J........
0270: 1C 1F 80 52 12 80 F8 FF  FF 7F F8 FF FF 7F 73 30  ...R..........s0
0280: 31 33 45 12 80 F8 FF FF  7F F8 FF FF 7F 73 30 31  13E..........s01
0290: 35 01 80 4A DA 00 10 01  F0 FF FF 7F 27 10 DA 00  5..J........'...
02A0: 10 01 08 27 10 DB 00 10  01 08 1C 0B 80 52 12 80  ...'.........R..
02B0: F8 FF FF 7F F8 FF FF 7F  73 30 31 35 45 12 80 F8  ........s015E...
02C0: FF FF 7F F8 FF FF 7F 73  30 31 36 01 80 1C 1D 80  .......s016.....
02D0: 29 10 F0 FF FF 7F 02 0C  02 10 9D 00 A3 0D 02 10  )...............
02E0: 02 10 5B 20 80 DA 00 10  01 DA 00 10 01 79 67 6F  ..[ .........ygo
02F0: 30 1C 0A 80 AD 04 21 80  DA 00 10 01 DA 00 10 01  0.....!.........
0300: 93 02 10 2B DA 00 10 01  22 80 23 93 01 80 1C 1D  ...+....".#.....
0310: 80 52 12 80 F8 FF FF 7F  F8 FF FF 7F 73 30 31 36  .R..........s016
0320: 45 12 80 F8 FF FF 7F F8  FF FF 7F 73 30 31 37 01  E..........s017.
0330: 80 66 14 80 DA 00 10 01  DA 00 10 01 74 6C 6B 30  .f..........tlk0
0340: 79 00 DB 00 10 01 DA 00  10 01 2B DA 00 10 01 23  y.........+....#
0350: 80 23 66 14 80 DA 00 10  01 DA 00 10 01 74 6C 6B  .#f..........tlk
0360: 31 52 12 80 F8 FF FF 7F  F8 FF FF 7F 73 30 31 37  1R..........s017
0370: 45 12 80 F8 FF FF 7F F8  FF FF 7F 73 30 31 38 01  E..........s018.
0380: 80 1C 0A 80 4A F0 FF FF  7F DA 00 10 01 6F 76 F0  ....J........ov.
0390: FF FF 7F 24 24 80 01 80  01 80 25 02 00 10 01 80  ...$$.....%.....
03A0: 00 EF 03 52 12 80 F8 FF  FF 7F F8 FF FF 7F 73 30  ...R..........s0
03B0: 31 38 45 12 80 F8 FF FF  7F F8 FF FF 7F 73 30 31  18E..........s01
03C0: 37 01 80 03 00 17 1D 80  27 10 DA 00 10 01 3B 2B  7.......'.....;+
03D0: DA 00 10 01 25 80 23 2A  10 DA 00 10 01 52 12 80  ....%.#*.....R..
03E0: F8 FF FF 7F F8 FF FF 7F  73 30 31 37 01 D3 05 02  ........s017....
03F0: 00 10 26 80 00 8F 04 1C  27 80 52 12 80 F8 FF FF  ..&.....'.R.....
0400: 7F F8 FF FF 7F 73 30 31  38 45 12 80 F8 FF FF 7F  .....s018E......
0410: F8 FF FF 7F 73 30 31 37  01 80 27 10 DA 00 10 01  ....s017..'.....
0420: 0C 2A 10 DA 00 10 01 66  14 80 DA 00 10 01 DA 00  .*.....f........
0430: 10 01 67 6B 72 30 53 DA  00 10 01 DA 00 10 01 67  ..gkr0S........g
0440: 6B 72 30 66 14 80 DA 00  10 01 DA 00 10 01 74 6C  kr0f..........tl
0450: 6B 30 2B DA 00 10 01 28  80 23 66 14 80 DA 00 10  k0+....(.#f.....
0460: 01 DA 00 10 01 74 6C 6B  31 52 12 80 F8 FF FF 7F  .....tlk1R......
0470: F8 FF FF 7F 73 30 31 37  45 12 80 F8 FF FF 7F F8  ....s017E.......
0480: FF FF 7F 73 30 31 38 01  80 01 93 03 01 D3 05 02  ...s018.........
0490: 00 10 29 80 00 D3 05 52  12 80 F8 FF FF 7F F8 FF  ..)....R........
04A0: FF 7F 73 30 31 38 45 12  80 F8 FF FF 7F F8 FF FF  ..s018E.........
04B0: 7F 73 30 31 37 01 80 03  00 17 1F 80 27 10 DA 00  .s017.......'...
04C0: 10 01 3A 2B DA 00 10 01  2A 80 23 2A 10 DA 00 10  ..:+....*.#*....
04D0: 01 52 12 80 F8 FF FF 7F  F8 FF FF 7F 73 30 31 37  .R..........s017
04E0: 45 12 80 F8 FF FF 7F F8  FF FF 7F 73 30 31 33 01  E..........s013.
04F0: 80 79 00 DA 00 10 01 DB  00 10 01 66 2B 80 DA 00  .y.........f+...
0500: 10 01 DA 00 10 01 65 68  6E 30 2B DA 00 10 01 2C  ......ehn0+....,
0510: 80 23 52 12 80 F8 FF FF  7F F8 FF FF 7F 73 30 31  .#R..........s01
0520: 33 45 12 80 F8 FF FF 7F  F8 FF FF 7F 73 30 31 34  3E..........s014
0530: 01 80 79 00 DB 00 10 01  DA 00 10 01 66 14 80 DB  ..y.........f...
0540: 00 10 01 DB 00 10 01 7A  69 74 30 2B DB 00 10 01  .......zit0+....
0550: 2D 80 23 52 12 80 F8 FF  FF 7F F8 FF FF 7F 73 30  -.#R..........s0
0560: 31 34 45 12 80 F8 FF FF  7F F8 FF FF 7F 73 30 31  14E..........s01
0570: 33 01 80 79 00 DA 00 10  01 DB 00 10 01 7C 00 DA  3..y.........|..
0580: 00 10 01 66 14 80 DA 00  10 01 DA 00 10 01 69 72  ...f..........ir
0590: 6F 30 2B DA 00 10 01 2E  80 23 7C 01 DA 00 10 01  o0+......#|.....
05A0: 66 14 80 DB 00 10 01 DB  00 10 01 67 6B 72 30 1C  f..........gkr0.
05B0: 2F 80 66 14 80 DB 00 10  01 DB 00 10 01 67 6B 72  /.f..........gkr
05C0: 31 52 12 80 F8 FF FF 7F  F8 FF FF 7F 73 30 31 33  1R..........s013
05D0: 01 D3 05 45 12 80 F8 FF  FF 7F F8 FF FF 7F 73 30  ...E..........s0
05E0: 35 31 01 80 27 10 DA 00  10 01 08 79 00 DA 00 10  51..'......y....
05F0: 01 F0 FF FF 7F 81 00 F8  FF FF 7F 03 00 17 1D 80  ................
0600: 27 10 DA 00 10 01 39 2B  DA 00 10 01 30 80 23 2A  '.....9+....0.#*
0610: 10 DA 00 10 01 81 01 F8  FF FF 7F 66 14 80 DA 00  ...........f....
0620: 10 01 DA 00 10 01 74 68  6B 32 66 14 80 DA 00 10  ......thk2f.....
0630: 01 DA 00 10 01 74 6C 6B  30 2B DA 00 10 01 31 80  .....tlk0+....1.
0640: 23 66 14 80 DA 00 10 01  DA 00 10 01 74 6C 6B 31  #f..........tlk1
0650: 52 12 80 F8 FF FF 7F F8  FF FF 7F 73 30 35 31 02  R..........s051.
0660: 00 10 29 80 00 B6 06 45  12 80 F8 FF FF 7F F8 FF  ..)....E........
0670: FF 7F 73 30 31 34 01 80  7C 00 DB 00 10 01 03 00  ..s014..|.......
0680: 17 1D 80 27 10 DB 00 10  01 29 2B DB 00 10 01 32  ...'.....)+....2
0690: 80 23 2A 10 DB 00 10 01  66 33 80 DB 00 10 01 DB  .#*.....f3......
06A0: 00 10 01 62 69 6B 31 52  12 80 F8 FF FF 7F F8 FF  ...bik1R........
06B0: FF 7F 73 30 31 34 45 12  80 F8 FF FF 7F F8 FF FF  ..s014E.........
06C0: 7F 73 30 31 39 01 80 66  14 80 DA 00 10 01 DA 00  .s019..f........
06D0: 10 01 74 6C 6B 30 2B DA  00 10 01 34 80 23 52 12  ..tlk0+....4.#R.
06E0: 80 F8 FF FF 7F F8 FF FF  7F 73 30 31 39 45 12 80  .........s019E..
06F0: F8 FF FF 7F F8 FF FF 7F  73 30 32 30 01 80 66 14  ........s020..f.
0700: 80 DA 00 10 01 DA 00 10  01 74 6C 6B 30 2B DA 00  .........tlk0+..
0710: 10 01 35 80 23 52 12 80  F8 FF FF 7F F8 FF FF 7F  ..5.#R..........
0720: 73 30 32 30 45 12 80 F8  FF FF 7F F8 FF FF 7F 73  s020E..........s
0730: 30 35 32 01 80 66 14 80  DA 00 10 01 DA 00 10 01  052..f..........
0740: 74 6C 6B 30 2B DA 00 10  01 36 80 23 66 14 80 DA  tlk0+....6.#f...
0750: 00 10 01 DA 00 10 01 74  6C 6B 31 52 12 80 F8 FF  .......tlk1R....
0760: FF 7F F8 FF FF 7F 73 30  35 32 45 12 80 F8 FF FF  ......s052E.....
0770: 7F F8 FF FF 7F 73 30 32  34 01 80 03 00 17 1D 80  .....s024.......
0780: 27 10 DB 00 10 01 2A 2B  DB 00 10 01 37 80 23 2A  '.....*+....7.#*
0790: 10 DB 00 10 01 03 00 17  1D 80 27 10 DB 00 10 01  ..........'.....
07A0: 2B 2B DB 00 10 01 38 80  23 2A 10 DB 00 10 01 7C  ++....8.#*.....|
07B0: 01 DB 00 10 01 52 12 80  F8 FF FF 7F F8 FF FF 7F  .....R..........
07C0: 73 30 32 34 45 12 80 F8  FF FF 7F F8 FF FF 7F 73  s024E..........s
07D0: 30 31 34 01 80 66 14 80  DB 00 10 01 DB 00 10 01  014..f..........
07E0: 74 6C 6B 30 2B DB 00 10  01 39 80 23 66 14 80 DB  tlk0+....9.#f...
07F0: 00 10 01 DB 00 10 01 74  6C 6B 31 52 12 80 F8 FF  .......tlk1R....
0800: FF 7F F8 FF FF 7F 73 30  31 34 45 12 80 F8 FF FF  ......s014E.....
0810: 7F F8 FF FF 7F 73 30 31  33 01 80 66 2B 80 DA 00  .....s013..f+...
0820: 10 01 DA 00 10 01 65 68  6E 30 2B DA 00 10 01 3A  ......ehn0+....:
0830: 80 23 52 12 80 F8 FF FF  7F F8 FF FF 7F 73 30 31  .#R..........s01
0840: 33 A4 01 45 12 80 F8 FF  FF 7F F8 FF FF 7F 73 30  3..E..........s0
0850: 32 31 01 80 1C 1D 80 52  12 80 F8 FF FF 7F F8 FF  21.....R........
0860: FF 7F 73 30 32 31 45 12  80 F8 FF FF 7F F8 FF FF  ..s021E.........
0870: 7F 73 30 32 32 01 80 1C  1D 80 52 12 80 F8 FF FF  .s022.....R.....
0880: 7F F8 FF FF 7F 73 30 32  32 81 00 DA 00 10 01 45  .....s022......E
0890: 12 80 F8 FF FF 7F F8 FF  FF 7F 73 30 32 33 01 80  ..........s023..
08A0: 1C 0B 80 2B DA 00 10 01  3B 80 23 5B 3C 80 DA 00  ...+....;.#[<...
08B0: 10 01 DA 00 10 01 6B 62  6B 30 81 01 DA 00 10 01  ......kbk0......
08C0: 2B DA 00 10 01 3D 80 23  52 12 80 F8 FF FF 7F F8  +....=.#R.......
08D0: FF FF 7F 73 30 32 33 45  12 80 F8 FF FF 7F F8 FF  ...s023E........
08E0: FF 7F 73 30 31 34 01 80  03 00 17 1F 80 27 10 DB  ..s014.......'..
08F0: 00 10 01 2C 2B DB 00 10  01 3E 80 23 2A 10 DB 00  ...,+....>.#*...
0900: 10 01 52 12 80 F8 FF FF  7F F8 FF FF 7F 73 30 31  ..R..........s01
0910: 34 5B 3C 80 DA 00 10 01  DA 00 10 01 6B 62 6B 31  4[<.........kbk1
0920: 45 12 80 F8 FF FF 7F F8  FF FF 7F 73 30 31 33 01  E..........s013.
0930: 80 79 00 DA 00 10 01 DB  00 10 01 03 00 17 1F 80  .y..............
0940: 27 10 DA 00 10 01 3C 2B  DA 00 10 01 3F 80 23 2A  '.....<+....?.#*
0950: 10 DA 00 10 01 66 14 80  DA 00 10 01 DA 00 10 01  .....f..........
0960: 74 6C 6B 30 2B DA 00 10  01 40 80 23 03 00 17 1F  tlk0+....@.#....
0970: 80 27 10 DA 00 10 01 3D  2B DA 00 10 01 41 80 23  .'.....=+....A.#
0980: 2A 10 DA 00 10 01 81 00  F8 FF FF 7F 03 00 17 1D  *...............
0990: 80 27 10 DA 00 10 01 39  03 02 10 42 80 2B DA 00  .'.....9...B.+..
09A0: 10 01 43 80 23 2A 10 DA  00 10 01 81 01 F8 FF FF  ..C.#*..........
09B0: 7F 66 2B 80 DA 00 10 01  DA 00 10 01 65 68 6E 30  .f+.........ehn0
09C0: 2B DA 00 10 01 44 80 23  52 12 80 F8 FF FF 7F F8  +....D.#R.......
09D0: FF FF 7F 73 30 31 33 45  12 80 F8 FF FF 7F F8 FF  ...s013E........
09E0: FF 7F 73 30 31 34 01 80  4A F0 FF FF 7F DB 00 10  ..s014..J.......
09F0: 01 03 00 17 1D 80 27 10  DB 00 10 01 2A 2B DB 00  ......'.....*+..
0A00: 10 01 45 80 23 2A 10 DB  00 10 01 52 12 80 F8 FF  ..E.#*.....R....
0A10: FF 7F F8 FF FF 7F 73 30  31 34 45 12 80 F8 FF FF  ......s014E.....
0A20: 7F F8 FF FF 7F 73 30 32  34 01 80 7B DB 00 10 01  .....s024..{....
0A30: 66 46 80 DB 00 10 01 DB  00 10 01 74 6C 6B 30 2B  fF.........tlk0+
0A40: DB 00 10 01 47 80 23 1C  0A 80 66 46 80 DB 00 10  ....G.#...fF....
0A50: 01 DB 00 10 01 74 6C 6B  31 5B 3C 80 DB 00 10 01  .....tlk1[<.....
0A60: DB 00 10 01 62 6F 62 30  79 00 DB 00 10 01 F8 FF  ....bob0y.......
0A70: FF 7F 1C 0A 80 BB 48 80  F8 FF FF 7F F8 FF FF 7F  ......H.........
0A80: 6D 61 69 6E 01 80 1C 49  80 5B 3C 80 DB 00 10 01  main...I.[<.....
0A90: DB 00 10 01 62 6F 62 31  BC 48 80 F8 FF FF 7F F8  ....bob1.H......
0AA0: FF FF 7F 6D 61 69 6E 5B  4A 80 DB 00 10 01 DB 00  ...main[J.......
0AB0: 10 01 77 38 31 30 1C 0A  80 52 12 80 F8 FF FF 7F  ..w810...R......
0AC0: F8 FF FF 7F 73 30 32 34  45 12 80 F8 FF FF 7F F8  ....s024E.......
0AD0: FF FF 7F 73 30 32 39 01  80 79 00 DB 00 10 01 F0  ...s029..y......
0AE0: FF FF 7F 1C 0A 80 66 1A  80 DB 00 10 01 DB 00 10  ......f.........
0AF0: 01 74 6C 6B 30 03 01 00  4B 80 03 03 00 0A 80 03  .tlk0...K.......
0B00: 02 00 29 80 03 04 00 01  80 03 05 00 4C 80 03 07  ..).........L...
0B10: 00 42 80 1A 7C 34 03 02  10 07 00 03 08 10 01 00  .B..|4..........
0B20: 03 03 10 41 10 03 04 10  42 10 03 05 10 43 10 03  ...A....B....C..
0B30: 06 10 44 10 03 07 10 55  10 02 07 10 01 80 00 48  ..D....U.......H
0B40: 0B 48 4D 80 23 01 4C 0B  48 4E 80 23 03 02 10 45  .HM.#.L.HN.#...E
0B50: 10 03 03 10 46 10 03 04  10 47 10 03 05 10 48 10  ....F....G....H.
0B60: 03 06 10 4D 10 03 07 10  4E 10 03 08 10 4F 10 03  ...M....N....O..
0B70: 09 10 50 10 02 07 10 01  80 00 83 0B 48 4F 80 23  ..P.........HO.#
0B80: 01 09 0C 02 08 10 01 80  00 92 0B 48 50 80 23 01  ...........HP.#.
0B90: 09 0C 02 09 10 01 80 00  A1 0B 48 51 80 23 01 09  ..........HQ.#..
0BA0: 0C 48 52 80 23 03 02 10  49 10 03 03 10 4A 10 03  .HR.#...I....J..
0BB0: 04 10 4B 10 03 05 10 4C  10 03 06 10 51 10 03 07  ..K....L....Q...
0BC0: 10 52 10 03 08 10 53 10  03 09 10 54 10 02 06 10  .R....S....T....
0BD0: 01 80 00 D8 0B 01 09 0C  02 07 10 01 80 00 E7 0B  ................
0BE0: 48 4F 80 23 01 09 0C 02  08 10 01 80 00 F6 0B 48  HO.#...........H
0BF0: 50 80 23 01 09 0C 02 09  10 01 80 00 05 0C 48 51  P.#...........HQ
0C00: 80 23 01 09 0C 48 52 80  23 03 02 10 53 80 03 06  .#...HR.#...S...
0C10: 10 26 80 48 4F 80 23 66  1A 80 DB 00 10 01 DB 00  .&.HO.#f........
0C20: 10 01 74 6C 6B 31 52 12  80 F8 FF FF 7F F8 FF FF  ..tlk1R.........
0C30: 7F 73 30 32 39 45 12 80  F8 FF FF 7F F8 FF FF 7F  .s029E..........
0C40: 73 30 32 34 01 80 5B 3C  80 DA 00 10 01 DA 00 10  s024..[<........
0C50: 01 6B 62 6B 31 03 00 17  1F 80 27 10 DA 00 10 01  .kbk1.....'.....
0C60: 3C 79 00 DB 00 10 01 DA  00 10 01 2B DA 00 10 01  <y.........+....
0C70: 54 80 23 2A 10 DA 00 10  01 52 12 80 F8 FF FF 7F  T.#*.....R......
0C80: F8 FF FF 7F 73 30 32 34  45 12 80 F8 FF FF 7F F8  ....s024E.......
0C90: FF FF 7F 73 30 31 34 01  80 03 00 17 1F 80 27 10  ...s014.......'.
0CA0: DB 00 10 01 2C 2B DB 00  10 01 55 80 23 2A 10 DB  ....,+....U.#*..
0CB0: 00 10 01 52 12 80 F8 FF  FF 7F F8 FF FF 7F 73 30  ...R..........s0
0CC0: 31 34 45 12 80 F8 FF FF  7F F8 FF FF 7F 73 30 35  14E..........s05
0CD0: 30 01 80 27 10 DA 00 10  01 0C 2A 10 DA 00 10 01  0..'......*.....
0CE0: 03 00 17 2F 80 27 10 DA  00 10 01 3E 2B DA 00 10  .../.'.....>+...
0CF0: 01 56 80 23 2A 10 DA 00  10 01 66 14 80 DA 00 10  .V.#*.....f.....
0D00: 01 DA 00 10 01 67 6B 72  31 7B DA 00 10 01 1C 1D  .....gkr1{......
0D10: 80 66 57 80 DA 00 10 01  DA 00 10 01 70 6F 73 30  .fW.........pos0
0D20: 52 12 80 F8 FF FF 7F F8  FF FF 7F 73 30 35 30 81  R..........s050.
0D30: 00 DA 00 10 01 45 12 80  F8 FF FF 7F F8 FF FF 7F  .....E..........
0D40: 73 30 32 36 01 80 2B DA  00 10 01 58 80 23 45 00  s026..+....X.#E.
0D50: 80 F0 FF FF 7F F0 FF FF  7F 66 64 6F 31 01 80 55  .........fdo1..U
0D60: 00 80 F0 FF FF 7F F0 FF  FF 7F 66 64 6F 31 52 12  ..........fdo1R.
0D70: 80 F8 FF FF 7F F8 FF FF  7F 73 30 32 36 45 12 80  .........s026E..
0D80: F8 FF FF 7F F8 FF FF 7F  62 6F 66 66 01 80 46 00  ........boff..F.
0D90: 45 00 80 F0 FF FF 7F F0  FF FF 7F 66 64 69 32 01  E..........fdi2.
0DA0: 80 21 00 59 80 5A 80 5B  80 5C 80 5D 80 5E 80 5F  .!.Y.Z.[.\.].^._
0DB0: 80 60 80                                          .`.             
```

#### Opcodes

```
  0: 0x0001 [0x42] SET_CLI_EVENT_CANCEL_DATA()
  1: 0x0002 [0x45] LOAD_SCHEDULED_TASK: Load scheduler "fdo1" with entities [LocalPlayer, LocalPlayer], work=[200*, 0*]
  2: 0x0013 [0x55] WAIT_LOAD_SCHEDULER: Wait for scheduler "fdo1" with entities [LocalPlayer, LocalPlayer], work=200*
  3: 0x0022 [0x46] CAMERA_CONTROL: Disable user control
  4: 0x0024 [0x38] SET_CLIENT_EVENT_MODE(mode=19*)
  5: 0x0027 [0x2F] Tuffle-Buffle (ID: 17826010/0x011000DA)->Render.Flags0 &= ~0x80000 // Bit 19
  6: 0x002D [0x4E] SET_ENTITY_HIDE_FLAG: Show Tuffle-Buffle (ID: 17826010/0x011000DA)
  7: 0x0033 [0x94] Tuffle-Buffle (ID: 17826010/0x011000DA)->Render.Flags3 ^= 0x01
  8: 0x0039 [0xBA] SET_ENTITY_POSITION(entity_id=Tuffle-Buffle (ID: 17826010/0x011000DA), pos_x=94.927*, pos_z=-121.028*, pos_y=2.179*, direction=185.2°*)
  9: 0x0046 [0x2F] Musto-Rusto (ID: 17826011/0x011000DB)->Render.Flags0 &= ~0x80000 // Bit 19
 10: 0x004C [0x4E] SET_ENTITY_HIDE_FLAG: Show Musto-Rusto (ID: 17826011/0x011000DB)
 11: 0x0052 [0x94] Musto-Rusto (ID: 17826011/0x011000DB)->Render.Flags3 ^= 0x01
 12: 0x0058 [0xBA] SET_ENTITY_POSITION(entity_id=Musto-Rusto (ID: 17826011/0x011000DB), pos_x=94.342*, pos_z=-122.127*, pos_y=2.179*, direction=260.1°*)
 13: 0x0065 [0x80] LOAD_WAIT(entity=Tuffle-Buffle (ID: 17826010/0x011000DA))
 14: 0x006A [0x80] LOAD_WAIT(entity=Musto-Rusto (ID: 17826011/0x011000DB))
 15: 0x006F [0x1C] WAIT(30* ticks)
 16: 0x0072 [0x66] LOAD_EXT_SCHEDULER_MAIN: Load scheduler "orz0" with entities [Tuffle-Buffle (ID: 17826010/0x011000DA), Tuffle-Buffle (ID: 17826010/0x011000DA)], work=180*
 17: 0x0081 [0x53] WAIT_SCHEDULER_TASK: Wait for scheduler "orz0" with entities [Tuffle-Buffle (ID: 17826010/0x011000DA), Tuffle-Buffle (ID: 17826010/0x011000DA)]
 18: 0x008E [0x94] LocalPlayer->Render.Flags3 ^= 0x01
 19: 0x0094 [0xBA] SET_ENTITY_POSITION(entity_id=LocalPlayer, pos_x=95.800*, pos_z=-114.330*, pos_y=4.000*, direction=112.5°*)
 20: 0x00A1 [0x37] UPDATE_EVENT_POSITION_AND_DIR: x=94.412*, z=-122.506*, y=2.179*, direction=260.1°*
 21: 0x00AA [0x1C] WAIT(30* ticks)
 22: 0x00AD [0x45] LOAD_SCHEDULED_TASK: Load scheduler "s012" with entities [EventEntity, EventEntity], work=[635*, 0*]
 23: 0x00BE [0x45] LOAD_SCHEDULED_TASK: Load scheduler "fdi1" with entities [LocalPlayer, LocalPlayer], work=[200*, 0*]
 24: 0x00CF [0x2B] Tuffle-Buffle (ID: 17826010/0x011000DA) [10155*]:
    → "I could really go for some sweetaru trail cookies right now. But the good-for-nothing manager never pays us on time!"
 25: 0x00D6 [0x23] WAIT_FOR_DIALOG_INTERACTION
 26: 0x00D7 [0x52] END_LOAD_SCHEDULER: End scheduler "s012" with entities [EventEntity, EventEntity], work=635*
 27: 0x00E6 [0x45] LOAD_SCHEDULED_TASK: Load scheduler "s014" with entities [EventEntity, EventEntity], work=[635*, 0*]
 28: 0x00F7 [0x79] Musto-Rusto (ID: 17826011/0x011000DB) looks at Tuffle-Buffle (ID: 17826010/0x011000DA) (Basic look)
 29: 0x0101 [0x66] LOAD_EXT_SCHEDULER_MAIN: Load scheduler "tlk0" with entities [Musto-Rusto (ID: 17826011/0x011000DB), Musto-Rusto (ID: 17826011/0x011000DB)], work=40*
 30: 0x0110 [0x2B] Musto-Rusto (ID: 17826011/0x011000DB) [10156*]:
    → "I understand why--we're just rookies-wookies."
 31: 0x0117 [0x23] WAIT_FOR_DIALOG_INTERACTION
 32: 0x0118 [0x66] LOAD_EXT_SCHEDULER_MAIN: Load scheduler "tlk1" with entities [Musto-Rusto (ID: 17826011/0x011000DB), Musto-Rusto (ID: 17826011/0x011000DB)], work=40*
 33: 0x0127 [0x52] END_LOAD_SCHEDULER: End scheduler "s014" with entities [EventEntity, EventEntity], work=635*
 34: 0x0136 [0x45] LOAD_SCHEDULED_TASK: Load scheduler "s013" with entities [EventEntity, EventEntity], work=[635*, 0*]
 35: 0x0147 [0x5B] LOAD_EXT_SCHEDULER: Load scheduler "hiz1" with entities [Tuffle-Buffle (ID: 17826010/0x011000DA), Tuffle-Buffle (ID: 17826010/0x011000DA)], work=2052*
 36: 0x0156 [0x1C] WAIT(50* ticks)
 37: 0x0159 [0x79] Tuffle-Buffle (ID: 17826010/0x011000DA) looks at Musto-Rusto (ID: 17826011/0x011000DB) (Basic look)
 38: 0x0163 [0x1C] WAIT(30* ticks)
 39: 0x0166 [0x03] Work_Zone_1700[0] = 210*
 40: 0x016B [0x27] REQ_SET(priority=0x10, entity_id=Tuffle-Buffle (ID: 17826010/0x011000DA), tag_num=0x38)
 41: 0x0172 [0x2B] Tuffle-Buffle (ID: 17826010/0x011000DA) [10157*]:
    → "B-but...my tummy-wummy... You think we could find work as gourmet journalistarus?"
 42: 0x0179 [0x23] WAIT_FOR_DIALOG_INTERACTION
 43: 0x017A [0x2A] GET_REQ_LEVEL(level=16, entity_id=Tuffle-Buffle (ID: 17826010/0x011000DA))
 44: 0x0180 [0x66] LOAD_EXT_SCHEDULER_MAIN: Load scheduler "tlk0" with entities [Tuffle-Buffle (ID: 17826010/0x011000DA), Tuffle-Buffle (ID: 17826010/0x011000DA)], work=49*
 45: 0x018F [0x2B] Tuffle-Buffle (ID: 17826010/0x011000DA) [10158*]:
    → "Comedic talentaru like us have to be well-rounded, after all!"
 46: 0x0196 [0x23] WAIT_FOR_DIALOG_INTERACTION
 47: 0x0197 [0x66] LOAD_EXT_SCHEDULER_MAIN: Load scheduler "tlk1" with entities [Tuffle-Buffle (ID: 17826010/0x011000DA), Tuffle-Buffle (ID: 17826010/0x011000DA)], work=49*
 48: 0x01A6 [0x52] END_LOAD_SCHEDULER: End scheduler "s013" with entities [EventEntity, EventEntity], work=635*
 49: 0x01B5 [0x45] LOAD_SCHEDULED_TASK: Load scheduler "s014" with entities [EventEntity, EventEntity], work=[635*, 0*]
 50: 0x01C6 [0x66] LOAD_EXT_SCHEDULER_MAIN: Load scheduler "tlk0" with entities [Musto-Rusto (ID: 17826011/0x011000DB), Musto-Rusto (ID: 17826011/0x011000DB)], work=40*
 51: 0x01D5 [0x2B] Musto-Rusto (ID: 17826011/0x011000DB) [10159*]:
    → "Come on, the juicy-wuiciest work is reserved for performers who've been at it for years and years."
 52: 0x01DC [0x23] WAIT_FOR_DIALOG_INTERACTION
 53: 0x01DD [0x66] LOAD_EXT_SCHEDULER_MAIN: Load scheduler "tlk1" with entities [Musto-Rusto (ID: 17826011/0x011000DB), Musto-Rusto (ID: 17826011/0x011000DB)], work=40*
 54: 0x01EC [0x52] END_LOAD_SCHEDULER: End scheduler "s014" with entities [EventEntity, EventEntity], work=635*
 55: 0x01FB [0x45] LOAD_SCHEDULED_TASK: Load scheduler "s013" with entities [EventEntity, EventEntity], work=[635*, 0*]
 56: 0x020C [0x53] WAIT_SCHEDULER_TASK: Wait for scheduler "nmi0" with entities [Tuffle-Buffle (ID: 17826010/0x011000DA), Tuffle-Buffle (ID: 17826010/0x011000DA)]
 57: 0x0219 [0x81] SET_ENTITY_BLINKING(blink_flag=0x00, entity=EventEntity)
 58: 0x021F [0x03] Work_Zone_1700[0] = 60*
 59: 0x0224 [0x27] REQ_SET(priority=0x10, entity_id=Tuffle-Buffle (ID: 17826010/0x011000DA), tag_num=0x39)
 60: 0x022B [0x2B] Tuffle-Buffle (ID: 17826010/0x011000DA) [10160*]:
    → "My heady-wead hurts...couldn't they at least let us practice?"
 61: 0x0232 [0x23] WAIT_FOR_DIALOG_INTERACTION
 62: 0x0233 [0x2A] GET_REQ_LEVEL(level=16, entity_id=Tuffle-Buffle (ID: 17826010/0x011000DA))
 63: 0x0239 [0x81] SET_ENTITY_BLINKING(blink_flag=0x01, entity=EventEntity)
 64: 0x023F [0x66] LOAD_EXT_SCHEDULER_MAIN: Load scheduler "thk2" with entities [Tuffle-Buffle (ID: 17826010/0x011000DA), Tuffle-Buffle (ID: 17826010/0x011000DA)], work=49*
 65: 0x024E [0x1C] WAIT(30* ticks)
 66: 0x0251 [0x27] REQ_SET(priority=0x10, entity_id=LocalPlayer, tag_num=0x38)
 67: 0x0258 [0x59] UPDATE_ENTITY_DATA: Set Tuffle-Buffle (ID: 17826010/0x011000DA) turn speed = 50*
 68: 0x0260 [0x27] REQ_SET(priority=0x10, entity_id=Tuffle-Buffle (ID: 17826010/0x011000DA), tag_num=0x09)
 69: 0x0267 [0x4A] Musto-Rusto (ID: 17826011/0x011000DB) looks at LocalPlayer
 70: 0x0270 [0x1C] WAIT(120* ticks)
 71: 0x0273 [0x52] END_LOAD_SCHEDULER: End scheduler "s013" with entities [EventEntity, EventEntity], work=635*
 72: 0x0282 [0x45] LOAD_SCHEDULED_TASK: Load scheduler "s015" with entities [EventEntity, EventEntity], work=[635*, 0*]
 73: 0x0293 [0x4A] Tuffle-Buffle (ID: 17826010/0x011000DA) looks at LocalPlayer
 74: 0x029C [0x27] REQ_SET(priority=0x10, entity_id=Tuffle-Buffle (ID: 17826010/0x011000DA), tag_num=0x08)
 75: 0x02A3 [0x27] REQ_SET(priority=0x10, entity_id=Musto-Rusto (ID: 17826011/0x011000DB), tag_num=0x08)
 76: 0x02AA [0x1C] WAIT(180* ticks)
 77: 0x02AD [0x52] END_LOAD_SCHEDULER: End scheduler "s015" with entities [EventEntity, EventEntity], work=635*
 78: 0x02BC [0x45] LOAD_SCHEDULED_TASK: Load scheduler "s016" with entities [EventEntity, EventEntity], work=[635*, 0*]
 79: 0x02CD [0x1C] WAIT(60* ticks)
 80: 0x02D0 [0x29] REQ_SET_WAIT(priority=0x10, entity_id=LocalPlayer, tag_num=0x02)
 81: 0x02D7 [0x0C] Work_Zone[2]--
 82: 0x02DA [0x9D] Work_Zone[2] = 0x0DA3[Work_Zone[2]] // Read WORD
 83: 0x02E2 [0x5B] LOAD_EXT_SCHEDULER: Load scheduler "ygo0" with entities [Tuffle-Buffle (ID: 17826010/0x011000DA), Tuffle-Buffle (ID: 17826010/0x011000DA)], work=2049*
 84: 0x02F1 [0x1C] WAIT(30* ticks)
 85: 0x02F4 [0xAD] DUAL_ENTITY_SCHEDULER_HANDLER: Execute sub-case 4 with entities [Tuffle-Buffle (ID: 17826010/0x011000DA), Tuffle-Buffle (ID: 17826010/0x011000DA)], work=250*
 86: 0x0300 [0x93] DISPLAY_ITEM_INFO(item_id=Work_Zone[2])
 87: 0x0303 [0x2B] Tuffle-Buffle (ID: 17826010/0x011000DA) [10161*]:
    → "This is perfectaru! We'll get that $0-headed [guy/girl] to help us out!"
 88: 0x030A [0x23] WAIT_FOR_DIALOG_INTERACTION
 89: 0x030B [0x93] DISPLAY_ITEM_INFO(item_id=0*)
 90: 0x030E [0x1C] WAIT(60* ticks)
 91: 0x0311 [0x52] END_LOAD_SCHEDULER: End scheduler "s016" with entities [EventEntity, EventEntity], work=635*
 92: 0x0320 [0x45] LOAD_SCHEDULED_TASK: Load scheduler "s017" with entities [EventEntity, EventEntity], work=[635*, 0*]
 93: 0x0331 [0x66] LOAD_EXT_SCHEDULER_MAIN: Load scheduler "tlk0" with entities [Tuffle-Buffle (ID: 17826010/0x011000DA), Tuffle-Buffle (ID: 17826010/0x011000DA)], work=40*
 94: 0x0340 [0x79] Musto-Rusto (ID: 17826011/0x011000DB) looks at Tuffle-Buffle (ID: 17826010/0x011000DA) (Basic look)
 95: 0x034A [0x2B] Tuffle-Buffle (ID: 17826010/0x011000DA) [10162*]:
    → "Um, excuse me, [sir/ma'am]? We're a really famous comedic duo...I think. I betaru you want our autographs, right?"
 96: 0x0351 [0x23] WAIT_FOR_DIALOG_INTERACTION
 97: 0x0352 [0x66] LOAD_EXT_SCHEDULER_MAIN: Load scheduler "tlk1" with entities [Tuffle-Buffle (ID: 17826010/0x011000DA), Tuffle-Buffle (ID: 17826010/0x011000DA)], work=40*
 98: 0x0361 [0x52] END_LOAD_SCHEDULER: End scheduler "s017" with entities [EventEntity, EventEntity], work=635*
 99: 0x0370 [0x45] LOAD_SCHEDULED_TASK: Load scheduler "s018" with entities [EventEntity, EventEntity], work=[635*, 0*]
100: 0x0381 [0x1C] WAIT(30* ticks)
101: 0x0384 [0x4A] LocalPlayer looks at Tuffle-Buffle (ID: 17826010/0x011000DA)
102: 0x038D [0x6F] WAIT_FRAME_DELAY: Yield until WaitTime reaches zero
103: 0x038E [0x76] CHECK_ENTITY_RENDER_FLAGS: Wait until LocalPlayer Render.Flags0 and Render.Flags3 conditions are met
104: 0x0393 [0x24] CREATE_DIALOG(message_id=10163*, default_option=0*, option_flags=0*)
    → "Ask them to sign something? [Wonderful idea!/Not on your life./Wait...are you Tarutaru Sauce?]"
105: 0x039A [0x25] WAIT_DIALOG_SELECT()
106: 0x039B [0x02] IF !(Work_Zone[0] == 0*) GOTO 0x03EF
107: 0x03A3 [0x52] END_LOAD_SCHEDULER: End scheduler "s018" with entities [EventEntity, EventEntity], work=635*
108: 0x03B2 [0x45] LOAD_SCHEDULED_TASK: Load scheduler "s017" with entities [EventEntity, EventEntity], work=[635*, 0*]
109: 0x03C3 [0x03] Work_Zone_1700[0] = 60*
110: 0x03C8 [0x27] REQ_SET(priority=0x10, entity_id=Tuffle-Buffle (ID: 17826010/0x011000DA), tag_num=0x3B)
111: 0x03CF [0x2B] Tuffle-Buffle (ID: 17826010/0x011000DA) [10164*]:
    → "Why, of course you do! They're gonna be worth, like, a million-willion gil!"
112: 0x03D6 [0x23] WAIT_FOR_DIALOG_INTERACTION
113: 0x03D7 [0x2A] GET_REQ_LEVEL(level=16, entity_id=Tuffle-Buffle (ID: 17826010/0x011000DA))
114: 0x03DD [0x52] END_LOAD_SCHEDULER: End scheduler "s017" with entities [EventEntity, EventEntity], work=635*
115: 0x03EC [0x01] GOTO 0x05D3
116: 0x03EF [0x02] IF !(Work_Zone[0] == 1*) GOTO 0x048F
117: 0x03F7 [0x1C] WAIT(15* ticks)
118: 0x03FA [0x52] END_LOAD_SCHEDULER: End scheduler "s018" with entities [EventEntity, EventEntity], work=635*
119: 0x0409 [0x45] LOAD_SCHEDULED_TASK: Load scheduler "s017" with entities [EventEntity, EventEntity], work=[635*, 0*]
120: 0x041A [0x27] REQ_SET(priority=0x10, entity_id=Tuffle-Buffle (ID: 17826010/0x011000DA), tag_num=0x0C)
121: 0x0421 [0x2A] GET_REQ_LEVEL(level=16, entity_id=Tuffle-Buffle (ID: 17826010/0x011000DA))
122: 0x0427 [0x66] LOAD_EXT_SCHEDULER_MAIN: Load scheduler "gkr0" with entities [Tuffle-Buffle (ID: 17826010/0x011000DA), Tuffle-Buffle (ID: 17826010/0x011000DA)], work=40*
123: 0x0436 [0x53] WAIT_SCHEDULER_TASK: Wait for scheduler "gkr0" with entities [Tuffle-Buffle (ID: 17826010/0x011000DA), Tuffle-Buffle (ID: 17826010/0x011000DA)]
124: 0x0443 [0x66] LOAD_EXT_SCHEDULER_MAIN: Load scheduler "tlk0" with entities [Tuffle-Buffle (ID: 17826010/0x011000DA), Tuffle-Buffle (ID: 17826010/0x011000DA)], work=40*
125: 0x0452 [0x2B] Tuffle-Buffle (ID: 17826010/0x011000DA) [10166*]:
    → "Speak up, now. I couldn't quite hear you."
126: 0x0459 [0x23] WAIT_FOR_DIALOG_INTERACTION
127: 0x045A [0x66] LOAD_EXT_SCHEDULER_MAIN: Load scheduler "tlk1" with entities [Tuffle-Buffle (ID: 17826010/0x011000DA), Tuffle-Buffle (ID: 17826010/0x011000DA)], work=40*
128: 0x0469 [0x52] END_LOAD_SCHEDULER: End scheduler "s017" with entities [EventEntity, EventEntity], work=635*
129: 0x0478 [0x45] LOAD_SCHEDULED_TASK: Load scheduler "s018" with entities [EventEntity, EventEntity], work=[635*, 0*]
130: 0x0489 [0x01] GOTO 0x0393

SUBROUTINE_05D3:
131: 0x05D3 [0x45] LOAD_SCHEDULED_TASK: Load scheduler "s051" with entities [EventEntity, EventEntity], work=[635*, 0*]
132: 0x05E4 [0x27] REQ_SET(priority=0x10, entity_id=Tuffle-Buffle (ID: 17826010/0x011000DA), tag_num=0x08)
133: 0x05EB [0x79] Tuffle-Buffle (ID: 17826010/0x011000DA) looks at LocalPlayer (Basic look)
134: 0x05F5 [0x81] SET_ENTITY_BLINKING(blink_flag=0x00, entity=EventEntity)
135: 0x05FB [0x03] Work_Zone_1700[0] = 60*
136: 0x0600 [0x27] REQ_SET(priority=0x10, entity_id=Tuffle-Buffle (ID: 17826010/0x011000DA), tag_num=0x39)
137: 0x0607 [0x2B] Tuffle-Buffle (ID: 17826010/0x011000DA) [10171*]:
    → "Oh deary-wear. I left my pen and paper in my other pocketaru. What to do, what to do..."
138: 0x060E [0x23] WAIT_FOR_DIALOG_INTERACTION
139: 0x060F [0x2A] GET_REQ_LEVEL(level=16, entity_id=Tuffle-Buffle (ID: 17826010/0x011000DA))
140: 0x0615 [0x81] SET_ENTITY_BLINKING(blink_flag=0x01, entity=EventEntity)
141: 0x061B [0x66] LOAD_EXT_SCHEDULER_MAIN: Load scheduler "thk2" with entities [Tuffle-Buffle (ID: 17826010/0x011000DA), Tuffle-Buffle (ID: 17826010/0x011000DA)], work=40*
142: 0x062A [0x66] LOAD_EXT_SCHEDULER_MAIN: Load scheduler "tlk0" with entities [Tuffle-Buffle (ID: 17826010/0x011000DA), Tuffle-Buffle (ID: 17826010/0x011000DA)], work=40*
143: 0x0639 [0x2B] Tuffle-Buffle (ID: 17826010/0x011000DA) [10172*]:
    → "Our fans adore us so much that we always try to keep something on us to autograph, but we're so popular that we ran outaru!"
144: 0x0640 [0x23] WAIT_FOR_DIALOG_INTERACTION
145: 0x0641 [0x66] LOAD_EXT_SCHEDULER_MAIN: Load scheduler "tlk1" with entities [Tuffle-Buffle (ID: 17826010/0x011000DA), Tuffle-Buffle (ID: 17826010/0x011000DA)], work=40*
146: 0x0650 [0x52] END_LOAD_SCHEDULER: End scheduler "s051" with entities [EventEntity, EventEntity], work=635*
147: 0x065F [0x02] IF !(Work_Zone[0] == 2*) GOTO 0x06B6
148: 0x0667 [0x45] LOAD_SCHEDULED_TASK: Load scheduler "s014" with entities [EventEntity, EventEntity], work=[635*, 0*]
149: 0x0678 [0x7C] Musto-Rusto (ID: 17826011/0x011000DB)->Render.Flags2 |= 0x00
150: 0x067E [0x03] Work_Zone_1700[0] = 60*
151: 0x0683 [0x27] REQ_SET(priority=0x10, entity_id=Musto-Rusto (ID: 17826011/0x011000DB), tag_num=0x29)
152: 0x068A [0x2B] Musto-Rusto (ID: 17826011/0x011000DB) [10173*]:
    → "(I toldy-wold you, we've never done this before!)"
153: 0x0691 [0x23] WAIT_FOR_DIALOG_INTERACTION
154: 0x0692 [0x2A] GET_REQ_LEVEL(level=16, entity_id=Musto-Rusto (ID: 17826011/0x011000DB))
155: 0x0698 [0x66] LOAD_EXT_SCHEDULER_MAIN: Load scheduler "bik1" with entities [Musto-Rusto (ID: 17826011/0x011000DB), Musto-Rusto (ID: 17826011/0x011000DB)], work=42*
156: 0x06A7 [0x52] END_LOAD_SCHEDULER: End scheduler "s014" with entities [EventEntity, EventEntity], work=635*
157: 0x06B6 [0x45] LOAD_SCHEDULED_TASK: Load scheduler "s019" with entities [EventEntity, EventEntity], work=[635*, 0*]
158: 0x06C7 [0x66] LOAD_EXT_SCHEDULER_MAIN: Load scheduler "tlk0" with entities [Tuffle-Buffle (ID: 17826010/0x011000DA), Tuffle-Buffle (ID: 17826010/0x011000DA)], work=40*
159: 0x06D6 [0x2B] Tuffle-Buffle (ID: 17826010/0x011000DA) [10174*]:
    → "That's why we gotta make money! So we can buy pens and paper!"
160: 0x06DD [0x23] WAIT_FOR_DIALOG_INTERACTION
161: 0x06DE [0x52] END_LOAD_SCHEDULER: End scheduler "s019" with entities [EventEntity, EventEntity], work=635*
162: 0x06ED [0x45] LOAD_SCHEDULED_TASK: Load scheduler "s020" with entities [EventEntity, EventEntity], work=[635*, 0*]
163: 0x06FE [0x66] LOAD_EXT_SCHEDULER_MAIN: Load scheduler "tlk0" with entities [Tuffle-Buffle (ID: 17826010/0x011000DA), Tuffle-Buffle (ID: 17826010/0x011000DA)], work=40*
164: 0x070D [0x2B] Tuffle-Buffle (ID: 17826010/0x011000DA) [10175*]:
    → "Ok, listen. Our plan is to reportaru on the greatest foodstuffs of Adoulin...but without practice, no one will hire us!"
165: 0x0714 [0x23] WAIT_FOR_DIALOG_INTERACTION
166: 0x0715 [0x52] END_LOAD_SCHEDULER: End scheduler "s020" with entities [EventEntity, EventEntity], work=635*
167: 0x0724 [0x45] LOAD_SCHEDULED_TASK: Load scheduler "s052" with entities [EventEntity, EventEntity], work=[635*, 0*]
168: 0x0735 [0x66] LOAD_EXT_SCHEDULER_MAIN: Load scheduler "tlk0" with entities [Tuffle-Buffle (ID: 17826010/0x011000DA), Tuffle-Buffle (ID: 17826010/0x011000DA)], work=40*
169: 0x0744 [0x2B] Tuffle-Buffle (ID: 17826010/0x011000DA) [10176*]:
    → "So I command you! Find me some scrumptious-wumptious ingredients. Then we can talk about that autograph."
170: 0x074B [0x23] WAIT_FOR_DIALOG_INTERACTION
171: 0x074C [0x66] LOAD_EXT_SCHEDULER_MAIN: Load scheduler "tlk1" with entities [Tuffle-Buffle (ID: 17826010/0x011000DA), Tuffle-Buffle (ID: 17826010/0x011000DA)], work=40*
172: 0x075B [0x52] END_LOAD_SCHEDULER: End scheduler "s052" with entities [EventEntity, EventEntity], work=635*
173: 0x076A [0x45] LOAD_SCHEDULED_TASK: Load scheduler "s024" with entities [EventEntity, EventEntity], work=[635*, 0*]
174: 0x077B [0x03] Work_Zone_1700[0] = 60*
175: 0x0780 [0x27] REQ_SET(priority=0x10, entity_id=Musto-Rusto (ID: 17826011/0x011000DB), tag_num=0x2A)
176: 0x0787 [0x2B] Musto-Rusto (ID: 17826011/0x011000DB) [10177*]:
    → "(W-wasn't that a bit forceful?)"
177: 0x078E [0x23] WAIT_FOR_DIALOG_INTERACTION
178: 0x078F [0x2A] GET_REQ_LEVEL(level=16, entity_id=Musto-Rusto (ID: 17826011/0x011000DB))
179: 0x0795 [0x03] Work_Zone_1700[0] = 60*
180: 0x079A [0x27] REQ_SET(priority=0x10, entity_id=Musto-Rusto (ID: 17826011/0x011000DB), tag_num=0x2B)
181: 0x07A1 [0x2B] Musto-Rusto (ID: 17826011/0x011000DB) [10178*]:
    → "(They say the way to a Tarutaru's heartaru is through his stomach. Still, it's astounding how eloquentaru you become when food's involved, Tuffle-Buffle...)"
182: 0x07A8 [0x23] WAIT_FOR_DIALOG_INTERACTION
183: 0x07A9 [0x2A] GET_REQ_LEVEL(level=16, entity_id=Musto-Rusto (ID: 17826011/0x011000DB))
184: 0x07AF [0x7C] Musto-Rusto (ID: 17826011/0x011000DB)->Render.Flags2 |= 0x01
185: 0x07B5 [0x52] END_LOAD_SCHEDULER: End scheduler "s024" with entities [EventEntity, EventEntity], work=635*
186: 0x07C4 [0x45] LOAD_SCHEDULED_TASK: Load scheduler "s014" with entities [EventEntity, EventEntity], work=[635*, 0*]
187: 0x07D5 [0x66] LOAD_EXT_SCHEDULER_MAIN: Load scheduler "tlk0" with entities [Musto-Rusto (ID: 17826011/0x011000DB), Musto-Rusto (ID: 17826011/0x011000DB)], work=40*
188: 0x07E4 [0x2B] Musto-Rusto (ID: 17826011/0x011000DB) [10179*]:
    → "But even with ingredientarus, who will cook up these delightful meals for us?"
189: 0x07EB [0x23] WAIT_FOR_DIALOG_INTERACTION
190: 0x07EC [0x66] LOAD_EXT_SCHEDULER_MAIN: Load scheduler "tlk1" with entities [Musto-Rusto (ID: 17826011/0x011000DB), Musto-Rusto (ID: 17826011/0x011000DB)], work=40*
191: 0x07FB [0x52] END_LOAD_SCHEDULER: End scheduler "s014" with entities [EventEntity, EventEntity], work=635*
192: 0x080A [0x45] LOAD_SCHEDULED_TASK: Load scheduler "s013" with entities [EventEntity, EventEntity], work=[635*, 0*]
193: 0x081B [0x66] LOAD_EXT_SCHEDULER_MAIN: Load scheduler "ehn0" with entities [Tuffle-Buffle (ID: 17826010/0x011000DA), Tuffle-Buffle (ID: 17826010/0x011000DA)], work=41*
194: 0x082A [0x2B] Tuffle-Buffle (ID: 17826010/0x011000DA) [10180*]:
    → "Hahaha..."
195: 0x0831 [0x23] WAIT_FOR_DIALOG_INTERACTION
196: 0x0832 [0x52] END_LOAD_SCHEDULER: End scheduler "s013" with entities [EventEntity, EventEntity], work=635*
197: 0x0841 [0xA4] EventEntity->Flags3.unknown_3_2 = 1
198: 0x0843 [0x45] LOAD_SCHEDULED_TASK: Load scheduler "s021" with entities [EventEntity, EventEntity], work=[635*, 0*]
199: 0x0854 [0x1C] WAIT(60* ticks)
200: 0x0857 [0x52] END_LOAD_SCHEDULER: End scheduler "s021" with entities [EventEntity, EventEntity], work=635*
201: 0x0866 [0x45] LOAD_SCHEDULED_TASK: Load scheduler "s022" with entities [EventEntity, EventEntity], work=[635*, 0*]
202: 0x0877 [0x1C] WAIT(60* ticks)
203: 0x087A [0x52] END_LOAD_SCHEDULER: End scheduler "s022" with entities [EventEntity, EventEntity], work=635*
204: 0x0889 [0x81] SET_ENTITY_BLINKING(blink_flag=0x00, entity=Tuffle-Buffle (ID: 17826010/0x011000DA))
205: 0x088F [0x45] LOAD_SCHEDULED_TASK: Load scheduler "s023" with entities [EventEntity, EventEntity], work=[635*, 0*]
206: 0x08A0 [0x1C] WAIT(180* ticks)
207: 0x08A3 [0x2B] Tuffle-Buffle (ID: 17826010/0x011000DA) [10181*]:
    → "Who else, silly-willy? Can't you tell by my stunning Culinarians' Guild outfitaru?"
208: 0x08AA [0x23] WAIT_FOR_DIALOG_INTERACTION
209: 0x08AB [0x5B] LOAD_EXT_SCHEDULER: Load scheduler "kbk0" with entities [Tuffle-Buffle (ID: 17826010/0x011000DA), Tuffle-Buffle (ID: 17826010/0x011000DA)], work=165*
210: 0x08BA [0x81] SET_ENTITY_BLINKING(blink_flag=0x01, entity=Tuffle-Buffle (ID: 17826010/0x011000DA))
211: 0x08C0 [0x2B] Tuffle-Buffle (ID: 17826010/0x011000DA) [10182*]:
    → "'Course, I always was better at eating..."
212: 0x08C7 [0x23] WAIT_FOR_DIALOG_INTERACTION
213: 0x08C8 [0x52] END_LOAD_SCHEDULER: End scheduler "s023" with entities [EventEntity, EventEntity], work=635*
214: 0x08D7 [0x45] LOAD_SCHEDULED_TASK: Load scheduler "s014" with entities [EventEntity, EventEntity], work=[635*, 0*]
215: 0x08E8 [0x03] Work_Zone_1700[0] = 120*
216: 0x08ED [0x27] REQ_SET(priority=0x10, entity_id=Musto-Rusto (ID: 17826011/0x011000DB), tag_num=0x2C)
217: 0x08F4 [0x2B] Musto-Rusto (ID: 17826011/0x011000DB) [10183*]:
    → "Don't try to obfuscataru the truth! You put on that outfit, snuck into the guild, and inhaled everything on the shelf! And then tried to make a break for it when they found you!"
218: 0x08FB [0x23] WAIT_FOR_DIALOG_INTERACTION
219: 0x08FC [0x2A] GET_REQ_LEVEL(level=16, entity_id=Musto-Rusto (ID: 17826011/0x011000DB))
220: 0x0902 [0x52] END_LOAD_SCHEDULER: End scheduler "s014" with entities [EventEntity, EventEntity], work=635*
221: 0x0911 [0x5B] LOAD_EXT_SCHEDULER: Load scheduler "kbk1" with entities [Tuffle-Buffle (ID: 17826010/0x011000DA), Tuffle-Buffle (ID: 17826010/0x011000DA)], work=165*
222: 0x0920 [0x45] LOAD_SCHEDULED_TASK: Load scheduler "s013" with entities [EventEntity, EventEntity], work=[635*, 0*]
223: 0x0931 [0x79] Tuffle-Buffle (ID: 17826010/0x011000DA) looks at Musto-Rusto (ID: 17826011/0x011000DB) (Basic look)
224: 0x093B [0x03] Work_Zone_1700[0] = 120*
225: 0x0940 [0x27] REQ_SET(priority=0x10, entity_id=Tuffle-Buffle (ID: 17826010/0x011000DA), tag_num=0x3C)
226: 0x0947 [0x2B] Tuffle-Buffle (ID: 17826010/0x011000DA) [10184*]:
    → "It's not my faultaru that their foul mushroom souffl<Player>i made me lose my lunch!"
227: 0x094E [0x23] WAIT_FOR_DIALOG_INTERACTION
228: 0x094F [0x2A] GET_REQ_LEVEL(level=16, entity_id=Tuffle-Buffle (ID: 17826010/0x011000DA))
229: 0x0955 [0x66] LOAD_EXT_SCHEDULER_MAIN: Load scheduler "tlk0" with entities [Tuffle-Buffle (ID: 17826010/0x011000DA), Tuffle-Buffle (ID: 17826010/0x011000DA)], work=40*
230: 0x0964 [0x2B] Tuffle-Buffle (ID: 17826010/0x011000DA) [10185*]:
    → "But what's importantaru right now isn't the past--it's the future! A lovely, sugar-coated future!"
231: 0x096B [0x23] WAIT_FOR_DIALOG_INTERACTION
232: 0x096C [0x03] Work_Zone_1700[0] = 120*
233: 0x0971 [0x27] REQ_SET(priority=0x10, entity_id=Tuffle-Buffle (ID: 17826010/0x011000DA), tag_num=0x3D)
234: 0x0978 [0x2B] Tuffle-Buffle (ID: 17826010/0x011000DA) [10186*]:
    → "First, however, we start with the hors d'oeuvres!"
235: 0x097F [0x23] WAIT_FOR_DIALOG_INTERACTION
236: 0x0980 [0x2A] GET_REQ_LEVEL(level=16, entity_id=Tuffle-Buffle (ID: 17826010/0x011000DA))
237: 0x0986 [0x81] SET_ENTITY_BLINKING(blink_flag=0x00, entity=EventEntity)
238: 0x098C [0x03] Work_Zone_1700[0] = 60*
239: 0x0991 [0x27] REQ_SET(priority=0x10, entity_id=Tuffle-Buffle (ID: 17826010/0x011000DA), tag_num=0x39)
240: 0x0998 [0x03] Work_Zone[2] = 4436*
241: 0x099D [0x2B] Tuffle-Buffle (ID: 17826010/0x011000DA) [10187*]:
    → "You know what would really whetaru my appetite? %."
242: 0x09A4 [0x23] WAIT_FOR_DIALOG_INTERACTION
243: 0x09A5 [0x2A] GET_REQ_LEVEL(level=16, entity_id=Tuffle-Buffle (ID: 17826010/0x011000DA))
244: 0x09AB [0x81] SET_ENTITY_BLINKING(blink_flag=0x01, entity=EventEntity)
245: 0x09B1 [0x66] LOAD_EXT_SCHEDULER_MAIN: Load scheduler "ehn0" with entities [Tuffle-Buffle (ID: 17826010/0x011000DA), Tuffle-Buffle (ID: 17826010/0x011000DA)], work=41*
246: 0x09C0 [0x2B] Tuffle-Buffle (ID: 17826010/0x011000DA) [10188*]:
    → "Musto-Rusto, you're in chargey-warge of the hard part. Tell [him/her] the recipe!"
247: 0x09C7 [0x23] WAIT_FOR_DIALOG_INTERACTION
248: 0x09C8 [0x52] END_LOAD_SCHEDULER: End scheduler "s013" with entities [EventEntity, EventEntity], work=635*
249: 0x09D7 [0x45] LOAD_SCHEDULED_TASK: Load scheduler "s014" with entities [EventEntity, EventEntity], work=[635*, 0*]
250: 0x09E8 [0x4A] LocalPlayer looks at Musto-Rusto (ID: 17826011/0x011000DB)
251: 0x09F1 [0x03] Work_Zone_1700[0] = 60*
252: 0x09F6 [0x27] REQ_SET(priority=0x10, entity_id=Musto-Rusto (ID: 17826011/0x011000DB), tag_num=0x2A)
253: 0x09FD [0x2B] Musto-Rusto (ID: 17826011/0x011000DB) [10189*]:
    → "Me!? You just said that you're the chef de partie of Vana'diel! Why are you push-wushing it off on me?"
254: 0x0A04 [0x23] WAIT_FOR_DIALOG_INTERACTION
255: 0x0A05 [0x2A] GET_REQ_LEVEL(level=16, entity_id=Musto-Rusto (ID: 17826011/0x011000DB))
256: 0x0A0B [0x52] END_LOAD_SCHEDULER: End scheduler "s014" with entities [EventEntity, EventEntity], work=635*
257: 0x0A1A [0x45] LOAD_SCHEDULED_TASK: Load scheduler "s024" with entities [EventEntity, EventEntity], work=[635*, 0*]
258: 0x0A2B [0x7B] Musto-Rusto (ID: 17826011/0x011000DB) stops talking
259: 0x0A30 [0x66] LOAD_EXT_SCHEDULER_MAIN: Load scheduler "tlk0" with entities [Musto-Rusto (ID: 17826011/0x011000DB), Musto-Rusto (ID: 17826011/0x011000DB)], work=189*
260: 0x0A3F [0x2B] Musto-Rusto (ID: 17826011/0x011000DB) [10190*]:
    → "<Sigh> To make $0, you'll need..."
261: 0x0A46 [0x23] WAIT_FOR_DIALOG_INTERACTION
262: 0x0A47 [0x1C] WAIT(30* ticks)
263: 0x0A4A [0x66] LOAD_EXT_SCHEDULER_MAIN: Load scheduler "tlk1" with entities [Musto-Rusto (ID: 17826011/0x011000DB), Musto-Rusto (ID: 17826011/0x011000DB)], work=189*
264: 0x0A59 [0x5B] LOAD_EXT_SCHEDULER: Load scheduler "bob0" with entities [Musto-Rusto (ID: 17826011/0x011000DB), Musto-Rusto (ID: 17826011/0x011000DB)], work=165*
265: 0x0A68 [0x79] Musto-Rusto (ID: 17826011/0x011000DB) looks at EventEntity (Basic look)
266: 0x0A72 [0x1C] WAIT(30* ticks)
267: 0x0A75 [0xBB] LOAD_EVENT_SCHEDULER_ALT: Load scheduler "main" with entities [EventEntity, EventEntity], work=[149*, 0*]
268: 0x0A86 [0x1C] WAIT(150* ticks)
269: 0x0A89 [0x5B] LOAD_EXT_SCHEDULER: Load scheduler "bob1" with entities [Musto-Rusto (ID: 17826011/0x011000DB), Musto-Rusto (ID: 17826011/0x011000DB)], work=165*
270: 0x0A98 [0xBC] WAIT_LOAD_SCHEDULER_ALT2: Wait for scheduler "main" with entities [EventEntity, EventEntity], work=149*
271: 0x0AA7 [0x5B] LOAD_EXT_SCHEDULER: Load scheduler "w810" with entities [Musto-Rusto (ID: 17826011/0x011000DB), Musto-Rusto (ID: 17826011/0x011000DB)], work=2050*
272: 0x0AB6 [0x1C] WAIT(30* ticks)
273: 0x0AB9 [0x52] END_LOAD_SCHEDULER: End scheduler "s024" with entities [EventEntity, EventEntity], work=635*
274: 0x0AC8 [0x45] LOAD_SCHEDULED_TASK: Load scheduler "s029" with entities [EventEntity, EventEntity], work=[635*, 0*]
275: 0x0AD9 [0x79] Musto-Rusto (ID: 17826011/0x011000DB) looks at LocalPlayer (Basic look)
276: 0x0AE3 [0x1C] WAIT(30* ticks)
277: 0x0AE6 [0x66] LOAD_EXT_SCHEDULER_MAIN: Load scheduler "tlk0" with entities [Musto-Rusto (ID: 17826011/0x011000DB), Musto-Rusto (ID: 17826011/0x011000DB)], work=49*
278: 0x0AF5 [0x03] ExtData[1]->WorkLocal[1] = 8*
279: 0x0AFA [0x03] ExtData[1]->WorkLocal[3] = 30*
280: 0x0AFF [0x03] ExtData[1]->WorkLocal[2] = 2*
281: 0x0B04 [0x03] ExtData[1]->WorkLocal[4] = 0*
282: 0x0B09 [0x03] ExtData[1]->WorkLocal[5] = 16*
283: 0x0B0E [0x03] ExtData[1]->WorkLocal[7] = 4436*
284: 0x0B13 [0x1A] CALL_SUBROUTINE(address=0x347C)
285: 0x0B16 [0x03] Work_Zone[2] = ExtData[1]->WorkLocal[7]
286: 0x0B1B [0x03] Work_Zone[8] = ExtData[1]->WorkLocal[1]
287: 0x0B20 [0x03] Work_Zone[3] = Work_Zone[65]
288: 0x0B25 [0x03] Work_Zone[4] = Work_Zone[66]
289: 0x0B2A [0x03] Work_Zone[5] = Work_Zone[67]
290: 0x0B2F [0x03] Work_Zone[6] = Work_Zone[68]
291: 0x0B34 [0x03] Work_Zone[7] = Work_Zone[85]
292: 0x0B39 [0x02] IF !(Work_Zone[7] == 0*) GOTO 0x0B48
293: 0x0B41 [0x48] [System] [10268*]:
    → "Necessary skills: [Fishing/Woodworking/Smithing/Goldsmithing/Clothcraft/Leatherworking/Bonecraft/Alchemy/Cooking][ /, Woodworking/, Smithing/, Goldsmithing/, Clothcraft/, Leatherworking/, Bonecraft/, Alchemy/, Cooking][ /, Woodworking/, Smithing/, Goldsmithing/, Clothcraft/, Leatherworking/, Bonecraft/, Alchemy/, Cooking][ /, & Woodworking/, & Smithing/, & Goldsmithing/, & Clothcraft/, & Leatherworking/, & Bonecraft/, & Alchemy/, & Cooking] Necessary crystal: $4 Necessary items:"
294: 0x0B44 [0x23] WAIT_FOR_DIALOG_INTERACTION
295: 0x0B45 [0x01] GOTO 0x0B4C
296: 0x0B48 [0x48] [System] [10306*]:
    → "Necessary skills: [Fishing/Woodworking/Smithing/Goldsmithing/Clothcraft/Leatherworking/Bonecraft/Alchemy/Cooking][ /, Woodworking/, Smithing/, Goldsmithing/, Clothcraft/, Leatherworking/, Bonecraft/, Alchemy/, Cooking][ /, Woodworking/, Smithing/, Goldsmithing/, Clothcraft/, Leatherworking/, Bonecraft/, Alchemy/, Cooking][ /, & Woodworking/, & Smithing/, & Goldsmithing/, & Clothcraft/, & Leatherworking/, & Bonecraft/, & Alchemy/, & Cooking] Necessary crystal: $4 Necessary key item: $3 Necessary items:"
297: 0x0B4B [0x23] WAIT_FOR_DIALOG_INTERACTION

SUBROUTINE_0B4C:
298: 0x0B4C [0x03] Work_Zone[2] = Work_Zone[69]
299: 0x0B51 [0x03] Work_Zone[3] = Work_Zone[70]
300: 0x0B56 [0x03] Work_Zone[4] = Work_Zone[71]
301: 0x0B5B [0x03] Work_Zone[5] = Work_Zone[72]
302: 0x0B60 [0x03] Work_Zone[6] = Work_Zone[77]
303: 0x0B65 [0x03] Work_Zone[7] = Work_Zone[78]
304: 0x0B6A [0x03] Work_Zone[8] = Work_Zone[79]
305: 0x0B6F [0x03] Work_Zone[9] = Work_Zone[80]
306: 0x0B74 [0x02] IF !(Work_Zone[7] == 0*) GOTO 0x0B83
307: 0x0B7C [0x48] [System] [10272*]:
    → "$4 x $0"
308: 0x0B7F [0x23] WAIT_FOR_DIALOG_INTERACTION
309: 0x0B80 [0x01] GOTO 0x0C09
310: 0x0B83 [0x02] IF !(Work_Zone[8] == 0*) GOTO 0x0B92
311: 0x0B8B [0x48] [System] [10271*]:
    → "$4 x $0 $5 x $0$0"
312: 0x0B8E [0x23] WAIT_FOR_DIALOG_INTERACTION
313: 0x0B8F [0x01] GOTO 0x0C09
314: 0x0B92 [0x02] IF !(Work_Zone[9] == 0*) GOTO 0x0BA1
315: 0x0B9A [0x48] [System] [10270*]:
    → "$4 x $0 $5 x $0$0 $6 x $0"
316: 0x0B9D [0x23] WAIT_FOR_DIALOG_INTERACTION
317: 0x0B9E [0x01] GOTO 0x0C09
318: 0x0BA1 [0x48] [System] [10269*]:
    → "$4 x $0 $5 x $0$0 $6 x $0 $7 x $0$3"
319: 0x0BA4 [0x23] WAIT_FOR_DIALOG_INTERACTION
320: 0x0BA5 [0x03] Work_Zone[2] = Work_Zone[73]
321: 0x0BAA [0x03] Work_Zone[3] = Work_Zone[74]
322: 0x0BAF [0x03] Work_Zone[4] = Work_Zone[75]
323: 0x0BB4 [0x03] Work_Zone[5] = Work_Zone[76]
324: 0x0BB9 [0x03] Work_Zone[6] = Work_Zone[81]
325: 0x0BBE [0x03] Work_Zone[7] = Work_Zone[82]
326: 0x0BC3 [0x03] Work_Zone[8] = Work_Zone[83]
327: 0x0BC8 [0x03] Work_Zone[9] = Work_Zone[84]
328: 0x0BCD [0x02] IF !(Work_Zone[6] == 0*) GOTO 0x0BD8
329: 0x0BD5 [0x01] GOTO 0x0C09
330: 0x0BD8 [0x02] IF !(Work_Zone[7] == 0*) GOTO 0x0BE7
331: 0x0BE0 [0x48] [System] [10272*]:
    → "$4 x $0"
332: 0x0BE3 [0x23] WAIT_FOR_DIALOG_INTERACTION
333: 0x0BE4 [0x01] GOTO 0x0C09
334: 0x0BE7 [0x02] IF !(Work_Zone[8] == 0*) GOTO 0x0BF6
335: 0x0BEF [0x48] [System] [10271*]:
    → "$4 x $0 $5 x $0$0"
336: 0x0BF2 [0x23] WAIT_FOR_DIALOG_INTERACTION
337: 0x0BF3 [0x01] GOTO 0x0C09
338: 0x0BF6 [0x02] IF !(Work_Zone[9] == 0*) GOTO 0x0C05
339: 0x0BFE [0x48] [System] [10270*]:
    → "$4 x $0 $5 x $0$0 $6 x $0"
340: 0x0C01 [0x23] WAIT_FOR_DIALOG_INTERACTION
341: 0x0C02 [0x01] GOTO 0x0C09
342: 0x0C05 [0x48] [System] [10269*]:
    → "$4 x $0 $5 x $0$0 $6 x $0 $7 x $0$3"
343: 0x0C08 [0x23] WAIT_FOR_DIALOG_INTERACTION

SUBROUTINE_0C09:
344: 0x0C09 [0x03] Work_Zone[2] = 4375*
345: 0x0C0E [0x03] Work_Zone[6] = 1*
346: 0x0C13 [0x48] [System] [10272*]:
    → "$4 x $0"
347: 0x0C16 [0x23] WAIT_FOR_DIALOG_INTERACTION
348: 0x0C17 [0x66] LOAD_EXT_SCHEDULER_MAIN: Load scheduler "tlk1" with entities [Musto-Rusto (ID: 17826011/0x011000DB), Musto-Rusto (ID: 17826011/0x011000DB)], work=49*
349: 0x0C26 [0x52] END_LOAD_SCHEDULER: End scheduler "s029" with entities [EventEntity, EventEntity], work=635*
350: 0x0C35 [0x45] LOAD_SCHEDULED_TASK: Load scheduler "s024" with entities [EventEntity, EventEntity], work=[635*, 0*]
351: 0x0C46 [0x5B] LOAD_EXT_SCHEDULER: Load scheduler "kbk1" with entities [Tuffle-Buffle (ID: 17826010/0x011000DA), Tuffle-Buffle (ID: 17826010/0x011000DA)], work=165*
352: 0x0C55 [0x03] Work_Zone_1700[0] = 120*
353: 0x0C5A [0x27] REQ_SET(priority=0x10, entity_id=Tuffle-Buffle (ID: 17826010/0x011000DA), tag_num=0x3C)
354: 0x0C61 [0x79] Musto-Rusto (ID: 17826011/0x011000DB) looks at Tuffle-Buffle (ID: 17826010/0x011000DA) (Basic look)
355: 0x0C6B [0x2B] Tuffle-Buffle (ID: 17826010/0x011000DA) [10191*]:
    → "Who would add $0 to that!? With the way they wiggle in my stomach, I might as well become a streetaru performer!"
356: 0x0C72 [0x23] WAIT_FOR_DIALOG_INTERACTION
357: 0x0C73 [0x2A] GET_REQ_LEVEL(level=16, entity_id=Tuffle-Buffle (ID: 17826010/0x011000DA))
358: 0x0C79 [0x52] END_LOAD_SCHEDULER: End scheduler "s024" with entities [EventEntity, EventEntity], work=635*
359: 0x0C88 [0x45] LOAD_SCHEDULED_TASK: Load scheduler "s014" with entities [EventEntity, EventEntity], work=[635*, 0*]
360: 0x0C99 [0x03] Work_Zone_1700[0] = 120*
361: 0x0C9E [0x27] REQ_SET(priority=0x10, entity_id=Musto-Rusto (ID: 17826011/0x011000DB), tag_num=0x2C)
362: 0x0CA5 [0x2B] Musto-Rusto (ID: 17826011/0x011000DB) [10192*]:
    → "With a tummy like yours, the only street performance you'd be able to do would be belly-welly dancing!"
363: 0x0CAC [0x23] WAIT_FOR_DIALOG_INTERACTION
364: 0x0CAD [0x2A] GET_REQ_LEVEL(level=16, entity_id=Musto-Rusto (ID: 17826011/0x011000DB))
365: 0x0CB3 [0x52] END_LOAD_SCHEDULER: End scheduler "s014" with entities [EventEntity, EventEntity], work=635*
366: 0x0CC2 [0x45] LOAD_SCHEDULED_TASK: Load scheduler "s050" with entities [EventEntity, EventEntity], work=[635*, 0*]
367: 0x0CD3 [0x27] REQ_SET(priority=0x10, entity_id=Tuffle-Buffle (ID: 17826010/0x011000DA), tag_num=0x0C)
368: 0x0CDA [0x2A] GET_REQ_LEVEL(level=16, entity_id=Tuffle-Buffle (ID: 17826010/0x011000DA))
369: 0x0CE0 [0x03] Work_Zone_1700[0] = 90*
370: 0x0CE5 [0x27] REQ_SET(priority=0x10, entity_id=Tuffle-Buffle (ID: 17826010/0x011000DA), tag_num=0x3E)
371: 0x0CEC [0x2B] Tuffle-Buffle (ID: 17826010/0x011000DA) [10193*]:
    → "I can hear the pangs of starvation-wation taking root! Bring me the stuff before I wither on the vine!"
372: 0x0CF3 [0x23] WAIT_FOR_DIALOG_INTERACTION
373: 0x0CF4 [0x2A] GET_REQ_LEVEL(level=16, entity_id=Tuffle-Buffle (ID: 17826010/0x011000DA))
374: 0x0CFA [0x66] LOAD_EXT_SCHEDULER_MAIN: Load scheduler "gkr1" with entities [Tuffle-Buffle (ID: 17826010/0x011000DA), Tuffle-Buffle (ID: 17826010/0x011000DA)], work=40*
375: 0x0D09 [0x7B] Tuffle-Buffle (ID: 17826010/0x011000DA) stops talking
376: 0x0D0E [0x1C] WAIT(60* ticks)
377: 0x0D11 [0x66] LOAD_EXT_SCHEDULER_MAIN: Load scheduler "pos0" with entities [Tuffle-Buffle (ID: 17826010/0x011000DA), Tuffle-Buffle (ID: 17826010/0x011000DA)], work=114*
378: 0x0D20 [0x52] END_LOAD_SCHEDULER: End scheduler "s050" with entities [EventEntity, EventEntity], work=635*
379: 0x0D2F [0x81] SET_ENTITY_BLINKING(blink_flag=0x00, entity=Tuffle-Buffle (ID: 17826010/0x011000DA))
380: 0x0D35 [0x45] LOAD_SCHEDULED_TASK: Load scheduler "s026" with entities [EventEntity, EventEntity], work=[635*, 0*]
381: 0x0D46 [0x2B] Tuffle-Buffle (ID: 17826010/0x011000DA) [10194*]:
    → "You can forgetaru about the $0, but not the crystal! Remember the crystal!"
382: 0x0D4D [0x23] WAIT_FOR_DIALOG_INTERACTION
383: 0x0D4E [0x45] LOAD_SCHEDULED_TASK: Load scheduler "fdo1" with entities [LocalPlayer, LocalPlayer], work=[200*, 0*]
384: 0x0D5F [0x55] WAIT_LOAD_SCHEDULER: Wait for scheduler "fdo1" with entities [LocalPlayer, LocalPlayer], work=200*
385: 0x0D6E [0x52] END_LOAD_SCHEDULER: End scheduler "s026" with entities [EventEntity, EventEntity], work=635*
386: 0x0D7D [0x45] LOAD_SCHEDULED_TASK: Load scheduler "boff" with entities [EventEntity, EventEntity], work=[635*, 0*]
387: 0x0D8E [0x46] CAMERA_CONTROL: Restore default settings
388: 0x0D90 [0x45] LOAD_SCHEDULED_TASK: Load scheduler "fdi2" with entities [LocalPlayer, LocalPlayer], work=[200*, 0*]
389: 0x0DA1 [0x21] END_EVENT
390: 0x0DA2 [0x00] END_REQSTACK()
```

#### Data or dead code:

```
# Data Section: 0x0DA3 (16 bytes)
     0x0DA3: 59 80 5A 80 5B 80 5C 80 5D 80 5E 80 5F 80 60 80
# Dead code (unreachable instructions):
     0x048C [0x01] GOTO 0x05D3
```

### Event 5046

#### Metadata

| Field        | Value      |
|--------------|------------|
| Entrypoint   | 0x0DB3     |
| Data Size    | 2227 bytes |
| Instructions | 307        |

```
      00 01 02 03 04 05 06 07  08 09 0A 0B 0C 0D 0E 0F
      -- -- -- -- -- -- -- --  -- -- -- -- -- -- -- --
0DB0:          42 45 00 80 F0  FF FF 7F F0 FF FF 7F 66     BE..........f
0DC0: 64 6F 31 01 80 55 00 80  F0 FF FF 7F F0 FF FF 7F  do1..U..........
0DD0: 66 64 6F 31 46 01 38 02  80 2F 00 DA 00 10 01 4E  fdo1F.8../.....N
0DE0: 00 DA 00 10 01 94 01 DA  00 10 01 BA DA 00 10 01  ................
0DF0: 03 80 04 80 05 80 06 80  2F 00 DB 00 10 01 4E 00  ......../.....N.
0E00: DB 00 10 01 94 01 DB 00  10 01 BA DB 00 10 01 07  ................
0E10: 80 08 80 05 80 09 80 94  01 F0 FF FF 7F BA F0 FF  ................
0E20: FF 7F 61 80 62 80 0E 80  0F 80 4A F0 FF FF 7F DB  ..a.b.....J.....
0E30: 00 10 01 80 DA 00 10 01  80 DB 00 10 01 37 10 80  .............7..
0E40: 11 80 05 80 09 80 79 00  DA 00 10 01 F0 FF FF 7F  ......y.........
0E50: 1C 0A 80 45 12 80 F8 FF  FF 7F F8 FF FF 7F 73 30  ...E..........s0
0E60: 31 37 01 80 45 00 80 F0  FF FF 7F F0 FF FF 7F 66  17..E..........f
0E70: 64 69 31 01 80 03 00 17  18 80 27 10 DA 00 10 01  di1.......'.....
0E80: 38 03 02 10 53 80 2B DA  00 10 01 63 80 23 2A 10  8...S.+....c.#*.
0E90: DA 00 10 01 66 14 80 DA  00 10 01 DA 00 10 01 73  ....f..........s
0EA0: 79 75 30 2B DA 00 10 01  64 80 23 79 00 DB 00 10  yu0+....d.#y....
0EB0: 01 DA 00 10 01 53 DA 00  10 01 DA 00 10 01 73 79  .....S........sy
0EC0: 75 30 7B DA 00 10 01 52  12 80 F8 FF FF 7F F8 FF  u0{....R........
0ED0: FF 7F 73 30 31 37 13 00  00 65 80 02 00 00 29 80  ..s017...e....).
0EE0: 05 0B 10 45 12 80 F8 FF  FF 7F F8 FF FF 7F 73 30  ...E..........s0
0EF0: 31 33 01 80 06 01 10 43  00 43 01 03 01 00 4B 80  13.....C.C....K.
0F00: 03 03 00 0A 80 03 02 00  29 80 03 04 00 01 80 03  ........).......
0F10: 05 00 4C 80 03 07 00 42  80 1A 7C 34 03 02 10 29  ..L....B..|4...)
0F20: 80 29 10 DA 00 10 01 0F  1C 0B 80 1A A6 35 1C 2F  .)...........5./
0F30: 80 66 33 80 DA 00 10 01  DA 00 10 01 74 65 68 30  .f3.........teh0
0F40: 2B DA 00 10 01 66 80 23  52 12 80 F8 FF FF 7F F8  +....f.#R.......
0F50: FF FF 7F 73 30 31 33 45  12 80 F8 FF FF 7F F8 FF  ...s013E........
0F60: FF 7F 73 30 31 34 01 80  03 00 17 1F 80 27 10 DB  ..s014.......'..
0F70: 00 10 01 2C 2B DB 00 10  01 67 80 23 2A 10 DB 00  ...,+....g.#*...
0F80: 10 01 79 00 DB 00 10 01  F0 FF FF 7F 52 12 80 F8  ..y.........R...
0F90: FF FF 7F F8 FF FF 7F 73  30 31 34 45 12 80 F8 FF  .......s014E....
0FA0: FF 7F F8 FF FF 7F 73 30  32 39 01 80 1C 0A 80 66  ......s029.....f
0FB0: 46 80 DB 00 10 01 DB 00  10 01 74 6C 6B 30 2B DB  F.........tlk0+.
0FC0: 00 10 01 68 80 23 45 00  80 F0 FF FF 7F F0 FF FF  ...h.#E.........
0FD0: 7F 66 64 6F 31 01 80 55  00 80 F0 FF FF 7F F0 FF  .fdo1..U........
0FE0: FF 7F 66 64 6F 31 52 12  80 F8 FF FF 7F F8 FF FF  ..fdo1R.........
0FF0: 7F 73 30 32 39 46 00 45  00 80 F0 FF FF 7F F0 FF  .s029F.E........
1000: FF 7F 66 64 69 32 01 80  01 64 16 45 12 80 F8 FF  ..fdi2...d.E....
1010: FF 7F F8 FF FF 7F 73 30  31 33 01 80 05 01 10 03  ......s013......
1020: 02 10 29 80 29 10 DA 00  10 01 0E 1C 0B 80 03 02  ..).)...........
1030: 10 42 80 03 03 10 26 80  48 69 80 1C 1D 80 79 00  .B....&.Hi....y.
1040: DA 00 10 01 DB 00 10 01  1C 0A 80 66 2B 80 DA 00  ...........f+...
1050: 10 01 DA 00 10 01 65 68  6E 30 2B DA 00 10 01 6A  ......ehn0+....j
1060: 80 23 52 12 80 F8 FF FF  7F F8 FF FF 7F 73 30 31  .#R..........s01
1070: 33 45 12 80 F8 FF FF 7F  F8 FF FF 7F 73 30 31 34  3E..........s014
1080: 01 80 03 00 17 1F 80 27  10 DB 00 10 01 2C 2B DB  .......'.....,+.
1090: 00 10 01 6B 80 23 2A 10  DB 00 10 01 66 14 80 DB  ...k.#*.....f...
10A0: 00 10 01 DB 00 10 01 74  6C 6B 30 2B DB 00 10 01  .......tlk0+....
10B0: 6C 80 23 66 14 80 DB 00  10 01 DB 00 10 01 74 6C  l.#f..........tl
10C0: 6B 31 52 12 80 F8 FF FF  7F F8 FF FF 7F 73 30 31  k1R..........s01
10D0: 34 45 12 80 F8 FF FF 7F  F8 FF FF 7F 73 30 33 31  4E..........s031
10E0: 01 80 66 2B 80 DA 00 10  01 DA 00 10 01 65 68 6E  ..f+.........ehn
10F0: 31 7B DA 00 10 01 1C 1D  80 AD 00 6D 80 DA 00 10  1{.........m....
1100: 01 DA 00 10 01 1C 6E 80  81 00 DA 00 10 01 66 1A  ......n.......f.
1110: 80 DA 00 10 01 DA 00 10  01 74 68 6B 31 03 02 10  .........thk1...
1120: 6F 80 2B DA 00 10 01 70  80 23 93 02 10 81 01 DA  o.+....p.#......
1130: 00 10 01 03 00 17 1F 80  27 10 DA 00 10 01 3F 2B  ........'.....?+
1140: DA 00 10 01 71 80 23 93  01 80 2A 10 DA 00 10 01  ....q.#...*.....
1150: 52 12 80 F8 FF FF 7F F8  FF FF 7F 73 30 33 31 45  R..........s031E
1160: 12 80 F8 FF FF 7F F8 FF  FF 7F 73 30 31 34 01 80  ..........s014..
1170: 03 00 17 1F 80 27 10 DB  00 10 01 2C 79 00 DA 00  .....'.....,y...
1180: 10 01 DB 00 10 01 2B DB  00 10 01 72 80 23 2A 10  ......+....r.#*.
1190: DB 00 10 01 66 14 80 DB  00 10 01 DB 00 10 01 74  ....f..........t
11A0: 6C 6B 30 2B DB 00 10 01  73 80 23 66 14 80 DB 00  lk0+....s.#f....
11B0: 10 01 DB 00 10 01 74 6C  6B 31 52 12 80 F8 FF FF  ......tlk1R.....
11C0: 7F F8 FF FF 7F 73 30 31  34 45 12 80 F8 FF FF 7F  .....s014E......
11D0: F8 FF FF 7F 73 30 31 33  01 80 03 00 17 1F 80 27  ....s013.......'
11E0: 10 DA 00 10 01 3C 2B DA  00 10 01 74 80 23 2A 10  .....<+....t.#*.
11F0: DA 00 10 01 03 00 17 1F  80 27 10 DA 00 10 01 3D  .........'.....=
1200: 2B DA 00 10 01 75 80 23  2A 10 DA 00 10 01 81 00  +....u.#*.......
1210: F8 FF FF 7F 03 00 17 1D  80 27 10 DA 00 10 01 39  .........'.....9
1220: 03 02 10 76 80 2B DA 00  10 01 43 80 23 2A 10 DA  ...v.+....C.#*..
1230: 00 10 01 81 01 F8 FF FF  7F 66 2B 80 DA 00 10 01  .........f+.....
1240: DA 00 10 01 65 68 6E 30  2B DA 00 10 01 44 80 23  ....ehn0+....D.#
1250: 52 12 80 F8 FF FF 7F F8  FF FF 7F 73 30 31 33 45  R..........s013E
1260: 12 80 F8 FF FF 7F F8 FF  FF 7F 73 30 31 34 01 80  ..........s014..
1270: 4A F0 FF FF 7F DB 00 10  01 03 00 17 1F 80 27 10  J.............'.
1280: DB 00 10 01 2D 2B DB 00  10 01 77 80 23 2A 10 DB  ....-+....w.#*..
1290: 00 10 01 52 12 80 F8 FF  FF 7F F8 FF FF 7F 73 30  ...R..........s0
12A0: 31 34 45 12 80 F8 FF FF  7F F8 FF FF 7F 73 30 32  14E..........s02
12B0: 34 01 80 7B DB 00 10 01  66 46 80 DB 00 10 01 DB  4..{....fF......
12C0: 00 10 01 74 6C 6B 30 2B  DB 00 10 01 47 80 23 1C  ...tlk0+....G.#.
12D0: 0A 80 66 46 80 DB 00 10  01 DB 00 10 01 74 6C 6B  ..fF.........tlk
12E0: 31 5B 3C 80 DB 00 10 01  DB 00 10 01 62 6F 62 30  1[<.........bob0
12F0: 79 00 DB 00 10 01 F8 FF  FF 7F 1C 0A 80 BB 48 80  y.............H.
1300: F8 FF FF 7F F8 FF FF 7F  6D 61 69 6E 01 80 1C 49  ........main...I
1310: 80 5B 3C 80 DB 00 10 01  DB 00 10 01 62 6F 62 31  .[<.........bob1
1320: BC 48 80 F8 FF FF 7F F8  FF FF 7F 6D 61 69 6E 5B  .H.........main[
1330: 4A 80 DB 00 10 01 DB 00  10 01 77 38 31 30 1C 0A  J.........w810..
1340: 80 52 12 80 F8 FF FF 7F  F8 FF FF 7F 73 30 32 34  .R..........s024
1350: 45 12 80 F8 FF FF 7F F8  FF FF 7F 73 30 32 39 01  E..........s029.
1360: 80 79 00 DB 00 10 01 F0  FF FF 7F 1C 0A 80 66 1A  .y............f.
1370: 80 DB 00 10 01 DB 00 10  01 74 6C 6B 30 03 01 00  .........tlk0...
1380: 4B 80 03 03 00 0A 80 03  02 00 29 80 03 04 00 01  K.........).....
1390: 80 03 05 00 4C 80 03 07  00 76 80 1A 7C 34 03 02  ....L....v..|4..
13A0: 10 07 00 03 08 10 01 00  03 03 10 41 10 03 04 10  ...........A....
13B0: 42 10 03 05 10 43 10 03  06 10 44 10 03 07 10 55  B....C....D....U
13C0: 10 02 07 10 01 80 00 D0  13 48 4D 80 23 01 D4 13  .........HM.#...
13D0: 48 4E 80 23 03 02 10 45  10 03 03 10 46 10 03 04  HN.#...E....F...
13E0: 10 47 10 03 05 10 48 10  03 06 10 4D 10 03 07 10  .G....H....M....
13F0: 4E 10 03 08 10 4F 10 03  09 10 50 10 02 07 10 01  N....O....P.....
1400: 80 00 0B 14 48 4F 80 23  01 91 14 02 08 10 01 80  ....HO.#........
1410: 00 1A 14 48 50 80 23 01  91 14 02 09 10 01 80 00  ...HP.#.........
1420: 29 14 48 51 80 23 01 91  14 48 52 80 23 03 02 10  ).HQ.#...HR.#...
1430: 49 10 03 03 10 4A 10 03  04 10 4B 10 03 05 10 4C  I....J....K....L
1440: 10 03 06 10 51 10 03 07  10 52 10 03 08 10 53 10  ....Q....R....S.
1450: 03 09 10 54 10 02 06 10  01 80 00 60 14 01 91 14  ...T.......`....
1460: 02 07 10 01 80 00 6F 14  48 4F 80 23 01 91 14 02  ......o.HO.#....
1470: 08 10 01 80 00 7E 14 48  50 80 23 01 91 14 02 09  .....~.HP.#.....
1480: 10 01 80 00 8D 14 48 51  80 23 01 91 14 48 52 80  ......HQ.#...HR.
1490: 23 03 02 10 78 80 03 06  10 26 80 48 4F 80 23 66  #...x....&.HO.#f
14A0: 1A 80 DB 00 10 01 DB 00  10 01 74 6C 6B 31 52 12  ..........tlk1R.
14B0: 80 F8 FF FF 7F F8 FF FF  7F 73 30 32 39 45 12 80  .........s029E..
14C0: F8 FF FF 7F F8 FF FF 7F  73 30 32 34 01 80 5B 3C  ........s024..[<
14D0: 80 DA 00 10 01 DA 00 10  01 6B 62 6B 31 03 00 17  .........kbk1...
14E0: 1F 80 27 10 DA 00 10 01  3C 79 00 DB 00 10 01 DA  ..'.....<y......
14F0: 00 10 01 2B DA 00 10 01  79 80 23 2A 10 DA 00 10  ...+....y.#*....
1500: 01 66 14 80 DA 00 10 01  DA 00 10 01 74 6C 6B 30  .f..........tlk0
1510: 2B DA 00 10 01 7A 80 23  66 14 80 DA 00 10 01 DA  +....z.#f.......
1520: 00 10 01 74 6C 6B 31 52  12 80 F8 FF FF 7F F8 FF  ...tlk1R........
1530: FF 7F 73 30 32 34 45 12  80 F8 FF FF 7F F8 FF FF  ..s024E.........
1540: 7F 73 30 31 34 01 80 03  00 17 1F 80 27 10 DB 00  .s014.......'...
1550: 10 01 2C 2B DB 00 10 01  7B 80 23 2A 10 DB 00 10  ..,+....{.#*....
1560: 01 66 46 80 DB 00 10 01  DB 00 10 01 74 6C 6B 30  .fF.........tlk0
1570: 2B DB 00 10 01 7C 80 23  66 46 80 DB 00 10 01 DB  +....|.#fF......
1580: 00 10 01 74 6C 6B 31 52  12 80 F8 FF FF 7F F8 FF  ...tlk1R........
1590: FF 7F 73 30 31 34 45 12  80 F8 FF FF 7F F8 FF FF  ..s014E.........
15A0: 7F 73 30 35 30 01 80 27  10 DA 00 10 01 0C 2A 10  .s050..'......*.
15B0: DA 00 10 01 03 00 17 2F  80 27 10 DA 00 10 01 3E  ......./.'.....>
15C0: 2B DA 00 10 01 56 80 23  2A 10 DA 00 10 01 66 14  +....V.#*.....f.
15D0: 80 DA 00 10 01 DA 00 10  01 67 6B 72 31 7B DA 00  .........gkr1{..
15E0: 10 01 1C 1D 80 66 57 80  DA 00 10 01 DA 00 10 01  .....fW.........
15F0: 70 6F 73 30 52 12 80 F8  FF FF 7F F8 FF FF 7F 73  pos0R..........s
1600: 30 35 30 81 00 DA 00 10  01 45 12 80 F8 FF FF 7F  050......E......
1610: F8 FF FF 7F 73 30 32 36  01 80 2B DA 00 10 01 58  ....s026..+....X
1620: 80 23 45 00 80 F0 FF FF  7F F0 FF FF 7F 66 64 6F  .#E..........fdo
1630: 31 01 80 55 00 80 F0 FF  FF 7F F0 FF FF 7F 66 64  1..U..........fd
1640: 6F 31 52 12 80 F8 FF FF  7F F8 FF FF 7F 73 30 32  o1R..........s02
1650: 36 46 00 45 00 80 F0 FF  FF 7F F0 FF FF 7F 66 64  6F.E..........fd
1660: 69 32 01 80 21 00                                 i2..!.          
```

#### Opcodes

```
  0: 0x0DB3 [0x42] SET_CLI_EVENT_CANCEL_DATA()
  1: 0x0DB4 [0x45] LOAD_SCHEDULED_TASK: Load scheduler "fdo1" with entities [LocalPlayer, LocalPlayer], work=[200*, 0*]
  2: 0x0DC5 [0x55] WAIT_LOAD_SCHEDULER: Wait for scheduler "fdo1" with entities [LocalPlayer, LocalPlayer], work=200*
  3: 0x0DD4 [0x46] CAMERA_CONTROL: Disable user control
  4: 0x0DD6 [0x38] SET_CLIENT_EVENT_MODE(mode=19*)
  5: 0x0DD9 [0x2F] Tuffle-Buffle (ID: 17826010/0x011000DA)->Render.Flags0 &= ~0x80000 // Bit 19
  6: 0x0DDF [0x4E] SET_ENTITY_HIDE_FLAG: Show Tuffle-Buffle (ID: 17826010/0x011000DA)
  7: 0x0DE5 [0x94] Tuffle-Buffle (ID: 17826010/0x011000DA)->Render.Flags3 ^= 0x01
  8: 0x0DEB [0xBA] SET_ENTITY_POSITION(entity_id=Tuffle-Buffle (ID: 17826010/0x011000DA), pos_x=94.927*, pos_z=-121.028*, pos_y=2.179*, direction=185.2°*)
  9: 0x0DF8 [0x2F] Musto-Rusto (ID: 17826011/0x011000DB)->Render.Flags0 &= ~0x80000 // Bit 19
 10: 0x0DFE [0x4E] SET_ENTITY_HIDE_FLAG: Show Musto-Rusto (ID: 17826011/0x011000DB)
 11: 0x0E04 [0x94] Musto-Rusto (ID: 17826011/0x011000DB)->Render.Flags3 ^= 0x01
 12: 0x0E0A [0xBA] SET_ENTITY_POSITION(entity_id=Musto-Rusto (ID: 17826011/0x011000DB), pos_x=94.342*, pos_z=-122.127*, pos_y=2.179*, direction=260.1°*)
 13: 0x0E17 [0x94] LocalPlayer->Render.Flags3 ^= 0x01
 14: 0x0E1D [0xBA] SET_ENTITY_POSITION(entity_id=LocalPlayer, pos_x=90.600*, pos_z=-119.800*, pos_y=4.000*, direction=112.5°*)
 15: 0x0E2A [0x4A] LocalPlayer looks at Musto-Rusto (ID: 17826011/0x011000DB)
 16: 0x0E33 [0x80] LOAD_WAIT(entity=Tuffle-Buffle (ID: 17826010/0x011000DA))
 17: 0x0E38 [0x80] LOAD_WAIT(entity=Musto-Rusto (ID: 17826011/0x011000DB))
 18: 0x0E3D [0x37] UPDATE_EVENT_POSITION_AND_DIR: x=94.412*, z=-122.506*, y=2.179*, direction=260.1°*
 19: 0x0E46 [0x79] Tuffle-Buffle (ID: 17826010/0x011000DA) looks at LocalPlayer (Basic look)
 20: 0x0E50 [0x1C] WAIT(30* ticks)
 21: 0x0E53 [0x45] LOAD_SCHEDULED_TASK: Load scheduler "s017" with entities [EventEntity, EventEntity], work=[635*, 0*]
 22: 0x0E64 [0x45] LOAD_SCHEDULED_TASK: Load scheduler "fdi1" with entities [LocalPlayer, LocalPlayer], work=[200*, 0*]
 23: 0x0E75 [0x03] Work_Zone_1700[0] = 210*
 24: 0x0E7A [0x27] REQ_SET(priority=0x10, entity_id=Tuffle-Buffle (ID: 17826010/0x011000DA), tag_num=0x38)
 25: 0x0E81 [0x03] Work_Zone[2] = 4375*
 26: 0x0E86 [0x2B] Tuffle-Buffle (ID: 17826010/0x011000DA) [10198*]:
    → "Geez, how long could it possibly take to find some $0??? You're just lucky-wucky I'm not any more emaciatarued than I already am!"
 27: 0x0E8D [0x23] WAIT_FOR_DIALOG_INTERACTION
 28: 0x0E8E [0x2A] GET_REQ_LEVEL(level=16, entity_id=Tuffle-Buffle (ID: 17826010/0x011000DA))
 29: 0x0E94 [0x66] LOAD_EXT_SCHEDULER_MAIN: Load scheduler "syu0" with entities [Tuffle-Buffle (ID: 17826010/0x011000DA), Tuffle-Buffle (ID: 17826010/0x011000DA)], work=40*
 30: 0x0EA3 [0x2B] Tuffle-Buffle (ID: 17826010/0x011000DA) [10199*]:
    → "OK! Let's get to it!"
 31: 0x0EAA [0x23] WAIT_FOR_DIALOG_INTERACTION
 32: 0x0EAB [0x79] Musto-Rusto (ID: 17826011/0x011000DB) looks at Tuffle-Buffle (ID: 17826010/0x011000DA) (Basic look)
 33: 0x0EB5 [0x53] WAIT_SCHEDULER_TASK: Wait for scheduler "syu0" with entities [Tuffle-Buffle (ID: 17826010/0x011000DA), Tuffle-Buffle (ID: 17826010/0x011000DA)]
 34: 0x0EC2 [0x7B] Tuffle-Buffle (ID: 17826010/0x011000DA) stops talking
 35: 0x0EC7 [0x52] END_LOAD_SCHEDULER: End scheduler "s017" with entities [EventEntity, EventEntity], work=635*
 36: 0x0ED6 [0x13] ExtData[1]->WorkLocal[0] = rand() % 9*
 37: 0x0EDB [0x02] IF !(ExtData[1]->WorkLocal[0] > 2*) GOTO 0x100B
 38: 0x0EE3 [0x45] LOAD_SCHEDULED_TASK: Load scheduler "s013" with entities [EventEntity, EventEntity], work=[635*, 0*]
 39: 0x0EF4 [0x06] Work_Zone[1] = 0
 40: 0x0EF7 [0x43] SEND_EVENT_UPDATE: Send pending tag to server (packet 0x005B)
 41: 0x0EF9 [0x43] SEND_EVENT_UPDATE: Check pending flag (skip if not pending)
 42: 0x0EFB [0x03] ExtData[1]->WorkLocal[1] = 8*
 43: 0x0F00 [0x03] ExtData[1]->WorkLocal[3] = 30*
 44: 0x0F05 [0x03] ExtData[1]->WorkLocal[2] = 2*
 45: 0x0F0A [0x03] ExtData[1]->WorkLocal[4] = 0*
 46: 0x0F0F [0x03] ExtData[1]->WorkLocal[5] = 16*
 47: 0x0F14 [0x03] ExtData[1]->WorkLocal[7] = 4436*
 48: 0x0F19 [0x1A] CALL_SUBROUTINE(address=0x347C)
 49: 0x0F1C [0x03] Work_Zone[2] = 2*
 50: 0x0F21 [0x29] REQ_SET_WAIT(priority=0x10, entity_id=Tuffle-Buffle (ID: 17826010/0x011000DA), tag_num=0x0F)
 51: 0x0F28 [0x1C] WAIT(180* ticks)
 52: 0x0F2B [0x1A] CALL_SUBROUTINE(address=0x35A6)
 53: 0x0F2E [0x1C] WAIT(90* ticks)
 54: 0x0F31 [0x66] LOAD_EXT_SCHEDULER_MAIN: Load scheduler "teh0" with entities [Tuffle-Buffle (ID: 17826010/0x011000DA), Tuffle-Buffle (ID: 17826010/0x011000DA)], work=42*
 55: 0x0F40 [0x2B] Tuffle-Buffle (ID: 17826010/0x011000DA) [10203*]:
    → "These pangy-wangs of hunger...I can't focus..."
 56: 0x0F47 [0x23] WAIT_FOR_DIALOG_INTERACTION
 57: 0x0F48 [0x52] END_LOAD_SCHEDULER: End scheduler "s013" with entities [EventEntity, EventEntity], work=635*
 58: 0x0F57 [0x45] LOAD_SCHEDULED_TASK: Load scheduler "s014" with entities [EventEntity, EventEntity], work=[635*, 0*]
 59: 0x0F68 [0x03] Work_Zone_1700[0] = 120*
 60: 0x0F6D [0x27] REQ_SET(priority=0x10, entity_id=Musto-Rusto (ID: 17826011/0x011000DB), tag_num=0x2C)
 61: 0x0F74 [0x2B] Musto-Rusto (ID: 17826011/0x011000DB) [10204*]:
    → "Now waitaru a sec! Are you trying to pass off your failure as some kind of success!?"
 62: 0x0F7B [0x23] WAIT_FOR_DIALOG_INTERACTION
 63: 0x0F7C [0x2A] GET_REQ_LEVEL(level=16, entity_id=Musto-Rusto (ID: 17826011/0x011000DB))
 64: 0x0F82 [0x79] Musto-Rusto (ID: 17826011/0x011000DB) looks at LocalPlayer (Basic look)
 65: 0x0F8C [0x52] END_LOAD_SCHEDULER: End scheduler "s014" with entities [EventEntity, EventEntity], work=635*
 66: 0x0F9B [0x45] LOAD_SCHEDULED_TASK: Load scheduler "s029" with entities [EventEntity, EventEntity], work=[635*, 0*]
 67: 0x0FAC [0x1C] WAIT(30* ticks)
 68: 0x0FAF [0x66] LOAD_EXT_SCHEDULER_MAIN: Load scheduler "tlk0" with entities [Musto-Rusto (ID: 17826011/0x011000DB), Musto-Rusto (ID: 17826011/0x011000DB)], work=189*
 69: 0x0FBE [0x2B] Musto-Rusto (ID: 17826011/0x011000DB) [10205*]:
    → "S-sorry...can you pleasey-wease gather some more ingredients for me?"
 70: 0x0FC5 [0x23] WAIT_FOR_DIALOG_INTERACTION
 71: 0x0FC6 [0x45] LOAD_SCHEDULED_TASK: Load scheduler "fdo1" with entities [LocalPlayer, LocalPlayer], work=[200*, 0*]
 72: 0x0FD7 [0x55] WAIT_LOAD_SCHEDULER: Wait for scheduler "fdo1" with entities [LocalPlayer, LocalPlayer], work=200*
 73: 0x0FE6 [0x52] END_LOAD_SCHEDULER: End scheduler "s029" with entities [EventEntity, EventEntity], work=635*
 74: 0x0FF5 [0x46] CAMERA_CONTROL: Restore default settings
 75: 0x0FF7 [0x45] LOAD_SCHEDULED_TASK: Load scheduler "fdi2" with entities [LocalPlayer, LocalPlayer], work=[200*, 0*]
 76: 0x1008 [0x01] GOTO 0x1664
 77: 0x100B [0x45] LOAD_SCHEDULED_TASK: Load scheduler "s013" with entities [EventEntity, EventEntity], work=[635*, 0*]
 78: 0x101C [0x05] Work_Zone[1] = 1
 79: 0x101F [0x03] Work_Zone[2] = 2*
 80: 0x1024 [0x29] REQ_SET_WAIT(priority=0x10, entity_id=Tuffle-Buffle (ID: 17826010/0x011000DA), tag_num=0x0E)
 81: 0x102B [0x1C] WAIT(180* ticks)
 82: 0x102E [0x03] Work_Zone[2] = 4436*
 83: 0x1033 [0x03] Work_Zone[3] = 1*
 84: 0x1038 [0x48] [System] [10206*]:
    → "Tuffle-Buffle synthesized $1 $0 ."
 85: 0x103B [0x1C] WAIT(60* ticks)
 86: 0x103E [0x79] Tuffle-Buffle (ID: 17826010/0x011000DA) looks at Musto-Rusto (ID: 17826011/0x011000DB) (Basic look)
 87: 0x1048 [0x1C] WAIT(30* ticks)
 88: 0x104B [0x66] LOAD_EXT_SCHEDULER_MAIN: Load scheduler "ehn0" with entities [Tuffle-Buffle (ID: 17826010/0x011000DA), Tuffle-Buffle (ID: 17826010/0x011000DA)], work=41*
 89: 0x105A [0x2B] Tuffle-Buffle (ID: 17826010/0x011000DA) [10207*]:
    → "I told you, Musto-Rusto! You can always expectaru the best from the king of the kitchen! That ol' guild leader better watch out, because a new chef is in town--and his name is Tuffle-Buffle! Just give me a few more hours..."
 90: 0x1061 [0x23] WAIT_FOR_DIALOG_INTERACTION
 91: 0x1062 [0x52] END_LOAD_SCHEDULER: End scheduler "s013" with entities [EventEntity, EventEntity], work=635*
 92: 0x1071 [0x45] LOAD_SCHEDULED_TASK: Load scheduler "s014" with entities [EventEntity, EventEntity], work=[635*, 0*]
 93: 0x1082 [0x03] Work_Zone_1700[0] = 120*
 94: 0x1087 [0x27] REQ_SET(priority=0x10, entity_id=Musto-Rusto (ID: 17826011/0x011000DB), tag_num=0x2C)
 95: 0x108E [0x2B] Musto-Rusto (ID: 17826011/0x011000DB) [10208*]:
    → "Hours!? I thought you were starving!"
 96: 0x1095 [0x23] WAIT_FOR_DIALOG_INTERACTION
 97: 0x1096 [0x2A] GET_REQ_LEVEL(level=16, entity_id=Musto-Rusto (ID: 17826011/0x011000DB))
 98: 0x109C [0x66] LOAD_EXT_SCHEDULER_MAIN: Load scheduler "tlk0" with entities [Musto-Rusto (ID: 17826011/0x011000DB), Musto-Rusto (ID: 17826011/0x011000DB)], work=40*
 99: 0x10AB [0x2B] Musto-Rusto (ID: 17826011/0x011000DB) [10209*]:
    → "Oh, forget it. Now, hurry and give the gourmet reportaru!"
100: 0x10B2 [0x23] WAIT_FOR_DIALOG_INTERACTION
101: 0x10B3 [0x66] LOAD_EXT_SCHEDULER_MAIN: Load scheduler "tlk1" with entities [Musto-Rusto (ID: 17826011/0x011000DB), Musto-Rusto (ID: 17826011/0x011000DB)], work=40*
102: 0x10C2 [0x52] END_LOAD_SCHEDULER: End scheduler "s014" with entities [EventEntity, EventEntity], work=635*
103: 0x10D1 [0x45] LOAD_SCHEDULED_TASK: Load scheduler "s031" with entities [EventEntity, EventEntity], work=[635*, 0*]
104: 0x10E2 [0x66] LOAD_EXT_SCHEDULER_MAIN: Load scheduler "ehn1" with entities [Tuffle-Buffle (ID: 17826010/0x011000DA), Tuffle-Buffle (ID: 17826010/0x011000DA)], work=41*
105: 0x10F1 [0x7B] Tuffle-Buffle (ID: 17826010/0x011000DA) stops talking
106: 0x10F6 [0x1C] WAIT(60* ticks)
107: 0x10F9 [0xAD] DUAL_ENTITY_SCHEDULER_HANDLER: Execute sub-case 0 with entities [Tuffle-Buffle (ID: 17826010/0x011000DA), Tuffle-Buffle (ID: 17826010/0x011000DA)], work=29*
108: 0x1105 [0x1C] WAIT(240* ticks)
109: 0x1108 [0x81] SET_ENTITY_BLINKING(blink_flag=0x00, entity=Tuffle-Buffle (ID: 17826010/0x011000DA))
110: 0x110E [0x66] LOAD_EXT_SCHEDULER_MAIN: Load scheduler "thk1" with entities [Tuffle-Buffle (ID: 17826010/0x011000DA), Tuffle-Buffle (ID: 17826010/0x011000DA)], work=49*
111: 0x111D [0x03] Work_Zone[2] = 937*
112: 0x1122 [0x2B] Tuffle-Buffle (ID: 17826010/0x011000DA) [10210*]:
    → "Hmm... It clings to the teeth like a sticky-wicky piece of candy... Reminds me of $0..."
113: 0x1129 [0x23] WAIT_FOR_DIALOG_INTERACTION
114: 0x112A [0x93] DISPLAY_ITEM_INFO(item_id=Work_Zone[2])
115: 0x112D [0x81] SET_ENTITY_BLINKING(blink_flag=0x01, entity=Tuffle-Buffle (ID: 17826010/0x011000DA))
116: 0x1133 [0x03] Work_Zone_1700[0] = 120*
117: 0x1138 [0x27] REQ_SET(priority=0x10, entity_id=Tuffle-Buffle (ID: 17826010/0x011000DA), tag_num=0x3F)
118: 0x113F [0x2B] Tuffle-Buffle (ID: 17826010/0x011000DA) [10211*]:
    → "Its pungentaru stench and overpowering aftertaste... It's...it's...wonderful!"
119: 0x1146 [0x23] WAIT_FOR_DIALOG_INTERACTION
120: 0x1147 [0x93] DISPLAY_ITEM_INFO(item_id=0*)
121: 0x114A [0x2A] GET_REQ_LEVEL(level=16, entity_id=Tuffle-Buffle (ID: 17826010/0x011000DA))
122: 0x1150 [0x52] END_LOAD_SCHEDULER: End scheduler "s031" with entities [EventEntity, EventEntity], work=635*
123: 0x115F [0x45] LOAD_SCHEDULED_TASK: Load scheduler "s014" with entities [EventEntity, EventEntity], work=[635*, 0*]
124: 0x1170 [0x03] Work_Zone_1700[0] = 120*
125: 0x1175 [0x27] REQ_SET(priority=0x10, entity_id=Musto-Rusto (ID: 17826011/0x011000DB), tag_num=0x2C)
126: 0x117C [0x79] Tuffle-Buffle (ID: 17826010/0x011000DA) looks at Musto-Rusto (ID: 17826011/0x011000DB) (Basic look)
127: 0x1186 [0x2B] Musto-Rusto (ID: 17826011/0x011000DB) [10212*]:
    → "More like something you would just throw in the trashy-wash!"
128: 0x118D [0x23] WAIT_FOR_DIALOG_INTERACTION
129: 0x118E [0x2A] GET_REQ_LEVEL(level=16, entity_id=Musto-Rusto (ID: 17826011/0x011000DB))
130: 0x1194 [0x66] LOAD_EXT_SCHEDULER_MAIN: Load scheduler "tlk0" with entities [Musto-Rusto (ID: 17826011/0x011000DB), Musto-Rusto (ID: 17826011/0x011000DB)], work=40*
131: 0x11A3 [0x2B] Musto-Rusto (ID: 17826011/0x011000DB) [10213*]:
    → "And how would you compare it to $0? Like you've ever eaten-weaten one before!"
132: 0x11AA [0x23] WAIT_FOR_DIALOG_INTERACTION
133: 0x11AB [0x66] LOAD_EXT_SCHEDULER_MAIN: Load scheduler "tlk1" with entities [Musto-Rusto (ID: 17826011/0x011000DB), Musto-Rusto (ID: 17826011/0x011000DB)], work=40*
134: 0x11BA [0x52] END_LOAD_SCHEDULER: End scheduler "s014" with entities [EventEntity, EventEntity], work=635*
135: 0x11C9 [0x45] LOAD_SCHEDULED_TASK: Load scheduler "s013" with entities [EventEntity, EventEntity], work=[635*, 0*]
136: 0x11DA [0x03] Work_Zone_1700[0] = 120*
137: 0x11DF [0x27] REQ_SET(priority=0x10, entity_id=Tuffle-Buffle (ID: 17826010/0x011000DA), tag_num=0x3C)
138: 0x11E6 [0x2B] Tuffle-Buffle (ID: 17826010/0x011000DA) [10214*]:
    → "All this complaining doesn't befitaru you. You should be on your knees thanking me for such a wonderful, detailed analysis!"
139: 0x11ED [0x23] WAIT_FOR_DIALOG_INTERACTION
140: 0x11EE [0x2A] GET_REQ_LEVEL(level=16, entity_id=Tuffle-Buffle (ID: 17826010/0x011000DA))
141: 0x11F4 [0x03] Work_Zone_1700[0] = 120*
142: 0x11F9 [0x27] REQ_SET(priority=0x10, entity_id=Tuffle-Buffle (ID: 17826010/0x011000DA), tag_num=0x3D)
143: 0x1200 [0x2B] Tuffle-Buffle (ID: 17826010/0x011000DA) [10215*]:
    → "Oh, hush. Now, time for the main dish!"
144: 0x1207 [0x23] WAIT_FOR_DIALOG_INTERACTION
145: 0x1208 [0x2A] GET_REQ_LEVEL(level=16, entity_id=Tuffle-Buffle (ID: 17826010/0x011000DA))
146: 0x120E [0x81] SET_ENTITY_BLINKING(blink_flag=0x00, entity=EventEntity)
147: 0x1214 [0x03] Work_Zone_1700[0] = 60*
148: 0x1219 [0x27] REQ_SET(priority=0x10, entity_id=Tuffle-Buffle (ID: 17826010/0x011000DA), tag_num=0x39)
149: 0x1220 [0x03] Work_Zone[2] = 4438*
150: 0x1225 [0x2B] Tuffle-Buffle (ID: 17826010/0x011000DA) [10187*]:
    → "You know what would really whetaru my appetite? %."
151: 0x122C [0x23] WAIT_FOR_DIALOG_INTERACTION
152: 0x122D [0x2A] GET_REQ_LEVEL(level=16, entity_id=Tuffle-Buffle (ID: 17826010/0x011000DA))
153: 0x1233 [0x81] SET_ENTITY_BLINKING(blink_flag=0x01, entity=EventEntity)
154: 0x1239 [0x66] LOAD_EXT_SCHEDULER_MAIN: Load scheduler "ehn0" with entities [Tuffle-Buffle (ID: 17826010/0x011000DA), Tuffle-Buffle (ID: 17826010/0x011000DA)], work=41*
155: 0x1248 [0x2B] Tuffle-Buffle (ID: 17826010/0x011000DA) [10188*]:
    → "Musto-Rusto, you're in chargey-warge of the hard part. Tell [him/her] the recipe!"
156: 0x124F [0x23] WAIT_FOR_DIALOG_INTERACTION
157: 0x1250 [0x52] END_LOAD_SCHEDULER: End scheduler "s013" with entities [EventEntity, EventEntity], work=635*
158: 0x125F [0x45] LOAD_SCHEDULED_TASK: Load scheduler "s014" with entities [EventEntity, EventEntity], work=[635*, 0*]
159: 0x1270 [0x4A] LocalPlayer looks at Musto-Rusto (ID: 17826011/0x011000DB)
160: 0x1279 [0x03] Work_Zone_1700[0] = 120*
161: 0x127E [0x27] REQ_SET(priority=0x10, entity_id=Musto-Rusto (ID: 17826011/0x011000DB), tag_num=0x2D)
162: 0x1285 [0x2B] Musto-Rusto (ID: 17826011/0x011000DB) [10216*]:
    → "<Sigh> Can you do anything else besides eataru?"
163: 0x128C [0x23] WAIT_FOR_DIALOG_INTERACTION
164: 0x128D [0x2A] GET_REQ_LEVEL(level=16, entity_id=Musto-Rusto (ID: 17826011/0x011000DB))
165: 0x1293 [0x52] END_LOAD_SCHEDULER: End scheduler "s014" with entities [EventEntity, EventEntity], work=635*
166: 0x12A2 [0x45] LOAD_SCHEDULED_TASK: Load scheduler "s024" with entities [EventEntity, EventEntity], work=[635*, 0*]
167: 0x12B3 [0x7B] Musto-Rusto (ID: 17826011/0x011000DB) stops talking
168: 0x12B8 [0x66] LOAD_EXT_SCHEDULER_MAIN: Load scheduler "tlk0" with entities [Musto-Rusto (ID: 17826011/0x011000DB), Musto-Rusto (ID: 17826011/0x011000DB)], work=189*
169: 0x12C7 [0x2B] Musto-Rusto (ID: 17826011/0x011000DB) [10190*]:
    → "<Sigh> To make $0, you'll need..."
170: 0x12CE [0x23] WAIT_FOR_DIALOG_INTERACTION
171: 0x12CF [0x1C] WAIT(30* ticks)
172: 0x12D2 [0x66] LOAD_EXT_SCHEDULER_MAIN: Load scheduler "tlk1" with entities [Musto-Rusto (ID: 17826011/0x011000DB), Musto-Rusto (ID: 17826011/0x011000DB)], work=189*
173: 0x12E1 [0x5B] LOAD_EXT_SCHEDULER: Load scheduler "bob0" with entities [Musto-Rusto (ID: 17826011/0x011000DB), Musto-Rusto (ID: 17826011/0x011000DB)], work=165*
174: 0x12F0 [0x79] Musto-Rusto (ID: 17826011/0x011000DB) looks at EventEntity (Basic look)
175: 0x12FA [0x1C] WAIT(30* ticks)
