# 17826104 - Eternal Flame

## Common Data

| Field            | Value                     |
|------------------|---------------------------|
| Zone             | Western Adoulin (ID: 256) |
| Block Size       | 14420 bytes               |
| Total Events     | 6                         |
| References Count | 908                       |

## List of Events

| Event ID              | Entrypoint   |   Size |   Instructions |
|-----------------------|--------------|--------|----------------|
| [65535](#event-65535) | 0x0000       |      1 |              1 |
| [5079](#event-5079)   | 0x0001       |   1464 |            215 |
| [5080](#event-5080)   | 0x05B9       |     30 |              8 |
| [5081](#event-5081)   | 0x05D7       |   8499 |           1091 |
| [5086](#event-5086)   | 0x270A       |    750 |             86 |
| [5146](#event-5146)   | 0x29F8       |      1 |              1 |

## DAT References (imed_data)

|   Index | Hex Value   |   Dec Value |
|---------|-------------|-------------|
|       0 | 0x0093      |         147 |
|       1 | 0x3EE8      |       16104 |
|       2 | 0xFFFE311C  |  4294848796 |
|       3 | 0x0000      |           0 |
|       4 | 0x0741      |        1857 |
|       5 | 0x364D      |       13901 |
|       6 | 0xFFFE297A  |  4294846842 |
|       7 | 0xFFFFFF6C  |  4294967148 |
|       8 | 0x0DD1      |        3537 |
|       9 | 0x0001      |           1 |
|      10 | 0x0190      |         400 |
|      11 | 0x00A3      |         163 |
|      12 | 0x0273      |         627 |
|      13 | 0x001E      |          30 |
|      14 | 0x0032      |          50 |
|      15 | 0x2CC4      |       11460 |
|      16 | 0x2CC5      |       11461 |
|      17 | 0x0016      |          22 |
|      18 | 0x2CC9      |       11465 |
|      19 | 0x0004      |           4 |
|      20 | 0x2CC8      |       11464 |
|      21 | 0x2CC7      |       11463 |
|      22 | 0x0002      |           2 |
|      23 | 0x2CC6      |       11462 |
|      24 | 0x003C      |          60 |
|      25 | 0x0045      |          69 |
|      26 | 0x2CCA      |       11466 |
|      27 | 0x2CCB      |       11467 |
|      28 | 0x2CCC      |       11468 |
|      29 | 0x0007      |           7 |
|      30 | 0x2CCD      |       11469 |
|      31 | 0x000E      |          14 |
|      32 | 0x0028      |          40 |
|      33 | 0x0080      |         128 |
|      34 | 0x005A      |          90 |
|      35 | 0x09A2      |        2466 |
|      36 | 0x2CCE      |       11470 |
|      37 | 0x2CCF      |       11471 |
|      38 | 0x0078      |         120 |
|      39 | 0x00FC      |         252 |
|      40 | 0x2C5D      |       11357 |
|      41 | 0x0014      |          20 |
|      42 | 0x2CD0      |       11472 |
|      43 | 0x2CD1      |       11473 |
|      44 | 0x2CD2      |       11474 |
|      45 | 0x2CD3      |       11475 |
|      46 | 0x0086      |         134 |
|      47 | 0x002D      |          45 |
|      48 | 0x2CD4      |       11476 |
|      49 | 0x2CD5      |       11477 |
|      50 | 0x000A      |          10 |
|      51 | 0x0050      |          80 |
|      52 | 0x2CD6      |       11478 |
|      53 | 0x0020      |          32 |
|      54 | 0x2CD7      |       11479 |
|      55 | 0x2CD8      |       11480 |
|      56 | 0x003B      |          59 |
|      57 | 0x000F      |          15 |
|      58 | 0x00C9      |         201 |
|      59 | 0x00C8      |         200 |
|      60 | 0x2CC3      |       11459 |
|      61 | 0x00E6      |         230 |
|      62 | 0x2C60      |       11360 |
|      63 | 0x00EB      |         235 |
|      64 | 0x2C65      |       11365 |
|      65 | 0x00F1      |         241 |
|      66 | 0x2C6A      |       11370 |
|      67 | 0x0100      |         256 |
|      68 | 0x2C70      |       11376 |
|      69 | 0x0C00      |        3072 |
|      70 | 0x2C00      |       11264 |
|      71 | 0x000B      |          11 |
|      72 | 0x0015      |          21 |
|      73 | 0x2C81      |       11393 |
|      74 | 0x0003      |           3 |
|      75 | 0x0005      |           5 |
|      76 | 0x0006      |           6 |
|      77 | 0x0008      |           8 |
|      78 | 0x0009      |           9 |
|      79 | 0x000C      |          12 |
|      80 | 0x000D      |          13 |
|      81 | 0x0027      |          39 |
|      82 | 0x2C61      |       11361 |
|      83 | 0x2C66      |       11366 |
|      84 | 0x2C6B      |       11371 |
|      85 | 0x2C71      |       11377 |
|      86 | 0x2C75      |       11381 |
|      87 | 0x2C76      |       11382 |
|      88 | 0x2C77      |       11383 |
|      89 | 0x2C78      |       11384 |
|      90 | 0x2C79      |       11385 |
|      91 | 0x2C7A      |       11386 |
|      92 | 0x2C7B      |       11387 |
|      93 | 0x2C62      |       11362 |
|      94 | 0x2C63      |       11363 |
|      95 | 0x2C67      |       11367 |
|      96 | 0x2C68      |       11368 |
|      97 | 0x2C6C      |       11372 |
|      98 | 0x2C6D      |       11373 |
|      99 | 0x2C6E      |       11374 |
|     100 | 0x2C72      |       11378 |
|     101 | 0x2C73      |       11379 |
|     102 | 0x1055      |        4181 |
|     103 | 0x1056      |        4182 |
|     104 | 0x0FE0      |        4064 |
|     105 | 0x0FE1      |        4065 |
|     106 | 0x0FE2      |        4066 |
|     107 | 0x0FE3      |        4067 |
|     108 | 0x0FE4      |        4068 |
|     109 | 0x0FE5      |        4069 |
|     110 | 0x0FE6      |        4070 |
|     111 | 0x0FE7      |        4071 |
|     112 | 0x0FE8      |        4072 |
|     113 | 0x0FE9      |        4073 |
|     114 | 0x6F82      |       28546 |
|     115 | 0x2331      |        9009 |
|     116 | 0x1D4C      |        7500 |
|     117 | 0x3A98      |       15000 |
|     118 | 0x1388      |        5000 |
|     119 | 0x2710      |       10000 |
|     120 | 0x2795      |       10133 |
|     121 | 0x01F4      |         500 |
|     122 | 0x1803      |        6147 |
|     123 | 0x1804      |        6148 |
|     124 | 0x1805      |        6149 |
|     125 | 0x1806      |        6150 |
|     126 | 0x1807      |        6151 |
|     127 | 0x1808      |        6152 |
|     128 | 0x1809      |        6153 |
|     129 | 0x180A      |        6154 |
|     130 | 0x180B      |        6155 |
|     131 | 0x180C      |        6156 |
|     132 | 0x180D      |        6157 |
|     133 | 0x180E      |        6158 |
|     134 | 0x180F      |        6159 |
|     135 | 0x1810      |        6160 |
|     136 | 0x1811      |        6161 |
|     137 | 0x1812      |        6162 |
|     138 | 0x1813      |        6163 |
|     139 | 0x1814      |        6164 |
|     140 | 0x1815      |        6165 |
|     141 | 0x1816      |        6166 |
|     142 | 0x1817      |        6167 |
|     143 | 0x1818      |        6168 |
|     144 | 0x1819      |        6169 |
|     145 | 0x181A      |        6170 |
|     146 | 0x181B      |        6171 |
|     147 | 0x181C      |        6172 |
|     148 | 0x181D      |        6173 |
|     149 | 0x181E      |        6174 |
|     150 | 0x181F      |        6175 |
|     151 | 0x1820      |        6176 |
|     152 | 0x1821      |        6177 |
|     153 | 0x1822      |        6178 |
|     154 | 0x1823      |        6179 |
|     155 | 0x4001      |       16385 |
|     156 | 0x4006      |       16390 |
|     157 | 0x4007      |       16391 |
|     158 | 0x4040      |       16448 |
|     159 | 0x4051      |       16465 |
|     160 | 0x4046      |       16454 |
|     161 | 0x4057      |       16471 |
|     162 | 0x4041      |       16449 |
|     163 | 0x40D8      |       16600 |
|     164 | 0x4092      |       16530 |
|     165 | 0x4100      |       16640 |
|     166 | 0x4101      |       16641 |
|     167 | 0x4140      |       16704 |
|     168 | 0x4145      |       16709 |
|     169 | 0x4180      |       16768 |
|     170 | 0x41C0      |       16832 |
|     171 | 0x41C1      |       16833 |
|     172 | 0x4200      |       16896 |
|     173 | 0x4204      |       16900 |
|     174 | 0x4246      |       16966 |
|     175 | 0x4280      |       17024 |
|     176 | 0x428A      |       17034 |
|     177 | 0x4292      |       17042 |
|     178 | 0x42A3      |       17059 |
|     179 | 0x429A      |       17050 |
|     180 | 0x42C0      |       17088 |
|     181 | 0x42C7      |       17095 |
|     182 | 0x4300      |       17152 |
|     183 | 0x4308      |       17160 |
|     184 | 0x4301      |       17153 |
|     185 | 0x4340      |       17216 |
|     186 | 0x4B18      |       19224 |
|     187 | 0x43C1      |       17345 |
|     188 | 0x43C0      |       17344 |
|     189 | 0x43C3      |       17347 |
|     190 | 0x43C9      |       17353 |
|     191 | 0x30A0      |       12448 |
|     192 | 0x3120      |       12576 |
|     193 | 0x31A0      |       12704 |
|     194 | 0x3220      |       12832 |
|     195 | 0x32A0      |       12960 |
|     196 | 0x30B8      |       12472 |
|     197 | 0x3138      |       12600 |
|     198 | 0x31B8      |       12728 |
|     199 | 0x3238      |       12856 |
|     200 | 0x32B8      |       12984 |
|     201 | 0x3098      |       12440 |
|     202 | 0x3118      |       12568 |
|     203 | 0x3198      |       12696 |
|     204 | 0x3218      |       12824 |
|     205 | 0x3298      |       12952 |
|     206 | 0x3140      |       12608 |
|     207 | 0x31C0      |       12736 |
|     208 | 0x3240      |       12864 |
|     209 | 0x32C0      |       12992 |
|     210 | 0x30A8      |       12456 |
|     211 | 0x3128      |       12584 |
|     212 | 0x31A8      |       12712 |
|     213 | 0x3228      |       12840 |
|     214 | 0x32A8      |       12968 |
|     215 | 0x3001      |       12289 |
|     216 | 0x307F      |       12415 |
|     217 | 0x3002      |       12290 |
|     218 | 0x300B      |       12299 |
|     219 | 0x4017      |       16407 |
|     220 | 0x4042      |       16450 |
|     221 | 0x4052      |       16466 |
|     222 | 0x4047      |       16455 |
|     223 | 0x40BC      |       16572 |
|     224 | 0x4093      |       16531 |
|     225 | 0x4098      |       16536 |
|     226 | 0x40C7      |       16583 |
|     227 | 0x40CC      |       16588 |
|     228 | 0x4102      |       16642 |
|     229 | 0x4109      |       16649 |
|     230 | 0x4141      |       16705 |
|     231 | 0x4181      |       16769 |
|     232 | 0x4186      |       16774 |
|     233 | 0x41C2      |       16834 |
|     234 | 0x469C      |       18076 |
|     235 | 0x4217      |       16919 |
|     236 | 0x420A      |       16906 |
|     237 | 0x4240      |       16960 |
|     238 | 0x4256      |       16982 |
|     239 | 0x4293      |       17043 |
|     240 | 0x42B9      |       17081 |
|     241 | 0x4281      |       17025 |
|     242 | 0x429B      |       17051 |
|     243 | 0x428B      |       17035 |
|     244 | 0x42C1      |       17089 |
|     245 | 0x42C8      |       17096 |
|     246 | 0x4309      |       17161 |
|     247 | 0x4341      |       17217 |
|     248 | 0x4369      |       17257 |
|     249 | 0x4371      |       17265 |
|     250 | 0x43C7      |       17351 |
|     251 | 0x43CA      |       17354 |
|     252 | 0x3090      |       12432 |
|     253 | 0x3110      |       12560 |
|     254 | 0x3190      |       12688 |
|     255 | 0x3210      |       12816 |
|     256 | 0x3290      |       12944 |
|     257 | 0x30B0      |       12464 |
|     258 | 0x3130      |       12592 |
|     259 | 0x31B0      |       12720 |
|     260 | 0x3230      |       12848 |
|     261 | 0x32B0      |       12976 |
|     262 | 0x30A6      |       12454 |
|     263 | 0x3126      |       12582 |
|     264 | 0x31A6      |       12710 |
|     265 | 0x3222      |       12834 |
|     266 | 0x32A6      |       12966 |
|     267 | 0x3099      |       12441 |
|     268 | 0x3119      |       12569 |
|     269 | 0x3199      |       12697 |
|     270 | 0x3219      |       12825 |
|     271 | 0x3299      |       12953 |
|     272 | 0x3003      |       12291 |
|     273 | 0x0046      |          70 |
|     274 | 0x0084      |         132 |
|     275 | 0x0062      |          98 |
|     276 | 0x005D      |          93 |
|     277 | 0x005B      |          91 |
|     278 | 0x00B1      |         177 |
|     279 | 0x0059      |          89 |
|     280 | 0x0044      |          68 |
|     281 | 0x0087      |         135 |
|     282 | 0x0051      |          81 |
|     283 | 0x0063      |          99 |
|     284 | 0x00BB      |         187 |
|     285 | 0x0056      |          86 |
|     286 | 0x0041      |          65 |
|     287 | 0x4008      |       16392 |
|     288 | 0x4016      |       16406 |
|     289 | 0x4003      |       16387 |
|     290 | 0x4059      |       16473 |
|     291 | 0x4070      |       16496 |
|     292 | 0x4058      |       16472 |
|     293 | 0x4043      |       16451 |
|     294 | 0x4085      |       16517 |
|     295 | 0x4081      |       16513 |
|     296 | 0x4094      |       16532 |
|     297 | 0x40D1      |       16593 |
|     298 | 0x40D2      |       16594 |
|     299 | 0x4103      |       16643 |
|     300 | 0x4616      |       17942 |
|     301 | 0x4182      |       16770 |
|     302 | 0x41C3      |       16835 |
|     303 | 0x4570      |       17776 |
|     304 | 0x420B      |       16907 |
|     305 | 0x4294      |       17044 |
|     306 | 0x42C2      |       17090 |
|     307 | 0x4410      |       17424 |
|     308 | 0x4302      |       17154 |
|     309 | 0x4360      |       17248 |
|     310 | 0x436B      |       17259 |
|     311 | 0x3B67      |       15207 |
|     312 | 0x386E      |       14446 |
|     313 | 0x36E5      |       14053 |
|     314 | 0x3C2C      |       15404 |
|     315 | 0x3BEF      |       15343 |
|     316 | 0x3088      |       12424 |
|     317 | 0x3108      |       12552 |
|     318 | 0x3188      |       12680 |
|     319 | 0x3208      |       12808 |
|     320 | 0x3288      |       12936 |
|     321 | 0x3B3D      |       15165 |
|     322 | 0x385A      |       14426 |
|     323 | 0x3A0A      |       14858 |
|     324 | 0x37F7      |       14327 |
|     325 | 0x3BD3      |       15315 |
|     326 | 0x3B3F      |       15167 |
|     327 | 0x385F      |       14431 |
|     328 | 0x3A0C      |       14860 |
|     329 | 0x37F9      |       14329 |
|     330 | 0x3BD5      |       15317 |
|     331 | 0x3B3B      |       15163 |
|     332 | 0x3858      |       14424 |
|     333 | 0x3A08      |       14856 |
|     334 | 0x37F5      |       14325 |
|     335 | 0x3BD1      |       15313 |
|     336 | 0x3004      |       12292 |
|     337 | 0x307E      |       12414 |
|     338 | 0x3012      |       12306 |
|     339 | 0x0057      |          87 |
|     340 | 0x0090      |         144 |
|     341 | 0x0067      |         103 |
|     342 | 0x0060      |          96 |
|     343 | 0x007B      |         123 |
|     344 | 0x008F      |         143 |
|     345 | 0x00AA      |         170 |
|     346 | 0x00D7      |         215 |
|     347 | 0x010D      |         269 |
|     348 | 0x015D      |         349 |
|     349 | 0x0088      |         136 |
|     350 | 0x0053      |          83 |
|     351 | 0x00D1      |         209 |
|     352 | 0x0054      |          84 |
|     353 | 0x006D      |         109 |
|     354 | 0x0208      |         520 |
|     355 | 0x01B0      |         432 |
|     356 | 0x0047      |          71 |
|     357 | 0x00AB      |         171 |
|     358 | 0x0108      |         264 |
|     359 | 0x008D      |         141 |
|     360 | 0x00D2      |         210 |
|     361 | 0x0081      |         129 |
|     362 | 0x00C3      |         195 |
|     363 | 0x020D      |         525 |
|     364 | 0x012D      |         301 |
|     365 | 0x0162      |         354 |
|     366 | 0x017B      |         379 |
|     367 | 0x00FA      |         250 |
|     368 | 0x008C      |         140 |
|     369 | 0x0122      |         290 |
|     370 | 0x00EA      |         234 |
|     371 | 0x0061      |          97 |
|     372 | 0x0089      |         137 |
|     373 | 0x009D      |         157 |
|     374 | 0x0099      |         153 |
|     375 | 0x401B      |       16411 |
|     376 | 0x400F      |       16399 |
|     377 | 0x4009      |       16393 |
|     378 | 0x4AA1      |       19105 |
|     379 | 0x405B      |       16475 |
|     380 | 0x4048      |       16456 |
|     381 | 0x40A1      |       16545 |
|     382 | 0x40C0      |       16576 |
|     383 | 0x40C5      |       16581 |
|     384 | 0x40A5      |       16549 |
|     385 | 0x47C7      |       18375 |
|     386 | 0x40C8      |       16584 |
|     387 | 0x4623      |       17955 |
|     388 | 0x4104      |       16644 |
|     389 | 0x4726      |       18214 |
|     390 | 0x4142      |       16706 |
|     391 | 0x41CD      |       16845 |
|     392 | 0x469E      |       18078 |
|     393 | 0x41C4      |       16836 |
|     394 | 0x46CA      |       18122 |
|     395 | 0x4205      |       16901 |
|     396 | 0x424D      |       16973 |
|     397 | 0x4242      |       16962 |
|     398 | 0x424A      |       16970 |
|     399 | 0x4295      |       17045 |
|     400 | 0x429C      |       17052 |
|     401 | 0x42A5      |       17061 |
|     402 | 0x428C      |       17036 |
|     403 | 0x42B8      |       17080 |
|     404 | 0x42C9      |       17097 |
|     405 | 0x42C3      |       17091 |
|     406 | 0x430A      |       17162 |
|     407 | 0x4303      |       17155 |
|     408 | 0x4342      |       17218 |
|     409 | 0x491B      |       18715 |
|     410 | 0x4910      |       18704 |
|     411 | 0x43C4      |       17348 |
|     412 | 0x43CB      |       17355 |
|     413 | 0x3B3C      |       15164 |
|     414 | 0x3859      |       14425 |
|     415 | 0x3A09      |       14857 |
|     416 | 0x37F6      |       14326 |
|     417 | 0x3BD2      |       15314 |
|     418 | 0x3B39      |       15161 |
|     419 | 0x3856      |       14422 |
|     420 | 0x3A06      |       14854 |
|     421 | 0x37F3      |       14323 |
|     422 | 0x3BCF      |       15311 |
|     423 | 0x3142      |       12610 |
|     424 | 0x31C2      |       12738 |
|     425 | 0x3242      |       12866 |
|     426 | 0x32C2      |       12994 |
|     427 | 0x30A2      |       12450 |
|     428 | 0x3122      |       12578 |
|     429 | 0x31A2      |       12706 |
|     430 | 0x3224      |       12836 |
|     431 | 0x32A2      |       12962 |
|     432 | 0x30B2      |       12466 |
|     433 | 0x3132      |       12594 |
|     434 | 0x31B2      |       12722 |
|     435 | 0x3232      |       12850 |
|     436 | 0x32B2      |       12978 |
|     437 | 0x30BB      |       12475 |
|     438 | 0x313B      |       12603 |
|     439 | 0x31BB      |       12731 |
|     440 | 0x323B      |       12859 |
|     441 | 0x32BB      |       12987 |
|     442 | 0x362F      |       13871 |
|     443 | 0x35D7      |       13783 |
|     444 | 0x36B1      |       14001 |
|     445 | 0x3726      |       14118 |
|     446 | 0x300C      |       12300 |
|     447 | 0x3005      |       12293 |
|     448 | 0x304C      |       12364 |
|     449 | 0x00B6      |         182 |
|     450 | 0x00C2      |         194 |
|     451 | 0x013D      |         317 |
|     452 | 0x00F8      |         248 |
|     453 | 0x00C6      |         198 |
|     454 | 0x014E      |         334 |
|     455 | 0x01F1      |         497 |
|     456 | 0x01AE      |         430 |
|     457 | 0x01ED      |         493 |
|     458 | 0x0214      |         532 |
|     459 | 0x021C      |         540 |
|     460 | 0x0129      |         297 |
|     461 | 0x0203      |         515 |
|     462 | 0x009A      |         154 |
|     463 | 0x0082      |         130 |
|     464 | 0x00A8      |         168 |
|     465 | 0x0145      |         325 |
|     466 | 0x0144      |         324 |
|     467 | 0x00E4      |         228 |
|     468 | 0x00E2      |         226 |
|     469 | 0x013F      |         319 |
|     470 | 0x007A      |         122 |
|     471 | 0x0138      |         312 |
|     472 | 0x007D      |         125 |
|     473 | 0x0154      |         340 |
|     474 | 0x00B9      |         185 |
|     475 | 0x0109      |         265 |
|     476 | 0x00BE      |         190 |
|     477 | 0x007C      |         124 |
|     478 | 0x00C0      |         192 |
|     479 | 0x00AE      |         174 |
|     480 | 0x0052      |          82 |
|     481 | 0x00BC      |         188 |
|     482 | 0x006E      |         110 |
|     483 | 0x0055      |          85 |
|     484 | 0x0189      |         393 |
|     485 | 0x00D8      |         216 |
|     486 | 0x013C      |         316 |
|     487 | 0x00C4      |         196 |
|     488 | 0x00AF      |         175 |
|     489 | 0x011D      |         285 |
|     490 | 0x01A9      |         425 |
|     491 | 0x00F0      |         240 |
|     492 | 0x015B      |         347 |
|     493 | 0x012E      |         302 |
|     494 | 0x01D0      |         464 |
|     495 | 0x4004      |       16388 |
|     496 | 0x401C      |       16412 |
|     497 | 0x4023      |       16419 |
|     498 | 0x404B      |       16459 |
|     499 | 0x44CA      |       17610 |
|     500 | 0x408A      |       16522 |
|     501 | 0x40AE      |       16558 |
|     502 | 0x40B4      |       16564 |
|     503 | 0x40B7      |       16567 |
|     504 | 0x40CE      |       16590 |
|     505 | 0x423D      |       16957 |
|     506 | 0x4111      |       16657 |
|     507 | 0x410B      |       16651 |
|     508 | 0x471F      |       18207 |
|     509 | 0x4187      |       16775 |
|     510 | 0x419C      |       16796 |
|     511 | 0x4682      |       18050 |
|     512 | 0x41CF      |       16847 |
|     513 | 0x4209      |       16905 |
|     514 | 0x4206      |       16902 |
|     515 | 0x420C      |       16908 |
|     516 | 0x4213      |       16915 |
|     517 | 0x4247      |       16967 |
|     518 | 0x42A6      |       17062 |
|     519 | 0x429D      |       17053 |
|     520 | 0x42CA      |       17098 |
|     521 | 0x4473      |       17523 |
|     522 | 0x430B      |       17163 |
|     523 | 0x4304      |       17156 |
|     524 | 0x430C      |       17164 |
|     525 | 0x4373      |       17267 |
|     526 | 0x4343      |       17219 |
|     527 | 0x4916      |       18710 |
|     528 | 0x43C8      |       17352 |
|     529 | 0x43C6      |       17350 |
|     530 | 0x37A3      |       14243 |
|     531 | 0x3080      |       12416 |
|     532 | 0x3100      |       12544 |
|     533 | 0x3180      |       12672 |
|     534 | 0x3200      |       12800 |
|     535 | 0x3280      |       12928 |
|     536 | 0x3B65      |       15205 |
|     537 | 0x386C      |       14444 |
|     538 | 0x36E3      |       14051 |
|     539 | 0x3C2A      |       15402 |
|     540 | 0x3BED      |       15341 |
|     541 | 0x308A      |       12426 |
|     542 | 0x310A      |       12554 |
|     543 | 0x318A      |       12682 |
|     544 | 0x320A      |       12810 |
|     545 | 0x328A      |       12938 |
|     546 | 0x309C      |       12444 |
|     547 | 0x311C      |       12572 |
|     548 | 0x319C      |       12700 |
|     549 | 0x321C      |       12828 |
|     550 | 0x329C      |       12956 |
|     551 | 0x3081      |       12417 |
|     552 | 0x3101      |       12545 |
|     553 | 0x3181      |       12673 |
|     554 | 0x3201      |       12801 |
|     555 | 0x3281      |       12929 |
|     556 | 0x30AC      |       12460 |
|     557 | 0x312C      |       12588 |
|     558 | 0x31AC      |       12716 |
|     559 | 0x322C      |       12844 |
|     560 | 0x32AC      |       12972 |
|     561 | 0x3631      |       13873 |
|     562 | 0x35D9      |       13785 |
|     563 | 0x36B3      |       14003 |
|     564 | 0x37A5      |       14245 |
|     565 | 0x3728      |       14120 |
|     566 | 0x3B8A      |       15242 |
|     567 | 0x38A2      |       14498 |
|     568 | 0x3A3B      |       14907 |
|     569 | 0x3CDA      |       15578 |
|     570 | 0x3D2F      |       15663 |
|     571 | 0x3013      |       12307 |
|     572 | 0x300D      |       12301 |
|     573 | 0x3006      |       12294 |
|     574 | 0x0072      |         114 |
|     575 | 0x012A      |         298 |
|     576 | 0x01A0      |         416 |
|     577 | 0x0174      |         372 |
|     578 | 0x01E0      |         480 |
|     579 | 0x02A8      |         680 |
|     580 | 0x0307      |         775 |
|     581 | 0x02A4      |         676 |
|     582 | 0x029D      |         669 |
|     583 | 0x0294      |         660 |
|     584 | 0x02E4      |         740 |
|     585 | 0x01E1      |         481 |
|     586 | 0x02B2      |         690 |
|     587 | 0x02BA      |         698 |
|     588 | 0x03F9      |        1017 |
|     589 | 0x0102      |         258 |
|     590 | 0x00E7      |         231 |
|     591 | 0x00E9      |         233 |
|     592 | 0x0176      |         374 |
|     593 | 0x0070      |         112 |
|     594 | 0x009C      |         156 |
|     595 | 0x0069      |         105 |
|     596 | 0x0168      |         360 |
|     597 | 0x00F7      |         247 |
|     598 | 0x0198      |         408 |
|     599 | 0x04B0      |        1200 |
|     600 | 0x00FF      |         255 |
|     601 | 0x0134      |         308 |
|     602 | 0x019E      |         414 |
|     603 | 0x0222      |         546 |
|     604 | 0x0120      |         288 |
|     605 | 0x00B4      |         180 |
|     606 | 0x02EE      |         750 |
|     607 | 0x0654      |        1620 |
|     608 | 0x028E      |         654 |
|     609 | 0x0216      |         534 |
|     610 | 0x01AB      |         427 |
|     611 | 0x0160      |         352 |
|     612 | 0x0142      |         322 |
|     613 | 0x00E0      |         224 |
|     614 | 0x0098      |         152 |
|     615 | 0x0150      |         336 |
|     616 | 0x01B5      |         437 |
|     617 | 0x018C      |         396 |
|     618 | 0x016B      |         363 |
|     619 | 0x015A      |         346 |
|     620 | 0x0152      |         338 |
|     621 | 0x01C0      |         448 |
|     622 | 0x02B0      |         688 |
|     623 | 0x0170      |         368 |
|     624 | 0x024A      |         586 |
|     625 | 0x011F      |         287 |
|     626 | 0x0181      |         385 |
|     627 | 0x0137      |         311 |
|     628 | 0x6C5C      |       27740 |
|     629 | 0x6CE9      |       27881 |
|     630 | 0x6D7D      |       28029 |
|     631 | 0x6E08      |       28168 |
|     632 | 0x6E92      |       28306 |
|     633 | 0x6C5D      |       27741 |
|     634 | 0x6CEA      |       27882 |
|     635 | 0x6D7E      |       28030 |
|     636 | 0x6E09      |       28169 |
|     637 | 0x6E93      |       28307 |
|     638 | 0x6C5E      |       27742 |
|     639 | 0x6CEB      |       27883 |
|     640 | 0x6D7F      |       28031 |
|     641 | 0x6E0A      |       28170 |
|     642 | 0x6E94      |       28308 |
|     643 | 0x6C5F      |       27743 |
|     644 | 0x6CEC      |       27884 |
|     645 | 0x6D80      |       28032 |
|     646 | 0x6E0B      |       28171 |
|     647 | 0x6E95      |       28309 |
|     648 | 0x503C      |       20540 |
|     649 | 0x5090      |       20624 |
|     650 | 0x50F6      |       20726 |
|     651 | 0x511E      |       20766 |
|     652 | 0x5151      |       20817 |
|     653 | 0x5181      |       20865 |
|     654 | 0x51AC      |       20908 |
|     655 | 0x51DA      |       20954 |
|     656 | 0x5206      |       20998 |
|     657 | 0x5234      |       21044 |
|     658 | 0x527F      |       21119 |
|     659 | 0x52BE      |       21182 |
|     660 | 0x52BF      |       21183 |
|     661 | 0x52EF      |       21231 |
|     662 | 0x5303      |       21251 |
|     663 | 0x5321      |       21281 |
|     664 | 0x6FF0      |       28656 |
|     665 | 0x53CD      |       21453 |
|     666 | 0x5387      |       21383 |
|     667 | 0x6F85      |       28549 |
|     668 | 0x6F86      |       28550 |
|     669 | 0x6F87      |       28551 |
|     670 | 0x6F88      |       28552 |
|     671 | 0x6F89      |       28553 |
|     672 | 0x6F8A      |       28554 |
|     673 | 0x6F53      |       28499 |
|     674 | 0x6F54      |       28500 |
|     675 | 0x6F55      |       28501 |
|     676 | 0x6F56      |       28502 |
|     677 | 0x6F57      |       28503 |
|     678 | 0x6F58      |       28504 |
|     679 | 0x6F83      |       28547 |
|     680 | 0x53D6      |       21462 |
|     681 | 0x539D      |       21405 |
|     682 | 0x5336      |       21302 |
|     683 | 0x5344      |       21316 |
|     684 | 0x5353      |       21331 |
|     685 | 0x536B      |       21355 |
|     686 | 0x56F4      |       22260 |
|     687 | 0x0BB8      |        3000 |
|     688 | 0x07D0      |        2000 |
|     689 | 0x1B58      |        7000 |
|     690 | 0x515A      |       20826 |
|     691 | 0x51B5      |       20917 |
|     692 | 0x5356      |       21334 |
|     693 | 0x53B4      |       21428 |
|     694 | 0x6C76      |       27766 |
|     695 | 0x6EAB      |       28331 |
|     696 | 0x5188      |       20872 |
|     697 | 0x5285      |       21125 |
|     698 | 0x6C77      |       27767 |
|     699 | 0x6D92      |       28050 |
|     700 | 0x6EF0      |       28400 |
|     701 | 0x6FE0      |       28640 |
|     702 | 0x5154      |       20820 |
|     703 | 0x51DE      |       20958 |
|     704 | 0x6C59      |       27737 |
|     705 | 0x6E07      |       28167 |
|     706 | 0x5096      |       20630 |
|     707 | 0x5237      |       21047 |
|     708 | 0x5305      |       21253 |
|     709 | 0x6C5A      |       27738 |
|     710 | 0x6E91      |       28305 |
|     711 | 0x503F      |       20543 |
|     712 | 0x50FB      |       20731 |
|     713 | 0x6C5B      |       27739 |
|     714 | 0x6D7C      |       28028 |
|     715 | 0x5120      |       20768 |
|     716 | 0x52F1      |       21233 |
|     717 | 0x52C2      |       21186 |
|     718 | 0x6C58      |       27736 |
|     719 | 0x6E06      |       28166 |
|     720 | 0x6F84      |       28548 |
|     721 | 0x53D7      |       21463 |
|     722 | 0x5200      |       20992 |
|     723 | 0x400A      |       16394 |
|     724 | 0x4010      |       16400 |
|     725 | 0x4026      |       16422 |
|     726 | 0x44CC      |       17612 |
|     727 | 0x405D      |       16477 |
|     728 | 0x409A      |       16538 |
|     729 | 0x40AA      |       16554 |
|     730 | 0x4082      |       16514 |
|     731 | 0x409D      |       16541 |
|     732 | 0x40C9      |       16585 |
|     733 | 0x40D4      |       16596 |
|     734 | 0x4105      |       16645 |
|     735 | 0x410D      |       16653 |
|     736 | 0x415A      |       16730 |
|     737 | 0x419A      |       16794 |
|     738 | 0x4195      |       16789 |
|     739 | 0x41F8      |       16888 |
|     740 | 0x41D0      |       16848 |
|     741 | 0x46AD      |       18093 |
|     742 | 0x41CA      |       16842 |
|     743 | 0x4207      |       16903 |
|     744 | 0x420D      |       16909 |
|     745 | 0x4244      |       16964 |
|     746 | 0x424C      |       16972 |
|     747 | 0x429E      |       17054 |
|     748 | 0x42A0      |       17056 |
|     749 | 0x42CC      |       17100 |
|     750 | 0x4354      |       17236 |
|     751 | 0x4344      |       17220 |
|     752 | 0x435A      |       17242 |
|     753 | 0x43D1      |       17361 |
|     754 | 0x45B9      |       17849 |
|     755 | 0x43CF      |       17359 |
|     756 | 0x3023      |       12323 |
|     757 | 0x3017      |       12311 |
|     758 | 0x3F2A      |       16170 |
|     759 | 0x300E      |       12302 |
|     760 | 0x3014      |       12308 |
|     761 | 0x3007      |       12295 |
|     762 | 0x300F      |       12303 |
|     763 | 0x3024      |       12324 |
|     764 | 0x3016      |       12310 |
|     765 | 0x305F      |       12383 |
|     766 | 0x3047      |       12359 |
|     767 | 0x0185      |         389 |
|     768 | 0x01E4      |         484 |
|     769 | 0x016A      |         362 |
|     770 | 0x037B      |         891 |
|     771 | 0x02F0      |         752 |
|     772 | 0x03FA      |        1018 |
|     773 | 0x012F      |         303 |
|     774 | 0x054A      |        1354 |
|     775 | 0x03E5      |         997 |
|     776 | 0x05CD      |        1485 |
|     777 | 0x0401      |        1025 |
|     778 | 0x022C      |         556 |
|     779 | 0x0483      |        1155 |
|     780 | 0x04E5      |        1253 |
|     781 | 0x02DF      |         735 |
|     782 | 0x01E3      |         483 |
|     783 | 0x01E2      |         482 |
|     784 | 0x0192      |         402 |
|     785 | 0x0104      |         260 |
|     786 | 0x0278      |         632 |
|     787 | 0x031B      |         795 |
|     788 | 0x011C      |         284 |
|     789 | 0x01B3      |         435 |
|     790 | 0x026F      |         623 |
|     791 | 0x0205      |         517 |
|     792 | 0x0215      |         533 |
|     793 | 0x02BC      |         700 |
|     794 | 0x01C8      |         456 |
|     795 | 0x0339      |         825 |
|     796 | 0x01D9      |         473 |
|     797 | 0x0119      |         281 |
|     798 | 0x018B      |         395 |
|     799 | 0x0230      |         560 |
|     800 | 0x0618      |        1560 |
|     801 | 0x00CC      |         204 |
|     802 | 0x4027      |       16423 |
|     803 | 0x495E      |       18782 |
|     804 | 0x4056      |       16470 |
|     805 | 0x4065      |       16485 |
|     806 | 0x4AC2      |       19138 |
|     807 | 0x4500      |       17664 |
|     808 | 0x49D5      |       18901 |
|     809 | 0x4ACF      |       19151 |
|     810 | 0x4ADD      |       19165 |
|     811 | 0x4AE2      |       19170 |
|     812 | 0x4114      |       16660 |
|     813 | 0x4869      |       18537 |
|     814 | 0x4143      |       16707 |
|     815 | 0x484F      |       18511 |
|     816 | 0x4855      |       18517 |
|     817 | 0x4189      |       16777 |
|     818 | 0x4A14      |       18964 |
|     819 | 0x487B      |       18555 |
|     820 | 0x41C8      |       16840 |
|     821 | 0x41DD      |       16861 |
|     822 | 0x4B75      |       19317 |
|     823 | 0x47F4      |       18420 |
|     824 | 0x4B55      |       19285 |
|     825 | 0x4B5D      |       19293 |
|     826 | 0x424B      |       16971 |
|     827 | 0x4243      |       16963 |
|     828 | 0x49A0      |       18848 |
|     829 | 0x49BB      |       18875 |
|     830 | 0x49BD      |       18877 |
|     831 | 0x42CE      |       17102 |
|     832 | 0x48BD      |       18621 |
|     833 | 0x4907      |       18695 |
|     834 | 0x4D15      |       19733 |
|     835 | 0x4364      |       17252 |
|     836 | 0x433D      |       17213 |
|     837 | 0x4B41      |       19265 |
|     838 | 0x4B43      |       19267 |
|     839 | 0x4D17      |       19735 |
|     840 | 0x3015      |       12309 |
|     841 | 0x3011      |       12305 |
|     842 | 0x3063      |       12387 |
|     843 | 0x3061      |       12385 |
|     844 | 0x3F3D      |       16189 |
|     845 | 0x0409      |        1033 |
|     846 | 0x012C      |         300 |
|     847 | 0x02AF      |         687 |
|     848 | 0x0354      |         852 |
|     849 | 0x0659      |        1625 |
|     850 | 0x0362      |         866 |
|     851 | 0x02B6      |         694 |
|     852 | 0x02BD      |         701 |
|     853 | 0x0316      |         790 |
|     854 | 0x02A3      |         675 |
|     855 | 0x02FA      |         762 |
|     856 | 0x0187      |         391 |
|     857 | 0x039E      |         926 |
|     858 | 0x0231      |         561 |
|     859 | 0x02C4      |         708 |
|     860 | 0x0204      |         516 |
|     861 | 0x0169      |         361 |
|     862 | 0x0328      |         808 |
|     863 | 0x028A      |         650 |
|     864 | 0x0290      |         656 |
|     865 | 0x0284      |         644 |
|     866 | 0x08B7      |        2231 |
|     867 | 0x0AC3      |        2755 |
|     868 | 0x0010      |          16 |
|     869 | 0x2C82      |       11394 |
|     870 | 0x0011      |          17 |
|     871 | 0x0024      |          36 |
|     872 | 0x2C83      |       11395 |
|     873 | 0x2C84      |       11396 |
|     874 | 0x2C85      |       11397 |
|     875 | 0x001F      |          31 |
|     876 | 0x1FFFF     |      131071 |
|     877 | 0x279A      |       10138 |
|     878 | 0x27A4      |       10148 |
|     879 | 0x27A8      |       10152 |
|     880 | 0x27C5      |       10181 |
|     881 | 0x2C86      |       11398 |
|     882 | 0x03E8      |        1000 |
|     883 | 0x2C87      |       11399 |
|     884 | 0x0012      |          18 |
|     885 | 0x0013      |          19 |
|     886 | 0x7530      |       30000 |
|     887 | 0x2C88      |       11400 |
|     888 | 0x2C8A      |       11402 |
|     889 | 0x2C8D      |       11405 |
|     890 | 0x0FDB      |        4059 |
|     891 | 0x0FDC      |        4060 |
|     892 | 0x0FDD      |        4061 |
|     893 | 0x2C8B      |       11403 |
|     894 | 0x2C8C      |       11404 |
|     895 | 0x09B2      |        2482 |
|     896 | 0x09B3      |        2483 |
|     897 | 0x09B4      |        2484 |
|     898 | 0x09B5      |        2485 |
|     899 | 0x09B6      |        2486 |
|     900 | 0x09B7      |        2487 |
|     901 | 0x2C8F      |       11407 |
|     902 | 0x2C90      |       11408 |
|     903 | 0x2C8E      |       11406 |
|     904 | 0x2C64      |       11364 |
|     905 | 0x2C69      |       11369 |
|     906 | 0x2C6F      |       11375 |
|     907 | 0x2C74      |       11380 |

## String References

- **11357**: The $3 nods in agreement.
- **11360**: You wish to exchange your sparks?
- **11361**: Wait but a moment. Here, follow this command--er, compendium to the letter and you should be able to learn a thing or two.
- **11362**: Ah, this almost slipped my mind. Should you receive any distinct sorts of artifacts for completing an objective, I will be happy to take them off your hands.
- **11363**: Worry not, for I am not out to rob you of your glory. Quite the opposite, in fact. I will provide you with a worthwhile reward for collecting them.
- **11364**: Thanks to your donation, I now have $1 $0 in safekeeping.
- **11365**: Ohohoho... Turning in sparks, I see.
- **11366**: Hold your hoarder hares, [hero/heroine]. I love your enthusiasm, but you're not going to learn a thing without a primer. Ahhh, here it is. Have a look-see.
- **11367**: Oh, crud, that's right. You should trade me any special artifacts you get from completing objectives.
- **11368**: "Why?" What a good question! Because I'll give you a nifty-difty reward at some point, that's why.
- **11369**: Thanks for doing what I asked. Now I have a total of $1 $0 from you.
- **11370**: You want to trrrade in sparks, do you?
- **11371**: Let me wake up from my catnap first... Alright, now rrread this.
- **11372**: Wait, wait, wait! If you happen to get any purrrticularly interesting items from completing objectives, send them my way.
- **11373**: Don't worry, I'm as honest as a cat when the meat's out of reach. I thought of taking them all for myself...
- **11374**: ...but I don't want to make fur fly with the Adventurers' Mutual Aid Network, so I'll do my job like a good little kitty.
- **11375**: Grrreat! Now I have $1 $0 from you. Thanks!
- **11376**: Hm? Oh, spark exchange... Of course.
- **11377**: I'm not completely sure, but this might help set some things straight...I guess.
- **11378**: Let me add one thing. Please find it within your heart of hearts to give me anything of particular interest you get from completing objectives.
- **11379**: I'll make it worth your while...I swear! Just keep at it and I'll be sure to surprise you with a hot, steaming helping of gratitude one day.
- **11380**: Thanks for doing your part in the battle for love and peace! With this latest addition, I'm now keeping track of $1 $0 for you.
- **11381**: "Records of Eminence is a system brought to you by the caring folks at the Adventurers' Mutual Aid Network. Set your own objectives whenever you desire, and fulfill them to receive compensation.
- **11382**: "To set these tasks, select 'Objective List' from the Quests menu, then choose ones that suit your fancy.
- **11383**: "You will be rewarded with gil and sparks of eminence, which serve the same function as points, notes, credits, and other such methods of quantifying one's greatness. As an extra incentive, adventurers will earn three times the amount of sparks for completing an objective the first time.
- **11384**: "Completed objectives will vanish from your quest list unless they are repeatable. In the event that you wish to make room for different objectives, you will need to remove them manually.
- **11385**: "As a corollary regarding rewards, you'll be blessed with special remuneration once you complete several objectives. Bask in the joy of these pleasant surprises when you can.
- **11386**: "Lastly, any and all acts of vandalism directed against your $3 are strictly prohibited.
- **11387**: "Should you be found in violation of this dictum, the heavens will part and wrath incarnate will descend to mete out justice upon you."
- **11393**: Exchange for what? (Sparks: $0) [Items./Skill-increasing tomes./Equ. Lv.1 - 9. (Up to $")/Equ. Lv.10 - 19. (Up to $")/Equ. Lv.20 - 29. (Up to $")/Equ. Lv.30 - 39. (Up to $")/Equ. Lv.40 - 50. (Up to $")/Equ. Lv.51 - 70. (Up to $")/Equ. Lv.71 - 98. (Up to $")/Equ. Lv.99. (Up to $")/10./Trust./Exchange A.M.A.N. currencies./Exchange Seven Treasures./Wise words on Records of Eminence./Nothing.]
- **11395**: Receive how many? ($6 spark[/s]) [One. ($1 spark[/s])/Three. ($2 spark[/s])/Twelve. ($3 spark[/s])/Thirty-six. ($4 spark[/s])/None.]
- **11396**: Are you sure you want to expend $0 spark[/s] of eminence on this?
- **11397**: Make the exchange? [Yes./No.]
- **11398**: Exchange for what? (On hand: $0) [Currencies./Provisions./None for the nonce.]
- **11399**: Exchange for what? (On hand: $0) [Sparks of Eminence: $1./Conquest Points: $2./Imperial Standing: $3./Allied Notes: $4./Bayld: $5./Valor Pts.: $6./Aslt. Pts. (Leujaoam): $7./Aslt. Pts. (T. Grounds): $8./Aslt. Pts. (Lebros): $9./Aslt. Pts. (Periqia): $10./Aslt. Pts. (Ilrusi): $11./Cruor: $12./Kinetic Units: $13./Obs. Fragments: $14./M. Plasm Corpuscles: $15./Ballista Points: $16. (2000 max)/Unity Accolades: $17./Escha Silt: $18./Resistance Credits: $19./Nothing for the nonce.]
- **11400**: Exchange how many points? (On hand: $0) [$1 (One)./$2 (Three)./$3 (Ten)./$4 (Thirty)./None.]
- **11402**: Beware that any amount that exceeds the maximum storage limit will unceremoniously vanish into the aether.
- **11404**: Exchange how many? (On hand: $0) [One ($1)./Three ($2)./Ten ($3)./Thirty ($4)./None.]
- **11405**: Truly exchange $0 ($2)?
- **11406**: Are you quite satisfied with your selection?
- **11407**: You wish to exchange $6, $6, $6, $6, $6, and $6 for equipment?
- **11459**: I promise the world will unfold before you if you set an "Objective" under the "Records of Eminence" section of the Quests menu.
- **11460**: Hmhmhm? Whatever could you want with me, the one-and-only Love and Peace Coalition maester?
- **11461**: Anything to say? [That title sounds fake./You creep me out./Nothing. Just walk away.]
- **11462**: What a cruel, cruel world we live in. The people cry out for love with their hearts, but cannot bear to do it with their lips! They long for peace, but only seem to find it in solitude!
- **11463**: There's nothing scary about standing in the center of Western Adoulin and professing my love for humanity. I am simply following the orders of divine provenance!
- **11464**: Is your love larger than the largest kingdom and softer than a sough?
- **11465**: What? Don't tell me you've never heard of a one-man coalition.
- **11466**: Wait a second...you're one of those adventurers from the Middle Lands.
- **11467**: Oh boy, have I got something for you... You've already accomplished your first Records of Eminence objective just by calling out to me through the depths of loneliness!
- **11468**: I beg you not to stop here. No matter how difficult it may seem, do not stray from the path of self-improvement.
- **11469**: If you won't do it for yourself, then do it for all the spoils you'll get...including my undying fraternal love for you. ...Wait but the slightest of instants.
- **11470**: This doll that just appeared out of thin air is called $6. It archives your achievements and yours alone, so let's slap your name on it.
- **11471**: Eternal Flame inscribes your name upon the doll in an adorable hand.
- **11472**: You've taken Eternal Flame's passionately burning love deep inside yourself!
- **11473**: Now that you're filled with my flame of passion, you're ready to spread love and peace all over the land!
- **11474**: In case you didn't know, you go about doing this by adding objectives via the "Objective List" under the "Records of Eminence" section of the Quests menu.
- **11475**: The war for peace is never-ending, so there should be some challenges you can repeat indefinitely! Try them all out for as long as your interest holds.
- **11476**: Once you've accrued enough eminence, come see me. I'll give you some rewards...dripping with my love!
- **11477**: Oh, yeah. About that $3...
- **11478**: ...Doing that will get it out of your hair.
- **11479**: It's a brand-spanking-new model developed with "astral farina" or something in mind. It works like the luopans geomancers use.
- **11480**: Until we meet again, brave [gent/maiden]. While you're at it, don't forget to point any peace lovers you see my way. I'm always looking for people to swell my ranks, if you know what I mean.

## Events

### Event 65535

#### Metadata

| Field        | Value   |
|--------------|---------|
| Entrypoint   | 0x0000  |
| Data Size    | 1 bytes |
| Instructions | 1       |

```
      00 01 02 03 04 05 06 07  08 09 0A 0B 0C 0D 0E 0F
      -- -- -- -- -- -- -- --  -- -- -- -- -- -- -- --
0000: 00                                                .               
```

#### Opcodes

```
  0: 0x0000 [0x00] END_REQSTACK()
```

### Event 5079

#### Metadata

| Field        | Value      |
|--------------|------------|
| Entrypoint   | 0x0001     |
| Data Size    | 1464 bytes |
| Instructions | 214        |

```
      00 01 02 03 04 05 06 07  08 09 0A 0B 0C 0D 0E 0F
      -- -- -- -- -- -- -- --  -- -- -- -- -- -- -- --
0000:    42 06 01 10 1A CA 27  46 01 38 00 80 2F 00 39   B.....'F.8../.9
0010: 01 10 01 2F 00 3B 01 10  01 4E 00 39 01 10 01 4E  .../.;...N.9...N
0020: 00 3B 01 10 01 59 05 39  01 10 01 01 59 05 3B 01  .;...Y.9....Y.;.
0030: 10 01 01 92 01 38 01 10  01 92 01 39 01 10 01 92  .....8.....9....
0040: 01 3A 01 10 01 92 01 16  01 10 01 92 01 18 01 10  .:..............
0050: 01 92 01 1A 01 10 01 92  01 3B 01 10 01 94 01 F0  .........;......
0060: FF FF 7F 94 01 38 01 10  01 94 01 39 01 10 01 94  .....8.....9....
0070: 01 3A 01 10 01 94 01 16  01 10 01 94 01 18 01 10  .:..............
0080: 01 94 01 1A 01 10 01 94  01 3B 01 10 01 BA F0 FF  .........;......
0090: FF 7F 01 80 02 80 03 80  04 80 BA 39 01 10 01 05  ...........9....
00A0: 80 06 80 07 80 08 80 6C  39 01 10 01 03 80 09 80  .......l9.......
00B0: 4A F0 FF FF 7F 38 01 10  01 4B 38 01 10 01 0A 80  J....8...K8.....
00C0: 80 F0 FF FF 7F 80 38 01  10 01 80 39 01 10 01 80  ......8....9....
00D0: 3A 01 10 01 80 16 01 10  01 80 18 01 10 01 80 1A  :...............
00E0: 01 10 01 80 3B 01 10 01  4A 39 01 10 01 38 01 10  ....;...J9...8..
00F0: 01 5C 00 0B 80 5C 01 0B  80 9A 45 0C 80 F8 FF FF  .\...\....E.....
0100: 7F F8 FF FF 7F 73 31 39  36 03 80 1C 0D 80 1A A9  .....s196.......
0110: 27 79 00 38 01 10 01 F0  FF FF 7F 1C 0E 80 4A 38  'y.8..........J8
0120: 01 10 01 F0 FF FF 7F 6F  76 38 01 10 01 79 00 3A  .......ov8...y.:
0130: 01 10 01 F0 FF FF 7F 1D  0F 80 23 06 00 00 24 10  ..........#...$.
0140: 80 03 80 03 80 25 02 00  10 03 80 00 A7 01 52 0C  .....%........R.
0150: 80 F8 FF FF 7F F8 FF FF  7F 73 31 39 36 45 0C 80  .........s196E..
0160: F8 FF FF 7F F8 FF FF 7F  73 32 30 30 03 80 79 00  ........s200..y.
0170: 3A 01 10 01 38 01 10 01  6E F8 FF FF 7F 11 80 99  :...8...n.......
0180: F8 FF FF 7F 1D 12 80 23  1C 0D 80 79 00 3A 01 10  .......#...y.:..
0190: 01 F0 FF FF 7F 52 0C 80  F8 FF FF 7F F8 FF FF 7F  .....R..........
01A0: 73 32 30 30 01 70 02 02  00 10 09 80 00 31 02 52  s200.p.......1.R
01B0: 0C 80 F8 FF FF 7F F8 FF  FF 7F 73 31 39 36 02 00  ..........s196..
01C0: 00 13 80 04 F0 01 45 0C  80 F8 FF FF 7F F8 FF FF  ......E.........
01D0: 7F 73 31 39 39 03 80 1D  14 80 23 1C 0D 80 52 0C  .s199.....#...R.
01E0: 80 F8 FF FF 7F F8 FF FF  7F 73 31 39 39 01 2E 02  .........s199...
01F0: 45 0C 80 F8 FF FF 7F F8  FF FF 7F 73 31 39 38 03  E..........s198.
0200: 80 0B 00 00 1D 15 80 23  1C 0D 80 52 0C 80 F8 FF  .......#...R....
0210: FF 7F F8 FF FF 7F 73 31  39 38 45 0C 80 F8 FF FF  ......s198E.....
0220: 7F F8 FF FF 7F 73 31 39  36 03 80 01 3E 01 01 70  .....s196...>..p
0230: 02 02 00 10 16 80 00 70  02 52 0C 80 F8 FF FF 7F  .......p.R......
0240: F8 FF FF 7F 73 31 39 36  45 0C 80 F8 FF FF 7F F8  ....s196E.......
0250: FF FF 7F 73 31 39 37 03  80 79 00 3A 01 10 01 38  ...s197..y.:...8
0260: 01 10 01 1D 17 80 23 1C  18 80 01 57 05 01 70 02  ......#....W..p.
0270: 45 0C 80 F8 FF FF 7F F8  FF FF 7F 73 32 30 31 03  E..........s201.
0280: 80 66 19 80 F8 FF FF 7F  F8 FF FF 7F 74 6C 6B 30  .f..........tlk0
0290: 1D 1A 80 23 1D 1B 80 23  52 0C 80 F8 FF FF 7F F8  ...#...#R.......
02A0: FF FF 7F 73 32 30 31 45  0C 80 F8 FF FF 7F F8 FF  ...s201E........
02B0: FF 7F 73 32 30 32 03 80  66 19 80 F8 FF FF 7F F8  ..s202..f.......
02C0: FF FF 7F 74 6C 6B 31 79  00 3A 01 10 01 38 01 10  ...tlk1y.:...8..
02D0: 01 1D 1C 80 23 6E F8 FF  FF 7F 1D 80 99 F8 FF FF  ....#n..........
02E0: 7F 1D 1E 80 23 52 0C 80  F8 FF FF 7F F8 FF FF 7F  ....#R..........
02F0: 73 32 30 32 45 0C 80 F8  FF FF 7F F8 FF FF 7F 73  s202E..........s
0300: 32 30 33 03 80 6E 38 01  10 01 1F 80 99 38 01 10  203..n8......8..
0310: 01 1C 20 80 6C 39 01 10  01 21 80 22 80 1C 0D 80  .. .l9...!."....
0320: 4A 38 01 10 01 39 01 10  01 6F 76 38 01 10 01 03  J8...9...ov8....
0330: 02 10 23 80 1D 24 80 23  4A F0 FF FF 7F 39 01 10  ..#..$.#J....9..
0340: 01 52 0C 80 F8 FF FF 7F  F8 FF FF 7F 73 32 30 33  .R..........s203
0350: 45 0C 80 F8 FF FF 7F F8  FF FF 7F 73 32 30 34 03  E..........s204.
0360: 80 6E 38 01 10 01 03 80  99 38 01 10 01 03 02 10  .n8......8......
0370: 23 80 48 25 80 1C 26 80  5B 27 80 39 01 10 01 39  #.H%..&.['.9...9
0380: 01 10 01 62 72 75 30 03  02 10 23 80 48 28 80 1C  ...bru0...#.H(..
0390: 26 80 6B 69 64 6C 30 39  01 10 01 4A 38 01 10 01  &.kidl09...J8...
03A0: F0 FF FF 7F 52 0C 80 F8  FF FF 7F F8 FF FF 7F 73  ....R..........s
03B0: 32 30 34 45 0C 80 F8 FF  FF 7F F8 FF FF 7F 73 32  204E..........s2
03C0: 30 35 03 80 6F 76 38 01  10 01 1C 29 80 6E 38 01  05..ov8....).n8.
03D0: 10 01 1D 80 99 38 01 10  01 1C 18 80 27 05 F0 FF  .....8......'...
03E0: FF 7F 72 48 2A 80 23 1C  18 80 52 0C 80 F8 FF FF  ..rH*.#...R.....
03F0: 7F F8 FF FF 7F 73 32 30  35 45 0C 80 F8 FF FF 7F  .....s205E......
0400: F8 FF FF 7F 73 32 30 36  03 80 4A 39 01 10 01 F0  ....s206..J9....
0410: FF FF 7F 6F 76 39 01 10  01 6F 76 38 01 10 01 4A  ...ov9...ov8...J
0420: F0 FF FF 7F 38 01 10 01  66 19 80 F8 FF FF 7F F8  ....8...f.......
0430: FF FF 7F 74 6C 6B 30 1D  2B 80 23 1D 2C 80 23 66  ...tlk0.+.#.,.#f
0440: 19 80 F8 FF FF 7F F8 FF  FF 7F 74 6C 6B 31 1D 2D  ..........tlk1.-
0450: 80 23 53 F8 FF FF 7F F8  FF FF 7F 74 6C 6B 31 52  .#S........tlk1R
0460: 0C 80 F8 FF FF 7F F8 FF  FF 7F 73 32 30 36 45 0C  ..........s206E.
0470: 80 F8 FF FF 7F F8 FF FF  7F 73 32 30 37 03 80 66  .........s207..f
0480: 2E 80 F8 FF FF 7F F8 FF  FF 7F 70 6F 73 30 1C 2F  ..........pos0./
0490: 80 1D 30 80 23 52 0C 80  F8 FF FF 7F F8 FF FF 7F  ..0.#R..........
04A0: 73 32 30 37 45 0C 80 F8  FF FF 7F F8 FF FF 7F 73  s207E..........s
04B0: 32 30 38 03 80 6E 38 01  10 01 1D 80 99 38 01 10  208..n8......8..
04C0: 01 03 02 10 23 80 1D 31  80 23 6E 38 01 10 01 1F  ....#..1.#n8....
04D0: 80 99 38 01 10 01 1C 20  80 BB 32 80 39 01 10 01  ..8.... ..2.9...
04E0: 39 01 10 01 74 72 67 30  03 80 1C 33 80 52 0C 80  9...trg0...3.R..
04F0: F8 FF FF 7F F8 FF FF 7F  73 32 30 38 45 0C 80 F8  ........s208E...
0500: FF FF 7F F8 FF FF 7F 73  32 30 39 03 80 1D 34 80  .......s209...4.
0510: 23 6E 38 01 10 01 35 80  99 38 01 10 01 1D 36 80  #n8...5..8....6.
0520: 23 52 0C 80 F8 FF FF 7F  F8 FF FF 7F 73 32 30 39  #R..........s209
0530: 45 0C 80 F8 FF FF 7F F8  FF FF 7F 73 32 31 30 03  E..........s210.
0540: 80 66 19 80 F8 FF FF 7F  F8 FF FF 7F 74 6C 6B 30  .f..........tlk0
0550: 1D 37 80 23 05 01 10 1A  CA 27 52 0C 80 F8 FF FF  .7.#.....'R.....
0560: 7F F8 FF FF 7F 73 31 39  37 52 0C 80 F8 FF FF 7F  .....s197R......
0570: F8 FF FF 7F 73 32 31 30  5C 00 38 80 5C 01 38 80  ....s210\.8.\.8.
0580: 9A 1C 39 80 AB 11 03 80  1C 09 80 46 00 02 01 10  ..9........F....
0590: 09 80 00 A6 05 45 3A 80  F8 FF FF 7F F8 FF FF 7F  .....E:.........
05A0: 71 73 74 63 03 80 45 3B  80 F0 FF FF 7F F0 FF FF  qstc..E;........
05B0: 7F 66 64 69 32 03 80 21  00                       .fdi2..!.       
```

#### Opcodes

```
  0: 0x0001 [0x42] SET_CLI_EVENT_CANCEL_DATA()
  1: 0x0002 [0x06] Work_Zone[1] = 0
  2: 0x0005 [0x1A] CALL_SUBROUTINE(address=0x27CA)
  3: 0x0008 [0x46] CAMERA_CONTROL: Disable user control
  4: 0x000A [0x38] SET_CLIENT_EVENT_MODE(mode=147*)
  5: 0x000D [0x2F] ??? (ID: 17826105/0x01100139)->Render.Flags0 &= ~0x80000 // Bit 19
  6: 0x0013 [0x2F] Waypoint (ID: 17826107/0x0110013B)->Render.Flags0 &= ~0x80000 // Bit 19
  7: 0x0019 [0x4E] SET_ENTITY_HIDE_FLAG: Show ??? (ID: 17826105/0x01100139)
  8: 0x001F [0x4E] SET_ENTITY_HIDE_FLAG: Show Waypoint (ID: 17826107/0x0110013B)
  9: 0x0025 [0x59] UPDATE_ENTITY_DATA: ??? (ID: 17826105/0x01100139)->Render.Flags0 |= 0x200000
 10: 0x002C [0x59] UPDATE_ENTITY_DATA: Waypoint (ID: 17826107/0x0110013B)->Render.Flags0 |= 0x200000
 11: 0x0033 [0x92] Eternal Flame (ID: 17826104/0x01100138)->Render.Flags3 ^= 0x01
 12: 0x0039 [0x92] ??? (ID: 17826105/0x01100139)->Render.Flags3 ^= 0x01
 13: 0x003F [0x92] Duberasson (ID: 17826106/0x0110013A)->Render.Flags3 ^= 0x01
 14: 0x0045 [0x92] Gorad (ID: 17826070/0x01100116)->Render.Flags3 ^= 0x01
 15: 0x004B [0x92] Noan (ID: 17826072/0x01100118)->Render.Flags3 ^= 0x01
 16: 0x0051 [0x92] Dangueubert (ID: 17826074/0x0110011A)->Render.Flags3 ^= 0x01
 17: 0x0057 [0x92] Waypoint (ID: 17826107/0x0110013B)->Render.Flags3 ^= 0x01
 18: 0x005D [0x94] LocalPlayer->Render.Flags3 ^= 0x01
 19: 0x0063 [0x94] Eternal Flame (ID: 17826104/0x01100138)->Render.Flags3 ^= 0x01
 20: 0x0069 [0x94] ??? (ID: 17826105/0x01100139)->Render.Flags3 ^= 0x01
 21: 0x006F [0x94] Duberasson (ID: 17826106/0x0110013A)->Render.Flags3 ^= 0x01
 22: 0x0075 [0x94] Gorad (ID: 17826070/0x01100116)->Render.Flags3 ^= 0x01
 23: 0x007B [0x94] Noan (ID: 17826072/0x01100118)->Render.Flags3 ^= 0x01
 24: 0x0081 [0x94] Dangueubert (ID: 17826074/0x0110011A)->Render.Flags3 ^= 0x01
 25: 0x0087 [0x94] Waypoint (ID: 17826107/0x0110013B)->Render.Flags3 ^= 0x01
 26: 0x008D [0xBA] SET_ENTITY_POSITION(entity_id=LocalPlayer, pos_x=16.104*, pos_z=-118.500*, pos_y=0.000*, direction=163.2*)
 27: 0x009A [0xBA] SET_ENTITY_POSITION(entity_id=??? (ID: 17826105/0x01100139), pos_x=13.901*, pos_z=-120.454*, pos_y=-0.148*, direction=310.9*)
 28: 0x00A7 [0x6C] FADE_ENTITY_COLOR(entity_id=??? (ID: 17826105/0x01100139), end_alpha=0*, fade_time=1*)
 29: 0x00B0 [0x4A] LocalPlayer looks at Eternal Flame (ID: 17826104/0x01100138)
 30: 0x00B9 [0x4B] UPDATE_ENTITY_YAW(entity=Eternal Flame (ID: 17826104/0x01100138), yaw=2.2*)
 31: 0x00C0 [0x80] LOAD_WAIT(entity=LocalPlayer)
 32: 0x00C5 [0x80] LOAD_WAIT(entity=Eternal Flame (ID: 17826104/0x01100138))
 33: 0x00CA [0x80] LOAD_WAIT(entity=??? (ID: 17826105/0x01100139))
 34: 0x00CF [0x80] LOAD_WAIT(entity=Duberasson (ID: 17826106/0x0110013A))
 35: 0x00D4 [0x80] LOAD_WAIT(entity=Gorad (ID: 17826070/0x01100116))
 36: 0x00D9 [0x80] LOAD_WAIT(entity=Noan (ID: 17826072/0x01100118))
 37: 0x00DE [0x80] LOAD_WAIT(entity=Dangueubert (ID: 17826074/0x0110011A))
 38: 0x00E3 [0x80] LOAD_WAIT(entity=Waypoint (ID: 17826107/0x0110013B))
 39: 0x00E8 [0x4A] ??? (ID: 17826105/0x01100139) looks at Eternal Flame (ID: 17826104/0x01100138)
 40: 0x00F1 [0x5C] MUSIC_CONTROL: Set Idle (Day) music to song 163*
 41: 0x00F5 [0x5C] MUSIC_CONTROL: Set Idle (Night) music to song 163*
 42: 0x00F9 [0x9A] WAIT_MUSIC_SERVER()
 43: 0x00FA [0x45] LOAD_SCHEDULED_TASK: Load scheduler "s196" with entities [EventEntity, EventEntity], work=[627*, 0*]
 44: 0x010B [0x1C] WAIT(30* ticks)
 45: 0x010E [0x1A] CALL_SUBROUTINE(address=0x27A9)
 46: 0x0111 [0x79] Eternal Flame (ID: 17826104/0x01100138) looks at LocalPlayer (Basic look)
 47: 0x011B [0x1C] WAIT(50* ticks)
 48: 0x011E [0x4A] Eternal Flame (ID: 17826104/0x01100138) looks at LocalPlayer
 49: 0x0127 [0x6F] WAIT_FRAME_DELAY: Yield until WaitTime reaches zero
 50: 0x0128 [0x76] CHECK_ENTITY_RENDER_FLAGS: Wait until Eternal Flame (ID: 17826104/0x01100138) Render.Flags0 and Render.Flags3 conditions are met
 51: 0x012D [0x79] Duberasson (ID: 17826106/0x0110013A) looks at LocalPlayer (Basic look)
 52: 0x0137 [0x1D] PRINT_EVENT_MESSAGE(message_id=11460*)
     "Hmhmhm? Whatever could you want with me, the one-and-only Love and Peace Coalition maester?"
 53: 0x013A [0x23] WAIT_FOR_DIALOG_INTERACTION
 54: 0x013B [0x06] ExtData[1]->WorkLocal[0] = 0
 55: 0x013E [0x24] CREATE_DIALOG(message_id=11461*, default_option=0*, option_flags=0*)
     "Anything to say? [That title sounds fake./You creep me out./Nothing. Just walk away.]"
 56: 0x0145 [0x25] WAIT_DIALOG_SELECT()
 57: 0x0146 [0x02] IF !(Work_Zone[0] == 0*) GOTO 0x01A7
 58: 0x014E [0x52] END_LOAD_SCHEDULER: End scheduler "s196" with entities [EventEntity, EventEntity], work=627*
 59: 0x015D [0x45] LOAD_SCHEDULED_TASK: Load scheduler "s200" with entities [EventEntity, EventEntity], work=[627*, 0*]
 60: 0x016E [0x79] Duberasson (ID: 17826106/0x0110013A) looks at Eternal Flame (ID: 17826104/0x01100138) (Basic look)
 61: 0x0178 [0x6E] EventEntity uses emote 22*
 62: 0x017F [0x99] Wait for EventEntity animation to complete
 63: 0x0184 [0x1D] PRINT_EVENT_MESSAGE(message_id=11465*)
     "What? Don't tell me you've never heard of a one-man coalition."
 64: 0x0187 [0x23] WAIT_FOR_DIALOG_INTERACTION
 65: 0x0188 [0x1C] WAIT(30* ticks)
 66: 0x018B [0x79] Duberasson (ID: 17826106/0x0110013A) looks at LocalPlayer (Basic look)
 67: 0x0195 [0x52] END_LOAD_SCHEDULER: End scheduler "s200" with entities [EventEntity, EventEntity], work=627*
 68: 0x01A4 [0x01] GOTO 0x0270
 69: 0x01A7 [0x02] IF !(Work_Zone[0] == 1*) GOTO 0x0231
 70: 0x01AF [0x52] END_LOAD_SCHEDULER: End scheduler "s196" with entities [EventEntity, EventEntity], work=627*
 71: 0x01BE [0x02] IF !(ExtData[1]->WorkLocal[0] < 4*) GOTO 0x01F0
 72: 0x01C6 [0x45] LOAD_SCHEDULED_TASK: Load scheduler "s199" with entities [EventEntity, EventEntity], work=[627*, 0*]
 73: 0x01D7 [0x1D] PRINT_EVENT_MESSAGE(message_id=11464*)
     "Is your love larger than the largest kingdom and softer than a sough?"
 74: 0x01DA [0x23] WAIT_FOR_DIALOG_INTERACTION
 75: 0x01DB [0x1C] WAIT(30* ticks)
 76: 0x01DE [0x52] END_LOAD_SCHEDULER: End scheduler "s199" with entities [EventEntity, EventEntity], work=627*
 77: 0x01ED [0x01] GOTO 0x022E
 78: 0x01F0 [0x45] LOAD_SCHEDULED_TASK: Load scheduler "s198" with entities [EventEntity, EventEntity], work=[627*, 0*]
 79: 0x0201 [0x0B] ExtData[1]->WorkLocal[0]++
 80: 0x0204 [0x1D] PRINT_EVENT_MESSAGE(message_id=11463*)
     "There's nothing scary about standing in the center of Western Adoulin and professing my love for humanity. I am simply following the orders of divine provenance!"
 81: 0x0207 [0x23] WAIT_FOR_DIALOG_INTERACTION
 82: 0x0208 [0x1C] WAIT(30* ticks)
 83: 0x020B [0x52] END_LOAD_SCHEDULER: End scheduler "s198" with entities [EventEntity, EventEntity], work=627*
 84: 0x021A [0x45] LOAD_SCHEDULED_TASK: Load scheduler "s196" with entities [EventEntity, EventEntity], work=[627*, 0*]
 85: 0x022B [0x01] GOTO 0x013E

SUBROUTINE_022E:
 86: 0x022E [0x01] GOTO 0x0270
 87: 0x0231 [0x02] IF !(Work_Zone[0] == 2*) GOTO 0x0270
 88: 0x0239 [0x52] END_LOAD_SCHEDULER: End scheduler "s196" with entities [EventEntity, EventEntity], work=627*
 89: 0x0248 [0x45] LOAD_SCHEDULED_TASK: Load scheduler "s197" with entities [EventEntity, EventEntity], work=[627*, 0*]
 90: 0x0259 [0x79] Duberasson (ID: 17826106/0x0110013A) looks at Eternal Flame (ID: 17826104/0x01100138) (Basic look)
 91: 0x0263 [0x1D] PRINT_EVENT_MESSAGE(message_id=11462*)
     "What a cruel, cruel world we live in. The people cry out for love with their hearts, but cannot bear to do it with their lips! They long for peace, but only seem to find it in solitude!"
 92: 0x0266 [0x23] WAIT_FOR_DIALOG_INTERACTION
 93: 0x0267 [0x1C] WAIT(60* ticks)
 94: 0x026A [0x01] GOTO 0x0557

SUBROUTINE_0270:
 95: 0x0270 [0x45] LOAD_SCHEDULED_TASK: Load scheduler "s201" with entities [EventEntity, EventEntity], work=[627*, 0*]
 96: 0x0281 [0x66] LOAD_EXT_SCHEDULER_MAIN: Load scheduler "tlk0" with entities [EventEntity, EventEntity], work=69*
 97: 0x0290 [0x1D] PRINT_EVENT_MESSAGE(message_id=11466*)
     "Wait a second...you're one of those adventurers from the Middle Lands."
 98: 0x0293 [0x23] WAIT_FOR_DIALOG_INTERACTION
 99: 0x0294 [0x1D] PRINT_EVENT_MESSAGE(message_id=11467*)
     "Oh boy, have I got something for you... You've already accomplished your first Records of Eminence objective just by calling out to me through the depths of loneliness!"
100: 0x0297 [0x23] WAIT_FOR_DIALOG_INTERACTION
101: 0x0298 [0x52] END_LOAD_SCHEDULER: End scheduler "s201" with entities [EventEntity, EventEntity], work=627*
102: 0x02A7 [0x45] LOAD_SCHEDULED_TASK: Load scheduler "s202" with entities [EventEntity, EventEntity], work=[627*, 0*]
103: 0x02B8 [0x66] LOAD_EXT_SCHEDULER_MAIN: Load scheduler "tlk1" with entities [EventEntity, EventEntity], work=69*
104: 0x02C7 [0x79] Duberasson (ID: 17826106/0x0110013A) looks at Eternal Flame (ID: 17826104/0x01100138) (Basic look)
105: 0x02D1 [0x1D] PRINT_EVENT_MESSAGE(message_id=11468*)
     "I beg you not to stop here. No matter how difficult it may seem, do not stray from the path of self-improvement."
106: 0x02D4 [0x23] WAIT_FOR_DIALOG_INTERACTION
107: 0x02D5 [0x6E] EventEntity uses emote 7*
108: 0x02DC [0x99] Wait for EventEntity animation to complete
109: 0x02E1 [0x1D] PRINT_EVENT_MESSAGE(message_id=11469*)
     "If you won't do it for yourself, then do it for all the spoils you'll get...including my undying fraternal love for you. ...Wait but the slightest of instants."
110: 0x02E4 [0x23] WAIT_FOR_DIALOG_INTERACTION
111: 0x02E5 [0x52] END_LOAD_SCHEDULER: End scheduler "s202" with entities [EventEntity, EventEntity], work=627*
112: 0x02F4 [0x45] LOAD_SCHEDULED_TASK: Load scheduler "s203" with entities [EventEntity, EventEntity], work=[627*, 0*]
113: 0x0305 [0x6E] Eternal Flame (ID: 17826104/0x01100138) uses emote 14*
114: 0x030C [0x99] Wait for Eternal Flame (ID: 17826104/0x01100138) animation to complete
115: 0x0311 [0x1C] WAIT(40* ticks)
116: 0x0314 [0x6C] FADE_ENTITY_COLOR(entity_id=??? (ID: 17826105/0x01100139), end_alpha=128*, fade_time=90*)
117: 0x031D [0x1C] WAIT(30* ticks)
118: 0x0320 [0x4A] Eternal Flame (ID: 17826104/0x01100138) looks at ??? (ID: 17826105/0x01100139)
119: 0x0329 [0x6F] WAIT_FRAME_DELAY: Yield until WaitTime reaches zero
120: 0x032A [0x76] CHECK_ENTITY_RENDER_FLAGS: Wait until Eternal Flame (ID: 17826104/0x01100138) Render.Flags0 and Render.Flags3 conditions are met
121: 0x032F [0x03] Work_Zone[2] = 2466*
122: 0x0334 [0x1D] PRINT_EVENT_MESSAGE(message_id=11470*)
     "This doll that just appeared out of thin air is called $6. It archives your achievements and yours alone, so let's slap your name on it."
123: 0x0337 [0x23] WAIT_FOR_DIALOG_INTERACTION
124: 0x0338 [0x4A] LocalPlayer looks at ??? (ID: 17826105/0x01100139)
125: 0x0341 [0x52] END_LOAD_SCHEDULER: End scheduler "s203" with entities [EventEntity, EventEntity], work=627*
126: 0x0350 [0x45] LOAD_SCHEDULED_TASK: Load scheduler "s204" with entities [EventEntity, EventEntity], work=[627*, 0*]
127: 0x0361 [0x6E] Eternal Flame (ID: 17826104/0x01100138) uses emote 0*
128: 0x0368 [0x99] Wait for Eternal Flame (ID: 17826104/0x01100138) animation to complete
129: 0x036D [0x03] Work_Zone[2] = 2466*
130: 0x0372 [0x48] [System] [11471*]:
     "Eternal Flame inscribes your name upon the doll in an adorable hand."
131: 0x0375 [0x1C] WAIT(120* ticks)
132: 0x0378 [0x5B] LOAD_EXT_SCHEDULER: Load scheduler "bru0" with entities [??? (ID: 17826105/0x01100139), ??? (ID: 17826105/0x01100139)], work=252*
133: 0x0387 [0x03] Work_Zone[2] = 2466*
134: 0x038C [0x48] [System] [11357*]:
     "The $3 nods in agreement."
135: 0x038F [0x1C] WAIT(120* ticks)
136: 0x0392 [0x6B] STOP_AND_IDLE: ??? (ID: 17826105/0x01100139) stops current action and resets to idle (animation="idl0")
137: 0x039B [0x4A] Eternal Flame (ID: 17826104/0x01100138) looks at LocalPlayer
138: 0x03A4 [0x52] END_LOAD_SCHEDULER: End scheduler "s204" with entities [EventEntity, EventEntity], work=627*
139: 0x03B3 [0x45] LOAD_SCHEDULED_TASK: Load scheduler "s205" with entities [EventEntity, EventEntity], work=[627*, 0*]
140: 0x03C4 [0x6F] WAIT_FRAME_DELAY: Yield until WaitTime reaches zero
141: 0x03C5 [0x76] CHECK_ENTITY_RENDER_FLAGS: Wait until Eternal Flame (ID: 17826104/0x01100138) Render.Flags0 and Render.Flags3 conditions are met
142: 0x03CA [0x1C] WAIT(20* ticks)
143: 0x03CD [0x6E] Eternal Flame (ID: 17826104/0x01100138) uses emote 7*
144: 0x03D4 [0x99] Wait for Eternal Flame (ID: 17826104/0x01100138) animation to complete
145: 0x03D9 [0x1C] WAIT(60* ticks)
146: 0x03DC [0x27] REQ_SET(priority=0x05, entity_id=LocalPlayer, tag_num=0x72)
147: 0x03E3 [0x48] [System] [11472*]:
     "You've taken Eternal Flame's passionately burning love deep inside yourself!"
148: 0x03E6 [0x23] WAIT_FOR_DIALOG_INTERACTION
149: 0x03E7 [0x1C] WAIT(60* ticks)
150: 0x03EA [0x52] END_LOAD_SCHEDULER: End scheduler "s205" with entities [EventEntity, EventEntity], work=627*
151: 0x03F9 [0x45] LOAD_SCHEDULED_TASK: Load scheduler "s206" with entities [EventEntity, EventEntity], work=[627*, 0*]
152: 0x040A [0x4A] ??? (ID: 17826105/0x01100139) looks at LocalPlayer
153: 0x0413 [0x6F] WAIT_FRAME_DELAY: Yield until WaitTime reaches zero
154: 0x0414 [0x76] CHECK_ENTITY_RENDER_FLAGS: Wait until ??? (ID: 17826105/0x01100139) Render.Flags0 and Render.Flags3 conditions are met
155: 0x0419 [0x6F] WAIT_FRAME_DELAY: Yield until WaitTime reaches zero
156: 0x041A [0x76] CHECK_ENTITY_RENDER_FLAGS: Wait until Eternal Flame (ID: 17826104/0x01100138) Render.Flags0 and Render.Flags3 conditions are met
157: 0x041F [0x4A] LocalPlayer looks at Eternal Flame (ID: 17826104/0x01100138)
158: 0x0428 [0x66] LOAD_EXT_SCHEDULER_MAIN: Load scheduler "tlk0" with entities [EventEntity, EventEntity], work=69*
159: 0x0437 [0x1D] PRINT_EVENT_MESSAGE(message_id=11473*)
     "Now that you're filled with my flame of passion, you're ready to spread love and peace all over the land!"
160: 0x043A [0x23] WAIT_FOR_DIALOG_INTERACTION
161: 0x043B [0x1D] PRINT_EVENT_MESSAGE(message_id=11474*)
     "In case you didn't know, you go about doing this by adding objectives via the "Objective List" under the "Records of Eminence" section of the Quests menu."
162: 0x043E [0x23] WAIT_FOR_DIALOG_INTERACTION
163: 0x043F [0x66] LOAD_EXT_SCHEDULER_MAIN: Load scheduler "tlk1" with entities [EventEntity, EventEntity], work=69*
164: 0x044E [0x1D] PRINT_EVENT_MESSAGE(message_id=11475*)
     "The war for peace is never-ending, so there should be some challenges you can repeat indefinitely! Try them all out for as long as your interest holds."
165: 0x0451 [0x23] WAIT_FOR_DIALOG_INTERACTION
166: 0x0452 [0x53] WAIT_SCHEDULER_TASK: Wait for scheduler "tlk1" with entities [EventEntity, EventEntity]
167: 0x045F [0x52] END_LOAD_SCHEDULER: End scheduler "s206" with entities [EventEntity, EventEntity], work=627*
168: 0x046E [0x45] LOAD_SCHEDULED_TASK: Load scheduler "s207" with entities [EventEntity, EventEntity], work=[627*, 0*]
169: 0x047F [0x66] LOAD_EXT_SCHEDULER_MAIN: Load scheduler "pos0" with entities [EventEntity, EventEntity], work=134*
170: 0x048E [0x1C] WAIT(45* ticks)
171: 0x0491 [0x1D] PRINT_EVENT_MESSAGE(message_id=11476*)
     "Once you've accrued enough eminence, come see me. I'll give you some rewards...dripping with my love!"
172: 0x0494 [0x23] WAIT_FOR_DIALOG_INTERACTION
173: 0x0495 [0x52] END_LOAD_SCHEDULER: End scheduler "s207" with entities [EventEntity, EventEntity], work=627*
174: 0x04A4 [0x45] LOAD_SCHEDULED_TASK: Load scheduler "s208" with entities [EventEntity, EventEntity], work=[627*, 0*]
175: 0x04B5 [0x6E] Eternal Flame (ID: 17826104/0x01100138) uses emote 7*
176: 0x04BC [0x99] Wait for Eternal Flame (ID: 17826104/0x01100138) animation to complete
177: 0x04C1 [0x03] Work_Zone[2] = 2466*
178: 0x04C6 [0x1D] PRINT_EVENT_MESSAGE(message_id=11477*)
     "Oh, yeah. About that $3..."
179: 0x04C9 [0x23] WAIT_FOR_DIALOG_INTERACTION
180: 0x04CA [0x6E] Eternal Flame (ID: 17826104/0x01100138) uses emote 14*
181: 0x04D1 [0x99] Wait for Eternal Flame (ID: 17826104/0x01100138) animation to complete
182: 0x04D6 [0x1C] WAIT(40* ticks)
183: 0x04D9 [0xBB] LOAD_EVENT_SCHEDULER_ALT: Load scheduler "trg0" with entities [??? (ID: 17826105/0x01100139), ??? (ID: 17826105/0x01100139)], work=[10*, 0*]
184: 0x04EA [0x1C] WAIT(80* ticks)
185: 0x04ED [0x52] END_LOAD_SCHEDULER: End scheduler "s208" with entities [EventEntity, EventEntity], work=627*
186: 0x04FC [0x45] LOAD_SCHEDULED_TASK: Load scheduler "s209" with entities [EventEntity, EventEntity], work=[627*, 0*]
187: 0x050D [0x1D] PRINT_EVENT_MESSAGE(message_id=11478*)
     "...Doing that will get it out of your hair."
188: 0x0510 [0x23] WAIT_FOR_DIALOG_INTERACTION
189: 0x0511 [0x6E] Eternal Flame (ID: 17826104/0x01100138) uses emote 32*
190: 0x0518 [0x99] Wait for Eternal Flame (ID: 17826104/0x01100138) animation to complete
191: 0x051D [0x1D] PRINT_EVENT_MESSAGE(message_id=11479*)
     "It's a brand-spanking-new model developed with "astral farina" or something in mind. It works like the luopans geomancers use."
192: 0x0520 [0x23] WAIT_FOR_DIALOG_INTERACTION
193: 0x0521 [0x52] END_LOAD_SCHEDULER: End scheduler "s209" with entities [EventEntity, EventEntity], work=627*
194: 0x0530 [0x45] LOAD_SCHEDULED_TASK: Load scheduler "s210" with entities [EventEntity, EventEntity], work=[627*, 0*]
195: 0x0541 [0x66] LOAD_EXT_SCHEDULER_MAIN: Load scheduler "tlk0" with entities [EventEntity, EventEntity], work=69*
196: 0x0550 [0x1D] PRINT_EVENT_MESSAGE(message_id=11480*)
     "Until we meet again, brave [gent/maiden]. While you're at it, don't forget to point any peace lovers you see my way. I'm always looking for people to swell my ranks, if you know what I mean."
197: 0x0553 [0x23] WAIT_FOR_DIALOG_INTERACTION
198: 0x0554 [0x05] Work_Zone[1] = 1

SUBROUTINE_0557:
199: 0x0557 [0x1A] CALL_SUBROUTINE(address=0x27CA)
200: 0x055A [0x52] END_LOAD_SCHEDULER: End scheduler "s197" with entities [EventEntity, EventEntity], work=627*
201: 0x0569 [0x52] END_LOAD_SCHEDULER: End scheduler "s210" with entities [EventEntity, EventEntity], work=627*
202: 0x0578 [0x5C] MUSIC_CONTROL: Set Idle (Day) music to song 59*
203: 0x057C [0x5C] MUSIC_CONTROL: Set Idle (Night) music to song 59*
204: 0x0580 [0x9A] WAIT_MUSIC_SERVER()
205: 0x0581 [0x1C] WAIT(15* ticks)
206: 0x0584 [0xAB] EventEntity->DespawnValue = 0* // Set despawn value
207: 0x0588 [0x1C] WAIT(1* ticks)
208: 0x058B [0x46] CAMERA_CONTROL: Restore default settings
209: 0x058D [0x02] IF !(Work_Zone[1] == 1*) GOTO 0x05A6
210: 0x0595 [0x45] LOAD_SCHEDULED_TASK: Load scheduler "qstc" with entities [EventEntity, EventEntity], work=[201*, 0*]
211: 0x05A6 [0x45] LOAD_SCHEDULED_TASK: Load scheduler "fdi2" with entities [LocalPlayer, LocalPlayer], work=[200*, 0*]
212: 0x05B7 [0x21] END_EVENT
213: 0x05B8 [0x00] END_REQSTACK()
```

#### Data or dead code:

```
# Dead code (unreachable instructions):
     0x026D [0x01] GOTO 0x0270
```

### Event 5080

#### Metadata

| Field        | Value    |
|--------------|----------|
| Entrypoint   | 0x05B9   |
| Data Size    | 30 bytes |
| Instructions | 8        |

```
      00 01 02 03 04 05 06 07  08 09 0A 0B 0C 0D 0E 0F
      -- -- -- -- -- -- -- --  -- -- -- -- -- -- -- --
05B0:                             4A F0 FF FF 7F F8 FF           J......
05C0: FF 7F 4A F8 FF FF 7F F0  FF FF 7F 6F 76 F8 FF FF  ..J........ov...
05D0: 7F 1D 3C 80 23 21 00                              ..<.#!.         
```

#### Opcodes

```
  0: 0x05B9 [0x4A] LocalPlayer looks at EventEntity
  1: 0x05C2 [0x4A] EventEntity looks at LocalPlayer
  2: 0x05CB [0x6F] WAIT_FRAME_DELAY: Yield until WaitTime reaches zero
  3: 0x05CC [0x76] CHECK_ENTITY_RENDER_FLAGS: Wait until EventEntity Render.Flags0 and Render.Flags3 conditions are met
  4: 0x05D1 [0x1D] PRINT_EVENT_MESSAGE(message_id=11459*)
     "I promise the world will unfold before you if you set an "Objective" under the "Records of Eminence" section of the Quests menu."
  5: 0x05D4 [0x23] WAIT_FOR_DIALOG_INTERACTION
  6: 0x05D5 [0x21] END_EVENT
  7: 0x05D6 [0x00] END_REQSTACK()
```

### Event 5081

#### Metadata

| Field        | Value      |
|--------------|------------|
| Entrypoint   | 0x05D7     |
| Data Size    | 8499 bytes |
| Instructions | 1078       |

```
      00 01 02 03 04 05 06 07  08 09 0A 0B 0C 0D 0E 0F
      -- -- -- -- -- -- -- --  -- -- -- -- -- -- -- --
05D0:                      03  02 00 02 10 03 03 00 03         .........
05E0: 10 03 04 00 04 10 03 05  00 05 10 03 1F 00 06 10  ................
05F0: 03 20 00 07 10 4A F0 FF  FF 7F F8 FF FF 7F 4A F8  . ...J........J.
0600: FF FF 7F F0 FF FF 7F 02  02 00 3D 80 80 15 06 1D  ..........=.....
0610: 3E 80 01 3F 06 02 02 00  3F 80 80 23 06 1D 40 80  >..?....?..#..@.
0620: 01 3F 06 02 02 00 41 80  80 31 06 1D 42 80 01 3F  .?....A..1..B..?
0630: 06 02 02 00 43 80 80 3F  06 1D 44 80 01 3F 06 06  ....C..?..D..?..
0640: 1A 00 03 06 00 09 80 02  06 00 03 80 02 CB 09 03  ................
0650: 02 10 03 00 03 07 00 45  80 02 05 00 03 80 00 66  .......E.......f
0660: 06 03 07 00 46 80 3E 1F  00 29 80 74 06 3D 07 00  ....F.>..).t.=..
0670: 47 80 09 80 3E 1F 00 48  80 82 06 3D 07 00 47 80  G...>..H...=..G.
0680: 09 80 3E 1F 00 29 80 90  06 3D 07 00 47 80 09 80  ..>..)...=..G...
0690: 3E 1F 00 48 80 9E 06 3D  07 00 47 80 09 80 3E 1F  >..H...=..G...>.
06A0: 00 48 80 AC 06 3D 07 00  47 80 09 80 03 1A 17 20  .H...=..G...... 
06B0: 00 24 49 80 1A 00 07 00  25 02 00 10 03 80 00 D1  .$I.....%.......
06C0: 06 03 1A 00 00 10 03 17  00 03 80 1A ED 14 01 C8  ................
06D0: 09 02 00 10 09 80 00 E9  06 03 1A 00 00 10 03 17  ................
06E0: 00 09 80 1A ED 14 01 C8  09 02 00 10 16 80 00 01  ................
06F0: 07 03 1A 00 00 10 03 17  00 16 80 1A ED 14 01 C8  ................
0700: 09 02 00 10 4A 80 00 19  07 03 1A 00 00 10 03 17  ....J...........
0710: 00 4A 80 1A ED 14 01 C8  09 02 00 10 13 80 00 31  .J.............1
0720: 07 03 1A 00 00 10 03 17  00 13 80 1A ED 14 01 C8  ................
0730: 09 02 00 10 4B 80 00 49  07 03 1A 00 00 10 03 17  ....K..I........
0740: 00 4B 80 1A ED 14 01 C8  09 02 00 10 4C 80 00 61  .K..........L..a
0750: 07 03 1A 00 00 10 03 17  00 4C 80 1A ED 14 01 C8  .........L......
0760: 09 02 00 10 1D 80 00 79  07 03 1A 00 00 10 03 17  .......y........
0770: 00 1D 80 1A ED 14 01 C8  09 02 00 10 4D 80 00 91  ............M...
0780: 07 03 1A 00 00 10 03 17  00 4D 80 1A ED 14 01 C8  .........M......
0790: 09 02 00 10 4E 80 00 A9  07 03 1A 00 00 10 03 17  ....N...........
07A0: 00 4E 80 1A ED 14 01 C8  09 02 00 10 32 80 00 B9  .N..........2...
07B0: 07 03 1A 00 00 10 01 C8  09 02 00 10 47 80 00 CC  ............G...
07C0: 07 03 1A 00 00 10 1A 02  1B 01 C8 09 02 00 10 4F  ...............O
07D0: 80 00 DF 07 03 1A 00 00  10 1A 6C 1D 01 C8 09 02  ..........l.....
07E0: 00 10 50 80 00 F2 07 03  1A 00 00 10 1A 63 25 01  ..P..........c%.
07F0: C8 09 02 00 10 1F 80 00  BA 09 03 1A 00 00 10 02  ................
0800: 02 00 3D 80 80 2F 08 66  51 80 F8 FF FF 7F F8 FF  ..=../.fQ.......
0810: FF 7F 74 6C 6B 30 1C 0D  80 1D 52 80 23 66 51 80  ..tlk0....R.#fQ.
0820: F8 FF FF 7F F8 FF FF 7F  74 6C 6B 31 01 BF 08 02  ........tlk1....
0830: 02 00 3F 80 80 5F 08 66  4E 80 F8 FF FF 7F F8 FF  ..?.._.fN.......
0840: FF 7F 74 6C 6B 30 1C 0D  80 1D 53 80 23 66 4E 80  ..tlk0....S.#fN.
0850: F8 FF FF 7F F8 FF FF 7F  74 6C 6B 31 01 BF 08 02  ........tlk1....
0860: 02 00 41 80 80 8F 08 66  38 80 F8 FF FF 7F F8 FF  ..A....f8.......
0870: FF 7F 74 6C 6B 30 1C 0D  80 1D 54 80 23 66 38 80  ..tlk0....T.#f8.
0880: F8 FF FF 7F F8 FF FF 7F  74 6C 6B 31 01 BF 08 02  ........tlk1....
0890: 02 00 43 80 80 BF 08 66  19 80 F8 FF FF 7F F8 FF  ..C....f........
08A0: FF 7F 74 6C 6B 30 1C 0D  80 1D 55 80 23 66 19 80  ..tlk0....U.#f..
08B0: F8 FF FF 7F F8 FF FF 7F  74 6C 6B 31 01 BF 08 1C  ........tlk1....
08C0: 0D 80 48 56 80 23 48 57  80 23 48 58 80 23 48 59  ..HV.#HW.#HX.#HY
08D0: 80 23 48 5A 80 23 03 02  10 23 80 48 5B 80 23 48  .#HZ.#...#.H[.#H
08E0: 5C 80 23 02 02 00 3D 80  80 17 09 66 51 80 F8 FF  \.#...=....fQ...
08F0: FF 7F F8 FF FF 7F 74 6C  6B 30 1C 0D 80 1D 5D 80  ......tlk0....].
0900: 23 1D 5E 80 23 66 51 80  F8 FF FF 7F F8 FF FF 7F  #.^.#fQ.........
0910: 74 6C 6B 31 01 B7 09 02  02 00 3F 80 80 4B 09 66  tlk1......?..K.f
0920: 4E 80 F8 FF FF 7F F8 FF  FF 7F 74 6C 6B 30 1C 0D  N.........tlk0..
0930: 80 1D 5F 80 23 1D 60 80  23 66 4E 80 F8 FF FF 7F  .._.#.`.#fN.....
0940: F8 FF FF 7F 74 6C 6B 31  01 B7 09 02 02 00 41 80  ....tlk1......A.
0950: 80 83 09 66 38 80 F8 FF  FF 7F F8 FF FF 7F 74 6C  ...f8.........tl
0960: 6B 30 1C 0D 80 1D 61 80  23 1D 62 80 23 1D 63 80  k0....a.#.b.#.c.
0970: 23 66 38 80 F8 FF FF 7F  F8 FF FF 7F 74 6C 6B 31  #f8.........tlk1
0980: 01 B7 09 02 02 00 43 80  80 B7 09 66 19 80 F8 FF  ......C....f....
0990: FF 7F F8 FF FF 7F 74 6C  6B 30 1C 0D 80 1D 64 80  ......tlk0....d.
09A0: 23 1D 65 80 23 66 19 80  F8 FF FF 7F F8 FF FF 7F  #.e.#f..........
09B0: 74 6C 6B 31 01 B7 09 01  C8 09 02 00 10 39 80 00  tlk1.........9..
09C0: C8 09 0C 06 00 01 C8 09  01 47 06 21 00 03 10 04  .........G.!....
09D0: 10 05 10 06 10 07 10 08  10 09 10 00 17 01 17 02  ................
09E0: 17 03 17 04 17 05 17 06  17 07 17 08 17 09 17 0A  ................
09F0: 17 0B 17 0C 17 0D 17 0E  17 0F 17 10 17 11 17 12  ................
0A00: 17 13 17 14 17 15 17 16  17 17 17 03 80 66 80 67  .............f.g
0A10: 80 68 80 69 80 6A 80 6B  80 6C 80 6D 80 6E 80 6F  .h.i.j.k.l.m.n.o
0A20: 80 70 80 71 80 72 80 73  80 03 80 03 80 03 80 03  .p.q.r.s........
0A30: 80 03 80 03 80 03 80 03  80 03 80 03 80 32 80 32  .............2.2
0A40: 80 74 80 74 80 74 80 74  80 74 80 75 80 75 80 75  .t.t.t.t.t.u.u.u
0A50: 80 75 80 75 80 76 80 77  80 03 80 03 80 03 80 03  .u.u.v.w........
0A60: 80 03 80 03 80 03 80 03  80 03 80 03 80 66 80 67  .............f.g
0A70: 80 78 80 68 80 69 80 6A  80 6B 80 6C 80 6D 80 6E  .x.h.i.j.k.l.m.n
0A80: 80 6F 80 70 80 71 80 72  80 03 80 03 80 03 80 03  .o.p.q.r........
0A90: 80 03 80 03 80 03 80 03  80 03 80 03 80 32 80 32  .............2.2
0AA0: 80 79 80 74 80 74 80 74  80 74 80 74 80 75 80 75  .y.t.t.t.t.t.u.u
0AB0: 80 75 80 75 80 75 80 76  80 03 80 03 80 03 80 03  .u.u.u.v........
0AC0: 80 03 80 03 80 03 80 03  80 03 80 03 80 7A 80 7B  .............z.{
0AD0: 80 7C 80 7D 80 7E 80 7F  80 80 80 81 80 82 80 83  .|.}.~..........
0AE0: 80 84 80 85 80 86 80 87  80 88 80 89 80 8A 80 8B  ................
0AF0: 80 8C 80 8D 80 8E 80 8F  80 90 80 91 80 92 80 93  ................
0B00: 80 94 80 95 80 96 80 97  80 98 80 99 80 9A 80 03  ................
0B10: 80 03 80 03 80 03 80 03  80 03 80 03 80 03 80 03  ................
0B20: 80 03 80 03 80 03 80 03  80 03 80 03 80 3B 80 3B  .............;.;
0B30: 80 3B 80 3B 80 3B 80 3B  80 3B 80 3B 80 3B 80 3B  .;.;.;.;.;.;.;.;
0B40: 80 3B 80 3B 80 3B 80 3B  80 3B 80 3B 80 3B 80 3B  .;.;.;.;.;.;.;.;
0B50: 80 3B 80 3B 80 3B 80 3B  80 3B 80 3B 80 3B 80 3B  .;.;.;.;.;.;.;.;
0B60: 80 3B 80 3B 80 3B 80 3B  80 3B 80 3B 80 3B 80 03  .;.;.;.;.;.;.;..
0B70: 80 03 80 03 80 03 80 03  80 03 80 03 80 03 80 03  ................
0B80: 80 03 80 03 80 03 80 03  80 03 80 03 80 9B 80 9C  ................
0B90: 80 9D 80 9E 80 9F 80 A0  80 A1 80 A2 80 A3 80 A4  ................
0BA0: 80 A5 80 A6 80 A7 80 A8  80 A9 80 AA 80 AB 80 AC  ................
0BB0: 80 AD 80 AE 80 AF 80 B0  80 B1 80 B2 80 B3 80 B4  ................
0BC0: 80 B5 80 B6 80 B7 80 B8  80 B9 80 BA 80 BB 80 BC  ................
0BD0: 80 BD 80 BE 80 BF 80 C0  80 C1 80 C2 80 C3 80 C4  ................
0BE0: 80 C5 80 C6 80 C7 80 C8  80 C9 80 CA 80 CB 80 CC  ................
0BF0: 80 CD 80 CE 80 CF 80 D0  80 D1 80 D2 80 D3 80 D4  ................
0C00: 80 D5 80 D6 80 D7 80 D8  80 D9 80 DA 80 03 80 03  ................
0C10: 80 03 80 03 80 03 80 03  80 03 80 03 80 03 80 03  ................
0C20: 80 03 80 03 80 03 80 03  80 03 80 03 80 0E 80 0E  ................
0C30: 80 0E 80 0E 80 0E 80 0E  80 0E 80 0E 80 0E 80 0E  ................
0C40: 80 0E 80 0E 80 0E 80 0E  80 0E 80 0E 80 0E 80 0E  ................
0C50: 80 0E 80 0E 80 0E 80 0E  80 0E 80 0E 80 0E 80 0E  ................
0C60: 80 0E 80 0E 80 0E 80 0E  80 0E 80 0E 80 0E 80 0E  ................
0C70: 80 0E 80 0E 80 0E 80 0E  80 0E 80 0E 80 0E 80 0E  ................
0C80: 80 0E 80 0E 80 0E 80 0E  80 0E 80 0E 80 0E 80 0E  ................
0C90: 80 0E 80 0E 80 0E 80 0E  80 0E 80 0E 80 0E 80 0E  ................
0CA0: 80 0E 80 0E 80 0E 80 0E  80 0E 80 0E 80 03 80 03  ................
0CB0: 80 03 80 03 80 03 80 03  80 03 80 03 80 03 80 03  ................
0CC0: 80 03 80 03 80 03 80 03  80 03 80 03 80 DB 80 DC  ................
0CD0: 80 DD 80 DE 80 DF 80 E0  80 E1 80 E2 80 E3 80 E4  ................
0CE0: 80 E5 80 E6 80 E7 80 E8  80 E9 80 EA 80 EB 80 EC  ................
0CF0: 80 ED 80 EE 80 EF 80 F0  80 F1 80 F2 80 F3 80 F4  ................
0D00: 80 F5 80 F6 80 F7 80 F8  80 F9 80 FA 80 FB 80 FC  ................
0D10: 80 FD 80 FE 80 FF 80 00  81 01 81 02 81 03 81 04  ................
0D20: 81 05 81 06 81 07 81 08  81 09 81 0A 81 0B 81 0C  ................
0D30: 81 0D 81 0E 81 0F 81 10  81 03 80 03 80 03 80 03  ................
0D40: 80 03 80 03 80 03 80 03  80 03 80 03 80 18 80 18  ................
0D50: 80 18 80 33 80 11 81 33  80 12 81 18 80 13 81 14  ...3...3........
0D60: 81 18 80 15 81 18 80 16  81 18 80 18 80 14 81 17  ................
0D70: 81 18 81 19 81 18 80 18  80 18 80 18 80 1A 81 18  ................
0D80: 80 18 80 1B 81 18 80 3B  80 1C 81 1D 81 18 80 18  .......;........
0D90: 80 18 80 18 80 18 80 18  80 18 80 18 80 18 80 18  ................
0DA0: 80 18 80 1E 81 18 80 18  80 18 80 18 80 18 80 18  ................
0DB0: 80 18 80 18 80 18 80 18  80 03 80 03 80 03 80 03  ................
0DC0: 80 03 80 03 80 03 80 03  80 03 80 03 80 1F 81 20  ............... 
0DD0: 81 21 81 22 81 23 81 24  81 25 81 26 81 27 81 28  .!.".#.$.%.&.'.(
0DE0: 81 29 81 2A 81 2B 81 2C  81 2D 81 2E 81 2F 81 30  .).*.+.,.-.../.0
0DF0: 81 31 81 32 81 33 81 34  81 35 81 36 81 37 81 38  .1.2.3.4.5.6.7.8
0E00: 81 39 81 3A 81 3B 81 3C  81 3D 81 3E 81 3F 81 40  .9.:.;.<.=.>.?.@
0E10: 81 41 81 42 81 43 81 44  81 45 81 46 81 47 81 48  .A.B.C.D.E.F.G.H
0E20: 81 49 81 4A 81 4B 81 4C  81 4D 81 4E 81 4F 81 50  .I.J.K.L.M.N.O.P
0E30: 81 51 81 52 81 03 80 03  80 03 80 03 80 03 80 03  .Q.R............
0E40: 80 03 80 03 80 03 80 03  80 03 80 03 80 53 81 54  .............S.T
0E50: 81 1B 81 55 81 56 81 57  81 58 81 59 81 5A 81 5B  ...U.V.W.X.Y.Z.[
0E60: 81 11 81 5C 81 5D 81 5E  81 5F 81 60 81 55 81 26  ...\.].^._.`.U.&
0E70: 80 61 81 11 81 11 81 12  81 62 81 63 81 11 81 64  .a.......b.c...d
0E80: 81 11 81 11 81 11 81 65  81 66 81 67 81 68 81 69  .......e.f.g.h.i
0E90: 81 6A 81 6B 81 6C 81 6D  81 6E 81 6F 81 6F 81 59  .j.k.l.m.n.o.o.Y
0EA0: 81 70 81 71 81 11 81 72  81 73 81 74 81 75 81 5E  .p.q...r.s.t.u.^
0EB0: 81 11 81 76 81 03 80 03  80 03 80 03 80 03 80 03  ...v............
0EC0: 80 03 80 03 80 03 80 03  80 03 80 03 80 77 81 78  .............w.x
0ED0: 81 79 81 7A 81 7B 81 7C  81 7D 81 7E 81 7F 81 80  .y.z.{.|.}.~....
0EE0: 81 81 81 82 81 83 81 84  81 85 81 86 81 87 81 88  ................
0EF0: 81 89 81 8A 81 8B 81 8C  81 8D 81 8E 81 8F 81 90  ................
0F00: 81 91 81 92 81 93 81 94  81 95 81 96 81 97 81 98  ................
0F10: 81 99 81 9A 81 9B 81 9C  81 9D 81 9E 81 9F 81 A0  ................
0F20: 81 A1 81 A2 81 A3 81 A4  81 A5 81 A6 81 A7 81 A8  ................
0F30: 81 A9 81 AA 81 AB 81 AC  81 AD 81 AE 81 AF 81 B0  ................
0F40: 81 B1 81 B2 81 B3 81 B4  81 B5 81 B6 81 B7 81 B8  ................
0F50: 81 B9 81 BA 81 BB 81 BC  81 BD 81 BE 81 BF 81 C0  ................
0F60: 81 03 80 03 80 03 80 03  80 03 80 03 80 03 80 03  ................
0F70: 80 03 80 03 80 03 80 03  80 03 80 03 80 C1 81 C2  ................
0F80: 81 3D 80 C3 81 C4 81 C5  81 C6 81 C7 81 C8 81 C9  .=..............
0F90: 81 CA 81 6B 81 33 80 CB  81 CC 81 CD 81 CE 81 54  ...k.3.........T
0FA0: 81 19 81 CF 81 D0 81 3D  80 D1 81 D2 81 D3 81 33  .......=.......3
0FB0: 80 33 80 D4 81 D5 81 33  80 D6 81 D7 81 D8 81 65  .3.....3.......e
0FC0: 81 D9 81 DA 81 68 81 6F  81 33 80 DB 81 60 81 DC  .....h.o.3...`..
0FD0: 81 DD 81 33 80 C5 81 5D  81 19 81 DE 81 DF 81 E0  ...3...]........
0FE0: 81 E1 81 E2 81 E3 81 E4  81 E5 81 E6 81 E7 81 D8  ................
0FF0: 81 6F 81 33 80 E8 81 3B  80 E9 81 EA 81 EB 81 EC  .o.3...;........
1000: 81 2E 80 ED 81 EE 81 C4  81 D4 81 33 80 6A 81 43  ...........3.j.C
1010: 80 03 80 03 80 03 80 03  80 03 80 03 80 03 80 03  ................
1020: 80 03 80 03 80 03 80 03  80 03 80 03 80 EF 81 F0  ................
1030: 81 F1 81 F2 81 F3 81 F4  81 F5 81 F6 81 F7 81 F8  ................
1040: 81 F9 81 FA 81 FB 81 FC  81 FD 81 FE 81 FF 81 00  ................
1050: 82 01 82 02 82 03 82 04  82 05 82 06 82 07 82 08  ................
1060: 82 09 82 0A 82 0B 82 0C  82 0D 82 0E 82 0F 82 10  ................
1070: 82 11 82 12 82 13 82 14  82 15 82 16 82 17 82 18  ................
1080: 82 19 82 1A 82 1B 82 1C  82 1D 82 1E 82 1F 82 20  ............... 
1090: 82 21 82 22 82 23 82 24  82 25 82 26 82 27 82 28  .!.".#.$.%.&.'.(
10A0: 82 29 82 2A 82 2B 82 2C  82 2D 82 2E 82 2F 82 30  .).*.+.,.-.../.0
10B0: 82 31 82 32 82 33 82 34  82 35 82 36 82 37 82 38  .1.2.3.4.5.6.7.8
10C0: 82 39 82 3A 82 3B 82 3C  82 3D 82 03 80 03 80 03  .9.:.;.<.=......
10D0: 80 03 80 03 80 03 80 03  80 03 80 03 80 03 80 03  ................
10E0: 80 03 80 03 80 03 80 03  80 03 80 03 80 3E 82 3F  .............>.?
10F0: 82 40 82 41 82 22 80 42  82 43 82 44 82 44 82 45  .@.A.".B.C.D.D.E
1100: 82 46 82 47 82 48 82 49  82 4A 82 4B 82 4C 82 4D  .F.G.H.I.J.K.L.M
1110: 82 DD 81 4E 82 26 80 4F  82 50 82 51 82 5D 81 52  ...N.&.O.P.Q.].R
1120: 82 53 82 54 82 55 82 56  82 57 82 58 82 59 82 22  .S.T.U.V.W.X.Y."
1130: 80 26 80 5A 82 6D 81 5B  82 5C 82 5D 82 66 81 5E  .&.Z.m.[.\.].f.^
1140: 82 5F 82 CB 81 60 82 61  82 62 82 47 82 63 82 6B  ._...`.a.b.G.c.k
1150: 81 64 82 65 82 66 82 54  82 E5 81 67 82 68 82 5E  .d.e.f.T...g.h.^
1160: 82 69 82 6D 81 6A 82 68  82 47 82 6A 82 6B 82 6C  .i.m.j.h.G.j.k.l
1170: 82 6D 82 6E 82 6F 82 70  82 D1 81 68 81 59 82 C1  .m.n.o.p...h.Y..
1180: 81 71 82 72 82 E6 81 73  82 21 80 03 80 03 80 03  .q.r...s.!......
1190: 80 03 80 03 80 03 80 03  80 03 80 03 80 03 80 03  ................
11A0: 80 03 80 03 80 03 80 03  80 03 80 03 80 74 82 75  .............t.u
11B0: 82 76 82 77 82 78 82 79  82 7A 82 7B 82 7C 82 7D  .v.w.x.y.z.{.|.}
11C0: 82 7E 82 7F 82 80 82 81  82 82 82 83 82 84 82 85  .~..............
11D0: 82 86 82 87 82 88 82 89  82 8A 82 8B 82 8C 82 8D  ................
11E0: 82 8E 82 8F 82 90 82 91  82 92 82 93 82 94 82 95  ................
11F0: 82 96 82 97 82 98 82 99  82 9A 82 9B 82 9C 82 9D  ................
1200: 82 9E 82 9F 82 A0 82 A1  82 A2 82 A3 82 A4 82 A5  ................
1210: 82 A6 82 A7 82 A8 82 A9  82 AA 82 AB 82 AC 82 AD  ................
1220: 82 AE 82 03 80 03 80 03  80 03 80 03 80 03 80 03  ................
1230: 80 03 80 03 80 03 80 03  80 03 80 03 80 AF 82 76  ...............v
1240: 80 AF 82 AF 82 AF 82 AF  82 76 80 AF 82 AF 82 AF  .........v......
1250: 82 AF 82 76 80 AF 82 AF  82 AF 82 B0 82 AF 82 B0  ...v............
1260: 82 B0 82 B0 82 B1 82 B1  82 B1 82 B1 82 B1 82 B1  ................
1270: 82 B1 82 B1 82 B1 82 B1  82 B1 82 B1 82 B1 82 B1  ................
1280: 82 B1 82 B1 82 B1 82 B1  82 B1 82 77 80 77 80 77  ...........w.w.w
1290: 80 77 80 77 80 77 80 77  80 77 80 77 80 77 80 77  .w.w.w.w.w.w.w.w
12A0: 80 77 80 77 80 77 80 77  80 76 80 76 80 76 80 B1  .w.w.w.w.v.v.v..
12B0: 82 B1 82 03 80 03 80 03  80 03 80 03 80 03 80 03  ................
12C0: 80 03 80 03 80 03 80 03  80 03 80 03 80 B2 82 B3  ................
12D0: 82 B4 82 B5 82 B6 82 B7  82 B8 82 B9 82 BA 82 BB  ................
12E0: 82 BC 82 BD 82 BE 82 BF  82 C0 82 C1 82 C2 82 C3  ................
12F0: 82 C4 82 C5 82 C6 82 C7  82 C8 82 C9 82 CA 82 CB  ................
1300: 82 CC 82 CD 82 CE 82 CF  82 D0 82 D1 82 D2 82 03  ................
1310: 80 03 80 03 80 03 80 03  80 03 80 03 80 03 80 03  ................
1320: 80 03 80 03 80 03 80 03  80 03 80 03 80 D3 82 D4  ................
1330: 82 D5 82 D6 82 D7 82 D8  82 D9 82 DA 82 DB 82 DC  ................
1340: 82 DD 82 DE 82 DF 82 E0  82 E1 82 E2 82 E3 82 E4  ................
1350: 82 E5 82 E6 82 E7 82 E8  82 E9 82 EA 82 EB 82 EC  ................
1360: 82 ED 82 EE 82 EF 82 F0  82 F1 82 F2 82 F3 82 F4  ................
1370: 82 F5 82 F6 82 F7 82 F8  82 F9 82 FA 82 FB 82 FC  ................
1380: 82 FD 82 FE 82 03 80 03  80 03 80 03 80 03 80 03  ................
1390: 80 03 80 03 80 03 80 03  80 03 80 03 80 FF 82 00  ................
13A0: 83 01 83 3B 80 02 83 03  83 04 83 05 83 06 83 07  ...;............
13B0: 83 08 83 09 83 0A 83 0B  83 3B 80 0C 83 0D 83 0E  .........;......
13C0: 83 0F 83 5B 82 10 83 11  83 12 83 13 83 3B 80 14  ...[.........;..
13D0: 83 15 83 16 83 17 83 18  83 3B 80 3B 80 19 83 1A  .........;.;....
13E0: 83 3B 80 1B 83 1C 83 CB  81 1D 83 56 82 1E 83 1F  .;.........V....
13F0: 83 20 83 21 83 03 80 03  80 03 80 03 80 03 80 03  . .!............
1400: 80 03 80 03 80 03 80 03  80 03 80 03 80 22 83 23  .............".#
1410: 83 24 83 25 83 26 83 27  83 28 83 29 83 2A 83 2B  .$.%.&.'.(.).*.+
1420: 83 2C 83 2D 83 2E 83 2F  83 30 83 31 83 32 83 33  .,.-.../.0.1.2.3
1430: 83 34 83 35 83 36 83 37  83 38 83 39 83 3A 83 3B  .4.5.6.7.8.9.:.;
1440: 83 3C 83 3D 83 3E 83 3F  83 40 83 41 83 42 83 43  .<.=.>.?.@.A.B.C
1450: 83 44 83 45 83 46 83 47  83 48 83 49 83 4A 83 4B  .D.E.F.G.H.I.J.K
1460: 83 4C 83 03 80 03 80 03  80 03 80 03 80 03 80 03  .L..............
1470: 80 03 80 03 80 03 80 03  80 03 80 03 80 4D 83 4E  .............M.N
1480: 83 4E 83 4F 83 4F 83 4F  83 50 83 51 83 4F 83 52  .N.O.O.O.P.Q.O.R
1490: 83 53 83 54 83 55 83 4F  83 4F 83 56 83 4F 83 57  .S.T.U.O.O.V.O.W
14A0: 83 13 83 4E 83 58 83 59  83 4F 83 5A 83 54 83 58  ...N.X.Y.O.Z.T.X
14B0: 83 4E 83 4F 83 ED 81 4E  83 5B 83 5C 83 5D 83 5E  .N.O...N.[.\.].^
14C0: 83 5F 83 4F 83 4F 83 60  83 61 83 0A 83 62 83 63  ._.O.O.`.a...b.c
14D0: 83 4E 83 03 80 03 80 03  80 03 80 03 80 03 80 03  .N..............
14E0: 80 03 80 03 80 03 80 03  80 03 80 03 80 06 0C 00  ................
14F0: 03 0B 00 09 80 03 12 00  09 80 06 03 10 06 04 10  ................
1500: 06 05 10 06 06 10 06 07  10 06 08 10 06 09 10 06  ................
1510: 00 17 06 01 17 06 02 17  06 03 17 06 04 17 06 05  ................
1520: 17 06 06 17 06 07 17 06  08 17 06 09 17 06 0A 17  ................
1530: 06 0B 17 06 0C 17 06 0D  17 06 0E 17 06 0F 17 06  ................
1540: 10 17 06 11 17 06 12 17  06 13 17 06 14 17 06 15  ................
1550: 17 06 16 17 06 17 17 02  0B 00 03 80 01 23 16 02  .............#..
1560: 17 00 03 80 80 72 15 9D  00 0D 0A 0B 00 0C 00 01  .....r..........
1570: 1D 16 02 17 00 09 80 80  85 15 9D 00 CD 0A 0B 00  ................
1580: 0C 00 01 1D 16 02 17 00  16 80 80 98 15 9D 00 8D  ................
1590: 0B 0B 00 0C 00 01 1D 16  02 17 00 4A 80 80 AB 15  ...........J....
15A0: 9D 00 CD 0C 0B 00 0C 00  01 1D 16 02 17 00 13 80  ................
15B0: 80 BE 15 9D 00 CD 0D 0B  00 0C 00 01 1D 16 02 17  ................
15C0: 00 4B 80 80 D1 15 9D 00  CD 0E 0B 00 0C 00 01 1D  .K..............
15D0: 16 02 17 00 4C 80 80 E4  15 9D 00 2D 10 0B 00 0C  ....L......-....
15E0: 00 01 1D 16 02 17 00 1D  80 80 F7 15 9D 00 2D 13  ..............-.
15F0: 0B 00 0C 00 01 1D 16 02  17 00 4D 80 80 0A 16 9D  ..........M.....
1600: 00 0D 14 0B 00 0C 00 01  1D 16 02 17 00 4E 80 80  .............N..
1610: 1D 16 9D 00 AD 11 0B 00  0C 00 01 1D 16 0B 0C 00  ................
1620: 01 57 15 0C 0C 00 03 0D  00 0C 00 15 0D 00 39 80  .W............9.
1630: 03 11 00 0D 00 3F 13 00  0C 00 39 80 02 13 00 09  .....?....9.....
1640: 80 04 47 16 0B 11 00 0B  06 00 06 1B 00 02 06 00  ..G.............
1650: 09 80 02 01 1B 03 02 10  03 80 03 03 10 03 80 03  ................
1660: 04 10 03 80 03 05 10 03  80 03 06 10 03 80 03 07  ................
1670: 10 03 80 03 08 10 03 80  03 09 10 03 80 03 00 17  ................
1680: 03 80 03 01 17 03 80 03  02 17 03 80 03 03 17 03  ................
1690: 80 03 04 17 03 80 03 05  17 03 80 03 06 17 03 80  ................
16A0: 03 07 17 03 80 03 0F 00  12 00 14 0F 00 39 80 03  .............9..
16B0: 10 00 0F 00 08 10 00 39  80 03 0A 00 10 00 06 0B  .......9........
16C0: 00 06 08 00 02 0A 00 0F  00 03 15 18 02 17 00 03  ................
16D0: 80 80 E7 16 9D 00 0D 0A  13 00 0A 00 9D 00 3D 0A  ..............=.
16E0: 14 00 0A 00 01 DA 17 02  17 00 09 80 80 02 17 9D  ................
16F0: 00 CD 0A 13 00 0A 00 9D  00 2D 0B 14 00 0A 00 01  .........-......
1700: DA 17 02 17 00 16 80 80  1D 17 9D 00 8D 0B 13 00  ................
1710: 0A 00 9D 00 2D 0C 14 00  0A 00 01 DA 17 02 17 00  ....-...........
1720: 4A 80 80 38 17 9D 00 CD  0C 13 00 0A 00 9D 00 4D  J..8...........M
1730: 0D 14 00 0A 00 01 DA 17  02 17 00 13 80 80 53 17  ..............S.
1740: 9D 00 CD 0D 13 00 0A 00  9D 00 4D 0E 14 00 0A 00  ..........M.....
1750: 01 DA 17 02 17 00 4B 80  80 6E 17 9D 00 CD 0E 13  ......K..n......
1760: 00 0A 00 9D 00 7D 0F 14  00 0A 00 01 DA 17 02 17  .....}..........
1770: 00 4C 80 80 89 17 9D 00  2D 10 13 00 0A 00 9D 00  .L......-.......
1780: ED 10 14 00 0A 00 01 DA  17 02 17 00 1D 80 80 A4  ................
1790: 17 9D 00 2D 13 13 00 0A  00 9D 00 9D 13 14 00 0A  ...-............
17A0: 00 01 DA 17 02 17 00 4D  80 80 BF 17 9D 00 0D 14  .......M........
17B0: 13 00 0A 00 9D 00 7D 14  14 00 0A 00 01 DA 17 02  ......}.........
17C0: 17 00 4E 80 80 DA 17 9D  00 AD 11 13 00 0A 00 9D  ..N.............
17D0: 00 3D 12 14 00 0A 00 01  DA 17 02 13 00 03 80 00  .=..............
17E0: EC 17 3C 08 00 0B 00 09  80 01 0C 18 9D 05 CD 09  ..<.............
17F0: 13 00 0B 00 D4 03 0B 00  13 00 03 15 00 0B 00 07  ................
1800: 15 00 39 80 9D 05 CD 09  14 00 15 00 0B 0A 00 0B  ..9.............
1810: 0B 00 01 C4 16 02 12 00  09 80 00 24 18 3C 08 00  ...........$.<..
1820: 39 80 09 80 02 12 00 11  00 00 33 18 3C 08 00 64  9.........3.<..d
1830: 83 09 80 03 02 10 03 00  03 1A 17 20 00 D4 02 65  ........... ...e
1840: 83 1B 00 08 00 25 02 00  10 39 80 00 57 18 06 1B  .....%...9..W...
1850: 00 0C 12 00 01 79 18 02  00 10 64 83 00 68 18 06  .....y....d..h..
1860: 1B 00 0B 12 00 01 79 18  02 00 10 66 83 00 79 18  ......y....f..y.
1870: 06 1B 00 0C 06 00 01 79  18 02 00 10 1F 80 05 FE  .......y........
1880: 1A 03 1B 00 00 10 03 0E  00 12 00 0C 0E 00 14 0E  ................
1890: 00 39 80 07 0E 00 00 10  02 17 00 03 80 80 B3 18  .9..............
18A0: 9D 00 0D 0A 13 00 0E 00  9D 00 3D 0A 02 10 0E 00  ..........=.....
18B0: 01 A6 19 02 17 00 09 80  80 CE 18 9D 00 CD 0A 13  ................
18C0: 00 0E 00 9D 00 2D 0B 02  10 0E 00 01 A6 19 02 17  .....-..........
18D0: 00 16 80 80 E9 18 9D 00  8D 0B 13 00 0E 00 9D 00  ................
18E0: 2D 0C 02 10 0E 00 01 A6  19 02 17 00 4A 80 80 04  -...........J...
18F0: 19 9D 00 CD 0C 13 00 0E  00 9D 00 4D 0D 02 10 0E  ...........M....
1900: 00 01 A6 19 02 17 00 13  80 80 1F 19 9D 00 CD 0D  ................
1910: 13 00 0E 00 9D 00 4D 0E  02 10 0E 00 01 A6 19 02  ......M.........
1920: 17 00 4B 80 80 3A 19 9D  00 CD 0E 13 00 0E 00 9D  ..K..:..........
1930: 00 7D 0F 02 10 0E 00 01  A6 19 02 17 00 4C 80 80  .}...........L..
1940: 55 19 9D 00 2D 10 13 00  0E 00 9D 00 ED 10 02 10  U...-...........
1950: 0E 00 01 A6 19 02 17 00  1D 80 80 70 19 9D 00 2D  ...........p...-
1960: 13 13 00 0E 00 9D 00 9D  13 02 10 0E 00 01 A6 19  ................
1970: 02 17 00 4D 80 80 8B 19  9D 00 0D 14 13 00 0E 00  ...M............
1980: 9D 00 7D 14 02 10 0E 00  01 A6 19 02 17 00 4E 80  ..}...........N.
1990: 80 A6 19 9D 00 AD 11 13  00 0E 00 9D 00 3D 12 02  .............=..
19A0: 10 0E 00 01 A6 19 02 17  00 09 80 00 A7 1A 03 08  ................
19B0: 10 03 00 03 03 10 02 10  03 04 10 02 10 14 04 10  ................
19C0: 4A 80 03 05 10 02 10 14  05 10 4F 80 03 06 10 02  J.........O.....
19D0: 10 14 06 10 67 83 03 18  00 03 80 24 68 83 13 80  ....g......$h...
19E0: 03 80 25 02 00 10 03 80  00 F3 19 03 18 00 09 80  ..%.............
19F0: 01 3D 1A 02 00 10 09 80  00 03 1A 03 18 00 4A 80  .=............J.
1A00: 01 3D 1A 02 00 10 16 80  00 13 1A 03 18 00 4F 80  .=............O.
1A10: 01 3D 1A 02 00 10 4A 80  00 23 1A 03 18 00 67 83  .=....J..#....g.
1A20: 01 3D 1A 02 00 10 13 80  00 3D 1A 06 03 10 06 04  .=.......=......
1A30: 10 06 05 10 06 06 10 06  08 10 01 3D 1A 02 18 00  ...........=....
1A40: 03 80 00 48 1A 01 A4 1A  14 02 10 18 00 93 13 00  ...H............
1A50: 48 69 83 23 93 03 80 24  6A 83 09 80 03 80 25 02  Hi.#...$j.....%.
1A60: 00 10 03 80 00 99 1A 0B  17 00 40 03 80 4E 80 01  ..........@..N..
1A70: 10 17 00 40 32 80 39 80  01 10 18 00 40 64 83 6B  ...@2.9.....@d.k
1A80: 83 01 10 0E 00 43 00 43  01 03 03 00 02 10 0C 17  .....C.C........
1A90: 00 03 20 00 07 10 01 A4  1A 02 00 10 09 80 00 A4  .. .............
1AA0: 1A 01 A4 1A 01 FE 1A 93  13 00 48 69 83 23 93 03  ..........Hi.#..
1AB0: 80 24 6A 83 09 80 03 80  25 02 00 10 03 80 00 F3  .$j.....%.......
1AC0: 1A 0B 17 00 40 03 80 4E  80 01 10 17 00 40 32 80  ....@..N.....@2.
1AD0: 39 80 01 10 18 00 40 64  83 6B 83 01 10 0E 00 43  9.....@d.k.....C
1AE0: 00 43 01 03 03 00 02 10  0C 17 00 03 20 00 07 10  .C.......... ...
1AF0: 01 FE 1A 02 00 10 09 80  00 FE 1A 01 FE 1A 01 4D  ...............M
1B00: 16 1B 06 0C 00 03 0B 00  09 80 03 12 00 09 80 3E  ...............>
1B10: 1F 00 29 80 19 1B 0B 0C  00 3E 1F 00 48 80 23 1B  ..)......>..H.#.
1B20: 0B 0C 00 3E 1F 00 29 80  2D 1B 0B 0C 00 3E 1F 00  ...>..).-....>..
1B30: 48 80 37 1B 0B 0C 00 3E  1F 00 48 80 41 1B 0B 0C  H.7....>..H.A...
1B40: 00 03 11 00 09 80 0B 06  00 06 1B 00 02 06 00 09  ................
1B50: 80 02 6B 1D 03 0F 00 12  00 14 0F 00 39 80 03 10  ..k.........9...
1B60: 00 0F 00 08 10 00 39 80  03 0A 00 10 00 06 0B 00  ......9.........
1B70: 03 08 00 6C 83 06 03 10  06 04 10 06 05 10 06 06  ...l............
1B80: 10 06 07 10 06 08 10 06  09 10 06 00 17 06 01 17  ................
1B90: 06 02 17 06 03 17 06 04  17 06 05 17 06 06 17 06  ................
1BA0: 07 17 06 08 17 06 09 17  06 0A 17 06 0B 17 06 0C  ................
1BB0: 17 06 0D 17 06 0E 17 06  0F 17 06 10 17 06 11 17  ................
1BC0: 06 12 17 06 13 17 06 14  17 06 15 17 06 16 17 06  ................
1BD0: 17 17 3E 1F 00 29 80 EA  1B 03 03 10 78 80 03 08  ..>..)......x...
1BE0: 17 79 80 3D 08 00 03 80  09 80 3E 1F 00 48 80 02  .y.=......>..H..
1BF0: 1C 03 04 10 6D 83 03 09  17 79 80 3D 08 00 09 80  ....m....y.=....
1C00: 09 80 3E 1F 00 29 80 1A  1C 03 05 10 6E 83 03 0A  ..>..)......n...
1C10: 17 79 80 3D 08 00 16 80  09 80 3E 1F 00 48 80 32  .y.=......>..H.2
1C20: 1C 03 06 10 6F 83 03 0B  17 79 80 3D 08 00 4A 80  ....o....y.=..J.
1C30: 09 80 3E 1F 00 48 80 4A  1C 03 07 10 70 83 03 0C  ..>..H.J....p...
1C40: 17 79 80 3D 08 00 13 80  09 80 03 02 10 03 00 03  .y.=............
1C50: 1A 17 20 00 D4 03 03 80  03 10 D4 03 09 80 04 10  .. .............
1C60: D4 03 16 80 05 10 D4 03  4A 80 06 10 D4 03 13 80  ........J.......
1C70: 07 10 D4 02 65 83 1B 00  08 00 25 02 00 10 66 83  ....e.....%...f.
1C80: 00 8C 1C 06 1B 00 0C 06  00 01 8C 1C 02 00 10 1F  ................
1C90: 80 05 68 1D 03 1B 00 00  10 02 00 10 03 80 80 AE  ..h.............
1CA0: 1C 03 13 00 78 80 03 02  10 79 80 01 02 1D 02 00  ....x....y......
