# 17826100 - DIRECTOR by yaeko

## Common Data

| Field            | Value                     |
|------------------|---------------------------|
| Zone             | Western Adoulin (ID: 256) |
| Block Size       | 13684 bytes               |
| Total Events     | 13                        |
| References Count | 204                       |

## List of Events

| Event ID              | Entrypoint   |   Size |   Instructions |
|-----------------------|--------------|--------|----------------|
| [65535](#event-65535) | 0x0000       |      1 |              1 |
| [48](#event-48)       | 0x0001       |    855 |            111 |
| [51](#event-51)       | 0x0358       |    884 |            121 |
| [54](#event-54)       | 0x06CC       |   1945 |            258 |
| [56](#event-56)       | 0x0E65       |   1642 |            217 |
| [62](#event-62)       | 0x14CF       |    638 |             88 |
| [65](#event-65)       | 0x174D       |   2425 |            305 |
| [89](#event-89)       | 0x20C6       |    861 |            117 |
| [93](#event-93)       | 0x2423       |    658 |             85 |
| [94](#event-94)       | 0x26B5       |    867 |            108 |
| [95](#event-95)       | 0x2A18       |    703 |             88 |
| [96](#event-96)       | 0x2CD7       |    346 |             47 |
| [97](#event-97)       | 0x2E31       |    974 |            153 |

## DAT References (imed_data)

|   Index | Hex Value   |   Dec Value |
|---------|-------------|-------------|
|       0 | 0x00C8      |         200 |
|       1 | 0x0000      |           0 |
|       2 | 0x0003      |           3 |
|       3 | 0x0294      |         660 |
|       4 | 0x26BE      |        9918 |
|       5 | 0x26BF      |        9919 |
|       6 | 0x26C0      |        9920 |
|       7 | 0x0005      |           5 |
|       8 | 0x0006      |           6 |
|       9 | 0x0050      |          80 |
|      10 | 0x26C1      |        9921 |
|      11 | 0x0028      |          40 |
|      12 | 0x0001      |           1 |
|      13 | 0x26C2      |        9922 |
|      14 | 0x26C3      |        9923 |
|      15 | 0x26C4      |        9924 |
|      16 | 0x26C5      |        9925 |
|      17 | 0x26C6      |        9926 |
|      18 | 0x26C7      |        9927 |
|      19 | 0x26C8      |        9928 |
|      20 | 0x26C9      |        9929 |
|      21 | 0x0014      |          20 |
|      22 | 0x009F      |         159 |
|      23 | 0x007F      |         127 |
|      24 | 0x26CE      |        9934 |
|      25 | 0x26CF      |        9935 |
|      26 | 0x26D0      |        9936 |
|      27 | 0x26D1      |        9937 |
|      28 | 0x26D2      |        9938 |
|      29 | 0x0190      |         400 |
|      30 | 0x001E      |          30 |
|      31 | 0x005A      |          90 |
|      32 | 0x26D3      |        9939 |
|      33 | 0x26D4      |        9940 |
|      34 | 0x26D5      |        9941 |
|      35 | 0x26D6      |        9942 |
|      36 | 0x26D7      |        9943 |
|      37 | 0x26D8      |        9944 |
|      38 | 0x26D9      |        9945 |
|      39 | 0x003B      |          59 |
|      40 | 0x0002      |           2 |
|      41 | 0x0297      |         663 |
|      42 | 0x007C      |         124 |
|      43 | 0x26DE      |        9950 |
|      44 | 0x26DF      |        9951 |
|      45 | 0x04E4      |        1252 |
|      46 | 0x26E0      |        9952 |
|      47 | 0x26E1      |        9953 |
|      48 | 0x26E2      |        9954 |
|      49 | 0x0008      |           8 |
|      50 | 0x26E3      |        9955 |
|      51 | 0x26E4      |        9956 |
|      52 | 0x26E5      |        9957 |
|      53 | 0x26E6      |        9958 |
|      54 | 0x26E7      |        9959 |
|      55 | 0x26E8      |        9960 |
|      56 | 0x003C      |          60 |
|      57 | 0x26E9      |        9961 |
|      58 | 0x26EA      |        9962 |
|      59 | 0x0D43      |        3395 |
|      60 | 0x26EB      |        9963 |
|      61 | 0x26EC      |        9964 |
|      62 | 0x26ED      |        9965 |
|      63 | 0x26EE      |        9966 |
|      64 | 0x26EF      |        9967 |
|      65 | 0x26F0      |        9968 |
|      66 | 0x000A      |          10 |
|      67 | 0x00B4      |         180 |
|      68 | 0x26F1      |        9969 |
|      69 | 0x26F2      |        9970 |
|      70 | 0x26F3      |        9971 |
|      71 | 0x00C9      |         201 |
|      72 | 0x0FCA      |        4042 |
|      73 | 0x26F6      |        9974 |
|      74 | 0x26F7      |        9975 |
|      75 | 0x26F8      |        9976 |
|      76 | 0x0032      |          50 |
|      77 | 0x26F9      |        9977 |
|      78 | 0x26FA      |        9978 |
|      79 | 0x26FB      |        9979 |
|      80 | 0x26FC      |        9980 |
|      81 | 0x26FD      |        9981 |
|      82 | 0x26FE      |        9982 |
|      83 | 0x2700      |        9984 |
|      84 | 0x2701      |        9985 |
|      85 | 0x2702      |        9986 |
|      86 | 0x2703      |        9987 |
|      87 | 0x2704      |        9988 |
|      88 | 0x2705      |        9989 |
|      89 | 0x2706      |        9990 |
|      90 | 0x26FF      |        9983 |
|      91 | 0x2717      |       10007 |
|      92 | 0x2718      |       10008 |
|      93 | 0x2719      |       10009 |
|      94 | 0x271A      |       10010 |
|      95 | 0x271B      |       10011 |
|      96 | 0x271C      |       10012 |
|      97 | 0x271D      |       10013 |
|      98 | 0x0064      |         100 |
|      99 | 0x0295      |         661 |
|     100 | 0x2723      |       10019 |
|     101 | 0x2724      |       10020 |
|     102 | 0x05DC      |        1500 |
|     103 | 0x2725      |       10021 |
|     104 | 0x2726      |       10022 |
|     105 | 0x2727      |       10023 |
|     106 | 0x2728      |       10024 |
|     107 | 0x2729      |       10025 |
|     108 | 0x272A      |       10026 |
|     109 | 0x272B      |       10027 |
|     110 | 0x272C      |       10028 |
|     111 | 0x272D      |       10029 |
|     112 | 0x272E      |       10030 |
|     113 | 0x272F      |       10031 |
|     114 | 0x0A32      |        2610 |
|     115 | 0x2730      |       10032 |
|     116 | 0x2731      |       10033 |
|     117 | 0x2732      |       10034 |
|     118 | 0x2733      |       10035 |
|     119 | 0x2734      |       10036 |
|     120 | 0x2735      |       10037 |
|     121 | 0x2736      |       10038 |
|     122 | 0x2737      |       10039 |
|     123 | 0x008C      |         140 |
|     124 | 0x2738      |       10040 |
|     125 | 0x2739      |       10041 |
|     126 | 0x273A      |       10042 |
|     127 | 0x00A0      |         160 |
|     128 | 0x273E      |       10046 |
|     129 | 0x273F      |       10047 |
|     130 | 0x2740      |       10048 |
|     131 | 0x2741      |       10049 |
|     132 | 0x2742      |       10050 |
|     133 | 0x2743      |       10051 |
|     134 | 0x2744      |       10052 |
|     135 | 0x2745      |       10053 |
|     136 | 0x2746      |       10054 |
|     137 | 0x2747      |       10055 |
|     138 | 0x2748      |       10056 |
|     139 | 0x2749      |       10057 |
|     140 | 0x274A      |       10058 |
|     141 | 0x2767      |       10087 |
|     142 | 0x6D16      |       27926 |
|     143 | 0x2768      |       10088 |
|     144 | 0x2769      |       10089 |
|     145 | 0x276A      |       10090 |
|     146 | 0x276B      |       10091 |
|     147 | 0x276C      |       10092 |
|     148 | 0x276D      |       10093 |
|     149 | 0x276E      |       10094 |
|     150 | 0x276F      |       10095 |
|     151 | 0x0023      |          35 |
|     152 | 0x2770      |       10096 |
|     153 | 0x6C8A      |       27786 |
|     154 | 0x2771      |       10097 |
|     155 | 0x2772      |       10098 |
|     156 | 0x2773      |       10099 |
|     157 | 0x2774      |       10100 |
|     158 | 0x2775      |       10101 |
|     159 | 0x2776      |       10102 |
|     160 | 0x2777      |       10103 |
|     161 | 0x2778      |       10104 |
|     162 | 0x2779      |       10105 |
|     163 | 0x6EBA      |       28346 |
|     164 | 0x277A      |       10106 |
|     165 | 0x277B      |       10107 |
|     166 | 0x277C      |       10108 |
|     167 | 0x277D      |       10109 |
|     168 | 0x277E      |       10110 |
|     169 | 0x277F      |       10111 |
|     170 | 0x2780      |       10112 |
|     171 | 0x2781      |       10113 |
|     172 | 0x2782      |       10114 |
|     173 | 0x2783      |       10115 |
|     174 | 0x2784      |       10116 |
|     175 | 0x2785      |       10117 |
|     176 | 0x2786      |       10118 |
|     177 | 0x2787      |       10119 |
|     178 | 0x2788      |       10120 |
|     179 | 0x2789      |       10121 |
|     180 | 0x278A      |       10122 |
|     181 | 0x274B      |       10059 |
|     182 | 0x0FCB      |        4043 |
|     183 | 0x033D      |         829 |
|     184 | 0x0FBC      |        4028 |
|     185 | 0x0FBB      |        4027 |
|     186 | 0x3A98      |       15000 |
|     187 | 0x0FCC      |        4044 |
|     188 | 0x0F57      |        3927 |
|     189 | 0x0FBE      |        4030 |
|     190 | 0x30D4      |       12500 |
|     191 | 0x0FCD      |        4045 |
|     192 | 0x0352      |         850 |
|     193 | 0x02E9      |         745 |
|     194 | 0x2710      |       10000 |
|     195 | 0x274C      |       10060 |
|     196 | 0x274D      |       10061 |
|     197 | 0x274E      |       10062 |
|     198 | 0x274F      |       10063 |
|     199 | 0x2750      |       10064 |
|     200 | 0x2751      |       10065 |
|     201 | 0x2752      |       10066 |
|     202 | 0x2753      |       10067 |
|     203 | 0x2754      |       10068 |

## String References

- **9956**: What happened back in Morimar? [I heard a strange voice./I saw a strange spell cast./I'm not exactly sure.]
- **9982**: Will you help Sylvie? [We've come this far together!/Well, it is a tad upsetting...]
- **10047**: Have you been trained by them? [They've been great mentors./Never heard of them.]
- **10059**: Which piece will you order? [#./$6./$5./Nothing at this time.]
- **10061**: Do you want $0? [Absolutely./Let me reconsider.]
- **10066**: Are you pleased with your choice? [Actually, another piece might be better./Consider my order complete!]

## Events

### Event 65535

#### Metadata

| Field        | Value   |
|--------------|---------|
| Entrypoint   | 0x0000  |
| Data Size    | 1 bytes |
| Instructions | 1       |

```
      00 01 02 03 04 05 06 07  08 09 0A 0B 0C 0D 0E 0F
      -- -- -- -- -- -- -- --  -- -- -- -- -- -- -- --
0000: 00                                                .               
```

#### Opcodes

```
  0: 0x0000 [0x00] END_REQSTACK()
```

### Event 48

#### Metadata

| Field        | Value     |
|--------------|-----------|
| Entrypoint   | 0x0001    |
| Data Size    | 855 bytes |
| Instructions | 111       |

```
      00 01 02 03 04 05 06 07  08 09 0A 0B 0C 0D 0E 0F
      -- -- -- -- -- -- -- --  -- -- -- -- -- -- -- --
0000:    42 46 01 45 00 80 F0  FF FF 7F F0 FF FF 7F 66   BF.E..........f
0010: 64 6F 31 01 80 55 00 80  F0 FF FF 7F F0 FF FF 7F  do1..U..........
0020: 66 64 6F 31 38 02 80 29  08 F0 FF FF 7F 7F 29 08  fdo18..)......).
0030: F0 FF FF 7F 03 29 08 F0  FF FF 7F 7A 4A F0 FF FF  .....).....zJ...
0040: 7F 8A 00 10 01 4A 8A 00  10 01 F0 FF FF 7F 6F 76  .....J........ov
0050: 8A 00 10 01 6F 76 F0 FF  FF 7F 92 01 8A 00 10 01  ....ov..........
0060: 92 01 26 01 10 01 92 01  24 01 10 01 92 01 20 01  ..&.....$..... .
0070: 10 01 92 01 27 01 10 01  92 01 29 01 10 01 92 01  ....'.....).....
0080: 28 01 10 01 29 08 8A 00  10 01 11 45 03 80 F0 FF  (...)......E....
0090: FF 7F F0 FF FF 7F 73 30  30 32 01 80 45 00 80 F0  ......s002..E...
00A0: FF FF 7F F0 FF FF 7F 66  64 69 31 01 80 55 00 80  .......fdi1..U..
00B0: F0 FF FF 7F F0 FF FF 7F  66 64 69 31 2B 8A 00 10  ........fdi1+...
00C0: 01 04 80 23 29 08 8A 00  10 01 12 2B 8A 00 10 01  ...#)......+....
00D0: 05 80 23 52 03 80 F0 FF  FF 7F F0 FF FF 7F 73 30  ..#R..........s0
00E0: 30 32 45 03 80 F0 FF FF  7F F0 FF FF 7F 73 30 30  02E..........s00
00F0: 31 01 80 29 08 8A 00 10  01 13 2B 8A 00 10 01 06  1..)......+.....
0100: 80 23 29 08 8A 00 10 01  14 52 03 80 F0 FF FF 7F  .#)......R......
0110: F0 FF FF 7F 73 30 30 31  02 09 10 07 80 00 34 01  ....s001......4.
0120: 45 03 80 F0 FF FF 7F F0  FF FF 7F 73 30 30 37 01  E..........s007.
0130: 80 01 61 01 02 09 10 08  80 00 50 01 45 03 80 F0  ..a.......P.E...
0140: FF FF 7F F0 FF FF 7F 73  30 30 37 01 80 01 61 01  .......s007...a.
0150: 45 03 80 F0 FF FF 7F F0  FF FF 7F 73 30 30 33 01  E..........s003.
0160: 80 1C 09 80 27 08 8A 00  10 01 49 2B 8A 00 10 01  ....'.....I+....
0170: 0A 80 1C 0B 80 02 09 10  07 80 00 8F 01 52 03 80  .............R..
0180: F0 FF FF 7F F0 FF FF 7F  73 30 30 37 01 B8 01 02  ........s007....
0190: 09 10 08 80 00 A9 01 52  03 80 F0 FF FF 7F F0 FF  .......R........
01A0: FF 7F 73 30 30 37 01 B8  01 52 03 80 F0 FF FF 7F  ..s007...R......
01B0: F0 FF FF 7F 73 30 30 33  45 03 80 F0 FF FF 7F F0  ....s003E.......
01C0: FF FF 7F 73 30 30 36 01  80 23 2A 08 8A 00 10 01  ...s006..#*.....
01D0: 27 08 8A 00 10 01 48 02  02 10 0C 80 00 EA 01 2B  '.....H........+
01E0: 8A 00 10 01 0D 80 23 01  F2 01 2B 8A 00 10 01 0E  ......#...+.....
01F0: 80 23 2A 08 8A 00 10 01  52 03 80 F0 FF FF 7F F0  .#*.....R.......
0200: FF FF 7F 73 30 30 36 02  09 10 07 80 00 23 02 45  ...s006......#.E
0210: 03 80 F0 FF FF 7F F0 FF  FF 7F 73 30 30 38 01 80  ..........s008..
0220: 01 50 02 02 09 10 08 80  00 3F 02 45 03 80 F0 FF  .P.......?.E....
0230: FF 7F F0 FF FF 7F 73 30  30 38 01 80 01 50 02 45  ......s008...P.E
0240: 03 80 F0 FF FF 7F F0 FF  FF 7F 73 30 30 34 01 80  ..........s004..
0250: 27 08 8A 00 10 01 50 2B  8A 00 10 01 0F 80 23 2B  '.....P+......#+
0260: 8A 00 10 01 10 80 23 2A  08 8A 00 10 01 29 08 8A  ......#*.....)..
0270: 00 10 01 1A 2B 8A 00 10  01 11 80 23 02 09 10 07  ....+......#....
0280: 80 00 96 02 52 03 80 F0  FF FF 7F F0 FF FF 7F 73  ....R..........s
0290: 30 30 38 01 BF 02 02 09  10 08 80 00 B0 02 52 03  008...........R.
02A0: 80 F0 FF FF 7F F0 FF FF  7F 73 30 30 38 01 BF 02  .........s008...
02B0: 52 03 80 F0 FF FF 7F F0  FF FF 7F 73 30 30 34 45  R..........s004E
02C0: 03 80 F0 FF FF 7F F0 FF  FF 7F 73 30 30 35 01 80  ..........s005..
02D0: 2B 8A 00 10 01 12 80 23  29 08 8A 00 10 01 1B 29  +......#)......)
02E0: 08 8A 00 10 01 1E 2B 8A  00 10 01 13 80 23 29 08  ......+......#).
02F0: 8A 00 10 01 1F 29 08 8A  00 10 01 24 2B 8A 00 10  .....).....$+...
0300: 01 14 80 23 29 08 8A 00  10 01 25 45 00 80 F0 FF  ...#).....%E....
0310: FF 7F F0 FF FF 7F 66 64  6F 31 01 80 55 00 80 F0  ......fdo1..U...
0320: FF FF 7F F0 FF FF 7F 66  64 6F 31 52 03 80 F0 FF  .......fdo1R....
0330: FF 7F F0 FF FF 7F 73 30  30 35 29 08 8A 00 10 01  ......s005).....
0340: 1C 46 00 45 00 80 F0 FF  FF 7F F0 FF FF 7F 66 64  .F.E..........fd
0350: 69 31 01 80 20 00 21 00                           i1.. .!.        
```

#### Opcodes

```
  0: 0x0001 [0x42] SET_CLI_EVENT_CANCEL_DATA()
  1: 0x0002 [0x46] CAMERA_CONTROL: Disable user control
  2: 0x0004 [0x45] LOAD_SCHEDULED_TASK: Load scheduler "fdo1" with entities [LocalPlayer, LocalPlayer], work=[200*, 0*]
  3: 0x0015 [0x55] WAIT_LOAD_SCHEDULER: Wait for scheduler "fdo1" with entities [LocalPlayer, LocalPlayer], work=200*
  4: 0x0024 [0x38] SET_CLIENT_EVENT_MODE(mode=3*)
  5: 0x0027 [0x29] REQ_SET_WAIT(priority=0x08, entity_id=LocalPlayer, tag_num=0x7F)
  6: 0x002E [0x29] REQ_SET_WAIT(priority=0x08, entity_id=LocalPlayer, tag_num=0x03)
  7: 0x0035 [0x29] REQ_SET_WAIT(priority=0x08, entity_id=LocalPlayer, tag_num=0x7A)
  8: 0x003C [0x4A] LocalPlayer looks at Sylvie (ID: 17825930/0x0110008A)
  9: 0x0045 [0x4A] Sylvie (ID: 17825930/0x0110008A) looks at LocalPlayer
 10: 0x004E [0x6F] WAIT_FRAME_DELAY: Yield until WaitTime reaches zero
 11: 0x004F [0x76] CHECK_ENTITY_RENDER_FLAGS: Wait until Sylvie (ID: 17825930/0x0110008A) Render.Flags0 and Render.Flags3 conditions are met
 12: 0x0054 [0x6F] WAIT_FRAME_DELAY: Yield until WaitTime reaches zero
 13: 0x0055 [0x76] CHECK_ENTITY_RENDER_FLAGS: Wait until LocalPlayer Render.Flags0 and Render.Flags3 conditions are met
 14: 0x005A [0x92] Sylvie (ID: 17825930/0x0110008A)->Render.Flags3 ^= 0x01
 15: 0x0060 [0x92] Jorin (ID: 17826086/0x01100126)->Render.Flags3 ^= 0x01
 16: 0x0066 [0x92] Kongramm (ID: 17826084/0x01100124)->Render.Flags3 ^= 0x01
 17: 0x006C [0x92] Westerly Breeze (ID: 17826080/0x01100120)->Render.Flags3 ^= 0x01
 18: 0x0072 [0x92] Ledericus (ID: 17826087/0x01100127)->Render.Flags3 ^= 0x01
 19: 0x0078 [0x92] Eukalline (ID: 17826089/0x01100129)->Render.Flags3 ^= 0x01
 20: 0x007E [0x92] Ishvad (ID: 17826088/0x01100128)->Render.Flags3 ^= 0x01
 21: 0x0084 [0x29] REQ_SET_WAIT(priority=0x08, entity_id=Sylvie (ID: 17825930/0x0110008A), tag_num=0x11)
 22: 0x008B [0x45] LOAD_SCHEDULED_TASK: Load scheduler "s002" with entities [LocalPlayer, LocalPlayer], work=[660*, 0*]
 23: 0x009C [0x45] LOAD_SCHEDULED_TASK: Load scheduler "fdi1" with entities [LocalPlayer, LocalPlayer], work=[200*, 0*]
 24: 0x00AD [0x55] WAIT_LOAD_SCHEDULER: Wait for scheduler "fdi1" with entities [LocalPlayer, LocalPlayer], work=200*
 25: 0x00BC [0x2B] Sylvie (ID: 17825930/0x0110008A) [9918*]:
    → "<Player>? <Player>, it's you, right?"
 26: 0x00C3 [0x23] WAIT_FOR_DIALOG_INTERACTION
 27: 0x00C4 [0x29] REQ_SET_WAIT(priority=0x08, entity_id=Sylvie (ID: 17825930/0x0110008A), tag_num=0x12)
 28: 0x00CB [0x2B] Sylvie (ID: 17825930/0x0110008A) [9919*]:
    → "It's so fantabular to see you again! How has the lifestream been treating you recently?"
 29: 0x00D2 [0x23] WAIT_FOR_DIALOG_INTERACTION
 30: 0x00D3 [0x52] END_LOAD_SCHEDULER: End scheduler "s002" with entities [LocalPlayer, LocalPlayer], work=660*
 31: 0x00E2 [0x45] LOAD_SCHEDULED_TASK: Load scheduler "s001" with entities [LocalPlayer, LocalPlayer], work=[660*, 0*]
 32: 0x00F3 [0x29] REQ_SET_WAIT(priority=0x08, entity_id=Sylvie (ID: 17825930/0x0110008A), tag_num=0x13)
 33: 0x00FA [0x2B] Sylvie (ID: 17825930/0x0110008A) [9920*]:
    → "And because you're such a super-duper geomancer, I want you to meet my father!"
 34: 0x0101 [0x23] WAIT_FOR_DIALOG_INTERACTION
 35: 0x0102 [0x29] REQ_SET_WAIT(priority=0x08, entity_id=Sylvie (ID: 17825930/0x0110008A), tag_num=0x14)
 36: 0x0109 [0x52] END_LOAD_SCHEDULER: End scheduler "s001" with entities [LocalPlayer, LocalPlayer], work=660*
 37: 0x0118 [0x02] IF !(Work_Zone[9] == 5*) GOTO 0x0134
 38: 0x0120 [0x45] LOAD_SCHEDULED_TASK: Load scheduler "s007" with entities [LocalPlayer, LocalPlayer], work=[660*, 0*]
 39: 0x0131 [0x01] GOTO 0x0161
 40: 0x0134 [0x02] IF !(Work_Zone[9] == 6*) GOTO 0x0150
 41: 0x013C [0x45] LOAD_SCHEDULED_TASK: Load scheduler "s007" with entities [LocalPlayer, LocalPlayer], work=[660*, 0*]
 42: 0x014D [0x01] GOTO 0x0161
 43: 0x0150 [0x45] LOAD_SCHEDULED_TASK: Load scheduler "s003" with entities [LocalPlayer, LocalPlayer], work=[660*, 0*]

SUBROUTINE_0161:
 44: 0x0161 [0x1C] WAIT(80* ticks)
 45: 0x0164 [0x27] REQ_SET(priority=0x08, entity_id=Sylvie (ID: 17825930/0x0110008A), tag_num=0x49)
 46: 0x016B [0x2B] Sylvie (ID: 17825930/0x0110008A) [9921*]:
    → "I...w-wait! It's not what you think!"
 47: 0x0172 [0x1C] WAIT(40* ticks)
 48: 0x0175 [0x02] IF !(Work_Zone[9] == 5*) GOTO 0x018F
 49: 0x017D [0x52] END_LOAD_SCHEDULER: End scheduler "s007" with entities [LocalPlayer, LocalPlayer], work=660*
 50: 0x018C [0x01] GOTO 0x01B8
 51: 0x018F [0x02] IF !(Work_Zone[9] == 6*) GOTO 0x01A9
 52: 0x0197 [0x52] END_LOAD_SCHEDULER: End scheduler "s007" with entities [LocalPlayer, LocalPlayer], work=660*
 53: 0x01A6 [0x01] GOTO 0x01B8
 54: 0x01A9 [0x52] END_LOAD_SCHEDULER: End scheduler "s003" with entities [LocalPlayer, LocalPlayer], work=660*

SUBROUTINE_01B8:
 55: 0x01B8 [0x45] LOAD_SCHEDULED_TASK: Load scheduler "s006" with entities [LocalPlayer, LocalPlayer], work=[660*, 0*]
 56: 0x01C9 [0x23] WAIT_FOR_DIALOG_INTERACTION
 57: 0x01CA [0x2A] GET_REQ_LEVEL(level=8, entity_id=Sylvie (ID: 17825930/0x0110008A))
 58: 0x01D0 [0x27] REQ_SET(priority=0x08, entity_id=Sylvie (ID: 17825930/0x0110008A), tag_num=0x48)
 59: 0x01D7 [0x02] IF !(Work_Zone[2] == 1*) GOTO 0x01EA
 60: 0x01DF [0x2B] Sylvie (ID: 17825930/0x0110008A) [9922*]:
    → "I'm not trying to imply that we should tie the knot and that--oh dear! Sylvie, you've gone and done it again!"
 61: 0x01E6 [0x23] WAIT_FOR_DIALOG_INTERACTION
 62: 0x01E7 [0x01] GOTO 0x01F2
 63: 0x01EA [0x2B] Sylvie (ID: 17825930/0x0110008A) [9923*]:
    → "This isn't about trying to set you up with him! What a horrible disaster that would be!"
 64: 0x01F1 [0x23] WAIT_FOR_DIALOG_INTERACTION

SUBROUTINE_01F2:
 65: 0x01F2 [0x2A] GET_REQ_LEVEL(level=8, entity_id=Sylvie (ID: 17825930/0x0110008A))
 66: 0x01F8 [0x52] END_LOAD_SCHEDULER: End scheduler "s006" with entities [LocalPlayer, LocalPlayer], work=660*
 67: 0x0207 [0x02] IF !(Work_Zone[9] == 5*) GOTO 0x0223
 68: 0x020F [0x45] LOAD_SCHEDULED_TASK: Load scheduler "s008" with entities [LocalPlayer, LocalPlayer], work=[660*, 0*]
 69: 0x0220 [0x01] GOTO 0x0250
 70: 0x0223 [0x02] IF !(Work_Zone[9] == 6*) GOTO 0x023F
 71: 0x022B [0x45] LOAD_SCHEDULED_TASK: Load scheduler "s008" with entities [LocalPlayer, LocalPlayer], work=[660*, 0*]
 72: 0x023C [0x01] GOTO 0x0250
 73: 0x023F [0x45] LOAD_SCHEDULED_TASK: Load scheduler "s004" with entities [LocalPlayer, LocalPlayer], work=[660*, 0*]

SUBROUTINE_0250:
 74: 0x0250 [0x27] REQ_SET(priority=0x08, entity_id=Sylvie (ID: 17825930/0x0110008A), tag_num=0x50)
 75: 0x0257 [0x2B] Sylvie (ID: 17825930/0x0110008A) [9924*]:
    → "<Huff> Remember all that I told you about how important it was to become one with nature?"
 76: 0x025E [0x23] WAIT_FOR_DIALOG_INTERACTION
 77: 0x025F [0x2B] Sylvie (ID: 17825930/0x0110008A) [9925*]:
    → "W-well...with all that pioneering I bet you've been up to, you're going to have to figure out a way to blend the two together."
 78: 0x0266 [0x23] WAIT_FOR_DIALOG_INTERACTION
 79: 0x0267 [0x2A] GET_REQ_LEVEL(level=8, entity_id=Sylvie (ID: 17825930/0x0110008A))
 80: 0x026D [0x29] REQ_SET_WAIT(priority=0x08, entity_id=Sylvie (ID: 17825930/0x0110008A), tag_num=0x1A)
 81: 0x0274 [0x2B] Sylvie (ID: 17825930/0x0110008A) [9926*]:
    → "I mean, I asked my father if he could help you sort through this nonsense. The blending-the-two-together thing, I mean."
 82: 0x027B [0x23] WAIT_FOR_DIALOG_INTERACTION
 83: 0x027C [0x02] IF !(Work_Zone[9] == 5*) GOTO 0x0296
 84: 0x0284 [0x52] END_LOAD_SCHEDULER: End scheduler "s008" with entities [LocalPlayer, LocalPlayer], work=660*
 85: 0x0293 [0x01] GOTO 0x02BF
 86: 0x0296 [0x02] IF !(Work_Zone[9] == 6*) GOTO 0x02B0
 87: 0x029E [0x52] END_LOAD_SCHEDULER: End scheduler "s008" with entities [LocalPlayer, LocalPlayer], work=660*
 88: 0x02AD [0x01] GOTO 0x02BF
 89: 0x02B0 [0x52] END_LOAD_SCHEDULER: End scheduler "s004" with entities [LocalPlayer, LocalPlayer], work=660*

SUBROUTINE_02BF:
 90: 0x02BF [0x45] LOAD_SCHEDULED_TASK: Load scheduler "s005" with entities [LocalPlayer, LocalPlayer], work=[660*, 0*]
 91: 0x02D0 [0x2B] Sylvie (ID: 17825930/0x0110008A) [9927*]:
    → "Why? Well, he's also a geomancer participating in the colonization initiative. "Birds of a feather grow no moss"? Was that it?"
 92: 0x02D7 [0x23] WAIT_FOR_DIALOG_INTERACTION
 93: 0x02D8 [0x29] REQ_SET_WAIT(priority=0x08, entity_id=Sylvie (ID: 17825930/0x0110008A), tag_num=0x1B)
 94: 0x02DF [0x29] REQ_SET_WAIT(priority=0x08, entity_id=Sylvie (ID: 17825930/0x0110008A), tag_num=0x1E)
 95: 0x02E6 [0x2B] Sylvie (ID: 17825930/0x0110008A) [9928*]:
    → "Anyway! I just know he'll be able to help you out! All you have to do is go see him."
 96: 0x02ED [0x23] WAIT_FOR_DIALOG_INTERACTION
 97: 0x02EE [0x29] REQ_SET_WAIT(priority=0x08, entity_id=Sylvie (ID: 17825930/0x0110008A), tag_num=0x1F)
 98: 0x02F5 [0x29] REQ_SET_WAIT(priority=0x08, entity_id=Sylvie (ID: 17825930/0x0110008A), tag_num=0x24)
 99: 0x02FC [0x2B] Sylvie (ID: 17825930/0x0110008A) [9929*]:
    → "He's working with the people in the first frontier bivouac in Morimar Basalt Fields. Just ask someone there for a man named Hostenn, and I'm sure they'll point you in the right direction!"
100: 0x0303 [0x23] WAIT_FOR_DIALOG_INTERACTION
101: 0x0304 [0x29] REQ_SET_WAIT(priority=0x08, entity_id=Sylvie (ID: 17825930/0x0110008A), tag_num=0x25)
102: 0x030B [0x45] LOAD_SCHEDULED_TASK: Load scheduler "fdo1" with entities [LocalPlayer, LocalPlayer], work=[200*, 0*]
103: 0x031C [0x55] WAIT_LOAD_SCHEDULER: Wait for scheduler "fdo1" with entities [LocalPlayer, LocalPlayer], work=200*
104: 0x032B [0x52] END_LOAD_SCHEDULER: End scheduler "s005" with entities [LocalPlayer, LocalPlayer], work=660*
105: 0x033A [0x29] REQ_SET_WAIT(priority=0x08, entity_id=Sylvie (ID: 17825930/0x0110008A), tag_num=0x1C)
106: 0x0341 [0x46] CAMERA_CONTROL: Restore default settings
107: 0x0343 [0x45] LOAD_SCHEDULED_TASK: Load scheduler "fdi1" with entities [LocalPlayer, LocalPlayer], work=[200*, 0*]
108: 0x0354 [0x20] SET_CLI_EVENT_UC_FLAG: Unlock player control
109: 0x0356 [0x21] END_EVENT
110: 0x0357 [0x00] END_REQSTACK()
```

### Event 51

#### Metadata

| Field        | Value     |
|--------------|-----------|
| Entrypoint   | 0x0358    |
| Data Size    | 884 bytes |
| Instructions | 121       |

```
      00 01 02 03 04 05 06 07  08 09 0A 0B 0C 0D 0E 0F
      -- -- -- -- -- -- -- --  -- -- -- -- -- -- -- --
0350:                          42 46 01 5D 01 80 00 80          BF.]....
0360: 45 00 80 F0 FF FF 7F F0  FF FF 7F 66 64 6F 31 01  E..........fdo1.
0370: 80 55 00 80 F0 FF FF 7F  F0 FF FF 7F 66 64 6F 31  .U..........fdo1
0380: 38 02 80 29 08 F0 FF FF  7F 7F 29 08 F0 FF FF 7F  8..)......).....
0390: 7A 4A F0 FF FF 7F 8A 00  10 01 4A 8A 00 10 01 F0  zJ........J.....
03A0: FF FF 7F 81 00 8A 00 10  01 29 08 8A 00 10 01 40  .........).....@
03B0: 1C 15 80 6F 76 8A 00 10  01 6F 76 F0 FF FF 7F 5C  ...ov....ov....\
03C0: 00 16 80 5C 01 16 80 9A  5D 17 80 0C 80 92 01 8A  ...\....].......
03D0: 00 10 01 92 01 26 01 10  01 92 01 24 01 10 01 92  .....&.....$....
03E0: 01 20 01 10 01 92 01 27  01 10 01 92 01 29 01 10  . .....'.....)..
03F0: 01 92 01 28 01 10 01 45  03 80 F0 FF FF 7F F0 FF  ...(...E........
0400: FF 7F 73 33 31 37 01 80  45 00 80 F0 FF FF 7F F0  ..s317..E.......
0410: FF FF 7F 66 64 69 31 01  80 55 00 80 F0 FF FF 7F  ...fdi1..U......
0420: F0 FF FF 7F 66 64 69 31  2B 8A 00 10 01 18 80 23  ....fdi1+......#
0430: 2B 8A 00 10 01 19 80 23  52 03 80 F0 FF FF 7F F0  +......#R.......
0440: FF FF 7F 73 33 31 37 45  03 80 F0 FF FF 7F F0 FF  ...s317E........
0450: FF 7F 73 30 30 39 01 80  2B 8A 00 10 01 1A 80 23  ..s009..+......#
0460: 29 08 8A 00 10 01 41 2B  8A 00 10 01 1B 80 23 52  ).....A+......#R
0470: 03 80 F0 FF FF 7F F0 FF  FF 7F 73 30 30 39 45 03  ..........s009E.
0480: 80 F0 FF FF 7F F0 FF FF  7F 73 33 31 38 01 80 2B  .........s318..+
0490: 8A 00 10 01 1C 80 23 45  00 80 F0 FF FF 7F F0 FF  ......#E........
04A0: FF 7F 66 64 6F 31 01 80  55 00 80 F0 FF FF 7F F0  ..fdo1..U.......
04B0: FF FF 7F 66 64 6F 31 52  03 80 F0 FF FF 7F F0 FF  ...fdo1R........
04C0: FF 7F 73 33 31 38 02 09  10 07 80 00 D8 04 29 08  ..s318........).
04D0: F0 FF FF 7F 80 01 F1 04  02 09 10 08 80 00 EA 04  ................
04E0: 29 08 F0 FF FF 7F 80 01  F1 04 29 08 F0 FF FF 7F  ).........).....
04F0: 81 4B 8A 00 10 01 1D 80  6F 76 8A 00 10 01 7B 8A  .K......ov....{.
0500: 00 10 01 81 01 8A 00 10  01 27 08 F0 FF FF 7F 7C  .........'.....|
0510: 45 03 80 F0 FF FF 7F F0  FF FF 7F 73 30 31 30 01  E..........s010.
0520: 80 45 00 80 F0 FF FF 7F  F0 FF FF 7F 66 64 69 31  .E..........fdi1
0530: 01 80 55 00 80 F0 FF FF  7F F0 FF FF 7F 66 64 69  ..U..........fdi
0540: 31 1C 1E 80 1C 1F 80 2B  8A 00 10 01 20 80 1C 1F  1......+.... ...
0550: 80 52 03 80 F0 FF FF 7F  F0 FF FF 7F 73 30 31 30  .R..........s010
0560: 45 03 80 F0 FF FF 7F F0  FF FF 7F 73 30 31 31 01  E..........s011.
0570: 80 23 29 08 8A 00 10 01  2C 2B 8A 00 10 01 21 80  .#).....,+....!.
0580: 23 29 08 8A 00 10 01 2D  2A 08 F0 FF FF 7F 52 03  #).....-*.....R.
0590: 80 F0 FF FF 7F F0 FF FF  7F 73 30 31 31 45 03 80  .........s011E..
05A0: F0 FF FF 7F F0 FF FF 7F  73 33 31 39 01 80 79 00  ........s319..y.
05B0: F0 FF FF 7F 8A 00 10 01  2B 8A 00 10 01 22 80 23  ........+....".#
05C0: 52 03 80 F0 FF FF 7F F0  FF FF 7F 73 33 31 39 45  R..........s319E
05D0: 03 80 F0 FF FF 7F F0 FF  FF 7F 73 33 32 30 01 80  ..........s320..
05E0: 29 08 8A 00 10 01 2E 1C  15 80 2B 8A 00 10 01 23  ).........+....#
05F0: 80 23 29 08 8A 00 10 01  2F 52 03 80 F0 FF FF 7F  .#)...../R......
0600: F0 FF FF 7F 73 33 32 30  45 03 80 F0 FF FF 7F F0  ....s320E.......
0610: FF FF 7F 73 33 32 32 01  80 4A 8A 00 10 01 F0 FF  ...s322..J......
0620: FF 7F 6F 76 8A 00 10 01  29 08 8A 00 10 01 11 2B  ..ov....)......+
0630: 8A 00 10 01 24 80 23 29  08 8A 00 10 01 12 29 08  ....$.#)......).
0640: 8A 00 10 01 13 2B 8A 00  10 01 25 80 23 29 08 8A  .....+....%.#)..
0650: 00 10 01 14 29 08 8A 00  10 01 1A 2B 8A 00 10 01  ....)......+....
0660: 26 80 23 29 08 8A 00 10  01 1B 5D 01 80 00 80 45  &.#)......]....E
0670: 00 80 F0 FF FF 7F F0 FF  FF 7F 66 64 6F 31 01 80  ..........fdo1..
0680: 55 00 80 F0 FF FF 7F F0  FF FF 7F 66 64 6F 31 4E  U..........fdo1N
0690: 00 F0 FF FF 7F 52 03 80  F0 FF FF 7F F0 FF FF 7F  .....R..........
06A0: 73 33 32 32 5C 00 27 80  5C 01 27 80 9A 5D 17 80  s322\.'.\.'..]..
06B0: 0C 80 1C 28 80 46 00 45  00 80 F0 FF FF 7F F0 FF  ...(.F.E........
06C0: FF 7F 66 64 69 31 01 80  20 00 21 00              ..fdi1.. .!.    
```

#### Opcodes

```
  0: 0x0358 [0x42] SET_CLI_EVENT_CANCEL_DATA()
  1: 0x0359 [0x46] CAMERA_CONTROL: Disable user control
  2: 0x035B [0x5D] SET_MUSIC_VOLUME(volume=0*, fade_time=200*)
  3: 0x0360 [0x45] LOAD_SCHEDULED_TASK: Load scheduler "fdo1" with entities [LocalPlayer, LocalPlayer], work=[200*, 0*]
  4: 0x0371 [0x55] WAIT_LOAD_SCHEDULER: Wait for scheduler "fdo1" with entities [LocalPlayer, LocalPlayer], work=200*
  5: 0x0380 [0x38] SET_CLIENT_EVENT_MODE(mode=3*)
  6: 0x0383 [0x29] REQ_SET_WAIT(priority=0x08, entity_id=LocalPlayer, tag_num=0x7F)
  7: 0x038A [0x29] REQ_SET_WAIT(priority=0x08, entity_id=LocalPlayer, tag_num=0x7A)
  8: 0x0391 [0x4A] LocalPlayer looks at Sylvie (ID: 17825930/0x0110008A)
  9: 0x039A [0x4A] Sylvie (ID: 17825930/0x0110008A) looks at LocalPlayer
 10: 0x03A3 [0x81] SET_ENTITY_BLINKING(blink_flag=0x00, entity=Sylvie (ID: 17825930/0x0110008A))
 11: 0x03A9 [0x29] REQ_SET_WAIT(priority=0x08, entity_id=Sylvie (ID: 17825930/0x0110008A), tag_num=0x40)
 12: 0x03B0 [0x1C] WAIT(20* ticks)
 13: 0x03B3 [0x6F] WAIT_FRAME_DELAY: Yield until WaitTime reaches zero
 14: 0x03B4 [0x76] CHECK_ENTITY_RENDER_FLAGS: Wait until Sylvie (ID: 17825930/0x0110008A) Render.Flags0 and Render.Flags3 conditions are met
 15: 0x03B9 [0x6F] WAIT_FRAME_DELAY: Yield until WaitTime reaches zero
 16: 0x03BA [0x76] CHECK_ENTITY_RENDER_FLAGS: Wait until LocalPlayer Render.Flags0 and Render.Flags3 conditions are met
 17: 0x03BF [0x5C] MUSIC_CONTROL: Set Idle (Day) music to song 159*
 18: 0x03C3 [0x5C] MUSIC_CONTROL: Set Idle (Night) music to song 159*
 19: 0x03C7 [0x9A] WAIT_MUSIC_SERVER()
 20: 0x03C8 [0x5D] SET_MUSIC_VOLUME(volume=127*, fade_time=1*)
 21: 0x03CD [0x92] Sylvie (ID: 17825930/0x0110008A)->Render.Flags3 ^= 0x01
 22: 0x03D3 [0x92] Jorin (ID: 17826086/0x01100126)->Render.Flags3 ^= 0x01
 23: 0x03D9 [0x92] Kongramm (ID: 17826084/0x01100124)->Render.Flags3 ^= 0x01
 24: 0x03DF [0x92] Westerly Breeze (ID: 17826080/0x01100120)->Render.Flags3 ^= 0x01
 25: 0x03E5 [0x92] Ledericus (ID: 17826087/0x01100127)->Render.Flags3 ^= 0x01
 26: 0x03EB [0x92] Eukalline (ID: 17826089/0x01100129)->Render.Flags3 ^= 0x01
 27: 0x03F1 [0x92] Ishvad (ID: 17826088/0x01100128)->Render.Flags3 ^= 0x01
 28: 0x03F7 [0x45] LOAD_SCHEDULED_TASK: Load scheduler "s317" with entities [LocalPlayer, LocalPlayer], work=[660*, 0*]
 29: 0x0408 [0x45] LOAD_SCHEDULED_TASK: Load scheduler "fdi1" with entities [LocalPlayer, LocalPlayer], work=[200*, 0*]
 30: 0x0419 [0x55] WAIT_LOAD_SCHEDULER: Wait for scheduler "fdi1" with entities [LocalPlayer, LocalPlayer], work=200*
 31: 0x0428 [0x2B] Sylvie (ID: 17825930/0x0110008A) [9934*]:
    → "Oh no--whatever shall I do!? <Player>, I really need a shoulder to lean on!"
 32: 0x042F [0x23] WAIT_FOR_DIALOG_INTERACTION
 33: 0x0430 [0x2B] Sylvie (ID: 17825930/0x0110008A) [9935*]:
    → "My father...I--I heard news from the basalt fields..."
 34: 0x0437 [0x23] WAIT_FOR_DIALOG_INTERACTION
 35: 0x0438 [0x52] END_LOAD_SCHEDULER: End scheduler "s317" with entities [LocalPlayer, LocalPlayer], work=660*
 36: 0x0447 [0x45] LOAD_SCHEDULED_TASK: Load scheduler "s009" with entities [LocalPlayer, LocalPlayer], work=[660*, 0*]
 37: 0x0458 [0x2B] Sylvie (ID: 17825930/0x0110008A) [9936*]:
    → "They asked for his help in clearing safe passage there, b-but...there was word of a monster attack!"
 38: 0x045F [0x23] WAIT_FOR_DIALOG_INTERACTION
 39: 0x0460 [0x29] REQ_SET_WAIT(priority=0x08, entity_id=Sylvie (ID: 17825930/0x0110008A), tag_num=0x41)
 40: 0x0467 [0x2B] Sylvie (ID: 17825930/0x0110008A) [9937*]:
    → "Everyone got scattered and <sniff>...and they say bodies are starting to pile up!"
 41: 0x046E [0x23] WAIT_FOR_DIALOG_INTERACTION
 42: 0x046F [0x52] END_LOAD_SCHEDULER: End scheduler "s009" with entities [LocalPlayer, LocalPlayer], work=660*
 43: 0x047E [0x45] LOAD_SCHEDULED_TASK: Load scheduler "s318" with entities [LocalPlayer, LocalPlayer], work=[660*, 0*]
 44: 0x048F [0x2B] Sylvie (ID: 17825930/0x0110008A) [9938*]:
    → "And Daddy--he's gone missing! I told him it was too dangerous, but he wouldn't listen!"
 45: 0x0496 [0x23] WAIT_FOR_DIALOG_INTERACTION
 46: 0x0497 [0x45] LOAD_SCHEDULED_TASK: Load scheduler "fdo1" with entities [LocalPlayer, LocalPlayer], work=[200*, 0*]
 47: 0x04A8 [0x55] WAIT_LOAD_SCHEDULER: Wait for scheduler "fdo1" with entities [LocalPlayer, LocalPlayer], work=200*
 48: 0x04B7 [0x52] END_LOAD_SCHEDULER: End scheduler "s318" with entities [LocalPlayer, LocalPlayer], work=660*
 49: 0x04C6 [0x02] IF !(Work_Zone[9] == 5*) GOTO 0x04D8
 50: 0x04CE [0x29] REQ_SET_WAIT(priority=0x08, entity_id=LocalPlayer, tag_num=0x80)
 51: 0x04D5 [0x01] GOTO 0x04F1
 52: 0x04D8 [0x02] IF !(Work_Zone[9] == 6*) GOTO 0x04EA
 53: 0x04E0 [0x29] REQ_SET_WAIT(priority=0x08, entity_id=LocalPlayer, tag_num=0x80)
 54: 0x04E7 [0x01] GOTO 0x04F1
 55: 0x04EA [0x29] REQ_SET_WAIT(priority=0x08, entity_id=LocalPlayer, tag_num=0x81)

SUBROUTINE_04F1:
 56: 0x04F1 [0x4B] UPDATE_ENTITY_YAW(entity=Sylvie (ID: 17825930/0x0110008A), yaw=2.2°*)
 57: 0x04F8 [0x6F] WAIT_FRAME_DELAY: Yield until WaitTime reaches zero
 58: 0x04F9 [0x76] CHECK_ENTITY_RENDER_FLAGS: Wait until Sylvie (ID: 17825930/0x0110008A) Render.Flags0 and Render.Flags3 conditions are met
 59: 0x04FE [0x7B] Sylvie (ID: 17825930/0x0110008A) stops talking
 60: 0x0503 [0x81] SET_ENTITY_BLINKING(blink_flag=0x01, entity=Sylvie (ID: 17825930/0x0110008A))
 61: 0x0509 [0x27] REQ_SET(priority=0x08, entity_id=LocalPlayer, tag_num=0x7C)
 62: 0x0510 [0x45] LOAD_SCHEDULED_TASK: Load scheduler "s010" with entities [LocalPlayer, LocalPlayer], work=[660*, 0*]
 63: 0x0521 [0x45] LOAD_SCHEDULED_TASK: Load scheduler "fdi1" with entities [LocalPlayer, LocalPlayer], work=[200*, 0*]
 64: 0x0532 [0x55] WAIT_LOAD_SCHEDULER: Wait for scheduler "fdi1" with entities [LocalPlayer, LocalPlayer], work=200*
 65: 0x0541 [0x1C] WAIT(30* ticks)
 66: 0x0544 [0x1C] WAIT(90* ticks)
 67: 0x0547 [0x2B] Sylvie (ID: 17825930/0x0110008A) [9939*]:
    → "I-I'm sorry for being overly emotional. I just don't know where to turn, and since you've never let me down before..."
 68: 0x054E [0x1C] WAIT(90* ticks)
 69: 0x0551 [0x52] END_LOAD_SCHEDULER: End scheduler "s010" with entities [LocalPlayer, LocalPlayer], work=660*
 70: 0x0560 [0x45] LOAD_SCHEDULED_TASK: Load scheduler "s011" with entities [LocalPlayer, LocalPlayer], work=[660*, 0*]
 71: 0x0571 [0x23] WAIT_FOR_DIALOG_INTERACTION
 72: 0x0572 [0x29] REQ_SET_WAIT(priority=0x08, entity_id=Sylvie (ID: 17825930/0x0110008A), tag_num=0x2C)
 73: 0x0579 [0x2B] Sylvie (ID: 17825930/0x0110008A) [9940*]:
    → "If only I had been a better geomancer, maybe it wouldn't have turned out like this! But no, I'm always bumbling about, causing trouble."
 74: 0x0580 [0x23] WAIT_FOR_DIALOG_INTERACTION
 75: 0x0581 [0x29] REQ_SET_WAIT(priority=0x08, entity_id=Sylvie (ID: 17825930/0x0110008A), tag_num=0x2D)
 76: 0x0588 [0x2A] GET_REQ_LEVEL(level=8, entity_id=LocalPlayer)
 77: 0x058E [0x52] END_LOAD_SCHEDULER: End scheduler "s011" with entities [LocalPlayer, LocalPlayer], work=660*
 78: 0x059D [0x45] LOAD_SCHEDULED_TASK: Load scheduler "s319" with entities [LocalPlayer, LocalPlayer], work=[660*, 0*]
 79: 0x05AE [0x79] LocalPlayer looks at Sylvie (ID: 17825930/0x0110008A) (Basic look)
 80: 0x05B8 [0x2B] Sylvie (ID: 17825930/0x0110008A) [9941*]:
    → "Sih Renaye, great primal geomancer, if your spirit still slumbers within Adoulin's soil, then I beg of you..."
 81: 0x05BF [0x23] WAIT_FOR_DIALOG_INTERACTION
 82: 0x05C0 [0x52] END_LOAD_SCHEDULER: End scheduler "s319" with entities [LocalPlayer, LocalPlayer], work=660*
 83: 0x05CF [0x45] LOAD_SCHEDULED_TASK: Load scheduler "s320" with entities [LocalPlayer, LocalPlayer], work=[660*, 0*]
 84: 0x05E0 [0x29] REQ_SET_WAIT(priority=0x08, entity_id=Sylvie (ID: 17825930/0x0110008A), tag_num=0x2E)
 85: 0x05E7 [0x1C] WAIT(20* ticks)
 86: 0x05EA [0x2B] Sylvie (ID: 17825930/0x0110008A) [9942*]:
    → "...That's it! I'll go ask Ikhi Askamot! You know her, <Player>? She's said to be the reincarnation of Sih Renaye herself."
 87: 0x05F1 [0x23] WAIT_FOR_DIALOG_INTERACTION
 88: 0x05F2 [0x29] REQ_SET_WAIT(priority=0x08, entity_id=Sylvie (ID: 17825930/0x0110008A), tag_num=0x2F)
 89: 0x05F9 [0x52] END_LOAD_SCHEDULER: End scheduler "s320" with entities [LocalPlayer, LocalPlayer], work=660*
 90: 0x0608 [0x45] LOAD_SCHEDULED_TASK: Load scheduler "s322" with entities [LocalPlayer, LocalPlayer], work=[660*, 0*]
 91: 0x0619 [0x4A] Sylvie (ID: 17825930/0x0110008A) looks at LocalPlayer
 92: 0x0622 [0x6F] WAIT_FRAME_DELAY: Yield until WaitTime reaches zero
 93: 0x0623 [0x76] CHECK_ENTITY_RENDER_FLAGS: Wait until Sylvie (ID: 17825930/0x0110008A) Render.Flags0 and Render.Flags3 conditions are met
 94: 0x0628 [0x29] REQ_SET_WAIT(priority=0x08, entity_id=Sylvie (ID: 17825930/0x0110008A), tag_num=0x11)
 95: 0x062F [0x2B] Sylvie (ID: 17825930/0x0110008A) [9943*]:
    → "Would you go with me to her manor? I know I'm always dragging you places, but please--a friend in need is a penny earned, right?"
 96: 0x0636 [0x23] WAIT_FOR_DIALOG_INTERACTION
 97: 0x0637 [0x29] REQ_SET_WAIT(priority=0x08, entity_id=Sylvie (ID: 17825930/0x0110008A), tag_num=0x12)
 98: 0x063E [0x29] REQ_SET_WAIT(priority=0x08, entity_id=Sylvie (ID: 17825930/0x0110008A), tag_num=0x13)
 99: 0x0645 [0x2B] Sylvie (ID: 17825930/0x0110008A) [9944*]:
    → "And, uh, to be honest, I'm a little scared of going on my own."
100: 0x064C [0x23] WAIT_FOR_DIALOG_INTERACTION
101: 0x064D [0x29] REQ_SET_WAIT(priority=0x08, entity_id=Sylvie (ID: 17825930/0x0110008A), tag_num=0x14)
102: 0x0654 [0x29] REQ_SET_WAIT(priority=0x08, entity_id=Sylvie (ID: 17825930/0x0110008A), tag_num=0x1A)
103: 0x065B [0x2B] Sylvie (ID: 17825930/0x0110008A) [9945*]:
    → "Her residence is in Eastern Adoulin. I've got to gussy up a bit first, but I'll be sure to meet you there!"
104: 0x0662 [0x23] WAIT_FOR_DIALOG_INTERACTION
105: 0x0663 [0x29] REQ_SET_WAIT(priority=0x08, entity_id=Sylvie (ID: 17825930/0x0110008A), tag_num=0x1B)
106: 0x066A [0x5D] SET_MUSIC_VOLUME(volume=0*, fade_time=200*)
107: 0x066F [0x45] LOAD_SCHEDULED_TASK: Load scheduler "fdo1" with entities [LocalPlayer, LocalPlayer], work=[200*, 0*]
108: 0x0680 [0x55] WAIT_LOAD_SCHEDULER: Wait for scheduler "fdo1" with entities [LocalPlayer, LocalPlayer], work=200*
109: 0x068F [0x4E] SET_ENTITY_HIDE_FLAG: Show LocalPlayer
110: 0x0695 [0x52] END_LOAD_SCHEDULER: End scheduler "s322" with entities [LocalPlayer, LocalPlayer], work=660*
111: 0x06A4 [0x5C] MUSIC_CONTROL: Set Idle (Day) music to song 59*
112: 0x06A8 [0x5C] MUSIC_CONTROL: Set Idle (Night) music to song 59*
113: 0x06AC [0x9A] WAIT_MUSIC_SERVER()
114: 0x06AD [0x5D] SET_MUSIC_VOLUME(volume=127*, fade_time=1*)
115: 0x06B2 [0x1C] WAIT(2* ticks)
116: 0x06B5 [0x46] CAMERA_CONTROL: Restore default settings
117: 0x06B7 [0x45] LOAD_SCHEDULED_TASK: Load scheduler "fdi1" with entities [LocalPlayer, LocalPlayer], work=[200*, 0*]
118: 0x06C8 [0x20] SET_CLI_EVENT_UC_FLAG: Unlock player control
119: 0x06CA [0x21] END_EVENT
120: 0x06CB [0x00] END_REQSTACK()
```

### Event 54

#### Metadata

| Field        | Value      |
|--------------|------------|
| Entrypoint   | 0x06CC     |
| Data Size    | 1945 bytes |
| Instructions | 258        |

```
      00 01 02 03 04 05 06 07  08 09 0A 0B 0C 0D 0E 0F
      -- -- -- -- -- -- -- --  -- -- -- -- -- -- -- --
06C0:                                      42 46 01 45              BF.E
06D0: 00 80 F0 FF FF 7F F0 FF  FF 7F 66 64 6F 31 01 80  ..........fdo1..
06E0: 55 00 80 F0 FF FF 7F F0  FF FF 7F 66 64 6F 31 38  U..........fdo18
06F0: 02 80 5D 01 80 00 80 29  08 F0 FF FF 7F 7F 29 08  ..]....)......).
0700: 35 01 10 01 15 29 08 F0  FF FF 7F 7A 4A F0 FF FF  5....).....zJ...
0710: 7F 8A 00 10 01 4A 8A 00  10 01 F0 FF FF 7F 92 01  .....J..........
0720: 8A 00 10 01 92 01 26 01  10 01 92 01 24 01 10 01  ......&.....$...
0730: 92 01 20 01 10 01 92 01  27 01 10 01 92 01 29 01  .. .....'.....).
0740: 10 01 92 01 28 01 10 01  92 01 35 01 10 01 29 08  ....(.....5...).
0750: 8A 00 10 01 2C 1C 15 80  6F 76 8A 00 10 01 6F 76  ....,...ov....ov
0760: F0 FF FF 7F 80 35 01 10  01 45 29 80 F0 FF FF 7F  .....5...E).....
0770: F0 FF FF 7F 73 30 30 32  01 80 45 00 80 F0 FF FF  ....s002..E.....
0780: 7F F0 FF FF 7F 66 64 69  31 01 80 55 00 80 F0 FF  .....fdi1..U....
0790: FF 7F F0 FF FF 7F 66 64  69 31 29 08 35 01 10 01  ......fdi1).5...
07A0: 16 5C 00 2A 80 5C 01 2A  80 9A 5D 17 80 0C 80 2B  .\.*.\.*..]....+
07B0: 8A 00 10 01 2B 80 23 27  08 35 01 10 01 17 2B 35  ....+.#'.5....+5
07C0: 01 10 01 2C 80 1C 1E 80  4B F0 FF FF 7F 2D 80 79  ...,....K....-.y
07D0: 00 F0 FF FF 7F 35 01 10  01 79 00 8A 00 10 01 35  .....5...y.....5
07E0: 01 10 01 29 08 8A 00 10  01 2A 29 08 8A 00 10 01  ...).....*).....
07F0: 2B 4A 8A 00 10 01 35 01  10 01 6F 76 F0 FF FF 7F  +J....5...ov....
0800: 52 29 80 F0 FF FF 7F F0  FF FF 7F 73 30 30 32 45  R).........s002E
0810: 29 80 F0 FF FF 7F F0 FF  FF 7F 73 30 31 36 01 80  ).........s016..
0820: 6F 76 8A 00 10 01 27 08  8A 00 10 01 78 23 2A 08  ov....'.....x#*.
0830: 35 01 10 01 29 08 35 01  10 01 01 1C 15 80 52 29  5...).5.......R)
0840: 80 F0 FF FF 7F F0 FF FF  7F 73 30 31 36 45 29 80  .........s016E).
0850: F0 FF FF 7F F0 FF FF 7F  73 30 32 36 01 80 2B 35  ........s026..+5
0860: 01 10 01 2E 80 23 29 08  35 01 10 01 02 29 08 35  .....#).5....).5
0870: 01 10 01 03 2A 08 8A 00  10 01 52 29 80 F0 FF FF  ....*.....R)....
0880: 7F F0 FF FF 7F 73 30 32  36 45 29 80 F0 FF FF 7F  .....s026E).....
0890: F0 FF FF 7F 73 30 31 37  01 80 29 08 8A 00 10 01  ....s017..).....
08A0: 11 2B 8A 00 10 01 2F 80  23 29 08 8A 00 10 01 12  .+..../.#)......
08B0: 29 08 8A 00 10 01 13 29  08 35 01 10 01 04 27 08  )......).5....'.
08C0: 35 01 10 01 11 2B 35 01  10 01 30 80 23 2A 08 35  5....+5...0.#*.5
08D0: 01 10 01 29 08 8A 00 10  01 14 52 29 80 F0 FF FF  ...)......R)....
08E0: 7F F0 FF FF 7F 73 30 31  37 02 09 10 07 80 00 05  .....s017.......
08F0: 09 45 29 80 F0 FF FF 7F  F0 FF FF 7F 73 30 32 37  .E).........s027
0900: 01 80 01 4E 09 02 09 10  08 80 00 21 09 45 29 80  ...N.......!.E).
0910: F0 FF FF 7F F0 FF FF 7F  73 30 32 37 01 80 01 4E  ........s027...N
0920: 09 02 09 10 31 80 00 3D  09 45 29 80 F0 FF FF 7F  ....1..=.E).....
0930: F0 FF FF 7F 73 33 34 30  01 80 01 4E 09 45 29 80  ....s340...N.E).
0940: F0 FF FF 7F F0 FF FF 7F  73 30 31 39 01 80 27 08  ........s019..'.
0950: F0 FF FF 7F 82 29 08 8A  00 10 01 3C 2B 8A 00 10  .....).....<+...
0960: 01 32 80 23 29 08 8A 00  10 01 3D 02 09 10 07 80  .2.#).....=.....
0970: 00 85 09 52 29 80 F0 FF  FF 7F F0 FF FF 7F 73 30  ...R).........s0
0980: 32 37 01 C8 09 02 09 10  08 80 00 9F 09 52 29 80  27...........R).
0990: F0 FF FF 7F F0 FF FF 7F  73 30 32 37 01 C8 09 02  ........s027....
09A0: 09 10 31 80 00 B9 09 52  29 80 F0 FF FF 7F F0 FF  ..1....R).......
09B0: FF 7F 73 33 34 30 01 C8  09 52 29 80 F0 FF FF 7F  ..s340...R).....
09C0: F0 FF FF 7F 73 30 31 39  24 33 80 01 80 01 80 25  ....s019$3.....%
09D0: 02 00 10 01 80 00 0F 0A  45 29 80 F0 FF FF 7F F0  ........E)......
09E0: FF FF 7F 73 30 31 38 01  80 79 00 35 01 10 01 F0  ...s018..y.5....
09F0: FF FF 7F 29 08 8A 00 10  01 3E 79 00 F0 FF FF 7F  ...).....>y.....
0A00: 35 01 10 01 2B 35 01 10  01 34 80 23 01 8D 0A 02  5...+5...4.#....
0A10: 00 10 0C 80 00 4E 0A 45  29 80 F0 FF FF 7F F0 FF  .....N.E).......
0A20: FF 7F 73 30 31 38 01 80  79 00 35 01 10 01 F0 FF  ..s018..y.5.....
0A30: FF 7F 29 08 8A 00 10 01  3E 79 00 F0 FF FF 7F 35  ..).....>y.....5
0A40: 01 10 01 2B 35 01 10 01  35 80 23 01 8D 0A 02 00  ...+5...5.#.....
0A50: 10 28 80 00 8D 0A 45 29  80 F0 FF FF 7F F0 FF FF  .(....E)........
0A60: 7F 73 30 31 38 01 80 79  00 35 01 10 01 F0 FF FF  .s018..y.5......
0A70: 7F 29 08 8A 00 10 01 3E  79 00 F0 FF FF 7F 35 01  .).....>y.....5.
0A80: 10 01 2B 35 01 10 01 36  80 23 01 8D 0A 2B 35 01  ..+5...6.#...+5.
0A90: 10 01 37 80 23 29 08 8A  00 10 01 3F 52 29 80 F0  ..7.#).....?R)..
0AA0: FF FF 7F F0 FF FF 7F 73  30 31 38 45 29 80 F0 FF  .......s018E)...
0AB0: FF 7F F0 FF FF 7F 73 30  32 30 01 80 27 08 35 01  ......s020..'.5.
0AC0: 10 01 18 1C 38 80 2B 35  01 10 01 39 80 23 2A 08  ....8.+5...9.#*.
0AD0: F0 FF FF 7F 2B 35 01 10  01 3A 80 23 2A 08 35 01  ....+5...:.#*.5.
0AE0: 10 01 4B 35 01 10 01 3B  80 6F 76 35 01 10 01 4A  ..K5...;.ov5...J
0AF0: 8A 00 10 01 35 01 10 01  52 29 80 F0 FF FF 7F F0  ....5...R)......
0B00: FF FF 7F 73 30 32 30 45  29 80 F0 FF FF 7F F0 FF  ...s020E).......
0B10: FF 7F 73 30 32 31 01 80  02 09 10 07 80 00 2D 0B  ..s021........-.
0B20: 79 00 35 01 10 01 8A 00  10 01 01 3F 0B 02 09 10  y.5........?....
0B30: 08 80 00 3F 0B 79 00 35  01 10 01 8A 00 10 01 29  ...?.y.5.......)
0B40: 08 35 01 10 01 09 2B 35  01 10 01 3C 80 23 29 08  .5....+5...<.#).
0B50: 35 01 10 01 0A 29 08 35  01 10 01 0B 6F 76 8A 00  5....).5....ov..
0B60: 10 01 79 00 35 01 10 01  8A 00 10 01 27 08 8A 00  ..y.5.......'...
0B70: 10 01 49 2B 8A 00 10 01  3D 80 23 29 08 35 01 10  ..I+....=.#).5..
0B80: 01 0C 27 08 35 01 10 01  12 2B 35 01 10 01 3E 80  ..'.5....+5...>.
0B90: 23 52 29 80 F0 FF FF 7F  F0 FF FF 7F 73 30 32 31  #R).........s021
0BA0: 45 29 80 F0 FF FF 7F F0  FF FF 7F 73 30 32 35 01  E).........s025.
0BB0: 80 2A 08 8A 00 10 01 2A  08 35 01 10 01 79 00 35  .*.....*.5...y.5
0BC0: 01 10 01 F0 FF FF 7F 27  08 35 01 10 01 19 2B 35  .......'.5....+5
0BD0: 01 10 01 3F 80 23 2A 08  35 01 10 01 1C 15 80 29  ...?.#*.5......)
0BE0: 08 35 01 10 01 05 2B 35  01 10 01 40 80 23 29 08  .5....+5...@.#).
0BF0: 35 01 10 01 06 52 29 80  F0 FF FF 7F F0 FF FF 7F  5....R).........
0C00: 73 30 32 35 45 29 80 F0  FF FF 7F F0 FF FF 7F 73  s025E).........s
0C10: 30 32 32 01 80 29 08 35  01 10 01 06 79 00 35 01  022..).5....y.5.
0C20: 10 01 8A 00 10 01 2B 35  01 10 01 41 80 23 29 08  ......+5...A.#).
0C30: 8A 00 10 01 4C 27 08 35  01 10 01 1A 1C 42 80 52  ....L'.5.....B.R
0C40: 29 80 F0 FF FF 7F F0 FF  FF 7F 73 30 32 32 45 29  ).........s022E)
0C50: 80 F0 FF FF 7F F0 FF FF  7F 73 30 32 33 01 80 1C  .........s023...
0C60: 43 80 52 29 80 F0 FF FF  7F F0 FF FF 7F 73 30 32  C.R).........s02
0C70: 33 02 09 10 07 80 00 8D  0C 45 29 80 F0 FF FF 7F  3........E).....
0C80: F0 FF FF 7F 73 30 30 38  01 80 01 BA 0C 02 09 10  ....s008........
0C90: 08 80 00 A9 0C 45 29 80  F0 FF FF 7F F0 FF FF 7F  .....E).........
0CA0: 73 30 30 38 01 80 01 BA  0C 45 29 80 F0 FF FF 7F  s008.....E).....
0CB0: F0 FF FF 7F 73 30 30 34  01 80 1C 38 80 27 08 F0  ....s004...8.'..
0CC0: FF FF 7F 82 2B 8A 00 10  01 44 80 23 1C 15 80 2B  ....+....D.#...+
0CD0: 8A 00 10 01 45 80 4A 8A  00 10 01 F0 FF FF 7F 6F  ....E.J........o
0CE0: 76 F0 FF FF 7F 1C 15 80  02 09 10 07 80 00 02 0D  v...............
0CF0: 52 29 80 F0 FF FF 7F F0  FF FF 7F 73 30 30 38 01  R).........s008.
0D00: 2B 0D 02 09 10 08 80 00  1C 0D 52 29 80 F0 FF FF  +.........R)....
0D10: 7F F0 FF FF 7F 73 30 30  38 01 2B 0D 52 29 80 F0  .....s008.+.R)..
0D20: FF FF 7F F0 FF FF 7F 73  30 30 34 45 29 80 F0 FF  .......s004E)...
0D30: FF 7F F0 FF FF 7F 73 30  32 34 01 80 2A 08 F0 FF  ......s024..*...
0D40: FF 7F 4A F0 FF FF 7F 8A  00 10 01 29 08 8A 00 10  ..J........)....
0D50: 01 26 23 29 08 8A 00 10  01 27 6F 76 F0 FF FF 7F  .&#).....'ov....
0D60: 52 29 80 F0 FF FF 7F F0  FF FF 7F 73 30 32 34 02  R).........s024.
0D70: 09 10 07 80 00 8B 0D 45  29 80 F0 FF FF 7F F0 FF  .......E).......
0D80: FF 7F 73 30 32 37 01 80  01 B8 0D 02 09 10 08 80  ..s027..........
0D90: 00 A7 0D 45 29 80 F0 FF  FF 7F F0 FF FF 7F 73 30  ...E).........s0
0DA0: 32 37 01 80 01 B8 0D 45  29 80 F0 FF FF 7F F0 FF  27.....E).......
0DB0: FF 7F 73 30 31 39 01 80  1C 1E 80 2B 8A 00 10 01  ..s019.....+....
0DC0: 46 80 23 45 00 80 F0 FF  FF 7F F0 FF FF 7F 66 64  F.#E..........fd
0DD0: 6F 31 01 80 55 00 80 F0  FF FF 7F F0 FF FF 7F 66  o1..U..........f
0DE0: 64 6F 31 2A 08 35 01 10  01 02 09 10 07 80 00 03  do1*.5..........
0DF0: 0E 52 29 80 F0 FF FF 7F  F0 FF FF 7F 73 30 32 37  .R).........s027
0E00: 01 2C 0E 02 09 10 08 80  00 1D 0E 52 29 80 F0 FF  .,.........R)...
0E10: FF 7F F0 FF FF 7F 73 30  32 37 01 2C 0E 52 29 80  ......s027.,.R).
0E20: F0 FF FF 7F F0 FF FF 7F  73 30 31 39 45 47 80 F8  ........s019EG..
0E30: FF FF 7F F8 FF FF 7F 71  73 74 63 01 80 5C 00 27  .......qstc..\.'
0E40: 80 5C 01 27 80 9A 5D 17  80 0C 80 1C 28 80 46 00  .\.'..].....(.F.
0E50: 45 00 80 F0 FF FF 7F F0  FF FF 7F 66 64 69 31 01  E..........fdi1.
0E60: 80 20 00 21 00                                    . .!.           
```

#### Opcodes

```
  0: 0x06CC [0x42] SET_CLI_EVENT_CANCEL_DATA()
  1: 0x06CD [0x46] CAMERA_CONTROL: Disable user control
  2: 0x06CF [0x45] LOAD_SCHEDULED_TASK: Load scheduler "fdo1" with entities [LocalPlayer, LocalPlayer], work=[200*, 0*]
  3: 0x06E0 [0x55] WAIT_LOAD_SCHEDULER: Wait for scheduler "fdo1" with entities [LocalPlayer, LocalPlayer], work=200*
  4: 0x06EF [0x38] SET_CLIENT_EVENT_MODE(mode=3*)
  5: 0x06F2 [0x5D] SET_MUSIC_VOLUME(volume=0*, fade_time=200*)
  6: 0x06F7 [0x29] REQ_SET_WAIT(priority=0x08, entity_id=LocalPlayer, tag_num=0x7F)
  7: 0x06FE [0x29] REQ_SET_WAIT(priority=0x08, entity_id=Lhaiso Neftereh (ID: 17826101/0x01100135), tag_num=0x15)
  8: 0x0705 [0x29] REQ_SET_WAIT(priority=0x08, entity_id=LocalPlayer, tag_num=0x7A)
  9: 0x070C [0x4A] LocalPlayer looks at Sylvie (ID: 17825930/0x0110008A)
 10: 0x0715 [0x4A] Sylvie (ID: 17825930/0x0110008A) looks at LocalPlayer
 11: 0x071E [0x92] Sylvie (ID: 17825930/0x0110008A)->Render.Flags3 ^= 0x01
 12: 0x0724 [0x92] Jorin (ID: 17826086/0x01100126)->Render.Flags3 ^= 0x01
 13: 0x072A [0x92] Kongramm (ID: 17826084/0x01100124)->Render.Flags3 ^= 0x01
 14: 0x0730 [0x92] Westerly Breeze (ID: 17826080/0x01100120)->Render.Flags3 ^= 0x01
 15: 0x0736 [0x92] Ledericus (ID: 17826087/0x01100127)->Render.Flags3 ^= 0x01
 16: 0x073C [0x92] Eukalline (ID: 17826089/0x01100129)->Render.Flags3 ^= 0x01
 17: 0x0742 [0x92] Ishvad (ID: 17826088/0x01100128)->Render.Flags3 ^= 0x01
 18: 0x0748 [0x92] Lhaiso Neftereh (ID: 17826101/0x01100135)->Render.Flags3 ^= 0x01
 19: 0x074E [0x29] REQ_SET_WAIT(priority=0x08, entity_id=Sylvie (ID: 17825930/0x0110008A), tag_num=0x2C)
 20: 0x0755 [0x1C] WAIT(20* ticks)
 21: 0x0758 [0x6F] WAIT_FRAME_DELAY: Yield until WaitTime reaches zero
 22: 0x0759 [0x76] CHECK_ENTITY_RENDER_FLAGS: Wait until Sylvie (ID: 17825930/0x0110008A) Render.Flags0 and Render.Flags3 conditions are met
 23: 0x075E [0x6F] WAIT_FRAME_DELAY: Yield until WaitTime reaches zero
 24: 0x075F [0x76] CHECK_ENTITY_RENDER_FLAGS: Wait until LocalPlayer Render.Flags0 and Render.Flags3 conditions are met
 25: 0x0764 [0x80] LOAD_WAIT(entity=Lhaiso Neftereh (ID: 17826101/0x01100135))
 26: 0x0769 [0x45] LOAD_SCHEDULED_TASK: Load scheduler "s002" with entities [LocalPlayer, LocalPlayer], work=[663*, 0*]
 27: 0x077A [0x45] LOAD_SCHEDULED_TASK: Load scheduler "fdi1" with entities [LocalPlayer, LocalPlayer], work=[200*, 0*]
 28: 0x078B [0x55] WAIT_LOAD_SCHEDULER: Wait for scheduler "fdi1" with entities [LocalPlayer, LocalPlayer], work=200*
 29: 0x079A [0x29] REQ_SET_WAIT(priority=0x08, entity_id=Lhaiso Neftereh (ID: 17826101/0x01100135), tag_num=0x16)
 30: 0x07A1 [0x5C] MUSIC_CONTROL: Set Idle (Day) music to song 124*
 31: 0x07A5 [0x5C] MUSIC_CONTROL: Set Idle (Night) music to song 124*
 32: 0x07A9 [0x9A] WAIT_MUSIC_SERVER()
 33: 0x07AA [0x5D] SET_MUSIC_VOLUME(volume=127*, fade_time=1*)
 34: 0x07AF [0x2B] Sylvie (ID: 17825930/0x0110008A) [9950*]:
    → "Oh, <Player>...hi again. Lhaiso told me to get some rest so I could "get my wits about me," but it's so hard..."
 35: 0x07B6 [0x23] WAIT_FOR_DIALOG_INTERACTION
 36: 0x07B7 [0x27] REQ_SET(priority=0x08, entity_id=Lhaiso Neftereh (ID: 17826101/0x01100135), tag_num=0x17)
 37: 0x07BE [0x2B] Lhaiso Neftereh (ID: 17826101/0x01100135) [9951*]:
    → "Would you look at the two of you, prattling away like nothing happened! Did I not tell you to get some rest?"
 38: 0x07C5 [0x1C] WAIT(30* ticks)
 39: 0x07C8 [0x4B] UPDATE_ENTITY_YAW(entity=LocalPlayer, yaw=6.9°*)
 40: 0x07CF [0x79] LocalPlayer looks at Lhaiso Neftereh (ID: 17826101/0x01100135) (Basic look)
 41: 0x07D9 [0x79] Sylvie (ID: 17825930/0x0110008A) looks at Lhaiso Neftereh (ID: 17826101/0x01100135) (Basic look)
 42: 0x07E3 [0x29] REQ_SET_WAIT(priority=0x08, entity_id=Sylvie (ID: 17825930/0x0110008A), tag_num=0x2A)
 43: 0x07EA [0x29] REQ_SET_WAIT(priority=0x08, entity_id=Sylvie (ID: 17825930/0x0110008A), tag_num=0x2B)
 44: 0x07F1 [0x4A] Sylvie (ID: 17825930/0x0110008A) looks at Lhaiso Neftereh (ID: 17826101/0x01100135)
 45: 0x07FA [0x6F] WAIT_FRAME_DELAY: Yield until WaitTime reaches zero
 46: 0x07FB [0x76] CHECK_ENTITY_RENDER_FLAGS: Wait until LocalPlayer Render.Flags0 and Render.Flags3 conditions are met
 47: 0x0800 [0x52] END_LOAD_SCHEDULER: End scheduler "s002" with entities [LocalPlayer, LocalPlayer], work=663*
 48: 0x080F [0x45] LOAD_SCHEDULED_TASK: Load scheduler "s016" with entities [LocalPlayer, LocalPlayer], work=[663*, 0*]
 49: 0x0820 [0x6F] WAIT_FRAME_DELAY: Yield until WaitTime reaches zero
 50: 0x0821 [0x76] CHECK_ENTITY_RENDER_FLAGS: Wait until Sylvie (ID: 17825930/0x0110008A) Render.Flags0 and Render.Flags3 conditions are met
 51: 0x0826 [0x27] REQ_SET(priority=0x08, entity_id=Sylvie (ID: 17825930/0x0110008A), tag_num=0x78)
 52: 0x082D [0x23] WAIT_FOR_DIALOG_INTERACTION
 53: 0x082E [0x2A] GET_REQ_LEVEL(level=8, entity_id=Lhaiso Neftereh (ID: 17826101/0x01100135))
 54: 0x0834 [0x29] REQ_SET_WAIT(priority=0x08, entity_id=Lhaiso Neftereh (ID: 17826101/0x01100135), tag_num=0x01)
 55: 0x083B [0x1C] WAIT(20* ticks)
 56: 0x083E [0x52] END_LOAD_SCHEDULER: End scheduler "s016" with entities [LocalPlayer, LocalPlayer], work=663*
 57: 0x084D [0x45] LOAD_SCHEDULED_TASK: Load scheduler "s026" with entities [LocalPlayer, LocalPlayer], work=[663*, 0*]
 58: 0x085E [0x2B] Lhaiso Neftereh (ID: 17826101/0x01100135) [9952*]:
    → "I have brought Hostenn's body back to Adoulin, so that we can give him a proper funeral. I shall handle all the preparations, darling. No need to worry yourself sick about it."
 59: 0x0865 [0x23] WAIT_FOR_DIALOG_INTERACTION
 60: 0x0866 [0x29] REQ_SET_WAIT(priority=0x08, entity_id=Lhaiso Neftereh (ID: 17826101/0x01100135), tag_num=0x02)
 61: 0x086D [0x29] REQ_SET_WAIT(priority=0x08, entity_id=Lhaiso Neftereh (ID: 17826101/0x01100135), tag_num=0x03)
 62: 0x0874 [0x2A] GET_REQ_LEVEL(level=8, entity_id=Sylvie (ID: 17825930/0x0110008A))
 63: 0x087A [0x52] END_LOAD_SCHEDULER: End scheduler "s026" with entities [LocalPlayer, LocalPlayer], work=663*
 64: 0x0889 [0x45] LOAD_SCHEDULED_TASK: Load scheduler "s017" with entities [LocalPlayer, LocalPlayer], work=[663*, 0*]
 65: 0x089A [0x29] REQ_SET_WAIT(priority=0x08, entity_id=Sylvie (ID: 17825930/0x0110008A), tag_num=0x11)
 66: 0x08A1 [0x2B] Sylvie (ID: 17825930/0x0110008A) [9953*]:
    → "Lhaiso, aren't you concerned what the others will think? What with me being a descendant of Zacariah..."
 67: 0x08A8 [0x23] WAIT_FOR_DIALOG_INTERACTION
 68: 0x08A9 [0x29] REQ_SET_WAIT(priority=0x08, entity_id=Sylvie (ID: 17825930/0x0110008A), tag_num=0x12)
 69: 0x08B0 [0x29] REQ_SET_WAIT(priority=0x08, entity_id=Sylvie (ID: 17825930/0x0110008A), tag_num=0x13)
 70: 0x08B7 [0x29] REQ_SET_WAIT(priority=0x08, entity_id=Lhaiso Neftereh (ID: 17826101/0x01100135), tag_num=0x04)
 71: 0x08BE [0x27] REQ_SET(priority=0x08, entity_id=Lhaiso Neftereh (ID: 17826101/0x01100135), tag_num=0x11)
 72: 0x08C5 [0x2B] Lhaiso Neftereh (ID: 17826101/0x01100135) [9954*]:
    → "They have got more important things to worry about, what with how I took the great Sih Renaye's bell from its holding place."
 73: 0x08CC [0x23] WAIT_FOR_DIALOG_INTERACTION
 74: 0x08CD [0x2A] GET_REQ_LEVEL(level=8, entity_id=Lhaiso Neftereh (ID: 17826101/0x01100135))
 75: 0x08D3 [0x29] REQ_SET_WAIT(priority=0x08, entity_id=Sylvie (ID: 17825930/0x0110008A), tag_num=0x14)
 76: 0x08DA [0x52] END_LOAD_SCHEDULER: End scheduler "s017" with entities [LocalPlayer, LocalPlayer], work=663*
 77: 0x08E9 [0x02] IF !(Work_Zone[9] == 5*) GOTO 0x0905
 78: 0x08F1 [0x45] LOAD_SCHEDULED_TASK: Load scheduler "s027" with entities [LocalPlayer, LocalPlayer], work=[663*, 0*]
 79: 0x0902 [0x01] GOTO 0x094E
 80: 0x0905 [0x02] IF !(Work_Zone[9] == 6*) GOTO 0x0921
 81: 0x090D [0x45] LOAD_SCHEDULED_TASK: Load scheduler "s027" with entities [LocalPlayer, LocalPlayer], work=[663*, 0*]
 82: 0x091E [0x01] GOTO 0x094E
 83: 0x0921 [0x02] IF !(Work_Zone[9] == 8*) GOTO 0x093D
 84: 0x0929 [0x45] LOAD_SCHEDULED_TASK: Load scheduler "s340" with entities [LocalPlayer, LocalPlayer], work=[663*, 0*]
 85: 0x093A [0x01] GOTO 0x094E
 86: 0x093D [0x45] LOAD_SCHEDULED_TASK: Load scheduler "s019" with entities [LocalPlayer, LocalPlayer], work=[663*, 0*]

SUBROUTINE_094E:
 87: 0x094E [0x27] REQ_SET(priority=0x08, entity_id=LocalPlayer, tag_num=0x82)
 88: 0x0955 [0x29] REQ_SET_WAIT(priority=0x08, entity_id=Sylvie (ID: 17825930/0x0110008A), tag_num=0x3C)
 89: 0x095C [0x2B] Sylvie (ID: 17825930/0x0110008A) [9955*]:
    → "Now that you mention it...what happened out there? I was so upset about Daddy that I didn't even notice."
 90: 0x0963 [0x23] WAIT_FOR_DIALOG_INTERACTION
 91: 0x0964 [0x29] REQ_SET_WAIT(priority=0x08, entity_id=Sylvie (ID: 17825930/0x0110008A), tag_num=0x3D)
 92: 0x096B [0x02] IF !(Work_Zone[9] == 5*) GOTO 0x0985
 93: 0x0973 [0x52] END_LOAD_SCHEDULER: End scheduler "s027" with entities [LocalPlayer, LocalPlayer], work=663*
 94: 0x0982 [0x01] GOTO 0x09C8
 95: 0x0985 [0x02] IF !(Work_Zone[9] == 6*) GOTO 0x099F
 96: 0x098D [0x52] END_LOAD_SCHEDULER: End scheduler "s027" with entities [LocalPlayer, LocalPlayer], work=663*
 97: 0x099C [0x01] GOTO 0x09C8
 98: 0x099F [0x02] IF !(Work_Zone[9] == 8*) GOTO 0x09B9
 99: 0x09A7 [0x52] END_LOAD_SCHEDULER: End scheduler "s340" with entities [LocalPlayer, LocalPlayer], work=663*
100: 0x09B6 [0x01] GOTO 0x09C8
101: 0x09B9 [0x52] END_LOAD_SCHEDULER: End scheduler "s019" with entities [LocalPlayer, LocalPlayer], work=663*

SUBROUTINE_09C8:
102: 0x09C8 [0x24] CREATE_DIALOG(message_id=9956*, default_option=0*, option_flags=0*)
    → "What happened back in Morimar? [I heard a strange voice./I saw a strange spell cast./I'm not exactly sure.]"
103: 0x09CF [0x25] WAIT_DIALOG_SELECT()
104: 0x09D0 [0x02] IF !(Work_Zone[0] == 0*) GOTO 0x0A0F
105: 0x09D8 [0x45] LOAD_SCHEDULED_TASK: Load scheduler "s018" with entities [LocalPlayer, LocalPlayer], work=[663*, 0*]
106: 0x09E9 [0x79] Lhaiso Neftereh (ID: 17826101/0x01100135) looks at LocalPlayer (Basic look)
107: 0x09F3 [0x29] REQ_SET_WAIT(priority=0x08, entity_id=Sylvie (ID: 17825930/0x0110008A), tag_num=0x3E)
108: 0x09FA [0x79] LocalPlayer looks at Lhaiso Neftereh (ID: 17826101/0x01100135) (Basic look)
109: 0x0A04 [0x2B] Lhaiso Neftereh (ID: 17826101/0x01100135) [9957*]:
    → "Then I was not the only one who heard it. Fascinating!"
110: 0x0A0B [0x23] WAIT_FOR_DIALOG_INTERACTION
111: 0x0A0C [0x01] GOTO 0x0A8D
112: 0x0A0F [0x02] IF !(Work_Zone[0] == 1*) GOTO 0x0A4E
113: 0x0A17 [0x45] LOAD_SCHEDULED_TASK: Load scheduler "s018" with entities [LocalPlayer, LocalPlayer], work=[663*, 0*]
114: 0x0A28 [0x79] Lhaiso Neftereh (ID: 17826101/0x01100135) looks at LocalPlayer (Basic look)
115: 0x0A32 [0x29] REQ_SET_WAIT(priority=0x08, entity_id=Sylvie (ID: 17825930/0x0110008A), tag_num=0x3E)
116: 0x0A39 [0x79] LocalPlayer looks at Lhaiso Neftereh (ID: 17826101/0x01100135) (Basic look)
117: 0x0A43 [0x2B] Lhaiso Neftereh (ID: 17826101/0x01100135) [9958*]:
    → "Yes, it was a form of traditional magic passed down through the ages, but never before have I had the opportunity to put it to use."
118: 0x0A4A [0x23] WAIT_FOR_DIALOG_INTERACTION
119: 0x0A4B [0x01] GOTO 0x0A8D
120: 0x0A4E [0x02] IF !(Work_Zone[0] == 2*) GOTO 0x0A8D
121: 0x0A56 [0x45] LOAD_SCHEDULED_TASK: Load scheduler "s018" with entities [LocalPlayer, LocalPlayer], work=[663*, 0*]
122: 0x0A67 [0x79] Lhaiso Neftereh (ID: 17826101/0x01100135) looks at LocalPlayer (Basic look)
123: 0x0A71 [0x29] REQ_SET_WAIT(priority=0x08, entity_id=Sylvie (ID: 17825930/0x0110008A), tag_num=0x3E)
124: 0x0A78 [0x79] LocalPlayer looks at Lhaiso Neftereh (ID: 17826101/0x01100135) (Basic look)
125: 0x0A82 [0x2B] Lhaiso Neftereh (ID: 17826101/0x01100135) [9959*]:
    → "It was a traditional form of magic passed down from storied geomancer to storied geomancer, and I succeeded in unleashing its power."
126: 0x0A89 [0x23] WAIT_FOR_DIALOG_INTERACTION
127: 0x0A8A [0x01] GOTO 0x0A8D

SUBROUTINE_0A8D:
128: 0x0A8D [0x2B] Lhaiso Neftereh (ID: 17826101/0x01100135) [9960*]:
    → "To think the great voice of nature would answer my call, sweets."
129: 0x0A94 [0x23] WAIT_FOR_DIALOG_INTERACTION
130: 0x0A95 [0x29] REQ_SET_WAIT(priority=0x08, entity_id=Sylvie (ID: 17825930/0x0110008A), tag_num=0x3F)
131: 0x0A9C [0x52] END_LOAD_SCHEDULER: End scheduler "s018" with entities [LocalPlayer, LocalPlayer], work=663*
132: 0x0AAB [0x45] LOAD_SCHEDULED_TASK: Load scheduler "s020" with entities [LocalPlayer, LocalPlayer], work=[663*, 0*]
133: 0x0ABC [0x27] REQ_SET(priority=0x08, entity_id=Lhaiso Neftereh (ID: 17826101/0x01100135), tag_num=0x18)
134: 0x0AC3 [0x1C] WAIT(60* ticks)
135: 0x0AC6 [0x2B] Lhaiso Neftereh (ID: 17826101/0x01100135) [9961*]:
    → "The bell I held in my hands is a treasure not known to the general public--a symbol of the primal geomancer, handed down through the Order of Renaye for generations."
136: 0x0ACD [0x23] WAIT_FOR_DIALOG_INTERACTION
137: 0x0ACE [0x2A] GET_REQ_LEVEL(level=8, entity_id=LocalPlayer)
138: 0x0AD4 [0x2B] Lhaiso Neftereh (ID: 17826101/0x01100135) [9962*]:
    → "You see, young ones, whenever she rang the bell she was able to converse with the higher power. Something too big for us to comprehend."
139: 0x0ADB [0x23] WAIT_FOR_DIALOG_INTERACTION
140: 0x0ADC [0x2A] GET_REQ_LEVEL(level=8, entity_id=Lhaiso Neftereh (ID: 17826101/0x01100135))
141: 0x0AE2 [0x4B] UPDATE_ENTITY_YAW(entity=Lhaiso Neftereh (ID: 17826101/0x01100135), yaw=18.6°*)
142: 0x0AE9 [0x6F] WAIT_FRAME_DELAY: Yield until WaitTime reaches zero
143: 0x0AEA [0x76] CHECK_ENTITY_RENDER_FLAGS: Wait until Lhaiso Neftereh (ID: 17826101/0x01100135) Render.Flags0 and Render.Flags3 conditions are met
144: 0x0AEF [0x4A] Sylvie (ID: 17825930/0x0110008A) looks at Lhaiso Neftereh (ID: 17826101/0x01100135)
145: 0x0AF8 [0x52] END_LOAD_SCHEDULER: End scheduler "s020" with entities [LocalPlayer, LocalPlayer], work=663*
146: 0x0B07 [0x45] LOAD_SCHEDULED_TASK: Load scheduler "s021" with entities [LocalPlayer, LocalPlayer], work=[663*, 0*]
147: 0x0B18 [0x02] IF !(Work_Zone[9] == 5*) GOTO 0x0B2D
148: 0x0B20 [0x79] Lhaiso Neftereh (ID: 17826101/0x01100135) looks at Sylvie (ID: 17825930/0x0110008A) (Basic look)
149: 0x0B2A [0x01] GOTO 0x0B3F
150: 0x0B2D [0x02] IF !(Work_Zone[9] == 6*) GOTO 0x0B3F
151: 0x0B35 [0x79] Lhaiso Neftereh (ID: 17826101/0x01100135) looks at Sylvie (ID: 17825930/0x0110008A) (Basic look)

SUBROUTINE_0B3F:
152: 0x0B3F [0x29] REQ_SET_WAIT(priority=0x08, entity_id=Lhaiso Neftereh (ID: 17826101/0x01100135), tag_num=0x09)
153: 0x0B46 [0x2B] Lhaiso Neftereh (ID: 17826101/0x01100135) [9963*]:
    → "These conversations are referred to in our annals as the "Communion," and it was accepted as a self-evident truth that no one other than the primal geomancer herself was able to engage in the Communion using the bell."
154: 0x0B4D [0x23] WAIT_FOR_DIALOG_INTERACTION
155: 0x0B4E [0x29] REQ_SET_WAIT(priority=0x08, entity_id=Lhaiso Neftereh (ID: 17826101/0x01100135), tag_num=0x0A)
156: 0x0B55 [0x29] REQ_SET_WAIT(priority=0x08, entity_id=Lhaiso Neftereh (ID: 17826101/0x01100135), tag_num=0x0B)
157: 0x0B5C [0x6F] WAIT_FRAME_DELAY: Yield until WaitTime reaches zero
158: 0x0B5D [0x76] CHECK_ENTITY_RENDER_FLAGS: Wait until Sylvie (ID: 17825930/0x0110008A) Render.Flags0 and Render.Flags3 conditions are met
159: 0x0B62 [0x79] Lhaiso Neftereh (ID: 17826101/0x01100135) looks at Sylvie (ID: 17825930/0x0110008A) (Basic look)
160: 0x0B6C [0x27] REQ_SET(priority=0x08, entity_id=Sylvie (ID: 17825930/0x0110008A), tag_num=0x49)
161: 0x0B73 [0x2B] Sylvie (ID: 17825930/0x0110008A) [9964*]:
    → "Lhaiso, that's stupendelicious! I knew you were powerful, but this is just...!"
162: 0x0B7A [0x23] WAIT_FOR_DIALOG_INTERACTION
163: 0x0B7B [0x29] REQ_SET_WAIT(priority=0x08, entity_id=Lhaiso Neftereh (ID: 17826101/0x01100135), tag_num=0x0C)
164: 0x0B82 [0x27] REQ_SET(priority=0x08, entity_id=Lhaiso Neftereh (ID: 17826101/0x01100135), tag_num=0x12)
165: 0x0B89 [0x2B] Lhaiso Neftereh (ID: 17826101/0x01100135) [9965*]:
    → "Sylvie, dear, without the bell I could not possibly have done this--and perhaps I was only able to because of my fervent prayers during a time of great need."
166: 0x0B90 [0x23] WAIT_FOR_DIALOG_INTERACTION
167: 0x0B91 [0x52] END_LOAD_SCHEDULER: End scheduler "s021" with entities [LocalPlayer, LocalPlayer], work=663*
168: 0x0BA0 [0x45] LOAD_SCHEDULED_TASK: Load scheduler "s025" with entities [LocalPlayer, LocalPlayer], work=[663*, 0*]
169: 0x0BB1 [0x2A] GET_REQ_LEVEL(level=8, entity_id=Sylvie (ID: 17825930/0x0110008A))
170: 0x0BB7 [0x2A] GET_REQ_LEVEL(level=8, entity_id=Lhaiso Neftereh (ID: 17826101/0x01100135))
171: 0x0BBD [0x79] Lhaiso Neftereh (ID: 17826101/0x01100135) looks at LocalPlayer (Basic look)
172: 0x0BC7 [0x27] REQ_SET(priority=0x08, entity_id=Lhaiso Neftereh (ID: 17826101/0x01100135), tag_num=0x19)
173: 0x0BCE [0x2B] Lhaiso Neftereh (ID: 17826101/0x01100135) [9966*]:
    → "You see, the reason geomancers carry handbells is so they have a conduit to converse with nature--smaller Communions, if you will, on a much more limited scale."
174: 0x0BD5 [0x23] WAIT_FOR_DIALOG_INTERACTION
175: 0x0BD6 [0x2A] GET_REQ_LEVEL(level=8, entity_id=Lhaiso Neftereh (ID: 17826101/0x01100135))
176: 0x0BDC [0x1C] WAIT(20* ticks)
177: 0x0BDF [0x29] REQ_SET_WAIT(priority=0x08, entity_id=Lhaiso Neftereh (ID: 17826101/0x01100135), tag_num=0x05)
178: 0x0BE6 [0x2B] Lhaiso Neftereh (ID: 17826101/0x01100135) [9967*]:
    → "And you--<Player>, was it? You have proven yourself to be a highly capable geomancer. Take this bell and use it wisely. It may not have a storied past like the one our order cherishes, but it will surely serve you well."
179: 0x0BED [0x23] WAIT_FOR_DIALOG_INTERACTION
180: 0x0BEE [0x29] REQ_SET_WAIT(priority=0x08, entity_id=Lhaiso Neftereh (ID: 17826101/0x01100135), tag_num=0x06)
181: 0x0BF5 [0x52] END_LOAD_SCHEDULER: End scheduler "s025" with entities [LocalPlayer, LocalPlayer], work=663*
182: 0x0C04 [0x45] LOAD_SCHEDULED_TASK: Load scheduler "s022" with entities [LocalPlayer, LocalPlayer], work=[663*, 0*]
183: 0x0C15 [0x29] REQ_SET_WAIT(priority=0x08, entity_id=Lhaiso Neftereh (ID: 17826101/0x01100135), tag_num=0x06)
184: 0x0C1C [0x79] Lhaiso Neftereh (ID: 17826101/0x01100135) looks at Sylvie (ID: 17825930/0x0110008A) (Basic look)
185: 0x0C26 [0x2B] Lhaiso Neftereh (ID: 17826101/0x01100135) [9968*]:
    → "And Sylvie, please do let me know your wishes for your father's funeral. We will accommodate you to the best of our ability."
186: 0x0C2D [0x23] WAIT_FOR_DIALOG_INTERACTION
187: 0x0C2E [0x29] REQ_SET_WAIT(priority=0x08, entity_id=Sylvie (ID: 17825930/0x0110008A), tag_num=0x4C)
188: 0x0C35 [0x27] REQ_SET(priority=0x08, entity_id=Lhaiso Neftereh (ID: 17826101/0x01100135), tag_num=0x1A)
189: 0x0C3C [0x1C] WAIT(10* ticks)
190: 0x0C3F [0x52] END_LOAD_SCHEDULER: End scheduler "s022" with entities [LocalPlayer, LocalPlayer], work=663*
191: 0x0C4E [0x45] LOAD_SCHEDULED_TASK: Load scheduler "s023" with entities [LocalPlayer, LocalPlayer], work=[663*, 0*]
192: 0x0C5F [0x1C] WAIT(180* ticks)
193: 0x0C62 [0x52] END_LOAD_SCHEDULER: End scheduler "s023" with entities [LocalPlayer, LocalPlayer], work=663*
194: 0x0C71 [0x02] IF !(Work_Zone[9] == 5*) GOTO 0x0C8D
195: 0x0C79 [0x45] LOAD_SCHEDULED_TASK: Load scheduler "s008" with entities [LocalPlayer, LocalPlayer], work=[663*, 0*]
196: 0x0C8A [0x01] GOTO 0x0CBA
197: 0x0C8D [0x02] IF !(Work_Zone[9] == 6*) GOTO 0x0CA9
198: 0x0C95 [0x45] LOAD_SCHEDULED_TASK: Load scheduler "s008" with entities [LocalPlayer, LocalPlayer], work=[663*, 0*]
199: 0x0CA6 [0x01] GOTO 0x0CBA
200: 0x0CA9 [0x45] LOAD_SCHEDULED_TASK: Load scheduler "s004" with entities [LocalPlayer, LocalPlayer], work=[663*, 0*]

SUBROUTINE_0CBA:
201: 0x0CBA [0x1C] WAIT(60* ticks)
202: 0x0CBD [0x27] REQ_SET(priority=0x08, entity_id=LocalPlayer, tag_num=0x82)
203: 0x0CC4 [0x2B] Sylvie (ID: 17825930/0x0110008A) [9969*]:
    → "I don't know if I'll ever be able to get over what happened to Daddy...but I am thankful that the spirits of nature saw fit to save us, at least."
204: 0x0CCB [0x23] WAIT_FOR_DIALOG_INTERACTION
205: 0x0CCC [0x1C] WAIT(20* ticks)
206: 0x0CCF [0x2B] Sylvie (ID: 17825930/0x0110008A) [9970*]:
    → "<Player>, each time we meet you're always so kind to me. I'd like to give you his wand. After all, you were his last pupil--and secretly, I think he liked you most of all."
207: 0x0CD6 [0x4A] Sylvie (ID: 17825930/0x0110008A) looks at LocalPlayer
208: 0x0CDF [0x6F] WAIT_FRAME_DELAY: Yield until WaitTime reaches zero
209: 0x0CE0 [0x76] CHECK_ENTITY_RENDER_FLAGS: Wait until LocalPlayer Render.Flags0 and Render.Flags3 conditions are met
210: 0x0CE5 [0x1C] WAIT(20* ticks)
211: 0x0CE8 [0x02] IF !(Work_Zone[9] == 5*) GOTO 0x0D02
212: 0x0CF0 [0x52] END_LOAD_SCHEDULER: End scheduler "s008" with entities [LocalPlayer, LocalPlayer], work=663*
213: 0x0CFF [0x01] GOTO 0x0D2B
214: 0x0D02 [0x02] IF !(Work_Zone[9] == 6*) GOTO 0x0D1C
215: 0x0D0A [0x52] END_LOAD_SCHEDULER: End scheduler "s008" with entities [LocalPlayer, LocalPlayer], work=663*
216: 0x0D19 [0x01] GOTO 0x0D2B
217: 0x0D1C [0x52] END_LOAD_SCHEDULER: End scheduler "s004" with entities [LocalPlayer, LocalPlayer], work=663*

SUBROUTINE_0D2B:
218: 0x0D2B [0x45] LOAD_SCHEDULED_TASK: Load scheduler "s024" with entities [LocalPlayer, LocalPlayer], work=[663*, 0*]
219: 0x0D3C [0x2A] GET_REQ_LEVEL(level=8, entity_id=LocalPlayer)
220: 0x0D42 [0x4A] LocalPlayer looks at Sylvie (ID: 17825930/0x0110008A)
221: 0x0D4B [0x29] REQ_SET_WAIT(priority=0x08, entity_id=Sylvie (ID: 17825930/0x0110008A), tag_num=0x26)
222: 0x0D52 [0x23] WAIT_FOR_DIALOG_INTERACTION
223: 0x0D53 [0x29] REQ_SET_WAIT(priority=0x08, entity_id=Sylvie (ID: 17825930/0x0110008A), tag_num=0x27)
224: 0x0D5A [0x6F] WAIT_FRAME_DELAY: Yield until WaitTime reaches zero
225: 0x0D5B [0x76] CHECK_ENTITY_RENDER_FLAGS: Wait until LocalPlayer Render.Flags0 and Render.Flags3 conditions are met
226: 0x0D60 [0x52] END_LOAD_SCHEDULER: End scheduler "s024" with entities [LocalPlayer, LocalPlayer], work=663*
227: 0x0D6F [0x02] IF !(Work_Zone[9] == 5*) GOTO 0x0D8B
228: 0x0D77 [0x45] LOAD_SCHEDULED_TASK: Load scheduler "s027" with entities [LocalPlayer, LocalPlayer], work=[663*, 0*]
229: 0x0D88 [0x01] GOTO 0x0DB8
230: 0x0D8B [0x02] IF !(Work_Zone[9] == 6*) GOTO 0x0DA7
231: 0x0D93 [0x45] LOAD_SCHEDULED_TASK: Load scheduler "s027" with entities [LocalPlayer, LocalPlayer], work=[663*, 0*]
232: 0x0DA4 [0x01] GOTO 0x0DB8
233: 0x0DA7 [0x45] LOAD_SCHEDULED_TASK: Load scheduler "s019" with entities [LocalPlayer, LocalPlayer], work=[663*, 0*]

SUBROUTINE_0DB8:
234: 0x0DB8 [0x1C] WAIT(30* ticks)
235: 0x0DBB [0x2B] Sylvie (ID: 17825930/0x0110008A) [9971*]:
    → "I never thought of it this way, but maybe it's an heirloom now? You know what they say--"all that glitters has a silver lining.""
236: 0x0DC2 [0x23] WAIT_FOR_DIALOG_INTERACTION
237: 0x0DC3 [0x45] LOAD_SCHEDULED_TASK: Load scheduler "fdo1" with entities [LocalPlayer, LocalPlayer], work=[200*, 0*]
238: 0x0DD4 [0x55] WAIT_LOAD_SCHEDULER: Wait for scheduler "fdo1" with entities [LocalPlayer, LocalPlayer], work=200*
239: 0x0DE3 [0x2A] GET_REQ_LEVEL(level=8, entity_id=Lhaiso Neftereh (ID: 17826101/0x01100135))
240: 0x0DE9 [0x02] IF !(Work_Zone[9] == 5*) GOTO 0x0E03
241: 0x0DF1 [0x52] END_LOAD_SCHEDULER: End scheduler "s027" with entities [LocalPlayer, LocalPlayer], work=663*
242: 0x0E00 [0x01] GOTO 0x0E2C
243: 0x0E03 [0x02] IF !(Work_Zone[9] == 6*) GOTO 0x0E1D
244: 0x0E0B [0x52] END_LOAD_SCHEDULER: End scheduler "s027" with entities [LocalPlayer, LocalPlayer], work=663*
245: 0x0E1A [0x01] GOTO 0x0E2C
246: 0x0E1D [0x52] END_LOAD_SCHEDULER: End scheduler "s019" with entities [LocalPlayer, LocalPlayer], work=663*

SUBROUTINE_0E2C:
247: 0x0E2C [0x45] LOAD_SCHEDULED_TASK: Load scheduler "qstc" with entities [EventEntity, EventEntity], work=[201*, 0*]
248: 0x0E3D [0x5C] MUSIC_CONTROL: Set Idle (Day) music to song 59*
249: 0x0E41 [0x5C] MUSIC_CONTROL: Set Idle (Night) music to song 59*
250: 0x0E45 [0x9A] WAIT_MUSIC_SERVER()
251: 0x0E46 [0x5D] SET_MUSIC_VOLUME(volume=127*, fade_time=1*)
252: 0x0E4B [0x1C] WAIT(2* ticks)
253: 0x0E4E [0x46] CAMERA_CONTROL: Restore default settings
254: 0x0E50 [0x45] LOAD_SCHEDULED_TASK: Load scheduler "fdi1" with entities [LocalPlayer, LocalPlayer], work=[200*, 0*]
255: 0x0E61 [0x20] SET_CLI_EVENT_UC_FLAG: Unlock player control
256: 0x0E63 [0x21] END_EVENT
257: 0x0E64 [0x00] END_REQSTACK()
```

### Event 56

#### Metadata

| Field        | Value      |
|--------------|------------|
| Entrypoint   | 0x0E65     |
| Data Size    | 1642 bytes |
| Instructions | 217        |

```
      00 01 02 03 04 05 06 07  08 09 0A 0B 0C 0D 0E 0F
      -- -- -- -- -- -- -- --  -- -- -- -- -- -- -- --
0E60:                42 46 01  45 00 80 F0 FF FF 7F F0       BF.E.......
0E70: FF FF 7F 66 64 6F 31 01  80 55 00 80 F0 FF FF 7F  ...fdo1..U......
0E80: F0 FF FF 7F 66 64 6F 31  5D 01 80 00 80 38 02 80  ....fdo1]....8..
0E90: 29 08 F0 FF FF 7F 7F 29  08 F0 FF FF 7F 03 29 08  )......)......).
0EA0: F0 FF FF 7F 7A 4A F0 FF  FF 7F 8A 00 10 01 4A 8A  ....zJ........J.
0EB0: 00 10 01 F0 FF FF 7F 6F  76 8A 00 10 01 6F 76 F0  .......ov....ov.
0EC0: FF FF 7F 92 01 8A 00 10  01 92 01 26 01 10 01 92  ...........&....
0ED0: 01 24 01 10 01 92 01 20  01 10 01 92 01 27 01 10  .$..... .....'..
0EE0: 01 92 01 29 01 10 01 92  01 28 01 10 01 29 08 8A  ...).....(...)..
0EF0: 00 10 01 11 03 03 10 48  80 02 09 10 07 80 00 15  .......H........
0F00: 0F 45 29 80 F0 FF FF 7F  F0 FF FF 7F 73 30 33 36  .E).........s036
0F10: 01 80 01 5E 0F 02 09 10  08 80 00 31 0F 45 29 80  ...^.......1.E).
0F20: F0 FF FF 7F F0 FF FF 7F  73 30 33 36 01 80 01 5E  ........s036...^
0F30: 0F 02 09 10 31 80 00 4D  0F 45 29 80 F0 FF FF 7F  ....1..M.E).....
0F40: F0 FF FF 7F 73 33 35 33  01 80 01 5E 0F 45 29 80  ....s353...^.E).
0F50: F0 FF FF 7F F0 FF FF 7F  73 30 33 31 01 80 5C 00  ........s031..\.
0F60: 17 80 5C 01 17 80 9A 5D  17 80 0C 80 45 00 80 F0  ..\....]....E...
0F70: FF FF 7F F0 FF FF 7F 66  64 69 31 01 80 55 00 80  .......fdi1..U..
0F80: F0 FF FF 7F F0 FF FF 7F  66 64 69 31 2B 8A 00 10  ........fdi1+...
0F90: 01 49 80 23 29 08 8A 00  10 01 12 29 08 8A 00 10  .I.#)......)....
0FA0: 01 13 2B 8A 00 10 01 4A  80 23 29 08 8A 00 10 01  ..+....J.#).....
0FB0: 14 7B 8A 00 10 01 1C 1E  80 02 09 10 07 80 00 D3  .{..............
0FC0: 0F 52 29 80 F0 FF FF 7F  F0 FF FF 7F 73 30 33 36  .R).........s036
0FD0: 01 16 10 02 09 10 08 80  00 ED 0F 52 29 80 F0 FF  ...........R)...
0FE0: FF 7F F0 FF FF 7F 73 30  33 36 01 16 10 02 09 10  ......s036......
0FF0: 31 80 00 07 10 52 29 80  F0 FF FF 7F F0 FF FF 7F  1....R).........
1000: 73 33 35 33 01 16 10 52  29 80 F0 FF FF 7F F0 FF  s353...R).......
1010: FF 7F 73 30 33 31 45 29  80 F0 FF FF 7F F0 FF FF  ..s031E)........
1020: 7F 73 30 32 38 01 80 29  08 8A 00 10 01 28 1C 1E  .s028..).....(..
1030: 80 2B 8A 00 10 01 4B 80  23 29 08 8A 00 10 01 29  .+....K.#).....)
1040: 29 08 8A 00 10 01 30 1C  4C 80 2B 8A 00 10 01 4D  ).....0.L.+....M
1050: 80 1C 4C 80 52 29 80 F0  FF FF 7F F0 FF FF 7F 73  ..L.R).........s
1060: 30 32 38 02 09 10 07 80  00 7F 10 45 29 80 F0 FF  028........E)...
1070: FF 7F F0 FF FF 7F 73 30  33 37 01 80 01 AC 10 02  ......s037......
1080: 09 10 08 80 00 9B 10 45  29 80 F0 FF FF 7F F0 FF  .......E).......
1090: FF 7F 73 30 33 37 01 80  01 AC 10 45 29 80 F0 FF  ..s037.....E)...
10A0: FF 7F F0 FF FF 7F 73 30  33 33 01 80 29 08 8A 00  ......s033..)...
10B0: 10 01 31 29 08 8A 00 10  01 2A 23 02 09 10 07 80  ..1).....*#.....
10C0: 00 D5 10 52 29 80 F0 FF  FF 7F F0 FF FF 7F 73 30  ...R).........s0
10D0: 33 37 01 FE 10 02 09 10  08 80 00 EF 10 52 29 80  37...........R).
10E0: F0 FF FF 7F F0 FF FF 7F  73 30 33 37 01 FE 10 52  ........s037...R
10F0: 29 80 F0 FF FF 7F F0 FF  FF 7F 73 30 33 33 45 29  ).........s033E)
1100: 80 F0 FF FF 7F F0 FF FF  7F 73 30 32 39 01 80 29  .........s029..)
1110: 08 8A 00 10 01 2B 27 08  8A 00 10 01 79 2B 8A 00  .....+'.....y+..
1120: 10 01 4E 80 23 2A 08 8A  00 10 01 1C 15 80 27 08  ..N.#*........'.
1130: 8A 00 10 01 4D 2B 8A 00  10 01 4F 80 23 52 29 80  ....M+....O.#R).
1140: F0 FF FF 7F F0 FF FF 7F  73 30 32 39 45 29 80 F0  ........s029E)..
1150: FF FF 7F F0 FF FF 7F 73  30 33 30 01 80 2B 8A 00  .......s030..+..
1160: 10 01 50 80 23 2A 08 8A  00 10 01 4A F0 FF FF 7F  ..P.#*.....J....
1170: 8A 00 10 01 29 08 8A 00  10 01 3C 2B 8A 00 10 01  ....).....<+....
1180: 51 80 23 29 08 8A 00 10  01 3D 6F 76 F0 FF FF 7F  Q.#).....=ov....
1190: 52 29 80 F0 FF FF 7F F0  FF FF 7F 73 30 33 30 24  R).........s030$
11A0: 52 80 01 80 01 80 25 02  00 10 01 80 00 92 13 29  R.....%........)
11B0: 08 8A 00 10 01 3E 29 08  8A 00 10 01 3F 4A 8A 00  .....>).....?J..
11C0: 10 01 F0 FF FF 7F 6F 76  8A 00 10 01 45 29 80 F0  ......ov....E)..
11D0: FF FF 7F F0 FF FF 7F 73  30 33 32 01 80 29 08 8A  .......s032..)..
11E0: 00 10 01 11 2B 8A 00 10  01 53 80 23 29 08 8A 00  ....+....S.#)...
11F0: 10 01 12 52 29 80 F0 FF  FF 7F F0 FF FF 7F 73 30  ...R).........s0
1200: 33 32 02 09 10 07 80 00  1E 12 45 29 80 F0 FF FF  32........E)....
1210: 7F F0 FF FF 7F 73 30 33  38 01 80 01 67 12 02 09  .....s038...g...
1220: 10 08 80 00 3A 12 45 29  80 F0 FF FF 7F F0 FF FF  ....:.E)........
1230: 7F 73 30 33 38 01 80 01  67 12 02 09 10 31 80 00  .s038...g....1..
1240: 56 12 45 29 80 F0 FF FF  7F F0 FF FF 7F 73 33 35  V.E).........s35
1250: 34 01 80 01 67 12 45 29  80 F0 FF FF 7F F0 FF FF  4...g.E)........
1260: 7F 73 30 33 34 01 80 2B  8A 00 10 01 54 80 29 08  .s034..+....T.).
1270: 8A 00 10 01 13 29 08 8A  00 10 01 14 27 08 8A 00  .....)......'...
1280: 10 01 7A 2A 08 8A 00 10  01 1C 15 80 23 29 08 8A  ..z*........#)..
1290: 00 10 01 20 2B 8A 00 10  01 55 80 23 2B 8A 00 10  ... +....U.#+...
12A0: 01 56 80 23 29 08 8A 00  10 01 21 02 09 10 07 80  .V.#).....!.....
12B0: 00 C5 12 52 29 80 F0 FF  FF 7F F0 FF FF 7F 73 30  ...R).........s0
12C0: 33 38 01 08 13 02 09 10  08 80 00 DF 12 52 29 80  38...........R).
12D0: F0 FF FF 7F F0 FF FF 7F  73 30 33 38 01 08 13 02  ........s038....
12E0: 09 10 31 80 00 F9 12 52  29 80 F0 FF FF 7F F0 FF  ..1....R).......
12F0: FF 7F 73 33 35 34 01 08  13 52 29 80 F0 FF FF 7F  ..s354...R).....
1300: F0 FF FF 7F 73 30 33 34  02 09 10 07 80 00 24 13  ....s034......$.
1310: 45 29 80 F0 FF FF 7F F0  FF FF 7F 73 30 33 39 01  E).........s039.
1320: 80 01 51 13 02 09 10 08  80 00 40 13 45 29 80 F0  ..Q.......@.E)..
1330: FF FF 7F F0 FF FF 7F 73  30 33 39 01 80 01 51 13  .......s039...Q.
1340: 45 29 80 F0 FF FF 7F F0  FF FF 7F 73 30 33 35 01  E).........s035.
1350: 80 29 08 8A 00 10 01 22  2B 8A 00 10 01 57 80 23  .)....."+....W.#
1360: 29 08 8A 00 10 01 23 03  04 10 02 80 2B 8A 00 10  ).....#.....+...
1370: 01 58 80 23 29 08 8A 00  10 01 1A 2B 8A 00 10 01  .X.#)......+....
1380: 59 80 23 29 08 8A 00 10  01 1B 03 01 10 0C 80 01  Y.#)............
1390: 44 14 02 00 10 0C 80 00  44 14 02 09 10 07 80 00  D.......D.......
13A0: B6 13 45 29 80 F0 FF FF  7F F0 FF FF 7F 73 30 33  ..E).........s03
13B0: 38 01 80 01 E3 13 02 09  10 08 80 00 D2 13 45 29  8.............E)
13C0: 80 F0 FF FF 7F F0 FF FF  7F 73 30 33 38 01 80 01  .........s038...
13D0: E3 13 45 29 80 F0 FF FF  7F F0 FF FF 7F 73 30 33  ..E).........s03
13E0: 34 01 80 29 08 8A 00 10  01 3E 2B 8A 00 10 01 5A  4..).....>+....Z
13F0: 80 23 29 08 8A 00 10 01  3F 02 09 10 07 80 00 13  .#).....?.......
1400: 14 52 29 80 F0 FF FF 7F  F0 FF FF 7F 73 30 33 38  .R).........s038
1410: 01 3C 14 02 09 10 08 80  00 2D 14 52 29 80 F0 FF  .<.......-.R)...
1420: FF 7F F0 FF FF 7F 73 30  33 38 01 3C 14 52 29 80  ......s038.<.R).
1430: F0 FF FF 7F F0 FF FF 7F  73 30 33 34 03 01 10 28  ........s034...(
1440: 80 01 44 14 45 00 80 F0  FF FF 7F F0 FF FF 7F 66  ..D.E..........f
1450: 64 6F 31 01 80 55 00 80  F0 FF FF 7F F0 FF FF 7F  do1..U..........
1460: 66 64 6F 31 02 09 10 07  80 00 7E 14 52 29 80 F0  fdo1......~.R)..
1470: FF FF 7F F0 FF FF 7F 73  30 33 39 01 A7 14 02 09  .......s039.....
1480: 10 08 80 00 98 14 52 29  80 F0 FF FF 7F F0 FF FF  ......R)........
1490: 7F 73 30 33 39 01 A7 14  52 29 80 F0 FF FF 7F F0  .s039...R)......
14A0: FF FF 7F 73 30 33 35 5C  00 27 80 5C 01 27 80 9A  ...s035\.'.\.'..
14B0: 5D 17 80 0C 80 1C 28 80  46 00 45 00 80 F0 FF FF  ].....(.F.E.....
14C0: 7F F0 FF FF 7F 66 64 69  31 01 80 20 00 21 00     .....fdi1.. .!. 
```

#### Opcodes

```
  0: 0x0E65 [0x42] SET_CLI_EVENT_CANCEL_DATA()
  1: 0x0E66 [0x46] CAMERA_CONTROL: Disable user control
  2: 0x0E68 [0x45] LOAD_SCHEDULED_TASK: Load scheduler "fdo1" with entities [LocalPlayer, LocalPlayer], work=[200*, 0*]
  3: 0x0E79 [0x55] WAIT_LOAD_SCHEDULER: Wait for scheduler "fdo1" with entities [LocalPlayer, LocalPlayer], work=200*
  4: 0x0E88 [0x5D] SET_MUSIC_VOLUME(volume=0*, fade_time=200*)
  5: 0x0E8D [0x38] SET_CLIENT_EVENT_MODE(mode=3*)
  6: 0x0E90 [0x29] REQ_SET_WAIT(priority=0x08, entity_id=LocalPlayer, tag_num=0x7F)
  7: 0x0E97 [0x29] REQ_SET_WAIT(priority=0x08, entity_id=LocalPlayer, tag_num=0x03)
  8: 0x0E9E [0x29] REQ_SET_WAIT(priority=0x08, entity_id=LocalPlayer, tag_num=0x7A)
  9: 0x0EA5 [0x4A] LocalPlayer looks at Sylvie (ID: 17825930/0x0110008A)
 10: 0x0EAE [0x4A] Sylvie (ID: 17825930/0x0110008A) looks at LocalPlayer
 11: 0x0EB7 [0x6F] WAIT_FRAME_DELAY: Yield until WaitTime reaches zero
 12: 0x0EB8 [0x76] CHECK_ENTITY_RENDER_FLAGS: Wait until Sylvie (ID: 17825930/0x0110008A) Render.Flags0 and Render.Flags3 conditions are met
 13: 0x0EBD [0x6F] WAIT_FRAME_DELAY: Yield until WaitTime reaches zero
 14: 0x0EBE [0x76] CHECK_ENTITY_RENDER_FLAGS: Wait until LocalPlayer Render.Flags0 and Render.Flags3 conditions are met
 15: 0x0EC3 [0x92] Sylvie (ID: 17825930/0x0110008A)->Render.Flags3 ^= 0x01
 16: 0x0EC9 [0x92] Jorin (ID: 17826086/0x01100126)->Render.Flags3 ^= 0x01
 17: 0x0ECF [0x92] Kongramm (ID: 17826084/0x01100124)->Render.Flags3 ^= 0x01
 18: 0x0ED5 [0x92] Westerly Breeze (ID: 17826080/0x01100120)->Render.Flags3 ^= 0x01
 19: 0x0EDB [0x92] Ledericus (ID: 17826087/0x01100127)->Render.Flags3 ^= 0x01
 20: 0x0EE1 [0x92] Eukalline (ID: 17826089/0x01100129)->Render.Flags3 ^= 0x01
 21: 0x0EE7 [0x92] Ishvad (ID: 17826088/0x01100128)->Render.Flags3 ^= 0x01
 22: 0x0EED [0x29] REQ_SET_WAIT(priority=0x08, entity_id=Sylvie (ID: 17825930/0x0110008A), tag_num=0x11)
 23: 0x0EF4 [0x03] Work_Zone[3] = 4042*
 24: 0x0EF9 [0x02] IF !(Work_Zone[9] == 5*) GOTO 0x0F15
 25: 0x0F01 [0x45] LOAD_SCHEDULED_TASK: Load scheduler "s036" with entities [LocalPlayer, LocalPlayer], work=[663*, 0*]
 26: 0x0F12 [0x01] GOTO 0x0F5E
 27: 0x0F15 [0x02] IF !(Work_Zone[9] == 6*) GOTO 0x0F31
 28: 0x0F1D [0x45] LOAD_SCHEDULED_TASK: Load scheduler "s036" with entities [LocalPlayer, LocalPlayer], work=[663*, 0*]
 29: 0x0F2E [0x01] GOTO 0x0F5E
 30: 0x0F31 [0x02] IF !(Work_Zone[9] == 8*) GOTO 0x0F4D
 31: 0x0F39 [0x45] LOAD_SCHEDULED_TASK: Load scheduler "s353" with entities [LocalPlayer, LocalPlayer], work=[663*, 0*]
 32: 0x0F4A [0x01] GOTO 0x0F5E
 33: 0x0F4D [0x45] LOAD_SCHEDULED_TASK: Load scheduler "s031" with entities [LocalPlayer, LocalPlayer], work=[663*, 0*]

SUBROUTINE_0F5E:
 34: 0x0F5E [0x5C] MUSIC_CONTROL: Set Idle (Day) music to song 127*
 35: 0x0F62 [0x5C] MUSIC_CONTROL: Set Idle (Night) music to song 127*
 36: 0x0F66 [0x9A] WAIT_MUSIC_SERVER()
 37: 0x0F67 [0x5D] SET_MUSIC_VOLUME(volume=127*, fade_time=1*)
 38: 0x0F6C [0x45] LOAD_SCHEDULED_TASK: Load scheduler "fdi1" with entities [LocalPlayer, LocalPlayer], work=[200*, 0*]
 39: 0x0F7D [0x55] WAIT_LOAD_SCHEDULER: Wait for scheduler "fdi1" with entities [LocalPlayer, LocalPlayer], work=200*
 40: 0x0F8C [0x2B] Sylvie (ID: 17825930/0x0110008A) [9974*]:
    → "<Player>, I've been meaning to thank you again."
 41: 0x0F93 [0x23] WAIT_FOR_DIALOG_INTERACTION
 42: 0x0F94 [0x29] REQ_SET_WAIT(priority=0x08, entity_id=Sylvie (ID: 17825930/0x0110008A), tag_num=0x12)
 43: 0x0F9B [0x29] REQ_SET_WAIT(priority=0x08, entity_id=Sylvie (ID: 17825930/0x0110008A), tag_num=0x13)
 44: 0x0FA2 [0x2B] Sylvie (ID: 17825930/0x0110008A) [9975*]:
    → "Lhaiso's been so wondermentous with making arrangements for Daddy's funeral, but things are never as smooth as you want them to be, right?"
 45: 0x0FA9 [0x23] WAIT_FOR_DIALOG_INTERACTION
 46: 0x0FAA [0x29] REQ_SET_WAIT(priority=0x08, entity_id=Sylvie (ID: 17825930/0x0110008A), tag_num=0x14)
 47: 0x0FB1 [0x7B] Sylvie (ID: 17825930/0x0110008A) stops talking
 48: 0x0FB6 [0x1C] WAIT(30* ticks)
 49: 0x0FB9 [0x02] IF !(Work_Zone[9] == 5*) GOTO 0x0FD3
 50: 0x0FC1 [0x52] END_LOAD_SCHEDULER: End scheduler "s036" with entities [LocalPlayer, LocalPlayer], work=663*
 51: 0x0FD0 [0x01] GOTO 0x1016
 52: 0x0FD3 [0x02] IF !(Work_Zone[9] == 6*) GOTO 0x0FED
 53: 0x0FDB [0x52] END_LOAD_SCHEDULER: End scheduler "s036" with entities [LocalPlayer, LocalPlayer], work=663*
 54: 0x0FEA [0x01] GOTO 0x1016
 55: 0x0FED [0x02] IF !(Work_Zone[9] == 8*) GOTO 0x1007
 56: 0x0FF5 [0x52] END_LOAD_SCHEDULER: End scheduler "s353" with entities [LocalPlayer, LocalPlayer], work=663*
 57: 0x1004 [0x01] GOTO 0x1016
 58: 0x1007 [0x52] END_LOAD_SCHEDULER: End scheduler "s031" with entities [LocalPlayer, LocalPlayer], work=663*

SUBROUTINE_1016:
 59: 0x1016 [0x45] LOAD_SCHEDULED_TASK: Load scheduler "s028" with entities [LocalPlayer, LocalPlayer], work=[663*, 0*]
 60: 0x1027 [0x29] REQ_SET_WAIT(priority=0x08, entity_id=Sylvie (ID: 17825930/0x0110008A), tag_num=0x28)
 61: 0x102E [0x1C] WAIT(30* ticks)
 62: 0x1031 [0x2B] Sylvie (ID: 17825930/0x0110008A) [9976*]:
    → "Why? Because I'm of Zacariah's blood. Yes, that Zacariah--one of the five disciples of Sih Renaye."
 63: 0x1038 [0x23] WAIT_FOR_DIALOG_INTERACTION
 64: 0x1039 [0x29] REQ_SET_WAIT(priority=0x08, entity_id=Sylvie (ID: 17825930/0x0110008A), tag_num=0x29)
 65: 0x1040 [0x29] REQ_SET_WAIT(priority=0x08, entity_id=Sylvie (ID: 17825930/0x0110008A), tag_num=0x30)
 66: 0x1047 [0x1C] WAIT(50* ticks)
 67: 0x104A [0x2B] Sylvie (ID: 17825930/0x0110008A) [9977*]:
    → "Some stories claim that Zacariah was a traitor who betrayed the other geomancers."
 68: 0x1051 [0x1C] WAIT(50* ticks)
 69: 0x1054 [0x52] END_LOAD_SCHEDULER: End scheduler "s028" with entities [LocalPlayer, LocalPlayer], work=663*
 70: 0x1063 [0x02] IF !(Work_Zone[9] == 5*) GOTO 0x107F
 71: 0x106B [0x45] LOAD_SCHEDULED_TASK: Load scheduler "s037" with entities [LocalPlayer, LocalPlayer], work=[663*, 0*]
 72: 0x107C [0x01] GOTO 0x10AC
 73: 0x107F [0x02] IF !(Work_Zone[9] == 6*) GOTO 0x109B
 74: 0x1087 [0x45] LOAD_SCHEDULED_TASK: Load scheduler "s037" with entities [LocalPlayer, LocalPlayer], work=[663*, 0*]
 75: 0x1098 [0x01] GOTO 0x10AC
 76: 0x109B [0x45] LOAD_SCHEDULED_TASK: Load scheduler "s033" with entities [LocalPlayer, LocalPlayer], work=[663*, 0*]

SUBROUTINE_10AC:
 77: 0x10AC [0x29] REQ_SET_WAIT(priority=0x08, entity_id=Sylvie (ID: 17825930/0x0110008A), tag_num=0x31)
 78: 0x10B3 [0x29] REQ_SET_WAIT(priority=0x08, entity_id=Sylvie (ID: 17825930/0x0110008A), tag_num=0x2A)
 79: 0x10BA [0x23] WAIT_FOR_DIALOG_INTERACTION
 80: 0x10BB [0x02] IF !(Work_Zone[9] == 5*) GOTO 0x10D5
 81: 0x10C3 [0x52] END_LOAD_SCHEDULER: End scheduler "s037" with entities [LocalPlayer, LocalPlayer], work=663*
 82: 0x10D2 [0x01] GOTO 0x10FE
 83: 0x10D5 [0x02] IF !(Work_Zone[9] == 6*) GOTO 0x10EF
 84: 0x10DD [0x52] END_LOAD_SCHEDULER: End scheduler "s037" with entities [LocalPlayer, LocalPlayer], work=663*
 85: 0x10EC [0x01] GOTO 0x10FE
 86: 0x10EF [0x52] END_LOAD_SCHEDULER: End scheduler "s033" with entities [LocalPlayer, LocalPlayer], work=663*

SUBROUTINE_10FE:
 87: 0x10FE [0x45] LOAD_SCHEDULED_TASK: Load scheduler "s029" with entities [LocalPlayer, LocalPlayer], work=[663*, 0*]
 88: 0x110F [0x29] REQ_SET_WAIT(priority=0x08, entity_id=Sylvie (ID: 17825930/0x0110008A), tag_num=0x2B)
 89: 0x1116 [0x27] REQ_SET(priority=0x08, entity_id=Sylvie (ID: 17825930/0x0110008A), tag_num=0x79)
 90: 0x111D [0x2B] Sylvie (ID: 17825930/0x0110008A) [9978*]:
    → "They even go so far as to say that the great primal geomancer died because of his betrayal."
 91: 0x1124 [0x23] WAIT_FOR_DIALOG_INTERACTION
 92: 0x1125 [0x2A] GET_REQ_LEVEL(level=8, entity_id=Sylvie (ID: 17825930/0x0110008A))
 93: 0x112B [0x1C] WAIT(20* ticks)
 94: 0x112E [0x27] REQ_SET(priority=0x08, entity_id=Sylvie (ID: 17825930/0x0110008A), tag_num=0x4D)
 95: 0x1135 [0x2B] Sylvie (ID: 17825930/0x0110008A) [9979*]:
    → "That's why they think he incurred the wrath of nature...and why all of his descendants are shunned."
 96: 0x113C [0x23] WAIT_FOR_DIALOG_INTERACTION
 97: 0x113D [0x52] END_LOAD_SCHEDULER: End scheduler "s029" with entities [LocalPlayer, LocalPlayer], work=663*
 98: 0x114C [0x45] LOAD_SCHEDULED_TASK: Load scheduler "s030" with entities [LocalPlayer, LocalPlayer], work=[663*, 0*]
 99: 0x115D [0x2B] Sylvie (ID: 17825930/0x0110008A) [9980*]:
    → "As if that weren't reason enough, the whole hullabaloosy-whatsit about pioneering--and how Daddy was involved in it--means that many of the Order of Renaye's geomancers will have nothing to do with Daddy's funeral."
100: 0x1164 [0x23] WAIT_FOR_DIALOG_INTERACTION
101: 0x1165 [0x2A] GET_REQ_LEVEL(level=8, entity_id=Sylvie (ID: 17825930/0x0110008A))
102: 0x116B [0x4A] LocalPlayer looks at Sylvie (ID: 17825930/0x0110008A)
103: 0x1174 [0x29] REQ_SET_WAIT(priority=0x08, entity_id=Sylvie (ID: 17825930/0x0110008A), tag_num=0x3C)
104: 0x117B [0x2B] Sylvie (ID: 17825930/0x0110008A) [9981*]:
    → "Having heard all this, I'm sure that you don't want to help me anymore...right?"
105: 0x1182 [0x23] WAIT_FOR_DIALOG_INTERACTION
106: 0x1183 [0x29] REQ_SET_WAIT(priority=0x08, entity_id=Sylvie (ID: 17825930/0x0110008A), tag_num=0x3D)
107: 0x118A [0x6F] WAIT_FRAME_DELAY: Yield until WaitTime reaches zero
108: 0x118B [0x76] CHECK_ENTITY_RENDER_FLAGS: Wait until LocalPlayer Render.Flags0 and Render.Flags3 conditions are met
109: 0x1190 [0x52] END_LOAD_SCHEDULER: End scheduler "s030" with entities [LocalPlayer, LocalPlayer], work=663*
110: 0x119F [0x24] CREATE_DIALOG(message_id=9982*, default_option=0*, option_flags=0*)
    → "Will you help Sylvie? [We've come this far together!/Well, it is a tad upsetting...]"
111: 0x11A6 [0x25] WAIT_DIALOG_SELECT()
112: 0x11A7 [0x02] IF !(Work_Zone[0] == 0*) GOTO 0x1392
113: 0x11AF [0x29] REQ_SET_WAIT(priority=0x08, entity_id=Sylvie (ID: 17825930/0x0110008A), tag_num=0x3E)
114: 0x11B6 [0x29] REQ_SET_WAIT(priority=0x08, entity_id=Sylvie (ID: 17825930/0x0110008A), tag_num=0x3F)
115: 0x11BD [0x4A] Sylvie (ID: 17825930/0x0110008A) looks at LocalPlayer
116: 0x11C6 [0x6F] WAIT_FRAME_DELAY: Yield until WaitTime reaches zero
117: 0x11C7 [0x76] CHECK_ENTITY_RENDER_FLAGS: Wait until Sylvie (ID: 17825930/0x0110008A) Render.Flags0 and Render.Flags3 conditions are met
118: 0x11CC [0x45] LOAD_SCHEDULED_TASK: Load scheduler "s032" with entities [LocalPlayer, LocalPlayer], work=[663*, 0*]
119: 0x11DD [0x29] REQ_SET_WAIT(priority=0x08, entity_id=Sylvie (ID: 17825930/0x0110008A), tag_num=0x11)
120: 0x11E4 [0x2B] Sylvie (ID: 17825930/0x0110008A) [9984*]:
    → "I... Thank you, <Player>."
121: 0x11EB [0x23] WAIT_FOR_DIALOG_INTERACTION
122: 0x11EC [0x29] REQ_SET_WAIT(priority=0x08, entity_id=Sylvie (ID: 17825930/0x0110008A), tag_num=0x12)
123: 0x11F3 [0x52] END_LOAD_SCHEDULER: End scheduler "s032" with entities [LocalPlayer, LocalPlayer], work=663*
124: 0x1202 [0x02] IF !(Work_Zone[9] == 5*) GOTO 0x121E
125: 0x120A [0x45] LOAD_SCHEDULED_TASK: Load scheduler "s038" with entities [LocalPlayer, LocalPlayer], work=[663*, 0*]
126: 0x121B [0x01] GOTO 0x1267
127: 0x121E [0x02] IF !(Work_Zone[9] == 6*) GOTO 0x123A
128: 0x1226 [0x45] LOAD_SCHEDULED_TASK: Load scheduler "s038" with entities [LocalPlayer, LocalPlayer], work=[663*, 0*]
129: 0x1237 [0x01] GOTO 0x1267
130: 0x123A [0x02] IF !(Work_Zone[9] == 8*) GOTO 0x1256
131: 0x1242 [0x45] LOAD_SCHEDULED_TASK: Load scheduler "s354" with entities [LocalPlayer, LocalPlayer], work=[663*, 0*]
132: 0x1253 [0x01] GOTO 0x1267
133: 0x1256 [0x45] LOAD_SCHEDULED_TASK: Load scheduler "s034" with entities [LocalPlayer, LocalPlayer], work=[663*, 0*]

SUBROUTINE_1267:
134: 0x1267 [0x2B] Sylvie (ID: 17825930/0x0110008A) [9985*]:
    → "There is something in particular that I need help with."
135: 0x126E [0x29] REQ_SET_WAIT(priority=0x08, entity_id=Sylvie (ID: 17825930/0x0110008A), tag_num=0x13)
136: 0x1275 [0x29] REQ_SET_WAIT(priority=0x08, entity_id=Sylvie (ID: 17825930/0x0110008A), tag_num=0x14)
137: 0x127C [0x27] REQ_SET(priority=0x08, entity_id=Sylvie (ID: 17825930/0x0110008A), tag_num=0x7A)
138: 0x1283 [0x2A] GET_REQ_LEVEL(level=8, entity_id=Sylvie (ID: 17825930/0x0110008A))
139: 0x1289 [0x1C] WAIT(20* ticks)
140: 0x128C [0x23] WAIT_FOR_DIALOG_INTERACTION
141: 0x128D [0x29] REQ_SET_WAIT(priority=0x08, entity_id=Sylvie (ID: 17825930/0x0110008A), tag_num=0x20)
142: 0x1294 [0x2B] Sylvie (ID: 17825930/0x0110008A) [9986*]:
    → "My family is traditionally buried in Cirdas Caverns, though Adoulin's politics have made it difficult at times."
143: 0x129B [0x23] WAIT_FOR_DIALOG_INTERACTION
144: 0x129C [0x2B] Sylvie (ID: 17825930/0x0110008A) [9987*]:
    → "And with so many acuexes there, the entourage is having a tough ride."
145: 0x12A3 [0x23] WAIT_FOR_DIALOG_INTERACTION
146: 0x12A4 [0x29] REQ_SET_WAIT(priority=0x08, entity_id=Sylvie (ID: 17825930/0x0110008A), tag_num=0x21)
147: 0x12AB [0x02] IF !(Work_Zone[9] == 5*) GOTO 0x12C5
148: 0x12B3 [0x52] END_LOAD_SCHEDULER: End scheduler "s038" with entities [LocalPlayer, LocalPlayer], work=663*
149: 0x12C2 [0x01] GOTO 0x1308
150: 0x12C5 [0x02] IF !(Work_Zone[9] == 6*) GOTO 0x12DF
151: 0x12CD [0x52] END_LOAD_SCHEDULER: End scheduler "s038" with entities [LocalPlayer, LocalPlayer], work=663*
152: 0x12DC [0x01] GOTO 0x1308
153: 0x12DF [0x02] IF !(Work_Zone[9] == 8*) GOTO 0x12F9
154: 0x12E7 [0x52] END_LOAD_SCHEDULER: End scheduler "s354" with entities [LocalPlayer, LocalPlayer], work=663*
155: 0x12F6 [0x01] GOTO 0x1308
156: 0x12F9 [0x52] END_LOAD_SCHEDULER: End scheduler "s034" with entities [LocalPlayer, LocalPlayer], work=663*

SUBROUTINE_1308:
157: 0x1308 [0x02] IF !(Work_Zone[9] == 5*) GOTO 0x1324
158: 0x1310 [0x45] LOAD_SCHEDULED_TASK: Load scheduler "s039" with entities [LocalPlayer, LocalPlayer], work=[663*, 0*]
159: 0x1321 [0x01] GOTO 0x1351
160: 0x1324 [0x02] IF !(Work_Zone[9] == 6*) GOTO 0x1340
161: 0x132C [0x45] LOAD_SCHEDULED_TASK: Load scheduler "s039" with entities [LocalPlayer, LocalPlayer], work=[663*, 0*]
162: 0x133D [0x01] GOTO 0x1351
163: 0x1340 [0x45] LOAD_SCHEDULED_TASK: Load scheduler "s035" with entities [LocalPlayer, LocalPlayer], work=[663*, 0*]

SUBROUTINE_1351:
164: 0x1351 [0x29] REQ_SET_WAIT(priority=0x08, entity_id=Sylvie (ID: 17825930/0x0110008A), tag_num=0x22)
165: 0x1358 [0x2B] Sylvie (ID: 17825930/0x0110008A) [9988*]:
    → "It would help so much if I had a few $1 from those stupid things for use in the ceremony."
166: 0x135F [0x23] WAIT_FOR_DIALOG_INTERACTION
167: 0x1360 [0x29] REQ_SET_WAIT(priority=0x08, entity_id=Sylvie (ID: 17825930/0x0110008A), tag_num=0x23)
168: 0x1367 [0x03] Work_Zone[4] = 3*
169: 0x136C [0x2B] Sylvie (ID: 17825930/0x0110008A) [9989*]:
    → "I don't care how you get ahold of them, <Player>, but would you mind bringing me $2 $0$0 ?"
170: 0x1373 [0x23] WAIT_FOR_DIALOG_INTERACTION
171: 0x1374 [0x29] REQ_SET_WAIT(priority=0x08, entity_id=Sylvie (ID: 17825930/0x0110008A), tag_num=0x1A)
172: 0x137B [0x2B] Sylvie (ID: 17825930/0x0110008A) [9990*]:
    → "It'd be a monumentacular help, and you'd refine your geomancering skills, too! "Killing two birds is in the eye of the beholder" and stuff."
173: 0x1382 [0x23] WAIT_FOR_DIALOG_INTERACTION
174: 0x1383 [0x29] REQ_SET_WAIT(priority=0x08, entity_id=Sylvie (ID: 17825930/0x0110008A), tag_num=0x1B)
175: 0x138A [0x03] Work_Zone[1] = 1*
176: 0x138F [0x01] GOTO 0x1444
177: 0x1392 [0x02] IF !(Work_Zone[0] == 1*) GOTO 0x1444
178: 0x139A [0x02] IF !(Work_Zone[9] == 5*) GOTO 0x13B6
179: 0x13A2 [0x45] LOAD_SCHEDULED_TASK: Load scheduler "s038" with entities [LocalPlayer, LocalPlayer], work=[663*, 0*]
180: 0x13B3 [0x01] GOTO 0x13E3
181: 0x13B6 [0x02] IF !(Work_Zone[9] == 6*) GOTO 0x13D2
182: 0x13BE [0x45] LOAD_SCHEDULED_TASK: Load scheduler "s038" with entities [LocalPlayer, LocalPlayer], work=[663*, 0*]
183: 0x13CF [0x01] GOTO 0x13E3
184: 0x13D2 [0x45] LOAD_SCHEDULED_TASK: Load scheduler "s034" with entities [LocalPlayer, LocalPlayer], work=[663*, 0*]

SUBROUTINE_13E3:
185: 0x13E3 [0x29] REQ_SET_WAIT(priority=0x08, entity_id=Sylvie (ID: 17825930/0x0110008A), tag_num=0x3E)
186: 0x13EA [0x2B] Sylvie (ID: 17825930/0x0110008A) [9983*]:
    → "I...understand. You aren't the first to think that way, and I'm sure you won't be the last, either."
187: 0x13F1 [0x23] WAIT_FOR_DIALOG_INTERACTION
188: 0x13F2 [0x29] REQ_SET_WAIT(priority=0x08, entity_id=Sylvie (ID: 17825930/0x0110008A), tag_num=0x3F)
189: 0x13F9 [0x02] IF !(Work_Zone[9] == 5*) GOTO 0x1413
190: 0x1401 [0x52] END_LOAD_SCHEDULER: End scheduler "s038" with entities [LocalPlayer, LocalPlayer], work=663*
191: 0x1410 [0x01] GOTO 0x143C
192: 0x1413 [0x02] IF !(Work_Zone[9] == 6*) GOTO 0x142D
193: 0x141B [0x52] END_LOAD_SCHEDULER: End scheduler "s038" with entities [LocalPlayer, LocalPlayer], work=663*
194: 0x142A [0x01] GOTO 0x143C
195: 0x142D [0x52] END_LOAD_SCHEDULER: End scheduler "s034" with entities [LocalPlayer, LocalPlayer], work=663*

SUBROUTINE_143C:
196: 0x143C [0x03] Work_Zone[1] = 2*
197: 0x1441 [0x01] GOTO 0x1444

SUBROUTINE_1444:
198: 0x1444 [0x45] LOAD_SCHEDULED_TASK: Load scheduler "fdo1" with entities [LocalPlayer, LocalPlayer], work=[200*, 0*]
199: 0x1455 [0x55] WAIT_LOAD_SCHEDULER: Wait for scheduler "fdo1" with entities [LocalPlayer, LocalPlayer], work=200*
200: 0x1464 [0x02] IF !(Work_Zone[9] == 5*) GOTO 0x147E
201: 0x146C [0x52] END_LOAD_SCHEDULER: End scheduler "s039" with entities [LocalPlayer, LocalPlayer], work=663*
202: 0x147B [0x01] GOTO 0x14A7
203: 0x147E [0x02] IF !(Work_Zone[9] == 6*) GOTO 0x1498
204: 0x1486 [0x52] END_LOAD_SCHEDULER: End scheduler "s039" with entities [LocalPlayer, LocalPlayer], work=663*
205: 0x1495 [0x01] GOTO 0x14A7
206: 0x1498 [0x52] END_LOAD_SCHEDULER: End scheduler "s035" with entities [LocalPlayer, LocalPlayer], work=663*

SUBROUTINE_14A7:
207: 0x14A7 [0x5C] MUSIC_CONTROL: Set Idle (Day) music to song 59*
208: 0x14AB [0x5C] MUSIC_CONTROL: Set Idle (Night) music to song 59*
209: 0x14AF [0x9A] WAIT_MUSIC_SERVER()
210: 0x14B0 [0x5D] SET_MUSIC_VOLUME(volume=127*, fade_time=1*)
211: 0x14B5 [0x1C] WAIT(2* ticks)
212: 0x14B8 [0x46] CAMERA_CONTROL: Restore default settings
213: 0x14BA [0x45] LOAD_SCHEDULED_TASK: Load scheduler "fdi1" with entities [LocalPlayer, LocalPlayer], work=[200*, 0*]
