# 17825992 - Eamonn

## Common Data

| Field            | Value                     |
|------------------|---------------------------|
| Zone             | Western Adoulin (ID: 256) |
| Block Size       | 840 bytes                 |
| Total Events     | 20                        |
| References Count | 38                        |

## List of Events

| Event ID                 | Entrypoint   |   Size |   Instructions |
|--------------------------|--------------|--------|----------------|
| [65535](#event-65535)    | 0x0000       |      1 |              1 |
| [5023](#event-5023)      | 0x0001       |      7 |              2 |
| [65535.1](#event-655351) | 0x0008       |     31 |              7 |
| [5024](#event-5024)      | 0x0027       |      7 |              2 |
| [5025](#event-5025)      | 0x002E       |      1 |              1 |
| [5031](#event-5031)      | 0x002F       |     79 |             13 |
| [5027](#event-5027)      | 0x007E       |     26 |              8 |
| [5028](#event-5028)      | 0x0098       |      7 |              2 |
| [5030](#event-5030)      | 0x009F       |     26 |              8 |
| [83](#event-83)          | 0x00B9       |      1 |              1 |
| [65535.2](#event-655352) | 0x00BA       |     55 |              8 |
| [65535.3](#event-655353) | 0x00F1       |      6 |              2 |
| [134](#event-134)        | 0x00F7       |      1 |              1 |
| [65535.4](#event-655354) | 0x00F8       |    104 |             12 |
| [65535.5](#event-655355) | 0x0160       |     64 |             14 |
| [5220](#event-5220)      | 0x01A0       |      7 |              2 |
| [5221](#event-5221)      | 0x01A7       |      7 |              2 |
| [65535.6](#event-655356) | 0x01AE       |     66 |             18 |
| [65535.7](#event-655357) | 0x01F0       |     51 |              7 |
| [65535.8](#event-655358) | 0x0223       |     44 |             10 |

## DAT References (imed_data)

|   Index | Hex Value   |   Dec Value |
|---------|-------------|-------------|
|       0 | 0x0028      |          40 |
|       1 | 0xFFFE9D51  |  4294876497 |
|       2 | 0x1D47      |        7495 |
|       3 | 0x0D15      |        3349 |
|       4 | 0x001E      |          30 |
|       5 | 0x0045      |          69 |
|       6 | 0x24D4      |        9428 |
|       7 | 0x001A      |          26 |
|       8 | 0x24D5      |        9429 |
|       9 | 0x0016      |          22 |
|      10 | 0x24D8      |        9432 |
|      11 | 0x0006      |           6 |
|      12 | 0x24EE      |        9454 |
|      13 | 0x00B4      |         180 |
|      14 | 0x0000      |           0 |
|      15 | 0x003C      |          60 |
|      16 | 0x0078      |         120 |
|      17 | 0x0001      |           1 |
|      18 | 0x01C2      |         450 |
|      19 | 0x000B      |          11 |
|      20 | 0x00D2      |         210 |
|      21 | 0x0009      |           9 |
|      22 | 0xFFFF624F  |  4294926927 |
|      23 | 0xFFFE6093  |  4294860947 |
|      24 | 0xFFFFFD2C  |  4294966572 |
|      25 | 0x0014      |          20 |
|      26 | 0xFFFEA598  |  4294878616 |
|      27 | 0x08FC      |        2300 |
|      28 | 0x0D16      |        3350 |
|      29 | 0xFFFF704A  |  4294930506 |
|      30 | 0xFFFE6718  |  4294862616 |
|      31 | 0xFFFFFD76  |  4294966646 |
|      32 | 0xFFFF6E4C  |  4294929996 |
|      33 | 0xFFFE62D6  |  4294861526 |
|      34 | 0xFFFF6E92  |  4294930066 |
|      35 | 0xFFFE5CC8  |  4294859976 |
|      36 | 0xFFFF7CB6  |  4294933686 |
|      37 | 0xFFFE4B0C  |  4294855436 |

## String References

- **9429**: Well, unless you know someone who's willing to go to Ceizak Battlegrounds in our place...
- **9432**: It's not like we were frightened or anything. Just forgot something!
- **9454**: Half my salary...how am I supposed to live on that?

## Events

### Event 65535

#### Metadata

| Field        | Value   |
|--------------|---------|
| Entrypoint   | 0x0000  |
| Data Size    | 1 bytes |
| Instructions | 1       |

```
      00 01 02 03 04 05 06 07  08 09 0A 0B 0C 0D 0E 0F
      -- -- -- -- -- -- -- --  -- -- -- -- -- -- -- --
0000: 00                                                .               
```

#### Opcodes

```
  0: 0x0000 [0x00] END_REQSTACK()
```

### Event 5023

#### Metadata

| Field        | Value   |
|--------------|---------|
| Entrypoint   | 0x0001  |
| Data Size    | 7 bytes |
| Instructions | 2       |

```
      00 01 02 03 04 05 06 07  08 09 0A 0B 0C 0D 0E 0F
      -- -- -- -- -- -- -- --  -- -- -- -- -- -- -- --
0000:    92 01 F8 FF FF 7F 00                            .......        
```

#### Opcodes

```
  0: 0x0001 [0x92] EventEntity->Render.Flags3 ^= 0x01
  1: 0x0007 [0x00] END_REQSTACK()
```

### Event 65535.1

#### Metadata

| Field        | Value    |
|--------------|----------|
| Entrypoint   | 0x0008   |
| Data Size    | 31 bytes |
| Instructions | 7        |

```
      00 01 02 03 04 05 06 07  08 09 0A 0B 0C 0D 0E 0F
      -- -- -- -- -- -- -- --  -- -- -- -- -- -- -- --
0000:                          32 00 80 1F 00 01 80 02          2.......
0010: 80 03 80 1F 01 1E F0 FF  FF 7F 4A C7 00 10 01 C8  ..........J.....
0020: 00 10 01 1C 04 80 00                              .......         
```

#### Opcodes

```
  0: 0x0008 [0x32] ExtData[1]->MainSpeed = 40* * 0.1
  1: 0x000B [0x1F] MOVE_ENTITY: EventEntity moves to X=-90.799*, Z=7.495*, Y=3.349*
  2: 0x0013 [0x1F] MOVE_ENTITY: Update entity position (mode=1)
  3: 0x0015 [0x1E] EventEntity looks at LocalPlayer and starts talking
  4: 0x001A [0x4A] Bilp (ID: 17825991/0x011000C7) looks at Eamonn (ID: 17825992/0x011000C8)
  5: 0x0023 [0x1C] WAIT(30* ticks)
  6: 0x0026 [0x00] END_REQSTACK()
```

### Event 5024

#### Metadata

| Field        | Value   |
|--------------|---------|
| Entrypoint   | 0x0027  |
| Data Size    | 7 bytes |
| Instructions | 2       |

```
      00 01 02 03 04 05 06 07  08 09 0A 0B 0C 0D 0E 0F
      -- -- -- -- -- -- -- --  -- -- -- -- -- -- -- --
0020:                      92  01 F8 FF FF 7F 00               .......  
```

#### Opcodes

```
  0: 0x0027 [0x92] EventEntity->Render.Flags3 ^= 0x01
  1: 0x002D [0x00] END_REQSTACK()
```

### Event 5025

#### Metadata

| Field        | Value   |
|--------------|---------|
| Entrypoint   | 0x002E  |
| Data Size    | 1 bytes |
| Instructions | 1       |

```
      00 01 02 03 04 05 06 07  08 09 0A 0B 0C 0D 0E 0F
      -- -- -- -- -- -- -- --  -- -- -- -- -- -- -- --
0020:                                            00                   . 
```

#### Opcodes

```
  0: 0x002E [0x00] END_REQSTACK()
```

### Event 5031

#### Metadata

| Field        | Value    |
|--------------|----------|
| Entrypoint   | 0x002F   |
| Data Size    | 79 bytes |
| Instructions | 13       |

```
      00 01 02 03 04 05 06 07  08 09 0A 0B 0C 0D 0E 0F
      -- -- -- -- -- -- -- --  -- -- -- -- -- -- -- --
0020:                                               79                 y
0030: 00 C7 00 10 01 C8 00 10  01 1C 04 80 79 00 F8 FF  ............y...
0040: FF 7F C7 00 10 01 66 05  80 C7 00 10 01 C7 00 10  ......f.........
0050: 01 74 6C 6B 30 2B C7 00  10 01 06 80 23 66 05 80  .tlk0+......#f..
0060: C7 00 10 01 C7 00 10 01  74 6C 6B 31 6E F8 FF FF  ........tlk1n...
0070: 7F 07 80 99 F8 FF FF 7F  1D 08 80 23 21 00        ...........#!.  
```

#### Opcodes

```
  0: 0x002F [0x79] Bilp (ID: 17825991/0x011000C7) looks at Eamonn (ID: 17825992/0x011000C8) (Basic look)
  1: 0x0039 [0x1C] WAIT(30* ticks)
  2: 0x003C [0x79] EventEntity looks at Bilp (ID: 17825991/0x011000C7) (Basic look)
  3: 0x0046 [0x66] LOAD_EXT_SCHEDULER_MAIN: Load scheduler "tlk0" with entities [Bilp (ID: 17825991/0x011000C7), Bilp (ID: 17825991/0x011000C7)], work=69*
  4: 0x0055 [0x2B] Bilp (ID: 17825991/0x011000C7) [9428*]:
    → "If we don't hurry up with our survey, the maester's going to have our hides!"
  5: 0x005C [0x23] WAIT_FOR_DIALOG_INTERACTION
  6: 0x005D [0x66] LOAD_EXT_SCHEDULER_MAIN: Load scheduler "tlk1" with entities [Bilp (ID: 17825991/0x011000C7), Bilp (ID: 17825991/0x011000C7)], work=69*
  7: 0x006C [0x6E] EventEntity uses emote 26*
  8: 0x0073 [0x99] Wait for EventEntity animation to complete
  9: 0x0078 [0x1D] PRINT_EVENT_MESSAGE(message_id=9429*)
    → "Well, unless you know someone who's willing to go to Ceizak Battlegrounds in our place..."
 10: 0x007B [0x23] WAIT_FOR_DIALOG_INTERACTION
 11: 0x007C [0x21] END_EVENT
 12: 0x007D [0x00] END_REQSTACK()
```

### Event 5027

#### Metadata

| Field        | Value    |
|--------------|----------|
| Entrypoint   | 0x007E   |
| Data Size    | 26 bytes |
| Instructions | 8        |

```
      00 01 02 03 04 05 06 07  08 09 0A 0B 0C 0D 0E 0F
      -- -- -- -- -- -- -- --  -- -- -- -- -- -- -- --
0070:                                            1E F0                ..
0080: FF FF 7F 1C 04 80 6E F8  FF FF 7F 09 80 99 F8 FF  ......n.........
0090: FF 7F 1D 0A 80 23 21 00                           .....#!.        
```

#### Opcodes

```
  0: 0x007E [0x1E] EventEntity looks at LocalPlayer and starts talking
  1: 0x0083 [0x1C] WAIT(30* ticks)
  2: 0x0086 [0x6E] EventEntity uses emote 22*
  3: 0x008D [0x99] Wait for EventEntity animation to complete
  4: 0x0092 [0x1D] PRINT_EVENT_MESSAGE(message_id=9432*)
    → "It's not like we were frightened or anything. Just forgot something!"
  5: 0x0095 [0x23] WAIT_FOR_DIALOG_INTERACTION
  6: 0x0096 [0x21] END_EVENT
  7: 0x0097 [0x00] END_REQSTACK()
```

### Event 5028

#### Metadata

| Field        | Value   |
|--------------|---------|
| Entrypoint   | 0x0098  |
| Data Size    | 7 bytes |
| Instructions | 2       |

```
      00 01 02 03 04 05 06 07  08 09 0A 0B 0C 0D 0E 0F
      -- -- -- -- -- -- -- --  -- -- -- -- -- -- -- --
0090:                          92 01 F8 FF FF 7F 00             ....... 
```

#### Opcodes

```
  0: 0x0098 [0x92] EventEntity->Render.Flags3 ^= 0x01
  1: 0x009E [0x00] END_REQSTACK()
```

### Event 5030

#### Metadata

| Field        | Value    |
|--------------|----------|
| Entrypoint   | 0x009F   |
| Data Size    | 26 bytes |
| Instructions | 8        |

```
      00 01 02 03 04 05 06 07  08 09 0A 0B 0C 0D 0E 0F
      -- -- -- -- -- -- -- --  -- -- -- -- -- -- -- --
0090:                                               1E                 .
00A0: F0 FF FF 7F 1C 04 80 6E  C8 00 10 01 0B 80 99 C8  .......n........
00B0: 00 10 01 1D 0C 80 23 21  00                       ......#!.       
```

#### Opcodes

```
  0: 0x009F [0x1E] EventEntity looks at LocalPlayer and starts talking
  1: 0x00A4 [0x1C] WAIT(30* ticks)
  2: 0x00A7 [0x6E] Eamonn (ID: 17825992/0x011000C8) uses emote 6*
  3: 0x00AE [0x99] Wait for Eamonn (ID: 17825992/0x011000C8) animation to complete
  4: 0x00B3 [0x1D] PRINT_EVENT_MESSAGE(message_id=9454*)
    → "Half my salary...how am I supposed to live on that?"
  5: 0x00B6 [0x23] WAIT_FOR_DIALOG_INTERACTION
  6: 0x00B7 [0x21] END_EVENT
  7: 0x00B8 [0x00] END_REQSTACK()
```

### Event 83

#### Metadata

| Field        | Value   |
|--------------|---------|
| Entrypoint   | 0x00B9  |
| Data Size    | 1 bytes |
| Instructions | 1       |

```
      00 01 02 03 04 05 06 07  08 09 0A 0B 0C 0D 0E 0F
      -- -- -- -- -- -- -- --  -- -- -- -- -- -- -- --
00B0:                             00                             .      
```

#### Opcodes

```
  0: 0x00B9 [0x00] END_REQSTACK()
```

### Event 65535.2

#### Metadata

| Field        | Value    |
|--------------|----------|
| Entrypoint   | 0x00BA   |
| Data Size    | 55 bytes |
| Instructions | 8        |

```
      00 01 02 03 04 05 06 07  08 09 0A 0B 0C 0D 0E 0F
      -- -- -- -- -- -- -- --  -- -- -- -- -- -- -- --
00B0:                                1C 0D 80 03 00 00            ......
00C0: 0E 80 02 00 00 0E 80 00  F0 00 BB 0F 80 C8 00 10  ................
00D0: 01 C8 00 10 01 6D 31 30  31 0E 80 BC 0F 80 C8 00  .....m101.......
00E0: 10 01 C8 00 10 01 6D 31  30 31 1C 10 80 01 C2 00  ......m101......
00F0: 00                                                .               
```

#### Opcodes

```
  0: 0x00BA [0x1C] WAIT(180* ticks)
  1: 0x00BD [0x03] ExtData[1]->WorkLocal[0] = 0*
  2: 0x00C2 [0x02] IF !(ExtData[1]->WorkLocal[0] == 0*) GOTO 0x00F0
  3: 0x00CA [0xBB] LOAD_EVENT_SCHEDULER_ALT: Load scheduler "m101" with entities [Eamonn (ID: 17825992/0x011000C8), Eamonn (ID: 17825992/0x011000C8)], work=[60*, 0*]
  4: 0x00DB [0xBC] WAIT_LOAD_SCHEDULER_ALT2: Wait for scheduler "m101" with entities [Eamonn (ID: 17825992/0x011000C8), Eamonn (ID: 17825992/0x011000C8)], work=60*
  5: 0x00EA [0x1C] WAIT(120* ticks)
  6: 0x00ED [0x01] GOTO 0x00C2
  7: 0x00F0 [0x00] END_REQSTACK()
```

### Event 65535.3

#### Metadata

| Field        | Value   |
|--------------|---------|
| Entrypoint   | 0x00F1  |
| Data Size    | 6 bytes |
| Instructions | 2       |

```
      00 01 02 03 04 05 06 07  08 09 0A 0B 0C 0D 0E 0F
      -- -- -- -- -- -- -- --  -- -- -- -- -- -- -- --
00F0:    03 00 00 11 80 00                               ......         
```

#### Opcodes

```
  0: 0x00F1 [0x03] ExtData[1]->WorkLocal[0] = 1*
  1: 0x00F6 [0x00] END_REQSTACK()
```

### Event 134

#### Metadata

| Field        | Value   |
|--------------|---------|
| Entrypoint   | 0x00F7  |
| Data Size    | 1 bytes |
| Instructions | 1       |

```
      00 01 02 03 04 05 06 07  08 09 0A 0B 0C 0D 0E 0F
      -- -- -- -- -- -- -- --  -- -- -- -- -- -- -- --
00F0:                      00                                  .        
```

#### Opcodes

```
  0: 0x00F7 [0x00] END_REQSTACK()
```

### Event 65535.4

#### Metadata

| Field        | Value     |
|--------------|-----------|
| Entrypoint   | 0x00F8    |
| Data Size    | 104 bytes |
| Instructions | 12        |

```
      00 01 02 03 04 05 06 07  08 09 0A 0B 0C 0D 0E 0F
      -- -- -- -- -- -- -- --  -- -- -- -- -- -- -- --
00F0:                          1C 10 80 BB 0F 80 F8 FF          ........
0100: FF 7F F8 FF FF 7F 6D 35  30 35 0E 80 BC 0F 80 F8  ......m505......
0110: FF FF 7F F8 FF FF 7F 6D  35 30 35 1C 12 80 BB 0F  .......m505.....
0120: 80 F8 FF FF 7F F8 FF FF  7F 6D 36 31 31 0E 80 BC  .........m611...
0130: 0F 80 F8 FF FF 7F F8 FF  FF 7F 6D 36 31 31 1C 04  ..........m611..
0140: 80 6E F8 FF FF 7F 13 80  99 F8 FF FF 7F 1C 14 80  .n..............
0150: 66 15 80 F8 FF FF 7F F8  FF FF 7F 74 6C 6B 30 00  f..........tlk0.
```

#### Opcodes

```
  0: 0x00F8 [0x1C] WAIT(120* ticks)
  1: 0x00FB [0xBB] LOAD_EVENT_SCHEDULER_ALT: Load scheduler "m505" with entities [EventEntity, EventEntity], work=[60*, 0*]
  2: 0x010C [0xBC] WAIT_LOAD_SCHEDULER_ALT2: Wait for scheduler "m505" with entities [EventEntity, EventEntity], work=60*
  3: 0x011B [0x1C] WAIT(450* ticks)
  4: 0x011E [0xBB] LOAD_EVENT_SCHEDULER_ALT: Load scheduler "m611" with entities [EventEntity, EventEntity], work=[60*, 0*]
  5: 0x012F [0xBC] WAIT_LOAD_SCHEDULER_ALT2: Wait for scheduler "m611" with entities [EventEntity, EventEntity], work=60*
  6: 0x013E [0x1C] WAIT(30* ticks)
  7: 0x0141 [0x6E] EventEntity uses emote 11*
  8: 0x0148 [0x99] Wait for EventEntity animation to complete
  9: 0x014D [0x1C] WAIT(210* ticks)
 10: 0x0150 [0x66] LOAD_EXT_SCHEDULER_MAIN: Load scheduler "tlk0" with entities [EventEntity, EventEntity], work=9*
 11: 0x015F [0x00] END_REQSTACK()
```

### Event 65535.5

#### Metadata

| Field        | Value    |
|--------------|----------|
| Entrypoint   | 0x0160   |
| Data Size    | 64 bytes |
| Instructions | 14       |

```
      00 01 02 03 04 05 06 07  08 09 0A 0B 0C 0D 0E 0F
      -- -- -- -- -- -- -- --  -- -- -- -- -- -- -- --
0160: 1C 04 80 66 15 80 F8 FF  FF 7F F8 FF FF 7F 74 6C  ...f..........tl
0170: 6B 31 1C 04 80 1E 3B 00  10 01 6F 70 32 00 80 1F  k1....;...op2...
0180: 00 16 80 17 80 18 80 1F  01 1E 3B 00 10 01 6F 70  ..........;...op
0190: 66 11 80 F8 FF FF 7F F8  FF FF 7F 67 6F 6D 30 00  f..........gom0.
```

#### Opcodes

```
  0: 0x0160 [0x1C] WAIT(30* ticks)
  1: 0x0163 [0x66] LOAD_EXT_SCHEDULER_MAIN: Load scheduler "tlk1" with entities [EventEntity, EventEntity], work=9*
  2: 0x0172 [0x1C] WAIT(30* ticks)
  3: 0x0175 [0x1E] EventEntity looks at Task Delegator (ID: 17825851/0x0110003B) and starts talking
  4: 0x017A [0x6F] WAIT_FRAME_DELAY: Yield until WaitTime reaches zero
  5: 0x017B [0x70] WAIT_ENTITY_RENDER_FLAG: Wait while EventEntity->Render.Flags3 bit 2 is set (cancel turn if not)
  6: 0x017C [0x32] ExtData[1]->MainSpeed = 40* * 0.1
  7: 0x017F [0x1F] MOVE_ENTITY: EventEntity moves to X=-40.369*, Z=-106.349*, Y=-0.724*
  8: 0x0187 [0x1F] MOVE_ENTITY: Update entity position (mode=1)
  9: 0x0189 [0x1E] EventEntity looks at Task Delegator (ID: 17825851/0x0110003B) and starts talking
 10: 0x018E [0x6F] WAIT_FRAME_DELAY: Yield until WaitTime reaches zero
 11: 0x018F [0x70] WAIT_ENTITY_RENDER_FLAG: Wait while EventEntity->Render.Flags3 bit 2 is set (cancel turn if not)
 12: 0x0190 [0x66] LOAD_EXT_SCHEDULER_MAIN: Load scheduler "gom0" with entities [EventEntity, EventEntity], work=1*
 13: 0x019F [0x00] END_REQSTACK()
```

### Event 5220

#### Metadata

| Field        | Value   |
|--------------|---------|
| Entrypoint   | 0x01A0  |
| Data Size    | 7 bytes |
| Instructions | 2       |

```
      00 01 02 03 04 05 06 07  08 09 0A 0B 0C 0D 0E 0F
      -- -- -- -- -- -- -- --  -- -- -- -- -- -- -- --
01A0: 92 01 F8 FF FF 7F 00                              .......         
```

#### Opcodes

```
  0: 0x01A0 [0x92] EventEntity->Render.Flags3 ^= 0x01
  1: 0x01A6 [0x00] END_REQSTACK()
```

### Event 5221

#### Metadata

| Field        | Value   |
|--------------|---------|
| Entrypoint   | 0x01A7  |
| Data Size    | 7 bytes |
| Instructions | 2       |

```
      00 01 02 03 04 05 06 07  08 09 0A 0B 0C 0D 0E 0F
      -- -- -- -- -- -- -- --  -- -- -- -- -- -- -- --
01A0:                      92  01 F8 FF FF 7F 00               .......  
```

#### Opcodes

```
  0: 0x01A7 [0x92] EventEntity->Render.Flags3 ^= 0x01
  1: 0x01AD [0x00] END_REQSTACK()
```

### Event 65535.6

#### Metadata

| Field        | Value    |
|--------------|----------|
| Entrypoint   | 0x01AE   |
| Data Size    | 66 bytes |
| Instructions | 18       |

```
      00 01 02 03 04 05 06 07  08 09 0A 0B 0C 0D 0E 0F
      -- -- -- -- -- -- -- --  -- -- -- -- -- -- -- --
01A0:                                            1E C7                ..
01B0: 00 10 01 6F 70 32 19 80  1F 00 1A 80 1B 80 1C 80  ...op2..........
01C0: 1F 01 1E C7 00 10 01 6F  70 1C 0F 80 4A C7 00 10  .......op...J...
01D0: 01 F8 FF FF 7F 6F 76 C7  00 10 01 1C 04 80 1E 91  .....ov.........
01E0: 00 10 01 1C 19 80 4A C7  00 10 01 91 00 10 01 00  ......J.........
```

#### Opcodes

```
  0: 0x01AE [0x1E] EventEntity looks at Bilp (ID: 17825991/0x011000C7) and starts talking
  1: 0x01B3 [0x6F] WAIT_FRAME_DELAY: Yield until WaitTime reaches zero
  2: 0x01B4 [0x70] WAIT_ENTITY_RENDER_FLAG: Wait while EventEntity->Render.Flags3 bit 2 is set (cancel turn if not)
  3: 0x01B5 [0x32] ExtData[1]->MainSpeed = 20* * 0.1
  4: 0x01B8 [0x1F] MOVE_ENTITY: EventEntity moves to X=-88.680*, Z=2.300*, Y=3.350*
  5: 0x01C0 [0x1F] MOVE_ENTITY: Update entity position (mode=1)
  6: 0x01C2 [0x1E] EventEntity looks at Bilp (ID: 17825991/0x011000C7) and starts talking
  7: 0x01C7 [0x6F] WAIT_FRAME_DELAY: Yield until WaitTime reaches zero
  8: 0x01C8 [0x70] WAIT_ENTITY_RENDER_FLAG: Wait while EventEntity->Render.Flags3 bit 2 is set (cancel turn if not)
  9: 0x01C9 [0x1C] WAIT(60* ticks)
 10: 0x01CC [0x4A] Bilp (ID: 17825991/0x011000C7) looks at EventEntity
 11: 0x01D5 [0x6F] WAIT_FRAME_DELAY: Yield until WaitTime reaches zero
 12: 0x01D6 [0x76] CHECK_ENTITY_RENDER_FLAGS: Wait until Bilp (ID: 17825991/0x011000C7) Render.Flags0 and Render.Flags3 conditions are met
 13: 0x01DB [0x1C] WAIT(30* ticks)
 14: 0x01DE [0x1E] EventEntity looks at Levil (ID: 17825937/0x01100091) and starts talking
 15: 0x01E3 [0x1C] WAIT(20* ticks)
 16: 0x01E6 [0x4A] Bilp (ID: 17825991/0x011000C7) looks at Levil (ID: 17825937/0x01100091)
 17: 0x01EF [0x00] END_REQSTACK()
```

### Event 65535.7

#### Metadata

| Field        | Value    |
|--------------|----------|
| Entrypoint   | 0x01F0   |
| Data Size    | 51 bytes |
| Instructions | 7        |

```
      00 01 02 03 04 05 06 07  08 09 0A 0B 0C 0D 0E 0F
      -- -- -- -- -- -- -- --  -- -- -- -- -- -- -- --
01F0: 1C 10 80 BB 0F 80 F8 FF  FF 7F F8 FF FF 7F 6D 36  ..............m6
0200: 31 31 0E 80 BC 0F 80 F8  FF FF 7F F8 FF FF 7F 6D  11.............m
0210: 36 31 31 1C 0F 80 6E F8  FF FF 7F 13 80 99 F8 FF  611...n.........
0220: FF 7F 00                                          ...             
```

#### Opcodes

```
  0: 0x01F0 [0x1C] WAIT(120* ticks)
  1: 0x01F3 [0xBB] LOAD_EVENT_SCHEDULER_ALT: Load scheduler "m611" with entities [EventEntity, EventEntity], work=[60*, 0*]
  2: 0x0204 [0xBC] WAIT_LOAD_SCHEDULER_ALT2: Wait for scheduler "m611" with entities [EventEntity, EventEntity], work=60*
  3: 0x0213 [0x1C] WAIT(60* ticks)
  4: 0x0216 [0x6E] EventEntity uses emote 11*
  5: 0x021D [0x99] Wait for EventEntity animation to complete
  6: 0x0222 [0x00] END_REQSTACK()
```

### Event 65535.8

#### Metadata

| Field        | Value    |
|--------------|----------|
| Entrypoint   | 0x0223   |
| Data Size    | 44 bytes |
| Instructions | 10       |

```
      00 01 02 03 04 05 06 07  08 09 0A 0B 0C 0D 0E 0F
      -- -- -- -- -- -- -- --  -- -- -- -- -- -- -- --
0220:          32 00 80 1F 00  1D 80 1E 80 1F 80 1F 01     2............
0230: 1F 00 20 80 21 80 1F 80  1F 01 1F 00 22 80 23 80  .. .!.......".#.
0240: 1F 80 1F 01 1F 00 24 80  25 80 1F 80 1F 01 00     ......$.%...... 
```

#### Opcodes

```
  0: 0x0223 [0x32] ExtData[1]->MainSpeed = 40* * 0.1
  1: 0x0226 [0x1F] MOVE_ENTITY: EventEntity moves to X=-36.790*, Z=-104.680*, Y=-0.650*
  2: 0x022E [0x1F] MOVE_ENTITY: Update entity position (mode=1)
  3: 0x0230 [0x1F] MOVE_ENTITY: EventEntity moves to X=-37.300*, Z=-105.770*, Y=-0.650*
  4: 0x0238 [0x1F] MOVE_ENTITY: Update entity position (mode=1)
  5: 0x023A [0x1F] MOVE_ENTITY: EventEntity moves to X=-37.230*, Z=-107.320*, Y=-0.650*
  6: 0x0242 [0x1F] MOVE_ENTITY: Update entity position (mode=1)
  7: 0x0244 [0x1F] MOVE_ENTITY: EventEntity moves to X=-33.610*, Z=-111.860*, Y=-0.650*
  8: 0x024C [0x1F] MOVE_ENTITY: Update entity position (mode=1)
  9: 0x024E [0x00] END_REQSTACK()
```
