# 17826028 - Amchuchus Laboratory

## Common Data

| Field            | Value                     |
|------------------|---------------------------|
| Zone             | Western Adoulin (ID: 256) |
| Block Size       | 7316 bytes                |
| Total Events     | 7                         |
| References Count | 145                       |

## List of Events

| Event ID              | Entrypoint   |   Size |   Instructions |
|-----------------------|--------------|--------|----------------|
| [65535](#event-65535) | 0x0000       |      1 |              1 |
| [5054](#event-5054)   | 0x0001       |   2214 |            307 |
| [5055](#event-5055)   | 0x08A7       |    866 |            116 |
| [5062](#event-5062)   | 0x0C09       |   1586 |            209 |
| [5063](#event-5063)   | 0x123B       |   2023 |            262 |
| [5087](#event-5087)   | 0x1A22       |      1 |              1 |
| [5091](#event-5091)   | 0x1A23       |      1 |              1 |

## DAT References (imed_data)

|   Index | Hex Value   |   Dec Value |
|---------|-------------|-------------|
|       0 | 0x00C8      |         200 |
|       1 | 0x0000      |           0 |
|       2 | 0x0013      |          19 |
|       3 | 0x0001      |           1 |
|       4 | 0x024B      |         587 |
|       5 | 0x17318     |       95000 |
|       6 | 0xFFFEDA59  |  4294892121 |
|       7 | 0xFFFFF830  |  4294965296 |
|       8 | 0x16E04     |       93700 |
|       9 | 0xFFFEDF54  |  4294893396 |
|      10 | 0xFFFFFD75  |  4294966645 |
|      11 | 0x0400      |        1024 |
|      12 | 0x0A00      |        2560 |
|      13 | 0x18254     |       98900 |
|      14 | 0xFFFECA5F  |  4294888031 |
|      15 | 0x15CFF     |       89343 |
|      16 | 0xFFFEDAEA  |  4294892266 |
|      17 | 0x0200      |         512 |
|      18 | 0x16415     |       91157 |
|      19 | 0xFFFECDB2  |  4294888882 |
|      20 | 0x001E      |          30 |
|      21 | 0x027C      |         636 |
|      22 | 0x003C      |          60 |
|      23 | 0x2A0B      |       10763 |
|      24 | 0x0005      |           5 |
|      25 | 0x2A0C      |       10764 |
|      26 | 0x0028      |          40 |
|      27 | 0x0027      |          39 |
|      28 | 0x0078      |         120 |
|      29 | 0x00A5      |         165 |
|      30 | 0x00D2      |         210 |
|      31 | 0x29E8      |       10728 |
|      32 | 0x00A0      |         160 |
|      33 | 0x29E9      |       10729 |
|      34 | 0x29EA      |       10730 |
|      35 | 0x29EB      |       10731 |
|      36 | 0x29EC      |       10732 |
|      37 | 0x00B4      |         180 |
|      38 | 0x29ED      |       10733 |
|      39 | 0x29EE      |       10734 |
|      40 | 0x0080      |         128 |
|      41 | 0x29F3      |       10739 |
|      42 | 0x29F4      |       10740 |
|      43 | 0x29F5      |       10741 |
|      44 | 0x005A      |          90 |
|      45 | 0x29F6      |       10742 |
|      46 | 0x29EF      |       10735 |
|      47 | 0x29F0      |       10736 |
|      48 | 0x29F1      |       10737 |
|      49 | 0x29F2      |       10738 |
|      50 | 0x29F7      |       10743 |
|      51 | 0x29F8      |       10744 |
|      52 | 0x29F9      |       10745 |
|      53 | 0x29FA      |       10746 |
|      54 | 0x29FB      |       10747 |
|      55 | 0x29FC      |       10748 |
|      56 | 0x29FD      |       10749 |
|      57 | 0x29FE      |       10750 |
|      58 | 0x29FF      |       10751 |
|      59 | 0x2A00      |       10752 |
|      60 | 0x2A01      |       10753 |
|      61 | 0x2A02      |       10754 |
|      62 | 0x2A03      |       10755 |
|      63 | 0x2A04      |       10756 |
|      64 | 0x0031      |          49 |
|      65 | 0x2A05      |       10757 |
|      66 | 0x000A      |          10 |
|      67 | 0x2A06      |       10758 |
|      68 | 0x2A07      |       10759 |
|      69 | 0x2A08      |       10760 |
|      70 | 0x2A09      |       10761 |
|      71 | 0x2A0A      |       10762 |
|      72 | 0x2A0E      |       10766 |
|      73 | 0x00BD      |         189 |
|      74 | 0x0096      |         150 |
|      75 | 0x08E0      |        2272 |
|      76 | 0x2A0F      |       10767 |
|      77 | 0x2A10      |       10768 |
|      78 | 0x2A11      |       10769 |
|      79 | 0x002A      |          42 |
|      80 | 0x2A12      |       10770 |
|      81 | 0x2A13      |       10771 |
|      82 | 0x2A14      |       10772 |
|      83 | 0x2A15      |       10773 |
|      84 | 0x2A16      |       10774 |
|      85 | 0x00C9      |         201 |
|      86 | 0x16378     |       91000 |
|      87 | 0xFFFEDCFC  |  4294892796 |
|      88 | 0x043D      |        1085 |
|      89 | 0x16D3C     |       93500 |
|      90 | 0xFFFEDDC4  |  4294892996 |
|      91 | 0x077E      |        1918 |
|      92 | 0xFFFFF8F8  |  4294965496 |
|      93 | 0xFFFFFF01  |  4294967041 |
|      94 | 0x1619A     |       90522 |
|      95 | 0xFFFED625  |  4294891045 |
|      96 | 0xFFFFFD01  |  4294966529 |
|      97 | 0x2A24      |       10788 |
|      98 | 0x2A25      |       10789 |
|      99 | 0x0007      |           7 |
|     100 | 0x00F0      |         240 |
|     101 | 0x2A17      |       10775 |
|     102 | 0x2A18      |       10776 |
|     103 | 0x2A19      |       10777 |
|     104 | 0x2A1A      |       10778 |
|     105 | 0x2A1B      |       10779 |
|     106 | 0x2A1C      |       10780 |
|     107 | 0x2A1D      |       10781 |
|     108 | 0x2A1E      |       10782 |
|     109 | 0x2A1F      |       10783 |
|     110 | 0x2A20      |       10784 |
|     111 | 0x2A21      |       10785 |
|     112 | 0x2A22      |       10786 |
|     113 | 0x2A23      |       10787 |
|     114 | 0xFFFFF861  |  4294965345 |
|     115 | 0x0583      |        1411 |
|     116 | 0x16078     |       90232 |
|     117 | 0xFFFED665  |  4294891109 |
|     118 | 0xFFFFFD81  |  4294966657 |
|     119 | 0x17F56     |       98134 |
|     120 | 0xFFFED14C  |  4294889804 |
|     121 | 0x2A26      |       10790 |
|     122 | 0x2A27      |       10791 |
|     123 | 0xFFFFF7FD  |  4294965245 |
|     124 | 0x2A28      |       10792 |
|     125 | 0x2A29      |       10793 |
|     126 | 0x2A2A      |       10794 |
|     127 | 0x0095      |         149 |
|     128 | 0x2A2B      |       10795 |
|     129 | 0x0009      |           9 |
|     130 | 0x2A2C      |       10796 |
|     131 | 0x2A2D      |       10797 |
|     132 | 0x2A2E      |       10798 |
|     133 | 0x2A2F      |       10799 |
|     134 | 0x2A30      |       10800 |
|     135 | 0x2A31      |       10801 |
|     136 | 0x2A32      |       10802 |
|     137 | 0x2A33      |       10803 |
|     138 | 0xFFFFF929  |  4294965545 |
|     139 | 0x2A34      |       10804 |
|     140 | 0x2A35      |       10805 |
|     141 | 0x2A36      |       10806 |
|     142 | 0x2A37      |       10807 |
|     143 | 0x002D      |          45 |
|     144 | 0x2A38      |       10808 |

## String References

- **10757**: Go find Junior? [I'm up for an adventure./No thanks.]
- **10767**: You hand over the $3.

## Events

### Event 65535

#### Metadata

| Field        | Value   |
|--------------|---------|
| Entrypoint   | 0x0000  |
| Data Size    | 1 bytes |
| Instructions | 1       |

```
      00 01 02 03 04 05 06 07  08 09 0A 0B 0C 0D 0E 0F
      -- -- -- -- -- -- -- --  -- -- -- -- -- -- -- --
0000: 00                                                .               
```

#### Opcodes

```
  0: 0x0000 [0x00] END_REQSTACK()
```

### Event 5054

#### Metadata

| Field        | Value      |
|--------------|------------|
| Entrypoint   | 0x0001     |
| Data Size    | 2214 bytes |
| Instructions | 294        |

```
      00 01 02 03 04 05 06 07  08 09 0A 0B 0C 0D 0E 0F
      -- -- -- -- -- -- -- --  -- -- -- -- -- -- -- --
0000:    42 45 00 80 F0 FF FF  7F F0 FF FF 7F 66 64 6F   BE..........fdo
0010: 31 01 80 55 00 80 F0 FF  FF 7F F0 FF FF 7F 66 64  1..U..........fd
0020: 6F 31 46 01 38 02 80 02  09 10 03 80 00 35 00 75  o1F.8........5.u
0030: 00 04 80 75 01 37 05 80  06 80 07 80 01 80 2F 00  ...u.7......../.
0040: ED 00 10 01 4E 00 ED 00  10 01 BA ED 00 10 01 08  ....N...........
0050: 80 09 80 0A 80 0B 80 02  02 10 03 80 00 6F 00 BA  .............o..
0060: F0 FF FF 7F 05 80 06 80  0A 80 0C 80 01 7C 00 BA  .............|..
0070: F0 FF FF 7F 0D 80 0E 80  0A 80 0C 80 80 ED 00 10  ................
0080: 01 80 F0 FF FF 7F 94 01  ED 00 10 01 94 01 F0 FF  ................
0090: FF 7F 02 02 10 01 80 00  D6 00 BA 0D 01 10 01 0F  ................
00A0: 80 10 80 0A 80 11 80 BA  3E 00 10 01 12 80 13 80  ........>.......
00B0: 0A 80 0B 80 80 0D 01 10  01 80 3E 00 10 01 94 01  ..........>.....
00C0: 0D 01 10 01 94 01 3E 00  10 01 92 01 0D 01 10 01  ......>.........
00D0: 92 01 3E 00 10 01 02 02  10 03 80 00 84 01 1C 14  ..>.............
00E0: 80 45 00 80 F0 FF FF 7F  F0 FF FF 7F 66 64 69 31  .E..........fdi1
00F0: 01 80 45 15 80 F8 FF FF  7F F8 FF FF 7F 73 30 30  ..E..........s00
0100: 32 01 80 4A ED 00 10 01  F0 FF FF 7F 4A F0 FF FF  2..J........J...
0110: 7F ED 00 10 01 6F 76 ED  00 10 01 6F 76 F0 FF FF  .....ov....ov...
0120: 7F 03 00 17 16 80 27 10  ED 00 10 01 2C 2B ED 00  ......'.....,+..
0130: 10 01 17 80 23 2A 10 ED  00 10 01 52 15 80 F8 FF  ....#*.....R....
0140: FF 7F F8 FF FF 7F 73 30  30 32 45 15 80 F8 FF FF  ......s002E.....
0150: 7F F8 FF FF 7F 73 30 30  36 01 80 92 01 F0 FF FF  .....s006.......
0160: 7F 6C F0 FF FF 7F 01 80  18 80 03 00 17 16 80 27  .l.............'
0170: 10 ED 00 10 01 2D 2B ED  00 10 01 19 80 23 01 E5  .....-+......#..
0180: 06 01 FC 01 66 1A 80 ED  00 10 01 ED 00 10 01 74  ....f..........t
0190: 68 6B 31 66 1B 80 0D 01  10 01 0D 01 10 01 74 68  hk1f..........th
01A0: 6B 31 45 15 80 F8 FF FF  7F F8 FF FF 7F 73 30 30  k1E..........s00
01B0: 30 01 80 45 00 80 F0 FF  FF 7F F0 FF FF 7F 66 64  0..E..........fd
01C0: 69 31 01 80 27 10 3E 00  10 01 03 1C 1C 80 5B 1D  i1..'.>.......[.
01D0: 80 3E 00 10 01 3E 00 10  01 62 6F 62 30 1C 1C 80  .>...>...bob0...
01E0: 66 1B 80 0D 01 10 01 0D  01 10 01 74 68 6B 32 1C  f..........thk2.
01F0: 14 80 27 10 0D 01 10 01  04 1C 1E 80 2B ED 00 10  ..'.........+...
0200: 01 1F 80 23 52 15 80 F8  FF FF 7F F8 FF FF 7F 73  ...#R..........s
0210: 30 30 30 45 15 80 F8 FF  FF 7F F8 FF FF 7F 73 30  000E..........s0
0220: 30 31 01 80 27 10 F0 FF  FF 7F 52 1C 20 80 52 15  01..'.....R. .R.
0230: 80 F8 FF FF 7F F8 FF FF  7F 73 30 30 31 45 15 80  .........s001E..
0240: F8 FF FF 7F F8 FF FF 7F  73 30 30 32 01 80 2A 10  ........s002..*.
0250: F0 FF FF 7F 1C 14 80 66  1A 80 ED 00 10 01 ED 00  .......f........
0260: 10 01 74 68 6B 32 4A ED  00 10 01 F0 FF FF 7F 4A  ..thk2J........J
0270: F0 FF FF 7F ED 00 10 01  6F 76 ED 00 10 01 6F 76  ........ov....ov
0280: F0 FF FF 7F 03 00 17 16  80 27 10 ED 00 10 01 2B  .........'.....+
0290: 2B ED 00 10 01 21 80 23  2A 10 ED 00 10 01 03 00  +....!.#*.......
02A0: 17 1C 80 27 10 ED 00 10  01 2E 52 15 80 F8 FF FF  ...'......R.....
02B0: 7F F8 FF FF 7F 73 30 30  32 45 15 80 F8 FF FF 7F  .....s002E......
02C0: F8 FF FF 7F 73 30 35 32  01 80 92 01 F0 FF FF 7F  ....s052........
02D0: 6C F0 FF FF 7F 01 80 18  80 2B ED 00 10 01 22 80  l........+....".
02E0: 23 2A 10 ED 00 10 01 4A  ED 00 10 01 F8 FF FF 7F  #*.....J........
02F0: 81 00 ED 00 10 01 03 00  17 16 80 27 10 ED 00 10  ...........'....
0300: 01 2F 52 15 80 F8 FF FF  7F F8 FF FF 7F 73 30 35  ./R..........s05
0310: 32 45 15 80 F8 FF FF 7F  F8 FF FF 7F 73 30 30 34  2E..........s004
0320: 01 80 2B ED 00 10 01 23  80 23 2A 10 ED 00 10 01  ..+....#.#*.....
0330: 52 15 80 F8 FF FF 7F F8  FF FF 7F 73 30 30 34 45  R..........s004E
0340: 15 80 F8 FF FF 7F F8 FF  FF 7F 73 30 30 35 01 80  ..........s005..
0350: 03 00 17 16 80 27 10 ED  00 10 01 2F 2B ED 00 10  .....'...../+...
0360: 01 24 80 23 2A 10 ED 00  10 01 81 01 ED 00 10 01  .$.#*...........
0370: 52 15 80 F8 FF FF 7F F8  FF FF 7F 73 30 30 35 45  R..........s005E
0380: 15 80 F8 FF FF 7F F8 FF  FF 7F 73 30 30 36 01 80  ..........s006..
0390: 4A ED 00 10 01 F0 FF FF  7F 03 00 17 25 80 27 10  J...........%.'.
03A0: ED 00 10 01 30 2B ED 00  10 01 26 80 23 2A 10 ED  ....0+....&.#*..
03B0: 00 10 01 79 00 ED 00 10  01 F0 FF FF 7F 03 00 17  ...y............
03C0: 16 80 27 10 ED 00 10 01  2B 2B ED 00 10 01 27 80  ..'.....++....'.
03D0: 23 2A 10 ED 00 10 01 52  15 80 F8 FF FF 7F F8 FF  #*.....R........
03E0: FF 7F 73 30 30 36 02 03  10 01 80 00 8C 04 92 00  ..s006..........
03F0: F0 FF FF 7F 6C F0 FF FF  7F 28 80 03 80 45 15 80  ....l....(...E..
0400: F8 FF FF 7F F8 FF FF 7F  73 30 33 31 01 80 03 00  ........s031....
0410: 17 16 80 27 10 ED 00 10  01 2C 2B ED 00 10 01 29  ...'.....,+....)
0420: 80 23 2B ED 00 10 01 2A  80 23 2A 10 ED 00 10 01  .#+....*.#*.....
0430: 03 00 17 16 80 27 10 ED  00 10 01 2D 2B ED 00 10  .....'.....-+...
0440: 01 2B 80 23 2A 10 ED 00  10 01 52 15 80 F8 FF FF  .+.#*.....R.....
0450: 7F F8 FF FF 7F 73 30 33  31 45 15 80 F8 FF FF 7F  .....s031E......
0460: F8 FF FF 7F 73 30 33 32  01 80 7B ED 00 10 01 81  ....s032..{.....
0470: 00 ED 00 10 01 03 00 17  2C 80 27 10 ED 00 10 01  ........,.'.....
0480: 31 2B ED 00 10 01 2D 80  23 01 39 05 92 00 F0 FF  1+....-.#.9.....
0490: FF 7F 6C F0 FF FF 7F 28  80 03 80 45 15 80 F8 FF  ..l....(...E....
04A0: FF 7F F8 FF FF 7F 73 30  33 31 01 80 03 00 17 16  ......s031......
04B0: 80 27 10 ED 00 10 01 2C  2B ED 00 10 01 2E 80 23  .'.....,+......#
04C0: 2A 10 ED 00 10 01 03 00  17 16 80 27 10 ED 00 10  *..........'....
04D0: 01 2D 2B ED 00 10 01 2F  80 23 2A 10 ED 00 10 01  .-+..../.#*.....
04E0: 03 00 17 16 80 27 10 ED  00 10 01 2C 2B ED 00 10  .....'.....,+...
04F0: 01 30 80 23 2A 10 ED 00  10 01 52 15 80 F8 FF FF  .0.#*.....R.....
0500: 7F F8 FF FF 7F 73 30 33  31 45 15 80 F8 FF FF 7F  .....s031E......
0510: F8 FF FF 7F 73 30 33 32  01 80 7B ED 00 10 01 81  ....s032..{.....
0520: 00 ED 00 10 01 03 00 17  2C 80 27 10 ED 00 10 01  ........,.'.....
0530: 31 2B ED 00 10 01 31 80  23 2B ED 00 10 01 32 80  1+....1.#+....2.
0540: 23 2A 10 ED 00 10 01 81  01 ED 00 10 01 79 00 ED  #*...........y..
0550: 00 10 01 F0 FF FF 7F 03  00 17 2C 80 27 10 ED 00  ..........,.'...
0560: 10 01 32 2B ED 00 10 01  33 80 23 2A 10 ED 00 10  ..2+....3.#*....
0570: 01 52 15 80 F8 FF FF 7F  F8 FF FF 7F 73 30 33 32  .R..........s032
0580: 45 15 80 F8 FF FF 7F F8  FF FF 7F 73 30 30 37 01  E..........s007.
0590: 80 03 00 17 16 80 27 10  ED 00 10 01 2D 2B ED 00  ......'.....-+..
05A0: 10 01 34 80 23 2B ED 00  10 01 35 80 23 2B ED 00  ..4.#+....5.#+..
05B0: 10 01 36 80 23 2A 10 ED  00 10 01 03 00 17 2C 80  ..6.#*........,.
05C0: 27 10 ED 00 10 01 33 2B  ED 00 10 01 37 80 23 2A  '.....3+....7.#*
05D0: 10 ED 00 10 01 03 00 17  16 80 27 10 ED 00 10 01  ..........'.....
05E0: 2D 2B ED 00 10 01 38 80  23 2A 10 ED 00 10 01 52  -+....8.#*.....R
05F0: 15 80 F8 FF FF 7F F8 FF  FF 7F 73 30 30 37 45 15  ..........s007E.
0600: 80 F8 FF FF 7F F8 FF FF  7F 73 30 33 33 01 80 03  .........s033...
0610: 00 17 16 80 27 10 ED 00  10 01 2D 2B ED 00 10 01  ....'.....-+....
0620: 39 80 23 2B ED 00 10 01  3A 80 23 2A 10 ED 00 10  9.#+....:.#*....
0630: 01 03 00 17 16 80 27 10  ED 00 10 01 2C 2B ED 00  ......'.....,+..
0640: 10 01 3B 80 23 2A 10 ED  00 10 01 03 00 17 16 80  ..;.#*..........
0650: 27 10 ED 00 10 01 2D 2B  ED 00 10 01 3C 80 23 2A  '.....-+....<.#*
0660: 10 ED 00 10 01 52 15 80  F8 FF FF 7F F8 FF FF 7F  .....R..........
0670: 73 30 33 33 45 15 80 F8  FF FF 7F F8 FF FF 7F 73  s033E..........s
0680: 30 30 36 01 80 92 01 F0  FF FF 7F 6C F0 FF FF 7F  006........l....
0690: 01 80 18 80 7B ED 00 10  01 81 00 ED 00 10 01 03  ....{...........
06A0: 00 17 2C 80 27 10 ED 00  10 01 31 2B ED 00 10 01  ..,.'.....1+....
06B0: 3D 80 23 2B ED 00 10 01  3E 80 23 2A 10 ED 00 10  =.#+....>.#*....
06C0: 01 81 01 ED 00 10 01 79  00 ED 00 10 01 F0 FF FF  .......y........
06D0: 7F 03 00 17 16 80 27 10  ED 00 10 01 2C 2B ED 00  ......'.....,+..
06E0: 10 01 3F 80 23 66 40 80  ED 00 10 01 ED 00 10 01  ..?.#f@.........
06F0: 74 6C 6B 31 24 41 80 01  80 01 80 25 02 00 10 01  tlk1$A.....%....
0700: 80 00 CC 07 2A 10 ED 00  10 01 6E ED 00 10 01 42  ....*.....n....B
0710: 80 99 ED 00 10 01 2B ED  00 10 01 43 80 23 1C 16  ......+....C.#..
0720: 80 52 15 80 F8 FF FF 7F  F8 FF FF 7F 73 30 30 36  .R..........s006
0730: 45 15 80 F8 FF FF 7F F8  FF FF 7F 73 30 33 35 01  E..........s035.
0740: 80 92 00 F0 FF FF 7F 6C  F0 FF FF 7F 28 80 03 80  .......l....(...
0750: 03 00 17 16 80 27 10 ED  00 10 01 2D 2B ED 00 10  .....'.....-+...
0760: 01 44 80 23 2A 10 ED 00  10 01 03 00 17 16 80 27  .D.#*..........'
0770: 10 ED 00 10 01 34 2B ED  00 10 01 45 80 23 2A 10  .....4+....E.#*.
0780: ED 00 10 01 45 00 80 F0  FF FF 7F F0 FF FF 7F 66  ....E..........f
0790: 64 6F 31 01 80 55 00 80  F0 FF FF 7F F0 FF FF 7F  do1..U..........
07A0: 66 64 6F 31 52 15 80 F8  FF FF 7F F8 FF FF 7F 73  fdo1R..........s
07B0: 30 33 35 46 00 45 00 80  F0 FF FF 7F F0 FF FF 7F  035F.E..........
07C0: 66 64 69 32 01 80 05 01  10 01 A5 08 02 00 10 03  fdi2............
07D0: 80 00 A5 08 2A 10 ED 00  10 01 52 15 80 F8 FF FF  ....*.....R.....
07E0: 7F F8 FF FF 7F 73 30 30  36 45 15 80 F8 FF FF 7F  .....s006E......
07F0: F8 FF FF 7F 73 30 33 34  01 80 03 00 17 16 80 27  ....s034.......'
0800: 10 ED 00 10 01 35 2B ED  00 10 01 46 80 23 2A 10  .....5+....F.#*.
0810: ED 00 10 01 52 15 80 F8  FF FF 7F F8 FF FF 7F 73  ....R..........s
0820: 30 33 34 45 15 80 F8 FF  FF 7F F8 FF FF 7F 73 30  034E..........s0
0830: 33 35 01 80 92 00 F0 FF  FF 7F 6C F0 FF FF 7F 28  35........l....(
0840: 80 03 80 03 00 17 16 80  27 10 ED 00 10 01 2D 2B  ........'.....-+
0850: ED 00 10 01 47 80 23 2A  10 ED 00 10 01 45 00 80  ....G.#*.....E..
0860: F0 FF FF 7F F0 FF FF 7F  66 64 6F 31 01 80 55 00  ........fdo1..U.
0870: 80 F0 FF FF 7F F0 FF FF  7F 66 64 6F 31 52 15 80  .........fdo1R..
0880: F8 FF FF 7F F8 FF FF 7F  73 30 33 35 46 00 45 00  ........s035F.E.
0890: 80 F0 FF FF 7F F0 FF FF  7F 66 64 69 32 01 80 06  .........fdi2...
08A0: 01 10 01 A5 08 21 00                              .....!.         
```

#### Opcodes

```
  0: 0x0001 [0x42] SET_CLI_EVENT_CANCEL_DATA()
  1: 0x0002 [0x45] LOAD_SCHEDULED_TASK: Load scheduler "fdo1" with entities [LocalPlayer, LocalPlayer], work=[200*, 0*]
  2: 0x0013 [0x55] WAIT_LOAD_SCHEDULER: Wait for scheduler "fdo1" with entities [LocalPlayer, LocalPlayer], work=200*
  3: 0x0022 [0x46] CAMERA_CONTROL: Disable user control
  4: 0x0024 [0x38] SET_CLIENT_EVENT_MODE(mode=19*)
  5: 0x0027 [0x02] IF !(Work_Zone[9] == 1*) GOTO 0x0035
  6: 0x002F [0x75] LOAD_ROOM(Load indoor room, room=587*)
  7: 0x0033 [0x75] LOAD_ROOM(No action)
  8: 0x0035 [0x37] UPDATE_EVENT_POSITION_AND_DIR: x=95.000*, z=-75.175*, y=-2.000*, direction=0.0°*
  9: 0x003E [0x2F] Amchuchu (ID: 17826029/0x011000ED)->Render.Flags0 &= ~0x80000 // Bit 19
 10: 0x0044 [0x4E] SET_ENTITY_HIDE_FLAG: Show Amchuchu (ID: 17826029/0x011000ED)
 11: 0x004A [0xBA] SET_ENTITY_POSITION(entity_id=Amchuchu (ID: 17826029/0x011000ED), pos_x=93.700*, pos_z=-73.900*, pos_y=-0.651*, direction=90.0°*)
 12: 0x0057 [0x02] IF !(Work_Zone[2] == 1*) GOTO 0x006F
 13: 0x005F [0xBA] SET_ENTITY_POSITION(entity_id=LocalPlayer, pos_x=95.000*, pos_z=-75.175*, pos_y=-0.651*, direction=225.0°*)
 14: 0x006C [0x01] GOTO 0x007C
 15: 0x006F [0xBA] SET_ENTITY_POSITION(entity_id=LocalPlayer, pos_x=98.900*, pos_z=-79.265*, pos_y=-0.651*, direction=225.0°*)

SUBROUTINE_007C:
 16: 0x007C [0x80] LOAD_WAIT(entity=Amchuchu (ID: 17826029/0x011000ED))
 17: 0x0081 [0x80] LOAD_WAIT(entity=LocalPlayer)
 18: 0x0086 [0x94] Amchuchu (ID: 17826029/0x011000ED)->Render.Flags3 ^= 0x01
 19: 0x008C [0x94] LocalPlayer->Render.Flags3 ^= 0x01
 20: 0x0092 [0x02] IF !(Work_Zone[2] == 0*) GOTO 0x00D6
 21: 0x009A [0xBA] SET_ENTITY_POSITION(entity_id=Chanteillie (ID: 17826061/0x0110010D), pos_x=89.343*, pos_z=-75.030*, pos_y=-0.651*, direction=45.0°*)
 22: 0x00A7 [0xBA] SET_ENTITY_POSITION(entity_id=Civil Registrar (ID: 17825854/0x0110003E), pos_x=91.157*, pos_z=-78.414*, pos_y=-0.651*, direction=90.0°*)
 23: 0x00B4 [0x80] LOAD_WAIT(entity=Chanteillie (ID: 17826061/0x0110010D))
 24: 0x00B9 [0x80] LOAD_WAIT(entity=Civil Registrar (ID: 17825854/0x0110003E))
 25: 0x00BE [0x94] Chanteillie (ID: 17826061/0x0110010D)->Render.Flags3 ^= 0x01
 26: 0x00C4 [0x94] Civil Registrar (ID: 17825854/0x0110003E)->Render.Flags3 ^= 0x01
 27: 0x00CA [0x92] Chanteillie (ID: 17826061/0x0110010D)->Render.Flags3 ^= 0x01
 28: 0x00D0 [0x92] Civil Registrar (ID: 17825854/0x0110003E)->Render.Flags3 ^= 0x01
 29: 0x00D6 [0x02] IF !(Work_Zone[2] == 1*) GOTO 0x0184
 30: 0x00DE [0x1C] WAIT(30* ticks)
 31: 0x00E1 [0x45] LOAD_SCHEDULED_TASK: Load scheduler "fdi1" with entities [LocalPlayer, LocalPlayer], work=[200*, 0*]
 32: 0x00F2 [0x45] LOAD_SCHEDULED_TASK: Load scheduler "s002" with entities [EventEntity, EventEntity], work=[636*, 0*]
 33: 0x0103 [0x4A] Amchuchu (ID: 17826029/0x011000ED) looks at LocalPlayer
 34: 0x010C [0x4A] LocalPlayer looks at Amchuchu (ID: 17826029/0x011000ED)
 35: 0x0115 [0x6F] WAIT_FRAME_DELAY: Yield until WaitTime reaches zero
 36: 0x0116 [0x76] CHECK_ENTITY_RENDER_FLAGS: Wait until Amchuchu (ID: 17826029/0x011000ED) Render.Flags0 and Render.Flags3 conditions are met
 37: 0x011B [0x6F] WAIT_FRAME_DELAY: Yield until WaitTime reaches zero
 38: 0x011C [0x76] CHECK_ENTITY_RENDER_FLAGS: Wait until LocalPlayer Render.Flags0 and Render.Flags3 conditions are met
 39: 0x0121 [0x03] Work_Zone_1700[0] = 60*
 40: 0x0126 [0x27] REQ_SET(priority=0x10, entity_id=Amchuchu (ID: 17826029/0x011000ED), tag_num=0x2C)
 41: 0x012D [0x2B] Amchuchu (ID: 17826029/0x011000ED) [10763*]:
    → "I know why you're back! It's to help me with my little-wittle "issue"!"
 42: 0x0134 [0x23] WAIT_FOR_DIALOG_INTERACTION
 43: 0x0135 [0x2A] GET_REQ_LEVEL(level=16, entity_id=Amchuchu (ID: 17826029/0x011000ED))
 44: 0x013B [0x52] END_LOAD_SCHEDULER: End scheduler "s002" with entities [EventEntity, EventEntity], work=636*
 45: 0x014A [0x45] LOAD_SCHEDULED_TASK: Load scheduler "s006" with entities [EventEntity, EventEntity], work=[636*, 0*]
 46: 0x015B [0x92] LocalPlayer->Render.Flags3 ^= 0x01
 47: 0x0161 [0x6C] FADE_ENTITY_COLOR(entity_id=LocalPlayer, end_alpha=0*, fade_time=5*)
 48: 0x016A [0x03] Work_Zone_1700[0] = 60*
 49: 0x016F [0x27] REQ_SET(priority=0x10, entity_id=Amchuchu (ID: 17826029/0x011000ED), tag_num=0x2D)
 50: 0x0176 [0x2B] Amchuchu (ID: 17826029/0x011000ED) [10764*]:
    → "I can tell by that look in your eyes. You will head to the Sih Gates and look for Junior, won't you?"
 51: 0x017D [0x23] WAIT_FOR_DIALOG_INTERACTION
 52: 0x017E [0x01] GOTO 0x06E5

SUBROUTINE_01FC:
 53: 0x01FC [0x2B] Amchuchu (ID: 17826029/0x011000ED) [10728*]:
    → "What's taking them so longy-wong?"
 54: 0x0203 [0x23] WAIT_FOR_DIALOG_INTERACTION
 55: 0x0204 [0x52] END_LOAD_SCHEDULER: End scheduler "s000" with entities [EventEntity, EventEntity], work=636*
 56: 0x0213 [0x45] LOAD_SCHEDULED_TASK: Load scheduler "s001" with entities [EventEntity, EventEntity], work=[636*, 0*]
 57: 0x0224 [0x27] REQ_SET(priority=0x10, entity_id=LocalPlayer, tag_num=0x52)
 58: 0x022B [0x1C] WAIT(160* ticks)
 59: 0x022E [0x52] END_LOAD_SCHEDULER: End scheduler "s001" with entities [EventEntity, EventEntity], work=636*
 60: 0x023D [0x45] LOAD_SCHEDULED_TASK: Load scheduler "s002" with entities [EventEntity, EventEntity], work=[636*, 0*]
 61: 0x024E [0x2A] GET_REQ_LEVEL(level=16, entity_id=LocalPlayer)
 62: 0x0254 [0x1C] WAIT(30* ticks)
 63: 0x0257 [0x66] LOAD_EXT_SCHEDULER_MAIN: Load scheduler "thk2" with entities [Amchuchu (ID: 17826029/0x011000ED), Amchuchu (ID: 17826029/0x011000ED)], work=40*
 64: 0x0266 [0x4A] Amchuchu (ID: 17826029/0x011000ED) looks at LocalPlayer
 65: 0x026F [0x4A] LocalPlayer looks at Amchuchu (ID: 17826029/0x011000ED)
 66: 0x0278 [0x6F] WAIT_FRAME_DELAY: Yield until WaitTime reaches zero
 67: 0x0279 [0x76] CHECK_ENTITY_RENDER_FLAGS: Wait until Amchuchu (ID: 17826029/0x011000ED) Render.Flags0 and Render.Flags3 conditions are met
 68: 0x027E [0x6F] WAIT_FRAME_DELAY: Yield until WaitTime reaches zero
 69: 0x027F [0x76] CHECK_ENTITY_RENDER_FLAGS: Wait until LocalPlayer Render.Flags0 and Render.Flags3 conditions are met
 70: 0x0284 [0x03] Work_Zone_1700[0] = 60*
 71: 0x0289 [0x27] REQ_SET(priority=0x10, entity_id=Amchuchu (ID: 17826029/0x011000ED), tag_num=0x2B)
 72: 0x0290 [0x2B] Amchuchu (ID: 17826029/0x011000ED) [10729*]:
    → "Well, well, a visitaru! On behalf of the Inventors' Coalition, welcome!"
 73: 0x0297 [0x23] WAIT_FOR_DIALOG_INTERACTION
 74: 0x0298 [0x2A] GET_REQ_LEVEL(level=16, entity_id=Amchuchu (ID: 17826029/0x011000ED))
 75: 0x029E [0x03] Work_Zone_1700[0] = 120*
 76: 0x02A3 [0x27] REQ_SET(priority=0x10, entity_id=Amchuchu (ID: 17826029/0x011000ED), tag_num=0x2E)
 77: 0x02AA [0x52] END_LOAD_SCHEDULER: End scheduler "s002" with entities [EventEntity, EventEntity], work=636*
 78: 0x02B9 [0x45] LOAD_SCHEDULED_TASK: Load scheduler "s052" with entities [EventEntity, EventEntity], work=[636*, 0*]
 79: 0x02CA [0x92] LocalPlayer->Render.Flags3 ^= 0x01
 80: 0x02D0 [0x6C] FADE_ENTITY_COLOR(entity_id=LocalPlayer, end_alpha=0*, fade_time=5*)
 81: 0x02D9 [0x2B] Amchuchu (ID: 17826029/0x011000ED) [10730*]:
    → "Our coalition's bestaru minds are always at work to make life in Adoulin more fulfilling and convenient!"
 82: 0x02E0 [0x23] WAIT_FOR_DIALOG_INTERACTION
 83: 0x02E1 [0x2A] GET_REQ_LEVEL(level=16, entity_id=Amchuchu (ID: 17826029/0x011000ED))
 84: 0x02E7 [0x4A] Amchuchu (ID: 17826029/0x011000ED) looks at EventEntity
 85: 0x02F0 [0x81] SET_ENTITY_BLINKING(blink_flag=0x00, entity=Amchuchu (ID: 17826029/0x011000ED))
 86: 0x02F6 [0x03] Work_Zone_1700[0] = 60*
 87: 0x02FB [0x27] REQ_SET(priority=0x10, entity_id=Amchuchu (ID: 17826029/0x011000ED), tag_num=0x2F)
 88: 0x0302 [0x52] END_LOAD_SCHEDULER: End scheduler "s052" with entities [EventEntity, EventEntity], work=636*
 89: 0x0311 [0x45] LOAD_SCHEDULED_TASK: Load scheduler "s004" with entities [EventEntity, EventEntity], work=[636*, 0*]
 90: 0x0322 [0x2B] Amchuchu (ID: 17826029/0x011000ED) [10731*]:
    → "Poignantaruly wonderful, just like our motto!"
 91: 0x0329 [0x23] WAIT_FOR_DIALOG_INTERACTION
 92: 0x032A [0x2A] GET_REQ_LEVEL(level=16, entity_id=Amchuchu (ID: 17826029/0x011000ED))
 93: 0x0330 [0x52] END_LOAD_SCHEDULER: End scheduler "s004" with entities [EventEntity, EventEntity], work=636*
 94: 0x033F [0x45] LOAD_SCHEDULED_TASK: Load scheduler "s005" with entities [EventEntity, EventEntity], work=[636*, 0*]
 95: 0x0350 [0x03] Work_Zone_1700[0] = 60*
 96: 0x0355 [0x27] REQ_SET(priority=0x10, entity_id=Amchuchu (ID: 17826029/0x011000ED), tag_num=0x2F)
 97: 0x035C [0x2B] Amchuchu (ID: 17826029/0x011000ED) [10732*]:
    → ""Bringing our ingenuity to your frontaru door!""
 98: 0x0363 [0x23] WAIT_FOR_DIALOG_INTERACTION
 99: 0x0364 [0x2A] GET_REQ_LEVEL(level=16, entity_id=Amchuchu (ID: 17826029/0x011000ED))
100: 0x036A [0x81] SET_ENTITY_BLINKING(blink_flag=0x01, entity=Amchuchu (ID: 17826029/0x011000ED))
101: 0x0370 [0x52] END_LOAD_SCHEDULER: End scheduler "s005" with entities [EventEntity, EventEntity], work=636*
102: 0x037F [0x45] LOAD_SCHEDULED_TASK: Load scheduler "s006" with entities [EventEntity, EventEntity], work=[636*, 0*]
103: 0x0390 [0x4A] Amchuchu (ID: 17826029/0x011000ED) looks at LocalPlayer
104: 0x0399 [0x03] Work_Zone_1700[0] = 180*
105: 0x039E [0x27] REQ_SET(priority=0x10, entity_id=Amchuchu (ID: 17826029/0x011000ED), tag_num=0x30)
106: 0x03A5 [0x2B] Amchuchu (ID: 17826029/0x011000ED) [10733*]:
    → "You betcha! Research and developmentaru are our bread and butter."
107: 0x03AC [0x23] WAIT_FOR_DIALOG_INTERACTION
108: 0x03AD [0x2A] GET_REQ_LEVEL(level=16, entity_id=Amchuchu (ID: 17826029/0x011000ED))
109: 0x03B3 [0x79] Amchuchu (ID: 17826029/0x011000ED) looks at LocalPlayer (Basic look)
110: 0x03BD [0x03] Work_Zone_1700[0] = 60*
111: 0x03C2 [0x27] REQ_SET(priority=0x10, entity_id=Amchuchu (ID: 17826029/0x011000ED), tag_num=0x2B)
112: 0x03C9 [0x2B] Amchuchu (ID: 17826029/0x011000ED) [10734*]:
    → "And with the explanation out of the way, let's get down to the self-introduction-wuction. I'm Amchuchu and, well, I keep this place running."
113: 0x03D0 [0x23] WAIT_FOR_DIALOG_INTERACTION
114: 0x03D1 [0x2A] GET_REQ_LEVEL(level=16, entity_id=Amchuchu (ID: 17826029/0x011000ED))
115: 0x03D7 [0x52] END_LOAD_SCHEDULER: End scheduler "s006" with entities [EventEntity, EventEntity], work=636*
116: 0x03E6 [0x02] IF !(Work_Zone[3] == 0*) GOTO 0x048C
117: 0x03EE [0x92] LocalPlayer->Render.Flags3 = Flags3  // No change (flag=0)
118: 0x03F4 [0x6C] FADE_ENTITY_COLOR(entity_id=LocalPlayer, end_alpha=128*, fade_time=1*)
119: 0x03FD [0x45] LOAD_SCHEDULED_TASK: Load scheduler "s031" with entities [EventEntity, EventEntity], work=[636*, 0*]
120: 0x040E [0x03] Work_Zone_1700[0] = 60*
121: 0x0413 [0x27] REQ_SET(priority=0x10, entity_id=Amchuchu (ID: 17826029/0x011000ED), tag_num=0x2C)
122: 0x041A [0x2B] Amchuchu (ID: 17826029/0x011000ED) [10739*]:
    → "Oh, of course. One of those adventarus from the Middle Lands, right?"
123: 0x0421 [0x23] WAIT_FOR_DIALOG_INTERACTION
124: 0x0422 [0x2B] Amchuchu (ID: 17826029/0x011000ED) [10740*]:
    → "And your name is...<Player>."
125: 0x0429 [0x23] WAIT_FOR_DIALOG_INTERACTION
126: 0x042A [0x2A] GET_REQ_LEVEL(level=16, entity_id=Amchuchu (ID: 17826029/0x011000ED))
127: 0x0430 [0x03] Work_Zone_1700[0] = 60*
128: 0x0435 [0x27] REQ_SET(priority=0x10, entity_id=Amchuchu (ID: 17826029/0x011000ED), tag_num=0x2D)
129: 0x043C [0x2B] Amchuchu (ID: 17826029/0x011000ED) [10741*]:
    → "<Player>. Got it!"
130: 0x0443 [0x23] WAIT_FOR_DIALOG_INTERACTION
131: 0x0444 [0x2A] GET_REQ_LEVEL(level=16, entity_id=Amchuchu (ID: 17826029/0x011000ED))
132: 0x044A [0x52] END_LOAD_SCHEDULER: End scheduler "s031" with entities [EventEntity, EventEntity], work=636*
133: 0x0459 [0x45] LOAD_SCHEDULED_TASK: Load scheduler "s032" with entities [EventEntity, EventEntity], work=[636*, 0*]
134: 0x046A [0x7B] Amchuchu (ID: 17826029/0x011000ED) stops talking
135: 0x046F [0x81] SET_ENTITY_BLINKING(blink_flag=0x00, entity=Amchuchu (ID: 17826029/0x011000ED))
136: 0x0475 [0x03] Work_Zone_1700[0] = 90*
137: 0x047A [0x27] REQ_SET(priority=0x10, entity_id=Amchuchu (ID: 17826029/0x011000ED), tag_num=0x31)
138: 0x0481 [0x2B] Amchuchu (ID: 17826029/0x011000ED) [10742*]:
    → "So, <Player>, you're from the same place as our little-wittle Junior!"
139: 0x0488 [0x23] WAIT_FOR_DIALOG_INTERACTION
140: 0x0489 [0x01] GOTO 0x0539
141: 0x048C [0x92] LocalPlayer->Render.Flags3 = Flags3  // No change (flag=0)
142: 0x0492 [0x6C] FADE_ENTITY_COLOR(entity_id=LocalPlayer, end_alpha=128*, fade_time=1*)
143: 0x049B [0x45] LOAD_SCHEDULED_TASK: Load scheduler "s031" with entities [EventEntity, EventEntity], work=[636*, 0*]
144: 0x04AC [0x03] Work_Zone_1700[0] = 60*
145: 0x04B1 [0x27] REQ_SET(priority=0x10, entity_id=Amchuchu (ID: 17826029/0x011000ED), tag_num=0x2C)
146: 0x04B8 [0x2B] Amchuchu (ID: 17826029/0x011000ED) [10735*]:
    → "Wait...<Player>? It's you, yes?"
147: 0x04BF [0x23] WAIT_FOR_DIALOG_INTERACTION
148: 0x04C0 [0x2A] GET_REQ_LEVEL(level=16, entity_id=Amchuchu (ID: 17826029/0x011000ED))
149: 0x04C6 [0x03] Work_Zone_1700[0] = 60*
150: 0x04CB [0x27] REQ_SET(priority=0x10, entity_id=Amchuchu (ID: 17826029/0x011000ED), tag_num=0x2D)
151: 0x04D2 [0x2B] Amchuchu (ID: 17826029/0x011000ED) [10736*]:
    → "You have business with the coalition? Oh, that's rightaru--I suppose a pioneer would be in need of our services."
152: 0x04D9 [0x23] WAIT_FOR_DIALOG_INTERACTION
153: 0x04DA [0x2A] GET_REQ_LEVEL(level=16, entity_id=Amchuchu (ID: 17826029/0x011000ED))
154: 0x04E0 [0x03] Work_Zone_1700[0] = 60*
155: 0x04E5 [0x27] REQ_SET(priority=0x10, entity_id=Amchuchu (ID: 17826029/0x011000ED), tag_num=0x2C)
156: 0x04EC [0x2B] Amchuchu (ID: 17826029/0x011000ED) [10737*]:
    → "If my memory-wemory is correct, you came from the Middle Lands."
157: 0x04F3 [0x23] WAIT_FOR_DIALOG_INTERACTION
158: 0x04F4 [0x2A] GET_REQ_LEVEL(level=16, entity_id=Amchuchu (ID: 17826029/0x011000ED))
159: 0x04FA [0x52] END_LOAD_SCHEDULER: End scheduler "s031" with entities [EventEntity, EventEntity], work=636*
160: 0x0509 [0x45] LOAD_SCHEDULED_TASK: Load scheduler "s032" with entities [EventEntity, EventEntity], work=[636*, 0*]
161: 0x051A [0x7B] Amchuchu (ID: 17826029/0x011000ED) stops talking
162: 0x051F [0x81] SET_ENTITY_BLINKING(blink_flag=0x00, entity=Amchuchu (ID: 17826029/0x011000ED))
163: 0x0525 [0x03] Work_Zone_1700[0] = 90*
164: 0x052A [0x27] REQ_SET(priority=0x10, entity_id=Amchuchu (ID: 17826029/0x011000ED), tag_num=0x31)
165: 0x0531 [0x2B] Amchuchu (ID: 17826029/0x011000ED) [10738*]:
    → "Toho! Then you're from the same place as our little-wittle Junior!"
166: 0x0538 [0x23] WAIT_FOR_DIALOG_INTERACTION

SUBROUTINE_0539:
167: 0x0539 [0x2B] Amchuchu (ID: 17826029/0x011000ED) [10743*]:
    → "No? You aren't? Hmm...well, Junior is a researcher, not an adventurer, so I must have my wires crossed...tohoho."
168: 0x0540 [0x23] WAIT_FOR_DIALOG_INTERACTION
169: 0x0541 [0x2A] GET_REQ_LEVEL(level=16, entity_id=Amchuchu (ID: 17826029/0x011000ED))
170: 0x0547 [0x81] SET_ENTITY_BLINKING(blink_flag=0x01, entity=Amchuchu (ID: 17826029/0x011000ED))
171: 0x054D [0x79] Amchuchu (ID: 17826029/0x011000ED) looks at LocalPlayer (Basic look)
172: 0x0557 [0x03] Work_Zone_1700[0] = 90*
173: 0x055C [0x27] REQ_SET(priority=0x10, entity_id=Amchuchu (ID: 17826029/0x011000ED), tag_num=0x32)
174: 0x0563 [0x2B] Amchuchu (ID: 17826029/0x011000ED) [10744*]:
    → "Now it all falls into place!"
175: 0x056A [0x23] WAIT_FOR_DIALOG_INTERACTION
176: 0x056B [0x2A] GET_REQ_LEVEL(level=16, entity_id=Amchuchu (ID: 17826029/0x011000ED))
177: 0x0571 [0x52] END_LOAD_SCHEDULER: End scheduler "s032" with entities [EventEntity, EventEntity], work=636*
178: 0x0580 [0x45] LOAD_SCHEDULED_TASK: Load scheduler "s007" with entities [EventEntity, EventEntity], work=[636*, 0*]
179: 0x0591 [0x03] Work_Zone_1700[0] = 60*
180: 0x0596 [0x27] REQ_SET(priority=0x10, entity_id=Amchuchu (ID: 17826029/0x011000ED), tag_num=0x2D)
181: 0x059D [0x2B] Amchuchu (ID: 17826029/0x011000ED) [10745*]:
    → "But honestly, if you're from the Middle Lands, then you mustaru have heard of him."
182: 0x05A4 [0x23] WAIT_FOR_DIALOG_INTERACTION
183: 0x05A5 [0x2B] Amchuchu (ID: 17826029/0x011000ED) [10746*]:
    → ""Who?" The talented technologistaru, Cid!"
184: 0x05AC [0x23] WAIT_FOR_DIALOG_INTERACTION
185: 0x05AD [0x2B] Amchuchu (ID: 17826029/0x011000ED) [10747*]:
    → "Junior is his son!"
186: 0x05B4 [0x23] WAIT_FOR_DIALOG_INTERACTION
187: 0x05B5 [0x2A] GET_REQ_LEVEL(level=16, entity_id=Amchuchu (ID: 17826029/0x011000ED))
188: 0x05BB [0x03] Work_Zone_1700[0] = 90*
189: 0x05C0 [0x27] REQ_SET(priority=0x10, entity_id=Amchuchu (ID: 17826029/0x011000ED), tag_num=0x33)
190: 0x05C7 [0x2B] Amchuchu (ID: 17826029/0x011000ED) [10748*]:
    → "That's why we gave him the epithetaru "Junior"!"
191: 0x05CE [0x23] WAIT_FOR_DIALOG_INTERACTION
192: 0x05CF [0x2A] GET_REQ_LEVEL(level=16, entity_id=Amchuchu (ID: 17826029/0x011000ED))
193: 0x05D5 [0x03] Work_Zone_1700[0] = 60*
194: 0x05DA [0x27] REQ_SET(priority=0x10, entity_id=Amchuchu (ID: 17826029/0x011000ED), tag_num=0x2D)
195: 0x05E1 [0x2B] Amchuchu (ID: 17826029/0x011000ED) [10749*]:
    → "His really-weal name is Midras, but doesn't it sound wrong to call him "Mid"? That's why we decided to use a different, delightfully silly name."
196: 0x05E8 [0x23] WAIT_FOR_DIALOG_INTERACTION
197: 0x05E9 [0x2A] GET_REQ_LEVEL(level=16, entity_id=Amchuchu (ID: 17826029/0x011000ED))
198: 0x05EF [0x52] END_LOAD_SCHEDULER: End scheduler "s007" with entities [EventEntity, EventEntity], work=636*
199: 0x05FE [0x45] LOAD_SCHEDULED_TASK: Load scheduler "s033" with entities [EventEntity, EventEntity], work=[636*, 0*]
200: 0x060F [0x03] Work_Zone_1700[0] = 60*
201: 0x0614 [0x27] REQ_SET(priority=0x10, entity_id=Amchuchu (ID: 17826029/0x011000ED), tag_num=0x2D)
202: 0x061B [0x2B] Amchuchu (ID: 17826029/0x011000ED) [10750*]:
    → "As long as we're talking about him, Junior and I are researching methods of increasing yields of vegetable-wegetables and other crops."
203: 0x0622 [0x23] WAIT_FOR_DIALOG_INTERACTION
204: 0x0623 [0x2B] Amchuchu (ID: 17826029/0x011000ED) [10751*]:
    → "We need highly potentaru fertilizer to do this, so I sent him to gather some materials."
205: 0x062A [0x23] WAIT_FOR_DIALOG_INTERACTION
206: 0x062B [0x2A] GET_REQ_LEVEL(level=16, entity_id=Amchuchu (ID: 17826029/0x011000ED))
207: 0x0631 [0x03] Work_Zone_1700[0] = 60*
208: 0x0636 [0x27] REQ_SET(priority=0x10, entity_id=Amchuchu (ID: 17826029/0x011000ED), tag_num=0x2C)
209: 0x063D [0x2B] Amchuchu (ID: 17826029/0x011000ED) [10752*]:
    → "The technical guide he broughtaru from the Middle Lands has sure come in handy! Something about a special rock, or mineral, or what-have-you."
210: 0x0644 [0x23] WAIT_FOR_DIALOG_INTERACTION
211: 0x0645 [0x2A] GET_REQ_LEVEL(level=16, entity_id=Amchuchu (ID: 17826029/0x011000ED))
212: 0x064B [0x03] Work_Zone_1700[0] = 60*
213: 0x0650 [0x27] REQ_SET(priority=0x10, entity_id=Amchuchu (ID: 17826029/0x011000ED), tag_num=0x2D)
214: 0x0657 [0x2B] Amchuchu (ID: 17826029/0x011000ED) [10753*]:
    → "So I sent him off to the Sih Gates to see whataru he can unearth."
215: 0x065E [0x23] WAIT_FOR_DIALOG_INTERACTION
216: 0x065F [0x2A] GET_REQ_LEVEL(level=16, entity_id=Amchuchu (ID: 17826029/0x011000ED))
217: 0x0665 [0x52] END_LOAD_SCHEDULER: End scheduler "s033" with entities [EventEntity, EventEntity], work=636*
218: 0x0674 [0x45] LOAD_SCHEDULED_TASK: Load scheduler "s006" with entities [EventEntity, EventEntity], work=[636*, 0*]
219: 0x0685 [0x92] LocalPlayer->Render.Flags3 ^= 0x01
220: 0x068B [0x6C] FADE_ENTITY_COLOR(entity_id=LocalPlayer, end_alpha=0*, fade_time=5*)
221: 0x0694 [0x7B] Amchuchu (ID: 17826029/0x011000ED) stops talking
222: 0x0699 [0x81] SET_ENTITY_BLINKING(blink_flag=0x00, entity=Amchuchu (ID: 17826029/0x011000ED))
223: 0x069F [0x03] Work_Zone_1700[0] = 90*
224: 0x06A4 [0x27] REQ_SET(priority=0x10, entity_id=Amchuchu (ID: 17826029/0x011000ED), tag_num=0x31)
225: 0x06AB [0x2B] Amchuchu (ID: 17826029/0x011000ED) [10754*]:
    → "But he hasn't come backy-wack yet. I wonder what he could be doing..."
226: 0x06B2 [0x23] WAIT_FOR_DIALOG_INTERACTION
227: 0x06B3 [0x2B] Amchuchu (ID: 17826029/0x011000ED) [10755*]:
    → "Yet I can't just up and leave the coalition. Things would fall apart quicker than one of the Couriers' Coalition's rickety cartarus!"
228: 0x06BA [0x23] WAIT_FOR_DIALOG_INTERACTION
229: 0x06BB [0x2A] GET_REQ_LEVEL(level=16, entity_id=Amchuchu (ID: 17826029/0x011000ED))
230: 0x06C1 [0x81] SET_ENTITY_BLINKING(blink_flag=0x01, entity=Amchuchu (ID: 17826029/0x011000ED))
231: 0x06C7 [0x79] Amchuchu (ID: 17826029/0x011000ED) looks at LocalPlayer (Basic look)
232: 0x06D1 [0x03] Work_Zone_1700[0] = 60*
233: 0x06D6 [0x27] REQ_SET(priority=0x10, entity_id=Amchuchu (ID: 17826029/0x011000ED), tag_num=0x2C)
234: 0x06DD [0x2B] Amchuchu (ID: 17826029/0x011000ED) [10756*]:
    → "Oh, hey! If you've got some free time, would you mind making a quicky-wick stop over there and checking up on Junior?"
235: 0x06E4 [0x23] WAIT_FOR_DIALOG_INTERACTION

SUBROUTINE_06E5:
236: 0x06E5 [0x66] LOAD_EXT_SCHEDULER_MAIN: Load scheduler "tlk1" with entities [Amchuchu (ID: 17826029/0x011000ED), Amchuchu (ID: 17826029/0x011000ED)], work=49*
237: 0x06F4 [0x24] CREATE_DIALOG(message_id=10757*, default_option=0*, option_flags=0*)
    → "Go find Junior? [I'm up for an adventure./No thanks.]"
238: 0x06FB [0x25] WAIT_DIALOG_SELECT()
239: 0x06FC [0x02] IF !(Work_Zone[0] == 0*) GOTO 0x07CC
240: 0x0704 [0x2A] GET_REQ_LEVEL(level=16, entity_id=Amchuchu (ID: 17826029/0x011000ED))
241: 0x070A [0x6E] Amchuchu (ID: 17826029/0x011000ED) uses emote 10*
242: 0x0711 [0x99] Wait for Amchuchu (ID: 17826029/0x011000ED) animation to complete
243: 0x0716 [0x2B] Amchuchu (ID: 17826029/0x011000ED) [10758*]:
    → "For real? Wow, you're a lifesaver-waver!"
244: 0x071D [0x23] WAIT_FOR_DIALOG_INTERACTION
245: 0x071E [0x1C] WAIT(60* ticks)
246: 0x0721 [0x52] END_LOAD_SCHEDULER: End scheduler "s006" with entities [EventEntity, EventEntity], work=636*
247: 0x0730 [0x45] LOAD_SCHEDULED_TASK: Load scheduler "s035" with entities [EventEntity, EventEntity], work=[636*, 0*]
248: 0x0741 [0x92] LocalPlayer->Render.Flags3 = Flags3  // No change (flag=0)
249: 0x0747 [0x6C] FADE_ENTITY_COLOR(entity_id=LocalPlayer, end_alpha=128*, fade_time=1*)
250: 0x0750 [0x03] Work_Zone_1700[0] = 60*
251: 0x0755 [0x27] REQ_SET(priority=0x10, entity_id=Amchuchu (ID: 17826029/0x011000ED), tag_num=0x2D)
252: 0x075C [0x2B] Amchuchu (ID: 17826029/0x011000ED) [10759*]:
    → "The Sih Gates are caverns connectarued to the Ceizak Battlegrounds."
253: 0x0763 [0x23] WAIT_FOR_DIALOG_INTERACTION
254: 0x0764 [0x2A] GET_REQ_LEVEL(level=16, entity_id=Amchuchu (ID: 17826029/0x011000ED))
255: 0x076A [0x03] Work_Zone_1700[0] = 60*
256: 0x076F [0x27] REQ_SET(priority=0x10, entity_id=Amchuchu (ID: 17826029/0x011000ED), tag_num=0x34)
257: 0x0776 [0x2B] Amchuchu (ID: 17826029/0x011000ED) [10760*]:
    → "Just, uh...come back safe. Junior has a good head on his shoulders, but the Sih Gates are no place to get careless-wareless."
258: 0x077D [0x23] WAIT_FOR_DIALOG_INTERACTION
259: 0x077E [0x2A] GET_REQ_LEVEL(level=16, entity_id=Amchuchu (ID: 17826029/0x011000ED))
260: 0x0784 [0x45] LOAD_SCHEDULED_TASK: Load scheduler "fdo1" with entities [LocalPlayer, LocalPlayer], work=[200*, 0*]
261: 0x0795 [0x55] WAIT_LOAD_SCHEDULER: Wait for scheduler "fdo1" with entities [LocalPlayer, LocalPlayer], work=200*
262: 0x07A4 [0x52] END_LOAD_SCHEDULER: End scheduler "s035" with entities [EventEntity, EventEntity], work=636*
263: 0x07B3 [0x46] CAMERA_CONTROL: Restore default settings
264: 0x07B5 [0x45] LOAD_SCHEDULED_TASK: Load scheduler "fdi2" with entities [LocalPlayer, LocalPlayer], work=[200*, 0*]
265: 0x07C6 [0x05] Work_Zone[1] = 1
266: 0x07C9 [0x01] GOTO 0x08A5
267: 0x07CC [0x02] IF !(Work_Zone[0] == 1*) GOTO 0x08A5
268: 0x07D4 [0x2A] GET_REQ_LEVEL(level=16, entity_id=Amchuchu (ID: 17826029/0x011000ED))
269: 0x07DA [0x52] END_LOAD_SCHEDULER: End scheduler "s006" with entities [EventEntity, EventEntity], work=636*
270: 0x07E9 [0x45] LOAD_SCHEDULED_TASK: Load scheduler "s034" with entities [EventEntity, EventEntity], work=[636*, 0*]
271: 0x07FA [0x03] Work_Zone_1700[0] = 60*
272: 0x07FF [0x27] REQ_SET(priority=0x10, entity_id=Amchuchu (ID: 17826029/0x011000ED), tag_num=0x35)
273: 0x0806 [0x2B] Amchuchu (ID: 17826029/0x011000ED) [10761*]:
    → "Wh-what? You refuse my simple requestaru?"
274: 0x080D [0x23] WAIT_FOR_DIALOG_INTERACTION
275: 0x080E [0x2A] GET_REQ_LEVEL(level=16, entity_id=Amchuchu (ID: 17826029/0x011000ED))
276: 0x0814 [0x52] END_LOAD_SCHEDULER: End scheduler "s034" with entities [EventEntity, EventEntity], work=636*
277: 0x0823 [0x45] LOAD_SCHEDULED_TASK: Load scheduler "s035" with entities [EventEntity, EventEntity], work=[636*, 0*]
278: 0x0834 [0x92] LocalPlayer->Render.Flags3 = Flags3  // No change (flag=0)
279: 0x083A [0x6C] FADE_ENTITY_COLOR(entity_id=LocalPlayer, end_alpha=128*, fade_time=1*)
280: 0x0843 [0x03] Work_Zone_1700[0] = 60*
281: 0x0848 [0x27] REQ_SET(priority=0x10, entity_id=Amchuchu (ID: 17826029/0x011000ED), tag_num=0x2D)
282: 0x084F [0x2B] Amchuchu (ID: 17826029/0x011000ED) [10762*]:
    → "Hmph, I knew you'd just let me down! Why did I even bother-wother to ask? Let's see how nice I am when you come crawling back!"
283: 0x0856 [0x23] WAIT_FOR_DIALOG_INTERACTION
284: 0x0857 [0x2A] GET_REQ_LEVEL(level=16, entity_id=Amchuchu (ID: 17826029/0x011000ED))
285: 0x085D [0x45] LOAD_SCHEDULED_TASK: Load scheduler "fdo1" with entities [LocalPlayer, LocalPlayer], work=[200*, 0*]
286: 0x086E [0x55] WAIT_LOAD_SCHEDULER: Wait for scheduler "fdo1" with entities [LocalPlayer, LocalPlayer], work=200*
287: 0x087D [0x52] END_LOAD_SCHEDULER: End scheduler "s035" with entities [EventEntity, EventEntity], work=636*
288: 0x088C [0x46] CAMERA_CONTROL: Restore default settings
289: 0x088E [0x45] LOAD_SCHEDULED_TASK: Load scheduler "fdi2" with entities [LocalPlayer, LocalPlayer], work=[200*, 0*]
290: 0x089F [0x06] Work_Zone[1] = 0
291: 0x08A2 [0x01] GOTO 0x08A5

SUBROUTINE_08A5:
292: 0x08A5 [0x21] END_EVENT
293: 0x08A6 [0x00] END_REQSTACK()
```

#### Data or dead code:

```
# Dead code (unreachable instructions):
     0x0181 [0x01] GOTO 0x01FC
```

### Event 5055

#### Metadata

| Field        | Value     |
|--------------|-----------|
| Entrypoint   | 0x08A7    |
| Data Size    | 866 bytes |
| Instructions | 116       |

```
      00 01 02 03 04 05 06 07  08 09 0A 0B 0C 0D 0E 0F
      -- -- -- -- -- -- -- --  -- -- -- -- -- -- -- --
08A0:                      42  45 00 80 F0 FF FF 7F F0         BE.......
08B0: FF FF 7F 66 64 6F 31 01  80 55 00 80 F0 FF FF 7F  ...fdo1..U......
08C0: F0 FF FF 7F 66 64 6F 31  46 01 38 02 80 02 09 10  ....fdo1F.8.....
08D0: 03 80 00 DB 08 75 00 04  80 75 01 2F 00 ED 00 10  .....u...u./....
08E0: 01 4E 00 ED 00 10 01 BA  ED 00 10 01 08 80 09 80  .N..............
08F0: 0A 80 0B 80 BA F0 FF FF  7F 05 80 06 80 0A 80 0C  ................
0900: 80 80 ED 00 10 01 80 F0  FF FF 7F 94 01 ED 00 10  ................
0910: 01 94 01 F0 FF FF 7F 1C  14 80 45 00 80 F0 FF FF  ..........E.....
0920: 7F F0 FF FF 7F 66 64 69  31 01 80 45 15 80 F8 FF  .....fdi1..E....
0930: FF 7F F8 FF FF 7F 73 30  30 32 01 80 4A ED 00 10  ......s002..J...
0940: 01 F0 FF FF 7F 4A F0 FF  FF 7F ED 00 10 01 6F 76  .....J........ov
0950: ED 00 10 01 6F 76 F0 FF  FF 7F 03 00 17 16 80 27  ....ov.........'
0960: 10 ED 00 10 01 2B 2B ED  00 10 01 48 80 23 2A 10  .....++....H.#*.
0970: ED 00 10 01 66 49 80 ED  00 10 01 ED 00 10 01 74  ....fI.........t
0980: 6C 6B 31 27 10 F0 FF FF  7F 53 1C 4A 80 03 02 10  lk1'.....S.J....
0990: 4B 80 48 4C 80 1C 16 80  52 15 80 F8 FF FF 7F F8  K.HL....R.......
09A0: FF FF 7F 73 30 30 32 45  15 80 F8 FF FF 7F F8 FF  ...s002E........
09B0: FF 7F 73 30 30 36 01 80  92 01 F0 FF FF 7F 6C F0  ..s006........l.
09C0: FF FF 7F 01 80 18 80 03  00 17 1C 80 27 10 ED 00  ............'...
09D0: 10 01 39 2B ED 00 10 01  4D 80 23 2A 10 ED 00 10  ..9+....M.#*....
09E0: 01 92 00 F0 FF FF 7F 6C  F0 FF FF 7F 28 80 03 80  .......l....(...
09F0: 52 15 80 F8 FF FF 7F F8  FF FF 7F 73 30 30 36 45  R..........s006E
0A00: 15 80 F8 FF FF 7F F8 FF  FF 7F 73 30 33 31 01 80  ..........s031..
0A10: 29 10 F0 FF FF 7F 02 03  03 10 2C 80 29 10 F0 FF  ).........,.)...
0A20: FF 7F 35 1C 42 80 03 00  17 16 80 27 10 ED 00 10  ..5.B......'....
0A30: 01 36 2B ED 00 10 01 4E  80 23 29 10 F0 FF FF 7F  .6+....N.#).....
0A40: 02 03 03 10 2C 80 29 10  F0 FF FF 7F 35 66 4F 80  ....,.).....5fO.
0A50: ED 00 10 01 ED 00 10 01  62 69 6B 31 1C 16 80 52  ........bik1...R
0A60: 15 80 F8 FF FF 7F F8 FF  FF 7F 73 30 33 31 45 15  ..........s031E.
0A70: 80 F8 FF FF 7F F8 FF FF  7F 73 30 30 36 01 80 92  .........s006...
0A80: 01 F0 FF FF 7F 6C F0 FF  FF 7F 01 80 18 80 03 00  .....l..........
0A90: 17 16 80 27 10 ED 00 10  01 37 2B ED 00 10 01 50  ...'.....7+....P
0AA0: 80 23 2A 10 ED 00 10 01  03 00 17 16 80 27 10 ED  .#*..........'..
0AB0: 00 10 01 2C 2B ED 00 10  01 51 80 23 2A 10 ED 00  ...,+....Q.#*...
0AC0: 10 01 03 00 17 16 80 27  10 ED 00 10 01 2B 2B ED  .......'.....++.
0AD0: 00 10 01 52 80 23 2A 10  ED 00 10 01 92 00 F0 FF  ...R.#*.........
0AE0: FF 7F 6C F0 FF FF 7F 28  80 03 80 52 15 80 F8 FF  ..l....(...R....
0AF0: FF 7F F8 FF FF 7F 73 30  30 36 45 15 80 F8 FF FF  ......s006E.....
0B00: 7F F8 FF FF 7F 73 30 33  36 01 80 1C 14 80 4A ED  .....s036.....J.
0B10: 00 10 01 F8 FF FF 7F 27  10 ED 00 10 01 3C 2A 10  .......'.....<*.
0B20: ED 00 10 01 52 15 80 F8  FF FF 7F F8 FF FF 7F 73  ....R..........s
0B30: 30 33 36 45 15 80 F8 FF  FF 7F F8 FF FF 7F 73 30  036E..........s0
0B40: 33 37 01 80 03 00 17 16  80 27 10 ED 00 10 01 36  37.......'.....6
0B50: 2B ED 00 10 01 53 80 23  2A 10 ED 00 10 01 4A ED  +....S.#*.....J.
0B60: 00 10 01 F0 FF FF 7F 27  10 ED 00 10 01 3D 1C 14  .......'.....=..
0B70: 80 52 15 80 F8 FF FF 7F  F8 FF FF 7F 73 30 33 37  .R..........s037
0B80: 45 15 80 F8 FF FF 7F F8  FF FF 7F 73 30 33 35 01  E..........s035.
0B90: 80 2A 10 ED 00 10 01 1C  14 80 03 00 17 16 80 27  .*.............'
0BA0: 10 ED 00 10 01 38 2B ED  00 10 01 54 80 23 2A 10  .....8+....T.#*.
0BB0: ED 00 10 01 45 00 80 F0  FF FF 7F F0 FF FF 7F 66  ....E..........f
0BC0: 64 6F 31 01 80 55 00 80  F0 FF FF 7F F0 FF FF 7F  do1..U..........
0BD0: 66 64 6F 31 52 15 80 F8  FF FF 7F F8 FF FF 7F 73  fdo1R..........s
0BE0: 30 33 35 46 00 45 00 80  F0 FF FF 7F F0 FF FF 7F  035F.E..........
0BF0: 66 64 69 32 01 80 45 55  80 F8 FF FF 7F F8 FF FF  fdi2..EU........
0C00: 7F 71 73 74 63 01 80 21  00                       .qstc..!.       
```

#### Opcodes

```
  0: 0x08A7 [0x42] SET_CLI_EVENT_CANCEL_DATA()
  1: 0x08A8 [0x45] LOAD_SCHEDULED_TASK: Load scheduler "fdo1" with entities [LocalPlayer, LocalPlayer], work=[200*, 0*]
  2: 0x08B9 [0x55] WAIT_LOAD_SCHEDULER: Wait for scheduler "fdo1" with entities [LocalPlayer, LocalPlayer], work=200*
  3: 0x08C8 [0x46] CAMERA_CONTROL: Disable user control
  4: 0x08CA [0x38] SET_CLIENT_EVENT_MODE(mode=19*)
  5: 0x08CD [0x02] IF !(Work_Zone[9] == 1*) GOTO 0x08DB
  6: 0x08D5 [0x75] LOAD_ROOM(Load indoor room, room=587*)
  7: 0x08D9 [0x75] LOAD_ROOM(No action)
  8: 0x08DB [0x2F] Amchuchu (ID: 17826029/0x011000ED)->Render.Flags0 &= ~0x80000 // Bit 19
  9: 0x08E1 [0x4E] SET_ENTITY_HIDE_FLAG: Show Amchuchu (ID: 17826029/0x011000ED)
 10: 0x08E7 [0xBA] SET_ENTITY_POSITION(entity_id=Amchuchu (ID: 17826029/0x011000ED), pos_x=93.700*, pos_z=-73.900*, pos_y=-0.651*, direction=90.0°*)
 11: 0x08F4 [0xBA] SET_ENTITY_POSITION(entity_id=LocalPlayer, pos_x=95.000*, pos_z=-75.175*, pos_y=-0.651*, direction=225.0°*)
 12: 0x0901 [0x80] LOAD_WAIT(entity=Amchuchu (ID: 17826029/0x011000ED))
 13: 0x0906 [0x80] LOAD_WAIT(entity=LocalPlayer)
 14: 0x090B [0x94] Amchuchu (ID: 17826029/0x011000ED)->Render.Flags3 ^= 0x01
 15: 0x0911 [0x94] LocalPlayer->Render.Flags3 ^= 0x01
 16: 0x0917 [0x1C] WAIT(30* ticks)
 17: 0x091A [0x45] LOAD_SCHEDULED_TASK: Load scheduler "fdi1" with entities [LocalPlayer, LocalPlayer], work=[200*, 0*]
 18: 0x092B [0x45] LOAD_SCHEDULED_TASK: Load scheduler "s002" with entities [EventEntity, EventEntity], work=[636*, 0*]
 19: 0x093C [0x4A] Amchuchu (ID: 17826029/0x011000ED) looks at LocalPlayer
 20: 0x0945 [0x4A] LocalPlayer looks at Amchuchu (ID: 17826029/0x011000ED)
 21: 0x094E [0x6F] WAIT_FRAME_DELAY: Yield until WaitTime reaches zero
 22: 0x094F [0x76] CHECK_ENTITY_RENDER_FLAGS: Wait until Amchuchu (ID: 17826029/0x011000ED) Render.Flags0 and Render.Flags3 conditions are met
 23: 0x0954 [0x6F] WAIT_FRAME_DELAY: Yield until WaitTime reaches zero
 24: 0x0955 [0x76] CHECK_ENTITY_RENDER_FLAGS: Wait until LocalPlayer Render.Flags0 and Render.Flags3 conditions are met
 25: 0x095A [0x03] Work_Zone_1700[0] = 60*
 26: 0x095F [0x27] REQ_SET(priority=0x10, entity_id=Amchuchu (ID: 17826029/0x011000ED), tag_num=0x2B)
 27: 0x0966 [0x2B] Amchuchu (ID: 17826029/0x011000ED) [10766*]:
    → "You made it back! Well? How is he?"
 28: 0x096D [0x23] WAIT_FOR_DIALOG_INTERACTION
 29: 0x096E [0x2A] GET_REQ_LEVEL(level=16, entity_id=Amchuchu (ID: 17826029/0x011000ED))
 30: 0x0974 [0x66] LOAD_EXT_SCHEDULER_MAIN: Load scheduler "tlk1" with entities [Amchuchu (ID: 17826029/0x011000ED), Amchuchu (ID: 17826029/0x011000ED)], work=189*
 31: 0x0983 [0x27] REQ_SET(priority=0x10, entity_id=LocalPlayer, tag_num=0x53)
 32: 0x098A [0x1C] WAIT(150* ticks)
 33: 0x098D [0x03] Work_Zone[2] = 2272*
 34: 0x0992 [0x48] [System] [10767*]:
    → "You hand over the $3."
 35: 0x0995 [0x1C] WAIT(60* ticks)
 36: 0x0998 [0x52] END_LOAD_SCHEDULER: End scheduler "s002" with entities [EventEntity, EventEntity], work=636*
 37: 0x09A7 [0x45] LOAD_SCHEDULED_TASK: Load scheduler "s006" with entities [EventEntity, EventEntity], work=[636*, 0*]
 38: 0x09B8 [0x92] LocalPlayer->Render.Flags3 ^= 0x01
 39: 0x09BE [0x6C] FADE_ENTITY_COLOR(entity_id=LocalPlayer, end_alpha=0*, fade_time=5*)
 40: 0x09C7 [0x03] Work_Zone_1700[0] = 120*
 41: 0x09CC [0x27] REQ_SET(priority=0x10, entity_id=Amchuchu (ID: 17826029/0x011000ED), tag_num=0x39)
 42: 0x09D3 [0x2B] Amchuchu (ID: 17826029/0x011000ED) [10768*]:
    → "This is that rocky-wock we were looking for! Fantastic!"
 43: 0x09DA [0x23] WAIT_FOR_DIALOG_INTERACTION
 44: 0x09DB [0x2A] GET_REQ_LEVEL(level=16, entity_id=Amchuchu (ID: 17826029/0x011000ED))
 45: 0x09E1 [0x92] LocalPlayer->Render.Flags3 = Flags3  // No change (flag=0)
 46: 0x09E7 [0x6C] FADE_ENTITY_COLOR(entity_id=LocalPlayer, end_alpha=128*, fade_time=1*)
 47: 0x09F0 [0x52] END_LOAD_SCHEDULER: End scheduler "s006" with entities [EventEntity, EventEntity], work=636*
 48: 0x09FF [0x45] LOAD_SCHEDULED_TASK: Load scheduler "s031" with entities [EventEntity, EventEntity], work=[636*, 0*]
 49: 0x0A10 [0x29] REQ_SET_WAIT(priority=0x10, entity_id=LocalPlayer, tag_num=0x02)
 50: 0x0A17 [0x03] Work_Zone[3] = 90*
 51: 0x0A1C [0x29] REQ_SET_WAIT(priority=0x10, entity_id=LocalPlayer, tag_num=0x35)
 52: 0x0A23 [0x1C] WAIT(10* ticks)
 53: 0x0A26 [0x03] Work_Zone_1700[0] = 60*
 54: 0x0A2B [0x27] REQ_SET(priority=0x10, entity_id=Amchuchu (ID: 17826029/0x011000ED), tag_num=0x36)
 55: 0x0A32 [0x2B] Amchuchu (ID: 17826029/0x011000ED) [10769*]:
    → "You metaru with Cid, too!?"
 56: 0x0A39 [0x23] WAIT_FOR_DIALOG_INTERACTION
 57: 0x0A3A [0x29] REQ_SET_WAIT(priority=0x10, entity_id=LocalPlayer, tag_num=0x02)
 58: 0x0A41 [0x03] Work_Zone[3] = 90*
 59: 0x0A46 [0x29] REQ_SET_WAIT(priority=0x10, entity_id=LocalPlayer, tag_num=0x35)
 60: 0x0A4D [0x66] LOAD_EXT_SCHEDULER_MAIN: Load scheduler "bik1" with entities [Amchuchu (ID: 17826029/0x011000ED), Amchuchu (ID: 17826029/0x011000ED)], work=42*
 61: 0x0A5C [0x1C] WAIT(60* ticks)
 62: 0x0A5F [0x52] END_LOAD_SCHEDULER: End scheduler "s031" with entities [EventEntity, EventEntity], work=636*
 63: 0x0A6E [0x45] LOAD_SCHEDULED_TASK: Load scheduler "s006" with entities [EventEntity, EventEntity], work=[636*, 0*]
 64: 0x0A7F [0x92] LocalPlayer->Render.Flags3 ^= 0x01
 65: 0x0A85 [0x6C] FADE_ENTITY_COLOR(entity_id=LocalPlayer, end_alpha=0*, fade_time=5*)
 66: 0x0A8E [0x03] Work_Zone_1700[0] = 60*
 67: 0x0A93 [0x27] REQ_SET(priority=0x10, entity_id=Amchuchu (ID: 17826029/0x011000ED), tag_num=0x37)
 68: 0x0A9A [0x2B] Amchuchu (ID: 17826029/0x011000ED) [10770*]:
    → "...I see. Well, if that's how things are..."
 69: 0x0AA1 [0x23] WAIT_FOR_DIALOG_INTERACTION
 70: 0x0AA2 [0x2A] GET_REQ_LEVEL(level=16, entity_id=Amchuchu (ID: 17826029/0x011000ED))
 71: 0x0AA8 [0x03] Work_Zone_1700[0] = 60*
 72: 0x0AAD [0x27] REQ_SET(priority=0x10, entity_id=Amchuchu (ID: 17826029/0x011000ED), tag_num=0x2C)
 73: 0x0AB4 [0x2B] Amchuchu (ID: 17826029/0x011000ED) [10771*]:
    → "Junior will stay behind and continue his analysis, I takey-wake it?"
 74: 0x0ABB [0x23] WAIT_FOR_DIALOG_INTERACTION
 75: 0x0ABC [0x2A] GET_REQ_LEVEL(level=16, entity_id=Amchuchu (ID: 17826029/0x011000ED))
 76: 0x0AC2 [0x03] Work_Zone_1700[0] = 60*
 77: 0x0AC7 [0x27] REQ_SET(priority=0x10, entity_id=Amchuchu (ID: 17826029/0x011000ED), tag_num=0x2B)
 78: 0x0ACE [0x2B] Amchuchu (ID: 17826029/0x011000ED) [10772*]:
    → "All that's leftaru is for me to analyze the lovely sample you've brought back."
 79: 0x0AD5 [0x23] WAIT_FOR_DIALOG_INTERACTION
 80: 0x0AD6 [0x2A] GET_REQ_LEVEL(level=16, entity_id=Amchuchu (ID: 17826029/0x011000ED))
 81: 0x0ADC [0x92] LocalPlayer->Render.Flags3 = Flags3  // No change (flag=0)
 82: 0x0AE2 [0x6C] FADE_ENTITY_COLOR(entity_id=LocalPlayer, end_alpha=128*, fade_time=1*)
 83: 0x0AEB [0x52] END_LOAD_SCHEDULER: End scheduler "s006" with entities [EventEntity, EventEntity], work=636*
 84: 0x0AFA [0x45] LOAD_SCHEDULED_TASK: Load scheduler "s036" with entities [EventEntity, EventEntity], work=[636*, 0*]
 85: 0x0B0B [0x1C] WAIT(30* ticks)
 86: 0x0B0E [0x4A] Amchuchu (ID: 17826029/0x011000ED) looks at EventEntity
 87: 0x0B17 [0x27] REQ_SET(priority=0x10, entity_id=Amchuchu (ID: 17826029/0x011000ED), tag_num=0x3C)
 88: 0x0B1E [0x2A] GET_REQ_LEVEL(level=16, entity_id=Amchuchu (ID: 17826029/0x011000ED))
 89: 0x0B24 [0x52] END_LOAD_SCHEDULER: End scheduler "s036" with entities [EventEntity, EventEntity], work=636*
 90: 0x0B33 [0x45] LOAD_SCHEDULED_TASK: Load scheduler "s037" with entities [EventEntity, EventEntity], work=[636*, 0*]
 91: 0x0B44 [0x03] Work_Zone_1700[0] = 60*
 92: 0x0B49 [0x27] REQ_SET(priority=0x10, entity_id=Amchuchu (ID: 17826029/0x011000ED), tag_num=0x36)
 93: 0x0B50 [0x2B] Amchuchu (ID: 17826029/0x011000ED) [10773*]:
    → "Oh, goodness! I've completely forgotten to expressy-wess my appreciation!"
 94: 0x0B57 [0x23] WAIT_FOR_DIALOG_INTERACTION
 95: 0x0B58 [0x2A] GET_REQ_LEVEL(level=16, entity_id=Amchuchu (ID: 17826029/0x011000ED))
 96: 0x0B5E [0x4A] Amchuchu (ID: 17826029/0x011000ED) looks at LocalPlayer
 97: 0x0B67 [0x27] REQ_SET(priority=0x10, entity_id=Amchuchu (ID: 17826029/0x011000ED), tag_num=0x3D)
 98: 0x0B6E [0x1C] WAIT(30* ticks)
 99: 0x0B71 [0x52] END_LOAD_SCHEDULER: End scheduler "s037" with entities [EventEntity, EventEntity], work=636*
100: 0x0B80 [0x45] LOAD_SCHEDULED_TASK: Load scheduler "s035" with entities [EventEntity, EventEntity], work=[636*, 0*]
101: 0x0B91 [0x2A] GET_REQ_LEVEL(level=16, entity_id=Amchuchu (ID: 17826029/0x011000ED))
102: 0x0B97 [0x1C] WAIT(30* ticks)
103: 0x0B9A [0x03] Work_Zone_1700[0] = 60*
104: 0x0B9F [0x27] REQ_SET(priority=0x10, entity_id=Amchuchu (ID: 17826029/0x011000ED), tag_num=0x38)
105: 0x0BA6 [0x2B] Amchuchu (ID: 17826029/0x011000ED) [10774*]:
    → "Here! For you! I'm sure there'll be much more you can do for me later on, but we'll leave that for another-wother day."
106: 0x0BAD [0x23] WAIT_FOR_DIALOG_INTERACTION
107: 0x0BAE [0x2A] GET_REQ_LEVEL(level=16, entity_id=Amchuchu (ID: 17826029/0x011000ED))
108: 0x0BB4 [0x45] LOAD_SCHEDULED_TASK: Load scheduler "fdo1" with entities [LocalPlayer, LocalPlayer], work=[200*, 0*]
109: 0x0BC5 [0x55] WAIT_LOAD_SCHEDULER: Wait for scheduler "fdo1" with entities [LocalPlayer, LocalPlayer], work=200*
110: 0x0BD4 [0x52] END_LOAD_SCHEDULER: End scheduler "s035" with entities [EventEntity, EventEntity], work=636*
111: 0x0BE3 [0x46] CAMERA_CONTROL: Restore default settings
112: 0x0BE5 [0x45] LOAD_SCHEDULED_TASK: Load scheduler "fdi2" with entities [LocalPlayer, LocalPlayer], work=[200*, 0*]
113: 0x0BF6 [0x45] LOAD_SCHEDULED_TASK: Load scheduler "qstc" with entities [EventEntity, EventEntity], work=[201*, 0*]
114: 0x0C07 [0x21] END_EVENT
115: 0x0C08 [0x00] END_REQSTACK()
```

### Event 5062

#### Metadata

| Field        | Value      |
|--------------|------------|
| Entrypoint   | 0x0C09     |
| Data Size    | 1586 bytes |
| Instructions | 169        |

```
      00 01 02 03 04 05 06 07  08 09 0A 0B 0C 0D 0E 0F
      -- -- -- -- -- -- -- --  -- -- -- -- -- -- -- --
0C00:                             42 45 00 80 F0 FF FF           BE.....
0C10: 7F F0 FF FF 7F 66 64 6F  31 01 80 55 00 80 F0 FF  .....fdo1..U....
0C20: FF 7F F0 FF FF 7F 66 64  6F 31 46 01 38 02 80 02  ......fdo1F.8...
0C30: 09 10 03 80 00 3D 0C 75  00 04 80 75 01 2F 00 ED  .....=.u...u./..
0C40: 00 10 01 4E 00 ED 00 10  01 BA ED 00 10 01 56 80  ...N..........V.
0C50: 57 80 0A 80 58 80 02 02  10 03 80 00 6E 0C BA F0  W...X.......n...
0C60: FF FF 7F 59 80 5A 80 0A  80 5B 80 01 7B 0C BA F0  ...Y.Z...[..{...
0C70: FF FF 7F 0D 80 0E 80 0A  80 0C 80 36 59 80 5A 80  ...........6Y.Z.
0C80: 5C 80 80 ED 00 10 01 80  F0 FF FF 7F 94 01 ED 00  \...............
0C90: 10 01 94 01 F0 FF FF 7F  02 02 10 01 80 00 DF 0C  ................
0CA0: BA 0D 01 10 01 0F 80 10  80 0A 80 5D 80 BA 3E 00  ...........]..>.
0CB0: 10 01 5E 80 5F 80 0A 80  60 80 80 0D 01 10 01 80  ..^._...`.......
0CC0: 3E 00 10 01 94 01 0D 01  10 01 94 01 3E 00 10 01  >...........>...
0CD0: 92 01 0D 01 10 01 92 01  3E 00 10 01 01 EB 0C 4E  ........>......N
0CE0: 01 0D 01 10 01 4E 01 3E  00 10 01 02 02 10 03 80  .....N.>........
0CF0: 00 AC 0D 4A ED 00 10 01  F0 FF FF 7F 4A F0 FF FF  ...J........J...
0D00: 7F ED 00 10 01 6F 76 ED  00 10 01 6F 76 F0 FF FF  .....ov....ov...
0D10: 7F 1C 14 80 45 00 80 F0  FF FF 7F F0 FF FF 7F 66  ....E..........f
0D20: 64 69 31 01 80 45 15 80  F8 FF FF 7F F8 FF FF 7F  di1..E..........
0D30: 73 32 30 61 01 80 1C 14  80 03 00 17 16 80 27 10  s20a..........'.
0D40: ED 00 10 01 2C 2B ED 00  10 01 61 80 23 2A 10 ED  ....,+....a.#*..
0D50: 00 10 01 79 00 ED 00 10  01 F8 FF FF 7F 52 15 80  ...y.........R..
0D60: F8 FF FF 7F F8 FF FF 7F  73 32 30 61 45 15 80 F8  ........s20aE...
0D70: FF FF 7F F8 FF FF 7F 73  32 30 36 01 80 03 00 17  .......s206.....
0D80: 16 80 27 10 ED 00 10 01  2D 2B ED 00 10 01 62 80  ..'.....-+....b.
0D90: 23 2A 10 ED 00 10 01 66  40 80 ED 00 10 01 ED 00  #*.....f@.......
0DA0: 10 01 74 6C 6B 31 01 92  10 01 07 0F 4A ED 00 10  ..tlk1......J...
0DB0: 01 0D 01 10 01 4A 0D 01  10 01 ED 00 10 01 4A 3E  .....J........J>
0DC0: 00 10 01 ED 00 10 01 45  15 80 F8 FF FF 7F F8 FF  .......E........
0DD0: FF 7F 73 32 30 31 01 80  45 00 80 F0 FF FF 7F F0  ..s201..E.......
0DE0: FF FF 7F 66 64 69 31 01  80 1C 14 80 66 1A 80 ED  ...fdi1.....f...
0DF0: 00 10 01 ED 00 10 01 74  6C 6B 30 1C 16 80 66 1A  .......tlk0...f.
0E00: 80 ED 00 10 01 ED 00 10  01 74 6C 6B 31 66 1B 80  .........tlk1f..
0E10: 0D 01 10 01 0D 01 10 01  74 6C 6B 30 1C 16 80 66  ........tlk0...f
0E20: 1B 80 0D 01 10 01 0D 01  10 01 74 6C 6B 31 1C 16  ..........tlk1..
0E30: 80 7B 0D 01 10 01 27 10  0D 01 10 01 04 1C 16 80  .{....'.........
0E40: 4A ED 00 10 01 3E 00 10  01 52 15 80 F8 FF FF 7F  J....>...R......
0E50: F8 FF FF 7F 73 32 30 31  45 15 80 F8 FF FF 7F F8  ....s201E.......
0E60: FF FF 7F 73 32 32 35 01  80 1C 14 80 66 1A 80 ED  ...s225.....f...
0E70: 00 10 01 ED 00 10 01 74  6C 6B 30 1C 16 80 66 1A  .......tlk0...f.
0E80: 80 ED 00 10 01 ED 00 10  01 74 6C 6B 31 66 1B 80  .........tlk1f..
0E90: 0D 01 10 01 0D 01 10 01  74 68 6B 31 6E 3E 00 10  ........thk1n>..
0EA0: 01 63 80 99 3E 00 10 01  1C 16 80 7B 3E 00 10 01  .c..>......{>...
0EB0: 7B ED 00 10 01 1C 16 80  27 10 3E 00 10 01 05 1C  {.......'.>.....
0EC0: 16 80 66 1B 80 0D 01 10  01 0D 01 10 01 74 68 6B  ..f..........thk
0ED0: 32 1C 16 80 52 15 80 F8  FF FF 7F F8 FF FF 7F 73  2...R..........s
0EE0: 32 32 35 45 15 80 F8 FF  FF 7F F8 FF FF 7F 73 32  225E..........s2
0EF0: 30 32 01 80 4A F0 FF FF  7F ED 00 10 01 27 10 F0  02..J........'..
0F00: FF FF 7F 54 1C 64 80 52  15 80 F8 FF FF 7F F8 FF  ...T.d.R........
0F10: FF 7F 73 32 30 32 45 15  80 F8 FF FF 7F F8 FF FF  ..s202E.........
0F20: 7F 73 32 30 33 01 80 27  10 0D 01 10 01 06 2A 10  .s203..'......*.
0F30: F0 FF FF 7F 4A F0 FF FF  7F ED 00 10 01 1C 14 80  ....J...........
0F40: 4A ED 00 10 01 F0 FF FF  7F 6F 76 ED 00 10 01 1C  J........ov.....
0F50: 16 80 2B ED 00 10 01 65  80 23 03 00 17 16 80 27  ..+....e.#.....'
0F60: 10 ED 00 10 01 2C 03 02  10 4B 80 2B ED 00 10 01  .....,...K.+....
0F70: 66 80 23 2B ED 00 10 01  67 80 23 2A 10 ED 00 10  f.#+....g.#*....
0F80: 01 66 40 80 ED 00 10 01  ED 00 10 01 74 6C 6B 31  .f@.........tlk1
0F90: 52 15 80 F8 FF FF 7F F8  FF FF 7F 73 32 30 33 45  R..........s203E
0FA0: 15 80 F8 FF FF 7F F8 FF  FF 7F 73 32 30 34 01 80  ..........s204..
0FB0: 29 10 F0 FF FF 7F 02 03  03 10 2C 80 29 10 F0 FF  ).........,.)...
0FC0: FF 7F 35 1C 1A 80 03 00  17 16 80 27 10 ED 00 10  ..5........'....
0FD0: 01 2B 2B ED 00 10 01 68  80 23 2A 10 ED 00 10 01  .++....h.#*.....
0FE0: 52 15 80 F8 FF FF 7F F8  FF FF 7F 73 32 30 34 45  R..........s204E
0FF0: 15 80 F8 FF FF 7F F8 FF  FF 7F 73 32 30 35 01 80  ..........s205..
1000: 1C 14 80 03 00 17 16 80  27 10 ED 00 10 01 2D 2B  ........'.....-+
1010: ED 00 10 01 69 80 23 2B  ED 00 10 01 6A 80 23 2A  ....i.#+....j.#*
1020: 10 ED 00 10 01 03 00 17  2C 80 27 10 ED 00 10 01  ........,.'.....
1030: 31 2B ED 00 10 01 6B 80  23 2A 10 ED 00 10 01 79  1+....k.#*.....y
1040: 00 ED 00 10 01 F8 FF FF  7F 52 15 80 F8 FF FF 7F  .........R......
1050: F8 FF FF 7F 73 32 30 35  45 15 80 F8 FF FF 7F F8  ....s205E.......
1060: FF FF 7F 73 32 30 36 01  80 03 00 17 16 80 27 10  ...s206.......'.
1070: ED 00 10 01 2C 2B ED 00  10 01 6C 80 23 2A 10 ED  ....,+....l.#*..
1080: 00 10 01 66 40 80 ED 00  10 01 ED 00 10 01 74 6C  ...f@.........tl
1090: 6B 31 24 41 80 01 80 01  80 25 02 00 10 01 80 00  k1$A.....%......
10A0: 5F 11 6E ED 00 10 01 42  80 99 ED 00 10 01 2B ED  _.n....B......+.
10B0: 00 10 01 6D 80 23 1C 16  80 79 00 ED 00 10 01 F0  ...m.#...y......
10C0: FF FF 7F 52 15 80 F8 FF  FF 7F F8 FF FF 7F 73 32  ...R..........s2
10D0: 30 36 45 15 80 F8 FF FF  7F F8 FF FF 7F 73 32 30  06E..........s20
10E0: 37 01 80 03 00 17 16 80  27 10 ED 00 10 01 2D 2B  7.......'.....-+
10F0: ED 00 10 01 6E 80 23 2A  10 ED 00 10 01 03 00 17  ....n.#*........
1100: 16 80 27 10 ED 00 10 01  34 2B ED 00 10 01 6F 80  ..'.....4+....o.
1110: 23 2A 10 ED 00 10 01 45  00 80 F0 FF FF 7F F0 FF  #*.....E........
1120: FF 7F 66 64 6F 31 01 80  55 00 80 F0 FF FF 7F F0  ..fdo1..U.......
1130: FF FF 7F 66 64 6F 31 52  15 80 F8 FF FF 7F F8 FF  ...fdo1R........
1140: FF 7F 73 32 30 37 46 00  45 00 80 F0 FF FF 7F F0  ..s207F.E.......
1150: FF FF 7F 66 64 69 32 01  80 05 01 10 01 39 12 02  ...fdi2......9..
1160: 00 10 03 80 00 39 12 52  15 80 F8 FF FF 7F F8 FF  .....9.R........
1170: FF 7F 73 32 30 36 45 15  80 F8 FF FF 7F F8 FF FF  ..s206E.........
1180: 7F 73 32 30 38 01 80 81  00 ED 00 10 01 03 00 17  .s208...........
1190: 16 80 27 10 ED 00 10 01  35 2B ED 00 10 01 70 80  ..'.....5+....p.
11A0: 23 2A 10 ED 00 10 01 81  01 ED 00 10 01 79 00 ED  #*...........y..
11B0: 00 10 01 F0 FF FF 7F 52  15 80 F8 FF FF 7F F8 FF  .......R........
11C0: FF 7F 73 32 30 38 45 15  80 F8 FF FF 7F F8 FF FF  ..s208E.........
11D0: 7F 73 32 30 37 01 80 03  00 17 16 80 27 10 ED 00  .s207.......'...
11E0: 10 01 2D 2B ED 00 10 01  71 80 23 2A 10 ED 00 10  ..-+....q.#*....
11F0: 01 45 00 80 F0 FF FF 7F  F0 FF FF 7F 66 64 6F 31  .E..........fdo1
1200: 01 80 55 00 80 F0 FF FF  7F F0 FF FF 7F 66 64 6F  ..U..........fdo
1210: 31 52 15 80 F8 FF FF 7F  F8 FF FF 7F 32 30 37 00  1R..........207.
1220: 46 00 45 00 80 F0 FF FF  7F F0 FF FF 7F 66 64 69  F.E..........fdi
1230: 32 01 80 06 01 10 01 39  12 21 00                 2......9.!.     
```

#### Opcodes

```
  0: 0x0C09 [0x42] SET_CLI_EVENT_CANCEL_DATA()
  1: 0x0C0A [0x45] LOAD_SCHEDULED_TASK: Load scheduler "fdo1" with entities [LocalPlayer, LocalPlayer], work=[200*, 0*]
  2: 0x0C1B [0x55] WAIT_LOAD_SCHEDULER: Wait for scheduler "fdo1" with entities [LocalPlayer, LocalPlayer], work=200*
  3: 0x0C2A [0x46] CAMERA_CONTROL: Disable user control
  4: 0x0C2C [0x38] SET_CLIENT_EVENT_MODE(mode=19*)
  5: 0x0C2F [0x02] IF !(Work_Zone[9] == 1*) GOTO 0x0C3D
  6: 0x0C37 [0x75] LOAD_ROOM(Load indoor room, room=587*)
  7: 0x0C3B [0x75] LOAD_ROOM(No action)
  8: 0x0C3D [0x2F] Amchuchu (ID: 17826029/0x011000ED)->Render.Flags0 &= ~0x80000 // Bit 19
  9: 0x0C43 [0x4E] SET_ENTITY_HIDE_FLAG: Show Amchuchu (ID: 17826029/0x011000ED)
 10: 0x0C49 [0xBA] SET_ENTITY_POSITION(entity_id=Amchuchu (ID: 17826029/0x011000ED), pos_x=91.000*, pos_z=-74.500*, pos_y=-0.651*, direction=95.4°*)
 11: 0x0C56 [0x02] IF !(Work_Zone[2] == 1*) GOTO 0x0C6E
 12: 0x0C5E [0xBA] SET_ENTITY_POSITION(entity_id=LocalPlayer, pos_x=93.500*, pos_z=-74.300*, pos_y=-0.651*, direction=168.6°*)
 13: 0x0C6B [0x01] GOTO 0x0C7B
 14: 0x0C6E [0xBA] SET_ENTITY_POSITION(entity_id=LocalPlayer, pos_x=98.900*, pos_z=-79.265*, pos_y=-0.651*, direction=225.0°*)

SUBROUTINE_0C7B:
 15: 0x0C7B [0x36] SET_ENTITY_EVENT_POSITION(pos_x=93.500*, pos_z=-74.300*, pos_y=-1.800*)
 16: 0x0C82 [0x80] LOAD_WAIT(entity=Amchuchu (ID: 17826029/0x011000ED))
 17: 0x0C87 [0x80] LOAD_WAIT(entity=LocalPlayer)
 18: 0x0C8C [0x94] Amchuchu (ID: 17826029/0x011000ED)->Render.Flags3 ^= 0x01
 19: 0x0C92 [0x94] LocalPlayer->Render.Flags3 ^= 0x01
 20: 0x0C98 [0x02] IF !(Work_Zone[2] == 0*) GOTO 0x0CDF
 21: 0x0CA0 [0xBA] SET_ENTITY_POSITION(entity_id=Chanteillie (ID: 17826061/0x0110010D), pos_x=89.343*, pos_z=-75.030*, pos_y=-0.651*, direction=377476196.8°*)
 22: 0x0CAD [0xBA] SET_ENTITY_POSITION(entity_id=Civil Registrar (ID: 17825854/0x0110003E), pos_x=90.522*, pos_z=-76.251*, pos_y=-0.651*, direction=377476151.8°*)
 23: 0x0CBA [0x80] LOAD_WAIT(entity=Chanteillie (ID: 17826061/0x0110010D))
 24: 0x0CBF [0x80] LOAD_WAIT(entity=Civil Registrar (ID: 17825854/0x0110003E))
 25: 0x0CC4 [0x94] Chanteillie (ID: 17826061/0x0110010D)->Render.Flags3 ^= 0x01
 26: 0x0CCA [0x94] Civil Registrar (ID: 17825854/0x0110003E)->Render.Flags3 ^= 0x01
 27: 0x0CD0 [0x92] Chanteillie (ID: 17826061/0x0110010D)->Render.Flags3 ^= 0x01
 28: 0x0CD6 [0x92] Civil Registrar (ID: 17825854/0x0110003E)->Render.Flags3 ^= 0x01
 29: 0x0CDC [0x01] GOTO 0x0CEB
 30: 0x0CDF [0x4E] SET_ENTITY_HIDE_FLAG: Hide Chanteillie (ID: 17826061/0x0110010D)
 31: 0x0CE5 [0x4E] SET_ENTITY_HIDE_FLAG: Hide Civil Registrar (ID: 17825854/0x0110003E)

SUBROUTINE_0CEB:
 32: 0x0CEB [0x02] IF !(Work_Zone[2] == 1*) GOTO 0x0DAC
 33: 0x0CF3 [0x4A] Amchuchu (ID: 17826029/0x011000ED) looks at LocalPlayer
 34: 0x0CFC [0x4A] LocalPlayer looks at Amchuchu (ID: 17826029/0x011000ED)
 35: 0x0D05 [0x6F] WAIT_FRAME_DELAY: Yield until WaitTime reaches zero
 36: 0x0D06 [0x76] CHECK_ENTITY_RENDER_FLAGS: Wait until Amchuchu (ID: 17826029/0x011000ED) Render.Flags0 and Render.Flags3 conditions are met
 37: 0x0D0B [0x6F] WAIT_FRAME_DELAY: Yield until WaitTime reaches zero
 38: 0x0D0C [0x76] CHECK_ENTITY_RENDER_FLAGS: Wait until LocalPlayer Render.Flags0 and Render.Flags3 conditions are met
 39: 0x0D11 [0x1C] WAIT(30* ticks)
 40: 0x0D14 [0x45] LOAD_SCHEDULED_TASK: Load scheduler "fdi1" with entities [LocalPlayer, LocalPlayer], work=[200*, 0*]
 41: 0x0D25 [0x45] LOAD_SCHEDULED_TASK: Load scheduler "s20a" with entities [EventEntity, EventEntity], work=[636*, 0*]
 42: 0x0D36 [0x1C] WAIT(30* ticks)
 43: 0x0D39 [0x03] Work_Zone_1700[0] = 60*
 44: 0x0D3E [0x27] REQ_SET(priority=0x10, entity_id=Amchuchu (ID: 17826029/0x011000ED), tag_num=0x2C)
 45: 0x0D45 [0x2B] Amchuchu (ID: 17826029/0x011000ED) [10788*]:
    → "How lovely to see you again, <Player>! Have you rethoughtaru my offer?"
 46: 0x0D4C [0x23] WAIT_FOR_DIALOG_INTERACTION
 47: 0x0D4D [0x2A] GET_REQ_LEVEL(level=16, entity_id=Amchuchu (ID: 17826029/0x011000ED))
 48: 0x0D53 [0x79] Amchuchu (ID: 17826029/0x011000ED) looks at EventEntity (Basic look)
 49: 0x0D5D [0x52] END_LOAD_SCHEDULER: End scheduler "s20a" with entities [EventEntity, EventEntity], work=636*
 50: 0x0D6C [0x45] LOAD_SCHEDULED_TASK: Load scheduler "s206" with entities [EventEntity, EventEntity], work=[636*, 0*]
 51: 0x0D7D [0x03] Work_Zone_1700[0] = 60*
 52: 0x0D82 [0x27] REQ_SET(priority=0x10, entity_id=Amchuchu (ID: 17826029/0x011000ED), tag_num=0x2D)
 53: 0x0D89 [0x2B] Amchuchu (ID: 17826029/0x011000ED) [10789*]:
    → "Do you remember what I asky-wasked? To head to Yorcia Weald and make sure Junior isn't in over his head?"
 54: 0x0D90 [0x23] WAIT_FOR_DIALOG_INTERACTION
 55: 0x0D91 [0x2A] GET_REQ_LEVEL(level=16, entity_id=Amchuchu (ID: 17826029/0x011000ED))
 56: 0x0D97 [0x66] LOAD_EXT_SCHEDULER_MAIN: Load scheduler "tlk1" with entities [Amchuchu (ID: 17826029/0x011000ED), Amchuchu (ID: 17826029/0x011000ED)], work=49*
 57: 0x0DA6 [0x01] GOTO 0x1092

SUBROUTINE_0F07:
 58: 0x0F07 [0x52] END_LOAD_SCHEDULER: End scheduler "s202" with entities [EventEntity, EventEntity], work=636*
 59: 0x0F16 [0x45] LOAD_SCHEDULED_TASK: Load scheduler "s203" with entities [EventEntity, EventEntity], work=[636*, 0*]
 60: 0x0F27 [0x27] REQ_SET(priority=0x10, entity_id=Chanteillie (ID: 17826061/0x0110010D), tag_num=0x06)
 61: 0x0F2E [0x2A] GET_REQ_LEVEL(level=16, entity_id=LocalPlayer)
 62: 0x0F34 [0x4A] LocalPlayer looks at Amchuchu (ID: 17826029/0x011000ED)
 63: 0x0F3D [0x1C] WAIT(30* ticks)
 64: 0x0F40 [0x4A] Amchuchu (ID: 17826029/0x011000ED) looks at LocalPlayer
 65: 0x0F49 [0x6F] WAIT_FRAME_DELAY: Yield until WaitTime reaches zero
 66: 0x0F4A [0x76] CHECK_ENTITY_RENDER_FLAGS: Wait until Amchuchu (ID: 17826029/0x011000ED) Render.Flags0 and Render.Flags3 conditions are met
 67: 0x0F4F [0x1C] WAIT(60* ticks)
 68: 0x0F52 [0x2B] Amchuchu (ID: 17826029/0x011000ED) [10775*]:
    → "Why, <Player>! A pleasure-weasure to see you, as always!"
 69: 0x0F59 [0x23] WAIT_FOR_DIALOG_INTERACTION
 70: 0x0F5A [0x03] Work_Zone_1700[0] = 60*
 71: 0x0F5F [0x27] REQ_SET(priority=0x10, entity_id=Amchuchu (ID: 17826029/0x011000ED), tag_num=0x2C)
 72: 0x0F66 [0x03] Work_Zone[2] = 2272*
 73: 0x0F6B [0x2B] Amchuchu (ID: 17826029/0x011000ED) [10776*]:
    → "The $3 you broughtaru me earlier has proven to be quite a blessing! We're still in the middle of our investigations, but so far our resultarus look promising."
 74: 0x0F72 [0x23] WAIT_FOR_DIALOG_INTERACTION
 75: 0x0F73 [0x2B] Amchuchu (ID: 17826029/0x011000ED) [10777*]:
    → "Our next steppy-wep is to find an effective method for extractaruing the nutrients inside."
 76: 0x0F7A [0x23] WAIT_FOR_DIALOG_INTERACTION
 77: 0x0F7B [0x2A] GET_REQ_LEVEL(level=16, entity_id=Amchuchu (ID: 17826029/0x011000ED))
 78: 0x0F81 [0x66] LOAD_EXT_SCHEDULER_MAIN: Load scheduler "tlk1" with entities [Amchuchu (ID: 17826029/0x011000ED), Amchuchu (ID: 17826029/0x011000ED)], work=49*
 79: 0x0F90 [0x52] END_LOAD_SCHEDULER: End scheduler "s203" with entities [EventEntity, EventEntity], work=636*
 80: 0x0F9F [0x45] LOAD_SCHEDULED_TASK: Load scheduler "s204" with entities [EventEntity, EventEntity], work=[636*, 0*]
 81: 0x0FB0 [0x29] REQ_SET_WAIT(priority=0x10, entity_id=LocalPlayer, tag_num=0x02)
 82: 0x0FB7 [0x03] Work_Zone[3] = 90*
 83: 0x0FBC [0x29] REQ_SET_WAIT(priority=0x10, entity_id=LocalPlayer, tag_num=0x35)
 84: 0x0FC3 [0x1C] WAIT(40* ticks)
 85: 0x0FC6 [0x03] Work_Zone_1700[0] = 60*
 86: 0x0FCB [0x27] REQ_SET(priority=0x10, entity_id=Amchuchu (ID: 17826029/0x011000ED), tag_num=0x2B)
 87: 0x0FD2 [0x2B] Amchuchu (ID: 17826029/0x011000ED) [10778*]:
    → "What's this now? Junior? That little sweetheartaru is out on another trip."
 88: 0x0FD9 [0x23] WAIT_FOR_DIALOG_INTERACTION
 89: 0x0FDA [0x2A] GET_REQ_LEVEL(level=16, entity_id=Amchuchu (ID: 17826029/0x011000ED))
 90: 0x0FE0 [0x52] END_LOAD_SCHEDULER: End scheduler "s204" with entities [EventEntity, EventEntity], work=636*
 91: 0x0FEF [0x45] LOAD_SCHEDULED_TASK: Load scheduler "s205" with entities [EventEntity, EventEntity], work=[636*, 0*]
 92: 0x1000 [0x1C] WAIT(30* ticks)
 93: 0x1003 [0x03] Work_Zone_1700[0] = 60*
 94: 0x1008 [0x27] REQ_SET(priority=0x10, entity_id=Amchuchu (ID: 17826029/0x011000ED), tag_num=0x2D)
 95: 0x100F [0x2B] Amchuchu (ID: 17826029/0x011000ED) [10779*]:
    → "You ever heard of Yorcia Weald? It's a land corruptarued by poison, but for some reason all sorts of plants grow there. What a fascinating place to study! Who knows what we could learn?"
 96: 0x1016 [0x23] WAIT_FOR_DIALOG_INTERACTION
 97: 0x1017 [0x2B] Amchuchu (ID: 17826029/0x011000ED) [10780*]:
    → "That's why I sentaru him out there."
 98: 0x101E [0x23] WAIT_FOR_DIALOG_INTERACTION
 99: 0x101F [0x2A] GET_REQ_LEVEL(level=16, entity_id=Amchuchu (ID: 17826029/0x011000ED))
100: 0x1025 [0x03] Work_Zone_1700[0] = 90*
101: 0x102A [0x27] REQ_SET(priority=0x10, entity_id=Amchuchu (ID: 17826029/0x011000ED), tag_num=0x31)
102: 0x1031 [0x2B] Amchuchu (ID: 17826029/0x011000ED) [10781*]:
    → "He's probably fine on his own, but you know how easily he gets into trouble-wouble, tohoho."
103: 0x1038 [0x23] WAIT_FOR_DIALOG_INTERACTION
104: 0x1039 [0x2A] GET_REQ_LEVEL(level=16, entity_id=Amchuchu (ID: 17826029/0x011000ED))
105: 0x103F [0x79] Amchuchu (ID: 17826029/0x011000ED) looks at EventEntity (Basic look)
106: 0x1049 [0x52] END_LOAD_SCHEDULER: End scheduler "s205" with entities [EventEntity, EventEntity], work=636*
107: 0x1058 [0x45] LOAD_SCHEDULED_TASK: Load scheduler "s206" with entities [EventEntity, EventEntity], work=[636*, 0*]
108: 0x1069 [0x03] Work_Zone_1700[0] = 60*
109: 0x106E [0x27] REQ_SET(priority=0x10, entity_id=Amchuchu (ID: 17826029/0x011000ED), tag_num=0x2C)
110: 0x1075 [0x2B] Amchuchu (ID: 17826029/0x011000ED) [10782*]:
    → "I worry about him sometimes... If you have a spare momentaru, would you mind checking up on him for me?"
111: 0x107C [0x23] WAIT_FOR_DIALOG_INTERACTION
112: 0x107D [0x2A] GET_REQ_LEVEL(level=16, entity_id=Amchuchu (ID: 17826029/0x011000ED))
113: 0x1083 [0x66] LOAD_EXT_SCHEDULER_MAIN: Load scheduler "tlk1" with entities [Amchuchu (ID: 17826029/0x011000ED), Amchuchu (ID: 17826029/0x011000ED)], work=49*

SUBROUTINE_1092:
114: 0x1092 [0x24] CREATE_DIALOG(message_id=10757*, default_option=0*, option_flags=0*)
    → "Go find Junior? [I'm up for an adventure./No thanks.]"
115: 0x1099 [0x25] WAIT_DIALOG_SELECT()
116: 0x109A [0x02] IF !(Work_Zone[0] == 0*) GOTO 0x115F
117: 0x10A2 [0x6E] Amchuchu (ID: 17826029/0x011000ED) uses emote 10*
118: 0x10A9 [0x99] Wait for Amchuchu (ID: 17826029/0x011000ED) animation to complete
119: 0x10AE [0x2B] Amchuchu (ID: 17826029/0x011000ED) [10783*]:
    → "You're always so dependable-wendable, <Player>. That's why I like you. Now I can focus on my investigations without any distractions!"
120: 0x10B5 [0x23] WAIT_FOR_DIALOG_INTERACTION
121: 0x10B6 [0x1C] WAIT(60* ticks)
122: 0x10B9 [0x79] Amchuchu (ID: 17826029/0x011000ED) looks at LocalPlayer (Basic look)
123: 0x10C3 [0x52] END_LOAD_SCHEDULER: End scheduler "s206" with entities [EventEntity, EventEntity], work=636*
124: 0x10D2 [0x45] LOAD_SCHEDULED_TASK: Load scheduler "s207" with entities [EventEntity, EventEntity], work=[636*, 0*]
125: 0x10E3 [0x03] Work_Zone_1700[0] = 60*
126: 0x10E8 [0x27] REQ_SET(priority=0x10, entity_id=Amchuchu (ID: 17826029/0x011000ED), tag_num=0x2D)
127: 0x10EF [0x2B] Amchuchu (ID: 17826029/0x011000ED) [10784*]:
    → "Maybe you've been to the weald before, but just in case, it's locatarued past the Cirdas Caverns, through an opening somewhere near the middle-widdle."
128: 0x10F6 [0x23] WAIT_FOR_DIALOG_INTERACTION
129: 0x10F7 [0x2A] GET_REQ_LEVEL(level=16, entity_id=Amchuchu (ID: 17826029/0x011000ED))
130: 0x10FD [0x03] Work_Zone_1700[0] = 60*
131: 0x1102 [0x27] REQ_SET(priority=0x10, entity_id=Amchuchu (ID: 17826029/0x011000ED), tag_num=0x34)
132: 0x1109 [0x2B] Amchuchu (ID: 17826029/0x011000ED) [10785*]:
    → "Keep safe along the way, and make sure that little one isn't in any dire predicamentaru!"
133: 0x1110 [0x23] WAIT_FOR_DIALOG_INTERACTION
134: 0x1111 [0x2A] GET_REQ_LEVEL(level=16, entity_id=Amchuchu (ID: 17826029/0x011000ED))
135: 0x1117 [0x45] LOAD_SCHEDULED_TASK: Load scheduler "fdo1" with entities [LocalPlayer, LocalPlayer], work=[200*, 0*]
136: 0x1128 [0x55] WAIT_LOAD_SCHEDULER: Wait for scheduler "fdo1" with entities [LocalPlayer, LocalPlayer], work=200*
137: 0x1137 [0x52] END_LOAD_SCHEDULER: End scheduler "s207" with entities [EventEntity, EventEntity], work=636*
138: 0x1146 [0x46] CAMERA_CONTROL: Restore default settings
139: 0x1148 [0x45] LOAD_SCHEDULED_TASK: Load scheduler "fdi2" with entities [LocalPlayer, LocalPlayer], work=[200*, 0*]
140: 0x1159 [0x05] Work_Zone[1] = 1
141: 0x115C [0x01] GOTO 0x1239
142: 0x115F [0x02] IF !(Work_Zone[0] == 1*) GOTO 0x1239
143: 0x1167 [0x52] END_LOAD_SCHEDULER: End scheduler "s206" with entities [EventEntity, EventEntity], work=636*
144: 0x1176 [0x45] LOAD_SCHEDULED_TASK: Load scheduler "s208" with entities [EventEntity, EventEntity], work=[636*, 0*]
145: 0x1187 [0x81] SET_ENTITY_BLINKING(blink_flag=0x00, entity=Amchuchu (ID: 17826029/0x011000ED))
146: 0x118D [0x03] Work_Zone_1700[0] = 60*
147: 0x1192 [0x27] REQ_SET(priority=0x10, entity_id=Amchuchu (ID: 17826029/0x011000ED), tag_num=0x35)
148: 0x1199 [0x2B] Amchuchu (ID: 17826029/0x011000ED) [10786*]:
    → "B-but, <Player>... You helped me once before, and now you turn on me in my second hour of need? Oh, this certainly puts a damper-wamper on things."
149: 0x11A0 [0x23] WAIT_FOR_DIALOG_INTERACTION
150: 0x11A1 [0x2A] GET_REQ_LEVEL(level=16, entity_id=Amchuchu (ID: 17826029/0x011000ED))
151: 0x11A7 [0x81] SET_ENTITY_BLINKING(blink_flag=0x01, entity=Amchuchu (ID: 17826029/0x011000ED))
152: 0x11AD [0x79] Amchuchu (ID: 17826029/0x011000ED) looks at LocalPlayer (Basic look)
153: 0x11B7 [0x52] END_LOAD_SCHEDULER: End scheduler "s208" with entities [EventEntity, EventEntity], work=636*
154: 0x11C6 [0x45] LOAD_SCHEDULED_TASK: Load scheduler "s207" with entities [EventEntity, EventEntity], work=[636*, 0*]
155: 0x11D7 [0x03] Work_Zone_1700[0] = 60*
156: 0x11DC [0x27] REQ_SET(priority=0x10, entity_id=Amchuchu (ID: 17826029/0x011000ED), tag_num=0x2D)
157: 0x11E3 [0x2B] Amchuchu (ID: 17826029/0x011000ED) [10787*]:
    → "You're not a member of my coalition, so I can't force you, but...if you have a spare minute-winute, I'll be right here."
158: 0x11EA [0x23] WAIT_FOR_DIALOG_INTERACTION
159: 0x11EB [0x2A] GET_REQ_LEVEL(level=16, entity_id=Amchuchu (ID: 17826029/0x011000ED))
160: 0x11F1 [0x45] LOAD_SCHEDULED_TASK: Load scheduler "fdo1" with entities [LocalPlayer, LocalPlayer], work=[200*, 0*]
161: 0x1202 [0x55] WAIT_LOAD_SCHEDULER: Wait for scheduler "fdo1" with entities [LocalPlayer, LocalPlayer], work=200*
162: 0x1211 [0x52] END_LOAD_SCHEDULER: End scheduler "207" with entities [EventEntity, EventEntity], work=636*
163: 0x1220 [0x46] CAMERA_CONTROL: Restore default settings
164: 0x1222 [0x45] LOAD_SCHEDULED_TASK: Load scheduler "fdi2" with entities [LocalPlayer, LocalPlayer], work=[200*, 0*]
165: 0x1233 [0x06] Work_Zone[1] = 0
166: 0x1236 [0x01] GOTO 0x1239

SUBROUTINE_1239:
167: 0x1239 [0x21] END_EVENT
168: 0x123A [0x00] END_REQSTACK()
```

#### Data or dead code:

```
# Dead code (unreachable instructions):
     0x0DA9 [0x01] GOTO 0x0F07
```

### Event 5063

#### Metadata

| Field        | Value      |
|--------------|------------|
| Entrypoint   | 0x123B     |
| Data Size    | 2023 bytes |
| Instructions | 262        |

```
      00 01 02 03 04 05 06 07  08 09 0A 0B 0C 0D 0E 0F
      -- -- -- -- -- -- -- --  -- -- -- -- -- -- -- --
1230:                                   42 45 00 80 F0             BE...
1240: FF FF 7F F0 FF FF 7F 66  64 6F 31 01 80 55 00 80  .......fdo1..U..
1250: F0 FF FF 7F F0 FF FF 7F  66 64 6F 31 46 01 38 02  ........fdo1F.8.
1260: 80 02 09 10 03 80 00 6F  12 75 00 04 80 75 01 2F  .......o.u...u./
1270: 00 ED 00 10 01 4E 00 ED  00 10 01 2F 00 EE 00 10  .....N...../....
1280: 01 4E 00 EE 00 10 01 94  01 ED 00 10 01 94 01 EE  .N..............
1290: 00 10 01 94 01 F0 FF FF  7F 36 56 80 57 80 72 80  .........6V.W.r.
12A0: BA ED 00 10 01 56 80 57  80 0A 80 73 80 BA EE 00  .....V.W...s....
12B0: 10 01 74 80 75 80 0A 80  76 80 BA F0 FF FF 7F 77  ..t.u...v......w
12C0: 80 78 80 0A 80 0C 80 4E  01 F0 FF FF 7F 4A ED 00  .x.....N.....J..
12D0: 10 01 EE 00 10 01 4A EE  00 10 01 ED 00 10 01 6F  ......J........o
12E0: 76 ED 00 10 01 6F 76 EE  00 10 01 80 ED 00 10 01  v....ov.........
12F0: 80 EE 00 10 01 80 F0 FF  FF 7F 1C 14 80 45 00 80  .............E..
1300: F0 FF FF 7F F0 FF FF 7F  66 64 69 31 01 80 45 15  ........fdi1..E.
1310: 80 F8 FF FF 7F F8 FF FF  7F 73 32 30 39 01 80 1C  .........s209...
1320: 14 80 03 00 17 16 80 27  10 EE 00 10 01 0D 2A 10  .......'......*.
1330: EE 00 10 01 03 00 17 16  80 27 10 ED 00 10 01 2D  .........'.....-
1340: 2A 10 ED 00 10 01 66 1A  80 ED 00 10 01 ED 00 10  *.....f.........
1350: 01 74 6C 6B 31 1C 14 80  79 00 EE 00 10 01 F8 FF  .tlk1...y.......
1360: FF 7F 1C 14 80 52 15 80  F8 FF FF 7F F8 FF FF 7F  .....R..........
1370: 73 32 30 39 45 15 80 F8  FF FF 7F F8 FF FF 7F 73  s209E..........s
1380: 32 31 30 01 80 81 00 EE  00 10 01 03 00 17 4A 80  210...........J.
1390: 27 10 EE 00 10 01 10 2B  EE 00 10 01 79 80 23 2A  '......+....y.#*
13A0: 10 EE 00 10 01 79 00 EE  00 10 01 ED 00 10 01 81  .....y..........
13B0: 01 EE 00 10 01 52 15 80  F8 FF FF 7F F8 FF FF 7F  .....R..........
13C0: 73 32 31 30 45 15 80 F8  FF FF 7F F8 FF FF 7F 73  s210E..........s
13D0: 32 31 31 01 80 81 00 ED  00 10 01 03 00 17 2C 80  211...........,.
13E0: 27 10 ED 00 10 01 36 1C  14 80 2B ED 00 10 01 7A  '.....6...+....z
13F0: 80 23 2A 10 ED 00 10 01  81 01 ED 00 10 01 66 4F  .#*...........fO
1400: 80 F8 FF FF 7F F8 FF FF  7F 62 69 6B 31 4E 00 F0  .........bik1N..
1410: FF FF 7F 52 15 80 F8 FF  FF 7F F8 FF FF 7F 73 32  ...R..........s2
1420: 31 31 45 15 80 F8 FF FF  7F F8 FF FF 7F 73 32 31  11E..........s21
1430: 32 01 80 4A F0 FF FF 7F  ED 00 10 01 27 10 F0 FF  2..J........'...
1440: FF 7F 54 1C 25 80 66 4F  80 ED 00 10 01 ED 00 10  ..T.%.fO........
1450: 01 62 69 6B 31 52 15 80  F8 FF FF 7F F8 FF FF 7F  .bik1R..........
1460: 73 32 31 32 45 15 80 F8  FF FF 7F F8 FF FF 7F 73  s212E..........s
1470: 32 31 33 01 80 36 59 80  5A 80 7B 80 2A 10 F0 FF  213..6Y.Z.{.*...
1480: FF 7F 4A F0 FF FF 7F ED  00 10 01 1C 14 80 4A ED  ..J...........J.
1490: 00 10 01 F0 FF FF 7F 6F  76 ED 00 10 01 4A EE 00  .......ov....J..
14A0: 10 01 F0 FF FF 7F 6F 76  EE 00 10 01 79 00 ED 00  ......ov....y...
14B0: 10 01 F8 FF FF 7F 79 00  EE 00 10 01 F8 FF FF 7F  ......y.........
14C0: 52 15 80 F8 FF FF 7F F8  FF FF 7F 73 32 31 33 45  R..........s213E
14D0: 15 80 F8 FF FF 7F F8 FF  FF 7F 73 32 31 34 01 80  ..........s214..
14E0: 81 00 ED 00 10 01 03 00  17 2C 80 27 10 ED 00 10  .........,.'....
14F0: 01 2C 2B ED 00 10 01 7C  80 23 2A 10 ED 00 10 01  .,+....|.#*.....
1500: 81 01 ED 00 10 01 66 40  80 ED 00 10 01 ED 00 10  ......f@........
1510: 01 74 6C 6B 31 52 15 80  F8 FF FF 7F F8 FF FF 7F  .tlk1R..........
1520: 73 32 31 34 45 15 80 F8  FF FF 7F F8 FF FF 7F 73  s214E..........s
1530: 32 30 63 01 80 1C 14 80  03 00 17 1C 80 27 10 EE  20c..........'..
1540: 00 10 01 09 2B EE 00 10  01 7D 80 23 4A F0 FF FF  ....+....}.#J...
1550: 7F EE 00 10 01 2A 10 EE  00 10 01 79 00 ED 00 10  .....*.....y....
1560: 01 F0 FF FF 7F 79 00 EE  00 10 01 F0 FF FF 7F 52  .....y.........R
1570: 15 80 F8 FF FF 7F F8 FF  FF 7F 73 32 31 34 45 15  ..........s214E.
1580: 80 F8 FF FF 7F F8 FF FF  7F 73 32 31 35 01 80 1C  .........s215...
1590: 14 80 03 00 17 16 80 27  10 EE 00 10 01 0A 2B EE  .......'......+.
15A0: 00 10 01 7E 80 23 2A 10  EE 00 10 01 66 7F 80 EE  ...~.#*.....f...
15B0: 00 10 01 EE 00 10 01 74  6C 6B 31 1C 14 80 29 10  .......tlk1...).
15C0: F0 FF FF 7F 02 03 03 10  2C 80 29 10 F0 FF FF 7F  ........,.).....
15D0: 35 1C 1A 80 52 15 80 F8  FF FF 7F F8 FF FF 7F 73  5...R..........s
15E0: 32 31 35 45 15 80 F8 FF  FF 7F F8 FF FF 7F 73 32  215E..........s2
15F0: 31 36 01 80 03 00 17 16  80 27 10 EE 00 10 01 09  16.......'......
1600: 2B EE 00 10 01 80 80 23  66 81 80 EE 00 10 01 EE  +......#f.......
1610: 00 10 01 74 6C 6B 31 29  10 F0 FF FF 7F 02 03 03  ...tlk1)........
1620: 10 1C 80 29 10 F0 FF FF  7F 35 1C 14 80 7B EE 00  ...).....5...{..
1630: 10 01 52 15 80 F8 FF FF  7F F8 FF FF 7F 73 32 31  ..R..........s21
1640: 36 45 15 80 F8 FF FF 7F  F8 FF FF 7F 73 32 31 37  6E..........s217
1650: 01 80 81 00 EE 00 10 01  03 00 17 1C 80 27 10 EE  .............'..
1660: 00 10 01 12 2B EE 00 10  01 82 80 23 2B EE 00 10  ....+......#+...
1670: 01 83 80 23 2A 10 EE 00  10 01 1C 16 80 81 01 EE  ...#*...........
1680: 00 10 01 79 00 EE 00 10  01 F0 FF FF 7F 52 15 80  ...y.........R..
1690: F8 FF FF 7F F8 FF FF 7F  73 32 31 37 45 15 80 F8  ........s217E...
16A0: FF FF 7F F8 FF FF 7F 73  32 31 38 01 80 66 81 80  .......s218..f..
16B0: EE 00 10 01 EE 00 10 01  74 68 6B 32 1C 14 80 03  ........thk2....
16C0: 00 17 1C 80 27 10 EE 00  10 01 0B 2B EE 00 10 01  ....'......+....
16D0: 84 80 23 2B EE 00 10 01  85 80 23 2A 10 EE 00 10  ..#+......#*....
16E0: 01 66 01 80 EE 00 10 01  EE 00 10 01 74 65 6E 31  .f..........ten1
16F0: 52 15 80 F8 FF FF 7F F8  FF FF 7F 73 32 31 38 45  R..........s218E
1700: 15 80 F8 FF FF 7F F8 FF  FF 7F 73 32 31 39 01 80  ..........s219..
1710: 4A ED 00 10 01 EE 00 10  01 4A EE 00 10 01 ED 00  J........J......
1720: 10 01 6F 76 ED 00 10 01  03 00 17 16 80 27 10 ED  ..ov.........'..
1730: 00 10 01 3A 2B ED 00 10  01 86 80 23 2B ED 00 10  ...:+......#+...
1740: 01 87 80 23 2A 10 ED 00  10 01 52 15 80 F8 FF FF  ...#*.....R.....
1750: 7F F8 FF FF 7F 73 32 31  39 45 15 80 F8 FF FF 7F  .....s219E......
1760: F8 FF FF 7F 73 32 32 30  01 80 81 00 ED 00 10 01  ....s220........
1770: 03 00 17 16 80 27 10 ED  00 10 01 2F 2B ED 00 10  .....'...../+...
1780: 01 88 80 23 2A 10 ED 00  10 01 81 01 ED 00 10 01  ...#*...........
1790: 52 15 80 F8 FF FF 7F F8  FF FF 7F 73 32 32 30 45  R..........s220E
17A0: 15 80 F8 FF FF 7F F8 FF  FF 7F 73 32 32 31 01 80  ..........s221..
17B0: 92 01 F0 FF FF 7F 6C F0  FF FF 7F 01 80 18 80 03  ......l.........
17C0: 00 17 1C 80 66 4F 80 ED  00 10 01 ED 00 10 01 62  ....fO.........b
17D0: 69 6B 31 28 10 EE 00 10  01 11 2B EE 00 10 01 89  ik1(......+.....
17E0: 80 23 1C 16 80 2A 10 EE  00 10 01 36 56 80 57 80  .#...*.....6V.W.
17F0: 8A 80 79 00 EE 00 10 01  F8 FF FF 7F 1C 14 80 52  ..y............R
1800: 15 80 F8 FF FF 7F F8 FF  FF 7F 73 32 32 31 45 15  ..........s221E.
1810: 80 F8 FF FF 7F F8 FF FF  7F 73 32 32 36 01 80 03  .........s226...
1820: 00 17 1C 80 27 10 EE 00  10 01 0A 2B EE 00 10 01  ....'......+....
1830: 8B 80 23 2A 10 EE 00 10  01 66 7F 80 EE 00 10 01  ..#*.....f......
1840: EE 00 10 01 74 6C 6B 31  79 00 EE 00 10 01 ED 00  ....tlk1y.......
1850: 10 01 52 15 80 F8 FF FF  7F F8 FF FF 7F 73 32 32  ..R..........s22
1860: 36 45 15 80 F8 FF FF 7F  F8 FF FF 7F 73 32 32 34  6E..........s224
1870: 01 80 92 00 F0 FF FF 7F  6C F0 FF FF 7F 28 80 03  ........l....(..
1880: 80 1C 14 80 81 00 ED 00  10 01 03 00 17 2C 80 27  .............,.'
1890: 10 ED 00 10 01 36 2B ED  00 10 01 8C 80 23 2A 10  .....6+......#*.
18A0: ED 00 10 01 81 01 ED 00  10 01 66 4F 80 ED 00 10  ..........fO....
18B0: 01 ED 00 10 01 62 69 6B  31 1C 16 80 52 15 80 F8  .....bik1...R...
18C0: FF FF 7F F8 FF FF 7F 73  32 32 34 45 15 80 F8 FF  .......s224E....
18D0: FF 7F F8 FF FF 7F 73 32  32 32 01 80 4A ED 00 10  ......s222..J...
18E0: 01 F0 FF FF 7F 4A F0 FF  FF 7F ED 00 10 01 6F 76  .....J........ov
18F0: ED 00 10 01 6F 76 F0 FF  FF 7F 4A EE 00 10 01 F0  ....ov....J.....
1900: FF FF 7F 03 00 17 4A 80  27 10 ED 00 10 01 38 2B  ......J.'.....8+
1910: ED 00 10 01 8D 80 23 2A  10 ED 00 10 01 52 15 80  ......#*.....R..
1920: F8 FF FF 7F F8 FF FF 7F  73 32 32 32 45 15 80 F8  ........s222E...
1930: FF FF 7F F8 FF FF 7F 73  32 32 37 01 80 7B EE 00  .......s227..{..
1940: 10 01 03 00 17 16 80 27  10 EE 00 10 01 09 2B EE  .......'......+.
1950: 00 10 01 8E 80 23 2A 10  EE 00 10 01 1C 8F 80 52  .....#*........R
1960: 15 80 F8 FF FF 7F F8 FF  FF 7F 73 32 32 37 45 15  ..........s227E.
1970: 80 F8 FF FF 7F F8 FF FF  7F 73 32 32 33 01 80 66  .........s223..f
1980: 81 80 EE 00 10 01 EE 00  10 01 74 6C 6B 31 1C 16  ..........tlk1..
1990: 80 27 10 EE 00 10 01 17  1C 14 80 4A ED 00 10 01  .'.........J....
19A0: EE 00 10 01 4A F0 FF FF  7F EE 00 10 01 6F 76 ED  ....J........ov.
19B0: 00 10 01 03 00 17 25 80  27 10 ED 00 10 01 3B 2B  ......%.'.....;+
19C0: ED 00 10 01 90 80 23 2A  10 ED 00 10 01 45 00 80  ......#*.....E..
19D0: F0 FF FF 7F F0 FF FF 7F  66 64 6F 31 01 80 55 00  ........fdo1..U.
19E0: 80 F0 FF FF 7F F0 FF FF  7F 66 64 6F 31 52 15 80  .........fdo1R..
19F0: F8 FF FF 7F F8 FF FF 7F  32 32 33 00 46 00 45 00  ........223.F.E.
1A00: 80 F0 FF FF 7F F0 FF FF  7F 66 64 69 32 01 80 45  .........fdi2..E
1A10: 55 80 F8 FF FF 7F F8 FF  FF 7F 71 73 74 63 01 80  U.........qstc..
1A20: 21 00                                             !.              
```

#### Opcodes

```
  0: 0x123B [0x42] SET_CLI_EVENT_CANCEL_DATA()
  1: 0x123C [0x45] LOAD_SCHEDULED_TASK: Load scheduler "fdo1" with entities [LocalPlayer, LocalPlayer], work=[200*, 0*]
  2: 0x124D [0x55] WAIT_LOAD_SCHEDULER: Wait for scheduler "fdo1" with entities [LocalPlayer, LocalPlayer], work=200*
  3: 0x125C [0x46] CAMERA_CONTROL: Disable user control
  4: 0x125E [0x38] SET_CLIENT_EVENT_MODE(mode=19*)
  5: 0x1261 [0x02] IF !(Work_Zone[9] == 1*) GOTO 0x126F
  6: 0x1269 [0x75] LOAD_ROOM(Load indoor room, room=587*)
  7: 0x126D [0x75] LOAD_ROOM(No action)
  8: 0x126F [0x2F] Amchuchu (ID: 17826029/0x011000ED)->Render.Flags0 &= ~0x80000 // Bit 19
  9: 0x1275 [0x4E] SET_ENTITY_HIDE_FLAG: Show Amchuchu (ID: 17826029/0x011000ED)
 10: 0x127B [0x2F] Midras (ID: 17826030/0x011000EE)->Render.Flags0 &= ~0x80000 // Bit 19
 11: 0x1281 [0x4E] SET_ENTITY_HIDE_FLAG: Show Midras (ID: 17826030/0x011000EE)
 12: 0x1287 [0x94] Amchuchu (ID: 17826029/0x011000ED)->Render.Flags3 ^= 0x01
 13: 0x128D [0x94] Midras (ID: 17826030/0x011000EE)->Render.Flags3 ^= 0x01
 14: 0x1293 [0x94] LocalPlayer->Render.Flags3 ^= 0x01
 15: 0x1299 [0x36] SET_ENTITY_EVENT_POSITION(pos_x=91.000*, pos_z=-74.500*, pos_y=-1.951*)
 16: 0x12A0 [0xBA] SET_ENTITY_POSITION(entity_id=Amchuchu (ID: 17826029/0x011000ED), pos_x=91.000*, pos_z=-74.500*, pos_y=-0.651*, direction=124.0°*)
 17: 0x12AD [0xBA] SET_ENTITY_POSITION(entity_id=Midras (ID: 17826030/0x011000EE), pos_x=90.232*, pos_z=-76.187*, pos_y=-0.651*, direction=377476163.0°*)
 18: 0x12BA [0xBA] SET_ENTITY_POSITION(entity_id=LocalPlayer, pos_x=98.134*, pos_z=-77.492*, pos_y=-0.651*, direction=225.0°*)
 19: 0x12C7 [0x4E] SET_ENTITY_HIDE_FLAG: Hide LocalPlayer
 20: 0x12CD [0x4A] Amchuchu (ID: 17826029/0x011000ED) looks at Midras (ID: 17826030/0x011000EE)
 21: 0x12D6 [0x4A] Midras (ID: 17826030/0x011000EE) looks at Amchuchu (ID: 17826029/0x011000ED)
 22: 0x12DF [0x6F] WAIT_FRAME_DELAY: Yield until WaitTime reaches zero
 23: 0x12E0 [0x76] CHECK_ENTITY_RENDER_FLAGS: Wait until Amchuchu (ID: 17826029/0x011000ED) Render.Flags0 and Render.Flags3 conditions are met
 24: 0x12E5 [0x6F] WAIT_FRAME_DELAY: Yield until WaitTime reaches zero
 25: 0x12E6 [0x76] CHECK_ENTITY_RENDER_FLAGS: Wait until Midras (ID: 17826030/0x011000EE) Render.Flags0 and Render.Flags3 conditions are met
 26: 0x12EB [0x80] LOAD_WAIT(entity=Amchuchu (ID: 17826029/0x011000ED))
 27: 0x12F0 [0x80] LOAD_WAIT(entity=Midras (ID: 17826030/0x011000EE))
 28: 0x12F5 [0x80] LOAD_WAIT(entity=LocalPlayer)
 29: 0x12FA [0x1C] WAIT(30* ticks)
 30: 0x12FD [0x45] LOAD_SCHEDULED_TASK: Load scheduler "fdi1" with entities [LocalPlayer, LocalPlayer], work=[200*, 0*]
 31: 0x130E [0x45] LOAD_SCHEDULED_TASK: Load scheduler "s209" with entities [EventEntity, EventEntity], work=[636*, 0*]
 32: 0x131F [0x1C] WAIT(30* ticks)
 33: 0x1322 [0x03] Work_Zone_1700[0] = 60*
 34: 0x1327 [0x27] REQ_SET(priority=0x10, entity_id=Midras (ID: 17826030/0x011000EE), tag_num=0x0D)
 35: 0x132E [0x2A] GET_REQ_LEVEL(level=16, entity_id=Midras (ID: 17826030/0x011000EE))
 36: 0x1334 [0x03] Work_Zone_1700[0] = 60*
 37: 0x1339 [0x27] REQ_SET(priority=0x10, entity_id=Amchuchu (ID: 17826029/0x011000ED), tag_num=0x2D)
 38: 0x1340 [0x2A] GET_REQ_LEVEL(level=16, entity_id=Amchuchu (ID: 17826029/0x011000ED))
 39: 0x1346 [0x66] LOAD_EXT_SCHEDULER_MAIN: Load scheduler "tlk1" with entities [Amchuchu (ID: 17826029/0x011000ED), Amchuchu (ID: 17826029/0x011000ED)], work=40*
 40: 0x1355 [0x1C] WAIT(30* ticks)
 41: 0x1358 [0x79] Midras (ID: 17826030/0x011000EE) looks at EventEntity (Basic look)
 42: 0x1362 [0x1C] WAIT(30* ticks)
 43: 0x1365 [0x52] END_LOAD_SCHEDULER: End scheduler "s209" with entities [EventEntity, EventEntity], work=636*
 44: 0x1374 [0x45] LOAD_SCHEDULED_TASK: Load scheduler "s210" with entities [EventEntity, EventEntity], work=[636*, 0*]
 45: 0x1385 [0x81] SET_ENTITY_BLINKING(blink_flag=0x00, entity=Midras (ID: 17826030/0x011000EE))
 46: 0x138B [0x03] Work_Zone_1700[0] = 150*
 47: 0x1390 [0x27] REQ_SET(priority=0x10, entity_id=Midras (ID: 17826030/0x011000EE), tag_num=0x10)
 48: 0x1397 [0x2B] Midras (ID: 17826030/0x011000EE) [10790*]:
    → "For the love of--Amchuchu, you're not my mother!"
 49: 0x139E [0x23] WAIT_FOR_DIALOG_INTERACTION
 50: 0x139F [0x2A] GET_REQ_LEVEL(level=16, entity_id=Midras (ID: 17826030/0x011000EE))
 51: 0x13A5 [0x79] Midras (ID: 17826030/0x011000EE) looks at Amchuchu (ID: 17826029/0x011000ED) (Basic look)
 52: 0x13AF [0x81] SET_ENTITY_BLINKING(blink_flag=0x01, entity=Midras (ID: 17826030/0x011000EE))
 53: 0x13B5 [0x52] END_LOAD_SCHEDULER: End scheduler "s210" with entities [EventEntity, EventEntity], work=636*
 54: 0x13C4 [0x45] LOAD_SCHEDULED_TASK: Load scheduler "s211" with entities [EventEntity, EventEntity], work=[636*, 0*]
 55: 0x13D5 [0x81] SET_ENTITY_BLINKING(blink_flag=0x00, entity=Amchuchu (ID: 17826029/0x011000ED))
 56: 0x13DB [0x03] Work_Zone_1700[0] = 90*
 57: 0x13E0 [0x27] REQ_SET(priority=0x10, entity_id=Amchuchu (ID: 17826029/0x011000ED), tag_num=0x36)
 58: 0x13E7 [0x1C] WAIT(30* ticks)
 59: 0x13EA [0x2B] Amchuchu (ID: 17826029/0x011000ED) [10791*]:
    → "Well, I never...!"
 60: 0x13F1 [0x23] WAIT_FOR_DIALOG_INTERACTION
 61: 0x13F2 [0x2A] GET_REQ_LEVEL(level=16, entity_id=Amchuchu (ID: 17826029/0x011000ED))
 62: 0x13F8 [0x81] SET_ENTITY_BLINKING(blink_flag=0x01, entity=Amchuchu (ID: 17826029/0x011000ED))
 63: 0x13FE [0x66] LOAD_EXT_SCHEDULER_MAIN: Load scheduler "bik1" with entities [EventEntity, EventEntity], work=42*
 64: 0x140D [0x4E] SET_ENTITY_HIDE_FLAG: Show LocalPlayer
 65: 0x1413 [0x52] END_LOAD_SCHEDULER: End scheduler "s211" with entities [EventEntity, EventEntity], work=636*
 66: 0x1422 [0x45] LOAD_SCHEDULED_TASK: Load scheduler "s212" with entities [EventEntity, EventEntity], work=[636*, 0*]
 67: 0x1433 [0x4A] LocalPlayer looks at Amchuchu (ID: 17826029/0x011000ED)
 68: 0x143C [0x27] REQ_SET(priority=0x10, entity_id=LocalPlayer, tag_num=0x54)
 69: 0x1443 [0x1C] WAIT(180* ticks)
 70: 0x1446 [0x66] LOAD_EXT_SCHEDULER_MAIN: Load scheduler "bik1" with entities [Amchuchu (ID: 17826029/0x011000ED), Amchuchu (ID: 17826029/0x011000ED)], work=42*
 71: 0x1455 [0x52] END_LOAD_SCHEDULER: End scheduler "s212" with entities [EventEntity, EventEntity], work=636*
 72: 0x1464 [0x45] LOAD_SCHEDULED_TASK: Load scheduler "s213" with entities [EventEntity, EventEntity], work=[636*, 0*]
 73: 0x1475 [0x36] SET_ENTITY_EVENT_POSITION(pos_x=93.500*, pos_z=-74.300*, pos_y=-2.051*)
 74: 0x147C [0x2A] GET_REQ_LEVEL(level=16, entity_id=LocalPlayer)
 75: 0x1482 [0x4A] LocalPlayer looks at Amchuchu (ID: 17826029/0x011000ED)
 76: 0x148B [0x1C] WAIT(30* ticks)
 77: 0x148E [0x4A] Amchuchu (ID: 17826029/0x011000ED) looks at LocalPlayer
 78: 0x1497 [0x6F] WAIT_FRAME_DELAY: Yield until WaitTime reaches zero
 79: 0x1498 [0x76] CHECK_ENTITY_RENDER_FLAGS: Wait until Amchuchu (ID: 17826029/0x011000ED) Render.Flags0 and Render.Flags3 conditions are met
 80: 0x149D [0x4A] Midras (ID: 17826030/0x011000EE) looks at LocalPlayer
 81: 0x14A6 [0x6F] WAIT_FRAME_DELAY: Yield until WaitTime reaches zero
 82: 0x14A7 [0x76] CHECK_ENTITY_RENDER_FLAGS: Wait until Midras (ID: 17826030/0x011000EE) Render.Flags0 and Render.Flags3 conditions are met
 83: 0x14AC [0x79] Amchuchu (ID: 17826029/0x011000ED) looks at EventEntity (Basic look)
 84: 0x14B6 [0x79] Midras (ID: 17826030/0x011000EE) looks at EventEntity (Basic look)
 85: 0x14C0 [0x52] END_LOAD_SCHEDULER: End scheduler "s213" with entities [EventEntity, EventEntity], work=636*
 86: 0x14CF [0x45] LOAD_SCHEDULED_TASK: Load scheduler "s214" with entities [EventEntity, EventEntity], work=[636*, 0*]
 87: 0x14E0 [0x81] SET_ENTITY_BLINKING(blink_flag=0x00, entity=Amchuchu (ID: 17826029/0x011000ED))
 88: 0x14E6 [0x03] Work_Zone_1700[0] = 90*
 89: 0x14EB [0x27] REQ_SET(priority=0x10, entity_id=Amchuchu (ID: 17826029/0x011000ED), tag_num=0x2C)
 90: 0x14F2 [0x2B] Amchuchu (ID: 17826029/0x011000ED) [10792*]:
    → "Oh my, <Player>! Junior was just telling-welling me about what happened."
 91: 0x14F9 [0x23] WAIT_FOR_DIALOG_INTERACTION
 92: 0x14FA [0x2A] GET_REQ_LEVEL(level=16, entity_id=Amchuchu (ID: 17826029/0x011000ED))
 93: 0x1500 [0x81] SET_ENTITY_BLINKING(blink_flag=0x01, entity=Amchuchu (ID: 17826029/0x011000ED))
 94: 0x1506 [0x66] LOAD_EXT_SCHEDULER_MAIN: Load scheduler "tlk1" with entities [Amchuchu (ID: 17826029/0x011000ED), Amchuchu (ID: 17826029/0x011000ED)], work=49*
 95: 0x1515 [0x52] END_LOAD_SCHEDULER: End scheduler "s214" with entities [EventEntity, EventEntity], work=636*
 96: 0x1524 [0x45] LOAD_SCHEDULED_TASK: Load scheduler "s20c" with entities [EventEntity, EventEntity], work=[636*, 0*]
 97: 0x1535 [0x1C] WAIT(30* ticks)
 98: 0x1538 [0x03] Work_Zone_1700[0] = 120*
 99: 0x153D [0x27] REQ_SET(priority=0x10, entity_id=Midras (ID: 17826030/0x011000EE), tag_num=0x09)
100: 0x1544 [0x2B] Midras (ID: 17826030/0x011000EE) [10793*]:
    → "You made it back!"
101: 0x154B [0x23] WAIT_FOR_DIALOG_INTERACTION
102: 0x154C [0x4A] LocalPlayer looks at Midras (ID: 17826030/0x011000EE)
103: 0x1555 [0x2A] GET_REQ_LEVEL(level=16, entity_id=Midras (ID: 17826030/0x011000EE))
104: 0x155B [0x79] Amchuchu (ID: 17826029/0x011000ED) looks at LocalPlayer (Basic look)
