# 17826031 - Hektor

## Common Data

| Field            | Value                     |
|------------------|---------------------------|
| Zone             | Western Adoulin (ID: 256) |
| Block Size       | 200 bytes                 |
| Total Events     | 6                         |
| References Count | 17                        |

## List of Events

| Event ID                 | Entrypoint   |   Size |   Instructions |
|--------------------------|--------------|--------|----------------|
| [65535](#event-65535)    | 0x0000       |      1 |              1 |
| [5087](#event-5087)      | 0x0001       |      3 |              2 |
| [65535.1](#event-655351) | 0x0004       |     21 |              7 |
| [65535.2](#event-655352) | 0x0019       |     18 |              6 |
| [65535.3](#event-655353) | 0x002B       |     15 |              5 |
| [65535.4](#event-655354) | 0x003A       |     32 |              9 |

## DAT References (imed_data)

|   Index | Hex Value   |   Dec Value |
|---------|-------------|-------------|
|       0 | 0x000D      |          13 |
|       1 | 0x18C7C     |      101500 |
|       2 | 0xFFFEBEB6  |  4294885046 |
|       3 | 0xFFFFFD75  |  4294966645 |
|       4 | 0x000A      |          10 |
|       5 | 0xFFFFFA01  |  4294965761 |
|       6 | 0x18A88     |      101000 |
|       7 | 0xFFFEC088  |  4294885512 |
|       8 | 0xFFFFFA21  |  4294965793 |
|       9 | 0x17CDC     |       97500 |
|      10 | 0xFFFECD7A  |  4294888826 |
|      11 | 0x01FF      |         511 |
|      12 | 0x18AA0     |      101024 |
|      13 | 0xFFFEC000  |  4294885376 |
|      14 | 0x1A7D4     |      108500 |
|      15 | 0xFFFEDCFC  |  4294892796 |
|      16 | 0xFFFFFD76  |  4294966646 |

## Events

### Event 65535

#### Metadata

| Field        | Value   |
|--------------|---------|
| Entrypoint   | 0x0000  |
| Data Size    | 1 bytes |
| Instructions | 1       |

```
      00 01 02 03 04 05 06 07  08 09 0A 0B 0C 0D 0E 0F
      -- -- -- -- -- -- -- --  -- -- -- -- -- -- -- --
0000: 00                                                .               
```

#### Opcodes

```
  0: 0x0000 [0x00] END_REQSTACK()
```

### Event 5087

#### Metadata

| Field        | Value   |
|--------------|---------|
| Entrypoint   | 0x0001  |
| Data Size    | 3 bytes |
| Instructions | 2       |

```
      00 01 02 03 04 05 06 07  08 09 0A 0B 0C 0D 0E 0F
      -- -- -- -- -- -- -- --  -- -- -- -- -- -- -- --
0000:    A4 01 00                                        ...            
```

#### Opcodes

```
  0: 0x0001 [0xA4] EventEntity->Flags3.unknown_3_2 = 1
  1: 0x0003 [0x00] END_REQSTACK()
```

### Event 65535.1

#### Metadata

| Field        | Value    |
|--------------|----------|
| Entrypoint   | 0x0004   |
| Data Size    | 21 bytes |
| Instructions | 7        |

```
      00 01 02 03 04 05 06 07  08 09 0A 0B 0C 0D 0E 0F
      -- -- -- -- -- -- -- --  -- -- -- -- -- -- -- --
0000:             32 00 80 1F  00 01 80 02 80 03 80 1F      2...........
0010: 01 6F 1C 04 80 39 05 80  00                       .o...9...       
```

#### Opcodes

```
  0: 0x0004 [0x32] ExtData[1]->MainSpeed = 13* * 0.1
  1: 0x0007 [0x1F] MOVE_ENTITY: EventEntity moves to X=101.500*, Z=-82.250*, Y=-0.651*
  2: 0x000F [0x1F] MOVE_ENTITY: Update entity position (mode=1)
  3: 0x0011 [0x6F] WAIT_FRAME_DELAY: Yield until WaitTime reaches zero
  4: 0x0012 [0x1C] WAIT(10* ticks)
  5: 0x0015 [0x39] SET_ENTITY_DIRECTION(direction=351.6°*)
  6: 0x0018 [0x00] END_REQSTACK()
```

### Event 65535.2

#### Metadata

| Field        | Value    |
|--------------|----------|
| Entrypoint   | 0x0019   |
| Data Size    | 18 bytes |
| Instructions | 6        |

```
      00 01 02 03 04 05 06 07  08 09 0A 0B 0C 0D 0E 0F
      -- -- -- -- -- -- -- --  -- -- -- -- -- -- -- --
0010:                             32 00 80 1F 00 06 80           2......
0020: 07 80 03 80 1F 01 6F 39  08 80 00                 ......o9...     
```

#### Opcodes

```
  0: 0x0019 [0x32] ExtData[1]->MainSpeed = 13* * 0.1
  1: 0x001C [0x1F] MOVE_ENTITY: EventEntity moves to X=101.000*, Z=-81.784*, Y=-0.651*
  2: 0x0024 [0x1F] MOVE_ENTITY: Update entity position (mode=1)
  3: 0x0026 [0x6F] WAIT_FRAME_DELAY: Yield until WaitTime reaches zero
  4: 0x0027 [0x39] SET_ENTITY_DIRECTION(direction=351.7°*)
  5: 0x002A [0x00] END_REQSTACK()
```

### Event 65535.3

#### Metadata

| Field        | Value    |
|--------------|----------|
| Entrypoint   | 0x002B   |
| Data Size    | 15 bytes |
| Instructions | 5        |

```
      00 01 02 03 04 05 06 07  08 09 0A 0B 0C 0D 0E 0F
      -- -- -- -- -- -- -- --  -- -- -- -- -- -- -- --
0020:                                   32 00 80 1F 00             2....
0030: 09 80 0A 80 03 80 1F 01  6F 00                    ........o.      
```

#### Opcodes

```
  0: 0x002B [0x32] ExtData[1]->MainSpeed = 13* * 0.1
  1: 0x002E [0x1F] MOVE_ENTITY: EventEntity moves to X=97.500*, Z=-78.470*, Y=-0.651*
  2: 0x0036 [0x1F] MOVE_ENTITY: Update entity position (mode=1)
  3: 0x0038 [0x6F] WAIT_FRAME_DELAY: Yield until WaitTime reaches zero
  4: 0x0039 [0x00] END_REQSTACK()
```

### Event 65535.4

#### Metadata

| Field        | Value    |
|--------------|----------|
| Entrypoint   | 0x003A   |
| Data Size    | 32 bytes |
| Instructions | 9        |

```
      00 01 02 03 04 05 06 07  08 09 0A 0B 0C 0D 0E 0F
      -- -- -- -- -- -- -- --  -- -- -- -- -- -- -- --
0030:                                39 0B 80 1C 04 80            9.....
0040: 32 00 80 1F 00 0C 80 0D  80 03 80 1F 01 1F 00 0E  2...............
0050: 80 0F 80 10 80 1F 01 22  01 00                    ......."..      
```

#### Opcodes

```
  0: 0x003A [0x39] SET_ENTITY_DIRECTION(direction=2.8°*)
  1: 0x003D [0x1C] WAIT(10* ticks)
  2: 0x0040 [0x32] ExtData[1]->MainSpeed = 13* * 0.1
  3: 0x0043 [0x1F] MOVE_ENTITY: EventEntity moves to X=101.024*, Z=-81.920*, Y=-0.651*
  4: 0x004B [0x1F] MOVE_ENTITY: Update entity position (mode=1)
  5: 0x004D [0x1F] MOVE_ENTITY: EventEntity moves to X=108.500*, Z=-74.500*, Y=-0.650*
  6: 0x0055 [0x1F] MOVE_ENTITY: Update entity position (mode=1)
  7: 0x0057 [0x22] ENTITY_HIDE_FLAG(enabled=0x01)
  8: 0x0059 [0x00] END_REQSTACK()
```
