# 17826068 - Virsaint

## Common Data

| Field            | Value                     |
|------------------|---------------------------|
| Zone             | Western Adoulin (ID: 256) |
| Block Size       | 348 bytes                 |
| Total Events     | 13                        |
| References Count | 14                        |

## List of Events

| Event ID                 | Entrypoint   |   Size |   Instructions |
|--------------------------|--------------|--------|----------------|
| [65535](#event-65535)    | 0x0000       |      1 |              1 |
| [540](#event-540)        | 0x0001       |     96 |             19 |
| [2556](#event-2556)      | 0x0061       |     53 |             15 |
| [89](#event-89)          | 0x0096       |      1 |              1 |
| [93](#event-93)          | 0x0097       |      1 |              1 |
| [94](#event-94)          | 0x0098       |      1 |              1 |
| [95](#event-95)          | 0x0099       |      1 |              1 |
| [96](#event-96)          | 0x009A       |      1 |              1 |
| [97](#event-97)          | 0x009B       |      1 |              1 |
| [172](#event-172)        | 0x009C       |      1 |              1 |
| [65535.1](#event-655351) | 0x009D       |     16 |              5 |
| [5219](#event-5219)      | 0x00AD       |     48 |             10 |
| [5218](#event-5218)      | 0x00DD       |      1 |              1 |

## DAT References (imed_data)

|   Index | Hex Value   |   Dec Value |
|---------|-------------|-------------|
|       0 | 0x0004      |           4 |
|       1 | 0x0000      |           0 |
|       2 | 0x2652      |        9810 |
|       3 | 0x2653      |        9811 |
|       4 | 0x0002      |           2 |
|       5 | 0x2654      |        9812 |
|       6 | 0x2655      |        9813 |
|       7 | 0x1F22      |        7970 |
|       8 | 0x1F23      |        7971 |
|       9 | 0x1F24      |        7972 |
|      10 | 0x000D      |          13 |
|      11 | 0x32EE      |       13038 |
|      12 | 0xFFFFFE6C  |  4294966892 |
|      13 | 0x2B4F      |       11087 |

## String References

- **7970**: Performing random acts of kindness for Adoulinians again? How thoughtful.
- **7971**: On one hand, I'm sorry we don't have any work for you. On the other, it's a relief that all's well.
- **7972**: Have you ever noticed the fountain here in Platea Triumphus? It's named Fontis Xanira, after one of the knights who fought beside the founder king against the continent's evil forces.
- **9810**: The leaders of the six coalitions are all termed "maesters." I guess it's logical enough, seeing as how they are masters of their trade, but "master" just doesn't have the same ring to it.
- **9811**: Anyway, the other half of Adoulin's council seats are filled by the six ministers, for a total of twelve representatives, all belonging to one of "the Twelve Orders." ...Yeah, that last name isn't quite so impressive.
- **9812**: Thanks for listening to me. Not enough people stop and talk to each other these days. In return for your kindness, why don't I tell you a little secret about one of the meisters?
- **9813**: Rumor has it that Maester Reginald of the Couriers' Coalition is a spy sent from the Middle Lands so that Jeuno can annex Ulbuka and reap its abundant harvests! That's why he's so by-the-book...to cover his tracks!
- **11087**: Should you be unaware, this locale is reserved for performances by the various troupes and revues of the Mummers' Coalition. [The next show will not be for a while./You are in luck! The next show is about to begin.]

## Events

### Event 65535

#### Metadata

| Field        | Value   |
|--------------|---------|
| Entrypoint   | 0x0000  |
| Data Size    | 1 bytes |
| Instructions | 1       |

```
      00 01 02 03 04 05 06 07  08 09 0A 0B 0C 0D 0E 0F
      -- -- -- -- -- -- -- --  -- -- -- -- -- -- -- --
0000: 00                                                .               
```

#### Opcodes

```
  0: 0x0000 [0x00] END_REQSTACK()
```

### Event 540

#### Metadata

| Field        | Value    |
|--------------|----------|
| Entrypoint   | 0x0001   |
| Data Size    | 96 bytes |
| Instructions | 19       |

```
      00 01 02 03 04 05 06 07  08 09 0A 0B 0C 0D 0E 0F
      -- -- -- -- -- -- -- --  -- -- -- -- -- -- -- --
0000:    1E F0 FF FF 7F 6F 70  02 03 10 00 80 03 39 00   .....op......9.
0010: 66 01 80 F8 FF FF 7F F8  FF FF 7F 74 6C 6B 30 1D  f..........tlk0.
0020: 02 80 23 1D 03 80 23 66  01 80 F8 FF FF 7F F8 FF  ..#...#f........
0030: FF 7F 74 65 6E 30 01 5F  00 66 04 80 F8 FF FF 7F  ..ten0._.f......
0040: F8 FF FF 7F 74 6C 64 30  1D 05 80 23 1D 06 80 23  ....tld0...#...#
0050: 66 04 80 F8 FF FF 7F F8  FF FF 7F 74 6C 64 31 21  f..........tld1!
0060: 00                                                .               
```

#### Opcodes

```
  0: 0x0001 [0x1E] EventEntity looks at LocalPlayer and starts talking
  1: 0x0006 [0x6F] WAIT_FRAME_DELAY: Yield until WaitTime reaches zero
  2: 0x0007 [0x70] WAIT_ENTITY_RENDER_FLAG: Wait while EventEntity->Render.Flags3 bit 2 is set (cancel turn if not)
  3: 0x0008 [0x02] IF !(Work_Zone[3] >= 4*) GOTO 0x0039
  4: 0x0010 [0x66] LOAD_EXT_SCHEDULER_MAIN: Load scheduler "tlk0" with entities [EventEntity, EventEntity], work=0*
  5: 0x001F [0x1D] PRINT_EVENT_MESSAGE(message_id=9810*)
    → "The leaders of the six coalitions are all termed "maesters." I guess it's logical enough, seeing as how they are masters of their trade, but "master" just doesn't have the same ring to it."
  6: 0x0022 [0x23] WAIT_FOR_DIALOG_INTERACTION
  7: 0x0023 [0x1D] PRINT_EVENT_MESSAGE(message_id=9811*)
    → "Anyway, the other half of Adoulin's council seats are filled by the six ministers, for a total of twelve representatives, all belonging to one of "the Twelve Orders." ...Yeah, that last name isn't quite so impressive."
  8: 0x0026 [0x23] WAIT_FOR_DIALOG_INTERACTION
  9: 0x0027 [0x66] LOAD_EXT_SCHEDULER_MAIN: Load scheduler "ten0" with entities [EventEntity, EventEntity], work=0*
 10: 0x0036 [0x01] GOTO 0x005F
 11: 0x0039 [0x66] LOAD_EXT_SCHEDULER_MAIN: Load scheduler "tld0" with entities [EventEntity, EventEntity], work=2*
 12: 0x0048 [0x1D] PRINT_EVENT_MESSAGE(message_id=9812*)
    → "Thanks for listening to me. Not enough people stop and talk to each other these days. In return for your kindness, why don't I tell you a little secret about one of the meisters?"
 13: 0x004B [0x23] WAIT_FOR_DIALOG_INTERACTION
 14: 0x004C [0x1D] PRINT_EVENT_MESSAGE(message_id=9813*)
    → "Rumor has it that Maester Reginald of the Couriers' Coalition is a spy sent from the Middle Lands so that Jeuno can annex Ulbuka and reap its abundant harvests! That's why he's so by-the-book...to cover his tracks!"
 15: 0x004F [0x23] WAIT_FOR_DIALOG_INTERACTION
 16: 0x0050 [0x66] LOAD_EXT_SCHEDULER_MAIN: Load scheduler "tld1" with entities [EventEntity, EventEntity], work=2*

SUBROUTINE_005F:
 17: 0x005F [0x21] END_EVENT
 18: 0x0060 [0x00] END_REQSTACK()
```

### Event 2556

#### Metadata

| Field        | Value    |
|--------------|----------|
| Entrypoint   | 0x0061   |
| Data Size    | 53 bytes |
| Instructions | 15       |

```
      00 01 02 03 04 05 06 07  08 09 0A 0B 0C 0D 0E 0F
      -- -- -- -- -- -- -- --  -- -- -- -- -- -- -- --
0060:    1E F0 FF FF 7F 42 6F  70 66 01 80 F8 FF FF 7F   .....Bopf......
0070: F8 FF FF 7F 74 6C 6B 30  1D 07 80 23 1D 08 80 23  ....tlk0...#...#
0080: 1D 09 80 23 66 01 80 F8  FF FF 7F F8 FF FF 7F 74  ...#f..........t
0090: 65 6E 30 2E 21 00                                 en0.!.          
```

#### Opcodes

```
  0: 0x0061 [0x1E] EventEntity looks at LocalPlayer and starts talking
  1: 0x0066 [0x42] SET_CLI_EVENT_CANCEL_DATA()
  2: 0x0067 [0x6F] WAIT_FRAME_DELAY: Yield until WaitTime reaches zero
  3: 0x0068 [0x70] WAIT_ENTITY_RENDER_FLAG: Wait while EventEntity->Render.Flags3 bit 2 is set (cancel turn if not)
  4: 0x0069 [0x66] LOAD_EXT_SCHEDULER_MAIN: Load scheduler "tlk0" with entities [EventEntity, EventEntity], work=0*
  5: 0x0078 [0x1D] PRINT_EVENT_MESSAGE(message_id=7970*)
    → "Performing random acts of kindness for Adoulinians again? How thoughtful."
  6: 0x007B [0x23] WAIT_FOR_DIALOG_INTERACTION
  7: 0x007C [0x1D] PRINT_EVENT_MESSAGE(message_id=7971*)
    → "On one hand, I'm sorry we don't have any work for you. On the other, it's a relief that all's well."
  8: 0x007F [0x23] WAIT_FOR_DIALOG_INTERACTION
  9: 0x0080 [0x1D] PRINT_EVENT_MESSAGE(message_id=7972*)
    → "Have you ever noticed the fountain here in Platea Triumphus? It's named Fontis Xanira, after one of the knights who fought beside the founder king against the continent's evil forces."
 10: 0x0083 [0x23] WAIT_FOR_DIALOG_INTERACTION
 11: 0x0084 [0x66] LOAD_EXT_SCHEDULER_MAIN: Load scheduler "ten0" with entities [EventEntity, EventEntity], work=0*
 12: 0x0093 [0x2E] SET_CLI_EVENT_CANCEL_FLAGS()
 13: 0x0094 [0x21] END_EVENT
 14: 0x0095 [0x00] END_REQSTACK()
```

### Event 89

#### Metadata

| Field        | Value   |
|--------------|---------|
| Entrypoint   | 0x0096  |
| Data Size    | 1 bytes |
| Instructions | 1       |

```
      00 01 02 03 04 05 06 07  08 09 0A 0B 0C 0D 0E 0F
      -- -- -- -- -- -- -- --  -- -- -- -- -- -- -- --
0090:                   00                                    .         
```

#### Opcodes

```
  0: 0x0096 [0x00] END_REQSTACK()
```

### Event 93

#### Metadata

| Field        | Value   |
|--------------|---------|
| Entrypoint   | 0x0097  |
| Data Size    | 1 bytes |
| Instructions | 1       |

```
      00 01 02 03 04 05 06 07  08 09 0A 0B 0C 0D 0E 0F
      -- -- -- -- -- -- -- --  -- -- -- -- -- -- -- --
0090:                      00                                  .        
```

#### Opcodes

```
  0: 0x0097 [0x00] END_REQSTACK()
```

### Event 94

#### Metadata

| Field        | Value   |
|--------------|---------|
| Entrypoint   | 0x0098  |
| Data Size    | 1 bytes |
| Instructions | 1       |

```
      00 01 02 03 04 05 06 07  08 09 0A 0B 0C 0D 0E 0F
      -- -- -- -- -- -- -- --  -- -- -- -- -- -- -- --
0090:                          00                               .       
```

#### Opcodes

```
  0: 0x0098 [0x00] END_REQSTACK()
```

### Event 95

#### Metadata

| Field        | Value   |
|--------------|---------|
| Entrypoint   | 0x0099  |
| Data Size    | 1 bytes |
| Instructions | 1       |

```
      00 01 02 03 04 05 06 07  08 09 0A 0B 0C 0D 0E 0F
      -- -- -- -- -- -- -- --  -- -- -- -- -- -- -- --
0090:                             00                             .      
```

#### Opcodes

```
  0: 0x0099 [0x00] END_REQSTACK()
```

### Event 96

#### Metadata

| Field        | Value   |
|--------------|---------|
| Entrypoint   | 0x009A  |
| Data Size    | 1 bytes |
| Instructions | 1       |

```
      00 01 02 03 04 05 06 07  08 09 0A 0B 0C 0D 0E 0F
      -- -- -- -- -- -- -- --  -- -- -- -- -- -- -- --
0090:                                00                           .     
```

#### Opcodes

```
  0: 0x009A [0x00] END_REQSTACK()
```

### Event 97

#### Metadata

| Field        | Value   |
|--------------|---------|
| Entrypoint   | 0x009B  |
| Data Size    | 1 bytes |
| Instructions | 1       |

```
      00 01 02 03 04 05 06 07  08 09 0A 0B 0C 0D 0E 0F
      -- -- -- -- -- -- -- --  -- -- -- -- -- -- -- --
0090:                                   00                         .    
```

#### Opcodes

```
  0: 0x009B [0x00] END_REQSTACK()
```

### Event 172

#### Metadata

| Field        | Value   |
|--------------|---------|
| Entrypoint   | 0x009C  |
| Data Size    | 1 bytes |
| Instructions | 1       |

```
      00 01 02 03 04 05 06 07  08 09 0A 0B 0C 0D 0E 0F
      -- -- -- -- -- -- -- --  -- -- -- -- -- -- -- --
0090:                                      00                       .   
```

#### Opcodes

```
  0: 0x009C [0x00] END_REQSTACK()
```

### Event 65535.1

#### Metadata

| Field        | Value    |
|--------------|----------|
| Entrypoint   | 0x009D   |
| Data Size    | 16 bytes |
| Instructions | 5        |

```
      00 01 02 03 04 05 06 07  08 09 0A 0B 0C 0D 0E 0F
      -- -- -- -- -- -- -- --  -- -- -- -- -- -- -- --
0090:                                         32 0A 80               2..
00A0: 1F 00 0B 80 0C 80 01 80  1F 01 22 01 00           .........."..   
```

#### Opcodes

```
  0: 0x009D [0x32] ExtData[1]->MainSpeed = 13* * 0.1
  1: 0x00A0 [0x1F] MOVE_ENTITY: EventEntity moves to X=13.038*, Z=-0.404*, Y=0.000*
  2: 0x00A8 [0x1F] MOVE_ENTITY: Update entity position (mode=1)
  3: 0x00AA [0x22] ENTITY_HIDE_FLAG(enabled=0x01)
  4: 0x00AC [0x00] END_REQSTACK()
```

### Event 5219

#### Metadata

| Field        | Value    |
|--------------|----------|
| Entrypoint   | 0x00AD   |
| Data Size    | 48 bytes |
| Instructions | 10       |

```
      00 01 02 03 04 05 06 07  08 09 0A 0B 0C 0D 0E 0F
      -- -- -- -- -- -- -- --  -- -- -- -- -- -- -- --
00A0:                                         1E F0 FF               ...
00B0: FF 7F 6F 70 66 01 80 F8  FF FF 7F F8 FF FF 7F 74  ..opf..........t
00C0: 6C 6B 30 03 02 10 01 80  1D 0D 80 23 66 01 80 F8  lk0........#f...
00D0: FF FF 7F F8 FF FF 7F 74  65 6E 30 21 00           .......ten0!.   
```

#### Opcodes

```
  0: 0x00AD [0x1E] EventEntity looks at LocalPlayer and starts talking
  1: 0x00B2 [0x6F] WAIT_FRAME_DELAY: Yield until WaitTime reaches zero
  2: 0x00B3 [0x70] WAIT_ENTITY_RENDER_FLAG: Wait while EventEntity->Render.Flags3 bit 2 is set (cancel turn if not)
  3: 0x00B4 [0x66] LOAD_EXT_SCHEDULER_MAIN: Load scheduler "tlk0" with entities [EventEntity, EventEntity], work=0*
  4: 0x00C3 [0x03] Work_Zone[2] = 0*
  5: 0x00C8 [0x1D] PRINT_EVENT_MESSAGE(message_id=11087*)
    → "Should you be unaware, this locale is reserved for performances by the various troupes and revues of the Mummers' Coalition. [The next show will not be for a while./You are in luck! The next show is about to begin.]"
  6: 0x00CB [0x23] WAIT_FOR_DIALOG_INTERACTION
  7: 0x00CC [0x66] LOAD_EXT_SCHEDULER_MAIN: Load scheduler "ten0" with entities [EventEntity, EventEntity], work=0*
  8: 0x00DB [0x21] END_EVENT
  9: 0x00DC [0x00] END_REQSTACK()
```

### Event 5218

#### Metadata

| Field        | Value   |
|--------------|---------|
| Entrypoint   | 0x00DD  |
| Data Size    | 1 bytes |
| Instructions | 1       |

```
      00 01 02 03 04 05 06 07  08 09 0A 0B 0C 0D 0E 0F
      -- -- -- -- -- -- -- --  -- -- -- -- -- -- -- --
00D0:                                         00                     .  
```

#### Opcodes

```
  0: 0x00DD [0x00] END_REQSTACK()
```
