# 17825993 - Pagnelle

## Common Data

| Field            | Value                     |
|------------------|---------------------------|
| Zone             | Western Adoulin (ID: 256) |
| Block Size       | 604 bytes                 |
| Total Events     | 19                        |
| References Count | 31                        |

## List of Events

| Event ID                 | Entrypoint   |   Size |   Instructions |
|--------------------------|--------------|--------|----------------|
| [65535](#event-65535)    | 0x0000       |      1 |              1 |
| [5032](#event-5032)      | 0x0001       |      7 |              2 |
| [5056](#event-5056)      | 0x0008       |      7 |              2 |
| [65535.1](#event-655351) | 0x000F       |     14 |              4 |
| [65535.2](#event-655352) | 0x001D       |     30 |              6 |
| [5061](#event-5061)      | 0x003B       |      7 |              2 |
| [5033](#event-5033)      | 0x0042       |     33 |              9 |
| [5035](#event-5035)      | 0x0063       |      7 |              2 |
| [5036](#event-5036)      | 0x006A       |     42 |             12 |
| [5037](#event-5037)      | 0x0094       |      7 |              2 |
| [65535.3](#event-655353) | 0x009B       |     19 |              5 |
| [65535.4](#event-655354) | 0x00AE       |     22 |              6 |
| [5038](#event-5038)      | 0x00C4       |     33 |              9 |
| [5039](#event-5039)      | 0x00E5       |      7 |              2 |
| [65535.5](#event-655355) | 0x00EC       |     19 |              5 |
| [65535.6](#event-655356) | 0x00FF       |     54 |              8 |
| [65535.7](#event-655357) | 0x0135       |     14 |              4 |
| [5040](#event-5040)      | 0x0143       |     29 |              7 |
| [5041](#event-5041)      | 0x0160       |     33 |              9 |

## DAT References (imed_data)

|   Index | Hex Value   |   Dec Value |
|---------|-------------|-------------|
|       0 | 0x0028      |          40 |
|       1 | 0xFFFFE5CD  |  4294960589 |
|       2 | 0xFFFE8170  |  4294869360 |
|       3 | 0xFFFFFF6C  |  4294967148 |
|       4 | 0x000D      |          13 |
|       5 | 0xFFFFE3ED  |  4294960109 |
|       6 | 0xFFFE99A4  |  4294875556 |
|       7 | 0x0000      |           0 |
|       8 | 0x0027      |          39 |
|       9 | 0x001E      |          30 |
|      10 | 0x242B      |        9259 |
|      11 | 0x242E      |        9262 |
|      12 | 0x2472      |        9330 |
|      13 | 0x0003      |           3 |
|      14 | 0x2473      |        9331 |
|      15 | 0x2475      |        9333 |
|      16 | 0xFFFFE587  |  4294960519 |
|      17 | 0xFFFE8239  |  4294869561 |
|      18 | 0x0577      |        1399 |
|      19 | 0xFFFFDE16  |  4294958614 |
|      20 | 0xFFFE76E6  |  4294866662 |
|      21 | 0x24A4      |        9380 |
|      22 | 0x24A5      |        9381 |
|      23 | 0x03F6      |        1014 |
|      24 | 0xFFFE9E65  |  4294876773 |
|      25 | 0x0041      |          65 |
|      26 | 0x01F7      |         503 |
|      27 | 0xFFFE95A8  |  4294874536 |
|      28 | 0x24B3      |        9395 |
|      29 | 0x24B4      |        9396 |
|      30 | 0x24B5      |        9397 |

## String References

- **9259**: Please, I beg of you--go to Ilney, and listen to his story.
- **9262**: I'll be here waiting for news from Ilney!
- **9330**: Will you help me by going to gather some? They grow in the forests outside of Adoulin proper.
- **9331**: I realize time is of the essence, but I'd like to give one to each of our raptors, so a total of...$0 should be sufficient.
- **9333**: I beg of you, find some rockberries for the poor raptors!
- **9380**: The Maester said to wait by the Peacekeepers' Coalition's station down in Rala Waterways...
- **9381**: ...But what does she think is going to happen?
- **9395**: Remember that all fights take place in the Rala Waterways Watergarden Coliseum. I hope to see you there sometime, <Player>.
- **9396**: Did you enjoy the recent fights?
- **9397**: Tirrod really put on a spectacular show for everyone. The way the spectators cheered and whistled really hit home for me.

## Events

### Event 65535

#### Metadata

| Field        | Value   |
|--------------|---------|
| Entrypoint   | 0x0000  |
| Data Size    | 1 bytes |
| Instructions | 1       |

```
      00 01 02 03 04 05 06 07  08 09 0A 0B 0C 0D 0E 0F
      -- -- -- -- -- -- -- --  -- -- -- -- -- -- -- --
0000: 00                                                .               
```

#### Opcodes

```
  0: 0x0000 [0x00] END_REQSTACK()
```

### Event 5032

#### Metadata

| Field        | Value   |
|--------------|---------|
| Entrypoint   | 0x0001  |
| Data Size    | 7 bytes |
| Instructions | 2       |

```
      00 01 02 03 04 05 06 07  08 09 0A 0B 0C 0D 0E 0F
      -- -- -- -- -- -- -- --  -- -- -- -- -- -- -- --
0000:    92 01 F8 FF FF 7F 00                            .......        
```

#### Opcodes

```
  0: 0x0001 [0x92] EventEntity->Render.Flags3 ^= 0x01
  1: 0x0007 [0x00] END_REQSTACK()
```

### Event 5056

#### Metadata

| Field        | Value   |
|--------------|---------|
| Entrypoint   | 0x0008  |
| Data Size    | 7 bytes |
| Instructions | 2       |

```
      00 01 02 03 04 05 06 07  08 09 0A 0B 0C 0D 0E 0F
      -- -- -- -- -- -- -- --  -- -- -- -- -- -- -- --
0000:                          92 01 F8 FF FF 7F 00             ....... 
```

#### Opcodes

```
  0: 0x0008 [0x92] EventEntity->Render.Flags3 ^= 0x01
  1: 0x000E [0x00] END_REQSTACK()
```

### Event 65535.1

#### Metadata

| Field        | Value    |
|--------------|----------|
| Entrypoint   | 0x000F   |
| Data Size    | 14 bytes |
| Instructions | 4        |

```
      00 01 02 03 04 05 06 07  08 09 0A 0B 0C 0D 0E 0F
      -- -- -- -- -- -- -- --  -- -- -- -- -- -- -- --
0000:                                               32                 2
0010: 00 80 1F 00 01 80 02 80  03 80 1F 01 00           .............   
```

#### Opcodes

```
  0: 0x000F [0x32] ExtData[1]->MainSpeed = 40* * 0.1
  1: 0x0012 [0x1F] MOVE_ENTITY: EventEntity moves to X=-6.707*, Z=-97.936*, Y=-0.148*
  2: 0x001A [0x1F] MOVE_ENTITY: Update entity position (mode=1)
  3: 0x001C [0x00] END_REQSTACK()
```

### Event 65535.2

#### Metadata

| Field        | Value    |
|--------------|----------|
| Entrypoint   | 0x001D   |
| Data Size    | 30 bytes |
| Instructions | 6        |

```
      00 01 02 03 04 05 06 07  08 09 0A 0B 0C 0D 0E 0F
      -- -- -- -- -- -- -- --  -- -- -- -- -- -- -- --
0010:                                         32 04 80               2..
0020: 1F 00 05 80 06 80 07 80  1F 01 6F 66 08 80 F8 FF  ..........of....
0030: FF 7F F8 FF FF 7F 74 6C  6B 30 00                 ......tlk0.     
```

#### Opcodes

```
  0: 0x001D [0x32] ExtData[1]->MainSpeed = 13* * 0.1
  1: 0x0020 [0x1F] MOVE_ENTITY: EventEntity moves to X=-7.187*, Z=-91.740*, Y=0.000*
  2: 0x0028 [0x1F] MOVE_ENTITY: Update entity position (mode=1)
  3: 0x002A [0x6F] WAIT_FRAME_DELAY: Yield until WaitTime reaches zero
  4: 0x002B [0x66] LOAD_EXT_SCHEDULER_MAIN: Load scheduler "tlk0" with entities [EventEntity, EventEntity], work=39*
  5: 0x003A [0x00] END_REQSTACK()
```

### Event 5061

#### Metadata

| Field        | Value   |
|--------------|---------|
| Entrypoint   | 0x003B  |
| Data Size    | 7 bytes |
| Instructions | 2       |

```
      00 01 02 03 04 05 06 07  08 09 0A 0B 0C 0D 0E 0F
      -- -- -- -- -- -- -- --  -- -- -- -- -- -- -- --
0030:                                   92 01 F8 FF FF             .....
0040: 7F 00                                             ..              
```

#### Opcodes

```
  0: 0x003B [0x92] EventEntity->Render.Flags3 ^= 0x01
  1: 0x0041 [0x00] END_REQSTACK()
```

### Event 5033

#### Metadata

| Field        | Value    |
|--------------|----------|
| Entrypoint   | 0x0042   |
| Data Size    | 33 bytes |
| Instructions | 9        |

```
      00 01 02 03 04 05 06 07  08 09 0A 0B 0C 0D 0E 0F
      -- -- -- -- -- -- -- --  -- -- -- -- -- -- -- --
0040:       1E F0 FF FF 7F 1C  09 80 66 08 80 F8 FF FF    ........f.....
0050: 7F F8 FF FF 7F 74 6C 6B  30 1D 0A 80 23 1D 0B 80  .....tlk0...#...
0060: 23 21 00                                          #!.             
```

#### Opcodes

```
  0: 0x0042 [0x1E] EventEntity looks at LocalPlayer and starts talking
  1: 0x0047 [0x1C] WAIT(30* ticks)
  2: 0x004A [0x66] LOAD_EXT_SCHEDULER_MAIN: Load scheduler "tlk0" with entities [EventEntity, EventEntity], work=39*
  3: 0x0059 [0x1D] PRINT_EVENT_MESSAGE(message_id=9259*)
    → "Please, I beg of you--go to Ilney, and listen to his story."
  4: 0x005C [0x23] WAIT_FOR_DIALOG_INTERACTION
  5: 0x005D [0x1D] PRINT_EVENT_MESSAGE(message_id=9262*)
    → "I'll be here waiting for news from Ilney!"
  6: 0x0060 [0x23] WAIT_FOR_DIALOG_INTERACTION
  7: 0x0061 [0x21] END_EVENT
  8: 0x0062 [0x00] END_REQSTACK()
```

### Event 5035

#### Metadata

| Field        | Value   |
|--------------|---------|
| Entrypoint   | 0x0063  |
| Data Size    | 7 bytes |
| Instructions | 2       |

```
      00 01 02 03 04 05 06 07  08 09 0A 0B 0C 0D 0E 0F
      -- -- -- -- -- -- -- --  -- -- -- -- -- -- -- --
0060:          92 01 F8 FF FF  7F 00                       .......      
```

#### Opcodes

```
  0: 0x0063 [0x92] EventEntity->Render.Flags3 ^= 0x01
  1: 0x0069 [0x00] END_REQSTACK()
```

### Event 5036

#### Metadata

| Field        | Value    |
|--------------|----------|
| Entrypoint   | 0x006A   |
| Data Size    | 42 bytes |
| Instructions | 12       |

```
      00 01 02 03 04 05 06 07  08 09 0A 0B 0C 0D 0E 0F
      -- -- -- -- -- -- -- --  -- -- -- -- -- -- -- --
0060:                                1E F0 FF FF 7F 1C            ......
0070: 09 80 66 08 80 F8 FF FF  7F F8 FF FF 7F 74 6C 6B  ..f..........tlk
0080: 30 1D 0C 80 23 03 02 10  0D 80 1D 0E 80 23 1D 0F  0...#........#..
0090: 80 23 21 00                                       .#!.            
```

#### Opcodes

```
  0: 0x006A [0x1E] EventEntity looks at LocalPlayer and starts talking
  1: 0x006F [0x1C] WAIT(30* ticks)
  2: 0x0072 [0x66] LOAD_EXT_SCHEDULER_MAIN: Load scheduler "tlk0" with entities [EventEntity, EventEntity], work=39*
  3: 0x0081 [0x1D] PRINT_EVENT_MESSAGE(message_id=9330*)
    → "Will you help me by going to gather some? They grow in the forests outside of Adoulin proper."
  4: 0x0084 [0x23] WAIT_FOR_DIALOG_INTERACTION
  5: 0x0085 [0x03] Work_Zone[2] = 3*
  6: 0x008A [0x1D] PRINT_EVENT_MESSAGE(message_id=9331*)
    → "I realize time is of the essence, but I'd like to give one to each of our raptors, so a total of...$0 should be sufficient."
  7: 0x008D [0x23] WAIT_FOR_DIALOG_INTERACTION
  8: 0x008E [0x1D] PRINT_EVENT_MESSAGE(message_id=9333*)
    → "I beg of you, find some rockberries for the poor raptors!"
  9: 0x0091 [0x23] WAIT_FOR_DIALOG_INTERACTION
 10: 0x0092 [0x21] END_EVENT
 11: 0x0093 [0x00] END_REQSTACK()
```

### Event 5037

#### Metadata

| Field        | Value   |
|--------------|---------|
| Entrypoint   | 0x0094  |
| Data Size    | 7 bytes |
| Instructions | 2       |

```
      00 01 02 03 04 05 06 07  08 09 0A 0B 0C 0D 0E 0F
      -- -- -- -- -- -- -- --  -- -- -- -- -- -- -- --
0090:             92 01 F8 FF  FF 7F 00                     .......     
```

#### Opcodes

```
  0: 0x0094 [0x92] EventEntity->Render.Flags3 ^= 0x01
  1: 0x009A [0x00] END_REQSTACK()
```

### Event 65535.3

#### Metadata

| Field        | Value    |
|--------------|----------|
| Entrypoint   | 0x009B   |
| Data Size    | 19 bytes |
| Instructions | 5        |

```
      00 01 02 03 04 05 06 07  08 09 0A 0B 0C 0D 0E 0F
      -- -- -- -- -- -- -- --  -- -- -- -- -- -- -- --
0090:                                   32 04 80 1F 00             2....
00A0: 10 80 11 80 12 80 1F 01  1E CA 00 10 01 00        ..............  
```

#### Opcodes

```
  0: 0x009B [0x32] ExtData[1]->MainSpeed = 13* * 0.1
  1: 0x009E [0x1F] MOVE_ENTITY: EventEntity moves to X=-6.777*, Z=-97.735*, Y=1.399*
  2: 0x00A6 [0x1F] MOVE_ENTITY: Update entity position (mode=1)
  3: 0x00A8 [0x1E] EventEntity looks at Wesley (ID: 17825994/0x011000CA) and starts talking
  4: 0x00AD [0x00] END_REQSTACK()
```

### Event 65535.4

#### Metadata

| Field        | Value    |
|--------------|----------|
| Entrypoint   | 0x00AE   |
| Data Size    | 22 bytes |
| Instructions | 6        |

```
      00 01 02 03 04 05 06 07  08 09 0A 0B 0C 0D 0E 0F
      -- -- -- -- -- -- -- --  -- -- -- -- -- -- -- --
00A0:                                            32 04                2.
00B0: 80 1F 00 13 80 14 80 12  80 1F 01 1E D1 00 10 01  ................
00C0: 1C 09 80 00                                       ....            
```

#### Opcodes

```
  0: 0x00AE [0x32] ExtData[1]->MainSpeed = 13* * 0.1
  1: 0x00B1 [0x1F] MOVE_ENTITY: EventEntity moves to X=-8.682*, Z=-100.634*, Y=1.399*
  2: 0x00B9 [0x1F] MOVE_ENTITY: Update entity position (mode=1)
  3: 0x00BB [0x1E] EventEntity looks at Unnamed NPC (ID: 17826001/0x011000D1) and starts talking
  4: 0x00C0 [0x1C] WAIT(30* ticks)
  5: 0x00C3 [0x00] END_REQSTACK()
```

### Event 5038

#### Metadata

| Field        | Value    |
|--------------|----------|
| Entrypoint   | 0x00C4   |
| Data Size    | 33 bytes |
| Instructions | 9        |

```
      00 01 02 03 04 05 06 07  08 09 0A 0B 0C 0D 0E 0F
      -- -- -- -- -- -- -- --  -- -- -- -- -- -- -- --
00C0:             1E F0 FF FF  7F 1C 09 80 66 08 80 F8      ........f...
00D0: FF FF 7F F8 FF FF 7F 74  6C 6B 30 1D 15 80 23 1D  .......tlk0...#.
00E0: 16 80 23 21 00                                    ..#!.           
```

#### Opcodes

```
  0: 0x00C4 [0x1E] EventEntity looks at LocalPlayer and starts talking
  1: 0x00C9 [0x1C] WAIT(30* ticks)
  2: 0x00CC [0x66] LOAD_EXT_SCHEDULER_MAIN: Load scheduler "tlk0" with entities [EventEntity, EventEntity], work=39*
  3: 0x00DB [0x1D] PRINT_EVENT_MESSAGE(message_id=9380*)
    → "The Maester said to wait by the Peacekeepers' Coalition's station down in Rala Waterways..."
  4: 0x00DE [0x23] WAIT_FOR_DIALOG_INTERACTION
  5: 0x00DF [0x1D] PRINT_EVENT_MESSAGE(message_id=9381*)
    → "...But what does she think is going to happen?"
  6: 0x00E2 [0x23] WAIT_FOR_DIALOG_INTERACTION
  7: 0x00E3 [0x21] END_EVENT
  8: 0x00E4 [0x00] END_REQSTACK()
```

### Event 5039

#### Metadata

| Field        | Value   |
|--------------|---------|
| Entrypoint   | 0x00E5  |
| Data Size    | 7 bytes |
| Instructions | 2       |

```
      00 01 02 03 04 05 06 07  08 09 0A 0B 0C 0D 0E 0F
      -- -- -- -- -- -- -- --  -- -- -- -- -- -- -- --
00E0:                92 01 F8  FF FF 7F 00                   .......    
```

#### Opcodes

```
  0: 0x00E5 [0x92] EventEntity->Render.Flags3 ^= 0x01
  1: 0x00EB [0x00] END_REQSTACK()
```

### Event 65535.5

#### Metadata

| Field        | Value    |
|--------------|----------|
| Entrypoint   | 0x00EC   |
| Data Size    | 19 bytes |
| Instructions | 5        |

```
      00 01 02 03 04 05 06 07  08 09 0A 0B 0C 0D 0E 0F
      -- -- -- -- -- -- -- --  -- -- -- -- -- -- -- --
00E0:                                      32 00 80 1F              2...
00F0: 00 17 80 18 80 07 80 1F  01 1E 95 00 10 01 00     ............... 
```

#### Opcodes

```
  0: 0x00EC [0x32] ExtData[1]->MainSpeed = 40* * 0.1
  1: 0x00EF [0x1F] MOVE_ENTITY: EventEntity moves to X=1.014*, Z=-90.523*, Y=0.000*
  2: 0x00F7 [0x1F] MOVE_ENTITY: Update entity position (mode=1)
  3: 0x00F9 [0x1E] EventEntity looks at Flaviria (ID: 17825941/0x01100095) and starts talking
  4: 0x00FE [0x00] END_REQSTACK()
```

### Event 65535.6

#### Metadata

| Field        | Value    |
|--------------|----------|
| Entrypoint   | 0x00FF   |
| Data Size    | 54 bytes |
| Instructions | 8        |

```
      00 01 02 03 04 05 06 07  08 09 0A 0B 0C 0D 0E 0F
      -- -- -- -- -- -- -- --  -- -- -- -- -- -- -- --
00F0:                                               5B                 [
0100: 19 80 CA 00 10 01 CA 00  10 01 73 74 64 30 66 08  ..........std0f.
0110: 80 C9 00 10 01 C9 00 10  01 74 6C 6B 31 1C 09 80  .........tlk1...
0120: 4A CA 00 10 01 95 00 10  01 1C 09 80 1E 95 00 10  J...............
0130: 01 1C 09 80 00                                    .....           
```

#### Opcodes

```
  0: 0x00FF [0x5B] LOAD_EXT_SCHEDULER: Load scheduler "std0" with entities [Wesley (ID: 17825994/0x011000CA), Wesley (ID: 17825994/0x011000CA)], work=65*
  1: 0x010E [0x66] LOAD_EXT_SCHEDULER_MAIN: Load scheduler "tlk1" with entities [Pagnelle (ID: 17825993/0x011000C9), Pagnelle (ID: 17825993/0x011000C9)], work=39*
  2: 0x011D [0x1C] WAIT(30* ticks)
  3: 0x0120 [0x4A] Wesley (ID: 17825994/0x011000CA) looks at Flaviria (ID: 17825941/0x01100095)
  4: 0x0129 [0x1C] WAIT(30* ticks)
  5: 0x012C [0x1E] EventEntity looks at Flaviria (ID: 17825941/0x01100095) and starts talking
  6: 0x0131 [0x1C] WAIT(30* ticks)
  7: 0x0134 [0x00] END_REQSTACK()
```

### Event 65535.7

#### Metadata

| Field        | Value    |
|--------------|----------|
| Entrypoint   | 0x0135   |
| Data Size    | 14 bytes |
| Instructions | 4        |

```
      00 01 02 03 04 05 06 07  08 09 0A 0B 0C 0D 0E 0F
      -- -- -- -- -- -- -- --  -- -- -- -- -- -- -- --
0130:                32 00 80  1F 00 1A 80 1B 80 07 80       2..........
0140: 1F 01 00                                          ...             
```

#### Opcodes

```
  0: 0x0135 [0x32] ExtData[1]->MainSpeed = 40* * 0.1
  1: 0x0138 [0x1F] MOVE_ENTITY: EventEntity moves to X=0.503*, Z=-92.760*, Y=0.000*
  2: 0x0140 [0x1F] MOVE_ENTITY: Update entity position (mode=1)
  3: 0x0142 [0x00] END_REQSTACK()
```

### Event 5040

#### Metadata

| Field        | Value    |
|--------------|----------|
| Entrypoint   | 0x0143   |
| Data Size    | 29 bytes |
| Instructions | 7        |

```
      00 01 02 03 04 05 06 07  08 09 0A 0B 0C 0D 0E 0F
      -- -- -- -- -- -- -- --  -- -- -- -- -- -- -- --
0140:          1E F0 FF FF 7F  1C 09 80 66 08 80 F8 FF     ........f....
0150: FF 7F F8 FF FF 7F 74 6C  6B 30 1D 1C 80 23 21 00  ......tlk0...#!.
```

#### Opcodes

```
  0: 0x0143 [0x1E] EventEntity looks at LocalPlayer and starts talking
  1: 0x0148 [0x1C] WAIT(30* ticks)
  2: 0x014B [0x66] LOAD_EXT_SCHEDULER_MAIN: Load scheduler "tlk0" with entities [EventEntity, EventEntity], work=39*
  3: 0x015A [0x1D] PRINT_EVENT_MESSAGE(message_id=9395*)
    → "Remember that all fights take place in the Rala Waterways Watergarden Coliseum. I hope to see you there sometime, <Player>."
  4: 0x015D [0x23] WAIT_FOR_DIALOG_INTERACTION
  5: 0x015E [0x21] END_EVENT
  6: 0x015F [0x00] END_REQSTACK()
```

### Event 5041

#### Metadata

| Field        | Value    |
|--------------|----------|
| Entrypoint   | 0x0160   |
| Data Size    | 33 bytes |
| Instructions | 9        |

```
      00 01 02 03 04 05 06 07  08 09 0A 0B 0C 0D 0E 0F
      -- -- -- -- -- -- -- --  -- -- -- -- -- -- -- --
0160: 1E F0 FF FF 7F 1C 09 80  66 08 80 F8 FF FF 7F F8  ........f.......
0170: FF FF 7F 74 6C 6B 30 1D  1D 80 23 1D 1E 80 23 21  ...tlk0...#...#!
0180: 00                                                .               
```

#### Opcodes

```
  0: 0x0160 [0x1E] EventEntity looks at LocalPlayer and starts talking
  1: 0x0165 [0x1C] WAIT(30* ticks)
  2: 0x0168 [0x66] LOAD_EXT_SCHEDULER_MAIN: Load scheduler "tlk0" with entities [EventEntity, EventEntity], work=39*
  3: 0x0177 [0x1D] PRINT_EVENT_MESSAGE(message_id=9396*)
    → "Did you enjoy the recent fights?"
  4: 0x017A [0x23] WAIT_FOR_DIALOG_INTERACTION
  5: 0x017B [0x1D] PRINT_EVENT_MESSAGE(message_id=9397*)
    → "Tirrod really put on a spectacular show for everyone. The way the spectators cheered and whistled really hit home for me."
  6: 0x017E [0x23] WAIT_FOR_DIALOG_INTERACTION
  7: 0x017F [0x21] END_EVENT
  8: 0x0180 [0x00] END_REQSTACK()
```
