# 17826185

## Common Data

| Field            | Value                     |
|------------------|---------------------------|
| Zone             | Western Adoulin (ID: 256) |
| Block Size       | 8064 bytes                |
| Total Events     | 2                         |
| References Count | 280                       |

## List of Events

| Event ID              | Entrypoint   |   Size |   Instructions |
|-----------------------|--------------|--------|----------------|
| [65535](#event-65535) | 0x0000       |    658 |             62 |
| [5146](#event-5146)   | 0x0292       |   6262 |           1127 |

## DAT References (imed_data)

|   Index | Hex Value   |   Dec Value |
|---------|-------------|-------------|
|       0 | 0x00C8      |         200 |
|       1 | 0x0000      |           0 |
|       2 | 0x00C9      |         201 |
|       3 | 0x0001      |           1 |
|       4 | 0x002D      |          45 |
|       5 | 0x0002      |           2 |
|       6 | 0x001E      |          30 |
|       7 | 0x00D7      |         215 |
|       8 | 0x001B      |          27 |
|       9 | 0x00A3      |         163 |
|      10 | 0x3F02      |       16130 |
|      11 | 0xFFFE5096  |  4294856854 |
|      12 | 0x07F6      |        2038 |
|      13 | 0x3EC6      |       16070 |
|      14 | 0xFFFE4B32  |  4294855474 |
|      15 | 0x0946      |        2374 |
|      16 | 0x000F      |          15 |
|      17 | 0x02C2      |         706 |
|      18 | 0x0046      |          70 |
|      19 | 0x0A47      |        2631 |
|      20 | 0x333D      |       13117 |
|      21 | 0x333E      |       13118 |
|      22 | 0x0078      |         120 |
|      23 | 0x3326      |       13094 |
|      24 | 0x332A      |       13098 |
|      25 | 0x0005      |           5 |
|      26 | 0x0006      |           6 |
|      27 | 0x332B      |       13099 |
|      28 | 0x0008      |           8 |
|      29 | 0x0064      |         100 |
|      30 | 0x332C      |       13100 |
|      31 | 0x000A      |          10 |
|      32 | 0x006E      |         110 |
|      33 | 0x332D      |       13101 |
|      34 | 0x0003      |           3 |
|      35 | 0x0004      |           4 |
|      36 | 0x0063      |          99 |
|      37 | 0x332E      |       13102 |
|      38 | 0x332F      |       13103 |
|      39 | 0x3330      |       13104 |
|      40 | 0x0007      |           7 |
|      41 | 0x3331      |       13105 |
|      42 | 0x0028      |          40 |
|      43 | 0x3332      |       13106 |
|      44 | 0x0014      |          20 |
|      45 | 0x005A      |          90 |
|      46 | 0x3333      |       13107 |
|      47 | 0x3334      |       13108 |
|      48 | 0x0012      |          18 |
|      49 | 0x003C      |          60 |
|      50 | 0x3335      |       13109 |
|      51 | 0x3336      |       13110 |
|      52 | 0x3337      |       13111 |
|      53 | 0x3338      |       13112 |
|      54 | 0x3339      |       13113 |
|      55 | 0x0032      |          50 |
|      56 | 0x333A      |       13114 |
|      57 | 0x32D2      |       13010 |
|      58 | 0x0023      |          35 |
|      59 | 0x333B      |       13115 |
|      60 | 0x333C      |       13116 |
|      61 | 0x0050      |          80 |
|      62 | 0x333F      |       13119 |
|      63 | 0x32D3      |       13011 |
|      64 | 0x32D4      |       13012 |
|      65 | 0x3340      |       13120 |
|      66 | 0x3341      |       13121 |
|      67 | 0x3342      |       13122 |
|      68 | 0x3343      |       13123 |
|      69 | 0x3344      |       13124 |
|      70 | 0x0190      |         400 |
|      71 | 0x2071      |        8305 |
|      72 | 0x009C      |         156 |
|      73 | 0x007F      |         127 |
|      74 | 0x3220      |       12832 |
|      75 | 0x3221      |       12833 |
|      76 | 0x3222      |       12834 |
|      77 | 0x3223      |       12835 |
|      78 | 0x3224      |       12836 |
|      79 | 0x3225      |       12837 |
|      80 | 0x3226      |       12838 |
|      81 | 0x3227      |       12839 |
|      82 | 0x3228      |       12840 |
|      83 | 0x3229      |       12841 |
|      84 | 0x009A      |         154 |
|      85 | 0x322A      |       12842 |
|      86 | 0x322B      |       12843 |
|      87 | 0x322C      |       12844 |
|      88 | 0x322D      |       12845 |
|      89 | 0x322E      |       12846 |
|      90 | 0x322F      |       12847 |
|      91 | 0x3230      |       12848 |
|      92 | 0x3231      |       12849 |
|      93 | 0x3232      |       12850 |
|      94 | 0x3233      |       12851 |
|      95 | 0x00B4      |         180 |
|      96 | 0x3234      |       12852 |
|      97 | 0x3235      |       12853 |
|      98 | 0x3236      |       12854 |
|      99 | 0x3237      |       12855 |
|     100 | 0x3238      |       12856 |
|     101 | 0x323A      |       12858 |
|     102 | 0x323B      |       12859 |
|     103 | 0x323C      |       12860 |
|     104 | 0x323D      |       12861 |
|     105 | 0x323E      |       12862 |
|     106 | 0x3239      |       12857 |
|     107 | 0x00A2      |         162 |
|     108 | 0x323F      |       12863 |
|     109 | 0x3240      |       12864 |
|     110 | 0x3241      |       12865 |
|     111 | 0x3242      |       12866 |
|     112 | 0x3243      |       12867 |
|     113 | 0x3244      |       12868 |
|     114 | 0x3245      |       12869 |
|     115 | 0x3246      |       12870 |
|     116 | 0x3247      |       12871 |
|     117 | 0x3248      |       12872 |
|     118 | 0x3249      |       12873 |
|     119 | 0x324A      |       12874 |
|     120 | 0x324B      |       12875 |
|     121 | 0x0075      |         117 |
|     122 | 0x324C      |       12876 |
|     123 | 0x324D      |       12877 |
|     124 | 0x324E      |       12878 |
|     125 | 0x324F      |       12879 |
|     126 | 0x3250      |       12880 |
|     127 | 0x3251      |       12881 |
|     128 | 0x3252      |       12882 |
|     129 | 0x3253      |       12883 |
|     130 | 0x3254      |       12884 |
|     131 | 0x3255      |       12885 |
|     132 | 0x3256      |       12886 |
|     133 | 0x3257      |       12887 |
|     134 | 0x3258      |       12888 |
|     135 | 0x3259      |       12889 |
|     136 | 0x325A      |       12890 |
|     137 | 0x325B      |       12891 |
|     138 | 0x325C      |       12892 |
|     139 | 0x325D      |       12893 |
|     140 | 0x325E      |       12894 |
|     141 | 0x325F      |       12895 |
|     142 | 0x3260      |       12896 |
|     143 | 0x3261      |       12897 |
|     144 | 0x3262      |       12898 |
|     145 | 0x3263      |       12899 |
|     146 | 0x3264      |       12900 |
|     147 | 0x3265      |       12901 |
|     148 | 0x3267      |       12903 |
|     149 | 0x3266      |       12902 |
|     150 | 0x3268      |       12904 |
|     151 | 0x3269      |       12905 |
|     152 | 0x0087      |         135 |
|     153 | 0x326A      |       12906 |
|     154 | 0x326B      |       12907 |
|     155 | 0x326C      |       12908 |
|     156 | 0x0473      |        1139 |
|     157 | 0x326D      |       12909 |
|     158 | 0x326E      |       12910 |
|     159 | 0x326F      |       12911 |
|     160 | 0x3270      |       12912 |
|     161 | 0x3271      |       12913 |
|     162 | 0x3272      |       12914 |
|     163 | 0x3273      |       12915 |
|     164 | 0x00B2      |         178 |
|     165 | 0x3274      |       12916 |
|     166 | 0x3275      |       12917 |
|     167 | 0x3276      |       12918 |
|     168 | 0x3277      |       12919 |
|     169 | 0x3278      |       12920 |
|     170 | 0x3279      |       12921 |
|     171 | 0x327A      |       12922 |
|     172 | 0x327B      |       12923 |
|     173 | 0x327C      |       12924 |
|     174 | 0x327D      |       12925 |
|     175 | 0x327E      |       12926 |
|     176 | 0x327F      |       12927 |
|     177 | 0x3280      |       12928 |
|     178 | 0x352A      |       13610 |
|     179 | 0xFFFE5070  |  4294856816 |
|     180 | 0xFFFFFF6A  |  4294967146 |
|     181 | 0x0054      |          84 |
|     182 | 0x0015      |          21 |
|     183 | 0x012C      |         300 |
|     184 | 0x0258      |         600 |
|     185 | 0x3281      |       12929 |
|     186 | 0x3282      |       12930 |
|     187 | 0x3283      |       12931 |
|     188 | 0x3284      |       12932 |
|     189 | 0x3285      |       12933 |
|     190 | 0x3286      |       12934 |
|     191 | 0x3287      |       12935 |
|     192 | 0x3288      |       12936 |
|     193 | 0x3289      |       12937 |
|     194 | 0x328A      |       12938 |
|     195 | 0x328B      |       12939 |
|     196 | 0x328C      |       12940 |
|     197 | 0x328D      |       12941 |
|     198 | 0x0009      |           9 |
|     199 | 0x328E      |       12942 |
|     200 | 0x328F      |       12943 |
|     201 | 0x3290      |       12944 |
|     202 | 0x3291      |       12945 |
|     203 | 0x3292      |       12946 |
|     204 | 0x3293      |       12947 |
|     205 | 0x3294      |       12948 |
|     206 | 0x000B      |          11 |
|     207 | 0x003F      |          63 |
|     208 | 0x3295      |       12949 |
|     209 | 0x3296      |       12950 |
|     210 | 0x3297      |       12951 |
|     211 | 0x3298      |       12952 |
|     212 | 0x3299      |       12953 |
|     213 | 0x329A      |       12954 |
|     214 | 0x329B      |       12955 |
|     215 | 0x329C      |       12956 |
|     216 | 0x329D      |       12957 |
|     217 | 0x329E      |       12958 |
|     218 | 0x329F      |       12959 |
|     219 | 0x32A0      |       12960 |
|     220 | 0x32A2      |       12962 |
|     221 | 0x32A1      |       12961 |
|     222 | 0x32A3      |       12963 |
|     223 | 0x32A4      |       12964 |
|     224 | 0x32A5      |       12965 |
|     225 | 0x32A6      |       12966 |
|     226 | 0x32A7      |       12967 |
|     227 | 0x32A8      |       12968 |
|     228 | 0x32A9      |       12969 |
|     229 | 0x32AA      |       12970 |
|     230 | 0x32AB      |       12971 |
|     231 | 0x32AC      |       12972 |
|     232 | 0x32AD      |       12973 |
|     233 | 0x32AE      |       12974 |
|     234 | 0x32AF      |       12975 |
|     235 | 0x32B0      |       12976 |
|     236 | 0x32B1      |       12977 |
|     237 | 0x32B2      |       12978 |
|     238 | 0x32B3      |       12979 |
|     239 | 0x32B4      |       12980 |
|     240 | 0x0044      |          68 |
|     241 | 0x32B5      |       12981 |
|     242 | 0x32B6      |       12982 |
|     243 | 0x32B7      |       12983 |
|     244 | 0x32B8      |       12984 |
|     245 | 0x32B9      |       12985 |
|     246 | 0x32BA      |       12986 |
|     247 | 0x32BB      |       12987 |
|     248 | 0x32BC      |       12988 |
|     249 | 0x32BD      |       12989 |
|     250 | 0x32BE      |       12990 |
|     251 | 0x32BF      |       12991 |
|     252 | 0x32C0      |       12992 |
|     253 | 0x32C1      |       12993 |
|     254 | 0x32C2      |       12994 |
|     255 | 0x32C3      |       12995 |
|     256 | 0x32C4      |       12996 |
|     257 | 0x32C5      |       12997 |
|     258 | 0x32C6      |       12998 |
|     259 | 0x32C7      |       12999 |
|     260 | 0x32C8      |       13000 |
|     261 | 0x32C9      |       13001 |
|     262 | 0x32CA      |       13002 |
|     263 | 0x32CB      |       13003 |
|     264 | 0x32CC      |       13004 |
|     265 | 0x32CD      |       13005 |
|     266 | 0x32CE      |       13006 |
|     267 | 0x32CF      |       13007 |
|     268 | 0x32D0      |       13008 |
|     269 | 0x00F0      |         240 |
|     270 | 0x003B      |          59 |
|     271 | 0x3345      |       13125 |
|     272 | 0x3346      |       13126 |
|     273 | 0x3347      |       13127 |
|     274 | 0x3348      |       13128 |
|     275 | 0x3349      |       13129 |
|     276 | 0x334A      |       13130 |
|     277 | 0x334B      |       13131 |
|     278 | 0x334C      |       13132 |
|     279 | 0x000D      |          13 |

## String References

- **8305**: @@
- **12856**: How do you respond? [That's right./Nope./Y-yessir!]
- **12885**: How do you respond? [You can always quit, you know./Must have been tough for you./That's quite the wife you've got.]
- **12894**: How do you respond? [Rose on the heath./Tavnazia./@]
- **12930**: How do you respond? [Loud and clear./Where's Abquhbah?/Just what did you do?]
- **12945**: How do you react? [Flaviria?/Arciela?/Who?]
- **13010**: Join which Unity? [I need time to consider./Pieuje./Ayame./Invincible Shield./Apururu./Maat./Aldo./Jakoh Wahcondalo./Naja Salaheem./Flaviria./Yoran-Oran./Sylvie.]
- **13011**: Should you join one Unity, you will not be able to switch to another one until the rankings are tallied. Proceed anyway?
- **13012**: Join [Pieuje's/Ayame's/Invincible Shield's/Apururu's/Maat's/Aldo's/Jakoh Wahcondalo's/Naja Salaheem's/Flaviria's/Yoran-Oran's/Sylvie's] Unity? [Yes./No.]
- **13099**: How do you respond? [There's something fishy about this./I'm interested in Unity Concord./Tell me more about this "playtime."]
- **13101**: Nunaarl Bthtrogg stares you down.
- **13107**: <Bleep>
- **13108**: Nunaarl Bthtrogg shoves the $3 into your hands.
- **13122**: Nunaarl Bthtrogg pokes and prods at your $3.
- **13123**: The $3 writhes in agony!

## Events

### Event 65535

#### Metadata

| Field        | Value     |
|--------------|-----------|
| Entrypoint   | 0x0000    |
| Data Size    | 658 bytes |
| Instructions | 1         |

```
      00 01 02 03 04 05 06 07  08 09 0A 0B 0C 0D 0E 0F
      -- -- -- -- -- -- -- --  -- -- -- -- -- -- -- --
0000: 00 45 00 80 F0 FF FF 7F  F0 FF FF 7F 66 64 69 30  .E..........fdi0
0010: 01 80 55 00 80 F0 FF FF  7F F0 FF FF 7F 66 64 69  ..U..........fdi
0020: 30 1B 45 00 80 F0 FF FF  7F F0 FF FF 7F 66 64 6F  0.E..........fdo
0030: 30 01 80 55 00 80 F0 FF  FF 7F F0 FF FF 7F 66 64  0..U..........fd
0040: 6F 30 1B 45 00 80 F0 FF  FF 7F F0 FF FF 7F 66 64  o0.E..........fd
0050: 69 31 01 80 55 00 80 F0  FF FF 7F F0 FF FF 7F 66  i1..U..........f
0060: 64 69 31 1B 45 00 80 F0  FF FF 7F F0 FF FF 7F 66  di1.E..........f
0070: 64 6F 31 01 80 55 00 80  F0 FF FF 7F F0 FF FF 7F  do1..U..........
0080: 66 64 6F 31 1B 45 02 80  F0 FF FF 7F F0 FF FF 7F  fdo1.E..........
0090: 77 68 69 31 01 80 55 02  80 F0 FF FF 7F F0 FF FF  whi1..U.........
00A0: 7F 77 68 69 31 1B 45 02  80 F0 FF FF 7F F0 FF FF  .whi1.E.........
00B0: 7F 77 68 6F 31 01 80 55  02 80 F0 FF FF 7F F0 FF  .who1..U........
00C0: FF 7F 77 68 6F 31 1B 45  02 80 F0 FF FF 7F F0 FF  ..who1.E........
00D0: FF 7F 77 68 6F 32 01 80  55 02 80 F0 FF FF 7F F0  ..who2..U.......
00E0: FF FF 7F 77 68 6F 32 1B  45 02 80 F0 FF FF 7F F0  ...who2.E.......
00F0: FF FF 7F 77 68 6F 33 01  80 55 02 80 F0 FF FF 7F  ...who3..U......
0100: F0 FF FF 7F 77 68 6F 33  1B 62 03 80 F0 FF FF 7F  ....who3.b......
0110: F0 FF FF 7F 6D 61 69 6E  01 80 1C 04 80 45 00 80  ....main.....E..
0120: F0 FF FF 7F F0 FF FF 7F  66 64 6F 31 01 80 55 00  ........fdo1..U.
0130: 80 F0 FF FF 7F F0 FF FF  7F 66 64 6F 31 1B 45 00  .........fdo1.E.
0140: 80 F0 FF FF 7F F0 FF FF  7F 66 64 69 31 01 80 62  .........fdi1..b
0150: 05 80 F0 FF FF 7F F0 FF  FF 7F 6D 61 69 6E 01 80  ..........main..
0160: 1C 06 80 55 00 80 F0 FF  FF 7F F0 FF FF 7F 66 64  ...U..........fd
0170: 69 31 1B 45 00 80 F0 FF  FF 7F F0 FF FF 7F 62 6C  i1.E..........bl
0180: 6F 6E 01 80 45 02 80 F0  FF FF 7F F0 FF FF 7F 62  on..E..........b
0190: 6C 6F 6E 01 80 1B 45 02  80 F0 FF FF 7F F0 FF FF  lon...E.........
01A0: 7F 77 68 69 30 01 80 55  02 80 F0 FF FF 7F F0 FF  .whi0..U........
01B0: FF 7F 77 68 69 30 1B 45  02 80 F0 FF FF 7F F0 FF  ..whi0.E........
01C0: FF 7F 77 68 6F 30 01 80  55 02 80 F0 FF FF 7F F0  ..who0..U.......
01D0: FF FF 7F 77 68 6F 30 1B  45 07 80 F0 FF FF 7F F0  ...who0.E.......
01E0: FF FF 7F 65 66 6F 6E 01  80 55 07 80 F0 FF FF 7F  ...efon..U......
01F0: F0 FF FF 7F 65 66 6F 6E  1B 45 00 80 F0 FF FF 7F  ....efon.E......
0200: F0 FF FF 7F 66 64 69 73  01 80 1B 45 00 80 F0 FF  ....fdis...E....
0210: FF 7F F0 FF FF 7F 66 64  6F 73 01 80 55 00 80 F0  ......fdos..U...
0220: FF FF 7F F0 FF FF 7F 66  64 6F 73 1B 45 00 80 F0  .......fdos.E...
0230: FF FF 7F F0 FF FF 7F 66  64 69 66 01 80 1B 45 00  .......fdif...E.
0240: 80 F0 FF FF 7F F0 FF FF  7F 66 64 6F 66 01 80 55  .........fdof..U
0250: 00 80 F0 FF FF 7F F0 FF  FF 7F 66 64 6F 66 1B 45  ..........fdof.E
0260: 00 80 F0 FF FF 7F F0 FF  FF 7F 66 64 69 70 01 80  ..........fdip..
0270: 1B 45 00 80 F0 FF FF 7F  F0 FF FF 7F 66 64 6F 70  .E..........fdop
0280: 01 80 55 00 80 F0 FF FF  7F F0 FF FF 7F 66 64 6F  ..U..........fdo
0290: 70 1B                                             p.              
```

#### Opcodes

```
  0: 0x0000 [0x00] END_REQSTACK()
```

#### Data or dead code:

```
# Dead code (unreachable instructions):
     0x0001 [0x45] LOAD_SCHEDULED_TASK: Load scheduler "fdi0" with entities [LocalPlayer, LocalPlayer], work=[200*, 0*]
     0x0012 [0x55] WAIT_LOAD_SCHEDULER: Wait for scheduler "fdi0" with entities [LocalPlayer, LocalPlayer], work=200*
     0x0021 [0x1B] RETURN
     0x0022 [0x45] LOAD_SCHEDULED_TASK: Load scheduler "fdo0" with entities [LocalPlayer, LocalPlayer], work=[200*, 0*]
     0x0033 [0x55] WAIT_LOAD_SCHEDULER: Wait for scheduler "fdo0" with entities [LocalPlayer, LocalPlayer], work=200*
     0x0042 [0x1B] RETURN
     0x0043 [0x45] LOAD_SCHEDULED_TASK: Load scheduler "fdi1" with entities [LocalPlayer, LocalPlayer], work=[200*, 0*]
     0x0054 [0x55] WAIT_LOAD_SCHEDULER: Wait for scheduler "fdi1" with entities [LocalPlayer, LocalPlayer], work=200*
     0x0063 [0x1B] RETURN
     0x0064 [0x45] LOAD_SCHEDULED_TASK: Load scheduler "fdo1" with entities [LocalPlayer, LocalPlayer], work=[200*, 0*]
     0x0075 [0x55] WAIT_LOAD_SCHEDULER: Wait for scheduler "fdo1" with entities [LocalPlayer, LocalPlayer], work=200*
     0x0084 [0x1B] RETURN
     0x0085 [0x45] LOAD_SCHEDULED_TASK: Load scheduler "whi1" with entities [LocalPlayer, LocalPlayer], work=[201*, 0*]
     0x0096 [0x55] WAIT_LOAD_SCHEDULER: Wait for scheduler "whi1" with entities [LocalPlayer, LocalPlayer], work=201*
     0x00A5 [0x1B] RETURN
     0x00A6 [0x45] LOAD_SCHEDULED_TASK: Load scheduler "who1" with entities [LocalPlayer, LocalPlayer], work=[201*, 0*]
     0x00B7 [0x55] WAIT_LOAD_SCHEDULER: Wait for scheduler "who1" with entities [LocalPlayer, LocalPlayer], work=201*
     0x00C6 [0x1B] RETURN
     0x00C7 [0x45] LOAD_SCHEDULED_TASK: Load scheduler "who2" with entities [LocalPlayer, LocalPlayer], work=[201*, 0*]
     0x00D8 [0x55] WAIT_LOAD_SCHEDULER: Wait for scheduler "who2" with entities [LocalPlayer, LocalPlayer], work=201*
     0x00E7 [0x1B] RETURN
     0x00E8 [0x45] LOAD_SCHEDULED_TASK: Load scheduler "who3" with entities [LocalPlayer, LocalPlayer], work=[201*, 0*]
     0x00F9 [0x55] WAIT_LOAD_SCHEDULER: Wait for scheduler "who3" with entities [LocalPlayer, LocalPlayer], work=201*
     0x0108 [0x1B] RETURN
     0x0109 [0x62] LOAD_EVENT_SCHEDULER: Load scheduler "main" with entities [LocalPlayer, LocalPlayer], work=[1*, 0*]
     0x011A [0x1C] WAIT(45* ticks)
     0x011D [0x45] LOAD_SCHEDULED_TASK: Load scheduler "fdo1" with entities [LocalPlayer, LocalPlayer], work=[200*, 0*]
     0x012E [0x55] WAIT_LOAD_SCHEDULER: Wait for scheduler "fdo1" with entities [LocalPlayer, LocalPlayer], work=200*
     0x013D [0x1B] RETURN
     0x013E [0x45] LOAD_SCHEDULED_TASK: Load scheduler "fdi1" with entities [LocalPlayer, LocalPlayer], work=[200*, 0*]
     0x014F [0x62] LOAD_EVENT_SCHEDULER: Load scheduler "main" with entities [LocalPlayer, LocalPlayer], work=[2*, 0*]
     0x0160 [0x1C] WAIT(30* ticks)
     0x0163 [0x55] WAIT_LOAD_SCHEDULER: Wait for scheduler "fdi1" with entities [LocalPlayer, LocalPlayer], work=200*
     0x0172 [0x1B] RETURN
     0x0173 [0x45] LOAD_SCHEDULED_TASK: Load scheduler "blon" with entities [LocalPlayer, LocalPlayer], work=[200*, 0*]
     0x0184 [0x45] LOAD_SCHEDULED_TASK: Load scheduler "blon" with entities [LocalPlayer, LocalPlayer], work=[201*, 0*]
     0x0195 [0x1B] RETURN
     0x0196 [0x45] LOAD_SCHEDULED_TASK: Load scheduler "whi0" with entities [LocalPlayer, LocalPlayer], work=[201*, 0*]
     0x01A7 [0x55] WAIT_LOAD_SCHEDULER: Wait for scheduler "whi0" with entities [LocalPlayer, LocalPlayer], work=201*
     0x01B6 [0x1B] RETURN
     0x01B7 [0x45] LOAD_SCHEDULED_TASK: Load scheduler "who0" with entities [LocalPlayer, LocalPlayer], work=[201*, 0*]
     0x01C8 [0x55] WAIT_LOAD_SCHEDULER: Wait for scheduler "who0" with entities [LocalPlayer, LocalPlayer], work=201*
     0x01D7 [0x1B] RETURN
     0x01D8 [0x45] LOAD_SCHEDULED_TASK: Load scheduler "efon" with entities [LocalPlayer, LocalPlayer], work=[215*, 0*]
     0x01E9 [0x55] WAIT_LOAD_SCHEDULER: Wait for scheduler "efon" with entities [LocalPlayer, LocalPlayer], work=215*
     0x01F8 [0x1B] RETURN
     0x01F9 [0x45] LOAD_SCHEDULED_TASK: Load scheduler "fdis" with entities [LocalPlayer, LocalPlayer], work=[200*, 0*]
     0x020A [0x1B] RETURN
     0x020B [0x45] LOAD_SCHEDULED_TASK: Load scheduler "fdos" with entities [LocalPlayer, LocalPlayer], work=[200*, 0*]
     0x021C [0x55] WAIT_LOAD_SCHEDULER: Wait for scheduler "fdos" with entities [LocalPlayer, LocalPlayer], work=200*
     0x022B [0x1B] RETURN
     0x022C [0x45] LOAD_SCHEDULED_TASK: Load scheduler "fdif" with entities [LocalPlayer, LocalPlayer], work=[200*, 0*]
     0x023D [0x1B] RETURN
     0x023E [0x45] LOAD_SCHEDULED_TASK: Load scheduler "fdof" with entities [LocalPlayer, LocalPlayer], work=[200*, 0*]
     0x024F [0x55] WAIT_LOAD_SCHEDULER: Wait for scheduler "fdof" with entities [LocalPlayer, LocalPlayer], work=200*
     0x025E [0x1B] RETURN
     0x025F [0x45] LOAD_SCHEDULED_TASK: Load scheduler "fdip" with entities [LocalPlayer, LocalPlayer], work=[200*, 0*]
     0x0270 [0x1B] RETURN
     0x0271 [0x45] LOAD_SCHEDULED_TASK: Load scheduler "fdop" with entities [LocalPlayer, LocalPlayer], work=[200*, 0*]
     0x0282 [0x55] WAIT_LOAD_SCHEDULER: Wait for scheduler "fdop" with entities [LocalPlayer, LocalPlayer], work=200*
     0x0291 [0x1B] RETURN
```

### Event 5146

#### Metadata

| Field        | Value      |
|--------------|------------|
| Entrypoint   | 0x0292     |
| Data Size    | 6262 bytes |
| Instructions | 1086       |

```
      00 01 02 03 04 05 06 07  08 09 0A 0B 0C 0D 0E 0F
      -- -- -- -- -- -- -- --  -- -- -- -- -- -- -- --
0290:       42 03 05 00 09 10  1A 64 00 46 01 38 08 80    B......d.F.8..
02A0: 5C 00 09 80 5C 01 09 80  9A 4E 00 84 01 10 01 2F  \...\....N...../
02B0: 00 84 01 10 01 92 01 83  01 10 01 92 01 84 01 10  ................
02C0: 01 92 01 85 01 10 01 92  01 38 01 10 01 92 01 3A  .........8.....:
02D0: 01 10 01 92 01 16 01 10  01 92 01 18 01 10 01 92  ................
02E0: 01 1A 01 10 01 92 01 0F  01 10 01 94 01 83 01 10  ................
02F0: 01 94 01 84 01 10 01 94  01 85 01 10 01 94 01 38  ...............8
0300: 01 10 01 94 01 3A 01 10  01 94 01 16 01 10 01 94  .....:..........
0310: 01 18 01 10 01 94 01 1A  01 10 01 94 01 0F 01 10  ................
0320: 01 94 01 F0 FF FF 7F BA  84 01 10 01 0A 80 0B 80  ................
0330: 01 80 0C 80 BA F0 FF FF  7F 0D 80 0E 80 01 80 0F  ................
0340: 80 29 08 84 01 10 01 05  4A F0 FF FF 7F 83 01 10  .)......J.......
0350: 01 80 83 01 10 01 80 84  01 10 01 80 85 01 10 01  ................
0360: 80 38 01 10 01 80 3A 01  10 01 80 16 01 10 01 80  .8....:.........
0370: 18 01 10 01 80 1A 01 10  01 80 0F 01 10 01 80 F0  ................
0380: FF FF 7F 02 02 10 03 80  00 4B 04 4A 83 01 10 01  .........K.J....
0390: 84 01 10 01 6F 76 83 01  10 01 27 08 83 01 10 01  ....ov....'.....
03A0: 11 1C 10 80 45 11 80 F8  FF FF 7F F8 FF FF 7F 73  ....E..........s
03B0: 30 36 30 01 80 1A 43 00  1C 12 80 52 11 80 F8 FF  060...C....R....
03C0: FF 7F F8 FF FF 7F 73 30  36 30 45 11 80 F8 FF FF  ......s060E.....
03D0: 7F F8 FF FF 7F 73 30 35  36 01 80 1C 06 80 29 08  .....s056.....).
03E0: 84 01 10 01 06 29 08 83  01 10 01 06 03 02 10 13  .....)..........
03F0: 80 2B 83 01 10 01 14 80  1C 12 80 23 4A 83 01 10  .+.........#J...
0400: 01 F0 FF FF 7F 4A 84 01  10 01 F0 FF FF 7F 52 11  .....J........R.
0410: 80 F8 FF FF 7F F8 FF FF  7F 73 30 35 36 45 11 80  .........s056E..
0420: F8 FF FF 7F F8 FF FF 7F  73 30 35 35 01 80 6F 76  ........s055..ov
0430: 83 01 10 01 6F 76 84 01  10 01 2B 83 01 10 01 15  ....ov....+.....
0440: 80 1C 12 80 23 06 00 00  01 AB 0A 4A 83 01 10 01  ....#......J....
0450: F0 FF FF 7F 6F 76 83 01  10 01 1C 10 80 45 11 80  ....ov.......E..
0460: F8 FF FF 7F F8 FF FF 7F  73 30 33 36 01 80 1A 43  ........s036...C
0470: 00 1C 16 80 52 11 80 F8  FF FF 7F F8 FF FF 7F 73  ....R..........s
0480: 30 33 36 45 11 80 F8 FF  FF 7F F8 FF FF 7F 73 30  036E..........s0
0490: 33 37 01 80 27 08 83 01  10 01 10 2B 83 01 10 01  37..'......+....
04A0: 17 80 23 2B 83 01 10 01  18 80 1C 12 80 2A 08 83  ..#+.........*..
04B0: 01 10 01 23 52 11 80 F8  FF FF 7F F8 FF FF 7F 73  ...#R..........s
04C0: 30 33 37 02 87 7F 19 80  80 DF 04 45 11 80 F8 FF  037........E....
04D0: FF 7F F8 FF FF 7F 73 30  33 39 01 80 01 0C 05 02  ......s039......
04E0: 87 7F 1A 80 80 FB 04 45  11 80 F8 FF FF 7F F8 FF  .......E........
04F0: FF 7F 73 30 33 39 01 80  01 0C 05 45 11 80 F8 FF  ..s039.....E....
0500: FF 7F F8 FF FF 7F 73 30  33 38 01 80 24 1B 80 01  ......s038..$...
0510: 80 01 80 25 02 00 10 01  80 00 7D 05 6E F0 FF FF  ...%......}.n...
0520: 7F 1C 80 99 F0 FF FF 7F  1C 1D 80 52 11 80 F8 FF  ...........R....
0530: FF 7F F8 FF FF 7F 73 30  33 38 52 11 80 F8 FF FF  ......s038R.....
0540: 7F F8 FF FF 7F 73 30 33  39 45 11 80 F8 FF FF 7F  .....s039E......
0550: F8 FF FF 7F 73 30 34 30  01 80 27 08 83 01 10 01  ....s040..'.....
0560: 0E 2B 83 01 10 01 1E 80  1C 12 80 2A 08 83 01 10  .+.........*....
0570: 01 23 03 01 10 01 80 01  7E 1A 01 5A 07 02 00 10  .#......~..Z....
0580: 05 80 00 5A 07 6E F0 FF  FF 7F 1F 80 99 F0 FF FF  ...Z.n..........
0590: 7F 1C 20 80 52 11 80 F8  FF FF 7F F8 FF FF 7F 73  .. .R..........s
05A0: 30 33 38 52 11 80 F8 FF  FF 7F F8 FF FF 7F 73 30  038R..........s0
05B0: 33 39 45 11 80 F8 FF FF  7F F8 FF FF 7F 73 30 34  39E..........s04
05C0: 30 01 80 27 08 83 01 10  01 0A 48 21 80 1C 1D 80  0..'......H!....
05D0: 2A 08 83 01 10 01 52 11  80 F8 FF FF 7F F8 FF FF  *.....R.........
05E0: 7F 73 30 34 30 02 87 7F  22 80 80 01 06 45 11 80  .s040..."....E..
05F0: F8 FF FF 7F F8 FF FF 7F  73 30 34 31 01 80 01 82  ........s041....
0600: 06 02 87 7F 23 80 80 1D  06 45 11 80 F8 FF FF 7F  ....#....E......
0610: F8 FF FF 7F 73 30 34 31  01 80 01 82 06 02 87 7F  ....s041........
0620: 19 80 80 39 06 45 11 80  F8 FF FF 7F F8 FF FF 7F  ...9.E..........
0630: 73 30 34 33 01 80 01 82  06 02 87 7F 1A 80 80 55  s043...........U
0640: 06 45 11 80 F8 FF FF 7F  F8 FF FF 7F 73 30 34 33  .E..........s043
0650: 01 80 01 82 06 02 87 7F  1C 80 80 71 06 45 11 80  ...........q.E..
0660: F8 FF FF 7F F8 FF FF 7F  73 30 34 31 01 80 01 82  ........s041....
0670: 06 45 11 80 F8 FF FF 7F  F8 FF FF 7F 73 30 34 32  .E..........s042
0680: 01 80 02 88 7F 24 80 00  95 06 2B 83 01 10 01 25  .....$....+....%
0690: 80 23 01 9D 06 2B 83 01  10 01 26 80 23 52 11 80  .#...+....&.#R..
06A0: F8 FF FF 7F F8 FF FF 7F  73 30 34 31 52 11 80 F8  ........s041R...
06B0: FF FF 7F F8 FF FF 7F 73  30 34 32 52 11 80 F8 FF  .......s042R....
06C0: FF 7F F8 FF FF 7F 73 30  34 33 02 87 7F 19 80 80  ......s043......
06D0: E6 06 45 11 80 F8 FF FF  7F F8 FF FF 7F 73 30 34  ..E..........s04
06E0: 39 01 80 01 13 07 02 87  7F 1A 80 80 02 07 45 11  9.............E.
06F0: 80 F8 FF FF 7F F8 FF FF  7F 73 30 34 39 01 80 01  .........s049...
0700: 13 07 45 11 80 F8 FF FF  7F F8 FF FF 7F 73 30 34  ..E..........s04
0710: 34 01 80 27 08 83 01 10  01 0B 2B 83 01 10 01 27  4..'......+....'
0720: 80 23 1C 12 80 2A 08 83  01 10 01 23 79 00 83 01  .#...*.....#y...
0730: 10 01 F0 FF FF 7F 52 11  80 F8 FF FF 7F F8 FF FF  ......R.........
0740: 7F 73 30 34 34 52 11 80  F8 FF FF 7F F8 FF FF 7F  .s044R..........
0750: 73 30 34 39 01 C3 04 01  5A 07 6E F0 FF FF 7F 28  s049....Z.n....(
0760: 80 99 F0 FF FF 7F 1C 12  80 52 11 80 F8 FF FF 7F  .........R......
0770: F8 FF FF 7F 73 30 33 38  52 11 80 F8 FF FF 7F F8  ....s038R.......
0780: FF FF 7F 73 30 33 39 45  11 80 F8 FF FF 7F F8 FF  ...s039E........
0790: FF 7F 73 30 34 35 01 80  27 08 83 01 10 01 10 03  ..s045..'.......
07A0: 03 10 19 80 2B 83 01 10  01 29 80 1C 12 80 2A 08  ....+....)....*.
07B0: 83 01 10 01 23 4A 83 01  10 01 84 01 10 01 4A 84  ....#J........J.
07C0: 01 10 01 83 01 10 01 52  11 80 F8 FF FF 7F F8 FF  .......R........
07D0: FF 7F 73 30 34 35 45 11  80 F8 FF FF 7F F8 FF FF  ..s045E.........
07E0: 7F 73 30 34 36 01 80 6F  76 83 01 10 01 27 08 83  .s046..ov....'..
07F0: 01 10 01 09 1C 2A 80 03  02 10 13 80 2B 83 01 10  .....*......+...
0800: 01 2B 80 1C 06 80 29 08  84 01 10 01 06 1C 2A 80  .+....).......*.
0810: 2A 08 83 01 10 01 23 27  08 83 01 10 01 13 1C 06  *.....#'........
0820: 80 4A F0 FF FF 7F 84 01  10 01 52 11 80 F8 FF FF  .J........R.....
0830: 7F F8 FF FF 7F 73 30 34  36 45 11 80 F8 FF FF 7F  .....s046E......
0840: F8 FF FF 7F 73 30 34 37  01 80 6F 76 F0 FF FF 7F  ....s047..ov....
0850: 2A 08 83 01 10 01 1C 2C  80 27 08 83 01 10 01 0F  *......,.'......
0860: 1C 2D 80 2A 08 83 01 10  01 1C 2C 80 4A 84 01 10  .-.*......,.J...
0870: 01 F0 FF FF 7F 52 11 80  F8 FF FF 7F F8 FF FF 7F  .....R..........
0880: 73 30 34 37 02 87 7F 22  80 80 A0 08 45 11 80 F8  s047..."....E...
0890: FF FF 7F F8 FF FF 7F 73  30 34 38 01 80 01 21 09  .......s048...!.
08A0: 02 87 7F 23 80 80 BC 08  45 11 80 F8 FF FF 7F F8  ...#....E.......
08B0: FF FF 7F 73 30 34 38 01  80 01 21 09 02 87 7F 19  ...s048...!.....
08C0: 80 80 D8 08 45 11 80 F8  FF FF 7F F8 FF FF 7F 73  ....E..........s
08D0: 30 35 31 01 80 01 21 09  02 87 7F 1A 80 80 F4 08  051...!.........
08E0: 45 11 80 F8 FF FF 7F F8  FF FF 7F 73 30 35 31 01  E..........s051.
08F0: 80 01 21 09 02 87 7F 1C  80 80 10 09 45 11 80 F8  ..!.........E...
0900: FF FF 7F F8 FF FF 7F 73  30 34 38 01 80 01 21 09  .......s048...!.
0910: 45 11 80 F8 FF FF 7F F8  FF FF 7F 73 30 35 30 01  E..........s050.
0920: 80 6F 76 84 01 10 01 27  08 83 01 10 01 0E 1C 2C  .ov....'.......,
0930: 80 48 2E 80 29 08 84 01  10 01 04 1C 2C 80 48 2F  .H..).......,.H/
0940: 80 6E F0 FF FF 7F 30 80  99 F0 FF FF 7F 2A 08 83  .n....0......*..
0950: 01 10 01 1C 31 80 27 08  83 01 10 01 14 1C 31 80  ....1.'.......1.
0960: 52 11 80 F8 FF FF 7F F8  FF FF 7F 73 30 34 38 52  R..........s048R
0970: 11 80 F8 FF FF 7F F8 FF  FF 7F 73 30 35 30 52 11  ..........s050R.
0980: 80 F8 FF FF 7F F8 FF FF  7F 73 30 35 31 45 11 80  .........s051E..
0990: F8 FF FF 7F F8 FF FF 7F  73 30 35 32 01 80 2A 08  ........s052..*.
09A0: 83 01 10 01 1C 2C 80 27  08 83 01 10 01 07 6B 69  .....,.'......ki
09B0: 64 6C 30 84 01 10 01 4A  F0 FF FF 7F 83 01 10 01  dl0....J........
09C0: 2B 83 01 10 01 32 80 23  2B 83 01 10 01 33 80 1C  +....2.#+....3..
09D0: 12 80 2A 08 83 01 10 01  23 52 11 80 F8 FF FF 7F  ..*.....#R......
09E0: F8 FF FF 7F 73 30 35 32  45 11 80 F8 FF FF 7F F8  ....s052E.......
09F0: FF FF 7F 73 30 35 33 01  80 27 08 83 01 10 01 08  ...s053..'......
0A00: 2B 83 01 10 01 34 80 1C  12 80 2A 08 83 01 10 01  +....4....*.....
0A10: 23 52 11 80 F8 FF FF 7F  F8 FF FF 7F 73 30 35 33  #R..........s053
0A20: 45 11 80 F8 FF FF 7F F8  FF FF 7F 73 30 35 34 01  E..........s054.
0A30: 80 27 08 83 01 10 01 0C  2B 83 01 10 01 35 80 23  .'......+....5.#
0A40: 2A 08 83 01 10 01 27 08  83 01 10 01 0D 2B 83 01  *.....'......+..
0A50: 10 01 36 80 1C 12 80 2A  08 83 01 10 01 23 27 08  ..6....*.....#'.
0A60: 83 01 10 01 09 1C 37 80  52 11 80 F8 FF FF 7F F8  ......7.R.......
0A70: FF FF 7F 73 30 35 34 45  11 80 F8 FF FF 7F F8 FF  ...s054E........
0A80: FF 7F 73 30 35 35 01 80  2B 83 01 10 01 38 80 1C  ..s055..+....8..
0A90: 12 80 2A 08 83 01 10 01  23 52 11 80 F8 FF FF 7F  ..*.....#R......
0AA0: F8 FF FF 7F 73 30 35 35  06 00 00 02 87 7F 19 80  ....s055........
0AB0: 80 C7 0A 45 11 80 F8 FF  FF 7F F8 FF FF 7F 73 30  ...E..........s0
0AC0: 35 38 01 80 01 F4 0A 02  87 7F 1A 80 80 E3 0A 45  58.............E
0AD0: 11 80 F8 FF FF 7F F8 FF  FF 7F 73 30 35 38 01 80  ..........s058..
0AE0: 01 F4 0A 45 11 80 F8 FF  FF 7F F8 FF FF 7F 73 30  ...E..........s0
0AF0: 35 37 01 80 24 39 80 00  00 01 80 25 02 00 10 01  57..$9.....%....
0B00: 80 00 A4 0B 6E F0 FF FF  7F 3A 80 99 F0 FF FF 7F  ....n....:......
0B10: 1C 31 80 52 11 80 F8 FF  FF 7F F8 FF FF 7F 73 30  .1.R..........s0
0B20: 35 37 52 11 80 F8 FF FF  7F F8 FF FF 7F 73 30 35  57R..........s05
0B30: 38 45 11 80 F8 FF FF 7F  F8 FF FF 7F 73 30 36 31  8E..........s061
0B40: 01 80 27 08 83 01 10 01  0A 2B 83 01 10 01 3B 80  ..'......+....;.
0B50: 1C 12 80 2A 08 83 01 10  01 23 52 11 80 F8 FF FF  ...*.....#R.....
0B60: 7F F8 FF FF 7F 73 30 36  31 45 11 80 F8 FF FF 7F  .....s061E......
0B70: F8 FF FF 7F 73 30 35 39  01 80 27 08 83 01 10 01  ....s059..'.....
0B80: 0B 2B 83 01 10 01 3C 80  23 2A 08 83 01 10 01 27  .+....<.#*.....'
0B90: 08 83 01 10 01 12 1C 16  80 03 01 10 24 80 01 7E  ............$..~
0BA0: 1A 01 A4 0B 29 08 F0 FF  FF 7F 87 1C 3D 80 52 11  ....).......=.R.
0BB0: 80 F8 FF FF 7F F8 FF FF  7F 73 30 35 37 52 11 80  .........s057R..
0BC0: F8 FF FF 7F F8 FF FF 7F  73 30 35 38 45 11 80 F8  ........s058E...
0BD0: FF FF 7F F8 FF FF 7F 73  30 36 32 01 80 03 00 00  .......s062.....
0BE0: 00 10 03 02 10 00 10 0C  02 10 2B 83 01 10 01 3E  ..........+....>
0BF0: 80 1C 12 80 23 48 3F 80  24 40 80 03 80 01 80 25  ....#H?.$@.....%
0C00: 02 00 10 01 80 00 2C 0C  27 08 83 01 10 01 0E 1C  ......,.'.......
0C10: 2C 80 52 11 80 F8 FF FF  7F F8 FF FF 7F 73 30 36  ,.R..........s06
0C20: 32 0B 02 10 03 01 00 02  10 01 49 0C 02 00 10 03  2.........I.....
0C30: 80 00 49 0C 52 11 80 F8  FF FF 7F F8 FF FF 7F 73  ..I.R..........s
0C40: 30 36 32 01 AB 0A 01 49  0C 45 11 80 F8 FF FF 7F  062....I.E......
0C50: F8 FF FF 7F 73 30 36 33  01 80 2B 83 01 10 01 41  ....s063..+....A
0C60: 80 23 03 02 10 13 80 2B  83 01 10 01 42 80 1C 12  .#.....+....B...
0C70: 80 2A 08 83 01 10 01 23  27 08 83 01 10 01 13 1C  .*.....#'.......
0C80: 06 80 4A F0 FF FF 7F 84  01 10 01 52 11 80 F8 FF  ..J........R....
0C90: FF 7F F8 FF FF 7F 73 30  36 33 45 11 80 F8 FF FF  ......s063E.....
0CA0: 7F F8 FF FF 7F 73 30 36  34 01 80 6F 76 F0 FF FF  .....s064..ov...
0CB0: 7F 2A 08 83 01 10 01 4A  84 01 10 01 83 01 10 01  .*.....J........
0CC0: 6F 76 84 01 10 01 1C 2C  80 27 08 83 01 10 01 0F  ov.....,.'......
0CD0: 48 43 80 1C 2D 80 2A 08  83 01 10 01 2A 08 84 01  HC..-.*.....*...
0CE0: 10 01 48 44 80 1C 06 80  27 08 84 01 10 01 04 1C  ..HD....'.......
0CF0: 1D 80 52 11 80 F8 FF FF  7F F8 FF FF 7F 73 30 36  ..R..........s06
0D00: 34 02 87 7F 19 80 80 1D  0D 45 11 80 F8 FF FF 7F  4........E......
0D10: F8 FF FF 7F 73 30 37 32  01 80 01 4A 0D 02 87 7F  ....s072...J....
0D20: 1A 80 80 39 0D 45 11 80  F8 FF FF 7F F8 FF FF 7F  ...9.E..........
0D30: 73 30 37 32 01 80 01 4A  0D 45 11 80 F8 FF FF 7F  s072...J.E......
0D40: F8 FF FF 7F 73 30 36 35  01 80 6B 69 64 6C 30 84  ....s065..kidl0.
0D50: 01 10 01 2B 83 01 10 01  45 80 1C 12 80 23 7B 83  ...+....E....#{.
0D60: 01 10 01 1C 3A 80 4A 84  01 10 01 F0 FF FF 7F 6F  ....:.J........o
0D70: 76 84 01 10 01 2A 08 83  01 10 01 23 5C A0 01 80  v....*.....#\...
0D80: 00 80 5C A1 01 80 46 80  27 08 83 01 10 01 15 1C  ..\...F.'.......
0D90: 06 80 52 11 80 F8 FF FF  7F F8 FF FF 7F 73 30 36  ..R..........s06
0DA0: 35 52 11 80 F8 FF FF 7F  F8 FF FF 7F 73 30 37 32  5R..........s072
0DB0: 45 11 80 F8 FF FF 7F F8  FF FF 7F 73 30 36 36 01  E..........s066.
0DC0: 80 1C 2C 80 48 47 80 23  1C 31 80 03 01 10 01 00  ..,.HG.#.1......
0DD0: 43 00 43 01 03 02 00 02  10 02 01 00 03 80 80 8D  C.C.............
0DE0: 0E 5C 00 48 80 5C 01 48  80 9A 5D 49 80 03 80 29  .\.H.\.H..]I...)
0DF0: 10 85 01 10 01 03 02 02  00 01 80 80 09 0E 2B 85  ..............+.
0E00: 01 10 01 4A 80 23 01 62  0E 02 02 00 03 80 80 24  ...J.#.b.......$
0E10: 0E 2B 85 01 10 01 4B 80  23 2B 85 01 10 01 4C 80  .+....K.#+....L.
0E20: 23 01 62 0E 02 02 00 05  80 80 3F 0E 2B 85 01 10  #.b.......?.+...
0E30: 01 4B 80 23 2B 85 01 10  01 4D 80 23 01 62 0E 02  .K.#+....M.#.b..
0E40: 02 00 22 80 80 5A 0E 2B  85 01 10 01 4B 80 23 2B  .."..Z.+....K.#+
0E50: 85 01 10 01 4E 80 23 01  62 0E 2B 85 01 10 01 4A  ....N.#.b.+....J
0E60: 80 23 2B 85 01 10 01 4F  80 23 2B 85 01 10 01 50  .#+....O.#+....P
0E70: 80 23 2B 85 01 10 01 51  80 23 2B 85 01 10 01 52  .#+....Q.#+....R
0E80: 80 23 2B 85 01 10 01 53  80 23 01 C2 18 02 01 00  .#+....S.#......
0E90: 05 80 80 2E 0F 5C 00 54  80 5C 01 54 80 9A 5D 49  .....\.T.\.T..]I
0EA0: 80 03 80 29 10 85 01 10  01 04 02 02 00 01 80 80  ...)............
0EB0: BD 0E 2B 85 01 10 01 55  80 23 01 FB 0E 02 02 00  ..+....U.#......
0EC0: 03 80 80 D8 0E 2B 85 01  10 01 56 80 23 2B 85 01  .....+....V.#+..
0ED0: 10 01 57 80 23 01 FB 0E  02 02 00 05 80 80 F3 0E  ..W.#...........
0EE0: 2B 85 01 10 01 56 80 23  2B 85 01 10 01 58 80 23  +....V.#+....X.#
0EF0: 01 FB 0E 2B 85 01 10 01  55 80 23 2B 85 01 10 01  ...+....U.#+....
0F00: 59 80 23 2B 85 01 10 01  5A 80 23 2B 85 01 10 01  Y.#+....Z.#+....
0F10: 5B 80 23 2B 85 01 10 01  5C 80 23 2B 85 01 10 01  [.#+....\.#+....
0F20: 5D 80 23 2B 85 01 10 01  5E 80 23 01 C2 18 02 01  ].#+....^.#.....
0F30: 00 22 80 80 F3 0F 3E 05  00 23 80 48 0F 5C 00 5F  ."....>..#.H.\._
0F40: 80 5C 01 5F 80 01 50 0F  5C 00 16 80 5C 01 16 80  .\._..P.\...\...
0F50: 9A 5D 49 80 03 80 2B 86  01 10 01 60 80 23 02 02  .]I...+....`.#..
0F60: 00 03 80 00 6E 0F 2B 86  01 10 01 61 80 23 2B 86  ....n.+....a.#+.
0F70: 01 10 01 62 80 23 1C 31  80 1C 16 80 2B 86 01 10  ...b.#.1....+...
0F80: 01 63 80 23 03 03 00 23  80 06 04 00 24 64 80 01  .c.#...#....$d..
0F90: 80 03 00 25 02 00 10 05  80 00 DD 0F 03 03 00 22  ...%..........."
0FA0: 80 02 04 00 01 80 00 BA  0F 2B 86 01 10 01 65 80  .........+....e.
0FB0: 23 05 04 00 01 8C 0F 01  DA 0F 2B 86 01 10 01 66  #.........+....f
0FC0: 80 23 2B 86 01 10 01 67  80 23 2B 86 01 10 01 68  .#+....g.#+....h
0FD0: 80 23 2B 86 01 10 01 69  80 23 01 F0 0F 13 02 10  .#+....i.#......
0FE0: 22 80 2B 86 01 10 01 6A  80 23 06 03 00 01 8C 0F  ".+....j.#......
0FF0: 01 C2 18 02 01 00 23 80  80 E0 10 5C 00 6B 80 5C  ......#....\.k.\
1000: 01 6B 80 9A 5D 49 80 03  80 29 10 85 01 10 01 06  .k..]I...)......
1010: 02 02 00 01 80 80 23 10  2B 85 01 10 01 6C 80 23  ......#.+....l.#
1020: 01 97 10 02 02 00 03 80  80 3E 10 2B 85 01 10 01  .........>.+....
1030: 6D 80 23 2B 85 01 10 01  6E 80 23 01 97 10 02 02  m.#+....n.#.....
1040: 00 05 80 80 59 10 2B 85  01 10 01 6D 80 23 2B 85  ....Y.+....m.#+.
1050: 01 10 01 6F 80 23 01 97  10 02 02 00 22 80 80 74  ...o.#......"..t
1060: 10 2B 85 01 10 01 6D 80  23 2B 85 01 10 01 70 80  .+....m.#+....p.
1070: 23 01 97 10 02 02 00 23  80 80 8F 10 2B 85 01 10  #......#....+...
1080: 01 6D 80 23 2B 85 01 10  01 71 80 23 01 97 10 2B  .m.#+....q.#...+
1090: 85 01 10 01 6C 80 23 2B  85 01 10 01 72 80 23 2B  ....l.#+....r.#+
10A0: 85 01 10 01 73 80 23 29  10 85 01 10 01 02 2B 85  ....s.#)......+.
10B0: 01 10 01 74 80 23 2B 85  01 10 01 75 80 23 29 10  ...t.#+....u.#).
10C0: 85 01 10 01 06 2B 85 01  10 01 76 80 23 2B 85 01  .....+....v.#+..
10D0: 10 01 77 80 23 2B 85 01  10 01 78 80 23 01 C2 18  ..w.#+....x.#...
10E0: 02 01 00 19 80 80 0D 12  5C 00 79 80 5C 01 79 80  ........\.y.\.y.
10F0: 9A 5D 49 80 03 80 29 10  85 01 10 01 07 02 02 00  .]I...).........
1100: 01 80 80 10 11 2B 85 01  10 01 7A 80 23 01 69 11  .....+....z.#.i.
1110: 02 02 00 03 80 80 2B 11  2B 85 01 10 01 7B 80 23  ......+.+....{.#
1120: 2B 85 01 10 01 7C 80 23  01 69 11 02 02 00 05 80  +....|.#.i......
1130: 80 46 11 2B 85 01 10 01  7B 80 23 2B 85 01 10 01  .F.+....{.#+....
1140: 7D 80 23 01 69 11 02 02  00 22 80 80 61 11 2B 85  }.#.i...."..a.+.
1150: 01 10 01 7B 80 23 2B 85  01 10 01 7E 80 23 01 69  ...{.#+....~.#.i
1160: 11 2B 85 01 10 01 7A 80  23 2B 85 01 10 01 7F 80  .+....z.#+......
1170: 23 2B 85 01 10 01 80 80  23 2B 85 01 10 01 81 80  #+......#+......
1180: 23 2B 85 01 10 01 82 80  23 02 02 00 01 80 00 9B  #+......#.......
1190: 11 3C 03 00 01 80 03 80  01 9E 11 06 03 00 24 83  .<............$.
11A0: 80 01 80 03 00 25 02 00  10 01 80 00 B9 11 2B 85  .....%........+.
11B0: 01 10 01 84 80 23 01 DF  11 02 00 10 03 80 00 CC  .....#..........
11C0: 11 2B 85 01 10 01 85 80  23 01 DF 11 02 00 10 05  .+......#.......
11D0: 80 00 DF 11 2B 85 01 10  01 86 80 23 01 DF 11 2B  ....+......#...+
11E0: 85 01 10 01 87 80 23 2B  85 01 10 01 88 80 23 02  ......#+......#.
11F0: 02 00 01 80 00 02 12 2B  85 01 10 01 89 80 23 01  .......+......#.
1200: 0A 12 2B 85 01 10 01 8A  80 23 01 C2 18 02 01 00  ..+......#......
1210: 1A 80 80 DE 12 29 10 85  01 10 01 02 2B 85 01 10  .....)......+...
1220: 01 8B 80 23 24 8C 80 01  80 01 80 25 02 00 10 01  ...#$......%....
1230: 80 00 37 12 01 4D 12 02  00 10 03 80 00 42 12 01  ..7..M.......B..
1240: 4D 12 02 00 10 05 80 00  4D 12 01 4D 12 29 10 85  M.......M..M.)..
1250: 01 10 01 08 02 02 00 01  80 00 6F 12 2B 85 01 10  ..........o.+...
1260: 01 8D 80 23 2B 85 01 10  01 8E 80 23 01 77 12 2B  ...#+......#.w.+
1270: 85 01 10 01 8F 80 23 5C  00 20 80 5C 01 20 80 9A  ......#\. .\. ..
1280: 5D 49 80 03 80 2B 85 01  10 01 90 80 23 2B 85 01  ]I...+......#+..
1290: 10 01 91 80 23 2B 85 01  10 01 92 80 23 2B 85 01  ....#+......#+..
12A0: 10 01 93 80 23 02 02 00  05 80 80 B8 12 2B 85 01  ....#........+..
12B0: 10 01 94 80 23 01 CB 12  02 02 00 22 80 80 CB 12  ....#......"....
12C0: 2B 85 01 10 01 95 80 23  01 CB 12 2B 85 01 10 01  +......#...+....
12D0: 96 80 23 2B 85 01 10 01  97 80 23 01 C2 18 02 01  ..#+......#.....
12E0: 00 28 80 80 7F 13 3E 05  00 03 80 F8 12 5C 00 98  .(....>......\..
12F0: 80 5C 01 98 80 01 00 13  5C 00 16 80 5C 01 16 80  .\......\...\...
1300: 9A 5D 49 80 03 80 2B 87  01 10 01 99 80 23 02 02  .]I...+......#..
1310: 00 01 80 80 19 13 01 54  13 02 02 00 03 80 80 34  .......T.......4
1320: 13 2B 87 01 10 01 9A 80  23 2B 87 01 10 01 9B 80  .+......#+......
1330: 23 01 54 13 02 02 00 05  80 80 54 13 03 02 10 9C  #.T.......T.....
1340: 80 2B 87 01 10 01 9D 80  23 2B 87 01 10 01 9E 80  .+......#+......
1350: 23 01 54 13 2B 87 01 10  01 9F 80 23 2B 87 01 10  #.T.+......#+...
1360: 01 A0 80 23 2B 87 01 10  01 A1 80 23 2B 87 01 10  ...#+......#+...
1370: 01 A2 80 23 2B 87 01 10  01 A3 80 23 01 C2 18 02  ...#+......#....
1380: 01 00 1C 80 80 28 15 3E  05 00 22 80 99 13 5C 00  .....(.>.."...\.
1390: A4 80 5C 01 A4 80 01 A1  13 5C 00 16 80 5C 01 16  ..\......\...\..
13A0: 80 9A 5D 49 80 03 80 29  10 85 01 10 01 0C 2B 85  ..]I...)......+.
13B0: 01 10 01 A5 80 23 2B 85  01 10 01 A6 80 23 02 02  .....#+......#..
13C0: 00 01 80 00 DA 14 2B 85  01 10 01 A7 80 23 48 47  ......+......#HG
13D0: 80 23 29 10 85 01 10 01  0A 2B 85 01 10 01 A8 80  .#)......+......
13E0: 23 2B 85 01 10 01 A9 80  23 2B 85 01 10 01 AA 80  #+......#+......
13F0: 23 2B 85 01 10 01 AB 80  23 2B 85 01 10 01 AC 80  #+......#+......
1400: 23 2B 85 01 10 01 AD 80  23 29 10 85 01 10 01 0C  #+......#)......
1410: 2B 85 01 10 01 AE 80 23  2B 85 01 10 01 AF 80 23  +......#+......#
1420: 2B 85 01 10 01 B0 80 23  2B 85 01 10 01 B1 80 1C  +......#+.......
1430: 06 80 23 5C A0 01 80 03  80 5C A1 01 80 03 80 BA  ..#\.....\......
1440: 85 01 10 01 B2 80 B3 80  B4 80 01 80 C4 00 B5 80  ................
1450: 85 01 10 01 85 01 10 01  1C 5F 80 2C 85 01 10 01  ........._.,....
1460: 85 01 10 01 64 65 61 64  6E F0 FF FF 7F B6 80 99  ....deadn.......
1470: F0 FF FF 7F 48 47 80 23  1C 31 80 29 10 85 01 10  ....HG.#.1.)....
1480: 01 0A 5C A0 49 80 B7 80  5C A1 49 80 B8 80 2B 85  ..\.I...\.I...+.
1490: 01 10 01 B9 80 23 24 BA  80 01 80 01 80 25 02 00  .....#$......%..
14A0: 10 01 80 00 A9 14 01 BF  14 02 00 10 03 80 00 B4  ................
14B0: 14 01 BF 14 02 00 10 05  80 00 BF 14 01 BF 14 2B  ...............+
14C0: 85 01 10 01 BB 80 23 2B  85 01 10 01 BC 80 23 2B  ......#+......#+
14D0: 85 01 10 01 BD 80 23 01  25 15 2B 85 01 10 01 BE  ......#.%.+.....
14E0: 80 23 29 10 85 01 10 01  0A 2B 85 01 10 01 BF 80  .#)......+......
14F0: 23 48 47 80 23 2B 85 01  10 01 C0 80 23 2B 85 01  #HG.#+......#+..
1500: 10 01 C1 80 23 2B 85 01  10 01 C2 80 23 2B 85 01  ....#+......#+..
1510: 10 01 C3 80 23 2B 85 01  10 01 C4 80 23 2B 85 01  ....#+......#+..
1520: 10 01 C5 80 23 01 C2 18  02 01 00 C6 80 80 15 16  ....#...........
1530: 29 10 85 01 10 01 02 2B  85 01 10 01 C7 80 23 2B  )......+......#+
1540: 85 01 10 01 C8 80 23 2B  85 01 10 01 C9 80 23 29  ......#+......#)
1550: 10 85 01 10 01 0B 24 CA  80 01 80 01 80 25 02 00  ......$......%..
1560: 10 01 80 00 71 15 2B 85  01 10 01 CB 80 23 01 97  ....q.+......#..
1570: 15 02 00 10 03 80 00 84  15 2B 85 01 10 01 CC 80  .........+......
1580: 23 01 97 15 02 00 10 05  80 00 97 15 2B 85 01 10  #...........+...
1590: 01 CD 80 23 01 97 15 3E  05 00 CE 80 A9 15 5C 00  ...#...>......\.
15A0: CF 80 5C 01 CF 80 01 B1  15 5C 00 16 80 5C 01 16  ..\......\...\..
15B0: 80 9A 5D 49 80 03 80 2B  85 01 10 01 D0 80 23 02  ..]I...+......#.
15C0: 02 00 01 80 00 D2 15 2B  85 01 10 01 D1 80 23 01  .......+......#.
15D0: DA 15 2B 85 01 10 01 D2  80 23 2B 85 01 10 01 D3  ..+......#+.....
15E0: 80 23 2B 85 01 10 01 D4  80 23 02 02 00 05 80 00  .#+......#......
15F0: 0A 16 2B 85 01 10 01 D5  80 23 2B 85 01 10 01 D6  ..+......#+.....
1600: 80 23 2B 85 01 10 01 D7  80 23 2B 85 01 10 01 D8  .#+......#+.....
1610: 80 23 01 C2 18 02 01 00  1F 80 80 3A 17 5C 00 6B  .#.........:.\.k
1620: 80 5C 01 6B 80 9A 5D 49  80 03 80 29 10 85 01 10  .\.k..]I...)....
1630: 01 0D 2B 85 01 10 01 D9  80 23 02 02 00 03 80 05  ..+......#......
1640: 55 16 2B 85 01 10 01 DA  80 23 2B 85 01 10 01 DB  U.+......#+.....
1650: 80 23 01 5D 16 2B 85 01  10 01 DC 80 23 02 02 00  .#.].+......#...
1660: 03 80 80 70 16 2B 85 01  10 01 DD 80 23 01 BC 16  ...p.+......#...
1670: 02 02 00 05 80 80 83 16  2B 85 01 10 01 DE 80 23  ........+......#
1680: 01 BC 16 02 02 00 22 80  80 96 16 2B 85 01 10 01  ......"....+....
1690: DF 80 23 01 BC 16 02 02  00 23 80 80 A9 16 2B 85  ..#......#....+.
16A0: 01 10 01 E0 80 23 01 BC  16 02 02 00 19 80 80 BC  .....#..........
16B0: 16 2B 85 01 10 01 E1 80  23 01 BC 16 02 02 00 03  .+......#.......
16C0: 80 05 FF 16 2B 85 01 10  01 E2 80 23 2B 85 01 10  ....+......#+...
16D0: 01 E3 80 23 2B 85 01 10  01 E4 80 23 2B 85 01 10  ...#+......#+...
16E0: 01 E5 80 23 2B 85 01 10  01 E6 80 23 2B 85 01 10  ...#+......#+...
16F0: 01 E7 80 23 2B 85 01 10  01 E8 80 23 01 37 17 2B  ...#+......#.7.+
1700: 85 01 10 01 E9 80 23 2B  85 01 10 01 EA 80 23 2B  ......#+......#+
1710: 85 01 10 01 EB 80 23 2B  85 01 10 01 EC 80 23 2B  ......#+......#+
1720: 85 01 10 01 ED 80 23 2B  85 01 10 01 EE 80 23 2B  ......#+......#+
1730: 85 01 10 01 EF 80 23 01  C2 18 02 01 00 CE 80 80  ......#.........
1740: C2 18 3E 05 00 CE 80 54  17 5C 00 F0 80 5C 01 F0  ..>....T.\...\..
1750: 80 01 5C 17 5C 00 16 80  5C 01 16 80 9A 5D 49 80  ..\.\...\....]I.
1760: 03 80 29 10 85 01 10 01  0E 2B 85 01 10 01 F1 80  ..)......+......
1770: 23 02 02 00 01 80 00 8C  17 2B 85 01 10 01 F2 80  #........+......
1780: 23 2B 85 01 10 01 F3 80  23 01 BA 17 02 02 00 05  #+......#.......
1790: 80 05 9F 17 2B 85 01 10  01 F4 80 23 01 BA 17 02  ....+......#....
17A0: 02 00 22 80 00 B2 17 2B  85 01 10 01 F5 80 23 01  .."....+......#.
17B0: BA 17 2B 85 01 10 01 F6  80 23 02 02 00 03 80 80  ..+......#......
17C0: CD 17 2B 85 01 10 01 F7  80 23 01 19 18 02 02 00  ..+......#......
17D0: 05 80 80 E0 17 2B 85 01  10 01 F8 80 23 01 19 18  .....+......#...
17E0: 02 02 00 22 80 80 F3 17  2B 85 01 10 01 F9 80 23  ..."....+......#
17F0: 01 19 18 02 02 00 23 80  80 06 18 2B 85 01 10 01  ......#....+....
1800: FA 80 23 01 19 18 02 02  00 19 80 80 19 18 2B 85  ..#...........+.
1810: 01 10 01 FB 80 23 01 19  18 02 02 00 22 80 00 5C  .....#......"..\
1820: 18 2B 85 01 10 01 FC 80  23 2B 85 01 10 01 FD 80  .+......#+......
1830: 23 2B 85 01 10 01 FE 80  23 2B 85 01 10 01 FF 80  #+......#+......
1840: 23 2B 85 01 10 01 00 81  23 2B 85 01 10 01 01 81  #+......#+......
1850: 23 2B 85 01 10 01 02 81  23 01 BF 18 2B 85 01 10  #+......#...+...
1860: 01 03 81 23 02 02 00 05  80 05 77 18 2B 85 01 10  ...#......w.+...
1870: 01 04 81 23 01 7F 18 2B  85 01 10 01 05 81 23 2B  ...#...+......#+
1880: 85 01 10 01 06 81 23 2B  85 01 10 01 07 81 23 2B  ......#+......#+
1890: 85 01 10 01 08 81 23 2B  85 01 10 01 09 81 23 2B  ......#+......#+
18A0: 85 01 10 01 0A 81 23 2B  85 01 10 01 0B 81 23 02  ......#+......#.
18B0: 02 00 01 80 05 BF 18 2B  85 01 10 01 0C 81 23 01  .......+......#.
18C0: C2 18 29 10 85 01 10 01  02 5C A0 01 80 16 80 5C  ..)......\.....\
18D0: A1 01 80 0D 81 1C 12 80  48 47 80 23 5C 00 01 80  ........HG.#\...
18E0: 5C 01 01 80 9A 1C 31 80  5C 00 0E 81 5C 01 0E 81  \.....1.\...\...
18F0: 9A 5D 49 80 03 80 4A 83  01 10 01 F0 FF FF 7F 4A  .]I...J........J
1900: F0 FF FF 7F 83 01 10 01  52 11 80 F8 FF FF 7F F8  ........R.......
1910: FF FF 7F 73 30 36 36 45  11 80 F8 FF FF 7F F8 FF  ...s066E........
1920: FF 7F 73 30 36 37 01 80  6F 76 83 01 10 01 6F 76  ..s067..ov....ov
1930: F0 FF FF 7F 2B 83 01 10  01 0F 81 23 2B 83 01 10  ....+......#+...
1940: 01 10 81 1C 37 80 27 08  83 01 10 01 0C 1C 06 80  ....7.'.........
1950: 2A 08 83 01 10 01 23 52  11 80 F8 FF FF 7F F8 FF  *.....#R........
1960: FF 7F 73 30 36 37 45 11  80 F8 FF FF 7F F8 FF FF  ..s067E.........
1970: 7F 73 30 36 38 01 80 27  08 83 01 10 01 0D 03 02  .s068..'........
1980: 10 13 80 2B 83 01 10 01  11 81 23 2A 08 83 01 10  ...+......#*....
1990: 01 27 08 83 01 10 01 07  2B 83 01 10 01 12 81 23  .'......+......#
19A0: 2A 08 83 01 10 01 2B 83  01 10 01 13 81 1C 12 80  *.....+.........
19B0: 23 52 11 80 F8 FF FF 7F  F8 FF FF 7F 73 30 36 38  #R..........s068
19C0: 45 11 80 F8 FF FF 7F F8  FF FF 7F 73 30 36 39 01  E..........s069.
19D0: 80 27 08 83 01 10 01 08  2B 83 01 10 01 14 81 23  .'......+......#
19E0: 2A 08 83 01 10 01 27 08  83 01 10 01 0A 2B 83 01  *.....'......+..
19F0: 10 01 15 81 1C 12 80 2A  08 83 01 10 01 23 52 11  .......*.....#R.
1A00: 80 F8 FF FF 7F F8 FF FF  7F 73 30 36 39 45 11 80  .........s069E..
1A10: F8 FF FF 7F F8 FF FF 7F  73 30 37 30 01 80 27 08  ........s070..'.
1A20: 83 01 10 01 0B 2B 83 01  10 01 16 81 1C 2A 80 1C  .....+.......*..
1A30: 06 80 2A 08 83 01 10 01  23 52 11 80 F8 FF FF 7F  ..*.....#R......
1A40: F8 FF FF 7F 73 30 37 30  45 11 80 F8 FF FF 7F F8  ....s070E.......
1A50: FF FF 7F 73 30 37 31 01  80 27 08 83 01 10 01 12  ...s071..'......
1A60: 1C 2C 80 6E F0 FF FF 7F  17 81 99 F0 FF FF 7F 27  .,.n...........'
1A70: 08 84 01 10 01 07 1C 1D  80 03 01 10 01 00 1A 64  ...............d
1A80: 00 1C 10 80 52 11 80 F8  FF FF 7F F8 FF FF 7F 73  ....R..........s
1A90: 30 34 30 52 11 80 F8 FF  FF 7F F8 FF FF 7F 73 30  040R..........s0
1AA0: 35 39 52 11 80 F8 FF FF  7F F8 FF FF 7F 73 30 37  59R..........s07
1AB0: 31 29 08 84 01 10 01 08  5C 00 0E 81 5C 01 0E 81  1)......\...\...
1AC0: 9A 5D 49 80 03 80 1C 10  80 AB 11 01 80 1C 03 80  .]I.............
1AD0: AB 0A 46 00 02 01 10 01  80 01 F5 1A 02 01 10 01  ..F.............
1AE0: 00 00 F5 1A 45 02 80 F8  FF FF 7F F8 FF FF 7F 71  ....E..........q
1AF0: 73 74 63 01 80 45 00 80  F0 FF FF 7F F0 FF FF 7F  stc..E..........
1B00: 66 64 69 32 01 80 21 00                           fdi2..!.        
```

#### Opcodes

```
  0: 0x0292 [0x42] SET_CLI_EVENT_CANCEL_DATA()
  1: 0x0293 [0x03] ExtData[1]->WorkLocal[5] = Work_Zone[9]
  2: 0x0298 [0x1A] CALL_SUBROUTINE(address=0x0064)
  3: 0x029B [0x46] CAMERA_CONTROL: Disable user control
  4: 0x029D [0x38] SET_CLIENT_EVENT_MODE(mode=27*)
  5: 0x02A0 [0x5C] MUSIC_CONTROL: Set Idle (Day) music to song 163*
  6: 0x02A4 [0x5C] MUSIC_CONTROL: Set Idle (Night) music to song 163*
  7: 0x02A8 [0x9A] WAIT_MUSIC_SERVER()
  8: 0x02A9 [0x4E] SET_ENTITY_HIDE_FLAG: Show ??? (ID: 17826180/0x01100184)
  9: 0x02AF [0x2F] ??? (ID: 17826180/0x01100184)->Render.Flags0 &= ~0x80000 // Bit 19
 10: 0x02B5 [0x92] Nunaarl Bthtrogg (ID: 17826179/0x01100183)->Render.Flags3 ^= 0x01
 11: 0x02BB [0x92] ??? (ID: 17826180/0x01100184)->Render.Flags3 ^= 0x01
 12: 0x02C1 [0x92] ??? (ID: 17826181/0x01100185)->Render.Flags3 ^= 0x01
 13: 0x02C7 [0x92] Eternal Flame (ID: 17826104/0x01100138)->Render.Flags3 ^= 0x01
 14: 0x02CD [0x92] Duberasson (ID: 17826106/0x0110013A)->Render.Flags3 ^= 0x01
 15: 0x02D3 [0x92] Gorad (ID: 17826070/0x01100116)->Render.Flags3 ^= 0x01
 16: 0x02D9 [0x92] Noan (ID: 17826072/0x01100118)->Render.Flags3 ^= 0x01
 17: 0x02DF [0x92] Dangueubert (ID: 17826074/0x0110011A)->Render.Flags3 ^= 0x01
 18: 0x02E5 [0x92] Nylene (ID: 17826063/0x0110010F)->Render.Flags3 ^= 0x01
 19: 0x02EB [0x94] Nunaarl Bthtrogg (ID: 17826179/0x01100183)->Render.Flags3 ^= 0x01
 20: 0x02F1 [0x94] ??? (ID: 17826180/0x01100184)->Render.Flags3 ^= 0x01
 21: 0x02F7 [0x94] ??? (ID: 17826181/0x01100185)->Render.Flags3 ^= 0x01
 22: 0x02FD [0x94] Eternal Flame (ID: 17826104/0x01100138)->Render.Flags3 ^= 0x01
 23: 0x0303 [0x94] Duberasson (ID: 17826106/0x0110013A)->Render.Flags3 ^= 0x01
 24: 0x0309 [0x94] Gorad (ID: 17826070/0x01100116)->Render.Flags3 ^= 0x01
 25: 0x030F [0x94] Noan (ID: 17826072/0x01100118)->Render.Flags3 ^= 0x01
 26: 0x0315 [0x94] Dangueubert (ID: 17826074/0x0110011A)->Render.Flags3 ^= 0x01
 27: 0x031B [0x94] Nylene (ID: 17826063/0x0110010F)->Render.Flags3 ^= 0x01
 28: 0x0321 [0x94] LocalPlayer->Render.Flags3 ^= 0x01
 29: 0x0327 [0xBA] SET_ENTITY_POSITION(entity_id=??? (ID: 17826180/0x01100184), pos_x=16.130*, pos_z=-110.442*, pos_y=0.000*, direction=179.1*)
 30: 0x0334 [0xBA] SET_ENTITY_POSITION(entity_id=LocalPlayer, pos_x=16.070*, pos_z=-111.822*, pos_y=0.000*, direction=208.6*)
 31: 0x0341 [0x29] REQ_SET_WAIT(priority=0x08, entity_id=??? (ID: 17826180/0x01100184), tag_num=0x05)
 32: 0x0348 [0x4A] LocalPlayer looks at Nunaarl Bthtrogg (ID: 17826179/0x01100183)
 33: 0x0351 [0x80] LOAD_WAIT(entity=Nunaarl Bthtrogg (ID: 17826179/0x01100183))
 34: 0x0356 [0x80] LOAD_WAIT(entity=??? (ID: 17826180/0x01100184))
 35: 0x035B [0x80] LOAD_WAIT(entity=??? (ID: 17826181/0x01100185))
 36: 0x0360 [0x80] LOAD_WAIT(entity=Eternal Flame (ID: 17826104/0x01100138))
 37: 0x0365 [0x80] LOAD_WAIT(entity=Duberasson (ID: 17826106/0x0110013A))
 38: 0x036A [0x80] LOAD_WAIT(entity=Gorad (ID: 17826070/0x01100116))
 39: 0x036F [0x80] LOAD_WAIT(entity=Noan (ID: 17826072/0x01100118))
 40: 0x0374 [0x80] LOAD_WAIT(entity=Dangueubert (ID: 17826074/0x0110011A))
 41: 0x0379 [0x80] LOAD_WAIT(entity=Nylene (ID: 17826063/0x0110010F))
 42: 0x037E [0x80] LOAD_WAIT(entity=LocalPlayer)
 43: 0x0383 [0x02] IF !(Work_Zone[2] == 1*) GOTO 0x044B
 44: 0x038B [0x4A] Nunaarl Bthtrogg (ID: 17826179/0x01100183) looks at ??? (ID: 17826180/0x01100184)
 45: 0x0394 [0x6F] WAIT_FRAME_DELAY: Yield until WaitTime reaches zero
 46: 0x0395 [0x76] CHECK_ENTITY_RENDER_FLAGS: Wait until Nunaarl Bthtrogg (ID: 17826179/0x01100183) Render.Flags0 and Render.Flags3 conditions are met
 47: 0x039A [0x27] REQ_SET(priority=0x08, entity_id=Nunaarl Bthtrogg (ID: 17826179/0x01100183), tag_num=0x11)
 48: 0x03A1 [0x1C] WAIT(15* ticks)
 49: 0x03A4 [0x45] LOAD_SCHEDULED_TASK: Load scheduler "s060" with entities [EventEntity, EventEntity], work=[706*, 0*]
 50: 0x03B5 [0x1A] CALL_SUBROUTINE(address=0x0043)
 51: 0x03B8 [0x1C] WAIT(70* ticks)
 52: 0x03BB [0x52] END_LOAD_SCHEDULER: End scheduler "s060" with entities [EventEntity, EventEntity], work=706*
 53: 0x03CA [0x45] LOAD_SCHEDULED_TASK: Load scheduler "s056" with entities [EventEntity, EventEntity], work=[706*, 0*]
 54: 0x03DB [0x1C] WAIT(30* ticks)
 55: 0x03DE [0x29] REQ_SET_WAIT(priority=0x08, entity_id=??? (ID: 17826180/0x01100184), tag_num=0x06)
 56: 0x03E5 [0x29] REQ_SET_WAIT(priority=0x08, entity_id=Nunaarl Bthtrogg (ID: 17826179/0x01100183), tag_num=0x06)
 57: 0x03EC [0x03] Work_Zone[2] = 2631*
 58: 0x03F1 [0x2B] Nunaarl Bthtrogg (ID: 17826179/0x01100183) [13117*]:
     "Back for more? Then I'll give you back this $3."
 59: 0x03F8 [0x1C] WAIT(70* ticks)
 60: 0x03FB [0x23] WAIT_FOR_DIALOG_INTERACTION
 61: 0x03FC [0x4A] Nunaarl Bthtrogg (ID: 17826179/0x01100183) looks at LocalPlayer
 62: 0x0405 [0x4A] ??? (ID: 17826180/0x01100184) looks at LocalPlayer
 63: 0x040E [0x52] END_LOAD_SCHEDULER: End scheduler "s056" with entities [EventEntity, EventEntity], work=706*
 64: 0x041D [0x45] LOAD_SCHEDULED_TASK: Load scheduler "s055" with entities [EventEntity, EventEntity], work=[706*, 0*]
 65: 0x042E [0x6F] WAIT_FRAME_DELAY: Yield until WaitTime reaches zero
 66: 0x042F [0x76] CHECK_ENTITY_RENDER_FLAGS: Wait until Nunaarl Bthtrogg (ID: 17826179/0x01100183) Render.Flags0 and Render.Flags3 conditions are met
 67: 0x0434 [0x6F] WAIT_FRAME_DELAY: Yield until WaitTime reaches zero
 68: 0x0435 [0x76] CHECK_ENTITY_RENDER_FLAGS: Wait until ??? (ID: 17826180/0x01100184) Render.Flags0 and Render.Flags3 conditions are met
 69: 0x043A [0x2B] Nunaarl Bthtrogg (ID: 17826179/0x01100183) [13118*]:
     "Now, have you finally got a Unity in mind?"
 70: 0x0441 [0x1C] WAIT(70* ticks)
 71: 0x0444 [0x23] WAIT_FOR_DIALOG_INTERACTION
 72: 0x0445 [0x06] ExtData[1]->WorkLocal[0] = 0
 73: 0x0448 [0x01] GOTO 0x0AAB
 74: 0x044B [0x4A] Nunaarl Bthtrogg (ID: 17826179/0x01100183) looks at LocalPlayer
 75: 0x0454 [0x6F] WAIT_FRAME_DELAY: Yield until WaitTime reaches zero
 76: 0x0455 [0x76] CHECK_ENTITY_RENDER_FLAGS: Wait until Nunaarl Bthtrogg (ID: 17826179/0x01100183) Render.Flags0 and Render.Flags3 conditions are met
 77: 0x045A [0x1C] WAIT(15* ticks)
 78: 0x045D [0x45] LOAD_SCHEDULED_TASK: Load scheduler "s036" with entities [EventEntity, EventEntity], work=[706*, 0*]
 79: 0x046E [0x1A] CALL_SUBROUTINE(address=0x0043)
 80: 0x0471 [0x1C] WAIT(120* ticks)
 81: 0x0474 [0x52] END_LOAD_SCHEDULER: End scheduler "s036" with entities [EventEntity, EventEntity], work=706*
 82: 0x0483 [0x45] LOAD_SCHEDULED_TASK: Load scheduler "s037" with entities [EventEntity, EventEntity], work=[706*, 0*]
 83: 0x0494 [0x27] REQ_SET(priority=0x08, entity_id=Nunaarl Bthtrogg (ID: 17826179/0x01100183), tag_num=0x10)
 84: 0x049B [0x2B] Nunaarl Bthtrogg (ID: 17826179/0x01100183) [13094*]:
     "Is it playtime alrrready? Oh, I do love reeling in a fresh catch!"
 85: 0x04A2 [0x23] WAIT_FOR_DIALOG_INTERACTION
 86: 0x04A3 [0x2B] Nunaarl Bthtrogg (ID: 17826179/0x01100183) [13098*]:
     "And what a fine one I've got my paws on today! You've come here to participate in Unity Concorrrd, haven't you?"
 87: 0x04AA [0x1C] WAIT(70* ticks)
 88: 0x04AD [0x2A] GET_REQ_LEVEL(level=8, entity_id=Nunaarl Bthtrogg (ID: 17826179/0x01100183))
 89: 0x04B3 [0x23] WAIT_FOR_DIALOG_INTERACTION
 90: 0x04B4 [0x52] END_LOAD_SCHEDULER: End scheduler "s037" with entities [EventEntity, EventEntity], work=706*

SUBROUTINE_04C3:
 91: 0x04C3 [0x02] IF !(LocalPlayer->Race == 5*) GOTO 0x04DF
 92: 0x04CB [0x45] LOAD_SCHEDULED_TASK: Load scheduler "s039" with entities [EventEntity, EventEntity], work=[706*, 0*]
 93: 0x04DC [0x01] GOTO 0x050C
 94: 0x04DF [0x02] IF !(LocalPlayer->Race == 6*) GOTO 0x04FB
 95: 0x04E7 [0x45] LOAD_SCHEDULED_TASK: Load scheduler "s039" with entities [EventEntity, EventEntity], work=[706*, 0*]
 96: 0x04F8 [0x01] GOTO 0x050C
 97: 0x04FB [0x45] LOAD_SCHEDULED_TASK: Load scheduler "s038" with entities [EventEntity, EventEntity], work=[706*, 0*]

SUBROUTINE_050C:
 98: 0x050C [0x24] CREATE_DIALOG(message_id=13099*, default_option=0*, option_flags=0*)
     "How do you respond? [There's something fishy about this./I'm interested in Unity Concord./Tell me more about this "playtime."]"
 99: 0x0513 [0x25] WAIT_DIALOG_SELECT()
100: 0x0514 [0x02] IF !(Work_Zone[0] == 0*) GOTO 0x057D
101: 0x051C [0x6E] LocalPlayer uses emote 8*
102: 0x0523 [0x99] Wait for LocalPlayer animation to complete
103: 0x0528 [0x1C] WAIT(100* ticks)
104: 0x052B [0x52] END_LOAD_SCHEDULER: End scheduler "s038" with entities [EventEntity, EventEntity], work=706*
105: 0x053A [0x52] END_LOAD_SCHEDULER: End scheduler "s039" with entities [EventEntity, EventEntity], work=706*
106: 0x0549 [0x45] LOAD_SCHEDULED_TASK: Load scheduler "s040" with entities [EventEntity, EventEntity], work=[706*, 0*]
107: 0x055A [0x27] REQ_SET(priority=0x08, entity_id=Nunaarl Bthtrogg (ID: 17826179/0x01100183), tag_num=0x0E)
108: 0x0561 [0x2B] Nunaarl Bthtrogg (ID: 17826179/0x01100183) [13100*]:
     "Not going to take the bait? That's a downrrright shame. Come back if you've changed your mind."
109: 0x0568 [0x1C] WAIT(70* ticks)
110: 0x056B [0x2A] GET_REQ_LEVEL(level=8, entity_id=Nunaarl Bthtrogg (ID: 17826179/0x01100183))
111: 0x0571 [0x23] WAIT_FOR_DIALOG_INTERACTION
112: 0x0572 [0x03] Work_Zone[1] = 0*
113: 0x0577 [0x01] GOTO 0x1A7E

SUBROUTINE_0682:
114: 0x0682 [0x02] IF !(LocalPlayer->JobLevel == 99*) GOTO 0x0695
115: 0x068A [0x2B] Nunaarl Bthtrogg (ID: 17826179/0x01100183) [13102*]:
     "Hmm hmm... Yes, a fine specimen you make indeed!"
116: 0x0691 [0x23] WAIT_FOR_DIALOG_INTERACTION
117: 0x0692 [0x01] GOTO 0x069D
118: 0x0695 [0x2B] Nunaarl Bthtrogg (ID: 17826179/0x01100183) [13103*]:
     "Hmm hmm... Not quite what I was hoping for, but you'll have to do."
119: 0x069C [0x23] WAIT_FOR_DIALOG_INTERACTION

SUBROUTINE_069D:
120: 0x069D [0x52] END_LOAD_SCHEDULER: End scheduler "s041" with entities [EventEntity, EventEntity], work=706*
121: 0x06AC [0x52] END_LOAD_SCHEDULER: End scheduler "s042" with entities [EventEntity, EventEntity], work=706*
122: 0x06BB [0x52] END_LOAD_SCHEDULER: End scheduler "s043" with entities [EventEntity, EventEntity], work=706*
123: 0x06CA [0x02] IF !(LocalPlayer->Race == 5*) GOTO 0x06E6
124: 0x06D2 [0x45] LOAD_SCHEDULED_TASK: Load scheduler "s049" with entities [EventEntity, EventEntity], work=[706*, 0*]
125: 0x06E3 [0x01] GOTO 0x0713
126: 0x06E6 [0x02] IF !(LocalPlayer->Race == 6*) GOTO 0x0702
127: 0x06EE [0x45] LOAD_SCHEDULED_TASK: Load scheduler "s049" with entities [EventEntity, EventEntity], work=[706*, 0*]
128: 0x06FF [0x01] GOTO 0x0713
129: 0x0702 [0x45] LOAD_SCHEDULED_TASK: Load scheduler "s044" with entities [EventEntity, EventEntity], work=[706*, 0*]

SUBROUTINE_0713:
130: 0x0713 [0x27] REQ_SET(priority=0x08, entity_id=Nunaarl Bthtrogg (ID: 17826179/0x01100183), tag_num=0x0B)
131: 0x071A [0x2B] Nunaarl Bthtrogg (ID: 17826179/0x01100183) [13104*]:
     "Well... There's one condition--you have to join a Unity firrrst!"
132: 0x0721 [0x23] WAIT_FOR_DIALOG_INTERACTION
133: 0x0722 [0x1C] WAIT(70* ticks)
134: 0x0725 [0x2A] GET_REQ_LEVEL(level=8, entity_id=Nunaarl Bthtrogg (ID: 17826179/0x01100183))
135: 0x072B [0x23] WAIT_FOR_DIALOG_INTERACTION
136: 0x072C [0x79] Nunaarl Bthtrogg (ID: 17826179/0x01100183) looks at LocalPlayer (Basic look)
137: 0x0736 [0x52] END_LOAD_SCHEDULER: End scheduler "s044" with entities [EventEntity, EventEntity], work=706*
138: 0x0745 [0x52] END_LOAD_SCHEDULER: End scheduler "s049" with entities [EventEntity, EventEntity], work=706*
139: 0x0754 [0x01] GOTO 0x04C3

SUBROUTINE_075A:
140: 0x075A [0x6E] LocalPlayer uses emote 7*
141: 0x0761 [0x99] Wait for LocalPlayer animation to complete
142: 0x0766 [0x1C] WAIT(70* ticks)
143: 0x0769 [0x52] END_LOAD_SCHEDULER: End scheduler "s038" with entities [EventEntity, EventEntity], work=706*
144: 0x0778 [0x52] END_LOAD_SCHEDULER: End scheduler "s039" with entities [EventEntity, EventEntity], work=706*
145: 0x0787 [0x45] LOAD_SCHEDULED_TASK: Load scheduler "s045" with entities [EventEntity, EventEntity], work=[706*, 0*]
146: 0x0798 [0x27] REQ_SET(priority=0x08, entity_id=Nunaarl Bthtrogg (ID: 17826179/0x01100183), tag_num=0x10)
147: 0x079F [0x03] Work_Zone[3] = 5*
148: 0x07A4 [0x2B] Nunaarl Bthtrogg (ID: 17826179/0x01100183) [13105*]:
     "Of course you are! To get starrrted you'll need to get your claws on the $1 objective."
149: 0x07AB [0x1C] WAIT(70* ticks)
150: 0x07AE [0x2A] GET_REQ_LEVEL(level=8, entity_id=Nunaarl Bthtrogg (ID: 17826179/0x01100183))
151: 0x07B4 [0x23] WAIT_FOR_DIALOG_INTERACTION
152: 0x07B5 [0x4A] Nunaarl Bthtrogg (ID: 17826179/0x01100183) looks at ??? (ID: 17826180/0x01100184)
153: 0x07BE [0x4A] ??? (ID: 17826180/0x01100184) looks at Nunaarl Bthtrogg (ID: 17826179/0x01100183)
154: 0x07C7 [0x52] END_LOAD_SCHEDULER: End scheduler "s045" with entities [EventEntity, EventEntity], work=706*
155: 0x07D6 [0x45] LOAD_SCHEDULED_TASK: Load scheduler "s046" with entities [EventEntity, EventEntity], work=[706*, 0*]
156: 0x07E7 [0x6F] WAIT_FRAME_DELAY: Yield until WaitTime reaches zero
157: 0x07E8 [0x76] CHECK_ENTITY_RENDER_FLAGS: Wait until Nunaarl Bthtrogg (ID: 17826179/0x01100183) Render.Flags0 and Render.Flags3 conditions are met
158: 0x07ED [0x27] REQ_SET(priority=0x08, entity_id=Nunaarl Bthtrogg (ID: 17826179/0x01100183), tag_num=0x09)
159: 0x07F4 [0x1C] WAIT(40* ticks)
160: 0x07F7 [0x03] Work_Zone[2] = 2631*
161: 0x07FC [0x2B] Nunaarl Bthtrogg (ID: 17826179/0x01100183) [13106*]:
     "First, let me give you this whale of a $3."
162: 0x0803 [0x1C] WAIT(30* ticks)
163: 0x0806 [0x29] REQ_SET_WAIT(priority=0x08, entity_id=??? (ID: 17826180/0x01100184), tag_num=0x06)
164: 0x080D [0x1C] WAIT(40* ticks)
165: 0x0810 [0x2A] GET_REQ_LEVEL(level=8, entity_id=Nunaarl Bthtrogg (ID: 17826179/0x01100183))
166: 0x0816 [0x23] WAIT_FOR_DIALOG_INTERACTION
167: 0x0817 [0x27] REQ_SET(priority=0x08, entity_id=Nunaarl Bthtrogg (ID: 17826179/0x01100183), tag_num=0x13)
168: 0x081E [0x1C] WAIT(30* ticks)
169: 0x0821 [0x4A] LocalPlayer looks at ??? (ID: 17826180/0x01100184)
170: 0x082A [0x52] END_LOAD_SCHEDULER: End scheduler "s046" with entities [EventEntity, EventEntity], work=706*
171: 0x0839 [0x45] LOAD_SCHEDULED_TASK: Load scheduler "s047" with entities [EventEntity, EventEntity], work=[706*, 0*]
172: 0x084A [0x6F] WAIT_FRAME_DELAY: Yield until WaitTime reaches zero
173: 0x084B [0x76] CHECK_ENTITY_RENDER_FLAGS: Wait until LocalPlayer Render.Flags0 and Render.Flags3 conditions are met
174: 0x0850 [0x2A] GET_REQ_LEVEL(level=8, entity_id=Nunaarl Bthtrogg (ID: 17826179/0x01100183))
175: 0x0856 [0x1C] WAIT(20* ticks)
176: 0x0859 [0x27] REQ_SET(priority=0x08, entity_id=Nunaarl Bthtrogg (ID: 17826179/0x01100183), tag_num=0x0F)
177: 0x0860 [0x1C] WAIT(90* ticks)
178: 0x0863 [0x2A] GET_REQ_LEVEL(level=8, entity_id=Nunaarl Bthtrogg (ID: 17826179/0x01100183))
179: 0x0869 [0x1C] WAIT(20* ticks)
180: 0x086C [0x4A] ??? (ID: 17826180/0x01100184) looks at LocalPlayer
181: 0x0875 [0x52] END_LOAD_SCHEDULER: End scheduler "s047" with entities [EventEntity, EventEntity], work=706*
182: 0x0884 [0x02] IF !(LocalPlayer->Race == 3*) GOTO 0x08A0
183: 0x088C [0x45] LOAD_SCHEDULED_TASK: Load scheduler "s048" with entities [EventEntity, EventEntity], work=[706*, 0*]
184: 0x089D [0x01] GOTO 0x0921
185: 0x08A0 [0x02] IF !(LocalPlayer->Race == 4*) GOTO 0x08BC
186: 0x08A8 [0x45] LOAD_SCHEDULED_TASK: Load scheduler "s048" with entities [EventEntity, EventEntity], work=[706*, 0*]
187: 0x08B9 [0x01] GOTO 0x0921
188: 0x08BC [0x02] IF !(LocalPlayer->Race == 5*) GOTO 0x08D8
189: 0x08C4 [0x45] LOAD_SCHEDULED_TASK: Load scheduler "s051" with entities [EventEntity, EventEntity], work=[706*, 0*]
190: 0x08D5 [0x01] GOTO 0x0921
191: 0x08D8 [0x02] IF !(LocalPlayer->Race == 6*) GOTO 0x08F4
192: 0x08E0 [0x45] LOAD_SCHEDULED_TASK: Load scheduler "s051" with entities [EventEntity, EventEntity], work=[706*, 0*]
193: 0x08F1 [0x01] GOTO 0x0921
194: 0x08F4 [0x02] IF !(LocalPlayer->Race == 8*) GOTO 0x0910
195: 0x08FC [0x45] LOAD_SCHEDULED_TASK: Load scheduler "s048" with entities [EventEntity, EventEntity], work=[706*, 0*]
196: 0x090D [0x01] GOTO 0x0921
197: 0x0910 [0x45] LOAD_SCHEDULED_TASK: Load scheduler "s050" with entities [EventEntity, EventEntity], work=[706*, 0*]

SUBROUTINE_0921:
198: 0x0921 [0x6F] WAIT_FRAME_DELAY: Yield until WaitTime reaches zero
199: 0x0922 [0x76] CHECK_ENTITY_RENDER_FLAGS: Wait until ??? (ID: 17826180/0x01100184) Render.Flags0 and Render.Flags3 conditions are met
200: 0x0927 [0x27] REQ_SET(priority=0x08, entity_id=Nunaarl Bthtrogg (ID: 17826179/0x01100183), tag_num=0x0E)
201: 0x092E [0x1C] WAIT(20* ticks)
202: 0x0931 [0x48] [System] [13107*]:
     "<Bleep>"
203: 0x0934 [0x29] REQ_SET_WAIT(priority=0x08, entity_id=??? (ID: 17826180/0x01100184), tag_num=0x04)
204: 0x093B [0x1C] WAIT(20* ticks)
205: 0x093E [0x48] [System] [13108*]:
     "Nunaarl Bthtrogg shoves the $3 into your hands."
206: 0x0941 [0x6E] LocalPlayer uses emote 18*
207: 0x0948 [0x99] Wait for LocalPlayer animation to complete
208: 0x094D [0x2A] GET_REQ_LEVEL(level=8, entity_id=Nunaarl Bthtrogg (ID: 17826179/0x01100183))
209: 0x0953 [0x1C] WAIT(60* ticks)
210: 0x0956 [0x27] REQ_SET(priority=0x08, entity_id=Nunaarl Bthtrogg (ID: 17826179/0x01100183), tag_num=0x14)
211: 0x095D [0x1C] WAIT(60* ticks)
212: 0x0960 [0x52] END_LOAD_SCHEDULER: End scheduler "s048" with entities [EventEntity, EventEntity], work=706*
213: 0x096F [0x52] END_LOAD_SCHEDULER: End scheduler "s050" with entities [EventEntity, EventEntity], work=706*
214: 0x097E [0x52] END_LOAD_SCHEDULER: End scheduler "s051" with entities [EventEntity, EventEntity], work=706*
215: 0x098D [0x45] LOAD_SCHEDULED_TASK: Load scheduler "s052" with entities [EventEntity, EventEntity], work=[706*, 0*]
216: 0x099E [0x2A] GET_REQ_LEVEL(level=8, entity_id=Nunaarl Bthtrogg (ID: 17826179/0x01100183))
217: 0x09A4 [0x1C] WAIT(20* ticks)
218: 0x09A7 [0x27] REQ_SET(priority=0x08, entity_id=Nunaarl Bthtrogg (ID: 17826179/0x01100183), tag_num=0x07)
219: 0x09AE [0x6B] STOP_AND_IDLE: ??? (ID: 17826180/0x01100184) stops current action and resets to idle (animation="idl0")
220: 0x09B7 [0x4A] LocalPlayer looks at Nunaarl Bthtrogg (ID: 17826179/0x01100183)
221: 0x09C0 [0x2B] Nunaarl Bthtrogg (ID: 17826179/0x01100183) [13109*]:
     "I suppose I betterrr explain what Unity Concord is, lest your mental vessel capsize. Unity Concord is a special type of gathering formed by the Adventurers' Mutual Aid Network."
222: 0x09C7 [0x23] WAIT_FOR_DIALOG_INTERACTION
223: 0x09C8 [0x2B] Nunaarl Bthtrogg (ID: 17826179/0x01100183) [13110*]:
     "They share one similarity with linkshells--people from the four corners of Vana'diel come togetherrr to accomplish things that they could not do alone."
224: 0x09CF [0x1C] WAIT(70* ticks)
225: 0x09D2 [0x2A] GET_REQ_LEVEL(level=8, entity_id=Nunaarl Bthtrogg (ID: 17826179/0x01100183))
226: 0x09D8 [0x23] WAIT_FOR_DIALOG_INTERACTION
227: 0x09D9 [0x52] END_LOAD_SCHEDULER: End scheduler "s052" with entities [EventEntity, EventEntity], work=706*
228: 0x09E8 [0x45] LOAD_SCHEDULED_TASK: Load scheduler "s053" with entities [EventEntity, EventEntity], work=[706*, 0*]
229: 0x09F9 [0x27] REQ_SET(priority=0x08, entity_id=Nunaarl Bthtrogg (ID: 17826179/0x01100183), tag_num=0x08)
230: 0x0A00 [0x2B] Nunaarl Bthtrogg (ID: 17826179/0x01100183) [13111*]:
     "But it isn't any old fishing expedition. That $3 rrrecords all of your good deeds and stores them inside its adorable cotton confines."
231: 0x0A07 [0x1C] WAIT(70* ticks)
232: 0x0A0A [0x2A] GET_REQ_LEVEL(level=8, entity_id=Nunaarl Bthtrogg (ID: 17826179/0x01100183))
233: 0x0A10 [0x23] WAIT_FOR_DIALOG_INTERACTION
234: 0x0A11 [0x52] END_LOAD_SCHEDULER: End scheduler "s053" with entities [EventEntity, EventEntity], work=706*
235: 0x0A20 [0x45] LOAD_SCHEDULED_TASK: Load scheduler "s054" with entities [EventEntity, EventEntity], work=[706*, 0*]
236: 0x0A31 [0x27] REQ_SET(priority=0x08, entity_id=Nunaarl Bthtrogg (ID: 17826179/0x01100183), tag_num=0x0C)
237: 0x0A38 [0x2B] Nunaarl Bthtrogg (ID: 17826179/0x01100183) [13112*]:
     "So why not get your feet wet? The tasks you'll be doing are rrrelatively simple in nature."
238: 0x0A3F [0x23] WAIT_FOR_DIALOG_INTERACTION
239: 0x0A40 [0x2A] GET_REQ_LEVEL(level=8, entity_id=Nunaarl Bthtrogg (ID: 17826179/0x01100183))
240: 0x0A46 [0x27] REQ_SET(priority=0x08, entity_id=Nunaarl Bthtrogg (ID: 17826179/0x01100183), tag_num=0x0D)
241: 0x0A4D [0x2B] Nunaarl Bthtrogg (ID: 17826179/0x01100183) [13113*]:
     "The first thing you'll have to do is choose a Unity--an orrrganization headed by some of Vana'diel's most storied personages."
242: 0x0A54 [0x1C] WAIT(70* ticks)
243: 0x0A57 [0x2A] GET_REQ_LEVEL(level=8, entity_id=Nunaarl Bthtrogg (ID: 17826179/0x01100183))
244: 0x0A5D [0x23] WAIT_FOR_DIALOG_INTERACTION
245: 0x0A5E [0x27] REQ_SET(priority=0x08, entity_id=Nunaarl Bthtrogg (ID: 17826179/0x01100183), tag_num=0x09)
246: 0x0A65 [0x1C] WAIT(50* ticks)
247: 0x0A68 [0x52] END_LOAD_SCHEDULER: End scheduler "s054" with entities [EventEntity, EventEntity], work=706*
248: 0x0A77 [0x45] LOAD_SCHEDULED_TASK: Load scheduler "s055" with entities [EventEntity, EventEntity], work=[706*, 0*]
249: 0x0A88 [0x2B] Nunaarl Bthtrogg (ID: 17826179/0x01100183) [13114*]:
     "Select one and set sail!"
250: 0x0A8F [0x1C] WAIT(70* ticks)
251: 0x0A92 [0x2A] GET_REQ_LEVEL(level=8, entity_id=Nunaarl Bthtrogg (ID: 17826179/0x01100183))
252: 0x0A98 [0x23] WAIT_FOR_DIALOG_INTERACTION
253: 0x0A99 [0x52] END_LOAD_SCHEDULER: End scheduler "s055" with entities [EventEntity, EventEntity], work=706*
254: 0x0AA8 [0x06] ExtData[1]->WorkLocal[0] = 0

SUBROUTINE_0AAB:
255: 0x0AAB [0x02] IF !(LocalPlayer->Race == 5*) GOTO 0x0AC7
256: 0x0AB3 [0x45] LOAD_SCHEDULED_TASK: Load scheduler "s058" with entities [EventEntity, EventEntity], work=[706*, 0*]
257: 0x0AC4 [0x01] GOTO 0x0AF4
258: 0x0AC7 [0x02] IF !(LocalPlayer->Race == 6*) GOTO 0x0AE3
259: 0x0ACF [0x45] LOAD_SCHEDULED_TASK: Load scheduler "s058" with entities [EventEntity, EventEntity], work=[706*, 0*]
260: 0x0AE0 [0x01] GOTO 0x0AF4
261: 0x0AE3 [0x45] LOAD_SCHEDULED_TASK: Load scheduler "s057" with entities [EventEntity, EventEntity], work=[706*, 0*]

SUBROUTINE_0AF4:
262: 0x0AF4 [0x24] CREATE_DIALOG(message_id=13010*, default_option=ExtData[1]->WorkLocal[0], option_flags=0*)
     "Join which Unity? [I need time to consider./Pieuje./Ayame./Invincible Shield./Apururu./Maat./Aldo./Jakoh Wahcondalo./Naja Salaheem./Flaviria./Yoran-Oran./Sylvie.]"
263: 0x0AFB [0x25] WAIT_DIALOG_SELECT()
264: 0x0AFC [0x02] IF !(Work_Zone[0] == 0*) GOTO 0x0BA4
265: 0x0B04 [0x6E] LocalPlayer uses emote 35*
266: 0x0B0B [0x99] Wait for LocalPlayer animation to complete
267: 0x0B10 [0x1C] WAIT(60* ticks)
268: 0x0B13 [0x52] END_LOAD_SCHEDULER: End scheduler "s057" with entities [EventEntity, EventEntity], work=706*
269: 0x0B22 [0x52] END_LOAD_SCHEDULER: End scheduler "s058" with entities [EventEntity, EventEntity], work=706*
270: 0x0B31 [0x45] LOAD_SCHEDULED_TASK: Load scheduler "s061" with entities [EventEntity, EventEntity], work=[706*, 0*]
271: 0x0B42 [0x27] REQ_SET(priority=0x08, entity_id=Nunaarl Bthtrogg (ID: 17826179/0x01100183), tag_num=0x0A)
272: 0x0B49 [0x2B] Nunaarl Bthtrogg (ID: 17826179/0x01100183) [13115*]:
     "Urk... You'll never have a good catch if you don't even cast your net!"
273: 0x0B50 [0x1C] WAIT(70* ticks)
274: 0x0B53 [0x2A] GET_REQ_LEVEL(level=8, entity_id=Nunaarl Bthtrogg (ID: 17826179/0x01100183))
275: 0x0B59 [0x23] WAIT_FOR_DIALOG_INTERACTION
276: 0x0B5A [0x52] END_LOAD_SCHEDULER: End scheduler "s061" with entities [EventEntity, EventEntity], work=706*
277: 0x0B69 [0x45] LOAD_SCHEDULED_TASK: Load scheduler "s059" with entities [EventEntity, EventEntity], work=[706*, 0*]
278: 0x0B7A [0x27] REQ_SET(priority=0x08, entity_id=Nunaarl Bthtrogg (ID: 17826179/0x01100183), tag_num=0x0B)
279: 0x0B81 [0x2B] Nunaarl Bthtrogg (ID: 17826179/0x01100183) [13116*]:
     "Gimme back that doll. You clearrrly won't be needing it for now."
280: 0x0B88 [0x23] WAIT_FOR_DIALOG_INTERACTION
281: 0x0B89 [0x2A] GET_REQ_LEVEL(level=8, entity_id=Nunaarl Bthtrogg (ID: 17826179/0x01100183))
282: 0x0B8F [0x27] REQ_SET(priority=0x08, entity_id=Nunaarl Bthtrogg (ID: 17826179/0x01100183), tag_num=0x12)
283: 0x0B96 [0x1C] WAIT(120* ticks)
284: 0x0B99 [0x03] Work_Zone[1] = 99*
285: 0x0B9E [0x01] GOTO 0x1A7E

SUBROUTINE_0BA4:
286: 0x0BA4 [0x29] REQ_SET_WAIT(priority=0x08, entity_id=LocalPlayer, tag_num=0x87)
287: 0x0BAB [0x1C] WAIT(80* ticks)
288: 0x0BAE [0x52] END_LOAD_SCHEDULER: End scheduler "s057" with entities [EventEntity, EventEntity], work=706*
289: 0x0BBD [0x52] END_LOAD_SCHEDULER: End scheduler "s058" with entities [EventEntity, EventEntity], work=706*
290: 0x0BCC [0x45] LOAD_SCHEDULED_TASK: Load scheduler "s062" with entities [EventEntity, EventEntity], work=[706*, 0*]
291: 0x0BDD [0x03] ExtData[1]->WorkLocal[0] = Work_Zone[0]
292: 0x0BE2 [0x03] Work_Zone[2] = Work_Zone[0]
293: 0x0BE7 [0x0C] Work_Zone[2]--
294: 0x0BEA [0x2B] Nunaarl Bthtrogg (ID: 17826179/0x01100183) [13119*]:
     "[Pieuje/Ayame/Invincible Shield/Apururu/Maat/Aldo/Jakoh Wahcondalo/Naja Salaheem/Flaviria/Yoran-Oran/Sylvie]'s as good a leaderrr as any. Are you sure?"
295: 0x0BF1 [0x1C] WAIT(70* ticks)
296: 0x0BF4 [0x23] WAIT_FOR_DIALOG_INTERACTION
297: 0x0BF5 [0x48] [System] [13011*]:
     "Should you join one Unity, you will not be able to switch to another one until the rankings are tallied. Proceed anyway?"
298: 0x0BF8 [0x24] CREATE_DIALOG(message_id=13012*, default_option=1*, option_flags=0*)
     "Join [Pieuje's/Ayame's/Invincible Shield's/Apururu's/Maat's/Aldo's/Jakoh Wahcondalo's/Naja Salaheem's/Flaviria's/Yoran-Oran's/Sylvie's] Unity? [Yes./No.]"
299: 0x0BFF [0x25] WAIT_DIALOG_SELECT()
300: 0x0C00 [0x02] IF !(Work_Zone[0] == 0*) GOTO 0x0C2C
301: 0x0C08 [0x27] REQ_SET(priority=0x08, entity_id=Nunaarl Bthtrogg (ID: 17826179/0x01100183), tag_num=0x0E)
302: 0x0C0F [0x1C] WAIT(20* ticks)
303: 0x0C12 [0x52] END_LOAD_SCHEDULER: End scheduler "s062" with entities [EventEntity, EventEntity], work=706*
304: 0x0C21 [0x0B] Work_Zone[2]++
305: 0x0C24 [0x03] ExtData[1]->WorkLocal[1] = Work_Zone[2]
306: 0x0C29 [0x01] GOTO 0x0C49
307: 0x0C2C [0x02] IF !(Work_Zone[0] == 1*) GOTO 0x0C49
308: 0x0C34 [0x52] END_LOAD_SCHEDULER: End scheduler "s062" with entities [EventEntity, EventEntity], work=706*
309: 0x0C43 [0x01] GOTO 0x0AAB

SUBROUTINE_0C49:
310: 0x0C49 [0x45] LOAD_SCHEDULED_TASK: Load scheduler "s063" with entities [EventEntity, EventEntity], work=[706*, 0*]
311: 0x0C5A [0x2B] Nunaarl Bthtrogg (ID: 17826179/0x01100183) [13120*]:
     "Excellent! The firrrst thing you'll need to do is give your leader a few words of greeting."
312: 0x0C61 [0x23] WAIT_FOR_DIALOG_INTERACTION
313: 0x0C62 [0x03] Work_Zone[2] = 2631*
314: 0x0C67 [0x2B] Nunaarl Bthtrogg (ID: 17826179/0x01100183) [13121*]:
     "Gimme your $3 so I can make a few adjustments."
315: 0x0C6E [0x1C] WAIT(70* ticks)
316: 0x0C71 [0x2A] GET_REQ_LEVEL(level=8, entity_id=Nunaarl Bthtrogg (ID: 17826179/0x01100183))
317: 0x0C77 [0x23] WAIT_FOR_DIALOG_INTERACTION
318: 0x0C78 [0x27] REQ_SET(priority=0x08, entity_id=Nunaarl Bthtrogg (ID: 17826179/0x01100183), tag_num=0x13)
319: 0x0C7F [0x1C] WAIT(30* ticks)
320: 0x0C82 [0x4A] LocalPlayer looks at ??? (ID: 17826180/0x01100184)
321: 0x0C8B [0x52] END_LOAD_SCHEDULER: End scheduler "s063" with entities [EventEntity, EventEntity], work=706*
322: 0x0C9A [0x45] LOAD_SCHEDULED_TASK: Load scheduler "s064" with entities [EventEntity, EventEntity], work=[706*, 0*]
323: 0x0CAB [0x6F] WAIT_FRAME_DELAY: Yield until WaitTime reaches zero
324: 0x0CAC [0x76] CHECK_ENTITY_RENDER_FLAGS: Wait until LocalPlayer Render.Flags0 and Render.Flags3 conditions are met
325: 0x0CB1 [0x2A] GET_REQ_LEVEL(level=8, entity_id=Nunaarl Bthtrogg (ID: 17826179/0x01100183))
326: 0x0CB7 [0x4A] ??? (ID: 17826180/0x01100184) looks at Nunaarl Bthtrogg (ID: 17826179/0x01100183)
327: 0x0CC0 [0x6F] WAIT_FRAME_DELAY: Yield until WaitTime reaches zero
328: 0x0CC1 [0x76] CHECK_ENTITY_RENDER_FLAGS: Wait until ??? (ID: 17826180/0x01100184) Render.Flags0 and Render.Flags3 conditions are met
329: 0x0CC6 [0x1C] WAIT(20* ticks)
330: 0x0CC9 [0x27] REQ_SET(priority=0x08, entity_id=Nunaarl Bthtrogg (ID: 17826179/0x01100183), tag_num=0x0F)
331: 0x0CD0 [0x48] [System] [13122*]:
     "Nunaarl Bthtrogg pokes and prods at your $3."
332: 0x0CD3 [0x1C] WAIT(90* ticks)
333: 0x0CD6 [0x2A] GET_REQ_LEVEL(level=8, entity_id=Nunaarl Bthtrogg (ID: 17826179/0x01100183))
334: 0x0CDC [0x2A] GET_REQ_LEVEL(level=8, entity_id=??? (ID: 17826180/0x01100184))
335: 0x0CE2 [0x48] [System] [13123*]:
     "The $3 writhes in agony!"
336: 0x0CE5 [0x1C] WAIT(30* ticks)
337: 0x0CE8 [0x27] REQ_SET(priority=0x08, entity_id=??? (ID: 17826180/0x01100184), tag_num=0x04)
338: 0x0CEF [0x1C] WAIT(100* ticks)
339: 0x0CF2 [0x52] END_LOAD_SCHEDULER: End scheduler "s064" with entities [EventEntity, EventEntity], work=706*
340: 0x0D01 [0x02] IF !(LocalPlayer->Race == 5*) GOTO 0x0D1D
341: 0x0D09 [0x45] LOAD_SCHEDULED_TASK: Load scheduler "s072" with entities [EventEntity, EventEntity], work=[706*, 0*]
342: 0x0D1A [0x01] GOTO 0x0D4A
343: 0x0D1D [0x02] IF !(LocalPlayer->Race == 6*) GOTO 0x0D39
344: 0x0D25 [0x45] LOAD_SCHEDULED_TASK: Load scheduler "s072" with entities [EventEntity, EventEntity], work=[706*, 0*]
345: 0x0D36 [0x01] GOTO 0x0D4A
346: 0x0D39 [0x45] LOAD_SCHEDULED_TASK: Load scheduler "s065" with entities [EventEntity, EventEntity], work=[706*, 0*]

SUBROUTINE_0D4A:
347: 0x0D4A [0x6B] STOP_AND_IDLE: ??? (ID: 17826180/0x01100184) stops current action and resets to idle (animation="idl0")
348: 0x0D53 [0x2B] Nunaarl Bthtrogg (ID: 17826179/0x01100183) [13124*]:
     "I swear, it's like deboning a Tavnazian goby! Phew! It should be all connected to your leaderrr now."
349: 0x0D5A [0x1C] WAIT(70* ticks)
350: 0x0D5D [0x23] WAIT_FOR_DIALOG_INTERACTION
351: 0x0D5E [0x7B] Nunaarl Bthtrogg (ID: 17826179/0x01100183) stops talking
352: 0x0D63 [0x1C] WAIT(35* ticks)
353: 0x0D66 [0x4A] ??? (ID: 17826180/0x01100184) looks at LocalPlayer
354: 0x0D6F [0x6F] WAIT_FRAME_DELAY: Yield until WaitTime reaches zero
355: 0x0D70 [0x76] CHECK_ENTITY_RENDER_FLAGS: Wait until ??? (ID: 17826180/0x01100184) Render.Flags0 and Render.Flags3 conditions are met
356: 0x0D75 [0x2A] GET_REQ_LEVEL(level=8, entity_id=Nunaarl Bthtrogg (ID: 17826179/0x01100183))
357: 0x0D7B [0x23] WAIT_FOR_DIALOG_INTERACTION
358: 0x0D7C [0x5C] MUSIC_CONTROL: Set music volume to song 0*, fade_time=200*
359: 0x0D82 [0x5C] MUSIC_CONTROL: Adjust music volume to song 0*, fade_time=400*
360: 0x0D88 [0x27] REQ_SET(priority=0x08, entity_id=Nunaarl Bthtrogg (ID: 17826179/0x01100183), tag_num=0x15)
361: 0x0D8F [0x1C] WAIT(30* ticks)
362: 0x0D92 [0x52] END_LOAD_SCHEDULER: End scheduler "s065" with entities [EventEntity, EventEntity], work=706*
363: 0x0DA1 [0x52] END_LOAD_SCHEDULER: End scheduler "s072" with entities [EventEntity, EventEntity], work=706*
364: 0x0DB0 [0x45] LOAD_SCHEDULED_TASK: Load scheduler "s066" with entities [EventEntity, EventEntity], work=[706*, 0*]
365: 0x0DC1 [0x1C] WAIT(20* ticks)
366: 0x0DC4 [0x48] [System] [8305*]:
     "@@"
367: 0x0DC7 [0x23] WAIT_FOR_DIALOG_INTERACTION
368: 0x0DC8 [0x1C] WAIT(60* ticks)
369: 0x0DCB [0x03] Work_Zone[1] = ExtData[1]->WorkLocal[1]
370: 0x0DD0 [0x43] SEND_EVENT_UPDATE: Send pending tag to server (packet 0x005B)
371: 0x0DD2 [0x43] SEND_EVENT_UPDATE: Check pending flag (skip if not pending)
372: 0x0DD4 [0x03] ExtData[1]->WorkLocal[2] = Work_Zone[2]
373: 0x0DD9 [0x02] IF !(ExtData[1]->WorkLocal[1] == 1*) GOTO 0x0E8D
374: 0x0DE1 [0x5C] MUSIC_CONTROL: Set Idle (Day) music to song 156*
375: 0x0DE5 [0x5C] MUSIC_CONTROL: Set Idle (Night) music to song 156*
376: 0x0DE9 [0x9A] WAIT_MUSIC_SERVER()
377: 0x0DEA [0x5D] SET_MUSIC_VOLUME(volume=127*, fade_time=1*)
378: 0x0DEF [0x29] REQ_SET_WAIT(priority=0x10, entity_id=??? (ID: 17826181/0x01100185), tag_num=0x03)
379: 0x0DF6 [0x02] IF !(ExtData[1]->WorkLocal[2] == 0*) GOTO 0x0E09
380: 0x0DFE [0x2B] ??? (ID: 17826181/0x01100185) [12832*]:
     "I understand that you are...an adventurer? My name is Pieuje I. d'Oraguille, commander of San d'Oria's famed Temple Knights."
381: 0x0E05 [0x23] WAIT_FOR_DIALOG_INTERACTION
382: 0x0E06 [0x01] GOTO 0x0E62
383: 0x0E09 [0x02] IF !(ExtData[1]->WorkLocal[2] == 1*) GOTO 0x0E24
384: 0x0E11 [0x2B] ??? (ID: 17826181/0x01100185) [12833*]:
     "Is that <Player>'s voice I hear?"
385: 0x0E18 [0x23] WAIT_FOR_DIALOG_INTERACTION
386: 0x0E19 [0x2B] ??? (ID: 17826181/0x01100185) [12834*]:
     "Forgive me, but I am more accustomed to recognizing faces than voices, especially through such a peculiar device."
387: 0x0E20 [0x23] WAIT_FOR_DIALOG_INTERACTION
388: 0x0E21 [0x01] GOTO 0x0E62
389: 0x0E24 [0x02] IF !(ExtData[1]->WorkLocal[2] == 2*) GOTO 0x0E3F
390: 0x0E2C [0x2B] ??? (ID: 17826181/0x01100185) [12833*]:
     "Is that <Player>'s voice I hear?"
391: 0x0E33 [0x23] WAIT_FOR_DIALOG_INTERACTION
392: 0x0E34 [0x2B] ??? (ID: 17826181/0x01100185) [12835*]:
     "I must thank you for your handling of the Altedour incident in Fei'Yin."
393: 0x0E3B [0x23] WAIT_FOR_DIALOG_INTERACTION
394: 0x0E3C [0x01] GOTO 0x0E62
395: 0x0E3F [0x02] IF !(ExtData[1]->WorkLocal[2] == 3*) GOTO 0x0E5A
396: 0x0E47 [0x2B] ??? (ID: 17826181/0x01100185) [12833*]:
     "Is that <Player>'s voice I hear?"
397: 0x0E4E [0x23] WAIT_FOR_DIALOG_INTERACTION
398: 0x0E4F [0x2B] ??? (ID: 17826181/0x01100185) [12836*]:
     "Never once have I forgotten your dedication to protecting all of San d'Oria."
399: 0x0E56 [0x23] WAIT_FOR_DIALOG_INTERACTION
400: 0x0E57 [0x01] GOTO 0x0E62
401: 0x0E5A [0x2B] ??? (ID: 17826181/0x01100185) [12832*]:
     "I understand that you are...an adventurer? My name is Pieuje I. d'Oraguille, commander of San d'Oria's famed Temple Knights."
402: 0x0E61 [0x23] WAIT_FOR_DIALOG_INTERACTION

SUBROUTINE_0E62:
403: 0x0E62 [0x2B] ??? (ID: 17826181/0x01100185) [12837*]:
     "As you are doubtlessly aware, a short time ago I received a memorandum from the Adventurers' Mutual Aid Network detailing Unity Concord and requesting my services as a Unity leader."
404: 0x0E69 [0x23] WAIT_FOR_DIALOG_INTERACTION
405: 0x0E6A [0x2B] ??? (ID: 17826181/0x01100185) [12838*]:
     "Tell me. Is there any greater way for a prince regent to earn honor for his kingdom than by spearheading a group dedicated to purging evil from the land?"
406: 0x0E71 [0x23] WAIT_FOR_DIALOG_INTERACTION
407: 0x0E72 [0x2B] ??? (ID: 17826181/0x01100185) [12839*]:
     "Many around me were opposed, but that bothered me not. My brother, Trion, serves as a representative of the Trust initiative, and it falls to me to up the ante."
408: 0x0E79 [0x23] WAIT_FOR_DIALOG_INTERACTION
409: 0x0E7A [0x2B] ??? (ID: 17826181/0x01100185) [12840*]:
     "I cannot lie. That was an important factor in my decision."
410: 0x0E81 [0x23] WAIT_FOR_DIALOG_INTERACTION
411: 0x0E82 [0x2B] ??? (ID: 17826181/0x01100185) [12841*]:
     "But be not concerned with our internal squabbles. Know only that it pleases me to welcome you to my Unity."
412: 0x0E89 [0x23] WAIT_FOR_DIALOG_INTERACTION
413: 0x0E8A [0x01] GOTO 0x18C2
414: 0x0E8D [0x02] IF !(ExtData[1]->WorkLocal[1] == 2*) GOTO 0x0F2E
415: 0x0E95 [0x5C] MUSIC_CONTROL: Set Idle (Day) music to song 154*
416: 0x0E99 [0x5C] MUSIC_CONTROL: Set Idle (Night) music to song 154*
417: 0x0E9D [0x9A] WAIT_MUSIC_SERVER()
418: 0x0E9E [0x5D] SET_MUSIC_VOLUME(volume=127*, fade_time=1*)
419: 0x0EA3 [0x29] REQ_SET_WAIT(priority=0x10, entity_id=??? (ID: 17826181/0x01100185), tag_num=0x04)
420: 0x0EAA [0x02] IF !(ExtData[1]->WorkLocal[2] == 0*) GOTO 0x0EBD
421: 0x0EB2 [0x2B] ??? (ID: 17826181/0x01100185) [12842*]:
     "My name is Ayame, a ranking member of the Mythril Musketeers. Pleased to make your acquaintance."
422: 0x0EB9 [0x23] WAIT_FOR_DIALOG_INTERACTION
423: 0x0EBA [0x01] GOTO 0x0EFB
424: 0x0EBD [0x02] IF !(ExtData[1]->WorkLocal[2] == 1*) GOTO 0x0ED8
425: 0x0EC5 [0x2B] ??? (ID: 17826181/0x01100185) [12843*]:
     "Haha...yes, <Player>, of course I remember you. How characteristic of you to have your fingers in everyone's pies."
426: 0x0ECC [0x23] WAIT_FOR_DIALOG_INTERACTION
427: 0x0ECD [0x2B] ??? (ID: 17826181/0x01100185) [12844*]:
     "Do not think me ungrateful. No, I am always pleased to have your help, but this time things are a bit different."
428: 0x0ED4 [0x23] WAIT_FOR_DIALOG_INTERACTION
429: 0x0ED5 [0x01] GOTO 0x0EFB
430: 0x0ED8 [0x02] IF !(ExtData[1]->WorkLocal[2] == 2*) GOTO 0x0EF3
431: 0x0EE0 [0x2B] ??? (ID: 17826181/0x01100185) [12843*]:
     "Haha...yes, <Player>, of course I remember you. How characteristic of you to have your fingers in everyone's pies."
432: 0x0EE7 [0x23] WAIT_FOR_DIALOG_INTERACTION
433: 0x0EE8 [0x2B] ??? (ID: 17826181/0x01100185) [12845*]:
     "Do not think me ungrateful. You strengthened the Mythril Musketeers in ways I never thought possible, and we are closer than ever before."
434: 0x0EEF [0x23] WAIT_FOR_DIALOG_INTERACTION
435: 0x0EF0 [0x01] GOTO 0x0EFB
436: 0x0EF3 [0x2B] ??? (ID: 17826181/0x01100185) [12842*]:
     "My name is Ayame, a ranking member of the Mythril Musketeers. Pleased to make your acquaintance."
437: 0x0EFA [0x23] WAIT_FOR_DIALOG_INTERACTION

SUBROUTINE_0EFB:
438: 0x0EFB [0x2B] ??? (ID: 17826181/0x01100185) [12846*]:
     "Not terribly long ago I was contacted by the Adventurers' Mutual Aid Network, which asked that I head a Unity."
439: 0x0F02 [0x23] WAIT_FOR_DIALOG_INTERACTION
440: 0x0F03 [0x2B] ??? (ID: 17826181/0x01100185) [12847*]:
     "At first I was flustered and thought of turning the offer down. Why would they pick me when there are others more qualified?"
441: 0x0F0A [0x23] WAIT_FOR_DIALOG_INTERACTION
442: 0x0F0B [0x2B] ??? (ID: 17826181/0x01100185) [12848*]:
     "But Volker decided it would be the perfect opportunity for me to develop my leadership skills, and told them I would accept...without my knowledge."
443: 0x0F12 [0x23] WAIT_FOR_DIALOG_INTERACTION
444: 0x0F13 [0x2B] ??? (ID: 17826181/0x01100185) [12849*]:
     "Though unconvinced that I am the best fit, I pledge to dedicate myself wholly to this endeavor."
445: 0x0F1A [0x23] WAIT_FOR_DIALOG_INTERACTION
446: 0x0F1B [0x2B] ??? (ID: 17826181/0x01100185) [12850*]:
     "People are counting on me. Not only Volker, but those like you who have pledged their support."
447: 0x0F22 [0x23] WAIT_FOR_DIALOG_INTERACTION
448: 0x0F23 [0x2B] ??? (ID: 17826181/0x01100185) [12851*]:
     "I will not let you down."
449: 0x0F2A [0x23] WAIT_FOR_DIALOG_INTERACTION
450: 0x0F2B [0x01] GOTO 0x18C2
451: 0x0F2E [0x02] IF !(ExtData[1]->WorkLocal[1] == 3*) GOTO 0x0FF3
452: 0x0F36 [0x3E] IF !(ExtData[1]->WorkLocal[5] bit 4*) GOTO 0x0F48
453: 0x0F3D [0x5C] MUSIC_CONTROL: Set Idle (Day) music to song 180*
454: 0x0F41 [0x5C] MUSIC_CONTROL: Set Idle (Night) music to song 180*
455: 0x0F45 [0x01] GOTO 0x0F50
456: 0x0F48 [0x5C] MUSIC_CONTROL: Set Idle (Day) music to song 120*
457: 0x0F4C [0x5C] MUSIC_CONTROL: Set Idle (Night) music to song 120*

SUBROUTINE_0F50:
458: 0x0F50 [0x9A] WAIT_MUSIC_SERVER()
459: 0x0F51 [0x5D] SET_MUSIC_VOLUME(volume=127*, fade_time=1*)
460: 0x0F56 [0x2B] Invincible Shield (ID: 17826182/0x01100186) [12852*]:
     "Stand sharp, maggot! I've got no time for people who're gonna slack off!"
461: 0x0F5D [0x23] WAIT_FOR_DIALOG_INTERACTION
462: 0x0F5E [0x02] IF !(ExtData[1]->WorkLocal[2] == 1*) GOTO 0x0F6E
463: 0x0F66 [0x2B] Invincible Shield (ID: 17826182/0x01100186) [12853*]:
     "...Wait. That's you, isn't it, <Player>?"
464: 0x0F6D [0x23] WAIT_FOR_DIALOG_INTERACTION
465: 0x0F6E [0x2B] Invincible Shield (ID: 17826182/0x01100186) [12854*]:
     "I hear you've decided to join my backbreaking Unity."
466: 0x0F75 [0x23] WAIT_FOR_DIALOG_INTERACTION
467: 0x0F76 [0x1C] WAIT(60* ticks)
468: 0x0F79 [0x1C] WAIT(120* ticks)
469: 0x0F7C [0x2B] Invincible Shield (ID: 17826182/0x01100186) [12855*]:
     "Well!? What've you got to say for yourself!?"
470: 0x0F83 [0x23] WAIT_FOR_DIALOG_INTERACTION
471: 0x0F84 [0x03] ExtData[1]->WorkLocal[3] = 4*
472: 0x0F89 [0x06] ExtData[1]->WorkLocal[4] = 0

SUBROUTINE_0F8C:
473: 0x0F8C [0x24] CREATE_DIALOG(message_id=12856*, default_option=0*, option_flags=ExtData[1]->WorkLocal[3])
     "How do you respond? [That's right./Nope./Y-yessir!]"
474: 0x0F93 [0x25] WAIT_DIALOG_SELECT()
475: 0x0F94 [0x02] IF !(Work_Zone[0] == 2*) GOTO 0x0FDD
476: 0x0F9C [0x03] ExtData[1]->WorkLocal[3] = 3*
477: 0x0FA1 [0x02] IF !(ExtData[1]->WorkLocal[4] == 0*) GOTO 0x0FBA
478: 0x0FA9 [0x2B] Invincible Shield (ID: 17826182/0x01100186) [12858*]:
     "Better. Everyone in my Unity is equal--you're all worthless whelps!"
479: 0x0FB0 [0x23] WAIT_FOR_DIALOG_INTERACTION
480: 0x0FB1 [0x05] ExtData[1]->WorkLocal[4] = 1
481: 0x0FB4 [0x01] GOTO 0x0F8C

SUBROUTINE_0FDA:
482: 0x0FDA [0x01] GOTO 0x0FF0
483: 0x0FDD [0x13] Work_Zone[2] = rand() % 3*
484: 0x0FE2 [0x2B] Invincible Shield (ID: 17826182/0x01100186) [12857*]:
     "Impudent cretin! You say "sir" when addressing a superior officer!"
485: 0x0FE9 [0x23] WAIT_FOR_DIALOG_INTERACTION
486: 0x0FEA [0x06] ExtData[1]->WorkLocal[3] = 0
487: 0x0FED [0x01] GOTO 0x0F8C

SUBROUTINE_0FF0:
488: 0x0FF0 [0x01] GOTO 0x18C2
489: 0x0FF3 [0x02] IF !(ExtData[1]->WorkLocal[1] == 4*) GOTO 0x10E0
490: 0x0FFB [0x5C] MUSIC_CONTROL: Set Idle (Day) music to song 162*
491: 0x0FFF [0x5C] MUSIC_CONTROL: Set Idle (Night) music to song 162*
492: 0x1003 [0x9A] WAIT_MUSIC_SERVER()
493: 0x1004 [0x5D] SET_MUSIC_VOLUME(volume=127*, fade_time=1*)
494: 0x1009 [0x29] REQ_SET_WAIT(priority=0x10, entity_id=??? (ID: 17826181/0x01100185), tag_num=0x06)
495: 0x1010 [0x02] IF !(ExtData[1]->WorkLocal[2] == 0*) GOTO 0x1023
496: 0x1018 [0x2B] ??? (ID: 17826181/0x01100185) [12863*]:
     "Hello, good adventurer. You can call me Apururu."
497: 0x101F [0x23] WAIT_FOR_DIALOG_INTERACTION
498: 0x1020 [0x01] GOTO 0x1097
499: 0x1023 [0x02] IF !(ExtData[1]->WorkLocal[2] == 1*) GOTO 0x103E
500: 0x102B [0x2B] ??? (ID: 17826181/0x01100185) [12864*]:
     "Is that...<Player>? Am I rightaru?"
501: 0x1032 [0x23] WAIT_FOR_DIALOG_INTERACTION
502: 0x1033 [0x2B] ??? (ID: 17826181/0x01100185) [12865*]:
     "Your good deeds on behalf of Windurstaru have not gone unnoticed."
503: 0x103A [0x23] WAIT_FOR_DIALOG_INTERACTION
504: 0x103B [0x01] GOTO 0x1097
505: 0x103E [0x02] IF !(ExtData[1]->WorkLocal[2] == 2*) GOTO 0x1059
506: 0x1046 [0x2B] ??? (ID: 17826181/0x01100185) [12864*]:
     "Is that...<Player>? Am I rightaru?"
507: 0x104D [0x23] WAIT_FOR_DIALOG_INTERACTION
508: 0x104E [0x2B] ??? (ID: 17826181/0x01100185) [12866*]:
     "I'm so worried about my brother...but if this is one way for me to help-welp him, then so be it."
509: 0x1055 [0x23] WAIT_FOR_DIALOG_INTERACTION
510: 0x1056 [0x01] GOTO 0x1097
511: 0x1059 [0x02] IF !(ExtData[1]->WorkLocal[2] == 3*) GOTO 0x1074
512: 0x1061 [0x2B] ??? (ID: 17826181/0x01100185) [12864*]:
     "Is that...<Player>? Am I rightaru?"
513: 0x1068 [0x23] WAIT_FOR_DIALOG_INTERACTION
514: 0x1069 [0x2B] ??? (ID: 17826181/0x01100185) [12867*]:
     "Ajido-Marujido has awoken at lastaru, but...no, I'll not let myself cry. I must work for the good of Windurst."
515: 0x1070 [0x23] WAIT_FOR_DIALOG_INTERACTION
516: 0x1071 [0x01] GOTO 0x1097
517: 0x1074 [0x02] IF !(ExtData[1]->WorkLocal[2] == 4*) GOTO 0x108F
518: 0x107C [0x2B] ??? (ID: 17826181/0x01100185) [12864*]:
     "Is that...<Player>? Am I rightaru?"
519: 0x1083 [0x23] WAIT_FOR_DIALOG_INTERACTION
520: 0x1084 [0x2B] ??? (ID: 17826181/0x01100185) [12868*]:
     "You brought hope to a Windurst that was on the brink-wink of despair."
521: 0x108B [0x23] WAIT_FOR_DIALOG_INTERACTION
522: 0x108C [0x01] GOTO 0x1097
523: 0x108F [0x2B] ??? (ID: 17826181/0x01100185) [12863*]:
     "Hello, good adventurer. You can call me Apururu."
524: 0x1096 [0x23] WAIT_FOR_DIALOG_INTERACTION

SUBROUTINE_1097:
525: 0x1097 [0x2B] ??? (ID: 17826181/0x01100185) [12869*]:
     "I've been selected to serve as the head of a Unity-wunity, and can I ever say..."
526: 0x109E [0x23] WAIT_FOR_DIALOG_INTERACTION
527: 0x109F [0x2B] ??? (ID: 17826181/0x01100185) [12870*]:
     "As the head of the Manustery, there can be no greater honor than--"
528: 0x10A6 [0x23] WAIT_FOR_DIALOG_INTERACTION
529: 0x10A7 [0x29] REQ_SET_WAIT(priority=0x10, entity_id=??? (ID: 17826181/0x01100185), tag_num=0x02)
530: 0x10AE [0x2B] ??? (ID: 17826181/0x01100185) [12871*]:
     "Aaaaaall right! Now the Cardian workshop can finally turn something resembling a profitaru!"
531: 0x10B5 [0x23] WAIT_FOR_DIALOG_INTERACTION
532: 0x10B6 [0x2B] ??? (ID: 17826181/0x01100185) [12872*]:
     "tHiS iS aBsoLUtElY WonDErFul. NoW wE HaVe MOneY, ALl ThaNkS tO APurURu!"
533: 0x10BD [0x23] WAIT_FOR_DIALOG_INTERACTION
534: 0x10BE [0x29] REQ_SET_WAIT(priority=0x10, entity_id=??? (ID: 17826181/0x01100185), tag_num=0x06)
535: 0x10C5 [0x2B] ??? (ID: 17826181/0x01100185) [12873*]:
     "H-hey! It's not like I'll be making bank-wank!"
536: 0x10CC [0x23] WAIT_FOR_DIALOG_INTERACTION
537: 0x10CD [0x2B] ??? (ID: 17826181/0x01100185) [12874*]:
     "Putting that aside--welcome to my Unitaru!"
538: 0x10D4 [0x23] WAIT_FOR_DIALOG_INTERACTION
539: 0x10D5 [0x2B] ??? (ID: 17826181/0x01100185) [12875*]:
     "We can do together-wether what we couldn't individually."
540: 0x10DC [0x23] WAIT_FOR_DIALOG_INTERACTION
541: 0x10DD [0x01] GOTO 0x18C2
542: 0x10E0 [0x02] IF !(ExtData[1]->WorkLocal[1] == 5*) GOTO 0x120D
543: 0x10E8 [0x5C] MUSIC_CONTROL: Set Idle (Day) music to song 117*
544: 0x10EC [0x5C] MUSIC_CONTROL: Set Idle (Night) music to song 117*
545: 0x10F0 [0x9A] WAIT_MUSIC_SERVER()
546: 0x10F1 [0x5D] SET_MUSIC_VOLUME(volume=127*, fade_time=1*)
547: 0x10F6 [0x29] REQ_SET_WAIT(priority=0x10, entity_id=??? (ID: 17826181/0x01100185), tag_num=0x07)
548: 0x10FD [0x02] IF !(ExtData[1]->WorkLocal[2] == 0*) GOTO 0x1110
549: 0x1105 [0x2B] ??? (ID: 17826181/0x01100185) [12876*]:
     "Phew... So you're my new pupil, eh?"
550: 0x110C [0x23] WAIT_FOR_DIALOG_INTERACTION
551: 0x110D [0x01] GOTO 0x1169
552: 0x1110 [0x02] IF !(ExtData[1]->WorkLocal[2] == 1*) GOTO 0x112B
553: 0x1118 [0x2B] ??? (ID: 17826181/0x01100185) [12877*]:
     "Phew... So you're my new pu... <Player>?"
554: 0x111F [0x23] WAIT_FOR_DIALOG_INTERACTION
555: 0x1120 [0x2B] ??? (ID: 17826181/0x01100185) [12878*]:
     "The way you shone when the two of us met in combat...I'd be lying if I said I wasn't impressed."
556: 0x1127 [0x23] WAIT_FOR_DIALOG_INTERACTION
557: 0x1128 [0x01] GOTO 0x1169
558: 0x112B [0x02] IF !(ExtData[1]->WorkLocal[2] == 2*) GOTO 0x1146
559: 0x1133 [0x2B] ??? (ID: 17826181/0x01100185) [12877*]:
     "Phew... So you're my new pu... <Player>?"
560: 0x113A [0x23] WAIT_FOR_DIALOG_INTERACTION
561: 0x113B [0x2B] ??? (ID: 17826181/0x01100185) [12879*]:
     "I've gotta say, you sure knew how to show me the old what-for...it was like staring into the face of a demon!"
562: 0x1142 [0x23] WAIT_FOR_DIALOG_INTERACTION
563: 0x1143 [0x01] GOTO 0x1169
564: 0x1146 [0x02] IF !(ExtData[1]->WorkLocal[2] == 3*) GOTO 0x1161
565: 0x114E [0x2B] ??? (ID: 17826181/0x01100185) [12877*]:
     "Phew... So you're my new pu... <Player>?"
566: 0x1155 [0x23] WAIT_FOR_DIALOG_INTERACTION
567: 0x1156 [0x2B] ??? (ID: 17826181/0x01100185) [12880*]:
     "I've lived many years on this green Vana'diel, but you're the only one I've ever proffered my hat to."
568: 0x115D [0x23] WAIT_FOR_DIALOG_INTERACTION
569: 0x115E [0x01] GOTO 0x1169
570: 0x1161 [0x2B] ??? (ID: 17826181/0x01100185) [12876*]:
     "Phew... So you're my new pupil, eh?"
571: 0x1168 [0x23] WAIT_FOR_DIALOG_INTERACTION

SUBROUTINE_1169:
572: 0x1169 [0x2B] ??? (ID: 17826181/0x01100185) [12881*]:
     "...Let's discuss how all this came to be."
573: 0x1170 [0x23] WAIT_FOR_DIALOG_INTERACTION
574: 0x1171 [0x2B] ??? (ID: 17826181/0x01100185) [12882*]:
     "The Adventurers' Mutual Aid Network came up with this "Unity" idea, and asked me to be one of its founding masters."
575: 0x1178 [0x23] WAIT_FOR_DIALOG_INTERACTION
576: 0x1179 [0x2B] ??? (ID: 17826181/0x01100185) [12883*]:
     "But I'm not the kind to take on disciples, so at first I was more than a bit wary."
577: 0x1180 [0x23] WAIT_FOR_DIALOG_INTERACTION
578: 0x1181 [0x2B] ??? (ID: 17826181/0x01100185) [12884*]:
     "But the old lady, she nagged me, and nagged me, and nagged me until I finally caved in."
579: 0x1188 [0x23] WAIT_FOR_DIALOG_INTERACTION
580: 0x1189 [0x02] IF !(ExtData[1]->WorkLocal[2] == 0*) GOTO 0x119B
581: 0x1191 [0x3C] SET_BIT_FLAG_CONDITIONAL(target_work_offset=ExtData[1]->WorkLocal[3], bit_index_work_offset=0*, condition_work_offset=1*)
582: 0x1198 [0x01] GOTO 0x119E
583: 0x119B [0x06] ExtData[1]->WorkLocal[3] = 0

SUBROUTINE_119E:
584: 0x119E [0x24] CREATE_DIALOG(message_id=12885*, default_option=0*, option_flags=ExtData[1]->WorkLocal[3])
     "How do you respond? [You can always quit, you know./Must have been tough for you./That's quite the wife you've got.]"
585: 0x11A5 [0x25] WAIT_DIALOG_SELECT()
586: 0x11A6 [0x02] IF !(Work_Zone[0] == 0*) GOTO 0x11B9
587: 0x11AE [0x2B] ??? (ID: 17826181/0x01100185) [12886*]:
     "Ugh... I didn't expect you to come at me with that."
588: 0x11B5 [0x23] WAIT_FOR_DIALOG_INTERACTION
589: 0x11B6 [0x01] GOTO 0x11DF
590: 0x11B9 [0x02] IF !(Work_Zone[0] == 1*) GOTO 0x11CC
591: 0x11C1 [0x2B] ??? (ID: 17826181/0x01100185) [12887*]:
