# 17825938 - Tiana

## Common Data

| Field            | Value                     |
|------------------|---------------------------|
| Zone             | Western Adoulin (ID: 256) |
| Block Size       | 808 bytes                 |
| Total Events     | 25                        |
| References Count | 37                        |

## List of Events

| Event ID                   | Entrypoint   |   Size |   Instructions |
|----------------------------|--------------|--------|----------------|
| [65535](#event-65535)      | 0x0000       |      1 |              1 |
| [65535.1](#event-655351)   | 0x0001       |      1 |              1 |
| [65535.2](#event-655352)   | 0x0002       |     18 |              4 |
| [65535.3](#event-655353)   | 0x0014       |     10 |              2 |
| [65535.4](#event-655354)   | 0x001E       |      9 |              3 |
| [65535.5](#event-655355)   | 0x0027       |      9 |              3 |
| [65535.6](#event-655356)   | 0x0030       |     10 |              2 |
| [65535.7](#event-655357)   | 0x003A       |     10 |              2 |
| [2](#event-2)              | 0x0044       |      1 |              1 |
| [132](#event-132)          | 0x0045       |      1 |              1 |
| [65535.8](#event-655358)   | 0x0046       |     35 |              7 |
| [65535.9](#event-655359)   | 0x0069       |     31 |              7 |
| [65535.10](#event-6553510) | 0x0088       |     14 |              4 |
| [65535.11](#event-6553511) | 0x0096       |     14 |              4 |
| [65535.12](#event-6553512) | 0x00A4       |     32 |              8 |
| [65535.13](#event-6553513) | 0x00C4       |     40 |             10 |
| [65535.14](#event-6553514) | 0x00EC       |     24 |              8 |
| [182](#event-182)          | 0x0104       |      1 |              1 |
| [65535.15](#event-6553515) | 0x0105       |     14 |              4 |
| [5218](#event-5218)        | 0x0113       |      7 |              2 |
| [65535.16](#event-6553516) | 0x011A       |     41 |              9 |
| [65535.17](#event-6553517) | 0x0143       |     46 |              6 |
| [65535.18](#event-6553518) | 0x0171       |     34 |              4 |
| [65535.19](#event-6553519) | 0x0193       |      9 |              3 |
| [65535.20](#event-6553520) | 0x019C       |    129 |             20 |

## DAT References (imed_data)

|   Index | Hex Value   |   Dec Value |
|---------|-------------|-------------|
|       0 | 0x0000      |           0 |
|       1 | 0x0001      |           1 |
|       2 | 0x0080      |         128 |
|       3 | 0x000D      |          13 |
|       4 | 0xFFFEA199  |  4294877593 |
|       5 | 0x2F3A      |       12090 |
|       6 | 0x0D15      |        3349 |
|       7 | 0x001E      |          30 |
|       8 | 0x0028      |          40 |
|       9 | 0xFFFE88B6  |  4294871222 |
|      10 | 0x419B      |       16795 |
|      11 | 0x000A      |          10 |
|      12 | 0xFFFE72AB  |  4294865579 |
|      13 | 0xFFFFEB41  |  4294961985 |
|      14 | 0xFFFE4486  |  4294853766 |
|      15 | 0xFFFFB78F  |  4294948751 |
|      16 | 0x0F9F      |        3999 |
|      17 | 0xFFFE611A  |  4294861082 |
|      18 | 0xFFFFB6D4  |  4294948564 |
|      19 | 0x000F      |          15 |
|      20 | 0xFFFEB9F8  |  4294883832 |
|      21 | 0xFFFFB3FA  |  4294947834 |
|      22 | 0xFFFF3CB0  |  4294917296 |
|      23 | 0xFFFFB742  |  4294948674 |
|      24 | 0x0014      |          20 |
|      25 | 0x0C82      |        3202 |
|      26 | 0x00C3      |         195 |
|      27 | 0x07FF      |        2047 |
|      28 | 0x6D60      |       28000 |
|      29 | 0xFFFFADF8  |  4294946296 |
|      30 | 0x03E8      |        1000 |
|      31 | 0x0078      |         120 |
|      32 | 0x003C      |          60 |
|      33 | 0x0005      |           5 |
|      34 | 0x012C      |         300 |
|      35 | 0x0002      |           2 |
|      36 | 0x00B4      |         180 |

## Events

### Event 65535

#### Metadata

| Field        | Value   |
|--------------|---------|
| Entrypoint   | 0x0000  |
| Data Size    | 1 bytes |
| Instructions | 1       |

```
      00 01 02 03 04 05 06 07  08 09 0A 0B 0C 0D 0E 0F
      -- -- -- -- -- -- -- --  -- -- -- -- -- -- -- --
0000: 00                                                .               
```

#### Opcodes

```
  0: 0x0000 [0x00] END_REQSTACK()
```

### Event 65535.1

#### Metadata

| Field        | Value   |
|--------------|---------|
| Entrypoint   | 0x0001  |
| Data Size    | 1 bytes |
| Instructions | 1       |

```
      00 01 02 03 04 05 06 07  08 09 0A 0B 0C 0D 0E 0F
      -- -- -- -- -- -- -- --  -- -- -- -- -- -- -- --
0000:    00                                              .              
```

#### Opcodes

```
  0: 0x0001 [0x00] END_REQSTACK()
```

### Event 65535.2

#### Metadata

| Field        | Value    |
|--------------|----------|
| Entrypoint   | 0x0002   |
| Data Size    | 18 bytes |
| Instructions | 4        |

```
      00 01 02 03 04 05 06 07  08 09 0A 0B 0C 0D 0E 0F
      -- -- -- -- -- -- -- --  -- -- -- -- -- -- -- --
0000:       22 00 2F 00 F8 FF  FF 7F 6C F8 FF FF 7F 00    "./.....l.....
0010: 80 01 80 00                                       ....            
```

#### Opcodes

```
  0: 0x0002 [0x22] ENTITY_HIDE_FLAG(enabled=0x00)
  1: 0x0004 [0x2F] EventEntity->Render.Flags0 &= ~0x80000 // Bit 19
  2: 0x000A [0x6C] FADE_ENTITY_COLOR(entity_id=EventEntity, end_alpha=0*, fade_time=1*)
  3: 0x0013 [0x00] END_REQSTACK()
```

### Event 65535.3

#### Metadata

| Field        | Value    |
|--------------|----------|
| Entrypoint   | 0x0014   |
| Data Size    | 10 bytes |
| Instructions | 2        |

```
      00 01 02 03 04 05 06 07  08 09 0A 0B 0C 0D 0E 0F
      -- -- -- -- -- -- -- --  -- -- -- -- -- -- -- --
0010:             6C F8 FF FF  7F 02 80 01 80 00            l.........  
```

#### Opcodes

```
  0: 0x0014 [0x6C] FADE_ENTITY_COLOR(entity_id=EventEntity, end_alpha=128*, fade_time=1*)
  1: 0x001D [0x00] END_REQSTACK()
```

### Event 65535.4

#### Metadata

| Field        | Value   |
|--------------|---------|
| Entrypoint   | 0x001E  |
| Data Size    | 9 bytes |
| Instructions | 3       |

```
      00 01 02 03 04 05 06 07  08 09 0A 0B 0C 0D 0E 0F
      -- -- -- -- -- -- -- --  -- -- -- -- -- -- -- --
0010:                                            22 00                ".
0020: 2F 00 F8 FF FF 7F 00                              /......         
```

#### Opcodes

```
  0: 0x001E [0x22] ENTITY_HIDE_FLAG(enabled=0x00)
  1: 0x0020 [0x2F] EventEntity->Render.Flags0 &= ~0x80000 // Bit 19
  2: 0x0026 [0x00] END_REQSTACK()
```

### Event 65535.5

#### Metadata

| Field        | Value   |
|--------------|---------|
| Entrypoint   | 0x0027  |
| Data Size    | 9 bytes |
| Instructions | 3       |

```
      00 01 02 03 04 05 06 07  08 09 0A 0B 0C 0D 0E 0F
      -- -- -- -- -- -- -- --  -- -- -- -- -- -- -- --
0020:                      22  01 2F 01 F8 FF FF 7F 00         "./......
```

#### Opcodes

```
  0: 0x0027 [0x22] ENTITY_HIDE_FLAG(enabled=0x01)
  1: 0x0029 [0x2F] EventEntity->Render.Flags0 |= 0x80000 // Bit 19
  2: 0x002F [0x00] END_REQSTACK()
```

### Event 65535.6

#### Metadata

| Field        | Value    |
|--------------|----------|
| Entrypoint   | 0x0030   |
| Data Size    | 10 bytes |
| Instructions | 2        |

```
      00 01 02 03 04 05 06 07  08 09 0A 0B 0C 0D 0E 0F
      -- -- -- -- -- -- -- --  -- -- -- -- -- -- -- --
0030: 6C F8 FF FF 7F 00 80 01  80 00                    l.........      
```

#### Opcodes

```
  0: 0x0030 [0x6C] FADE_ENTITY_COLOR(entity_id=EventEntity, end_alpha=0*, fade_time=1*)
  1: 0x0039 [0x00] END_REQSTACK()
```

### Event 65535.7

#### Metadata

| Field        | Value    |
|--------------|----------|
| Entrypoint   | 0x003A   |
| Data Size    | 10 bytes |
| Instructions | 2        |

```
      00 01 02 03 04 05 06 07  08 09 0A 0B 0C 0D 0E 0F
      -- -- -- -- -- -- -- --  -- -- -- -- -- -- -- --
0030:                                6C F8 FF FF 7F 02            l.....
0040: 80 01 80 00                                       ....            
```

#### Opcodes

```
  0: 0x003A [0x6C] FADE_ENTITY_COLOR(entity_id=EventEntity, end_alpha=128*, fade_time=1*)
  1: 0x0043 [0x00] END_REQSTACK()
```

### Event 2

#### Metadata

| Field        | Value   |
|--------------|---------|
| Entrypoint   | 0x0044  |
| Data Size    | 1 bytes |
| Instructions | 1       |

```
      00 01 02 03 04 05 06 07  08 09 0A 0B 0C 0D 0E 0F
      -- -- -- -- -- -- -- --  -- -- -- -- -- -- -- --
0040:             00                                        .           
```

#### Opcodes

```
  0: 0x0044 [0x00] END_REQSTACK()
```

### Event 132

#### Metadata

| Field        | Value   |
|--------------|---------|
| Entrypoint   | 0x0045  |
| Data Size    | 1 bytes |
| Instructions | 1       |

```
      00 01 02 03 04 05 06 07  08 09 0A 0B 0C 0D 0E 0F
      -- -- -- -- -- -- -- --  -- -- -- -- -- -- -- --
0040:                00                                      .          
```

#### Opcodes

```
  0: 0x0045 [0x00] END_REQSTACK()
```

### Event 65535.8

#### Metadata

| Field        | Value    |
|--------------|----------|
| Entrypoint   | 0x0046   |
| Data Size    | 35 bytes |
| Instructions | 7        |

```
      00 01 02 03 04 05 06 07  08 09 0A 0B 0C 0D 0E 0F
      -- -- -- -- -- -- -- --  -- -- -- -- -- -- -- --
0040:                   32 03  80 1F 00 04 80 05 80 06        2.........
0050: 80 1F 01 4A 92 00 10 01  F0 FF FF 7F 1C 07 80 4A  ...J...........J
0060: F0 FF FF 7F 92 00 10 01  00                       .........       
```

#### Opcodes

```
  0: 0x0046 [0x32] ExtData[1]->MainSpeed = 13* * 0.1
  1: 0x0049 [0x1F] MOVE_ENTITY: EventEntity moves to X=-89.703*, Z=12.090*, Y=3.349*
  2: 0x0051 [0x1F] MOVE_ENTITY: Update entity position (mode=1)
  3: 0x0053 [0x4A] Tiana (ID: 17825938/0x01100092) looks at LocalPlayer
  4: 0x005C [0x1C] WAIT(30* ticks)
  5: 0x005F [0x4A] LocalPlayer looks at Tiana (ID: 17825938/0x01100092)
  6: 0x0068 [0x00] END_REQSTACK()
```

### Event 65535.9

#### Metadata

| Field        | Value    |
|--------------|----------|
| Entrypoint   | 0x0069   |
| Data Size    | 31 bytes |
| Instructions | 7        |

```
      00 01 02 03 04 05 06 07  08 09 0A 0B 0C 0D 0E 0F
      -- -- -- -- -- -- -- --  -- -- -- -- -- -- -- --
0060:                             32 08 80 1F 00 09 80           2......
0070: 0A 80 06 80 1F 01 1C 0B  80 4A 92 00 10 01 F0 FF  .........J......
0080: FF 7F 7B 92 00 10 01 00                           ..{.....        
```

#### Opcodes

```
  0: 0x0069 [0x32] ExtData[1]->MainSpeed = 40* * 0.1
  1: 0x006C [0x1F] MOVE_ENTITY: EventEntity moves to X=-96.074*, Z=16.795*, Y=3.349*
  2: 0x0074 [0x1F] MOVE_ENTITY: Update entity position (mode=1)
  3: 0x0076 [0x1C] WAIT(10* ticks)
  4: 0x0079 [0x4A] Tiana (ID: 17825938/0x01100092) looks at LocalPlayer
  5: 0x0082 [0x7B] Tiana (ID: 17825938/0x01100092) stops talking
  6: 0x0087 [0x00] END_REQSTACK()
```

### Event 65535.10

#### Metadata

| Field        | Value    |
|--------------|----------|
| Entrypoint   | 0x0088   |
| Data Size    | 14 bytes |
| Instructions | 4        |

```
      00 01 02 03 04 05 06 07  08 09 0A 0B 0C 0D 0E 0F
      -- -- -- -- -- -- -- --  -- -- -- -- -- -- -- --
0080:                          32 08 80 1F 00 0C 80 0D          2.......
0090: 80 06 80 1F 01 00                                 ......          
```

#### Opcodes

```
  0: 0x0088 [0x32] ExtData[1]->MainSpeed = 40* * 0.1
  1: 0x008B [0x1F] MOVE_ENTITY: EventEntity moves to X=-101.717*, Z=-5.311*, Y=3.349*
  2: 0x0093 [0x1F] MOVE_ENTITY: Update entity position (mode=1)
  3: 0x0095 [0x00] END_REQSTACK()
```

### Event 65535.11

#### Metadata

| Field        | Value    |
|--------------|----------|
| Entrypoint   | 0x0096   |
| Data Size    | 14 bytes |
| Instructions | 4        |

```
      00 01 02 03 04 05 06 07  08 09 0A 0B 0C 0D 0E 0F
      -- -- -- -- -- -- -- --  -- -- -- -- -- -- -- --
0090:                   32 08  80 1F 00 0E 80 0F 80 10        2.........
00A0: 80 1F 01 00                                       ....            
```

#### Opcodes

```
  0: 0x0096 [0x32] ExtData[1]->MainSpeed = 40* * 0.1
  1: 0x0099 [0x1F] MOVE_ENTITY: EventEntity moves to X=-113.530*, Z=-18.545*, Y=3.999*
  2: 0x00A1 [0x1F] MOVE_ENTITY: Update entity position (mode=1)
  3: 0x00A3 [0x00] END_REQSTACK()
```

### Event 65535.12

#### Metadata

| Field        | Value    |
|--------------|----------|
| Entrypoint   | 0x00A4   |
| Data Size    | 32 bytes |
| Instructions | 8        |

```
      00 01 02 03 04 05 06 07  08 09 0A 0B 0C 0D 0E 0F
      -- -- -- -- -- -- -- --  -- -- -- -- -- -- -- --
00A0:             32 08 80 1F  00 11 80 12 80 10 80 1F      2...........
00B0: 01 6F 1C 0B 80 4A 92 00  10 01 F0 FF FF 7F 7B 92  .o...J........{.
00C0: 00 10 01 00                                       ....            
```

#### Opcodes

```
  0: 0x00A4 [0x32] ExtData[1]->MainSpeed = 40* * 0.1
  1: 0x00A7 [0x1F] MOVE_ENTITY: EventEntity moves to X=-106.214*, Z=-18.732*, Y=3.999*
  2: 0x00AF [0x1F] MOVE_ENTITY: Update entity position (mode=1)
  3: 0x00B1 [0x6F] WAIT_FRAME_DELAY: Yield until WaitTime reaches zero
  4: 0x00B2 [0x1C] WAIT(10* ticks)
  5: 0x00B5 [0x4A] Tiana (ID: 17825938/0x01100092) looks at LocalPlayer
  6: 0x00BE [0x7B] Tiana (ID: 17825938/0x01100092) stops talking
  7: 0x00C3 [0x00] END_REQSTACK()
```

### Event 65535.13

#### Metadata

| Field        | Value    |
|--------------|----------|
| Entrypoint   | 0x00C4   |
| Data Size    | 40 bytes |
| Instructions | 10       |

```
      00 01 02 03 04 05 06 07  08 09 0A 0B 0C 0D 0E 0F
      -- -- -- -- -- -- -- --  -- -- -- -- -- -- -- --
00C0:             1C 13 80 4B  F8 FF FF 7F 00 80 6F 70      ...K......op
00D0: 32 08 80 1F 00 14 80 15  80 10 80 1F 01 4A 92 00  2............J..
00E0: 10 01 F0 FF FF 7F 7B 92  00 10 01 00              ......{.....    
```

#### Opcodes

```
  0: 0x00C4 [0x1C] WAIT(15* ticks)
  1: 0x00C7 [0x4B] UPDATE_ENTITY_YAW(entity=EventEntity, yaw=0.0°*)
  2: 0x00CE [0x6F] WAIT_FRAME_DELAY: Yield until WaitTime reaches zero
  3: 0x00CF [0x70] WAIT_ENTITY_RENDER_FLAG: Wait while EventEntity->Render.Flags3 bit 2 is set (cancel turn if not)
  4: 0x00D0 [0x32] ExtData[1]->MainSpeed = 40* * 0.1
  5: 0x00D3 [0x1F] MOVE_ENTITY: EventEntity moves to X=-83.464*, Z=-19.462*, Y=3.999*
  6: 0x00DB [0x1F] MOVE_ENTITY: Update entity position (mode=1)
  7: 0x00DD [0x4A] Tiana (ID: 17825938/0x01100092) looks at LocalPlayer
  8: 0x00E6 [0x7B] Tiana (ID: 17825938/0x01100092) stops talking
  9: 0x00EB [0x00] END_REQSTACK()
```

### Event 65535.14

#### Metadata

| Field        | Value    |
|--------------|----------|
| Entrypoint   | 0x00EC   |
| Data Size    | 24 bytes |
| Instructions | 8        |

```
      00 01 02 03 04 05 06 07  08 09 0A 0B 0C 0D 0E 0F
      -- -- -- -- -- -- -- --  -- -- -- -- -- -- -- --
00E0:                                      4B F8 FF FF              K...
00F0: 7F 00 80 6F 70 32 08 80  1F 00 16 80 17 80 10 80  ...op2..........
0100: 1F 01 6F 00                                       ..o.            
```

#### Opcodes

```
  0: 0x00EC [0x4B] UPDATE_ENTITY_YAW(entity=EventEntity, yaw=0.0°*)
  1: 0x00F3 [0x6F] WAIT_FRAME_DELAY: Yield until WaitTime reaches zero
  2: 0x00F4 [0x70] WAIT_ENTITY_RENDER_FLAG: Wait while EventEntity->Render.Flags3 bit 2 is set (cancel turn if not)
  3: 0x00F5 [0x32] ExtData[1]->MainSpeed = 40* * 0.1
  4: 0x00F8 [0x1F] MOVE_ENTITY: EventEntity moves to X=-50.000*, Z=-18.622*, Y=3.999*
  5: 0x0100 [0x1F] MOVE_ENTITY: Update entity position (mode=1)
  6: 0x0102 [0x6F] WAIT_FRAME_DELAY: Yield until WaitTime reaches zero
  7: 0x0103 [0x00] END_REQSTACK()
```

### Event 182

#### Metadata

| Field        | Value   |
|--------------|---------|
| Entrypoint   | 0x0104  |
| Data Size    | 1 bytes |
| Instructions | 1       |

```
      00 01 02 03 04 05 06 07  08 09 0A 0B 0C 0D 0E 0F
      -- -- -- -- -- -- -- --  -- -- -- -- -- -- -- --
0100:             00                                        .           
```

#### Opcodes

```
  0: 0x0104 [0x00] END_REQSTACK()
```

### Event 65535.15

#### Metadata

| Field        | Value    |
|--------------|----------|
| Entrypoint   | 0x0105   |
| Data Size    | 14 bytes |
| Instructions | 4        |

```
      00 01 02 03 04 05 06 07  08 09 0A 0B 0C 0D 0E 0F
      -- -- -- -- -- -- -- --  -- -- -- -- -- -- -- --
0100:                32 18 80  1F 00 0E 80 0F 80 10 80       2..........
0110: 1F 01 00                                          ...             
```

#### Opcodes

```
  0: 0x0105 [0x32] ExtData[1]->MainSpeed = 20* * 0.1
  1: 0x0108 [0x1F] MOVE_ENTITY: EventEntity moves to X=-113.530*, Z=-18.545*, Y=3.999*
  2: 0x0110 [0x1F] MOVE_ENTITY: Update entity position (mode=1)
  3: 0x0112 [0x00] END_REQSTACK()
```

### Event 5218

#### Metadata

| Field        | Value   |
|--------------|---------|
| Entrypoint   | 0x0113  |
| Data Size    | 7 bytes |
| Instructions | 2       |

```
      00 01 02 03 04 05 06 07  08 09 0A 0B 0C 0D 0E 0F
      -- -- -- -- -- -- -- --  -- -- -- -- -- -- -- --
0110:          92 01 F8 FF FF  7F 00                       .......      
```

#### Opcodes

```
  0: 0x0113 [0x92] EventEntity->Render.Flags3 ^= 0x01
  1: 0x0119 [0x00] END_REQSTACK()
```

### Event 65535.16

#### Metadata

| Field        | Value    |
|--------------|----------|
| Entrypoint   | 0x011A   |
| Data Size    | 41 bytes |
| Instructions | 9        |

```
      00 01 02 03 04 05 06 07  08 09 0A 0B 0C 0D 0E 0F
      -- -- -- -- -- -- -- --  -- -- -- -- -- -- -- --
0110:                                5B 19 80 F8 FF FF            [.....
0120: 7F F8 FF FF 7F 77 61 76  31 1C 1A 80 39 1B 80 1C  .....wav1...9...
0130: 13 80 32 08 80 1F 00 1C  80 1D 80 1E 80 1F 01 39  ..2............9
0140: 1B 80 00                                          ...             
```

#### Opcodes

```
  0: 0x011A [0x5B] LOAD_EXT_SCHEDULER: Load scheduler "wav1" with entities [EventEntity, EventEntity], work=3202*
  1: 0x0129 [0x1C] WAIT(195* ticks)
  2: 0x012C [0x39] SET_ENTITY_DIRECTION(direction=11.2°*)
  3: 0x012F [0x1C] WAIT(15* ticks)
  4: 0x0132 [0x32] ExtData[1]->MainSpeed = 40* * 0.1
  5: 0x0135 [0x1F] MOVE_ENTITY: EventEntity moves to X=28.000*, Z=-21.000*, Y=1.000*
  6: 0x013D [0x1F] MOVE_ENTITY: Update entity position (mode=1)
  7: 0x013F [0x39] SET_ENTITY_DIRECTION(direction=11.2°*)
  8: 0x0142 [0x00] END_REQSTACK()
```

### Event 65535.17

#### Metadata

| Field        | Value    |
|--------------|----------|
| Entrypoint   | 0x0143   |
| Data Size    | 46 bytes |
| Instructions | 6        |

```
      00 01 02 03 04 05 06 07  08 09 0A 0B 0C 0D 0E 0F
      -- -- -- -- -- -- -- --  -- -- -- -- -- -- -- --
0140:          7C 00 92 00 10  01 5B 19 80 F8 FF FF 7F     |.....[......
0150: F8 FF FF 7F 6A 6F 79 30  1C 1F 80 5B 19 80 F8 FF  ....joy0...[....
0160: FF 7F F8 FF FF 7F 6A 6F  79 31 7C 01 92 00 10 01  ......joy1|.....
0170: 00                                                .               
```

#### Opcodes

```
  0: 0x0143 [0x7C] Tiana (ID: 17825938/0x01100092)->Render.Flags2 |= 0x00
  1: 0x0149 [0x5B] LOAD_EXT_SCHEDULER: Load scheduler "joy0" with entities [EventEntity, EventEntity], work=3202*
  2: 0x0158 [0x1C] WAIT(120* ticks)
  3: 0x015B [0x5B] LOAD_EXT_SCHEDULER: Load scheduler "joy1" with entities [EventEntity, EventEntity], work=3202*
  4: 0x016A [0x7C] Tiana (ID: 17825938/0x01100092)->Render.Flags2 |= 0x01
  5: 0x0170 [0x00] END_REQSTACK()
```

### Event 65535.18

#### Metadata

| Field        | Value    |
|--------------|----------|
| Entrypoint   | 0x0171   |
| Data Size    | 34 bytes |
| Instructions | 4        |

```
      00 01 02 03 04 05 06 07  08 09 0A 0B 0C 0D 0E 0F
      -- -- -- -- -- -- -- --  -- -- -- -- -- -- -- --
0170:    5B 19 80 F8 FF FF 7F  F8 FF FF 7F 74 6C 6B 30   [..........tlk0
0180: 1C 20 80 5B 19 80 F8 FF  FF 7F F8 FF FF 7F 6D 61  . .[..........ma
0190: 72 75 00                                          ru.             
```

#### Opcodes

```
  0: 0x0171 [0x5B] LOAD_EXT_SCHEDULER: Load scheduler "tlk0" with entities [EventEntity, EventEntity], work=3202*
  1: 0x0180 [0x1C] WAIT(60* ticks)
  2: 0x0183 [0x5B] LOAD_EXT_SCHEDULER: Load scheduler "maru" with entities [EventEntity, EventEntity], work=3202*
  3: 0x0192 [0x00] END_REQSTACK()
```

### Event 65535.19

#### Metadata

| Field        | Value   |
|--------------|---------|
| Entrypoint   | 0x0193  |
| Data Size    | 9 bytes |
| Instructions | 3       |

```
      00 01 02 03 04 05 06 07  08 09 0A 0B 0C 0D 0E 0F
      -- -- -- -- -- -- -- --  -- -- -- -- -- -- -- --
0190:          7B F8 FF FF 7F  39 1B 80 00                 {....9...    
```

#### Opcodes

```
  0: 0x0193 [0x7B] EventEntity stops talking
  1: 0x0198 [0x39] SET_ENTITY_DIRECTION(direction=11.2°*)
  2: 0x019B [0x00] END_REQSTACK()
```

### Event 65535.20

#### Metadata

| Field        | Value     |
|--------------|-----------|
| Entrypoint   | 0x019C    |
| Data Size    | 129 bytes |
| Instructions | 19        |

```
      00 01 02 03 04 05 06 07  08 09 0A 0B 0C 0D 0E 0F
      -- -- -- -- -- -- -- --  -- -- -- -- -- -- -- --
0190:                                      13 01 00 21              ...!
01A0: 80 14 01 00 20 80 07 01  00 22 80 1C 01 00 13 01  .... ...."......
01B0: 00 23 80 02 01 00 00 80  80 DF 01 5B 19 80 F8 FF  .#.........[....
01C0: FF 7F F8 FF FF 7F 6A 6F  79 30 1C 1F 80 5B 19 80  ......joy0...[..
01D0: F8 FF FF 7F F8 FF FF 7F  6A 6F 79 31 01 19 02 02  ........joy1....
01E0: 01 00 01 80 80 FC 01 5B  19 80 F8 FF FF 7F F8 FF  .......[........
01F0: FF 7F 77 61 76 30 1C 24  80 01 19 02 02 01 00 23  ..wav0.$.......#
0200: 80 80 19 02 5B 19 80 F8  FF FF 7F F8 FF FF 7F 77  ....[..........w
0210: 61 76 31 1C 24 80 01 19  02 01 9C 01 00           av1.$........   
```

#### Opcodes

```
  0: 0x019C [0x13] ExtData[1]->WorkLocal[1] = rand() % 5*
  1: 0x01A1 [0x14] ExtData[1]->WorkLocal[1] *= 60*
  2: 0x01A6 [0x07] ExtData[1]->WorkLocal[1] += 300*
  3: 0x01AB [0x1C] WAIT(ExtData[1]->WorkLocal[1] ticks)
  4: 0x01AE [0x13] ExtData[1]->WorkLocal[1] = rand() % 2*
  5: 0x01B3 [0x02] IF !(ExtData[1]->WorkLocal[1] == 0*) GOTO 0x01DF
  6: 0x01BB [0x5B] LOAD_EXT_SCHEDULER: Load scheduler "joy0" with entities [EventEntity, EventEntity], work=3202*
  7: 0x01CA [0x1C] WAIT(120* ticks)
  8: 0x01CD [0x5B] LOAD_EXT_SCHEDULER: Load scheduler "joy1" with entities [EventEntity, EventEntity], work=3202*
  9: 0x01DC [0x01] GOTO 0x0219
 10: 0x01DF [0x02] IF !(ExtData[1]->WorkLocal[1] == 1*) GOTO 0x01FC
 11: 0x01E7 [0x5B] LOAD_EXT_SCHEDULER: Load scheduler "wav0" with entities [EventEntity, EventEntity], work=3202*
 12: 0x01F6 [0x1C] WAIT(180* ticks)
 13: 0x01F9 [0x01] GOTO 0x0219
 14: 0x01FC [0x02] IF !(ExtData[1]->WorkLocal[1] == 2*) GOTO 0x0219
 15: 0x0204 [0x5B] LOAD_EXT_SCHEDULER: Load scheduler "wav1" with entities [EventEntity, EventEntity], work=3202*
 16: 0x0213 [0x1C] WAIT(180* ticks)
 17: 0x0216 [0x01] GOTO 0x0219

SUBROUTINE_0219:
 18: 0x0219 [0x01] GOTO 0x019C
```

#### Data or dead code:

```
# Dead code (unreachable instructions):
     0x021C [0x00] END_REQSTACK()
```
