# 17826108

## Common Data

| Field            | Value                     |
|------------------|---------------------------|
| Zone             | Western Adoulin (ID: 256) |
| Block Size       | 18316 bytes               |
| Total Events     | 12                        |
| References Count | 314                       |

## List of Events

| Event ID              | Entrypoint   |   Size |   Instructions |
|-----------------------|--------------|--------|----------------|
| [65535](#event-65535) | 0x0000       |    658 |             62 |
| [5200](#event-5200)   | 0x0292       |   1288 |            208 |
| [172](#event-172)     | 0x079A       |   3028 |            379 |
| [5122](#event-5122)   | 0x136E       |   1763 |            206 |
| [5118](#event-5118)   | 0x1A51       |   1333 |            168 |
| [5116](#event-5116)   | 0x1F86       |   1539 |            199 |
| [5098](#event-5098)   | 0x2589       |   1419 |            175 |
| [5099](#event-5099)   | 0x2B14       |    332 |             43 |
| [5104](#event-5104)   | 0x2C60       |   1831 |            259 |
| [5105](#event-5105)   | 0x3387       |   1444 |            223 |
| [5109](#event-5109)   | 0x392B       |   1726 |            260 |
| [5106](#event-5106)   | 0x3FE9       |    634 |            102 |

## DAT References (imed_data)

|   Index | Hex Value   |   Dec Value |
|---------|-------------|-------------|
|       0 | 0x00C8      |         200 |
|       1 | 0x0000      |           0 |
|       2 | 0x00C9      |         201 |
|       3 | 0x0001      |           1 |
|       4 | 0x002D      |          45 |
|       5 | 0x0002      |           2 |
|       6 | 0x001E      |          30 |
|       7 | 0x00D7      |         215 |
|       8 | 0x009B      |         155 |
|       9 | 0x17E37     |       97847 |
|      10 | 0xFFFEF406  |  4294898694 |
|      11 | 0xFFFFFD77  |  4294966647 |
|      12 | 0x0480      |        1152 |
|      13 | 0x02C9      |         713 |
|      14 | 0x000F      |          15 |
|      15 | 0x0A36      |        2614 |
|      16 | 0x2EE5      |       12005 |
|      17 | 0x2EE6      |       12006 |
|      18 | 0x006E      |         110 |
|      19 | 0x2EE7      |       12007 |
|      20 | 0x2EE8      |       12008 |
|      21 | 0x2EE9      |       12009 |
|      22 | 0x0007      |           7 |
|      23 | 0x003C      |          60 |
|      24 | 0x0015      |          21 |
|      25 | 0x2EEB      |       12011 |
|      26 | 0x0082      |         130 |
|      27 | 0x0024      |          36 |
|      28 | 0x2EEC      |       12012 |
|      29 | 0x0006      |           6 |
|      30 | 0x2EEA      |       12010 |
|      31 | 0x2EED      |       12013 |
|      32 | 0x2EEE      |       12014 |
|      33 | 0x2EEF      |       12015 |
|      34 | 0x2EF0      |       12016 |
|      35 | 0x2EF1      |       12017 |
|      36 | 0x2EF2      |       12018 |
|      37 | 0x2EF3      |       12019 |
|      38 | 0x2EF4      |       12020 |
|      39 | 0x2EF5      |       12021 |
|      40 | 0x01E0      |         480 |
|      41 | 0x0265      |         613 |
|      42 | 0x007F      |         127 |
|      43 | 0x012C      |         300 |
|      44 | 0x2EF6      |       12022 |
|      45 | 0x000C      |          12 |
|      46 | 0xFF31      |       65329 |
|      47 | 0xFFFF1638  |  4294907448 |
|      48 | 0xFFFFD27F  |  4294955647 |
|      49 | 0x0210      |         528 |
|      50 | 0x17450     |       95312 |
|      51 | 0xFFFEFBE6  |  4294900710 |
|      52 | 0x0A1F      |        2591 |
|      53 | 0x118D9     |       71897 |
|      54 | 0xFFFF1671  |  4294907505 |
|      55 | 0x0F3A      |        3898 |
|      56 | 0x124F5     |       74997 |
|      57 | 0xFFFF1F04  |  4294909700 |
|      58 | 0xFFFFFF6B  |  4294967147 |
|      59 | 0x0E3A      |        3642 |
|      60 | 0x12978     |       76152 |
|      61 | 0xFFFF23B9  |  4294910905 |
|      62 | 0xFFFFFF6C  |  4294967148 |
|      63 | 0x05F0      |        1520 |
|      64 | 0x04B0      |        1200 |
|      65 | 0xFFFFFFCA  |  4294967242 |
|      66 | 0x0008      |           8 |
|      67 | 0x0004      |           4 |
|      68 | 0x0032      |          50 |
|      69 | 0x2EF7      |       12023 |
|      70 | 0x010E      |         270 |
|      71 | 0x03E7      |         999 |
|      72 | 0x0190      |         400 |
|      73 | 0x0080      |         128 |
|      74 | 0x001B      |          27 |
|      75 | 0x7ACB      |       31435 |
|      76 | 0xFFFFE1C1  |  4294959553 |
|      77 | 0xFFFFFE99  |  4294966937 |
|      78 | 0x0C96      |        3222 |
|      79 | 0xA35E      |       41822 |
|      80 | 0x0166      |         358 |
|      81 | 0x0258      |         600 |
|      82 | 0xA8C5      |       43205 |
|      83 | 0x0181      |         385 |
|      84 | 0x0EB9      |        3769 |
|      85 | 0xA329      |       41769 |
|      86 | 0xFFFFFC54  |  4294966356 |
|      87 | 0x0EDB      |        3803 |
|      88 | 0xA85B      |       43099 |
|      89 | 0xFFFFFD4B  |  4294966603 |
|      90 | 0x7780      |       30592 |
|      91 | 0xFFFFDE53  |  4294958675 |
|      92 | 0x2FA1      |       12193 |
|      93 | 0xFFFFAB83  |  4294945667 |
|      94 | 0x0EDA      |        3802 |
|      95 | 0x02AF      |         687 |
|      96 | 0x00A3      |         163 |
|      97 | 0x2D97      |       11671 |
|      98 | 0x0005      |           5 |
|      99 | 0x2D98      |       11672 |
|     100 | 0x2D9D      |       11677 |
|     101 | 0x0010      |          16 |
|     102 | 0x00CE      |         206 |
|     103 | 0x2D9E      |       11678 |
|     104 | 0x0091      |         145 |
|     105 | 0x0018      |          24 |
|     106 | 0x2D9F      |       11679 |
|     107 | 0x2D99      |       11673 |
|     108 | 0x0028      |          40 |
|     109 | 0x2D9A      |       11674 |
|     110 | 0x2D9B      |       11675 |
|     111 | 0x2D9C      |       11676 |
|     112 | 0x0022      |          34 |
|     113 | 0x2DA0      |       11680 |
|     114 | 0x2DA1      |       11681 |
|     115 | 0x0014      |          20 |
|     116 | 0x2DA2      |       11682 |
|     117 | 0x2DA3      |       11683 |
|     118 | 0x005A      |          90 |
|     119 | 0x0003      |           3 |
|     120 | 0x0050      |          80 |
|     121 | 0x003B      |          59 |
|     122 | 0x16175     |       90485 |
|     123 | 0xFFFF0EDC  |  4294905564 |
|     124 | 0x058D      |        1421 |
|     125 | 0x175EA     |       95722 |
|     126 | 0xFFFEF8D4  |  4294899924 |
|     127 | 0x0A09      |        2569 |
|     128 | 0x026B      |         619 |
|     129 | 0x0064      |         100 |
|     130 | 0x2D87      |       11655 |
|     131 | 0x2D88      |       11656 |
|     132 | 0x0047      |          71 |
|     133 | 0x1B60      |        7008 |
|     134 | 0x0009      |           9 |
|     135 | 0x2D89      |       11657 |
|     136 | 0x2D8A      |       11658 |
|     137 | 0x0026      |          38 |
|     138 | 0x2D8B      |       11659 |
|     139 | 0x0031      |          49 |
|     140 | 0x2D8C      |       11660 |
|     141 | 0x2D8D      |       11661 |
|     142 | 0x2D8E      |       11662 |
|     143 | 0x2D8F      |       11663 |
|     144 | 0x2D90      |       11664 |
|     145 | 0x0072      |         114 |
|     146 | 0x000A      |          10 |
|     147 | 0x001F      |          31 |
|     148 | 0x2D91      |       11665 |
|     149 | 0x00F0      |         240 |
|     150 | 0x2D92      |       11666 |
|     151 | 0x0262      |         610 |
|     152 | 0x00BD      |         189 |
|     153 | 0x2D93      |       11667 |
|     154 | 0x2D94      |       11668 |
|     155 | 0x2D95      |       11669 |
|     156 | 0x0046      |          70 |
|     157 | 0xD75C      |       55132 |
|     158 | 0xFFFF1865  |  4294908005 |
|     159 | 0x01C7      |         455 |
|     160 | 0xE2FE      |       58110 |
|     161 | 0xFFFEF980  |  4294900096 |
|     162 | 0xFFFFF830  |  4294965296 |
|     163 | 0xF08E      |       61582 |
|     164 | 0xFFFEFF20  |  4294901536 |
|     165 | 0x06FF      |        1791 |
|     166 | 0x0044      |          68 |
|     167 | 0x2D63      |       11619 |
|     168 | 0x2D64      |       11620 |
|     169 | 0x0013      |          19 |
|     170 | 0x2D65      |       11621 |
|     171 | 0x2D66      |       11622 |
|     172 | 0x009F      |         159 |
|     173 | 0x2D67      |       11623 |
|     174 | 0x2D68      |       11624 |
|     175 | 0x5110      |       20752 |
|     176 | 0x2D69      |       11625 |
|     177 | 0x012E      |         302 |
|     178 | 0x2D6A      |       11626 |
|     179 | 0x0077      |         119 |
|     180 | 0x008C      |         140 |
|     181 | 0x01DF      |         479 |
|     182 | 0x0096      |         150 |
|     183 | 0x155F8     |       87544 |
|     184 | 0xFFFF1381  |  4294906753 |
|     185 | 0x02D5      |         725 |
|     186 | 0x166AF     |       91823 |
|     187 | 0xFFFF07F8  |  4294903800 |
|     188 | 0x0A08      |        2568 |
|     189 | 0x16117     |       90391 |
|     190 | 0xFFFF02C2  |  4294902466 |
|     191 | 0xFFFFF758  |  4294965080 |
|     192 | 0x026A      |         618 |
|     193 | 0x2D53      |       11603 |
|     194 | 0x2D54      |       11604 |
|     195 | 0x2D55      |       11605 |
|     196 | 0x001D      |          29 |
|     197 | 0x2D56      |       11606 |
|     198 | 0x0168      |         360 |
|     199 | 0x0A0D      |        2573 |
|     200 | 0x2D57      |       11607 |
|     201 | 0x2D58      |       11608 |
|     202 | 0x2D59      |       11609 |
|     203 | 0x2D5A      |       11610 |
|     204 | 0x510E      |       20750 |
|     205 | 0x2D5B      |       11611 |
|     206 | 0x2D5C      |       11612 |
|     207 | 0x2D5D      |       11613 |
|     208 | 0x2D5E      |       11614 |
|     209 | 0x2D5F      |       11615 |
|     210 | 0x2D60      |       11616 |
|     211 | 0x2D61      |       11617 |
|     212 | 0x024B      |         587 |
|     213 | 0x161D2     |       90578 |
|     214 | 0xFFFEEA15  |  4294896149 |
|     215 | 0xFFFFFD3F  |  4294966591 |
|     216 | 0x0A11      |        2577 |
|     217 | 0x16E7D     |       93821 |
|     218 | 0xFFFEDDB4  |  4294892980 |
|     219 | 0xFFFFFD76  |  4294966646 |
|     220 | 0x09FE      |        2558 |
|     221 | 0x0269      |         617 |
|     222 | 0x2D1A      |       11546 |
|     223 | 0x2D19      |       11545 |
|     224 | 0x2D1B      |       11547 |
|     225 | 0x2D1C      |       11548 |
|     226 | 0x2D1D      |       11549 |
|     227 | 0x09D0      |        2512 |
|     228 | 0x2D1E      |       11550 |
|     229 | 0x2D1F      |       11551 |
|     230 | 0x2D20      |       11552 |
|     231 | 0x0078      |         120 |
|     232 | 0x2D21      |       11553 |
|     233 | 0x2D22      |       11554 |
|     234 | 0x002A      |          42 |
|     235 | 0x09D2      |        2514 |
|     236 | 0x2D23      |       11555 |
|     237 | 0x2D24      |       11556 |
|     238 | 0x2D25      |       11557 |
|     239 | 0x2D26      |       11558 |
|     240 | 0x2D27      |       11559 |
|     241 | 0xD353      |       54099 |
|     242 | 0x26B2F     |      158511 |
|     243 | 0x7CFF      |       31999 |
|     244 | 0x0AE4      |        2788 |
|     245 | 0xCA5E      |       51806 |
|     246 | 0x27A3C     |      162364 |
|     247 | 0x6D5F      |       27999 |
|     248 | 0x0591      |        1425 |
|     249 | 0x004B      |          75 |
|     250 | 0xD2B7      |       53943 |
|     251 | 0x28438     |      164920 |
|     252 | 0x0654      |        1620 |
|     253 | 0x0263      |         611 |
|     254 | 0x2D28      |       11560 |
|     255 | 0x2D29      |       11561 |
|     256 | 0x2D2A      |       11562 |
|     257 | 0x2D2B      |       11563 |
|     258 | 0x2D2C      |       11564 |
|     259 | 0x2D2D      |       11565 |
|     260 | 0x682A      |       26666 |
|     261 | 0x68DA      |       26842 |
|     262 | 0x698A      |       27018 |
|     263 | 0x6A3A      |       27194 |
|     264 | 0x6AEA      |       27370 |
|     265 | 0x2D2E      |       11566 |
|     266 | 0x2D2F      |       11567 |
|     267 | 0x05B5      |        1461 |
|     268 | 0x08E3      |        2275 |
|     269 | 0x0FB8      |        4024 |
|     270 | 0x2D30      |       11568 |
|     271 | 0x2D31      |       11569 |
|     272 | 0x1135      |        4405 |
|     273 | 0x17AE8     |       97000 |
|     274 | 0x2D32      |       11570 |
|     275 | 0x07C9      |        1993 |
|     276 | 0x0FBD      |        4029 |
|     277 | 0x112C      |        4396 |
|     278 | 0x2204      |        8708 |
|     279 | 0x113F      |        4415 |
|     280 | 0x07C8      |        1992 |
|     281 | 0x1737      |        5943 |
|     282 | 0x0897      |        2199 |
|     283 | 0x115C      |        4444 |
|     284 | 0x2D33      |       11571 |
|     285 | 0x2D34      |       11572 |
|     286 | 0x2D37      |       11575 |
|     287 | 0x2D38      |       11576 |
|     288 | 0x0016      |          22 |
|     289 | 0x0017      |          23 |
|     290 | 0x0019      |          25 |
|     291 | 0x000E      |          14 |
|     292 | 0x0012      |          18 |
|     293 | 0x2D3A      |       11578 |
|     294 | 0x2D3B      |       11579 |
|     295 | 0x2D39      |       11577 |
|     296 | 0x2D35      |       11573 |
|     297 | 0x2D36      |       11574 |
|     298 | 0x000D      |          13 |
|     299 | 0x0011      |          17 |
|     300 | 0x000B      |          11 |
|     301 | 0x05AE      |        1454 |
|     302 | 0x2D3C      |       11580 |
|     303 | 0x2D3D      |       11581 |
|     304 | 0x0D15      |        3349 |
|     305 | 0x2D3E      |       11582 |
|     306 | 0x05B1      |        1457 |
|     307 | 0x2D3F      |       11583 |
|     308 | 0x0DB0      |        3504 |
|     309 | 0x2D40      |       11584 |
|     310 | 0x05AF      |        1455 |
|     311 | 0x2D41      |       11585 |
|     312 | 0x006F      |         111 |
|     313 | 0x2D42      |       11586 |

## String References

- **7008**: You have obtained $0 bayld!
- **11566**: What piece of armor? [Head: $0./Body: $1./Hands: $2./Legs: $3./Feet: $4./None. I'm done.]
- **11574**: Have him craft it? [Well, I didn't get these for nothing./Not if he takes that tone.]
- **11576**: Do you? (Total: $2) [Yep, gimme./Nope, sucker.]
- **11672**: What will you do? [Start a conversation with her./Stand back and watch the show.]
- **12009**: How do you respond? [Yup! I used it!/No. I knew better.]
- **12023**: I'm...here...

## Events

### Event 65535

#### Metadata

| Field        | Value     |
|--------------|-----------|
| Entrypoint   | 0x0000    |
| Data Size    | 658 bytes |
| Instructions | 1         |

```
      00 01 02 03 04 05 06 07  08 09 0A 0B 0C 0D 0E 0F
      -- -- -- -- -- -- -- --  -- -- -- -- -- -- -- --
0000: 00 45 00 80 F0 FF FF 7F  F0 FF FF 7F 66 64 69 30  .E..........fdi0
0010: 01 80 55 00 80 F0 FF FF  7F F0 FF FF 7F 66 64 69  ..U..........fdi
0020: 30 1B 45 00 80 F0 FF FF  7F F0 FF FF 7F 66 64 6F  0.E..........fdo
0030: 30 01 80 55 00 80 F0 FF  FF 7F F0 FF FF 7F 66 64  0..U..........fd
0040: 6F 30 1B 45 00 80 F0 FF  FF 7F F0 FF FF 7F 66 64  o0.E..........fd
0050: 69 31 01 80 55 00 80 F0  FF FF 7F F0 FF FF 7F 66  i1..U..........f
0060: 64 69 31 1B 45 00 80 F0  FF FF 7F F0 FF FF 7F 66  di1.E..........f
0070: 64 6F 31 01 80 55 00 80  F0 FF FF 7F F0 FF FF 7F  do1..U..........
0080: 66 64 6F 31 1B 45 02 80  F0 FF FF 7F F0 FF FF 7F  fdo1.E..........
0090: 77 68 69 31 01 80 55 02  80 F0 FF FF 7F F0 FF FF  whi1..U.........
00A0: 7F 77 68 69 31 1B 45 02  80 F0 FF FF 7F F0 FF FF  .whi1.E.........
00B0: 7F 77 68 6F 31 01 80 55  02 80 F0 FF FF 7F F0 FF  .who1..U........
00C0: FF 7F 77 68 6F 31 1B 45  02 80 F0 FF FF 7F F0 FF  ..who1.E........
00D0: FF 7F 77 68 6F 32 01 80  55 02 80 F0 FF FF 7F F0  ..who2..U.......
00E0: FF FF 7F 77 68 6F 32 1B  45 02 80 F0 FF FF 7F F0  ...who2.E.......
00F0: FF FF 7F 77 68 6F 33 01  80 55 02 80 F0 FF FF 7F  ...who3..U......
0100: F0 FF FF 7F 77 68 6F 33  1B 62 03 80 F0 FF FF 7F  ....who3.b......
0110: F0 FF FF 7F 6D 61 69 6E  01 80 1C 04 80 45 00 80  ....main.....E..
0120: F0 FF FF 7F F0 FF FF 7F  66 64 6F 31 01 80 55 00  ........fdo1..U.
0130: 80 F0 FF FF 7F F0 FF FF  7F 66 64 6F 31 1B 45 00  .........fdo1.E.
0140: 80 F0 FF FF 7F F0 FF FF  7F 66 64 69 31 01 80 62  .........fdi1..b
0150: 05 80 F0 FF FF 7F F0 FF  FF 7F 6D 61 69 6E 01 80  ..........main..
0160: 1C 06 80 55 00 80 F0 FF  FF 7F F0 FF FF 7F 66 64  ...U..........fd
0170: 69 31 1B 45 00 80 F0 FF  FF 7F F0 FF FF 7F 62 6C  i1.E..........bl
0180: 6F 6E 01 80 45 02 80 F0  FF FF 7F F0 FF FF 7F 62  on..E..........b
0190: 6C 6F 6E 01 80 1B 45 02  80 F0 FF FF 7F F0 FF FF  lon...E.........
01A0: 7F 77 68 69 30 01 80 55  02 80 F0 FF FF 7F F0 FF  .whi0..U........
01B0: FF 7F 77 68 69 30 1B 45  02 80 F0 FF FF 7F F0 FF  ..whi0.E........
01C0: FF 7F 77 68 6F 30 01 80  55 02 80 F0 FF FF 7F F0  ..who0..U.......
01D0: FF FF 7F 77 68 6F 30 1B  45 07 80 F0 FF FF 7F F0  ...who0.E.......
01E0: FF FF 7F 65 66 6F 6E 01  80 55 07 80 F0 FF FF 7F  ...efon..U......
01F0: F0 FF FF 7F 65 66 6F 6E  1B 45 00 80 F0 FF FF 7F  ....efon.E......
0200: F0 FF FF 7F 66 64 69 73  01 80 1B 45 00 80 F0 FF  ....fdis...E....
0210: FF 7F F0 FF FF 7F 66 64  6F 73 01 80 55 00 80 F0  ......fdos..U...
0220: FF FF 7F F0 FF FF 7F 66  64 6F 73 1B 45 00 80 F0  .......fdos.E...
0230: FF FF 7F F0 FF FF 7F 66  64 69 66 01 80 1B 45 00  .......fdif...E.
0240: 80 F0 FF FF 7F F0 FF FF  7F 66 64 6F 66 01 80 55  .........fdof..U
0250: 00 80 F0 FF FF 7F F0 FF  FF 7F 66 64 6F 66 1B 45  ..........fdof.E
0260: 00 80 F0 FF FF 7F F0 FF  FF 7F 66 64 69 70 01 80  ..........fdip..
0270: 1B 45 00 80 F0 FF FF 7F  F0 FF FF 7F 66 64 6F 70  .E..........fdop
0280: 01 80 55 00 80 F0 FF FF  7F F0 FF FF 7F 66 64 6F  ..U..........fdo
0290: 70 1B                                             p.              
```

#### Opcodes

```
  0: 0x0000 [0x00] END_REQSTACK()
```

#### Data or dead code:

```
# Dead code (unreachable instructions):
     0x0001 [0x45] LOAD_SCHEDULED_TASK: Load scheduler "fdi0" with entities [LocalPlayer, LocalPlayer], work=[200*, 0*]
     0x0012 [0x55] WAIT_LOAD_SCHEDULER: Wait for scheduler "fdi0" with entities [LocalPlayer, LocalPlayer], work=200*
     0x0021 [0x1B] RETURN
     0x0022 [0x45] LOAD_SCHEDULED_TASK: Load scheduler "fdo0" with entities [LocalPlayer, LocalPlayer], work=[200*, 0*]
     0x0033 [0x55] WAIT_LOAD_SCHEDULER: Wait for scheduler "fdo0" with entities [LocalPlayer, LocalPlayer], work=200*
     0x0042 [0x1B] RETURN
     0x0043 [0x45] LOAD_SCHEDULED_TASK: Load scheduler "fdi1" with entities [LocalPlayer, LocalPlayer], work=[200*, 0*]
     0x0054 [0x55] WAIT_LOAD_SCHEDULER: Wait for scheduler "fdi1" with entities [LocalPlayer, LocalPlayer], work=200*
     0x0063 [0x1B] RETURN
     0x0064 [0x45] LOAD_SCHEDULED_TASK: Load scheduler "fdo1" with entities [LocalPlayer, LocalPlayer], work=[200*, 0*]
     0x0075 [0x55] WAIT_LOAD_SCHEDULER: Wait for scheduler "fdo1" with entities [LocalPlayer, LocalPlayer], work=200*
     0x0084 [0x1B] RETURN
     0x0085 [0x45] LOAD_SCHEDULED_TASK: Load scheduler "whi1" with entities [LocalPlayer, LocalPlayer], work=[201*, 0*]
     0x0096 [0x55] WAIT_LOAD_SCHEDULER: Wait for scheduler "whi1" with entities [LocalPlayer, LocalPlayer], work=201*
     0x00A5 [0x1B] RETURN
     0x00A6 [0x45] LOAD_SCHEDULED_TASK: Load scheduler "who1" with entities [LocalPlayer, LocalPlayer], work=[201*, 0*]
     0x00B7 [0x55] WAIT_LOAD_SCHEDULER: Wait for scheduler "who1" with entities [LocalPlayer, LocalPlayer], work=201*
     0x00C6 [0x1B] RETURN
     0x00C7 [0x45] LOAD_SCHEDULED_TASK: Load scheduler "who2" with entities [LocalPlayer, LocalPlayer], work=[201*, 0*]
     0x00D8 [0x55] WAIT_LOAD_SCHEDULER: Wait for scheduler "who2" with entities [LocalPlayer, LocalPlayer], work=201*
     0x00E7 [0x1B] RETURN
     0x00E8 [0x45] LOAD_SCHEDULED_TASK: Load scheduler "who3" with entities [LocalPlayer, LocalPlayer], work=[201*, 0*]
     0x00F9 [0x55] WAIT_LOAD_SCHEDULER: Wait for scheduler "who3" with entities [LocalPlayer, LocalPlayer], work=201*
     0x0108 [0x1B] RETURN
     0x0109 [0x62] LOAD_EVENT_SCHEDULER: Load scheduler "main" with entities [LocalPlayer, LocalPlayer], work=[1*, 0*]
     0x011A [0x1C] WAIT(45* ticks)
     0x011D [0x45] LOAD_SCHEDULED_TASK: Load scheduler "fdo1" with entities [LocalPlayer, LocalPlayer], work=[200*, 0*]
     0x012E [0x55] WAIT_LOAD_SCHEDULER: Wait for scheduler "fdo1" with entities [LocalPlayer, LocalPlayer], work=200*
     0x013D [0x1B] RETURN
     0x013E [0x45] LOAD_SCHEDULED_TASK: Load scheduler "fdi1" with entities [LocalPlayer, LocalPlayer], work=[200*, 0*]
     0x014F [0x62] LOAD_EVENT_SCHEDULER: Load scheduler "main" with entities [LocalPlayer, LocalPlayer], work=[2*, 0*]
     0x0160 [0x1C] WAIT(30* ticks)
     0x0163 [0x55] WAIT_LOAD_SCHEDULER: Wait for scheduler "fdi1" with entities [LocalPlayer, LocalPlayer], work=200*
     0x0172 [0x1B] RETURN
     0x0173 [0x45] LOAD_SCHEDULED_TASK: Load scheduler "blon" with entities [LocalPlayer, LocalPlayer], work=[200*, 0*]
     0x0184 [0x45] LOAD_SCHEDULED_TASK: Load scheduler "blon" with entities [LocalPlayer, LocalPlayer], work=[201*, 0*]
     0x0195 [0x1B] RETURN
     0x0196 [0x45] LOAD_SCHEDULED_TASK: Load scheduler "whi0" with entities [LocalPlayer, LocalPlayer], work=[201*, 0*]
     0x01A7 [0x55] WAIT_LOAD_SCHEDULER: Wait for scheduler "whi0" with entities [LocalPlayer, LocalPlayer], work=201*
     0x01B6 [0x1B] RETURN
     0x01B7 [0x45] LOAD_SCHEDULED_TASK: Load scheduler "who0" with entities [LocalPlayer, LocalPlayer], work=[201*, 0*]
     0x01C8 [0x55] WAIT_LOAD_SCHEDULER: Wait for scheduler "who0" with entities [LocalPlayer, LocalPlayer], work=201*
     0x01D7 [0x1B] RETURN
     0x01D8 [0x45] LOAD_SCHEDULED_TASK: Load scheduler "efon" with entities [LocalPlayer, LocalPlayer], work=[215*, 0*]
     0x01E9 [0x55] WAIT_LOAD_SCHEDULER: Wait for scheduler "efon" with entities [LocalPlayer, LocalPlayer], work=215*
     0x01F8 [0x1B] RETURN
     0x01F9 [0x45] LOAD_SCHEDULED_TASK: Load scheduler "fdis" with entities [LocalPlayer, LocalPlayer], work=[200*, 0*]
     0x020A [0x1B] RETURN
     0x020B [0x45] LOAD_SCHEDULED_TASK: Load scheduler "fdos" with entities [LocalPlayer, LocalPlayer], work=[200*, 0*]
     0x021C [0x55] WAIT_LOAD_SCHEDULER: Wait for scheduler "fdos" with entities [LocalPlayer, LocalPlayer], work=200*
     0x022B [0x1B] RETURN
     0x022C [0x45] LOAD_SCHEDULED_TASK: Load scheduler "fdif" with entities [LocalPlayer, LocalPlayer], work=[200*, 0*]
     0x023D [0x1B] RETURN
     0x023E [0x45] LOAD_SCHEDULED_TASK: Load scheduler "fdof" with entities [LocalPlayer, LocalPlayer], work=[200*, 0*]
     0x024F [0x55] WAIT_LOAD_SCHEDULER: Wait for scheduler "fdof" with entities [LocalPlayer, LocalPlayer], work=200*
     0x025E [0x1B] RETURN
     0x025F [0x45] LOAD_SCHEDULED_TASK: Load scheduler "fdip" with entities [LocalPlayer, LocalPlayer], work=[200*, 0*]
     0x0270 [0x1B] RETURN
     0x0271 [0x45] LOAD_SCHEDULED_TASK: Load scheduler "fdop" with entities [LocalPlayer, LocalPlayer], work=[200*, 0*]
     0x0282 [0x55] WAIT_LOAD_SCHEDULER: Wait for scheduler "fdop" with entities [LocalPlayer, LocalPlayer], work=200*
     0x0291 [0x1B] RETURN
```

### Event 5200

#### Metadata

| Field        | Value      |
|--------------|------------|
| Entrypoint   | 0x0292     |
| Data Size    | 1288 bytes |
| Instructions | 208        |

```
      00 01 02 03 04 05 06 07  08 09 0A 0B 0C 0D 0E 0F
      -- -- -- -- -- -- -- --  -- -- -- -- -- -- -- --
0290:       42 1A 64 00 46 01  38 08 80 94 01 4A 01 10    B.d.F.8....J..
02A0: 01 94 01 4A 01 10 01 BA  F0 FF FF 7F 09 80 0A 80  ...J............
02B0: 0B 80 0C 80 29 08 4D 01  10 01 02 4A 4A 01 10 01  ....).M....JJ...
02C0: F0 FF FF 7F 4A F0 FF FF  7F 4A 01 10 01 6F 76 4A  ....J....J...ovJ
02D0: 01 10 01 6F 76 F0 FF FF  7F 80 4A 01 10 01 80 F0  ...ov.....J.....
02E0: FF FF 7F 45 0D 80 F8 FF  FF 7F F8 FF FF 7F 73 30  ...E..........s0
02F0: 30 30 01 80 1C 0E 80 1A  43 00 27 08 4A 01 10 01  00......C.'.J...
0300: 0E 03 02 10 0F 80 2B 4A  01 10 01 10 80 23 2B 4A  ......+J.....#+J
0310: 01 10 01 11 80 2A 08 4A  01 10 01 23 52 0D 80 F8  .....*.J...#R...
0320: FF FF 7F F8 FF FF 7F 73  30 30 30 45 0D 80 F8 FF  .......s000E....
0330: FF 7F F8 FF FF 7F 73 30  30 35 01 80 29 08 F0 FF  ......s005..)...
0340: FF 7F 06 1C 12 80 7B 4A  01 10 01 27 08 4A 01 10  ......{J...'.J..
0350: 01 0C 2B 4A 01 10 01 13  80 2A 08 4A 01 10 01 23  ..+J.....*.J...#
0360: 52 0D 80 F8 FF FF 7F F8  FF FF 7F 73 30 30 35 45  R..........s005E
0370: 0D 80 F8 FF FF 7F F8 FF  FF 7F 73 30 30 34 01 80  ..........s004..
0380: 79 00 4A 01 10 01 F0 FF  FF 7F 27 08 4A 01 10 01  y.J.......'.J...
0390: 0D 2B 4A 01 10 01 14 80  2A 08 4A 01 10 01 23 24  .+J.....*.J...#$
03A0: 15 80 01 80 01 80 25 02  00 10 01 80 00 FE 03 6E  ......%........n
03B0: F0 FF FF 7F 16 80 99 F0  FF FF 7F 1C 17 80 6E 4A  ..............nJ
03C0: 01 10 01 18 80 99 4A 01  10 01 2B 4A 01 10 01 19  ......J...+J....
03D0: 80 1C 1A 80 23 6E F0 FF  FF 7F 1B 80 99 F0 FF FF  ....#n..........
03E0: 7F 1C 12 80 2B 4A 01 10  01 1C 80 23 52 0D 80 F8  ....+J.....#R...
03F0: FF FF 7F F8 FF FF 7F 73  30 30 34 01 3E 04 02 00  .......s004.>...
0400: 10 03 80 00 3E 04 6E F0  FF FF 7F 1D 80 99 F0 FF  ....>.n.........
0410: FF 7F 1C 17 80 6E 4A 01  10 01 16 80 99 4A 01 10  .....nJ......J..
0420: 01 2B 4A 01 10 01 1E 80  1C 17 80 23 52 0D 80 F8  .+J........#R...
0430: FF FF 7F F8 FF FF 7F 73  30 30 34 01 3E 04 7B 4A  .......s004.>.{J
0440: 01 10 01 45 0D 80 F8 FF  FF 7F F8 FF FF 7F 73 30  ...E..........s0
0450: 30 36 01 80 27 08 4A 01  10 01 08 2B 4A 01 10 01  06..'.J....+J...
0460: 1F 80 23 2B 4A 01 10 01  20 80 23 2B 4A 01 10 01  ..#+J... .#+J...
0470: 21 80 2A 08 4A 01 10 01  23 52 0D 80 F8 FF FF 7F  !.*.J...#R......
0480: F8 FF FF 7F 73 30 30 36  79 00 4A 01 10 01 F0 FF  ....s006y.J.....
0490: FF 7F 45 0D 80 F8 FF FF  7F F8 FF FF 7F 73 30 30  ..E..........s00
04A0: 37 01 80 27 08 4A 01 10  01 09 2B 4A 01 10 01 22  7..'.J....+J..."
04B0: 80 2A 08 4A 01 10 01 23  27 08 4A 01 10 01 0A 2B  .*.J...#'.J....+
04C0: 4A 01 10 01 23 80 2A 08  4A 01 10 01 23 27 08 4A  J...#.*.J...#'.J
04D0: 01 10 01 0B 2B 4A 01 10  01 24 80 2A 08 4A 01 10  ....+J...$.*.J..
04E0: 01 23 7B 4A 01 10 01 27  08 4A 01 10 01 0C 2B 4A  .#{J...'.J....+J
04F0: 01 10 01 25 80 23 2B 4A  01 10 01 26 80 2A 08 4A  ...%.#+J...&.*.J
0500: 01 10 01 23 52 0D 80 F8  FF FF 7F F8 FF FF 7F 73  ...#R..........s
0510: 30 30 37 45 0D 80 F8 FF  FF 7F F8 FF FF 7F 73 30  007E..........s0
0520: 30 38 01 80 79 00 4A 01  10 01 F0 FF FF 7F 27 08  08..y.J.......'.
0530: 4A 01 10 01 0D 2B 4A 01  10 01 27 80 2A 08 4A 01  J....+J...'.*.J.
0540: 10 01 23 1A 64 00 5D 01  80 28 80 29 08 4A 01 10  ..#.d.]..(.).J..
0550: 01 05 1C 04 80 45 29 80  F8 FF FF 7F F8 FF FF 7F  .....E).........
0560: 73 30 36 32 01 80 55 29  80 F8 FF FF 7F F8 FF FF  s062..U)........
0570: 7F 73 30 36 32 1C 04 80  5D 2A 80 2B 80 29 08 4A  .s062...]*.+.).J
0580: 01 10 01 06 4A 4A 01 10  01 F0 FF FF 7F 6F 70 1C  ....JJ.......op.
0590: 0E 80 1A 43 00 27 08 4A  01 10 01 07 2B 4A 01 10  ...C.'.J....+J..
05A0: 01 2C 80 2A 08 4A 01 10  01 23 1A 64 00 1C 0E 80  .,.*.J...#.d....
05B0: 52 0D 80 F8 FF FF 7F F8  FF FF 7F 73 30 30 38 77  R..........s008w
05C0: 2D 80 01 80 29 08 43 01  10 01 0F 29 08 44 01 10  -...).C....).D..
05D0: 01 16 29 08 45 01 10 01  2D 29 08 46 01 10 01 1D  ..).E...-).F....
05E0: 4E 00 ED 00 10 01 2F 00  ED 00 10 01 2A 08 43 01  N...../.....*.C.
05F0: 10 01 2A 08 44 01 10 01  2A 08 45 01 10 01 2A 08  ..*.D...*.E...*.
0600: 46 01 10 01 94 01 41 01  10 01 94 01 0C 01 10 01  F.....A.........
0610: 94 01 43 01 10 01 94 01  44 01 10 01 94 01 45 01  ..C.....D.....E.
0620: 10 01 94 01 46 01 10 01  94 01 ED 00 10 01 BA 43  ....F..........C
0630: 01 10 01 2E 80 2F 80 30  80 31 80 BA 44 01 10 01  ...../.0.1..D...
0640: 32 80 33 80 0B 80 34 80  BA 45 01 10 01 35 80 36  2.3...4..E...5.6
0650: 80 01 80 37 80 BA 46 01  10 01 38 80 39 80 3A 80  ...7..F...8.9.:.
0660: 3B 80 BA ED 00 10 01 3C  80 3D 80 3E 80 3F 80 80  ;......<.=.>.?..
0670: 43 01 10 01 80 44 01 10  01 80 45 01 10 01 80 46  C....D....E....F
0680: 01 10 01 80 ED 00 10 01  80 0C 01 10 01 80 41 01  ..............A.
0690: 10 01 4A 46 01 10 01 ED  00 10 01 4A ED 00 10 01  ..JF.......J....
06A0: 46 01 10 01 6F 76 46 01  10 01 6F 76 ED 00 10 01  F...ovF...ov....
06B0: 6C 43 01 10 01 01 80 03  80 27 08 43 01 10 01 10  lC.......'.C....
06C0: 45 0D 80 F8 FF FF 7F F8  FF FF 7F 73 30 30 31 01  E..........s001.
06D0: 80 1C 06 80 27 08 44 01  10 01 17 27 08 45 01 10  ....'.D....'.E..
06E0: 01 2E 1C 0E 80 1A 43 00  27 08 ED 00 10 01 0E 1C  ......C.'.......
06F0: 40 80 67 41 80 41 80 1A  64 00 6A 01 80 03 80 42  @.gA.A..d.j....B
0700: 80 6A 01 80 03 80 43 80  5C A0 01 80 03 80 5C A1  .j....C.\.....\.
0710: 01 80 03 80 1C 44 80 48  45 80 1C 46 80 6A 47 80  .....D.HE..F.jG.
0720: 03 80 42 80 6A 47 80 03  80 43 80 5C A0 2A 80 2B  ..B.jG...C.\.*.+
0730: 80 5C A1 2A 80 48 80 52  0D 80 F8 FF FF 7F F8 FF  .\.*.H.R........
0740: FF 7F 73 30 30 31 68 4E  01 ED 00 10 01 2F 01 ED  ..s001hN...../..
0750: 00 10 01 6C 43 01 10 01  49 80 03 80 29 08 43 01  ...lC...I...).C.
0760: 10 01 0C 29 08 44 01 10  01 13 29 08 45 01 10 01  ...).D....).E...
0770: 2B 29 08 46 01 10 01 1B  78 1C 0E 80 AB 11 01 80  +).F....x.......
0780: 1C 03 80 AB 0A 46 00 45  00 80 F0 FF FF 7F F0 FF  .....F.E........
0790: FF 7F 66 64 69 32 01 80  21 00                    ..fdi2..!.      
```

#### Opcodes

```
  0: 0x0292 [0x42] SET_CLI_EVENT_CANCEL_DATA()
  1: 0x0293 [0x1A] CALL_SUBROUTINE(address=0x0064)
  2: 0x0296 [0x46] CAMERA_CONTROL: Disable user control
  3: 0x0298 [0x38] SET_CLIENT_EVENT_MODE(mode=155*)
  4: 0x029B [0x94] Polished Pebble (ID: 17826122/0x0110014A)->Render.Flags3 ^= 0x01
  5: 0x02A1 [0x94] Polished Pebble (ID: 17826122/0x0110014A)->Render.Flags3 ^= 0x01
  6: 0x02A7 [0xBA] SET_ENTITY_POSITION(entity_id=LocalPlayer, pos_x=97.847*, pos_z=-68.602*, pos_y=-0.649*, direction=101.2°*)
  7: 0x02B4 [0x29] REQ_SET_WAIT(priority=0x08, entity_id=Unnamed NPC (ID: 17826125/0x0110014D), tag_num=0x02)
  8: 0x02BB [0x4A] Polished Pebble (ID: 17826122/0x0110014A) looks at LocalPlayer
  9: 0x02C4 [0x4A] LocalPlayer looks at Polished Pebble (ID: 17826122/0x0110014A)
 10: 0x02CD [0x6F] WAIT_FRAME_DELAY: Yield until WaitTime reaches zero
 11: 0x02CE [0x76] CHECK_ENTITY_RENDER_FLAGS: Wait until Polished Pebble (ID: 17826122/0x0110014A) Render.Flags0 and Render.Flags3 conditions are met
 12: 0x02D3 [0x6F] WAIT_FRAME_DELAY: Yield until WaitTime reaches zero
 13: 0x02D4 [0x76] CHECK_ENTITY_RENDER_FLAGS: Wait until LocalPlayer Render.Flags0 and Render.Flags3 conditions are met
 14: 0x02D9 [0x80] LOAD_WAIT(entity=Polished Pebble (ID: 17826122/0x0110014A))
 15: 0x02DE [0x80] LOAD_WAIT(entity=LocalPlayer)
 16: 0x02E3 [0x45] LOAD_SCHEDULED_TASK: Load scheduler "s000" with entities [EventEntity, EventEntity], work=[713*, 0*]
 17: 0x02F4 [0x1C] WAIT(15* ticks)
 18: 0x02F7 [0x1A] CALL_SUBROUTINE(address=0x0043)
 19: 0x02FA [0x27] REQ_SET(priority=0x08, entity_id=Polished Pebble (ID: 17826122/0x0110014A), tag_num=0x0E)
 20: 0x0301 [0x03] Work_Zone[2] = 2614*
 21: 0x0306 [0x2B] Polished Pebble (ID: 17826122/0x0110014A) [12005*]:
    → "Need something fixed then? Take a number and get back in... Hold on. That's $6."
 22: 0x030D [0x23] WAIT_FOR_DIALOG_INTERACTION
 23: 0x030E [0x2B] Polished Pebble (ID: 17826122/0x0110014A) [12006*]:
    → "Lemme get a look at it. See this glowing piece of work right here? We call it a "capacitor." Made it myself."
 24: 0x0315 [0x2A] GET_REQ_LEVEL(level=8, entity_id=Polished Pebble (ID: 17826122/0x0110014A))
 25: 0x031B [0x23] WAIT_FOR_DIALOG_INTERACTION
 26: 0x031C [0x52] END_LOAD_SCHEDULER: End scheduler "s000" with entities [EventEntity, EventEntity], work=713*
 27: 0x032B [0x45] LOAD_SCHEDULED_TASK: Load scheduler "s005" with entities [EventEntity, EventEntity], work=[713*, 0*]
 28: 0x033C [0x29] REQ_SET_WAIT(priority=0x08, entity_id=LocalPlayer, tag_num=0x06)
 29: 0x0343 [0x1C] WAIT(110* ticks)
 30: 0x0346 [0x7B] Polished Pebble (ID: 17826122/0x0110014A) stops talking
 31: 0x034B [0x27] REQ_SET(priority=0x08, entity_id=Polished Pebble (ID: 17826122/0x0110014A), tag_num=0x0C)
 32: 0x0352 [0x2B] Polished Pebble (ID: 17826122/0x0110014A) [12007*]:
    → "What in blazes..."
 33: 0x0359 [0x2A] GET_REQ_LEVEL(level=8, entity_id=Polished Pebble (ID: 17826122/0x0110014A))
 34: 0x035F [0x23] WAIT_FOR_DIALOG_INTERACTION
 35: 0x0360 [0x52] END_LOAD_SCHEDULER: End scheduler "s005" with entities [EventEntity, EventEntity], work=713*
 36: 0x036F [0x45] LOAD_SCHEDULED_TASK: Load scheduler "s004" with entities [EventEntity, EventEntity], work=[713*, 0*]
 37: 0x0380 [0x79] Polished Pebble (ID: 17826122/0x0110014A) looks at LocalPlayer (Basic look)
 38: 0x038A [0x27] REQ_SET(priority=0x08, entity_id=Polished Pebble (ID: 17826122/0x0110014A), tag_num=0x0D)
 39: 0x0391 [0x2B] Polished Pebble (ID: 17826122/0x0110014A) [12008*]:
    → "You don't mean you actually used the thing?"
 40: 0x0398 [0x2A] GET_REQ_LEVEL(level=8, entity_id=Polished Pebble (ID: 17826122/0x0110014A))
 41: 0x039E [0x23] WAIT_FOR_DIALOG_INTERACTION
 42: 0x039F [0x24] CREATE_DIALOG(message_id=12009*, default_option=0*, option_flags=0*)
    → "How do you respond? [Yup! I used it!/No. I knew better.]"
 43: 0x03A6 [0x25] WAIT_DIALOG_SELECT()
 44: 0x03A7 [0x02] IF !(Work_Zone[0] == 0*) GOTO 0x03FE
 45: 0x03AF [0x6E] LocalPlayer uses emote 7*
 46: 0x03B6 [0x99] Wait for LocalPlayer animation to complete
 47: 0x03BB [0x1C] WAIT(60* ticks)
 48: 0x03BE [0x6E] Polished Pebble (ID: 17826122/0x0110014A) uses emote 21*
 49: 0x03C5 [0x99] Wait for Polished Pebble (ID: 17826122/0x0110014A) animation to complete
 50: 0x03CA [0x2B] Polished Pebble (ID: 17826122/0x0110014A) [12011*]:
    → "Wh-what? And you didn't suffer any brain damage or other ill effects?"
 51: 0x03D1 [0x1C] WAIT(130* ticks)
 52: 0x03D4 [0x23] WAIT_FOR_DIALOG_INTERACTION
 53: 0x03D5 [0x6E] LocalPlayer uses emote 36*
 54: 0x03DC [0x99] Wait for LocalPlayer animation to complete
 55: 0x03E1 [0x1C] WAIT(110* ticks)
 56: 0x03E4 [0x2B] Polished Pebble (ID: 17826122/0x0110014A) [12012*]:
    → "Then count yourself as one of the lucky ones."
 57: 0x03EB [0x23] WAIT_FOR_DIALOG_INTERACTION
 58: 0x03EC [0x52] END_LOAD_SCHEDULER: End scheduler "s004" with entities [EventEntity, EventEntity], work=713*
 59: 0x03FB [0x01] GOTO 0x043E
 60: 0x03FE [0x02] IF !(Work_Zone[0] == 1*) GOTO 0x043E
 61: 0x0406 [0x6E] LocalPlayer uses emote 6*
 62: 0x040D [0x99] Wait for LocalPlayer animation to complete
 63: 0x0412 [0x1C] WAIT(60* ticks)
 64: 0x0415 [0x6E] Polished Pebble (ID: 17826122/0x0110014A) uses emote 7*
 65: 0x041C [0x99] Wait for Polished Pebble (ID: 17826122/0x0110014A) animation to complete
 66: 0x0421 [0x2B] Polished Pebble (ID: 17826122/0x0110014A) [12010*]:
    → "And a good thing, too. It coulda bought you a one-way ticket to the void!"
 67: 0x0428 [0x1C] WAIT(60* ticks)
 68: 0x042B [0x23] WAIT_FOR_DIALOG_INTERACTION
 69: 0x042C [0x52] END_LOAD_SCHEDULER: End scheduler "s004" with entities [EventEntity, EventEntity], work=713*
 70: 0x043B [0x01] GOTO 0x043E

SUBROUTINE_043E:
 71: 0x043E [0x7B] Polished Pebble (ID: 17826122/0x0110014A) stops talking
 72: 0x0443 [0x45] LOAD_SCHEDULED_TASK: Load scheduler "s006" with entities [EventEntity, EventEntity], work=[713*, 0*]
 73: 0x0454 [0x27] REQ_SET(priority=0x08, entity_id=Polished Pebble (ID: 17826122/0x0110014A), tag_num=0x08)
 74: 0x045B [0x2B] Polished Pebble (ID: 17826122/0x0110014A) [12013*]:
    → "You see, this little box here harbors a combination of imprinting technology and geomantic incantations...and caused quite the disturbance the last time someone used it."
 75: 0x0462 [0x23] WAIT_FOR_DIALOG_INTERACTION
 76: 0x0463 [0x2B] Polished Pebble (ID: 17826122/0x0110014A) [12014*]:
    → "Runic flux and ergon energy are a powder keg waiting to happen."
 77: 0x046A [0x23] WAIT_FOR_DIALOG_INTERACTION
 78: 0x046B [0x2B] Polished Pebble (ID: 17826122/0x0110014A) [12015*]:
    → "Too much ergon, and...kaboom!"
 79: 0x0472 [0x2A] GET_REQ_LEVEL(level=8, entity_id=Polished Pebble (ID: 17826122/0x0110014A))
 80: 0x0478 [0x23] WAIT_FOR_DIALOG_INTERACTION
 81: 0x0479 [0x52] END_LOAD_SCHEDULER: End scheduler "s006" with entities [EventEntity, EventEntity], work=713*
 82: 0x0488 [0x79] Polished Pebble (ID: 17826122/0x0110014A) looks at LocalPlayer (Basic look)
 83: 0x0492 [0x45] LOAD_SCHEDULED_TASK: Load scheduler "s007" with entities [EventEntity, EventEntity], work=[713*, 0*]
 84: 0x04A3 [0x27] REQ_SET(priority=0x08, entity_id=Polished Pebble (ID: 17826122/0x0110014A), tag_num=0x09)
 85: 0x04AA [0x2B] Polished Pebble (ID: 17826122/0x0110014A) [12016*]:
    → "Well, not literally. But the user can see replicated images of their past, or suffer massive head trauma due to the uncontrollable surge of memories flooding it."
 86: 0x04B1 [0x2A] GET_REQ_LEVEL(level=8, entity_id=Polished Pebble (ID: 17826122/0x0110014A))
 87: 0x04B7 [0x23] WAIT_FOR_DIALOG_INTERACTION
 88: 0x04B8 [0x27] REQ_SET(priority=0x08, entity_id=Polished Pebble (ID: 17826122/0x0110014A), tag_num=0x0A)
 89: 0x04BF [0x2B] Polished Pebble (ID: 17826122/0x0110014A) [12017*]:
    → "And in the worst cases, they can pick up the memories of others, or even rip a hole in space-time and find themselves sucked in."
 90: 0x04C6 [0x2A] GET_REQ_LEVEL(level=8, entity_id=Polished Pebble (ID: 17826122/0x0110014A))
 91: 0x04CC [0x23] WAIT_FOR_DIALOG_INTERACTION
 92: 0x04CD [0x27] REQ_SET(priority=0x08, entity_id=Polished Pebble (ID: 17826122/0x0110014A), tag_num=0x0B)
 93: 0x04D4 [0x2B] Polished Pebble (ID: 17826122/0x0110014A) [12018*]:
    → "Surely I don't have to spell out what that means."
 94: 0x04DB [0x2A] GET_REQ_LEVEL(level=8, entity_id=Polished Pebble (ID: 17826122/0x0110014A))
 95: 0x04E1 [0x23] WAIT_FOR_DIALOG_INTERACTION
 96: 0x04E2 [0x7B] Polished Pebble (ID: 17826122/0x0110014A) stops talking
 97: 0x04E7 [0x27] REQ_SET(priority=0x08, entity_id=Polished Pebble (ID: 17826122/0x0110014A), tag_num=0x0C)
 98: 0x04EE [0x2B] Polished Pebble (ID: 17826122/0x0110014A) [12019*]:
    → "It was last used several years back and--Goddess be thanked--no ill came of it."
 99: 0x04F5 [0x23] WAIT_FOR_DIALOG_INTERACTION
100: 0x04F6 [0x2B] Polished Pebble (ID: 17826122/0x0110014A) [12020*]:
    → "But if it were to happen again, we'd have to start the design process over from scratch."
101: 0x04FD [0x2A] GET_REQ_LEVEL(level=8, entity_id=Polished Pebble (ID: 17826122/0x0110014A))
102: 0x0503 [0x23] WAIT_FOR_DIALOG_INTERACTION
103: 0x0504 [0x52] END_LOAD_SCHEDULER: End scheduler "s007" with entities [EventEntity, EventEntity], work=713*
104: 0x0513 [0x45] LOAD_SCHEDULED_TASK: Load scheduler "s008" with entities [EventEntity, EventEntity], work=[713*, 0*]
105: 0x0524 [0x79] Polished Pebble (ID: 17826122/0x0110014A) looks at LocalPlayer (Basic look)
106: 0x052E [0x27] REQ_SET(priority=0x08, entity_id=Polished Pebble (ID: 17826122/0x0110014A), tag_num=0x0D)
107: 0x0535 [0x2B] Polished Pebble (ID: 17826122/0x0110014A) [12021*]:
    → "See this little stamp on the back? That means it was made recently, so I can repair it free of charge."
108: 0x053C [0x2A] GET_REQ_LEVEL(level=8, entity_id=Polished Pebble (ID: 17826122/0x0110014A))
109: 0x0542 [0x23] WAIT_FOR_DIALOG_INTERACTION
110: 0x0543 [0x1A] CALL_SUBROUTINE(address=0x0064)
111: 0x0546 [0x5D] SET_MUSIC_VOLUME(volume=0*, fade_time=480*)
112: 0x054B [0x29] REQ_SET_WAIT(priority=0x08, entity_id=Polished Pebble (ID: 17826122/0x0110014A), tag_num=0x05)
113: 0x0552 [0x1C] WAIT(45* ticks)
114: 0x0555 [0x45] LOAD_SCHEDULED_TASK: Load scheduler "s062" with entities [EventEntity, EventEntity], work=[613*, 0*]
115: 0x0566 [0x55] WAIT_LOAD_SCHEDULER: Wait for scheduler "s062" with entities [EventEntity, EventEntity], work=613*
116: 0x0575 [0x1C] WAIT(45* ticks)
117: 0x0578 [0x5D] SET_MUSIC_VOLUME(volume=127*, fade_time=300*)
118: 0x057D [0x29] REQ_SET_WAIT(priority=0x08, entity_id=Polished Pebble (ID: 17826122/0x0110014A), tag_num=0x06)
119: 0x0584 [0x4A] Polished Pebble (ID: 17826122/0x0110014A) looks at LocalPlayer
120: 0x058D [0x6F] WAIT_FRAME_DELAY: Yield until WaitTime reaches zero
121: 0x058E [0x70] WAIT_ENTITY_RENDER_FLAG: Wait while EventEntity->Render.Flags3 bit 2 is set (cancel turn if not)
122: 0x058F [0x1C] WAIT(15* ticks)
123: 0x0592 [0x1A] CALL_SUBROUTINE(address=0x0043)
124: 0x0595 [0x27] REQ_SET(priority=0x08, entity_id=Polished Pebble (ID: 17826122/0x0110014A), tag_num=0x07)
125: 0x059C [0x2B] Polished Pebble (ID: 17826122/0x0110014A) [12022*]:
    → "Here you go. The repairs've made it a bit safer, so why don't you take a quick peek?"
126: 0x05A3 [0x2A] GET_REQ_LEVEL(level=8, entity_id=Polished Pebble (ID: 17826122/0x0110014A))
127: 0x05A9 [0x23] WAIT_FOR_DIALOG_INTERACTION
128: 0x05AA [0x1A] CALL_SUBROUTINE(address=0x0064)
129: 0x05AD [0x1C] WAIT(15* ticks)
130: 0x05B0 [0x52] END_LOAD_SCHEDULER: End scheduler "s008" with entities [EventEntity, EventEntity], work=713*
131: 0x05BF [0x77] SET_EVENT_TIME_WEATHER(hour=12*, weather=0*)
132: 0x05C4 [0x29] REQ_SET_WAIT(priority=0x08, entity_id=Unnamed NPC (ID: 17826115/0x01100143), tag_num=0x0F)
133: 0x05CB [0x29] REQ_SET_WAIT(priority=0x08, entity_id=Unnamed NPC (ID: 17826116/0x01100144), tag_num=0x16)
134: 0x05D2 [0x29] REQ_SET_WAIT(priority=0x08, entity_id=Unnamed NPC (ID: 17826117/0x01100145), tag_num=0x2D)
135: 0x05D9 [0x29] REQ_SET_WAIT(priority=0x08, entity_id=Unnamed NPC (ID: 17826118/0x01100146), tag_num=0x1D)
136: 0x05E0 [0x4E] SET_ENTITY_HIDE_FLAG: Show Amchuchu (ID: 17826029/0x011000ED)
137: 0x05E6 [0x2F] Amchuchu (ID: 17826029/0x011000ED)->Render.Flags0 &= ~0x80000 // Bit 19
138: 0x05EC [0x2A] GET_REQ_LEVEL(level=8, entity_id=Unnamed NPC (ID: 17826115/0x01100143))
139: 0x05F2 [0x2A] GET_REQ_LEVEL(level=8, entity_id=Unnamed NPC (ID: 17826116/0x01100144))
140: 0x05F8 [0x2A] GET_REQ_LEVEL(level=8, entity_id=Unnamed NPC (ID: 17826117/0x01100145))
141: 0x05FE [0x2A] GET_REQ_LEVEL(level=8, entity_id=Unnamed NPC (ID: 17826118/0x01100146))
142: 0x0604 [0x94] Gaddiux (ID: 17826113/0x01100141)->Render.Flags3 ^= 0x01
143: 0x060A [0x94] Shipilolo (ID: 17826060/0x0110010C)->Render.Flags3 ^= 0x01
144: 0x0610 [0x94] Unnamed NPC (ID: 17826115/0x01100143)->Render.Flags3 ^= 0x01
145: 0x0616 [0x94] Unnamed NPC (ID: 17826116/0x01100144)->Render.Flags3 ^= 0x01
146: 0x061C [0x94] Unnamed NPC (ID: 17826117/0x01100145)->Render.Flags3 ^= 0x01
147: 0x0622 [0x94] Unnamed NPC (ID: 17826118/0x01100146)->Render.Flags3 ^= 0x01
148: 0x0628 [0x94] Amchuchu (ID: 17826029/0x011000ED)->Render.Flags3 ^= 0x01
149: 0x062E [0xBA] SET_ENTITY_POSITION(entity_id=Unnamed NPC (ID: 17826115/0x01100143), pos_x=65.329*, pos_z=-59.848*, pos_y=-11.649*, direction=46.4°*)
150: 0x063B [0xBA] SET_ENTITY_POSITION(entity_id=Unnamed NPC (ID: 17826116/0x01100144), pos_x=95.312*, pos_z=-66.586*, pos_y=-0.649*, direction=227.7°*)
151: 0x0648 [0xBA] SET_ENTITY_POSITION(entity_id=Unnamed NPC (ID: 17826117/0x01100145), pos_x=71.897*, pos_z=-59.791*, pos_y=0.000*, direction=342.6°*)
152: 0x0655 [0xBA] SET_ENTITY_POSITION(entity_id=Unnamed NPC (ID: 17826118/0x01100146), pos_x=74.997*, pos_z=-57.596*, pos_y=-0.149*, direction=320.1°*)
153: 0x0662 [0xBA] SET_ENTITY_POSITION(entity_id=Amchuchu (ID: 17826029/0x011000ED), pos_x=76.152*, pos_z=-56.391*, pos_y=-0.148*, direction=133.6°*)
154: 0x066F [0x80] LOAD_WAIT(entity=Unnamed NPC (ID: 17826115/0x01100143))
155: 0x0674 [0x80] LOAD_WAIT(entity=Unnamed NPC (ID: 17826116/0x01100144))
156: 0x0679 [0x80] LOAD_WAIT(entity=Unnamed NPC (ID: 17826117/0x01100145))
157: 0x067E [0x80] LOAD_WAIT(entity=Unnamed NPC (ID: 17826118/0x01100146))
158: 0x0683 [0x80] LOAD_WAIT(entity=Amchuchu (ID: 17826029/0x011000ED))
159: 0x0688 [0x80] LOAD_WAIT(entity=Shipilolo (ID: 17826060/0x0110010C))
160: 0x068D [0x80] LOAD_WAIT(entity=Gaddiux (ID: 17826113/0x01100141))
161: 0x0692 [0x4A] Unnamed NPC (ID: 17826118/0x01100146) looks at Amchuchu (ID: 17826029/0x011000ED)
162: 0x069B [0x4A] Amchuchu (ID: 17826029/0x011000ED) looks at Unnamed NPC (ID: 17826118/0x01100146)
163: 0x06A4 [0x6F] WAIT_FRAME_DELAY: Yield until WaitTime reaches zero
164: 0x06A5 [0x76] CHECK_ENTITY_RENDER_FLAGS: Wait until Unnamed NPC (ID: 17826118/0x01100146) Render.Flags0 and Render.Flags3 conditions are met
165: 0x06AA [0x6F] WAIT_FRAME_DELAY: Yield until WaitTime reaches zero
166: 0x06AB [0x76] CHECK_ENTITY_RENDER_FLAGS: Wait until Amchuchu (ID: 17826029/0x011000ED) Render.Flags0 and Render.Flags3 conditions are met
167: 0x06B0 [0x6C] FADE_ENTITY_COLOR(entity_id=Unnamed NPC (ID: 17826115/0x01100143), end_alpha=0*, fade_time=1*)
168: 0x06B9 [0x27] REQ_SET(priority=0x08, entity_id=Unnamed NPC (ID: 17826115/0x01100143), tag_num=0x10)
169: 0x06C0 [0x45] LOAD_SCHEDULED_TASK: Load scheduler "s001" with entities [EventEntity, EventEntity], work=[713*, 0*]
170: 0x06D1 [0x1C] WAIT(30* ticks)
171: 0x06D4 [0x27] REQ_SET(priority=0x08, entity_id=Unnamed NPC (ID: 17826116/0x01100144), tag_num=0x17)
172: 0x06DB [0x27] REQ_SET(priority=0x08, entity_id=Unnamed NPC (ID: 17826117/0x01100145), tag_num=0x2E)
173: 0x06E2 [0x1C] WAIT(15* ticks)
174: 0x06E5 [0x1A] CALL_SUBROUTINE(address=0x0043)
175: 0x06E8 [0x27] REQ_SET(priority=0x08, entity_id=Amchuchu (ID: 17826029/0x011000ED), tag_num=0x0E)
176: 0x06EF [0x1C] WAIT(1200* ticks)
177: 0x06F2 [0x67] HIDE_HUD_ELEMENTS(param1=0x8041, param2=0x8041)
178: 0x06F7 [0x1A] CALL_SUBROUTINE(address=0x0064)
179: 0x06FA [0x6A] CHANGE_SOUND_VOLUME: Set (Master)* volume to 0*, fade_time=1*
180: 0x0701 [0x6A] CHANGE_SOUND_VOLUME: Set (Zone)* volume to 0*, fade_time=1*
181: 0x0708 [0x5C] MUSIC_CONTROL: Set music volume to song 0*, fade_time=1*
182: 0x070E [0x5C] MUSIC_CONTROL: Adjust music volume to song 0*, fade_time=1*
183: 0x0714 [0x1C] WAIT(50* ticks)
184: 0x0717 [0x48] [System] [12023*]:
    → "I'm...here..."
185: 0x071A [0x1C] WAIT(270* ticks)
186: 0x071D [0x6A] CHANGE_SOUND_VOLUME: Set (Master)* volume to 999*, fade_time=1*
187: 0x0724 [0x6A] CHANGE_SOUND_VOLUME: Set (Zone)* volume to 999*, fade_time=1*
188: 0x072B [0x5C] MUSIC_CONTROL: Set music volume to song 127*, fade_time=300*
189: 0x0731 [0x5C] MUSIC_CONTROL: Adjust music volume to song 127*, fade_time=400*
190: 0x0737 [0x52] END_LOAD_SCHEDULER: End scheduler "s001" with entities [EventEntity, EventEntity], work=713*
191: 0x0746 [0x68] SHOW_HUD_ELEMENTS()
192: 0x0747 [0x4E] SET_ENTITY_HIDE_FLAG: Hide Amchuchu (ID: 17826029/0x011000ED)
193: 0x074D [0x2F] Amchuchu (ID: 17826029/0x011000ED)->Render.Flags0 |= 0x80000 // Bit 19
194: 0x0753 [0x6C] FADE_ENTITY_COLOR(entity_id=Unnamed NPC (ID: 17826115/0x01100143), end_alpha=128*, fade_time=1*)
195: 0x075C [0x29] REQ_SET_WAIT(priority=0x08, entity_id=Unnamed NPC (ID: 17826115/0x01100143), tag_num=0x0C)
196: 0x0763 [0x29] REQ_SET_WAIT(priority=0x08, entity_id=Unnamed NPC (ID: 17826116/0x01100144), tag_num=0x13)
197: 0x076A [0x29] REQ_SET_WAIT(priority=0x08, entity_id=Unnamed NPC (ID: 17826117/0x01100145), tag_num=0x2B)
198: 0x0771 [0x29] REQ_SET_WAIT(priority=0x08, entity_id=Unnamed NPC (ID: 17826118/0x01100146), tag_num=0x1B)
199: 0x0778 [0x78] ENABLE_GAME_TIMER_RESET_WEATHER()
200: 0x0779 [0x1C] WAIT(15* ticks)
201: 0x077C [0xAB] EventEntity->DespawnValue = 0* // Set despawn value
202: 0x0780 [0x1C] WAIT(1* ticks)
203: 0x0783 [0xAB] EventEntity->UnknownFlag = 0 // Disable unknown flag
204: 0x0785 [0x46] CAMERA_CONTROL: Restore default settings
205: 0x0787 [0x45] LOAD_SCHEDULED_TASK: Load scheduler "fdi2" with entities [LocalPlayer, LocalPlayer], work=[200*, 0*]
206: 0x0798 [0x21] END_EVENT
207: 0x0799 [0x00] END_REQSTACK()
```

### Event 172

#### Metadata

| Field        | Value      |
|--------------|------------|
| Entrypoint   | 0x079A     |
| Data Size    | 3028 bytes |
| Instructions | 363        |

```
      00 01 02 03 04 05 06 07  08 09 0A 0B 0C 0D 0E 0F
      -- -- -- -- -- -- -- --  -- -- -- -- -- -- -- --
0790:                                42 5D 01 80 00 80            B]....
07A0: 45 00 80 F0 FF FF 7F F0  FF FF 7F 66 64 6F 31 01  E..........fdo1.
07B0: 80 55 00 80 F0 FF FF 7F  F0 FF FF 7F 66 64 6F 31  .U..........fdo1
07C0: 46 01 38 4A 80 4E 00 F0  FF FF 7F 4E 00 4C 01 10  F.8J.N.....N.L..
07D0: 01 4E 00 AB 00 10 01 4E  00 C0 00 10 01 4E 00 CB  .N.....N.....N..
07E0: 00 10 01 4E 00 CC 00 10  01 4E 00 4D 01 10 01 2F  ...N.....N.M.../
07F0: 00 4C 01 10 01 2F 00 AB  00 10 01 2F 00 C0 00 10  .L.../...../....
0800: 01 2F 00 CB 00 10 01 2F  00 CC 00 10 01 2F 00 4D  ./...../...../.M
0810: 01 10 01 92 01 4C 01 10  01 92 01 AB 00 10 01 92  .....L..........
0820: 01 C0 00 10 01 92 01 CB  00 10 01 92 01 CC 00 10  ................
0830: 01 92 01 4D 01 10 01 92  01 15 01 10 01 92 01 14  ...M............
0840: 01 10 01 92 01 79 00 10  01 94 01 4C 01 10 01 94  .....y.....L....
0850: 01 AB 00 10 01 94 01 C0  00 10 01 94 01 CB 00 10  ................
0860: 01 94 01 CC 00 10 01 94  01 4D 01 10 01 94 01 F0  .........M......
0870: FF FF 7F BA 4C 01 10 01  4B 80 4C 80 4D 80 4E 80  ....L...K.L.M.N.
0880: BA AB 00 10 01 4F 80 50  80 01 80 51 80 BA C0 00  .....O.P...Q....
0890: 10 01 52 80 53 80 01 80  54 80 BA CB 00 10 01 55  ..R.S...T......U
08A0: 80 56 80 01 80 57 80 BA  CC 00 10 01 58 80 59 80  .V...W......X.Y.
08B0: 01 80 57 80 BA 4D 01 10  01 5A 80 5B 80 4D 80 34  ..W..M...Z.[.M.4
08C0: 80 BA F0 FF FF 7F 5C 80  5D 80 47 80 5E 80 29 08  ......\.].G.^.).
08D0: F0 FF FF 7F 04 80 4C 01  10 01 80 AB 00 10 01 80  ......L.........
08E0: C0 00 10 01 80 CB 00 10  01 80 CC 00 10 01 80 F0  ................
08F0: FF FF 7F 4A CB 00 10 01  AB 00 10 01 4A CC 00 10  ...J........J...
0900: 01 AB 00 10 01 4A C0 00  10 01 AB 00 10 01 6F 76  .....J........ov
0910: CB 00 10 01 6F 76 CC 00  10 01 6F 76 C0 00 10 01  ....ov....ov....
0920: 79 00 AB 00 10 01 CB 00  10 01 27 08 14 01 10 01  y.........'.....
0930: 0A 45 5F 80 F8 FF FF 7F  F8 FF FF 7F 73 30 30 30  .E_.........s000
0940: 01 80 1C 0E 80 45 00 80  F0 FF FF 7F F0 FF FF 7F  .....E..........
0950: 66 64 69 31 01 80 1C 44  80 29 08 F0 FF FF 7F 05  fdi1...D.)......
0960: 29 08 AB 00 10 01 1B 79  00 F0 FF FF 7F AB 00 10  )......y........
0970: 01 79 00 AB 00 10 01 CC  00 10 01 27 08 F0 FF FF  .y.........'....
0980: 7F 74 1C 17 80 52 5F 80  F8 FF FF 7F F8 FF FF 7F  .t...R_.........
0990: 73 30 30 30 45 5F 80 F8  FF FF 7F F8 FF FF 7F 73  s000E_.........s
09A0: 30 30 31 01 80 79 00 AB  00 10 01 C0 00 10 01 29  001..y.........)
09B0: 08 C0 00 10 01 20 29 08  CB 00 10 01 19 29 08 AB  ..... )......)..
09C0: 00 10 01 1C 29 08 AB 00  10 01 1D 52 5F 80 F8 FF  ....)......R_...
09D0: FF 7F F8 FF FF 7F 73 30  30 31 45 5F 80 F8 FF FF  ......s001E_....
09E0: 7F F8 FF FF 7F 73 30 30  32 01 80 79 00 AB 00 10  .....s002..y....
09F0: 01 CB 00 10 01 29 08 C0  00 10 01 21 6E C0 00 10  .....).....!n...
0A00: 01 43 80 99 C0 00 10 01  29 08 AB 00 10 01 1E 29  .C......)......)
0A10: 08 AB 00 10 01 23 79 00  AB 00 10 01 CC 00 10 01  .....#y.........
0A20: 29 08 CC 00 10 01 1B 29  08 CB 00 10 01 1A 52 5F  )......)......R_
0A30: 80 F8 FF FF 7F F8 FF FF  7F 73 30 30 32 45 5F 80  .........s002E_.
0A40: F8 FF FF 7F F8 FF FF 7F  73 30 30 33 01 80 5C 00  ........s003..\.
0A50: 60 80 5C 01 60 80 9A 5D  2A 80 03 80 79 00 F0 FF  `.\.`..]*...y...
0A60: FF 7F 4C 01 10 01 29 08  CB 00 10 01 1B 29 08 4C  ..L...)......).L
0A70: 01 10 01 1E 2B 4C 01 10  01 61 80 23 29 08 AB 00  ....+L...a.#)...
0A80: 10 01 24 29 08 CC 00 10  01 1C 29 08 CC 00 10 01  ..$)......).....
0A90: 1D 2A 08 F0 FF FF 7F 27  08 F0 FF FF 7F 75 52 5F  .*.....'.....uR_
0AA0: 80 F8 FF FF 7F F8 FF FF  7F 73 30 30 33 03 02 10  .........s003...
0AB0: 87 7F 02 02 10 62 80 00  CE 0A 45 5F 80 F8 FF FF  .....b....E_....
0AC0: 7F F8 FF FF 7F 73 30 31  35 01 80 01 FB 0A 02 02  .....s015.......
0AD0: 10 1D 80 00 EA 0A 45 5F  80 F8 FF FF 7F F8 FF FF  ......E_........
0AE0: 7F 73 30 31 35 01 80 01  FB 0A 45 5F 80 F8 FF FF  .s015.....E_....
0AF0: 7F F8 FF FF 7F 73 30 30  34 01 80 06 02 00 06 00  .....s004.......
0B00: 00 06 01 00 24 63 80 01  80 01 80 25 02 00 10 01  ....$c.....%....
0B10: 80 00 2A 0B 02 02 00 01  80 00 27 0B 2A 08 F0 FF  ..*.......'.*...
0B20: FF 7F 03 02 00 03 80 01  EF 10 02 00 10 03 80 00  ................
0B30: EF 10 02 00 00 43 80 04  45 0D 02 02 00 01 80 00  .....C..E.......
0B40: 4D 0B 2A 08 F0 FF FF 7F  03 02 00 03 80 02 02 10  M.*.............
0B50: 62 80 00 76 0B 52 5F 80  F8 FF FF 7F F8 FF FF 7F  b..v.R_.........
0B60: 73 30 31 35 52 5F 80 F8  FF FF 7F F8 FF FF 7F 73  s015R_.........s
0B70: 30 31 36 01 BD 0B 02 02  10 1D 80 00 9F 0B 52 5F  016...........R_
0B80: 80 F8 FF FF 7F F8 FF FF  7F 73 30 31 35 52 5F 80  .........s015R_.
0B90: F8 FF FF 7F F8 FF FF 7F  73 30 31 36 01 BD 0B 52  ........s016...R
0BA0: 5F 80 F8 FF FF 7F F8 FF  FF 7F 73 30 30 34 52 5F  _.........s004R_
0BB0: 80 F8 FF FF 7F F8 FF FF  7F 73 30 31 30 45 5F 80  .........s010E_.
0BC0: F8 FF FF 7F F8 FF FF 7F  73 30 31 33 01 80 4E 01  ........s013..N.
0BD0: AB 00 10 01 79 00 CC 00  10 01 CB 00 10 01 29 08  ....y.........).
0BE0: CC 00 10 01 1F 2B 4C 01  10 01 64 80 1C 17 80 4A  .....+L...d....J
0BF0: CB 00 10 01 CC 00 10 01  6F 76 CB 00 10 01 6E CB  ........ov....n.
0C00: 00 10 01 65 80 99 CB 00  10 01 1C 17 80 29 08 CC  ...e.........)..
0C10: 00 10 01 20 23 29 08 CC  00 10 01 21 45 5F 80 F0  ... #).....!E_..
0C20: FF FF 7F F0 FF FF 7F 70  68 6F 31 01 80 55 5F 80  .......pho1..U_.
0C30: F0 FF FF 7F F0 FF FF 7F  70 68 6F 31 52 5F 80 F8  ........pho1R_..
0C40: FF FF 7F F8 FF FF 7F 73  30 31 33 BB 66 80 F8 FF  .......s013.f...
0C50: FF 7F F8 FF FF 7F 73 65  66 30 01 80 45 5F 80 F0  ......sef0..E_..
0C60: FF FF 7F F0 FF FF 7F 70  69 6E 6B 01 80 2B 4C 01  .......pink..+L.
0C70: 10 01 67 80 1C 68 80 6E  4C 01 10 01 69 80 99 4C  ..g..h.nL...i..L
0C80: 01 10 01 45 5F 80 F0 FF  FF 7F F0 FF FF 7F 77 68  ...E_.........wh
0C90: 69 31 01 80 45 5F 80 F8  FF FF 7F F8 FF FF 7F 73  i1..E_.........s
0CA0: 30 31 34 01 80 BB 66 80  F8 FF FF 7F F8 FF FF 7F  014...f.........
0CB0: 6B 69 6C 73 01 80 4E 00  AB 00 10 01 1C 17 80 55  kils..N........U
0CC0: 5F 80 F0 FF FF 7F F0 FF  FF 7F 77 68 69 31 1C 17  _.........whi1..
0CD0: 80 2B 4C 01 10 01 6A 80  1C 06 80 29 08 4C 01 10  .+L...j....).L..
0CE0: 01 1E 29 08 4C 01 10 01  1F 23 52 5F 80 F8 FF FF  ..).L....#R_....
0CF0: 7F F8 FF FF 7F 73 30 31  34 02 02 10 62 80 00 15  .....s014...b...
0D00: 0D 45 5F 80 F8 FF FF 7F  F8 FF FF 7F 73 30 31 36  .E_.........s016
0D10: 01 80 01 42 0D 02 02 10  1D 80 00 31 0D 45 5F 80  ...B.......1.E_.
0D20: F8 FF FF 7F F8 FF FF 7F  73 30 31 36 01 80 01 42  ........s016...B
0D30: 0D 45 5F 80 F8 FF FF 7F  F8 FF FF 7F 73 30 31 30  .E_.........s010
0D40: 01 80 01 EC 10 02 01 00  01 80 00 34 0F 05 01 00  ...........4....
0D50: 0B 00 00 02 02 00 01 80  00 66 0D 2A 08 F0 FF FF  .........f.*....
0D60: 7F 03 02 00 03 80 02 02  10 62 80 00 8F 0D 52 5F  .........b....R_
0D70: 80 F8 FF FF 7F F8 FF FF  7F 73 30 31 35 52 5F 80  .........s015R_.
0D80: F8 FF FF 7F F8 FF FF 7F  73 30 31 36 01 D6 0D 02  ........s016....
0D90: 02 10 1D 80 00 B8 0D 52  5F 80 F8 FF FF 7F F8 FF  .......R_.......
0DA0: FF 7F 73 30 31 35 52 5F  80 F8 FF FF 7F F8 FF FF  ..s015R_........
0DB0: 7F 73 30 31 36 01 D6 0D  52 5F 80 F8 FF FF 7F F8  .s016...R_......
0DC0: FF FF 7F 73 30 30 34 52  5F 80 F8 FF FF 7F F8 FF  ...s004R_.......
0DD0: FF 7F 73 30 31 30 45 5F  80 F8 FF FF 7F F8 FF FF  ..s010E_........
0DE0: 7F 73 30 30 35 01 80 29  08 CB 00 10 01 1C 79 00  .s005..)......y.
0DF0: F0 FF FF 7F CB 00 10 01  29 08 4C 01 10 01 20 2B  ........).L... +
0E00: 4C 01 10 01 6B 80 6E CB  00 10 01 43 80 99 CB 00  L...k.n....C....
0E10: 10 01 6E C0 00 10 01 43  80 99 C0 00 10 01 29 08  ..n....C......).
0E20: CC 00 10 01 1E 6E CC 00  10 01 16 80 99 CC 00 10  .....n..........
0E30: 01 1C 06 80 29 08 AB 00  10 01 1B 1C 06 80 6E CC  ....).........n.
0E40: 00 10 01 43 80 99 CC 00  10 01 6E C0 00 10 01 43  ...C......n....C
0E50: 80 99 C0 00 10 01 29 08  4C 01 10 01 21 23 52 5F  ......).L...!#R_
0E60: 80 F8 FF FF 7F F8 FF FF  7F 73 30 30 35 45 5F 80  .........s005E_.
0E70: F8 FF FF 7F F8 FF FF 7F  73 30 30 36 01 80 79 00  ........s006..y.
0E80: F0 FF FF 7F 4C 01 10 01  29 08 4C 01 10 01 2A 1C  ....L...).L...*.
0E90: 6C 80 52 5F 80 F8 FF FF  7F F8 FF FF 7F 73 30 30  l.R_.........s00
0EA0: 36 45 5F 80 F8 FF FF 7F  F8 FF FF 7F 73 30 31 31  6E_.........s011
0EB0: 01 80 29 08 AB 00 10 01  1C 29 08 AB 00 10 01 1D  ..)......)......
0EC0: 29 08 4C 01 10 01 2B 2B  4C 01 10 01 6D 80 23 29  ).L...++L...m.#)
0ED0: 08 AB 00 10 01 1E 52 5F  80 F8 FF FF 7F F8 FF FF  ......R_........
0EE0: 7F 73 30 31 31 02 02 10  62 80 00 01 0F 45 5F 80  .s011...b....E_.
0EF0: F8 FF FF 7F F8 FF FF 7F  73 30 31 36 01 80 01 2E  ........s016....
0F00: 0F 02 02 10 1D 80 00 1D  0F 45 5F 80 F8 FF FF 7F  .........E_.....
0F10: F8 FF FF 7F 73 30 31 36  01 80 01 2E 0F 45 5F 80  ....s016.....E_.
0F20: F8 FF FF 7F F8 FF FF 7F  73 30 31 30 01 80 01 04  ........s010....
0F30: 0B 01 EC 10 06 01 00 0B  00 00 02 02 00 01 80 00  ................
0F40: 4D 0F 2A 08 F0 FF FF 7F  03 02 00 03 80 02 02 10  M.*.............
0F50: 62 80 00 76 0F 52 5F 80  F8 FF FF 7F F8 FF FF 7F  b..v.R_.........
0F60: 73 30 31 35 52 5F 80 F8  FF FF 7F F8 FF FF 7F 73  s015R_.........s
0F70: 30 31 36 01 BD 0F 02 02  10 1D 80 00 9F 0F 52 5F  016...........R_
0F80: 80 F8 FF FF 7F F8 FF FF  7F 73 30 31 35 52 5F 80  .........s015R_.
0F90: F8 FF FF 7F F8 FF FF 7F  73 30 31 36 01 BD 0F 52  ........s016...R
0FA0: 5F 80 F8 FF FF 7F F8 FF  FF 7F 73 30 30 34 52 5F  _.........s004R_
0FB0: 80 F8 FF FF 7F F8 FF FF  7F 73 30 31 30 45 5F 80  .........s010E_.
0FC0: F8 FF FF 7F F8 FF FF 7F  73 30 30 37 01 80 7B 4C  ........s007..{L
0FD0: 01 10 01 29 08 AB 00 10  01 23 29 08 4C 01 10 01  ...).....#).L...
0FE0: 1E 2B 4C 01 10 01 6E 80  79 00 AB 00 10 01 C0 00  .+L...n.y.......
0FF0: 10 01 6E CC 00 10 01 1D  80 99 CC 00 10 01 6E C0  ..n...........n.
1000: 00 10 01 69 80 99 C0 00  10 01 1C 17 80 29 08 4C  ...i.........).L
1010: 01 10 01 1F 29 08 4C 01  10 01 20 29 08 4C 01 10  ....).L... ).L..
1020: 01 21 23 52 5F 80 F8 FF  FF 7F F8 FF FF 7F 73 30  .!#R_.........s0
1030: 30 37 45 5F 80 F8 FF FF  7F F8 FF FF 7F 73 30 30  07E_.........s00
1040: 36 01 80 29 08 4C 01 10  01 22 1C 6C 80 52 5F 80  6..).L...".l.R_.
1050: F8 FF FF 7F F8 FF FF 7F  73 30 30 36 45 5F 80 F8  ........s006E_..
1060: FF FF 7F F8 FF FF 7F 73  30 31 31 01 80 2B 4C 01  .......s011..+L.
1070: 10 01 6F 80 23 29 08 4C  01 10 01 23 29 08 4C 01  ..o.#).L...#).L.
1080: 10 01 24 29 08 AB 00 10  01 24 29 08 4C 01 10 01  ..$).....$).L...
1090: 25 52 5F 80 F8 FF FF 7F  F8 FF FF 7F 73 30 31 31  %R_.........s011
10A0: 02 02 10 62 80 00 BC 10  45 5F 80 F8 FF FF 7F F8  ...b....E_......
10B0: FF FF 7F 73 30 31 36 01  80 01 E9 10 02 02 10 1D  ...s016.........
10C0: 80 00 D8 10 45 5F 80 F8  FF FF 7F F8 FF FF 7F 73  ....E_.........s
10D0: 30 31 36 01 80 01 E9 10  45 5F 80 F8 FF FF 7F F8  016.....E_......
10E0: FF FF 7F 73 30 31 30 01  80 01 04 0B 01 EF 10 5D  ...s010........]
10F0: 01 80 00 80 6E F0 FF FF  7F 70 80 99 F0 FF FF 7F  ....n....p......
1100: 29 08 4C 01 10 01 20 1C  06 80 29 08 4C 01 10 01  ).L... ...).L...
1110: 21 4A 4C 01 10 01 F0 FF  FF 7F 6F 76 4C 01 10 01  !JL.......ovL...
1120: 45 5F 80 F8 FF FF 7F F8  FF FF 7F 73 30 30 38 01  E_.........s008.
1130: 80 29 08 4C 01 10 01 16  2B 4C 01 10 01 71 80 1C  .).L....+L...q..
1140: 17 80 23 29 08 4C 01 10  01 17 52 5F 80 F8 FF FF  ..#).L....R_....
1150: 7F F8 FF FF 7F 73 30 30  38 02 02 10 62 80 00 75  .....s008...b..u
1160: 11 45 5F 80 F8 FF FF 7F  F8 FF FF 7F 73 30 31 37  .E_.........s017
1170: 01 80 01 A2 11 02 02 10  1D 80 00 91 11 45 5F 80  .............E_.
1180: F8 FF FF 7F F8 FF FF 7F  73 30 31 37 01 80 01 A2  ........s017....
1190: 11 45 5F 80 F8 FF FF 7F  F8 FF FF 7F 73 30 30 39  .E_.........s009
11A0: 01 80 27 08 4C 01 10 01  02 2B 4C 01 10 01 72 80  ..'.L....+L...r.
11B0: 23 2A 08 4C 01 10 01 29  08 F0 FF FF 7F 09 1C 73  #*.L...).......s
11C0: 80 02 02 10 62 80 00 DB  11 52 5F 80 F8 FF FF 7F  ....b....R_.....
11D0: F8 FF FF 7F 73 30 31 37  01 04 12 02 02 10 1D 80  ....s017........
11E0: 00 F5 11 52 5F 80 F8 FF  FF 7F F8 FF FF 7F 73 30  ...R_.........s0
11F0: 31 37 01 04 12 52 5F 80  F8 FF FF 7F F8 FF FF 7F  17...R_.........
1200: 73 30 30 39 02 02 10 62  80 00 20 12 45 5F 80 F8  s009...b.. .E_..
1210: FF FF 7F F8 FF FF 7F 73  30 31 38 01 80 01 4D 12  .......s018...M.
1220: 02 02 10 1D 80 00 3C 12  45 5F 80 F8 FF FF 7F F8  ......<.E_......
1230: FF FF 7F 73 30 31 38 01  80 01 4D 12 45 5F 80 F8  ...s018...M.E_..
1240: FF FF 7F F8 FF FF 7F 73  30 31 32 01 80 1C 44 80  .......s012...D.
1250: 29 08 F0 FF FF 7F 0A 7B  4C 01 10 01 29 08 4C 01  )......{L...).L.
1260: 10 01 10 29 08 4C 01 10  01 11 2B 4C 01 10 01 74  ...).L....+L...t
1270: 80 23 29 08 4C 01 10 01  12 79 00 4C 01 10 01 F0  .#).L....y.L....
1280: FF FF 7F 2B 4C 01 10 01  75 80 23 29 08 4C 01 10  ...+L...u.#).L..
1290: 01 13 02 02 10 62 80 00  AC 12 52 5F 80 F8 FF FF  .....b....R_....
12A0: 7F F8 FF FF 7F 73 30 31  38 01 D5 12 02 02 10 1D  .....s018.......
12B0: 80 00 C6 12 52 5F 80 F8  FF FF 7F F8 FF FF 7F 73  ....R_.........s
12C0: 30 31 38 01 D5 12 52 5F  80 F8 FF FF 7F F8 FF FF  018...R_........
12D0: 7F 73 30 31 32 45 5F 80  F8 FF FF 7F F8 FF FF 7F  .s012E_.........
12E0: 73 30 31 39 01 80 27 08  4C 01 10 01 03 1C 76 80  s019..'.L.....v.
12F0: 62 77 80 4D 01 10 01 4D  01 10 01 6D 61 69 6E 77  bw.M...M...mainw
1300: 80 1C 73 80 4A F0 FF FF  7F 4D 01 10 01 1C 78 80  ..s.J....M....x.
1310: 45 00 80 F0 FF FF 7F F0  FF FF 7F 66 64 6F 31 01  E..........fdo1.
1320: 80 55 00 80 F0 FF FF 7F  F0 FF FF 7F 66 64 6F 31  .U..........fdo1
1330: 52 29 80 F8 FF FF 7F F8  FF FF 7F 73 30 36 30 5C  R).........s060\
1340: 00 79 80 5C 01 79 80 9A  5D 2A 80 03 80 1C 0E 80  .y.\.y..]*......
1350: AB 11 01 80 1C 03 80 AB  0A 46 00 45 00 80 F0 FF  .........F.E....
1360: FF 7F F0 FF FF 7F 66 64  69 32 01 80 21 00        ......fdi2..!.  
```

#### Opcodes

```
  0: 0x079A [0x42] SET_CLI_EVENT_CANCEL_DATA()
  1: 0x079B [0x5D] SET_MUSIC_VOLUME(volume=0*, fade_time=200*)
  2: 0x07A0 [0x45] LOAD_SCHEDULED_TASK: Load scheduler "fdo1" with entities [LocalPlayer, LocalPlayer], work=[200*, 0*]
  3: 0x07B1 [0x55] WAIT_LOAD_SCHEDULER: Wait for scheduler "fdo1" with entities [LocalPlayer, LocalPlayer], work=200*
  4: 0x07C0 [0x46] CAMERA_CONTROL: Disable user control
  5: 0x07C2 [0x38] SET_CLIENT_EVENT_MODE(mode=27*)
  6: 0x07C5 [0x4E] SET_ENTITY_HIDE_FLAG: Show LocalPlayer
  7: 0x07CB [0x4E] SET_ENTITY_HIDE_FLAG: Show Palomel (ID: 17826124/0x0110014C)
  8: 0x07D1 [0x4E] SET_ENTITY_HIDE_FLAG: Show Svenja (ID: 17825963/0x011000AB)
  9: 0x07D7 [0x4E] SET_ENTITY_HIDE_FLAG: Show Ari-Barali (ID: 17825984/0x011000C0)
 10: 0x07DD [0x4E] SET_ENTITY_HIDE_FLAG: Show Aristide (ID: 17825995/0x011000CB)
 11: 0x07E3 [0x4E] SET_ENTITY_HIDE_FLAG: Show Unnamed NPC (ID: 17825996/0x011000CC)
 12: 0x07E9 [0x4E] SET_ENTITY_HIDE_FLAG: Show Unnamed NPC (ID: 17826125/0x0110014D)
 13: 0x07EF [0x2F] Palomel (ID: 17826124/0x0110014C)->Render.Flags0 &= ~0x80000 // Bit 19
 14: 0x07F5 [0x2F] Svenja (ID: 17825963/0x011000AB)->Render.Flags0 &= ~0x80000 // Bit 19
 15: 0x07FB [0x2F] Ari-Barali (ID: 17825984/0x011000C0)->Render.Flags0 &= ~0x80000 // Bit 19
 16: 0x0801 [0x2F] Aristide (ID: 17825995/0x011000CB)->Render.Flags0 &= ~0x80000 // Bit 19
 17: 0x0807 [0x2F] Unnamed NPC (ID: 17825996/0x011000CC)->Render.Flags0 &= ~0x80000 // Bit 19
 18: 0x080D [0x2F] Unnamed NPC (ID: 17826125/0x0110014D)->Render.Flags0 &= ~0x80000 // Bit 19
 19: 0x0813 [0x92] Palomel (ID: 17826124/0x0110014C)->Render.Flags3 ^= 0x01
 20: 0x0819 [0x92] Svenja (ID: 17825963/0x011000AB)->Render.Flags3 ^= 0x01
 21: 0x081F [0x92] Ari-Barali (ID: 17825984/0x011000C0)->Render.Flags3 ^= 0x01
 22: 0x0825 [0x92] Aristide (ID: 17825995/0x011000CB)->Render.Flags3 ^= 0x01
 23: 0x082B [0x92] Unnamed NPC (ID: 17825996/0x011000CC)->Render.Flags3 ^= 0x01
 24: 0x0831 [0x92] Unnamed NPC (ID: 17826125/0x0110014D)->Render.Flags3 ^= 0x01
 25: 0x0837 [0x92] Grevan (ID: 17826069/0x01100115)->Render.Flags3 ^= 0x01
 26: 0x083D [0x92] Virsaint (ID: 17826068/0x01100114)->Render.Flags3 ^= 0x01
 27: 0x0843 [0x92] Debadle-Levadle (ID: 17825913/0x01100079)->Render.Flags3 ^= 0x01
 28: 0x0849 [0x94] Palomel (ID: 17826124/0x0110014C)->Render.Flags3 ^= 0x01
 29: 0x084F [0x94] Svenja (ID: 17825963/0x011000AB)->Render.Flags3 ^= 0x01
 30: 0x0855 [0x94] Ari-Barali (ID: 17825984/0x011000C0)->Render.Flags3 ^= 0x01
 31: 0x085B [0x94] Aristide (ID: 17825995/0x011000CB)->Render.Flags3 ^= 0x01
 32: 0x0861 [0x94] Unnamed NPC (ID: 17825996/0x011000CC)->Render.Flags3 ^= 0x01
 33: 0x0867 [0x94] Unnamed NPC (ID: 17826125/0x0110014D)->Render.Flags3 ^= 0x01
 34: 0x086D [0x94] LocalPlayer->Render.Flags3 ^= 0x01
 35: 0x0873 [0xBA] SET_ENTITY_POSITION(entity_id=Palomel (ID: 17826124/0x0110014C), pos_x=31.435*, pos_z=-7.743*, pos_y=-0.359*, direction=283.2°*)
 36: 0x0880 [0xBA] SET_ENTITY_POSITION(entity_id=Svenja (ID: 17825963/0x011000AB), pos_x=41.822*, pos_z=0.358*, pos_y=0.000*, direction=52.7°*)
 37: 0x088D [0xBA] SET_ENTITY_POSITION(entity_id=Ari-Barali (ID: 17825984/0x011000C0), pos_x=43.205*, pos_z=0.385*, pos_y=0.000*, direction=331.2°*)
 38: 0x089A [0xBA] SET_ENTITY_POSITION(entity_id=Aristide (ID: 17825995/0x011000CB), pos_x=41.769*, pos_z=-0.940*, pos_y=0.000*, direction=334.2°*)
 39: 0x08A7 [0xBA] SET_ENTITY_POSITION(entity_id=Unnamed NPC (ID: 17825996/0x011000CC), pos_x=43.099*, pos_z=-0.693*, pos_y=0.000*, direction=334.2°*)
 40: 0x08B4 [0xBA] SET_ENTITY_POSITION(entity_id=Unnamed NPC (ID: 17826125/0x0110014D), pos_x=30.592*, pos_z=-8.621*, pos_y=-0.359*, direction=227.7°*)
 41: 0x08C1 [0xBA] SET_ENTITY_POSITION(entity_id=LocalPlayer, pos_x=12.193*, pos_z=-21.629*, pos_y=0.999*, direction=334.2°*)
 42: 0x08CE [0x29] REQ_SET_WAIT(priority=0x08, entity_id=LocalPlayer, tag_num=0x04)
 43: 0x08D5 [0x80] LOAD_WAIT(entity=Palomel (ID: 17826124/0x0110014C))
 44: 0x08DA [0x80] LOAD_WAIT(entity=Svenja (ID: 17825963/0x011000AB))
 45: 0x08DF [0x80] LOAD_WAIT(entity=Ari-Barali (ID: 17825984/0x011000C0))
 46: 0x08E4 [0x80] LOAD_WAIT(entity=Aristide (ID: 17825995/0x011000CB))
 47: 0x08E9 [0x80] LOAD_WAIT(entity=Unnamed NPC (ID: 17825996/0x011000CC))
 48: 0x08EE [0x80] LOAD_WAIT(entity=LocalPlayer)
 49: 0x08F3 [0x4A] Aristide (ID: 17825995/0x011000CB) looks at Svenja (ID: 17825963/0x011000AB)
 50: 0x08FC [0x4A] Unnamed NPC (ID: 17825996/0x011000CC) looks at Svenja (ID: 17825963/0x011000AB)
 51: 0x0905 [0x4A] Ari-Barali (ID: 17825984/0x011000C0) looks at Svenja (ID: 17825963/0x011000AB)
 52: 0x090E [0x6F] WAIT_FRAME_DELAY: Yield until WaitTime reaches zero
 53: 0x090F [0x76] CHECK_ENTITY_RENDER_FLAGS: Wait until Aristide (ID: 17825995/0x011000CB) Render.Flags0 and Render.Flags3 conditions are met
 54: 0x0914 [0x6F] WAIT_FRAME_DELAY: Yield until WaitTime reaches zero
 55: 0x0915 [0x76] CHECK_ENTITY_RENDER_FLAGS: Wait until Unnamed NPC (ID: 17825996/0x011000CC) Render.Flags0 and Render.Flags3 conditions are met
 56: 0x091A [0x6F] WAIT_FRAME_DELAY: Yield until WaitTime reaches zero
 57: 0x091B [0x76] CHECK_ENTITY_RENDER_FLAGS: Wait until Ari-Barali (ID: 17825984/0x011000C0) Render.Flags0 and Render.Flags3 conditions are met
 58: 0x0920 [0x79] Svenja (ID: 17825963/0x011000AB) looks at Aristide (ID: 17825995/0x011000CB) (Basic look)
 59: 0x092A [0x27] REQ_SET(priority=0x08, entity_id=Virsaint (ID: 17826068/0x01100114), tag_num=0x0A)
 60: 0x0931 [0x45] LOAD_SCHEDULED_TASK: Load scheduler "s000" with entities [EventEntity, EventEntity], work=[687*, 0*]
 61: 0x0942 [0x1C] WAIT(15* ticks)
 62: 0x0945 [0x45] LOAD_SCHEDULED_TASK: Load scheduler "fdi1" with entities [LocalPlayer, LocalPlayer], work=[200*, 0*]
 63: 0x0956 [0x1C] WAIT(50* ticks)
 64: 0x0959 [0x29] REQ_SET_WAIT(priority=0x08, entity_id=LocalPlayer, tag_num=0x05)
 65: 0x0960 [0x29] REQ_SET_WAIT(priority=0x08, entity_id=Svenja (ID: 17825963/0x011000AB), tag_num=0x1B)
 66: 0x0967 [0x79] LocalPlayer looks at Svenja (ID: 17825963/0x011000AB) (Basic look)
 67: 0x0971 [0x79] Svenja (ID: 17825963/0x011000AB) looks at Unnamed NPC (ID: 17825996/0x011000CC) (Basic look)
 68: 0x097B [0x27] REQ_SET(priority=0x08, entity_id=LocalPlayer, tag_num=0x74)
 69: 0x0982 [0x1C] WAIT(60* ticks)
 70: 0x0985 [0x52] END_LOAD_SCHEDULER: End scheduler "s000" with entities [EventEntity, EventEntity], work=687*
 71: 0x0994 [0x45] LOAD_SCHEDULED_TASK: Load scheduler "s001" with entities [EventEntity, EventEntity], work=[687*, 0*]
 72: 0x09A5 [0x79] Svenja (ID: 17825963/0x011000AB) looks at Ari-Barali (ID: 17825984/0x011000C0) (Basic look)
 73: 0x09AF [0x29] REQ_SET_WAIT(priority=0x08, entity_id=Ari-Barali (ID: 17825984/0x011000C0), tag_num=0x20)
 74: 0x09B6 [0x29] REQ_SET_WAIT(priority=0x08, entity_id=Aristide (ID: 17825995/0x011000CB), tag_num=0x19)
 75: 0x09BD [0x29] REQ_SET_WAIT(priority=0x08, entity_id=Svenja (ID: 17825963/0x011000AB), tag_num=0x1C)
 76: 0x09C4 [0x29] REQ_SET_WAIT(priority=0x08, entity_id=Svenja (ID: 17825963/0x011000AB), tag_num=0x1D)
 77: 0x09CB [0x52] END_LOAD_SCHEDULER: End scheduler "s001" with entities [EventEntity, EventEntity], work=687*
 78: 0x09DA [0x45] LOAD_SCHEDULED_TASK: Load scheduler "s002" with entities [EventEntity, EventEntity], work=[687*, 0*]
 79: 0x09EB [0x79] Svenja (ID: 17825963/0x011000AB) looks at Aristide (ID: 17825995/0x011000CB) (Basic look)
 80: 0x09F5 [0x29] REQ_SET_WAIT(priority=0x08, entity_id=Ari-Barali (ID: 17825984/0x011000C0), tag_num=0x21)
 81: 0x09FC [0x6E] Ari-Barali (ID: 17825984/0x011000C0) uses emote 4*
 82: 0x0A03 [0x99] Wait for Ari-Barali (ID: 17825984/0x011000C0) animation to complete
 83: 0x0A08 [0x29] REQ_SET_WAIT(priority=0x08, entity_id=Svenja (ID: 17825963/0x011000AB), tag_num=0x1E)
 84: 0x0A0F [0x29] REQ_SET_WAIT(priority=0x08, entity_id=Svenja (ID: 17825963/0x011000AB), tag_num=0x23)
 85: 0x0A16 [0x79] Svenja (ID: 17825963/0x011000AB) looks at Unnamed NPC (ID: 17825996/0x011000CC) (Basic look)
 86: 0x0A20 [0x29] REQ_SET_WAIT(priority=0x08, entity_id=Unnamed NPC (ID: 17825996/0x011000CC), tag_num=0x1B)
 87: 0x0A27 [0x29] REQ_SET_WAIT(priority=0x08, entity_id=Aristide (ID: 17825995/0x011000CB), tag_num=0x1A)
 88: 0x0A2E [0x52] END_LOAD_SCHEDULER: End scheduler "s002" with entities [EventEntity, EventEntity], work=687*
 89: 0x0A3D [0x45] LOAD_SCHEDULED_TASK: Load scheduler "s003" with entities [EventEntity, EventEntity], work=[687*, 0*]
 90: 0x0A4E [0x5C] MUSIC_CONTROL: Set Idle (Day) music to song 163*
 91: 0x0A52 [0x5C] MUSIC_CONTROL: Set Idle (Night) music to song 163*
 92: 0x0A56 [0x9A] WAIT_MUSIC_SERVER()
 93: 0x0A57 [0x5D] SET_MUSIC_VOLUME(volume=127*, fade_time=1*)
 94: 0x0A5C [0x79] LocalPlayer looks at Palomel (ID: 17826124/0x0110014C) (Basic look)
 95: 0x0A66 [0x29] REQ_SET_WAIT(priority=0x08, entity_id=Aristide (ID: 17825995/0x011000CB), tag_num=0x1B)
 96: 0x0A6D [0x29] REQ_SET_WAIT(priority=0x08, entity_id=Palomel (ID: 17826124/0x0110014C), tag_num=0x1E)
 97: 0x0A74 [0x2B] Palomel (ID: 17826124/0x0110014C) [11671*]:
    → "I bet Svenja's been a "mistress" to more men than there are bricks in Jorius Yett! She corrupts every man she meets."
 98: 0x0A7B [0x23] WAIT_FOR_DIALOG_INTERACTION
 99: 0x0A7C [0x29] REQ_SET_WAIT(priority=0x08, entity_id=Svenja (ID: 17825963/0x011000AB), tag_num=0x24)
100: 0x0A83 [0x29] REQ_SET_WAIT(priority=0x08, entity_id=Unnamed NPC (ID: 17825996/0x011000CC), tag_num=0x1C)
101: 0x0A8A [0x29] REQ_SET_WAIT(priority=0x08, entity_id=Unnamed NPC (ID: 17825996/0x011000CC), tag_num=0x1D)
102: 0x0A91 [0x2A] GET_REQ_LEVEL(level=8, entity_id=LocalPlayer)
103: 0x0A97 [0x27] REQ_SET(priority=0x08, entity_id=LocalPlayer, tag_num=0x75)
104: 0x0A9E [0x52] END_LOAD_SCHEDULER: End scheduler "s003" with entities [EventEntity, EventEntity], work=687*
105: 0x0AAD [0x03] Work_Zone[2] = LocalPlayer->Race
106: 0x0AB2 [0x02] IF !(Work_Zone[2] == 5*) GOTO 0x0ACE
107: 0x0ABA [0x45] LOAD_SCHEDULED_TASK: Load scheduler "s015" with entities [EventEntity, EventEntity], work=[687*, 0*]
108: 0x0ACB [0x01] GOTO 0x0AFB
109: 0x0ACE [0x02] IF !(Work_Zone[2] == 6*) GOTO 0x0AEA
110: 0x0AD6 [0x45] LOAD_SCHEDULED_TASK: Load scheduler "s015" with entities [EventEntity, EventEntity], work=[687*, 0*]
111: 0x0AE7 [0x01] GOTO 0x0AFB
112: 0x0AEA [0x45] LOAD_SCHEDULED_TASK: Load scheduler "s004" with entities [EventEntity, EventEntity], work=[687*, 0*]

SUBROUTINE_0AFB:
113: 0x0AFB [0x06] ExtData[1]->WorkLocal[2] = 0
114: 0x0AFE [0x06] ExtData[1]->WorkLocal[0] = 0
115: 0x0B01 [0x06] ExtData[1]->WorkLocal[1] = 0

SUBROUTINE_0B04:
116: 0x0B04 [0x24] CREATE_DIALOG(message_id=11672*, default_option=0*, option_flags=0*)
    → "What will you do? [Start a conversation with her./Stand back and watch the show.]"
117: 0x0B0B [0x25] WAIT_DIALOG_SELECT()
118: 0x0B0C [0x02] IF !(Work_Zone[0] == 0*) GOTO 0x0B2A
119: 0x0B14 [0x02] IF !(ExtData[1]->WorkLocal[2] == 0*) GOTO 0x0B27
120: 0x0B1C [0x2A] GET_REQ_LEVEL(level=8, entity_id=LocalPlayer)
121: 0x0B22 [0x03] ExtData[1]->WorkLocal[2] = 1*
122: 0x0B27 [0x01] GOTO 0x10EF
123: 0x0B2A [0x02] IF !(Work_Zone[0] == 1*) GOTO 0x10EF
124: 0x0B32 [0x02] IF !(ExtData[1]->WorkLocal[0] < 4*) GOTO 0x0D45
125: 0x0B3A [0x02] IF !(ExtData[1]->WorkLocal[2] == 0*) GOTO 0x0B4D
126: 0x0B42 [0x2A] GET_REQ_LEVEL(level=8, entity_id=LocalPlayer)
127: 0x0B48 [0x03] ExtData[1]->WorkLocal[2] = 1*
128: 0x0B4D [0x02] IF !(Work_Zone[2] == 5*) GOTO 0x0B76
129: 0x0B55 [0x52] END_LOAD_SCHEDULER: End scheduler "s015" with entities [EventEntity, EventEntity], work=687*
130: 0x0B64 [0x52] END_LOAD_SCHEDULER: End scheduler "s016" with entities [EventEntity, EventEntity], work=687*
131: 0x0B73 [0x01] GOTO 0x0BBD
132: 0x0B76 [0x02] IF !(Work_Zone[2] == 6*) GOTO 0x0B9F
133: 0x0B7E [0x52] END_LOAD_SCHEDULER: End scheduler "s015" with entities [EventEntity, EventEntity], work=687*
134: 0x0B8D [0x52] END_LOAD_SCHEDULER: End scheduler "s016" with entities [EventEntity, EventEntity], work=687*
135: 0x0B9C [0x01] GOTO 0x0BBD
136: 0x0B9F [0x52] END_LOAD_SCHEDULER: End scheduler "s004" with entities [EventEntity, EventEntity], work=687*
137: 0x0BAE [0x52] END_LOAD_SCHEDULER: End scheduler "s010" with entities [EventEntity, EventEntity], work=687*

SUBROUTINE_0BBD:
138: 0x0BBD [0x45] LOAD_SCHEDULED_TASK: Load scheduler "s013" with entities [EventEntity, EventEntity], work=[687*, 0*]
139: 0x0BCE [0x4E] SET_ENTITY_HIDE_FLAG: Hide Svenja (ID: 17825963/0x011000AB)
140: 0x0BD4 [0x79] Unnamed NPC (ID: 17825996/0x011000CC) looks at Aristide (ID: 17825995/0x011000CB) (Basic look)
141: 0x0BDE [0x29] REQ_SET_WAIT(priority=0x08, entity_id=Unnamed NPC (ID: 17825996/0x011000CC), tag_num=0x1F)
142: 0x0BE5 [0x2B] Palomel (ID: 17826124/0x0110014C) [11677*]:
    → "Men shouldn't c-concern themselves with immoral slatterns like her. They should strive to develop purer relationships with other men! Yes, start with the seed of an awkward conversation that sprouts up a deep friendship, then blossoms into something more..."
143: 0x0BEC [0x1C] WAIT(60* ticks)
144: 0x0BEF [0x4A] Aristide (ID: 17825995/0x011000CB) looks at Unnamed NPC (ID: 17825996/0x011000CC)
145: 0x0BF8 [0x6F] WAIT_FRAME_DELAY: Yield until WaitTime reaches zero
146: 0x0BF9 [0x76] CHECK_ENTITY_RENDER_FLAGS: Wait until Aristide (ID: 17825995/0x011000CB) Render.Flags0 and Render.Flags3 conditions are met
147: 0x0BFE [0x6E] Aristide (ID: 17825995/0x011000CB) uses emote 16*
148: 0x0C05 [0x99] Wait for Aristide (ID: 17825995/0x011000CB) animation to complete
149: 0x0C0A [0x1C] WAIT(60* ticks)
150: 0x0C0D [0x29] REQ_SET_WAIT(priority=0x08, entity_id=Unnamed NPC (ID: 17825996/0x011000CC), tag_num=0x20)
151: 0x0C14 [0x23] WAIT_FOR_DIALOG_INTERACTION
152: 0x0C15 [0x29] REQ_SET_WAIT(priority=0x08, entity_id=Unnamed NPC (ID: 17825996/0x011000CC), tag_num=0x21)
153: 0x0C1C [0x45] LOAD_SCHEDULED_TASK: Load scheduler "pho1" with entities [LocalPlayer, LocalPlayer], work=[687*, 0*]
154: 0x0C2D [0x55] WAIT_LOAD_SCHEDULER: Wait for scheduler "pho1" with entities [LocalPlayer, LocalPlayer], work=687*
155: 0x0C3C [0x52] END_LOAD_SCHEDULER: End scheduler "s013" with entities [EventEntity, EventEntity], work=687*
156: 0x0C4B [0xBB] LOAD_EVENT_SCHEDULER_ALT: Load scheduler "sef0" with entities [EventEntity, EventEntity], work=[206*, 0*]
157: 0x0C5C [0x45] LOAD_SCHEDULED_TASK: Load scheduler "pink" with entities [LocalPlayer, LocalPlayer], work=[687*, 0*]
158: 0x0C6D [0x2B] Palomel (ID: 17826124/0x0110014C) [11678*]:
    → "Yeees!"
159: 0x0C74 [0x1C] WAIT(145* ticks)
160: 0x0C77 [0x6E] Palomel (ID: 17826124/0x0110014C) uses emote 24*
161: 0x0C7E [0x99] Wait for Palomel (ID: 17826124/0x0110014C) animation to complete
162: 0x0C83 [0x45] LOAD_SCHEDULED_TASK: Load scheduler "whi1" with entities [LocalPlayer, LocalPlayer], work=[687*, 0*]
163: 0x0C94 [0x45] LOAD_SCHEDULED_TASK: Load scheduler "s014" with entities [EventEntity, EventEntity], work=[687*, 0*]
164: 0x0CA5 [0xBB] LOAD_EVENT_SCHEDULER_ALT: Load scheduler "kils" with entities [EventEntity, EventEntity], work=[206*, 0*]
165: 0x0CB6 [0x4E] SET_ENTITY_HIDE_FLAG: Show Svenja (ID: 17825963/0x011000AB)
166: 0x0CBC [0x1C] WAIT(60* ticks)
167: 0x0CBF [0x55] WAIT_LOAD_SCHEDULER: Wait for scheduler "whi1" with entities [LocalPlayer, LocalPlayer], work=687*
168: 0x0CCE [0x1C] WAIT(60* ticks)
169: 0x0CD1 [0x2B] Palomel (ID: 17826124/0x0110014C) [11679*]:
    → "<Pant> <heave> Perhaps Adoulin's future is bright after all."
170: 0x0CD8 [0x1C] WAIT(30* ticks)
171: 0x0CDB [0x29] REQ_SET_WAIT(priority=0x08, entity_id=Palomel (ID: 17826124/0x0110014C), tag_num=0x1E)
172: 0x0CE2 [0x29] REQ_SET_WAIT(priority=0x08, entity_id=Palomel (ID: 17826124/0x0110014C), tag_num=0x1F)
173: 0x0CE9 [0x23] WAIT_FOR_DIALOG_INTERACTION
174: 0x0CEA [0x52] END_LOAD_SCHEDULER: End scheduler "s014" with entities [EventEntity, EventEntity], work=687*
175: 0x0CF9 [0x02] IF !(Work_Zone[2] == 5*) GOTO 0x0D15
176: 0x0D01 [0x45] LOAD_SCHEDULED_TASK: Load scheduler "s016" with entities [EventEntity, EventEntity], work=[687*, 0*]
177: 0x0D12 [0x01] GOTO 0x0D42
178: 0x0D15 [0x02] IF !(Work_Zone[2] == 6*) GOTO 0x0D31
179: 0x0D1D [0x45] LOAD_SCHEDULED_TASK: Load scheduler "s016" with entities [EventEntity, EventEntity], work=[687*, 0*]
180: 0x0D2E [0x01] GOTO 0x0D42
181: 0x0D31 [0x45] LOAD_SCHEDULED_TASK: Load scheduler "s010" with entities [EventEntity, EventEntity], work=[687*, 0*]

SUBROUTINE_0D42:
182: 0x0D42 [0x01] GOTO 0x10EC
183: 0x0D45 [0x02] IF !(ExtData[1]->WorkLocal[1] == 0*) GOTO 0x0F34
184: 0x0D4D [0x05] ExtData[1]->WorkLocal[1] = 1
185: 0x0D50 [0x0B] ExtData[1]->WorkLocal[0]++
186: 0x0D53 [0x02] IF !(ExtData[1]->WorkLocal[2] == 0*) GOTO 0x0D66
187: 0x0D5B [0x2A] GET_REQ_LEVEL(level=8, entity_id=LocalPlayer)
188: 0x0D61 [0x03] ExtData[1]->WorkLocal[2] = 1*
189: 0x0D66 [0x02] IF !(Work_Zone[2] == 5*) GOTO 0x0D8F
190: 0x0D6E [0x52] END_LOAD_SCHEDULER: End scheduler "s015" with entities [EventEntity, EventEntity], work=687*
191: 0x0D7D [0x52] END_LOAD_SCHEDULER: End scheduler "s016" with entities [EventEntity, EventEntity], work=687*
192: 0x0D8C [0x01] GOTO 0x0DD6
193: 0x0D8F [0x02] IF !(Work_Zone[2] == 6*) GOTO 0x0DB8
194: 0x0D97 [0x52] END_LOAD_SCHEDULER: End scheduler "s015" with entities [EventEntity, EventEntity], work=687*
195: 0x0DA6 [0x52] END_LOAD_SCHEDULER: End scheduler "s016" with entities [EventEntity, EventEntity], work=687*
196: 0x0DB5 [0x01] GOTO 0x0DD6
197: 0x0DB8 [0x52] END_LOAD_SCHEDULER: End scheduler "s004" with entities [EventEntity, EventEntity], work=687*
198: 0x0DC7 [0x52] END_LOAD_SCHEDULER: End scheduler "s010" with entities [EventEntity, EventEntity], work=687*

SUBROUTINE_0DD6:
199: 0x0DD6 [0x45] LOAD_SCHEDULED_TASK: Load scheduler "s005" with entities [EventEntity, EventEntity], work=[687*, 0*]
200: 0x0DE7 [0x29] REQ_SET_WAIT(priority=0x08, entity_id=Aristide (ID: 17825995/0x011000CB), tag_num=0x1C)
201: 0x0DEE [0x79] LocalPlayer looks at Aristide (ID: 17825995/0x011000CB) (Basic look)
202: 0x0DF8 [0x29] REQ_SET_WAIT(priority=0x08, entity_id=Palomel (ID: 17826124/0x0110014C), tag_num=0x20)
203: 0x0DFF [0x2B] Palomel (ID: 17826124/0x0110014C) [11673*]:
    → "Grrr... How can you men go all dopey-faced for that harpy!?"
204: 0x0E06 [0x6E] Aristide (ID: 17825995/0x011000CB) uses emote 4*
205: 0x0E0D [0x99] Wait for Aristide (ID: 17825995/0x011000CB) animation to complete
206: 0x0E12 [0x6E] Ari-Barali (ID: 17825984/0x011000C0) uses emote 4*
207: 0x0E19 [0x99] Wait for Ari-Barali (ID: 17825984/0x011000C0) animation to complete
208: 0x0E1E [0x29] REQ_SET_WAIT(priority=0x08, entity_id=Unnamed NPC (ID: 17825996/0x011000CC), tag_num=0x1E)
209: 0x0E25 [0x6E] Unnamed NPC (ID: 17825996/0x011000CC) uses emote 7*
210: 0x0E2C [0x99] Wait for Unnamed NPC (ID: 17825996/0x011000CC) animation to complete
211: 0x0E31 [0x1C] WAIT(30* ticks)
212: 0x0E34 [0x29] REQ_SET_WAIT(priority=0x08, entity_id=Svenja (ID: 17825963/0x011000AB), tag_num=0x1B)
213: 0x0E3B [0x1C] WAIT(30* ticks)
214: 0x0E3E [0x6E] Unnamed NPC (ID: 17825996/0x011000CC) uses emote 4*
215: 0x0E45 [0x99] Wait for Unnamed NPC (ID: 17825996/0x011000CC) animation to complete
216: 0x0E4A [0x6E] Ari-Barali (ID: 17825984/0x011000C0) uses emote 4*
217: 0x0E51 [0x99] Wait for Ari-Barali (ID: 17825984/0x011000C0) animation to complete
218: 0x0E56 [0x29] REQ_SET_WAIT(priority=0x08, entity_id=Palomel (ID: 17826124/0x0110014C), tag_num=0x21)
219: 0x0E5D [0x23] WAIT_FOR_DIALOG_INTERACTION
220: 0x0E5E [0x52] END_LOAD_SCHEDULER: End scheduler "s005" with entities [EventEntity, EventEntity], work=687*
221: 0x0E6D [0x45] LOAD_SCHEDULED_TASK: Load scheduler "s006" with entities [EventEntity, EventEntity], work=[687*, 0*]
222: 0x0E7E [0x79] LocalPlayer looks at Palomel (ID: 17826124/0x0110014C) (Basic look)
223: 0x0E88 [0x29] REQ_SET_WAIT(priority=0x08, entity_id=Palomel (ID: 17826124/0x0110014C), tag_num=0x2A)
224: 0x0E8F [0x1C] WAIT(40* ticks)
225: 0x0E92 [0x52] END_LOAD_SCHEDULER: End scheduler "s006" with entities [EventEntity, EventEntity], work=687*
226: 0x0EA1 [0x45] LOAD_SCHEDULED_TASK: Load scheduler "s011" with entities [EventEntity, EventEntity], work=[687*, 0*]
227: 0x0EB2 [0x29] REQ_SET_WAIT(priority=0x08, entity_id=Svenja (ID: 17825963/0x011000AB), tag_num=0x1C)
228: 0x0EB9 [0x29] REQ_SET_WAIT(priority=0x08, entity_id=Svenja (ID: 17825963/0x011000AB), tag_num=0x1D)
229: 0x0EC0 [0x29] REQ_SET_WAIT(priority=0x08, entity_id=Palomel (ID: 17826124/0x0110014C), tag_num=0x2B)
230: 0x0EC7 [0x2B] Palomel (ID: 17826124/0x0110014C) [11674*]:
    → "Well, they won't be smiling when she spurns their affections next time they talk!"
231: 0x0ECE [0x23] WAIT_FOR_DIALOG_INTERACTION
232: 0x0ECF [0x29] REQ_SET_WAIT(priority=0x08, entity_id=Svenja (ID: 17825963/0x011000AB), tag_num=0x1E)
233: 0x0ED6 [0x52] END_LOAD_SCHEDULER: End scheduler "s011" with entities [EventEntity, EventEntity], work=687*
234: 0x0EE5 [0x02] IF !(Work_Zone[2] == 5*) GOTO 0x0F01
235: 0x0EED [0x45] LOAD_SCHEDULED_TASK: Load scheduler "s016" with entities [EventEntity, EventEntity], work=[687*, 0*]
236: 0x0EFE [0x01] GOTO 0x0F2E
237: 0x0F01 [0x02] IF !(Work_Zone[2] == 6*) GOTO 0x0F1D
238: 0x0F09 [0x45] LOAD_SCHEDULED_TASK: Load scheduler "s016" with entities [EventEntity, EventEntity], work=[687*, 0*]
239: 0x0F1A [0x01] GOTO 0x0F2E
240: 0x0F1D [0x45] LOAD_SCHEDULED_TASK: Load scheduler "s010" with entities [EventEntity, EventEntity], work=[687*, 0*]

SUBROUTINE_0F2E:
241: 0x0F2E [0x01] GOTO 0x0B04

SUBROUTINE_0FBD:
242: 0x0FBD [0x45] LOAD_SCHEDULED_TASK: Load scheduler "s007" with entities [EventEntity, EventEntity], work=[687*, 0*]
243: 0x0FCE [0x7B] Palomel (ID: 17826124/0x0110014C) stops talking
244: 0x0FD3 [0x29] REQ_SET_WAIT(priority=0x08, entity_id=Svenja (ID: 17825963/0x011000AB), tag_num=0x23)
245: 0x0FDA [0x29] REQ_SET_WAIT(priority=0x08, entity_id=Palomel (ID: 17826124/0x0110014C), tag_num=0x1E)
246: 0x0FE1 [0x2B] Palomel (ID: 17826124/0x0110014C) [11675*]:
    → "<Blech> Why would any self-respecting man go flush over someone as base as Svenja!?"
247: 0x0FE8 [0x79] Svenja (ID: 17825963/0x011000AB) looks at Ari-Barali (ID: 17825984/0x011000C0) (Basic look)
248: 0x0FF2 [0x6E] Unnamed NPC (ID: 17825996/0x011000CC) uses emote 6*
249: 0x0FF9 [0x99] Wait for Unnamed NPC (ID: 17825996/0x011000CC) animation to complete
250: 0x0FFE [0x6E] Ari-Barali (ID: 17825984/0x011000C0) uses emote 24*
251: 0x1005 [0x99] Wait for Ari-Barali (ID: 17825984/0x011000C0) animation to complete
252: 0x100A [0x1C] WAIT(60* ticks)
253: 0x100D [0x29] REQ_SET_WAIT(priority=0x08, entity_id=Palomel (ID: 17826124/0x0110014C), tag_num=0x1F)
254: 0x1014 [0x29] REQ_SET_WAIT(priority=0x08, entity_id=Palomel (ID: 17826124/0x0110014C), tag_num=0x20)
255: 0x101B [0x29] REQ_SET_WAIT(priority=0x08, entity_id=Palomel (ID: 17826124/0x0110014C), tag_num=0x21)
256: 0x1022 [0x23] WAIT_FOR_DIALOG_INTERACTION
257: 0x1023 [0x52] END_LOAD_SCHEDULER: End scheduler "s007" with entities [EventEntity, EventEntity], work=687*
258: 0x1032 [0x45] LOAD_SCHEDULED_TASK: Load scheduler "s006" with entities [EventEntity, EventEntity], work=[687*, 0*]
259: 0x1043 [0x29] REQ_SET_WAIT(priority=0x08, entity_id=Palomel (ID: 17826124/0x0110014C), tag_num=0x22)
260: 0x104A [0x1C] WAIT(40* ticks)
261: 0x104D [0x52] END_LOAD_SCHEDULER: End scheduler "s006" with entities [EventEntity, EventEntity], work=687*
262: 0x105C [0x45] LOAD_SCHEDULED_TASK: Load scheduler "s011" with entities [EventEntity, EventEntity], work=[687*, 0*]
263: 0x106D [0x2B] Palomel (ID: 17826124/0x0110014C) [11676*]:
    → "Enjoy her feigned affection while you can, because you'll be crying yourself to sleep when she tosses you aside like yesterday's garbage!"
264: 0x1074 [0x23] WAIT_FOR_DIALOG_INTERACTION
265: 0x1075 [0x29] REQ_SET_WAIT(priority=0x08, entity_id=Palomel (ID: 17826124/0x0110014C), tag_num=0x23)
266: 0x107C [0x29] REQ_SET_WAIT(priority=0x08, entity_id=Palomel (ID: 17826124/0x0110014C), tag_num=0x24)
267: 0x1083 [0x29] REQ_SET_WAIT(priority=0x08, entity_id=Svenja (ID: 17825963/0x011000AB), tag_num=0x24)
268: 0x108A [0x29] REQ_SET_WAIT(priority=0x08, entity_id=Palomel (ID: 17826124/0x0110014C), tag_num=0x25)
269: 0x1091 [0x52] END_LOAD_SCHEDULER: End scheduler "s011" with entities [EventEntity, EventEntity], work=687*
270: 0x10A0 [0x02] IF !(Work_Zone[2] == 5*) GOTO 0x10BC
271: 0x10A8 [0x45] LOAD_SCHEDULED_TASK: Load scheduler "s016" with entities [EventEntity, EventEntity], work=[687*, 0*]
272: 0x10B9 [0x01] GOTO 0x10E9
273: 0x10BC [0x02] IF !(Work_Zone[2] == 6*) GOTO 0x10D8
274: 0x10C4 [0x45] LOAD_SCHEDULED_TASK: Load scheduler "s016" with entities [EventEntity, EventEntity], work=[687*, 0*]
275: 0x10D5 [0x01] GOTO 0x10E9
276: 0x10D8 [0x45] LOAD_SCHEDULED_TASK: Load scheduler "s010" with entities [EventEntity, EventEntity], work=[687*, 0*]

SUBROUTINE_10E9:
277: 0x10E9 [0x01] GOTO 0x0B04

SUBROUTINE_10EC:
278: 0x10EC [0x01] GOTO 0x10EF

SUBROUTINE_10EF:
279: 0x10EF [0x5D] SET_MUSIC_VOLUME(volume=0*, fade_time=200*)
280: 0x10F4 [0x6E] LocalPlayer uses emote 34*
281: 0x10FB [0x99] Wait for LocalPlayer animation to complete
282: 0x1100 [0x29] REQ_SET_WAIT(priority=0x08, entity_id=Palomel (ID: 17826124/0x0110014C), tag_num=0x20)
283: 0x1107 [0x1C] WAIT(30* ticks)
284: 0x110A [0x29] REQ_SET_WAIT(priority=0x08, entity_id=Palomel (ID: 17826124/0x0110014C), tag_num=0x21)
285: 0x1111 [0x4A] Palomel (ID: 17826124/0x0110014C) looks at LocalPlayer
286: 0x111A [0x6F] WAIT_FRAME_DELAY: Yield until WaitTime reaches zero
287: 0x111B [0x76] CHECK_ENTITY_RENDER_FLAGS: Wait until Palomel (ID: 17826124/0x0110014C) Render.Flags0 and Render.Flags3 conditions are met
288: 0x1120 [0x45] LOAD_SCHEDULED_TASK: Load scheduler "s008" with entities [EventEntity, EventEntity], work=[687*, 0*]
289: 0x1131 [0x29] REQ_SET_WAIT(priority=0x08, entity_id=Palomel (ID: 17826124/0x0110014C), tag_num=0x16)
290: 0x1138 [0x2B] Palomel (ID: 17826124/0x0110014C) [11680*]:
    → "Aaaaaaaaah! Wh-wh-who's there!?"
291: 0x113F [0x1C] WAIT(60* ticks)
292: 0x1142 [0x23] WAIT_FOR_DIALOG_INTERACTION
293: 0x1143 [0x29] REQ_SET_WAIT(priority=0x08, entity_id=Palomel (ID: 17826124/0x0110014C), tag_num=0x17)
294: 0x114A [0x52] END_LOAD_SCHEDULER: End scheduler "s008" with entities [EventEntity, EventEntity], work=687*
295: 0x1159 [0x02] IF !(Work_Zone[2] == 5*) GOTO 0x1175
296: 0x1161 [0x45] LOAD_SCHEDULED_TASK: Load scheduler "s017" with entities [EventEntity, EventEntity], work=[687*, 0*]
297: 0x1172 [0x01] GOTO 0x11A2
298: 0x1175 [0x02] IF !(Work_Zone[2] == 6*) GOTO 0x1191
299: 0x117D [0x45] LOAD_SCHEDULED_TASK: Load scheduler "s017" with entities [EventEntity, EventEntity], work=[687*, 0*]
300: 0x118E [0x01] GOTO 0x11A2
301: 0x1191 [0x45] LOAD_SCHEDULED_TASK: Load scheduler "s009" with entities [EventEntity, EventEntity], work=[687*, 0*]

SUBROUTINE_11A2:
302: 0x11A2 [0x27] REQ_SET(priority=0x08, entity_id=Palomel (ID: 17826124/0x0110014C), tag_num=0x02)
303: 0x11A9 [0x2B] Palomel (ID: 17826124/0x0110014C) [11681*]:
    → "Oh, it's you... How long have you been snooping around?"
304: 0x11B0 [0x23] WAIT_FOR_DIALOG_INTERACTION
305: 0x11B1 [0x2A] GET_REQ_LEVEL(level=8, entity_id=Palomel (ID: 17826124/0x0110014C))
306: 0x11B7 [0x29] REQ_SET_WAIT(priority=0x08, entity_id=LocalPlayer, tag_num=0x09)
307: 0x11BE [0x1C] WAIT(20* ticks)
308: 0x11C1 [0x02] IF !(Work_Zone[2] == 5*) GOTO 0x11DB
309: 0x11C9 [0x52] END_LOAD_SCHEDULER: End scheduler "s017" with entities [EventEntity, EventEntity], work=687*
310: 0x11D8 [0x01] GOTO 0x1204
311: 0x11DB [0x02] IF !(Work_Zone[2] == 6*) GOTO 0x11F5
312: 0x11E3 [0x52] END_LOAD_SCHEDULER: End scheduler "s017" with entities [EventEntity, EventEntity], work=687*
313: 0x11F2 [0x01] GOTO 0x1204
314: 0x11F5 [0x52] END_LOAD_SCHEDULER: End scheduler "s009" with entities [EventEntity, EventEntity], work=687*

SUBROUTINE_1204:
315: 0x1204 [0x02] IF !(Work_Zone[2] == 5*) GOTO 0x1220
316: 0x120C [0x45] LOAD_SCHEDULED_TASK: Load scheduler "s018" with entities [EventEntity, EventEntity], work=[687*, 0*]
317: 0x121D [0x01] GOTO 0x124D
318: 0x1220 [0x02] IF !(Work_Zone[2] == 6*) GOTO 0x123C
319: 0x1228 [0x45] LOAD_SCHEDULED_TASK: Load scheduler "s018" with entities [EventEntity, EventEntity], work=[687*, 0*]
320: 0x1239 [0x01] GOTO 0x124D
321: 0x123C [0x45] LOAD_SCHEDULED_TASK: Load scheduler "s012" with entities [EventEntity, EventEntity], work=[687*, 0*]

SUBROUTINE_124D:
322: 0x124D [0x1C] WAIT(50* ticks)
323: 0x1250 [0x29] REQ_SET_WAIT(priority=0x08, entity_id=LocalPlayer, tag_num=0x0A)
324: 0x1257 [0x7B] Palomel (ID: 17826124/0x0110014C) stops talking
325: 0x125C [0x29] REQ_SET_WAIT(priority=0x08, entity_id=Palomel (ID: 17826124/0x0110014C), tag_num=0x10)
326: 0x1263 [0x29] REQ_SET_WAIT(priority=0x08, entity_id=Palomel (ID: 17826124/0x0110014C), tag_num=0x11)
327: 0x126A [0x2B] Palomel (ID: 17826124/0x0110014C) [11682*]:
    → "Let's clear up any misunderstandings that might arise from your shoddy investigating! I was simply gathering intelligence on the Order of Janniston, and nothing more."
328: 0x1271 [0x23] WAIT_FOR_DIALOG_INTERACTION
329: 0x1272 [0x29] REQ_SET_WAIT(priority=0x08, entity_id=Palomel (ID: 17826124/0x0110014C), tag_num=0x12)
330: 0x1279 [0x79] Palomel (ID: 17826124/0x0110014C) looks at LocalPlayer (Basic look)
331: 0x1283 [0x2B] Palomel (ID: 17826124/0x0110014C) [11683*]:
    → "As it happens, I've no further business here, so I'll be taking my leave now."
332: 0x128A [0x23] WAIT_FOR_DIALOG_INTERACTION
333: 0x128B [0x29] REQ_SET_WAIT(priority=0x08, entity_id=Palomel (ID: 17826124/0x0110014C), tag_num=0x13)
334: 0x1292 [0x02] IF !(Work_Zone[2] == 5*) GOTO 0x12AC
335: 0x129A [0x52] END_LOAD_SCHEDULER: End scheduler "s018" with entities [EventEntity, EventEntity], work=687*
336: 0x12A9 [0x01] GOTO 0x12D5
337: 0x12AC [0x02] IF !(Work_Zone[2] == 6*) GOTO 0x12C6
338: 0x12B4 [0x52] END_LOAD_SCHEDULER: End scheduler "s018" with entities [EventEntity, EventEntity], work=687*
339: 0x12C3 [0x01] GOTO 0x12D5
340: 0x12C6 [0x52] END_LOAD_SCHEDULER: End scheduler "s012" with entities [EventEntity, EventEntity], work=687*

SUBROUTINE_12D5:
341: 0x12D5 [0x45] LOAD_SCHEDULED_TASK: Load scheduler "s019" with entities [EventEntity, EventEntity], work=[687*, 0*]
342: 0x12E6 [0x27] REQ_SET(priority=0x08, entity_id=Palomel (ID: 17826124/0x0110014C), tag_num=0x03)
343: 0x12ED [0x1C] WAIT(90* ticks)
344: 0x12F0 [0x62] LOAD_EVENT_SCHEDULER: Load scheduler "main" with entities [Unnamed NPC (ID: 17826125/0x0110014D), Unnamed NPC (ID: 17826125/0x0110014D)], work=[3*, 3*]
345: 0x1301 [0x1C] WAIT(20* ticks)
346: 0x1304 [0x4A] LocalPlayer looks at Unnamed NPC (ID: 17826125/0x0110014D)
347: 0x130D [0x1C] WAIT(80* ticks)
348: 0x1310 [0x45] LOAD_SCHEDULED_TASK: Load scheduler "fdo1" with entities [LocalPlayer, LocalPlayer], work=[200*, 0*]
349: 0x1321 [0x55] WAIT_LOAD_SCHEDULER: Wait for scheduler "fdo1" with entities [LocalPlayer, LocalPlayer], work=200*
350: 0x1330 [0x52] END_LOAD_SCHEDULER: End scheduler "s060" with entities [EventEntity, EventEntity], work=613*
351: 0x133F [0x5C] MUSIC_CONTROL: Set Idle (Day) music to song 59*
352: 0x1343 [0x5C] MUSIC_CONTROL: Set Idle (Night) music to song 59*
353: 0x1347 [0x9A] WAIT_MUSIC_SERVER()
354: 0x1348 [0x5D] SET_MUSIC_VOLUME(volume=127*, fade_time=1*)
355: 0x134D [0x1C] WAIT(15* ticks)
356: 0x1350 [0xAB] EventEntity->DespawnValue = 0* // Set despawn value
357: 0x1354 [0x1C] WAIT(1* ticks)
358: 0x1357 [0xAB] EventEntity->UnknownFlag = 0 // Disable unknown flag
359: 0x1359 [0x46] CAMERA_CONTROL: Restore default settings
360: 0x135B [0x45] LOAD_SCHEDULED_TASK: Load scheduler "fdi2" with entities [LocalPlayer, LocalPlayer], work=[200*, 0*]
361: 0x136C [0x21] END_EVENT
362: 0x136D [0x00] END_REQSTACK()
```

#### Data or dead code:

```
# Dead code (unreachable instructions):
     0x0F31 [0x01] GOTO 0x10EC
```

### Event 5122

#### Metadata

| Field        | Value      |
|--------------|------------|
| Entrypoint   | 0x136E     |
| Data Size    | 1763 bytes |
| Instructions | 206        |

```
      00 01 02 03 04 05 06 07  08 09 0A 0B 0C 0D 0E 0F
      -- -- -- -- -- -- -- --  -- -- -- -- -- -- -- --
1360:                                            42 03                B.
1370: 00 00 02 10 45 00 80 F0  FF FF 7F F0 FF FF 7F 66  ....E..........f
1380: 64 6F 31 01 80 55 00 80  F0 FF FF 7F F0 FF FF 7F  do1..U..........
1390: 66 64 6F 31 46 01 38 4A  80 4E 00 F0 FF FF 7F 2F  fdo1F.8J.N...../
13A0: 00 ED 00 10 01 92 01 41  01 10 01 92 01 ED 00 10  .......A........
13B0: 01 92 01 0C 01 10 01 92  01 5F 01 10 01 92 01 60  ........._.....`
13C0: 01 10 01 92 01 61 01 10  01 94 01 41 01 10 01 94  .....a.....A....
13D0: 01 ED 00 10 01 94 01 0C  01 10 01 94 01 5F 01 10  ............._..
13E0: 01 94 01 60 01 10 01 94  01 61 01 10 01 94 01 F0  ...`.....a......
13F0: FF FF 7F BA F0 FF FF 7F  7A 80 7B 80 0B 80 7C 80  ........z.{...|.
1400: BA ED 00 10 01 7D 80 7E  80 0B 80 7F 80 4A 41 01  .....}.~.....JA.
1410: 10 01 F0 FF FF 7F 4A ED  00 10 01 41 01 10 01 4A  ......J....A...J
1420: F0 FF FF 7F 41 01 10 01  80 41 01 10 01 80 ED 00  ....A....A......
1430: 10 01 80 F0 FF FF 7F 02  87 7F 77 80 80 53 14 45  ..........w..S.E
1440: 80 80 F8 FF FF 7F F8 FF  FF 7F 73 30 39 36 01 80  ..........s096..
1450: 01 D4 14 02 87 7F 43 80  80 6F 14 45 80 80 F8 FF  ......C..o.E....
1460: FF 7F F8 FF FF 7F 73 30  39 36 01 80 01 D4 14 02  ......s096......
1470: 87 7F 62 80 80 8B 14 45  80 80 F8 FF FF 7F F8 FF  ..b....E........
1480: FF 7F 73 30 39 38 01 80  01 D4 14 02 87 7F 1D 80  ..s098..........
1490: 80 A7 14 45 80 80 F8 FF  FF 7F F8 FF FF 7F 73 30  ...E..........s0
14A0: 39 38 01 80 01 D4 14 02  87 7F 42 80 80 C3 14 45  98........B....E
14B0: 80 80 F8 FF FF 7F F8 FF  FF 7F 73 30 39 36 01 80  ..........s096..
14C0: 01 D4 14 45 80 80 F8 FF  FF 7F F8 FF FF 7F 73 30  ...E..........s0
14D0: 39 37 01 80 1C 0E 80 45  00 80 F0 FF FF 7F F0 FF  97.....E........
14E0: FF 7F 66 64 69 31 01 80  27 08 F0 FF FF 7F 06 1C  ..fdi1..'.......
14F0: 81 80 2B 41 01 10 01 82  80 23 52 80 80 F8 FF FF  ..+A.....#R.....
1500: 7F F8 FF FF 7F 73 30 39  36 52 80 80 F8 FF FF 7F  .....s096R......
1510: F8 FF FF 7F 73 30 39 37  52 80 80 F8 FF FF 7F F8  ....s097R.......
1520: FF FF 7F 73 30 39 38 45  80 80 F8 FF FF 7F F8 FF  ...s098E........
1530: FF 7F 73 30 39 39 01 80  2B 41 01 10 01 83 80 23  ..s099..+A.....#
1540: 66 84 80 41 01 10 01 41  01 10 01 70 61 73 30 1C  f..A...A...pas0.
1550: 76 80 03 02 10 2B 80 48  85 80 23 53 41 01 10 01  v....+.H..#SA...
1560: 41 01 10 01 70 61 73 30  52 80 80 F8 FF FF 7F F8  A...pas0R.......
1570: FF FF 7F 73 30 39 39 4E  00 ED 00 10 01 45 80 80  ...s099N.....E..
1580: F8 FF FF 7F F8 FF FF 7F  73 31 30 30 01 80 66 86  ........s100..f.
1590: 80 41 01 10 01 41 01 10  01 74 68 6B 31 2B 41 01  .A...A...thk1+A.
15A0: 10 01 87 80 23 27 08 ED  00 10 01 11 1C 17 80 2B  ....#'.........+
15B0: ED 00 10 01 88 80 23 2A  08 ED 00 10 01 53 41 01  ......#*.....SA.
15C0: 10 01 41 01 10 01 74 68  6B 31 66 86 80 41 01 10  ..A...thk1f..A..
15D0: 01 41 01 10 01 74 68 6B  32 53 41 01 10 01 41 01  .A...thk2SA...A.
15E0: 10 01 74 68 6B 32 4A 41  01 10 01 ED 00 10 01 52  ..thk2JA.......R
15F0: 80 80 F8 FF FF 7F F8 FF  FF 7F 73 31 30 30 45 29  ..........s100E)
1600: 80 F8 FF FF 7F F8 FF FF  7F 73 30 35 30 01 80 6F  .........s050..o
1610: 76 41 01 10 01 6E 41 01  10 01 89 80 99 41 01 10  vA...nA......A..
1620: 01 2B 41 01 10 01 8A 80  23 4A ED 00 10 01 F0 FF  .+A.....#J......
1630: FF 7F 4A F0 FF FF 7F ED  00 10 01 52 29 80 F8 FF  ..J........R)...
1640: FF 7F F8 FF FF 7F 73 30  35 30 02 87 7F 77 80 80  ......s050...w..
1650: 66 16 45 29 80 F8 FF FF  7F F8 FF FF 7F 73 30 35  f.E).........s05
1660: 31 01 80 01 E7 16 02 87  7F 43 80 80 82 16 45 29  1........C....E)
1670: 80 F8 FF FF 7F F8 FF FF  7F 73 30 35 31 01 80 01  .........s051...
1680: E7 16 02 87 7F 62 80 80  9E 16 45 29 80 F8 FF FF  .....b....E)....
1690: 7F F8 FF FF 7F 73 30 35  33 01 80 01 E7 16 02 87  .....s053.......
16A0: 7F 1D 80 80 BA 16 45 29  80 F8 FF FF 7F F8 FF FF  ......E)........
16B0: 7F 73 30 35 33 01 80 01  E7 16 02 87 7F 42 80 80  .s053........B..
16C0: D6 16 45 29 80 F8 FF FF  7F F8 FF FF 7F 73 30 35  ..E).........s05
16D0: 31 01 80 01 E7 16 45 29  80 F8 FF FF 7F F8 FF FF  1.....E)........
16E0: 7F 73 30 35 32 01 80 6F  76 ED 00 10 01 6F 76 F0  .s052..ov....ov.
16F0: FF FF 7F 66 8B 80 ED 00  10 01 ED 00 10 01 74 6C  ...f..........tl
1700: 6B 30 02 00 00 03 80 00  15 17 2B ED 00 10 01 8C  k0........+.....
1710: 80 23 01 1D 17 2B ED 00  10 01 8D 80 23 52 29 80  .#...+......#R).
1720: F8 FF FF 7F F8 FF FF 7F  73 30 35 31 52 29 80 F8  ........s051R)..
1730: FF FF 7F F8 FF FF 7F 73  30 35 32 52 29 80 F8 FF  .......s052R)...
1740: FF 7F F8 FF FF 7F 73 30  35 33 45 29 80 F8 FF FF  ......s053E)....
1750: 7F F8 FF FF 7F 73 30 35  34 01 80 2B ED 00 10 01  .....s054..+....
1760: 8E 80 23 6E 41 01 10 01  70 80 99 41 01 10 01 2B  ..#nA...p..A...+
1770: 41 01 10 01 8F 80 23 53  ED 00 10 01 ED 00 10 01  A.....#S........
1780: 74 6C 6B 30 66 8B 80 ED  00 10 01 ED 00 10 01 74  tlk0f..........t
1790: 6C 6B 31 2B ED 00 10 01  90 80 23 53 ED 00 10 01  lk1+......#S....
17A0: ED 00 10 01 74 6C 6B 31  7B ED 00 10 01 1C 06 80  ....tlk1{.......
17B0: 66 91 80 ED 00 10 01 ED  00 10 01 70 6F 73 30 1C  f..........pos0.
17C0: 92 80 52 29 80 F8 FF FF  7F F8 FF FF 7F 73 30 35  ..R).........s05
17D0: 34 5D 93 80 06 80 45 29  80 F8 FF FF 7F F8 FF FF  4]....E)........
17E0: 7F 73 30 35 35 01 80 2B  ED 00 10 01 94 80 23 53  .s055..+......#S
17F0: ED 00 10 01 ED 00 10 01  70 6F 73 30 5D 2A 80 95  ........pos0]*..
1800: 80 66 6C 80 ED 00 10 01  ED 00 10 01 73 79 75 30  .fl.........syu0
1810: 2B ED 00 10 01 96 80 23  53 ED 00 10 01 ED 00 10  +......#S.......
1820: 01 73 79 75 30 4A ED 00  10 01 F0 FF FF 7F 52 29  .syu0J........R)
1830: 80 F8 FF FF 7F F8 FF FF  7F 73 30 35 35 45 97 80  .........s055E..
1840: F0 FF FF 7F F0 FF FF 7F  30 30 62 6C 01 80 55 97  ........00bl..U.
1850: 80 F0 FF FF 7F F0 FF FF  7F 30 30 62 6C 02 87 7F  .........00bl...
1860: 62 80 80 79 18 45 29 80  F8 FF FF 7F F8 FF FF 7F  b..y.E).........
1870: 73 30 35 37 01 80 01 A6  18 02 87 7F 1D 80 80 95  s057............
1880: 18 45 29 80 F8 FF FF 7F  F8 FF FF 7F 73 30 35 37  .E).........s057
1890: 01 80 01 A6 18 45 29 80  F8 FF FF 7F F8 FF FF 7F  .....E).........
18A0: 73 30 35 36 01 80 6F 76  ED 00 10 01 66 98 80 ED  s056..ov....f...
