# 17826069 - Grevan

## Common Data

| Field            | Value                     |
|------------------|---------------------------|
| Zone             | Western Adoulin (ID: 256) |
| Block Size       | 296 bytes                 |
| Total Events     | 8                         |
| References Count | 11                        |

## List of Events

| Event ID              | Entrypoint   |   Size |   Instructions |
|-----------------------|--------------|--------|----------------|
| [65535](#event-65535) | 0x0000       |      1 |              1 |
| [541](#event-541)     | 0x0001       |     63 |             15 |
| [5022](#event-5022)   | 0x0040       |     29 |              7 |
| [171](#event-171)     | 0x005D       |     29 |              7 |
| [188](#event-188)     | 0x007A       |     29 |              7 |
| [69](#event-69)       | 0x0097       |     48 |             12 |
| [172](#event-172)     | 0x00C7       |      1 |              1 |
| [5206](#event-5206)   | 0x00C8       |      1 |              1 |

## DAT References (imed_data)

|   Index | Hex Value   |   Dec Value |
|---------|-------------|-------------|
|       0 | 0x0007      |           7 |
|       1 | 0x264F      |        9807 |
|       2 | 0x0009      |           9 |
|       3 | 0x2650      |        9808 |
|       4 | 0x2651      |        9809 |
|       5 | 0x001E      |          30 |
|       6 | 0x2509      |        9481 |
|       7 | 0x2581      |        9601 |
|       8 | 0x25E5      |        9701 |
|       9 | 0x1FCB      |        8139 |
|      10 | 0x1FCC      |        8140 |

## String References

- **8139**: Mistress Svenja is unavailable at the moment...but you say you're here to do some research for the library?
- **8140**: Hmm... No, I see no problem with your records on the Order of Janniston. Carry on.
- **9481**: Mistress Svenja is quite busy researching a new type of medicinal concoction. I'm afraid it will be a while before she is able to entertain visitors.
- **9601**: Such a contagious malady casts a shadow on the future of our city. I dare not imagine what will happen should we fail to root out the cause.
- **9701**: Thankfully, no new cases of the mysterious illness have been reported in the past few weeks. The Order of Janniston is committed to finding a cure for those who suffer.
- **9807**: ...Oho, a passing adventurer, are we? Well, as you can see, all I do is stand outside this manse all day, so how about indulging me in a talk about Adoulinian history?
- **9808**: The city is governed by representatives from the Twelve Orders, the original leaders of which were knights who valiantly served the founder king.
- **9809**: My esteemed employer, Svenja--the minister of public affairs--hails from the Order of Janniston. Her title may sound ambiguous, but it just means that she must try her utmost to make Adoulin a habitable place.

## Events

### Event 65535

#### Metadata

| Field        | Value   |
|--------------|---------|
| Entrypoint   | 0x0000  |
| Data Size    | 1 bytes |
| Instructions | 1       |

```
      00 01 02 03 04 05 06 07  08 09 0A 0B 0C 0D 0E 0F
      -- -- -- -- -- -- -- --  -- -- -- -- -- -- -- --
0000: 00                                                .               
```

#### Opcodes

```
  0: 0x0000 [0x00] END_REQSTACK()
```

### Event 541

#### Metadata

| Field        | Value    |
|--------------|----------|
| Entrypoint   | 0x0001   |
| Data Size    | 63 bytes |
| Instructions | 15       |

```
      00 01 02 03 04 05 06 07  08 09 0A 0B 0C 0D 0E 0F
      -- -- -- -- -- -- -- --  -- -- -- -- -- -- -- --
0000:    1E F0 FF FF 7F 6F 70  6E F8 FF FF 7F 00 80 99   .....opn.......
0010: F8 FF FF 7F 1D 01 80 23  66 02 80 F8 FF FF 7F F8  .......#f.......
0020: FF FF 7F 74 77 62 30 1D  03 80 23 1D 04 80 23 66  ...twb0...#...#f
0030: 02 80 F8 FF FF 7F F8 FF  FF 7F 74 77 62 31 21 00  ..........twb1!.
```

#### Opcodes

```
  0: 0x0001 [0x1E] EventEntity looks at LocalPlayer and starts talking
  1: 0x0006 [0x6F] WAIT_FRAME_DELAY: Yield until WaitTime reaches zero
  2: 0x0007 [0x70] WAIT_ENTITY_RENDER_FLAG: Wait while EventEntity->Render.Flags3 bit 2 is set (cancel turn if not)
  3: 0x0008 [0x6E] EventEntity uses emote 7*
  4: 0x000F [0x99] Wait for EventEntity animation to complete
  5: 0x0014 [0x1D] PRINT_EVENT_MESSAGE(message_id=9807*)
    → "...Oho, a passing adventurer, are we? Well, as you can see, all I do is stand outside this manse all day, so how about indulging me in a talk about Adoulinian history?"
  6: 0x0017 [0x23] WAIT_FOR_DIALOG_INTERACTION
  7: 0x0018 [0x66] LOAD_EXT_SCHEDULER_MAIN: Load scheduler "twb0" with entities [EventEntity, EventEntity], work=9*
  8: 0x0027 [0x1D] PRINT_EVENT_MESSAGE(message_id=9808*)
    → "The city is governed by representatives from the Twelve Orders, the original leaders of which were knights who valiantly served the founder king."
  9: 0x002A [0x23] WAIT_FOR_DIALOG_INTERACTION
 10: 0x002B [0x1D] PRINT_EVENT_MESSAGE(message_id=9809*)
    → "My esteemed employer, Svenja--the minister of public affairs--hails from the Order of Janniston. Her title may sound ambiguous, but it just means that she must try her utmost to make Adoulin a habitable place."
 11: 0x002E [0x23] WAIT_FOR_DIALOG_INTERACTION
 12: 0x002F [0x66] LOAD_EXT_SCHEDULER_MAIN: Load scheduler "twb1" with entities [EventEntity, EventEntity], work=9*
 13: 0x003E [0x21] END_EVENT
 14: 0x003F [0x00] END_REQSTACK()
```

### Event 5022

#### Metadata

| Field        | Value    |
|--------------|----------|
| Entrypoint   | 0x0040   |
| Data Size    | 29 bytes |
| Instructions | 7        |

```
      00 01 02 03 04 05 06 07  08 09 0A 0B 0C 0D 0E 0F
      -- -- -- -- -- -- -- --  -- -- -- -- -- -- -- --
0040: 1E F0 FF FF 7F 1C 05 80  66 02 80 F8 FF FF 7F F8  ........f.......
0050: FF FF 7F 74 77 62 30 1D  06 80 23 21 00           ...twb0...#!.   
```

#### Opcodes

```
  0: 0x0040 [0x1E] EventEntity looks at LocalPlayer and starts talking
  1: 0x0045 [0x1C] WAIT(30* ticks)
  2: 0x0048 [0x66] LOAD_EXT_SCHEDULER_MAIN: Load scheduler "twb0" with entities [EventEntity, EventEntity], work=9*
  3: 0x0057 [0x1D] PRINT_EVENT_MESSAGE(message_id=9481*)
    → "Mistress Svenja is quite busy researching a new type of medicinal concoction. I'm afraid it will be a while before she is able to entertain visitors."
  4: 0x005A [0x23] WAIT_FOR_DIALOG_INTERACTION
  5: 0x005B [0x21] END_EVENT
  6: 0x005C [0x00] END_REQSTACK()
```

### Event 171

#### Metadata

| Field        | Value    |
|--------------|----------|
| Entrypoint   | 0x005D   |
| Data Size    | 29 bytes |
| Instructions | 7        |

```
      00 01 02 03 04 05 06 07  08 09 0A 0B 0C 0D 0E 0F
      -- -- -- -- -- -- -- --  -- -- -- -- -- -- -- --
0050:                                         1E F0 FF               ...
0060: FF 7F 1C 05 80 66 02 80  F8 FF FF 7F F8 FF FF 7F  .....f..........
0070: 74 77 62 30 1D 07 80 23  21 00                    twb0...#!.      
```

#### Opcodes

```
  0: 0x005D [0x1E] EventEntity looks at LocalPlayer and starts talking
  1: 0x0062 [0x1C] WAIT(30* ticks)
  2: 0x0065 [0x66] LOAD_EXT_SCHEDULER_MAIN: Load scheduler "twb0" with entities [EventEntity, EventEntity], work=9*
  3: 0x0074 [0x1D] PRINT_EVENT_MESSAGE(message_id=9601*)
    → "Such a contagious malady casts a shadow on the future of our city. I dare not imagine what will happen should we fail to root out the cause."
  4: 0x0077 [0x23] WAIT_FOR_DIALOG_INTERACTION
  5: 0x0078 [0x21] END_EVENT
  6: 0x0079 [0x00] END_REQSTACK()
```

### Event 188

#### Metadata

| Field        | Value    |
|--------------|----------|
| Entrypoint   | 0x007A   |
| Data Size    | 29 bytes |
| Instructions | 7        |

```
      00 01 02 03 04 05 06 07  08 09 0A 0B 0C 0D 0E 0F
      -- -- -- -- -- -- -- --  -- -- -- -- -- -- -- --
0070:                                1E F0 FF FF 7F 1C            ......
0080: 05 80 66 02 80 F8 FF FF  7F F8 FF FF 7F 74 77 62  ..f..........twb
0090: 30 1D 08 80 23 21 00                              0...#!.         
```

#### Opcodes

```
  0: 0x007A [0x1E] EventEntity looks at LocalPlayer and starts talking
  1: 0x007F [0x1C] WAIT(30* ticks)
  2: 0x0082 [0x66] LOAD_EXT_SCHEDULER_MAIN: Load scheduler "twb0" with entities [EventEntity, EventEntity], work=9*
  3: 0x0091 [0x1D] PRINT_EVENT_MESSAGE(message_id=9701*)
    → "Thankfully, no new cases of the mysterious illness have been reported in the past few weeks. The Order of Janniston is committed to finding a cure for those who suffer."
  4: 0x0094 [0x23] WAIT_FOR_DIALOG_INTERACTION
  5: 0x0095 [0x21] END_EVENT
  6: 0x0096 [0x00] END_REQSTACK()
```

### Event 69

#### Metadata

| Field        | Value    |
|--------------|----------|
| Entrypoint   | 0x0097   |
| Data Size    | 48 bytes |
| Instructions | 12       |

```
      00 01 02 03 04 05 06 07  08 09 0A 0B 0C 0D 0E 0F
      -- -- -- -- -- -- -- --  -- -- -- -- -- -- -- --
0090:                      42  1E F0 FF FF 7F 6F 70 66         B.....opf
00A0: 02 80 F8 FF FF 7F F8 FF  FF 7F 74 77 62 30 1D 09  ..........twb0..
00B0: 80 23 1D 0A 80 23 66 02  80 F8 FF FF 7F F8 FF FF  .#...#f.........
00C0: 7F 74 77 62 31 21 00                              .twb1!.         
```

#### Opcodes

```
  0: 0x0097 [0x42] SET_CLI_EVENT_CANCEL_DATA()
  1: 0x0098 [0x1E] EventEntity looks at LocalPlayer and starts talking
  2: 0x009D [0x6F] WAIT_FRAME_DELAY: Yield until WaitTime reaches zero
  3: 0x009E [0x70] WAIT_ENTITY_RENDER_FLAG: Wait while EventEntity->Render.Flags3 bit 2 is set (cancel turn if not)
  4: 0x009F [0x66] LOAD_EXT_SCHEDULER_MAIN: Load scheduler "twb0" with entities [EventEntity, EventEntity], work=9*
  5: 0x00AE [0x1D] PRINT_EVENT_MESSAGE(message_id=8139*)
    → "Mistress Svenja is unavailable at the moment...but you say you're here to do some research for the library?"
  6: 0x00B1 [0x23] WAIT_FOR_DIALOG_INTERACTION
  7: 0x00B2 [0x1D] PRINT_EVENT_MESSAGE(message_id=8140*)
    → "Hmm... No, I see no problem with your records on the Order of Janniston. Carry on."
  8: 0x00B5 [0x23] WAIT_FOR_DIALOG_INTERACTION
  9: 0x00B6 [0x66] LOAD_EXT_SCHEDULER_MAIN: Load scheduler "twb1" with entities [EventEntity, EventEntity], work=9*
 10: 0x00C5 [0x21] END_EVENT
 11: 0x00C6 [0x00] END_REQSTACK()
```

### Event 172

#### Metadata

| Field        | Value   |
|--------------|---------|
| Entrypoint   | 0x00C7  |
| Data Size    | 1 bytes |
| Instructions | 1       |

```
      00 01 02 03 04 05 06 07  08 09 0A 0B 0C 0D 0E 0F
      -- -- -- -- -- -- -- --  -- -- -- -- -- -- -- --
00C0:                      00                                  .        
```

#### Opcodes

```
  0: 0x00C7 [0x00] END_REQSTACK()
```

### Event 5206

#### Metadata

| Field        | Value   |
|--------------|---------|
| Entrypoint   | 0x00C8  |
| Data Size    | 1 bytes |
| Instructions | 1       |

```
      00 01 02 03 04 05 06 07  08 09 0A 0B 0C 0D 0E 0F
      -- -- -- -- -- -- -- --  -- -- -- -- -- -- -- --
00C0:                          00                               .       
```

#### Opcodes

```
  0: 0x00C8 [0x00] END_REQSTACK()
```
