# 17825986 - Othellius

## Common Data

| Field            | Value                     |
|------------------|---------------------------|
| Zone             | Western Adoulin (ID: 256) |
| Block Size       | 800 bytes                 |
| Total Events     | 27                        |
| References Count | 51                        |

## List of Events

| Event ID                   | Entrypoint   |   Size |   Instructions |
|----------------------------|--------------|--------|----------------|
| [65535](#event-65535)      | 0x0000       |      1 |              1 |
| [5019](#event-5019)        | 0x0001       |      7 |              2 |
| [5021](#event-5021)        | 0x0008       |      7 |              2 |
| [5078](#event-5078)        | 0x000F       |      7 |              2 |
| [65535.1](#event-655351)   | 0x0016       |     22 |              6 |
| [5083](#event-5083)        | 0x002C       |      7 |              2 |
| [65535.2](#event-655352)   | 0x0033       |     37 |              7 |
| [168](#event-168)          | 0x0058       |      7 |              2 |
| [65535.3](#event-655353)   | 0x005F       |     37 |              9 |
| [170](#event-170)          | 0x0084       |      7 |              2 |
| [65535.4](#event-655354)   | 0x008B       |     35 |              7 |
| [65535.5](#event-655355)   | 0x00AE       |     50 |             10 |
| [65535.6](#event-655356)   | 0x00E0       |     14 |              4 |
| [185](#event-185)          | 0x00EE       |      7 |              2 |
| [65535.7](#event-655357)   | 0x00F5       |     22 |              6 |
| [187](#event-187)          | 0x010B       |      7 |              2 |
| [65535.8](#event-655358)   | 0x0112       |     22 |              6 |
| [65535.9](#event-655359)   | 0x0128       |     22 |              6 |
| [189](#event-189)          | 0x013E       |      7 |              2 |
| [65535.10](#event-6553510) | 0x0145       |     23 |              5 |
| [5206](#event-5206)        | 0x015C       |      7 |              2 |
| [5207](#event-5207)        | 0x0163       |      7 |              2 |
| [65535.11](#event-6553511) | 0x016A       |     19 |              5 |
| [65535.12](#event-6553512) | 0x017D       |     14 |              4 |
| [65535.13](#event-6553513) | 0x018B       |     44 |             10 |
| [65535.14](#event-6553514) | 0x01B7       |     14 |              4 |
| [65535.15](#event-6553515) | 0x01C5       |     19 |              5 |

## DAT References (imed_data)

|   Index | Hex Value   |   Dec Value |
|---------|-------------|-------------|
|       0 | 0x0028      |          40 |
|       1 | 0xFFFF2C74  |  4294913140 |
|       2 | 0x04D4      |        1236 |
|       3 | 0xFFFFFE0D  |  4294966797 |
|       4 | 0x001E      |          30 |
|       5 | 0x000D      |          13 |
|       6 | 0x0029      |          41 |
|       7 | 0xFFFFE3C9  |  4294960073 |
|       8 | 0x0000      |           0 |
|       9 | 0x0CAC      |        3244 |
|      10 | 0x0959      |        2393 |
|      11 | 0xFFFFC8B8  |  4294953144 |
|      12 | 0x06F4      |        1780 |
|      13 | 0xFFFFC1EE  |  4294951406 |
|      14 | 0x0092      |         146 |
|      15 | 0xFFFFBDCB  |  4294950347 |
|      16 | 0x0271      |         625 |
|      17 | 0xFFFFD5DA  |  4294956506 |
|      18 | 0x0452      |        1106 |
|      19 | 0xFFFFD270  |  4294955632 |
|      20 | 0x02D0      |         720 |
|      21 | 0xFFFFCF83  |  4294954883 |
|      22 | 0x0009      |           9 |
|      23 | 0x005A      |          90 |
|      24 | 0x01A4      |         420 |
|      25 | 0xFFFFACD7  |  4294946007 |
|      26 | 0x0046      |          70 |
|      27 | 0xFFFFC31A  |  4294951706 |
|      28 | 0xFFFF2897  |  4294912151 |
|      29 | 0x0A27      |        2599 |
|      30 | 0xFFFFFE0C  |  4294966796 |
|      31 | 0xFFFF2026  |  4294909990 |
|      32 | 0xFFFFEC81  |  4294962305 |
|      33 | 0x01D4      |         468 |
|      34 | 0xFFFFD1F5  |  4294955509 |
|      35 | 0x0514      |        1300 |
|      36 | 0xFFFFDBE8  |  4294958056 |
|      37 | 0xFFFF1B4A  |  4294908746 |
|      38 | 0xFFFFE6C4  |  4294960836 |
|      39 | 0xFFFF1DD4  |  4294909396 |
|      40 | 0xFFFFED9A  |  4294962586 |
|      41 | 0xFFFF1AB4  |  4294908596 |
|      42 | 0xFFFFF416  |  4294964246 |
|      43 | 0xFFFF16EA  |  4294907626 |
|      44 | 0xFFFFF592  |  4294964626 |
|      45 | 0xFFFF0984  |  4294904196 |
|      46 | 0xFFFFF18C  |  4294963596 |
|      47 | 0xFFFF1ECE  |  4294909646 |
|      48 | 0xFFFFEC78  |  4294962296 |
|      49 | 0xFFFF1AD2  |  4294908626 |
|      50 | 0xFFFFEA16  |  4294961686 |

## Events

### Event 65535

#### Metadata

| Field        | Value   |
|--------------|---------|
| Entrypoint   | 0x0000  |
| Data Size    | 1 bytes |
| Instructions | 1       |

```
      00 01 02 03 04 05 06 07  08 09 0A 0B 0C 0D 0E 0F
      -- -- -- -- -- -- -- --  -- -- -- -- -- -- -- --
0000: 00                                                .               
```

#### Opcodes

```
  0: 0x0000 [0x00] END_REQSTACK()
```

### Event 5019

#### Metadata

| Field        | Value   |
|--------------|---------|
| Entrypoint   | 0x0001  |
| Data Size    | 7 bytes |
| Instructions | 2       |

```
      00 01 02 03 04 05 06 07  08 09 0A 0B 0C 0D 0E 0F
      -- -- -- -- -- -- -- --  -- -- -- -- -- -- -- --
0000:    92 01 F8 FF FF 7F 00                            .......        
```

#### Opcodes

```
  0: 0x0001 [0x92] EventEntity->Render.Flags3 ^= 0x01
  1: 0x0007 [0x00] END_REQSTACK()
```

### Event 5021

#### Metadata

| Field        | Value   |
|--------------|---------|
| Entrypoint   | 0x0008  |
| Data Size    | 7 bytes |
| Instructions | 2       |

```
      00 01 02 03 04 05 06 07  08 09 0A 0B 0C 0D 0E 0F
      -- -- -- -- -- -- -- --  -- -- -- -- -- -- -- --
0000:                          92 01 F8 FF FF 7F 00             ....... 
```

#### Opcodes

```
  0: 0x0008 [0x92] EventEntity->Render.Flags3 ^= 0x01
  1: 0x000E [0x00] END_REQSTACK()
```

### Event 5078

#### Metadata

| Field        | Value   |
|--------------|---------|
| Entrypoint   | 0x000F  |
| Data Size    | 7 bytes |
| Instructions | 2       |

```
      00 01 02 03 04 05 06 07  08 09 0A 0B 0C 0D 0E 0F
      -- -- -- -- -- -- -- --  -- -- -- -- -- -- -- --
0000:                                               92                 .
0010: 01 F8 FF FF 7F 00                                 ......          
```

#### Opcodes

```
  0: 0x000F [0x92] EventEntity->Render.Flags3 ^= 0x01
  1: 0x0015 [0x00] END_REQSTACK()
```

### Event 65535.1

#### Metadata

| Field        | Value    |
|--------------|----------|
| Entrypoint   | 0x0016   |
| Data Size    | 22 bytes |
| Instructions | 6        |

```
      00 01 02 03 04 05 06 07  08 09 0A 0B 0C 0D 0E 0F
      -- -- -- -- -- -- -- --  -- -- -- -- -- -- -- --
0010:                   32 00  80 1F 00 01 80 02 80 03        2.........
0020: 80 1F 01 1E C1 00 10 01  1C 04 80 00              ............    
```

#### Opcodes

```
  0: 0x0016 [0x32] ExtData[1]->MainSpeed = 40* * 0.1
  1: 0x0019 [0x1F] MOVE_ENTITY: EventEntity moves to X=-54.156*, Z=1.236*, Y=-0.499*
  2: 0x0021 [0x1F] MOVE_ENTITY: Update entity position (mode=1)
  3: 0x0023 [0x1E] EventEntity looks at Alianne (ID: 17825985/0x011000C1) and starts talking
  4: 0x0028 [0x1C] WAIT(30* ticks)
  5: 0x002B [0x00] END_REQSTACK()
```

### Event 5083

#### Metadata

| Field        | Value   |
|--------------|---------|
| Entrypoint   | 0x002C  |
| Data Size    | 7 bytes |
| Instructions | 2       |

```
      00 01 02 03 04 05 06 07  08 09 0A 0B 0C 0D 0E 0F
      -- -- -- -- -- -- -- --  -- -- -- -- -- -- -- --
0020:                                      92 01 F8 FF              ....
0030: FF 7F 00                                          ...             
```

#### Opcodes

```
  0: 0x002C [0x92] EventEntity->Render.Flags3 ^= 0x01
  1: 0x0032 [0x00] END_REQSTACK()
```

### Event 65535.2

#### Metadata

| Field        | Value    |
|--------------|----------|
| Entrypoint   | 0x0033   |
| Data Size    | 37 bytes |
| Instructions | 7        |

```
      00 01 02 03 04 05 06 07  08 09 0A 0B 0C 0D 0E 0F
      -- -- -- -- -- -- -- --  -- -- -- -- -- -- -- --
0030:          32 05 80 1F 00  06 80 07 80 08 80 1F 01     2............
0040: 2C F7 00 10 01 F7 00 10  01 6F 70 65 6E 4B F8 FF  ,........openK..
0050: FF 7F 09 80 1C 04 80 00                           ........        
```

#### Opcodes

```
  0: 0x0033 [0x32] ExtData[1]->MainSpeed = 13* * 0.1
  1: 0x0036 [0x1F] MOVE_ENTITY: EventEntity moves to X=0.041*, Z=-7.223*, Y=0.000*
  2: 0x003E [0x1F] MOVE_ENTITY: Update entity position (mode=1)
  3: 0x0040 [0x2C] CREATE_SCHEDULER_TASK: Create scheduler "open" with entities [Unnamed NPC (ID: 17826039/0x011000F7), Unnamed NPC (ID: 17826039/0x011000F7)]
  4: 0x004D [0x4B] UPDATE_ENTITY_YAW(entity=EventEntity, yaw=17.8°*)
  5: 0x0054 [0x1C] WAIT(30* ticks)
  6: 0x0057 [0x00] END_REQSTACK()
```

### Event 168

#### Metadata

| Field        | Value   |
|--------------|---------|
| Entrypoint   | 0x0058  |
| Data Size    | 7 bytes |
| Instructions | 2       |

```
      00 01 02 03 04 05 06 07  08 09 0A 0B 0C 0D 0E 0F
      -- -- -- -- -- -- -- --  -- -- -- -- -- -- -- --
0050:                          92 01 F8 FF FF 7F 00             ....... 
```

#### Opcodes

```
  0: 0x0058 [0x92] EventEntity->Render.Flags3 ^= 0x01
  1: 0x005E [0x00] END_REQSTACK()
```

### Event 65535.3

#### Metadata

| Field        | Value    |
|--------------|----------|
| Entrypoint   | 0x005F   |
| Data Size    | 37 bytes |
| Instructions | 9        |

```
      00 01 02 03 04 05 06 07  08 09 0A 0B 0C 0D 0E 0F
      -- -- -- -- -- -- -- --  -- -- -- -- -- -- -- --
0050:                                               32                 2
0060: 00 80 1F 00 0A 80 0B 80  08 80 1F 01 1F 00 0C 80  ................
0070: 0D 80 08 80 1F 01 1F 00  0E 80 0F 80 08 80 1F 01  ................
0080: 1C 04 80 00                                       ....            
```

#### Opcodes

```
  0: 0x005F [0x32] ExtData[1]->MainSpeed = 40* * 0.1
  1: 0x0062 [0x1F] MOVE_ENTITY: EventEntity moves to X=2.393*, Z=-14.152*, Y=0.000*
  2: 0x006A [0x1F] MOVE_ENTITY: Update entity position (mode=1)
  3: 0x006C [0x1F] MOVE_ENTITY: EventEntity moves to X=1.780*, Z=-15.890*, Y=0.000*
  4: 0x0074 [0x1F] MOVE_ENTITY: Update entity position (mode=1)
  5: 0x0076 [0x1F] MOVE_ENTITY: EventEntity moves to X=0.146*, Z=-16.949*, Y=0.000*
  6: 0x007E [0x1F] MOVE_ENTITY: Update entity position (mode=1)
  7: 0x0080 [0x1C] WAIT(30* ticks)
  8: 0x0083 [0x00] END_REQSTACK()
```

### Event 170

#### Metadata

| Field        | Value   |
|--------------|---------|
| Entrypoint   | 0x0084  |
| Data Size    | 7 bytes |
| Instructions | 2       |

```
      00 01 02 03 04 05 06 07  08 09 0A 0B 0C 0D 0E 0F
      -- -- -- -- -- -- -- --  -- -- -- -- -- -- -- --
0080:             92 01 F8 FF  FF 7F 00                     .......     
```

#### Opcodes

```
  0: 0x0084 [0x92] EventEntity->Render.Flags3 ^= 0x01
  1: 0x008A [0x00] END_REQSTACK()
```

### Event 65535.4

#### Metadata

| Field        | Value    |
|--------------|----------|
| Entrypoint   | 0x008B   |
| Data Size    | 35 bytes |
| Instructions | 7        |

```
      00 01 02 03 04 05 06 07  08 09 0A 0B 0C 0D 0E 0F
      -- -- -- -- -- -- -- --  -- -- -- -- -- -- -- --
0080:                                   32 00 80 1F 00             2....
0090: 10 80 11 80 08 80 1F 01  2C F7 00 10 01 F7 00 10  ........,.......
00A0: 01 63 6C 6F 73 1E C0 00  10 01 1C 04 80 00        .clos.........  
```

#### Opcodes

```
  0: 0x008B [0x32] ExtData[1]->MainSpeed = 40* * 0.1
  1: 0x008E [0x1F] MOVE_ENTITY: EventEntity moves to X=0.625*, Z=-10.790*, Y=0.000*
  2: 0x0096 [0x1F] MOVE_ENTITY: Update entity position (mode=1)
  3: 0x0098 [0x2C] CREATE_SCHEDULER_TASK: Create scheduler "clos" with entities [Unnamed NPC (ID: 17826039/0x011000F7), Unnamed NPC (ID: 17826039/0x011000F7)]
  4: 0x00A5 [0x1E] EventEntity looks at Ari-Barali (ID: 17825984/0x011000C0) and starts talking
  5: 0x00AA [0x1C] WAIT(30* ticks)
  6: 0x00AD [0x00] END_REQSTACK()
```

### Event 65535.5

#### Metadata

| Field        | Value    |
|--------------|----------|
| Entrypoint   | 0x00AE   |
| Data Size    | 50 bytes |
| Instructions | 10       |

```
      00 01 02 03 04 05 06 07  08 09 0A 0B 0C 0D 0E 0F
      -- -- -- -- -- -- -- --  -- -- -- -- -- -- -- --
00A0:                                            32 05                2.
00B0: 80 1F 00 12 80 13 80 08  80 1F 01 1F 00 14 80 15  ................
00C0: 80 08 80 1F 01 1E C0 00  10 01 1C 04 80 66 16 80  .............f..
00D0: F8 FF FF 7F F8 FF FF 7F  73 68 61 30 1C 17 80 00  ........sha0....
```

#### Opcodes

```
  0: 0x00AE [0x32] ExtData[1]->MainSpeed = 13* * 0.1
  1: 0x00B1 [0x1F] MOVE_ENTITY: EventEntity moves to X=1.106*, Z=-11.664*, Y=0.000*
  2: 0x00B9 [0x1F] MOVE_ENTITY: Update entity position (mode=1)
  3: 0x00BB [0x1F] MOVE_ENTITY: EventEntity moves to X=0.720*, Z=-12.413*, Y=0.000*
  4: 0x00C3 [0x1F] MOVE_ENTITY: Update entity position (mode=1)
  5: 0x00C5 [0x1E] EventEntity looks at Ari-Barali (ID: 17825984/0x011000C0) and starts talking
  6: 0x00CA [0x1C] WAIT(30* ticks)
  7: 0x00CD [0x66] LOAD_EXT_SCHEDULER_MAIN: Load scheduler "sha0" with entities [EventEntity, EventEntity], work=9*
  8: 0x00DC [0x1C] WAIT(90* ticks)
  9: 0x00DF [0x00] END_REQSTACK()
```

### Event 65535.6

#### Metadata

| Field        | Value    |
|--------------|----------|
| Entrypoint   | 0x00E0   |
| Data Size    | 14 bytes |
| Instructions | 4        |

```
      00 01 02 03 04 05 06 07  08 09 0A 0B 0C 0D 0E 0F
      -- -- -- -- -- -- -- --  -- -- -- -- -- -- -- --
00E0: 32 05 80 1F 00 18 80 19  80 08 80 1F 01 00        2.............  
```

#### Opcodes

```
  0: 0x00E0 [0x32] ExtData[1]->MainSpeed = 13* * 0.1
  1: 0x00E3 [0x1F] MOVE_ENTITY: EventEntity moves to X=0.420*, Z=-21.289*, Y=0.000*
  2: 0x00EB [0x1F] MOVE_ENTITY: Update entity position (mode=1)
  3: 0x00ED [0x00] END_REQSTACK()
```

### Event 185

#### Metadata

| Field        | Value   |
|--------------|---------|
| Entrypoint   | 0x00EE  |
| Data Size    | 7 bytes |
| Instructions | 2       |

```
      00 01 02 03 04 05 06 07  08 09 0A 0B 0C 0D 0E 0F
      -- -- -- -- -- -- -- --  -- -- -- -- -- -- -- --
00E0:                                            92 01                ..
00F0: F8 FF FF 7F 00                                    .....           
```

#### Opcodes

```
  0: 0x00EE [0x92] EventEntity->Render.Flags3 ^= 0x01
  1: 0x00F4 [0x00] END_REQSTACK()
```

### Event 65535.7

#### Metadata

| Field        | Value    |
|--------------|----------|
| Entrypoint   | 0x00F5   |
| Data Size    | 22 bytes |
| Instructions | 6        |

```
      00 01 02 03 04 05 06 07  08 09 0A 0B 0C 0D 0E 0F
      -- -- -- -- -- -- -- --  -- -- -- -- -- -- -- --
00F0:                32 00 80  1F 00 1A 80 1B 80 08 80       2..........
0100: 1F 01 1E AB 00 10 01 1C  04 80 00                 ...........     
```

#### Opcodes

```
  0: 0x00F5 [0x32] ExtData[1]->MainSpeed = 40* * 0.1
  1: 0x00F8 [0x1F] MOVE_ENTITY: EventEntity moves to X=0.070*, Z=-15.590*, Y=0.000*
  2: 0x0100 [0x1F] MOVE_ENTITY: Update entity position (mode=1)
  3: 0x0102 [0x1E] EventEntity looks at Svenja (ID: 17825963/0x011000AB) and starts talking
  4: 0x0107 [0x1C] WAIT(30* ticks)
  5: 0x010A [0x00] END_REQSTACK()
```

### Event 187

#### Metadata

| Field        | Value   |
|--------------|---------|
| Entrypoint   | 0x010B  |
| Data Size    | 7 bytes |
| Instructions | 2       |

```
      00 01 02 03 04 05 06 07  08 09 0A 0B 0C 0D 0E 0F
      -- -- -- -- -- -- -- --  -- -- -- -- -- -- -- --
0100:                                   92 01 F8 FF FF             .....
0110: 7F 00                                             ..              
```

#### Opcodes

```
  0: 0x010B [0x92] EventEntity->Render.Flags3 ^= 0x01
  1: 0x0111 [0x00] END_REQSTACK()
```

### Event 65535.8

#### Metadata

| Field        | Value    |
|--------------|----------|
| Entrypoint   | 0x0112   |
| Data Size    | 22 bytes |
| Instructions | 6        |

```
      00 01 02 03 04 05 06 07  08 09 0A 0B 0C 0D 0E 0F
      -- -- -- -- -- -- -- --  -- -- -- -- -- -- -- --
0110:       32 05 80 1F 00 1C  80 1D 80 1E 80 1F 01 1E    2.............
0120: F0 FF FF 7F 1C 04 80 00                           ........        
```

#### Opcodes

```
  0: 0x0112 [0x32] ExtData[1]->MainSpeed = 13* * 0.1
  1: 0x0115 [0x1F] MOVE_ENTITY: EventEntity moves to X=-55.145*, Z=2.599*, Y=-0.500*
  2: 0x011D [0x1F] MOVE_ENTITY: Update entity position (mode=1)
  3: 0x011F [0x1E] EventEntity looks at LocalPlayer and starts talking
  4: 0x0124 [0x1C] WAIT(30* ticks)
  5: 0x0127 [0x00] END_REQSTACK()
```

### Event 65535.9

#### Metadata

| Field        | Value    |
|--------------|----------|
| Entrypoint   | 0x0128   |
| Data Size    | 22 bytes |
| Instructions | 6        |

```
      00 01 02 03 04 05 06 07  08 09 0A 0B 0C 0D 0E 0F
      -- -- -- -- -- -- -- --  -- -- -- -- -- -- -- --
0120:                          32 05 80 1F 00 1F 80 20          2...... 
0130: 80 1E 80 1F 01 1E C1 00  10 01 1C 04 80 00        ..............  
```

#### Opcodes

```
  0: 0x0128 [0x32] ExtData[1]->MainSpeed = 13* * 0.1
  1: 0x012B [0x1F] MOVE_ENTITY: EventEntity moves to X=-57.306*, Z=-4.991*, Y=-0.500*
  2: 0x0133 [0x1F] MOVE_ENTITY: Update entity position (mode=1)
  3: 0x0135 [0x1E] EventEntity looks at Alianne (ID: 17825985/0x011000C1) and starts talking
  4: 0x013A [0x1C] WAIT(30* ticks)
  5: 0x013D [0x00] END_REQSTACK()
```

### Event 189

#### Metadata

| Field        | Value   |
|--------------|---------|
| Entrypoint   | 0x013E  |
| Data Size    | 7 bytes |
| Instructions | 2       |

```
      00 01 02 03 04 05 06 07  08 09 0A 0B 0C 0D 0E 0F
      -- -- -- -- -- -- -- --  -- -- -- -- -- -- -- --
0130:                                            92 01                ..
0140: F8 FF FF 7F 00                                    .....           
```

#### Opcodes

```
  0: 0x013E [0x92] EventEntity->Render.Flags3 ^= 0x01
  1: 0x0144 [0x00] END_REQSTACK()
```

### Event 65535.10

#### Metadata

| Field        | Value    |
|--------------|----------|
| Entrypoint   | 0x0145   |
| Data Size    | 23 bytes |
| Instructions | 5        |

```
      00 01 02 03 04 05 06 07  08 09 0A 0B 0C 0D 0E 0F
      -- -- -- -- -- -- -- --  -- -- -- -- -- -- -- --
0140:                32 05 80  1F 00 21 80 22 80 08 80       2....!."...
0150: 1F 01 4A C2 00 10 01 F0  FF FF 7F 00              ..J.........    
```

#### Opcodes

```
  0: 0x0145 [0x32] ExtData[1]->MainSpeed = 13* * 0.1
  1: 0x0148 [0x1F] MOVE_ENTITY: EventEntity moves to X=0.468*, Z=-11.787*, Y=0.000*
  2: 0x0150 [0x1F] MOVE_ENTITY: Update entity position (mode=1)
  3: 0x0152 [0x4A] Othellius (ID: 17825986/0x011000C2) looks at LocalPlayer
  4: 0x015B [0x00] END_REQSTACK()
```

### Event 5206

#### Metadata

| Field        | Value   |
|--------------|---------|
| Entrypoint   | 0x015C  |
| Data Size    | 7 bytes |
| Instructions | 2       |

```
      00 01 02 03 04 05 06 07  08 09 0A 0B 0C 0D 0E 0F
      -- -- -- -- -- -- -- --  -- -- -- -- -- -- -- --
0150:                                      92 01 F8 FF              ....
0160: FF 7F 00                                          ...             
```

#### Opcodes

```
  0: 0x015C [0x92] EventEntity->Render.Flags3 ^= 0x01
  1: 0x0162 [0x00] END_REQSTACK()
```

### Event 5207

#### Metadata

| Field        | Value   |
|--------------|---------|
| Entrypoint   | 0x0163  |
| Data Size    | 7 bytes |
| Instructions | 2       |

```
      00 01 02 03 04 05 06 07  08 09 0A 0B 0C 0D 0E 0F
      -- -- -- -- -- -- -- --  -- -- -- -- -- -- -- --
0160:          92 01 F8 FF FF  7F 00                       .......      
```

#### Opcodes

```
  0: 0x0163 [0x92] EventEntity->Render.Flags3 ^= 0x01
  1: 0x0169 [0x00] END_REQSTACK()
```

### Event 65535.11

#### Metadata

| Field        | Value    |
|--------------|----------|
| Entrypoint   | 0x016A   |
| Data Size    | 19 bytes |
| Instructions | 5        |

```
      00 01 02 03 04 05 06 07  08 09 0A 0B 0C 0D 0E 0F
      -- -- -- -- -- -- -- --  -- -- -- -- -- -- -- --
0160:                                32 05 80 1F 00 23            2....#
0170: 80 24 80 08 80 1F 01 1E  AB 00 10 01 00           .$...........   
```

#### Opcodes

```
  0: 0x016A [0x32] ExtData[1]->MainSpeed = 13* * 0.1
  1: 0x016D [0x1F] MOVE_ENTITY: EventEntity moves to X=1.300*, Z=-9.240*, Y=0.000*
  2: 0x0175 [0x1F] MOVE_ENTITY: Update entity position (mode=1)
  3: 0x0177 [0x1E] EventEntity looks at Svenja (ID: 17825963/0x011000AB) and starts talking
  4: 0x017C [0x00] END_REQSTACK()
```

### Event 65535.12

#### Metadata

| Field        | Value    |
|--------------|----------|
| Entrypoint   | 0x017D   |
| Data Size    | 14 bytes |
| Instructions | 4        |

```
      00 01 02 03 04 05 06 07  08 09 0A 0B 0C 0D 0E 0F
      -- -- -- -- -- -- -- --  -- -- -- -- -- -- -- --
0170:                                         32 05 80               2..
0180: 1F 00 25 80 26 80 1E 80  1F 01 00                 ..%.&......     
```

#### Opcodes

```
  0: 0x017D [0x32] ExtData[1]->MainSpeed = 13* * 0.1
  1: 0x0180 [0x1F] MOVE_ENTITY: EventEntity moves to X=-58.550*, Z=-6.460*, Y=-0.500*
  2: 0x0188 [0x1F] MOVE_ENTITY: Update entity position (mode=1)
  3: 0x018A [0x00] END_REQSTACK()
```

### Event 65535.13

#### Metadata

| Field        | Value    |
|--------------|----------|
| Entrypoint   | 0x018B   |
| Data Size    | 44 bytes |
| Instructions | 10       |

```
      00 01 02 03 04 05 06 07  08 09 0A 0B 0C 0D 0E 0F
      -- -- -- -- -- -- -- --  -- -- -- -- -- -- -- --
0180:                                   32 05 80 1F 00             2....
0190: 27 80 28 80 1E 80 1F 01  1F 00 29 80 2A 80 1E 80  '.(.......).*...
01A0: 1F 01 1F 00 2B 80 2C 80  1E 80 1F 01 1F 00 2D 80  ....+.,.......-.
01B0: 2E 80 1E 80 1F 01 00                              .......         
```

#### Opcodes

```
  0: 0x018B [0x32] ExtData[1]->MainSpeed = 13* * 0.1
  1: 0x018E [0x1F] MOVE_ENTITY: EventEntity moves to X=-57.900*, Z=-4.710*, Y=-0.500*
  2: 0x0196 [0x1F] MOVE_ENTITY: Update entity position (mode=1)
  3: 0x0198 [0x1F] MOVE_ENTITY: EventEntity moves to X=-58.700*, Z=-3.050*, Y=-0.500*
  4: 0x01A0 [0x1F] MOVE_ENTITY: Update entity position (mode=1)
  5: 0x01A2 [0x1F] MOVE_ENTITY: EventEntity moves to X=-59.670*, Z=-2.670*, Y=-0.500*
  6: 0x01AA [0x1F] MOVE_ENTITY: Update entity position (mode=1)
  7: 0x01AC [0x1F] MOVE_ENTITY: EventEntity moves to X=-63.100*, Z=-3.700*, Y=-0.500*
  8: 0x01B4 [0x1F] MOVE_ENTITY: Update entity position (mode=1)
  9: 0x01B6 [0x00] END_REQSTACK()
```

### Event 65535.14

#### Metadata

| Field        | Value    |
|--------------|----------|
| Entrypoint   | 0x01B7   |
| Data Size    | 14 bytes |
| Instructions | 4        |

```
      00 01 02 03 04 05 06 07  08 09 0A 0B 0C 0D 0E 0F
      -- -- -- -- -- -- -- --  -- -- -- -- -- -- -- --
01B0:                      32  05 80 1F 00 2F 80 30 80         2..../.0.
01C0: 1E 80 1F 01 00                                    .....           
```

#### Opcodes

```
  0: 0x01B7 [0x32] ExtData[1]->MainSpeed = 13* * 0.1
  1: 0x01BA [0x1F] MOVE_ENTITY: EventEntity moves to X=-57.650*, Z=-5.000*, Y=-0.500*
  2: 0x01C2 [0x1F] MOVE_ENTITY: Update entity position (mode=1)
  3: 0x01C4 [0x00] END_REQSTACK()
```

### Event 65535.15

#### Metadata

| Field        | Value    |
|--------------|----------|
| Entrypoint   | 0x01C5   |
| Data Size    | 19 bytes |
| Instructions | 5        |

```
      00 01 02 03 04 05 06 07  08 09 0A 0B 0C 0D 0E 0F
      -- -- -- -- -- -- -- --  -- -- -- -- -- -- -- --
01C0:                32 05 80  1F 00 31 80 32 80 1E 80       2....1.2...
01D0: 1F 01 1E DA 00 10 01 00                           ........        
```

#### Opcodes

```
  0: 0x01C5 [0x32] ExtData[1]->MainSpeed = 13* * 0.1
  1: 0x01C8 [0x1F] MOVE_ENTITY: EventEntity moves to X=-58.670*, Z=-5.610*, Y=-0.500*
  2: 0x01D0 [0x1F] MOVE_ENTITY: Update entity position (mode=1)
  3: 0x01D2 [0x1E] EventEntity looks at Tuffle-Buffle (ID: 17826010/0x011000DA) and starts talking
  4: 0x01D7 [0x00] END_REQSTACK()
```
