# 17826060 - Shipilolo

## Common Data

| Field            | Value                     |
|------------------|---------------------------|
| Zone             | Western Adoulin (ID: 256) |
| Block Size       | 732 bytes                 |
| Total Events     | 10                        |
| References Count | 38                        |

## List of Events

| Event ID              | Entrypoint   |   Size |   Instructions |
|-----------------------|--------------|--------|----------------|
| [65535](#event-65535) | 0x0000       |      1 |              1 |
| [526](#event-526)     | 0x0001       |     51 |             13 |
| [535](#event-535)     | 0x0034       |     47 |             11 |
| [2543](#event-2543)   | 0x0063       |    138 |             36 |
| [2557](#event-2557)   | 0x00ED       |     60 |             18 |
| [2850](#event-2850)   | 0x0129       |    112 |             28 |
| [79](#event-79)       | 0x0199       |    105 |             23 |
| [5116](#event-5116)   | 0x0202       |      1 |              1 |
| [5200](#event-5200)   | 0x0203       |      7 |              2 |
| [5122](#event-5122)   | 0x020A       |      1 |              1 |

## DAT References (imed_data)

|   Index | Hex Value   |   Dec Value |
|---------|-------------|-------------|
|       0 | 0x0028      |          40 |
|       1 | 0x268E      |        9870 |
|       2 | 0x268F      |        9871 |
|       3 | 0x2690      |        9872 |
|       4 | 0x1EF9      |        7929 |
|       5 | 0x1EFA      |        7930 |
|       6 | 0x0890      |        2192 |
|       7 | 0x1EFB      |        7931 |
|       8 | 0x1EFC      |        7932 |
|       9 | 0x1EFD      |        7933 |
|      10 | 0x1EFE      |        7934 |
|      11 | 0x1EFF      |        7935 |
|      12 | 0x002E      |          46 |
|      13 | 0x1F00      |        7936 |
|      14 | 0x1F01      |        7937 |
|      15 | 0x1F02      |        7938 |
|      16 | 0x1F03      |        7939 |
|      17 | 0x1F04      |        7940 |
|      18 | 0x1F27      |        7975 |
|      19 | 0x1F28      |        7976 |
|      20 | 0x1F29      |        7977 |
|      21 | 0x1F2A      |        7978 |
|      22 | 0x1F2B      |        7979 |
|      23 | 0x08D7      |        2263 |
|      24 | 0x1FA3      |        8099 |
|      25 | 0x1FA4      |        8100 |
|      26 | 0x0078      |         120 |
|      27 | 0x1FA5      |        8101 |
|      28 | 0x1FA6      |        8102 |
|      29 | 0x1FA7      |        8103 |
|      30 | 0x1FA8      |        8104 |
|      31 | 0x1FA9      |        8105 |
|      32 | 0x0001      |           1 |
|      33 | 0x08D8      |        2264 |
|      34 | 0x1FB7      |        8119 |
|      35 | 0x1FB8      |        8120 |
|      36 | 0x094C      |        2380 |
|      37 | 0x1FB9      |        8121 |

## String References

- **7929**: If you're here seeking the brightaruest minds in all of Adoulin, then you're in luck! Welcome to the Inventors' Coalition.
- **7930**: Or maybe you've come to gaze longingly at me, the best coalition's postaru girl?
- **7931**: What? You want us to fixy-wix $6 for some fisherman? Hmmm...
- **7932**: No problem! Just because we're the greataruest coalition around doesn't mean we're above helping townsfolk.
- **7933**: We get jobs like this all the time! I've spruced up tools and tinkered with utensils for citizen-witizens so often that I've lost countaru.
- **7934**: Also, the more good deeds I do, the more popular-wopular I become! I'll have the whole city licking my bootarus soon enough.
- **7935**: ...Oh, yes. The harpoon.
- **7936**: First, bang on it with some heavy-weavy tools... Next, twistaru until just before the breaking point... ...And there we go. Drumroll please...
- **7937**: Ta-da! Here you are, perfectly reconstructarued!
- **7938**: Well, actually, it should be better than before. I enhanced its durability so it'll last multiple-wultiple times as long.
- **7939**: Since I'm so generous-wenerous, I also took the liberty of adding a button that makes it expand and retract. I'm just that selfless.
- **7940**: No need to thank me. Your love and adoration should prove more than sufficientaru.
- **7975**: If you're here seeking the brightaruest minds in all of Adoulin, then you're in luck! Welcome to the Inventors' Coalition.
- **7976**: Or maybe you've come to gaze longingly at me, the best coalition's postaru girl?
- **7977**: On patrol, you say? Let me think. Do we have any tasky-wasks that require your assistance...?
- **7978**: We're currently working on all the gadgetarus in need of repair, that fertilizer has been sent to the Civic Arboretum, and I believe our research into Mog Garden construction is progressing-wessing well.
- **7979**: The only thing I can think of is how we sometimes run out of materials. We wouldn't have to worry if you'd take some assignmentarus from us, though. You know, the more jobs you undertake, the more you get to see wonderful little me.
- **8099**: Why, hello there. Here to see the loveliest lady of the Inventors' Coalition?
- **8100**: No? ...The Civic Arboretum sent you? Aha--you must be after some $5, then.
- **8101**: I'm stuck at my post thanks to Amchuchu, so since you're here, mind delivering this for me? It's my own special creation.
- **8102**: But will vegetables grown using $5 really be safe to use? I mean, aren't the ones grown by Mother Nature herself the tastiest of all?
- **8103**: Oh, I'm not attacking the Civic Arboretum. Please don't take it that way.
- **8104**: If it weren't for them, people in the slums might have to go hungry.
- **8105**: I can vouch for the quality of these $5. I would never give them anything that didn't have my seal of approval.
- **8119**: No? Sharuru? That hussy? Oh--she sent you here. I see. Then you must be interested in the $3.
- **8120**: One moment. A little tweak here... A couple adjustments there... ...Yes. This will do nicely.
- **8121**: There you go--$3. This should help you fix those waypoints right up!
- **9870**: If you came here seeking the brightaruest minds in all of Adoulin, then you're in luck! Welcome to the Inventors' Coalition.
- **9871**: If you happen to be intarusted in making your creations come to life, make sure to remember our name. You might want to make a note of mine, too, if you want to set up a meeting of the minds.
- **9872**: Goodness gracious-wacious! You haven't registered as a pioneer yet? Then pay a visitaru to the Pioneers' Coalition along the main thoroughfare to the west.

## Events

### Event 65535

#### Metadata

| Field        | Value   |
|--------------|---------|
| Entrypoint   | 0x0000  |
| Data Size    | 1 bytes |
| Instructions | 1       |

```
      00 01 02 03 04 05 06 07  08 09 0A 0B 0C 0D 0E 0F
      -- -- -- -- -- -- -- --  -- -- -- -- -- -- -- --
0000: 00                                                .               
```

#### Opcodes

```
  0: 0x0000 [0x00] END_REQSTACK()
```

### Event 526

#### Metadata

| Field        | Value    |
|--------------|----------|
| Entrypoint   | 0x0001   |
| Data Size    | 51 bytes |
| Instructions | 13       |

```
      00 01 02 03 04 05 06 07  08 09 0A 0B 0C 0D 0E 0F
      -- -- -- -- -- -- -- --  -- -- -- -- -- -- -- --
0000:    1E F0 FF FF 7F 6F 70  66 00 80 F8 FF FF 7F F8   .....opf.......
0010: FF FF 7F 74 6C 6B 30 1D  01 80 23 1D 02 80 23 1D  ...tlk0...#...#.
0020: 03 80 23 66 00 80 F8 FF  FF 7F F8 FF FF 7F 74 6C  ..#f..........tl
0030: 6B 31 21 00                                       k1!.            
```

#### Opcodes

```
  0: 0x0001 [0x1E] EventEntity looks at LocalPlayer and starts talking
  1: 0x0006 [0x6F] WAIT_FRAME_DELAY: Yield until WaitTime reaches zero
  2: 0x0007 [0x70] WAIT_ENTITY_RENDER_FLAG: Wait while EventEntity->Render.Flags3 bit 2 is set (cancel turn if not)
  3: 0x0008 [0x66] LOAD_EXT_SCHEDULER_MAIN: Load scheduler "tlk0" with entities [EventEntity, EventEntity], work=40*
  4: 0x0017 [0x1D] PRINT_EVENT_MESSAGE(message_id=9870*)
    → "If you came here seeking the brightaruest minds in all of Adoulin, then you're in luck! Welcome to the Inventors' Coalition."
  5: 0x001A [0x23] WAIT_FOR_DIALOG_INTERACTION
  6: 0x001B [0x1D] PRINT_EVENT_MESSAGE(message_id=9871*)
    → "If you happen to be intarusted in making your creations come to life, make sure to remember our name. You might want to make a note of mine, too, if you want to set up a meeting of the minds."
  7: 0x001E [0x23] WAIT_FOR_DIALOG_INTERACTION
  8: 0x001F [0x1D] PRINT_EVENT_MESSAGE(message_id=9872*)
    → "Goodness gracious-wacious! You haven't registered as a pioneer yet? Then pay a visitaru to the Pioneers' Coalition along the main thoroughfare to the west."
  9: 0x0022 [0x23] WAIT_FOR_DIALOG_INTERACTION
 10: 0x0023 [0x66] LOAD_EXT_SCHEDULER_MAIN: Load scheduler "tlk1" with entities [EventEntity, EventEntity], work=40*
 11: 0x0032 [0x21] END_EVENT
 12: 0x0033 [0x00] END_REQSTACK()
```

### Event 535

#### Metadata

| Field        | Value    |
|--------------|----------|
| Entrypoint   | 0x0034   |
| Data Size    | 47 bytes |
| Instructions | 11       |

```
      00 01 02 03 04 05 06 07  08 09 0A 0B 0C 0D 0E 0F
      -- -- -- -- -- -- -- --  -- -- -- -- -- -- -- --
0030:             1E F0 FF FF  7F 6F 70 66 00 80 F8 FF      .....opf....
0040: FF 7F F8 FF FF 7F 74 6C  6B 30 1D 01 80 23 1D 02  ......tlk0...#..
0050: 80 23 66 00 80 F8 FF FF  7F F8 FF FF 7F 74 6C 6B  .#f..........tlk
0060: 31 21 00                                          1!.             
```

#### Opcodes

```
  0: 0x0034 [0x1E] EventEntity looks at LocalPlayer and starts talking
  1: 0x0039 [0x6F] WAIT_FRAME_DELAY: Yield until WaitTime reaches zero
  2: 0x003A [0x70] WAIT_ENTITY_RENDER_FLAG: Wait while EventEntity->Render.Flags3 bit 2 is set (cancel turn if not)
  3: 0x003B [0x66] LOAD_EXT_SCHEDULER_MAIN: Load scheduler "tlk0" with entities [EventEntity, EventEntity], work=40*
  4: 0x004A [0x1D] PRINT_EVENT_MESSAGE(message_id=9870*)
    → "If you came here seeking the brightaruest minds in all of Adoulin, then you're in luck! Welcome to the Inventors' Coalition."
  5: 0x004D [0x23] WAIT_FOR_DIALOG_INTERACTION
  6: 0x004E [0x1D] PRINT_EVENT_MESSAGE(message_id=9871*)
    → "If you happen to be intarusted in making your creations come to life, make sure to remember our name. You might want to make a note of mine, too, if you want to set up a meeting of the minds."
  7: 0x0051 [0x23] WAIT_FOR_DIALOG_INTERACTION
  8: 0x0052 [0x66] LOAD_EXT_SCHEDULER_MAIN: Load scheduler "tlk1" with entities [EventEntity, EventEntity], work=40*
  9: 0x0061 [0x21] END_EVENT
 10: 0x0062 [0x00] END_REQSTACK()
```

### Event 2543

#### Metadata

| Field        | Value     |
|--------------|-----------|
| Entrypoint   | 0x0063    |
| Data Size    | 138 bytes |
| Instructions | 36        |

```
      00 01 02 03 04 05 06 07  08 09 0A 0B 0C 0D 0E 0F
      -- -- -- -- -- -- -- --  -- -- -- -- -- -- -- --
0060:          1E F0 FF FF 7F  42 6F 70 66 00 80 F8 FF     .....Bopf....
0070: FF 7F F8 FF FF 7F 74 6C  6B 30 1D 04 80 23 1D 05  ......tlk0...#..
0080: 80 23 03 02 10 06 80 1D  07 80 23 1D 08 80 23 1D  .#........#...#.
0090: 09 80 23 1D 0A 80 23 1D  0B 80 23 66 0C 80 F8 FF  ..#...#...#f....
00A0: FF 7F F8 FF FF 7F 6D 64  71 30 1D 0D 80 23 66 00  ......mdq0...#f.
00B0: 80 F8 FF FF 7F F8 FF FF  7F 70 61 73 30 1D 0E 80  .........pas0...
00C0: 23 66 00 80 F8 FF FF 7F  F8 FF FF 7F 74 6C 6B 30  #f..........tlk0
00D0: 1D 0F 80 23 1D 10 80 23  1D 11 80 23 66 00 80 F8  ...#...#...#f...
00E0: FF FF 7F F8 FF FF 7F 74  6C 6B 31 21 00           .......tlk1!.   
```

#### Opcodes

```
  0: 0x0063 [0x1E] EventEntity looks at LocalPlayer and starts talking
  1: 0x0068 [0x42] SET_CLI_EVENT_CANCEL_DATA()
  2: 0x0069 [0x6F] WAIT_FRAME_DELAY: Yield until WaitTime reaches zero
  3: 0x006A [0x70] WAIT_ENTITY_RENDER_FLAG: Wait while EventEntity->Render.Flags3 bit 2 is set (cancel turn if not)
  4: 0x006B [0x66] LOAD_EXT_SCHEDULER_MAIN: Load scheduler "tlk0" with entities [EventEntity, EventEntity], work=40*
  5: 0x007A [0x1D] PRINT_EVENT_MESSAGE(message_id=7929*)
    → "If you're here seeking the brightaruest minds in all of Adoulin, then you're in luck! Welcome to the Inventors' Coalition."
  6: 0x007D [0x23] WAIT_FOR_DIALOG_INTERACTION
  7: 0x007E [0x1D] PRINT_EVENT_MESSAGE(message_id=7930*)
    → "Or maybe you've come to gaze longingly at me, the best coalition's postaru girl?"
  8: 0x0081 [0x23] WAIT_FOR_DIALOG_INTERACTION
  9: 0x0082 [0x03] Work_Zone[2] = 2192*
 10: 0x0087 [0x1D] PRINT_EVENT_MESSAGE(message_id=7931*)
    → "What? You want us to fixy-wix $6 for some fisherman? Hmmm..."
 11: 0x008A [0x23] WAIT_FOR_DIALOG_INTERACTION
 12: 0x008B [0x1D] PRINT_EVENT_MESSAGE(message_id=7932*)
    → "No problem! Just because we're the greataruest coalition around doesn't mean we're above helping townsfolk."
 13: 0x008E [0x23] WAIT_FOR_DIALOG_INTERACTION
 14: 0x008F [0x1D] PRINT_EVENT_MESSAGE(message_id=7933*)
    → "We get jobs like this all the time! I've spruced up tools and tinkered with utensils for citizen-witizens so often that I've lost countaru."
 15: 0x0092 [0x23] WAIT_FOR_DIALOG_INTERACTION
 16: 0x0093 [0x1D] PRINT_EVENT_MESSAGE(message_id=7934*)
    → "Also, the more good deeds I do, the more popular-wopular I become! I'll have the whole city licking my bootarus soon enough."
 17: 0x0096 [0x23] WAIT_FOR_DIALOG_INTERACTION
 18: 0x0097 [0x1D] PRINT_EVENT_MESSAGE(message_id=7935*)
    → "...Oh, yes. The harpoon."
 19: 0x009A [0x23] WAIT_FOR_DIALOG_INTERACTION
 20: 0x009B [0x66] LOAD_EXT_SCHEDULER_MAIN: Load scheduler "mdq0" with entities [EventEntity, EventEntity], work=46*
 21: 0x00AA [0x1D] PRINT_EVENT_MESSAGE(message_id=7936*)
    → "First, bang on it with some heavy-weavy tools... Next, twistaru until just before the breaking point... ...And there we go. Drumroll please..."
 22: 0x00AD [0x23] WAIT_FOR_DIALOG_INTERACTION
 23: 0x00AE [0x66] LOAD_EXT_SCHEDULER_MAIN: Load scheduler "pas0" with entities [EventEntity, EventEntity], work=40*
 24: 0x00BD [0x1D] PRINT_EVENT_MESSAGE(message_id=7937*)
    → "Ta-da! Here you are, perfectly reconstructarued!"
 25: 0x00C0 [0x23] WAIT_FOR_DIALOG_INTERACTION
 26: 0x00C1 [0x66] LOAD_EXT_SCHEDULER_MAIN: Load scheduler "tlk0" with entities [EventEntity, EventEntity], work=40*
 27: 0x00D0 [0x1D] PRINT_EVENT_MESSAGE(message_id=7938*)
    → "Well, actually, it should be better than before. I enhanced its durability so it'll last multiple-wultiple times as long."
 28: 0x00D3 [0x23] WAIT_FOR_DIALOG_INTERACTION
 29: 0x00D4 [0x1D] PRINT_EVENT_MESSAGE(message_id=7939*)
    → "Since I'm so generous-wenerous, I also took the liberty of adding a button that makes it expand and retract. I'm just that selfless."
 30: 0x00D7 [0x23] WAIT_FOR_DIALOG_INTERACTION
 31: 0x00D8 [0x1D] PRINT_EVENT_MESSAGE(message_id=7940*)
    → "No need to thank me. Your love and adoration should prove more than sufficientaru."
 32: 0x00DB [0x23] WAIT_FOR_DIALOG_INTERACTION
 33: 0x00DC [0x66] LOAD_EXT_SCHEDULER_MAIN: Load scheduler "tlk1" with entities [EventEntity, EventEntity], work=40*
 34: 0x00EB [0x21] END_EVENT
 35: 0x00EC [0x00] END_REQSTACK()
```

### Event 2557

#### Metadata

| Field        | Value    |
|--------------|----------|
| Entrypoint   | 0x00ED   |
| Data Size    | 60 bytes |
| Instructions | 18       |

```
      00 01 02 03 04 05 06 07  08 09 0A 0B 0C 0D 0E 0F
      -- -- -- -- -- -- -- --  -- -- -- -- -- -- -- --
00E0:                                         1E F0 FF               ...
00F0: FF 7F 42 6F 70 66 00 80  F8 FF FF 7F F8 FF FF 7F  ..Bopf..........
0100: 74 6C 6B 30 1D 12 80 23  1D 13 80 23 1D 14 80 23  tlk0...#...#...#
0110: 1D 15 80 23 1D 16 80 23  66 00 80 F8 FF FF 7F F8  ...#...#f.......
0120: FF FF 7F 74 6C 6B 31 21  00                       ...tlk1!.       
```

#### Opcodes

```
  0: 0x00ED [0x1E] EventEntity looks at LocalPlayer and starts talking
  1: 0x00F2 [0x42] SET_CLI_EVENT_CANCEL_DATA()
  2: 0x00F3 [0x6F] WAIT_FRAME_DELAY: Yield until WaitTime reaches zero
  3: 0x00F4 [0x70] WAIT_ENTITY_RENDER_FLAG: Wait while EventEntity->Render.Flags3 bit 2 is set (cancel turn if not)
  4: 0x00F5 [0x66] LOAD_EXT_SCHEDULER_MAIN: Load scheduler "tlk0" with entities [EventEntity, EventEntity], work=40*
  5: 0x0104 [0x1D] PRINT_EVENT_MESSAGE(message_id=7975*)
    → "If you're here seeking the brightaruest minds in all of Adoulin, then you're in luck! Welcome to the Inventors' Coalition."
  6: 0x0107 [0x23] WAIT_FOR_DIALOG_INTERACTION
  7: 0x0108 [0x1D] PRINT_EVENT_MESSAGE(message_id=7976*)
    → "Or maybe you've come to gaze longingly at me, the best coalition's postaru girl?"
  8: 0x010B [0x23] WAIT_FOR_DIALOG_INTERACTION
  9: 0x010C [0x1D] PRINT_EVENT_MESSAGE(message_id=7977*)
    → "On patrol, you say? Let me think. Do we have any tasky-wasks that require your assistance...?"
 10: 0x010F [0x23] WAIT_FOR_DIALOG_INTERACTION
 11: 0x0110 [0x1D] PRINT_EVENT_MESSAGE(message_id=7978*)
    → "We're currently working on all the gadgetarus in need of repair, that fertilizer has been sent to the Civic Arboretum, and I believe our research into Mog Garden construction is progressing-wessing well."
 12: 0x0113 [0x23] WAIT_FOR_DIALOG_INTERACTION
 13: 0x0114 [0x1D] PRINT_EVENT_MESSAGE(message_id=7979*)
    → "The only thing I can think of is how we sometimes run out of materials. We wouldn't have to worry if you'd take some assignmentarus from us, though. You know, the more jobs you undertake, the more you get to see wonderful little me."
 14: 0x0117 [0x23] WAIT_FOR_DIALOG_INTERACTION
 15: 0x0118 [0x66] LOAD_EXT_SCHEDULER_MAIN: Load scheduler "tlk1" with entities [EventEntity, EventEntity], work=40*
 16: 0x0127 [0x21] END_EVENT
 17: 0x0128 [0x00] END_REQSTACK()
```

### Event 2850

#### Metadata

| Field        | Value     |
|--------------|-----------|
| Entrypoint   | 0x0129    |
| Data Size    | 112 bytes |
| Instructions | 28        |

```
      00 01 02 03 04 05 06 07  08 09 0A 0B 0C 0D 0E 0F
      -- -- -- -- -- -- -- --  -- -- -- -- -- -- -- --
0120:                             1E F0 FF FF 7F 6F 70           .....op
0130: 42 03 02 10 17 80 66 00  80 F8 FF FF 7F F8 FF FF  B.....f.........
0140: 7F 74 6C 6B 30 1D 18 80  23 1D 19 80 23 66 00 80  .tlk0...#...#f..
0150: F8 FF FF 7F F8 FF FF 7F  70 61 73 30 1C 1A 80 1D  ........pas0....
0160: 1B 80 23 66 00 80 F8 FF  FF 7F F8 FF FF 7F 74 6C  ..#f..........tl
0170: 6B 30 1D 1C 80 23 1D 1D  80 23 1D 1E 80 23 1D 1F  k0...#...#...#..
0180: 80 23 66 00 80 F8 FF FF  7F F8 FF FF 7F 74 6C 6B  .#f..........tlk
0190: 31 03 01 10 20 80 2E 21  00                       1... ..!.       
```

#### Opcodes

```
  0: 0x0129 [0x1E] EventEntity looks at LocalPlayer and starts talking
  1: 0x012E [0x6F] WAIT_FRAME_DELAY: Yield until WaitTime reaches zero
  2: 0x012F [0x70] WAIT_ENTITY_RENDER_FLAG: Wait while EventEntity->Render.Flags3 bit 2 is set (cancel turn if not)
  3: 0x0130 [0x42] SET_CLI_EVENT_CANCEL_DATA()
  4: 0x0131 [0x03] Work_Zone[2] = 2263*
  5: 0x0136 [0x66] LOAD_EXT_SCHEDULER_MAIN: Load scheduler "tlk0" with entities [EventEntity, EventEntity], work=40*
  6: 0x0145 [0x1D] PRINT_EVENT_MESSAGE(message_id=8099*)
    → "Why, hello there. Here to see the loveliest lady of the Inventors' Coalition?"
  7: 0x0148 [0x23] WAIT_FOR_DIALOG_INTERACTION
  8: 0x0149 [0x1D] PRINT_EVENT_MESSAGE(message_id=8100*)
    → "No? ...The Civic Arboretum sent you? Aha--you must be after some $5, then."
  9: 0x014C [0x23] WAIT_FOR_DIALOG_INTERACTION
 10: 0x014D [0x66] LOAD_EXT_SCHEDULER_MAIN: Load scheduler "pas0" with entities [EventEntity, EventEntity], work=40*
 11: 0x015C [0x1C] WAIT(120* ticks)
 12: 0x015F [0x1D] PRINT_EVENT_MESSAGE(message_id=8101*)
    → "I'm stuck at my post thanks to Amchuchu, so since you're here, mind delivering this for me? It's my own special creation."
 13: 0x0162 [0x23] WAIT_FOR_DIALOG_INTERACTION
 14: 0x0163 [0x66] LOAD_EXT_SCHEDULER_MAIN: Load scheduler "tlk0" with entities [EventEntity, EventEntity], work=40*
 15: 0x0172 [0x1D] PRINT_EVENT_MESSAGE(message_id=8102*)
    → "But will vegetables grown using $5 really be safe to use? I mean, aren't the ones grown by Mother Nature herself the tastiest of all?"
 16: 0x0175 [0x23] WAIT_FOR_DIALOG_INTERACTION
 17: 0x0176 [0x1D] PRINT_EVENT_MESSAGE(message_id=8103*)
    → "Oh, I'm not attacking the Civic Arboretum. Please don't take it that way."
 18: 0x0179 [0x23] WAIT_FOR_DIALOG_INTERACTION
 19: 0x017A [0x1D] PRINT_EVENT_MESSAGE(message_id=8104*)
    → "If it weren't for them, people in the slums might have to go hungry."
 20: 0x017D [0x23] WAIT_FOR_DIALOG_INTERACTION
 21: 0x017E [0x1D] PRINT_EVENT_MESSAGE(message_id=8105*)
    → "I can vouch for the quality of these $5. I would never give them anything that didn't have my seal of approval."
 22: 0x0181 [0x23] WAIT_FOR_DIALOG_INTERACTION
 23: 0x0182 [0x66] LOAD_EXT_SCHEDULER_MAIN: Load scheduler "tlk1" with entities [EventEntity, EventEntity], work=40*
 24: 0x0191 [0x03] Work_Zone[1] = 1*
 25: 0x0196 [0x2E] SET_CLI_EVENT_CANCEL_FLAGS()
 26: 0x0197 [0x21] END_EVENT
 27: 0x0198 [0x00] END_REQSTACK()
```

### Event 79

#### Metadata

| Field        | Value     |
|--------------|-----------|
| Entrypoint   | 0x0199    |
| Data Size    | 105 bytes |
| Instructions | 23        |

```
      00 01 02 03 04 05 06 07  08 09 0A 0B 0C 0D 0E 0F
      -- -- -- -- -- -- -- --  -- -- -- -- -- -- -- --
0190:                             1E F0 FF FF 7F 6F 70           .....op
01A0: 42 03 02 10 21 80 66 00  80 F8 FF FF 7F F8 FF FF  B...!.f.........
01B0: 7F 74 6C 6B 30 1D 18 80  23 1D 22 80 23 66 0C 80  .tlk0...#.".#f..
01C0: F8 FF FF 7F F8 FF FF 7F  6D 64 71 30 1D 23 80 23  ........mdq0.#.#
01D0: 66 00 80 F8 FF FF 7F F8  FF FF 7F 70 61 73 30 1C  f..........pas0.
01E0: 1A 80 03 02 10 24 80 1D  25 80 23 66 00 80 F8 FF  .....$..%.#f....
01F0: FF 7F F8 FF FF 7F 74 6C  6B 31 03 01 10 20 80 2E  ......tlk1... ..
0200: 21 00                                             !.              
```

#### Opcodes

```
  0: 0x0199 [0x1E] EventEntity looks at LocalPlayer and starts talking
  1: 0x019E [0x6F] WAIT_FRAME_DELAY: Yield until WaitTime reaches zero
  2: 0x019F [0x70] WAIT_ENTITY_RENDER_FLAG: Wait while EventEntity->Render.Flags3 bit 2 is set (cancel turn if not)
  3: 0x01A0 [0x42] SET_CLI_EVENT_CANCEL_DATA()
  4: 0x01A1 [0x03] Work_Zone[2] = 2264*
  5: 0x01A6 [0x66] LOAD_EXT_SCHEDULER_MAIN: Load scheduler "tlk0" with entities [EventEntity, EventEntity], work=40*
  6: 0x01B5 [0x1D] PRINT_EVENT_MESSAGE(message_id=8099*)
    → "Why, hello there. Here to see the loveliest lady of the Inventors' Coalition?"
  7: 0x01B8 [0x23] WAIT_FOR_DIALOG_INTERACTION
  8: 0x01B9 [0x1D] PRINT_EVENT_MESSAGE(message_id=8119*)
    → "No? Sharuru? That hussy? Oh--she sent you here. I see. Then you must be interested in the $3."
  9: 0x01BC [0x23] WAIT_FOR_DIALOG_INTERACTION
 10: 0x01BD [0x66] LOAD_EXT_SCHEDULER_MAIN: Load scheduler "mdq0" with entities [EventEntity, EventEntity], work=46*
 11: 0x01CC [0x1D] PRINT_EVENT_MESSAGE(message_id=8120*)
    → "One moment. A little tweak here... A couple adjustments there... ...Yes. This will do nicely."
 12: 0x01CF [0x23] WAIT_FOR_DIALOG_INTERACTION
 13: 0x01D0 [0x66] LOAD_EXT_SCHEDULER_MAIN: Load scheduler "pas0" with entities [EventEntity, EventEntity], work=40*
 14: 0x01DF [0x1C] WAIT(120* ticks)
 15: 0x01E2 [0x03] Work_Zone[2] = 2380*
 16: 0x01E7 [0x1D] PRINT_EVENT_MESSAGE(message_id=8121*)
    → "There you go--$3. This should help you fix those waypoints right up!"
 17: 0x01EA [0x23] WAIT_FOR_DIALOG_INTERACTION
 18: 0x01EB [0x66] LOAD_EXT_SCHEDULER_MAIN: Load scheduler "tlk1" with entities [EventEntity, EventEntity], work=40*
 19: 0x01FA [0x03] Work_Zone[1] = 1*
 20: 0x01FF [0x2E] SET_CLI_EVENT_CANCEL_FLAGS()
 21: 0x0200 [0x21] END_EVENT
 22: 0x0201 [0x00] END_REQSTACK()
```

### Event 5116

#### Metadata

| Field        | Value   |
|--------------|---------|
| Entrypoint   | 0x0202  |
| Data Size    | 1 bytes |
| Instructions | 1       |

```
      00 01 02 03 04 05 06 07  08 09 0A 0B 0C 0D 0E 0F
      -- -- -- -- -- -- -- --  -- -- -- -- -- -- -- --
0200:       00                                            .             
```

#### Opcodes

```
  0: 0x0202 [0x00] END_REQSTACK()
```

### Event 5200

#### Metadata

| Field        | Value   |
|--------------|---------|
| Entrypoint   | 0x0203  |
| Data Size    | 7 bytes |
| Instructions | 2       |

```
      00 01 02 03 04 05 06 07  08 09 0A 0B 0C 0D 0E 0F
      -- -- -- -- -- -- -- --  -- -- -- -- -- -- -- --
0200:          92 01 F8 FF FF  7F 00                       .......      
```

#### Opcodes

```
  0: 0x0203 [0x92] EventEntity->Render.Flags3 ^= 0x01
  1: 0x0209 [0x00] END_REQSTACK()
```

### Event 5122

#### Metadata

| Field        | Value   |
|--------------|---------|
| Entrypoint   | 0x020A  |
| Data Size    | 1 bytes |
| Instructions | 1       |

```
      00 01 02 03 04 05 06 07  08 09 0A 0B 0C 0D 0E 0F
      -- -- -- -- -- -- -- --  -- -- -- -- -- -- -- --
0200:                                00                           .     
```

#### Opcodes

```
  0: 0x020A [0x00] END_REQSTACK()
```
