# 17826092 - Hujette

## Common Data

| Field            | Value                     |
|------------------|---------------------------|
| Zone             | Western Adoulin (ID: 256) |
| Block Size       | 104 bytes                 |
| Total Events     | 3                         |
| References Count | 4                         |

## List of Events

| Event ID              | Entrypoint   |   Size |   Instructions |
|-----------------------|--------------|--------|----------------|
| [65535](#event-65535) | 0x0000       |      1 |              1 |
| [5070](#event-5070)   | 0x0001       |     48 |             12 |
| [5218](#event-5218)   | 0x0031       |     10 |              3 |

## DAT References (imed_data)

|   Index | Hex Value   |   Dec Value |
|---------|-------------|-------------|
|       0 | 0x0046      |          70 |
|       1 | 0x2868      |       10344 |
|       2 | 0x2869      |       10345 |
|       3 | 0x0B40      |        2880 |

## String References

- **10344**: Why, hello there! Here about that tab those two Tarus ran up?
- **10345**: Thanks for your patronage! Must be tough keeping after them, but if you're ever in need of some sweet desserts to calm your nerves, you know where to find me!

## Events

### Event 65535

#### Metadata

| Field        | Value   |
|--------------|---------|
| Entrypoint   | 0x0000  |
| Data Size    | 1 bytes |
| Instructions | 1       |

```
      00 01 02 03 04 05 06 07  08 09 0A 0B 0C 0D 0E 0F
      -- -- -- -- -- -- -- --  -- -- -- -- -- -- -- --
0000: 00                                                .               
```

#### Opcodes

```
  0: 0x0000 [0x00] END_REQSTACK()
```

### Event 5070

#### Metadata

| Field        | Value    |
|--------------|----------|
| Entrypoint   | 0x0001   |
| Data Size    | 48 bytes |
| Instructions | 12       |

```
      00 01 02 03 04 05 06 07  08 09 0A 0B 0C 0D 0E 0F
      -- -- -- -- -- -- -- --  -- -- -- -- -- -- -- --
0000:    42 1E F0 FF FF 7F 6F  70 5B 00 80 F8 FF FF 7F   B.....op[......
0010: F8 FF FF 7F 74 6C 6B 30  1D 01 80 23 1D 02 80 23  ....tlk0...#...#
0020: 5B 00 80 F8 FF FF 7F F8  FF FF 7F 73 74 64 30 21  [..........std0!
0030: 00                                                .               
```

#### Opcodes

```
  0: 0x0001 [0x42] SET_CLI_EVENT_CANCEL_DATA()
  1: 0x0002 [0x1E] EventEntity looks at LocalPlayer and starts talking
  2: 0x0007 [0x6F] WAIT_FRAME_DELAY: Yield until WaitTime reaches zero
  3: 0x0008 [0x70] WAIT_ENTITY_RENDER_FLAG: Wait while EventEntity->Render.Flags3 bit 2 is set (cancel turn if not)
  4: 0x0009 [0x5B] LOAD_EXT_SCHEDULER: Load scheduler "tlk0" with entities [EventEntity, EventEntity], work=70*
  5: 0x0018 [0x1D] PRINT_EVENT_MESSAGE(message_id=10344*)
    → "Why, hello there! Here about that tab those two Tarus ran up?"
  6: 0x001B [0x23] WAIT_FOR_DIALOG_INTERACTION
  7: 0x001C [0x1D] PRINT_EVENT_MESSAGE(message_id=10345*)
    → "Thanks for your patronage! Must be tough keeping after them, but if you're ever in need of some sweet desserts to calm your nerves, you know where to find me!"
  8: 0x001F [0x23] WAIT_FOR_DIALOG_INTERACTION
  9: 0x0020 [0x5B] LOAD_EXT_SCHEDULER: Load scheduler "std0" with entities [EventEntity, EventEntity], work=70*
 10: 0x002F [0x21] END_EVENT
 11: 0x0030 [0x00] END_REQSTACK()
```

### Event 5218

#### Metadata

| Field        | Value    |
|--------------|----------|
| Entrypoint   | 0x0031   |
| Data Size    | 10 bytes |
| Instructions | 3        |

```
      00 01 02 03 04 05 06 07  08 09 0A 0B 0C 0D 0E 0F
      -- -- -- -- -- -- -- --  -- -- -- -- -- -- -- --
0030:    92 01 F8 FF FF 7F 39  03 80 00                  ......9...     
```

#### Opcodes

```
  0: 0x0031 [0x92] EventEntity->Render.Flags3 ^= 0x01
  1: 0x0037 [0x39] SET_ENTITY_DIRECTION(direction=15.8°*)
  2: 0x003A [0x00] END_REQSTACK()
```
