# 17826152 - Iscandelle

## Common Data

| Field            | Value                     |
|------------------|---------------------------|
| Zone             | Western Adoulin (ID: 256) |
| Block Size       | 20848 bytes               |
| Total Events     | 18                        |
| References Count | 245                       |

## List of Events

| Event ID                 | Entrypoint   |   Size |   Instructions |
|--------------------------|--------------|--------|----------------|
| [65535](#event-65535)    | 0x0000       |      1 |              1 |
| [7604](#event-7604)      | 0x0001       |     13 |              5 |
| [7553](#event-7553)      | 0x000E       |      5 |              3 |
| [7558](#event-7558)      | 0x0013       |  19706 |           3307 |
| [5043](#event-5043)      | 0x4D0D       |      1 |              1 |
| [5044](#event-5044)      | 0x4D0E       |      1 |              1 |
| [5064](#event-5064)      | 0x4D0F       |      1 |              1 |
| [5065](#event-5065)      | 0x4D10       |      1 |              1 |
| [5092](#event-5092)      | 0x4D11       |      7 |              2 |
| [65535.1](#event-655351) | 0x4D18       |      4 |              2 |
| [65535.2](#event-655352) | 0x4D1C       |      2 |              2 |
| [65535.3](#event-655353) | 0x4D1E       |     13 |              3 |
| [65535.4](#event-655354) | 0x4D2B       |     13 |              3 |
| [5221](#event-5221)      | 0x4D38       |      7 |              2 |
| [8](#event-8)            | 0x4D3F       |      1 |              1 |
| [83](#event-83)          | 0x4D40       |      1 |              1 |
| [134](#event-134)        | 0x4D41       |      1 |              1 |
| [153](#event-153)        | 0x4D42       |      1 |              1 |

## DAT References (imed_data)

|   Index | Hex Value   |   Dec Value |
|---------|-------------|-------------|
|       0 | 0x0002      |           2 |
|       1 | 0x0000      |           0 |
|       2 | 0x000F      |          15 |
|       3 | 0x0003      |           3 |
|       4 | 0x2F37      |       12087 |
|       5 | 0x2EFD      |       12029 |
|       6 | 0x40000000  |  1073741824 |
|       7 | 0x0011      |          17 |
|       8 | 0x0012      |          18 |
|       9 | 0x0010      |          16 |
|      10 | 0x0001      |           1 |
|      11 | 0x000C      |          12 |
|      12 | 0x0004      |           4 |
|      13 | 0x0005      |           5 |
|      14 | 0x0006      |           6 |
|      15 | 0x0007      |           7 |
|      16 | 0x0008      |           8 |
|      17 | 0x0009      |           9 |
|      18 | 0x000A      |          10 |
|      19 | 0x000B      |          11 |
|      20 | 0x2FE7      |       12263 |
|      21 | 0x0063      |          99 |
|      22 | 0x0021      |          33 |
|      23 | 0x0042      |          66 |
|      24 | 0x001F      |          31 |
|      25 | 0xFFFFFFFF  |  4294967295 |
|      26 | 0x2F03      |       12035 |
|      27 | 0x2FE8      |       12264 |
|      28 | 0x2F04      |       12036 |
|      29 | 0x0020      |          32 |
|      30 | 0x0017      |          23 |
|      31 | 0x0018      |          24 |
|      32 | 0x2F38      |       12088 |
|      33 | 0x2F39      |       12089 |
|      34 | 0x2F3A      |       12090 |
|      35 | 0x2F3B      |       12091 |
|      36 | 0x3002      |       12290 |
|      37 | 0x300C      |       12300 |
|      38 | 0x2F6C      |       12140 |
|      39 | 0x2F6E      |       12142 |
|      40 | 0x2F69      |       12137 |
|      41 | 0x2F6F      |       12143 |
|      42 | 0x2F70      |       12144 |
|      43 | 0x2F95      |       12181 |
|      44 | 0x2F96      |       12182 |
|      45 | 0x270F      |        9999 |
|      46 | 0x00C8      |         200 |
|      47 | 0x2F6D      |       12141 |
|      48 | 0x026D      |         621 |
|      49 | 0x003C      |          60 |
|      50 | 0x0013      |          19 |
|      51 | 0xFFFF69B6  |  4294928822 |
|      52 | 0xFFFE76C7  |  4294866631 |
|      53 | 0xFFFFF924  |  4294965540 |
|      54 | 0x0200      |         512 |
|      55 | 0xFFFF676B  |  4294928235 |
|      56 | 0xFFFE7975  |  4294867317 |
|      57 | 0xFFFFFD76  |  4294966646 |
|      58 | 0x005A      |          90 |
|      59 | 0x2F97      |       12183 |
|      60 | 0x2F98      |       12184 |
|      61 | 0x2F99      |       12185 |
|      62 | 0x2F9A      |       12186 |
|      63 | 0x2F9B      |       12187 |
|      64 | 0x2F9E      |       12190 |
|      65 | 0x2F9F      |       12191 |
|      66 | 0x2FA7      |       12199 |
|      67 | 0x2F9C      |       12188 |
|      68 | 0x2FA0      |       12192 |
|      69 | 0x2FA1      |       12193 |
|      70 | 0x2FA6      |       12198 |
|      71 | 0x2FA2      |       12194 |
|      72 | 0x2FA3      |       12195 |
|      73 | 0x2FA4      |       12196 |
|      74 | 0x18F8      |        6392 |
|      75 | 0x2FA5      |       12197 |
|      76 | 0xFFFF72B2  |  4294931122 |
|      77 | 0xFFFE6CD3  |  4294864083 |
|      78 | 0x0232      |         562 |
|      79 | 0x2FA8      |       12200 |
|      80 | 0x2FA9      |       12201 |
|      81 | 0x2FAA      |       12202 |
|      82 | 0x2FAB      |       12203 |
|      83 | 0x2FC0      |       12224 |
|      84 | 0x2FAF      |       12207 |
|      85 | 0x2FAC      |       12204 |
|      86 | 0x2FB0      |       12208 |
|      87 | 0x2FB1      |       12209 |
|      88 | 0x2FB2      |       12210 |
|      89 | 0x2FB3      |       12211 |
|      90 | 0x2FB4      |       12212 |
|      91 | 0x2FB5      |       12213 |
|      92 | 0x2FB6      |       12214 |
|      93 | 0xFFFFFFF6  |  4294967286 |
|      94 | 0x2FB7      |       12215 |
|      95 | 0xFFFFFFE0  |  4294967264 |
|      96 | 0xFFFFFFF0  |  4294967280 |
|      97 | 0xFFFFFFF8  |  4294967288 |
|      98 | 0xFFFFFFC2  |  4294967234 |
|      99 | 0xFFFFFFC6  |  4294967238 |
|     100 | 0xFFFFFFCE  |  4294967246 |
|     101 | 0x2FBA      |       12218 |
|     102 | 0x2FBD      |       12221 |
|     103 | 0x2FBC      |       12220 |
|     104 | 0x2FB8      |       12216 |
|     105 | 0x2FBB      |       12219 |
|     106 | 0x2FB9      |       12217 |
|     107 | 0x001E      |          30 |
|     108 | 0xFFFF78C2  |  4294932674 |
|     109 | 0xFFFE869C  |  4294870684 |
|     110 | 0xFFFF760E  |  4294931982 |
|     111 | 0xFFFE88E1  |  4294871265 |
|     112 | 0x1000      |        4096 |
|     113 | 0x1008      |        4104 |
|     114 | 0x0312      |         786 |
|     115 | 0x3003      |       12291 |
|     116 | 0x3004      |       12292 |
|     117 | 0x3005      |       12293 |
|     118 | 0x3006      |       12294 |
|     119 | 0x3007      |       12295 |
|     120 | 0x3008      |       12296 |
|     121 | 0x3009      |       12297 |
|     122 | 0x300A      |       12298 |
|     123 | 0x300B      |       12299 |
|     124 | 0x05F5      |        1525 |
|     125 | 0x0298      |         664 |
|     126 | 0xFFFF955C  |  4294939996 |
|     127 | 0xFFFE906C  |  4294873196 |
|     128 | 0xFFFFF98E  |  4294965646 |
|     129 | 0x0600      |        1536 |
|     130 | 0xFFFF95B6  |  4294940086 |
|     131 | 0xFFFE8EE6  |  4294872806 |
|     132 | 0xFFFF9610  |  4294940176 |
|     133 | 0xFFFE8D60  |  4294872416 |
|     134 | 0xFFFF9700  |  4294940416 |
|     135 | 0xFFFE8C70  |  4294872176 |
|     136 | 0xFFFF9886  |  4294940806 |
|     137 | 0xFFFE8C16  |  4294872086 |
|     138 | 0xFFFF9A0C  |  4294941196 |
|     139 | 0xFFFE8BBC  |  4294871996 |
|     140 | 0x0023      |          35 |
|     141 | 0x1001      |        4097 |
|     142 | 0x1002      |        4098 |
|     143 | 0x1003      |        4099 |
|     144 | 0x1004      |        4100 |
|     145 | 0x1005      |        4101 |
|     146 | 0x1006      |        4102 |
|     147 | 0x1007      |        4103 |
|     148 | 0x1009      |        4105 |
|     149 | 0x100A      |        4106 |
|     150 | 0x100B      |        4107 |
|     151 | 0x100C      |        4108 |
|     152 | 0x100D      |        4109 |
|     153 | 0x100E      |        4110 |
|     154 | 0x100F      |        4111 |
|     155 | 0x0315      |         789 |
|     156 | 0x031A      |         794 |
|     157 | 0x0311      |         785 |
|     158 | 0x0313      |         787 |
|     159 | 0x0324      |         804 |
|     160 | 0x032D      |         813 |
|     161 | 0x032C      |         812 |
|     162 | 0x300D      |       12301 |
|     163 | 0x300E      |       12302 |
|     164 | 0x300F      |       12303 |
|     165 | 0x3010      |       12304 |
|     166 | 0x3011      |       12305 |
|     167 | 0x3012      |       12306 |
|     168 | 0x3013      |       12307 |
|     169 | 0x3014      |       12308 |
|     170 | 0x301D      |       12317 |
|     171 | 0x301E      |       12318 |
|     172 | 0x3015      |       12309 |
|     173 | 0x3018      |       12312 |
|     174 | 0x301A      |       12314 |
|     175 | 0x301B      |       12315 |
|     176 | 0x301C      |       12316 |
|     177 | 0x3016      |       12310 |
|     178 | 0x3017      |       12311 |
|     179 | 0x3019      |       12313 |
|     180 | 0x0032      |          50 |
|     181 | 0x05EE      |        1518 |
|     182 | 0x02AC      |         684 |
|     183 | 0x0014      |          20 |
|     184 | 0x0028      |          40 |
|     185 | 0x0064      |         100 |
|     186 | 0x012C      |         300 |
|     187 | 0x0190      |         400 |
|     188 | 0x01F4      |         500 |
|     189 | 0x0050      |          80 |
|     190 | 0x0031      |          49 |
|     191 | 0x004A      |          74 |
|     192 | 0x0059      |          89 |
|     193 | 0x005E      |          94 |
|     194 | 0x0061      |          97 |
|     195 | 0x0062      |          98 |
|     196 | 0x0019      |          25 |
|     197 | 0x0F7E      |        3966 |
|     198 | 0x109B      |        4251 |
|     199 | 0x109C      |        4252 |
|     200 | 0x109D      |        4253 |
|     201 | 0x1079      |        4217 |
|     202 | 0x10A1      |        4257 |
|     203 | 0x1541      |        5441 |
|     204 | 0x16FB      |        5883 |
|     205 | 0x16FA      |        5882 |
|     206 | 0x16F9      |        5881 |
|     207 | 0x1739      |        5945 |
|     208 | 0x15A6      |        5542 |
|     209 | 0x15AE      |        5550 |
|     210 | 0x15B0      |        5552 |
|     211 | 0x118E      |        4494 |
|     212 | 0x6FFE      |       28670 |
|     213 | 0x6D00      |       27904 |
|     214 | 0x6D01      |       27905 |
|     215 | 0x6E1A      |       28186 |
|     216 | 0x6E1B      |       28187 |
|     217 | 0x6EA5      |       28325 |
|     218 | 0x6EA6      |       28326 |
|     219 | 0x6C42      |       27714 |
|     220 | 0x190B      |        6411 |
|     221 | 0x0078      |         120 |
|     222 | 0x2710      |       10000 |
|     223 | 0x61A8      |       25000 |
|     224 | 0x4E20      |       20000 |
|     225 | 0x3A98      |       15000 |
|     226 | 0x0030      |          48 |
|     227 | 0x0054      |          84 |
|     228 | 0x0068      |         104 |
|     229 | 0x0074      |         116 |
|     230 | 0x007C      |         124 |
|     231 | 0x007E      |         126 |
|     232 | 0x007F      |         127 |
|     233 | 0x0080      |         128 |
|     234 | 0x0046      |          70 |
|     235 | 0x004B      |          75 |
|     236 | 0x0055      |          85 |
|     237 | 0x005F      |          95 |
|     238 | 0x086D      |        2157 |
|     239 | 0x3047      |       12359 |
|     240 | 0x3048      |       12360 |
|     241 | 0x0044      |          68 |
|     242 | 0x0041      |          65 |
|     243 | 0x0026      |          38 |
|     244 | 0x001D      |          29 |

## String References

- **6392**: Obtained $0 gil.
- **12029**: Which do you desire? ([Obs. Frag./Corpuscles/MUM Medals]: $0) [None./$1. ($17 [fragments/cor./medals])/$2. ($18 [fragments/cor./medals])/$3. ($19 [fragments/cor./medals])/$4. ($20 [fragments/cor./medals])/$5. ($21 [fragments/cor./medals])/$6. ($22 [fragments/cor./medals])/$7. ($23 [fragments/cor./medals])/$8. ($24 [fragments/cor./medals])/$9. ($25 [fragments/cor./medals])/$10. ($26 [fragments/cor./medals])/$11. ($27 [fragments/cor./medals])/$12. ($28 [fragments/cor./medals])/$13. ($29 [fragments/cor./medals])/$14. ($30 [fragments/cor./medals])/$15. ($31 [fragments/cor./medals])/$16. ($ [fragments/cor./medals])/Previous page./Next page.]
- **12035**: $1 can be redeemed for $2 [fragment/mweya plasm corpuscle/medal][/s].
- **12036**: Proceed with the exchange? [Yes./No.]
- **12087**: What will you do, oh valued customer? Dare I suggest trading your medals for prizes?
- **12088**: Sometimes you need to just stop and smell the sweet aroma of entertainment. How about engaging in a rousing game of "Guess That Number"?
- **12089**: I urge you to indulge in as many of Adoulin's pastimes as possible. While I may perhaps be taking it out of context, I do believe there is an adage that states "the more the merrier"--especially when it comes to "Boom or Bust".
- **12090**: I know what you're thinking. "I need this dame to better understand the flow of time." Well then, let me be your partner in a round of "On The Dot"?
- **12091**: If you seek a true test of your abilities, I would be more than happy to give my all against you in "Cascade."
- **12137**: How experienced are you? ($[Bayld/Gil]: $0) [Not enough to play./A pigeon. ($1 $[Bayld/Gil])/A honeymooner. ($2 $[Bayld/Gil])/A shill. ($3 $[Bayld/Gil])/A premium player. ($4 $[Bayld/Gil])/A shark. ($5 $[Bayld/Gil])]
- **12140**: Try again? [ /(You're on a hot streak!)] [Nope./Yes, with $3 bayld. (Bayld: $0)/Yes, with $4 gil. (Gil: $1)]
- **12141**: End the amusement? [No, I can't quit now!/Yes, I've had enough.]
- **12142**: What will you do? [Abstain from playing./Play using bayld. (Bayld: $0)/Play using gil. (Gil: $1)/Nothing until I hear an explanation!]
- **12143**: Fancy yourself an accomplished lockpicker? Then test your skills by deciphering combinations within the set amount of tries and make all the [ladies/gents] swoon!
- **12144**: All locks have two digits, which you'll have to deduce by remembering the numbers you've guessed. A little intuition gained from examining them never hurt, either.
- **12181**: What will you do? ($0 chance[/s] remaining.) [Enter a combination./Examine the lock./Give up.]
- **12182**: It appears that you can enter a two-digit combination between $1 and $2.
- **12183**: If you enjoy tossing dice every so often, this may just be the challenge you have been searching for. Who shall reach 11 with a few flicks of the wrist first--you or me?
- **12184**: Either you or I may choose to "shoot" and roll the dice, "stay" and do nothing, or pick from three tricks up your sleeve.
- **12185**: The three tricks in your arsenal of deception include "Sneak Peek," which allows you to see your opponent's shots, using the old "Switcheroo" and trading shots with your opponent, or forcing your opponent to reroll a shot of his choice with "Crooked Die."
- **12186**: These three tricks will spin the wheel of fortune in your favor, but it is precisely because of their immense powers that we must limit their use to once per game.
- **12187**: Make sure you attempt to turn the tables at the right time, or Lady Luck will be the one cleaning house.
- **12188**: You shot a $2, for a total of $3 on turn number $1.
- **12190**: It is now turn number $1 for [you/your opponent].
- **12191**: [You/Your opponent] [shot/stayed].
- **12192**: What will you do? [Shoot./Stay./Use a trick up my sleeve./Fold.]
- **12193**: Which trick will you use? [None, I've changed my mind./Sneak Peek./Switcheroo./Crooked Die.]
- **12194**: Look at which shot? ([Sneak Peek/Switcheroo/Reroll]) [None, I've changed my mind./Shot one. [???/1/2/3/4/5/6]/Shot two. [???/1/2/3/4/5/6]/Shot three. [???/1/2/3/4/5/6]/Shot four. [???/1/2/3/4/5/6]/Shot five. [???/1/2/3/4/5/6]/Shot six. [???/1/2/3/4/5/6]/Shot seven. [???/1/2/3/4/5/6]/Shot eight. [???/1/2/3/4/5/6]/Shot nine. [???/1/2/3/4/5/6]/Shot ten. [???/1/2/3/4/5/6]/Shot eleven. [???/1/2/3/4/5/6]]
- **12195**: You snuck a peek at one of your opponent's dice! Shot number $1 was a $2 for him.
- **12196**: You used the old switcheroo! Your $1 has been exchanged with your opponent's $2, and your total is now $3.
- **12197**: You forced your opponent to shoot again! His shot for turn number $1 is now $2.
- **12198**: Choose [your opponent's/your] die and [peek at it/exchange it/make him shoot again].
- **12199**: Your opponent's total: $1[/ (Bust!)] Your total: $2[/ (Bust!)] [You win, and thus have the right to gloat all you want until your rematch./Don't go throwing your dice just because you lost, all right?/You are equally matched, and have drawn.]
- **12200**: Clear your mind and ready your chronological senses, for this amusement pits you against time's dilatory creep. The objective here's to speak to me a certain amount of times at the intervals I tell you.
- **12201**: Just so you know, I'll only give you the length of time to wait and how far off you were from the specified interval when spoken to. Furthermore, the difference between your guess and the answer is cumulative.
- **12202**: If you're too slow one round, you can make up time by being a little fast the next.
- **12203**: Finally, you claim victory by staying within a certain number of seconds by the end of the final round. I hope this cleared things up, and enjoy honing your mastery over Father Time.
- **12204**: I take it that means you're in the correct state of mind to challenge the forces of time. Let's do this!
- **12207**: It's judgment time! You were [a total of /a total of /]$1 second[/s] [early./late./off. In other words, perfectly on-target!] [It seems that the concept of time eludes you./Congratulations, you've temporarily mastered the forces of time!]
- **12208**: A wet and wild adventure, this. You and I take turns filling a goblet with water until the cup runneth over, with the offending competitor sent to drown in shame.
- **12209**: The rub is that it looks as if there is more water in the goblet than actually exists. Thus you will need to exercise the entirety of your patience and perspicacity to wrench victory from my clutches.
- **12210**: As if that were not enough, I have added an extra layer of frustration by granting us competitors certain abilities dubbed "afflictions" and "remedies."
- **12211**: On the one hand, afflictions allow you to do such things as change the amount of water I see.
- **12212**: You can also use them to negate the effects of my remedies or limit the amount of water I can pour.
- **12213**: On the other hand, remedies help increase or decrease either the amount of the water you can pour or the amount of water in the goblet. As a final twist, they can also negate the effects of afflictions.
- **12214**: Afflictions and remedies cause the tides of competition to surge and swell to an extreme degree, so we restrict their use to once per game. Be prudent with which you use and when.
- **12215**: What will you do? [Pour away!/Use an affliction./Use a remedy./Throw in the towel.]
- **12216**: How will you afflict your opponent? [I won't, that's how./Increase amount poured./Decrease amount poured./Fabricate water level./Remove a remedy./Restrict to greater pouring options./Restrict to lesser pouring options.]
- **12217**: What remedy will you use? [None, that's what!/Increase amount poured./Decrease amount poured./Cure an affliction./Increase maximum water level./Decrease maximum water level.]
- **12218**: Pour how much? (Currently $1 onz[/es].) [One onz./Two onzes./Three onzes./Four onzes./Five onzes.]
- **12219**: [You used an affliction on Etienne./You used a remedy on yourself./You cured an affliction.]
- **12220**: [You/Etienne] poured water into the goblet. There [is/are] currently $1 onz[/es] of water in it.
- **12221**: [You/Etienne] poured water into the goblet, causing it to overflow. [You have bested your challenger. Claim what is yours by lapping the tears of defeat from his face and tasting the glorious sorrow contained within./How does complete and utter defeat feel? Will you even be able to sleep once night falls?]
- **12224**: Even pioneers like you seeking refuge in amusements can't escape the time's inevitable ticking. The last time you played this game, you were disqualified for exceeding the time limit.
- **12263**: How many do you wish to receive? [None./$1./$2./$3./$4./$5./$6./$7./$8./$9./$10./$11./$12.]
- **12264**: You wish to purchase $3 $0$0 ? Then I shall require $2 [fragment/mweya plasm corpuscle/medal/bayld clump][/s].
- **12290**: I know your type. You're one of those pioneer-wioneers who likes to try [his/her] luck. Well, then, there is no more appropriataru game for you in all of Adoulin than the oft-lauded Box...of...Fortune!
- **12291**: What makes this game so greataru is that it requires not a lick of skill whatsoever.
- **12292**: An egalitarian-warian roll of the dice determines which of the $1 treasure chests you'll open. Depending on the trove inside, you'll get somewhere between a handful and a mountain of mummers' medals.
- **12293**: The three types of ticketarus to wealth that dwell inside chests are: crystals such as $2, spirits like $3, and jewels the likes of $4.
- **12294**: Crystals are the condensed-wensed form of $5 medal[/s], spirits scare $6 medal[/s] into your clutches, and jewels glintaru with the power of $7 medal[/s].
- **12295**: What's more, unboxing a jewel immediataruly puts you on a hot streak more scorching-worching than the fires of Moh Gates.
- **12296**: Once you're on a hot streak, you have a high chance of revealing more jewels, but all good things must come to an end. Should either a crystal or spirit pop out from a chestaru, your flames get doused.
- **12297**: Now, you're free to stop playing anytime you wish, but I wouldn't recommend doing it while you're on a hot streak. It would mean snuffing-wuffing out your streak faster than a chapuli's horn can slice through your legs.
- **12298**: No funny stuff here, just a plain-wain roll of the dice.
- **12299**: The chest opens to reveal $1! You win $2 mummers' medal[/s]!
- **12300**: Welcome to the wonderful arena that is "Three-Card Circus." I, Olivaine, will be your ringmistress.
- **12301**: To win this greatest amusement on Vana'diel, you must collect suit and number combinations of the three cards you are dealt. Each card will be imprinted with one of four suits and six numbers.
- **12302**: It is possible to trade in a maximum of three times, and the amount of cards you draw is equal to the number you discard. Of course, it is acceptable to step down from exchanging should you feel you are walking on a tightrope.
- **12303**: As for the combinations, each one is worth a different number of points. In the event that all three of your cards display different numbers, only the largest one shall count toward your point total.
- **12304**: If you possess a pair, you gain a number of points equal to twice the number of your remaining card.
- **12305**: Furthermore, should you have three of a kind, you will receive fifty points regardless of the cards' number.
- **12306**: Additionally, having cards of all the same suit gives you points equal to twice the total of the numbers on the cards in your hand.
- **12307**: Lastly, should the numbers on your cards total eleven, you will receive three times the amount of points.
- **12308**: %[Your/Olivaine's] hand consists of: A [oo!/o"/o$]$9, a [oo!/o"/o$]$10, and a [oo!/o"/o$]$11.
- **12309**: What will you do? [View your hand./Trade in./View discard pile./Listen to an explanation./Stop trading.]
- **12310**: The following cards have been discarded. [Go back./[oo!/o"/o$]$19./[oo!/o"/o$]$20./[oo!/o"/o$]$21./[oo!/o"/o$]$22./[oo!/o"/o$]$23./[oo!/o"/o$]$24./[oo!/o"/o$]$25./[oo!/o"/o$]$26./[oo!/o"/o$]$27./[oo!/o"/o$]$28./[oo!/o"/o$]$29./[oo!/o"/o$]$30./[oo!/o"/o$]$31./[oo!/o"/o$]$ ./[oo!/o"/o$]$!./[oo!/o"/o$]$"./[oo!/o"/o$]$#./[oo!/o"/o$]$$.]
- **12311**: This card has already been dealt.
- **12312**: Trade in which one? [None./[oo!/o"/o$]$9. ([Hold/Trade])/[oo!/o"/o$]$10. ([Hold/Trade])/[oo!/o"/o$]$11. ([Hold/Trade])/Confirm trade.]
- **12313**: %[You have/Olivaine has] chosen not to trade in.
- **12314**: %[You/Olivaine] discard%[/s] a [oo!/o"/o$]$9 and draw%[/s] $& card[/s]!
- **12315**: %[You/Olivaine] discard%[/s] a [oo!/o"/o$]$9 and a [oo!/o"/o$]$10, then draw%[/s] $& card[/s]!
- **12316**: %[You/Olivaine] discard%[/s] a [oo!/o"/o$]$9, a [oo!/o"/o$]$10, and a [oo!/o"/o$]$11, then draw%[/s] $& card[/s]!
- **12360**: Oh, that's too bad, because we would love for you to help us with the colonization effort. If you are willing, then by all means, speak with Brenton so he can outfit you with one.

## Events

### Event 65535

#### Metadata

| Field        | Value   |
|--------------|---------|
| Entrypoint   | 0x0000  |
| Data Size    | 1 bytes |
| Instructions | 1       |

```
      00 01 02 03 04 05 06 07  08 09 0A 0B 0C 0D 0E 0F
      -- -- -- -- -- -- -- --  -- -- -- -- -- -- -- --
0000: 00                                                .               
```

#### Opcodes

```
  0: 0x0000 [0x00] END_REQSTACK()
```

### Event 7604

#### Metadata

| Field        | Value    |
|--------------|----------|
| Entrypoint   | 0x0001   |
| Data Size    | 13 bytes |
| Instructions | 5        |

```
      00 01 02 03 04 05 06 07  08 09 0A 0B 0C 0D 0E 0F
      -- -- -- -- -- -- -- --  -- -- -- -- -- -- -- --
0000:    06 48 00 03 49 00 00  80 1A 43 4B 21 00         .H..I....CK!.  
```

#### Opcodes

```
  0: 0x0001 [0x06] ExtData[1]->WorkLocal[72] = 0
  1: 0x0004 [0x03] ExtData[1]->WorkLocal[73] = 2*
  2: 0x0009 [0x1A] CALL_SUBROUTINE(address=0x4B43)
  3: 0x000C [0x21] END_EVENT
  4: 0x000D [0x00] END_REQSTACK()
```

### Event 7553

#### Metadata

| Field        | Value   |
|--------------|---------|
| Entrypoint   | 0x000E  |
| Data Size    | 5 bytes |
| Instructions | 3       |

```
      00 01 02 03 04 05 06 07  08 09 0A 0B 0C 0D 0E 0F
      -- -- -- -- -- -- -- --  -- -- -- -- -- -- -- --
0000:                                            1A 09                ..
0010: 21 21 00                                          !!.             
```

#### Opcodes

```
  0: 0x000E [0x1A] CALL_SUBROUTINE(address=0x2109)
  1: 0x0011 [0x21] END_EVENT
  2: 0x0012 [0x00] END_REQSTACK()
```

### Event 7558

#### Metadata

| Field        | Value       |
|--------------|-------------|
| Entrypoint   | 0x0013      |
| Data Size    | 19706 bytes |
| Instructions | 576         |

```
      00 01 02 03 04 05 06 07  08 09 0A 0B 0C 0D 0E 0F
      -- -- -- -- -- -- -- --  -- -- -- -- -- -- -- --
0010:          1A 23 21 21 00  1E F0 FF FF 7F 1A 63 47     .#!!.......cG
0020: 03 0E 00 03 10 03 0F 00  04 10 03 10 00 05 10 41  ...............A
0030: 01 80 02 80 0F 00 13 00  41 01 80 03 80 0E 00 14  ........A.......
0040: 00 1D 04 80 23 05 09 00  06 08 00 06 2E 00 06 26  ....#..........&
0050: 00 02 02 00 01 80 00 E6  02 1A E7 02 1A 29 04 03  .............)..
0060: 02 10 10 00 03 19 17 00  80 24 05 80 08 00 00 00  .........$......
0070: 25 02 00 10 01 80 00 84  00 03 01 10 06 80 05 02  %...............
0080: 00 01 A8 00 02 00 10 07  80 00 9A 00 02 26 00 01  .............&..
0090: 80 02 97 00 0C 26 00 01  A8 00 02 00 10 08 80 00  .....&..........
00A0: A8 00 0B 26 00 01 A8 00  03 08 00 00 10 02 08 00  ...&............
00B0: 07 80 80 BB 00 06 08 00  01 C9 00 02 08 00 08 80  ................
00C0: 80 C9 00 06 08 00 01 C9  00 02 08 00 01 80 01 E3  ................
00D0: 02 06 19 00 03 19 00 26  00 14 19 00 09 80 07 19  .......&........
00E0: 00 08 00 02 19 00 2E 00  01 F3 00 03 2E 00 19 00  ................
00F0: 05 09 00 0C 19 00 9D 00  53 4A 1F 00 19 00 06 0D  ........SJ......
0100: 00 02 1F 00 0A 80 00 11  01 03 0D 00 0A 80 01 F7  ................
0110: 01 02 1F 00 0A 80 80 1C  01 01 F7 01 02 1F 00 0B  ................
0120: 80 80 80 01 03 03 10 0A  80 03 04 10 00 80 03 05  ................
0130: 10 03 80 03 06 10 0C 80  03 07 10 0D 80 03 08 10  ................
0140: 0E 80 03 09 10 0F 80 03  00 17 10 80 03 01 17 11  ................
0150: 80 03 02 17 12 80 03 03  17 13 80 03 04 17 0B 80  ................
0160: 03 01 00 0A 80 24 14 80  0A 80 01 00 25 02 00 10  .....$......%...
0170: 01 80 00 78 01 01 78 01  03 0D 00 00 10 01 F7 01  ...x..x.........
0180: 02 1F 00 15 80 80 F7 01  03 03 10 0A 80 03 04 10  ................
0190: 16 80 03 05 10 17 80 03  06 10 15 80 40 0D 80 18  ............@...
01A0: 80 01 00 19 80 3C 01 00  01 80 0A 80 24 14 80 0A  .....<......$...
01B0: 80 01 00 25 02 00 10 0A  80 00 C4 01 03 0D 00 0A  ...%............
01C0: 80 01 F4 01 02 00 10 00  80 00 D4 01 03 0D 00 16  ................
01D0: 80 01 F4 01 02 00 10 03  80 00 E4 01 03 0D 00 17  ................
01E0: 80 01 F4 01 02 00 10 0C  80 00 F4 01 03 0D 00 15  ................
01F0: 80 01 F4 01 01 F7 01 9D  00 C3 49 03 10 19 00 9D  ..........I.....
0200: 00 F3 49 04 10 19 00 9D  00 23 4A 1C 00 19 00 06  ..I......#J.....
0210: 25 00 02 1C 00 01 80 00  20 02 05 25 00 01 41 02  %....... ..%..A.
0220: 0C 1C 00 3E 13 00 1C 00  30 02 05 25 00 01 41 02  ...>....0..%..A.
0230: 07 1C 00 10 80 3E 13 00  1C 00 41 02 03 25 00 00  .....>....A..%..
0240: 80 02 25 00 00 80 00 4E  02 14 04 10 03 80 93 03  ..%....N........
0250: 10 02 1F 00 0A 80 00 65  02 03 19 17 00 80 1D 1A  .......e........
0260: 80 23 01 78 02 03 19 17  00 80 14 04 10 0D 00 03  .#.x............
0270: 05 10 0D 00 1D 1B 80 23  93 01 80 03 19 17 00 80  .......#........
0280: 03 02 10 10 00 24 1C 80  09 00 01 80 25 02 00 10  .....$......%...
0290: 01 80 00 D3 02 42 40 01  80 0F 80 01 10 1D 80 06  .....B@.........
02A0: 19 00 03 19 00 26 00 14  19 00 09 80 07 19 00 08  .....&..........
02B0: 00 0C 19 00 40 10 80 1E  80 01 10 19 00 40 1F 80  ....@........@..
02C0: 18 80 01 10 0D 00 43 00  43 01 03 10 00 09 10 2E  ......C.C.......
02D0: 01 DE 02 02 00 10 0A 80  00 DE 02 01 DE 02 03 09  ................
02E0: 00 00 10 01 51 00 1B 1A  A9 47 06 1D 00 06 1C 00  ....Q....G......
02F0: 06 21 00 06 27 00 06 1E  00 03 27 00 26 00 0B 27  .!..'.....'.&..'
0300: 00 14 27 00 09 80 02 27  00 1F 80 02 18 03 3F 27  ..'....'......?'
0310: 00 1F 80 09 80 01 1D 03  03 27 00 09 80 02 1D 00  .........'......
0320: 27 00 03 8D 03 03 1E 00  26 00 14 1E 00 09 80 07  '.......&.......
0330: 1E 00 1D 00 9D 00 23 4A  1C 00 1E 00 06 25 00 02  ......#J.....%..
0340: 1C 00 01 80 00 4D 03 05  25 00 01 6C 03 0C 1C 00  .....M..%..l....
0350: 3E 13 00 1C 00 5D 03 05  25 00 01 6C 03 07 1C 00  >....]..%..l....
0360: 10 80 3E 13 00 1C 00 6C  03 05 25 00 02 25 00 01  ..>....l..%..%..
0370: 80 02 87 03 9D 00 C3 49  20 00 1E 00 9D 05 C3 47  .......I ......G
0380: 20 00 1D 00 01 87 03 0B  1D 00 01 1D 03 06 1D 00   ...............
0390: 02 1D 00 1F 80 03 28 04  03 1E 00 26 00 14 1E 00  ......(....&....
03A0: 09 80 07 1E 00 1D 00 9D  00 23 4A 1C 00 1E 00 06  .........#J.....
03B0: 25 00 02 1C 00 01 80 00  C0 03 05 25 00 01 E1 03  %..........%....
03C0: 0C 1C 00 3E 13 00 1C 00  D0 03 05 25 00 01 E1 03  ...>.......%....
03D0: 07 1C 00 10 80 3E 13 00  1C 00 E1 03 03 25 00 00  .....>.......%..
03E0: 80 02 25 00 01 80 02 22  04 03 1E 00 26 00 14 1E  ..%...."....&...
03F0: 00 09 80 07 1E 00 1D 00  03 21 00 1D 00 07 21 00  .........!....!.
0400: 09 80 9D 00 F3 49 20 00  1E 00 02 25 00 00 80 00  .....I ....%....
0410: 17 04 14 20 00 03 80 9D  05 C3 47 20 00 21 00 01  ... ......G .!..
0420: 22 04 0B 1D 00 01 90 03  1B 06 1D 00 06 00 00 06  "...............
0430: 27 00 06 1E 00 03 27 00  26 00 0B 27 00 14 27 00  '.....'.&..'..'.
0440: 09 80 02 27 00 1F 80 02  54 04 3F 27 00 1F 80 09  ...'....T.?'....
0450: 80 01 59 04 03 27 00 09  80 02 1D 00 27 00 03 D7  ..Y..'......'...
0460: 04 9D 00 C3 47 20 00 1D  00 02 20 00 01 80 00 7B  ....G .... ....{
0470: 04 3C 00 00 1D 00 0A 80  01 D1 04 03 19 00 26 00  .<............&.
0480: 14 19 00 09 80 07 19 00  1D 00 9D 00 83 4A 22 00  .............J".
0490: 19 00 02 22 00 01 80 80  AC 04 02 8B 7F 22 00 01  ..."........."..
04A0: A9 04 3C 00 00 1D 00 0A  80 01 D1 04 02 22 00 0A  ..<.........."..
04B0: 80 80 C6 04 02 8B 7F 22  00 01 C3 04 3C 00 00 1D  ......."....<...
04C0: 00 0A 80 01 D1 04 02 22  00 00 80 80 D1 04 01 D1  ......."........
04D0: 04 0B 1D 00 01 59 04 40  27 00 18 80 00 00 19 80  .....Y.@'.......
04E0: 10 00 00 0A 80 03 27 00  26 00 0B 27 00 14 27 00  ......'.&..'..'.
04F0: 09 80 02 26 00 01 80 02  01 05 3D 00 00 07 80 0A  ...&......=.....
0500: 80 02 27 00 1F 80 03 10  05 3D 00 00 08 80 0A 80  ..'......=......
0510: 1B 1E F0 FF FF 7F 1A 63  47 03 47 00 02 10 03 0E  .......cG.G.....
0520: 00 03 10 03 0F 00 04 10  03 10 00 05 10 03 11 00  ................
0530: 06 10 41 01 80 02 80 0F  00 13 00 41 01 80 03 80  ..A........A....
0540: 0E 00 14 00 02 0C 00 01  80 80 53 05 1D 20 80 23  ..........S.. .#
0550: 01 A9 05 02 0C 00 0A 80  80 62 05 1D 21 80 23 01  .........b..!.#.
0560: A9 05 02 0C 00 00 80 80  71 05 1D 22 80 23 01 A9  ........q..".#..
0570: 05 02 0C 00 03 80 80 80  05 1D 23 80 23 01 A9 05  ..........#.#...
0580: 02 0C 00 0C 80 80 8F 05  1D 24 80 23 01 A9 05 02  .........$.#....
0590: 0C 00 0D 80 80 9E 05 1D  25 80 23 01 A9 05 02 0C  ........%.#.....
05A0: 00 0E 80 80 A9 05 01 A9  05 06 00 00 1A 0B 08 02  ................
05B0: 0B 00 01 80 02 64 06 42  03 15 00 0A 00 0C 15 00  .....d.B........
05C0: 06 03 00 02 03 00 01 80  00 64 06 1A AA 07 02 16  .........d......
05D0: 00 0A 80 80 F4 05 03 00  00 10 80 1A 0B 08 03 15  ................
05E0: 00 0A 00 0C 15 00 02 0B  00 01 80 00 F1 05 05 03  ................
05F0: 00 01 61 06 02 16 00 00  80 80 61 06 05 03 00 02  ..a.......a.....
0600: 0C 00 01 80 80 0D 06 1A  9D 09 01 5E 06 02 0C 00  ...........^....
0610: 0A 80 80 1B 06 1A A2 0C  01 5E 06 02 0C 00 00 80  .........^......
0620: 80 29 06 1A FF 21 01 5E  06 02 0C 00 03 80 80 37  .)...!.^.......7
0630: 06 1A 40 22 01 5E 06 02  0C 00 0C 80 80 45 06 1A  ..@".^.......E..
0640: BF 2C 01 5E 06 02 0C 00  0D 80 80 53 06 1A 24 37  .,.^.......S..$7
0650: 01 5E 06 02 0C 00 0E 80  80 5E 06 01 5E 06 01 61  .^.......^..^..a
0660: 06 01 C3 05 1B 06 18 00  02 12 00 01 80 02 76 06  ..............v.
0670: 05 17 00 01 79 06 06 17  00 03 02 10 10 00 03 03  ....y...........
0680: 10 11 00 03 04 10 17 00  03 19 00 0C 00 14 19 00  ................
0690: 0D 80 07 19 00 15 00 9D  00 63 48 05 10 19 00 9D  .........cH.....
06A0: 00 13 48 06 10 19 00 24  26 80 0B 00 01 80 25 02  ..H....$&.....%.
06B0: 00 10 01 80 00 C2 06 03  01 10 06 80 05 02 00 01  ................
06C0: C2 06 03 0B 00 00 10 02  0B 00 01 80 02 A9 07 06  ................
06D0: 05 00 02 05 00 01 80 00  A9 07 1A AA 07 02 16 00  ................
06E0: 0A 80 80 39 07 03 02 10  10 00 03 03 10 11 00 03  ...9............
06F0: 04 10 17 00 03 19 00 0C  00 14 19 00 0D 80 07 19  ................
0700: 00 15 00 9D 00 63 48 05  10 19 00 9D 00 13 48 06  .....cH.......H.
0710: 10 19 00 24 26 80 0B 00  01 80 25 02 00 10 01 80  ...$&.....%.....
0720: 00 31 07 03 01 10 06 80  05 05 00 05 02 00 01 31  .1.............1
0730: 07 03 0B 00 00 10 01 A6  07 02 16 00 00 80 80 A6  ................
0740: 07 02 0C 00 01 80 80 4F  07 1A B6 0B 01 A0 07 02  .......O........
0750: 0C 00 0A 80 80 5D 07 1A  89 20 01 A0 07 02 0C 00  .....]... ......
0760: 00 80 80 6B 07 1A 16 22  01 A0 07 02 0C 00 03 80  ...k..."........
0770: 80 79 07 1A AA 2B 01 A0  07 02 0C 00 0C 80 80 87  .y...+..........
0780: 07 1A 9D 2F 01 A0 07 02  0C 00 0D 80 80 95 07 1A  .../............
0790: A3 42 01 A0 07 02 0C 00  0E 80 80 A0 07 01 A0 07  .B..............
07A0: 05 05 00 01 A6 07 01 D2  06 1B 02 0B 00 0A 80 80  ................
07B0: DA 07 40 01 80 0F 80 01  10 00 80 40 10 80 1E 80  ..@........@....
07C0: 01 10 15 00 43 00 43 01  03 10 00 05 10 03 11 00  ....C.C.........
07D0: 06 10 03 16 00 09 10 01  0A 08 02 0B 00 00 80 80  ................
07E0: 0A 08 40 01 80 0F 80 01  10 0A 80 40 10 80 1E 80  ..@........@....
07F0: 01 10 15 00 43 00 43 01  03 10 00 05 10 03 11 00  ....C.C.........
0800: 06 10 03 16 00 09 10 01  0A 08 1B 06 06 00 06 0A  ................
0810: 00 06 0B 00 02 06 00 01  80 00 8A 09 03 02 10 10  ................
0820: 00 03 03 10 11 00 06 0A  00 24 27 80 0B 00 01 80  .........$'.....
0830: 25 02 00 10 01 80 00 44  08 03 01 10 06 80 05 06  %......D........
0840: 00 01 CA 08 02 00 10 0A  80 00 52 08 05 0A 00 01  ..........R.....
0850: CA 08 02 00 10 00 80 00  60 08 05 0A 00 01 CA 08  ........`.......
0860: 02 00 10 03 80 00 CA 08  02 0C 00 01 80 80 76 08  ..............v.
0870: 1A 94 09 01 C7 08 02 0C  00 0A 80 80 84 08 1A 8D  ................
0880: 0C 01 C7 08 02 0C 00 00  80 80 92 08 1A 12 21 01  ..............!.
0890: C7 08 02 0C 00 03 80 80  A0 08 1A 23 22 01 C7 08  ...........#"...
08A0: 02 0C 00 0C 80 80 AE 08  1A 7F 2C 01 C7 08 02 0C  ..........,.....
08B0: 00 0D 80 80 BC 08 1A 07  37 01 C7 08 02 0C 00 0E  ........7.......
08C0: 80 80 C7 08 01 C7 08 01  CA 08 03 0B 00 00 10 02  ................
08D0: 0A 00 01 80 02 87 09 06  0A 00 06 1D 00 02 0B 00  ................
08E0: 0A 80 80 1F 09 03 02 10  10 00 02 1D 00 0D 80 03  ................
08F0: 17 09 03 19 00 0C 00 14  19 00 0D 80 07 19 00 1D  ................
0900: 00 9D 00 63 48 21 00 19  00 9D 05 C3 47 21 00 1D  ...cH!......G!..
0910: 00 0B 1D 00 01 EA 08 03  1C 17 01 80 01 61 09 02  .............a..
0920: 0B 00 00 80 80 61 09 03  02 10 11 00 02 1D 00 0D  .....a..........
0930: 80 03 59 09 03 19 00 0C  00 14 19 00 0D 80 07 19  ..Y.............
0940: 00 1D 00 9D 00 13 48 21  00 19 00 9D 05 C3 47 21  ......H!......G!
0950: 00 1D 00 0B 1D 00 01 2C  09 03 1C 17 0A 80 01 61  .......,.......a
0960: 09 24 28 80 01 80 01 80  25 02 00 10 01 80 00 77  .$(.....%......w
0970: 09 06 0B 00 01 77 09 03  0A 00 00 10 02 0A 00 01  .....w..........
0980: 80 02 87 09 05 06 00 01  14 08 1B 03 0C 00 01 80  ................
0990: 1A 11 05 1B 1D 29 80 23  1D 2A 80 23 1B 06 02 00  .....).#.*.#....
09A0: 1A B6 0B 02 02 00 01 80  00 5A 0B 06 18 00 06 1E  .........Z......
09B0: 00 06 16 00 03 02 10 1D  00 24 2B 80 01 80 01 80  .........$+.....
09C0: 25 02 00 10 01 80 00 9D  0A 03 03 10 1A 00 03 04  %...............
09D0: 10 1B 00 48 2C 80 23 71  12 0A 80 00 80 71 13 1E  ...H,.#q.....q..
09E0: 00 02 1E 00 1A 00 03 EE  09 03 1E 00 2D 80 02 1E  ............-...
09F0: 00 1B 00 02 FB 09 03 1E  00 2D 80 40 01 80 0F 80  .........-.@....
0A00: 01 10 03 80 40 10 80 1E  80 01 10 1E 00 40 1F 80  ....@........@..
0A10: 18 80 01 10 1D 00 43 00  43 01 03 16 00 09 10 02  ......C.C.......
0A20: 16 00 01 80 80 2F 0A 03  18 00 01 80 01 9A 0A 02  ...../..........
0A30: 16 00 0A 80 80 66 0A 0C  1D 00 02 1D 00 01 80 00  .....f..........
0A40: 5E 0A 45 2E 80 F0 FF FF  7F F0 FF FF 7F 73 30 33  ^.E..........s03
0A50: 32 01 80 03 18 00 0A 80  06 12 00 01 63 0A 03 18  2...........c...
0A60: 00 01 80 01 9A 0A 02 16  00 00 80 80 9A 0A 45 2E  ..............E.
0A70: 80 F0 FF FF 7F F0 FF FF  7F 73 30 33 31 01 80 2C  .........s031..,
0A80: D4 00 10 01 D4 00 10 01  6F 70 65 6E 06 1D 00 03  ........open....
0A90: 18 00 00 80 0B 12 00 01  9A 0A 01 33 0B 02 00 10  ...........3....
0AA0: 0A 80 00 F4 0A 40 01 80  0F 80 01 10 0C 80 40 1F  .....@........@.
0AB0: 80 18 80 01 10 1D 00 43  00 43 01 03 10 00 05 10  .......C.C......
0AC0: 03 11 00 06 10 0C 1D 00  02 1D 00 01 80 00 EC 0A  ................
0AD0: 45 2E 80 F0 FF FF 7F F0  FF FF 7F 73 30 33 32 01  E..........s032.
0AE0: 80 03 18 00 0A 80 06 12  00 01 F1 0A 03 18 00 01  ................
0AF0: 80 01 33 0B 02 00 10 00  80 00 33 0B 24 2F 80 01  ..3.......3.$/..
0B00: 80 01 80 25 02 00 10 01  80 00 14 0B 03 18 00 01  ...%............
0B10: 80 01 30 0B 02 00 10 0A  80 00 30 0B 06 1D 00 06  ..0.......0.....
0B20: 12 00 03 01 10 06 80 06  18 00 05 02 00 01 30 0B  ..............0.
0B30: 01 33 0B 02 02 00 01 80  00 57 0B 02 12 00 01 80  .3.......W......
0B40: 02 49 0B 05 17 00 01 4C  0B 06 17 00 02 18 00 01  .I.....L........
0B50: 80 02 57 0B 1A 65 06 01  A3 09 45 2E 80 F0 FF FF  ..W..e....E.....
0B60: 7F F0 FF FF 7F 66 64 6F  31 01 80 55 2E 80 F0 FF  .....fdo1..U....
0B70: FF 7F F0 FF FF 7F 66 64  6F 31 52 30 80 F0 FF FF  ......fdo1R0....
0B80: 7F F0 FF FF 7F 73 30 38  34 92 00 F8 FF FF 7F 4E  .....s084......N
0B90: 00 F0 FF FF 7F 80 F0 FF  FF 7F 1E F0 FF FF 7F 46  ...............F
0BA0: 00 1C 31 80 45 2E 80 F0  FF FF 7F F0 FF FF 7F 66  ..1.E..........f
0BB0: 64 69 32 01 80 1B 45 2E  80 F0 FF FF 7F F0 FF FF  di2...E.........
0BC0: 7F 66 64 6F 31 01 80 55  2E 80 F0 FF FF 7F F0 FF  .fdo1..U........
0BD0: FF 7F 66 64 6F 31 46 01  38 32 80 4E 01 F0 FF FF  ..fdo1F.82.N....
0BE0: 7F 7B F8 FF FF 7F 2F 00  D4 00 10 01 4E 00 D4 00  .{..../.....N...
0BF0: 10 01 92 01 F8 FF FF 7F  59 05 D4 00 10 01 01 BA  ........Y.......
0C00: D4 00 10 01 33 80 34 80  35 80 36 80 37 37 80 38  ....3.4.5.6.77.8
0C10: 80 39 80 36 80 80 D4 00  10 01 80 F8 FF FF 7F 69  .9.6...........i
0C20: 01 0A 80 2C D4 00 10 01  D4 00 10 01 63 6C 6F 73  ...,........clos
0C30: 1C 3A 80 69 00 0A 80 45  30 80 F0 FF FF 7F F0 FF  .:.i...E0.......
0C40: FF 7F 73 30 38 34 01 80  1C 02 80 45 2E 80 F0 FF  ..s084.....E....
0C50: FF 7F F0 FF FF 7F 66 64  69 31 01 80 03 19 00 0C  ......fdi1......
0C60: 00 14 19 00 0D 80 07 19  00 15 00 9D 00 03 49 1A  ..............I.
0C70: 00 19 00 9D 00 13 49 1B  00 19 00 9D 00 23 49 1D  ......I......#I.
0C80: 00 19 00 1B 03 0C 00 0A  80 1A 11 05 1B 1D 3B 80  ..............;.
0C90: 23 1D 3C 80 23 1D 3D 80  23 1D 3E 80 23 1D 3F 80  #.<.#.=.#.>.#.?.
0CA0: 23 1B 06 02 00 06 28 00  06 29 00 06 2C 00 06 2D  #.....(..)..,..-
0CB0: 00 1A 89 20 02 02 00 01  80 00 87 0D 06 18 00 1A  ... ............
0CC0: 65 1F 0B 2D 00 02 2A 00  01 80 80 0B 0D 02 2B 00  e..-..*.......+.
0CD0: 0A 80 00 EF 0C 03 02 10  01 80 03 03 10 2D 00 03  .............-..
0CE0: 04 10 0A 80 48 40 80 23  48 41 80 23 01 08 0D 1A  ....H@.#HA.#....
0CF0: 14 0F 02 2B 00 00 80 80  08 0D 03 01 10 06 80 06  ...+............
0D00: 18 00 05 02 00 01 08 0D  01 60 0D 02 2A 00 0A 80  .........`..*...
0D10: 80 60 0D 02 2B 00 0A 80  00 26 0D 1A D8 0D 03 18  .`..+....&......
0D20: 00 1F 00 01 5D 0D 1A 14  0F 02 2B 00 01 80 80 34  ....].....+....4
0D30: 0D 01 5D 0D 02 2B 00 0A  80 80 47 0D 1A D8 0D 03  ..]..+....G.....
0D40: 18 00 1F 00 01 5D 0D 02  2B 00 00 80 80 5D 0D 03  .....]..+....]..
0D50: 01 10 06 80 06 18 00 05  02 00 01 5D 0D 01 60 0D  ...........]..`.
0D60: 02 02 00 01 80 00 84 0D  02 12 00 01 80 02 76 0D  ..............v.
0D70: 05 17 00 01 79 0D 06 17  00 02 18 00 01 80 02 84  ....y...........
0D80: 0D 1A 65 06 01 B4 0C 45  2E 80 F0 FF FF 7F F0 FF  ..e....E........
0D90: FF 7F 66 64 6F 31 01 80  55 2E 80 F0 FF FF 7F F0  ..fdo1..U.......
0DA0: FF FF 7F 66 64 6F 31 52  30 80 F0 FF FF 7F F0 FF  ...fdo1R0.......
0DB0: FF 7F 73 30 38 35 92 00  F8 FF FF 7F 1E F0 FF FF  ..s085..........
0DC0: 7F 46 00 1C 31 80 45 2E  80 F0 FF FF 7F F0 FF FF  .F..1.E.........
0DD0: 7F 66 64 69 32 01 80 1B  06 1A 00 06 1B 00 02 28  .fdi2..........(
0DE0: 00 13 80 02 E9 0D 05 1B  00 02 29 00 13 80 02 F4  ..........).....
0DF0: 0D 05 1A 00 06 1E 00 02  1B 00 01 80 02 17 0E 02  ................
0E00: 1A 00 01 80 02 0F 0E 03  07 10 00 80 01 14 0E 03  ................
0E10: 07 10 01 80 01 4C 0E 02  1A 00 01 80 02 27 0E 03  .....L.......'..
0E20: 07 10 0A 80 01 4C 0E 02  29 00 28 00 03 37 0E 03  .....L..).(..7..
0E30: 07 10 0A 80 01 4C 0E 02  29 00 28 00 00 47 0E 03  .....L..).(..G..
0E40: 07 10 00 80 01 4C 0E 03  07 10 01 80 03 03 10 28  .....L.........(
0E50: 00 03 04 10 29 00 03 05  10 1B 00 03 06 10 1A 00  ....)...........
0E60: 48 42 80 23 02 07 10 01  80 80 82 0E 03 1F 00 00  HB.#............
0E70: 80 40 01 80 0F 80 01 10  0D 80 03 2E 00 0D 80 01  .@..............
0E80: BE 0E 02 07 10 0A 80 80  A0 0E 03 1F 00 0A 80 40  ...............@
0E90: 01 80 0F 80 01 10 0F 80  03 2E 00 0F 80 01 BE 0E  ................
0EA0: 02 07 10 00 80 80 BE 0E  03 1F 00 00 80 40 01 80  .............@..
0EB0: 0F 80 01 10 0E 80 03 2E  00 0E 80 01 BE 0E 40 10  ..............@.
0EC0: 80 1E 80 01 10 1E 00 43  00 43 01 03 12 00 09 10  .......C.C......
0ED0: 02 2E 00 0D 80 80 EC 0E  45 2E 80 F0 FF FF 7F F0  ........E.......
0EE0: FF FF 7F 73 30 33 31 01  80 01 13 0F 02 2E 00 0E  ...s031.........
0EF0: 80 80 F7 0E 01 13 0F 02  2E 00 0F 80 80 13 0F 45  ...............E
0F00: 2E 80 F0 FF FF 7F F0 FF  FF 7F 73 30 33 32 01 80  ..........s032..
0F10: 01 13 0F 1B 13 1E 00 0D  80 0B 1E 00 07 29 00 1E  .............)..
0F20: 00 02 1E 00 0A 80 80 05  11 02 29 00 0A 80 80 54  ..........)....T
0F30: 0F BB 31 80 F0 FF FF 7F  F0 FF FF 7F 6D 31 30 31  ..1.........m101
0F40: 01 80 BC 31 80 F0 FF FF  7F F0 FF FF 7F 6D 31 30  ...1.........m10
0F50: 31 01 02 11 02 29 00 00  80 80 7F 0F BB 31 80 F0  1....).......1..
0F60: FF FF 7F F0 FF FF 7F 6D  31 30 32 01 80 BC 31 80  .......m102...1.
0F70: F0 FF FF 7F F0 FF FF 7F  6D 31 30 32 01 02 11 02  ........m102....
0F80: 29 00 03 80 80 AA 0F BB  31 80 F0 FF FF 7F F0 FF  ).......1.......
0F90: FF 7F 6D 31 30 33 01 80  BC 31 80 F0 FF FF 7F F0  ..m103...1......
0FA0: FF FF 7F 6D 31 30 33 01  02 11 02 29 00 0C 80 80  ...m103....)....
0FB0: D5 0F BB 31 80 F0 FF FF  7F F0 FF FF 7F 6D 31 30  ...1.........m10
0FC0: 34 01 80 BC 31 80 F0 FF  FF 7F F0 FF FF 7F 6D 31  4...1.........m1
0FD0: 30 34 01 02 11 02 29 00  0D 80 80 00 10 BB 31 80  04....).......1.
0FE0: F0 FF FF 7F F0 FF FF 7F  6D 31 30 35 01 80 BC 31  ........m105...1
0FF0: 80 F0 FF FF 7F F0 FF FF  7F 6D 31 30 35 01 02 11  .........m105...
1000: 02 29 00 0E 80 80 2B 10  BB 31 80 F0 FF FF 7F F0  .)....+..1......
1010: FF FF 7F 6D 31 30 36 01  80 BC 31 80 F0 FF FF 7F  ...m106...1.....
1020: F0 FF FF 7F 6D 31 30 36  01 02 11 02 29 00 0F 80  ....m106....)...
1030: 80 56 10 BB 31 80 F0 FF  FF 7F F0 FF FF 7F 6D 31  .V..1.........m1
1040: 30 37 01 80 BC 31 80 F0  FF FF 7F F0 FF FF 7F 6D  07...1.........m
1050: 31 30 37 01 02 11 02 29  00 10 80 80 81 10 BB 31  107....).......1
1060: 80 F0 FF FF 7F F0 FF FF  7F 6D 31 30 38 01 80 BC  .........m108...
1070: 31 80 F0 FF FF 7F F0 FF  FF 7F 6D 31 30 38 01 02  1.........m108..
1080: 11 02 29 00 11 80 80 AC  10 BB 31 80 F0 FF FF 7F  ..).......1.....
1090: F0 FF FF 7F 6D 31 30 39  01 80 BC 31 80 F0 FF FF  ....m109...1....
10A0: 7F F0 FF FF 7F 6D 31 30  39 01 02 11 02 29 00 12  .....m109....)..
10B0: 80 80 D7 10 BB 31 80 F0  FF FF 7F F0 FF FF 7F 6D  .....1.........m
10C0: 31 31 30 01 80 BC 31 80  F0 FF FF 7F F0 FF FF 7F  110...1.........
10D0: 6D 31 31 30 01 02 11 02  29 00 13 80 80 02 11 BB  m110....).......
10E0: 31 80 F0 FF FF 7F F0 FF  FF 7F 6D 31 31 31 01 80  1.........m111..
10F0: BC 31 80 F0 FF FF 7F F0  FF FF 7F 6D 31 31 31 01  .1.........m111.
1100: 02 11 01 79 1A 02 1E 00  00 80 80 E9 12 02 29 00  ...y..........).
1110: 0A 80 80 38 11 BB 31 80  F0 FF FF 7F F0 FF FF 7F  ...8..1.........
1120: 6D 32 30 31 01 80 BC 31  80 F0 FF FF 7F F0 FF FF  m201...1........
1130: 7F 6D 32 30 31 01 E6 12  02 29 00 00 80 80 63 11  .m201....)....c.
1140: BB 31 80 F0 FF FF 7F F0  FF FF 7F 6D 32 30 32 01  .1.........m202.
1150: 80 BC 31 80 F0 FF FF 7F  F0 FF FF 7F 6D 32 30 32  ..1.........m202
1160: 01 E6 12 02 29 00 03 80  80 8E 11 BB 31 80 F0 FF  ....).......1...
1170: FF 7F F0 FF FF 7F 6D 32  30 33 01 80 BC 31 80 F0  ......m203...1..
1180: FF FF 7F F0 FF FF 7F 6D  32 30 33 01 E6 12 02 29  .......m203....)
1190: 00 0C 80 80 B9 11 BB 31  80 F0 FF FF 7F F0 FF FF  .......1........
11A0: 7F 6D 32 30 34 01 80 BC  31 80 F0 FF FF 7F F0 FF  .m204...1.......
11B0: FF 7F 6D 32 30 34 01 E6  12 02 29 00 0D 80 80 E4  ..m204....).....
11C0: 11 BB 31 80 F0 FF FF 7F  F0 FF FF 7F 6D 32 30 35  ..1.........m205
11D0: 01 80 BC 31 80 F0 FF FF  7F F0 FF FF 7F 6D 32 30  ...1.........m20
11E0: 35 01 E6 12 02 29 00 0E  80 80 0F 12 BB 31 80 F0  5....).......1..
11F0: FF FF 7F F0 FF FF 7F 6D  32 30 36 01 80 BC 31 80  .......m206...1.
1200: F0 FF FF 7F F0 FF FF 7F  6D 32 30 36 01 E6 12 02  ........m206....
1210: 29 00 0F 80 80 3A 12 BB  31 80 F0 FF FF 7F F0 FF  )....:..1.......
1220: FF 7F 6D 32 30 37 01 80  BC 31 80 F0 FF FF 7F F0  ..m207...1......
1230: FF FF 7F 6D 32 30 37 01  E6 12 02 29 00 10 80 80  ...m207....)....
1240: 65 12 BB 31 80 F0 FF FF  7F F0 FF FF 7F 6D 32 30  e..1.........m20
1250: 38 01 80 BC 31 80 F0 FF  FF 7F F0 FF FF 7F 6D 32  8...1.........m2
1260: 30 38 01 E6 12 02 29 00  11 80 80 90 12 BB 31 80  08....).......1.
1270: F0 FF FF 7F F0 FF FF 7F  6D 32 30 39 01 80 BC 31  ........m209...1
1280: 80 F0 FF FF 7F F0 FF FF  7F 6D 32 30 39 01 E6 12  .........m209...
1290: 02 29 00 12 80 80 BB 12  BB 31 80 F0 FF FF 7F F0  .).......1......
12A0: FF FF 7F 6D 32 31 30 01  80 BC 31 80 F0 FF FF 7F  ...m210...1.....
12B0: F0 FF FF 7F 6D 32 31 30  01 E6 12 02 29 00 13 80  ....m210....)...
12C0: 80 E6 12 BB 31 80 F0 FF  FF 7F F0 FF FF 7F 6D 32  ....1.........m2
12D0: 31 31 01 80 BC 31 80 F0  FF FF 7F F0 FF FF 7F 6D  11...1.........m
12E0: 32 31 31 01 E6 12 01 79  1A 02 1E 00 03 80 80 CD  211....y........
12F0: 14 02 29 00 0A 80 80 1C  13 BB 31 80 F0 FF FF 7F  ..).......1.....
1300: F0 FF FF 7F 6D 33 30 31  01 80 BC 31 80 F0 FF FF  ....m301...1....
1310: 7F F0 FF FF 7F 6D 33 30  31 01 CA 14 02 29 00 00  .....m301....)..
1320: 80 80 47 13 BB 31 80 F0  FF FF 7F F0 FF FF 7F 6D  ..G..1.........m
1330: 33 30 32 01 80 BC 31 80  F0 FF FF 7F F0 FF FF 7F  302...1.........
1340: 6D 33 30 32 01 CA 14 02  29 00 03 80 80 72 13 BB  m302....)....r..
1350: 31 80 F0 FF FF 7F F0 FF  FF 7F 6D 33 30 33 01 80  1.........m303..
1360: BC 31 80 F0 FF FF 7F F0  FF FF 7F 6D 33 30 33 01  .1.........m303.
1370: CA 14 02 29 00 0C 80 80  9D 13 BB 31 80 F0 FF FF  ...).......1....
1380: 7F F0 FF FF 7F 6D 33 30  34 01 80 BC 31 80 F0 FF  .....m304...1...
1390: FF 7F F0 FF FF 7F 6D 33  30 34 01 CA 14 02 29 00  ......m304....).
13A0: 0D 80 80 C8 13 BB 31 80  F0 FF FF 7F F0 FF FF 7F  ......1.........
13B0: 6D 33 30 35 01 80 BC 31  80 F0 FF FF 7F F0 FF FF  m305...1........
13C0: 7F 6D 33 30 35 01 CA 14  02 29 00 0E 80 80 F3 13  .m305....)......
13D0: BB 31 80 F0 FF FF 7F F0  FF FF 7F 6D 33 30 36 01  .1.........m306.
13E0: 80 BC 31 80 F0 FF FF 7F  F0 FF FF 7F 6D 33 30 36  ..1.........m306
13F0: 01 CA 14 02 29 00 0F 80  80 1E 14 BB 31 80 F0 FF  ....).......1...
1400: FF 7F F0 FF FF 7F 6D 33  30 37 01 80 BC 31 80 F0  ......m307...1..
1410: FF FF 7F F0 FF FF 7F 6D  33 30 37 01 CA 14 02 29  .......m307....)
1420: 00 10 80 80 49 14 BB 31  80 F0 FF FF 7F F0 FF FF  ....I..1........
1430: 7F 6D 33 30 38 01 80 BC  31 80 F0 FF FF 7F F0 FF  .m308...1.......
1440: FF 7F 6D 33 30 38 01 CA  14 02 29 00 11 80 80 74  ..m308....)....t
1450: 14 BB 31 80 F0 FF FF 7F  F0 FF FF 7F 6D 33 30 39  ..1.........m309
1460: 01 80 BC 31 80 F0 FF FF  7F F0 FF FF 7F 6D 33 30  ...1.........m30
1470: 39 01 CA 14 02 29 00 12  80 80 9F 14 BB 31 80 F0  9....).......1..
1480: FF FF 7F F0 FF FF 7F 6D  33 31 30 01 80 BC 31 80  .......m310...1.
1490: F0 FF FF 7F F0 FF FF 7F  6D 33 31 30 01 CA 14 02  ........m310....
14A0: 29 00 13 80 80 CA 14 BB  31 80 F0 FF FF 7F F0 FF  ).......1.......
14B0: FF 7F 6D 33 31 31 01 80  BC 31 80 F0 FF FF 7F F0  ..m311...1......
14C0: FF FF 7F 6D 33 31 31 01  CA 14 01 79 1A 02 1E 00  ...m311....y....
14D0: 0C 80 80 B1 16 02 29 00  0A 80 80 00 15 BB 31 80  ......).......1.
14E0: F0 FF FF 7F F0 FF FF 7F  6D 34 30 31 01 80 BC 31  ........m401...1
14F0: 80 F0 FF FF 7F F0 FF FF  7F 6D 34 30 31 01 AE 16  .........m401...
1500: 02 29 00 00 80 80 2B 15  BB 31 80 F0 FF FF 7F F0  .)....+..1......
1510: FF FF 7F 6D 34 30 32 01  80 BC 31 80 F0 FF FF 7F  ...m402...1.....
1520: F0 FF FF 7F 6D 34 30 32  01 AE 16 02 29 00 03 80  ....m402....)...
1530: 80 56 15 BB 31 80 F0 FF  FF 7F F0 FF FF 7F 6D 34  .V..1.........m4
1540: 30 33 01 80 BC 31 80 F0  FF FF 7F F0 FF FF 7F 6D  03...1.........m
1550: 34 30 33 01 AE 16 02 29  00 0C 80 80 81 15 BB 31  403....).......1
1560: 80 F0 FF FF 7F F0 FF FF  7F 6D 34 30 34 01 80 BC  .........m404...
1570: 31 80 F0 FF FF 7F F0 FF  FF 7F 6D 34 30 34 01 AE  1.........m404..
1580: 16 02 29 00 0D 80 80 AC  15 BB 31 80 F0 FF FF 7F  ..).......1.....
1590: F0 FF FF 7F 6D 34 30 35  01 80 BC 31 80 F0 FF FF  ....m405...1....
15A0: 7F F0 FF FF 7F 6D 34 30  35 01 AE 16 02 29 00 0E  .....m405....)..
15B0: 80 80 D7 15 BB 31 80 F0  FF FF 7F F0 FF FF 7F 6D  .....1.........m
15C0: 34 30 36 01 80 BC 31 80  F0 FF FF 7F F0 FF FF 7F  406...1.........
15D0: 6D 34 30 36 01 AE 16 02  29 00 0F 80 80 02 16 BB  m406....).......
15E0: 31 80 F0 FF FF 7F F0 FF  FF 7F 6D 34 30 37 01 80  1.........m407..
15F0: BC 31 80 F0 FF FF 7F F0  FF FF 7F 6D 34 30 37 01  .1.........m407.
1600: AE 16 02 29 00 10 80 80  2D 16 BB 31 80 F0 FF FF  ...)....-..1....
1610: 7F F0 FF FF 7F 6D 34 30  38 01 80 BC 31 80 F0 FF  .....m408...1...
1620: FF 7F F0 FF FF 7F 6D 34  30 38 01 AE 16 02 29 00  ......m408....).
1630: 11 80 80 58 16 BB 31 80  F0 FF FF 7F F0 FF FF 7F  ...X..1.........
1640: 6D 34 30 39 01 80 BC 31  80 F0 FF FF 7F F0 FF FF  m409...1........
1650: 7F 6D 34 30 39 01 AE 16  02 29 00 12 80 80 83 16  .m409....)......
1660: BB 31 80 F0 FF FF 7F F0  FF FF 7F 6D 34 31 30 01  .1.........m410.
1670: 80 BC 31 80 F0 FF FF 7F  F0 FF FF 7F 6D 34 31 30  ..1.........m410
1680: 01 AE 16 02 29 00 13 80  80 AE 16 BB 31 80 F0 FF  ....).......1...
1690: FF 7F F0 FF FF 7F 6D 34  31 31 01 80 BC 31 80 F0  ......m411...1..
16A0: FF FF 7F F0 FF FF 7F 6D  34 31 31 01 AE 16 01 79  .......m411....y
16B0: 1A 02 1E 00 0D 80 80 95  18 02 29 00 0A 80 80 E4  ..........).....
16C0: 16 BB 31 80 F0 FF FF 7F  F0 FF FF 7F 6D 35 30 31  ..1.........m501
16D0: 01 80 BC 31 80 F0 FF FF  7F F0 FF FF 7F 6D 35 30  ...1.........m50
16E0: 31 01 92 18 02 29 00 00  80 80 0F 17 BB 31 80 F0  1....).......1..
16F0: FF FF 7F F0 FF FF 7F 6D  35 30 32 01 80 BC 31 80  .......m502...1.
1700: F0 FF FF 7F F0 FF FF 7F  6D 35 30 32 01 92 18 02  ........m502....
1710: 29 00 03 80 80 3A 17 BB  31 80 F0 FF FF 7F F0 FF  )....:..1.......
1720: FF 7F 6D 35 30 33 01 80  BC 31 80 F0 FF FF 7F F0  ..m503...1......
1730: FF FF 7F 6D 35 30 33 01  92 18 02 29 00 0C 80 80  ...m503....)....
1740: 65 17 BB 31 80 F0 FF FF  7F F0 FF FF 7F 6D 35 30  e..1.........m50
1750: 34 01 80 BC 31 80 F0 FF  FF 7F F0 FF FF 7F 6D 35  4...1.........m5
1760: 30 34 01 92 18 02 29 00  0D 80 80 90 17 BB 31 80  04....).......1.
1770: F0 FF FF 7F F0 FF FF 7F  6D 35 30 35 01 80 BC 31  ........m505...1
1780: 80 F0 FF FF 7F F0 FF FF  7F 6D 35 30 35 01 92 18  .........m505...
1790: 02 29 00 0E 80 80 BB 17  BB 31 80 F0 FF FF 7F F0  .).......1......
17A0: FF FF 7F 6D 35 30 36 01  80 BC 31 80 F0 FF FF 7F  ...m506...1.....
17B0: F0 FF FF 7F 6D 35 30 36  01 92 18 02 29 00 0F 80  ....m506....)...
17C0: 80 E6 17 BB 31 80 F0 FF  FF 7F F0 FF FF 7F 6D 35  ....1.........m5
17D0: 30 37 01 80 BC 31 80 F0  FF FF 7F F0 FF FF 7F 6D  07...1.........m
17E0: 35 30 37 01 92 18 02 29  00 10 80 80 11 18 BB 31  507....).......1
17F0: 80 F0 FF FF 7F F0 FF FF  7F 6D 35 30 38 01 80 BC  .........m508...
1800: 31 80 F0 FF FF 7F F0 FF  FF 7F 6D 35 30 38 01 92  1.........m508..
1810: 18 02 29 00 11 80 80 3C  18 BB 31 80 F0 FF FF 7F  ..)....<..1.....
1820: F0 FF FF 7F 6D 35 30 39  01 80 BC 31 80 F0 FF FF  ....m509...1....
1830: 7F F0 FF FF 7F 6D 35 30  39 01 92 18 02 29 00 12  .....m509....)..
1840: 80 80 67 18 BB 31 80 F0  FF FF 7F F0 FF FF 7F 6D  ..g..1.........m
1850: 35 31 30 01 80 BC 31 80  F0 FF FF 7F F0 FF FF 7F  510...1.........
1860: 6D 35 31 30 01 92 18 02  29 00 13 80 80 92 18 BB  m510....).......
1870: 31 80 F0 FF FF 7F F0 FF  FF 7F 6D 35 31 31 01 80  1.........m511..
1880: BC 31 80 F0 FF FF 7F F0  FF FF 7F 6D 35 31 31 01  .1.........m511.
1890: 92 18 01 79 1A 02 1E 00  0E 80 80 79 1A 02 29 00  ...y.......y..).
18A0: 0A 80 80 C8 18 BB 31 80  F0 FF FF 7F F0 FF FF 7F  ......1.........
18B0: 6D 36 30 31 01 80 BC 31  80 F0 FF FF 7F F0 FF FF  m601...1........
18C0: 7F 6D 36 30 31 01 76 1A  02 29 00 00 80 80 F3 18  .m601.v..)......
18D0: BB 31 80 F0 FF FF 7F F0  FF FF 7F 6D 36 30 32 01  .1.........m602.
18E0: 80 BC 31 80 F0 FF FF 7F  F0 FF FF 7F 6D 36 30 32  ..1.........m602
18F0: 01 76 1A 02 29 00 03 80  80 1E 19 BB 31 80 F0 FF  .v..).......1...
1900: FF 7F F0 FF FF 7F 6D 36  30 33 01 80 BC 31 80 F0  ......m603...1..
1910: FF FF 7F F0 FF FF 7F 6D  36 30 33 01 76 1A 02 29  .......m603.v..)
1920: 00 0C 80 80 49 19 BB 31  80 F0 FF FF 7F F0 FF FF  ....I..1........
1930: 7F 6D 36 30 34 01 80 BC  31 80 F0 FF FF 7F F0 FF  .m604...1.......
1940: FF 7F 6D 36 30 34 01 76  1A 02 29 00 0D 80 80 74  ..m604.v..)....t
1950: 19 BB 31 80 F0 FF FF 7F  F0 FF FF 7F 6D 36 30 35  ..1.........m605
1960: 01 80 BC 31 80 F0 FF FF  7F F0 FF FF 7F 6D 36 30  ...1.........m60
1970: 35 01 76 1A 02 29 00 0E  80 80 9F 19 BB 31 80 F0  5.v..).......1..
1980: FF FF 7F F0 FF FF 7F 6D  36 30 36 01 80 BC 31 80  .......m606...1.
1990: F0 FF FF 7F F0 FF FF 7F  6D 36 30 36 01 76 1A 02  ........m606.v..
19A0: 29 00 0F 80 80 CA 19 BB  31 80 F0 FF FF 7F F0 FF  ).......1.......
19B0: FF 7F 6D 36 30 37 01 80  BC 31 80 F0 FF FF 7F F0  ..m607...1......
19C0: FF FF 7F 6D 36 30 37 01  76 1A 02 29 00 10 80 80  ...m607.v..)....
19D0: F5 19 BB 31 80 F0 FF FF  7F F0 FF FF 7F 6D 36 30  ...1.........m60
19E0: 38 01 80 BC 31 80 F0 FF  FF 7F F0 FF FF 7F 6D 36  8...1.........m6
19F0: 30 38 01 76 1A 02 29 00  11 80 80 20 1A BB 31 80  08.v..).... ..1.
1A00: F0 FF FF 7F F0 FF FF 7F  6D 36 30 39 01 80 BC 31  ........m609...1
1A10: 80 F0 FF FF 7F F0 FF FF  7F 6D 36 30 39 01 76 1A  .........m609.v.
1A20: 02 29 00 12 80 80 4B 1A  BB 31 80 F0 FF FF 7F F0  .)....K..1......
1A30: FF FF 7F 6D 36 31 30 01  80 BC 31 80 F0 FF FF 7F  ...m610...1.....
1A40: F0 FF FF 7F 6D 36 31 30  01 76 1A 02 29 00 13 80  ....m610.v..)...
1A50: 80 76 1A BB 31 80 F0 FF  FF 7F F0 FF FF 7F 6D 36  .v..1.........m6
1A60: 31 31 01 80 BC 31 80 F0  FF FF 7F F0 FF FF 7F 6D  11...1.........m
1A70: 36 31 31 01 76 1A 01 79  1A 03 03 10 2D 00 03 04  611.v..y....-...
1A80: 10 1E 00 03 05 10 29 00  48 43 80 23 06 1D 00 03  ......).HC.#....
1A90: 1D 00 2D 00 0C 1D 00 07  1D 00 13 80 9D 05 C3 47  ..-............G
1AA0: 1E 00 1D 00 06 04 00 02  04 00 01 80 00 64 1F 06  .............d..
1AB0: 24 00 02 25 00 01 80 02  C1 1A 3C 24 00 00 80 0A  $..%......<$....
1AC0: 80 02 2D 00 13 80 04 D0  1A 3C 24 00 01 80 0A 80  ..-......<$.....
1AD0: 24 44 80 01 80 24 00 25  02 00 10 01 80 00 F9 1A  $D...$.%........
1AE0: 03 02 10 01 80 03 04 10  01 80 48 41 80 23 03 2B  ..........HA.#.+
1AF0: 00 01 80 05 04 00 01 61  1F 02 00 10 0A 80 00 1A  .......a........
1B00: 1B 03 02 10 01 80 03 04  10 0A 80 48 41 80 23 03  ...........HA.#.
1B10: 2B 00 0A 80 05 04 00 01  61 1F 02 00 10 00 80 00  +.......a.......
1B20: 2D 1F 06 07 00 02 07 00  01 80 00 2A 1F 24 45 80  -..........*.$E.
1B30: 01 80 01 80 25 02 00 10  01 80 00 43 1B 05 07 00  ....%......C....
1B40: 01 27 1F 02 00 10 0A 80  00 0B 1C 03 02 10 01 80  .'..............
1B50: 03 03 10 01 80 48 46 80  23 06 1D 00 06 1E 00 06  .....HF.#.......
1B60: 24 00 02 1D 00 13 80 03  AD 1B 9D 05 C3 47 01 80  $............G..
1B70: 1D 00 02 1D 00 2C 00 04  81 1B 3C 24 00 1D 00 0A  .....,....<$....
1B80: 80 03 1E 00 1D 00 07 1E  00 13 80 07 1E 00 13 80  ................
1B90: 9D 00 C3 47 21 00 1E 00  02 21 00 01 80 00 A7 1B  ...G!....!......
1BA0: 3C 24 00 1D 00 0A 80 0B  1D 00 01 62 1B 10 24 00  <$.........b..$.
1BB0: 0A 80 06 19 00 03 02 10  01 80 24 47 80 01 80 24  ..........$G...$
1BC0: 00 25 02 00 10 01 80 00  CD 1B 01 CD 1B 03 19 00  .%..............
1BD0: 00 10 02 19 00 01 80 02  08 1C 03 1E 00 19 00 0C  ................
1BE0: 1E 00 07 1E 00 13 80 07  1E 00 13 80 9D 00 C3 47  ...............G
1BF0: 21 00 1E 00 03 03 10 19  00 03 04 10 21 00 48 48  !...........!.HH
1C00: 80 23 05 25 00 05 07 00  01 27 1F 02 00 10 00 80  .#.%.....'......
1C10: 00 CA 1D 03 02 10 0A 80  03 03 10 0A 80 48 46 80  .............HF.
1C20: 23 06 1D 00 06 24 00 06  21 00 06 24 00 02 1D 00  #....$..!..$....
1C30: 13 80 03 64 1C 03 1E 00  1D 00 07 1E 00 13 80 9D  ...d............
1C40: 00 C3 47 21 00 1E 00 9D  05 C3 47 21 00 1D 00 02  ..G!......G!....
1C50: 1D 00 2D 00 04 5E 1C 3C  24 00 1D 00 0A 80 0B 1D  ..-..^.<$.......
1C60: 00 01 2D 1C 10 24 00 0A  80 03 02 10 0A 80 24 47  ..-..$........$G
1C70: 80 01 80 24 00 25 02 00  10 01 80 00 81 1C 01 81  ...$.%..........
1C80: 1C 03 22 00 00 10 02 22  00 01 80 02 C7 1D 0C 22  .."...."......."
1C90: 00 03 02 10 0A 80 03 03  10 01 80 48 46 80 23 06  ...........HF.#.
1CA0: 1D 00 06 1E 00 06 24 00  02 1D 00 13 80 03 F3 1C  ......$.........
1CB0: 9D 05 C3 47 01 80 1D 00  02 1D 00 2C 00 04 C7 1C  ...G.......,....
1CC0: 3C 24 00 1D 00 0A 80 03  1E 00 1D 00 07 1E 00 13  <$..............
1CD0: 80 07 1E 00 13 80 9D 00  C3 47 21 00 1E 00 02 21  .........G!....!
1CE0: 00 01 80 00 ED 1C 3C 24  00 1D 00 0A 80 0B 1D 00  ......<$........
1CF0: 01 A8 1C 10 24 00 0A 80  03 02 10 0A 80 24 47 80  ....$........$G.
1D00: 01 80 24 00 25 02 00 10  01 80 00 10 1D 01 10 1D  ..$.%...........
1D10: 03 23 00 00 10 02 23 00  01 80 02 C7 1D 0C 23 00  .#....#.......#.
1D20: 03 19 00 23 00 07 19 00  13 80 07 19 00 13 80 9D  ...#............
1D30: 00 C3 47 1B 00 19 00 03  19 00 22 00 07 19 00 13  ..G.......".....
1D40: 80 9D 00 C3 47 1A 00 19  00 9D 05 C3 47 1B 00 19  ....G.......G...
1D50: 00 03 19 00 23 00 07 19  00 13 80 07 19 00 13 80  ....#...........
1D60: 9D 05 C3 47 1A 00 19 00  06 1E 00 06 05 10 06 29  ...G...........)
1D70: 00 06 28 00 06 1D 00 02  1D 00 13 80 03 AE 1D 03  ..(.............
1D80: 1E 00 1D 00 07 1E 00 13  80 9D 00 C3 47 21 00 1E  ............G!..
1D90: 00 07 29 00 21 00 07 1E  00 13 80 9D 00 C3 47 21  ..).!.........G!
1DA0: 00 1E 00 07 28 00 21 00  0B 1D 00 01 77 1D 03 03  ....(.!.....w...
1DB0: 10 1A 00 03 04 10 1B 00  03 05 10 29 00 48 49 80  ...........).HI.
1DC0: 23 05 25 00 05 07 00 01  27 1F 02 00 10 03 80 00  #.%.....'.......
1DD0: 27 1F 03 02 10 00 80 03  03 10 01 80 48 46 80 23  '...........HF.#
1DE0: 06 1D 00 06 1E 00 06 24  00 02 1D 00 13 80 03 5E  .......$.......^
1DF0: 1E 02 47 00 01 80 02 1B  1E 03 1E 00 1D 00 07 1E  ..G.............
1E00: 00 13 80 07 1E 00 13 80  9D 00 C3 47 21 00 1E 00  ...........G!...
1E10: 9D 05 C3 47 21 00 1D 00  01 23 1E 9D 05 C3 47 01  ...G!....#....G.
1E20: 80 1D 00 02 1D 00 2C 00  04 32 1E 3C 24 00 1D 00  ......,..2.<$...
1E30: 0A 80 03 1E 00 1D 00 07  1E 00 13 80 07 1E 00 13  ................
1E40: 80 9D 00 C3 47 21 00 1E  00 02 21 00 01 80 00 58  ....G!....!....X
1E50: 1E 3C 24 00 1D 00 0A 80  0B 1D 00 01 E9 1D 10 24  .<$............$
1E60: 00 0A 80 03 02 10 00 80  24 47 80 01 80 24 00 25  ........$G...$.%
1E70: 02 00 10 01 80 00 7B 1E  01 7B 1E 03 19 00 00 10  ......{..{......
1E80: 02 19 00 01 80 02 24 1F  03 1D 00 19 00 0C 1D 00  ......$.........
1E90: 07 1D 00 13 80 07 1D 00  13 80 9D 00 C3 47 21 00  .............G!.
1EA0: 1D 00 02 47 00 01 80 02  BC 1E 03 02 10 28 00 48  ...G.........(.H
1EB0: 4A 80 23 03 02 10 21 00  48 4A 80 23 13 1E 00 0D  J.#...!.HJ.#....
1EC0: 80 0B 1E 00 9D 05 C3 47  1E 00 1D 00 06 1F 00 06  .......G........
1ED0: 28 00 06 1D 00 02 1D 00  13 80 03 FF 1E 03 1F 00  (...............
1EE0: 1D 00 07 1F 00 13 80 07  1F 00 13 80 9D 00 C3 47  ...............G
1EF0: 21 00 1F 00 07 28 00 21  00 0B 1D 00 01 D5 1E 03  !....(.!........
1F00: 03 10 19 00 03 04 10 1E  00 48 4B 80 23 05 25 00  .........HK.#.%.
1F10: 05 07 00 02 47 00 01 80  02 24 1F 03 02 10 28 00  ....G....$....(.
1F20: 48 4A 80 23 01 27 1F 01  25 1B 01 61 1F 02 00 10  HJ.#.'..%..a....
1F30: 03 80 00 61 1F 24 2F 80  01 80 01 80 25 02 00 10  ...a.$/.....%...
1F40: 01 80 00 48 1F 01 5E 1F  02 00 10 0A 80 00 5E 1F  ...H..^.......^.
1F50: 03 2B 00 00 80 06 12 00  05 04 00 01 5E 1F 01 61  .+..........^..a
1F60: 1F 01 A7 1A 1B 0B 2C 00  02 2A 00 0A 80 00 8D 1F  ......,..*......
1F70: 03 02 10 0A 80 03 03 10  2C 00 03 04 10 0A 80 48  ........,......H
1F80: 40 80 23 48 41 80 23 03  2A 00 0A 80 1B 06 2A 00  @.#HA.#.*.....*.
1F90: 06 1F 00 9D 00 63 49 1F  00 15 00 13 1E 00 15 80  .....cI.........
1FA0: 02 1E 00 1F 00 03 BB 1F  06 1E 00 13 1E 00 0D 80  ................
1FB0: 0B 1E 00 07 28 00 1E 00  01 06 20 02 28 00 0D 80  ....(..... .(...
1FC0: 05 D6 1F 06 1E 00 13 1E  00 0D 80 0B 1E 00 07 28  ...............(
1FD0: 00 1E 00 01 06 20 06 1F  00 06 1E 00 03 1F 00 13  ..... ..........
1FE0: 80 02 28 00 13 80 04 F4  1F 08 1F 00 28 00 0C 1F  ..(.........(...
1FF0: 00 01 F9 1F 03 1F 00 0D  80 13 1E 00 1F 00 0B 1E  ................
2000: 00 07 28 00 1E 00 06 1D  00 03 1D 00 2C 00 0C 1D  ..(.........,...
2010: 00 07 1D 00 13 80 07 1D  00 13 80 9D 05 C3 47 1E  ..............G.
2020: 00 1D 00 9D 00 73 49 1F  00 15 00 02 47 00 01 80  .....sI.....G...
2030: 02 45 20 03 02 10 28 00  48 4A 80 23 03 02 10 1F  .E ...(.HJ.#....
2040: 00 48 4A 80 23 02 28 00  1F 00 02 6C 20 03 02 10  .HJ.#.(....l ...
2050: 0A 80 03 03 10 2C 00 03  04 10 0A 80 48 40 80 23  .....,......H@.#
2060: 48 41 80 23 03 2A 00 0A  80 01 88 20 03 02 10 0A  HA.#.*..... ....
2070: 80 03 03 10 2C 00 03 04  10 01 80 48 40 80 23 48  ....,......H@.#H
2080: 41 80 23 03 2A 00 01 80  1B 45 2E 80 F0 FF FF 7F  A.#.*....E......
2090: F0 FF FF 7F 66 64 6F 31  01 80 55 2E 80 F0 FF FF  ....fdo1..U.....
20A0: 7F F0 FF FF 7F 66 64 6F  31 46 01 38 32 80 92 01  .....fdo1F.82...
20B0: F8 FF FF 7F BA F0 FF FF  7F 4C 80 4D 80 39 80 4E  .........L.M.9.N
20C0: 80 80 F0 FF FF 7F 1E F0  FF FF 7F 45 30 80 F0 FF  ...........E0...
20D0: FF 7F F0 FF FF 7F 73 30  38 35 01 80 1C 02 80 45  ......s085.....E
20E0: 2E 80 F0 FF FF 7F F0 FF  FF 7F 66 64 69 31 01 80  ..........fdi1..
20F0: 06 28 00 06 29 00 06 2A  00 06 2B 00 06 2C 00 06  .(..)..*..+..,..
2100: 2D 00 06 25 00 1A A9 47  1B 03 0C 00 00 80 1A 11  -..%...G........
2110: 05 1B 1D 4F 80 23 1D 50  80 23 1D 51 80 23 1D 52  ...O.#.P.#.Q.#.R
2120: 80 23 1B 42 03 0C 00 00  80 1E F0 FF FF 7F 1A 63  .#.B...........c
2130: 47 03 0E 00 03 10 03 0F  00 04 10 03 10 00 05 10  G...............
2140: 03 11 00 06 10 03 1E 00  07 10 03 1D 00 08 10 03  ................
2150: 18 00 09 10 41 01 80 02  80 0F 00 13 00 41 01 80  ....A........A..
2160: 03 80 0E 00 14 00 02 02  10 01 80 02 75 21 48 53  ............u!HS
2170: 80 23 01 88 21 03 02 10  1E 00 03 03 10 1D 00 03  .#..!...........
2180: 04 10 18 00 48 54 80 23  02 18 00 01 80 80 BA 21  ....HT.#.......!
2190: 45 2E 80 F0 FF FF 7F F0  FF FF 7F 73 30 33 32 01  E..........s032.
21A0: 80 40 01 80 0F 80 01 10  0F 80 40 10 80 1E 80 01  .@........@.....
21B0: 10 15 00 43 00 43 01 01  EC 21 02 18 00 0A 80 80  ...C.C...!......
21C0: EC 21 45 2E 80 F0 FF FF  7F F0 FF FF 7F 73 30 33  .!E..........s03
21D0: 31 01 80 40 01 80 0F 80  01 10 0D 80 40 10 80 1E  1..@........@...
21E0: 80 01 10 15 00 43 00 43  01 01 EC 21 03 0B 00 07  .....C.C...!....
21F0: 10 03 15 00 08 10 03 12  00 09 10 1A 65 06 1B 1D  ............e...
2200: 55 80 23 40 01 80 0F 80  01 10 10 80 40 10 80 1E  U.#@........@...
2210: 80 01 10 15 00 1B 1A FF  21 1B 03 0C 00 03 80 1A  ........!.......
2220: 11 05 1B 1D 56 80 23 1D  57 80 23 1D 58 80 23 1D  ....V.#.W.#.X.#.
2230: 59 80 23 1D 5A 80 23 1D  5B 80 23 1D 5C 80 23 1B  Y.#.Z.#.[.#.\.#.
2240: 1A AA 2B 02 02 00 01 80  00 FE 22 06 46 00 06 18  ..+.......".F...
2250: 00 1A 61 23 02 46 00 01  80 80 64 22 03 18 00 01  ..a#.F....d"....
2260: 80 01 9B 22 02 46 00 0A  80 80 85 22 45 2E 80 F0  ...".F....."E...
2270: FF FF 7F F0 FF FF 7F 73  30 33 32 01 80 03 18 00  .......s032.....
2280: 0A 80 01 9B 22 02 46 00  03 80 80 9B 22 03 01 10  ....".F....."...
2290: 06 80 06 18 00 05 02 00  01 9B 22 02 02 00 01 80  ..........".....
22A0: 00 FB 22 02 18 00 01 80  00 DF 22 1A A3 27 02 46  .."......."..'.F
22B0: 00 01 80 80 BE 22 03 18  00 01 80 01 DF 22 02 46  .....".......".F
22C0: 00 00 80 80 DF 22 45 2E  80 F0 FF FF 7F F0 FF FF  ....."E.........
22D0: 7F 73 30 33 31 01 80 03  18 00 00 80 01 DF 22 02  .s031.........".
22E0: 12 00 01 80 02 ED 22 05  17 00 01 F0 22 06 17 00  ......"....."...
22F0: 02 18 00 01 80 02 FB 22  1A 65 06 01 43 22 45 2E  .......".e..C"E.
2300: 80 F0 FF FF 7F F0 FF FF  7F 66 64 6F 31 01 80 55  .........fdo1..U
2310: 2E 80 F0 FF FF 7F F0 FF  FF 7F 66 64 6F 31 52 30  ..........fdo1R0
2320: 80 F0 FF FF 7F F0 FF FF  7F 73 30 38 36 27 05 CE  .........s086'..
2330: 00 10 01 0C 92 00 F8 FF  FF 7F 4E 00 F0 FF FF 7F  ..........N.....
2340: 80 F0 FF FF 7F 1E F0 FF  FF 7F 46 00 1C 31 80 45  ..........F..1.E
2350: 2E 80 F0 FF FF 7F F0 FF  FF 7F 66 64 69 32 01 80  ..........fdi2..
2360: 1B 06 04 00 06 24 00 02  04 00 01 80 00 A2 27 06  .....$........'.
2370: 01 00 02 2B 00 01 80 02  7F 23 03 01 00 5D 80 24  ...+.....#...].$
2380: 5E 80 01 80 01 00 25 02  00 10 01 80 00 A1 25 06  ^.....%.......%.
2390: 24 00 3E 2A 00 0E 80 CE  23 13 1F 00 00 80 02 1F  $.>*....#.......
23A0: 00 01 80 80 AE 23 03 24  00 5F 80 01 CE 23 02 1F  .....#.$._...#..
23B0: 00 0A 80 80 BE 23 03 24  00 60 80 01 CE 23 02 1F  .....#.$.`...#..
23C0: 00 00 80 80 CE 23 03 24  00 61 80 01 CE 23 3E 2A  .....#.$.a...#>*
23D0: 00 0D 80 0A 24 13 1F 00  00 80 02 1F 00 01 80 80  ....$...........
23E0: EA 23 03 24 00 62 80 01  0A 24 02 1F 00 0A 80 80  .#.$.b...$......
23F0: FA 23 03 24 00 63 80 01  0A 24 02 1F 00 00 80 80  .#.$.c...$......
2400: 0A 24 03 24 00 64 80 01  0A 24 03 03 10 38 00 3E  .$.$.d...$...8.>
2410: 2A 00 03 80 AB 24 13 1F  00 0D 80 02 1F 00 01 80  *....$..........
2420: 80 3B 24 02 03 10 03 80  04 33 24 08 03 10 03 80  .;$......3$.....
2430: 01 38 24 03 03 10 01 80  01 AB 24 02 1F 00 0A 80  .8$.......$.....
2440: 80 5B 24 02 03 10 00 80  04 53 24 08 03 10 00 80  .[$......S$.....
2450: 01 58 24 03 03 10 01 80  01 AB 24 02 1F 00 00 80  .X$.......$.....
2460: 80 7B 24 02 03 10 0A 80  04 73 24 08 03 10 0A 80  .{$......s$.....
2470: 01 78 24 03 03 10 01 80  01 AB 24 02 1F 00 03 80  .x$.......$.....
2480: 80 8B 24 07 03 10 0A 80  01 AB 24 02 1F 00 0C 80  ..$.......$.....
2490: 80 9B 24 07 03 10 00 80  01 AB 24 02 1F 00 0D 80  ..$.......$.....
24A0: 80 AB 24 07 03 10 03 80  01 AB 24 24 65 80 01 80  ..$.......$$e...
24B0: 24 00 25 02 00 10 01 80  00 BE 24 01 BE 24 03 19  $.%.......$..$..
24C0: 00 00 10 0B 19 00 3E 2A  00 00 80 DA 24 13 1F 00  ......>*....$...
24D0: 00 80 0B 1F 00 07 19 00  1F 00 3E 2A 00 0A 80 FE  ..........>*....
24E0: 24 13 1F 00 00 80 0B 1F  00 02 19 00 1F 00 05 F9  $...............
24F0: 24 03 19 00 01 80 01 FE  24 08 19 00 1F 00 3E 2B  $.......$.....>+
2500: 00 10 80 1C 25 06 2B 00  3C 2B 00 09 80 0A 80 13  ....%.+.<+......
2510: 1F 00 00 80 0B 1F 00 07  19 00 1F 00 3E 2B 00 0F  ............>+..
2520: 80 4A 25 06 2B 00 3C 2B  00 09 80 0A 80 13 1F 00  .J%.+.<+........
2530: 00 80 0B 1F 00 02 19 00  1F 00 05 45 25 03 19 00  ...........E%...
2540: 01 80 01 4A 25 08 19 00  1F 00 07 38 00 19 00 02  ...J%......8....
2550: 38 00 27 00 02 88 25 03  46 00 0A 80 03 02 10 01  8.'...%.F.......
2560: 80 03 03 10 0A 80 48 66  80 23 40 01 80 0F 80 01  ......Hf.#@.....
2570: 10 0F 80 40 10 80 1E 80  01 10 01 80 43 00 43 01  ...@........C.C.
2580: 03 12 00 09 10 01 9B 25  03 46 00 01 80 03 02 10  .......%.F......
2590: 01 80 03 03 10 38 00 48  67 80 23 05 04 00 01 9F  .....8.Hg.#.....
25A0: 27 02 00 10 0A 80 00 62  26 24 68 80 01 80 01 80  '......b&$h.....
25B0: 25 02 00 10 01 80 00 BC  25 01 BC 25 03 19 00 00  %.......%..%....
25C0: 10 02 19 00 01 80 02 5F  26 02 19 00 0A 80 80 DB  ......._&.......
25D0: 25 3C 2B 00 00 80 0A 80  01 56 26 02 19 00 00 80  %<+......V&.....
25E0: 80 ED 25 3C 2B 00 0A 80  0A 80 01 56 26 02 19 00  ..%<+......V&...
25F0: 03 80 80 FF 25 3C 2B 00  03 80 0A 80 01 56 26 02  ....%<+......V&.
2600: 19 00 0C 80 80 32 26 06  23 00 41 0A 80 0E 80 2A  .....2&.#.A....*
2610: 00 23 00 02 23 00 01 80  02 25 26 06 2A 00 3C 2A  .#..#....%&.*.<*
2620: 00 09 80 0A 80 06 2B 00  3C 2B 00 09 80 0A 80 01  ......+.<+......
2630: 56 26 02 19 00 0D 80 80  44 26 3C 2B 00 0D 80 0A  V&......D&<+....
2640: 80 01 56 26 02 19 00 0E  80 80 56 26 3C 2B 00 0E  ..V&......V&<+..
2650: 80 0A 80 01 56 26 03 02  10 01 80 48 69 80 23 01  ....V&.....Hi.#.
2660: 9F 27 02 00 10 00 80 00  55 27 24 6A 80 01 80 01  .'......U'$j....
2670: 80 25 02 00 10 01 80 00  7D 26 01 7D 26 03 19 00  .%......}&.}&...
2680: 00 10 02 19 00 01 80 02  52 27 02 19 00 0A 80 80  ........R'......
2690: A4 26 06 2B 00 3C 2B 00  10 80 0A 80 03 02 10 0A  .&.+.<+.........
26A0: 80 01 4E 27 02 19 00 00  80 80 BE 26 06 2B 00 3C  ..N'.......&.+.<
26B0: 2B 00 0F 80 0A 80 03 02  10 0A 80 01 4E 27 02 19  +...........N'..
26C0: 00 03 80 80 F3 26 41 0F  80 13 80 2A 00 23 00 02  .....&A....*.#..
26D0: 2A 00 01 80 02 E1 26 06  2A 00 3C 2A 00 09 80 0A  *.....&.*.<*....
26E0: 80 06 2B 00 3C 2B 00 09  80 0A 80 03 02 10 00 80  ..+.<+..........
26F0: 01 4E 27 02 19 00 0C 80  80 1A 27 06 2B 00 3C 2B  .N'.......'.+.<+
2700: 00 09 80 0A 80 13 1F 00  00 80 0B 1F 00 07 27 00  ..............'.
2710: 1F 00 03 02 10 0A 80 01  4E 27 02 19 00 0D 80 80  ........N'......
2720: 4E 27 06 2B 00 3C 2B 00  09 80 0A 80 13 1F 00 00  N'.+.<+.........
2730: 80 0B 1F 00 08 27 00 1F  00 02 27 00 6B 80 05 46  .....'....'.k..F
2740: 27 03 27 00 6B 80 03 02  10 0A 80 01 4E 27 48 69  '.'.k.......N'Hi
2750: 80 23 01 9F 27 02 00 10  03 80 00 9F 27 24 2F 80  .#..'.......'$/.
2760: 01 80 01 80 25 02 00 10  01 80 00 70 27 01 9C 27  ....%......p'..'
2770: 02 00 10 0A 80 00 9C 27  40 01 80 0F 80 01 10 02  .......'@.......
2780: 80 40 10 80 1E 80 01 10  01 80 43 00 43 01 03 46  .@........C.C..F
2790: 00 03 80 06 12 00 05 04  00 01 9C 27 01 9F 27 01  ...........'..'.
27A0: 67 23 1B 06 04 00 03 1E  00 28 00 3E 2B 00 03 80  g#.......(.>+...
27B0: 17 28 13 1F 00 0D 80 02  1F 00 01 80 80 C7 27 08  .(............'.
27C0: 1E 00 03 80 01 17 28 02  1F 00 0A 80 80 D7 27 08  ......(.......'.
27D0: 1E 00 00 80 01 17 28 02  1F 00 00 80 80 E7 27 08  ......(.......'.
27E0: 1E 00 0A 80 01 17 28 02  1F 00 03 80 80 F7 27 07  ......(.......'.
27F0: 1E 00 0A 80 01 17 28 02  1F 00 0C 80 80 07 28 07  ......(.......(.
2800: 1E 00 00 80 01 17 28 02  1F 00 0D 80 80 17 28 07  ......(.......(.
2810: 1E 00 03 80 01 17 28 0B  1E 00 02 2A 00 01 80 00  ......(....*....
2820: 65 2A 03 1D 00 1E 00 14  1D 00 00 80 15 1D 00 03  e*..............
2830: 80 02 1D 00 38 00 03 65  2A 06 1F 00 9D 00 C3 4A  ....8..e*......J
2840: 1C 00 15 00 02 1C 00 01  80 80 12 29 13 1F 00 0C  ...........)....
2850: 80 07 1F 00 0F 80 02 1F  00 0F 80 80 68 28 3C 2A  ............h(<*
2860: 00 0F 80 0A 80 01 0F 29  02 1F 00 10 80 80 7A 28  .......)......z(
2870: 3C 2A 00 10 80 0A 80 01  0F 29 02 1F 00 11 80 80  <*.......)......
2880: 97 28 02 2B 00 01 80 02  94 28 06 2B 00 3C 2B 00  .(.+.....(.+.<+.
2890: 09 80 0A 80 01 0F 29 02  1F 00 12 80 80 C6 28 06  ......).......(.
28A0: 2A 00 3C 2A 00 09 80 0A  80 13 1F 00 00 80 0B 1F  *.<*............
28B0: 00 07 27 00 1F 00 13 1F  00 00 80 0B 1F 00 07 28  ..'............(
28C0: 00 1F 00 01 0F 29 02 1F  00 13 80 80 0F 29 06 2A  .....).......).*
28D0: 00 3C 2A 00 09 80 0A 80  13 1F 00 00 80 0B 1F 00  .<*.............
28E0: 08 27 00 1F 00 02 27 00  6B 80 05 F2 28 03 27 00  .'....'.k...(.'.
28F0: 6B 80 13 1F 00 00 80 0B  1F 00 08 28 00 1F 00 02  k..........(....
2900: 28 00 6B 80 05 0C 29 03  28 00 6B 80 01 0F 29 01  (.k...).(.k...).
2910: 65 2A 02 1C 00 0A 80 80  65 2A 13 1F 00 12 80 0B  e*......e*......
2920: 1F 00 02 1F 00 0A 80 80  34 29 3C 2A 00 0A 80 0A  ........4)<*....
2930: 80 01 62 2A 02 1F 00 00  80 80 46 29 3C 2A 00 00  ..b*......F)<*..
2940: 80 0A 80 01 62 2A 02 1F  00 03 80 80 58 29 3C 2A  ....b*......X)<*
2950: 00 03 80 0A 80 01 62 2A  02 1F 00 0C 80 80 81 29  ......b*.......)
2960: 06 22 00 41 0F 80 13 80  2B 00 22 00 02 22 00 01  .".A....+.".."..
2970: 80 02 7E 29 06 2B 00 3C  2B 00 09 80 0A 80 01 62  ..~).+.<+......b
2980: 2A 02 1F 00 0D 80 80 93  29 3C 2A 00 0D 80 0A 80  *.......)<*.....
2990: 01 62 2A 02 1F 00 0E 80  80 A5 29 3C 2A 00 0E 80  .b*.......)<*...
29A0: 0A 80 01 62 2A 02 1F 00  10 80 80 B7 29 3C 2A 00  ...b*.......)<*.
29B0: 10 80 0A 80 01 62 2A 02  1F 00 11 80 80 EA 29 06  .....b*.......).
29C0: 22 00 41 0A 80 0E 80 2B  00 22 00 02 22 00 01 80  ".A....+.".."...
29D0: 02 DD 29 06 2B 00 3C 2B  00 09 80 0A 80 06 2A 00  ..).+.<+......*.
29E0: 3C 2A 00 09 80 0A 80 01  62 2A 02 1F 00 12 80 80  <*......b*......
29F0: 19 2A 06 2A 00 3C 2A 00  09 80 0A 80 13 1F 00 00  .*.*.<*.........
2A00: 80 0B 1F 00 07 27 00 1F  00 13 1F 00 00 80 0B 1F  .....'..........
2A10: 00 07 28 00 1F 00 01 62  2A 02 1F 00 13 80 80 62  ..(....b*......b
2A20: 2A 06 2A 00 3C 2A 00 09  80 0A 80 13 1F 00 00 80  *.*.<*..........
2A30: 0B 1F 00 08 27 00 1F 00  02 27 00 6B 80 05 45 2A  ....'....'.k..E*
2A40: 03 27 00 6B 80 13 1F 00  00 80 0B 1F 00 08 28 00  .'.k..........(.
2A50: 1F 00 02 28 00 6B 80 05  5F 2A 03 28 00 6B 80 01  ...(.k.._*.(.k..
2A60: 62 2A 01 65 2A 03 1A 00  0C 80 02 1E 00 38 00 05  b*.e*........8..
2A70: 7A 2A 03 1A 00 01 80 01  94 2A 03 1A 00 1E 00 08  z*.......*......
2A80: 1A 00 38 00 02 1A 00 0D  80 04 91 2A 03 1A 00 0D  ..8........*....
2A90: 80 0C 1A 00 13 1F 00 1A  00 0B 1F 00 3E 2B 00 0E  ............>+..
2AA0: 80 AB 2A 13 1F 00 00 80  0B 1F 00 3E 2B 00 0D 80  ..*........>+...
2AB0: BC 2A 13 1F 00 00 80 07  1F 00 03 80 07 38 00 1F  .*...........8..
2AC0: 00 02 38 00 27 00 02 FA  2A 03 46 00 00 80 03 02  ..8.'...*.F.....
2AD0: 10 0A 80 03 03 10 01 80  48 66 80 23 40 01 80 0F  ........Hf.#@...
2AE0: 80 01 10 0D 80 40 10 80  1E 80 01 10 01 80 43 00  .....@........C.
2AF0: 43 01 03 12 00 09 10 01  A9 2B 03 46 00 01 80 03  C........+.F....
2B00: 02 10 0A 80 03 03 10 38  00 3E 2A 00 03 80 A5 2B  .......8.>*....+
2B10: 13 1F 00 0D 80 02 1F 00  01 80 80 35 2B 02 03 10  ...........5+...
2B20: 03 80 04 2D 2B 08 03 10  03 80 01 32 2B 03 03 10  ...-+......2+...
2B30: 01 80 01 A5 2B 02 1F 00  0A 80 80 55 2B 02 03 10  ....+......U+...
2B40: 00 80 04 4D 2B 08 03 10  00 80 01 52 2B 03 03 10  ...M+......R+...
2B50: 01 80 01 A5 2B 02 1F 00  00 80 80 75 2B 02 03 10  ....+......u+...
2B60: 0A 80 04 6D 2B 08 03 10  0A 80 01 72 2B 03 03 10  ...m+......r+...
2B70: 01 80 01 A5 2B 02 1F 00  03 80 80 85 2B 07 03 10  ....+.......+...
2B80: 0A 80 01 A5 2B 02 1F 00  0C 80 80 95 2B 07 03 10  ....+.......+...
2B90: 00 80 01 A5 2B 02 1F 00  0D 80 80 A5 2B 07 03 10  ....+.......+...
2BA0: 03 80 01 A5 2B 48 67 80  23 1B 45 2E 80 F0 FF FF  ....+Hg.#.E.....
2BB0: 7F F0 FF FF 7F 66 64 6F  31 01 80 55 2E 80 F0 FF  .....fdo1..U....
2BC0: FF 7F F0 FF FF 7F 66 64  6F 31 46 01 38 32 80 4E  ......fdo1F.82.N
2BD0: 01 F0 FF FF 7F 7B F8 FF  FF 7F 2F 00 CE 00 10 01  .....{..../.....
2BE0: 4E 00 CE 00 10 01 92 01  F8 FF FF 7F 92 01 CE 00  N...............
2BF0: 10 01 59 05 CE 00 10 01  01 27 05 CE 00 10 01 0F  ..Y......'......
2C00: BA CE 00 10 01 6C 80 6D  80 35 80 36 80 37 6E 80  .....l.m.5.6.7n.
2C10: 6F 80 39 80 36 80 80 CE  00 10 01 80 F8 FF FF 7F  o.9.6...........
2C20: 45 30 80 F0 FF FF 7F F0  FF FF 7F 73 30 38 36 01  E0.........s086.
2C30: 80 1C 02 80 45 2E 80 F0  FF FF 7F F0 FF FF 7F 66  ....E..........f
2C40: 64 69 31 01 80 06 27 00  9D 00 B3 4A 19 00 15 00  di1...'....J....
2C50: 13 27 00 19 00 07 27 00  6B 80 15 19 00 00 80 13  .'....'.k.......
2C60: 28 00 19 00 07 28 00 6B  80 06 2A 00 06 2B 00 06  (....(.k..*..+..
2C70: 38 00 1B 03 0C 00 0C 80  06 2F 00 1A 11 05 1B 03  8......../......
2C80: 03 10 0E 80 03 04 10 70  80 03 05 10 71 80 03 06  .......p....q...
2C90: 10 72 80 03 07 10 0A 80  03 08 10 0C 80 03 09 10  .r..............
2CA0: 02 80 1D 73 80 23 1D 74  80 23 1D 75 80 23 1D 76  ...s.#.t.#.u.#.v
2CB0: 80 23 1D 77 80 23 1D 78  80 23 1D 79 80 23 1B 1A  .#.w.#.x.#.y.#..
2CC0: 9D 2F 02 02 00 01 80 00  99 2F 48 7A 80 23 0B 19  ./......./Hz.#..
2CD0: 00 02 19 00 0A 80 80 FC  2C BB 31 80 F8 FF FF 7F  ........,.1.....
2CE0: F8 FF FF 7F 6D 31 30 31  01 80 BC 31 80 F8 FF FF  ....m101...1....
2CF0: 7F F8 FF FF 7F 6D 31 30  31 01 D3 2D 02 19 00 00  .....m101..-....
2D00: 80 80 27 2D BB 31 80 F8  FF FF 7F F8 FF FF 7F 6D  ..'-.1.........m
2D10: 32 30 32 01 80 BC 31 80  F8 FF FF 7F F8 FF FF 7F  202...1.........
2D20: 6D 32 30 32 01 D3 2D 02  19 00 03 80 80 52 2D BB  m202..-......R-.
2D30: 31 80 F8 FF FF 7F F8 FF  FF 7F 6D 33 30 33 01 80  1.........m303..
2D40: BC 31 80 F8 FF FF 7F F8  FF FF 7F 6D 33 30 33 01  .1.........m303.
2D50: D3 2D 02 19 00 0C 80 80  7D 2D BB 31 80 F8 FF FF  .-......}-.1....
2D60: 7F F8 FF FF 7F 6D 34 30  34 01 80 BC 31 80 F8 FF  .....m404...1...
2D70: FF 7F F8 FF FF 7F 6D 34  30 34 01 D3 2D 02 19 00  ......m404..-...
2D80: 0D 80 80 A8 2D BB 31 80  F8 FF FF 7F F8 FF FF 7F  ....-.1.........
2D90: 6D 35 30 35 01 80 BC 31  80 F8 FF FF 7F F8 FF FF  m505...1........
2DA0: 7F 6D 35 30 35 01 D3 2D  02 19 00 0E 80 80 D3 2D  .m505..-.......-
2DB0: BB 31 80 F8 FF FF 7F F8  FF FF 7F 6D 36 30 36 01  .1.........m606.
2DC0: 80 BC 31 80 F8 FF FF 7F  F8 FF FF 7F 6D 36 30 36  ..1.........m606
2DD0: 01 D3 2D 06 1D 00 02 1D  00 0E 80 03 52 2E 0B 1D  ..-.........R...
2DE0: 00 02 1D 00 19 00 01 4F  2E 02 1D 00 0A 80 80 FA  .......O........
2DF0: 2D 4E 01 6E 01 10 01 01  4F 2E 02 1D 00 00 80 80  -N.n....O.......
2E00: 0B 2E 4E 01 6F 01 10 01  01 4F 2E 02 1D 00 03 80  ..N.o....O......
2E10: 80 1C 2E 4E 01 70 01 10  01 01 4F 2E 02 1D 00 0C  ...N.p....O.....
2E20: 80 80 2D 2E 4E 01 71 01  10 01 01 4F 2E 02 1D 00  ..-.N.q....O....
2E30: 0D 80 80 3E 2E 4E 01 72  01 10 01 01 4F 2E 02 1D  ...>.N.r....O...
2E40: 00 0E 80 80 4F 2E 4E 01  73 01 10 01 01 4F 2E 01  ....O.N.s....O..
2E50: D6 2D 45 2E 80 F0 FF FF  7F F0 FF FF 7F 73 30 33  .-E..........s03
2E60: 31 01 80 02 19 00 0A 80  80 7B 2E 2C 6E 01 10 01  1........{.,n...
2E70: 6E 01 10 01 6F 70 65 6E  01 F3 2E 02 19 00 00 80  n...open........
2E80: 80 93 2E 2C 6F 01 10 01  6F 01 10 01 6F 70 65 6E  ...,o...o...open
2E90: 01 F3 2E 02 19 00 03 80  80 AB 2E 2C 70 01 10 01  ...........,p...
2EA0: 70 01 10 01 6F 70 65 6E  01 F3 2E 02 19 00 0C 80  p...open........
2EB0: 80 C3 2E 2C 71 01 10 01  71 01 10 01 6F 70 65 6E  ...,q...q...open
2EC0: 01 F3 2E 02 19 00 0D 80  80 DB 2E 2C 72 01 10 01  ...........,r...
2ED0: 72 01 10 01 6F 70 65 6E  01 F3 2E 02 19 00 0E 80  r...open........
2EE0: 80 F3 2E 2C 73 01 10 01  73 01 10 01 6F 70 65 6E  ...,s...s...open
2EF0: 01 F3 2E 93 20 00 03 03  10 20 00 02 0E 00 11 80  .... .... ......
2F00: 80 13 2F 03 04 10 15 00  0B 04 10 14 04 10 0A 80  ../.............
2F10: 01 43 2F 02 0E 00 12 80  80 2B 2F 03 04 10 15 00  .C/......+/.....
2F20: 0B 04 10 14 04 10 0C 80  01 43 2F 02 0E 00 13 80  .........C/.....
2F30: 80 43 2F 03 04 10 15 00  0B 04 10 14 04 10 02 80  .C/.............
2F40: 01 43 2F 48 7B 80 23 93  01 80 40 01 80 0F 80 01  .C/H{.#...@.....
2F50: 10 0E 00 40 10 80 1E 80  01 10 01 80 40 1F 80 18  ...@........@...
2F60: 80 01 10 01 80 43 00 43  01 03 0E 00 03 10 03 30  .....C.C.......0
2F70: 00 04 10 03 31 00 07 10  03 32 00 08 10 03 12 00  ....1....2......
2F80: 09 10 02 12 00 01 80 02  90 2F 05 17 00 01 93 2F  ........./...../
2F90: 06 17 00 1A 65 06 01 C2  2C 1A AC 33 1B 02 2F 00  ....e...,..3../.
2FA0: 01 80 00 42 30 40 01 80  0F 80 01 10 0B 80 40 10  ...B0@........@.
2FB0: 80 1E 80 01 10 15 00 43  00 43 01 03 0E 00 03 10  .......C.C......
2FC0: 03 30 00 04 10 03 31 00  07 10 03 32 00 08 10 03  .0....1....2....
2FD0: 12 00 09 10 05 2F 00 45  2E 80 F0 FF FF 7F F0 FF  ...../.E........
2FE0: FF 7F 66 64 6F 31 01 80  55 2E 80 F0 FF FF 7F F0  ..fdo1..U.......
2FF0: FF FF 7F 66 64 6F 31 46  01 4E 01 F0 FF FF 7F 7B  ...fdo1F.N.....{
3000: F8 FF FF 7F 92 01 F8 FF  FF 7F 38 32 80 1A 46 30  ..........82..F0
3010: 4B F8 FF FF 7F 7C 80 6F  76 F8 FF FF 7F 45 7D 80  K....|.ov....E}.
3020: F8 FF FF 7F F8 FF FF 7F  73 30 30 31 01 80 45 2E  ........s001..E.
3030: 80 F0 FF FF 7F F0 FF FF  7F 66 64 69 31 01 80 01  .........fdi1...
3040: 45 30 1A 46 30 1B 2F 00  6E 01 10 01 4E 00 6E 01  E0.F0./.n...N.n.
3050: 10 01 92 01 6E 01 10 01  59 05 6E 01 10 01 01 2F  ....n...Y.n..../
3060: 00 6F 01 10 01 4E 00 6F  01 10 01 92 01 6F 01 10  .o...N.o.....o..
3070: 01 59 05 6F 01 10 01 01  2F 00 70 01 10 01 4E 00  .Y.o..../.p...N.
3080: 70 01 10 01 92 01 70 01  10 01 59 05 70 01 10 01  p.....p...Y.p...
3090: 01 2F 00 71 01 10 01 4E  00 71 01 10 01 92 01 71  ./.q...N.q.....q
30A0: 01 10 01 59 05 71 01 10  01 01 2F 00 72 01 10 01  ...Y.q..../.r...
30B0: 4E 00 72 01 10 01 92 01  72 01 10 01 59 05 72 01  N.r.....r...Y.r.
30C0: 10 01 01 2F 00 73 01 10  01 4E 00 73 01 10 01 92  .../.s...N.s....
30D0: 01 73 01 10 01 59 05 73  01 10 01 01 69 01 0A 80  .s...Y.s....i...
30E0: 2C 6E 01 10 01 6E 01 10  01 63 6C 6F 73 2C 6F 01  ,n...n...clos,o.
30F0: 10 01 6F 01 10 01 63 6C  6F 73 2C 70 01 10 01 70  ..o...clos,p...p
3100: 01 10 01 63 6C 6F 73 2C  71 01 10 01 71 01 10 01  ...clos,q...q...
3110: 63 6C 6F 73 2C 72 01 10  01 72 01 10 01 63 6C 6F  clos,r...r...clo
3120: 73 2C 73 01 10 01 73 01  10 01 63 6C 6F 73 1A A5  s,s...s...clos..
3130: 31 BA 6E 01 10 01 7E 80  7F 80 80 80 81 80 BA 6F  1.n...~........o
3140: 01 10 01 82 80 83 80 80  80 81 80 BA 70 01 10 01  ............p...
3150: 84 80 85 80 80 80 81 80  BA 71 01 10 01 86 80 87  .........q......
3160: 80 80 80 81 80 BA 72 01  10 01 88 80 89 80 80 80  ......r.........
3170: 81 80 BA 73 01 10 01 8A  80 8B 80 80 80 81 80 80  ...s............
3180: 6E 01 10 01 80 6F 01 10  01 80 70 01 10 01 80 71  n....o....p....q
3190: 01 10 01 80 72 01 10 01  80 73 01 10 01 1C 3A 80  ....r....s....:.
31A0: 69 00 0A 80 1B 06 1D 00  02 0E 00 11 80 80 08 32  i..............2
31B0: 13 19 00 0D 80 02 1D 00  0E 80 03 05 32 02 1D 00  ............2...
31C0: 19 00 01 DD 31 13 1B 00  02 80 9D 00 6B 36 1F 00  ....1.......k6..
31D0: 1B 00 9D 05 C3 47 1F 00  1D 00 01 FF 31 13 1B 00  .....G......1...
31E0: 0F 80 9D 00 1B 36 1F 00  1B 00 9D 05 C3 47 1F 00  .....6.......G..
31F0: 1D 00 13 1B 00 0F 80 9D  00 AB 36 20 00 1B 00 0B  ..........6 ....
3200: 1D 00 01 B5 31 01 99 33  02 0E 00 12 80 80 68 32  ....1..3......h2
3210: 13 19 00 0D 80 02 1D 00  0E 80 03 65 32 02 1D 00  ...........e2...
3220: 19 00 01 3D 32 13 1B 00  02 80 9D 00 6B 36 1F 00  ...=2.......k6..
3230: 1B 00 9D 05 C3 47 1F 00  1D 00 01 5F 32 13 1B 00  .....G....._2...
3240: 0F 80 9D 00 2B 36 1F 00  1B 00 9D 05 C3 47 1F 00  ....+6.......G..
3250: 1D 00 13 1B 00 0F 80 9D  00 BB 36 20 00 1B 00 0B  ..........6 ....
3260: 1D 00 01 15 32 01 99 33  02 0E 00 13 80 80 99 33  ....2..3.......3
3270: 13 19 00 0D 80 02 1D 00  0E 80 03 96 33 02 1D 00  ............3...
3280: 19 00 01 C3 32 13 1B 00  02 80 02 12 00 01 80 00  ....2...........
3290: 9D 32 9D 00 6B 36 1F 00  1B 00 01 B8 32 02 32 00  .2..k6......2.2.
32A0: 03 80 02 B0 32 9D 00 8B  36 1F 00 1B 00 01 B8 32  ....2...6......2
32B0: 9D 00 6B 36 1F 00 1B 00  9D 05 C3 47 1F 00 1D 00  ..k6.......G....
32C0: 01 90 33 06 1A 00 03 1A  00 32 00 0B 1A 00 14 1A  ..3......2......
32D0: 00 1A 00 15 1A 00 6B 80  13 1B 00 0F 80 02 1A 00  ......k.........
32E0: 01 80 80 F0 32 9D 00 3B  36 1F 00 1B 00 01 16 33  ....2..;6......3
32F0: 02 1A 00 0A 80 80 03 33  9D 00 4B 36 1F 00 1B 00  .......3..K6....
3300: 01 16 33 02 1A 00 00 80  80 16 33 9D 00 5B 36 1F  ..3.......3..[6.
3310: 00 1B 00 01 16 33 9D 05  C3 47 1F 00 1D 00 06 1A  .....3...G......
3320: 00 03 1A 00 31 00 08 1A  00 8C 80 15 1A 00 09 80  ....1...........
3330: 02 1A 00 01 80 80 48 33  13 1B 00 0F 80 9D 00 CB  ......H3........
3340: 36 20 00 1B 00 01 90 33  02 1A 00 0A 80 80 60 33  6 .....3......`3
3350: 13 1B 00 0F 80 9D 00 DB  36 20 00 1B 00 01 90 33  ........6 .....3
3360: 02 1A 00 00 80 80 78 33  13 1B 00 0F 80 9D 00 DB  ......x3........
3370: 36 20 00 1B 00 01 90 33  02 1A 00 03 80 80 90 33  6 .....3.......3
3380: 13 1B 00 0F 80 9D 00 EB  36 20 00 1B 00 01 90 33  ........6 .....3
3390: 0B 1D 00 01 75 32 01 99  33 1A F9 33 1A 54 34 1A  ....u2..3..3.T4.
33A0: AF 34 1A 0A 35 1A 65 35  1A C0 35 1B 45 2E 80 F0  .4..5.e5..5.E...
33B0: FF FF 7F F0 FF FF 7F 66  64 6F 31 01 80 55 2E 80  .......fdo1..U..
33C0: F0 FF FF 7F F0 FF FF 7F  66 64 6F 31 92 00 F8 FF  ........fdo1....
33D0: FF 7F 4E 00 F0 FF FF 7F  80 F0 FF FF 7F 1E F0 FF  ..N.............
33E0: FF 7F 46 00 1C 31 80 45  2E 80 F0 FF FF 7F F0 FF  ..F..1.E........
33F0: FF 7F 66 64 69 32 01 80  1B 02 03 10 0A 80 80 0B  ..fdi2..........
3400: 34 27 05 6E 01 10 01 01  01 53 34 02 03 10 00 80  4'.n.....S4.....
3410: 80 1D 34 27 05 6E 01 10  01 02 01 53 34 02 03 10  ..4'.n.....S4...
3420: 03 80 80 2F 34 27 05 6E  01 10 01 03 01 53 34 02  .../4'.n.....S4.
3430: 03 10 0C 80 80 41 34 27  05 6E 01 10 01 04 01 53  .....A4'.n.....S
3440: 34 02 03 10 0D 80 80 53  34 27 05 6E 01 10 01 05  4......S4'.n....
3450: 01 53 34 1B 02 04 10 0A  80 80 66 34 27 05 6F 01  .S4.......f4'.o.
3460: 10 01 01 01 AE 34 02 04  10 00 80 80 78 34 27 05  .....4......x4'.
3470: 6F 01 10 01 02 01 AE 34  02 04 10 03 80 80 8A 34  o......4.......4
3480: 27 05 6F 01 10 01 03 01  AE 34 02 04 10 0C 80 80  '.o......4......
3490: 9C 34 27 05 6F 01 10 01  04 01 AE 34 02 04 10 0D  .4'.o......4....
34A0: 80 80 AE 34 27 05 6F 01  10 01 05 01 AE 34 1B 02  ...4'.o......4..
34B0: 05 10 0A 80 80 C1 34 27  05 70 01 10 01 01 01 09  ......4'.p......
34C0: 35 02 05 10 00 80 80 D3  34 27 05 70 01 10 01 02  5.......4'.p....
34D0: 01 09 35 02 05 10 03 80  80 E5 34 27 05 70 01 10  ..5.......4'.p..
34E0: 01 03 01 09 35 02 05 10  0C 80 80 F7 34 27 05 70  ....5.......4'.p
34F0: 01 10 01 04 01 09 35 02  05 10 0D 80 80 09 35 27  ......5.......5'
3500: 05 70 01 10 01 05 01 09  35 1B 02 06 10 0A 80 80  .p......5.......
3510: 1C 35 27 05 71 01 10 01  01 01 64 35 02 06 10 00  .5'.q.....d5....
3520: 80 80 2E 35 27 05 71 01  10 01 02 01 64 35 02 06  ...5'.q.....d5..
3530: 10 03 80 80 40 35 27 05  71 01 10 01 03 01 64 35  ....@5'.q.....d5
3540: 02 06 10 0C 80 80 52 35  27 05 71 01 10 01 04 01  ......R5'.q.....
3550: 64 35 02 06 10 0D 80 80  64 35 27 05 71 01 10 01  d5......d5'.q...
3560: 05 01 64 35 1B 02 07 10  0A 80 80 77 35 27 05 72  ..d5.......w5'.r
3570: 01 10 01 01 01 BF 35 02  07 10 00 80 80 89 35 27  ......5.......5'
3580: 05 72 01 10 01 02 01 BF  35 02 07 10 03 80 80 9B  .r......5.......
3590: 35 27 05 72 01 10 01 03  01 BF 35 02 07 10 0C 80  5'.r......5.....
35A0: 80 AD 35 27 05 72 01 10  01 04 01 BF 35 02 07 10  ..5'.r......5...
35B0: 0D 80 80 BF 35 27 05 72  01 10 01 05 01 BF 35 1B  ....5'.r......5.
35C0: 02 08 10 0A 80 80 D2 35  27 05 73 01 10 01 01 01  .......5'.s.....
35D0: 1A 36 02 08 10 00 80 80  E4 35 27 05 73 01 10 01  .6.......5'.s...
35E0: 02 01 1A 36 02 08 10 03  80 80 F6 35 27 05 73 01  ...6.......5'.s.
35F0: 10 01 03 01 1A 36 02 08  10 0C 80 80 08 36 27 05  .....6.......6'.
3600: 73 01 10 01 04 01 1A 36  02 08 10 0D 80 80 1A 36  s......6.......6
3610: 27 05 73 01 10 01 05 01  1A 36 1B 00 80 00 80 00  '.s......6......
3620: 80 00 80 00 80 00 80 00  80 00 80 03 80 03 80 03  ................
3630: 80 03 80 03 80 03 80 0C  80 0C 80 03 80 03 80 03  ................
3640: 80 03 80 03 80 0C 80 0C  80 0D 80 03 80 03 80 0C  ................
3650: 80 0C 80 0C 80 0D 80 0D  80 0D 80 0C 80 0C 80 0D  ................
3660: 80 0D 80 0D 80 0D 80 0D  80 0D 80 00 80 00 80 00  ................
3670: 80 00 80 00 80 00 80 00  80 00 80 03 80 03 80 03  ................
3680: 80 03 80 03 80 03 80 0C  80 0C 80 03 80 03 80 03  ................
3690: 80 03 80 03 80 03 80 03  80 03 80 0C 80 0C 80 0C  ................
36A0: 80 0C 80 0D 80 0D 80 0D  80 0D 80 70 80 8D 80 8E  ...........p....
36B0: 80 8F 80 90 80 91 80 92  80 93 80 71 80 94 80 95  ...........q....
36C0: 80 96 80 97 80 98 80 99  80 9A 80 72 80 72 80 72  ...........r.r.r
36D0: 80 72 80 72 80 9B 80 9B  80 9C 80 72 80 72 80 9B  .r.r.......r.r..
36E0: 80 9B 80 9C 80 9D 80 9E  80 9F 80 72 80 9B 80 9C  ...........r....
36F0: 80 9D 80 9E 80 9F 80 A0  80 A1 80 03 0C 00 0D 80  ................
3700: 06 2F 00 1A 11 05 1B 1D  A2 80 23 1D A3 80 23 1D  ./........#...#.
3710: A4 80 23 1D A5 80 23 1D  A6 80 23 1D A7 80 23 1D  ..#...#...#...#.
3720: A8 80 23 1B 1A A3 42 02  02 00 01 80 00 CB 37 06  ..#...B.......7.
3730: 18 00 1A 96 43 48 A9 80  23 1A 59 38 03 2D 00 18  ....CH..#.Y8.-..
3740: 00 02 18 00 0A 80 80 4F  37 1A E6 3C 01 C8 37 02  .......O7..<..7.
3750: 18 00 00 80 80 C8 37 02  3E 00 03 80 05 C2 37 1A  ......7.>.....7.
3760: E6 3C 02 18 00 00 80 80  B1 37 1D AA 80 23 1A CF  .<.......7...#..
3770: 37 40 01 80 0F 80 01 10  46 00 40 10 80 1E 80 01  7@......F.@.....
3780: 10 01 80 40 1F 80 18 80  01 10 01 80 43 00 43 01  ...@........C.C.
3790: 03 12 00 09 10 02 12 00  01 80 02 A3 37 05 17 00  ............7...
37A0: 01 A6 37 06 17 00 1A 65  06 03 3E 00 03 80 01 BC  ..7....e..>.....
37B0: 37 02 18 00 0A 80 80 BC  37 01 BC 37 0B 3E 00 01  7.......7..7.>..
37C0: 57 37 06 3E 00 01 C8 37  01 27 37 1A FD 46 1B 06  W7.>...7.'7..F..
37D0: 46 00 1A 96 43 48 A9 80  23 1A D2 43 48 A9 80 23  F...CH..#..CH..#
37E0: 1A 43 41 03 3C 00 45 00  1A 06 41 03 3D 00 45 00  .CA.<.E...A.=.E.
37F0: 02 3D 00 3C 00 03 11 38  03 03 10 3C 00 03 04 10  .=.<...8...<....
3800: 3D 00 03 05 10 01 80 48  AB 80 23 03 46 00 0D 80  =......H..#.F...
3810: 1B 02 3D 00 3C 00 02 32  38 03 03 10 3C 00 03 04  ..=.<..28...<...
3820: 10 3D 00 03 05 10 0A 80  48 AB 80 23 03 46 00 0F  .=......H..#.F..
3830: 80 1B 02 3D 00 3C 00 00  53 38 03 03 10 3C 00 03  ...=.<..S8...<..
3840: 04 10 3D 00 03 05 10 00  80 48 AB 80 23 03 46 00  ..=......H..#.F.
3850: 0E 80 1B 03 46 00 0F 80  1B 0B 3E 00 06 04 00 06  ....F.....>.....
3860: 09 00 06 24 00 02 04 00  01 80 00 AE 39 03 01 00  ...$........9...
3870: 0A 80 24 AC 80 09 00 01  00 25 02 00 10 01 80 00  ..$......%......
3880: 85 38 01 85 38 03 09 00  00 10 02 09 00 01 80 80  .8..8...........
3890: A1 38 1A 96 43 48 A9 80  23 03 18 00 01 80 01 AB  .8..CH..#.......
38A0: 39 02 09 00 0A 80 80 59  39 06 07 00 06 2E 00 06  9......Y9.......
38B0: 3C 00 02 07 00 01 80 00  56 39 1A 96 43 41 0A 80  <.......V9..CA..
38C0: 0A 80 3C 00 09 17 41 00  80 00 80 3C 00 0A 17 41  ..<...A....<...A
38D0: 03 80 03 80 3C 00 0B 17  06 24 00 02 3C 00 01 80  ....<....$..<...
38E0: 00 EA 38 3C 24 00 0C 80  0A 80 24 AD 80 2E 00 24  ..8<$.....$....$
38F0: 00 25 02 00 10 01 80 00  05 39 03 18 00 01 80 05  .%.......9......
3900: 07 00 01 2E 39 02 00 10  0C 80 00 2E 39 1A AF 39  ....9.......9..9
3910: 05 07 00 05 04 00 02 3E  00 03 80 04 26 39 03 18  .......>....&9..
3920: 00 00 80 01 2B 39 03 18  00 0A 80 01 2E 39 03 2E  ....+9.......9..
3930: 00 00 10 02 07 00 01 80  00 53 39 3E 3C 00 2E 00  .........S9><...
3940: 4C 39 3D 3C 00 2E 00 0A  80 01 53 39 3C 3C 00 2E  L9=<......S9<<..
3950: 00 0A 80 01 B2 38 01 AB  39 02 09 00 00 80 80 6C  .....8..9......l
3960: 39 1A 80 3B 03 18 00 01  80 01 AB 39 02 09 00 03  9..;.......9....
3970: 80 80 98 39 48 A2 80 23  48 A3 80 23 48 A4 80 23  ...9H..#H..#H..#
3980: 48 A5 80 23 48 A6 80 23  48 A7 80 23 48 A8 80 23  H..#H..#H..#H..#
3990: 03 18 00 01 80 01 AB 39  02 09 00 0C 80 80 AB 39  .......9.......9
39A0: 05 04 00 03 18 00 00 80  01 AB 39 01 65 38 1B 06  ..........9.e8..
39B0: 1D 00 3E 3C 00 0A 80 E9  39 03 22 00 01 80 1A 0E  ..><....9.".....
39C0: 44 03 1A 00 1D 00 03 1B  00 1A 00 07 1B 00 10 80  D...............
39D0: 9D 05 C3 47 39 00 1A 00  9D 05 C3 47 38 00 1B 00  ...G9......G8...
39E0: 1A A4 45 1A 81 44 0B 1D  00 3E 3C 00 00 80 20 3A  ..E..D...><... :
39F0: 03 22 00 0A 80 1A 0E 44  03 1A 00 1D 00 03 1B 00  .".....D........
3A00: 1A 00 07 1B 00 10 80 9D  05 C3 47 39 00 1A 00 9D  ..........G9....
3A10: 05 C3 47 38 00 1B 00 1A  A4 45 1A 81 44 0B 1D 00  ..G8.....E..D...
3A20: 3E 3C 00 03 80 57 3A 03  22 00 00 80 1A 0E 44 03  ><...W:.".....D.
3A30: 1A 00 1D 00 03 1B 00 1A  00 07 1B 00 10 80 9D 05  ................
3A40: C3 47 39 00 1A 00 9D 05  C3 47 38 00 1B 00 1A A4  .G9......G8.....
3A50: 45 1A 81 44 0B 1D 00 03  1D 17 01 80 03 1E 17 1D  E..D............
3A60: 00 02 1D 00 0A 80 80 70  3A 48 AE 80 23 01 8E 3A  .......p:H..#..:
3A70: 02 1D 00 00 80 80 7F 3A  48 AF 80 23 01 8E 3A 02  .......:H..#..:.
3A80: 1D 00 03 80 80 8E 3A 48  B0 80 23 01 8E 3A 1B 06  ......:H..#..:..
3A90: 1D 00 3E 3D 00 0A 80 C9  3A 03 23 00 01 80 1A D9  ..>=....:.#.....
3AA0: 44 03 1A 00 1D 00 03 1B  00 1A 00 07 1B 00 10 80  D...............
3AB0: 9D 05 C3 47 39 00 1A 00  9D 05 C3 47 38 00 1B 00  ...G9......G8...
3AC0: 1A A4 45 1A 4C 45 0B 1D  00 3E 3D 00 00 80 00 3B  ..E.LE...>=....;
3AD0: 03 23 00 0A 80 1A D9 44  03 1A 00 1D 00 03 1B 00  .#.....D........
3AE0: 1A 00 07 1B 00 10 80 9D  05 C3 47 39 00 1A 00 9D  ..........G9....
3AF0: 05 C3 47 38 00 1B 00 1A  A4 45 1A 4C 45 0B 1D 00  ..G8.....E.LE...
3B00: 3E 3D 00 03 80 37 3B 03  23 00 00 80 1A D9 44 03  >=...7;.#.....D.
3B10: 1A 00 1D 00 03 1B 00 1A  00 07 1B 00 10 80 9D 05  ................
3B20: C3 47 39 00 1A 00 9D 05  C3 47 38 00 1B 00 1A A4  .G9......G8.....
3B30: 45 1A 4C 45 0B 1D 00 6E  6C 01 10 01 1D 80 99 6C  E.LE...nl......l
3B40: 01 10 01 03 1D 17 0A 80  03 1E 17 1D 00 02 1D 00  ................
3B50: 0A 80 80 5C 3B 48 AE 80  23 01 7A 3B 02 1D 00 00  ...\;H..#.z;....
3B60: 80 80 6B 3B 48 AF 80 23  01 7A 3B 02 1D 00 03 80  ..k;H..#.z;.....
3B70: 80 7A 3B 48 B0 80 23 01  7A 3B 99 6C 01 10 01 1B  .z;H..#.z;.l....
3B80: 06 07 00 06 2E 00 02 07  00 01 80 00 E2 3B 1A E3  .............;..
3B90: 3B 24 B1 80 2E 00 24 00  25 02 00 10 01 80 00 A7  ;$....$.%.......
3BA0: 3B 05 07 00 01 A7 3B 03  2E 00 00 10 02 2E 00 01  ;.....;.........
3BB0: 80 02 DF 3B 03 1E 00 2E  00 0C 1E 00 9D 00 C3 47  ...;...........G
3BC0: 39 00 1E 00 07 1E 00 08  80 9D 00 C3 47 38 00 1E  9...........G8..
3BD0: 00 03 03 10 39 00 03 01  17 38 00 1D B2 80 23 01  ....9....8....#.
3BE0: 86 3B 1B 1A A9 47 06 1D  00 06 3B 00 03 24 00 19  .;...G....;..$..
3BF0: 80 02 1D 00 37 00 03 8F  3C 06 1A 00 06 1B 00 03  ....7...<.......
3C00: 1F 00 1D 00 15 1F 00 0E  80 9D 00 4A 47 1E 00 1F  ...........JG...
3C10: 00 3F 1F 00 1D 00 0E 80  03 1A 00 1F 00 14 1A 00  .?..............
3C20: 0D 80 03 1B 00 1A 00 07  1B 00 0D 80 0C 1B 00 41  ...............A
3C30: 1A 00 1B 00 1E 00 3A 00  03 1F 00 3A 00 1A 95 3C  ......:....:...<
3C40: 02 25 00 01 80 00 89 3C  03 3A 00 1F 00 06 38 00  .%.....<.:....8.
3C50: 06 39 00 41 01 80 00 80  3A 00 38 00 41 03 80 0C  .9.A....:.8.A...
3C60: 80 3A 00 39 00 03 20 00  3B 00 07 20 00 08 80 9D  .:.9.. .;.. ....
3C70: 05 C3 47 39 00 3B 00 9D  05 C3 47 38 00 20 00 3D  ..G9.;....G8. .=
3C80: 24 00 3B 00 0A 80 0B 3B  00 0B 1D 00 01 F1 3B 10  $.;....;......;.
3C90: 24 00 0A 80 1B 06 25 00  06 22 00 06 23 00 02 22  $.....%.."..#.."
3CA0: 00 03 80 03 C4 3C 1A 0E  44 02 3A 00 1F 00 00 BE  .....<..D.:.....
3CB0: 3C 05 25 00 03 22 00 03  80 03 23 00 03 80 0B 22  <.%.."....#...."
3CC0: 00 01 9E 3C 02 23 00 03  80 03 E5 3C 1A D9 44 02  ...<.#.....<..D.
3CD0: 3A 00 1F 00 00 DF 3C 05  25 00 03 23 00 03 80 0B  :.....<.%..#....
3CE0: 23 00 01 C4 3C 1B 06 3D  00 1A BF 3F 02 18 00 00  #...<..=...?....
3CF0: 80 80 12 3D 6E 6C 01 10  01 0E 80 99 6C 01 10 01  ...=nl......l...
3D00: 03 1D 17 0A 80 48 B3 80  23 99 6C 01 10 01 1B 01  .....H..#.l.....
3D10: 12 3D 06 3D 00 02 15 00  01 80 80 23 3D 1A A5 3D  .=.=.......#=..=
3D20: 01 5B 3D 02 15 00 0A 80  80 31 3D 1A A5 3D 01 5B  .[=......1=..=.[
3D30: 3D 02 15 00 00 80 80 3F  3D 1A 1C 3E 01 5B 3D 02  =......?=..>.[=.
3D40: 15 00 03 80 80 4D 3D 1A  1C 3E 01 5B 3D 02 15 00  .....M=..>.[=...
3D50: 0C 80 80 5B 3D 1A CA 3E  01 5B 3D 1A BF 3F 02 3E  ...[=..>.[=..?.>
3D60: 00 03 80 04 6C 3D 03 18  00 00 80 1B 02 2D 00 0A  ....l=.......-..
3D70: 80 80 77 3D 01 A4 3D 02  2D 00 00 80 80 A4 3D 02  ..w=..=.-.....=.
3D80: 18 00 00 80 00 A1 3D 6E  6C 01 10 01 0E 80 99 6C  ......=nl......l
3D90: 01 10 01 03 1D 17 0A 80  48 B3 80 23 99 6C 01 10  ........H..#.l..
3DA0: 01 01 A4 3D 1B 06 3D 00  03 1F 00 3F 00 02 1F 00  ...=..=....?....
3DB0: 41 00 03 BA 3D 03 1F 00  41 00 02 1F 00 43 00 03  A...=...A....C..
3DC0: C7 3D 03 1F 00 43 00 02  1F 00 0D 80 03 EB 3D 3C  .=...C........=<
3DD0: 3D 00 0A 80 0A 80 3C 3D  00 00 80 0A 80 3C 3D 00  =.....<=.....<=.
3DE0: 03 80 0A 80 1A 8F 3A 1B  01 1B 3E 02 3F 00 1F 00  ......:...>.?...
3DF0: 03 FA 3D 3C 3D 00 0A 80  0A 80 02 41 00 1F 00 03  ..=<=......A....
3E00: 09 3E 3C 3D 00 00 80 0A  80 02 43 00 1F 00 03 18  .><=......C.....
3E10: 3E 3C 3D 00 03 80 0A 80  1A 8F 3A 1B 06 3D 00 02  ><=.......:..=..
3E20: 1C 00 01 80 00 78 3E 02  3F 00 1F 00 00 41 3E 3C  .....x>.?....A><
3E30: 3D 00 00 80 0A 80 3C 3D  00 03 80 0A 80 1A 8F 3A  =.....<=.......:
3E40: 1B 02 41 00 1F 00 00 5B  3E 3C 3D 00 0A 80 0A 80  ..A....[><=.....
3E50: 3C 3D 00 03 80 0A 80 1A  8F 3A 1B 02 43 00 1F 00  <=.......:..C...
3E60: 00 75 3E 3C 3D 00 0A 80  0A 80 3C 3D 00 00 80 0A  .u><=.....<=....
3E70: 80 1A 8F 3A 1B 01 B1 3E  02 3F 00 41 00 00 8B 3E  ...:...>.?.A...>
3E80: 3C 3D 00 03 80 0A 80 1A  8F 3A 1B 02 3F 00 43 00  <=.......:..?.C.
3E90: 00 9E 3E 3C 3D 00 00 80  0A 80 1A 8F 3A 1B 02 41  ..><=.......:..A
3EA0: 00 43 00 00 B1 3E 3C 3D  00 0A 80 0A 80 1A 8F 3A  .C...><=.......:
3EB0: 1B 3C 3D 00 0A 80 0A 80  3C 3D 00 00 80 0A 80 3C  .<=.....<=.....<
3EC0: 3D 00 03 80 0A 80 1A 8F  3A 1B 06 3D 00 02 1C 00  =.......:..=....
