# 17826079 - Andrival

## Common Data

| Field            | Value                     |
|------------------|---------------------------|
| Zone             | Western Adoulin (ID: 256) |
| Block Size       | 908 bytes                 |
| Total Events     | 18                        |
| References Count | 47                        |

## List of Events

| Event ID                   | Entrypoint   |   Size |   Instructions |
|----------------------------|--------------|--------|----------------|
| [65535](#event-65535)      | 0x0000       |      1 |              1 |
| [552](#event-552)          | 0x0001       |     47 |             11 |
| [130](#event-130)          | 0x0030       |      1 |              1 |
| [65535.1](#event-655351)   | 0x0031       |     29 |              7 |
| [65535.2](#event-655352)   | 0x004E       |     21 |              5 |
| [139](#event-139)          | 0x0063       |     87 |             17 |
| [2](#event-2)              | 0x00BA       |      1 |              1 |
| [65535.3](#event-655353)   | 0x00BB       |     88 |             16 |
| [65535.4](#event-655354)   | 0x0113       |     37 |              5 |
| [65535.5](#event-655355)   | 0x0138       |     37 |              5 |
| [65535.6](#event-655356)   | 0x015D       |     24 |              3 |
| [65535.7](#event-655357)   | 0x0175       |     15 |              5 |
| [65535.8](#event-655358)   | 0x0184       |     15 |              5 |
| [65535.9](#event-655359)   | 0x0193       |     15 |              5 |
| [65535.10](#event-6553510) | 0x01A2       |     24 |              3 |
| [65535.11](#event-6553511) | 0x01BA       |     24 |              3 |
| [65535.12](#event-6553512) | 0x01D2       |    163 |             37 |
| [182](#event-182)          | 0x0275       |      1 |              1 |

## DAT References (imed_data)

|   Index | Hex Value   |   Dec Value |
|---------|-------------|-------------|
|       0 | 0x0000      |           0 |
|       1 | 0x266B      |        9835 |
|       2 | 0x266C      |        9836 |
|       3 | 0x0028      |          40 |
|       4 | 0x6493      |       25747 |
|       5 | 0x23A5C     |      146012 |
|       6 | 0x000D      |          13 |
|       7 | 0x6071      |       24689 |
|       8 | 0x274E9     |      161001 |
|       9 | 0x2228      |        8744 |
|      10 | 0x2229      |        8745 |
|      11 | 0x001E      |          30 |
|      12 | 0x222A      |        8746 |
|      13 | 0x222B      |        8747 |
|      14 | 0xF0C2      |       61634 |
|      15 | 0x239E7     |      145895 |
|      16 | 0x7D00      |       32000 |
|      17 | 0x0031      |          49 |
|      18 | 0x003C      |          60 |
|      19 | 0x0041      |          65 |
|      20 | 0x0005      |           5 |
|      21 | 0x0003      |           3 |
|      22 | 0x0066      |         102 |
|      23 | 0x0001      |           1 |
|      24 | 0x5FC9      |       24521 |
|      25 | 0xFFFFCCC7  |  4294954183 |
|      26 | 0x03E8      |        1000 |
|      27 | 0xFFFCAC70  |  4294749296 |
|      28 | 0xFFFF9A0C  |  4294941196 |
|      29 | 0x0FA0      |        4000 |
|      30 | 0xFFFE8518  |  4294870296 |
|      31 | 0xFFFF7F18  |  4294934296 |
|      32 | 0x00A2      |         162 |
|      33 | 0x0018      |          24 |
|      34 | 0x0140      |         320 |
|      35 | 0x000B      |          11 |
|      36 | 0x00AB      |         171 |
|      37 | 0x0063      |          99 |
|      38 | 0xFFFF69EB  |  4294928875 |
|      39 | 0x181AA     |       98730 |
|      40 | 0x4068      |       16488 |
|      41 | 0x0002      |           2 |
|      42 | 0x000A      |          10 |
|      43 | 0x0009      |           9 |
|      44 | 0x0046      |          70 |
|      45 | 0x008C      |         140 |
|      46 | 0x00D2      |         210 |

## String References

- **9835**: Most of the people around here work for the Couriers' Coalition, and I'm no exception.
- **9836**: We import and export goods, make intercontinental deliveries, and provide supplies to pioneer facilities. I'm not a man of many words, so I'll leave it at that.

## Events

### Event 65535

#### Metadata

| Field        | Value   |
|--------------|---------|
| Entrypoint   | 0x0000  |
| Data Size    | 1 bytes |
| Instructions | 1       |

```
      00 01 02 03 04 05 06 07  08 09 0A 0B 0C 0D 0E 0F
      -- -- -- -- -- -- -- --  -- -- -- -- -- -- -- --
0000: 00                                                .               
```

#### Opcodes

```
  0: 0x0000 [0x00] END_REQSTACK()
```

### Event 552

#### Metadata

| Field        | Value    |
|--------------|----------|
| Entrypoint   | 0x0001   |
| Data Size    | 47 bytes |
| Instructions | 11       |

```
      00 01 02 03 04 05 06 07  08 09 0A 0B 0C 0D 0E 0F
      -- -- -- -- -- -- -- --  -- -- -- -- -- -- -- --
0000:    1E F0 FF FF 7F 6F 70  66 00 80 F8 FF FF 7F F8   .....opf.......
0010: FF FF 7F 74 6C 6B 30 1D  01 80 23 1D 02 80 23 66  ...tlk0...#...#f
0020: 00 80 F8 FF FF 7F F8 FF  FF 7F 74 65 6E 30 21 00  ..........ten0!.
```

#### Opcodes

```
  0: 0x0001 [0x1E] EventEntity looks at LocalPlayer and starts talking
  1: 0x0006 [0x6F] WAIT_FRAME_DELAY: Yield until WaitTime reaches zero
  2: 0x0007 [0x70] WAIT_ENTITY_RENDER_FLAG: Wait while EventEntity->Render.Flags3 bit 2 is set (cancel turn if not)
  3: 0x0008 [0x66] LOAD_EXT_SCHEDULER_MAIN: Load scheduler "tlk0" with entities [EventEntity, EventEntity], work=0*
  4: 0x0017 [0x1D] PRINT_EVENT_MESSAGE(message_id=9835*)
    → "Most of the people around here work for the Couriers' Coalition, and I'm no exception."
  5: 0x001A [0x23] WAIT_FOR_DIALOG_INTERACTION
  6: 0x001B [0x1D] PRINT_EVENT_MESSAGE(message_id=9836*)
    → "We import and export goods, make intercontinental deliveries, and provide supplies to pioneer facilities. I'm not a man of many words, so I'll leave it at that."
  7: 0x001E [0x23] WAIT_FOR_DIALOG_INTERACTION
  8: 0x001F [0x66] LOAD_EXT_SCHEDULER_MAIN: Load scheduler "ten0" with entities [EventEntity, EventEntity], work=0*
  9: 0x002E [0x21] END_EVENT
 10: 0x002F [0x00] END_REQSTACK()
```

### Event 130

#### Metadata

| Field        | Value   |
|--------------|---------|
| Entrypoint   | 0x0030  |
| Data Size    | 1 bytes |
| Instructions | 1       |

```
      00 01 02 03 04 05 06 07  08 09 0A 0B 0C 0D 0E 0F
      -- -- -- -- -- -- -- --  -- -- -- -- -- -- -- --
0030: 00                                                .               
```

#### Opcodes

```
  0: 0x0030 [0x00] END_REQSTACK()
```

### Event 65535.1

#### Metadata

| Field        | Value    |
|--------------|----------|
| Entrypoint   | 0x0031   |
| Data Size    | 29 bytes |
| Instructions | 7        |

```
      00 01 02 03 04 05 06 07  08 09 0A 0B 0C 0D 0E 0F
      -- -- -- -- -- -- -- --  -- -- -- -- -- -- -- --
0030:    32 03 80 1F 00 04 80  05 80 00 80 1F 01 4A F8   2............J.
0040: FF FF 7F 9C 00 10 01 6F  76 F8 FF FF 7F 00        .......ov.....  
```

#### Opcodes

```
  0: 0x0031 [0x32] ExtData[1]->MainSpeed = 40* * 0.1
  1: 0x0034 [0x1F] MOVE_ENTITY: EventEntity moves to X=25.747*, Z=146.012*, Y=0.000*
  2: 0x003C [0x1F] MOVE_ENTITY: Update entity position (mode=1)
  3: 0x003E [0x4A] EventEntity looks at Ingrid (ID: 17825948/0x0110009C)
  4: 0x0047 [0x6F] WAIT_FRAME_DELAY: Yield until WaitTime reaches zero
  5: 0x0048 [0x76] CHECK_ENTITY_RENDER_FLAGS: Wait until EventEntity Render.Flags0 and Render.Flags3 conditions are met
  6: 0x004D [0x00] END_REQSTACK()
```

### Event 65535.2

#### Metadata

| Field        | Value    |
|--------------|----------|
| Entrypoint   | 0x004E   |
| Data Size    | 21 bytes |
| Instructions | 5        |

```
      00 01 02 03 04 05 06 07  08 09 0A 0B 0C 0D 0E 0F
      -- -- -- -- -- -- -- --  -- -- -- -- -- -- -- --
0040:                                            32 06                2.
0050: 80 1F 00 07 80 08 80 00  80 1F 01 4B F8 FF FF 7F  ...........K....
0060: 00 80 00                                          ...             
```

#### Opcodes

```
  0: 0x004E [0x32] ExtData[1]->MainSpeed = 13* * 0.1
  1: 0x0051 [0x1F] MOVE_ENTITY: EventEntity moves to X=24.689*, Z=161.001*, Y=0.000*
  2: 0x0059 [0x1F] MOVE_ENTITY: Update entity position (mode=1)
  3: 0x005B [0x4B] UPDATE_ENTITY_YAW(entity=EventEntity, yaw=0.0°*)
  4: 0x0062 [0x00] END_REQSTACK()
```

### Event 139

#### Metadata

| Field        | Value    |
|--------------|----------|
| Entrypoint   | 0x0063   |
| Data Size    | 87 bytes |
| Instructions | 17       |

```
      00 01 02 03 04 05 06 07  08 09 0A 0B 0C 0D 0E 0F
      -- -- -- -- -- -- -- --  -- -- -- -- -- -- -- --
0060:          4A F0 FF FF 7F  1F 01 10 01 4A 1F 01 10     J........J...
0070: 01 F0 FF FF 7F 6F 70 66  00 80 F8 FF FF 7F F8 FF  .....opf........
0080: FF 7F 74 6C 6B 30 2B 1F  01 10 01 09 80 23 2B 1F  ..tlk0+......#+.
0090: 01 10 01 0A 80 23 66 00  80 F8 FF FF 7F F8 FF FF  .....#f.........
00A0: 7F 74 65 6E 30 1C 0B 80  2B 1F 01 10 01 0C 80 23  .ten0...+......#
00B0: 2B 1F 01 10 01 0D 80 23  21 00                    +......#!.      
```

#### Opcodes

```
  0: 0x0063 [0x4A] LocalPlayer looks at Andrival (ID: 17826079/0x0110011F)
  1: 0x006C [0x4A] Andrival (ID: 17826079/0x0110011F) looks at LocalPlayer
  2: 0x0075 [0x6F] WAIT_FRAME_DELAY: Yield until WaitTime reaches zero
  3: 0x0076 [0x70] WAIT_ENTITY_RENDER_FLAG: Wait while EventEntity->Render.Flags3 bit 2 is set (cancel turn if not)
  4: 0x0077 [0x66] LOAD_EXT_SCHEDULER_MAIN: Load scheduler "tlk0" with entities [EventEntity, EventEntity], work=0*
  5: 0x0086 [0x2B] Andrival (ID: 17826079/0x0110011F) [8744*]:
    → "Did you see that beauty who just arrived at the docks? A shame that her heart isn't as pristine as her skin."
  6: 0x008D [0x23] WAIT_FOR_DIALOG_INTERACTION
  7: 0x008E [0x2B] Andrival (ID: 17826079/0x0110011F) [8745*]:
    → "Normal folk can't ride the ships without a special permit. She completely threw the schedule out of whack when she demanded to board, and the crew had to bend over backwards to accommodate her."
  8: 0x0095 [0x23] WAIT_FOR_DIALOG_INTERACTION
  9: 0x0096 [0x66] LOAD_EXT_SCHEDULER_MAIN: Load scheduler "ten0" with entities [EventEntity, EventEntity], work=0*
 10: 0x00A5 [0x1C] WAIT(30* ticks)
 11: 0x00A8 [0x2B] Andrival (ID: 17826079/0x0110011F) [8746*]:
    → "Every rose has its thorns--but some have more than others."
 12: 0x00AF [0x23] WAIT_FOR_DIALOG_INTERACTION
 13: 0x00B0 [0x2B] Andrival (ID: 17826079/0x0110011F) [8747*]:
    → "Come to think of it, weren't you supposed to take her to the castle? Then quit skulking about here and get to it!"
 14: 0x00B7 [0x23] WAIT_FOR_DIALOG_INTERACTION
 15: 0x00B8 [0x21] END_EVENT
 16: 0x00B9 [0x00] END_REQSTACK()
```

### Event 2

#### Metadata

| Field        | Value   |
|--------------|---------|
| Entrypoint   | 0x00BA  |
| Data Size    | 1 bytes |
| Instructions | 1       |

```
      00 01 02 03 04 05 06 07  08 09 0A 0B 0C 0D 0E 0F
      -- -- -- -- -- -- -- --  -- -- -- -- -- -- -- --
00B0:                                00                           .     
```

#### Opcodes

```
  0: 0x00BA [0x00] END_REQSTACK()
```

### Event 65535.3

#### Metadata

| Field        | Value    |
|--------------|----------|
| Entrypoint   | 0x00BB   |
| Data Size    | 88 bytes |
| Instructions | 16       |

```
      00 01 02 03 04 05 06 07  08 09 0A 0B 0C 0D 0E 0F
      -- -- -- -- -- -- -- --  -- -- -- -- -- -- -- --
00B0:                                   32 0B 80 1F 00             2....
00C0: 0E 80 0F 80 10 80 1F 01  6F 4A 1F 01 10 01 17 01  ........oJ......
00D0: 10 01 4A 17 01 10 01 1F  01 10 01 6F 70 6F 70 66  ..J........opopf
00E0: 11 80 1F 01 10 01 1F 01  10 01 74 6C 6B 30 1C 12  ..........tlk0..
00F0: 80 66 11 80 1F 01 10 01  1F 01 10 01 74 6C 6B 31  .f..........tlk1
0100: 1C 0B 80 5B 13 80 17 01  10 01 17 01 10 01 74 6C  ...[..........tl
0110: 6B 30 00                                          k0.             
```

#### Opcodes

```
  0: 0x00BB [0x32] ExtData[1]->MainSpeed = 30* * 0.1
  1: 0x00BE [0x1F] MOVE_ENTITY: EventEntity moves to X=61.634*, Z=145.895*, Y=32.000*
  2: 0x00C6 [0x1F] MOVE_ENTITY: Update entity position (mode=1)
  3: 0x00C8 [0x6F] WAIT_FRAME_DELAY: Yield until WaitTime reaches zero
  4: 0x00C9 [0x4A] Andrival (ID: 17826079/0x0110011F) looks at Merleg (ID: 17826071/0x01100117)
  5: 0x00D2 [0x4A] Merleg (ID: 17826071/0x01100117) looks at Andrival (ID: 17826079/0x0110011F)
  6: 0x00DB [0x6F] WAIT_FRAME_DELAY: Yield until WaitTime reaches zero
  7: 0x00DC [0x70] WAIT_ENTITY_RENDER_FLAG: Wait while EventEntity->Render.Flags3 bit 2 is set (cancel turn if not)
  8: 0x00DD [0x6F] WAIT_FRAME_DELAY: Yield until WaitTime reaches zero
  9: 0x00DE [0x70] WAIT_ENTITY_RENDER_FLAG: Wait while EventEntity->Render.Flags3 bit 2 is set (cancel turn if not)
 10: 0x00DF [0x66] LOAD_EXT_SCHEDULER_MAIN: Load scheduler "tlk0" with entities [Andrival (ID: 17826079/0x0110011F), Andrival (ID: 17826079/0x0110011F)], work=49*
 11: 0x00EE [0x1C] WAIT(60* ticks)
 12: 0x00F1 [0x66] LOAD_EXT_SCHEDULER_MAIN: Load scheduler "tlk1" with entities [Andrival (ID: 17826079/0x0110011F), Andrival (ID: 17826079/0x0110011F)], work=49*
 13: 0x0100 [0x1C] WAIT(30* ticks)
 14: 0x0103 [0x5B] LOAD_EXT_SCHEDULER: Load scheduler "tlk0" with entities [Merleg (ID: 17826071/0x01100117), Merleg (ID: 17826071/0x01100117)], work=65*
 15: 0x0112 [0x00] END_REQSTACK()
```

### Event 65535.4

#### Metadata

| Field        | Value    |
|--------------|----------|
| Entrypoint   | 0x0113   |
| Data Size    | 37 bytes |
| Instructions | 5        |

```
      00 01 02 03 04 05 06 07  08 09 0A 0B 0C 0D 0E 0F
      -- -- -- -- -- -- -- --  -- -- -- -- -- -- -- --
0110:          03 00 00 07 7F  1A E1 01 66 01 00 F8 FF     ........f....
0120: FF 7F F8 FF FF 7F 73 69  74 30 53 F8 FF FF 7F F8  ......sit0S.....
0130: FF FF 7F 73 69 74 30 00                           ...sit0.        
```

#### Opcodes

```
  0: 0x0113 [0x03] ExtData[1]->WorkLocal[0] = Entity->Race
  1: 0x0118 [0x1A] CALL_SUBROUTINE(address=0x01E1)
  2: 0x011B [0x66] LOAD_EXT_SCHEDULER_MAIN: Load scheduler "sit0" with entities [EventEntity, EventEntity], work=ExtData[1]->WorkLocal[1]
  3: 0x012A [0x53] WAIT_SCHEDULER_TASK: Wait for scheduler "sit0" with entities [EventEntity, EventEntity]
  4: 0x0137 [0x00] END_REQSTACK()
```

### Event 65535.5

#### Metadata

| Field        | Value    |
|--------------|----------|
| Entrypoint   | 0x0138   |
| Data Size    | 37 bytes |
| Instructions | 5        |

```
      00 01 02 03 04 05 06 07  08 09 0A 0B 0C 0D 0E 0F
      -- -- -- -- -- -- -- --  -- -- -- -- -- -- -- --
0130:                          03 00 00 07 7F 1A E1 01          ........
0140: 66 01 00 F8 FF FF 7F F8  FF FF 7F 73 69 74 31 53  f..........sit1S
0150: F8 FF FF 7F F8 FF FF 7F  73 69 74 31 00           ........sit1.   
```

#### Opcodes

```
  0: 0x0138 [0x03] ExtData[1]->WorkLocal[0] = Entity->Race
  1: 0x013D [0x1A] CALL_SUBROUTINE(address=0x01E1)
  2: 0x0140 [0x66] LOAD_EXT_SCHEDULER_MAIN: Load scheduler "sit1" with entities [EventEntity, EventEntity], work=ExtData[1]->WorkLocal[1]
  3: 0x014F [0x53] WAIT_SCHEDULER_TASK: Wait for scheduler "sit1" with entities [EventEntity, EventEntity]
  4: 0x015C [0x00] END_REQSTACK()
```

### Event 65535.6

#### Metadata

| Field        | Value    |
|--------------|----------|
| Entrypoint   | 0x015D   |
| Data Size    | 24 bytes |
| Instructions | 3        |

```
      00 01 02 03 04 05 06 07  08 09 0A 0B 0C 0D 0E 0F
      -- -- -- -- -- -- -- --  -- -- -- -- -- -- -- --
0150:                                         B6 0B 14               ...
0160: 80 15 80 00 80 16 80 16  80 16 80 16 80 00 80 00  ................
0170: 80 C0 17 80 00                                    .....           
```

#### Opcodes

```
  0: 0x015D [0xB6] ENTITY_APPEARANCE_HANDLER(case=Full entity look, race=5*, hair=3*, head=0*, body=102*, hands=102*, legs=102*, feet=102*, main=0*, sub=0*)
  1: 0x0171 [0xC0] EventEntity->Render.Flags3 |= 0x1000 // Set bit 12 (from 1*)
  2: 0x0174 [0x00] END_REQSTACK()
```

### Event 65535.7

#### Metadata

| Field        | Value    |
|--------------|----------|
| Entrypoint   | 0x0175   |
| Data Size    | 15 bytes |
| Instructions | 5        |

```
      00 01 02 03 04 05 06 07  08 09 0A 0B 0C 0D 0E 0F
      -- -- -- -- -- -- -- --  -- -- -- -- -- -- -- --
0170:                32 06 80  1F 00 18 80 19 80 1A 80       2..........
0180: 1F 01 6F 00                                       ..o.            
```

#### Opcodes

```
  0: 0x0175 [0x32] ExtData[1]->MainSpeed = 13* * 0.1
  1: 0x0178 [0x1F] MOVE_ENTITY: EventEntity moves to X=24.521*, Z=-13.113*, Y=1.000*
  2: 0x0180 [0x1F] MOVE_ENTITY: Update entity position (mode=1)
  3: 0x0182 [0x6F] WAIT_FRAME_DELAY: Yield until WaitTime reaches zero
  4: 0x0183 [0x00] END_REQSTACK()
```

### Event 65535.8

#### Metadata

| Field        | Value    |
|--------------|----------|
| Entrypoint   | 0x0184   |
| Data Size    | 15 bytes |
| Instructions | 5        |

```
      00 01 02 03 04 05 06 07  08 09 0A 0B 0C 0D 0E 0F
      -- -- -- -- -- -- -- --  -- -- -- -- -- -- -- --
0180:             32 06 80 1F  00 1B 80 1C 80 1D 80 1F      2...........
0190: 01 6F 00                                          .o.             
```

#### Opcodes

```
  0: 0x0184 [0x32] ExtData[1]->MainSpeed = 13* * 0.1
  1: 0x0187 [0x1F] MOVE_ENTITY: EventEntity moves to X=-218.000*, Z=-26.100*, Y=4.000*
  2: 0x018F [0x1F] MOVE_ENTITY: Update entity position (mode=1)
  3: 0x0191 [0x6F] WAIT_FRAME_DELAY: Yield until WaitTime reaches zero
  4: 0x0192 [0x00] END_REQSTACK()
```

### Event 65535.9

#### Metadata

| Field        | Value    |
|--------------|----------|
| Entrypoint   | 0x0193   |
| Data Size    | 15 bytes |
| Instructions | 5        |

```
      00 01 02 03 04 05 06 07  08 09 0A 0B 0C 0D 0E 0F
      -- -- -- -- -- -- -- --  -- -- -- -- -- -- -- --
0190:          32 06 80 1F 00  1E 80 1F 80 1D 80 1F 01     2............
01A0: 6F 00                                             o.              
```

#### Opcodes

```
  0: 0x0193 [0x32] ExtData[1]->MainSpeed = 13* * 0.1
  1: 0x0196 [0x1F] MOVE_ENTITY: EventEntity moves to X=-97.000*, Z=-33.000*, Y=4.000*
  2: 0x019E [0x1F] MOVE_ENTITY: Update entity position (mode=1)
  3: 0x01A0 [0x6F] WAIT_FRAME_DELAY: Yield until WaitTime reaches zero
  4: 0x01A1 [0x00] END_REQSTACK()
```

### Event 65535.10

#### Metadata

| Field        | Value    |
|--------------|----------|
| Entrypoint   | 0x01A2   |
| Data Size    | 24 bytes |
| Instructions | 3        |

```
      00 01 02 03 04 05 06 07  08 09 0A 0B 0C 0D 0E 0F
      -- -- -- -- -- -- -- --  -- -- -- -- -- -- -- --
01A0:       B6 0B 17 80 17 80  00 80 20 80 21 80 14 80    ........ .!...
01B0: 22 80 00 80 00 80 C0 17  80 00                    ".........      
```

#### Opcodes

```
  0: 0x01A2 [0xB6] ENTITY_APPEARANCE_HANDLER(case=Full entity look, race=1*, hair=1*, head=0*, body=162*, hands=24*, legs=5*, feet=320*, main=0*, sub=0*)
  1: 0x01B6 [0xC0] EventEntity->Render.Flags3 |= 0x1000 // Set bit 12 (from 1*)
  2: 0x01B9 [0x00] END_REQSTACK()
```

### Event 65535.11

#### Metadata

| Field        | Value    |
|--------------|----------|
| Entrypoint   | 0x01BA   |
| Data Size    | 24 bytes |
| Instructions | 3        |

```
      00 01 02 03 04 05 06 07  08 09 0A 0B 0C 0D 0E 0F
      -- -- -- -- -- -- -- --  -- -- -- -- -- -- -- --
01B0:                                B6 0B 17 80 23 80            ....#.
01C0: 21 80 11 80 00 80 24 80  25 80 00 80 00 80 C0 17  !.....$.%.......
01D0: 80 00                                             ..              
```

#### Opcodes

```
  0: 0x01BA [0xB6] ENTITY_APPEARANCE_HANDLER(case=Full entity look, race=1*, hair=11*, head=24*, body=49*, hands=0*, legs=171*, feet=99*, main=0*, sub=0*)
  1: 0x01CE [0xC0] EventEntity->Render.Flags3 |= 0x1000 // Set bit 12 (from 1*)
  2: 0x01D1 [0x00] END_REQSTACK()
```

### Event 65535.12

#### Metadata

| Field        | Value     |
|--------------|-----------|
| Entrypoint   | 0x01D2    |
| Data Size    | 163 bytes |
| Instructions | 5         |

```
      00 01 02 03 04 05 06 07  08 09 0A 0B 0C 0D 0E 0F
      -- -- -- -- -- -- -- --  -- -- -- -- -- -- -- --
01D0:       32 03 80 1F 00 26  80 27 80 28 80 1F 01 6F    2....&.'.(...o
01E0: 00 03 01 00 00 00 02 01  00 14 80 05 F6 01 08 01  ................
01F0: 00 17 80 01 FB 01 08 01  00 29 80 14 01 00 2A 80  .........)....*.
0200: 07 01 00 2B 80 1B 03 01  00 00 00 02 01 00 14 80  ...+............
0210: 05 1B 02 08 01 00 17 80  01 20 02 08 01 00 29 80  ......... ....).
0220: 14 01 00 2A 80 07 01 00  2C 80 1B 03 01 00 00 00  ...*....,.......
0230: 02 01 00 14 80 05 40 02  08 01 00 17 80 01 45 02  ......@.......E.
0240: 08 01 00 29 80 14 01 00  2A 80 07 01 00 2D 80 1B  ...)....*....-..
0250: 03 01 00 00 00 02 01 00  14 80 05 65 02 08 01 00  ...........e....
0260: 17 80 01 6A 02 08 01 00  29 80 14 01 00 2A 80 07  ...j....)....*..
0270: 01 00 2E 80 1B                                    .....           
```

#### Opcodes

```
  0: 0x01D2 [0x32] ExtData[1]->MainSpeed = 40* * 0.1
  1: 0x01D5 [0x1F] MOVE_ENTITY: EventEntity moves to X=-38.421*, Z=98.730*, Y=16.488*
  2: 0x01DD [0x1F] MOVE_ENTITY: Update entity position (mode=1)
  3: 0x01DF [0x6F] WAIT_FRAME_DELAY: Yield until WaitTime reaches zero
  4: 0x01E0 [0x00] END_REQSTACK()
```

#### Data or dead code:

```
# Dead code (unreachable instructions):
     0x01E1 [0x03] ExtData[1]->WorkLocal[1] = ExtData[1]->WorkLocal[0]
     0x01E6 [0x02] IF !(ExtData[1]->WorkLocal[1] > 5*) GOTO 0x01F6
     0x01EE [0x08] ExtData[1]->WorkLocal[1] -= 1*
     0x01F3 [0x01] GOTO 0x01FB
     0x01F6 [0x08] ExtData[1]->WorkLocal[1] -= 2*
     0x01FB [0x14] ExtData[1]->WorkLocal[1] *= 10*
     0x0200 [0x07] ExtData[1]->WorkLocal[1] += 9*
     0x0205 [0x1B] RETURN
     0x0206 [0x03] ExtData[1]->WorkLocal[1] = ExtData[1]->WorkLocal[0]
     0x020B [0x02] IF !(ExtData[1]->WorkLocal[1] > 5*) GOTO 0x021B
     0x0213 [0x08] ExtData[1]->WorkLocal[1] -= 1*
     0x0218 [0x01] GOTO 0x0220
     0x021B [0x08] ExtData[1]->WorkLocal[1] -= 2*
     0x0220 [0x14] ExtData[1]->WorkLocal[1] *= 10*
     0x0225 [0x07] ExtData[1]->WorkLocal[1] += 70*
     0x022A [0x1B] RETURN
     0x022B [0x03] ExtData[1]->WorkLocal[1] = ExtData[1]->WorkLocal[0]
     0x0230 [0x02] IF !(ExtData[1]->WorkLocal[1] > 5*) GOTO 0x0240
     0x0238 [0x08] ExtData[1]->WorkLocal[1] -= 1*
     0x023D [0x01] GOTO 0x0245
     0x0240 [0x08] ExtData[1]->WorkLocal[1] -= 2*
     0x0245 [0x14] ExtData[1]->WorkLocal[1] *= 10*
     0x024A [0x07] ExtData[1]->WorkLocal[1] += 140*
     0x024F [0x1B] RETURN
     0x0250 [0x03] ExtData[1]->WorkLocal[1] = ExtData[1]->WorkLocal[0]
     0x0255 [0x02] IF !(ExtData[1]->WorkLocal[1] > 5*) GOTO 0x0265
     0x025D [0x08] ExtData[1]->WorkLocal[1] -= 1*
     0x0262 [0x01] GOTO 0x026A
     0x0265 [0x08] ExtData[1]->WorkLocal[1] -= 2*
     0x026A [0x14] ExtData[1]->WorkLocal[1] *= 10*
     0x026F [0x07] ExtData[1]->WorkLocal[1] += 210*
     0x0274 [0x1B] RETURN
```

### Event 182

#### Metadata

| Field        | Value   |
|--------------|---------|
| Entrypoint   | 0x0275  |
| Data Size    | 1 bytes |
| Instructions | 1       |

```
      00 01 02 03 04 05 06 07  08 09 0A 0B 0C 0D 0E 0F
      -- -- -- -- -- -- -- --  -- -- -- -- -- -- -- --
0270:                00                                      .          
```

#### Opcodes

```
  0: 0x0275 [0x00] END_REQSTACK()
```
