# 17825946

## Common Data

| Field            | Value                     |
|------------------|---------------------------|
| Zone             | Western Adoulin (ID: 256) |
| Block Size       | 176 bytes                 |
| Total Events     | 5                         |
| References Count | 16                        |

## List of Events

| Event ID                 | Entrypoint   |   Size |   Instructions |
|--------------------------|--------------|--------|----------------|
| [65535](#event-65535)    | 0x0000       |      1 |              1 |
| [130](#event-130)        | 0x0001       |      3 |              2 |
| [5218](#event-5218)      | 0x0004       |      5 |              2 |
| [65535.1](#event-655351) | 0x0009       |     22 |              6 |
| [65535.2](#event-655352) | 0x001F       |     43 |             11 |

## DAT References (imed_data)

|   Index | Hex Value   |   Dec Value |
|---------|-------------|-------------|
|       0 | 0x0357      |         855 |
|       1 | 0x000A      |          10 |
|       2 | 0x5C94      |       23700 |
|       3 | 0xFFFF9494  |  4294939796 |
|       4 | 0x03E8      |        1000 |
|       5 | 0xFFFFFB01  |  4294966017 |
|       6 | 0xFFFFFE01  |  4294966785 |
|       7 | 0x002D      |          45 |
|       8 | 0x001E      |          30 |
|       9 | 0x6342      |       25410 |
|      10 | 0xFFFF97E6  |  4294940646 |
|      11 | 0x6F54      |       28500 |
|      12 | 0xFFFFA240  |  4294943296 |
|      13 | 0x762A      |       30250 |
|      14 | 0xFFFFB1E0  |  4294947296 |
|      15 | 0xFFFFF801  |  4294965249 |

## Events

### Event 65535

#### Metadata

| Field        | Value   |
|--------------|---------|
| Entrypoint   | 0x0000  |
| Data Size    | 1 bytes |
| Instructions | 1       |

```
      00 01 02 03 04 05 06 07  08 09 0A 0B 0C 0D 0E 0F
      -- -- -- -- -- -- -- --  -- -- -- -- -- -- -- --
0000: 00                                                .               
```

#### Opcodes

```
  0: 0x0000 [0x00] END_REQSTACK()
```

### Event 130

#### Metadata

| Field        | Value   |
|--------------|---------|
| Entrypoint   | 0x0001  |
| Data Size    | 3 bytes |
| Instructions | 2       |

```
      00 01 02 03 04 05 06 07  08 09 0A 0B 0C 0D 0E 0F
      -- -- -- -- -- -- -- --  -- -- -- -- -- -- -- --
0000:    A5 01 00                                        ...            
```

#### Opcodes

```
  0: 0x0001 [0xA5] EventEntity->Flags3.BallistaTeam |= 0x08  // Set bit 3 of BallistaTeam
  1: 0x0003 [0x00] END_REQSTACK()
```

### Event 5218

#### Metadata

| Field        | Value   |
|--------------|---------|
| Entrypoint   | 0x0004  |
| Data Size    | 5 bytes |
| Instructions | 2       |

```
      00 01 02 03 04 05 06 07  08 09 0A 0B 0C 0D 0E 0F
      -- -- -- -- -- -- -- --  -- -- -- -- -- -- -- --
0000:             B6 00 00 80  00                           .....       
```

#### Opcodes

```
  0: 0x0004 [0xB6] ENTITY_APPEARANCE_HANDLER(case=Hair style, value=855*)
  1: 0x0008 [0x00] END_REQSTACK()
```

### Event 65535.1

#### Metadata

| Field        | Value    |
|--------------|----------|
| Entrypoint   | 0x0009   |
| Data Size    | 22 bytes |
| Instructions | 6        |

```
      00 01 02 03 04 05 06 07  08 09 0A 0B 0C 0D 0E 0F
      -- -- -- -- -- -- -- --  -- -- -- -- -- -- -- --
0000:                             32 01 80 1F 00 02 80           2......
0010: 03 80 04 80 1F 01 39 05  80 1E EA 00 10 01 00     ......9........ 
```

#### Opcodes

```
  0: 0x0009 [0x32] ExtData[1]->MainSpeed = 10* * 0.1
  1: 0x000C [0x1F] MOVE_ENTITY: EventEntity moves to X=23.700*, Z=-27.500*, Y=1.000*
  2: 0x0014 [0x1F] MOVE_ENTITY: Update entity position (mode=1)
  3: 0x0016 [0x39] SET_ENTITY_DIRECTION(direction=353.0°*)
  4: 0x0019 [0x1E] EventEntity looks at Celestin (ID: 17826026/0x011000EA) and starts talking
  5: 0x001E [0x00] END_REQSTACK()
```

### Event 65535.2

#### Metadata

| Field        | Value    |
|--------------|----------|
| Entrypoint   | 0x001F   |
| Data Size    | 43 bytes |
| Instructions | 11       |

```
      00 01 02 03 04 05 06 07  08 09 0A 0B 0C 0D 0E 0F
      -- -- -- -- -- -- -- --  -- -- -- -- -- -- -- --
0010:                                               39                 9
0020: 06 80 1C 07 80 32 08 80  1F 00 09 80 0A 80 04 80  .....2..........
0030: 1F 01 1F 00 0B 80 0C 80  04 80 1F 01 1F 00 0D 80  ................
0040: 0E 80 04 80 1F 01 39 0F  80 00                    ......9...      
```

#### Opcodes

```
  0: 0x001F [0x39] SET_ENTITY_DIRECTION(direction=357.2°*)
  1: 0x0022 [0x1C] WAIT(45* ticks)
  2: 0x0025 [0x32] ExtData[1]->MainSpeed = 30* * 0.1
  3: 0x0028 [0x1F] MOVE_ENTITY: EventEntity moves to X=25.410*, Z=-26.650*, Y=1.000*
  4: 0x0030 [0x1F] MOVE_ENTITY: Update entity position (mode=1)
  5: 0x0032 [0x1F] MOVE_ENTITY: EventEntity moves to X=28.500*, Z=-24.000*, Y=1.000*
  6: 0x003A [0x1F] MOVE_ENTITY: Update entity position (mode=1)
  7: 0x003C [0x1F] MOVE_ENTITY: EventEntity moves to X=30.250*, Z=-20.000*, Y=1.000*
  8: 0x0044 [0x1F] MOVE_ENTITY: Update entity position (mode=1)
  9: 0x0046 [0x39] SET_ENTITY_DIRECTION(direction=348.8°*)
 10: 0x0049 [0x00] END_REQSTACK()
```
