# 17825982 - Dewalt

## Common Data

| Field            | Value                     |
|------------------|---------------------------|
| Zone             | Western Adoulin (ID: 256) |
| Block Size       | 548 bytes                 |
| Total Events     | 6                         |
| References Count | 22                        |

## List of Events

| Event ID              | Entrypoint   |   Size |   Instructions |
|-----------------------|--------------|--------|----------------|
| [65535](#event-65535) | 0x0000       |      1 |              1 |
| [5017](#event-5017)   | 0x0001       |     33 |              9 |
| [5013](#event-5013)   | 0x0022       |    327 |             42 |
| [5014](#event-5014)   | 0x0169       |     33 |              9 |
| [85](#event-85)       | 0x018A       |      1 |              1 |
| [105](#event-105)     | 0x018B       |     23 |              9 |

## DAT References (imed_data)

|   Index | Hex Value   |   Dec Value |
|---------|-------------|-------------|
|       0 | 0x001E      |          30 |
|       1 | 0x0005      |           5 |
|       2 | 0x23FD      |        9213 |
|       3 | 0x23FE      |        9214 |
|       4 | 0x00C8      |         200 |
|       5 | 0x0000      |           0 |
|       6 | 0x0013      |          19 |
|       7 | 0x024A      |         586 |
|       8 | 0xFFFF9F67  |  4294942567 |
|       9 | 0x743A      |       29754 |
|      10 | 0xFFFFFD77  |  4294966647 |
|      11 | 0x0210      |         528 |
|      12 | 0x022E      |         558 |
|      13 | 0x000F      |          15 |
|      14 | 0x23F1      |        9201 |
|      15 | 0x23F2      |        9202 |
|      16 | 0x23F3      |        9203 |
|      17 | 0x23F4      |        9204 |
|      18 | 0x23F5      |        9205 |
|      19 | 0x23F6      |        9206 |
|      20 | 0x0952      |        2386 |
|      21 | 0x21BA      |        8634 |

## String References

- **8634**: Researchers from the Civic Arboretum bought the total remaining stock of $5, if what I've heard is to be believed.
- **9201**: Huh? You got somethin' to ask me?
- **9202**: What's this now? You're lookin' fer info about them leafkin? Cute little buggers, boy howdy!
- **9203**: Every time they send me off to some frontier station or other I take a quick look fer 'em, but they're too clever to get caught.
- **9204**: I got a monster of a tale for you, though! One time I done seen one down in Foret de Hennetiel. He was fiddling around wit' somethin' or other down by the Zoldeff River. I almost went down to check it out fer myself...but, you know, tight schedules 'n all.
- **9205**: Stupid coalitions and the damn work they give me. I'd rather go fishing down there and see if I can catch another glimpse of 'em.
- **9206**: 'Member what I told you--down in Foret de Hennetiel was the place I saw 'em.
- **9213**: First my back, now my shoulders... Sometimes I wonder if I'm really cut out for this sort of work.
- **9214**: Gotta catch me a look at one of those cute little creatures again someday.

## Events

### Event 65535

#### Metadata

| Field        | Value   |
|--------------|---------|
| Entrypoint   | 0x0000  |
| Data Size    | 1 bytes |
| Instructions | 1       |

```
      00 01 02 03 04 05 06 07  08 09 0A 0B 0C 0D 0E 0F
      -- -- -- -- -- -- -- --  -- -- -- -- -- -- -- --
0000: 00                                                .               
```

#### Opcodes

```
  0: 0x0000 [0x00] END_REQSTACK()
```

### Event 5017

#### Metadata

| Field        | Value    |
|--------------|----------|
| Entrypoint   | 0x0001   |
| Data Size    | 33 bytes |
| Instructions | 9        |

```
      00 01 02 03 04 05 06 07  08 09 0A 0B 0C 0D 0E 0F
      -- -- -- -- -- -- -- --  -- -- -- -- -- -- -- --
0000:    1E F0 FF FF 7F 1C 00  80 5B 01 80 F8 FF FF 7F   ........[......
0010: F8 FF FF 7F 74 6C 6B 30  1D 02 80 23 1D 03 80 23  ....tlk0...#...#
0020: 21 00                                             !.              
```

#### Opcodes

```
  0: 0x0001 [0x1E] EventEntity looks at LocalPlayer and starts talking
  1: 0x0006 [0x1C] WAIT(30* ticks)
  2: 0x0009 [0x5B] LOAD_EXT_SCHEDULER: Load scheduler "tlk0" with entities [EventEntity, EventEntity], work=5*
  3: 0x0018 [0x1D] PRINT_EVENT_MESSAGE(message_id=9213*)
    → "First my back, now my shoulders... Sometimes I wonder if I'm really cut out for this sort of work."
  4: 0x001B [0x23] WAIT_FOR_DIALOG_INTERACTION
  5: 0x001C [0x1D] PRINT_EVENT_MESSAGE(message_id=9214*)
    → "Gotta catch me a look at one of those cute little creatures again someday."
  6: 0x001F [0x23] WAIT_FOR_DIALOG_INTERACTION
  7: 0x0020 [0x21] END_EVENT
  8: 0x0021 [0x00] END_REQSTACK()
```

### Event 5013

#### Metadata

| Field        | Value     |
|--------------|-----------|
| Entrypoint   | 0x0022    |
| Data Size    | 327 bytes |
| Instructions | 42        |

```
      00 01 02 03 04 05 06 07  08 09 0A 0B 0C 0D 0E 0F
      -- -- -- -- -- -- -- --  -- -- -- -- -- -- -- --
0020:       42 45 04 80 F0 FF  FF 7F F0 FF FF 7F 66 64    BE..........fd
0030: 6F 31 05 80 55 04 80 F0  FF FF 7F F0 FF FF 7F 66  o1..U..........f
0040: 64 6F 31 46 01 38 06 80  75 00 07 80 75 01 92 01  do1F.8..u...u...
0050: F8 FF FF 7F BA F0 FF FF  7F 08 80 09 80 0A 80 0B  ................
0060: 80 80 F0 FF FF 7F 80 F8  FF FF 7F 4A F0 FF FF 7F  ...........J....
0070: F8 FF FF 7F 45 0C 80 F0  FF FF 7F F0 FF FF 7F 73  ....E..........s
0080: 30 30 30 05 80 1C 0D 80  45 04 80 F0 FF FF 7F F0  000.....E.......
0090: FF FF 7F 66 64 69 31 05  80 1C 00 80 1E F0 FF FF  ...fdi1.........
00A0: 7F 1C 00 80 1D 0E 80 23  52 0C 80 F0 FF FF 7F F0  .......#R.......
00B0: FF FF 7F 73 30 30 30 45  0C 80 F0 FF FF 7F F0 FF  ...s000E........
00C0: FF 7F 73 30 30 31 05 80  5B 01 80 F8 FF FF 7F F8  ..s001..[.......
00D0: FF FF 7F 74 6C 6B 30 1D  0F 80 23 1D 10 80 23 52  ...tlk0...#...#R
00E0: 0C 80 F0 FF FF 7F F0 FF  FF 7F 73 30 30 31 45 0C  ..........s001E.
00F0: 80 F0 FF FF 7F F0 FF FF  7F 73 30 30 32 05 80 5B  .........s002..[
0100: 01 80 F8 FF FF 7F F8 FF  FF 7F 74 6C 6B 31 1D 11  ..........tlk1..
0110: 80 23 5B 01 80 F8 FF FF  7F F8 FF FF 7F 74 68 6B  .#[..........thk
0120: 31 1D 12 80 23 45 04 80  F0 FF FF 7F F0 FF FF 7F  1...#E..........
0130: 66 64 6F 31 05 80 55 04  80 F0 FF FF 7F F0 FF FF  fdo1..U.........
0140: 7F 66 64 6F 31 52 0C 80  F0 FF FF 7F F0 FF FF 7F  .fdo1R..........
0150: 73 30 30 32 46 00 45 04  80 F0 FF FF 7F F0 FF FF  s002F.E.........
0160: 7F 66 64 69 32 05 80 21  00                       .fdi2..!.       
```

#### Opcodes

```
  0: 0x0022 [0x42] SET_CLI_EVENT_CANCEL_DATA()
  1: 0x0023 [0x45] LOAD_SCHEDULED_TASK: Load scheduler "fdo1" with entities [LocalPlayer, LocalPlayer], work=[200*, 0*]
  2: 0x0034 [0x55] WAIT_LOAD_SCHEDULER: Wait for scheduler "fdo1" with entities [LocalPlayer, LocalPlayer], work=200*
  3: 0x0043 [0x46] CAMERA_CONTROL: Disable user control
  4: 0x0045 [0x38] SET_CLIENT_EVENT_MODE(mode=19*)
  5: 0x0048 [0x75] LOAD_ROOM(Load indoor room, room=586*)
  6: 0x004C [0x75] LOAD_ROOM(No action)
  7: 0x004E [0x92] EventEntity->Render.Flags3 ^= 0x01
  8: 0x0054 [0xBA] SET_ENTITY_POSITION(entity_id=LocalPlayer, pos_x=-24.729*, pos_z=29.754*, pos_y=-0.649*, direction=46.4°*)
  9: 0x0061 [0x80] LOAD_WAIT(entity=LocalPlayer)
 10: 0x0066 [0x80] LOAD_WAIT(entity=EventEntity)
 11: 0x006B [0x4A] LocalPlayer looks at EventEntity
 12: 0x0074 [0x45] LOAD_SCHEDULED_TASK: Load scheduler "s000" with entities [LocalPlayer, LocalPlayer], work=[558*, 0*]
 13: 0x0085 [0x1C] WAIT(15* ticks)
 14: 0x0088 [0x45] LOAD_SCHEDULED_TASK: Load scheduler "fdi1" with entities [LocalPlayer, LocalPlayer], work=[200*, 0*]
 15: 0x0099 [0x1C] WAIT(30* ticks)
 16: 0x009C [0x1E] EventEntity looks at LocalPlayer and starts talking
 17: 0x00A1 [0x1C] WAIT(30* ticks)
 18: 0x00A4 [0x1D] PRINT_EVENT_MESSAGE(message_id=9201*)
    → "Huh? You got somethin' to ask me?"
 19: 0x00A7 [0x23] WAIT_FOR_DIALOG_INTERACTION
 20: 0x00A8 [0x52] END_LOAD_SCHEDULER: End scheduler "s000" with entities [LocalPlayer, LocalPlayer], work=558*
 21: 0x00B7 [0x45] LOAD_SCHEDULED_TASK: Load scheduler "s001" with entities [LocalPlayer, LocalPlayer], work=[558*, 0*]
 22: 0x00C8 [0x5B] LOAD_EXT_SCHEDULER: Load scheduler "tlk0" with entities [EventEntity, EventEntity], work=5*
 23: 0x00D7 [0x1D] PRINT_EVENT_MESSAGE(message_id=9202*)
    → "What's this now? You're lookin' fer info about them leafkin? Cute little buggers, boy howdy!"
 24: 0x00DA [0x23] WAIT_FOR_DIALOG_INTERACTION
 25: 0x00DB [0x1D] PRINT_EVENT_MESSAGE(message_id=9203*)
    → "Every time they send me off to some frontier station or other I take a quick look fer 'em, but they're too clever to get caught."
 26: 0x00DE [0x23] WAIT_FOR_DIALOG_INTERACTION
 27: 0x00DF [0x52] END_LOAD_SCHEDULER: End scheduler "s001" with entities [LocalPlayer, LocalPlayer], work=558*
 28: 0x00EE [0x45] LOAD_SCHEDULED_TASK: Load scheduler "s002" with entities [LocalPlayer, LocalPlayer], work=[558*, 0*]
 29: 0x00FF [0x5B] LOAD_EXT_SCHEDULER: Load scheduler "tlk1" with entities [EventEntity, EventEntity], work=5*
 30: 0x010E [0x1D] PRINT_EVENT_MESSAGE(message_id=9204*)
    → "I got a monster of a tale for you, though! One time I done seen one down in Foret de Hennetiel. He was fiddling around wit' somethin' or other down by the Zoldeff River. I almost went down to check it out fer myself...but, you know, tight schedules 'n all."
 31: 0x0111 [0x23] WAIT_FOR_DIALOG_INTERACTION
 32: 0x0112 [0x5B] LOAD_EXT_SCHEDULER: Load scheduler "thk1" with entities [EventEntity, EventEntity], work=5*
 33: 0x0121 [0x1D] PRINT_EVENT_MESSAGE(message_id=9205*)
    → "Stupid coalitions and the damn work they give me. I'd rather go fishing down there and see if I can catch another glimpse of 'em."
 34: 0x0124 [0x23] WAIT_FOR_DIALOG_INTERACTION
 35: 0x0125 [0x45] LOAD_SCHEDULED_TASK: Load scheduler "fdo1" with entities [LocalPlayer, LocalPlayer], work=[200*, 0*]
 36: 0x0136 [0x55] WAIT_LOAD_SCHEDULER: Wait for scheduler "fdo1" with entities [LocalPlayer, LocalPlayer], work=200*
 37: 0x0145 [0x52] END_LOAD_SCHEDULER: End scheduler "s002" with entities [LocalPlayer, LocalPlayer], work=558*
 38: 0x0154 [0x46] CAMERA_CONTROL: Restore default settings
 39: 0x0156 [0x45] LOAD_SCHEDULED_TASK: Load scheduler "fdi2" with entities [LocalPlayer, LocalPlayer], work=[200*, 0*]
 40: 0x0167 [0x21] END_EVENT
 41: 0x0168 [0x00] END_REQSTACK()
```

### Event 5014

#### Metadata

| Field        | Value    |
|--------------|----------|
| Entrypoint   | 0x0169   |
| Data Size    | 33 bytes |
| Instructions | 9        |

```
      00 01 02 03 04 05 06 07  08 09 0A 0B 0C 0D 0E 0F
      -- -- -- -- -- -- -- --  -- -- -- -- -- -- -- --
0160:                             1E F0 FF FF 7F 1C 00           .......
0170: 80 5B 01 80 F8 FF FF 7F  F8 FF FF 7F 74 6C 6B 30  .[..........tlk0
0180: 1D 13 80 23 1D 12 80 23  21 00                    ...#...#!.      
```

#### Opcodes

```
  0: 0x0169 [0x1E] EventEntity looks at LocalPlayer and starts talking
  1: 0x016E [0x1C] WAIT(30* ticks)
  2: 0x0171 [0x5B] LOAD_EXT_SCHEDULER: Load scheduler "tlk0" with entities [EventEntity, EventEntity], work=5*
  3: 0x0180 [0x1D] PRINT_EVENT_MESSAGE(message_id=9206*)
    → "'Member what I told you--down in Foret de Hennetiel was the place I saw 'em."
  4: 0x0183 [0x23] WAIT_FOR_DIALOG_INTERACTION
  5: 0x0184 [0x1D] PRINT_EVENT_MESSAGE(message_id=9205*)
    → "Stupid coalitions and the damn work they give me. I'd rather go fishing down there and see if I can catch another glimpse of 'em."
  6: 0x0187 [0x23] WAIT_FOR_DIALOG_INTERACTION
  7: 0x0188 [0x21] END_EVENT
  8: 0x0189 [0x00] END_REQSTACK()
```

### Event 85

#### Metadata

| Field        | Value   |
|--------------|---------|
| Entrypoint   | 0x018A  |
| Data Size    | 1 bytes |
| Instructions | 1       |

```
      00 01 02 03 04 05 06 07  08 09 0A 0B 0C 0D 0E 0F
      -- -- -- -- -- -- -- --  -- -- -- -- -- -- -- --
0180:                                00                           .     
```

#### Opcodes

```
  0: 0x018A [0x00] END_REQSTACK()
```

### Event 105

#### Metadata

| Field        | Value    |
|--------------|----------|
| Entrypoint   | 0x018B   |
| Data Size    | 23 bytes |
| Instructions | 9        |

```
      00 01 02 03 04 05 06 07  08 09 0A 0B 0C 0D 0E 0F
      -- -- -- -- -- -- -- --  -- -- -- -- -- -- -- --
0180:                                   42 1E F0 FF FF             B....
0190: 7F 6F 76 F8 FF FF 7F 03  02 10 14 80 1D 15 80 23  .ov............#
01A0: 21 00                                             !.              
```

#### Opcodes

```
  0: 0x018B [0x42] SET_CLI_EVENT_CANCEL_DATA()
  1: 0x018C [0x1E] EventEntity looks at LocalPlayer and starts talking
  2: 0x0191 [0x6F] WAIT_FRAME_DELAY: Yield until WaitTime reaches zero
  3: 0x0192 [0x76] CHECK_ENTITY_RENDER_FLAGS: Wait until EventEntity Render.Flags0 and Render.Flags3 conditions are met
  4: 0x0197 [0x03] Work_Zone[2] = 2386*
  5: 0x019C [0x1D] PRINT_EVENT_MESSAGE(message_id=8634*)
    → "Researchers from the Civic Arboretum bought the total remaining stock of $5, if what I've heard is to be believed."
  6: 0x019F [0x23] WAIT_FOR_DIALOG_INTERACTION
  7: 0x01A0 [0x21] END_EVENT
  8: 0x01A1 [0x00] END_REQSTACK()
```
