# 17826030 - Midras

## Common Data

| Field            | Value                     |
|------------------|---------------------------|
| Zone             | Western Adoulin (ID: 256) |
| Block Size       | 1380 bytes                |
| Total Events     | 43                        |
| References Count | 87                        |

## List of Events

| Event ID                   | Entrypoint   |   Size |   Instructions |
|----------------------------|--------------|--------|----------------|
| [65535](#event-65535)      | 0x0000       |      1 |              1 |
| [5063](#event-5063)        | 0x0001       |      1 |              1 |
| [5087](#event-5087)        | 0x0002       |      3 |              2 |
| [5091](#event-5091)        | 0x0005       |      1 |              1 |
| [5212](#event-5212)        | 0x0006       |      1 |              1 |
| [5213](#event-5213)        | 0x0007       |      1 |              1 |
| [5214](#event-5214)        | 0x0008       |      1 |              1 |
| [5215](#event-5215)        | 0x0009       |      1 |              1 |
| [65535.1](#event-655351)   | 0x000A       |     19 |              3 |
| [65535.2](#event-655352)   | 0x001D       |     19 |              3 |
| [65535.3](#event-655353)   | 0x0030       |     19 |              3 |
| [65535.4](#event-655354)   | 0x0043       |     19 |              3 |
| [65535.5](#event-655355)   | 0x0056       |     16 |              4 |
| [65535.6](#event-655356)   | 0x0066       |     16 |              4 |
| [65535.7](#event-655357)   | 0x0076       |     16 |              4 |
| [65535.8](#event-655358)   | 0x0086       |     16 |              4 |
| [65535.9](#event-655359)   | 0x0096       |     16 |              4 |
| [65535.10](#event-6553510) | 0x00A6       |     16 |              4 |
| [65535.11](#event-6553511) | 0x00B6       |     19 |              3 |
| [65535.12](#event-6553512) | 0x00C9       |     19 |              3 |
| [65535.13](#event-6553513) | 0x00DC       |     16 |              4 |
| [65535.14](#event-6553514) | 0x00EC       |     19 |              3 |
| [65535.15](#event-6553515) | 0x00FF       |     19 |              3 |
| [65535.16](#event-6553516) | 0x0112       |     27 |              7 |
| [65535.17](#event-6553517) | 0x012D       |     22 |              4 |
| [65535.18](#event-6553518) | 0x0143       |     52 |             13 |
| [65535.19](#event-6553519) | 0x0177       |     47 |             11 |
| [65535.20](#event-6553520) | 0x01A6       |     52 |             13 |
| [65535.21](#event-6553521) | 0x01DA       |      6 |              4 |
| [65535.22](#event-6553522) | 0x01E0       |     65 |              9 |
| [65535.23](#event-6553523) | 0x0221       |     14 |              4 |
| [65535.24](#event-6553524) | 0x022F       |     20 |              6 |
| [65535.25](#event-6553525) | 0x0243       |     63 |             15 |
| [65535.26](#event-6553526) | 0x0282       |     50 |             12 |
| [65535.27](#event-6553527) | 0x02B4       |     14 |              4 |
| [65535.28](#event-6553528) | 0x02C2       |     11 |              4 |
| [65535.29](#event-6553529) | 0x02CD       |      5 |              2 |
| [65535.30](#event-6553530) | 0x02D2       |     15 |              5 |
| [65535.31](#event-6553531) | 0x02E1       |      8 |              3 |
| [65535.32](#event-6553532) | 0x02E9       |     38 |             11 |
| [65535.33](#event-6553533) | 0x030F       |      7 |              3 |
| [5224](#event-5224)        | 0x0316       |      1 |              1 |
| [65535.34](#event-6553534) | 0x0317       |     50 |             12 |

## DAT References (imed_data)

|   Index | Hex Value   |   Dec Value |
|---------|-------------|-------------|
|       0 | 0x0000      |           0 |
|       1 | 0x0009      |           9 |
|       2 | 0x0095      |         149 |
|       3 | 0x0019      |          25 |
|       4 | 0x001A      |          26 |
|       5 | 0x0013      |          19 |
|       6 | 0x000A      |          10 |
|       7 | 0x0016      |          22 |
|       8 | 0x001D      |          29 |
|       9 | 0x0047      |          71 |
|      10 | 0x000B      |          11 |
|      11 | 0x004E      |          78 |
|      12 | 0x0BC1      |        3009 |
|      13 | 0x000D      |          13 |
|      14 | 0x16448     |       91208 |
|      15 | 0xFFFED0D0  |  4294889680 |
|      16 | 0xFFFFFD75  |  4294966645 |
|      17 | 0x003C      |          60 |
|      18 | 0x17A75     |       96885 |
|      19 | 0xFFFEBFB8  |  4294885304 |
|      20 | 0x057F      |        1407 |
|      21 | 0x001E      |          30 |
|      22 | 0x01FF      |         511 |
|      23 | 0x000F      |          15 |
|      24 | 0x1879A     |      100250 |
|      25 | 0xFFFEC57B  |  4294886779 |
|      26 | 0x187C4     |      100292 |
|      27 | 0xFFFEC57F  |  4294886783 |
|      28 | 0x18D42     |      101698 |
|      29 | 0xFFFEC635  |  4294886965 |
|      30 | 0x19C1C     |      105500 |
|      31 | 0xFFFED144  |  4294889796 |
|      32 | 0x190FF     |      102655 |
|      33 | 0xFFFEC7B5  |  4294887349 |
|      34 | 0x18A1D     |      100893 |
|      35 | 0xFFFEC543  |  4294886723 |
|      36 | 0x18526     |       99622 |
|      37 | 0xFFFEC5D9  |  4294886873 |
|      38 | 0x17F36     |       98102 |
|      39 | 0xFFFECA6E  |  4294888046 |
|      40 | 0xFFFFFA01  |  4294965761 |
|      41 | 0x0028      |          40 |
|      42 | 0x19A28     |      105000 |
|      43 | 0xFFFECF50  |  4294889296 |
|      44 | 0xFFFFFD76  |  4294966646 |
|      45 | 0x2B21      |       11041 |
|      46 | 0x124F8     |       75000 |
|      47 | 0x1D150     |      119120 |
|      48 | 0x7530      |       30000 |
|      49 | 0x10F7C     |       69500 |
|      50 | 0x1E654     |      124500 |
|      51 | 0x10388     |       66440 |
|      52 | 0x1F1DA     |      127450 |
|      53 | 0xFB04      |       64260 |
|      54 | 0x1FA86     |      129670 |
|      55 | 0x7954      |       31060 |
|      56 | 0xF230      |       62000 |
|      57 | 0x203A0     |      132000 |
|      58 | 0x7D00      |       32000 |
|      59 | 0xC882      |       51330 |
|      60 | 0x1DEF2     |      122610 |
|      61 | 0x05FF      |        1535 |
|      62 | 0x7B0C      |       31500 |
|      63 | 0x1944C     |      103500 |
|      64 | 0x7210      |       29200 |
|      65 | 0x18D12     |      101650 |
|      66 | 0x5ECE      |       24270 |
|      67 | 0x18768     |      100200 |
|      68 | 0x3084      |       12420 |
|      69 | 0x18614     |       99860 |
|      70 | 0x16062     |       90210 |
|      71 | 0xFFFEDA86  |  4294892166 |
|      72 | 0x0006      |           6 |
|      73 | 0x0026      |          38 |
|      74 | 0x00F0      |         240 |
|      75 | 0x0029      |          41 |
|      76 | 0x0027      |          39 |
|      77 | 0x0F7D      |        3965 |
|      78 | 0x2AFB      |       11003 |
|      79 | 0x00B4      |         180 |
|      80 | 0x107DE     |       67550 |
|      81 | 0x1F4F0     |      128240 |
|      82 | 0xFEB0      |       65200 |
|      83 | 0x1FD56     |      130390 |
|      84 | 0x7918      |       31000 |
|      85 | 0xF38E      |       62350 |
|      86 | 0x2051C     |      132380 |

## String References

- **11041**: Hey! Just what do you mean to say-way, Junior?

## Events

### Event 65535

#### Metadata

| Field        | Value   |
|--------------|---------|
| Entrypoint   | 0x0000  |
| Data Size    | 1 bytes |
| Instructions | 1       |

```
      00 01 02 03 04 05 06 07  08 09 0A 0B 0C 0D 0E 0F
      -- -- -- -- -- -- -- --  -- -- -- -- -- -- -- --
0000: 00                                                .               
```

#### Opcodes

```
  0: 0x0000 [0x00] END_REQSTACK()
```

### Event 5063

#### Metadata

| Field        | Value   |
|--------------|---------|
| Entrypoint   | 0x0001  |
| Data Size    | 1 bytes |
| Instructions | 1       |

```
      00 01 02 03 04 05 06 07  08 09 0A 0B 0C 0D 0E 0F
      -- -- -- -- -- -- -- --  -- -- -- -- -- -- -- --
0000:    00                                              .              
```

#### Opcodes

```
  0: 0x0001 [0x00] END_REQSTACK()
```

### Event 5087

#### Metadata

| Field        | Value   |
|--------------|---------|
| Entrypoint   | 0x0002  |
| Data Size    | 3 bytes |
| Instructions | 2       |

```
      00 01 02 03 04 05 06 07  08 09 0A 0B 0C 0D 0E 0F
      -- -- -- -- -- -- -- --  -- -- -- -- -- -- -- --
0000:       A4 01 00                                      ...           
```

#### Opcodes

```
  0: 0x0002 [0xA4] EventEntity->Flags3.unknown_3_2 = 1
  1: 0x0004 [0x00] END_REQSTACK()
```

### Event 5091

#### Metadata

| Field        | Value   |
|--------------|---------|
| Entrypoint   | 0x0005  |
| Data Size    | 1 bytes |
| Instructions | 1       |

```
      00 01 02 03 04 05 06 07  08 09 0A 0B 0C 0D 0E 0F
      -- -- -- -- -- -- -- --  -- -- -- -- -- -- -- --
0000:                00                                      .          
```

#### Opcodes

```
  0: 0x0005 [0x00] END_REQSTACK()
```

### Event 5212

#### Metadata

| Field        | Value   |
|--------------|---------|
| Entrypoint   | 0x0006  |
| Data Size    | 1 bytes |
| Instructions | 1       |

```
      00 01 02 03 04 05 06 07  08 09 0A 0B 0C 0D 0E 0F
      -- -- -- -- -- -- -- --  -- -- -- -- -- -- -- --
0000:                   00                                    .         
```

#### Opcodes

```
  0: 0x0006 [0x00] END_REQSTACK()
```

### Event 5213

#### Metadata

| Field        | Value   |
|--------------|---------|
| Entrypoint   | 0x0007  |
| Data Size    | 1 bytes |
| Instructions | 1       |

```
      00 01 02 03 04 05 06 07  08 09 0A 0B 0C 0D 0E 0F
      -- -- -- -- -- -- -- --  -- -- -- -- -- -- -- --
0000:                      00                                  .        
```

#### Opcodes

```
  0: 0x0007 [0x00] END_REQSTACK()
```

### Event 5214

#### Metadata

| Field        | Value   |
|--------------|---------|
| Entrypoint   | 0x0008  |
| Data Size    | 1 bytes |
| Instructions | 1       |

```
      00 01 02 03 04 05 06 07  08 09 0A 0B 0C 0D 0E 0F
      -- -- -- -- -- -- -- --  -- -- -- -- -- -- -- --
0000:                          00                               .       
```

#### Opcodes

```
  0: 0x0008 [0x00] END_REQSTACK()
```

### Event 5215

#### Metadata

| Field        | Value   |
|--------------|---------|
| Entrypoint   | 0x0009  |
| Data Size    | 1 bytes |
| Instructions | 1       |

```
      00 01 02 03 04 05 06 07  08 09 0A 0B 0C 0D 0E 0F
      -- -- -- -- -- -- -- --  -- -- -- -- -- -- -- --
0000:                             00                             .      
```

#### Opcodes

```
  0: 0x0009 [0x00] END_REQSTACK()
```

### Event 65535.1

#### Metadata

| Field        | Value    |
|--------------|----------|
| Entrypoint   | 0x000A   |
| Data Size    | 19 bytes |
| Instructions | 3        |

```
      00 01 02 03 04 05 06 07  08 09 0A 0B 0C 0D 0E 0F
      -- -- -- -- -- -- -- --  -- -- -- -- -- -- -- --
0000:                                66 00 80 EE 00 10            f.....
0010: 01 EE 00 10 01 74 6C 6B  30 1C 00 17 00           .....tlk0....   
```

#### Opcodes

```
  0: 0x000A [0x66] LOAD_EXT_SCHEDULER_MAIN: Load scheduler "tlk0" with entities [Midras (ID: 17826030/0x011000EE), Midras (ID: 17826030/0x011000EE)], work=0*
  1: 0x0019 [0x1C] WAIT(Work_Zone_1700[0] ticks)
  2: 0x001C [0x00] END_REQSTACK()
```

### Event 65535.2

#### Metadata

| Field        | Value    |
|--------------|----------|
| Entrypoint   | 0x001D   |
| Data Size    | 19 bytes |
| Instructions | 3        |

```
      00 01 02 03 04 05 06 07  08 09 0A 0B 0C 0D 0E 0F
      -- -- -- -- -- -- -- --  -- -- -- -- -- -- -- --
0010:                                         66 01 80               f..
0020: EE 00 10 01 EE 00 10 01  74 6C 6B 30 1C 00 17 00  ........tlk0....
```

#### Opcodes

```
  0: 0x001D [0x66] LOAD_EXT_SCHEDULER_MAIN: Load scheduler "tlk0" with entities [Midras (ID: 17826030/0x011000EE), Midras (ID: 17826030/0x011000EE)], work=9*
  1: 0x002C [0x1C] WAIT(Work_Zone_1700[0] ticks)
  2: 0x002F [0x00] END_REQSTACK()
```

### Event 65535.3

#### Metadata

| Field        | Value    |
|--------------|----------|
| Entrypoint   | 0x0030   |
| Data Size    | 19 bytes |
| Instructions | 3        |

```
      00 01 02 03 04 05 06 07  08 09 0A 0B 0C 0D 0E 0F
      -- -- -- -- -- -- -- --  -- -- -- -- -- -- -- --
0030: 66 02 80 EE 00 10 01 EE  00 10 01 74 6C 6B 30 1C  f..........tlk0.
0040: 00 17 00                                          ...             
```

#### Opcodes

```
  0: 0x0030 [0x66] LOAD_EXT_SCHEDULER_MAIN: Load scheduler "tlk0" with entities [Midras (ID: 17826030/0x011000EE), Midras (ID: 17826030/0x011000EE)], work=149*
  1: 0x003F [0x1C] WAIT(Work_Zone_1700[0] ticks)
  2: 0x0042 [0x00] END_REQSTACK()
```

### Event 65535.4

#### Metadata

| Field        | Value    |
|--------------|----------|
| Entrypoint   | 0x0043   |
| Data Size    | 19 bytes |
| Instructions | 3        |

```
      00 01 02 03 04 05 06 07  08 09 0A 0B 0C 0D 0E 0F
      -- -- -- -- -- -- -- --  -- -- -- -- -- -- -- --
0040:          66 00 80 F8 FF  FF 7F F8 FF FF 7F 74 6C     f..........tl
0050: 6B 31 1C 00 17 00                                 k1....          
```

#### Opcodes

```
  0: 0x0043 [0x66] LOAD_EXT_SCHEDULER_MAIN: Load scheduler "tlk1" with entities [EventEntity, EventEntity], work=0*
  1: 0x0052 [0x1C] WAIT(Work_Zone_1700[0] ticks)
  2: 0x0055 [0x00] END_REQSTACK()
```

### Event 65535.5

#### Metadata

| Field        | Value    |
|--------------|----------|
| Entrypoint   | 0x0056   |
| Data Size    | 16 bytes |
| Instructions | 4        |

```
      00 01 02 03 04 05 06 07  08 09 0A 0B 0C 0D 0E 0F
      -- -- -- -- -- -- -- --  -- -- -- -- -- -- -- --
0050:                   6E F8  FF FF 7F 03 80 99 F8 FF        n.........
0060: FF 7F 1C 00 17 00                                 ......          
```

#### Opcodes

```
  0: 0x0056 [0x6E] EventEntity uses emote 25*
  1: 0x005D [0x99] Wait for EventEntity animation to complete
  2: 0x0062 [0x1C] WAIT(Work_Zone_1700[0] ticks)
  3: 0x0065 [0x00] END_REQSTACK()
```

### Event 65535.6

#### Metadata

| Field        | Value    |
|--------------|----------|
| Entrypoint   | 0x0066   |
| Data Size    | 16 bytes |
| Instructions | 4        |

```
      00 01 02 03 04 05 06 07  08 09 0A 0B 0C 0D 0E 0F
      -- -- -- -- -- -- -- --  -- -- -- -- -- -- -- --
0060:                   6E F8  FF FF 7F 04 80 99 F8 FF        n.........
0070: FF 7F 1C 00 17 00                                 ......          
```

#### Opcodes

```
  0: 0x0066 [0x6E] EventEntity uses emote 26*
  1: 0x006D [0x99] Wait for EventEntity animation to complete
  2: 0x0072 [0x1C] WAIT(Work_Zone_1700[0] ticks)
  3: 0x0075 [0x00] END_REQSTACK()
```

### Event 65535.7

#### Metadata

| Field        | Value    |
|--------------|----------|
| Entrypoint   | 0x0076   |
| Data Size    | 16 bytes |
| Instructions | 4        |

```
      00 01 02 03 04 05 06 07  08 09 0A 0B 0C 0D 0E 0F
      -- -- -- -- -- -- -- --  -- -- -- -- -- -- -- --
0070:                   6E F8  FF FF 7F 05 80 99 F8 FF        n.........
0080: FF 7F 1C 00 17 00                                 ......          
```

#### Opcodes

```
  0: 0x0076 [0x6E] EventEntity uses emote 19*
  1: 0x007D [0x99] Wait for EventEntity animation to complete
  2: 0x0082 [0x1C] WAIT(Work_Zone_1700[0] ticks)
  3: 0x0085 [0x00] END_REQSTACK()
```

### Event 65535.8

#### Metadata

| Field        | Value    |
|--------------|----------|
| Entrypoint   | 0x0086   |
| Data Size    | 16 bytes |
| Instructions | 4        |

```
      00 01 02 03 04 05 06 07  08 09 0A 0B 0C 0D 0E 0F
      -- -- -- -- -- -- -- --  -- -- -- -- -- -- -- --
0080:                   6E F8  FF FF 7F 06 80 99 F8 FF        n.........
0090: FF 7F 1C 00 17 00                                 ......          
```

#### Opcodes

```
  0: 0x0086 [0x6E] EventEntity uses emote 10*
  1: 0x008D [0x99] Wait for EventEntity animation to complete
  2: 0x0092 [0x1C] WAIT(Work_Zone_1700[0] ticks)
  3: 0x0095 [0x00] END_REQSTACK()
```

### Event 65535.9

#### Metadata

| Field        | Value    |
|--------------|----------|
| Entrypoint   | 0x0096   |
| Data Size    | 16 bytes |
| Instructions | 4        |

```
      00 01 02 03 04 05 06 07  08 09 0A 0B 0C 0D 0E 0F
      -- -- -- -- -- -- -- --  -- -- -- -- -- -- -- --
0090:                   6E F8  FF FF 7F 07 80 99 F8 FF        n.........
00A0: FF 7F 1C 00 17 00                                 ......          
```

#### Opcodes

```
  0: 0x0096 [0x6E] EventEntity uses emote 22*
  1: 0x009D [0x99] Wait for EventEntity animation to complete
  2: 0x00A2 [0x1C] WAIT(Work_Zone_1700[0] ticks)
  3: 0x00A5 [0x00] END_REQSTACK()
```

### Event 65535.10

#### Metadata

| Field        | Value    |
|--------------|----------|
| Entrypoint   | 0x00A6   |
| Data Size    | 16 bytes |
| Instructions | 4        |

```
      00 01 02 03 04 05 06 07  08 09 0A 0B 0C 0D 0E 0F
      -- -- -- -- -- -- -- --  -- -- -- -- -- -- -- --
00A0:                   6E F8  FF FF 7F 08 80 99 F8 FF        n.........
00B0: FF 7F 1C 00 17 00                                 ......          
```

#### Opcodes

```
  0: 0x00A6 [0x6E] EventEntity uses emote 29*
  1: 0x00AD [0x99] Wait for EventEntity animation to complete
  2: 0x00B2 [0x1C] WAIT(Work_Zone_1700[0] ticks)
  3: 0x00B5 [0x00] END_REQSTACK()
```

### Event 65535.11

#### Metadata

| Field        | Value    |
|--------------|----------|
| Entrypoint   | 0x00B6   |
| Data Size    | 19 bytes |
| Instructions | 3        |

```
      00 01 02 03 04 05 06 07  08 09 0A 0B 0C 0D 0E 0F
      -- -- -- -- -- -- -- --  -- -- -- -- -- -- -- --
00B0:                   66 00  80 F8 FF FF 7F F8 FF FF        f.........
00C0: 7F 74 68 6B 31 1C 00 17  00                       .thk1....       
```

#### Opcodes

```
  0: 0x00B6 [0x66] LOAD_EXT_SCHEDULER_MAIN: Load scheduler "thk1" with entities [EventEntity, EventEntity], work=0*
  1: 0x00C5 [0x1C] WAIT(Work_Zone_1700[0] ticks)
  2: 0x00C8 [0x00] END_REQSTACK()
```

### Event 65535.12

#### Metadata

| Field        | Value    |
|--------------|----------|
| Entrypoint   | 0x00C9   |
| Data Size    | 19 bytes |
| Instructions | 3        |

```
      00 01 02 03 04 05 06 07  08 09 0A 0B 0C 0D 0E 0F
      -- -- -- -- -- -- -- --  -- -- -- -- -- -- -- --
00C0:                             66 09 80 F8 FF FF 7F           f......
00D0: F8 FF FF 7F 70 61 73 30  1C 00 17 00              ....pas0....    
```

#### Opcodes

```
  0: 0x00C9 [0x66] LOAD_EXT_SCHEDULER_MAIN: Load scheduler "pas0" with entities [EventEntity, EventEntity], work=71*
  1: 0x00D8 [0x1C] WAIT(Work_Zone_1700[0] ticks)
  2: 0x00DB [0x00] END_REQSTACK()
```

### Event 65535.13

#### Metadata

| Field        | Value    |
|--------------|----------|
| Entrypoint   | 0x00DC   |
| Data Size    | 16 bytes |
| Instructions | 4        |

```
      00 01 02 03 04 05 06 07  08 09 0A 0B 0C 0D 0E 0F
      -- -- -- -- -- -- -- --  -- -- -- -- -- -- -- --
00D0:                                      6E F8 FF FF              n...
00E0: 7F 0A 80 99 F8 FF FF 7F  1C 00 17 00              ............    
```

#### Opcodes

```
  0: 0x00DC [0x6E] EventEntity uses emote 11*
  1: 0x00E3 [0x99] Wait for EventEntity animation to complete
  2: 0x00E8 [0x1C] WAIT(Work_Zone_1700[0] ticks)
  3: 0x00EB [0x00] END_REQSTACK()
```

### Event 65535.14

#### Metadata

| Field        | Value    |
|--------------|----------|
| Entrypoint   | 0x00EC   |
| Data Size    | 19 bytes |
| Instructions | 3        |

```
      00 01 02 03 04 05 06 07  08 09 0A 0B 0C 0D 0E 0F
      -- -- -- -- -- -- -- --  -- -- -- -- -- -- -- --
00E0:                                      66 0B 80 F8              f...
00F0: FF FF 7F F8 FF FF 7F 65  75 64 30 1C 00 17 00     .......eud0.... 
```

#### Opcodes

```
  0: 0x00EC [0x66] LOAD_EXT_SCHEDULER_MAIN: Load scheduler "eud0" with entities [EventEntity, EventEntity], work=78*
  1: 0x00FB [0x1C] WAIT(Work_Zone_1700[0] ticks)
  2: 0x00FE [0x00] END_REQSTACK()
```

### Event 65535.15

#### Metadata

| Field        | Value    |
|--------------|----------|
| Entrypoint   | 0x00FF   |
| Data Size    | 19 bytes |
| Instructions | 3        |

```
      00 01 02 03 04 05 06 07  08 09 0A 0B 0C 0D 0E 0F
      -- -- -- -- -- -- -- --  -- -- -- -- -- -- -- --
00F0:                                               5B                 [
0100: 0C 80 F8 FF FF 7F F8 FF  FF 7F 6B 69 6D 30 1C 00  ..........kim0..
0110: 17 00                                             ..              
```

#### Opcodes

```
  0: 0x00FF [0x5B] LOAD_EXT_SCHEDULER: Load scheduler "kim0" with entities [EventEntity, EventEntity], work=3009*
  1: 0x010E [0x1C] WAIT(Work_Zone_1700[0] ticks)
  2: 0x0111 [0x00] END_REQSTACK()
```

### Event 65535.16

#### Metadata

| Field        | Value    |
|--------------|----------|
| Entrypoint   | 0x0112   |
| Data Size    | 27 bytes |
| Instructions | 7        |

```
      00 01 02 03 04 05 06 07  08 09 0A 0B 0C 0D 0E 0F
      -- -- -- -- -- -- -- --  -- -- -- -- -- -- -- --
0110:       32 0D 80 1F 00 0E  80 0F 80 10 80 1F 01 32    2............2
0120: 11 80 1F 00 12 80 13 80  10 80 1F 01 00           .............   
```

#### Opcodes

```
  0: 0x0112 [0x32] ExtData[1]->MainSpeed = 13* * 0.1
  1: 0x0115 [0x1F] MOVE_ENTITY: EventEntity moves to X=91.208*, Z=-77.616*, Y=-0.651*
  2: 0x011D [0x1F] MOVE_ENTITY: Update entity position (mode=1)
  3: 0x011F [0x32] ExtData[1]->MainSpeed = 60* * 0.1
  4: 0x0122 [0x1F] MOVE_ENTITY: EventEntity moves to X=96.885*, Z=-81.992*, Y=-0.651*
  5: 0x012A [0x1F] MOVE_ENTITY: Update entity position (mode=1)
  6: 0x012C [0x00] END_REQSTACK()
```

### Event 65535.17

#### Metadata

| Field        | Value    |
|--------------|----------|
| Entrypoint   | 0x012D   |
| Data Size    | 22 bytes |
| Instructions | 4        |

```
      00 01 02 03 04 05 06 07  08 09 0A 0B 0C 0D 0E 0F
      -- -- -- -- -- -- -- --  -- -- -- -- -- -- -- --
0120:                                         39 14 80               9..
0130: 1C 15 80 66 02 80 EE 00  10 01 EE 00 10 01 74 68  ...f..........th
0140: 6B 30 00                                          k0.             
```

#### Opcodes

```
  0: 0x012D [0x39] SET_ENTITY_DIRECTION(direction=7.7°*)
  1: 0x0130 [0x1C] WAIT(30* ticks)
  2: 0x0133 [0x66] LOAD_EXT_SCHEDULER_MAIN: Load scheduler "thk0" with entities [Midras (ID: 17826030/0x011000EE), Midras (ID: 17826030/0x011000EE)], work=149*
  3: 0x0142 [0x00] END_REQSTACK()
```

### Event 65535.18

#### Metadata

| Field        | Value    |
|--------------|----------|
| Entrypoint   | 0x0143   |
| Data Size    | 52 bytes |
| Instructions | 13       |

```
      00 01 02 03 04 05 06 07  08 09 0A 0B 0C 0D 0E 0F
      -- -- -- -- -- -- -- --  -- -- -- -- -- -- -- --
0140:          39 16 80 1C 17  80 32 0D 80 1F 00 18 80     9.....2......
0150: 19 80 10 80 1F 01 1F 00  1A 80 1B 80 10 80 1F 01  ................
0160: 1F 00 1C 80 1D 80 10 80  1F 01 1F 00 1E 80 1F 80  ................
0170: 10 80 1F 01 22 01 00                              ...."..         
```

#### Opcodes

```
  0: 0x0143 [0x39] SET_ENTITY_DIRECTION(direction=2.8°*)
  1: 0x0146 [0x1C] WAIT(15* ticks)
  2: 0x0149 [0x32] ExtData[1]->MainSpeed = 13* * 0.1
  3: 0x014C [0x1F] MOVE_ENTITY: EventEntity moves to X=100.250*, Z=-80.517*, Y=-0.651*
  4: 0x0154 [0x1F] MOVE_ENTITY: Update entity position (mode=1)
  5: 0x0156 [0x1F] MOVE_ENTITY: EventEntity moves to X=100.292*, Z=-80.513*, Y=-0.651*
  6: 0x015E [0x1F] MOVE_ENTITY: Update entity position (mode=1)
  7: 0x0160 [0x1F] MOVE_ENTITY: EventEntity moves to X=101.698*, Z=-80.331*, Y=-0.651*
  8: 0x0168 [0x1F] MOVE_ENTITY: Update entity position (mode=1)
  9: 0x016A [0x1F] MOVE_ENTITY: EventEntity moves to X=105.500*, Z=-77.500*, Y=-0.651*
 10: 0x0172 [0x1F] MOVE_ENTITY: Update entity position (mode=1)
 11: 0x0174 [0x22] ENTITY_HIDE_FLAG(enabled=0x01)
 12: 0x0176 [0x00] END_REQSTACK()
```

### Event 65535.19

#### Metadata

| Field        | Value    |
|--------------|----------|
| Entrypoint   | 0x0177   |
| Data Size    | 47 bytes |
| Instructions | 11       |

```
      00 01 02 03 04 05 06 07  08 09 0A 0B 0C 0D 0E 0F
      -- -- -- -- -- -- -- --  -- -- -- -- -- -- -- --
0170:                      32  0D 80 1F 00 20 80 21 80         2.... .!.
0180: 10 80 1F 01 1F 00 22 80  23 80 10 80 1F 01 1F 00  ......".#.......
0190: 24 80 25 80 10 80 1F 01  1F 00 26 80 27 80 10 80  $.%.......&.'...
01A0: 1F 01 39 28 80 00                                 ..9(..          
```

#### Opcodes

```
  0: 0x0177 [0x32] ExtData[1]->MainSpeed = 13* * 0.1
  1: 0x017A [0x1F] MOVE_ENTITY: EventEntity moves to X=102.655*, Z=-79.947*, Y=-0.651*
  2: 0x0182 [0x1F] MOVE_ENTITY: Update entity position (mode=1)
  3: 0x0184 [0x1F] MOVE_ENTITY: EventEntity moves to X=100.893*, Z=-80.573*, Y=-0.651*
  4: 0x018C [0x1F] MOVE_ENTITY: Update entity position (mode=1)
  5: 0x018E [0x1F] MOVE_ENTITY: EventEntity moves to X=99.622*, Z=-80.423*, Y=-0.651*
  6: 0x0196 [0x1F] MOVE_ENTITY: Update entity position (mode=1)
  7: 0x0198 [0x1F] MOVE_ENTITY: EventEntity moves to X=98.102*, Z=-79.250*, Y=-0.651*
  8: 0x01A0 [0x1F] MOVE_ENTITY: Update entity position (mode=1)
  9: 0x01A2 [0x39] SET_ENTITY_DIRECTION(direction=351.6°*)
 10: 0x01A5 [0x00] END_REQSTACK()
```

### Event 65535.20

#### Metadata

| Field        | Value    |
|--------------|----------|
| Entrypoint   | 0x01A6   |
| Data Size    | 52 bytes |
| Instructions | 13       |

```
      00 01 02 03 04 05 06 07  08 09 0A 0B 0C 0D 0E 0F
      -- -- -- -- -- -- -- --  -- -- -- -- -- -- -- --
01A0:                   39 16  80 1C 17 80 32 29 80 1F        9.....2)..
01B0: 00 24 80 25 80 10 80 1F  01 1F 00 22 80 23 80 10  .$.%.......".#..
01C0: 80 1F 01 1F 00 20 80 21  80 10 80 1F 01 1F 00 2A  ..... .!.......*
01D0: 80 2B 80 2C 80 1F 01 22  01 00                    .+.,..."..      
```

#### Opcodes

```
  0: 0x01A6 [0x39] SET_ENTITY_DIRECTION(direction=2.8°*)
  1: 0x01A9 [0x1C] WAIT(15* ticks)
  2: 0x01AC [0x32] ExtData[1]->MainSpeed = 40* * 0.1
  3: 0x01AF [0x1F] MOVE_ENTITY: EventEntity moves to X=99.622*, Z=-80.423*, Y=-0.651*
  4: 0x01B7 [0x1F] MOVE_ENTITY: Update entity position (mode=1)
  5: 0x01B9 [0x1F] MOVE_ENTITY: EventEntity moves to X=100.893*, Z=-80.573*, Y=-0.651*
  6: 0x01C1 [0x1F] MOVE_ENTITY: Update entity position (mode=1)
  7: 0x01C3 [0x1F] MOVE_ENTITY: EventEntity moves to X=102.655*, Z=-79.947*, Y=-0.651*
  8: 0x01CB [0x1F] MOVE_ENTITY: Update entity position (mode=1)
  9: 0x01CD [0x1F] MOVE_ENTITY: EventEntity moves to X=105.000*, Z=-78.000*, Y=-0.650*
 10: 0x01D5 [0x1F] MOVE_ENTITY: Update entity position (mode=1)
 11: 0x01D7 [0x22] ENTITY_HIDE_FLAG(enabled=0x01)
 12: 0x01D9 [0x00] END_REQSTACK()
```

### Event 65535.21

#### Metadata

| Field        | Value   |
|--------------|---------|
| Entrypoint   | 0x01DA  |
| Data Size    | 6 bytes |
| Instructions | 4       |

```
      00 01 02 03 04 05 06 07  08 09 0A 0B 0C 0D 0E 0F
      -- -- -- -- -- -- -- --  -- -- -- -- -- -- -- --
01D0:                                39 16 80 6F 70 00            9..op.
```

#### Opcodes

```
  0: 0x01DA [0x39] SET_ENTITY_DIRECTION(direction=2.8°*)
  1: 0x01DD [0x6F] WAIT_FRAME_DELAY: Yield until WaitTime reaches zero
  2: 0x01DE [0x70] WAIT_ENTITY_RENDER_FLAG: Wait while EventEntity->Render.Flags3 bit 2 is set (cancel turn if not)
  3: 0x01DF [0x00] END_REQSTACK()
```

### Event 65535.22

#### Metadata

| Field        | Value    |
|--------------|----------|
| Entrypoint   | 0x01E0   |
| Data Size    | 65 bytes |
| Instructions | 9        |

```
      00 01 02 03 04 05 06 07  08 09 0A 0B 0C 0D 0E 0F
      -- -- -- -- -- -- -- --  -- -- -- -- -- -- -- --
01E0: B4 00 00 00 3F 3F 3F 00  00 00 00 00 00 00 00 00  ....???.........
01F0: 00 00 00 00 B5 00 00 00  7C 00 F8 FF FF 7F 1D 2D  ........|......-
0200: 80 23 B4 13 00 00 4D 69  64 72 61 73 00 00 00 00  .#....Midras....
0210: 00 00 00 00 00 00 B5 00  00 00 7C 01 F8 FF FF 7F  ..........|.....
0220: 00                                                .               
```

#### Opcodes

```
  0: 0x01E0 [0xB4] UI_WINDOW_STRING_HANDLER(case=0x00 - Copy string from opcode, work_offset=ExtData[1]->WorkLocal[0], string="???")
  1: 0x01F4 [0xB5] SET_EVENT_ENTITY_NAME: Change EventEntity name to ExtData[1]->WorkLocal[0]
  2: 0x01F8 [0x7C] EventEntity->Render.Flags2 |= 0x00
  3: 0x01FE [0x1D] PRINT_EVENT_MESSAGE(message_id=11041*)
    → "Hey! Just what do you mean to say-way, Junior?"
  4: 0x0201 [0x23] WAIT_FOR_DIALOG_INTERACTION
  5: 0x0202 [0xB4] UI_WINDOW_STRING_HANDLER(case=0x13 - Copy string and replace @ with space, work_offset=ExtData[1]->WorkLocal[0], string="Midras")
  6: 0x0216 [0xB5] SET_EVENT_ENTITY_NAME: Change EventEntity name to ExtData[1]->WorkLocal[0]
  7: 0x021A [0x7C] EventEntity->Render.Flags2 |= 0x01
  8: 0x0220 [0x00] END_REQSTACK()
```

### Event 65535.23

#### Metadata

| Field        | Value    |
|--------------|----------|
| Entrypoint   | 0x0221   |
| Data Size    | 14 bytes |
| Instructions | 4        |

```
      00 01 02 03 04 05 06 07  08 09 0A 0B 0C 0D 0E 0F
      -- -- -- -- -- -- -- --  -- -- -- -- -- -- -- --
0220:    32 29 80 1F 00 2E 80  2F 80 30 80 1F 01 00      2)...../.0.... 
```

#### Opcodes

```
  0: 0x0221 [0x32] ExtData[1]->MainSpeed = 40* * 0.1
  1: 0x0224 [0x1F] MOVE_ENTITY: EventEntity moves to X=75.000*, Z=119.120*, Y=30.000*
  2: 0x022C [0x1F] MOVE_ENTITY: Update entity position (mode=1)
  3: 0x022E [0x00] END_REQSTACK()
```

### Event 65535.24

#### Metadata

| Field        | Value    |
|--------------|----------|
| Entrypoint   | 0x022F   |
| Data Size    | 20 bytes |
| Instructions | 6        |

```
      00 01 02 03 04 05 06 07  08 09 0A 0B 0C 0D 0E 0F
      -- -- -- -- -- -- -- --  -- -- -- -- -- -- -- --
0220:                                               39                 9
0230: 28 80 1C 17 80 32 29 80  1F 00 31 80 32 80 30 80  (....2)...1.2.0.
0240: 1F 01 00                                          ...             
```

#### Opcodes

```
  0: 0x022F [0x39] SET_ENTITY_DIRECTION(direction=351.6°*)
  1: 0x0232 [0x1C] WAIT(15* ticks)
  2: 0x0235 [0x32] ExtData[1]->MainSpeed = 40* * 0.1
  3: 0x0238 [0x1F] MOVE_ENTITY: EventEntity moves to X=69.500*, Z=124.500*, Y=30.000*
  4: 0x0240 [0x1F] MOVE_ENTITY: Update entity position (mode=1)
  5: 0x0242 [0x00] END_REQSTACK()
```

### Event 65535.25

#### Metadata

| Field        | Value    |
|--------------|----------|
| Entrypoint   | 0x0243   |
| Data Size    | 63 bytes |
| Instructions | 15       |

```
      00 01 02 03 04 05 06 07  08 09 0A 0B 0C 0D 0E 0F
      -- -- -- -- -- -- -- --  -- -- -- -- -- -- -- --
0240:          39 28 80 1C 17  80 32 29 80 1F 00 33 80     9(....2)...3.
0250: 34 80 30 80 1F 01 1F 00  35 80 36 80 37 80 1F 01  4.0.....5.6.7...
0260: 1F 00 38 80 39 80 3A 80  1F 01 1F 00 3B 80 3C 80  ..8.9.:.....;.<.
0270: 3A 80 1F 01 1C 17 80 1E  ED 00 10 01 7B F8 FF FF  :...........{...
0280: 7F 00                                             ..              
```

#### Opcodes

```
  0: 0x0243 [0x39] SET_ENTITY_DIRECTION(direction=351.6°*)
  1: 0x0246 [0x1C] WAIT(15* ticks)
  2: 0x0249 [0x32] ExtData[1]->MainSpeed = 40* * 0.1
  3: 0x024C [0x1F] MOVE_ENTITY: EventEntity moves to X=66.440*, Z=127.450*, Y=30.000*
  4: 0x0254 [0x1F] MOVE_ENTITY: Update entity position (mode=1)
  5: 0x0256 [0x1F] MOVE_ENTITY: EventEntity moves to X=64.260*, Z=129.670*, Y=31.060*
  6: 0x025E [0x1F] MOVE_ENTITY: Update entity position (mode=1)
  7: 0x0260 [0x1F] MOVE_ENTITY: EventEntity moves to X=62.000*, Z=132.000*, Y=32.000*
  8: 0x0268 [0x1F] MOVE_ENTITY: Update entity position (mode=1)
  9: 0x026A [0x1F] MOVE_ENTITY: EventEntity moves to X=51.330*, Z=122.610*, Y=32.000*
 10: 0x0272 [0x1F] MOVE_ENTITY: Update entity position (mode=1)
 11: 0x0274 [0x1C] WAIT(15* ticks)
 12: 0x0277 [0x1E] EventEntity looks at Amchuchu (ID: 17826029/0x011000ED) and starts talking
 13: 0x027C [0x7B] EventEntity stops talking
 14: 0x0281 [0x00] END_REQSTACK()
```

### Event 65535.26

#### Metadata

| Field        | Value    |
|--------------|----------|
| Entrypoint   | 0x0282   |
| Data Size    | 50 bytes |
| Instructions | 12       |

```
      00 01 02 03 04 05 06 07  08 09 0A 0B 0C 0D 0E 0F
      -- -- -- -- -- -- -- --  -- -- -- -- -- -- -- --
0280:       39 3D 80 1C 17 80  32 29 80 1F 00 3E 80 3F    9=....2)...>.?
0290: 80 3A 80 1F 01 1F 00 40  80 41 80 3A 80 1F 01 1F  .:.....@.A.:....
02A0: 00 42 80 43 80 3A 80 1F  01 1F 00 44 80 45 80 3A  .B.C.:.....D.E.:
02B0: 80 1F 01 00                                       ....            
```

#### Opcodes

```
  0: 0x0282 [0x39] SET_ENTITY_DIRECTION(direction=8.4°*)
  1: 0x0285 [0x1C] WAIT(15* ticks)
  2: 0x0288 [0x32] ExtData[1]->MainSpeed = 40* * 0.1
  3: 0x028B [0x1F] MOVE_ENTITY: EventEntity moves to X=31.500*, Z=103.500*, Y=32.000*
  4: 0x0293 [0x1F] MOVE_ENTITY: Update entity position (mode=1)
  5: 0x0295 [0x1F] MOVE_ENTITY: EventEntity moves to X=29.200*, Z=101.650*, Y=32.000*
  6: 0x029D [0x1F] MOVE_ENTITY: Update entity position (mode=1)
  7: 0x029F [0x1F] MOVE_ENTITY: EventEntity moves to X=24.270*, Z=100.200*, Y=32.000*
  8: 0x02A7 [0x1F] MOVE_ENTITY: Update entity position (mode=1)
  9: 0x02A9 [0x1F] MOVE_ENTITY: EventEntity moves to X=12.420*, Z=99.860*, Y=32.000*
 10: 0x02B1 [0x1F] MOVE_ENTITY: Update entity position (mode=1)
 11: 0x02B3 [0x00] END_REQSTACK()
```

### Event 65535.27

#### Metadata

| Field        | Value    |
|--------------|----------|
| Entrypoint   | 0x02B4   |
| Data Size    | 14 bytes |
| Instructions | 4        |

```
      00 01 02 03 04 05 06 07  08 09 0A 0B 0C 0D 0E 0F
      -- -- -- -- -- -- -- --  -- -- -- -- -- -- -- --
02B0:             32 0D 80 1F  00 46 80 47 80 2C 80 1F      2....F.G.,..
02C0: 01 00                                             ..              
```

#### Opcodes

```
  0: 0x02B4 [0x32] ExtData[1]->MainSpeed = 13* * 0.1
  1: 0x02B7 [0x1F] MOVE_ENTITY: EventEntity moves to X=90.210*, Z=-75.130*, Y=-0.650*
  2: 0x02BF [0x1F] MOVE_ENTITY: Update entity position (mode=1)
  3: 0x02C1 [0x00] END_REQSTACK()
```

### Event 65535.28

#### Metadata

| Field        | Value    |
|--------------|----------|
| Entrypoint   | 0x02C2   |
| Data Size    | 11 bytes |
| Instructions | 4        |

```
      00 01 02 03 04 05 06 07  08 09 0A 0B 0C 0D 0E 0F
      -- -- -- -- -- -- -- --  -- -- -- -- -- -- -- --
02C0:       B6 0A 06 80 AB 03  AC 01 48 80 00             ........H..   
```

#### Opcodes

```
  0: 0x02C2 [0xB6] ENTITY_APPEARANCE_HANDLER(case=Ranged, value=10*)
  1: 0x02C6 [0xAB] EventEntity->Render.Flags0 ^= 0x20000 // Toggle bit 17
  2: 0x02C8 [0xAC] EventEntity->StatusEvent = 6*
  3: 0x02CC [0x00] END_REQSTACK()
```

### Event 65535.29

#### Metadata

| Field        | Value   |
|--------------|---------|
| Entrypoint   | 0x02CD  |
| Data Size    | 5 bytes |
| Instructions | 2       |

```
      00 01 02 03 04 05 06 07  08 09 0A 0B 0C 0D 0E 0F
      -- -- -- -- -- -- -- --  -- -- -- -- -- -- -- --
02C0:                                         AC 01 49               ..I
02D0: 80 00                                             ..              
```

#### Opcodes

```
  0: 0x02CD [0xAC] EventEntity->StatusEvent = 38*
  1: 0x02D1 [0x00] END_REQSTACK()
```

### Event 65535.30

#### Metadata

| Field        | Value    |
|--------------|----------|
| Entrypoint   | 0x02D2   |
| Data Size    | 15 bytes |
| Instructions | 5        |

```
      00 01 02 03 04 05 06 07  08 09 0A 0B 0C 0D 0E 0F
      -- -- -- -- -- -- -- --  -- -- -- -- -- -- -- --
02D0:       AC 01 49 80 1C 4A  80 AC 01 4B 80 1C 4A 80    ..I..J...K..J.
02E0: 00                                                .               
```

#### Opcodes

```
  0: 0x02D2 [0xAC] EventEntity->StatusEvent = 38*
  1: 0x02D6 [0x1C] WAIT(240* ticks)
  2: 0x02D9 [0xAC] EventEntity->StatusEvent = 41*
  3: 0x02DD [0x1C] WAIT(240* ticks)
  4: 0x02E0 [0x00] END_REQSTACK()
```

### Event 65535.31

#### Metadata

| Field        | Value   |
|--------------|---------|
| Entrypoint   | 0x02E1  |
| Data Size    | 8 bytes |
| Instructions | 3       |

```
      00 01 02 03 04 05 06 07  08 09 0A 0B 0C 0D 0E 0F
      -- -- -- -- -- -- -- --  -- -- -- -- -- -- -- --
02E0:    AC 01 4B 80 1C 11 80  00                        ..K.....       
```

#### Opcodes

```
  0: 0x02E1 [0xAC] EventEntity->StatusEvent = 41*
  1: 0x02E5 [0x1C] WAIT(60* ticks)
  2: 0x02E8 [0x00] END_REQSTACK()
```

### Event 65535.32

#### Metadata

| Field        | Value    |
|--------------|----------|
| Entrypoint   | 0x02E9   |
| Data Size    | 38 bytes |
| Instructions | 5        |

```
      00 01 02 03 04 05 06 07  08 09 0A 0B 0C 0D 0E 0F
      -- -- -- -- -- -- -- --  -- -- -- -- -- -- -- --
02E0:                             AC 01 49 80 1C 4A 80           ..I..J.
02F0: AC 01 4C 80 B7 01 00 00  F8 FF FF 7F B4 04 00 00  ..L.............
0300: 00 80 03 02 10 4D 80 48  4E 80 23 1C 4F 80 00     .....M.HN.#.O.. 
```

#### Opcodes

```
  0: 0x02E9 [0xAC] EventEntity->StatusEvent = 38*
  1: 0x02ED [0x1C] WAIT(240* ticks)
  2: 0x02F0 [0xAC] EventEntity->StatusEvent = 39*
  3: 0x02F4 [0xB7] ENTITY_DATA_HANDLER: Set Unknown NPC (ID: 4294443008/0xFFF80000) name from 0x7FFF (monstrosity: 0x04B4)
  4: 0x02FE [0x00] END_REQSTACK()
```

#### Data or dead code:

```
# Dead code (unreachable instructions):
     0x02FF [0x00] END_REQSTACK()
     0x0300 [0x00] END_REQSTACK()
     0x0301 [0x80] LOAD_WAIT(entity=Unknown NPC (ID: 1292894723/0x4D100203))
     0x0306 [0x80] LOAD_WAIT(entity=Unknown NPC (ID: 595611208/0x23804E48))
     0x030B [0x1C] WAIT(180* ticks)
     0x030E [0x00] END_REQSTACK()
```

### Event 65535.33

#### Metadata

| Field        | Value   |
|--------------|---------|
| Entrypoint   | 0x030F  |
| Data Size    | 7 bytes |
| Instructions | 3       |

```
      00 01 02 03 04 05 06 07  08 09 0A 0B 0C 0D 0E 0F
      -- -- -- -- -- -- -- --  -- -- -- -- -- -- -- --
0300:                                               AC                 .
0310: 01 00 80 AB 04 00                                 ......          
```

#### Opcodes

```
  0: 0x030F [0xAC] EventEntity->StatusEvent = 0*
  1: 0x0313 [0xAB] EventEntity->Render.Flags0 |= 0x40000 // Set bit 18
  2: 0x0315 [0x00] END_REQSTACK()
```

### Event 5224

#### Metadata

| Field        | Value   |
|--------------|---------|
| Entrypoint   | 0x0316  |
| Data Size    | 1 bytes |
| Instructions | 1       |

```
      00 01 02 03 04 05 06 07  08 09 0A 0B 0C 0D 0E 0F
      -- -- -- -- -- -- -- --  -- -- -- -- -- -- -- --
0310:                   00                                    .         
```

#### Opcodes

```
  0: 0x0316 [0x00] END_REQSTACK()
```

### Event 65535.34

#### Metadata

| Field        | Value    |
|--------------|----------|
| Entrypoint   | 0x0317   |
| Data Size    | 50 bytes |
| Instructions | 12       |

```
      00 01 02 03 04 05 06 07  08 09 0A 0B 0C 0D 0E 0F
      -- -- -- -- -- -- -- --  -- -- -- -- -- -- -- --
0310:                      39  28 80 1C 17 80 32 29 80         9(....2).
0320: 1F 00 50 80 51 80 30 80  1F 01 1F 00 52 80 53 80  ..P.Q.0.....R.S.
0330: 54 80 1F 01 1F 00 55 80  56 80 3A 80 1F 01 1F 00  T.....U.V.:.....
0340: 3B 80 3C 80 3A 80 1F 01  00                       ;.<.:....       
```

#### Opcodes

```
  0: 0x0317 [0x39] SET_ENTITY_DIRECTION(direction=351.6°*)
  1: 0x031A [0x1C] WAIT(15* ticks)
  2: 0x031D [0x32] ExtData[1]->MainSpeed = 40* * 0.1
  3: 0x0320 [0x1F] MOVE_ENTITY: EventEntity moves to X=67.550*, Z=128.240*, Y=30.000*
  4: 0x0328 [0x1F] MOVE_ENTITY: Update entity position (mode=1)
  5: 0x032A [0x1F] MOVE_ENTITY: EventEntity moves to X=65.200*, Z=130.390*, Y=31.000*
  6: 0x0332 [0x1F] MOVE_ENTITY: Update entity position (mode=1)
  7: 0x0334 [0x1F] MOVE_ENTITY: EventEntity moves to X=62.350*, Z=132.380*, Y=32.000*
  8: 0x033C [0x1F] MOVE_ENTITY: Update entity position (mode=1)
  9: 0x033E [0x1F] MOVE_ENTITY: EventEntity moves to X=51.330*, Z=122.610*, Y=32.000*
 10: 0x0346 [0x1F] MOVE_ENTITY: Update entity position (mode=1)
 11: 0x0348 [0x00] END_REQSTACK()
```
