# 17826179 - Nunaarl Bthtrogg

## Common Data

| Field            | Value                     |
|------------------|---------------------------|
| Zone             | Western Adoulin (ID: 256) |
| Block Size       | 22440 bytes               |
| Total Events     | 25                        |
| References Count | 808                       |

## List of Events

| Event ID                   | Entrypoint   |   Size |   Instructions |
|----------------------------|--------------|--------|----------------|
| [65535](#event-65535)      | 0x0000       |      1 |              1 |
| [5148](#event-5148)        | 0x0001       |     33 |             15 |
| [5147](#event-5147)        | 0x0022       |     22 |             10 |
| [5144](#event-5144)        | 0x0038       |     19 |              9 |
| [5145](#event-5145)        | 0x004B       |     18 |              8 |
| [65535.1](#event-655351)   | 0x005D       |     13 |              3 |
| [65535.2](#event-655352)   | 0x006A       |     29 |              3 |
| [65535.3](#event-655353)   | 0x0087       |     29 |              3 |
| [65535.4](#event-655354)   | 0x00A4       |     29 |              3 |
| [65535.5](#event-655355)   | 0x00C1       |     29 |              3 |
| [65535.6](#event-655356)   | 0x00DE       |     29 |              3 |
| [65535.7](#event-655357)   | 0x00FB       |     29 |              3 |
| [65535.8](#event-655358)   | 0x0118       |     29 |              3 |
| [65535.9](#event-655359)   | 0x0135       |     29 |              3 |
| [65535.10](#event-6553510) | 0x0152       |     29 |              3 |
| [65535.11](#event-6553511) | 0x016F       |     41 |              5 |
| [65535.12](#event-6553512) | 0x0198       |     41 |              5 |
| [65535.13](#event-6553513) | 0x01C1       |     33 |              3 |
| [65535.14](#event-6553514) | 0x01E2       |     19 |              5 |
| [65535.15](#event-6553515) | 0x01F5       |     19 |              5 |
| [65535.16](#event-6553516) | 0x0208       |     19 |              5 |
| [5149](#event-5149)        | 0x021B       |  17292 |           3562 |
| [5150](#event-5150)        | 0x45A7       |   1165 |            168 |
| [5151](#event-5151)        | 0x4A34       |     94 |             25 |

## DAT References (imed_data)

|   Index | Hex Value   |   Dec Value |
|---------|-------------|-------------|
|       0 | 0x3326      |       13094 |
|       1 | 0x000A      |          10 |
|       2 | 0x3327      |       13095 |
|       3 | 0x3328      |       13096 |
|       4 | 0x0005      |           5 |
|       5 | 0x3329      |       13097 |
|       6 | 0x002D      |          45 |
|       7 | 0x0050      |          80 |
|       8 | 0x0051      |          81 |
|       9 | 0x0054      |          84 |
|      10 | 0x0504      |        1284 |
|      11 | 0x0505      |        1285 |
|      12 | 0x00E8      |         232 |
|      13 | 0x0028      |          40 |
|      14 | 0x3D6E      |       15726 |
|      15 | 0xFFFE53D1  |  4294857681 |
|      16 | 0x0000      |           0 |
|      17 | 0x000D      |          13 |
|      18 | 0x352A      |       13610 |
|      19 | 0xFFFE5070  |  4294856816 |
|      20 | 0xFFFFFF6A  |  4294967146 |
|      21 | 0x0004      |           4 |
|      22 | 0x334D      |       13133 |
|      23 | 0x0001      |           1 |
|      24 | 0x32D8      |       13016 |
|      25 | 0x0007      |           7 |
|      26 | 0x0038      |          56 |
|      27 | 0x0008      |           8 |
|      28 | 0x0020      |          32 |
|      29 | 0x0040      |          64 |
|      30 | 0x0060      |          96 |
|      31 | 0x0302      |         770 |
|      32 | 0x32D9      |       13017 |
|      33 | 0x0006      |           6 |
|      34 | 0x0002      |           2 |
|      35 | 0x0003      |           3 |
|      36 | 0x0009      |           9 |
|      37 | 0x0011      |          17 |
|      38 | 0x000B      |          11 |
|      39 | 0x32DA      |       13018 |
|      40 | 0x334E      |       13134 |
|      41 | 0x0064      |         100 |
|      42 | 0x32DB      |       13019 |
|      43 | 0x334F      |       13135 |
|      44 | 0x3324      |       13092 |
|      45 | 0x3325      |       13093 |
|      46 | 0x007A      |         122 |
|      47 | 0x010E      |         270 |
|      48 | 0x000C      |          12 |
|      49 | 0x03FE      |        1022 |
|      50 | 0x0033      |          51 |
|      51 | 0x0019      |          25 |
|      52 | 0x32DD      |       13021 |
|      53 | 0x32DE      |       13022 |
|      54 | 0x3351      |       13137 |
|      55 | 0x3352      |       13138 |
|      56 | 0x3353      |       13139 |
|      57 | 0x3354      |       13140 |
|      58 | 0x7530      |       30000 |
|      59 | 0x3355      |       13141 |
|      60 | 0x3356      |       13142 |
|      61 | 0x3357      |       13143 |
|      62 | 0x3358      |       13144 |
|      63 | 0x3359      |       13145 |
|      64 | 0x335A      |       13146 |
|      65 | 0x335B      |       13147 |
|      66 | 0x001E      |          30 |
|      67 | 0x000F      |          15 |
|      68 | 0x0010      |          16 |
|      69 | 0x001F      |          31 |
|      70 | 0x32E0      |       13024 |
|      71 | 0x335C      |       13148 |
|      72 | 0x3350      |       13136 |
|      73 | 0x32E1      |       13025 |
|      74 | 0x03C0      |         960 |
|      75 | 0x0063      |          99 |
|      76 | 0x1EF0      |        7920 |
|      77 | 0x335D      |       13149 |
|      78 | 0x335E      |       13150 |
|      79 | 0x32E2      |       13026 |
|      80 | 0x335F      |       13151 |
|      81 | 0x3360      |       13152 |
|      82 | 0x3361      |       13153 |
|      83 | 0x32D2      |       13010 |
|      84 | 0x32D6      |       13014 |
|      85 | 0x0018      |          24 |
|      86 | 0x3362      |       13154 |
|      87 | 0x3363      |       13155 |
|      88 | 0x3364      |       13156 |
|      89 | 0x32DC      |       13020 |
|      90 | 0x3365      |       13157 |
|      91 | 0x3366      |       13158 |
|      92 | 0x3367      |       13159 |
|      93 | 0x3368      |       13160 |
|      94 | 0x2071      |        8305 |
|      95 | 0x32E8      |       13032 |
|      96 | 0x32E9      |       13033 |
|      97 | 0x32EA      |       13034 |
|      98 | 0x32EB      |       13035 |
|      99 | 0x0A47      |        2631 |
|     100 | 0x32EC      |       13036 |
|     101 | 0x32ED      |       13037 |
|     102 | 0x32EE      |       13038 |
|     103 | 0x32EF      |       13039 |
|     104 | 0x32F0      |       13040 |
|     105 | 0x32F1      |       13041 |
|     106 | 0x32F2      |       13042 |
|     107 | 0x32F3      |       13043 |
|     108 | 0x32F4      |       13044 |
|     109 | 0x32F5      |       13045 |
|     110 | 0x32F6      |       13046 |
|     111 | 0x32F7      |       13047 |
|     112 | 0x32F8      |       13048 |
|     113 | 0x32F9      |       13049 |
|     114 | 0x32FA      |       13050 |
|     115 | 0x32FB      |       13051 |
|     116 | 0x32FC      |       13052 |
|     117 | 0x32FD      |       13053 |
|     118 | 0x32FE      |       13054 |
|     119 | 0x32FF      |       13055 |
|     120 | 0x3300      |       13056 |
|     121 | 0x3301      |       13057 |
|     122 | 0x3302      |       13058 |
|     123 | 0x3303      |       13059 |
|     124 | 0x3304      |       13060 |
|     125 | 0x3305      |       13061 |
|     126 | 0x3306      |       13062 |
|     127 | 0x3307      |       13063 |
|     128 | 0x3308      |       13064 |
|     129 | 0x3309      |       13065 |
|     130 | 0x330A      |       13066 |
|     131 | 0x330B      |       13067 |
|     132 | 0x186A0     |      100000 |
|     133 | 0x330C      |       13068 |
|     134 | 0x330D      |       13069 |
|     135 | 0x330E      |       13070 |
|     136 | 0x330F      |       13071 |
|     137 | 0x3310      |       13072 |
|     138 | 0x3311      |       13073 |
|     139 | 0x3312      |       13074 |
|     140 | 0x3313      |       13075 |
|     141 | 0x3314      |       13076 |
|     142 | 0x3315      |       13077 |
|     143 | 0x03E8      |        1000 |
|     144 | 0x3316      |       13078 |
|     145 | 0x3317      |       13079 |
|     146 | 0x3318      |       13080 |
|     147 | 0x3319      |       13081 |
|     148 | 0x331A      |       13082 |
|     149 | 0x331B      |       13083 |
|     150 | 0x331C      |       13084 |
|     151 | 0x331D      |       13085 |
|     152 | 0x331E      |       13086 |
|     153 | 0x331F      |       13087 |
|     154 | 0x000E      |          14 |
|     155 | 0x0012      |          18 |
|     156 | 0x0013      |          19 |
|     157 | 0x0014      |          20 |
|     158 | 0x0015      |          21 |
|     159 | 0x0016      |          22 |
|     160 | 0x0017      |          23 |
|     161 | 0x001A      |          26 |
|     162 | 0x001B      |          27 |
|     163 | 0x001C      |          28 |
|     164 | 0x001D      |          29 |
|     165 | 0x0065      |         101 |
|     166 | 0x2AF80     |      176000 |
|     167 | 0xFFFC5680  |  4294727296 |
|     168 | 0xFFFFB1E0  |  4294947296 |
|     169 | 0x007F      |         127 |
|     170 | 0x00C8      |         200 |
|     171 | 0x006B      |         107 |
|     172 | 0xFFF92230  |  4294517296 |
|     173 | 0xFFFDB9F8  |  4294818296 |
|     174 | 0x975E      |       38750 |
|     175 | 0x05FF      |        1535 |
|     176 | 0x0074      |         116 |
|     177 | 0x5795E     |      358750 |
|     178 | 0x2710      |       10000 |
|     179 | 0xFFFFCC3E  |  4294954046 |
|     180 | 0x07FF      |        2047 |
|     181 | 0x0066      |         102 |
|     182 | 0x0884      |        2180 |
|     183 | 0x01A4      |         420 |
|     184 | 0x072D      |        1837 |
|     185 | 0x0190      |         400 |
|     186 | 0x006C      |         108 |
|     187 | 0xFFFE4A1C  |  4294855196 |
|     188 | 0x4234C     |      271180 |
|     189 | 0x308E      |       12430 |
|     190 | 0x0A66      |        2662 |
|     191 | 0x0075      |         117 |
|     192 | 0x57E40     |      360000 |
|     193 | 0xFFFF5038  |  4294922296 |
|     194 | 0xFFFFFF7E  |  4294967166 |
|     195 | 0x0535      |        1333 |
|     196 | 0x0067      |         103 |
|     197 | 0xF618      |       63000 |
|     198 | 0xFFFEDB08  |  4294892296 |
|     199 | 0x047E      |        1150 |
|     200 | 0xFFFFFB39  |  4294966073 |
|     201 | 0x05DC      |        1500 |
|     202 | 0x0076      |         118 |
|     203 | 0xFFFB0848  |  4294641736 |
|     204 | 0x45F24     |      286500 |
|     205 | 0xFFFF6028  |  4294926376 |
|     206 | 0x0280      |         640 |
|     207 | 0x007E      |         126 |
|     208 | 0x2DC6C     |      187500 |
|     209 | 0xFFFFB118  |  4294947096 |
|     210 | 0xFFFFAC86  |  4294945926 |
|     211 | 0x083C      |        2108 |
|     212 | 0x9C9DC     |      641500 |
|     213 | 0xD735C     |      881500 |
|     214 | 0x055C      |        1372 |
|     215 | 0x86C4      |       34500 |
|     216 | 0xFFF4B22C  |  4294226476 |
|     217 | 0xFFFFE91C  |  4294961436 |
|     218 | 0x0FD9      |        4057 |
|     219 | 0x007B      |         123 |
|     220 | 0xFFF8B264  |  4294488676 |
|     221 | 0xFFFA3440  |  4294587456 |
|     222 | 0x3FAC      |       16300 |
|     223 | 0x639C0     |      408000 |
|     224 | 0xFFFEE0D0  |  4294893776 |
|     225 | 0xFFFFFFD9  |  4294967257 |
|     226 | 0x063F      |        1599 |
|     227 | 0x0068      |         104 |
|     228 | 0xEA60      |       60000 |
|     229 | 0xFFFFD8F0  |  4294957296 |
|     230 | 0x0226      |         550 |
|     231 | 0x0C06      |        3078 |
|     232 | 0x0708      |        1800 |
|     233 | 0x006D      |         109 |
|     234 | 0xFFF862C8  |  4294468296 |
|     235 | 0xFFF6E204  |  4294369796 |
|     236 | 0x61A8      |       25000 |
|     237 | 0x0C08      |        3080 |
|     238 | 0x0077      |         119 |
|     239 | 0xFFFD920C  |  4294808076 |
|     240 | 0xFFF77340  |  4294406976 |
|     241 | 0xFFFFA240  |  4294943296 |
|     242 | 0x0903      |        2307 |
|     243 | 0x0072      |         114 |
|     244 | 0x6F09A     |      454810 |
|     245 | 0xFFFF9B06  |  4294941446 |
|     246 | 0xFFFFD36E  |  4294955886 |
|     247 | 0x05B7      |        1463 |
|     248 | 0x007C      |         124 |
|     249 | 0x3DF9A     |      253850 |
|     250 | 0x1937A     |      103290 |
|     251 | 0x0C9E      |        3230 |
|     252 | 0x0511      |        1297 |
|     253 | 0x0079      |         121 |
|     254 | 0x7C2B8     |      508600 |
|     255 | 0xFFF72FF2  |  4294389746 |
|     256 | 0x0992      |        2450 |
|     257 | 0x08FF      |        2303 |
|     258 | 0xFFFC412C  |  4294721836 |
|     259 | 0x3BEC0     |      245440 |
|     260 | 0xFFFF8206  |  4294935046 |
|     261 | 0x01FF      |         511 |
|     262 | 0x00D5      |         213 |
|     263 | 0xFFFF15A0  |  4294907296 |
|     264 | 0x1ADB0     |      110000 |
|     265 | 0x1464      |        5220 |
|     266 | 0xFFFFFC01  |  4294966273 |
|     267 | 0x00A7      |         167 |
|     268 | 0xFFFA3B70  |  4294589296 |
|     269 | 0xFFFCA4A0  |  4294747296 |
|     270 | 0xFFFFF060  |  4294963296 |
|     271 | 0x0069      |         105 |
|     272 | 0x6B4EA     |      439530 |
|     273 | 0xFFFDAF3A  |  4294815546 |
|     274 | 0x2012      |        8210 |
|     275 | 0x0949      |        2377 |
|     276 | 0x0834      |        2100 |
|     277 | 0x006E      |         110 |
|     278 | 0xFFF43C5C  |  4294196316 |
|     279 | 0xFFF87E84  |  4294475396 |
|     280 | 0xFFFF7446  |  4294931526 |
|     281 | 0x0DE3      |        3555 |
|     282 | 0x0078      |         120 |
|     283 | 0x4A326     |      303910 |
|     284 | 0x4A8C6     |      305350 |
|     285 | 0x93D0      |       37840 |
|     286 | 0x0A00      |        2560 |
|     287 | 0x006F      |         111 |
|     288 | 0x1D6FA     |      120570 |
|     289 | 0xFFFD4270  |  4294787696 |
|     290 | 0xFFFFF1C8  |  4294963656 |
|     291 | 0x0FFD      |        4093 |
|     292 | 0x0070      |         112 |
|     293 | 0x8CAC8     |      576200 |
|     294 | 0xFFFBF56E  |  4294702446 |
|     295 | 0x06E0      |        1760 |
|     296 | 0xFFFDC998  |  4294822296 |
|     297 | 0xFFFFE0C0  |  4294959296 |
|     298 | 0x007D      |         125 |
|     299 | 0x164CC     |       91340 |
|     300 | 0xFFFFA470  |  4294943856 |
|     301 | 0xFFFFFB78  |  4294966136 |
|     302 | 0xFFFB4128  |  4294656296 |
|     303 | 0x28C58     |      167000 |
|     304 | 0xFFFFEC28  |  4294962216 |
|     305 | 0x06FF      |        1791 |
|     306 | 0xFFFB6C20  |  4294667296 |
|     307 | 0x4EBC4     |      322500 |
|     308 | 0x4650      |       18000 |
|     309 | 0x03FF      |        1023 |
|     310 | 0x00CD      |         205 |
|     311 | 0x13880     |       80000 |
|     312 | 0x3F3B8     |      259000 |
|     313 | 0x0099      |         153 |
|     314 | 0x4268      |       17000 |
|     315 | 0xFFFFB47E  |  4294947966 |
|     316 | 0x00FF      |         255 |
|     317 | 0x00AE      |         174 |
|     318 | 0x6B3A      |       27450 |
|     319 | 0x40740     |      264000 |
|     320 | 0xFFFFCB44  |  4294953796 |
|     321 | 0x00B0      |         176 |
|     322 | 0x4844      |       18500 |
|     323 | 0xFFFE63E4  |  4294861796 |
|     324 | 0x4E02      |       19970 |
|     325 | 0x009F      |         159 |
|     326 | 0x14050     |       82000 |
|     327 | 0x00D0      |         208 |
|     328 | 0xD1F60     |      860000 |
|     329 | 0xFFFA52E0  |  4294595296 |
|     330 | 0xFFFFE05C  |  4294959196 |
|     331 | 0xFFFD8348  |  4294804296 |
|     332 | 0xFFFFD120  |  4294955296 |
|     333 | 0x0071      |         113 |
|     334 | 0x10A86     |       68230 |
|     335 | 0x24248     |      148040 |
|     336 | 0xFFFFE822  |  4294961186 |
|     337 | 0x0960      |        2400 |
|     338 | 0xFFF99DF0  |  4294548976 |
|     339 | 0xFFFE6BD2  |  4294863826 |
|     340 | 0xFFFFBE88  |  4294950536 |
|     341 | 0xFFFFFB01  |  4294966017 |
|     342 | 0x00A0      |         160 |
|     343 | 0x5CC6      |       23750 |
|     344 | 0xFFFC0964  |  4294707556 |
|     345 | 0x67DE      |       26590 |
|     346 | 0xFFFFFD41  |  4294966593 |
|     347 | 0x00CC      |         204 |
|     348 | 0xFFFD4C98  |  4294790296 |
|     349 | 0xFFFD6408  |  4294796296 |
|     350 | 0xFFFFA254  |  4294943316 |
|     351 | 0xFFFFFE81  |  4294966913 |
|     352 | 0x0048      |          72 |
|     353 | 0xFFFE7960  |  4294867296 |
|     354 | 0x4E20      |       20000 |
|     355 | 0xFFFFDECC  |  4294958796 |
|     356 | 0x003D      |          61 |
|     357 | 0xFFF6A578  |  4294354296 |
|     358 | 0x38270     |      230000 |
|     359 | 0xFFFFACCC  |  4294945996 |
|     360 | 0xFFFFFE01  |  4294966785 |
|     361 | 0x00D4      |         212 |
|     362 | 0xFFFE2F28  |  4294848296 |
|     363 | 0xFFFD34C4  |  4294784196 |
|     364 | 0xE22C      |       57900 |
|     365 | 0xFFFFB26C  |  4294947436 |
|     366 | 0x0C1C      |        3100 |
|     367 | 0x0080      |         128 |
|     368 | 0xFFFDD744  |  4294825796 |
|     369 | 0x4D58      |       19800 |
|     370 | 0xFFFFEADE  |  4294961886 |
|     371 | 0x004F      |          79 |
|     372 | 0xA1220     |      660000 |
|     373 | 0x3A78C     |      239500 |
|     374 | 0x0044      |          68 |
|     375 | 0x251C      |        9500 |
|     376 | 0xFFFEAA34  |  4294879796 |
|     377 | 0x5280      |       21120 |
|     378 | 0x1004      |        4100 |
|     379 | 0x0331      |         817 |
|     380 | 0x0332      |         818 |
|     381 | 0x0333      |         819 |
|     382 | 0x0334      |         820 |
|     383 | 0x0335      |         821 |
|     384 | 0x0337      |         823 |
|     385 | 0x0336      |         822 |
|     386 | 0x0338      |         824 |
|     387 | 0x0343      |         835 |
|     388 | 0x0339      |         825 |
|     389 | 0x033B      |         827 |
|     390 | 0x0356      |         854 |
|     391 | 0x035B      |         859 |
|     392 | 0x033A      |         826 |
|     393 | 0x033D      |         829 |
|     394 | 0x033F      |         831 |
|     395 | 0x0344      |         836 |
|     396 | 0x0345      |         837 |
|     397 | 0x0357      |         855 |
|     398 | 0x035C      |         860 |
|     399 | 0x035F      |         863 |
|     400 | 0x037B      |         891 |
|     401 | 0x033C      |         828 |
|     402 | 0x033E      |         830 |
|     403 | 0x0340      |         832 |
|     404 | 0x0341      |         833 |
|     405 | 0x0342      |         834 |
|     406 | 0x0358      |         856 |
|     407 | 0x0359      |         857 |
|     408 | 0x035D      |         861 |
|     409 | 0x0360      |         864 |
|     410 | 0x0361      |         865 |
|     411 | 0x0362      |         866 |
|     412 | 0x0363      |         867 |
|     413 | 0x037C      |         892 |
|     414 | 0x037D      |         893 |
|     415 | 0x0382      |         898 |
|     416 | 0x0380      |         896 |
|     417 | 0x037E      |         894 |
|     418 | 0x035A      |         858 |
|     419 | 0x0397      |         919 |
|     420 | 0x035E      |         862 |
|     421 | 0x0364      |         868 |
|     422 | 0x0365      |         869 |
|     423 | 0x0396      |         918 |
|     424 | 0x0383      |         899 |
|     425 | 0x037F      |         895 |
|     426 | 0x0381      |         897 |
|     427 | 0x0398      |         920 |
|     428 | 0x0392      |         914 |
|     429 | 0x0393      |         915 |
|     430 | 0x0394      |         916 |
|     431 | 0x0399      |         921 |
|     432 | 0x039A      |         922 |
|     433 | 0x039B      |         923 |
|     434 | 0x039C      |         924 |
|     435 | 0x501B      |       20507 |
|     436 | 0x501C      |       20508 |
|     437 | 0x23F3      |        9203 |
|     438 | 0x0032      |          50 |
|     439 | 0x5029      |       20521 |
|     440 | 0x502A      |       20522 |
|     441 | 0x2384      |        9092 |
|     442 | 0x502F      |       20527 |
|     443 | 0x5030      |       20528 |
|     444 | 0x2364      |        9060 |
|     445 | 0x5064      |       20580 |
|     446 | 0x5065      |       20581 |
|     447 | 0x23F7      |        9207 |
|     448 | 0x507B      |       20603 |
|     449 | 0x507C      |       20604 |
|     450 | 0x235F      |        9055 |
|     451 | 0x507E      |       20606 |
|     452 | 0x507F      |       20607 |
|     453 | 0x2358      |        9048 |
|     454 | 0x5080      |       20608 |
|     455 | 0x5081      |       20609 |
|     456 | 0x2347      |        9031 |
|     457 | 0x50C7      |       20679 |
|     458 | 0x50C8      |       20680 |
|     459 | 0x23F5      |        9205 |
|     460 | 0x50C9      |       20681 |
|     461 | 0x50CA      |       20682 |
|     462 | 0x23F6      |        9206 |
|     463 | 0x50D8      |       20696 |
|     464 | 0x50D9      |       20697 |
|     465 | 0x23BD      |        9149 |
|     466 | 0x50E4      |       20708 |
|     467 | 0x50E5      |       20709 |
|     468 | 0x2385      |        9093 |
|     469 | 0x5083      |       20611 |
|     470 | 0x5084      |       20612 |
|     471 | 0x2319      |        8985 |
|     472 | 0x5085      |       20613 |
|     473 | 0x5086      |       20614 |
|     474 | 0x231D      |        8989 |
|     475 | 0x54BA      |       21690 |
|     476 | 0x54BB      |       21691 |
|     477 | 0x54B8      |       21688 |
|     478 | 0x54B9      |       21689 |
|     479 | 0x54BF      |       21695 |
|     480 | 0x54C0      |       21696 |
|     481 | 0x54C6      |       21702 |
|     482 | 0x54C7      |       21703 |
|     483 | 0x2362      |        9058 |
|     484 | 0x54F4      |       21748 |
|     485 | 0x54F5      |       21749 |
|     486 | 0x23F4      |        9204 |
|     487 | 0x513F      |       20799 |
|     488 | 0x5140      |       20800 |
|     489 | 0x2389      |        9097 |
|     490 | 0x5144      |       20804 |
|     491 | 0x5145      |       20805 |
|     492 | 0x2361      |        9057 |
|     493 | 0x5146      |       20806 |
|     494 | 0x5147      |       20807 |
|     495 | 0x2320      |        8992 |
|     496 | 0x5175      |       20853 |
|     497 | 0x5176      |       20854 |
|     498 | 0x5173      |       20851 |
|     499 | 0x5174      |       20852 |
|     500 | 0x2363      |        9059 |
|     501 | 0x552D      |       21805 |
|     502 | 0x552E      |       21806 |
|     503 | 0x23F9      |        9209 |
|     504 | 0x51A2      |       20898 |
|     505 | 0x51A3      |       20899 |
|     506 | 0x235B      |        9051 |
|     507 | 0x51CE      |       20942 |
|     508 | 0x51CF      |       20943 |
|     509 | 0x2360      |        9056 |
|     510 | 0x51F4      |       20980 |
|     511 | 0x51F5      |       20981 |
|     512 | 0x238F      |        9103 |
|     513 | 0x51FB      |       20987 |
|     514 | 0x51FC      |       20988 |
|     515 | 0x2318      |        8984 |
|     516 | 0x5225      |       21029 |
|     517 | 0x5226      |       21030 |
|     518 | 0x2388      |        9096 |
|     519 | 0x522A      |       21034 |
|     520 | 0x522B      |       21035 |
|     521 | 0x2344      |        9028 |
|     522 | 0x5253      |       21075 |
|     523 | 0x5254      |       21076 |
|     524 | 0x5262      |       21090 |
|     525 | 0x5263      |       21091 |
|     526 | 0x238A      |        9098 |
|     527 | 0x526B      |       21099 |
|     528 | 0x526C      |       21100 |
|     529 | 0x231B      |        8987 |
|     530 | 0x5629      |       22057 |
|     531 | 0x562A      |       22058 |
|     532 | 0x52A7      |       21159 |
|     533 | 0x52A8      |       21160 |
|     534 | 0x52AA      |       21162 |
|     535 | 0x52AB      |       21163 |
|     536 | 0x2322      |        8994 |
|     537 | 0x52AC      |       21164 |
|     538 | 0x52AD      |       21165 |
|     539 | 0x6721      |       26401 |
|     540 | 0x6722      |       26402 |
|     541 | 0x23BE      |        9150 |
|     542 | 0x6BF8      |       27640 |
|     543 | 0x6BF9      |       27641 |
|     544 | 0x6BF6      |       27638 |
|     545 | 0x6BF7      |       27639 |
|     546 | 0x6BF4      |       27636 |
|     547 | 0x6BF5      |       27637 |
|     548 | 0x52E3      |       21219 |
|     549 | 0x52E4      |       21220 |
|     550 | 0x52E6      |       21222 |
|     551 | 0x52E7      |       21223 |
|     552 | 0x2321      |        8993 |
|     553 | 0x5668      |       22120 |
|     554 | 0x5669      |       22121 |
|     555 | 0x53EB      |       21483 |
|     556 | 0x53EC      |       21484 |
|     557 | 0x56FA      |       22266 |
|     558 | 0x56FB      |       22267 |
|     559 | 0x23BF      |        9151 |
|     560 | 0x5365      |       21349 |
|     561 | 0x5366      |       21350 |
|     562 | 0x2315      |        8981 |
|     563 | 0x56EE      |       22254 |
|     564 | 0x56EF      |       22255 |
|     565 | 0x535F      |       21343 |
|     566 | 0x5360      |       21344 |
|     567 | 0x53A8      |       21416 |
|     568 | 0x53A9      |       21417 |
|     569 | 0x235E      |        9054 |
|     570 | 0x53AA      |       21418 |
|     571 | 0x53AB      |       21419 |
|     572 | 0x2345      |        9029 |
|     573 | 0x6423      |       25635 |
|     574 | 0x6424      |       25636 |
|     575 | 0x6401      |       25601 |
|     576 | 0x6402      |       25602 |
|     577 | 0x2387      |        9095 |
|     578 | 0x68A2      |       26786 |
|     579 | 0x68A3      |       26787 |
|     580 | 0x68A0      |       26784 |
|     581 | 0x68A1      |       26785 |
|     582 | 0x686B      |       26731 |
|     583 | 0x686C      |       26732 |
|     584 | 0x2346      |        9030 |
|     585 | 0x685A      |       26714 |
|     586 | 0x685B      |       26715 |
|     587 | 0x231F      |        8991 |
|     588 | 0x6855      |       26709 |
|     589 | 0x6856      |       26710 |
|     590 | 0x2313      |        8979 |
|     591 | 0x6484      |       25732 |
|     592 | 0x6485      |       25733 |
|     593 | 0x646D      |       25709 |
|     594 | 0x646E      |       25710 |
|     595 | 0x6450      |       25680 |
|     596 | 0x6451      |       25681 |
|     597 | 0x2390      |        9104 |
|     598 | 0x693E      |       26942 |
|     599 | 0x693F      |       26943 |
|     600 | 0x6910      |       26896 |
|     601 | 0x6911      |       26897 |
|     602 | 0x2356      |        9046 |
|     603 | 0x6907      |       26887 |
|     604 | 0x6908      |       26888 |
|     605 | 0x68F4      |       26868 |
|     606 | 0x68F5      |       26869 |
|     607 | 0x68F6      |       26870 |
|     608 | 0x68F7      |       26871 |
|     609 | 0x231E      |        8990 |
|     610 | 0x68F8      |       26872 |
|     611 | 0x68F9      |       26873 |
|     612 | 0x6A0E      |       27150 |
|     613 | 0x6A0F      |       27151 |
|     614 | 0x23F8      |        9208 |
|     615 | 0x6A0C      |       27148 |
|     616 | 0x6A0D      |       27149 |
|     617 | 0x69E2      |       27106 |
|     618 | 0x69E3      |       27107 |
|     619 | 0x2386      |        9094 |
|     620 | 0x69E4      |       27108 |
|     621 | 0x69E5      |       27109 |
|     622 | 0x69AA      |       27050 |
|     623 | 0x69AB      |       27051 |
|     624 | 0x6D59      |       27993 |
|     625 | 0x6D5A      |       27994 |
|     626 | 0x6D5B      |       27995 |
|     627 | 0x6D5C      |       27996 |
|     628 | 0x231C      |        8988 |
|     629 | 0x64FF      |       25855 |
|     630 | 0x6500      |       25856 |
|     631 | 0x6A5E      |       27230 |
|     632 | 0x6A5F      |       27231 |
|     633 | 0x6DE6      |       28134 |
|     634 | 0x6DE7      |       28135 |
|     635 | 0x2316      |        8982 |
|     636 | 0x6DE8      |       28136 |
|     637 | 0x6DE9      |       28137 |
|     638 | 0x2317      |        8983 |
|     639 | 0x6543      |       25923 |
|     640 | 0x6544      |       25924 |
|     641 | 0x6B11      |       27409 |
|     642 | 0x6B12      |       27410 |
|     643 | 0x2357      |        9047 |
|     644 | 0x6B0F      |       27407 |
|     645 | 0x6B10      |       27408 |
|     646 | 0x6E71      |       28273 |
|     647 | 0x6E72      |       28274 |
|     648 | 0x6E73      |       28275 |
|     649 | 0x6E74      |       28276 |
|     650 | 0x6BF1      |       27633 |
|     651 | 0x6BF2      |       27634 |
|     652 | 0x2311      |        8977 |
|     653 | 0x1388      |        5000 |
|     654 | 0x539A      |       21402 |
|     655 | 0x539B      |       21403 |
|     656 | 0x2312      |        8978 |
|     657 | 0x6EBE      |       28350 |
|     658 | 0x6EBF      |       28351 |
|     659 | 0x2314      |        8980 |
|     660 | 0x6E6F      |       28271 |
|     661 | 0x6E70      |       28272 |
|     662 | 0x230F      |        8975 |
|     663 | 0x6BCE      |       27598 |
|     664 | 0x6BCF      |       27599 |
|     665 | 0x2310      |        8976 |
|     666 | 0x2CEF      |       11503 |
|     667 | 0x6857      |       26711 |
|     668 | 0x230E      |        8974 |
|     669 | 0x35BF      |       13759 |
|     670 | 0x6CCB      |       27851 |
|     671 | 0x31C9      |       12745 |
|     672 | 0x6D5D      |       27997 |
|     673 | 0x3782      |       14210 |
|     674 | 0x6DEA      |       28138 |
|     675 | 0x2C95      |       11413 |
|     676 | 0x6E75      |       28277 |
|     677 | 0x2CF0      |       11504 |
|     678 | 0x6858      |       26712 |
|     679 | 0x35C0      |       13760 |
|     680 | 0x6CCC      |       27852 |
|     681 | 0x31CA      |       12746 |
|     682 | 0x6D5E      |       27998 |
|     683 | 0x37B1      |       14257 |
|     684 | 0x6DEB      |       28139 |
|     685 | 0x2C96      |       11414 |
|     686 | 0x6E76      |       28278 |
|     687 | 0x2CF1      |       11505 |
|     688 | 0x6859      |       26713 |
|     689 | 0x35D2      |       13778 |
|     690 | 0x6CCD      |       27853 |
|     691 | 0x31CB      |       12747 |
|     692 | 0x6D5F      |       27999 |
|     693 | 0x37B2      |       14258 |
|     694 | 0x6DEC      |       28140 |
|     695 | 0x2C97      |       11415 |
|     696 | 0x6E77      |       28279 |
|     697 | 0x65A5      |       26021 |
|     698 | 0x65A6      |       26022 |
|     699 | 0x6591      |       26001 |
|     700 | 0x6592      |       26002 |
|     701 | 0x6B7D      |       27517 |
|     702 | 0x6B7E      |       27518 |
|     703 | 0x6B74      |       27508 |
|     704 | 0x6B75      |       27509 |
|     705 | 0x2343      |        9027 |
|     706 | 0x6B70      |       27504 |
|     707 | 0x6B71      |       27505 |
|     708 | 0x6EC0      |       28352 |
|     709 | 0x6EC1      |       28353 |
|     710 | 0x231A      |        8986 |
|     711 | 0x6BE3      |       27619 |
|     712 | 0x6BE4      |       27620 |
|     713 | 0x6BD9      |       27609 |
|     714 | 0x6BDA      |       27610 |
|     715 | 0x6BD1      |       27601 |
|     716 | 0x6BD2      |       27602 |
|     717 | 0x6EFC      |       28412 |
|     718 | 0x6EFD      |       28413 |
|     719 | 0x6F07      |       28423 |
|     720 | 0x6F08      |       28424 |
|     721 | 0x6F0D      |       28429 |
|     722 | 0x6F0E      |       28430 |
|     723 | 0x6F0B      |       28427 |
|     724 | 0x6F0C      |       28428 |
|     725 | 0x6B9C      |       27548 |
|     726 | 0x6B9D      |       27549 |
|     727 | 0x6B96      |       27542 |
|     728 | 0x6B97      |       27543 |
|     729 | 0x6B8C      |       27532 |
|     730 | 0x6B8D      |       27533 |
|     731 | 0x6F41      |       28481 |
|     732 | 0x6F42      |       28482 |
|     733 | 0x6F44      |       28484 |
|     734 | 0x6F45      |       28485 |
|     735 | 0x6F46      |       28486 |
|     736 | 0x6F47      |       28487 |
|     737 | 0x6F4A      |       28490 |
|     738 | 0x6F4B      |       28491 |
|     739 | 0x2A12      |       10770 |
|     740 | 0x2A13      |       10771 |
|     741 | 0x2A10      |       10768 |
|     742 | 0x2A11      |       10769 |
|     743 | 0x6BA6      |       27558 |
|     744 | 0x6BA7      |       27559 |
|     745 | 0x6BA8      |       27560 |
|     746 | 0x6BA9      |       27561 |
|     747 | 0x6BAA      |       27562 |
|     748 | 0x6BAB      |       27563 |
|     749 | 0x0FF8      |        4088 |
|     750 | 0x03D3      |         979 |
|     751 | 0x0FF6      |        4086 |
|     752 | 0x03D1      |         977 |
|     753 | 0x0FF7      |        4087 |
|     754 | 0x03D2      |         978 |
|     755 | 0x2359      |        9049 |
|     756 | 0x3A98      |       15000 |
|     757 | 0x230D      |        8973 |
|     758 | 0x1055      |        4181 |
|     759 | 0x1056      |        4182 |
|     760 | 0x1764      |        5988 |
|     761 | 0x1765      |        5989 |
|     762 | 0x13FA      |        5114 |
|     763 | 0x13FB      |        5115 |
|     764 | 0x13FC      |        5116 |
|     765 | 0x13FD      |        5117 |
|     766 | 0x13FE      |        5118 |
|     767 | 0x13FF      |        5119 |
|     768 | 0x1739      |        5945 |
|     769 | 0x0E64      |        3684 |
|     770 | 0x0E67      |        3687 |
|     771 | 0x0E66      |        3686 |
|     772 | 0x0E65      |        3685 |
|     773 | 0x0E68      |        3688 |
|     774 | 0x0E6A      |        3690 |
|     775 | 0x6486      |       25734 |
|     776 | 0x6487      |       25735 |
|     777 | 0x6488      |       25736 |
|     778 | 0x6489      |       25737 |
|     779 | 0x648A      |       25738 |
|     780 | 0x648B      |       25739 |
|     781 | 0x648C      |       25740 |
|     782 | 0x648D      |       25741 |
|     783 | 0x648E      |       25742 |
|     784 | 0x648F      |       25743 |
|     785 | 0x6490      |       25744 |
|     786 | 0x01F4      |         500 |
|     787 | 0x3369      |       13161 |
|     788 | 0x336A      |       13162 |
|     789 | 0x32E5      |       13029 |
|     790 | 0x336B      |       13163 |
|     791 | 0x336C      |       13164 |
|     792 | 0x336D      |       13165 |
|     793 | 0x336E      |       13166 |
|     794 | 0x336F      |       13167 |
|     795 | 0x3370      |       13168 |
|     796 | 0x32E6      |       13030 |
|     797 | 0x3371      |       13169 |
|     798 | 0x3372      |       13170 |
|     799 | 0x3374      |       13172 |
|     800 | 0x32E7      |       13031 |
|     801 | 0x3375      |       13173 |
|     802 | 0x3376      |       13174 |
|     803 | 0x3373      |       13171 |
|     804 | 0x00C9      |         201 |
|     805 | 0x00D7      |         215 |
|     806 | 0x32D3      |       13011 |
|     807 | 0x32D4      |       13012 |

## String References

- **8305**: @@
- **13010**: Join which Unity? [I need time to consider./Pieuje./Ayame./Invincible Shield./Apururu./Maat./Aldo./Jakoh Wahcondalo./Naja Salaheem./Flaviria./Yoran-Oran./Sylvie.]
- **13011**: Should you join one Unity, you will not be able to switch to another one until the rankings are tallied. Proceed anyway?
- **13012**: Join [Pieuje's/Ayame's/Invincible Shield's/Apururu's/Maat's/Aldo's/Jakoh Wahcondalo's/Naja Salaheem's/Flaviria's/Yoran-Oran's/Sylvie's] Unity? [Yes./No.]
- **13014**: Join [Pieuje's/Ayame's/Invincible Shield's/Apururu's/Maat's/Aldo's/Jakoh Wahcondalo's/Naja Salaheem's/Flaviria's/Yoran-Oran's/Sylvie's] Unity? ($2 acc.) [Yes. (Cost: $1 accolade[/s])/No.]
- **13016**: Any actions to take? [None at the moment./Bring me to a Wanted encounter area./Enhance my equipment.[/ (In progress)]/Add an attribute to enhanced equipment./Items, please. (Up to $17 acc.)/Special mats! (Up to $17 acc.)/I want to change Unities./Tell me more about all this.]
- **13017**: Which area? [Return to previous selection./Currently accepted area./Content level 99 and below./Content level 119./Content level 122./Content level 125./Content level 128./Content level 135./Content level 145./Content level 137.]
- **13018**: Go to which area? [Return to previous selection./$8./$8./$8./$8./$8./$8./$8./$8./Next page.]
- **13019**: Go to $8? ($2 acc.) [Yes. (Cost: $1 accolade[/s])/Not now.]
- **13020**: Hear an explanation on which topic? [Return to previous selection./Give me a quick outline./Unity Concord./Unities./Unity chat./Connection with Records of Eminence./Wanted battles./Enhancing equipment./Adding attributes to enhanced equipment./Rewards and accolades./Changing Unities./Unity rankings./Unity leader alter egos.]
- **13021**: Select a type of equipment. [Return to previous selection./Item level 119 weapons/shields./Item level 119 headgear./Item level 119 chestgear./Item level 119 handgear./Item level 119 leggear./Item level 119 footgear./Level 99 equipment./Level 98 and lower equipment./Accessories.]
- **13025**: Buy $1? [Yes, please. (Cost: $0 accolade[/s])/No, thank you.]
- **13026**: $3 $0$0 ? [Yes, please. (Cost: $0 accolade[/s])/No, thank you.]
- **13029**: Enhance the $1? ($2 acc.) [Yes, please. (Cost: $0 accolade[/s])/No, thank you.]
- **13032**: Unity Concord is a system promulgated and managed by the Adventurers' Mutual Aid Network.
- **13033**: Participating adventurers are able to receive a variety of benefits and rewards just by engaging in their everyday activities.
- **13034**: "Unity" is a catchall term that refers to the group that participants belong to.
- **13035**: Unity leaders are individuals who have strong ties to adventurers' activities and are sterling representatives of their home nations.
- **13036**: Members of the same Unity can converse with each other over great distances through the use of specialized figurines known as "$5."
- **13037**: Chat settings may be changed by selecting "Status" from the main menu, and choosing "Unity Info" under the "Unity" submenu.
- **13038**: You may not always be able to join the chat if too many players are participating at once.
- **13039**: Those belonging to a Unity are able to undertake special Records of Eminence objectives related to Unity Concord activities.
- **13040**: The three pertinent categories include shared objectives, Unity leader-specific objectives, and Wanted battle objectives.
- **13041**: Shared objectives may be taken regardless of which Unity you have joined. These tasks can be undertaken at any time, and change every day at midnight (JST).
- **13042**: Unity leader-specific objectives are tied to the Unity's eponymous leader and change each week.
- **13043**: "Wanted" objectives center around vanquishing particularly heinous foes that terrorize Vana'diel.
- **13044**: These objectives are of a higher caliber, and thus require currency known as "Unity accolades" to undertake.
- **13045**: Shared and leader-specific objectives provide more accolades than run-of-the-mill objectives.
- **13046**: Vana'diel has always been plagued by nefarious foes pillaging the landscape, but relatives of some of the more heinous ones have been spotted lately.
- **13047**: The A.M.A.N. has deemed it necessary to eliminate these Wanted targets, and has notified Unity members that they are of the utmost priority.
- **13048**: A list of these foes can be viewed at any time by selecting the appropriate subcategory under the objectives list.
- **13049**: Unity Concord representatives are able to provide participants with transportation to the areas where these threats can be found.
- **13050**: Though tackling the profane will likely require participation of your allies, the objective can be undertaken so long as at least one person has set the appropriate objective.
- **13051**: When you set the objective and commence the battle, the requisite number of Unity accolades will be deducted from your total.
- **13052**: Successful challengers will be rewarded with special rewards in addition to the normal sparks of eminence.
- **13053**: No Unity accolades will be charged should you commence the battle without having the appropriate objective set, but the rewards you can reap from your efforts will be limited.
- **13054**: You can snatch unparalleled equipment and materials from the slain corpses of Wanted targets.
- **13055**: An A.M.A.N. specialist versed in arcane harmonization has kindly offered to use these materials to bring out the latent potential in such pieces.
- **13056**: One of the Unity guides will be pleased to accept certain combinations of equipment and materials to begin the process for you.
- **13057**: A number of accolades is required for this service, but the precision and accuracy of her methods are without equal, and there is no worry of your equipment being destroyed.
- **13058**: You can use specified materials to add new attributes to equipment that has been upgraded.
- **13059**: Utilizing additional materials after adding an attribute can accumulate Reinforcement Points for the equipment and increase its rank.
- **13060**: Increasing your equipment's rank can boost its attributes, while some equipment can also have additional attributes added later.
- **13061**: Speak to the Unity guides after gathering the necessary materials for your equipment in order to add attributes to it or increase its rank.
- **13062**: The first time you add an attribute to a piece of equipment will require the use of Unity accolades.
- **13063**: It also requires that you first complete a specific Records of Eminence objective.
- **13064**: The work you request will be carried out on-site by a specially trained Unity guide.
- **13065**: Completing Records of Eminence objectives as part of a Unity will reward you with Unity accolades in addition to sparks of eminence.
- **13066**: These accolades not only serve as a symbol of prestige, but can also be exchanged for a variety of services.
- **13067**: Some of these services include purchasing items, securing battle zones for hunting Wanted targets, fees for strengthening equipment, and more.
- **13068**: Please note that you may only exchange a maximum of $0 accolades per week (Earth time).
- **13069**: You may switch Unities once during the Unity ranking tabulation period.
- **13070**: This is not a decision to be taken lightly, for switching Unities will cause you to forfeit any benefits you were receiving from your previous one.
- **13071**: This process requires a fair deal of paperwork, and the A.M.A.N. will charge you an accolade fee based on your rank.
- **13072**: However, your valorous deeds remain wherever you choose to go, and you will not lose any other accolades.
- **13073**: Rankings are decided through the combined efforts of each of the Unity's members.
- **13074**: The A.M.A.N. tabulates all the good deeds done during a period of time and confers benefits on a Unity for the following ranking period.
- **13075**: Some of these benefits include changes to Unity accolades gained and the effects of equipment earned from Wanted battles.
- **13076**: Yes, you read that correctly--the attributes of certain equipment will increase in line with your Unity's ranking.
- **13077**: On the other hand, members of a Unity that finds itself on the lower rungs will enjoy an increase in accolades and capacity points earned to help bring them up to par.
- **13078**: Additionally, an individual's evaluation is the sum of the accolades they have earned divided by $0. A Unity's ranking is the average of all eligible members' individual evaluations.
- **13079**: The A.M.A.N. does not look kindly on those who only seek to siphon rewards from others' hard work, and thus only confers these boons on those who have collected at least a certain number of accolades.
- **13080**: Unity leaders may also join you as alter egos for a limited period of time.
- **13081**: Those with evaluations of $0 or greater will be able to call forth an alter ego of their leader to assist them in battle.
- **13082**: Those eligible will be able to use the alter ego from the moment they acquire the appropriate ranking level until the tabulation after the next.
- **13083**: A leader's alter ego grows in power the higher their Unity is ranked.
- **13084**: Changing Unities will remove the player's ability to call forth their leader's alter ego at the moment they leave their current Unity, regardless of personal evaluation or remaining time.
- **13085**: A player will have to work hard in their new Unity and acquire a sufficient evaluation to regain the ability to call forth their new Unity's leader.
- **13086**: It goes without saying that players must first have acquired a Trust permit in order to avail themselves of this opportunity.
- **13087**: Those desiring to participate should seek out one of the initiative's representatives, dressed in green, in one of the three nations.
- **13092**: Should you choose to be teleported to this area, you will not have enough accolades to participate in the Wanted battle. Teleport anyway?
- **13093**: Teleport anyway? [Yes, please./No, thank you.]
- **13094**: Is it playtime alrrready? Oh, I do love reeling in a fresh catch!
- **13095**: But you're a little too rrraw, even for me. Come back once you've had a chance to simmer under, say, $0 Records of Eminence objective[/s].
- **13096**: Now, before you go around caterwauling, let me point you to Eternal Flame right there. He can get you started.
- **13097**: I only play with those who've some meat on their bones. Set the Rrrecords of Eminence tutorial objective "$1" and come back when you're done.
- **13133**: Need some navigation?
- **13134**: Setting sail forrr $8?
- **13135**: You can't pull the wool over my eyes! You don't have enough accolades!
- **13136**: Let's see...you can still exchange $0 more accolade[/s] this week.
- **13137**: Nothing like rrrubbing some oil on equipment to make it shine. Here's what it'll look like:
- **13138**: The artisan'll rrrequire $2 $0$0 , $4, and a fee of $3 accolade[/s] to make $0 for you.
- **13139**: You can't rrrush perfection, so it'll take some time for your piece to be completed. But you'll be satisfied with the results, right as rain!
- **13140**: ...Wait. Rrright now you've got $0 on hold. There's such a huge waiting list that I can't allow you to monopolize two spots!
- **13141**: Adding a new attrrribute to your item will look like this...
- **13142**: Your item will probably turn out as follows once its rrrank is increased.
- **13143**: If you wish to add an attribute to your $0, bring it along with $1 and the rrrequisite fee of $2 accolade[/s].
- **13144**: Oh, you'll also need to complete the Records of Eminence objective "$4" firrrst.
- **13145**: To boost the rrrank of your $0, bring it with some $3. The more you provide, the larger the increase will be.
- **13146**: Once you make your rrrequest, I'll be handling everything for you personally.
- **13147**: Leave it to me! I've spent a lot of time prrreparing for this moment!
- **13148**: $1, hmmmmmmmmm? Might not be what I'd have fished up, but if that's what makes you happy... It'll rrrun you $0 accolade[/s].
- **13149**: How many you want to get your paws on? (1 to $0)
- **13150**: You got it. $2 of those comes to a total of $0 accolade[/s].
- **13151**: Herrre you go!
- **13152**: Hrm? You say you want to jump ship?
- **13153**: I make it a policy not to stick my whiskerrrs in other people's business. Just tell me where you would like to go.
- **13154**: Considerrr it done!
- **13155**: Decided to put the ol' life rrraft back?
- **13156**: I've got a cute little volume that'll rrrun you through the basics. Have a look.
- **13157**: You'll first need to pick a Unity that rrrings true to your heart.
- **13158**: Then fill up your bags with proverbial bucketloads of Records of Eminence objectives to earrrn unity accolades.
- **13159**: Acquire enough accolades and you'll need a portside warrrehouse to store all the items you'll be getting.
- **13160**: It's a bit more complicated than that, but surrrely you get the gist.
- **13161**: Rrready to have your $1 enhanced?
- **13162**: Our arcane artisan rrrequires a fee of $0 accolade[/s]. That okay with you?
- **13163**: I'll make sure it gets to him on the next trading vessel. Never fear--it's purrrfectly secure.
- **13164**: Were you just pulling my tail? Herrre, you can have this back.
- **13165**: We're polishing up your $1! It'll be rrready a little later.
- **13166**: Your piece made it back in one...piece. Congrrratulations on your spiffy new $1!
- **13169**: Here's your piece...hot out of the forge! Congrrratulations!
- **13170**: Too bad, I was about to show you what I'm capable of. Herrre, you can have this back.
- **13171**: If you want to rrrun with the big cats, you'll need to complete the Records of Eminence objective "$7" first and then come see me again.
- **13173**: Behold the marrrvel that is this piece! Hurry up and test it in the field!
- **13174**: How unfortunate... I was really looking forward to this. Herrre, you can have this back.

## Events

### Event 65535

#### Metadata

| Field        | Value   |
|--------------|---------|
| Entrypoint   | 0x0000  |
| Data Size    | 1 bytes |
| Instructions | 1       |

```
      00 01 02 03 04 05 06 07  08 09 0A 0B 0C 0D 0E 0F
      -- -- -- -- -- -- -- --  -- -- -- -- -- -- -- --
0000: 00                                                .               
```

#### Opcodes

```
  0: 0x0000 [0x00] END_REQSTACK()
```

### Event 5148

#### Metadata

| Field        | Value    |
|--------------|----------|
| Entrypoint   | 0x0001   |
| Data Size    | 33 bytes |
| Instructions | 15       |

```
      00 01 02 03 04 05 06 07  08 09 0A 0B 0C 0D 0E 0F
      -- -- -- -- -- -- -- --  -- -- -- -- -- -- -- --
0000:    1E F0 FF FF 7F 6F 70  1D 00 80 23 03 02 10 01   .....op...#....
0010: 80 1D 02 80 23 1E 38 01  10 01 6F 70 1D 03 80 23  ....#.8...op...#
0020: 21 00                                             !.              
```

#### Opcodes

```
  0: 0x0001 [0x1E] EventEntity looks at LocalPlayer and starts talking
  1: 0x0006 [0x6F] WAIT_FRAME_DELAY: Yield until WaitTime reaches zero
  2: 0x0007 [0x70] WAIT_ENTITY_RENDER_FLAG: Wait while EventEntity->Render.Flags3 bit 2 is set (cancel turn if not)
  3: 0x0008 [0x1D] PRINT_EVENT_MESSAGE(message_id=13094*)
     "Is it playtime alrrready? Oh, I do love reeling in a fresh catch!"
  4: 0x000B [0x23] WAIT_FOR_DIALOG_INTERACTION
  5: 0x000C [0x03] Work_Zone[2] = 10*
  6: 0x0011 [0x1D] PRINT_EVENT_MESSAGE(message_id=13095*)
     "But you're a little too rrraw, even for me. Come back once you've had a chance to simmer under, say, $0 Records of Eminence objective[/s]."
  7: 0x0014 [0x23] WAIT_FOR_DIALOG_INTERACTION
  8: 0x0015 [0x1E] EventEntity looks at Eternal Flame (ID: 17826104/0x01100138) and starts talking
  9: 0x001A [0x6F] WAIT_FRAME_DELAY: Yield until WaitTime reaches zero
 10: 0x001B [0x70] WAIT_ENTITY_RENDER_FLAG: Wait while EventEntity->Render.Flags3 bit 2 is set (cancel turn if not)
 11: 0x001C [0x1D] PRINT_EVENT_MESSAGE(message_id=13096*)
     "Now, before you go around caterwauling, let me point you to Eternal Flame right there. He can get you started."
 12: 0x001F [0x23] WAIT_FOR_DIALOG_INTERACTION
 13: 0x0020 [0x21] END_EVENT
 14: 0x0021 [0x00] END_REQSTACK()
```

### Event 5147

#### Metadata

| Field        | Value    |
|--------------|----------|
| Entrypoint   | 0x0022   |
| Data Size    | 22 bytes |
| Instructions | 10       |

```
      00 01 02 03 04 05 06 07  08 09 0A 0B 0C 0D 0E 0F
      -- -- -- -- -- -- -- --  -- -- -- -- -- -- -- --
0020:       1E F0 FF FF 7F 6F  70 1D 00 80 23 03 02 10    .....op...#...
0030: 01 80 1D 02 80 23 21 00                           .....#!.        
```

#### Opcodes

```
  0: 0x0022 [0x1E] EventEntity looks at LocalPlayer and starts talking
  1: 0x0027 [0x6F] WAIT_FRAME_DELAY: Yield until WaitTime reaches zero
  2: 0x0028 [0x70] WAIT_ENTITY_RENDER_FLAG: Wait while EventEntity->Render.Flags3 bit 2 is set (cancel turn if not)
  3: 0x0029 [0x1D] PRINT_EVENT_MESSAGE(message_id=13094*)
     "Is it playtime alrrready? Oh, I do love reeling in a fresh catch!"
  4: 0x002C [0x23] WAIT_FOR_DIALOG_INTERACTION
  5: 0x002D [0x03] Work_Zone[2] = 10*
  6: 0x0032 [0x1D] PRINT_EVENT_MESSAGE(message_id=13095*)
     "But you're a little too rrraw, even for me. Come back once you've had a chance to simmer under, say, $0 Records of Eminence objective[/s]."
  7: 0x0035 [0x23] WAIT_FOR_DIALOG_INTERACTION
  8: 0x0036 [0x21] END_EVENT
  9: 0x0037 [0x00] END_REQSTACK()
```

### Event 5144

#### Metadata

| Field        | Value    |
|--------------|----------|
| Entrypoint   | 0x0038   |
| Data Size    | 19 bytes |
| Instructions | 9        |

```
      00 01 02 03 04 05 06 07  08 09 0A 0B 0C 0D 0E 0F
      -- -- -- -- -- -- -- --  -- -- -- -- -- -- -- --
0030:                          42 1E F0 FF FF 7F 6F 70          B.....op
0040: 03 03 10 04 80 1D 05 80  23 21 00                 ........#!.     
```

#### Opcodes

```
  0: 0x0038 [0x42] SET_CLI_EVENT_CANCEL_DATA()
  1: 0x0039 [0x1E] EventEntity looks at LocalPlayer and starts talking
  2: 0x003E [0x6F] WAIT_FRAME_DELAY: Yield until WaitTime reaches zero
  3: 0x003F [0x70] WAIT_ENTITY_RENDER_FLAG: Wait while EventEntity->Render.Flags3 bit 2 is set (cancel turn if not)
  4: 0x0040 [0x03] Work_Zone[3] = 5*
  5: 0x0045 [0x1D] PRINT_EVENT_MESSAGE(message_id=13097*)
     "I only play with those who've some meat on their bones. Set the Rrrecords of Eminence tutorial objective "$1" and come back when you're done."
  6: 0x0048 [0x23] WAIT_FOR_DIALOG_INTERACTION
  7: 0x0049 [0x21] END_EVENT
  8: 0x004A [0x00] END_REQSTACK()
```

### Event 5145

#### Metadata

| Field        | Value    |
|--------------|----------|
| Entrypoint   | 0x004B   |
| Data Size    | 18 bytes |
| Instructions | 8        |

```
      00 01 02 03 04 05 06 07  08 09 0A 0B 0C 0D 0E 0F
      -- -- -- -- -- -- -- --  -- -- -- -- -- -- -- --
0040:                                   1E F0 FF FF 7F             .....
0050: 6F 70 03 03 10 04 80 1D  05 80 23 21 00           op........#!.   
```

#### Opcodes

```
  0: 0x004B [0x1E] EventEntity looks at LocalPlayer and starts talking
  1: 0x0050 [0x6F] WAIT_FRAME_DELAY: Yield until WaitTime reaches zero
  2: 0x0051 [0x70] WAIT_ENTITY_RENDER_FLAG: Wait while EventEntity->Render.Flags3 bit 2 is set (cancel turn if not)
  3: 0x0052 [0x03] Work_Zone[3] = 5*
  4: 0x0057 [0x1D] PRINT_EVENT_MESSAGE(message_id=13097*)
     "I only play with those who've some meat on their bones. Set the Rrrecords of Eminence tutorial objective "$1" and come back when you're done."
  5: 0x005A [0x23] WAIT_FOR_DIALOG_INTERACTION
  6: 0x005B [0x21] END_EVENT
  7: 0x005C [0x00] END_REQSTACK()
```

### Event 65535.1

#### Metadata

| Field        | Value    |
|--------------|----------|
| Entrypoint   | 0x005D   |
| Data Size    | 13 bytes |
| Instructions | 3        |

```
      00 01 02 03 04 05 06 07  08 09 0A 0B 0C 0D 0E 0F
      -- -- -- -- -- -- -- --  -- -- -- -- -- -- -- --
0050:                                         6B 69 64               kid
0060: 6C 30 F8 FF FF 7F 1C 06  80 00                    l0........      
```

#### Opcodes

```
  0: 0x005D [0x6B] STOP_AND_IDLE: EventEntity stops current action and resets to idle (animation="idl0")
  1: 0x0066 [0x1C] WAIT(45* ticks)
  2: 0x0069 [0x00] END_REQSTACK()
```

### Event 65535.2

#### Metadata

| Field        | Value    |
|--------------|----------|
| Entrypoint   | 0x006A   |
| Data Size    | 29 bytes |
| Instructions | 3        |

```
      00 01 02 03 04 05 06 07  08 09 0A 0B 0C 0D 0E 0F
      -- -- -- -- -- -- -- --  -- -- -- -- -- -- -- --
0060:                                5B 07 80 F8 FF FF            [.....
0070: 7F F8 FF FF 7F 74 6C 6B  30 53 F8 FF FF 7F F8 FF  .....tlk0S......
0080: FF 7F 74 6C 6B 30 00                              ..tlk0.         
```

#### Opcodes

```
  0: 0x006A [0x5B] LOAD_EXT_SCHEDULER: Load scheduler "tlk0" with entities [EventEntity, EventEntity], work=80*
  1: 0x0079 [0x53] WAIT_SCHEDULER_TASK: Wait for scheduler "tlk0" with entities [EventEntity, EventEntity]
  2: 0x0086 [0x00] END_REQSTACK()
```

### Event 65535.3

#### Metadata

| Field        | Value    |
|--------------|----------|
| Entrypoint   | 0x0087   |
| Data Size    | 29 bytes |
| Instructions | 3        |

```
      00 01 02 03 04 05 06 07  08 09 0A 0B 0C 0D 0E 0F
      -- -- -- -- -- -- -- --  -- -- -- -- -- -- -- --
0080:                      5B  07 80 F8 FF FF 7F F8 FF         [........
0090: FF 7F 74 6C 6B 31 53 F8  FF FF 7F F8 FF FF 7F 74  ..tlk1S........t
00A0: 6C 6B 31 00                                       lk1.            
```

#### Opcodes

```
  0: 0x0087 [0x5B] LOAD_EXT_SCHEDULER: Load scheduler "tlk1" with entities [EventEntity, EventEntity], work=80*
  1: 0x0096 [0x53] WAIT_SCHEDULER_TASK: Wait for scheduler "tlk1" with entities [EventEntity, EventEntity]
  2: 0x00A3 [0x00] END_REQSTACK()
```

### Event 65535.4

#### Metadata

| Field        | Value    |
|--------------|----------|
| Entrypoint   | 0x00A4   |
| Data Size    | 29 bytes |
| Instructions | 3        |

```
      00 01 02 03 04 05 06 07  08 09 0A 0B 0C 0D 0E 0F
      -- -- -- -- -- -- -- --  -- -- -- -- -- -- -- --
00A0:             5B 07 80 F8  FF FF 7F F8 FF FF 7F 70      [..........p
00B0: 61 73 30 53 F8 FF FF 7F  F8 FF FF 7F 70 61 73 30  as0S........pas0
00C0: 00                                                .               
```

#### Opcodes

```
  0: 0x00A4 [0x5B] LOAD_EXT_SCHEDULER: Load scheduler "pas0" with entities [EventEntity, EventEntity], work=80*
  1: 0x00B3 [0x53] WAIT_SCHEDULER_TASK: Wait for scheduler "pas0" with entities [EventEntity, EventEntity]
  2: 0x00C0 [0x00] END_REQSTACK()
```

### Event 65535.5

#### Metadata

| Field        | Value    |
|--------------|----------|
| Entrypoint   | 0x00C1   |
| Data Size    | 29 bytes |
| Instructions | 3        |

```
      00 01 02 03 04 05 06 07  08 09 0A 0B 0C 0D 0E 0F
      -- -- -- -- -- -- -- --  -- -- -- -- -- -- -- --
00C0:    5B 07 80 F8 FF FF 7F  F8 FF FF 7F 74 68 6B 31   [..........thk1
00D0: 53 F8 FF FF 7F F8 FF FF  7F 74 68 6B 31 00        S........thk1.  
```

#### Opcodes

```
  0: 0x00C1 [0x5B] LOAD_EXT_SCHEDULER: Load scheduler "thk1" with entities [EventEntity, EventEntity], work=80*
  1: 0x00D0 [0x53] WAIT_SCHEDULER_TASK: Wait for scheduler "thk1" with entities [EventEntity, EventEntity]
  2: 0x00DD [0x00] END_REQSTACK()
```

### Event 65535.6

#### Metadata

| Field        | Value    |
|--------------|----------|
| Entrypoint   | 0x00DE   |
| Data Size    | 29 bytes |
| Instructions | 3        |

```
      00 01 02 03 04 05 06 07  08 09 0A 0B 0C 0D 0E 0F
      -- -- -- -- -- -- -- --  -- -- -- -- -- -- -- --
00D0:                                            5B 07                [.
00E0: 80 F8 FF FF 7F F8 FF FF  7F 74 68 6B 32 53 F8 FF  .........thk2S..
00F0: FF 7F F8 FF FF 7F 74 68  6B 32 00                 ......thk2.     
```

#### Opcodes

```
  0: 0x00DE [0x5B] LOAD_EXT_SCHEDULER: Load scheduler "thk2" with entities [EventEntity, EventEntity], work=80*
  1: 0x00ED [0x53] WAIT_SCHEDULER_TASK: Wait for scheduler "thk2" with entities [EventEntity, EventEntity]
  2: 0x00FA [0x00] END_REQSTACK()
```

### Event 65535.7

#### Metadata

| Field        | Value    |
|--------------|----------|
| Entrypoint   | 0x00FB   |
| Data Size    | 29 bytes |
| Instructions | 3        |

```
      00 01 02 03 04 05 06 07  08 09 0A 0B 0C 0D 0E 0F
      -- -- -- -- -- -- -- --  -- -- -- -- -- -- -- --
00F0:                                   5B 07 80 F8 FF             [....
0100: FF 7F F8 FF FF 7F 61 77  77 30 53 F8 FF FF 7F F8  ......aww0S.....
0110: FF FF 7F 61 77 77 30 00                           ...aww0.        
```

#### Opcodes

```
  0: 0x00FB [0x5B] LOAD_EXT_SCHEDULER: Load scheduler "aww0" with entities [EventEntity, EventEntity], work=80*
  1: 0x010A [0x53] WAIT_SCHEDULER_TASK: Wait for scheduler "aww0" with entities [EventEntity, EventEntity]
  2: 0x0117 [0x00] END_REQSTACK()
```

### Event 65535.8

#### Metadata

| Field        | Value    |
|--------------|----------|
| Entrypoint   | 0x0118   |
| Data Size    | 29 bytes |
| Instructions | 3        |

```
      00 01 02 03 04 05 06 07  08 09 0A 0B 0C 0D 0E 0F
      -- -- -- -- -- -- -- --  -- -- -- -- -- -- -- --
0110:                          5B 07 80 F8 FF FF 7F F8          [.......
0120: FF FF 7F 61 77 77 31 53  F8 FF FF 7F F8 FF FF 7F  ...aww1S........
0130: 61 77 77 31 00                                    aww1.           
```

#### Opcodes

```
  0: 0x0118 [0x5B] LOAD_EXT_SCHEDULER: Load scheduler "aww1" with entities [EventEntity, EventEntity], work=80*
  1: 0x0127 [0x53] WAIT_SCHEDULER_TASK: Wait for scheduler "aww1" with entities [EventEntity, EventEntity]
  2: 0x0134 [0x00] END_REQSTACK()
```

### Event 65535.9

#### Metadata

| Field        | Value    |
|--------------|----------|
| Entrypoint   | 0x0135   |
| Data Size    | 29 bytes |
| Instructions | 3        |

```
      00 01 02 03 04 05 06 07  08 09 0A 0B 0C 0D 0E 0F
      -- -- -- -- -- -- -- --  -- -- -- -- -- -- -- --
0130:                5B 08 80  F8 FF FF 7F F8 FF FF 7F       [..........
0140: 68 61 69 30 53 F8 FF FF  7F F8 FF FF 7F 68 61 69  hai0S........hai
0150: 30 00                                             0.              
```

#### Opcodes

```
  0: 0x0135 [0x5B] LOAD_EXT_SCHEDULER: Load scheduler "hai0" with entities [EventEntity, EventEntity], work=81*
  1: 0x0144 [0x53] WAIT_SCHEDULER_TASK: Wait for scheduler "hai0" with entities [EventEntity, EventEntity]
  2: 0x0151 [0x00] END_REQSTACK()
```

### Event 65535.10

#### Metadata

| Field        | Value    |
|--------------|----------|
| Entrypoint   | 0x0152   |
| Data Size    | 29 bytes |
| Instructions | 3        |

```
      00 01 02 03 04 05 06 07  08 09 0A 0B 0C 0D 0E 0F
      -- -- -- -- -- -- -- --  -- -- -- -- -- -- -- --
0150:       5B 08 80 F8 FF FF  7F F8 FF FF 7F 61 6E 67    [..........ang
0160: 30 53 F8 FF FF 7F F8 FF  FF 7F 61 6E 67 30 00     0S........ang0. 
```

#### Opcodes

```
  0: 0x0152 [0x5B] LOAD_EXT_SCHEDULER: Load scheduler "ang0" with entities [EventEntity, EventEntity], work=81*
  1: 0x0161 [0x53] WAIT_SCHEDULER_TASK: Wait for scheduler "ang0" with entities [EventEntity, EventEntity]
  2: 0x016E [0x00] END_REQSTACK()
```

### Event 65535.11

#### Metadata

| Field        | Value    |
|--------------|----------|
| Entrypoint   | 0x016F   |
| Data Size    | 41 bytes |
| Instructions | 5        |

```
      00 01 02 03 04 05 06 07  08 09 0A 0B 0C 0D 0E 0F
      -- -- -- -- -- -- -- --  -- -- -- -- -- -- -- --
0160:                                               81                 .
0170: 00 F8 FF FF 7F 5B 09 80  F8 FF FF 7F F8 FF FF 7F  .....[..........
0180: 6B 69 73 69 53 F8 FF FF  7F F8 FF FF 7F 6B 69 73  kisiS........kis
0190: 69 81 01 F8 FF FF 7F 00                           i.......        
```

#### Opcodes

```
  0: 0x016F [0x81] SET_ENTITY_BLINKING(blink_flag=0x00, entity=EventEntity)
  1: 0x0175 [0x5B] LOAD_EXT_SCHEDULER: Load scheduler "kisi" with entities [EventEntity, EventEntity], work=84*
  2: 0x0184 [0x53] WAIT_SCHEDULER_TASK: Wait for scheduler "kisi" with entities [EventEntity, EventEntity]
  3: 0x0191 [0x81] SET_ENTITY_BLINKING(blink_flag=0x01, entity=EventEntity)
  4: 0x0197 [0x00] END_REQSTACK()
```

### Event 65535.12

#### Metadata

| Field        | Value    |
|--------------|----------|
| Entrypoint   | 0x0198   |
| Data Size    | 41 bytes |
| Instructions | 5        |

```
      00 01 02 03 04 05 06 07  08 09 0A 0B 0C 0D 0E 0F
      -- -- -- -- -- -- -- --  -- -- -- -- -- -- -- --
0190:                          81 00 F8 FF FF 7F 5B 0A          ......[.
01A0: 80 F8 FF FF 7F F8 FF FF  7F 73 64 77 30 53 F8 FF  .........sdw0S..
01B0: FF 7F F8 FF FF 7F 73 64  77 30 81 01 F8 FF FF 7F  ......sdw0......
01C0: 00                                                .               
```

#### Opcodes

```
  0: 0x0198 [0x81] SET_ENTITY_BLINKING(blink_flag=0x00, entity=EventEntity)
  1: 0x019E [0x5B] LOAD_EXT_SCHEDULER: Load scheduler "sdw0" with entities [EventEntity, EventEntity], work=1284*
  2: 0x01AD [0x53] WAIT_SCHEDULER_TASK: Wait for scheduler "sdw0" with entities [EventEntity, EventEntity]
  3: 0x01BA [0x81] SET_ENTITY_BLINKING(blink_flag=0x01, entity=EventEntity)
  4: 0x01C0 [0x00] END_REQSTACK()
```

### Event 65535.13

#### Metadata

| Field        | Value    |
|--------------|----------|
| Entrypoint   | 0x01C1   |
| Data Size    | 33 bytes |
| Instructions | 3        |

```
      00 01 02 03 04 05 06 07  08 09 0A 0B 0C 0D 0E 0F
      -- -- -- -- -- -- -- --  -- -- -- -- -- -- -- --
01C0:    5F 05 0B 80 F8 FF FF  7F F8 FF FF 7F 77 61 76   _...........wav
01D0: 30 0C 80 5F 07 F8 FF FF  7F F8 FF FF 7F 77 61 76  0.._.........wav
01E0: 30 00                                             0.              
```

#### Opcodes

```
  0: 0x01C1 [0x5F] MULTI_HANDLER_COMPLEX(mode=0x05 - Load ext scheduler with flag (OpCode 0x5B mode 0, flag 1), ref=1285*, entity1=EventEntity, entity2=EventEntity, string="wav0", extra=232*)
  1: 0x01D3 [0x5F] MULTI_HANDLER_COMPLEX(mode=0x07 - Wait scheduler task (OpCode 0x53))
  2: 0x01E1 [0x00] END_REQSTACK()
```

### Event 65535.14

#### Metadata

| Field        | Value    |
|--------------|----------|
| Entrypoint   | 0x01E2   |
| Data Size    | 19 bytes |
| Instructions | 5        |

```
      00 01 02 03 04 05 06 07  08 09 0A 0B 0C 0D 0E 0F
      -- -- -- -- -- -- -- --  -- -- -- -- -- -- -- --
01E0:       32 0D 80 1F 00 0E  80 0F 80 10 80 1F 01 1E    2.............
01F0: 84 01 10 01 00                                    .....           
```

#### Opcodes

```
  0: 0x01E2 [0x32] ExtData[1]->MainSpeed = 40* * 0.1
  1: 0x01E5 [0x1F] MOVE_ENTITY: EventEntity moves to X=15.726*, Z=-109.615*, Y=0.000*
  2: 0x01ED [0x1F] MOVE_ENTITY: Update entity position (mode=1)
  3: 0x01EF [0x1E] EventEntity looks at ??? (ID: 17826180/0x01100184) and starts talking
  4: 0x01F4 [0x00] END_REQSTACK()
```

### Event 65535.15

#### Metadata

| Field        | Value    |
|--------------|----------|
| Entrypoint   | 0x01F5   |
| Data Size    | 19 bytes |
| Instructions | 5        |

```
      00 01 02 03 04 05 06 07  08 09 0A 0B 0C 0D 0E 0F
      -- -- -- -- -- -- -- --  -- -- -- -- -- -- -- --
01F0:                32 11 80  1F 00 12 80 13 80 14 80       2..........
0200: 1F 01 1E F0 FF FF 7F 00                           ........        
```

#### Opcodes

```
  0: 0x01F5 [0x32] ExtData[1]->MainSpeed = 13* * 0.1
  1: 0x01F8 [0x1F] MOVE_ENTITY: EventEntity moves to X=13.610*, Z=-110.480*, Y=-0.150*
  2: 0x0200 [0x1F] MOVE_ENTITY: Update entity position (mode=1)
  3: 0x0202 [0x1E] EventEntity looks at LocalPlayer and starts talking
  4: 0x0207 [0x00] END_REQSTACK()
```

### Event 65535.16

#### Metadata

| Field        | Value    |
|--------------|----------|
| Entrypoint   | 0x0208   |
| Data Size    | 19 bytes |
| Instructions | 5        |

```
      00 01 02 03 04 05 06 07  08 09 0A 0B 0C 0D 0E 0F
      -- -- -- -- -- -- -- --  -- -- -- -- -- -- -- --
0200:                          32 11 80 1F 00 12 80 13          2.......
0210: 80 14 80 1F 01 1E 84 01  10 01 00                 ...........     
```

#### Opcodes

```
  0: 0x0208 [0x32] ExtData[1]->MainSpeed = 13* * 0.1
  1: 0x020B [0x1F] MOVE_ENTITY: EventEntity moves to X=13.610*, Z=-110.480*, Y=-0.150*
  2: 0x0213 [0x1F] MOVE_ENTITY: Update entity position (mode=1)
  3: 0x0215 [0x1E] EventEntity looks at ??? (ID: 17826180/0x01100184) and starts talking
  4: 0x021A [0x00] END_REQSTACK()
```

### Event 5149

#### Metadata

| Field        | Value       |
|--------------|-------------|
| Entrypoint   | 0x021B      |
| Data Size    | 17292 bytes |
| Instructions | 1311        |

```
      00 01 02 03 04 05 06 07  08 09 0A 0B 0C 0D 0E 0F
      -- -- -- -- -- -- -- --  -- -- -- -- -- -- -- --
0210:                                   03 00 00 03 10             .....
0220: 03 01 00 04 10 03 08 00  05 10 03 09 00 06 10 03  ................
0230: 0C 00 07 10 03 0A 00 09  10 03 0B 00 08 10 06 01  ................
0240: 10 40 10 80 15 80 01 10  01 80 43 00 43 01 03 1C  .@........C.C...
0250: 00 02 10 03 1D 00 03 10  03 1E 00 04 10 03 09 17  ................
0260: 05 10 1E F0 FF FF 7F 1D  16 80 23 06 02 00 06 05  ..........#.....
0270: 00 03 15 00 1C 00 0E 15  00 1D 00 0E 15 00 1E 00  ................
0280: 02 15 00 10 80 01 8B 02  01 92 02 3C 05 00 04 80  ...........<....
0290: 17 80 02 08 00 10 80 00  A0 02 06 08 10 01 A3 02  ................
02A0: 05 08 10 24 18 80 02 00  05 00 25 02 00 10 10 80  ...$......%.....
02B0: 00 BB 02 03 01 10 10 80  01 E7 23 02 00 10 17 80  ..........#.....
02C0: 00 06 0A 40 10 80 15 80  01 10 19 80 43 00 43 01  ...@........C.C.
02D0: 03 1F 00 02 10 03 20 00  03 10 03 21 00 04 10 03  ...... ....!....
02E0: 02 00 00 10 06 03 00 06  22 00 06 23 00 02 23 00  ........"..#..#.
02F0: 1A 80 03 6C 03 03 19 00  23 00 14 19 00 1B 80 1A  ...l....#.......
0300: B9 27 02 00 17 17 80 00  66 03 02 23 00 1C 80 03  .'......f..#....
0310: 23 03 3E 1F 00 23 00 20  03 3D 1F 00 23 00 17 80  #.>..#. .=..#...
0320: 01 66 03 02 23 00 1D 80  03 46 03 03 15 00 23 00  .f..#....F....#.
0330: 08 15 00 1C 80 3E 20 00  15 00 43 03 3D 20 00 15  .....> ...C.= ..
0340: 00 17 80 01 66 03 02 23  00 1E 80 03 66 03 03 15  ....f..#....f...
0350: 00 23 00 08 15 00 1D 80  3E 21 00 15 00 66 03 3D  .#......>!...f.=
0360: 21 00 15 00 17 80 0B 23  00 01 ED 02 03 05 00 1F  !......#........
0370: 80 03 15 00 1F 00 0E 15  00 20 00 0E 15 00 21 00  ......... ....!.
0380: 02 15 00 10 80 01 8F 03  3D 05 00 17 80 17 80 3E  ........=......>
0390: 0B 00 19 80 9D 03 3D 05  00 1B 80 17 80 24 20 80  ......=......$ .
03A0: 03 00 05 00 25 02 00 10  10 80 00 B3 03 01 6E 02  ....%.........n.
03B0: 01 B3 03 03 03 00 00 10  06 04 00 06 06 00 06 24  ...............$
03C0: 00 06 25 00 02 03 00 17  80 00 D9 03 03 07 00 1A  ..%.............
03D0: 80 03 25 00 1A 80 01 9D  04 03 18 00 17 80 02 18  ..%.............
03E0: 00 03 00 03 9D 04 02 18  00 17 80 80 FB 03 03 07  ................
03F0: 00 21 80 07 25 00 21 80  01 97 04 02 18 00 22 80  .!..%.!.......".
0400: 80 15 04 03 07 00 19 80  07 25 00 19 80 07 24 00  .........%....$.
0410: 21 80 01 97 04 02 18 00  23 80 80 2F 04 03 07 00  !.......#../....
0420: 24 80 07 25 00 24 80 07  24 00 19 80 01 97 04 02  $..%.$..$.......
0430: 18 00 15 80 80 49 04 03  07 00 25 80 07 25 00 25  .....I....%..%.%
0440: 80 07 24 00 24 80 01 97  04 02 18 00 04 80 80 63  ..$.$..........c
0450: 04 03 07 00 01 80 07 25  00 01 80 07 24 00 25 80  .......%....$.%.
0460: 01 97 04 02 18 00 21 80  80 7D 04 03 07 00 21 80  ......!..}....!.
0470: 07 25 00 21 80 07 24 00  01 80 01 97 04 02 18 00  .%.!..$.........
0480: 19 80 80 97 04 03 07 00  17 80 07 25 00 17 80 07  ...........%....
0490: 24 00 21 80 01 97 04 0B  18 00 01 DE 03 14 25 00  $.!...........%.
04A0: 1B 80 06 26 00 06 27 00  06 28 00 06 29 00 06 2A  ...&..'..(..)..*
04B0: 00 06 2B 00 06 2C 00 06  2D 00 06 2E 00 06 2F 00  ..+..,..-...../.
04C0: 06 30 00 06 31 00 06 32  00 06 33 00 06 34 00 06  .0..1..2..3..4..
04D0: 35 00 06 36 00 06 37 00  06 38 00 06 39 00 06 3A  5..6..7..8..9..:
04E0: 00 06 3B 00 06 3C 00 06  3D 00 06 3E 00 06 3F 00  ..;..<..=..>..?.
04F0: 06 40 00 06 41 00 06 42  00 06 43 00 06 44 00 06  .@..A..B..C..D..
0500: 45 00 06 46 00 06 47 00  06 18 00 03 19 00 24 00  E..F..G.......$.
0510: 14 19 00 1B 80 07 19 00  04 80 03 1A 00 19 00 08  ................
0520: 1A 00 15 80 02 18 00 07  00 03 97 06 9D 0A 87 2A  ...............*
0530: 02 10 19 00 25 00 02 02  10 10 80 80 73 05 03 15  ....%.......s...
0540: 00 19 00 07 15 00 22 80  9D 0A 87 2A 03 10 15 00  ......"....*....
0550: 25 00 02 03 10 10 80 02  6D 05 3E 0B 00 03 10 67  %.......m.>....g
0560: 05 1A 16 29 01 6A 05 1A  E9 23 01 70 05 1A 16 29  ...).j...#.p...)
0570: 01 87 06 02 02 10 17 80  80 BD 05 3E 0A 00 17 80  ...........>....
0580: B7 05 03 15 00 19 00 07  15 00 22 80 9D 0A 87 2A  .........."....*
0590: 03 10 15 00 25 00 02 03  10 10 80 02 B1 05 3E 0B  ....%.........>.
05A0: 00 03 10 AB 05 1A 16 29  01 AE 05 1A E9 23 01 B4  .......).....#..
05B0: 05 1A 16 29 01 BA 05 1A  E9 23 01 87 06 02 02 10  ...).....#......
05C0: 22 80 80 07 06 3E 0A 00  22 80 01 06 03 15 00 19  "....>..".......
05D0: 00 07 15 00 22 80 9D 0A  87 2A 03 10 15 00 25 00  ...."....*....%.
05E0: 02 03 10 10 80 02 FB 05  3E 0B 00 03 10 F5 05 1A  ........>.......
05F0: 16 29 01 F8 05 1A E9 23  01 FE 05 1A 16 29 01 04  .).....#.....)..
0600: 06 1A E9 23 01 87 06 02  02 10 23 80 80 51 06 3E  ...#......#..Q.>
0610: 0A 00 23 80 4B 06 03 15  00 19 00 07 15 00 22 80  ..#.K.........".
0620: 9D 0A 87 2A 03 10 15 00  25 00 02 03 10 10 80 02  ...*....%.......
0630: 45 06 3E 0B 00 03 10 3F  06 1A 16 29 01 42 06 1A  E.>....?...).B..
0640: E9 23 01 48 06 1A 16 29  01 4E 06 1A E9 23 01 87  .#.H...).N...#..
0650: 06 02 02 10 15 80 80 6C  06 3E 0A 00 15 80 66 06  .......l.>....f.
0660: 1A 16 29 01 69 06 1A E9  23 01 87 06 02 02 10 26  ..).i...#......&
0670: 80 80 87 06 3E 0A 00 26  80 81 06 1A 16 29 01 84  ....>..&.....)..
0680: 06 1A E9 23 01 87 06 07  19 00 1B 80 07 1A 00 1B  ...#............
0690: 80 0B 18 00 01 24 05 08  07 00 46 00 03 15 00 07  .....$....F.....
06A0: 00 3F 15 00 15 00 1B 80  15 07 00 1B 80 02 15 00  .?..............
06B0: 10 80 00 C0 06 02 07 00  10 80 02 C0 06 0C 07 00  ................
06C0: 06 05 00 02 06 00 07 00  00 D2 06 3C 05 00 24 80  ...........<..$.
06D0: 17 80 03 15 00 06 00 14  15 00 1B 80 1A B7 25 07  ..............%.
06E0: 15 00 24 00 14 15 00 1B  80 06 19 00 07 19 00 15  ..$.............
06F0: 00 06 02 10 06 03 10 06  04 10 06 05 10 06 06 10  ................
0700: 06 07 10 06 08 10 06 09  10 06 48 00 06 49 00 06  ..........H..I..
0710: 4A 00 06 4B 00 06 4C 00  06 4D 00 06 4E 00 06 4F  J..K..L..M..N..O
0720: 00 06 22 00 1A B9 27 02  00 17 17 80 00 37 07 07  .."...'......7..
0730: 19 00 1B 80 01 24 07 03  48 00 19 00 02 19 00 25  .....$..H......%
0740: 00 04 4E 07 3C 05 00 17  80 17 80 01 58 07 9D 0A  ..N.<.......X...
0750: 87 2A 02 10 19 00 25 00  07 19 00 1B 80 1A B9 27  .*....%........'
0760: 02 00 17 17 80 00 70 07  07 19 00 1B 80 01 5D 07  ......p.......].
0770: 03 49 00 19 00 02 19 00  25 00 04 87 07 3C 05 00  .I......%....<..
0780: 22 80 17 80 01 91 07 9D  0A 87 2A 03 10 19 00 25  ".........*....%
0790: 00 07 19 00 1B 80 1A B9  27 02 00 17 17 80 00 A9  ........'.......
07A0: 07 07 19 00 1B 80 01 96  07 03 4A 00 19 00 02 19  ..........J.....
07B0: 00 25 00 04 C0 07 3C 05  00 23 80 17 80 01 CA 07  .%....<..#......
07C0: 9D 0A 87 2A 04 10 19 00  25 00 07 19 00 1B 80 1A  ...*....%.......
07D0: B9 27 02 00 17 17 80 00  E2 07 07 19 00 1B 80 01  .'..............
07E0: CF 07 03 4B 00 19 00 02  19 00 25 00 04 F9 07 3C  ...K......%....<
07F0: 05 00 15 80 17 80 01 03  08 9D 0A 87 2A 05 10 19  ............*...
0800: 00 25 00 07 19 00 1B 80  1A B9 27 02 00 17 17 80  .%........'.....
0810: 00 1B 08 07 19 00 1B 80  01 08 08 03 4C 00 19 00  ............L...
0820: 02 19 00 25 00 04 32 08  3C 05 00 04 80 17 80 01  ...%..2.<.......
0830: 3C 08 9D 0A 87 2A 06 10  19 00 25 00 07 19 00 1B  <....*....%.....
0840: 80 1A B9 27 02 00 17 17  80 00 54 08 07 19 00 1B  ...'......T.....
0850: 80 01 41 08 03 4D 00 19  00 02 19 00 25 00 04 6B  ..A..M......%..k
0860: 08 3C 05 00 21 80 17 80  01 75 08 9D 0A 87 2A 07  .<..!....u....*.
0870: 10 19 00 25 00 07 19 00  1B 80 1A B9 27 02 00 17  ...%........'...
0880: 17 80 00 8D 08 07 19 00  1B 80 01 7A 08 03 4E 00  ...........z..N.
0890: 19 00 02 19 00 25 00 04  A4 08 3C 05 00 19 80 17  .....%....<.....
08A0: 80 01 AE 08 9D 0A 87 2A  08 10 19 00 25 00 07 19  .......*....%...
08B0: 00 1B 80 1A B9 27 02 00  17 17 80 00 C6 08 07 19  .....'..........
08C0: 00 1B 80 01 B3 08 03 4F  00 19 00 02 19 00 25 00  .......O......%.
08D0: 04 DD 08 3C 05 00 1B 80  17 80 01 E7 08 9D 0A 87  ...<............
08E0: 2A 09 10 19 00 25 00 24  27 80 04 00 05 00 25 02  *....%.$'.....%.
08F0: 00 10 10 80 00 11 09 06  04 00 02 06 00 10 80 00  ................
0900: 08 09 01 6C 03 01 0E 09  0C 06 00 01 C0 06 01 9E  ...l............
0910: 09 02 00 10 24 80 00 25  09 06 04 00 0B 06 00 01  ....$..%........
0920: C0 06 01 9E 09 03 04 00  00 10 03 15 00 00 10 0C  ................
0930: 15 00 9D 0A B8 29 19 00  15 00 1B 80 9D 0A 87 2A  .....).........*
0940: 02 10 19 00 25 00 03 15  00 19 00 07 15 00 21 80  ....%.........!.
0950: 9D 0A 87 2A 14 00 15 00  25 00 1D 28 80 23 03 03  ...*....%..(.#..
0960: 10 29 80 03 04 10 01 00  24 2A 80 10 80 10 80 25  .)......$*.....%
0970: 02 00 10 10 80 00 90 09  02 04 10 03 10 03 8A 09  ................
0980: 1D 2B 80 23 01 C0 06 01  8D 09 01 9E 09 01 9E 09  .+.#............
0990: 02 00 10 17 80 00 9E 09  01 C0 06 01 9E 09 02 03  ................
09A0: 00 17 80 01 DC 09 03 15  00 01 00 08 15 00 29 80  ..............).
09B0: 02 15 00 14 00 03 DC 09  48 2C 80 24 2D 80 10 80  ........H,.$-...
09C0: 10 80 25 02 00 10 10 80  00 CE 09 01 DC 09 02 00  ..%.............
09D0: 10 17 80 00 DC 09 01 C0  06 01 DC 09 73 2E 80 F8  ............s...
09E0: FF FF 7F F0 FF FF 7F 1C  2F 80 30 40 10 80 15 80  ......../.0@....
09F0: 01 10 17 80 15 19 00 1B  80 40 04 80 30 80 01 10  .........@..0...
0A00: 19 00 21 01 E7 23 02 00  10 22 80 00 2E 0D 03 02  ..!..#..."......
0A10: 00 00 10 06 03 00 06 11  00 06 05 00 06 19 00 06  ................
0A20: 1B 00 03 05 00 31 80 02  32 80 10 80 02 36 0A 3D  .....1..2....6.=
0A30: 05 00 17 80 17 80 02 19  80 10 80 02 45 0A 3D 05  ............E.=.
0A40: 00 22 80 17 80 02 24 80  10 80 02 54 0A 3D 05 00  ."....$....T.=..
0A50: 23 80 17 80 02 19 80 10  80 02 63 0A 3D 05 00 15  #.........c.=...
0A60: 80 17 80 02 15 80 10 80  02 72 0A 3D 05 00 04 80  .........r.=....
0A70: 17 80 02 04 80 10 80 02  81 0A 3D 05 00 21 80 17  ..........=..!..
0A80: 80 02 23 80 10 80 02 90  0A 3D 05 00 19 80 17 80  ..#......=......
0A90: 02 25 80 10 80 02 9F 0A  3D 05 00 1B 80 17 80 02  .%......=.......
0AA0: 33 80 10 80 02 AE 0A 3D  05 00 24 80 17 80 24 34  3......=..$...$4
0AB0: 80 03 00 05 00 25 02 00  10 10 80 00 C4 0A 01 6E  .....%.........n
0AC0: 02 01 CC 0A 03 03 00 00  10 1A C8 29 06 04 00 06  ...........)....
0AD0: 06 00 06 05 00 02 06 00  07 00 00 E4 0A 3C 05 00  .............<..
0AE0: 24 80 17 80 03 19 00 1B  00 14 19 00 1B 80 03 15  $...............
0AF0: 00 06 00 14 15 00 1B 80  14 15 00 1B 80 07 19 00  ................
0B00: 15 00 06 02 10 06 03 10  06 04 10 06 05 10 06 06  ................
0B10: 10 06 07 10 06 08 10 06  09 10 9D 0A 87 31 02 10  .............1..
0B20: 19 00 25 00 07 19 00 1B  80 02 19 00 25 00 04 3B  ..%.........%..;
0B30: 0B 3C 05 00 22 80 17 80  01 45 0B 9D 0A 87 31 03  .<.."....E....1.
0B40: 10 19 00 25 00 07 19 00  1B 80 02 19 00 25 00 04  ...%.........%..
0B50: 5C 0B 3C 05 00 23 80 17  80 01 66 0B 9D 0A 87 31  \.<..#....f....1
0B60: 04 10 19 00 25 00 07 19  00 1B 80 02 19 00 25 00  ....%.........%.
0B70: 04 7D 0B 3C 05 00 15 80  17 80 01 87 0B 9D 0A 87  .}.<............
0B80: 31 05 10 19 00 25 00 07  19 00 1B 80 02 19 00 25  1....%.........%
0B90: 00 04 9E 0B 3C 05 00 04  80 17 80 01 A8 0B 9D 0A  ....<...........
0BA0: 87 31 06 10 19 00 25 00  07 19 00 1B 80 02 19 00  .1....%.........
0BB0: 25 00 04 BF 0B 3C 05 00  21 80 17 80 01 C9 0B 9D  %....<..!.......
0BC0: 0A 87 31 07 10 19 00 25  00 07 19 00 1B 80 02 19  ..1....%........
0BD0: 00 25 00 04 E0 0B 3C 05  00 19 80 17 80 01 EA 0B  .%....<.........
0BE0: 9D 0A 87 31 08 10 19 00  25 00 07 19 00 1B 80 02  ...1....%.......
0BF0: 19 00 25 00 04 01 0C 3C  05 00 1B 80 17 80 01 0B  ..%....<........
0C00: 0C 9D 0A 87 31 09 10 19  00 25 00 D4 03 17 80 02  ....1....%......
0C10: 10 D4 03 22 80 03 10 D4  03 23 80 04 10 D4 03 15  ...".....#......
0C20: 80 05 10 D4 03 04 80 06  10 D4 03 21 80 07 10 D4  ...........!....
0C30: 03 19 80 08 10 D4 03 1B  80 09 10 D4 02 35 80 04  .............5..
0C40: 00 05 00 25 02 00 10 10  80 00 66 0C 06 04 00 02  ...%......f.....
0C50: 06 00 10 80 00 5D 0C 01  19 0A 01 63 0C 0C 06 00  .....].....c....
0C60: 01 D2 0A 01 2B 0D 02 00  10 24 80 00 7A 0C 06 04  ....+....$..z...
0C70: 00 0B 06 00 01 D2 0A 01  2B 0D 03 04 00 00 10 03  ........+.......
0C80: 19 00 1B 00 14 19 00 1B  80 03 15 00 06 00 14 15  ................
0C90: 00 1B 80 14 15 00 1B 80  07 19 00 15 00 03 15 00  ................
0CA0: 00 10 0C 15 00 14 15 00  1B 80 07 19 00 15 00 9D  ................
0CB0: 0A 87 31 06 10 19 00 25  00 0B 19 00 9D 0A 87 31  ..1....%.......1
0CC0: 02 10 19 00 25 00 0B 19  00 9D 0A 87 31 03 10 19  ....%.......1...
0CD0: 00 25 00 0B 19 00 9D 0A  87 31 04 10 19 00 25 00  .%.......1....%.
0CE0: 0B 19 00 9D 0A 87 31 05  10 19 00 25 00 02 11 00  ......1....%....
0CF0: 10 80 00 1E 0D 05 11 00  93 02 10 1D 36 80 23 93  ............6.#.
0D00: 10 80 1D 37 80 23 1D 38  80 23 03 02 10 08 00 02  ...7.#.8.#......
0D10: 02 10 10 80 01 1B 0D 1D  39 80 23 01 28 0D 93 02  ........9.#.(...
0D20: 10 1D 37 80 23 93 10 80  01 D2 0A 01 E7 23 02 00  ..7.#........#..
0D30: 10 23 80 00 B6 10 03 02  00 00 10 06 03 00 06 11  .#..............
0D40: 00 06 05 00 06 19 00 06  1B 00 03 05 00 31 80 02  .............1..
0D50: 32 80 10 80 02 5E 0D 3D  05 00 17 80 17 80 02 19  2....^.=........
0D60: 80 10 80 02 6D 0D 3D 05  00 22 80 17 80 02 24 80  ....m.=.."....$.
0D70: 10 80 02 7C 0D 3D 05 00  23 80 17 80 02 19 80 10  ...|.=..#.......
0D80: 80 02 8B 0D 3D 05 00 15  80 17 80 02 15 80 10 80  ....=...........
0D90: 02 9A 0D 3D 05 00 04 80  17 80 02 04 80 10 80 02  ...=............
0DA0: A9 0D 3D 05 00 21 80 17  80 02 10 80 10 80 02 B8  ..=..!..........
0DB0: 0D 3D 05 00 19 80 17 80  02 10 80 10 80 02 C7 0D  .=..............
0DC0: 3D 05 00 1B 80 17 80 02  33 80 10 80 02 D6 0D 3D  =.......3......=
0DD0: 05 00 24 80 17 80 24 34  80 03 00 05 00 25 02 00  ..$...$4.....%..
0DE0: 10 10 80 00 EC 0D 01 6E  02 01 F4 0D 03 03 00 00  .......n........
0DF0: 10 1A C8 29 06 04 00 06  06 00 06 05 00 02 06 00  ...)............
0E00: 07 00 00 0C 0E 3C 05 00  24 80 17 80 03 19 00 1B  .....<..$.......
0E10: 00 14 19 00 1B 80 03 15  00 06 00 14 15 00 1B 80  ................
0E20: 14 15 00 1B 80 07 19 00  15 00 06 02 10 06 03 10  ................
0E30: 06 04 10 06 05 10 06 06  10 06 07 10 06 08 10 06  ................
0E40: 09 10 9D 0A 87 39 02 10  19 00 25 00 07 19 00 1B  .....9....%.....
0E50: 80 02 19 00 25 00 04 63  0E 3C 05 00 22 80 17 80  ....%..c.<.."...
0E60: 01 6D 0E 9D 0A 87 39 03  10 19 00 25 00 07 19 00  .m....9....%....
0E70: 1B 80 02 19 00 25 00 04  84 0E 3C 05 00 23 80 17  .....%....<..#..
0E80: 80 01 8E 0E 9D 0A 87 39  04 10 19 00 25 00 07 19  .......9....%...
0E90: 00 1B 80 02 19 00 25 00  04 A5 0E 3C 05 00 15 80  ......%....<....
0EA0: 17 80 01 AF 0E 9D 0A 87  39 05 10 19 00 25 00 07  ........9....%..
0EB0: 19 00 1B 80 02 19 00 25  00 04 C6 0E 3C 05 00 04  .......%....<...
0EC0: 80 17 80 01 D0 0E 9D 0A  87 39 06 10 19 00 25 00  .........9....%.
0ED0: 07 19 00 1B 80 02 19 00  25 00 04 E7 0E 3C 05 00  ........%....<..
0EE0: 21 80 17 80 01 F1 0E 9D  0A 87 39 07 10 19 00 25  !.........9....%
0EF0: 00 07 19 00 1B 80 02 19  00 25 00 04 08 0F 3C 05  .........%....<.
0F00: 00 19 80 17 80 01 12 0F  9D 0A 87 39 08 10 19 00  ...........9....
0F10: 25 00 07 19 00 1B 80 02  19 00 25 00 04 29 0F 3C  %.........%..).<
0F20: 05 00 1B 80 17 80 01 33  0F 9D 0A 87 39 09 10 19  .......3....9...
0F30: 00 25 00 D4 03 17 80 02  10 D4 03 22 80 03 10 D4  .%........."....
0F40: 03 23 80 04 10 D4 03 15  80 05 10 D4 03 04 80 06  .#..............
0F50: 10 D4 03 21 80 07 10 D4  03 19 80 08 10 D4 03 1B  ...!............
0F60: 80 09 10 D4 02 35 80 04  00 05 00 25 02 00 10 10  .....5.....%....
0F70: 80 00 8E 0F 06 04 00 02  06 00 10 80 00 85 0F 01  ................
0F80: 41 0D 01 8B 0F 0C 06 00  01 FA 0D 01 B3 10 02 00  A...............
0F90: 10 24 80 00 A2 0F 06 04  00 0B 06 00 01 FA 0D 01  .$..............
0FA0: B3 10 03 04 00 00 10 03  19 00 1B 00 03 15 00 06  ................
0FB0: 00 14 15 00 1B 80 07 19  00 15 00 03 15 00 00 10  ................
0FC0: 0C 15 00 07 19 00 15 00  40 10 80 15 80 01 10 26  ........@......&
0FD0: 80 40 04 80 30 80 01 10  19 00 43 00 43 01 02 02  .@..0.....C.C...
0FE0: 10 10 80 03 F1 0F 40 10  80 15 80 01 10 10 80 21  ......@........!
0FF0: 00 03 02 17 02 10 03 03  17 03 10 03 04 17 04 10  ................
1000: 03 05 17 06 10 03 06 17  07 10 03 07 17 08 10 14  ................
1010: 19 00 1B 80 9D 0A 87 39  02 10 19 00 25 00 0B 19  .......9....%...
1020: 00 9D 0A 87 39 03 10 19  00 25 00 03 04 10 3A 80  ....9....%....:.
1030: 0B 19 00 9D 0A 87 39 05  10 19 00 25 00 07 19 00  ......9....%....
1040: 15 80 9D 0A 87 39 06 10  19 00 25 00 02 11 00 10  .....9....%.....
1050: 80 00 8D 10 05 11 00 CC  03 02 10 02 17 03 17 04  ................
1060: 17 1D 3B 80 23 CC 03 02  10 05 17 06 17 07 17 1D  ..;.#...........
1070: 3C 80 23 93 10 80 1D 3D  80 23 1D 3E 80 23 1D 3F  <.#....=.#.>.#.?
1080: 80 23 1D 40 80 23 1D 41  80 23 01 B0 10 CC 03 02  .#.@.#.A.#......
1090: 10 02 17 03 17 04 17 1D  3D 80 23 1D 3E 80 23 CC  ........=.#.>.#.
10A0: 03 02 10 05 17 06 17 07  17 1D 3F 80 23 93 10 80  ..........?.#...
10B0: 01 FA 0D 01 E7 23 02 00  10 15 80 00 1D 1B 03 02  .....#..........
10C0: 00 00 10 06 03 00 06 06  00 03 07 00 42 80 03 25  ............B..%
10D0: 00 07 00 14 25 00 1B 80  06 26 00 06 27 00 06 28  ....%....&..'..(
10E0: 00 06 29 00 06 2A 00 06  2B 00 06 2C 00 06 2D 00  ..)..*..+..,..-.
10F0: 06 2E 00 06 2F 00 06 30  00 06 31 00 06 32 00 06  ..../..0..1..2..
1100: 46 00 06 47 00 06 18 00  03 19 00 22 80 02 18 00  F..G......."....
1110: 42 80 03 93 11 9D 0A 47  40 15 00 19 00 25 00 02  B......G@....%..
1120: 15 00 30 80 00 2D 11 1A  E9 23 01 88 11 02 15 00  ..0..-...#......
1130: 10 80 02 85 11 02 15 00  30 80 03 7F 11 02 15 00  ........0.......
1140: 00 00 00 79 11 41 10 80  43 80 09 00 16 00 02 16  ...y.A..C.......
1150: 00 01 80 04 73 11 41 44  80 45 80 09 00 16 00 02  ....s.AD.E......
1160: 16 00 01 80 04 6D 11 0B  47 00 01 70 11 1A E9 23  .....m..G..p...#
1170: 01 76 11 1A E9 23 01 7C  11 1A E9 23 01 82 11 0B  .v...#.|...#....
1180: 47 00 01 88 11 0B 47 00  0B 18 00 07 19 00 1B 80  G.....G.........
1190: 01 0D 11 08 07 00 46 00  03 15 00 07 00 3F 15 00  ......F......?..
11A0: 15 00 1B 80 15 07 00 1B  80 02 15 00 10 80 00 B4  ................
11B0: 11 0C 07 00 06 05 00 02  06 00 07 00 00 C6 11 3C  ...............<
11C0: 05 00 24 80 17 80 03 15  00 06 00 14 15 00 1B 80  ..$.............
11D0: 1A B7 25 14 15 00 1B 80  06 19 00 07 19 00 15 00  ..%.............
11E0: 03 1A 00 19 00 07 1A 00  22 80 06 03 10 06 04 10  ........".......
11F0: 06 05 10 06 06 10 06 07  10 06 08 10 06 09 10 06  ................
1200: 00 17 06 01 17 06 02 17  06 03 17 06 04 17 06 05  ................
1210: 17 06 06 17 06 07 17 06  08 17 06 48 00 06 49 00  ...........H..I.
1220: 06 4A 00 06 4B 00 06 4C  00 06 4D 00 06 4E 00 06  .J..K..L..M..N..
1230: 4F 00 02 19 00 25 00 04  44 12 3C 05 00 17 80 17  O....%..D.<.....
1240: 80 01 F6 12 9D 0A 47 40  15 00 1A 00 25 00 02 15  ......G@....%...
1250: 00 30 80 00 66 12 07 19  00 1B 80 07 1A 00 1B 80  .0..f...........
1260: 01 32 12 01 D0 12 02 15  00 10 80 02 D0 12 02 15  .2..............
1270: 00 30 80 03 D0 12 02 15  00 00 00 00 C3 12 41 10  .0............A.
1280: 80 43 80 09 00 16 00 02  16 00 01 80 04 B3 12 41  .C.............A
1290: 44 80 45 80 09 00 16 00  02 16 00 01 80 04 A3 12  D.E.............
12A0: 01 B0 12 07 19 00 1B 80  07 1A 00 1B 80 01 32 12  ..............2.
12B0: 01 C0 12 07 19 00 1B 80  07 1A 00 1B 80 01 32 12  ..............2.
12C0: 01 D0 12 07 19 00 1B 80  07 1A 00 1B 80 01 32 12  ..............2.
12D0: 9D 0A 47 40 03 10 19 00  25 00 0C 1A 00 9D 0A 47  ..G@....%......G
12E0: 40 04 10 1A 00 25 00 03  48 00 19 00 07 19 00 1B  @....%..H.......
12F0: 80 07 1A 00 24 80 02 19  00 25 00 04 08 13 3C 05  ....$....%....<.
1300: 00 22 80 17 80 01 BA 13  9D 0A 47 40 15 00 1A 00  ."........G@....
1310: 25 00 02 15 00 30 80 00  2A 13 07 19 00 1B 80 07  %....0..*.......
1320: 1A 00 1B 80 01 F6 12 01  94 13 02 15 00 10 80 02  ................
1330: 94 13 02 15 00 30 80 03  94 13 02 15 00 00 00 00  .....0..........
1340: 87 13 41 10 80 43 80 09  00 16 00 02 16 00 01 80  ..A..C..........
1350: 04 77 13 41 44 80 45 80  09 00 16 00 02 16 00 01  .w.AD.E.........
1360: 80 04 67 13 01 74 13 07  19 00 1B 80 07 1A 00 1B  ..g..t..........
1370: 80 01 F6 12 01 84 13 07  19 00 1B 80 07 1A 00 1B  ................
1380: 80 01 F6 12 01 94 13 07  19 00 1B 80 07 1A 00 1B  ................
1390: 80 01 F6 12 9D 0A 47 40  05 10 19 00 25 00 0C 1A  ......G@....%...
13A0: 00 9D 0A 47 40 06 10 1A  00 25 00 03 49 00 19 00  ...G@....%..I...
13B0: 07 19 00 1B 80 07 1A 00  24 80 02 19 00 25 00 04  ........$....%..
13C0: CC 13 3C 05 00 23 80 17  80 01 7E 14 9D 0A 47 40  ..<..#....~...G@
13D0: 15 00 1A 00 25 00 02 15  00 30 80 00 EE 13 07 19  ....%....0......
13E0: 00 1B 80 07 1A 00 1B 80  01 BA 13 01 58 14 02 15  ............X...
13F0: 00 10 80 02 58 14 02 15  00 30 80 03 58 14 02 15  ....X....0..X...
1400: 00 00 00 00 4B 14 41 10  80 43 80 09 00 16 00 02  ....K.A..C......
1410: 16 00 01 80 04 3B 14 41  44 80 45 80 09 00 16 00  .....;.AD.E.....
1420: 02 16 00 01 80 04 2B 14  01 38 14 07 19 00 1B 80  ......+..8......
1430: 07 1A 00 1B 80 01 BA 13  01 48 14 07 19 00 1B 80  .........H......
1440: 07 1A 00 1B 80 01 BA 13  01 58 14 07 19 00 1B 80  .........X......
1450: 07 1A 00 1B 80 01 BA 13  9D 0A 47 40 07 10 19 00  ..........G@....
1460: 25 00 0C 1A 00 9D 0A 47  40 08 10 1A 00 25 00 03  %......G@....%..
1470: 4A 00 19 00 07 19 00 1B  80 07 1A 00 24 80 02 19  J...........$...
1480: 00 25 00 04 90 14 3C 05  00 15 80 17 80 01 42 15  .%....<.......B.
1490: 9D 0A 47 40 15 00 1A 00  25 00 02 15 00 30 80 00  ..G@....%....0..
14A0: B2 14 07 19 00 1B 80 07  1A 00 1B 80 01 7E 14 01  .............~..
14B0: 1C 15 02 15 00 10 80 02  1C 15 02 15 00 30 80 03  .............0..
14C0: 1C 15 02 15 00 00 00 00  0F 15 41 10 80 43 80 09  ..........A..C..
14D0: 00 16 00 02 16 00 01 80  04 FF 14 41 44 80 45 80  ...........AD.E.
14E0: 09 00 16 00 02 16 00 01  80 04 EF 14 01 FC 14 07  ................
14F0: 19 00 1B 80 07 1A 00 1B  80 01 7E 14 01 0C 15 07  ..........~.....
1500: 19 00 1B 80 07 1A 00 1B  80 01 7E 14 01 1C 15 07  ..........~.....
1510: 19 00 1B 80 07 1A 00 1B  80 01 7E 14 9D 0A 47 40  ..........~...G@
1520: 09 10 19 00 25 00 0C 1A  00 9D 0A 47 40 00 17 1A  ....%......G@...
1530: 00 25 00 03 4B 00 19 00  07 19 00 1B 80 07 1A 00  .%..K...........
1540: 24 80 02 19 00 25 00 04  54 15 3C 05 00 04 80 17  $....%..T.<.....
1550: 80 01 06 16 9D 0A 47 40  15 00 1A 00 25 00 02 15  ......G@....%...
1560: 00 30 80 00 76 15 07 19  00 1B 80 07 1A 00 1B 80  .0..v...........
1570: 01 42 15 01 E0 15 02 15  00 10 80 02 E0 15 02 15  .B..............
1580: 00 30 80 03 E0 15 02 15  00 00 00 00 D3 15 41 10  .0............A.
1590: 80 43 80 09 00 16 00 02  16 00 01 80 04 C3 15 41  .C.............A
15A0: 44 80 45 80 09 00 16 00  02 16 00 01 80 04 B3 15  D.E.............
15B0: 01 C0 15 07 19 00 1B 80  07 1A 00 1B 80 01 42 15  ..............B.
15C0: 01 D0 15 07 19 00 1B 80  07 1A 00 1B 80 01 42 15  ..............B.
15D0: 01 E0 15 07 19 00 1B 80  07 1A 00 1B 80 01 42 15  ..............B.
15E0: 9D 0A 47 40 01 17 19 00  25 00 0C 1A 00 9D 0A 47  ..G@....%......G
15F0: 40 02 17 1A 00 25 00 03  4C 00 19 00 07 19 00 1B  @....%..L.......
1600: 80 07 1A 00 24 80 02 19  00 25 00 04 18 16 3C 05  ....$....%....<.
1610: 00 21 80 17 80 01 CA 16  9D 0A 47 40 15 00 1A 00  .!........G@....
1620: 25 00 02 15 00 30 80 00  3A 16 07 19 00 1B 80 07  %....0..:.......
1630: 1A 00 1B 80 01 06 16 01  A4 16 02 15 00 10 80 02  ................
1640: A4 16 02 15 00 30 80 03  A4 16 02 15 00 00 00 00  .....0..........
1650: 97 16 41 10 80 43 80 09  00 16 00 02 16 00 01 80  ..A..C..........
1660: 04 87 16 41 44 80 45 80  09 00 16 00 02 16 00 01  ...AD.E.........
1670: 80 04 77 16 01 84 16 07  19 00 1B 80 07 1A 00 1B  ..w.............
1680: 80 01 06 16 01 94 16 07  19 00 1B 80 07 1A 00 1B  ................
1690: 80 01 06 16 01 A4 16 07  19 00 1B 80 07 1A 00 1B  ................
16A0: 80 01 06 16 9D 0A 47 40  03 17 19 00 25 00 0C 1A  ......G@....%...
16B0: 00 9D 0A 47 40 04 17 1A  00 25 00 03 4D 00 19 00  ...G@....%..M...
16C0: 07 19 00 1B 80 07 1A 00  24 80 02 19 00 25 00 04  ........$....%..
16D0: DC 16 3C 05 00 19 80 17  80 01 8E 17 9D 0A 47 40  ..<...........G@
16E0: 15 00 1A 00 25 00 02 15  00 30 80 00 FE 16 07 19  ....%....0......
16F0: 00 1B 80 07 1A 00 1B 80  01 CA 16 01 68 17 02 15  ............h...
1700: 00 10 80 02 68 17 02 15  00 30 80 03 68 17 02 15  ....h....0..h...
1710: 00 00 00 00 5B 17 41 10  80 43 80 09 00 16 00 02  ....[.A..C......
1720: 16 00 01 80 04 4B 17 41  44 80 45 80 09 00 16 00  .....K.AD.E.....
1730: 02 16 00 01 80 04 3B 17  01 48 17 07 19 00 1B 80  ......;..H......
1740: 07 1A 00 1B 80 01 CA 16  01 58 17 07 19 00 1B 80  .........X......
1750: 07 1A 00 1B 80 01 CA 16  01 68 17 07 19 00 1B 80  .........h......
1760: 07 1A 00 1B 80 01 CA 16  9D 0A 47 40 05 17 19 00  ..........G@....
1770: 25 00 0C 1A 00 9D 0A 47  40 06 17 1A 00 25 00 03  %......G@....%..
1780: 4E 00 19 00 07 19 00 1B  80 07 1A 00 24 80 02 19  N...........$...
1790: 00 25 00 04 A0 17 3C 05  00 1B 80 17 80 01 52 18  .%....<.......R.
17A0: 9D 0A 47 40 15 00 1A 00  25 00 02 15 00 30 80 00  ..G@....%....0..
17B0: C2 17 07 19 00 1B 80 07  1A 00 1B 80 01 8E 17 01  ................
17C0: 2C 18 02 15 00 10 80 02  2C 18 02 15 00 30 80 03  ,.......,....0..
17D0: 2C 18 02 15 00 00 00 00  1F 18 41 10 80 43 80 09  ,.........A..C..
17E0: 00 16 00 02 16 00 01 80  04 0F 18 41 44 80 45 80  ...........AD.E.
17F0: 09 00 16 00 02 16 00 01  80 04 FF 17 01 0C 18 07  ................
1800: 19 00 1B 80 07 1A 00 1B  80 01 8E 17 01 1C 18 07  ................
1810: 19 00 1B 80 07 1A 00 1B  80 01 8E 17 01 2C 18 07  .............,..
1820: 19 00 1B 80 07 1A 00 1B  80 01 8E 17 9D 0A 47 40  ..............G@
1830: 07 17 19 00 25 00 0C 1A  00 9D 0A 47 40 08 17 1A  ....%......G@...
1840: 00 25 00 03 4F 00 19 00  07 19 00 1B 80 07 1A 00  .%..O...........
1850: 24 80 03 02 10 01 00 D4  03 17 80 03 10 D4 03 22  $.............."
1860: 80 05 10 D4 03 23 80 07  10 D4 03 15 80 09 10 D4  .....#..........
1870: 03 04 80 01 17 D4 03 21  80 03 17 D4 03 19 80 05  .......!........
1880: 17 D4 03 1B 80 07 17 D4  02 46 80 03 00 05 00 25  .........F.....%
1890: 02 00 10 10 80 00 B2 18  06 03 00 02 06 00 10 80  ................
18A0: 00 A9 18 01 6E 02 01 AF  18 0C 06 00 01 B4 11 01  ....n...........
18B0: 75 19 02 00 10 24 80 00  C6 18 06 03 00 0B 06 00  u....$..........
18C0: 01 B4 11 01 75 19 03 03  00 00 10 03 15 00 00 10  ....u...........
18D0: 0C 15 00 9D 0A B8 29 19  00 15 00 1B 80 03 1A 00  ......).........
18E0: 19 00 15 19 00 1B 80 9D  0A 47 40 03 10 1A 00 25  .........G@....%
18F0: 00 0B 1A 00 9D 0A 47 40  02 10 1A 00 25 00 03 0D  ......G@....%...
1900: 00 03 10 03 0E 00 02 10  40 10 80 15 80 01 10 23  ........@......#
1910: 80 40 04 80 30 80 01 10  19 00 43 00 43 01 03 10  .@..0.....C.C...
1920: 00 03 10 02 02 10 10 80  03 36 19 40 10 80 15 80  .........6.@....
1930: 01 10 10 80 21 00 02 02  10 17 80 00 46 19 03 0F  ....!.......F...
1940: 00 17 80 01 75 19 03 15  00 0E 00 14 15 00 22 80  ....u.........".
1950: 02 01 00 15 00 03 60 19  03 0F 00 17 80 01 75 19  ......`.......u.
1960: 02 09 17 15 00 03 70 19  03 0F 00 17 80 01 75 19  ......p.......u.
1970: 03 0F 00 22 80 03 03 10  0D 00 03 02 10 0E 00 02  ..."............
1980: 0F 00 17 80 00 E1 19 93  0D 00 1D 47 80 23 93 10  ...........G.#..
1990: 80 02 0E 00 01 00 02 A3  19 1D 2B 80 23 01 B4 11  ..........+.#...
19A0: 01 B7 19 02 0E 00 09 17  02 B7 19 03 02 10 09 17  ................
19B0: 1D 48 80 23 01 B4 11 03  04 10 01 00 24 49 80 17  .H.#........$I..
19C0: 80 10 80 25 02 00 10 10  80 00 D0 19 42 01 DE 19  ...%........B...
19D0: 02 00 10 17 80 00 DE 19  01 B4 11 01 DE 19 01 D6  ................
19E0: 1A 03 02 10 01 00 02 02  10 09 17 02 F3 19 03 02  ................
19F0: 10 09 17 15 02 10 0E 00  02 10 00 30 80 80 10 1A  ...........0....
1A00: 02 02 10 4A 80 02 0D 1A  03 02 10 4A 80 01 28 1A  ...J.......J..(.
1A10: 02 10 00 4B 80 80 28 1A  02 02 10 4C 80 02 25 1A  ...K..(....L..%.
1A20: 03 02 10 4C 80 01 28 1A  93 0D 00 1D 4D 80 23 71  ...L..(.....M.#q
1A30: 10 17 80 71 11 0F 00 93  10 80 02 0F 00 10 80 00  ...q............
1A40: 45 1A 01 B4 11 02 10 00  30 80 80 5B 1A 02 0F 00  E.......0..[....
1A50: 4A 80 02 58 1A 01 E1 19  01 71 1A 02 10 00 4B 80  J..X.....q....K.
1A60: 80 71 1A 02 0F 00 4C 80  02 6E 1A 01 E1 19 01 71  .q....L..n.....q
1A70: 1A 03 04 10 0F 00 03 02  10 0E 00 14 02 10 0F 00  ................
1A80: 02 02 10 01 00 02 92 1A  1D 2B 80 23 01 E1 19 01  .........+.#....
1A90: A6 1A 02 02 10 09 17 02  A6 1A 03 02 10 09 17 1D  ................
1AA0: 48 80 23 01 E1 19 1D 4E  80 23 03 04 10 01 00 03  H.#....N.#......
1AB0: 05 10 0F 00 24 4F 80 17  80 10 80 25 02 00 10 10  ....$O.....%....
1AC0: 80 00 C8 1A 42 01 D6 1A  02 00 10 17 80 00 D6 1A  ....B...........
1AD0: 01 B4 11 01 D6 1A 1D 50  80 23 40 10 80 15 80 01  .......P.#@.....
1AE0: 10 15 80 40 04 80 30 80  01 10 19 00 40 11 80 33  ...@..0.....@..3
1AF0: 80 01 10 0F 00 43 00 43  01 02 02 10 10 80 03 0C  .....C.C........
1B00: 1B 40 10 80 15 80 01 10  10 80 21 00 03 01 00 04  .@........!.....
1B10: 10 03 09 17 05 10 2E 01  B4 11 01 E7 23 02 00 10  ............#...
1B20: 04 80 00 B8 20 03 02 00  00 10 06 03 00 06 06 00  .... ...........
1B30: 03 07 00 1A 80 03 25 00  07 00 14 25 00 1B 80 06  ......%....%....
1B40: 26 00 06 27 00 06 28 00  06 29 00 06 2A 00 06 2B  &..'..(..)..*..+
1B50: 00 06 2C 00 06 2D 00 06  2E 00 06 2F 00 06 30 00  ..,..-...../..0.
1B60: 06 31 00 06 32 00 06 46  00 06 47 00 06 18 00 02  .1..2..F..G.....
1B70: 18 00 1A 80 03 8D 1B 3E  1C 00 18 00 84 1B 0B 47  .......>.......G
1B80: 00 01 87 1B 1A E9 23 0B  18 00 01 6F 1B 08 07 00  ......#....o....
1B90: 46 00 03 15 00 07 00 3F  15 00 15 00 1B 80 15 07  F......?........
1BA0: 00 1B 80 02 15 00 10 80  00 AE 1B 0C 07 00 06 05  ................
1BB0: 00 02 06 00 07 00 00 C0  1B 3C 05 00 24 80 17 80  .........<..$...
1BC0: 03 15 00 06 00 14 15 00  1B 80 1A B7 25 14 15 00  ............%...
1BD0: 1B 80 06 19 00 07 19 00  15 00 03 1A 00 19 00 0B  ................
1BE0: 1A 00 06 03 10 06 04 10  06 05 10 06 06 10 06 07  ................
1BF0: 10 06 08 10 06 09 10 06  00 17 06 01 17 06 02 17  ................
1C00: 06 03 17 06 04 17 06 05  17 06 06 17 06 07 17 06  ................
1C10: 08 17 06 48 00 06 49 00  06 4A 00 06 4B 00 06 4C  ...H..I..J..K..L
1C20: 00 06 4D 00 06 4E 00 06  4F 00 15 15 00 1B 80 3E  ..M..N..O......>
1C30: 1C 00 15 00 52 1C 9D 0A  27 42 03 10 19 00 25 00  ....R...'B....%.
1C40: 9D 0A 27 42 04 10 1A 00  25 00 03 48 00 19 00 01  ..'B....%..H....
1C50: 77 1C 07 19 00 1B 80 07  1A 00 1B 80 0B 15 00 02  w...............
1C60: 19 00 25 00 04 74 1C 3C  05 00 17 80 17 80 01 77  ..%..t.<.......w
1C70: 1C 01 77 1C 01 2F 1C 07  19 00 1B 80 07 1A 00 1B  ..w../..........
1C80: 80 0B 15 00 3E 1C 00 15  00 A7 1C 9D 0A 27 42 05  ....>........'B.
1C90: 10 19 00 25 00 9D 0A 27  42 06 10 1A 00 25 00 03  ...%...'B....%..
1CA0: 49 00 19 00 01 BF 1C 02  19 00 25 00 04 BC 1C 3C  I.........%....<
1CB0: 05 00 22 80 17 80 01 BF  1C 01 BF 1C 01 77 1C 07  .."..........w..
1CC0: 19 00 1B 80 07 1A 00 1B  80 0B 15 00 3E 1C 00 15  ............>...
1CD0: 00 EF 1C 9D 0A 27 42 07  10 19 00 25 00 9D 0A 27  .....'B....%...'
1CE0: 42 08 10 1A 00 25 00 03  4A 00 19 00 01 07 1D 02  B....%..J.......
1CF0: 19 00 25 00 04 04 1D 3C  05 00 23 80 17 80 01 07  ..%....<..#.....
1D00: 1D 01 07 1D 01 BF 1C 07  19 00 1B 80 07 1A 00 1B  ................
1D10: 80 0B 15 00 3E 1C 00 15  00 37 1D 9D 0A 27 42 09  ....>....7...'B.
1D20: 10 19 00 25 00 9D 0A 27  42 00 17 1A 00 25 00 03  ...%...'B....%..
1D30: 4B 00 19 00 01 4F 1D 02  19 00 25 00 04 4C 1D 3C  K....O....%..L.<
1D40: 05 00 15 80 17 80 01 4F  1D 01 4F 1D 01 07 1D 07  .......O..O.....
1D50: 19 00 1B 80 07 1A 00 1B  80 0B 15 00 3E 1C 00 15  ............>...
1D60: 00 7F 1D 9D 0A 27 42 01  17 19 00 25 00 9D 0A 27  .....'B....%...'
1D70: 42 02 17 1A 00 25 00 03  4C 00 19 00 01 97 1D 02  B....%..L.......
1D80: 19 00 25 00 04 94 1D 3C  05 00 04 80 17 80 01 97  ..%....<........
1D90: 1D 01 97 1D 01 4F 1D 07  19 00 1B 80 07 1A 00 1B  .....O..........
1DA0: 80 0B 15 00 3E 1C 00 15  00 C7 1D 9D 0A 27 42 03  ....>........'B.
