# 17826063 - Nylene

## Common Data

| Field            | Value                     |
|------------------|---------------------------|
| Zone             | Western Adoulin (ID: 256) |
| Block Size       | 236 bytes                 |
| Total Events     | 5                         |
| References Count | 8                         |

## List of Events

| Event ID              | Entrypoint   |   Size |   Instructions |
|-----------------------|--------------|--------|----------------|
| [65535](#event-65535) | 0x0000       |      1 |              1 |
| [533](#event-533)     | 0x0001       |     54 |             12 |
| [562](#event-562)     | 0x0037       |     50 |             10 |
| [2559](#event-2559)   | 0x0069       |     60 |             18 |
| [5146](#event-5146)   | 0x00A5       |      1 |              1 |

## DAT References (imed_data)

|   Index | Hex Value   |   Dec Value |
|---------|-------------|-------------|
|       0 | 0x000D      |          13 |
|       1 | 0x26B3      |        9907 |
|       2 | 0x26B4      |        9908 |
|       3 | 0x1F30      |        7984 |
|       4 | 0x1F31      |        7985 |
|       5 | 0x1F32      |        7986 |
|       6 | 0x1F33      |        7987 |
|       7 | 0x1F34      |        7988 |

## String References

- **7984**: We're always glad to have people come inside the Mummers' Coalition!
- **7985**: Hey, I just made up a theme song for us! Want to hear it? "I love fun, fun loves me, we're--t" Oh, you're on patrol... Sorry.
- **7986**: Adoulin's finest have nothing to worry about. All the people here are happy and content.t
- **7987**: We try our best to have everyone in the city get the most out of life. We hold grand events, cheer soldiers up on the battlefield, and constantly cook up new ways to entertain Adoulinians! Come get some assignments from us if you want to see more of what we're about.
- **7988**: ...Ooor drop by and play one of our games the next time you want to have some fun.t
- **9907**: If you're a fun-loving [lord/lady] looking for a good time, I'd be more than willing to show you to the Mummers' Coalition.t
- **9908**: My, oh my... You're not a pioneer? Then make haste to the Pioneers' Coalition so we can...enliven you as soon as possible!

## Events

### Event 65535

#### Metadata

| Field        | Value   |
|--------------|---------|
| Entrypoint   | 0x0000  |
| Data Size    | 1 bytes |
| Instructions | 1       |

```
      00 01 02 03 04 05 06 07  08 09 0A 0B 0C 0D 0E 0F
      -- -- -- -- -- -- -- --  -- -- -- -- -- -- -- --
0000: 00                                                .               
```

#### Opcodes

```
  0: 0x0000 [0x00] END_REQSTACK()
```

### Event 533

#### Metadata

| Field        | Value    |
|--------------|----------|
| Entrypoint   | 0x0001   |
| Data Size    | 54 bytes |
| Instructions | 12       |

```
      00 01 02 03 04 05 06 07  08 09 0A 0B 0C 0D 0E 0F
      -- -- -- -- -- -- -- --  -- -- -- -- -- -- -- --
0000:    1E F0 FF FF 7F 6F 70  29 10 F0 FF FF 7F 03 66   .....op)......f
0010: 00 80 F8 FF FF 7F F8 FF  FF 7F 74 6C 62 30 1D 01  ..........tlb0..
0020: 80 23 1D 02 80 23 66 00  80 F8 FF FF 7F F8 FF FF  .#...#f.........
0030: 7F 74 6C 62 31 21 00                              .tlb1!.         
```

#### Opcodes

```
  0: 0x0001 [0x1E] EventEntity looks at LocalPlayer and starts talking
  1: 0x0006 [0x6F] WAIT_FRAME_DELAY: Yield until WaitTime reaches zero
  2: 0x0007 [0x70] WAIT_ENTITY_RENDER_FLAG: Wait while EventEntity->Render.Flags3 bit 2 is set (cancel turn if not)
  3: 0x0008 [0x29] REQ_SET_WAIT(priority=0x10, entity_id=LocalPlayer, tag_num=0x03)
  4: 0x000F [0x66] LOAD_EXT_SCHEDULER_MAIN: Load scheduler "tlb0" with entities [EventEntity, EventEntity], work=13*
  5: 0x001E [0x1D] PRINT_EVENT_MESSAGE(message_id=9907*)
    → "If you're a fun-loving [lord/lady] looking for a good time, I'd be more than willing to show you to the Mummers' Coalition.t"
  6: 0x0021 [0x23] WAIT_FOR_DIALOG_INTERACTION
  7: 0x0022 [0x1D] PRINT_EVENT_MESSAGE(message_id=9908*)
    → "My, oh my... You're not a pioneer? Then make haste to the Pioneers' Coalition so we can...enliven you as soon as possible!"
  8: 0x0025 [0x23] WAIT_FOR_DIALOG_INTERACTION
  9: 0x0026 [0x66] LOAD_EXT_SCHEDULER_MAIN: Load scheduler "tlb1" with entities [EventEntity, EventEntity], work=13*
 10: 0x0035 [0x21] END_EVENT
 11: 0x0036 [0x00] END_REQSTACK()
```

### Event 562

#### Metadata

| Field        | Value    |
|--------------|----------|
| Entrypoint   | 0x0037   |
| Data Size    | 50 bytes |
| Instructions | 10       |

```
      00 01 02 03 04 05 06 07  08 09 0A 0B 0C 0D 0E 0F
      -- -- -- -- -- -- -- --  -- -- -- -- -- -- -- --
0030:                      1E  F0 FF FF 7F 6F 70 29 10         .....op).
0040: F0 FF FF 7F 03 66 00 80  F8 FF FF 7F F8 FF FF 7F  .....f..........
0050: 74 6C 62 30 1D 01 80 23  66 00 80 F8 FF FF 7F F8  tlb0...#f.......
0060: FF FF 7F 74 6C 62 31 21  00                       ...tlb1!.       
```

#### Opcodes

```
  0: 0x0037 [0x1E] EventEntity looks at LocalPlayer and starts talking
  1: 0x003C [0x6F] WAIT_FRAME_DELAY: Yield until WaitTime reaches zero
  2: 0x003D [0x70] WAIT_ENTITY_RENDER_FLAG: Wait while EventEntity->Render.Flags3 bit 2 is set (cancel turn if not)
  3: 0x003E [0x29] REQ_SET_WAIT(priority=0x10, entity_id=LocalPlayer, tag_num=0x03)
  4: 0x0045 [0x66] LOAD_EXT_SCHEDULER_MAIN: Load scheduler "tlb0" with entities [EventEntity, EventEntity], work=13*
  5: 0x0054 [0x1D] PRINT_EVENT_MESSAGE(message_id=9907*)
    → "If you're a fun-loving [lord/lady] looking for a good time, I'd be more than willing to show you to the Mummers' Coalition.t"
  6: 0x0057 [0x23] WAIT_FOR_DIALOG_INTERACTION
  7: 0x0058 [0x66] LOAD_EXT_SCHEDULER_MAIN: Load scheduler "tlb1" with entities [EventEntity, EventEntity], work=13*
  8: 0x0067 [0x21] END_EVENT
  9: 0x0068 [0x00] END_REQSTACK()
```

### Event 2559

#### Metadata

| Field        | Value    |
|--------------|----------|
| Entrypoint   | 0x0069   |
| Data Size    | 60 bytes |
| Instructions | 18       |

```
      00 01 02 03 04 05 06 07  08 09 0A 0B 0C 0D 0E 0F
      -- -- -- -- -- -- -- --  -- -- -- -- -- -- -- --
0060:                             1E F0 FF FF 7F 42 6F           .....Bo
0070: 70 66 00 80 F8 FF FF 7F  F8 FF FF 7F 74 6C 62 30  pf..........tlb0
0080: 1D 03 80 23 1D 04 80 23  1D 05 80 23 1D 06 80 23  ...#...#...#...#
0090: 1D 07 80 23 66 00 80 F8  FF FF 7F F8 FF FF 7F 74  ...#f..........t
00A0: 6C 62 31 21 00                                    lb1!.           
```

#### Opcodes

```
  0: 0x0069 [0x1E] EventEntity looks at LocalPlayer and starts talking
  1: 0x006E [0x42] SET_CLI_EVENT_CANCEL_DATA()
  2: 0x006F [0x6F] WAIT_FRAME_DELAY: Yield until WaitTime reaches zero
  3: 0x0070 [0x70] WAIT_ENTITY_RENDER_FLAG: Wait while EventEntity->Render.Flags3 bit 2 is set (cancel turn if not)
  4: 0x0071 [0x66] LOAD_EXT_SCHEDULER_MAIN: Load scheduler "tlb0" with entities [EventEntity, EventEntity], work=13*
  5: 0x0080 [0x1D] PRINT_EVENT_MESSAGE(message_id=7984*)
    → "We're always glad to have people come inside the Mummers' Coalition!"
  6: 0x0083 [0x23] WAIT_FOR_DIALOG_INTERACTION
  7: 0x0084 [0x1D] PRINT_EVENT_MESSAGE(message_id=7985*)
    → "Hey, I just made up a theme song for us! Want to hear it? "I love fun, fun loves me, we're--t" Oh, you're on patrol... Sorry."
  8: 0x0087 [0x23] WAIT_FOR_DIALOG_INTERACTION
  9: 0x0088 [0x1D] PRINT_EVENT_MESSAGE(message_id=7986*)
    → "Adoulin's finest have nothing to worry about. All the people here are happy and content.t"
 10: 0x008B [0x23] WAIT_FOR_DIALOG_INTERACTION
 11: 0x008C [0x1D] PRINT_EVENT_MESSAGE(message_id=7987*)
    → "We try our best to have everyone in the city get the most out of life. We hold grand events, cheer soldiers up on the battlefield, and constantly cook up new ways to entertain Adoulinians! Come get some assignments from us if you want to see more of what we're about."
 12: 0x008F [0x23] WAIT_FOR_DIALOG_INTERACTION
 13: 0x0090 [0x1D] PRINT_EVENT_MESSAGE(message_id=7988*)
    → "...Ooor drop by and play one of our games the next time you want to have some fun.t"
 14: 0x0093 [0x23] WAIT_FOR_DIALOG_INTERACTION
 15: 0x0094 [0x66] LOAD_EXT_SCHEDULER_MAIN: Load scheduler "tlb1" with entities [EventEntity, EventEntity], work=13*
 16: 0x00A3 [0x21] END_EVENT
 17: 0x00A4 [0x00] END_REQSTACK()
```

### Event 5146

#### Metadata

| Field        | Value   |
|--------------|---------|
| Entrypoint   | 0x00A5  |
| Data Size    | 1 bytes |
| Instructions | 1       |

```
      00 01 02 03 04 05 06 07  08 09 0A 0B 0C 0D 0E 0F
      -- -- -- -- -- -- -- --  -- -- -- -- -- -- -- --
00A0:                00                                      .          
```

#### Opcodes

```
  0: 0x00A5 [0x00] END_REQSTACK()
```
