# 17825853 - Civil Registrar

## Common Data

| Field            | Value                     |
|------------------|---------------------------|
| Zone             | Western Adoulin (ID: 256) |
| Block Size       | 5612 bytes                |
| Total Events     | 2                         |
| References Count | 104                       |

## List of Events

| Event ID              | Entrypoint   |   Size |   Instructions |
|-----------------------|--------------|--------|----------------|
| [65535](#event-65535) | 0x0000       |      1 |              1 |
| [2015](#event-2015)   | 0x0001       |   5170 |           1059 |

## DAT References (imed_data)

|   Index | Hex Value   |   Dec Value |
|---------|-------------|-------------|
|       0 | 0x0002      |           2 |
|       1 | 0x0008      |           8 |
|       2 | 0x000F      |          15 |
|       3 | 0x1D01      |        7425 |
|       4 | 0x1D02      |        7426 |
|       5 | 0x0000      |           0 |
|       6 | 0x1D03      |        7427 |
|       7 | 0x1D04      |        7428 |
|       8 | 0x1D05      |        7429 |
|       9 | 0x0001      |           1 |
|      10 | 0x1D06      |        7430 |
|      11 | 0x1D07      |        7431 |
|      12 | 0x1D08      |        7432 |
|      13 | 0x1D09      |        7433 |
|      14 | 0x1D0A      |        7434 |
|      15 | 0x1D0B      |        7435 |
|      16 | 0x0003      |           3 |
|      17 | 0x1D0C      |        7436 |
|      18 | 0x1D0D      |        7437 |
|      19 | 0x1D0E      |        7438 |
|      20 | 0x0004      |           4 |
|      21 | 0x1D0F      |        7439 |
|      22 | 0x1D10      |        7440 |
|      23 | 0x1D11      |        7441 |
|      24 | 0x0005      |           5 |
|      25 | 0x1D12      |        7442 |
|      26 | 0x1D13      |        7443 |
|      27 | 0x1D14      |        7444 |
|      28 | 0x1D15      |        7445 |
|      29 | 0x0006      |           6 |
|      30 | 0x1D16      |        7446 |
|      31 | 0x006E      |         110 |
|      32 | 0x0007      |           7 |
|      33 | 0x1D17      |        7447 |
|      34 | 0x1D18      |        7448 |
|      35 | 0x1D1F      |        7455 |
|      36 | 0x0009      |           9 |
|      37 | 0x000A      |          10 |
|      38 | 0x000B      |          11 |
|      39 | 0x000C      |          12 |
|      40 | 0x1D26      |        7462 |
|      41 | 0x1D27      |        7463 |
|      42 | 0x1D28      |        7464 |
|      43 | 0x1D29      |        7465 |
|      44 | 0x1D2A      |        7466 |
|      45 | 0x1D2B      |        7467 |
|      46 | 0x1D2C      |        7468 |
|      47 | 0x1D2D      |        7469 |
|      48 | 0x1D2E      |        7470 |
|      49 | 0x1D2F      |        7471 |
|      50 | 0x1D30      |        7472 |
|      51 | 0x1D31      |        7473 |
|      52 | 0x1D32      |        7474 |
|      53 | 0x1D33      |        7475 |
|      54 | 0x1D34      |        7476 |
|      55 | 0x1D35      |        7477 |
|      56 | 0x1D36      |        7478 |
|      57 | 0x1D37      |        7479 |
|      58 | 0x1D38      |        7480 |
|      59 | 0x1D39      |        7481 |
|      60 | 0x1D3A      |        7482 |
|      61 | 0x1D3B      |        7483 |
|      62 | 0x1D3C      |        7484 |
|      63 | 0x1D3D      |        7485 |
|      64 | 0x1D3E      |        7486 |
|      65 | 0x1D3F      |        7487 |
|      66 | 0x1D40      |        7488 |
|      67 | 0x000D      |          13 |
|      68 | 0x1D41      |        7489 |
|      69 | 0x1D42      |        7490 |
|      70 | 0x1D4F      |        7503 |
|      71 | 0x1D50      |        7504 |
|      72 | 0x1D51      |        7505 |
|      73 | 0x1D52      |        7506 |
|      74 | 0x1D19      |        7449 |
|      75 | 0x1D1A      |        7450 |
|      76 | 0x1D1B      |        7451 |
|      77 | 0x1D1C      |        7452 |
|      78 | 0x1D1D      |        7453 |
|      79 | 0x1D1E      |        7454 |
|      80 | 0x1D20      |        7456 |
|      81 | 0x1D21      |        7457 |
|      82 | 0x1D22      |        7458 |
|      83 | 0x1D23      |        7459 |
|      84 | 0x1D24      |        7460 |
|      85 | 0x1D25      |        7461 |
|      86 | 0x1D43      |        7491 |
|      87 | 0x1D44      |        7492 |
|      88 | 0x1D45      |        7493 |
|      89 | 0x1D46      |        7494 |
|      90 | 0x1D47      |        7495 |
|      91 | 0x1D48      |        7496 |
|      92 | 0x1D49      |        7497 |
|      93 | 0x1D4A      |        7498 |
|      94 | 0x1D4B      |        7499 |
|      95 | 0x1D4C      |        7500 |
|      96 | 0x1D4D      |        7501 |
|      97 | 0x1D4E      |        7502 |
|      98 | 0x0010      |          16 |
|      99 | 0x0013      |          19 |
|     100 | 0x0014      |          20 |
|     101 | 0x0017      |          23 |
|     102 | 0x0018      |          24 |
|     103 | 0x001B      |          27 |

## String References

- **7425**: [Why, hello there, my dear pioneer!/Good day to you./Hello, pioneer./Welcome to our establishmentaru!/I hope you're having a marvelous-warvelous day!/Welcome back!] Is there anything you'd like to know about the [Pioneers'/Peacekeepers'/Couriers'/Scouts'/Inventors'/Mummers'] Coalition?
- **7426**: What would you like to know about? [The [Pioneers'/Peacekeepers'/Couriers'/Scouts'/Inventors'/Mummers'] Coalition's role./The state of the [Pioneers'/Peacekeepers'/Couriers'/Scouts'/Inventors'/Mummers'] Coalition./Types of coalition assignments./Current expansion plans./Coalition referendum support./Your current standing./Nothing.]
- **7427**: The Pioneers' Coalition contributes to the colonization effort mainly by cultivating uninhabitable territory and preparing the necessary resources to do so.
- **7428**: It would take no stretch of the imagination to say that our coalition is the standard-bearer for the whole movement, what with all the brave young men and women that swell our ranks.
- **7429**: The maester who leads our family of settlers is Lhe Lhangavo from the Order of Karieyh. She's possibly the most passionate of any order leader, and certainly one of the most caring. She's always looking out for her subordinates.
- **7430**: The Peacekeepers' Coalition has the most self-explanatory name I'm sure you've ever heard. We work towards making Adoulin a safer place.
- **7431**: We're composed of only the most dedicated and dutiful individuals--people willing to give their lives to protect this town and its populace.
- **7432**: The great--though often grumpy--Gratzigg is our maester, but despite his sour demeanor, he's the most loyal of anyone in the Twelve Orders. His love for Adoulin has saved it from utter despair more times than I care to remember.
- **7433**: The Couriers' Coalition does its part by transporting supplies to the front lines. We also ensure the integrity of every shipment's cargo.
- **7434**: We're very punctual and really strict about getting our deliveries right. We have the reputation of being uptight because of it, but it's those qualities that keep the pioneering movement going.
- **7435**: Reginald serves as our maester. He may not be the most talkative person you've ever met, but just try to find a more gentlemanly gentleman among the Twelve Orders.
- **7436**: The Scouts' Coalition gathers intelligence from all over the continentaru and analyzes unknown materials to further the colonization movement.
- **7437**: The knowledge our coalition accrues, coupled-woupled with our innate knack for careful archival supervision, makes us indispensable in this era.
- **7438**: Our maestaru, Margret, belongs to the Order of Haverton. Her sheer brilliance-williance makes appetizers out of even the most difficult problems, so it's no wonder that she is seen as one of the greatest minds in Adoulin.
- **7439**: The Inventors' Coalition mainly supportarus pioneers and the colonization of Ulbuka through the development of tools and equipment.
- **7440**: We provide an economic foundation-wation for the city and the pioneering movement by using the materials pioneers bring us to create new foodstuffs that can last an ocean voyage, along with new articles to outfitaru explorers.
- **7441**: Our maester is the one-and-only Amchuchu from the Order of Orvail. Her skills and mind are more renowned than possibly any other maester in Adoulin's history-wistory, making her one of our most talented technicians.
- **7442**: The number one concern for the Mummers' Coalition is pioneer morale.
- **7443**: It may seem like all we do is spout japes and cavort about, but there is a method to our apparent madness. Soothing the spirits of pioneers has a proven economic benefit, so expect to see Mummer-sponsored events for some time to come.
- **7444**: Flaviria from the Order of Thurandaut heads our troupe, and I've never seen anyone who can spin a yarn or tell a joke quite like her. It's obvious that someone with her personality would be loved by both the nobility and common folk.
- **7445**: The [Pioneers'/Peacekeepers'/Couriers'/Scouts'/Inventors'/Mummers'] Coalition is currently rank number $1.
- **7446**: According to the most recent surveys, this coalition [is a blight on the city./is nothing to write home about./isn't half bad./is expanding nicely./is a credit to the city./puts others to shame!/is a paragon of prosperity!] [You might want to try to remedy that./Keep trying./Your efforts are starting to pay off./That said, you're still only halfway to the top./Feel free to gloat about your accomplishments./I hope you're not afraid of heights, because you're incredibly close to the top!/How's the view from the top? Great? Then keep up the excellent work!]
- **7447**: You've all been [abysmal/uninspiring/decent/remarkable/positively miraculous] at accomplishing your coalition assignments. Our coalition's rank [will almost certainly fall/may fall/will probably stay about the same/might rise/will almost certainly rise] after the next evaluation.
- **7448**: You want to know about the services offered by the [Pioneers'/Peacekeepers'/Couriers'/Scouts'/Inventors'/Mummers'] Coalition? Well, we offer[.../ nothing at the moment. Sorry.]
- **7449**: [- Gathering Goods/- Gathering Goods II/- Gathering Equipment/- Gathering Technique Knowledge/- Colonization Support Provisions/- Gathering Goods III/- Gathering Equipment II/- Colonization Support Provisions II/- Gathering Technique Knowledge II][/ and our overly cheerful trailblazing attitude...not that the last is really a service./nothing at this time.]
- **7450**: [- Traditional Armor/- Traditional Weaponry/- Traditional Armor II/- Frontline Provisions/- Traditional Weaponry II/- Traditional Armor III/- Traditional Armor IV/- Traditional Armor V/- Traditional Armor VI][/ and our usual killjoy meddling...if you call that a service./no services at this time.]
- **7451**: [- Travel Assistance Provisions/- Temporary Warp Runes/- Town Movement Speed Enhancement/- Delivery Personnel Increase/- Kinetic Unit Cost Adjustment/- Temporary Warp Runes II/- Town Movement Speed Enhancement II/- Delivery Personnel Increase II/- Kinetic Unit Cost Adjustment II][/ and our compulsive attention to the time...if you can even call that a service./no services at this time.]
- **7452**: [- Maps/- Map Marking/- Colonization Intelligence/- Ergon Locus Intelligence/- Library Cards/- Map Marking II/- Spoils of War Intelligence/- Ergon Locus Intelligence II/- Spoils of War Intelligence II][/ and our absolutely incessant snooping...if you're into that kinda thing./no services at this time.]
- **7453**: [- Ergon Tinctures/- Synthesis Support Provisions/- Arcane Glyptics Price Reduction/- Arcane Glyptics Materials/- Growth Agents and Materials/- Synthesis Support Provisions II/- Arcane Glyptics Price Reduction II/- Growth Agents and Materials Price Reduction/- Travel Provisions][/ and our annual Girls of Science calendar...if you can get your hands on a copy./no services at this time.]
- **7454**: [- Guess That Number (Game)/- Boom or Bust (Game)/- On The Dot (Game)/- Cascade (Game)/- Mummers' Medal Prizes/- Box of Fortune (Game)/- Mummers' Medal Prizes II/- Mummers' Medal Prizes III/- Three-Card Circus (Game)][/ and our usual array of god-awful puns...if you can stand that particular service./no services at this time.]
- **7455**: Based on the expansion of the [Pioneers'/Peacekeepers'/Couriers'/Scouts'/Inventors'/Mummers'] Coalition, Ionis provides[.../ no additional benefits.]
- **7456**: [/- Minor Attack Enhancement/- Minor Magic Attack Bonus/- Minor Gathering Fatigue Reduction/- Minor Gathering Efficacy Enhancement/- Moderate Attack Enhancement/- Moderate Magic Attack Bonus/- Moderate Gathering Fatigue Reduction /- Moderate Gathering Efficacy Enhancement][/ in addition to its normal benefits./no additional benefits.]
- **7457**: [/- Minor Defense Enhancement/- Minor Magic Defense Bonus/- Minor HP and MP Recovery Enhancement/- Minor Enhancement to Max HP and MP/- Moderate Defense Enhancement/- Moderate Magic Defense Bonus/- Moderate HP and MP Recovery Enhancement/- Moderate Enhancement to Max HP and MP][/ in addition to its normal benefits./no additional benefits.]
- **7458**: [/- Minor Accuracy and Magic Accuracy Enhancement/- Minor Evasion and Magic Evasion Enhancement/- Minor Critical Hit Rate Increase/- Minor Haste Effect/- Moderate Accuracy and Magic Accuracy Enhancement/- Moderate Evasion and Magic Evasion Enhancement/- Moderate Critical Hit Rate Increase/- Moderate Haste Effect][/ in addition to its normal benefits./no additional benefits.]
- **7459**: [/- Minor Save TP Effect/- Minor Conserve MP Effect/- Minor Fast Cast Effect/- Minor Resistance Increase to All Status Ailments/- Moderate Save TP Effect/- Moderate Conserve MP Effect/- Moderate Fast Cast Effect/- Moderate Resistance Increase to All Status Ailments][/ in addition to its normal benefits./no additional benefits.]
- **7460**: [/- Minor Crystal Obtainment Rate Increase/- Minor Material Loss Rate Reduction/- Minor Synthesis Skill Gain Rate Increase/- Minor Synthesis Success Rate Increase/- Moderate Crystal Obtainment Rate Increase/- Moderate Material Loss Rate Reduction/- Moderate Synthesis Skill Gain Rate Increase/- Moderate Synthesis Success Rate Increase][/ in addition to its normal benefits./no additional benefits.]
- **7461**: [/- Minor Combat Skill Gain Rate Increase/- Minor Magic Skill Gain Rate Increase/- Minor Experience Point Bonus/- Minor Reward Obtainment Rate Increase/- Moderate Combat Skill Gain Rate Increase/- Moderate Magic Skill Gain Rate Increase/- Moderate Experience Point Bonus/- Moderate Reward Obtainment Rate Increase][/ in addition to its normal benefits./no additional benefits.]
- **7462**: What assignments will you ask about? [Procuring resources./Clearing the way./Preserving the peace./Patrols./Base provisions./Delivering supplies./Frontline support./Land surveys./Component analysis./Gathering materials./Recovering lost articles./Behavioral research./Morale boosting./Nothing.]
- **7463**: Head out into the world and gather vital pioneering resources via methods such as mining and logging. Simply purchasing the supplies tells the coalition nothing of your abilities, however, and those who do will receive no remuneration.
- **7464**: It may seem like a thankless job, but the erection of coalition expansions and frontier stations demands constant provisioning, so it is not a task to be taken lightly.
- **7465**: Natural obstacles pop up from time to time, and pioneers are often asked to engage in a bit of bushwhacking to clear them away so the colonization movement can proceed. The only way to be officially recognized for such feats, though, is by participating in Colonization Reives.
- **7466**: The perils are aptly named, for many pioneers have fallen in attempts to rid the land of them. So many, in fact, that Maester Lhangavo was bereft of a few fur clumps for some time worrying over the issue.
- **7467**: Peace in Adoulin is a precarious thing. Fiends could assault the city at any moment, which is why we need to nip this problem in the bud. Join Lair Reives to eliminate their breeding grounds and contribute to the colonization effort.
- **7468**: If only the instinct to rebuild their homes were not so engrained in these hellions, life would be much easier for us. Sadly, you'll need to participate in these reives periodically in order to keep Ulbuka habitable.
- **7469**: While the Peacekeepers' Coalition often makes its rounds in the city itself, these patrols will take you to specific jungle locales for the express purpose of culling unwanted pests. Make sure to slay your quota, though, or you won't receive any recognition for your deeds.
- **7470**: Give Adoulin's population some peace of mind by embarking on these expeditions every so often. Also, rumors about far more terrifying beasts are likely to surface the further we progress into Ulbuka's interior, but as long as you stick to your duties, you should have no reason to fear them.
- **7471**: For these assignments, you'll need to transport provisions to the sites of future frontier stations. You can now use waypoints and still receive commendations, but be prepared to hear stories about "back in my day, we had to walk all the way out and back on our own two feet," from some wily veterans.
- **7472**: Frontier stations are paramount to sustaining the colonization effort. Tasks of greater magnitude can't even begin without one, so building these structures should always be a priority.
- **7473**: You will sometimes be charged with carrying supplies from specific frontier stations to the Couriers' Coalition.
- **7474**: By supplies, I mean ones obtained in the jungle through pioneering. Yes, acting as a beast of burden may not be the most glamorous duty, but it is a vital one if we're to improve the coalitions and keep Adoulin economically stable.
- **7475**: The most effective way of supporting those risking their lives on the front lines is by supplying designated frontier bivouacs with the necessary provisions. While it may go against previous Couriers' Coalition policy, the use of waypoints is henceforth permitted on this type of assignment.
- **7476**: Truth be told, frontier bivouacs are not as developed as their station counterparts, but they still play an important role in the colonization of the continent. If they don't receive provisions regularly, our supply lines to the stations will wither and die.
- **7477**: Travel to places unknown in search of ergon loci, areas overflowing with natural energy. While some say it's the journey--not the destination--that matters, failing to survey even a single locus will leave you both depleted of energy and empty-handed.
- **7478**: The potency of an ergon tincture is highly dependent upon the strength of the ergon locus from which it's extracted, so a thorough investigation must be made into each location if we're to successfully use this trump card we've created.
- **7479**: Completion of these assignments means providing the Scouts' Coalition--and no others, for they are the only ones to possess the proper facilities--with unique and extraordinary materials from certain territories.
- **7480**: The jungle is teeming with obscure and unfamiliar substances, and from them we hope to derive more powerful and effective materials with which to aid the colonization effort. Science waits for no man, however, and without periodic deliveries of new samples, our research will stagnate.
- **7481**: The proper equipment and tools are instrumental in the colonization movement's progress--and the Inventors' Coalition apparently wants to be the one to corner the market.
- **7482**: While the Inventors' Coalition doesn't particularly care how you obtain what they ask for once you're in the specified location, they are quite picky about the number you obtain and the fact that you can't deliver to anyone else.
- **7483**: Pioneers are an intrepid band of adventurers, but the nature of their trade makes them prone to losing personal effects. Pick up any lost articles in the territory to which you are dispatched and return for a reward along with a pat on the back.
- **7484**: This is probably the least garish service the Mummers' Coalition provides, but it's one for which pioneers throughout Adoulin are eternally grateful.
- **7485**: Though they may not be the friendliest of Ulbuka's inhabitants, that doesn't mean the fiends who populate the continent can't teach us a thing or two. Research designated beasts by personally experiencing their special attacks and report what they taught you...if you live to tell the tale.
- **7486**: The Mummers' Coalition is constantly searching for its muse in all manner of sources, one being the myriad monsters scattered throughout the jungle. Investigating monsters' behavior may be just the inspiration they need to concoct new dances, gags, and events!
- **7487**: The isolation of the frontier can eat at even the most independent of us, which is why it's important to give our pioneers something to cheer about. Head to specified frontier stations and lift the spirits of the workers there! Just remember that if they don't smile, you don't get rewarded.
- **7488**: Dance, sing, shout, or generally make a fool of yourself. It doesn't matter how you do it, as long as you can make them laugh and forget their cares for a few moments.
- **7489**: This coalition is edified as much as possible, and therefore we have no plans to expand.
- **7490**: Which plan do you want to learn about? [Coalition flag./Signboard./Emblem./Second floor./Adoulinian flag./Main terrace./Bay roof./Main chimney./None.]
- **7491**: If the [/coalition flag/signboard/emblem/second floor/Adoulinian flag/main terrace/bay roof/main chimney] expansion plan succeeds, the staff in charge of [Gathering Goods/Gathering Goods II/Gathering Equipment/Gathering Technique Knowledge/Colonization Support Provisions/Gathering Goods III/Gathering Equipment II/Colonization Support Provisions II/Gathering Technique Knowledge II] will [increase in number/expand throughout the continent/provide additional services/be more successful].
- **7492**: Further, Ionis effects will expand to include [/Minor Attack Enhancement/Minor Magic Attack Bonus/Minor Gathering Fatigue Reduction/Minor Gathering Efficacy Enhancement/Moderate Attack Enhancement/Moderate Magic Attack Bonus/Moderate Gathering Fatigue Reduction/Moderate Gathering Efficacy Enhancement].
- **7493**: If the [/coalition flag/signboard/emblem/second floor/Adoulinian flag/main terrace/bay roof/main chimney] expansion plan succeeds, the staff in charge of [Traditional Armor/Traditional Weaponry/Traditional Armor II/Frontline Provisions/Traditional Weaponry II/Traditional Armor III/Traditional Armor IV/Traditional Armor V/Traditional Armor VI] will [increase in number/expand throughout the continent/provide additional services/be more successful].
- **7494**: Further, Ionis effects will expand to include [/Minor Defense Enhancement/Minor Magic Defense Bonus/Minor HP and MP Recovery Enhancement/Minor Enhancement to Max HP and MP/Moderate Defense Enhancement/Moderate Magic Defense Bonus/Moderate HP and MP Recovery Enhancement/Moderate Enhancement to Max HP and MP].
- **7495**: If the [/coalition flag/signboard/emblem/second floor/Adoulin flag/main terrace/bay roof/main chimney] expansion plan succeeds, the staff in charge of [Travel Assistance Provisions/Temporary Warp Runes/Town Movement Speed Enhancement/Delivery Personnel Increase/Kinetic Unit Cost Adjustment/Temporary Warp Runes II/Town Movement Speed Enhancement II/Delivery Personnel Increase II/Kinetic Unit Cost Adjustment II] will [increase in number/expand throughout the continent/provide additional services/be more successful].
- **7496**: Further, Ionis effects will expand to include [/Minor Accuracy and Magic Accuracy Enhancement/Minor Evasion and Magic Evasion Enhancement/Minor Critical Hit Rate Increase/Minor Haste Effect/Moderate Accuracy and Magic Accuracy Enhancement/Moderate Evasion and Magic Evasion Enhancement/Moderate Haste Effect].
- **7497**: If the [/coalition flag/signboard/emblem/second floor/Adoulinian flag/main terrace/bay roof/main chimney] expansion plan succeeds, the staff in charge of [Maps/Map Marking/Colonization Intelligence/Ergon Locus Intelligence/Library Cards/Map Marking II/Spoils of War Intelligence/Ergon Locus Intelligence II/Spoils of War Intelligence II] will [increase in number/expand throughout the continent/provide additional services/be more successful].
- **7498**: Further, Ionis effects will expand to include [/Minor Save TP Effect/Minor Conserve MP Effect/Minor Fast Cast Effect/Minor Resistance Increase to All Status Ailments/Moderate Save TP Effect/Moderate Conserve MP Effect/Moderate Fast Cast Effect/Moderate Resistance Increase to All Status Ailments].
- **7499**: If the [/coalition flag/signboard/emblem/second floor/Adoulinian flag/main terrace/bay roof/main chimney] expansion plan succeeds, the staff in charge of [Ergon Tinctures/Synthesis Support Provisions/Arcane Glyptics Price Reduction/Arcane Glyptics Materials/Growth Agents and Materials/Synthesis Support Provisions II/Arcane Glyptics Price Reduction II/Growth Agents and Materials Price Reduction/Travel Provisions] will [increase in number/expand throughout the continent/provide additional services/be more successful].
- **7500**: Further, Ionis effects will expand to include [/Minor Crystal Obtainment Rate Increase/Minor Material Loss Rate Reduction/Minor Synthesis Skill Gain Rate Increase/Minor Synthesis Success Rate Increase/Moderate Crystal Obtainment Rate Increase/Moderate Material Loss Rate Reduction/Moderate Synthesis Skill Gain Rate Increase/Moderate Synthesis Success Rate Increase].
- **7501**: If the [/coalition flag/signboard/emblem/second floor/Adoulinian flag/main terrace/bay roof/main chimney] expansion plan succeeds, the staff in charge of [Guess That Number (Game)/Boom or Bust (Game)/On The Dot (Game)/Cascade (Game)/Mummers' Medal Prizes/Box of Fortune (Game)/Mummers' Medal Prizes II/Mummers' Medal Prizes III/Three-Card Circus (Game)] will [increase in number/expand throughout the continent/provide additional services/be more successful].
- **7502**: Further, the Ionis effects will expand to include [/Minor Combat Skill Gain Rate Increase Minor Magic Skill Gain Rate Increase/Minor Experience Point Bonus/Minor Reward Obtainment Rate Increase/Moderate Combat Skill Gain Rate Increase/Moderate Magic Skill Gain Rate Increase/Moderate Experience Point Bonus/Moderate Reward Obtainment Rate Increase].
- **7503**: The structure most members want to see added to the [Pioneers'/Peacekeepers'/Couriers'/Scouts'/Inventors'/Mummers'] Coalition is...
- **7504**: A[ coalition flag/ signboard/n emblem/ second floor/n Adoulinian flag/ main terrace/ bay roof/ main chimney]! [It leads by default since there aren't any other proposals./Many more people have voted for it than any other structure./A good number of people have chosen it over the other options./Not by much, however.]
- **7505**: Your contributions to the [Pioneers'/Peacekeepers'/Couriers'/Scouts'/Inventors'/Mummers'] Coalition have earned you the title of...
- **7506**: [Pioneer/Peacekeeper/Courier/Scout/Inventor/Mummer] [Petitioner/Probationer/Disciple/Contributor/Partner/Advisor/Magnate/Legend]! [You're off to a swell start!/Congratulations, but you're not out of the woods yet./They've given you their trust. Now it's time to prove they were right to do so!/You're in the position to start making a big difference in Adoulin!/Talent flows unabated from your every pore!/Other pioneers must trample each other seeking your sage advice./One could very well say that the colonization effort revolves around you!/Your exploits will surely be etched in the annals of this continent's history!]

## Events

### Event 65535

#### Metadata

| Field        | Value   |
|--------------|---------|
| Entrypoint   | 0x0000  |
| Data Size    | 1 bytes |
| Instructions | 1       |

```
      00 01 02 03 04 05 06 07  08 09 0A 0B 0C 0D 0E 0F
      -- -- -- -- -- -- -- --  -- -- -- -- -- -- -- --
0000: 00                                                .               
```

#### Opcodes

```
  0: 0x0000 [0x00] END_REQSTACK()
```

### Event 2015

#### Metadata

| Field        | Value      |
|--------------|------------|
| Entrypoint   | 0x0001     |
| Data Size    | 5170 bytes |
| Instructions | 959        |

```
      00 01 02 03 04 05 06 07  08 09 0A 0B 0C 0D 0E 0F
      -- -- -- -- -- -- -- --  -- -- -- -- -- -- -- --
0000:    03 00 00 00 80 03 04  00 02 10 03 05 00 03 10   ...............
0010: 03 06 00 04 10 41 01 80  02 80 06 00 07 00 03 08  .....A..........
0020: 00 05 10 03 0C 00 06 10  1E F0 FF FF 7F 6F 70 03  .............op.
0030: 02 10 00 00 1D 03 80 23  03 02 10 00 00 24 04 80  .......#.....$..
0040: 05 80 05 80 25 02 00 10  05 80 00 DD 00 02 00 00  ....%...........
0050: 05 80 80 64 00 1D 06 80  23 1D 07 80 23 1D 08 80  ...d....#...#...
0060: 23 01 D7 00 02 00 00 09  80 80 7B 00 1D 0A 80 23  #.........{....#
0070: 1D 0B 80 23 1D 0C 80 23  01 D7 00 02 00 00 00 80  ...#...#........
0080: 80 92 00 1D 0D 80 23 1D  0E 80 23 1D 0F 80 23 01  ......#...#...#.
0090: D7 00 02 00 00 10 80 80  A9 00 1D 11 80 23 1D 12  .............#..
00A0: 80 23 1D 13 80 23 01 D7  00 02 00 00 14 80 80 C0  .#...#..........
00B0: 00 1D 15 80 23 1D 16 80  23 1D 17 80 23 01 D7 00  ....#...#...#...
00C0: 02 00 00 18 80 80 D7 00  1D 19 80 23 1D 1A 80 23  ...........#...#
00D0: 1D 1B 80 23 01 D7 00 01  38 00 01 37 0C 02 00 10  ...#....8..7....
00E0: 09 80 00 F3 04 03 02 10  00 00 03 03 10 04 00 1D  ................
00F0: 1C 80 23 03 04 10 04 00  02 04 10 1D 80 02 05 01  ..#.............
0100: 03 04 10 1D 80 1D 1E 80  23 03 01 00 1F 80 02 04  ........#.......
0110: 00 05 80 80 1E 01 14 01  00 05 80 01 9E 01 02 04  ................
0120: 00 09 80 80 2E 01 14 01  00 09 80 01 9E 01 02 04  ................
0130: 00 00 80 80 3E 01 14 01  00 00 80 01 9E 01 02 04  ....>...........
0140: 00 10 80 80 4E 01 14 01  00 10 80 01 9E 01 02 04  ....N...........
0150: 00 14 80 80 5E 01 14 01  00 14 80 01 9E 01 02 04  ....^...........
0160: 00 18 80 80 6E 01 14 01  00 18 80 01 9E 01 02 04  ....n...........
0170: 00 1D 80 80 7E 01 14 01  00 1D 80 01 9E 01 02 04  ....~...........
0180: 00 20 80 80 8E 01 14 01  00 20 80 01 9E 01 02 04  . ....... ......
0190: 00 01 80 80 9E 01 14 01  00 01 80 01 9E 01 03 03  ................
01A0: 00 01 00 07 03 00 1F 80  02 05 00 01 00 03 D7 01  ................
01B0: 03 03 00 1F 80 15 03 00  00 80 08 01 00 03 00 02  ................
01C0: 05 00 01 00 03 CF 01 03  05 10 05 80 01 D4 01 03  ................
01D0: 05 10 09 80 01 0B 02 02  05 00 03 00 02 06 02 03  ................
01E0: 01 00 1F 80 15 01 00 00  80 07 03 00 01 00 02 05  ................
01F0: 00 03 00 02 FE 01 03 05  10 14 80 01 03 02 03 05  ................
0200: 10 10 80 01 0B 02 03 05  10 00 80 03 06 10 05 10  ................
0210: 02 04 00 01 80 04 28 02  02 06 10 00 80 02 25 02  ......(.......%.
0220: 03 06 10 00 80 01 3D 02  02 04 00 01 80 04 3D 02  ......=.......=.
0230: 02 06 10 00 80 02 3D 02  03 06 10 00 80 1D 21 80  ......=.......!.
0240: 23 03 01 00 09 80 3E 07  00 05 80 50 02 0B 01 00  #.....>....P....
0250: 3E 07 00 09 80 5A 02 0B  01 00 3E 07 00 00 80 64  >....Z....>....d
0260: 02 0B 01 00 3E 07 00 10  80 6E 02 0B 01 00 3E 07  ....>....n....>.
0270: 00 14 80 78 02 0B 01 00  3E 07 00 18 80 82 02 0B  ...x....>.......
0280: 01 00 3E 07 00 1D 80 8C  02 0B 01 00 3E 07 00 20  ..>.........>.. 
0290: 80 96 02 0B 01 00 02 01  00 05 80 05 B7 02 03 02  ................
02A0: 10 00 00 03 03 10 05 80  1D 22 80 23 03 09 10 05  .........".#....
02B0: 80 1A 39 0C 01 85 03 03  02 10 00 00 03 03 10 05  ..9.............
02C0: 80 1D 22 80 23 03 09 10  05 80 1A 39 0C 3E 07 00  ..".#......9.>..
02D0: 05 80 E4 02 02 01 00 05  80 02 E4 02 03 09 10 09  ................
02E0: 80 1A 39 0C 3E 07 00 09  80 FB 02 02 01 00 05 80  ..9.>...........
02F0: 02 FB 02 03 09 10 00 80  1A 39 0C 3E 07 00 00 80  .........9.>....
0300: 12 03 02 01 00 05 80 02  12 03 03 09 10 10 80 1A  ................
0310: 39 0C 3E 07 00 10 80 29  03 02 01 00 05 80 02 29  9.>....).......)
0320: 03 03 09 10 14 80 1A 39  0C 3E 07 00 14 80 40 03  .......9.>....@.
0330: 02 01 00 05 80 02 40 03  03 09 10 18 80 1A 39 0C  ......@.......9.
0340: 3E 07 00 18 80 57 03 02  01 00 05 80 02 57 03 03  >....W.......W..
0350: 09 10 1D 80 1A 39 0C 3E  07 00 1D 80 6E 03 02 01  .....9.>....n...
0360: 00 05 80 02 6E 03 03 09  10 20 80 1A 39 0C 3E 07  ....n.... ..9.>.
0370: 00 20 80 85 03 02 01 00  05 80 02 85 03 03 09 10  . ..............
0380: 01 80 1A 39 0C 03 01 00  05 80 3E 06 00 05 80 94  ...9......>.....
0390: 03 0B 01 00 3E 06 00 09  80 9E 03 0B 01 00 3E 06  ....>.........>.
03A0: 00 00 80 A8 03 0B 01 00  3E 06 00 10 80 B2 03 0B  ........>.......
03B0: 01 00 3E 06 00 14 80 BC  03 0B 01 00 3E 06 00 18  ..>.........>...
03C0: 80 C6 03 0B 01 00 3E 06  00 1D 80 D0 03 0B 01 00  ......>.........
03D0: 3E 06 00 20 80 DA 03 0B  01 00 02 01 00 05 80 05  >.. ............
03E0: F3 03 03 02 10 00 00 03  03 10 09 80 1D 23 80 23  .............#.#
03F0: 01 ED 04 03 02 10 00 00  03 03 10 05 80 1D 23 80  ..............#.
0400: 23 3E 06 00 05 80 25 04  3E 06 00 14 80 15 04 0C  #>....%.>.......
0410: 01 00 01 25 04 02 01 00  05 80 02 25 04 03 09 10  ...%.......%....
0420: 09 80 1A AC 0C 3E 06 00  09 80 49 04 3E 06 00 18  .....>....I.>...
0430: 80 39 04 0C 01 00 01 49  04 02 01 00 05 80 02 49  .9.....I.......I
0440: 04 03 09 10 00 80 1A AC  0C 3E 06 00 00 80 6D 04  .........>....m.
0450: 3E 06 00 1D 80 5D 04 0C  01 00 01 6D 04 02 01 00  >....].....m....
0460: 05 80 02 6D 04 03 09 10  10 80 1A AC 0C 3E 06 00  ...m.........>..
0470: 10 80 91 04 3E 06 00 20  80 81 04 0C 01 00 01 91  ....>.. ........
0480: 04 02 01 00 05 80 02 91  04 03 09 10 14 80 1A AC  ................
0490: 0C 3E 06 00 14 80 A8 04  02 01 00 05 80 02 A8 04  .>..............
04A0: 03 09 10 18 80 1A AC 0C  3E 06 00 18 80 BF 04 02  ........>.......
04B0: 01 00 05 80 02 BF 04 03  09 10 1D 80 1A AC 0C 3E  ...............>
04C0: 06 00 1D 80 D6 04 02 01  00 05 80 02 D6 04 03 09  ................
04D0: 10 20 80 1A AC 0C 3E 06  00 20 80 ED 04 02 01 00  . ....>.. ......
04E0: 05 80 02 ED 04 03 09 10  01 80 1A AC 0C 01 38 00  ..............8.
04F0: 01 37 0C 02 00 10 00 80  00 1C 08 03 0D 00 05 80  .7..............
0500: 02 00 00 05 80 80 58 05  3C 0D 00 00 80 09 80 3C  ......X.<......<
0510: 0D 00 10 80 09 80 3C 0D  00 14 80 09 80 3C 0D 00  ......<......<..
0520: 18 80 09 80 3C 0D 00 1D  80 09 80 3C 0D 00 20 80  ....<......<.. .
0530: 09 80 3C 0D 00 01 80 09  80 3C 0D 00 24 80 09 80  ..<......<..$...
0540: 3C 0D 00 25 80 09 80 3C  0D 00 26 80 09 80 3C 0D  <..%...<..&...<.
0550: 00 27 80 09 80 01 09 07  02 00 00 09 80 80 B0 05  .'..............
0560: 3C 0D 00 05 80 09 80 3C  0D 00 09 80 09 80 3C 0D  <......<......<.
0570: 00 14 80 09 80 3C 0D 00  18 80 09 80 3C 0D 00 1D  .....<......<...
0580: 80 09 80 3C 0D 00 20 80  09 80 3C 0D 00 01 80 09  ...<.. ...<.....
0590: 80 3C 0D 00 24 80 09 80  3C 0D 00 25 80 09 80 3C  .<..$...<..%...<
05A0: 0D 00 26 80 09 80 3C 0D  00 27 80 09 80 01 09 07  ..&...<..'......
05B0: 02 00 00 00 80 80 01 06  3C 0D 00 05 80 09 80 3C  ........<......<
05C0: 0D 00 09 80 09 80 3C 0D  00 00 80 09 80 3C 0D 00  ......<......<..
05D0: 10 80 09 80 3C 0D 00 20  80 09 80 3C 0D 00 01 80  ....<.. ...<....
05E0: 09 80 3C 0D 00 24 80 09  80 3C 0D 00 25 80 09 80  ..<..$...<..%...
05F0: 3C 0D 00 26 80 09 80 3C  0D 00 27 80 09 80 01 09  <..&...<..'.....
0600: 07 02 00 00 10 80 80 59  06 3C 0D 00 05 80 09 80  .......Y.<......
0610: 3C 0D 00 09 80 09 80 3C  0D 00 00 80 09 80 3C 0D  <......<......<.
0620: 00 10 80 09 80 3C 0D 00  14 80 09 80 3C 0D 00 18  .....<......<...
0630: 80 09 80 3C 0D 00 1D 80  09 80 3C 0D 00 24 80 09  ...<......<..$..
0640: 80 3C 0D 00 25 80 09 80  3C 0D 00 26 80 09 80 3C  .<..%...<..&...<
0650: 0D 00 27 80 09 80 01 09  07 02 00 00 14 80 80 B8  ..'.............
0660: 06 3C 0D 00 05 80 09 80  3C 0D 00 09 80 09 80 3C  .<......<......<
0670: 0D 00 00 80 09 80 3C 0D  00 10 80 09 80 3C 0D 00  ......<......<..
0680: 14 80 09 80 3C 0D 00 18  80 09 80 3C 0D 00 1D 80  ....<......<....
0690: 09 80 3C 0D 00 20 80 09  80 3C 0D 00 01 80 09 80  ..<.. ...<......
06A0: 3C 0D 00 25 80 09 80 3C  0D 00 26 80 09 80 3C 0D  <..%...<..&...<.
06B0: 00 27 80 09 80 01 09 07  02 00 00 18 80 80 09 07  .'..............
06C0: 3C 0D 00 05 80 09 80 3C  0D 00 09 80 09 80 3C 0D  <......<......<.
06D0: 00 00 80 09 80 3C 0D 00  10 80 09 80 3C 0D 00 14  .....<......<...
06E0: 80 09 80 3C 0D 00 18 80  09 80 3C 0D 00 1D 80 09  ...<......<.....
06F0: 80 3C 0D 00 20 80 09 80  3C 0D 00 01 80 09 80 3C  .<.. ...<......<
0700: 0D 00 24 80 09 80 01 09  07 24 28 80 05 80 0D 00  ..$......$(.....
0710: 25 02 00 10 05 80 00 24  07 1D 29 80 23 1D 2A 80  %......$..).#.*.
0720: 23 01 16 08 02 00 10 09  80 00 37 07 1D 2B 80 23  #.........7..+.#
0730: 1D 2C 80 23 01 16 08 02  00 10 00 80 00 4A 07 1D  .,.#.........J..
0740: 2D 80 23 1D 2E 80 23 01  16 08 02 00 10 10 80 00  -.#...#.........
0750: 5D 07 1D 2F 80 23 1D 30  80 23 01 16 08 02 00 10  ]../.#.0.#......
0760: 14 80 00 70 07 1D 31 80  23 1D 32 80 23 01 16 08  ...p..1.#.2.#...
0770: 02 00 10 18 80 00 83 07  1D 33 80 23 1D 34 80 23  .........3.#.4.#
0780: 01 16 08 02 00 10 1D 80  00 96 07 1D 35 80 23 1D  ............5.#.
0790: 36 80 23 01 16 08 02 00  10 20 80 00 A9 07 1D 37  6.#...... .....7
07A0: 80 23 1D 38 80 23 01 16  08 02 00 10 01 80 00 BC  .#.8.#..........
07B0: 07 1D 39 80 23 1D 3A 80  23 01 16 08 02 00 10 24  ..9.#.:.#......$
07C0: 80 00 CF 07 1D 3B 80 23  1D 3C 80 23 01 16 08 02  .....;.#.<.#....
07D0: 00 10 25 80 00 E2 07 1D  3D 80 23 1D 3E 80 23 01  ..%.....=.#.>.#.
07E0: 16 08 02 00 10 26 80 00  F5 07 1D 3F 80 23 1D 40  .....&.....?.#.@
07F0: 80 23 01 16 08 02 00 10  27 80 00 08 08 1D 41 80  .#......'.....A.
0800: 23 1D 42 80 23 01 16 08  02 00 10 43 80 00 16 08  #.B.#......C....
0810: 01 38 00 01 16 08 01 FB  04 01 37 0C 02 00 10 10  .8........7.....
0820: 80 00 4B 0B 03 0D 00 05  80 02 04 00 05 80 80 57  ..K............W
0830: 08 3C 0D 00 10 80 09 80  3C 0D 00 14 80 09 80 3C  .<......<......<
0840: 0D 00 18 80 09 80 3C 0D  00 1D 80 09 80 3C 0D 00  ......<......<..
0850: 20 80 09 80 01 6F 0A 02  04 00 09 80 80 AF 08 3E   ....o.........>
0860: 06 00 05 80 6D 08 3C 0D  00 05 80 09 80 3E 06 00  ....m.<......>..
0870: 09 80 7B 08 3C 0D 00 09  80 09 80 3E 06 00 00 80  ..{.<......>....
0880: 89 08 3C 0D 00 00 80 09  80 3C 0D 00 10 80 09 80  ..<......<......
0890: 3C 0D 00 14 80 09 80 3C  0D 00 18 80 09 80 3C 0D  <......<......<.
08A0: 00 1D 80 09 80 3C 0D 00  20 80 09 80 01 6F 0A 02  .....<.. ....o..
08B0: 04 00 00 80 80 07 09 3E  06 00 05 80 C5 08 3C 0D  .......>......<.
08C0: 00 05 80 09 80 3E 06 00  09 80 D3 08 3C 0D 00 09  .....>......<...
08D0: 80 09 80 3E 06 00 00 80  E1 08 3C 0D 00 00 80 09  ...>......<.....
08E0: 80 3C 0D 00 10 80 09 80  3C 0D 00 14 80 09 80 3C  .<......<......<
08F0: 0D 00 18 80 09 80 3C 0D  00 1D 80 09 80 3C 0D 00  ......<......<..
0900: 20 80 09 80 01 6F 0A 02  04 00 10 80 80 43 09 3C   ....o.......C.<
0910: 0D 00 05 80 09 80 3C 0D  00 09 80 09 80 3C 0D 00  ......<......<..
0920: 00 80 09 80 3C 0D 00 14  80 09 80 3C 0D 00 18 80  ....<......<....
0930: 09 80 3C 0D 00 1D 80 09  80 3C 0D 00 20 80 09 80  ..<......<.. ...
0940: 01 6F 0A 02 04 00 14 80  80 71 09 3C 0D 00 05 80  .o.......q.<....
0950: 09 80 3C 0D 00 09 80 09  80 3C 0D 00 00 80 09 80  ..<......<......
0960: 3C 0D 00 10 80 09 80 3C  0D 00 20 80 09 80 01 6F  <......<.. ....o
0970: 0A 02 04 00 18 80 80 C9  09 3C 0D 00 05 80 09 80  .........<......
0980: 3C 0D 00 09 80 09 80 3C  0D 00 00 80 09 80 3C 0D  <......<......<.
0990: 00 10 80 09 80 3E 06 00  14 80 A3 09 3C 0D 00 14  .....>......<...
09A0: 80 09 80 3E 06 00 18 80  B1 09 3C 0D 00 18 80 09  ...>......<.....
09B0: 80 3E 06 00 1D 80 BF 09  3C 0D 00 1D 80 09 80 3C  .>......<......<
09C0: 0D 00 20 80 09 80 01 6F  0A 02 04 00 1D 80 80 21  .. ....o.......!
09D0: 0A 3C 0D 00 05 80 09 80  3C 0D 00 09 80 09 80 3C  .<......<......<
09E0: 0D 00 00 80 09 80 3C 0D  00 10 80 09 80 3E 06 00  ......<......>..
09F0: 14 80 FB 09 3C 0D 00 14  80 09 80 3E 06 00 18 80  ....<......>....
0A00: 09 0A 3C 0D 00 18 80 09  80 3E 06 00 1D 80 17 0A  ..<......>......
0A10: 3C 0D 00 1D 80 09 80 3C  0D 00 20 80 09 80 01 6F  <......<.. ....o
0A20: 0A 02 04 00 20 80 80 5D  0A 3C 0D 00 05 80 09 80  .... ..].<......
0A30: 3C 0D 00 09 80 09 80 3C  0D 00 00 80 09 80 3C 0D  <......<......<.
0A40: 00 10 80 09 80 3C 0D 00  14 80 09 80 3C 0D 00 18  .....<......<...
0A50: 80 09 80 3C 0D 00 1D 80  09 80 01 6F 0A 02 04 00  ...<.......o....
0A60: 01 80 80 6F 0A 1D 44 80  23 01 38 00 01 6F 0A 24  ...o..D.#.8..o.$
0A70: 45 80 05 80 0D 00 25 02  00 10 05 80 00 8F 0A 03  E.....%.........
0A80: 09 10 09 80 03 01 00 05  80 1A 1F 0D 01 45 0B 02  .............E..
0A90: 00 10 09 80 00 A7 0A 03  09 10 00 80 03 01 00 09  ................
0AA0: 80 1A 1F 0D 01 45 0B 02  00 10 00 80 00 BF 0A 03  .....E..........
0AB0: 09 10 10 80 03 01 00 00  80 1A 1F 0D 01 45 0B 02  .............E..
0AC0: 00 10 10 80 00 D7 0A 03  09 10 14 80 03 01 00 10  ................
0AD0: 80 1A 1F 0D 01 45 0B 02  00 10 14 80 00 EF 0A 03  .....E..........
0AE0: 09 10 18 80 03 01 00 14  80 1A 1F 0D 01 45 0B 02  .............E..
0AF0: 00 10 18 80 00 07 0B 03  09 10 1D 80 03 01 00 18  ................
0B00: 80 1A 1F 0D 01 45 0B 02  00 10 1D 80 00 1F 0B 03  .....E..........
0B10: 09 10 20 80 03 01 00 1D  80 1A 1F 0D 01 45 0B 02  .. ..........E..
0B20: 00 10 20 80 00 37 0B 03  09 10 01 80 03 01 00 20  .. ..7......... 
0B30: 80 1A 1F 0D 01 45 0B 02  00 10 01 80 00 45 0B 01  .....E.......E..
0B40: 38 00 01 45 0B 01 24 08  01 37 0C 02 00 10 14 80  8..E..$..7......
0B50: 00 FA 0B 02 04 00 01 80  04 65 0B 1D 44 80 23 01  .........e..D.#.
0B60: 38 00 01 F7 0B 02 04 00  01 80 04 77 0B 1D 44 80  8..........w..D.
0B70: 23 01 38 00 01 F7 0B 03  02 10 00 00 1D 46 80 23  #.8..........F.#
0B80: 02 04 00 05 80 80 8E 0B  1A 92 10 01 F0 0B 02 04  ................
0B90: 00 09 80 80 9C 0B 1A 92  10 01 F0 0B 02 04 00 00  ................
0BA0: 80 80 AA 0B 1A 92 10 01  F0 0B 02 04 00 10 80 80  ................
0BB0: B8 0B 1A 98 11 01 F0 0B  02 04 00 14 80 80 C6 0B  ................
0BC0: 1A AD 11 01 F0 0B 02 04  00 18 80 80 D4 0B 1A AD  ................
0BD0: 11 01 F0 0B 02 04 00 1D  80 80 E2 0B 1A AD 11 01  ................
0BE0: F0 0B 02 04 00 20 80 80  F0 0B 1A B3 12 01 F0 0B  ..... ..........
0BF0: 1D 47 80 23 01 38 00 01  37 0C 02 00 10 18 80 00  .G.#.8..7.......
0C00: 2C 0C 03 02 10 00 00 1D  48 80 23 03 02 10 00 00  ,.......H.#.....
0C10: 03 09 10 0C 00 02 09 10  20 80 02 22 0C 03 09 10  ........ .."....
0C20: 20 80 1D 49 80 23 01 38  00 01 37 0C 02 00 10 1D   ..I.#.8..7.....
0C30: 80 00 37 0C 01 37 0C 21  00 0C 01 00 02 01 00 05  ..7..7.!........
0C40: 80 05 4C 0C 03 08 10 09  80 01 51 0C 03 08 10 05  ..L.......Q.....
0C50: 80 02 00 00 05 80 80 60  0C 1D 4A 80 23 01 AB 0C  .......`..J.#...
0C60: 02 00 00 09 80 80 6F 0C  1D 4B 80 23 01 AB 0C 02  ......o..K.#....
0C70: 00 00 00 80 80 7E 0C 1D  4C 80 23 01 AB 0C 02 00  .....~..L.#.....
0C80: 00 10 80 80 8D 0C 1D 4D  80 23 01 AB 0C 02 00 00  .......M.#......
0C90: 14 80 80 9C 0C 1D 4E 80  23 01 AB 0C 02 00 00 18  ......N.#.......
0CA0: 80 80 AB 0C 1D 4F 80 23  01 AB 0C 1B 0C 01 00 02  .....O.#........
0CB0: 01 00 05 80 05 BF 0C 03  08 10 09 80 01 C4 0C 03  ................
0CC0: 08 10 05 80 02 00 00 05  80 80 D3 0C 1D 50 80 23  .............P.#
0CD0: 01 1E 0D 02 00 00 09 80  80 E2 0C 1D 51 80 23 01  ............Q.#.
0CE0: 1E 0D 02 00 00 00 80 80  F1 0C 1D 52 80 23 01 1E  ...........R.#..
0CF0: 0D 02 00 00 10 80 80 00  0D 1D 53 80 23 01 1E 0D  ..........S.#...
0D00: 02 00 00 14 80 80 0F 0D  1D 54 80 23 01 1E 0D 02  .........T.#....
0D10: 00 00 18 80 80 1E 0D 1D  55 80 23 01 1E 0D 1B 02  ........U.#.....
0D20: 00 00 05 80 80 B2 0D 02  01 00 05 80 80 37 0D 03  .............7..
0D30: 08 10 00 80 01 A7 0D 02  01 00 09 80 80 47 0D 03  .............G..
0D40: 08 10 05 80 01 A7 0D 02  01 00 00 80 80 57 0D 03  .............W..
0D50: 08 10 05 80 01 A7 0D 02  01 00 10 80 80 67 0D 03  .............g..
0D60: 08 10 05 80 01 A7 0D 02  01 00 14 80 80 77 0D 03  .............w..
0D70: 08 10 00 80 01 A7 0D 02  01 00 18 80 80 87 0D 03  ................
0D80: 08 10 00 80 01 A7 0D 02  01 00 1D 80 80 97 0D 03  ................
0D90: 08 10 00 80 01 A7 0D 02  01 00 20 80 80 A7 0D 03  .......... .....
0DA0: 08 10 00 80 01 A7 0D 1D  56 80 23 1D 57 80 23 01  ........V.#.W.#.
0DB0: 91 10 02 00 00 09 80 80  45 0E 02 01 00 05 80 80  ........E.......
0DC0: CA 0D 03 08 10 05 80 01  3A 0E 02 01 00 09 80 80  ........:.......
0DD0: DA 0D 03 08 10 00 80 01  3A 0E 02 01 00 00 80 80  ........:.......
0DE0: EA 0D 03 08 10 00 80 01  3A 0E 02 01 00 10 80 80  ........:.......
0DF0: FA 0D 03 08 10 00 80 01  3A 0E 02 01 00 14 80 80  ........:.......
0E00: 0A 0E 03 08 10 00 80 01  3A 0E 02 01 00 18 80 80  ........:.......
0E10: 1A 0E 03 08 10 00 80 01  3A 0E 02 01 00 1D 80 80  ........:.......
0E20: 2A 0E 03 08 10 00 80 01  3A 0E 02 01 00 20 80 80  *.......:.... ..
0E30: 3A 0E 03 08 10 00 80 01  3A 0E 1D 58 80 23 1D 59  :.......:..X.#.Y
0E40: 80 23 01 91 10 02 00 00  00 80 80 D8 0E 02 01 00  .#..............
0E50: 05 80 80 5D 0E 03 08 10  05 80 01 CD 0E 02 01 00  ...]............
0E60: 09 80 80 6D 0E 03 08 10  05 80 01 CD 0E 02 01 00  ...m............
0E70: 00 80 80 7D 0E 03 08 10  09 80 01 CD 0E 02 01 00  ...}............
0E80: 10 80 80 8D 0E 03 08 10  10 80 01 CD 0E 02 01 00  ................
0E90: 14 80 80 9D 0E 03 08 10  00 80 01 CD 0E 02 01 00  ................
0EA0: 18 80 80 AD 0E 03 08 10  10 80 01 CD 0E 02 01 00  ................
0EB0: 1D 80 80 BD 0E 03 08 10  09 80 01 CD 0E 02 01 00  ................
0EC0: 20 80 80 CD 0E 03 08 10  10 80 01 CD 0E 1D 5A 80   .............Z.
0ED0: 23 1D 5B 80 23 01 91 10  02 00 00 10 80 80 6B 0F  #.[.#.........k.
0EE0: 02 01 00 05 80 80 F0 0E  03 08 10 05 80 01 60 0F  ..............`.
0EF0: 02 01 00 09 80 80 00 0F  03 08 10 05 80 01 60 0F  ..............`.
0F00: 02 01 00 00 80 80 10 0F  03 08 10 05 80 01 60 0F  ..............`.
0F10: 02 01 00 10 80 80 20 0F  03 08 10 05 80 01 60 0F  ...... .......`.
0F20: 02 01 00 14 80 80 30 0F  03 08 10 00 80 01 60 0F  ......0.......`.
0F30: 02 01 00 18 80 80 40 0F  03 08 10 05 80 01 60 0F  ......@.......`.
0F40: 02 01 00 1D 80 80 50 0F  03 08 10 00 80 01 60 0F  ......P.......`.
0F50: 02 01 00 20 80 80 60 0F  03 08 10 00 80 01 60 0F  ... ..`.......`.
0F60: 1D 5C 80 23 1D 5D 80 23  01 91 10 02 00 00 14 80  .\.#.].#........
0F70: 80 FE 0F 02 01 00 05 80  80 83 0F 03 08 10 05 80  ................
0F80: 01 F3 0F 02 01 00 09 80  80 93 0F 03 08 10 10 80  ................
0F90: 01 F3 0F 02 01 00 00 80  80 A3 0F 03 08 10 05 80  ................
0FA0: 01 F3 0F 02 01 00 10 80  80 B3 0F 03 08 10 05 80  ................
0FB0: 01 F3 0F 02 01 00 14 80  80 C3 0F 03 08 10 00 80  ................
0FC0: 01 F3 0F 02 01 00 18 80  80 D3 0F 03 08 10 10 80  ................
0FD0: 01 F3 0F 02 01 00 1D 80  80 E3 0F 03 08 10 10 80  ................
0FE0: 01 F3 0F 02 01 00 20 80  80 F3 0F 03 08 10 00 80  ...... .........
0FF0: 01 F3 0F 1D 5E 80 23 1D  5F 80 23 01 91 10 02 00  ....^.#._.#.....
1000: 00 18 80 80 91 10 02 01  00 05 80 80 16 10 03 08  ................
1010: 10 05 80 01 86 10 02 01  00 09 80 80 26 10 03 08  ............&...
1020: 10 05 80 01 86 10 02 01  00 00 80 80 36 10 03 08  ............6...
1030: 10 05 80 01 86 10 02 01  00 10 80 80 46 10 03 08  ............F...
1040: 10 00 80 01 86 10 02 01  00 14 80 80 56 10 03 08  ............V...
1050: 10 05 80 01 86 10 02 01  00 18 80 80 66 10 03 08  ............f...
1060: 10 00 80 01 86 10 02 01  00 1D 80 80 76 10 03 08  ............v...
1070: 10 00 80 01 86 10 02 01  00 20 80 80 86 10 03 08  ......... ......
1080: 10 05 80 01 86 10 1D 60  80 23 1D 61 80 23 01 91  .......`.#.a.#..
1090: 10 1B 41 05 80 10 80 08  00 09 00 41 14 80 20 80  ..A........A.. .
10A0: 08 00 0A 00 41 01 80 26  80 08 00 0B 00 03 02 00  ....A..&........
10B0: 09 80 3E 06 00 05 80 E4  10 3E 06 00 09 80 D7 10  ..>......>......
10C0: 3E 06 00 00 80 CA 10 01  D4 10 03 01 00 0B 00 03  >...............
10D0: 03 00 00 80 01 E1 10 03  01 00 0A 00 03 03 00 09  ................
10E0: 80 01 EE 10 03 01 00 09  00 03 03 00 05 80 3E 06  ..............>.
10F0: 00 05 80 F8 10 01 12 11  02 03 00 05 80 01 12 11  ................
1100: 02 01 00 09 00 03 12 11  03 01 00 09 00 03 03 00  ................
1110: 05 80 3E 06 00 09 80 1C  11 01 36 11 02 03 00 09  ..>.......6.....
1120: 80 01 36 11 02 01 00 0A  00 03 36 11 03 01 00 0A  ..6.......6.....
1130: 00 03 03 00 09 80 3E 06  00 00 80 40 11 01 5A 11  ......>....@..Z.
1140: 02 03 00 00 80 01 5A 11  02 01 00 0B 00 03 5A 11  ......Z.......Z.
1150: 03 01 00 0B 00 03 03 00  00 80 1A C8 12 03 01 00  ................
1160: 05 80 3E 06 00 05 80 6C  11 0B 01 00 3E 06 00 09  ..>....l....>...
1170: 80 76 11 0B 01 00 3E 06  00 00 80 80 11 0B 01 00  .v....>.........
1180: 02 01 00 00 80 04 8D 11  03 02 00 05 80 03 08 10  ................
1190: 03 00 03 09 10 02 00 1B  03 03 00 10 80 03 02 00  ................
11A0: 05 80 03 08 10 03 00 03  09 10 02 00 1B 41 62 80  .............Ab.
11B0: 63 80 08 00 09 00 41 64  80 65 80 08 00 0A 00 41  c.....Ad.e.....A
11C0: 66 80 67 80 08 00 0B 00  03 02 00 09 80 3E 06 00  f.g..........>..
11D0: 14 80 FF 11 3E 06 00 18  80 F2 11 3E 06 00 1D 80  ....>......>....
11E0: E5 11 01 EF 11 03 01 00  0B 00 03 03 00 1D 80 01  ................
11F0: FC 11 03 01 00 0A 00 03  03 00 18 80 01 09 12 03  ................
1200: 01 00 09 00 03 03 00 14  80 3E 06 00 14 80 13 12  .........>......
1210: 01 2D 12 02 03 00 14 80  01 2D 12 02 01 00 09 00  .-.......-......
1220: 03 2D 12 03 01 00 09 00  03 03 00 14 80 3E 06 00  .-...........>..
1230: 18 80 37 12 01 51 12 02  03 00 18 80 01 51 12 02  ..7..Q.......Q..
1240: 01 00 0A 00 03 51 12 03  01 00 0A 00 03 03 00 18  .....Q..........
1250: 80 3E 06 00 1D 80 5B 12  01 75 12 02 03 00 1D 80  .>....[..u......
1260: 01 75 12 02 01 00 0B 00  03 75 12 03 01 00 0B 00  .u.......u......
1270: 03 03 00 1D 80 1A C8 12  03 01 00 05 80 3E 06 00  .............>..
1280: 14 80 87 12 0B 01 00 3E  06 00 18 80 91 12 0B 01  .......>........
1290: 00 3E 06 00 1D 80 9B 12  0B 01 00 02 01 00 00 80  .>..............
12A0: 04 A8 12 03 02 00 05 80  03 08 10 03 00 03 09 10  ................
12B0: 02 00 1B 03 03 00 20 80  03 02 00 05 80 03 08 10  ...... .........
12C0: 03 00 03 09 10 02 00 1B  02 03 00 05 80 80 E3 12  ................
12D0: 03 0E 00 09 00 1A 7E 13  03 0E 00 09 00 1A 91 13  ......~.........
12E0: 01 6A 13 02 03 00 09 80  80 FE 12 03 0E 00 0A 00  .j..............
12F0: 1A 6B 13 03 0E 00 0A 00  1A 91 13 01 6A 13 02 03  .k..........j...
1300: 00 00 80 80 19 13 03 0E  00 0B 00 1A 6B 13 03 0E  ............k...
1310: 00 0B 00 1A 7E 13 01 6A  13 02 03 00 14 80 80 34  ....~..j.......4
1320: 13 03 0E 00 09 00 1A B7  13 03 0E 00 09 00 1A CA  ................
1330: 13 01 6A 13 02 03 00 18  80 80 4F 13 03 0E 00 0A  ..j.......O.....
1340: 00 1A A4 13 03 0E 00 0A  00 1A CA 13 01 6A 13 02  .............j..
1350: 03 00 1D 80 80 6A 13 03  0E 00 0B 00 1A A4 13 03  .....j..........
1360: 0E 00 0B 00 1A B7 13 01  6A 13 1B 3E 06 00 05 80  ........j..>....
1370: 75 13 01 7D 13 08 0E 00  09 00 1A DD 13 1B 3E 06  u..}..........>.
1380: 00 09 80 88 13 01 90 13  08 0E 00 0A 00 1A DD 13  ................
1390: 1B 3E 06 00 00 80 9B 13  01 A3 13 08 0E 00 0B 00  .>..............
13A0: 1A DD 13 1B 3E 06 00 14  80 AE 13 01 B6 13 08 0E  ....>...........
13B0: 00 09 00 1A DD 13 1B 3E  06 00 18 80 C1 13 01 C9  .......>........
13C0: 13 08 0E 00 0A 00 1A DD  13 1B 3E 06 00 1D 80 D4  ..........>.....
13D0: 13 01 DC 13 08 0E 00 0B  00 1A DD 13 1B 02 0E 00  ................
13E0: 14 80 05 F5 13 02 02 00  10 80 03 F2 13 03 02 00  ................
13F0: 10 80 01 32 14 02 0E 00  01 80 05 0D 14 02 02 00  ...2............
1400: 00 80 03 0A 14 03 02 00  00 80 01 32 14 02 0E 00  ...........2....
1410: 27 80 05 25 14 02 02 00  09 80 03 22 14 03 02 00  '..%......."....
1420: 09 80 01 32 14 02 02 00  09 80 03 32 14 03 02 00  ...2.......2....
1430: 09 80 1B                                          ...             
```

#### Opcodes

```
  0: 0x0001 [0x03] ExtData[1]->WorkLocal[0] = 2*
  1: 0x0006 [0x03] ExtData[1]->WorkLocal[4] = Work_Zone[2]
  2: 0x000B [0x03] ExtData[1]->WorkLocal[5] = Work_Zone[3]
  3: 0x0010 [0x03] ExtData[1]->WorkLocal[6] = Work_Zone[4]
  4: 0x0015 [0x41] ExtData[1]->WorkLocal[7] = ExtData[1]->WorkLocal[6] (bits 8*-15*)
  5: 0x001E [0x03] ExtData[1]->WorkLocal[8] = Work_Zone[5]
  6: 0x0023 [0x03] ExtData[1]->WorkLocal[12] = Work_Zone[6]
  7: 0x0028 [0x1E] EventEntity looks at LocalPlayer and starts talking
  8: 0x002D [0x6F] WAIT_FRAME_DELAY: Yield until WaitTime reaches zero
  9: 0x002E [0x70] WAIT_ENTITY_RENDER_FLAG: Wait while EventEntity->Render.Flags3 bit 2 is set (cancel turn if not)
 10: 0x002F [0x03] Work_Zone[2] = ExtData[1]->WorkLocal[0]
 11: 0x0034 [0x1D] PRINT_EVENT_MESSAGE(message_id=7425*)
     "[Why, hello there, my dear pioneer!/Good day to you./Hello, pioneer./Welcome to our establishmentaru!/I hope you're having a marvelous-warvelous day!/Welcome back!] Is there anything you'd like to know about the [Pioneers'/Peacekeepers'/Couriers'/Scouts'/Inventors'/Mummers'] Coalition?"
 12: 0x0037 [0x23] WAIT_FOR_DIALOG_INTERACTION
 13: 0x0038 [0x03] Work_Zone[2] = ExtData[1]->WorkLocal[0]
 14: 0x003D [0x24] CREATE_DIALOG(message_id=7426*, default_option=0*, option_flags=0*)
     "What would you like to know about? [The [Pioneers'/Peacekeepers'/Couriers'/Scouts'/Inventors'/Mummers'] Coalition's role./The state of the [Pioneers'/Peacekeepers'/Couriers'/Scouts'/Inventors'/Mummers'] Coalition./Types of coalition assignments./Current expansion plans./Coalition referendum support./Your current standing./Nothing.]"
 15: 0x0044 [0x25] WAIT_DIALOG_SELECT()
 16: 0x0045 [0x02] IF !(Work_Zone[0] == 0*) GOTO 0x00DD
 17: 0x004D [0x02] IF !(ExtData[1]->WorkLocal[0] == 0*) GOTO 0x0064
 18: 0x0055 [0x1D] PRINT_EVENT_MESSAGE(message_id=7427*)
     "The Pioneers' Coalition contributes to the colonization effort mainly by cultivating uninhabitable territory and preparing the necessary resources to do so."
 19: 0x0058 [0x23] WAIT_FOR_DIALOG_INTERACTION
 20: 0x0059 [0x1D] PRINT_EVENT_MESSAGE(message_id=7428*)
     "It would take no stretch of the imagination to say that our coalition is the standard-bearer for the whole movement, what with all the brave young men and women that swell our ranks."
 21: 0x005C [0x23] WAIT_FOR_DIALOG_INTERACTION
 22: 0x005D [0x1D] PRINT_EVENT_MESSAGE(message_id=7429*)
     "The maester who leads our family of settlers is Lhe Lhangavo from the Order of Karieyh. She's possibly the most passionate of any order leader, and certainly one of the most caring. She's always looking out for her subordinates."
 23: 0x0060 [0x23] WAIT_FOR_DIALOG_INTERACTION
 24: 0x0061 [0x01] GOTO 0x00D7
 25: 0x0064 [0x02] IF !(ExtData[1]->WorkLocal[0] == 1*) GOTO 0x007B
 26: 0x006C [0x1D] PRINT_EVENT_MESSAGE(message_id=7430*)
     "The Peacekeepers' Coalition has the most self-explanatory name I'm sure you've ever heard. We work towards making Adoulin a safer place."
 27: 0x006F [0x23] WAIT_FOR_DIALOG_INTERACTION
 28: 0x0070 [0x1D] PRINT_EVENT_MESSAGE(message_id=7431*)
     "We're composed of only the most dedicated and dutiful individuals--people willing to give their lives to protect this town and its populace."
 29: 0x0073 [0x23] WAIT_FOR_DIALOG_INTERACTION
 30: 0x0074 [0x1D] PRINT_EVENT_MESSAGE(message_id=7432*)
     "The great--though often grumpy--Gratzigg is our maester, but despite his sour demeanor, he's the most loyal of anyone in the Twelve Orders. His love for Adoulin has saved it from utter despair more times than I care to remember."
 31: 0x0077 [0x23] WAIT_FOR_DIALOG_INTERACTION
 32: 0x0078 [0x01] GOTO 0x00D7
 33: 0x007B [0x02] IF !(ExtData[1]->WorkLocal[0] == 2*) GOTO 0x0092
 34: 0x0083 [0x1D] PRINT_EVENT_MESSAGE(message_id=7433*)
     "The Couriers' Coalition does its part by transporting supplies to the front lines. We also ensure the integrity of every shipment's cargo."
 35: 0x0086 [0x23] WAIT_FOR_DIALOG_INTERACTION
 36: 0x0087 [0x1D] PRINT_EVENT_MESSAGE(message_id=7434*)
     "We're very punctual and really strict about getting our deliveries right. We have the reputation of being uptight because of it, but it's those qualities that keep the pioneering movement going."
 37: 0x008A [0x23] WAIT_FOR_DIALOG_INTERACTION
 38: 0x008B [0x1D] PRINT_EVENT_MESSAGE(message_id=7435*)
     "Reginald serves as our maester. He may not be the most talkative person you've ever met, but just try to find a more gentlemanly gentleman among the Twelve Orders."
 39: 0x008E [0x23] WAIT_FOR_DIALOG_INTERACTION
 40: 0x008F [0x01] GOTO 0x00D7
 41: 0x0092 [0x02] IF !(ExtData[1]->WorkLocal[0] == 3*) GOTO 0x00A9
 42: 0x009A [0x1D] PRINT_EVENT_MESSAGE(message_id=7436*)
     "The Scouts' Coalition gathers intelligence from all over the continentaru and analyzes unknown materials to further the colonization movement."
 43: 0x009D [0x23] WAIT_FOR_DIALOG_INTERACTION
 44: 0x009E [0x1D] PRINT_EVENT_MESSAGE(message_id=7437*)
     "The knowledge our coalition accrues, coupled-woupled with our innate knack for careful archival supervision, makes us indispensable in this era."
 45: 0x00A1 [0x23] WAIT_FOR_DIALOG_INTERACTION
 46: 0x00A2 [0x1D] PRINT_EVENT_MESSAGE(message_id=7438*)
     "Our maestaru, Margret, belongs to the Order of Haverton. Her sheer brilliance-williance makes appetizers out of even the most difficult problems, so it's no wonder that she is seen as one of the greatest minds in Adoulin."
 47: 0x00A5 [0x23] WAIT_FOR_DIALOG_INTERACTION
 48: 0x00A6 [0x01] GOTO 0x00D7
 49: 0x00A9 [0x02] IF !(ExtData[1]->WorkLocal[0] == 4*) GOTO 0x00C0
 50: 0x00B1 [0x1D] PRINT_EVENT_MESSAGE(message_id=7439*)
     "The Inventors' Coalition mainly supportarus pioneers and the colonization of Ulbuka through the development of tools and equipment."
 51: 0x00B4 [0x23] WAIT_FOR_DIALOG_INTERACTION
 52: 0x00B5 [0x1D] PRINT_EVENT_MESSAGE(message_id=7440*)
     "We provide an economic foundation-wation for the city and the pioneering movement by using the materials pioneers bring us to create new foodstuffs that can last an ocean voyage, along with new articles to outfitaru explorers."
 53: 0x00B8 [0x23] WAIT_FOR_DIALOG_INTERACTION
 54: 0x00B9 [0x1D] PRINT_EVENT_MESSAGE(message_id=7441*)
     "Our maester is the one-and-only Amchuchu from the Order of Orvail. Her skills and mind are more renowned than possibly any other maester in Adoulin's history-wistory, making her one of our most talented technicians."
 55: 0x00BC [0x23] WAIT_FOR_DIALOG_INTERACTION
 56: 0x00BD [0x01] GOTO 0x00D7
 57: 0x00C0 [0x02] IF !(ExtData[1]->WorkLocal[0] == 5*) GOTO 0x00D7
 58: 0x00C8 [0x1D] PRINT_EVENT_MESSAGE(message_id=7442*)
     "The number one concern for the Mummers' Coalition is pioneer morale."
 59: 0x00CB [0x23] WAIT_FOR_DIALOG_INTERACTION
 60: 0x00CC [0x1D] PRINT_EVENT_MESSAGE(message_id=7443*)
     "It may seem like all we do is spout japes and cavort about, but there is a method to our apparent madness. Soothing the spirits of pioneers has a proven economic benefit, so expect to see Mummer-sponsored events for some time to come."
 61: 0x00CF [0x23] WAIT_FOR_DIALOG_INTERACTION
 62: 0x00D0 [0x1D] PRINT_EVENT_MESSAGE(message_id=7444*)
     "Flaviria from the Order of Thurandaut heads our troupe, and I've never seen anyone who can spin a yarn or tell a joke quite like her. It's obvious that someone with her personality would be loved by both the nobility and common folk."
 63: 0x00D3 [0x23] WAIT_FOR_DIALOG_INTERACTION
 64: 0x00D4 [0x01] GOTO 0x00D7

SUBROUTINE_00D7:
 65: 0x00D7 [0x01] GOTO 0x0038

SUBROUTINE_019E:
 66: 0x019E [0x03] ExtData[1]->WorkLocal[3] = ExtData[1]->WorkLocal[1]
 67: 0x01A3 [0x07] ExtData[1]->WorkLocal[3] += 110*
 68: 0x01A8 [0x02] IF !(ExtData[1]->WorkLocal[5] >= ExtData[1]->WorkLocal[1]) GOTO 0x01D7
 69: 0x01B0 [0x03] ExtData[1]->WorkLocal[3] = 110*
 70: 0x01B5 [0x15] ExtData[1]->WorkLocal[3] /= 2*
 71: 0x01BA [0x08] ExtData[1]->WorkLocal[1] -= ExtData[1]->WorkLocal[3]
 72: 0x01BF [0x02] IF !(ExtData[1]->WorkLocal[5] >= ExtData[1]->WorkLocal[1]) GOTO 0x01CF
 73: 0x01C7 [0x03] Work_Zone[5] = 0*
 74: 0x01CC [0x01] GOTO 0x01D4
 75: 0x01CF [0x03] Work_Zone[5] = 1*

SUBROUTINE_01D4:
 76: 0x01D4 [0x01] GOTO 0x020B
 77: 0x01D7 [0x02] IF !(ExtData[1]->WorkLocal[5] <= ExtData[1]->WorkLocal[3]) GOTO 0x0206
 78: 0x01DF [0x03] ExtData[1]->WorkLocal[1] = 110*
 79: 0x01E4 [0x15] ExtData[1]->WorkLocal[1] /= 2*
 80: 0x01E9 [0x07] ExtData[1]->WorkLocal[3] += ExtData[1]->WorkLocal[1]
 81: 0x01EE [0x02] IF !(ExtData[1]->WorkLocal[5] <= ExtData[1]->WorkLocal[3]) GOTO 0x01FE
 82: 0x01F6 [0x03] Work_Zone[5] = 4*
 83: 0x01FB [0x01] GOTO 0x0203
 84: 0x01FE [0x03] Work_Zone[5] = 3*

SUBROUTINE_0203:
 85: 0x0203 [0x01] GOTO 0x020B
 86: 0x0206 [0x03] Work_Zone[5] = 2*

SUBROUTINE_020B:
 87: 0x020B [0x03] Work_Zone[6] = Work_Zone[5]
 88: 0x0210 [0x02] IF !(ExtData[1]->WorkLocal[4] < 8*) GOTO 0x0228
 89: 0x0218 [0x02] IF !(Work_Zone[6] <= 2*) GOTO 0x0225
 90: 0x0220 [0x03] Work_Zone[6] = 2*
 91: 0x0225 [0x01] GOTO 0x023D
 92: 0x0228 [0x02] IF !(ExtData[1]->WorkLocal[4] < 8*) GOTO 0x023D
 93: 0x0230 [0x02] IF !(Work_Zone[6] <= 2*) GOTO 0x023D
 94: 0x0238 [0x03] Work_Zone[6] = 2*

SUBROUTINE_023D:
 95: 0x023D [0x1D] PRINT_EVENT_MESSAGE(message_id=7447*)
     "You've all been [abysmal/uninspiring/decent/remarkable/positively miraculous] at accomplishing your coalition assignments. Our coalition's rank [will almost certainly fall/may fall/will probably stay about the same/might rise/will almost certainly rise] after the next evaluation."
 96: 0x0240 [0x23] WAIT_FOR_DIALOG_INTERACTION
 97: 0x0241 [0x03] ExtData[1]->WorkLocal[1] = 1*
 98: 0x0246 [0x3E] IF !(ExtData[1]->WorkLocal[7] bit 0*) GOTO 0x0250
 99: 0x024D [0x0B] ExtData[1]->WorkLocal[1]++
100: 0x0250 [0x3E] IF !(ExtData[1]->WorkLocal[7] bit 1*) GOTO 0x025A
101: 0x0257 [0x0B] ExtData[1]->WorkLocal[1]++
102: 0x025A [0x3E] IF !(ExtData[1]->WorkLocal[7] bit 2*) GOTO 0x0264
103: 0x0261 [0x0B] ExtData[1]->WorkLocal[1]++
104: 0x0264 [0x3E] IF !(ExtData[1]->WorkLocal[7] bit 3*) GOTO 0x026E
105: 0x026B [0x0B] ExtData[1]->WorkLocal[1]++
106: 0x026E [0x3E] IF !(ExtData[1]->WorkLocal[7] bit 4*) GOTO 0x0278
107: 0x0275 [0x0B] ExtData[1]->WorkLocal[1]++
108: 0x0278 [0x3E] IF !(ExtData[1]->WorkLocal[7] bit 5*) GOTO 0x0282
109: 0x027F [0x0B] ExtData[1]->WorkLocal[1]++
110: 0x0282 [0x3E] IF !(ExtData[1]->WorkLocal[7] bit 6*) GOTO 0x028C
111: 0x0289 [0x0B] ExtData[1]->WorkLocal[1]++
112: 0x028C [0x3E] IF !(ExtData[1]->WorkLocal[7] bit 7*) GOTO 0x0296
113: 0x0293 [0x0B] ExtData[1]->WorkLocal[1]++
114: 0x0296 [0x02] IF !(ExtData[1]->WorkLocal[1] > 0*) GOTO 0x02B7
115: 0x029E [0x03] Work_Zone[2] = ExtData[1]->WorkLocal[0]
116: 0x02A3 [0x03] Work_Zone[3] = 0*
117: 0x02A8 [0x1D] PRINT_EVENT_MESSAGE(message_id=7448*)
     "You want to know about the services offered by the [Pioneers'/Peacekeepers'/Couriers'/Scouts'/Inventors'/Mummers'] Coalition? Well, we offer[.../ nothing at the moment. Sorry.]"
118: 0x02AB [0x23] WAIT_FOR_DIALOG_INTERACTION
119: 0x02AC [0x03] Work_Zone[9] = 0*
120: 0x02B1 [0x1A] CALL_SUBROUTINE(address=0x0C39)
121: 0x02B4 [0x01] GOTO 0x0385
122: 0x02B7 [0x03] Work_Zone[2] = ExtData[1]->WorkLocal[0]
123: 0x02BC [0x03] Work_Zone[3] = 0*
124: 0x02C1 [0x1D] PRINT_EVENT_MESSAGE(message_id=7448*)
     "You want to know about the services offered by the [Pioneers'/Peacekeepers'/Couriers'/Scouts'/Inventors'/Mummers'] Coalition? Well, we offer[.../ nothing at the moment. Sorry.]"
125: 0x02C4 [0x23] WAIT_FOR_DIALOG_INTERACTION
126: 0x02C5 [0x03] Work_Zone[9] = 0*
127: 0x02CA [0x1A] CALL_SUBROUTINE(address=0x0C39)
128: 0x02CD [0x3E] IF !(ExtData[1]->WorkLocal[7] bit 0*) GOTO 0x02E4
129: 0x02D4 [0x02] IF !(ExtData[1]->WorkLocal[1] <= 0*) GOTO 0x02E4
130: 0x02DC [0x03] Work_Zone[9] = 1*
131: 0x02E1 [0x1A] CALL_SUBROUTINE(address=0x0C39)
132: 0x02E4 [0x3E] IF !(ExtData[1]->WorkLocal[7] bit 1*) GOTO 0x02FB
133: 0x02EB [0x02] IF !(ExtData[1]->WorkLocal[1] <= 0*) GOTO 0x02FB
134: 0x02F3 [0x03] Work_Zone[9] = 2*
135: 0x02F8 [0x1A] CALL_SUBROUTINE(address=0x0C39)
136: 0x02FB [0x3E] IF !(ExtData[1]->WorkLocal[7] bit 2*) GOTO 0x0312
137: 0x0302 [0x02] IF !(ExtData[1]->WorkLocal[1] <= 0*) GOTO 0x0312
138: 0x030A [0x03] Work_Zone[9] = 3*
139: 0x030F [0x1A] CALL_SUBROUTINE(address=0x0C39)
140: 0x0312 [0x3E] IF !(ExtData[1]->WorkLocal[7] bit 3*) GOTO 0x0329
141: 0x0319 [0x02] IF !(ExtData[1]->WorkLocal[1] <= 0*) GOTO 0x0329
142: 0x0321 [0x03] Work_Zone[9] = 4*
143: 0x0326 [0x1A] CALL_SUBROUTINE(address=0x0C39)
144: 0x0329 [0x3E] IF !(ExtData[1]->WorkLocal[7] bit 4*) GOTO 0x0340
145: 0x0330 [0x02] IF !(ExtData[1]->WorkLocal[1] <= 0*) GOTO 0x0340
146: 0x0338 [0x03] Work_Zone[9] = 5*
147: 0x033D [0x1A] CALL_SUBROUTINE(address=0x0C39)
148: 0x0340 [0x3E] IF !(ExtData[1]->WorkLocal[7] bit 5*) GOTO 0x0357
149: 0x0347 [0x02] IF !(ExtData[1]->WorkLocal[1] <= 0*) GOTO 0x0357
150: 0x034F [0x03] Work_Zone[9] = 6*
151: 0x0354 [0x1A] CALL_SUBROUTINE(address=0x0C39)
152: 0x0357 [0x3E] IF !(ExtData[1]->WorkLocal[7] bit 6*) GOTO 0x036E
153: 0x035E [0x02] IF !(ExtData[1]->WorkLocal[1] <= 0*) GOTO 0x036E
154: 0x0366 [0x03] Work_Zone[9] = 7*
155: 0x036B [0x1A] CALL_SUBROUTINE(address=0x0C39)
156: 0x036E [0x3E] IF !(ExtData[1]->WorkLocal[7] bit 7*) GOTO 0x0385
157: 0x0375 [0x02] IF !(ExtData[1]->WorkLocal[1] <= 0*) GOTO 0x0385
158: 0x037D [0x03] Work_Zone[9] = 8*
159: 0x0382 [0x1A] CALL_SUBROUTINE(address=0x0C39)

SUBROUTINE_0385:
160: 0x0385 [0x03] ExtData[1]->WorkLocal[1] = 0*
161: 0x038A [0x3E] IF !(ExtData[1]->WorkLocal[6] bit 0*) GOTO 0x0394
162: 0x0391 [0x0B] ExtData[1]->WorkLocal[1]++
163: 0x0394 [0x3E] IF !(ExtData[1]->WorkLocal[6] bit 1*) GOTO 0x039E
164: 0x039B [0x0B] ExtData[1]->WorkLocal[1]++
165: 0x039E [0x3E] IF !(ExtData[1]->WorkLocal[6] bit 2*) GOTO 0x03A8
166: 0x03A5 [0x0B] ExtData[1]->WorkLocal[1]++
167: 0x03A8 [0x3E] IF !(ExtData[1]->WorkLocal[6] bit 3*) GOTO 0x03B2
168: 0x03AF [0x0B] ExtData[1]->WorkLocal[1]++
169: 0x03B2 [0x3E] IF !(ExtData[1]->WorkLocal[6] bit 4*) GOTO 0x03BC
170: 0x03B9 [0x0B] ExtData[1]->WorkLocal[1]++
171: 0x03BC [0x3E] IF !(ExtData[1]->WorkLocal[6] bit 5*) GOTO 0x03C6
172: 0x03C3 [0x0B] ExtData[1]->WorkLocal[1]++
173: 0x03C6 [0x3E] IF !(ExtData[1]->WorkLocal[6] bit 6*) GOTO 0x03D0
174: 0x03CD [0x0B] ExtData[1]->WorkLocal[1]++
175: 0x03D0 [0x3E] IF !(ExtData[1]->WorkLocal[6] bit 7*) GOTO 0x03DA
176: 0x03D7 [0x0B] ExtData[1]->WorkLocal[1]++
177: 0x03DA [0x02] IF !(ExtData[1]->WorkLocal[1] > 0*) GOTO 0x03F3
178: 0x03E2 [0x03] Work_Zone[2] = ExtData[1]->WorkLocal[0]
179: 0x03E7 [0x03] Work_Zone[3] = 1*
180: 0x03EC [0x1D] PRINT_EVENT_MESSAGE(message_id=7455*)
     "Based on the expansion of the [Pioneers'/Peacekeepers'/Couriers'/Scouts'/Inventors'/Mummers'] Coalition, Ionis provides[.../ no additional benefits.]"
181: 0x03EF [0x23] WAIT_FOR_DIALOG_INTERACTION
182: 0x03F0 [0x01] GOTO 0x04ED
183: 0x03F3 [0x03] Work_Zone[2] = ExtData[1]->WorkLocal[0]
184: 0x03F8 [0x03] Work_Zone[3] = 0*
185: 0x03FD [0x1D] PRINT_EVENT_MESSAGE(message_id=7455*)
     "Based on the expansion of the [Pioneers'/Peacekeepers'/Couriers'/Scouts'/Inventors'/Mummers'] Coalition, Ionis provides[.../ no additional benefits.]"
186: 0x0400 [0x23] WAIT_FOR_DIALOG_INTERACTION
187: 0x0401 [0x3E] IF !(ExtData[1]->WorkLocal[6] bit 0*) GOTO 0x0425
188: 0x0408 [0x3E] IF !(ExtData[1]->WorkLocal[6] bit 4*) GOTO 0x0415
189: 0x040F [0x0C] ExtData[1]->WorkLocal[1]--
190: 0x0412 [0x01] GOTO 0x0425
191: 0x0415 [0x02] IF !(ExtData[1]->WorkLocal[1] <= 0*) GOTO 0x0425
192: 0x041D [0x03] Work_Zone[9] = 1*
193: 0x0422 [0x1A] CALL_SUBROUTINE(address=0x0CAC)

SUBROUTINE_0425:
194: 0x0425 [0x3E] IF !(ExtData[1]->WorkLocal[6] bit 1*) GOTO 0x0449
195: 0x042C [0x3E] IF !(ExtData[1]->WorkLocal[6] bit 5*) GOTO 0x0439
196: 0x0433 [0x0C] ExtData[1]->WorkLocal[1]--
197: 0x0436 [0x01] GOTO 0x0449
198: 0x0439 [0x02] IF !(ExtData[1]->WorkLocal[1] <= 0*) GOTO 0x0449
199: 0x0441 [0x03] Work_Zone[9] = 2*
200: 0x0446 [0x1A] CALL_SUBROUTINE(address=0x0CAC)

SUBROUTINE_0449:
201: 0x0449 [0x3E] IF !(ExtData[1]->WorkLocal[6] bit 2*) GOTO 0x046D
202: 0x0450 [0x3E] IF !(ExtData[1]->WorkLocal[6] bit 6*) GOTO 0x045D
203: 0x0457 [0x0C] ExtData[1]->WorkLocal[1]--
204: 0x045A [0x01] GOTO 0x046D
205: 0x045D [0x02] IF !(ExtData[1]->WorkLocal[1] <= 0*) GOTO 0x046D
206: 0x0465 [0x03] Work_Zone[9] = 3*
207: 0x046A [0x1A] CALL_SUBROUTINE(address=0x0CAC)

SUBROUTINE_046D:
208: 0x046D [0x3E] IF !(ExtData[1]->WorkLocal[6] bit 3*) GOTO 0x0491
209: 0x0474 [0x3E] IF !(ExtData[1]->WorkLocal[6] bit 7*) GOTO 0x0481
210: 0x047B [0x0C] ExtData[1]->WorkLocal[1]--
211: 0x047E [0x01] GOTO 0x0491
212: 0x0481 [0x02] IF !(ExtData[1]->WorkLocal[1] <= 0*) GOTO 0x0491
213: 0x0489 [0x03] Work_Zone[9] = 4*
214: 0x048E [0x1A] CALL_SUBROUTINE(address=0x0CAC)

SUBROUTINE_0491:
215: 0x0491 [0x3E] IF !(ExtData[1]->WorkLocal[6] bit 4*) GOTO 0x04A8
216: 0x0498 [0x02] IF !(ExtData[1]->WorkLocal[1] <= 0*) GOTO 0x04A8
217: 0x04A0 [0x03] Work_Zone[9] = 5*
218: 0x04A5 [0x1A] CALL_SUBROUTINE(address=0x0CAC)
219: 0x04A8 [0x3E] IF !(ExtData[1]->WorkLocal[6] bit 5*) GOTO 0x04BF
220: 0x04AF [0x02] IF !(ExtData[1]->WorkLocal[1] <= 0*) GOTO 0x04BF
221: 0x04B7 [0x03] Work_Zone[9] = 6*
222: 0x04BC [0x1A] CALL_SUBROUTINE(address=0x0CAC)
223: 0x04BF [0x3E] IF !(ExtData[1]->WorkLocal[6] bit 6*) GOTO 0x04D6
224: 0x04C6 [0x02] IF !(ExtData[1]->WorkLocal[1] <= 0*) GOTO 0x04D6
225: 0x04CE [0x03] Work_Zone[9] = 7*
226: 0x04D3 [0x1A] CALL_SUBROUTINE(address=0x0CAC)
227: 0x04D6 [0x3E] IF !(ExtData[1]->WorkLocal[6] bit 7*) GOTO 0x04ED
228: 0x04DD [0x02] IF !(ExtData[1]->WorkLocal[1] <= 0*) GOTO 0x04ED
229: 0x04E5 [0x03] Work_Zone[9] = 8*
230: 0x04EA [0x1A] CALL_SUBROUTINE(address=0x0CAC)

SUBROUTINE_04ED:
231: 0x04ED [0x01] GOTO 0x0038

SUBROUTINE_04FB:
232: 0x04FB [0x03] ExtData[1]->WorkLocal[13] = 0*
233: 0x0500 [0x02] IF !(ExtData[1]->WorkLocal[0] == 0*) GOTO 0x0558
234: 0x0508 [0x3C] SET_BIT_FLAG_CONDITIONAL(target_work_offset=ExtData[1]->WorkLocal[13], bit_index_work_offset=2*, condition_work_offset=1*)
235: 0x050F [0x3C] SET_BIT_FLAG_CONDITIONAL(target_work_offset=ExtData[1]->WorkLocal[13], bit_index_work_offset=3*, condition_work_offset=1*)
236: 0x0516 [0x3C] SET_BIT_FLAG_CONDITIONAL(target_work_offset=ExtData[1]->WorkLocal[13], bit_index_work_offset=4*, condition_work_offset=1*)
237: 0x051D [0x3C] SET_BIT_FLAG_CONDITIONAL(target_work_offset=ExtData[1]->WorkLocal[13], bit_index_work_offset=5*, condition_work_offset=1*)
238: 0x0524 [0x3C] SET_BIT_FLAG_CONDITIONAL(target_work_offset=ExtData[1]->WorkLocal[13], bit_index_work_offset=6*, condition_work_offset=1*)
239: 0x052B [0x3C] SET_BIT_FLAG_CONDITIONAL(target_work_offset=ExtData[1]->WorkLocal[13], bit_index_work_offset=7*, condition_work_offset=1*)
240: 0x0532 [0x3C] SET_BIT_FLAG_CONDITIONAL(target_work_offset=ExtData[1]->WorkLocal[13], bit_index_work_offset=8*, condition_work_offset=1*)
241: 0x0539 [0x3C] SET_BIT_FLAG_CONDITIONAL(target_work_offset=ExtData[1]->WorkLocal[13], bit_index_work_offset=9*, condition_work_offset=1*)
242: 0x0540 [0x3C] SET_BIT_FLAG_CONDITIONAL(target_work_offset=ExtData[1]->WorkLocal[13], bit_index_work_offset=10*, condition_work_offset=1*)
243: 0x0547 [0x3C] SET_BIT_FLAG_CONDITIONAL(target_work_offset=ExtData[1]->WorkLocal[13], bit_index_work_offset=11*, condition_work_offset=1*)
244: 0x054E [0x3C] SET_BIT_FLAG_CONDITIONAL(target_work_offset=ExtData[1]->WorkLocal[13], bit_index_work_offset=12*, condition_work_offset=1*)
245: 0x0555 [0x01] GOTO 0x0709
246: 0x0558 [0x02] IF !(ExtData[1]->WorkLocal[0] == 1*) GOTO 0x05B0
247: 0x0560 [0x3C] SET_BIT_FLAG_CONDITIONAL(target_work_offset=ExtData[1]->WorkLocal[13], bit_index_work_offset=0*, condition_work_offset=1*)
248: 0x0567 [0x3C] SET_BIT_FLAG_CONDITIONAL(target_work_offset=ExtData[1]->WorkLocal[13], bit_index_work_offset=1*, condition_work_offset=1*)
249: 0x056E [0x3C] SET_BIT_FLAG_CONDITIONAL(target_work_offset=ExtData[1]->WorkLocal[13], bit_index_work_offset=4*, condition_work_offset=1*)
250: 0x0575 [0x3C] SET_BIT_FLAG_CONDITIONAL(target_work_offset=ExtData[1]->WorkLocal[13], bit_index_work_offset=5*, condition_work_offset=1*)
251: 0x057C [0x3C] SET_BIT_FLAG_CONDITIONAL(target_work_offset=ExtData[1]->WorkLocal[13], bit_index_work_offset=6*, condition_work_offset=1*)
252: 0x0583 [0x3C] SET_BIT_FLAG_CONDITIONAL(target_work_offset=ExtData[1]->WorkLocal[13], bit_index_work_offset=7*, condition_work_offset=1*)
253: 0x058A [0x3C] SET_BIT_FLAG_CONDITIONAL(target_work_offset=ExtData[1]->WorkLocal[13], bit_index_work_offset=8*, condition_work_offset=1*)
254: 0x0591 [0x3C] SET_BIT_FLAG_CONDITIONAL(target_work_offset=ExtData[1]->WorkLocal[13], bit_index_work_offset=9*, condition_work_offset=1*)
255: 0x0598 [0x3C] SET_BIT_FLAG_CONDITIONAL(target_work_offset=ExtData[1]->WorkLocal[13], bit_index_work_offset=10*, condition_work_offset=1*)
256: 0x059F [0x3C] SET_BIT_FLAG_CONDITIONAL(target_work_offset=ExtData[1]->WorkLocal[13], bit_index_work_offset=11*, condition_work_offset=1*)
257: 0x05A6 [0x3C] SET_BIT_FLAG_CONDITIONAL(target_work_offset=ExtData[1]->WorkLocal[13], bit_index_work_offset=12*, condition_work_offset=1*)
258: 0x05AD [0x01] GOTO 0x0709
259: 0x05B0 [0x02] IF !(ExtData[1]->WorkLocal[0] == 2*) GOTO 0x0601
260: 0x05B8 [0x3C] SET_BIT_FLAG_CONDITIONAL(target_work_offset=ExtData[1]->WorkLocal[13], bit_index_work_offset=0*, condition_work_offset=1*)
261: 0x05BF [0x3C] SET_BIT_FLAG_CONDITIONAL(target_work_offset=ExtData[1]->WorkLocal[13], bit_index_work_offset=1*, condition_work_offset=1*)
262: 0x05C6 [0x3C] SET_BIT_FLAG_CONDITIONAL(target_work_offset=ExtData[1]->WorkLocal[13], bit_index_work_offset=2*, condition_work_offset=1*)
263: 0x05CD [0x3C] SET_BIT_FLAG_CONDITIONAL(target_work_offset=ExtData[1]->WorkLocal[13], bit_index_work_offset=3*, condition_work_offset=1*)
264: 0x05D4 [0x3C] SET_BIT_FLAG_CONDITIONAL(target_work_offset=ExtData[1]->WorkLocal[13], bit_index_work_offset=7*, condition_work_offset=1*)
265: 0x05DB [0x3C] SET_BIT_FLAG_CONDITIONAL(target_work_offset=ExtData[1]->WorkLocal[13], bit_index_work_offset=8*, condition_work_offset=1*)
266: 0x05E2 [0x3C] SET_BIT_FLAG_CONDITIONAL(target_work_offset=ExtData[1]->WorkLocal[13], bit_index_work_offset=9*, condition_work_offset=1*)
267: 0x05E9 [0x3C] SET_BIT_FLAG_CONDITIONAL(target_work_offset=ExtData[1]->WorkLocal[13], bit_index_work_offset=10*, condition_work_offset=1*)
268: 0x05F0 [0x3C] SET_BIT_FLAG_CONDITIONAL(target_work_offset=ExtData[1]->WorkLocal[13], bit_index_work_offset=11*, condition_work_offset=1*)
269: 0x05F7 [0x3C] SET_BIT_FLAG_CONDITIONAL(target_work_offset=ExtData[1]->WorkLocal[13], bit_index_work_offset=12*, condition_work_offset=1*)
270: 0x05FE [0x01] GOTO 0x0709
271: 0x0601 [0x02] IF !(ExtData[1]->WorkLocal[0] == 3*) GOTO 0x0659
272: 0x0609 [0x3C] SET_BIT_FLAG_CONDITIONAL(target_work_offset=ExtData[1]->WorkLocal[13], bit_index_work_offset=0*, condition_work_offset=1*)
273: 0x0610 [0x3C] SET_BIT_FLAG_CONDITIONAL(target_work_offset=ExtData[1]->WorkLocal[13], bit_index_work_offset=1*, condition_work_offset=1*)
274: 0x0617 [0x3C] SET_BIT_FLAG_CONDITIONAL(target_work_offset=ExtData[1]->WorkLocal[13], bit_index_work_offset=2*, condition_work_offset=1*)
275: 0x061E [0x3C] SET_BIT_FLAG_CONDITIONAL(target_work_offset=ExtData[1]->WorkLocal[13], bit_index_work_offset=3*, condition_work_offset=1*)
276: 0x0625 [0x3C] SET_BIT_FLAG_CONDITIONAL(target_work_offset=ExtData[1]->WorkLocal[13], bit_index_work_offset=4*, condition_work_offset=1*)
277: 0x062C [0x3C] SET_BIT_FLAG_CONDITIONAL(target_work_offset=ExtData[1]->WorkLocal[13], bit_index_work_offset=5*, condition_work_offset=1*)
278: 0x0633 [0x3C] SET_BIT_FLAG_CONDITIONAL(target_work_offset=ExtData[1]->WorkLocal[13], bit_index_work_offset=6*, condition_work_offset=1*)
279: 0x063A [0x3C] SET_BIT_FLAG_CONDITIONAL(target_work_offset=ExtData[1]->WorkLocal[13], bit_index_work_offset=9*, condition_work_offset=1*)
280: 0x0641 [0x3C] SET_BIT_FLAG_CONDITIONAL(target_work_offset=ExtData[1]->WorkLocal[13], bit_index_work_offset=10*, condition_work_offset=1*)
281: 0x0648 [0x3C] SET_BIT_FLAG_CONDITIONAL(target_work_offset=ExtData[1]->WorkLocal[13], bit_index_work_offset=11*, condition_work_offset=1*)
282: 0x064F [0x3C] SET_BIT_FLAG_CONDITIONAL(target_work_offset=ExtData[1]->WorkLocal[13], bit_index_work_offset=12*, condition_work_offset=1*)
283: 0x0656 [0x01] GOTO 0x0709
284: 0x0659 [0x02] IF !(ExtData[1]->WorkLocal[0] == 4*) GOTO 0x06B8
285: 0x0661 [0x3C] SET_BIT_FLAG_CONDITIONAL(target_work_offset=ExtData[1]->WorkLocal[13], bit_index_work_offset=0*, condition_work_offset=1*)
286: 0x0668 [0x3C] SET_BIT_FLAG_CONDITIONAL(target_work_offset=ExtData[1]->WorkLocal[13], bit_index_work_offset=1*, condition_work_offset=1*)
287: 0x066F [0x3C] SET_BIT_FLAG_CONDITIONAL(target_work_offset=ExtData[1]->WorkLocal[13], bit_index_work_offset=2*, condition_work_offset=1*)
288: 0x0676 [0x3C] SET_BIT_FLAG_CONDITIONAL(target_work_offset=ExtData[1]->WorkLocal[13], bit_index_work_offset=3*, condition_work_offset=1*)
289: 0x067D [0x3C] SET_BIT_FLAG_CONDITIONAL(target_work_offset=ExtData[1]->WorkLocal[13], bit_index_work_offset=4*, condition_work_offset=1*)
290: 0x0684 [0x3C] SET_BIT_FLAG_CONDITIONAL(target_work_offset=ExtData[1]->WorkLocal[13], bit_index_work_offset=5*, condition_work_offset=1*)
291: 0x068B [0x3C] SET_BIT_FLAG_CONDITIONAL(target_work_offset=ExtData[1]->WorkLocal[13], bit_index_work_offset=6*, condition_work_offset=1*)
292: 0x0692 [0x3C] SET_BIT_FLAG_CONDITIONAL(target_work_offset=ExtData[1]->WorkLocal[13], bit_index_work_offset=7*, condition_work_offset=1*)
293: 0x0699 [0x3C] SET_BIT_FLAG_CONDITIONAL(target_work_offset=ExtData[1]->WorkLocal[13], bit_index_work_offset=8*, condition_work_offset=1*)
294: 0x06A0 [0x3C] SET_BIT_FLAG_CONDITIONAL(target_work_offset=ExtData[1]->WorkLocal[13], bit_index_work_offset=10*, condition_work_offset=1*)
295: 0x06A7 [0x3C] SET_BIT_FLAG_CONDITIONAL(target_work_offset=ExtData[1]->WorkLocal[13], bit_index_work_offset=11*, condition_work_offset=1*)
296: 0x06AE [0x3C] SET_BIT_FLAG_CONDITIONAL(target_work_offset=ExtData[1]->WorkLocal[13], bit_index_work_offset=12*, condition_work_offset=1*)
297: 0x06B5 [0x01] GOTO 0x0709
298: 0x06B8 [0x02] IF !(ExtData[1]->WorkLocal[0] == 5*) GOTO 0x0709
299: 0x06C0 [0x3C] SET_BIT_FLAG_CONDITIONAL(target_work_offset=ExtData[1]->WorkLocal[13], bit_index_work_offset=0*, condition_work_offset=1*)
300: 0x06C7 [0x3C] SET_BIT_FLAG_CONDITIONAL(target_work_offset=ExtData[1]->WorkLocal[13], bit_index_work_offset=1*, condition_work_offset=1*)
301: 0x06CE [0x3C] SET_BIT_FLAG_CONDITIONAL(target_work_offset=ExtData[1]->WorkLocal[13], bit_index_work_offset=2*, condition_work_offset=1*)
302: 0x06D5 [0x3C] SET_BIT_FLAG_CONDITIONAL(target_work_offset=ExtData[1]->WorkLocal[13], bit_index_work_offset=3*, condition_work_offset=1*)
303: 0x06DC [0x3C] SET_BIT_FLAG_CONDITIONAL(target_work_offset=ExtData[1]->WorkLocal[13], bit_index_work_offset=4*, condition_work_offset=1*)
304: 0x06E3 [0x3C] SET_BIT_FLAG_CONDITIONAL(target_work_offset=ExtData[1]->WorkLocal[13], bit_index_work_offset=5*, condition_work_offset=1*)
305: 0x06EA [0x3C] SET_BIT_FLAG_CONDITIONAL(target_work_offset=ExtData[1]->WorkLocal[13], bit_index_work_offset=6*, condition_work_offset=1*)
306: 0x06F1 [0x3C] SET_BIT_FLAG_CONDITIONAL(target_work_offset=ExtData[1]->WorkLocal[13], bit_index_work_offset=7*, condition_work_offset=1*)
307: 0x06F8 [0x3C] SET_BIT_FLAG_CONDITIONAL(target_work_offset=ExtData[1]->WorkLocal[13], bit_index_work_offset=8*, condition_work_offset=1*)
308: 0x06FF [0x3C] SET_BIT_FLAG_CONDITIONAL(target_work_offset=ExtData[1]->WorkLocal[13], bit_index_work_offset=9*, condition_work_offset=1*)
309: 0x0706 [0x01] GOTO 0x0709

SUBROUTINE_0709:
310: 0x0709 [0x24] CREATE_DIALOG(message_id=7462*, default_option=0*, option_flags=ExtData[1]->WorkLocal[13])
     "What assignments will you ask about? [Procuring resources./Clearing the way./Preserving the peace./Patrols./Base provisions./Delivering supplies./Frontline support./Land surveys./Component analysis./Gathering materials./Recovering lost articles./Behavioral research./Morale boosting./Nothing.]"
311: 0x0710 [0x25] WAIT_DIALOG_SELECT()
312: 0x0711 [0x02] IF !(Work_Zone[0] == 0*) GOTO 0x0724
313: 0x0719 [0x1D] PRINT_EVENT_MESSAGE(message_id=7463*)
     "Head out into the world and gather vital pioneering resources via methods such as mining and logging. Simply purchasing the supplies tells the coalition nothing of your abilities, however, and those who do will receive no remuneration."
314: 0x071C [0x23] WAIT_FOR_DIALOG_INTERACTION
315: 0x071D [0x1D] PRINT_EVENT_MESSAGE(message_id=7464*)
     "It may seem like a thankless job, but the erection of coalition expansions and frontier stations demands constant provisioning, so it is not a task to be taken lightly."
316: 0x0720 [0x23] WAIT_FOR_DIALOG_INTERACTION
317: 0x0721 [0x01] GOTO 0x0816
318: 0x0724 [0x02] IF !(Work_Zone[0] == 1*) GOTO 0x0737
319: 0x072C [0x1D] PRINT_EVENT_MESSAGE(message_id=7465*)
     "Natural obstacles pop up from time to time, and pioneers are often asked to engage in a bit of bushwhacking to clear them away so the colonization movement can proceed. The only way to be officially recognized for such feats, though, is by participating in Colonization Reives."
320: 0x072F [0x23] WAIT_FOR_DIALOG_INTERACTION
321: 0x0730 [0x1D] PRINT_EVENT_MESSAGE(message_id=7466*)
     "The perils are aptly named, for many pioneers have fallen in attempts to rid the land of them. So many, in fact, that Maester Lhangavo was bereft of a few fur clumps for some time worrying over the issue."
322: 0x0733 [0x23] WAIT_FOR_DIALOG_INTERACTION
323: 0x0734 [0x01] GOTO 0x0816
324: 0x0737 [0x02] IF !(Work_Zone[0] == 2*) GOTO 0x074A
325: 0x073F [0x1D] PRINT_EVENT_MESSAGE(message_id=7467*)
     "Peace in Adoulin is a precarious thing. Fiends could assault the city at any moment, which is why we need to nip this problem in the bud. Join Lair Reives to eliminate their breeding grounds and contribute to the colonization effort."
326: 0x0742 [0x23] WAIT_FOR_DIALOG_INTERACTION
327: 0x0743 [0x1D] PRINT_EVENT_MESSAGE(message_id=7468*)
     "If only the instinct to rebuild their homes were not so engrained in these hellions, life would be much easier for us. Sadly, you'll need to participate in these reives periodically in order to keep Ulbuka habitable."
328: 0x0746 [0x23] WAIT_FOR_DIALOG_INTERACTION
329: 0x0747 [0x01] GOTO 0x0816
330: 0x074A [0x02] IF !(Work_Zone[0] == 3*) GOTO 0x075D
331: 0x0752 [0x1D] PRINT_EVENT_MESSAGE(message_id=7469*)
     "While the Peacekeepers' Coalition often makes its rounds in the city itself, these patrols will take you to specific jungle locales for the express purpose of culling unwanted pests. Make sure to slay your quota, though, or you won't receive any recognition for your deeds."
332: 0x0755 [0x23] WAIT_FOR_DIALOG_INTERACTION
333: 0x0756 [0x1D] PRINT_EVENT_MESSAGE(message_id=7470*)
     "Give Adoulin's population some peace of mind by embarking on these expeditions every so often. Also, rumors about far more terrifying beasts are likely to surface the further we progress into Ulbuka's interior, but as long as you stick to your duties, you should have no reason to fear them."
334: 0x0759 [0x23] WAIT_FOR_DIALOG_INTERACTION
335: 0x075A [0x01] GOTO 0x0816
336: 0x075D [0x02] IF !(Work_Zone[0] == 4*) GOTO 0x0770
337: 0x0765 [0x1D] PRINT_EVENT_MESSAGE(message_id=7471*)
     "For these assignments, you'll need to transport provisions to the sites of future frontier stations. You can now use waypoints and still receive commendations, but be prepared to hear stories about "back in my day, we had to walk all the way out and back on our own two feet," from some wily veterans."
338: 0x0768 [0x23] WAIT_FOR_DIALOG_INTERACTION
339: 0x0769 [0x1D] PRINT_EVENT_MESSAGE(message_id=7472*)
     "Frontier stations are paramount to sustaining the colonization effort. Tasks of greater magnitude can't even begin without one, so building these structures should always be a priority."
340: 0x076C [0x23] WAIT_FOR_DIALOG_INTERACTION
341: 0x076D [0x01] GOTO 0x0816
342: 0x0770 [0x02] IF !(Work_Zone[0] == 5*) GOTO 0x0783
343: 0x0778 [0x1D] PRINT_EVENT_MESSAGE(message_id=7473*)
     "You will sometimes be charged with carrying supplies from specific frontier stations to the Couriers' Coalition."
344: 0x077B [0x23] WAIT_FOR_DIALOG_INTERACTION
345: 0x077C [0x1D] PRINT_EVENT_MESSAGE(message_id=7474*)
     "By supplies, I mean ones obtained in the jungle through pioneering. Yes, acting as a beast of burden may not be the most glamorous duty, but it is a vital one if we're to improve the coalitions and keep Adoulin economically stable."
346: 0x077F [0x23] WAIT_FOR_DIALOG_INTERACTION
347: 0x0780 [0x01] GOTO 0x0816
348: 0x0783 [0x02] IF !(Work_Zone[0] == 6*) GOTO 0x0796
349: 0x078B [0x1D] PRINT_EVENT_MESSAGE(message_id=7475*)
     "The most effective way of supporting those risking their lives on the front lines is by supplying designated frontier bivouacs with the necessary provisions. While it may go against previous Couriers' Coalition policy, the use of waypoints is henceforth permitted on this type of assignment."
350: 0x078E [0x23] WAIT_FOR_DIALOG_INTERACTION
351: 0x078F [0x1D] PRINT_EVENT_MESSAGE(message_id=7476*)
     "Truth be told, frontier bivouacs are not as developed as their station counterparts, but they still play an important role in the colonization of the continent. If they don't receive provisions regularly, our supply lines to the stations will wither and die."
352: 0x0792 [0x23] WAIT_FOR_DIALOG_INTERACTION
353: 0x0793 [0x01] GOTO 0x0816
354: 0x0796 [0x02] IF !(Work_Zone[0] == 7*) GOTO 0x07A9
355: 0x079E [0x1D] PRINT_EVENT_MESSAGE(message_id=7477*)
     "Travel to places unknown in search of ergon loci, areas overflowing with natural energy. While some say it's the journey--not the destination--that matters, failing to survey even a single locus will leave you both depleted of energy and empty-handed."
356: 0x07A1 [0x23] WAIT_FOR_DIALOG_INTERACTION
357: 0x07A2 [0x1D] PRINT_EVENT_MESSAGE(message_id=7478*)
     "The potency of an ergon tincture is highly dependent upon the strength of the ergon locus from which it's extracted, so a thorough investigation must be made into each location if we're to successfully use this trump card we've created."
358: 0x07A5 [0x23] WAIT_FOR_DIALOG_INTERACTION
359: 0x07A6 [0x01] GOTO 0x0816
360: 0x07A9 [0x02] IF !(Work_Zone[0] == 8*) GOTO 0x07BC
361: 0x07B1 [0x1D] PRINT_EVENT_MESSAGE(message_id=7479*)
     "Completion of these assignments means providing the Scouts' Coalition--and no others, for they are the only ones to possess the proper facilities--with unique and extraordinary materials from certain territories."
362: 0x07B4 [0x23] WAIT_FOR_DIALOG_INTERACTION
363: 0x07B5 [0x1D] PRINT_EVENT_MESSAGE(message_id=7480*)
     "The jungle is teeming with obscure and unfamiliar substances, and from them we hope to derive more powerful and effective materials with which to aid the colonization effort. Science waits for no man, however, and without periodic deliveries of new samples, our research will stagnate."
364: 0x07B8 [0x23] WAIT_FOR_DIALOG_INTERACTION
365: 0x07B9 [0x01] GOTO 0x0816
366: 0x07BC [0x02] IF !(Work_Zone[0] == 9*) GOTO 0x07CF
367: 0x07C4 [0x1D] PRINT_EVENT_MESSAGE(message_id=7481*)
     "The proper equipment and tools are instrumental in the colonization movement's progress--and the Inventors' Coalition apparently wants to be the one to corner the market."
368: 0x07C7 [0x23] WAIT_FOR_DIALOG_INTERACTION
369: 0x07C8 [0x1D] PRINT_EVENT_MESSAGE(message_id=7482*)
     "While the Inventors' Coalition doesn't particularly care how you obtain what they ask for once you're in the specified location, they are quite picky about the number you obtain and the fact that you can't deliver to anyone else."
370: 0x07CB [0x23] WAIT_FOR_DIALOG_INTERACTION
371: 0x07CC [0x01] GOTO 0x0816
372: 0x07CF [0x02] IF !(Work_Zone[0] == 10*) GOTO 0x07E2
373: 0x07D7 [0x1D] PRINT_EVENT_MESSAGE(message_id=7483*)
     "Pioneers are an intrepid band of adventurers, but the nature of their trade makes them prone to losing personal effects. Pick up any lost articles in the territory to which you are dispatched and return for a reward along with a pat on the back."
374: 0x07DA [0x23] WAIT_FOR_DIALOG_INTERACTION
375: 0x07DB [0x1D] PRINT_EVENT_MESSAGE(message_id=7484*)
     "This is probably the least garish service the Mummers' Coalition provides, but it's one for which pioneers throughout Adoulin are eternally grateful."
376: 0x07DE [0x23] WAIT_FOR_DIALOG_INTERACTION
377: 0x07DF [0x01] GOTO 0x0816
378: 0x07E2 [0x02] IF !(Work_Zone[0] == 11*) GOTO 0x07F5
379: 0x07EA [0x1D] PRINT_EVENT_MESSAGE(message_id=7485*)
     "Though they may not be the friendliest of Ulbuka's inhabitants, that doesn't mean the fiends who populate the continent can't teach us a thing or two. Research designated beasts by personally experiencing their special attacks and report what they taught you...if you live to tell the tale."
380: 0x07ED [0x23] WAIT_FOR_DIALOG_INTERACTION
381: 0x07EE [0x1D] PRINT_EVENT_MESSAGE(message_id=7486*)
     "The Mummers' Coalition is constantly searching for its muse in all manner of sources, one being the myriad monsters scattered throughout the jungle. Investigating monsters' behavior may be just the inspiration they need to concoct new dances, gags, and events!"
382: 0x07F1 [0x23] WAIT_FOR_DIALOG_INTERACTION
383: 0x07F2 [0x01] GOTO 0x0816
384: 0x07F5 [0x02] IF !(Work_Zone[0] == 12*) GOTO 0x0808
385: 0x07FD [0x1D] PRINT_EVENT_MESSAGE(message_id=7487*)
     "The isolation of the frontier can eat at even the most independent of us, which is why it's important to give our pioneers something to cheer about. Head to specified frontier stations and lift the spirits of the workers there! Just remember that if they don't smile, you don't get rewarded."
386: 0x0800 [0x23] WAIT_FOR_DIALOG_INTERACTION
387: 0x0801 [0x1D] PRINT_EVENT_MESSAGE(message_id=7488*)
     "Dance, sing, shout, or generally make a fool of yourself. It doesn't matter how you do it, as long as you can make them laugh and forget their cares for a few moments."
388: 0x0804 [0x23] WAIT_FOR_DIALOG_INTERACTION
389: 0x0805 [0x01] GOTO 0x0816
390: 0x0808 [0x02] IF !(Work_Zone[0] == 13*) GOTO 0x0816
391: 0x0810 [0x01] GOTO 0x0038

SUBROUTINE_0816:
392: 0x0816 [0x01] GOTO 0x04FB

SUBROUTINE_0824:
393: 0x0824 [0x03] ExtData[1]->WorkLocal[13] = 0*
394: 0x0829 [0x02] IF !(ExtData[1]->WorkLocal[4] == 0*) GOTO 0x0857
395: 0x0831 [0x3C] SET_BIT_FLAG_CONDITIONAL(target_work_offset=ExtData[1]->WorkLocal[13], bit_index_work_offset=3*, condition_work_offset=1*)
396: 0x0838 [0x3C] SET_BIT_FLAG_CONDITIONAL(target_work_offset=ExtData[1]->WorkLocal[13], bit_index_work_offset=4*, condition_work_offset=1*)
397: 0x083F [0x3C] SET_BIT_FLAG_CONDITIONAL(target_work_offset=ExtData[1]->WorkLocal[13], bit_index_work_offset=5*, condition_work_offset=1*)
398: 0x0846 [0x3C] SET_BIT_FLAG_CONDITIONAL(target_work_offset=ExtData[1]->WorkLocal[13], bit_index_work_offset=6*, condition_work_offset=1*)
399: 0x084D [0x3C] SET_BIT_FLAG_CONDITIONAL(target_work_offset=ExtData[1]->WorkLocal[13], bit_index_work_offset=7*, condition_work_offset=1*)
400: 0x0854 [0x01] GOTO 0x0A6F
401: 0x0857 [0x02] IF !(ExtData[1]->WorkLocal[4] == 1*) GOTO 0x08AF
402: 0x085F [0x3E] IF !(ExtData[1]->WorkLocal[6] bit 0*) GOTO 0x086D
403: 0x0866 [0x3C] SET_BIT_FLAG_CONDITIONAL(target_work_offset=ExtData[1]->WorkLocal[13], bit_index_work_offset=0*, condition_work_offset=1*)
404: 0x086D [0x3E] IF !(ExtData[1]->WorkLocal[6] bit 1*) GOTO 0x087B
405: 0x0874 [0x3C] SET_BIT_FLAG_CONDITIONAL(target_work_offset=ExtData[1]->WorkLocal[13], bit_index_work_offset=1*, condition_work_offset=1*)
406: 0x087B [0x3E] IF !(ExtData[1]->WorkLocal[6] bit 2*) GOTO 0x0889
407: 0x0882 [0x3C] SET_BIT_FLAG_CONDITIONAL(target_work_offset=ExtData[1]->WorkLocal[13], bit_index_work_offset=2*, condition_work_offset=1*)
408: 0x0889 [0x3C] SET_BIT_FLAG_CONDITIONAL(target_work_offset=ExtData[1]->WorkLocal[13], bit_index_work_offset=3*, condition_work_offset=1*)
409: 0x0890 [0x3C] SET_BIT_FLAG_CONDITIONAL(target_work_offset=ExtData[1]->WorkLocal[13], bit_index_work_offset=4*, condition_work_offset=1*)
410: 0x0897 [0x3C] SET_BIT_FLAG_CONDITIONAL(target_work_offset=ExtData[1]->WorkLocal[13], bit_index_work_offset=5*, condition_work_offset=1*)
411: 0x089E [0x3C] SET_BIT_FLAG_CONDITIONAL(target_work_offset=ExtData[1]->WorkLocal[13], bit_index_work_offset=6*, condition_work_offset=1*)
412: 0x08A5 [0x3C] SET_BIT_FLAG_CONDITIONAL(target_work_offset=ExtData[1]->WorkLocal[13], bit_index_work_offset=7*, condition_work_offset=1*)
413: 0x08AC [0x01] GOTO 0x0A6F
414: 0x08AF [0x02] IF !(ExtData[1]->WorkLocal[4] == 2*) GOTO 0x0907
415: 0x08B7 [0x3E] IF !(ExtData[1]->WorkLocal[6] bit 0*) GOTO 0x08C5
416: 0x08BE [0x3C] SET_BIT_FLAG_CONDITIONAL(target_work_offset=ExtData[1]->WorkLocal[13], bit_index_work_offset=0*, condition_work_offset=1*)
417: 0x08C5 [0x3E] IF !(ExtData[1]->WorkLocal[6] bit 1*) GOTO 0x08D3
418: 0x08CC [0x3C] SET_BIT_FLAG_CONDITIONAL(target_work_offset=ExtData[1]->WorkLocal[13], bit_index_work_offset=1*, condition_work_offset=1*)
419: 0x08D3 [0x3E] IF !(ExtData[1]->WorkLocal[6] bit 2*) GOTO 0x08E1
420: 0x08DA [0x3C] SET_BIT_FLAG_CONDITIONAL(target_work_offset=ExtData[1]->WorkLocal[13], bit_index_work_offset=2*, condition_work_offset=1*)
421: 0x08E1 [0x3C] SET_BIT_FLAG_CONDITIONAL(target_work_offset=ExtData[1]->WorkLocal[13], bit_index_work_offset=3*, condition_work_offset=1*)
422: 0x08E8 [0x3C] SET_BIT_FLAG_CONDITIONAL(target_work_offset=ExtData[1]->WorkLocal[13], bit_index_work_offset=4*, condition_work_offset=1*)
423: 0x08EF [0x3C] SET_BIT_FLAG_CONDITIONAL(target_work_offset=ExtData[1]->WorkLocal[13], bit_index_work_offset=5*, condition_work_offset=1*)
424: 0x08F6 [0x3C] SET_BIT_FLAG_CONDITIONAL(target_work_offset=ExtData[1]->WorkLocal[13], bit_index_work_offset=6*, condition_work_offset=1*)
425: 0x08FD [0x3C] SET_BIT_FLAG_CONDITIONAL(target_work_offset=ExtData[1]->WorkLocal[13], bit_index_work_offset=7*, condition_work_offset=1*)
426: 0x0904 [0x01] GOTO 0x0A6F
427: 0x0907 [0x02] IF !(ExtData[1]->WorkLocal[4] == 3*) GOTO 0x0943
428: 0x090F [0x3C] SET_BIT_FLAG_CONDITIONAL(target_work_offset=ExtData[1]->WorkLocal[13], bit_index_work_offset=0*, condition_work_offset=1*)
429: 0x0916 [0x3C] SET_BIT_FLAG_CONDITIONAL(target_work_offset=ExtData[1]->WorkLocal[13], bit_index_work_offset=1*, condition_work_offset=1*)
430: 0x091D [0x3C] SET_BIT_FLAG_CONDITIONAL(target_work_offset=ExtData[1]->WorkLocal[13], bit_index_work_offset=2*, condition_work_offset=1*)
431: 0x0924 [0x3C] SET_BIT_FLAG_CONDITIONAL(target_work_offset=ExtData[1]->WorkLocal[13], bit_index_work_offset=4*, condition_work_offset=1*)
432: 0x092B [0x3C] SET_BIT_FLAG_CONDITIONAL(target_work_offset=ExtData[1]->WorkLocal[13], bit_index_work_offset=5*, condition_work_offset=1*)
433: 0x0932 [0x3C] SET_BIT_FLAG_CONDITIONAL(target_work_offset=ExtData[1]->WorkLocal[13], bit_index_work_offset=6*, condition_work_offset=1*)
434: 0x0939 [0x3C] SET_BIT_FLAG_CONDITIONAL(target_work_offset=ExtData[1]->WorkLocal[13], bit_index_work_offset=7*, condition_work_offset=1*)
435: 0x0940 [0x01] GOTO 0x0A6F
436: 0x0943 [0x02] IF !(ExtData[1]->WorkLocal[4] == 4*) GOTO 0x0971
437: 0x094B [0x3C] SET_BIT_FLAG_CONDITIONAL(target_work_offset=ExtData[1]->WorkLocal[13], bit_index_work_offset=0*, condition_work_offset=1*)
438: 0x0952 [0x3C] SET_BIT_FLAG_CONDITIONAL(target_work_offset=ExtData[1]->WorkLocal[13], bit_index_work_offset=1*, condition_work_offset=1*)
439: 0x0959 [0x3C] SET_BIT_FLAG_CONDITIONAL(target_work_offset=ExtData[1]->WorkLocal[13], bit_index_work_offset=2*, condition_work_offset=1*)
440: 0x0960 [0x3C] SET_BIT_FLAG_CONDITIONAL(target_work_offset=ExtData[1]->WorkLocal[13], bit_index_work_offset=3*, condition_work_offset=1*)
441: 0x0967 [0x3C] SET_BIT_FLAG_CONDITIONAL(target_work_offset=ExtData[1]->WorkLocal[13], bit_index_work_offset=7*, condition_work_offset=1*)
442: 0x096E [0x01] GOTO 0x0A6F
443: 0x0971 [0x02] IF !(ExtData[1]->WorkLocal[4] == 5*) GOTO 0x09C9
444: 0x0979 [0x3C] SET_BIT_FLAG_CONDITIONAL(target_work_offset=ExtData[1]->WorkLocal[13], bit_index_work_offset=0*, condition_work_offset=1*)
445: 0x0980 [0x3C] SET_BIT_FLAG_CONDITIONAL(target_work_offset=ExtData[1]->WorkLocal[13], bit_index_work_offset=1*, condition_work_offset=1*)
446: 0x0987 [0x3C] SET_BIT_FLAG_CONDITIONAL(target_work_offset=ExtData[1]->WorkLocal[13], bit_index_work_offset=2*, condition_work_offset=1*)
447: 0x098E [0x3C] SET_BIT_FLAG_CONDITIONAL(target_work_offset=ExtData[1]->WorkLocal[13], bit_index_work_offset=3*, condition_work_offset=1*)
448: 0x0995 [0x3E] IF !(ExtData[1]->WorkLocal[6] bit 4*) GOTO 0x09A3
449: 0x099C [0x3C] SET_BIT_FLAG_CONDITIONAL(target_work_offset=ExtData[1]->WorkLocal[13], bit_index_work_offset=4*, condition_work_offset=1*)
450: 0x09A3 [0x3E] IF !(ExtData[1]->WorkLocal[6] bit 5*) GOTO 0x09B1
451: 0x09AA [0x3C] SET_BIT_FLAG_CONDITIONAL(target_work_offset=ExtData[1]->WorkLocal[13], bit_index_work_offset=5*, condition_work_offset=1*)
452: 0x09B1 [0x3E] IF !(ExtData[1]->WorkLocal[6] bit 6*) GOTO 0x09BF
453: 0x09B8 [0x3C] SET_BIT_FLAG_CONDITIONAL(target_work_offset=ExtData[1]->WorkLocal[13], bit_index_work_offset=6*, condition_work_offset=1*)
454: 0x09BF [0x3C] SET_BIT_FLAG_CONDITIONAL(target_work_offset=ExtData[1]->WorkLocal[13], bit_index_work_offset=7*, condition_work_offset=1*)
455: 0x09C6 [0x01] GOTO 0x0A6F
456: 0x09C9 [0x02] IF !(ExtData[1]->WorkLocal[4] == 6*) GOTO 0x0A21
457: 0x09D1 [0x3C] SET_BIT_FLAG_CONDITIONAL(target_work_offset=ExtData[1]->WorkLocal[13], bit_index_work_offset=0*, condition_work_offset=1*)
458: 0x09D8 [0x3C] SET_BIT_FLAG_CONDITIONAL(target_work_offset=ExtData[1]->WorkLocal[13], bit_index_work_offset=1*, condition_work_offset=1*)
459: 0x09DF [0x3C] SET_BIT_FLAG_CONDITIONAL(target_work_offset=ExtData[1]->WorkLocal[13], bit_index_work_offset=2*, condition_work_offset=1*)
460: 0x09E6 [0x3C] SET_BIT_FLAG_CONDITIONAL(target_work_offset=ExtData[1]->WorkLocal[13], bit_index_work_offset=3*, condition_work_offset=1*)
461: 0x09ED [0x3E] IF !(ExtData[1]->WorkLocal[6] bit 4*) GOTO 0x09FB
462: 0x09F4 [0x3C] SET_BIT_FLAG_CONDITIONAL(target_work_offset=ExtData[1]->WorkLocal[13], bit_index_work_offset=4*, condition_work_offset=1*)
463: 0x09FB [0x3E] IF !(ExtData[1]->WorkLocal[6] bit 5*) GOTO 0x0A09
464: 0x0A02 [0x3C] SET_BIT_FLAG_CONDITIONAL(target_work_offset=ExtData[1]->WorkLocal[13], bit_index_work_offset=5*, condition_work_offset=1*)
465: 0x0A09 [0x3E] IF !(ExtData[1]->WorkLocal[6] bit 6*) GOTO 0x0A17
466: 0x0A10 [0x3C] SET_BIT_FLAG_CONDITIONAL(target_work_offset=ExtData[1]->WorkLocal[13], bit_index_work_offset=6*, condition_work_offset=1*)
467: 0x0A17 [0x3C] SET_BIT_FLAG_CONDITIONAL(target_work_offset=ExtData[1]->WorkLocal[13], bit_index_work_offset=7*, condition_work_offset=1*)
468: 0x0A1E [0x01] GOTO 0x0A6F
469: 0x0A21 [0x02] IF !(ExtData[1]->WorkLocal[4] == 7*) GOTO 0x0A5D
470: 0x0A29 [0x3C] SET_BIT_FLAG_CONDITIONAL(target_work_offset=ExtData[1]->WorkLocal[13], bit_index_work_offset=0*, condition_work_offset=1*)
471: 0x0A30 [0x3C] SET_BIT_FLAG_CONDITIONAL(target_work_offset=ExtData[1]->WorkLocal[13], bit_index_work_offset=1*, condition_work_offset=1*)
472: 0x0A37 [0x3C] SET_BIT_FLAG_CONDITIONAL(target_work_offset=ExtData[1]->WorkLocal[13], bit_index_work_offset=2*, condition_work_offset=1*)
473: 0x0A3E [0x3C] SET_BIT_FLAG_CONDITIONAL(target_work_offset=ExtData[1]->WorkLocal[13], bit_index_work_offset=3*, condition_work_offset=1*)
474: 0x0A45 [0x3C] SET_BIT_FLAG_CONDITIONAL(target_work_offset=ExtData[1]->WorkLocal[13], bit_index_work_offset=4*, condition_work_offset=1*)
