# 17825995 - Aristide

## Common Data

| Field            | Value                     |
|------------------|---------------------------|
| Zone             | Western Adoulin (ID: 256) |
| Block Size       | 1992 bytes                |
| Total Events     | 83                        |
| References Count | 65                        |

## List of Events

| Event ID                   | Entrypoint   |   Size |   Instructions |
|----------------------------|--------------|--------|----------------|
| [65535](#event-65535)      | 0x0000       |      1 |              1 |
| [5056](#event-5056)        | 0x0001       |      7 |              2 |
| [65535.1](#event-655351)   | 0x0008       |     21 |              2 |
| [65535.2](#event-655352)   | 0x001D       |     45 |              4 |
| [65535.3](#event-655353)   | 0x004A       |     24 |              5 |
| [65535.4](#event-655354)   | 0x0062       |     14 |              4 |
| [65535.5](#event-655355)   | 0x0070       |     24 |              6 |
| [5035](#event-5035)        | 0x0088       |      7 |              2 |
| [65535.6](#event-655356)   | 0x008F       |     32 |              7 |
| [65535.7](#event-655357)   | 0x00AF       |     14 |              4 |
| [5037](#event-5037)        | 0x00BD       |      7 |              2 |
| [65535.8](#event-655358)   | 0x00C4       |     14 |              4 |
| [65535.9](#event-655359)   | 0x00D2       |     14 |              4 |
| [65535.10](#event-6553510) | 0x00E0       |     30 |              8 |
| [65535.11](#event-6553511) | 0x00FE       |     14 |              4 |
| [5019](#event-5019)        | 0x010C       |     45 |              4 |
| [65535.12](#event-6553512) | 0x0139       |     22 |              6 |
| [65535.13](#event-6553513) | 0x014F       |     14 |              4 |
| [181](#event-181)          | 0x015D       |      1 |              1 |
| [65535.14](#event-6553514) | 0x015E       |     21 |              2 |
| [65535.15](#event-6553515) | 0x0173       |     34 |              8 |
| [187](#event-187)          | 0x0195       |     51 |              5 |
| [65535.16](#event-6553516) | 0x01C8       |     22 |              6 |
| [65535.17](#event-6553517) | 0x01DE       |     14 |              4 |
| [172](#event-172)          | 0x01EC       |     21 |              2 |
| [65535.18](#event-6553518) | 0x0201       |     16 |              2 |
| [65535.19](#event-6553519) | 0x0211       |     14 |              2 |
| [65535.20](#event-6553520) | 0x021F       |     16 |              2 |
| [65535.21](#event-6553521) | 0x022F       |     14 |              2 |
| [65535.22](#event-6553522) | 0x023D       |     16 |              2 |
| [65535.23](#event-6553523) | 0x024D       |     14 |              2 |
| [65535.24](#event-6553524) | 0x025B       |     16 |              2 |
| [65535.25](#event-6553525) | 0x026B       |     14 |              2 |
| [65535.26](#event-6553526) | 0x0279       |     16 |              2 |
| [65535.27](#event-6553527) | 0x0289       |     14 |              2 |
| [65535.28](#event-6553528) | 0x0297       |     16 |              2 |
| [65535.29](#event-6553529) | 0x02A7       |     14 |              2 |
| [65535.30](#event-6553530) | 0x02B5       |     16 |              2 |
| [65535.31](#event-6553531) | 0x02C5       |     14 |              2 |
| [65535.32](#event-6553532) | 0x02D3       |     16 |              2 |
| [65535.33](#event-6553533) | 0x02E3       |     14 |              2 |
| [65535.34](#event-6553534) | 0x02F1       |     16 |              2 |
| [65535.35](#event-6553535) | 0x0301       |     14 |              2 |
| [65535.36](#event-6553536) | 0x030F       |     16 |              2 |
| [65535.37](#event-6553537) | 0x031F       |     14 |              2 |
| [65535.38](#event-6553538) | 0x032D       |     16 |              2 |
| [65535.39](#event-6553539) | 0x033D       |     14 |              2 |
| [65535.40](#event-6553540) | 0x034B       |     16 |              2 |
| [65535.41](#event-6553541) | 0x035B       |     14 |              2 |
| [65535.42](#event-6553542) | 0x0369       |     16 |              2 |
| [65535.43](#event-6553543) | 0x0379       |     14 |              2 |
| [65535.44](#event-6553544) | 0x0387       |     16 |              2 |
| [65535.45](#event-6553545) | 0x0397       |     14 |              2 |
| [65535.46](#event-6553546) | 0x03A5       |     16 |              2 |
| [65535.47](#event-6553547) | 0x03B5       |     14 |              2 |
| [65535.48](#event-6553548) | 0x03C3       |     16 |              2 |
| [65535.49](#event-6553549) | 0x03D3       |     14 |              2 |
| [65535.50](#event-6553550) | 0x03E1       |     16 |              2 |
| [65535.51](#event-6553551) | 0x03F1       |     14 |              2 |
| [65535.52](#event-6553552) | 0x03FF       |     16 |              2 |
| [65535.53](#event-6553553) | 0x040F       |     14 |              2 |
| [65535.54](#event-6553554) | 0x041D       |     16 |              2 |
| [65535.55](#event-6553555) | 0x042D       |     14 |              2 |
| [65535.56](#event-6553556) | 0x043B       |     16 |              2 |
| [65535.57](#event-6553557) | 0x044B       |     14 |              2 |
| [65535.58](#event-6553558) | 0x0459       |     16 |              2 |
| [65535.59](#event-6553559) | 0x0469       |     14 |              2 |
| [65535.60](#event-6553560) | 0x0477       |     16 |              2 |
| [65535.61](#event-6553561) | 0x0487       |     14 |              2 |
| [65535.62](#event-6553562) | 0x0495       |     16 |              2 |
| [65535.63](#event-6553563) | 0x04A5       |     14 |              2 |
| [65535.64](#event-6553564) | 0x04B3       |     16 |              2 |
| [65535.65](#event-6553565) | 0x04C3       |     14 |              2 |
| [65535.66](#event-6553566) | 0x04D1       |     16 |              2 |
| [65535.67](#event-6553567) | 0x04E1       |     14 |              2 |
| [65535.68](#event-6553568) | 0x04EF       |     16 |              2 |
| [65535.69](#event-6553569) | 0x04FF       |     14 |              2 |
| [65535.70](#event-6553570) | 0x050D       |     16 |              2 |
| [65535.71](#event-6553571) | 0x051D       |     14 |              2 |
| [65535.72](#event-6553572) | 0x052B       |     16 |              2 |
| [65535.73](#event-6553573) | 0x053B       |     14 |              2 |
| [65535.74](#event-6553574) | 0x0549       |     16 |              2 |
| [65535.75](#event-6553575) | 0x0559       |     14 |              2 |

## DAT References (imed_data)

|   Index | Hex Value   |   Dec Value |
|---------|-------------|-------------|
|       0 | 0x0008      |           8 |
|       1 | 0x000F      |          15 |
|       2 | 0x0000      |           0 |
|       3 | 0x00FD      |         253 |
|       4 | 0x0083      |         131 |
|       5 | 0x0096      |         150 |
|       6 | 0x00E7      |         231 |
|       7 | 0x0001      |           1 |
|       8 | 0x0156      |         342 |
|       9 | 0x000D      |          13 |
|      10 | 0xFFFFE775  |  4294961013 |
|      11 | 0xFFFE8234  |  4294869556 |
|      12 | 0xFFFFFF6C  |  4294967148 |
|      13 | 0xFFFFE202  |  4294959618 |
|      14 | 0xFFFE83E3  |  4294869987 |
|      15 | 0xFFFFE7A6  |  4294961062 |
|      16 | 0xFFFE8CE9  |  4294872297 |
|      17 | 0x099D      |        2461 |
|      18 | 0xFFFE9835  |  4294875189 |
|      19 | 0x001E      |          30 |
|      20 | 0x1497      |        5271 |
|      21 | 0xFFFE9ED8  |  4294876888 |
|      22 | 0xFFFFDF85  |  4294958981 |
|      23 | 0xFFFE8117  |  4294869271 |
|      24 | 0x0553      |        1363 |
|      25 | 0x456E      |       17774 |
|      26 | 0xFFFEE1DB  |  4294894043 |
|      27 | 0x0028      |          40 |
|      28 | 0x4D03      |       19715 |
|      29 | 0xFFFEA819  |  4294879257 |
|      30 | 0x005A      |          90 |
|      31 | 0x4B55      |       19285 |
|      32 | 0xFFFE6F71  |  4294864753 |
|      33 | 0x0006      |           6 |
|      34 | 0x0140      |         320 |
|      35 | 0x00EF      |         239 |
|      36 | 0x0168      |         360 |
|      37 | 0xFFFFBD4E  |  4294950222 |
|      38 | 0x0007      |           7 |
|      39 | 0xFFFFA653  |  4294944339 |
|      40 | 0x0014      |          20 |
|      41 | 0x008F      |         143 |
|      42 | 0x0017      |          23 |
|      43 | 0xFFFD95E5  |  4294809061 |
|      44 | 0xFFFF9692  |  4294940306 |
|      45 | 0x0A8B      |        2699 |
|      46 | 0xFFFD8457  |  4294804567 |
|      47 | 0xFFFF968C  |  4294940300 |
|      48 | 0xFFFD735F  |  4294800223 |
|      49 | 0xFFFF9663  |  4294940259 |
|      50 | 0x0DFC      |        3580 |
|      51 | 0x0005      |           5 |
|      52 | 0x0004      |           4 |
|      53 | 0x005E      |          94 |
|      54 | 0x0066      |         102 |
|      55 | 0x0054      |          84 |
|      56 | 0xFFFF22F5  |  4294910709 |
|      57 | 0xFFFFE320  |  4294959904 |
|      58 | 0xFFFFFE0C  |  4294966796 |
|      59 | 0xFFFF172D  |  4294907693 |
|      60 | 0x04A5      |        1189 |
|      61 | 0x0009      |           9 |
|      62 | 0x0095      |         149 |
|      63 | 0x0047      |          71 |
|      64 | 0x004E      |          78 |

## Events

### Event 65535

#### Metadata

| Field        | Value   |
|--------------|---------|
| Entrypoint   | 0x0000  |
| Data Size    | 1 bytes |
| Instructions | 1       |

```
      00 01 02 03 04 05 06 07  08 09 0A 0B 0C 0D 0E 0F
      -- -- -- -- -- -- -- --  -- -- -- -- -- -- -- --
0000: 00                                                .               
```

#### Opcodes

```
  0: 0x0000 [0x00] END_REQSTACK()
```

### Event 5056

#### Metadata

| Field        | Value   |
|--------------|---------|
| Entrypoint   | 0x0001  |
| Data Size    | 7 bytes |
| Instructions | 2       |

```
      00 01 02 03 04 05 06 07  08 09 0A 0B 0C 0D 0E 0F
      -- -- -- -- -- -- -- --  -- -- -- -- -- -- -- --
0000:    92 01 F8 FF FF 7F 00                            .......        
```

#### Opcodes

```
  0: 0x0001 [0x92] EventEntity->Render.Flags3 ^= 0x01
  1: 0x0007 [0x00] END_REQSTACK()
```

### Event 65535.1

#### Metadata

| Field        | Value    |
|--------------|----------|
| Entrypoint   | 0x0008   |
| Data Size    | 21 bytes |
| Instructions | 2        |

```
      00 01 02 03 04 05 06 07  08 09 0A 0B 0C 0D 0E 0F
      -- -- -- -- -- -- -- --  -- -- -- -- -- -- -- --
0000:                          B6 0B 00 80 01 80 02 80          ........
0010: 03 80 04 80 05 80 06 80  02 80 02 80 00           .............   
```

#### Opcodes

```
  0: 0x0008 [0xB6] ENTITY_APPEARANCE_HANDLER(case=Full entity look, race=8*, hair=15*, head=0*, body=253*, hands=131*, legs=150*, feet=231*, main=0*, sub=0*)
  1: 0x001C [0x00] END_REQSTACK()
```

### Event 65535.2

#### Metadata

| Field        | Value    |
|--------------|----------|
| Entrypoint   | 0x001D   |
| Data Size    | 45 bytes |
| Instructions | 4        |

```
      00 01 02 03 04 05 06 07  08 09 0A 0B 0C 0D 0E 0F
      -- -- -- -- -- -- -- --  -- -- -- -- -- -- -- --
0010:                                         B4 00 00               ...
0020: 00 41 72 69 73 74 69 64  65 00 00 00 00 00 00 00  .Aristide.......
0030: 00 B5 00 00 00 B6 0B 07  80 00 80 08 80 08 80 08  ................
0040: 80 08 80 08 80 02 80 02  80 00                    ..........      
```

#### Opcodes

```
  0: 0x001D [0xB4] UI_WINDOW_STRING_HANDLER(case=0x00 - Copy string from opcode, work_offset=ExtData[1]->WorkLocal[0], string="Aristide")
  1: 0x0031 [0xB5] SET_EVENT_ENTITY_NAME: Change EventEntity name to ExtData[1]->WorkLocal[0]
  2: 0x0035 [0xB6] ENTITY_APPEARANCE_HANDLER(case=Full entity look, race=1*, hair=8*, head=342*, body=342*, hands=342*, legs=342*, feet=342*, main=0*, sub=0*)
  3: 0x0049 [0x00] END_REQSTACK()
```

### Event 65535.3

#### Metadata

| Field        | Value    |
|--------------|----------|
| Entrypoint   | 0x004A   |
| Data Size    | 24 bytes |
| Instructions | 5        |

```
      00 01 02 03 04 05 06 07  08 09 0A 0B 0C 0D 0E 0F
      -- -- -- -- -- -- -- --  -- -- -- -- -- -- -- --
0040:                                32 09 80 1F 00 0A            2.....
0050: 80 0B 80 0C 80 1F 01 79  00 F0 FF FF 7F CB 00 10  .......y........
0060: 01 00                                             ..              
```

#### Opcodes

```
  0: 0x004A [0x32] ExtData[1]->MainSpeed = 13* * 0.1
  1: 0x004D [0x1F] MOVE_ENTITY: EventEntity moves to X=-6.283*, Z=-97.740*, Y=-0.148*
  2: 0x0055 [0x1F] MOVE_ENTITY: Update entity position (mode=1)
  3: 0x0057 [0x79] LocalPlayer looks at Aristide (ID: 17825995/0x011000CB) (Basic look)
  4: 0x0061 [0x00] END_REQSTACK()
```

### Event 65535.4

#### Metadata

| Field        | Value    |
|--------------|----------|
| Entrypoint   | 0x0062   |
| Data Size    | 14 bytes |
| Instructions | 4        |

```
      00 01 02 03 04 05 06 07  08 09 0A 0B 0C 0D 0E 0F
      -- -- -- -- -- -- -- --  -- -- -- -- -- -- -- --
0060:       32 09 80 1F 00 0D  80 0E 80 0C 80 1F 01 00    2.............
```

#### Opcodes

```
  0: 0x0062 [0x32] ExtData[1]->MainSpeed = 13* * 0.1
  1: 0x0065 [0x1F] MOVE_ENTITY: EventEntity moves to X=-7.678*, Z=-97.309*, Y=-0.148*
  2: 0x006D [0x1F] MOVE_ENTITY: Update entity position (mode=1)
  3: 0x006F [0x00] END_REQSTACK()
```

### Event 65535.5

#### Metadata

| Field        | Value    |
|--------------|----------|
| Entrypoint   | 0x0070   |
| Data Size    | 24 bytes |
| Instructions | 6        |

```
      00 01 02 03 04 05 06 07  08 09 0A 0B 0C 0D 0E 0F
      -- -- -- -- -- -- -- --  -- -- -- -- -- -- -- --
0070: 32 09 80 1F 00 0F 80 10  80 0C 80 1F 01 1F 00 11  2...............
0080: 80 12 80 02 80 1F 01 00                           ........        
```

#### Opcodes

```
  0: 0x0070 [0x32] ExtData[1]->MainSpeed = 13* * 0.1
  1: 0x0073 [0x1F] MOVE_ENTITY: EventEntity moves to X=-6.234*, Z=-94.999*, Y=-0.148*
  2: 0x007B [0x1F] MOVE_ENTITY: Update entity position (mode=1)
  3: 0x007D [0x1F] MOVE_ENTITY: EventEntity moves to X=2.461*, Z=-92.107*, Y=0.000*
  4: 0x0085 [0x1F] MOVE_ENTITY: Update entity position (mode=1)
  5: 0x0087 [0x00] END_REQSTACK()
```

### Event 5035

#### Metadata

| Field        | Value   |
|--------------|---------|
| Entrypoint   | 0x0088  |
| Data Size    | 7 bytes |
| Instructions | 2       |

```
      00 01 02 03 04 05 06 07  08 09 0A 0B 0C 0D 0E 0F
      -- -- -- -- -- -- -- --  -- -- -- -- -- -- -- --
0080:                          92 01 F8 FF FF 7F 00             ....... 
```

#### Opcodes

```
  0: 0x0088 [0x92] EventEntity->Render.Flags3 ^= 0x01
  1: 0x008E [0x00] END_REQSTACK()
```

### Event 65535.6

#### Metadata

| Field        | Value    |
|--------------|----------|
| Entrypoint   | 0x008F   |
| Data Size    | 32 bytes |
| Instructions | 7        |

```
      00 01 02 03 04 05 06 07  08 09 0A 0B 0C 0D 0E 0F
      -- -- -- -- -- -- -- --  -- -- -- -- -- -- -- --
0080:                                               32                 2
0090: 09 80 1F 00 0A 80 0B 80  0C 80 1F 01 1E C9 00 10  ................
00A0: 01 79 00 F0 FF FF 7F CB  00 10 01 1C 13 80 00     .y............. 
```

#### Opcodes

```
  0: 0x008F [0x32] ExtData[1]->MainSpeed = 13* * 0.1
  1: 0x0092 [0x1F] MOVE_ENTITY: EventEntity moves to X=-6.283*, Z=-97.740*, Y=-0.148*
  2: 0x009A [0x1F] MOVE_ENTITY: Update entity position (mode=1)
  3: 0x009C [0x1E] EventEntity looks at Pagnelle (ID: 17825993/0x011000C9) and starts talking
  4: 0x00A1 [0x79] LocalPlayer looks at Aristide (ID: 17825995/0x011000CB) (Basic look)
  5: 0x00AB [0x1C] WAIT(30* ticks)
  6: 0x00AE [0x00] END_REQSTACK()
```

### Event 65535.7

#### Metadata

| Field        | Value    |
|--------------|----------|
| Entrypoint   | 0x00AF   |
| Data Size    | 14 bytes |
| Instructions | 4        |

```
      00 01 02 03 04 05 06 07  08 09 0A 0B 0C 0D 0E 0F
      -- -- -- -- -- -- -- --  -- -- -- -- -- -- -- --
00A0:                                               32                 2
00B0: 09 80 1F 00 14 80 15 80  02 80 1F 01 00           .............   
```

#### Opcodes

```
  0: 0x00AF [0x32] ExtData[1]->MainSpeed = 13* * 0.1
  1: 0x00B2 [0x1F] MOVE_ENTITY: EventEntity moves to X=5.271*, Z=-90.408*, Y=0.000*
  2: 0x00BA [0x1F] MOVE_ENTITY: Update entity position (mode=1)
  3: 0x00BC [0x00] END_REQSTACK()
```

### Event 5037

#### Metadata

| Field        | Value   |
|--------------|---------|
| Entrypoint   | 0x00BD  |
| Data Size    | 7 bytes |
| Instructions | 2       |

```
      00 01 02 03 04 05 06 07  08 09 0A 0B 0C 0D 0E 0F
      -- -- -- -- -- -- -- --  -- -- -- -- -- -- -- --
00B0:                                         92 01 F8               ...
00C0: FF FF 7F 00                                       ....            
```

#### Opcodes

```
  0: 0x00BD [0x92] EventEntity->Render.Flags3 ^= 0x01
  1: 0x00C3 [0x00] END_REQSTACK()
```

### Event 65535.8

#### Metadata

| Field        | Value    |
|--------------|----------|
| Entrypoint   | 0x00C4   |
| Data Size    | 14 bytes |
| Instructions | 4        |

```
      00 01 02 03 04 05 06 07  08 09 0A 0B 0C 0D 0E 0F
      -- -- -- -- -- -- -- --  -- -- -- -- -- -- -- --
00C0:             32 09 80 1F  00 16 80 17 80 18 80 1F      2...........
00D0: 01 00                                             ..              
```

#### Opcodes

```
  0: 0x00C4 [0x32] ExtData[1]->MainSpeed = 13* * 0.1
  1: 0x00C7 [0x1F] MOVE_ENTITY: EventEntity moves to X=-8.315*, Z=-98.025*, Y=1.363*
  2: 0x00CF [0x1F] MOVE_ENTITY: Update entity position (mode=1)
  3: 0x00D1 [0x00] END_REQSTACK()
```

### Event 65535.9

#### Metadata

| Field        | Value    |
|--------------|----------|
| Entrypoint   | 0x00D2   |
| Data Size    | 14 bytes |
| Instructions | 4        |

```
      00 01 02 03 04 05 06 07  08 09 0A 0B 0C 0D 0E 0F
      -- -- -- -- -- -- -- --  -- -- -- -- -- -- -- --
00D0:       32 09 80 1F 00 19  80 1A 80 02 80 1F 01 00    2.............
```

#### Opcodes

```
  0: 0x00D2 [0x32] ExtData[1]->MainSpeed = 13* * 0.1
  1: 0x00D5 [0x1F] MOVE_ENTITY: EventEntity moves to X=17.774*, Z=-73.253*, Y=0.000*
  2: 0x00DD [0x1F] MOVE_ENTITY: Update entity position (mode=1)
  3: 0x00DF [0x00] END_REQSTACK()
```

### Event 65535.10

#### Metadata

| Field        | Value    |
|--------------|----------|
| Entrypoint   | 0x00E0   |
| Data Size    | 30 bytes |
| Instructions | 8        |

```
      00 01 02 03 04 05 06 07  08 09 0A 0B 0C 0D 0E 0F
      -- -- -- -- -- -- -- --  -- -- -- -- -- -- -- --
00E0: 32 1B 80 1F 00 1C 80 1D  80 02 80 1F 01 6F 6E F8  2............on.
00F0: FF FF 7F 02 80 99 F8 FF  FF 7F 1C 1E 80 00        ..............  
```

#### Opcodes

```
  0: 0x00E0 [0x32] ExtData[1]->MainSpeed = 40* * 0.1
  1: 0x00E3 [0x1F] MOVE_ENTITY: EventEntity moves to X=19.715*, Z=-88.039*, Y=0.000*
  2: 0x00EB [0x1F] MOVE_ENTITY: Update entity position (mode=1)
  3: 0x00ED [0x6F] WAIT_FRAME_DELAY: Yield until WaitTime reaches zero
  4: 0x00EE [0x6E] EventEntity uses emote 0*
  5: 0x00F5 [0x99] Wait for EventEntity animation to complete
  6: 0x00FA [0x1C] WAIT(90* ticks)
  7: 0x00FD [0x00] END_REQSTACK()
```

### Event 65535.11

#### Metadata

| Field        | Value    |
|--------------|----------|
| Entrypoint   | 0x00FE   |
| Data Size    | 14 bytes |
| Instructions | 4        |

```
      00 01 02 03 04 05 06 07  08 09 0A 0B 0C 0D 0E 0F
      -- -- -- -- -- -- -- --  -- -- -- -- -- -- -- --
00F0:                                            32 1B                2.
0100: 80 1F 00 1F 80 20 80 02  80 1F 01 00              ..... ......    
```

#### Opcodes

```
  0: 0x00FE [0x32] ExtData[1]->MainSpeed = 40* * 0.1
  1: 0x0101 [0x1F] MOVE_ENTITY: EventEntity moves to X=19.285*, Z=-102.543*, Y=0.000*
  2: 0x0109 [0x1F] MOVE_ENTITY: Update entity position (mode=1)
  3: 0x010B [0x00] END_REQSTACK()
```

### Event 5019

#### Metadata

| Field        | Value    |
|--------------|----------|
| Entrypoint   | 0x010C   |
| Data Size    | 45 bytes |
| Instructions | 4        |

```
      00 01 02 03 04 05 06 07  08 09 0A 0B 0C 0D 0E 0F
      -- -- -- -- -- -- -- --  -- -- -- -- -- -- -- --
0100:                                      B4 00 00 00              ....
0110: 46 6F 73 74 61 69 67 00  00 00 00 00 00 00 00 00  Fostaig.........
0120: B5 00 00 00 B6 0B 07 80  21 80 08 80 08 80 22 80  ........!.....".
0130: 08 80 23 80 02 80 02 80  00                       ..#......       
```

#### Opcodes

```
  0: 0x010C [0xB4] UI_WINDOW_STRING_HANDLER(case=0x00 - Copy string from opcode, work_offset=ExtData[1]->WorkLocal[0], string="Fostaig")
  1: 0x0120 [0xB5] SET_EVENT_ENTITY_NAME: Change EventEntity name to ExtData[1]->WorkLocal[0]
  2: 0x0124 [0xB6] ENTITY_APPEARANCE_HANDLER(case=Full entity look, race=1*, hair=6*, head=342*, body=342*, hands=320*, legs=342*, feet=239*, main=0*, sub=0*)
  3: 0x0138 [0x00] END_REQSTACK()
```

### Event 65535.12

#### Metadata

| Field        | Value    |
|--------------|----------|
| Entrypoint   | 0x0139   |
| Data Size    | 22 bytes |
| Instructions | 6        |

```
      00 01 02 03 04 05 06 07  08 09 0A 0B 0C 0D 0E 0F
      -- -- -- -- -- -- -- --  -- -- -- -- -- -- -- --
0130:                             32 09 80 1F 00 24 80           2....$.
0140: 25 80 02 80 1F 01 1E CC  00 10 01 1C 13 80 00     %.............. 
```

#### Opcodes

```
  0: 0x0139 [0x32] ExtData[1]->MainSpeed = 13* * 0.1
  1: 0x013C [0x1F] MOVE_ENTITY: EventEntity moves to X=0.360*, Z=-17.074*, Y=0.000*
  2: 0x0144 [0x1F] MOVE_ENTITY: Update entity position (mode=1)
  3: 0x0146 [0x1E] EventEntity looks at Unnamed NPC (ID: 17825996/0x011000CC) and starts talking
  4: 0x014B [0x1C] WAIT(30* ticks)
  5: 0x014E [0x00] END_REQSTACK()
```

### Event 65535.13

#### Metadata

| Field        | Value    |
|--------------|----------|
| Entrypoint   | 0x014F   |
| Data Size    | 14 bytes |
| Instructions | 4        |

```
      00 01 02 03 04 05 06 07  08 09 0A 0B 0C 0D 0E 0F
      -- -- -- -- -- -- -- --  -- -- -- -- -- -- -- --
0140:                                               32                 2
0150: 09 80 1F 00 26 80 27 80  02 80 1F 01 00           ....&.'......   
```

#### Opcodes

```
  0: 0x014F [0x32] ExtData[1]->MainSpeed = 13* * 0.1
  1: 0x0152 [0x1F] MOVE_ENTITY: EventEntity moves to X=0.007*, Z=-22.957*, Y=0.000*
  2: 0x015A [0x1F] MOVE_ENTITY: Update entity position (mode=1)
  3: 0x015C [0x00] END_REQSTACK()
```

### Event 181

#### Metadata

| Field        | Value   |
|--------------|---------|
| Entrypoint   | 0x015D  |
| Data Size    | 1 bytes |
| Instructions | 1       |

```
      00 01 02 03 04 05 06 07  08 09 0A 0B 0C 0D 0E 0F
      -- -- -- -- -- -- -- --  -- -- -- -- -- -- -- --
0150:                                         00                     .  
```

#### Opcodes

```
  0: 0x015D [0x00] END_REQSTACK()
```

### Event 65535.14

#### Metadata

| Field        | Value    |
|--------------|----------|
| Entrypoint   | 0x015E   |
| Data Size    | 21 bytes |
| Instructions | 2        |

```
      00 01 02 03 04 05 06 07  08 09 0A 0B 0C 0D 0E 0F
      -- -- -- -- -- -- -- --  -- -- -- -- -- -- -- --
0150:                                            B6 0B                ..
0160: 00 80 07 80 28 80 29 80  2A 80 29 80 29 80 02 80  ....(.).*.).)...
0170: 02 80 00                                          ...             
```

#### Opcodes

```
  0: 0x015E [0xB6] ENTITY_APPEARANCE_HANDLER(case=Full entity look, race=8*, hair=1*, head=20*, body=143*, hands=23*, legs=143*, feet=143*, main=0*, sub=0*)
  1: 0x0172 [0x00] END_REQSTACK()
```

### Event 65535.15

#### Metadata

| Field        | Value    |
|--------------|----------|
| Entrypoint   | 0x0173   |
| Data Size    | 34 bytes |
| Instructions | 8        |

```
      00 01 02 03 04 05 06 07  08 09 0A 0B 0C 0D 0E 0F
      -- -- -- -- -- -- -- --  -- -- -- -- -- -- -- --
0170:          32 09 80 1F 00  2B 80 2C 80 2D 80 1F 01     2....+.,.-...
0180: 1F 00 2E 80 2F 80 2D 80  1F 01 1F 00 30 80 31 80  ..../.-.....0.1.
0190: 32 80 1F 01 00                                    2....           
```

#### Opcodes

```
  0: 0x0173 [0x32] ExtData[1]->MainSpeed = 13* * 0.1
  1: 0x0176 [0x1F] MOVE_ENTITY: EventEntity moves to X=-158.235*, Z=-26.990*, Y=2.699*
  2: 0x017E [0x1F] MOVE_ENTITY: Update entity position (mode=1)
  3: 0x0180 [0x1F] MOVE_ENTITY: EventEntity moves to X=-162.729*, Z=-26.996*, Y=2.699*
  4: 0x0188 [0x1F] MOVE_ENTITY: Update entity position (mode=1)
  5: 0x018A [0x1F] MOVE_ENTITY: EventEntity moves to X=-167.073*, Z=-27.037*, Y=3.580*
  6: 0x0192 [0x1F] MOVE_ENTITY: Update entity position (mode=1)
  7: 0x0194 [0x00] END_REQSTACK()
```

### Event 187

#### Metadata

| Field        | Value    |
|--------------|----------|
| Entrypoint   | 0x0195   |
| Data Size    | 51 bytes |
| Instructions | 5        |

```
      00 01 02 03 04 05 06 07  08 09 0A 0B 0C 0D 0E 0F
      -- -- -- -- -- -- -- --  -- -- -- -- -- -- -- --
0190:                B4 00 00  00 44 6F 6E 64 61 2D 42       ....Donda-B
01A0: 6F 6E 64 61 00 00 00 00  00 B5 00 00 00 B6 0B 33  onda...........3
01B0: 80 34 80 02 80 35 80 00  80 36 80 35 80 37 80 02  .4...5...6.5.7..
01C0: 80 92 01 F8 FF FF 7F 00                           ........        
```

#### Opcodes

```
  0: 0x0195 [0xB4] UI_WINDOW_STRING_HANDLER(case=0x00 - Copy string from opcode, work_offset=ExtData[1]->WorkLocal[0], string="Donda-Bonda")
  1: 0x01A9 [0xB5] SET_EVENT_ENTITY_NAME: Change EventEntity name to ExtData[1]->WorkLocal[0]
  2: 0x01AD [0xB6] ENTITY_APPEARANCE_HANDLER(case=Full entity look, race=5*, hair=4*, head=0*, body=94*, hands=8*, legs=102*, feet=94*, main=84*, sub=0*)
  3: 0x01C1 [0x92] EventEntity->Render.Flags3 ^= 0x01
  4: 0x01C7 [0x00] END_REQSTACK()
```

### Event 65535.16

#### Metadata

| Field        | Value    |
|--------------|----------|
| Entrypoint   | 0x01C8   |
| Data Size    | 22 bytes |
| Instructions | 6        |

```
      00 01 02 03 04 05 06 07  08 09 0A 0B 0C 0D 0E 0F
      -- -- -- -- -- -- -- --  -- -- -- -- -- -- -- --
01C0:                          32 1B 80 1F 00 38 80 39          2....8.9
01D0: 80 3A 80 1F 01 1E C1 00  10 01 1C 13 80 00        .:............  
```

#### Opcodes

```
  0: 0x01C8 [0x32] ExtData[1]->MainSpeed = 40* * 0.1
  1: 0x01CB [0x1F] MOVE_ENTITY: EventEntity moves to X=-56.587*, Z=-7.392*, Y=-0.500*
  2: 0x01D3 [0x1F] MOVE_ENTITY: Update entity position (mode=1)
  3: 0x01D5 [0x1E] EventEntity looks at Alianne (ID: 17825985/0x011000C1) and starts talking
  4: 0x01DA [0x1C] WAIT(30* ticks)
  5: 0x01DD [0x00] END_REQSTACK()
```

### Event 65535.17

#### Metadata

| Field        | Value    |
|--------------|----------|
| Entrypoint   | 0x01DE   |
| Data Size    | 14 bytes |
| Instructions | 4        |

```
      00 01 02 03 04 05 06 07  08 09 0A 0B 0C 0D 0E 0F
      -- -- -- -- -- -- -- --  -- -- -- -- -- -- -- --
01D0:                                            32 1B                2.
01E0: 80 1F 00 3B 80 3C 80 3A  80 1F 01 00              ...;.<.:....    
```

#### Opcodes

```
  0: 0x01DE [0x32] ExtData[1]->MainSpeed = 40* * 0.1
  1: 0x01E1 [0x1F] MOVE_ENTITY: EventEntity moves to X=-59.603*, Z=1.189*, Y=-0.500*
  2: 0x01E9 [0x1F] MOVE_ENTITY: Update entity position (mode=1)
  3: 0x01EB [0x00] END_REQSTACK()
```

### Event 172

#### Metadata

| Field        | Value    |
|--------------|----------|
| Entrypoint   | 0x01EC   |
| Data Size    | 21 bytes |
| Instructions | 2        |

```
      00 01 02 03 04 05 06 07  08 09 0A 0B 0C 0D 0E 0F
      -- -- -- -- -- -- -- --  -- -- -- -- -- -- -- --
01E0:                                      B6 0B 07 80              ....
01F0: 00 80 08 80 08 80 08 80  08 80 08 80 02 80 02 80  ................
0200: 00                                                .               
```

#### Opcodes

```
  0: 0x01EC [0xB6] ENTITY_APPEARANCE_HANDLER(case=Full entity look, race=1*, hair=8*, head=342*, body=342*, hands=342*, legs=342*, feet=342*, main=0*, sub=0*)
  1: 0x0200 [0x00] END_REQSTACK()
```

### Event 65535.18

#### Metadata

| Field        | Value    |
|--------------|----------|
| Entrypoint   | 0x0201   |
| Data Size    | 16 bytes |
| Instructions | 2        |

```
      00 01 02 03 04 05 06 07  08 09 0A 0B 0C 0D 0E 0F
      -- -- -- -- -- -- -- --  -- -- -- -- -- -- -- --
0200:    66 3D 80 F8 FF FF 7F  F8 FF FF 7F 74 6C 6B 30   f=.........tlk0
0210: 00                                                .               
```

#### Opcodes

```
  0: 0x0201 [0x66] LOAD_EXT_SCHEDULER_MAIN: Load scheduler "tlk0" with entities [EventEntity, EventEntity], work=9*
  1: 0x0210 [0x00] END_REQSTACK()
```

### Event 65535.19

#### Metadata

| Field        | Value    |
|--------------|----------|
| Entrypoint   | 0x0211   |
| Data Size    | 14 bytes |
| Instructions | 2        |

```
      00 01 02 03 04 05 06 07  08 09 0A 0B 0C 0D 0E 0F
      -- -- -- -- -- -- -- --  -- -- -- -- -- -- -- --
0210:    53 F8 FF FF 7F F8 FF  FF 7F 74 6C 6B 30 00      S........tlk0. 
```

#### Opcodes

```
  0: 0x0211 [0x53] WAIT_SCHEDULER_TASK: Wait for scheduler "tlk0" with entities [EventEntity, EventEntity]
  1: 0x021E [0x00] END_REQSTACK()
```

### Event 65535.20

#### Metadata

| Field        | Value    |
|--------------|----------|
| Entrypoint   | 0x021F   |
| Data Size    | 16 bytes |
| Instructions | 2        |

```
      00 01 02 03 04 05 06 07  08 09 0A 0B 0C 0D 0E 0F
      -- -- -- -- -- -- -- --  -- -- -- -- -- -- -- --
0210:                                               66                 f
0220: 3D 80 F8 FF FF 7F F8 FF  FF 7F 74 6C 6B 31 00     =.........tlk1. 
```

#### Opcodes

```
  0: 0x021F [0x66] LOAD_EXT_SCHEDULER_MAIN: Load scheduler "tlk1" with entities [EventEntity, EventEntity], work=9*
  1: 0x022E [0x00] END_REQSTACK()
```

### Event 65535.21

#### Metadata

| Field        | Value    |
|--------------|----------|
| Entrypoint   | 0x022F   |
| Data Size    | 14 bytes |
| Instructions | 2        |

```
      00 01 02 03 04 05 06 07  08 09 0A 0B 0C 0D 0E 0F
      -- -- -- -- -- -- -- --  -- -- -- -- -- -- -- --
0220:                                               53                 S
0230: F8 FF FF 7F F8 FF FF 7F  74 6C 6B 31 00           ........tlk1.   
```

#### Opcodes

```
  0: 0x022F [0x53] WAIT_SCHEDULER_TASK: Wait for scheduler "tlk1" with entities [EventEntity, EventEntity]
  1: 0x023C [0x00] END_REQSTACK()
```

### Event 65535.22

#### Metadata

| Field        | Value    |
|--------------|----------|
| Entrypoint   | 0x023D   |
| Data Size    | 16 bytes |
| Instructions | 2        |

```
      00 01 02 03 04 05 06 07  08 09 0A 0B 0C 0D 0E 0F
      -- -- -- -- -- -- -- --  -- -- -- -- -- -- -- --
0230:                                         66 3E 80               f>.
0240: F8 FF FF 7F F8 FF FF 7F  74 6C 6B 30 00           ........tlk0.   
```

#### Opcodes

```
  0: 0x023D [0x66] LOAD_EXT_SCHEDULER_MAIN: Load scheduler "tlk0" with entities [EventEntity, EventEntity], work=149*
  1: 0x024C [0x00] END_REQSTACK()
```

### Event 65535.23

#### Metadata

| Field        | Value    |
|--------------|----------|
| Entrypoint   | 0x024D   |
| Data Size    | 14 bytes |
| Instructions | 2        |

```
      00 01 02 03 04 05 06 07  08 09 0A 0B 0C 0D 0E 0F
      -- -- -- -- -- -- -- --  -- -- -- -- -- -- -- --
0240:                                         53 F8 FF               S..
0250: FF 7F F8 FF FF 7F 74 6C  6B 30 00                 ......tlk0.     
```

#### Opcodes

```
  0: 0x024D [0x53] WAIT_SCHEDULER_TASK: Wait for scheduler "tlk0" with entities [EventEntity, EventEntity]
  1: 0x025A [0x00] END_REQSTACK()
```

### Event 65535.24

#### Metadata

| Field        | Value    |
|--------------|----------|
| Entrypoint   | 0x025B   |
| Data Size    | 16 bytes |
| Instructions | 2        |

```
      00 01 02 03 04 05 06 07  08 09 0A 0B 0C 0D 0E 0F
      -- -- -- -- -- -- -- --  -- -- -- -- -- -- -- --
0250:                                   66 3E 80 F8 FF             f>...
0260: FF 7F F8 FF FF 7F 74 6C  6B 31 00                 ......tlk1.     
```

#### Opcodes

```
  0: 0x025B [0x66] LOAD_EXT_SCHEDULER_MAIN: Load scheduler "tlk1" with entities [EventEntity, EventEntity], work=149*
  1: 0x026A [0x00] END_REQSTACK()
```

### Event 65535.25

#### Metadata

| Field        | Value    |
|--------------|----------|
| Entrypoint   | 0x026B   |
| Data Size    | 14 bytes |
| Instructions | 2        |

```
      00 01 02 03 04 05 06 07  08 09 0A 0B 0C 0D 0E 0F
      -- -- -- -- -- -- -- --  -- -- -- -- -- -- -- --
0260:                                   53 F8 FF FF 7F             S....
0270: F8 FF FF 7F 74 6C 6B 31  00                       ....tlk1.       
```

#### Opcodes

```
  0: 0x026B [0x53] WAIT_SCHEDULER_TASK: Wait for scheduler "tlk1" with entities [EventEntity, EventEntity]
  1: 0x0278 [0x00] END_REQSTACK()
```

### Event 65535.26

#### Metadata

| Field        | Value    |
|--------------|----------|
| Entrypoint   | 0x0279   |
| Data Size    | 16 bytes |
| Instructions | 2        |

```
      00 01 02 03 04 05 06 07  08 09 0A 0B 0C 0D 0E 0F
      -- -- -- -- -- -- -- --  -- -- -- -- -- -- -- --
0270:                             66 3E 80 F8 FF FF 7F           f>.....
0280: F8 FF FF 7F 73 61 73 30  00                       ....sas0.       
```

#### Opcodes

```
  0: 0x0279 [0x66] LOAD_EXT_SCHEDULER_MAIN: Load scheduler "sas0" with entities [EventEntity, EventEntity], work=149*
  1: 0x0288 [0x00] END_REQSTACK()
```

### Event 65535.27

#### Metadata

| Field        | Value    |
|--------------|----------|
| Entrypoint   | 0x0289   |
| Data Size    | 14 bytes |
| Instructions | 2        |

```
      00 01 02 03 04 05 06 07  08 09 0A 0B 0C 0D 0E 0F
      -- -- -- -- -- -- -- --  -- -- -- -- -- -- -- --
0280:                             53 F8 FF FF 7F F8 FF           S......
0290: FF 7F 73 61 73 30 00                              ..sas0.         
```

#### Opcodes

```
  0: 0x0289 [0x53] WAIT_SCHEDULER_TASK: Wait for scheduler "sas0" with entities [EventEntity, EventEntity]
  1: 0x0296 [0x00] END_REQSTACK()
```

### Event 65535.28

#### Metadata

| Field        | Value    |
|--------------|----------|
| Entrypoint   | 0x0297   |
| Data Size    | 16 bytes |
| Instructions | 2        |

```
      00 01 02 03 04 05 06 07  08 09 0A 0B 0C 0D 0E 0F
      -- -- -- -- -- -- -- --  -- -- -- -- -- -- -- --
0290:                      66  3E 80 F8 FF FF 7F F8 FF         f>.......
02A0: FF 7F 73 61 73 31 00                              ..sas1.         
```

#### Opcodes

```
  0: 0x0297 [0x66] LOAD_EXT_SCHEDULER_MAIN: Load scheduler "sas1" with entities [EventEntity, EventEntity], work=149*
  1: 0x02A6 [0x00] END_REQSTACK()
```

### Event 65535.29

#### Metadata

| Field        | Value    |
|--------------|----------|
| Entrypoint   | 0x02A7   |
| Data Size    | 14 bytes |
| Instructions | 2        |

```
      00 01 02 03 04 05 06 07  08 09 0A 0B 0C 0D 0E 0F
      -- -- -- -- -- -- -- --  -- -- -- -- -- -- -- --
02A0:                      53  F8 FF FF 7F F8 FF FF 7F         S........
02B0: 73 61 73 31 00                                    sas1.           
```

#### Opcodes

```
  0: 0x02A7 [0x53] WAIT_SCHEDULER_TASK: Wait for scheduler "sas1" with entities [EventEntity, EventEntity]
  1: 0x02B4 [0x00] END_REQSTACK()
```

### Event 65535.30

#### Metadata

| Field        | Value    |
|--------------|----------|
| Entrypoint   | 0x02B5   |
| Data Size    | 16 bytes |
| Instructions | 2        |

```
      00 01 02 03 04 05 06 07  08 09 0A 0B 0C 0D 0E 0F
      -- -- -- -- -- -- -- --  -- -- -- -- -- -- -- --
02B0:                66 3E 80  F8 FF FF 7F F8 FF FF 7F       f>.........
02C0: 75 64 65 30 00                                    ude0.           
```

#### Opcodes

```
  0: 0x02B5 [0x66] LOAD_EXT_SCHEDULER_MAIN: Load scheduler "ude0" with entities [EventEntity, EventEntity], work=149*
  1: 0x02C4 [0x00] END_REQSTACK()
```

### Event 65535.31

#### Metadata

| Field        | Value    |
|--------------|----------|
| Entrypoint   | 0x02C5   |
| Data Size    | 14 bytes |
| Instructions | 2        |

```
      00 01 02 03 04 05 06 07  08 09 0A 0B 0C 0D 0E 0F
      -- -- -- -- -- -- -- --  -- -- -- -- -- -- -- --
02C0:                53 F8 FF  FF 7F F8 FF FF 7F 75 64       S........ud
02D0: 65 30 00                                          e0.             
```

#### Opcodes

```
  0: 0x02C5 [0x53] WAIT_SCHEDULER_TASK: Wait for scheduler "ude0" with entities [EventEntity, EventEntity]
  1: 0x02D2 [0x00] END_REQSTACK()
```

### Event 65535.32

#### Metadata

| Field        | Value    |
|--------------|----------|
| Entrypoint   | 0x02D3   |
| Data Size    | 16 bytes |
| Instructions | 2        |

```
      00 01 02 03 04 05 06 07  08 09 0A 0B 0C 0D 0E 0F
      -- -- -- -- -- -- -- --  -- -- -- -- -- -- -- --
02D0:          66 3E 80 F8 FF  FF 7F F8 FF FF 7F 75 79     f>.........uy
02E0: 65 73 00                                          es.             
```

#### Opcodes

```
  0: 0x02D3 [0x66] LOAD_EXT_SCHEDULER_MAIN: Load scheduler "uyes" with entities [EventEntity, EventEntity], work=149*
  1: 0x02E2 [0x00] END_REQSTACK()
```

### Event 65535.33

#### Metadata

| Field        | Value    |
|--------------|----------|
| Entrypoint   | 0x02E3   |
| Data Size    | 14 bytes |
| Instructions | 2        |

```
      00 01 02 03 04 05 06 07  08 09 0A 0B 0C 0D 0E 0F
      -- -- -- -- -- -- -- --  -- -- -- -- -- -- -- --
02E0:          53 F8 FF FF 7F  F8 FF FF 7F 75 79 65 73     S........uyes
02F0: 00                                                .               
```

#### Opcodes

```
  0: 0x02E3 [0x53] WAIT_SCHEDULER_TASK: Wait for scheduler "uyes" with entities [EventEntity, EventEntity]
  1: 0x02F0 [0x00] END_REQSTACK()
```

### Event 65535.34

#### Metadata

| Field        | Value    |
|--------------|----------|
| Entrypoint   | 0x02F1   |
| Data Size    | 16 bytes |
| Instructions | 2        |

```
      00 01 02 03 04 05 06 07  08 09 0A 0B 0C 0D 0E 0F
      -- -- -- -- -- -- -- --  -- -- -- -- -- -- -- --
02F0:    66 3D 80 F8 FF FF 7F  F8 FF FF 7F 74 68 6B 31   f=.........thk1
0300: 00                                                .               
```

#### Opcodes

```
  0: 0x02F1 [0x66] LOAD_EXT_SCHEDULER_MAIN: Load scheduler "thk1" with entities [EventEntity, EventEntity], work=9*
  1: 0x0300 [0x00] END_REQSTACK()
```

### Event 65535.35

#### Metadata

| Field        | Value    |
|--------------|----------|
| Entrypoint   | 0x0301   |
| Data Size    | 14 bytes |
| Instructions | 2        |

```
      00 01 02 03 04 05 06 07  08 09 0A 0B 0C 0D 0E 0F
      -- -- -- -- -- -- -- --  -- -- -- -- -- -- -- --
0300:    53 F8 FF FF 7F F8 FF  FF 7F 74 68 6B 31 00      S........thk1. 
```

#### Opcodes

```
  0: 0x0301 [0x53] WAIT_SCHEDULER_TASK: Wait for scheduler "thk1" with entities [EventEntity, EventEntity]
  1: 0x030E [0x00] END_REQSTACK()
```

### Event 65535.36

#### Metadata

| Field        | Value    |
|--------------|----------|
| Entrypoint   | 0x030F   |
| Data Size    | 16 bytes |
| Instructions | 2        |

```
      00 01 02 03 04 05 06 07  08 09 0A 0B 0C 0D 0E 0F
      -- -- -- -- -- -- -- --  -- -- -- -- -- -- -- --
0300:                                               66                 f
0310: 3D 80 F8 FF FF 7F F8 FF  FF 7F 74 68 6B 32 00     =.........thk2. 
```

#### Opcodes

```
  0: 0x030F [0x66] LOAD_EXT_SCHEDULER_MAIN: Load scheduler "thk2" with entities [EventEntity, EventEntity], work=9*
  1: 0x031E [0x00] END_REQSTACK()
```

### Event 65535.37

#### Metadata

| Field        | Value    |
|--------------|----------|
| Entrypoint   | 0x031F   |
| Data Size    | 14 bytes |
| Instructions | 2        |

```
      00 01 02 03 04 05 06 07  08 09 0A 0B 0C 0D 0E 0F
      -- -- -- -- -- -- -- --  -- -- -- -- -- -- -- --
0310:                                               53                 S
0320: F8 FF FF 7F F8 FF FF 7F  74 68 6B 32 00           ........thk2.   
```

#### Opcodes

```
  0: 0x031F [0x53] WAIT_SCHEDULER_TASK: Wait for scheduler "thk2" with entities [EventEntity, EventEntity]
  1: 0x032C [0x00] END_REQSTACK()
```

### Event 65535.38

#### Metadata

| Field        | Value    |
|--------------|----------|
| Entrypoint   | 0x032D   |
| Data Size    | 16 bytes |
| Instructions | 2        |

```
      00 01 02 03 04 05 06 07  08 09 0A 0B 0C 0D 0E 0F
      -- -- -- -- -- -- -- --  -- -- -- -- -- -- -- --
0320:                                         66 3D 80               f=.
0330: F8 FF FF 7F F8 FF FF 7F  73 68 61 30 00           ........sha0.   
```

#### Opcodes

```
  0: 0x032D [0x66] LOAD_EXT_SCHEDULER_MAIN: Load scheduler "sha0" with entities [EventEntity, EventEntity], work=9*
  1: 0x033C [0x00] END_REQSTACK()
```

### Event 65535.39

#### Metadata

| Field        | Value    |
|--------------|----------|
| Entrypoint   | 0x033D   |
| Data Size    | 14 bytes |
| Instructions | 2        |

```
      00 01 02 03 04 05 06 07  08 09 0A 0B 0C 0D 0E 0F
      -- -- -- -- -- -- -- --  -- -- -- -- -- -- -- --
0330:                                         53 F8 FF               S..
0340: FF 7F F8 FF FF 7F 73 68  61 30 00                 ......sha0.     
```

#### Opcodes

```
  0: 0x033D [0x53] WAIT_SCHEDULER_TASK: Wait for scheduler "sha0" with entities [EventEntity, EventEntity]
  1: 0x034A [0x00] END_REQSTACK()
```

### Event 65535.40

#### Metadata

| Field        | Value    |
|--------------|----------|
| Entrypoint   | 0x034B   |
| Data Size    | 16 bytes |
| Instructions | 2        |

```
      00 01 02 03 04 05 06 07  08 09 0A 0B 0C 0D 0E 0F
      -- -- -- -- -- -- -- --  -- -- -- -- -- -- -- --
0340:                                   66 3D 80 F8 FF             f=...
0350: FF 7F F8 FF FF 7F 73 68  61 31 00                 ......sha1.     
```

#### Opcodes

```
  0: 0x034B [0x66] LOAD_EXT_SCHEDULER_MAIN: Load scheduler "sha1" with entities [EventEntity, EventEntity], work=9*
  1: 0x035A [0x00] END_REQSTACK()
```

### Event 65535.41

#### Metadata

| Field        | Value    |
|--------------|----------|
| Entrypoint   | 0x035B   |
| Data Size    | 14 bytes |
| Instructions | 2        |

```
      00 01 02 03 04 05 06 07  08 09 0A 0B 0C 0D 0E 0F
      -- -- -- -- -- -- -- --  -- -- -- -- -- -- -- --
0350:                                   53 F8 FF FF 7F             S....
0360: F8 FF FF 7F 73 68 61 31  00                       ....sha1.       
```

#### Opcodes

```
  0: 0x035B [0x53] WAIT_SCHEDULER_TASK: Wait for scheduler "sha1" with entities [EventEntity, EventEntity]
  1: 0x0368 [0x00] END_REQSTACK()
```

### Event 65535.42

#### Metadata

| Field        | Value    |
|--------------|----------|
| Entrypoint   | 0x0369   |
| Data Size    | 16 bytes |
| Instructions | 2        |

```
      00 01 02 03 04 05 06 07  08 09 0A 0B 0C 0D 0E 0F
      -- -- -- -- -- -- -- --  -- -- -- -- -- -- -- --
0360:                             66 3D 80 F8 FF FF 7F           f=.....
0370: F8 FF FF 7F 73 68 61 32  00                       ....sha2.       
```

#### Opcodes

```
  0: 0x0369 [0x66] LOAD_EXT_SCHEDULER_MAIN: Load scheduler "sha2" with entities [EventEntity, EventEntity], work=9*
  1: 0x0378 [0x00] END_REQSTACK()
```

### Event 65535.43

#### Metadata

| Field        | Value    |
|--------------|----------|
| Entrypoint   | 0x0379   |
| Data Size    | 14 bytes |
| Instructions | 2        |

```
      00 01 02 03 04 05 06 07  08 09 0A 0B 0C 0D 0E 0F
      -- -- -- -- -- -- -- --  -- -- -- -- -- -- -- --
0370:                             53 F8 FF FF 7F F8 FF           S......
0380: FF 7F 73 68 61 32 00                              ..sha2.         
```

#### Opcodes

```
  0: 0x0379 [0x53] WAIT_SCHEDULER_TASK: Wait for scheduler "sha2" with entities [EventEntity, EventEntity]
  1: 0x0386 [0x00] END_REQSTACK()
```

### Event 65535.44

#### Metadata

| Field        | Value    |
|--------------|----------|
| Entrypoint   | 0x0387   |
| Data Size    | 16 bytes |
| Instructions | 2        |

```
      00 01 02 03 04 05 06 07  08 09 0A 0B 0C 0D 0E 0F
      -- -- -- -- -- -- -- --  -- -- -- -- -- -- -- --
0380:                      66  3D 80 F8 FF FF 7F F8 FF         f=.......
0390: FF 7F 73 69 72 30 00                              ..sir0.         
```

#### Opcodes

```
  0: 0x0387 [0x66] LOAD_EXT_SCHEDULER_MAIN: Load scheduler "sir0" with entities [EventEntity, EventEntity], work=9*
  1: 0x0396 [0x00] END_REQSTACK()
```

### Event 65535.45

#### Metadata

| Field        | Value    |
|--------------|----------|
| Entrypoint   | 0x0397   |
| Data Size    | 14 bytes |
| Instructions | 2        |

```
      00 01 02 03 04 05 06 07  08 09 0A 0B 0C 0D 0E 0F
      -- -- -- -- -- -- -- --  -- -- -- -- -- -- -- --
0390:                      53  F8 FF FF 7F F8 FF FF 7F         S........
03A0: 73 69 72 30 00                                    sir0.           
```

#### Opcodes

```
  0: 0x0397 [0x53] WAIT_SCHEDULER_TASK: Wait for scheduler "sir0" with entities [EventEntity, EventEntity]
  1: 0x03A4 [0x00] END_REQSTACK()
```

### Event 65535.46

#### Metadata

| Field        | Value    |
|--------------|----------|
| Entrypoint   | 0x03A5   |
| Data Size    | 16 bytes |
| Instructions | 2        |

```
      00 01 02 03 04 05 06 07  08 09 0A 0B 0C 0D 0E 0F
      -- -- -- -- -- -- -- --  -- -- -- -- -- -- -- --
03A0:                66 3D 80  F8 FF FF 7F F8 FF FF 7F       f=.........
03B0: 73 69 72 31 00                                    sir1.           
```

#### Opcodes

```
  0: 0x03A5 [0x66] LOAD_EXT_SCHEDULER_MAIN: Load scheduler "sir1" with entities [EventEntity, EventEntity], work=9*
  1: 0x03B4 [0x00] END_REQSTACK()
```

### Event 65535.47

#### Metadata

| Field        | Value    |
|--------------|----------|
| Entrypoint   | 0x03B5   |
| Data Size    | 14 bytes |
| Instructions | 2        |

```
      00 01 02 03 04 05 06 07  08 09 0A 0B 0C 0D 0E 0F
      -- -- -- -- -- -- -- --  -- -- -- -- -- -- -- --
03B0:                53 F8 FF  FF 7F F8 FF FF 7F 73 69       S........si
03C0: 72 31 00                                          r1.             
```

#### Opcodes

```
  0: 0x03B5 [0x53] WAIT_SCHEDULER_TASK: Wait for scheduler "sir1" with entities [EventEntity, EventEntity]
  1: 0x03C2 [0x00] END_REQSTACK()
```

### Event 65535.48

#### Metadata

| Field        | Value    |
|--------------|----------|
| Entrypoint   | 0x03C3   |
| Data Size    | 16 bytes |
| Instructions | 2        |

```
      00 01 02 03 04 05 06 07  08 09 0A 0B 0C 0D 0E 0F
      -- -- -- -- -- -- -- --  -- -- -- -- -- -- -- --
03C0:          66 3D 80 F8 FF  FF 7F F8 FF FF 7F 74 77     f=.........tw
03D0: 61 30 00                                          a0.             
```

#### Opcodes

```
  0: 0x03C3 [0x66] LOAD_EXT_SCHEDULER_MAIN: Load scheduler "twa0" with entities [EventEntity, EventEntity], work=9*
  1: 0x03D2 [0x00] END_REQSTACK()
```

### Event 65535.49

#### Metadata

| Field        | Value    |
|--------------|----------|
| Entrypoint   | 0x03D3   |
| Data Size    | 14 bytes |
| Instructions | 2        |

```
      00 01 02 03 04 05 06 07  08 09 0A 0B 0C 0D 0E 0F
      -- -- -- -- -- -- -- --  -- -- -- -- -- -- -- --
03D0:          53 F8 FF FF 7F  F8 FF FF 7F 74 77 61 30     S........twa0
03E0: 00                                                .               
```

#### Opcodes

```
  0: 0x03D3 [0x53] WAIT_SCHEDULER_TASK: Wait for scheduler "twa0" with entities [EventEntity, EventEntity]
  1: 0x03E0 [0x00] END_REQSTACK()
```

### Event 65535.50

#### Metadata

| Field        | Value    |
|--------------|----------|
| Entrypoint   | 0x03E1   |
| Data Size    | 16 bytes |
| Instructions | 2        |

```
      00 01 02 03 04 05 06 07  08 09 0A 0B 0C 0D 0E 0F
      -- -- -- -- -- -- -- --  -- -- -- -- -- -- -- --
03E0:    66 3D 80 F8 FF FF 7F  F8 FF FF 7F 74 77 61 31   f=.........twa1
03F0: 00                                                .               
```

#### Opcodes

```
  0: 0x03E1 [0x66] LOAD_EXT_SCHEDULER_MAIN: Load scheduler "twa1" with entities [EventEntity, EventEntity], work=9*
  1: 0x03F0 [0x00] END_REQSTACK()
```

### Event 65535.51

#### Metadata

| Field        | Value    |
|--------------|----------|
| Entrypoint   | 0x03F1   |
| Data Size    | 14 bytes |
| Instructions | 2        |

```
      00 01 02 03 04 05 06 07  08 09 0A 0B 0C 0D 0E 0F
      -- -- -- -- -- -- -- --  -- -- -- -- -- -- -- --
03F0:    53 F8 FF FF 7F F8 FF  FF 7F 74 77 61 31 00      S........twa1. 
```

#### Opcodes

```
  0: 0x03F1 [0x53] WAIT_SCHEDULER_TASK: Wait for scheduler "twa1" with entities [EventEntity, EventEntity]
  1: 0x03FE [0x00] END_REQSTACK()
```

### Event 65535.52

#### Metadata

| Field        | Value    |
|--------------|----------|
| Entrypoint   | 0x03FF   |
| Data Size    | 16 bytes |
| Instructions | 2        |

```
      00 01 02 03 04 05 06 07  08 09 0A 0B 0C 0D 0E 0F
      -- -- -- -- -- -- -- --  -- -- -- -- -- -- -- --
03F0:                                               66                 f
0400: 3D 80 F8 FF FF 7F F8 FF  FF 7F 74 77 62 30 00     =.........twb0. 
```

#### Opcodes

```
  0: 0x03FF [0x66] LOAD_EXT_SCHEDULER_MAIN: Load scheduler "twb0" with entities [EventEntity, EventEntity], work=9*
  1: 0x040E [0x00] END_REQSTACK()
```

### Event 65535.53

#### Metadata

| Field        | Value    |
|--------------|----------|
| Entrypoint   | 0x040F   |
| Data Size    | 14 bytes |
| Instructions | 2        |

```
      00 01 02 03 04 05 06 07  08 09 0A 0B 0C 0D 0E 0F
      -- -- -- -- -- -- -- --  -- -- -- -- -- -- -- --
0400:                                               53                 S
0410: F8 FF FF 7F F8 FF FF 7F  74 77 62 30 00           ........twb0.   
```

#### Opcodes

```
  0: 0x040F [0x53] WAIT_SCHEDULER_TASK: Wait for scheduler "twb0" with entities [EventEntity, EventEntity]
  1: 0x041C [0x00] END_REQSTACK()
```

### Event 65535.54

#### Metadata

| Field        | Value    |
|--------------|----------|
| Entrypoint   | 0x041D   |
| Data Size    | 16 bytes |
| Instructions | 2        |

```
      00 01 02 03 04 05 06 07  08 09 0A 0B 0C 0D 0E 0F
      -- -- -- -- -- -- -- --  -- -- -- -- -- -- -- --
0410:                                         66 3D 80               f=.
0420: F8 FF FF 7F F8 FF FF 7F  74 77 62 31 00           ........twb1.   
```

#### Opcodes

```
  0: 0x041D [0x66] LOAD_EXT_SCHEDULER_MAIN: Load scheduler "twb1" with entities [EventEntity, EventEntity], work=9*
  1: 0x042C [0x00] END_REQSTACK()
```

### Event 65535.55

#### Metadata

| Field        | Value    |
|--------------|----------|
| Entrypoint   | 0x042D   |
| Data Size    | 14 bytes |
| Instructions | 2        |

```
      00 01 02 03 04 05 06 07  08 09 0A 0B 0C 0D 0E 0F
      -- -- -- -- -- -- -- --  -- -- -- -- -- -- -- --
0420:                                         53 F8 FF               S..
0430: FF 7F F8 FF FF 7F 74 77  62 31 00                 ......twb1.     
```

#### Opcodes

```
  0: 0x042D [0x53] WAIT_SCHEDULER_TASK: Wait for scheduler "twb1" with entities [EventEntity, EventEntity]
  1: 0x043A [0x00] END_REQSTACK()
```

### Event 65535.56

#### Metadata

| Field        | Value    |
|--------------|----------|
| Entrypoint   | 0x043B   |
| Data Size    | 16 bytes |
| Instructions | 2        |

```
      00 01 02 03 04 05 06 07  08 09 0A 0B 0C 0D 0E 0F
      -- -- -- -- -- -- -- --  -- -- -- -- -- -- -- --
0430:                                   66 3D 80 F8 FF             f=...
0440: FF 7F F8 FF FF 7F 73 69  74 30 00                 ......sit0.     
```

#### Opcodes

```
  0: 0x043B [0x66] LOAD_EXT_SCHEDULER_MAIN: Load scheduler "sit0" with entities [EventEntity, EventEntity], work=9*
  1: 0x044A [0x00] END_REQSTACK()
```

### Event 65535.57

#### Metadata

| Field        | Value    |
|--------------|----------|
| Entrypoint   | 0x044B   |
| Data Size    | 14 bytes |
| Instructions | 2        |

```
      00 01 02 03 04 05 06 07  08 09 0A 0B 0C 0D 0E 0F
      -- -- -- -- -- -- -- --  -- -- -- -- -- -- -- --
0440:                                   53 F8 FF FF 7F             S....
0450: F8 FF FF 7F 73 69 74 30  00                       ....sit0.       
```

#### Opcodes

```
  0: 0x044B [0x53] WAIT_SCHEDULER_TASK: Wait for scheduler "sit0" with entities [EventEntity, EventEntity]
  1: 0x0458 [0x00] END_REQSTACK()
```

### Event 65535.58

#### Metadata

| Field        | Value    |
|--------------|----------|
| Entrypoint   | 0x0459   |
| Data Size    | 16 bytes |
| Instructions | 2        |

```
      00 01 02 03 04 05 06 07  08 09 0A 0B 0C 0D 0E 0F
      -- -- -- -- -- -- -- --  -- -- -- -- -- -- -- --
0450:                             66 3D 80 F8 FF FF 7F           f=.....
0460: F8 FF FF 7F 73 69 74 31  00                       ....sit1.       
```

#### Opcodes

```
  0: 0x0459 [0x66] LOAD_EXT_SCHEDULER_MAIN: Load scheduler "sit1" with entities [EventEntity, EventEntity], work=9*
  1: 0x0468 [0x00] END_REQSTACK()
```

### Event 65535.59

#### Metadata

| Field        | Value    |
|--------------|----------|
| Entrypoint   | 0x0469   |
| Data Size    | 14 bytes |
| Instructions | 2        |

```
      00 01 02 03 04 05 06 07  08 09 0A 0B 0C 0D 0E 0F
      -- -- -- -- -- -- -- --  -- -- -- -- -- -- -- --
0460:                             53 F8 FF FF 7F F8 FF           S......
0470: FF 7F 73 69 74 31 00                              ..sit1.         
```

#### Opcodes

```
  0: 0x0469 [0x53] WAIT_SCHEDULER_TASK: Wait for scheduler "sit1" with entities [EventEntity, EventEntity]
  1: 0x0476 [0x00] END_REQSTACK()
```

### Event 65535.60

#### Metadata

| Field        | Value    |
|--------------|----------|
| Entrypoint   | 0x0477   |
| Data Size    | 16 bytes |
| Instructions | 2        |

```
      00 01 02 03 04 05 06 07  08 09 0A 0B 0C 0D 0E 0F
      -- -- -- -- -- -- -- --  -- -- -- -- -- -- -- --
0470:                      66  3F 80 F8 FF FF 7F F8 FF         f?.......
0480: FF 7F 70 61 73 30 00                              ..pas0.         
```

#### Opcodes

```
  0: 0x0477 [0x66] LOAD_EXT_SCHEDULER_MAIN: Load scheduler "pas0" with entities [EventEntity, EventEntity], work=71*
  1: 0x0486 [0x00] END_REQSTACK()
```

### Event 65535.61

#### Metadata

| Field        | Value    |
|--------------|----------|
| Entrypoint   | 0x0487   |
| Data Size    | 14 bytes |
| Instructions | 2        |

```
      00 01 02 03 04 05 06 07  08 09 0A 0B 0C 0D 0E 0F
      -- -- -- -- -- -- -- --  -- -- -- -- -- -- -- --
0480:                      53  F8 FF FF 7F F8 FF FF 7F         S........
0490: 70 61 73 30 00                                    pas0.           
```

#### Opcodes

```
  0: 0x0487 [0x53] WAIT_SCHEDULER_TASK: Wait for scheduler "pas0" with entities [EventEntity, EventEntity]
  1: 0x0494 [0x00] END_REQSTACK()
```

### Event 65535.62

#### Metadata

| Field        | Value    |
|--------------|----------|
| Entrypoint   | 0x0495   |
| Data Size    | 16 bytes |
| Instructions | 2        |

```
      00 01 02 03 04 05 06 07  08 09 0A 0B 0C 0D 0E 0F
      -- -- -- -- -- -- -- --  -- -- -- -- -- -- -- --
0490:                66 40 80  F8 FF FF 7F F8 FF FF 7F       f@.........
04A0: 6C 73 30 30 00                                    ls00.           
```

#### Opcodes

```
  0: 0x0495 [0x66] LOAD_EXT_SCHEDULER_MAIN: Load scheduler "ls00" with entities [EventEntity, EventEntity], work=78*
  1: 0x04A4 [0x00] END_REQSTACK()
```

### Event 65535.63

#### Metadata

| Field        | Value    |
|--------------|----------|
| Entrypoint   | 0x04A5   |
| Data Size    | 14 bytes |
| Instructions | 2        |

```
      00 01 02 03 04 05 06 07  08 09 0A 0B 0C 0D 0E 0F
      -- -- -- -- -- -- -- --  -- -- -- -- -- -- -- --
04A0:                53 F8 FF  FF 7F F8 FF FF 7F 6C 73       S........ls
04B0: 30 30 00                                          00.             
```

#### Opcodes

```
  0: 0x04A5 [0x53] WAIT_SCHEDULER_TASK: Wait for scheduler "ls00" with entities [EventEntity, EventEntity]
  1: 0x04B2 [0x00] END_REQSTACK()
```

### Event 65535.64

#### Metadata

| Field        | Value    |
|--------------|----------|
| Entrypoint   | 0x04B3   |
| Data Size    | 16 bytes |
| Instructions | 2        |

```
      00 01 02 03 04 05 06 07  08 09 0A 0B 0C 0D 0E 0F
      -- -- -- -- -- -- -- --  -- -- -- -- -- -- -- --
04B0:          66 40 80 F8 FF  FF 7F F8 FF FF 7F 6C 73     f@.........ls
04C0: 30 31 00                                          01.             
```

#### Opcodes

```
  0: 0x04B3 [0x66] LOAD_EXT_SCHEDULER_MAIN: Load scheduler "ls01" with entities [EventEntity, EventEntity], work=78*
  1: 0x04C2 [0x00] END_REQSTACK()
```

### Event 65535.65

#### Metadata

| Field        | Value    |
|--------------|----------|
| Entrypoint   | 0x04C3   |
| Data Size    | 14 bytes |
| Instructions | 2        |

```
      00 01 02 03 04 05 06 07  08 09 0A 0B 0C 0D 0E 0F
      -- -- -- -- -- -- -- --  -- -- -- -- -- -- -- --
04C0:          53 F8 FF FF 7F  F8 FF FF 7F 6C 73 30 31     S........ls01
04D0: 00                                                .               
```

#### Opcodes

```
  0: 0x04C3 [0x53] WAIT_SCHEDULER_TASK: Wait for scheduler "ls01" with entities [EventEntity, EventEntity]
  1: 0x04D0 [0x00] END_REQSTACK()
```

### Event 65535.66

#### Metadata

| Field        | Value    |
|--------------|----------|
| Entrypoint   | 0x04D1   |
| Data Size    | 16 bytes |
| Instructions | 2        |

```
      00 01 02 03 04 05 06 07  08 09 0A 0B 0C 0D 0E 0F
      -- -- -- -- -- -- -- --  -- -- -- -- -- -- -- --
04D0:    66 40 80 F8 FF FF 7F  F8 FF FF 7F 6C 73 30 32   f@.........ls02
04E0: 00                                                .               
```

#### Opcodes

```
  0: 0x04D1 [0x66] LOAD_EXT_SCHEDULER_MAIN: Load scheduler "ls02" with entities [EventEntity, EventEntity], work=78*
  1: 0x04E0 [0x00] END_REQSTACK()
```

### Event 65535.67

#### Metadata

| Field        | Value    |
|--------------|----------|
| Entrypoint   | 0x04E1   |
| Data Size    | 14 bytes |
| Instructions | 2        |

```
      00 01 02 03 04 05 06 07  08 09 0A 0B 0C 0D 0E 0F
      -- -- -- -- -- -- -- --  -- -- -- -- -- -- -- --
04E0:    53 F8 FF FF 7F F8 FF  FF 7F 6C 73 30 32 00      S........ls02. 
```

#### Opcodes

```
  0: 0x04E1 [0x53] WAIT_SCHEDULER_TASK: Wait for scheduler "ls02" with entities [EventEntity, EventEntity]
  1: 0x04EE [0x00] END_REQSTACK()
```

### Event 65535.68

#### Metadata

| Field        | Value    |
|--------------|----------|
| Entrypoint   | 0x04EF   |
| Data Size    | 16 bytes |
| Instructions | 2        |

```
      00 01 02 03 04 05 06 07  08 09 0A 0B 0C 0D 0E 0F
      -- -- -- -- -- -- -- --  -- -- -- -- -- -- -- --
04E0:                                               66                 f
04F0: 40 80 F8 FF FF 7F F8 FF  FF 7F 6C 73 6C 30 00     @.........lsl0. 
```

#### Opcodes

```
  0: 0x04EF [0x66] LOAD_EXT_SCHEDULER_MAIN: Load scheduler "lsl0" with entities [EventEntity, EventEntity], work=78*
  1: 0x04FE [0x00] END_REQSTACK()
```

### Event 65535.69

#### Metadata

| Field        | Value    |
|--------------|----------|
| Entrypoint   | 0x04FF   |
| Data Size    | 14 bytes |
| Instructions | 2        |

```
      00 01 02 03 04 05 06 07  08 09 0A 0B 0C 0D 0E 0F
      -- -- -- -- -- -- -- --  -- -- -- -- -- -- -- --
04F0:                                               53                 S
0500: F8 FF FF 7F F8 FF FF 7F  6C 73 6C 30 00           ........lsl0.   
```

#### Opcodes

```
  0: 0x04FF [0x53] WAIT_SCHEDULER_TASK: Wait for scheduler "lsl0" with entities [EventEntity, EventEntity]
  1: 0x050C [0x00] END_REQSTACK()
```

### Event 65535.70

#### Metadata

| Field        | Value    |
|--------------|----------|
| Entrypoint   | 0x050D   |
| Data Size    | 16 bytes |
| Instructions | 2        |

```
      00 01 02 03 04 05 06 07  08 09 0A 0B 0C 0D 0E 0F
      -- -- -- -- -- -- -- --  -- -- -- -- -- -- -- --
0500:                                         66 40 80               f@.
0510: F8 FF FF 7F F8 FF FF 7F  65 75 64 30 00           ........eud0.   
```

#### Opcodes

```
  0: 0x050D [0x66] LOAD_EXT_SCHEDULER_MAIN: Load scheduler "eud0" with entities [EventEntity, EventEntity], work=78*
  1: 0x051C [0x00] END_REQSTACK()
```

### Event 65535.71

#### Metadata

| Field        | Value    |
|--------------|----------|
| Entrypoint   | 0x051D   |
| Data Size    | 14 bytes |
| Instructions | 2        |

```
      00 01 02 03 04 05 06 07  08 09 0A 0B 0C 0D 0E 0F
      -- -- -- -- -- -- -- --  -- -- -- -- -- -- -- --
0510:                                         53 F8 FF               S..
0520: FF 7F F8 FF FF 7F 65 75  64 30 00                 ......eud0.     
```

#### Opcodes

```
  0: 0x051D [0x53] WAIT_SCHEDULER_TASK: Wait for scheduler "eud0" with entities [EventEntity, EventEntity]
  1: 0x052A [0x00] END_REQSTACK()
```

### Event 65535.72

#### Metadata

| Field        | Value    |
|--------------|----------|
| Entrypoint   | 0x052B   |
| Data Size    | 16 bytes |
| Instructions | 2        |

```
      00 01 02 03 04 05 06 07  08 09 0A 0B 0C 0D 0E 0F
      -- -- -- -- -- -- -- --  -- -- -- -- -- -- -- --
0520:                                   66 40 80 F8 FF             f@...
0530: FF 7F F8 FF FF 7F 65 75  64 31 00                 ......eud1.     
```

#### Opcodes

```
  0: 0x052B [0x66] LOAD_EXT_SCHEDULER_MAIN: Load scheduler "eud1" with entities [EventEntity, EventEntity], work=78*
  1: 0x053A [0x00] END_REQSTACK()
```

### Event 65535.73

#### Metadata

| Field        | Value    |
|--------------|----------|
| Entrypoint   | 0x053B   |
| Data Size    | 14 bytes |
| Instructions | 2        |

```
      00 01 02 03 04 05 06 07  08 09 0A 0B 0C 0D 0E 0F
      -- -- -- -- -- -- -- --  -- -- -- -- -- -- -- --
0530:                                   53 F8 FF FF 7F             S....
0540: F8 FF FF 7F 65 75 64 31  00                       ....eud1.       
```

#### Opcodes

```
  0: 0x053B [0x53] WAIT_SCHEDULER_TASK: Wait for scheduler "eud1" with entities [EventEntity, EventEntity]
  1: 0x0548 [0x00] END_REQSTACK()
```

### Event 65535.74

#### Metadata

| Field        | Value    |
|--------------|----------|
| Entrypoint   | 0x0549   |
| Data Size    | 16 bytes |
| Instructions | 2        |

```
      00 01 02 03 04 05 06 07  08 09 0A 0B 0C 0D 0E 0F
      -- -- -- -- -- -- -- --  -- -- -- -- -- -- -- --
0540:                             66 40 80 F8 FF FF 7F           f@.....
0550: F8 FF FF 7F 79 65 73 30  00                       ....yes0.       
```

#### Opcodes

```
  0: 0x0549 [0x66] LOAD_EXT_SCHEDULER_MAIN: Load scheduler "yes0" with entities [EventEntity, EventEntity], work=78*
  1: 0x0558 [0x00] END_REQSTACK()
```

### Event 65535.75

#### Metadata

| Field        | Value    |
|--------------|----------|
| Entrypoint   | 0x0559   |
| Data Size    | 14 bytes |
| Instructions | 2        |

```
      00 01 02 03 04 05 06 07  08 09 0A 0B 0C 0D 0E 0F
      -- -- -- -- -- -- -- --  -- -- -- -- -- -- -- --
0550:                             53 F8 FF FF 7F F8 FF           S......
0560: FF 7F 79 65 73 30 00                              ..yes0.         
```

#### Opcodes

```
  0: 0x0559 [0x53] WAIT_SCHEDULER_TASK: Wait for scheduler "yes0" with entities [EventEntity, EventEntity]
  1: 0x0566 [0x00] END_REQSTACK()
```
