# 17826056 - Clemmar

## Common Data

| Field            | Value                     |
|------------------|---------------------------|
| Zone             | Western Adoulin (ID: 256) |
| Block Size       | 776 bytes                 |
| Total Events     | 14                        |
| References Count | 44                        |

## List of Events

| Event ID                 | Entrypoint   |   Size |   Instructions |
|--------------------------|--------------|--------|----------------|
| [65535](#event-65535)    | 0x0000       |      1 |              1 |
| [519](#event-519)        | 0x0001       |     47 |             11 |
| [570](#event-570)        | 0x0030       |     43 |              9 |
| [2](#event-2)            | 0x005B       |      1 |              1 |
| [65535.1](#event-655351) | 0x005C       |     15 |              5 |
| [65535.2](#event-655352) | 0x006B       |     24 |              3 |
| [65535.3](#event-655353) | 0x0083       |    128 |             20 |
| [65535.4](#event-655354) | 0x0103       |    131 |             21 |
| [65535.5](#event-655355) | 0x0186       |     15 |              5 |
| [65535.6](#event-655356) | 0x0195       |     15 |              5 |
| [65535.7](#event-655357) | 0x01A4       |     24 |              6 |
| [65535.8](#event-655358) | 0x01BC       |     24 |              3 |
| [2554](#event-2554)      | 0x01D4       |     57 |             17 |
| [182](#event-182)        | 0x020D       |      1 |              1 |

## DAT References (imed_data)

|   Index | Hex Value   |   Dec Value |
|---------|-------------|-------------|
|       0 | 0x0005      |           5 |
|       1 | 0x2658      |        9816 |
|       2 | 0x2659      |        9817 |
|       3 | 0x0028      |          40 |
|       4 | 0x12697     |       75415 |
|       5 | 0x24B7B     |      150395 |
|       6 | 0x7CFF      |       31999 |
|       7 | 0x0001      |           1 |
|       8 | 0x0000      |           0 |
|       9 | 0x002B      |          43 |
|      10 | 0x350B      |       13579 |
|      11 | 0x047C      |        1148 |
|      12 | 0x06D0      |        1744 |
|      13 | 0x0200      |         512 |
|      14 | 0x002D      |          45 |
|      15 | 0x0015      |          21 |
|      16 | 0x000F      |          15 |
|      17 | 0x0032      |          50 |
|      18 | 0x005A      |          90 |
|      19 | 0x001E      |          30 |
|      20 | 0x3484      |       13444 |
|      21 | 0xFFFF9418  |  4294939672 |
|      22 | 0x03E8      |        1000 |
|      23 | 0x0F71      |        3953 |
|      24 | 0x004B      |          75 |
|      25 | 0x000D      |          13 |
|      26 | 0x085C      |        2140 |
|      27 | 0xFFFFE75C  |  4294960988 |
|      28 | 0x558B7     |      350391 |
|      29 | 0xFFFFD2BA  |  4294955706 |
|      30 | 0x0FA0      |        4000 |
|      31 | 0xFFFE7A8C  |  4294867596 |
|      32 | 0xFFFFC7D5  |  4294952917 |
|      33 | 0xFFFE7BD5  |  4294867925 |
|      34 | 0x160E      |        5646 |
|      35 | 0x0D15      |        3349 |
|      36 | 0x0018      |          24 |
|      37 | 0x0031      |          49 |
|      38 | 0x00AB      |         171 |
|      39 | 0x0063      |          99 |
|      40 | 0x1F18      |        7960 |
|      41 | 0x1F19      |        7961 |
|      42 | 0x1F1A      |        7962 |
|      43 | 0x1F1B      |        7963 |

## String References

- **7960**: Hi there... Welcome to the Couriers' Coalition.
- **7961**: What? You're making rounds...to see how things are...?
- **7962**: No need to worry...about us. It's all going...well. Shipments to the coalitions...are okay. Shipments to the frontier...are okay.
- **7963**: W-we have all the local deliveries, um, covered. But we always ask p-pioneers to, er, transport jungle-bound cargo. I h-hope you'll...you know, help us out with that stuff...in the future.
- **9816**: What can the Couriers' Coalition do for you? Why, only ensure the integrity of every shipment from origin to destination!
- **9817**: Speaking of destinations, I'd wager that yours is the Pioneers' Coalition down the road that leads to the western gate.

## Events

### Event 65535

#### Metadata

| Field        | Value   |
|--------------|---------|
| Entrypoint   | 0x0000  |
| Data Size    | 1 bytes |
| Instructions | 1       |

```
      00 01 02 03 04 05 06 07  08 09 0A 0B 0C 0D 0E 0F
      -- -- -- -- -- -- -- --  -- -- -- -- -- -- -- --
0000: 00                                                .               
```

#### Opcodes

```
  0: 0x0000 [0x00] END_REQSTACK()
```

### Event 519

#### Metadata

| Field        | Value    |
|--------------|----------|
| Entrypoint   | 0x0001   |
| Data Size    | 47 bytes |
| Instructions | 11       |

```
      00 01 02 03 04 05 06 07  08 09 0A 0B 0C 0D 0E 0F
      -- -- -- -- -- -- -- --  -- -- -- -- -- -- -- --
0000:    1E F0 FF FF 7F 6F 70  66 00 80 F8 FF FF 7F F8   .....opf.......
0010: FF FF 7F 74 6C 62 30 1D  01 80 23 1D 02 80 23 66  ...tlb0...#...#f
0020: 00 80 F8 FF FF 7F F8 FF  FF 7F 74 6C 62 31 21 00  ..........tlb1!.
```

#### Opcodes

```
  0: 0x0001 [0x1E] EventEntity looks at LocalPlayer and starts talking
  1: 0x0006 [0x6F] WAIT_FRAME_DELAY: Yield until WaitTime reaches zero
  2: 0x0007 [0x70] WAIT_ENTITY_RENDER_FLAG: Wait while EventEntity->Render.Flags3 bit 2 is set (cancel turn if not)
  3: 0x0008 [0x66] LOAD_EXT_SCHEDULER_MAIN: Load scheduler "tlb0" with entities [EventEntity, EventEntity], work=5*
  4: 0x0017 [0x1D] PRINT_EVENT_MESSAGE(message_id=9816*)
    → "What can the Couriers' Coalition do for you? Why, only ensure the integrity of every shipment from origin to destination!"
  5: 0x001A [0x23] WAIT_FOR_DIALOG_INTERACTION
  6: 0x001B [0x1D] PRINT_EVENT_MESSAGE(message_id=9817*)
    → "Speaking of destinations, I'd wager that yours is the Pioneers' Coalition down the road that leads to the western gate."
  7: 0x001E [0x23] WAIT_FOR_DIALOG_INTERACTION
  8: 0x001F [0x66] LOAD_EXT_SCHEDULER_MAIN: Load scheduler "tlb1" with entities [EventEntity, EventEntity], work=5*
  9: 0x002E [0x21] END_EVENT
 10: 0x002F [0x00] END_REQSTACK()
```

### Event 570

#### Metadata

| Field        | Value    |
|--------------|----------|
| Entrypoint   | 0x0030   |
| Data Size    | 43 bytes |
| Instructions | 9        |

```
      00 01 02 03 04 05 06 07  08 09 0A 0B 0C 0D 0E 0F
      -- -- -- -- -- -- -- --  -- -- -- -- -- -- -- --
0030: 1E F0 FF FF 7F 6F 70 66  00 80 F8 FF FF 7F F8 FF  .....opf........
0040: FF 7F 74 6C 62 30 1D 01  80 23 66 00 80 F8 FF FF  ..tlb0...#f.....
0050: 7F F8 FF FF 7F 74 6C 62  31 21 00                 .....tlb1!.     
```

#### Opcodes

```
  0: 0x0030 [0x1E] EventEntity looks at LocalPlayer and starts talking
  1: 0x0035 [0x6F] WAIT_FRAME_DELAY: Yield until WaitTime reaches zero
  2: 0x0036 [0x70] WAIT_ENTITY_RENDER_FLAG: Wait while EventEntity->Render.Flags3 bit 2 is set (cancel turn if not)
  3: 0x0037 [0x66] LOAD_EXT_SCHEDULER_MAIN: Load scheduler "tlb0" with entities [EventEntity, EventEntity], work=5*
  4: 0x0046 [0x1D] PRINT_EVENT_MESSAGE(message_id=9816*)
    → "What can the Couriers' Coalition do for you? Why, only ensure the integrity of every shipment from origin to destination!"
  5: 0x0049 [0x23] WAIT_FOR_DIALOG_INTERACTION
  6: 0x004A [0x66] LOAD_EXT_SCHEDULER_MAIN: Load scheduler "tlb1" with entities [EventEntity, EventEntity], work=5*
  7: 0x0059 [0x21] END_EVENT
  8: 0x005A [0x00] END_REQSTACK()
```

### Event 2

#### Metadata

| Field        | Value   |
|--------------|---------|
| Entrypoint   | 0x005B  |
| Data Size    | 1 bytes |
| Instructions | 1       |

```
      00 01 02 03 04 05 06 07  08 09 0A 0B 0C 0D 0E 0F
      -- -- -- -- -- -- -- --  -- -- -- -- -- -- -- --
0050:                                   00                         .    
```

#### Opcodes

```
  0: 0x005B [0x00] END_REQSTACK()
```

### Event 65535.1

#### Metadata

| Field        | Value    |
|--------------|----------|
| Entrypoint   | 0x005C   |
| Data Size    | 15 bytes |
| Instructions | 5        |

```
      00 01 02 03 04 05 06 07  08 09 0A 0B 0C 0D 0E 0F
      -- -- -- -- -- -- -- --  -- -- -- -- -- -- -- --
0050:                                      32 03 80 1F              2...
0060: 00 04 80 05 80 06 80 1F  01 6F 00                 .........o.     
```

#### Opcodes

```
  0: 0x005C [0x32] ExtData[1]->MainSpeed = 40* * 0.1
  1: 0x005F [0x1F] MOVE_ENTITY: EventEntity moves to X=75.415*, Z=150.395*, Y=31.999*
  2: 0x0067 [0x1F] MOVE_ENTITY: Update entity position (mode=1)
  3: 0x0069 [0x6F] WAIT_FRAME_DELAY: Yield until WaitTime reaches zero
  4: 0x006A [0x00] END_REQSTACK()
```

### Event 65535.2

#### Metadata

| Field        | Value    |
|--------------|----------|
| Entrypoint   | 0x006B   |
| Data Size    | 24 bytes |
| Instructions | 3        |

```
      00 01 02 03 04 05 06 07  08 09 0A 0B 0C 0D 0E 0F
      -- -- -- -- -- -- -- --  -- -- -- -- -- -- -- --
0060:                                   B6 0B 07 80 00             .....
0070: 80 08 80 09 80 07 80 07  80 07 80 08 80 08 80 C0  ................
0080: 07 80 00                                          ...             
```

#### Opcodes

```
  0: 0x006B [0xB6] ENTITY_APPEARANCE_HANDLER(case=Full entity look, race=1*, hair=5*, head=0*, body=43*, hands=1*, legs=1*, feet=1*, main=0*, sub=0*)
  1: 0x007F [0xC0] EventEntity->Render.Flags3 |= 0x1000 // Set bit 12 (from 1*)
  2: 0x0082 [0x00] END_REQSTACK()
```

### Event 65535.3

#### Metadata

| Field        | Value     |
|--------------|-----------|
| Entrypoint   | 0x0083    |
| Data Size    | 128 bytes |
| Instructions | 20        |

```
      00 01 02 03 04 05 06 07  08 09 0A 0B 0C 0D 0E 0F
      -- -- -- -- -- -- -- --  -- -- -- -- -- -- -- --
0080:          32 03 80 1F 00  0A 80 0B 80 08 80 1F 01     2............
0090: 6F 4B FF 00 10 01 0C 80  4B 03 01 10 01 0D 80 6F  oK......K......o
00A0: 76 FF 00 10 01 6F 76 03  01 10 01 66 08 80 F8 FF  v....ov....f....
00B0: FF 7F F8 FF FF 7F 74 6C  6B 31 1C 0E 80 66 0F 80  ......tlk1...f..
00C0: FF 00 10 01 FF 00 10 01  64 69 73 30 1C 10 80 66  ........dis0...f
00D0: 08 80 F8 FF FF 7F F8 FF  FF 7F 74 65 6E 31 66 11  ..........ten1f.
00E0: 80 03 01 10 01 03 01 10  01 74 6C 6B 30 1C 12 80  .........tlk0...
00F0: 66 11 80 03 01 10 01 03  01 10 01 74 6C 6B 32 1C  f..........tlk2.
0100: 13 80 00                                          ...             
```

#### Opcodes

```
  0: 0x0083 [0x32] ExtData[1]->MainSpeed = 40* * 0.1
  1: 0x0086 [0x1F] MOVE_ENTITY: EventEntity moves to X=13.579*, Z=1.148*, Y=0.000*
  2: 0x008E [0x1F] MOVE_ENTITY: Update entity position (mode=1)
  3: 0x0090 [0x6F] WAIT_FRAME_DELAY: Yield until WaitTime reaches zero
  4: 0x0091 [0x4B] UPDATE_ENTITY_YAW(entity=Nikkhail (ID: 17826047/0x011000FF), yaw=9.6°*)
  5: 0x0098 [0x4B] UPDATE_ENTITY_YAW(entity=Behff Oibbah (ID: 17826051/0x01100103), yaw=2.8°*)
  6: 0x009F [0x6F] WAIT_FRAME_DELAY: Yield until WaitTime reaches zero
  7: 0x00A0 [0x76] CHECK_ENTITY_RENDER_FLAGS: Wait until Nikkhail (ID: 17826047/0x011000FF) Render.Flags0 and Render.Flags3 conditions are met
  8: 0x00A5 [0x6F] WAIT_FRAME_DELAY: Yield until WaitTime reaches zero
  9: 0x00A6 [0x76] CHECK_ENTITY_RENDER_FLAGS: Wait until Behff Oibbah (ID: 17826051/0x01100103) Render.Flags0 and Render.Flags3 conditions are met
 10: 0x00AB [0x66] LOAD_EXT_SCHEDULER_MAIN: Load scheduler "tlk1" with entities [EventEntity, EventEntity], work=0*
 11: 0x00BA [0x1C] WAIT(45* ticks)
 12: 0x00BD [0x66] LOAD_EXT_SCHEDULER_MAIN: Load scheduler "dis0" with entities [Nikkhail (ID: 17826047/0x011000FF), Nikkhail (ID: 17826047/0x011000FF)], work=21*
 13: 0x00CC [0x1C] WAIT(15* ticks)
 14: 0x00CF [0x66] LOAD_EXT_SCHEDULER_MAIN: Load scheduler "ten1" with entities [EventEntity, EventEntity], work=0*
 15: 0x00DE [0x66] LOAD_EXT_SCHEDULER_MAIN: Load scheduler "tlk0" with entities [Behff Oibbah (ID: 17826051/0x01100103), Behff Oibbah (ID: 17826051/0x01100103)], work=50*
 16: 0x00ED [0x1C] WAIT(90* ticks)
 17: 0x00F0 [0x66] LOAD_EXT_SCHEDULER_MAIN: Load scheduler "tlk2" with entities [Behff Oibbah (ID: 17826051/0x01100103), Behff Oibbah (ID: 17826051/0x01100103)], work=50*
 18: 0x00FF [0x1C] WAIT(30* ticks)
 19: 0x0102 [0x00] END_REQSTACK()
```

### Event 65535.4

#### Metadata

| Field        | Value     |
|--------------|-----------|
| Entrypoint   | 0x0103    |
| Data Size    | 131 bytes |
| Instructions | 21        |

```
      00 01 02 03 04 05 06 07  08 09 0A 0B 0C 0D 0E 0F
      -- -- -- -- -- -- -- --  -- -- -- -- -- -- -- --
0100:          1C 0E 80 32 03  80 1F 00 14 80 15 80 16     ...2.........
0110: 80 1F 01 6F 4B FF 00 10  01 0C 80 4B 03 01 10 01  ...oK......K....
0120: 17 80 6F 76 FF 00 10 01  6F 76 03 01 10 01 66 08  ..ov....ov....f.
0130: 80 F8 FF FF 7F F8 FF FF  7F 74 6C 6B 31 1C 0E 80  .........tlk1...
0140: 66 0F 80 FF 00 10 01 FF  00 10 01 64 69 73 30 1C  f..........dis0.
0150: 10 80 66 08 80 F8 FF FF  7F F8 FF FF 7F 74 65 6E  ..f..........ten
0160: 31 66 11 80 03 01 10 01  03 01 10 01 74 6C 6B 30  1f..........tlk0
0170: 1C 18 80 66 11 80 03 01  10 01 03 01 10 01 74 6C  ...f..........tl
0180: 6B 32 1C 13 80 00                                 k2....          
```

#### Opcodes

```
  0: 0x0103 [0x1C] WAIT(45* ticks)
  1: 0x0106 [0x32] ExtData[1]->MainSpeed = 40* * 0.1
  2: 0x0109 [0x1F] MOVE_ENTITY: EventEntity moves to X=13.444*, Z=-27.624*, Y=1.000*
  3: 0x0111 [0x1F] MOVE_ENTITY: Update entity position (mode=1)
  4: 0x0113 [0x6F] WAIT_FRAME_DELAY: Yield until WaitTime reaches zero
  5: 0x0114 [0x4B] UPDATE_ENTITY_YAW(entity=Nikkhail (ID: 17826047/0x011000FF), yaw=9.6°*)
  6: 0x011B [0x4B] UPDATE_ENTITY_YAW(entity=Behff Oibbah (ID: 17826051/0x01100103), yaw=21.7°*)
  7: 0x0122 [0x6F] WAIT_FRAME_DELAY: Yield until WaitTime reaches zero
  8: 0x0123 [0x76] CHECK_ENTITY_RENDER_FLAGS: Wait until Nikkhail (ID: 17826047/0x011000FF) Render.Flags0 and Render.Flags3 conditions are met
  9: 0x0128 [0x6F] WAIT_FRAME_DELAY: Yield until WaitTime reaches zero
 10: 0x0129 [0x76] CHECK_ENTITY_RENDER_FLAGS: Wait until Behff Oibbah (ID: 17826051/0x01100103) Render.Flags0 and Render.Flags3 conditions are met
 11: 0x012E [0x66] LOAD_EXT_SCHEDULER_MAIN: Load scheduler "tlk1" with entities [EventEntity, EventEntity], work=0*
 12: 0x013D [0x1C] WAIT(45* ticks)
 13: 0x0140 [0x66] LOAD_EXT_SCHEDULER_MAIN: Load scheduler "dis0" with entities [Nikkhail (ID: 17826047/0x011000FF), Nikkhail (ID: 17826047/0x011000FF)], work=21*
 14: 0x014F [0x1C] WAIT(15* ticks)
 15: 0x0152 [0x66] LOAD_EXT_SCHEDULER_MAIN: Load scheduler "ten1" with entities [EventEntity, EventEntity], work=0*
 16: 0x0161 [0x66] LOAD_EXT_SCHEDULER_MAIN: Load scheduler "tlk0" with entities [Behff Oibbah (ID: 17826051/0x01100103), Behff Oibbah (ID: 17826051/0x01100103)], work=50*
 17: 0x0170 [0x1C] WAIT(75* ticks)
 18: 0x0173 [0x66] LOAD_EXT_SCHEDULER_MAIN: Load scheduler "tlk2" with entities [Behff Oibbah (ID: 17826051/0x01100103), Behff Oibbah (ID: 17826051/0x01100103)], work=50*
 19: 0x0182 [0x1C] WAIT(30* ticks)
 20: 0x0185 [0x00] END_REQSTACK()
```

### Event 65535.5

#### Metadata

| Field        | Value    |
|--------------|----------|
| Entrypoint   | 0x0186   |
| Data Size    | 15 bytes |
| Instructions | 5        |

```
      00 01 02 03 04 05 06 07  08 09 0A 0B 0C 0D 0E 0F
      -- -- -- -- -- -- -- --  -- -- -- -- -- -- -- --
0180:                   32 19  80 1F 00 1A 80 1B 80 08        2.........
0190: 80 1F 01 6F 00                                    ...o.           
```

#### Opcodes

```
  0: 0x0186 [0x32] ExtData[1]->MainSpeed = 13* * 0.1
  1: 0x0189 [0x1F] MOVE_ENTITY: EventEntity moves to X=2.140*, Z=-6.308*, Y=0.000*
  2: 0x0191 [0x1F] MOVE_ENTITY: Update entity position (mode=1)
  3: 0x0193 [0x6F] WAIT_FRAME_DELAY: Yield until WaitTime reaches zero
  4: 0x0194 [0x00] END_REQSTACK()
```

### Event 65535.6

#### Metadata

| Field        | Value    |
|--------------|----------|
| Entrypoint   | 0x0195   |
| Data Size    | 15 bytes |
| Instructions | 5        |

```
      00 01 02 03 04 05 06 07  08 09 0A 0B 0C 0D 0E 0F
      -- -- -- -- -- -- -- --  -- -- -- -- -- -- -- --
0190:                32 03 80  1F 00 1C 80 1D 80 1E 80       2..........
01A0: 1F 01 6F 00                                       ..o.            
```

#### Opcodes

```
  0: 0x0195 [0x32] ExtData[1]->MainSpeed = 40* * 0.1
  1: 0x0198 [0x1F] MOVE_ENTITY: EventEntity moves to X=350.391*, Z=-11.590*, Y=4.000*
  2: 0x01A0 [0x1F] MOVE_ENTITY: Update entity position (mode=1)
  3: 0x01A2 [0x6F] WAIT_FRAME_DELAY: Yield until WaitTime reaches zero
  4: 0x01A3 [0x00] END_REQSTACK()
```

### Event 65535.7

#### Metadata

| Field        | Value    |
|--------------|----------|
| Entrypoint   | 0x01A4   |
| Data Size    | 24 bytes |
| Instructions | 6        |

```
      00 01 02 03 04 05 06 07  08 09 0A 0B 0C 0D 0E 0F
      -- -- -- -- -- -- -- --  -- -- -- -- -- -- -- --
01A0:             32 19 80 1F  00 1F 80 20 80 1E 80 1F      2...... ....
01B0: 01 1F 00 21 80 22 80 23  80 1F 01 00              ...!.".#....    
```

#### Opcodes

```
  0: 0x01A4 [0x32] ExtData[1]->MainSpeed = 13* * 0.1
  1: 0x01A7 [0x1F] MOVE_ENTITY: EventEntity moves to X=-99.700*, Z=-14.379*, Y=4.000*
  2: 0x01AF [0x1F] MOVE_ENTITY: Update entity position (mode=1)
  3: 0x01B1 [0x1F] MOVE_ENTITY: EventEntity moves to X=-99.371*, Z=5.646*, Y=3.349*
  4: 0x01B9 [0x1F] MOVE_ENTITY: Update entity position (mode=1)
  5: 0x01BB [0x00] END_REQSTACK()
```

### Event 65535.8

#### Metadata

| Field        | Value    |
|--------------|----------|
| Entrypoint   | 0x01BC   |
| Data Size    | 24 bytes |
| Instructions | 3        |

```
      00 01 02 03 04 05 06 07  08 09 0A 0B 0C 0D 0E 0F
      -- -- -- -- -- -- -- --  -- -- -- -- -- -- -- --
01B0:                                      B6 0B 07 80              ....
01C0: 08 80 24 80 25 80 08 80  26 80 27 80 08 80 08 80  ..$.%...&.'.....
01D0: C0 07 80 00                                       ....            
```

#### Opcodes

```
  0: 0x01BC [0xB6] ENTITY_APPEARANCE_HANDLER(case=Full entity look, race=1*, hair=0*, head=24*, body=49*, hands=0*, legs=171*, feet=99*, main=0*, sub=0*)
  1: 0x01D0 [0xC0] EventEntity->Render.Flags3 |= 0x1000 // Set bit 12 (from 1*)
  2: 0x01D3 [0x00] END_REQSTACK()
```

### Event 2554

#### Metadata

| Field        | Value    |
|--------------|----------|
| Entrypoint   | 0x01D4   |
| Data Size    | 57 bytes |
| Instructions | 17       |

```
      00 01 02 03 04 05 06 07  08 09 0A 0B 0C 0D 0E 0F
      -- -- -- -- -- -- -- --  -- -- -- -- -- -- -- --
01D0:             1E F0 FF FF  7F 42 6F 70 66 00 80 F8      .....Bopf...
01E0: FF FF 7F F8 FF FF 7F 74  6C 62 30 1D 28 80 23 1D  .......tlb0.(.#.
01F0: 29 80 23 1D 2A 80 23 1D  2B 80 23 66 00 80 F8 FF  ).#.*.#.+.#f....
0200: FF 7F F8 FF FF 7F 74 6C  62 31 2E 21 00           ......tlb1.!.   
```

#### Opcodes

```
  0: 0x01D4 [0x1E] EventEntity looks at LocalPlayer and starts talking
  1: 0x01D9 [0x42] SET_CLI_EVENT_CANCEL_DATA()
  2: 0x01DA [0x6F] WAIT_FRAME_DELAY: Yield until WaitTime reaches zero
  3: 0x01DB [0x70] WAIT_ENTITY_RENDER_FLAG: Wait while EventEntity->Render.Flags3 bit 2 is set (cancel turn if not)
  4: 0x01DC [0x66] LOAD_EXT_SCHEDULER_MAIN: Load scheduler "tlb0" with entities [EventEntity, EventEntity], work=5*
  5: 0x01EB [0x1D] PRINT_EVENT_MESSAGE(message_id=7960*)
    → "Hi there... Welcome to the Couriers' Coalition."
  6: 0x01EE [0x23] WAIT_FOR_DIALOG_INTERACTION
  7: 0x01EF [0x1D] PRINT_EVENT_MESSAGE(message_id=7961*)
    → "What? You're making rounds...to see how things are...?"
  8: 0x01F2 [0x23] WAIT_FOR_DIALOG_INTERACTION
  9: 0x01F3 [0x1D] PRINT_EVENT_MESSAGE(message_id=7962*)
    → "No need to worry...about us. It's all going...well. Shipments to the coalitions...are okay. Shipments to the frontier...are okay."
 10: 0x01F6 [0x23] WAIT_FOR_DIALOG_INTERACTION
 11: 0x01F7 [0x1D] PRINT_EVENT_MESSAGE(message_id=7963*)
    → "W-we have all the local deliveries, um, covered. But we always ask p-pioneers to, er, transport jungle-bound cargo. I h-hope you'll...you know, help us out with that stuff...in the future."
 12: 0x01FA [0x23] WAIT_FOR_DIALOG_INTERACTION
 13: 0x01FB [0x66] LOAD_EXT_SCHEDULER_MAIN: Load scheduler "tlb1" with entities [EventEntity, EventEntity], work=5*
 14: 0x020A [0x2E] SET_CLI_EVENT_CANCEL_FLAGS()
 15: 0x020B [0x21] END_EVENT
 16: 0x020C [0x00] END_REQSTACK()
```

### Event 182

#### Metadata

| Field        | Value   |
|--------------|---------|
| Entrypoint   | 0x020D  |
| Data Size    | 1 bytes |
| Instructions | 1       |

```
      00 01 02 03 04 05 06 07  08 09 0A 0B 0C 0D 0E 0F
      -- -- -- -- -- -- -- --  -- -- -- -- -- -- -- --
0200:                                         00                     .  
```

#### Opcodes

```
  0: 0x020D [0x00] END_REQSTACK()
```
