# 17825970

## Common Data

| Field            | Value                     |
|------------------|---------------------------|
| Zone             | Western Adoulin (ID: 256) |
| Block Size       | 532 bytes                 |
| Total Events     | 18                        |
| References Count | 26                        |

## List of Events

| Event ID                   | Entrypoint   |   Size |   Instructions |
|----------------------------|--------------|--------|----------------|
| [65535](#event-65535)      | 0x0000       |      1 |              1 |
| [65535.1](#event-655351)   | 0x0001       |      1 |              1 |
| [65535.2](#event-655352)   | 0x0002       |     18 |              4 |
| [65535.3](#event-655353)   | 0x0014       |     10 |              2 |
| [65535.4](#event-655354)   | 0x001E       |      9 |              3 |
| [65535.5](#event-655355)   | 0x0027       |      9 |              3 |
| [65535.6](#event-655356)   | 0x0030       |     10 |              2 |
| [65535.7](#event-655357)   | 0x003A       |     10 |              2 |
| [2](#event-2)              | 0x0044       |      1 |              1 |
| [65535.8](#event-655358)   | 0x0045       |     15 |              5 |
| [65535.9](#event-655359)   | 0x0054       |     14 |              4 |
| [65535.10](#event-6553510) | 0x0062       |     14 |              4 |
| [65535.11](#event-6553511) | 0x0070       |     24 |              3 |
| [65535.12](#event-6553512) | 0x0088       |     49 |              9 |
| [65535.13](#event-6553513) | 0x00B9       |    103 |             11 |
| [65535.14](#event-6553514) | 0x0120       |     24 |              3 |
| [65535.15](#event-6553515) | 0x0138       |     24 |              3 |
| [182](#event-182)          | 0x0150       |      1 |              1 |

## DAT References (imed_data)

|   Index | Hex Value   |   Dec Value |
|---------|-------------|-------------|
|       0 | 0x0000      |           0 |
|       1 | 0x0001      |           1 |
|       2 | 0x0080      |         128 |
|       3 | 0x000D      |          13 |
|       4 | 0x4E20      |       20000 |
|       5 | 0xFFFF4C50  |  4294921296 |
|       6 | 0x398D7     |      235735 |
|       7 | 0xFFFF9D3A  |  4294942010 |
|       8 | 0x0FA0      |        4000 |
|       9 | 0xFFFE7774  |  4294866804 |
|      10 | 0xFFFFA469  |  4294943849 |
|      11 | 0x0F9F      |        3999 |
|      12 | 0x0008      |           8 |
|      13 | 0x0005      |           5 |
|      14 | 0x002B      |          43 |
|      15 | 0x002D      |          45 |
|      16 | 0x001E      |          30 |
|      17 | 0x0013      |          19 |
|      18 | 0x003C      |          60 |
|      19 | 0x0014      |          20 |
|      20 | 0x000F      |          15 |
|      21 | 0x0006      |           6 |
|      22 | 0x0021      |          33 |
|      23 | 0x0066      |         102 |
|      24 | 0x00A4      |         164 |
|      25 | 0x000B      |          11 |

## Events

### Event 65535

#### Metadata

| Field        | Value   |
|--------------|---------|
| Entrypoint   | 0x0000  |
| Data Size    | 1 bytes |
| Instructions | 1       |

```
      00 01 02 03 04 05 06 07  08 09 0A 0B 0C 0D 0E 0F
      -- -- -- -- -- -- -- --  -- -- -- -- -- -- -- --
0000: 00                                                .               
```

#### Opcodes

```
  0: 0x0000 [0x00] END_REQSTACK()
```

### Event 65535.1

#### Metadata

| Field        | Value   |
|--------------|---------|
| Entrypoint   | 0x0001  |
| Data Size    | 1 bytes |
| Instructions | 1       |

```
      00 01 02 03 04 05 06 07  08 09 0A 0B 0C 0D 0E 0F
      -- -- -- -- -- -- -- --  -- -- -- -- -- -- -- --
0000:    00                                              .              
```

#### Opcodes

```
  0: 0x0001 [0x00] END_REQSTACK()
```

### Event 65535.2

#### Metadata

| Field        | Value    |
|--------------|----------|
| Entrypoint   | 0x0002   |
| Data Size    | 18 bytes |
| Instructions | 4        |

```
      00 01 02 03 04 05 06 07  08 09 0A 0B 0C 0D 0E 0F
      -- -- -- -- -- -- -- --  -- -- -- -- -- -- -- --
0000:       22 00 2F 00 F8 FF  FF 7F 6C F8 FF FF 7F 00    "./.....l.....
0010: 80 01 80 00                                       ....            
```

#### Opcodes

```
  0: 0x0002 [0x22] ENTITY_HIDE_FLAG(enabled=0x00)
  1: 0x0004 [0x2F] EventEntity->Render.Flags0 &= ~0x80000 // Bit 19
  2: 0x000A [0x6C] FADE_ENTITY_COLOR(entity_id=EventEntity, end_alpha=0*, fade_time=1*)
  3: 0x0013 [0x00] END_REQSTACK()
```

### Event 65535.3

#### Metadata

| Field        | Value    |
|--------------|----------|
| Entrypoint   | 0x0014   |
| Data Size    | 10 bytes |
| Instructions | 2        |

```
      00 01 02 03 04 05 06 07  08 09 0A 0B 0C 0D 0E 0F
      -- -- -- -- -- -- -- --  -- -- -- -- -- -- -- --
0010:             6C F8 FF FF  7F 02 80 01 80 00            l.........  
```

#### Opcodes

```
  0: 0x0014 [0x6C] FADE_ENTITY_COLOR(entity_id=EventEntity, end_alpha=128*, fade_time=1*)
  1: 0x001D [0x00] END_REQSTACK()
```

### Event 65535.4

#### Metadata

| Field        | Value   |
|--------------|---------|
| Entrypoint   | 0x001E  |
| Data Size    | 9 bytes |
| Instructions | 3       |

```
      00 01 02 03 04 05 06 07  08 09 0A 0B 0C 0D 0E 0F
      -- -- -- -- -- -- -- --  -- -- -- -- -- -- -- --
0010:                                            22 00                ".
0020: 2F 00 F8 FF FF 7F 00                              /......         
```

#### Opcodes

```
  0: 0x001E [0x22] ENTITY_HIDE_FLAG(enabled=0x00)
  1: 0x0020 [0x2F] EventEntity->Render.Flags0 &= ~0x80000 // Bit 19
  2: 0x0026 [0x00] END_REQSTACK()
```

### Event 65535.5

#### Metadata

| Field        | Value   |
|--------------|---------|
| Entrypoint   | 0x0027  |
| Data Size    | 9 bytes |
| Instructions | 3       |

```
      00 01 02 03 04 05 06 07  08 09 0A 0B 0C 0D 0E 0F
      -- -- -- -- -- -- -- --  -- -- -- -- -- -- -- --
0020:                      22  01 2F 01 F8 FF FF 7F 00         "./......
```

#### Opcodes

```
  0: 0x0027 [0x22] ENTITY_HIDE_FLAG(enabled=0x01)
  1: 0x0029 [0x2F] EventEntity->Render.Flags0 |= 0x80000 // Bit 19
  2: 0x002F [0x00] END_REQSTACK()
```

### Event 65535.6

#### Metadata

| Field        | Value    |
|--------------|----------|
| Entrypoint   | 0x0030   |
| Data Size    | 10 bytes |
| Instructions | 2        |

```
      00 01 02 03 04 05 06 07  08 09 0A 0B 0C 0D 0E 0F
      -- -- -- -- -- -- -- --  -- -- -- -- -- -- -- --
0030: 6C F8 FF FF 7F 00 80 01  80 00                    l.........      
```

#### Opcodes

```
  0: 0x0030 [0x6C] FADE_ENTITY_COLOR(entity_id=EventEntity, end_alpha=0*, fade_time=1*)
  1: 0x0039 [0x00] END_REQSTACK()
```

### Event 65535.7

#### Metadata

| Field        | Value    |
|--------------|----------|
| Entrypoint   | 0x003A   |
| Data Size    | 10 bytes |
| Instructions | 2        |

```
      00 01 02 03 04 05 06 07  08 09 0A 0B 0C 0D 0E 0F
      -- -- -- -- -- -- -- --  -- -- -- -- -- -- -- --
0030:                                6C F8 FF FF 7F 02            l.....
0040: 80 01 80 00                                       ....            
```

#### Opcodes

```
  0: 0x003A [0x6C] FADE_ENTITY_COLOR(entity_id=EventEntity, end_alpha=128*, fade_time=1*)
  1: 0x0043 [0x00] END_REQSTACK()
```

### Event 2

#### Metadata

| Field        | Value   |
|--------------|---------|
| Entrypoint   | 0x0044  |
| Data Size    | 1 bytes |
| Instructions | 1       |

```
      00 01 02 03 04 05 06 07  08 09 0A 0B 0C 0D 0E 0F
      -- -- -- -- -- -- -- --  -- -- -- -- -- -- -- --
0040:             00                                        .           
```

#### Opcodes

```
  0: 0x0044 [0x00] END_REQSTACK()
```

### Event 65535.8

#### Metadata

| Field        | Value    |
|--------------|----------|
| Entrypoint   | 0x0045   |
| Data Size    | 15 bytes |
| Instructions | 5        |

```
      00 01 02 03 04 05 06 07  08 09 0A 0B 0C 0D 0E 0F
      -- -- -- -- -- -- -- --  -- -- -- -- -- -- -- --
0040:                32 03 80  1F 00 04 80 05 80 00 80       2..........
0050: 1F 01 6F 00                                       ..o.            
```

#### Opcodes

```
  0: 0x0045 [0x32] ExtData[1]->MainSpeed = 13* * 0.1
  1: 0x0048 [0x1F] MOVE_ENTITY: EventEntity moves to X=20.000*, Z=-46.000*, Y=0.000*
  2: 0x0050 [0x1F] MOVE_ENTITY: Update entity position (mode=1)
  3: 0x0052 [0x6F] WAIT_FRAME_DELAY: Yield until WaitTime reaches zero
  4: 0x0053 [0x00] END_REQSTACK()
```

### Event 65535.9

#### Metadata

| Field        | Value    |
|--------------|----------|
| Entrypoint   | 0x0054   |
| Data Size    | 14 bytes |
| Instructions | 4        |

```
      00 01 02 03 04 05 06 07  08 09 0A 0B 0C 0D 0E 0F
      -- -- -- -- -- -- -- --  -- -- -- -- -- -- -- --
0050:             32 03 80 1F  00 06 80 07 80 08 80 1F      2...........
0060: 01 00                                             ..              
```

#### Opcodes

```
  0: 0x0054 [0x32] ExtData[1]->MainSpeed = 13* * 0.1
  1: 0x0057 [0x1F] MOVE_ENTITY: EventEntity moves to X=235.735*, Z=-25.286*, Y=4.000*
  2: 0x005F [0x1F] MOVE_ENTITY: Update entity position (mode=1)
  3: 0x0061 [0x00] END_REQSTACK()
```

### Event 65535.10

#### Metadata

| Field        | Value    |
|--------------|----------|
| Entrypoint   | 0x0062   |
| Data Size    | 14 bytes |
| Instructions | 4        |

```
      00 01 02 03 04 05 06 07  08 09 0A 0B 0C 0D 0E 0F
      -- -- -- -- -- -- -- --  -- -- -- -- -- -- -- --
0060:       32 03 80 1F 00 09  80 0A 80 0B 80 1F 01 00    2.............
```

#### Opcodes

```
  0: 0x0062 [0x32] ExtData[1]->MainSpeed = 13* * 0.1
  1: 0x0065 [0x1F] MOVE_ENTITY: EventEntity moves to X=-100.492*, Z=-23.447*, Y=3.999*
  2: 0x006D [0x1F] MOVE_ENTITY: Update entity position (mode=1)
  3: 0x006F [0x00] END_REQSTACK()
```

### Event 65535.11

#### Metadata

| Field        | Value    |
|--------------|----------|
| Entrypoint   | 0x0070   |
| Data Size    | 24 bytes |
| Instructions | 3        |

```
      00 01 02 03 04 05 06 07  08 09 0A 0B 0C 0D 0E 0F
      -- -- -- -- -- -- -- --  -- -- -- -- -- -- -- --
0070: B6 0B 0C 80 0D 80 00 80  0E 80 01 80 01 80 01 80  ................
0080: 00 80 00 80 C0 01 80 00                           ........        
```

#### Opcodes

```
  0: 0x0070 [0xB6] ENTITY_APPEARANCE_HANDLER(case=Full entity look, race=8*, hair=5*, head=0*, body=43*, hands=1*, legs=1*, feet=1*, main=0*, sub=0*)
  1: 0x0084 [0xC0] EventEntity->Render.Flags3 |= 0x1000 // Set bit 12 (from 1*)
  2: 0x0087 [0x00] END_REQSTACK()
```

### Event 65535.12

#### Metadata

| Field        | Value    |
|--------------|----------|
| Entrypoint   | 0x0088   |
| Data Size    | 49 bytes |
| Instructions | 9        |

```
      00 01 02 03 04 05 06 07  08 09 0A 0B 0C 0D 0E 0F
      -- -- -- -- -- -- -- --  -- -- -- -- -- -- -- --
0080:                          1C 0F 80 4A 17 01 10 01          ...J....
0090: F0 FF FF 7F 7B 17 01 10  01 4A 19 01 10 01 F0 FF  ....{....J......
00A0: FF 7F 7B 19 01 10 01 1C  10 80 4A CE 00 10 01 F0  ..{.......J.....
00B0: FF FF 7F 7B CE 00 10 01  00                       ...{.....       
```

#### Opcodes

```
  0: 0x0088 [0x1C] WAIT(45* ticks)
  1: 0x008B [0x4A] Merleg (ID: 17826071/0x01100117) looks at LocalPlayer
  2: 0x0094 [0x7B] Merleg (ID: 17826071/0x01100117) stops talking
  3: 0x0099 [0x4A] Clautaire (ID: 17826073/0x01100119) looks at LocalPlayer
  4: 0x00A2 [0x7B] Clautaire (ID: 17826073/0x01100119) stops talking
  5: 0x00A7 [0x1C] WAIT(30* ticks)
  6: 0x00AA [0x4A] Distrova (ID: 17825998/0x011000CE) looks at LocalPlayer
  7: 0x00B3 [0x7B] Distrova (ID: 17825998/0x011000CE) stops talking
  8: 0x00B8 [0x00] END_REQSTACK()
```

### Event 65535.13

#### Metadata

| Field        | Value     |
|--------------|-----------|
| Entrypoint   | 0x00B9    |
| Data Size    | 103 bytes |
| Instructions | 11        |

```
      00 01 02 03 04 05 06 07  08 09 0A 0B 0C 0D 0E 0F
      -- -- -- -- -- -- -- --  -- -- -- -- -- -- -- --
00B0:                             66 00 80 08 01 10 01           f......
00C0: 08 01 10 01 74 6C 6B 31  66 11 80 93 00 10 01 93  ....tlk1f.......
00D0: 00 10 01 74 6C 73 31 1C  12 80 66 13 80 FF 00 10  ...tls1...f.....
00E0: 01 FF 00 10 01 74 6C 6B  30 1C 10 80 66 00 80 08  .....tlk0...f...
00F0: 01 10 01 08 01 10 01 74  65 6E 31 1C 10 80 66 11  .......ten1...f.
0100: 80 93 00 10 01 93 00 10  01 74 6C 73 30 1C 14 80  .........tls0...
0110: 66 13 80 FF 00 10 01 FF  00 10 01 74 6C 6B 31 00  f..........tlk1.
```

#### Opcodes

```
  0: 0x00B9 [0x66] LOAD_EXT_SCHEDULER_MAIN: Load scheduler "tlk1" with entities [Clemmar (ID: 17826056/0x01100108), Clemmar (ID: 17826056/0x01100108)], work=0*
  1: 0x00C8 [0x66] LOAD_EXT_SCHEDULER_MAIN: Load scheduler "tls1" with entities [Brenna (ID: 17825939/0x01100093), Brenna (ID: 17825939/0x01100093)], work=19*
  2: 0x00D7 [0x1C] WAIT(60* ticks)
  3: 0x00DA [0x66] LOAD_EXT_SCHEDULER_MAIN: Load scheduler "tlk0" with entities [Nikkhail (ID: 17826047/0x011000FF), Nikkhail (ID: 17826047/0x011000FF)], work=20*
  4: 0x00E9 [0x1C] WAIT(30* ticks)
  5: 0x00EC [0x66] LOAD_EXT_SCHEDULER_MAIN: Load scheduler "ten1" with entities [Clemmar (ID: 17826056/0x01100108), Clemmar (ID: 17826056/0x01100108)], work=0*
  6: 0x00FB [0x1C] WAIT(30* ticks)
  7: 0x00FE [0x66] LOAD_EXT_SCHEDULER_MAIN: Load scheduler "tls0" with entities [Brenna (ID: 17825939/0x01100093), Brenna (ID: 17825939/0x01100093)], work=19*
  8: 0x010D [0x1C] WAIT(15* ticks)
  9: 0x0110 [0x66] LOAD_EXT_SCHEDULER_MAIN: Load scheduler "tlk1" with entities [Nikkhail (ID: 17826047/0x011000FF), Nikkhail (ID: 17826047/0x011000FF)], work=20*
 10: 0x011F [0x00] END_REQSTACK()
```

### Event 65535.14

#### Metadata

| Field        | Value    |
|--------------|----------|
| Entrypoint   | 0x0120   |
| Data Size    | 24 bytes |
| Instructions | 3        |

```
      00 01 02 03 04 05 06 07  08 09 0A 0B 0C 0D 0E 0F
      -- -- -- -- -- -- -- --  -- -- -- -- -- -- -- --
0120: B6 0B 15 80 0C 80 00 80  16 80 17 80 18 80 18 80  ................
0130: 00 80 00 80 C0 01 80 00                           ........        
```

#### Opcodes

```
  0: 0x0120 [0xB6] ENTITY_APPEARANCE_HANDLER(case=Full entity look, race=6*, hair=8*, head=0*, body=33*, hands=102*, legs=164*, feet=164*, main=0*, sub=0*)
  1: 0x0134 [0xC0] EventEntity->Render.Flags3 |= 0x1000 // Set bit 12 (from 1*)
  2: 0x0137 [0x00] END_REQSTACK()
```

### Event 65535.15

#### Metadata

| Field        | Value    |
|--------------|----------|
| Entrypoint   | 0x0138   |
| Data Size    | 24 bytes |
| Instructions | 3        |

```
      00 01 02 03 04 05 06 07  08 09 0A 0B 0C 0D 0E 0F
      -- -- -- -- -- -- -- --  -- -- -- -- -- -- -- --
0130:                          B6 0B 0D 80 19 80 00 80          ........
0140: 16 80 17 80 18 80 18 80  00 80 00 80 C0 01 80 00  ................
```

#### Opcodes

```
  0: 0x0138 [0xB6] ENTITY_APPEARANCE_HANDLER(case=Full entity look, race=5*, hair=11*, head=0*, body=33*, hands=102*, legs=164*, feet=164*, main=0*, sub=0*)
  1: 0x014C [0xC0] EventEntity->Render.Flags3 |= 0x1000 // Set bit 12 (from 1*)
  2: 0x014F [0x00] END_REQSTACK()
```

### Event 182

#### Metadata

| Field        | Value   |
|--------------|---------|
| Entrypoint   | 0x0150  |
| Data Size    | 1 bytes |
| Instructions | 1       |

```
      00 01 02 03 04 05 06 07  08 09 0A 0B 0C 0D 0E 0F
      -- -- -- -- -- -- -- --  -- -- -- -- -- -- -- --
0150: 00                                                .               
```

#### Opcodes

```
  0: 0x0150 [0x00] END_REQSTACK()
```
