# 17826011 - Musto-Rusto

## Common Data

| Field            | Value                     |
|------------------|---------------------------|
| Zone             | Western Adoulin (ID: 256) |
| Block Size       | 2100 bytes                |
| Total Events     | 61                        |
| References Count | 92                        |

## List of Events

| Event ID                   | Entrypoint   |   Size |   Instructions |
|----------------------------|--------------|--------|----------------|
| [65535](#event-65535)      | 0x0000       |      1 |              1 |
| [5045](#event-5045)        | 0x0001       |      1 |              1 |
| [5046](#event-5046)        | 0x0002       |      1 |              1 |
| [5047](#event-5047)        | 0x0003       |      1 |              1 |
| [5048](#event-5048)        | 0x0004       |      1 |              1 |
| [5049](#event-5049)        | 0x0005       |      1 |              1 |
| [5050](#event-5050)        | 0x0006       |      1 |              1 |
| [5051](#event-5051)        | 0x0007       |      1 |              1 |
| [65535.1](#event-655351)   | 0x0008       |      4 |              2 |
| [65535.2](#event-655352)   | 0x000C       |    283 |             47 |
| [65535.3](#event-655353)   | 0x0127       |     42 |              9 |
| [5067](#event-5067)        | 0x0151       |      1 |              1 |
| [5094](#event-5094)        | 0x0152       |      1 |              1 |
| [5095](#event-5095)        | 0x0153       |      1 |              1 |
| [5096](#event-5096)        | 0x0154       |      1 |              1 |
| [65535.4](#event-655354)   | 0x0155       |     24 |              4 |
| [65535.5](#event-655355)   | 0x016D       |      5 |              2 |
| [5202](#event-5202)        | 0x0172       |      1 |              1 |
| [5203](#event-5203)        | 0x0173       |      1 |              1 |
| [5204](#event-5204)        | 0x0174       |      1 |              1 |
| [5205](#event-5205)        | 0x0175       |      1 |              1 |
| [5206](#event-5206)        | 0x0176       |      1 |              1 |
| [5207](#event-5207)        | 0x0177       |      1 |              1 |
| [5208](#event-5208)        | 0x0178       |      1 |              1 |
| [65535.6](#event-655356)   | 0x0179       |     14 |              4 |
| [65535.7](#event-655357)   | 0x0187       |      4 |              2 |
| [65535.8](#event-655358)   | 0x018B       |     14 |              4 |
| [65535.9](#event-655359)   | 0x0199       |     14 |              4 |
| [65535.10](#event-6553510) | 0x01A7       |     14 |              4 |
| [65535.11](#event-6553511) | 0x01B5       |     54 |             12 |
| [65535.12](#event-6553512) | 0x01EB       |     31 |              5 |
| [65535.13](#event-6553513) | 0x020A       |     28 |             10 |
| [65535.14](#event-6553514) | 0x0226       |     44 |              8 |
| [65535.15](#event-6553515) | 0x0252       |      4 |              2 |
| [65535.16](#event-6553516) | 0x0256       |      4 |              2 |
| [65535.17](#event-6553517) | 0x025A       |      4 |              2 |
| [65535.18](#event-6553518) | 0x025E       |     15 |              5 |
| [65535.19](#event-6553519) | 0x026D       |     15 |              5 |
| [65535.20](#event-6553520) | 0x027C       |     15 |              5 |
| [65535.21](#event-6553521) | 0x028B       |     19 |              3 |
| [65535.22](#event-6553522) | 0x029E       |     19 |              3 |
| [65535.23](#event-6553523) | 0x02B1       |     19 |              3 |
| [65535.24](#event-6553524) | 0x02C4       |     19 |              3 |
| [65535.25](#event-6553525) | 0x02D7       |     19 |              3 |
| [65535.26](#event-6553526) | 0x02EA       |     19 |              3 |
| [65535.27](#event-6553527) | 0x02FD       |     19 |              3 |
| [65535.28](#event-6553528) | 0x0310       |     19 |              3 |
| [65535.29](#event-6553529) | 0x0323       |     19 |              3 |
| [65535.30](#event-6553530) | 0x0336       |     16 |              4 |
| [65535.31](#event-6553531) | 0x0346       |     49 |              7 |
| [65535.32](#event-6553532) | 0x0377       |     19 |              3 |
| [65535.33](#event-6553533) | 0x038A       |     16 |              4 |
| [65535.34](#event-6553534) | 0x039A       |     16 |              4 |
| [65535.35](#event-6553535) | 0x03AA       |     16 |              4 |
| [65535.36](#event-6553536) | 0x03BA       |     16 |              4 |
| [5217](#event-5217)        | 0x03CA       |      7 |              2 |
| [5218](#event-5218)        | 0x03D1       |      7 |              2 |
| [65535.37](#event-6553537) | 0x03D8       |    283 |             47 |
| [65535.38](#event-6553538) | 0x04F3       |     69 |             12 |
| [65535.39](#event-6553539) | 0x0538       |     13 |              3 |
| [65535.40](#event-6553540) | 0x0545       |    120 |             19 |

## DAT References (imed_data)

|   Index | Hex Value   |   Dec Value |
|---------|-------------|-------------|
|       0 | 0x0B8F      |        2959 |
|       1 | 0x0014      |          20 |
|       2 | 0x16C38     |       93240 |
|       3 | 0xFFFE2744  |  4294846276 |
|       4 | 0x0982      |        2434 |
|       5 | 0x0028      |          40 |
|       6 | 0x0064      |         100 |
|       7 | 0xFFFFFED4  |  4294966996 |
|       8 | 0x001E      |          30 |
|       9 | 0x000E      |          14 |
|      10 | 0xFFFFFF9C  |  4294967196 |
|      11 | 0x0001      |           1 |
|      12 | 0x065E      |        1630 |
|      13 | 0x0000      |           0 |
|      14 | 0x03E8      |        1000 |
|      15 | 0x0800      |        2048 |
|      16 | 0x00C8      |         200 |
|      17 | 0x0009      |           9 |
|      18 | 0x005A      |          90 |
|      19 | 0xFFFFFD80  |  4294966656 |
|      20 | 0x18B6E     |      101230 |
|      21 | 0xFFFE57C8  |  4294858696 |
|      22 | 0x08CA      |        2250 |
|      23 | 0x1D1A0     |      119200 |
|      24 | 0xFFFE9C88  |  4294876296 |
|      25 | 0xFFFFFCE9  |  4294966505 |
|      26 | 0x00FB      |         251 |
|      27 | 0x0168      |         360 |
|      28 | 0x000D      |          13 |
|      29 | 0x19884     |      104580 |
|      30 | 0xFFFE6556  |  4294862166 |
|      31 | 0x01FF      |         511 |
|      32 | 0xFFFF20FE  |  4294910206 |
|      33 | 0xFFFFE4C6  |  4294960326 |
|      34 | 0xFFFFFE0C  |  4294966796 |
|      35 | 0xFFFF2086  |  4294910086 |
|      36 | 0xFFFFE840  |  4294961216 |
|      37 | 0xFFFF22A2  |  4294910626 |
|      38 | 0xFFFFD99A  |  4294957466 |
|      39 | 0xFFFF1FDC  |  4294909916 |
|      40 | 0xFFFFE1C4  |  4294959556 |
|      41 | 0xFFFF1E42  |  4294909506 |
|      42 | 0xFFFFEB10  |  4294961936 |
|      43 | 0xFFFF1924  |  4294908196 |
|      44 | 0xFFFFF704  |  4294964996 |
|      45 | 0xFFFF2AE0  |  4294912736 |
|      46 | 0x0CF8      |        3320 |
|      47 | 0x0005      |           5 |
|      48 | 0x153D8     |       87000 |
|      49 | 0xFFFE3EC8  |  4294852296 |
|      50 | 0x0E92      |        3730 |
|      51 | 0x002D      |          45 |
|      52 | 0xFFFFFC01  |  4294966273 |
|      53 | 0x0032      |          50 |
|      54 | 0xFFFFFE01  |  4294966785 |
|      55 | 0x207C4     |      133060 |
|      56 | 0xFFFEF2C8  |  4294898376 |
|      57 | 0x0FA0      |        4000 |
|      58 | 0x20F3A     |      134970 |
|      59 | 0xFFFF516E  |  4294922606 |
|      60 | 0x09FF      |        2559 |
|      61 | 0x07FF      |        2047 |
|      62 | 0x15F90     |       90000 |
|      63 | 0xFFFE2B40  |  4294847296 |
|      64 | 0x12B6A     |       76650 |
|      65 | 0xFFFE1BA0  |  4294843296 |
|      66 | 0x16184     |       90500 |
|      67 | 0xFFFE2D34  |  4294847796 |
|      68 | 0x002A      |          42 |
|      69 | 0x0029      |          41 |
|      70 | 0x0023      |          35 |
|      71 | 0x0015      |          21 |
|      72 | 0x0044      |          68 |
|      73 | 0x17086     |       94342 |
|      74 | 0xFFFE22F1  |  4294845169 |
|      75 | 0x0883      |        2179 |
|      76 | 0x008C      |         140 |
|      77 | 0x001B      |          27 |
|      78 | 0x000A      |          10 |
|      79 | 0x001D      |          29 |
|      80 | 0x000B      |          11 |
|      81 | 0x0007      |           7 |
|      82 | 0x0E01      |        3585 |
|      83 | 0x18D30     |      101680 |
|      84 | 0xFFFE6010  |  4294860816 |
|      85 | 0x13FEC     |       81900 |
|      86 | 0xFFFEB2AE  |  4294881966 |
|      87 | 0x062B      |        1579 |
|      88 | 0x003C      |          60 |
|      89 | 0x012C      |         300 |
|      90 | 0x0002      |           2 |
|      91 | 0x00B4      |         180 |

## Events

### Event 65535

#### Metadata

| Field        | Value   |
|--------------|---------|
| Entrypoint   | 0x0000  |
| Data Size    | 1 bytes |
| Instructions | 1       |

```
      00 01 02 03 04 05 06 07  08 09 0A 0B 0C 0D 0E 0F
      -- -- -- -- -- -- -- --  -- -- -- -- -- -- -- --
0000: 00                                                .               
```

#### Opcodes

```
  0: 0x0000 [0x00] END_REQSTACK()
```

### Event 5045

#### Metadata

| Field        | Value   |
|--------------|---------|
| Entrypoint   | 0x0001  |
| Data Size    | 1 bytes |
| Instructions | 1       |

```
      00 01 02 03 04 05 06 07  08 09 0A 0B 0C 0D 0E 0F
      -- -- -- -- -- -- -- --  -- -- -- -- -- -- -- --
0000:    00                                              .              
```

#### Opcodes

```
  0: 0x0001 [0x00] END_REQSTACK()
```

### Event 5046

#### Metadata

| Field        | Value   |
|--------------|---------|
| Entrypoint   | 0x0002  |
| Data Size    | 1 bytes |
| Instructions | 1       |

```
      00 01 02 03 04 05 06 07  08 09 0A 0B 0C 0D 0E 0F
      -- -- -- -- -- -- -- --  -- -- -- -- -- -- -- --
0000:       00                                            .             
```

#### Opcodes

```
  0: 0x0002 [0x00] END_REQSTACK()
```

### Event 5047

#### Metadata

| Field        | Value   |
|--------------|---------|
| Entrypoint   | 0x0003  |
| Data Size    | 1 bytes |
| Instructions | 1       |

```
      00 01 02 03 04 05 06 07  08 09 0A 0B 0C 0D 0E 0F
      -- -- -- -- -- -- -- --  -- -- -- -- -- -- -- --
0000:          00                                          .            
```

#### Opcodes

```
  0: 0x0003 [0x00] END_REQSTACK()
```

### Event 5048

#### Metadata

| Field        | Value   |
|--------------|---------|
| Entrypoint   | 0x0004  |
| Data Size    | 1 bytes |
| Instructions | 1       |

```
      00 01 02 03 04 05 06 07  08 09 0A 0B 0C 0D 0E 0F
      -- -- -- -- -- -- -- --  -- -- -- -- -- -- -- --
0000:             00                                        .           
```

#### Opcodes

```
  0: 0x0004 [0x00] END_REQSTACK()
```

### Event 5049

#### Metadata

| Field        | Value   |
|--------------|---------|
| Entrypoint   | 0x0005  |
| Data Size    | 1 bytes |
| Instructions | 1       |

```
      00 01 02 03 04 05 06 07  08 09 0A 0B 0C 0D 0E 0F
      -- -- -- -- -- -- -- --  -- -- -- -- -- -- -- --
0000:                00                                      .          
```

#### Opcodes

```
  0: 0x0005 [0x00] END_REQSTACK()
```

### Event 5050

#### Metadata

| Field        | Value   |
|--------------|---------|
| Entrypoint   | 0x0006  |
| Data Size    | 1 bytes |
| Instructions | 1       |

```
      00 01 02 03 04 05 06 07  08 09 0A 0B 0C 0D 0E 0F
      -- -- -- -- -- -- -- --  -- -- -- -- -- -- -- --
0000:                   00                                    .         
```

#### Opcodes

```
  0: 0x0006 [0x00] END_REQSTACK()
```

### Event 5051

#### Metadata

| Field        | Value   |
|--------------|---------|
| Entrypoint   | 0x0007  |
| Data Size    | 1 bytes |
| Instructions | 1       |

```
      00 01 02 03 04 05 06 07  08 09 0A 0B 0C 0D 0E 0F
      -- -- -- -- -- -- -- --  -- -- -- -- -- -- -- --
0000:                      00                                  .        
```

#### Opcodes

```
  0: 0x0007 [0x00] END_REQSTACK()
```

### Event 65535.1

#### Metadata

| Field        | Value   |
|--------------|---------|
| Entrypoint   | 0x0008  |
| Data Size    | 4 bytes |
| Instructions | 2       |

```
      00 01 02 03 04 05 06 07  08 09 0A 0B 0C 0D 0E 0F
      -- -- -- -- -- -- -- --  -- -- -- -- -- -- -- --
0000:                          39 00 80 00                      9...    
```

#### Opcodes

```
  0: 0x0008 [0x39] SET_ENTITY_DIRECTION(direction=16.3°*)
  1: 0x000B [0x00] END_REQSTACK()
```

### Event 65535.2

#### Metadata

| Field        | Value     |
|--------------|-----------|
| Entrypoint   | 0x000C    |
| Data Size    | 283 bytes |
| Instructions | 47        |

```
      00 01 02 03 04 05 06 07  08 09 0A 0B 0C 0D 0E 0F
      -- -- -- -- -- -- -- --  -- -- -- -- -- -- -- --
0000:                                      32 01 80 1E              2...
0010: F8 FF FF 7F 1F 00 02 80  03 80 04 80 1F 01 33 01  ..............3.
0020: 03 00 00 00 7F 03 01 00  02 7F 03 02 00 01 7F 03  ................
0030: 03 00 03 7F 03 04 00 02  00 66 05 80 F8 FF FF 7F  .........f......
0040: F8 FF FF 7F 6A 6D 70 30  53 F8 FF FF 7F F8 FF FF  ....jmp0S.......
0050: 7F 6A 6D 70 30 66 05 80  F8 FF FF 7F F8 FF FF 7F  .jmp0f..........
0060: 6A 6D 70 33 06 05 00 03  06 00 06 80 02 05 00 07  jmp3............
0070: 80 04 A9 00 03 02 00 04  00 07 02 00 05 00 37 00  ..............7.
0080: 00 01 00 02 00 03 00 02  06 00 08 80 04 94 00 08  ................
0090: 06 00 09 80 07 00 00 0A  80 07 01 00 06 80 08 05  ................
00A0: 00 06 00 1C 0B 80 01 6C  00 06 07 00 02 05 00 0C  .......l........
00B0: 80 05 FC 00 02 05 00 0D  80 05 C7 00 02 07 00 0D  ................
00C0: 80 00 C7 00 05 07 00 03  02 00 04 00 07 02 00 05  ................
00D0: 00 37 00 00 01 00 02 00  03 00 02 06 00 0E 80 05  .7..............
00E0: E7 00 07 06 00 05 80 07  00 00 0A 80 07 01 00 06  ................
00F0: 80 07 05 00 06 00 1C 0B  80 01 AC 00 33 00 37 00  ............3.7.
0100: 00 01 00 02 00 03 00 66  05 80 F8 FF FF 7F F8 FF  .......f........
0110: FF 7F 6A 6D 70 32 53 DA  00 10 01 DA 00 10 01 6A  ..jmp2S........j
0120: 6D 70 32 39 0F 80 00                              mp29...         
```

#### Opcodes

```
  0: 0x000C [0x32] ExtData[1]->MainSpeed = 20* * 0.1
  1: 0x000F [0x1E] EventEntity looks at EventEntity and starts talking
  2: 0x0014 [0x1F] MOVE_ENTITY: EventEntity moves to X=93.240*, Z=-121.020*, Y=2.434*
  3: 0x001C [0x1F] MOVE_ENTITY: Update entity position (mode=1)
  4: 0x001E [0x33] EventEntity->Render.Flags0 |= 0x200000 // Bit 21 (flag=0x01)
  5: 0x0020 [0x03] ExtData[1]->WorkLocal[0] = ExtData[1]->EventPos[0] * 1000.0
  6: 0x0025 [0x03] ExtData[1]->WorkLocal[1] = ExtData[1]->EventPos[2] * 1000.0
  7: 0x002A [0x03] ExtData[1]->WorkLocal[2] = ExtData[1]->EventPos[1] * 1000.0
  8: 0x002F [0x03] ExtData[1]->WorkLocal[3] = enDirCli(ExtData[1]->EventDir[1]) * 4096.0 * 0.15915963
  9: 0x0034 [0x03] ExtData[1]->WorkLocal[4] = ExtData[1]->WorkLocal[2]
 10: 0x0039 [0x66] LOAD_EXT_SCHEDULER_MAIN: Load scheduler "jmp0" with entities [EventEntity, EventEntity], work=40*
 11: 0x0048 [0x53] WAIT_SCHEDULER_TASK: Wait for scheduler "jmp0" with entities [EventEntity, EventEntity]
 12: 0x0055 [0x66] LOAD_EXT_SCHEDULER_MAIN: Load scheduler "jmp3" with entities [EventEntity, EventEntity], work=40*
 13: 0x0064 [0x06] ExtData[1]->WorkLocal[5] = 0
 14: 0x0067 [0x03] ExtData[1]->WorkLocal[6] = 100*
 15: 0x006C [0x02] IF !(ExtData[1]->WorkLocal[5] < 4294966996*) GOTO 0x00A9
 16: 0x0074 [0x03] ExtData[1]->WorkLocal[2] = ExtData[1]->WorkLocal[4]
 17: 0x0079 [0x07] ExtData[1]->WorkLocal[2] += ExtData[1]->WorkLocal[5]
 18: 0x007E [0x37] UPDATE_EVENT_POSITION_AND_DIR: x=ExtData[1]->WorkLocal[0], z=ExtData[1]->WorkLocal[1], y=ExtData[1]->WorkLocal[2], direction=ExtData[1]->WorkLocal[3]
 19: 0x0087 [0x02] IF !(ExtData[1]->WorkLocal[6] < 30*) GOTO 0x0094
 20: 0x008F [0x08] ExtData[1]->WorkLocal[6] -= 14*
 21: 0x0094 [0x07] ExtData[1]->WorkLocal[0] += 4294967196*
 22: 0x0099 [0x07] ExtData[1]->WorkLocal[1] += 100*
 23: 0x009E [0x08] ExtData[1]->WorkLocal[5] -= ExtData[1]->WorkLocal[6]
 24: 0x00A3 [0x1C] WAIT(1* ticks)
 25: 0x00A6 [0x01] GOTO 0x006C
 26: 0x00A9 [0x06] ExtData[1]->WorkLocal[7] = 0

SUBROUTINE_00AC:
 27: 0x00AC [0x02] IF !(ExtData[1]->WorkLocal[5] > 1630*) GOTO 0x00FC
 28: 0x00B4 [0x02] IF !(ExtData[1]->WorkLocal[5] > 0*) GOTO 0x00C7
 29: 0x00BC [0x02] IF !(ExtData[1]->WorkLocal[7] == 0*) GOTO 0x00C7
 30: 0x00C4 [0x05] ExtData[1]->WorkLocal[7] = 1
 31: 0x00C7 [0x03] ExtData[1]->WorkLocal[2] = ExtData[1]->WorkLocal[4]
 32: 0x00CC [0x07] ExtData[1]->WorkLocal[2] += ExtData[1]->WorkLocal[5]
 33: 0x00D1 [0x37] UPDATE_EVENT_POSITION_AND_DIR: x=ExtData[1]->WorkLocal[0], z=ExtData[1]->WorkLocal[1], y=ExtData[1]->WorkLocal[2], direction=ExtData[1]->WorkLocal[3]
 34: 0x00DA [0x02] IF !(ExtData[1]->WorkLocal[6] > 1000*) GOTO 0x00E7
 35: 0x00E2 [0x07] ExtData[1]->WorkLocal[6] += 40*
 36: 0x00E7 [0x07] ExtData[1]->WorkLocal[0] += 4294967196*
 37: 0x00EC [0x07] ExtData[1]->WorkLocal[1] += 100*
 38: 0x00F1 [0x07] ExtData[1]->WorkLocal[5] += ExtData[1]->WorkLocal[6]
 39: 0x00F6 [0x1C] WAIT(1* ticks)
 40: 0x00F9 [0x01] GOTO 0x00AC
 41: 0x00FC [0x33] EventEntity->Render.Flags0 &= ~ 0x200000 // Bit 21 (flag=0x00)
 42: 0x00FE [0x37] UPDATE_EVENT_POSITION_AND_DIR: x=ExtData[1]->WorkLocal[0], z=ExtData[1]->WorkLocal[1], y=ExtData[1]->WorkLocal[2], direction=ExtData[1]->WorkLocal[3]
 43: 0x0107 [0x66] LOAD_EXT_SCHEDULER_MAIN: Load scheduler "jmp2" with entities [EventEntity, EventEntity], work=40*
 44: 0x0116 [0x53] WAIT_SCHEDULER_TASK: Wait for scheduler "jmp2" with entities [Tuffle-Buffle (ID: 17826010/0x011000DA), Tuffle-Buffle (ID: 17826010/0x011000DA)]
 45: 0x0123 [0x39] SET_ENTITY_DIRECTION(direction=11.2°*)
 46: 0x0126 [0x00] END_REQSTACK()
```

### Event 65535.3

#### Metadata

| Field        | Value    |
|--------------|----------|
| Entrypoint   | 0x0127   |
| Data Size    | 42 bytes |
| Instructions | 9        |

```
      00 01 02 03 04 05 06 07  08 09 0A 0B 0C 0D 0E 0F
      -- -- -- -- -- -- -- --  -- -- -- -- -- -- -- --
0120:                      32  10 80 AD 02 11 80 F8 FF         2........
0130: FF 7F F8 FF FF 7F 1C 12  80 39 13 80 1F 00 14 80  .........9......
0140: 15 80 16 80 1F 01 1F 00  17 80 18 80 19 80 1F 01  ................
0150: 00                                                .               
```

#### Opcodes

```
  0: 0x0127 [0x32] ExtData[1]->MainSpeed = 200* * 0.1
  1: 0x012A [0xAD] DUAL_ENTITY_SCHEDULER_HANDLER: Execute sub-case 2 with entities [EventEntity, EventEntity], work=9*
  2: 0x0136 [0x1C] WAIT(90* ticks)
  3: 0x0139 [0x39] SET_ENTITY_DIRECTION(direction=356.5°*)
  4: 0x013C [0x1F] MOVE_ENTITY: EventEntity moves to X=101.230*, Z=-108.600*, Y=2.250*
  5: 0x0144 [0x1F] MOVE_ENTITY: Update entity position (mode=1)
  6: 0x0146 [0x1F] MOVE_ENTITY: EventEntity moves to X=119.200*, Z=-91.000*, Y=-0.791*
  7: 0x014E [0x1F] MOVE_ENTITY: Update entity position (mode=1)
  8: 0x0150 [0x00] END_REQSTACK()
```

### Event 5067

#### Metadata

| Field        | Value   |
|--------------|---------|
| Entrypoint   | 0x0151  |
| Data Size    | 1 bytes |
| Instructions | 1       |

```
      00 01 02 03 04 05 06 07  08 09 0A 0B 0C 0D 0E 0F
      -- -- -- -- -- -- -- --  -- -- -- -- -- -- -- --
0150:    00                                              .              
```

#### Opcodes

```
  0: 0x0151 [0x00] END_REQSTACK()
```

### Event 5094

#### Metadata

| Field        | Value   |
|--------------|---------|
| Entrypoint   | 0x0152  |
| Data Size    | 1 bytes |
| Instructions | 1       |

```
      00 01 02 03 04 05 06 07  08 09 0A 0B 0C 0D 0E 0F
      -- -- -- -- -- -- -- --  -- -- -- -- -- -- -- --
0150:       00                                            .             
```

#### Opcodes

```
  0: 0x0152 [0x00] END_REQSTACK()
```

### Event 5095

#### Metadata

| Field        | Value   |
|--------------|---------|
| Entrypoint   | 0x0153  |
| Data Size    | 1 bytes |
| Instructions | 1       |

```
      00 01 02 03 04 05 06 07  08 09 0A 0B 0C 0D 0E 0F
      -- -- -- -- -- -- -- --  -- -- -- -- -- -- -- --
0150:          00                                          .            
```

#### Opcodes

```
  0: 0x0153 [0x00] END_REQSTACK()
```

### Event 5096

#### Metadata

| Field        | Value   |
|--------------|---------|
| Entrypoint   | 0x0154  |
| Data Size    | 1 bytes |
| Instructions | 1       |

```
      00 01 02 03 04 05 06 07  08 09 0A 0B 0C 0D 0E 0F
      -- -- -- -- -- -- -- --  -- -- -- -- -- -- -- --
0150:             00                                        .           
```

#### Opcodes

```
  0: 0x0154 [0x00] END_REQSTACK()
```

### Event 65535.4

#### Metadata

| Field        | Value    |
|--------------|----------|
| Entrypoint   | 0x0155   |
| Data Size    | 24 bytes |
| Instructions | 3        |

```
      00 01 02 03 04 05 06 07  08 09 0A 0B 0C 0D 0E 0F
      -- -- -- -- -- -- -- --  -- -- -- -- -- -- -- --
0150:                9F 1A 80  F8 FF FF 7F F8 FF FF 7F       ...........
0160: 6D 61 69 6E 0D 80 1C 1B  80 01 55 01 00           main......U..   
```

#### Opcodes

```
  0: 0x0155 [0x9F] LOAD_SCHEDULED_TASK_ALT: Load scheduler "main" with entities [EventEntity, EventEntity], work=[251*, 0*]
  1: 0x0166 [0x1C] WAIT(360* ticks)
  2: 0x0169 [0x01] GOTO 0x0155
```

#### Data or dead code:

```
# Dead code (unreachable instructions):
     0x016C [0x00] END_REQSTACK()
```

### Event 65535.5

#### Metadata

| Field        | Value   |
|--------------|---------|
| Entrypoint   | 0x016D  |
| Data Size    | 5 bytes |
| Instructions | 2       |

```
      00 01 02 03 04 05 06 07  08 09 0A 0B 0C 0D 0E 0F
      -- -- -- -- -- -- -- --  -- -- -- -- -- -- -- --
0160:                                         B6 03 01               ...
0170: 17 00                                             ..              
```

#### Opcodes

```
  0: 0x016D [0xB6] ENTITY_APPEARANCE_HANDLER(case=Head, value=Work_Zone_1700[1])
  1: 0x0171 [0x00] END_REQSTACK()
```

### Event 5202

#### Metadata

| Field        | Value   |
|--------------|---------|
| Entrypoint   | 0x0172  |
| Data Size    | 1 bytes |
| Instructions | 1       |

```
      00 01 02 03 04 05 06 07  08 09 0A 0B 0C 0D 0E 0F
      -- -- -- -- -- -- -- --  -- -- -- -- -- -- -- --
0170:       00                                            .             
```

#### Opcodes

```
  0: 0x0172 [0x00] END_REQSTACK()
```

### Event 5203

#### Metadata

| Field        | Value   |
|--------------|---------|
| Entrypoint   | 0x0173  |
| Data Size    | 1 bytes |
| Instructions | 1       |

```
      00 01 02 03 04 05 06 07  08 09 0A 0B 0C 0D 0E 0F
      -- -- -- -- -- -- -- --  -- -- -- -- -- -- -- --
0170:          00                                          .            
```

#### Opcodes

```
  0: 0x0173 [0x00] END_REQSTACK()
```

### Event 5204

#### Metadata

| Field        | Value   |
|--------------|---------|
| Entrypoint   | 0x0174  |
| Data Size    | 1 bytes |
| Instructions | 1       |

```
      00 01 02 03 04 05 06 07  08 09 0A 0B 0C 0D 0E 0F
      -- -- -- -- -- -- -- --  -- -- -- -- -- -- -- --
0170:             00                                        .           
```

#### Opcodes

```
  0: 0x0174 [0x00] END_REQSTACK()
```

### Event 5205

#### Metadata

| Field        | Value   |
|--------------|---------|
| Entrypoint   | 0x0175  |
| Data Size    | 1 bytes |
| Instructions | 1       |

```
      00 01 02 03 04 05 06 07  08 09 0A 0B 0C 0D 0E 0F
      -- -- -- -- -- -- -- --  -- -- -- -- -- -- -- --
0170:                00                                      .          
```

#### Opcodes

```
  0: 0x0175 [0x00] END_REQSTACK()
```

### Event 5206

#### Metadata

| Field        | Value   |
|--------------|---------|
| Entrypoint   | 0x0176  |
| Data Size    | 1 bytes |
| Instructions | 1       |

```
      00 01 02 03 04 05 06 07  08 09 0A 0B 0C 0D 0E 0F
      -- -- -- -- -- -- -- --  -- -- -- -- -- -- -- --
0170:                   00                                    .         
```

#### Opcodes

```
  0: 0x0176 [0x00] END_REQSTACK()
```

### Event 5207

#### Metadata

| Field        | Value   |
|--------------|---------|
| Entrypoint   | 0x0177  |
| Data Size    | 1 bytes |
| Instructions | 1       |

```
      00 01 02 03 04 05 06 07  08 09 0A 0B 0C 0D 0E 0F
      -- -- -- -- -- -- -- --  -- -- -- -- -- -- -- --
0170:                      00                                  .        
```

#### Opcodes

```
  0: 0x0177 [0x00] END_REQSTACK()
```

### Event 5208

#### Metadata

| Field        | Value   |
|--------------|---------|
| Entrypoint   | 0x0178  |
| Data Size    | 1 bytes |
| Instructions | 1       |

```
      00 01 02 03 04 05 06 07  08 09 0A 0B 0C 0D 0E 0F
      -- -- -- -- -- -- -- --  -- -- -- -- -- -- -- --
0170:                          00                               .       
```

#### Opcodes

```
  0: 0x0178 [0x00] END_REQSTACK()
```

### Event 65535.6

#### Metadata

| Field        | Value    |
|--------------|----------|
| Entrypoint   | 0x0179   |
| Data Size    | 14 bytes |
| Instructions | 4        |

```
      00 01 02 03 04 05 06 07  08 09 0A 0B 0C 0D 0E 0F
      -- -- -- -- -- -- -- --  -- -- -- -- -- -- -- --
0170:                             32 1C 80 1F 00 1D 80           2......
0180: 1E 80 16 80 1F 01 00                              .......         
```

#### Opcodes

```
  0: 0x0179 [0x32] ExtData[1]->MainSpeed = 13* * 0.1
  1: 0x017C [0x1F] MOVE_ENTITY: EventEntity moves to X=104.580*, Z=-105.130*, Y=2.250*
  2: 0x0184 [0x1F] MOVE_ENTITY: Update entity position (mode=1)
  3: 0x0186 [0x00] END_REQSTACK()
```

### Event 65535.7

#### Metadata

| Field        | Value   |
|--------------|---------|
| Entrypoint   | 0x0187  |
| Data Size    | 4 bytes |
| Instructions | 2       |

```
      00 01 02 03 04 05 06 07  08 09 0A 0B 0C 0D 0E 0F
      -- -- -- -- -- -- -- --  -- -- -- -- -- -- -- --
0180:                      39  1F 80 00                        9...     
```

#### Opcodes

```
  0: 0x0187 [0x39] SET_ENTITY_DIRECTION(direction=2.8°*)
  1: 0x018A [0x00] END_REQSTACK()
```

### Event 65535.8

#### Metadata

| Field        | Value    |
|--------------|----------|
| Entrypoint   | 0x018B   |
| Data Size    | 14 bytes |
| Instructions | 4        |

```
      00 01 02 03 04 05 06 07  08 09 0A 0B 0C 0D 0E 0F
      -- -- -- -- -- -- -- --  -- -- -- -- -- -- -- --
0180:                                   32 08 80 1F 00             2....
0190: 20 80 21 80 22 80 1F 01  00                        .!."....       
```

#### Opcodes

```
  0: 0x018B [0x32] ExtData[1]->MainSpeed = 30* * 0.1
  1: 0x018E [0x1F] MOVE_ENTITY: EventEntity moves to X=-57.090*, Z=-6.970*, Y=-0.500*
  2: 0x0196 [0x1F] MOVE_ENTITY: Update entity position (mode=1)
  3: 0x0198 [0x00] END_REQSTACK()
```

### Event 65535.9

#### Metadata

| Field        | Value    |
|--------------|----------|
| Entrypoint   | 0x0199   |
| Data Size    | 14 bytes |
| Instructions | 4        |

```
      00 01 02 03 04 05 06 07  08 09 0A 0B 0C 0D 0E 0F
      -- -- -- -- -- -- -- --  -- -- -- -- -- -- -- --
0190:                             32 08 80 1F 00 23 80           2....#.
01A0: 24 80 22 80 1F 01 00                              $."....         
```

#### Opcodes

```
  0: 0x0199 [0x32] ExtData[1]->MainSpeed = 30* * 0.1
  1: 0x019C [0x1F] MOVE_ENTITY: EventEntity moves to X=-57.210*, Z=-6.080*, Y=-0.500*
  2: 0x01A4 [0x1F] MOVE_ENTITY: Update entity position (mode=1)
  3: 0x01A6 [0x00] END_REQSTACK()
```

### Event 65535.10

#### Metadata

| Field        | Value    |
|--------------|----------|
| Entrypoint   | 0x01A7   |
| Data Size    | 14 bytes |
| Instructions | 4        |

```
      00 01 02 03 04 05 06 07  08 09 0A 0B 0C 0D 0E 0F
      -- -- -- -- -- -- -- --  -- -- -- -- -- -- -- --
01A0:                      32  08 80 1F 00 25 80 26 80         2....%.&.
01B0: 22 80 1F 01 00                                    "....           
```

#### Opcodes

```
  0: 0x01A7 [0x32] ExtData[1]->MainSpeed = 30* * 0.1
  1: 0x01AA [0x1F] MOVE_ENTITY: EventEntity moves to X=-56.670*, Z=-9.830*, Y=-0.500*
  2: 0x01B2 [0x1F] MOVE_ENTITY: Update entity position (mode=1)
  3: 0x01B4 [0x00] END_REQSTACK()
```

### Event 65535.11

#### Metadata

| Field        | Value    |
|--------------|----------|
| Entrypoint   | 0x01B5   |
| Data Size    | 54 bytes |
| Instructions | 12       |

```
      00 01 02 03 04 05 06 07  08 09 0A 0B 0C 0D 0E 0F
      -- -- -- -- -- -- -- --  -- -- -- -- -- -- -- --
01B0:                32 05 80  1F 00 27 80 28 80 22 80       2....'.(.".
01C0: 1F 01 1F 00 29 80 2A 80  22 80 1F 01 1F 00 2B 80  ....).*.".....+.
01D0: 2C 80 22 80 1F 01 1F 00  2B 80 2C 80 22 80 1F 01  ,.".....+.,."...
01E0: 1F 00 2D 80 2E 80 22 80  1F 01 00                 ..-..."....     
```

#### Opcodes

```
  0: 0x01B5 [0x32] ExtData[1]->MainSpeed = 40* * 0.1
  1: 0x01B8 [0x1F] MOVE_ENTITY: EventEntity moves to X=-57.380*, Z=-7.740*, Y=-0.500*
  2: 0x01C0 [0x1F] MOVE_ENTITY: Update entity position (mode=1)
  3: 0x01C2 [0x1F] MOVE_ENTITY: EventEntity moves to X=-57.790*, Z=-5.360*, Y=-0.500*
  4: 0x01CA [0x1F] MOVE_ENTITY: Update entity position (mode=1)
  5: 0x01CC [0x1F] MOVE_ENTITY: EventEntity moves to X=-59.100*, Z=-2.300*, Y=-0.500*
  6: 0x01D4 [0x1F] MOVE_ENTITY: Update entity position (mode=1)
  7: 0x01D6 [0x1F] MOVE_ENTITY: EventEntity moves to X=-59.100*, Z=-2.300*, Y=-0.500*
  8: 0x01DE [0x1F] MOVE_ENTITY: Update entity position (mode=1)
  9: 0x01E0 [0x1F] MOVE_ENTITY: EventEntity moves to X=-54.560*, Z=3.320*, Y=-0.500*
 10: 0x01E8 [0x1F] MOVE_ENTITY: Update entity position (mode=1)
 11: 0x01EA [0x00] END_REQSTACK()
```

### Event 65535.12

#### Metadata

| Field        | Value    |
|--------------|----------|
| Entrypoint   | 0x01EB   |
| Data Size    | 31 bytes |
| Instructions | 5        |

```
      00 01 02 03 04 05 06 07  08 09 0A 0B 0C 0D 0E 0F
      -- -- -- -- -- -- -- --  -- -- -- -- -- -- -- --
01E0:                                   32 10 80 C5 2F             2.../
01F0: 80 F8 FF FF 7F F8 FF FF  7F 73 30 30 32 0D 80 1F  .........s002...
0200: 00 30 80 31 80 32 80 1F  01 00                    .0.1.2....      
```

#### Opcodes

```
  0: 0x01EB [0x32] ExtData[1]->MainSpeed = 200* * 0.1
  1: 0x01EE [0xC5] LOAD_SCHEDULED_TASK_ALT3: Load scheduler 0x800D3230 for entities [EventEntity, EventEntity], work=5*, param=12403
  2: 0x01FF [0x1F] MOVE_ENTITY: EventEntity moves to X=87.000*, Z=-115.000*, Y=3.730*
  3: 0x0207 [0x1F] MOVE_ENTITY: Update entity position (mode=1)
  4: 0x0209 [0x00] END_REQSTACK()
```

### Event 65535.13

#### Metadata

| Field        | Value    |
|--------------|----------|
| Entrypoint   | 0x020A   |
| Data Size    | 28 bytes |
| Instructions | 10       |

```
      00 01 02 03 04 05 06 07  08 09 0A 0B 0C 0D 0E 0F
      -- -- -- -- -- -- -- --  -- -- -- -- -- -- -- --
0200:                                39 0D 80 1C 33 80            9...3.
0210: 39 34 80 1C 35 80 39 0D  80 1C 05 80 39 34 80 1C  94..5.9.....94..
0220: 35 80 39 36 80 00                                 5.96..          
```

#### Opcodes

```
  0: 0x020A [0x39] SET_ENTITY_DIRECTION(direction=0.0°*)
  1: 0x020D [0x1C] WAIT(45* ticks)
  2: 0x0210 [0x39] SET_ENTITY_DIRECTION(direction=354.4°*)
  3: 0x0213 [0x1C] WAIT(50* ticks)
  4: 0x0216 [0x39] SET_ENTITY_DIRECTION(direction=0.0°*)
  5: 0x0219 [0x1C] WAIT(40* ticks)
  6: 0x021C [0x39] SET_ENTITY_DIRECTION(direction=354.4°*)
  7: 0x021F [0x1C] WAIT(50* ticks)
  8: 0x0222 [0x39] SET_ENTITY_DIRECTION(direction=357.2°*)
  9: 0x0225 [0x00] END_REQSTACK()
```

### Event 65535.14

#### Metadata

| Field        | Value    |
|--------------|----------|
| Entrypoint   | 0x0226   |
| Data Size    | 44 bytes |
| Instructions | 8        |

```
      00 01 02 03 04 05 06 07  08 09 0A 0B 0C 0D 0E 0F
      -- -- -- -- -- -- -- --  -- -- -- -- -- -- -- --
0220:                   32 10  80 39 36 80 C5 2F 80 F8        2..96../..
0230: FF FF 7F F8 FF FF 7F 73  30 30 32 0D 80 1F 00 37  .......s002....7
0240: 80 38 80 39 80 1F 01 1F  00 3A 80 3B 80 39 80 1F  .8.9.....:.;.9..
0250: 01 00                                             ..              
```

#### Opcodes

```
  0: 0x0226 [0x32] ExtData[1]->MainSpeed = 200* * 0.1
  1: 0x0229 [0x39] SET_ENTITY_DIRECTION(direction=357.2°*)
  2: 0x022C [0xC5] LOAD_SCHEDULED_TASK_ALT3: Load scheduler 0x800D3230 for entities [EventEntity, EventEntity], work=5*, param=12403
  3: 0x023D [0x1F] MOVE_ENTITY: EventEntity moves to X=133.060*, Z=-68.920*, Y=4.000*
  4: 0x0245 [0x1F] MOVE_ENTITY: Update entity position (mode=1)
  5: 0x0247 [0x1F] MOVE_ENTITY: EventEntity moves to X=134.970*, Z=-44.690*, Y=4.000*
  6: 0x024F [0x1F] MOVE_ENTITY: Update entity position (mode=1)
  7: 0x0251 [0x00] END_REQSTACK()
```

### Event 65535.15

#### Metadata

| Field        | Value   |
|--------------|---------|
| Entrypoint   | 0x0252  |
| Data Size    | 4 bytes |
| Instructions | 2       |

```
      00 01 02 03 04 05 06 07  08 09 0A 0B 0C 0D 0E 0F
      -- -- -- -- -- -- -- --  -- -- -- -- -- -- -- --
0250:       39 3C 80 00                                   9<..          
```

#### Opcodes

```
  0: 0x0252 [0x39] SET_ENTITY_DIRECTION(direction=14.1°*)
  1: 0x0255 [0x00] END_REQSTACK()
```

### Event 65535.16

#### Metadata

| Field        | Value   |
|--------------|---------|
| Entrypoint   | 0x0256  |
| Data Size    | 4 bytes |
| Instructions | 2       |

```
      00 01 02 03 04 05 06 07  08 09 0A 0B 0C 0D 0E 0F
      -- -- -- -- -- -- -- --  -- -- -- -- -- -- -- --
0250:                   39 0D  80 00                          9...      
```

#### Opcodes

```
  0: 0x0256 [0x39] SET_ENTITY_DIRECTION(direction=0.0°*)
  1: 0x0259 [0x00] END_REQSTACK()
```

### Event 65535.17

#### Metadata

| Field        | Value   |
|--------------|---------|
| Entrypoint   | 0x025A  |
| Data Size    | 4 bytes |
| Instructions | 2       |

```
      00 01 02 03 04 05 06 07  08 09 0A 0B 0C 0D 0E 0F
      -- -- -- -- -- -- -- --  -- -- -- -- -- -- -- --
0250:                                39 3D 80 00                  9=..  
```

#### Opcodes

```
  0: 0x025A [0x39] SET_ENTITY_DIRECTION(direction=11.2°*)
  1: 0x025D [0x00] END_REQSTACK()
```

### Event 65535.18

#### Metadata

| Field        | Value    |
|--------------|----------|
| Entrypoint   | 0x025E   |
| Data Size    | 15 bytes |
| Instructions | 5        |

```
      00 01 02 03 04 05 06 07  08 09 0A 0B 0C 0D 0E 0F
      -- -- -- -- -- -- -- --  -- -- -- -- -- -- -- --
0250:                                            32 1C                2.
0260: 80 1F 00 3E 80 3F 80 39  80 1F 01 6F 00           ...>.?.9...o.   
```

#### Opcodes

```
  0: 0x025E [0x32] ExtData[1]->MainSpeed = 13* * 0.1
  1: 0x0261 [0x1F] MOVE_ENTITY: EventEntity moves to X=90.000*, Z=-120.000*, Y=4.000*
  2: 0x0269 [0x1F] MOVE_ENTITY: Update entity position (mode=1)
  3: 0x026B [0x6F] WAIT_FRAME_DELAY: Yield until WaitTime reaches zero
  4: 0x026C [0x00] END_REQSTACK()
```

### Event 65535.19

#### Metadata

| Field        | Value    |
|--------------|----------|
| Entrypoint   | 0x026D   |
| Data Size    | 15 bytes |
| Instructions | 5        |

```
      00 01 02 03 04 05 06 07  08 09 0A 0B 0C 0D 0E 0F
      -- -- -- -- -- -- -- --  -- -- -- -- -- -- -- --
0260:                                         32 1C 80               2..
0270: 1F 00 40 80 41 80 39 80  1F 01 6F 00              ..@.A.9...o.    
```

#### Opcodes

```
  0: 0x026D [0x32] ExtData[1]->MainSpeed = 13* * 0.1
  1: 0x0270 [0x1F] MOVE_ENTITY: EventEntity moves to X=76.650*, Z=-124.000*, Y=4.000*
  2: 0x0278 [0x1F] MOVE_ENTITY: Update entity position (mode=1)
  3: 0x027A [0x6F] WAIT_FRAME_DELAY: Yield until WaitTime reaches zero
  4: 0x027B [0x00] END_REQSTACK()
```

### Event 65535.20

#### Metadata

| Field        | Value    |
|--------------|----------|
| Entrypoint   | 0x027C   |
| Data Size    | 15 bytes |
| Instructions | 5        |

```
      00 01 02 03 04 05 06 07  08 09 0A 0B 0C 0D 0E 0F
      -- -- -- -- -- -- -- --  -- -- -- -- -- -- -- --
0270:                                      32 1C 80 1F              2...
0280: 00 42 80 43 80 39 80 1F  01 6F 00                 .B.C.9...o.     
```

#### Opcodes

```
  0: 0x027C [0x32] ExtData[1]->MainSpeed = 13* * 0.1
  1: 0x027F [0x1F] MOVE_ENTITY: EventEntity moves to X=90.500*, Z=-119.500*, Y=4.000*
  2: 0x0287 [0x1F] MOVE_ENTITY: Update entity position (mode=1)
  3: 0x0289 [0x6F] WAIT_FRAME_DELAY: Yield until WaitTime reaches zero
  4: 0x028A [0x00] END_REQSTACK()
```

### Event 65535.21

#### Metadata

| Field        | Value    |
|--------------|----------|
| Entrypoint   | 0x028B   |
| Data Size    | 19 bytes |
| Instructions | 3        |

```
      00 01 02 03 04 05 06 07  08 09 0A 0B 0C 0D 0E 0F
      -- -- -- -- -- -- -- --  -- -- -- -- -- -- -- --
0280:                                   66 05 80 F8 FF             f....
0290: FF 7F F8 FF FF 7F 74 6C  6B 30 1C 00 17 00        ......tlk0....  
```

#### Opcodes

```
  0: 0x028B [0x66] LOAD_EXT_SCHEDULER_MAIN: Load scheduler "tlk0" with entities [EventEntity, EventEntity], work=40*
  1: 0x029A [0x1C] WAIT(Work_Zone_1700[0] ticks)
  2: 0x029D [0x00] END_REQSTACK()
```

### Event 65535.22

#### Metadata

| Field        | Value    |
|--------------|----------|
| Entrypoint   | 0x029E   |
| Data Size    | 19 bytes |
| Instructions | 3        |

```
      00 01 02 03 04 05 06 07  08 09 0A 0B 0C 0D 0E 0F
      -- -- -- -- -- -- -- --  -- -- -- -- -- -- -- --
0290:                                            66 05                f.
02A0: 80 F8 FF FF 7F F8 FF FF  7F 7A 69 74 30 1C 00 17  .........zit0...
02B0: 00                                                .               
```

#### Opcodes

```
  0: 0x029E [0x66] LOAD_EXT_SCHEDULER_MAIN: Load scheduler "zit0" with entities [EventEntity, EventEntity], work=40*
  1: 0x02AD [0x1C] WAIT(Work_Zone_1700[0] ticks)
  2: 0x02B0 [0x00] END_REQSTACK()
```

### Event 65535.23

#### Metadata

| Field        | Value    |
|--------------|----------|
| Entrypoint   | 0x02B1   |
| Data Size    | 19 bytes |
| Instructions | 3        |

```
      00 01 02 03 04 05 06 07  08 09 0A 0B 0C 0D 0E 0F
      -- -- -- -- -- -- -- --  -- -- -- -- -- -- -- --
02B0:    66 44 80 F8 FF FF 7F  F8 FF FF 7F 62 69 6B 30   fD.........bik0
02C0: 1C 00 17 00                                       ....            
```

#### Opcodes

```
  0: 0x02B1 [0x66] LOAD_EXT_SCHEDULER_MAIN: Load scheduler "bik0" with entities [EventEntity, EventEntity], work=42*
  1: 0x02C0 [0x1C] WAIT(Work_Zone_1700[0] ticks)
  2: 0x02C3 [0x00] END_REQSTACK()
```

### Event 65535.24

#### Metadata

| Field        | Value    |
|--------------|----------|
| Entrypoint   | 0x02C4   |
| Data Size    | 19 bytes |
| Instructions | 3        |

```
      00 01 02 03 04 05 06 07  08 09 0A 0B 0C 0D 0E 0F
      -- -- -- -- -- -- -- --  -- -- -- -- -- -- -- --
02C0:             66 45 80 F8  FF FF 7F F8 FF FF 7F 73      fE.........s
02D0: 68 6B 30 1C 00 17 00                              hk0....         
```

#### Opcodes

```
  0: 0x02C4 [0x66] LOAD_EXT_SCHEDULER_MAIN: Load scheduler "shk0" with entities [EventEntity, EventEntity], work=41*
  1: 0x02D3 [0x1C] WAIT(Work_Zone_1700[0] ticks)
  2: 0x02D6 [0x00] END_REQSTACK()
```

### Event 65535.25

#### Metadata

| Field        | Value    |
|--------------|----------|
| Entrypoint   | 0x02D7   |
| Data Size    | 19 bytes |
| Instructions | 3        |

```
      00 01 02 03 04 05 06 07  08 09 0A 0B 0C 0D 0E 0F
      -- -- -- -- -- -- -- --  -- -- -- -- -- -- -- --
02D0:                      66  05 80 F8 FF FF 7F F8 FF         f........
02E0: FF 7F 74 68 6B 31 1C 00  17 00                    ..thk1....      
```

#### Opcodes

```
  0: 0x02D7 [0x66] LOAD_EXT_SCHEDULER_MAIN: Load scheduler "thk1" with entities [EventEntity, EventEntity], work=40*
  1: 0x02E6 [0x1C] WAIT(Work_Zone_1700[0] ticks)
  2: 0x02E9 [0x00] END_REQSTACK()
```

### Event 65535.26

#### Metadata

| Field        | Value    |
|--------------|----------|
| Entrypoint   | 0x02EA   |
| Data Size    | 19 bytes |
| Instructions | 3        |

```
      00 01 02 03 04 05 06 07  08 09 0A 0B 0C 0D 0E 0F
      -- -- -- -- -- -- -- --  -- -- -- -- -- -- -- --
02E0:                                66 05 80 F8 FF FF            f.....
02F0: 7F F8 FF FF 7F 69 72 6F  30 1C 00 17 00           .....iro0....   
```

#### Opcodes

```
  0: 0x02EA [0x66] LOAD_EXT_SCHEDULER_MAIN: Load scheduler "iro0" with entities [EventEntity, EventEntity], work=40*
  1: 0x02F9 [0x1C] WAIT(Work_Zone_1700[0] ticks)
  2: 0x02FC [0x00] END_REQSTACK()
```

### Event 65535.27

#### Metadata

| Field        | Value    |
|--------------|----------|
| Entrypoint   | 0x02FD   |
| Data Size    | 19 bytes |
| Instructions | 3        |

```
      00 01 02 03 04 05 06 07  08 09 0A 0B 0C 0D 0E 0F
      -- -- -- -- -- -- -- --  -- -- -- -- -- -- -- --
02F0:                                         66 44 80               fD.
0300: F8 FF FF 7F F8 FF FF 7F  6E 6D 6F 30 1C 00 17 00  ........nmo0....
```

#### Opcodes

```
  0: 0x02FD [0x66] LOAD_EXT_SCHEDULER_MAIN: Load scheduler "nmo0" with entities [EventEntity, EventEntity], work=42*
  1: 0x030C [0x1C] WAIT(Work_Zone_1700[0] ticks)
  2: 0x030F [0x00] END_REQSTACK()
```

### Event 65535.28

#### Metadata

| Field        | Value    |
|--------------|----------|
| Entrypoint   | 0x0310   |
| Data Size    | 19 bytes |
| Instructions | 3        |

```
      00 01 02 03 04 05 06 07  08 09 0A 0B 0C 0D 0E 0F
      -- -- -- -- -- -- -- --  -- -- -- -- -- -- -- --
0310: 66 46 80 F8 FF FF 7F F8  FF FF 7F 6D 6F 6E 30 1C  fF.........mon0.
0320: 00 17 00                                          ...             
```

#### Opcodes

```
  0: 0x0310 [0x66] LOAD_EXT_SCHEDULER_MAIN: Load scheduler "mon0" with entities [EventEntity, EventEntity], work=35*
  1: 0x031F [0x1C] WAIT(Work_Zone_1700[0] ticks)
  2: 0x0322 [0x00] END_REQSTACK()
```

### Event 65535.29

#### Metadata

| Field        | Value    |
|--------------|----------|
| Entrypoint   | 0x0323   |
| Data Size    | 19 bytes |
| Instructions | 3        |

```
      00 01 02 03 04 05 06 07  08 09 0A 0B 0C 0D 0E 0F
      -- -- -- -- -- -- -- --  -- -- -- -- -- -- -- --
0320:          66 44 80 F8 FF  FF 7F F8 FF FF 7F 74 65     fD.........te
0330: 68 30 1C 00 17 00                                 h0....          
```

#### Opcodes

```
  0: 0x0323 [0x66] LOAD_EXT_SCHEDULER_MAIN: Load scheduler "teh0" with entities [EventEntity, EventEntity], work=42*
  1: 0x0332 [0x1C] WAIT(Work_Zone_1700[0] ticks)
  2: 0x0335 [0x00] END_REQSTACK()
```

### Event 65535.30

#### Metadata

| Field        | Value    |
|--------------|----------|
| Entrypoint   | 0x0336   |
| Data Size    | 16 bytes |
| Instructions | 4        |

```
      00 01 02 03 04 05 06 07  08 09 0A 0B 0C 0D 0E 0F
      -- -- -- -- -- -- -- --  -- -- -- -- -- -- -- --
0330:                   6E F8  FF FF 7F 47 80 99 F8 FF        n....G....
0340: FF 7F 1C 00 17 00                                 ......          
```

#### Opcodes

```
  0: 0x0336 [0x6E] EventEntity uses emote 21*
  1: 0x033D [0x99] Wait for EventEntity animation to complete
  2: 0x0342 [0x1C] WAIT(Work_Zone_1700[0] ticks)
  3: 0x0345 [0x00] END_REQSTACK()
```

### Event 65535.31

#### Metadata

| Field        | Value    |
|--------------|----------|
| Entrypoint   | 0x0346   |
| Data Size    | 49 bytes |
| Instructions | 7        |

```
      00 01 02 03 04 05 06 07  08 09 0A 0B 0C 0D 0E 0F
      -- -- -- -- -- -- -- --  -- -- -- -- -- -- -- --
0340:                   6E F8  FF FF 7F 48 80 99 F8 FF        n....H....
0350: FF 7F BA D9 00 10 01 49  80 4A 80 4B 80 0D 80 1C  .......I.J.K....
0360: 4C 80 BB 4D 80 D9 00 10  01 DB 00 10 01 6D 61 69  L..M.........mai
0370: 6E 0D 80 1C 00 17 00                              n......         
```

#### Opcodes

```
  0: 0x0346 [0x6E] EventEntity uses emote 68*
  1: 0x034D [0x99] Wait for EventEntity animation to complete
  2: 0x0352 [0xBA] SET_ENTITY_POSITION(entity_id=Mischief Marker (ID: 17826009/0x011000D9), pos_x=94.342*, pos_z=-122.127*, pos_y=2.179*, direction=0.0°*)
  3: 0x035F [0x1C] WAIT(140* ticks)
  4: 0x0362 [0xBB] LOAD_EVENT_SCHEDULER_ALT: Load scheduler "main" with entities [Mischief Marker (ID: 17826009/0x011000D9), Musto-Rusto (ID: 17826011/0x011000DB)], work=[27*, 0*]
  5: 0x0373 [0x1C] WAIT(Work_Zone_1700[0] ticks)
  6: 0x0376 [0x00] END_REQSTACK()
```

### Event 65535.32

#### Metadata

| Field        | Value    |
|--------------|----------|
| Entrypoint   | 0x0377   |
| Data Size    | 19 bytes |
| Instructions | 3        |

```
      00 01 02 03 04 05 06 07  08 09 0A 0B 0C 0D 0E 0F
      -- -- -- -- -- -- -- --  -- -- -- -- -- -- -- --
0370:                      66  05 80 F8 FF FF 7F F8 FF         f........
0380: FF 7F 67 6B 72 30 1C 00  17 00                    ..gkr0....      
```

#### Opcodes

```
  0: 0x0377 [0x66] LOAD_EXT_SCHEDULER_MAIN: Load scheduler "gkr0" with entities [EventEntity, EventEntity], work=40*
  1: 0x0386 [0x1C] WAIT(Work_Zone_1700[0] ticks)
  2: 0x0389 [0x00] END_REQSTACK()
```

### Event 65535.33

#### Metadata

| Field        | Value    |
|--------------|----------|
| Entrypoint   | 0x038A   |
| Data Size    | 16 bytes |
| Instructions | 4        |

```
      00 01 02 03 04 05 06 07  08 09 0A 0B 0C 0D 0E 0F
      -- -- -- -- -- -- -- --  -- -- -- -- -- -- -- --
0380:                                6E F8 FF FF 7F 4E            n....N
0390: 80 99 F8 FF FF 7F 1C 00  17 00                    ..........      
```

#### Opcodes

```
  0: 0x038A [0x6E] EventEntity uses emote 10*
  1: 0x0391 [0x99] Wait for EventEntity animation to complete
  2: 0x0396 [0x1C] WAIT(Work_Zone_1700[0] ticks)
  3: 0x0399 [0x00] END_REQSTACK()
```

### Event 65535.34

#### Metadata

| Field        | Value    |
|--------------|----------|
| Entrypoint   | 0x039A   |
| Data Size    | 16 bytes |
| Instructions | 4        |

```
      00 01 02 03 04 05 06 07  08 09 0A 0B 0C 0D 0E 0F
      -- -- -- -- -- -- -- --  -- -- -- -- -- -- -- --
0390:                                6E F8 FF FF 7F 4F            n....O
03A0: 80 99 F8 FF FF 7F 1C 00  17 00                    ..........      
```

#### Opcodes

```
  0: 0x039A [0x6E] EventEntity uses emote 29*
  1: 0x03A1 [0x99] Wait for EventEntity animation to complete
  2: 0x03A6 [0x1C] WAIT(Work_Zone_1700[0] ticks)
  3: 0x03A9 [0x00] END_REQSTACK()
```

### Event 65535.35

#### Metadata

| Field        | Value    |
|--------------|----------|
| Entrypoint   | 0x03AA   |
| Data Size    | 16 bytes |
| Instructions | 4        |

```
      00 01 02 03 04 05 06 07  08 09 0A 0B 0C 0D 0E 0F
      -- -- -- -- -- -- -- --  -- -- -- -- -- -- -- --
03A0:                                6E F8 FF FF 7F 50            n....P
03B0: 80 99 F8 FF FF 7F 1C 00  17 00                    ..........      
```

#### Opcodes

```
  0: 0x03AA [0x6E] EventEntity uses emote 11*
  1: 0x03B1 [0x99] Wait for EventEntity animation to complete
  2: 0x03B6 [0x1C] WAIT(Work_Zone_1700[0] ticks)
  3: 0x03B9 [0x00] END_REQSTACK()
```

### Event 65535.36

#### Metadata

| Field        | Value    |
|--------------|----------|
| Entrypoint   | 0x03BA   |
| Data Size    | 16 bytes |
| Instructions | 4        |

```
      00 01 02 03 04 05 06 07  08 09 0A 0B 0C 0D 0E 0F
      -- -- -- -- -- -- -- --  -- -- -- -- -- -- -- --
03B0:                                6E F8 FF FF 7F 51            n....Q
03C0: 80 99 F8 FF FF 7F 1C 00  17 00                    ..........      
```

#### Opcodes

```
  0: 0x03BA [0x6E] EventEntity uses emote 7*
  1: 0x03C1 [0x99] Wait for EventEntity animation to complete
  2: 0x03C6 [0x1C] WAIT(Work_Zone_1700[0] ticks)
  3: 0x03C9 [0x00] END_REQSTACK()
```

### Event 5217

#### Metadata

| Field        | Value   |
|--------------|---------|
| Entrypoint   | 0x03CA  |
| Data Size    | 7 bytes |
| Instructions | 2       |

```
      00 01 02 03 04 05 06 07  08 09 0A 0B 0C 0D 0E 0F
      -- -- -- -- -- -- -- --  -- -- -- -- -- -- -- --
03C0:                                92 01 F8 FF FF 7F            ......
03D0: 00                                                .               
```

#### Opcodes

```
  0: 0x03CA [0x92] EventEntity->Render.Flags3 ^= 0x01
  1: 0x03D0 [0x00] END_REQSTACK()
```

### Event 5218

#### Metadata

| Field        | Value   |
|--------------|---------|
| Entrypoint   | 0x03D1  |
| Data Size    | 7 bytes |
| Instructions | 2       |

```
      00 01 02 03 04 05 06 07  08 09 0A 0B 0C 0D 0E 0F
      -- -- -- -- -- -- -- --  -- -- -- -- -- -- -- --
03D0:    92 01 F8 FF FF 7F 00                            .......        
```

#### Opcodes

```
  0: 0x03D1 [0x92] EventEntity->Render.Flags3 ^= 0x01
  1: 0x03D7 [0x00] END_REQSTACK()
```

### Event 65535.37

#### Metadata

| Field        | Value     |
|--------------|-----------|
| Entrypoint   | 0x03D8    |
| Data Size    | 283 bytes |
| Instructions | 47        |

```
      00 01 02 03 04 05 06 07  08 09 0A 0B 0C 0D 0E 0F
      -- -- -- -- -- -- -- --  -- -- -- -- -- -- -- --
03D0:                          32 01 80 1E F8 FF FF 7F          2.......
03E0: 1F 00 02 80 03 80 04 80  1F 01 33 01 03 00 00 00  ..........3.....
03F0: 7F 03 01 00 02 7F 03 02  00 01 7F 03 03 00 03 7F  ................
0400: 03 04 00 02 00 66 05 80  F8 FF FF 7F F8 FF FF 7F  .....f..........
0410: 6A 6D 70 30 53 F8 FF FF  7F F8 FF FF 7F 6A 6D 70  jmp0S........jmp
0420: 30 66 05 80 F8 FF FF 7F  F8 FF FF 7F 6A 6D 70 33  0f..........jmp3
0430: 06 05 00 03 06 00 06 80  02 05 00 07 80 04 75 04  ..............u.
0440: 03 02 00 04 00 07 02 00  05 00 37 00 00 01 00 02  ..........7.....
0450: 00 03 00 02 06 00 08 80  04 60 04 08 06 00 09 80  .........`......
0460: 07 00 00 0A 80 07 01 00  06 80 08 05 00 06 00 1C  ................
0470: 0B 80 01 38 04 06 07 00  02 05 00 0C 80 05 C8 04  ...8............
0480: 02 05 00 0D 80 05 93 04  02 07 00 0D 80 00 93 04  ................
0490: 05 07 00 03 02 00 04 00  07 02 00 05 00 37 00 00  .............7..
04A0: 01 00 02 00 03 00 02 06  00 0E 80 05 B3 04 07 06  ................
04B0: 00 05 80 07 00 00 0A 80  07 01 00 06 80 07 05 00  ................
04C0: 06 00 1C 0B 80 01 78 04  33 00 37 00 00 01 00 02  ......x.3.7.....
04D0: 00 03 00 66 05 80 F8 FF  FF 7F F8 FF FF 7F 6A 6D  ...f..........jm
04E0: 70 32 53 DA 00 10 01 DA  00 10 01 6A 6D 70 32 39  p2S........jmp29
04F0: 52 80 00                                          R..             
```

#### Opcodes

```
  0: 0x03D8 [0x32] ExtData[1]->MainSpeed = 20* * 0.1
  1: 0x03DB [0x1E] EventEntity looks at EventEntity and starts talking
  2: 0x03E0 [0x1F] MOVE_ENTITY: EventEntity moves to X=93.240*, Z=-121.020*, Y=2.434*
  3: 0x03E8 [0x1F] MOVE_ENTITY: Update entity position (mode=1)
  4: 0x03EA [0x33] EventEntity->Render.Flags0 |= 0x200000 // Bit 21 (flag=0x01)
  5: 0x03EC [0x03] ExtData[1]->WorkLocal[0] = ExtData[1]->EventPos[0] * 1000.0
  6: 0x03F1 [0x03] ExtData[1]->WorkLocal[1] = ExtData[1]->EventPos[2] * 1000.0
  7: 0x03F6 [0x03] ExtData[1]->WorkLocal[2] = ExtData[1]->EventPos[1] * 1000.0
  8: 0x03FB [0x03] ExtData[1]->WorkLocal[3] = enDirCli(ExtData[1]->EventDir[1]) * 4096.0 * 0.15915963
  9: 0x0400 [0x03] ExtData[1]->WorkLocal[4] = ExtData[1]->WorkLocal[2]
 10: 0x0405 [0x66] LOAD_EXT_SCHEDULER_MAIN: Load scheduler "jmp0" with entities [EventEntity, EventEntity], work=40*
 11: 0x0414 [0x53] WAIT_SCHEDULER_TASK: Wait for scheduler "jmp0" with entities [EventEntity, EventEntity]
 12: 0x0421 [0x66] LOAD_EXT_SCHEDULER_MAIN: Load scheduler "jmp3" with entities [EventEntity, EventEntity], work=40*
 13: 0x0430 [0x06] ExtData[1]->WorkLocal[5] = 0
 14: 0x0433 [0x03] ExtData[1]->WorkLocal[6] = 100*
 15: 0x0438 [0x02] IF !(ExtData[1]->WorkLocal[5] < 4294966996*) GOTO 0x0475
 16: 0x0440 [0x03] ExtData[1]->WorkLocal[2] = ExtData[1]->WorkLocal[4]
 17: 0x0445 [0x07] ExtData[1]->WorkLocal[2] += ExtData[1]->WorkLocal[5]
 18: 0x044A [0x37] UPDATE_EVENT_POSITION_AND_DIR: x=ExtData[1]->WorkLocal[0], z=ExtData[1]->WorkLocal[1], y=ExtData[1]->WorkLocal[2], direction=ExtData[1]->WorkLocal[3]
 19: 0x0453 [0x02] IF !(ExtData[1]->WorkLocal[6] < 30*) GOTO 0x0460
 20: 0x045B [0x08] ExtData[1]->WorkLocal[6] -= 14*
 21: 0x0460 [0x07] ExtData[1]->WorkLocal[0] += 4294967196*
 22: 0x0465 [0x07] ExtData[1]->WorkLocal[1] += 100*
 23: 0x046A [0x08] ExtData[1]->WorkLocal[5] -= ExtData[1]->WorkLocal[6]
 24: 0x046F [0x1C] WAIT(1* ticks)
 25: 0x0472 [0x01] GOTO 0x0438
 26: 0x0475 [0x06] ExtData[1]->WorkLocal[7] = 0

SUBROUTINE_0478:
 27: 0x0478 [0x02] IF !(ExtData[1]->WorkLocal[5] > 1630*) GOTO 0x04C8
 28: 0x0480 [0x02] IF !(ExtData[1]->WorkLocal[5] > 0*) GOTO 0x0493
 29: 0x0488 [0x02] IF !(ExtData[1]->WorkLocal[7] == 0*) GOTO 0x0493
 30: 0x0490 [0x05] ExtData[1]->WorkLocal[7] = 1
 31: 0x0493 [0x03] ExtData[1]->WorkLocal[2] = ExtData[1]->WorkLocal[4]
 32: 0x0498 [0x07] ExtData[1]->WorkLocal[2] += ExtData[1]->WorkLocal[5]
 33: 0x049D [0x37] UPDATE_EVENT_POSITION_AND_DIR: x=ExtData[1]->WorkLocal[0], z=ExtData[1]->WorkLocal[1], y=ExtData[1]->WorkLocal[2], direction=ExtData[1]->WorkLocal[3]
 34: 0x04A6 [0x02] IF !(ExtData[1]->WorkLocal[6] > 1000*) GOTO 0x04B3
 35: 0x04AE [0x07] ExtData[1]->WorkLocal[6] += 40*
 36: 0x04B3 [0x07] ExtData[1]->WorkLocal[0] += 4294967196*
 37: 0x04B8 [0x07] ExtData[1]->WorkLocal[1] += 100*
 38: 0x04BD [0x07] ExtData[1]->WorkLocal[5] += ExtData[1]->WorkLocal[6]
 39: 0x04C2 [0x1C] WAIT(1* ticks)
 40: 0x04C5 [0x01] GOTO 0x0478
 41: 0x04C8 [0x33] EventEntity->Render.Flags0 &= ~ 0x200000 // Bit 21 (flag=0x00)
 42: 0x04CA [0x37] UPDATE_EVENT_POSITION_AND_DIR: x=ExtData[1]->WorkLocal[0], z=ExtData[1]->WorkLocal[1], y=ExtData[1]->WorkLocal[2], direction=ExtData[1]->WorkLocal[3]
 43: 0x04D3 [0x66] LOAD_EXT_SCHEDULER_MAIN: Load scheduler "jmp2" with entities [EventEntity, EventEntity], work=40*
 44: 0x04E2 [0x53] WAIT_SCHEDULER_TASK: Wait for scheduler "jmp2" with entities [Tuffle-Buffle (ID: 17826010/0x011000DA), Tuffle-Buffle (ID: 17826010/0x011000DA)]
 45: 0x04EF [0x39] SET_ENTITY_DIRECTION(direction=19.7°*)
 46: 0x04F2 [0x00] END_REQSTACK()
```

### Event 65535.38

#### Metadata

| Field        | Value    |
|--------------|----------|
| Entrypoint   | 0x04F3   |
| Data Size    | 69 bytes |
| Instructions | 12       |

```
      00 01 02 03 04 05 06 07  08 09 0A 0B 0C 0D 0E 0F
      -- -- -- -- -- -- -- --  -- -- -- -- -- -- -- --
04F0:          32 10 80 AD 02  11 80 F8 FF FF 7F F8 FF     2............
0500: FF 7F 1C 12 80 39 13 80  C5 2F 80 F8 FF FF 7F F8  .....9.../......
0510: FF FF 7F 73 30 30 32 0D  80 1F 00 14 80 15 80 16  ...s002.........
0520: 80 1F 01 1F 00 53 80 54  80 16 80 1F 01 1F 00 55  .....S.T.......U
0530: 80 56 80 0D 80 1F 01 00                           .V......        
```

#### Opcodes

```
  0: 0x04F3 [0x32] ExtData[1]->MainSpeed = 200* * 0.1
  1: 0x04F6 [0xAD] DUAL_ENTITY_SCHEDULER_HANDLER: Execute sub-case 2 with entities [EventEntity, EventEntity], work=9*
  2: 0x0502 [0x1C] WAIT(90* ticks)
  3: 0x0505 [0x39] SET_ENTITY_DIRECTION(direction=356.5°*)
  4: 0x0508 [0xC5] LOAD_SCHEDULED_TASK_ALT3: Load scheduler 0x800D3230 for entities [EventEntity, EventEntity], work=5*, param=12403
  5: 0x0519 [0x1F] MOVE_ENTITY: EventEntity moves to X=101.230*, Z=-108.600*, Y=2.250*
  6: 0x0521 [0x1F] MOVE_ENTITY: Update entity position (mode=1)
  7: 0x0523 [0x1F] MOVE_ENTITY: EventEntity moves to X=101.680*, Z=-106.480*, Y=2.250*
  8: 0x052B [0x1F] MOVE_ENTITY: Update entity position (mode=1)
  9: 0x052D [0x1F] MOVE_ENTITY: EventEntity moves to X=81.900*, Z=-85.330*, Y=0.000*
 10: 0x0535 [0x1F] MOVE_ENTITY: Update entity position (mode=1)
 11: 0x0537 [0x00] END_REQSTACK()
```

### Event 65535.39

#### Metadata

| Field        | Value    |
|--------------|----------|
| Entrypoint   | 0x0538   |
| Data Size    | 13 bytes |
| Instructions | 3        |

```
      00 01 02 03 04 05 06 07  08 09 0A 0B 0C 0D 0E 0F
      -- -- -- -- -- -- -- --  -- -- -- -- -- -- -- --
0530:                          6E F8 FF FF 7F 57 80 99          n....W..
0540: F8 FF FF 7F 00                                    .....           
```

#### Opcodes

```
  0: 0x0538 [0x6E] EventEntity uses emote 1579*
  1: 0x053F [0x99] Wait for EventEntity animation to complete
  2: 0x0544 [0x00] END_REQSTACK()
```

### Event 65535.40

#### Metadata

| Field        | Value     |
|--------------|-----------|
| Entrypoint   | 0x0545    |
| Data Size    | 120 bytes |
| Instructions | 18        |

```
      00 01 02 03 04 05 06 07  08 09 0A 0B 0C 0D 0E 0F
      -- -- -- -- -- -- -- --  -- -- -- -- -- -- -- --
0540:                13 08 00  2F 80 14 08 00 58 80 07       .../....X..
0550: 08 00 59 80 1C 08 00 13  08 00 5A 80 02 08 00 0D  ..Y.......Z.....
0560: 80 80 76 05 66 05 80 F8  FF FF 7F F8 FF FF 7F 69  ..v.f..........i
0570: 72 6F 30 01 B9 05 02 08  00 0B 80 80 8D 05 6E F8  ro0...........n.
0580: FF FF 7F 4F 80 99 F8 FF  FF 7F 01 B9 05 02 08 00  ...O............
0590: 5A 80 80 B9 05 66 44 80  F8 FF FF 7F F8 FF FF 7F  Z....fD.........
05A0: 62 69 6B 30 1C 5B 80 66  44 80 F8 FF FF 7F F8 FF  bik0.[.fD.......
05B0: FF 7F 62 69 6B 31 01 B9  05 01 45 05 00           ..bik1....E..   
```

#### Opcodes

```
  0: 0x0545 [0x13] ExtData[1]->WorkLocal[8] = rand() % 5*
  1: 0x054A [0x14] ExtData[1]->WorkLocal[8] *= 60*
  2: 0x054F [0x07] ExtData[1]->WorkLocal[8] += 300*
  3: 0x0554 [0x1C] WAIT(ExtData[1]->WorkLocal[8] ticks)
  4: 0x0557 [0x13] ExtData[1]->WorkLocal[8] = rand() % 2*
  5: 0x055C [0x02] IF !(ExtData[1]->WorkLocal[8] == 0*) GOTO 0x0576
  6: 0x0564 [0x66] LOAD_EXT_SCHEDULER_MAIN: Load scheduler "iro0" with entities [EventEntity, EventEntity], work=40*
  7: 0x0573 [0x01] GOTO 0x05B9
  8: 0x0576 [0x02] IF !(ExtData[1]->WorkLocal[8] == 1*) GOTO 0x058D
  9: 0x057E [0x6E] EventEntity uses emote 29*
 10: 0x0585 [0x99] Wait for EventEntity animation to complete
 11: 0x058A [0x01] GOTO 0x05B9
 12: 0x058D [0x02] IF !(ExtData[1]->WorkLocal[8] == 2*) GOTO 0x05B9
 13: 0x0595 [0x66] LOAD_EXT_SCHEDULER_MAIN: Load scheduler "bik0" with entities [EventEntity, EventEntity], work=42*
 14: 0x05A4 [0x1C] WAIT(180* ticks)
 15: 0x05A7 [0x66] LOAD_EXT_SCHEDULER_MAIN: Load scheduler "bik1" with entities [EventEntity, EventEntity], work=42*
 16: 0x05B6 [0x01] GOTO 0x05B9

SUBROUTINE_05B9:
 17: 0x05B9 [0x01] GOTO 0x0545
```

#### Data or dead code:

```
# Dead code (unreachable instructions):
     0x05BC [0x00] END_REQSTACK()
```
