# 17826008 - Peladi Shalmohr

## Common Data

| Field            | Value                     |
|------------------|---------------------------|
| Zone             | Western Adoulin (ID: 256) |
| Block Size       | 7612 bytes                |
| Total Events     | 25                        |
| References Count | 181                       |

## List of Events

| Event ID                 | Entrypoint   |   Size |   Instructions |
|--------------------------|--------------|--------|----------------|
| [65535](#event-65535)    | 0x0000       |      1 |              1 |
| [5043](#event-5043)      | 0x0001       |   2013 |            260 |
| [5048](#event-5048)      | 0x07DE       |      1 |              1 |
| [5044](#event-5044)      | 0x07DF       |    366 |             47 |
| [5052](#event-5052)      | 0x094D       |     44 |             12 |
| [65535.1](#event-655351) | 0x0979       |     19 |              5 |
| [65535.2](#event-655352) | 0x098C       |    283 |             45 |
| [5064](#event-5064)      | 0x0AA7       |   2251 |            313 |
| [5066](#event-5066)      | 0x1372       |     52 |             15 |
| [5065](#event-5065)      | 0x13A6       |    640 |             89 |
| [5067](#event-5067)      | 0x1626       |      1 |              1 |
| [5092](#event-5092)      | 0x1627       |      7 |              2 |
| [5093](#event-5093)      | 0x162E       |     28 |              8 |
| [5095](#event-5095)      | 0x164A       |      7 |              2 |
| [5097](#event-5097)      | 0x1651       |     32 |             10 |
| [65535.3](#event-655353) | 0x1671       |     14 |              4 |
| [5209](#event-5209)      | 0x167F       |     51 |             13 |
| [5208](#event-5208)      | 0x16B2       |      7 |              2 |
| [65535.4](#event-655354) | 0x16B9       |     14 |              4 |
| [5210](#event-5210)      | 0x16C7       |    851 |            147 |
| [65535.5](#event-655355) | 0x1A1A       |     19 |              3 |
| [65535.6](#event-655356) | 0x1A2D       |     16 |              4 |
| [65535.7](#event-655357) | 0x1A3D       |     19 |              3 |
| [5218](#event-5218)      | 0x1A50       |      7 |              2 |
| [65535.8](#event-655358) | 0x1A57       |     26 |              6 |

## DAT References (imed_data)

|   Index | Hex Value   |   Dec Value |
|---------|-------------|-------------|
|       0 | 0x00C8      |         200 |
|       1 | 0x0000      |           0 |
|       2 | 0x0013      |          19 |
|       3 | 0x0001      |           1 |
|       4 | 0x024C      |         588 |
|       5 | 0xFFFF91CE  |  4294939086 |
|       6 | 0xFFFE857C  |  4294870396 |
|       7 | 0xFFFFFD76  |  4294966646 |
|       8 | 0xFFFFFE00  |  4294966784 |
|       9 | 0xFFFF759A  |  4294931866 |
|      10 | 0xFFFE6DA8  |  4294864296 |
|      11 | 0x0037      |          55 |
|      12 | 0x003C      |          60 |
|      13 | 0x027B      |         635 |
|      14 | 0x00F0      |         240 |
|      15 | 0x05FA      |        1530 |
|      16 | 0x278C      |       10124 |
|      17 | 0x0320      |         800 |
|      18 | 0x005A      |          90 |
|      19 | 0x001E      |          30 |
|      20 | 0x278D      |       10125 |
|      21 | 0x0B95      |        2965 |
|      22 | 0x00B4      |         180 |
|      23 | 0x278E      |       10126 |
|      24 | 0x0BE1      |        3041 |
|      25 | 0x278F      |       10127 |
|      26 | 0x0032      |          50 |
|      27 | 0x2790      |       10128 |
|      28 | 0x2791      |       10129 |
|      29 | 0x0039      |          57 |
|      30 | 0x2792      |       10130 |
|      31 | 0x0005      |           5 |
|      32 | 0x0006      |           6 |
|      33 | 0x052F      |        1327 |
|      34 | 0x2793      |       10131 |
|      35 | 0x2794      |       10132 |
|      36 | 0x05F9      |        1529 |
|      37 | 0x0078      |         120 |
|      38 | 0x2795      |       10133 |
|      39 | 0x003B      |          59 |
|      40 | 0x2796      |       10134 |
|      41 | 0x0364      |         868 |
|      42 | 0x2797      |       10135 |
|      43 | 0x00C7      |         199 |
|      44 | 0x2798      |       10136 |
|      45 | 0x2799      |       10137 |
|      46 | 0x279A      |       10138 |
|      47 | 0x279B      |       10139 |
|      48 | 0x279C      |       10140 |
|      49 | 0x279D      |       10141 |
|      50 | 0x279E      |       10142 |
|      51 | 0x279F      |       10143 |
|      52 | 0x007C      |         124 |
|      53 | 0x27A5      |       10149 |
|      54 | 0x27A6      |       10150 |
|      55 | 0x0002      |           2 |
|      56 | 0x27A7      |       10151 |
|      57 | 0x27A8      |       10152 |
|      58 | 0x27A9      |       10153 |
|      59 | 0x0600      |        1536 |
|      60 | 0xFFFF8A03  |  4294937091 |
|      61 | 0xFFFE81E4  |  4294869476 |
|      62 | 0x27A4      |       10148 |
|      63 | 0x001A      |          26 |
|      64 | 0x2813      |       10259 |
|      65 | 0x2814      |       10260 |
|      66 | 0x0028      |          40 |
|      67 | 0x16378     |       91000 |
|      68 | 0xFFFE29E2  |  4294846946 |
|      69 | 0x0FA0      |        4000 |
|      70 | 0x16184     |       90500 |
|      71 | 0xFFFE2B40  |  4294847296 |
|      72 | 0x1123      |        4387 |
|      73 | 0x27A0      |       10144 |
|      74 | 0x1713      |        5907 |
|      75 | 0x27A1      |       10145 |
|      76 | 0x0384      |         900 |
|      77 | 0x27A2      |       10146 |
|      78 | 0x27A3      |       10147 |
|      79 | 0xFFFFFE01  |  4294966785 |
|      80 | 0x1192      |        4498 |
|      81 | 0x11D0      |        4560 |
|      82 | 0x1419      |        5145 |
|      83 | 0x15E0      |        5600 |
|      84 | 0x175E      |        5982 |
|      85 | 0x1AB0      |        6832 |
|      86 | 0x284E      |       10318 |
|      87 | 0x1701      |        5889 |
|      88 | 0x4BF0      |       19440 |
|      89 | 0x141B      |        5147 |
|      90 | 0x0BB8      |        3000 |
|      91 | 0x284F      |       10319 |
|      92 | 0x2850      |       10320 |
|      93 | 0x9A08      |       39432 |
|      94 | 0x2851      |       10321 |
|      95 | 0x000F      |          15 |
|      96 | 0x080D      |        2061 |
|      97 | 0x0009      |           9 |
|      98 | 0x0069      |         105 |
|      99 | 0x2852      |       10322 |
|     100 | 0x2853      |       10323 |
|     101 | 0x02FF      |         767 |
|     102 | 0x2854      |       10324 |
|     103 | 0x2855      |       10325 |
|     104 | 0x2856      |       10326 |
|     105 | 0x0906      |        2310 |
|     106 | 0x2857      |       10327 |
|     107 | 0x2858      |       10328 |
|     108 | 0x2859      |       10329 |
|     109 | 0x285A      |       10330 |
|     110 | 0x285B      |       10331 |
|     111 | 0x285C      |       10332 |
|     112 | 0x285D      |       10333 |
|     113 | 0x0064      |         100 |
|     114 | 0x000D      |          13 |
|     115 | 0xFFFF8F48  |  4294938440 |
|     116 | 0xFFFE8782  |  4294870914 |
|     117 | 0xFFFF8BEF  |  4294937583 |
|     118 | 0xFFFE8B25  |  4294871845 |
|     119 | 0x285E      |       10334 |
|     120 | 0x285F      |       10335 |
|     121 | 0x2860      |       10336 |
|     122 | 0x2861      |       10337 |
|     123 | 0x0015      |          21 |
|     124 | 0x2862      |       10338 |
|     125 | 0x2863      |       10339 |
|     126 | 0xF4D3      |       62675 |
|     127 | 0x1E061     |      122977 |
|     128 | 0x7D00      |       32000 |
|     129 | 0x0096      |         150 |
|     130 | 0x2864      |       10340 |
|     131 | 0x0020      |          32 |
|     132 | 0x2865      |       10341 |
|     133 | 0x2870      |       10352 |
|     134 | 0x095C      |        2396 |
|     135 | 0x286C      |       10348 |
|     136 | 0x095D      |        2397 |
|     137 | 0x286D      |       10349 |
|     138 | 0x286E      |       10350 |
|     139 | 0x027C      |         636 |
|     140 | 0x286F      |       10351 |
|     141 | 0x28D2      |       10450 |
|     142 | 0x28D3      |       10451 |
|     143 | 0xFFFF8B98  |  4294937496 |
|     144 | 0xFFFE8AF4  |  4294871796 |
|     145 | 0x028A      |         650 |
|     146 | 0x29D6      |       10710 |
|     147 | 0x29D7      |       10711 |
|     148 | 0x29D8      |       10712 |
|     149 | 0x16292     |       90770 |
|     150 | 0xFFFE311C  |  4294848796 |
|     151 | 0x0004      |           4 |
|     152 | 0x29D9      |       10713 |
|     153 | 0x2710      |       10000 |
|     154 | 0x29DA      |       10714 |
|     155 | 0x29DB      |       10715 |
|     156 | 0x6B87      |       27527 |
|     157 | 0x6B88      |       27528 |
|     158 | 0x6B89      |       27529 |
|     159 | 0x6B8A      |       27530 |
|     160 | 0x0003      |           3 |
|     161 | 0x29DC      |       10716 |
|     162 | 0x29DD      |       10717 |
|     163 | 0x29DE      |       10718 |
|     164 | 0x29DF      |       10719 |
|     165 | 0xC350      |       50000 |
|     166 | 0x29E3      |       10723 |
|     167 | 0x29E2      |       10722 |
|     168 | 0x29E7      |       10727 |
|     169 | 0x29E0      |       10720 |
|     170 | 0x29E4      |       10724 |
|     171 | 0x29E5      |       10725 |
|     172 | 0x29E6      |       10726 |
|     173 | 0x29E1      |       10721 |
|     174 | 0x0008      |           8 |
|     175 | 0x0019      |          25 |
|     176 | 0x9E34      |       40500 |
|     177 | 0xFFFFEA20  |  4294961696 |
|     178 | 0x06FF      |        1791 |
|     179 | 0x9088      |       37000 |
|     180 | 0xFFFFE69C  |  4294960796 |

## String References

- **10124**: I can't believe it! That flop of a duo causes prrroblem after problem and sucks all the life out of the room--and now they're late!
- **10125**: I hirrred them to serve as novice entertainers for those from the Middle Lands, and no one crrracks so much as a smile.
- **10126**: Forrrget making a quick bit of catnip--I can't even rrrecoup my investment!
- **10127**: No, it's my own fault for brrringing them here in the first place.
- **10128**: I've got to unearth those dolts before they get into even more trrrouble!
- **10129**: On top of it all, their managerrr quits, leaving me to play a game of cat and mouse. They're so off-kilter I might need to call in a favor from the Order of Thurandaut! Maybe get me a raptorrr or two.
- **10130**: Rrraptors? No, I need something with hands...
- **10131**: Oh-ho! Another visitor, I see. Here to apply to be a purrrformer?
- **10132**: (<Sigh> With that grrrim look on [his/her] face, [he'd/she'd] just scare the audience away. Oh, Altana, why can't you bring me some real talent?)
- **10133**: So, what is it you do, then? Crrroak out a tune? Two-left-feet your way to miserrry? Just don't tell me you're going to bring the house crashing down with your "jokes"!
- **10134**: So that must mean that... You want to be a managerrr!
- **10135**: We'd be just tickled pink to have you! (Yes, yes...this is a golden opportunity for success. I must rope [him/her] in before [he/she] rrrealizes what [he's/she's] getting into...)
- **10136**: Well, you're in for a bit of luck! We have a chance opening for a new managerrr...something that only happens once every few yearrrs.
- **10137**: Of course, there's a bit of a grrrooming period first, but I can see in your eyes that you're a lion of a worker!
- **10138**: But I've skipped over the self-intrrroduction, haven't I? My name is Peladi Shalmohr.
- **10139**: And you?
- **10140**: <Player>? A name befitting one with your flairrr, to be sure.
- **10141**: So let's get starrrted right away, hmm? Money doesn't make itself!
- **10142**: [Good to go?/Ready to hit it off?] [You bet!/Um, no?/Manager? Me? Uhhh...]
- **10143**: Outstanding! Your firrrst duty as manager is to find our newest "comedians"-in-training: Tarutaru Sauce.
- **10144**: How will you rrrecognize them? Well, one has hair shaped like $0.
- **10145**: And the otherrr's hair looks like rotten $0.
- **10146**: Well, together they're like $0. They've got heads, but nothing to fill them.
- **10147**: What are you standing arrround for? Pounce to it! (For the love of all that is sacrrred, find them before they cause more trouble...)
- **10148**: You forgot what they looked like already? <Sigh> Let me rrrun it by you once more.
- **10149**: Now listen good: there's only room for one managerrr, and if you can't perform your duties, there's a whole legion of people who're willing to take your place!
- **10150**: <Player>, you were borrrn to be a manager! I can feel it in my tail! Rrready to make a splash in the entertainment world?
- **10151**: (Come on, come on...I can't let this fish slip through my paws...!)
- **10152**: The best part of being the top cat is the fame and forrrtune that comes with success!
- **10153**: This is a unique opportunity for you. You'd never forgive yourself if you let it slip from your grrrasp!
- **10259**: <Mutter> With those two running around, I can't even focus on my worrrk...
- **10260**: <Player>! Don't forrrget the most important task at hand--keep Tarutaru Sauce out of trouble, or your days as an apprentice manager are numbered!
- **10318**: $0...$1 gil... $2...$3 gil... $4...$5 gil...
- **10319**: $0...$1 gil... $2...$3 gil...
- **10320**: Masad, you good-for-nothing currr! Just how much is it!?
- **10322**: $0 gil!? Are you kidding me!?
- **10323**: <Player>, get over here!
- **10324**: Tell me, "[Mr./Ms.] Managerrr"...just what do you think the gil we're talking about is for?
- **10325**: What is the money for? [I haven't the foggiest./My salary!/Do you mean to tell me...]
- **10326**: Your extrrreme honesty is so refreshing...
- **10327**: ...Not in your wildest drrreams!
- **10328**: You're as unfathomably stupid as a mouse repeatedly caught in the same trrrap!
- **10329**: As impudent as you are ugly, I see. I have to say, I like your gumption...
- **10330**: Did you forget that you're at the bottom of this scrrratching post!? You'll get no pay until you've shown you're not totally useless!
- **10331**: Oh? You think you have an idea of what the money's for? You rrreally catch on quick, don't you? You must even think I'm impressed.
- **10332**: Stop prrretending that your head is filled with something other than cobwebs!
- **10333**: Tarutaru Sauce--that's right, your Tarutaru Sauce--has been rrrunning up a tab at vendors all throughout the city--and this is their total bill!
- **10334**: Those bumbling morrrons spend all their time eating their way throughout the city, but mysteriously "never-wever have time for work."
- **10335**: It's all because a certain someone hasn't been managing them prrroperly. Now, who do you think that could be?
- **10336**: That's rrright, <Player>, you! All this is your fault!
- **10337**: Paying their tab is your rrresponsibility!
- **10338**: Why're you still standing around here like a dead trrree in Yorcia Weald!? Hurry up before they rrrack up more expenses, you lazy good-for-nothing!
- **10339**: <Sigh> Even that rrravenous Galka acquaintance of mine doesn't inhale as much as those two...
- **10348**: What do you mean, "I don't know where to go"? You've got the invoice rrright in front of you! Now get crrracking before the coalition collapses under the weight of their collective behinds!
- **10349**: You handed over the $3 and the $3.
- **10350**: Finally finished, are we?
- **10351**: Well? Stop flounderrring about here and find those two idiots!
- **10352**: Get your rrrear in gear and catch those fools before it's too late!
- **10450**: Haven't you done enough ogling for one day!? Get out there and make sure Tarutaru Sauce isn't wrrreaking havoc throughout the city!
- **10451**: Owwwwww... Those fools made me thrrrow my back out!
- **10710**: Looking for Tarutaru Sauce? Can't say I've seen those two crrretins around lately.
- **10711**: But isn't that your job? Hmmmmmmmmm?
- **10712**: I suppose it'd be too much to ask for them to have boarrrded the last ship bound for Windurst.
- **10713**: <Sigh> You're undoubtedly herrre for your Mummers' Coalition signet, so I'll give you a choice of four.
- **10714**: Choose wisely, as if you want anotherrr one I'll charge you a handling fee of $0 bayld.
- **10715**: But such precious signets take a fair bit of time to fashion, so you may need to wait a tad in between trrransactions.
- **10719**: Listen carefully. This is a prrrized artifact of the Order of Thurandaut. Losing it could be considered a grievous breach of contract.
- **10720**: Here for a new signet? Well...you'll need to trrrade the old one to me.
- **10721**: So? Which signet you in the business for?
- **10723**: Don't try to bamboozle me! That's not enough bayld!
- **10724**: Ugh! How could you go about losing your signet!? You're lucky I don't brrring Maester Flaviria out here to give you a tongue-lashing!
- **10725**: Normally it would spell the end of your dead-on-the-vine careerrr... But I'll let it pass--this time.
- **10726**: Don't think I'll give it away for a song and a dance. I'll need a fee of $0 bayld.
- **10727**: And what do you want? You've gotta wait a little while to exchange your signet.[/ And don't tell me you've lost the old one!]

## Events

### Event 65535

#### Metadata

| Field        | Value   |
|--------------|---------|
| Entrypoint   | 0x0000  |
| Data Size    | 1 bytes |
| Instructions | 1       |

```
      00 01 02 03 04 05 06 07  08 09 0A 0B 0C 0D 0E 0F
      -- -- -- -- -- -- -- --  -- -- -- -- -- -- -- --
0000: 00                                                .               
```

#### Opcodes

```
  0: 0x0000 [0x00] END_REQSTACK()
```

### Event 5043

#### Metadata

| Field        | Value      |
|--------------|------------|
| Entrypoint   | 0x0001     |
| Data Size    | 2013 bytes |
| Instructions | 234        |

```
      00 01 02 03 04 05 06 07  08 09 0A 0B 0C 0D 0E 0F
      -- -- -- -- -- -- -- --  -- -- -- -- -- -- -- --
0000:    42 45 00 80 F0 FF FF  7F F0 FF FF 7F 66 64 6F   BE..........fdo
0010: 31 01 80 55 00 80 F0 FF  FF 7F F0 FF FF 7F 66 64  1..U..........fd
0020: 6F 31 46 01 38 02 80 02  09 10 03 80 00 35 00 75  o1F.8........5.u
0030: 00 04 80 75 01 37 05 80  06 80 07 80 08 80 1E F8  ...u.7..........
0040: FF FF 7F 6F 70 4A F0 FF  FF 7F F0 FF FF 7F 6F 76  ...opJ........ov
0050: F0 FF FF 7F BA F0 FF FF  7F 09 80 0A 80 07 80 08  ................
0060: 80 4E 01 F0 FF FF 7F 80  F8 FF FF 7F 80 F0 FF FF  .N..............
0070: 7F 80 65 01 10 01 94 01  F8 FF FF 7F 94 01 F0 FF  ..e.............
0080: FF 7F 94 01 65 01 10 01  79 00 65 01 10 01 F8 FF  ....e...y.e.....
0090: FF 7F 92 01 F8 FF FF 7F  92 01 65 01 10 01 92 01  ..........e.....
00A0: 66 01 10 01 92 01 67 01  10 01 92 01 68 01 10 01  f.....g.....h...
00B0: 92 01 69 01 10 01 92 01  6B 01 10 01 92 01 10 01  ..i.....k.......
00C0: 10 01 92 01 3B 00 10 01  92 01 3F 00 10 01 29 10  ....;.....?...).
00D0: F0 FF FF 7F 02 03 01 00  02 10 66 0B 80 F8 FF FF  ..........f.....
00E0: 7F F8 FF FF 7F 74 6C 6B  30 1C 0C 80 45 0D 80 F8  .....tlk0...E...
00F0: FF FF 7F F8 FF FF 7F 73  30 30 30 01 80 45 00 80  .......s000..E..
0100: F0 FF FF 7F F0 FF FF 7F  66 64 69 31 01 80 1C 0E  ........fdi1....
0110: 80 66 0B 80 F8 FF FF 7F  F8 FF FF 7F 74 6C 6B 31  .f..........tlk1
0120: 5B 0F 80 F8 FF FF 7F F8  FF FF 7F 68 6A 61 30 1D  [..........hja0.
0130: 10 80 23 52 0D 80 F8 FF  FF 7F F8 FF FF 7F 73 30  ..#R..........s0
0140: 30 30 45 0D 80 F8 FF FF  7F F8 FF FF 7F 73 30 30  00E..........s00
0150: 31 01 80 29 10 65 01 10  01 04 1E 65 01 10 01 6F  1..).e.....e...o
0160: 70 53 F8 FF FF 7F F8 FF  FF 7F 68 6A 61 30 66 0B  pS........hja0f.
0170: 80 F8 FF FF 7F F8 FF FF  7F 74 6C 6B 30 59 03 65  .........tlk0Y.e
0180: 01 10 01 11 80 7B 65 01  10 01 1C 12 80 7B F8 FF  .....{e......{..
0190: FF 7F 52 0D 80 F8 FF FF  7F F8 FF FF 7F 73 30 30  ..R..........s00
01A0: 31 45 0D 80 F8 FF FF 7F  F8 FF FF 7F 73 30 33 38  1E..........s038
01B0: 01 80 1C 13 80 1D 14 80  23 5B 15 80 F8 FF FF 7F  ........#[......
01C0: F8 FF FF 7F 79 72 65 30  03 00 17 16 80 27 10 F0  ....yre0.....'..
01D0: FF FF 7F 48 1D 17 80 23  2A 10 F0 FF FF 7F 5B 18  ...H...#*.....[.
01E0: 80 F8 FF FF 7F F8 FF FF  7F 74 75 6E 30 03 00 17  .........tun0...
01F0: 0E 80 27 10 F0 FF FF 7F  48 1D 19 80 23 2A 10 F0  ..'.....H...#*..
0200: FF FF 7F 66 1A 80 F8 FF  FF 7F F8 FF FF 7F 74 68  ...f..........th
0210: 6B 31 81 00 F8 FF FF 7F  1D 1B 80 23 1D 1C 80 23  k1.........#...#
0220: 81 01 F8 FF FF 7F 66 1D  80 F8 FF FF 7F F8 FF FF  ......f.........
0230: 7F 6E 74 6F 30 03 00 17  16 80 27 10 F0 FF FF 7F  .nto0.....'.....
0240: 48 1D 1E 80 23 2A 10 F0  FF FF 7F 52 0D 80 F8 FF  H...#*.....R....
0250: FF 7F F8 FF FF 7F 73 30  33 38 4E 00 F0 FF FF 7F  ......s038N.....
0260: 45 0D 80 F8 FF FF 7F F8  FF FF 7F 73 30 30 34 01  E..........s004.
0270: 80 66 1D 80 F8 FF FF 7F  F8 FF FF 7F 6E 74 6F 31  .f..........nto1
0280: 27 10 F0 FF FF 7F 37 1E  F0 FF FF 7F 6F 70 1C 16  '.....7.....op..
0290: 80 52 0D 80 F8 FF FF 7F  F8 FF FF 7F 73 30 30 34  .R..........s004
02A0: 02 01 00 1F 80 00 BC 02  45 0D 80 F8 FF FF 7F F8  ........E.......
02B0: FF FF 7F 73 30 30 35 01  80 01 E9 02 02 01 00 20  ...s005........ 
02C0: 80 00 D8 02 45 0D 80 F8  FF FF 7F F8 FF FF 7F 73  ....E..........s
02D0: 30 30 35 01 80 01 E9 02  45 0D 80 F8 FF FF 7F F8  005.....E.......
02E0: FF FF 7F 73 30 31 30 01  80 2A 10 F0 FF FF 7F 4A  ...s010..*.....J
02F0: F0 FF FF 7F F8 FF FF 7F  6F 76 F0 FF FF 7F 5B 21  ........ov....[!
0300: 80 F8 FF FF 7F F8 FF FF  7F 73 74 61 30 1D 22 80  .........sta0.".
0310: 23 02 01 00 1F 80 00 2B  03 52 0D 80 F8 FF FF 7F  #......+.R......
0320: F8 FF FF 7F 73 30 30 35  01 54 03 02 01 00 20 80  ....s005.T.... .
0330: 00 45 03 52 0D 80 F8 FF  FF 7F F8 FF FF 7F 73 30  .E.R..........s0
0340: 30 35 01 54 03 52 0D 80  F8 FF FF 7F F8 FF FF 7F  05.T.R..........
0350: 73 30 31 30 45 0D 80 F8  FF FF 7F F8 FF FF 7F 73  s010E..........s
0360: 30 30 36 01 80 1E F0 FF  FF 7F 7C 00 F8 FF FF 7F  006.......|.....
0370: 66 1D 80 F8 FF FF 7F F8  FF FF 7F 6E 74 6F 30 03  f..........nto0.
0380: 00 17 16 80 27 10 F0 FF  FF 7F 48 1D 23 80 23 2A  ....'.....H.#.#*
0390: 10 F0 FF FF 7F 7C 01 F8  FF FF 7F 52 0D 80 F8 FF  .....|.....R....
03A0: FF 7F F8 FF FF 7F 73 30  30 36 45 0D 80 F8 FF FF  ......s006E.....
03B0: 7F F8 FF FF 7F 73 30 34  31 01 80 5B 24 80 F8 FF  .....s041..[$...
03C0: FF 7F F8 FF FF 7F 6D 61  6E 30 03 00 17 25 80 27  ......man0...%.'
03D0: 10 F0 FF FF 7F 48 1D 26  80 23 2A 10 F0 FF FF 7F  .....H.&.#*.....
03E0: 52 0D 80 F8 FF FF 7F F8  FF FF 7F 73 30 34 31 A4  R..........s041.
03F0: 01 81 00 F8 FF FF 7F 45  0D 80 F8 FF FF 7F F8 FF  .......E........
0400: FF 7F 73 30 30 38 01 80  66 27 80 F8 FF FF 7F F8  ..s008..f'......
0410: FF FF 7F 74 6C 6B 30 1D  28 80 23 81 01 F8 FF FF  ...tlk0.(.#.....
0420: 7F 52 0D 80 F8 FF FF 7F  F8 FF FF 7F 73 30 30 38  .R..........s008
0430: 45 0D 80 F8 FF FF 7F F8  FF FF 7F 73 30 34 33 01  E..........s043.
0440: 80 5B 29 80 F8 FF FF 7F  F8 FF FF 7F 79 61 64 30  .[).........yad0
0450: 1D 2A 80 23 52 0D 80 F8  FF FF 7F F8 FF FF 7F 73  .*.#R..........s
0460: 30 34 33 02 01 00 1F 80  00 7F 04 45 0D 80 F8 FF  043........E....
0470: FF 7F F8 FF FF 7F 73 30  34 37 01 80 01 AC 04 02  ......s047......
0480: 01 00 20 80 00 9B 04 45  0D 80 F8 FF FF 7F F8 FF  .. ....E........
0490: FF 7F 73 30 34 37 01 80  01 AC 04 45 0D 80 F8 FF  ..s047.....E....
04A0: FF 7F F8 FF FF 7F 73 30  34 32 01 80 66 2B 80 F8  ......s042..f+..
04B0: FF FF 7F F8 FF FF 7F 74  6C 6B 30 1D 2C 80 23 1D  .......tlk0.,.#.
04C0: 2D 80 23 1D 2E 80 23 1D  2F 80 23 66 2B 80 F8 FF  -.#...#./.#f+...
04D0: FF 7F F8 FF FF 7F 74 6C  6B 31 03 03 10 12 80 29  ......tlk1.....)
04E0: 10 F0 FF FF 7F 35 1C 13  80 02 01 00 1F 80 00 03  .....5..........
04F0: 05 52 0D 80 F8 FF FF 7F  F8 FF FF 7F 73 30 34 37  .R..........s047
0500: 01 2C 05 02 01 00 20 80  00 1D 05 52 0D 80 F8 FF  .,.... ....R....
0510: FF 7F F8 FF FF 7F 73 30  34 37 01 2C 05 52 0D 80  ......s047.,.R..
0520: F8 FF FF 7F F8 FF FF 7F  73 30 34 32 45 0D 80 F8  ........s042E...
0530: FF FF 7F F8 FF FF 7F 73  30 34 30 01 80 66 2B 80  .......s040..f+.
0540: F8 FF FF 7F F8 FF FF 7F  74 6C 6B 30 1D 30 80 23  ........tlk0.0.#
0550: 55 0D 80 F8 FF FF 7F F8  FF FF 7F 73 30 34 30 45  U..........s040E
0560: 0D 80 F8 FF FF 7F F8 FF  FF 7F 73 30 30 37 01 80  ..........s007..
0570: 5B 24 80 F8 FF FF 7F F8  FF FF 7F 6D 61 6E 30 7B  [$.........man0{
0580: F8 FF FF 7F 1D 31 80 23  06 00 00 03 02 10 01 80  .....1.#........
0590: 24 32 80 01 80 00 00 25  02 00 10 01 80 00 91 06  $2.....%........
05A0: 52 0D 80 F8 FF FF 7F F8  FF FF 7F 73 30 30 37 79  R..........s007y
05B0: 00 F8 FF FF 7F F0 FF FF  7F 02 01 00 1F 80 00 D5  ................
05C0: 05 45 0D 80 F8 FF FF 7F  F8 FF FF 7F 73 30 34 38  .E..........s048
05D0: 01 80 01 02 06 02 01 00  20 80 00 F1 05 45 0D 80  ........ ....E..
05E0: F8 FF FF 7F F8 FF FF 7F  73 30 34 38 01 80 01 02  ........s048....
05F0: 06 45 0D 80 F8 FF FF 7F  F8 FF FF 7F 73 30 34 35  .E..........s045
0600: 01 80 66 27 80 F8 FF FF  7F F8 FF FF 7F 74 6C 6B  ..f'.........tlk
0610: 30 1D 33 80 23 1A 9F 09  45 00 80 F0 FF FF 7F F0  0.3.#...E.......
0620: FF FF 7F 66 64 6F 31 01  80 55 00 80 F0 FF FF 7F  ...fdo1..U......
0630: F0 FF FF 7F 66 64 6F 31  02 01 00 1F 80 00 52 06  ....fdo1......R.
0640: 52 0D 80 F8 FF FF 7F F8  FF FF 7F 73 30 34 39 01  R..........s049.
0650: 7B 06 02 01 00 20 80 00  6C 06 52 0D 80 F8 FF FF  {.... ..l.R.....
0660: 7F F8 FF FF 7F 73 30 34  39 01 7B 06 52 0D 80 F8  .....s049.{.R...
0670: FF FF 7F F8 FF FF 7F 73  30 34 36 46 00 45 00 80  .......s046F.E..
0680: F0 FF FF 7F F0 FF FF 7F  66 64 69 32 01 80 01 DC  ........fdi2....
0690: 07 02 00 10 03 80 00 16  07 52 0D 80 F8 FF FF 7F  .........R......
06A0: F8 FF FF 7F 73 30 30 37  45 0D 80 F8 FF FF 7F F8  ....s007E.......
06B0: FF FF 7F 73 30 34 34 01  80 66 34 80 F8 FF FF 7F  ...s044..f4.....
06C0: F8 FF FF 7F 70 6F 73 30  81 00 F8 FF FF 7F 1D 35  ....pos0.......5
06D0: 80 23 1D 36 80 23 81 01  F8 FF FF 7F 52 0D 80 F8  .#.6.#......R...
06E0: FF FF 7F F8 FF FF 7F 73  30 34 34 45 0D 80 F8 FF  .......s044E....
06F0: FF 7F F8 FF FF 7F 73 30  30 37 01 80 5B 24 80 F8  ......s007..[$..
0700: FF FF 7F F8 FF FF 7F 6D  61 6E 30 03 02 10 03 80  .......man0.....
0710: 01 90 05 01 DC 07 02 00  10 37 80 00 DC 07 52 0D  .........7....R.
0720: 80 F8 FF FF 7F F8 FF FF  7F 73 30 30 37 45 0D 80  .........s007E..
0730: F8 FF FF 7F F8 FF FF 7F  73 30 30 39 01 80 66 1A  ........s009..f.
0740: 80 F8 FF FF 7F F8 FF FF  7F 74 68 6B 31 03 00 17  .........thk1...
0750: 25 80 27 10 F0 FF FF 7F  48 1D 38 80 23 2A 10 F0  %.'.....H.8.#*..
0760: FF FF 7F 66 1A 80 F8 FF  FF 7F F8 FF FF 7F 74 68  ...f..........th
0770: 6B 32 7C 01 F8 FF FF 7F  66 34 80 F8 FF FF 7F F8  k2|.....f4......
0780: FF FF 7F 70 6F 73 30 81  00 F8 FF FF 7F 1D 39 80  ...pos0.......9.
0790: 23 1D 3A 80 23 81 01 F8  FF FF 7F 52 0D 80 F8 FF  #.:.#......R....
07A0: FF 7F F8 FF FF 7F 73 30  30 39 45 0D 80 F8 FF FF  ......s009E.....
07B0: 7F F8 FF FF 7F 73 30 30  37 01 80 3C 00 00 37 80  .....s007..<..7.
07C0: 03 80 5B 24 80 F8 FF FF  7F F8 FF FF 7F 6D 61 6E  ..[$.........man
07D0: 30 03 02 10 03 80 01 90  05 01 DC 07 21 00        0...........!.  
```

#### Opcodes

```
  0: 0x0001 [0x42] SET_CLI_EVENT_CANCEL_DATA()
  1: 0x0002 [0x45] LOAD_SCHEDULED_TASK: Load scheduler "fdo1" with entities [LocalPlayer, LocalPlayer], work=[200*, 0*]
  2: 0x0013 [0x55] WAIT_LOAD_SCHEDULER: Wait for scheduler "fdo1" with entities [LocalPlayer, LocalPlayer], work=200*
  3: 0x0022 [0x46] CAMERA_CONTROL: Disable user control
  4: 0x0024 [0x38] SET_CLIENT_EVENT_MODE(mode=19*)
  5: 0x0027 [0x02] IF !(Work_Zone[9] == 1*) GOTO 0x0035
  6: 0x002F [0x75] LOAD_ROOM(Load indoor room, room=588*)
  7: 0x0033 [0x75] LOAD_ROOM(No action)
  8: 0x0035 [0x37] UPDATE_EVENT_POSITION_AND_DIR: x=-28.210*, z=-96.900*, y=-0.650*, direction=377476174.2°*
  9: 0x003E [0x1E] EventEntity looks at EventEntity and starts talking
 10: 0x0043 [0x6F] WAIT_FRAME_DELAY: Yield until WaitTime reaches zero
 11: 0x0044 [0x70] WAIT_ENTITY_RENDER_FLAG: Wait while EventEntity->Render.Flags3 bit 2 is set (cancel turn if not)
 12: 0x0045 [0x4A] LocalPlayer looks at LocalPlayer
 13: 0x004E [0x6F] WAIT_FRAME_DELAY: Yield until WaitTime reaches zero
 14: 0x004F [0x76] CHECK_ENTITY_RENDER_FLAGS: Wait until LocalPlayer Render.Flags0 and Render.Flags3 conditions are met
 15: 0x0054 [0xBA] SET_ENTITY_POSITION(entity_id=LocalPlayer, pos_x=-35.430*, pos_z=-103.000*, pos_y=-0.650*, direction=377476174.2°*)
 16: 0x0061 [0x4E] SET_ENTITY_HIDE_FLAG: Hide LocalPlayer
 17: 0x0067 [0x80] LOAD_WAIT(entity=EventEntity)
 18: 0x006C [0x80] LOAD_WAIT(entity=LocalPlayer)
 19: 0x0071 [0x80] LOAD_WAIT(entity=Masad (ID: 17826149/0x01100165))
 20: 0x0076 [0x94] EventEntity->Render.Flags3 ^= 0x01
 21: 0x007C [0x94] LocalPlayer->Render.Flags3 ^= 0x01
 22: 0x0082 [0x94] Masad (ID: 17826149/0x01100165)->Render.Flags3 ^= 0x01
 23: 0x0088 [0x79] Masad (ID: 17826149/0x01100165) looks at EventEntity (Basic look)
 24: 0x0092 [0x92] EventEntity->Render.Flags3 ^= 0x01
 25: 0x0098 [0x92] Masad (ID: 17826149/0x01100165)->Render.Flags3 ^= 0x01
 26: 0x009E [0x92] Kerney (ID: 17826150/0x01100166)->Render.Flags3 ^= 0x01
 27: 0x00A4 [0x92] Bastingart (ID: 17826151/0x01100167)->Render.Flags3 ^= 0x01
 28: 0x00AA [0x92] Iscandelle (ID: 17826152/0x01100168)->Render.Flags3 ^= 0x01
 29: 0x00B0 [0x92] Etienne (ID: 17826153/0x01100169)->Render.Flags3 ^= 0x01
 30: 0x00B6 [0x92] Lalla-Dalla (ID: 17826155/0x0110016B)->Render.Flags3 ^= 0x01
 31: 0x00BC [0x92] Quam Jitahr (ID: 17826064/0x01100110)->Render.Flags3 ^= 0x01
 32: 0x00C2 [0x92] Task Delegator (ID: 17825851/0x0110003B)->Render.Flags3 ^= 0x01
 33: 0x00C8 [0x92] Civil Registrar (ID: 17825855/0x0110003F)->Render.Flags3 ^= 0x01
 34: 0x00CE [0x29] REQ_SET_WAIT(priority=0x10, entity_id=LocalPlayer, tag_num=0x02)
 35: 0x00D5 [0x03] ExtData[1]->WorkLocal[1] = Work_Zone[2]
 36: 0x00DA [0x66] LOAD_EXT_SCHEDULER_MAIN: Load scheduler "tlk0" with entities [EventEntity, EventEntity], work=55*
 37: 0x00E9 [0x1C] WAIT(60* ticks)
 38: 0x00EC [0x45] LOAD_SCHEDULED_TASK: Load scheduler "s000" with entities [EventEntity, EventEntity], work=[635*, 0*]
 39: 0x00FD [0x45] LOAD_SCHEDULED_TASK: Load scheduler "fdi1" with entities [LocalPlayer, LocalPlayer], work=[200*, 0*]
 40: 0x010E [0x1C] WAIT(240* ticks)
 41: 0x0111 [0x66] LOAD_EXT_SCHEDULER_MAIN: Load scheduler "tlk1" with entities [EventEntity, EventEntity], work=55*
 42: 0x0120 [0x5B] LOAD_EXT_SCHEDULER: Load scheduler "hja0" with entities [EventEntity, EventEntity], work=1530*
 43: 0x012F [0x1D] PRINT_EVENT_MESSAGE(message_id=10124*)
    → "I can't believe it! That flop of a duo causes prrroblem after problem and sucks all the life out of the room--and now they're late!"
 44: 0x0132 [0x23] WAIT_FOR_DIALOG_INTERACTION
 45: 0x0133 [0x52] END_LOAD_SCHEDULER: End scheduler "s000" with entities [EventEntity, EventEntity], work=635*
 46: 0x0142 [0x45] LOAD_SCHEDULED_TASK: Load scheduler "s001" with entities [EventEntity, EventEntity], work=[635*, 0*]
 47: 0x0153 [0x29] REQ_SET_WAIT(priority=0x10, entity_id=Masad (ID: 17826149/0x01100165), tag_num=0x04)
 48: 0x015A [0x1E] EventEntity looks at Masad (ID: 17826149/0x01100165) and starts talking
 49: 0x015F [0x6F] WAIT_FRAME_DELAY: Yield until WaitTime reaches zero
 50: 0x0160 [0x70] WAIT_ENTITY_RENDER_FLAG: Wait while EventEntity->Render.Flags3 bit 2 is set (cancel turn if not)
 51: 0x0161 [0x53] WAIT_SCHEDULER_TASK: Wait for scheduler "hja0" with entities [EventEntity, EventEntity]
 52: 0x016E [0x66] LOAD_EXT_SCHEDULER_MAIN: Load scheduler "tlk0" with entities [EventEntity, EventEntity], work=55*
 53: 0x017D [0x59] UPDATE_ENTITY_DATA: Set Masad (ID: 17826149/0x01100165) turn speed head = 800*
 54: 0x0185 [0x7B] Masad (ID: 17826149/0x01100165) stops talking
 55: 0x018A [0x1C] WAIT(90* ticks)
 56: 0x018D [0x7B] EventEntity stops talking
 57: 0x0192 [0x52] END_LOAD_SCHEDULER: End scheduler "s001" with entities [EventEntity, EventEntity], work=635*
 58: 0x01A1 [0x45] LOAD_SCHEDULED_TASK: Load scheduler "s038" with entities [EventEntity, EventEntity], work=[635*, 0*]
 59: 0x01B2 [0x1C] WAIT(30* ticks)
 60: 0x01B5 [0x1D] PRINT_EVENT_MESSAGE(message_id=10125*)
    → "I hirrred them to serve as novice entertainers for those from the Middle Lands, and no one crrracks so much as a smile."
 61: 0x01B8 [0x23] WAIT_FOR_DIALOG_INTERACTION
 62: 0x01B9 [0x5B] LOAD_EXT_SCHEDULER: Load scheduler "yre0" with entities [EventEntity, EventEntity], work=2965*
 63: 0x01C8 [0x03] Work_Zone_1700[0] = 180*
 64: 0x01CD [0x27] REQ_SET(priority=0x10, entity_id=LocalPlayer, tag_num=0x48)
 65: 0x01D4 [0x1D] PRINT_EVENT_MESSAGE(message_id=10126*)
    → "Forrrget making a quick bit of catnip--I can't even rrrecoup my investment!"
 66: 0x01D7 [0x23] WAIT_FOR_DIALOG_INTERACTION
 67: 0x01D8 [0x2A] GET_REQ_LEVEL(level=16, entity_id=LocalPlayer)
 68: 0x01DE [0x5B] LOAD_EXT_SCHEDULER: Load scheduler "tun0" with entities [EventEntity, EventEntity], work=3041*
 69: 0x01ED [0x03] Work_Zone_1700[0] = 240*
 70: 0x01F2 [0x27] REQ_SET(priority=0x10, entity_id=LocalPlayer, tag_num=0x48)
 71: 0x01F9 [0x1D] PRINT_EVENT_MESSAGE(message_id=10127*)
    → "No, it's my own fault for brrringing them here in the first place."
 72: 0x01FC [0x23] WAIT_FOR_DIALOG_INTERACTION
 73: 0x01FD [0x2A] GET_REQ_LEVEL(level=16, entity_id=LocalPlayer)
 74: 0x0203 [0x66] LOAD_EXT_SCHEDULER_MAIN: Load scheduler "thk1" with entities [EventEntity, EventEntity], work=50*
 75: 0x0212 [0x81] SET_ENTITY_BLINKING(blink_flag=0x00, entity=EventEntity)
 76: 0x0218 [0x1D] PRINT_EVENT_MESSAGE(message_id=10128*)
    → "I've got to unearth those dolts before they get into even more trrrouble!"
 77: 0x021B [0x23] WAIT_FOR_DIALOG_INTERACTION
 78: 0x021C [0x1D] PRINT_EVENT_MESSAGE(message_id=10129*)
    → "On top of it all, their managerrr quits, leaving me to play a game of cat and mouse. They're so off-kilter I might need to call in a favor from the Order of Thurandaut! Maybe get me a raptorrr or two."
 79: 0x021F [0x23] WAIT_FOR_DIALOG_INTERACTION
 80: 0x0220 [0x81] SET_ENTITY_BLINKING(blink_flag=0x01, entity=EventEntity)
 81: 0x0226 [0x66] LOAD_EXT_SCHEDULER_MAIN: Load scheduler "nto0" with entities [EventEntity, EventEntity], work=57*
 82: 0x0235 [0x03] Work_Zone_1700[0] = 180*
 83: 0x023A [0x27] REQ_SET(priority=0x10, entity_id=LocalPlayer, tag_num=0x48)
 84: 0x0241 [0x1D] PRINT_EVENT_MESSAGE(message_id=10130*)
    → "Rrraptors? No, I need something with hands..."
 85: 0x0244 [0x23] WAIT_FOR_DIALOG_INTERACTION
 86: 0x0245 [0x2A] GET_REQ_LEVEL(level=16, entity_id=LocalPlayer)
 87: 0x024B [0x52] END_LOAD_SCHEDULER: End scheduler "s038" with entities [EventEntity, EventEntity], work=635*
 88: 0x025A [0x4E] SET_ENTITY_HIDE_FLAG: Show LocalPlayer
 89: 0x0260 [0x45] LOAD_SCHEDULED_TASK: Load scheduler "s004" with entities [EventEntity, EventEntity], work=[635*, 0*]
 90: 0x0271 [0x66] LOAD_EXT_SCHEDULER_MAIN: Load scheduler "nto1" with entities [EventEntity, EventEntity], work=57*
 91: 0x0280 [0x27] REQ_SET(priority=0x10, entity_id=LocalPlayer, tag_num=0x37)
 92: 0x0287 [0x1E] EventEntity looks at LocalPlayer and starts talking
 93: 0x028C [0x6F] WAIT_FRAME_DELAY: Yield until WaitTime reaches zero
 94: 0x028D [0x70] WAIT_ENTITY_RENDER_FLAG: Wait while EventEntity->Render.Flags3 bit 2 is set (cancel turn if not)
 95: 0x028E [0x1C] WAIT(180* ticks)
 96: 0x0291 [0x52] END_LOAD_SCHEDULER: End scheduler "s004" with entities [EventEntity, EventEntity], work=635*
 97: 0x02A0 [0x02] IF !(ExtData[1]->WorkLocal[1] == 5*) GOTO 0x02BC
 98: 0x02A8 [0x45] LOAD_SCHEDULED_TASK: Load scheduler "s005" with entities [EventEntity, EventEntity], work=[635*, 0*]
 99: 0x02B9 [0x01] GOTO 0x02E9
100: 0x02BC [0x02] IF !(ExtData[1]->WorkLocal[1] == 6*) GOTO 0x02D8
101: 0x02C4 [0x45] LOAD_SCHEDULED_TASK: Load scheduler "s005" with entities [EventEntity, EventEntity], work=[635*, 0*]
102: 0x02D5 [0x01] GOTO 0x02E9
103: 0x02D8 [0x45] LOAD_SCHEDULED_TASK: Load scheduler "s010" with entities [EventEntity, EventEntity], work=[635*, 0*]

SUBROUTINE_02E9:
104: 0x02E9 [0x2A] GET_REQ_LEVEL(level=16, entity_id=LocalPlayer)
105: 0x02EF [0x4A] LocalPlayer looks at EventEntity
106: 0x02F8 [0x6F] WAIT_FRAME_DELAY: Yield until WaitTime reaches zero
107: 0x02F9 [0x76] CHECK_ENTITY_RENDER_FLAGS: Wait until LocalPlayer Render.Flags0 and Render.Flags3 conditions are met
108: 0x02FE [0x5B] LOAD_EXT_SCHEDULER: Load scheduler "sta0" with entities [EventEntity, EventEntity], work=1327*
109: 0x030D [0x1D] PRINT_EVENT_MESSAGE(message_id=10131*)
    → "Oh-ho! Another visitor, I see. Here to apply to be a purrrformer?"
110: 0x0310 [0x23] WAIT_FOR_DIALOG_INTERACTION
111: 0x0311 [0x02] IF !(ExtData[1]->WorkLocal[1] == 5*) GOTO 0x032B
112: 0x0319 [0x52] END_LOAD_SCHEDULER: End scheduler "s005" with entities [EventEntity, EventEntity], work=635*
113: 0x0328 [0x01] GOTO 0x0354
114: 0x032B [0x02] IF !(ExtData[1]->WorkLocal[1] == 6*) GOTO 0x0345
115: 0x0333 [0x52] END_LOAD_SCHEDULER: End scheduler "s005" with entities [EventEntity, EventEntity], work=635*
116: 0x0342 [0x01] GOTO 0x0354
117: 0x0345 [0x52] END_LOAD_SCHEDULER: End scheduler "s010" with entities [EventEntity, EventEntity], work=635*

SUBROUTINE_0354:
118: 0x0354 [0x45] LOAD_SCHEDULED_TASK: Load scheduler "s006" with entities [EventEntity, EventEntity], work=[635*, 0*]
119: 0x0365 [0x1E] EventEntity looks at LocalPlayer and starts talking
120: 0x036A [0x7C] EventEntity->Render.Flags2 |= 0x00
121: 0x0370 [0x66] LOAD_EXT_SCHEDULER_MAIN: Load scheduler "nto0" with entities [EventEntity, EventEntity], work=57*
122: 0x037F [0x03] Work_Zone_1700[0] = 180*
123: 0x0384 [0x27] REQ_SET(priority=0x10, entity_id=LocalPlayer, tag_num=0x48)
124: 0x038B [0x1D] PRINT_EVENT_MESSAGE(message_id=10132*)
    → "(<Sigh> With that grrrim look on [his/her] face, [he'd/she'd] just scare the audience away. Oh, Altana, why can't you bring me some real talent?)"
125: 0x038E [0x23] WAIT_FOR_DIALOG_INTERACTION
126: 0x038F [0x2A] GET_REQ_LEVEL(level=16, entity_id=LocalPlayer)
127: 0x0395 [0x7C] EventEntity->Render.Flags2 |= 0x01
128: 0x039B [0x52] END_LOAD_SCHEDULER: End scheduler "s006" with entities [EventEntity, EventEntity], work=635*
129: 0x03AA [0x45] LOAD_SCHEDULED_TASK: Load scheduler "s041" with entities [EventEntity, EventEntity], work=[635*, 0*]
130: 0x03BB [0x5B] LOAD_EXT_SCHEDULER: Load scheduler "man0" with entities [EventEntity, EventEntity], work=1529*
131: 0x03CA [0x03] Work_Zone_1700[0] = 120*
132: 0x03CF [0x27] REQ_SET(priority=0x10, entity_id=LocalPlayer, tag_num=0x48)
133: 0x03D6 [0x1D] PRINT_EVENT_MESSAGE(message_id=10133*)
    → "So, what is it you do, then? Crrroak out a tune? Two-left-feet your way to miserrry? Just don't tell me you're going to bring the house crashing down with your "jokes"!"
134: 0x03D9 [0x23] WAIT_FOR_DIALOG_INTERACTION
135: 0x03DA [0x2A] GET_REQ_LEVEL(level=16, entity_id=LocalPlayer)
136: 0x03E0 [0x52] END_LOAD_SCHEDULER: End scheduler "s041" with entities [EventEntity, EventEntity], work=635*
137: 0x03EF [0xA4] EventEntity->Flags3.unknown_3_2 = 1
138: 0x03F1 [0x81] SET_ENTITY_BLINKING(blink_flag=0x00, entity=EventEntity)
139: 0x03F7 [0x45] LOAD_SCHEDULED_TASK: Load scheduler "s008" with entities [EventEntity, EventEntity], work=[635*, 0*]
140: 0x0408 [0x66] LOAD_EXT_SCHEDULER_MAIN: Load scheduler "tlk0" with entities [EventEntity, EventEntity], work=59*
141: 0x0417 [0x1D] PRINT_EVENT_MESSAGE(message_id=10134*)
    → "So that must mean that... You want to be a managerrr!"
142: 0x041A [0x23] WAIT_FOR_DIALOG_INTERACTION
143: 0x041B [0x81] SET_ENTITY_BLINKING(blink_flag=0x01, entity=EventEntity)
144: 0x0421 [0x52] END_LOAD_SCHEDULER: End scheduler "s008" with entities [EventEntity, EventEntity], work=635*
145: 0x0430 [0x45] LOAD_SCHEDULED_TASK: Load scheduler "s043" with entities [EventEntity, EventEntity], work=[635*, 0*]
146: 0x0441 [0x5B] LOAD_EXT_SCHEDULER: Load scheduler "yad0" with entities [EventEntity, EventEntity], work=868*
147: 0x0450 [0x1D] PRINT_EVENT_MESSAGE(message_id=10135*)
    → "We'd be just tickled pink to have you! (Yes, yes...this is a golden opportunity for success. I must rope [him/her] in before [he/she] rrrealizes what [he's/she's] getting into...)"
148: 0x0453 [0x23] WAIT_FOR_DIALOG_INTERACTION
149: 0x0454 [0x52] END_LOAD_SCHEDULER: End scheduler "s043" with entities [EventEntity, EventEntity], work=635*
150: 0x0463 [0x02] IF !(ExtData[1]->WorkLocal[1] == 5*) GOTO 0x047F
151: 0x046B [0x45] LOAD_SCHEDULED_TASK: Load scheduler "s047" with entities [EventEntity, EventEntity], work=[635*, 0*]
152: 0x047C [0x01] GOTO 0x04AC
153: 0x047F [0x02] IF !(ExtData[1]->WorkLocal[1] == 6*) GOTO 0x049B
154: 0x0487 [0x45] LOAD_SCHEDULED_TASK: Load scheduler "s047" with entities [EventEntity, EventEntity], work=[635*, 0*]
155: 0x0498 [0x01] GOTO 0x04AC
156: 0x049B [0x45] LOAD_SCHEDULED_TASK: Load scheduler "s042" with entities [EventEntity, EventEntity], work=[635*, 0*]

SUBROUTINE_04AC:
157: 0x04AC [0x66] LOAD_EXT_SCHEDULER_MAIN: Load scheduler "tlk0" with entities [EventEntity, EventEntity], work=199*
158: 0x04BB [0x1D] PRINT_EVENT_MESSAGE(message_id=10136*)
    → "Well, you're in for a bit of luck! We have a chance opening for a new managerrr...something that only happens once every few yearrrs."
159: 0x04BE [0x23] WAIT_FOR_DIALOG_INTERACTION
160: 0x04BF [0x1D] PRINT_EVENT_MESSAGE(message_id=10137*)
    → "Of course, there's a bit of a grrrooming period first, but I can see in your eyes that you're a lion of a worker!"
161: 0x04C2 [0x23] WAIT_FOR_DIALOG_INTERACTION
162: 0x04C3 [0x1D] PRINT_EVENT_MESSAGE(message_id=10138*)
    → "But I've skipped over the self-intrrroduction, haven't I? My name is Peladi Shalmohr."
163: 0x04C6 [0x23] WAIT_FOR_DIALOG_INTERACTION
164: 0x04C7 [0x1D] PRINT_EVENT_MESSAGE(message_id=10139*)
    → "And you?"
165: 0x04CA [0x23] WAIT_FOR_DIALOG_INTERACTION
166: 0x04CB [0x66] LOAD_EXT_SCHEDULER_MAIN: Load scheduler "tlk1" with entities [EventEntity, EventEntity], work=199*
167: 0x04DA [0x03] Work_Zone[3] = 90*
168: 0x04DF [0x29] REQ_SET_WAIT(priority=0x10, entity_id=LocalPlayer, tag_num=0x35)
169: 0x04E6 [0x1C] WAIT(30* ticks)
170: 0x04E9 [0x02] IF !(ExtData[1]->WorkLocal[1] == 5*) GOTO 0x0503
171: 0x04F1 [0x52] END_LOAD_SCHEDULER: End scheduler "s047" with entities [EventEntity, EventEntity], work=635*
172: 0x0500 [0x01] GOTO 0x052C
173: 0x0503 [0x02] IF !(ExtData[1]->WorkLocal[1] == 6*) GOTO 0x051D
174: 0x050B [0x52] END_LOAD_SCHEDULER: End scheduler "s047" with entities [EventEntity, EventEntity], work=635*
175: 0x051A [0x01] GOTO 0x052C
176: 0x051D [0x52] END_LOAD_SCHEDULER: End scheduler "s042" with entities [EventEntity, EventEntity], work=635*

SUBROUTINE_052C:
177: 0x052C [0x45] LOAD_SCHEDULED_TASK: Load scheduler "s040" with entities [EventEntity, EventEntity], work=[635*, 0*]
178: 0x053D [0x66] LOAD_EXT_SCHEDULER_MAIN: Load scheduler "tlk0" with entities [EventEntity, EventEntity], work=199*
179: 0x054C [0x1D] PRINT_EVENT_MESSAGE(message_id=10140*)
    → "<Player>? A name befitting one with your flairrr, to be sure."
180: 0x054F [0x23] WAIT_FOR_DIALOG_INTERACTION
181: 0x0550 [0x55] WAIT_LOAD_SCHEDULER: Wait for scheduler "s040" with entities [EventEntity, EventEntity], work=635*
182: 0x055F [0x45] LOAD_SCHEDULED_TASK: Load scheduler "s007" with entities [EventEntity, EventEntity], work=[635*, 0*]
183: 0x0570 [0x5B] LOAD_EXT_SCHEDULER: Load scheduler "man0" with entities [EventEntity, EventEntity], work=1529*
184: 0x057F [0x7B] EventEntity stops talking
185: 0x0584 [0x1D] PRINT_EVENT_MESSAGE(message_id=10141*)
    → "So let's get starrrted right away, hmm? Money doesn't make itself!"
186: 0x0587 [0x23] WAIT_FOR_DIALOG_INTERACTION
187: 0x0588 [0x06] ExtData[1]->WorkLocal[0] = 0
188: 0x058B [0x03] Work_Zone[2] = 0*

SUBROUTINE_0590:
189: 0x0590 [0x24] CREATE_DIALOG(message_id=10142*, default_option=0*, option_flags=ExtData[1]->WorkLocal[0])
    → "[Good to go?/Ready to hit it off?] [You bet!/Um, no?/Manager? Me? Uhhh...]"
190: 0x0597 [0x25] WAIT_DIALOG_SELECT()
191: 0x0598 [0x02] IF !(Work_Zone[0] == 0*) GOTO 0x0691
192: 0x05A0 [0x52] END_LOAD_SCHEDULER: End scheduler "s007" with entities [EventEntity, EventEntity], work=635*
193: 0x05AF [0x79] EventEntity looks at LocalPlayer (Basic look)
194: 0x05B9 [0x02] IF !(ExtData[1]->WorkLocal[1] == 5*) GOTO 0x05D5
195: 0x05C1 [0x45] LOAD_SCHEDULED_TASK: Load scheduler "s048" with entities [EventEntity, EventEntity], work=[635*, 0*]
196: 0x05D2 [0x01] GOTO 0x0602
197: 0x05D5 [0x02] IF !(ExtData[1]->WorkLocal[1] == 6*) GOTO 0x05F1
198: 0x05DD [0x45] LOAD_SCHEDULED_TASK: Load scheduler "s048" with entities [EventEntity, EventEntity], work=[635*, 0*]
199: 0x05EE [0x01] GOTO 0x0602
200: 0x05F1 [0x45] LOAD_SCHEDULED_TASK: Load scheduler "s045" with entities [EventEntity, EventEntity], work=[635*, 0*]

SUBROUTINE_0602:
201: 0x0602 [0x66] LOAD_EXT_SCHEDULER_MAIN: Load scheduler "tlk0" with entities [EventEntity, EventEntity], work=59*
202: 0x0611 [0x1D] PRINT_EVENT_MESSAGE(message_id=10143*)
    → "Outstanding! Your firrrst duty as manager is to find our newest "comedians"-in-training: Tarutaru Sauce."
203: 0x0614 [0x23] WAIT_FOR_DIALOG_INTERACTION
204: 0x0615 [0x1A] CALL_SUBROUTINE(address=0x099F)
205: 0x0618 [0x45] LOAD_SCHEDULED_TASK: Load scheduler "fdo1" with entities [LocalPlayer, LocalPlayer], work=[200*, 0*]
206: 0x0629 [0x55] WAIT_LOAD_SCHEDULER: Wait for scheduler "fdo1" with entities [LocalPlayer, LocalPlayer], work=200*
207: 0x0638 [0x02] IF !(ExtData[1]->WorkLocal[1] == 5*) GOTO 0x0652
208: 0x0640 [0x52] END_LOAD_SCHEDULER: End scheduler "s049" with entities [EventEntity, EventEntity], work=635*
209: 0x064F [0x01] GOTO 0x067B
210: 0x0652 [0x02] IF !(ExtData[1]->WorkLocal[1] == 6*) GOTO 0x066C
211: 0x065A [0x52] END_LOAD_SCHEDULER: End scheduler "s049" with entities [EventEntity, EventEntity], work=635*
212: 0x0669 [0x01] GOTO 0x067B
213: 0x066C [0x52] END_LOAD_SCHEDULER: End scheduler "s046" with entities [EventEntity, EventEntity], work=635*

SUBROUTINE_067B:
214: 0x067B [0x46] CAMERA_CONTROL: Restore default settings
215: 0x067D [0x45] LOAD_SCHEDULED_TASK: Load scheduler "fdi2" with entities [LocalPlayer, LocalPlayer], work=[200*, 0*]
216: 0x068E [0x01] GOTO 0x07DC
217: 0x0691 [0x02] IF !(Work_Zone[0] == 1*) GOTO 0x0716
218: 0x0699 [0x52] END_LOAD_SCHEDULER: End scheduler "s007" with entities [EventEntity, EventEntity], work=635*
219: 0x06A8 [0x45] LOAD_SCHEDULED_TASK: Load scheduler "s044" with entities [EventEntity, EventEntity], work=[635*, 0*]
220: 0x06B9 [0x66] LOAD_EXT_SCHEDULER_MAIN: Load scheduler "pos0" with entities [EventEntity, EventEntity], work=124*
221: 0x06C8 [0x81] SET_ENTITY_BLINKING(blink_flag=0x00, entity=EventEntity)
222: 0x06CE [0x1D] PRINT_EVENT_MESSAGE(message_id=10149*)
    → "Now listen good: there's only room for one managerrr, and if you can't perform your duties, there's a whole legion of people who're willing to take your place!"
223: 0x06D1 [0x23] WAIT_FOR_DIALOG_INTERACTION
224: 0x06D2 [0x1D] PRINT_EVENT_MESSAGE(message_id=10150*)
    → "<Player>, you were borrrn to be a manager! I can feel it in my tail! Rrready to make a splash in the entertainment world?"
225: 0x06D5 [0x23] WAIT_FOR_DIALOG_INTERACTION
226: 0x06D6 [0x81] SET_ENTITY_BLINKING(blink_flag=0x01, entity=EventEntity)
227: 0x06DC [0x52] END_LOAD_SCHEDULER: End scheduler "s044" with entities [EventEntity, EventEntity], work=635*
228: 0x06EB [0x45] LOAD_SCHEDULED_TASK: Load scheduler "s007" with entities [EventEntity, EventEntity], work=[635*, 0*]
229: 0x06FC [0x5B] LOAD_EXT_SCHEDULER: Load scheduler "man0" with entities [EventEntity, EventEntity], work=1529*
230: 0x070B [0x03] Work_Zone[2] = 1*
231: 0x0710 [0x01] GOTO 0x0590

SUBROUTINE_07DC:
232: 0x07DC [0x21] END_EVENT
233: 0x07DD [0x00] END_REQSTACK()
```

#### Data or dead code:

```
# Dead code (unreachable instructions):
     0x0713 [0x01] GOTO 0x07DC
     0x07D9 [0x01] GOTO 0x07DC
```

### Event 5048

#### Metadata

| Field        | Value   |
|--------------|---------|
| Entrypoint   | 0x07DE  |
| Data Size    | 1 bytes |
| Instructions | 1       |

```
      00 01 02 03 04 05 06 07  08 09 0A 0B 0C 0D 0E 0F
      -- -- -- -- -- -- -- --  -- -- -- -- -- -- -- --
07D0:                                            00                   . 
```

#### Opcodes

```
  0: 0x07DE [0x00] END_REQSTACK()
```

### Event 5044

#### Metadata

| Field        | Value     |
|--------------|-----------|
| Entrypoint   | 0x07DF    |
| Data Size    | 366 bytes |
| Instructions | 47        |

```
      00 01 02 03 04 05 06 07  08 09 0A 0B 0C 0D 0E 0F
      -- -- -- -- -- -- -- --  -- -- -- -- -- -- -- --
07D0:                                               42                 B
07E0: 45 00 80 F0 FF FF 7F F0  FF FF 7F 66 64 6F 31 01  E..........fdo1.
07F0: 80 55 00 80 F0 FF FF 7F  F0 FF FF 7F 66 64 6F 31  .U..........fdo1
0800: 46 01 38 02 80 02 09 10  03 80 00 13 08 75 00 04  F.8..........u..
0810: 80 75 01 94 01 F8 FF FF  7F 94 01 F0 FF FF 7F 37  .u.............7
0820: 05 80 06 80 07 80 3B 80  BA F0 FF FF 7F 3C 80 3D  ......;......<.=
0830: 80 07 80 08 80 1E F0 FF  FF 7F 6F 70 4A F0 FF FF  ..........opJ...
0840: 7F F8 FF FF 7F 80 F8 FF  FF 7F 92 01 F8 FF FF 7F  ................
0850: 92 01 6B 01 10 01 29 10  F0 FF FF 7F 02 03 01 00  ..k...).........
0860: 02 10 1C 0C 80 02 01 00  1F 80 00 81 08 45 0D 80  .............E..
0870: F8 FF FF 7F F8 FF FF 7F  73 30 34 38 01 80 01 AE  ........s048....
0880: 08 02 01 00 20 80 00 9D  08 45 0D 80 F8 FF FF 7F  .... ....E......
0890: F8 FF FF 7F 73 30 34 38  01 80 01 AE 08 45 0D 80  ....s048.....E..
08A0: F8 FF FF 7F F8 FF FF 7F  73 30 34 35 01 80 45 00  ........s045..E.
08B0: 80 F0 FF FF 7F F0 FF FF  7F 66 64 69 31 01 80 66  .........fdi1..f
08C0: 27 80 F8 FF FF 7F F8 FF  FF 7F 74 6C 6B 30 1D 3E  '.........tlk0.>
08D0: 80 23 1A 9F 09 45 00 80  F0 FF FF 7F F0 FF FF 7F  .#...E..........
08E0: 66 64 6F 31 01 80 55 00  80 F0 FF FF 7F F0 FF FF  fdo1..U.........
08F0: 7F 66 64 6F 31 02 01 00  1F 80 00 0F 09 52 0D 80  .fdo1........R..
0900: F8 FF FF 7F F8 FF FF 7F  73 30 34 39 01 38 09 02  ........s049.8..
0910: 01 00 20 80 00 29 09 52  0D 80 F8 FF FF 7F F8 FF  .. ..).R........
0920: FF 7F 73 30 34 39 01 38  09 52 0D 80 F8 FF FF 7F  ..s049.8.R......
0930: F8 FF FF 7F 73 30 34 36  46 00 45 00 80 F0 FF FF  ....s046F.E.....
0940: 7F F0 FF FF 7F 66 64 69  32 01 80 21 00           .....fdi2..!.   
```

#### Opcodes

```
  0: 0x07DF [0x42] SET_CLI_EVENT_CANCEL_DATA()
  1: 0x07E0 [0x45] LOAD_SCHEDULED_TASK: Load scheduler "fdo1" with entities [LocalPlayer, LocalPlayer], work=[200*, 0*]
  2: 0x07F1 [0x55] WAIT_LOAD_SCHEDULER: Wait for scheduler "fdo1" with entities [LocalPlayer, LocalPlayer], work=200*
  3: 0x0800 [0x46] CAMERA_CONTROL: Disable user control
  4: 0x0802 [0x38] SET_CLIENT_EVENT_MODE(mode=19*)
  5: 0x0805 [0x02] IF !(Work_Zone[9] == 1*) GOTO 0x0813
  6: 0x080D [0x75] LOAD_ROOM(Load indoor room, room=588*)
  7: 0x0811 [0x75] LOAD_ROOM(No action)
  8: 0x0813 [0x94] EventEntity->Render.Flags3 ^= 0x01
  9: 0x0819 [0x94] LocalPlayer->Render.Flags3 ^= 0x01
 10: 0x081F [0x37] UPDATE_EVENT_POSITION_AND_DIR: x=-28.210*, z=-96.900*, y=-0.650*, direction=135.0°*
 11: 0x0828 [0xBA] SET_ENTITY_POSITION(entity_id=LocalPlayer, pos_x=-30.205*, pos_z=-97.820*, pos_y=-0.650*, direction=377476174.2°*)
 12: 0x0835 [0x1E] EventEntity looks at LocalPlayer and starts talking
 13: 0x083A [0x6F] WAIT_FRAME_DELAY: Yield until WaitTime reaches zero
 14: 0x083B [0x70] WAIT_ENTITY_RENDER_FLAG: Wait while EventEntity->Render.Flags3 bit 2 is set (cancel turn if not)
 15: 0x083C [0x4A] LocalPlayer looks at EventEntity
 16: 0x0845 [0x80] LOAD_WAIT(entity=EventEntity)
 17: 0x084A [0x92] EventEntity->Render.Flags3 ^= 0x01
 18: 0x0850 [0x92] Lalla-Dalla (ID: 17826155/0x0110016B)->Render.Flags3 ^= 0x01
 19: 0x0856 [0x29] REQ_SET_WAIT(priority=0x10, entity_id=LocalPlayer, tag_num=0x02)
 20: 0x085D [0x03] ExtData[1]->WorkLocal[1] = Work_Zone[2]
 21: 0x0862 [0x1C] WAIT(60* ticks)
 22: 0x0865 [0x02] IF !(ExtData[1]->WorkLocal[1] == 5*) GOTO 0x0881
 23: 0x086D [0x45] LOAD_SCHEDULED_TASK: Load scheduler "s048" with entities [EventEntity, EventEntity], work=[635*, 0*]
 24: 0x087E [0x01] GOTO 0x08AE
 25: 0x0881 [0x02] IF !(ExtData[1]->WorkLocal[1] == 6*) GOTO 0x089D
 26: 0x0889 [0x45] LOAD_SCHEDULED_TASK: Load scheduler "s048" with entities [EventEntity, EventEntity], work=[635*, 0*]
 27: 0x089A [0x01] GOTO 0x08AE
 28: 0x089D [0x45] LOAD_SCHEDULED_TASK: Load scheduler "s045" with entities [EventEntity, EventEntity], work=[635*, 0*]

SUBROUTINE_08AE:
 29: 0x08AE [0x45] LOAD_SCHEDULED_TASK: Load scheduler "fdi1" with entities [LocalPlayer, LocalPlayer], work=[200*, 0*]
 30: 0x08BF [0x66] LOAD_EXT_SCHEDULER_MAIN: Load scheduler "tlk0" with entities [EventEntity, EventEntity], work=59*
 31: 0x08CE [0x1D] PRINT_EVENT_MESSAGE(message_id=10148*)
    → "You forgot what they looked like already? <Sigh> Let me rrrun it by you once more."
 32: 0x08D1 [0x23] WAIT_FOR_DIALOG_INTERACTION
 33: 0x08D2 [0x1A] CALL_SUBROUTINE(address=0x099F)
 34: 0x08D5 [0x45] LOAD_SCHEDULED_TASK: Load scheduler "fdo1" with entities [LocalPlayer, LocalPlayer], work=[200*, 0*]
 35: 0x08E6 [0x55] WAIT_LOAD_SCHEDULER: Wait for scheduler "fdo1" with entities [LocalPlayer, LocalPlayer], work=200*
 36: 0x08F5 [0x02] IF !(ExtData[1]->WorkLocal[1] == 5*) GOTO 0x090F
 37: 0x08FD [0x52] END_LOAD_SCHEDULER: End scheduler "s049" with entities [EventEntity, EventEntity], work=635*
 38: 0x090C [0x01] GOTO 0x0938
 39: 0x090F [0x02] IF !(ExtData[1]->WorkLocal[1] == 6*) GOTO 0x0929
 40: 0x0917 [0x52] END_LOAD_SCHEDULER: End scheduler "s049" with entities [EventEntity, EventEntity], work=635*
 41: 0x0926 [0x01] GOTO 0x0938
 42: 0x0929 [0x52] END_LOAD_SCHEDULER: End scheduler "s046" with entities [EventEntity, EventEntity], work=635*

SUBROUTINE_0938:
 43: 0x0938 [0x46] CAMERA_CONTROL: Restore default settings
 44: 0x093A [0x45] LOAD_SCHEDULED_TASK: Load scheduler "fdi2" with entities [LocalPlayer, LocalPlayer], work=[200*, 0*]
 45: 0x094B [0x21] END_EVENT
 46: 0x094C [0x00] END_REQSTACK()
```

### Event 5052

#### Metadata

| Field        | Value    |
|--------------|----------|
| Entrypoint   | 0x094D   |
| Data Size    | 44 bytes |
| Instructions | 12       |

```
      00 01 02 03 04 05 06 07  08 09 0A 0B 0C 0D 0E 0F
      -- -- -- -- -- -- -- --  -- -- -- -- -- -- -- --
0940:                                         1E F0 FF               ...
0950: FF 7F 6F 70 6E F8 FF FF  7F 3F 80 99 F8 FF FF 7F  ..opn....?......
0960: 1D 40 80 23 66 27 80 F8  FF FF 7F F8 FF FF 7F 74  .@.#f'.........t
0970: 6C 6B 30 1D 41 80 23 21  00                       lk0.A.#!.       
```

#### Opcodes

```
  0: 0x094D [0x1E] EventEntity looks at LocalPlayer and starts talking
  1: 0x0952 [0x6F] WAIT_FRAME_DELAY: Yield until WaitTime reaches zero
  2: 0x0953 [0x70] WAIT_ENTITY_RENDER_FLAG: Wait while EventEntity->Render.Flags3 bit 2 is set (cancel turn if not)
  3: 0x0954 [0x6E] EventEntity uses emote 26*
  4: 0x095B [0x99] Wait for EventEntity animation to complete
  5: 0x0960 [0x1D] PRINT_EVENT_MESSAGE(message_id=10259*)
    → "<Mutter> With those two running around, I can't even focus on my worrrk..."
  6: 0x0963 [0x23] WAIT_FOR_DIALOG_INTERACTION
  7: 0x0964 [0x66] LOAD_EXT_SCHEDULER_MAIN: Load scheduler "tlk0" with entities [EventEntity, EventEntity], work=59*
  8: 0x0973 [0x1D] PRINT_EVENT_MESSAGE(message_id=10260*)
    → "<Player>! Don't forrrget the most important task at hand--keep Tarutaru Sauce out of trouble, or your days as an apprentice manager are numbered!"
  9: 0x0976 [0x23] WAIT_FOR_DIALOG_INTERACTION
 10: 0x0977 [0x21] END_EVENT
 11: 0x0978 [0x00] END_REQSTACK()
```

### Event 65535.1

#### Metadata

| Field        | Value    |
|--------------|----------|
| Entrypoint   | 0x0979   |
| Data Size    | 19 bytes |
| Instructions | 5        |

```
      00 01 02 03 04 05 06 07  08 09 0A 0B 0C 0D 0E 0F
      -- -- -- -- -- -- -- --  -- -- -- -- -- -- -- --
0970:                             32 42 80 1F 00 43 80           2B...C.
0980: 44 80 45 80 1F 01 1E DA  00 10 01 00              D.E.........    
```

#### Opcodes

```
  0: 0x0979 [0x32] ExtData[1]->MainSpeed = 40* * 0.1
  1: 0x097C [0x1F] MOVE_ENTITY: EventEntity moves to X=91.000*, Z=-120.350*, Y=4.000*
  2: 0x0984 [0x1F] MOVE_ENTITY: Update entity position (mode=1)
  3: 0x0986 [0x1E] EventEntity looks at Tuffle-Buffle (ID: 17826010/0x011000DA) and starts talking
  4: 0x098B [0x00] END_REQSTACK()
```

### Event 65535.2

#### Metadata

| Field        | Value     |
|--------------|-----------|
| Entrypoint   | 0x098C    |
| Data Size    | 283 bytes |
| Instructions | 5         |

```
      00 01 02 03 04 05 06 07  08 09 0A 0B 0C 0D 0E 0F
      -- -- -- -- -- -- -- --  -- -- -- -- -- -- -- --
0980:                                      32 42 80 1F              2B..
0990: 00 46 80 47 80 45 80 1F  01 1E DA 00 10 01 00 66  .F.G.E.........f
09A0: 2B 80 F8 FF FF 7F F8 FF  FF 7F 74 6C 6B 30 03 02  +.........tlk0..
09B0: 10 48 80 93 02 10 1D 49  80 23 93 01 80 03 02 10  .H.....I.#......
09C0: 4A 80 93 02 10 1D 4B 80  23 93 01 80 03 02 10 4C  J.....K.#......L
09D0: 80 93 02 10 5B 15 80 F8  FF FF 7F F8 FF FF 7F 79  ....[..........y
09E0: 72 65 30 03 00 17 16 80  27 10 F0 FF FF 7F 48 1D  re0.....'.....H.
09F0: 4D 80 23 93 01 80 2A 10  F0 FF FF 7F 02 01 00 1F  M.#...*.........
0A00: 80 00 16 0A 52 0D 80 F8  FF FF 7F F8 FF FF 7F 73  ....R..........s
0A10: 30 34 38 01 3F 0A 02 01  00 20 80 00 30 0A 52 0D  048.?.... ..0.R.
0A20: 80 F8 FF FF 7F F8 FF FF  7F 73 30 34 38 01 3F 0A  .........s048.?.
0A30: 52 0D 80 F8 FF FF 7F F8  FF FF 7F 73 30 34 35 02  R..........s045.
0A40: 01 00 1F 80 00 5B 0A 45  0D 80 F8 FF FF 7F F8 FF  .....[.E........
0A50: FF 7F 73 30 34 39 01 80  01 88 0A 02 01 00 20 80  ..s049........ .
0A60: 00 77 0A 45 0D 80 F8 FF  FF 7F F8 FF FF 7F 73 30  .w.E..........s0
0A70: 34 39 01 80 01 88 0A 45  0D 80 F8 FF FF 7F F8 FF  49.....E........
0A80: FF 7F 73 30 34 36 01 80  7B F8 FF FF 7F 81 00 F8  ..s046..{.......
0A90: FF FF 7F 66 34 80 F8 FF  FF 7F F8 FF FF 7F 70 6F  ...f4.........po
0AA0: 73 30 1D 4E 80 23 1B                              s0.N.#.         
```

#### Opcodes

```
  0: 0x098C [0x32] ExtData[1]->MainSpeed = 40* * 0.1
  1: 0x098F [0x1F] MOVE_ENTITY: EventEntity moves to X=90.500*, Z=-120.000*, Y=4.000*
  2: 0x0997 [0x1F] MOVE_ENTITY: Update entity position (mode=1)
  3: 0x0999 [0x1E] EventEntity looks at Tuffle-Buffle (ID: 17826010/0x011000DA) and starts talking
  4: 0x099E [0x00] END_REQSTACK()
```

#### Data or dead code:

```
# Dead code (unreachable instructions):
     0x099F [0x66] LOAD_EXT_SCHEDULER_MAIN: Load scheduler "tlk0" with entities [EventEntity, EventEntity], work=199*
     0x09AE [0x03] Work_Zone[2] = 4387*
     0x09B3 [0x93] DISPLAY_ITEM_INFO(item_id=Work_Zone[2])
     0x09B6 [0x1D] PRINT_EVENT_MESSAGE(message_id=10144*)
    → "How will you rrrecognize them? Well, one has hair shaped like $0."
     0x09B9 [0x23] WAIT_FOR_DIALOG_INTERACTION
     0x09BA [0x93] DISPLAY_ITEM_INFO(item_id=0*)
     0x09BD [0x03] Work_Zone[2] = 5907*
     0x09C2 [0x93] DISPLAY_ITEM_INFO(item_id=Work_Zone[2])
     0x09C5 [0x1D] PRINT_EVENT_MESSAGE(message_id=10145*)
    → "And the otherrr's hair looks like rotten $0."
     0x09C8 [0x23] WAIT_FOR_DIALOG_INTERACTION
     0x09C9 [0x93] DISPLAY_ITEM_INFO(item_id=0*)
     0x09CC [0x03] Work_Zone[2] = 900*
     0x09D1 [0x93] DISPLAY_ITEM_INFO(item_id=Work_Zone[2])
     0x09D4 [0x5B] LOAD_EXT_SCHEDULER: Load scheduler "yre0" with entities [EventEntity, EventEntity], work=2965*
     0x09E3 [0x03] Work_Zone_1700[0] = 180*
     0x09E8 [0x27] REQ_SET(priority=0x10, entity_id=LocalPlayer, tag_num=0x48)
     0x09EF [0x1D] PRINT_EVENT_MESSAGE(message_id=10146*)
    → "Well, together they're like $0. They've got heads, but nothing to fill them."
     0x09F2 [0x23] WAIT_FOR_DIALOG_INTERACTION
     0x09F3 [0x93] DISPLAY_ITEM_INFO(item_id=0*)
     0x09F6 [0x2A] GET_REQ_LEVEL(level=16, entity_id=LocalPlayer)
     0x09FC [0x02] IF !(ExtData[1]->WorkLocal[1] == 5*) GOTO 0x0A16
     0x0A04 [0x52] END_LOAD_SCHEDULER: End scheduler "s048" with entities [EventEntity, EventEntity], work=635*
     0x0A13 [0x01] GOTO 0x0A3F
     0x0A16 [0x02] IF !(ExtData[1]->WorkLocal[1] == 6*) GOTO 0x0A30
     0x0A1E [0x52] END_LOAD_SCHEDULER: End scheduler "s048" with entities [EventEntity, EventEntity], work=635*
     0x0A2D [0x01] GOTO 0x0A3F
     0x0A30 [0x52] END_LOAD_SCHEDULER: End scheduler "s045" with entities [EventEntity, EventEntity], work=635*
     0x0A3F [0x02] IF !(ExtData[1]->WorkLocal[1] == 5*) GOTO 0x0A5B
     0x0A47 [0x45] LOAD_SCHEDULED_TASK: Load scheduler "s049" with entities [EventEntity, EventEntity], work=[635*, 0*]
     0x0A58 [0x01] GOTO 0x0A88
     0x0A5B [0x02] IF !(ExtData[1]->WorkLocal[1] == 6*) GOTO 0x0A77
     0x0A63 [0x45] LOAD_SCHEDULED_TASK: Load scheduler "s049" with entities [EventEntity, EventEntity], work=[635*, 0*]
     0x0A74 [0x01] GOTO 0x0A88
     0x0A77 [0x45] LOAD_SCHEDULED_TASK: Load scheduler "s046" with entities [EventEntity, EventEntity], work=[635*, 0*]
     0x0A88 [0x7B] EventEntity stops talking
     0x0A8D [0x81] SET_ENTITY_BLINKING(blink_flag=0x00, entity=EventEntity)
     0x0A93 [0x66] LOAD_EXT_SCHEDULER_MAIN: Load scheduler "pos0" with entities [EventEntity, EventEntity], work=124*
     0x0AA2 [0x1D] PRINT_EVENT_MESSAGE(message_id=10147*)
    → "What are you standing arrround for? Pounce to it! (For the love of all that is sacrrred, find them before they cause more trouble...)"
     0x0AA5 [0x23] WAIT_FOR_DIALOG_INTERACTION
     0x0AA6 [0x1B] RETURN
```

### Event 5064

#### Metadata

| Field        | Value      |
|--------------|------------|
| Entrypoint   | 0x0AA7     |
| Data Size    | 2251 bytes |
| Instructions | 313        |

```
      00 01 02 03 04 05 06 07  08 09 0A 0B 0C 0D 0E 0F
      -- -- -- -- -- -- -- --  -- -- -- -- -- -- -- --
0AA0:                      42  45 00 80 F0 FF FF 7F F0         BE.......
0AB0: FF FF 7F 66 64 6F 31 01  80 55 00 80 F0 FF FF 7F  ...fdo1..U......
0AC0: F0 FF FF 7F 66 64 6F 31  46 01 38 02 80 02 09 10  ....fdo1F.8.....
0AD0: 03 80 00 DB 0A 75 00 04  80 75 01 94 01 F8 FF FF  .....u...u......
0AE0: 7F 94 01 F0 FF FF 7F 94  01 65 01 10 01 37 05 80  .........e...7..
0AF0: 06 80 07 80 08 80 1E F8  FF FF 7F 6F 70 4A F0 FF  ...........opJ..
0B00: FF 7F F0 FF FF 7F 6F 76  F0 FF FF 7F BA F0 FF FF  ......ov........
0B10: 7F 09 80 0A 80 07 80 4F  80 80 F8 FF FF 7F 80 F0  .......O........
0B20: FF FF 7F 80 65 01 10 01  92 01 F8 FF FF 7F 92 01  ....e...........
0B30: 65 01 10 01 92 01 66 01  10 01 92 01 67 01 10 01  e.....f.....g...
0B40: 92 01 68 01 10 01 92 01  69 01 10 01 92 01 6B 01  ..h.....i.....k.
0B50: 10 01 92 01 10 01 10 01  92 01 3B 00 10 01 92 01  ..........;.....
0B60: 3F 00 10 01 29 10 F0 FF  FF 7F 02 03 01 00 02 10  ?...)...........
0B70: 29 10 65 01 10 01 09 66  1A 80 F8 FF FF 7F F8 FF  ).e....f........
0B80: FF 7F 74 68 6B 31 27 10  F0 FF FF 7F 3A 1C 0C 80  ..thk1'.....:...
0B90: 45 0D 80 F8 FF FF 7F F8  FF FF 7F 73 32 30 30 01  E..........s200.
0BA0: 80 45 00 80 F0 FF FF 7F  F0 FF FF 7F 66 64 69 31  .E..........fdi1
0BB0: 01 80 1C 13 80 81 00 F8  FF FF 7F 03 02 10 50 80  ..............P.
0BC0: 03 03 10 51 80 03 04 10  52 80 03 05 10 53 80 03  ...Q....R....S..
0BD0: 06 10 54 80 03 07 10 55  80 03 00 17 25 80 1D 56  ..T....U....%..V
0BE0: 80 23 03 02 10 57 80 03  03 10 58 80 03 04 10 59  .#...W....X....Y
0BF0: 80 03 05 10 5A 80 1D 5B  80 23 2A 10 F0 FF FF 7F  ....Z..[.#*.....
0C00: 1C 13 80 52 0D 80 F8 FF  FF 7F F8 FF FF 7F 73 32  ...R..........s2
0C10: 30 30 45 0D 80 F8 FF FF  7F F8 FF FF 7F 73 32 30  00E..........s20
0C20: 31 01 80 03 00 17 0C 80  27 10 F0 FF FF 7F 48 1D  1.......'.....H.
0C30: 5C 80 23 2A 10 F0 FF FF  7F 81 01 F8 FF FF 7F 52  \.#*...........R
0C40: 0D 80 F8 FF FF 7F F8 FF  FF 7F 73 32 30 31 45 0D  ..........s201E.
0C50: 80 F8 FF FF 7F F8 FF FF  7F 73 32 30 32 01 80 03  .........s202...
0C60: 00 17 0C 80 27 10 65 01  10 01 08 03 02 10 5D 80  ....'.e.......].
0C70: 2B 65 01 10 01 5E 80 23  2A 10 65 01 10 01 66 1A  +e...^.#*.e...f.
0C80: 80 F8 FF FF 7F F8 FF FF  7F 74 68 6B 32 1E 65 01  .........thk2.e.
0C90: 10 01 52 0D 80 F8 FF FF  7F F8 FF FF 7F 73 32 30  ..R..........s20
0CA0: 32 45 0D 80 F8 FF FF 7F  F8 FF FF 7F 73 32 30 33  2E..........s203
0CB0: 01 80 1C 5F 80 5B 60 80  F8 FF FF 7F F8 FF FF 7F  ..._.[`.........
0CC0: 68 74 6C 30 81 00 F8 FF  FF 7F 66 61 80 65 01 10  htl0......fa.e..
0CD0: 01 65 01 10 01 74 6C 6B  31 03 00 17 62 80 27 10  .e...tlk1...b.'.
0CE0: F0 FF FF 7F 48 1D 63 80  23 2A 10 F0 FF FF 7F 5B  ....H.c.#*.....[
0CF0: 60 80 F8 FF FF 7F F8 FF  FF 7F 68 74 6C 31 81 01  `.........htl1..
0D00: F8 FF FF 7F 52 0D 80 F8  FF FF 7F F8 FF FF 7F 73  ....R..........s
0D10: 32 30 33 45 0D 80 F8 FF  FF 7F F8 FF FF 7F 73 32  203E..........s2
0D20: 30 34 01 80 7B F0 FF FF  7F 27 10 F0 FF FF 7F 3B  04..{....'.....;
0D30: 1C 25 80 7A 00 F0 FF FF  7F 1C 03 80 03 00 17 25  .%.z...........%
0D40: 80 27 10 F0 FF FF 7F 3C  1D 64 80 23 2A 10 F0 FF  .'.....<.d.#*...
0D50: FF 7F 27 10 F0 FF FF 7F  3D 1C 13 80 27 10 F0 FF  ..'.....=...'...
0D60: FF 7F 3A 4A F0 FF FF 7F  F8 FF FF 7F 7B F8 FF FF  ..:J........{...
0D70: 7F 1C 13 80 1E F0 FF FF  7F 52 0D 80 F8 FF FF 7F  .........R......
0D80: F8 FF FF 7F 73 32 30 34  02 01 00 1F 80 80 A4 0D  ....s204........
0D90: 45 0D 80 F8 FF FF 7F F8  FF FF 7F 73 32 30 61 01  E..........s20a.
0DA0: 80 01 D1 0D 02 01 00 20  80 80 C0 0D 45 0D 80 F8  ....... ....E...
0DB0: FF FF 7F F8 FF FF 7F 73  32 30 61 01 80 01 D1 0D  .......s20a.....
0DC0: 45 0D 80 F8 FF FF 7F F8  FF FF 7F 73 32 30 35 01  E..........s205.
0DD0: 80 6F 70 5B 65 80 F8 FF  FF 7F F8 FF FF 7F 65 64  .op[e.........ed
0DE0: 30 30 2A 10 F0 FF FF 7F  1D 66 80 23 24 67 80 01  00*......f.#$g..
0DF0: 80 01 80 25 02 00 10 01  80 00 FF 0D 01 15 0E 02  ...%............
0E00: 00 10 03 80 00 0A 0E 01  15 0E 02 00 10 37 80 00  .............7..
0E10: 15 0E 01 15 0E 03 02 10  01 00 03 03 10 25 80 29  .............%.)
0E20: 10 F0 FF FF 7F 35 1C 13  80 7B F8 FF FF 7F 02 01  .....5...{......
0E30: 00 1F 80 80 48 0E 52 0D  80 F8 FF FF 7F F8 FF FF  ....H.R.........
0E40: 7F 73 32 30 61 01 71 0E  02 01 00 20 80 80 62 0E  .s20a.q.... ..b.
0E50: 52 0D 80 F8 FF FF 7F F8  FF FF 7F 73 32 30 61 01  R..........s20a.
0E60: 71 0E 52 0D 80 F8 FF FF  7F F8 FF FF 7F 73 32 30  q.R..........s20
0E70: 35 45 0D 80 F8 FF FF 7F  F8 FF FF 7F 73 32 30 36  5E..........s206
0E80: 01 80 81 00 F8 FF FF 7F  02 00 10 01 80 80 FB 0E  ................
0E90: 5B 24 80 F8 FF FF 7F F8  FF FF 7F 6D 61 6E 30 03  [$.........man0.
0EA0: 00 17 25 80 27 10 F0 FF  FF 7F 48 1D 68 80 23 2A  ..%.'.....H.h.#*
0EB0: 10 F0 FF FF 7F 5B 69 80  F8 FF FF 7F F8 FF FF 7F  .....[i.........
0EC0: 61 61 6E 30 52 0D 80 F8  FF FF 7F F8 FF FF 7F 73  aan0R..........s
0ED0: 32 30 36 45 0D 80 F8 FF  FF 7F F8 FF FF 7F 73 32  206E..........s2
0EE0: 30 37 01 80 03 00 17 25  80 27 10 F0 FF FF 7F 48  07.....%.'.....H
0EF0: 1D 6A 80 23 1D 6B 80 23  01 E1 0F 02 00 10 03 80  .j.#.k.#........
0F00: 80 6E 0F 5B 24 80 F8 FF  FF 7F F8 FF FF 7F 6D 61  .n.[$.........ma
0F10: 6E 30 03 00 17 25 80 27  10 F0 FF FF 7F 48 1D 6C  n0...%.'.....H.l
0F20: 80 23 2A 10 F0 FF FF 7F  5B 69 80 F8 FF FF 7F F8  .#*.....[i......
0F30: FF FF 7F 61 61 6E 30 52  0D 80 F8 FF FF 7F F8 FF  ...aan0R........
0F40: FF 7F 73 32 30 36 45 0D  80 F8 FF FF 7F F8 FF FF  ..s206E.........
0F50: 7F 73 32 30 37 01 80 03  00 17 25 80 27 10 F0 FF  .s207.....%.'...
0F60: FF 7F 48 1D 6A 80 23 1D  6D 80 23 01 E1 0F 02 00  ..H.j.#.m.#.....
0F70: 10 37 80 80 E1 0F 5B 24  80 F8 FF FF 7F F8 FF FF  .7....[$........
0F80: 7F 6D 61 6E 30 03 00 17  25 80 27 10 F0 FF FF 7F  .man0...%.'.....
0F90: 48 1D 6E 80 23 2A 10 F0  FF FF 7F 5B 69 80 F8 FF  H.n.#*.....[i...
0FA0: FF 7F F8 FF FF 7F 61 61  6E 30 52 0D 80 F8 FF FF  ......aan0R.....
0FB0: 7F F8 FF FF 7F 73 32 30  36 45 0D 80 F8 FF FF 7F  .....s206E......
0FC0: F8 FF FF 7F 73 32 30 37  01 80 03 00 17 25 80 27  ....s207.....%.'
0FD0: 10 F0 FF FF 7F 48 1D 6A  80 23 1D 6F 80 23 01 E1  .....H.j.#.o.#..
0FE0: 0F 2A 10 F0 FF FF 7F 5B  69 80 F8 FF FF 7F F8 FF  .*.....[i.......
0FF0: FF 7F 61 61 6E 31 1C 13  80 79 00 F8 FF FF 7F F0  ..aan1...y......
1000: FF FF 7F 52 0D 80 F8 FF  FF 7F F8 FF FF 7F 73 32  ...R..........s2
1010: 30 37 45 0D 80 F8 FF FF  7F F8 FF FF 7F 73 32 30  07E..........s20
1020: 38 01 80 81 01 F8 FF FF  7F 1C 13 80 03 00 17 25  8..............%
1030: 80 27 10 65 01 10 01 05  66 2B 80 F8 FF FF 7F F8  .'.e....f+......
1040: FF FF 7F 74 6C 6B 30 1D  70 80 23 66 2B 80 F8 FF  ...tlk0.p.#f+...
1050: FF 7F F8 FF FF 7F 74 6C  6B 31 2A 10 65 01 10 01  ......tlk1*.e...
1060: 7B F8 FF FF 7F 1C 13 80  59 00 00 80 1E 65 01 10  {.......Y....e..
1070: 01 7B F8 FF FF 7F 03 00  17 25 80 27 10 65 01 10  .{.......%.'.e..
1080: 01 08 2A 10 65 01 10 01  59 00 71 80 32 72 80 1F  ..*.e...Y.q.2r..
1090: 00 73 80 74 80 07 80 1F  01 52 0D 80 F8 FF FF 7F  .s.t.....R......
10A0: F8 FF FF 7F 73 32 30 38  45 0D 80 F8 FF FF 7F F8  ....s208E.......
10B0: FF FF 7F 73 32 30 39 01  80 1F 00 75 80 76 80 07  ...s209....u.v..
10C0: 80 1F 01 5B 65 80 F8 FF  FF 7F F8 FF FF 7F 65 64  ...[e.........ed
10D0: 30 30 59 02 71 80 4A F0  FF FF 7F F8 FF FF 7F 1D  00Y.q.J.........
10E0: 77 80 23 1D 78 80 23 66  2B 80 F8 FF FF 7F F8 FF  w.#.x.#f+.......
10F0: FF 7F 74 6C 6B 31 1C 0C  80 52 0D 80 F8 FF FF 7F  ..tlk1...R......
1100: F8 FF FF 7F 73 32 30 39  45 0D 80 F8 FF FF 7F F8  ....s209E.......
1110: FF FF 7F 73 32 31 30 01  80 1C 13 80 1E F0 FF FF  ...s210.........
1120: 7F 6F 70 66 2B 80 F8 FF  FF 7F F8 FF FF 7F 74 6C  .opf+.........tl
1130: 6B 30 1D 79 80 23 1D 7A  80 23 66 2B 80 F8 FF FF  k0.y.#.z.#f+....
1140: 7F F8 FF FF 7F 74 6C 6B  31 6E F0 FF FF 7F 7B 80  .....tlk1n....{.
1150: 99 F0 FF FF 7F 1C 0C 80  52 0D 80 F8 FF FF 7F F8  ........R.......
1160: FF FF 7F 73 32 31 30 02  01 00 1F 80 80 83 11 45  ...s210........E
1170: 0D 80 F8 FF FF 7F F8 FF  FF 7F 73 32 30 62 01 80  ..........s20b..
1180: 01 B0 11 02 01 00 20 80  80 9F 11 45 0D 80 F8 FF  ...... ....E....
1190: FF 7F F8 FF FF 7F 73 32  30 62 01 80 01 B0 11 45  ......s20b.....E
11A0: 0D 80 F8 FF FF 7F F8 FF  FF 7F 73 32 31 31 01 80  ..........s211..
11B0: 7B F8 FF FF 7F 5B 15 80  F8 FF FF 7F F8 FF FF 7F  {....[..........
11C0: 79 72 65 30 1D 7C 80 23  1C 13 80 27 10 F0 FF FF  yre0.|.#...'....
11D0: 7F 3E 1C 25 80 02 01 00  1F 80 80 EF 11 52 0D 80  .>.%.........R..
11E0: F8 FF FF 7F F8 FF FF 7F  73 32 30 62 01 18 12 02  ........s20b....
11F0: 01 00 20 80 80 09 12 52  0D 80 F8 FF FF 7F F8 FF  .. ....R........
1200: FF 7F 73 32 30 62 01 18  12 52 0D 80 F8 FF FF 7F  ..s20b...R......
1210: F8 FF FF 7F 73 32 31 31  45 0D 80 F8 FF FF 7F F8  ....s211E.......
1220: FF FF 7F 73 32 31 32 01  80 81 00 F8 FF FF 7F 66  ...s212........f
1230: 1A 80 F8 FF FF 7F F8 FF  FF 7F 74 68 6B 31 1D 7D  ..........thk1.}
1240: 80 23 1C 25 80 81 01 F8  FF FF 7F 52 0D 80 F8 FF  .#.%.......R....
1250: FF 7F F8 FF FF 7F 73 32  31 32 45 00 80 F0 FF FF  ......s212E.....
1260: 7F F0 FF FF 7F 66 64 6F  31 01 80 55 00 80 F0 FF  .....fdo1..U....
1270: FF 7F F0 FF FF 7F 66 64  6F 31 29 10 20 01 10 01  ......fdo1). ...
1280: 18 BA 20 01 10 01 7E 80  7F 80 80 80 4F 80 80 20  .. ...~.....O.. 
1290: 01 10 01 92 01 20 01 10  01 45 00 80 F0 FF FF 7F  ..... ...E......
12A0: F0 FF FF 7F 66 64 69 31  01 80 45 0D 80 F8 FF FF  ....fdi1..E.....
12B0: 7F F8 FF FF 7F 73 32 31  33 01 80 55 0D 80 F8 FF  .....s213..U....
12C0: FF 7F F8 FF FF 7F 73 32  31 33 45 0D 80 F8 FF FF  ......s213E.....
12D0: 7F F8 FF FF 7F 73 32 31  34 01 80 03 00 17 81 80  .....s214.......
12E0: 27 10 F0 FF FF 7F 48 6E  20 01 10 01 7B 80 99 20  '.....Hn ...{.. 
12F0: 01 10 01 2B 20 01 10 01  82 80 23 2A 10 F0 FF FF  ...+ .....#*....
1300: 7F 03 00 17 16 80 6E 20  01 10 01 83 80 99 20 01  ......n ...... .
1310: 10 01 2B 20 01 10 01 84  80 23 2A 10 F0 FF FF 7F  ..+ .....#*.....
1320: 45 00 80 F0 FF FF 7F F0  FF FF 7F 66 64 6F 31 01  E..........fdo1.
1330: 80 55 00 80 F0 FF FF 7F  F0 FF FF 7F 66 64 6F 31  .U..........fdo1
1340: 52 0D 80 F8 FF FF 7F F8  FF FF 7F 73 32 31 34 29  R..........s214)
1350: 10 20 01 10 01 19 29 10  65 01 10 01 0A 46 00 45  . ....).e....F.E
1360: 00 80 F0 FF FF 7F F0 FF  FF 7F 66 64 69 32 01 80  ..........fdi2..
1370: 21 00                                             !.              
```

#### Opcodes

```
  0: 0x0AA7 [0x42] SET_CLI_EVENT_CANCEL_DATA()
  1: 0x0AA8 [0x45] LOAD_SCHEDULED_TASK: Load scheduler "fdo1" with entities [LocalPlayer, LocalPlayer], work=[200*, 0*]
  2: 0x0AB9 [0x55] WAIT_LOAD_SCHEDULER: Wait for scheduler "fdo1" with entities [LocalPlayer, LocalPlayer], work=200*
  3: 0x0AC8 [0x46] CAMERA_CONTROL: Disable user control
  4: 0x0ACA [0x38] SET_CLIENT_EVENT_MODE(mode=19*)
  5: 0x0ACD [0x02] IF !(Work_Zone[9] == 1*) GOTO 0x0ADB
  6: 0x0AD5 [0x75] LOAD_ROOM(Load indoor room, room=588*)
  7: 0x0AD9 [0x75] LOAD_ROOM(No action)
  8: 0x0ADB [0x94] EventEntity->Render.Flags3 ^= 0x01
  9: 0x0AE1 [0x94] LocalPlayer->Render.Flags3 ^= 0x01
 10: 0x0AE7 [0x94] Masad (ID: 17826149/0x01100165)->Render.Flags3 ^= 0x01
 11: 0x0AED [0x37] UPDATE_EVENT_POSITION_AND_DIR: x=-28.210*, z=-96.900*, y=-0.650*, direction=377476174.2°*
 12: 0x0AF6 [0x1E] EventEntity looks at EventEntity and starts talking
 13: 0x0AFB [0x6F] WAIT_FRAME_DELAY: Yield until WaitTime reaches zero
 14: 0x0AFC [0x70] WAIT_ENTITY_RENDER_FLAG: Wait while EventEntity->Render.Flags3 bit 2 is set (cancel turn if not)
 15: 0x0AFD [0x4A] LocalPlayer looks at LocalPlayer
 16: 0x0B06 [0x6F] WAIT_FRAME_DELAY: Yield until WaitTime reaches zero
 17: 0x0B07 [0x76] CHECK_ENTITY_RENDER_FLAGS: Wait until LocalPlayer Render.Flags0 and Render.Flags3 conditions are met
 18: 0x0B0C [0xBA] SET_ENTITY_POSITION(entity_id=LocalPlayer, pos_x=-35.430*, pos_z=-103.000*, pos_y=-0.650*, direction=377476174.3°*)
 19: 0x0B19 [0x80] LOAD_WAIT(entity=EventEntity)
 20: 0x0B1E [0x80] LOAD_WAIT(entity=LocalPlayer)
 21: 0x0B23 [0x80] LOAD_WAIT(entity=Masad (ID: 17826149/0x01100165))
 22: 0x0B28 [0x92] EventEntity->Render.Flags3 ^= 0x01
 23: 0x0B2E [0x92] Masad (ID: 17826149/0x01100165)->Render.Flags3 ^= 0x01
 24: 0x0B34 [0x92] Kerney (ID: 17826150/0x01100166)->Render.Flags3 ^= 0x01
 25: 0x0B3A [0x92] Bastingart (ID: 17826151/0x01100167)->Render.Flags3 ^= 0x01
 26: 0x0B40 [0x92] Iscandelle (ID: 17826152/0x01100168)->Render.Flags3 ^= 0x01
 27: 0x0B46 [0x92] Etienne (ID: 17826153/0x01100169)->Render.Flags3 ^= 0x01
 28: 0x0B4C [0x92] Lalla-Dalla (ID: 17826155/0x0110016B)->Render.Flags3 ^= 0x01
 29: 0x0B52 [0x92] Quam Jitahr (ID: 17826064/0x01100110)->Render.Flags3 ^= 0x01
 30: 0x0B58 [0x92] Task Delegator (ID: 17825851/0x0110003B)->Render.Flags3 ^= 0x01
 31: 0x0B5E [0x92] Civil Registrar (ID: 17825855/0x0110003F)->Render.Flags3 ^= 0x01
 32: 0x0B64 [0x29] REQ_SET_WAIT(priority=0x10, entity_id=LocalPlayer, tag_num=0x02)
 33: 0x0B6B [0x03] ExtData[1]->WorkLocal[1] = Work_Zone[2]
 34: 0x0B70 [0x29] REQ_SET_WAIT(priority=0x10, entity_id=Masad (ID: 17826149/0x01100165), tag_num=0x09)
 35: 0x0B77 [0x66] LOAD_EXT_SCHEDULER_MAIN: Load scheduler "thk1" with entities [EventEntity, EventEntity], work=50*
 36: 0x0B86 [0x27] REQ_SET(priority=0x10, entity_id=LocalPlayer, tag_num=0x3A)
 37: 0x0B8D [0x1C] WAIT(60* ticks)
 38: 0x0B90 [0x45] LOAD_SCHEDULED_TASK: Load scheduler "s200" with entities [EventEntity, EventEntity], work=[635*, 0*]
 39: 0x0BA1 [0x45] LOAD_SCHEDULED_TASK: Load scheduler "fdi1" with entities [LocalPlayer, LocalPlayer], work=[200*, 0*]
 40: 0x0BB2 [0x1C] WAIT(30* ticks)
 41: 0x0BB5 [0x81] SET_ENTITY_BLINKING(blink_flag=0x00, entity=EventEntity)
 42: 0x0BBB [0x03] Work_Zone[2] = 4498*
 43: 0x0BC0 [0x03] Work_Zone[3] = 4560*
 44: 0x0BC5 [0x03] Work_Zone[4] = 5145*
 45: 0x0BCA [0x03] Work_Zone[5] = 5600*
 46: 0x0BCF [0x03] Work_Zone[6] = 5982*
 47: 0x0BD4 [0x03] Work_Zone[7] = 6832*
 48: 0x0BD9 [0x03] Work_Zone_1700[0] = 120*
 49: 0x0BDE [0x1D] PRINT_EVENT_MESSAGE(message_id=10318*)
    → "$0...$1 gil... $2...$3 gil... $4...$5 gil..."
 50: 0x0BE1 [0x23] WAIT_FOR_DIALOG_INTERACTION
 51: 0x0BE2 [0x03] Work_Zone[2] = 5889*
 52: 0x0BE7 [0x03] Work_Zone[3] = 19440*
 53: 0x0BEC [0x03] Work_Zone[4] = 5147*
 54: 0x0BF1 [0x03] Work_Zone[5] = 3000*
 55: 0x0BF6 [0x1D] PRINT_EVENT_MESSAGE(message_id=10319*)
    → "$0...$1 gil... $2...$3 gil..."
 56: 0x0BF9 [0x23] WAIT_FOR_DIALOG_INTERACTION
 57: 0x0BFA [0x2A] GET_REQ_LEVEL(level=16, entity_id=LocalPlayer)
 58: 0x0C00 [0x1C] WAIT(30* ticks)
 59: 0x0C03 [0x52] END_LOAD_SCHEDULER: End scheduler "s200" with entities [EventEntity, EventEntity], work=635*
 60: 0x0C12 [0x45] LOAD_SCHEDULED_TASK: Load scheduler "s201" with entities [EventEntity, EventEntity], work=[635*, 0*]
 61: 0x0C23 [0x03] Work_Zone_1700[0] = 60*
 62: 0x0C28 [0x27] REQ_SET(priority=0x10, entity_id=LocalPlayer, tag_num=0x48)
 63: 0x0C2F [0x1D] PRINT_EVENT_MESSAGE(message_id=10320*)
    → "Masad, you good-for-nothing currr! Just how much is it!?"
 64: 0x0C32 [0x23] WAIT_FOR_DIALOG_INTERACTION
 65: 0x0C33 [0x2A] GET_REQ_LEVEL(level=16, entity_id=LocalPlayer)
 66: 0x0C39 [0x81] SET_ENTITY_BLINKING(blink_flag=0x01, entity=EventEntity)
 67: 0x0C3F [0x52] END_LOAD_SCHEDULER: End scheduler "s201" with entities [EventEntity, EventEntity], work=635*
 68: 0x0C4E [0x45] LOAD_SCHEDULED_TASK: Load scheduler "s202" with entities [EventEntity, EventEntity], work=[635*, 0*]
 69: 0x0C5F [0x03] Work_Zone_1700[0] = 60*
 70: 0x0C64 [0x27] REQ_SET(priority=0x10, entity_id=Masad (ID: 17826149/0x01100165), tag_num=0x08)
 71: 0x0C6B [0x03] Work_Zone[2] = 39432*
 72: 0x0C70 [0x2B] Masad (ID: 17826149/0x01100165) [10321*]:
    → "I-it's a total of...$0 gil, chief!"
 73: 0x0C77 [0x23] WAIT_FOR_DIALOG_INTERACTION
 74: 0x0C78 [0x2A] GET_REQ_LEVEL(level=16, entity_id=Masad (ID: 17826149/0x01100165))
 75: 0x0C7E [0x66] LOAD_EXT_SCHEDULER_MAIN: Load scheduler "thk2" with entities [EventEntity, EventEntity], work=50*
 76: 0x0C8D [0x1E] EventEntity looks at Masad (ID: 17826149/0x01100165) and starts talking
 77: 0x0C92 [0x52] END_LOAD_SCHEDULER: End scheduler "s202" with entities [EventEntity, EventEntity], work=635*
 78: 0x0CA1 [0x45] LOAD_SCHEDULED_TASK: Load scheduler "s203" with entities [EventEntity, EventEntity], work=[635*, 0*]
 79: 0x0CB2 [0x1C] WAIT(15* ticks)
 80: 0x0CB5 [0x5B] LOAD_EXT_SCHEDULER: Load scheduler "htl0" with entities [EventEntity, EventEntity], work=2061*
 81: 0x0CC4 [0x81] SET_ENTITY_BLINKING(blink_flag=0x00, entity=EventEntity)
 82: 0x0CCA [0x66] LOAD_EXT_SCHEDULER_MAIN: Load scheduler "tlk1" with entities [Masad (ID: 17826149/0x01100165), Masad (ID: 17826149/0x01100165)], work=9*
 83: 0x0CD9 [0x03] Work_Zone_1700[0] = 105*
 84: 0x0CDE [0x27] REQ_SET(priority=0x10, entity_id=LocalPlayer, tag_num=0x48)
 85: 0x0CE5 [0x1D] PRINT_EVENT_MESSAGE(message_id=10322*)
    → "$0 gil!? Are you kidding me!?"
 86: 0x0CE8 [0x23] WAIT_FOR_DIALOG_INTERACTION
 87: 0x0CE9 [0x2A] GET_REQ_LEVEL(level=16, entity_id=LocalPlayer)
 88: 0x0CEF [0x5B] LOAD_EXT_SCHEDULER: Load scheduler "htl1" with entities [EventEntity, EventEntity], work=2061*
 89: 0x0CFE [0x81] SET_ENTITY_BLINKING(blink_flag=0x01, entity=EventEntity)
 90: 0x0D04 [0x52] END_LOAD_SCHEDULER: End scheduler "s203" with entities [EventEntity, EventEntity], work=635*
 91: 0x0D13 [0x45] LOAD_SCHEDULED_TASK: Load scheduler "s204" with entities [EventEntity, EventEntity], work=[635*, 0*]
 92: 0x0D24 [0x7B] LocalPlayer stops talking
 93: 0x0D29 [0x27] REQ_SET(priority=0x10, entity_id=LocalPlayer, tag_num=0x3B)
 94: 0x0D30 [0x1C] WAIT(120* ticks)
 95: 0x0D33 [0x7A] VM_CONTROL: Reset VM for LocalPlayer
 96: 0x0D39 [0x1C] WAIT(1* ticks)
 97: 0x0D3C [0x03] Work_Zone_1700[0] = 120*
 98: 0x0D41 [0x27] REQ_SET(priority=0x10, entity_id=LocalPlayer, tag_num=0x3C)
 99: 0x0D48 [0x1D] PRINT_EVENT_MESSAGE(message_id=10323*)
    → "<Player>, get over here!"
100: 0x0D4B [0x23] WAIT_FOR_DIALOG_INTERACTION
101: 0x0D4C [0x2A] GET_REQ_LEVEL(level=16, entity_id=LocalPlayer)
102: 0x0D52 [0x27] REQ_SET(priority=0x10, entity_id=LocalPlayer, tag_num=0x3D)
103: 0x0D59 [0x1C] WAIT(30* ticks)
104: 0x0D5C [0x27] REQ_SET(priority=0x10, entity_id=LocalPlayer, tag_num=0x3A)
105: 0x0D63 [0x4A] LocalPlayer looks at EventEntity
106: 0x0D6C [0x7B] EventEntity stops talking
107: 0x0D71 [0x1C] WAIT(30* ticks)
108: 0x0D74 [0x1E] EventEntity looks at LocalPlayer and starts talking
109: 0x0D79 [0x52] END_LOAD_SCHEDULER: End scheduler "s204" with entities [EventEntity, EventEntity], work=635*
110: 0x0D88 [0x02] IF !(ExtData[1]->WorkLocal[1] == 5*) GOTO 0x0DA4
111: 0x0D90 [0x45] LOAD_SCHEDULED_TASK: Load scheduler "s20a" with entities [EventEntity, EventEntity], work=[635*, 0*]
112: 0x0DA1 [0x01] GOTO 0x0DD1
113: 0x0DA4 [0x02] IF !(ExtData[1]->WorkLocal[1] == 6*) GOTO 0x0DC0
114: 0x0DAC [0x45] LOAD_SCHEDULED_TASK: Load scheduler "s20a" with entities [EventEntity, EventEntity], work=[635*, 0*]
115: 0x0DBD [0x01] GOTO 0x0DD1
116: 0x0DC0 [0x45] LOAD_SCHEDULED_TASK: Load scheduler "s205" with entities [EventEntity, EventEntity], work=[635*, 0*]

SUBROUTINE_0DD1:
117: 0x0DD1 [0x6F] WAIT_FRAME_DELAY: Yield until WaitTime reaches zero
118: 0x0DD2 [0x70] WAIT_ENTITY_RENDER_FLAG: Wait while EventEntity->Render.Flags3 bit 2 is set (cancel turn if not)
119: 0x0DD3 [0x5B] LOAD_EXT_SCHEDULER: Load scheduler "ed00" with entities [EventEntity, EventEntity], work=767*
120: 0x0DE2 [0x2A] GET_REQ_LEVEL(level=16, entity_id=LocalPlayer)
121: 0x0DE8 [0x1D] PRINT_EVENT_MESSAGE(message_id=10324*)
    → "Tell me, "[Mr./Ms.] Managerrr"...just what do you think the gil we're talking about is for?"
122: 0x0DEB [0x23] WAIT_FOR_DIALOG_INTERACTION
123: 0x0DEC [0x24] CREATE_DIALOG(message_id=10325*, default_option=0*, option_flags=0*)
    → "What is the money for? [I haven't the foggiest./My salary!/Do you mean to tell me...]"
124: 0x0DF3 [0x25] WAIT_DIALOG_SELECT()
125: 0x0DF4 [0x02] IF !(Work_Zone[0] == 0*) GOTO 0x0DFF
126: 0x0DFC [0x01] GOTO 0x0E15
127: 0x0DFF [0x02] IF !(Work_Zone[0] == 1*) GOTO 0x0E0A
128: 0x0E07 [0x01] GOTO 0x0E15
129: 0x0E0A [0x02] IF !(Work_Zone[0] == 2*) GOTO 0x0E15
130: 0x0E12 [0x01] GOTO 0x0E15

SUBROUTINE_0E15:
131: 0x0E15 [0x03] Work_Zone[2] = ExtData[1]->WorkLocal[1]
132: 0x0E1A [0x03] Work_Zone[3] = 120*
133: 0x0E1F [0x29] REQ_SET_WAIT(priority=0x10, entity_id=LocalPlayer, tag_num=0x35)
134: 0x0E26 [0x1C] WAIT(30* ticks)
135: 0x0E29 [0x7B] EventEntity stops talking
136: 0x0E2E [0x02] IF !(ExtData[1]->WorkLocal[1] == 5*) GOTO 0x0E48
137: 0x0E36 [0x52] END_LOAD_SCHEDULER: End scheduler "s20a" with entities [EventEntity, EventEntity], work=635*
138: 0x0E45 [0x01] GOTO 0x0E71
139: 0x0E48 [0x02] IF !(ExtData[1]->WorkLocal[1] == 6*) GOTO 0x0E62
140: 0x0E50 [0x52] END_LOAD_SCHEDULER: End scheduler "s20a" with entities [EventEntity, EventEntity], work=635*
141: 0x0E5F [0x01] GOTO 0x0E71
142: 0x0E62 [0x52] END_LOAD_SCHEDULER: End scheduler "s205" with entities [EventEntity, EventEntity], work=635*

SUBROUTINE_0E71:
143: 0x0E71 [0x45] LOAD_SCHEDULED_TASK: Load scheduler "s206" with entities [EventEntity, EventEntity], work=[635*, 0*]
144: 0x0E82 [0x81] SET_ENTITY_BLINKING(blink_flag=0x00, entity=EventEntity)
145: 0x0E88 [0x02] IF !(Work_Zone[0] == 0*) GOTO 0x0EFB
146: 0x0E90 [0x5B] LOAD_EXT_SCHEDULER: Load scheduler "man0" with entities [EventEntity, EventEntity], work=1529*
147: 0x0E9F [0x03] Work_Zone_1700[0] = 120*
148: 0x0EA4 [0x27] REQ_SET(priority=0x10, entity_id=LocalPlayer, tag_num=0x48)
149: 0x0EAB [0x1D] PRINT_EVENT_MESSAGE(message_id=10326*)
    → "Your extrrreme honesty is so refreshing..."
150: 0x0EAE [0x23] WAIT_FOR_DIALOG_INTERACTION
151: 0x0EAF [0x2A] GET_REQ_LEVEL(level=16, entity_id=LocalPlayer)
152: 0x0EB5 [0x5B] LOAD_EXT_SCHEDULER: Load scheduler "aan0" with entities [EventEntity, EventEntity], work=2310*
153: 0x0EC4 [0x52] END_LOAD_SCHEDULER: End scheduler "s206" with entities [EventEntity, EventEntity], work=635*
154: 0x0ED3 [0x45] LOAD_SCHEDULED_TASK: Load scheduler "s207" with entities [EventEntity, EventEntity], work=[635*, 0*]
155: 0x0EE4 [0x03] Work_Zone_1700[0] = 120*
156: 0x0EE9 [0x27] REQ_SET(priority=0x10, entity_id=LocalPlayer, tag_num=0x48)
157: 0x0EF0 [0x1D] PRINT_EVENT_MESSAGE(message_id=10327*)
    → "...Not in your wildest drrreams!"
158: 0x0EF3 [0x23] WAIT_FOR_DIALOG_INTERACTION
159: 0x0EF4 [0x1D] PRINT_EVENT_MESSAGE(message_id=10328*)
    → "You're as unfathomably stupid as a mouse repeatedly caught in the same trrrap!"
160: 0x0EF7 [0x23] WAIT_FOR_DIALOG_INTERACTION
161: 0x0EF8 [0x01] GOTO 0x0FE1
162: 0x0EFB [0x02] IF !(Work_Zone[0] == 1*) GOTO 0x0F6E
163: 0x0F03 [0x5B] LOAD_EXT_SCHEDULER: Load scheduler "man0" with entities [EventEntity, EventEntity], work=1529*
164: 0x0F12 [0x03] Work_Zone_1700[0] = 120*
165: 0x0F17 [0x27] REQ_SET(priority=0x10, entity_id=LocalPlayer, tag_num=0x48)
166: 0x0F1E [0x1D] PRINT_EVENT_MESSAGE(message_id=10329*)
    → "As impudent as you are ugly, I see. I have to say, I like your gumption..."
167: 0x0F21 [0x23] WAIT_FOR_DIALOG_INTERACTION
168: 0x0F22 [0x2A] GET_REQ_LEVEL(level=16, entity_id=LocalPlayer)
169: 0x0F28 [0x5B] LOAD_EXT_SCHEDULER: Load scheduler "aan0" with entities [EventEntity, EventEntity], work=2310*
170: 0x0F37 [0x52] END_LOAD_SCHEDULER: End scheduler "s206" with entities [EventEntity, EventEntity], work=635*
171: 0x0F46 [0x45] LOAD_SCHEDULED_TASK: Load scheduler "s207" with entities [EventEntity, EventEntity], work=[635*, 0*]
172: 0x0F57 [0x03] Work_Zone_1700[0] = 120*
173: 0x0F5C [0x27] REQ_SET(priority=0x10, entity_id=LocalPlayer, tag_num=0x48)
174: 0x0F63 [0x1D] PRINT_EVENT_MESSAGE(message_id=10327*)
    → "...Not in your wildest drrreams!"
175: 0x0F66 [0x23] WAIT_FOR_DIALOG_INTERACTION
176: 0x0F67 [0x1D] PRINT_EVENT_MESSAGE(message_id=10330*)
    → "Did you forget that you're at the bottom of this scrrratching post!? You'll get no pay until you've shown you're not totally useless!"
177: 0x0F6A [0x23] WAIT_FOR_DIALOG_INTERACTION
178: 0x0F6B [0x01] GOTO 0x0FE1
179: 0x0F6E [0x02] IF !(Work_Zone[0] == 2*) GOTO 0x0FE1
180: 0x0F76 [0x5B] LOAD_EXT_SCHEDULER: Load scheduler "man0" with entities [EventEntity, EventEntity], work=1529*
181: 0x0F85 [0x03] Work_Zone_1700[0] = 120*
182: 0x0F8A [0x27] REQ_SET(priority=0x10, entity_id=LocalPlayer, tag_num=0x48)
183: 0x0F91 [0x1D] PRINT_EVENT_MESSAGE(message_id=10331*)
    → "Oh? You think you have an idea of what the money's for? You rrreally catch on quick, don't you? You must even think I'm impressed."
184: 0x0F94 [0x23] WAIT_FOR_DIALOG_INTERACTION
185: 0x0F95 [0x2A] GET_REQ_LEVEL(level=16, entity_id=LocalPlayer)
186: 0x0F9B [0x5B] LOAD_EXT_SCHEDULER: Load scheduler "aan0" with entities [EventEntity, EventEntity], work=2310*
187: 0x0FAA [0x52] END_LOAD_SCHEDULER: End scheduler "s206" with entities [EventEntity, EventEntity], work=635*
188: 0x0FB9 [0x45] LOAD_SCHEDULED_TASK: Load scheduler "s207" with entities [EventEntity, EventEntity], work=[635*, 0*]
189: 0x0FCA [0x03] Work_Zone_1700[0] = 120*
190: 0x0FCF [0x27] REQ_SET(priority=0x10, entity_id=LocalPlayer, tag_num=0x48)
191: 0x0FD6 [0x1D] PRINT_EVENT_MESSAGE(message_id=10327*)
    → "...Not in your wildest drrreams!"
192: 0x0FD9 [0x23] WAIT_FOR_DIALOG_INTERACTION
193: 0x0FDA [0x1D] PRINT_EVENT_MESSAGE(message_id=10332*)
    → "Stop prrretending that your head is filled with something other than cobwebs!"
194: 0x0FDD [0x23] WAIT_FOR_DIALOG_INTERACTION
195: 0x0FDE [0x01] GOTO 0x0FE1

SUBROUTINE_0FE1:
196: 0x0FE1 [0x2A] GET_REQ_LEVEL(level=16, entity_id=LocalPlayer)
197: 0x0FE7 [0x5B] LOAD_EXT_SCHEDULER: Load scheduler "aan1" with entities [EventEntity, EventEntity], work=2310*
198: 0x0FF6 [0x1C] WAIT(30* ticks)
199: 0x0FF9 [0x79] EventEntity looks at LocalPlayer (Basic look)
200: 0x1003 [0x52] END_LOAD_SCHEDULER: End scheduler "s207" with entities [EventEntity, EventEntity], work=635*
201: 0x1012 [0x45] LOAD_SCHEDULED_TASK: Load scheduler "s208" with entities [EventEntity, EventEntity], work=[635*, 0*]
202: 0x1023 [0x81] SET_ENTITY_BLINKING(blink_flag=0x01, entity=EventEntity)
203: 0x1029 [0x1C] WAIT(30* ticks)
204: 0x102C [0x03] Work_Zone_1700[0] = 120*
205: 0x1031 [0x27] REQ_SET(priority=0x10, entity_id=Masad (ID: 17826149/0x01100165), tag_num=0x05)
206: 0x1038 [0x66] LOAD_EXT_SCHEDULER_MAIN: Load scheduler "tlk0" with entities [EventEntity, EventEntity], work=199*
207: 0x1047 [0x1D] PRINT_EVENT_MESSAGE(message_id=10333*)
    → "Tarutaru Sauce--that's right, your Tarutaru Sauce--has been rrrunning up a tab at vendors all throughout the city--and this is their total bill!"
208: 0x104A [0x23] WAIT_FOR_DIALOG_INTERACTION
209: 0x104B [0x66] LOAD_EXT_SCHEDULER_MAIN: Load scheduler "tlk1" with entities [EventEntity, EventEntity], work=199*
210: 0x105A [0x2A] GET_REQ_LEVEL(level=16, entity_id=Masad (ID: 17826149/0x01100165))
211: 0x1060 [0x7B] EventEntity stops talking
212: 0x1065 [0x1C] WAIT(30* ticks)
213: 0x1068 [0x59] UPDATE_ENTITY_DATA: Set EventEntity target turn speed = 200*
214: 0x106C [0x1E] EventEntity looks at Masad (ID: 17826149/0x01100165) and starts talking
215: 0x1071 [0x7B] EventEntity stops talking
216: 0x1076 [0x03] Work_Zone_1700[0] = 120*
217: 0x107B [0x27] REQ_SET(priority=0x10, entity_id=Masad (ID: 17826149/0x01100165), tag_num=0x08)
218: 0x1082 [0x2A] GET_REQ_LEVEL(level=16, entity_id=Masad (ID: 17826149/0x01100165))
219: 0x1088 [0x59] UPDATE_ENTITY_DATA: Set EventEntity target turn speed = 100*
220: 0x108C [0x32] ExtData[1]->MainSpeed = 13* * 0.1
221: 0x108F [0x1F] MOVE_ENTITY: EventEntity moves to X=-28.856*, Z=-96.382*, Y=-0.650*
222: 0x1097 [0x1F] MOVE_ENTITY: Update entity position (mode=1)
223: 0x1099 [0x52] END_LOAD_SCHEDULER: End scheduler "s208" with entities [EventEntity, EventEntity], work=635*
224: 0x10A8 [0x45] LOAD_SCHEDULED_TASK: Load scheduler "s209" with entities [EventEntity, EventEntity], work=[635*, 0*]
225: 0x10B9 [0x1F] MOVE_ENTITY: EventEntity moves to X=-29.713*, Z=-95.451*, Y=-0.650*
226: 0x10C1 [0x1F] MOVE_ENTITY: Update entity position (mode=1)
227: 0x10C3 [0x5B] LOAD_EXT_SCHEDULER: Load scheduler "ed00" with entities [EventEntity, EventEntity], work=767*
228: 0x10D2 [0x59] UPDATE_ENTITY_DATA: Set EventEntity target turn speed head = 100*
229: 0x10D6 [0x4A] LocalPlayer looks at EventEntity
230: 0x10DF [0x1D] PRINT_EVENT_MESSAGE(message_id=10334*)
    → "Those bumbling morrrons spend all their time eating their way throughout the city, but mysteriously "never-wever have time for work.""
231: 0x10E2 [0x23] WAIT_FOR_DIALOG_INTERACTION
232: 0x10E3 [0x1D] PRINT_EVENT_MESSAGE(message_id=10335*)
    → "It's all because a certain someone hasn't been managing them prrroperly. Now, who do you think that could be?"
233: 0x10E6 [0x23] WAIT_FOR_DIALOG_INTERACTION
234: 0x10E7 [0x66] LOAD_EXT_SCHEDULER_MAIN: Load scheduler "tlk1" with entities [EventEntity, EventEntity], work=199*
235: 0x10F6 [0x1C] WAIT(60* ticks)
236: 0x10F9 [0x52] END_LOAD_SCHEDULER: End scheduler "s209" with entities [EventEntity, EventEntity], work=635*
237: 0x1108 [0x45] LOAD_SCHEDULED_TASK: Load scheduler "s210" with entities [EventEntity, EventEntity], work=[635*, 0*]
238: 0x1119 [0x1C] WAIT(30* ticks)
239: 0x111C [0x1E] EventEntity looks at LocalPlayer and starts talking
240: 0x1121 [0x6F] WAIT_FRAME_DELAY: Yield until WaitTime reaches zero
241: 0x1122 [0x70] WAIT_ENTITY_RENDER_FLAG: Wait while EventEntity->Render.Flags3 bit 2 is set (cancel turn if not)
242: 0x1123 [0x66] LOAD_EXT_SCHEDULER_MAIN: Load scheduler "tlk0" with entities [EventEntity, EventEntity], work=199*
243: 0x1132 [0x1D] PRINT_EVENT_MESSAGE(message_id=10336*)
    → "That's rrright, <Player>, you! All this is your fault!"
244: 0x1135 [0x23] WAIT_FOR_DIALOG_INTERACTION
245: 0x1136 [0x1D] PRINT_EVENT_MESSAGE(message_id=10337*)
    → "Paying their tab is your rrresponsibility!"
246: 0x1139 [0x23] WAIT_FOR_DIALOG_INTERACTION
247: 0x113A [0x66] LOAD_EXT_SCHEDULER_MAIN: Load scheduler "tlk1" with entities [EventEntity, EventEntity], work=199*
248: 0x1149 [0x6E] LocalPlayer uses emote 21*
249: 0x1150 [0x99] Wait for LocalPlayer animation to complete
250: 0x1155 [0x1C] WAIT(60* ticks)
251: 0x1158 [0x52] END_LOAD_SCHEDULER: End scheduler "s210" with entities [EventEntity, EventEntity], work=635*
252: 0x1167 [0x02] IF !(ExtData[1]->WorkLocal[1] == 5*) GOTO 0x1183
253: 0x116F [0x45] LOAD_SCHEDULED_TASK: Load scheduler "s20b" with entities [EventEntity, EventEntity], work=[635*, 0*]
254: 0x1180 [0x01] GOTO 0x11B0
255: 0x1183 [0x02] IF !(ExtData[1]->WorkLocal[1] == 6*) GOTO 0x119F
256: 0x118B [0x45] LOAD_SCHEDULED_TASK: Load scheduler "s20b" with entities [EventEntity, EventEntity], work=[635*, 0*]
257: 0x119C [0x01] GOTO 0x11B0
258: 0x119F [0x45] LOAD_SCHEDULED_TASK: Load scheduler "s211" with entities [EventEntity, EventEntity], work=[635*, 0*]

SUBROUTINE_11B0:
259: 0x11B0 [0x7B] EventEntity stops talking
260: 0x11B5 [0x5B] LOAD_EXT_SCHEDULER: Load scheduler "yre0" with entities [EventEntity, EventEntity], work=2965*
261: 0x11C4 [0x1D] PRINT_EVENT_MESSAGE(message_id=10338*)
    → "Why're you still standing around here like a dead trrree in Yorcia Weald!? Hurry up before they rrrack up more expenses, you lazy good-for-nothing!"
262: 0x11C7 [0x23] WAIT_FOR_DIALOG_INTERACTION
263: 0x11C8 [0x1C] WAIT(30* ticks)
264: 0x11CB [0x27] REQ_SET(priority=0x10, entity_id=LocalPlayer, tag_num=0x3E)
265: 0x11D2 [0x1C] WAIT(120* ticks)
266: 0x11D5 [0x02] IF !(ExtData[1]->WorkLocal[1] == 5*) GOTO 0x11EF
267: 0x11DD [0x52] END_LOAD_SCHEDULER: End scheduler "s20b" with entities [EventEntity, EventEntity], work=635*
268: 0x11EC [0x01] GOTO 0x1218
269: 0x11EF [0x02] IF !(ExtData[1]->WorkLocal[1] == 6*) GOTO 0x1209
270: 0x11F7 [0x52] END_LOAD_SCHEDULER: End scheduler "s20b" with entities [EventEntity, EventEntity], work=635*
271: 0x1206 [0x01] GOTO 0x1218
272: 0x1209 [0x52] END_LOAD_SCHEDULER: End scheduler "s211" with entities [EventEntity, EventEntity], work=635*

SUBROUTINE_1218:
273: 0x1218 [0x45] LOAD_SCHEDULED_TASK: Load scheduler "s212" with entities [EventEntity, EventEntity], work=[635*, 0*]
274: 0x1229 [0x81] SET_ENTITY_BLINKING(blink_flag=0x00, entity=EventEntity)
275: 0x122F [0x66] LOAD_EXT_SCHEDULER_MAIN: Load scheduler "thk1" with entities [EventEntity, EventEntity], work=50*
276: 0x123E [0x1D] PRINT_EVENT_MESSAGE(message_id=10339*)
    → "<Sigh> Even that rrravenous Galka acquaintance of mine doesn't inhale as much as those two..."
277: 0x1241 [0x23] WAIT_FOR_DIALOG_INTERACTION
278: 0x1242 [0x1C] WAIT(120* ticks)
279: 0x1245 [0x81] SET_ENTITY_BLINKING(blink_flag=0x01, entity=EventEntity)
280: 0x124B [0x52] END_LOAD_SCHEDULER: End scheduler "s212" with entities [EventEntity, EventEntity], work=635*
281: 0x125A [0x45] LOAD_SCHEDULED_TASK: Load scheduler "fdo1" with entities [LocalPlayer, LocalPlayer], work=[200*, 0*]
282: 0x126B [0x55] WAIT_LOAD_SCHEDULER: Wait for scheduler "fdo1" with entities [LocalPlayer, LocalPlayer], work=200*
283: 0x127A [0x29] REQ_SET_WAIT(priority=0x10, entity_id=Westerly Breeze (ID: 17826080/0x01100120), tag_num=0x18)
284: 0x1281 [0xBA] SET_ENTITY_POSITION(entity_id=Westerly Breeze (ID: 17826080/0x01100120), pos_x=62.675*, pos_z=122.977*, pos_y=32.000*, direction=377476174.3°*)
285: 0x128E [0x80] LOAD_WAIT(entity=Westerly Breeze (ID: 17826080/0x01100120))
286: 0x1293 [0x92] Westerly Breeze (ID: 17826080/0x01100120)->Render.Flags3 ^= 0x01
287: 0x1299 [0x45] LOAD_SCHEDULED_TASK: Load scheduler "fdi1" with entities [LocalPlayer, LocalPlayer], work=[200*, 0*]
288: 0x12AA [0x45] LOAD_SCHEDULED_TASK: Load scheduler "s213" with entities [EventEntity, EventEntity], work=[635*, 0*]
289: 0x12BB [0x55] WAIT_LOAD_SCHEDULER: Wait for scheduler "s213" with entities [EventEntity, EventEntity], work=635*
290: 0x12CA [0x45] LOAD_SCHEDULED_TASK: Load scheduler "s214" with entities [EventEntity, EventEntity], work=[635*, 0*]
291: 0x12DB [0x03] Work_Zone_1700[0] = 150*
292: 0x12E0 [0x27] REQ_SET(priority=0x10, entity_id=LocalPlayer, tag_num=0x48)
293: 0x12E7 [0x6E] Westerly Breeze (ID: 17826080/0x01100120) uses emote 21*
294: 0x12EE [0x99] Wait for Westerly Breeze (ID: 17826080/0x01100120) animation to complete
295: 0x12F3 [0x2B] Westerly Breeze (ID: 17826080/0x01100120) [10340*]:
    → "Ah...ah... Achoo!"
296: 0x12FA [0x23] WAIT_FOR_DIALOG_INTERACTION
297: 0x12FB [0x2A] GET_REQ_LEVEL(level=16, entity_id=LocalPlayer)
298: 0x1301 [0x03] Work_Zone_1700[0] = 180*
299: 0x1306 [0x6E] Westerly Breeze (ID: 17826080/0x01100120) uses emote 32*
300: 0x130D [0x99] Wait for Westerly Breeze (ID: 17826080/0x01100120) animation to complete
301: 0x1312 [0x2B] Westerly Breeze (ID: 17826080/0x01100120) [10341*]:
    → "Urk, I musta caught this cold from staying close to the pier for too long."
302: 0x1319 [0x23] WAIT_FOR_DIALOG_INTERACTION
303: 0x131A [0x2A] GET_REQ_LEVEL(level=16, entity_id=LocalPlayer)
304: 0x1320 [0x45] LOAD_SCHEDULED_TASK: Load scheduler "fdo1" with entities [LocalPlayer, LocalPlayer], work=[200*, 0*]
305: 0x1331 [0x55] WAIT_LOAD_SCHEDULER: Wait for scheduler "fdo1" with entities [LocalPlayer, LocalPlayer], work=200*
306: 0x1340 [0x52] END_LOAD_SCHEDULER: End scheduler "s214" with entities [EventEntity, EventEntity], work=635*
307: 0x134F [0x29] REQ_SET_WAIT(priority=0x10, entity_id=Westerly Breeze (ID: 17826080/0x01100120), tag_num=0x19)
308: 0x1356 [0x29] REQ_SET_WAIT(priority=0x10, entity_id=Masad (ID: 17826149/0x01100165), tag_num=0x0A)
309: 0x135D [0x46] CAMERA_CONTROL: Restore default settings
310: 0x135F [0x45] LOAD_SCHEDULED_TASK: Load scheduler "fdi2" with entities [LocalPlayer, LocalPlayer], work=[200*, 0*]
311: 0x1370 [0x21] END_EVENT
312: 0x1371 [0x00] END_REQSTACK()
```

### Event 5066

#### Metadata

| Field        | Value    |
|--------------|----------|
| Entrypoint   | 0x1372   |
| Data Size    | 52 bytes |
| Instructions | 15       |

```
      00 01 02 03 04 05 06 07  08 09 0A 0B 0C 0D 0E 0F
      -- -- -- -- -- -- -- --  -- -- -- -- -- -- -- --
1370:       1E F0 FF FF 7F 6F  70 66 27 80 F8 FF FF 7F    .....opf'.....
1380: F8 FF FF 7F 74 6C 6B 30  02 02 10 01 80 00 9B 13  ....tlk0........
1390: 1D 85 80 23 1D 7C 80 23  01 A4 13 03 02 10 86 80  ...#.|.#........
13A0: 1D 87 80 23 21 00                                 ...#!.          
```

#### Opcodes

```
  0: 0x1372 [0x1E] EventEntity looks at LocalPlayer and starts talking
  1: 0x1377 [0x6F] WAIT_FRAME_DELAY: Yield until WaitTime reaches zero
  2: 0x1378 [0x70] WAIT_ENTITY_RENDER_FLAG: Wait while EventEntity->Render.Flags3 bit 2 is set (cancel turn if not)
  3: 0x1379 [0x66] LOAD_EXT_SCHEDULER_MAIN: Load scheduler "tlk0" with entities [EventEntity, EventEntity], work=59*
  4: 0x1388 [0x02] IF !(Work_Zone[2] == 0*) GOTO 0x139B
  5: 0x1390 [0x1D] PRINT_EVENT_MESSAGE(message_id=10352*)
    → "Get your rrrear in gear and catch those fools before it's too late!"
  6: 0x1393 [0x23] WAIT_FOR_DIALOG_INTERACTION
  7: 0x1394 [0x1D] PRINT_EVENT_MESSAGE(message_id=10338*)
    → "Why're you still standing around here like a dead trrree in Yorcia Weald!? Hurry up before they rrrack up more expenses, you lazy good-for-nothing!"
  8: 0x1397 [0x23] WAIT_FOR_DIALOG_INTERACTION
  9: 0x1398 [0x01] GOTO 0x13A4
 10: 0x139B [0x03] Work_Zone[2] = 2396*
 11: 0x13A0 [0x1D] PRINT_EVENT_MESSAGE(message_id=10348*)
    → "What do you mean, "I don't know where to go"? You've got the invoice rrright in front of you! Now get crrracking before the coalition collapses under the weight of their collective behinds!"
 12: 0x13A3 [0x23] WAIT_FOR_DIALOG_INTERACTION

SUBROUTINE_13A4:
 13: 0x13A4 [0x21] END_EVENT
 14: 0x13A5 [0x00] END_REQSTACK()
```

### Event 5065

#### Metadata

| Field        | Value     |
|--------------|-----------|
| Entrypoint   | 0x13A6    |
| Data Size    | 640 bytes |
| Instructions | 89        |

```
      00 01 02 03 04 05 06 07  08 09 0A 0B 0C 0D 0E 0F
      -- -- -- -- -- -- -- --  -- -- -- -- -- -- -- --
13A0:                   42 45  00 80 F0 FF FF 7F F0 FF        BE........
13B0: FF 7F 66 64 6F 31 01 80  55 00 80 F0 FF FF 7F F0  ..fdo1..U.......
13C0: FF FF 7F 66 64 6F 31 46  01 38 02 80 02 09 10 03  ...fdo1F.8......
13D0: 80 00 DA 13 75 00 04 80  75 01 94 01 F8 FF FF 7F  ....u...u.......
13E0: 94 01 F0 FF FF 7F 94 01  65 01 10 01 37 05 80 06  ........e...7...
