# 17826071 - Merleg

## Common Data

| Field            | Value                     |
|------------------|---------------------------|
| Zone             | Western Adoulin (ID: 256) |
| Block Size       | 616 bytes                 |
| Total Events     | 16                        |
| References Count | 34                        |

## List of Events

| Event ID                 | Entrypoint   |   Size |   Instructions |
|--------------------------|--------------|--------|----------------|
| [65535](#event-65535)    | 0x0000       |      1 |              1 |
| [543](#event-543)        | 0x0001       |     47 |             11 |
| [2520](#event-2520)      | 0x0030       |     64 |             20 |
| [2521](#event-2521)      | 0x0070       |     43 |              9 |
| [2522](#event-2522)      | 0x009B       |    100 |             27 |
| [2](#event-2)            | 0x00FF       |      1 |              1 |
| [65535.1](#event-655351) | 0x0100       |      8 |              3 |
| [65535.2](#event-655352) | 0x0108       |     15 |              5 |
| [65535.3](#event-655353) | 0x0117       |      8 |              3 |
| [65535.4](#event-655354) | 0x011F       |     32 |              8 |
| [65535.5](#event-655355) | 0x013F       |     31 |              9 |
| [65535.6](#event-655356) | 0x015E       |     15 |              5 |
| [182](#event-182)        | 0x016D       |      1 |              1 |
| [5218](#event-5218)      | 0x016E       |      7 |              2 |
| [65535.7](#event-655357) | 0x0175       |     17 |              5 |
| [65535.8](#event-655358) | 0x0186       |      9 |              3 |

## DAT References (imed_data)

|   Index | Hex Value   |   Dec Value |
|---------|-------------|-------------|
|       0 | 0x005A      |          90 |
|       1 | 0x2699      |        9881 |
|       2 | 0x269A      |        9882 |
|       3 | 0x1ECF      |        7887 |
|       4 | 0x1ED0      |        7888 |
|       5 | 0x1ED1      |        7889 |
|       6 | 0x1ED2      |        7890 |
|       7 | 0x1ED3      |        7891 |
|       8 | 0x1ED4      |        7892 |
|       9 | 0x1ED7      |        7895 |
|      10 | 0x0001      |           1 |
|      11 | 0x1ED5      |        7893 |
|      12 | 0x1ED6      |        7894 |
|      13 | 0x1EE0      |        7904 |
|      14 | 0x1EE1      |        7905 |
|      15 | 0x00C9      |         201 |
|      16 | 0x0000      |           0 |
|      17 | 0x0062      |          98 |
|      18 | 0x000D      |          13 |
|      19 | 0x64190     |      410000 |
|      20 | 0xFFFF3CB0  |  4294917296 |
|      21 | 0x03BB      |         955 |
|      22 | 0x001E      |          30 |
|      23 | 0x0028      |          40 |
|      24 | 0xFFFE4705  |  4294854405 |
|      25 | 0xFFFFBD45  |  4294950213 |
|      26 | 0x0F9F      |        3999 |
|      27 | 0x003C      |          60 |
|      28 | 0xFFFFBA4F  |  4294949455 |
|      29 | 0xFFFFBAD8  |  4294949592 |
|      30 | 0x7148      |       29000 |
|      31 | 0xFFFFAFEC  |  4294946796 |
|      32 | 0x03E8      |        1000 |
|      33 | 0x07FF      |        2047 |

## String References

- **7887**: You came here from a faraway land, right?
- **7888**: Then you can be in our brigade! Yay!
- **7889**: Look, you get a neat badge if you join! Oh, but this one's for leaders only. Yours won't be as neat.
- **7890**: I know you want a badge. I can see it in your eyes. If you want to join, you'll need to show us that special pioneer power!
- **7891**: If you're smart like me, you'll already know where to get it.
- **7892**: I bet you don't, though. How about I give you a hint? Try reeeal hard to remember what that guy said when you registered.
- **7893**: Wh-wh-what?! You already have it!?
- **7894**: ...I knew that! I was just double-testing you!
- **7895**: Wow, you're kind of dumb for an adult. Look around the west of Western Adoulin for a woman. If you can't find it with that hint, you don't deserve to be on our force!
- **7904**: I can feel a special power flowing from you. There's no mistaking it--you have Ionis on you!
- **7905**: I guess you pass. Welcome to the Fantastic Adoulin Imperial Liberators. Here's your neat badge that's not as neat as mine, like I promised.
- **9881**: I'm going to train hard and be a pioneer. I'll colonize all of Ulbuka by myself!
- **9882**: Then I'll bring back the new materials I find. I'll make amazing new inventions with them. No one will call me "Milquetoast Merleg" ever again!

## Events

### Event 65535

#### Metadata

| Field        | Value   |
|--------------|---------|
| Entrypoint   | 0x0000  |
| Data Size    | 1 bytes |
| Instructions | 1       |

```
      00 01 02 03 04 05 06 07  08 09 0A 0B 0C 0D 0E 0F
      -- -- -- -- -- -- -- --  -- -- -- -- -- -- -- --
0000: 00                                                .               
```

#### Opcodes

```
  0: 0x0000 [0x00] END_REQSTACK()
```

### Event 543

#### Metadata

| Field        | Value    |
|--------------|----------|
| Entrypoint   | 0x0001   |
| Data Size    | 47 bytes |
| Instructions | 11       |

```
      00 01 02 03 04 05 06 07  08 09 0A 0B 0C 0D 0E 0F
      -- -- -- -- -- -- -- --  -- -- -- -- -- -- -- --
0000:    1E F0 FF FF 7F 6F 70  5B 00 80 F8 FF FF 7F F8   .....op[.......
0010: FF FF 7F 74 6C 6B 30 1D  01 80 23 1D 02 80 23 5B  ...tlk0...#...#[
0020: 00 80 F8 FF FF 7F F8 FF  FF 7F 74 6C 6B 31 21 00  ..........tlk1!.
```

#### Opcodes

```
  0: 0x0001 [0x1E] EventEntity looks at LocalPlayer and starts talking
  1: 0x0006 [0x6F] WAIT_FRAME_DELAY: Yield until WaitTime reaches zero
  2: 0x0007 [0x70] WAIT_ENTITY_RENDER_FLAG: Wait while EventEntity->Render.Flags3 bit 2 is set (cancel turn if not)
  3: 0x0008 [0x5B] LOAD_EXT_SCHEDULER: Load scheduler "tlk0" with entities [EventEntity, EventEntity], work=90*
  4: 0x0017 [0x1D] PRINT_EVENT_MESSAGE(message_id=9881*)
    → "I'm going to train hard and be a pioneer. I'll colonize all of Ulbuka by myself!"
  5: 0x001A [0x23] WAIT_FOR_DIALOG_INTERACTION
  6: 0x001B [0x1D] PRINT_EVENT_MESSAGE(message_id=9882*)
    → "Then I'll bring back the new materials I find. I'll make amazing new inventions with them. No one will call me "Milquetoast Merleg" ever again!"
  7: 0x001E [0x23] WAIT_FOR_DIALOG_INTERACTION
  8: 0x001F [0x5B] LOAD_EXT_SCHEDULER: Load scheduler "tlk1" with entities [EventEntity, EventEntity], work=90*
  9: 0x002E [0x21] END_EVENT
 10: 0x002F [0x00] END_REQSTACK()
```

### Event 2520

#### Metadata

| Field        | Value    |
|--------------|----------|
| Entrypoint   | 0x0030   |
| Data Size    | 64 bytes |
| Instructions | 20       |

```
      00 01 02 03 04 05 06 07  08 09 0A 0B 0C 0D 0E 0F
      -- -- -- -- -- -- -- --  -- -- -- -- -- -- -- --
0030: 1E F0 FF FF 7F 42 6F 70  5B 00 80 F8 FF FF 7F F8  .....Bop[.......
0040: FF FF 7F 74 6C 6B 30 1D  03 80 23 1D 04 80 23 1D  ...tlk0...#...#.
0050: 05 80 23 1D 06 80 23 1D  07 80 23 1D 08 80 23 5B  ..#...#...#...#[
0060: 00 80 F8 FF FF 7F F8 FF  FF 7F 74 6C 6B 31 21 00  ..........tlk1!.
```

#### Opcodes

```
  0: 0x0030 [0x1E] EventEntity looks at LocalPlayer and starts talking
  1: 0x0035 [0x42] SET_CLI_EVENT_CANCEL_DATA()
  2: 0x0036 [0x6F] WAIT_FRAME_DELAY: Yield until WaitTime reaches zero
  3: 0x0037 [0x70] WAIT_ENTITY_RENDER_FLAG: Wait while EventEntity->Render.Flags3 bit 2 is set (cancel turn if not)
  4: 0x0038 [0x5B] LOAD_EXT_SCHEDULER: Load scheduler "tlk0" with entities [EventEntity, EventEntity], work=90*
  5: 0x0047 [0x1D] PRINT_EVENT_MESSAGE(message_id=7887*)
    → "You came here from a faraway land, right?"
  6: 0x004A [0x23] WAIT_FOR_DIALOG_INTERACTION
  7: 0x004B [0x1D] PRINT_EVENT_MESSAGE(message_id=7888*)
    → "Then you can be in our brigade! Yay!"
  8: 0x004E [0x23] WAIT_FOR_DIALOG_INTERACTION
  9: 0x004F [0x1D] PRINT_EVENT_MESSAGE(message_id=7889*)
    → "Look, you get a neat badge if you join! Oh, but this one's for leaders only. Yours won't be as neat."
 10: 0x0052 [0x23] WAIT_FOR_DIALOG_INTERACTION
 11: 0x0053 [0x1D] PRINT_EVENT_MESSAGE(message_id=7890*)
    → "I know you want a badge. I can see it in your eyes. If you want to join, you'll need to show us that special pioneer power!"
 12: 0x0056 [0x23] WAIT_FOR_DIALOG_INTERACTION
 13: 0x0057 [0x1D] PRINT_EVENT_MESSAGE(message_id=7891*)
    → "If you're smart like me, you'll already know where to get it."
 14: 0x005A [0x23] WAIT_FOR_DIALOG_INTERACTION
 15: 0x005B [0x1D] PRINT_EVENT_MESSAGE(message_id=7892*)
    → "I bet you don't, though. How about I give you a hint? Try reeeal hard to remember what that guy said when you registered."
 16: 0x005E [0x23] WAIT_FOR_DIALOG_INTERACTION
 17: 0x005F [0x5B] LOAD_EXT_SCHEDULER: Load scheduler "tlk1" with entities [EventEntity, EventEntity], work=90*
 18: 0x006E [0x21] END_EVENT
 19: 0x006F [0x00] END_REQSTACK()
```

### Event 2521

#### Metadata

| Field        | Value    |
|--------------|----------|
| Entrypoint   | 0x0070   |
| Data Size    | 43 bytes |
| Instructions | 9        |

```
      00 01 02 03 04 05 06 07  08 09 0A 0B 0C 0D 0E 0F
      -- -- -- -- -- -- -- --  -- -- -- -- -- -- -- --
0070: 1E F0 FF FF 7F 6F 70 5B  00 80 F8 FF FF 7F F8 FF  .....op[........
0080: FF 7F 74 6C 6B 30 1D 09  80 23 5B 00 80 F8 FF FF  ..tlk0...#[.....
0090: 7F F8 FF FF 7F 74 6C 6B  31 21 00                 .....tlk1!.     
```

#### Opcodes

```
  0: 0x0070 [0x1E] EventEntity looks at LocalPlayer and starts talking
  1: 0x0075 [0x6F] WAIT_FRAME_DELAY: Yield until WaitTime reaches zero
  2: 0x0076 [0x70] WAIT_ENTITY_RENDER_FLAG: Wait while EventEntity->Render.Flags3 bit 2 is set (cancel turn if not)
  3: 0x0077 [0x5B] LOAD_EXT_SCHEDULER: Load scheduler "tlk0" with entities [EventEntity, EventEntity], work=90*
  4: 0x0086 [0x1D] PRINT_EVENT_MESSAGE(message_id=7895*)
    → "Wow, you're kind of dumb for an adult. Look around the west of Western Adoulin for a woman. If you can't find it with that hint, you don't deserve to be on our force!"
  5: 0x0089 [0x23] WAIT_FOR_DIALOG_INTERACTION
  6: 0x008A [0x5B] LOAD_EXT_SCHEDULER: Load scheduler "tlk1" with entities [EventEntity, EventEntity], work=90*
  7: 0x0099 [0x21] END_EVENT
  8: 0x009A [0x00] END_REQSTACK()
```

### Event 2522

#### Metadata

| Field        | Value     |
|--------------|-----------|
| Entrypoint   | 0x009B    |
| Data Size    | 100 bytes |
| Instructions | 27        |

```
      00 01 02 03 04 05 06 07  08 09 0A 0B 0C 0D 0E 0F
      -- -- -- -- -- -- -- --  -- -- -- -- -- -- -- --
0090:                                   1E F0 FF FF 7F             .....
00A0: 42 6F 70 5B 00 80 F8 FF  FF 7F F8 FF FF 7F 74 6C  Bop[..........tl
00B0: 6B 30 02 02 10 0A 80 00  D5 00 1D 03 80 23 1D 04  k0...........#..
00C0: 80 23 1D 05 80 23 1D 06  80 23 1D 0B 80 23 1D 0C  .#...#...#...#..
00D0: 80 23 01 D9 00 1D 0D 80  23 1D 0E 80 23 45 0F 80  .#......#...#E..
00E0: F8 FF FF 7F F8 FF FF 7F  71 73 74 63 10 80 5B 00  ........qstc..[.
00F0: 80 F8 FF FF 7F F8 FF FF  7F 74 6C 6B 31 21 00     .........tlk1!. 
```

#### Opcodes

```
  0: 0x009B [0x1E] EventEntity looks at LocalPlayer and starts talking
  1: 0x00A0 [0x42] SET_CLI_EVENT_CANCEL_DATA()
  2: 0x00A1 [0x6F] WAIT_FRAME_DELAY: Yield until WaitTime reaches zero
  3: 0x00A2 [0x70] WAIT_ENTITY_RENDER_FLAG: Wait while EventEntity->Render.Flags3 bit 2 is set (cancel turn if not)
  4: 0x00A3 [0x5B] LOAD_EXT_SCHEDULER: Load scheduler "tlk0" with entities [EventEntity, EventEntity], work=90*
  5: 0x00B2 [0x02] IF !(Work_Zone[2] == 1*) GOTO 0x00D5
  6: 0x00BA [0x1D] PRINT_EVENT_MESSAGE(message_id=7887*)
    → "You came here from a faraway land, right?"
  7: 0x00BD [0x23] WAIT_FOR_DIALOG_INTERACTION
  8: 0x00BE [0x1D] PRINT_EVENT_MESSAGE(message_id=7888*)
    → "Then you can be in our brigade! Yay!"
  9: 0x00C1 [0x23] WAIT_FOR_DIALOG_INTERACTION
 10: 0x00C2 [0x1D] PRINT_EVENT_MESSAGE(message_id=7889*)
    → "Look, you get a neat badge if you join! Oh, but this one's for leaders only. Yours won't be as neat."
 11: 0x00C5 [0x23] WAIT_FOR_DIALOG_INTERACTION
 12: 0x00C6 [0x1D] PRINT_EVENT_MESSAGE(message_id=7890*)
    → "I know you want a badge. I can see it in your eyes. If you want to join, you'll need to show us that special pioneer power!"
 13: 0x00C9 [0x23] WAIT_FOR_DIALOG_INTERACTION
 14: 0x00CA [0x1D] PRINT_EVENT_MESSAGE(message_id=7893*)
    → "Wh-wh-what?! You already have it!?"
 15: 0x00CD [0x23] WAIT_FOR_DIALOG_INTERACTION
 16: 0x00CE [0x1D] PRINT_EVENT_MESSAGE(message_id=7894*)
    → "...I knew that! I was just double-testing you!"
 17: 0x00D1 [0x23] WAIT_FOR_DIALOG_INTERACTION
 18: 0x00D2 [0x01] GOTO 0x00D9
 19: 0x00D5 [0x1D] PRINT_EVENT_MESSAGE(message_id=7904*)
    → "I can feel a special power flowing from you. There's no mistaking it--you have Ionis on you!"
 20: 0x00D8 [0x23] WAIT_FOR_DIALOG_INTERACTION

SUBROUTINE_00D9:
 21: 0x00D9 [0x1D] PRINT_EVENT_MESSAGE(message_id=7905*)
    → "I guess you pass. Welcome to the Fantastic Adoulin Imperial Liberators. Here's your neat badge that's not as neat as mine, like I promised."
 22: 0x00DC [0x23] WAIT_FOR_DIALOG_INTERACTION
 23: 0x00DD [0x45] LOAD_SCHEDULED_TASK: Load scheduler "qstc" with entities [EventEntity, EventEntity], work=[201*, 0*]
 24: 0x00EE [0x5B] LOAD_EXT_SCHEDULER: Load scheduler "tlk1" with entities [EventEntity, EventEntity], work=90*
 25: 0x00FD [0x21] END_EVENT
 26: 0x00FE [0x00] END_REQSTACK()
```

### Event 2

#### Metadata

| Field        | Value   |
|--------------|---------|
| Entrypoint   | 0x00FF  |
| Data Size    | 1 bytes |
| Instructions | 1       |

```
      00 01 02 03 04 05 06 07  08 09 0A 0B 0C 0D 0E 0F
      -- -- -- -- -- -- -- --  -- -- -- -- -- -- -- --
00F0:                                               00                 .
```

#### Opcodes

```
  0: 0x00FF [0x00] END_REQSTACK()
```

### Event 65535.1

#### Metadata

| Field        | Value   |
|--------------|---------|
| Entrypoint   | 0x0100  |
| Data Size    | 8 bytes |
| Instructions | 3       |

```
      00 01 02 03 04 05 06 07  08 09 0A 0B 0C 0D 0E 0F
      -- -- -- -- -- -- -- --  -- -- -- -- -- -- -- --
0100: B6 00 11 80 C0 0A 80 00                           ........        
```

#### Opcodes

```
  0: 0x0100 [0xB6] ENTITY_APPEARANCE_HANDLER(case=Hair style, value=98*)
  1: 0x0104 [0xC0] EventEntity->Render.Flags3 |= 0x1000 // Set bit 12 (from 1*)
  2: 0x0107 [0x00] END_REQSTACK()
```

### Event 65535.2

#### Metadata

| Field        | Value    |
|--------------|----------|
| Entrypoint   | 0x0108   |
| Data Size    | 15 bytes |
| Instructions | 5        |

```
      00 01 02 03 04 05 06 07  08 09 0A 0B 0C 0D 0E 0F
      -- -- -- -- -- -- -- --  -- -- -- -- -- -- -- --
0100:                          32 12 80 1F 00 13 80 14          2.......
0110: 80 10 80 1F 01 6F 00                              .....o.         
```

#### Opcodes

```
  0: 0x0108 [0x32] ExtData[1]->MainSpeed = 13* * 0.1
  1: 0x010B [0x1F] MOVE_ENTITY: EventEntity moves to X=410.000*, Z=-50.000*, Y=0.000*
  2: 0x0113 [0x1F] MOVE_ENTITY: Update entity position (mode=1)
  3: 0x0115 [0x6F] WAIT_FRAME_DELAY: Yield until WaitTime reaches zero
  4: 0x0116 [0x00] END_REQSTACK()
```

### Event 65535.3

#### Metadata

| Field        | Value   |
|--------------|---------|
| Entrypoint   | 0x0117  |
| Data Size    | 8 bytes |
| Instructions | 3       |

```
      00 01 02 03 04 05 06 07  08 09 0A 0B 0C 0D 0E 0F
      -- -- -- -- -- -- -- --  -- -- -- -- -- -- -- --
0110:                      B6  00 15 80 C0 0A 80 00            ........ 
```

#### Opcodes

```
  0: 0x0117 [0xB6] ENTITY_APPEARANCE_HANDLER(case=Hair style, value=955*)
  1: 0x011B [0xC0] EventEntity->Render.Flags3 |= 0x1000 // Set bit 12 (from 1*)
  2: 0x011E [0x00] END_REQSTACK()
```

### Event 65535.4

#### Metadata

| Field        | Value    |
|--------------|----------|
| Entrypoint   | 0x011F   |
| Data Size    | 32 bytes |
| Instructions | 8        |

```
      00 01 02 03 04 05 06 07  08 09 0A 0B 0C 0D 0E 0F
      -- -- -- -- -- -- -- --  -- -- -- -- -- -- -- --
0110:                                               1C                 .
0120: 16 80 32 17 80 1F 00 18  80 19 80 1A 80 1F 01 6F  ..2............o
0130: 4A F8 FF FF 7F F0 FF FF  7F 7B F8 FF FF 7F 00     J........{..... 
```

#### Opcodes

```
  0: 0x011F [0x1C] WAIT(30* ticks)
  1: 0x0122 [0x32] ExtData[1]->MainSpeed = 40* * 0.1
  2: 0x0125 [0x1F] MOVE_ENTITY: EventEntity moves to X=-112.891*, Z=-17.083*, Y=3.999*
  3: 0x012D [0x1F] MOVE_ENTITY: Update entity position (mode=1)
  4: 0x012F [0x6F] WAIT_FRAME_DELAY: Yield until WaitTime reaches zero
  5: 0x0130 [0x4A] EventEntity looks at LocalPlayer
  6: 0x0139 [0x7B] EventEntity stops talking
  7: 0x013E [0x00] END_REQSTACK()
```

### Event 65535.5

#### Metadata

| Field        | Value    |
|--------------|----------|
| Entrypoint   | 0x013F   |
| Data Size    | 31 bytes |
| Instructions | 9        |

```
      00 01 02 03 04 05 06 07  08 09 0A 0B 0C 0D 0E 0F
      -- -- -- -- -- -- -- --  -- -- -- -- -- -- -- --
0130:                                               1C                 .
0140: 1B 80 4B 17 01 10 01 10  80 6F 76 17 01 10 01 32  ..K......ov....2
0150: 17 80 1F 00 14 80 1C 80  1A 80 1F 01 6F 00        ............o.  
```

#### Opcodes

```
  0: 0x013F [0x1C] WAIT(60* ticks)
  1: 0x0142 [0x4B] UPDATE_ENTITY_YAW(entity=Merleg (ID: 17826071/0x01100117), yaw=0.0°*)
  2: 0x0149 [0x6F] WAIT_FRAME_DELAY: Yield until WaitTime reaches zero
  3: 0x014A [0x76] CHECK_ENTITY_RENDER_FLAGS: Wait until Merleg (ID: 17826071/0x01100117) Render.Flags0 and Render.Flags3 conditions are met
  4: 0x014F [0x32] ExtData[1]->MainSpeed = 40* * 0.1
  5: 0x0152 [0x1F] MOVE_ENTITY: EventEntity moves to X=-50.000*, Z=-17.841*, Y=3.999*
  6: 0x015A [0x1F] MOVE_ENTITY: Update entity position (mode=1)
  7: 0x015C [0x6F] WAIT_FRAME_DELAY: Yield until WaitTime reaches zero
  8: 0x015D [0x00] END_REQSTACK()
```

### Event 65535.6

#### Metadata

| Field        | Value    |
|--------------|----------|
| Entrypoint   | 0x015E   |
| Data Size    | 15 bytes |
| Instructions | 5        |

```
      00 01 02 03 04 05 06 07  08 09 0A 0B 0C 0D 0E 0F
      -- -- -- -- -- -- -- --  -- -- -- -- -- -- -- --
0150:                                            32 17                2.
0160: 80 1F 00 14 80 1D 80 1A  80 1F 01 6F 00           ...........o.   
```

#### Opcodes

```
  0: 0x015E [0x32] ExtData[1]->MainSpeed = 40* * 0.1
  1: 0x0161 [0x1F] MOVE_ENTITY: EventEntity moves to X=-50.000*, Z=-17.704*, Y=3.999*
  2: 0x0169 [0x1F] MOVE_ENTITY: Update entity position (mode=1)
  3: 0x016B [0x6F] WAIT_FRAME_DELAY: Yield until WaitTime reaches zero
  4: 0x016C [0x00] END_REQSTACK()
```

### Event 182

#### Metadata

| Field        | Value   |
|--------------|---------|
| Entrypoint   | 0x016D  |
| Data Size    | 1 bytes |
| Instructions | 1       |

```
      00 01 02 03 04 05 06 07  08 09 0A 0B 0C 0D 0E 0F
      -- -- -- -- -- -- -- --  -- -- -- -- -- -- -- --
0160:                                         00                     .  
```

#### Opcodes

```
  0: 0x016D [0x00] END_REQSTACK()
```

### Event 5218

#### Metadata

| Field        | Value   |
|--------------|---------|
| Entrypoint   | 0x016E  |
| Data Size    | 7 bytes |
| Instructions | 2       |

```
      00 01 02 03 04 05 06 07  08 09 0A 0B 0C 0D 0E 0F
      -- -- -- -- -- -- -- --  -- -- -- -- -- -- -- --
0160:                                            92 01                ..
0170: F8 FF FF 7F 00                                    .....           
```

#### Opcodes

```
  0: 0x016E [0x92] EventEntity->Render.Flags3 ^= 0x01
  1: 0x0174 [0x00] END_REQSTACK()
```

### Event 65535.7

#### Metadata

| Field        | Value    |
|--------------|----------|
| Entrypoint   | 0x0175   |
| Data Size    | 17 bytes |
| Instructions | 5        |

```
      00 01 02 03 04 05 06 07  08 09 0A 0B 0C 0D 0E 0F
      -- -- -- -- -- -- -- --  -- -- -- -- -- -- -- --
0170:                32 17 80  1F 00 1E 80 1F 80 20 80       2........ .
0180: 1F 01 39 21 80 00                                 ..9!..          
```

#### Opcodes

```
  0: 0x0175 [0x32] ExtData[1]->MainSpeed = 40* * 0.1
  1: 0x0178 [0x1F] MOVE_ENTITY: EventEntity moves to X=29.000*, Z=-20.500*, Y=1.000*
  2: 0x0180 [0x1F] MOVE_ENTITY: Update entity position (mode=1)
  3: 0x0182 [0x39] SET_ENTITY_DIRECTION(direction=11.2°*)
  4: 0x0185 [0x00] END_REQSTACK()
```

### Event 65535.8

#### Metadata

| Field        | Value   |
|--------------|---------|
| Entrypoint   | 0x0186  |
| Data Size    | 9 bytes |
| Instructions | 3       |

```
      00 01 02 03 04 05 06 07  08 09 0A 0B 0C 0D 0E 0F
      -- -- -- -- -- -- -- --  -- -- -- -- -- -- -- --
0180:                   7B F8  FF FF 7F 39 21 80 00           {....9!.. 
```

#### Opcodes

```
  0: 0x0186 [0x7B] EventEntity stops talking
  1: 0x018B [0x39] SET_ENTITY_DIRECTION(direction=11.2°*)
  2: 0x018E [0x00] END_REQSTACK()
```
