# 17826155 - Lalla-Dalla

## Common Data

| Field            | Value                     |
|------------------|---------------------------|
| Zone             | Western Adoulin (ID: 256) |
| Block Size       | 20828 bytes               |
| Total Events     | 15                        |
| References Count | 245                       |

## List of Events

| Event ID                 | Entrypoint   |   Size |   Instructions |
|--------------------------|--------------|--------|----------------|
| [65535](#event-65535)    | 0x0000       |      1 |              1 |
| [7606](#event-7606)      | 0x0001       |     13 |              5 |
| [7555](#event-7555)      | 0x000E       |  19706 |           3359 |
| [5043](#event-5043)      | 0x4D08       |      1 |              1 |
| [5044](#event-5044)      | 0x4D09       |      1 |              1 |
| [5064](#event-5064)      | 0x4D0A       |      1 |              1 |
| [5065](#event-5065)      | 0x4D0B       |      1 |              1 |
| [5092](#event-5092)      | 0x4D0C       |      7 |              2 |
| [65535.1](#event-655351) | 0x4D13       |      4 |              2 |
| [65535.2](#event-655352) | 0x4D17       |      2 |              2 |
| [65535.3](#event-655353) | 0x4D19       |     13 |              3 |
| [65535.4](#event-655354) | 0x4D26       |     13 |              3 |
| [5221](#event-5221)      | 0x4D33       |      7 |              2 |
| [134](#event-134)        | 0x4D3A       |      1 |              1 |
| [153](#event-153)        | 0x4D3B       |      1 |              1 |

## DAT References (imed_data)

|   Index | Hex Value   |   Dec Value |
|---------|-------------|-------------|
|       0 | 0x0005      |           5 |
|       1 | 0x0000      |           0 |
|       2 | 0x000F      |          15 |
|       3 | 0x0003      |           3 |
|       4 | 0x2F37      |       12087 |
|       5 | 0x0002      |           2 |
|       6 | 0x2EFD      |       12029 |
|       7 | 0x40000000  |  1073741824 |
|       8 | 0x0011      |          17 |
|       9 | 0x0012      |          18 |
|      10 | 0x0010      |          16 |
|      11 | 0x0001      |           1 |
|      12 | 0x000C      |          12 |
|      13 | 0x0004      |           4 |
|      14 | 0x0006      |           6 |
|      15 | 0x0007      |           7 |
|      16 | 0x0008      |           8 |
|      17 | 0x0009      |           9 |
|      18 | 0x000A      |          10 |
|      19 | 0x000B      |          11 |
|      20 | 0x2FE7      |       12263 |
|      21 | 0x0063      |          99 |
|      22 | 0x0021      |          33 |
|      23 | 0x0042      |          66 |
|      24 | 0x001F      |          31 |
|      25 | 0xFFFFFFFF  |  4294967295 |
|      26 | 0x2F03      |       12035 |
|      27 | 0x2FE8      |       12264 |
|      28 | 0x2F04      |       12036 |
|      29 | 0x0020      |          32 |
|      30 | 0x0017      |          23 |
|      31 | 0x0018      |          24 |
|      32 | 0x2F38      |       12088 |
|      33 | 0x2F39      |       12089 |
|      34 | 0x2F3A      |       12090 |
|      35 | 0x2F3B      |       12091 |
|      36 | 0x3002      |       12290 |
|      37 | 0x300C      |       12300 |
|      38 | 0x2F6C      |       12140 |
|      39 | 0x2F6E      |       12142 |
|      40 | 0x2F69      |       12137 |
|      41 | 0x2F6F      |       12143 |
|      42 | 0x2F70      |       12144 |
|      43 | 0x2F95      |       12181 |
|      44 | 0x2F96      |       12182 |
|      45 | 0x270F      |        9999 |
|      46 | 0x00C8      |         200 |
|      47 | 0x2F6D      |       12141 |
|      48 | 0x026D      |         621 |
|      49 | 0x003C      |          60 |
|      50 | 0x0013      |          19 |
|      51 | 0xFFFF69B6  |  4294928822 |
|      52 | 0xFFFE76C7  |  4294866631 |
|      53 | 0xFFFFF924  |  4294965540 |
|      54 | 0x0200      |         512 |
|      55 | 0xFFFF676B  |  4294928235 |
|      56 | 0xFFFE7975  |  4294867317 |
|      57 | 0xFFFFFD76  |  4294966646 |
|      58 | 0x005A      |          90 |
|      59 | 0x2F97      |       12183 |
|      60 | 0x2F98      |       12184 |
|      61 | 0x2F99      |       12185 |
|      62 | 0x2F9A      |       12186 |
|      63 | 0x2F9B      |       12187 |
|      64 | 0x2F9E      |       12190 |
|      65 | 0x2F9F      |       12191 |
|      66 | 0x2FA7      |       12199 |
|      67 | 0x2F9C      |       12188 |
|      68 | 0x2FA0      |       12192 |
|      69 | 0x2FA1      |       12193 |
|      70 | 0x2FA6      |       12198 |
|      71 | 0x2FA2      |       12194 |
|      72 | 0x2FA3      |       12195 |
|      73 | 0x2FA4      |       12196 |
|      74 | 0x18F8      |        6392 |
|      75 | 0x2FA5      |       12197 |
|      76 | 0xFFFF72B2  |  4294931122 |
|      77 | 0xFFFE6CD3  |  4294864083 |
|      78 | 0x0232      |         562 |
|      79 | 0x2FA8      |       12200 |
|      80 | 0x2FA9      |       12201 |
|      81 | 0x2FAA      |       12202 |
|      82 | 0x2FAB      |       12203 |
|      83 | 0x2FC0      |       12224 |
|      84 | 0x2FAF      |       12207 |
|      85 | 0x2FAC      |       12204 |
|      86 | 0x2FB0      |       12208 |
|      87 | 0x2FB1      |       12209 |
|      88 | 0x2FB2      |       12210 |
|      89 | 0x2FB3      |       12211 |
|      90 | 0x2FB4      |       12212 |
|      91 | 0x2FB5      |       12213 |
|      92 | 0x2FB6      |       12214 |
|      93 | 0xFFFFFFF6  |  4294967286 |
|      94 | 0x2FB7      |       12215 |
|      95 | 0xFFFFFFE0  |  4294967264 |
|      96 | 0xFFFFFFF0  |  4294967280 |
|      97 | 0xFFFFFFF8  |  4294967288 |
|      98 | 0xFFFFFFC2  |  4294967234 |
|      99 | 0xFFFFFFC6  |  4294967238 |
|     100 | 0xFFFFFFCE  |  4294967246 |
|     101 | 0x2FBA      |       12218 |
|     102 | 0x2FBD      |       12221 |
|     103 | 0x2FBC      |       12220 |
|     104 | 0x2FB8      |       12216 |
|     105 | 0x2FBB      |       12219 |
|     106 | 0x2FB9      |       12217 |
|     107 | 0x001E      |          30 |
|     108 | 0xFFFF78C2  |  4294932674 |
|     109 | 0xFFFE869C  |  4294870684 |
|     110 | 0xFFFF760E  |  4294931982 |
|     111 | 0xFFFE88E1  |  4294871265 |
|     112 | 0x1000      |        4096 |
|     113 | 0x1008      |        4104 |
|     114 | 0x0312      |         786 |
|     115 | 0x3003      |       12291 |
|     116 | 0x3004      |       12292 |
|     117 | 0x3005      |       12293 |
|     118 | 0x3006      |       12294 |
|     119 | 0x3007      |       12295 |
|     120 | 0x3008      |       12296 |
|     121 | 0x3009      |       12297 |
|     122 | 0x300A      |       12298 |
|     123 | 0x300B      |       12299 |
|     124 | 0x05F5      |        1525 |
|     125 | 0x0298      |         664 |
|     126 | 0xFFFF955C  |  4294939996 |
|     127 | 0xFFFE906C  |  4294873196 |
|     128 | 0xFFFFF98E  |  4294965646 |
|     129 | 0x0600      |        1536 |
|     130 | 0xFFFF95B6  |  4294940086 |
|     131 | 0xFFFE8EE6  |  4294872806 |
|     132 | 0xFFFF9610  |  4294940176 |
|     133 | 0xFFFE8D60  |  4294872416 |
|     134 | 0xFFFF9700  |  4294940416 |
|     135 | 0xFFFE8C70  |  4294872176 |
|     136 | 0xFFFF9886  |  4294940806 |
|     137 | 0xFFFE8C16  |  4294872086 |
|     138 | 0xFFFF9A0C  |  4294941196 |
|     139 | 0xFFFE8BBC  |  4294871996 |
|     140 | 0x0023      |          35 |
|     141 | 0x1001      |        4097 |
|     142 | 0x1002      |        4098 |
|     143 | 0x1003      |        4099 |
|     144 | 0x1004      |        4100 |
|     145 | 0x1005      |        4101 |
|     146 | 0x1006      |        4102 |
|     147 | 0x1007      |        4103 |
|     148 | 0x1009      |        4105 |
|     149 | 0x100A      |        4106 |
|     150 | 0x100B      |        4107 |
|     151 | 0x100C      |        4108 |
|     152 | 0x100D      |        4109 |
|     153 | 0x100E      |        4110 |
|     154 | 0x100F      |        4111 |
|     155 | 0x0315      |         789 |
|     156 | 0x031A      |         794 |
|     157 | 0x0311      |         785 |
|     158 | 0x0313      |         787 |
|     159 | 0x0324      |         804 |
|     160 | 0x032D      |         813 |
|     161 | 0x032C      |         812 |
|     162 | 0x300D      |       12301 |
|     163 | 0x300E      |       12302 |
|     164 | 0x300F      |       12303 |
|     165 | 0x3010      |       12304 |
|     166 | 0x3011      |       12305 |
|     167 | 0x3012      |       12306 |
|     168 | 0x3013      |       12307 |
|     169 | 0x3014      |       12308 |
|     170 | 0x301D      |       12317 |
|     171 | 0x301E      |       12318 |
|     172 | 0x3015      |       12309 |
|     173 | 0x3018      |       12312 |
|     174 | 0x301A      |       12314 |
|     175 | 0x301B      |       12315 |
|     176 | 0x301C      |       12316 |
|     177 | 0x3016      |       12310 |
|     178 | 0x3017      |       12311 |
|     179 | 0x3019      |       12313 |
|     180 | 0x0032      |          50 |
|     181 | 0x05EE      |        1518 |
|     182 | 0x02AC      |         684 |
|     183 | 0x0014      |          20 |
|     184 | 0x0028      |          40 |
|     185 | 0x0064      |         100 |
|     186 | 0x012C      |         300 |
|     187 | 0x0190      |         400 |
|     188 | 0x01F4      |         500 |
|     189 | 0x0050      |          80 |
|     190 | 0x0031      |          49 |
|     191 | 0x004A      |          74 |
|     192 | 0x0059      |          89 |
|     193 | 0x005E      |          94 |
|     194 | 0x0061      |          97 |
|     195 | 0x0062      |          98 |
|     196 | 0x0019      |          25 |
|     197 | 0x0F7E      |        3966 |
|     198 | 0x109B      |        4251 |
|     199 | 0x109C      |        4252 |
|     200 | 0x109D      |        4253 |
|     201 | 0x1079      |        4217 |
|     202 | 0x10A1      |        4257 |
|     203 | 0x1541      |        5441 |
|     204 | 0x16FB      |        5883 |
|     205 | 0x16FA      |        5882 |
|     206 | 0x16F9      |        5881 |
|     207 | 0x1739      |        5945 |
|     208 | 0x15A6      |        5542 |
|     209 | 0x15AE      |        5550 |
|     210 | 0x15B0      |        5552 |
|     211 | 0x118E      |        4494 |
|     212 | 0x6FFE      |       28670 |
|     213 | 0x6D00      |       27904 |
|     214 | 0x6D01      |       27905 |
|     215 | 0x6E1A      |       28186 |
|     216 | 0x6E1B      |       28187 |
|     217 | 0x6EA5      |       28325 |
|     218 | 0x6EA6      |       28326 |
|     219 | 0x6C42      |       27714 |
|     220 | 0x190B      |        6411 |
|     221 | 0x0078      |         120 |
|     222 | 0x2710      |       10000 |
|     223 | 0x61A8      |       25000 |
|     224 | 0x4E20      |       20000 |
|     225 | 0x3A98      |       15000 |
|     226 | 0x0030      |          48 |
|     227 | 0x0054      |          84 |
|     228 | 0x0068      |         104 |
|     229 | 0x0074      |         116 |
|     230 | 0x007C      |         124 |
|     231 | 0x007E      |         126 |
|     232 | 0x007F      |         127 |
|     233 | 0x0080      |         128 |
|     234 | 0x0046      |          70 |
|     235 | 0x004B      |          75 |
|     236 | 0x0055      |          85 |
|     237 | 0x005F      |          95 |
|     238 | 0x086D      |        2157 |
|     239 | 0x3047      |       12359 |
|     240 | 0x3048      |       12360 |
|     241 | 0x0044      |          68 |
|     242 | 0x0041      |          65 |
|     243 | 0x0026      |          38 |
|     244 | 0x001D      |          29 |

## String References

- **6392**: Obtained $0 gil.
- **12029**: Which do you desire? ([Obs. Frag./Corpuscles/MUM Medals]: $0) [None./$1. ($17 [fragments/cor./medals])/$2. ($18 [fragments/cor./medals])/$3. ($19 [fragments/cor./medals])/$4. ($20 [fragments/cor./medals])/$5. ($21 [fragments/cor./medals])/$6. ($22 [fragments/cor./medals])/$7. ($23 [fragments/cor./medals])/$8. ($24 [fragments/cor./medals])/$9. ($25 [fragments/cor./medals])/$10. ($26 [fragments/cor./medals])/$11. ($27 [fragments/cor./medals])/$12. ($28 [fragments/cor./medals])/$13. ($29 [fragments/cor./medals])/$14. ($30 [fragments/cor./medals])/$15. ($31 [fragments/cor./medals])/$16. ($ [fragments/cor./medals])/Previous page./Next page.]
- **12035**: $1 can be redeemed for $2 [fragment/mweya plasm corpuscle/medal][/s].
- **12036**: Proceed with the exchange? [Yes./No.]
- **12087**: What will you do, oh valued customer? Dare I suggest trading your medals for prizes?
- **12088**: Sometimes you need to just stop and smell the sweet aroma of entertainment. How about engaging in a rousing game of "Guess That Number"?
- **12089**: I urge you to indulge in as many of Adoulin's pastimes as possible. While I may perhaps be taking it out of context, I do believe there is an adage that states "the more the merrier"--especially when it comes to "Boom or Bust".
- **12090**: I know what you're thinking. "I need this dame to better understand the flow of time." Well then, let me be your partner in a round of "On The Dot"?
- **12091**: If you seek a true test of your abilities, I would be more than happy to give my all against you in "Cascade."
- **12137**: How experienced are you? ($[Bayld/Gil]: $0) [Not enough to play./A pigeon. ($1 $[Bayld/Gil])/A honeymooner. ($2 $[Bayld/Gil])/A shill. ($3 $[Bayld/Gil])/A premium player. ($4 $[Bayld/Gil])/A shark. ($5 $[Bayld/Gil])]
- **12140**: Try again? [ /(You're on a hot streak!)] [Nope./Yes, with $3 bayld. (Bayld: $0)/Yes, with $4 gil. (Gil: $1)]
- **12141**: End the amusement? [No, I can't quit now!/Yes, I've had enough.]
- **12142**: What will you do? [Abstain from playing./Play using bayld. (Bayld: $0)/Play using gil. (Gil: $1)/Nothing until I hear an explanation!]
- **12143**: Fancy yourself an accomplished lockpicker? Then test your skills by deciphering combinations within the set amount of tries and make all the [ladies/gents] swoon!
- **12144**: All locks have two digits, which you'll have to deduce by remembering the numbers you've guessed. A little intuition gained from examining them never hurt, either.
- **12181**: What will you do? ($0 chance[/s] remaining.) [Enter a combination./Examine the lock./Give up.]
- **12182**: It appears that you can enter a two-digit combination between $1 and $2.
- **12183**: If you enjoy tossing dice every so often, this may just be the challenge you have been searching for. Who shall reach 11 with a few flicks of the wrist first--you or me?
- **12184**: Either you or I may choose to "shoot" and roll the dice, "stay" and do nothing, or pick from three tricks up your sleeve.
- **12185**: The three tricks in your arsenal of deception include "Sneak Peek," which allows you to see your opponent's shots, using the old "Switcheroo" and trading shots with your opponent, or forcing your opponent to reroll a shot of his choice with "Crooked Die."
- **12186**: These three tricks will spin the wheel of fortune in your favor, but it is precisely because of their immense powers that we must limit their use to once per game.
- **12187**: Make sure you attempt to turn the tables at the right time, or Lady Luck will be the one cleaning house.
- **12188**: You shot a $2, for a total of $3 on turn number $1.
- **12190**: It is now turn number $1 for [you/your opponent].
- **12191**: [You/Your opponent] [shot/stayed].
- **12192**: What will you do? [Shoot./Stay./Use a trick up my sleeve./Fold.]
- **12193**: Which trick will you use? [None, I've changed my mind./Sneak Peek./Switcheroo./Crooked Die.]
- **12194**: Look at which shot? ([Sneak Peek/Switcheroo/Reroll]) [None, I've changed my mind./Shot one. [???/1/2/3/4/5/6]/Shot two. [???/1/2/3/4/5/6]/Shot three. [???/1/2/3/4/5/6]/Shot four. [???/1/2/3/4/5/6]/Shot five. [???/1/2/3/4/5/6]/Shot six. [???/1/2/3/4/5/6]/Shot seven. [???/1/2/3/4/5/6]/Shot eight. [???/1/2/3/4/5/6]/Shot nine. [???/1/2/3/4/5/6]/Shot ten. [???/1/2/3/4/5/6]/Shot eleven. [???/1/2/3/4/5/6]]
- **12195**: You snuck a peek at one of your opponent's dice! Shot number $1 was a $2 for him.
- **12196**: You used the old switcheroo! Your $1 has been exchanged with your opponent's $2, and your total is now $3.
- **12197**: You forced your opponent to shoot again! His shot for turn number $1 is now $2.
- **12198**: Choose [your opponent's/your] die and [peek at it/exchange it/make him shoot again].
- **12199**: Your opponent's total: $1[/ (Bust!)] Your total: $2[/ (Bust!)] [You win, and thus have the right to gloat all you want until your rematch./Don't go throwing your dice just because you lost, all right?/You are equally matched, and have drawn.]
- **12200**: Clear your mind and ready your chronological senses, for this amusement pits you against time's dilatory creep. The objective here's to speak to me a certain amount of times at the intervals I tell you.
- **12201**: Just so you know, I'll only give you the length of time to wait and how far off you were from the specified interval when spoken to. Furthermore, the difference between your guess and the answer is cumulative.
- **12202**: If you're too slow one round, you can make up time by being a little fast the next.
- **12203**: Finally, you claim victory by staying within a certain number of seconds by the end of the final round. I hope this cleared things up, and enjoy honing your mastery over Father Time.
- **12204**: I take it that means you're in the correct state of mind to challenge the forces of time. Let's do this!
- **12207**: It's judgment time! You were [a total of /a total of /]$1 second[/s] [early./late./off. In other words, perfectly on-target!] [It seems that the concept of time eludes you./Congratulations, you've temporarily mastered the forces of time!]
- **12208**: A wet and wild adventure, this. You and I take turns filling a goblet with water until the cup runneth over, with the offending competitor sent to drown in shame.
- **12209**: The rub is that it looks as if there is more water in the goblet than actually exists. Thus you will need to exercise the entirety of your patience and perspicacity to wrench victory from my clutches.
- **12210**: As if that were not enough, I have added an extra layer of frustration by granting us competitors certain abilities dubbed "afflictions" and "remedies."
- **12211**: On the one hand, afflictions allow you to do such things as change the amount of water I see.
- **12212**: You can also use them to negate the effects of my remedies or limit the amount of water I can pour.
- **12213**: On the other hand, remedies help increase or decrease either the amount of the water you can pour or the amount of water in the goblet. As a final twist, they can also negate the effects of afflictions.
- **12214**: Afflictions and remedies cause the tides of competition to surge and swell to an extreme degree, so we restrict their use to once per game. Be prudent with which you use and when.
- **12215**: What will you do? [Pour away!/Use an affliction./Use a remedy./Throw in the towel.]
- **12216**: How will you afflict your opponent? [I won't, that's how./Increase amount poured./Decrease amount poured./Fabricate water level./Remove a remedy./Restrict to greater pouring options./Restrict to lesser pouring options.]
- **12217**: What remedy will you use? [None, that's what!/Increase amount poured./Decrease amount poured./Cure an affliction./Increase maximum water level./Decrease maximum water level.]
- **12218**: Pour how much? (Currently $1 onz[/es].) [One onz./Two onzes./Three onzes./Four onzes./Five onzes.]
- **12219**: [You used an affliction on Etienne./You used a remedy on yourself./You cured an affliction.]
- **12220**: [You/Etienne] poured water into the goblet. There [is/are] currently $1 onz[/es] of water in it.
- **12221**: [You/Etienne] poured water into the goblet, causing it to overflow. [You have bested your challenger. Claim what is yours by lapping the tears of defeat from his face and tasting the glorious sorrow contained within./How does complete and utter defeat feel? Will you even be able to sleep once night falls?]
- **12224**: Even pioneers like you seeking refuge in amusements can't escape the time's inevitable ticking. The last time you played this game, you were disqualified for exceeding the time limit.
- **12263**: How many do you wish to receive? [None./$1./$2./$3./$4./$5./$6./$7./$8./$9./$10./$11./$12.]
- **12264**: You wish to purchase $3 $0$0 ? Then I shall require $2 [fragment/mweya plasm corpuscle/medal/bayld clump][/s].
- **12290**: I know your type. You're one of those pioneer-wioneers who likes to try [his/her] luck. Well, then, there is no more appropriataru game for you in all of Adoulin than the oft-lauded Box...of...Fortune!
- **12291**: What makes this game so greataru is that it requires not a lick of skill whatsoever.
- **12292**: An egalitarian-warian roll of the dice determines which of the $1 treasure chests you'll open. Depending on the trove inside, you'll get somewhere between a handful and a mountain of mummers' medals.
- **12293**: The three types of ticketarus to wealth that dwell inside chests are: crystals such as $2, spirits like $3, and jewels the likes of $4.
- **12294**: Crystals are the condensed-wensed form of $5 medal[/s], spirits scare $6 medal[/s] into your clutches, and jewels glintaru with the power of $7 medal[/s].
- **12295**: What's more, unboxing a jewel immediataruly puts you on a hot streak more scorching-worching than the fires of Moh Gates.
- **12296**: Once you're on a hot streak, you have a high chance of revealing more jewels, but all good things must come to an end. Should either a crystal or spirit pop out from a chestaru, your flames get doused.
- **12297**: Now, you're free to stop playing anytime you wish, but I wouldn't recommend doing it while you're on a hot streak. It would mean snuffing-wuffing out your streak faster than a chapuli's horn can slice through your legs.
- **12298**: No funny stuff here, just a plain-wain roll of the dice.
- **12299**: The chest opens to reveal $1! You win $2 mummers' medal[/s]!
- **12300**: Welcome to the wonderful arena that is "Three-Card Circus." I, Olivaine, will be your ringmistress.
- **12301**: To win this greatest amusement on Vana'diel, you must collect suit and number combinations of the three cards you are dealt. Each card will be imprinted with one of four suits and six numbers.
- **12302**: It is possible to trade in a maximum of three times, and the amount of cards you draw is equal to the number you discard. Of course, it is acceptable to step down from exchanging should you feel you are walking on a tightrope.
- **12303**: As for the combinations, each one is worth a different number of points. In the event that all three of your cards display different numbers, only the largest one shall count toward your point total.
- **12304**: If you possess a pair, you gain a number of points equal to twice the number of your remaining card.
- **12305**: Furthermore, should you have three of a kind, you will receive fifty points regardless of the cards' number.
- **12306**: Additionally, having cards of all the same suit gives you points equal to twice the total of the numbers on the cards in your hand.
- **12307**: Lastly, should the numbers on your cards total eleven, you will receive three times the amount of points.
- **12308**: %[Your/Olivaine's] hand consists of: A [oo!/o"/o$]$9, a [oo!/o"/o$]$10, and a [oo!/o"/o$]$11.
- **12309**: What will you do? [View your hand./Trade in./View discard pile./Listen to an explanation./Stop trading.]
- **12310**: The following cards have been discarded. [Go back./[oo!/o"/o$]$19./[oo!/o"/o$]$20./[oo!/o"/o$]$21./[oo!/o"/o$]$22./[oo!/o"/o$]$23./[oo!/o"/o$]$24./[oo!/o"/o$]$25./[oo!/o"/o$]$26./[oo!/o"/o$]$27./[oo!/o"/o$]$28./[oo!/o"/o$]$29./[oo!/o"/o$]$30./[oo!/o"/o$]$31./[oo!/o"/o$]$ ./[oo!/o"/o$]$!./[oo!/o"/o$]$"./[oo!/o"/o$]$#./[oo!/o"/o$]$$.]
- **12311**: This card has already been dealt.
- **12312**: Trade in which one? [None./[oo!/o"/o$]$9. ([Hold/Trade])/[oo!/o"/o$]$10. ([Hold/Trade])/[oo!/o"/o$]$11. ([Hold/Trade])/Confirm trade.]
- **12313**: %[You have/Olivaine has] chosen not to trade in.
- **12314**: %[You/Olivaine] discard%[/s] a [oo!/o"/o$]$9 and draw%[/s] $& card[/s]!
- **12315**: %[You/Olivaine] discard%[/s] a [oo!/o"/o$]$9 and a [oo!/o"/o$]$10, then draw%[/s] $& card[/s]!
- **12316**: %[You/Olivaine] discard%[/s] a [oo!/o"/o$]$9, a [oo!/o"/o$]$10, and a [oo!/o"/o$]$11, then draw%[/s] $& card[/s]!
- **12317**: It is time for us to reveal our hands. <Drum Roll>
- **12318**: You have $1 point[/s], while Olivaine has $2 point[/s]. [You win, making you the leading act!/Olivaine has thoroughly tamed you with her victory./It's a tie! Time to jump through another ring of fire.]
- **12359**: Excuse me, but I do not believe you have $6, do you?
- **12360**: Oh, that's too bad, because we would love for you to help us with the colonization effort. If you are willing, then by all means, speak with Brenton so he can outfit you with one.

## Events

### Event 65535

#### Metadata

| Field        | Value   |
|--------------|---------|
| Entrypoint   | 0x0000  |
| Data Size    | 1 bytes |
| Instructions | 1       |

```
      00 01 02 03 04 05 06 07  08 09 0A 0B 0C 0D 0E 0F
      -- -- -- -- -- -- -- --  -- -- -- -- -- -- -- --
0000: 00                                                .               
```

#### Opcodes

```
  0: 0x0000 [0x00] END_REQSTACK()
```

### Event 7606

#### Metadata

| Field        | Value    |
|--------------|----------|
| Entrypoint   | 0x0001   |
| Data Size    | 13 bytes |
| Instructions | 5        |

```
      00 01 02 03 04 05 06 07  08 09 0A 0B 0C 0D 0E 0F
      -- -- -- -- -- -- -- --  -- -- -- -- -- -- -- --
0000:    06 48 00 03 49 00 00  80 1A 3E 4B 21 00         .H..I....>K!.  
```

#### Opcodes

```
  0: 0x0001 [0x06] ExtData[1]->WorkLocal[72] = 0
  1: 0x0004 [0x03] ExtData[1]->WorkLocal[73] = 5*
  2: 0x0009 [0x1A] CALL_SUBROUTINE(address=0x4B3E)
  3: 0x000C [0x21] END_EVENT
  4: 0x000D [0x00] END_REQSTACK()
```

### Event 7555

#### Metadata

| Field        | Value       |
|--------------|-------------|
| Entrypoint   | 0x000E      |
| Data Size    | 19706 bytes |
| Instructions | 2847        |

```
      00 01 02 03 04 05 06 07  08 09 0A 0B 0C 0D 0E 0F
      -- -- -- -- -- -- -- --  -- -- -- -- -- -- -- --
0000:                                            1A 6E                .n
0010: 2C 21 00 1E F0 FF FF 7F  1A 5E 47 03 0E 00 03 10  ,!.......^G.....
0020: 03 0F 00 04 10 03 10 00  05 10 41 01 80 02 80 0F  ..........A.....
0030: 00 13 00 41 01 80 03 80  0E 00 14 00 1D 04 80 23  ...A...........#
0040: 05 09 00 06 08 00 06 2E  00 06 26 00 02 02 00 01  ..........&.....
0050: 80 00 E1 02 1A E2 02 1A  24 04 03 02 10 10 00 03  ........$.......
0060: 19 17 05 80 24 06 80 08  00 00 00 25 02 00 10 01  ....$......%....
0070: 80 00 7F 00 03 01 10 07  80 05 02 00 01 A3 00 02  ................
0080: 00 10 08 80 00 95 00 02  26 00 01 80 02 92 00 0C  ........&.......
0090: 26 00 01 A3 00 02 00 10  09 80 00 A3 00 0B 26 00  &.............&.
00A0: 01 A3 00 03 08 00 00 10  02 08 00 08 80 80 B6 00  ................
00B0: 06 08 00 01 C4 00 02 08  00 09 80 80 C4 00 06 08  ................
00C0: 00 01 C4 00 02 08 00 01  80 01 DE 02 06 19 00 03  ................
00D0: 19 00 26 00 14 19 00 0A  80 07 19 00 08 00 02 19  ..&.............
00E0: 00 2E 00 01 EE 00 03 2E  00 19 00 05 09 00 0C 19  ................
00F0: 00 9D 00 4E 4A 1F 00 19  00 06 0D 00 02 1F 00 0B  ...NJ...........
0100: 80 00 0C 01 03 0D 00 0B  80 01 F2 01 02 1F 00 0B  ................
0110: 80 80 17 01 01 F2 01 02  1F 00 0C 80 80 7B 01 03  .............{..
0120: 03 10 0B 80 03 04 10 05  80 03 05 10 03 80 03 06  ................
0130: 10 0D 80 03 07 10 00 80  03 08 10 0E 80 03 09 10  ................
0140: 0F 80 03 00 17 10 80 03  01 17 11 80 03 02 17 12  ................
0150: 80 03 03 17 13 80 03 04  17 0C 80 03 01 00 0B 80  ................
0160: 24 14 80 0B 80 01 00 25  02 00 10 01 80 00 73 01  $......%......s.
0170: 01 73 01 03 0D 00 00 10  01 F2 01 02 1F 00 15 80  .s..............
0180: 80 F2 01 03 03 10 0B 80  03 04 10 16 80 03 05 10  ................
0190: 17 80 03 06 10 15 80 40  00 80 18 80 01 00 19 80  .......@........
01A0: 3C 01 00 01 80 0B 80 24  14 80 0B 80 01 00 25 02  <......$......%.
01B0: 00 10 0B 80 00 BF 01 03  0D 00 0B 80 01 EF 01 02  ................
01C0: 00 10 05 80 00 CF 01 03  0D 00 16 80 01 EF 01 02  ................
01D0: 00 10 03 80 00 DF 01 03  0D 00 17 80 01 EF 01 02  ................
01E0: 00 10 0D 80 00 EF 01 03  0D 00 15 80 01 EF 01 01  ................
01F0: F2 01 9D 00 BE 49 03 10  19 00 9D 00 EE 49 04 10  .....I.......I..
0200: 19 00 9D 00 1E 4A 1C 00  19 00 06 25 00 02 1C 00  .....J.....%....
0210: 01 80 00 1B 02 05 25 00  01 3C 02 0C 1C 00 3E 13  ......%..<....>.
0220: 00 1C 00 2B 02 05 25 00  01 3C 02 07 1C 00 10 80  ...+..%..<......
0230: 3E 13 00 1C 00 3C 02 03  25 00 05 80 02 25 00 05  >....<..%....%..
0240: 80 00 49 02 14 04 10 03  80 93 03 10 02 1F 00 0B  ..I.............
0250: 80 00 60 02 03 19 17 05  80 1D 1A 80 23 01 73 02  ..`.........#.s.
0260: 03 19 17 05 80 14 04 10  0D 00 03 05 10 0D 00 1D  ................
0270: 1B 80 23 93 01 80 03 19  17 05 80 03 02 10 10 00  ..#.............
0280: 24 1C 80 09 00 01 80 25  02 00 10 01 80 00 CE 02  $......%........
0290: 42 40 01 80 0F 80 01 10  1D 80 06 19 00 03 19 00  B@..............
02A0: 26 00 14 19 00 0A 80 07  19 00 08 00 0C 19 00 40  &..............@
02B0: 10 80 1E 80 01 10 19 00  40 1F 80 18 80 01 10 0D  ........@.......
02C0: 00 43 00 43 01 03 10 00  09 10 2E 01 D9 02 02 00  .C.C............
02D0: 10 0B 80 00 D9 02 01 D9  02 03 09 00 00 10 01 4C  ...............L
02E0: 00 1B 1A A4 47 06 1D 00  06 1C 00 06 21 00 06 27  ....G.......!..'
02F0: 00 06 1E 00 03 27 00 26  00 0B 27 00 14 27 00 0A  .....'.&..'..'..
0300: 80 02 27 00 1F 80 02 13  03 3F 27 00 1F 80 0A 80  ..'......?'.....
0310: 01 18 03 03 27 00 0A 80  02 1D 00 27 00 03 88 03  ....'......'....
0320: 03 1E 00 26 00 14 1E 00  0A 80 07 1E 00 1D 00 9D  ...&............
0330: 00 1E 4A 1C 00 1E 00 06  25 00 02 1C 00 01 80 00  ..J.....%.......
0340: 48 03 05 25 00 01 67 03  0C 1C 00 3E 13 00 1C 00  H..%..g....>....
0350: 58 03 05 25 00 01 67 03  07 1C 00 10 80 3E 13 00  X..%..g......>..
0360: 1C 00 67 03 05 25 00 02  25 00 01 80 02 82 03 9D  ..g..%..%.......
0370: 00 BE 49 20 00 1E 00 9D  05 BE 47 20 00 1D 00 01  ..I ......G ....
0380: 82 03 0B 1D 00 01 18 03  06 1D 00 02 1D 00 1F 80  ................
0390: 03 23 04 03 1E 00 26 00  14 1E 00 0A 80 07 1E 00  .#....&.........
03A0: 1D 00 9D 00 1E 4A 1C 00  1E 00 06 25 00 02 1C 00  .....J.....%....
03B0: 01 80 00 BB 03 05 25 00  01 DC 03 0C 1C 00 3E 13  ......%.......>.
03C0: 00 1C 00 CB 03 05 25 00  01 DC 03 07 1C 00 10 80  ......%.........
03D0: 3E 13 00 1C 00 DC 03 03  25 00 05 80 02 25 00 01  >.......%....%..
03E0: 80 02 1D 04 03 1E 00 26  00 14 1E 00 0A 80 07 1E  .......&........
03F0: 00 1D 00 03 21 00 1D 00  07 21 00 0A 80 9D 00 EE  ....!....!......
0400: 49 20 00 1E 00 02 25 00  05 80 00 12 04 14 20 00  I ....%....... .
0410: 03 80 9D 05 BE 47 20 00  21 00 01 1D 04 0B 1D 00  .....G .!.......
0420: 01 8B 03 1B 06 1D 00 06  00 00 06 27 00 06 1E 00  ...........'....
0430: 03 27 00 26 00 0B 27 00  14 27 00 0A 80 02 27 00  .'.&..'..'....'.
0440: 1F 80 02 4F 04 3F 27 00  1F 80 0A 80 01 54 04 03  ...O.?'......T..
0450: 27 00 0A 80 02 1D 00 27  00 03 D2 04 9D 00 BE 47  '......'.......G
0460: 20 00 1D 00 02 20 00 01  80 00 76 04 3C 00 00 1D   .... ....v.<...
0470: 00 0B 80 01 CC 04 03 19  00 26 00 14 19 00 0A 80  .........&......
0480: 07 19 00 1D 00 9D 00 7E  4A 22 00 19 00 02 22 00  .......~J"....".
0490: 01 80 80 A7 04 02 8B 7F  22 00 01 A4 04 3C 00 00  ........"....<..
04A0: 1D 00 0B 80 01 CC 04 02  22 00 0B 80 80 C1 04 02  ........".......
04B0: 8B 7F 22 00 01 BE 04 3C  00 00 1D 00 0B 80 01 CC  .."....<........
04C0: 04 02 22 00 05 80 80 CC  04 01 CC 04 0B 1D 00 01  ..".............
04D0: 54 04 40 27 00 18 80 00  00 19 80 10 00 00 0B 80  T.@'............
04E0: 03 27 00 26 00 0B 27 00  14 27 00 0A 80 02 26 00  .'.&..'..'....&.
04F0: 01 80 02 FC 04 3D 00 00  08 80 0B 80 02 27 00 1F  .....=.......'..
0500: 80 03 0B 05 3D 00 00 09  80 0B 80 1B 1E F0 FF FF  ....=...........
0510: 7F 1A 5E 47 03 47 00 02  10 03 0E 00 03 10 03 0F  ..^G.G..........
0520: 00 04 10 03 10 00 05 10  03 11 00 06 10 41 01 80  .............A..
0530: 02 80 0F 00 13 00 41 01  80 03 80 0E 00 14 00 02  ......A.........
0540: 0C 00 01 80 80 4E 05 1D  20 80 23 01 A4 05 02 0C  .....N.. .#.....
0550: 00 0B 80 80 5D 05 1D 21  80 23 01 A4 05 02 0C 00  ....]..!.#......
0560: 05 80 80 6C 05 1D 22 80  23 01 A4 05 02 0C 00 03  ...l..".#.......
0570: 80 80 7B 05 1D 23 80 23  01 A4 05 02 0C 00 0D 80  ..{..#.#........
0580: 80 8A 05 1D 24 80 23 01  A4 05 02 0C 00 00 80 80  ....$.#.........
0590: 99 05 1D 25 80 23 01 A4  05 02 0C 00 0E 80 80 A4  ...%.#..........
05A0: 05 01 A4 05 06 00 00 1A  06 08 02 0B 00 01 80 02  ................
05B0: 5F 06 42 03 15 00 0A 00  0C 15 00 06 03 00 02 03  _.B.............
05C0: 00 01 80 00 5F 06 1A A5  07 02 16 00 0B 80 80 EF  ...._...........
05D0: 05 03 00 00 10 80 1A 06  08 03 15 00 0A 00 0C 15  ................
05E0: 00 02 0B 00 01 80 00 EC  05 05 03 00 01 5C 06 02  .............\..
05F0: 16 00 05 80 80 5C 06 05  03 00 02 0C 00 01 80 80  .....\..........
0600: 08 06 1A 98 09 01 59 06  02 0C 00 0B 80 80 16 06  ......Y.........
0610: 1A 9D 0C 01 59 06 02 0C  00 05 80 80 24 06 1A FA  ....Y.......$...
0620: 21 01 59 06 02 0C 00 03  80 80 32 06 1A 3B 22 01  !.Y.......2..;".
0630: 59 06 02 0C 00 0D 80 80  40 06 1A BA 2C 01 59 06  Y.......@...,.Y.
0640: 02 0C 00 00 80 80 4E 06  1A 1F 37 01 59 06 02 0C  ......N...7.Y...
0650: 00 0E 80 80 59 06 01 59  06 01 5C 06 01 BE 05 1B  ....Y..Y..\.....
0660: 06 18 00 02 12 00 01 80  02 71 06 05 17 00 01 74  .........q.....t
0670: 06 06 17 00 03 02 10 10  00 03 03 10 11 00 03 04  ................
0680: 10 17 00 03 19 00 0C 00  14 19 00 00 80 07 19 00  ................
0690: 15 00 9D 00 5E 48 05 10  19 00 9D 00 0E 48 06 10  ....^H.......H..
06A0: 19 00 24 26 80 0B 00 01  80 25 02 00 10 01 80 00  ..$&.....%......
06B0: BD 06 03 01 10 07 80 05  02 00 01 BD 06 03 0B 00  ................
06C0: 00 10 02 0B 00 01 80 02  A4 07 06 05 00 02 05 00  ................
06D0: 01 80 00 A4 07 1A A5 07  02 16 00 0B 80 80 34 07  ..............4.
06E0: 03 02 10 10 00 03 03 10  11 00 03 04 10 17 00 03  ................
06F0: 19 00 0C 00 14 19 00 00  80 07 19 00 15 00 9D 00  ................
0700: 5E 48 05 10 19 00 9D 00  0E 48 06 10 19 00 24 26  ^H.......H....$&
0710: 80 0B 00 01 80 25 02 00  10 01 80 00 2C 07 03 01  .....%......,...
0720: 10 07 80 05 05 00 05 02  00 01 2C 07 03 0B 00 00  ..........,.....
0730: 10 01 A1 07 02 16 00 05  80 80 A1 07 02 0C 00 01  ................
0740: 80 80 4A 07 1A B1 0B 01  9B 07 02 0C 00 0B 80 80  ..J.............
0750: 58 07 1A 84 20 01 9B 07  02 0C 00 05 80 80 66 07  X... .........f.
0760: 1A 11 22 01 9B 07 02 0C  00 03 80 80 74 07 1A A5  ..".........t...
0770: 2B 01 9B 07 02 0C 00 0D  80 80 82 07 1A 98 2F 01  +............./.
0780: 9B 07 02 0C 00 00 80 80  90 07 1A 9E 42 01 9B 07  ............B...
0790: 02 0C 00 0E 80 80 9B 07  01 9B 07 05 05 00 01 A1  ................
07A0: 07 01 CD 06 1B 02 0B 00  0B 80 80 D5 07 40 01 80  .............@..
07B0: 0F 80 01 10 05 80 40 10  80 1E 80 01 10 15 00 43  ......@........C
07C0: 00 43 01 03 10 00 05 10  03 11 00 06 10 03 16 00  .C..............
07D0: 09 10 01 05 08 02 0B 00  05 80 80 05 08 40 01 80  .............@..
07E0: 0F 80 01 10 0B 80 40 10  80 1E 80 01 10 15 00 43  ......@........C
07F0: 00 43 01 03 10 00 05 10  03 11 00 06 10 03 16 00  .C..............
0800: 09 10 01 05 08 1B 06 06  00 06 0A 00 06 0B 00 02  ................
0810: 06 00 01 80 00 85 09 03  02 10 10 00 03 03 10 11  ................
0820: 00 06 0A 00 24 27 80 0B  00 01 80 25 02 00 10 01  ....$'.....%....
0830: 80 00 3F 08 03 01 10 07  80 05 06 00 01 C5 08 02  ..?.............
0840: 00 10 0B 80 00 4D 08 05  0A 00 01 C5 08 02 00 10  .....M..........
0850: 05 80 00 5B 08 05 0A 00  01 C5 08 02 00 10 03 80  ...[............
0860: 00 C5 08 02 0C 00 01 80  80 71 08 1A 8F 09 01 C2  .........q......
0870: 08 02 0C 00 0B 80 80 7F  08 1A 88 0C 01 C2 08 02  ................
0880: 0C 00 05 80 80 8D 08 1A  0D 21 01 C2 08 02 0C 00  .........!......
0890: 03 80 80 9B 08 1A 1E 22  01 C2 08 02 0C 00 0D 80  ......."........
08A0: 80 A9 08 1A 7A 2C 01 C2  08 02 0C 00 00 80 80 B7  ....z,..........
08B0: 08 1A 02 37 01 C2 08 02  0C 00 0E 80 80 C2 08 01  ...7............
08C0: C2 08 01 C5 08 03 0B 00  00 10 02 0A 00 01 80 02  ................
08D0: 82 09 06 0A 00 06 1D 00  02 0B 00 0B 80 80 1A 09  ................
08E0: 03 02 10 10 00 02 1D 00  00 80 03 12 09 03 19 00  ................
08F0: 0C 00 14 19 00 00 80 07  19 00 1D 00 9D 00 5E 48  ..............^H
0900: 21 00 19 00 9D 05 BE 47  21 00 1D 00 0B 1D 00 01  !......G!.......
0910: E5 08 03 1C 17 01 80 01  5C 09 02 0B 00 05 80 80  ........\.......
0920: 5C 09 03 02 10 11 00 02  1D 00 00 80 03 54 09 03  \............T..
0930: 19 00 0C 00 14 19 00 00  80 07 19 00 1D 00 9D 00  ................
0940: 0E 48 21 00 19 00 9D 05  BE 47 21 00 1D 00 0B 1D  .H!......G!.....
0950: 00 01 27 09 03 1C 17 0B  80 01 5C 09 24 28 80 01  ..'.......\.$(..
0960: 80 01 80 25 02 00 10 01  80 00 72 09 06 0B 00 01  ...%......r.....
0970: 72 09 03 0A 00 00 10 02  0A 00 01 80 02 82 09 05  r...............
0980: 06 00 01 0F 08 1B 03 0C  00 01 80 1A 0C 05 1B 1D  ................
0990: 29 80 23 1D 2A 80 23 1B  06 02 00 1A B1 0B 02 02  ).#.*.#.........
09A0: 00 01 80 00 55 0B 06 18  00 06 1E 00 06 16 00 03  ....U...........
09B0: 02 10 1D 00 24 2B 80 01  80 01 80 25 02 00 10 01  ....$+.....%....
09C0: 80 00 98 0A 03 03 10 1A  00 03 04 10 1B 00 48 2C  ..............H,
09D0: 80 23 71 12 0B 80 05 80  71 13 1E 00 02 1E 00 1A  .#q.....q.......
09E0: 00 03 E9 09 03 1E 00 2D  80 02 1E 00 1B 00 02 F6  .......-........
09F0: 09 03 1E 00 2D 80 40 01  80 0F 80 01 10 03 80 40  ....-.@........@
0A00: 10 80 1E 80 01 10 1E 00  40 1F 80 18 80 01 10 1D  ........@.......
0A10: 00 43 00 43 01 03 16 00  09 10 02 16 00 01 80 80  .C.C............
0A20: 2A 0A 03 18 00 01 80 01  95 0A 02 16 00 0B 80 80  *...............
0A30: 61 0A 0C 1D 00 02 1D 00  01 80 00 59 0A 45 2E 80  a..........Y.E..
0A40: F0 FF FF 7F F0 FF FF 7F  73 30 33 32 01 80 03 18  ........s032....
0A50: 00 0B 80 06 12 00 01 5E  0A 03 18 00 01 80 01 95  .......^........
0A60: 0A 02 16 00 05 80 80 95  0A 45 2E 80 F0 FF FF 7F  .........E......
0A70: F0 FF FF 7F 73 30 33 31  01 80 2C D4 00 10 01 D4  ....s031..,.....
0A80: 00 10 01 6F 70 65 6E 06  1D 00 03 18 00 05 80 0B  ...open.........
0A90: 12 00 01 95 0A 01 2E 0B  02 00 10 0B 80 00 EF 0A  ................
0AA0: 40 01 80 0F 80 01 10 0D  80 40 1F 80 18 80 01 10  @........@......
0AB0: 1D 00 43 00 43 01 03 10  00 05 10 03 11 00 06 10  ..C.C...........
0AC0: 0C 1D 00 02 1D 00 01 80  00 E7 0A 45 2E 80 F0 FF  ...........E....
0AD0: FF 7F F0 FF FF 7F 73 30  33 32 01 80 03 18 00 0B  ......s032......
0AE0: 80 06 12 00 01 EC 0A 03  18 00 01 80 01 2E 0B 02  ................
0AF0: 00 10 05 80 00 2E 0B 24  2F 80 01 80 01 80 25 02  .......$/.....%.
0B00: 00 10 01 80 00 0F 0B 03  18 00 01 80 01 2B 0B 02  .............+..
0B10: 00 10 0B 80 00 2B 0B 06  1D 00 06 12 00 03 01 10  .....+..........
0B20: 07 80 06 18 00 05 02 00  01 2B 0B 01 2E 0B 02 02  .........+......
0B30: 00 01 80 00 52 0B 02 12  00 01 80 02 44 0B 05 17  ....R.......D...
0B40: 00 01 47 0B 06 17 00 02  18 00 01 80 02 52 0B 1A  ..G..........R..
0B50: 60 06 01 9E 09 45 2E 80  F0 FF FF 7F F0 FF FF 7F  `....E..........
0B60: 66 64 6F 31 01 80 55 2E  80 F0 FF FF 7F F0 FF FF  fdo1..U.........
0B70: 7F 66 64 6F 31 52 30 80  F0 FF FF 7F F0 FF FF 7F  .fdo1R0.........
0B80: 73 30 38 34 92 00 F8 FF  FF 7F 4E 00 F0 FF FF 7F  s084......N.....
0B90: 80 F0 FF FF 7F 1E F0 FF  FF 7F 46 00 1C 31 80 45  ..........F..1.E
0BA0: 2E 80 F0 FF FF 7F F0 FF  FF 7F 66 64 69 32 01 80  ..........fdi2..
0BB0: 1B 45 2E 80 F0 FF FF 7F  F0 FF FF 7F 66 64 6F 31  .E..........fdo1
0BC0: 01 80 55 2E 80 F0 FF FF  7F F0 FF FF 7F 66 64 6F  ..U..........fdo
0BD0: 31 46 01 38 32 80 4E 01  F0 FF FF 7F 7B F8 FF FF  1F.82.N.....{...
0BE0: 7F 2F 00 D4 00 10 01 4E  00 D4 00 10 01 92 01 F8  ./.....N........
0BF0: FF FF 7F 59 05 D4 00 10  01 01 BA D4 00 10 01 33  ...Y...........3
0C00: 80 34 80 35 80 36 80 37  37 80 38 80 39 80 36 80  .4.5.6.77.8.9.6.
0C10: 80 D4 00 10 01 80 F8 FF  FF 7F 69 01 0B 80 2C D4  ..........i...,.
0C20: 00 10 01 D4 00 10 01 63  6C 6F 73 1C 3A 80 69 00  .......clos.:.i.
0C30: 0B 80 45 30 80 F0 FF FF  7F F0 FF FF 7F 73 30 38  ..E0.........s08
0C40: 34 01 80 1C 02 80 45 2E  80 F0 FF FF 7F F0 FF FF  4.....E.........
0C50: 7F 66 64 69 31 01 80 03  19 00 0C 00 14 19 00 00  .fdi1...........
0C60: 80 07 19 00 15 00 9D 00  FE 48 1A 00 19 00 9D 00  .........H......
0C70: 0E 49 1B 00 19 00 9D 00  1E 49 1D 00 19 00 1B 03  .I.......I......
0C80: 0C 00 0B 80 1A 0C 05 1B  1D 3B 80 23 1D 3C 80 23  .........;.#.<.#
0C90: 1D 3D 80 23 1D 3E 80 23  1D 3F 80 23 1B 06 02 00  .=.#.>.#.?.#....
0CA0: 06 28 00 06 29 00 06 2C  00 06 2D 00 1A 84 20 02  .(..)..,..-... .
0CB0: 02 00 01 80 00 82 0D 06  18 00 1A 60 1F 0B 2D 00  ...........`..-.
0CC0: 02 2A 00 01 80 80 06 0D  02 2B 00 0B 80 00 EA 0C  .*.......+......
0CD0: 03 02 10 01 80 03 03 10  2D 00 03 04 10 0B 80 48  ........-......H
0CE0: 40 80 23 48 41 80 23 01  03 0D 1A 0F 0F 02 2B 00  @.#HA.#.......+.
0CF0: 05 80 80 03 0D 03 01 10  07 80 06 18 00 05 02 00  ................
0D00: 01 03 0D 01 5B 0D 02 2A  00 0B 80 80 5B 0D 02 2B  ....[..*....[..+
0D10: 00 0B 80 00 21 0D 1A D3  0D 03 18 00 1F 00 01 58  ....!..........X
0D20: 0D 1A 0F 0F 02 2B 00 01  80 80 2F 0D 01 58 0D 02  .....+..../..X..
0D30: 2B 00 0B 80 80 42 0D 1A  D3 0D 03 18 00 1F 00 01  +....B..........
0D40: 58 0D 02 2B 00 05 80 80  58 0D 03 01 10 07 80 06  X..+....X.......
0D50: 18 00 05 02 00 01 58 0D  01 5B 0D 02 02 00 01 80  ......X..[......
0D60: 00 7F 0D 02 12 00 01 80  02 71 0D 05 17 00 01 74  .........q.....t
0D70: 0D 06 17 00 02 18 00 01  80 02 7F 0D 1A 60 06 01  .............`..
0D80: AF 0C 45 2E 80 F0 FF FF  7F F0 FF FF 7F 66 64 6F  ..E..........fdo
0D90: 31 01 80 55 2E 80 F0 FF  FF 7F F0 FF FF 7F 66 64  1..U..........fd
0DA0: 6F 31 52 30 80 F0 FF FF  7F F0 FF FF 7F 73 30 38  o1R0.........s08
0DB0: 35 92 00 F8 FF FF 7F 1E  F0 FF FF 7F 46 00 1C 31  5...........F..1
0DC0: 80 45 2E 80 F0 FF FF 7F  F0 FF FF 7F 66 64 69 32  .E..........fdi2
0DD0: 01 80 1B 06 1A 00 06 1B  00 02 28 00 13 80 02 E4  ..........(.....
0DE0: 0D 05 1B 00 02 29 00 13  80 02 EF 0D 05 1A 00 06  .....)..........
0DF0: 1E 00 02 1B 00 01 80 02  12 0E 02 1A 00 01 80 02  ................
0E00: 0A 0E 03 07 10 05 80 01  0F 0E 03 07 10 01 80 01  ................
0E10: 47 0E 02 1A 00 01 80 02  22 0E 03 07 10 0B 80 01  G.......".......
0E20: 47 0E 02 29 00 28 00 03  32 0E 03 07 10 0B 80 01  G..).(..2.......
0E30: 47 0E 02 29 00 28 00 00  42 0E 03 07 10 05 80 01  G..).(..B.......
0E40: 47 0E 03 07 10 01 80 03  03 10 28 00 03 04 10 29  G.........(....)
0E50: 00 03 05 10 1B 00 03 06  10 1A 00 48 42 80 23 02  ...........HB.#.
0E60: 07 10 01 80 80 7D 0E 03  1F 00 05 80 40 01 80 0F  .....}......@...
0E70: 80 01 10 00 80 03 2E 00  00 80 01 B9 0E 02 07 10  ................
0E80: 0B 80 80 9B 0E 03 1F 00  0B 80 40 01 80 0F 80 01  ..........@.....
0E90: 10 0F 80 03 2E 00 0F 80  01 B9 0E 02 07 10 05 80  ................
0EA0: 80 B9 0E 03 1F 00 05 80  40 01 80 0F 80 01 10 0E  ........@.......
0EB0: 80 03 2E 00 0E 80 01 B9  0E 40 10 80 1E 80 01 10  .........@......
0EC0: 1E 00 43 00 43 01 03 12  00 09 10 02 2E 00 00 80  ..C.C...........
0ED0: 80 E7 0E 45 2E 80 F0 FF  FF 7F F0 FF FF 7F 73 30  ...E..........s0
0EE0: 33 31 01 80 01 0E 0F 02  2E 00 0E 80 80 F2 0E 01  31..............
0EF0: 0E 0F 02 2E 00 0F 80 80  0E 0F 45 2E 80 F0 FF FF  ..........E.....
0F00: 7F F0 FF FF 7F 73 30 33  32 01 80 01 0E 0F 1B 13  .....s032.......
0F10: 1E 00 00 80 0B 1E 00 07  29 00 1E 00 02 1E 00 0B  ........).......
0F20: 80 80 00 11 02 29 00 0B  80 80 4F 0F BB 31 80 F0  .....)....O..1..
0F30: FF FF 7F F0 FF FF 7F 6D  31 30 31 01 80 BC 31 80  .......m101...1.
0F40: F0 FF FF 7F F0 FF FF 7F  6D 31 30 31 01 FD 10 02  ........m101....
0F50: 29 00 05 80 80 7A 0F BB  31 80 F0 FF FF 7F F0 FF  )....z..1.......
0F60: FF 7F 6D 31 30 32 01 80  BC 31 80 F0 FF FF 7F F0  ..m102...1......
0F70: FF FF 7F 6D 31 30 32 01  FD 10 02 29 00 03 80 80  ...m102....)....
0F80: A5 0F BB 31 80 F0 FF FF  7F F0 FF FF 7F 6D 31 30  ...1.........m10
0F90: 33 01 80 BC 31 80 F0 FF  FF 7F F0 FF FF 7F 6D 31  3...1.........m1
0FA0: 30 33 01 FD 10 02 29 00  0D 80 80 D0 0F BB 31 80  03....).......1.
0FB0: F0 FF FF 7F F0 FF FF 7F  6D 31 30 34 01 80 BC 31  ........m104...1
0FC0: 80 F0 FF FF 7F F0 FF FF  7F 6D 31 30 34 01 FD 10  .........m104...
0FD0: 02 29 00 00 80 80 FB 0F  BB 31 80 F0 FF FF 7F F0  .).......1......
0FE0: FF FF 7F 6D 31 30 35 01  80 BC 31 80 F0 FF FF 7F  ...m105...1.....
0FF0: F0 FF FF 7F 6D 31 30 35  01 FD 10 02 29 00 0E 80  ....m105....)...
1000: 80 26 10 BB 31 80 F0 FF  FF 7F F0 FF FF 7F 6D 31  .&..1.........m1
1010: 30 36 01 80 BC 31 80 F0  FF FF 7F F0 FF FF 7F 6D  06...1.........m
1020: 31 30 36 01 FD 10 02 29  00 0F 80 80 51 10 BB 31  106....)....Q..1
1030: 80 F0 FF FF 7F F0 FF FF  7F 6D 31 30 37 01 80 BC  .........m107...
1040: 31 80 F0 FF FF 7F F0 FF  FF 7F 6D 31 30 37 01 FD  1.........m107..
1050: 10 02 29 00 10 80 80 7C  10 BB 31 80 F0 FF FF 7F  ..)....|..1.....
1060: F0 FF FF 7F 6D 31 30 38  01 80 BC 31 80 F0 FF FF  ....m108...1....
1070: 7F F0 FF FF 7F 6D 31 30  38 01 FD 10 02 29 00 11  .....m108....)..
1080: 80 80 A7 10 BB 31 80 F0  FF FF 7F F0 FF FF 7F 6D  .....1.........m
1090: 31 30 39 01 80 BC 31 80  F0 FF FF 7F F0 FF FF 7F  109...1.........
10A0: 6D 31 30 39 01 FD 10 02  29 00 12 80 80 D2 10 BB  m109....).......
10B0: 31 80 F0 FF FF 7F F0 FF  FF 7F 6D 31 31 30 01 80  1.........m110..
10C0: BC 31 80 F0 FF FF 7F F0  FF FF 7F 6D 31 31 30 01  .1.........m110.
10D0: FD 10 02 29 00 13 80 80  FD 10 BB 31 80 F0 FF FF  ...).......1....
10E0: 7F F0 FF FF 7F 6D 31 31  31 01 80 BC 31 80 F0 FF  .....m111...1...
10F0: FF 7F F0 FF FF 7F 6D 31  31 31 01 FD 10 01 74 1A  ......m111....t.
1100: 02 1E 00 05 80 80 E4 12  02 29 00 0B 80 80 33 11  .........)....3.
1110: BB 31 80 F0 FF FF 7F F0  FF FF 7F 6D 32 30 31 01  .1.........m201.
1120: 80 BC 31 80 F0 FF FF 7F  F0 FF FF 7F 6D 32 30 31  ..1.........m201
1130: 01 E1 12 02 29 00 05 80  80 5E 11 BB 31 80 F0 FF  ....)....^..1...
1140: FF 7F F0 FF FF 7F 6D 32  30 32 01 80 BC 31 80 F0  ......m202...1..
1150: FF FF 7F F0 FF FF 7F 6D  32 30 32 01 E1 12 02 29  .......m202....)
1160: 00 03 80 80 89 11 BB 31  80 F0 FF FF 7F F0 FF FF  .......1........
1170: 7F 6D 32 30 33 01 80 BC  31 80 F0 FF FF 7F F0 FF  .m203...1.......
1180: FF 7F 6D 32 30 33 01 E1  12 02 29 00 0D 80 80 B4  ..m203....).....
1190: 11 BB 31 80 F0 FF FF 7F  F0 FF FF 7F 6D 32 30 34  ..1.........m204
11A0: 01 80 BC 31 80 F0 FF FF  7F F0 FF FF 7F 6D 32 30  ...1.........m20
11B0: 34 01 E1 12 02 29 00 00  80 80 DF 11 BB 31 80 F0  4....).......1..
11C0: FF FF 7F F0 FF FF 7F 6D  32 30 35 01 80 BC 31 80  .......m205...1.
11D0: F0 FF FF 7F F0 FF FF 7F  6D 32 30 35 01 E1 12 02  ........m205....
11E0: 29 00 0E 80 80 0A 12 BB  31 80 F0 FF FF 7F F0 FF  ).......1.......
11F0: FF 7F 6D 32 30 36 01 80  BC 31 80 F0 FF FF 7F F0  ..m206...1......
1200: FF FF 7F 6D 32 30 36 01  E1 12 02 29 00 0F 80 80  ...m206....)....
1210: 35 12 BB 31 80 F0 FF FF  7F F0 FF FF 7F 6D 32 30  5..1.........m20
1220: 37 01 80 BC 31 80 F0 FF  FF 7F F0 FF FF 7F 6D 32  7...1.........m2
1230: 30 37 01 E1 12 02 29 00  10 80 80 60 12 BB 31 80  07....)....`..1.
1240: F0 FF FF 7F F0 FF FF 7F  6D 32 30 38 01 80 BC 31  ........m208...1
1250: 80 F0 FF FF 7F F0 FF FF  7F 6D 32 30 38 01 E1 12  .........m208...
1260: 02 29 00 11 80 80 8B 12  BB 31 80 F0 FF FF 7F F0  .).......1......
1270: FF FF 7F 6D 32 30 39 01  80 BC 31 80 F0 FF FF 7F  ...m209...1.....
1280: F0 FF FF 7F 6D 32 30 39  01 E1 12 02 29 00 12 80  ....m209....)...
1290: 80 B6 12 BB 31 80 F0 FF  FF 7F F0 FF FF 7F 6D 32  ....1.........m2
12A0: 31 30 01 80 BC 31 80 F0  FF FF 7F F0 FF FF 7F 6D  10...1.........m
12B0: 32 31 30 01 E1 12 02 29  00 13 80 80 E1 12 BB 31  210....).......1
12C0: 80 F0 FF FF 7F F0 FF FF  7F 6D 32 31 31 01 80 BC  .........m211...
12D0: 31 80 F0 FF FF 7F F0 FF  FF 7F 6D 32 31 31 01 E1  1.........m211..
12E0: 12 01 74 1A 02 1E 00 03  80 80 C8 14 02 29 00 0B  ..t..........)..
12F0: 80 80 17 13 BB 31 80 F0  FF FF 7F F0 FF FF 7F 6D  .....1.........m
1300: 33 30 31 01 80 BC 31 80  F0 FF FF 7F F0 FF FF 7F  301...1.........
1310: 6D 33 30 31 01 C5 14 02  29 00 05 80 80 42 13 BB  m301....)....B..
1320: 31 80 F0 FF FF 7F F0 FF  FF 7F 6D 33 30 32 01 80  1.........m302..
1330: BC 31 80 F0 FF FF 7F F0  FF FF 7F 6D 33 30 32 01  .1.........m302.
1340: C5 14 02 29 00 03 80 80  6D 13 BB 31 80 F0 FF FF  ...)....m..1....
1350: 7F F0 FF FF 7F 6D 33 30  33 01 80 BC 31 80 F0 FF  .....m303...1...
1360: FF 7F F0 FF FF 7F 6D 33  30 33 01 C5 14 02 29 00  ......m303....).
1370: 0D 80 80 98 13 BB 31 80  F0 FF FF 7F F0 FF FF 7F  ......1.........
1380: 6D 33 30 34 01 80 BC 31  80 F0 FF FF 7F F0 FF FF  m304...1........
1390: 7F 6D 33 30 34 01 C5 14  02 29 00 00 80 80 C3 13  .m304....)......
13A0: BB 31 80 F0 FF FF 7F F0  FF FF 7F 6D 33 30 35 01  .1.........m305.
13B0: 80 BC 31 80 F0 FF FF 7F  F0 FF FF 7F 6D 33 30 35  ..1.........m305
13C0: 01 C5 14 02 29 00 0E 80  80 EE 13 BB 31 80 F0 FF  ....).......1...
13D0: FF 7F F0 FF FF 7F 6D 33  30 36 01 80 BC 31 80 F0  ......m306...1..
13E0: FF FF 7F F0 FF FF 7F 6D  33 30 36 01 C5 14 02 29  .......m306....)
13F0: 00 0F 80 80 19 14 BB 31  80 F0 FF FF 7F F0 FF FF  .......1........
1400: 7F 6D 33 30 37 01 80 BC  31 80 F0 FF FF 7F F0 FF  .m307...1.......
1410: FF 7F 6D 33 30 37 01 C5  14 02 29 00 10 80 80 44  ..m307....)....D
1420: 14 BB 31 80 F0 FF FF 7F  F0 FF FF 7F 6D 33 30 38  ..1.........m308
1430: 01 80 BC 31 80 F0 FF FF  7F F0 FF FF 7F 6D 33 30  ...1.........m30
1440: 38 01 C5 14 02 29 00 11  80 80 6F 14 BB 31 80 F0  8....)....o..1..
1450: FF FF 7F F0 FF FF 7F 6D  33 30 39 01 80 BC 31 80  .......m309...1.
1460: F0 FF FF 7F F0 FF FF 7F  6D 33 30 39 01 C5 14 02  ........m309....
1470: 29 00 12 80 80 9A 14 BB  31 80 F0 FF FF 7F F0 FF  ).......1.......
1480: FF 7F 6D 33 31 30 01 80  BC 31 80 F0 FF FF 7F F0  ..m310...1......
1490: FF FF 7F 6D 33 31 30 01  C5 14 02 29 00 13 80 80  ...m310....)....
14A0: C5 14 BB 31 80 F0 FF FF  7F F0 FF FF 7F 6D 33 31  ...1.........m31
14B0: 31 01 80 BC 31 80 F0 FF  FF 7F F0 FF FF 7F 6D 33  1...1.........m3
14C0: 31 31 01 C5 14 01 74 1A  02 1E 00 0D 80 80 AC 16  11....t.........
14D0: 02 29 00 0B 80 80 FB 14  BB 31 80 F0 FF FF 7F F0  .).......1......
14E0: FF FF 7F 6D 34 30 31 01  80 BC 31 80 F0 FF FF 7F  ...m401...1.....
14F0: F0 FF FF 7F 6D 34 30 31  01 A9 16 02 29 00 05 80  ....m401....)...
1500: 80 26 15 BB 31 80 F0 FF  FF 7F F0 FF FF 7F 6D 34  .&..1.........m4
1510: 30 32 01 80 BC 31 80 F0  FF FF 7F F0 FF FF 7F 6D  02...1.........m
1520: 34 30 32 01 A9 16 02 29  00 03 80 80 51 15 BB 31  402....)....Q..1
1530: 80 F0 FF FF 7F F0 FF FF  7F 6D 34 30 33 01 80 BC  .........m403...
1540: 31 80 F0 FF FF 7F F0 FF  FF 7F 6D 34 30 33 01 A9  1.........m403..
1550: 16 02 29 00 0D 80 80 7C  15 BB 31 80 F0 FF FF 7F  ..)....|..1.....
1560: F0 FF FF 7F 6D 34 30 34  01 80 BC 31 80 F0 FF FF  ....m404...1....
1570: 7F F0 FF FF 7F 6D 34 30  34 01 A9 16 02 29 00 00  .....m404....)..
1580: 80 80 A7 15 BB 31 80 F0  FF FF 7F F0 FF FF 7F 6D  .....1.........m
1590: 34 30 35 01 80 BC 31 80  F0 FF FF 7F F0 FF FF 7F  405...1.........
15A0: 6D 34 30 35 01 A9 16 02  29 00 0E 80 80 D2 15 BB  m405....).......
15B0: 31 80 F0 FF FF 7F F0 FF  FF 7F 6D 34 30 36 01 80  1.........m406..
15C0: BC 31 80 F0 FF FF 7F F0  FF FF 7F 6D 34 30 36 01  .1.........m406.
15D0: A9 16 02 29 00 0F 80 80  FD 15 BB 31 80 F0 FF FF  ...).......1....
15E0: 7F F0 FF FF 7F 6D 34 30  37 01 80 BC 31 80 F0 FF  .....m407...1...
15F0: FF 7F F0 FF FF 7F 6D 34  30 37 01 A9 16 02 29 00  ......m407....).
1600: 10 80 80 28 16 BB 31 80  F0 FF FF 7F F0 FF FF 7F  ...(..1.........
1610: 6D 34 30 38 01 80 BC 31  80 F0 FF FF 7F F0 FF FF  m408...1........
1620: 7F 6D 34 30 38 01 A9 16  02 29 00 11 80 80 53 16  .m408....)....S.
1630: BB 31 80 F0 FF FF 7F F0  FF FF 7F 6D 34 30 39 01  .1.........m409.
1640: 80 BC 31 80 F0 FF FF 7F  F0 FF FF 7F 6D 34 30 39  ..1.........m409
1650: 01 A9 16 02 29 00 12 80  80 7E 16 BB 31 80 F0 FF  ....)....~..1...
1660: FF 7F F0 FF FF 7F 6D 34  31 30 01 80 BC 31 80 F0  ......m410...1..
1670: FF FF 7F F0 FF FF 7F 6D  34 31 30 01 A9 16 02 29  .......m410....)
1680: 00 13 80 80 A9 16 BB 31  80 F0 FF FF 7F F0 FF FF  .......1........
1690: 7F 6D 34 31 31 01 80 BC  31 80 F0 FF FF 7F F0 FF  .m411...1.......
16A0: FF 7F 6D 34 31 31 01 A9  16 01 74 1A 02 1E 00 00  ..m411....t.....
16B0: 80 80 90 18 02 29 00 0B  80 80 DF 16 BB 31 80 F0  .....).......1..
16C0: FF FF 7F F0 FF FF 7F 6D  35 30 31 01 80 BC 31 80  .......m501...1.
16D0: F0 FF FF 7F F0 FF FF 7F  6D 35 30 31 01 8D 18 02  ........m501....
16E0: 29 00 05 80 80 0A 17 BB  31 80 F0 FF FF 7F F0 FF  ).......1.......
16F0: FF 7F 6D 35 30 32 01 80  BC 31 80 F0 FF FF 7F F0  ..m502...1......
1700: FF FF 7F 6D 35 30 32 01  8D 18 02 29 00 03 80 80  ...m502....)....
1710: 35 17 BB 31 80 F0 FF FF  7F F0 FF FF 7F 6D 35 30  5..1.........m50
1720: 33 01 80 BC 31 80 F0 FF  FF 7F F0 FF FF 7F 6D 35  3...1.........m5
1730: 30 33 01 8D 18 02 29 00  0D 80 80 60 17 BB 31 80  03....)....`..1.
1740: F0 FF FF 7F F0 FF FF 7F  6D 35 30 34 01 80 BC 31  ........m504...1
1750: 80 F0 FF FF 7F F0 FF FF  7F 6D 35 30 34 01 8D 18  .........m504...
1760: 02 29 00 00 80 80 8B 17  BB 31 80 F0 FF FF 7F F0  .).......1......
1770: FF FF 7F 6D 35 30 35 01  80 BC 31 80 F0 FF FF 7F  ...m505...1.....
1780: F0 FF FF 7F 6D 35 30 35  01 8D 18 02 29 00 0E 80  ....m505....)...
1790: 80 B6 17 BB 31 80 F0 FF  FF 7F F0 FF FF 7F 6D 35  ....1.........m5
17A0: 30 36 01 80 BC 31 80 F0  FF FF 7F F0 FF FF 7F 6D  06...1.........m
17B0: 35 30 36 01 8D 18 02 29  00 0F 80 80 E1 17 BB 31  506....).......1
17C0: 80 F0 FF FF 7F F0 FF FF  7F 6D 35 30 37 01 80 BC  .........m507...
17D0: 31 80 F0 FF FF 7F F0 FF  FF 7F 6D 35 30 37 01 8D  1.........m507..
17E0: 18 02 29 00 10 80 80 0C  18 BB 31 80 F0 FF FF 7F  ..).......1.....
17F0: F0 FF FF 7F 6D 35 30 38  01 80 BC 31 80 F0 FF FF  ....m508...1....
1800: 7F F0 FF FF 7F 6D 35 30  38 01 8D 18 02 29 00 11  .....m508....)..
1810: 80 80 37 18 BB 31 80 F0  FF FF 7F F0 FF FF 7F 6D  ..7..1.........m
1820: 35 30 39 01 80 BC 31 80  F0 FF FF 7F F0 FF FF 7F  509...1.........
1830: 6D 35 30 39 01 8D 18 02  29 00 12 80 80 62 18 BB  m509....)....b..
1840: 31 80 F0 FF FF 7F F0 FF  FF 7F 6D 35 31 30 01 80  1.........m510..
1850: BC 31 80 F0 FF FF 7F F0  FF FF 7F 6D 35 31 30 01  .1.........m510.
1860: 8D 18 02 29 00 13 80 80  8D 18 BB 31 80 F0 FF FF  ...).......1....
1870: 7F F0 FF FF 7F 6D 35 31  31 01 80 BC 31 80 F0 FF  .....m511...1...
1880: FF 7F F0 FF FF 7F 6D 35  31 31 01 8D 18 01 74 1A  ......m511....t.
1890: 02 1E 00 0E 80 80 74 1A  02 29 00 0B 80 80 C3 18  ......t..)......
18A0: BB 31 80 F0 FF FF 7F F0  FF FF 7F 6D 36 30 31 01  .1.........m601.
18B0: 80 BC 31 80 F0 FF FF 7F  F0 FF FF 7F 6D 36 30 31  ..1.........m601
18C0: 01 71 1A 02 29 00 05 80  80 EE 18 BB 31 80 F0 FF  .q..).......1...
18D0: FF 7F F0 FF FF 7F 6D 36  30 32 01 80 BC 31 80 F0  ......m602...1..
18E0: FF FF 7F F0 FF FF 7F 6D  36 30 32 01 71 1A 02 29  .......m602.q..)
18F0: 00 03 80 80 19 19 BB 31  80 F0 FF FF 7F F0 FF FF  .......1........
1900: 7F 6D 36 30 33 01 80 BC  31 80 F0 FF FF 7F F0 FF  .m603...1.......
1910: FF 7F 6D 36 30 33 01 71  1A 02 29 00 0D 80 80 44  ..m603.q..)....D
1920: 19 BB 31 80 F0 FF FF 7F  F0 FF FF 7F 6D 36 30 34  ..1.........m604
1930: 01 80 BC 31 80 F0 FF FF  7F F0 FF FF 7F 6D 36 30  ...1.........m60
1940: 34 01 71 1A 02 29 00 00  80 80 6F 19 BB 31 80 F0  4.q..)....o..1..
1950: FF FF 7F F0 FF FF 7F 6D  36 30 35 01 80 BC 31 80  .......m605...1.
1960: F0 FF FF 7F F0 FF FF 7F  6D 36 30 35 01 71 1A 02  ........m605.q..
1970: 29 00 0E 80 80 9A 19 BB  31 80 F0 FF FF 7F F0 FF  ).......1.......
1980: FF 7F 6D 36 30 36 01 80  BC 31 80 F0 FF FF 7F F0  ..m606...1......
1990: FF FF 7F 6D 36 30 36 01  71 1A 02 29 00 0F 80 80  ...m606.q..)....
19A0: C5 19 BB 31 80 F0 FF FF  7F F0 FF FF 7F 6D 36 30  ...1.........m60
19B0: 37 01 80 BC 31 80 F0 FF  FF 7F F0 FF FF 7F 6D 36  7...1.........m6
19C0: 30 37 01 71 1A 02 29 00  10 80 80 F0 19 BB 31 80  07.q..).......1.
19D0: F0 FF FF 7F F0 FF FF 7F  6D 36 30 38 01 80 BC 31  ........m608...1
19E0: 80 F0 FF FF 7F F0 FF FF  7F 6D 36 30 38 01 71 1A  .........m608.q.
19F0: 02 29 00 11 80 80 1B 1A  BB 31 80 F0 FF FF 7F F0  .).......1......
1A00: FF FF 7F 6D 36 30 39 01  80 BC 31 80 F0 FF FF 7F  ...m609...1.....
1A10: F0 FF FF 7F 6D 36 30 39  01 71 1A 02 29 00 12 80  ....m609.q..)...
1A20: 80 46 1A BB 31 80 F0 FF  FF 7F F0 FF FF 7F 6D 36  .F..1.........m6
1A30: 31 30 01 80 BC 31 80 F0  FF FF 7F F0 FF FF 7F 6D  10...1.........m
1A40: 36 31 30 01 71 1A 02 29  00 13 80 80 71 1A BB 31  610.q..)....q..1
1A50: 80 F0 FF FF 7F F0 FF FF  7F 6D 36 31 31 01 80 BC  .........m611...
1A60: 31 80 F0 FF FF 7F F0 FF  FF 7F 6D 36 31 31 01 71  1.........m611.q
1A70: 1A 01 74 1A 03 03 10 2D  00 03 04 10 1E 00 03 05  ..t....-........
1A80: 10 29 00 48 43 80 23 06  1D 00 03 1D 00 2D 00 0C  .).HC.#......-..
1A90: 1D 00 07 1D 00 13 80 9D  05 BE 47 1E 00 1D 00 06  ..........G.....
1AA0: 04 00 02 04 00 01 80 00  5F 1F 06 24 00 02 25 00  ........_..$..%.
1AB0: 01 80 02 BC 1A 3C 24 00  05 80 0B 80 02 2D 00 13  .....<$......-..
1AC0: 80 04 CB 1A 3C 24 00 01  80 0B 80 24 44 80 01 80  ....<$.....$D...
1AD0: 24 00 25 02 00 10 01 80  00 F4 1A 03 02 10 01 80  $.%.............
1AE0: 03 04 10 01 80 48 41 80  23 03 2B 00 01 80 05 04  .....HA.#.+.....
1AF0: 00 01 5C 1F 02 00 10 0B  80 00 15 1B 03 02 10 01  ..\.............
1B00: 80 03 04 10 0B 80 48 41  80 23 03 2B 00 0B 80 05  ......HA.#.+....
1B10: 04 00 01 5C 1F 02 00 10  05 80 00 28 1F 06 07 00  ...\.......(....
1B20: 02 07 00 01 80 00 25 1F  24 45 80 01 80 01 80 25  ......%.$E.....%
1B30: 02 00 10 01 80 00 3E 1B  05 07 00 01 22 1F 02 00  ......>....."...
1B40: 10 0B 80 00 06 1C 03 02  10 01 80 03 03 10 01 80  ................
1B50: 48 46 80 23 06 1D 00 06  1E 00 06 24 00 02 1D 00  HF.#.......$....
1B60: 13 80 03 A8 1B 9D 05 BE  47 01 80 1D 00 02 1D 00  ........G.......
1B70: 2C 00 04 7C 1B 3C 24 00  1D 00 0B 80 03 1E 00 1D  ,..|.<$.........
1B80: 00 07 1E 00 13 80 07 1E  00 13 80 9D 00 BE 47 21  ..............G!
1B90: 00 1E 00 02 21 00 01 80  00 A2 1B 3C 24 00 1D 00  ....!......<$...
1BA0: 0B 80 0B 1D 00 01 5D 1B  10 24 00 0B 80 06 19 00  ......]..$......
1BB0: 03 02 10 01 80 24 47 80  01 80 24 00 25 02 00 10  .....$G...$.%...
1BC0: 01 80 00 C8 1B 01 C8 1B  03 19 00 00 10 02 19 00  ................
1BD0: 01 80 02 03 1C 03 1E 00  19 00 0C 1E 00 07 1E 00  ................
1BE0: 13 80 07 1E 00 13 80 9D  00 BE 47 21 00 1E 00 03  ..........G!....
1BF0: 03 10 19 00 03 04 10 21  00 48 48 80 23 05 25 00  .......!.HH.#.%.
1C00: 05 07 00 01 22 1F 02 00  10 05 80 00 C5 1D 03 02  ...."...........
1C10: 10 0B 80 03 03 10 0B 80  48 46 80 23 06 1D 00 06  ........HF.#....
1C20: 24 00 06 21 00 06 24 00  02 1D 00 13 80 03 5F 1C  $..!..$......._.
1C30: 03 1E 00 1D 00 07 1E 00  13 80 9D 00 BE 47 21 00  .............G!.
1C40: 1E 00 9D 05 BE 47 21 00  1D 00 02 1D 00 2D 00 04  .....G!......-..
1C50: 59 1C 3C 24 00 1D 00 0B  80 0B 1D 00 01 28 1C 10  Y.<$.........(..
1C60: 24 00 0B 80 03 02 10 0B  80 24 47 80 01 80 24 00  $........$G...$.
1C70: 25 02 00 10 01 80 00 7C  1C 01 7C 1C 03 22 00 00  %......|..|.."..
1C80: 10 02 22 00 01 80 02 C2  1D 0C 22 00 03 02 10 0B  ..".......".....
1C90: 80 03 03 10 01 80 48 46  80 23 06 1D 00 06 1E 00  ......HF.#......
1CA0: 06 24 00 02 1D 00 13 80  03 EE 1C 9D 05 BE 47 01  .$............G.
1CB0: 80 1D 00 02 1D 00 2C 00  04 C2 1C 3C 24 00 1D 00  ......,....<$...
1CC0: 0B 80 03 1E 00 1D 00 07  1E 00 13 80 07 1E 00 13  ................
1CD0: 80 9D 00 BE 47 21 00 1E  00 02 21 00 01 80 00 E8  ....G!....!.....
1CE0: 1C 3C 24 00 1D 00 0B 80  0B 1D 00 01 A3 1C 10 24  .<$............$
1CF0: 00 0B 80 03 02 10 0B 80  24 47 80 01 80 24 00 25  ........$G...$.%
1D00: 02 00 10 01 80 00 0B 1D  01 0B 1D 03 23 00 00 10  ............#...
1D10: 02 23 00 01 80 02 C2 1D  0C 23 00 03 19 00 23 00  .#.......#....#.
1D20: 07 19 00 13 80 07 19 00  13 80 9D 00 BE 47 1B 00  .............G..
1D30: 19 00 03 19 00 22 00 07  19 00 13 80 9D 00 BE 47  .....".........G
1D40: 1A 00 19 00 9D 05 BE 47  1B 00 19 00 03 19 00 23  .......G.......#
1D50: 00 07 19 00 13 80 07 19  00 13 80 9D 05 BE 47 1A  ..............G.
1D60: 00 19 00 06 1E 00 06 05  10 06 29 00 06 28 00 06  ..........)..(..
1D70: 1D 00 02 1D 00 13 80 03  A9 1D 03 1E 00 1D 00 07  ................
1D80: 1E 00 13 80 9D 00 BE 47  21 00 1E 00 07 29 00 21  .......G!....).!
1D90: 00 07 1E 00 13 80 9D 00  BE 47 21 00 1E 00 07 28  .........G!....(
1DA0: 00 21 00 0B 1D 00 01 72  1D 03 03 10 1A 00 03 04  .!.....r........
1DB0: 10 1B 00 03 05 10 29 00  48 49 80 23 05 25 00 05  ......).HI.#.%..
1DC0: 07 00 01 22 1F 02 00 10  03 80 00 22 1F 03 02 10  ..."......."....
1DD0: 05 80 03 03 10 01 80 48  46 80 23 06 1D 00 06 1E  .......HF.#.....
1DE0: 00 06 24 00 02 1D 00 13  80 03 59 1E 02 47 00 01  ..$.......Y..G..
1DF0: 80 02 16 1E 03 1E 00 1D  00 07 1E 00 13 80 07 1E  ................
1E00: 00 13 80 9D 00 BE 47 21  00 1E 00 9D 05 BE 47 21  ......G!......G!
1E10: 00 1D 00 01 1E 1E 9D 05  BE 47 01 80 1D 00 02 1D  .........G......
1E20: 00 2C 00 04 2D 1E 3C 24  00 1D 00 0B 80 03 1E 00  .,..-.<$........
1E30: 1D 00 07 1E 00 13 80 07  1E 00 13 80 9D 00 BE 47  ...............G
1E40: 21 00 1E 00 02 21 00 01  80 00 53 1E 3C 24 00 1D  !....!....S.<$..
1E50: 00 0B 80 0B 1D 00 01 E4  1D 10 24 00 0B 80 03 02  ..........$.....
1E60: 10 05 80 24 47 80 01 80  24 00 25 02 00 10 01 80  ...$G...$.%.....
1E70: 00 76 1E 01 76 1E 03 19  00 00 10 02 19 00 01 80  .v..v...........
1E80: 02 1F 1F 03 1D 00 19 00  0C 1D 00 07 1D 00 13 80  ................
1E90: 07 1D 00 13 80 9D 00 BE  47 21 00 1D 00 02 47 00  ........G!....G.
1EA0: 01 80 02 B7 1E 03 02 10  28 00 48 4A 80 23 03 02  ........(.HJ.#..
1EB0: 10 21 00 48 4A 80 23 13  1E 00 00 80 0B 1E 00 9D  .!.HJ.#.........
1EC0: 05 BE 47 1E 00 1D 00 06  1F 00 06 28 00 06 1D 00  ..G........(....
1ED0: 02 1D 00 13 80 03 FA 1E  03 1F 00 1D 00 07 1F 00  ................
1EE0: 13 80 07 1F 00 13 80 9D  00 BE 47 21 00 1F 00 07  ..........G!....
1EF0: 28 00 21 00 0B 1D 00 01  D0 1E 03 03 10 19 00 03  (.!.............
1F00: 04 10 1E 00 48 4B 80 23  05 25 00 05 07 00 02 47  ....HK.#.%.....G
1F10: 00 01 80 02 1F 1F 03 02  10 28 00 48 4A 80 23 01  .........(.HJ.#.
1F20: 22 1F 01 20 1B 01 5C 1F  02 00 10 03 80 00 5C 1F  ".. ..\.......\.
1F30: 24 2F 80 01 80 01 80 25  02 00 10 01 80 00 43 1F  $/.....%......C.
1F40: 01 59 1F 02 00 10 0B 80  00 59 1F 03 2B 00 05 80  .Y.......Y..+...
1F50: 06 12 00 05 04 00 01 59  1F 01 5C 1F 01 A2 1A 1B  .......Y..\.....
1F60: 0B 2C 00 02 2A 00 0B 80  00 88 1F 03 02 10 0B 80  .,..*...........
1F70: 03 03 10 2C 00 03 04 10  0B 80 48 40 80 23 48 41  ...,......H@.#HA
1F80: 80 23 03 2A 00 0B 80 1B  06 2A 00 06 1F 00 9D 00  .#.*.....*......
1F90: 5E 49 1F 00 15 00 13 1E  00 15 80 02 1E 00 1F 00  ^I..............
1FA0: 03 B6 1F 06 1E 00 13 1E  00 00 80 0B 1E 00 07 28  ...............(
1FB0: 00 1E 00 01 01 20 02 28  00 00 80 05 D1 1F 06 1E  ..... .(........
1FC0: 00 13 1E 00 00 80 0B 1E  00 07 28 00 1E 00 01 01  ..........(.....
1FD0: 20 06 1F 00 06 1E 00 03  1F 00 13 80 02 28 00 13   ............(..
1FE0: 80 04 EF 1F 08 1F 00 28  00 0C 1F 00 01 F4 1F 03  .......(........
1FF0: 1F 00 00 80 13 1E 00 1F  00 0B 1E 00 07 28 00 1E  .............(..
2000: 00 06 1D 00 03 1D 00 2C  00 0C 1D 00 07 1D 00 13  .......,........
2010: 80 07 1D 00 13 80 9D 05  BE 47 1E 00 1D 00 9D 00  .........G......
2020: 6E 49 1F 00 15 00 02 47  00 01 80 02 40 20 03 02  nI.....G....@ ..
2030: 10 28 00 48 4A 80 23 03  02 10 1F 00 48 4A 80 23  .(.HJ.#.....HJ.#
2040: 02 28 00 1F 00 02 67 20  03 02 10 0B 80 03 03 10  .(....g ........
2050: 2C 00 03 04 10 0B 80 48  40 80 23 48 41 80 23 03  ,......H@.#HA.#.
2060: 2A 00 0B 80 01 83 20 03  02 10 0B 80 03 03 10 2C  *..... ........,
2070: 00 03 04 10 01 80 48 40  80 23 48 41 80 23 03 2A  ......H@.#HA.#.*
2080: 00 01 80 1B 45 2E 80 F0  FF FF 7F F0 FF FF 7F 66  ....E..........f
2090: 64 6F 31 01 80 55 2E 80  F0 FF FF 7F F0 FF FF 7F  do1..U..........
20A0: 66 64 6F 31 46 01 38 32  80 92 01 F8 FF FF 7F BA  fdo1F.82........
20B0: F0 FF FF 7F 4C 80 4D 80  39 80 4E 80 80 F0 FF FF  ....L.M.9.N.....
20C0: 7F 1E F0 FF FF 7F 45 30  80 F0 FF FF 7F F0 FF FF  ......E0........
20D0: 7F 73 30 38 35 01 80 1C  02 80 45 2E 80 F0 FF FF  .s085.....E.....
20E0: 7F F0 FF FF 7F 66 64 69  31 01 80 06 28 00 06 29  .....fdi1...(..)
20F0: 00 06 2A 00 06 2B 00 06  2C 00 06 2D 00 06 25 00  ..*..+..,..-..%.
2100: 1A A4 47 1B 03 0C 00 05  80 1A 0C 05 1B 1D 4F 80  ..G...........O.
2110: 23 1D 50 80 23 1D 51 80  23 1D 52 80 23 1B 42 03  #.P.#.Q.#.R.#.B.
2120: 0C 00 05 80 1E F0 FF FF  7F 1A 5E 47 03 0E 00 03  ..........^G....
2130: 10 03 0F 00 04 10 03 10  00 05 10 03 11 00 06 10  ................
2140: 03 1E 00 07 10 03 1D 00  08 10 03 18 00 09 10 41  ...............A
2150: 01 80 02 80 0F 00 13 00  41 01 80 03 80 0E 00 14  ........A.......
2160: 00 02 02 10 01 80 02 70  21 48 53 80 23 01 83 21  .......p!HS.#..!
2170: 03 02 10 1E 00 03 03 10  1D 00 03 04 10 18 00 48  ...............H
2180: 54 80 23 02 18 00 01 80  80 B5 21 45 2E 80 F0 FF  T.#.......!E....
2190: FF 7F F0 FF FF 7F 73 30  33 32 01 80 40 01 80 0F  ......s032..@...
21A0: 80 01 10 0F 80 40 10 80  1E 80 01 10 15 00 43 00  .....@........C.
21B0: 43 01 01 E7 21 02 18 00  0B 80 80 E7 21 45 2E 80  C...!.......!E..
21C0: F0 FF FF 7F F0 FF FF 7F  73 30 33 31 01 80 40 01  ........s031..@.
21D0: 80 0F 80 01 10 00 80 40  10 80 1E 80 01 10 15 00  .......@........
21E0: 43 00 43 01 01 E7 21 03  0B 00 07 10 03 15 00 08  C.C...!.........
21F0: 10 03 12 00 09 10 1A 60  06 1B 1D 55 80 23 40 01  .......`...U.#@.
2200: 80 0F 80 01 10 10 80 40  10 80 1E 80 01 10 15 00  .......@........
2210: 1B 1A FA 21 1B 03 0C 00  03 80 1A 0C 05 1B 1D 56  ...!...........V
2220: 80 23 1D 57 80 23 1D 58  80 23 1D 59 80 23 1D 5A  .#.W.#.X.#.Y.#.Z
2230: 80 23 1D 5B 80 23 1D 5C  80 23 1B 1A A5 2B 02 02  .#.[.#.\.#...+..
2240: 00 01 80 00 F9 22 06 46  00 06 18 00 1A 5C 23 02  .....".F.....\#.
2250: 46 00 01 80 80 5F 22 03  18 00 01 80 01 96 22 02  F...._".......".
2260: 46 00 0B 80 80 80 22 45  2E 80 F0 FF FF 7F F0 FF  F....."E........
2270: FF 7F 73 30 33 32 01 80  03 18 00 0B 80 01 96 22  ..s032........."
2280: 02 46 00 03 80 80 96 22  03 01 10 07 80 06 18 00  .F....."........
2290: 05 02 00 01 96 22 02 02  00 01 80 00 F6 22 02 18  ....."......."..
22A0: 00 01 80 00 DA 22 1A 9E  27 02 46 00 01 80 80 B9  ....."..'.F.....
22B0: 22 03 18 00 01 80 01 DA  22 02 46 00 05 80 80 DA  ".......".F.....
22C0: 22 45 2E 80 F0 FF FF 7F  F0 FF FF 7F 73 30 33 31  "E..........s031
22D0: 01 80 03 18 00 05 80 01  DA 22 02 12 00 01 80 02  ........."......
22E0: E8 22 05 17 00 01 EB 22  06 17 00 02 18 00 01 80  ."....."........
22F0: 02 F6 22 1A 60 06 01 3E  22 45 2E 80 F0 FF FF 7F  ..".`..>"E......
2300: F0 FF FF 7F 66 64 6F 31  01 80 55 2E 80 F0 FF FF  ....fdo1..U.....
2310: 7F F0 FF FF 7F 66 64 6F  31 52 30 80 F0 FF FF 7F  .....fdo1R0.....
2320: F0 FF FF 7F 73 30 38 36  27 05 CE 00 10 01 0C 92  ....s086'.......
2330: 00 F8 FF FF 7F 4E 00 F0  FF FF 7F 80 F0 FF FF 7F  .....N..........
2340: 1E F0 FF FF 7F 46 00 1C  31 80 45 2E 80 F0 FF FF  .....F..1.E.....
2350: 7F F0 FF FF 7F 66 64 69  32 01 80 1B 06 04 00 06  .....fdi2.......
2360: 24 00 02 04 00 01 80 00  9D 27 06 01 00 02 2B 00  $........'....+.
2370: 01 80 02 7A 23 03 01 00  5D 80 24 5E 80 01 80 01  ...z#...].$^....
2380: 00 25 02 00 10 01 80 00  9C 25 06 24 00 3E 2A 00  .%.......%.$.>*.
2390: 0E 80 C9 23 13 1F 00 05  80 02 1F 00 01 80 80 A9  ...#............
23A0: 23 03 24 00 5F 80 01 C9  23 02 1F 00 0B 80 80 B9  #.$._...#.......
23B0: 23 03 24 00 60 80 01 C9  23 02 1F 00 05 80 80 C9  #.$.`...#.......
23C0: 23 03 24 00 61 80 01 C9  23 3E 2A 00 00 80 05 24  #.$.a...#>*....$
23D0: 13 1F 00 05 80 02 1F 00  01 80 80 E5 23 03 24 00  ............#.$.
23E0: 62 80 01 05 24 02 1F 00  0B 80 80 F5 23 03 24 00  b...$.......#.$.
23F0: 63 80 01 05 24 02 1F 00  05 80 80 05 24 03 24 00  c...$.......$.$.
2400: 64 80 01 05 24 03 03 10  38 00 3E 2A 00 03 80 A6  d...$...8.>*....
2410: 24 13 1F 00 00 80 02 1F  00 01 80 80 36 24 02 03  $...........6$..
2420: 10 03 80 04 2E 24 08 03  10 03 80 01 33 24 03 03  .....$......3$..
2430: 10 01 80 01 A6 24 02 1F  00 0B 80 80 56 24 02 03  .....$......V$..
2440: 10 05 80 04 4E 24 08 03  10 05 80 01 53 24 03 03  ....N$......S$..
2450: 10 01 80 01 A6 24 02 1F  00 05 80 80 76 24 02 03  .....$......v$..
2460: 10 0B 80 04 6E 24 08 03  10 0B 80 01 73 24 03 03  ....n$......s$..
2470: 10 01 80 01 A6 24 02 1F  00 03 80 80 86 24 07 03  .....$.......$..
2480: 10 0B 80 01 A6 24 02 1F  00 0D 80 80 96 24 07 03  .....$.......$..
2490: 10 05 80 01 A6 24 02 1F  00 00 80 80 A6 24 07 03  .....$.......$..
24A0: 10 03 80 01 A6 24 24 65  80 01 80 24 00 25 02 00  .....$$e...$.%..
24B0: 10 01 80 00 B9 24 01 B9  24 03 19 00 00 10 0B 19  .....$..$.......
24C0: 00 3E 2A 00 05 80 D5 24  13 1F 00 05 80 0B 1F 00  .>*....$........
24D0: 07 19 00 1F 00 3E 2A 00  0B 80 F9 24 13 1F 00 05  .....>*....$....
24E0: 80 0B 1F 00 02 19 00 1F  00 05 F4 24 03 19 00 01  ...........$....
24F0: 80 01 F9 24 08 19 00 1F  00 3E 2B 00 10 80 17 25  ...$.....>+....%
2500: 06 2B 00 3C 2B 00 0A 80  0B 80 13 1F 00 05 80 0B  .+.<+...........
2510: 1F 00 07 19 00 1F 00 3E  2B 00 0F 80 45 25 06 2B  .......>+...E%.+
2520: 00 3C 2B 00 0A 80 0B 80  13 1F 00 05 80 0B 1F 00  .<+.............
2530: 02 19 00 1F 00 05 40 25  03 19 00 01 80 01 45 25  ......@%......E%
2540: 08 19 00 1F 00 07 38 00  19 00 02 38 00 27 00 02  ......8....8.'..
2550: 83 25 03 46 00 0B 80 03  02 10 01 80 03 03 10 0B  .%.F............
2560: 80 48 66 80 23 40 01 80  0F 80 01 10 0F 80 40 10  .Hf.#@........@.
2570: 80 1E 80 01 10 01 80 43  00 43 01 03 12 00 09 10  .......C.C......
2580: 01 96 25 03 46 00 01 80  03 02 10 01 80 03 03 10  ..%.F...........
2590: 38 00 48 67 80 23 05 04  00 01 9A 27 02 00 10 0B  8.Hg.#.....'....
25A0: 80 00 5D 26 24 68 80 01  80 01 80 25 02 00 10 01  ..]&$h.....%....
25B0: 80 00 B7 25 01 B7 25 03  19 00 00 10 02 19 00 01  ...%..%.........
25C0: 80 02 5A 26 02 19 00 0B  80 80 D6 25 3C 2B 00 05  ..Z&.......%<+..
25D0: 80 0B 80 01 51 26 02 19  00 05 80 80 E8 25 3C 2B  ....Q&.......%<+
25E0: 00 0B 80 0B 80 01 51 26  02 19 00 03 80 80 FA 25  ......Q&.......%
25F0: 3C 2B 00 03 80 0B 80 01  51 26 02 19 00 0D 80 80  <+......Q&......
2600: 2D 26 06 23 00 41 0B 80  0E 80 2A 00 23 00 02 23  -&.#.A....*.#..#
2610: 00 01 80 02 20 26 06 2A  00 3C 2A 00 0A 80 0B 80  .... &.*.<*.....
2620: 06 2B 00 3C 2B 00 0A 80  0B 80 01 51 26 02 19 00  .+.<+......Q&...
2630: 00 80 80 3F 26 3C 2B 00  00 80 0B 80 01 51 26 02  ...?&<+......Q&.
2640: 19 00 0E 80 80 51 26 3C  2B 00 0E 80 0B 80 01 51  .....Q&<+......Q
2650: 26 03 02 10 01 80 48 69  80 23 01 9A 27 02 00 10  &.....Hi.#..'...
2660: 05 80 00 50 27 24 6A 80  01 80 01 80 25 02 00 10  ...P'$j.....%...
2670: 01 80 00 78 26 01 78 26  03 19 00 00 10 02 19 00  ...x&.x&........
2680: 01 80 02 4D 27 02 19 00  0B 80 80 9F 26 06 2B 00  ...M'.......&.+.
2690: 3C 2B 00 10 80 0B 80 03  02 10 0B 80 01 49 27 02  <+...........I'.
26A0: 19 00 05 80 80 B9 26 06  2B 00 3C 2B 00 0F 80 0B  ......&.+.<+....
26B0: 80 03 02 10 0B 80 01 49  27 02 19 00 03 80 80 EE  .......I'.......
26C0: 26 41 0F 80 13 80 2A 00  23 00 02 2A 00 01 80 02  &A....*.#..*....
26D0: DC 26 06 2A 00 3C 2A 00  0A 80 0B 80 06 2B 00 3C  .&.*.<*......+.<
26E0: 2B 00 0A 80 0B 80 03 02  10 05 80 01 49 27 02 19  +...........I'..
26F0: 00 0D 80 80 15 27 06 2B  00 3C 2B 00 0A 80 0B 80  .....'.+.<+.....
2700: 13 1F 00 05 80 0B 1F 00  07 27 00 1F 00 03 02 10  .........'......
2710: 0B 80 01 49 27 02 19 00  00 80 80 49 27 06 2B 00  ...I'......I'.+.
2720: 3C 2B 00 0A 80 0B 80 13  1F 00 05 80 0B 1F 00 08  <+..............
2730: 27 00 1F 00 02 27 00 6B  80 05 41 27 03 27 00 6B  '....'.k..A'.'.k
2740: 80 03 02 10 0B 80 01 49  27 48 69 80 23 01 9A 27  .......I'Hi.#..'
2750: 02 00 10 03 80 00 9A 27  24 2F 80 01 80 01 80 25  .......'$/.....%
2760: 02 00 10 01 80 00 6B 27  01 97 27 02 00 10 0B 80  ......k'..'.....
2770: 00 97 27 40 01 80 0F 80  01 10 02 80 40 10 80 1E  ..'@........@...
2780: 80 01 10 01 80 43 00 43  01 03 46 00 03 80 06 12  .....C.C..F.....
2790: 00 05 04 00 01 97 27 01  9A 27 01 62 23 1B 06 04  ......'..'.b#...
27A0: 00 03 1E 00 28 00 3E 2B  00 03 80 12 28 13 1F 00  ....(.>+....(...
27B0: 00 80 02 1F 00 01 80 80  C2 27 08 1E 00 03 80 01  .........'......
27C0: 12 28 02 1F 00 0B 80 80  D2 27 08 1E 00 05 80 01  .(.......'......
27D0: 12 28 02 1F 00 05 80 80  E2 27 08 1E 00 0B 80 01  .(.......'......
27E0: 12 28 02 1F 00 03 80 80  F2 27 07 1E 00 0B 80 01  .(.......'......
27F0: 12 28 02 1F 00 0D 80 80  02 28 07 1E 00 05 80 01  .(.......(......
2800: 12 28 02 1F 00 00 80 80  12 28 07 1E 00 03 80 01  .(.......(......
2810: 12 28 0B 1E 00 02 2A 00  01 80 00 60 2A 03 1D 00  .(....*....`*...
2820: 1E 00 14 1D 00 05 80 15  1D 00 03 80 02 1D 00 38  ...............8
2830: 00 03 60 2A 06 1F 00 9D  00 BE 4A 1C 00 15 00 02  ..`*......J.....
2840: 1C 00 01 80 80 0D 29 13  1F 00 0D 80 07 1F 00 0F  ......).........
2850: 80 02 1F 00 0F 80 80 63  28 3C 2A 00 0F 80 0B 80  .......c(<*.....
2860: 01 0A 29 02 1F 00 10 80  80 75 28 3C 2A 00 10 80  ..)......u(<*...
2870: 0B 80 01 0A 29 02 1F 00  11 80 80 92 28 02 2B 00  ....).......(.+.
2880: 01 80 02 8F 28 06 2B 00  3C 2B 00 0A 80 0B 80 01  ....(.+.<+......
2890: 0A 29 02 1F 00 12 80 80  C1 28 06 2A 00 3C 2A 00  .).......(.*.<*.
28A0: 0A 80 0B 80 13 1F 00 05  80 0B 1F 00 07 27 00 1F  .............'..
28B0: 00 13 1F 00 05 80 0B 1F  00 07 28 00 1F 00 01 0A  ..........(.....
28C0: 29 02 1F 00 13 80 80 0A  29 06 2A 00 3C 2A 00 0A  ).......).*.<*..
28D0: 80 0B 80 13 1F 00 05 80  0B 1F 00 08 27 00 1F 00  ............'...
28E0: 02 27 00 6B 80 05 ED 28  03 27 00 6B 80 13 1F 00  .'.k...(.'.k....
28F0: 05 80 0B 1F 00 08 28 00  1F 00 02 28 00 6B 80 05  ......(....(.k..
2900: 07 29 03 28 00 6B 80 01  0A 29 01 60 2A 02 1C 00  .).(.k...).`*...
2910: 0B 80 80 60 2A 13 1F 00  12 80 0B 1F 00 02 1F 00  ...`*...........
2920: 0B 80 80 2F 29 3C 2A 00  0B 80 0B 80 01 5D 2A 02  .../)<*......]*.
2930: 1F 00 05 80 80 41 29 3C  2A 00 05 80 0B 80 01 5D  .....A)<*......]
2940: 2A 02 1F 00 03 80 80 53  29 3C 2A 00 03 80 0B 80  *......S)<*.....
2950: 01 5D 2A 02 1F 00 0D 80  80 7C 29 06 22 00 41 0F  .]*......|).".A.
2960: 80 13 80 2B 00 22 00 02  22 00 01 80 02 79 29 06  ...+.".."....y).
2970: 2B 00 3C 2B 00 0A 80 0B  80 01 5D 2A 02 1F 00 00  +.<+......]*....
2980: 80 80 8E 29 3C 2A 00 00  80 0B 80 01 5D 2A 02 1F  ...)<*......]*..
2990: 00 0E 80 80 A0 29 3C 2A  00 0E 80 0B 80 01 5D 2A  .....)<*......]*
29A0: 02 1F 00 10 80 80 B2 29  3C 2A 00 10 80 0B 80 01  .......)<*......
29B0: 5D 2A 02 1F 00 11 80 80  E5 29 06 22 00 41 0B 80  ]*.......).".A..
29C0: 0E 80 2B 00 22 00 02 22  00 01 80 02 D8 29 06 2B  ..+."..".....).+
29D0: 00 3C 2B 00 0A 80 0B 80  06 2A 00 3C 2A 00 0A 80  .<+......*.<*...
29E0: 0B 80 01 5D 2A 02 1F 00  12 80 80 14 2A 06 2A 00  ...]*.......*.*.
29F0: 3C 2A 00 0A 80 0B 80 13  1F 00 05 80 0B 1F 00 07  <*..............
2A00: 27 00 1F 00 13 1F 00 05  80 0B 1F 00 07 28 00 1F  '............(..
2A10: 00 01 5D 2A 02 1F 00 13  80 80 5D 2A 06 2A 00 3C  ..]*......]*.*.<
2A20: 2A 00 0A 80 0B 80 13 1F  00 05 80 0B 1F 00 08 27  *..............'
2A30: 00 1F 00 02 27 00 6B 80  05 40 2A 03 27 00 6B 80  ....'.k..@*.'.k.
2A40: 13 1F 00 05 80 0B 1F 00  08 28 00 1F 00 02 28 00  .........(....(.
2A50: 6B 80 05 5A 2A 03 28 00  6B 80 01 5D 2A 01 60 2A  k..Z*.(.k..]*.`*
2A60: 03 1A 00 0D 80 02 1E 00  38 00 05 75 2A 03 1A 00  ........8..u*...
2A70: 01 80 01 8F 2A 03 1A 00  1E 00 08 1A 00 38 00 02  ....*........8..
2A80: 1A 00 00 80 04 8C 2A 03  1A 00 00 80 0C 1A 00 13  ......*.........
2A90: 1F 00 1A 00 0B 1F 00 3E  2B 00 0E 80 A6 2A 13 1F  .......>+....*..
2AA0: 00 05 80 0B 1F 00 3E 2B  00 00 80 B7 2A 13 1F 00  ......>+....*...
2AB0: 05 80 07 1F 00 03 80 07  38 00 1F 00 02 38 00 27  ........8....8.'
2AC0: 00 02 F5 2A 03 46 00 05  80 03 02 10 0B 80 03 03  ...*.F..........
2AD0: 10 01 80 48 66 80 23 40  01 80 0F 80 01 10 00 80  ...Hf.#@........
2AE0: 40 10 80 1E 80 01 10 01  80 43 00 43 01 03 12 00  @........C.C....
2AF0: 09 10 01 A4 2B 03 46 00  01 80 03 02 10 0B 80 03  ....+.F.........
2B00: 03 10 38 00 3E 2A 00 03  80 A0 2B 13 1F 00 00 80  ..8.>*....+.....
2B10: 02 1F 00 01 80 80 30 2B  02 03 10 03 80 04 28 2B  ......0+......(+
2B20: 08 03 10 03 80 01 2D 2B  03 03 10 01 80 01 A0 2B  ......-+.......+
2B30: 02 1F 00 0B 80 80 50 2B  02 03 10 05 80 04 48 2B  ......P+......H+
2B40: 08 03 10 05 80 01 4D 2B  03 03 10 01 80 01 A0 2B  ......M+.......+
2B50: 02 1F 00 05 80 80 70 2B  02 03 10 0B 80 04 68 2B  ......p+......h+
2B60: 08 03 10 0B 80 01 6D 2B  03 03 10 01 80 01 A0 2B  ......m+.......+
2B70: 02 1F 00 03 80 80 80 2B  07 03 10 0B 80 01 A0 2B  .......+.......+
2B80: 02 1F 00 0D 80 80 90 2B  07 03 10 05 80 01 A0 2B  .......+.......+
2B90: 02 1F 00 00 80 80 A0 2B  07 03 10 03 80 01 A0 2B  .......+.......+
2BA0: 48 67 80 23 1B 45 2E 80  F0 FF FF 7F F0 FF FF 7F  Hg.#.E..........
2BB0: 66 64 6F 31 01 80 55 2E  80 F0 FF FF 7F F0 FF FF  fdo1..U.........
2BC0: 7F 66 64 6F 31 46 01 38  32 80 4E 01 F0 FF FF 7F  .fdo1F.82.N.....
2BD0: 7B F8 FF FF 7F 2F 00 CE  00 10 01 4E 00 CE 00 10  {..../.....N....
2BE0: 01 92 01 F8 FF FF 7F 92  01 CE 00 10 01 59 05 CE  .............Y..
2BF0: 00 10 01 01 27 05 CE 00  10 01 0F BA CE 00 10 01  ....'...........
2C00: 6C 80 6D 80 35 80 36 80  37 6E 80 6F 80 39 80 36  l.m.5.6.7n.o.9.6
2C10: 80 80 CE 00 10 01 80 F8  FF FF 7F 45 30 80 F0 FF  ...........E0...
2C20: FF 7F F0 FF FF 7F 73 30  38 36 01 80 1C 02 80 45  ......s086.....E
2C30: 2E 80 F0 FF FF 7F F0 FF  FF 7F 66 64 69 31 01 80  ..........fdi1..
2C40: 06 27 00 9D 00 AE 4A 19  00 15 00 13 27 00 19 00  .'....J.....'...
2C50: 07 27 00 6B 80 15 19 00  05 80 13 28 00 19 00 07  .'.k.......(....
2C60: 28 00 6B 80 06 2A 00 06  2B 00 06 38 00 1B 03 0C  (.k..*..+..8....
2C70: 00 0D 80 06 2F 00 1A 0C  05 1B 03 03 10 0E 80 03  ..../...........
2C80: 04 10 70 80 03 05 10 71  80 03 06 10 72 80 03 07  ..p....q....r...
2C90: 10 0B 80 03 08 10 0D 80  03 09 10 02 80 1D 73 80  ..............s.
2CA0: 23 1D 74 80 23 1D 75 80  23 1D 76 80 23 1D 77 80  #.t.#.u.#.v.#.w.
2CB0: 23 1D 78 80 23 1D 79 80  23 1B 1A 98 2F 02 02 00  #.x.#.y.#.../...
2CC0: 01 80 00 94 2F 48 7A 80  23 0B 19 00 02 19 00 0B  ..../Hz.#.......
2CD0: 80 80 F7 2C BB 31 80 F8  FF FF 7F F8 FF FF 7F 6D  ...,.1.........m
2CE0: 31 30 31 01 80 BC 31 80  F8 FF FF 7F F8 FF FF 7F  101...1.........
2CF0: 6D 31 30 31 01 CE 2D 02  19 00 05 80 80 22 2D BB  m101..-......"-.
2D00: 31 80 F8 FF FF 7F F8 FF  FF 7F 6D 32 30 32 01 80  1.........m202..
2D10: BC 31 80 F8 FF FF 7F F8  FF FF 7F 6D 32 30 32 01  .1.........m202.
2D20: CE 2D 02 19 00 03 80 80  4D 2D BB 31 80 F8 FF FF  .-......M-.1....
2D30: 7F F8 FF FF 7F 6D 33 30  33 01 80 BC 31 80 F8 FF  .....m303...1...
2D40: FF 7F F8 FF FF 7F 6D 33  30 33 01 CE 2D 02 19 00  ......m303..-...
2D50: 0D 80 80 78 2D BB 31 80  F8 FF FF 7F F8 FF FF 7F  ...x-.1.........
2D60: 6D 34 30 34 01 80 BC 31  80 F8 FF FF 7F F8 FF FF  m404...1........
2D70: 7F 6D 34 30 34 01 CE 2D  02 19 00 00 80 80 A3 2D  .m404..-.......-
2D80: BB 31 80 F8 FF FF 7F F8  FF FF 7F 6D 35 30 35 01  .1.........m505.
2D90: 80 BC 31 80 F8 FF FF 7F  F8 FF FF 7F 6D 35 30 35  ..1.........m505
2DA0: 01 CE 2D 02 19 00 0E 80  80 CE 2D BB 31 80 F8 FF  ..-.......-.1...
2DB0: FF 7F F8 FF FF 7F 6D 36  30 36 01 80 BC 31 80 F8  ......m606...1..
2DC0: FF FF 7F F8 FF FF 7F 6D  36 30 36 01 CE 2D 06 1D  .......m606..-..
2DD0: 00 02 1D 00 0E 80 03 4D  2E 0B 1D 00 02 1D 00 19  .......M........
2DE0: 00 01 4A 2E 02 1D 00 0B  80 80 F5 2D 4E 01 6E 01  ..J........-N.n.
2DF0: 10 01 01 4A 2E 02 1D 00  05 80 80 06 2E 4E 01 6F  ...J.........N.o
2E00: 01 10 01 01 4A 2E 02 1D  00 03 80 80 17 2E 4E 01  ....J.........N.
2E10: 70 01 10 01 01 4A 2E 02  1D 00 0D 80 80 28 2E 4E  p....J.......(.N
2E20: 01 71 01 10 01 01 4A 2E  02 1D 00 00 80 80 39 2E  .q....J.......9.
2E30: 4E 01 72 01 10 01 01 4A  2E 02 1D 00 0E 80 80 4A  N.r....J.......J
2E40: 2E 4E 01 73 01 10 01 01  4A 2E 01 D1 2D 45 2E 80  .N.s....J...-E..
2E50: F0 FF FF 7F F0 FF FF 7F  73 30 33 31 01 80 02 19  ........s031....
2E60: 00 0B 80 80 76 2E 2C 6E  01 10 01 6E 01 10 01 6F  ....v.,n...n...o
2E70: 70 65 6E 01 EE 2E 02 19  00 05 80 80 8E 2E 2C 6F  pen...........,o
2E80: 01 10 01 6F 01 10 01 6F  70 65 6E 01 EE 2E 02 19  ...o...open.....
2E90: 00 03 80 80 A6 2E 2C 70  01 10 01 70 01 10 01 6F  ......,p...p...o
2EA0: 70 65 6E 01 EE 2E 02 19  00 0D 80 80 BE 2E 2C 71  pen...........,q
2EB0: 01 10 01 71 01 10 01 6F  70 65 6E 01 EE 2E 02 19  ...q...open.....
2EC0: 00 00 80 80 D6 2E 2C 72  01 10 01 72 01 10 01 6F  ......,r...r...o
2ED0: 70 65 6E 01 EE 2E 02 19  00 0E 80 80 EE 2E 2C 73  pen...........,s
2EE0: 01 10 01 73 01 10 01 6F  70 65 6E 01 EE 2E 93 20  ...s...open.... 
2EF0: 00 03 03 10 20 00 02 0E  00 11 80 80 0E 2F 03 04  .... ......../..
2F00: 10 15 00 0B 04 10 14 04  10 0B 80 01 3E 2F 02 0E  ............>/..
2F10: 00 12 80 80 26 2F 03 04  10 15 00 0B 04 10 14 04  ....&/..........
2F20: 10 0D 80 01 3E 2F 02 0E  00 13 80 80 3E 2F 03 04  ....>/......>/..
2F30: 10 15 00 0B 04 10 14 04  10 02 80 01 3E 2F 48 7B  ............>/H{
2F40: 80 23 93 01 80 40 01 80  0F 80 01 10 0E 00 40 10  .#...@........@.
2F50: 80 1E 80 01 10 01 80 40  1F 80 18 80 01 10 01 80  .......@........
2F60: 43 00 43 01 03 0E 00 03  10 03 30 00 04 10 03 31  C.C.......0....1
2F70: 00 07 10 03 32 00 08 10  03 12 00 09 10 02 12 00  ....2...........
2F80: 01 80 02 8B 2F 05 17 00  01 8E 2F 06 17 00 1A 60  ..../...../....`
2F90: 06 01 BD 2C 1A A7 33 1B  02 2F 00 01 80 00 3D 30  ...,..3../....=0
2FA0: 40 01 80 0F 80 01 10 0C  80 40 10 80 1E 80 01 10  @........@......
2FB0: 15 00 43 00 43 01 03 0E  00 03 10 03 30 00 04 10  ..C.C.......0...
2FC0: 03 31 00 07 10 03 32 00  08 10 03 12 00 09 10 05  .1....2.........
2FD0: 2F 00 45 2E 80 F0 FF FF  7F F0 FF FF 7F 66 64 6F  /.E..........fdo
2FE0: 31 01 80 55 2E 80 F0 FF  FF 7F F0 FF FF 7F 66 64  1..U..........fd
2FF0: 6F 31 46 01 4E 01 F0 FF  FF 7F 7B F8 FF FF 7F 92  o1F.N.....{.....
3000: 01 F8 FF FF 7F 38 32 80  1A 41 30 4B F8 FF FF 7F  .....82..A0K....
3010: 7C 80 6F 76 F8 FF FF 7F  45 7D 80 F8 FF FF 7F F8  |.ov....E}......
3020: FF FF 7F 73 30 30 31 01  80 45 2E 80 F0 FF FF 7F  ...s001..E......
3030: F0 FF FF 7F 66 64 69 31  01 80 01 40 30 1A 41 30  ....fdi1...@0.A0
3040: 1B 2F 00 6E 01 10 01 4E  00 6E 01 10 01 92 01 6E  ./.n...N.n.....n
3050: 01 10 01 59 05 6E 01 10  01 01 2F 00 6F 01 10 01  ...Y.n..../.o...
3060: 4E 00 6F 01 10 01 92 01  6F 01 10 01 59 05 6F 01  N.o.....o...Y.o.
3070: 10 01 01 2F 00 70 01 10  01 4E 00 70 01 10 01 92  .../.p...N.p....
3080: 01 70 01 10 01 59 05 70  01 10 01 01 2F 00 71 01  .p...Y.p..../.q.
3090: 10 01 4E 00 71 01 10 01  92 01 71 01 10 01 59 05  ..N.q.....q...Y.
30A0: 71 01 10 01 01 2F 00 72  01 10 01 4E 00 72 01 10  q..../.r...N.r..
30B0: 01 92 01 72 01 10 01 59  05 72 01 10 01 01 2F 00  ...r...Y.r..../.
30C0: 73 01 10 01 4E 00 73 01  10 01 92 01 73 01 10 01  s...N.s.....s...
30D0: 59 05 73 01 10 01 01 69  01 0B 80 2C 6E 01 10 01  Y.s....i...,n...
30E0: 6E 01 10 01 63 6C 6F 73  2C 6F 01 10 01 6F 01 10  n...clos,o...o..
30F0: 01 63 6C 6F 73 2C 70 01  10 01 70 01 10 01 63 6C  .clos,p...p...cl
3100: 6F 73 2C 71 01 10 01 71  01 10 01 63 6C 6F 73 2C  os,q...q...clos,
3110: 72 01 10 01 72 01 10 01  63 6C 6F 73 2C 73 01 10  r...r...clos,s..
3120: 01 73 01 10 01 63 6C 6F  73 1A A0 31 BA 6E 01 10  .s...clos..1.n..
3130: 01 7E 80 7F 80 80 80 81  80 BA 6F 01 10 01 82 80  .~........o.....
3140: 83 80 80 80 81 80 BA 70  01 10 01 84 80 85 80 80  .......p........
3150: 80 81 80 BA 71 01 10 01  86 80 87 80 80 80 81 80  ....q...........
3160: BA 72 01 10 01 88 80 89  80 80 80 81 80 BA 73 01  .r............s.
3170: 10 01 8A 80 8B 80 80 80  81 80 80 6E 01 10 01 80  ...........n....
3180: 6F 01 10 01 80 70 01 10  01 80 71 01 10 01 80 72  o....p....q....r
3190: 01 10 01 80 73 01 10 01  1C 3A 80 69 00 0B 80 1B  ....s....:.i....
31A0: 06 1D 00 02 0E 00 11 80  80 03 32 13 19 00 00 80  ..........2.....
31B0: 02 1D 00 0E 80 03 00 32  02 1D 00 19 00 01 D8 31  .......2.......1
31C0: 13 1B 00 02 80 9D 00 66  36 1F 00 1B 00 9D 05 BE  .......f6.......
31D0: 47 1F 00 1D 00 01 FA 31  13 1B 00 0F 80 9D 00 16  G......1........
31E0: 36 1F 00 1B 00 9D 05 BE  47 1F 00 1D 00 13 1B 00  6.......G.......
31F0: 0F 80 9D 00 A6 36 20 00  1B 00 0B 1D 00 01 B0 31  .....6 ........1
3200: 01 94 33 02 0E 00 12 80  80 63 32 13 19 00 00 80  ..3......c2.....
3210: 02 1D 00 0E 80 03 60 32  02 1D 00 19 00 01 38 32  ......`2......82
3220: 13 1B 00 02 80 9D 00 66  36 1F 00 1B 00 9D 05 BE  .......f6.......
3230: 47 1F 00 1D 00 01 5A 32  13 1B 00 0F 80 9D 00 26  G.....Z2.......&
3240: 36 1F 00 1B 00 9D 05 BE  47 1F 00 1D 00 13 1B 00  6.......G.......
3250: 0F 80 9D 00 B6 36 20 00  1B 00 0B 1D 00 01 10 32  .....6 ........2
3260: 01 94 33 02 0E 00 13 80  80 94 33 13 19 00 00 80  ..3.......3.....
3270: 02 1D 00 0E 80 03 91 33  02 1D 00 19 00 01 BE 32  .......3.......2
3280: 13 1B 00 02 80 02 12 00  01 80 00 98 32 9D 00 66  ............2..f
3290: 36 1F 00 1B 00 01 B3 32  02 32 00 03 80 02 AB 32  6......2.2.....2
32A0: 9D 00 86 36 1F 00 1B 00  01 B3 32 9D 00 66 36 1F  ...6......2..f6.
32B0: 00 1B 00 9D 05 BE 47 1F  00 1D 00 01 8B 33 06 1A  ......G......3..
32C0: 00 03 1A 00 32 00 0B 1A  00 14 1A 00 1A 00 15 1A  ....2...........
32D0: 00 6B 80 13 1B 00 0F 80  02 1A 00 01 80 80 EB 32  .k.............2
32E0: 9D 00 36 36 1F 00 1B 00  01 11 33 02 1A 00 0B 80  ..66......3.....
32F0: 80 FE 32 9D 00 46 36 1F  00 1B 00 01 11 33 02 1A  ..2..F6......3..
3300: 00 05 80 80 11 33 9D 00  56 36 1F 00 1B 00 01 11  .....3..V6......
3310: 33 9D 05 BE 47 1F 00 1D  00 06 1A 00 03 1A 00 31  3...G..........1
3320: 00 08 1A 00 8C 80 15 1A  00 0A 80 02 1A 00 01 80  ................
3330: 80 43 33 13 1B 00 0F 80  9D 00 C6 36 20 00 1B 00  .C3........6 ...
3340: 01 8B 33 02 1A 00 0B 80  80 5B 33 13 1B 00 0F 80  ..3......[3.....
3350: 9D 00 D6 36 20 00 1B 00  01 8B 33 02 1A 00 05 80  ...6 .....3.....
3360: 80 73 33 13 1B 00 0F 80  9D 00 D6 36 20 00 1B 00  .s3........6 ...
3370: 01 8B 33 02 1A 00 03 80  80 8B 33 13 1B 00 0F 80  ..3.......3.....
3380: 9D 00 E6 36 20 00 1B 00  01 8B 33 0B 1D 00 01 70  ...6 .....3....p
3390: 32 01 94 33 1A F4 33 1A  4F 34 1A AA 34 1A 05 35  2..3..3.O4..4..5
33A0: 1A 60 35 1A BB 35 1B 45  2E 80 F0 FF FF 7F F0 FF  .`5..5.E........
33B0: FF 7F 66 64 6F 31 01 80  55 2E 80 F0 FF FF 7F F0  ..fdo1..U.......
33C0: FF FF 7F 66 64 6F 31 92  00 F8 FF FF 7F 4E 00 F0  ...fdo1......N..
33D0: FF FF 7F 80 F0 FF FF 7F  1E F0 FF FF 7F 46 00 1C  .............F..
33E0: 31 80 45 2E 80 F0 FF FF  7F F0 FF FF 7F 66 64 69  1.E..........fdi
33F0: 32 01 80 1B 02 03 10 0B  80 80 06 34 27 05 6E 01  2..........4'.n.
3400: 10 01 01 01 4E 34 02 03  10 05 80 80 18 34 27 05  ....N4.......4'.
3410: 6E 01 10 01 02 01 4E 34  02 03 10 03 80 80 2A 34  n.....N4......*4
3420: 27 05 6E 01 10 01 03 01  4E 34 02 03 10 0D 80 80  '.n.....N4......
3430: 3C 34 27 05 6E 01 10 01  04 01 4E 34 02 03 10 00  <4'.n.....N4....
3440: 80 80 4E 34 27 05 6E 01  10 01 05 01 4E 34 1B 02  ..N4'.n.....N4..
3450: 04 10 0B 80 80 61 34 27  05 6F 01 10 01 01 01 A9  .....a4'.o......
3460: 34 02 04 10 05 80 80 73  34 27 05 6F 01 10 01 02  4......s4'.o....
3470: 01 A9 34 02 04 10 03 80  80 85 34 27 05 6F 01 10  ..4.......4'.o..
3480: 01 03 01 A9 34 02 04 10  0D 80 80 97 34 27 05 6F  ....4.......4'.o
3490: 01 10 01 04 01 A9 34 02  04 10 00 80 80 A9 34 27  ......4.......4'
34A0: 05 6F 01 10 01 05 01 A9  34 1B 02 05 10 0B 80 80  .o......4.......
34B0: BC 34 27 05 70 01 10 01  01 01 04 35 02 05 10 05  .4'.p......5....
34C0: 80 80 CE 34 27 05 70 01  10 01 02 01 04 35 02 05  ...4'.p......5..
34D0: 10 03 80 80 E0 34 27 05  70 01 10 01 03 01 04 35  .....4'.p......5
34E0: 02 05 10 0D 80 80 F2 34  27 05 70 01 10 01 04 01  .......4'.p.....
34F0: 04 35 02 05 10 00 80 80  04 35 27 05 70 01 10 01  .5.......5'.p...
3500: 05 01 04 35 1B 02 06 10  0B 80 80 17 35 27 05 71  ...5........5'.q
3510: 01 10 01 01 01 5F 35 02  06 10 05 80 80 29 35 27  ....._5......)5'
3520: 05 71 01 10 01 02 01 5F  35 02 06 10 03 80 80 3B  .q....._5......;
3530: 35 27 05 71 01 10 01 03  01 5F 35 02 06 10 0D 80  5'.q....._5.....
3540: 80 4D 35 27 05 71 01 10  01 04 01 5F 35 02 06 10  .M5'.q....._5...
3550: 00 80 80 5F 35 27 05 71  01 10 01 05 01 5F 35 1B  ..._5'.q....._5.
3560: 02 07 10 0B 80 80 72 35  27 05 72 01 10 01 01 01  ......r5'.r.....
3570: BA 35 02 07 10 05 80 80  84 35 27 05 72 01 10 01  .5.......5'.r...
3580: 02 01 BA 35 02 07 10 03  80 80 96 35 27 05 72 01  ...5.......5'.r.
3590: 10 01 03 01 BA 35 02 07  10 0D 80 80 A8 35 27 05  .....5.......5'.
35A0: 72 01 10 01 04 01 BA 35  02 07 10 00 80 80 BA 35  r......5.......5
35B0: 27 05 72 01 10 01 05 01  BA 35 1B 02 08 10 0B 80  '.r......5......
35C0: 80 CD 35 27 05 73 01 10  01 01 01 15 36 02 08 10  ..5'.s......6...
35D0: 05 80 80 DF 35 27 05 73  01 10 01 02 01 15 36 02  ....5'.s......6.
35E0: 08 10 03 80 80 F1 35 27  05 73 01 10 01 03 01 15  ......5'.s......
35F0: 36 02 08 10 0D 80 80 03  36 27 05 73 01 10 01 04  6.......6'.s....
3600: 01 15 36 02 08 10 00 80  80 15 36 27 05 73 01 10  ..6.......6'.s..
3610: 01 05 01 15 36 1B 05 80  05 80 05 80 05 80 05 80  ....6...........
3620: 05 80 05 80 05 80 03 80  03 80 03 80 03 80 03 80  ................
3630: 03 80 0D 80 0D 80 03 80  03 80 03 80 03 80 03 80  ................
3640: 0D 80 0D 80 00 80 03 80  03 80 0D 80 0D 80 0D 80  ................
3650: 00 80 00 80 00 80 0D 80  0D 80 00 80 00 80 00 80  ................
3660: 00 80 00 80 00 80 05 80  05 80 05 80 05 80 05 80  ................
3670: 05 80 05 80 05 80 03 80  03 80 03 80 03 80 03 80  ................
3680: 03 80 0D 80 0D 80 03 80  03 80 03 80 03 80 03 80  ................
3690: 03 80 03 80 03 80 0D 80  0D 80 0D 80 0D 80 00 80  ................
36A0: 00 80 00 80 00 80 70 80  8D 80 8E 80 8F 80 90 80  ......p.........
36B0: 91 80 92 80 93 80 71 80  94 80 95 80 96 80 97 80  ......q.........
36C0: 98 80 99 80 9A 80 72 80  72 80 72 80 72 80 72 80  ......r.r.r.r.r.
36D0: 9B 80 9B 80 9C 80 72 80  72 80 9B 80 9B 80 9C 80  ......r.r.......
36E0: 9D 80 9E 80 9F 80 72 80  9B 80 9C 80 9D 80 9E 80  ......r.........
36F0: 9F 80 A0 80 A1 80 03 0C  00 00 80 06 2F 00 1A 0C  ............/...
3700: 05 1B 1D A2 80 23 1D A3  80 23 1D A4 80 23 1D A5  .....#...#...#..
3710: 80 23 1D A6 80 23 1D A7  80 23 1D A8 80 23 1B 1A  .#...#...#...#..
3720: 9E 42 02 02 00 01 80 00  C6 37 06 18 00 1A 91 43  .B.......7.....C
3730: 48 A9 80 23 1A 54 38 03  2D 00 18 00 02 18 00 0B  H..#.T8.-.......
3740: 80 80 4A 37 1A E1 3C 01  C3 37 02 18 00 05 80 80  ..J7..<..7......
3750: C3 37 02 3E 00 03 80 05  BD 37 1A E1 3C 02 18 00  .7.>.....7..<...
3760: 05 80 80 AC 37 1D AA 80  23 1A CA 37 40 01 80 0F  ....7...#..7@...
3770: 80 01 10 46 00 40 10 80  1E 80 01 10 01 80 40 1F  ...F.@........@.
3780: 80 18 80 01 10 01 80 43  00 43 01 03 12 00 09 10  .......C.C......
3790: 02 12 00 01 80 02 9E 37  05 17 00 01 A1 37 06 17  .......7.....7..
37A0: 00 1A 60 06 03 3E 00 03  80 01 B7 37 02 18 00 0B  ..`..>.....7....
37B0: 80 80 B7 37 01 B7 37 0B  3E 00 01 52 37 06 3E 00  ...7..7.>..R7.>.
37C0: 01 C3 37 01 22 37 1A F8  46 1B 06 46 00 1A 91 43  ..7."7..F..F...C
37D0: 48 A9 80 23 1A CD 43 48  A9 80 23 1A 3E 41 03 3C  H..#..CH..#.>A.<
37E0: 00 45 00 1A 01 41 03 3D  00 45 00 02 3D 00 3C 00  .E...A.=.E..=.<.
37F0: 03 0C 38 03 03 10 3C 00  03 04 10 3D 00 03 05 10  ..8...<....=....
3800: 01 80 48 AB 80 23 03 46  00 00 80 1B 02 3D 00 3C  ..H..#.F.....=.<
3810: 00 02 2D 38 03 03 10 3C  00 03 04 10 3D 00 03 05  ..-8...<....=...
3820: 10 0B 80 48 AB 80 23 03  46 00 0F 80 1B 02 3D 00  ...H..#.F.....=.
3830: 3C 00 00 4E 38 03 03 10  3C 00 03 04 10 3D 00 03  <..N8...<....=..
3840: 05 10 05 80 48 AB 80 23  03 46 00 0E 80 1B 03 46  ....H..#.F.....F
3850: 00 0F 80 1B 0B 3E 00 06  04 00 06 09 00 06 24 00  .....>........$.
3860: 02 04 00 01 80 00 A9 39  03 01 00 0B 80 24 AC 80  .......9.....$..
3870: 09 00 01 00 25 02 00 10  01 80 00 80 38 01 80 38  ....%.......8..8
3880: 03 09 00 00 10 02 09 00  01 80 80 9C 38 1A 91 43  ............8..C
3890: 48 A9 80 23 03 18 00 01  80 01 A6 39 02 09 00 0B  H..#.......9....
38A0: 80 80 54 39 06 07 00 06  2E 00 06 3C 00 02 07 00  ..T9.......<....
38B0: 01 80 00 51 39 1A 91 43  41 0B 80 0B 80 3C 00 09  ...Q9..CA....<..
38C0: 17 41 05 80 05 80 3C 00  0A 17 41 03 80 03 80 3C  .A....<...A....<
38D0: 00 0B 17 06 24 00 02 3C  00 01 80 00 E5 38 3C 24  ....$..<.....8<$
38E0: 00 0D 80 0B 80 24 AD 80  2E 00 24 00 25 02 00 10  .....$....$.%...
38F0: 01 80 00 00 39 03 18 00  01 80 05 07 00 01 29 39  ....9.........)9
3900: 02 00 10 0D 80 00 29 39  1A AA 39 05 07 00 05 04  ......)9..9.....
3910: 00 02 3E 00 03 80 04 21  39 03 18 00 05 80 01 26  ..>....!9......&
3920: 39 03 18 00 0B 80 01 29  39 03 2E 00 00 10 02 07  9......)9.......
3930: 00 01 80 00 4E 39 3E 3C  00 2E 00 47 39 3D 3C 00  ....N9><...G9=<.
3940: 2E 00 0B 80 01 4E 39 3C  3C 00 2E 00 0B 80 01 AD  .....N9<<.......
3950: 38 01 A6 39 02 09 00 05  80 80 67 39 1A 7B 3B 03  8..9......g9.{;.
3960: 18 00 01 80 01 A6 39 02  09 00 03 80 80 93 39 48  ......9.......9H
3970: A2 80 23 48 A3 80 23 48  A4 80 23 48 A5 80 23 48  ..#H..#H..#H..#H
3980: A6 80 23 48 A7 80 23 48  A8 80 23 03 18 00 01 80  ..#H..#H..#.....
3990: 01 A6 39 02 09 00 0D 80  80 A6 39 05 04 00 03 18  ..9.......9.....
39A0: 00 05 80 01 A6 39 01 60  38 1B 06 1D 00 3E 3C 00  .....9.`8....><.
39B0: 0B 80 E4 39 03 22 00 01  80 1A 09 44 03 1A 00 1D  ...9.".....D....
39C0: 00 03 1B 00 1A 00 07 1B  00 10 80 9D 05 BE 47 39  ..............G9
39D0: 00 1A 00 9D 05 BE 47 38  00 1B 00 1A 9F 45 1A 7C  ......G8.....E.|
39E0: 44 0B 1D 00 3E 3C 00 05  80 1B 3A 03 22 00 0B 80  D...><....:."...
39F0: 1A 09 44 03 1A 00 1D 00  03 1B 00 1A 00 07 1B 00  ..D.............
3A00: 10 80 9D 05 BE 47 39 00  1A 00 9D 05 BE 47 38 00  .....G9......G8.
3A10: 1B 00 1A 9F 45 1A 7C 44  0B 1D 00 3E 3C 00 03 80  ....E.|D...><...
3A20: 52 3A 03 22 00 05 80 1A  09 44 03 1A 00 1D 00 03  R:.".....D......
3A30: 1B 00 1A 00 07 1B 00 10  80 9D 05 BE 47 39 00 1A  ............G9..
3A40: 00 9D 05 BE 47 38 00 1B  00 1A 9F 45 1A 7C 44 0B  ....G8.....E.|D.
3A50: 1D 00 03 1D 17 01 80 03  1E 17 1D 00 02 1D 00 0B  ................
3A60: 80 80 6B 3A 48 AE 80 23  01 89 3A 02 1D 00 05 80  ..k:H..#..:.....
3A70: 80 7A 3A 48 AF 80 23 01  89 3A 02 1D 00 03 80 80  .z:H..#..:......
3A80: 89 3A 48 B0 80 23 01 89  3A 1B 06 1D 00 3E 3D 00  .:H..#..:....>=.
3A90: 0B 80 C4 3A 03 23 00 01  80 1A D4 44 03 1A 00 1D  ...:.#.....D....
3AA0: 00 03 1B 00 1A 00 07 1B  00 10 80 9D 05 BE 47 39  ..............G9
3AB0: 00 1A 00 9D 05 BE 47 38  00 1B 00 1A 9F 45 1A 47  ......G8.....E.G
3AC0: 45 0B 1D 00 3E 3D 00 05  80 FB 3A 03 23 00 0B 80  E...>=....:.#...
3AD0: 1A D4 44 03 1A 00 1D 00  03 1B 00 1A 00 07 1B 00  ..D.............
3AE0: 10 80 9D 05 BE 47 39 00  1A 00 9D 05 BE 47 38 00  .....G9......G8.
3AF0: 1B 00 1A 9F 45 1A 47 45  0B 1D 00 3E 3D 00 03 80  ....E.GE...>=...
3B00: 32 3B 03 23 00 05 80 1A  D4 44 03 1A 00 1D 00 03  2;.#.....D......
3B10: 1B 00 1A 00 07 1B 00 10  80 9D 05 BE 47 39 00 1A  ............G9..
3B20: 00 9D 05 BE 47 38 00 1B  00 1A 9F 45 1A 47 45 0B  ....G8.....E.GE.
3B30: 1D 00 6E 6C 01 10 01 1D  80 99 6C 01 10 01 03 1D  ..nl......l.....
3B40: 17 0B 80 03 1E 17 1D 00  02 1D 00 0B 80 80 57 3B  ..............W;
3B50: 48 AE 80 23 01 75 3B 02  1D 00 05 80 80 66 3B 48  H..#.u;......f;H
3B60: AF 80 23 01 75 3B 02 1D  00 03 80 80 75 3B 48 B0  ..#.u;......u;H.
3B70: 80 23 01 75 3B 99 6C 01  10 01 1B 06 07 00 06 2E  .#.u;.l.........
3B80: 00 02 07 00 01 80 00 DD  3B 1A DE 3B 24 B1 80 2E  ........;..;$...
3B90: 00 24 00 25 02 00 10 01  80 00 A2 3B 05 07 00 01  .$.%.......;....
3BA0: A2 3B 03 2E 00 00 10 02  2E 00 01 80 02 DA 3B 03  .;............;.
3BB0: 1E 00 2E 00 0C 1E 00 9D  00 BE 47 39 00 1E 00 07  ..........G9....
3BC0: 1E 00 09 80 9D 00 BE 47  38 00 1E 00 03 03 10 39  .......G8......9
3BD0: 00 03 01 17 38 00 1D B2  80 23 01 81 3B 1B 1A A4  ....8....#..;...
3BE0: 47 06 1D 00 06 3B 00 03  24 00 19 80 02 1D 00 37  G....;..$......7
3BF0: 00 03 8A 3C 06 1A 00 06  1B 00 03 1F 00 1D 00 15  ...<............
3C00: 1F 00 0E 80 9D 00 45 47  1E 00 1F 00 3F 1F 00 1D  ......EG....?...
3C10: 00 0E 80 03 1A 00 1F 00  14 1A 00 00 80 03 1B 00  ................
3C20: 1A 00 07 1B 00 00 80 0C  1B 00 41 1A 00 1B 00 1E  ..........A.....
3C30: 00 3A 00 03 1F 00 3A 00  1A 90 3C 02 25 00 01 80  .:....:...<.%...
3C40: 00 84 3C 03 3A 00 1F 00  06 38 00 06 39 00 41 01  ..<.:....8..9.A.
3C50: 80 05 80 3A 00 38 00 41  03 80 0D 80 3A 00 39 00  ...:.8.A....:.9.
3C60: 03 20 00 3B 00 07 20 00  09 80 9D 05 BE 47 39 00  . .;.. ......G9.
3C70: 3B 00 9D 05 BE 47 38 00  20 00 3D 24 00 3B 00 0B  ;....G8. .=$.;..
3C80: 80 0B 3B 00 0B 1D 00 01  EC 3B 10 24 00 0B 80 1B  ..;......;.$....
3C90: 06 25 00 06 22 00 06 23  00 02 22 00 03 80 03 BF  .%.."..#..".....
3CA0: 3C 1A 09 44 02 3A 00 1F  00 00 B9 3C 05 25 00 03  <..D.:.....<.%..
3CB0: 22 00 03 80 03 23 00 03  80 0B 22 00 01 99 3C 02  "....#...."...<.
3CC0: 23 00 03 80 03 E0 3C 1A  D4 44 02 3A 00 1F 00 00  #.....<..D.:....
3CD0: DA 3C 05 25 00 03 23 00  03 80 0B 23 00 01 BF 3C  .<.%..#....#...<
3CE0: 1B 06 3D 00 1A BA 3F 02  18 00 05 80 80 0D 3D 6E  ..=...?.......=n
3CF0: 6C 01 10 01 0E 80 99 6C  01 10 01 03 1D 17 0B 80  l......l........
3D00: 48 B3 80 23 99 6C 01 10  01 1B 01 0D 3D 06 3D 00  H..#.l......=.=.
3D10: 02 15 00 01 80 80 1E 3D  1A A0 3D 01 56 3D 02 15  .......=..=.V=..
3D20: 00 0B 80 80 2C 3D 1A A0  3D 01 56 3D 02 15 00 05  ....,=..=.V=....
3D30: 80 80 3A 3D 1A 17 3E 01  56 3D 02 15 00 03 80 80  ..:=..>.V=......
3D40: 48 3D 1A 17 3E 01 56 3D  02 15 00 0D 80 80 56 3D  H=..>.V=......V=
3D50: 1A C5 3E 01 56 3D 1A BA  3F 02 3E 00 03 80 04 67  ..>.V=..?.>....g
3D60: 3D 03 18 00 05 80 1B 02  2D 00 0B 80 80 72 3D 01  =.......-....r=.
3D70: 9F 3D 02 2D 00 05 80 80  9F 3D 02 18 00 05 80 00  .=.-.....=......
3D80: 9C 3D 6E 6C 01 10 01 0E  80 99 6C 01 10 01 03 1D  .=nl......l.....
3D90: 17 0B 80 48 B3 80 23 99  6C 01 10 01 01 9F 3D 1B  ...H..#.l.....=.
3DA0: 06 3D 00 03 1F 00 3F 00  02 1F 00 41 00 03 B5 3D  .=....?....A...=
3DB0: 03 1F 00 41 00 02 1F 00  43 00 03 C2 3D 03 1F 00  ...A....C...=...
3DC0: 43 00 02 1F 00 00 80 03  E6 3D 3C 3D 00 0B 80 0B  C........=<=....
3DD0: 80 3C 3D 00 05 80 0B 80  3C 3D 00 03 80 0B 80 1A  .<=.....<=......
3DE0: 8A 3A 1B 01 16 3E 02 3F  00 1F 00 03 F5 3D 3C 3D  .:...>.?.....=<=
3DF0: 00 0B 80 0B 80 02 41 00  1F 00 03 04 3E 3C 3D 00  ......A.....><=.
3E00: 05 80 0B 80 02 43 00 1F  00 03 13 3E 3C 3D 00 03  .....C.....><=..
3E10: 80 0B 80 1A 8A 3A 1B 06  3D 00 02 1C 00 01 80 00  .....:..=.......
3E20: 73 3E 02 3F 00 1F 00 00  3C 3E 3C 3D 00 05 80 0B  s>.?....<><=....
3E30: 80 3C 3D 00 03 80 0B 80  1A 8A 3A 1B 02 41 00 1F  .<=.......:..A..
3E40: 00 00 56 3E 3C 3D 00 0B  80 0B 80 3C 3D 00 03 80  ..V><=.....<=...
3E50: 0B 80 1A 8A 3A 1B 02 43  00 1F 00 00 70 3E 3C 3D  ....:..C....p><=
3E60: 00 0B 80 0B 80 3C 3D 00  05 80 0B 80 1A 8A 3A 1B  .....<=.......:.
3E70: 01 AC 3E 02 3F 00 41 00  00 86 3E 3C 3D 00 03 80  ..>.?.A...><=...
3E80: 0B 80 1A 8A 3A 1B 02 3F  00 43 00 00 99 3E 3C 3D  ....:..?.C...><=
3E90: 00 05 80 0B 80 1A 8A 3A  1B 02 41 00 43 00 00 AC  .......:..A.C...
3EA0: 3E 3C 3D 00 0B 80 0B 80  1A 8A 3A 1B 3C 3D 00 0B  ><=.......:.<=..
3EB0: 80 0B 80 3C 3D 00 05 80  0B 80 3C 3D 00 03 80 0B  ...<=.....<=....
3EC0: 80 1A 8A 3A 1B 06 3D 00  02 1C 00 01 80 00 21 3F  ...:..=.......!?
3ED0: 02 3F 00 1F 00 00 EA 3E  3C 3D 00 05 80 0B 80 3C  .?.....><=.....<
3EE0: 3D 00 03 80 0B 80 1A 8A  3A 1B 02 41 00 1F 00 00  =.......:..A....
3EF0: 04 3F 3C 3D 00 0B 80 0B  80 3C 3D 00 03 80 0B 80  .?<=.....<=.....
3F00: 1A 8A 3A 1B 02 43 00 1F  00 00 1E 3F 3C 3D 00 0B  ..:..C.....?<=..
3F10: 80 0B 80 3C 3D 00 05 80  0B 80 1A 8A 3A 1B 01 A1  ...<=.......:...
