# 17825934

## Common Data

| Field            | Value                     |
|------------------|---------------------------|
| Zone             | Western Adoulin (ID: 256) |
| Block Size       | 17460 bytes               |
| Total Events     | 12                        |
| References Count | 378                       |

## List of Events

| Event ID              | Entrypoint   |   Size |   Instructions |
|-----------------------|--------------|--------|----------------|
| [65535](#event-65535) | 0x0000       |      1 |              1 |
| [123](#event-123)     | 0x0001       |    995 |            122 |
| [125](#event-125)     | 0x03E4       |    398 |             56 |
| [154](#event-154)     | 0x0572       |   3163 |            389 |
| [155](#event-155)     | 0x11CD       |    748 |             97 |
| [156](#event-156)     | 0x14B9       |   2425 |            299 |
| [167](#event-167)     | 0x1E32       |    275 |             39 |
| [157](#event-157)     | 0x1F45       |    764 |             99 |
| [158](#event-158)     | 0x2241       |   1337 |            168 |
| [159](#event-159)     | 0x277A       |   3279 |            413 |
| [160](#event-160)     | 0x3449       |    396 |             60 |
| [177](#event-177)     | 0x35D5       |   2103 |            241 |

## DAT References (imed_data)

|   Index | Hex Value   |   Dec Value |
|---------|-------------|-------------|
|       0 | 0x0000      |           0 |
|       1 | 0x0093      |         147 |
|       2 | 0x0249      |         585 |
|       3 | 0xFFFEA2E4  |  4294877924 |
|       4 | 0x3551      |       13649 |
|       5 | 0x0D15      |        3349 |
|       6 | 0x010E      |         270 |
|       7 | 0x001E      |          30 |
|       8 | 0x026E      |         622 |
|       9 | 0x000F      |          15 |
|      10 | 0x0009      |           9 |
|      11 | 0x3141      |       12609 |
|      12 | 0x0005      |           5 |
|      13 | 0x0006      |           6 |
|      14 | 0x3142      |       12610 |
|      15 | 0x0007      |           7 |
|      16 | 0x004B      |          75 |
|      17 | 0x0095      |         149 |
|      18 | 0x3143      |       12611 |
|      19 | 0x0001      |           1 |
|      20 | 0x3144      |       12612 |
|      21 | 0x3145      |       12613 |
|      22 | 0x3146      |       12614 |
|      23 | 0x3147      |       12615 |
|      24 | 0x3148      |       12616 |
|      25 | 0x3149      |       12617 |
|      26 | 0x096B      |        2411 |
|      27 | 0x314A      |       12618 |
|      28 | 0x002D      |          45 |
|      29 | 0x314B      |       12619 |
|      30 | 0x00C8      |         200 |
|      31 | 0x314C      |       12620 |
|      32 | 0x314D      |       12621 |
|      33 | 0x314E      |       12622 |
|      34 | 0x314F      |       12623 |
|      35 | 0x3150      |       12624 |
|      36 | 0x000C      |          12 |
|      37 | 0x00FF      |         255 |
|      38 | 0x028F      |         655 |
|      39 | 0x00FC      |         252 |
|      40 | 0x230F      |        8975 |
|      41 | 0x0016      |          22 |
|      42 | 0x2310      |        8976 |
|      43 | 0x2311      |        8977 |
|      44 | 0x005A      |          90 |
|      45 | 0x0015      |          21 |
|      46 | 0x2312      |        8978 |
|      47 | 0x2313      |        8979 |
|      48 | 0x2314      |        8980 |
|      49 | 0x2315      |        8981 |
|      50 | 0x2316      |        8982 |
|      51 | 0x2317      |        8983 |
|      52 | 0x2318      |        8984 |
|      53 | 0x0020      |          32 |
|      54 | 0x0014      |          20 |
|      55 | 0x0046      |          70 |
|      56 | 0x2319      |        8985 |
|      57 | 0x0004      |           4 |
|      58 | 0x231A      |        8986 |
|      59 | 0x0002      |           2 |
|      60 | 0x231B      |        8987 |
|      61 | 0x231C      |        8988 |
|      62 | 0x231D      |        8989 |
|      63 | 0x231E      |        8990 |
|      64 | 0x231F      |        8991 |
|      65 | 0x2320      |        8992 |
|      66 | 0x001A      |          26 |
|      67 | 0x2321      |        8993 |
|      68 | 0x2322      |        8994 |
|      69 | 0x33B5      |       13237 |
|      70 | 0xFFFFAA6D  |  4294945389 |
|      71 | 0x03E7      |         999 |
|      72 | 0x0A9A      |        2714 |
|      73 | 0x38C2      |       14530 |
|      74 | 0xFFFFCC8D  |  4294954125 |
|      75 | 0x0118      |         280 |
|      76 | 0x3103      |       12547 |
|      77 | 0xFFFFBC2D  |  4294949933 |
|      78 | 0x00D7      |         215 |
|      79 | 0x2323      |        8995 |
|      80 | 0x2324      |        8996 |
|      81 | 0x0096      |         150 |
|      82 | 0x0D50      |        3408 |
|      83 | 0x00B4      |         180 |
|      84 | 0xFFFEAB5C  |  4294880092 |
|      85 | 0x316F      |       12655 |
|      86 | 0x08F5      |        2293 |
|      87 | 0xFFFE9B8B  |  4294876043 |
|      88 | 0x2175      |        8565 |
|      89 | 0x0D5D      |        3421 |
|      90 | 0x2325      |        8997 |
|      91 | 0x2326      |        8998 |
|      92 | 0x2327      |        8999 |
|      93 | 0x2328      |        9000 |
|      94 | 0x2329      |        9001 |
|      95 | 0x232A      |        9002 |
|      96 | 0x001D      |          29 |
|      97 | 0x232B      |        9003 |
|      98 | 0x0CD0      |        3280 |
|      99 | 0x232C      |        9004 |
|     100 | 0x232D      |        9005 |
|     101 | 0x0CCC      |        3276 |
|     102 | 0x232E      |        9006 |
|     103 | 0x0018      |          24 |
|     104 | 0x232F      |        9007 |
|     105 | 0x2330      |        9008 |
|     106 | 0x0BC5      |        3013 |
|     107 | 0x2331      |        9009 |
|     108 | 0x2332      |        9010 |
|     109 | 0x0064      |         100 |
|     110 | 0x2333      |        9011 |
|     111 | 0x2334      |        9012 |
|     112 | 0x2335      |        9013 |
|     113 | 0x2336      |        9014 |
|     114 | 0x2337      |        9015 |
|     115 | 0x2338      |        9016 |
|     116 | 0x2339      |        9017 |
|     117 | 0x233A      |        9018 |
|     118 | 0x233B      |        9019 |
|     119 | 0x233C      |        9020 |
|     120 | 0x233D      |        9021 |
|     121 | 0xFFFEA20A  |  4294877706 |
|     122 | 0x2A38      |       10808 |
|     123 | 0x0DB7      |        3511 |
|     124 | 0x233E      |        9022 |
|     125 | 0xFFFF8CFB  |  4294937851 |
|     126 | 0x54FD      |       21757 |
|     127 | 0xFFFFFD77  |  4294966647 |
|     128 | 0x089A      |        2202 |
|     129 | 0xFFFFEA2B  |  4294961707 |
|     130 | 0xFFFFDF48  |  4294958920 |
|     131 | 0xFFFEDF94  |  4294893460 |
|     132 | 0x028B      |         651 |
|     133 | 0x00D5      |         213 |
|     134 | 0x0C8A      |        3210 |
|     135 | 0x0277      |         631 |
|     136 | 0x003C      |          60 |
|     137 | 0x2343      |        9027 |
|     138 | 0x2344      |        9028 |
|     139 | 0x2345      |        9029 |
|     140 | 0x2346      |        9030 |
|     141 | 0x2347      |        9031 |
|     142 | 0x2348      |        9032 |
|     143 | 0x2349      |        9033 |
|     144 | 0x234A      |        9034 |
|     145 | 0x234B      |        9035 |
|     146 | 0x234C      |        9036 |
|     147 | 0x234D      |        9037 |
|     148 | 0x234E      |        9038 |
|     149 | 0x234F      |        9039 |
|     150 | 0x2350      |        9040 |
|     151 | 0x2351      |        9041 |
|     152 | 0x1346B     |       78955 |
|     153 | 0x2C1D4     |      180692 |
|     154 | 0x7CFF      |       31999 |
|     155 | 0x0D98      |        3480 |
|     156 | 0x12A51     |       76369 |
|     157 | 0x2DAAD     |      187053 |
|     158 | 0x0603      |        1539 |
|     159 | 0x144F3     |       83187 |
|     160 | 0x2AF59     |      175961 |
|     161 | 0x0B38      |        2872 |
|     162 | 0x2352      |        9042 |
|     163 | 0x2353      |        9043 |
|     164 | 0x0028      |          40 |
|     165 | 0x2354      |        9044 |
|     166 | 0x0019      |          25 |
|     167 | 0x2355      |        9045 |
|     168 | 0x2356      |        9046 |
|     169 | 0x2357      |        9047 |
|     170 | 0x2358      |        9048 |
|     171 | 0x2359      |        9049 |
|     172 | 0x235A      |        9050 |
|     173 | 0x235B      |        9051 |
|     174 | 0x00A9      |         169 |
|     175 | 0x235C      |        9052 |
|     176 | 0x235D      |        9053 |
|     177 | 0x235E      |        9054 |
|     178 | 0x235F      |        9055 |
|     179 | 0x2360      |        9056 |
|     180 | 0x2361      |        9057 |
|     181 | 0x2362      |        9058 |
|     182 | 0x2363      |        9059 |
|     183 | 0x2364      |        9060 |
|     184 | 0x2365      |        9061 |
|     185 | 0x2366      |        9062 |
|     186 | 0x2367      |        9063 |
|     187 | 0x2368      |        9064 |
|     188 | 0x2369      |        9065 |
|     189 | 0x236A      |        9066 |
|     190 | 0x0040      |          64 |
|     191 | 0x0078      |         120 |
|     192 | 0x236B      |        9067 |
|     193 | 0x007F      |         127 |
|     194 | 0x236C      |        9068 |
|     195 | 0x236D      |        9069 |
|     196 | 0x236E      |        9070 |
|     197 | 0x236F      |        9071 |
|     198 | 0x2370      |        9072 |
|     199 | 0x2371      |        9073 |
|     200 | 0x2372      |        9074 |
|     201 | 0x0657      |        1623 |
|     202 | 0x048B      |        1163 |
|     203 | 0x064F      |        1615 |
|     204 | 0x045D      |        1117 |
|     205 | 0x065D      |        1629 |
|     206 | 0x2373      |        9075 |
|     207 | 0x2374      |        9076 |
|     208 | 0x2375      |        9077 |
|     209 | 0x2376      |        9078 |
|     210 | 0x2377      |        9079 |
|     211 | 0x2378      |        9080 |
|     212 | 0x2379      |        9081 |
|     213 | 0x237A      |        9082 |
|     214 | 0x237B      |        9083 |
|     215 | 0x237C      |        9084 |
|     216 | 0x237D      |        9085 |
|     217 | 0x237E      |        9086 |
|     218 | 0x237F      |        9087 |
|     219 | 0x1432B     |       82731 |
|     220 | 0x2B53D     |      177469 |
|     221 | 0x0E55      |        3669 |
|     222 | 0x14AAF     |       84655 |
|     223 | 0x2BD85     |      179589 |
|     224 | 0x05FE      |        1534 |
|     225 | 0x027A      |         634 |
|     226 | 0x2384      |        9092 |
|     227 | 0x0024      |          36 |
|     228 | 0x2385      |        9093 |
|     229 | 0x2386      |        9094 |
|     230 | 0x2387      |        9095 |
|     231 | 0x0050      |          80 |
|     232 | 0x2388      |        9096 |
|     233 | 0x2389      |        9097 |
|     234 | 0x238A      |        9098 |
|     235 | 0x238B      |        9099 |
|     236 | 0x238C      |        9100 |
|     237 | 0x238D      |        9101 |
|     238 | 0x238E      |        9102 |
|     239 | 0x238F      |        9103 |
|     240 | 0x2390      |        9104 |
|     241 | 0x2391      |        9105 |
|     242 | 0x2392      |        9106 |
|     243 | 0x2393      |        9107 |
|     244 | 0x2394      |        9108 |
|     245 | 0x2395      |        9109 |
|     246 | 0x2396      |        9110 |
|     247 | 0x2398      |        9112 |
|     248 | 0x0CCD      |        3277 |
|     249 | 0x2399      |        9113 |
|     250 | 0x239A      |        9114 |
|     251 | 0x239B      |        9115 |
|     252 | 0x239C      |        9116 |
|     253 | 0x239D      |        9117 |
|     254 | 0x239E      |        9118 |
|     255 | 0x239F      |        9119 |
|     256 | 0x23A0      |        9120 |
|     257 | 0x23A1      |        9121 |
|     258 | 0x23A2      |        9122 |
|     259 | 0x23A3      |        9123 |
|     260 | 0x23A4      |        9124 |
|     261 | 0x0CCE      |        3278 |
|     262 | 0x23A5      |        9125 |
|     263 | 0x23A6      |        9126 |
|     264 | 0x23A7      |        9127 |
|     265 | 0x23AA      |        9130 |
|     266 | 0x23AB      |        9131 |
|     267 | 0x23AC      |        9132 |
|     268 | 0x0C91      |        3217 |
|     269 | 0x23AD      |        9133 |
|     270 | 0x23AE      |        9134 |
|     271 | 0x0003      |           3 |
|     272 | 0x0C90      |        3216 |
|     273 | 0x23AF      |        9135 |
|     274 | 0x23B0      |        9136 |
|     275 | 0x23B1      |        9137 |
|     276 | 0x23B2      |        9138 |
|     277 | 0x23B3      |        9139 |
|     278 | 0x23B4      |        9140 |
|     279 | 0x23B5      |        9141 |
|     280 | 0x23B6      |        9142 |
|     281 | 0x0CA3      |        3235 |
|     282 | 0x23B7      |        9143 |
|     283 | 0x23B8      |        9144 |
|     284 | 0x23B9      |        9145 |
|     285 | 0x23BA      |        9146 |
|     286 | 0x0C9F      |        3231 |
|     287 | 0x23BB      |        9147 |
|     288 | 0x23BC      |        9148 |
|     289 | 0x23DE      |        9182 |
|     290 | 0x23DF      |        9183 |
|     291 | 0x23E0      |        9184 |
|     292 | 0x23E1      |        9185 |
|     293 | 0x23BD      |        9149 |
|     294 | 0x23BE      |        9150 |
|     295 | 0x23BF      |        9151 |
|     296 | 0x23C0      |        9152 |
|     297 | 0x23C1      |        9153 |
|     298 | 0x23C2      |        9154 |
|     299 | 0x23C3      |        9155 |
|     300 | 0x23C4      |        9156 |
|     301 | 0x23C5      |        9157 |
|     302 | 0xFFFDC8CE  |  4294822094 |
|     303 | 0xFFFF8A5F  |  4294937183 |
|     304 | 0x0F9F      |        3999 |
|     305 | 0x0EE2      |        3810 |
|     306 | 0x23C6      |        9158 |
|     307 | 0x23C7      |        9159 |
|     308 | 0x23C8      |        9160 |
|     309 | 0x23C9      |        9161 |
|     310 | 0x23CA      |        9162 |
|     311 | 0x23CB      |        9163 |
|     312 | 0x23CC      |        9164 |
|     313 | 0x23CD      |        9165 |
|     314 | 0x23CE      |        9166 |
|     315 | 0x23CF      |        9167 |
|     316 | 0x23D0      |        9168 |
|     317 | 0x23D1      |        9169 |
|     318 | 0x23D2      |        9170 |
|     319 | 0x23D3      |        9171 |
|     320 | 0x23D4      |        9172 |
|     321 | 0x23D5      |        9173 |
|     322 | 0x23D6      |        9174 |
|     323 | 0x23D7      |        9175 |
|     324 | 0x23D8      |        9176 |
|     325 | 0x23D9      |        9177 |
|     326 | 0x23DA      |        9178 |
|     327 | 0x23DB      |        9179 |
|     328 | 0xFFFDF2EB  |  4294832875 |
|     329 | 0xFFFF9B12  |  4294941458 |
|     330 | 0x083F      |        2111 |
|     331 | 0x2071      |        8305 |
|     332 | 0x23DC      |        9180 |
|     333 | 0x23DD      |        9181 |
|     334 | 0xFFFDCE56  |  4294823510 |
|     335 | 0xFFFF9323  |  4294939427 |
|     336 | 0x0630      |        1584 |
|     337 | 0xFFFDB135  |  4294816053 |
|     338 | 0xFFFFAA19  |  4294945305 |
|     339 | 0x0FA0      |        4000 |
|     340 | 0xFFFFF800  |  4294965248 |
|     341 | 0x0278      |         632 |
|     342 | 0x23E3      |        9187 |
|     343 | 0x23E4      |        9188 |
|     344 | 0x23E5      |        9189 |
|     345 | 0x23E6      |        9190 |
|     346 | 0x23E7      |        9191 |
|     347 | 0x23E8      |        9192 |
|     348 | 0x0210      |         528 |
|     349 | 0x0013      |          19 |
|     350 | 0x3156      |       12630 |
|     351 | 0x3157      |       12631 |
|     352 | 0x3158      |       12632 |
|     353 | 0x3159      |       12633 |
|     354 | 0x315A      |       12634 |
|     355 | 0x315B      |       12635 |
|     356 | 0x315C      |       12636 |
|     357 | 0x315D      |       12637 |
|     358 | 0x315E      |       12638 |
|     359 | 0x315F      |       12639 |
|     360 | 0x3160      |       12640 |
|     361 | 0x3161      |       12641 |
|     362 | 0x3162      |       12642 |
|     363 | 0x3163      |       12643 |
|     364 | 0x3164      |       12644 |
|     365 | 0x3165      |       12645 |
|     366 | 0x000A      |          10 |
|     367 | 0x0008      |           8 |
|     368 | 0x006E      |         110 |
|     369 | 0x0032      |          50 |
|     370 | 0x3166      |       12646 |
|     371 | 0x3167      |       12647 |
|     372 | 0x3168      |       12648 |
|     373 | 0x3169      |       12649 |
|     374 | 0x316A      |       12650 |
|     375 | 0x316B      |       12651 |
|     376 | 0x316C      |       12652 |
|     377 | 0x00C9      |         201 |

## String References

- **8305**: @@
- **8977**: Want to fight about it? [Ready and rarin'./...]
- **8984**: How do you respond? [Distract him by humming./Try to laugh dismissively./Say you have no idea.]
- **9017**: Will you do it? [No problem./Not right now.]
- **9084**: Help out? [The pleasure is all mine./Help yourself, windbag.]
- **9100**: Anything to say? [You mean.../What rumors?]
- **9119**: How do you respond? [He's passionate about his job./Levil's great...at flapping his lips.]
- **9134**: Do you remember? [Like yesterday./That's ancient history.]
- **9148**: Accompany her? [Yes, of course./No, my ore collection calls.]
- **9165**: Anything to say? [Long live Ygnas!/What happened after that?]
- **12610**: Did you hear about it? [You bet your britches./Come again?]
- **12616**: Have anything to say? [How can I find out more?/Is there anything in the library on this?]
- **12632**: Have you heard what happened to Melvien? [Of course. What a tragedy./What's a "Melvien"?]
- **12639**: What will you ask? [What order was he, again?/What do you mean, "divvy it up"?]

## Events

### Event 65535

#### Metadata

| Field        | Value   |
|--------------|---------|
| Entrypoint   | 0x0000  |
| Data Size    | 1 bytes |
| Instructions | 1       |

```
      00 01 02 03 04 05 06 07  08 09 0A 0B 0C 0D 0E 0F
      -- -- -- -- -- -- -- --  -- -- -- -- -- -- -- --
0000: 00                                                .               
```

#### Opcodes

```
  0: 0x0000 [0x00] END_REQSTACK()
```

### Event 123

#### Metadata

| Field        | Value     |
|--------------|-----------|
| Entrypoint   | 0x0001    |
| Data Size    | 995 bytes |
| Instructions | 122       |

```
      00 01 02 03 04 05 06 07  08 09 0A 0B 0C 0D 0E 0F
      -- -- -- -- -- -- -- --  -- -- -- -- -- -- -- --
0000:    42 03 03 00 02 10 03  01 10 00 80 1A DE 3B 46   B............;F
0010: 01 38 01 80 75 00 02 80  75 01 92 01 90 00 10 01  .8..u...u.......
0020: 92 01 38 00 10 01 92 01  91 00 10 01 94 01 F0 FF  ..8.............
0030: FF 7F 94 01 90 00 10 01  94 01 38 00 10 01 94 01  ..........8.....
0040: 91 00 10 01 BA F0 FF FF  7F 03 80 04 80 05 80 06  ................
0050: 80 80 F0 FF FF 7F 80 91  00 10 01 80 90 00 10 01  ................
0060: 80 38 00 10 01 4A F0 FF  FF 7F 91 00 10 01 4A 91  .8...J........J.
0070: 00 10 01 F0 FF FF 7F 1C  07 80 45 08 80 F8 FF FF  ..........E.....
0080: 7F F8 FF FF 7F 73 31 37  39 00 80 1C 09 80 1A BD  .....s179.......
0090: 3B 66 0A 80 91 00 10 01  91 00 10 01 74 77 61 30  ;f..........twa0
00A0: 2B 91 00 10 01 0B 80 23  66 0A 80 91 00 10 01 91  +......#f.......
00B0: 00 10 01 74 77 61 31 52  08 80 F8 FF FF 7F F8 FF  ...twa1R........
00C0: FF 7F 73 31 37 39 02 87  7F 0C 80 80 E2 00 45 08  ..s179........E.
00D0: 80 F8 FF FF 7F F8 FF FF  7F 73 31 38 31 00 80 01  .........s181...
00E0: 0F 01 02 87 7F 0D 80 80  FE 00 45 08 80 F8 FF FF  ..........E.....
00F0: 7F F8 FF FF 7F 73 31 38  31 00 80 01 0F 01 45 08  .....s181.....E.
0100: 80 F8 FF FF 7F F8 FF FF  7F 73 31 38 30 00 80 24  .........s180..$
0110: 0E 80 00 80 00 80 25 02  00 10 00 80 00 77 01 6E  ......%......w.n
0120: F0 FF FF 7F 0F 80 99 F0  FF FF 7F 1C 10 80 52 08  ..............R.
0130: 80 F8 FF FF 7F F8 FF FF  7F 73 31 38 30 52 08 80  .........s180R..
0140: F8 FF FF 7F F8 FF FF 7F  73 31 38 31 45 08 80 F8  ........s181E...
0150: FF FF 7F F8 FF FF 7F 73  31 38 32 00 80 66 11 80  .......s182..f..
0160: 91 00 10 01 91 00 10 01  74 6C 6B 30 2B 91 00 10  ........tlk0+...
0170: 01 12 80 23 01 D7 01 02  00 10 13 80 00 D7 01 6E  ...#...........n
0180: F0 FF FF 7F 0D 80 99 F0  FF FF 7F 1C 10 80 52 08  ..............R.
0190: 80 F8 FF FF 7F F8 FF FF  7F 73 31 38 30 52 08 80  .........s180R..
01A0: F8 FF FF 7F F8 FF FF 7F  73 31 38 31 45 08 80 F8  ........s181E...
01B0: FF FF 7F F8 FF FF 7F 73  31 38 32 00 80 66 11 80  .......s182..f..
01C0: 91 00 10 01 91 00 10 01  74 6C 6B 30 2B 91 00 10  ........tlk0+...
01D0: 01 14 80 23 01 D7 01 66  11 80 91 00 10 01 91 00  ...#...f........
01E0: 10 01 74 6C 6B 31 1C 09  80 52 08 80 F8 FF FF 7F  ..tlk1...R......
01F0: F8 FF FF 7F 73 31 38 32  45 08 80 F8 FF FF 7F F8  ....s182E.......
0200: FF FF 7F 73 31 38 34 00  80 2B 91 00 10 01 15 80  ...s184..+......
0210: 23 52 08 80 F8 FF FF 7F  F8 FF FF 7F 73 31 38 34  #R..........s184
0220: 45 08 80 F8 FF FF 7F F8  FF FF 7F 73 31 38 33 00  E..........s183.
0230: 80 66 0A 80 91 00 10 01  91 00 10 01 74 77 61 30  .f..........twa0
0240: 2B 91 00 10 01 16 80 23  2B 91 00 10 01 17 80 23  +......#+......#
0250: 66 0A 80 91 00 10 01 91  00 10 01 74 77 61 31 06  f..........twa1.
0260: 04 00 02 03 00 13 80 00  6D 02 01 74 02 3C 04 00  ........m..t.<..
0270: 13 80 13 80 24 18 80 00  80 04 00 25 02 00 10 00  ....$......%....
0280: 80 00 FD 02 52 08 80 F8  FF FF 7F F8 FF FF 7F 73  ....R..........s
0290: 31 38 33 45 08 80 F8 FF  FF 7F F8 FF FF 7F 73 31  183E..........s1
02A0: 38 35 00 80 66 0A 80 91  00 10 01 91 00 10 01 74  85..f..........t
02B0: 77 61 30 1C 09 80 2B 91  00 10 01 19 80 23 66 0A  wa0...+......#f.
02C0: 80 91 00 10 01 91 00 10  01 74 77 61 31 52 08 80  .........twa1R..
02D0: F8 FF FF 7F F8 FF FF 7F  73 31 38 35 45 08 80 F8  ........s185E...
02E0: FF FF 7F F8 FF FF 7F 73  31 38 37 00 80 53 91 00  .......s187..S..
02F0: 10 01 91 00 10 01 74 77  61 31 01 83 03 02 00 10  ......twa1......
0300: 13 80 00 83 03 52 08 80  F8 FF FF 7F F8 FF FF 7F  .....R..........
0310: 73 31 38 33 45 08 80 F8  FF FF 7F F8 FF FF 7F 73  s183E..........s
0320: 31 38 36 00 80 66 11 80  91 00 10 01 91 00 10 01  186..f..........
0330: 74 6C 6B 30 1C 09 80 03  02 10 1A 80 2B 91 00 10  tlk0........+...
0340: 01 1B 80 23 66 11 80 91  00 10 01 91 00 10 01 74  ...#f..........t
0350: 6C 6B 31 52 08 80 F8 FF  FF 7F F8 FF FF 7F 73 31  lk1R..........s1
0360: 38 36 45 08 80 F8 FF FF  7F F8 FF FF 7F 73 31 38  86E..........s18
0370: 37 00 80 53 91 00 10 01  91 00 10 01 74 6C 6B 31  7..S........tlk1
0380: 01 83 03 7B 91 00 10 01  66 11 80 91 00 10 01 91  ...{....f.......
0390: 00 10 01 74 68 6B 30 1C  1C 80 2B 91 00 10 01 1D  ...thk0...+.....
03A0: 80 23 1A DE 3B 52 08 80  F8 FF FF 7F F8 FF FF 7F  .#..;R..........
03B0: 73 31 38 37 45 08 80 F8  FF FF 7F F8 FF FF 7F 30  s187E..........0
03C0: 62 6C 66 00 80 1C 09 80  AB 11 00 80 1C 13 80 46  blf............F
03D0: 00 45 1E 80 F0 FF FF 7F  F0 FF FF 7F 66 64 69 32  .E..........fdi2
03E0: 00 80 21 00                                       ..!.            
```

#### Opcodes

```
  0: 0x0001 [0x42] SET_CLI_EVENT_CANCEL_DATA()
  1: 0x0002 [0x03] ExtData[1]->WorkLocal[3] = Work_Zone[2]
  2: 0x0007 [0x03] Work_Zone[1] = 0*
  3: 0x000C [0x1A] CALL_SUBROUTINE(address=0x3BDE)
  4: 0x000F [0x46] CAMERA_CONTROL: Disable user control
  5: 0x0011 [0x38] SET_CLIENT_EVENT_MODE(mode=147*)
  6: 0x0014 [0x75] LOAD_ROOM(Load indoor room, room=585*)
  7: 0x0018 [0x75] LOAD_ROOM(No action)
  8: 0x001A [0x92] Brenton (ID: 17825936/0x01100090)->Render.Flags3 ^= 0x01
  9: 0x0020 [0x92] Task Delegator (ID: 17825848/0x01100038)->Render.Flags3 ^= 0x01
 10: 0x0026 [0x92] Levil (ID: 17825937/0x01100091)->Render.Flags3 ^= 0x01
 11: 0x002C [0x94] LocalPlayer->Render.Flags3 ^= 0x01
 12: 0x0032 [0x94] Brenton (ID: 17825936/0x01100090)->Render.Flags3 ^= 0x01
 13: 0x0038 [0x94] Task Delegator (ID: 17825848/0x01100038)->Render.Flags3 ^= 0x01
 14: 0x003E [0x94] Levil (ID: 17825937/0x01100091)->Render.Flags3 ^= 0x01
 15: 0x0044 [0xBA] SET_ENTITY_POSITION(entity_id=LocalPlayer, pos_x=-89.372*, pos_z=13.649*, pos_y=3.349*, direction=23.7°*)
 16: 0x0051 [0x80] LOAD_WAIT(entity=LocalPlayer)
 17: 0x0056 [0x80] LOAD_WAIT(entity=Levil (ID: 17825937/0x01100091))
 18: 0x005B [0x80] LOAD_WAIT(entity=Brenton (ID: 17825936/0x01100090))
 19: 0x0060 [0x80] LOAD_WAIT(entity=Task Delegator (ID: 17825848/0x01100038))
 20: 0x0065 [0x4A] LocalPlayer looks at Levil (ID: 17825937/0x01100091)
 21: 0x006E [0x4A] Levil (ID: 17825937/0x01100091) looks at LocalPlayer
 22: 0x0077 [0x1C] WAIT(30* ticks)
 23: 0x007A [0x45] LOAD_SCHEDULED_TASK: Load scheduler "s179" with entities [EventEntity, EventEntity], work=[622*, 0*]
 24: 0x008B [0x1C] WAIT(15* ticks)
 25: 0x008E [0x1A] CALL_SUBROUTINE(address=0x3BBD)
 26: 0x0091 [0x66] LOAD_EXT_SCHEDULER_MAIN: Load scheduler "twa0" with entities [Levil (ID: 17825937/0x01100091), Levil (ID: 17825937/0x01100091)], work=9*
 27: 0x00A0 [0x2B] Levil (ID: 17825937/0x01100091) [12609*]:
    → "Well, burn my brambles and call me a ghost town, if it ain't <Player>. Did you hear about the official duel in the Rala Waterways?"
 28: 0x00A7 [0x23] WAIT_FOR_DIALOG_INTERACTION
 29: 0x00A8 [0x66] LOAD_EXT_SCHEDULER_MAIN: Load scheduler "twa1" with entities [Levil (ID: 17825937/0x01100091), Levil (ID: 17825937/0x01100091)], work=9*
 30: 0x00B7 [0x52] END_LOAD_SCHEDULER: End scheduler "s179" with entities [EventEntity, EventEntity], work=622*
 31: 0x00C6 [0x02] IF !(LocalPlayer->Race == 5*) GOTO 0x00E2
 32: 0x00CE [0x45] LOAD_SCHEDULED_TASK: Load scheduler "s181" with entities [EventEntity, EventEntity], work=[622*, 0*]
 33: 0x00DF [0x01] GOTO 0x010F
 34: 0x00E2 [0x02] IF !(LocalPlayer->Race == 6*) GOTO 0x00FE
 35: 0x00EA [0x45] LOAD_SCHEDULED_TASK: Load scheduler "s181" with entities [EventEntity, EventEntity], work=[622*, 0*]
 36: 0x00FB [0x01] GOTO 0x010F
 37: 0x00FE [0x45] LOAD_SCHEDULED_TASK: Load scheduler "s180" with entities [EventEntity, EventEntity], work=[622*, 0*]

SUBROUTINE_010F:
 38: 0x010F [0x24] CREATE_DIALOG(message_id=12610*, default_option=0*, option_flags=0*)
    → "Did you hear about it? [You bet your britches./Come again?]"
 39: 0x0116 [0x25] WAIT_DIALOG_SELECT()
 40: 0x0117 [0x02] IF !(Work_Zone[0] == 0*) GOTO 0x0177
 41: 0x011F [0x6E] LocalPlayer uses emote 7*
 42: 0x0126 [0x99] Wait for LocalPlayer animation to complete
 43: 0x012B [0x1C] WAIT(75* ticks)
 44: 0x012E [0x52] END_LOAD_SCHEDULER: End scheduler "s180" with entities [EventEntity, EventEntity], work=622*
 45: 0x013D [0x52] END_LOAD_SCHEDULER: End scheduler "s181" with entities [EventEntity, EventEntity], work=622*
 46: 0x014C [0x45] LOAD_SCHEDULED_TASK: Load scheduler "s182" with entities [EventEntity, EventEntity], work=[622*, 0*]
 47: 0x015D [0x66] LOAD_EXT_SCHEDULER_MAIN: Load scheduler "tlk0" with entities [Levil (ID: 17825937/0x01100091), Levil (ID: 17825937/0x01100091)], work=149*
 48: 0x016C [0x2B] Levil (ID: 17825937/0x01100091) [12611*]:
    → "Of course you did. Then I guess you done know the outcome already, eh?"
 49: 0x0173 [0x23] WAIT_FOR_DIALOG_INTERACTION
 50: 0x0174 [0x01] GOTO 0x01D7
 51: 0x0177 [0x02] IF !(Work_Zone[0] == 1*) GOTO 0x01D7
 52: 0x017F [0x6E] LocalPlayer uses emote 6*
 53: 0x0186 [0x99] Wait for LocalPlayer animation to complete
 54: 0x018B [0x1C] WAIT(75* ticks)
 55: 0x018E [0x52] END_LOAD_SCHEDULER: End scheduler "s180" with entities [EventEntity, EventEntity], work=622*
 56: 0x019D [0x52] END_LOAD_SCHEDULER: End scheduler "s181" with entities [EventEntity, EventEntity], work=622*
 57: 0x01AC [0x45] LOAD_SCHEDULED_TASK: Load scheduler "s182" with entities [EventEntity, EventEntity], work=[622*, 0*]
 58: 0x01BD [0x66] LOAD_EXT_SCHEDULER_MAIN: Load scheduler "tlk0" with entities [Levil (ID: 17825937/0x01100091), Levil (ID: 17825937/0x01100091)], work=149*
 59: 0x01CC [0x2B] Levil (ID: 17825937/0x01100091) [12612*]:
    → "Well, it's no skin off yer back, I guess. Personally, havin' outsiders learn about this unsav'ry custom of ours makes me redder'n a brandin' iron."
 60: 0x01D3 [0x23] WAIT_FOR_DIALOG_INTERACTION
 61: 0x01D4 [0x01] GOTO 0x01D7

SUBROUTINE_01D7:
 62: 0x01D7 [0x66] LOAD_EXT_SCHEDULER_MAIN: Load scheduler "tlk1" with entities [Levil (ID: 17825937/0x01100091), Levil (ID: 17825937/0x01100091)], work=149*
 63: 0x01E6 [0x1C] WAIT(15* ticks)
 64: 0x01E9 [0x52] END_LOAD_SCHEDULER: End scheduler "s182" with entities [EventEntity, EventEntity], work=622*
 65: 0x01F8 [0x45] LOAD_SCHEDULED_TASK: Load scheduler "s184" with entities [EventEntity, EventEntity], work=[622*, 0*]
 66: 0x0209 [0x2B] Levil (ID: 17825937/0x01100091) [12613*]:
    → "No matter the result, it's what they was fightin' 'bout that really gets the blood boilin'."
 67: 0x0210 [0x23] WAIT_FOR_DIALOG_INTERACTION
 68: 0x0211 [0x52] END_LOAD_SCHEDULER: End scheduler "s184" with entities [EventEntity, EventEntity], work=622*
 69: 0x0220 [0x45] LOAD_SCHEDULED_TASK: Load scheduler "s183" with entities [EventEntity, EventEntity], work=[622*, 0*]
 70: 0x0231 [0x66] LOAD_EXT_SCHEDULER_MAIN: Load scheduler "twa0" with entities [Levil (ID: 17825937/0x01100091), Levil (ID: 17825937/0x01100091)], work=9*
 71: 0x0240 [0x2B] Levil (ID: 17825937/0x01100091) [12614*]:
    → "Ever since Grand Chancellor Ygnas reinstated colonization, those in favor and those against be squarin' off somethin' fierce. At each other's throats like rabid lapinions, I say."
 72: 0x0247 [0x23] WAIT_FOR_DIALOG_INTERACTION
 73: 0x0248 [0x2B] Levil (ID: 17825937/0x01100091) [12615*]:
    → "This ain't the first incident, neither. With all the young'uns 'round here more ornery 'bout this topic than a Velkk with a toothache, it ain't hard to see why tensions be a-flarin'."
 74: 0x024F [0x23] WAIT_FOR_DIALOG_INTERACTION
 75: 0x0250 [0x66] LOAD_EXT_SCHEDULER_MAIN: Load scheduler "twa1" with entities [Levil (ID: 17825937/0x01100091), Levil (ID: 17825937/0x01100091)], work=9*
 76: 0x025F [0x06] ExtData[1]->WorkLocal[4] = 0
 77: 0x0262 [0x02] IF !(ExtData[1]->WorkLocal[3] == 1*) GOTO 0x026D
 78: 0x026A [0x01] GOTO 0x0274
 79: 0x026D [0x3C] SET_BIT_FLAG_CONDITIONAL(target_work_offset=ExtData[1]->WorkLocal[4], bit_index_work_offset=1*, condition_work_offset=1*)

SUBROUTINE_0274:
 80: 0x0274 [0x24] CREATE_DIALOG(message_id=12616*, default_option=0*, option_flags=ExtData[1]->WorkLocal[4])
    → "Have anything to say? [How can I find out more?/Is there anything in the library on this?]"
 81: 0x027B [0x25] WAIT_DIALOG_SELECT()
 82: 0x027C [0x02] IF !(Work_Zone[0] == 0*) GOTO 0x02FD
 83: 0x0284 [0x52] END_LOAD_SCHEDULER: End scheduler "s183" with entities [EventEntity, EventEntity], work=622*
 84: 0x0293 [0x45] LOAD_SCHEDULED_TASK: Load scheduler "s185" with entities [EventEntity, EventEntity], work=[622*, 0*]
 85: 0x02A4 [0x66] LOAD_EXT_SCHEDULER_MAIN: Load scheduler "twa0" with entities [Levil (ID: 17825937/0x01100091), Levil (ID: 17825937/0x01100091)], work=9*
 86: 0x02B3 [0x1C] WAIT(15* ticks)
 87: 0x02B6 [0x2B] Levil (ID: 17825937/0x01100091) [12617*]:
    → "...Well, I ain't much of no reader, but iff'n yer lookin' to turn a page or two about all the ill will between the two factions, the $7 is a good place to start."
 88: 0x02BD [0x23] WAIT_FOR_DIALOG_INTERACTION
 89: 0x02BE [0x66] LOAD_EXT_SCHEDULER_MAIN: Load scheduler "twa1" with entities [Levil (ID: 17825937/0x01100091), Levil (ID: 17825937/0x01100091)], work=9*
 90: 0x02CD [0x52] END_LOAD_SCHEDULER: End scheduler "s185" with entities [EventEntity, EventEntity], work=622*
 91: 0x02DC [0x45] LOAD_SCHEDULED_TASK: Load scheduler "s187" with entities [EventEntity, EventEntity], work=[622*, 0*]
 92: 0x02ED [0x53] WAIT_SCHEDULER_TASK: Wait for scheduler "twa1" with entities [Levil (ID: 17825937/0x01100091), Levil (ID: 17825937/0x01100091)]
 93: 0x02FA [0x01] GOTO 0x0383
 94: 0x02FD [0x02] IF !(Work_Zone[0] == 1*) GOTO 0x0383
 95: 0x0305 [0x52] END_LOAD_SCHEDULER: End scheduler "s183" with entities [EventEntity, EventEntity], work=622*
 96: 0x0314 [0x45] LOAD_SCHEDULED_TASK: Load scheduler "s186" with entities [EventEntity, EventEntity], work=[622*, 0*]
 97: 0x0325 [0x66] LOAD_EXT_SCHEDULER_MAIN: Load scheduler "tlk0" with entities [Levil (ID: 17825937/0x01100091), Levil (ID: 17825937/0x01100091)], work=149*
 98: 0x0334 [0x1C] WAIT(15* ticks)
 99: 0x0337 [0x03] Work_Zone[2] = 2411*
100: 0x033C [0x2B] Levil (ID: 17825937/0x01100091) [12618*]:
    → "Leapin' leafkin, <Player>! I ain't know you done had $6 on you. You're bound and hog-tied to find somethin' in the $7 on this whole hullabaloo."
101: 0x0343 [0x23] WAIT_FOR_DIALOG_INTERACTION
102: 0x0344 [0x66] LOAD_EXT_SCHEDULER_MAIN: Load scheduler "tlk1" with entities [Levil (ID: 17825937/0x01100091), Levil (ID: 17825937/0x01100091)], work=149*
103: 0x0353 [0x52] END_LOAD_SCHEDULER: End scheduler "s186" with entities [EventEntity, EventEntity], work=622*
104: 0x0362 [0x45] LOAD_SCHEDULED_TASK: Load scheduler "s187" with entities [EventEntity, EventEntity], work=[622*, 0*]
105: 0x0373 [0x53] WAIT_SCHEDULER_TASK: Wait for scheduler "tlk1" with entities [Levil (ID: 17825937/0x01100091), Levil (ID: 17825937/0x01100091)]
106: 0x0380 [0x01] GOTO 0x0383

SUBROUTINE_0383:
107: 0x0383 [0x7B] Levil (ID: 17825937/0x01100091) stops talking
108: 0x0388 [0x66] LOAD_EXT_SCHEDULER_MAIN: Load scheduler "thk0" with entities [Levil (ID: 17825937/0x01100091), Levil (ID: 17825937/0x01100091)], work=149*
109: 0x0397 [0x1C] WAIT(45* ticks)
110: 0x039A [0x2B] Levil (ID: 17825937/0x01100091) [12619*]:
    → "There's one title in partic'lar on the tip o' my tongue, but..."
111: 0x03A1 [0x23] WAIT_FOR_DIALOG_INTERACTION
112: 0x03A2 [0x1A] CALL_SUBROUTINE(address=0x3BDE)
113: 0x03A5 [0x52] END_LOAD_SCHEDULER: End scheduler "s187" with entities [EventEntity, EventEntity], work=622*
114: 0x03B4 [0x45] LOAD_SCHEDULED_TASK: Load scheduler "0blf" with entities [EventEntity, EventEntity], work=[622*, 0*]
115: 0x03C5 [0x1C] WAIT(15* ticks)
116: 0x03C8 [0xAB] EventEntity->DespawnValue = 0* // Set despawn value
117: 0x03CC [0x1C] WAIT(1* ticks)
118: 0x03CF [0x46] CAMERA_CONTROL: Restore default settings
119: 0x03D1 [0x45] LOAD_SCHEDULED_TASK: Load scheduler "fdi2" with entities [LocalPlayer, LocalPlayer], work=[200*, 0*]
120: 0x03E2 [0x21] END_EVENT
121: 0x03E3 [0x00] END_REQSTACK()
```

### Event 125

#### Metadata

| Field        | Value     |
|--------------|-----------|
| Entrypoint   | 0x03E4    |
| Data Size    | 398 bytes |
| Instructions | 56        |

```
      00 01 02 03 04 05 06 07  08 09 0A 0B 0C 0D 0E 0F
      -- -- -- -- -- -- -- --  -- -- -- -- -- -- -- --
03E0:             42 03 01 10  00 80 1A DE 3B 46 01 38      B.......;F.8
03F0: 01 80 75 00 02 80 75 01  92 01 90 00 10 01 92 01  ..u...u.........
0400: 38 00 10 01 92 01 91 00  10 01 94 01 F0 FF FF 7F  8...............
0410: 94 01 90 00 10 01 94 01  38 00 10 01 94 01 91 00  ........8.......
0420: 10 01 BA F0 FF FF 7F 03  80 04 80 05 80 06 80 80  ................
0430: F0 FF FF 7F 80 91 00 10  01 80 90 00 10 01 80 38  ...............8
0440: 00 10 01 4A F0 FF FF 7F  91 00 10 01 4A 91 00 10  ...J........J...
0450: 01 F0 FF FF 7F 1C 07 80  45 08 80 F8 FF FF 7F F8  ........E.......
0460: FF FF 7F 73 30 30 30 00  80 1A BD 3B 66 0A 80 91  ...s000....;f...
0470: 00 10 01 91 00 10 01 74  77 61 30 2B 91 00 10 01  .......twa0+....
0480: 1F 80 23 52 08 80 F8 FF  FF 7F F8 FF FF 7F 73 30  ..#R..........s0
0490: 30 30 45 08 80 F8 FF FF  7F F8 FF FF 7F 73 31 37  00E..........s17
04A0: 35 00 80 2B 91 00 10 01  20 80 23 52 08 80 F8 FF  5..+.... .#R....
04B0: FF 7F F8 FF FF 7F 73 31  37 35 45 08 80 F8 FF FF  ......s175E.....
04C0: 7F F8 FF FF 7F 73 31 37  37 00 80 2B 91 00 10 01  .....s177..+....
04D0: 21 80 23 52 08 80 F8 FF  FF 7F F8 FF FF 7F 73 31  !.#R..........s1
04E0: 37 37 45 08 80 F8 FF FF  7F F8 FF FF 7F 73 31 39  77E..........s19
04F0: 31 00 80 66 0A 80 91 00  10 01 91 00 10 01 74 77  1..f..........tw
0500: 61 31 1C 07 80 2B 91 00  10 01 22 80 23 52 08 80  a1...+....".#R..
0510: F8 FF FF 7F F8 FF FF 7F  73 31 39 31 45 08 80 F8  ........s191E...
0520: FF FF 7F F8 FF FF 7F 73  31 37 38 00 80 6E 91 00  .......s178..n..
0530: 10 01 0F 80 99 91 00 10  01 2B 91 00 10 01 23 80  .........+....#.
0540: 23 1A DE 3B 52 08 80 F8  FF FF 7F F8 FF FF 7F 73  #..;R..........s
0550: 31 37 38 1C 09 80 AB 11  00 80 1C 13 80 46 00 45  178..........F.E
0560: 1E 80 F0 FF FF 7F F0 FF  FF 7F 66 64 69 32 00 80  ..........fdi2..
0570: 21 00                                             !.              
```

#### Opcodes

```
  0: 0x03E4 [0x42] SET_CLI_EVENT_CANCEL_DATA()
  1: 0x03E5 [0x03] Work_Zone[1] = 0*
  2: 0x03EA [0x1A] CALL_SUBROUTINE(address=0x3BDE)
  3: 0x03ED [0x46] CAMERA_CONTROL: Disable user control
  4: 0x03EF [0x38] SET_CLIENT_EVENT_MODE(mode=147*)
  5: 0x03F2 [0x75] LOAD_ROOM(Load indoor room, room=585*)
  6: 0x03F6 [0x75] LOAD_ROOM(No action)
  7: 0x03F8 [0x92] Brenton (ID: 17825936/0x01100090)->Render.Flags3 ^= 0x01
  8: 0x03FE [0x92] Task Delegator (ID: 17825848/0x01100038)->Render.Flags3 ^= 0x01
  9: 0x0404 [0x92] Levil (ID: 17825937/0x01100091)->Render.Flags3 ^= 0x01
 10: 0x040A [0x94] LocalPlayer->Render.Flags3 ^= 0x01
 11: 0x0410 [0x94] Brenton (ID: 17825936/0x01100090)->Render.Flags3 ^= 0x01
 12: 0x0416 [0x94] Task Delegator (ID: 17825848/0x01100038)->Render.Flags3 ^= 0x01
 13: 0x041C [0x94] Levil (ID: 17825937/0x01100091)->Render.Flags3 ^= 0x01
 14: 0x0422 [0xBA] SET_ENTITY_POSITION(entity_id=LocalPlayer, pos_x=-89.372*, pos_z=13.649*, pos_y=3.349*, direction=23.7°*)
 15: 0x042F [0x80] LOAD_WAIT(entity=LocalPlayer)
 16: 0x0434 [0x80] LOAD_WAIT(entity=Levil (ID: 17825937/0x01100091))
 17: 0x0439 [0x80] LOAD_WAIT(entity=Brenton (ID: 17825936/0x01100090))
 18: 0x043E [0x80] LOAD_WAIT(entity=Task Delegator (ID: 17825848/0x01100038))
 19: 0x0443 [0x4A] LocalPlayer looks at Levil (ID: 17825937/0x01100091)
 20: 0x044C [0x4A] Levil (ID: 17825937/0x01100091) looks at LocalPlayer
 21: 0x0455 [0x1C] WAIT(30* ticks)
 22: 0x0458 [0x45] LOAD_SCHEDULED_TASK: Load scheduler "s000" with entities [EventEntity, EventEntity], work=[622*, 0*]
 23: 0x0469 [0x1A] CALL_SUBROUTINE(address=0x3BBD)
 24: 0x046C [0x66] LOAD_EXT_SCHEDULER_MAIN: Load scheduler "twa0" with entities [Levil (ID: 17825937/0x01100091), Levil (ID: 17825937/0x01100091)], work=9*
 25: 0x047B [0x2B] Levil (ID: 17825937/0x01100091) [12620*]:
    → "Aha, it's you, <Player>. I never need to break out the ol' lasso when you're around. You always seem to know exactly when I need to find you."
 26: 0x0482 [0x23] WAIT_FOR_DIALOG_INTERACTION
 27: 0x0483 [0x52] END_LOAD_SCHEDULER: End scheduler "s000" with entities [EventEntity, EventEntity], work=622*
 28: 0x0492 [0x45] LOAD_SCHEDULED_TASK: Load scheduler "s175" with entities [EventEntity, EventEntity], work=[622*, 0*]
 29: 0x04A3 [0x2B] Levil (ID: 17825937/0x01100091) [12621*]:
    → "We've heard a few whoops 'n 'ollers from concerned citizens about some young people skirtin' in 'n out of the waterways. It looks like they're up to no good, given all the whisperin' and mumblin' they do."
 30: 0x04AA [0x23] WAIT_FOR_DIALOG_INTERACTION
 31: 0x04AB [0x52] END_LOAD_SCHEDULER: End scheduler "s175" with entities [EventEntity, EventEntity], work=622*
 32: 0x04BA [0x45] LOAD_SCHEDULED_TASK: Load scheduler "s177" with entities [EventEntity, EventEntity], work=[622*, 0*]
 33: 0x04CB [0x2B] Levil (ID: 17825937/0x01100091) [12622*]:
    → "Now, I'd say these reports hold about as much water as an upside-down plate, and it seems the Peacekeepers' Coalition is inclined to agree. They won't have any of it."
 34: 0x04D2 [0x23] WAIT_FOR_DIALOG_INTERACTION
 35: 0x04D3 [0x52] END_LOAD_SCHEDULER: End scheduler "s177" with entities [EventEntity, EventEntity], work=622*
 36: 0x04E2 [0x45] LOAD_SCHEDULED_TASK: Load scheduler "s191" with entities [EventEntity, EventEntity], work=[622*, 0*]
 37: 0x04F3 [0x66] LOAD_EXT_SCHEDULER_MAIN: Load scheduler "twa1" with entities [Levil (ID: 17825937/0x01100091), Levil (ID: 17825937/0x01100091)], work=9*
 38: 0x0502 [0x1C] WAIT(30* ticks)
 39: 0x0505 [0x2B] Levil (ID: 17825937/0x01100091) [12623*]:
    → "I know they seem insignificant, but we need to cover all corners o' the corral on the off chance they're true. Especially given the hist'ry of the issue and that duel the other day."
 40: 0x050C [0x23] WAIT_FOR_DIALOG_INTERACTION
 41: 0x050D [0x52] END_LOAD_SCHEDULER: End scheduler "s191" with entities [EventEntity, EventEntity], work=622*
 42: 0x051C [0x45] LOAD_SCHEDULED_TASK: Load scheduler "s178" with entities [EventEntity, EventEntity], work=[622*, 0*]
 43: 0x052D [0x6E] Levil (ID: 17825937/0x01100091) uses emote 7*
 44: 0x0534 [0x99] Wait for Levil (ID: 17825937/0x01100091) animation to complete
 45: 0x0539 [0x2B] Levil (ID: 17825937/0x01100091) [12624*]:
    → "Could you do me a favor and mosey on down to the Rala Waterways to check things out?"
 46: 0x0540 [0x23] WAIT_FOR_DIALOG_INTERACTION
 47: 0x0541 [0x1A] CALL_SUBROUTINE(address=0x3BDE)
 48: 0x0544 [0x52] END_LOAD_SCHEDULER: End scheduler "s178" with entities [EventEntity, EventEntity], work=622*
 49: 0x0553 [0x1C] WAIT(15* ticks)
 50: 0x0556 [0xAB] EventEntity->DespawnValue = 0* // Set despawn value
 51: 0x055A [0x1C] WAIT(1* ticks)
 52: 0x055D [0x46] CAMERA_CONTROL: Restore default settings
 53: 0x055F [0x45] LOAD_SCHEDULED_TASK: Load scheduler "fdi2" with entities [LocalPlayer, LocalPlayer], work=[200*, 0*]
 54: 0x0570 [0x21] END_EVENT
 55: 0x0571 [0x00] END_REQSTACK()
```

### Event 154

#### Metadata

| Field        | Value      |
|--------------|------------|
| Entrypoint   | 0x0572     |
| Data Size    | 3163 bytes |
| Instructions | 388        |

```
      00 01 02 03 04 05 06 07  08 09 0A 0B 0C 0D 0E 0F
      -- -- -- -- -- -- -- --  -- -- -- -- -- -- -- --
0570:       42 03 01 10 00 80  1A DE 3B 46 01 38 01 80    B.......;F.8..
0580: 75 00 02 80 75 01 77 24  80 25 80 92 01 90 00 10  u...u.w$.%......
0590: 01 92 01 38 00 10 01 92  01 91 00 10 01 94 01 F0  ...8............
05A0: FF FF 7F 94 01 90 00 10  01 94 01 38 00 10 01 94  ...........8....
05B0: 01 91 00 10 01 BA F0 FF  FF 7F 03 80 04 80 05 80  ................
05C0: 06 80 80 F0 FF FF 7F 80  91 00 10 01 80 90 00 10  ................
05D0: 01 80 38 00 10 01 4A F0  FF FF 7F 91 00 10 01 4A  ..8...J........J
05E0: 91 00 10 01 F0 FF FF 7F  1C 07 80 45 26 80 F8 FF  ...........E&...
05F0: FF 7F F8 FF FF 7F 73 30  37 32 00 80 1C 09 80 1A  ......s072......
0600: BD 3B 9F 27 80 91 00 10  01 91 00 10 01 6D 61 69  .;.'.........mai
0610: 6E 00 80 2B 91 00 10 01  28 80 23 52 26 80 F8 FF  n..+....(.#R&...
0620: FF 7F F8 FF FF 7F 73 30  37 32 45 26 80 F8 FF FF  ......s072E&....
0630: 7F F8 FF FF 7F 73 30 37  33 00 80 6E 91 00 10 01  .....s073..n....
0640: 29 80 99 91 00 10 01 2B  91 00 10 01 2A 80 23 52  )......+....*.#R
0650: 26 80 F8 FF FF 7F F8 FF  FF 7F 73 30 37 33 02 87  &.........s073..
0660: 7F 0C 80 80 7A 06 45 26  80 F8 FF FF 7F F8 FF FF  ....z.E&........
0670: 7F 73 30 37 35 00 80 01  A7 06 02 87 7F 0D 80 80  .s075...........
0680: 96 06 45 26 80 F8 FF FF  7F F8 FF FF 7F 73 30 37  ..E&.........s07
0690: 35 00 80 01 A7 06 45 26  80 F8 FF FF 7F F8 FF FF  5.....E&........
06A0: 7F 73 30 37 34 00 80 24  2B 80 00 80 00 80 25 02  .s074..$+.....%.
06B0: 00 10 00 80 00 0C 07 6E  F0 FF FF 7F 0F 80 99 F0  .......n........
06C0: FF FF 7F 1C 2C 80 6E 91  00 10 01 2D 80 99 91 00  ....,.n....-....
06D0: 10 01 52 26 80 F8 FF FF  7F F8 FF FF 7F 73 30 37  ..R&.........s07
06E0: 34 52 26 80 F8 FF FF 7F  F8 FF FF 7F 73 30 37 35  4R&.........s075
06F0: 45 26 80 F8 FF FF 7F F8  FF FF 7F 73 30 37 36 00  E&.........s076.
0700: 80 2B 91 00 10 01 2E 80  23 01 4E 07 02 00 10 13  .+......#.N.....
0710: 80 00 4E 07 52 26 80 F8  FF FF 7F F8 FF FF 7F 73  ..N.R&.........s
0720: 30 37 34 52 26 80 F8 FF  FF 7F F8 FF FF 7F 73 30  074R&.........s0
0730: 37 35 45 26 80 F8 FF FF  7F F8 FF FF 7F 73 30 37  75E&.........s07
0740: 37 00 80 2B 91 00 10 01  2F 80 23 01 4E 07 52 26  7..+..../.#.N.R&
0750: 80 F8 FF FF 7F F8 FF FF  7F 73 30 37 36 52 26 80  .........s076R&.
0760: F8 FF FF 7F F8 FF FF 7F  73 30 37 37 45 26 80 F8  ........s077E&..
0770: FF FF 7F F8 FF FF 7F 73  30 37 38 00 80 66 0A 80  .......s078..f..
0780: 91 00 10 01 91 00 10 01  74 6C 6B 30 2B 91 00 10  ........tlk0+...
0790: 01 30 80 23 2B 91 00 10  01 31 80 23 52 26 80 F8  .0.#+....1.#R&..
07A0: FF FF 7F F8 FF FF 7F 73  30 37 38 45 26 80 F8 FF  .......s078E&...
07B0: FF 7F F8 FF FF 7F 73 30  37 39 00 80 66 0A 80 91  ......s079..f...
07C0: 00 10 01 91 00 10 01 74  6C 6B 31 2B 91 00 10 01  .......tlk1+....
07D0: 32 80 23 2B 91 00 10 01  33 80 23 52 26 80 F8 FF  2.#+....3.#R&...
07E0: FF 7F F8 FF FF 7F 73 30  37 39 02 87 7F 0C 80 80  ......s079......
07F0: 06 08 45 26 80 F8 FF FF  7F F8 FF FF 7F 73 30 37  ..E&.........s07
0800: 35 00 80 01 33 08 02 87  7F 0D 80 80 22 08 45 26  5...3.......".E&
0810: 80 F8 FF FF 7F F8 FF FF  7F 73 30 37 35 00 80 01  .........s075...
0820: 33 08 45 26 80 F8 FF FF  7F F8 FF FF 7F 73 30 37  3.E&.........s07
0830: 34 00 80 24 34 80 00 80  00 80 25 02 00 10 00 80  4..$4.....%.....
0840: 00 AC 08 6E F0 FF FF 7F  35 80 99 F0 FF FF 7F 1C  ...n....5.......
0850: 36 80 9F 27 80 F0 FF FF  7F F0 FF FF 7F 6D 61 69  6..'.........mai
0860: 6E 00 80 1C 37 80 52 26  80 F8 FF FF 7F F8 FF FF  n...7.R&........
0870: 7F 73 30 37 34 52 26 80  F8 FF FF 7F F8 FF FF 7F  .s074R&.........
0880: 73 30 37 35 45 26 80 F8  FF FF 7F F8 FF FF 7F 73  s075E&.........s
0890: 30 38 30 00 80 6E 91 00  10 01 0D 80 99 91 00 10  080..n..........
08A0: 01 2B 91 00 10 01 38 80  23 01 66 09 02 00 10 13  .+....8.#.f.....
08B0: 80 00 09 09 6E F0 FF FF  7F 39 80 99 F0 FF FF 7F  ....n....9......
08C0: 1C 2C 80 52 26 80 F8 FF  FF 7F F8 FF FF 7F 73 30  .,.R&.........s0
08D0: 37 34 52 26 80 F8 FF FF  7F F8 FF FF 7F 73 30 37  74R&.........s07
08E0: 35 45 26 80 F8 FF FF 7F  F8 FF FF 7F 73 30 38 30  5E&.........s080
08F0: 00 80 6E 91 00 10 01 29  80 99 91 00 10 01 2B 91  ..n....)......+.
0900: 00 10 01 3A 80 23 01 66  09 02 00 10 3B 80 00 66  ...:.#.f....;..f
0910: 09 6E F0 FF FF 7F 29 80  99 F0 FF FF 7F 1C 2C 80  .n....).......,.
0920: 52 26 80 F8 FF FF 7F F8  FF FF 7F 73 30 37 34 52  R&.........s074R
0930: 26 80 F8 FF FF 7F F8 FF  FF 7F 73 30 37 35 45 26  &.........s075E&
0940: 80 F8 FF FF 7F F8 FF FF  7F 73 30 38 30 00 80 6E  .........s080..n
0950: 91 00 10 01 0D 80 99 91  00 10 01 2B 91 00 10 01  ...........+....
0960: 3C 80 23 01 66 09 52 26  80 F8 FF FF 7F F8 FF FF  <.#.f.R&........
0970: 7F 73 30 38 30 45 26 80  F8 FF FF 7F F8 FF FF 7F  .s080E&.........
0980: 73 30 38 31 00 80 66 0A  80 91 00 10 01 91 00 10  s081..f.........
0990: 01 74 6C 6B 30 2B 91 00  10 01 3D 80 23 2B 91 00  .tlk0+....=.#+..
09A0: 10 01 3E 80 23 2B 91 00  10 01 3F 80 23 52 26 80  ..>.#+....?.#R&.
09B0: F8 FF FF 7F F8 FF FF 7F  73 30 38 31 45 26 80 F8  ........s081E&..
09C0: FF FF 7F F8 FF FF 7F 73  30 38 32 00 80 66 0A 80  .......s082..f..
09D0: 91 00 10 01 91 00 10 01  74 6C 6B 31 2B 91 00 10  ........tlk1+...
09E0: 01 40 80 23 2B 91 00 10  01 41 80 23 52 26 80 F8  .@.#+....A.#R&..
09F0: FF FF 7F F8 FF FF 7F 73  30 38 32 45 26 80 F8 FF  .......s082E&...
0A00: FF 7F F8 FF FF 7F 73 30  38 33 00 80 6E F0 FF FF  ......s083..n...
0A10: 7F 42 80 99 F0 FF FF 7F  1C 2C 80 6E 91 00 10 01  .B.......,.n....
0A20: 00 80 99 91 00 10 01 2B  91 00 10 01 43 80 23 52  .......+....C.#R
0A30: 26 80 F8 FF FF 7F F8 FF  FF 7F 73 30 38 33 45 26  &.........s083E&
0A40: 80 F8 FF FF 7F F8 FF FF  7F 73 30 38 34 00 80 66  .........s084..f
0A50: 0A 80 91 00 10 01 91 00  10 01 74 6C 6B 30 2B 91  ..........tlk0+.
0A60: 00 10 01 44 80 23 1A DE  3B 1C 07 80 52 26 80 F8  ...D.#..;...R&..
0A70: FF FF 7F F8 FF FF 7F 73  30 38 34 7B 91 00 10 01  .......s084{....
0A80: 6B 69 64 6C 30 91 00 10  01 2F 00 9C 00 10 01 4E  kidl0..../.....N
0A90: 00 9C 00 10 01 22 00 92  01 9C 00 10 01 94 01 9C  ....."..........
0AA0: 00 10 01 BA 9C 00 10 01  45 80 46 80 47 80 48 80  ........E.F.G.H.
0AB0: BA 91 00 10 01 49 80 4A  80 47 80 4B 80 37 4C 80  .....I.J.G.K.7L.
0AC0: 4D 80 47 80 4B 80 80 9C  00 10 01 80 91 00 10 01  M.G.K...........
0AD0: 80 F8 FF FF 7F 27 05 9C  00 10 01 06 27 05 91 00  .....'......'...
0AE0: 10 01 23 45 26 80 F8 FF  FF 7F F8 FF FF 7F 73 30  ..#E&.........s0
0AF0: 38 35 00 80 1C 09 80 45  4E 80 F0 FF FF 7F F0 FF  85.....EN.......
0B00: FF 7F 65 66 6F 6E 00 80  2B 91 00 10 01 4F 80 23  ..efon..+....O.#
0B10: 2A 05 91 00 10 01 52 26  80 F8 FF FF 7F F8 FF FF  *.....R&........
0B20: 7F 73 30 38 35 45 26 80  F8 FF FF 7F F8 FF FF 7F  .s085E&.........
0B30: 73 30 38 36 00 80 2B 91  00 10 01 50 80 1C 51 80  s086..+....P..Q.
0B40: 81 00 9C 00 10 01 5B 52  80 9C 00 10 01 9C 00 10  ......[R........
0B50: 01 73 6F 6D 30 52 26 80  F8 FF FF 7F F8 FF FF 7F  .som0R&.........
0B60: 73 30 38 36 45 26 80 F8  FF FF 7F F8 FF FF 7F 73  s086E&.........s
0B70: 30 38 37 00 80 1C 53 80  23 1A DE 3B 1C 07 80 52  087...S.#..;...R
0B80: 26 80 F8 FF FF 7F F8 FF  FF 7F 73 30 38 37 2F 00  &.........s087/.
0B90: 94 00 10 01 4E 00 94 00  10 01 92 01 94 00 10 01  ....N...........
0BA0: 94 01 94 00 10 01 BA 91  00 10 01 54 80 55 80 05  ...........T.U..
0BB0: 80 56 80 BA 94 00 10 01  57 80 58 80 05 80 59 80  .V......W.X...Y.
0BC0: 80 91 00 10 01 80 94 00  10 01 4A 91 00 10 01 F0  ..........J.....
0BD0: FF FF 7F 4A F0 FF FF 7F  91 00 10 01 4A 94 00 10  ...J........J...
0BE0: 01 91 00 10 01 1C 07 80  7B 91 00 10 01 66 0A 80  ........{....f..
0BF0: 91 00 10 01 91 00 10 01  74 68 6B 31 45 26 80 F8  ........thk1E&..
0C00: FF FF 7F F8 FF FF 7F 73  30 38 38 00 80 1C 09 80  .......s088.....
0C10: 1A BD 3B 2B 91 00 10 01  5A 80 23 2B 91 00 10 01  ..;+....Z.#+....
0C20: 5B 80 23 52 26 80 F8 FF  FF 7F F8 FF FF 7F 73 30  [.#R&.........s0
0C30: 38 38 45 26 80 F8 FF FF  7F F8 FF FF 7F 73 30 38  88E&.........s08
0C40: 39 00 80 66 0A 80 91 00  10 01 91 00 10 01 74 68  9..f..........th
0C50: 6B 32 2B 91 00 10 01 5C  80 23 52 26 80 F8 FF FF  k2+....\.#R&....
0C60: 7F F8 FF FF 7F 73 30 38  39 45 26 80 F8 FF FF 7F  .....s089E&.....
0C70: F8 FF FF 7F 73 30 39 30  00 80 2B 94 00 10 01 5D  ....s090..+....]
0C80: 80 23 4A 91 00 10 01 94  00 10 01 1C 07 80 6E 91  .#J...........n.
0C90: 00 10 01 2D 80 99 91 00  10 01 2B 91 00 10 01 5E  ...-......+....^
0CA0: 80 23 52 26 80 F8 FF FF  7F F8 FF FF 7F 73 30 39  .#R&.........s09
0CB0: 30 45 26 80 F8 FF FF 7F  F8 FF FF 7F 73 30 39 31  0E&.........s091
0CC0: 00 80 27 05 94 00 10 01  09 4A F0 FF FF 7F 94 00  ..'......J......
0CD0: 10 01 2B 94 00 10 01 5F  80 23 6E 91 00 10 01 60  ..+...._.#n....`
0CE0: 80 99 91 00 10 01 2B 91  00 10 01 61 80 23 2A 05  ......+....a.#*.
0CF0: 94 00 10 01 81 00 94 00  10 01 7C 00 94 00 10 01  ..........|.....
0D00: 5B 62 80 94 00 10 01 94  00 10 01 69 61 74 30 1C  [b.........iat0.
0D10: 07 80 52 26 80 F8 FF FF  7F F8 FF FF 7F 73 30 39  ..R&.........s09
0D20: 31 45 26 80 F8 FF FF 7F  F8 FF FF 7F 73 30 39 32  1E&.........s092
0D30: 00 80 6E 91 00 10 01 2D  80 99 91 00 10 01 2B 94  ..n....-......+.
0D40: 00 10 01 63 80 23 66 0A  80 91 00 10 01 91 00 10  ...c.#f.........
0D50: 01 74 68 6B 31 2B 91 00  10 01 64 80 23 53 94 00  .thk1+....d.#S..
0D60: 10 01 94 00 10 01 69 61  74 30 52 26 80 F8 FF FF  ......iat0R&....
0D70: 7F F8 FF FF 7F 73 30 39  32 45 26 80 F8 FF FF 7F  .....s092E&.....
0D80: F8 FF FF 7F 73 30 39 33  00 80 5B 65 80 94 00 10  ....s093..[e....
0D90: 01 94 00 10 01 66 63 30  31 6B 69 64 6C 30 91 00  .....fc01kidl0..
0DA0: 10 01 2B 94 00 10 01 66  80 23 52 26 80 F8 FF FF  ..+....f.#R&....
0DB0: 7F F8 FF FF 7F 73 30 39  33 45 26 80 F8 FF FF 7F  .....s093E&.....
0DC0: F8 FF FF 7F 73 30 39 34  00 80 6E 91 00 10 01 67  ....s094..n....g
0DD0: 80 99 91 00 10 01 5B 65  80 94 00 10 01 94 00 10  ......[e........
0DE0: 01 66 30 30 30 D3 00 94  00 10 01 2B 91 00 10 01  .f000......+....
0DF0: 68 80 23 81 01 94 00 10  01 7C 01 94 00 10 01 5B  h.#......|.....[
0E00: 62 80 94 00 10 01 94 00  10 01 69 61 74 31 1C 1C  b.........iat1..
0E10: 80 52 26 80 F8 FF FF 7F  F8 FF FF 7F 73 30 39 34  .R&.........s094
0E20: 45 26 80 F8 FF FF 7F F8  FF FF 7F 73 30 39 35 00  E&.........s095.
0E30: 80 2B 94 00 10 01 69 80  23 7B 91 00 10 01 81 00  .+....i.#{......
0E40: 91 00 10 01 7C 00 91 00  10 01 5B 6A 80 91 00 10  ....|.....[j....
0E50: 01 91 00 10 01 6E 6F 6B  30 52 26 80 F8 FF FF 7F  .....nok0R&.....
0E60: F8 FF FF 7F 73 30 39 35  45 26 80 F8 FF FF 7F F8  ....s095E&......
0E70: FF FF 7F 73 30 39 36 00  80 2B 91 00 10 01 6B 80  ...s096..+....k.
0E80: 23 52 26 80 F8 FF FF 7F  F8 FF FF 7F 73 30 39 36  #R&.........s096
0E90: 45 26 80 F8 FF FF 7F F8  FF FF 7F 73 30 39 37 00  E&.........s097.
0EA0: 80 4A 94 00 10 01 F0 FF  FF 7F 1C 07 80 7C 00 94  .J...........|..
0EB0: 00 10 01 81 00 94 00 10  01 5B 65 80 94 00 10 01  .........[e.....
0EC0: 94 00 10 01 66 64 30 30  5B 6A 80 91 00 10 01 91  ....fd00[j......
0ED0: 00 10 01 6D 6F 64 30 5B  62 80 94 00 10 01 94 00  ...mod0[b.......
0EE0: 10 01 73 61 73 30 2B 94  00 10 01 6C 80 1C 6D 80  ..sas0+....l..m.
0EF0: 23 5B 65 80 94 00 10 01  94 00 10 01 66 30 30 30  #[e.........f000
0F00: D3 00 94 00 10 01 5B 62  80 94 00 10 01 94 00 10  ......[b........
0F10: 01 73 61 73 31 81 01 94  00 10 01 7C 01 94 00 10  .sas1......|....
0F20: 01 52 26 80 F8 FF FF 7F  F8 FF FF 7F 73 30 39 37  .R&.........s097
0F30: 45 26 80 F8 FF FF 7F F8  FF FF 7F 73 30 39 38 00  E&.........s098.
0F40: 80 2B 94 00 10 01 6E 80  23 5B 65 80 94 00 10 01  .+....n.#[e.....
0F50: 94 00 10 01 74 6C 6B 30  2B 94 00 10 01 6F 80 23  ....tlk0+....o.#
0F60: 2B 94 00 10 01 70 80 23  52 26 80 F8 FF FF 7F F8  +....p.#R&......
0F70: FF FF 7F 73 30 39 38 45  26 80 F8 FF FF 7F F8 FF  ...s098E&.......
0F80: FF 7F 73 30 39 39 00 80  79 00 90 00 10 01 F0 FF  ..s099..y.......
0F90: FF 7F 79 00 38 00 10 01  F0 FF FF 7F 2B 94 00 10  ..y.8.......+...
0FA0: 01 71 80 23 5B 65 80 94  00 10 01 94 00 10 01 74  .q.#[e.........t
0FB0: 6C 6B 31 2B 94 00 10 01  72 80 23 2B 94 00 10 01  lk1+....r.#+....
0FC0: 73 80 23 52 26 80 F8 FF  FF 7F F8 FF FF 7F 73 30  s.#R&.........s0
0FD0: 39 39 45 26 80 F8 FF FF  7F F8 FF FF 7F 73 31 30  99E&.........s10
0FE0: 30 00 80 24 74 80 00 80  00 80 25 02 00 10 00 80  0..$t.....%.....
0FF0: 00 49 10 6E F0 FF FF 7F  0F 80 99 F0 FF FF 7F 1C  .I.n............
1000: 2C 80 52 26 80 F8 FF FF  7F F8 FF FF 7F 73 31 30  ,.R&.........s10
1010: 30 45 26 80 F8 FF FF 7F  F8 FF FF 7F 73 31 39 36  0E&.........s196
1020: 00 80 5B 65 80 94 00 10  01 94 00 10 01 74 6C 6B  ..[e.........tlk
1030: 30 2B 94 00 10 01 75 80  23 2B 94 00 10 01 76 80  0+....u.#+....v.
1040: 23 03 01 10 13 80 01 98  11 02 00 10 13 80 00 98  #...............
1050: 11 6E F0 FF FF 7F 0D 80  99 F0 FF FF 7F 1C 2C 80  .n............,.
1060: 52 26 80 F8 FF FF 7F F8  FF FF 7F 73 31 30 30 45  R&.........s100E
1070: 26 80 F8 FF FF 7F F8 FF  FF 7F 73 31 30 31 00 80  &.........s101..
1080: 2B 94 00 10 01 77 80 23  27 05 94 00 10 01 0A 81  +....w.#'.......
1090: 01 91 00 10 01 7C 01 91  00 10 01 6B 69 64 6C 30  .....|.....kidl0
10A0: 91 00 10 01 1C 07 80 52  26 80 F8 FF FF 7F F8 FF  .......R&.......
10B0: FF 7F 73 31 30 31 45 26  80 F8 FF FF 7F F8 FF FF  ..s101E&........
10C0: 7F 73 30 30 30 00 80 2A  05 91 00 10 01 2B 94 00  .s000..*.....+..
10D0: 10 01 78 80 23 4A 91 00  10 01 F0 FF FF 7F 1C 07  ..x.#J..........
10E0: 80 66 11 80 91 00 10 01  91 00 10 01 73 61 73 30  .f..........sas0
10F0: 52 26 80 F8 FF FF 7F F8  FF FF 7F 73 30 30 30 02  R&.........s000.
1100: 87 7F 0C 80 80 1B 11 45  26 80 F8 FF FF 7F F8 FF  .......E&.......
1110: FF 7F 73 31 39 35 00 80  01 48 11 02 87 7F 0D 80  ..s195...H......
1120: 80 37 11 45 26 80 F8 FF  FF 7F F8 FF FF 7F 73 31  .7.E&.........s1
1130: 39 35 00 80 01 48 11 45  26 80 F8 FF FF 7F F8 FF  95...H.E&.......
1140: FF 7F 73 31 39 34 00 80  1C 09 80 BA 94 00 10 01  ..s194..........
1150: 79 80 7A 80 05 80 7B 80  80 94 00 10 01 2B 91 00  y.z...{......+..
1160: 10 01 7C 80 23 66 11 80  91 00 10 01 91 00 10 01  ..|.#f..........
1170: 73 61 73 31 52 26 80 F8  FF FF 7F F8 FF FF 7F 73  sas1R&.........s
1180: 31 39 34 52 26 80 F8 FF  FF 7F F8 FF FF 7F 73 31  194R&.........s1
1190: 39 35 01 D2 0F 01 98 11  1A DE 3B 1C 07 80 52 26  95........;...R&
11A0: 80 F8 FF FF 7F F8 FF FF  7F 73 31 39 36 C9 1C 09  .........s196...
11B0: 80 AB 11 00 80 1C 13 80  46 00 45 1E 80 F0 FF FF  ........F.E.....
11C0: 7F F0 FF FF 7F 66 64 69  32 00 80 21 00           .....fdi2..!.   
```

#### Opcodes

```
  0: 0x0572 [0x42] SET_CLI_EVENT_CANCEL_DATA()
  1: 0x0573 [0x03] Work_Zone[1] = 0*
  2: 0x0578 [0x1A] CALL_SUBROUTINE(address=0x3BDE)
  3: 0x057B [0x46] CAMERA_CONTROL: Disable user control
  4: 0x057D [0x38] SET_CLIENT_EVENT_MODE(mode=147*)
  5: 0x0580 [0x75] LOAD_ROOM(Load indoor room, room=585*)
  6: 0x0584 [0x75] LOAD_ROOM(No action)
  7: 0x0586 [0x77] SET_EVENT_TIME_WEATHER(hour=12*, weather=255*)
  8: 0x058B [0x92] Brenton (ID: 17825936/0x01100090)->Render.Flags3 ^= 0x01
  9: 0x0591 [0x92] Task Delegator (ID: 17825848/0x01100038)->Render.Flags3 ^= 0x01
 10: 0x0597 [0x92] Levil (ID: 17825937/0x01100091)->Render.Flags3 ^= 0x01
 11: 0x059D [0x94] LocalPlayer->Render.Flags3 ^= 0x01
 12: 0x05A3 [0x94] Brenton (ID: 17825936/0x01100090)->Render.Flags3 ^= 0x01
 13: 0x05A9 [0x94] Task Delegator (ID: 17825848/0x01100038)->Render.Flags3 ^= 0x01
 14: 0x05AF [0x94] Levil (ID: 17825937/0x01100091)->Render.Flags3 ^= 0x01
 15: 0x05B5 [0xBA] SET_ENTITY_POSITION(entity_id=LocalPlayer, pos_x=-89.372*, pos_z=13.649*, pos_y=3.349*, direction=23.7°*)
 16: 0x05C2 [0x80] LOAD_WAIT(entity=LocalPlayer)
 17: 0x05C7 [0x80] LOAD_WAIT(entity=Levil (ID: 17825937/0x01100091))
 18: 0x05CC [0x80] LOAD_WAIT(entity=Brenton (ID: 17825936/0x01100090))
 19: 0x05D1 [0x80] LOAD_WAIT(entity=Task Delegator (ID: 17825848/0x01100038))
 20: 0x05D6 [0x4A] LocalPlayer looks at Levil (ID: 17825937/0x01100091)
 21: 0x05DF [0x4A] Levil (ID: 17825937/0x01100091) looks at LocalPlayer
 22: 0x05E8 [0x1C] WAIT(30* ticks)
 23: 0x05EB [0x45] LOAD_SCHEDULED_TASK: Load scheduler "s072" with entities [EventEntity, EventEntity], work=[655*, 0*]
 24: 0x05FC [0x1C] WAIT(15* ticks)
 25: 0x05FF [0x1A] CALL_SUBROUTINE(address=0x3BBD)
 26: 0x0602 [0x9F] LOAD_SCHEDULED_TASK_ALT: Load scheduler "main" with entities [Levil (ID: 17825937/0x01100091), Levil (ID: 17825937/0x01100091)], work=[252*, 0*]
 27: 0x0613 [0x2B] Levil (ID: 17825937/0x01100091) [8975*]:
    → "Hmmm, hm...hmmmmmm hmmm hm hmmmmmm...t"
 28: 0x061A [0x23] WAIT_FOR_DIALOG_INTERACTION
 29: 0x061B [0x52] END_LOAD_SCHEDULER: End scheduler "s072" with entities [EventEntity, EventEntity], work=655*
 30: 0x062A [0x45] LOAD_SCHEDULED_TASK: Load scheduler "s073" with entities [EventEntity, EventEntity], work=[655*, 0*]
 31: 0x063B [0x6E] Levil (ID: 17825937/0x01100091) uses emote 22*
 32: 0x0642 [0x99] Wait for Levil (ID: 17825937/0x01100091) animation to complete
 33: 0x0647 [0x2B] Levil (ID: 17825937/0x01100091) [8976*]:
    → "Huh? So what if I'm minding my own business playing the nose harp? You wanna fight about it?"
 34: 0x064E [0x23] WAIT_FOR_DIALOG_INTERACTION
 35: 0x064F [0x52] END_LOAD_SCHEDULER: End scheduler "s073" with entities [EventEntity, EventEntity], work=655*
 36: 0x065E [0x02] IF !(LocalPlayer->Race == 5*) GOTO 0x067A
 37: 0x0666 [0x45] LOAD_SCHEDULED_TASK: Load scheduler "s075" with entities [EventEntity, EventEntity], work=[655*, 0*]
 38: 0x0677 [0x01] GOTO 0x06A7
 39: 0x067A [0x02] IF !(LocalPlayer->Race == 6*) GOTO 0x0696
 40: 0x0682 [0x45] LOAD_SCHEDULED_TASK: Load scheduler "s075" with entities [EventEntity, EventEntity], work=[655*, 0*]
 41: 0x0693 [0x01] GOTO 0x06A7
 42: 0x0696 [0x45] LOAD_SCHEDULED_TASK: Load scheduler "s074" with entities [EventEntity, EventEntity], work=[655*, 0*]

SUBROUTINE_06A7:
 43: 0x06A7 [0x24] CREATE_DIALOG(message_id=8977*, default_option=0*, option_flags=0*)
    → "Want to fight about it? [Ready and rarin'./...]"
 44: 0x06AE [0x25] WAIT_DIALOG_SELECT()
 45: 0x06AF [0x02] IF !(Work_Zone[0] == 0*) GOTO 0x070C
 46: 0x06B7 [0x6E] LocalPlayer uses emote 7*
 47: 0x06BE [0x99] Wait for LocalPlayer animation to complete
 48: 0x06C3 [0x1C] WAIT(90* ticks)
 49: 0x06C6 [0x6E] Levil (ID: 17825937/0x01100091) uses emote 21*
 50: 0x06CD [0x99] Wait for Levil (ID: 17825937/0x01100091) animation to complete
 51: 0x06D2 [0x52] END_LOAD_SCHEDULER: End scheduler "s074" with entities [EventEntity, EventEntity], work=655*
 52: 0x06E1 [0x52] END_LOAD_SCHEDULER: End scheduler "s075" with entities [EventEntity, EventEntity], work=655*
 53: 0x06F0 [0x45] LOAD_SCHEDULED_TASK: Load scheduler "s076" with entities [EventEntity, EventEntity], work=[655*, 0*]
 54: 0x0701 [0x2B] Levil (ID: 17825937/0x01100091) [8978*]:
    → "Hmpf, forget about it. I'm not gonna let myself end up as just another bush whacked in your pioneering conquest."
 55: 0x0708 [0x23] WAIT_FOR_DIALOG_INTERACTION
 56: 0x0709 [0x01] GOTO 0x074E
 57: 0x070C [0x02] IF !(Work_Zone[0] == 1*) GOTO 0x074E
 58: 0x0714 [0x52] END_LOAD_SCHEDULER: End scheduler "s074" with entities [EventEntity, EventEntity], work=655*
 59: 0x0723 [0x52] END_LOAD_SCHEDULER: End scheduler "s075" with entities [EventEntity, EventEntity], work=655*
 60: 0x0732 [0x45] LOAD_SCHEDULED_TASK: Load scheduler "s077" with entities [EventEntity, EventEntity], work=[655*, 0*]
 61: 0x0743 [0x2B] Levil (ID: 17825937/0x01100091) [8979*]:
    → "...Ugh, I can't take this! Whoever said "silence is golden" was never on the receiving end of the silent treatment!"
 62: 0x074A [0x23] WAIT_FOR_DIALOG_INTERACTION
 63: 0x074B [0x01] GOTO 0x074E

SUBROUTINE_074E:
 64: 0x074E [0x52] END_LOAD_SCHEDULER: End scheduler "s076" with entities [EventEntity, EventEntity], work=655*
 65: 0x075D [0x52] END_LOAD_SCHEDULER: End scheduler "s077" with entities [EventEntity, EventEntity], work=655*
 66: 0x076C [0x45] LOAD_SCHEDULED_TASK: Load scheduler "s078" with entities [EventEntity, EventEntity], work=[655*, 0*]
 67: 0x077D [0x66] LOAD_EXT_SCHEDULER_MAIN: Load scheduler "tlk0" with entities [Levil (ID: 17825937/0x01100091), Levil (ID: 17825937/0x01100091)], work=9*
 68: 0x078C [0x2B] Levil (ID: 17825937/0x01100091) [8980*]:
    → "You really wanna know why I'm so happy? Let's just say even someone like me who shovels Lhe's bureaucratic manure all day has occasion to get excited."
 69: 0x0793 [0x23] WAIT_FOR_DIALOG_INTERACTION
 70: 0x0794 [0x2B] Levil (ID: 17825937/0x01100091) [8981*]:
    → "You know how everyone was worried about Arciela's sudden disappearance, right?"
 71: 0x079B [0x23] WAIT_FOR_DIALOG_INTERACTION
 72: 0x079C [0x52] END_LOAD_SCHEDULER: End scheduler "s078" with entities [EventEntity, EventEntity], work=655*
 73: 0x07AB [0x45] LOAD_SCHEDULED_TASK: Load scheduler "s079" with entities [EventEntity, EventEntity], work=[655*, 0*]
 74: 0x07BC [0x66] LOAD_EXT_SCHEDULER_MAIN: Load scheduler "tlk1" with entities [Levil (ID: 17825937/0x01100091), Levil (ID: 17825937/0x01100091)], work=9*
 75: 0x07CB [0x2B] Levil (ID: 17825937/0x01100091) [8982*]:
    → "Then maybe you'd know whether this whopper's actually got some weight behind it or not."
 76: 0x07D2 [0x23] WAIT_FOR_DIALOG_INTERACTION
 77: 0x07D3 [0x2B] Levil (ID: 17825937/0x01100091) [8983*]:
    → "They say Arciela was spirited away by a demonic varmint. Well, what do you think? Could it actually be true?"
 78: 0x07DA [0x23] WAIT_FOR_DIALOG_INTERACTION
 79: 0x07DB [0x52] END_LOAD_SCHEDULER: End scheduler "s079" with entities [EventEntity, EventEntity], work=655*
 80: 0x07EA [0x02] IF !(LocalPlayer->Race == 5*) GOTO 0x0806
 81: 0x07F2 [0x45] LOAD_SCHEDULED_TASK: Load scheduler "s075" with entities [EventEntity, EventEntity], work=[655*, 0*]
 82: 0x0803 [0x01] GOTO 0x0833
 83: 0x0806 [0x02] IF !(LocalPlayer->Race == 6*) GOTO 0x0822
 84: 0x080E [0x45] LOAD_SCHEDULED_TASK: Load scheduler "s075" with entities [EventEntity, EventEntity], work=[655*, 0*]
 85: 0x081F [0x01] GOTO 0x0833
 86: 0x0822 [0x45] LOAD_SCHEDULED_TASK: Load scheduler "s074" with entities [EventEntity, EventEntity], work=[655*, 0*]

SUBROUTINE_0833:
 87: 0x0833 [0x24] CREATE_DIALOG(message_id=8984*, default_option=0*, option_flags=0*)
    → "How do you respond? [Distract him by humming./Try to laugh dismissively./Say you have no idea.]"
 88: 0x083A [0x25] WAIT_DIALOG_SELECT()
 89: 0x083B [0x02] IF !(Work_Zone[0] == 0*) GOTO 0x08AC
 90: 0x0843 [0x6E] LocalPlayer uses emote 32*
 91: 0x084A [0x99] Wait for LocalPlayer animation to complete
 92: 0x084F [0x1C] WAIT(20* ticks)
 93: 0x0852 [0x9F] LOAD_SCHEDULED_TASK_ALT: Load scheduler "main" with entities [LocalPlayer, LocalPlayer], work=[252*, 0*]
 94: 0x0863 [0x1C] WAIT(70* ticks)
 95: 0x0866 [0x52] END_LOAD_SCHEDULER: End scheduler "s074" with entities [EventEntity, EventEntity], work=655*
 96: 0x0875 [0x52] END_LOAD_SCHEDULER: End scheduler "s075" with entities [EventEntity, EventEntity], work=655*
 97: 0x0884 [0x45] LOAD_SCHEDULED_TASK: Load scheduler "s080" with entities [EventEntity, EventEntity], work=[655*, 0*]
 98: 0x0895 [0x6E] Levil (ID: 17825937/0x01100091) uses emote 6*
 99: 0x089C [0x99] Wait for Levil (ID: 17825937/0x01100091) animation to complete
100: 0x08A1 [0x2B] Levil (ID: 17825937/0x01100091) [8985*]:
    → "<Player>...I never thought I'd say this, but your humming's the most terrifying thing I've ever heard. It sounds like the wailing of the damned! Wait, what were we talking about?"
101: 0x08A8 [0x23] WAIT_FOR_DIALOG_INTERACTION
102: 0x08A9 [0x01] GOTO 0x0966
103: 0x08AC [0x02] IF !(Work_Zone[0] == 1*) GOTO 0x0909
104: 0x08B4 [0x6E] LocalPlayer uses emote 4*
105: 0x08BB [0x99] Wait for LocalPlayer animation to complete
106: 0x08C0 [0x1C] WAIT(90* ticks)
107: 0x08C3 [0x52] END_LOAD_SCHEDULER: End scheduler "s074" with entities [EventEntity, EventEntity], work=655*
108: 0x08D2 [0x52] END_LOAD_SCHEDULER: End scheduler "s075" with entities [EventEntity, EventEntity], work=655*
109: 0x08E1 [0x45] LOAD_SCHEDULED_TASK: Load scheduler "s080" with entities [EventEntity, EventEntity], work=[655*, 0*]
110: 0x08F2 [0x6E] Levil (ID: 17825937/0x01100091) uses emote 22*
111: 0x08F9 [0x99] Wait for Levil (ID: 17825937/0x01100091) animation to complete
112: 0x08FE [0x2B] Levil (ID: 17825937/0x01100091) [8986*]:
    → "Yikes, is that what you call a laugh? It sounds like a raptor mating call! I had to brace myself for a second. Wait, what were we talking about?"
113: 0x0905 [0x23] WAIT_FOR_DIALOG_INTERACTION
114: 0x0906 [0x01] GOTO 0x0966
115: 0x0909 [0x02] IF !(Work_Zone[0] == 2*) GOTO 0x0966
116: 0x0911 [0x6E] LocalPlayer uses emote 22*
117: 0x0918 [0x99] Wait for LocalPlayer animation to complete
118: 0x091D [0x1C] WAIT(90* ticks)
119: 0x0920 [0x52] END_LOAD_SCHEDULER: End scheduler "s074" with entities [EventEntity, EventEntity], work=655*
120: 0x092F [0x52] END_LOAD_SCHEDULER: End scheduler "s075" with entities [EventEntity, EventEntity], work=655*
121: 0x093E [0x45] LOAD_SCHEDULED_TASK: Load scheduler "s080" with entities [EventEntity, EventEntity], work=[655*, 0*]
122: 0x094F [0x6E] Levil (ID: 17825937/0x01100091) uses emote 6*
123: 0x0956 [0x99] Wait for Levil (ID: 17825937/0x01100091) animation to complete
124: 0x095B [0x2B] Levil (ID: 17825937/0x01100091) [8987*]:
    → "Oh. Hmmm... If you don't know, I can't imagine anyone else has the foggiest."
125: 0x0962 [0x23] WAIT_FOR_DIALOG_INTERACTION
126: 0x0963 [0x01] GOTO 0x0966

SUBROUTINE_0966:
127: 0x0966 [0x52] END_LOAD_SCHEDULER: End scheduler "s080" with entities [EventEntity, EventEntity], work=655*
128: 0x0975 [0x45] LOAD_SCHEDULED_TASK: Load scheduler "s081" with entities [EventEntity, EventEntity], work=[655*, 0*]
129: 0x0986 [0x66] LOAD_EXT_SCHEDULER_MAIN: Load scheduler "tlk0" with entities [Levil (ID: 17825937/0x01100091), Levil (ID: 17825937/0x01100091)], work=9*
130: 0x0995 [0x2B] Levil (ID: 17825937/0x01100091) [8988*]:
    → "Well, the important thing is that the princess is as snug as a bug in a rug once again."
131: 0x099C [0x23] WAIT_FOR_DIALOG_INTERACTION
132: 0x099D [0x2B] Levil (ID: 17825937/0x01100091) [8989*]:
    → "Speaking of which..."
133: 0x09A4 [0x23] WAIT_FOR_DIALOG_INTERACTION
134: 0x09A5 [0x2B] Levil (ID: 17825937/0x01100091) [8990*]:
    → "She's been moseying on into our humble establishment quite often ever since she returned."
135: 0x09AC [0x23] WAIT_FOR_DIALOG_INTERACTION
136: 0x09AD [0x52] END_LOAD_SCHEDULER: End scheduler "s081" with entities [EventEntity, EventEntity], work=655*
137: 0x09BC [0x45] LOAD_SCHEDULED_TASK: Load scheduler "s082" with entities [EventEntity, EventEntity], work=[655*, 0*]
138: 0x09CD [0x66] LOAD_EXT_SCHEDULER_MAIN: Load scheduler "tlk1" with entities [Levil (ID: 17825937/0x01100091), Levil (ID: 17825937/0x01100091)], work=9*
139: 0x09DC [0x2B] Levil (ID: 17825937/0x01100091) [8991*]:
    → "With Ygnas's illness eating away at his capability to lead, seeing her sweet face has been a breath of fresh air to the pioneering initiative."
140: 0x09E3 [0x23] WAIT_FOR_DIALOG_INTERACTION
141: 0x09E4 [0x2B] Levil (ID: 17825937/0x01100091) [8992*]:
    → "Colonization has been marching along to the tune of progress, and we Pioneers' Coalition members get to gaze upon Arciela's radiant beauty almost every day. It's enough to move you to song!"
142: 0x09EB [0x23] WAIT_FOR_DIALOG_INTERACTION
143: 0x09EC [0x52] END_LOAD_SCHEDULER: End scheduler "s082" with entities [EventEntity, EventEntity], work=655*
144: 0x09FB [0x45] LOAD_SCHEDULED_TASK: Load scheduler "s083" with entities [EventEntity, EventEntity], work=[655*, 0*]
145: 0x0A0C [0x6E] LocalPlayer uses emote 26*
146: 0x0A13 [0x99] Wait for LocalPlayer animation to complete
147: 0x0A18 [0x1C] WAIT(90* ticks)
148: 0x0A1B [0x6E] Levil (ID: 17825937/0x01100091) uses emote 0*
149: 0x0A22 [0x99] Wait for Levil (ID: 17825937/0x01100091) animation to complete
150: 0x0A27 [0x2B] Levil (ID: 17825937/0x01100091) [8993*]:
    → "Oh, come on. I thought you could take a joke. Either way, that's not all her return has blessed us with."
151: 0x0A2E [0x23] WAIT_FOR_DIALOG_INTERACTION
152: 0x0A2F [0x52] END_LOAD_SCHEDULER: End scheduler "s083" with entities [EventEntity, EventEntity], work=655*
153: 0x0A3E [0x45] LOAD_SCHEDULED_TASK: Load scheduler "s084" with entities [EventEntity, EventEntity], work=[655*, 0*]
154: 0x0A4F [0x66] LOAD_EXT_SCHEDULER_MAIN: Load scheduler "tlk0" with entities [Levil (ID: 17825937/0x01100091), Levil (ID: 17825937/0x01100091)], work=9*
155: 0x0A5E [0x2B] Levil (ID: 17825937/0x01100091) [8994*]:
    → "I'm not sure why, but even those curmudgeons in the Order of Weatherspoon have stopped flapping their gums over the colonization issue. I can finally work without getting a sermon about the founder king's last words."
156: 0x0A65 [0x23] WAIT_FOR_DIALOG_INTERACTION
157: 0x0A66 [0x1A] CALL_SUBROUTINE(address=0x3BDE)
158: 0x0A69 [0x1C] WAIT(30* ticks)
159: 0x0A6C [0x52] END_LOAD_SCHEDULER: End scheduler "s084" with entities [EventEntity, EventEntity], work=655*
160: 0x0A7B [0x7B] Levil (ID: 17825937/0x01100091) stops talking
161: 0x0A80 [0x6B] STOP_AND_IDLE: Levil (ID: 17825937/0x01100091) stops current action and resets to idle (animation="idl0")
162: 0x0A89 [0x2F] Ingrid (ID: 17825948/0x0110009C)->Render.Flags0 &= ~0x80000 // Bit 19
163: 0x0A8F [0x4E] SET_ENTITY_HIDE_FLAG: Show Ingrid (ID: 17825948/0x0110009C)
164: 0x0A95 [0x22] ENTITY_HIDE_FLAG(enabled=0x00)
165: 0x0A97 [0x92] Ingrid (ID: 17825948/0x0110009C)->Render.Flags3 ^= 0x01
166: 0x0A9D [0x94] Ingrid (ID: 17825948/0x0110009C)->Render.Flags3 ^= 0x01
167: 0x0AA3 [0xBA] SET_ENTITY_POSITION(entity_id=Ingrid (ID: 17825948/0x0110009C), pos_x=13.237*, pos_z=-21.907*, pos_y=0.999*, direction=238.5°*)
168: 0x0AB0 [0xBA] SET_ENTITY_POSITION(entity_id=Levil (ID: 17825937/0x01100091), pos_x=14.530*, pos_z=-13.171*, pos_y=0.999*, direction=24.6°*)
169: 0x0ABD [0x37] UPDATE_EVENT_POSITION_AND_DIR: x=12.547*, z=-17.363*, y=0.999*, direction=24.6°*
170: 0x0AC6 [0x80] LOAD_WAIT(entity=Ingrid (ID: 17825948/0x0110009C))
171: 0x0ACB [0x80] LOAD_WAIT(entity=Levil (ID: 17825937/0x01100091))
172: 0x0AD0 [0x80] LOAD_WAIT(entity=EventEntity)
173: 0x0AD5 [0x27] REQ_SET(priority=0x05, entity_id=Ingrid (ID: 17825948/0x0110009C), tag_num=0x06)
174: 0x0ADC [0x27] REQ_SET(priority=0x05, entity_id=Levil (ID: 17825937/0x01100091), tag_num=0x23)
175: 0x0AE3 [0x45] LOAD_SCHEDULED_TASK: Load scheduler "s085" with entities [EventEntity, EventEntity], work=[655*, 0*]
176: 0x0AF4 [0x1C] WAIT(15* ticks)
177: 0x0AF7 [0x45] LOAD_SCHEDULED_TASK: Load scheduler "efon" with entities [LocalPlayer, LocalPlayer], work=[215*, 0*]
178: 0x0B08 [0x2B] Levil (ID: 17825937/0x01100091) [8995*]:
    → "Come to think of it, I bumped into Ingrid from that very order the other day."
179: 0x0B0F [0x23] WAIT_FOR_DIALOG_INTERACTION
180: 0x0B10 [0x2A] GET_REQ_LEVEL(level=5, entity_id=Levil (ID: 17825937/0x01100091))
181: 0x0B16 [0x52] END_LOAD_SCHEDULER: End scheduler "s085" with entities [EventEntity, EventEntity], work=655*
182: 0x0B25 [0x45] LOAD_SCHEDULED_TASK: Load scheduler "s086" with entities [EventEntity, EventEntity], work=[655*, 0*]
183: 0x0B36 [0x2B] Levil (ID: 17825937/0x01100091) [8996*]:
    → "She gave me the dirtiest look I've ever seen in my life when I mentioned your name. You'd have thought I'd spat in the face of the Goddess or something."
184: 0x0B3D [0x1C] WAIT(150* ticks)
185: 0x0B40 [0x81] SET_ENTITY_BLINKING(blink_flag=0x00, entity=Ingrid (ID: 17825948/0x0110009C))
186: 0x0B46 [0x5B] LOAD_EXT_SCHEDULER: Load scheduler "som0" with entities [Ingrid (ID: 17825948/0x0110009C), Ingrid (ID: 17825948/0x0110009C)], work=3408*
187: 0x0B55 [0x52] END_LOAD_SCHEDULER: End scheduler "s086" with entities [EventEntity, EventEntity], work=655*
188: 0x0B64 [0x45] LOAD_SCHEDULED_TASK: Load scheduler "s087" with entities [EventEntity, EventEntity], work=[655*, 0*]
189: 0x0B75 [0x1C] WAIT(180* ticks)
190: 0x0B78 [0x23] WAIT_FOR_DIALOG_INTERACTION
191: 0x0B79 [0x1A] CALL_SUBROUTINE(address=0x3BDE)
192: 0x0B7C [0x1C] WAIT(30* ticks)
193: 0x0B7F [0x52] END_LOAD_SCHEDULER: End scheduler "s087" with entities [EventEntity, EventEntity], work=655*
194: 0x0B8E [0x2F] Lhe Lhangavo (ID: 17825940/0x01100094)->Render.Flags0 &= ~0x80000 // Bit 19
195: 0x0B94 [0x4E] SET_ENTITY_HIDE_FLAG: Show Lhe Lhangavo (ID: 17825940/0x01100094)
196: 0x0B9A [0x92] Lhe Lhangavo (ID: 17825940/0x01100094)->Render.Flags3 ^= 0x01
197: 0x0BA0 [0x94] Lhe Lhangavo (ID: 17825940/0x01100094)->Render.Flags3 ^= 0x01
198: 0x0BA6 [0xBA] SET_ENTITY_POSITION(entity_id=Levil (ID: 17825937/0x01100091), pos_x=-87.204*, pos_z=12.655*, pos_y=3.349*, direction=201.5°*)
199: 0x0BB3 [0xBA] SET_ENTITY_POSITION(entity_id=Lhe Lhangavo (ID: 17825940/0x01100094), pos_x=-91.253*, pos_z=8.565*, pos_y=3.349*, direction=300.7°*)
200: 0x0BC0 [0x80] LOAD_WAIT(entity=Levil (ID: 17825937/0x01100091))
201: 0x0BC5 [0x80] LOAD_WAIT(entity=Lhe Lhangavo (ID: 17825940/0x01100094))
202: 0x0BCA [0x4A] Levil (ID: 17825937/0x01100091) looks at LocalPlayer
203: 0x0BD3 [0x4A] LocalPlayer looks at Levil (ID: 17825937/0x01100091)
204: 0x0BDC [0x4A] Lhe Lhangavo (ID: 17825940/0x01100094) looks at Levil (ID: 17825937/0x01100091)
205: 0x0BE5 [0x1C] WAIT(30* ticks)
206: 0x0BE8 [0x7B] Levil (ID: 17825937/0x01100091) stops talking
207: 0x0BED [0x66] LOAD_EXT_SCHEDULER_MAIN: Load scheduler "thk1" with entities [Levil (ID: 17825937/0x01100091), Levil (ID: 17825937/0x01100091)], work=9*
208: 0x0BFC [0x45] LOAD_SCHEDULED_TASK: Load scheduler "s088" with entities [EventEntity, EventEntity], work=[655*, 0*]
209: 0x0C0D [0x1C] WAIT(15* ticks)
210: 0x0C10 [0x1A] CALL_SUBROUTINE(address=0x3BBD)
211: 0x0C13 [0x2B] Levil (ID: 17825937/0x01100091) [8997*]:
    → "What in the high seas happened between you two? Wait, maybe it's best not to pry."
212: 0x0C1A [0x23] WAIT_FOR_DIALOG_INTERACTION
213: 0x0C1B [0x2B] Levil (ID: 17825937/0x01100091) [8998*]:
    → "I will say, though, scuttlebutt has it that the exorcists no longer make patrols into the jungle."
214: 0x0C22 [0x23] WAIT_FOR_DIALOG_INTERACTION
215: 0x0C23 [0x52] END_LOAD_SCHEDULER: End scheduler "s088" with entities [EventEntity, EventEntity], work=655*
216: 0x0C32 [0x45] LOAD_SCHEDULED_TASK: Load scheduler "s089" with entities [EventEntity, EventEntity], work=[655*, 0*]
217: 0x0C43 [0x66] LOAD_EXT_SCHEDULER_MAIN: Load scheduler "thk2" with entities [Levil (ID: 17825937/0x01100091), Levil (ID: 17825937/0x01100091)], work=9*
218: 0x0C52 [0x2B] Levil (ID: 17825937/0x01100091) [8999*]:
    → "Could it be that...you called upon some unholy powers to manipulate them into--"
219: 0x0C59 [0x23] WAIT_FOR_DIALOG_INTERACTION
220: 0x0C5A [0x52] END_LOAD_SCHEDULER: End scheduler "s089" with entities [EventEntity, EventEntity], work=655*
221: 0x0C69 [0x45] LOAD_SCHEDULED_TASK: Load scheduler "s090" with entities [EventEntity, EventEntity], work=[655*, 0*]
222: 0x0C7A [0x2B] Lhe Lhangavo (ID: 17825940/0x01100094) [9000*]:
    → "Levil! Less shirrrking, more working!"
223: 0x0C81 [0x23] WAIT_FOR_DIALOG_INTERACTION
224: 0x0C82 [0x4A] Levil (ID: 17825937/0x01100091) looks at Lhe Lhangavo (ID: 17825940/0x01100094)
225: 0x0C8B [0x1C] WAIT(30* ticks)
226: 0x0C8E [0x6E] Levil (ID: 17825937/0x01100091) uses emote 21*
227: 0x0C95 [0x99] Wait for Levil (ID: 17825937/0x01100091) animation to complete
228: 0x0C9A [0x2B] Levil (ID: 17825937/0x01100091) [9001*]:
    → "L-Leathery Lhe..."
229: 0x0CA1 [0x23] WAIT_FOR_DIALOG_INTERACTION
230: 0x0CA2 [0x52] END_LOAD_SCHEDULER: End scheduler "s090" with entities [EventEntity, EventEntity], work=655*
231: 0x0CB1 [0x45] LOAD_SCHEDULED_TASK: Load scheduler "s091" with entities [EventEntity, EventEntity], work=[655*, 0*]
232: 0x0CC2 [0x27] REQ_SET(priority=0x05, entity_id=Lhe Lhangavo (ID: 17825940/0x01100094), tag_num=0x09)
233: 0x0CC9 [0x4A] LocalPlayer looks at Lhe Lhangavo (ID: 17825940/0x01100094)
234: 0x0CD2 [0x2B] Lhe Lhangavo (ID: 17825940/0x01100094) [9002*]:
    → "You can be sure I'll tan your hide if you call me that again, rrrunt!"
235: 0x0CD9 [0x23] WAIT_FOR_DIALOG_INTERACTION
236: 0x0CDA [0x6E] Levil (ID: 17825937/0x01100091) uses emote 29*
237: 0x0CE1 [0x99] Wait for Levil (ID: 17825937/0x01100091) animation to complete
238: 0x0CE6 [0x2B] Levil (ID: 17825937/0x01100091) [9003*]:
    → "Whoopsie, did I say that out loud? I guess I'll have to tell the others we can't use it anymore."
239: 0x0CED [0x23] WAIT_FOR_DIALOG_INTERACTION
240: 0x0CEE [0x2A] GET_REQ_LEVEL(level=5, entity_id=Lhe Lhangavo (ID: 17825940/0x01100094))
241: 0x0CF4 [0x81] SET_ENTITY_BLINKING(blink_flag=0x00, entity=Lhe Lhangavo (ID: 17825940/0x01100094))
242: 0x0CFA [0x7C] Lhe Lhangavo (ID: 17825940/0x01100094)->Render.Flags2 |= 0x00
243: 0x0D00 [0x5B] LOAD_EXT_SCHEDULER: Load scheduler "iat0" with entities [Lhe Lhangavo (ID: 17825940/0x01100094), Lhe Lhangavo (ID: 17825940/0x01100094)], work=3280*
244: 0x0D0F [0x1C] WAIT(30* ticks)
245: 0x0D12 [0x52] END_LOAD_SCHEDULER: End scheduler "s091" with entities [EventEntity, EventEntity], work=655*
246: 0x0D21 [0x45] LOAD_SCHEDULED_TASK: Load scheduler "s092" with entities [EventEntity, EventEntity], work=[655*, 0*]
247: 0x0D32 [0x6E] Levil (ID: 17825937/0x01100091) uses emote 21*
248: 0x0D39 [0x99] Wait for Levil (ID: 17825937/0x01100091) animation to complete
249: 0x0D3E [0x2B] Lhe Lhangavo (ID: 17825940/0x01100094) [9004*]:
    → "What was that!?"
250: 0x0D45 [0x23] WAIT_FOR_DIALOG_INTERACTION
251: 0x0D46 [0x66] LOAD_EXT_SCHEDULER_MAIN: Load scheduler "thk1" with entities [Levil (ID: 17825937/0x01100091), Levil (ID: 17825937/0x01100091)], work=9*
252: 0x0D55 [0x2B] Levil (ID: 17825937/0x01100091) [9005*]:
    → "Uhhh...look at the time! So much to do, and such a tight schedule. I best put my nose back to the grindstone!"
253: 0x0D5C [0x23] WAIT_FOR_DIALOG_INTERACTION
254: 0x0D5D [0x53] WAIT_SCHEDULER_TASK: Wait for scheduler "iat0" with entities [Lhe Lhangavo (ID: 17825940/0x01100094), Lhe Lhangavo (ID: 17825940/0x01100094)]
255: 0x0D6A [0x52] END_LOAD_SCHEDULER: End scheduler "s092" with entities [EventEntity, EventEntity], work=655*
256: 0x0D79 [0x45] LOAD_SCHEDULED_TASK: Load scheduler "s093" with entities [EventEntity, EventEntity], work=[655*, 0*]
257: 0x0D8A [0x5B] LOAD_EXT_SCHEDULER: Load scheduler "fc01" with entities [Lhe Lhangavo (ID: 17825940/0x01100094), Lhe Lhangavo (ID: 17825940/0x01100094)], work=3276*
258: 0x0D99 [0x6B] STOP_AND_IDLE: Levil (ID: 17825937/0x01100091) stops current action and resets to idle (animation="idl0")
259: 0x0DA2 [0x2B] Lhe Lhangavo (ID: 17825940/0x01100094) [9006*]:
    → "Hmph... Levil, I never knew you were so devoted to purrrforming well."
260: 0x0DA9 [0x23] WAIT_FOR_DIALOG_INTERACTION
261: 0x0DAA [0x52] END_LOAD_SCHEDULER: End scheduler "s093" with entities [EventEntity, EventEntity], work=655*
262: 0x0DB9 [0x45] LOAD_SCHEDULED_TASK: Load scheduler "s094" with entities [EventEntity, EventEntity], work=[655*, 0*]
263: 0x0DCA [0x6E] Levil (ID: 17825937/0x01100091) uses emote 24*
264: 0x0DD1 [0x99] Wait for Levil (ID: 17825937/0x01100091) animation to complete
265: 0x0DD6 [0x5B] LOAD_EXT_SCHEDULER: Load scheduler "f000" with entities [Lhe Lhangavo (ID: 17825940/0x01100094), Lhe Lhangavo (ID: 17825940/0x01100094)], work=3276*
266: 0x0DE5 [0xD3] CLEAR_ENTITY_MOTION_QUEUE(condition_flag=0x00, entity_server_id=0x01100094)
267: 0x0DEB [0x2B] Levil (ID: 17825937/0x01100091) [9007*]:
    → "What? Oh, um...I mean you can't judge a book by its cover, Maester Lhangavo!"
268: 0x0DF2 [0x23] WAIT_FOR_DIALOG_INTERACTION
269: 0x0DF3 [0x81] SET_ENTITY_BLINKING(blink_flag=0x01, entity=Lhe Lhangavo (ID: 17825940/0x01100094))
270: 0x0DF9 [0x7C] Lhe Lhangavo (ID: 17825940/0x01100094)->Render.Flags2 |= 0x01
271: 0x0DFF [0x5B] LOAD_EXT_SCHEDULER: Load scheduler "iat1" with entities [Lhe Lhangavo (ID: 17825940/0x01100094), Lhe Lhangavo (ID: 17825940/0x01100094)], work=3280*
272: 0x0E0E [0x1C] WAIT(45* ticks)
273: 0x0E11 [0x52] END_LOAD_SCHEDULER: End scheduler "s094" with entities [EventEntity, EventEntity], work=655*
274: 0x0E20 [0x45] LOAD_SCHEDULED_TASK: Load scheduler "s095" with entities [EventEntity, EventEntity], work=[655*, 0*]
275: 0x0E31 [0x2B] Lhe Lhangavo (ID: 17825940/0x01100094) [9008*]:
    → "If that's the case, then why don't you take a page out of my book and kiss your next day off goodbye?"
276: 0x0E38 [0x23] WAIT_FOR_DIALOG_INTERACTION
277: 0x0E39 [0x7B] Levil (ID: 17825937/0x01100091) stops talking
278: 0x0E3E [0x81] SET_ENTITY_BLINKING(blink_flag=0x00, entity=Levil (ID: 17825937/0x01100091))
279: 0x0E44 [0x7C] Levil (ID: 17825937/0x01100091)->Render.Flags2 |= 0x00
280: 0x0E4A [0x5B] LOAD_EXT_SCHEDULER: Load scheduler "nok0" with entities [Levil (ID: 17825937/0x01100091), Levil (ID: 17825937/0x01100091)], work=3013*
281: 0x0E59 [0x52] END_LOAD_SCHEDULER: End scheduler "s095" with entities [EventEntity, EventEntity], work=655*
282: 0x0E68 [0x45] LOAD_SCHEDULED_TASK: Load scheduler "s096" with entities [EventEntity, EventEntity], work=[655*, 0*]
283: 0x0E79 [0x2B] Levil (ID: 17825937/0x01100091) [9009*]:
    → "Whaaat!? Nooooooooo!"
284: 0x0E80 [0x23] WAIT_FOR_DIALOG_INTERACTION
285: 0x0E81 [0x52] END_LOAD_SCHEDULER: End scheduler "s096" with entities [EventEntity, EventEntity], work=655*
286: 0x0E90 [0x45] LOAD_SCHEDULED_TASK: Load scheduler "s097" with entities [EventEntity, EventEntity], work=[655*, 0*]
287: 0x0EA1 [0x4A] Lhe Lhangavo (ID: 17825940/0x01100094) looks at LocalPlayer
288: 0x0EAA [0x1C] WAIT(30* ticks)
289: 0x0EAD [0x7C] Lhe Lhangavo (ID: 17825940/0x01100094)->Render.Flags2 |= 0x00
290: 0x0EB3 [0x81] SET_ENTITY_BLINKING(blink_flag=0x00, entity=Lhe Lhangavo (ID: 17825940/0x01100094))
291: 0x0EB9 [0x5B] LOAD_EXT_SCHEDULER: Load scheduler "fd00" with entities [Lhe Lhangavo (ID: 17825940/0x01100094), Lhe Lhangavo (ID: 17825940/0x01100094)], work=3276*
292: 0x0EC8 [0x5B] LOAD_EXT_SCHEDULER: Load scheduler "mod0" with entities [Levil (ID: 17825937/0x01100091), Levil (ID: 17825937/0x01100091)], work=3013*
293: 0x0ED7 [0x5B] LOAD_EXT_SCHEDULER: Load scheduler "sas0" with entities [Lhe Lhangavo (ID: 17825940/0x01100094), Lhe Lhangavo (ID: 17825940/0x01100094)], work=3280*
294: 0x0EE6 [0x2B] Lhe Lhangavo (ID: 17825940/0x01100094) [9010*]:
    → "(I never know if he's playing cat and mouse with me or if he's rrreally that dumb.)"
295: 0x0EED [0x1C] WAIT(100* ticks)
296: 0x0EF0 [0x23] WAIT_FOR_DIALOG_INTERACTION
297: 0x0EF1 [0x5B] LOAD_EXT_SCHEDULER: Load scheduler "f000" with entities [Lhe Lhangavo (ID: 17825940/0x01100094), Lhe Lhangavo (ID: 17825940/0x01100094)], work=3276*
298: 0x0F00 [0xD3] CLEAR_ENTITY_MOTION_QUEUE(condition_flag=0x00, entity_server_id=0x01100094)
299: 0x0F06 [0x5B] LOAD_EXT_SCHEDULER: Load scheduler "sas1" with entities [Lhe Lhangavo (ID: 17825940/0x01100094), Lhe Lhangavo (ID: 17825940/0x01100094)], work=3280*
300: 0x0F15 [0x81] SET_ENTITY_BLINKING(blink_flag=0x01, entity=Lhe Lhangavo (ID: 17825940/0x01100094))
301: 0x0F1B [0x7C] Lhe Lhangavo (ID: 17825940/0x01100094)->Render.Flags2 |= 0x01
302: 0x0F21 [0x52] END_LOAD_SCHEDULER: End scheduler "s097" with entities [EventEntity, EventEntity], work=655*
303: 0x0F30 [0x45] LOAD_SCHEDULED_TASK: Load scheduler "s098" with entities [EventEntity, EventEntity], work=[655*, 0*]
304: 0x0F41 [0x2B] Lhe Lhangavo (ID: 17825940/0x01100094) [9011*]:
    → "As it would happen, <Player>, I have a rrrequest."
305: 0x0F48 [0x23] WAIT_FOR_DIALOG_INTERACTION
306: 0x0F49 [0x5B] LOAD_EXT_SCHEDULER: Load scheduler "tlk0" with entities [Lhe Lhangavo (ID: 17825940/0x01100094), Lhe Lhangavo (ID: 17825940/0x01100094)], work=3276*
307: 0x0F58 [0x2B] Lhe Lhangavo (ID: 17825940/0x01100094) [9012*]:
    → "You see, we've just learned that a prrroblem has arisen within the Couriers' Coalition."
308: 0x0F5F [0x23] WAIT_FOR_DIALOG_INTERACTION
309: 0x0F60 [0x2B] Lhe Lhangavo (ID: 17825940/0x01100094) [9013*]:
    → "Even though it may turn out to pose only the tiniest of thrrreats to colonization, we must walk like a cat on eggs."
310: 0x0F67 [0x23] WAIT_FOR_DIALOG_INTERACTION
311: 0x0F68 [0x52] END_LOAD_SCHEDULER: End scheduler "s098" with entities [EventEntity, EventEntity], work=655*
312: 0x0F77 [0x45] LOAD_SCHEDULED_TASK: Load scheduler "s099" with entities [EventEntity, EventEntity], work=[655*, 0*]
313: 0x0F88 [0x79] Brenton (ID: 17825936/0x01100090) looks at LocalPlayer (Basic look)
314: 0x0F92 [0x79] Task Delegator (ID: 17825848/0x01100038) looks at LocalPlayer (Basic look)
315: 0x0F9C [0x2B] Lhe Lhangavo (ID: 17825940/0x01100094) [9014*]:
    → "Now that the voice of opposition has finally gone silent, we can't afford to jeopardize the strrrides we've made."
316: 0x0FA3 [0x23] WAIT_FOR_DIALOG_INTERACTION
317: 0x0FA4 [0x5B] LOAD_EXT_SCHEDULER: Load scheduler "tlk1" with entities [Lhe Lhangavo (ID: 17825940/0x01100094), Lhe Lhangavo (ID: 17825940/0x01100094)], work=3276*
318: 0x0FB3 [0x2B] Lhe Lhangavo (ID: 17825940/0x01100094) [9015*]:
    → "Failure is not an option here."
319: 0x0FBA [0x23] WAIT_FOR_DIALOG_INTERACTION
320: 0x0FBB [0x2B] Lhe Lhangavo (ID: 17825940/0x01100094) [9016*]:
    → "That's why I need you to go to the Couriers' Coalition and find the source of this trrrouble. Will you do that for me?"
321: 0x0FC2 [0x23] WAIT_FOR_DIALOG_INTERACTION
322: 0x0FC3 [0x52] END_LOAD_SCHEDULER: End scheduler "s099" with entities [EventEntity, EventEntity], work=655*

SUBROUTINE_0FD2:
323: 0x0FD2 [0x45] LOAD_SCHEDULED_TASK: Load scheduler "s100" with entities [EventEntity, EventEntity], work=[655*, 0*]
324: 0x0FE3 [0x24] CREATE_DIALOG(message_id=9017*, default_option=0*, option_flags=0*)
    → "Will you do it? [No problem./Not right now.]"
325: 0x0FEA [0x25] WAIT_DIALOG_SELECT()
326: 0x0FEB [0x02] IF !(Work_Zone[0] == 0*) GOTO 0x1049
327: 0x0FF3 [0x6E] LocalPlayer uses emote 7*
328: 0x0FFA [0x99] Wait for LocalPlayer animation to complete
329: 0x0FFF [0x1C] WAIT(90* ticks)
330: 0x1002 [0x52] END_LOAD_SCHEDULER: End scheduler "s100" with entities [EventEntity, EventEntity], work=655*
331: 0x1011 [0x45] LOAD_SCHEDULED_TASK: Load scheduler "s196" with entities [EventEntity, EventEntity], work=[655*, 0*]
332: 0x1022 [0x5B] LOAD_EXT_SCHEDULER: Load scheduler "tlk0" with entities [Lhe Lhangavo (ID: 17825940/0x01100094), Lhe Lhangavo (ID: 17825940/0x01100094)], work=3276*
333: 0x1031 [0x2B] Lhe Lhangavo (ID: 17825940/0x01100094) [9018*]:
    → "Thank you."
334: 0x1038 [0x23] WAIT_FOR_DIALOG_INTERACTION
335: 0x1039 [0x2B] Lhe Lhangavo (ID: 17825940/0x01100094) [9019*]:
    → "Hopefully you can trrrack down and snap this problem's neck in two before it causes us any harm. Happy hunting, <Player>!"
336: 0x1040 [0x23] WAIT_FOR_DIALOG_INTERACTION
337: 0x1041 [0x03] Work_Zone[1] = 1*
338: 0x1046 [0x01] GOTO 0x1198
339: 0x1049 [0x02] IF !(Work_Zone[0] == 1*) GOTO 0x1198
340: 0x1051 [0x6E] LocalPlayer uses emote 6*
341: 0x1058 [0x99] Wait for LocalPlayer animation to complete
342: 0x105D [0x1C] WAIT(90* ticks)
343: 0x1060 [0x52] END_LOAD_SCHEDULER: End scheduler "s100" with entities [EventEntity, EventEntity], work=655*
344: 0x106F [0x45] LOAD_SCHEDULED_TASK: Load scheduler "s101" with entities [EventEntity, EventEntity], work=[655*, 0*]
345: 0x1080 [0x2B] Lhe Lhangavo (ID: 17825940/0x01100094) [9020*]:
    → "Hm? You have more prrressing business elsewhere?"
346: 0x1087 [0x23] WAIT_FOR_DIALOG_INTERACTION
347: 0x1088 [0x27] REQ_SET(priority=0x05, entity_id=Lhe Lhangavo (ID: 17825940/0x01100094), tag_num=0x0A)
348: 0x108F [0x81] SET_ENTITY_BLINKING(blink_flag=0x01, entity=Levil (ID: 17825937/0x01100091))
349: 0x1095 [0x7C] Levil (ID: 17825937/0x01100091)->Render.Flags2 |= 0x01
350: 0x109B [0x6B] STOP_AND_IDLE: Levil (ID: 17825937/0x01100091) stops current action and resets to idle (animation="idl0")
351: 0x10A4 [0x1C] WAIT(30* ticks)
352: 0x10A7 [0x52] END_LOAD_SCHEDULER: End scheduler "s101" with entities [EventEntity, EventEntity], work=655*
353: 0x10B6 [0x45] LOAD_SCHEDULED_TASK: Load scheduler "s000" with entities [EventEntity, EventEntity], work=[655*, 0*]
354: 0x10C7 [0x2A] GET_REQ_LEVEL(level=5, entity_id=Levil (ID: 17825937/0x01100091))
355: 0x10CD [0x2B] Lhe Lhangavo (ID: 17825940/0x01100094) [9021*]:
    → "Despite the fact you've been prrrattling on with Levil about nothing in particular? I see..."
356: 0x10D4 [0x23] WAIT_FOR_DIALOG_INTERACTION
357: 0x10D5 [0x4A] Levil (ID: 17825937/0x01100091) looks at LocalPlayer
358: 0x10DE [0x1C] WAIT(30* ticks)
359: 0x10E1 [0x66] LOAD_EXT_SCHEDULER_MAIN: Load scheduler "sas0" with entities [Levil (ID: 17825937/0x01100091), Levil (ID: 17825937/0x01100091)], work=149*
360: 0x10F0 [0x52] END_LOAD_SCHEDULER: End scheduler "s000" with entities [EventEntity, EventEntity], work=655*
361: 0x10FF [0x02] IF !(LocalPlayer->Race == 5*) GOTO 0x111B
362: 0x1107 [0x45] LOAD_SCHEDULED_TASK: Load scheduler "s195" with entities [EventEntity, EventEntity], work=[655*, 0*]
363: 0x1118 [0x01] GOTO 0x1148
364: 0x111B [0x02] IF !(LocalPlayer->Race == 6*) GOTO 0x1137
365: 0x1123 [0x45] LOAD_SCHEDULED_TASK: Load scheduler "s195" with entities [EventEntity, EventEntity], work=[655*, 0*]
366: 0x1134 [0x01] GOTO 0x1148
367: 0x1137 [0x45] LOAD_SCHEDULED_TASK: Load scheduler "s194" with entities [EventEntity, EventEntity], work=[655*, 0*]

SUBROUTINE_1148:
368: 0x1148 [0x1C] WAIT(15* ticks)
369: 0x114B [0xBA] SET_ENTITY_POSITION(entity_id=Lhe Lhangavo (ID: 17825940/0x01100094), pos_x=-89.590*, pos_z=10.808*, pos_y=3.349*, direction=308.6°*)
370: 0x1158 [0x80] LOAD_WAIT(entity=Lhe Lhangavo (ID: 17825940/0x01100094))
371: 0x115D [0x2B] Levil (ID: 17825937/0x01100091) [9022*]:
    → "(I won't resent you for it. In fact, I highly suggest doing what she says before she fills your pioneering life with fire and brrrimstone.)"
372: 0x1164 [0x23] WAIT_FOR_DIALOG_INTERACTION
373: 0x1165 [0x66] LOAD_EXT_SCHEDULER_MAIN: Load scheduler "sas1" with entities [Levil (ID: 17825937/0x01100091), Levil (ID: 17825937/0x01100091)], work=149*
374: 0x1174 [0x52] END_LOAD_SCHEDULER: End scheduler "s194" with entities [EventEntity, EventEntity], work=655*
375: 0x1183 [0x52] END_LOAD_SCHEDULER: End scheduler "s195" with entities [EventEntity, EventEntity], work=655*
376: 0x1192 [0x01] GOTO 0x0FD2

SUBROUTINE_1198:
377: 0x1198 [0x1A] CALL_SUBROUTINE(address=0x3BDE)
378: 0x119B [0x1C] WAIT(30* ticks)
379: 0x119E [0x52] END_LOAD_SCHEDULER: End scheduler "s196" with entities [EventEntity, EventEntity], work=655*
380: 0x11AD [0xC9] ENABLE_GAME_TIMER()
381: 0x11AE [0x1C] WAIT(15* ticks)
382: 0x11B1 [0xAB] EventEntity->DespawnValue = 0* // Set despawn value
383: 0x11B5 [0x1C] WAIT(1* ticks)
384: 0x11B8 [0x46] CAMERA_CONTROL: Restore default settings
385: 0x11BA [0x45] LOAD_SCHEDULED_TASK: Load scheduler "fdi2" with entities [LocalPlayer, LocalPlayer], work=[200*, 0*]
386: 0x11CB [0x21] END_EVENT
387: 0x11CC [0x00] END_REQSTACK()
```

#### Data or dead code:

```
# Dead code (unreachable instructions):
     0x1195 [0x01] GOTO 0x1198
```

### Event 155

#### Metadata

| Field        | Value     |
|--------------|-----------|
| Entrypoint   | 0x11CD    |
| Data Size    | 748 bytes |
| Instructions | 97        |

```
      00 01 02 03 04 05 06 07  08 09 0A 0B 0C 0D 0E 0F
      -- -- -- -- -- -- -- --  -- -- -- -- -- -- -- --
11C0:                                         42 1A DE               B..
11D0: 3B 46 01 38 01 80 2F 00  97 00 10 01 4E 00 97 00  ;F.8../.....N...
11E0: 10 01 22 00 92 01 31 01  10 01 94 01 F0 FF FF 7F  .."...1.........
11F0: 94 01 31 01 10 01 94 01  97 00 10 01 59 05 97 00  ..1.........Y...
1200: 10 01 01 33 01 BA F0 FF  FF 7F 7D 80 7E 80 7F 80  ...3......}.~...
1210: 80 80 BA 97 00 10 01 81  80 82 80 83 80 84 80 37  ...............7
1220: 81 80 82 80 83 80 84 80  80 F0 FF FF 7F 80 31 01  ..............1.
1230: 10 01 80 97 00 10 01 80  F8 FF FF 7F 4A F0 FF FF  ............J...
1240: 7F 31 01 10 01 1C 07 80  C5 85 80 F8 FF FF 7F F8  .1..............
1250: FF FF 7F 73 30 30 30 00  80 81 00 97 00 10 01 5B  ...s000........[
1260: 86 80 97 00 10 01 97 00  10 01 74 68 6B 30 45 87  ..........thk0E.
1270: 80 F8 FF FF 7F F8 FF FF  7F 73 31 30 32 00 80 1C  .........s102...
1280: 09 80 45 1E 80 F0 FF FF  7F F0 FF FF 7F 66 64 69  ..E..........fdi
1290: 31 00 80 66 88 80 31 01  10 01 31 01 10 01 74 68  1..f..1...1...th
12A0: 6B 31 2B 31 01 10 01 89  80 23 52 87 80 F8 FF FF  k1+1.....#R.....
12B0: 7F F8 FF FF 7F 73 31 30  32 45 87 80 F8 FF FF 7F  .....s102E......
12C0: F8 FF FF 7F 73 31 30 33  00 80 27 10 F0 FF FF 7F  ....s103..'.....
12D0: 10 66 88 80 31 01 10 01  31 01 10 01 74 68 6B 32  .f..1...1...thk2
12E0: 1C 07 80 4A 31 01 10 01  F0 FF FF 7F 1C 07 80 66  ...J1..........f
12F0: 88 80 31 01 10 01 31 01  10 01 74 6C 6B 30 2B 31  ..1...1...tlk0+1
1300: 01 10 01 8A 80 23 2B 31  01 10 01 8B 80 23 52 87  .....#+1.....#R.
1310: 80 F8 FF FF 7F F8 FF FF  7F 73 31 30 33 45 87 80  .........s103E..
1320: F8 FF FF 7F F8 FF FF 7F  73 31 30 34 00 80 2B 31  ........s104..+1
1330: 01 10 01 8C 80 23 2B 31  01 10 01 8D 80 23 66 88  .....#+1.....#f.
1340: 80 31 01 10 01 31 01 10  01 74 6C 6B 31 2B 31 01  .1...1...tlk1+1.
1350: 10 01 8E 80 23 52 87 80  F8 FF FF 7F F8 FF FF 7F  ....#R..........
1360: 73 31 30 34 45 87 80 F8  FF FF 7F F8 FF FF 7F 73  s104E..........s
1370: 31 30 35 00 80 2B 31 01  10 01 8F 80 23 2B 31 01  105..+1.....#+1.
1380: 10 01 90 80 23 2B 31 01  10 01 91 80 23 52 87 80  ....#+1.....#R..
1390: F8 FF FF 7F F8 FF FF 7F  73 31 30 35 45 87 80 F8  ........s105E...
13A0: FF FF 7F F8 FF FF 7F 73  31 30 36 00 80 2B 31 01  .......s106..+1.
13B0: 10 01 92 80 23 52 87 80  F8 FF FF 7F F8 FF FF 7F  ....#R..........
13C0: 73 31 30 36 45 87 80 F8  FF FF 7F F8 FF FF 7F 73  s106E..........s
13D0: 31 30 37 00 80 2B 31 01  10 01 93 80 23 52 87 80  107..+1.....#R..
13E0: F8 FF FF 7F F8 FF FF 7F  73 31 30 37 45 87 80 F8  ........s107E...
13F0: FF FF 7F F8 FF FF 7F 73  31 30 38 00 80 7B 31 01  .......s108..{1.
1400: 10 01 66 88 80 31 01 10  01 31 01 10 01 74 68 6B  ..f..1...1...thk
1410: 31 1C 1C 80 2B 31 01 10  01 94 80 23 2B 31 01 10  1...+1.....#+1..
1420: 01 95 80 23 52 87 80 F8  FF FF 7F F8 FF FF 7F 73  ...#R..........s
1430: 31 30 38 45 87 80 F8 FF  FF 7F F8 FF FF 7F 73 31  108E..........s1
1440: 30 39 00 80 79 00 31 01  10 01 F0 FF FF 7F 66 88  09..y.1.......f.
1450: 80 31 01 10 01 31 01 10  01 74 68 6B 32 2B 31 01  .1...1...thk2+1.
1460: 10 01 96 80 23 2B 31 01  10 01 97 80 23 1A DE 3B  ....#+1.....#..;
1470: 1C 07 80 52 87 80 F8 FF  FF 7F F8 FF FF 7F 73 31  ...R..........s1
1480: 30 39 C5 85 80 F8 FF FF  7F F8 FF FF 7F 6B 69 6C  09...........kil
1490: 30 00 80 27 05 97 00 10  01 02 1C 09 80 AB 11 00  0..'............
14A0: 80 1C 13 80 46 00 45 1E  80 F0 FF FF 7F F0 FF FF  ....F.E.........
14B0: 7F 66 64 69 32 00 80 21  00                       .fdi2..!.       
```

#### Opcodes

```
  0: 0x11CD [0x42] SET_CLI_EVENT_CANCEL_DATA()
  1: 0x11CE [0x1A] CALL_SUBROUTINE(address=0x3BDE)
  2: 0x11D1 [0x46] CAMERA_CONTROL: Disable user control
  3: 0x11D3 [0x38] SET_CLIENT_EVENT_MODE(mode=147*)
  4: 0x11D6 [0x2F] Unnamed NPC (ID: 17825943/0x01100097)->Render.Flags0 &= ~0x80000 // Bit 19
  5: 0x11DC [0x4E] SET_ENTITY_HIDE_FLAG: Show Unnamed NPC (ID: 17825943/0x01100097)
  6: 0x11E2 [0x22] ENTITY_HIDE_FLAG(enabled=0x00)
  7: 0x11E4 [0x92] Kipligg (ID: 17826097/0x01100131)->Render.Flags3 ^= 0x01
  8: 0x11EA [0x94] LocalPlayer->Render.Flags3 ^= 0x01
  9: 0x11F0 [0x94] Kipligg (ID: 17826097/0x01100131)->Render.Flags3 ^= 0x01
 10: 0x11F6 [0x94] Unnamed NPC (ID: 17825943/0x01100097)->Render.Flags3 ^= 0x01
 11: 0x11FC [0x59] UPDATE_ENTITY_DATA: Unnamed NPC (ID: 17825943/0x01100097)->Render.Flags0 |= 0x200000
 12: 0x1203 [0x33] EventEntity->Render.Flags0 |= 0x200000 // Bit 21 (flag=0x01)
 13: 0x1205 [0xBA] SET_ENTITY_POSITION(entity_id=LocalPlayer, pos_x=-29.445*, pos_z=21.757*, pos_y=-0.649*, direction=193.5°*)
 14: 0x1212 [0xBA] SET_ENTITY_POSITION(entity_id=Unnamed NPC (ID: 17825943/0x01100097), pos_x=-5.589*, pos_z=-8.376*, pos_y=-73.836*, direction=57.2°*)
 15: 0x121F [0x37] UPDATE_EVENT_POSITION_AND_DIR: x=-5.589*, z=-8.376*, y=-73.836*, direction=57.2°*
 16: 0x1228 [0x80] LOAD_WAIT(entity=LocalPlayer)
 17: 0x122D [0x80] LOAD_WAIT(entity=Kipligg (ID: 17826097/0x01100131))
 18: 0x1232 [0x80] LOAD_WAIT(entity=Unnamed NPC (ID: 17825943/0x01100097))
 19: 0x1237 [0x80] LOAD_WAIT(entity=EventEntity)
 20: 0x123C [0x4A] LocalPlayer looks at Kipligg (ID: 17826097/0x01100131)
 21: 0x1245 [0x1C] WAIT(30* ticks)
 22: 0x1248 [0xC5] LOAD_SCHEDULED_TASK_ALT3: Load scheduler 0x80003030 for entities [EventEntity, EventEntity], work=213*, param=12403
 23: 0x1259 [0x81] SET_ENTITY_BLINKING(blink_flag=0x00, entity=Unnamed NPC (ID: 17825943/0x01100097))
 24: 0x125F [0x5B] LOAD_EXT_SCHEDULER: Load scheduler "thk0" with entities [Unnamed NPC (ID: 17825943/0x01100097), Unnamed NPC (ID: 17825943/0x01100097)], work=3210*
 25: 0x126E [0x45] LOAD_SCHEDULED_TASK: Load scheduler "s102" with entities [EventEntity, EventEntity], work=[631*, 0*]
 26: 0x127F [0x1C] WAIT(15* ticks)
 27: 0x1282 [0x45] LOAD_SCHEDULED_TASK: Load scheduler "fdi1" with entities [LocalPlayer, LocalPlayer], work=[200*, 0*]
 28: 0x1293 [0x66] LOAD_EXT_SCHEDULER_MAIN: Load scheduler "thk1" with entities [Kipligg (ID: 17826097/0x01100131), Kipligg (ID: 17826097/0x01100131)], work=60*
 29: 0x12A2 [0x2B] Kipligg (ID: 17826097/0x01100131) [9027*]:
    → "Damn me to the darkness..."
 30: 0x12A9 [0x23] WAIT_FOR_DIALOG_INTERACTION
 31: 0x12AA [0x52] END_LOAD_SCHEDULER: End scheduler "s102" with entities [EventEntity, EventEntity], work=631*
 32: 0x12B9 [0x45] LOAD_SCHEDULED_TASK: Load scheduler "s103" with entities [EventEntity, EventEntity], work=[631*, 0*]
 33: 0x12CA [0x27] REQ_SET(priority=0x10, entity_id=LocalPlayer, tag_num=0x10)
 34: 0x12D1 [0x66] LOAD_EXT_SCHEDULER_MAIN: Load scheduler "thk2" with entities [Kipligg (ID: 17826097/0x01100131), Kipligg (ID: 17826097/0x01100131)], work=60*
 35: 0x12E0 [0x1C] WAIT(30* ticks)
 36: 0x12E3 [0x4A] Kipligg (ID: 17826097/0x01100131) looks at LocalPlayer
 37: 0x12EC [0x1C] WAIT(30* ticks)
 38: 0x12EF [0x66] LOAD_EXT_SCHEDULER_MAIN: Load scheduler "tlk0" with entities [Kipligg (ID: 17826097/0x01100131), Kipligg (ID: 17826097/0x01100131)], work=60*
 39: 0x12FE [0x2B] Kipligg (ID: 17826097/0x01100131) [9028*]:
    → "Whoa! It's been such a long time since I last saw you, <Player>."
 40: 0x1305 [0x23] WAIT_FOR_DIALOG_INTERACTION
 41: 0x1306 [0x2B] Kipligg (ID: 17826097/0x01100131) [9029*]:
    → ""What's the matter?" We've no place to store this massive cargo destined for the Middle Lands, that's what."
 42: 0x130D [0x23] WAIT_FOR_DIALOG_INTERACTION
