# 17826046 - Zaoso

## Common Data

| Field            | Value                     |
|------------------|---------------------------|
| Zone             | Western Adoulin (ID: 256) |
| Block Size       | 480 bytes                 |
| Total Events     | 12                        |
| References Count | 27                        |

## List of Events

| Event ID                 | Entrypoint   |   Size |   Instructions |
|--------------------------|--------------|--------|----------------|
| [65535](#event-65535)    | 0x0000       |      1 |              1 |
| [506](#event-506)        | 0x0001       |     47 |             11 |
| [574](#event-574)        | 0x0030       |     43 |              9 |
| [2553](#event-2553)      | 0x005B       |     57 |             17 |
| [2](#event-2)            | 0x0094       |      1 |              1 |
| [65535.1](#event-655351) | 0x0095       |     24 |              3 |
| [65535.2](#event-655352) | 0x00AD       |     53 |              9 |
| [65535.3](#event-655353) | 0x00E2       |     15 |              5 |
| [65535.4](#event-655354) | 0x00F1       |     15 |              5 |
| [65535.5](#event-655355) | 0x0100       |     24 |              6 |
| [65535.6](#event-655356) | 0x0118       |     24 |              3 |
| [182](#event-182)        | 0x0130       |      1 |              1 |

## DAT References (imed_data)

|   Index | Hex Value   |   Dec Value |
|---------|-------------|-------------|
|       0 | 0x0005      |           5 |
|       1 | 0x263E      |        9790 |
|       2 | 0x263F      |        9791 |
|       3 | 0x1F14      |        7956 |
|       4 | 0x1F15      |        7957 |
|       5 | 0x1F16      |        7958 |
|       6 | 0x1F17      |        7959 |
|       7 | 0x0003      |           3 |
|       8 | 0x0004      |           4 |
|       9 | 0x0000      |           0 |
|      10 | 0x000D      |          13 |
|      11 | 0x0001      |           1 |
|      12 | 0x000A      |          10 |
|      13 | 0x0034      |          52 |
|      14 | 0x0C44      |        3140 |
|      15 | 0xFFFFEA97  |  4294961815 |
|      16 | 0x56AB8     |      355000 |
|      17 | 0xFFFFE015  |  4294959125 |
|      18 | 0x0FA0      |        4000 |
|      19 | 0xFFFE7E2F  |  4294868527 |
|      20 | 0xFFFFC4C5  |  4294952133 |
|      21 | 0xFFFE7BD5  |  4294867925 |
|      22 | 0x160E      |        5646 |
|      23 | 0x0D15      |        3349 |
|      24 | 0x00A2      |         162 |
|      25 | 0x0018      |          24 |
|      26 | 0x0140      |         320 |

## String References

- **7956**: Ah, <Player>! How are you today?
- **7957**: Oh, you're on patrol for the Peacekeepers' Coalition? Nice to see you giving back to the community.
- **7958**: There's nothing of note whatsoever around here, and the colonization effort is proceeding just fine. Thank you so much for checking in.
- **7959**: I know some people are opposed to what we do, while others are terrified of the risks involved, but I hope you won't mind taking assignments from the Pioneers' Coalition sometime.
- **9790**: I welcome you with open arms to the Pioneers' Coalition!
- **9791**: Should you desire to register as a pioneer, my arms would open even wider. Or, we could have all our members join hands and hug you all at once, since we'd be like a family! Either way, just head to the desk in back to get started on the greatest adventure of your life!

## Events

### Event 65535

#### Metadata

| Field        | Value   |
|--------------|---------|
| Entrypoint   | 0x0000  |
| Data Size    | 1 bytes |
| Instructions | 1       |

```
      00 01 02 03 04 05 06 07  08 09 0A 0B 0C 0D 0E 0F
      -- -- -- -- -- -- -- --  -- -- -- -- -- -- -- --
0000: 00                                                .               
```

#### Opcodes

```
  0: 0x0000 [0x00] END_REQSTACK()
```

### Event 506

#### Metadata

| Field        | Value    |
|--------------|----------|
| Entrypoint   | 0x0001   |
| Data Size    | 47 bytes |
| Instructions | 11       |

```
      00 01 02 03 04 05 06 07  08 09 0A 0B 0C 0D 0E 0F
      -- -- -- -- -- -- -- --  -- -- -- -- -- -- -- --
0000:    1E F0 FF FF 7F 6F 70  66 00 80 F8 FF FF 7F F8   .....opf.......
0010: FF FF 7F 74 6C 62 30 1D  01 80 23 1D 02 80 23 66  ...tlb0...#...#f
0020: 00 80 F8 FF FF 7F F8 FF  FF 7F 74 6C 62 31 21 00  ..........tlb1!.
```

#### Opcodes

```
  0: 0x0001 [0x1E] EventEntity looks at LocalPlayer and starts talking
  1: 0x0006 [0x6F] WAIT_FRAME_DELAY: Yield until WaitTime reaches zero
  2: 0x0007 [0x70] WAIT_ENTITY_RENDER_FLAG: Wait while EventEntity->Render.Flags3 bit 2 is set (cancel turn if not)
  3: 0x0008 [0x66] LOAD_EXT_SCHEDULER_MAIN: Load scheduler "tlb0" with entities [EventEntity, EventEntity], work=5*
  4: 0x0017 [0x1D] PRINT_EVENT_MESSAGE(message_id=9790*)
    → "I welcome you with open arms to the Pioneers' Coalition!"
  5: 0x001A [0x23] WAIT_FOR_DIALOG_INTERACTION
  6: 0x001B [0x1D] PRINT_EVENT_MESSAGE(message_id=9791*)
    → "Should you desire to register as a pioneer, my arms would open even wider. Or, we could have all our members join hands and hug you all at once, since we'd be like a family! Either way, just head to the desk in back to get started on the greatest adventure of your life!"
  7: 0x001E [0x23] WAIT_FOR_DIALOG_INTERACTION
  8: 0x001F [0x66] LOAD_EXT_SCHEDULER_MAIN: Load scheduler "tlb1" with entities [EventEntity, EventEntity], work=5*
  9: 0x002E [0x21] END_EVENT
 10: 0x002F [0x00] END_REQSTACK()
```

### Event 574

#### Metadata

| Field        | Value    |
|--------------|----------|
| Entrypoint   | 0x0030   |
| Data Size    | 43 bytes |
| Instructions | 9        |

```
      00 01 02 03 04 05 06 07  08 09 0A 0B 0C 0D 0E 0F
      -- -- -- -- -- -- -- --  -- -- -- -- -- -- -- --
0030: 1E F0 FF FF 7F 6F 70 66  00 80 F8 FF FF 7F F8 FF  .....opf........
0040: FF 7F 74 6C 62 30 1D 01  80 23 66 00 80 F8 FF FF  ..tlb0...#f.....
0050: 7F F8 FF FF 7F 74 6C 62  31 21 00                 .....tlb1!.     
```

#### Opcodes

```
  0: 0x0030 [0x1E] EventEntity looks at LocalPlayer and starts talking
  1: 0x0035 [0x6F] WAIT_FRAME_DELAY: Yield until WaitTime reaches zero
  2: 0x0036 [0x70] WAIT_ENTITY_RENDER_FLAG: Wait while EventEntity->Render.Flags3 bit 2 is set (cancel turn if not)
  3: 0x0037 [0x66] LOAD_EXT_SCHEDULER_MAIN: Load scheduler "tlb0" with entities [EventEntity, EventEntity], work=5*
  4: 0x0046 [0x1D] PRINT_EVENT_MESSAGE(message_id=9790*)
    → "I welcome you with open arms to the Pioneers' Coalition!"
  5: 0x0049 [0x23] WAIT_FOR_DIALOG_INTERACTION
  6: 0x004A [0x66] LOAD_EXT_SCHEDULER_MAIN: Load scheduler "tlb1" with entities [EventEntity, EventEntity], work=5*
  7: 0x0059 [0x21] END_EVENT
  8: 0x005A [0x00] END_REQSTACK()
```

### Event 2553

#### Metadata

| Field        | Value    |
|--------------|----------|
| Entrypoint   | 0x005B   |
| Data Size    | 57 bytes |
| Instructions | 17       |

```
      00 01 02 03 04 05 06 07  08 09 0A 0B 0C 0D 0E 0F
      -- -- -- -- -- -- -- --  -- -- -- -- -- -- -- --
0050:                                   1E F0 FF FF 7F             .....
0060: 42 6F 70 66 00 80 F8 FF  FF 7F F8 FF FF 7F 74 6C  Bopf..........tl
0070: 62 30 1D 03 80 23 1D 04  80 23 1D 05 80 23 1D 06  b0...#...#...#..
0080: 80 23 66 00 80 F8 FF FF  7F F8 FF FF 7F 74 6C 62  .#f..........tlb
0090: 31 2E 21 00                                       1.!.            
```

#### Opcodes

```
  0: 0x005B [0x1E] EventEntity looks at LocalPlayer and starts talking
  1: 0x0060 [0x42] SET_CLI_EVENT_CANCEL_DATA()
  2: 0x0061 [0x6F] WAIT_FRAME_DELAY: Yield until WaitTime reaches zero
  3: 0x0062 [0x70] WAIT_ENTITY_RENDER_FLAG: Wait while EventEntity->Render.Flags3 bit 2 is set (cancel turn if not)
  4: 0x0063 [0x66] LOAD_EXT_SCHEDULER_MAIN: Load scheduler "tlb0" with entities [EventEntity, EventEntity], work=5*
  5: 0x0072 [0x1D] PRINT_EVENT_MESSAGE(message_id=7956*)
    → "Ah, <Player>! How are you today?"
  6: 0x0075 [0x23] WAIT_FOR_DIALOG_INTERACTION
  7: 0x0076 [0x1D] PRINT_EVENT_MESSAGE(message_id=7957*)
    → "Oh, you're on patrol for the Peacekeepers' Coalition? Nice to see you giving back to the community."
  8: 0x0079 [0x23] WAIT_FOR_DIALOG_INTERACTION
  9: 0x007A [0x1D] PRINT_EVENT_MESSAGE(message_id=7958*)
    → "There's nothing of note whatsoever around here, and the colonization effort is proceeding just fine. Thank you so much for checking in."
 10: 0x007D [0x23] WAIT_FOR_DIALOG_INTERACTION
 11: 0x007E [0x1D] PRINT_EVENT_MESSAGE(message_id=7959*)
    → "I know some people are opposed to what we do, while others are terrified of the risks involved, but I hope you won't mind taking assignments from the Pioneers' Coalition sometime."
 12: 0x0081 [0x23] WAIT_FOR_DIALOG_INTERACTION
 13: 0x0082 [0x66] LOAD_EXT_SCHEDULER_MAIN: Load scheduler "tlb1" with entities [EventEntity, EventEntity], work=5*
 14: 0x0091 [0x2E] SET_CLI_EVENT_CANCEL_FLAGS()
 15: 0x0092 [0x21] END_EVENT
 16: 0x0093 [0x00] END_REQSTACK()
```

### Event 2

#### Metadata

| Field        | Value   |
|--------------|---------|
| Entrypoint   | 0x0094  |
| Data Size    | 1 bytes |
| Instructions | 1       |

```
      00 01 02 03 04 05 06 07  08 09 0A 0B 0C 0D 0E 0F
      -- -- -- -- -- -- -- --  -- -- -- -- -- -- -- --
0090:             00                                        .           
```

#### Opcodes

```
  0: 0x0094 [0x00] END_REQSTACK()
```

### Event 65535.1

#### Metadata

| Field        | Value    |
|--------------|----------|
| Entrypoint   | 0x0095   |
| Data Size    | 24 bytes |
| Instructions | 3        |

```
      00 01 02 03 04 05 06 07  08 09 0A 0B 0C 0D 0E 0F
      -- -- -- -- -- -- -- --  -- -- -- -- -- -- -- --
0090:                B6 0B 07  80 08 80 09 80 0A 80 0A       ...........
00A0: 80 0A 80 0A 80 09 80 09  80 C0 0B 80 00           .............   
```

#### Opcodes

```
  0: 0x0095 [0xB6] ENTITY_APPEARANCE_HANDLER(case=Full entity look, race=3*, hair=4*, head=0*, body=13*, hands=13*, legs=13*, feet=13*, main=0*, sub=0*)
  1: 0x00A9 [0xC0] EventEntity->Render.Flags3 |= 0x1000 // Set bit 12 (from 1*)
  2: 0x00AC [0x00] END_REQSTACK()
```

### Event 65535.2

#### Metadata

| Field        | Value    |
|--------------|----------|
| Entrypoint   | 0x00AD   |
| Data Size    | 53 bytes |
| Instructions | 9        |

```
      00 01 02 03 04 05 06 07  08 09 0A 0B 0C 0D 0E 0F
      -- -- -- -- -- -- -- --  -- -- -- -- -- -- -- --
00A0:                                         4A F8 FF               J..
00B0: FF 7F 08 01 10 01 7B F8  FF FF 7F 6F 76 F8 FF FF  ......{....ov...
00C0: 7F 4A 03 01 10 01 08 01  10 01 7B 03 01 10 01 1C  .J........{.....
00D0: 0C 80 66 0D 80 03 01 10  01 03 01 10 01 77 61 76  ..f..........wav
00E0: 30 00                                             0.              
```

#### Opcodes

```
  0: 0x00AD [0x4A] EventEntity looks at Clemmar (ID: 17826056/0x01100108)
  1: 0x00B6 [0x7B] EventEntity stops talking
  2: 0x00BB [0x6F] WAIT_FRAME_DELAY: Yield until WaitTime reaches zero
  3: 0x00BC [0x76] CHECK_ENTITY_RENDER_FLAGS: Wait until EventEntity Render.Flags0 and Render.Flags3 conditions are met
  4: 0x00C1 [0x4A] Behff Oibbah (ID: 17826051/0x01100103) looks at Clemmar (ID: 17826056/0x01100108)
  5: 0x00CA [0x7B] Behff Oibbah (ID: 17826051/0x01100103) stops talking
  6: 0x00CF [0x1C] WAIT(10* ticks)
  7: 0x00D2 [0x66] LOAD_EXT_SCHEDULER_MAIN: Load scheduler "wav0" with entities [Behff Oibbah (ID: 17826051/0x01100103), Behff Oibbah (ID: 17826051/0x01100103)], work=52*
  8: 0x00E1 [0x00] END_REQSTACK()
```

### Event 65535.3

#### Metadata

| Field        | Value    |
|--------------|----------|
| Entrypoint   | 0x00E2   |
| Data Size    | 15 bytes |
| Instructions | 5        |

```
      00 01 02 03 04 05 06 07  08 09 0A 0B 0C 0D 0E 0F
      -- -- -- -- -- -- -- --  -- -- -- -- -- -- -- --
00E0:       32 0A 80 1F 00 0E  80 0F 80 09 80 1F 01 6F    2............o
00F0: 00                                                .               
```

#### Opcodes

```
  0: 0x00E2 [0x32] ExtData[1]->MainSpeed = 13* * 0.1
  1: 0x00E5 [0x1F] MOVE_ENTITY: EventEntity moves to X=3.140*, Z=-5.481*, Y=0.000*
  2: 0x00ED [0x1F] MOVE_ENTITY: Update entity position (mode=1)
  3: 0x00EF [0x6F] WAIT_FRAME_DELAY: Yield until WaitTime reaches zero
  4: 0x00F0 [0x00] END_REQSTACK()
```

### Event 65535.4

#### Metadata

| Field        | Value    |
|--------------|----------|
| Entrypoint   | 0x00F1   |
| Data Size    | 15 bytes |
| Instructions | 5        |

```
      00 01 02 03 04 05 06 07  08 09 0A 0B 0C 0D 0E 0F
      -- -- -- -- -- -- -- --  -- -- -- -- -- -- -- --
00F0:    32 0A 80 1F 00 10 80  11 80 12 80 1F 01 6F 00   2............o.
```

#### Opcodes

```
  0: 0x00F1 [0x32] ExtData[1]->MainSpeed = 13* * 0.1
  1: 0x00F4 [0x1F] MOVE_ENTITY: EventEntity moves to X=355.000*, Z=-8.171*, Y=4.000*
  2: 0x00FC [0x1F] MOVE_ENTITY: Update entity position (mode=1)
  3: 0x00FE [0x6F] WAIT_FRAME_DELAY: Yield until WaitTime reaches zero
  4: 0x00FF [0x00] END_REQSTACK()
```

### Event 65535.5

#### Metadata

| Field        | Value    |
|--------------|----------|
| Entrypoint   | 0x0100   |
| Data Size    | 24 bytes |
| Instructions | 6        |

```
      00 01 02 03 04 05 06 07  08 09 0A 0B 0C 0D 0E 0F
      -- -- -- -- -- -- -- --  -- -- -- -- -- -- -- --
0100: 32 0A 80 1F 00 13 80 14  80 12 80 1F 01 1F 00 15  2...............
0110: 80 16 80 17 80 1F 01 00                           ........        
```

#### Opcodes

```
  0: 0x0100 [0x32] ExtData[1]->MainSpeed = 13* * 0.1
  1: 0x0103 [0x1F] MOVE_ENTITY: EventEntity moves to X=-98.769*, Z=-15.163*, Y=4.000*
  2: 0x010B [0x1F] MOVE_ENTITY: Update entity position (mode=1)
  3: 0x010D [0x1F] MOVE_ENTITY: EventEntity moves to X=-99.371*, Z=5.646*, Y=3.349*
  4: 0x0115 [0x1F] MOVE_ENTITY: Update entity position (mode=1)
  5: 0x0117 [0x00] END_REQSTACK()
```

### Event 65535.6

#### Metadata

| Field        | Value    |
|--------------|----------|
| Entrypoint   | 0x0118   |
| Data Size    | 24 bytes |
| Instructions | 3        |

```
      00 01 02 03 04 05 06 07  08 09 0A 0B 0C 0D 0E 0F
      -- -- -- -- -- -- -- --  -- -- -- -- -- -- -- --
0110:                          B6 0B 0B 80 0B 80 09 80          ........
0120: 18 80 19 80 00 80 1A 80  09 80 09 80 C0 0B 80 00  ................
```

#### Opcodes

```
  0: 0x0118 [0xB6] ENTITY_APPEARANCE_HANDLER(case=Full entity look, race=1*, hair=1*, head=0*, body=162*, hands=24*, legs=5*, feet=320*, main=0*, sub=0*)
  1: 0x012C [0xC0] EventEntity->Render.Flags3 |= 0x1000 // Set bit 12 (from 1*)
  2: 0x012F [0x00] END_REQSTACK()
```

### Event 182

#### Metadata

| Field        | Value   |
|--------------|---------|
| Entrypoint   | 0x0130  |
| Data Size    | 1 bytes |
| Instructions | 1       |

```
      00 01 02 03 04 05 06 07  08 09 0A 0B 0C 0D 0E 0F
      -- -- -- -- -- -- -- --  -- -- -- -- -- -- -- --
0130: 00                                                .               
```

#### Opcodes

```
  0: 0x0130 [0x00] END_REQSTACK()
```
