# 17825927

## Common Data

| Field            | Value                     |
|------------------|---------------------------|
| Zone             | Western Adoulin (ID: 256) |
| Block Size       | 7488 bytes                |
| Total Events     | 10                        |
| References Count | 151                       |

## List of Events

| Event ID              | Entrypoint   |   Size |   Instructions |
|-----------------------|--------------|--------|----------------|
| [65535](#event-65535) | 0x0000       |      1 |              1 |
| [38](#event-38)       | 0x0001       |     22 |              6 |
| [31](#event-31)       | 0x0017       |   2160 |            252 |
| [32](#event-32)       | 0x0887       |    495 |             76 |
| [33](#event-33)       | 0x0A76       |    124 |             22 |
| [34](#event-34)       | 0x0AF2       |   1248 |            152 |
| [35](#event-35)       | 0x0FD2       |    179 |             29 |
| [36](#event-36)       | 0x1085       |   1425 |            169 |
| [37](#event-37)       | 0x1616       |    475 |             96 |
| [39](#event-39)       | 0x17F1       |    697 |             69 |

## DAT References (imed_data)

|   Index | Hex Value   |   Dec Value |
|---------|-------------|-------------|
|       0 | 0x0020      |          32 |
|       1 | 0x30CA      |       12490 |
|       2 | 0x0013      |          19 |
|       3 | 0x1277F     |       75647 |
|       4 | 0x213D6     |      136150 |
|       5 | 0x7CFF      |       31999 |
|       6 | 0x0049      |          73 |
|       7 | 0x001E      |          30 |
|       8 | 0x026D      |         621 |
|       9 | 0x0000      |           0 |
|      10 | 0x009F      |         159 |
|      11 | 0x3060      |       12384 |
|      12 | 0x000F      |          15 |
|      13 | 0x3061      |       12385 |
|      14 | 0x3062      |       12386 |
|      15 | 0x3063      |       12387 |
|      16 | 0x3064      |       12388 |
|      17 | 0x3065      |       12389 |
|      18 | 0x3066      |       12390 |
|      19 | 0x009E      |         158 |
|      20 | 0x3067      |       12391 |
|      21 | 0x3068      |       12392 |
|      22 | 0x3069      |       12393 |
|      23 | 0x0001      |           1 |
|      24 | 0x0028      |          40 |
|      25 | 0x0006      |           6 |
|      26 | 0x306A      |       12394 |
|      27 | 0x306B      |       12395 |
|      28 | 0x306C      |       12396 |
|      29 | 0x306D      |       12397 |
|      30 | 0x306E      |       12398 |
|      31 | 0x306F      |       12399 |
|      32 | 0x3070      |       12400 |
|      33 | 0x3071      |       12401 |
|      34 | 0x3072      |       12402 |
|      35 | 0x3073      |       12403 |
|      36 | 0x3074      |       12404 |
|      37 | 0x3075      |       12405 |
|      38 | 0x3076      |       12406 |
|      39 | 0x0070      |         112 |
|      40 | 0x003C      |          60 |
|      41 | 0x3077      |       12407 |
|      42 | 0x3078      |       12408 |
|      43 | 0x3079      |       12409 |
|      44 | 0x0005      |           5 |
|      45 | 0x307A      |       12410 |
|      46 | 0x0007      |           7 |
|      47 | 0x307B      |       12411 |
|      48 | 0x307C      |       12412 |
|      49 | 0x307D      |       12413 |
|      50 | 0x307E      |       12414 |
|      51 | 0x307F      |       12415 |
|      52 | 0x3080      |       12416 |
|      53 | 0x3081      |       12417 |
|      54 | 0x3082      |       12418 |
|      55 | 0x3083      |       12419 |
|      56 | 0x3084      |       12420 |
|      57 | 0x3085      |       12421 |
|      58 | 0x3087      |       12423 |
|      59 | 0x3088      |       12424 |
|      60 | 0x3089      |       12425 |
|      61 | 0x08E6      |        2278 |
|      62 | 0x02BF      |         703 |
|      63 | 0x308A      |       12426 |
|      64 | 0x308B      |       12427 |
|      65 | 0x308C      |       12428 |
|      66 | 0x308D      |       12429 |
|      67 | 0x00C8      |         200 |
|      68 | 0x3086      |       12422 |
|      69 | 0x308E      |       12430 |
|      70 | 0x308F      |       12431 |
|      71 | 0x3090      |       12432 |
|      72 | 0x3091      |       12433 |
|      73 | 0x00BF      |         191 |
|      74 | 0x0078      |         120 |
|      75 | 0x005A      |          90 |
|      76 | 0x3092      |       12434 |
|      77 | 0x3093      |       12435 |
|      78 | 0x3094      |       12436 |
|      79 | 0x00B4      |         180 |
|      80 | 0x3095      |       12437 |
|      81 | 0x3096      |       12438 |
|      82 | 0x3097      |       12439 |
|      83 | 0x3098      |       12440 |
|      84 | 0x3099      |       12441 |
|      85 | 0x309A      |       12442 |
|      86 | 0x309B      |       12443 |
|      87 | 0x309C      |       12444 |
|      88 | 0x309D      |       12445 |
|      89 | 0x309E      |       12446 |
|      90 | 0x309F      |       12447 |
|      91 | 0x30A0      |       12448 |
|      92 | 0x30A1      |       12449 |
|      93 | 0x30A2      |       12450 |
|      94 | 0x30A3      |       12451 |
|      95 | 0x30A4      |       12452 |
|      96 | 0x30A5      |       12453 |
|      97 | 0x30A6      |       12454 |
|      98 | 0x30A7      |       12455 |
|      99 | 0x30A8      |       12456 |
|     100 | 0x30A9      |       12457 |
|     101 | 0x1310E     |       78094 |
|     102 | 0x2122D     |      135725 |
|     103 | 0x0180      |         384 |
|     104 | 0x13042     |       77890 |
|     105 | 0x222C7     |      139975 |
|     106 | 0x0FB7      |        4023 |
|     107 | 0x30AA      |       12458 |
|     108 | 0x03E7      |         999 |
|     109 | 0x30AB      |       12459 |
|     110 | 0x30AC      |       12460 |
|     111 | 0x30AD      |       12461 |
|     112 | 0x30AE      |       12462 |
|     113 | 0x30AF      |       12463 |
|     114 | 0x30B0      |       12464 |
|     115 | 0x30B1      |       12465 |
|     116 | 0x30B2      |       12466 |
|     117 | 0x30B3      |       12467 |
|     118 | 0x30B4      |       12468 |
|     119 | 0x30B5      |       12469 |
|     120 | 0x30B6      |       12470 |
|     121 | 0x30B7      |       12471 |
|     122 | 0x30B8      |       12472 |
|     123 | 0x30B9      |       12473 |
|     124 | 0x0050      |          80 |
|     125 | 0x30BA      |       12474 |
|     126 | 0x0051      |          81 |
|     127 | 0x30BB      |       12475 |
|     128 | 0x30BC      |       12476 |
|     129 | 0x17BA      |        6074 |
|     130 | 0x30BD      |       12477 |
|     131 | 0x30BE      |       12478 |
|     132 | 0x30BF      |       12479 |
|     133 | 0x00C9      |         201 |
|     134 | 0x0015      |          21 |
|     135 | 0x30C0      |       12480 |
|     136 | 0x30C1      |       12481 |
|     137 | 0x30C2      |       12482 |
|     138 | 0x493E0     |      300000 |
|     139 | 0x249F0     |      150000 |
|     140 | 0x30C3      |       12483 |
|     141 | 0x30C4      |       12484 |
|     142 | 0x30C5      |       12485 |
|     143 | 0x30C6      |       12486 |
|     144 | 0x30C9      |       12489 |
|     145 | 0x30C7      |       12487 |
|     146 | 0x30C8      |       12488 |
|     147 | 0x0002      |           2 |
|     148 | 0x30CB      |       12491 |
|     149 | 0x002D      |          45 |
|     150 | 0x00D7      |         215 |

## String References

- **12392**: Your move. [Wha...?/Slow down, Nellie.]
- **12395**: Try your hand at geomancy? [I'd love to give it a go!/Sounds like fun!]
- **12419**: Make a luopan? [Yes!/.........No.]
- **12485**: Select your payment method. [Hang on./Gil./Bayld.]

## Events

### Event 65535

#### Metadata

| Field        | Value   |
|--------------|---------|
| Entrypoint   | 0x0000  |
| Data Size    | 1 bytes |
| Instructions | 1       |

```
      00 01 02 03 04 05 06 07  08 09 0A 0B 0C 0D 0E 0F
      -- -- -- -- -- -- -- --  -- -- -- -- -- -- -- --
0000: 00                                                .               
```

#### Opcodes

```
  0: 0x0000 [0x00] END_REQSTACK()
```

### Event 38

#### Metadata

| Field        | Value    |
|--------------|----------|
| Entrypoint   | 0x0001   |
| Data Size    | 22 bytes |
| Instructions | 6        |

```
      00 01 02 03 04 05 06 07  08 09 0A 0B 0C 0D 0E 0F
      -- -- -- -- -- -- -- --  -- -- -- -- -- -- -- --
0000:    6E 8A 00 10 01 00 80  99 8A 00 10 01 2B 8A 00   n...........+..
0010: 10 01 01 80 23 21 00                              ....#!.         
```

#### Opcodes

```
  0: 0x0001 [0x6E] Sylvie (ID: 17825930/0x0110008A) uses emote 32*
  1: 0x0008 [0x99] Wait for Sylvie (ID: 17825930/0x0110008A) animation to complete
  2: 0x000D [0x2B] Sylvie (ID: 17825930/0x0110008A) [12490*]:
    → "Umm, hmmm.... I don't think this [guy/gal] can do it..."
  3: 0x0014 [0x23] WAIT_FOR_DIALOG_INTERACTION
  4: 0x0015 [0x21] END_EVENT
  5: 0x0016 [0x00] END_REQSTACK()
```

### Event 31

#### Metadata

| Field        | Value      |
|--------------|------------|
| Entrypoint   | 0x0017     |
| Data Size    | 2160 bytes |
| Instructions | 251        |

```
      00 01 02 03 04 05 06 07  08 09 0A 0B 0C 0D 0E 0F
      -- -- -- -- -- -- -- --  -- -- -- -- -- -- -- --
0010:                      42  1A 7C 18 46 01 38 02 80         B.|.F.8..
0020: 92 01 8A 00 10 01 94 01  F0 FF FF 7F 94 01 8A 00  ................
0030: 10 01 BA F0 FF FF 7F 03  80 04 80 05 80 06 80 80  ................
0040: F0 FF FF 7F 80 8A 00 10  01 4A F0 FF FF 7F 8A 00  .........J......
0050: 10 01 4A 8A 00 10 01 F0  FF FF 7F 1C 07 80 45 08  ..J...........E.
0060: 80 F0 FF FF 7F F0 FF FF  7F 73 30 32 31 09 80 1A  .........s021...
0070: 5B 18 66 0A 80 8A 00 10  01 8A 00 10 01 74 6C 6B  [.f..........tlk
0080: 30 2B 8A 00 10 01 0B 80  23 7B 8A 00 10 01 1C 0C  0+......#{......
0090: 80 52 08 80 F0 FF FF 7F  F0 FF FF 7F 73 30 32 31  .R..........s021
00A0: 45 08 80 F0 FF FF 7F F0  FF FF 7F 73 30 32 32 09  E..........s022.
00B0: 80 2B 8A 00 10 01 0D 80  23 79 00 8A 00 10 01 F0  .+......#y......
00C0: FF FF 7F 52 08 80 F0 FF  FF 7F F0 FF FF 7F 73 30  ...R..........s0
00D0: 32 32 45 08 80 F0 FF FF  7F F0 FF FF 7F 73 30 32  22E..........s02
00E0: 33 09 80 66 0A 80 8A 00  10 01 8A 00 10 01 74 6C  3..f..........tl
00F0: 6B 31 2B 8A 00 10 01 0E  80 23 66 0A 80 8A 00 10  k1+......#f.....
0100: 01 8A 00 10 01 74 6C 6B  30 2B 8A 00 10 01 0F 80  .....tlk0+......
0110: 23 52 08 80 F0 FF FF 7F  F0 FF FF 7F 73 30 32 33  #R..........s023
0120: 45 08 80 F0 FF FF 7F F0  FF FF 7F 73 30 32 34 09  E..........s024.
0130: 80 2B 8A 00 10 01 10 80  23 2B 8A 00 10 01 11 80  .+......#+......
0140: 23 66 0A 80 8A 00 10 01  8A 00 10 01 74 6C 6B 31  #f..........tlk1
0150: 2B 8A 00 10 01 12 80 23  66 13 80 8A 00 10 01 8A  +......#f.......
0160: 00 10 01 74 6C 61 30 1C  0C 80 52 08 80 F0 FF FF  ...tla0...R.....
0170: 7F F0 FF FF 7F 73 30 32  34 45 08 80 F0 FF FF 7F  .....s024E......
0180: F0 FF FF 7F 73 30 32 35  09 80 2B 8A 00 10 01 14  ....s025..+.....
0190: 80 23 66 13 80 8A 00 10  01 8A 00 10 01 74 6C 61  .#f..........tla
01A0: 31 52 08 80 F0 FF FF 7F  F0 FF FF 7F 73 30 32 35  1R..........s025
01B0: 45 08 80 F0 FF FF 7F F0  FF FF 7F 73 30 32 36 09  E..........s026.
01C0: 80 24 15 80 09 80 09 80  25 02 00 10 09 80 00 0B  .$......%.......
01D0: 02 52 08 80 F0 FF FF 7F  F0 FF FF 7F 73 30 32 36  .R..........s026
01E0: 45 08 80 F0 FF FF 7F F0  FF FF 7F 73 30 32 37 09  E..........s027.
01F0: 80 66 0A 80 8A 00 10 01  8A 00 10 01 74 6C 6B 30  .f..........tlk0
0200: 2B 8A 00 10 01 16 80 23  01 4D 02 02 00 10 17 80  +......#.M......
0210: 00 4D 02 52 08 80 F0 FF  FF 7F F0 FF FF 7F 73 30  .M.R..........s0
0220: 32 36 45 08 80 F0 FF FF  7F F0 FF FF 7F 73 30 32  26E..........s02
0230: 37 09 80 66 0A 80 8A 00  10 01 8A 00 10 01 74 6C  7..f..........tl
0240: 6B 30 2B 8A 00 10 01 16  80 23 01 4D 02 52 08 80  k0+......#.M.R..
0250: F0 FF FF 7F F0 FF FF 7F  73 30 32 37 45 08 80 F0  ........s027E...
0260: FF FF 7F F0 FF FF 7F 73  30 32 38 09 80 66 0A 80  .......s028..f..
0270: 8A 00 10 01 8A 00 10 01  74 6C 6B 31 1C 18 80 6E  ........tlk1...n
0280: 8A 00 10 01 19 80 99 8A  00 10 01 2B 8A 00 10 01  ...........+....
0290: 1A 80 23 52 08 80 F0 FF  FF 7F F0 FF FF 7F 73 30  ..#R..........s0
02A0: 32 38 45 08 80 F0 FF FF  7F F0 FF FF 7F 73 30 32  28E..........s02
02B0: 39 09 80 24 1B 80 09 80  09 80 25 02 00 10 09 80  9..$......%.....
02C0: 00 EE 02 52 08 80 F0 FF  FF 7F F0 FF FF 7F 73 30  ...R..........s0
02D0: 32 39 45 08 80 F0 FF FF  7F F0 FF FF 7F 73 30 33  29E..........s03
02E0: 30 09 80 2B 8A 00 10 01  1C 80 23 01 21 03 02 00  0..+......#.!...
02F0: 10 17 80 00 21 03 52 08  80 F0 FF FF 7F F0 FF FF  ....!.R.........
0300: 7F 73 30 32 39 45 08 80  F0 FF FF 7F F0 FF FF 7F  .s029E..........
0310: 73 30 33 30 09 80 2B 8A  00 10 01 1C 80 23 01 21  s030..+......#.!
0320: 03 52 08 80 F0 FF FF 7F  F0 FF FF 7F 73 30 33 30  .R..........s030
0330: 45 08 80 F0 FF FF 7F F0  FF FF 7F 73 30 33 31 09  E..........s031.
0340: 80 66 13 80 8A 00 10 01  8A 00 10 01 74 6C 61 30  .f..........tla0
0350: 2B 8A 00 10 01 1D 80 23  2B 8A 00 10 01 1E 80 23  +......#+......#
0360: 52 08 80 F0 FF FF 7F F0  FF FF 7F 73 30 33 31 45  R..........s031E
0370: 08 80 F0 FF FF 7F F0 FF  FF 7F 73 30 33 32 09 80  ..........s032..
0380: 66 13 80 8A 00 10 01 8A  00 10 01 74 6C 61 31 2B  f..........tla1+
0390: 8A 00 10 01 1F 80 23 2B  8A 00 10 01 20 80 23 52  ......#+.... .#R
03A0: 08 80 F0 FF FF 7F F0 FF  FF 7F 73 30 33 32 45 08  ..........s032E.
03B0: 80 F0 FF FF 7F F0 FF FF  7F 73 30 33 33 09 80 66  .........s033..f
03C0: 0A 80 8A 00 10 01 8A 00  10 01 74 6C 6B 30 2B 8A  ..........tlk0+.
03D0: 00 10 01 21 80 23 66 0A  80 8A 00 10 01 8A 00 10  ...!.#f.........
03E0: 01 74 6C 6B 31 2B 8A 00  10 01 22 80 23 52 08 80  .tlk1+....".#R..
03F0: F0 FF FF 7F F0 FF FF 7F  73 30 33 33 45 08 80 F0  ........s033E...
0400: FF FF 7F F0 FF FF 7F 73  30 33 34 09 80 66 13 80  .......s034..f..
0410: 8A 00 10 01 8A 00 10 01  74 6C 61 30 2B 8A 00 10  ........tla0+...
0420: 01 23 80 23 2B 8A 00 10  01 24 80 23 2B 8A 00 10  .#.#+....$.#+...
0430: 01 25 80 23 66 13 80 8A  00 10 01 8A 00 10 01 74  .%.#f..........t
0440: 6C 61 31 7B 8A 00 10 01  1C 0C 80 52 08 80 F0 FF  la1{.......R....
0450: FF 7F F0 FF FF 7F 73 30  33 34 45 08 80 F0 FF FF  ......s034E.....
0460: 7F F0 FF FF 7F 73 30 33  35 09 80 2B 8A 00 10 01  .....s035..+....
0470: 26 80 23 52 08 80 F0 FF  FF 7F F0 FF FF 7F 73 30  &.#R..........s0
0480: 33 35 45 08 80 F0 FF FF  7F F0 FF FF 7F 73 30 33  35E..........s03
0490: 36 09 80 4B 8A 00 10 01  27 80 1C 28 80 2B 8A 00  6..K....'..(.+..
04A0: 10 01 29 80 23 52 08 80  F0 FF FF 7F F0 FF FF 7F  ..).#R..........
04B0: 73 30 33 36 45 08 80 F0  FF FF 7F F0 FF FF 7F 73  s036E..........s
04C0: 30 33 37 09 80 2B 8A 00  10 01 2A 80 23 52 08 80  037..+....*.#R..
04D0: F0 FF FF 7F F0 FF FF 7F  73 30 33 37 45 08 80 F0  ........s037E...
04E0: FF FF 7F F0 FF FF 7F 73  30 33 38 09 80 4A 8A 00  .......s038..J..
04F0: 10 01 F0 FF FF 7F 1C 07  80 66 0A 80 8A 00 10 01  .........f......
0500: 8A 00 10 01 74 6C 6B 30  2B 8A 00 10 01 2B 80 23  ....tlk0+....+.#
0510: 66 0A 80 8A 00 10 01 8A  00 10 01 74 6C 6B 31 1C  f..........tlk1.
0520: 2C 80 52 08 80 F0 FF FF  7F F0 FF FF 7F 73 30 33  ,.R..........s03
0530: 38 45 08 80 F0 FF FF 7F  F0 FF FF 7F 73 30 33 39  8E..........s039
0540: 09 80 2B 8A 00 10 01 2D  80 23 6E 8A 00 10 01 2E  ..+....-.#n.....
0550: 80 99 8A 00 10 01 2B 8A  00 10 01 2F 80 23 52 08  ......+..../.#R.
0560: 80 F0 FF FF 7F F0 FF FF  7F 73 30 33 39 45 08 80  .........s039E..
0570: F0 FF FF 7F F0 FF FF 7F  73 30 34 30 09 80 6E 8A  ........s040..n.
0580: 00 10 01 00 80 99 8A 00  10 01 2B 8A 00 10 01 30  ..........+....0
0590: 80 23 66 0A 80 8A 00 10  01 8A 00 10 01 74 6C 6B  .#f..........tlk
05A0: 30 2B 8A 00 10 01 31 80  23 52 08 80 F0 FF FF 7F  0+....1.#R......
05B0: F0 FF FF 7F 73 30 34 30  45 08 80 F0 FF FF 7F F0  ....s040E.......
05C0: FF FF 7F 73 30 34 31 09  80 66 0A 80 8A 00 10 01  ...s041..f......
05D0: 8A 00 10 01 74 6C 6B 31  2B 8A 00 10 01 32 80 23  ....tlk1+....2.#
05E0: 66 13 80 8A 00 10 01 8A  00 10 01 74 6C 61 30 1C  f..........tla0.
05F0: 0C 80 52 08 80 F0 FF FF  7F F0 FF FF 7F 73 30 34  ..R..........s04
0600: 31 45 08 80 F0 FF FF 7F  F0 FF FF 7F 73 30 34 32  1E..........s042
0610: 09 80 2B 8A 00 10 01 33  80 23 2B 8A 00 10 01 34  ..+....3.#+....4
0620: 80 23 52 08 80 F0 FF FF  7F F0 FF FF 7F 73 30 34  .#R..........s04
0630: 32 45 08 80 F0 FF FF 7F  F0 FF FF 7F 73 30 34 33  2E..........s043
0640: 09 80 66 13 80 8A 00 10  01 8A 00 10 01 74 6C 61  ..f..........tla
0650: 31 2B 8A 00 10 01 35 80  23 66 0A 80 8A 00 10 01  1+....5.#f......
0660: 8A 00 10 01 74 6C 6B 30  2B 8A 00 10 01 36 80 23  ....tlk0+....6.#
0670: 66 0A 80 8A 00 10 01 8A  00 10 01 74 6C 6B 31 52  f..........tlk1R
0680: 08 80 F0 FF FF 7F F0 FF  FF 7F 73 30 34 33 45 08  ..........s043E.
0690: 80 F0 FF FF 7F F0 FF FF  7F 73 30 34 34 09 80 24  .........s044..$
06A0: 37 80 09 80 09 80 25 02  00 10 17 80 00 25 07 52  7.....%......%.R
06B0: 08 80 F0 FF FF 7F F0 FF  FF 7F 73 30 34 34 45 08  ..........s044E.
06C0: 80 F0 FF FF 7F F0 FF FF  7F 73 30 34 35 09 80 6E  .........s045..n
06D0: 8A 00 10 01 02 80 99 8A  00 10 01 2B 8A 00 10 01  ...........+....
06E0: 38 80 23 7B 8A 00 10 01  52 08 80 F0 FF FF 7F F0  8.#{....R.......
06F0: FF FF 7F 73 30 34 35 45  08 80 F0 FF FF 7F F0 FF  ...s045E........
0700: FF 7F 73 30 34 36 09 80  6E 8A 00 10 01 19 80 99  ..s046..n.......
0710: 8A 00 10 01 2B 8A 00 10  01 39 80 23 06 01 10 01  ....+....9.#....
0720: 44 08 01 25 07 52 08 80  F0 FF FF 7F F0 FF FF 7F  D..%.R..........
0730: 73 30 34 34 45 08 80 F0  FF FF 7F F0 FF FF 7F 73  s044E..........s
0740: 30 34 37 09 80 66 13 80  8A 00 10 01 8A 00 10 01  047..f..........
0750: 74 6C 61 30 2B 8A 00 10  01 3A 80 23 2B 8A 00 10  tla0+....:.#+...
0760: 01 3B 80 23 52 08 80 F0  FF FF 7F F0 FF FF 7F 73  .;.#R..........s
0770: 30 34 37 45 08 80 F0 FF  FF 7F F0 FF FF 7F 73 30  047E..........s0
0780: 34 38 09 80 66 13 80 8A  00 10 01 8A 00 10 01 74  48..f..........t
0790: 6C 61 31 2B 8A 00 10 01  3C 80 23 66 0A 80 8A 00  la1+....<.#f....
07A0: 10 01 8A 00 10 01 74 6C  6B 30 03 02 10 3D 80 03  ......tlk0...=..
07B0: 03 10 3E 80 2B 8A 00 10  01 3F 80 23 52 08 80 F0  ..>.+....?.#R...
07C0: FF FF 7F F0 FF FF 7F 73  30 34 38 45 08 80 F0 FF  .......s048E....
07D0: FF 7F F0 FF FF 7F 73 30  34 39 09 80 66 0A 80 8A  ......s049..f...
07E0: 00 10 01 8A 00 10 01 74  6C 6B 31 2B 8A 00 10 01  .......tlk1+....
07F0: 40 80 23 6E 8A 00 10 01  00 80 99 8A 00 10 01 2B  @.#n...........+
0800: 8A 00 10 01 41 80 23 66  13 80 8A 00 10 01 8A 00  ....A.#f........
0810: 10 01 74 6C 61 30 1C 0C  80 52 08 80 F0 FF FF 7F  ..tla0...R......
0820: F0 FF FF 7F 73 30 34 39  45 08 80 F0 FF FF 7F F0  ....s049E.......
0830: FF FF 7F 73 30 35 30 09  80 2B 8A 00 10 01 42 80  ...s050..+....B.
0840: 23 05 01 10 1A 7C 18 1C  07 80 52 08 80 F0 FF FF  #....|....R.....
0850: 7F F0 FF FF 7F 73 30 34  36 52 08 80 F0 FF FF 7F  .....s046R......
0860: F0 FF FF 7F 73 30 35 30  1C 0C 80 AB 11 09 80 1C  ....s050........
0870: 17 80 46 00 45 43 80 F0  FF FF 7F F0 FF FF 7F 66  ..F.EC.........f
0880: 64 69 32 09 80 21 00                              di2..!.         
```

#### Opcodes

```
  0: 0x0017 [0x42] SET_CLI_EVENT_CANCEL_DATA()
  1: 0x0018 [0x1A] CALL_SUBROUTINE(address=0x187C)
  2: 0x001B [0x46] CAMERA_CONTROL: Disable user control
  3: 0x001D [0x38] SET_CLIENT_EVENT_MODE(mode=19*)
  4: 0x0020 [0x92] Sylvie (ID: 17825930/0x0110008A)->Render.Flags3 ^= 0x01
  5: 0x0026 [0x94] LocalPlayer->Render.Flags3 ^= 0x01
  6: 0x002C [0x94] Sylvie (ID: 17825930/0x0110008A)->Render.Flags3 ^= 0x01
  7: 0x0032 [0xBA] SET_ENTITY_POSITION(entity_id=LocalPlayer, pos_x=75.647*, pos_z=136.150*, pos_y=31.999*, direction=6.4°*)
  8: 0x003F [0x80] LOAD_WAIT(entity=LocalPlayer)
  9: 0x0044 [0x80] LOAD_WAIT(entity=Sylvie (ID: 17825930/0x0110008A))
 10: 0x0049 [0x4A] LocalPlayer looks at Sylvie (ID: 17825930/0x0110008A)
 11: 0x0052 [0x4A] Sylvie (ID: 17825930/0x0110008A) looks at LocalPlayer
 12: 0x005B [0x1C] WAIT(30* ticks)
 13: 0x005E [0x45] LOAD_SCHEDULED_TASK: Load scheduler "s021" with entities [LocalPlayer, LocalPlayer], work=[621*, 0*]
 14: 0x006F [0x1A] CALL_SUBROUTINE(address=0x185B)
 15: 0x0072 [0x66] LOAD_EXT_SCHEDULER_MAIN: Load scheduler "tlk0" with entities [Sylvie (ID: 17825930/0x0110008A), Sylvie (ID: 17825930/0x0110008A)], work=159*
 16: 0x0081 [0x2B] Sylvie (ID: 17825930/0x0110008A) [12384*]:
    → "W-w-wait!!! <Huff> <Puff> My...my name's Sylvie. Pleased to...to make your acquaintance, hee hee!"
 17: 0x0088 [0x23] WAIT_FOR_DIALOG_INTERACTION
 18: 0x0089 [0x7B] Sylvie (ID: 17825930/0x0110008A) stops talking
 19: 0x008E [0x1C] WAIT(15* ticks)
 20: 0x0091 [0x52] END_LOAD_SCHEDULER: End scheduler "s021" with entities [LocalPlayer, LocalPlayer], work=621*
 21: 0x00A0 [0x45] LOAD_SCHEDULED_TASK: Load scheduler "s022" with entities [LocalPlayer, LocalPlayer], work=[621*, 0*]
 22: 0x00B1 [0x2B] Sylvie (ID: 17825930/0x0110008A) [12385*]:
    → "<Huff> ...Sorry, I'm an out-of-shape geomancer...and not a people person."
 23: 0x00B8 [0x23] WAIT_FOR_DIALOG_INTERACTION
 24: 0x00B9 [0x79] Sylvie (ID: 17825930/0x0110008A) looks at LocalPlayer (Basic look)
 25: 0x00C3 [0x52] END_LOAD_SCHEDULER: End scheduler "s022" with entities [LocalPlayer, LocalPlayer], work=621*
 26: 0x00D2 [0x45] LOAD_SCHEDULED_TASK: Load scheduler "s023" with entities [LocalPlayer, LocalPlayer], work=[621*, 0*]
 27: 0x00E3 [0x66] LOAD_EXT_SCHEDULER_MAIN: Load scheduler "tlk1" with entities [Sylvie (ID: 17825930/0x0110008A), Sylvie (ID: 17825930/0x0110008A)], work=159*
 28: 0x00F2 [0x2B] Sylvie (ID: 17825930/0x0110008A) [12386*]:
    → "But Ikhi Askamot herself has charged me with this most splendiferous of responsibilities to help me overcome my shortcomings!"
 29: 0x00F9 [0x23] WAIT_FOR_DIALOG_INTERACTION
 30: 0x00FA [0x66] LOAD_EXT_SCHEDULER_MAIN: Load scheduler "tlk0" with entities [Sylvie (ID: 17825930/0x0110008A), Sylvie (ID: 17825930/0x0110008A)], work=159*
 31: 0x0109 [0x2B] Sylvie (ID: 17825930/0x0110008A) [12387*]:
    → "Ahhhhhh, uhhh, my task? Well, um, it's to help bring new geomancers into the fold. Yaaaaaay!"
 32: 0x0110 [0x23] WAIT_FOR_DIALOG_INTERACTION
 33: 0x0111 [0x52] END_LOAD_SCHEDULER: End scheduler "s023" with entities [LocalPlayer, LocalPlayer], work=621*
 34: 0x0120 [0x45] LOAD_SCHEDULED_TASK: Load scheduler "s024" with entities [LocalPlayer, LocalPlayer], work=[621*, 0*]
 35: 0x0131 [0x2B] Sylvie (ID: 17825930/0x0110008A) [12388*]:
    → "To tell the truth, the Order of Renaye is...kind of opposed to this whole pioneering thingamajig."
 36: 0x0138 [0x23] WAIT_FOR_DIALOG_INTERACTION
 37: 0x0139 [0x2B] Sylvie (ID: 17825930/0x0110008A) [12389*]:
    → "But! But! If Adoulin needs our assistance, we're gonna do everything we can!"
 38: 0x0140 [0x23] WAIT_FOR_DIALOG_INTERACTION
 39: 0x0141 [0x66] LOAD_EXT_SCHEDULER_MAIN: Load scheduler "tlk1" with entities [Sylvie (ID: 17825930/0x0110008A), Sylvie (ID: 17825930/0x0110008A)], work=159*
 40: 0x0150 [0x2B] Sylvie (ID: 17825930/0x0110008A) [12390*]:
    → "Plus, Eastern Ulbuka's scenery scares me with its trees and rivers--without geomancers to lend their aid, what hope does the land have?"
 41: 0x0157 [0x23] WAIT_FOR_DIALOG_INTERACTION
 42: 0x0158 [0x66] LOAD_EXT_SCHEDULER_MAIN: Load scheduler "tla0" with entities [Sylvie (ID: 17825930/0x0110008A), Sylvie (ID: 17825930/0x0110008A)], work=158*
 43: 0x0167 [0x1C] WAIT(15* ticks)
 44: 0x016A [0x52] END_LOAD_SCHEDULER: End scheduler "s024" with entities [LocalPlayer, LocalPlayer], work=621*
 45: 0x0179 [0x45] LOAD_SCHEDULED_TASK: Load scheduler "s025" with entities [LocalPlayer, LocalPlayer], work=[621*, 0*]
 46: 0x018A [0x2B] Sylvie (ID: 17825930/0x0110008A) [12391*]:
    → "And you...you look like the geodancing type! Right? Right!?"
 47: 0x0191 [0x23] WAIT_FOR_DIALOG_INTERACTION
 48: 0x0192 [0x66] LOAD_EXT_SCHEDULER_MAIN: Load scheduler "tla1" with entities [Sylvie (ID: 17825930/0x0110008A), Sylvie (ID: 17825930/0x0110008A)], work=158*
 49: 0x01A1 [0x52] END_LOAD_SCHEDULER: End scheduler "s025" with entities [LocalPlayer, LocalPlayer], work=621*
 50: 0x01B0 [0x45] LOAD_SCHEDULED_TASK: Load scheduler "s026" with entities [LocalPlayer, LocalPlayer], work=[621*, 0*]
 51: 0x01C1 [0x24] CREATE_DIALOG(message_id=12392*, default_option=0*, option_flags=0*)
    → "Your move. [Wha...?/Slow down, Nellie.]"
 52: 0x01C8 [0x25] WAIT_DIALOG_SELECT()
 53: 0x01C9 [0x02] IF !(Work_Zone[0] == 0*) GOTO 0x020B
 54: 0x01D1 [0x52] END_LOAD_SCHEDULER: End scheduler "s026" with entities [LocalPlayer, LocalPlayer], work=621*
 55: 0x01E0 [0x45] LOAD_SCHEDULED_TASK: Load scheduler "s027" with entities [LocalPlayer, LocalPlayer], work=[621*, 0*]
 56: 0x01F1 [0x66] LOAD_EXT_SCHEDULER_MAIN: Load scheduler "tlk0" with entities [Sylvie (ID: 17825930/0x0110008A), Sylvie (ID: 17825930/0x0110008A)], work=159*
 57: 0x0200 [0x2B] Sylvie (ID: 17825930/0x0110008A) [12393*]:
    → "I...yes, well...geomancers! You wanna be one, don'tcha?"
 58: 0x0207 [0x23] WAIT_FOR_DIALOG_INTERACTION
 59: 0x0208 [0x01] GOTO 0x024D
 60: 0x020B [0x02] IF !(Work_Zone[0] == 1*) GOTO 0x024D
 61: 0x0213 [0x52] END_LOAD_SCHEDULER: End scheduler "s026" with entities [LocalPlayer, LocalPlayer], work=621*
 62: 0x0222 [0x45] LOAD_SCHEDULED_TASK: Load scheduler "s027" with entities [LocalPlayer, LocalPlayer], work=[621*, 0*]
 63: 0x0233 [0x66] LOAD_EXT_SCHEDULER_MAIN: Load scheduler "tlk0" with entities [Sylvie (ID: 17825930/0x0110008A), Sylvie (ID: 17825930/0x0110008A)], work=159*
 64: 0x0242 [0x2B] Sylvie (ID: 17825930/0x0110008A) [12393*]:
    → "I...yes, well...geomancers! You wanna be one, don'tcha?"
 65: 0x0249 [0x23] WAIT_FOR_DIALOG_INTERACTION
 66: 0x024A [0x01] GOTO 0x024D

SUBROUTINE_024D:
 67: 0x024D [0x52] END_LOAD_SCHEDULER: End scheduler "s027" with entities [LocalPlayer, LocalPlayer], work=621*
 68: 0x025C [0x45] LOAD_SCHEDULED_TASK: Load scheduler "s028" with entities [LocalPlayer, LocalPlayer], work=[621*, 0*]
 69: 0x026D [0x66] LOAD_EXT_SCHEDULER_MAIN: Load scheduler "tlk1" with entities [Sylvie (ID: 17825930/0x0110008A), Sylvie (ID: 17825930/0x0110008A)], work=159*
 70: 0x027C [0x1C] WAIT(40* ticks)
 71: 0x027F [0x6E] Sylvie (ID: 17825930/0x0110008A) uses emote 6*
 72: 0x0286 [0x99] Wait for Sylvie (ID: 17825930/0x0110008A) animation to complete
 73: 0x028B [0x2B] Sylvie (ID: 17825930/0x0110008A) [12394*]:
    → "...Sorry. I'm not terribly good at this sort of thing."
 74: 0x0292 [0x23] WAIT_FOR_DIALOG_INTERACTION
 75: 0x0293 [0x52] END_LOAD_SCHEDULER: End scheduler "s028" with entities [LocalPlayer, LocalPlayer], work=621*
 76: 0x02A2 [0x45] LOAD_SCHEDULED_TASK: Load scheduler "s029" with entities [LocalPlayer, LocalPlayer], work=[621*, 0*]
 77: 0x02B3 [0x24] CREATE_DIALOG(message_id=12395*, default_option=0*, option_flags=0*)
    → "Try your hand at geomancy? [I'd love to give it a go!/Sounds like fun!]"
 78: 0x02BA [0x25] WAIT_DIALOG_SELECT()
 79: 0x02BB [0x02] IF !(Work_Zone[0] == 0*) GOTO 0x02EE
 80: 0x02C3 [0x52] END_LOAD_SCHEDULER: End scheduler "s029" with entities [LocalPlayer, LocalPlayer], work=621*
 81: 0x02D2 [0x45] LOAD_SCHEDULED_TASK: Load scheduler "s030" with entities [LocalPlayer, LocalPlayer], work=[621*, 0*]
 82: 0x02E3 [0x2B] Sylvie (ID: 17825930/0x0110008A) [12396*]:
    → "R-really!? Oh, how magnanitabular!"
 83: 0x02EA [0x23] WAIT_FOR_DIALOG_INTERACTION
 84: 0x02EB [0x01] GOTO 0x0321
 85: 0x02EE [0x02] IF !(Work_Zone[0] == 1*) GOTO 0x0321
 86: 0x02F6 [0x52] END_LOAD_SCHEDULER: End scheduler "s029" with entities [LocalPlayer, LocalPlayer], work=621*
 87: 0x0305 [0x45] LOAD_SCHEDULED_TASK: Load scheduler "s030" with entities [LocalPlayer, LocalPlayer], work=[621*, 0*]
 88: 0x0316 [0x2B] Sylvie (ID: 17825930/0x0110008A) [12396*]:
    → "R-really!? Oh, how magnanitabular!"
 89: 0x031D [0x23] WAIT_FOR_DIALOG_INTERACTION
 90: 0x031E [0x01] GOTO 0x0321

SUBROUTINE_0321:
 91: 0x0321 [0x52] END_LOAD_SCHEDULER: End scheduler "s030" with entities [LocalPlayer, LocalPlayer], work=621*
 92: 0x0330 [0x45] LOAD_SCHEDULED_TASK: Load scheduler "s031" with entities [LocalPlayer, LocalPlayer], work=[621*, 0*]
 93: 0x0341 [0x66] LOAD_EXT_SCHEDULER_MAIN: Load scheduler "tla0" with entities [Sylvie (ID: 17825930/0x0110008A), Sylvie (ID: 17825930/0x0110008A)], work=158*
 94: 0x0350 [0x2B] Sylvie (ID: 17825930/0x0110008A) [12397*]:
    → "You're really sure? I mean really, really sure???"
 95: 0x0357 [0x23] WAIT_FOR_DIALOG_INTERACTION
 96: 0x0358 [0x2B] Sylvie (ID: 17825930/0x0110008A) [12398*]:
    → "Hooray! Then let's roll up our sleeves and get started!"
 97: 0x035F [0x23] WAIT_FOR_DIALOG_INTERACTION
 98: 0x0360 [0x52] END_LOAD_SCHEDULER: End scheduler "s031" with entities [LocalPlayer, LocalPlayer], work=621*
 99: 0x036F [0x45] LOAD_SCHEDULED_TASK: Load scheduler "s032" with entities [LocalPlayer, LocalPlayer], work=[621*, 0*]
100: 0x0380 [0x66] LOAD_EXT_SCHEDULER_MAIN: Load scheduler "tla1" with entities [Sylvie (ID: 17825930/0x0110008A), Sylvie (ID: 17825930/0x0110008A)], work=158*
101: 0x038F [0x2B] Sylvie (ID: 17825930/0x0110008A) [12399*]:
    → "First, a quiz! What's Adoulin's oldest profession? That's right...geomancy!"
102: 0x0396 [0x23] WAIT_FOR_DIALOG_INTERACTION
103: 0x0397 [0x2B] Sylvie (ID: 17825930/0x0110008A) [12400*]:
    → "But, well, even though it was known for, well, since forever, it never really took off until much later."
104: 0x039E [0x23] WAIT_FOR_DIALOG_INTERACTION
105: 0x039F [0x52] END_LOAD_SCHEDULER: End scheduler "s032" with entities [LocalPlayer, LocalPlayer], work=621*
106: 0x03AE [0x45] LOAD_SCHEDULED_TASK: Load scheduler "s033" with entities [LocalPlayer, LocalPlayer], work=[621*, 0*]
107: 0x03BF [0x66] LOAD_EXT_SCHEDULER_MAIN: Load scheduler "tlk0" with entities [Sylvie (ID: 17825930/0x0110008A), Sylvie (ID: 17825930/0x0110008A)], work=159*
108: 0x03CE [0x2B] Sylvie (ID: 17825930/0x0110008A) [12401*]:
    → "I'm a little fuzzy on the details. It's complicated. Something about the sirens of legends, or the five disciples of Sih Renaye... Gosh, I can never keep this stuff straight."
109: 0x03D5 [0x23] WAIT_FOR_DIALOG_INTERACTION
110: 0x03D6 [0x66] LOAD_EXT_SCHEDULER_MAIN: Load scheduler "tlk1" with entities [Sylvie (ID: 17825930/0x0110008A), Sylvie (ID: 17825930/0x0110008A)], work=159*
111: 0x03E5 [0x2B] Sylvie (ID: 17825930/0x0110008A) [12402*]:
    → "Oh, wait! Geomancy. Right."
112: 0x03EC [0x23] WAIT_FOR_DIALOG_INTERACTION
113: 0x03ED [0x52] END_LOAD_SCHEDULER: End scheduler "s033" with entities [LocalPlayer, LocalPlayer], work=621*
114: 0x03FC [0x45] LOAD_SCHEDULED_TASK: Load scheduler "s034" with entities [LocalPlayer, LocalPlayer], work=[621*, 0*]
115: 0x040D [0x66] LOAD_EXT_SCHEDULER_MAIN: Load scheduler "tla0" with entities [Sylvie (ID: 17825930/0x0110008A), Sylvie (ID: 17825930/0x0110008A)], work=158*
116: 0x041C [0x2B] Sylvie (ID: 17825930/0x0110008A) [12403*]:
    → "Research into geomancy as a discipline started...well, started in Eastern Ulbuka as a way to counteract the dangers of nature, and took place over many, many years."
117: 0x0423 [0x23] WAIT_FOR_DIALOG_INTERACTION
118: 0x0424 [0x2B] Sylvie (ID: 17825930/0x0110008A) [12404*]:
    → "It's kinda similar to, yet totally different from, the pioneering efforts that occurred back then. What geomancy cares about is having a heart-to-heart with nature."
119: 0x042B [0x23] WAIT_FOR_DIALOG_INTERACTION
120: 0x042C [0x2B] Sylvie (ID: 17825930/0x0110008A) [12405*]:
    → "But that's at a really advanced level. Back then, only the best of the best could do it."
121: 0x0433 [0x23] WAIT_FOR_DIALOG_INTERACTION
122: 0x0434 [0x66] LOAD_EXT_SCHEDULER_MAIN: Load scheduler "tla1" with entities [Sylvie (ID: 17825930/0x0110008A), Sylvie (ID: 17825930/0x0110008A)], work=158*
123: 0x0443 [0x7B] Sylvie (ID: 17825930/0x0110008A) stops talking
124: 0x0448 [0x1C] WAIT(15* ticks)
125: 0x044B [0x52] END_LOAD_SCHEDULER: End scheduler "s034" with entities [LocalPlayer, LocalPlayer], work=621*
126: 0x045A [0x45] LOAD_SCHEDULED_TASK: Load scheduler "s035" with entities [LocalPlayer, LocalPlayer], work=[621*, 0*]
127: 0x046B [0x2B] Sylvie (ID: 17825930/0x0110008A) [12406*]:
    → "Well, you know...natural forces can be a bit cheeky, and don't like it when people try to expose their feelings."
128: 0x0472 [0x23] WAIT_FOR_DIALOG_INTERACTION
129: 0x0473 [0x52] END_LOAD_SCHEDULER: End scheduler "s035" with entities [LocalPlayer, LocalPlayer], work=621*
130: 0x0482 [0x45] LOAD_SCHEDULED_TASK: Load scheduler "s036" with entities [LocalPlayer, LocalPlayer], work=[621*, 0*]
131: 0x0493 [0x4B] UPDATE_ENTITY_YAW(entity=Sylvie (ID: 17825930/0x0110008A), yaw=0.6°*)
132: 0x049A [0x1C] WAIT(60* ticks)
133: 0x049D [0x2B] Sylvie (ID: 17825930/0x0110008A) [12407*]:
    → "Eventually, the ancient geomancers realized that the answer wasn't to control the land--could you imagine?--but rather let themselves be swept up by its current and borrow some of its strength."
134: 0x04A4 [0x23] WAIT_FOR_DIALOG_INTERACTION
135: 0x04A5 [0x52] END_LOAD_SCHEDULER: End scheduler "s036" with entities [LocalPlayer, LocalPlayer], work=621*
136: 0x04B4 [0x45] LOAD_SCHEDULED_TASK: Load scheduler "s037" with entities [LocalPlayer, LocalPlayer], work=[621*, 0*]
137: 0x04C5 [0x2B] Sylvie (ID: 17825930/0x0110008A) [12408*]:
    → "We call that current the "lifestream." The lifestream flows within Mother Nature kinda like how blood flows through you and me. It's all around us, even right now."
138: 0x04CC [0x23] WAIT_FOR_DIALOG_INTERACTION
139: 0x04CD [0x52] END_LOAD_SCHEDULER: End scheduler "s037" with entities [LocalPlayer, LocalPlayer], work=621*
140: 0x04DC [0x45] LOAD_SCHEDULED_TASK: Load scheduler "s038" with entities [LocalPlayer, LocalPlayer], work=[621*, 0*]
141: 0x04ED [0x4A] Sylvie (ID: 17825930/0x0110008A) looks at LocalPlayer
142: 0x04F6 [0x1C] WAIT(30* ticks)
143: 0x04F9 [0x66] LOAD_EXT_SCHEDULER_MAIN: Load scheduler "tlk0" with entities [Sylvie (ID: 17825930/0x0110008A), Sylvie (ID: 17825930/0x0110008A)], work=159*
144: 0x0508 [0x2B] Sylvie (ID: 17825930/0x0110008A) [12409*]:
    → "When we use the power of the lifestream, it's called using "Geomantic Incantations," or simply "Geomancy." Confusing, right? I know it threw me for a loop, having two words mean the same thing..."
145: 0x050F [0x23] WAIT_FOR_DIALOG_INTERACTION
146: 0x0510 [0x66] LOAD_EXT_SCHEDULER_MAIN: Load scheduler "tlk1" with entities [Sylvie (ID: 17825930/0x0110008A), Sylvie (ID: 17825930/0x0110008A)], work=159*
147: 0x051F [0x1C] WAIT(5* ticks)
148: 0x0522 [0x52] END_LOAD_SCHEDULER: End scheduler "s038" with entities [LocalPlayer, LocalPlayer], work=621*
149: 0x0531 [0x45] LOAD_SCHEDULED_TASK: Load scheduler "s039" with entities [LocalPlayer, LocalPlayer], work=[621*, 0*]
150: 0x0542 [0x2B] Sylvie (ID: 17825930/0x0110008A) [12410*]:
    → "There are two types of geomancy. Power originating from the geomancer herself is known as "Indi," and power originating from a mystic emanation known as a "luopan" is called "Geo.""
151: 0x0549 [0x23] WAIT_FOR_DIALOG_INTERACTION
152: 0x054A [0x6E] Sylvie (ID: 17825930/0x0110008A) uses emote 7*
153: 0x0551 [0x99] Wait for Sylvie (ID: 17825930/0x0110008A) animation to complete
154: 0x0556 [0x2B] Sylvie (ID: 17825930/0x0110008A) [12411*]:
    → "Ikhi Askamot says that ancient geomancers gave names to all these terms to help people understand, but she also thinks that it's easier to just see for yourself."
155: 0x055D [0x23] WAIT_FOR_DIALOG_INTERACTION
156: 0x055E [0x52] END_LOAD_SCHEDULER: End scheduler "s039" with entities [LocalPlayer, LocalPlayer], work=621*
157: 0x056D [0x45] LOAD_SCHEDULED_TASK: Load scheduler "s040" with entities [LocalPlayer, LocalPlayer], work=[621*, 0*]
158: 0x057E [0x6E] Sylvie (ID: 17825930/0x0110008A) uses emote 32*
159: 0x0585 [0x99] Wait for Sylvie (ID: 17825930/0x0110008A) animation to complete
160: 0x058A [0x2B] Sylvie (ID: 17825930/0x0110008A) [12412*]:
    → "It's like that old saying, you know? A picture is worth two in the bush, or something...? Sorry, I'm really bad at this."
161: 0x0591 [0x23] WAIT_FOR_DIALOG_INTERACTION
162: 0x0592 [0x66] LOAD_EXT_SCHEDULER_MAIN: Load scheduler "tlk0" with entities [Sylvie (ID: 17825930/0x0110008A), Sylvie (ID: 17825930/0x0110008A)], work=159*
163: 0x05A1 [0x2B] Sylvie (ID: 17825930/0x0110008A) [12413*]:
    → "Come on, you know what I mean! If you get your hands wet you'll learn more than if I blab on about it for hours."
164: 0x05A8 [0x23] WAIT_FOR_DIALOG_INTERACTION
165: 0x05A9 [0x52] END_LOAD_SCHEDULER: End scheduler "s040" with entities [LocalPlayer, LocalPlayer], work=621*
166: 0x05B8 [0x45] LOAD_SCHEDULED_TASK: Load scheduler "s041" with entities [LocalPlayer, LocalPlayer], work=[621*, 0*]
167: 0x05C9 [0x66] LOAD_EXT_SCHEDULER_MAIN: Load scheduler "tlk1" with entities [Sylvie (ID: 17825930/0x0110008A), Sylvie (ID: 17825930/0x0110008A)], work=159*
168: 0x05D8 [0x2B] Sylvie (ID: 17825930/0x0110008A) [12414*]:
    → "S-so! In order to handle the excellentatiousness of geomancy, you first need a luopan!"
169: 0x05DF [0x23] WAIT_FOR_DIALOG_INTERACTION
170: 0x05E0 [0x66] LOAD_EXT_SCHEDULER_MAIN: Load scheduler "tla0" with entities [Sylvie (ID: 17825930/0x0110008A), Sylvie (ID: 17825930/0x0110008A)], work=158*
171: 0x05EF [0x1C] WAIT(15* ticks)
172: 0x05F2 [0x52] END_LOAD_SCHEDULER: End scheduler "s041" with entities [LocalPlayer, LocalPlayer], work=621*
173: 0x0601 [0x45] LOAD_SCHEDULED_TASK: Load scheduler "s042" with entities [LocalPlayer, LocalPlayer], work=[621*, 0*]
174: 0x0612 [0x2B] Sylvie (ID: 17825930/0x0110008A) [12415*]:
    → "Luopans are essential for being a world-class geomancer. They're like a loyal pet--until death do you part!"
175: 0x0619 [0x23] WAIT_FOR_DIALOG_INTERACTION
176: 0x061A [0x2B] Sylvie (ID: 17825930/0x0110008A) [12416*]:
    → "Except luopans don't run away one afternoon when you're seven years old, leaving you crying on your front doorstep."
177: 0x0621 [0x23] WAIT_FOR_DIALOG_INTERACTION
178: 0x0622 [0x52] END_LOAD_SCHEDULER: End scheduler "s042" with entities [LocalPlayer, LocalPlayer], work=621*
179: 0x0631 [0x45] LOAD_SCHEDULED_TASK: Load scheduler "s043" with entities [LocalPlayer, LocalPlayer], work=[621*, 0*]
180: 0x0642 [0x66] LOAD_EXT_SCHEDULER_MAIN: Load scheduler "tla1" with entities [Sylvie (ID: 17825930/0x0110008A), Sylvie (ID: 17825930/0x0110008A)], work=158*
181: 0x0651 [0x2B] Sylvie (ID: 17825930/0x0110008A) [12417*]:
    → "'Course, most geomancers can't use luopans right after they become one. Become geomancers, I mean."
182: 0x0658 [0x23] WAIT_FOR_DIALOG_INTERACTION
183: 0x0659 [0x66] LOAD_EXT_SCHEDULER_MAIN: Load scheduler "tlk0" with entities [Sylvie (ID: 17825930/0x0110008A), Sylvie (ID: 17825930/0x0110008A)], work=159*
184: 0x0668 [0x2B] Sylvie (ID: 17825930/0x0110008A) [12418*]:
    → "Lecture's over! Ready to get down and dirty?"
185: 0x066F [0x23] WAIT_FOR_DIALOG_INTERACTION
186: 0x0670 [0x66] LOAD_EXT_SCHEDULER_MAIN: Load scheduler "tlk1" with entities [Sylvie (ID: 17825930/0x0110008A), Sylvie (ID: 17825930/0x0110008A)], work=159*
187: 0x067F [0x52] END_LOAD_SCHEDULER: End scheduler "s043" with entities [LocalPlayer, LocalPlayer], work=621*
188: 0x068E [0x45] LOAD_SCHEDULED_TASK: Load scheduler "s044" with entities [LocalPlayer, LocalPlayer], work=[621*, 0*]
189: 0x069F [0x24] CREATE_DIALOG(message_id=12419*, default_option=0*, option_flags=0*)
    → "Make a luopan? [Yes!/.........No.]"
190: 0x06A6 [0x25] WAIT_DIALOG_SELECT()
191: 0x06A7 [0x02] IF !(Work_Zone[0] == 1*) GOTO 0x0725
192: 0x06AF [0x52] END_LOAD_SCHEDULER: End scheduler "s044" with entities [LocalPlayer, LocalPlayer], work=621*
193: 0x06BE [0x45] LOAD_SCHEDULED_TASK: Load scheduler "s045" with entities [LocalPlayer, LocalPlayer], work=[621*, 0*]
194: 0x06CF [0x6E] Sylvie (ID: 17825930/0x0110008A) uses emote 19*
195: 0x06D6 [0x99] Wait for Sylvie (ID: 17825930/0x0110008A) animation to complete
196: 0x06DB [0x2B] Sylvie (ID: 17825930/0x0110008A) [12420*]:
    → "Wh-what? I've been sitting here pouring my heart out, and you're gonna walk away just like that?"
197: 0x06E2 [0x23] WAIT_FOR_DIALOG_INTERACTION
198: 0x06E3 [0x7B] Sylvie (ID: 17825930/0x0110008A) stops talking
199: 0x06E8 [0x52] END_LOAD_SCHEDULER: End scheduler "s045" with entities [LocalPlayer, LocalPlayer], work=621*
200: 0x06F7 [0x45] LOAD_SCHEDULED_TASK: Load scheduler "s046" with entities [LocalPlayer, LocalPlayer], work=[621*, 0*]
201: 0x0708 [0x6E] Sylvie (ID: 17825930/0x0110008A) uses emote 6*
202: 0x070F [0x99] Wait for Sylvie (ID: 17825930/0x0110008A) animation to complete
203: 0x0714 [0x2B] Sylvie (ID: 17825930/0x0110008A) [12421*]:
    → "I knew I wasn't cut out for this... Oh, Ikhi, I did it again..."
204: 0x071B [0x23] WAIT_FOR_DIALOG_INTERACTION
205: 0x071C [0x06] Work_Zone[1] = 0
206: 0x071F [0x01] GOTO 0x0844

SUBROUTINE_0725:
207: 0x0725 [0x52] END_LOAD_SCHEDULER: End scheduler "s044" with entities [LocalPlayer, LocalPlayer], work=621*
208: 0x0734 [0x45] LOAD_SCHEDULED_TASK: Load scheduler "s047" with entities [LocalPlayer, LocalPlayer], work=[621*, 0*]
209: 0x0745 [0x66] LOAD_EXT_SCHEDULER_MAIN: Load scheduler "tla0" with entities [Sylvie (ID: 17825930/0x0110008A), Sylvie (ID: 17825930/0x0110008A)], work=158*
210: 0x0754 [0x2B] Sylvie (ID: 17825930/0x0110008A) [12423*]:
    → "This is stupendelicious!"
211: 0x075B [0x23] WAIT_FOR_DIALOG_INTERACTION
212: 0x075C [0x2B] Sylvie (ID: 17825930/0x0110008A) [12424*]:
    → "Let's get this party started before you bail on me!"
213: 0x0763 [0x23] WAIT_FOR_DIALOG_INTERACTION
214: 0x0764 [0x52] END_LOAD_SCHEDULER: End scheduler "s047" with entities [LocalPlayer, LocalPlayer], work=621*
215: 0x0773 [0x45] LOAD_SCHEDULED_TASK: Load scheduler "s048" with entities [LocalPlayer, LocalPlayer], work=[621*, 0*]
216: 0x0784 [0x66] LOAD_EXT_SCHEDULER_MAIN: Load scheduler "tla1" with entities [Sylvie (ID: 17825930/0x0110008A), Sylvie (ID: 17825930/0x0110008A)], work=158*
217: 0x0793 [0x2B] Sylvie (ID: 17825930/0x0110008A) [12425*]:
    → "Getting the materials for a luopan is really simple, so I know you'll be up for it."
218: 0x079A [0x23] WAIT_FOR_DIALOG_INTERACTION
219: 0x079B [0x66] LOAD_EXT_SCHEDULER_MAIN: Load scheduler "tlk0" with entities [Sylvie (ID: 17825930/0x0110008A), Sylvie (ID: 17825930/0x0110008A)], work=159*
220: 0x07AA [0x03] Work_Zone[2] = 2278*
221: 0x07AF [0x03] Work_Zone[3] = 703*
222: 0x07B4 [0x2B] Sylvie (ID: 17825930/0x0110008A) [12426*]:
    → "You'll need two things--one $1 and $6."
223: 0x07BB [0x23] WAIT_FOR_DIALOG_INTERACTION
224: 0x07BC [0x52] END_LOAD_SCHEDULER: End scheduler "s048" with entities [LocalPlayer, LocalPlayer], work=621*
225: 0x07CB [0x45] LOAD_SCHEDULED_TASK: Load scheduler "s049" with entities [LocalPlayer, LocalPlayer], work=[621*, 0*]
226: 0x07DC [0x66] LOAD_EXT_SCHEDULER_MAIN: Load scheduler "tlk1" with entities [Sylvie (ID: 17825930/0x0110008A), Sylvie (ID: 17825930/0x0110008A)], work=159*
227: 0x07EB [0x2B] Sylvie (ID: 17825930/0x0110008A) [12427*]:
    → "The luopan is a medium for you to get all friendly with nature. That's why you need the $3."
228: 0x07F2 [0x23] WAIT_FOR_DIALOG_INTERACTION
229: 0x07F3 [0x6E] Sylvie (ID: 17825930/0x0110008A) uses emote 32*
230: 0x07FA [0x99] Wait for Sylvie (ID: 17825930/0x0110008A) animation to complete
231: 0x07FF [0x2B] Sylvie (ID: 17825930/0x0110008A) [12428*]:
    → "You're from the Middle Lands, not Adoulin, so to make a really super-duper one, you should find some from an area in your homeland where energies flow through the soil."
232: 0x0806 [0x23] WAIT_FOR_DIALOG_INTERACTION
233: 0x0807 [0x66] LOAD_EXT_SCHEDULER_MAIN: Load scheduler "tla0" with entities [Sylvie (ID: 17825930/0x0110008A), Sylvie (ID: 17825930/0x0110008A)], work=158*
234: 0x0816 [0x1C] WAIT(15* ticks)
235: 0x0819 [0x52] END_LOAD_SCHEDULER: End scheduler "s049" with entities [LocalPlayer, LocalPlayer], work=621*
236: 0x0828 [0x45] LOAD_SCHEDULED_TASK: Load scheduler "s050" with entities [LocalPlayer, LocalPlayer], work=[621*, 0*]
237: 0x0839 [0x2B] Sylvie (ID: 17825930/0x0110008A) [12429*]:
    → "That's all you need! Easy peasy, lemon squeezy. Just come back to me when you've got 'em!"
238: 0x0840 [0x23] WAIT_FOR_DIALOG_INTERACTION
239: 0x0841 [0x05] Work_Zone[1] = 1

SUBROUTINE_0844:
240: 0x0844 [0x1A] CALL_SUBROUTINE(address=0x187C)
241: 0x0847 [0x1C] WAIT(30* ticks)
242: 0x084A [0x52] END_LOAD_SCHEDULER: End scheduler "s046" with entities [LocalPlayer, LocalPlayer], work=621*
243: 0x0859 [0x52] END_LOAD_SCHEDULER: End scheduler "s050" with entities [LocalPlayer, LocalPlayer], work=621*
244: 0x0868 [0x1C] WAIT(15* ticks)
245: 0x086B [0xAB] EventEntity->DespawnValue = 0* // Set despawn value
246: 0x086F [0x1C] WAIT(1* ticks)
247: 0x0872 [0x46] CAMERA_CONTROL: Restore default settings
248: 0x0874 [0x45] LOAD_SCHEDULED_TASK: Load scheduler "fdi2" with entities [LocalPlayer, LocalPlayer], work=[200*, 0*]
249: 0x0885 [0x21] END_EVENT
250: 0x0886 [0x00] END_REQSTACK()
```

#### Data or dead code:

```
# Dead code (unreachable instructions):
     0x0722 [0x01] GOTO 0x0725
```

### Event 32

#### Metadata

| Field        | Value     |
|--------------|-----------|
| Entrypoint   | 0x0887    |
| Data Size    | 495 bytes |
| Instructions | 75        |

```
      00 01 02 03 04 05 06 07  08 09 0A 0B 0C 0D 0E 0F
      -- -- -- -- -- -- -- --  -- -- -- -- -- -- -- --
0880:                      02  09 10 17 80 00 90 08 42         ........B
0890: 4A 8A 00 10 01 F0 FF FF  7F 6F 76 8A 00 10 01 2B  J........ov....+
08A0: 8A 00 10 01 44 80 23 24  37 80 09 80 09 80 25 02  ....D.#$7.....%.
08B0: 00 10 17 80 00 E8 08 2B  8A 00 10 01 38 80 23 2B  .......+....8.#+
08C0: 8A 00 10 01 39 80 23 06  01 10 02 09 10 17 80 00  ....9.#.........
08D0: E3 08 45 43 80 F0 FF FF  7F F0 FF FF 7F 66 64 69  ..EC.........fdi
08E0: 32 09 80 21 00 01 E8 08  42 1A 7C 18 46 01 38 02  2..!....B.|.F.8.
08F0: 80 92 01 8A 00 10 01 94  01 F0 FF FF 7F 94 01 8A  ................
0900: 00 10 01 BA F0 FF FF 7F  03 80 04 80 05 80 06 80  ................
0910: 80 F0 FF FF 7F 80 8A 00  10 01 4A F0 FF FF 7F 8A  ..........J.....
0920: 00 10 01 4A 8A 00 10 01  F0 FF FF 7F 1C 07 80 45  ...J...........E
0930: 08 80 F0 FF FF 7F F0 FF  FF 7F 73 30 34 37 09 80  ..........s047..
0940: 66 13 80 8A 00 10 01 8A  00 10 01 74 6C 61 30 1A  f..........tla0.
0950: 5B 18 2B 8A 00 10 01 3A  80 23 2B 8A 00 10 01 3B  [.+....:.#+....;
0960: 80 23 52 08 80 F0 FF FF  7F F0 FF FF 7F 73 30 34  .#R..........s04
0970: 37 45 08 80 F0 FF FF 7F  F0 FF FF 7F 73 30 34 38  7E..........s048
0980: 09 80 66 13 80 8A 00 10  01 8A 00 10 01 74 6C 61  ..f..........tla
0990: 31 2B 8A 00 10 01 3C 80  23 66 0A 80 8A 00 10 01  1+....<.#f......
09A0: 8A 00 10 01 74 6C 6B 30  03 02 10 3D 80 03 03 10  ....tlk0...=....
09B0: 3E 80 2B 8A 00 10 01 3F  80 23 52 08 80 F0 FF FF  >.+....?.#R.....
09C0: 7F F0 FF FF 7F 73 30 34  38 45 08 80 F0 FF FF 7F  .....s048E......
09D0: F0 FF FF 7F 73 30 34 39  09 80 66 0A 80 8A 00 10  ....s049..f.....
09E0: 01 8A 00 10 01 74 6C 6B  31 2B 8A 00 10 01 40 80  .....tlk1+....@.
09F0: 23 6E 8A 00 10 01 00 80  99 8A 00 10 01 2B 8A 00  #n...........+..
0A00: 10 01 41 80 23 66 13 80  8A 00 10 01 8A 00 10 01  ..A.#f..........
0A10: 74 6C 61 30 1C 0C 80 52  08 80 F0 FF FF 7F F0 FF  tla0...R........
0A20: FF 7F 73 30 34 39 45 08  80 F0 FF FF 7F F0 FF FF  ..s049E.........
0A30: 7F 73 30 35 30 09 80 2B  8A 00 10 01 42 80 23 05  .s050..+....B.#.
0A40: 01 10 1A 7C 18 1C 07 80  52 08 80 F0 FF FF 7F F0  ...|....R.......
0A50: FF FF 7F 73 30 35 30 1C  0C 80 AB 11 09 80 1C 17  ...s050.........
0A60: 80 46 00 45 43 80 F0 FF  FF 7F F0 FF FF 7F 66 64  .F.EC.........fd
0A70: 69 32 09 80 21 00                                 i2..!.          
```

#### Opcodes

```
  0: 0x0887 [0x02] IF !(Work_Zone[9] == 1*) GOTO 0x0890
  1: 0x088F [0x42] SET_CLI_EVENT_CANCEL_DATA()
  2: 0x0890 [0x4A] Sylvie (ID: 17825930/0x0110008A) looks at LocalPlayer
  3: 0x0899 [0x6F] WAIT_FRAME_DELAY: Yield until WaitTime reaches zero
  4: 0x089A [0x76] CHECK_ENTITY_RENDER_FLAGS: Wait until Sylvie (ID: 17825930/0x0110008A) Render.Flags0 and Render.Flags3 conditions are met
  5: 0x089F [0x2B] Sylvie (ID: 17825930/0x0110008A) [12422*]:
    → "You...really mean it? You're going to try?"
  6: 0x08A6 [0x23] WAIT_FOR_DIALOG_INTERACTION
  7: 0x08A7 [0x24] CREATE_DIALOG(message_id=12419*, default_option=0*, option_flags=0*)
    → "Make a luopan? [Yes!/.........No.]"
  8: 0x08AE [0x25] WAIT_DIALOG_SELECT()
  9: 0x08AF [0x02] IF !(Work_Zone[0] == 1*) GOTO 0x08E8
 10: 0x08B7 [0x2B] Sylvie (ID: 17825930/0x0110008A) [12420*]:
    → "Wh-what? I've been sitting here pouring my heart out, and you're gonna walk away just like that?"
 11: 0x08BE [0x23] WAIT_FOR_DIALOG_INTERACTION
 12: 0x08BF [0x2B] Sylvie (ID: 17825930/0x0110008A) [12421*]:
    → "I knew I wasn't cut out for this... Oh, Ikhi, I did it again..."
 13: 0x08C6 [0x23] WAIT_FOR_DIALOG_INTERACTION
 14: 0x08C7 [0x06] Work_Zone[1] = 0
 15: 0x08CA [0x02] IF !(Work_Zone[9] == 1*) GOTO 0x08E3
 16: 0x08D2 [0x45] LOAD_SCHEDULED_TASK: Load scheduler "fdi2" with entities [LocalPlayer, LocalPlayer], work=[200*, 0*]
 17: 0x08E3 [0x21] END_EVENT
 18: 0x08E4 [0x00] END_REQSTACK()

SUBROUTINE_08E8:
 19: 0x08E8 [0x42] SET_CLI_EVENT_CANCEL_DATA()
 20: 0x08E9 [0x1A] CALL_SUBROUTINE(address=0x187C)
 21: 0x08EC [0x46] CAMERA_CONTROL: Disable user control
 22: 0x08EE [0x38] SET_CLIENT_EVENT_MODE(mode=19*)
 23: 0x08F1 [0x92] Sylvie (ID: 17825930/0x0110008A)->Render.Flags3 ^= 0x01
 24: 0x08F7 [0x94] LocalPlayer->Render.Flags3 ^= 0x01
 25: 0x08FD [0x94] Sylvie (ID: 17825930/0x0110008A)->Render.Flags3 ^= 0x01
 26: 0x0903 [0xBA] SET_ENTITY_POSITION(entity_id=LocalPlayer, pos_x=75.647*, pos_z=136.150*, pos_y=31.999*, direction=6.4°*)
 27: 0x0910 [0x80] LOAD_WAIT(entity=LocalPlayer)
 28: 0x0915 [0x80] LOAD_WAIT(entity=Sylvie (ID: 17825930/0x0110008A))
 29: 0x091A [0x4A] LocalPlayer looks at Sylvie (ID: 17825930/0x0110008A)
 30: 0x0923 [0x4A] Sylvie (ID: 17825930/0x0110008A) looks at LocalPlayer
 31: 0x092C [0x1C] WAIT(30* ticks)
 32: 0x092F [0x45] LOAD_SCHEDULED_TASK: Load scheduler "s047" with entities [LocalPlayer, LocalPlayer], work=[621*, 0*]
 33: 0x0940 [0x66] LOAD_EXT_SCHEDULER_MAIN: Load scheduler "tla0" with entities [Sylvie (ID: 17825930/0x0110008A), Sylvie (ID: 17825930/0x0110008A)], work=158*
 34: 0x094F [0x1A] CALL_SUBROUTINE(address=0x185B)
 35: 0x0952 [0x2B] Sylvie (ID: 17825930/0x0110008A) [12423*]:
    → "This is stupendelicious!"
 36: 0x0959 [0x23] WAIT_FOR_DIALOG_INTERACTION
 37: 0x095A [0x2B] Sylvie (ID: 17825930/0x0110008A) [12424*]:
    → "Let's get this party started before you bail on me!"
 38: 0x0961 [0x23] WAIT_FOR_DIALOG_INTERACTION
 39: 0x0962 [0x52] END_LOAD_SCHEDULER: End scheduler "s047" with entities [LocalPlayer, LocalPlayer], work=621*
 40: 0x0971 [0x45] LOAD_SCHEDULED_TASK: Load scheduler "s048" with entities [LocalPlayer, LocalPlayer], work=[621*, 0*]
 41: 0x0982 [0x66] LOAD_EXT_SCHEDULER_MAIN: Load scheduler "tla1" with entities [Sylvie (ID: 17825930/0x0110008A), Sylvie (ID: 17825930/0x0110008A)], work=158*
 42: 0x0991 [0x2B] Sylvie (ID: 17825930/0x0110008A) [12425*]:
    → "Getting the materials for a luopan is really simple, so I know you'll be up for it."
 43: 0x0998 [0x23] WAIT_FOR_DIALOG_INTERACTION
 44: 0x0999 [0x66] LOAD_EXT_SCHEDULER_MAIN: Load scheduler "tlk0" with entities [Sylvie (ID: 17825930/0x0110008A), Sylvie (ID: 17825930/0x0110008A)], work=159*
 45: 0x09A8 [0x03] Work_Zone[2] = 2278*
 46: 0x09AD [0x03] Work_Zone[3] = 703*
 47: 0x09B2 [0x2B] Sylvie (ID: 17825930/0x0110008A) [12426*]:
    → "You'll need two things--one $1 and $6."
 48: 0x09B9 [0x23] WAIT_FOR_DIALOG_INTERACTION
 49: 0x09BA [0x52] END_LOAD_SCHEDULER: End scheduler "s048" with entities [LocalPlayer, LocalPlayer], work=621*
 50: 0x09C9 [0x45] LOAD_SCHEDULED_TASK: Load scheduler "s049" with entities [LocalPlayer, LocalPlayer], work=[621*, 0*]
 51: 0x09DA [0x66] LOAD_EXT_SCHEDULER_MAIN: Load scheduler "tlk1" with entities [Sylvie (ID: 17825930/0x0110008A), Sylvie (ID: 17825930/0x0110008A)], work=159*
 52: 0x09E9 [0x2B] Sylvie (ID: 17825930/0x0110008A) [12427*]:
    → "The luopan is a medium for you to get all friendly with nature. That's why you need the $3."
 53: 0x09F0 [0x23] WAIT_FOR_DIALOG_INTERACTION
 54: 0x09F1 [0x6E] Sylvie (ID: 17825930/0x0110008A) uses emote 32*
 55: 0x09F8 [0x99] Wait for Sylvie (ID: 17825930/0x0110008A) animation to complete
 56: 0x09FD [0x2B] Sylvie (ID: 17825930/0x0110008A) [12428*]:
    → "You're from the Middle Lands, not Adoulin, so to make a really super-duper one, you should find some from an area in your homeland where energies flow through the soil."
 57: 0x0A04 [0x23] WAIT_FOR_DIALOG_INTERACTION
 58: 0x0A05 [0x66] LOAD_EXT_SCHEDULER_MAIN: Load scheduler "tla0" with entities [Sylvie (ID: 17825930/0x0110008A), Sylvie (ID: 17825930/0x0110008A)], work=158*
 59: 0x0A14 [0x1C] WAIT(15* ticks)
 60: 0x0A17 [0x52] END_LOAD_SCHEDULER: End scheduler "s049" with entities [LocalPlayer, LocalPlayer], work=621*
 61: 0x0A26 [0x45] LOAD_SCHEDULED_TASK: Load scheduler "s050" with entities [LocalPlayer, LocalPlayer], work=[621*, 0*]
 62: 0x0A37 [0x2B] Sylvie (ID: 17825930/0x0110008A) [12429*]:
    → "That's all you need! Easy peasy, lemon squeezy. Just come back to me when you've got 'em!"
 63: 0x0A3E [0x23] WAIT_FOR_DIALOG_INTERACTION
 64: 0x0A3F [0x05] Work_Zone[1] = 1
 65: 0x0A42 [0x1A] CALL_SUBROUTINE(address=0x187C)
 66: 0x0A45 [0x1C] WAIT(30* ticks)
 67: 0x0A48 [0x52] END_LOAD_SCHEDULER: End scheduler "s050" with entities [LocalPlayer, LocalPlayer], work=621*
 68: 0x0A57 [0x1C] WAIT(15* ticks)
 69: 0x0A5A [0xAB] EventEntity->DespawnValue = 0* // Set despawn value
 70: 0x0A5E [0x1C] WAIT(1* ticks)
 71: 0x0A61 [0x46] CAMERA_CONTROL: Restore default settings
 72: 0x0A63 [0x45] LOAD_SCHEDULED_TASK: Load scheduler "fdi2" with entities [LocalPlayer, LocalPlayer], work=[200*, 0*]
 73: 0x0A74 [0x21] END_EVENT
 74: 0x0A75 [0x00] END_REQSTACK()
```

#### Data or dead code:

```
# Dead code (unreachable instructions):
     0x08E5 [0x01] GOTO 0x08E8
```

### Event 33

#### Metadata

| Field        | Value     |
|--------------|-----------|
| Entrypoint   | 0x0A76    |
| Data Size    | 124 bytes |
| Instructions | 22        |

```
      00 01 02 03 04 05 06 07  08 09 0A 0B 0C 0D 0E 0F
      -- -- -- -- -- -- -- --  -- -- -- -- -- -- -- --
0A70:                   4A 8A  00 10 01 F0 FF FF 7F 6F        J........o
0A80: 76 8A 00 10 01 2B 8A 00  10 01 45 80 23 66 0A 80  v....+....E.#f..
0A90: 8A 00 10 01 8A 00 10 01  74 6C 6B 30 03 02 10 3D  ........tlk0...=
0AA0: 80 03 03 10 3E 80 2B 8A  00 10 01 3F 80 23 66 0A  ....>.+....?.#f.
0AB0: 80 8A 00 10 01 8A 00 10  01 74 6C 6B 31 2B 8A 00  .........tlk1+..
0AC0: 10 01 40 80 23 6E 8A 00  10 01 00 80 99 8A 00 10  ..@.#n..........
0AD0: 01 2B 8A 00 10 01 41 80  23 66 13 80 8A 00 10 01  .+....A.#f......
0AE0: 8A 00 10 01 74 6C 61 30  2B 8A 00 10 01 42 80 23  ....tla0+....B.#
0AF0: 21 00                                             !.              
```

#### Opcodes

```
  0: 0x0A76 [0x4A] Sylvie (ID: 17825930/0x0110008A) looks at LocalPlayer
  1: 0x0A7F [0x6F] WAIT_FRAME_DELAY: Yield until WaitTime reaches zero
  2: 0x0A80 [0x76] CHECK_ENTITY_RENDER_FLAGS: Wait until Sylvie (ID: 17825930/0x0110008A) Render.Flags0 and Render.Flags3 conditions are met
  3: 0x0A85 [0x2B] Sylvie (ID: 17825930/0x0110008A) [12430*]:
    → "Came back for a reminder on what you need for your luopan?"
  4: 0x0A8C [0x23] WAIT_FOR_DIALOG_INTERACTION
  5: 0x0A8D [0x66] LOAD_EXT_SCHEDULER_MAIN: Load scheduler "tlk0" with entities [Sylvie (ID: 17825930/0x0110008A), Sylvie (ID: 17825930/0x0110008A)], work=159*
  6: 0x0A9C [0x03] Work_Zone[2] = 2278*
  7: 0x0AA1 [0x03] Work_Zone[3] = 703*
  8: 0x0AA6 [0x2B] Sylvie (ID: 17825930/0x0110008A) [12426*]:
    → "You'll need two things--one $1 and $6."
  9: 0x0AAD [0x23] WAIT_FOR_DIALOG_INTERACTION
 10: 0x0AAE [0x66] LOAD_EXT_SCHEDULER_MAIN: Load scheduler "tlk1" with entities [Sylvie (ID: 17825930/0x0110008A), Sylvie (ID: 17825930/0x0110008A)], work=159*
 11: 0x0ABD [0x2B] Sylvie (ID: 17825930/0x0110008A) [12427*]:
    → "The luopan is a medium for you to get all friendly with nature. That's why you need the $3."
 12: 0x0AC4 [0x23] WAIT_FOR_DIALOG_INTERACTION
 13: 0x0AC5 [0x6E] Sylvie (ID: 17825930/0x0110008A) uses emote 32*
 14: 0x0ACC [0x99] Wait for Sylvie (ID: 17825930/0x0110008A) animation to complete
 15: 0x0AD1 [0x2B] Sylvie (ID: 17825930/0x0110008A) [12428*]:
    → "You're from the Middle Lands, not Adoulin, so to make a really super-duper one, you should find some from an area in your homeland where energies flow through the soil."
 16: 0x0AD8 [0x23] WAIT_FOR_DIALOG_INTERACTION
 17: 0x0AD9 [0x66] LOAD_EXT_SCHEDULER_MAIN: Load scheduler "tla0" with entities [Sylvie (ID: 17825930/0x0110008A), Sylvie (ID: 17825930/0x0110008A)], work=158*
 18: 0x0AE8 [0x2B] Sylvie (ID: 17825930/0x0110008A) [12429*]:
    → "That's all you need! Easy peasy, lemon squeezy. Just come back to me when you've got 'em!"
 19: 0x0AEF [0x23] WAIT_FOR_DIALOG_INTERACTION
 20: 0x0AF0 [0x21] END_EVENT
 21: 0x0AF1 [0x00] END_REQSTACK()
```

### Event 34

#### Metadata

| Field        | Value      |
|--------------|------------|
| Entrypoint   | 0x0AF2     |
| Data Size    | 1248 bytes |
| Instructions | 152        |

```
      00 01 02 03 04 05 06 07  08 09 0A 0B 0C 0D 0E 0F
      -- -- -- -- -- -- -- --  -- -- -- -- -- -- -- --
0AF0:       42 1A 7C 18 46 01  38 02 80 92 01 8A 00 10    B.|.F.8.......
0B00: 01 94 01 F0 FF FF 7F 94  01 8A 00 10 01 BA F0 FF  ................
0B10: FF 7F 03 80 04 80 05 80  06 80 80 F0 FF FF 7F 80  ................
0B20: 8A 00 10 01 4A F0 FF FF  7F 8A 00 10 01 4A 8A 00  ....J........J..
0B30: 10 01 F0 FF FF 7F 1C 07  80 66 13 80 8A 00 10 01  .........f......
0B40: 8A 00 10 01 74 6C 61 30  45 08 80 F0 FF FF 7F F0  ....tla0E.......
0B50: FF FF 7F 73 30 35 31 09  80 1A 5B 18 03 02 10 3D  ...s051...[....=
0B60: 80 03 03 10 3E 80 2B 8A  00 10 01 46 80 23 52 08  ....>.+....F.#R.
0B70: 80 F0 FF FF 7F F0 FF FF  7F 73 30 35 31 45 08 80  .........s051E..
0B80: F0 FF FF 7F F0 FF FF 7F  73 30 35 32 09 80 66 13  ........s052..f.
0B90: 80 8A 00 10 01 8A 00 10  01 74 6C 61 31 2B 8A 00  .........tla1+..
0BA0: 10 01 47 80 23 6E 8A 00  10 01 2E 80 99 8A 00 10  ..G.#n..........
0BB0: 01 2B 8A 00 10 01 48 80  23 52 08 80 F0 FF FF 7F  .+....H.#R......
0BC0: F0 FF FF 7F 73 30 35 32  45 08 80 F0 FF FF 7F F0  ....s052E.......
0BD0: FF FF 7F 73 30 35 33 09  80 9F 49 80 8A 00 10 01  ...s053...I.....
0BE0: 8A 00 10 01 66 72 73 74  09 80 1C 4A 80 9F 49 80  ....frst...J..I.
0BF0: 8A 00 10 01 8A 00 10 01  6E 67 30 30 09 80 1C 4B  ........ng00...K
0C00: 80 2B 8A 00 10 01 4C 80  23 7B 8A 00 10 01 1C 4B  .+....L.#{.....K
0C10: 80 52 08 80 F0 FF FF 7F  F0 FF FF 7F 73 30 35 33  .R..........s053
0C20: 45 08 80 F0 FF FF 7F F0  FF FF 7F 73 30 35 34 09  E..........s054.
0C30: 80 2B 8A 00 10 01 4D 80  23 79 00 8A 00 10 01 F0  .+....M.#y......
0C40: FF FF 7F 52 08 80 F0 FF  FF 7F F0 FF FF 7F 73 30  ...R..........s0
0C50: 35 34 45 08 80 F0 FF FF  7F F0 FF FF 7F 73 30 35  54E..........s05
0C60: 35 09 80 7C 00 8A 00 10  01 2B 8A 00 10 01 4E 80  5..|.....+....N.
0C70: 23 7C 01 8A 00 10 01 52  08 80 F0 FF FF 7F F0 FF  #|.....R........
0C80: FF 7F 73 30 35 35 45 08  80 F0 FF FF 7F F0 FF FF  ..s055E.........
0C90: 7F 73 30 35 36 09 80 9F  49 80 8A 00 10 01 8A 00  .s056...I.......
0CA0: 10 01 66 72 73 74 09 80  1C 4A 80 9F 49 80 8A 00  ..frst...J..I...
0CB0: 10 01 8A 00 10 01 6F 6B  30 30 09 80 1C 4F 80 52  ......ok00...O.R
0CC0: 08 80 F0 FF FF 7F F0 FF  FF 7F 73 30 35 36 45 08  ..........s056E.
0CD0: 80 F0 FF FF 7F F0 FF FF  7F 73 30 35 37 09 80 6E  .........s057..n
0CE0: 8A 00 10 01 19 80 99 8A  00 10 01 2B 8A 00 10 01  ...........+....
0CF0: 50 80 23 52 08 80 F0 FF  FF 7F F0 FF FF 7F 73 30  P.#R..........s0
0D00: 35 37 45 08 80 F0 FF FF  7F F0 FF FF 7F 73 30 35  57E..........s05
0D10: 38 09 80 66 13 80 8A 00  10 01 8A 00 10 01 74 6C  8..f..........tl
0D20: 61 30 2B 8A 00 10 01 51  80 23 2B 8A 00 10 01 52  a0+....Q.#+....R
0D30: 80 23 2B 8A 00 10 01 53  80 23 66 13 80 8A 00 10  .#+....S.#f.....
0D40: 01 8A 00 10 01 74 6C 61  31 1C 18 80 66 0A 80 8A  .....tla1...f...
0D50: 00 10 01 8A 00 10 01 74  6C 6B 30 1C 2C 80 52 08  .......tlk0.,.R.
0D60: 80 F0 FF FF 7F F0 FF FF  7F 73 30 35 38 45 08 80  .........s058E..
0D70: F0 FF FF 7F F0 FF FF 7F  73 30 35 39 09 80 2B 8A  ........s059..+.
0D80: 00 10 01 54 80 23 2B 8A  00 10 01 55 80 23 2B 8A  ...T.#+....U.#+.
0D90: 00 10 01 56 80 23 52 08  80 F0 FF FF 7F F0 FF FF  ...V.#R.........
0DA0: 7F 73 30 35 39 45 08 80  F0 FF FF 7F F0 FF FF 7F  .s059E..........
0DB0: 73 30 36 30 09 80 2B 8A  00 10 01 57 80 23 2B 8A  s060..+....W.#+.
0DC0: 00 10 01 58 80 23 66 0A  80 8A 00 10 01 8A 00 10  ...X.#f.........
0DD0: 01 74 6C 6B 31 7B 8A 00  10 01 1C 2C 80 52 08 80  .tlk1{.....,.R..
0DE0: F0 FF FF 7F F0 FF FF 7F  73 30 36 30 45 08 80 F0  ........s060E...
0DF0: FF FF 7F F0 FF FF 7F 73  30 36 31 09 80 2B 8A 00  .......s061..+..
0E00: 10 01 59 80 23 6E 8A 00  10 01 2E 80 99 8A 00 10  ..Y.#n..........
0E10: 01 2B 8A 00 10 01 5A 80  23 6E 8A 00 10 01 19 80  .+....Z.#n......
0E20: 99 8A 00 10 01 2B 8A 00  10 01 5B 80 23 79 00 8A  .....+....[.#y..
0E30: 00 10 01 F0 FF FF 7F 52  08 80 F0 FF FF 7F F0 FF  .......R........
0E40: FF 7F 73 30 36 31 45 08  80 F0 FF FF 7F F0 FF FF  ..s061E.........
0E50: 7F 73 30 36 32 09 80 66  0A 80 8A 00 10 01 8A 00  .s062..f........
0E60: 10 01 74 6C 6B 30 2B 8A  00 10 01 5C 80 23 66 0A  ..tlk0+....\.#f.
0E70: 80 8A 00 10 01 8A 00 10  01 74 6C 6B 31 2B 8A 00  .........tlk1+..
0E80: 10 01 5D 80 23 52 08 80  F0 FF FF 7F F0 FF FF 7F  ..].#R..........
0E90: 73 30 36 32 45 08 80 F0  FF FF 7F F0 FF FF 7F 73  s062E..........s
0EA0: 30 36 33 09 80 2C 8A 00  10 01 8A 00 10 01 72 65  063..,........re
0EB0: 73 30 2B 8A 00 10 01 5E  80 23 53 8A 00 10 01 8A  s0+....^.#S.....
0EC0: 00 10 01 72 65 73 30 52  08 80 F0 FF FF 7F F0 FF  ...res0R........
0ED0: FF 7F 73 30 36 33 45 08  80 F0 FF FF 7F F0 FF FF  ..s063E.........
0EE0: 7F 73 30 36 34 09 80 2C  8A 00 10 01 8A 00 10 01  .s064..,........
0EF0: 72 65 73 32 2B 8A 00 10  01 5F 80 23 53 8A 00 10  res2+...._.#S...
0F00: 01 8A 00 10 01 72 65 73  32 66 13 80 8A 00 10 01  .....res2f......
0F10: 8A 00 10 01 74 6C 61 30  2B 8A 00 10 01 60 80 23  ....tla0+....`.#
0F20: 52 08 80 F0 FF FF 7F F0  FF FF 7F 73 30 36 34 45  R..........s064E
0F30: 08 80 F0 FF FF 7F F0 FF  FF 7F 73 30 36 35 09 80  ..........s065..
0F40: 2B 8A 00 10 01 61 80 23  66 13 80 8A 00 10 01 8A  +....a.#f.......
0F50: 00 10 01 74 6C 61 31 2B  8A 00 10 01 62 80 23 52  ...tla1+....b.#R
0F60: 08 80 F0 FF FF 7F F0 FF  FF 7F 73 30 36 35 45 08  ..........s065E.
0F70: 80 F0 FF FF 7F F0 FF FF  7F 73 30 36 36 09 80 66  .........s066..f
0F80: 0A 80 8A 00 10 01 8A 00  10 01 74 6C 6B 30 2B 8A  ..........tlk0+.
0F90: 00 10 01 63 80 23 2B 8A  00 10 01 64 80 23 1A 7C  ...c.#+....d.#.|
0FA0: 18 1C 07 80 52 08 80 F0  FF FF 7F F0 FF FF 7F 73  ....R..........s
0FB0: 30 36 36 1C 0C 80 AB 11  09 80 1C 17 80 46 00 45  066..........F.E
0FC0: 43 80 F0 FF FF 7F F0 FF  FF 7F 66 64 69 32 09 80  C.........fdi2..
0FD0: 21 00                                             !.              
```

#### Opcodes

```
  0: 0x0AF2 [0x42] SET_CLI_EVENT_CANCEL_DATA()
  1: 0x0AF3 [0x1A] CALL_SUBROUTINE(address=0x187C)
  2: 0x0AF6 [0x46] CAMERA_CONTROL: Disable user control
  3: 0x0AF8 [0x38] SET_CLIENT_EVENT_MODE(mode=19*)
  4: 0x0AFB [0x92] Sylvie (ID: 17825930/0x0110008A)->Render.Flags3 ^= 0x01
  5: 0x0B01 [0x94] LocalPlayer->Render.Flags3 ^= 0x01
  6: 0x0B07 [0x94] Sylvie (ID: 17825930/0x0110008A)->Render.Flags3 ^= 0x01
  7: 0x0B0D [0xBA] SET_ENTITY_POSITION(entity_id=LocalPlayer, pos_x=75.647*, pos_z=136.150*, pos_y=31.999*, direction=6.4°*)
  8: 0x0B1A [0x80] LOAD_WAIT(entity=LocalPlayer)
  9: 0x0B1F [0x80] LOAD_WAIT(entity=Sylvie (ID: 17825930/0x0110008A))
 10: 0x0B24 [0x4A] LocalPlayer looks at Sylvie (ID: 17825930/0x0110008A)
 11: 0x0B2D [0x4A] Sylvie (ID: 17825930/0x0110008A) looks at LocalPlayer
 12: 0x0B36 [0x1C] WAIT(30* ticks)
 13: 0x0B39 [0x66] LOAD_EXT_SCHEDULER_MAIN: Load scheduler "tla0" with entities [Sylvie (ID: 17825930/0x0110008A), Sylvie (ID: 17825930/0x0110008A)], work=158*
 14: 0x0B48 [0x45] LOAD_SCHEDULED_TASK: Load scheduler "s051" with entities [LocalPlayer, LocalPlayer], work=[621*, 0*]
 15: 0x0B59 [0x1A] CALL_SUBROUTINE(address=0x185B)
 16: 0x0B5C [0x03] Work_Zone[2] = 2278*
 17: 0x0B61 [0x03] Work_Zone[3] = 703*
 18: 0x0B66 [0x2B] Sylvie (ID: 17825930/0x0110008A) [12431*]:
    → "Right, all you needed was the perfect combination of $1 and $6!"
 19: 0x0B6D [0x23] WAIT_FOR_DIALOG_INTERACTION
 20: 0x0B6E [0x52] END_LOAD_SCHEDULER: End scheduler "s051" with entities [LocalPlayer, LocalPlayer], work=621*
 21: 0x0B7D [0x45] LOAD_SCHEDULED_TASK: Load scheduler "s052" with entities [LocalPlayer, LocalPlayer], work=[621*, 0*]
 22: 0x0B8E [0x66] LOAD_EXT_SCHEDULER_MAIN: Load scheduler "tla1" with entities [Sylvie (ID: 17825930/0x0110008A), Sylvie (ID: 17825930/0x0110008A)], work=158*
 23: 0x0B9D [0x2B] Sylvie (ID: 17825930/0x0110008A) [12432*]:
    → "All right, let me have at 'em!"
 24: 0x0BA4 [0x23] WAIT_FOR_DIALOG_INTERACTION
 25: 0x0BA5 [0x6E] Sylvie (ID: 17825930/0x0110008A) uses emote 7*
 26: 0x0BAC [0x99] Wait for Sylvie (ID: 17825930/0x0110008A) animation to complete
 27: 0x0BB1 [0x2B] Sylvie (ID: 17825930/0x0110008A) [12433*]:
    → "<Gulp>..."
 28: 0x0BB8 [0x23] WAIT_FOR_DIALOG_INTERACTION
 29: 0x0BB9 [0x52] END_LOAD_SCHEDULER: End scheduler "s052" with entities [LocalPlayer, LocalPlayer], work=621*
 30: 0x0BC8 [0x45] LOAD_SCHEDULED_TASK: Load scheduler "s053" with entities [LocalPlayer, LocalPlayer], work=[621*, 0*]
 31: 0x0BD9 [0x9F] LOAD_SCHEDULED_TASK_ALT: Load scheduler "frst" with entities [Sylvie (ID: 17825930/0x0110008A), Sylvie (ID: 17825930/0x0110008A)], work=[191*, 0*]
 32: 0x0BEA [0x1C] WAIT(120* ticks)
 33: 0x0BED [0x9F] LOAD_SCHEDULED_TASK_ALT: Load scheduler "ng00" with entities [Sylvie (ID: 17825930/0x0110008A), Sylvie (ID: 17825930/0x0110008A)], work=[191*, 0*]
 34: 0x0BFE [0x1C] WAIT(90* ticks)
 35: 0x0C01 [0x2B] Sylvie (ID: 17825930/0x0110008A) [12434*]:
    → "A-ack!!!"
 36: 0x0C08 [0x23] WAIT_FOR_DIALOG_INTERACTION
 37: 0x0C09 [0x7B] Sylvie (ID: 17825930/0x0110008A) stops talking
 38: 0x0C0E [0x1C] WAIT(90* ticks)
 39: 0x0C11 [0x52] END_LOAD_SCHEDULER: End scheduler "s053" with entities [LocalPlayer, LocalPlayer], work=621*
 40: 0x0C20 [0x45] LOAD_SCHEDULED_TASK: Load scheduler "s054" with entities [LocalPlayer, LocalPlayer], work=[621*, 0*]
 41: 0x0C31 [0x2B] Sylvie (ID: 17825930/0x0110008A) [12435*]:
    → "<Heave> And... <Cough> Oh no, I... Phew!"
 42: 0x0C38 [0x23] WAIT_FOR_DIALOG_INTERACTION
 43: 0x0C39 [0x79] Sylvie (ID: 17825930/0x0110008A) looks at LocalPlayer (Basic look)
 44: 0x0C43 [0x52] END_LOAD_SCHEDULER: End scheduler "s054" with entities [LocalPlayer, LocalPlayer], work=621*
 45: 0x0C52 [0x45] LOAD_SCHEDULED_TASK: Load scheduler "s055" with entities [LocalPlayer, LocalPlayer], work=[621*, 0*]
 46: 0x0C63 [0x7C] Sylvie (ID: 17825930/0x0110008A)->Render.Flags2 |= 0x00
 47: 0x0C69 [0x2B] Sylvie (ID: 17825930/0x0110008A) [12436*]:
    → "<Grunt>"
 48: 0x0C70 [0x23] WAIT_FOR_DIALOG_INTERACTION
 49: 0x0C71 [0x7C] Sylvie (ID: 17825930/0x0110008A)->Render.Flags2 |= 0x01
 50: 0x0C77 [0x52] END_LOAD_SCHEDULER: End scheduler "s055" with entities [LocalPlayer, LocalPlayer], work=621*
 51: 0x0C86 [0x45] LOAD_SCHEDULED_TASK: Load scheduler "s056" with entities [LocalPlayer, LocalPlayer], work=[621*, 0*]
 52: 0x0C97 [0x9F] LOAD_SCHEDULED_TASK_ALT: Load scheduler "frst" with entities [Sylvie (ID: 17825930/0x0110008A), Sylvie (ID: 17825930/0x0110008A)], work=[191*, 0*]
 53: 0x0CA8 [0x1C] WAIT(120* ticks)
 54: 0x0CAB [0x9F] LOAD_SCHEDULED_TASK_ALT: Load scheduler "ok00" with entities [Sylvie (ID: 17825930/0x0110008A), Sylvie (ID: 17825930/0x0110008A)], work=[191*, 0*]
 55: 0x0CBC [0x1C] WAIT(180* ticks)
 56: 0x0CBF [0x52] END_LOAD_SCHEDULER: End scheduler "s056" with entities [LocalPlayer, LocalPlayer], work=621*
 57: 0x0CCE [0x45] LOAD_SCHEDULED_TASK: Load scheduler "s057" with entities [LocalPlayer, LocalPlayer], work=[621*, 0*]
 58: 0x0CDF [0x6E] Sylvie (ID: 17825930/0x0110008A) uses emote 6*
 59: 0x0CE6 [0x99] Wait for Sylvie (ID: 17825930/0x0110008A) animation to complete
 60: 0x0CEB [0x2B] Sylvie (ID: 17825930/0x0110008A) [12437*]:
    → "Oh, ugly umbrils! I almost had a heart attack!"
 61: 0x0CF2 [0x23] WAIT_FOR_DIALOG_INTERACTION
 62: 0x0CF3 [0x52] END_LOAD_SCHEDULER: End scheduler "s057" with entities [LocalPlayer, LocalPlayer], work=621*
 63: 0x0D02 [0x45] LOAD_SCHEDULED_TASK: Load scheduler "s058" with entities [LocalPlayer, LocalPlayer], work=[621*, 0*]
 64: 0x0D13 [0x66] LOAD_EXT_SCHEDULER_MAIN: Load scheduler "tla0" with entities [Sylvie (ID: 17825930/0x0110008A), Sylvie (ID: 17825930/0x0110008A)], work=158*
 65: 0x0D22 [0x2B] Sylvie (ID: 17825930/0x0110008A) [12438*]:
    → "Sorry about that. Here's your fresh, shiny luopan!"
 66: 0x0D29 [0x23] WAIT_FOR_DIALOG_INTERACTION
 67: 0x0D2A [0x2B] Sylvie (ID: 17825930/0x0110008A) [12439*]:
    → "Yes, fresh and shiny...but not yet done!"
 68: 0x0D31 [0x23] WAIT_FOR_DIALOG_INTERACTION
 69: 0x0D32 [0x2B] Sylvie (ID: 17825930/0x0110008A) [12440*]:
    → "It's gotta go to an ergon locus first."
 70: 0x0D39 [0x23] WAIT_FOR_DIALOG_INTERACTION
 71: 0x0D3A [0x66] LOAD_EXT_SCHEDULER_MAIN: Load scheduler "tla1" with entities [Sylvie (ID: 17825930/0x0110008A), Sylvie (ID: 17825930/0x0110008A)], work=158*
 72: 0x0D49 [0x1C] WAIT(40* ticks)
 73: 0x0D4C [0x66] LOAD_EXT_SCHEDULER_MAIN: Load scheduler "tlk0" with entities [Sylvie (ID: 17825930/0x0110008A), Sylvie (ID: 17825930/0x0110008A)], work=159*
 74: 0x0D5B [0x1C] WAIT(5* ticks)
 75: 0x0D5E [0x52] END_LOAD_SCHEDULER: End scheduler "s058" with entities [LocalPlayer, LocalPlayer], work=621*
 76: 0x0D6D [0x45] LOAD_SCHEDULED_TASK: Load scheduler "s059" with entities [LocalPlayer, LocalPlayer], work=[621*, 0*]
 77: 0x0D7E [0x2B] Sylvie (ID: 17825930/0x0110008A) [12441*]:
    → "It is only in these places, deeply connected with nature herself, that your luopan will be able to display its...<whisper> immense power."
 78: 0x0D85 [0x23] WAIT_FOR_DIALOG_INTERACTION
 79: 0x0D86 [0x2B] Sylvie (ID: 17825930/0x0110008A) [12442*]:
    → "Ah! Ergon locus, right. It's like I told you--places filled with natural power."
 80: 0x0D8D [0x23] WAIT_FOR_DIALOG_INTERACTION
 81: 0x0D8E [0x2B] Sylvie (ID: 17825930/0x0110008A) [12443*]:
    → "Though they exist through all of Vana'diel, here in Adoulin we call them "ergon loci.""
 82: 0x0D95 [0x23] WAIT_FOR_DIALOG_INTERACTION
 83: 0x0D96 [0x52] END_LOAD_SCHEDULER: End scheduler "s059" with entities [LocalPlayer, LocalPlayer], work=621*
 84: 0x0DA5 [0x45] LOAD_SCHEDULED_TASK: Load scheduler "s060" with entities [LocalPlayer, LocalPlayer], work=[621*, 0*]
 85: 0x0DB6 [0x2B] Sylvie (ID: 17825930/0x0110008A) [12444*]:
    → "You came into contact with them in the Middle Lands, I'm sure. Depending on the era and locale, some of them go by different names...I guess."
 86: 0x0DBD [0x23] WAIT_FOR_DIALOG_INTERACTION
 87: 0x0DBE [0x2B] Sylvie (ID: 17825930/0x0110008A) [12445*]:
    → "One of the fruits--low-hanging fruit, perhaps--of this pioneering whosy-whatsit is that we've discovered ergon loci in the Yahse Hunting Grounds and the Ceizak Battlegrounds."
 88: 0x0DC5 [0x23] WAIT_FOR_DIALOG_INTERACTION
 89: 0x0DC6 [0x66] LOAD_EXT_SCHEDULER_MAIN: Load scheduler "tlk1" with entities [Sylvie (ID: 17825930/0x0110008A), Sylvie (ID: 17825930/0x0110008A)], work=159*
 90: 0x0DD5 [0x7B] Sylvie (ID: 17825930/0x0110008A) stops talking
 91: 0x0DDA [0x1C] WAIT(5* ticks)
 92: 0x0DDD [0x52] END_LOAD_SCHEDULER: End scheduler "s060" with entities [LocalPlayer, LocalPlayer], work=621*
 93: 0x0DEC [0x45] LOAD_SCHEDULED_TASK: Load scheduler "s061" with entities [LocalPlayer, LocalPlayer], work=[621*, 0*]
 94: 0x0DFD [0x2B] Sylvie (ID: 17825930/0x0110008A) [12446*]:
    → "I gotta be honest with you. As a geomancer, I'm not a big fan of messing with nature."
 95: 0x0E04 [0x23] WAIT_FOR_DIALOG_INTERACTION
 96: 0x0E05 [0x6E] Sylvie (ID: 17825930/0x0110008A) uses emote 7*
 97: 0x0E0C [0x99] Wait for Sylvie (ID: 17825930/0x0110008A) animation to complete
 98: 0x0E11 [0x2B] Sylvie (ID: 17825930/0x0110008A) [12447*]:
    → "But sometimes you gotta take a long-term view, y'know?"
 99: 0x0E18 [0x23] WAIT_FOR_DIALOG_INTERACTION
100: 0x0E19 [0x6E] Sylvie (ID: 17825930/0x0110008A) uses emote 6*
101: 0x0E20 [0x99] Wait for Sylvie (ID: 17825930/0x0110008A) animation to complete
102: 0x0E25 [0x2B] Sylvie (ID: 17825930/0x0110008A) [12448*]:
    → "This whole tug-of-war between nature and progress has always defined what Adoulin is."
103: 0x0E2C [0x23] WAIT_FOR_DIALOG_INTERACTION
104: 0x0E2D [0x79] Sylvie (ID: 17825930/0x0110008A) looks at LocalPlayer (Basic look)
105: 0x0E37 [0x52] END_LOAD_SCHEDULER: End scheduler "s061" with entities [LocalPlayer, LocalPlayer], work=621*
106: 0x0E46 [0x45] LOAD_SCHEDULED_TASK: Load scheduler "s062" with entities [LocalPlayer, LocalPlayer], work=[621*, 0*]
107: 0x0E57 [0x66] LOAD_EXT_SCHEDULER_MAIN: Load scheduler "tlk0" with entities [Sylvie (ID: 17825930/0x0110008A), Sylvie (ID: 17825930/0x0110008A)], work=159*
108: 0x0E66 [0x2B] Sylvie (ID: 17825930/0x0110008A) [12449*]:
    → "Tohoho, listen to me! That was totally deep, right?"
109: 0x0E6D [0x23] WAIT_FOR_DIALOG_INTERACTION
110: 0x0E6E [0x66] LOAD_EXT_SCHEDULER_MAIN: Load scheduler "tlk1" with entities [Sylvie (ID: 17825930/0x0110008A), Sylvie (ID: 17825930/0x0110008A)], work=159*
111: 0x0E7D [0x2B] Sylvie (ID: 17825930/0x0110008A) [12450*]:
    → "...Where were we? Oh, right, ergon loci. Bring your luopan to one of these loci and remain calm and steady."
112: 0x0E84 [0x23] WAIT_FOR_DIALOG_INTERACTION
113: 0x0E85 [0x52] END_LOAD_SCHEDULER: End scheduler "s062" with entities [LocalPlayer, LocalPlayer], work=621*
114: 0x0E94 [0x45] LOAD_SCHEDULED_TASK: Load scheduler "s063" with entities [LocalPlayer, LocalPlayer], work=[621*, 0*]
115: 0x0EA5 [0x2C] CREATE_SCHEDULER_TASK: Create scheduler "res0" with entities [Sylvie (ID: 17825930/0x0110008A), Sylvie (ID: 17825930/0x0110008A)]
116: 0x0EB2 [0x2B] Sylvie (ID: 17825930/0x0110008A) [12451*]:
    → "Like this, see?"
117: 0x0EB9 [0x23] WAIT_FOR_DIALOG_INTERACTION
118: 0x0EBA [0x53] WAIT_SCHEDULER_TASK: Wait for scheduler "res0" with entities [Sylvie (ID: 17825930/0x0110008A), Sylvie (ID: 17825930/0x0110008A)]
119: 0x0EC7 [0x52] END_LOAD_SCHEDULER: End scheduler "s063" with entities [LocalPlayer, LocalPlayer], work=621*
120: 0x0ED6 [0x45] LOAD_SCHEDULED_TASK: Load scheduler "s064" with entities [LocalPlayer, LocalPlayer], work=[621*, 0*]
121: 0x0EE7 [0x2C] CREATE_SCHEDULER_TASK: Create scheduler "res2" with entities [Sylvie (ID: 17825930/0x0110008A), Sylvie (ID: 17825930/0x0110008A)]
122: 0x0EF4 [0x2B] Sylvie (ID: 17825930/0x0110008A) [12452*]:
    → "You gotta be focused, or else it won't work. It's the first step in becoming one with nature. Let the lifestream gently flow into your luopan."
123: 0x0EFB [0x23] WAIT_FOR_DIALOG_INTERACTION
124: 0x0EFC [0x53] WAIT_SCHEDULER_TASK: Wait for scheduler "res2" with entities [Sylvie (ID: 17825930/0x0110008A), Sylvie (ID: 17825930/0x0110008A)]
125: 0x0F09 [0x66] LOAD_EXT_SCHEDULER_MAIN: Load scheduler "tla0" with entities [Sylvie (ID: 17825930/0x0110008A), Sylvie (ID: 17825930/0x0110008A)], work=158*
126: 0x0F18 [0x2B] Sylvie (ID: 17825930/0x0110008A) [12453*]:
    → "You'll get all hot and bothered, so you'll know when it's happening. This is another one of those "two in the bush" things."
127: 0x0F1F [0x23] WAIT_FOR_DIALOG_INTERACTION
128: 0x0F20 [0x52] END_LOAD_SCHEDULER: End scheduler "s064" with entities [LocalPlayer, LocalPlayer], work=621*
129: 0x0F2F [0x45] LOAD_SCHEDULED_TASK: Load scheduler "s065" with entities [LocalPlayer, LocalPlayer], work=[621*, 0*]
130: 0x0F40 [0x2B] Sylvie (ID: 17825930/0x0110008A) [12454*]:
    → "And just when you think you've had all you can stand and are about to explode...you'll finish and feel the warm embrace of release."
131: 0x0F47 [0x23] WAIT_FOR_DIALOG_INTERACTION
132: 0x0F48 [0x66] LOAD_EXT_SCHEDULER_MAIN: Load scheduler "tla1" with entities [Sylvie (ID: 17825930/0x0110008A), Sylvie (ID: 17825930/0x0110008A)], work=158*
133: 0x0F57 [0x2B] Sylvie (ID: 17825930/0x0110008A) [12455*]:
    → "I'll have to touch up your luopan when you're done, so make sure to come back!"
134: 0x0F5E [0x23] WAIT_FOR_DIALOG_INTERACTION
135: 0x0F5F [0x52] END_LOAD_SCHEDULER: End scheduler "s065" with entities [LocalPlayer, LocalPlayer], work=621*
136: 0x0F6E [0x45] LOAD_SCHEDULED_TASK: Load scheduler "s066" with entities [LocalPlayer, LocalPlayer], work=[621*, 0*]
137: 0x0F7F [0x66] LOAD_EXT_SCHEDULER_MAIN: Load scheduler "tlk0" with entities [Sylvie (ID: 17825930/0x0110008A), Sylvie (ID: 17825930/0x0110008A)], work=159*
138: 0x0F8E [0x2B] Sylvie (ID: 17825930/0x0110008A) [12456*]:
    → "You know...the forest isn't the friendliest of locations. I'd hate for anything to happen to your precious luo--<cough> to you."
139: 0x0F95 [0x23] WAIT_FOR_DIALOG_INTERACTION
140: 0x0F96 [0x2B] Sylvie (ID: 17825930/0x0110008A) [12457*]:
    → "There you have it! Now get going!"
141: 0x0F9D [0x23] WAIT_FOR_DIALOG_INTERACTION
142: 0x0F9E [0x1A] CALL_SUBROUTINE(address=0x187C)
143: 0x0FA1 [0x1C] WAIT(30* ticks)
144: 0x0FA4 [0x52] END_LOAD_SCHEDULER: End scheduler "s066" with entities [LocalPlayer, LocalPlayer], work=621*
145: 0x0FB3 [0x1C] WAIT(15* ticks)
146: 0x0FB6 [0xAB] EventEntity->DespawnValue = 0* // Set despawn value
147: 0x0FBA [0x1C] WAIT(1* ticks)
148: 0x0FBD [0x46] CAMERA_CONTROL: Restore default settings
149: 0x0FBF [0x45] LOAD_SCHEDULED_TASK: Load scheduler "fdi2" with entities [LocalPlayer, LocalPlayer], work=[200*, 0*]
150: 0x0FD0 [0x21] END_EVENT
151: 0x0FD1 [0x00] END_REQSTACK()
```

### Event 35

#### Metadata

| Field        | Value     |
|--------------|-----------|
| Entrypoint   | 0x0FD2    |
| Data Size    | 179 bytes |
| Instructions | 29        |

```
      00 01 02 03 04 05 06 07  08 09 0A 0B 0C 0D 0E 0F
      -- -- -- -- -- -- -- --  -- -- -- -- -- -- -- --
0FD0:       42 4A 8A 00 10 01  F0 FF FF 7F 6F 76 8A 00    BJ........ov..
0FE0: 10 01 2B 8A 00 10 01 5D  80 23 2C 8A 00 10 01 8A  ..+....].#,.....
0FF0: 00 10 01 72 65 73 30 2B  8A 00 10 01 5E 80 23 53  ...res0+....^.#S
1000: 8A 00 10 01 8A 00 10 01  72 65 73 30 2C 8A 00 10  ........res0,...
1010: 01 8A 00 10 01 72 65 73  32 2B 8A 00 10 01 5F 80  .....res2+...._.
1020: 23 53 8A 00 10 01 8A 00  10 01 72 65 73 32 66 13  #S........res2f.
1030: 80 8A 00 10 01 8A 00 10  01 74 6C 61 30 2B 8A 00  .........tla0+..
1040: 10 01 60 80 23 2B 8A 00  10 01 61 80 23 66 13 80  ..`.#+....a.#f..
1050: 8A 00 10 01 8A 00 10 01  74 6C 61 31 2B 8A 00 10  ........tla1+...
1060: 01 62 80 23 66 0A 80 8A  00 10 01 8A 00 10 01 74  .b.#f..........t
1070: 6C 6B 30 2B 8A 00 10 01  63 80 23 2B 8A 00 10 01  lk0+....c.#+....
1080: 64 80 23 21 00                                    d.#!.           
```

#### Opcodes

```
  0: 0x0FD2 [0x42] SET_CLI_EVENT_CANCEL_DATA()
  1: 0x0FD3 [0x4A] Sylvie (ID: 17825930/0x0110008A) looks at LocalPlayer
  2: 0x0FDC [0x6F] WAIT_FRAME_DELAY: Yield until WaitTime reaches zero
  3: 0x0FDD [0x76] CHECK_ENTITY_RENDER_FLAGS: Wait until Sylvie (ID: 17825930/0x0110008A) Render.Flags0 and Render.Flags3 conditions are met
  4: 0x0FE2 [0x2B] Sylvie (ID: 17825930/0x0110008A) [12450*]:
    → "...Where were we? Oh, right, ergon loci. Bring your luopan to one of these loci and remain calm and steady."
  5: 0x0FE9 [0x23] WAIT_FOR_DIALOG_INTERACTION
  6: 0x0FEA [0x2C] CREATE_SCHEDULER_TASK: Create scheduler "res0" with entities [Sylvie (ID: 17825930/0x0110008A), Sylvie (ID: 17825930/0x0110008A)]
  7: 0x0FF7 [0x2B] Sylvie (ID: 17825930/0x0110008A) [12451*]:
    → "Like this, see?"
  8: 0x0FFE [0x23] WAIT_FOR_DIALOG_INTERACTION
  9: 0x0FFF [0x53] WAIT_SCHEDULER_TASK: Wait for scheduler "res0" with entities [Sylvie (ID: 17825930/0x0110008A), Sylvie (ID: 17825930/0x0110008A)]
 10: 0x100C [0x2C] CREATE_SCHEDULER_TASK: Create scheduler "res2" with entities [Sylvie (ID: 17825930/0x0110008A), Sylvie (ID: 17825930/0x0110008A)]
 11: 0x1019 [0x2B] Sylvie (ID: 17825930/0x0110008A) [12452*]:
    → "You gotta be focused, or else it won't work. It's the first step in becoming one with nature. Let the lifestream gently flow into your luopan."
 12: 0x1020 [0x23] WAIT_FOR_DIALOG_INTERACTION
 13: 0x1021 [0x53] WAIT_SCHEDULER_TASK: Wait for scheduler "res2" with entities [Sylvie (ID: 17825930/0x0110008A), Sylvie (ID: 17825930/0x0110008A)]
 14: 0x102E [0x66] LOAD_EXT_SCHEDULER_MAIN: Load scheduler "tla0" with entities [Sylvie (ID: 17825930/0x0110008A), Sylvie (ID: 17825930/0x0110008A)], work=158*
 15: 0x103D [0x2B] Sylvie (ID: 17825930/0x0110008A) [12453*]:
    → "You'll get all hot and bothered, so you'll know when it's happening. This is another one of those "two in the bush" things."
 16: 0x1044 [0x23] WAIT_FOR_DIALOG_INTERACTION
 17: 0x1045 [0x2B] Sylvie (ID: 17825930/0x0110008A) [12454*]:
    → "And just when you think you've had all you can stand and are about to explode...you'll finish and feel the warm embrace of release."
 18: 0x104C [0x23] WAIT_FOR_DIALOG_INTERACTION
 19: 0x104D [0x66] LOAD_EXT_SCHEDULER_MAIN: Load scheduler "tla1" with entities [Sylvie (ID: 17825930/0x0110008A), Sylvie (ID: 17825930/0x0110008A)], work=158*
 20: 0x105C [0x2B] Sylvie (ID: 17825930/0x0110008A) [12455*]:
    → "I'll have to touch up your luopan when you're done, so make sure to come back!"
 21: 0x1063 [0x23] WAIT_FOR_DIALOG_INTERACTION
 22: 0x1064 [0x66] LOAD_EXT_SCHEDULER_MAIN: Load scheduler "tlk0" with entities [Sylvie (ID: 17825930/0x0110008A), Sylvie (ID: 17825930/0x0110008A)], work=159*
 23: 0x1073 [0x2B] Sylvie (ID: 17825930/0x0110008A) [12456*]:
    → "You know...the forest isn't the friendliest of locations. I'd hate for anything to happen to your precious luo--<cough> to you."
 24: 0x107A [0x23] WAIT_FOR_DIALOG_INTERACTION
 25: 0x107B [0x2B] Sylvie (ID: 17825930/0x0110008A) [12457*]:
    → "There you have it! Now get going!"
 26: 0x1082 [0x23] WAIT_FOR_DIALOG_INTERACTION
 27: 0x1083 [0x21] END_EVENT
 28: 0x1084 [0x00] END_REQSTACK()
```

### Event 36

#### Metadata

| Field        | Value      |
|--------------|------------|
| Entrypoint   | 0x1085     |
| Data Size    | 1425 bytes |
| Instructions | 169        |

```
      00 01 02 03 04 05 06 07  08 09 0A 0B 0C 0D 0E 0F
      -- -- -- -- -- -- -- --  -- -- -- -- -- -- -- --
1080:                42 6A 09  80 07 80 17 80 1A 7C 18       Bj.......|.
1090: 46 01 38 02 80 27 10 8B  00 10 01 04 27 10 8C 00  F.8..'......'...
10A0: 10 01 04 92 01 8A 00 10  01 94 01 F0 FF FF 7F 94  ................
10B0: 01 8A 00 10 01 94 01 8B  00 10 01 94 01 8C 00 10  ................
10C0: 01 BA F0 FF FF 7F 03 80  04 80 05 80 06 80 BA 8B  ................
10D0: 00 10 01 65 80 66 80 05  80 67 80 BA 8C 00 10 01  ...e.f...g......
10E0: 68 80 69 80 05 80 6A 80  29 10 8B 00 10 01 08 29  h.i...j.)......)
10F0: 10 8C 00 10 01 08 80 F0  FF FF 7F 80 8A 00 10 01  ................
1100: 80 8B 00 10 01 80 8C 00  10 01 4A F0 FF FF 7F 8A  ..........J.....
1110: 00 10 01 4A 8A 00 10 01  F0 FF FF 7F 1C 4B 80 2C  ...J.........K.,
1120: 8B 00 10 01 8B 00 10 01  6B 69 6C 6C 2C 8C 00 10  ........kill,...
1130: 01 8C 00 10 01 6B 69 6C  6C 1C 28 80 45 08 80 F0  .....kill.(.E...
1140: FF FF 7F F0 FF FF 7F 73  30 36 37 09 80 1A 5B 18  .......s067...[.
1150: 6E 8A 00 10 01 2E 80 99  8A 00 10 01 2B 8A 00 10  n...........+...
1160: 01 6B 80 23 6A 6C 80 17  80 17 80 52 08 80 F0 FF  .k.#jl.....R....
1170: FF 7F F0 FF FF 7F 73 30  36 37 45 08 80 F0 FF FF  ......s067E.....
1180: 7F F0 FF FF 7F 73 30 36  38 09 80 9F 49 80 8A 00  .....s068...I...
1190: 10 01 8A 00 10 01 66 72  73 74 09 80 1C 4A 80 9F  ......frst...J..
11A0: 49 80 8A 00 10 01 8A 00  10 01 6F 6B 30 30 09 80  I.........ok00..
11B0: 1C 4A 80 52 08 80 F0 FF  FF 7F F0 FF FF 7F 73 30  .J.R..........s0
11C0: 36 38 45 08 80 F0 FF FF  7F F0 FF FF 7F 73 30 36  68E..........s06
11D0: 39 09 80 2B 8A 00 10 01  6D 80 23 66 0A 80 8A 00  9..+....m.#f....
11E0: 10 01 8A 00 10 01 74 6C  6B 30 2B 8A 00 10 01 6E  ......tlk0+....n
11F0: 80 23 52 08 80 F0 FF FF  7F F0 FF FF 7F 73 30 36  .#R..........s06
1200: 39 45 08 80 F0 FF FF 7F  F0 FF FF 7F 73 30 37 30  9E..........s070
1210: 09 80 2B 8A 00 10 01 6F  80 1C 4F 80 23 52 08 80  ..+....o..O.#R..
1220: F0 FF FF 7F F0 FF FF 7F  73 30 37 30 45 08 80 F0  ........s070E...
1230: FF FF 7F F0 FF FF 7F 73  30 37 31 09 80 66 0A 80  .......s071..f..
1240: 8A 00 10 01 8A 00 10 01  74 6C 6B 31 2B 8A 00 10  ........tlk1+...
1250: 01 70 80 23 52 08 80 F0  FF FF 7F F0 FF FF 7F 73  .p.#R..........s
1260: 30 37 31 45 08 80 F0 FF  FF 7F F0 FF FF 7F 73 30  071E..........s0
1270: 37 32 09 80 66 13 80 8A  00 10 01 8A 00 10 01 74  72..f..........t
1280: 6C 61 30 2B 8A 00 10 01  71 80 23 2B 8A 00 10 01  la0+....q.#+....
1290: 72 80 23 66 13 80 8A 00  10 01 8A 00 10 01 74 6C  r.#f..........tl
12A0: 61 31 1C 0C 80 52 08 80  F0 FF FF 7F F0 FF FF 7F  a1...R..........
12B0: 73 30 37 32 45 08 80 F0  FF FF 7F F0 FF FF 7F 73  s072E..........s
12C0: 30 37 33 09 80 2B 8A 00  10 01 73 80 23 6E 8A 00  073..+....s.#n..
12D0: 10 01 2E 80 99 8A 00 10  01 2B 8A 00 10 01 74 80  .........+....t.
12E0: 23 52 08 80 F0 FF FF 7F  F0 FF FF 7F 73 30 37 33  #R..........s073
12F0: 45 08 80 F0 FF FF 7F F0  FF FF 7F 73 30 37 34 09  E..........s074.
1300: 80 2C 8A 00 10 01 8A 00  10 01 63 61 67 65 1C 4A  .,........cage.J
1310: 80 52 08 80 F0 FF FF 7F  F0 FF FF 7F 73 30 37 34  .R..........s074
1320: 45 08 80 F0 FF FF 7F F0  FF FF 7F 73 30 37 35 09  E..........s075.
1330: 80 2C 8A 00 10 01 8A 00  10 01 73 68 67 65 1C 28  .,........shge.(
1340: 80 2C 8B 00 10 01 8A 00  10 01 73 74 61 72 1C 4A  .,........star.J
1350: 80 2B 8A 00 10 01 75 80  23 27 10 8A 00 10 01 09  .+....u.#'......
1360: 1C 28 80 52 08 80 F0 FF  FF 7F F0 FF FF 7F 73 30  .(.R..........s0
1370: 37 35 45 08 80 F0 FF FF  7F F0 FF FF 7F 73 30 37  75E..........s07
1380: 36 09 80 2A 10 8A 00 10  01 2C 8A 00 10 01 8A 00  6..*.....,......
1390: 10 01 63 61 67 65 1C 4A  80 52 08 80 F0 FF FF 7F  ..cage.J.R......
13A0: F0 FF FF 7F 73 30 37 36  45 08 80 F0 FF FF 7F F0  ....s076E.......
13B0: FF FF 7F 73 30 37 37 09  80 2C 8A 00 10 01 8A 00  ...s077..,......
13C0: 10 01 73 68 67 65 1C 28  80 2C 8C 00 10 01 8C 00  ..shge.(.,......
13D0: 10 01 73 74 61 72 1C 4A  80 2B 8A 00 10 01 76 80  ..star.J.+....v.
13E0: 23 52 08 80 F0 FF FF 7F  F0 FF FF 7F 73 30 37 37  #R..........s077
13F0: 45 08 80 F0 FF FF 7F F0  FF FF 7F 73 30 37 38 09  E..........s078.
1400: 80 27 10 8A 00 10 01 0A  1C 07 80 2B 8A 00 10 01  .'.........+....
1410: 77 80 23 2A 10 8A 00 10  01 66 0A 80 8A 00 10 01  w.#*.....f......
1420: 8A 00 10 01 74 6C 6B 30  2B 8A 00 10 01 78 80 23  ....tlk0+....x.#
1430: 2B 8A 00 10 01 79 80 23  66 0A 80 8A 00 10 01 8A  +....y.#f.......
1440: 00 10 01 74 6C 6B 31 2C  8B 00 10 01 8A 00 10 01  ...tlk1,........
1450: 73 74 6F 70 2C 8C 00 10  01 8C 00 10 01 73 74 6F  stop,........sto
1460: 70 1C 0C 80 52 08 80 F0  FF FF 7F F0 FF FF 7F 73  p...R..........s
1470: 30 37 38 45 08 80 F0 FF  FF 7F F0 FF FF 7F 73 30  078E..........s0
1480: 37 39 09 80 2B 8A 00 10  01 7A 80 23 52 08 80 F0  79..+....z.#R...
1490: FF FF 7F F0 FF FF 7F 73  30 37 39 45 08 80 F0 FF  .......s079E....
14A0: FF 7F F0 FF FF 7F 73 30  38 30 09 80 66 13 80 8A  ......s080..f...
14B0: 00 10 01 8A 00 10 01 74  6C 61 30 2B 8A 00 10 01  .......tla0+....
14C0: 7B 80 23 66 13 80 8A 00  10 01 8A 00 10 01 74 6C  {.#f..........tl
14D0: 61 31 27 05 F0 FF FF 7F  09 1C 7C 80 27 05 F0 FF  a1'.......|.'...
14E0: FF 7F 0A 1C 18 80 6E 8A  00 10 01 2E 80 99 8A 00  ......n.........
14F0: 10 01 2B 8A 00 10 01 7D  80 23 52 08 80 F0 FF FF  ..+....}.#R.....
1500: 7F F0 FF FF 7F 73 30 38  30 45 08 80 F0 FF FF 7F  .....s080E......
1510: F0 FF FF 7F 73 30 38 31  09 80 66 7E 80 8A 00 10  ....s081..f~....
1520: 01 8A 00 10 01 70 61 73  30 2B 8A 00 10 01 7F 80  .....pas0+......
1530: 23 2B 8A 00 10 01 80 80  23 53 8A 00 10 01 8A 00  #+......#S......
1540: 10 01 70 61 73 30 52 08  80 F0 FF FF 7F F0 FF FF  ..pas0R.........
1550: 7F 73 30 38 31 45 08 80  F0 FF FF 7F F0 FF FF 7F  .s081E..........
1560: 73 30 38 32 09 80 66 7E  80 8A 00 10 01 8A 00 10  s082..f~........
1570: 01 70 61 73 30 03 02 10  81 80 2B 8A 00 10 01 82  .pas0.....+.....
1580: 80 23 53 8A 00 10 01 8A  00 10 01 70 61 73 30 66  .#S........pas0f
1590: 13 80 8A 00 10 01 8A 00  10 01 74 6C 61 30 1C 2C  ..........tla0.,
15A0: 80 52 08 80 F0 FF FF 7F  F0 FF FF 7F 73 30 38 32  .R..........s082
15B0: 45 08 80 F0 FF FF 7F F0  FF FF 7F 73 30 38 33 09  E..........s083.
15C0: 80 2B 8A 00 10 01 83 80  23 2B 8A 00 10 01 84 80  .+......#+......
15D0: 23 1A 7C 18 1C 07 80 52  08 80 F0 FF FF 7F F0 FF  #.|....R........
15E0: FF 7F 73 30 38 33 1C 0C  80 AB 11 09 80 1C 17 80  ..s083..........
15F0: 46 00 45 85 80 F8 FF FF  7F F8 FF FF 7F 71 73 74  F.E..........qst
1600: 63 09 80 45 43 80 F0 FF  FF 7F F0 FF FF 7F 66 64  c..EC.........fd
1610: 69 32 09 80 21 00                                 i2..!.          
```

#### Opcodes

```
  0: 0x1085 [0x42] SET_CLI_EVENT_CANCEL_DATA()
  1: 0x1086 [0x6A] CHANGE_SOUND_VOLUME: Set (Effects)* volume to 0*, fade_time=30*
  2: 0x108D [0x1A] CALL_SUBROUTINE(address=0x187C)
  3: 0x1090 [0x46] CAMERA_CONTROL: Disable user control
  4: 0x1092 [0x38] SET_CLIENT_EVENT_MODE(mode=19*)
  5: 0x1095 [0x27] REQ_SET(priority=0x10, entity_id=Unnamed NPC (ID: 17825931/0x0110008B), tag_num=0x04)
  6: 0x109C [0x27] REQ_SET(priority=0x10, entity_id=Unnamed NPC (ID: 17825932/0x0110008C), tag_num=0x04)
  7: 0x10A3 [0x92] Sylvie (ID: 17825930/0x0110008A)->Render.Flags3 ^= 0x01
  8: 0x10A9 [0x94] LocalPlayer->Render.Flags3 ^= 0x01
  9: 0x10AF [0x94] Sylvie (ID: 17825930/0x0110008A)->Render.Flags3 ^= 0x01
 10: 0x10B5 [0x94] Unnamed NPC (ID: 17825931/0x0110008B)->Render.Flags3 ^= 0x01
 11: 0x10BB [0x94] Unnamed NPC (ID: 17825932/0x0110008C)->Render.Flags3 ^= 0x01
 12: 0x10C1 [0xBA] SET_ENTITY_POSITION(entity_id=LocalPlayer, pos_x=75.647*, pos_z=136.150*, pos_y=31.999*, direction=6.4°*)
 13: 0x10CE [0xBA] SET_ENTITY_POSITION(entity_id=Unnamed NPC (ID: 17825931/0x0110008B), pos_x=78.094*, pos_z=135.725*, pos_y=31.999*, direction=33.7°*)
 14: 0x10DB [0xBA] SET_ENTITY_POSITION(entity_id=Unnamed NPC (ID: 17825932/0x0110008C), pos_x=77.890*, pos_z=139.975*, pos_y=31.999*, direction=353.6°*)
 15: 0x10E8 [0x29] REQ_SET_WAIT(priority=0x10, entity_id=Unnamed NPC (ID: 17825931/0x0110008B), tag_num=0x08)
 16: 0x10EF [0x29] REQ_SET_WAIT(priority=0x10, entity_id=Unnamed NPC (ID: 17825932/0x0110008C), tag_num=0x08)
 17: 0x10F6 [0x80] LOAD_WAIT(entity=LocalPlayer)
 18: 0x10FB [0x80] LOAD_WAIT(entity=Sylvie (ID: 17825930/0x0110008A))
 19: 0x1100 [0x80] LOAD_WAIT(entity=Unnamed NPC (ID: 17825931/0x0110008B))
 20: 0x1105 [0x80] LOAD_WAIT(entity=Unnamed NPC (ID: 17825932/0x0110008C))
 21: 0x110A [0x4A] LocalPlayer looks at Sylvie (ID: 17825930/0x0110008A)
 22: 0x1113 [0x4A] Sylvie (ID: 17825930/0x0110008A) looks at LocalPlayer
 23: 0x111C [0x1C] WAIT(90* ticks)
 24: 0x111F [0x2C] CREATE_SCHEDULER_TASK: Create scheduler "kill" with entities [Unnamed NPC (ID: 17825931/0x0110008B), Unnamed NPC (ID: 17825931/0x0110008B)]
 25: 0x112C [0x2C] CREATE_SCHEDULER_TASK: Create scheduler "kill" with entities [Unnamed NPC (ID: 17825932/0x0110008C), Unnamed NPC (ID: 17825932/0x0110008C)]
 26: 0x1139 [0x1C] WAIT(60* ticks)
 27: 0x113C [0x45] LOAD_SCHEDULED_TASK: Load scheduler "s067" with entities [LocalPlayer, LocalPlayer], work=[621*, 0*]
 28: 0x114D [0x1A] CALL_SUBROUTINE(address=0x185B)
 29: 0x1150 [0x6E] Sylvie (ID: 17825930/0x0110008A) uses emote 7*
 30: 0x1157 [0x99] Wait for Sylvie (ID: 17825930/0x0110008A) animation to complete
 31: 0x115C [0x2B] Sylvie (ID: 17825930/0x0110008A) [12458*]:
    → "This is positively momenterrific!t Let me get a good look..."
 32: 0x1163 [0x23] WAIT_FOR_DIALOG_INTERACTION
 33: 0x1164 [0x6A] CHANGE_SOUND_VOLUME: Set (Effects)* volume to 999*, fade_time=1*
 34: 0x116B [0x52] END_LOAD_SCHEDULER: End scheduler "s067" with entities [LocalPlayer, LocalPlayer], work=621*
 35: 0x117A [0x45] LOAD_SCHEDULED_TASK: Load scheduler "s068" with entities [LocalPlayer, LocalPlayer], work=[621*, 0*]
 36: 0x118B [0x9F] LOAD_SCHEDULED_TASK_ALT: Load scheduler "frst" with entities [Sylvie (ID: 17825930/0x0110008A), Sylvie (ID: 17825930/0x0110008A)], work=[191*, 0*]
 37: 0x119C [0x1C] WAIT(120* ticks)
 38: 0x119F [0x9F] LOAD_SCHEDULED_TASK_ALT: Load scheduler "ok00" with entities [Sylvie (ID: 17825930/0x0110008A), Sylvie (ID: 17825930/0x0110008A)], work=[191*, 0*]
 39: 0x11B0 [0x1C] WAIT(120* ticks)
 40: 0x11B3 [0x52] END_LOAD_SCHEDULER: End scheduler "s068" with entities [LocalPlayer, LocalPlayer], work=621*
 41: 0x11C2 [0x45] LOAD_SCHEDULED_TASK: Load scheduler "s069" with entities [LocalPlayer, LocalPlayer], work=[621*, 0*]
 42: 0x11D3 [0x2B] Sylvie (ID: 17825930/0x0110008A) [12459*]:
    → "...There! I applied a thin astral patina to your luopan to keep it in tip-top shape. Now you can use it in your geomantic adventures!"
 43: 0x11DA [0x23] WAIT_FOR_DIALOG_INTERACTION
 44: 0x11DB [0x66] LOAD_EXT_SCHEDULER_MAIN: Load scheduler "tlk0" with entities [Sylvie (ID: 17825930/0x0110008A), Sylvie (ID: 17825930/0x0110008A)], work=159*
 45: 0x11EA [0x2B] Sylvie (ID: 17825930/0x0110008A) [12460*]:
    → "You know, Ikhi said that this luopan business was brought to Adoulin ten-something years ago by a woman from abroad. Quite the convenience, wouldn't you say?"
 46: 0x11F1 [0x23] WAIT_FOR_DIALOG_INTERACTION
 47: 0x11F2 [0x52] END_LOAD_SCHEDULER: End scheduler "s069" with entities [LocalPlayer, LocalPlayer], work=621*
 48: 0x1201 [0x45] LOAD_SCHEDULED_TASK: Load scheduler "s070" with entities [LocalPlayer, LocalPlayer], work=[621*, 0*]
 49: 0x1212 [0x2B] Sylvie (ID: 17825930/0x0110008A) [12461*]:
    → "<Whisper> She also said that same woman taught us about the waypoints. <Cough> I don't know much more about it."
 50: 0x1219 [0x1C] WAIT(180* ticks)
 51: 0x121C [0x23] WAIT_FOR_DIALOG_INTERACTION
 52: 0x121D [0x52] END_LOAD_SCHEDULER: End scheduler "s070" with entities [LocalPlayer, LocalPlayer], work=621*
 53: 0x122C [0x45] LOAD_SCHEDULED_TASK: Load scheduler "s071" with entities [LocalPlayer, LocalPlayer], work=[621*, 0*]
 54: 0x123D [0x66] LOAD_EXT_SCHEDULER_MAIN: Load scheduler "tlk1" with entities [Sylvie (ID: 17825930/0x0110008A), Sylvie (ID: 17825930/0x0110008A)], work=159*
 55: 0x124C [0x2B] Sylvie (ID: 17825930/0x0110008A) [12462*]:
    → "...Sorry! I was rambling again, wasn't I?"
 56: 0x1253 [0x23] WAIT_FOR_DIALOG_INTERACTION
 57: 0x1254 [0x52] END_LOAD_SCHEDULER: End scheduler "s071" with entities [LocalPlayer, LocalPlayer], work=621*
 58: 0x1263 [0x45] LOAD_SCHEDULED_TASK: Load scheduler "s072" with entities [LocalPlayer, LocalPlayer], work=[621*, 0*]
 59: 0x1274 [0x66] LOAD_EXT_SCHEDULER_MAIN: Load scheduler "tla0" with entities [Sylvie (ID: 17825930/0x0110008A), Sylvie (ID: 17825930/0x0110008A)], work=158*
 60: 0x1283 [0x2B] Sylvie (ID: 17825930/0x0110008A) [12463*]:
    → "Anyway, you can't actually use your luopan to its full extent unless you become more experienced in geomancy."
 61: 0x128A [0x23] WAIT_FOR_DIALOG_INTERACTION
 62: 0x128B [0x2B] Sylvie (ID: 17825930/0x0110008A) [12464*]:
    → "Aww, look at you with those sad eyes. Fear not! It won't be long before you've mastered both parts of geomancy!"
 63: 0x1292 [0x23] WAIT_FOR_DIALOG_INTERACTION
 64: 0x1293 [0x66] LOAD_EXT_SCHEDULER_MAIN: Load scheduler "tla1" with entities [Sylvie (ID: 17825930/0x0110008A), Sylvie (ID: 17825930/0x0110008A)], work=158*
 65: 0x12A2 [0x1C] WAIT(15* ticks)
 66: 0x12A5 [0x52] END_LOAD_SCHEDULER: End scheduler "s072" with entities [LocalPlayer, LocalPlayer], work=621*
 67: 0x12B4 [0x45] LOAD_SCHEDULED_TASK: Load scheduler "s073" with entities [LocalPlayer, LocalPlayer], work=[621*, 0*]
 68: 0x12C5 [0x2B] Sylvie (ID: 17825930/0x0110008A) [12465*]:
    → "Don't tell me you forgot what they are already! ...Fine, let's review. "Indi spells" are energy centered around the geomancer, while "Geo spells" are energy centered around the luopan."
 69: 0x12CC [0x23] WAIT_FOR_DIALOG_INTERACTION
 70: 0x12CD [0x6E] Sylvie (ID: 17825930/0x0110008A) uses emote 7*
 71: 0x12D4 [0x99] Wait for Sylvie (ID: 17825930/0x0110008A) animation to complete
 72: 0x12D9 [0x2B] Sylvie (ID: 17825930/0x0110008A) [12466*]:
    → "It's probably easier if I just show you."
 73: 0x12E0 [0x23] WAIT_FOR_DIALOG_INTERACTION
 74: 0x12E1 [0x52] END_LOAD_SCHEDULER: End scheduler "s073" with entities [LocalPlayer, LocalPlayer], work=621*
 75: 0x12F0 [0x45] LOAD_SCHEDULED_TASK: Load scheduler "s074" with entities [LocalPlayer, LocalPlayer], work=[621*, 0*]
 76: 0x1301 [0x2C] CREATE_SCHEDULER_TASK: Create scheduler "cage" with entities [Sylvie (ID: 17825930/0x0110008A), Sylvie (ID: 17825930/0x0110008A)]
 77: 0x130E [0x1C] WAIT(120* ticks)
 78: 0x1311 [0x52] END_LOAD_SCHEDULER: End scheduler "s074" with entities [LocalPlayer, LocalPlayer], work=621*
 79: 0x1320 [0x45] LOAD_SCHEDULED_TASK: Load scheduler "s075" with entities [LocalPlayer, LocalPlayer], work=[621*, 0*]
 80: 0x1331 [0x2C] CREATE_SCHEDULER_TASK: Create scheduler "shge" with entities [Sylvie (ID: 17825930/0x0110008A), Sylvie (ID: 17825930/0x0110008A)]
 81: 0x133E [0x1C] WAIT(60* ticks)
 82: 0x1341 [0x2C] CREATE_SCHEDULER_TASK: Create scheduler "star" with entities [Unnamed NPC (ID: 17825931/0x0110008B), Sylvie (ID: 17825930/0x0110008A)]
 83: 0x134E [0x1C] WAIT(120* ticks)
 84: 0x1351 [0x2B] Sylvie (ID: 17825930/0x0110008A) [12467*]:
    → "This is Indi..."
 85: 0x1358 [0x23] WAIT_FOR_DIALOG_INTERACTION
 86: 0x1359 [0x27] REQ_SET(priority=0x10, entity_id=Sylvie (ID: 17825930/0x0110008A), tag_num=0x09)
 87: 0x1360 [0x1C] WAIT(60* ticks)
 88: 0x1363 [0x52] END_LOAD_SCHEDULER: End scheduler "s075" with entities [LocalPlayer, LocalPlayer], work=621*
 89: 0x1372 [0x45] LOAD_SCHEDULED_TASK: Load scheduler "s076" with entities [LocalPlayer, LocalPlayer], work=[621*, 0*]
 90: 0x1383 [0x2A] GET_REQ_LEVEL(level=16, entity_id=Sylvie (ID: 17825930/0x0110008A))
 91: 0x1389 [0x2C] CREATE_SCHEDULER_TASK: Create scheduler "cage" with entities [Sylvie (ID: 17825930/0x0110008A), Sylvie (ID: 17825930/0x0110008A)]
 92: 0x1396 [0x1C] WAIT(120* ticks)
 93: 0x1399 [0x52] END_LOAD_SCHEDULER: End scheduler "s076" with entities [LocalPlayer, LocalPlayer], work=621*
 94: 0x13A8 [0x45] LOAD_SCHEDULED_TASK: Load scheduler "s077" with entities [LocalPlayer, LocalPlayer], work=[621*, 0*]
 95: 0x13B9 [0x2C] CREATE_SCHEDULER_TASK: Create scheduler "shge" with entities [Sylvie (ID: 17825930/0x0110008A), Sylvie (ID: 17825930/0x0110008A)]
 96: 0x13C6 [0x1C] WAIT(60* ticks)
 97: 0x13C9 [0x2C] CREATE_SCHEDULER_TASK: Create scheduler "star" with entities [Unnamed NPC (ID: 17825932/0x0110008C), Unnamed NPC (ID: 17825932/0x0110008C)]
 98: 0x13D6 [0x1C] WAIT(120* ticks)
 99: 0x13D9 [0x2B] Sylvie (ID: 17825930/0x0110008A) [12468*]:
    → "...And this is Geo."
100: 0x13E0 [0x23] WAIT_FOR_DIALOG_INTERACTION
101: 0x13E1 [0x52] END_LOAD_SCHEDULER: End scheduler "s077" with entities [LocalPlayer, LocalPlayer], work=621*
102: 0x13F0 [0x45] LOAD_SCHEDULED_TASK: Load scheduler "s078" with entities [LocalPlayer, LocalPlayer], work=[621*, 0*]
103: 0x1401 [0x27] REQ_SET(priority=0x10, entity_id=Sylvie (ID: 17825930/0x0110008A), tag_num=0x0A)
104: 0x1408 [0x1C] WAIT(30* ticks)
105: 0x140B [0x2B] Sylvie (ID: 17825930/0x0110008A) [12469*]:
    → "Those more experienced with the ways of the geomancer get to use both at once! Not a bad deal, if you ask me. As an aside, the fields created by Indi and Geo are collectively known as "Colures.""
106: 0x1412 [0x23] WAIT_FOR_DIALOG_INTERACTION
107: 0x1413 [0x2A] GET_REQ_LEVEL(level=16, entity_id=Sylvie (ID: 17825930/0x0110008A))
108: 0x1419 [0x66] LOAD_EXT_SCHEDULER_MAIN: Load scheduler "tlk0" with entities [Sylvie (ID: 17825930/0x0110008A), Sylvie (ID: 17825930/0x0110008A)], work=159*
109: 0x1428 [0x2B] Sylvie (ID: 17825930/0x0110008A) [12470*]:
    → "When we use the terms Indi and Geo, we are simply using the short form of "Indicolures" and "Geocolures.""
