# 17825944

## Common Data

| Field            | Value                     |
|------------------|---------------------------|
| Zone             | Western Adoulin (ID: 256) |
| Block Size       | 556 bytes                 |
| Total Events     | 12                        |
| References Count | 35                        |

## List of Events

| Event ID                 | Entrypoint   |   Size |   Instructions |
|--------------------------|--------------|--------|----------------|
| [65535](#event-65535)    | 0x0000       |      1 |              1 |
| [130](#event-130)        | 0x0001       |      7 |              3 |
| [153](#event-153)        | 0x0008       |     11 |              4 |
| [5218](#event-5218)      | 0x0013       |      9 |              3 |
| [65535.1](#event-655351) | 0x001C       |     10 |              2 |
| [65535.2](#event-655352) | 0x0026       |    189 |             26 |
| [5221](#event-5221)      | 0x00E3       |      9 |              3 |
| [65535.3](#event-655353) | 0x00EC       |     44 |             10 |
| [65535.4](#event-655354) | 0x0118       |     44 |             10 |
| [65535.5](#event-655355) | 0x0144       |      5 |              2 |
| [5224](#event-5224)      | 0x0149       |      9 |              3 |
| [65535.6](#event-655356) | 0x0152       |     14 |              4 |

## DAT References (imed_data)

|   Index | Hex Value   |   Dec Value |
|---------|-------------|-------------|
|       0 | 0x0A92      |        2706 |
|       1 | 0x003C      |          60 |
|       2 | 0x62D4      |       25300 |
|       3 | 0xFFFFB1E0  |  4294947296 |
|       4 | 0xFFFFFF9C  |  4294967196 |
|       5 | 0x0000      |           0 |
|       6 | 0x0005      |           5 |
|       7 | 0x012C      |         300 |
|       8 | 0x0002      |           2 |
|       9 | 0x0CB2      |        3250 |
|      10 | 0x0001      |           1 |
|      11 | 0x00B4      |         180 |
|      12 | 0x0CB7      |        3255 |
|      13 | 0x000D      |          13 |
|      14 | 0xFFFF8454  |  4294935636 |
|      15 | 0xFFFE7BB8  |  4294867896 |
|      16 | 0xFFFFFD76  |  4294966646 |
|      17 | 0xFFFF7B08  |  4294933256 |
|      18 | 0xFFFE75BE  |  4294866366 |
|      19 | 0xFFFF7202  |  4294930946 |
|      20 | 0xFFFE6EC0  |  4294864576 |
|      21 | 0xFFFF6C4E  |  4294929486 |
|      22 | 0xFFFE695C  |  4294863196 |
|      23 | 0xFFFF6320  |  4294927136 |
|      24 | 0xFFFE57F0  |  4294858736 |
|      25 | 0xFFFF6B2C  |  4294929196 |
|      26 | 0xFFFE56EC  |  4294858476 |
|      27 | 0xFFFF7A0E  |  4294933006 |
|      28 | 0xFFFE5002  |  4294856706 |
|      29 | 0xFFFF8B2A  |  4294937386 |
|      30 | 0xFFFE5340  |  4294857536 |
|      31 | 0x0064      |         100 |
|      32 | 0xAFC80     |      720000 |
|      33 | 0xFFFDE61C  |  4294829596 |
|      34 | 0xFFFDD9B0  |  4294826416 |

## Events

### Event 65535

#### Metadata

| Field        | Value   |
|--------------|---------|
| Entrypoint   | 0x0000  |
| Data Size    | 1 bytes |
| Instructions | 1       |

```
      00 01 02 03 04 05 06 07  08 09 0A 0B 0C 0D 0E 0F
      -- -- -- -- -- -- -- --  -- -- -- -- -- -- -- --
0000: 00                                                .               
```

#### Opcodes

```
  0: 0x0000 [0x00] END_REQSTACK()
```

### Event 130

#### Metadata

| Field        | Value   |
|--------------|---------|
| Entrypoint   | 0x0001  |
| Data Size    | 7 bytes |
| Instructions | 3       |

```
      00 01 02 03 04 05 06 07  08 09 0A 0B 0C 0D 0E 0F
      -- -- -- -- -- -- -- --  -- -- -- -- -- -- -- --
0000:    A5 01 B6 00 00 80 00                            .......        
```

#### Opcodes

```
  0: 0x0001 [0xA5] EventEntity->Flags3.BallistaTeam |= 0x08  // Set bit 3 of BallistaTeam
  1: 0x0003 [0xB6] ENTITY_APPEARANCE_HANDLER(case=Hair style, value=2706*)
  2: 0x0007 [0x00] END_REQSTACK()
```

### Event 153

#### Metadata

| Field        | Value    |
|--------------|----------|
| Entrypoint   | 0x0008   |
| Data Size    | 11 bytes |
| Instructions | 4        |

```
      00 01 02 03 04 05 06 07  08 09 0A 0B 0C 0D 0E 0F
      -- -- -- -- -- -- -- --  -- -- -- -- -- -- -- --
0000:                          A5 01 B6 00 00 80 B6 0F          ........
0010: 01 80 00                                          ...             
```

#### Opcodes

```
  0: 0x0008 [0xA5] EventEntity->Flags3.BallistaTeam |= 0x08  // Set bit 3 of BallistaTeam
  1: 0x000A [0xB6] ENTITY_APPEARANCE_HANDLER(case=Hair style, value=2706*)
  2: 0x000E [0xB6] ENTITY_APPEARANCE_HANDLER(case=Model size, value=60*)
  3: 0x0012 [0x00] END_REQSTACK()
```

### Event 5218

#### Metadata

| Field        | Value   |
|--------------|---------|
| Entrypoint   | 0x0013  |
| Data Size    | 9 bytes |
| Instructions | 3       |

```
      00 01 02 03 04 05 06 07  08 09 0A 0B 0C 0D 0E 0F
      -- -- -- -- -- -- -- --  -- -- -- -- -- -- -- --
0010:          B6 00 00 80 B6  0F 01 80 00                 .........    
```

#### Opcodes

```
  0: 0x0013 [0xB6] ENTITY_APPEARANCE_HANDLER(case=Hair style, value=2706*)
  1: 0x0017 [0xB6] ENTITY_APPEARANCE_HANDLER(case=Model size, value=60*)
  2: 0x001B [0x00] END_REQSTACK()
```

### Event 65535.1

#### Metadata

| Field        | Value    |
|--------------|----------|
| Entrypoint   | 0x001C   |
| Data Size    | 10 bytes |
| Instructions | 2        |

```
      00 01 02 03 04 05 06 07  08 09 0A 0B 0C 0D 0E 0F
      -- -- -- -- -- -- -- --  -- -- -- -- -- -- -- --
0010:                                      37 02 80 03              7...
0020: 80 04 80 05 80 00                                 ......          
```

#### Opcodes

```
  0: 0x001C [0x37] UPDATE_EVENT_POSITION_AND_DIR: x=25.300*, z=-20.000*, y=-0.100*, direction=0.0°*
  1: 0x0025 [0x00] END_REQSTACK()
```

### Event 65535.2

#### Metadata

| Field        | Value     |
|--------------|-----------|
| Entrypoint   | 0x0026    |
| Data Size    | 189 bytes |
| Instructions | 25        |

```
      00 01 02 03 04 05 06 07  08 09 0A 0B 0C 0D 0E 0F
      -- -- -- -- -- -- -- --  -- -- -- -- -- -- -- --
0020:                   13 00  00 06 80 14 00 00 01 80        ..........
0030: 07 00 00 07 80 1C 00 00  13 00 00 08 80 02 00 00  ................
0040: 05 80 80 79 00 5B 09 80  F8 FF FF 7F F8 FF FF 7F  ...y.[..........
0050: 62 74 6C 30 1C 0A 80 5B  09 80 F8 FF FF 7F F8 FF  btl0...[........
0060: FF 7F 6B 62 74 73 1C 0B  80 2C F8 FF FF 7F F8 FF  ..kbts...,......
0070: FF 7F 73 74 64 30 01 DF  00 02 00 00 0A 80 80 A3  ..std0..........
0080: 00 5B 0C 80 F8 FF FF 7F  F8 FF FF 7F 6D 67 6B 30  .[..........mgk0
0090: 1C 0B 80 2C F8 FF FF 7F  F8 FF FF 7F 73 74 64 30  ...,........std0
00A0: 01 DF 00 02 00 00 08 80  80 DF 00 5B 0C 80 F8 FF  ...........[....
00B0: FF 7F F8 FF FF 7F 69 6B  61 30 1C 0A 80 5B 0C 80  ......ika0...[..
00C0: F8 FF FF 7F F8 FF FF 7F  6B 69 6B 73 1C 0B 80 2C  ........kiks...,
00D0: F8 FF FF 7F F8 FF FF 7F  73 74 64 30 01 DF 00 01  ........std0....
00E0: 26 00 00                                          &..             
```

#### Opcodes

```
  0: 0x0026 [0x13] ExtData[1]->WorkLocal[0] = rand() % 5*
  1: 0x002B [0x14] ExtData[1]->WorkLocal[0] *= 60*
  2: 0x0030 [0x07] ExtData[1]->WorkLocal[0] += 300*
  3: 0x0035 [0x1C] WAIT(ExtData[1]->WorkLocal[0] ticks)
  4: 0x0038 [0x13] ExtData[1]->WorkLocal[0] = rand() % 2*
  5: 0x003D [0x02] IF !(ExtData[1]->WorkLocal[0] == 0*) GOTO 0x0079
  6: 0x0045 [0x5B] LOAD_EXT_SCHEDULER: Load scheduler "btl0" with entities [EventEntity, EventEntity], work=3250*
  7: 0x0054 [0x1C] WAIT(1* ticks)
  8: 0x0057 [0x5B] LOAD_EXT_SCHEDULER: Load scheduler "kbts" with entities [EventEntity, EventEntity], work=3250*
  9: 0x0066 [0x1C] WAIT(180* ticks)
 10: 0x0069 [0x2C] CREATE_SCHEDULER_TASK: Create scheduler "std0" with entities [EventEntity, EventEntity]
 11: 0x0076 [0x01] GOTO 0x00DF
 12: 0x0079 [0x02] IF !(ExtData[1]->WorkLocal[0] == 1*) GOTO 0x00A3
 13: 0x0081 [0x5B] LOAD_EXT_SCHEDULER: Load scheduler "mgk0" with entities [EventEntity, EventEntity], work=3255*
 14: 0x0090 [0x1C] WAIT(180* ticks)
 15: 0x0093 [0x2C] CREATE_SCHEDULER_TASK: Create scheduler "std0" with entities [EventEntity, EventEntity]
 16: 0x00A0 [0x01] GOTO 0x00DF
 17: 0x00A3 [0x02] IF !(ExtData[1]->WorkLocal[0] == 2*) GOTO 0x00DF
 18: 0x00AB [0x5B] LOAD_EXT_SCHEDULER: Load scheduler "ika0" with entities [EventEntity, EventEntity], work=3255*
 19: 0x00BA [0x1C] WAIT(1* ticks)
 20: 0x00BD [0x5B] LOAD_EXT_SCHEDULER: Load scheduler "kiks" with entities [EventEntity, EventEntity], work=3255*
 21: 0x00CC [0x1C] WAIT(180* ticks)
 22: 0x00CF [0x2C] CREATE_SCHEDULER_TASK: Create scheduler "std0" with entities [EventEntity, EventEntity]
 23: 0x00DC [0x01] GOTO 0x00DF

SUBROUTINE_00DF:
 24: 0x00DF [0x01] GOTO 0x0026
```

#### Data or dead code:

```
# Dead code (unreachable instructions):
     0x00E2 [0x00] END_REQSTACK()
```

### Event 5221

#### Metadata

| Field        | Value   |
|--------------|---------|
| Entrypoint   | 0x00E3  |
| Data Size    | 9 bytes |
| Instructions | 3       |

```
      00 01 02 03 04 05 06 07  08 09 0A 0B 0C 0D 0E 0F
      -- -- -- -- -- -- -- --  -- -- -- -- -- -- -- --
00E0:          B6 00 00 80 B6  0F 01 80 00                 .........    
```

#### Opcodes

```
  0: 0x00E3 [0xB6] ENTITY_APPEARANCE_HANDLER(case=Hair style, value=2706*)
  1: 0x00E7 [0xB6] ENTITY_APPEARANCE_HANDLER(case=Model size, value=60*)
  2: 0x00EB [0x00] END_REQSTACK()
```

### Event 65535.3

#### Metadata

| Field        | Value    |
|--------------|----------|
| Entrypoint   | 0x00EC   |
| Data Size    | 44 bytes |
| Instructions | 10       |

```
      00 01 02 03 04 05 06 07  08 09 0A 0B 0C 0D 0E 0F
      -- -- -- -- -- -- -- --  -- -- -- -- -- -- -- --
00E0:                                      32 0D 80 1F              2...
00F0: 00 0E 80 0F 80 10 80 1F  01 1F 00 11 80 12 80 10  ................
0100: 80 1F 01 1F 00 13 80 14  80 10 80 1F 01 1F 00 15  ................
0110: 80 16 80 10 80 1F 01 00                           ........        
```

#### Opcodes

```
  0: 0x00EC [0x32] ExtData[1]->MainSpeed = 13* * 0.1
  1: 0x00EF [0x1F] MOVE_ENTITY: EventEntity moves to X=-31.660*, Z=-99.400*, Y=-0.650*
  2: 0x00F7 [0x1F] MOVE_ENTITY: Update entity position (mode=1)
  3: 0x00F9 [0x1F] MOVE_ENTITY: EventEntity moves to X=-34.040*, Z=-100.930*, Y=-0.650*
  4: 0x0101 [0x1F] MOVE_ENTITY: Update entity position (mode=1)
  5: 0x0103 [0x1F] MOVE_ENTITY: EventEntity moves to X=-36.350*, Z=-102.720*, Y=-0.650*
  6: 0x010B [0x1F] MOVE_ENTITY: Update entity position (mode=1)
  7: 0x010D [0x1F] MOVE_ENTITY: EventEntity moves to X=-37.810*, Z=-104.100*, Y=-0.650*
  8: 0x0115 [0x1F] MOVE_ENTITY: Update entity position (mode=1)
  9: 0x0117 [0x00] END_REQSTACK()
```

### Event 65535.4

#### Metadata

| Field        | Value    |
|--------------|----------|
| Entrypoint   | 0x0118   |
| Data Size    | 44 bytes |
| Instructions | 10       |

```
      00 01 02 03 04 05 06 07  08 09 0A 0B 0C 0D 0E 0F
      -- -- -- -- -- -- -- --  -- -- -- -- -- -- -- --
0110:                          32 0D 80 1F 00 17 80 18          2.......
0120: 80 10 80 1F 01 1F 00 19  80 1A 80 10 80 1F 01 1F  ................
0130: 00 1B 80 1C 80 10 80 1F  01 1F 00 1D 80 1E 80 10  ................
0140: 80 1F 01 00                                       ....            
```

#### Opcodes

```
  0: 0x0118 [0x32] ExtData[1]->MainSpeed = 13* * 0.1
  1: 0x011B [0x1F] MOVE_ENTITY: EventEntity moves to X=-40.160*, Z=-108.560*, Y=-0.650*
  2: 0x0123 [0x1F] MOVE_ENTITY: Update entity position (mode=1)
  3: 0x0125 [0x1F] MOVE_ENTITY: EventEntity moves to X=-38.100*, Z=-108.820*, Y=-0.650*
  4: 0x012D [0x1F] MOVE_ENTITY: Update entity position (mode=1)
  5: 0x012F [0x1F] MOVE_ENTITY: EventEntity moves to X=-34.290*, Z=-110.590*, Y=-0.650*
  6: 0x0137 [0x1F] MOVE_ENTITY: Update entity position (mode=1)
  7: 0x0139 [0x1F] MOVE_ENTITY: EventEntity moves to X=-29.910*, Z=-109.760*, Y=-0.650*
  8: 0x0141 [0x1F] MOVE_ENTITY: Update entity position (mode=1)
  9: 0x0143 [0x00] END_REQSTACK()
```

### Event 65535.5

#### Metadata

| Field        | Value   |
|--------------|---------|
| Entrypoint   | 0x0144  |
| Data Size    | 5 bytes |
| Instructions | 2       |

```
      00 01 02 03 04 05 06 07  08 09 0A 0B 0C 0D 0E 0F
      -- -- -- -- -- -- -- --  -- -- -- -- -- -- -- --
0140:             B6 0F 1F 80  00                           .....       
```

#### Opcodes

```
  0: 0x0144 [0xB6] ENTITY_APPEARANCE_HANDLER(case=Model size, value=100*)
  1: 0x0148 [0x00] END_REQSTACK()
```

### Event 5224

#### Metadata

| Field        | Value   |
|--------------|---------|
| Entrypoint   | 0x0149  |
| Data Size    | 9 bytes |
| Instructions | 3       |

```
      00 01 02 03 04 05 06 07  08 09 0A 0B 0C 0D 0E 0F
      -- -- -- -- -- -- -- --  -- -- -- -- -- -- -- --
0140:                             B6 00 00 80 B6 0F 01           .......
0150: 80 00                                             ..              
```

#### Opcodes

```
  0: 0x0149 [0xB6] ENTITY_APPEARANCE_HANDLER(case=Hair style, value=2706*)
  1: 0x014D [0xB6] ENTITY_APPEARANCE_HANDLER(case=Model size, value=60*)
  2: 0x0151 [0x00] END_REQSTACK()
```

### Event 65535.6

#### Metadata

| Field        | Value    |
|--------------|----------|
| Entrypoint   | 0x0152   |
| Data Size    | 14 bytes |
| Instructions | 4        |

```
      00 01 02 03 04 05 06 07  08 09 0A 0B 0C 0D 0E 0F
      -- -- -- -- -- -- -- --  -- -- -- -- -- -- -- --
0150:       32 0D 80 1F 00 20  80 21 80 22 80 1F 01 00    2.... .!."....
```

#### Opcodes

```
  0: 0x0152 [0x32] ExtData[1]->MainSpeed = 13* * 0.1
  1: 0x0155 [0x1F] MOVE_ENTITY: EventEntity moves to X=720.000*, Z=-137.700*, Y=-140.880*
  2: 0x015D [0x1F] MOVE_ENTITY: Update entity position (mode=1)
  3: 0x015F [0x00] END_REQSTACK()
```
