# 17826142 - Rienne

## Common Data

| Field            | Value                     |
|------------------|---------------------------|
| Zone             | Western Adoulin (ID: 256) |
| Block Size       | 34560 bytes               |
| Total Events     | 3                         |
| References Count | 1432                      |

## List of Events

| Event ID              | Entrypoint   |   Size |   Instructions |
|-----------------------|--------------|--------|----------------|
| [65535](#event-65535) | 0x0000       |      1 |              1 |
| [7595](#event-7595)   | 0x0001       |     13 |              5 |
| [7543](#event-7543)   | 0x000E       |  28790 |           6079 |

## DAT References (imed_data)

|   Index | Hex Value   |   Dec Value |
|---------|-------------|-------------|
|       0 | 0x0002      |           2 |
|       1 | 0x0000      |           0 |
|       2 | 0x000F      |          15 |
|       3 | 0x0003      |           3 |
|       4 | 0x2F18      |       12056 |
|       5 | 0x2EF9      |       12025 |
|       6 | 0x40000000  |  1073741824 |
|       7 | 0x0011      |          17 |
|       8 | 0x0012      |          18 |
|       9 | 0x0010      |          16 |
|      10 | 0x2EFE      |       12030 |
|      11 | 0x2F00      |       12032 |
|      12 | 0x0001      |           1 |
|      13 | 0x0007      |           7 |
|      14 | 0x0008      |           8 |
|      15 | 0x0017      |          23 |
|      16 | 0x001F      |          31 |
|      17 | 0xFFFFFFFF  |  4294967295 |
|      18 | 0x2F19      |       12057 |
|      19 | 0x000C      |          12 |
|      20 | 0x2F1A      |       12058 |
|      21 | 0x4040      |       16448 |
|      22 | 0x005A      |          90 |
|      23 | 0x0064      |         100 |
|      24 | 0x2FE8      |       12264 |
|      25 | 0x0018      |          24 |
|      26 | 0x001A      |          26 |
|      27 | 0x2F1B      |       12059 |
|      28 | 0x2F05      |       12037 |
|      29 | 0x0004      |           4 |
|      30 | 0x2F1C      |       12060 |
|      31 | 0x2F1D      |       12061 |
|      32 | 0x001E      |          30 |
|      33 | 0x2F1E      |       12062 |
|      34 | 0x2FBE      |       12222 |
|      35 | 0x07D0      |        2000 |
|      36 | 0x2020      |        8224 |
|      37 | 0x0050      |          80 |
|      38 | 0x0202      |         514 |
|      39 | 0x2FBF      |       12223 |
|      40 | 0x2FC4      |       12228 |
|      41 | 0x2FC5      |       12229 |
|      42 | 0x2FC7      |       12231 |
|      43 | 0x2FC6      |       12230 |
|      44 | 0x2FD2      |       12242 |
|      45 | 0x2F1F      |       12063 |
|      46 | 0x003C      |          60 |
|      47 | 0x000A      |          10 |
|      48 | 0x000B      |          11 |
|      49 | 0x2F4C      |       12108 |
|      50 | 0x2F4E      |       12110 |
|      51 | 0x2F20      |       12064 |
|      52 | 0x0005      |           5 |
|      53 | 0x0006      |           6 |
|      54 | 0x2FEE      |       12270 |
|      55 | 0x3023      |       12323 |
|      56 | 0x01F4      |         500 |
|      57 | 0x2FC8      |       12232 |
|      58 | 0x2FEF      |       12271 |
|      59 | 0x2FC9      |       12233 |
|      60 | 0x2FCA      |       12234 |
|      61 | 0x2FCB      |       12235 |
|      62 | 0x2FCC      |       12236 |
|      63 | 0x2FCD      |       12237 |
|      64 | 0x2FF5      |       12277 |
|      65 | 0x0993      |        2451 |
|      66 | 0x2FF0      |       12272 |
|      67 | 0x1388      |        5000 |
|      68 | 0x2FF1      |       12273 |
|      69 | 0x2FF7      |       12279 |
|      70 | 0x2FF2      |       12274 |
|      71 | 0x2FF3      |       12275 |
|      72 | 0x2FF4      |       12276 |
|      73 | 0x0032      |          50 |
|      74 | 0x3022      |       12322 |
|      75 | 0x0009      |           9 |
|      76 | 0x2FCE      |       12238 |
|      77 | 0x2FCF      |       12239 |
|      78 | 0x2FD0      |       12240 |
|      79 | 0x2FD1      |       12241 |
|      80 | 0x3020      |       12320 |
|      81 | 0x09DE      |        2526 |
|      82 | 0x2FFD      |       12285 |
|      83 | 0x2FFE      |       12286 |
|      84 | 0x2FFF      |       12287 |
|      85 | 0x3000      |       12288 |
|      86 | 0x3026      |       12326 |
|      87 | 0x3027      |       12327 |
|      88 | 0x3028      |       12328 |
|      89 | 0x3029      |       12329 |
|      90 | 0x302A      |       12330 |
|      91 | 0x302B      |       12331 |
|      92 | 0x302D      |       12333 |
|      93 | 0x302C      |       12332 |
|      94 | 0x0019      |          25 |
|      95 | 0x002D      |          45 |
|      96 | 0x0024      |          36 |
|      97 | 0x0038      |          56 |
|      98 | 0x2F4D      |       12109 |
|      99 | 0x2F50      |       12112 |
|     100 | 0x2F51      |       12113 |
|     101 | 0x3021      |       12321 |
|     102 | 0x2FF8      |       12280 |
|     103 | 0x2FFA      |       12282 |
|     104 | 0x2FF9      |       12281 |
|     105 | 0x2FFB      |       12283 |
|     106 | 0x2FFC      |       12284 |
|     107 | 0x3024      |       12324 |
|     108 | 0x2F21      |       12065 |
|     109 | 0x0BB8      |        3000 |
|     110 | 0x2FD4      |       12244 |
|     111 | 0x2FD5      |       12245 |
|     112 | 0x2FD6      |       12246 |
|     113 | 0x2FD7      |       12247 |
|     114 | 0x2FD8      |       12248 |
|     115 | 0x2FD9      |       12249 |
|     116 | 0x2FE0      |       12256 |
|     117 | 0x2FD3      |       12243 |
|     118 | 0x2FDA      |       12250 |
|     119 | 0x2FDB      |       12251 |
|     120 | 0x2FDC      |       12252 |
|     121 | 0x2FDD      |       12253 |
|     122 | 0x2FDE      |       12254 |
|     123 | 0x2F52      |       12114 |
|     124 | 0x2F22      |       12066 |
|     125 | 0x2EFD      |       12029 |
|     126 | 0x2F03      |       12035 |
|     127 | 0x2F04      |       12036 |
|     128 | 0x2F23      |       12067 |
|     129 | 0x2F24      |       12068 |
|     130 | 0x06EC      |        1772 |
|     131 | 0x0F72      |        3954 |
|     132 | 0x0FC1      |        4033 |
|     133 | 0x2F25      |       12069 |
|     134 | 0x2F26      |       12070 |
|     135 | 0x0F73      |        3955 |
|     136 | 0x0FC2      |        4034 |
|     137 | 0x2F27      |       12071 |
|     138 | 0x2F28      |       12072 |
|     139 | 0x2F29      |       12073 |
|     140 | 0x2F2A      |       12074 |
|     141 | 0x2F2B      |       12075 |
|     142 | 0x2F31      |       12081 |
|     143 | 0x2F32      |       12082 |
|     144 | 0x0F6F      |        3951 |
|     145 | 0x2F33      |       12083 |
|     146 | 0x3045      |       12357 |
|     147 | 0x3046      |       12358 |
|     148 | 0x2F2C      |       12076 |
|     149 | 0x2F2D      |       12077 |
|     150 | 0x2F2E      |       12078 |
|     151 | 0x2F34      |       12084 |
|     152 | 0x2FE4      |       12260 |
|     153 | 0x0105      |         261 |
|     154 | 0x0106      |         262 |
|     155 | 0x0109      |         265 |
|     156 | 0x0107      |         263 |
|     157 | 0x010A      |         266 |
|     158 | 0x010B      |         267 |
|     159 | 0x2FE2      |       12258 |
|     160 | 0x2F35      |       12085 |
|     161 | 0x2F36      |       12086 |
|     162 | 0x000D      |          13 |
|     163 | 0x000E      |          14 |
|     164 | 0x2F44      |       12100 |
|     165 | 0x2FE7      |       12263 |
|     166 | 0x0063      |          99 |
|     167 | 0x0021      |          33 |
|     168 | 0x0042      |          66 |
|     169 | 0x2FE3      |       12259 |
|     170 | 0x001B      |          27 |
|     171 | 0x0015      |          21 |
|     172 | 0x0016      |          22 |
|     173 | 0x6FC8      |       28616 |
|     174 | 0x302F      |       12335 |
|     175 | 0x3030      |       12336 |
|     176 | 0x3031      |       12337 |
|     177 | 0x3032      |       12338 |
|     178 | 0x3033      |       12339 |
|     179 | 0x3034      |       12340 |
|     180 | 0x3035      |       12341 |
|     181 | 0x3036      |       12342 |
|     182 | 0x3037      |       12343 |
|     183 | 0x3038      |       12344 |
|     184 | 0x3039      |       12345 |
|     185 | 0x303A      |       12346 |
|     186 | 0x303B      |       12347 |
|     187 | 0x303C      |       12348 |
|     188 | 0x303D      |       12349 |
|     189 | 0x303E      |       12350 |
|     190 | 0x303F      |       12351 |
|     191 | 0x3040      |       12352 |
|     192 | 0x0013      |          19 |
|     193 | 0x3041      |       12353 |
|     194 | 0x0014      |          20 |
|     195 | 0x3042      |       12354 |
|     196 | 0x3043      |       12355 |
|     197 | 0x3044      |       12356 |
|     198 | 0x0020      |          32 |
|     199 | 0x0F75      |        3957 |
|     200 | 0x0FBD      |        4029 |
|     201 | 0x6C89      |       27785 |
|     202 | 0x6D15      |       27925 |
|     203 | 0x6DA1      |       28065 |
|     204 | 0x6E2D      |       28205 |
|     205 | 0x6EB9      |       28345 |
|     206 | 0x6C88      |       27784 |
|     207 | 0x6D14      |       27924 |
|     208 | 0x6DA0      |       28064 |
|     209 | 0x6E2C      |       28204 |
|     210 | 0x6EB8      |       28344 |
|     211 | 0x6C86      |       27782 |
|     212 | 0x6D12      |       27922 |
|     213 | 0x6D9D      |       28061 |
|     214 | 0x6E2B      |       28203 |
|     215 | 0x6EB6      |       28342 |
|     216 | 0x6C71      |       27761 |
|     217 | 0x6D03      |       27907 |
|     218 | 0x6D8E      |       28046 |
|     219 | 0x6E1C      |       28188 |
|     220 | 0x6EA7      |       28327 |
|     221 | 0x6C72      |       27762 |
|     222 | 0x6D04      |       27908 |
|     223 | 0x6D8F      |       28047 |
|     224 | 0x6E1D      |       28189 |
|     225 | 0x6EA8      |       28328 |
|     226 | 0x6C73      |       27763 |
|     227 | 0x6D05      |       27909 |
|     228 | 0x6D90      |       28048 |
|     229 | 0x6E1E      |       28190 |
|     230 | 0x6EA9      |       28329 |
|     231 | 0x6C68      |       27752 |
|     232 | 0x6CF7      |       27895 |
|     233 | 0x6D8A      |       28042 |
|     234 | 0x6E16      |       28182 |
|     235 | 0x6EA0      |       28320 |
|     236 | 0x6C69      |       27753 |
|     237 | 0x6CF8      |       27896 |
|     238 | 0x6D8B      |       28043 |
|     239 | 0x6E17      |       28183 |
|     240 | 0x6EA1      |       28321 |
|     241 | 0x6C6A      |       27754 |
|     242 | 0x6CF9      |       27897 |
|     243 | 0x6D8C      |       28044 |
|     244 | 0x6E18      |       28184 |
|     245 | 0x6EA2      |       28322 |
|     246 | 0x6C3F      |       27711 |
|     247 | 0x6CD7      |       27863 |
|     248 | 0x6D6A      |       28010 |
|     249 | 0x6DF8      |       28152 |
|     250 | 0x6E81      |       28289 |
|     251 | 0x6C40      |       27712 |
|     252 | 0x6CD8      |       27864 |
|     253 | 0x6D6B      |       28011 |
|     254 | 0x6DF9      |       28153 |
|     255 | 0x6E82      |       28290 |
|     256 | 0x6C41      |       27713 |
|     257 | 0x6CD9      |       27865 |
|     258 | 0x6D6C      |       28012 |
|     259 | 0x6DFA      |       28154 |
|     260 | 0x6E83      |       28291 |
|     261 | 0x07B2      |        1970 |
|     262 | 0x07B3      |        1971 |
|     263 | 0x07B4      |        1972 |
|     264 | 0x07B5      |        1973 |
|     265 | 0x07B6      |        1974 |
|     266 | 0x07B7      |        1975 |
|     267 | 0x07B8      |        1976 |
|     268 | 0x07B9      |        1977 |
|     269 | 0x07BA      |        1978 |
|     270 | 0x07BB      |        1979 |
|     271 | 0x07BC      |        1980 |
|     272 | 0x07BD      |        1981 |
|     273 | 0x07BE      |        1982 |
|     274 | 0x07BF      |        1983 |
|     275 | 0x07C0      |        1984 |
|     276 | 0x5049      |       20553 |
|     277 | 0x50A1      |       20641 |
|     278 | 0x5106      |       20742 |
|     279 | 0x5133      |       20787 |
|     280 | 0x5161      |       20833 |
|     281 | 0x518D      |       20877 |
|     282 | 0x51BC      |       20924 |
|     283 | 0x51E7      |       20967 |
|     284 | 0x5215      |       21013 |
|     285 | 0x5242      |       21058 |
|     286 | 0x528C      |       21132 |
|     287 | 0x52D8      |       21208 |
|     288 | 0x52D9      |       21209 |
|     289 | 0x52FA      |       21242 |
|     290 | 0x532E      |       21294 |
|     291 | 0x07C1      |        1985 |
|     292 | 0x07C2      |        1986 |
|     293 | 0x07C3      |        1987 |
|     294 | 0x07C4      |        1988 |
|     295 | 0x07C5      |        1989 |
|     296 | 0x07C6      |        1990 |
|     297 | 0x07C7      |        1991 |
|     298 | 0x07C8      |        1992 |
|     299 | 0x07C9      |        1993 |
|     300 | 0x07CA      |        1994 |
|     301 | 0x07CB      |        1995 |
|     302 | 0x07CC      |        1996 |
|     303 | 0x07CD      |        1997 |
|     304 | 0x07CE      |        1998 |
|     305 | 0x07CF      |        1999 |
|     306 | 0x07D1      |        2001 |
|     307 | 0x07D2      |        2002 |
|     308 | 0x07D3      |        2003 |
|     309 | 0x07D4      |        2004 |
|     310 | 0x07D5      |        2005 |
|     311 | 0x07D6      |        2006 |
|     312 | 0x07D7      |        2007 |
|     313 | 0x07D8      |        2008 |
|     314 | 0x07D9      |        2009 |
|     315 | 0x07DA      |        2010 |
|     316 | 0x07DB      |        2011 |
|     317 | 0x07DC      |        2012 |
|     318 | 0x07DD      |        2013 |
|     319 | 0x07DE      |        2014 |
|     320 | 0x07DF      |        2015 |
|     321 | 0x07E0      |        2016 |
|     322 | 0x07E1      |        2017 |
|     323 | 0x07E2      |        2018 |
|     324 | 0x07E3      |        2019 |
|     325 | 0x07E4      |        2020 |
|     326 | 0x07E5      |        2021 |
|     327 | 0x07E6      |        2022 |
|     328 | 0x07E7      |        2023 |
|     329 | 0x07E8      |        2024 |
|     330 | 0x07E9      |        2025 |
|     331 | 0x07EA      |        2026 |
|     332 | 0x07EB      |        2027 |
|     333 | 0x07EC      |        2028 |
|     334 | 0x07ED      |        2029 |
|     335 | 0x001C      |          28 |
|     336 | 0x0022      |          34 |
|     337 | 0x0029      |          41 |
|     338 | 0x0030      |          48 |
|     339 | 0x0041      |          65 |
|     340 | 0x004B      |          75 |
|     341 | 0x0056      |          86 |
|     342 | 0x0062      |          98 |
|     343 | 0x006F      |         111 |
|     344 | 0x007D      |         125 |
|     345 | 0x008D      |         141 |
|     346 | 0x009E      |         158 |
|     347 | 0x00B0      |         176 |
|     348 | 0x00C4      |         196 |
|     349 | 0x00D9      |         217 |
|     350 | 0x00F0      |         240 |
|     351 | 0x0123      |         291 |
|     352 | 0x013E      |         318 |
|     353 | 0x015A      |         346 |
|     354 | 0x0178      |         376 |
|     355 | 0x0197      |         407 |
|     356 | 0x01B8      |         440 |
|     357 | 0x01DB      |         475 |
|     358 | 0x6FF7      |       28663 |
|     359 | 0x6C80      |       27776 |
|     360 | 0x6D0D      |       27917 |
|     361 | 0x6D99      |       28057 |
|     362 | 0x6E26      |       28198 |
|     363 | 0x6EB2      |       28338 |
|     364 | 0x6C81      |       27777 |
|     365 | 0x6D0E      |       27918 |
|     366 | 0x6D9A      |       28058 |
|     367 | 0x6E27      |       28199 |
|     368 | 0x6EB3      |       28339 |
|     369 | 0x6C82      |       27778 |
|     370 | 0x6D0F      |       27919 |
|     371 | 0x6D9B      |       28059 |
|     372 | 0x6E28      |       28200 |
|     373 | 0x6EB4      |       28340 |
|     374 | 0x5045      |       20549 |
|     375 | 0x509D      |       20637 |
|     376 | 0x5103      |       20739 |
|     377 | 0x512A      |       20778 |
|     378 | 0x515C      |       20828 |
|     379 | 0x5189      |       20873 |
|     380 | 0x51B6      |       20918 |
|     381 | 0x51E4      |       20964 |
|     382 | 0x520D      |       21005 |
|     383 | 0x523D      |       21053 |
|     384 | 0x5288      |       21128 |
|     385 | 0x52CE      |       21198 |
|     386 | 0x52CF      |       21199 |
|     387 | 0x52F6      |       21238 |
|     388 | 0x5328      |       21288 |
|     389 | 0x6C4B      |       27723 |
|     390 | 0x6C4C      |       27724 |
|     391 | 0x6C4D      |       27725 |
|     392 | 0x6CDD      |       27869 |
|     393 | 0x6CDE      |       27870 |
|     394 | 0x6CDF      |       27871 |
|     395 | 0x6D6F      |       28015 |
|     396 | 0x6D70      |       28016 |
|     397 | 0x6D71      |       28017 |
|     398 | 0x6DFD      |       28157 |
|     399 | 0x6DFE      |       28158 |
|     400 | 0x6DFF      |       28159 |
|     401 | 0x6E86      |       28294 |
|     402 | 0x6E87      |       28295 |
|     403 | 0x6E88      |       28296 |
|     404 | 0x6FE9      |       28649 |
|     405 | 0x5038      |       20536 |
|     406 | 0x508C      |       20620 |
|     407 | 0x50F2      |       20722 |
|     408 | 0x511B      |       20763 |
|     409 | 0x514D      |       20813 |
|     410 | 0x517E      |       20862 |
|     411 | 0x51AA      |       20906 |
|     412 | 0x51D5      |       20949 |
|     413 | 0x5203      |       20995 |
|     414 | 0x5230      |       21040 |
|     415 | 0x5278      |       21112 |
|     416 | 0x52B9      |       21177 |
|     417 | 0x52BA      |       21178 |
|     418 | 0x52ED      |       21229 |
|     419 | 0x531C      |       21276 |
|     420 | 0x6FA9      |       28585 |
|     421 | 0x6FAA      |       28586 |
|     422 | 0x6FAB      |       28587 |
|     423 | 0x17B1      |        6065 |
|     424 | 0x17B2      |        6066 |
|     425 | 0x6F8B      |       28555 |
|     426 | 0x6F8C      |       28556 |
|     427 | 0x6F8D      |       28557 |
|     428 | 0x6F8E      |       28558 |
|     429 | 0x6F8F      |       28559 |
|     430 | 0x6F90      |       28560 |
|     431 | 0x6F91      |       28561 |
|     432 | 0x4E20      |       20000 |
|     433 | 0x09C4      |        2500 |
|     434 | 0x3A98      |       15000 |
|     435 | 0x0F8E      |        3982 |
|     436 | 0x0F8F      |        3983 |
|     437 | 0x0F94      |        3988 |
|     438 | 0x0F95      |        3989 |
|     439 | 0x0F96      |        3990 |
|     440 | 0x0F97      |        3991 |
|     441 | 0x0F98      |        3992 |
|     442 | 0x0F99      |        3993 |
|     443 | 0x0F9A      |        3994 |
|     444 | 0x0F9B      |        3995 |
|     445 | 0x0F9C      |        3996 |
|     446 | 0x0F9D      |        3997 |
|     447 | 0x0F9E      |        3998 |
|     448 | 0x0F9F      |        3999 |
|     449 | 0x0FA0      |        4000 |
|     450 | 0x0FA1      |        4001 |
|     451 | 0x0FA2      |        4002 |
|     452 | 0x0FA3      |        4003 |
|     453 | 0x0FA4      |        4004 |
|     454 | 0x0FA5      |        4005 |
|     455 | 0x0FA6      |        4006 |
|     456 | 0x0FA7      |        4007 |
|     457 | 0x0FA8      |        4008 |
|     458 | 0x0FA9      |        4009 |
|     459 | 0x0FAA      |        4010 |
|     460 | 0x0FAB      |        4011 |
|     461 | 0x012C      |         300 |
|     462 | 0x01C2      |         450 |
|     463 | 0x1D4C      |        7500 |
|     464 | 0x0384      |         900 |
|     465 | 0x0546      |        1350 |
|     466 | 0x0708      |        1800 |
|     467 | 0x08CA      |        2250 |
|     468 | 0x3200      |       12800 |
|     469 | 0x0258      |         600 |
|     470 | 0x02EE      |         750 |
|     471 | 0xC350      |       50000 |
|     472 | 0x1584      |        5508 |
|     473 | 0x1585      |        5509 |
|     474 | 0x1583      |        5507 |
|     475 | 0x1582      |        5506 |
|     476 | 0x1586      |        5510 |
|     477 | 0x1588      |        5512 |
|     478 | 0x1587      |        5511 |
|     479 | 0x1589      |        5513 |
|     480 | 0x1592      |        5522 |
|     481 | 0x1590      |        5520 |
|     482 | 0x1591      |        5521 |
|     483 | 0x158B      |        5515 |
|     484 | 0x158A      |        5514 |
|     485 | 0x158C      |        5516 |
|     486 | 0x158D      |        5517 |
|     487 | 0x158E      |        5518 |
|     488 | 0x158F      |        5519 |
|     489 | 0x1593      |        5523 |
|     490 | 0x1594      |        5524 |
|     491 | 0x1595      |        5525 |
|     492 | 0x1597      |        5527 |
|     493 | 0x1596      |        5526 |
|     494 | 0x1598      |        5528 |
|     495 | 0x159A      |        5530 |
|     496 | 0x1599      |        5529 |
|     497 | 0x1832      |        6194 |
|     498 | 0x1833      |        6195 |
|     499 | 0x1836      |        6198 |
|     500 | 0x1834      |        6196 |
|     501 | 0x1835      |        6197 |
|     502 | 0x9C40      |       40000 |
|     503 | 0x0F74      |        3956 |
|     504 | 0x0FC3      |        4035 |
|     505 | 0x0F70      |        3952 |
|     506 | 0x0F71      |        3953 |
|     507 | 0x22E2      |        8930 |
|     508 | 0x22E3      |        8931 |
|     509 | 0x22E4      |        8932 |
|     510 | 0x22EB      |        8939 |
|     511 | 0x22EC      |        8940 |
|     512 | 0x22ED      |        8941 |
|     513 | 0x22F4      |        8948 |
|     514 | 0x22F5      |        8949 |
|     515 | 0x22F6      |        8950 |
|     516 | 0x22FD      |        8957 |
|     517 | 0x22FE      |        8958 |
|     518 | 0x22FF      |        8959 |
|     519 | 0x22E5      |        8933 |
|     520 | 0x22E6      |        8934 |
|     521 | 0x22E7      |        8935 |
|     522 | 0x22EE      |        8942 |
|     523 | 0x22EF      |        8943 |
|     524 | 0x22F0      |        8944 |
|     525 | 0x22F7      |        8951 |
|     526 | 0x22F8      |        8952 |
|     527 | 0x22F9      |        8953 |
|     528 | 0x2300      |        8960 |
|     529 | 0x2301      |        8961 |
|     530 | 0x2302      |        8962 |
|     531 | 0x22E8      |        8936 |
|     532 | 0x22E9      |        8937 |
|     533 | 0x22EA      |        8938 |
|     534 | 0x22F1      |        8945 |
|     535 | 0x22F2      |        8946 |
|     536 | 0x22F3      |        8947 |
|     537 | 0x22FA      |        8954 |
|     538 | 0x22FB      |        8955 |
|     539 | 0x22FC      |        8956 |
|     540 | 0x2303      |        8963 |
|     541 | 0x2304      |        8964 |
|     542 | 0x2305      |        8965 |
|     543 | 0x00C8      |         200 |
|     544 | 0x03E8      |        1000 |
|     545 | 0x0190      |         400 |
|     546 | 0x0F86      |        3974 |
|     547 | 0x0F87      |        3975 |
|     548 | 0x0F88      |        3976 |
|     549 | 0x0F8C      |        3980 |
|     550 | 0x0F8D      |        3981 |
|     551 | 0x0F8A      |        3978 |
|     552 | 0x0F8B      |        3979 |
|     553 | 0x0F89      |        3977 |
|     554 | 0x17B4      |        6068 |
|     555 | 0x0FAE      |        4014 |
|     556 | 0x0FAF      |        4015 |
|     557 | 0x0FAC      |        4012 |
|     558 | 0x0FAD      |        4013 |
|     559 | 0x2230      |        8752 |
|     560 | 0x2231      |        8753 |
|     561 | 0x2232      |        8754 |
|     562 | 0x225D      |        8797 |
|     563 | 0x0040      |          64 |
|     564 | 0x0200      |         512 |
|     565 | 0x1000      |        4096 |
|     566 | 0x8000      |       32768 |
|     567 | 0x40000     |      262144 |
|     568 | 0x49248     |      299592 |
|     569 | 0x186A0     |      100000 |
|     570 | 0x493E0     |      300000 |
|     571 | 0x2625A0    |     2500000 |
|     572 | 0x6EF3      |       28403 |
|     573 | 0x6F6B      |       28523 |
|     574 | 0x6F68      |       28520 |
|     575 | 0x6FE2      |       28642 |
|     576 | 0x6FA6      |       28582 |
|     577 | 0x538C      |       21388 |
|     578 | 0x6C7F      |       27775 |
|     579 | 0x6E25      |       28197 |
|     580 | 0x6FA5      |       28581 |
|     581 | 0x6FE1      |       28641 |
|     582 | 0x51E3      |       20963 |
|     583 | 0x515B      |       20827 |
|     584 | 0x51FE      |       20990 |
|     585 | 0x445C      |       17500 |
|     586 | 0x1F40      |        8000 |
|     587 | 0x7530      |       30000 |
|     588 | 0x2710      |       10000 |
|     589 | 0x29810     |      170000 |
|     590 | 0x30D40     |      200000 |
|     591 | 0x6F6D      |       28525 |
|     592 | 0x53B5      |       21429 |
|     593 | 0x6F6A      |       28522 |
|     594 | 0x6EF2      |       28402 |
|     595 | 0x53CF      |       21455 |
|     596 | 0x45F6      |       17910 |
|     597 | 0x533A      |       21306 |
|     598 | 0x6C7E      |       27774 |
|     599 | 0x6EB1      |       28337 |
|     600 | 0x6FA4      |       28580 |
|     601 | 0x6EF1      |       28401 |
|     602 | 0x523C      |       21052 |
|     603 | 0x509C      |       20636 |
|     604 | 0x5308      |       21256 |
|     605 | 0x533B      |       21307 |
|     606 | 0x5359      |       21337 |
|     607 | 0x5349      |       21321 |
|     608 | 0x28488     |      165000 |
|     609 | 0x6F2F      |       28463 |
|     610 | 0x6F69      |       28521 |
|     611 | 0x6F6C      |       28524 |
|     612 | 0x538D      |       21389 |
|     613 | 0x6FE3      |       28643 |
|     614 | 0x6C7D      |       27773 |
|     615 | 0x6D98      |       28056 |
|     616 | 0x6FA3      |       28579 |
|     617 | 0x6F2E      |       28462 |
|     618 | 0x5102      |       20738 |
|     619 | 0x5044      |       20548 |
|     620 | 0x5358      |       21336 |
|     621 | 0x5348      |       21320 |
|     622 | 0x0080      |         128 |
|     623 | 0x0100      |         256 |
|     624 | 0x5380      |       21376 |
|     625 | 0x6F95      |       28565 |
|     626 | 0x6FBD      |       28605 |
|     627 | 0x6EDC      |       28380 |
|     628 | 0x537F      |       21375 |
|     629 | 0x517D      |       20861 |
|     630 | 0x5277      |       21111 |
|     631 | 0x6C49      |       27721 |
|     632 | 0x6D6E      |       28014 |
|     633 | 0x6FBB      |       28603 |
|     634 | 0x537D      |       21373 |
|     635 | 0x0400      |        1024 |
|     636 | 0x0800      |        2048 |
|     637 | 0x124F8     |       75000 |
|     638 | 0x155CC     |       87500 |
|     639 | 0x249F0     |      150000 |
|     640 | 0x445C0     |      280000 |
|     641 | 0x43238     |      275000 |
|     642 | 0x3D090     |      250000 |
|     643 | 0x6F5C      |       28508 |
|     644 | 0x537E      |       21374 |
|     645 | 0x6F24      |       28452 |
|     646 | 0x6F5B      |       28507 |
|     647 | 0x6FBC      |       28604 |
|     648 | 0x511A      |       20762 |
|     649 | 0x514C      |       20812 |
|     650 | 0x51A9      |       20905 |
|     651 | 0x6C48      |       27720 |
|     652 | 0x6E85      |       28293 |
|     653 | 0x6F22      |       28450 |
|     654 | 0x6F5A      |       28506 |
|     655 | 0x2000      |        8192 |
|     656 | 0x4000      |       16384 |
|     657 | 0x6F96      |       28566 |
|     658 | 0x6F25      |       28453 |
|     659 | 0x6EDD      |       28381 |
|     660 | 0x53AE      |       21422 |
|     661 | 0x5381      |       21377 |
|     662 | 0x52B8      |       21176 |
|     663 | 0x52EC      |       21228 |
|     664 | 0x6C4A      |       27722 |
|     665 | 0x6DFC      |       28156 |
|     666 | 0x6F94      |       28564 |
|     667 | 0x6F23      |       28451 |
|     668 | 0x10000     |       65536 |
|     669 | 0x20000     |      131072 |
|     670 | 0x5042      |       20546 |
|     671 | 0x509A      |       20634 |
|     672 | 0x5100      |       20736 |
|     673 | 0x5127      |       20775 |
|     674 | 0x5158      |       20824 |
|     675 | 0x5186      |       20870 |
|     676 | 0x51B3      |       20915 |
|     677 | 0x51E1      |       20961 |
|     678 | 0x520C      |       21004 |
|     679 | 0x523B      |       21051 |
|     680 | 0x5286      |       21126 |
|     681 | 0x52CA      |       21194 |
|     682 | 0x52CB      |       21195 |
|     683 | 0x52F4      |       21236 |
|     684 | 0x5326      |       21286 |
|     685 | 0x07EE      |        2030 |
|     686 | 0x07EF      |        2031 |
|     687 | 0x07F0      |        2032 |
|     688 | 0x07F1      |        2033 |
|     689 | 0x07F2      |        2034 |
|     690 | 0x07F3      |        2035 |
|     691 | 0x07F4      |        2036 |
|     692 | 0x07F5      |        2037 |
|     693 | 0x07F6      |        2038 |
|     694 | 0x07F7      |        2039 |
|     695 | 0x07F8      |        2040 |
|     696 | 0x07F9      |        2041 |
|     697 | 0x07FA      |        2042 |
|     698 | 0x07FB      |        2043 |
|     699 | 0x07FC      |        2044 |
|     700 | 0x07FD      |        2045 |
|     701 | 0x07FE      |        2046 |
|     702 | 0x07FF      |        2047 |
|     703 | 0x0801      |        2049 |
|     704 | 0x0802      |        2050 |
|     705 | 0x0803      |        2051 |
|     706 | 0x0804      |        2052 |
|     707 | 0x0805      |        2053 |
|     708 | 0x0806      |        2054 |
|     709 | 0x0807      |        2055 |
|     710 | 0x0808      |        2056 |
|     711 | 0x0809      |        2057 |
|     712 | 0x080A      |        2058 |
|     713 | 0x080B      |        2059 |
|     714 | 0x080C      |        2060 |
|     715 | 0x080D      |        2061 |
|     716 | 0x080E      |        2062 |
|     717 | 0x080F      |        2063 |
|     718 | 0x0810      |        2064 |
|     719 | 0x0811      |        2065 |
|     720 | 0x0812      |        2066 |
|     721 | 0x0813      |        2067 |
|     722 | 0x0814      |        2068 |
|     723 | 0x0815      |        2069 |
|     724 | 0x0816      |        2070 |
|     725 | 0x0817      |        2071 |
|     726 | 0x0818      |        2072 |
|     727 | 0x0819      |        2073 |
|     728 | 0x081A      |        2074 |
|     729 | 0x6C78      |       27768 |
|     730 | 0x6D08      |       27912 |
|     731 | 0x6D93      |       28051 |
|     732 | 0x6E20      |       28192 |
|     733 | 0x6EAC      |       28332 |
|     734 | 0x6C79      |       27769 |
|     735 | 0x6D09      |       27913 |
|     736 | 0x6D94      |       28052 |
|     737 | 0x6E21      |       28193 |
|     738 | 0x6EAD      |       28333 |
|     739 | 0x6C7A      |       27770 |
|     740 | 0x6D0A      |       27914 |
|     741 | 0x6D95      |       28053 |
|     742 | 0x6E22      |       28194 |
|     743 | 0x6EAE      |       28334 |
|     744 | 0x6C7B      |       27771 |
|     745 | 0x6D0B      |       27915 |
|     746 | 0x6D96      |       28054 |
|     747 | 0x6E23      |       28195 |
|     748 | 0x6EAF      |       28335 |
|     749 | 0x6C7C      |       27772 |
|     750 | 0x6D0C      |       27916 |
|     751 | 0x6D97      |       28055 |
|     752 | 0x6E24      |       28196 |
|     753 | 0x6EB0      |       28336 |
|     754 | 0x6FF6      |       28662 |
|     755 | 0x081B      |        2075 |
|     756 | 0x081C      |        2076 |
|     757 | 0x081D      |        2077 |
|     758 | 0x082F      |        2095 |
|     759 | 0x0830      |        2096 |
|     760 | 0x0831      |        2097 |
|     761 | 0x0832      |        2098 |
|     762 | 0x0833      |        2099 |
|     763 | 0x0834      |        2100 |
|     764 | 0x0835      |        2101 |
|     765 | 0x0836      |        2102 |
|     766 | 0x0837      |        2103 |
|     767 | 0x083B      |        2107 |
|     768 | 0x083C      |        2108 |
|     769 | 0x083D      |        2109 |
|     770 | 0x0841      |        2113 |
|     771 | 0x0842      |        2114 |
|     772 | 0x0843      |        2115 |
|     773 | 0x503B      |       20539 |
|     774 | 0x508F      |       20623 |
|     775 | 0x50F5      |       20725 |
|     776 | 0x511C      |       20764 |
|     777 | 0x5150      |       20816 |
|     778 | 0x517F      |       20863 |
|     779 | 0x51AB      |       20907 |
|     780 | 0x51D8      |       20952 |
|     781 | 0x5204      |       20996 |
|     782 | 0x5233      |       21043 |
|     783 | 0x527B      |       21115 |
|     784 | 0x52BB      |       21179 |
|     785 | 0x52BC      |       21180 |
|     786 | 0x52EE      |       21230 |
|     787 | 0x531F      |       21279 |
|     788 | 0x0847      |        2119 |
|     789 | 0x0848      |        2120 |
|     790 | 0x0849      |        2121 |
|     791 | 0x084A      |        2122 |
|     792 | 0x084B      |        2123 |
|     793 | 0x084C      |        2124 |
|     794 | 0x084D      |        2125 |
|     795 | 0x084E      |        2126 |
|     796 | 0x084F      |        2127 |
|     797 | 0x0850      |        2128 |
|     798 | 0x0851      |        2129 |
|     799 | 0x0852      |        2130 |
|     800 | 0x0853      |        2131 |
|     801 | 0x0854      |        2132 |
|     802 | 0x0855      |        2133 |
|     803 | 0x0856      |        2134 |
|     804 | 0x0857      |        2135 |
|     805 | 0x0858      |        2136 |
|     806 | 0x0859      |        2137 |
|     807 | 0x085A      |        2138 |
|     808 | 0x085B      |        2139 |
|     809 | 0x085C      |        2140 |
|     810 | 0x085D      |        2141 |
|     811 | 0x085E      |        2142 |
|     812 | 0x085F      |        2143 |
|     813 | 0x0860      |        2144 |
|     814 | 0x0861      |        2145 |
|     815 | 0x0862      |        2146 |
|     816 | 0x0863      |        2147 |
|     817 | 0x0864      |        2148 |
|     818 | 0x0865      |        2149 |
|     819 | 0x0866      |        2150 |
|     820 | 0x0867      |        2151 |
|     821 | 0x0868      |        2152 |
|     822 | 0x0869      |        2153 |
|     823 | 0x086A      |        2154 |
|     824 | 0x086B      |        2155 |
|     825 | 0x086C      |        2156 |
|     826 | 0x086D      |        2157 |
|     827 | 0x086E      |        2158 |
|     828 | 0x086F      |        2159 |
|     829 | 0x0870      |        2160 |
|     830 | 0x0871      |        2161 |
|     831 | 0x0872      |        2162 |
|     832 | 0x0873      |        2163 |
|     833 | 0x0FF0      |        4080 |
|     834 | 0x0FF1      |        4081 |
|     835 | 0x0FF2      |        4082 |
|     836 | 0x0FF3      |        4083 |
|     837 | 0x0FF4      |        4084 |
|     838 | 0x0FF5      |        4085 |
|     839 | 0x0FF6      |        4086 |
|     840 | 0x0FF7      |        4087 |
|     841 | 0x0FF8      |        4088 |
|     842 | 0x0FF9      |        4089 |
|     843 | 0x0FFA      |        4090 |
|     844 | 0x0FFB      |        4091 |
|     845 | 0x0FFC      |        4092 |
|     846 | 0x0FFD      |        4093 |
|     847 | 0x0FFE      |        4094 |
|     848 | 0x0FFF      |        4095 |
|     849 | 0x1001      |        4097 |
|     850 | 0x1002      |        4098 |
|     851 | 0x1003      |        4099 |
|     852 | 0x1004      |        4100 |
|     853 | 0x1005      |        4101 |
|     854 | 0x1006      |        4102 |
|     855 | 0x1007      |        4103 |
|     856 | 0x1008      |        4104 |
|     857 | 0x1009      |        4105 |
|     858 | 0x100A      |        4106 |
|     859 | 0x100B      |        4107 |
|     860 | 0x100C      |        4108 |
|     861 | 0x100D      |        4109 |
|     862 | 0x100E      |        4110 |
|     863 | 0x100F      |        4111 |
|     864 | 0x1010      |        4112 |
|     865 | 0x1011      |        4113 |
|     866 | 0x1012      |        4114 |
|     867 | 0x1013      |        4115 |
|     868 | 0x1014      |        4116 |
|     869 | 0x1015      |        4117 |
|     870 | 0x1016      |        4118 |
|     871 | 0x1017      |        4119 |
|     872 | 0x1018      |        4120 |
|     873 | 0x1019      |        4121 |
|     874 | 0x101A      |        4122 |
|     875 | 0x101B      |        4123 |
|     876 | 0x101C      |        4124 |
|     877 | 0x6C50      |       27728 |
|     878 | 0x6CE2      |       27874 |
|     879 | 0x6D72      |       28018 |
|     880 | 0x6E00      |       28160 |
|     881 | 0x6E89      |       28297 |
|     882 | 0x6C51      |       27729 |
|     883 | 0x6CE3      |       27875 |
|     884 | 0x6D73      |       28019 |
|     885 | 0x6E01      |       28161 |
|     886 | 0x6E8A      |       28298 |
|     887 | 0x6C52      |       27730 |
|     888 | 0x6CE4      |       27876 |
|     889 | 0x6D74      |       28020 |
|     890 | 0x6E02      |       28162 |
|     891 | 0x6E8B      |       28299 |
|     892 | 0x6C53      |       27731 |
|     893 | 0x6CE5      |       27877 |
|     894 | 0x6D75      |       28021 |
|     895 | 0x6E03      |       28163 |
|     896 | 0x6E8C      |       28300 |
|     897 | 0x6C54      |       27732 |
|     898 | 0x6CE6      |       27878 |
|     899 | 0x6D76      |       28022 |
|     900 | 0x6E04      |       28164 |
|     901 | 0x6E8D      |       28301 |
|     902 | 0x6FEE      |       28654 |
|     903 | 0x0892      |        2194 |
|     904 | 0x0893      |        2195 |
|     905 | 0x0894      |        2196 |
|     906 | 0x0895      |        2197 |
|     907 | 0x0896      |        2198 |
|     908 | 0x0897      |        2199 |
|     909 | 0x0898      |        2200 |
|     910 | 0x0899      |        2201 |
|     911 | 0x089A      |        2202 |
|     912 | 0x089B      |        2203 |
|     913 | 0x089C      |        2204 |
|     914 | 0x089D      |        2205 |
|     915 | 0x089E      |        2206 |
|     916 | 0x089F      |        2207 |
|     917 | 0x08A0      |        2208 |
|     918 | 0x08A1      |        2209 |
|     919 | 0x08A2      |        2210 |
|     920 | 0x08A3      |        2211 |
|     921 | 0x103B      |        4155 |
|     922 | 0x103C      |        4156 |
|     923 | 0x103D      |        4157 |
|     924 | 0x103E      |        4158 |
|     925 | 0x103F      |        4159 |
|     926 | 0x1040      |        4160 |
|     927 | 0x1041      |        4161 |
|     928 | 0x1042      |        4162 |
|     929 | 0x1043      |        4163 |
|     930 | 0x1044      |        4164 |
|     931 | 0x1045      |        4165 |
|     932 | 0x1046      |        4166 |
|     933 | 0x1047      |        4167 |
|     934 | 0x1048      |        4168 |
|     935 | 0x1049      |        4169 |
|     936 | 0x104A      |        4170 |
|     937 | 0x104B      |        4171 |
|     938 | 0x104C      |        4172 |
|     939 | 0x6BEB      |       27627 |
|     940 | 0x5032      |       20530 |
|     941 | 0x5088      |       20616 |
|     942 | 0x50EE      |       20718 |
|     943 | 0x5117      |       20759 |
|     944 | 0x5149      |       20809 |
|     945 | 0x5179      |       20857 |
|     946 | 0x51A5      |       20901 |
|     947 | 0x51D2      |       20946 |
|     948 | 0x51FD      |       20989 |
|     949 | 0x522D      |       21037 |
|     950 | 0x5271      |       21105 |
|     951 | 0x52B1      |       21169 |
|     952 | 0x52E8      |       21224 |
|     953 | 0x53E4      |       21476 |
|     954 | 0x539C      |       21404 |
|     955 | 0x08AB      |        2219 |
|     956 | 0x08AF      |        2223 |
|     957 | 0x08B4      |        2228 |
|     958 | 0x08B9      |        2233 |
|     959 | 0x08BD      |        2237 |
|     960 | 0x08C2      |        2242 |
|     961 | 0x08C7      |        2247 |
|     962 | 0x08CB      |        2251 |
|     963 | 0x08D0      |        2256 |
|     964 | 0x08D5      |        2261 |
|     965 | 0x08D8      |        2264 |
|     966 | 0x08DD      |        2269 |
|     967 | 0x08E2      |        2274 |
|     968 | 0x08E5      |        2277 |
|     969 | 0x08E8      |        2280 |
|     970 | 0x08EB      |        2283 |
|     971 | 0x08EE      |        2286 |
|     972 | 0x08F1      |        2289 |
|     973 | 0x08F4      |        2292 |
|     974 | 0x08F7      |        2295 |
|     975 | 0x08FB      |        2299 |
|     976 | 0x08FF      |        2303 |
|     977 | 0x0900      |        2304 |
|     978 | 0x0902      |        2306 |
|     979 | 0x0904      |        2308 |
|     980 | 0x0905      |        2309 |
|     981 | 0x0906      |        2310 |
|     982 | 0x0907      |        2311 |
|     983 | 0x0908      |        2312 |
|     984 | 0x0909      |        2313 |
|     985 | 0x090A      |        2314 |
|     986 | 0x090D      |        2317 |
|     987 | 0x0910      |        2320 |
|     988 | 0x0913      |        2323 |
|     989 | 0x0917      |        2327 |
|     990 | 0x091C      |        2332 |
|     991 | 0x0921      |        2337 |
|     992 | 0x0925      |        2341 |
|     993 | 0x092A      |        2346 |
|     994 | 0x092F      |        2351 |
|     995 | 0x0933      |        2355 |
|     996 | 0x0938      |        2360 |
|     997 | 0x093D      |        2365 |
|     998 | 0x0940      |        2368 |
|     999 | 0x0945      |        2373 |
|    1000 | 0x094A      |        2378 |
|    1001 | 0x094C      |        2380 |
|    1002 | 0x094F      |        2383 |
|    1003 | 0x0952      |        2386 |
|    1004 | 0x0954      |        2388 |
|    1005 | 0x0957      |        2391 |
|    1006 | 0x095A      |        2394 |
|    1007 | 0x095C      |        2396 |
|    1008 | 0x095F      |        2399 |
|    1009 | 0x0962      |        2402 |
|    1010 | 0x0964      |        2404 |
|    1011 | 0x0967      |        2407 |
|    1012 | 0x096A      |        2410 |
|    1013 | 0x096C      |        2412 |
|    1014 | 0x096F      |        2415 |
|    1015 | 0x0972      |        2418 |
|    1016 | 0x0974      |        2420 |
|    1017 | 0x0977      |        2423 |
|    1018 | 0x097A      |        2426 |
|    1019 | 0x097C      |        2428 |
|    1020 | 0x097F      |        2431 |
|    1021 | 0x0982      |        2434 |
|    1022 | 0x0984      |        2436 |
|    1023 | 0x0987      |        2439 |
|    1024 | 0x098A      |        2442 |
|    1025 | 0x098C      |        2444 |
|    1026 | 0x098F      |        2447 |
|    1027 | 0x0992      |        2450 |
|    1028 | 0x0994      |        2452 |
|    1029 | 0x0997      |        2455 |
|    1030 | 0x099A      |        2458 |
|    1031 | 0x099C      |        2460 |
|    1032 | 0x099F      |        2463 |
|    1033 | 0x09A2      |        2466 |
|    1034 | 0x09A4      |        2468 |
|    1035 | 0x09A7      |        2471 |
|    1036 | 0x09AA      |        2474 |
|    1037 | 0x09AC      |        2476 |
|    1038 | 0x09AF      |        2479 |
|    1039 | 0x09B2      |        2482 |
|    1040 | 0x09B4      |        2484 |
|    1041 | 0x09B7      |        2487 |
|    1042 | 0x09BA      |        2490 |
|    1043 | 0x09BC      |        2492 |
|    1044 | 0x09BF      |        2495 |
|    1045 | 0x09C7      |        2503 |
|    1046 | 0x09C9      |        2505 |
|    1047 | 0x09CB      |        2507 |
|    1048 | 0x0A17      |        2583 |
|    1049 | 0x0A19      |        2585 |
|    1050 | 0x0A1B      |        2587 |
|    1051 | 0x0A94      |        2708 |
|    1052 | 0x0A96      |        2710 |
|    1053 | 0x0A98      |        2712 |
|    1054 | 0x0AB0      |        2736 |
|    1055 | 0x0AB2      |        2738 |
|    1056 | 0x0AB4      |        2740 |
|    1057 | 0x09CC      |        2508 |
|    1058 | 0x09CE      |        2510 |
|    1059 | 0x09D0      |        2512 |
|    1060 | 0x0A1C      |        2588 |
|    1061 | 0x0A1E      |        2590 |
|    1062 | 0x0A20      |        2592 |
|    1063 | 0x09D1      |        2513 |
|    1064 | 0x09D3      |        2515 |
|    1065 | 0x09D5      |        2517 |
|    1066 | 0x0A21      |        2593 |
|    1067 | 0x0A23      |        2595 |
|    1068 | 0x0A25      |        2597 |
|    1069 | 0x09EA      |        2538 |
|    1070 | 0x09EC      |        2540 |
|    1071 | 0x09EE      |        2542 |
|    1072 | 0x0A3A      |        2618 |
|    1073 | 0x0A3C      |        2620 |
|    1074 | 0x0A3E      |        2622 |
|    1075 | 0x0A9E      |        2718 |
|    1076 | 0x0AA0      |        2720 |
|    1077 | 0x0AA2      |        2722 |
|    1078 | 0x0ABA      |        2746 |
|    1079 | 0x0ABC      |        2748 |
|    1080 | 0x0ABE      |        2750 |
|    1081 | 0x09D6      |        2518 |
|    1082 | 0x09D8      |        2520 |
|    1083 | 0x09DA      |        2522 |
|    1084 | 0x0A26      |        2598 |
|    1085 | 0x0A28      |        2600 |
|    1086 | 0x0A2A      |        2602 |
|    1087 | 0x09EF      |        2543 |
|    1088 | 0x09F1      |        2545 |
|    1089 | 0x09F3      |        2547 |
|    1090 | 0x0A3F      |        2623 |
|    1091 | 0x0A41      |        2625 |
|    1092 | 0x0A43      |        2627 |
|    1093 | 0x09F4      |        2548 |
|    1094 | 0x09F6      |        2550 |
|    1095 | 0x09F8      |        2552 |
|    1096 | 0x0A44      |        2628 |
|    1097 | 0x0A46      |        2630 |
|    1098 | 0x0A48      |        2632 |
|    1099 | 0x09F9      |        2553 |
|    1100 | 0x09FB      |        2555 |
|    1101 | 0x09FD      |        2557 |
|    1102 | 0x0A49      |        2633 |
|    1103 | 0x0A4B      |        2635 |
|    1104 | 0x0A4D      |        2637 |
|    1105 | 0x09DB      |        2523 |
|    1106 | 0x09DD      |        2525 |
|    1107 | 0x09DF      |        2527 |
|    1108 | 0x0A2B      |        2603 |
|    1109 | 0x0A2D      |        2605 |
|    1110 | 0x0A2F      |        2607 |
|    1111 | 0x09FE      |        2558 |
|    1112 | 0x0A00      |        2560 |
|    1113 | 0x0A02      |        2562 |
|    1114 | 0x0A4E      |        2638 |
|    1115 | 0x0A50      |        2640 |
|    1116 | 0x0A52      |        2642 |
|    1117 | 0x09E0      |        2528 |
|    1118 | 0x09E2      |        2530 |
|    1119 | 0x09E4      |        2532 |
|    1120 | 0x0A30      |        2608 |
|    1121 | 0x0A32      |        2610 |
|    1122 | 0x0A34      |        2612 |
|    1123 | 0x0A03      |        2563 |
|    1124 | 0x0A05      |        2565 |
|    1125 | 0x0A07      |        2567 |
|    1126 | 0x0A53      |        2643 |
|    1127 | 0x0A55      |        2645 |
|    1128 | 0x0A57      |        2647 |
|    1129 | 0x0AA6      |        2726 |
|    1130 | 0x0AA8      |        2728 |
|    1131 | 0x0AAA      |        2730 |
|    1132 | 0x0A08      |        2568 |
|    1133 | 0x0A0A      |        2570 |
|    1134 | 0x0A0C      |        2572 |
|    1135 | 0x0A58      |        2648 |
|    1136 | 0x0A5A      |        2650 |
|    1137 | 0x0A5C      |        2652 |
|    1138 | 0x0A0D      |        2573 |
|    1139 | 0x0A0F      |        2575 |
|    1140 | 0x0A11      |        2577 |
|    1141 | 0x0A5D      |        2653 |
|    1142 | 0x0A5F      |        2655 |
|    1143 | 0x0A61      |        2657 |
|    1144 | 0x0AEC      |        2796 |
|    1145 | 0x0AEE      |        2798 |
|    1146 | 0x0AF0      |        2800 |
|    1147 | 0x0AF6      |        2806 |
|    1148 | 0x0AF8      |        2808 |
|    1149 | 0x0AFA      |        2810 |
|    1150 | 0x0B00      |        2816 |
|    1151 | 0x0B02      |        2818 |
|    1152 | 0x0B04      |        2820 |
|    1153 | 0x0B0A      |        2826 |
|    1154 | 0x0B0C      |        2828 |
|    1155 | 0x0B0E      |        2830 |
|    1156 | 0x0AC4      |        2756 |
|    1157 | 0x0AC6      |        2758 |
|    1158 | 0x0AC8      |        2760 |
|    1159 | 0x0ACE      |        2766 |
|    1160 | 0x0AD0      |        2768 |
|    1161 | 0x0AD2      |        2770 |
|    1162 | 0x0AD8      |        2776 |
|    1163 | 0x0ADA      |        2778 |
|    1164 | 0x0ADC      |        2780 |
|    1165 | 0x0AE2      |        2786 |
|    1166 | 0x0AE4      |        2788 |
|    1167 | 0x0AE6      |        2790 |
|    1168 | 0x686D      |       26733 |
|    1169 | 0x690B      |       26891 |
|    1170 | 0x69A5      |       27045 |
|    1171 | 0x6A60      |       27232 |
|    1172 | 0x6B0A      |       27402 |
|    1173 | 0x686E      |       26734 |
|    1174 | 0x690C      |       26892 |
|    1175 | 0x69A6      |       27046 |
|    1176 | 0x6A61      |       27233 |
|    1177 | 0x6B0B      |       27403 |
|    1178 | 0x686F      |       26735 |
|    1179 | 0x690D      |       26893 |
|    1180 | 0x69A7      |       27047 |
|    1181 | 0x6A62      |       27234 |
|    1182 | 0x6B0C      |       27404 |
|    1183 | 0x6870      |       26736 |
|    1184 | 0x690E      |       26894 |
|    1185 | 0x69A8      |       27048 |
|    1186 | 0x6A63      |       27235 |
|    1187 | 0x6B0D      |       27405 |
|    1188 | 0x6871      |       26737 |
|    1189 | 0x690F      |       26895 |
|    1190 | 0x69A9      |       27049 |
|    1191 | 0x6A64      |       27236 |
|    1192 | 0x6B0E      |       27406 |
|    1193 | 0x0B0F      |        2831 |
|    1194 | 0x0B13      |        2835 |
|    1195 | 0x0B18      |        2840 |
|    1196 | 0x0B1A      |        2842 |
|    1197 | 0x0B1E      |        2846 |
|    1198 | 0x0B22      |        2850 |
|    1199 | 0x0B23      |        2851 |
|    1200 | 0x0B27      |        2855 |
|    1201 | 0x0B2B      |        2859 |
|    1202 | 0x0B2C      |        2860 |
|    1203 | 0x0B2F      |        2863 |
|    1204 | 0x0B32      |        2866 |
|    1205 | 0x0B35      |        2869 |
|    1206 | 0x0B39      |        2873 |
|    1207 | 0x0B3E      |        2878 |
|    1208 | 0x0B40      |        2880 |
|    1209 | 0x0B44      |        2884 |
|    1210 | 0x0B49      |        2889 |
|    1211 | 0x0B4B      |        2891 |
|    1212 | 0x0B4F      |        2895 |
|    1213 | 0x0B53      |        2899 |
|    1214 | 0x0B54      |        2900 |
|    1215 | 0x0B57      |        2903 |
|    1216 | 0x0B5A      |        2906 |
|    1217 | 0x0B5D      |        2909 |
|    1218 | 0x0B61      |        2913 |
|    1219 | 0x0B66      |        2918 |
|    1220 | 0x0B68      |        2920 |
|    1221 | 0x0B6C      |        2924 |
|    1222 | 0x0B71      |        2929 |
|    1223 | 0x0B73      |        2931 |
|    1224 | 0x0B77      |        2935 |
|    1225 | 0x0B7C      |        2940 |
|    1226 | 0x0B7E      |        2942 |
|    1227 | 0x0B82      |        2946 |
|    1228 | 0x0B87      |        2951 |
|    1229 | 0x0B89      |        2953 |
|    1230 | 0x0B8D      |        2957 |
|    1231 | 0x0B91      |        2961 |
|    1232 | 0x0B92      |        2962 |
|    1233 | 0x0B96      |        2966 |
|    1234 | 0x0B9B      |        2971 |
|    1235 | 0x0B9D      |        2973 |
|    1236 | 0x0BA1      |        2977 |
|    1237 | 0x0BA5      |        2981 |
|    1238 | 0x0BA6      |        2982 |
|    1239 | 0x0BAA      |        2986 |
|    1240 | 0x0BAE      |        2990 |
|    1241 | 0x0BAF      |        2991 |
|    1242 | 0x0BB3      |        2995 |
|    1243 | 0x0BBA      |        3002 |
|    1244 | 0x0BBD      |        3005 |
|    1245 | 0x0BC0      |        3008 |
|    1246 | 0x0BC3      |        3011 |
|    1247 | 0x0BC6      |        3014 |
|    1248 | 0x0BC9      |        3017 |
|    1249 | 0x0BCC      |        3020 |
|    1250 | 0x0BCF      |        3023 |
|    1251 | 0x0BD2      |        3026 |
|    1252 | 0x0BD5      |        3029 |
|    1253 | 0x0BD8      |        3032 |
|    1254 | 0x0BDB      |        3035 |
|    1255 | 0x0BDE      |        3038 |
|    1256 | 0x0BE1      |        3041 |
|    1257 | 0x0BE4      |        3044 |
|    1258 | 0x0BE7      |        3047 |
|    1259 | 0x0BEA      |        3050 |
|    1260 | 0x0BED      |        3053 |
|    1261 | 0x0BF0      |        3056 |
|    1262 | 0x0BF3      |        3059 |
|    1263 | 0x0BF6      |        3062 |
|    1264 | 0x0BF9      |        3065 |
|    1265 | 0x0BFC      |        3068 |
|    1266 | 0x0BFF      |        3071 |
|    1267 | 0x0C02      |        3074 |
|    1268 | 0x0C05      |        3077 |
|    1269 | 0x0C08      |        3080 |
|    1270 | 0x0C0B      |        3083 |
|    1271 | 0x0C0E      |        3086 |
|    1272 | 0x0C11      |        3089 |
|    1273 | 0x0C14      |        3092 |
|    1274 | 0x0C17      |        3095 |
|    1275 | 0x0C1A      |        3098 |
|    1276 | 0x0C1D      |        3101 |
|    1277 | 0x0C20      |        3104 |
|    1278 | 0x0C23      |        3107 |
|    1279 | 0x0C26      |        3110 |
|    1280 | 0x0C29      |        3113 |
|    1281 | 0x0C2C      |        3116 |
|    1282 | 0x0C2F      |        3119 |
|    1283 | 0x0C32      |        3122 |
|    1284 | 0x0C35      |        3125 |
|    1285 | 0x0C38      |        3128 |
|    1286 | 0x0C3B      |        3131 |
|    1287 | 0x0C3E      |        3134 |
|    1288 | 0x0C41      |        3137 |
|    1289 | 0x0C44      |        3140 |
|    1290 | 0x0C47      |        3143 |
|    1291 | 0x0C4A      |        3146 |
|    1292 | 0x0C4D      |        3149 |
|    1293 | 0x0C50      |        3152 |
|    1294 | 0x0C53      |        3155 |
|    1295 | 0x0C56      |        3158 |
|    1296 | 0x0C59      |        3161 |
|    1297 | 0x0C5C      |        3164 |
|    1298 | 0x0C5F      |        3167 |
|    1299 | 0x0C62      |        3170 |
|    1300 | 0x0C65      |        3173 |
|    1301 | 0x0C68      |        3176 |
|    1302 | 0x0C6B      |        3179 |
|    1303 | 0x0C6E      |        3182 |
|    1304 | 0x0C71      |        3185 |
|    1305 | 0x0C74      |        3188 |
|    1306 | 0x0C77      |        3191 |
|    1307 | 0x0C7A      |        3194 |
|    1308 | 0x0C7D      |        3197 |
|    1309 | 0x0C80      |        3200 |
|    1310 | 0x0C83      |        3203 |
|    1311 | 0x0C86      |        3206 |
|    1312 | 0x0C89      |        3209 |
|    1313 | 0x0C8C      |        3212 |
|    1314 | 0x0C8F      |        3215 |
|    1315 | 0x0C92      |        3218 |
|    1316 | 0x0C95      |        3221 |
|    1317 | 0x0C98      |        3224 |
|    1318 | 0x0C9B      |        3227 |
|    1319 | 0x0C9E      |        3230 |
|    1320 | 0x0CA1      |        3233 |
|    1321 | 0x0CA4      |        3236 |
|    1322 | 0x0CA7      |        3239 |
|    1323 | 0x0CAA      |        3242 |
|    1324 | 0x0CAD      |        3245 |
|    1325 | 0x0CB0      |        3248 |
|    1326 | 0x0CB3      |        3251 |
|    1327 | 0x0CB6      |        3254 |
|    1328 | 0x0CB9      |        3257 |
|    1329 | 0x0CBC      |        3260 |
|    1330 | 0x0CBF      |        3263 |
|    1331 | 0x0CC2      |        3266 |
|    1332 | 0x0CC5      |        3269 |
|    1333 | 0x0CC8      |        3272 |
|    1334 | 0x0CCB      |        3275 |
|    1335 | 0x0CCE      |        3278 |
|    1336 | 0x0CD1      |        3281 |
|    1337 | 0x0CD4      |        3284 |
|    1338 | 0x0CD7      |        3287 |
|    1339 | 0x0CDA      |        3290 |
|    1340 | 0x0CDD      |        3293 |
|    1341 | 0x0CE0      |        3296 |
|    1342 | 0x0CE3      |        3299 |
|    1343 | 0x0CE6      |        3302 |
|    1344 | 0x0CE9      |        3305 |
|    1345 | 0x0CEC      |        3308 |
|    1346 | 0x0CEF      |        3311 |
|    1347 | 0x0CF2      |        3314 |
|    1348 | 0x0028      |          40 |
|    1349 | 0x0023      |          35 |
|    1350 | 0x002A      |          42 |
|    1351 | 0x0031      |          49 |
|    1352 | 0x003F      |          63 |
|    1353 | 0x0046      |          70 |
|    1354 | 0x004D      |          77 |
|    1355 | 0x0054      |          84 |
|    1356 | 0x005B      |          91 |
|    1357 | 0x0069      |         105 |
|    1358 | 0x0070      |         112 |
|    1359 | 0x0077      |         119 |
|    1360 | 0x007E      |         126 |
|    1361 | 0x0085      |         133 |
|    1362 | 0x008C      |         140 |
|    1363 | 0x0093      |         147 |
|    1364 | 0x009A      |         154 |
|    1365 | 0x00A1      |         161 |
|    1366 | 0x00A8      |         168 |
|    1367 | 0x00AF      |         175 |
|    1368 | 0x00B6      |         182 |
|    1369 | 0x00BD      |         189 |
|    1370 | 0x00CB      |         203 |
|    1371 | 0x00D2      |         210 |
|    1372 | 0x00E0      |         224 |
|    1373 | 0x00E7      |         231 |
|    1374 | 0x00EE      |         238 |
|    1375 | 0x00F5      |         245 |
|    1376 | 0x00FC      |         252 |
|    1377 | 0x0103      |         259 |
|    1378 | 0x0111      |         273 |
|    1379 | 0x0118      |         280 |
|    1380 | 0x011F      |         287 |
|    1381 | 0x0126      |         294 |
|    1382 | 0x012D      |         301 |
|    1383 | 0x0134      |         308 |
|    1384 | 0x6FC9      |       28617 |
|    1385 | 0x6FCA      |       28618 |
|    1386 | 0x6FCB      |       28619 |
|    1387 | 0x6FCC      |       28620 |
|    1388 | 0x6FCD      |       28621 |
|    1389 | 0x6FCE      |       28622 |
|    1390 | 0x6FCF      |       28623 |
|    1391 | 0x6FD0      |       28624 |
|    1392 | 0x6FD1      |       28625 |
|    1393 | 0x6FD2      |       28626 |
|    1394 | 0x6FD3      |       28627 |
|    1395 | 0x6FD4      |       28628 |
|    1396 | 0x6FD5      |       28629 |
|    1397 | 0x6FD6      |       28630 |
|    1398 | 0x6FD7      |       28631 |
|    1399 | 0x6FD8      |       28632 |
|    1400 | 0x6FD9      |       28633 |
|    1401 | 0x6FDA      |       28634 |
|    1402 | 0x6FDB      |       28635 |
|    1403 | 0x6FDC      |       28636 |
|    1404 | 0x6FDD      |       28637 |
|    1405 | 0x6FDE      |       28638 |
|    1406 | 0x2359      |        9049 |
|    1407 | 0x0A79      |        2681 |
|    1408 | 0x0A7A      |        2682 |
|    1409 | 0x0A7B      |        2683 |
|    1410 | 0x0A7C      |        2684 |
|    1411 | 0x0A7D      |        2685 |
|    1412 | 0x0A7E      |        2686 |
|    1413 | 0x0A7F      |        2687 |
|    1414 | 0x0A80      |        2688 |
|    1415 | 0x0A81      |        2689 |
|    1416 | 0x0A82      |        2690 |
|    1417 | 0x0A83      |        2691 |
|    1418 | 0x0A84      |        2692 |
|    1419 | 0x0A85      |        2693 |
|    1420 | 0x0A86      |        2694 |
|    1421 | 0x0A87      |        2695 |
|    1422 | 0x0A88      |        2696 |
|    1423 | 0x0A89      |        2697 |
|    1424 | 0x0A8A      |        2698 |
|    1425 | 0x0A8B      |        2699 |
|    1426 | 0x0A8C      |        2700 |
|    1427 | 0x0A8D      |        2701 |
|    1428 | 0x0A8E      |        2702 |
|    1429 | 0x3047      |       12359 |
|    1430 | 0x3048      |       12360 |
|    1431 | 0x0044      |          68 |

## String References

- **12025**: Which do you desire? (Bayld: $0) [None./$1. ($17 bayld)/$2. ($18 bayld)/$3. ($19 bayld)/$4. ($20 bayld)/$5. ($21 bayld)/$6. ($22 bayld)/$7. ($23 bayld)/$8. ($24 bayld)/$9. ($25 bayld)/$10. ($26 bayld)/$11. ($27 bayld)/$12. ($28 bayld)/$13. ($29 bayld)/$14. ($30 bayld)/$15. ($31 bayld)/$16. ($ bayld)/Previous page./Next page.]
- **12029**: Which do you desire? ([Obs. Frag./Corpuscles/MUM Medals]: $0) [None./$1. ($17 [fragments/cor./medals])/$2. ($18 [fragments/cor./medals])/$3. ($19 [fragments/cor./medals])/$4. ($20 [fragments/cor./medals])/$5. ($21 [fragments/cor./medals])/$6. ($22 [fragments/cor./medals])/$7. ($23 [fragments/cor./medals])/$8. ($24 [fragments/cor./medals])/$9. ($25 [fragments/cor./medals])/$10. ($26 [fragments/cor./medals])/$11. ($27 [fragments/cor./medals])/$12. ($28 [fragments/cor./medals])/$13. ($29 [fragments/cor./medals])/$14. ($30 [fragments/cor./medals])/$15. ($31 [fragments/cor./medals])/$16. ($ [fragments/cor./medals])/Previous page./Next page.]
- **12030**: $1 can be purchased for $2 bayld.
- **12032**: Proceed with the exchange? (Bayld: $0) [Yes./No.]
- **12035**: $1 can be redeemed for $2 [fragment/mweya plasm corpuscle/medal][/s].
- **12036**: Proceed with the exchange? [Yes./No.]
- **12037**: What will you do? ("[Bayld/Obs. Frag./Corpuscles]: $0) [Nothing./[Proceed with the exchange/Learn about augmentation/Proceed with the exchange/Proceed with the exchange]./[@/Check augmentable equipment/@/@]./[@/Check arcane glyptic materials/@/@]./Ask about [ergon tinctures/arcane glyptics/obsidian fragments/mweya plasm].]
- **12056**: Ugtoor of the Inventors' Coalition, at your service. I provide...goods of the guild, so to speak.
- **12057**: Got bayld? Then I'd be happy to hand over some of the finest Inventors' Coalition creations you'll ever see!
- **12058**: I am more than willing to supply you with a diverse selection of Inventors' Coalition sundries, but only if you possess an adequate amount of bayld.
- **12059**: You too can have some of the Inventors' Coalition's highly coveted ergon tinctures in exchange for a tiny pinch of bayld!
- **12060**: You already know of the ergon loci--locations from which inexplicable powers emanate--don't you?
- **12061**: While we may have yet to fully understand them, we have succeeded in bottling their essence! As a nod to this elixir's source, we call it "ergon tincture."
- **12062**: Visitaru me any time you'd like to use my arcane glyptic power-wowers to augment your "Traditional Armor"...if you've got some coalition grease laying around.
- **12063**: What're arcane glyptics? They closely resemble what you Middle Landers call augments, but there are some slight differences.
- **12064**: Bayld or obsidian fragments for special arcane glyptics here, plain and simple-wimple. What isn't so simple, though, is that I'm only interestaru'd in weaponry from worlds beyond our own. Also, I'm particular-wicularly fond of ghastly stones.
- **12065**: Do you wish to have the equipment you wrested from the clutches of the continent's menaces bestowed with certain arcane glyptics? If not, your soul will forever be consumed with regret.
- **12066**: Take what you want and get out of my face...but not before paying with some obsidian fragments.
- **12067**: Obsidian fragments are rare things. You can only get them by pioneering.
- **12068**: Their most obvious use is for redeeming things, but we're trying to research new uses for them. Now hurry up and get your shopping done.
- **12069**: <Sigh> We've been ordered to accept your old $0 in exchange for $1.
- **12070**: I have to give you $3 $0$0 for every $2 $0 .
- **12071**: A very simple process. As I like to say, "Wham, bam, and now scram."
- **12072**: We've also started some nonsense about trading stones for obsidian fragments.
- **12073**: I would say I'm pleased to tell you the exchange rate for [obsidian fragments/mweya plasm corpuscles/mummers' medals], but I'm really not.
- **12074**: Obsidian fragment exchange rate: $7 fragment[/s] for $4 $0$0 . $8 fragment[/s] for $5 $0 . $9 fragment[/s] for $6 $0$3 .
- **12075**: Just trade me the stones you want to exchange when you feel like it. Don't expect any niceties from me, though.
- **12076**: You want to trade in $0? Get on with it, then.
- **12077**: Trade $2 $0 ? [No thanks./Trade for $4 [obsidian fragments/mweya plasm corpuscles/mummers' medals]./Exchange for $3 $1.]
- **12078**: Proceed with the exchange? [Yes, please./I need some time to think.]
- **12081**: I'm currently obligated to tell you that we are now able to take your old stones used in skirmishes and give you new ones.
- **12082**: From what I remember, the rate is something like $3 $0$0 for every $2 $0 and...
- **12083**: ...$3 $0$0 for every $2 $0 .
- **12084**: Got more mweya plasm than you know what to do with? Trade it in for some of my finestaru goods!
- **12085**: Mweya plasm corpuscles are crystallizations of an enigmatic substance that can only be obtained by colonizing the Ulbukan jungle-wungle.
- **12086**: We're trying to develop-welop new materials from them, but we've yet to meetaru with any success.
- **12100**: You do not have enough [obsidian fragments/mweya plasm corpuscles/mummers' medals]!
- **12108**: [Arcane glyptics/Arcane glyptic enhancement] for your $2 as long as you have $1 bayld on hand!
- **12110**: The [current/post-engravement/post-enhancement/post-transmutation] attributes for $2 are as follows:
- **12112**: Are you sure you want to [keep the current attributes of/engrave new attributes upon] your $2?
- **12113**: How do you feel about these attributes? [I heartily enjoy them./I despise them and want new ones.]
- **12114**: Very well. I shall mezzotint your $2 for a modest fee of $1 bayld.
- **12222**: Should you seek salvation by enhancing your equipment through arcane glyptics, simply bequeath the requisite materials and equipment to me and I shall work my magic.
- **12223**: No ordinary beings can perform the feats I accomplish even before breakfast, so there will of course be a slight charge for my services...$1 bayld, to be exact.
- **12228**: The following pieces of equipment can be #[engraved with arcane glyptics/transmuted].
- **12229**: Which are you interested in? [None whatsoever./$1./$2./$3./$4./$5./$6./$7./$8./$9./$10./$11./$12./$13./$14./$15./$16./Previous page./Next page.]
- **12230**: The following materials must be procured to #[engrave equipment with arcane glyptics/perform transmutation].
- **12231**: $33 can be augmented with the ""[HP+/HP+ and MP+/MP+]" arcane glyptic.
- **12232**: $33 can be augmented with the ""[DMG+, STR+, and DEX+/DMG+, INT+, MND+, and Magic Atk. Bonus/DMG+, INT+, MND+, and Avatar: Magic Atk. Bonus/DMG+, STR+, and AGI+]" arcane glyptics.
- **12233**: $33 can be augmented with the ""[DMG+, STR+, DEX+, AGI+, VIT+/DMG+, INT+, MND+, CHR+/DMG+, INT+, MND+, CHR+/DMG+, STR+, DEX+, AGI+, VIT+]...
- **12234**: "[Double Attack/Fast Cast/Pet: Attack/Recycle], "[Increases rate of critical hits, and Magic Def. Bonus/Bonus damage added to magic burst, and Enmity-/Pet: Accuracy, and Avatar perpetuation cost/Snapshot, and Enmity-]" arcane glyptics.
- **12235**: $33 can be augmented with the ""[Physical damage taken-, HP+, MP+/Physical damage taken-, Attack+, Accuracy+/Physical damage taken-, Attack+, Accuracy+/Physical damage taken-, Attack+, Accuracy+/Physical damage taken-, Cure casting time-/Physical damage taken-, Magic Atk. Bonus, Magic Accuracy+], "[Spell interruption rate down/Increases rate of critical hits, Magic Def. Bonus/Increases rate of critical hits, Magic Def. Bonus/Increases rate of critical hits, Magic Def. Bonus/Song casting time-, Song recast time/Pet: Attack, Pet: Accuracy, Avatar perpetuation cost]...
- **12236**: ...and "[Shield Mastery/Double Attack/Double Attack/Double Attack/Cure potency/Enmity-]" arcane glyptics.
- **12237**: ...and "[Shield Mastery/Double Attack/Double Attack/Double Attack/Cure potency/Fast Cast]"[///, Enmity-, Ranged Attack, Ranged Accuracy//, Enmity-, Bonus damage added to magic burst]"[///, Recycle, and Snapshot//, Pet: Magic Atk. Bonus, and Pet: Magic Accuracy]" arcane glyptics.
- **12238**: ..."[Double Attack/Fast Cast/Pet: Attack/Recycle], "[Increases rate of critical hits, Magic Def. Bonus/Bonus damage added to magic burst, Enmity-/Pet: Accuracy, Avatar perpetuation cost/Snapshot, Enmity-], Weapon skill accuracy, #[Subtle Blow/Waltz potency/Physical damage taken-/Store TP/Charm/Physical damage taken-/Souleater/Pet: Physical damage taken-/Ninjutsu Skill/Store TP/MP recovered while healing/Magic critical hit rate/MP recovered while healing/Critical Hit Rate/Critical Hit Rate]...
- **12239**: ...#[Pet: Damage taken-/Subtle Blow/Fast Cast/Stun/Enmity-/Haste/Enmity-/Increases critical hit damage/Evasion/Ranged Accuracy/Enmity-/Conserve MP/Summoning magic skill/Store TP/Store TP], and #[Weapon skill damage/Weapon skill damage/Weapon skill damage/Weapon skill damage/Weapon skill damage/Weapon skill damage/Weapon skill damage/Weapon skill damage/Weapon skill damage/Weapon skill damage/Weapon skill damage/Elemental magic skill/Pet: Damage taken-/Weapon skill damage/Weapon skill damage]" arcane glyptics.
- **12240**: ..."[Shield Mastery/Double Attack/Double Attack/Double Attack/Cure potency/Enmity-], and "[Magic damage taken-/Magic damage taken-/Magic damage taken-/Magic damage taken-/Magic damage taken-/Magic damage taken-]" arcane glyptics.
- **12241**: ...and "[Shield Mastery/Double Attack/Double Attack/Double Attack/Cure potency/Fast Cast]"[///, Enmity-, Ranged Attack, Ranged Accuracy//Enmity-, Bonus damage added to magic burst]"[///, Recycle, Snapshot//, Pet: Magic Atk. Bonus, Pet: Magic Accuracy]"[///, and Magic damage taken-//, and Magic damage taken-]" arcane glyptics.
- **12242**: $33.
- **12243**: What shall you do? (Bayld: $0) [Not a thing./Mezzotint equipment./Check materials required./Inquire about arcane glyptics.]
- **12244**: Arcane glyptics are truly astounding engravings--they can be used to enhance a cornucopia of equipment you find during your pioneering journeys! However, they cannot work their magic until the article in question undergoes a priming process called "mezzotinting."
- **12245**: There are three glyptic paths down which you may send your equipment. All of them differ in significant ways and will not fail to treat your beloved accouterments right.
- **12246**: Moreover, your inanimate comrades in combat can be further enhanced by employing materials such as $3 during glyptic engraving.
- **12247**: I must warn you, however, that the process is not instantaneous. We will need to engrave your articles multiple times before any glyptics take effect.
- **12248**: Think of it like your pioneering activities. Ulbuka cannot be colonized in a day, nor can we improve your equipment in one try if we want to do a satisfactory job. In addition, your equipment may undergo mezzotinting any time you wish to set it down a new path to clearing the continent of danger. Simply ask and you shall receive.
- **12249**: Lest I forget, I should also mention that a fee of $1 bayld is required for the first mezzotinting, while $2 is the price for subsequent ones and enhancement via materials.
- **12250**: Your $33 has already been engraved with an arcane glyptic, the benefits of which will be lost upon mezzotinting. Do you still wish to proceed?
- **12251**: Proceed with mezzotinting? [Yes, scrape all the excess benefits away!/No, I love my little precious too much!]
- **12252**: Which type of glyptics shall you engrave?
- **12253**: Which type do you want engraved? [None./Arcane Glyptic Type A./Arcane Glyptic Type B./Arcane Glyptic Type C.]
- **12254**: Do you wish to mezzotint your weapon so that it is primed to receive the aforementioned attribute enhancements?
- **12256**: Here is your $33.
- **12258**: What area is your equipment from? [Nowhere, now begone./$8./$8./$8./$8./$8./$8.]
- **12259**: This $33 looks as if it can be engraved with a peculiar sort of arcane glyptic. It may behoove you to show this to the person in charge of such procedures.
- **12260**: Take a gander at what? [Nothing./Equipment./Materials.]
- **12263**: How many do you wish to receive? [None./$1./$2./$3./$4./$5./$6./$7./$8./$9./$10./$11./$12.]
- **12264**: You wish to purchase $3 $0$0 ? Then I shall require $2 [fragment/mweya plasm corpuscle/medal/bayld clump][/s].
- **12270**: For a tiny bit of bayld or a smidgen of obsidian fragments, I can transmutaru your equipment or engrave it with arcane glyptic-wyptics.
- **12271**: What will you do? ("[Bayld/Obs. Frag./Mweya Plasm]: $0) [Nothing./[Proceed with the exchange/Learn about augmentation/Proceed with the exchange/Proceed with the exchange]./[@/Check augmentable equipment/@/@]./[@/Check arcane glyptic materials/@/@]./Ask about [ergon tinctures/arcane glyptics/obsidian fragments/mweya plasm]./[@/Learn about transmuting equipment/@/@]./[@/Check transmutable equipment/@/@]./[@/Check transmutation materials/@/@]./Learn about [@/transmutation in general/stone exchange services/@]./[@/Ask about stored materials/@]./[@/Have stored materials returned/@].]
- **12272**: If you ever-wever want to transmute equipment, just trade me the appropriataru piece and nothing more while in possession of $6.
- **12273**: Now, I'm an honestaru businessman. I'll tell you in advance that I require a fee of $1 bayld for my service.
- **12274**: Transmutation is a process resembling-wembling the synthesis of high-quality equipment.
- **12275**: The process is shrouded-wouded in mystery, and we aren't about to give away our secrets. I will, however, impartaru to you that we employ $5 to work our magic.
- **12276**: As a note of warning, transmuting equipment rubs out any arcane glyptics you have currentaruly engraved. Sorry, but dem's da breaks.
- **12277**: The following must be procured to engrave arcane glyptics on $33.
- **12279**: $3.
- **12280**: I will need-weed $1 bayld to transmute this $2.
- **12281**: Begin your journey down the wonderful road of transmutation-wation!
- **12282**: What shall you do? [Check current attributes./Check post-transmutation attributes./Transmute the equipment./Nothing.]
- **12283**: Transmute the piece of equipment? [Yes./No.]
- **12284**: End transmutation? [Yes./No.]
- **12285**: Just so you know, I don't transmutaru anything for people who aren't in possession of either $6 or $6.
- **12286**: If you do have one, though, you need only trade-wade me the equipmentaru in question.
- **12287**: The whole process-wocess is easier than making trail cookies! We take $5 or $5 and...
- **12288**: ...Use our magical inventors' powers to transmute the articles you give us! What, you thoughtaru we'd just give away our closely guarded secret to possible competition?
- **12320**: There's a veritable cornucopia-wopia of arcane glyptics I can engrave upon your $33, but their effects tend to differ depending on the materials used.
- **12321**: Got $1 obsidian fragment[/s] on your hands? Then I can engrave your $2 with some astounding arcane glyptic-wyptics!
- **12322**: Ah, but certain pieces of equipmentaru will require a little more tender loving care...along with $1 obsidian fragment[/s] to compensate.
- **12323**: Have you ever feltaru that those special stones from skirmishes you've been lugging around in your bags have been cramping your style? Well, you're in luck! I've started-warted a storage service to meet the needs of the times.
- **12324**: So you want me to hold some $0 for you? Let me have a look... This makes for a total of $1 I have stored for you.
- **12326**: I'll happily store skirmish stones for you. Just trade-wade them to me one type at a time.
- **12327**: I'm able to save up the following material-werials.
- **12328**: You've currently entrustarued me with the following items.
- **12329**: Have which item returned? [None of the above./$1./$2./$3./$4./$5./$6./$7./$8./$9./$10./$11./$12./$13./$14./$15./$16./Previous page./Next page.]
- **12330**: My records indicataru that I'm holding $" of that type for you. How many would you like?
- **12331**: $!? I'll get them for you right away.
- **12332**: Not interested-winterested? Never fear, I'll still be here should you require me to return them.
- **12333**: Don't try to pull a fastaru one on me! I'm not holding that many $33 for you! Only $"!
- **12335**: Up for bashing some skulls? Well, you're in luck, because I can engrave your $33 with bonuses to strength, dexterity, accuracy, and critical hit damage.
- **12336**: Fists of Fury not quite furious enough? Then take a look at what bonuses I can engrave on your $33: strength, dexterity, Counter, and Subtle Blow.
- **12337**: Topping up your comrades more your style? Then you'll probably want your $33 engraved with bonuses to magic accuracy, healing magic skill, enhancing magic skill, and Cure potency.
- **12338**: If you're into blasting your enemies with magic, then you'll probably want me to engrave your $33 with enhancements to Magic Attack Bonus, Fast Cast, elemental magic skill, and dark magic skill.
- **12339**: The discerning red mage will surely prefer their $33 engraved with bonuses to magic accuracy, enfeebling magic skill, enhancing magic skill, and enhancing magic duration.
- **12340**: The more unscrupulous gil-nabbers will appreciate $33 engraved with dexterity, agility, Dual Wield, and critical hit damage.
- **12341**: If your calling is to protect your allies, you'll want your $33 engraved with bonuses to dexterity, vitality, enmity, and Phalanx.
- **12342**: The darkest among the dark will certainly desire $33 engraved with bonuses to attack, dark magic skill, weapon skill damage, and Drain and Aspir potency.
- **12343**: Help your favorite companion become better than ever before with $33 engraved with enhancements to strength, dexterity, accuracy, pet damage resistance, and pet accuracy.
- **12344**: Be safer than ever when supporting your allies with $33 engraved with HP, magic accuracy, decreased enmity, and decreased damage taken.
- **12345**: Let your shots ring true with $33 engraved with strength, agility, Store TP, and Snapshot.
- **12346**: Slice through your foes after you get your $33 engraved with strength, Store TP, Zanshin, and Meditate duration.
- **12347**: Strike at your enemies from the shadows with $33 engraved with strength, dexterity, skillchain damage, and weapon skill damage.
- **12348**: Leap to even greater heights when your $33 is engraved with enhancements to strength, weapon skill damage, wyvern damage resistance, and wyvern breath potency.
- **12349**: Need a stronger avatar? Then you'll surely appreciate $33 engraved with bonuses to summoning magic skill and Blood Pact damage, decreased Blood Pact recast time II, and increased avatar enmity.
- **12350**: Feeling a little blue? Don't, because I can engrave your $33 with MP, dexterity, accuracy, and blue magic skill.
- **12351**: Get ready to roll the dice with $33 engraved with Magic Attack Bonus, decreased Phantom Roll recast delay, decreased enmity, and weapon skill damage.
- **12352**: Pull some strings once you get your $33 engraved with bonuses to strength, dexterity, Martial Arts, and a TP bonus for your automaton.
- **12353**: Twist, twirl and sashay your way to victory with $33 engraved with bonuses to Store TP, Dual Wield, Reverse Flourish, and weapon skill damage.
- **12354**: Put your book knowledge into practice with $33 engraved with bonuses to intelligence, mind, helix duration, and Regen potency.
- **12355**: Why are you looking so indi-gnant? Get your $33 engraved with enhancements to geomancy skill, indicolure duration, damage resistance, and luopan damage resistance today!
- **12356**: Make the elements bow to your will with $33 engraved with bonuses to Double Attack, enmity generation, Embolden, and damage resistance.
- **12357**: How many would you like?
- **12358**: How many? ($0 [obsidian fragments/mweya plasm corpuscles/Mummers' medals]) [Exchange. ($1 [obsidian fragments/mweya plasm corpuscles/Mummers' medals] needed)/Let me think some more.]
- **12359**: Excuse me, but I do not believe you have $6, do you?
- **12360**: Oh, that's too bad, because we would love for you to help us with the colonization effort. If you are willing, then by all means, speak with Brenton so he can outfit you with one.

## Events

### Event 65535

#### Metadata

| Field        | Value   |
|--------------|---------|
| Entrypoint   | 0x0000  |
| Data Size    | 1 bytes |
| Instructions | 1       |

```
      00 01 02 03 04 05 06 07  08 09 0A 0B 0C 0D 0E 0F
      -- -- -- -- -- -- -- --  -- -- -- -- -- -- -- --
0000: 00                                                .               
```

#### Opcodes

```
  0: 0x0000 [0x00] END_REQSTACK()
```

### Event 7595

#### Metadata

| Field        | Value    |
|--------------|----------|
| Entrypoint   | 0x0001   |
| Data Size    | 13 bytes |
| Instructions | 5        |

```
      00 01 02 03 04 05 06 07  08 09 0A 0B 0C 0D 0E 0F
      -- -- -- -- -- -- -- --  -- -- -- -- -- -- -- --
0000:    06 44 00 03 45 00 00  80 1A BA 6E 21 00         .D..E.....n!.  
```

#### Opcodes

```
  0: 0x0001 [0x06] ExtData[1]->WorkLocal[68] = 0
  1: 0x0004 [0x03] ExtData[1]->WorkLocal[69] = 2*
  2: 0x0009 [0x1A] CALL_SUBROUTINE(address=0x6EBA)
  3: 0x000C [0x21] END_EVENT
  4: 0x000D [0x00] END_REQSTACK()
```

### Event 7543

#### Metadata

| Field        | Value       |
|--------------|-------------|
| Entrypoint   | 0x000E      |
| Data Size    | 28790 bytes |
| Instructions | 211         |

```
      00 01 02 03 04 05 06 07  08 09 0A 0B 0C 0D 0E 0F
      -- -- -- -- -- -- -- --  -- -- -- -- -- -- -- --
0000:                                            1A 09                ..
0010: 09 21 00 1E F0 FF FF 7F  1A 72 58 03 0C 00 03 10  .!.......rX.....
0020: 03 0D 00 04 10 03 0E 00  05 10 41 01 80 02 80 0D  ..........A.....
0030: 00 11 00 41 01 80 03 80  0C 00 12 00 1D 04 80 23  ...A...........#
0040: 06 03 00 02 03 00 01 80  00 53 01 1A 54 01 1A 89  .........S..T...
0050: 02 03 02 10 0E 00 24 05  80 08 00 00 00 25 02 00  ......$......%..
0060: 10 01 80 00 71 00 03 01  10 06 80 05 03 00 01 95  ....q...........
0070: 00 02 00 10 07 80 00 87  00 02 1E 00 01 80 02 84  ................
0080: 00 0C 1E 00 01 95 00 02  00 10 08 80 00 95 00 0B  ................
0090: 1E 00 01 95 00 03 08 00  00 10 02 08 00 07 80 80  ................
00A0: A8 00 06 08 00 01 B6 00  02 08 00 08 80 80 B6 00  ................
00B0: 06 08 00 01 B6 00 02 08  00 01 80 01 50 01 06 15  ............P...
00C0: 00 03 15 00 1E 00 14 15  00 09 80 07 15 00 08 00  ................
00D0: 0C 15 00 9D 00 BA 59 03  10 15 00 9D 00 DA 59 04  ......Y.......Y.
00E0: 10 15 00 9D 00 CA 59 18  00 15 00 06 21 00 02 18  ......Y.....!...
00F0: 00 01 80 00 FC 00 05 21  00 01 0E 01 0C 18 00 3E  .......!.......>
0100: 11 00 18 00 09 01 01 0E  01 14 04 10 03 80 93 03  ................
0110: 10 1D 0A 80 23 93 01 80  03 02 10 0E 00 24 0B 80  ....#........$..
0120: 0C 80 01 80 25 02 00 10  01 80 00 45 01 05 03 00  ....%......E....
0130: 40 01 80 0D 80 01 10 0C  80 40 0E 80 0F 80 01 10  @........@......
0140: 15 00 01 50 01 02 00 10  0C 80 00 50 01 01 50 01  ...P.......P..P.
0150: 01 43 00 1B 1A A0 58 06  1A 00 06 18 00 06 1D 00  .C....X.........
0160: 06 20 00 06 1B 00 03 20  00 1E 00 0B 20 00 14 20  . ..... .... .. 
0170: 00 09 80 02 20 00 00 80  04 85 01 3F 20 00 00 80  .... ......? ...
0180: 09 80 01 8A 01 03 20 00  09 80 02 1A 00 20 00 03  ...... ...... ..
0190: FC 01 03 1B 00 1E 00 14  1B 00 09 80 07 1B 00 1A  ................
01A0: 00 9D 00 CA 59 18 00 1B  00 06 21 00 02 18 00 01  ....Y.....!.....
01B0: 80 00 BA 01 05 21 00 01  DB 01 0C 18 00 3E 11 00  .....!.......>..
01C0: 18 00 CA 01 05 21 00 01  DB 01 07 18 00 0E 80 3E  .....!.........>
01D0: 11 00 18 00 DB 01 03 21  00 00 80 02 21 00 01 80  .......!....!...
01E0: 02 F6 01 9D 00 BA 59 1C  00 1B 00 9D 05 BA 58 1C  ......Y.......X.
01F0: 00 1A 00 01 F6 01 0B 1A  00 01 8A 01 06 1A 00 02  ................
0200: 1A 00 00 80 03 88 02 9D  00 CA 59 18 00 1A 00 06  ..........Y.....
0210: 21 00 02 18 00 01 80 00  20 02 05 21 00 01 41 02  !....... ..!..A.
0220: 0C 18 00 3E 11 00 18 00  30 02 05 21 00 01 41 02  ...>....0..!..A.
0230: 07 18 00 0E 80 3E 11 00  18 00 41 02 03 21 00 00  .....>....A..!..
0240: 80 02 21 00 01 80 02 82  02 03 1B 00 1E 00 14 1B  ..!.............
0250: 00 09 80 07 1B 00 1A 00  03 1D 00 1A 00 07 1D 00  ................
0260: 09 80 9D 00 DA 59 1C 00  1B 00 02 21 00 00 80 00  .....Y.....!....
0270: 77 02 14 1C 00 03 80 9D  05 BA 58 1C 00 1D 00 01  w.........X.....
0280: 82 02 0B 1A 00 01 FF 01  1B 06 1A 00 06 00 00 06  ................
0290: 20 00 06 1B 00 03 20 00  1E 00 0B 20 00 14 20 00   ..... .... .. .
02A0: 09 80 02 20 00 00 80 04  B4 02 3F 20 00 00 80 09  ... ......? ....
02B0: 80 01 B9 02 03 20 00 09  80 02 1A 00 20 00 03 11  ..... ...... ...
02C0: 03 9D 00 BA 58 1C 00 1A  00 02 1C 00 01 80 00 DB  ....X...........
02D0: 02 3C 00 00 1A 00 0C 80  01 0B 03 03 1B 00 1E 00  .<..............
02E0: 14 1B 00 09 80 07 1B 00  1A 00 9D 00 CA 59 18 00  .............Y..
02F0: 1B 00 02 0C 00 18 00 04  04 03 3D 00 00 1A 00 0C  ..........=.....
0300: 80 01 0B 03 3C 00 00 1A  00 0C 80 0B 1A 00 01 B9  ....<...........
0310: 02 40 20 00 10 80 00 00  11 80 10 00 00 0C 80 03  .@ .............
0320: 20 00 1E 00 0B 20 00 14  20 00 09 80 02 1E 00 01   .... .. .......
0330: 80 02 3B 03 3D 00 00 07  80 0C 80 02 20 00 00 80  ..;.=....... ...
0340: 03 4A 03 3D 00 00 08 80  0C 80 1B 1E F0 FF FF 7F  .J.=............
0350: 1A 72 58 03 0C 00 03 10  03 0D 00 04 10 03 0E 00  .rX.............
0360: 05 10 03 34 00 06 10 41  01 80 02 80 0D 00 11 00  ...4...A........
0370: 41 01 80 03 80 0C 00 12  00 1D 12 80 23 06 03 00  A...........#...
0380: 02 03 00 01 80 00 46 04  1A 47 04 1A 34 05 03 02  ......F..G..4...
0390: 10 0E 00 24 05 80 08 00  00 00 25 02 00 10 01 80  ...$......%.....
03A0: 00 AE 03 03 01 10 06 80  05 03 00 01 AE 03 03 08  ................
03B0: 00 00 10 02 03 00 01 80  00 43 04 06 15 00 03 15  .........C......
03C0: 00 08 00 0C 15 00 9D 00  CA 5C 03 10 15 00 9D 00  .........\......
03D0: 0A 5D 04 10 15 00 9D 00  EA 5C 18 00 15 00 06 21  .].......\.....!
03E0: 00 02 18 00 01 80 00 EF  03 05 21 00 01 01 04 0C  ..........!.....
03F0: 18 00 3E 11 00 18 00 FC  03 01 01 04 14 04 10 03  ..>.............
0400: 80 93 03 10 1D 0A 80 23  93 01 80 03 02 10 0E 00  .......#........
0410: 24 0B 80 0C 80 01 80 25  02 00 10 01 80 00 38 04  $......%......8.
0420: 05 03 00 40 01 80 0D 80  01 10 00 80 40 0E 80 0F  ...@........@...
0430: 80 01 10 15 00 01 43 04  02 00 10 0C 80 00 43 04  ......C.......C.
0440: 01 43 04 01 80 03 1B 1A  A0 58 06 1A 00 06 18 00  .C.......X......
0450: 06 1D 00 02 1A 00 13 80  03 B6 04 9D 00 EA 5C 18  ..............\.
0460: 00 1A 00 06 21 00 02 18  00 01 80 00 74 04 05 21  ....!.......t..!
0470: 00 01 95 04 0C 18 00 3E  11 00 18 00 84 04 05 21  .......>.......!
0480: 00 01 95 04 07 18 00 0E  80 3E 11 00 18 00 95 04  .........>......
0490: 03 21 00 00 80 02 21 00  01 80 02 B0 04 9D 00 CA  .!....!.........
04A0: 5C 1C 00 1A 00 9D 05 BA  58 1C 00 1A 00 01 B0 04  \.......X.......
04B0: 0B 1A 00 01 53 04 06 1A  00 02 1A 00 13 80 03 33  ....S..........3
04C0: 05 9D 00 EA 5C 18 00 1A  00 06 21 00 02 18 00 01  ....\.....!.....
04D0: 80 00 DA 04 05 21 00 01  FB 04 0C 18 00 3E 11 00  .....!.......>..
04E0: 18 00 EA 04 05 21 00 01  FB 04 07 18 00 0E 80 3E  .....!.........>
04F0: 11 00 18 00 FB 04 03 21  00 00 80 02 21 00 01 80  .......!....!...
0500: 02 2D 05 03 1D 00 1A 00  07 1D 00 09 80 9D 00 0A  .-..............
0510: 5D 1C 00 1A 00 02 21 00  00 80 00 22 05 14 1C 00  ].....!...."....
0520: 03 80 9D 05 BA 58 1C 00  1D 00 01 2D 05 0B 1A 00  .....X.....-....
0530: 01 B9 04 1B 06 1A 00 06  00 00 02 1A 00 13 80 03  ................
0540: 83 05 9D 00 BA 58 1C 00  1A 00 02 1C 00 01 80 00  .....X..........
0550: 5C 05 3C 00 00 1A 00 0C  80 01 7D 05 9D 00 2A 5D  \.<.......}...*]
0560: 19 00 1A 00 02 19 00 01  80 02 7D 05 3E 34 00 19  ..........}.>4..
0570: 00 76 05 01 7D 05 3C 00  00 1A 00 0C 80 0B 1A 00  .v..}.<.........
0580: 01 3A 05 40 13 80 10 80  00 00 11 80 10 00 00 0C  .:.@............
0590: 80 1B 1E F0 FF FF 7F 1A  72 58 03 0C 00 03 10 03  ........rX......
05A0: 0D 00 04 10 03 0E 00 05  10 41 01 80 02 80 0D 00  .........A......
05B0: 11 00 41 01 80 03 80 0C  00 12 00 1D 14 80 23 06  ..A...........#.
05C0: 03 00 02 03 00 01 80 00  25 07 1A 26 07 1A 77 08  ........%..&..w.
05D0: 03 02 10 0E 00 24 05 80  08 00 00 00 25 02 00 10  .....$......%...
05E0: 01 80 00 F0 05 03 01 10  06 80 05 03 00 01 14 06  ................
05F0: 02 00 10 07 80 00 06 06  02 1E 00 01 80 02 03 06  ................
0600: 0C 1E 00 01 14 06 02 00  10 08 80 00 14 06 0B 1E  ................
0610: 00 01 14 06 03 08 00 00  10 02 08 00 07 80 80 27  ...............'
0620: 06 06 08 00 01 35 06 02  08 00 08 80 80 35 06 06  .....5.......5..
0630: 08 00 01 35 06 02 08 00  01 80 01 22 07 06 15 00  ...5......."....
0640: 03 15 00 1E 00 14 15 00  09 80 07 15 00 08 00 0C  ................
0650: 15 00 9D 00 CA 5D 42 00  15 00 1A CC 4B 9D 00 4A  .....]B.....K..J
0660: 5D 03 10 15 00 9D 00 0A  5E 04 10 15 00 9D 00 8A  ].......^.......
0670: 5D 18 00 15 00 06 21 00  02 18 00 01 80 00 86 06  ].....!.........
0680: 05 21 00 01 98 06 0C 18  00 3E 11 00 18 00 93 06  .!.......>......
0690: 01 98 06 14 04 10 03 80  03 18 00 11 00 0D 18 00  ................
06A0: 15 80 02 18 00 01 80 02  B4 06 14 04 10 16 80 15  ................
06B0: 04 10 17 80 93 03 10 02  41 00 0C 80 00 CB 06 03  ........A.......
06C0: 19 17 0C 80 1D 0A 80 23  01 DE 06 03 19 17 03 80  .......#........
06D0: 14 04 10 41 00 03 05 10  41 00 1D 18 80 23 93 01  ...A....A....#..
06E0: 80 03 02 10 0E 00 24 0B  80 0C 80 01 80 25 02 00  ......$......%..
06F0: 10 01 80 00 17 07 05 03  00 40 01 80 0D 80 01 10  .........@......
0700: 03 80 40 0E 80 0F 80 01  10 15 00 40 19 80 10 80  ..@........@....
0710: 01 10 41 00 01 22 07 02  00 10 0C 80 00 22 07 01  ..A.."......."..
0720: 22 07 01 C2 05 1B 1A A0  58 06 1A 00 06 18 00 06  ".......X.......
0730: 1D 00 06 20 00 06 1B 00  03 20 00 1E 00 0B 20 00  ... ..... .... .
0740: 14 20 00 09 80 02 20 00  1A 80 04 57 07 3F 20 00  . .... ....W.? .
0750: 1A 80 09 80 01 5C 07 03  20 00 09 80 02 1A 00 20  .....\.. ...... 
0760: 00 03 CE 07 03 1B 00 1E  00 14 1B 00 09 80 07 1B  ................
0770: 00 1A 00 9D 00 8A 5D 18  00 1B 00 06 21 00 02 18  ......].....!...
0780: 00 01 80 00 8C 07 05 21  00 01 AD 07 0C 18 00 3E  .......!.......>
0790: 11 00 18 00 9C 07 05 21  00 01 AD 07 07 18 00 0E  .......!........
07A0: 80 3E 11 00 18 00 AD 07  03 21 00 00 80 02 21 00  .>.......!....!.
07B0: 01 80 02 C8 07 9D 00 4A  5D 1C 00 1B 00 9D 05 BA  .......J].......
07C0: 58 1C 00 1A 00 01 C8 07  0B 1A 00 01 5C 07 06 1A  X...........\...
07D0: 00 02 1A 00 1A 80 03 76  08 9D 00 8A 5D 18 00 1A  .......v....]...
07E0: 00 06 21 00 02 18 00 01  80 00 F2 07 05 21 00 01  ..!..........!..
07F0: 13 08 0C 18 00 3E 11 00  18 00 02 08 05 21 00 01  .....>.......!..
0800: 13 08 07 18 00 0E 80 3E  11 00 18 00 13 08 03 21  .......>.......!
0810: 00 00 80 02 21 00 01 80  02 70 08 03 1B 00 1E 00  ....!....p......
0820: 14 1B 00 09 80 07 1B 00  1A 00 03 1D 00 1A 00 07  ................
0830: 1D 00 09 80 9D 00 0A 5E  1C 00 1B 00 02 21 00 00  .......^.....!..
0840: 80 00 49 08 14 1C 00 03  80 03 18 00 11 00 0D 18  ..I.............
0850: 00 15 80 02 18 00 01 80  02 65 08 14 1C 00 16 80  .........e......
0860: 15 1C 00 17 80 9D 05 BA  58 1C 00 1D 00 01 70 08  ........X.....p.
0870: 0B 1A 00 01 D1 07 1B 06  1A 00 06 00 00 06 20 00  .............. .
0880: 06 1B 00 03 20 00 1E 00  0B 20 00 14 20 00 09 80  .... .... .. ...
0890: 02 20 00 1A 80 04 A2 08  3F 20 00 1A 80 09 80 01  . ......? ......
08A0: A7 08 03 20 00 09 80 02  1A 00 20 00 03 CF 08 9D  ... ...... .....
08B0: 00 BA 58 1C 00 1A 00 02  1C 00 01 80 00 C9 08 3C  ..X............<
08C0: 00 00 1A 00 0C 80 01 C9  08 0B 1A 00 01 A7 08 40  ...............@
08D0: 20 00 10 80 00 00 11 80  10 00 00 0C 80 03 20 00   ............. .
08E0: 1E 00 0B 20 00 14 20 00  09 80 02 1E 00 01 80 02  ... .. .........
08F0: F9 08 3D 00 00 07 80 0C  80 02 20 00 1A 80 03 08  ..=....... .....
0900: 09 3D 00 00 08 80 0C 80  1B 1E F0 FF FF 7F 1A 72  .=.............r
0910: 58 03 0C 00 03 10 03 0D  00 04 10 03 0E 00 05 10  X...............
0920: 03 13 00 06 10 41 01 80  02 80 0D 00 11 00 41 01  .....A........A.
0930: 80 03 80 0C 00 12 00 1D  1B 80 23 06 03 00 02 03  ..........#.....
0940: 00 01 80 00 A7 0A 03 02  10 0E 00 03 19 17 01 80  ................
0950: 03 1A 17 01 80 24 1C 80  08 00 13 80 25 02 00 10  .....$......%...
0960: 01 80 00 70 09 03 01 10  06 80 05 03 00 01 A4 0A  ...p............
0970: 02 00 10 0C 80 00 91 0A  06 04 00 02 04 00 01 80  ................
0980: 00 8E 0A 1A A8 0A 1A E2  0B 03 02 10 0E 00 24 05  ..............$.
0990: 80 09 00 00 00 25 02 00  10 01 80 00 A9 09 03 01  .....%..........
09A0: 10 06 80 05 04 00 01 CD  09 02 00 10 07 80 00 BF  ................
09B0: 09 02 1E 00 01 80 02 BC  09 0C 1E 00 01 CD 09 02  ................
09C0: 00 10 08 80 00 CD 09 0B  1E 00 01 CD 09 03 09 00  ................
09D0: 00 10 02 09 00 07 80 80  E0 09 06 09 00 01 EE 09  ................
09E0: 02 09 00 08 80 80 EE 09  06 09 00 01 EE 09 02 09  ................
09F0: 00 01 80 01 8B 0A 06 15  00 03 15 00 1E 00 14 15  ................
0A00: 00 09 80 07 15 00 09 00  0C 15 00 9D 00 4A 5E 03  .............J^.
0A10: 10 15 00 9D 00 CA 5E 04  10 15 00 9D 00 8A 5E 18  ......^.......^.
0A20: 00 15 00 06 21 00 02 18  00 01 80 00 34 0A 05 21  ....!.......4..!
0A30: 00 01 46 0A 0C 18 00 3E  11 00 18 00 41 0A 01 46  ..F....>....A..F
0A40: 0A 14 04 10 03 80 93 03  10 1D 0A 80 23 93 01 80  ............#...
0A50: 03 02 10 0E 00 24 0B 80  0C 80 01 80 25 02 00 10  .....$......%...
0A60: 01 80 00 80 0A 05 04 00  05 03 00 40 01 80 0D 80  ...........@....
0A70: 01 10 1D 80 40 0E 80 0F  80 01 10 15 00 01 8B 0A  ....@...........
0A80: 02 00 10 0C 80 00 8B 0A  01 8B 0A 01 7B 09 01 A4  ............{...
0A90: 0A 02 00 10 1D 80 00 A4  0A 1D 1E 80 23 1D 1F 80  ............#...
0AA0: 23 01 A4 0A 01 3E 09 1B  1A A0 58 06 1A 00 06 18  #....>....X.....
0AB0: 00 06 1D 00 06 20 00 06  1B 00 03 20 00 1E 00 0B  ..... ..... ....
0AC0: 20 00 14 20 00 09 80 02  20 00 20 80 02 D9 0A 3F   .. .... . ....?
0AD0: 20 00 20 80 09 80 01 DE  0A 03 20 00 09 80 02 1A   . ....... .....
0AE0: 00 20 00 03 58 0B 03 1B  00 1E 00 14 1B 00 09 80  . ..X...........
0AF0: 07 1B 00 1A 00 9D 00 8A  5E 18 00 1B 00 06 21 00  ........^.....!.
0B00: 02 18 00 01 80 00 0E 0B  05 21 00 01 2F 0B 0C 18  .........!../...
0B10: 00 3E 11 00 18 00 1E 0B  05 21 00 01 2F 0B 07 18  .>.......!../...
0B20: 00 0E 80 3E 11 00 18 00  2F 0B 03 21 00 00 80 02  ...>..../..!....
0B30: 21 00 01 80 02 4A 0B 9D  00 4A 5E 1C 00 1B 00 9D  !....J...J^.....
0B40: 05 BA 58 1C 00 1A 00 01  52 0B 9D 05 BA 58 01 80  ..X.....R....X..
0B50: 1A 00 0B 1A 00 01 DE 0A  06 1A 00 02 1A 00 20 00  .............. .
0B60: 03 E1 0B 03 1B 00 1E 00  14 1B 00 09 80 07 1B 00  ................
0B70: 1A 00 9D 00 8A 5E 18 00  1B 00 06 21 00 02 18 00  .....^.....!....
0B80: 01 80 00 8B 0B 05 21 00  01 AC 0B 0C 18 00 3E 11  ......!.......>.
0B90: 00 18 00 9B 0B 05 21 00  01 AC 0B 07 18 00 0E 80  ......!.........
0BA0: 3E 11 00 18 00 AC 0B 03  21 00 00 80 02 21 00 01  >.......!....!..
0BB0: 80 02 DB 0B 03 1D 00 1A  00 07 1D 00 09 80 9D 00  ................
0BC0: CA 5E 1C 00 1B 00 02 21  00 00 80 00 D3 0B 14 1C  .^.....!........
0BD0: 00 03 80 9D 05 BA 58 1C  00 1D 00 0B 1A 00 01 5B  ......X........[
0BE0: 0B 1B 06 1A 00 06 00 00  06 20 00 06 1B 00 03 20  ......... ..... 
0BF0: 00 1E 00 0B 20 00 14 20  00 09 80 02 20 00 20 80  .... .. .... . .
0C00: 02 0D 0C 3F 20 00 20 80  09 80 01 12 0C 03 20 00  ...? . ....... .
0C10: 09 80 02 1A 00 20 00 03  5A 0C 03 15 00 1E 00 14  ..... ..Z.......
0C20: 15 00 09 80 07 15 00 1A  00 9D 00 BA 58 1C 00 1A  ............X...
0C30: 00 02 1C 00 01 80 00 43  0C 3C 00 00 1A 00 0C 80  .......C.<......
0C40: 01 54 0C 3E 13 00 15 00  4D 0C 01 54 0C 3C 00 00  .T.>....M..T.<..
0C50: 1A 00 0C 80 0B 1A 00 01  12 0C 40 20 00 10 80 00  ..........@ ....
0C60: 00 11 80 10 00 00 0C 80  03 20 00 1E 00 0B 20 00  ......... .... .
0C70: 14 20 00 09 80 02 1E 00  01 80 02 84 0C 3D 00 00  . ...........=..
0C80: 07 80 0C 80 02 20 00 20  80 03 93 0C 3D 00 00 08  ..... . ....=...
0C90: 80 0C 80 1B 1E F0 FF FF  7F 1A 72 58 03 0C 00 03  ..........rX....
0CA0: 10 03 0D 00 04 10 03 0E  00 05 10 41 01 80 02 80  ...........A....
0CB0: 0D 00 11 00 41 01 80 03  80 0C 00 12 00 1D 21 80  ....A.........!.
0CC0: 23 02 03 00 01 80 00 CA  0E 03 02 10 0E 00 03 19  #...............
0CD0: 17 0C 80 03 1A 17 01 80  24 1C 80 08 00 01 80 25  ........$......%
0CE0: 02 00 10 01 80 00 F3 0C  03 01 10 06 80 05 03 00  ................
0CF0: 01 C7 0E 02 00 10 0C 80  00 46 0D 1D 22 80 23 03  .........F..".#.
0D00: 03 10 23 80 03 18 00 11  00 0D 18 00 24 80 02 18  ..#.........$...
0D10: 00 01 80 02 23 0D 14 03  10 25 80 15 03 10 17 80  ....#....%......
0D20: 01 3F 0D 03 18 00 11 00  0D 18 00 26 80 02 18 00  .?.........&....
0D30: 01 80 02 3F 0D 14 03 10  16 80 15 03 10 17 80 1D  ...?............
0D40: 27 80 23 01 C7 0E 02 00  10 00 80 00 03 0E 03 1B  '.#.............
0D50: 17 01 80 1D 28 80 23 06  09 00 06 04 00 06 1E 00  ....(.#.........
0D60: 02 04 00 01 80 00 00 0E  1A CB 0E 24 29 80 09 00  ...........$)...
0D70: 01 00 25 02 00 10 01 80  00 81 0D 05 04 00 01 A5  ..%.............
0D80: 0D 02 00 10 07 80 00 97  0D 02 1E 00 01 80 02 94  ................
0D90: 0D 0C 1E 00 01 A5 0D 02  00 10 08 80 00 A5 0D 0B  ................
0DA0: 1E 00 01 A5 0D 03 09 00  00 10 02 09 00 07 80 80  ................
0DB0: B8 0D 06 09 00 01 C6 0D  02 09 00 08 80 80 C6 0D  ................
0DC0: 06 09 00 01 C6 0D 02 09  00 01 80 01 FD 0D 06 15  ................
0DD0: 00 03 15 00 1E 00 14 15  00 09 80 07 15 00 09 00  ................
0DE0: 0C 15 00 9D 00 EA 59 19  17 15 00 9D 00 EA 5A 1A  ......Y.......Z.
0DF0: 17 15 00 93 19 17 1D 2A  80 23 93 01 80 01 60 0D  .......*.#....`.
0E00: 01 C7 0E 02 00 10 03 80  00 B8 0E 03 1B 17 01 80  ................
0E10: 1D 2B 80 23 06 09 00 06  04 00 06 1E 00 02 04 00  .+.#............
0E20: 01 80 00 B5 0E 1A 6E 0F  24 29 80 09 00 01 00 25  ......n.$).....%
0E30: 02 00 10 01 80 00 3E 0E  05 04 00 01 62 0E 02 00  ......>.....b...
0E40: 10 07 80 00 54 0E 02 1E  00 01 80 02 51 0E 0C 1E  ....T.......Q...
0E50: 00 01 62 0E 02 00 10 08  80 00 62 0E 0B 1E 00 01  ..b.......b.....
0E60: 62 0E 03 09 00 00 10 02  09 00 07 80 80 75 0E 06  b............u..
0E70: 09 00 01 83 0E 02 09 00  08 80 80 83 0E 06 09 00  ................
0E80: 01 83 0E 02 09 00 01 80  01 B2 0E 06 15 00 03 15  ................
0E90: 00 1E 00 14 15 00 09 80  07 15 00 09 00 0C 15 00  ................
0EA0: 9D 00 BA 59 19 17 15 00  93 19 17 48 2C 80 23 93  ...Y.......H,.#.
0EB0: 01 80 01 1D 0E 01 C7 0E  02 00 10 1D 80 00 C7 0E  ................
0EC0: 1D 2D 80 23 01 C7 0E 01  C1 0C 1B 1A A0 58 06 1A  .-.#.........X..
0ED0: 00 06 18 00 06 1D 00 06  20 00 06 1B 00 03 20 00  ........ ..... .
0EE0: 1E 00 0B 20 00 14 20 00  09 80 02 20 00 2E 80 04  ... .. .... ....
0EF0: FC 0E 3F 20 00 2E 80 09  80 01 01 0F 03 20 00 09  ..? ......... ..
0F00: 80 02 1A 00 20 00 03 2E  0F 03 1B 00 1E 00 14 1B  .... ...........
0F10: 00 09 80 07 1B 00 1A 00  9D 00 EA 59 1C 00 1B 00  ...........Y....
0F20: 9D 05 BA 58 1C 00 1A 00  0B 1A 00 01 01 0F 06 1A  ...X............
0F30: 00 06 01 00 40 20 00 10  80 01 00 11 80 10 01 00  ....@ ..........
0F40: 0C 80 03 20 00 1E 00 0B  20 00 14 20 00 09 80 02  ... .... .. ....
0F50: 1E 00 01 80 02 5E 0F 3D  01 00 07 80 0C 80 02 20  .....^.=....... 
0F60: 00 2E 80 03 6D 0F 3D 01  00 08 80 0C 80 1B 1A A0  ....m.=.........
0F70: 58 06 1A 00 06 18 00 06  1D 00 06 20 00 06 1B 00  X.......... ....
0F80: 03 20 00 1E 00 0B 20 00  14 20 00 09 80 02 20 00  . .... .. .... .
0F90: 0C 80 04 9F 0F 3F 20 00  0C 80 09 80 01 A4 0F 03  .....? .........
0FA0: 20 00 09 80 02 1A 00 20  00 03 D1 0F 03 1B 00 1E   ...... ........
0FB0: 00 14 1B 00 09 80 07 1B  00 1A 00 9D 00 BA 59 1C  ..............Y.
0FC0: 00 1B 00 9D 05 BA 58 1C  00 1A 00 0B 1A 00 01 A4  ......X.........
0FD0: 0F 06 1A 00 06 01 00 40  20 00 10 80 01 00 11 80  .......@ .......
0FE0: 10 01 00 0C 80 03 20 00  1E 00 0B 20 00 14 20 00  ...... .... .. .
0FF0: 09 80 02 1E 00 01 80 02  01 10 3D 01 00 07 80 0C  ..........=.....
1000: 80 02 20 00 00 80 03 10  10 3D 01 00 08 80 0C 80  .. ......=......
1010: 1B 42 1E F0 FF FF 7F 1A  72 58 41 01 80 2F 80 02  .B......rXA../..
1020: 10 0D 00 41 30 80 02 80  02 10 0C 00 41 09 80 10  ...A0.......A...
1030: 80 02 10 1C 00 41 01 80  02 80 0D 00 11 00 41 01  .....A........A.
1040: 80 03 80 0C 00 12 00 03  35 00 04 10 03 36 00 05  ........5....6..
1050: 10 03 37 00 06 10 03 38  00 07 10 03 39 00 08 10  ..7....8....9...
1060: 03 3A 00 09 10 03 03 10  23 80 03 18 00 11 00 0D  .:......#.......
1070: 18 00 24 80 02 18 00 01  80 02 89 10 14 03 10 25  ..$............%
1080: 80 15 03 10 17 80 01 A5  10 03 18 00 11 00 0D 18  ................
1090: 00 26 80 02 18 00 01 80  02 A5 10 14 03 10 16 80  .&..............
10A0: 15 03 10 17 80 03 04 10  1C 00 03 05 10 01 80 1D  ................
10B0: 31 80 23 CC 01 1C 00 38  00 39 00 3A 00 03 03 10  1.#....8.9.:....
10C0: 0C 80 03 04 10 1C 00 48  32 80 23 CC 01 01 80 01  .......H2.#.....
10D0: 80 01 80 01 80 40 01 80  0D 80 01 10 0D 80 40 0E  .....@........@.
10E0: 80 0F 80 01 10 01 80 1B  1E F0 FF FF 7F 1A 72 58  ..............rX
10F0: 03 0C 00 03 10 03 0D 00  04 10 03 0E 00 05 10 03  ................
1100: 22 00 06 10 41 01 80 02  80 0D 00 11 00 41 01 80  "...A........A..
1110: 03 80 0C 00 12 00 02 22  00 01 80 00 41 11 1D 33  ......."....A..3
1120: 80 23 3C 00 00 34 80 0C  80 3C 00 00 35 80 0C 80  .#<..4...<..5...
1130: 3C 00 00 0D 80 0C 80 3C  00 00 0E 80 0C 80 01 58  <......<.......X
