# 17826033

## Common Data

| Field            | Value                     |
|------------------|---------------------------|
| Zone             | Western Adoulin (ID: 256) |
| Block Size       | 56456 bytes               |
| Total Events     | 20                        |
| References Count | 913                       |

## List of Events

| Event ID              | Entrypoint   |   Size |   Instructions |
|-----------------------|--------------|--------|----------------|
| [65535](#event-65535) | 0x0000       |      1 |              1 |
| [5092](#event-5092)   | 0x0001       |   3264 |            423 |
| [5094](#event-5094)   | 0x0CC1       |   2447 |            327 |
| [5095](#event-5095)   | 0x1650       |   7024 |            874 |
| [5096](#event-5096)   | 0x31C0       |   2431 |            344 |
| [5202](#event-5202)   | 0x3B3F       |   1779 |            228 |
| [5203](#event-5203)   | 0x4232       |   2173 |            282 |
| [5204](#event-5204)   | 0x4AAF       |   1619 |            214 |
| [5205](#event-5205)   | 0x5102       |    875 |            109 |
| [5206](#event-5206)   | 0x546D       |   2567 |            326 |
| [5207](#event-5207)   | 0x5E74       |   3479 |            444 |
| [5208](#event-5208)   | 0x6C0B       |   4658 |            586 |
| [5087](#event-5087)   | 0x7E3D       |   8723 |           1163 |
| [5090](#event-5090)   | 0xA050       |    466 |             60 |
| [5091](#event-5091)   | 0xA222       |   1658 |            216 |
| [5211](#event-5211)   | 0xA89C       |   1341 |            173 |
| [5212](#event-5212)   | 0xADD9       |   2130 |            279 |
| [5213](#event-5213)   | 0xB62B       |    389 |             49 |
| [5214](#event-5214)   | 0xB7B0       |   4067 |            537 |
| [5215](#event-5215)   | 0xC793       |   1614 |            222 |

## DAT References (imed_data)

|   Index | Hex Value   |   Dec Value |
|---------|-------------|-------------|
|       0 | 0x00C8      |         200 |
|       1 | 0x0000      |           0 |
|       2 | 0x0013      |          19 |
|       3 | 0x024C      |         588 |
|       4 | 0xFFFF91CE  |  4294939086 |
|       5 | 0xFFFE857C  |  4294870396 |
|       6 | 0xFFFFFD76  |  4294966646 |
|       7 | 0x05FF      |        1535 |
|       8 | 0x02FF      |         767 |
|       9 | 0xFFFF7554  |  4294931796 |
|      10 | 0xFFFE505C  |  4294856796 |
|      11 | 0xFFFFFA01  |  4294965761 |
|      12 | 0xFFFF7A68  |  4294933096 |
|      13 | 0xFFFE825C  |  4294869596 |
|      14 | 0xFFFFFAC5  |  4294965957 |
|      15 | 0xFFFF7C70  |  4294933616 |
|      16 | 0xFFFE8432  |  4294870066 |
|      17 | 0xFFFF6D52  |  4294929746 |
|      18 | 0xFFFE74B0  |  4294866096 |
|      19 | 0xFFFFF941  |  4294965569 |
|      20 | 0xFFFF6AC8  |  4294929096 |
|      21 | 0xFFFE7262  |  4294865506 |
|      22 | 0xFFFF761C  |  4294931996 |
|      23 | 0xFFFE6C18  |  4294863896 |
|      24 | 0xFFFF7360  |  4294931296 |
|      25 | 0xFFFE68F8  |  4294863096 |
|      26 | 0x01FF      |         511 |
|      27 | 0xFFFF69B6  |  4294928822 |
|      28 | 0xFFFE76C7  |  4294866631 |
|      29 | 0xFFFFF924  |  4294965540 |
|      30 | 0x001E      |          30 |
|      31 | 0x0281      |         641 |
|      32 | 0x003C      |          60 |
|      33 | 0x0014      |          20 |
|      34 | 0x0010      |          16 |
|      35 | 0x000C      |          12 |
|      36 | 0x00B4      |         180 |
|      37 | 0x005A      |          90 |
|      38 | 0x0005      |           5 |
|      39 | 0x0006      |           6 |
|      40 | 0x00CE      |         206 |
|      41 | 0x000B      |          11 |
|      42 | 0x00FB      |         251 |
|      43 | 0x0078      |         120 |
|      44 | 0x0007      |           7 |
|      45 | 0x0364      |         868 |
|      46 | 0x28C1      |       10433 |
|      47 | 0x00C7      |         199 |
|      48 | 0x28C2      |       10434 |
|      49 | 0x28C3      |       10435 |
|      50 | 0x28C4      |       10436 |
|      51 | 0x05F9      |        1529 |
|      52 | 0x28C5      |       10437 |
|      53 | 0x28C6      |       10438 |
|      54 | 0x28C7      |       10439 |
|      55 | 0x0088      |         136 |
|      56 | 0x0082      |         130 |
|      57 | 0x0512      |        1298 |
|      58 | 0x003B      |          59 |
|      59 | 0x28C8      |       10440 |
|      60 | 0x0008      |           8 |
|      61 | 0x000A      |          10 |
|      62 | 0x00A0      |         160 |
|      63 | 0x28C9      |       10441 |
|      64 | 0x28CA      |       10442 |
|      65 | 0x0002      |           2 |
|      66 | 0x007C      |         124 |
|      67 | 0x28CB      |       10443 |
|      68 | 0x0001      |           1 |
|      69 | 0x28CC      |       10444 |
|      70 | 0x28CD      |       10445 |
|      71 | 0x28CE      |       10446 |
|      72 | 0x28CF      |       10447 |
|      73 | 0x28D0      |       10448 |
|      74 | 0x28D1      |       10449 |
|      75 | 0x000F      |          15 |
|      76 | 0x172CF     |       94927 |
|      77 | 0xFFFE273C  |  4294846268 |
|      78 | 0x0883      |        2179 |
|      79 | 0x083B      |        2107 |
|      80 | 0x07BB      |        1979 |
|      81 | 0x17086     |       94342 |
|      82 | 0xFFFE22F1  |  4294845169 |
|      83 | 0x0B8F      |        2959 |
|      84 | 0x17781     |       96129 |
|      85 | 0xFFFE4404  |  4294853636 |
|      86 | 0x0FA0      |        4000 |
|      87 | 0x0603      |        1539 |
|      88 | 0x0028      |          40 |
|      89 | 0x28D4      |       10452 |
|      90 | 0x28D5      |       10453 |
|      91 | 0x28D6      |       10454 |
|      92 | 0x28D7      |       10455 |
|      93 | 0x28D8      |       10456 |
|      94 | 0x0804      |        2052 |
|      95 | 0x28D9      |       10457 |
|      96 | 0x0032      |          50 |
|      97 | 0x28DA      |       10458 |
|      98 | 0x28DB      |       10459 |
|      99 | 0x28DC      |       10460 |
|     100 | 0x28DD      |       10461 |
|     101 | 0x00D2      |         210 |
|     102 | 0x28DE      |       10462 |
|     103 | 0x0801      |        2049 |
|     104 | 0x00FA      |         250 |
|     105 | 0x28DF      |       10463 |
|     106 | 0x28E0      |       10464 |
|     107 | 0x0096      |         150 |
|     108 | 0x28E1      |       10465 |
|     109 | 0x28E2      |       10466 |
|     110 | 0x28E3      |       10467 |
|     111 | 0x28E4      |       10468 |
|     112 | 0x28E5      |       10469 |
|     113 | 0x0029      |          41 |
|     114 | 0x28E6      |       10470 |
|     115 | 0x00F0      |         240 |
|     116 | 0x28E7      |       10471 |
|     117 | 0x28E8      |       10472 |
|     118 | 0x28E9      |       10473 |
|     119 | 0x28EA      |       10474 |
|     120 | 0x28EB      |       10475 |
|     121 | 0x28EC      |       10476 |
|     122 | 0x0031      |          49 |
|     123 | 0x28ED      |       10477 |
|     124 | 0x28EE      |       10478 |
|     125 | 0x28FE      |       10494 |
|     126 | 0x28FF      |       10495 |
|     127 | 0x2900      |       10496 |
|     128 | 0x0009      |           9 |
|     129 | 0x2901      |       10497 |
|     130 | 0x2902      |       10498 |
|     131 | 0x12188     |       74120 |
|     132 | 0xFFFE111E  |  4294840606 |
|     133 | 0x0F9F      |        3999 |
|     134 | 0x0C00      |        3072 |
|     135 | 0xABA4      |       43940 |
|     136 | 0xFFFE44A4  |  4294853796 |
|     137 | 0x07D0      |        2000 |
|     138 | 0x0400      |        1024 |
|     139 | 0x161E8     |       90600 |
|     140 | 0xFFFE2C08  |  4294847496 |
|     141 | 0x00FF      |         255 |
|     142 | 0x12E44     |       77380 |
|     143 | 0xFFFE15AB  |  4294841771 |
|     144 | 0xFFFFFBFD  |  4294966269 |
|     145 | 0x11D46     |       73030 |
|     146 | 0xFFFE1FA6  |  4294844326 |
|     147 | 0x14820     |       84000 |
|     148 | 0xFFFE2B40  |  4294847296 |
|     149 | 0xFFFFFF80  |  4294967168 |
|     150 | 0x15BA8     |       89000 |
|     151 | 0xFFFE2758  |  4294846296 |
|     152 | 0xFFFFFD81  |  4294966657 |
|     153 | 0x15F90     |       90000 |
|     154 | 0xFFFE2370  |  4294845296 |
|     155 | 0x055D      |        1373 |
|     156 | 0x2905      |       10501 |
|     157 | 0x2906      |       10502 |
|     158 | 0x2907      |       10503 |
|     159 | 0x0186      |         390 |
|     160 | 0x0015      |          21 |
|     161 | 0x2908      |       10504 |
|     162 | 0x002A      |          42 |
|     163 | 0x2909      |       10505 |
|     164 | 0x290A      |       10506 |
|     165 | 0x290B      |       10507 |
|     166 | 0x290C      |       10508 |
|     167 | 0x290D      |       10509 |
|     168 | 0x290E      |       10510 |
|     169 | 0x16634     |       91700 |
|     170 | 0xFFFE3022  |  4294848546 |
|     171 | 0x087F      |        2175 |
|     172 | 0x16184     |       90500 |
|     173 | 0xFFFE2D34  |  4294847796 |
|     174 | 0x290F      |       10511 |
|     175 | 0x2910      |       10512 |
|     176 | 0x2911      |       10513 |
|     177 | 0x2912      |       10514 |
|     178 | 0x021C      |         540 |
|     179 | 0x2919      |       10521 |
|     180 | 0x291A      |       10522 |
|     181 | 0x291B      |       10523 |
|     182 | 0x291C      |       10524 |
|     183 | 0x291D      |       10525 |
|     184 | 0x291E      |       10526 |
|     185 | 0x291F      |       10527 |
|     186 | 0x2920      |       10528 |
|     187 | 0x13E5C     |       81500 |
|     188 | 0xFFFE1F88  |  4294844296 |
|     189 | 0x073F      |        1855 |
|     190 | 0x010E      |         270 |
|     191 | 0x2815      |       10261 |
|     192 | 0x2921      |       10529 |
|     193 | 0x2922      |       10530 |
|     194 | 0x2923      |       10531 |
|     195 | 0x0044      |          68 |
|     196 | 0x001D      |          29 |
|     197 | 0x2924      |       10532 |
|     198 | 0x2925      |       10533 |
|     199 | 0x2926      |       10534 |
|     200 | 0x2927      |       10535 |
|     201 | 0x2928      |       10536 |
|     202 | 0x2929      |       10537 |
|     203 | 0x292A      |       10538 |
|     204 | 0x292B      |       10539 |
|     205 | 0x292C      |       10540 |
|     206 | 0x0530      |        1328 |
|     207 | 0x292D      |       10541 |
|     208 | 0x00A9      |         169 |
|     209 | 0x292E      |       10542 |
|     210 | 0x012C      |         300 |
|     211 | 0x292F      |       10543 |
|     212 | 0x12B9C     |       76700 |
|     213 | 0xFFFE1C04  |  4294843396 |
|     214 | 0x0313      |         787 |
|     215 | 0x16D3C     |       93500 |
|     216 | 0xFFFE311C  |  4294848796 |
|     217 | 0x06FF      |        1791 |
|     218 | 0x14FF0     |       86000 |
|     219 | 0xFFFFFF01  |  4294967041 |
|     220 | 0x2930      |       10544 |
|     221 | 0x0087      |         135 |
|     222 | 0x0003      |           3 |
|     223 | 0x0004      |           4 |
|     224 | 0x2931      |       10545 |
|     225 | 0x002D      |          45 |
|     226 | 0x2932      |       10546 |
|     227 | 0x2933      |       10547 |
|     228 | 0x2934      |       10548 |
|     229 | 0x119E      |        4510 |
|     230 | 0x2935      |       10549 |
|     231 | 0x27FE      |       10238 |
|     232 | 0x27FF      |       10239 |
|     233 | 0x2936      |       10550 |
|     234 | 0x2801      |       10241 |
|     235 | 0x002F      |          47 |
|     236 | 0x2802      |       10242 |
|     237 | 0x0080      |         128 |
|     238 | 0x2937      |       10551 |
|     239 | 0x2804      |       10244 |
|     240 | 0x2938      |       10552 |
|     241 | 0x05FA      |        1530 |
|     242 | 0x2939      |       10553 |
|     243 | 0x293A      |       10554 |
|     244 | 0x02D0      |         720 |
|     245 | 0x00C9      |         201 |
|     246 | 0x28B8      |       10424 |
|     247 | 0x28B9      |       10425 |
|     248 | 0x293B      |       10555 |
|     249 | 0x01C2      |         450 |
|     250 | 0x293C      |       10556 |
|     251 | 0x014A      |         330 |
|     252 | 0x293D      |       10557 |
|     253 | 0x2913      |       10515 |
|     254 | 0x2914      |       10516 |
|     255 | 0x2915      |       10517 |
|     256 | 0x2916      |       10518 |
|     257 | 0x2917      |       10519 |
|     258 | 0x2918      |       10520 |
|     259 | 0x0500      |        1280 |
|     260 | 0x2903      |       10499 |
|     261 | 0x2904      |       10500 |
|     262 | 0x28EF      |       10479 |
|     263 | 0x28F0      |       10480 |
|     264 | 0x28F1      |       10481 |
|     265 | 0x28F2      |       10482 |
|     266 | 0x28F3      |       10483 |
|     267 | 0x28F4      |       10484 |
|     268 | 0x28F5      |       10485 |
|     269 | 0x28F6      |       10486 |
|     270 | 0x28F7      |       10487 |
|     271 | 0x008C      |         140 |
|     272 | 0x001B      |          27 |
|     273 | 0x28F8      |       10488 |
|     274 | 0x28F9      |       10489 |
|     275 | 0x28FA      |       10490 |
|     276 | 0x28FB      |       10491 |
|     277 | 0x28FC      |       10492 |
|     278 | 0x28FD      |       10493 |
|     279 | 0x2A7B      |       10875 |
|     280 | 0x6C72      |       27762 |
|     281 | 0x3EFC      |       16124 |
|     282 | 0x007A      |         122 |
|     283 | 0x0163      |         355 |
|     284 | 0x00D1      |         209 |
|     285 | 0x17AF      |        6063 |
|     286 | 0x175A      |        5978 |
|     287 | 0x1758      |        5976 |
|     288 | 0x175E      |        5982 |
|     289 | 0x176E      |        5998 |
|     290 | 0x1750      |        5968 |
|     291 | 0x00A3      |         163 |
|     292 | 0x16F30     |       94000 |
|     293 | 0xFFFE3AE0  |  4294851296 |
|     294 | 0x165BC     |       91580 |
|     295 | 0xFFFE1EB6  |  4294844086 |
|     296 | 0x16896     |       92310 |
|     297 | 0xFFFE1FB0  |  4294844336 |
|     298 | 0x0175      |         373 |
|     299 | 0x030C      |         780 |
|     300 | 0x293E      |       10558 |
|     301 | 0x293F      |       10559 |
|     302 | 0x2940      |       10560 |
|     303 | 0x2941      |       10561 |
|     304 | 0x2942      |       10562 |
|     305 | 0x2943      |       10563 |
|     306 | 0x2944      |       10564 |
|     307 | 0x2945      |       10565 |
|     308 | 0x2946      |       10566 |
|     309 | 0x0016      |          22 |
|     310 | 0x2947      |       10567 |
|     311 | 0x2948      |       10568 |
|     312 | 0x2949      |       10569 |
|     313 | 0x0023      |          35 |
|     314 | 0x294A      |       10570 |
|     315 | 0x18D26     |      101670 |
|     316 | 0xFFFE56F6  |  4294858486 |
|     317 | 0x08CA      |        2250 |
|     318 | 0xFFFFFE01  |  4294966785 |
|     319 | 0x18894     |      100500 |
|     320 | 0xFFFE5638  |  4294858296 |
|     321 | 0x182F4     |       99060 |
|     322 | 0xFFFE4F1C  |  4294856476 |
|     323 | 0x0BB8      |        3000 |
|     324 | 0x18C7C     |      101500 |
|     325 | 0xFFFE6F9C  |  4294864796 |
|     326 | 0x0960      |        2400 |
|     327 | 0x19064     |      102500 |
|     328 | 0xFFFE7384  |  4294865796 |
|     329 | 0x19CD0     |      105680 |
|     330 | 0xFFFE672C  |  4294862636 |
|     331 | 0xFFFFF981  |  4294965633 |
|     332 | 0x19884     |      104580 |
|     333 | 0xFFFE6556  |  4294862166 |
|     334 | 0xFFFFFA81  |  4294965889 |
|     335 | 0x294B      |       10571 |
|     336 | 0x294C      |       10572 |
|     337 | 0x294D      |       10573 |
|     338 | 0x193D4     |      103380 |
|     339 | 0x027E      |         638 |
|     340 | 0x294E      |       10574 |
|     341 | 0x294F      |       10575 |
|     342 | 0x2950      |       10576 |
|     343 | 0x2951      |       10577 |
|     344 | 0x2952      |       10578 |
|     345 | 0x2953      |       10579 |
|     346 | 0x0021      |          33 |
|     347 | 0x2954      |       10580 |
|     348 | 0x0019      |          25 |
|     349 | 0x2955      |       10581 |
|     350 | 0x2956      |       10582 |
|     351 | 0x0025      |          37 |
|     352 | 0x2957      |       10583 |
|     353 | 0x001A      |          26 |
|     354 | 0x2958      |       10584 |
|     355 | 0x2959      |       10585 |
|     356 | 0x295A      |       10586 |
|     357 | 0x295B      |       10587 |
|     358 | 0x0050      |          80 |
|     359 | 0x295C      |       10588 |
|     360 | 0x295D      |       10589 |
|     361 | 0x295E      |       10590 |
|     362 | 0x295F      |       10591 |
|     363 | 0x2960      |       10592 |
|     364 | 0x2961      |       10593 |
|     365 | 0x1D72C     |      120620 |
|     366 | 0x1DC90     |      122000 |
|     367 | 0x77F6      |       30710 |
|     368 | 0x07FF      |        2047 |
|     369 | 0x1DA88     |      121480 |
|     370 | 0x1D8DA     |      121050 |
|     371 | 0x1C58E     |      116110 |
|     372 | 0x1E460     |      124000 |
|     373 | 0x7D00      |       32000 |
|     374 | 0x1CD0E     |      118030 |
|     375 | 0x1DCCC     |      122060 |
|     376 | 0x007F      |         127 |
|     377 | 0x00ED      |         237 |
|     378 | 0x2962      |       10594 |
|     379 | 0x2963      |       10595 |
|     380 | 0x2071      |        8305 |
|     381 | 0x0092      |         146 |
|     382 | 0x0069      |         105 |
|     383 | 0x2964      |       10596 |
|     384 | 0x2965      |       10597 |
|     385 | 0x2966      |       10598 |
|     386 | 0x2967      |       10599 |
|     387 | 0x27B5      |       10165 |
|     388 | 0x0072      |         114 |
|     389 | 0x2968      |       10600 |
|     390 | 0x2969      |       10601 |
|     391 | 0x296A      |       10602 |
|     392 | 0x296B      |       10603 |
|     393 | 0x112C      |        4396 |
|     394 | 0x1636      |        5686 |
|     395 | 0x142E      |        5166 |
|     396 | 0x16FD      |        5885 |
|     397 | 0x1701      |        5889 |
|     398 | 0x001C      |          28 |
|     399 | 0x296C      |       10604 |
|     400 | 0x296D      |       10605 |
|     401 | 0x296E      |       10606 |
|     402 | 0x296F      |       10607 |
|     403 | 0x2970      |       10608 |
|     404 | 0x0251      |         593 |
|     405 | 0x003D      |          61 |
|     406 | 0x01D6      |         470 |
|     407 | 0xFFFFCE32  |  4294954546 |
|     408 | 0xFFFFFC01  |  4294966273 |
|     409 | 0x0262      |         610 |
|     410 | 0xFFFFD508  |  4294956296 |
|     411 | 0xFFFFEC78  |  4294962296 |
|     412 | 0x03FF      |        1023 |
|     413 | 0xFFFFDCD8  |  4294958296 |
|     414 | 0xFFFFFE98  |  4294966936 |
|     415 | 0xFFFFD2E2  |  4294955746 |
|     416 | 0xFFFFFD62  |  4294966626 |
|     417 | 0xFFFFCCCA  |  4294954186 |
|     418 | 0x030D      |         781 |
|     419 | 0x2971      |       10609 |
|     420 | 0x2972      |       10610 |
|     421 | 0x0CBE      |        3262 |
|     422 | 0x2973      |       10611 |
|     423 | 0x2974      |       10612 |
|     424 | 0x0CBD      |        3261 |
|     425 | 0x2975      |       10613 |
|     426 | 0x2976      |       10614 |
|     427 | 0x2977      |       10615 |
|     428 | 0x2978      |       10616 |
|     429 | 0x2979      |       10617 |
|     430 | 0x297A      |       10618 |
|     431 | 0x297B      |       10619 |
|     432 | 0x297C      |       10620 |
|     433 | 0x297D      |       10621 |
|     434 | 0x297E      |       10622 |
|     435 | 0x297F      |       10623 |
|     436 | 0x2980      |       10624 |
|     437 | 0x2981      |       10625 |
|     438 | 0x2982      |       10626 |
|     439 | 0x2983      |       10627 |
|     440 | 0x2984      |       10628 |
|     441 | 0x0095      |         149 |
|     442 | 0x2985      |       10629 |
|     443 | 0x2986      |       10630 |
|     444 | 0x2987      |       10631 |
|     445 | 0x2988      |       10632 |
|     446 | 0x2989      |       10633 |
|     447 | 0x00BD      |         189 |
|     448 | 0x298A      |       10634 |
|     449 | 0x298B      |       10635 |
|     450 | 0x0011      |          17 |
|     451 | 0x298C      |       10636 |
|     452 | 0x298D      |       10637 |
|     453 | 0x02BC      |         700 |
|     454 | 0x298E      |       10638 |
|     455 | 0x298F      |       10639 |
|     456 | 0x2990      |       10640 |
|     457 | 0x00F4      |         244 |
|     458 | 0x01BE      |         446 |
|     459 | 0xFFFF1924  |  4294908196 |
|     460 | 0xFFFFF704  |  4294964996 |
|     461 | 0xFFFFFE0C  |  4294966796 |
|     462 | 0x02BF      |         703 |
|     463 | 0xFFFF200E  |  4294909966 |
|     464 | 0xFFFFDE86  |  4294958726 |
|     465 | 0xFFFF23A6  |  4294910886 |
|     466 | 0xFFFFDB98  |  4294957976 |
|     467 | 0xFFFF191A  |  4294908186 |
|     468 | 0xFFFFE34A  |  4294959946 |
|     469 | 0xFFFF205E  |  4294910046 |
|     470 | 0xFFFFD828  |  4294957096 |
|     471 | 0x0973      |        2419 |
|     472 | 0xFFFF19EC  |  4294908396 |
|     473 | 0xFFFFD3FA  |  4294956026 |
|     474 | 0xFFFFFB8C  |  4294966156 |
|     475 | 0xFFFFFAC1  |  4294965953 |
|     476 | 0x2991      |       10641 |
|     477 | 0x2992      |       10642 |
|     478 | 0x2993      |       10643 |
|     479 | 0x0B92      |        2962 |
|     480 | 0x2A0F      |       10767 |
|     481 | 0x2994      |       10644 |
|     482 | 0x2995      |       10645 |
|     483 | 0x2996      |       10646 |
|     484 | 0x2997      |       10647 |
|     485 | 0x0040      |          64 |
|     486 | 0x2998      |       10648 |
|     487 | 0x01AE      |         430 |
|     488 | 0x022E      |         558 |
|     489 | 0x2999      |       10649 |
|     490 | 0x299A      |       10650 |
|     491 | 0x299B      |       10651 |
|     492 | 0x299C      |       10652 |
|     493 | 0x299D      |       10653 |
|     494 | 0x299E      |       10654 |
|     495 | 0x299F      |       10655 |
|     496 | 0x29A0      |       10656 |
|     497 | 0x29A1      |       10657 |
|     498 | 0x29A2      |       10658 |
|     499 | 0x29A3      |       10659 |
|     500 | 0x29A4      |       10660 |
|     501 | 0x29A5      |       10661 |
|     502 | 0x29A7      |       10663 |
|     503 | 0x29A6      |       10662 |
|     504 | 0x29A8      |       10664 |
|     505 | 0x29A9      |       10665 |
|     506 | 0x0026      |          38 |
|     507 | 0x12CF0     |       77040 |
|     508 | 0xFFFE181C  |  4294842396 |
|     509 | 0x165F1     |       91633 |
|     510 | 0xFFFE318F  |  4294848911 |
|     511 | 0x29AA      |       10666 |
|     512 | 0x29AB      |       10667 |
|     513 | 0x29AC      |       10668 |
|     514 | 0x29AD      |       10669 |
|     515 | 0x11AF      |        4527 |
|     516 | 0x29AE      |       10670 |
|     517 | 0x29AF      |       10671 |
|     518 | 0x29B0      |       10672 |
|     519 | 0x29B1      |       10673 |
|     520 | 0x29B2      |       10674 |
|     521 | 0x29B3      |       10675 |
|     522 | 0x29B4      |       10676 |
|     523 | 0x080A      |        2058 |
|     524 | 0x29B5      |       10677 |
|     525 | 0x29B6      |       10678 |
|     526 | 0x29B7      |       10679 |
|     527 | 0x0B95      |        2965 |
|     528 | 0x29B8      |       10680 |
|     529 | 0x29B9      |       10681 |
|     530 | 0x052F      |        1327 |
|     531 | 0x29BA      |       10682 |
|     532 | 0x29BB      |       10683 |
|     533 | 0x29BC      |       10684 |
|     534 | 0x29BD      |       10685 |
|     535 | 0x29BE      |       10686 |
|     536 | 0x29BF      |       10687 |
|     537 | 0x29C0      |       10688 |
|     538 | 0x29C1      |       10689 |
|     539 | 0x14654     |       83540 |
|     540 | 0xFFFE2C94  |  4294847636 |
|     541 | 0x1433E     |       82750 |
|     542 | 0xFFFE30EA  |  4294848746 |
|     543 | 0x144BA     |       83130 |
|     544 | 0xFFFE22BC  |  4294845116 |
|     545 | 0x0E92      |        3730 |
|     546 | 0xFFFFFE73  |  4294966899 |
|     547 | 0x14104     |       82180 |
|     548 | 0xFFFE258C  |  4294845836 |
|     549 | 0x29C4      |       10692 |
|     550 | 0x29C5      |       10693 |
|     551 | 0x29C6      |       10694 |
|     552 | 0x29C7      |       10695 |
|     553 | 0x29C8      |       10696 |
|     554 | 0x29C9      |       10697 |
|     555 | 0x29CA      |       10698 |
|     556 | 0x19A8C     |      105100 |
|     557 | 0x23C08     |      146440 |
|     558 | 0x7530      |       30000 |
|     559 | 0x19C62     |      105570 |
|     560 | 0x23D66     |      146790 |
|     561 | 0x29CB      |       10699 |
|     562 | 0x29CC      |       10700 |
|     563 | 0x29CD      |       10701 |
|     564 | 0x157C0     |       88000 |
|     565 | 0x153D8     |       87000 |
|     566 | 0xFFFE3EC8  |  4294852296 |
|     567 | 0x29CE      |       10702 |
|     568 | 0x29CF      |       10703 |
|     569 | 0x29D0      |       10704 |
|     570 | 0x29D1      |       10705 |
|     571 | 0x29D2      |       10706 |
|     572 | 0x29D3      |       10707 |
|     573 | 0x29D4      |       10708 |
|     574 | 0x006C      |         108 |
|     575 | 0x0018      |          24 |
|     576 | 0x1485      |        5253 |
|     577 | 0x29D5      |       10709 |
|     578 | 0x139E8     |       80360 |
|     579 | 0xFFFE2F28  |  4294848296 |
|     580 | 0x00E1      |         225 |
|     581 | 0x03BD      |         957 |
|     582 | 0x29C2      |       10690 |
|     583 | 0x29C3      |       10691 |
|     584 | 0x024B      |         587 |
|     585 | 0xFFFEDCFC  |  4294892796 |
|     586 | 0xFFFFFD75  |  4294966645 |
|     587 | 0x1705C     |       94300 |
|     588 | 0xFFFEDA40  |  4294892096 |
|     589 | 0x057F      |        1407 |
|     590 | 0x19A28     |      105000 |
|     591 | 0xFFFECF50  |  4294889296 |
|     592 | 0xFFFED7E8  |  4294891496 |
|     593 | 0x19E10     |      106000 |
|     594 | 0xFFFED5F4  |  4294890996 |
|     595 | 0x1A3EC     |      107500 |
|     596 | 0xFFFED658  |  4294891096 |
|     597 | 0x0282      |         642 |
|     598 | 0x2A39      |       10809 |
|     599 | 0x00B3      |         179 |
|     600 | 0x2A3A      |       10810 |
|     601 | 0x2A3B      |       10811 |
|     602 | 0x2A3C      |       10812 |
|     603 | 0x2A3D      |       10813 |
|     604 | 0x2A3E      |       10814 |
|     605 | 0x2A3F      |       10815 |
|     606 | 0x2A40      |       10816 |
|     607 | 0x2A41      |       10817 |
|     608 | 0x2A42      |       10818 |
|     609 | 0x2A43      |       10819 |
|     610 | 0x0045      |          69 |
|     611 | 0x2A44      |       10820 |
|     612 | 0x0BC4      |        3012 |
|     613 | 0x2A45      |       10821 |
|     614 | 0x2A46      |       10822 |
|     615 | 0x2A47      |       10823 |
|     616 | 0x2A48      |       10824 |
|     617 | 0x2A49      |       10825 |
|     618 | 0x2A4A      |       10826 |
|     619 | 0x2A4B      |       10827 |
|     620 | 0x2A4C      |       10828 |
|     621 | 0x2A4D      |       10829 |
|     622 | 0x2A4E      |       10830 |
|     623 | 0x2A4F      |       10831 |
|     624 | 0x2A50      |       10832 |
|     625 | 0x2A51      |       10833 |
|     626 | 0x2A52      |       10834 |
|     627 | 0x2A53      |       10835 |
|     628 | 0x2A54      |       10836 |
|     629 | 0x2A55      |       10837 |
|     630 | 0x2A56      |       10838 |
|     631 | 0x2A57      |       10839 |
|     632 | 0x2A58      |       10840 |
|     633 | 0x2A59      |       10841 |
|     634 | 0x2A5A      |       10842 |
|     635 | 0x2A5B      |       10843 |
|     636 | 0x2A5C      |       10844 |
|     637 | 0x0A68      |        2664 |
|     638 | 0x2A5D      |       10845 |
|     639 | 0x2A5E      |       10846 |
|     640 | 0x2A5F      |       10847 |
|     641 | 0x2A60      |       10848 |
|     642 | 0x19051     |      102481 |
|     643 | 0xFFFEC46C  |  4294886508 |
|     644 | 0x115C      |        4444 |
|     645 | 0x2A61      |       10849 |
|     646 | 0x2A62      |       10850 |
|     647 | 0x2A63      |       10851 |
|     648 | 0x2A64      |       10852 |
|     649 | 0x2A65      |       10853 |
|     650 | 0x2A66      |       10854 |
|     651 | 0x2A67      |       10855 |
|     652 | 0x2A68      |       10856 |
|     653 | 0x2A69      |       10857 |
|     654 | 0x2A6A      |       10858 |
|     655 | 0x2A6B      |       10859 |
|     656 | 0x2A6C      |       10860 |
|     657 | 0x2A6D      |       10861 |
|     658 | 0x2A6E      |       10862 |
|     659 | 0x2A6F      |       10863 |
|     660 | 0x2A70      |       10864 |
|     661 | 0x2A71      |       10865 |
|     662 | 0x2A72      |       10866 |
|     663 | 0x2A73      |       10867 |
|     664 | 0x2A74      |       10868 |
|     665 | 0x2A75      |       10869 |
|     666 | 0x2A76      |       10870 |
|     667 | 0x006E      |         110 |
|     668 | 0x2A77      |       10871 |
|     669 | 0x2A78      |       10872 |
|     670 | 0x2A79      |       10873 |
|     671 | 0x2A7A      |       10874 |
|     672 | 0x2A7C      |       10876 |
|     673 | 0x2A7D      |       10877 |
|     674 | 0x2A7E      |       10878 |
|     675 | 0x2A7F      |       10879 |
|     676 | 0x2A80      |       10880 |
|     677 | 0x2A81      |       10881 |
|     678 | 0x2A82      |       10882 |
|     679 | 0x2A83      |       10883 |
|     680 | 0x2A84      |       10884 |
|     681 | 0x2A85      |       10885 |
|     682 | 0x2A86      |       10886 |
|     683 | 0x2A87      |       10887 |
|     684 | 0x2A88      |       10888 |
|     685 | 0x2A89      |       10889 |
|     686 | 0x2A8A      |       10890 |
|     687 | 0x0027      |          39 |
|     688 | 0x2A8B      |       10891 |
|     689 | 0x2A8C      |       10892 |
|     690 | 0x2A8D      |       10893 |
|     691 | 0x2A8E      |       10894 |
|     692 | 0x2A8F      |       10895 |
|     693 | 0x2A90      |       10896 |
|     694 | 0x2A91      |       10897 |
|     695 | 0x2A92      |       10898 |
|     696 | 0x2A93      |       10899 |
|     697 | 0x2A94      |       10900 |
|     698 | 0x2A95      |       10901 |
|     699 | 0x2A96      |       10902 |
|     700 | 0x2A97      |       10903 |
|     701 | 0x17F83     |       98179 |
|     702 | 0xFFFEC484  |  4294886532 |
|     703 | 0xFFFFFC18  |  4294966296 |
|     704 | 0x2A98      |       10904 |
|     705 | 0x2A99      |       10905 |
|     706 | 0x2A9A      |       10906 |
|     707 | 0x2A9B      |       10907 |
|     708 | 0x2A9C      |       10908 |
|     709 | 0x2A9D      |       10909 |
|     710 | 0x2A9E      |       10910 |
|     711 | 0x2A9F      |       10911 |
|     712 | 0x2AA0      |       10912 |
|     713 | 0x2AA1      |       10913 |
|     714 | 0x2AA2      |       10914 |
|     715 | 0x2AA3      |       10915 |
|     716 | 0x2AA4      |       10916 |
|     717 | 0x2AA5      |       10917 |
|     718 | 0x2AA6      |       10918 |
|     719 | 0x2AA7      |       10919 |
|     720 | 0x2AA8      |       10920 |
|     721 | 0x2AA9      |       10921 |
|     722 | 0x2AAA      |       10922 |
|     723 | 0x2AAB      |       10923 |
|     724 | 0x2AAC      |       10924 |
|     725 | 0x2AAD      |       10925 |
|     726 | 0x2AAE      |       10926 |
|     727 | 0x2AAF      |       10927 |
|     728 | 0x2AB0      |       10928 |
|     729 | 0x2AB1      |       10929 |
|     730 | 0x0F4F      |        3919 |
|     731 | 0x0F57      |        3927 |
|     732 | 0x2AB2      |       10930 |
|     733 | 0x2204      |        8708 |
|     734 | 0x2AB3      |       10931 |
|     735 | 0x2AB4      |       10932 |
|     736 | 0x2AB5      |       10933 |
|     737 | 0x2AB6      |       10934 |
|     738 | 0x0064      |         100 |
|     739 | 0x1749A     |       95386 |
|     740 | 0xFFFED8F8  |  4294891768 |
|     741 | 0x16669     |       91753 |
|     742 | 0xFFFEE5DD  |  4294895069 |
|     743 | 0x2AC0      |       10944 |
|     744 | 0x2AC1      |       10945 |
|     745 | 0x2AC2      |       10946 |
|     746 | 0x2AC3      |       10947 |
|     747 | 0x2AC4      |       10948 |
|     748 | 0x2AC5      |       10949 |
|     749 | 0x2AC6      |       10950 |
|     750 | 0x2AC7      |       10951 |
|     751 | 0x2AC8      |       10952 |
|     752 | 0x2AC9      |       10953 |
|     753 | 0x2ACA      |       10954 |
|     754 | 0x2ACB      |       10955 |
|     755 | 0x01E0      |         480 |
|     756 | 0x2ACC      |       10956 |
|     757 | 0x2ACD      |       10957 |
|     758 | 0x2ACE      |       10958 |
|     759 | 0x0168      |         360 |
|     760 | 0x2ACF      |       10959 |
|     761 | 0x2AD0      |       10960 |
|     762 | 0x2AD1      |       10961 |
|     763 | 0x2AD2      |       10962 |
|     764 | 0x2AD3      |       10963 |
|     765 | 0x2AD4      |       10964 |
|     766 | 0x2AD5      |       10965 |
|     767 | 0x16670     |       91760 |
|     768 | 0xFFFEDEF0  |  4294893296 |
|     769 | 0x16EE0     |       93920 |
|     770 | 0xFFFEC776  |  4294887286 |
|     771 | 0x16AC6     |       92870 |
|     772 | 0xFFFECD34  |  4294888756 |
|     773 | 0x18092     |       98450 |
|     774 | 0xFFFECBAE  |  4294888366 |
|     775 | 0x16260     |       90720 |
|     776 | 0xFFFEDE50  |  4294893136 |
|     777 | 0x17124     |       94500 |
|     778 | 0xFFFEDB08  |  4294892296 |
|     779 | 0xFFFFF801  |  4294965249 |
|     780 | 0x030E      |         782 |
|     781 | 0x2AD6      |       10966 |
|     782 | 0x2AD7      |       10967 |
|     783 | 0x1738      |        5944 |
|     784 | 0x2AD8      |       10968 |
|     785 | 0x2AD9      |       10969 |
|     786 | 0x2ADA      |       10970 |
|     787 | 0x2ADB      |       10971 |
|     788 | 0x2ADC      |       10972 |
|     789 | 0x2ADD      |       10973 |
|     790 | 0x2ADE      |       10974 |
|     791 | 0x2ADF      |       10975 |
|     792 | 0x2AE0      |       10976 |
|     793 | 0x2AE1      |       10977 |
|     794 | 0x12DC2     |       77250 |
|     795 | 0x1CF7A     |      118650 |
|     796 | 0x10B26     |       68390 |
|     797 | 0x1F23E     |      127550 |
|     798 | 0x125F2     |       75250 |
|     799 | 0x1D74A     |      120650 |
|     800 | 0x2AE2      |       10978 |
|     801 | 0x2AE3      |       10979 |
|     802 | 0x2AE4      |       10980 |
|     803 | 0x2AE5      |       10981 |
|     804 | 0x2AE6      |       10982 |
|     805 | 0x2AE7      |       10983 |
|     806 | 0x2AE8      |       10984 |
|     807 | 0x2AE9      |       10985 |
|     808 | 0x2AEA      |       10986 |
|     809 | 0x2AEB      |       10987 |
|     810 | 0x2AEC      |       10988 |
|     811 | 0x2AED      |       10989 |
|     812 | 0x2AEE      |       10990 |
|     813 | 0x43F7      |       17399 |
|     814 | 0x2AEF      |       10991 |
|     815 | 0x2AF0      |       10992 |
|     816 | 0x2AF1      |       10993 |
|     817 | 0x2AF4      |       10996 |
|     818 | 0x2AF5      |       10997 |
|     819 | 0x2AF6      |       10998 |
|     820 | 0x2AFA      |       11002 |
|     821 | 0x2AF7      |       10999 |
|     822 | 0x2AF8      |       11000 |
|     823 | 0x0047      |          71 |
|     824 | 0x2AF9      |       11001 |
|     825 | 0xFA00      |       64000 |
|     826 | 0x1E208     |      123400 |
|     827 | 0x2AFC      |       11004 |
|     828 | 0x0954      |        2388 |
|     829 | 0x2AFD      |       11005 |
|     830 | 0x004B      |          75 |
|     831 | 0x0416      |        1046 |
|     832 | 0x0BD5      |        3029 |
|     833 | 0x2AFE      |       11006 |
|     834 | 0x008D      |         141 |
|     835 | 0x2AFF      |       11007 |
|     836 | 0x2B00      |       11008 |
|     837 | 0x2B01      |       11009 |
|     838 | 0x2B02      |       11010 |
|     839 | 0x2B03      |       11011 |
|     840 | 0x2B04      |       11012 |
|     841 | 0x2B05      |       11013 |
|     842 | 0x2B06      |       11014 |
|     843 | 0x2B07      |       11015 |
|     844 | 0x2B08      |       11016 |
|     845 | 0x2B09      |       11017 |
|     846 | 0x2B0A      |       11018 |
|     847 | 0x2B0B      |       11019 |
|     848 | 0x2B0C      |       11020 |
|     849 | 0x2B0D      |       11021 |
|     850 | 0x2B0E      |       11022 |
|     851 | 0x08EC      |        2284 |
|     852 | 0x2B0F      |       11023 |
|     853 | 0x2B10      |       11024 |
|     854 | 0x2B11      |       11025 |
|     855 | 0x2B12      |       11026 |
|     856 | 0x2B13      |       11027 |
|     857 | 0x2B14      |       11028 |
|     858 | 0x2B15      |       11029 |
|     859 | 0x2B16      |       11030 |
|     860 | 0x2B17      |       11031 |
|     861 | 0x2B18      |       11032 |
|     862 | 0x2B19      |       11033 |
|     863 | 0x0024      |          36 |
|     864 | 0x2B1A      |       11034 |
|     865 | 0x0BC1      |        3009 |
|     866 | 0x2B1B      |       11035 |
|     867 | 0x2B1C      |       11036 |
|     868 | 0x2B1D      |       11037 |
|     869 | 0x2B1E      |       11038 |
|     870 | 0x2B1F      |       11039 |
|     871 | 0x2B20      |       11040 |
|     872 | 0x2B22      |       11042 |
|     873 | 0x2B23      |       11043 |
|     874 | 0x2B24      |       11044 |
|     875 | 0x2B25      |       11045 |
|     876 | 0x2B26      |       11046 |
|     877 | 0x2B27      |       11047 |
|     878 | 0x2B28      |       11048 |
|     879 | 0x2B29      |       11049 |
|     880 | 0x2B2A      |       11050 |
|     881 | 0x2B2B      |       11051 |
|     882 | 0x2B2C      |       11052 |
|     883 | 0x2B2D      |       11053 |
|     884 | 0x2B2E      |       11054 |
|     885 | 0x0258      |         600 |
|     886 | 0x15B76     |       88950 |
|     887 | 0xFFFEDA9A  |  4294892186 |
|     888 | 0x164F4     |       91380 |
|     889 | 0xFFFEDDCE  |  4294893006 |
|     890 | 0x16062     |       90210 |
|     891 | 0xFFFEDA86  |  4294892166 |
|     892 | 0x2B30      |       11056 |
|     893 | 0x2B31      |       11057 |
|     894 | 0x2B32      |       11058 |
|     895 | 0x6425      |       25637 |
|     896 | 0x2B33      |       11059 |
|     897 | 0x2B34      |       11060 |
|     898 | 0x2B35      |       11061 |
|     899 | 0x2B36      |       11062 |
|     900 | 0x2B37      |       11063 |
|     901 | 0x2B38      |       11064 |
|     902 | 0x2B39      |       11065 |
|     903 | 0x002C      |          44 |
|     904 | 0x2B3A      |       11066 |
|     905 | 0x2B40      |       11072 |
|     906 | 0x2B41      |       11073 |
|     907 | 0x2B3B      |       11067 |
|     908 | 0xC350      |       50000 |
|     909 | 0x2B3C      |       11068 |
|     910 | 0x2B3D      |       11069 |
|     911 | 0x2B3E      |       11070 |
|     912 | 0x2B3F      |       11071 |

## String References

- **8305**: @@
- **10424**: Your management skill has increased by 0.$0!
- **10425**: ...Probably.
- **10439**: How do you respond? [You wish you had a boyfriend./You mean money!/You want me to find Tarutaru Sauce.]
- **10454**: Musto-Rusto's cheeks begin to flush at the thought of Minnifi Delqabba.
- **10480**: What hat will you choose? [The $0./The $1./The $2.]
- **10482**: Is this your choice? [Yes./No./Start over.]
- **10484**: How should he strike up a conversation? [Hey, pretty. Wanna see my Mog Garden?/I heard you're an excellent cookt./I wanna see you in a subligar!]
- **10487**: What kind of pose should he do? [A lively jig./A flourishing welcome./A panic attack!]
- **10491**: Which gift will you choose? [$0./$1./$2./$3./$4./$5.]
- **10595**: What next? [Open the barrel./[Poke the barrel/Tap on the barrel/Pound on the barrel/Growl at the barrel/Growl at the barrel]./Flee the scene.]
- **10690**: Your management skill is now $1.
- **10691**: Congratulations! You are now an official manager!
- **10767**: You hand over the $3.
- **10850**: If it isn't my two favorite maesters. Having a lovely heart-to-heart, are we?
- **10901**: What needs to happen? [Get angry./Cheer up./Dodge the issue.]
- **10903**: Who should do this? [Amchuchu./Gratzigg./Cid.]
- **10978**: What do you say? [Hey, Midras!/Hey, Junior!]
- **11007**: A small piece of paper is folded inside the $3.
- **11008**: "To Midras, my precious son. I hope you can one day forgive the man who left you without a father and vanished like I did.
- **11009**: "Having you in his life has taught this selfish wreck of a man so much about the world and so much about himself. That there are things in this life that can't be mended even with all the tools and technology conceivable by human genius.
- **11010**: "Yet, you made me realize that even in a world where nothing is in our control, we can still live for those we love.
- **11011**: "Thank you, Midras, for coming into my life. I only wish I could see you again one last t--"
- **11012**: The letter is torn beyond this point.
- **11017**: Which father should he live up to? [Cid./Almid./Amchuchu.]
- **11037**: Midras : Amchuchu? Haha, somehow I don't think she'd qualify.
- **11069**: Pay $1 bayld for the spare? [Sure./Wait, never mind.]

## Events

### Event 65535

#### Metadata

| Field        | Value   |
|--------------|---------|
| Entrypoint   | 0x0000  |
| Data Size    | 1 bytes |
| Instructions | 1       |

```
      00 01 02 03 04 05 06 07  08 09 0A 0B 0C 0D 0E 0F
      -- -- -- -- -- -- -- --  -- -- -- -- -- -- -- --
0000: 00                                                .               
```

#### Opcodes

```
  0: 0x0000 [0x00] END_REQSTACK()
```

### Event 5092

#### Metadata

| Field        | Value      |
|--------------|------------|
| Entrypoint   | 0x0001     |
| Data Size    | 3264 bytes |
| Instructions | 423        |

```
      00 01 02 03 04 05 06 07  08 09 0A 0B 0C 0D 0E 0F
      -- -- -- -- -- -- -- --  -- -- -- -- -- -- -- --
0000:    42 45 00 80 F0 FF FF  7F F0 FF FF 7F 66 64 6F   BE..........fdo
0010: 31 01 80 55 00 80 F0 FF  FF 7F F0 FF FF 7F 66 64  1..U..........fd
0020: 6F 31 46 01 38 02 80 75  00 03 80 75 01 94 01 D8  o1F.8..u...u....
0030: 00 10 01 94 01 F0 FF FF  7F 94 01 65 01 10 01 7B  ...........e...{
0040: D8 00 10 01 BA D8 00 10  01 04 80 05 80 06 80 07  ................
0050: 80 5B 08 80 D8 00 10 01  D8 00 10 01 65 64 30 30  .[..........ed00
0060: 4A F0 FF FF 7F F0 FF FF  7F 6F 76 F0 FF FF 7F BA  J........ov.....
0070: F0 FF FF 7F 09 80 0A 80  06 80 0B 80 4E 00 66 01  ............N.f.
0080: 10 01 4E 00 67 01 10 01  4E 00 68 01 10 01 4E 00  ..N.g...N.h...N.
0090: 69 01 10 01 4E 00 6B 01  10 01 2F 00 DE 00 10 01  i...N.k.../.....
00A0: 4E 00 DE 00 10 01 BA DE  00 10 01 0C 80 0D 80 06  N...............
00B0: 80 0E 80 2F 00 DF 00 10  01 4E 00 DF 00 10 01 BA  .../.....N......
00C0: DF 00 10 01 0F 80 10 80  06 80 0B 80 4A DF 00 10  ............J...
00D0: 01 DE 00 10 01 6F 76 DF  00 10 01 2F 00 E0 00 10  .....ov..../....
00E0: 01 4E 00 E0 00 10 01 BA  E0 00 10 01 11 80 12 80  .N..............
00F0: 06 80 13 80 2F 00 E1 00  10 01 4E 00 E1 00 10 01  ..../.....N.....
0100: BA E1 00 10 01 14 80 15  80 06 80 0B 80 4A E1 00  .............J..
0110: 10 01 E0 00 10 01 6F 76  E1 00 10 01 2F 00 E2 00  ......ov..../...
0120: 10 01 4E 00 E2 00 10 01  BA E2 00 10 01 16 80 17  ..N.............
0130: 80 06 80 08 80 2F 00 E3  00 10 01 4E 00 E3 00 10  ...../.....N....
0140: 01 BA E3 00 10 01 18 80  19 80 06 80 1A 80 4A E3  ..............J.
0150: 00 10 01 E2 00 10 01 6F  76 E3 00 10 01 2F 00 F3  .......ov..../..
0160: 00 10 01 4E 00 F3 00 10  01 29 10 F3 00 10 01 03  ...N.....)......
0170: BA F3 00 10 01 1B 80 1C  80 1D 80 1A 80 80 D8 00  ................
0180: 10 01 80 F0 FF FF 7F 80  65 01 10 01 80 66 01 10  ........e....f..
0190: 01 80 67 01 10 01 80 68  01 10 01 80 69 01 10 01  ..g....h....i...
01A0: 80 6B 01 10 01 80 DE 00  10 01 80 DF 00 10 01 80  .k..............
01B0: E0 00 10 01 80 E1 00 10  01 80 E2 00 10 01 80 E3  ................
01C0: 00 10 01 27 10 F0 FF FF  7F 42 1C 1E 80 45 1F 80  ...'.....B...E..
01D0: F8 FF FF 7F F8 FF FF 7F  73 30 30 30 01 80 45 00  ........s000..E.
01E0: 80 F0 FF FF 7F F0 FF FF  7F 66 64 69 31 01 80 1C  .........fdi1...
01F0: 1E 80 BB 20 80 E2 00 10  01 E2 00 10 01 6D 35 30  ... .........m50
0200: 35 01 80 1C 1E 80 66 21  80 DE 00 10 01 DE 00 10  5.....f!........
0210: 01 74 68 6B 31 1C 1E 80  6E E0 00 10 01 22 80 99  .thk1...n...."..
0220: E0 00 10 01 1C 20 80 2A  10 F0 FF FF 7F 6E E1 00  ..... .*.....n..
0230: 10 01 23 80 99 E1 00 10  01 1C 1E 80 4A F0 FF FF  ..#.........J...
0240: 7F E1 00 10 01 1C 1E 80  BB 20 80 E2 00 10 01 E2  ......... ......
0250: 00 10 01 6D 36 31 31 01  80 1C 24 80 6E E3 00 10  ...m611...$.n...
0260: 01 23 80 99 E3 00 10 01  1C 1E 80 4A F0 FF FF 7F  .#.........J....
0270: E3 00 10 01 6E DF 00 10  01 21 80 99 DF 00 10 01  ....n....!......
0280: 1C 25 80 7B F0 FF FF 7F  27 10 F0 FF FF 7F 43 1C  .%.{....'.....C.
0290: 1E 80 52 1F 80 F8 FF FF  7F F8 FF FF 7F 73 30 30  ..R..........s00
02A0: 30 02 87 7F 26 80 80 BD  02 45 1F 80 F8 FF FF 7F  0...&....E......
02B0: F8 FF FF 7F 73 30 31 33  01 80 01 EA 02 02 87 7F  ....s013........
02C0: 27 80 80 D9 02 45 1F 80  F8 FF FF 7F F8 FF FF 7F  '....E..........
02D0: 73 30 31 33 01 80 01 EA  02 45 1F 80 F8 FF FF 7F  s013.....E......
02E0: F8 FF FF 7F 73 30 30 31  01 80 BB 28 80 F8 FF FF  ....s001...(....
02F0: 7F F8 FF FF 7F 73 65 66  30 01 80 6E E2 00 10 01  .....sef0..n....
0300: 29 80 99 E2 00 10 01 1C  1E 80 2A 10 F0 FF FF 7F  ).........*.....
0310: 4A F0 FF FF 7F 67 01 10  01 27 10 E3 00 10 01 02  J....g...'......
0320: 2A 10 E3 00 10 01 1C 1E  80 9F 2A 80 E3 00 10 01  *.........*.....
0330: E3 00 10 01 6D 61 69 6E  01 80 1C 2B 80 6E E0 00  ....main...+.n..
0340: 10 01 22 80 99 E0 00 10  01 4A F0 FF FF 7F 66 01  .."......J....f.
0350: 10 01 02 87 7F 26 80 80  7D 03 52 1F 80 F8 FF FF  .....&..}.R.....
0360: 7F F8 FF FF 7F 73 30 31  33 45 1F 80 F8 FF FF 7F  .....s013E......
0370: F8 FF FF 7F 73 30 31 34  01 80 01 C8 03 02 87 7F  ....s014........
0380: 27 80 80 A8 03 52 1F 80  F8 FF FF 7F F8 FF FF 7F  '....R..........
0390: 73 30 31 33 45 1F 80 F8  FF FF 7F F8 FF FF 7F 73  s013E..........s
03A0: 30 31 34 01 80 01 C8 03  52 1F 80 F8 FF FF 7F F8  014.....R.......
03B0: FF FF 7F 73 30 30 31 45  1F 80 F8 FF FF 7F F8 FF  ...s001E........
03C0: FF 7F 73 30 30 32 01 80  1C 1E 80 2C F3 00 10 01  ..s002.....,....
03D0: F3 00 10 01 6F 70 65 6E  1C 25 80 6E E0 00 10 01  ....open.%.n....
03E0: 29 80 99 E0 00 10 01 6E  E1 00 10 01 29 80 99 E1  )......n....)...
03F0: 00 10 01 1C 2B 80 27 10  E1 00 10 01 02 2A 10 E1  ....+.'......*..
0400: 00 10 01 1C 26 80 9F 2A  80 E1 00 10 01 E1 00 10  ....&..*........
0410: 01 6D 61 69 6E 01 80 1C  2B 80 27 10 F0 FF FF 7F  .main...+.'.....
0420: 44 1C 25 80 02 87 7F 26  80 80 4F 04 52 1F 80 F8  D.%....&..O.R...
0430: FF FF 7F F8 FF FF 7F 73  30 31 34 45 1F 80 F8 FF  .......s014E....
0440: FF 7F F8 FF FF 7F 73 30  31 35 01 80 01 9A 04 02  ......s015......
0450: 87 7F 27 80 80 7A 04 52  1F 80 F8 FF FF 7F F8 FF  ..'..z.R........
0460: FF 7F 73 30 31 34 45 1F  80 F8 FF FF 7F F8 FF FF  ..s014E.........
0470: 7F 73 30 31 35 01 80 01  9A 04 52 1F 80 F8 FF FF  .s015.....R.....
0480: 7F F8 FF FF 7F 73 30 30  32 45 1F 80 F8 FF FF 7F  .....s002E......
0490: F8 FF FF 7F 73 30 30 33  01 80 1C 1E 80 2A 10 F0  ....s003.....*..
04A0: FF FF 7F 4A F0 FF FF 7F  69 01 10 01 66 21 80 DE  ...J....i...f!..
04B0: 00 10 01 DE 00 10 01 74  68 6B 32 1C 20 80 6E DE  .......thk2. .n.
04C0: 00 10 01 2C 80 99 DE 00  10 01 5B 2D 80 DF 00 10  ...,......[-....
04D0: 01 DF 00 10 01 79 61 64  30 1C 26 80 9F 2A 80 DF  .....yad0.&..*..
04E0: 00 10 01 DF 00 10 01 6D  61 69 6E 01 80 1C 25 80  .......main...%.
04F0: 6B 69 64 6C 30 D8 00 10  01 1C 21 80 4A D8 00 10  kidl0.....!.J...
0500: 01 F0 FF FF 7F 6F 76 D8  00 10 01 6E D8 00 10 01  .....ov....n....
0510: 22 80 99 D8 00 10 01 2B  D8 00 10 01 2E 80 23 1C  "......+......#.
0520: 1E 80 4A F0 FF FF 7F D8  00 10 01 1C 1E 80 BB 28  ..J............(
0530: 80 F8 FF FF 7F F8 FF FF  7F 6B 69 6C 73 01 80 BC  .........kils...
0540: 28 80 F8 FF FF 7F F8 FF  FF 7F 6B 69 6C 73 02 87  (.........kils..
0550: 7F 26 80 80 68 05 52 1F  80 F8 FF FF 7F F8 FF FF  .&..h.R.........
0560: 7F 73 30 31 35 01 91 05  02 87 7F 27 80 80 82 05  .s015......'....
0570: 52 1F 80 F8 FF FF 7F F8  FF FF 7F 73 30 31 35 01  R..........s015.
0580: 91 05 52 1F 80 F8 FF FF  7F F8 FF FF 7F 73 30 30  ..R..........s00
0590: 33 45 1F 80 F8 FF FF 7F  F8 FF FF 7F 73 30 30 34  3E..........s004
05A0: 01 80 27 10 DF 00 10 01  02 27 10 E1 00 10 01 03  ..'......'......
05B0: 27 10 E3 00 10 01 03 6F  76 F0 FF FF 7F 27 10 F0  '......ov....'..
05C0: FF FF 7F 45 66 2F 80 D8  00 10 01 D8 00 10 01 74  ...Ef/.........t
05D0: 6C 6B 30 2B D8 00 10 01  30 80 23 2B D8 00 10 01  lk0+....0.#+....
05E0: 31 80 23 2B D8 00 10 01  32 80 23 29 10 6B 01 10  1.#+....2.#).k..
05F0: 01 08 1C 1E 80 52 1F 80  F8 FF FF 7F F8 FF FF 7F  .....R..........
0600: 73 30 30 34 02 87 7F 26  80 80 20 06 45 1F 80 F8  s004...&.. .E...
0610: FF FF 7F F8 FF FF 7F 73  30 31 36 01 80 01 4D 06  .......s016...M.
0620: 02 87 7F 27 80 80 3C 06  45 1F 80 F8 FF FF 7F F8  ...'..<.E.......
0630: FF FF 7F 73 30 31 36 01  80 01 4D 06 45 1F 80 F8  ...s016...M.E...
0640: FF FF 7F F8 FF FF 7F 73  30 30 35 01 80 2A 10 F0  .......s005..*..
0650: FF FF 7F 5B 33 80 D8 00  10 01 D8 00 10 01 6D 61  ...[3.........ma
0660: 6E 30 2B D8 00 10 01 34  80 23 29 10 3B 00 10 01  n0+....4.#).;...
0670: 07 29 10 10 01 10 01 0A  27 10 65 01 10 01 09 1C  .)......'.e.....
0680: 1E 80 7B D8 00 10 01 81  00 D8 00 10 01 5B 08 80  ..{..........[..
0690: D8 00 10 01 D8 00 10 01  65 64 30 30 02 87 7F 26  ........ed00...&
06A0: 80 80 B6 06 52 1F 80 F8  FF FF 7F F8 FF FF 7F 73  ....R..........s
06B0: 30 31 36 01 DF 06 02 87  7F 27 80 80 D0 06 52 1F  016......'....R.
06C0: 80 F8 FF FF 7F F8 FF FF  7F 73 30 31 36 01 DF 06  .........s016...
06D0: 52 1F 80 F8 FF FF 7F F8  FF FF 7F 73 30 30 35 45  R..........s005E
06E0: 1F 80 F8 FF FF 7F F8 FF  FF 7F 73 30 30 36 01 80  ..........s006..
06F0: 2B D8 00 10 01 35 80 23  24 36 80 01 80 01 80 25  +....5.#$6.....%
0700: 02 00 10 01 80 00 54 09  80 3B 00 10 01 80 10 01  ......T..;......
0710: 10 01 5C 00 37 80 5C 01  37 80 9A 52 1F 80 F8 FF  ..\.7.\.7..R....
0720: FF 7F F8 FF FF 7F 73 30  30 36 45 1F 80 F8 FF FF  ......s006E.....
0730: 7F F8 FF FF 7F 73 30 30  37 01 80 27 10 3B 00 10  .....s007..'.;..
0740: 01 09 27 10 10 01 10 01  0D 1C 38 80 80 6B 01 10  ..'.......8..k..
0750: 01 52 1F 80 F8 FF FF 7F  F8 FF FF 7F 73 30 30 37  .R..........s007
0760: 45 1F 80 F8 FF FF 7F F8  FF FF 7F 73 30 30 38 01  E..........s008.
0770: 80 27 10 6B 01 10 01 0A  1C 2B 80 80 65 01 10 01  .'.k.....+..e...
0780: 52 1F 80 F8 FF FF 7F F8  FF FF 7F 73 30 30 38 45  R..........s008E
0790: 1F 80 F8 FF FF 7F F8 FF  FF 7F 73 30 30 39 01 80  ..........s009..
07A0: 81 00 65 01 10 01 5B 39  80 65 01 10 01 65 01 10  ..e...[9.e...e..
07B0: 01 61 73 65 30 1C 24 80  5C 00 3A 80 5C 01 3A 80  .ase0.$.\.:.\.:.
07C0: 9A 81 01 65 01 10 01 52  1F 80 F8 FF FF 7F F8 FF  ...e...R........
07D0: FF 7F 73 30 30 39 45 1F  80 F8 FF FF 7F F8 FF FF  ..s009E.........
07E0: 7F 73 30 31 30 01 80 45  1F 80 F8 FF FF 7F F8 FF  .s010..E........
07F0: FF 7F 62 6F 66 66 01 80  55 1F 80 F8 FF FF 7F F8  ..boff..U.......
0800: FF FF 7F 62 6F 66 66 6B  69 64 6C 30 65 01 10 01  ...boffkidl0e...
0810: 1C 25 80 27 10 D8 00 10  01 0F 2B D8 00 10 01 3B  .%.'......+....;
0820: 80 06 00 00 02 00 00 3C  80 03 3E 08 1C 3D 80 4A  .......<..>..=.J
0830: F0 FF FF 7F D8 00 10 01  0B 00 00 01 24 08 1C 3E  ............$..>
0840: 80 2A 10 D8 00 10 01 4A  F0 FF FF 7F D8 00 10 01  .*.....J........
0850: 23 6F 76 F0 FF FF 7F 4A  D8 00 10 01 F0 FF FF 7F  #ov....J........
0860: 52 1F 80 F8 FF FF 7F F8  FF FF 7F 73 30 31 30 45  R..........s010E
0870: 1F 80 F8 FF FF 7F F8 FF  FF 7F 73 30 31 31 01 80  ..........s011..
0880: 7B D8 00 10 01 1C 1E 80  5B 33 80 D8 00 10 01 D8  {.......[3......
0890: 00 10 01 6D 61 6E 30 2B  D8 00 10 01 3F 80 23 2B  ...man0+....?.#+
08A0: D8 00 10 01 40 80 23 1C  1E 80 52 1F 80 F8 FF FF  ....@.#...R.....
08B0: 7F F8 FF FF 7F 73 30 31  31 02 87 7F 41 80 80 D5  .....s011...A...
08C0: 08 45 1F 80 F8 FF FF 7F  F8 FF FF 7F 73 30 31 38  .E..........s018
08D0: 01 80 01 3A 09 02 87 7F  26 80 80 F1 08 45 1F 80  ...:....&....E..
08E0: F8 FF FF 7F F8 FF FF 7F  73 30 31 37 01 80 01 3A  ........s017...:
08F0: 09 02 87 7F 27 80 80 0D  09 45 1F 80 F8 FF FF 7F  ....'....E......
0900: F8 FF FF 7F 73 30 31 37  01 80 01 3A 09 02 87 7F  ....s017...:....
0910: 2C 80 80 29 09 45 1F 80  F8 FF FF 7F F8 FF FF 7F  ,..).E..........
0920: 73 30 31 39 01 80 01 3A  09 45 1F 80 F8 FF FF 7F  s019...:.E......
0930: F8 FF FF 7F 73 30 31 32  01 80 66 42 80 D8 00 10  ....s012..fB....
0940: 01 D8 00 10 01 70 6F 73  30 2B D8 00 10 01 43 80  .....pos0+....C.
0950: 23 01 DE 0B 02 00 10 44  80 00 78 0A 45 1F 80 F8  #......D..x.E...
0960: FF FF 7F F8 FF FF 7F 73  61 31 30 01 80 6B 69 64  .......sa10..kid
0970: 6C 30 65 01 10 01 1C 25  80 27 10 D8 00 10 01 0F  l0e....%.'......
0980: 2B D8 00 10 01 45 80 06  00 00 02 00 00 3C 80 03  +....E.......<..
0990: A4 09 1C 3D 80 4A F0 FF  FF 7F D8 00 10 01 0B 00  ...=.J..........
09A0: 00 01 8A 09 1C 3E 80 2A  10 D8 00 10 01 4A F0 FF  .....>.*.....J..
09B0: FF 7F D8 00 10 01 23 6F  76 F0 FF FF 7F 4A D8 00  ......#ov....J..
09C0: 10 01 F0 FF FF 7F 52 1F  80 F8 FF FF 7F F8 FF FF  ......R.........
09D0: 7F 73 61 31 30 02 87 7F  41 80 80 F1 09 45 1F 80  .sa10...A....E..
09E0: F8 FF FF 7F F8 FF FF 7F  73 30 31 38 01 80 01 56  ........s018...V
09F0: 0A 02 87 7F 26 80 80 0D  0A 45 1F 80 F8 FF FF 7F  ....&....E......
0A00: F8 FF FF 7F 73 30 31 37  01 80 01 56 0A 02 87 7F  ....s017...V....
0A10: 27 80 80 29 0A 45 1F 80  F8 FF FF 7F F8 FF FF 7F  '..).E..........
0A20: 73 30 31 37 01 80 01 56  0A 02 87 7F 2C 80 80 45  s017...V....,..E
0A30: 0A 45 1F 80 F8 FF FF 7F  F8 FF FF 7F 73 30 31 39  .E..........s019
0A40: 01 80 01 56 0A 45 1F 80  F8 FF FF 7F F8 FF FF 7F  ...V.E..........
0A50: 73 30 31 32 01 80 7B D8  00 10 01 1C 1E 80 66 42  s012..{.......fB
0A60: 80 D8 00 10 01 D8 00 10  01 70 6F 73 30 2B D8 00  .........pos0+..
0A70: 10 01 46 80 23 01 DE 0B  02 00 10 41 80 00 DE 0B  ..F.#......A....
0A80: 45 1F 80 F8 FF FF 7F F8  FF FF 7F 73 61 31 30 01  E..........sa10.
0A90: 80 6B 69 64 6C 30 65 01  10 01 1C 25 80 27 10 D8  .kidl0e....%.'..
0AA0: 00 10 01 0F 2B D8 00 10  01 47 80 06 00 00 02 00  ....+....G......
0AB0: 00 3C 80 03 C8 0A 1C 3D  80 4A F0 FF FF 7F D8 00  .<.....=.J......
0AC0: 10 01 0B 00 00 01 AE 0A  1C 3E 80 2A 10 D8 00 10  .........>.*....
0AD0: 01 4A F0 FF FF 7F D8 00  10 01 23 6F 76 F0 FF FF  .J........#ov...
0AE0: 7F 4A D8 00 10 01 F0 FF  FF 7F 52 1F 80 F8 FF FF  .J........R.....
0AF0: 7F F8 FF FF 7F 73 61 31  30 45 1F 80 F8 FF FF 7F  .....sa10E......
0B00: F8 FF FF 7F 73 30 31 31  01 80 7B D8 00 10 01 1C  ....s011..{.....
0B10: 1E 80 5B 33 80 D8 00 10  01 D8 00 10 01 6D 61 6E  ..[3.........man
0B20: 30 2B D8 00 10 01 48 80  23 2B D8 00 10 01 49 80  0+....H.#+....I.
0B30: 23 1C 1E 80 52 1F 80 F8  FF FF 7F F8 FF FF 7F 73  #...R..........s
0B40: 30 31 31 02 87 7F 41 80  80 5F 0B 45 1F 80 F8 FF  011...A.._.E....
0B50: FF 7F F8 FF FF 7F 73 30  31 38 01 80 01 C4 0B 02  ......s018......
0B60: 87 7F 26 80 80 7B 0B 45  1F 80 F8 FF FF 7F F8 FF  ..&..{.E........
0B70: FF 7F 73 30 31 37 01 80  01 C4 0B 02 87 7F 27 80  ..s017........'.
0B80: 80 97 0B 45 1F 80 F8 FF  FF 7F F8 FF FF 7F 73 30  ...E..........s0
0B90: 31 37 01 80 01 C4 0B 02  87 7F 2C 80 80 B3 0B 45  17........,....E
0BA0: 1F 80 F8 FF FF 7F F8 FF  FF 7F 73 30 31 39 01 80  ..........s019..
0BB0: 01 C4 0B 45 1F 80 F8 FF  FF 7F F8 FF FF 7F 73 30  ...E..........s0
0BC0: 31 32 01 80 66 42 80 D8  00 10 01 D8 00 10 01 70  12..fB.........p
0BD0: 6F 73 30 2B D8 00 10 01  4A 80 23 01 DE 0B 27 10  os0+....J.#...'.
0BE0: F0 FF FF 7F 46 1C 24 80  45 00 80 F0 FF FF 7F F0  ....F.$.E.......
0BF0: FF FF 7F 66 64 6F 31 01  80 55 00 80 F0 FF FF 7F  ...fdo1..U......
0C00: F0 FF FF 7F 66 64 6F 31  02 87 7F 41 80 80 22 0C  ....fdo1...A..".
0C10: 52 1F 80 F8 FF FF 7F F8  FF FF 7F 73 30 31 38 01  R..........s018.
0C20: 7F 0C 02 87 7F 26 80 80  3C 0C 52 1F 80 F8 FF FF  .....&..<.R.....
0C30: 7F F8 FF FF 7F 73 30 31  37 01 7F 0C 02 87 7F 27  .....s017......'
0C40: 80 80 56 0C 52 1F 80 F8  FF FF 7F F8 FF FF 7F 73  ..V.R..........s
0C50: 30 31 37 01 7F 0C 02 87  7F 2C 80 80 70 0C 52 1F  017......,..p.R.
0C60: 80 F8 FF FF 7F F8 FF FF  7F 73 30 31 39 01 7F 0C  .........s019...
0C70: 52 1F 80 F8 FF FF 7F F8  FF FF 7F 73 30 31 32 29  R..........s012)
0C80: 10 F3 00 10 01 01 29 10  3B 00 10 01 08 29 10 10  ......).;....)..
0C90: 01 10 01 0B 29 10 65 01  10 01 0A 29 10 6B 01 10  ....).e....).k..
0CA0: 01 09 1C 4B 80 AB 11 01  80 1C 44 80 46 00 45 00  ...K......D.F.E.
0CB0: 80 F0 FF FF 7F F0 FF FF  7F 66 64 69 32 01 80 21  .........fdi2..!
0CC0: 00                                                .               
```

#### Opcodes

```
  0: 0x0001 [0x42] SET_CLI_EVENT_CANCEL_DATA()
  1: 0x0002 [0x45] LOAD_SCHEDULED_TASK: Load scheduler "fdo1" with entities [LocalPlayer, LocalPlayer], work=[200*, 0*]
  2: 0x0013 [0x55] WAIT_LOAD_SCHEDULER: Wait for scheduler "fdo1" with entities [LocalPlayer, LocalPlayer], work=200*
  3: 0x0022 [0x46] CAMERA_CONTROL: Disable user control
  4: 0x0024 [0x38] SET_CLIENT_EVENT_MODE(mode=19*)
  5: 0x0027 [0x75] LOAD_ROOM(Load indoor room, room=588*)
  6: 0x002B [0x75] LOAD_ROOM(No action)
  7: 0x002D [0x94] Peladi Shalmohr (ID: 17826008/0x011000D8)->Render.Flags3 ^= 0x01
  8: 0x0033 [0x94] LocalPlayer->Render.Flags3 ^= 0x01
  9: 0x0039 [0x94] Masad (ID: 17826149/0x01100165)->Render.Flags3 ^= 0x01
 10: 0x003F [0x7B] Peladi Shalmohr (ID: 17826008/0x011000D8) stops talking
 11: 0x0044 [0xBA] SET_ENTITY_POSITION(entity_id=Peladi Shalmohr (ID: 17826008/0x011000D8), pos_x=-28.210*, pos_z=-96.900*, pos_y=-0.650*, direction=134.9*)
 12: 0x0051 [0x5B] LOAD_EXT_SCHEDULER: Load scheduler "ed00" with entities [Peladi Shalmohr (ID: 17826008/0x011000D8), Peladi Shalmohr (ID: 17826008/0x011000D8)], work=767*
 13: 0x0060 [0x4A] LocalPlayer looks at LocalPlayer
 14: 0x0069 [0x6F] WAIT_FRAME_DELAY: Yield until WaitTime reaches zero
 15: 0x006A [0x76] CHECK_ENTITY_RENDER_FLAGS: Wait until LocalPlayer Render.Flags0 and Render.Flags3 conditions are met
 16: 0x006F [0xBA] SET_ENTITY_POSITION(entity_id=LocalPlayer, pos_x=-35.500*, pos_z=-110.500*, pos_y=-0.650*, direction=377476084.3*)
 17: 0x007C [0x4E] SET_ENTITY_HIDE_FLAG: Show Kerney (ID: 17826150/0x01100166)
 18: 0x0082 [0x4E] SET_ENTITY_HIDE_FLAG: Show Bastingart (ID: 17826151/0x01100167)
 19: 0x0088 [0x4E] SET_ENTITY_HIDE_FLAG: Show Iscandelle (ID: 17826152/0x01100168)
 20: 0x008E [0x4E] SET_ENTITY_HIDE_FLAG: Show Etienne (ID: 17826153/0x01100169)
 21: 0x0094 [0x4E] SET_ENTITY_HIDE_FLAG: Show Lalla-Dalla (ID: 17826155/0x0110016B)
 22: 0x009A [0x2F] Unnamed NPC (ID: 17826014/0x011000DE)->Render.Flags0 &= ~0x80000 // Bit 19
 23: 0x00A0 [0x4E] SET_ENTITY_HIDE_FLAG: Show Unnamed NPC (ID: 17826014/0x011000DE)
 24: 0x00A6 [0xBA] SET_ENTITY_POSITION(entity_id=Unnamed NPC (ID: 17826014/0x011000DE), pos_x=-34.200*, pos_z=-97.700*, pos_y=-0.650*, direction=377476101.5*)
 25: 0x00B3 [0x2F] Unnamed NPC (ID: 17826015/0x011000DF)->Render.Flags0 &= ~0x80000 // Bit 19
 26: 0x00B9 [0x4E] SET_ENTITY_HIDE_FLAG: Show Unnamed NPC (ID: 17826015/0x011000DF)
 27: 0x00BF [0xBA] SET_ENTITY_POSITION(entity_id=Unnamed NPC (ID: 17826015/0x011000DF), pos_x=-33.680*, pos_z=-97.230*, pos_y=-0.650*, direction=377476084.3*)
 28: 0x00CC [0x4A] Unnamed NPC (ID: 17826015/0x011000DF) looks at Unnamed NPC (ID: 17826014/0x011000DE)
 29: 0x00D5 [0x6F] WAIT_FRAME_DELAY: Yield until WaitTime reaches zero
 30: 0x00D6 [0x76] CHECK_ENTITY_RENDER_FLAGS: Wait until Unnamed NPC (ID: 17826015/0x011000DF) Render.Flags0 and Render.Flags3 conditions are met
 31: 0x00DB [0x2F] Unnamed NPC (ID: 17826016/0x011000E0)->Render.Flags0 &= ~0x80000 // Bit 19
 32: 0x00E1 [0x4E] SET_ENTITY_HIDE_FLAG: Show Unnamed NPC (ID: 17826016/0x011000E0)
 33: 0x00E7 [0xBA] SET_ENTITY_POSITION(entity_id=Unnamed NPC (ID: 17826016/0x011000E0), pos_x=-37.550*, pos_z=-101.200*, pos_y=-0.650*, direction=377476067.4*)
 34: 0x00F4 [0x2F] Unnamed NPC (ID: 17826017/0x011000E1)->Render.Flags0 &= ~0x80000 // Bit 19
 35: 0x00FA [0x4E] SET_ENTITY_HIDE_FLAG: Show Unnamed NPC (ID: 17826017/0x011000E1)
 36: 0x0100 [0xBA] SET_ENTITY_POSITION(entity_id=Unnamed NPC (ID: 17826017/0x011000E1), pos_x=-38.200*, pos_z=-101.790*, pos_y=-0.650*, direction=377476084.3*)
 37: 0x010D [0x4A] Unnamed NPC (ID: 17826017/0x011000E1) looks at Unnamed NPC (ID: 17826016/0x011000E0)
 38: 0x0116 [0x6F] WAIT_FRAME_DELAY: Yield until WaitTime reaches zero
 39: 0x0117 [0x76] CHECK_ENTITY_RENDER_FLAGS: Wait until Unnamed NPC (ID: 17826017/0x011000E1) Render.Flags0 and Render.Flags3 conditions are met
 40: 0x011C [0x2F] Unnamed NPC (ID: 17826018/0x011000E2)->Render.Flags0 &= ~0x80000 // Bit 19
 41: 0x0122 [0x4E] SET_ENTITY_HIDE_FLAG: Show Unnamed NPC (ID: 17826018/0x011000E2)
 42: 0x0128 [0xBA] SET_ENTITY_POSITION(entity_id=Unnamed NPC (ID: 17826018/0x011000E2), pos_x=-35.300*, pos_z=-103.400*, pos_y=-0.650*, direction=67.4*)
 43: 0x0135 [0x2F] Unnamed NPC (ID: 17826019/0x011000E3)->Render.Flags0 &= ~0x80000 // Bit 19
 44: 0x013B [0x4E] SET_ENTITY_HIDE_FLAG: Show Unnamed NPC (ID: 17826019/0x011000E3)
 45: 0x0141 [0xBA] SET_ENTITY_POSITION(entity_id=Unnamed NPC (ID: 17826019/0x011000E3), pos_x=-36.000*, pos_z=-104.200*, pos_y=-0.650*, direction=44.9*)
 46: 0x014E [0x4A] Unnamed NPC (ID: 17826019/0x011000E3) looks at Unnamed NPC (ID: 17826018/0x011000E2)
 47: 0x0157 [0x6F] WAIT_FRAME_DELAY: Yield until WaitTime reaches zero
 48: 0x0158 [0x76] CHECK_ENTITY_RENDER_FLAGS: Wait until Unnamed NPC (ID: 17826019/0x011000E3) Render.Flags0 and Render.Flags3 conditions are met
 49: 0x015D [0x2F] Unnamed NPC (ID: 17826035/0x011000F3)->Render.Flags0 &= ~0x80000 // Bit 19
 50: 0x0163 [0x4E] SET_ENTITY_HIDE_FLAG: Show Unnamed NPC (ID: 17826035/0x011000F3)
 51: 0x0169 [0x29] REQ_SET_WAIT(priority=0x10, entity_id=Unnamed NPC (ID: 17826035/0x011000F3), tag_num=0x03)
 52: 0x0170 [0xBA] SET_ENTITY_POSITION(entity_id=Unnamed NPC (ID: 17826035/0x011000F3), pos_x=-38.474*, pos_z=-100.665*, pos_y=-1.756*, direction=44.9*)
 53: 0x017D [0x80] LOAD_WAIT(entity=Peladi Shalmohr (ID: 17826008/0x011000D8))
 54: 0x0182 [0x80] LOAD_WAIT(entity=LocalPlayer)
 55: 0x0187 [0x80] LOAD_WAIT(entity=Masad (ID: 17826149/0x01100165))
 56: 0x018C [0x80] LOAD_WAIT(entity=Kerney (ID: 17826150/0x01100166))
 57: 0x0191 [0x80] LOAD_WAIT(entity=Bastingart (ID: 17826151/0x01100167))
 58: 0x0196 [0x80] LOAD_WAIT(entity=Iscandelle (ID: 17826152/0x01100168))
 59: 0x019B [0x80] LOAD_WAIT(entity=Etienne (ID: 17826153/0x01100169))
 60: 0x01A0 [0x80] LOAD_WAIT(entity=Lalla-Dalla (ID: 17826155/0x0110016B))
 61: 0x01A5 [0x80] LOAD_WAIT(entity=Unnamed NPC (ID: 17826014/0x011000DE))
 62: 0x01AA [0x80] LOAD_WAIT(entity=Unnamed NPC (ID: 17826015/0x011000DF))
 63: 0x01AF [0x80] LOAD_WAIT(entity=Unnamed NPC (ID: 17826016/0x011000E0))
 64: 0x01B4 [0x80] LOAD_WAIT(entity=Unnamed NPC (ID: 17826017/0x011000E1))
 65: 0x01B9 [0x80] LOAD_WAIT(entity=Unnamed NPC (ID: 17826018/0x011000E2))
 66: 0x01BE [0x80] LOAD_WAIT(entity=Unnamed NPC (ID: 17826019/0x011000E3))
 67: 0x01C3 [0x27] REQ_SET(priority=0x10, entity_id=LocalPlayer, tag_num=0x42)
 68: 0x01CA [0x1C] WAIT(30* ticks)
 69: 0x01CD [0x45] LOAD_SCHEDULED_TASK: Load scheduler "s000" with entities [EventEntity, EventEntity], work=[641*, 0*]
 70: 0x01DE [0x45] LOAD_SCHEDULED_TASK: Load scheduler "fdi1" with entities [LocalPlayer, LocalPlayer], work=[200*, 0*]
 71: 0x01EF [0x1C] WAIT(30* ticks)
 72: 0x01F2 [0xBB] LOAD_EVENT_SCHEDULER_ALT: Load scheduler "m505" with entities [Unnamed NPC (ID: 17826018/0x011000E2), Unnamed NPC (ID: 17826018/0x011000E2)], work=[60*, 0*]
 73: 0x0203 [0x1C] WAIT(30* ticks)
 74: 0x0206 [0x66] LOAD_EXT_SCHEDULER_MAIN: Load scheduler "thk1" with entities [Unnamed NPC (ID: 17826014/0x011000DE), Unnamed NPC (ID: 17826014/0x011000DE)], work=20*
 75: 0x0215 [0x1C] WAIT(30* ticks)
 76: 0x0218 [0x6E] Unnamed NPC (ID: 17826016/0x011000E0) uses emote 16*
 77: 0x021F [0x99] Wait for Unnamed NPC (ID: 17826016/0x011000E0) animation to complete
 78: 0x0224 [0x1C] WAIT(60* ticks)
 79: 0x0227 [0x2A] GET_REQ_LEVEL(level=16, entity_id=LocalPlayer)
 80: 0x022D [0x6E] Unnamed NPC (ID: 17826017/0x011000E1) uses emote 12*
 81: 0x0234 [0x99] Wait for Unnamed NPC (ID: 17826017/0x011000E1) animation to complete
 82: 0x0239 [0x1C] WAIT(30* ticks)
 83: 0x023C [0x4A] LocalPlayer looks at Unnamed NPC (ID: 17826017/0x011000E1)
 84: 0x0245 [0x1C] WAIT(30* ticks)
 85: 0x0248 [0xBB] LOAD_EVENT_SCHEDULER_ALT: Load scheduler "m611" with entities [Unnamed NPC (ID: 17826018/0x011000E2), Unnamed NPC (ID: 17826018/0x011000E2)], work=[60*, 0*]
 86: 0x0259 [0x1C] WAIT(180* ticks)
 87: 0x025C [0x6E] Unnamed NPC (ID: 17826019/0x011000E3) uses emote 12*
 88: 0x0263 [0x99] Wait for Unnamed NPC (ID: 17826019/0x011000E3) animation to complete
 89: 0x0268 [0x1C] WAIT(30* ticks)
 90: 0x026B [0x4A] LocalPlayer looks at Unnamed NPC (ID: 17826019/0x011000E3)
 91: 0x0274 [0x6E] Unnamed NPC (ID: 17826015/0x011000DF) uses emote 20*
 92: 0x027B [0x99] Wait for Unnamed NPC (ID: 17826015/0x011000DF) animation to complete
 93: 0x0280 [0x1C] WAIT(90* ticks)
 94: 0x0283 [0x7B] LocalPlayer stops talking
 95: 0x0288 [0x27] REQ_SET(priority=0x10, entity_id=LocalPlayer, tag_num=0x43)
 96: 0x028F [0x1C] WAIT(30* ticks)
 97: 0x0292 [0x52] END_LOAD_SCHEDULER: End scheduler "s000" with entities [EventEntity, EventEntity], work=641*
 98: 0x02A1 [0x02] IF !(LocalPlayer->Race == 5*) GOTO 0x02BD
 99: 0x02A9 [0x45] LOAD_SCHEDULED_TASK: Load scheduler "s013" with entities [EventEntity, EventEntity], work=[641*, 0*]
100: 0x02BA [0x01] GOTO 0x02EA
101: 0x02BD [0x02] IF !(LocalPlayer->Race == 6*) GOTO 0x02D9
102: 0x02C5 [0x45] LOAD_SCHEDULED_TASK: Load scheduler "s013" with entities [EventEntity, EventEntity], work=[641*, 0*]
103: 0x02D6 [0x01] GOTO 0x02EA
104: 0x02D9 [0x45] LOAD_SCHEDULED_TASK: Load scheduler "s001" with entities [EventEntity, EventEntity], work=[641*, 0*]

SUBROUTINE_02EA:
105: 0x02EA [0xBB] LOAD_EVENT_SCHEDULER_ALT: Load scheduler "sef0" with entities [EventEntity, EventEntity], work=[206*, 0*]
106: 0x02FB [0x6E] Unnamed NPC (ID: 17826018/0x011000E2) uses emote 11*
107: 0x0302 [0x99] Wait for Unnamed NPC (ID: 17826018/0x011000E2) animation to complete
108: 0x0307 [0x1C] WAIT(30* ticks)
109: 0x030A [0x2A] GET_REQ_LEVEL(level=16, entity_id=LocalPlayer)
110: 0x0310 [0x4A] LocalPlayer looks at Bastingart (ID: 17826151/0x01100167)
111: 0x0319 [0x27] REQ_SET(priority=0x10, entity_id=Unnamed NPC (ID: 17826019/0x011000E3), tag_num=0x02)
112: 0x0320 [0x2A] GET_REQ_LEVEL(level=16, entity_id=Unnamed NPC (ID: 17826019/0x011000E3))
113: 0x0326 [0x1C] WAIT(30* ticks)
114: 0x0329 [0x9F] LOAD_SCHEDULED_TASK_ALT: Load scheduler "main" with entities [Unnamed NPC (ID: 17826019/0x011000E3), Unnamed NPC (ID: 17826019/0x011000E3)], work=[251*, 0*]
115: 0x033A [0x1C] WAIT(120* ticks)
116: 0x033D [0x6E] Unnamed NPC (ID: 17826016/0x011000E0) uses emote 16*
117: 0x0344 [0x99] Wait for Unnamed NPC (ID: 17826016/0x011000E0) animation to complete
118: 0x0349 [0x4A] LocalPlayer looks at Kerney (ID: 17826150/0x01100166)
119: 0x0352 [0x02] IF !(LocalPlayer->Race == 5*) GOTO 0x037D
120: 0x035A [0x52] END_LOAD_SCHEDULER: End scheduler "s013" with entities [EventEntity, EventEntity], work=641*
121: 0x0369 [0x45] LOAD_SCHEDULED_TASK: Load scheduler "s014" with entities [EventEntity, EventEntity], work=[641*, 0*]
122: 0x037A [0x01] GOTO 0x03C8
123: 0x037D [0x02] IF !(LocalPlayer->Race == 6*) GOTO 0x03A8
124: 0x0385 [0x52] END_LOAD_SCHEDULER: End scheduler "s013" with entities [EventEntity, EventEntity], work=641*
125: 0x0394 [0x45] LOAD_SCHEDULED_TASK: Load scheduler "s014" with entities [EventEntity, EventEntity], work=[641*, 0*]
126: 0x03A5 [0x01] GOTO 0x03C8
127: 0x03A8 [0x52] END_LOAD_SCHEDULER: End scheduler "s001" with entities [EventEntity, EventEntity], work=641*
128: 0x03B7 [0x45] LOAD_SCHEDULED_TASK: Load scheduler "s002" with entities [EventEntity, EventEntity], work=[641*, 0*]

SUBROUTINE_03C8:
129: 0x03C8 [0x1C] WAIT(30* ticks)
130: 0x03CB [0x2C] CREATE_SCHEDULER_TASK: Create scheduler "open" with entities [Unnamed NPC (ID: 17826035/0x011000F3), Unnamed NPC (ID: 17826035/0x011000F3)]
131: 0x03D8 [0x1C] WAIT(90* ticks)
132: 0x03DB [0x6E] Unnamed NPC (ID: 17826016/0x011000E0) uses emote 11*
133: 0x03E2 [0x99] Wait for Unnamed NPC (ID: 17826016/0x011000E0) animation to complete
134: 0x03E7 [0x6E] Unnamed NPC (ID: 17826017/0x011000E1) uses emote 11*
135: 0x03EE [0x99] Wait for Unnamed NPC (ID: 17826017/0x011000E1) animation to complete
136: 0x03F3 [0x1C] WAIT(120* ticks)
137: 0x03F6 [0x27] REQ_SET(priority=0x10, entity_id=Unnamed NPC (ID: 17826017/0x011000E1), tag_num=0x02)
138: 0x03FD [0x2A] GET_REQ_LEVEL(level=16, entity_id=Unnamed NPC (ID: 17826017/0x011000E1))
139: 0x0403 [0x1C] WAIT(5* ticks)
140: 0x0406 [0x9F] LOAD_SCHEDULED_TASK_ALT: Load scheduler "main" with entities [Unnamed NPC (ID: 17826017/0x011000E1), Unnamed NPC (ID: 17826017/0x011000E1)], work=[251*, 0*]
141: 0x0417 [0x1C] WAIT(120* ticks)
142: 0x041A [0x27] REQ_SET(priority=0x10, entity_id=LocalPlayer, tag_num=0x44)
143: 0x0421 [0x1C] WAIT(90* ticks)
144: 0x0424 [0x02] IF !(LocalPlayer->Race == 5*) GOTO 0x044F
145: 0x042C [0x52] END_LOAD_SCHEDULER: End scheduler "s014" with entities [EventEntity, EventEntity], work=641*
146: 0x043B [0x45] LOAD_SCHEDULED_TASK: Load scheduler "s015" with entities [EventEntity, EventEntity], work=[641*, 0*]
147: 0x044C [0x01] GOTO 0x049A
148: 0x044F [0x02] IF !(LocalPlayer->Race == 6*) GOTO 0x047A
149: 0x0457 [0x52] END_LOAD_SCHEDULER: End scheduler "s014" with entities [EventEntity, EventEntity], work=641*
150: 0x0466 [0x45] LOAD_SCHEDULED_TASK: Load scheduler "s015" with entities [EventEntity, EventEntity], work=[641*, 0*]
151: 0x0477 [0x01] GOTO 0x049A
152: 0x047A [0x52] END_LOAD_SCHEDULER: End scheduler "s002" with entities [EventEntity, EventEntity], work=641*
153: 0x0489 [0x45] LOAD_SCHEDULED_TASK: Load scheduler "s003" with entities [EventEntity, EventEntity], work=[641*, 0*]

SUBROUTINE_049A:
154: 0x049A [0x1C] WAIT(30* ticks)
155: 0x049D [0x2A] GET_REQ_LEVEL(level=16, entity_id=LocalPlayer)
156: 0x04A3 [0x4A] LocalPlayer looks at Etienne (ID: 17826153/0x01100169)
157: 0x04AC [0x66] LOAD_EXT_SCHEDULER_MAIN: Load scheduler "thk2" with entities [Unnamed NPC (ID: 17826014/0x011000DE), Unnamed NPC (ID: 17826014/0x011000DE)], work=20*
158: 0x04BB [0x1C] WAIT(60* ticks)
159: 0x04BE [0x6E] Unnamed NPC (ID: 17826014/0x011000DE) uses emote 7*
160: 0x04C5 [0x99] Wait for Unnamed NPC (ID: 17826014/0x011000DE) animation to complete
161: 0x04CA [0x5B] LOAD_EXT_SCHEDULER: Load scheduler "yad0" with entities [Unnamed NPC (ID: 17826015/0x011000DF), Unnamed NPC (ID: 17826015/0x011000DF)], work=868*
162: 0x04D9 [0x1C] WAIT(5* ticks)
163: 0x04DC [0x9F] LOAD_SCHEDULED_TASK_ALT: Load scheduler "main" with entities [Unnamed NPC (ID: 17826015/0x011000DF), Unnamed NPC (ID: 17826015/0x011000DF)], work=[251*, 0*]
164: 0x04ED [0x1C] WAIT(90* ticks)
165: 0x04F0 [0x6B] STOP_AND_IDLE: Peladi Shalmohr (ID: 17826008/0x011000D8) stops current action and resets to idle (animation="idl0")
166: 0x04F9 [0x1C] WAIT(20* ticks)
167: 0x04FC [0x4A] Peladi Shalmohr (ID: 17826008/0x011000D8) looks at LocalPlayer
168: 0x0505 [0x6F] WAIT_FRAME_DELAY: Yield until WaitTime reaches zero
169: 0x0506 [0x76] CHECK_ENTITY_RENDER_FLAGS: Wait until Peladi Shalmohr (ID: 17826008/0x011000D8) Render.Flags0 and Render.Flags3 conditions are met
170: 0x050B [0x6E] Peladi Shalmohr (ID: 17826008/0x011000D8) uses emote 16*
171: 0x0512 [0x99] Wait for Peladi Shalmohr (ID: 17826008/0x011000D8) animation to complete
172: 0x0517 [0x2B] Peladi Shalmohr (ID: 17826008/0x011000D8) [10433*]:
     "Oh, for the love of... Stop starrring at our customers, <Player>!"
173: 0x051E [0x23] WAIT_FOR_DIALOG_INTERACTION
174: 0x051F [0x1C] WAIT(30* ticks)
175: 0x0522 [0x4A] LocalPlayer looks at Peladi Shalmohr (ID: 17826008/0x011000D8)
176: 0x052B [0x1C] WAIT(30* ticks)
177: 0x052E [0xBB] LOAD_EVENT_SCHEDULER_ALT: Load scheduler "kils" with entities [EventEntity, EventEntity], work=[206*, 0*]
178: 0x053F [0xBC] WAIT_LOAD_SCHEDULER_ALT2: Wait for scheduler "kils" with entities [EventEntity, EventEntity], work=206*
179: 0x054E [0x02] IF !(LocalPlayer->Race == 5*) GOTO 0x0568
180: 0x0556 [0x52] END_LOAD_SCHEDULER: End scheduler "s015" with entities [EventEntity, EventEntity], work=641*
181: 0x0565 [0x01] GOTO 0x0591
182: 0x0568 [0x02] IF !(LocalPlayer->Race == 6*) GOTO 0x0582
183: 0x0570 [0x52] END_LOAD_SCHEDULER: End scheduler "s015" with entities [EventEntity, EventEntity], work=641*
184: 0x057F [0x01] GOTO 0x0591
185: 0x0582 [0x52] END_LOAD_SCHEDULER: End scheduler "s003" with entities [EventEntity, EventEntity], work=641*

SUBROUTINE_0591:
186: 0x0591 [0x45] LOAD_SCHEDULED_TASK: Load scheduler "s004" with entities [EventEntity, EventEntity], work=[641*, 0*]
187: 0x05A2 [0x27] REQ_SET(priority=0x10, entity_id=Unnamed NPC (ID: 17826015/0x011000DF), tag_num=0x02)
188: 0x05A9 [0x27] REQ_SET(priority=0x10, entity_id=Unnamed NPC (ID: 17826017/0x011000E1), tag_num=0x03)
189: 0x05B0 [0x27] REQ_SET(priority=0x10, entity_id=Unnamed NPC (ID: 17826019/0x011000E3), tag_num=0x03)
190: 0x05B7 [0x6F] WAIT_FRAME_DELAY: Yield until WaitTime reaches zero
191: 0x05B8 [0x76] CHECK_ENTITY_RENDER_FLAGS: Wait until LocalPlayer Render.Flags0 and Render.Flags3 conditions are met
192: 0x05BD [0x27] REQ_SET(priority=0x10, entity_id=LocalPlayer, tag_num=0x45)
193: 0x05C4 [0x66] LOAD_EXT_SCHEDULER_MAIN: Load scheduler "tlk0" with entities [Peladi Shalmohr (ID: 17826008/0x011000D8), Peladi Shalmohr (ID: 17826008/0x011000D8)], work=199*
194: 0x05D3 [0x2B] Peladi Shalmohr (ID: 17826008/0x011000D8) [10434*]:
     "Though since you're technically one of us now, perhaps I should fill you in. The coalition has become a bit of a hot spot for young loverrrs of all shapes and sizes."
195: 0x05DA [0x23] WAIT_FOR_DIALOG_INTERACTION
196: 0x05DB [0x2B] Peladi Shalmohr (ID: 17826008/0x011000D8) [10435*]:
     "Ah, young love! Their twinkling eyes filled with the light of hope, and their bulging wallets filled with the sparkle of coin!"
197: 0x05E2 [0x23] WAIT_FOR_DIALOG_INTERACTION
198: 0x05E3 [0x2B] Peladi Shalmohr (ID: 17826008/0x011000D8) [10436*]:
     "So, don't blow it by scarrring away all the business!"
199: 0x05EA [0x23] WAIT_FOR_DIALOG_INTERACTION
200: 0x05EB [0x29] REQ_SET_WAIT(priority=0x10, entity_id=Lalla-Dalla (ID: 17826155/0x0110016B), tag_num=0x08)
201: 0x05F2 [0x1C] WAIT(30* ticks)
202: 0x05F5 [0x52] END_LOAD_SCHEDULER: End scheduler "s004" with entities [EventEntity, EventEntity], work=641*
203: 0x0604 [0x02] IF !(LocalPlayer->Race == 5*) GOTO 0x0620
204: 0x060C [0x45] LOAD_SCHEDULED_TASK: Load scheduler "s016" with entities [EventEntity, EventEntity], work=[641*, 0*]
205: 0x061D [0x01] GOTO 0x064D
206: 0x0620 [0x02] IF !(LocalPlayer->Race == 6*) GOTO 0x063C
207: 0x0628 [0x45] LOAD_SCHEDULED_TASK: Load scheduler "s016" with entities [EventEntity, EventEntity], work=[641*, 0*]
208: 0x0639 [0x01] GOTO 0x064D
209: 0x063C [0x45] LOAD_SCHEDULED_TASK: Load scheduler "s005" with entities [EventEntity, EventEntity], work=[641*, 0*]

SUBROUTINE_064D:
210: 0x064D [0x2A] GET_REQ_LEVEL(level=16, entity_id=LocalPlayer)
211: 0x0653 [0x5B] LOAD_EXT_SCHEDULER: Load scheduler "man0" with entities [Peladi Shalmohr (ID: 17826008/0x011000D8), Peladi Shalmohr (ID: 17826008/0x011000D8)], work=1529*
212: 0x0662 [0x2B] Peladi Shalmohr (ID: 17826008/0x011000D8) [10437*]:
     "And besides, what're you doing lollygagging about here when there's worrrk to be done!?"
213: 0x0669 [0x23] WAIT_FOR_DIALOG_INTERACTION
214: 0x066A [0x29] REQ_SET_WAIT(priority=0x10, entity_id=Task Delegator (ID: 17825851/0x0110003B), tag_num=0x07)
215: 0x0671 [0x29] REQ_SET_WAIT(priority=0x10, entity_id=Quam Jitahr (ID: 17826064/0x01100110), tag_num=0x0A)
216: 0x0678 [0x27] REQ_SET(priority=0x10, entity_id=Masad (ID: 17826149/0x01100165), tag_num=0x09)
217: 0x067F [0x1C] WAIT(30* ticks)
218: 0x0682 [0x7B] Peladi Shalmohr (ID: 17826008/0x011000D8) stops talking
219: 0x0687 [0x81] SET_ENTITY_BLINKING(blink_flag=0x00, entity=Peladi Shalmohr (ID: 17826008/0x011000D8))
220: 0x068D [0x5B] LOAD_EXT_SCHEDULER: Load scheduler "ed00" with entities [Peladi Shalmohr (ID: 17826008/0x011000D8), Peladi Shalmohr (ID: 17826008/0x011000D8)], work=767*
221: 0x069C [0x02] IF !(LocalPlayer->Race == 5*) GOTO 0x06B6
222: 0x06A4 [0x52] END_LOAD_SCHEDULER: End scheduler "s016" with entities [EventEntity, EventEntity], work=641*
223: 0x06B3 [0x01] GOTO 0x06DF
224: 0x06B6 [0x02] IF !(LocalPlayer->Race == 6*) GOTO 0x06D0
225: 0x06BE [0x52] END_LOAD_SCHEDULER: End scheduler "s016" with entities [EventEntity, EventEntity], work=641*
226: 0x06CD [0x01] GOTO 0x06DF
227: 0x06D0 [0x52] END_LOAD_SCHEDULER: End scheduler "s005" with entities [EventEntity, EventEntity], work=641*

SUBROUTINE_06DF:
228: 0x06DF [0x45] LOAD_SCHEDULED_TASK: Load scheduler "s006" with entities [EventEntity, EventEntity], work=[641*, 0*]
229: 0x06F0 [0x2B] Peladi Shalmohr (ID: 17826008/0x011000D8) [10438*]:
     "Don't play coy with me--you know exactly what I mean!"
230: 0x06F7 [0x23] WAIT_FOR_DIALOG_INTERACTION
231: 0x06F8 [0x24] CREATE_DIALOG(message_id=10439*, default_option=0*, option_flags=0*)
     "How do you respond? [You wish you had a boyfriend./You mean money!/You want me to find Tarutaru Sauce.]"
232: 0x06FF [0x25] WAIT_DIALOG_SELECT()
233: 0x0700 [0x02] IF !(Work_Zone[0] == 0*) GOTO 0x0954
234: 0x0708 [0x80] LOAD_WAIT(entity=Task Delegator (ID: 17825851/0x0110003B))
235: 0x070D [0x80] LOAD_WAIT(entity=Quam Jitahr (ID: 17826064/0x01100110))
236: 0x0712 [0x5C] MUSIC_CONTROL: Set Idle (Day) music to song 136*
237: 0x0716 [0x5C] MUSIC_CONTROL: Set Idle (Night) music to song 136*
238: 0x071A [0x9A] WAIT_MUSIC_SERVER()
239: 0x071B [0x52] END_LOAD_SCHEDULER: End scheduler "s006" with entities [EventEntity, EventEntity], work=641*
240: 0x072A [0x45] LOAD_SCHEDULED_TASK: Load scheduler "s007" with entities [EventEntity, EventEntity], work=[641*, 0*]
241: 0x073B [0x27] REQ_SET(priority=0x10, entity_id=Task Delegator (ID: 17825851/0x0110003B), tag_num=0x09)
242: 0x0742 [0x27] REQ_SET(priority=0x10, entity_id=Quam Jitahr (ID: 17826064/0x01100110), tag_num=0x0D)
243: 0x0749 [0x1C] WAIT(130* ticks)
244: 0x074C [0x80] LOAD_WAIT(entity=Lalla-Dalla (ID: 17826155/0x0110016B))
245: 0x0751 [0x52] END_LOAD_SCHEDULER: End scheduler "s007" with entities [EventEntity, EventEntity], work=641*
246: 0x0760 [0x45] LOAD_SCHEDULED_TASK: Load scheduler "s008" with entities [EventEntity, EventEntity], work=[641*, 0*]
247: 0x0771 [0x27] REQ_SET(priority=0x10, entity_id=Lalla-Dalla (ID: 17826155/0x0110016B), tag_num=0x0A)
248: 0x0778 [0x1C] WAIT(120* ticks)
249: 0x077B [0x80] LOAD_WAIT(entity=Masad (ID: 17826149/0x01100165))
250: 0x0780 [0x52] END_LOAD_SCHEDULER: End scheduler "s008" with entities [EventEntity, EventEntity], work=641*
251: 0x078F [0x45] LOAD_SCHEDULED_TASK: Load scheduler "s009" with entities [EventEntity, EventEntity], work=[641*, 0*]
252: 0x07A0 [0x81] SET_ENTITY_BLINKING(blink_flag=0x00, entity=Masad (ID: 17826149/0x01100165))
253: 0x07A6 [0x5B] LOAD_EXT_SCHEDULER: Load scheduler "ase0" with entities [Masad (ID: 17826149/0x01100165), Masad (ID: 17826149/0x01100165)], work=1298*
254: 0x07B5 [0x1C] WAIT(180* ticks)
255: 0x07B8 [0x5C] MUSIC_CONTROL: Set Idle (Day) music to song 59*
256: 0x07BC [0x5C] MUSIC_CONTROL: Set Idle (Night) music to song 59*
257: 0x07C0 [0x9A] WAIT_MUSIC_SERVER()
258: 0x07C1 [0x81] SET_ENTITY_BLINKING(blink_flag=0x01, entity=Masad (ID: 17826149/0x01100165))
259: 0x07C7 [0x52] END_LOAD_SCHEDULER: End scheduler "s009" with entities [EventEntity, EventEntity], work=641*
260: 0x07D6 [0x45] LOAD_SCHEDULED_TASK: Load scheduler "s010" with entities [EventEntity, EventEntity], work=[641*, 0*]
261: 0x07E7 [0x45] LOAD_SCHEDULED_TASK: Load scheduler "boff" with entities [EventEntity, EventEntity], work=[641*, 0*]
262: 0x07F8 [0x55] WAIT_LOAD_SCHEDULER: Wait for scheduler "boff" with entities [EventEntity, EventEntity], work=641*
263: 0x0807 [0x6B] STOP_AND_IDLE: Masad (ID: 17826149/0x01100165) stops current action and resets to idle (animation="idl0")
264: 0x0810 [0x1C] WAIT(90* ticks)
265: 0x0813 [0x27] REQ_SET(priority=0x10, entity_id=Peladi Shalmohr (ID: 17826008/0x011000D8), tag_num=0x0F)
266: 0x081A [0x2B] Peladi Shalmohr (ID: 17826008/0x011000D8) [10440*]:
     "Quite the sharrrp tongue for one who can't even afford an empty wooden crate."
267: 0x0821 [0x06] ExtData[1]->WorkLocal[0] = 0

SUBROUTINE_0824:
268: 0x0824 [0x02] IF !(ExtData[1]->WorkLocal[0] >= 8*) GOTO 0x083E
269: 0x082C [0x1C] WAIT(10* ticks)
270: 0x082F [0x4A] LocalPlayer looks at Peladi Shalmohr (ID: 17826008/0x011000D8)
271: 0x0838 [0x0B] ExtData[1]->WorkLocal[0]++
272: 0x083B [0x01] GOTO 0x0824
273: 0x083E [0x1C] WAIT(160* ticks)
274: 0x0841 [0x2A] GET_REQ_LEVEL(level=16, entity_id=Peladi Shalmohr (ID: 17826008/0x011000D8))
275: 0x0847 [0x4A] LocalPlayer looks at Peladi Shalmohr (ID: 17826008/0x011000D8)
276: 0x0850 [0x23] WAIT_FOR_DIALOG_INTERACTION
277: 0x0851 [0x6F] WAIT_FRAME_DELAY: Yield until WaitTime reaches zero
278: 0x0852 [0x76] CHECK_ENTITY_RENDER_FLAGS: Wait until LocalPlayer Render.Flags0 and Render.Flags3 conditions are met
279: 0x0857 [0x4A] Peladi Shalmohr (ID: 17826008/0x011000D8) looks at LocalPlayer
280: 0x0860 [0x52] END_LOAD_SCHEDULER: End scheduler "s010" with entities [EventEntity, EventEntity], work=641*
281: 0x086F [0x45] LOAD_SCHEDULED_TASK: Load scheduler "s011" with entities [EventEntity, EventEntity], work=[641*, 0*]
282: 0x0880 [0x7B] Peladi Shalmohr (ID: 17826008/0x011000D8) stops talking
283: 0x0885 [0x1C] WAIT(30* ticks)
284: 0x0888 [0x5B] LOAD_EXT_SCHEDULER: Load scheduler "man0" with entities [Peladi Shalmohr (ID: 17826008/0x011000D8), Peladi Shalmohr (ID: 17826008/0x011000D8)], work=1529*
285: 0x0897 [0x2B] Peladi Shalmohr (ID: 17826008/0x011000D8) [10441*]:
     "Let me be purrrfectly clear: it's not me you need to worry about."
286: 0x089E [0x23] WAIT_FOR_DIALOG_INTERACTION
287: 0x089F [0x2B] Peladi Shalmohr (ID: 17826008/0x011000D8) [10442*]:
     "It's those debtors extraordinaire, Tarutaru Sauce!"
288: 0x08A6 [0x23] WAIT_FOR_DIALOG_INTERACTION
289: 0x08A7 [0x1C] WAIT(30* ticks)
290: 0x08AA [0x52] END_LOAD_SCHEDULER: End scheduler "s011" with entities [EventEntity, EventEntity], work=641*
291: 0x08B9 [0x02] IF !(LocalPlayer->Race == 2*) GOTO 0x08D5
292: 0x08C1 [0x45] LOAD_SCHEDULED_TASK: Load scheduler "s018" with entities [EventEntity, EventEntity], work=[641*, 0*]
293: 0x08D2 [0x01] GOTO 0x093A
294: 0x08D5 [0x02] IF !(LocalPlayer->Race == 5*) GOTO 0x08F1
295: 0x08DD [0x45] LOAD_SCHEDULED_TASK: Load scheduler "s017" with entities [EventEntity, EventEntity], work=[641*, 0*]
296: 0x08EE [0x01] GOTO 0x093A
297: 0x08F1 [0x02] IF !(LocalPlayer->Race == 6*) GOTO 0x090D
298: 0x08F9 [0x45] LOAD_SCHEDULED_TASK: Load scheduler "s017" with entities [EventEntity, EventEntity], work=[641*, 0*]
299: 0x090A [0x01] GOTO 0x093A
300: 0x090D [0x02] IF !(LocalPlayer->Race == 7*) GOTO 0x0929
301: 0x0915 [0x45] LOAD_SCHEDULED_TASK: Load scheduler "s019" with entities [EventEntity, EventEntity], work=[641*, 0*]
302: 0x0926 [0x01] GOTO 0x093A
303: 0x0929 [0x45] LOAD_SCHEDULED_TASK: Load scheduler "s012" with entities [EventEntity, EventEntity], work=[641*, 0*]

SUBROUTINE_093A:
304: 0x093A [0x66] LOAD_EXT_SCHEDULER_MAIN: Load scheduler "pos0" with entities [Peladi Shalmohr (ID: 17826008/0x011000D8), Peladi Shalmohr (ID: 17826008/0x011000D8)], work=124*
305: 0x0949 [0x2B] Peladi Shalmohr (ID: 17826008/0x011000D8) [10443*]:
     "So haul tail outta here and find those worthless food vacuums, because rrright now the only thing they're eating is our profits!"
306: 0x0950 [0x23] WAIT_FOR_DIALOG_INTERACTION
307: 0x0951 [0x01] GOTO 0x0BDE
308: 0x0954 [0x02] IF !(Work_Zone[0] == 1*) GOTO 0x0A78
309: 0x095C [0x45] LOAD_SCHEDULED_TASK: Load scheduler "sa10" with entities [EventEntity, EventEntity], work=[641*, 0*]
310: 0x096D [0x6B] STOP_AND_IDLE: Masad (ID: 17826149/0x01100165) stops current action and resets to idle (animation="idl0")
311: 0x0976 [0x1C] WAIT(90* ticks)
312: 0x0979 [0x27] REQ_SET(priority=0x10, entity_id=Peladi Shalmohr (ID: 17826008/0x011000D8), tag_num=0x0F)
313: 0x0980 [0x2B] Peladi Shalmohr (ID: 17826008/0x011000D8) [10444*]:
     "I had you pegged for one apt to use more delicate phrrrasing, but...yes, this is all about money."
314: 0x0987 [0x06] ExtData[1]->WorkLocal[0] = 0

SUBROUTINE_098A:
315: 0x098A [0x02] IF !(ExtData[1]->WorkLocal[0] >= 8*) GOTO 0x09A4
316: 0x0992 [0x1C] WAIT(10* ticks)
317: 0x0995 [0x4A] LocalPlayer looks at Peladi Shalmohr (ID: 17826008/0x011000D8)
318: 0x099E [0x0B] ExtData[1]->WorkLocal[0]++
319: 0x09A1 [0x01] GOTO 0x098A
320: 0x09A4 [0x1C] WAIT(160* ticks)
321: 0x09A7 [0x2A] GET_REQ_LEVEL(level=16, entity_id=Peladi Shalmohr (ID: 17826008/0x011000D8))
322: 0x09AD [0x4A] LocalPlayer looks at Peladi Shalmohr (ID: 17826008/0x011000D8)
323: 0x09B6 [0x23] WAIT_FOR_DIALOG_INTERACTION
324: 0x09B7 [0x6F] WAIT_FRAME_DELAY: Yield until WaitTime reaches zero
325: 0x09B8 [0x76] CHECK_ENTITY_RENDER_FLAGS: Wait until LocalPlayer Render.Flags0 and Render.Flags3 conditions are met
326: 0x09BD [0x4A] Peladi Shalmohr (ID: 17826008/0x011000D8) looks at LocalPlayer
327: 0x09C6 [0x52] END_LOAD_SCHEDULER: End scheduler "sa10" with entities [EventEntity, EventEntity], work=641*
328: 0x09D5 [0x02] IF !(LocalPlayer->Race == 2*) GOTO 0x09F1
329: 0x09DD [0x45] LOAD_SCHEDULED_TASK: Load scheduler "s018" with entities [EventEntity, EventEntity], work=[641*, 0*]
330: 0x09EE [0x01] GOTO 0x0A56
331: 0x09F1 [0x02] IF !(LocalPlayer->Race == 5*) GOTO 0x0A0D
332: 0x09F9 [0x45] LOAD_SCHEDULED_TASK: Load scheduler "s017" with entities [EventEntity, EventEntity], work=[641*, 0*]
333: 0x0A0A [0x01] GOTO 0x0A56
334: 0x0A0D [0x02] IF !(LocalPlayer->Race == 6*) GOTO 0x0A29
335: 0x0A15 [0x45] LOAD_SCHEDULED_TASK: Load scheduler "s017" with entities [EventEntity, EventEntity], work=[641*, 0*]
336: 0x0A26 [0x01] GOTO 0x0A56
337: 0x0A29 [0x02] IF !(LocalPlayer->Race == 7*) GOTO 0x0A45
338: 0x0A31 [0x45] LOAD_SCHEDULED_TASK: Load scheduler "s019" with entities [EventEntity, EventEntity], work=[641*, 0*]
339: 0x0A42 [0x01] GOTO 0x0A56
340: 0x0A45 [0x45] LOAD_SCHEDULED_TASK: Load scheduler "s012" with entities [EventEntity, EventEntity], work=[641*, 0*]

SUBROUTINE_0A56:
341: 0x0A56 [0x7B] Peladi Shalmohr (ID: 17826008/0x011000D8) stops talking
342: 0x0A5B [0x1C] WAIT(30* ticks)
343: 0x0A5E [0x66] LOAD_EXT_SCHEDULER_MAIN: Load scheduler "pos0" with entities [Peladi Shalmohr (ID: 17826008/0x011000D8), Peladi Shalmohr (ID: 17826008/0x011000D8)], work=124*
344: 0x0A6D [0x2B] Peladi Shalmohr (ID: 17826008/0x011000D8) [10445*]:
     "Haul tail outta here and find those worthless food vacuums before they eat us out of house and home!"
345: 0x0A74 [0x23] WAIT_FOR_DIALOG_INTERACTION
346: 0x0A75 [0x01] GOTO 0x0BDE
347: 0x0A78 [0x02] IF !(Work_Zone[0] == 2*) GOTO 0x0BDE
348: 0x0A80 [0x45] LOAD_SCHEDULED_TASK: Load scheduler "sa10" with entities [EventEntity, EventEntity], work=[641*, 0*]
349: 0x0A91 [0x6B] STOP_AND_IDLE: Masad (ID: 17826149/0x01100165) stops current action and resets to idle (animation="idl0")
350: 0x0A9A [0x1C] WAIT(90* ticks)
351: 0x0A9D [0x27] REQ_SET(priority=0x10, entity_id=Peladi Shalmohr (ID: 17826008/0x011000D8), tag_num=0x0F)
352: 0x0AA4 [0x2B] Peladi Shalmohr (ID: 17826008/0x011000D8) [10446*]:
     "So you are, in fact, not oblivious to where you should be headed."
353: 0x0AAB [0x06] ExtData[1]->WorkLocal[0] = 0

SUBROUTINE_0AAE:
354: 0x0AAE [0x02] IF !(ExtData[1]->WorkLocal[0] >= 8*) GOTO 0x0AC8
355: 0x0AB6 [0x1C] WAIT(10* ticks)
356: 0x0AB9 [0x4A] LocalPlayer looks at Peladi Shalmohr (ID: 17826008/0x011000D8)
357: 0x0AC2 [0x0B] ExtData[1]->WorkLocal[0]++
358: 0x0AC5 [0x01] GOTO 0x0AAE
359: 0x0AC8 [0x1C] WAIT(160* ticks)
360: 0x0ACB [0x2A] GET_REQ_LEVEL(level=16, entity_id=Peladi Shalmohr (ID: 17826008/0x011000D8))
361: 0x0AD1 [0x4A] LocalPlayer looks at Peladi Shalmohr (ID: 17826008/0x011000D8)
362: 0x0ADA [0x23] WAIT_FOR_DIALOG_INTERACTION
363: 0x0ADB [0x6F] WAIT_FRAME_DELAY: Yield until WaitTime reaches zero
364: 0x0ADC [0x76] CHECK_ENTITY_RENDER_FLAGS: Wait until LocalPlayer Render.Flags0 and Render.Flags3 conditions are met
365: 0x0AE1 [0x4A] Peladi Shalmohr (ID: 17826008/0x011000D8) looks at LocalPlayer
366: 0x0AEA [0x52] END_LOAD_SCHEDULER: End scheduler "sa10" with entities [EventEntity, EventEntity], work=641*
367: 0x0AF9 [0x45] LOAD_SCHEDULED_TASK: Load scheduler "s011" with entities [EventEntity, EventEntity], work=[641*, 0*]
368: 0x0B0A [0x7B] Peladi Shalmohr (ID: 17826008/0x011000D8) stops talking
369: 0x0B0F [0x1C] WAIT(30* ticks)
370: 0x0B12 [0x5B] LOAD_EXT_SCHEDULER: Load scheduler "man0" with entities [Peladi Shalmohr (ID: 17826008/0x011000D8), Peladi Shalmohr (ID: 17826008/0x011000D8)], work=1529*
371: 0x0B21 [0x2B] Peladi Shalmohr (ID: 17826008/0x011000D8) [10447*]:
     "That leaves me with one question: Did you show that ugly mug of yours arrround here just to taunt me?"
372: 0x0B28 [0x23] WAIT_FOR_DIALOG_INTERACTION
373: 0x0B29 [0x2B] Peladi Shalmohr (ID: 17826008/0x011000D8) [10448*]:
     "Or is it that you came here to spy on our lovebird clientele in some psychotic need to be known as Adoulin's most prrrolific peeping Tonberry?"
374: 0x0B30 [0x23] WAIT_FOR_DIALOG_INTERACTION
375: 0x0B31 [0x1C] WAIT(30* ticks)
376: 0x0B34 [0x52] END_LOAD_SCHEDULER: End scheduler "s011" with entities [EventEntity, EventEntity], work=641*
377: 0x0B43 [0x02] IF !(LocalPlayer->Race == 2*) GOTO 0x0B5F
378: 0x0B4B [0x45] LOAD_SCHEDULED_TASK: Load scheduler "s018" with entities [EventEntity, EventEntity], work=[641*, 0*]
379: 0x0B5C [0x01] GOTO 0x0BC4
380: 0x0B5F [0x02] IF !(LocalPlayer->Race == 5*) GOTO 0x0B7B
381: 0x0B67 [0x45] LOAD_SCHEDULED_TASK: Load scheduler "s017" with entities [EventEntity, EventEntity], work=[641*, 0*]
382: 0x0B78 [0x01] GOTO 0x0BC4
383: 0x0B7B [0x02] IF !(LocalPlayer->Race == 6*) GOTO 0x0B97
384: 0x0B83 [0x45] LOAD_SCHEDULED_TASK: Load scheduler "s017" with entities [EventEntity, EventEntity], work=[641*, 0*]
385: 0x0B94 [0x01] GOTO 0x0BC4
386: 0x0B97 [0x02] IF !(LocalPlayer->Race == 7*) GOTO 0x0BB3
387: 0x0B9F [0x45] LOAD_SCHEDULED_TASK: Load scheduler "s019" with entities [EventEntity, EventEntity], work=[641*, 0*]
388: 0x0BB0 [0x01] GOTO 0x0BC4
389: 0x0BB3 [0x45] LOAD_SCHEDULED_TASK: Load scheduler "s012" with entities [EventEntity, EventEntity], work=[641*, 0*]

SUBROUTINE_0BC4:
390: 0x0BC4 [0x66] LOAD_EXT_SCHEDULER_MAIN: Load scheduler "pos0" with entities [Peladi Shalmohr (ID: 17826008/0x011000D8), Peladi Shalmohr (ID: 17826008/0x011000D8)], work=124*
391: 0x0BD3 [0x2B] Peladi Shalmohr (ID: 17826008/0x011000D8) [10449*]:
     "Either way, haul tail outta here and find those worthless food vacuums before they eat us out of house and home!"
392: 0x0BDA [0x23] WAIT_FOR_DIALOG_INTERACTION
393: 0x0BDB [0x01] GOTO 0x0BDE

SUBROUTINE_0BDE:
394: 0x0BDE [0x27] REQ_SET(priority=0x10, entity_id=LocalPlayer, tag_num=0x46)
395: 0x0BE5 [0x1C] WAIT(180* ticks)
396: 0x0BE8 [0x45] LOAD_SCHEDULED_TASK: Load scheduler "fdo1" with entities [LocalPlayer, LocalPlayer], work=[200*, 0*]
397: 0x0BF9 [0x55] WAIT_LOAD_SCHEDULER: Wait for scheduler "fdo1" with entities [LocalPlayer, LocalPlayer], work=200*
398: 0x0C08 [0x02] IF !(LocalPlayer->Race == 2*) GOTO 0x0C22
399: 0x0C10 [0x52] END_LOAD_SCHEDULER: End scheduler "s018" with entities [EventEntity, EventEntity], work=641*
400: 0x0C1F [0x01] GOTO 0x0C7F
401: 0x0C22 [0x02] IF !(LocalPlayer->Race == 5*) GOTO 0x0C3C
402: 0x0C2A [0x52] END_LOAD_SCHEDULER: End scheduler "s017" with entities [EventEntity, EventEntity], work=641*
403: 0x0C39 [0x01] GOTO 0x0C7F
404: 0x0C3C [0x02] IF !(LocalPlayer->Race == 6*) GOTO 0x0C56
405: 0x0C44 [0x52] END_LOAD_SCHEDULER: End scheduler "s017" with entities [EventEntity, EventEntity], work=641*
406: 0x0C53 [0x01] GOTO 0x0C7F
407: 0x0C56 [0x02] IF !(LocalPlayer->Race == 7*) GOTO 0x0C70
408: 0x0C5E [0x52] END_LOAD_SCHEDULER: End scheduler "s019" with entities [EventEntity, EventEntity], work=641*
409: 0x0C6D [0x01] GOTO 0x0C7F
410: 0x0C70 [0x52] END_LOAD_SCHEDULER: End scheduler "s012" with entities [EventEntity, EventEntity], work=641*

SUBROUTINE_0C7F:
411: 0x0C7F [0x29] REQ_SET_WAIT(priority=0x10, entity_id=Unnamed NPC (ID: 17826035/0x011000F3), tag_num=0x01)
412: 0x0C86 [0x29] REQ_SET_WAIT(priority=0x10, entity_id=Task Delegator (ID: 17825851/0x0110003B), tag_num=0x08)
413: 0x0C8D [0x29] REQ_SET_WAIT(priority=0x10, entity_id=Quam Jitahr (ID: 17826064/0x01100110), tag_num=0x0B)
414: 0x0C94 [0x29] REQ_SET_WAIT(priority=0x10, entity_id=Masad (ID: 17826149/0x01100165), tag_num=0x0A)
415: 0x0C9B [0x29] REQ_SET_WAIT(priority=0x10, entity_id=Lalla-Dalla (ID: 17826155/0x0110016B), tag_num=0x09)
416: 0x0CA2 [0x1C] WAIT(15* ticks)
417: 0x0CA5 [0xAB] EventEntity->DespawnValue = 0* // Set despawn value
418: 0x0CA9 [0x1C] WAIT(1* ticks)
419: 0x0CAC [0x46] CAMERA_CONTROL: Restore default settings
420: 0x0CAE [0x45] LOAD_SCHEDULED_TASK: Load scheduler "fdi2" with entities [LocalPlayer, LocalPlayer], work=[200*, 0*]
421: 0x0CBF [0x21] END_EVENT
422: 0x0CC0 [0x00] END_REQSTACK()
```

### Event 5094

#### Metadata

| Field        | Value      |
|--------------|------------|
| Entrypoint   | 0x0CC1     |
| Data Size    | 2447 bytes |
| Instructions | 327        |

```
      00 01 02 03 04 05 06 07  08 09 0A 0B 0C 0D 0E 0F
      -- -- -- -- -- -- -- --  -- -- -- -- -- -- -- --
0CC0:    42 45 00 80 F0 FF FF  7F F0 FF FF 7F 66 64 6F   BE..........fdo
0CD0: 31 01 80 55 00 80 F0 FF  FF 7F F0 FF FF 7F 66 64  1..U..........fd
0CE0: 6F 31 46 01 38 02 80 94  01 DB 00 10 01 94 01 DA  o1F.8...........
0CF0: 00 10 01 94 01 DC 00 10  01 94 01 F0 FF FF 7F 2F  .............../
0D00: 00 DA 00 10 01 2F 00 DB  00 10 01 4E 00 DA 00 10  ...../.....N....
0D10: 01 4E 00 DB 00 10 01 02  02 10 44 80 00 2F 0D BA  .N........D../..
0D20: DA 00 10 01 4C 80 4D 80  4E 80 4F 80 01 3C 0D BA  ....L.M.N.O..<..
0D30: DA 00 10 01 4C 80 4D 80  4E 80 50 80 BA DB 00 10  ....L.M.N.P.....
0D40: 01 51 80 52 80 4E 80 53  80 4A F0 FF FF 7F F0 FF  .Q.R.N.S.J......
0D50: FF 7F BA F0 FF FF 7F 54  80 55 80 56 80 57 80 03  .......T.U.V.W..
0D60: 01 17 01 80 29 10 DB 00  10 01 10 80 DA 00 10 01  ....)...........
0D70: 80 DB 00 10 01 80 F0 FF  FF 7F 1C 1E 80 66 24 80  .............f$.
0D80: DA 00 10 01 DA 00 10 01  6F 72 7A 30 66 58 80 DB  ........orz0fX..
0D90: 00 10 01 DB 00 10 01 6D  6F 6A 30 1C 1E 80 45 1F  .......moj0...E.
0DA0: 80 F8 FF FF 7F F8 FF FF  7F 73 30 33 30 01 80 45  .........s030..E
0DB0: 00 80 F0 FF FF 7F F0 FF  FF 7F 66 64 69 31 01 80  ..........fdi1..
0DC0: 1C 20 80 27 10 DB 00 10  01 0F 1C 20 80 03 00 17  . .'....... ....
0DD0: 2B 80 27 10 F0 FF FF 7F  48 2B DA 00 10 01 59 80  +.'.....H+....Y.
0DE0: 23 2A 10 F0 FF FF 7F 2B  DB 00 10 01 5A 80 23 1C  #*.....+....Z.#.
0DF0: 2B 80 48 5B 80 1C 25 80  2B DA 00 10 01 5C 80 23  +.H[..%.+....\.#
0E00: 1C 25 80 2B DB 00 10 01  5D 80 23 1C 1E 80 79 00  .%.+....].#...y.
0E10: DA 00 10 01 DB 00 10 01  52 1F 80 F8 FF FF 7F F8  ........R.......
0E20: FF FF 7F 73 30 33 30 45  1F 80 F8 FF FF 7F F8 FF  ...s030E........
0E30: FF 7F 73 30 33 31 01 80  5B 5E 80 DA 00 10 01 DA  ..s031..[^......
0E40: 00 10 01 68 69 7A 31 2B  DA 00 10 01 5F 80 23 1C  ...hiz1+...._.#.
0E50: 60 80 52 1F 80 F8 FF FF  7F F8 FF FF 7F 73 30 33  `.R..........s03
0E60: 31 45 1F 80 F8 FF FF 7F  F8 FF FF 7F 73 30 33 32  1E..........s032
0E70: 01 80 03 00 17 2B 80 27  10 DA 00 10 01 36 2B DA  .....+.'.....6+.
0E80: 00 10 01 61 80 23 2B DA  00 10 01 62 80 23 2B DA  ...a.#+....b.#+.
0E90: 00 10 01 63 80 23 2A 10  DA 00 10 01 66 58 80 DA  ...c.#*.....fX..
0EA0: 00 10 01 DA 00 10 01 74  6C 6B 31 52 1F 80 F8 FF  .......tlk1R....
0EB0: FF 7F F8 FF FF 7F 73 30  33 32 45 1F 80 F8 FF FF  ......s032E.....
0EC0: 7F F8 FF FF 7F 73 30 33  33 01 80 1C 1E 80 2B DB  .....s033.....+.
0ED0: 00 10 01 5A 80 23 1C 20  80 52 1F 80 F8 FF FF 7F  ...Z.#. .R......
0EE0: F8 FF FF 7F 73 30 33 33  45 1F 80 F8 FF FF 7F F8  ....s033E.......
0EF0: FF FF 7F 73 30 33 34 01  80 1C 1E 80 03 02 10 2B  ...s034........+
0F00: 80 27 10 DA 00 10 01 42  2B DA 00 10 01 64 80 23  .'.....B+....d.#
0F10: 2A 10 DA 00 10 01 7B DA  00 10 01 03 00 17 65 80  *.....{.......e.
0F20: 27 10 DA 00 10 01 39 7C  00 DA 00 10 01 2B DA 00  '.....9|.....+..
0F30: 10 01 66 80 23 2A 10 DA  00 10 01 81 01 DA 00 10  ..f.#*..........
0F40: 01 03 00 17 24 80 27 10  F0 FF FF 7F 48 5B 67 80  ....$.'.....H[g.
0F50: DA 00 10 01 DA 00 10 01  79 67 6F 30 1C 1E 80 9F  ........ygo0....
0F60: 68 80 DA 00 10 01 DA 00  10 01 6D 61 69 6E 01 80  h.........main..
0F70: 2B DA 00 10 01 69 80 23  2A 10 F0 FF FF 7F 52 1F  +....i.#*.....R.
0F80: 80 F8 FF FF 7F F8 FF FF  7F 73 30 33 34 45 1F 80  .........s034E..
0F90: F8 FF FF 7F F8 FF FF 7F  73 30 33 35 01 80 81 00  ........s035....
0FA0: DA 00 10 01 03 00 17 2B  80 27 10 DA 00 10 01 3A  .......+.'.....:
0FB0: 2B DA 00 10 01 6A 80 23  2A 10 DA 00 10 01 81 01  +....j.#*.......
0FC0: DA 00 10 01 7C 01 DA 00  10 01 79 00 DA 00 10 01  ....|.....y.....
0FD0: DB 00 10 01 52 1F 80 F8  FF FF 7F F8 FF FF 7F 73  ....R..........s
0FE0: 30 33 35 45 1F 80 F8 FF  FF 7F F8 FF FF 7F 73 30  035E..........s0
0FF0: 33 36 01 80 1C 1E 80 03  00 17 6B 80 27 10 F0 FF  36........k.'...
1000: FF 7F 48 2B DA 00 10 01  6C 80 23 2A 10 F0 FF FF  ..H+....l.#*....
1010: 7F 7A 00 DB 00 10 01 79  00 DB 00 10 01 DA 00 10  .z.....y........
1020: 01 52 1F 80 F8 FF FF 7F  F8 FF FF 7F 73 30 33 36  .R..........s036
1030: 45 1F 80 F8 FF FF 7F F8  FF FF 7F 73 30 33 37 01  E..........s037.
1040: 80 03 00 17 2B 80 27 10  DB 00 10 01 2A 2B DB 00  ....+.'.....*+..
1050: 10 01 6D 80 23 2A 10 DB  00 10 01 52 1F 80 F8 FF  ..m.#*.....R....
1060: FF 7F F8 FF FF 7F 73 30  33 37 45 1F 80 F8 FF FF  ......s037E.....
1070: 7F F8 FF FF 7F 73 30 33  38 01 80 1C 1E 80 2B DA  .....s038.....+.
1080: 00 10 01 6E 80 23 03 00  17 2B 80 27 10 DA 00 10  ...n.#...+.'....
1090: 01 3B 2B DA 00 10 01 6F  80 23 2A 10 DA 00 10 01  .;+....o.#*.....
10A0: 03 00 17 2B 80 27 10 DB  00 10 01 35 2B DB 00 10  ...+.'.....5+...
10B0: 01 70 80 23 2A 10 DB 00  10 01 1C 1E 80 27 10 F0  .p.#*........'..
10C0: FF FF 7F 38 66 71 80 DA  00 10 01 DA 00 10 01 67  ...8fq.........g
10D0: 6D 6E 31 1C 1E 80 4A DA  00 10 01 F0 FF FF 7F 1C  mn1...J.........
10E0: 1E 80 7B DB 00 10 01 66  58 80 DB 00 10 01 DB 00  ..{....fX.......
10F0: 10 01 6D 6F 6A 30 1C 26  80 27 10 DB 00 10 01 0F  ..moj0.&.'......
1100: 52 1F 80 F8 FF FF 7F F8  FF FF 7F 73 30 33 38 02  R..........s038.
1110: 87 7F 26 80 80 2B 11 45  1F 80 F8 FF FF 7F F8 FF  ..&..+.E........
1120: FF 7F 73 30 35 36 01 80  01 58 11 02 87 7F 27 80  ..s056...X....'.
1130: 80 47 11 45 1F 80 F8 FF  FF 7F F8 FF FF 7F 73 30  .G.E..........s0
1140: 35 36 01 80 01 58 11 45  1F 80 F8 FF FF 7F F8 FF  56...X.E........
1150: FF 7F 73 30 33 39 01 80  06 00 00 02 00 00 20 80  ..s039........ .
1160: 03 75 11 4A DA 00 10 01  F0 FF FF 7F 0B 00 00 1C  .u.J............
1170: 26 80 01 5B 11 2A 10 F0  FF FF 7F 4A DA 00 10 01  &..[.*.....J....
1180: F0 FF FF 7F 03 00 17 2B  80 27 10 DA 00 10 01 43  .......+.'.....C
1190: 2B DA 00 10 01 72 80 23  2A 10 DA 00 10 01 4A F0  +....r.#*.....J.
11A0: FF FF 7F DA 00 10 01 6F  76 F0 FF FF 7F 7B DA 00  .......ov....{..
11B0: 10 01 02 87 7F 26 80 80  DD 11 52 1F 80 F8 FF FF  .....&....R.....
11C0: 7F F8 FF FF 7F 73 30 35  36 45 1F 80 F8 FF FF 7F  .....s056E......
11D0: F8 FF FF 7F 73 30 35 37  01 80 01 28 12 02 87 7F  ....s057...(....
11E0: 27 80 80 08 12 52 1F 80  F8 FF FF 7F F8 FF FF 7F  '....R..........
11F0: 73 30 35 36 45 1F 80 F8  FF FF 7F F8 FF FF 7F 73  s056E..........s
1200: 30 35 37 01 80 01 28 12  52 1F 80 F8 FF FF 7F F8  057...(.R.......
1210: FF FF 7F 73 30 33 39 45  1F 80 F8 FF FF 7F F8 FF  ...s039E........
1220: FF 7F 73 30 34 30 01 80  03 00 17 73 80 27 10 DA  ..s040.....s.'..
1230: 00 10 01 3A 2B DA 00 10  01 74 80 23 2B DA 00 10  ...:+....t.#+...
1240: 01 75 80 23 2A 10 DA 00  10 01 02 87 7F 26 80 80  .u.#*........&..
1250: 75 12 52 1F 80 F8 FF FF  7F F8 FF FF 7F 73 30 35  u.R..........s05
1260: 37 45 1F 80 F8 FF FF 7F  F8 FF FF 7F 73 30 35 38  7E..........s058
1270: 01 80 01 C0 12 02 87 7F  27 80 80 A0 12 52 1F 80  ........'....R..
