# 17825935

## Common Data

| Field            | Value                     |
|------------------|---------------------------|
| Zone             | Western Adoulin (ID: 256) |
| Block Size       | 7784 bytes                |
| Total Events     | 4                         |
| References Count | 203                       |

## List of Events

| Event ID              | Entrypoint   |   Size |   Instructions |
|-----------------------|--------------|--------|----------------|
| [65535](#event-65535) | 0x0000       |      1 |              1 |
| [178](#event-178)     | 0x0001       |   1283 |            156 |
| [179](#event-179)     | 0x0504       |   1296 |            160 |
| [182](#event-182)     | 0x0A14       |   4360 |            521 |

## DAT References (imed_data)

|   Index | Hex Value   |   Dec Value |
|---------|-------------|-------------|
|       0 | 0x0093      |         147 |
|       1 | 0x0249      |         585 |
|       2 | 0xFFFEA2E4  |  4294877924 |
|       3 | 0x3551      |       13649 |
|       4 | 0x0D15      |        3349 |
|       5 | 0x010E      |         270 |
|       6 | 0x001E      |          30 |
|       7 | 0x02E3      |         739 |
|       8 | 0x0000      |           0 |
|       9 | 0x000F      |          15 |
|      10 | 0x00C8      |         200 |
|      11 | 0x0009      |           9 |
|      12 | 0x005A      |          90 |
|      13 | 0x316D      |       12653 |
|      14 | 0x316E      |       12654 |
|      15 | 0x0015      |          21 |
|      16 | 0x316F      |       12655 |
|      17 | 0x0095      |         149 |
|      18 | 0x3170      |       12656 |
|      19 | 0x0078      |         120 |
|      20 | 0x3171      |       12657 |
|      21 | 0x3172      |       12658 |
|      22 | 0x3173      |       12659 |
|      23 | 0x3174      |       12660 |
|      24 | 0x3175      |       12661 |
|      25 | 0x3176      |       12662 |
|      26 | 0x0006      |           6 |
|      27 | 0x3177      |       12663 |
|      28 | 0x001A      |          26 |
|      29 | 0x3178      |       12664 |
|      30 | 0x3179      |       12665 |
|      31 | 0x003C      |          60 |
|      32 | 0x317A      |       12666 |
|      33 | 0x0005      |           5 |
|      34 | 0x317B      |       12667 |
|      35 | 0x0020      |          32 |
|      36 | 0x317C      |       12668 |
|      37 | 0x0001      |           1 |
|      38 | 0x0024      |          36 |
|      39 | 0x0007      |           7 |
|      40 | 0x317D      |       12669 |
|      41 | 0x317E      |       12670 |
|      42 | 0x317F      |       12671 |
|      43 | 0x1B453     |      111699 |
|      44 | 0x29F60     |      171872 |
|      45 | 0x7D00      |       32000 |
|      46 | 0x0350      |         848 |
|      47 | 0x19290     |      103056 |
|      48 | 0x28F62     |      167778 |
|      49 | 0x0F06      |        3846 |
|      50 | 0x0096      |         150 |
|      51 | 0x3181      |       12673 |
|      52 | 0x0C91      |        3217 |
|      53 | 0x3182      |       12674 |
|      54 | 0x3183      |       12675 |
|      55 | 0x0016      |          22 |
|      56 | 0x0050      |          80 |
|      57 | 0x0C93      |        3219 |
|      58 | 0x000A      |          10 |
|      59 | 0x3184      |       12676 |
|      60 | 0x3185      |       12677 |
|      61 | 0x0028      |          40 |
|      62 | 0x0C9F      |        3231 |
|      63 | 0x3186      |       12678 |
|      64 | 0x3187      |       12679 |
|      65 | 0x3188      |       12680 |
|      66 | 0x3189      |       12681 |
|      67 | 0x318A      |       12682 |
|      68 | 0x318B      |       12683 |
|      69 | 0x318C      |       12684 |
|      70 | 0x318D      |       12685 |
|      71 | 0x318E      |       12686 |
|      72 | 0x318F      |       12687 |
|      73 | 0x3190      |       12688 |
|      74 | 0x0C90      |        3216 |
|      75 | 0x3191      |       12689 |
|      76 | 0x3192      |       12690 |
|      77 | 0x3193      |       12691 |
|      78 | 0x006E      |         110 |
|      79 | 0x3194      |       12692 |
|      80 | 0x00A0      |         160 |
|      81 | 0x3195      |       12693 |
|      82 | 0x3196      |       12694 |
|      83 | 0x3197      |       12695 |
|      84 | 0xFFFE15E3  |  4294841827 |
|      85 | 0xFFFFB811  |  4294948881 |
|      86 | 0x0F9F      |        3999 |
|      87 | 0x0184      |         388 |
|      88 | 0xFFFE0564  |  4294837604 |
|      89 | 0xFFFFBA78  |  4294949496 |
|      90 | 0xFFFE0912  |  4294838546 |
|      91 | 0xFFFFBE75  |  4294950517 |
|      92 | 0xFFFD9F48  |  4294811464 |
|      93 | 0xFFFFA969  |  4294945129 |
|      94 | 0xFFFD98F7  |  4294809847 |
|      95 | 0xFFFF8BE0  |  4294937568 |
|      96 | 0xFFFDD50F  |  4294825231 |
|      97 | 0xFFFF76EC  |  4294932204 |
|      98 | 0x0F0B      |        3851 |
|      99 | 0x0620      |        1568 |
|     100 | 0xFFFDCEB6  |  4294823606 |
|     101 | 0xFFFF7724  |  4294932260 |
|     102 | 0x0E41      |        3649 |
|     103 | 0xFFFDA89A  |  4294813850 |
|     104 | 0xFFFFA9A4  |  4294945188 |
|     105 | 0x0DB1      |        3505 |
|     106 | 0xFFFE115C  |  4294840668 |
|     107 | 0xFFFF9940  |  4294940992 |
|     108 | 0x0800      |        2048 |
|     109 | 0xFFFD88A9  |  4294805673 |
|     110 | 0xFFFF99CB  |  4294941131 |
|     111 | 0x0A8B      |        2699 |
|     112 | 0xFFFD93FD  |  4294808573 |
|     113 | 0xFFFF9686  |  4294940294 |
|     114 | 0x0A7D      |        2685 |
|     115 | 0xFFFE60AA  |  4294860970 |
|     116 | 0xFFFFC4BF  |  4294952127 |
|     117 | 0x0400      |        1024 |
|     118 | 0xFFFE5FE2  |  4294860770 |
|     119 | 0xFFFFBFE4  |  4294950884 |
|     120 | 0x0951      |        2385 |
|     121 | 0xFFFE586F  |  4294858863 |
|     122 | 0xFFFFBD81  |  4294950273 |
|     123 | 0x0F84      |        3972 |
|     124 | 0xFFFE5A56  |  4294859350 |
|     125 | 0xFFFFBB09  |  4294949641 |
|     126 | 0x08E9      |        2281 |
|     127 | 0x003B      |          59 |
|     128 | 0x0013      |          19 |
|     129 | 0x0277      |         631 |
|     130 | 0x00B4      |         180 |
|     131 | 0xFFFE0C02  |  4294839298 |
|     132 | 0xFFFF9F1F  |  4294942495 |
|     133 | 0x0FCA      |        4042 |
|     134 | 0xFFFE0983  |  4294838659 |
|     135 | 0xFFFFA4A3  |  4294943907 |
|     136 | 0x0C82      |        3202 |
|     137 | 0x3198      |       12696 |
|     138 | 0x0C84      |        3204 |
|     139 | 0x3199      |       12697 |
|     140 | 0x0C99      |        3225 |
|     141 | 0x0040      |          64 |
|     142 | 0x00F0      |         240 |
|     143 | 0x319A      |       12698 |
|     144 | 0xFFFE2B36  |  4294847286 |
|     145 | 0xFFFFA889  |  4294944905 |
|     146 | 0x0F39      |        3897 |
|     147 | 0xFFFE33DE  |  4294849502 |
|     148 | 0xFFFFB0C5  |  4294947013 |
|     149 | 0xFFFE5837  |  4294858807 |
|     150 | 0xFFFFBD2D  |  4294950189 |
|     151 | 0x0750      |        1872 |
|     152 | 0x0C85      |        3205 |
|     153 | 0x319B      |       12699 |
|     154 | 0x00FA      |         250 |
|     155 | 0x319C      |       12700 |
|     156 | 0x319D      |       12701 |
|     157 | 0x319E      |       12702 |
|     158 | 0x319F      |       12703 |
|     159 | 0x31A0      |       12704 |
|     160 | 0x31A1      |       12705 |
|     161 | 0x31A2      |       12706 |
|     162 | 0x31A3      |       12707 |
|     163 | 0x31A4      |       12708 |
|     164 | 0x31A5      |       12709 |
|     165 | 0x31A6      |       12710 |
|     166 | 0x31A7      |       12711 |
|     167 | 0x31A8      |       12712 |
|     168 | 0x31A9      |       12713 |
|     169 | 0x31AA      |       12714 |
|     170 | 0x0002      |           2 |
|     171 | 0x0003      |           3 |
|     172 | 0x31AB      |       12715 |
|     173 | 0x31AD      |       12717 |
|     174 | 0x31AC      |       12716 |
|     175 | 0x31AE      |       12718 |
|     176 | 0x31AF      |       12719 |
|     177 | 0x0064      |         100 |
|     178 | 0x31B0      |       12720 |
|     179 | 0x31B1      |       12721 |
|     180 | 0x31B2      |       12722 |
|     181 | 0x31B3      |       12723 |
|     182 | 0x31B4      |       12724 |
|     183 | 0x31B5      |       12725 |
|     184 | 0x31B6      |       12726 |
|     185 | 0xFFFE39FB  |  4294851067 |
|     186 | 0xFFFFAA8C  |  4294945420 |
|     187 | 0x0E2F      |        3631 |
|     188 | 0xFFFE1D7D  |  4294843773 |
|     189 | 0xFFFFBDA5  |  4294950309 |
|     190 | 0x0E2E      |        3630 |
|     191 | 0x31B7      |       12727 |
|     192 | 0x31B8      |       12728 |
|     193 | 0xFFFE352F  |  4294849839 |
|     194 | 0xFFFFC75A  |  4294952794 |
|     195 | 0xFFFE3720  |  4294850336 |
|     196 | 0xFFFFC194  |  4294951316 |
|     197 | 0x31B9      |       12729 |
|     198 | 0x0008      |           8 |
|     199 | 0x0D8B      |        3467 |
|     200 | 0x00C9      |         201 |
|     201 | 0x002D      |          45 |
|     202 | 0x00D7      |         215 |

## String References

- **12654**: What do you know? [That it's all Melvien's doing!/"Strange"? Can you be more specific?]
- **12667**: What's your reaction? [I, uh.../Of course they will!]
- **12675**: Did you hear the news? [What news?/You mean the rumors about Ulbuka.]
- **12692**: Who is she referring to? [Sajj'aka./Morimar.]
- **12710**: How do you respond? [You may be right./What a lovely dream.]
- **12715**: Do you remember? [Of course I do!/Not really...]
- **12723**: How do you react? [It's tough out there./I've got a new rival!]

## Events

### Event 65535

#### Metadata

| Field        | Value   |
|--------------|---------|
| Entrypoint   | 0x0000  |
| Data Size    | 1 bytes |
| Instructions | 1       |

```
      00 01 02 03 04 05 06 07  08 09 0A 0B 0C 0D 0E 0F
      -- -- -- -- -- -- -- --  -- -- -- -- -- -- -- --
0000: 00                                                .               
```

#### Opcodes

```
  0: 0x0000 [0x00] END_REQSTACK()
```

### Event 178

#### Metadata

| Field        | Value      |
|--------------|------------|
| Entrypoint   | 0x0001     |
| Data Size    | 1283 bytes |
| Instructions | 147        |

```
      00 01 02 03 04 05 06 07  08 09 0A 0B 0C 0D 0E 0F
      -- -- -- -- -- -- -- --  -- -- -- -- -- -- -- --
0000:    42 1A EE 18 46 01 38  00 80 75 00 01 80 75 01   B...F.8..u...u.
0010: 92 01 90 00 10 01 92 01  38 00 10 01 92 01 91 00  ........8.......
0020: 10 01 94 01 F0 FF FF 7F  94 01 90 00 10 01 94 01  ................
0030: 38 00 10 01 94 01 91 00  10 01 22 00 BA F0 FF FF  8.........".....
0040: 7F 02 80 03 80 04 80 05  80 80 F0 FF FF 7F 80 91  ................
0050: 00 10 01 80 90 00 10 01  80 38 00 10 01 80 F8 FF  .........8......
0060: FF 7F 4A F0 FF FF 7F 91  00 10 01 4A 91 00 10 01  ..J........J....
0070: F0 FF FF 7F 1C 06 80 45  07 80 F8 FF FF 7F F8 FF  .......E........
0080: FF 7F 73 30 30 30 08 80  1C 09 80 45 0A 80 F0 FF  ..s000.....E....
0090: FF 7F F0 FF FF 7F 66 64  69 31 08 80 5F 06 0B 80  ......fdi1.._...
00A0: 91 00 10 01 91 00 10 01  74 6C 6B 30 0C 80 2B 91  ........tlk0..+.
00B0: 00 10 01 0D 80 23 5F 07  91 00 10 01 91 00 10 01  .....#_.........
00C0: 74 6C 6B 30 66 0B 80 91  00 10 01 91 00 10 01 74  tlk0f..........t
00D0: 6C 6B 31 52 07 80 F8 FF  FF 7F F8 FF FF 7F 73 30  lk1R..........s0
00E0: 30 30 45 07 80 F8 FF FF  7F F8 FF FF 7F 73 30 30  00E..........s00
00F0: 31 08 80 24 0E 80 08 80  08 80 25 02 00 10 08 80  1..$......%.....
0100: 00 7F 01 52 07 80 F8 FF  FF 7F F8 FF FF 7F 73 30  ...R..........s0
0110: 30 31 45 07 80 F8 FF FF  7F F8 FF FF 7F 73 30 30  01E..........s00
0120: 32 08 80 6E 91 00 10 01  0F 80 99 91 00 10 01 2B  2..n...........+
0130: 91 00 10 01 10 80 23 66  11 80 91 00 10 01 91 00  ......#f........
0140: 10 01 73 61 73 30 2B 91  00 10 01 12 80 23 53 91  ..sas0+......#S.
0150: 00 10 01 91 00 10 01 73  61 73 30 66 11 80 91 00  .......sas0f....
0160: 10 01 91 00 10 01 73 61  73 31 52 07 80 F8 FF FF  ......sas1R.....
0170: 7F F8 FF FF 7F 73 30 30  32 01 E2 00 01 7F 01 52  .....s002......R
0180: 07 80 F8 FF FF 7F F8 FF  FF 7F 73 30 30 31 45 07  ..........s001E.
0190: 80 F8 FF FF 7F F8 FF FF  7F 73 30 30 33 08 80 5F  .........s003.._
01A0: 06 0B 80 91 00 10 01 91  00 10 01 74 6C 6B 30 13  ...........tlk0.
01B0: 80 2B 91 00 10 01 14 80  23 2B 91 00 10 01 15 80  .+......#+......
01C0: 23 5F 07 91 00 10 01 91  00 10 01 74 6C 6B 30 66  #_.........tlk0f
01D0: 0B 80 91 00 10 01 91 00  10 01 74 6C 6B 31 52 07  ..........tlk1R.
01E0: 80 F8 FF FF 7F F8 FF FF  7F 73 30 30 33 45 07 80  .........s003E..
01F0: F8 FF FF 7F F8 FF FF 7F  73 30 30 34 08 80 2B 91  ........s004..+.
0200: 00 10 01 16 80 23 5F 06  0B 80 91 00 10 01 91 00  .....#_.........
0210: 10 01 74 68 6B 31 13 80  2B 91 00 10 01 17 80 23  ..thk1..+......#
0220: 5F 07 91 00 10 01 91 00  10 01 74 68 6B 31 66 0B  _.........thk1f.
0230: 80 91 00 10 01 91 00 10  01 74 68 6B 32 2B 91 00  .........thk2+..
0240: 10 01 18 80 23 52 07 80  F8 FF FF 7F F8 FF FF 7F  ....#R..........
0250: 73 30 30 34 45 07 80 F8  FF FF 7F F8 FF FF 7F 73  s004E..........s
0260: 30 30 35 08 80 27 05 91  00 10 01 26 2B 91 00 10  005..'.....&+...
0270: 01 19 80 23 2A 05 91 00  10 01 6E 91 00 10 01 1A  ...#*.....n.....
0280: 80 99 91 00 10 01 2B 91  00 10 01 1B 80 23 6E 91  ......+......#n.
0290: 00 10 01 1C 80 99 91 00  10 01 2B 91 00 10 01 1D  ..........+.....
02A0: 80 23 52 07 80 F8 FF FF  7F F8 FF FF 7F 73 30 30  .#R..........s00
02B0: 35 45 07 80 F8 FF FF 7F  F8 FF FF 7F 73 30 30 36  5E..........s006
02C0: 08 80 4A F0 FF FF 7F 91  00 10 01 1C 06 80 7C 00  ..J...........|.
02D0: 91 00 10 01 2B 91 00 10  01 1E 80 23 7C 01 91 00  ....+......#|...
02E0: 10 01 52 07 80 F8 FF FF  7F F8 FF FF 7F 73 30 30  ..R..........s00
02F0: 36 45 07 80 F8 FF FF 7F  F8 FF FF 7F 73 30 30 37  6E..........s007
0300: 08 80 4A 91 00 10 01 F0  FF FF 7F 1C 06 80 5F 06  ..J..........._.
0310: 0B 80 91 00 10 01 91 00  10 01 74 6C 6B 30 1F 80  ..........tlk0..
0320: 2B 91 00 10 01 20 80 23  5F 07 91 00 10 01 91 00  +.... .#_.......
0330: 10 01 74 6C 6B 30 66 0B  80 91 00 10 01 91 00 10  ..tlk0f.........
0340: 01 74 6C 6B 31 52 07 80  F8 FF FF 7F F8 FF FF 7F  .tlk1R..........
0350: 73 30 30 37 02 87 7F 21  80 80 70 03 45 07 80 F8  s007...!..p.E...
0360: FF FF 7F F8 FF FF 7F 73  30 30 39 08 80 01 9D 03  .......s009.....
0370: 02 87 7F 1A 80 80 8C 03  45 07 80 F8 FF FF 7F F8  ........E.......
0380: FF FF 7F 73 30 30 39 08  80 01 9D 03 45 07 80 F8  ...s009.....E...
0390: FF FF 7F F8 FF FF 7F 73  30 30 38 08 80 24 22 80  .......s008..$".
03A0: 08 80 08 80 25 02 00 10  08 80 00 14 04 6E F0 FF  ....%........n..
03B0: FF 7F 23 80 99 F0 FF FF  7F 1C 0C 80 52 07 80 F8  ..#.........R...
03C0: FF FF 7F F8 FF FF 7F 73  30 30 38 52 07 80 F8 FF  .......s008R....
03D0: FF 7F F8 FF FF 7F 73 30  30 39 45 07 80 F8 FF FF  ......s009E.....
03E0: 7F F8 FF FF 7F 73 30 31  30 08 80 6E 91 00 10 01  .....s010..n....
03F0: 0F 80 99 91 00 10 01 2B  91 00 10 01 24 80 23 52  .......+....$.#R
0400: 07 80 F8 FF FF 7F F8 FF  FF 7F 73 30 31 30 01 54  ..........s010.T
0410: 03 01 4C 04 02 00 10 25  80 00 4C 04 6E F0 FF FF  ..L....%..L.n...
0420: 7F 26 80 99 F0 FF FF 7F  1C 0C 80 52 07 80 F8 FF  .&.........R....
0430: FF 7F F8 FF FF 7F 73 30  30 38 52 07 80 F8 FF FF  ......s008R.....
0440: 7F F8 FF FF 7F 73 30 30  39 01 4C 04 45 07 80 F8  .....s009.L.E...
0450: FF FF 7F F8 FF FF 7F 73  30 31 31 08 80 6E 91 00  .......s011..n..
0460: 10 01 27 80 99 91 00 10  01 2B 91 00 10 01 28 80  ..'......+....(.
0470: 23 52 07 80 F8 FF FF 7F  F8 FF FF 7F 73 30 31 31  #R..........s011
0480: 45 07 80 F8 FF FF 7F F8  FF FF 7F 73 30 31 32 08  E..........s012.
0490: 80 5F 06 0B 80 91 00 10  01 91 00 10 01 74 6C 6B  ._...........tlk
04A0: 30 13 80 2B 91 00 10 01  29 80 23 2B 91 00 10 01  0..+....).#+....
04B0: 2A 80 23 5F 07 91 00 10  01 91 00 10 01 74 6C 6B  *.#_.........tlk
04C0: 30 66 0B 80 91 00 10 01  91 00 10 01 74 6C 6B 31  0f..........tlk1
04D0: 1A EE 18 1C 06 80 52 07  80 F8 FF FF 7F F8 FF FF  ......R.........
04E0: 7F 73 30 31 32 1C 09 80  AB 11 08 80 1C 25 80 46  .s012........%.F
04F0: 00 45 0A 80 F0 FF FF 7F  F0 FF FF 7F 66 64 69 32  .E..........fdi2
0500: 08 80 21 00                                       ..!.            
```

#### Opcodes

```
  0: 0x0001 [0x42] SET_CLI_EVENT_CANCEL_DATA()
  1: 0x0002 [0x1A] CALL_SUBROUTINE(address=0x18EE)
  2: 0x0005 [0x46] CAMERA_CONTROL: Disable user control
  3: 0x0007 [0x38] SET_CLIENT_EVENT_MODE(mode=147*)
  4: 0x000A [0x75] LOAD_ROOM(Load indoor room, room=585*)
  5: 0x000E [0x75] LOAD_ROOM(No action)
  6: 0x0010 [0x92] Brenton (ID: 17825936/0x01100090)->Render.Flags3 ^= 0x01
  7: 0x0016 [0x92] Task Delegator (ID: 17825848/0x01100038)->Render.Flags3 ^= 0x01
  8: 0x001C [0x92] Levil (ID: 17825937/0x01100091)->Render.Flags3 ^= 0x01
  9: 0x0022 [0x94] LocalPlayer->Render.Flags3 ^= 0x01
 10: 0x0028 [0x94] Brenton (ID: 17825936/0x01100090)->Render.Flags3 ^= 0x01
 11: 0x002E [0x94] Task Delegator (ID: 17825848/0x01100038)->Render.Flags3 ^= 0x01
 12: 0x0034 [0x94] Levil (ID: 17825937/0x01100091)->Render.Flags3 ^= 0x01
 13: 0x003A [0x22] ENTITY_HIDE_FLAG(enabled=0x00)
 14: 0x003C [0xBA] SET_ENTITY_POSITION(entity_id=LocalPlayer, pos_x=-89.372*, pos_z=13.649*, pos_y=3.349*, direction=23.7°*)
 15: 0x0049 [0x80] LOAD_WAIT(entity=LocalPlayer)
 16: 0x004E [0x80] LOAD_WAIT(entity=Levil (ID: 17825937/0x01100091))
 17: 0x0053 [0x80] LOAD_WAIT(entity=Brenton (ID: 17825936/0x01100090))
 18: 0x0058 [0x80] LOAD_WAIT(entity=Task Delegator (ID: 17825848/0x01100038))
 19: 0x005D [0x80] LOAD_WAIT(entity=EventEntity)
 20: 0x0062 [0x4A] LocalPlayer looks at Levil (ID: 17825937/0x01100091)
 21: 0x006B [0x4A] Levil (ID: 17825937/0x01100091) looks at LocalPlayer
 22: 0x0074 [0x1C] WAIT(30* ticks)
 23: 0x0077 [0x45] LOAD_SCHEDULED_TASK: Load scheduler "s000" with entities [EventEntity, EventEntity], work=[739*, 0*]
 24: 0x0088 [0x1C] WAIT(15* ticks)
 25: 0x008B [0x45] LOAD_SCHEDULED_TASK: Load scheduler "fdi1" with entities [LocalPlayer, LocalPlayer], work=[200*, 0*]
 26: 0x009C [0x5F] MULTI_HANDLER_COMPLEX(mode=0x06 - Load ext scheduler with flag (OpCode 0x5B mode 1, flag 1), ref=9*, entity1=Levil (ID: 17825937/0x01100091), entity2=Levil (ID: 17825937/0x01100091), string="tlk0", extra=90*)
 27: 0x00AE [0x2B] Levil (ID: 17825937/0x01100091) [12653*]:
    → "Come to shoot the breeze again, <Player>? Then let me ask--know anything 'bout all the strange reports we keep getting?"
 28: 0x00B5 [0x23] WAIT_FOR_DIALOG_INTERACTION
 29: 0x00B6 [0x5F] MULTI_HANDLER_COMPLEX(mode=0x07 - Wait scheduler task (OpCode 0x53))
 30: 0x00C4 [0x66] LOAD_EXT_SCHEDULER_MAIN: Load scheduler "tlk1" with entities [Levil (ID: 17825937/0x01100091), Levil (ID: 17825937/0x01100091)], work=9*
 31: 0x00D3 [0x52] END_LOAD_SCHEDULER: End scheduler "s000" with entities [EventEntity, EventEntity], work=739*
 32: 0x00E2 [0x45] LOAD_SCHEDULED_TASK: Load scheduler "s001" with entities [EventEntity, EventEntity], work=[739*, 0*]
 33: 0x00F3 [0x24] CREATE_DIALOG(message_id=12654*, default_option=0*, option_flags=0*)
    → "What do you know? [That it's all Melvien's doing!/"Strange"? Can you be more specific?]"
 34: 0x00FA [0x25] WAIT_DIALOG_SELECT()
 35: 0x00FB [0x02] IF !(Work_Zone[0] == 0*) GOTO 0x017F
 36: 0x0103 [0x52] END_LOAD_SCHEDULER: End scheduler "s001" with entities [EventEntity, EventEntity], work=739*
 37: 0x0112 [0x45] LOAD_SCHEDULED_TASK: Load scheduler "s002" with entities [EventEntity, EventEntity], work=[739*, 0*]
 38: 0x0123 [0x6E] Levil (ID: 17825937/0x01100091) uses emote 21*
 39: 0x012A [0x99] Wait for Levil (ID: 17825937/0x01100091) animation to complete
 40: 0x012F [0x2B] Levil (ID: 17825937/0x01100091) [12655*]:
    → "Wh-wh-what!?"
 41: 0x0136 [0x23] WAIT_FOR_DIALOG_INTERACTION
 42: 0x0137 [0x66] LOAD_EXT_SCHEDULER_MAIN: Load scheduler "sas0" with entities [Levil (ID: 17825937/0x01100091), Levil (ID: 17825937/0x01100091)], work=149*
 43: 0x0146 [0x2B] Levil (ID: 17825937/0x01100091) [12656*]:
    → "You gotta have some respect for the dead! You and I're close, so I know you didn't mean offense--but I wouldn't go around shouting that from the rooftops!"
 44: 0x014D [0x23] WAIT_FOR_DIALOG_INTERACTION
 45: 0x014E [0x53] WAIT_SCHEDULER_TASK: Wait for scheduler "sas0" with entities [Levil (ID: 17825937/0x01100091), Levil (ID: 17825937/0x01100091)]
 46: 0x015B [0x66] LOAD_EXT_SCHEDULER_MAIN: Load scheduler "sas1" with entities [Levil (ID: 17825937/0x01100091), Levil (ID: 17825937/0x01100091)], work=149*
 47: 0x016A [0x52] END_LOAD_SCHEDULER: End scheduler "s002" with entities [EventEntity, EventEntity], work=739*
 48: 0x0179 [0x01] GOTO 0x00E2

SUBROUTINE_017F:
 49: 0x017F [0x52] END_LOAD_SCHEDULER: End scheduler "s001" with entities [EventEntity, EventEntity], work=739*
 50: 0x018E [0x45] LOAD_SCHEDULED_TASK: Load scheduler "s003" with entities [EventEntity, EventEntity], work=[739*, 0*]
 51: 0x019F [0x5F] MULTI_HANDLER_COMPLEX(mode=0x06 - Load ext scheduler with flag (OpCode 0x5B mode 1, flag 1), ref=9*, entity1=Levil (ID: 17825937/0x01100091), entity2=Levil (ID: 17825937/0x01100091), string="tlk0", extra=120*)
 52: 0x01B1 [0x2B] Levil (ID: 17825937/0x01100091) [12657*]:
    → "Well, Yorcia Weald and Cirdas Caverns were never really great vacation destinations to begin with, but lately, it's gotten worse. Unidentified beasts're prowling all over, killing pioneers and support staff indiscriminately. Then came the miasma..."
 53: 0x01B8 [0x23] WAIT_FOR_DIALOG_INTERACTION
 54: 0x01B9 [0x2B] Levil (ID: 17825937/0x01100091) [12658*]:
    → "Unearthly gales, winds piercing the skin like daggers, choleric miasmas choking the land...it's terrible out there, <Player>, just terrible."
 55: 0x01C0 [0x23] WAIT_FOR_DIALOG_INTERACTION
 56: 0x01C1 [0x5F] MULTI_HANDLER_COMPLEX(mode=0x07 - Wait scheduler task (OpCode 0x53))
 57: 0x01CF [0x66] LOAD_EXT_SCHEDULER_MAIN: Load scheduler "tlk1" with entities [Levil (ID: 17825937/0x01100091), Levil (ID: 17825937/0x01100091)], work=9*
 58: 0x01DE [0x52] END_LOAD_SCHEDULER: End scheduler "s003" with entities [EventEntity, EventEntity], work=739*
 59: 0x01ED [0x45] LOAD_SCHEDULED_TASK: Load scheduler "s004" with entities [EventEntity, EventEntity], work=[739*, 0*]
 60: 0x01FE [0x2B] Levil (ID: 17825937/0x01100091) [12659*]:
    → "Adoulinians grow up being taught to fear the forest, so it shouldn't come as such a surprise...but I'd be lying if I said I hadn't been blindsided."
 61: 0x0205 [0x23] WAIT_FOR_DIALOG_INTERACTION
 62: 0x0206 [0x5F] MULTI_HANDLER_COMPLEX(mode=0x06 - Load ext scheduler with flag (OpCode 0x5B mode 1, flag 1), ref=9*, entity1=Levil (ID: 17825937/0x01100091), entity2=Levil (ID: 17825937/0x01100091), string="thk1", extra=120*)
 63: 0x0218 [0x2B] Levil (ID: 17825937/0x01100091) [12660*]:
    → "And it's not just me--the entire coalition's whipped into a frenzy, because nothing we think of helps."
 64: 0x021F [0x23] WAIT_FOR_DIALOG_INTERACTION
 65: 0x0220 [0x5F] MULTI_HANDLER_COMPLEX(mode=0x07 - Wait scheduler task (OpCode 0x53))
 66: 0x022E [0x66] LOAD_EXT_SCHEDULER_MAIN: Load scheduler "thk2" with entities [Levil (ID: 17825937/0x01100091), Levil (ID: 17825937/0x01100091)], work=9*
 67: 0x023D [0x2B] Levil (ID: 17825937/0x01100091) [12661*]:
    → "Doesn't matter if you're up aboveground or sulking in the caves--pioneering's all-encompassing, and without a proper countermeasure our hands're tied."
 68: 0x0244 [0x23] WAIT_FOR_DIALOG_INTERACTION
 69: 0x0245 [0x52] END_LOAD_SCHEDULER: End scheduler "s004" with entities [EventEntity, EventEntity], work=739*
 70: 0x0254 [0x45] LOAD_SCHEDULED_TASK: Load scheduler "s005" with entities [EventEntity, EventEntity], work=[739*, 0*]
 71: 0x0265 [0x27] REQ_SET(priority=0x05, entity_id=Levil (ID: 17825937/0x01100091), tag_num=0x26)
 72: 0x026C [0x2B] Levil (ID: 17825937/0x01100091) [12662*]:
    → "Things've only gotten worse since Melvien's passing..."
 73: 0x0273 [0x23] WAIT_FOR_DIALOG_INTERACTION
 74: 0x0274 [0x2A] GET_REQ_LEVEL(level=5, entity_id=Levil (ID: 17825937/0x01100091))
 75: 0x027A [0x6E] Levil (ID: 17825937/0x01100091) uses emote 6*
 76: 0x0281 [0x99] Wait for Levil (ID: 17825937/0x01100091) animation to complete
 77: 0x0286 [0x2B] Levil (ID: 17825937/0x01100091) [12663*]:
    → "Even the leathery one hasn't been the same. Some days back, she went to some convocation of the twelve orders up at the castle, and when she returned her face was white as a sheet and she's remained clammed up ever since."
 78: 0x028D [0x23] WAIT_FOR_DIALOG_INTERACTION
 79: 0x028E [0x6E] Levil (ID: 17825937/0x01100091) uses emote 26*
 80: 0x0295 [0x99] Wait for Levil (ID: 17825937/0x01100091) animation to complete
 81: 0x029A [0x2B] Levil (ID: 17825937/0x01100091) [12664*]:
    → "Landshivers, mysterious deaths, quiet maesters...what's Adoulin coming to?"
 82: 0x02A1 [0x23] WAIT_FOR_DIALOG_INTERACTION
 83: 0x02A2 [0x52] END_LOAD_SCHEDULER: End scheduler "s005" with entities [EventEntity, EventEntity], work=739*
 84: 0x02B1 [0x45] LOAD_SCHEDULED_TASK: Load scheduler "s006" with entities [EventEntity, EventEntity], work=[739*, 0*]
 85: 0x02C2 [0x4A] LocalPlayer looks at Levil (ID: 17825937/0x01100091)
 86: 0x02CB [0x1C] WAIT(30* ticks)
 87: 0x02CE [0x7C] Levil (ID: 17825937/0x01100091)->Render.Flags2 |= 0x00
 88: 0x02D4 [0x2B] Levil (ID: 17825937/0x01100091) [12665*]:
    → "<Sigh>"
 89: 0x02DB [0x23] WAIT_FOR_DIALOG_INTERACTION
 90: 0x02DC [0x7C] Levil (ID: 17825937/0x01100091)->Render.Flags2 |= 0x01
 91: 0x02E2 [0x52] END_LOAD_SCHEDULER: End scheduler "s006" with entities [EventEntity, EventEntity], work=739*
 92: 0x02F1 [0x45] LOAD_SCHEDULED_TASK: Load scheduler "s007" with entities [EventEntity, EventEntity], work=[739*, 0*]
 93: 0x0302 [0x4A] Levil (ID: 17825937/0x01100091) looks at LocalPlayer
 94: 0x030B [0x1C] WAIT(30* ticks)
 95: 0x030E [0x5F] MULTI_HANDLER_COMPLEX(mode=0x06 - Load ext scheduler with flag (OpCode 0x5B mode 1, flag 1), ref=9*, entity1=Levil (ID: 17825937/0x01100091), entity2=Levil (ID: 17825937/0x01100091), string="tlk0", extra=60*)
 96: 0x0320 [0x2B] Levil (ID: 17825937/0x01100091) [12666*]:
    → "Tell me, <Player>. Tell me things'll come out all right."
 97: 0x0327 [0x23] WAIT_FOR_DIALOG_INTERACTION
 98: 0x0328 [0x5F] MULTI_HANDLER_COMPLEX(mode=0x07 - Wait scheduler task (OpCode 0x53))
 99: 0x0336 [0x66] LOAD_EXT_SCHEDULER_MAIN: Load scheduler "tlk1" with entities [Levil (ID: 17825937/0x01100091), Levil (ID: 17825937/0x01100091)], work=9*
100: 0x0345 [0x52] END_LOAD_SCHEDULER: End scheduler "s007" with entities [EventEntity, EventEntity], work=739*

SUBROUTINE_0354:
101: 0x0354 [0x02] IF !(LocalPlayer->Race == 5*) GOTO 0x0370
102: 0x035C [0x45] LOAD_SCHEDULED_TASK: Load scheduler "s009" with entities [EventEntity, EventEntity], work=[739*, 0*]
103: 0x036D [0x01] GOTO 0x039D
104: 0x0370 [0x02] IF !(LocalPlayer->Race == 6*) GOTO 0x038C
105: 0x0378 [0x45] LOAD_SCHEDULED_TASK: Load scheduler "s009" with entities [EventEntity, EventEntity], work=[739*, 0*]
106: 0x0389 [0x01] GOTO 0x039D
107: 0x038C [0x45] LOAD_SCHEDULED_TASK: Load scheduler "s008" with entities [EventEntity, EventEntity], work=[739*, 0*]

SUBROUTINE_039D:
108: 0x039D [0x24] CREATE_DIALOG(message_id=12667*, default_option=0*, option_flags=0*)
    → "What's your reaction? [I, uh.../Of course they will!]"
109: 0x03A4 [0x25] WAIT_DIALOG_SELECT()
110: 0x03A5 [0x02] IF !(Work_Zone[0] == 0*) GOTO 0x0414
111: 0x03AD [0x6E] LocalPlayer uses emote 32*
112: 0x03B4 [0x99] Wait for LocalPlayer animation to complete
113: 0x03B9 [0x1C] WAIT(90* ticks)
114: 0x03BC [0x52] END_LOAD_SCHEDULER: End scheduler "s008" with entities [EventEntity, EventEntity], work=739*
115: 0x03CB [0x52] END_LOAD_SCHEDULER: End scheduler "s009" with entities [EventEntity, EventEntity], work=739*
116: 0x03DA [0x45] LOAD_SCHEDULED_TASK: Load scheduler "s010" with entities [EventEntity, EventEntity], work=[739*, 0*]
117: 0x03EB [0x6E] Levil (ID: 17825937/0x01100091) uses emote 21*
118: 0x03F2 [0x99] Wait for Levil (ID: 17825937/0x01100091) animation to complete
119: 0x03F7 [0x2B] Levil (ID: 17825937/0x01100091) [12668*]:
    → "Wh-why are you stuttering!? If it's got you spooked, then what hope do the rest of us have?"
120: 0x03FE [0x23] WAIT_FOR_DIALOG_INTERACTION
121: 0x03FF [0x52] END_LOAD_SCHEDULER: End scheduler "s010" with entities [EventEntity, EventEntity], work=739*
122: 0x040E [0x01] GOTO 0x0354

SUBROUTINE_044C:
123: 0x044C [0x45] LOAD_SCHEDULED_TASK: Load scheduler "s011" with entities [EventEntity, EventEntity], work=[739*, 0*]
124: 0x045D [0x6E] Levil (ID: 17825937/0x01100091) uses emote 7*
125: 0x0464 [0x99] Wait for Levil (ID: 17825937/0x01100091) animation to complete
126: 0x0469 [0x2B] Levil (ID: 17825937/0x01100091) [12669*]:
    → "Ph-phew. Hearing you say it almost makes me believe it."
127: 0x0470 [0x23] WAIT_FOR_DIALOG_INTERACTION
128: 0x0471 [0x52] END_LOAD_SCHEDULER: End scheduler "s011" with entities [EventEntity, EventEntity], work=739*
129: 0x0480 [0x45] LOAD_SCHEDULED_TASK: Load scheduler "s012" with entities [EventEntity, EventEntity], work=[739*, 0*]
130: 0x0491 [0x5F] MULTI_HANDLER_COMPLEX(mode=0x06 - Load ext scheduler with flag (OpCode 0x5B mode 1, flag 1), ref=9*, entity1=Levil (ID: 17825937/0x01100091), entity2=Levil (ID: 17825937/0x01100091), string="tlk0", extra=120*)
131: 0x04A3 [0x2B] Levil (ID: 17825937/0x01100091) [12670*]:
    → "Now that I think about it, I haven't seen Arciela 'round here recently. You been keeping tabs on her?"
132: 0x04AA [0x23] WAIT_FOR_DIALOG_INTERACTION
133: 0x04AB [0x2B] Levil (ID: 17825937/0x01100091) [12671*]:
    → "You gotta bring some joy to her face. Her smile fills my heart with hope."
134: 0x04B2 [0x23] WAIT_FOR_DIALOG_INTERACTION
135: 0x04B3 [0x5F] MULTI_HANDLER_COMPLEX(mode=0x07 - Wait scheduler task (OpCode 0x53))
136: 0x04C1 [0x66] LOAD_EXT_SCHEDULER_MAIN: Load scheduler "tlk1" with entities [Levil (ID: 17825937/0x01100091), Levil (ID: 17825937/0x01100091)], work=9*
137: 0x04D0 [0x1A] CALL_SUBROUTINE(address=0x18EE)
138: 0x04D3 [0x1C] WAIT(30* ticks)
139: 0x04D6 [0x52] END_LOAD_SCHEDULER: End scheduler "s012" with entities [EventEntity, EventEntity], work=739*
140: 0x04E5 [0x1C] WAIT(15* ticks)
141: 0x04E8 [0xAB] EventEntity->DespawnValue = 0* // Set despawn value
142: 0x04EC [0x1C] WAIT(1* ticks)
143: 0x04EF [0x46] CAMERA_CONTROL: Restore default settings
144: 0x04F1 [0x45] LOAD_SCHEDULED_TASK: Load scheduler "fdi2" with entities [LocalPlayer, LocalPlayer], work=[200*, 0*]
145: 0x0502 [0x21] END_EVENT
146: 0x0503 [0x00] END_REQSTACK()
```

#### Data or dead code:

```
# Dead code (unreachable instructions):
     0x017C [0x01] GOTO 0x017F
# Dead code (unreachable instructions):
     0x0411 [0x01] GOTO 0x044C
```

### Event 179

#### Metadata

| Field        | Value      |
|--------------|------------|
| Entrypoint   | 0x0504     |
| Data Size    | 1296 bytes |
| Instructions | 160        |

```
      00 01 02 03 04 05 06 07  08 09 0A 0B 0C 0D 0E 0F
      -- -- -- -- -- -- -- --  -- -- -- -- -- -- -- --
0500:             42 1A EE 18  46 01 38 00 80 2F 00 A8      B...F.8../..
0510: 00 10 01 4E 00 A8 00 10  01 92 01 A8 00 10 01 94  ...N............
0520: 01 A8 00 10 01 BA F0 FF  FF 7F 2B 80 2C 80 2D 80  ..........+.,.-.
0530: 2E 80 BA A8 00 10 01 2F  80 30 80 2D 80 31 80 80  ......./.0.-.1..
0540: F0 FF FF 7F 80 A8 00 10  01 45 07 80 F8 FF FF 7F  .........E......
0550: F8 FF FF 7F 73 31 37 34  08 80 1C 09 80 45 0A 80  ....s174.....E..
0560: F0 FF FF 7F F0 FF FF 7F  66 64 69 31 08 80 1C 32  ........fdi1...2
0570: 80 27 05 A8 00 10 01 08  1C 09 80 52 07 80 F8 FF  .'.........R....
0580: FF 7F F8 FF FF 7F 73 31  37 34 45 07 80 F8 FF FF  ......s174E.....
0590: 7F F8 FF FF 7F 73 30 31  33 08 80 2B A8 00 10 01  .....s013..+....
05A0: 33 80 1C 06 80 4A F0 FF  FF 7F A8 00 10 01 2A 05  3....J........*.
05B0: A8 00 10 01 1C 06 80 5B  34 80 A8 00 10 01 A8 00  .......[4.......
05C0: 10 01 74 6C 6B 30 2B A8  00 10 01 35 80 23 5B 34  ..tlk0+....5.#[4
05D0: 80 A8 00 10 01 A8 00 10  01 74 6C 6B 31 52 07 80  .........tlk1R..
05E0: F8 FF FF 7F F8 FF FF 7F  73 30 31 33 45 07 80 F8  ........s013E...
05F0: FF FF 7F F8 FF FF 7F 73  30 31 34 08 80 24 36 80  .......s014..$6.
0600: 08 80 08 80 25 02 00 10  08 80 00 9C 06 6E F0 FF  ....%........n..
0610: FF 7F 37 80 99 F0 FF FF  7F 1C 38 80 81 00 A8 00  ..7.......8.....
0620: 10 01 5B 39 80 A8 00 10  01 A8 00 10 01 74 68 6B  ..[9.........thk
0630: 30 1C 3A 80 52 07 80 F8  FF FF 7F F8 FF FF 7F 73  0.:.R..........s
0640: 30 31 34 45 07 80 F8 FF  FF 7F F8 FF FF 7F 73 30  014E..........s0
0650: 31 35 08 80 2B A8 00 10  01 3B 80 23 81 01 A8 00  15..+....;.#....
0660: 10 01 5B 39 80 A8 00 10  01 A8 00 10 01 74 68 6B  ..[9.........thk
0670: 31 52 07 80 F8 FF FF 7F  F8 FF FF 7F 73 30 31 35  1R..........s015
0680: 45 07 80 F8 FF FF 7F F8  FF FF 7F 73 30 31 36 08  E..........s016.
0690: 80 2B A8 00 10 01 3C 80  23 01 F2 06 02 00 10 25  .+....<.#......%
06A0: 80 00 F2 06 27 05 F0 FF  FF 7F 09 1C 38 80 27 05  ....'.......8.'.
06B0: F0 FF FF 7F 0A 1C 3D 80  52 07 80 F8 FF FF 7F F8  ......=.R.......
06C0: FF FF 7F 73 30 31 34 45  07 80 F8 FF FF 7F F8 FF  ...s014E........
06D0: FF 7F 73 30 31 36 08 80  5B 3E 80 A8 00 10 01 A8  ..s016..[>......
06E0: 00 10 01 79 65 73 30 2B  A8 00 10 01 3F 80 23 01  ...yes0+....?.#.
06F0: F2 06 2B A8 00 10 01 40  80 23 52 07 80 F8 FF FF  ..+....@.#R.....
0700: 7F F8 FF FF 7F 73 30 31  36 45 07 80 F8 FF FF 7F  .....s016E......
0710: F8 FF FF 7F 73 30 31 37  08 80 2B A8 00 10 01 41  ....s017..+....A
0720: 80 23 2B A8 00 10 01 42  80 23 52 07 80 F8 FF FF  .#+....B.#R.....
0730: 7F F8 FF FF 7F 73 30 31  37 45 07 80 F8 FF FF 7F  .....s017E......
0740: F8 FF FF 7F 73 30 31 38  08 80 27 05 A8 00 10 01  ....s018..'.....
0750: 09 2B A8 00 10 01 43 80  23 2B A8 00 10 01 44 80  .+....C.#+....D.
0760: 23 2A 05 A8 00 10 01 52  07 80 F8 FF FF 7F F8 FF  #*.....R........
0770: FF 7F 73 30 31 38 45 07  80 F8 FF FF 7F F8 FF FF  ..s018E.........
0780: 7F 73 30 31 39 08 80 81  00 A8 00 10 01 5B 39 80  .s019........[9.
0790: A8 00 10 01 A8 00 10 01  74 68 6B 30 2B A8 00 10  ........thk0+...
07A0: 01 45 80 1C 06 80 4A F0  FF FF 7F A8 00 10 01 23  .E....J........#
07B0: 2B A8 00 10 01 46 80 23  2B A8 00 10 01 47 80 23  +....F.#+....G.#
07C0: 5B 39 80 A8 00 10 01 A8  00 10 01 74 68 6B 31 1C  [9.........thk1.
07D0: 1F 80 52 07 80 F8 FF FF  7F F8 FF FF 7F 73 30 31  ..R..........s01
07E0: 39 45 07 80 F8 FF FF 7F  F8 FF FF 7F 73 30 32 30  9E..........s020
07F0: 08 80 81 01 A8 00 10 01  1C 1F 80 4A A8 00 10 01  ...........J....
0800: F0 FF FF 7F 7B A8 00 10  01 1C 06 80 5F 05 34 80  ....{......._.4.
0810: A8 00 10 01 A8 00 10 01  74 6C 6B 30 38 80 2B A8  ........tlk08.+.
0820: 00 10 01 48 80 23 2B A8  00 10 01 49 80 23 5F 07  ...H.#+....I.#_.
0830: A8 00 10 01 A8 00 10 01  74 6C 6B 30 81 00 A8 00  ........tlk0....
0840: 10 01 7C 00 A8 00 10 01  5B 4A 80 A8 00 10 01 A8  ..|.....[J......
0850: 00 10 01 66 6A 30 31 1C  06 80 5B 3E 80 A8 00 10  ...fj01...[>....
0860: 01 A8 00 10 01 74 6C 62  32 52 07 80 F8 FF FF 7F  .....tlb2R......
0870: F8 FF FF 7F 73 30 32 30  45 07 80 F8 FF FF 7F F8  ....s020E.......
0880: FF FF 7F 73 30 32 31 08  80 2B A8 00 10 01 4B 80  ...s021..+....K.
0890: 23 2B A8 00 10 01 4C 80  23 5B 3E 80 A8 00 10 01  #+....L.#[>.....
08A0: A8 00 10 01 74 6C 62 31  1C 3A 80 52 07 80 F8 FF  ....tlb1.:.R....
08B0: FF 7F F8 FF FF 7F 73 30  32 31 45 07 80 F8 FF FF  ......s021E.....
08C0: 7F F8 FF FF 7F 73 30 32  32 08 80 2B A8 00 10 01  .....s022..+....
08D0: 4D 80 1C 4E 80 23 5B 4A  80 A8 00 10 01 A8 00 10  M..N.#[J........
08E0: 01 66 6A 30 30 52 07 80  F8 FF FF 7F F8 FF FF 7F  .fj00R..........
08F0: 73 30 32 32 45 07 80 F8  FF FF 7F F8 FF FF 7F 73  s022E..........s
0900: 30 32 33 08 80 24 4F 80  08 80 08 80 25 02 00 10  023..$O.....%...
0910: 08 80 00 64 09 5B 4A 80  A8 00 10 01 A8 00 10 01  ...d.[J.........
0920: 66 68 30 31 1C 06 80 52  07 80 F8 FF FF 7F F8 FF  fh01...R........
0930: FF 7F 73 30 32 33 45 07  80 F8 FF FF 7F F8 FF FF  ..s023E.........
0940: 7F 73 30 32 34 08 80 5F  05 3E 80 A8 00 10 01 A8  .s024.._.>......
0950: 00 10 01 79 65 73 30 50  80 2B A8 00 10 01 51 80  ...yes0P.+....Q.
0960: 23 01 BB 09 02 00 10 25  80 00 BB 09 5B 4A 80 A8  #......%....[J..
0970: 00 10 01 A8 00 10 01 66  68 30 31 1C 06 80 52 07  .......fh01...R.
0980: 80 F8 FF FF 7F F8 FF FF  7F 73 30 32 33 45 07 80  .........s023E..
0990: F8 FF FF 7F F8 FF FF 7F  73 30 32 34 08 80 5F 05  ........s024.._.
09A0: 3E 80 A8 00 10 01 A8 00  10 01 79 65 73 30 50 80  >.........yes0P.
09B0: 2B A8 00 10 01 52 80 23  01 BB 09 2B A8 00 10 01  +....R.#...+....
09C0: 53 80 23 5F 07 A8 00 10  01 A8 00 10 01 79 65 73  S.#_.........yes
09D0: 30 5B 4A 80 A8 00 10 01  A8 00 10 01 66 68 30 30  0[J.........fh00
09E0: 1A EE 18 1C 06 80 52 07  80 F8 FF FF 7F F8 FF FF  ......R.........
09F0: 7F 73 30 32 34 1C 09 80  AB 11 08 80 1C 25 80 46  .s024........%.F
0A00: 00 45 0A 80 F0 FF FF 7F  F0 FF FF 7F 66 64 69 32  .E..........fdi2
0A10: 08 80 21 00                                       ..!.            
```

#### Opcodes

```
  0: 0x0504 [0x42] SET_CLI_EVENT_CANCEL_DATA()
  1: 0x0505 [0x1A] CALL_SUBROUTINE(address=0x18EE)
  2: 0x0508 [0x46] CAMERA_CONTROL: Disable user control
  3: 0x050A [0x38] SET_CLIENT_EVENT_MODE(mode=147*)
  4: 0x050D [0x2F] Arciela (ID: 17825960/0x011000A8)->Render.Flags0 &= ~0x80000 // Bit 19
  5: 0x0513 [0x4E] SET_ENTITY_HIDE_FLAG: Show Arciela (ID: 17825960/0x011000A8)
  6: 0x0519 [0x92] Arciela (ID: 17825960/0x011000A8)->Render.Flags3 ^= 0x01
  7: 0x051F [0x94] Arciela (ID: 17825960/0x011000A8)->Render.Flags3 ^= 0x01
  8: 0x0525 [0xBA] SET_ENTITY_POSITION(entity_id=LocalPlayer, pos_x=111.699*, pos_z=171.872*, pos_y=32.000*, direction=74.5°*)
  9: 0x0532 [0xBA] SET_ENTITY_POSITION(entity_id=Arciela (ID: 17825960/0x011000A8), pos_x=103.056*, pos_z=167.778*, pos_y=32.000*, direction=338.0°*)
 10: 0x053F [0x80] LOAD_WAIT(entity=LocalPlayer)
 11: 0x0544 [0x80] LOAD_WAIT(entity=Arciela (ID: 17825960/0x011000A8))
 12: 0x0549 [0x45] LOAD_SCHEDULED_TASK: Load scheduler "s174" with entities [EventEntity, EventEntity], work=[739*, 0*]
 13: 0x055A [0x1C] WAIT(15* ticks)
 14: 0x055D [0x45] LOAD_SCHEDULED_TASK: Load scheduler "fdi1" with entities [LocalPlayer, LocalPlayer], work=[200*, 0*]
 15: 0x056E [0x1C] WAIT(150* ticks)
 16: 0x0571 [0x27] REQ_SET(priority=0x05, entity_id=Arciela (ID: 17825960/0x011000A8), tag_num=0x08)
 17: 0x0578 [0x1C] WAIT(15* ticks)
 18: 0x057B [0x52] END_LOAD_SCHEDULER: End scheduler "s174" with entities [EventEntity, EventEntity], work=739*
 19: 0x058A [0x45] LOAD_SCHEDULED_TASK: Load scheduler "s013" with entities [EventEntity, EventEntity], work=[739*, 0*]
 20: 0x059B [0x2B] Arciela (ID: 17825960/0x011000A8) [12673*]:
    → "<Player>!"
 21: 0x05A2 [0x1C] WAIT(30* ticks)
 22: 0x05A5 [0x4A] LocalPlayer looks at Arciela (ID: 17825960/0x011000A8)
 23: 0x05AE [0x2A] GET_REQ_LEVEL(level=5, entity_id=Arciela (ID: 17825960/0x011000A8))
 24: 0x05B4 [0x1C] WAIT(30* ticks)
 25: 0x05B7 [0x5B] LOAD_EXT_SCHEDULER: Load scheduler "tlk0" with entities [Arciela (ID: 17825960/0x011000A8), Arciela (ID: 17825960/0x011000A8)], work=3217*
 26: 0x05C6 [0x2B] Arciela (ID: 17825960/0x011000A8) [12674*]:
    → "What with the commotion at the castle, I knew it'd be best if we met here. Surely the news has reached your ears, too."
 27: 0x05CD [0x23] WAIT_FOR_DIALOG_INTERACTION
 28: 0x05CE [0x5B] LOAD_EXT_SCHEDULER: Load scheduler "tlk1" with entities [Arciela (ID: 17825960/0x011000A8), Arciela (ID: 17825960/0x011000A8)], work=3217*
 29: 0x05DD [0x52] END_LOAD_SCHEDULER: End scheduler "s013" with entities [EventEntity, EventEntity], work=739*
 30: 0x05EC [0x45] LOAD_SCHEDULED_TASK: Load scheduler "s014" with entities [EventEntity, EventEntity], work=[739*, 0*]
 31: 0x05FD [0x24] CREATE_DIALOG(message_id=12675*, default_option=0*, option_flags=0*)
    → "Did you hear the news? [What news?/You mean the rumors about Ulbuka.]"
 32: 0x0604 [0x25] WAIT_DIALOG_SELECT()
 33: 0x0605 [0x02] IF !(Work_Zone[0] == 0*) GOTO 0x069C
 34: 0x060D [0x6E] LocalPlayer uses emote 22*
 35: 0x0614 [0x99] Wait for LocalPlayer animation to complete
 36: 0x0619 [0x1C] WAIT(80* ticks)
 37: 0x061C [0x81] SET_ENTITY_BLINKING(blink_flag=0x00, entity=Arciela (ID: 17825960/0x011000A8))
 38: 0x0622 [0x5B] LOAD_EXT_SCHEDULER: Load scheduler "thk0" with entities [Arciela (ID: 17825960/0x011000A8), Arciela (ID: 17825960/0x011000A8)], work=3219*
 39: 0x0631 [0x1C] WAIT(10* ticks)
 40: 0x0634 [0x52] END_LOAD_SCHEDULER: End scheduler "s014" with entities [EventEntity, EventEntity], work=739*
 41: 0x0643 [0x45] LOAD_SCHEDULED_TASK: Load scheduler "s015" with entities [EventEntity, EventEntity], work=[739*, 0*]
 42: 0x0654 [0x2B] Arciela (ID: 17825960/0x011000A8) [12676*]:
    → "How couldn't you be...? I thought you had feelers out everywhere, but maybe this one passed you by. I'll fill you in."
 43: 0x065B [0x23] WAIT_FOR_DIALOG_INTERACTION
 44: 0x065C [0x81] SET_ENTITY_BLINKING(blink_flag=0x01, entity=Arciela (ID: 17825960/0x011000A8))
 45: 0x0662 [0x5B] LOAD_EXT_SCHEDULER: Load scheduler "thk1" with entities [Arciela (ID: 17825960/0x011000A8), Arciela (ID: 17825960/0x011000A8)], work=3219*
 46: 0x0671 [0x52] END_LOAD_SCHEDULER: End scheduler "s015" with entities [EventEntity, EventEntity], work=739*
 47: 0x0680 [0x45] LOAD_SCHEDULED_TASK: Load scheduler "s016" with entities [EventEntity, EventEntity], work=[739*, 0*]
 48: 0x0691 [0x2B] Arciela (ID: 17825960/0x011000A8) [12677*]:
    → "The buzz at the Pioneers' Coalition is that something is very, very wrong in the jungle."
 49: 0x0698 [0x23] WAIT_FOR_DIALOG_INTERACTION
 50: 0x0699 [0x01] GOTO 0x06F2
 51: 0x069C [0x02] IF !(Work_Zone[0] == 1*) GOTO 0x06F2
 52: 0x06A4 [0x27] REQ_SET(priority=0x05, entity_id=LocalPlayer, tag_num=0x09)
 53: 0x06AB [0x1C] WAIT(80* ticks)
 54: 0x06AE [0x27] REQ_SET(priority=0x05, entity_id=LocalPlayer, tag_num=0x0A)
 55: 0x06B5 [0x1C] WAIT(40* ticks)
 56: 0x06B8 [0x52] END_LOAD_SCHEDULER: End scheduler "s014" with entities [EventEntity, EventEntity], work=739*
 57: 0x06C7 [0x45] LOAD_SCHEDULED_TASK: Load scheduler "s016" with entities [EventEntity, EventEntity], work=[739*, 0*]
 58: 0x06D8 [0x5B] LOAD_EXT_SCHEDULER: Load scheduler "yes0" with entities [Arciela (ID: 17825960/0x011000A8), Arciela (ID: 17825960/0x011000A8)], work=3231*
 59: 0x06E7 [0x2B] Arciela (ID: 17825960/0x011000A8) [12678*]:
    → "Yes, exactly."
 60: 0x06EE [0x23] WAIT_FOR_DIALOG_INTERACTION
 61: 0x06EF [0x01] GOTO 0x06F2

SUBROUTINE_06F2:
 62: 0x06F2 [0x2B] Arciela (ID: 17825960/0x011000A8) [12679*]:
    → "Luckily, I've access to the closed stacks at the Celennia Memorial Library thanks to our previous dealings with them, and I've spent many days and nights toiling over the tomes, cross-checking those rumors with past records."
 63: 0x06F9 [0x23] WAIT_FOR_DIALOG_INTERACTION
 64: 0x06FA [0x52] END_LOAD_SCHEDULER: End scheduler "s016" with entities [EventEntity, EventEntity], work=739*
 65: 0x0709 [0x45] LOAD_SCHEDULED_TASK: Load scheduler "s017" with entities [EventEntity, EventEntity], work=[739*, 0*]
 66: 0x071A [0x2B] Arciela (ID: 17825960/0x011000A8) [12680*]:
    → "I've discovered that there are references to the Cimmerian Adherents...the followers of Hades. Their coming in past ages was accompanied by toxic miasmas, blades of wind, and the sullying of the land."
 67: 0x0721 [0x23] WAIT_FOR_DIALOG_INTERACTION
 68: 0x0722 [0x2B] Arciela (ID: 17825960/0x011000A8) [12681*]:
    → "Those must be the Xol Triumvirate that unsettled Sajj'aka."
 69: 0x0729 [0x23] WAIT_FOR_DIALOG_INTERACTION
 70: 0x072A [0x52] END_LOAD_SCHEDULER: End scheduler "s017" with entities [EventEntity, EventEntity], work=739*
 71: 0x0739 [0x45] LOAD_SCHEDULED_TASK: Load scheduler "s018" with entities [EventEntity, EventEntity], work=[739*, 0*]
 72: 0x074A [0x27] REQ_SET(priority=0x05, entity_id=Arciela (ID: 17825960/0x011000A8), tag_num=0x09)
 73: 0x0751 [0x2B] Arciela (ID: 17825960/0x011000A8) [12682*]:
    → "Surely you haven't forgotten what that sadistic clown Balamor introduced himself as?"
 74: 0x0758 [0x23] WAIT_FOR_DIALOG_INTERACTION
 75: 0x0759 [0x2B] Arciela (ID: 17825960/0x011000A8) [12683*]:
    → ""The Deathborne Xol." That'd mean he's one of the triumvirate, right?"
 76: 0x0760 [0x23] WAIT_FOR_DIALOG_INTERACTION
 77: 0x0761 [0x2A] GET_REQ_LEVEL(level=5, entity_id=Arciela (ID: 17825960/0x011000A8))
 78: 0x0767 [0x52] END_LOAD_SCHEDULER: End scheduler "s018" with entities [EventEntity, EventEntity], work=739*
 79: 0x0776 [0x45] LOAD_SCHEDULED_TASK: Load scheduler "s019" with entities [EventEntity, EventEntity], work=[739*, 0*]
 80: 0x0787 [0x81] SET_ENTITY_BLINKING(blink_flag=0x00, entity=Arciela (ID: 17825960/0x011000A8))
 81: 0x078D [0x5B] LOAD_EXT_SCHEDULER: Load scheduler "thk0" with entities [Arciela (ID: 17825960/0x011000A8), Arciela (ID: 17825960/0x011000A8)], work=3219*
 82: 0x079C [0x2B] Arciela (ID: 17825960/0x011000A8) [12684*]:
    → "And then there was that ominous passage after he vanished in Rala Waterways."
 83: 0x07A3 [0x1C] WAIT(30* ticks)
 84: 0x07A6 [0x4A] LocalPlayer looks at Arciela (ID: 17825960/0x011000A8)
 85: 0x07AF [0x23] WAIT_FOR_DIALOG_INTERACTION
 86: 0x07B0 [0x2B] Arciela (ID: 17825960/0x011000A8) [12685*]:
    → ""Those who heeded his call and swore allegiance to his cause will soon awaken.""
 87: 0x07B7 [0x23] WAIT_FOR_DIALOG_INTERACTION
 88: 0x07B8 [0x2B] Arciela (ID: 17825960/0x011000A8) [12686*]:
    → "I'm worried, <Player>."
 89: 0x07BF [0x23] WAIT_FOR_DIALOG_INTERACTION
 90: 0x07C0 [0x5B] LOAD_EXT_SCHEDULER: Load scheduler "thk1" with entities [Arciela (ID: 17825960/0x011000A8), Arciela (ID: 17825960/0x011000A8)], work=3219*
 91: 0x07CF [0x1C] WAIT(60* ticks)
 92: 0x07D2 [0x52] END_LOAD_SCHEDULER: End scheduler "s019" with entities [EventEntity, EventEntity], work=739*
 93: 0x07E1 [0x45] LOAD_SCHEDULED_TASK: Load scheduler "s020" with entities [EventEntity, EventEntity], work=[739*, 0*]
 94: 0x07F2 [0x81] SET_ENTITY_BLINKING(blink_flag=0x01, entity=Arciela (ID: 17825960/0x011000A8))
 95: 0x07F8 [0x1C] WAIT(60* ticks)
 96: 0x07FB [0x4A] Arciela (ID: 17825960/0x011000A8) looks at LocalPlayer
 97: 0x0804 [0x7B] Arciela (ID: 17825960/0x011000A8) stops talking
 98: 0x0809 [0x1C] WAIT(30* ticks)
 99: 0x080C [0x5F] MULTI_HANDLER_COMPLEX(mode=0x05 - Load ext scheduler with flag (OpCode 0x5B mode 0, flag 1), ref=3217*, entity1=Arciela (ID: 17825960/0x011000A8), entity2=Arciela (ID: 17825960/0x011000A8), string="tlk0", extra=80*)
100: 0x081E [0x2B] Arciela (ID: 17825960/0x011000A8) [12687*]:
    → "Two locations in particular have been singled out as particularly menacing in recent days--Cirdas Caverns and Yorcia Weald."
101: 0x0825 [0x23] WAIT_FOR_DIALOG_INTERACTION
102: 0x0826 [0x2B] Arciela (ID: 17825960/0x011000A8) [12688*]:
    → "If we interpret "the sullying of the land" as Balamor and his minions, then that leaves the remaining two Xol."
103: 0x082D [0x23] WAIT_FOR_DIALOG_INTERACTION
104: 0x082E [0x5F] MULTI_HANDLER_COMPLEX(mode=0x07 - Wait scheduler task (OpCode 0x53))
105: 0x083C [0x81] SET_ENTITY_BLINKING(blink_flag=0x00, entity=Arciela (ID: 17825960/0x011000A8))
106: 0x0842 [0x7C] Arciela (ID: 17825960/0x011000A8)->Render.Flags2 |= 0x00
107: 0x0848 [0x5B] LOAD_EXT_SCHEDULER: Load scheduler "fj01" with entities [Arciela (ID: 17825960/0x011000A8), Arciela (ID: 17825960/0x011000A8)], work=3216*
108: 0x0857 [0x1C] WAIT(30* ticks)
109: 0x085A [0x5B] LOAD_EXT_SCHEDULER: Load scheduler "tlb2" with entities [Arciela (ID: 17825960/0x011000A8), Arciela (ID: 17825960/0x011000A8)], work=3231*
110: 0x0869 [0x52] END_LOAD_SCHEDULER: End scheduler "s020" with entities [EventEntity, EventEntity], work=739*
111: 0x0878 [0x45] LOAD_SCHEDULED_TASK: Load scheduler "s021" with entities [EventEntity, EventEntity], work=[739*, 0*]
112: 0x0889 [0x2B] Arciela (ID: 17825960/0x011000A8) [12689*]:
    → "One for the toxic miasma, and one for the blades of wind."
113: 0x0890 [0x23] WAIT_FOR_DIALOG_INTERACTION
114: 0x0891 [0x2B] Arciela (ID: 17825960/0x011000A8) [12690*]:
    → "The rumors, fragmented as they are, match up perfectly. But the library's historical works are likewise incomplete, and I fear I've exhausted all available resources."
115: 0x0898 [0x23] WAIT_FOR_DIALOG_INTERACTION
116: 0x0899 [0x5B] LOAD_EXT_SCHEDULER: Load scheduler "tlb1" with entities [Arciela (ID: 17825960/0x011000A8), Arciela (ID: 17825960/0x011000A8)], work=3231*
117: 0x08A8 [0x1C] WAIT(10* ticks)
118: 0x08AB [0x52] END_LOAD_SCHEDULER: End scheduler "s021" with entities [EventEntity, EventEntity], work=739*
119: 0x08BA [0x45] LOAD_SCHEDULED_TASK: Load scheduler "s022" with entities [EventEntity, EventEntity], work=[739*, 0*]
120: 0x08CB [0x2B] Arciela (ID: 17825960/0x011000A8) [12691*]:
    → "But there is someone else on our side--a hero who was there to witness it all."
121: 0x08D2 [0x1C] WAIT(110* ticks)
122: 0x08D5 [0x23] WAIT_FOR_DIALOG_INTERACTION
123: 0x08D6 [0x5B] LOAD_EXT_SCHEDULER: Load scheduler "fj00" with entities [Arciela (ID: 17825960/0x011000A8), Arciela (ID: 17825960/0x011000A8)], work=3216*
124: 0x08E5 [0x52] END_LOAD_SCHEDULER: End scheduler "s022" with entities [EventEntity, EventEntity], work=739*
125: 0x08F4 [0x45] LOAD_SCHEDULED_TASK: Load scheduler "s023" with entities [EventEntity, EventEntity], work=[739*, 0*]
126: 0x0905 [0x24] CREATE_DIALOG(message_id=12692*, default_option=0*, option_flags=0*)
    → "Who is she referring to? [Sajj'aka./Morimar.]"
127: 0x090C [0x25] WAIT_DIALOG_SELECT()
128: 0x090D [0x02] IF !(Work_Zone[0] == 0*) GOTO 0x0964
129: 0x0915 [0x5B] LOAD_EXT_SCHEDULER: Load scheduler "fh01" with entities [Arciela (ID: 17825960/0x011000A8), Arciela (ID: 17825960/0x011000A8)], work=3216*
130: 0x0924 [0x1C] WAIT(30* ticks)
131: 0x0927 [0x52] END_LOAD_SCHEDULER: End scheduler "s023" with entities [EventEntity, EventEntity], work=739*
132: 0x0936 [0x45] LOAD_SCHEDULED_TASK: Load scheduler "s024" with entities [EventEntity, EventEntity], work=[739*, 0*]
133: 0x0947 [0x5F] MULTI_HANDLER_COMPLEX(mode=0x05 - Load ext scheduler with flag (OpCode 0x5B mode 0, flag 1), ref=3231*, entity1=Arciela (ID: 17825960/0x011000A8), entity2=Arciela (ID: 17825960/0x011000A8), string="yes0", extra=160*)
134: 0x0959 [0x2B] Arciela (ID: 17825960/0x011000A8) [12693*]:
    → "That's right. He fought alongside the founder king, and ever since has tirelessly worked to shield Ulbuka from harm. If anyone can help us, it's him."
135: 0x0960 [0x23] WAIT_FOR_DIALOG_INTERACTION
136: 0x0961 [0x01] GOTO 0x09BB
137: 0x0964 [0x02] IF !(Work_Zone[0] == 1*) GOTO 0x09BB
138: 0x096C [0x5B] LOAD_EXT_SCHEDULER: Load scheduler "fh01" with entities [Arciela (ID: 17825960/0x011000A8), Arciela (ID: 17825960/0x011000A8)], work=3216*
139: 0x097B [0x1C] WAIT(30* ticks)
140: 0x097E [0x52] END_LOAD_SCHEDULER: End scheduler "s023" with entities [EventEntity, EventEntity], work=739*
141: 0x098D [0x45] LOAD_SCHEDULED_TASK: Load scheduler "s024" with entities [EventEntity, EventEntity], work=[739*, 0*]
142: 0x099E [0x5F] MULTI_HANDLER_COMPLEX(mode=0x05 - Load ext scheduler with flag (OpCode 0x5B mode 0, flag 1), ref=3231*, entity1=Arciela (ID: 17825960/0x011000A8), entity2=Arciela (ID: 17825960/0x011000A8), string="yes0", extra=160*)
143: 0x09B0 [0x2B] Arciela (ID: 17825960/0x011000A8) [12694*]:
    → "That's right. One of the founder king's generals who has seen the forces of evil face-to-face. If anyone can help us, it's him."
144: 0x09B7 [0x23] WAIT_FOR_DIALOG_INTERACTION
145: 0x09B8 [0x01] GOTO 0x09BB

SUBROUTINE_09BB:
146: 0x09BB [0x2B] Arciela (ID: 17825960/0x011000A8) [12695*]:
    → "So that's our next destination--Mt. Kamihr!"
147: 0x09C2 [0x23] WAIT_FOR_DIALOG_INTERACTION
148: 0x09C3 [0x5F] MULTI_HANDLER_COMPLEX(mode=0x07 - Wait scheduler task (OpCode 0x53))
149: 0x09D1 [0x5B] LOAD_EXT_SCHEDULER: Load scheduler "fh00" with entities [Arciela (ID: 17825960/0x011000A8), Arciela (ID: 17825960/0x011000A8)], work=3216*
150: 0x09E0 [0x1A] CALL_SUBROUTINE(address=0x18EE)
151: 0x09E3 [0x1C] WAIT(30* ticks)
152: 0x09E6 [0x52] END_LOAD_SCHEDULER: End scheduler "s024" with entities [EventEntity, EventEntity], work=739*
153: 0x09F5 [0x1C] WAIT(15* ticks)
154: 0x09F8 [0xAB] EventEntity->DespawnValue = 0* // Set despawn value
155: 0x09FC [0x1C] WAIT(1* ticks)
156: 0x09FF [0x46] CAMERA_CONTROL: Restore default settings
157: 0x0A01 [0x45] LOAD_SCHEDULED_TASK: Load scheduler "fdi2" with entities [LocalPlayer, LocalPlayer], work=[200*, 0*]
158: 0x0A12 [0x21] END_EVENT
159: 0x0A13 [0x00] END_REQSTACK()
```

### Event 182

#### Metadata

| Field        | Value      |
|--------------|------------|
| Entrypoint   | 0x0A14     |
| Data Size    | 4360 bytes |
| Instructions | 462        |

```
      00 01 02 03 04 05 06 07  08 09 0A 0B 0C 0D 0E 0F
      -- -- -- -- -- -- -- --  -- -- -- -- -- -- -- --
0A10:             42 1A EE 18  03 01 10 0B 80 43 00 43      B........C.C
0A20: 01 03 01 00 02 10 46 01  38 00 80 2F 00 A8 00 10  ......F.8../....
0A30: 01 2F 00 92 00 10 01 2F  00 CE 00 10 01 4E 00 A8  ./...../.....N..
0A40: 00 10 01 4E 00 92 00 10  01 4E 00 CE 00 10 01 4E  ...N.....N.....N
0A50: 00 17 01 10 01 4E 00 19  01 10 01 4E 00 F0 FF FF  .....N.....N....
0A60: 7F 4E 00 FA 00 10 01 4E  00 FB 00 10 01 4E 00 B1  .N.....N.....N..
0A70: 00 10 01 4E 00 B2 00 10  01 4E 00 FE 00 10 01 4E  ...N.....N.....N
0A80: 00 93 00 10 01 4E 00 08  01 10 01 4E 00 1F 01 10  .....N.....N....
0A90: 01 4E 00 2A 01 10 01 92  01 92 00 10 01 92 01 A8  .N.*............
0AA0: 00 10 01 92 01 CE 00 10  01 92 01 17 01 10 01 92  ................
0AB0: 01 19 01 10 01 92 01 FA  00 10 01 92 01 FB 00 10  ................
0AC0: 01 92 01 B1 00 10 01 92  01 B2 00 10 01 92 01 FE  ................
0AD0: 00 10 01 92 01 93 00 10  01 92 01 08 01 10 01 92  ................
0AE0: 01 1F 01 10 01 92 01 2A  01 10 01 94 01 A8 00 10  .......*........
0AF0: 01 94 01 CE 00 10 01 94  01 17 01 10 01 94 01 19  ................
0B00: 01 10 01 94 01 F0 FF FF  7F 94 01 92 00 10 01 94  ................
0B10: 01 FA 00 10 01 94 01 FB  00 10 01 94 01 B1 00 10  ................
0B20: 01 94 01 B2 00 10 01 94  01 FE 00 10 01 94 01 93  ................
0B30: 00 10 01 94 01 08 01 10  01 94 01 2A 01 10 01 94  ...........*....
0B40: 01 1F 01 10 01 02 87 7F  21 80 00 57 0B 27 10 B2  ........!..W.'..
0B50: 00 10 01 0F 01 5E 0B 27  10 B2 00 10 01 10 27 10  .....^.'......'.
0B60: FE 00 10 01 05 BA 93 00  10 01 54 80 55 80 56 80  ..........T.U.V.
0B70: 57 80 BA 08 01 10 01 58  80 59 80 56 80 08 80 BA  W......X.Y.V....
0B80: FE 00 10 01 5A 80 5B 80  56 80 08 80 BA FA 00 10  ....Z.[.V.......
0B90: 01 5C 80 5D 80 56 80 08  80 BA FB 00 10 01 5E 80  .\.].V........^.
0BA0: 5F 80 56 80 08 80 BA B1  00 10 01 60 80 61 80 62  _.V........`.a.b
0BB0: 80 63 80 BA B2 00 10 01  64 80 65 80 62 80 66 80  .c......d.e.b.f.
0BC0: BA 2A 01 10 01 67 80 68  80 56 80 69 80 BA 1F 01  .*...g.h.V.i....
0BD0: 10 01 6A 80 6B 80 56 80  6C 80 BA F0 FF FF 7F 6D  ..j.k.V.l......m
0BE0: 80 6E 80 6F 80 08 80 BA  A8 00 10 01 70 80 71 80  .n.o........p.q.
0BF0: 72 80 26 80 BA 92 00 10  01 73 80 74 80 56 80 75  r.&......s.t.V.u
0C00: 80 BA 17 01 10 01 76 80  77 80 56 80 78 80 BA CE  ......v.w.V.x...
0C10: 00 10 01 79 80 7A 80 56  80 7B 80 BA 19 01 10 01  ...y.z.V.{......
0C20: 7C 80 7D 80 56 80 7E 80  80 F0 FF FF 7F 80 A8 00  |.}.V.~.........
0C30: 10 01 80 17 01 10 01 80  19 01 10 01 80 CE 00 10  ................
0C40: 01 80 92 00 10 01 80 FA  00 10 01 80 FB 00 10 01  ................
0C50: 80 B1 00 10 01 80 B2 00  10 01 80 1F 01 10 01 80  ................
0C60: 2A 01 10 01 80 08 01 10  01 80 FE 00 10 01 80 93  *...............
0C70: 00 10 01 4A 93 00 10 01  08 01 10 01 7B 93 00 10  ...J........{...
0C80: 01 4A 08 01 10 01 93 00  10 01 7B 08 01 10 01 4A  .J........{....J
0C90: FE 00 10 01 93 00 10 01  7B FE 00 10 01 4A 92 00  ........{....J..
0CA0: 10 01 CE 00 10 01 7B 92  00 10 01 4A 17 01 10 01  ......{....J....
0CB0: 92 00 10 01 7B 17 01 10  01 4A CE 00 10 01 92 00  ....{....J......
0CC0: 10 01 7B CE 00 10 01 5C  00 7F 80 5C 01 7F 80 9A  ..{....\...\....
0CD0: 27 10 2A 01 10 01 05 27  10 1F 01 10 01 0C 27 10  '.*....'......'.
0CE0: F0 FF FF 7F 2C 1C 06 80  66 80 80 93 00 10 01 93  ....,...f.......
0CF0: 00 10 01 74 6C 73 30 1C  06 80 27 10 A8 00 10 01  ...tls0...'.....
0D00: 0B 45 81 80 F8 FF FF 7F  F8 FF FF 7F 31 36 30 31  .E..........1601
0D10: 08 80 1C 09 80 45 0A 80  F0 FF FF 7F F0 FF FF 7F  .....E..........
0D20: 66 64 69 31 08 80 1C 82  80 52 81 80 F8 FF FF 7F  fdi1.....R......
0D30: F8 FF FF 7F 31 36 30 31  45 81 80 F8 FF FF 7F F8  ....1601E.......
0D40: FF FF 7F 31 34 31 38 08  80 1C 82 80 52 81 80 F8  ...1418.....R...
0D50: FF FF 7F F8 FF FF 7F 31  34 31 38 45 81 80 F8 FF  .......1418E....
0D60: FF 7F F8 FF FF 7F 31 34  31 39 08 80 1C 82 80 7A  ......1419.....z
0D70: 00 F0 FF FF 7F 7A 00 A8  00 10 01 52 81 80 F8 FF  .....z.....R....
0D80: FF 7F F8 FF FF 7F 31 34  31 39 45 81 80 F8 FF FF  ......1419E.....
0D90: 7F F8 FF FF 7F 73 30 32  34 08 80 BA A8 00 10 01  .....s024.......
0DA0: 83 80 84 80 56 80 85 80  BA F0 FF FF 7F 86 80 87  ....V...........
0DB0: 80 56 80 85 80 4A 92 00  10 01 F0 FF FF 7F 1C 06  .V...J..........
0DC0: 80 5F 05 88 80 92 00 10  01 92 00 10 01 77 61 76  ._...........wav
0DD0: 30 50 80 2B 92 00 10 01  89 80 79 00 F0 FF FF 7F  0P.+......y.....
0DE0: 92 00 10 01 1C 09 80 4A  A8 00 10 01 92 00 10 01  .......J........
0DF0: 1C 09 80 4A CE 00 10 01  F0 FF FF 7F 1C 09 80 4A  ...J...........J
0E00: 17 01 10 01 F0 FF FF 7F  5F 07 92 00 10 01 92 00  ........_.......
0E10: 10 01 77 61 76 30 81 00  92 00 10 01 7C 00 92 00  ..wav0......|...
0E20: 10 01 5B 8A 80 92 00 10  01 92 00 10 01 66 68 30  ..[..........fh0
0E30: 31 1C 06 80 23 52 81 80  F8 FF FF 7F F8 FF FF 7F  1...#R..........
0E40: 73 30 32 34 45 81 80 F8  FF FF 7F F8 FF FF 7F 73  s024E..........s
0E50: 32 30 34 08 80 2B 92 00  10 01 8B 80 23 5B 8A 80  204..+......#[..
0E60: 92 00 10 01 92 00 10 01  66 68 30 30 55 81 80 F8  ........fh00U...
0E70: FF FF 7F F8 FF FF 7F 73  32 30 34 27 10 92 00 10  .......s204'....
0E80: 01 12 1C 1F 80 81 00 A8  00 10 01 5B 8C 80 A8 00  ...........[....
0E90: 10 01 A8 00 10 01 62 69  6B 30 45 81 80 F8 FF FF  ......bik0E.....
0EA0: 7F F8 FF FF 7F 73 30 32  33 08 80 5C A0 8D 80 13  .....s023..\....
0EB0: 80 5C A1 8D 80 8E 80 7A  00 92 00 10 01 81 01 92  .\.....z........
0EC0: 00 10 01 7C 01 92 00 10  01 5B 8A 80 92 00 10 01  ...|.....[......
0ED0: 92 00 10 01 66 30 30 30  D3 00 92 00 10 01 2B A8  ....f000......+.
0EE0: 00 10 01 8F 80 23 1C 06  80 52 81 80 F8 FF FF 7F  .....#...R......
0EF0: F8 FF FF 7F 73 30 32 33  45 81 80 F8 FF FF 7F F8  ....s023E.......
0F00: FF FF 7F 73 30 32 32 08  80 6B 69 64 6C 30 A8 00  ...s022..kidl0..
0F10: 10 01 81 01 A8 00 10 01  BA A8 00 10 01 90 80 91  ................
0F20: 80 56 80 92 80 BA F0 FF  FF 7F 93 80 94 80 56 80  .V............V.
0F30: 92 80 BA 92 00 10 01 95  80 96 80 56 80 97 80 27  ...........V...'
0F40: 10 F0 FF FF 7F 2D 27 10  A8 00 10 01 0C 27 10 92  .....-'......'..
0F50: 00 10 01 0D 1C 1F 80 27  10 17 01 10 01 09 27 10  .......'......'.
0F60: CE 00 10 01 17 27 10 19  01 10 01 05 2A 10 92 00  .....'......*...
0F70: 10 01 4A 92 00 10 01 F0  FF FF 7F 7B 92 00 10 01  ..J........{....
0F80: 2A 10 F0 FF FF 7F 4A F0  FF FF 7F 92 00 10 01 2A  *.....J........*
0F90: 10 17 01 10 01 2A 10 19  01 10 01 2A 10 CE 00 10  .....*.....*....
0FA0: 01 4E 01 1F 01 10 01 52  81 80 F8 FF FF 7F F8 FF  .N.....R........
0FB0: FF 7F 73 30 32 32 45 81  80 F8 FF FF 7F F8 FF FF  ..s022E.........
0FC0: 7F 73 30 32 35 08 80 5B  98 80 92 00 10 01 92 00  .s025..[........
0FD0: 10 01 6F 6A 69 30 2B 92  00 10 01 99 80 1C 9A 80  ..oji0+.........
0FE0: 23 52 81 80 F8 FF FF 7F  F8 FF FF 7F 73 30 32 35  #R..........s025
0FF0: 45 81 80 F8 FF FF 7F F8  FF FF 7F 73 30 32 36 08  E..........s026.
1000: 80 27 05 F0 FF FF 7F 09  1C 38 80 27 05 F0 FF FF  .'.......8.'....
1010: 7F 0A 81 00 92 00 10 01  7C 00 92 00 10 01 5B 8A  ........|.....[.
1020: 80 92 00 10 01 92 00 10  01 66 68 30 31 1C 3D 80  .........fh01.=.
1030: 5B 88 80 92 00 10 01 92  00 10 01 79 65 73 30 2B  [..........yes0+
1040: 92 00 10 01 9B 80 23 52  81 80 F8 FF FF 7F F8 FF  ......#R........
1050: FF 7F 73 30 32 36 45 81  80 F8 FF FF 7F F8 FF FF  ..s026E.........
1060: 7F 73 30 32 37 08 80 5B  88 80 92 00 10 01 92 00  .s027..[........
1070: 10 01 74 6C 6B 30 2B 92  00 10 01 9C 80 23 2B 92  ..tlk0+......#+.
1080: 00 10 01 9D 80 23 52 81  80 F8 FF FF 7F F8 FF FF  .....#R.........
1090: 7F 73 30 32 37 45 81 80  F8 FF FF 7F F8 FF FF 7F  .s027E..........
10A0: 73 30 32 38 08 80 2B 92  00 10 01 9E 80 23 2B 92  s028..+......#+.
10B0: 00 10 01 9F 80 23 52 81  80 F8 FF FF 7F F8 FF FF  .....#R.........
10C0: 7F 73 30 32 38 45 81 80  F8 FF FF 7F F8 FF FF 7F  .s028E..........
10D0: 73 30 32 39 08 80 2B 92  00 10 01 A0 80 23 2B 92  s029..+......#+.
10E0: 00 10 01 A1 80 23 5B 88  80 92 00 10 01 92 00 10  .....#[.........
10F0: 01 74 6C 6B 31 2B 92 00  10 01 A2 80 23 52 81 80  .tlk1+......#R..
1100: F8 FF FF 7F F8 FF FF 7F  73 30 32 39 45 81 80 F8  ........s029E...
1110: FF FF 7F F8 FF FF 7F 73  30 33 30 08 80 5B 88 80  .......s030..[..
1120: 92 00 10 01 92 00 10 01  6D 61 72 75 2B 92 00 10  ........maru+...
1130: 01 A3 80 23 2B 92 00 10  01 A4 80 23 52 81 80 F8  ...#+......#R...
1140: FF FF 7F F8 FF FF 7F 73  30 33 30 45 81 80 F8 FF  .......s030E....
1150: FF 7F F8 FF FF 7F 73 30  33 31 08 80 24 A5 80 08  ......s031..$...
1160: 80 08 80 25 02 00 10 08  80 00 C4 11 52 81 80 F8  ...%........R...
1170: FF FF 7F F8 FF FF 7F 73  30 33 31 45 81 80 F8 FF  .......s031E....
1180: FF 7F F8 FF FF 7F 73 30  33 32 08 80 5B 88 80 92  ......s032..[...
1190: 00 10 01 92 00 10 01 79  65 73 30 2B 92 00 10 01  .......yes0+....
11A0: A6 80 23 5B 88 80 92 00  10 01 92 00 10 01 74 6C  ..#[..........tl
11B0: 6B 30 52 81 80 F8 FF FF  7F F8 FF FF 7F 73 30 33  k0R..........s03
11C0: 32 01 15 12 02 00 10 25  80 00 15 12 52 81 80 F8  2......%....R...
11D0: FF FF 7F F8 FF FF 7F 73  30 33 31 45 81 80 F8 FF  .......s031E....
11E0: FF 7F F8 FF FF 7F 73 30  33 32 08 80 5B 88 80 92  ......s032..[...
11F0: 00 10 01 92 00 10 01 74  6C 6B 30 2B 92 00 10 01  .......tlk0+....
1200: A7 80 23 52 81 80 F8 FF  FF 7F F8 FF FF 7F 73 30  ..#R..........s0
1210: 33 32 01 15 12 45 81 80  F8 FF FF 7F F8 FF FF 7F  32...E..........
1220: 73 30 33 33 08 80 2B 92  00 10 01 A8 80 23 2B 92  s033..+......#+.
1230: 00 10 01 A9 80 23 5B 88  80 92 00 10 01 92 00 10  .....#[.........
1240: 01 74 6C 6B 31 52 81 80  F8 FF FF 7F F8 FF FF 7F  .tlk1R..........
1250: 73 30 33 33 02 87 7F 21  80 80 70 12 45 81 80 F8  s033...!..p.E...
1260: FF FF 7F F8 FF FF 7F 73  30 33 35 08 80 01 9D 12  .......s035.....
1270: 02 87 7F 1A 80 80 8C 12  45 81 80 F8 FF FF 7F F8  ........E.......
1280: FF FF 7F 73 30 33 35 08  80 01 9D 12 45 81 80 F8  ...s035.....E...
1290: FF FF 7F F8 FF FF 7F 73  30 33 34 08 80 40 08 80  .......s034..@..
12A0: 25 80 02 00 08 80 40 AA  80 AB 80 02 00 08 80 24  %.....@........$
12B0: AC 80 08 80 08 80 25 02  00 10 08 80 00 FB 12 02  ......%.........
12C0: 01 00 08 80 00 F8 12 41  08 80 25 80 02 00 02 10  .......A..%.....
12D0: 02 02 10 AB 80 03 F8 12  03 01 10 25 80 43 00 43  ...........%.C.C
12E0: 01 41 08 80 25 80 02 00  02 10 07 02 10 25 80 40  .A..%........%.@
12F0: 08 80 25 80 02 00 02 10  01 0D 14 02 00 10 25 80  ..%...........%.
1300: 00 0D 14 6E F0 FF FF 7F  1A 80 99 F0 FF FF 7F 1C  ...n............
1310: 1F 80 81 00 92 00 10 01  7C 00 92 00 10 01 5B 8A  ........|.....[.
1320: 80 92 00 10 01 92 00 10  01 66 66 30 31 1C 06 80  .........ff01...
1330: 52 81 80 F8 FF FF 7F F8  FF FF 7F 73 30 33 34 52  R..........s034R
1340: 81 80 F8 FF FF 7F F8 FF  FF 7F 73 30 33 35 45 81  ..........s035E.
1350: 80 F8 FF FF 7F F8 FF FF  7F 73 30 33 36 08 80 2B  .........s036..+
1360: 92 00 10 01 AD 80 23 52  81 80 F8 FF FF 7F F8 FF  ......#R........
1370: FF 7F 73 30 33 36 02 87  7F 21 80 80 92 13 45 81  ..s036...!....E.
1380: 80 F8 FF FF 7F F8 FF FF  7F 73 30 33 35 08 80 01  .........s035...
1390: BF 13 02 87 7F 1A 80 80  AE 13 45 81 80 F8 FF FF  ..........E.....
13A0: 7F F8 FF FF 7F 73 30 33  35 08 80 01 BF 13 45 81  .....s035.....E.
13B0: 80 F8 FF FF 7F F8 FF FF  7F 73 30 33 34 08 80 5B  .........s034..[
13C0: 8A 80 92 00 10 01 92 00  10 01 66 68 30 31 02 01  ..........fh01..
13D0: 00 08 80 00 07 14 41 AA  80 AB 80 02 00 02 10 02  ......A.........
13E0: 02 10 AB 80 03 07 14 03  01 10 AA 80 43 00 43 01  ............C.C.
13F0: 41 AA 80 AB 80 02 00 02  10 07 02 10 25 80 40 AA  A...........%.@.
1400: 80 AB 80 02 00 02 10 01  AF 12 01 0D 14 6E F0 FF  .............n..
1410: FF 7F 27 80 99 F0 FF FF  7F 4E 01 A8 00 10 01 1C  ..'......N......
1420: 0C 80 52 81 80 F8 FF FF  7F F8 FF FF 7F 73 30 33  ..R..........s03
1430: 34 52 81 80 F8 FF FF 7F  F8 FF FF 7F 73 30 33 35  4R..........s035
1440: 45 81 80 F8 FF FF 7F F8  FF FF 7F 73 30 33 37 08  E..........s037.
1450: 80 5B 88 80 92 00 10 01  92 00 10 01 74 6C 6B 30  .[..........tlk0
1460: 2B 92 00 10 01 AE 80 23  2B 92 00 10 01 AF 80 23  +......#+......#
1470: 5B 88 80 92 00 10 01 92  00 10 01 74 6C 6B 31 52  [..........tlk1R
1480: 81 80 F8 FF FF 7F F8 FF  FF 7F 73 30 33 37 45 81  ..........s037E.
1490: 80 F8 FF FF 7F F8 FF FF  7F 73 30 33 38 08 80 5C  .........s038..\
14A0: A0 08 80 1F 80 5C A1 08  80 13 80 2B 92 00 10 01  .....\.....+....
14B0: B0 80 1C 13 80 23 4E 00  A8 00 10 01 80 A8 00 10  .....#N.........
14C0: 01 5C 00 8D 80 5C 01 8D  80 9A 52 81 80 F8 FF FF  .\...\....R.....
14D0: 7F F8 FF FF 7F 73 30 33  38 45 81 80 F8 FF FF 7F  .....s038E......
14E0: F8 FF FF 7F 73 30 33 39  08 80 5F 05 88 80 92 00  ....s039.._.....
14F0: 10 01 92 00 10 01 6A 6F  79 30 B1 80 2B 92 00 10  ......joy0..+...
1500: 01 B2 80 23 2B 92 00 10  01 B3 80 23 5F 07 92 00  ...#+......#_...
1510: 10 01 92 00 10 01 6A 6F  79 30 5B 8A 80 92 00 10  ......joy0[.....
1520: 01 92 00 10 01 66 68 30  30 1C 06 80 5B 88 80 92  .....fh00...[...
1530: 00 10 01 92 00 10 01 6A  6F 79 31 1C 13 80 52 81  .......joy1...R.
1540: 80 F8 FF FF 7F F8 FF FF  7F 73 30 33 39 45 81 80  .........s039E..
1550: F8 FF FF 7F F8 FF FF 7F  73 30 34 30 08 80 5B 8A  ........s040..[.
1560: 80 92 00 10 01 92 00 10  01 66 68 30 31 1C 06 80  .........fh01...
1570: 5B 88 80 92 00 10 01 92  00 10 01 6D 61 72 75 2B  [..........maru+
1580: 92 00 10 01 B4 80 23 52  81 80 F8 FF FF 7F F8 FF  ......#R........
1590: FF 7F 73 30 34 30 02 87  7F 21 80 80 B2 15 45 81  ..s040...!....E.
15A0: 80 F8 FF FF 7F F8 FF FF  7F 73 30 33 35 08 80 01  .........s035...
15B0: DF 15 02 87 7F 1A 80 80  CE 15 45 81 80 F8 FF FF  ..........E.....
15C0: 7F F8 FF FF 7F 73 30 33  35 08 80 01 DF 15 45 81  .....s035.....E.
15D0: 80 F8 FF FF 7F F8 FF FF  7F 73 30 33 34 08 80 24  .........s034..$
15E0: B5 80 08 80 08 80 25 02  00 10 08 80 00 38 16 52  ......%......8.R
15F0: 81 80 F8 FF FF 7F F8 FF  FF 7F 73 30 33 34 52 81  ..........s034R.
1600: 80 F8 FF FF 7F F8 FF FF  7F 73 30 33 35 45 81 80  .........s035E..
1610: F8 FF FF 7F F8 FF FF 7F  73 30 33 32 08 80 5B 88  ........s032..[.
1620: 80 92 00 10 01 92 00 10  01 74 6C 6B 30 2B 92 00  .........tlk0+..
1630: 10 01 B6 80 23 01 91 16  02 00 10 25 80 00 91 16  ....#......%....
1640: 52 81 80 F8 FF FF 7F F8  FF FF 7F 73 30 33 34 52  R..........s034R
1650: 81 80 F8 FF FF 7F F8 FF  FF 7F 73 30 33 35 45 81  ..........s035E.
1660: 80 F8 FF FF 7F F8 FF FF  7F 73 30 33 32 08 80 5B  .........s032..[
1670: 88 80 92 00 10 01 92 00  10 01 74 6C 6B 30 2B 92  ..........tlk0+.
1680: 00 10 01 B7 80 23 2B 92  00 10 01 B8 80 23 01 91  .....#+......#..
1690: 16 52 81 80 F8 FF FF 7F  F8 FF FF 7F 73 30 33 32  .R..........s032
16A0: 45 81 80 F8 FF FF 7F F8  FF FF 7F 73 30 34 31 08  E..........s041.
16B0: 80 6B 69 64 6C 30 93 00  10 01 BA B2 00 10 01 B9  .kidl0..........
16C0: 80 BA 80 56 80 BB 80 BA  93 00 10 01 BC 80 BD 80  ...V............
16D0: 56 80 BE 80 27 10 B2 00  10 01 0B 5B 88 80 92 00  V...'......[....
16E0: 10 01 92 00 10 01 74 6C  6B 31 2B 92 00 10 01 BF  ......tlk1+.....
16F0: 80 23 5B 88 80 92 00 10  01 92 00 10 01 77 61 76  .#[..........wav
1700: 30 2B 92 00 10 01 C0 80  1C 50 80 23 5B 8A 80 92  0+.......P.#[...
1710: 00 10 01 92 00 10 01 66  68 30 30 1C 06 80 27 10  .......fh00...'.
1720: 17 01 10 01 0A 27 10 19  01 10 01 06 4B 92 00 10  .....'......K...
1730: 01 08 80 6F 76 92 00 10  01 27 10 92 00 10 01 0E  ...ov....'......
1740: 27 10 CE 00 10 01 18 1C  06 80 7A 00 B2 00 10 01  '.........z.....
1750: 1C 25 80 BA B2 00 10 01  B9 80 BA 80 56 80 BB 80  .%..........V...
1760: BA 08 01 10 01 C1 80 C2  80 56 80 08 80 BA FE 00  .........V......
1770: 10 01 C3 80 C4 80 56 80  08 80 27 10 08 01 10 01  ......V...'.....
1780: 0A 27 10 FE 00 10 01 09  27 10 B2 00 10 01 0B 52  .'......'......R
1790: 81 80 F8 FF FF 7F F8 FF  FF 7F 73 30 34 31 45 81  ..........s041E.
17A0: 80 F8 FF FF 7F F8 FF FF  7F 73 30 34 32 08 80 2A  .........s042..*
17B0: 10 92 00 10 01 1C 06 80  5B 88 80 92 00 10 01 92  ........[.......
17C0: 00 10 01 77 61 76 31 2B  92 00 10 01 C5 80 1C 13  ...wav1+........
17D0: 80 6E F0 FF FF 7F C6 80  99 F0 FF FF 7F 1C 0C 80  .n..............
17E0: 27 10 92 00 10 01 0F 1C  0C 80 81 00 A8 00 10 01  '...............
17F0: 5B C7 80 A8 00 10 01 A8  00 10 01 74 6B 74 30 1C  [..........tkt0.
1800: 09 80 52 81 80 F8 FF FF  7F F8 FF FF 7F 73 30 34  ..R..........s04
1810: 32 45 81 80 F8 FF FF 7F  F8 FF FF 7F 73 30 34 33  2E..........s043
1820: 08 80 5C A0 08 80 13 80  5C A1 08 80 8E 80 1C 13  ..\.....\.......
1830: 80 1A EE 18 1C 06 80 52  81 80 F8 FF FF 7F F8 FF  .......R........
1840: FF 7F 73 30 34 33 7A 00  FE 00 10 01 7A 00 B2 00  ..s043z.....z...
1850: 10 01 27 05 B2 00 10 01  10 27 05 FE 00 10 01 0A  ..'......'......
1860: 1C 1F 80 5C 00 7F 80 5C  01 7F 80 9A 1C 09 80 AB  ...\...\........
1870: 11 08 80 1C 25 80 46 00  45 0A 80 F0 FF FF 7F F0  ....%.F.E.......
1880: FF FF 7F 66 64 69 32 08  80 21 00 45 0A 80 F0 FF  ...fdi2..!.E....
1890: FF 7F F0 FF FF 7F 66 64  69 30 08 80 55 0A 80 F0  ......fdi0..U...
18A0: FF FF 7F F0 FF FF 7F 66  64 69 30 1B 45 0A 80 F0  .......fdi0.E...
18B0: FF FF 7F F0 FF FF 7F 66  64 6F 30 08 80 55 0A 80  .......fdo0..U..
18C0: F0 FF FF 7F F0 FF FF 7F  66 64 6F 30 1B 45 0A 80  ........fdo0.E..
18D0: F0 FF FF 7F F0 FF FF 7F  66 64 69 31 08 80 55 0A  ........fdi1..U.
18E0: 80 F0 FF FF 7F F0 FF FF  7F 66 64 69 31 1B 45 0A  .........fdi1.E.
18F0: 80 F0 FF FF 7F F0 FF FF  7F 66 64 6F 31 08 80 55  .........fdo1..U
1900: 0A 80 F0 FF FF 7F F0 FF  FF 7F 66 64 6F 31 1B 45  ..........fdo1.E
1910: C8 80 F0 FF FF 7F F0 FF  FF 7F 77 68 69 31 08 80  ..........whi1..
1920: 55 C8 80 F0 FF FF 7F F0  FF FF 7F 77 68 69 31 1B  U..........whi1.
1930: 45 C8 80 F0 FF FF 7F F0  FF FF 7F 77 68 6F 31 08  E..........who1.
1940: 80 55 C8 80 F0 FF FF 7F  F0 FF FF 7F 77 68 6F 31  .U..........who1
1950: 1B 45 C8 80 F0 FF FF 7F  F0 FF FF 7F 77 68 6F 32  .E..........who2
1960: 08 80 55 C8 80 F0 FF FF  7F F0 FF FF 7F 77 68 6F  ..U..........who
1970: 32 1B 45 C8 80 F0 FF FF  7F F0 FF FF 7F 77 68 6F  2.E..........who
1980: 33 08 80 55 C8 80 F0 FF  FF 7F F0 FF FF 7F 77 68  3..U..........wh
1990: 6F 33 1B 62 25 80 F0 FF  FF 7F F0 FF FF 7F 6D 61  o3.b%.........ma
19A0: 69 6E 08 80 1C C9 80 45  0A 80 F0 FF FF 7F F0 FF  in.....E........
19B0: FF 7F 66 64 6F 31 08 80  55 0A 80 F0 FF FF 7F F0  ..fdo1..U.......
19C0: FF FF 7F 66 64 6F 31 1B  45 0A 80 F0 FF FF 7F F0  ...fdo1.E.......
19D0: FF FF 7F 66 64 69 31 08  80 62 AA 80 F0 FF FF 7F  ...fdi1..b......
19E0: F0 FF FF 7F 6D 61 69 6E  08 80 1C 06 80 55 0A 80  ....main.....U..
19F0: F0 FF FF 7F F0 FF FF 7F  66 64 69 31 1B 45 0A 80  ........fdi1.E..
1A00: F0 FF FF 7F F0 FF FF 7F  62 6C 6F 6E 08 80 45 C8  ........blon..E.
1A10: 80 F0 FF FF 7F F0 FF FF  7F 62 6C 6F 6E 08 80 1B  .........blon...
1A20: 45 C8 80 F0 FF FF 7F F0  FF FF 7F 77 68 69 30 08  E..........whi0.
1A30: 80 55 C8 80 F0 FF FF 7F  F0 FF FF 7F 77 68 69 30  .U..........whi0
1A40: 1B 45 C8 80 F0 FF FF 7F  F0 FF FF 7F 77 68 6F 30  .E..........who0
1A50: 08 80 55 C8 80 F0 FF FF  7F F0 FF FF 7F 77 68 6F  ..U..........who
1A60: 30 1B 45 CA 80 F0 FF FF  7F F0 FF FF 7F 65 66 6F  0.E..........efo
1A70: 6E 08 80 55 CA 80 F0 FF  FF 7F F0 FF FF 7F 65 66  n..U..........ef
1A80: 6F 6E 1B 45 0A 80 F0 FF  FF 7F F0 FF FF 7F 66 64  on.E..........fd
1A90: 69 73 08 80 1B 45 0A 80  F0 FF FF 7F F0 FF FF 7F  is...E..........
1AA0: 66 64 6F 73 08 80 55 0A  80 F0 FF FF 7F F0 FF FF  fdos..U.........
1AB0: 7F 66 64 6F 73 1B 45 0A  80 F0 FF FF 7F F0 FF FF  .fdos.E.........
1AC0: 7F 66 64 69 66 08 80 1B  45 0A 80 F0 FF FF 7F F0  .fdif...E.......
1AD0: FF FF 7F 66 64 6F 66 08  80 55 0A 80 F0 FF FF 7F  ...fdof..U......
1AE0: F0 FF FF 7F 66 64 6F 66  1B 45 0A 80 F0 FF FF 7F  ....fdof.E......
1AF0: F0 FF FF 7F 66 64 69 70  08 80 1B 45 0A 80 F0 FF  ....fdip...E....
1B00: FF 7F F0 FF FF 7F 66 64  6F 70 08 80 55 0A 80 F0  ......fdop..U...
1B10: FF FF 7F F0 FF FF 7F 66  64 6F 70 1B              .......fdop.    
```

#### Opcodes

```
  0: 0x0A14 [0x42] SET_CLI_EVENT_CANCEL_DATA()
  1: 0x0A15 [0x1A] CALL_SUBROUTINE(address=0x18EE)
  2: 0x0A18 [0x03] Work_Zone[1] = 9*
  3: 0x0A1D [0x43] SEND_EVENT_UPDATE: Send pending tag to server (packet 0x005B)
  4: 0x0A1F [0x43] SEND_EVENT_UPDATE: Check pending flag (skip if not pending)
  5: 0x0A21 [0x03] ExtData[1]->WorkLocal[1] = Work_Zone[2]
  6: 0x0A26 [0x46] CAMERA_CONTROL: Disable user control
  7: 0x0A28 [0x38] SET_CLIENT_EVENT_MODE(mode=147*)
  8: 0x0A2B [0x2F] Arciela (ID: 17825960/0x011000A8)->Render.Flags0 &= ~0x80000 // Bit 19
  9: 0x0A31 [0x2F] Tiana (ID: 17825938/0x01100092)->Render.Flags0 &= ~0x80000 // Bit 19
 10: 0x0A37 [0x2F] Distrova (ID: 17825998/0x011000CE)->Render.Flags0 &= ~0x80000 // Bit 19
 11: 0x0A3D [0x4E] SET_ENTITY_HIDE_FLAG: Show Arciela (ID: 17825960/0x011000A8)
 12: 0x0A43 [0x4E] SET_ENTITY_HIDE_FLAG: Show Tiana (ID: 17825938/0x01100092)
 13: 0x0A49 [0x4E] SET_ENTITY_HIDE_FLAG: Show Distrova (ID: 17825998/0x011000CE)
 14: 0x0A4F [0x4E] SET_ENTITY_HIDE_FLAG: Show Merleg (ID: 17826071/0x01100117)
 15: 0x0A55 [0x4E] SET_ENTITY_HIDE_FLAG: Show Clautaire (ID: 17826073/0x01100119)
 16: 0x0A5B [0x4E] SET_ENTITY_HIDE_FLAG: Show LocalPlayer
 17: 0x0A61 [0x4E] SET_ENTITY_HIDE_FLAG: Show Volgoi (ID: 17826042/0x011000FA)
 18: 0x0A67 [0x4E] SET_ENTITY_HIDE_FLAG: Show Rising Solstice (ID: 17826043/0x011000FB)
 19: 0x0A6D [0x4E] SET_ENTITY_HIDE_FLAG: Show Unnamed NPC (ID: 17825969/0x011000B1)
 20: 0x0A73 [0x4E] SET_ENTITY_HIDE_FLAG: Show Unnamed NPC (ID: 17825970/0x011000B2)
 21: 0x0A79 [0x4E] SET_ENTITY_HIDE_FLAG: Show Zaoso (ID: 17826046/0x011000FE)
 22: 0x0A7F [0x4E] SET_ENTITY_HIDE_FLAG: Show Brenna (ID: 17825939/0x01100093)
 23: 0x0A85 [0x4E] SET_ENTITY_HIDE_FLAG: Show Clemmar (ID: 17826056/0x01100108)
 24: 0x0A8B [0x4E] SET_ENTITY_HIDE_FLAG: Show Andrival (ID: 17826079/0x0110011F)
 25: 0x0A91 [0x4E] SET_ENTITY_HIDE_FLAG: Show Delionna (ID: 17826090/0x0110012A)
 26: 0x0A97 [0x92] Tiana (ID: 17825938/0x01100092)->Render.Flags3 ^= 0x01
 27: 0x0A9D [0x92] Arciela (ID: 17825960/0x011000A8)->Render.Flags3 ^= 0x01
 28: 0x0AA3 [0x92] Distrova (ID: 17825998/0x011000CE)->Render.Flags3 ^= 0x01
 29: 0x0AA9 [0x92] Merleg (ID: 17826071/0x01100117)->Render.Flags3 ^= 0x01
 30: 0x0AAF [0x92] Clautaire (ID: 17826073/0x01100119)->Render.Flags3 ^= 0x01
 31: 0x0AB5 [0x92] Volgoi (ID: 17826042/0x011000FA)->Render.Flags3 ^= 0x01
 32: 0x0ABB [0x92] Rising Solstice (ID: 17826043/0x011000FB)->Render.Flags3 ^= 0x01
 33: 0x0AC1 [0x92] Unnamed NPC (ID: 17825969/0x011000B1)->Render.Flags3 ^= 0x01
 34: 0x0AC7 [0x92] Unnamed NPC (ID: 17825970/0x011000B2)->Render.Flags3 ^= 0x01
 35: 0x0ACD [0x92] Zaoso (ID: 17826046/0x011000FE)->Render.Flags3 ^= 0x01
 36: 0x0AD3 [0x92] Brenna (ID: 17825939/0x01100093)->Render.Flags3 ^= 0x01
 37: 0x0AD9 [0x92] Clemmar (ID: 17826056/0x01100108)->Render.Flags3 ^= 0x01
 38: 0x0ADF [0x92] Andrival (ID: 17826079/0x0110011F)->Render.Flags3 ^= 0x01
 39: 0x0AE5 [0x92] Delionna (ID: 17826090/0x0110012A)->Render.Flags3 ^= 0x01
 40: 0x0AEB [0x94] Arciela (ID: 17825960/0x011000A8)->Render.Flags3 ^= 0x01
 41: 0x0AF1 [0x94] Distrova (ID: 17825998/0x011000CE)->Render.Flags3 ^= 0x01
 42: 0x0AF7 [0x94] Merleg (ID: 17826071/0x01100117)->Render.Flags3 ^= 0x01
 43: 0x0AFD [0x94] Clautaire (ID: 17826073/0x01100119)->Render.Flags3 ^= 0x01
 44: 0x0B03 [0x94] LocalPlayer->Render.Flags3 ^= 0x01
 45: 0x0B09 [0x94] Tiana (ID: 17825938/0x01100092)->Render.Flags3 ^= 0x01
 46: 0x0B0F [0x94] Volgoi (ID: 17826042/0x011000FA)->Render.Flags3 ^= 0x01
 47: 0x0B15 [0x94] Rising Solstice (ID: 17826043/0x011000FB)->Render.Flags3 ^= 0x01
 48: 0x0B1B [0x94] Unnamed NPC (ID: 17825969/0x011000B1)->Render.Flags3 ^= 0x01
 49: 0x0B21 [0x94] Unnamed NPC (ID: 17825970/0x011000B2)->Render.Flags3 ^= 0x01
 50: 0x0B27 [0x94] Zaoso (ID: 17826046/0x011000FE)->Render.Flags3 ^= 0x01
 51: 0x0B2D [0x94] Brenna (ID: 17825939/0x01100093)->Render.Flags3 ^= 0x01
 52: 0x0B33 [0x94] Clemmar (ID: 17826056/0x01100108)->Render.Flags3 ^= 0x01
 53: 0x0B39 [0x94] Delionna (ID: 17826090/0x0110012A)->Render.Flags3 ^= 0x01
 54: 0x0B3F [0x94] Andrival (ID: 17826079/0x0110011F)->Render.Flags3 ^= 0x01
 55: 0x0B45 [0x02] IF !(LocalPlayer->Race == 5*) GOTO 0x0B57
 56: 0x0B4D [0x27] REQ_SET(priority=0x10, entity_id=Unnamed NPC (ID: 17825970/0x011000B2), tag_num=0x0F)
 57: 0x0B54 [0x01] GOTO 0x0B5E
 58: 0x0B57 [0x27] REQ_SET(priority=0x10, entity_id=Unnamed NPC (ID: 17825970/0x011000B2), tag_num=0x10)

SUBROUTINE_0B5E:
 59: 0x0B5E [0x27] REQ_SET(priority=0x10, entity_id=Zaoso (ID: 17826046/0x011000FE), tag_num=0x05)
 60: 0x0B65 [0xBA] SET_ENTITY_POSITION(entity_id=Brenna (ID: 17825939/0x01100093), pos_x=-125.469*, pos_z=-18.415*, pos_y=3.999*, direction=34.1°*)
 61: 0x0B72 [0xBA] SET_ENTITY_POSITION(entity_id=Clemmar (ID: 17826056/0x01100108), pos_x=-129.692*, pos_z=-17.800*, pos_y=3.999*, direction=0.0°*)
 62: 0x0B7F [0xBA] SET_ENTITY_POSITION(entity_id=Zaoso (ID: 17826046/0x011000FE), pos_x=-128.750*, pos_z=-16.779*, pos_y=3.999*, direction=0.0°*)
 63: 0x0B8C [0xBA] SET_ENTITY_POSITION(entity_id=Volgoi (ID: 17826042/0x011000FA), pos_x=-155.832*, pos_z=-22.167*, pos_y=3.999*, direction=0.0°*)
 64: 0x0B99 [0xBA] SET_ENTITY_POSITION(entity_id=Rising Solstice (ID: 17826043/0x011000FB), pos_x=-157.449*, pos_z=-29.728*, pos_y=3.999*, direction=0.0°*)
 65: 0x0BA6 [0xBA] SET_ENTITY_POSITION(entity_id=Unnamed NPC (ID: 17825969/0x011000B1), pos_x=-142.065*, pos_z=-35.092*, pos_y=3.851*, direction=137.8°*)
 66: 0x0BB3 [0xBA] SET_ENTITY_POSITION(entity_id=Unnamed NPC (ID: 17825970/0x011000B2), pos_x=-143.690*, pos_z=-35.036*, pos_y=3.851*, direction=320.7°*)
 67: 0x0BC0 [0xBA] SET_ENTITY_POSITION(entity_id=Delionna (ID: 17826090/0x0110012A), pos_x=-153.446*, pos_z=-22.108*, pos_y=3.999*, direction=308.0°*)
 68: 0x0BCD [0xBA] SET_ENTITY_POSITION(entity_id=Andrival (ID: 17826079/0x0110011F), pos_x=-126.628*, pos_z=-26.304*, pos_y=3.999*, direction=180.0°*)
 69: 0x0BDA [0xBA] SET_ENTITY_POSITION(entity_id=LocalPlayer, pos_x=-161.623*, pos_z=-26.165*, pos_y=2.699*, direction=0.0°*)
 70: 0x0BE7 [0xBA] SET_ENTITY_POSITION(entity_id=Arciela (ID: 17825960/0x011000A8), pos_x=-158.723*, pos_z=-27.002*, pos_y=2.685*, direction=3.2°*)
 71: 0x0BF4 [0xBA] SET_ENTITY_POSITION(entity_id=Tiana (ID: 17825938/0x01100092), pos_x=-106.326*, pos_z=-15.169*, pos_y=3.999*, direction=90.0°*)
 72: 0x0C01 [0xBA] SET_ENTITY_POSITION(entity_id=Merleg (ID: 17826071/0x01100117), pos_x=-106.526*, pos_z=-16.412*, pos_y=3.999*, direction=209.6°*)
 73: 0x0C0E [0xBA] SET_ENTITY_POSITION(entity_id=Distrova (ID: 17825998/0x011000CE), pos_x=-108.433*, pos_z=-17.023*, pos_y=3.999*, direction=349.1°*)
 74: 0x0C1B [0xBA] SET_ENTITY_POSITION(entity_id=Clautaire (ID: 17826073/0x01100119), pos_x=-107.946*, pos_z=-17.655*, pos_y=3.999*, direction=200.5°*)
 75: 0x0C28 [0x80] LOAD_WAIT(entity=LocalPlayer)
 76: 0x0C2D [0x80] LOAD_WAIT(entity=Arciela (ID: 17825960/0x011000A8))
 77: 0x0C32 [0x80] LOAD_WAIT(entity=Merleg (ID: 17826071/0x01100117))
 78: 0x0C37 [0x80] LOAD_WAIT(entity=Clautaire (ID: 17826073/0x01100119))
 79: 0x0C3C [0x80] LOAD_WAIT(entity=Distrova (ID: 17825998/0x011000CE))
 80: 0x0C41 [0x80] LOAD_WAIT(entity=Tiana (ID: 17825938/0x01100092))
 81: 0x0C46 [0x80] LOAD_WAIT(entity=Volgoi (ID: 17826042/0x011000FA))
 82: 0x0C4B [0x80] LOAD_WAIT(entity=Rising Solstice (ID: 17826043/0x011000FB))
 83: 0x0C50 [0x80] LOAD_WAIT(entity=Unnamed NPC (ID: 17825969/0x011000B1))
 84: 0x0C55 [0x80] LOAD_WAIT(entity=Unnamed NPC (ID: 17825970/0x011000B2))
 85: 0x0C5A [0x80] LOAD_WAIT(entity=Andrival (ID: 17826079/0x0110011F))
 86: 0x0C5F [0x80] LOAD_WAIT(entity=Delionna (ID: 17826090/0x0110012A))
 87: 0x0C64 [0x80] LOAD_WAIT(entity=Clemmar (ID: 17826056/0x01100108))
 88: 0x0C69 [0x80] LOAD_WAIT(entity=Zaoso (ID: 17826046/0x011000FE))
 89: 0x0C6E [0x80] LOAD_WAIT(entity=Brenna (ID: 17825939/0x01100093))
 90: 0x0C73 [0x4A] Brenna (ID: 17825939/0x01100093) looks at Clemmar (ID: 17826056/0x01100108)
 91: 0x0C7C [0x7B] Brenna (ID: 17825939/0x01100093) stops talking
 92: 0x0C81 [0x4A] Clemmar (ID: 17826056/0x01100108) looks at Brenna (ID: 17825939/0x01100093)
 93: 0x0C8A [0x7B] Clemmar (ID: 17826056/0x01100108) stops talking
 94: 0x0C8F [0x4A] Zaoso (ID: 17826046/0x011000FE) looks at Brenna (ID: 17825939/0x01100093)
 95: 0x0C98 [0x7B] Zaoso (ID: 17826046/0x011000FE) stops talking
 96: 0x0C9D [0x4A] Tiana (ID: 17825938/0x01100092) looks at Distrova (ID: 17825998/0x011000CE)
 97: 0x0CA6 [0x7B] Tiana (ID: 17825938/0x01100092) stops talking
 98: 0x0CAB [0x4A] Merleg (ID: 17826071/0x01100117) looks at Tiana (ID: 17825938/0x01100092)
 99: 0x0CB4 [0x7B] Merleg (ID: 17826071/0x01100117) stops talking
100: 0x0CB9 [0x4A] Distrova (ID: 17825998/0x011000CE) looks at Tiana (ID: 17825938/0x01100092)
101: 0x0CC2 [0x7B] Distrova (ID: 17825998/0x011000CE) stops talking
102: 0x0CC7 [0x5C] MUSIC_CONTROL: Set Idle (Day) music to song 59*
103: 0x0CCB [0x5C] MUSIC_CONTROL: Set Idle (Night) music to song 59*
104: 0x0CCF [0x9A] WAIT_MUSIC_SERVER()
105: 0x0CD0 [0x27] REQ_SET(priority=0x10, entity_id=Delionna (ID: 17826090/0x0110012A), tag_num=0x05)
106: 0x0CD7 [0x27] REQ_SET(priority=0x10, entity_id=Andrival (ID: 17826079/0x0110011F), tag_num=0x0C)
107: 0x0CDE [0x27] REQ_SET(priority=0x10, entity_id=LocalPlayer, tag_num=0x2C)
108: 0x0CE5 [0x1C] WAIT(30* ticks)
109: 0x0CE8 [0x66] LOAD_EXT_SCHEDULER_MAIN: Load scheduler "tls0" with entities [Brenna (ID: 17825939/0x01100093), Brenna (ID: 17825939/0x01100093)], work=19*
110: 0x0CF7 [0x1C] WAIT(30* ticks)
111: 0x0CFA [0x27] REQ_SET(priority=0x10, entity_id=Arciela (ID: 17825960/0x011000A8), tag_num=0x0B)
112: 0x0D01 [0x45] LOAD_SCHEDULED_TASK: Load scheduler "1601" with entities [EventEntity, EventEntity], work=[631*, 0*]
113: 0x0D12 [0x1C] WAIT(15* ticks)
114: 0x0D15 [0x45] LOAD_SCHEDULED_TASK: Load scheduler "fdi1" with entities [LocalPlayer, LocalPlayer], work=[200*, 0*]
115: 0x0D26 [0x1C] WAIT(180* ticks)
116: 0x0D29 [0x52] END_LOAD_SCHEDULER: End scheduler "1601" with entities [EventEntity, EventEntity], work=631*
117: 0x0D38 [0x45] LOAD_SCHEDULED_TASK: Load scheduler "1418" with entities [EventEntity, EventEntity], work=[631*, 0*]
118: 0x0D49 [0x1C] WAIT(180* ticks)
119: 0x0D4C [0x52] END_LOAD_SCHEDULER: End scheduler "1418" with entities [EventEntity, EventEntity], work=631*
120: 0x0D5B [0x45] LOAD_SCHEDULED_TASK: Load scheduler "1419" with entities [EventEntity, EventEntity], work=[631*, 0*]
121: 0x0D6C [0x1C] WAIT(180* ticks)
122: 0x0D6F [0x7A] VM_CONTROL: Reset VM for LocalPlayer
123: 0x0D75 [0x7A] VM_CONTROL: Reset VM for Arciela (ID: 17825960/0x011000A8)
124: 0x0D7B [0x52] END_LOAD_SCHEDULER: End scheduler "1419" with entities [EventEntity, EventEntity], work=631*
125: 0x0D8A [0x45] LOAD_SCHEDULED_TASK: Load scheduler "s024" with entities [EventEntity, EventEntity], work=[631*, 0*]
126: 0x0D9B [0xBA] SET_ENTITY_POSITION(entity_id=Arciela (ID: 17825960/0x011000A8), pos_x=-127.998*, pos_z=-24.801*, pos_y=3.999*, direction=355.2°*)
127: 0x0DA8 [0xBA] SET_ENTITY_POSITION(entity_id=LocalPlayer, pos_x=-128.637*, pos_z=-23.389*, pos_y=3.999*, direction=355.2°*)
128: 0x0DB5 [0x4A] Tiana (ID: 17825938/0x01100092) looks at LocalPlayer
129: 0x0DBE [0x1C] WAIT(30* ticks)
130: 0x0DC1 [0x5F] MULTI_HANDLER_COMPLEX(mode=0x05 - Load ext scheduler with flag (OpCode 0x5B mode 0, flag 1), ref=3202*, entity1=Tiana (ID: 17825938/0x01100092), entity2=Tiana (ID: 17825938/0x01100092), string="wav0", extra=160*)
131: 0x0DD3 [0x2B] Tiana (ID: 17825938/0x01100092) [12696*]:
    → "Look! It's <Player>!"
132: 0x0DDA [0x79] LocalPlayer looks at Tiana (ID: 17825938/0x01100092) (Basic look)
133: 0x0DE4 [0x1C] WAIT(15* ticks)
134: 0x0DE7 [0x4A] Arciela (ID: 17825960/0x011000A8) looks at Tiana (ID: 17825938/0x01100092)
135: 0x0DF0 [0x1C] WAIT(15* ticks)
136: 0x0DF3 [0x4A] Distrova (ID: 17825998/0x011000CE) looks at LocalPlayer
137: 0x0DFC [0x1C] WAIT(15* ticks)
138: 0x0DFF [0x4A] Merleg (ID: 17826071/0x01100117) looks at LocalPlayer
139: 0x0E08 [0x5F] MULTI_HANDLER_COMPLEX(mode=0x07 - Wait scheduler task (OpCode 0x53))
140: 0x0E16 [0x81] SET_ENTITY_BLINKING(blink_flag=0x00, entity=Tiana (ID: 17825938/0x01100092))
141: 0x0E1C [0x7C] Tiana (ID: 17825938/0x01100092)->Render.Flags2 |= 0x00
142: 0x0E22 [0x5B] LOAD_EXT_SCHEDULER: Load scheduler "fh01" with entities [Tiana (ID: 17825938/0x01100092), Tiana (ID: 17825938/0x01100092)], work=3204*
143: 0x0E31 [0x1C] WAIT(30* ticks)
144: 0x0E34 [0x23] WAIT_FOR_DIALOG_INTERACTION
145: 0x0E35 [0x52] END_LOAD_SCHEDULER: End scheduler "s024" with entities [EventEntity, EventEntity], work=631*
146: 0x0E44 [0x45] LOAD_SCHEDULED_TASK: Load scheduler "s204" with entities [EventEntity, EventEntity], work=[631*, 0*]
147: 0x0E55 [0x2B] Tiana (ID: 17825938/0x01100092) [12697*]:
    → "And the prinshesh, too!"
148: 0x0E5C [0x23] WAIT_FOR_DIALOG_INTERACTION
149: 0x0E5D [0x5B] LOAD_EXT_SCHEDULER: Load scheduler "fh00" with entities [Tiana (ID: 17825938/0x01100092), Tiana (ID: 17825938/0x01100092)], work=3204*
150: 0x0E6C [0x55] WAIT_LOAD_SCHEDULER: Wait for scheduler "s204" with entities [EventEntity, EventEntity], work=631*
151: 0x0E7B [0x27] REQ_SET(priority=0x10, entity_id=Tiana (ID: 17825938/0x01100092), tag_num=0x12)
152: 0x0E82 [0x1C] WAIT(60* ticks)
153: 0x0E85 [0x81] SET_ENTITY_BLINKING(blink_flag=0x00, entity=Arciela (ID: 17825960/0x011000A8))
154: 0x0E8B [0x5B] LOAD_EXT_SCHEDULER: Load scheduler "bik0" with entities [Arciela (ID: 17825960/0x011000A8), Arciela (ID: 17825960/0x011000A8)], work=3225*
155: 0x0E9A [0x45] LOAD_SCHEDULED_TASK: Load scheduler "s023" with entities [EventEntity, EventEntity], work=[631*, 0*]
156: 0x0EAB [0x5C] MUSIC_CONTROL: Set music volume to song 64*, fade_time=120*
157: 0x0EB1 [0x5C] MUSIC_CONTROL: Adjust music volume to song 64*, fade_time=240*
158: 0x0EB7 [0x7A] VM_CONTROL: Reset VM for Tiana (ID: 17825938/0x01100092)
159: 0x0EBD [0x81] SET_ENTITY_BLINKING(blink_flag=0x01, entity=Tiana (ID: 17825938/0x01100092))
160: 0x0EC3 [0x7C] Tiana (ID: 17825938/0x01100092)->Render.Flags2 |= 0x01
161: 0x0EC9 [0x5B] LOAD_EXT_SCHEDULER: Load scheduler "f000" with entities [Tiana (ID: 17825938/0x01100092), Tiana (ID: 17825938/0x01100092)], work=3204*
162: 0x0ED8 [0xD3] CLEAR_ENTITY_MOTION_QUEUE(condition_flag=0x00, entity_server_id=0x01100092)
163: 0x0EDE [0x2B] Arciela (ID: 17825960/0x011000A8) [12698*]:
    → "Tiana? Is that you?"
164: 0x0EE5 [0x23] WAIT_FOR_DIALOG_INTERACTION
165: 0x0EE6 [0x1C] WAIT(30* ticks)
166: 0x0EE9 [0x52] END_LOAD_SCHEDULER: End scheduler "s023" with entities [EventEntity, EventEntity], work=631*
167: 0x0EF8 [0x45] LOAD_SCHEDULED_TASK: Load scheduler "s022" with entities [EventEntity, EventEntity], work=[631*, 0*]
168: 0x0F09 [0x6B] STOP_AND_IDLE: Arciela (ID: 17825960/0x011000A8) stops current action and resets to idle (animation="idl0")
169: 0x0F12 [0x81] SET_ENTITY_BLINKING(blink_flag=0x01, entity=Arciela (ID: 17825960/0x011000A8))
170: 0x0F18 [0xBA] SET_ENTITY_POSITION(entity_id=Arciela (ID: 17825960/0x011000A8), pos_x=-120.010*, pos_z=-22.391*, pos_y=3.999*, direction=342.5°*)
171: 0x0F25 [0xBA] SET_ENTITY_POSITION(entity_id=LocalPlayer, pos_x=-117.794*, pos_z=-20.283*, pos_y=3.999*, direction=342.5°*)
172: 0x0F32 [0xBA] SET_ENTITY_POSITION(entity_id=Tiana (ID: 17825938/0x01100092), pos_x=-108.489*, pos_z=-17.107*, pos_y=3.999*, direction=164.5°*)
173: 0x0F3F [0x27] REQ_SET(priority=0x10, entity_id=LocalPlayer, tag_num=0x2D)
174: 0x0F46 [0x27] REQ_SET(priority=0x10, entity_id=Arciela (ID: 17825960/0x011000A8), tag_num=0x0C)
175: 0x0F4D [0x27] REQ_SET(priority=0x10, entity_id=Tiana (ID: 17825938/0x01100092), tag_num=0x0D)
176: 0x0F54 [0x1C] WAIT(60* ticks)
177: 0x0F57 [0x27] REQ_SET(priority=0x10, entity_id=Merleg (ID: 17826071/0x01100117), tag_num=0x09)
178: 0x0F5E [0x27] REQ_SET(priority=0x10, entity_id=Distrova (ID: 17825998/0x011000CE), tag_num=0x17)
179: 0x0F65 [0x27] REQ_SET(priority=0x10, entity_id=Clautaire (ID: 17826073/0x01100119), tag_num=0x05)
180: 0x0F6C [0x2A] GET_REQ_LEVEL(level=16, entity_id=Tiana (ID: 17825938/0x01100092))
181: 0x0F72 [0x4A] Tiana (ID: 17825938/0x01100092) looks at LocalPlayer
182: 0x0F7B [0x7B] Tiana (ID: 17825938/0x01100092) stops talking
183: 0x0F80 [0x2A] GET_REQ_LEVEL(level=16, entity_id=LocalPlayer)
184: 0x0F86 [0x4A] LocalPlayer looks at Tiana (ID: 17825938/0x01100092)
185: 0x0F8F [0x2A] GET_REQ_LEVEL(level=16, entity_id=Merleg (ID: 17826071/0x01100117))
186: 0x0F95 [0x2A] GET_REQ_LEVEL(level=16, entity_id=Clautaire (ID: 17826073/0x01100119))
187: 0x0F9B [0x2A] GET_REQ_LEVEL(level=16, entity_id=Distrova (ID: 17825998/0x011000CE))
188: 0x0FA1 [0x4E] SET_ENTITY_HIDE_FLAG: Hide Andrival (ID: 17826079/0x0110011F)
189: 0x0FA7 [0x52] END_LOAD_SCHEDULER: End scheduler "s022" with entities [EventEntity, EventEntity], work=631*
190: 0x0FB6 [0x45] LOAD_SCHEDULED_TASK: Load scheduler "s025" with entities [EventEntity, EventEntity], work=[631*, 0*]
191: 0x0FC7 [0x5B] LOAD_EXT_SCHEDULER: Load scheduler "oji0" with entities [Tiana (ID: 17825938/0x01100092), Tiana (ID: 17825938/0x01100092)], work=3205*
192: 0x0FD6 [0x2B] Tiana (ID: 17825938/0x01100092) [12699*]:
    → "You guysh are the besht!"
193: 0x0FDD [0x1C] WAIT(250* ticks)
194: 0x0FE0 [0x23] WAIT_FOR_DIALOG_INTERACTION
195: 0x0FE1 [0x52] END_LOAD_SCHEDULER: End scheduler "s025" with entities [EventEntity, EventEntity], work=631*
196: 0x0FF0 [0x45] LOAD_SCHEDULED_TASK: Load scheduler "s026" with entities [EventEntity, EventEntity], work=[631*, 0*]
197: 0x1001 [0x27] REQ_SET(priority=0x05, entity_id=LocalPlayer, tag_num=0x09)
198: 0x1008 [0x1C] WAIT(80* ticks)
199: 0x100B [0x27] REQ_SET(priority=0x05, entity_id=LocalPlayer, tag_num=0x0A)
200: 0x1012 [0x81] SET_ENTITY_BLINKING(blink_flag=0x00, entity=Tiana (ID: 17825938/0x01100092))
201: 0x1018 [0x7C] Tiana (ID: 17825938/0x01100092)->Render.Flags2 |= 0x00
202: 0x101E [0x5B] LOAD_EXT_SCHEDULER: Load scheduler "fh01" with entities [Tiana (ID: 17825938/0x01100092), Tiana (ID: 17825938/0x01100092)], work=3204*
203: 0x102D [0x1C] WAIT(40* ticks)
204: 0x1030 [0x5B] LOAD_EXT_SCHEDULER: Load scheduler "yes0" with entities [Tiana (ID: 17825938/0x01100092), Tiana (ID: 17825938/0x01100092)], work=3202*
205: 0x103F [0x2B] Tiana (ID: 17825938/0x01100092) [12700*]:
    → "Of coursh I'm glad to shee you! You reshcued everyone!"
206: 0x1046 [0x23] WAIT_FOR_DIALOG_INTERACTION
207: 0x1047 [0x52] END_LOAD_SCHEDULER: End scheduler "s026" with entities [EventEntity, EventEntity], work=631*
208: 0x1056 [0x45] LOAD_SCHEDULED_TASK: Load scheduler "s027" with entities [EventEntity, EventEntity], work=[631*, 0*]
209: 0x1067 [0x5B] LOAD_EXT_SCHEDULER: Load scheduler "tlk0" with entities [Tiana (ID: 17825938/0x01100092), Tiana (ID: 17825938/0x01100092)], work=3202*
210: 0x1076 [0x2B] Tiana (ID: 17825938/0x01100092) [12701*]:
    → "I had the shtrangesht dream..."
211: 0x107D [0x23] WAIT_FOR_DIALOG_INTERACTION
212: 0x107E [0x2B] Tiana (ID: 17825938/0x01100092) [12702*]:
    → "I shaw you and <Player> riding a big white dragon with a bunch of pretty golden lightsh around you!"
213: 0x1085 [0x23] WAIT_FOR_DIALOG_INTERACTION
214: 0x1086 [0x52] END_LOAD_SCHEDULER: End scheduler "s027" with entities [EventEntity, EventEntity], work=631*
215: 0x1095 [0x45] LOAD_SCHEDULED_TASK: Load scheduler "s028" with entities [EventEntity, EventEntity], work=[631*, 0*]
216: 0x10A6 [0x2B] Tiana (ID: 17825938/0x01100092) [12703*]:
    → "And then the lightsh came to me, too, and I woke up!"
217: 0x10AD [0x23] WAIT_FOR_DIALOG_INTERACTION
218: 0x10AE [0x2B] Tiana (ID: 17825938/0x01100092) [12704*]:
    → "And grampa and mama and papa were there, crying."
219: 0x10B5 [0x23] WAIT_FOR_DIALOG_INTERACTION
220: 0x10B6 [0x52] END_LOAD_SCHEDULER: End scheduler "s028" with entities [EventEntity, EventEntity], work=631*
221: 0x10C5 [0x45] LOAD_SCHEDULED_TASK: Load scheduler "s029" with entities [EventEntity, EventEntity], work=[631*, 0*]
222: 0x10D6 [0x2B] Tiana (ID: 17825938/0x01100092) [12705*]:
    → "They shaid I had been shleeping a real long time!"
223: 0x10DD [0x23] WAIT_FOR_DIALOG_INTERACTION
224: 0x10DE [0x2B] Tiana (ID: 17825938/0x01100092) [12706*]:
    → "I know what happened!"
225: 0x10E5 [0x23] WAIT_FOR_DIALOG_INTERACTION
226: 0x10E6 [0x5B] LOAD_EXT_SCHEDULER: Load scheduler "tlk1" with entities [Tiana (ID: 17825938/0x01100092), Tiana (ID: 17825938/0x01100092)], work=3202*
227: 0x10F5 [0x2B] Tiana (ID: 17825938/0x01100092) [12707*]:
    → "You and <Player> helped me jusht like you did back in the foresht!"
228: 0x10FC [0x23] WAIT_FOR_DIALOG_INTERACTION
229: 0x10FD [0x52] END_LOAD_SCHEDULER: End scheduler "s029" with entities [EventEntity, EventEntity], work=631*
230: 0x110C [0x45] LOAD_SCHEDULED_TASK: Load scheduler "s030" with entities [EventEntity, EventEntity], work=[631*, 0*]
231: 0x111D [0x5B] LOAD_EXT_SCHEDULER: Load scheduler "maru" with entities [Tiana (ID: 17825938/0x01100092), Tiana (ID: 17825938/0x01100092)], work=3202*
232: 0x112C [0x2B] Tiana (ID: 17825938/0x01100092) [12708*]:
    → "Before it was some herbsh for my grampa, but thish time you woke me from my dream!"
233: 0x1133 [0x23] WAIT_FOR_DIALOG_INTERACTION
234: 0x1134 [0x2B] Tiana (ID: 17825938/0x01100092) [12709*]:
    → "I know it!"
235: 0x113B [0x23] WAIT_FOR_DIALOG_INTERACTION
236: 0x113C [0x52] END_LOAD_SCHEDULER: End scheduler "s030" with entities [EventEntity, EventEntity], work=631*
237: 0x114B [0x45] LOAD_SCHEDULED_TASK: Load scheduler "s031" with entities [EventEntity, EventEntity], work=[631*, 0*]
238: 0x115C [0x24] CREATE_DIALOG(message_id=12710*, default_option=0*, option_flags=0*)
    → "How do you respond? [You may be right./What a lovely dream.]"
239: 0x1163 [0x25] WAIT_DIALOG_SELECT()
240: 0x1164 [0x02] IF !(Work_Zone[0] == 0*) GOTO 0x11C4
241: 0x116C [0x52] END_LOAD_SCHEDULER: End scheduler "s031" with entities [EventEntity, EventEntity], work=631*
242: 0x117B [0x45] LOAD_SCHEDULED_TASK: Load scheduler "s032" with entities [EventEntity, EventEntity], work=[631*, 0*]
243: 0x118C [0x5B] LOAD_EXT_SCHEDULER: Load scheduler "yes0" with entities [Tiana (ID: 17825938/0x01100092), Tiana (ID: 17825938/0x01100092)], work=3202*
244: 0x119B [0x2B] Tiana (ID: 17825938/0x01100092) [12711*]:
    → "I knew it!"
245: 0x11A2 [0x23] WAIT_FOR_DIALOG_INTERACTION
246: 0x11A3 [0x5B] LOAD_EXT_SCHEDULER: Load scheduler "tlk0" with entities [Tiana (ID: 17825938/0x01100092), Tiana (ID: 17825938/0x01100092)], work=3202*
247: 0x11B2 [0x52] END_LOAD_SCHEDULER: End scheduler "s032" with entities [EventEntity, EventEntity], work=631*
248: 0x11C1 [0x01] GOTO 0x1215
249: 0x11C4 [0x02] IF !(Work_Zone[0] == 1*) GOTO 0x1215
250: 0x11CC [0x52] END_LOAD_SCHEDULER: End scheduler "s031" with entities [EventEntity, EventEntity], work=631*
251: 0x11DB [0x45] LOAD_SCHEDULED_TASK: Load scheduler "s032" with entities [EventEntity, EventEntity], work=[631*, 0*]
252: 0x11EC [0x5B] LOAD_EXT_SCHEDULER: Load scheduler "tlk0" with entities [Tiana (ID: 17825938/0x01100092), Tiana (ID: 17825938/0x01100092)], work=3202*
253: 0x11FB [0x2B] Tiana (ID: 17825938/0x01100092) [12712*]:
    → "No, I know it washn't just a dream!"
254: 0x1202 [0x23] WAIT_FOR_DIALOG_INTERACTION
255: 0x1203 [0x52] END_LOAD_SCHEDULER: End scheduler "s032" with entities [EventEntity, EventEntity], work=631*
256: 0x1212 [0x01] GOTO 0x1215

SUBROUTINE_1215:
257: 0x1215 [0x45] LOAD_SCHEDULED_TASK: Load scheduler "s033" with entities [EventEntity, EventEntity], work=[631*, 0*]
258: 0x1226 [0x2B] Tiana (ID: 17825938/0x01100092) [12713*]:
    → "<Player>, can I ashk a question?"
259: 0x122D [0x23] WAIT_FOR_DIALOG_INTERACTION
260: 0x122E [0x2B] Tiana (ID: 17825938/0x01100092) [12714*]:
    → "Do you remember when you and the prinshesh helped me, and I shaid how much I wanna learn magic?"
261: 0x1235 [0x23] WAIT_FOR_DIALOG_INTERACTION
262: 0x1236 [0x5B] LOAD_EXT_SCHEDULER: Load scheduler "tlk1" with entities [Tiana (ID: 17825938/0x01100092), Tiana (ID: 17825938/0x01100092)], work=3202*
263: 0x1245 [0x52] END_LOAD_SCHEDULER: End scheduler "s033" with entities [EventEntity, EventEntity], work=631*
264: 0x1254 [0x02] IF !(LocalPlayer->Race == 5*) GOTO 0x1270
265: 0x125C [0x45] LOAD_SCHEDULED_TASK: Load scheduler "s035" with entities [EventEntity, EventEntity], work=[631*, 0*]
266: 0x126D [0x01] GOTO 0x129D
267: 0x1270 [0x02] IF !(LocalPlayer->Race == 6*) GOTO 0x128C
268: 0x1278 [0x45] LOAD_SCHEDULED_TASK: Load scheduler "s035" with entities [EventEntity, EventEntity], work=[631*, 0*]
269: 0x1289 [0x01] GOTO 0x129D
270: 0x128C [0x45] LOAD_SCHEDULED_TASK: Load scheduler "s034" with entities [EventEntity, EventEntity], work=[631*, 0*]

SUBROUTINE_129D:
271: 0x129D [0x40] SET_BIT_WORK_RANGE(start_bit=0*, end_bit=1*, target=ExtData[1]->WorkLocal[2], source=0*)
272: 0x12A6 [0x40] SET_BIT_WORK_RANGE(start_bit=2*, end_bit=3*, target=ExtData[1]->WorkLocal[2], source=0*)

SUBROUTINE_12AF:
273: 0x12AF [0x24] CREATE_DIALOG(message_id=12715*, default_option=0*, option_flags=0*)
    → "Do you remember? [Of course I do!/Not really...]"
274: 0x12B6 [0x25] WAIT_DIALOG_SELECT()
275: 0x12B7 [0x02] IF !(Work_Zone[0] == 0*) GOTO 0x12FB
276: 0x12BF [0x02] IF !(ExtData[1]->WorkLocal[1] == 0*) GOTO 0x12F8
277: 0x12C7 [0x41] Work_Zone[2] = ExtData[1]->WorkLocal[2] (bits 0*-1*)
278: 0x12D0 [0x02] IF !(Work_Zone[2] >= 3*) GOTO 0x12F8
279: 0x12D8 [0x03] Work_Zone[1] = 1*
280: 0x12DD [0x43] SEND_EVENT_UPDATE: Send pending tag to server (packet 0x005B)
281: 0x12DF [0x43] SEND_EVENT_UPDATE: Check pending flag (skip if not pending)
282: 0x12E1 [0x41] Work_Zone[2] = ExtData[1]->WorkLocal[2] (bits 0*-1*)
283: 0x12EA [0x07] Work_Zone[2] += 1*
284: 0x12EF [0x40] SET_BIT_WORK_RANGE(start_bit=0*, end_bit=1*, target=ExtData[1]->WorkLocal[2], source=Work_Zone[2])
285: 0x12F8 [0x01] GOTO 0x140D
286: 0x12FB [0x02] IF !(Work_Zone[0] == 1*) GOTO 0x140D
287: 0x1303 [0x6E] LocalPlayer uses emote 6*
288: 0x130A [0x99] Wait for LocalPlayer animation to complete
289: 0x130F [0x1C] WAIT(60* ticks)
290: 0x1312 [0x81] SET_ENTITY_BLINKING(blink_flag=0x00, entity=Tiana (ID: 17825938/0x01100092))
291: 0x1318 [0x7C] Tiana (ID: 17825938/0x01100092)->Render.Flags2 |= 0x00
292: 0x131E [0x5B] LOAD_EXT_SCHEDULER: Load scheduler "ff01" with entities [Tiana (ID: 17825938/0x01100092), Tiana (ID: 17825938/0x01100092)], work=3204*
293: 0x132D [0x1C] WAIT(30* ticks)
294: 0x1330 [0x52] END_LOAD_SCHEDULER: End scheduler "s034" with entities [EventEntity, EventEntity], work=631*
295: 0x133F [0x52] END_LOAD_SCHEDULER: End scheduler "s035" with entities [EventEntity, EventEntity], work=631*
296: 0x134E [0x45] LOAD_SCHEDULED_TASK: Load scheduler "s036" with entities [EventEntity, EventEntity], work=[631*, 0*]
297: 0x135F [0x2B] Tiana (ID: 17825938/0x01100092) [12717*]:
    → "You're shuch a meanie!"
298: 0x1366 [0x23] WAIT_FOR_DIALOG_INTERACTION
299: 0x1367 [0x52] END_LOAD_SCHEDULER: End scheduler "s036" with entities [EventEntity, EventEntity], work=631*
300: 0x1376 [0x02] IF !(LocalPlayer->Race == 5*) GOTO 0x1392
301: 0x137E [0x45] LOAD_SCHEDULED_TASK: Load scheduler "s035" with entities [EventEntity, EventEntity], work=[631*, 0*]
302: 0x138F [0x01] GOTO 0x13BF
303: 0x1392 [0x02] IF !(LocalPlayer->Race == 6*) GOTO 0x13AE
304: 0x139A [0x45] LOAD_SCHEDULED_TASK: Load scheduler "s035" with entities [EventEntity, EventEntity], work=[631*, 0*]
305: 0x13AB [0x01] GOTO 0x13BF
