# 17825999 - Gontrain

## Common Data

| Field            | Value                     |
|------------------|---------------------------|
| Zone             | Western Adoulin (ID: 256) |
| Block Size       | 108 bytes                 |
| Total Events     | 5                         |
| References Count | 4                         |

## List of Events

| Event ID                 | Entrypoint   |   Size |   Instructions |
|--------------------------|--------------|--------|----------------|
| [65535](#event-65535)    | 0x0000       |      1 |              1 |
| [5034](#event-5034)      | 0x0001       |      7 |              2 |
| [5042](#event-5042)      | 0x0008       |     29 |              7 |
| [5037](#event-5037)      | 0x0025       |     13 |              4 |
| [65535.1](#event-655351) | 0x0032       |      5 |              2 |

## DAT References (imed_data)

|   Index | Hex Value   |   Dec Value |
|---------|-------------|-------------|
|       0 | 0x001E      |          30 |
|       1 | 0x24B6      |        9398 |
|       2 | 0x0AE8      |        2792 |
|       3 | 0x008A      |         138 |

## String References

- **9398**: Phew! Adoulin is such an expansive city. Walking around really hits the ol' bones. Take care you don't get lost, or you may find yourself out of breath, too!

## Events

### Event 65535

#### Metadata

| Field        | Value   |
|--------------|---------|
| Entrypoint   | 0x0000  |
| Data Size    | 1 bytes |
| Instructions | 1       |

```
      00 01 02 03 04 05 06 07  08 09 0A 0B 0C 0D 0E 0F
      -- -- -- -- -- -- -- --  -- -- -- -- -- -- -- --
0000: 00                                                .               
```

#### Opcodes

```
  0: 0x0000 [0x00] END_REQSTACK()
```

### Event 5034

#### Metadata

| Field        | Value   |
|--------------|---------|
| Entrypoint   | 0x0001  |
| Data Size    | 7 bytes |
| Instructions | 2       |

```
      00 01 02 03 04 05 06 07  08 09 0A 0B 0C 0D 0E 0F
      -- -- -- -- -- -- -- --  -- -- -- -- -- -- -- --
0000:    92 01 F8 FF FF 7F 00                            .......        
```

#### Opcodes

```
  0: 0x0001 [0x92] EventEntity->Render.Flags3 ^= 0x01
  1: 0x0007 [0x00] END_REQSTACK()
```

### Event 5042

#### Metadata

| Field        | Value    |
|--------------|----------|
| Entrypoint   | 0x0008   |
| Data Size    | 29 bytes |
| Instructions | 7        |

```
      00 01 02 03 04 05 06 07  08 09 0A 0B 0C 0D 0E 0F
      -- -- -- -- -- -- -- --  -- -- -- -- -- -- -- --
0000:                          1E F0 FF FF 7F 1C 00 80          ........
0010: 5B 00 80 F8 FF FF 7F F8  FF FF 7F 74 6C 6B 30 1D  [..........tlk0.
0020: 01 80 23 21 00                                    ..#!.           
```

#### Opcodes

```
  0: 0x0008 [0x1E] EventEntity looks at LocalPlayer and starts talking
  1: 0x000D [0x1C] WAIT(30* ticks)
  2: 0x0010 [0x5B] LOAD_EXT_SCHEDULER: Load scheduler "tlk0" with entities [EventEntity, EventEntity], work=30*
  3: 0x001F [0x1D] PRINT_EVENT_MESSAGE(message_id=9398*)
    → "Phew! Adoulin is such an expansive city. Walking around really hits the ol' bones. Take care you don't get lost, or you may find yourself out of breath, too!"
  4: 0x0022 [0x23] WAIT_FOR_DIALOG_INTERACTION
  5: 0x0023 [0x21] END_EVENT
  6: 0x0024 [0x00] END_REQSTACK()
```

### Event 5037

#### Metadata

| Field        | Value    |
|--------------|----------|
| Entrypoint   | 0x0025   |
| Data Size    | 13 bytes |
| Instructions | 4        |

```
      00 01 02 03 04 05 06 07  08 09 0A 0B 0C 0D 0E 0F
      -- -- -- -- -- -- -- --  -- -- -- -- -- -- -- --
0020:                92 01 F8  FF FF 7F A4 01 B6 00 02       ...........
0030: 80 00                                             ..              
```

#### Opcodes

```
  0: 0x0025 [0x92] EventEntity->Render.Flags3 ^= 0x01
  1: 0x002B [0xA4] EventEntity->Flags3.unknown_3_2 = 1
  2: 0x002D [0xB6] ENTITY_APPEARANCE_HANDLER(case=Hair style, value=2792*)
  3: 0x0031 [0x00] END_REQSTACK()
```

### Event 65535.1

#### Metadata

| Field        | Value   |
|--------------|---------|
| Entrypoint   | 0x0032  |
| Data Size    | 5 bytes |
| Instructions | 2       |

```
      00 01 02 03 04 05 06 07  08 09 0A 0B 0C 0D 0E 0F
      -- -- -- -- -- -- -- --  -- -- -- -- -- -- -- --
0030:       B6 00 03 80 00                                .....         
```

#### Opcodes

```
  0: 0x0032 [0xB6] ENTITY_APPEARANCE_HANDLER(case=Hair style, value=138*)
  1: 0x0036 [0x00] END_REQSTACK()
```
