# 17826127 - Mikolulu

## Common Data

| Field            | Value                     |
|------------------|---------------------------|
| Zone             | Western Adoulin (ID: 256) |
| Block Size       | 852 bytes                 |
| Total Events     | 20                        |
| References Count | 34                        |

## List of Events

| Event ID                   | Entrypoint   |   Size |   Instructions |
|----------------------------|--------------|--------|----------------|
| [65535](#event-65535)      | 0x0000       |      1 |              1 |
| [209](#event-209)          | 0x0001       |      1 |              1 |
| [65535.1](#event-655351)   | 0x0002       |     64 |             15 |
| [65535.2](#event-655352)   | 0x0042       |     33 |              3 |
| [65535.3](#event-655353)   | 0x0063       |     33 |              3 |
| [65535.4](#event-655354)   | 0x0084       |     33 |              3 |
| [65535.5](#event-655355)   | 0x00A5       |     33 |              3 |
| [65535.6](#event-655356)   | 0x00C6       |     33 |              3 |
| [65535.7](#event-655357)   | 0x00E7       |     33 |              3 |
| [65535.8](#event-655358)   | 0x0108       |     33 |              3 |
| [65535.9](#event-655359)   | 0x0129       |     33 |              3 |
| [65535.10](#event-6553510) | 0x014A       |     33 |              3 |
| [65535.11](#event-6553511) | 0x016B       |     33 |              3 |
| [65535.12](#event-6553512) | 0x018C       |     45 |              5 |
| [65535.13](#event-6553513) | 0x01B9       |     57 |              7 |
| [65535.14](#event-6553514) | 0x01F2       |     57 |              7 |
| [65535.15](#event-6553515) | 0x022B       |     16 |              4 |
| [65535.16](#event-6553516) | 0x023B       |     16 |              4 |
| [65535.17](#event-6553517) | 0x024B       |     16 |              4 |
| [65535.18](#event-6553518) | 0x025B       |     16 |              4 |

## DAT References (imed_data)

|   Index | Hex Value   |   Dec Value |
|---------|-------------|-------------|
|       0 | 0x000D      |          13 |
|       1 | 0x16D2A     |       93482 |
|       2 | 0xFFFEE2D4  |  4294894292 |
|       3 | 0xFFFFFD3F  |  4294966591 |
|       4 | 0x18A24     |      100900 |
|       5 | 0xFFFEC4A7  |  4294886567 |
|       6 | 0xFFFFFD76  |  4294966646 |
|       7 | 0x19662     |      104034 |
|       8 | 0xFFFECB0F  |  4294888207 |
|       9 | 0x196BE     |      104126 |
|      10 | 0xFFFEDB59  |  4294892377 |
|      11 | 0xFFFFFD77  |  4294966647 |
|      12 | 0x13631     |       79409 |
|      13 | 0xFFFF353B  |  4294915387 |
|      14 | 0xFFFFFF6C  |  4294967148 |
|      15 | 0x006F      |         111 |
|      16 | 0x00C7      |         199 |
|      17 | 0x00BD      |         189 |
|      18 | 0x001E      |          30 |
|      19 | 0x0053      |          83 |
|      20 | 0x0031      |          49 |
|      21 | 0x005A      |          90 |
|      22 | 0x0022      |          34 |
|      23 | 0x0023      |          35 |
|      24 | 0x00C8      |         200 |
|      25 | 0x0801      |        2049 |
|      26 | 0x00B0      |         176 |
|      27 | 0x055D      |        1373 |
|      28 | 0x0096      |         150 |
|      29 | 0x0008      |           8 |
|      30 | 0x0015      |          21 |
|      31 | 0x0007      |           7 |
|      32 | 0x003C      |          60 |
|      33 | 0x0001      |           1 |

## Events

### Event 65535

#### Metadata

| Field        | Value   |
|--------------|---------|
| Entrypoint   | 0x0000  |
| Data Size    | 1 bytes |
| Instructions | 1       |

```
      00 01 02 03 04 05 06 07  08 09 0A 0B 0C 0D 0E 0F
      -- -- -- -- -- -- -- --  -- -- -- -- -- -- -- --
0000: 00                                                .               
```

#### Opcodes

```
  0: 0x0000 [0x00] END_REQSTACK()
```

### Event 209

#### Metadata

| Field        | Value   |
|--------------|---------|
| Entrypoint   | 0x0001  |
| Data Size    | 1 bytes |
| Instructions | 1       |

```
      00 01 02 03 04 05 06 07  08 09 0A 0B 0C 0D 0E 0F
      -- -- -- -- -- -- -- --  -- -- -- -- -- -- -- --
0000:    00                                              .              
```

#### Opcodes

```
  0: 0x0001 [0x00] END_REQSTACK()
```

### Event 65535.1

#### Metadata

| Field        | Value    |
|--------------|----------|
| Entrypoint   | 0x0002   |
| Data Size    | 64 bytes |
| Instructions | 15       |

```
      00 01 02 03 04 05 06 07  08 09 0A 0B 0C 0D 0E 0F
      -- -- -- -- -- -- -- --  -- -- -- -- -- -- -- --
0000:       32 00 80 1F 00 01  80 02 80 03 80 1F 01 1F    2.............
0010: 00 04 80 05 80 06 80 1F  01 61 00 1F 00 07 80 08  .........a......
0020: 80 06 80 1F 01 1F 00 09  80 0A 80 0B 80 1F 01 1F  ................
0030: 00 0C 80 0D 80 0E 80 1F  01 22 01 2F 01 F8 FF FF  ........."./....
0040: 7F 00                                             ..              
```

#### Opcodes

```
  0: 0x0002 [0x32] ExtData[1]->MainSpeed = 13* * 0.1
  1: 0x0005 [0x1F] MOVE_ENTITY: EventEntity moves to X=93.482*, Z=-73.004*, Y=-0.705*
  2: 0x000D [0x1F] MOVE_ENTITY: Update entity position (mode=1)
  3: 0x000F [0x1F] MOVE_ENTITY: EventEntity moves to X=100.900*, Z=-80.729*, Y=-0.650*
  4: 0x0017 [0x1F] MOVE_ENTITY: Update entity position (mode=1)
  5: 0x0019 [0x61] EventEntity->Render.Flags2 &= ~0x00000001
  6: 0x001B [0x1F] MOVE_ENTITY: EventEntity moves to X=104.034*, Z=-79.089*, Y=-0.650*
  7: 0x0023 [0x1F] MOVE_ENTITY: Update entity position (mode=1)
  8: 0x0025 [0x1F] MOVE_ENTITY: EventEntity moves to X=104.126*, Z=-74.919*, Y=-0.649*
  9: 0x002D [0x1F] MOVE_ENTITY: Update entity position (mode=1)
 10: 0x002F [0x1F] MOVE_ENTITY: EventEntity moves to X=79.409*, Z=-51.909*, Y=-0.148*
 11: 0x0037 [0x1F] MOVE_ENTITY: Update entity position (mode=1)
 12: 0x0039 [0x22] ENTITY_HIDE_FLAG(enabled=0x01)
 13: 0x003B [0x2F] EventEntity->Render.Flags0 |= 0x80000 // Bit 19
 14: 0x0041 [0x00] END_REQSTACK()
```

### Event 65535.2

#### Metadata

| Field        | Value    |
|--------------|----------|
| Entrypoint   | 0x0042   |
| Data Size    | 33 bytes |
| Instructions | 3        |

```
      00 01 02 03 04 05 06 07  08 09 0A 0B 0C 0D 0E 0F
      -- -- -- -- -- -- -- --  -- -- -- -- -- -- -- --
0040:       5F 06 0F 80 F8 FF  FF 7F F8 FF FF 7F 70 61    _...........pa
0050: 73 30 10 80 5F 07 F8 FF  FF 7F F8 FF FF 7F 70 61  s0.._.........pa
0060: 73 30 00                                          s0.             
```

#### Opcodes

```
  0: 0x0042 [0x5F] MULTI_HANDLER_COMPLEX(mode=0x06 - Load ext scheduler with flag (OpCode 0x5B mode 1, flag 1), ref=111*, entity1=EventEntity, entity2=EventEntity, string="pas0", extra=199*)
  1: 0x0054 [0x5F] MULTI_HANDLER_COMPLEX(mode=0x07 - Wait scheduler task (OpCode 0x53))
  2: 0x0062 [0x00] END_REQSTACK()
```

### Event 65535.3

#### Metadata

| Field        | Value    |
|--------------|----------|
| Entrypoint   | 0x0063   |
| Data Size    | 33 bytes |
| Instructions | 3        |

```
      00 01 02 03 04 05 06 07  08 09 0A 0B 0C 0D 0E 0F
      -- -- -- -- -- -- -- --  -- -- -- -- -- -- -- --
0060:          5F 06 11 80 F8  FF FF 7F F8 FF FF 7F 6C     _...........l
0070: 6B 30 30 12 80 5F 07 F8  FF FF 7F F8 FF FF 7F 6C  k00.._.........l
0080: 6B 30 30 00                                       k00.            
```

#### Opcodes

```
  0: 0x0063 [0x5F] MULTI_HANDLER_COMPLEX(mode=0x06 - Load ext scheduler with flag (OpCode 0x5B mode 1, flag 1), ref=189*, entity1=EventEntity, entity2=EventEntity, string="lk00", extra=30*)
  1: 0x0075 [0x5F] MULTI_HANDLER_COMPLEX(mode=0x07 - Wait scheduler task (OpCode 0x53))
  2: 0x0083 [0x00] END_REQSTACK()
```

### Event 65535.4

#### Metadata

| Field        | Value    |
|--------------|----------|
| Entrypoint   | 0x0084   |
| Data Size    | 33 bytes |
| Instructions | 3        |

```
      00 01 02 03 04 05 06 07  08 09 0A 0B 0C 0D 0E 0F
      -- -- -- -- -- -- -- --  -- -- -- -- -- -- -- --
0080:             5F 06 11 80  F8 FF FF 7F F8 FF FF 7F      _...........
0090: 74 6C 6B 30 13 80 5F 07  F8 FF FF 7F F8 FF FF 7F  tlk0.._.........
00A0: 74 6C 6B 30 00                                    tlk0.           
```

#### Opcodes

```
  0: 0x0084 [0x5F] MULTI_HANDLER_COMPLEX(mode=0x06 - Load ext scheduler with flag (OpCode 0x5B mode 1, flag 1), ref=189*, entity1=EventEntity, entity2=EventEntity, string="tlk0", extra=83*)
  1: 0x0096 [0x5F] MULTI_HANDLER_COMPLEX(mode=0x07 - Wait scheduler task (OpCode 0x53))
  2: 0x00A4 [0x00] END_REQSTACK()
```

### Event 65535.5

#### Metadata

| Field        | Value    |
|--------------|----------|
| Entrypoint   | 0x00A5   |
| Data Size    | 33 bytes |
| Instructions | 3        |

```
      00 01 02 03 04 05 06 07  08 09 0A 0B 0C 0D 0E 0F
      -- -- -- -- -- -- -- --  -- -- -- -- -- -- -- --
00A0:                5F 06 11  80 F8 FF FF 7F F8 FF FF       _..........
00B0: 7F 74 6C 6B 31 13 80 5F  07 F8 FF FF 7F F8 FF FF  .tlk1.._........
00C0: 7F 74 6C 6B 31 00                                 .tlk1.          
```

#### Opcodes

```
  0: 0x00A5 [0x5F] MULTI_HANDLER_COMPLEX(mode=0x06 - Load ext scheduler with flag (OpCode 0x5B mode 1, flag 1), ref=189*, entity1=EventEntity, entity2=EventEntity, string="tlk1", extra=83*)
  1: 0x00B7 [0x5F] MULTI_HANDLER_COMPLEX(mode=0x07 - Wait scheduler task (OpCode 0x53))
  2: 0x00C5 [0x00] END_REQSTACK()
```

### Event 65535.6

#### Metadata

| Field        | Value    |
|--------------|----------|
| Entrypoint   | 0x00C6   |
| Data Size    | 33 bytes |
| Instructions | 3        |

```
      00 01 02 03 04 05 06 07  08 09 0A 0B 0C 0D 0E 0F
      -- -- -- -- -- -- -- --  -- -- -- -- -- -- -- --
00C0:                   5F 06  14 80 F8 FF FF 7F F8 FF        _.........
00D0: FF 7F 74 6C 6B 30 15 80  5F 07 F8 FF FF 7F F8 FF  ..tlk0.._.......
00E0: FF 7F 74 6C 6B 30 00                              ..tlk0.         
```

#### Opcodes

```
  0: 0x00C6 [0x5F] MULTI_HANDLER_COMPLEX(mode=0x06 - Load ext scheduler with flag (OpCode 0x5B mode 1, flag 1), ref=49*, entity1=EventEntity, entity2=EventEntity, string="tlk0", extra=90*)
  1: 0x00D8 [0x5F] MULTI_HANDLER_COMPLEX(mode=0x07 - Wait scheduler task (OpCode 0x53))
  2: 0x00E6 [0x00] END_REQSTACK()
```

### Event 65535.7

#### Metadata

| Field        | Value    |
|--------------|----------|
| Entrypoint   | 0x00E7   |
| Data Size    | 33 bytes |
| Instructions | 3        |

```
      00 01 02 03 04 05 06 07  08 09 0A 0B 0C 0D 0E 0F
      -- -- -- -- -- -- -- --  -- -- -- -- -- -- -- --
00E0:                      5F  06 14 80 F8 FF FF 7F F8         _........
00F0: FF FF 7F 74 6C 6B 31 15  80 5F 07 F8 FF FF 7F F8  ...tlk1.._......
0100: FF FF 7F 74 6C 6B 31 00                           ...tlk1.        
```

#### Opcodes

```
  0: 0x00E7 [0x5F] MULTI_HANDLER_COMPLEX(mode=0x06 - Load ext scheduler with flag (OpCode 0x5B mode 1, flag 1), ref=49*, entity1=EventEntity, entity2=EventEntity, string="tlk1", extra=90*)
  1: 0x00F9 [0x5F] MULTI_HANDLER_COMPLEX(mode=0x07 - Wait scheduler task (OpCode 0x53))
  2: 0x0107 [0x00] END_REQSTACK()
```

### Event 65535.8

#### Metadata

| Field        | Value    |
|--------------|----------|
| Entrypoint   | 0x0108   |
| Data Size    | 33 bytes |
| Instructions | 3        |

```
      00 01 02 03 04 05 06 07  08 09 0A 0B 0C 0D 0E 0F
      -- -- -- -- -- -- -- --  -- -- -- -- -- -- -- --
0100:                          5F 06 14 80 F8 FF FF 7F          _.......
0110: F8 FF FF 7F 74 68 6B 31  15 80 5F 07 F8 FF FF 7F  ....thk1.._.....
0120: F8 FF FF 7F 74 68 6B 31  00                       ....thk1.       
```

#### Opcodes

```
  0: 0x0108 [0x5F] MULTI_HANDLER_COMPLEX(mode=0x06 - Load ext scheduler with flag (OpCode 0x5B mode 1, flag 1), ref=49*, entity1=EventEntity, entity2=EventEntity, string="thk1", extra=90*)
  1: 0x011A [0x5F] MULTI_HANDLER_COMPLEX(mode=0x07 - Wait scheduler task (OpCode 0x53))
  2: 0x0128 [0x00] END_REQSTACK()
```

### Event 65535.9

#### Metadata

| Field        | Value    |
|--------------|----------|
| Entrypoint   | 0x0129   |
| Data Size    | 33 bytes |
| Instructions | 3        |

```
      00 01 02 03 04 05 06 07  08 09 0A 0B 0C 0D 0E 0F
      -- -- -- -- -- -- -- --  -- -- -- -- -- -- -- --
0120:                             5F 06 14 80 F8 FF FF           _......
0130: 7F F8 FF FF 7F 74 68 6B  32 15 80 5F 07 F8 FF FF  .....thk2.._....
0140: 7F F8 FF FF 7F 74 68 6B  32 00                    .....thk2.      
```

#### Opcodes

```
  0: 0x0129 [0x5F] MULTI_HANDLER_COMPLEX(mode=0x06 - Load ext scheduler with flag (OpCode 0x5B mode 1, flag 1), ref=49*, entity1=EventEntity, entity2=EventEntity, string="thk2", extra=90*)
  1: 0x013B [0x5F] MULTI_HANDLER_COMPLEX(mode=0x07 - Wait scheduler task (OpCode 0x53))
  2: 0x0149 [0x00] END_REQSTACK()
```

### Event 65535.10

#### Metadata

| Field        | Value    |
|--------------|----------|
| Entrypoint   | 0x014A   |
| Data Size    | 33 bytes |
| Instructions | 3        |

```
      00 01 02 03 04 05 06 07  08 09 0A 0B 0C 0D 0E 0F
      -- -- -- -- -- -- -- --  -- -- -- -- -- -- -- --
0140:                                5F 06 16 80 F8 FF            _.....
0150: FF 7F F8 FF FF 7F 74 6C  62 30 15 80 5F 07 F8 FF  ......tlb0.._...
0160: FF 7F F8 FF FF 7F 74 6C  62 30 00                 ......tlb0.     
```

#### Opcodes

```
  0: 0x014A [0x5F] MULTI_HANDLER_COMPLEX(mode=0x06 - Load ext scheduler with flag (OpCode 0x5B mode 1, flag 1), ref=34*, entity1=EventEntity, entity2=EventEntity, string="tlb0", extra=90*)
  1: 0x015C [0x5F] MULTI_HANDLER_COMPLEX(mode=0x07 - Wait scheduler task (OpCode 0x53))
  2: 0x016A [0x00] END_REQSTACK()
```

### Event 65535.11

#### Metadata

| Field        | Value    |
|--------------|----------|
| Entrypoint   | 0x016B   |
| Data Size    | 33 bytes |
| Instructions | 3        |

```
      00 01 02 03 04 05 06 07  08 09 0A 0B 0C 0D 0E 0F
      -- -- -- -- -- -- -- --  -- -- -- -- -- -- -- --
0160:                                   5F 06 16 80 F8             _....
0170: FF FF 7F F8 FF FF 7F 74  6C 62 31 15 80 5F 07 F8  .......tlb1.._..
0180: FF FF 7F F8 FF FF 7F 74  6C 62 31 00              .......tlb1.    
```

#### Opcodes

```
  0: 0x016B [0x5F] MULTI_HANDLER_COMPLEX(mode=0x06 - Load ext scheduler with flag (OpCode 0x5B mode 1, flag 1), ref=34*, entity1=EventEntity, entity2=EventEntity, string="tlb1", extra=90*)
  1: 0x017D [0x5F] MULTI_HANDLER_COMPLEX(mode=0x07 - Wait scheduler task (OpCode 0x53))
  2: 0x018B [0x00] END_REQSTACK()
```

### Event 65535.12

#### Metadata

| Field        | Value    |
|--------------|----------|
| Entrypoint   | 0x018C   |
| Data Size    | 45 bytes |
| Instructions | 5        |

```
      00 01 02 03 04 05 06 07  08 09 0A 0B 0C 0D 0E 0F
      -- -- -- -- -- -- -- --  -- -- -- -- -- -- -- --
0180:                                      81 00 F8 FF              ....
0190: FF 7F 5F 06 17 80 F8 FF  FF 7F F8 FF FF 7F 6D 6F  .._...........mo
01A0: 6E 30 18 80 5F 07 F8 FF  FF 7F F8 FF FF 7F 6D 6F  n0.._.........mo
01B0: 6E 30 81 01 F8 FF FF 7F  00                       n0.......       
```

#### Opcodes

```
  0: 0x018C [0x81] SET_ENTITY_BLINKING(blink_flag=0x00, entity=EventEntity)
  1: 0x0192 [0x5F] MULTI_HANDLER_COMPLEX(mode=0x06 - Load ext scheduler with flag (OpCode 0x5B mode 1, flag 1), ref=35*, entity1=EventEntity, entity2=EventEntity, string="mon0", extra=200*)
  2: 0x01A4 [0x5F] MULTI_HANDLER_COMPLEX(mode=0x07 - Wait scheduler task (OpCode 0x53))
  3: 0x01B2 [0x81] SET_ENTITY_BLINKING(blink_flag=0x01, entity=EventEntity)
  4: 0x01B8 [0x00] END_REQSTACK()
```

### Event 65535.13

#### Metadata

| Field        | Value    |
|--------------|----------|
| Entrypoint   | 0x01B9   |
| Data Size    | 57 bytes |
| Instructions | 7        |

```
      00 01 02 03 04 05 06 07  08 09 0A 0B 0C 0D 0E 0F
      -- -- -- -- -- -- -- --  -- -- -- -- -- -- -- --
01B0:                             81 00 F8 FF FF 7F 7C           ......|
01C0: 00 F8 FF FF 7F 5F 05 19  80 F8 FF FF 7F F8 FF FF  ....._..........
01D0: 7F 79 67 6F 30 1A 80 5F  07 F8 FF FF 7F F8 FF FF  .ygo0.._........
01E0: 7F 79 67 6F 30 81 01 F8  FF FF 7F 7C 01 F8 FF FF  .ygo0......|....
01F0: 7F 00                                             ..              
```

#### Opcodes

```
  0: 0x01B9 [0x81] SET_ENTITY_BLINKING(blink_flag=0x00, entity=EventEntity)
  1: 0x01BF [0x7C] EventEntity->Render.Flags2 |= 0x00
  2: 0x01C5 [0x5F] MULTI_HANDLER_COMPLEX(mode=0x05 - Load ext scheduler with flag (OpCode 0x5B mode 0, flag 1), ref=2049*, entity1=EventEntity, entity2=EventEntity, string="ygo0", extra=176*)
  3: 0x01D7 [0x5F] MULTI_HANDLER_COMPLEX(mode=0x07 - Wait scheduler task (OpCode 0x53))
  4: 0x01E5 [0x81] SET_ENTITY_BLINKING(blink_flag=0x01, entity=EventEntity)
  5: 0x01EB [0x7C] EventEntity->Render.Flags2 |= 0x01
  6: 0x01F1 [0x00] END_REQSTACK()
```

### Event 65535.14

#### Metadata

| Field        | Value    |
|--------------|----------|
| Entrypoint   | 0x01F2   |
| Data Size    | 57 bytes |
| Instructions | 7        |

```
      00 01 02 03 04 05 06 07  08 09 0A 0B 0C 0D 0E 0F
      -- -- -- -- -- -- -- --  -- -- -- -- -- -- -- --
01F0:       81 00 F8 FF FF 7F  7C 00 F8 FF FF 7F 5F 05    ......|....._.
0200: 1B 80 F8 FF FF 7F F8 FF  FF 7F 67 61 68 32 1C 80  ..........gah2..
0210: 5F 07 F8 FF FF 7F F8 FF  FF 7F 67 61 68 32 81 01  _.........gah2..
0220: F8 FF FF 7F 7C 01 F8 FF  FF 7F 00                 ....|......     
```

#### Opcodes

```
  0: 0x01F2 [0x81] SET_ENTITY_BLINKING(blink_flag=0x00, entity=EventEntity)
  1: 0x01F8 [0x7C] EventEntity->Render.Flags2 |= 0x00
  2: 0x01FE [0x5F] MULTI_HANDLER_COMPLEX(mode=0x05 - Load ext scheduler with flag (OpCode 0x5B mode 0, flag 1), ref=1373*, entity1=EventEntity, entity2=EventEntity, string="gah2", extra=150*)
  3: 0x0210 [0x5F] MULTI_HANDLER_COMPLEX(mode=0x07 - Wait scheduler task (OpCode 0x53))
  4: 0x021E [0x81] SET_ENTITY_BLINKING(blink_flag=0x01, entity=EventEntity)
  5: 0x0224 [0x7C] EventEntity->Render.Flags2 |= 0x01
  6: 0x022A [0x00] END_REQSTACK()
```

### Event 65535.15

#### Metadata

| Field        | Value    |
|--------------|----------|
| Entrypoint   | 0x022B   |
| Data Size    | 16 bytes |
| Instructions | 4        |

```
      00 01 02 03 04 05 06 07  08 09 0A 0B 0C 0D 0E 0F
      -- -- -- -- -- -- -- --  -- -- -- -- -- -- -- --
0220:                                   6E F8 FF FF 7F             n....
0230: 1D 80 99 F8 FF FF 7F 1C  1C 80 00                 ...........     
```

#### Opcodes

```
  0: 0x022B [0x6E] EventEntity uses emote 8*
  1: 0x0232 [0x99] Wait for EventEntity animation to complete
  2: 0x0237 [0x1C] WAIT(150* ticks)
  3: 0x023A [0x00] END_REQSTACK()
```

### Event 65535.16

#### Metadata

| Field        | Value    |
|--------------|----------|
| Entrypoint   | 0x023B   |
| Data Size    | 16 bytes |
| Instructions | 4        |

```
      00 01 02 03 04 05 06 07  08 09 0A 0B 0C 0D 0E 0F
      -- -- -- -- -- -- -- --  -- -- -- -- -- -- -- --
0230:                                   6E F8 FF FF 7F             n....
0240: 1E 80 99 F8 FF FF 7F 1C  1C 80 00                 ...........     
```

#### Opcodes

```
  0: 0x023B [0x6E] EventEntity uses emote 21*
  1: 0x0242 [0x99] Wait for EventEntity animation to complete
  2: 0x0247 [0x1C] WAIT(150* ticks)
  3: 0x024A [0x00] END_REQSTACK()
```

### Event 65535.17

#### Metadata

| Field        | Value    |
|--------------|----------|
| Entrypoint   | 0x024B   |
| Data Size    | 16 bytes |
| Instructions | 4        |

```
      00 01 02 03 04 05 06 07  08 09 0A 0B 0C 0D 0E 0F
      -- -- -- -- -- -- -- --  -- -- -- -- -- -- -- --
0240:                                   6E F8 FF FF 7F             n....
0250: 1F 80 99 F8 FF FF 7F 1C  20 80 00                 ........ ..     
```

#### Opcodes

```
  0: 0x024B [0x6E] EventEntity uses emote 7*
  1: 0x0252 [0x99] Wait for EventEntity animation to complete
  2: 0x0257 [0x1C] WAIT(60* ticks)
  3: 0x025A [0x00] END_REQSTACK()
```

### Event 65535.18

#### Metadata

| Field        | Value    |
|--------------|----------|
| Entrypoint   | 0x025B   |
| Data Size    | 16 bytes |
| Instructions | 4        |

```
      00 01 02 03 04 05 06 07  08 09 0A 0B 0C 0D 0E 0F
      -- -- -- -- -- -- -- --  -- -- -- -- -- -- -- --
0250:                                   6E F8 FF FF 7F             n....
0260: 21 80 99 F8 FF FF 7F 1C  1C 80 00                 !..........     
```

#### Opcodes

```
  0: 0x025B [0x6E] EventEntity uses emote 1*
  1: 0x0262 [0x99] Wait for EventEntity animation to complete
  2: 0x0267 [0x1C] WAIT(150* ticks)
  3: 0x026A [0x00] END_REQSTACK()
```
