# 17825984 - Ari-Barali

## Common Data

| Field            | Value                     |
|------------------|---------------------------|
| Zone             | Western Adoulin (ID: 256) |
| Block Size       | 1972 bytes                |
| Total Events     | 86                        |
| References Count | 42                        |

## List of Events

| Event ID                   | Entrypoint   |   Size |   Instructions |
|----------------------------|--------------|--------|----------------|
| [65535](#event-65535)      | 0x0000       |      1 |              1 |
| [5019](#event-5019)        | 0x0001       |      7 |              2 |
| [65535.1](#event-655351)   | 0x0008       |     37 |              7 |
| [65535.2](#event-655352)   | 0x002D       |     14 |              4 |
| [5072](#event-5072)        | 0x003B       |      7 |              2 |
| [65535.3](#event-655353)   | 0x0042       |     35 |              7 |
| [170](#event-170)          | 0x0065       |      7 |              2 |
| [65535.4](#event-655354)   | 0x006C       |     14 |              4 |
| [181](#event-181)          | 0x007A       |      1 |              1 |
| [65535.5](#event-655355)   | 0x007B       |     21 |              2 |
| [65535.6](#event-655356)   | 0x0090       |     14 |              4 |
| [65535.7](#event-655357)   | 0x009E       |     21 |              2 |
| [190](#event-190)          | 0x00B3       |     21 |              2 |
| [65535.8](#event-655358)   | 0x00C8       |     45 |              4 |
| [65535.9](#event-655359)   | 0x00F5       |     25 |              3 |
| [172](#event-172)          | 0x010E       |     21 |              2 |
| [65535.10](#event-6553510) | 0x0123       |     16 |              2 |
| [65535.11](#event-6553511) | 0x0133       |     42 |              4 |
| [65535.12](#event-6553512) | 0x015D       |     16 |              2 |
| [65535.13](#event-6553513) | 0x016D       |     14 |              2 |
| [65535.14](#event-6553514) | 0x017B       |     16 |              2 |
| [65535.15](#event-6553515) | 0x018B       |     14 |              2 |
| [65535.16](#event-6553516) | 0x0199       |     16 |              2 |
| [65535.17](#event-6553517) | 0x01A9       |     14 |              2 |
| [65535.18](#event-6553518) | 0x01B7       |     16 |              2 |
| [65535.19](#event-6553519) | 0x01C7       |     14 |              2 |
| [65535.20](#event-6553520) | 0x01D5       |     16 |              2 |
| [65535.21](#event-6553521) | 0x01E5       |     14 |              2 |
| [65535.22](#event-6553522) | 0x01F3       |     16 |              2 |
| [65535.23](#event-6553523) | 0x0203       |     14 |              2 |
| [65535.24](#event-6553524) | 0x0211       |     16 |              2 |
| [65535.25](#event-6553525) | 0x0221       |     14 |              2 |
| [65535.26](#event-6553526) | 0x022F       |     16 |              2 |
| [65535.27](#event-6553527) | 0x023F       |     14 |              2 |
| [65535.28](#event-6553528) | 0x024D       |     16 |              2 |
| [65535.29](#event-6553529) | 0x025D       |     22 |              4 |
| [65535.30](#event-6553530) | 0x0273       |     16 |              2 |
| [65535.31](#event-6553531) | 0x0283       |     14 |              2 |
| [65535.32](#event-6553532) | 0x0291       |     16 |              2 |
| [65535.33](#event-6553533) | 0x02A1       |     14 |              2 |
| [65535.34](#event-6553534) | 0x02AF       |     16 |              2 |
| [65535.35](#event-6553535) | 0x02BF       |     22 |              4 |
| [65535.36](#event-6553536) | 0x02D5       |     16 |              2 |
| [65535.37](#event-6553537) | 0x02E5       |     14 |              2 |
| [65535.38](#event-6553538) | 0x02F3       |     16 |              2 |
| [65535.39](#event-6553539) | 0x0303       |     14 |              2 |
| [65535.40](#event-6553540) | 0x0311       |     16 |              2 |
| [65535.41](#event-6553541) | 0x0321       |     14 |              2 |
| [65535.42](#event-6553542) | 0x032F       |     16 |              2 |
| [65535.43](#event-6553543) | 0x033F       |     14 |              2 |
| [65535.44](#event-6553544) | 0x034D       |     16 |              2 |
| [65535.45](#event-6553545) | 0x035D       |     14 |              2 |
| [65535.46](#event-6553546) | 0x036B       |     16 |              2 |
| [65535.47](#event-6553547) | 0x037B       |     14 |              2 |
| [65535.48](#event-6553548) | 0x0389       |     16 |              2 |
| [65535.49](#event-6553549) | 0x0399       |     14 |              2 |
| [65535.50](#event-6553550) | 0x03A7       |     16 |              2 |
| [65535.51](#event-6553551) | 0x03B7       |     22 |              4 |
| [65535.52](#event-6553552) | 0x03CD       |     44 |              4 |
| [65535.53](#event-6553553) | 0x03F9       |     16 |              2 |
| [65535.54](#event-6553554) | 0x0409       |     14 |              2 |
| [65535.55](#event-6553555) | 0x0417       |     18 |              4 |
| [65535.56](#event-6553556) | 0x0429       |     18 |              4 |
| [65535.57](#event-6553557) | 0x043B       |     18 |              4 |
| [65535.58](#event-6553558) | 0x044D       |     18 |              4 |
| [65535.59](#event-6553559) | 0x045F       |     18 |              4 |
| [65535.60](#event-6553560) | 0x0471       |     27 |              3 |
| [65535.61](#event-6553561) | 0x048C       |      9 |              3 |
| [65535.62](#event-6553562) | 0x0495       |     16 |              2 |
| [65535.63](#event-6553563) | 0x04A5       |     14 |              2 |
| [65535.64](#event-6553564) | 0x04B3       |     16 |              2 |
| [65535.65](#event-6553565) | 0x04C3       |     14 |              2 |
| [65535.66](#event-6553566) | 0x04D1       |     16 |              2 |
| [65535.67](#event-6553567) | 0x04E1       |     14 |              2 |
| [65535.68](#event-6553568) | 0x04EF       |     16 |              2 |
| [65535.69](#event-6553569) | 0x04FF       |     14 |              2 |
| [65535.70](#event-6553570) | 0x050D       |     16 |              2 |
| [65535.71](#event-6553571) | 0x051D       |     14 |              2 |
| [65535.72](#event-6553572) | 0x052B       |     16 |              2 |
| [65535.73](#event-6553573) | 0x053B       |     14 |              2 |
| [65535.74](#event-6553574) | 0x0549       |     16 |              2 |
| [65535.75](#event-6553575) | 0x0559       |     14 |              2 |
| [65535.76](#event-6553576) | 0x0567       |     16 |              2 |
| [65535.77](#event-6553577) | 0x0577       |     14 |              2 |
| [65535.78](#event-6553578) | 0x0585       |     16 |              2 |
| [65535.79](#event-6553579) | 0x0595       |     14 |              2 |

## DAT References (imed_data)

|   Index | Hex Value   |   Dec Value |
|---------|-------------|-------------|
|       0 | 0x000D      |          13 |
|       1 | 0x013D      |         317 |
|       2 | 0xFFFFCF00  |  4294954752 |
|       3 | 0x0000      |           0 |
|       4 | 0x001E      |          30 |
|       5 | 0x00BD      |         189 |
|       6 | 0x00E2      |         226 |
|       7 | 0xFFFF9A61  |  4294941281 |
|       8 | 0x0074      |         116 |
|       9 | 0xFFFFC6D2  |  4294952658 |
|      10 | 0x0028      |          40 |
|      11 | 0x0078      |         120 |
|      12 | 0xFFFFFF7B  |  4294967163 |
|      13 | 0xFFFFA9FB  |  4294945275 |
|      14 | 0x0002      |           2 |
|      15 | 0x0014      |          20 |
|      16 | 0x008F      |         143 |
|      17 | 0x0017      |          23 |
|      18 | 0xFFFD9557  |  4294808919 |
|      19 | 0xFFFF9A2A  |  4294941226 |
|      20 | 0x0A8B      |        2699 |
|      21 | 0x0005      |           5 |
|      22 | 0x0008      |           8 |
|      23 | 0x0015      |          21 |
|      24 | 0x0073      |         115 |
|      25 | 0x0018      |          24 |
|      26 | 0x0004      |           4 |
|      27 | 0x000F      |          15 |
|      28 | 0x0031      |          49 |
|      29 | 0x00AB      |         171 |
|      30 | 0x0063      |          99 |
|      31 | 0x0006      |           6 |
|      32 | 0x006B      |         107 |
|      33 | 0x0029      |          41 |
|      34 | 0x003C      |          60 |
|      35 | 0x002A      |          42 |
|      36 | 0x0001      |           1 |
|      37 | 0x0007      |           7 |
|      38 | 0x002B      |          43 |
|      39 | 0x01AE      |         430 |
|      40 | 0x01AF      |         431 |
|      41 | 0x002E      |          46 |

## Events

### Event 65535

#### Metadata

| Field        | Value   |
|--------------|---------|
| Entrypoint   | 0x0000  |
| Data Size    | 1 bytes |
| Instructions | 1       |

```
      00 01 02 03 04 05 06 07  08 09 0A 0B 0C 0D 0E 0F
      -- -- -- -- -- -- -- --  -- -- -- -- -- -- -- --
0000: 00                                                .               
```

#### Opcodes

```
  0: 0x0000 [0x00] END_REQSTACK()
```

### Event 5019

#### Metadata

| Field        | Value   |
|--------------|---------|
| Entrypoint   | 0x0001  |
| Data Size    | 7 bytes |
| Instructions | 2       |

```
      00 01 02 03 04 05 06 07  08 09 0A 0B 0C 0D 0E 0F
      -- -- -- -- -- -- -- --  -- -- -- -- -- -- -- --
0000:    92 01 F8 FF FF 7F 00                            .......        
```

#### Opcodes

```
  0: 0x0001 [0x92] EventEntity->Render.Flags3 ^= 0x01
  1: 0x0007 [0x00] END_REQSTACK()
```

### Event 65535.1

#### Metadata

| Field        | Value    |
|--------------|----------|
| Entrypoint   | 0x0008   |
| Data Size    | 37 bytes |
| Instructions | 7        |

```
      00 01 02 03 04 05 06 07  08 09 0A 0B 0C 0D 0E 0F
      -- -- -- -- -- -- -- --  -- -- -- -- -- -- -- --
0000:                          32 00 80 1F 00 01 80 02          2.......
0010: 80 03 80 1F 01 1E C1 00  10 01 1C 04 80 66 05 80  .............f..
0020: C0 00 10 01 C0 00 10 01  74 6C 6B 30 00           ........tlk0.   
```

#### Opcodes

```
  0: 0x0008 [0x32] ExtData[1]->MainSpeed = 13* * 0.1
  1: 0x000B [0x1F] MOVE_ENTITY: EventEntity moves to X=0.317*, Z=-12.544*, Y=0.000*
  2: 0x0013 [0x1F] MOVE_ENTITY: Update entity position (mode=1)
  3: 0x0015 [0x1E] EventEntity looks at Alianne (ID: 17825985/0x011000C1) and starts talking
  4: 0x001A [0x1C] WAIT(30* ticks)
  5: 0x001D [0x66] LOAD_EXT_SCHEDULER_MAIN: Load scheduler "tlk0" with entities [Ari-Barali (ID: 17825984/0x011000C0), Ari-Barali (ID: 17825984/0x011000C0)], work=189*
  6: 0x002C [0x00] END_REQSTACK()
```

### Event 65535.2

#### Metadata

| Field        | Value    |
|--------------|----------|
| Entrypoint   | 0x002D   |
| Data Size    | 14 bytes |
| Instructions | 4        |

```
      00 01 02 03 04 05 06 07  08 09 0A 0B 0C 0D 0E 0F
      -- -- -- -- -- -- -- --  -- -- -- -- -- -- -- --
0020:                                         32 00 80               2..
0030: 1F 00 06 80 07 80 03 80  1F 01 00                 ...........     
```

#### Opcodes

```
  0: 0x002D [0x32] ExtData[1]->MainSpeed = 13* * 0.1
  1: 0x0030 [0x1F] MOVE_ENTITY: EventEntity moves to X=0.226*, Z=-26.015*, Y=0.000*
  2: 0x0038 [0x1F] MOVE_ENTITY: Update entity position (mode=1)
  3: 0x003A [0x00] END_REQSTACK()
```

### Event 5072

#### Metadata

| Field        | Value   |
|--------------|---------|
| Entrypoint   | 0x003B  |
| Data Size    | 7 bytes |
| Instructions | 2       |

```
      00 01 02 03 04 05 06 07  08 09 0A 0B 0C 0D 0E 0F
      -- -- -- -- -- -- -- --  -- -- -- -- -- -- -- --
0030:                                   92 01 F8 FF FF             .....
0040: 7F 00                                             ..              
```

#### Opcodes

```
  0: 0x003B [0x92] EventEntity->Render.Flags3 ^= 0x01
  1: 0x0041 [0x00] END_REQSTACK()
```

### Event 65535.3

#### Metadata

| Field        | Value    |
|--------------|----------|
| Entrypoint   | 0x0042   |
| Data Size    | 35 bytes |
| Instructions | 7        |

```
      00 01 02 03 04 05 06 07  08 09 0A 0B 0C 0D 0E 0F
      -- -- -- -- -- -- -- --  -- -- -- -- -- -- -- --
0040:       32 00 80 1F 00 08  80 09 80 03 80 1F 01 1C    2.............
0050: 04 80 66 0A 80 C0 00 10  01 C0 00 10 01 70 61 73  ..f..........pas
0060: 30 1C 0B 80 00                                    0....           
```

#### Opcodes

```
  0: 0x0042 [0x32] ExtData[1]->MainSpeed = 13* * 0.1
  1: 0x0045 [0x1F] MOVE_ENTITY: EventEntity moves to X=0.116*, Z=-14.638*, Y=0.000*
  2: 0x004D [0x1F] MOVE_ENTITY: Update entity position (mode=1)
  3: 0x004F [0x1C] WAIT(30* ticks)
  4: 0x0052 [0x66] LOAD_EXT_SCHEDULER_MAIN: Load scheduler "pas0" with entities [Ari-Barali (ID: 17825984/0x011000C0), Ari-Barali (ID: 17825984/0x011000C0)], work=40*
  5: 0x0061 [0x1C] WAIT(120* ticks)
  6: 0x0064 [0x00] END_REQSTACK()
```

### Event 170

#### Metadata

| Field        | Value   |
|--------------|---------|
| Entrypoint   | 0x0065  |
| Data Size    | 7 bytes |
| Instructions | 2       |

```
      00 01 02 03 04 05 06 07  08 09 0A 0B 0C 0D 0E 0F
      -- -- -- -- -- -- -- --  -- -- -- -- -- -- -- --
0060:                92 01 F8  FF FF 7F 00                   .......    
```

#### Opcodes

```
  0: 0x0065 [0x92] EventEntity->Render.Flags3 ^= 0x01
  1: 0x006B [0x00] END_REQSTACK()
```

### Event 65535.4

#### Metadata

| Field        | Value    |
|--------------|----------|
| Entrypoint   | 0x006C   |
| Data Size    | 14 bytes |
| Instructions | 4        |

```
      00 01 02 03 04 05 06 07  08 09 0A 0B 0C 0D 0E 0F
      -- -- -- -- -- -- -- --  -- -- -- -- -- -- -- --
0060:                                      32 00 80 1F              2...
0070: 00 0C 80 0D 80 03 80 1F  01 00                    ..........      
```

#### Opcodes

```
  0: 0x006C [0x32] ExtData[1]->MainSpeed = 13* * 0.1
  1: 0x006F [0x1F] MOVE_ENTITY: EventEntity moves to X=-0.133*, Z=-22.021*, Y=0.000*
  2: 0x0077 [0x1F] MOVE_ENTITY: Update entity position (mode=1)
  3: 0x0079 [0x00] END_REQSTACK()
```

### Event 181

#### Metadata

| Field        | Value   |
|--------------|---------|
| Entrypoint   | 0x007A  |
| Data Size    | 1 bytes |
| Instructions | 1       |

```
      00 01 02 03 04 05 06 07  08 09 0A 0B 0C 0D 0E 0F
      -- -- -- -- -- -- -- --  -- -- -- -- -- -- -- --
0070:                                00                           .     
```

#### Opcodes

```
  0: 0x007A [0x00] END_REQSTACK()
```

### Event 65535.5

#### Metadata

| Field        | Value    |
|--------------|----------|
| Entrypoint   | 0x007B   |
| Data Size    | 21 bytes |
| Instructions | 2        |

```
      00 01 02 03 04 05 06 07  08 09 0A 0B 0C 0D 0E 0F
      -- -- -- -- -- -- -- --  -- -- -- -- -- -- -- --
0070:                                   B6 0B 0E 80 0E             .....
0080: 80 0F 80 10 80 11 80 10  80 10 80 03 80 03 80 00  ................
```

#### Opcodes

```
  0: 0x007B [0xB6] ENTITY_APPEARANCE_HANDLER(case=Full entity look, race=2*, hair=2*, head=20*, body=143*, hands=23*, legs=143*, feet=143*, main=0*, sub=0*)
  1: 0x008F [0x00] END_REQSTACK()
```

### Event 65535.6

#### Metadata

| Field        | Value    |
|--------------|----------|
| Entrypoint   | 0x0090   |
| Data Size    | 14 bytes |
| Instructions | 4        |

```
      00 01 02 03 04 05 06 07  08 09 0A 0B 0C 0D 0E 0F
      -- -- -- -- -- -- -- --  -- -- -- -- -- -- -- --
0090: 32 00 80 1F 00 12 80 13  80 14 80 1F 01 00        2.............  
```

#### Opcodes

```
  0: 0x0090 [0x32] ExtData[1]->MainSpeed = 13* * 0.1
  1: 0x0093 [0x1F] MOVE_ENTITY: EventEntity moves to X=-158.377*, Z=-26.070*, Y=2.699*
  2: 0x009B [0x1F] MOVE_ENTITY: Update entity position (mode=1)
  3: 0x009D [0x00] END_REQSTACK()
```

### Event 65535.7

#### Metadata

| Field        | Value    |
|--------------|----------|
| Entrypoint   | 0x009E   |
| Data Size    | 21 bytes |
| Instructions | 2        |

```
      00 01 02 03 04 05 06 07  08 09 0A 0B 0C 0D 0E 0F
      -- -- -- -- -- -- -- --  -- -- -- -- -- -- -- --
0090:                                            B6 0B                ..
00A0: 15 80 16 80 03 80 17 80  03 80 18 80 19 80 03 80  ................
00B0: 03 80 00                                          ...             
```

#### Opcodes

```
  0: 0x009E [0xB6] ENTITY_APPEARANCE_HANDLER(case=Full entity look, race=5*, hair=8*, head=0*, body=21*, hands=0*, legs=115*, feet=24*, main=0*, sub=0*)
  1: 0x00B2 [0x00] END_REQSTACK()
```

### Event 190

#### Metadata

| Field        | Value    |
|--------------|----------|
| Entrypoint   | 0x00B3   |
| Data Size    | 21 bytes |
| Instructions | 2        |

```
      00 01 02 03 04 05 06 07  08 09 0A 0B 0C 0D 0E 0F
      -- -- -- -- -- -- -- --  -- -- -- -- -- -- -- --
00B0:          B6 0B 1A 80 1B  80 03 80 1C 80 03 80 1D     .............
00C0: 80 1E 80 03 80 03 80 00                           ........        
```

#### Opcodes

```
  0: 0x00B3 [0xB6] ENTITY_APPEARANCE_HANDLER(case=Full entity look, race=4*, hair=15*, head=0*, body=49*, hands=0*, legs=171*, feet=99*, main=0*, sub=0*)
  1: 0x00C7 [0x00] END_REQSTACK()
```

### Event 65535.8

#### Metadata

| Field        | Value    |
|--------------|----------|
| Entrypoint   | 0x00C8   |
| Data Size    | 45 bytes |
| Instructions | 4        |

```
      00 01 02 03 04 05 06 07  08 09 0A 0B 0C 0D 0E 0F
      -- -- -- -- -- -- -- --  -- -- -- -- -- -- -- --
00C0:                          B4 00 00 00 5A 75 6E 6D          ....Zunm
00D0: 69 6D 69 00 00 00 00 00  00 00 00 00 B5 00 00 00  imi.............
00E0: B6 0B 1F 80 1B 80 03 80  20 80 03 80 17 80 11 80  ........ .......
00F0: 03 80 03 80 00                                    .....           
```

#### Opcodes

```
  0: 0x00C8 [0xB4] UI_WINDOW_STRING_HANDLER(case=0x00 - Copy string from opcode, work_offset=ExtData[1]->WorkLocal[0], string="Zunmimi")
  1: 0x00DC [0xB5] SET_EVENT_ENTITY_NAME: Change EventEntity name to ExtData[1]->WorkLocal[0]
  2: 0x00E0 [0xB6] ENTITY_APPEARANCE_HANDLER(case=Full entity look, race=6*, hair=15*, head=0*, body=107*, hands=0*, legs=21*, feet=23*, main=0*, sub=0*)
  3: 0x00F4 [0x00] END_REQSTACK()
```

### Event 65535.9

#### Metadata

| Field        | Value    |
|--------------|----------|
| Entrypoint   | 0x00F5   |
| Data Size    | 25 bytes |
| Instructions | 3        |

```
      00 01 02 03 04 05 06 07  08 09 0A 0B 0C 0D 0E 0F
      -- -- -- -- -- -- -- --  -- -- -- -- -- -- -- --
00F0:                B4 00 00  00 41 72 69 2D 42 61 72       ....Ari-Bar
0100: 61 6C 69 00 00 00 00 00  00 B5 00 00 00 00        ali...........  
```

#### Opcodes

```
  0: 0x00F5 [0xB4] UI_WINDOW_STRING_HANDLER(case=0x00 - Copy string from opcode, work_offset=ExtData[1]->WorkLocal[0], string="Ari-Barali")
  1: 0x0109 [0xB5] SET_EVENT_ENTITY_NAME: Change EventEntity name to ExtData[1]->WorkLocal[0]
  2: 0x010D [0x00] END_REQSTACK()
```

### Event 172

#### Metadata

| Field        | Value    |
|--------------|----------|
| Entrypoint   | 0x010E   |
| Data Size    | 21 bytes |
| Instructions | 2        |

```
      00 01 02 03 04 05 06 07  08 09 0A 0B 0C 0D 0E 0F
      -- -- -- -- -- -- -- --  -- -- -- -- -- -- -- --
0100:                                            B6 0B                ..
0110: 15 80 16 80 03 80 17 80  03 80 18 80 19 80 03 80  ................
0120: 03 80 00                                          ...             
```

#### Opcodes

```
  0: 0x010E [0xB6] ENTITY_APPEARANCE_HANDLER(case=Full entity look, race=5*, hair=8*, head=0*, body=21*, hands=0*, legs=115*, feet=24*, main=0*, sub=0*)
  1: 0x0122 [0x00] END_REQSTACK()
```

### Event 65535.10

#### Metadata

| Field        | Value    |
|--------------|----------|
| Entrypoint   | 0x0123   |
| Data Size    | 16 bytes |
| Instructions | 2        |

```
      00 01 02 03 04 05 06 07  08 09 0A 0B 0C 0D 0E 0F
      -- -- -- -- -- -- -- --  -- -- -- -- -- -- -- --
0120:          66 0A 80 F8 FF  FF 7F F8 FF FF 7F 74 6C     f..........tl
0130: 6B 30 00                                          k0.             
```

#### Opcodes

```
  0: 0x0123 [0x66] LOAD_EXT_SCHEDULER_MAIN: Load scheduler "tlk0" with entities [EventEntity, EventEntity], work=40*
  1: 0x0132 [0x00] END_REQSTACK()
```

### Event 65535.11

#### Metadata

| Field        | Value    |
|--------------|----------|
| Entrypoint   | 0x0133   |
| Data Size    | 42 bytes |
| Instructions | 4        |

```
      00 01 02 03 04 05 06 07  08 09 0A 0B 0C 0D 0E 0F
      -- -- -- -- -- -- -- --  -- -- -- -- -- -- -- --
0130:          53 F8 FF FF 7F  F8 FF FF 7F 74 6C 6B 30     S........tlk0
0140: 66 0A 80 F8 FF FF 7F F8  FF FF 7F 74 6C 6B 31 53  f..........tlk1S
0150: F8 FF FF 7F F8 FF FF 7F  74 6C 6B 31 00           ........tlk1.   
```

#### Opcodes

```
  0: 0x0133 [0x53] WAIT_SCHEDULER_TASK: Wait for scheduler "tlk0" with entities [EventEntity, EventEntity]
  1: 0x0140 [0x66] LOAD_EXT_SCHEDULER_MAIN: Load scheduler "tlk1" with entities [EventEntity, EventEntity], work=40*
  2: 0x014F [0x53] WAIT_SCHEDULER_TASK: Wait for scheduler "tlk1" with entities [EventEntity, EventEntity]
  3: 0x015C [0x00] END_REQSTACK()
```

### Event 65535.12

#### Metadata

| Field        | Value    |
|--------------|----------|
| Entrypoint   | 0x015D   |
| Data Size    | 16 bytes |
| Instructions | 2        |

```
      00 01 02 03 04 05 06 07  08 09 0A 0B 0C 0D 0E 0F
      -- -- -- -- -- -- -- --  -- -- -- -- -- -- -- --
0150:                                         66 0A 80               f..
0160: F8 FF FF 7F F8 FF FF 7F  74 68 6B 31 00           ........thk1.   
```

#### Opcodes

```
  0: 0x015D [0x66] LOAD_EXT_SCHEDULER_MAIN: Load scheduler "thk1" with entities [EventEntity, EventEntity], work=40*
  1: 0x016C [0x00] END_REQSTACK()
```

### Event 65535.13

#### Metadata

| Field        | Value    |
|--------------|----------|
| Entrypoint   | 0x016D   |
| Data Size    | 14 bytes |
| Instructions | 2        |

```
      00 01 02 03 04 05 06 07  08 09 0A 0B 0C 0D 0E 0F
      -- -- -- -- -- -- -- --  -- -- -- -- -- -- -- --
0160:                                         53 F8 FF               S..
0170: FF 7F F8 FF FF 7F 74 68  6B 31 00                 ......thk1.     
```

#### Opcodes

```
  0: 0x016D [0x53] WAIT_SCHEDULER_TASK: Wait for scheduler "thk1" with entities [EventEntity, EventEntity]
  1: 0x017A [0x00] END_REQSTACK()
```

### Event 65535.14

#### Metadata

| Field        | Value    |
|--------------|----------|
| Entrypoint   | 0x017B   |
| Data Size    | 16 bytes |
| Instructions | 2        |

```
      00 01 02 03 04 05 06 07  08 09 0A 0B 0C 0D 0E 0F
      -- -- -- -- -- -- -- --  -- -- -- -- -- -- -- --
0170:                                   66 0A 80 F8 FF             f....
0180: FF 7F F8 FF FF 7F 74 68  6B 32 00                 ......thk2.     
```

#### Opcodes

```
  0: 0x017B [0x66] LOAD_EXT_SCHEDULER_MAIN: Load scheduler "thk2" with entities [EventEntity, EventEntity], work=40*
  1: 0x018A [0x00] END_REQSTACK()
```

### Event 65535.15

#### Metadata

| Field        | Value    |
|--------------|----------|
| Entrypoint   | 0x018B   |
| Data Size    | 14 bytes |
| Instructions | 2        |

```
      00 01 02 03 04 05 06 07  08 09 0A 0B 0C 0D 0E 0F
      -- -- -- -- -- -- -- --  -- -- -- -- -- -- -- --
0180:                                   53 F8 FF FF 7F             S....
0190: F8 FF FF 7F 74 68 6B 32  00                       ....thk2.       
```

#### Opcodes

```
  0: 0x018B [0x53] WAIT_SCHEDULER_TASK: Wait for scheduler "thk2" with entities [EventEntity, EventEntity]
  1: 0x0198 [0x00] END_REQSTACK()
```

### Event 65535.16

#### Metadata

| Field        | Value    |
|--------------|----------|
| Entrypoint   | 0x0199   |
| Data Size    | 16 bytes |
| Instructions | 2        |

```
      00 01 02 03 04 05 06 07  08 09 0A 0B 0C 0D 0E 0F
      -- -- -- -- -- -- -- --  -- -- -- -- -- -- -- --
0190:                             66 21 80 F8 FF FF 7F           f!.....
01A0: F8 FF FF 7F 73 68 6B 30  00                       ....shk0.       
```

#### Opcodes

```
  0: 0x0199 [0x66] LOAD_EXT_SCHEDULER_MAIN: Load scheduler "shk0" with entities [EventEntity, EventEntity], work=41*
  1: 0x01A8 [0x00] END_REQSTACK()
```

### Event 65535.17

#### Metadata

| Field        | Value    |
|--------------|----------|
| Entrypoint   | 0x01A9   |
| Data Size    | 14 bytes |
| Instructions | 2        |

```
      00 01 02 03 04 05 06 07  08 09 0A 0B 0C 0D 0E 0F
      -- -- -- -- -- -- -- --  -- -- -- -- -- -- -- --
01A0:                             53 F8 FF FF 7F F8 FF           S......
01B0: FF 7F 73 68 6B 30 00                              ..shk0.         
```

#### Opcodes

```
  0: 0x01A9 [0x53] WAIT_SCHEDULER_TASK: Wait for scheduler "shk0" with entities [EventEntity, EventEntity]
  1: 0x01B6 [0x00] END_REQSTACK()
```

### Event 65535.18

#### Metadata

| Field        | Value    |
|--------------|----------|
| Entrypoint   | 0x01B7   |
| Data Size    | 16 bytes |
| Instructions | 2        |

```
      00 01 02 03 04 05 06 07  08 09 0A 0B 0C 0D 0E 0F
      -- -- -- -- -- -- -- --  -- -- -- -- -- -- -- --
01B0:                      66  0A 80 F8 FF FF 7F F8 FF         f........
01C0: FF 7F 64 69 73 30 00                              ..dis0.         
```

#### Opcodes

```
  0: 0x01B7 [0x66] LOAD_EXT_SCHEDULER_MAIN: Load scheduler "dis0" with entities [EventEntity, EventEntity], work=40*
  1: 0x01C6 [0x00] END_REQSTACK()
```

### Event 65535.19

#### Metadata

| Field        | Value    |
|--------------|----------|
| Entrypoint   | 0x01C7   |
| Data Size    | 14 bytes |
| Instructions | 2        |

```
      00 01 02 03 04 05 06 07  08 09 0A 0B 0C 0D 0E 0F
      -- -- -- -- -- -- -- --  -- -- -- -- -- -- -- --
01C0:                      53  F8 FF FF 7F F8 FF FF 7F         S........
01D0: 64 69 73 30 00                                    dis0.           
```

#### Opcodes

```
  0: 0x01C7 [0x53] WAIT_SCHEDULER_TASK: Wait for scheduler "dis0" with entities [EventEntity, EventEntity]
  1: 0x01D4 [0x00] END_REQSTACK()
```

### Event 65535.20

#### Metadata

| Field        | Value    |
|--------------|----------|
| Entrypoint   | 0x01D5   |
| Data Size    | 16 bytes |
| Instructions | 2        |

```
      00 01 02 03 04 05 06 07  08 09 0A 0B 0C 0D 0E 0F
      -- -- -- -- -- -- -- --  -- -- -- -- -- -- -- --
01D0:                66 0A 80  F8 FF FF 7F F8 FF FF 7F       f..........
01E0: 70 6F 69 30 00                                    poi0.           
```

#### Opcodes

```
  0: 0x01D5 [0x66] LOAD_EXT_SCHEDULER_MAIN: Load scheduler "poi0" with entities [EventEntity, EventEntity], work=40*
  1: 0x01E4 [0x00] END_REQSTACK()
```

### Event 65535.21

#### Metadata

| Field        | Value    |
|--------------|----------|
| Entrypoint   | 0x01E5   |
| Data Size    | 14 bytes |
| Instructions | 2        |

```
      00 01 02 03 04 05 06 07  08 09 0A 0B 0C 0D 0E 0F
      -- -- -- -- -- -- -- --  -- -- -- -- -- -- -- --
01E0:                53 F8 FF  FF 7F F8 FF FF 7F 70 6F       S........po
01F0: 69 30 00                                          i0.             
```

#### Opcodes

```
  0: 0x01E5 [0x53] WAIT_SCHEDULER_TASK: Wait for scheduler "poi0" with entities [EventEntity, EventEntity]
  1: 0x01F2 [0x00] END_REQSTACK()
```

### Event 65535.22

#### Metadata

| Field        | Value    |
|--------------|----------|
| Entrypoint   | 0x01F3   |
| Data Size    | 16 bytes |
| Instructions | 2        |

```
      00 01 02 03 04 05 06 07  08 09 0A 0B 0C 0D 0E 0F
      -- -- -- -- -- -- -- --  -- -- -- -- -- -- -- --
01F0:          66 0A 80 F8 FF  FF 7F F8 FF FF 7F 70 61     f..........pa
0200: 73 30 00                                          s0.             
```

#### Opcodes

```
  0: 0x01F3 [0x66] LOAD_EXT_SCHEDULER_MAIN: Load scheduler "pas0" with entities [EventEntity, EventEntity], work=40*
  1: 0x0202 [0x00] END_REQSTACK()
```

### Event 65535.23

#### Metadata

| Field        | Value    |
|--------------|----------|
| Entrypoint   | 0x0203   |
| Data Size    | 14 bytes |
| Instructions | 2        |

```
      00 01 02 03 04 05 06 07  08 09 0A 0B 0C 0D 0E 0F
      -- -- -- -- -- -- -- --  -- -- -- -- -- -- -- --
0200:          53 F8 FF FF 7F  F8 FF FF 7F 70 61 73 30     S........pas0
0210: 00                                                .               
```

#### Opcodes

```
  0: 0x0203 [0x53] WAIT_SCHEDULER_TASK: Wait for scheduler "pas0" with entities [EventEntity, EventEntity]
  1: 0x0210 [0x00] END_REQSTACK()
```

### Event 65535.24

#### Metadata

| Field        | Value    |
|--------------|----------|
| Entrypoint   | 0x0211   |
| Data Size    | 16 bytes |
| Instructions | 2        |

```
      00 01 02 03 04 05 06 07  08 09 0A 0B 0C 0D 0E 0F
      -- -- -- -- -- -- -- --  -- -- -- -- -- -- -- --
0210:    66 0A 80 F8 FF FF 7F  F8 FF FF 7F 73 79 75 30   f..........syu0
0220: 00                                                .               
```

#### Opcodes

```
  0: 0x0211 [0x66] LOAD_EXT_SCHEDULER_MAIN: Load scheduler "syu0" with entities [EventEntity, EventEntity], work=40*
  1: 0x0220 [0x00] END_REQSTACK()
```

### Event 65535.25

#### Metadata

| Field        | Value    |
|--------------|----------|
| Entrypoint   | 0x0221   |
| Data Size    | 14 bytes |
| Instructions | 2        |

```
      00 01 02 03 04 05 06 07  08 09 0A 0B 0C 0D 0E 0F
      -- -- -- -- -- -- -- --  -- -- -- -- -- -- -- --
0220:    53 F8 FF FF 7F F8 FF  FF 7F 73 79 75 30 00      S........syu0. 
```

#### Opcodes

```
  0: 0x0221 [0x53] WAIT_SCHEDULER_TASK: Wait for scheduler "syu0" with entities [EventEntity, EventEntity]
  1: 0x022E [0x00] END_REQSTACK()
```

### Event 65535.26

#### Metadata

| Field        | Value    |
|--------------|----------|
| Entrypoint   | 0x022F   |
| Data Size    | 16 bytes |
| Instructions | 2        |

```
      00 01 02 03 04 05 06 07  08 09 0A 0B 0C 0D 0E 0F
      -- -- -- -- -- -- -- --  -- -- -- -- -- -- -- --
0220:                                               66                 f
0230: 0A 80 F8 FF FF 7F F8 FF  FF 7F 77 61 76 30 00     ..........wav0. 
```

#### Opcodes

```
  0: 0x022F [0x66] LOAD_EXT_SCHEDULER_MAIN: Load scheduler "wav0" with entities [EventEntity, EventEntity], work=40*
  1: 0x023E [0x00] END_REQSTACK()
```

### Event 65535.27

#### Metadata

| Field        | Value    |
|--------------|----------|
| Entrypoint   | 0x023F   |
| Data Size    | 14 bytes |
| Instructions | 2        |

```
      00 01 02 03 04 05 06 07  08 09 0A 0B 0C 0D 0E 0F
      -- -- -- -- -- -- -- --  -- -- -- -- -- -- -- --
0230:                                               53                 S
0240: F8 FF FF 7F F8 FF FF 7F  77 61 76 30 00           ........wav0.   
```

#### Opcodes

```
  0: 0x023F [0x53] WAIT_SCHEDULER_TASK: Wait for scheduler "wav0" with entities [EventEntity, EventEntity]
  1: 0x024C [0x00] END_REQSTACK()
```

### Event 65535.28

#### Metadata

| Field        | Value    |
|--------------|----------|
| Entrypoint   | 0x024D   |
| Data Size    | 16 bytes |
| Instructions | 2        |

```
      00 01 02 03 04 05 06 07  08 09 0A 0B 0C 0D 0E 0F
      -- -- -- -- -- -- -- --  -- -- -- -- -- -- -- --
0240:                                         66 21 80               f!.
0250: F8 FF FF 7F F8 FF FF 7F  65 68 6E 30 00           ........ehn0.   
```

#### Opcodes

```
  0: 0x024D [0x66] LOAD_EXT_SCHEDULER_MAIN: Load scheduler "ehn0" with entities [EventEntity, EventEntity], work=41*
  1: 0x025C [0x00] END_REQSTACK()
```

### Event 65535.29

#### Metadata

| Field        | Value    |
|--------------|----------|
| Entrypoint   | 0x025D   |
| Data Size    | 22 bytes |
| Instructions | 4        |

```
      00 01 02 03 04 05 06 07  08 09 0A 0B 0C 0D 0E 0F
      -- -- -- -- -- -- -- --  -- -- -- -- -- -- -- --
0250:                                         53 F8 FF               S..
0260: FF 7F F8 FF FF 7F 65 68  6E 30 5E 69 64 6C 30 1C  ......ehn0^idl0.
0270: 22 80 00                                          "..             
```

#### Opcodes

```
  0: 0x025D [0x53] WAIT_SCHEDULER_TASK: Wait for scheduler "ehn0" with entities [EventEntity, EventEntity]
  1: 0x026A [0x5E] EventEntity goes idle (kills current action) (animation: "idl0")
  2: 0x026F [0x1C] WAIT(60* ticks)
  3: 0x0272 [0x00] END_REQSTACK()
```

### Event 65535.30

#### Metadata

| Field        | Value    |
|--------------|----------|
| Entrypoint   | 0x0273   |
| Data Size    | 16 bytes |
| Instructions | 2        |

```
      00 01 02 03 04 05 06 07  08 09 0A 0B 0C 0D 0E 0F
      -- -- -- -- -- -- -- --  -- -- -- -- -- -- -- --
0270:          66 21 80 F8 FF  FF 7F F8 FF FF 7F 65 68     f!.........eh
0280: 6E 31 00                                          n1.             
```

#### Opcodes

```
  0: 0x0273 [0x66] LOAD_EXT_SCHEDULER_MAIN: Load scheduler "ehn1" with entities [EventEntity, EventEntity], work=41*
  1: 0x0282 [0x00] END_REQSTACK()
```

### Event 65535.31

#### Metadata

| Field        | Value    |
|--------------|----------|
| Entrypoint   | 0x0283   |
| Data Size    | 14 bytes |
| Instructions | 2        |

```
      00 01 02 03 04 05 06 07  08 09 0A 0B 0C 0D 0E 0F
      -- -- -- -- -- -- -- --  -- -- -- -- -- -- -- --
0280:          53 F8 FF FF 7F  F8 FF FF 7F 65 68 6E 31     S........ehn1
0290: 00                                                .               
```

#### Opcodes

```
  0: 0x0283 [0x53] WAIT_SCHEDULER_TASK: Wait for scheduler "ehn1" with entities [EventEntity, EventEntity]
  1: 0x0290 [0x00] END_REQSTACK()
```

### Event 65535.32

#### Metadata

| Field        | Value    |
|--------------|----------|
| Entrypoint   | 0x0291   |
| Data Size    | 16 bytes |
| Instructions | 2        |

```
      00 01 02 03 04 05 06 07  08 09 0A 0B 0C 0D 0E 0F
      -- -- -- -- -- -- -- --  -- -- -- -- -- -- -- --
0290:    66 23 80 F8 FF FF 7F  F8 FF FF 7F 6D 73 75 30   f#.........msu0
02A0: 00                                                .               
```

#### Opcodes

```
  0: 0x0291 [0x66] LOAD_EXT_SCHEDULER_MAIN: Load scheduler "msu0" with entities [EventEntity, EventEntity], work=42*
  1: 0x02A0 [0x00] END_REQSTACK()
```

### Event 65535.33

#### Metadata

| Field        | Value    |
|--------------|----------|
| Entrypoint   | 0x02A1   |
| Data Size    | 14 bytes |
| Instructions | 2        |

```
      00 01 02 03 04 05 06 07  08 09 0A 0B 0C 0D 0E 0F
      -- -- -- -- -- -- -- --  -- -- -- -- -- -- -- --
02A0:    53 F8 FF FF 7F F8 FF  FF 7F 6D 73 75 30 00      S........msu0. 
```

#### Opcodes

```
  0: 0x02A1 [0x53] WAIT_SCHEDULER_TASK: Wait for scheduler "msu0" with entities [EventEntity, EventEntity]
  1: 0x02AE [0x00] END_REQSTACK()
```

### Event 65535.34

#### Metadata

| Field        | Value    |
|--------------|----------|
| Entrypoint   | 0x02AF   |
| Data Size    | 16 bytes |
| Instructions | 2        |

```
      00 01 02 03 04 05 06 07  08 09 0A 0B 0C 0D 0E 0F
      -- -- -- -- -- -- -- --  -- -- -- -- -- -- -- --
02A0:                                               66                 f
02B0: 23 80 F8 FF FF 7F F8 FF  FF 7F 6D 73 75 31 00     #.........msu1. 
```

#### Opcodes

```
  0: 0x02AF [0x66] LOAD_EXT_SCHEDULER_MAIN: Load scheduler "msu1" with entities [EventEntity, EventEntity], work=42*
  1: 0x02BE [0x00] END_REQSTACK()
```

### Event 65535.35

#### Metadata

| Field        | Value    |
|--------------|----------|
| Entrypoint   | 0x02BF   |
| Data Size    | 22 bytes |
| Instructions | 4        |

```
      00 01 02 03 04 05 06 07  08 09 0A 0B 0C 0D 0E 0F
      -- -- -- -- -- -- -- --  -- -- -- -- -- -- -- --
02B0:                                               53                 S
02C0: F8 FF FF 7F F8 FF FF 7F  6D 73 75 31 5E 69 64 6C  ........msu1^idl
02D0: 30 1C 22 80 00                                    0."..           
```

#### Opcodes

```
  0: 0x02BF [0x53] WAIT_SCHEDULER_TASK: Wait for scheduler "msu1" with entities [EventEntity, EventEntity]
  1: 0x02CC [0x5E] EventEntity goes idle (kills current action) (animation: "idl0")
  2: 0x02D1 [0x1C] WAIT(60* ticks)
  3: 0x02D4 [0x00] END_REQSTACK()
```

### Event 65535.36

#### Metadata

| Field        | Value    |
|--------------|----------|
| Entrypoint   | 0x02D5   |
| Data Size    | 16 bytes |
| Instructions | 2        |

```
      00 01 02 03 04 05 06 07  08 09 0A 0B 0C 0D 0E 0F
      -- -- -- -- -- -- -- --  -- -- -- -- -- -- -- --
02D0:                66 21 80  F8 FF FF 7F F8 FF FF 7F       f!.........
02E0: 67 68 6E 31 00                                    ghn1.           
```

#### Opcodes

```
  0: 0x02D5 [0x66] LOAD_EXT_SCHEDULER_MAIN: Load scheduler "ghn1" with entities [EventEntity, EventEntity], work=41*
  1: 0x02E4 [0x00] END_REQSTACK()
```

### Event 65535.37

#### Metadata

| Field        | Value    |
|--------------|----------|
| Entrypoint   | 0x02E5   |
| Data Size    | 14 bytes |
| Instructions | 2        |

```
      00 01 02 03 04 05 06 07  08 09 0A 0B 0C 0D 0E 0F
      -- -- -- -- -- -- -- --  -- -- -- -- -- -- -- --
02E0:                53 F8 FF  FF 7F F8 FF FF 7F 67 68       S........gh
02F0: 6E 31 00                                          n1.             
```

#### Opcodes

```
  0: 0x02E5 [0x53] WAIT_SCHEDULER_TASK: Wait for scheduler "ghn1" with entities [EventEntity, EventEntity]
  1: 0x02F2 [0x00] END_REQSTACK()
```

### Event 65535.38

#### Metadata

| Field        | Value    |
|--------------|----------|
| Entrypoint   | 0x02F3   |
| Data Size    | 16 bytes |
| Instructions | 2        |

```
      00 01 02 03 04 05 06 07  08 09 0A 0B 0C 0D 0E 0F
      -- -- -- -- -- -- -- --  -- -- -- -- -- -- -- --
02F0:          66 0A 80 F8 FF  FF 7F F8 FF FF 7F 69 72     f..........ir
0300: 6F 30 00                                          o0.             
```

#### Opcodes

```
  0: 0x02F3 [0x66] LOAD_EXT_SCHEDULER_MAIN: Load scheduler "iro0" with entities [EventEntity, EventEntity], work=40*
  1: 0x0302 [0x00] END_REQSTACK()
```

### Event 65535.39

#### Metadata

| Field        | Value    |
|--------------|----------|
| Entrypoint   | 0x0303   |
| Data Size    | 14 bytes |
| Instructions | 2        |

```
      00 01 02 03 04 05 06 07  08 09 0A 0B 0C 0D 0E 0F
      -- -- -- -- -- -- -- --  -- -- -- -- -- -- -- --
0300:          53 F8 FF FF 7F  F8 FF FF 7F 69 72 6F 30     S........iro0
0310: 00                                                .               
```

#### Opcodes

```
  0: 0x0303 [0x53] WAIT_SCHEDULER_TASK: Wait for scheduler "iro0" with entities [EventEntity, EventEntity]
  1: 0x0310 [0x00] END_REQSTACK()
```

### Event 65535.40

#### Metadata

| Field        | Value    |
|--------------|----------|
| Entrypoint   | 0x0311   |
| Data Size    | 16 bytes |
| Instructions | 2        |

```
      00 01 02 03 04 05 06 07  08 09 0A 0B 0C 0D 0E 0F
      -- -- -- -- -- -- -- --  -- -- -- -- -- -- -- --
0310:    66 0A 80 F8 FF FF 7F  F8 FF FF 7F 77 61 69 30   f..........wai0
0320: 00                                                .               
```

#### Opcodes

```
  0: 0x0311 [0x66] LOAD_EXT_SCHEDULER_MAIN: Load scheduler "wai0" with entities [EventEntity, EventEntity], work=40*
  1: 0x0320 [0x00] END_REQSTACK()
```

### Event 65535.41

#### Metadata

| Field        | Value    |
|--------------|----------|
| Entrypoint   | 0x0321   |
| Data Size    | 14 bytes |
| Instructions | 2        |

```
      00 01 02 03 04 05 06 07  08 09 0A 0B 0C 0D 0E 0F
      -- -- -- -- -- -- -- --  -- -- -- -- -- -- -- --
0320:    53 F8 FF FF 7F F8 FF  FF 7F 77 61 69 30 00      S........wai0. 
```

#### Opcodes

```
  0: 0x0321 [0x53] WAIT_SCHEDULER_TASK: Wait for scheduler "wai0" with entities [EventEntity, EventEntity]
  1: 0x032E [0x00] END_REQSTACK()
```

### Event 65535.42

#### Metadata

| Field        | Value    |
|--------------|----------|
| Entrypoint   | 0x032F   |
| Data Size    | 16 bytes |
| Instructions | 2        |

```
      00 01 02 03 04 05 06 07  08 09 0A 0B 0C 0D 0E 0F
      -- -- -- -- -- -- -- --  -- -- -- -- -- -- -- --
0320:                                               66                 f
0330: 23 80 F8 FF FF 7F F8 FF  FF 7F 62 69 6B 30 00     #.........bik0. 
```

#### Opcodes

```
  0: 0x032F [0x66] LOAD_EXT_SCHEDULER_MAIN: Load scheduler "bik0" with entities [EventEntity, EventEntity], work=42*
  1: 0x033E [0x00] END_REQSTACK()
```

### Event 65535.43

#### Metadata

| Field        | Value    |
|--------------|----------|
| Entrypoint   | 0x033F   |
| Data Size    | 14 bytes |
| Instructions | 2        |

```
      00 01 02 03 04 05 06 07  08 09 0A 0B 0C 0D 0E 0F
      -- -- -- -- -- -- -- --  -- -- -- -- -- -- -- --
0330:                                               53                 S
0340: F8 FF FF 7F F8 FF FF 7F  62 69 6B 30 00           ........bik0.   
```

#### Opcodes

```
  0: 0x033F [0x53] WAIT_SCHEDULER_TASK: Wait for scheduler "bik0" with entities [EventEntity, EventEntity]
  1: 0x034C [0x00] END_REQSTACK()
```

### Event 65535.44

#### Metadata

| Field        | Value    |
|--------------|----------|
| Entrypoint   | 0x034D   |
| Data Size    | 16 bytes |
| Instructions | 2        |

```
      00 01 02 03 04 05 06 07  08 09 0A 0B 0C 0D 0E 0F
      -- -- -- -- -- -- -- --  -- -- -- -- -- -- -- --
0340:                                         66 23 80               f#.
0350: F8 FF FF 7F F8 FF FF 7F  62 69 6B 31 00           ........bik1.   
```

#### Opcodes

```
  0: 0x034D [0x66] LOAD_EXT_SCHEDULER_MAIN: Load scheduler "bik1" with entities [EventEntity, EventEntity], work=42*
  1: 0x035C [0x00] END_REQSTACK()
```

### Event 65535.45

#### Metadata

| Field        | Value    |
|--------------|----------|
| Entrypoint   | 0x035D   |
| Data Size    | 14 bytes |
| Instructions | 2        |

```
      00 01 02 03 04 05 06 07  08 09 0A 0B 0C 0D 0E 0F
      -- -- -- -- -- -- -- --  -- -- -- -- -- -- -- --
0350:                                         53 F8 FF               S..
0360: FF 7F F8 FF FF 7F 62 69  6B 31 00                 ......bik1.     
```

#### Opcodes

```
  0: 0x035D [0x53] WAIT_SCHEDULER_TASK: Wait for scheduler "bik1" with entities [EventEntity, EventEntity]
  1: 0x036A [0x00] END_REQSTACK()
```

### Event 65535.46

#### Metadata

| Field        | Value    |
|--------------|----------|
| Entrypoint   | 0x036B   |
| Data Size    | 16 bytes |
| Instructions | 2        |

```
      00 01 02 03 04 05 06 07  08 09 0A 0B 0C 0D 0E 0F
      -- -- -- -- -- -- -- --  -- -- -- -- -- -- -- --
0360:                                   66 0A 80 F8 FF             f....
0370: FF 7F F8 FF FF 7F 67 6B  72 30 00                 ......gkr0.     
```

#### Opcodes

```
  0: 0x036B [0x66] LOAD_EXT_SCHEDULER_MAIN: Load scheduler "gkr0" with entities [EventEntity, EventEntity], work=40*
  1: 0x037A [0x00] END_REQSTACK()
```

### Event 65535.47

#### Metadata

| Field        | Value    |
|--------------|----------|
| Entrypoint   | 0x037B   |
| Data Size    | 14 bytes |
| Instructions | 2        |

```
      00 01 02 03 04 05 06 07  08 09 0A 0B 0C 0D 0E 0F
      -- -- -- -- -- -- -- --  -- -- -- -- -- -- -- --
0370:                                   53 F8 FF FF 7F             S....
0380: F8 FF FF 7F 67 6B 72 30  00                       ....gkr0.       
```

#### Opcodes

```
  0: 0x037B [0x53] WAIT_SCHEDULER_TASK: Wait for scheduler "gkr0" with entities [EventEntity, EventEntity]
  1: 0x0388 [0x00] END_REQSTACK()
```

### Event 65535.48

#### Metadata

| Field        | Value    |
|--------------|----------|
| Entrypoint   | 0x0389   |
| Data Size    | 16 bytes |
| Instructions | 2        |

```
      00 01 02 03 04 05 06 07  08 09 0A 0B 0C 0D 0E 0F
      -- -- -- -- -- -- -- --  -- -- -- -- -- -- -- --
0380:                             66 0A 80 F8 FF FF 7F           f......
0390: F8 FF FF 7F 67 6B 72 31  00                       ....gkr1.       
```

#### Opcodes

```
  0: 0x0389 [0x66] LOAD_EXT_SCHEDULER_MAIN: Load scheduler "gkr1" with entities [EventEntity, EventEntity], work=40*
  1: 0x0398 [0x00] END_REQSTACK()
```

### Event 65535.49

#### Metadata

| Field        | Value    |
|--------------|----------|
| Entrypoint   | 0x0399   |
| Data Size    | 14 bytes |
| Instructions | 2        |

```
      00 01 02 03 04 05 06 07  08 09 0A 0B 0C 0D 0E 0F
      -- -- -- -- -- -- -- --  -- -- -- -- -- -- -- --
0390:                             53 F8 FF FF 7F F8 FF           S......
03A0: FF 7F 67 6B 72 31 00                              ..gkr1.         
```

#### Opcodes

```
  0: 0x0399 [0x53] WAIT_SCHEDULER_TASK: Wait for scheduler "gkr1" with entities [EventEntity, EventEntity]
  1: 0x03A6 [0x00] END_REQSTACK()
```

### Event 65535.50

#### Metadata

| Field        | Value    |
|--------------|----------|
| Entrypoint   | 0x03A7   |
| Data Size    | 16 bytes |
| Instructions | 2        |

```
      00 01 02 03 04 05 06 07  08 09 0A 0B 0C 0D 0E 0F
      -- -- -- -- -- -- -- --  -- -- -- -- -- -- -- --
03A0:                      66  21 80 F8 FF FF 7F F8 FF         f!.......
03B0: FF 7F 6F 68 68 30 00                              ..ohh0.         
```

#### Opcodes

```
  0: 0x03A7 [0x66] LOAD_EXT_SCHEDULER_MAIN: Load scheduler "ohh0" with entities [EventEntity, EventEntity], work=41*
  1: 0x03B6 [0x00] END_REQSTACK()
```

### Event 65535.51

#### Metadata

| Field        | Value    |
|--------------|----------|
| Entrypoint   | 0x03B7   |
| Data Size    | 22 bytes |
| Instructions | 4        |

```
      00 01 02 03 04 05 06 07  08 09 0A 0B 0C 0D 0E 0F
      -- -- -- -- -- -- -- --  -- -- -- -- -- -- -- --
03B0:                      53  F8 FF FF 7F F8 FF FF 7F         S........
03C0: 6F 68 68 30 5E 69 64 6C  30 1C 22 80 00           ohh0^idl0."..   
```

#### Opcodes

```
  0: 0x03B7 [0x53] WAIT_SCHEDULER_TASK: Wait for scheduler "ohh0" with entities [EventEntity, EventEntity]
  1: 0x03C4 [0x5E] EventEntity goes idle (kills current action) (animation: "idl0")
  2: 0x03C9 [0x1C] WAIT(60* ticks)
  3: 0x03CC [0x00] END_REQSTACK()
```

### Event 65535.52

#### Metadata

| Field        | Value    |
|--------------|----------|
| Entrypoint   | 0x03CD   |
| Data Size    | 44 bytes |
| Instructions | 4        |

```
      00 01 02 03 04 05 06 07  08 09 0A 0B 0C 0D 0E 0F
      -- -- -- -- -- -- -- --  -- -- -- -- -- -- -- --
03C0:                                         66 21 80               f!.
03D0: F8 FF FF 7F F8 FF FF 7F  73 68 6B 30 53 F8 FF FF  ........shk0S...
03E0: 7F F8 FF FF 7F 73 68 6B  30 66 0A 80 F8 FF FF 7F  .....shk0f......
03F0: F8 FF FF 7F 7A 69 74 30  00                       ....zit0.       
```

#### Opcodes

```
  0: 0x03CD [0x66] LOAD_EXT_SCHEDULER_MAIN: Load scheduler "shk0" with entities [EventEntity, EventEntity], work=41*
  1: 0x03DC [0x53] WAIT_SCHEDULER_TASK: Wait for scheduler "shk0" with entities [EventEntity, EventEntity]
  2: 0x03E9 [0x66] LOAD_EXT_SCHEDULER_MAIN: Load scheduler "zit0" with entities [EventEntity, EventEntity], work=40*
  3: 0x03F8 [0x00] END_REQSTACK()
```

### Event 65535.53

#### Metadata

| Field        | Value    |
|--------------|----------|
| Entrypoint   | 0x03F9   |
| Data Size    | 16 bytes |
| Instructions | 2        |

```
      00 01 02 03 04 05 06 07  08 09 0A 0B 0C 0D 0E 0F
      -- -- -- -- -- -- -- --  -- -- -- -- -- -- -- --
03F0:                             66 0A 80 F8 FF FF 7F           f......
0400: F8 FF FF 7F 7A 69 74 30  00                       ....zit0.       
```

#### Opcodes

```
  0: 0x03F9 [0x66] LOAD_EXT_SCHEDULER_MAIN: Load scheduler "zit0" with entities [EventEntity, EventEntity], work=40*
  1: 0x0408 [0x00] END_REQSTACK()
```

### Event 65535.54

#### Metadata

| Field        | Value    |
|--------------|----------|
| Entrypoint   | 0x0409   |
| Data Size    | 14 bytes |
| Instructions | 2        |

```
      00 01 02 03 04 05 06 07  08 09 0A 0B 0C 0D 0E 0F
      -- -- -- -- -- -- -- --  -- -- -- -- -- -- -- --
0400:                             53 F8 FF FF 7F F8 FF           S......
0410: FF 7F 7A 69 74 30 00                              ..zit0.         
```

#### Opcodes

```
  0: 0x0409 [0x53] WAIT_SCHEDULER_TASK: Wait for scheduler "zit0" with entities [EventEntity, EventEntity]
  1: 0x0416 [0x00] END_REQSTACK()
```

### Event 65535.55

#### Metadata

| Field        | Value    |
|--------------|----------|
| Entrypoint   | 0x0417   |
| Data Size    | 18 bytes |
| Instructions | 4        |

```
      00 01 02 03 04 05 06 07  08 09 0A 0B 0C 0D 0E 0F
      -- -- -- -- -- -- -- --  -- -- -- -- -- -- -- --
0410:                      6E  F8 FF FF 7F 24 80 99 F8         n....$...
0420: FF FF 7F 99 F8 FF FF 7F  00                       .........       
```

#### Opcodes

```
  0: 0x0417 [0x6E] EventEntity uses emote 1*
  1: 0x041E [0x99] Wait for EventEntity animation to complete
  2: 0x0423 [0x99] Wait for EventEntity animation to complete
  3: 0x0428 [0x00] END_REQSTACK()
```

### Event 65535.56

#### Metadata

| Field        | Value    |
|--------------|----------|
| Entrypoint   | 0x0429   |
| Data Size    | 18 bytes |
| Instructions | 4        |

```
      00 01 02 03 04 05 06 07  08 09 0A 0B 0C 0D 0E 0F
      -- -- -- -- -- -- -- --  -- -- -- -- -- -- -- --
0420:                             6E F8 FF FF 7F 25 80           n....%.
0430: 99 F8 FF FF 7F 99 F8 FF  FF 7F 00                 ...........     
```

#### Opcodes

```
  0: 0x0429 [0x6E] EventEntity uses emote 7*
  1: 0x0430 [0x99] Wait for EventEntity animation to complete
  2: 0x0435 [0x99] Wait for EventEntity animation to complete
  3: 0x043A [0x00] END_REQSTACK()
```

### Event 65535.57

#### Metadata

| Field        | Value    |
|--------------|----------|
| Entrypoint   | 0x043B   |
| Data Size    | 18 bytes |
| Instructions | 4        |

```
      00 01 02 03 04 05 06 07  08 09 0A 0B 0C 0D 0E 0F
      -- -- -- -- -- -- -- --  -- -- -- -- -- -- -- --
0430:                                   6E F8 FF FF 7F             n....
0440: 1F 80 99 F8 FF FF 7F 99  F8 FF FF 7F 00           .............   
```

#### Opcodes

```
  0: 0x043B [0x6E] EventEntity uses emote 6*
  1: 0x0442 [0x99] Wait for EventEntity animation to complete
  2: 0x0447 [0x99] Wait for EventEntity animation to complete
  3: 0x044C [0x00] END_REQSTACK()
```

### Event 65535.58

#### Metadata

| Field        | Value    |
|--------------|----------|
| Entrypoint   | 0x044D   |
| Data Size    | 18 bytes |
| Instructions | 4        |

```
      00 01 02 03 04 05 06 07  08 09 0A 0B 0C 0D 0E 0F
      -- -- -- -- -- -- -- --  -- -- -- -- -- -- -- --
0440:                                         6E F8 FF               n..
0450: FF 7F 16 80 99 F8 FF FF  7F 99 F8 FF FF 7F 00     ............... 
```

#### Opcodes

```
  0: 0x044D [0x6E] EventEntity uses emote 8*
  1: 0x0454 [0x99] Wait for EventEntity animation to complete
  2: 0x0459 [0x99] Wait for EventEntity animation to complete
  3: 0x045E [0x00] END_REQSTACK()
```

### Event 65535.59

#### Metadata

| Field        | Value    |
|--------------|----------|
| Entrypoint   | 0x045F   |
| Data Size    | 18 bytes |
| Instructions | 4        |

```
      00 01 02 03 04 05 06 07  08 09 0A 0B 0C 0D 0E 0F
      -- -- -- -- -- -- -- --  -- -- -- -- -- -- -- --
0450:                                               6E                 n
0460: F8 FF FF 7F 00 80 99 F8  FF FF 7F 99 F8 FF FF 7F  ................
0470: 00                                                .               
```

#### Opcodes

```
  0: 0x045F [0x6E] EventEntity uses emote 13*
  1: 0x0466 [0x99] Wait for EventEntity animation to complete
  2: 0x046B [0x99] Wait for EventEntity animation to complete
  3: 0x0470 [0x00] END_REQSTACK()
```

### Event 65535.60

#### Metadata

| Field        | Value    |
|--------------|----------|
| Entrypoint   | 0x0471   |
| Data Size    | 27 bytes |
| Instructions | 3        |

```
      00 01 02 03 04 05 06 07  08 09 0A 0B 0C 0D 0E 0F
      -- -- -- -- -- -- -- --  -- -- -- -- -- -- -- --
0470:    2C F8 FF FF 7F F8 FF  FF 7F 64 65 61 64 53 F8   ,........deadS.
0480: FF FF 7F F8 FF FF 7F 64  65 61 64 00              .......dead.    
```

#### Opcodes

```
  0: 0x0471 [0x2C] CREATE_SCHEDULER_TASK: Create scheduler "dead" with entities [EventEntity, EventEntity]
  1: 0x047E [0x53] WAIT_SCHEDULER_TASK: Wait for scheduler "dead" with entities [EventEntity, EventEntity]
  2: 0x048B [0x00] END_REQSTACK()
```

### Event 65535.61

#### Metadata

| Field        | Value   |
|--------------|---------|
| Entrypoint   | 0x048C  |
| Data Size    | 9 bytes |
| Instructions | 3       |

```
      00 01 02 03 04 05 06 07  08 09 0A 0B 0C 0D 0E 0F
      -- -- -- -- -- -- -- --  -- -- -- -- -- -- -- --
0480:                                      5E 69 64 6C              ^idl
0490: 30 1C 22 80 00                                    0."..           
```

#### Opcodes

```
  0: 0x048C [0x5E] EventEntity goes idle (kills current action) (animation: "idl0")
  1: 0x0491 [0x1C] WAIT(60* ticks)
  2: 0x0494 [0x00] END_REQSTACK()
```

### Event 65535.62

#### Metadata

| Field        | Value    |
|--------------|----------|
| Entrypoint   | 0x0495   |
| Data Size    | 16 bytes |
| Instructions | 2        |

```
      00 01 02 03 04 05 06 07  08 09 0A 0B 0C 0D 0E 0F
      -- -- -- -- -- -- -- --  -- -- -- -- -- -- -- --
0490:                66 21 80  F8 FF FF 7F F8 FF FF 7F       f!.........
04A0: 63 61 62 6B 00                                    cabk.           
```

#### Opcodes

```
  0: 0x0495 [0x66] LOAD_EXT_SCHEDULER_MAIN: Load scheduler "cabk" with entities [EventEntity, EventEntity], work=41*
  1: 0x04A4 [0x00] END_REQSTACK()
```

### Event 65535.63

#### Metadata

| Field        | Value    |
|--------------|----------|
| Entrypoint   | 0x04A5   |
| Data Size    | 14 bytes |
| Instructions | 2        |

```
      00 01 02 03 04 05 06 07  08 09 0A 0B 0C 0D 0E 0F
      -- -- -- -- -- -- -- --  -- -- -- -- -- -- -- --
04A0:                53 F8 FF  FF 7F F8 FF FF 7F 63 61       S........ca
04B0: 62 6B 00                                          bk.             
```

#### Opcodes

```
  0: 0x04A5 [0x53] WAIT_SCHEDULER_TASK: Wait for scheduler "cabk" with entities [EventEntity, EventEntity]
  1: 0x04B2 [0x00] END_REQSTACK()
```

### Event 65535.64

#### Metadata

| Field        | Value    |
|--------------|----------|
| Entrypoint   | 0x04B3   |
| Data Size    | 16 bytes |
| Instructions | 2        |

```
      00 01 02 03 04 05 06 07  08 09 0A 0B 0C 0D 0E 0F
      -- -- -- -- -- -- -- --  -- -- -- -- -- -- -- --
04B0:          66 26 80 F8 FF  FF 7F F8 FF FF 7F 73 70     f&.........sp
04C0: 65 66 00                                          ef.             
```

#### Opcodes

```
  0: 0x04B3 [0x66] LOAD_EXT_SCHEDULER_MAIN: Load scheduler "spef" with entities [EventEntity, EventEntity], work=43*
  1: 0x04C2 [0x00] END_REQSTACK()
```

### Event 65535.65

#### Metadata

| Field        | Value    |
|--------------|----------|
| Entrypoint   | 0x04C3   |
| Data Size    | 14 bytes |
| Instructions | 2        |

```
      00 01 02 03 04 05 06 07  08 09 0A 0B 0C 0D 0E 0F
      -- -- -- -- -- -- -- --  -- -- -- -- -- -- -- --
04C0:          53 F8 FF FF 7F  F8 FF FF 7F 73 70 65 66     S........spef
04D0: 00                                                .               
```

#### Opcodes

```
  0: 0x04C3 [0x53] WAIT_SCHEDULER_TASK: Wait for scheduler "spef" with entities [EventEntity, EventEntity]
  1: 0x04D0 [0x00] END_REQSTACK()
```

### Event 65535.66

#### Metadata

| Field        | Value    |
|--------------|----------|
| Entrypoint   | 0x04D1   |
| Data Size    | 16 bytes |
| Instructions | 2        |

```
      00 01 02 03 04 05 06 07  08 09 0A 0B 0C 0D 0E 0F
      -- -- -- -- -- -- -- --  -- -- -- -- -- -- -- --
04D0:    5B 27 80 F8 FF FF 7F  F8 FF FF 7F 6F 6B 69 72   ['.........okir
04E0: 00                                                .               
```

#### Opcodes

```
  0: 0x04D1 [0x5B] LOAD_EXT_SCHEDULER: Load scheduler "okir" with entities [EventEntity, EventEntity], work=430*
  1: 0x04E0 [0x00] END_REQSTACK()
```

### Event 65535.67

#### Metadata

| Field        | Value    |
|--------------|----------|
| Entrypoint   | 0x04E1   |
| Data Size    | 14 bytes |
| Instructions | 2        |

```
      00 01 02 03 04 05 06 07  08 09 0A 0B 0C 0D 0E 0F
      -- -- -- -- -- -- -- --  -- -- -- -- -- -- -- --
04E0:    53 F8 FF FF 7F F8 FF  FF 7F 6F 6B 69 72 00      S........okir. 
```

#### Opcodes

```
  0: 0x04E1 [0x53] WAIT_SCHEDULER_TASK: Wait for scheduler "okir" with entities [EventEntity, EventEntity]
  1: 0x04EE [0x00] END_REQSTACK()
```

### Event 65535.68

#### Metadata

| Field        | Value    |
|--------------|----------|
| Entrypoint   | 0x04EF   |
| Data Size    | 16 bytes |
| Instructions | 2        |

```
      00 01 02 03 04 05 06 07  08 09 0A 0B 0C 0D 0E 0F
      -- -- -- -- -- -- -- --  -- -- -- -- -- -- -- --
04E0:                                               5B                 [
04F0: 28 80 F8 FF FF 7F F8 FF  FF 7F 75 73 69 30 00     (.........usi0. 
```

#### Opcodes

```
  0: 0x04EF [0x5B] LOAD_EXT_SCHEDULER: Load scheduler "usi0" with entities [EventEntity, EventEntity], work=431*
  1: 0x04FE [0x00] END_REQSTACK()
```

### Event 65535.69

#### Metadata

| Field        | Value    |
|--------------|----------|
| Entrypoint   | 0x04FF   |
| Data Size    | 14 bytes |
| Instructions | 2        |

```
      00 01 02 03 04 05 06 07  08 09 0A 0B 0C 0D 0E 0F
      -- -- -- -- -- -- -- --  -- -- -- -- -- -- -- --
04F0:                                               53                 S
0500: F8 FF FF 7F F8 FF FF 7F  75 73 69 30 00           ........usi0.   
```

#### Opcodes

```
  0: 0x04FF [0x53] WAIT_SCHEDULER_TASK: Wait for scheduler "usi0" with entities [EventEntity, EventEntity]
  1: 0x050C [0x00] END_REQSTACK()
```

### Event 65535.70

#### Metadata

| Field        | Value    |
|--------------|----------|
| Entrypoint   | 0x050D   |
| Data Size    | 16 bytes |
| Instructions | 2        |

```
      00 01 02 03 04 05 06 07  08 09 0A 0B 0C 0D 0E 0F
      -- -- -- -- -- -- -- --  -- -- -- -- -- -- -- --
0500:                                         5B 28 80               [(.
0510: F8 FF FF 7F F8 FF FF 7F  75 73 69 31 00           ........usi1.   
```

#### Opcodes

```
  0: 0x050D [0x5B] LOAD_EXT_SCHEDULER: Load scheduler "usi1" with entities [EventEntity, EventEntity], work=431*
  1: 0x051C [0x00] END_REQSTACK()
```

### Event 65535.71

#### Metadata

| Field        | Value    |
|--------------|----------|
| Entrypoint   | 0x051D   |
| Data Size    | 14 bytes |
| Instructions | 2        |

```
      00 01 02 03 04 05 06 07  08 09 0A 0B 0C 0D 0E 0F
      -- -- -- -- -- -- -- --  -- -- -- -- -- -- -- --
0510:                                         53 F8 FF               S..
0520: FF 7F F8 FF FF 7F 75 73  69 31 00                 ......usi1.     
```

#### Opcodes

```
  0: 0x051D [0x53] WAIT_SCHEDULER_TASK: Wait for scheduler "usi1" with entities [EventEntity, EventEntity]
  1: 0x052A [0x00] END_REQSTACK()
```

### Event 65535.72

#### Metadata

| Field        | Value    |
|--------------|----------|
| Entrypoint   | 0x052B   |
| Data Size    | 16 bytes |
| Instructions | 2        |

```
      00 01 02 03 04 05 06 07  08 09 0A 0B 0C 0D 0E 0F
      -- -- -- -- -- -- -- --  -- -- -- -- -- -- -- --
0520:                                   66 23 80 F8 FF             f#...
0530: FF 7F F8 FF FF 7F 74 65  68 30 00                 ......teh0.     
```

#### Opcodes

```
  0: 0x052B [0x66] LOAD_EXT_SCHEDULER_MAIN: Load scheduler "teh0" with entities [EventEntity, EventEntity], work=42*
  1: 0x053A [0x00] END_REQSTACK()
```

### Event 65535.73

#### Metadata

| Field        | Value    |
|--------------|----------|
| Entrypoint   | 0x053B   |
| Data Size    | 14 bytes |
| Instructions | 2        |

```
      00 01 02 03 04 05 06 07  08 09 0A 0B 0C 0D 0E 0F
      -- -- -- -- -- -- -- --  -- -- -- -- -- -- -- --
0530:                                   53 F8 FF FF 7F             S....
0540: F8 FF FF 7F 74 65 68 30  00                       ....teh0.       
```

#### Opcodes

```
  0: 0x053B [0x53] WAIT_SCHEDULER_TASK: Wait for scheduler "teh0" with entities [EventEntity, EventEntity]
  1: 0x0548 [0x00] END_REQSTACK()
```

### Event 65535.74

#### Metadata

| Field        | Value    |
|--------------|----------|
| Entrypoint   | 0x0549   |
| Data Size    | 16 bytes |
| Instructions | 2        |

```
      00 01 02 03 04 05 06 07  08 09 0A 0B 0C 0D 0E 0F
      -- -- -- -- -- -- -- --  -- -- -- -- -- -- -- --
0540:                             66 23 80 F8 FF FF 7F           f#.....
0550: F8 FF FF 7F 74 65 68 31  00                       ....teh1.       
```

#### Opcodes

```
  0: 0x0549 [0x66] LOAD_EXT_SCHEDULER_MAIN: Load scheduler "teh1" with entities [EventEntity, EventEntity], work=42*
  1: 0x0558 [0x00] END_REQSTACK()
```

### Event 65535.75

#### Metadata

| Field        | Value    |
|--------------|----------|
| Entrypoint   | 0x0559   |
| Data Size    | 14 bytes |
| Instructions | 2        |

```
      00 01 02 03 04 05 06 07  08 09 0A 0B 0C 0D 0E 0F
      -- -- -- -- -- -- -- --  -- -- -- -- -- -- -- --
0550:                             53 F8 FF FF 7F F8 FF           S......
0560: FF 7F 74 65 68 31 00                              ..teh1.         
```

#### Opcodes

```
  0: 0x0559 [0x53] WAIT_SCHEDULER_TASK: Wait for scheduler "teh1" with entities [EventEntity, EventEntity]
  1: 0x0566 [0x00] END_REQSTACK()
```

### Event 65535.76

#### Metadata

| Field        | Value    |
|--------------|----------|
| Entrypoint   | 0x0567   |
| Data Size    | 16 bytes |
| Instructions | 2        |

```
      00 01 02 03 04 05 06 07  08 09 0A 0B 0C 0D 0E 0F
      -- -- -- -- -- -- -- --  -- -- -- -- -- -- -- --
0560:                      66  29 80 F8 FF FF 7F F8 FF         f).......
0570: FF 7F 6D 64 71 30 00                              ..mdq0.         
```

#### Opcodes

```
  0: 0x0567 [0x66] LOAD_EXT_SCHEDULER_MAIN: Load scheduler "mdq0" with entities [EventEntity, EventEntity], work=46*
  1: 0x0576 [0x00] END_REQSTACK()
```

### Event 65535.77

#### Metadata

| Field        | Value    |
|--------------|----------|
| Entrypoint   | 0x0577   |
| Data Size    | 14 bytes |
| Instructions | 2        |

```
      00 01 02 03 04 05 06 07  08 09 0A 0B 0C 0D 0E 0F
      -- -- -- -- -- -- -- --  -- -- -- -- -- -- -- --
0570:                      53  F8 FF FF 7F F8 FF FF 7F         S........
0580: 6D 64 71 30 00                                    mdq0.           
```

#### Opcodes

```
  0: 0x0577 [0x53] WAIT_SCHEDULER_TASK: Wait for scheduler "mdq0" with entities [EventEntity, EventEntity]
  1: 0x0584 [0x00] END_REQSTACK()
```

### Event 65535.78

#### Metadata

| Field        | Value    |
|--------------|----------|
| Entrypoint   | 0x0585   |
| Data Size    | 16 bytes |
| Instructions | 2        |

```
      00 01 02 03 04 05 06 07  08 09 0A 0B 0C 0D 0E 0F
      -- -- -- -- -- -- -- --  -- -- -- -- -- -- -- --
0580:                66 29 80  F8 FF FF 7F F8 FF FF 7F       f).........
0590: 6D 64 71 33 00                                    mdq3.           
```

#### Opcodes

```
  0: 0x0585 [0x66] LOAD_EXT_SCHEDULER_MAIN: Load scheduler "mdq3" with entities [EventEntity, EventEntity], work=46*
  1: 0x0594 [0x00] END_REQSTACK()
```

### Event 65535.79

#### Metadata

| Field        | Value    |
|--------------|----------|
| Entrypoint   | 0x0595   |
| Data Size    | 14 bytes |
| Instructions | 2        |

```
      00 01 02 03 04 05 06 07  08 09 0A 0B 0C 0D 0E 0F
      -- -- -- -- -- -- -- --  -- -- -- -- -- -- -- --
0590:                53 F8 FF  FF 7F F8 FF FF 7F 6D 64       S........md
05A0: 71 33 00                                          q3.             
```

#### Opcodes

```
  0: 0x0595 [0x53] WAIT_SCHEDULER_TASK: Wait for scheduler "mdq3" with entities [EventEntity, EventEntity]
  1: 0x05A2 [0x00] END_REQSTACK()
```
