# 17826084 - Kongramm

## Common Data

| Field            | Value                     |
|------------------|---------------------------|
| Zone             | Western Adoulin (ID: 256) |
| Block Size       | 476 bytes                 |
| Total Events     | 13                        |
| References Count | 20                        |

## List of Events

| Event ID              | Entrypoint   |   Size |   Instructions |
|-----------------------|--------------|--------|----------------|
| [65535](#event-65535) | 0x0000       |      1 |              1 |
| [558](#event-558)     | 0x0001       |     62 |             15 |
| [2555](#event-2555)   | 0x003F       |     65 |             21 |
| [2592](#event-2592)   | 0x0080       |     57 |             17 |
| [48](#event-48)       | 0x00B9       |      1 |              1 |
| [51](#event-51)       | 0x00BA       |      1 |              1 |
| [54](#event-54)       | 0x00BB       |      1 |              1 |
| [56](#event-56)       | 0x00BC       |      1 |              1 |
| [62](#event-62)       | 0x00BD       |      1 |              1 |
| [65](#event-65)       | 0x00BE       |      1 |              1 |
| [148](#event-148)     | 0x00BF       |     85 |             17 |
| [149](#event-149)     | 0x0114       |     43 |              9 |
| [5224](#event-5224)   | 0x013F       |      7 |              2 |

## DAT References (imed_data)

|   Index | Hex Value   |   Dec Value |
|---------|-------------|-------------|
|       0 | 0x003C      |          60 |
|       1 | 0x0000      |           0 |
|       2 | 0x1F49      |        8009 |
|       3 | 0x2675      |        9845 |
|       4 | 0x2676      |        9846 |
|       5 | 0x1F1C      |        7964 |
|       6 | 0x1F1D      |        7965 |
|       7 | 0x1F1E      |        7966 |
|       8 | 0x1F1F      |        7967 |
|       9 | 0x1F20      |        7968 |
|      10 | 0x1F21      |        7969 |
|      11 | 0x1F40      |        8000 |
|      12 | 0x1F41      |        8001 |
|      13 | 0x1F42      |        8002 |
|      14 | 0x1F43      |        8003 |
|      15 | 0x222C      |        8748 |
|      16 | 0x222D      |        8749 |
|      17 | 0x222E      |        8750 |
|      18 | 0x222F      |        8751 |
|      19 | 0x2230      |        8752 |

## String References

- **7964**: Anything remotely important to life in Adoulin or pioneering winds up in this warehouse. Why do you want to know?
- **7965**: Ah, so you're filling in for the regular patrolman. No wonder he hadn't come by yet.
- **7966**: Anyway, no problems on the Adoulin Waterfront.
- **7967**: Stop dawdling and go help some people who need it. All I require is more time to carry all these provisions.
- **7968**: Oh, and don't ever come here at night! I don't care how beautiful you think the scenery is.
- **7969**: Especially not with your [girlfriend/boyfriend]! If you don't want to sleep with the fishes, you'll take that to heart.
- **8000**: What!? The wrong destination!? ...<Sigh> I hate when this happens.
- **8001**: Gimme that...uh-huh... Looks like this was originally bound for C-6 in the Rala Waterways.
- **8002**: Take the road up that hill over there and you'll find another street that leads to them. Take a right once you're inside and you'll come to a sluice gate.
- **8003**: Put it down near there. It's an important package, too, so I'll curse you to your grave if someone sees you down there. What? I don't care what that Elvaan said. I don't have the time to deal with lost packages.
- **8009**: Good work. Everything's in order. Now shove it.
- **8748**: Huh? You want "a piece of stone wall touched by the light of dawn"?
- **8749**: Something about an exorcist ritual, you say? Well, I'm pretty sure you've come to the right place.
- **8750**: But there are lots of stones. Which would be touched by light?
- **8751**: I know where you could look! There's a grand lighthouse over to the east. Back in the day, people called it the "Sunrise Beacon."
- **8752**: The place you're looking for is the Sunrise Beacon, on the east side of the waterfront.
- **9845**: Every provision that benefits Adoulin or the pioneering effort passes through this warehouse at some point.
- **9846**: Too bad these ships wait for no Galka. I go home every night with blisters on my hands. Sometimes even trails of dried tears on my cheeks.

## Events

### Event 65535

#### Metadata

| Field        | Value   |
|--------------|---------|
| Entrypoint   | 0x0000  |
| Data Size    | 1 bytes |
| Instructions | 1       |

```
      00 01 02 03 04 05 06 07  08 09 0A 0B 0C 0D 0E 0F
      -- -- -- -- -- -- -- --  -- -- -- -- -- -- -- --
0000: 00                                                .               
```

#### Opcodes

```
  0: 0x0000 [0x00] END_REQSTACK()
```

### Event 558

#### Metadata

| Field        | Value    |
|--------------|----------|
| Entrypoint   | 0x0001   |
| Data Size    | 62 bytes |
| Instructions | 15       |

```
      00 01 02 03 04 05 06 07  08 09 0A 0B 0C 0D 0E 0F
      -- -- -- -- -- -- -- --  -- -- -- -- -- -- -- --
0000:    1E F0 FF FF 7F 6F 70  66 00 80 F8 FF FF 7F F8   .....opf.......
0010: FF FF 7F 74 61 6C 6B 02  02 10 01 80 01 26 00 1D  ...talk......&..
0020: 02 80 23 01 2E 00 1D 03  80 23 1D 04 80 23 66 00  ..#......#...#f.
0030: 80 F8 FF FF 7F F8 FF FF  7F 74 6C 6B 31 21 00     .........tlk1!. 
```

#### Opcodes

```
  0: 0x0001 [0x1E] EventEntity looks at LocalPlayer and starts talking
  1: 0x0006 [0x6F] WAIT_FRAME_DELAY: Yield until WaitTime reaches zero
  2: 0x0007 [0x70] WAIT_ENTITY_RENDER_FLAG: Wait while EventEntity->Render.Flags3 bit 2 is set (cancel turn if not)
  3: 0x0008 [0x66] LOAD_EXT_SCHEDULER_MAIN: Load scheduler "talk" with entities [EventEntity, EventEntity], work=60*
  4: 0x0017 [0x02] IF !(Work_Zone[2] == 0*) GOTO 0x0026
  5: 0x001F [0x1D] PRINT_EVENT_MESSAGE(message_id=8009*)
    → "Good work. Everything's in order. Now shove it."
  6: 0x0022 [0x23] WAIT_FOR_DIALOG_INTERACTION
  7: 0x0023 [0x01] GOTO 0x002E
  8: 0x0026 [0x1D] PRINT_EVENT_MESSAGE(message_id=9845*)
    → "Every provision that benefits Adoulin or the pioneering effort passes through this warehouse at some point."
  9: 0x0029 [0x23] WAIT_FOR_DIALOG_INTERACTION
 10: 0x002A [0x1D] PRINT_EVENT_MESSAGE(message_id=9846*)
    → "Too bad these ships wait for no Galka. I go home every night with blisters on my hands. Sometimes even trails of dried tears on my cheeks."
 11: 0x002D [0x23] WAIT_FOR_DIALOG_INTERACTION

SUBROUTINE_002E:
 12: 0x002E [0x66] LOAD_EXT_SCHEDULER_MAIN: Load scheduler "tlk1" with entities [EventEntity, EventEntity], work=60*
 13: 0x003D [0x21] END_EVENT
 14: 0x003E [0x00] END_REQSTACK()
```

### Event 2555

#### Metadata

| Field        | Value    |
|--------------|----------|
| Entrypoint   | 0x003F   |
| Data Size    | 65 bytes |
| Instructions | 21       |

```
      00 01 02 03 04 05 06 07  08 09 0A 0B 0C 0D 0E 0F
      -- -- -- -- -- -- -- --  -- -- -- -- -- -- -- --
0030:                                               1E                 .
0040: F0 FF FF 7F 42 6F 70 66  00 80 F8 FF FF 7F F8 FF  ....Bopf........
0050: FF 7F 74 61 6C 6B 1D 05  80 23 1D 06 80 23 1D 07  ..talk...#...#..
0060: 80 23 1D 08 80 23 1D 09  80 23 1D 0A 80 23 66 00  .#...#...#...#f.
0070: 80 F8 FF FF 7F F8 FF FF  7F 74 6C 6B 31 2E 21 00  .........tlk1.!.
```

#### Opcodes

```
  0: 0x003F [0x1E] EventEntity looks at LocalPlayer and starts talking
  1: 0x0044 [0x42] SET_CLI_EVENT_CANCEL_DATA()
  2: 0x0045 [0x6F] WAIT_FRAME_DELAY: Yield until WaitTime reaches zero
  3: 0x0046 [0x70] WAIT_ENTITY_RENDER_FLAG: Wait while EventEntity->Render.Flags3 bit 2 is set (cancel turn if not)
  4: 0x0047 [0x66] LOAD_EXT_SCHEDULER_MAIN: Load scheduler "talk" with entities [EventEntity, EventEntity], work=60*
  5: 0x0056 [0x1D] PRINT_EVENT_MESSAGE(message_id=7964*)
    → "Anything remotely important to life in Adoulin or pioneering winds up in this warehouse. Why do you want to know?"
  6: 0x0059 [0x23] WAIT_FOR_DIALOG_INTERACTION
  7: 0x005A [0x1D] PRINT_EVENT_MESSAGE(message_id=7965*)
    → "Ah, so you're filling in for the regular patrolman. No wonder he hadn't come by yet."
  8: 0x005D [0x23] WAIT_FOR_DIALOG_INTERACTION
  9: 0x005E [0x1D] PRINT_EVENT_MESSAGE(message_id=7966*)
    → "Anyway, no problems on the Adoulin Waterfront."
 10: 0x0061 [0x23] WAIT_FOR_DIALOG_INTERACTION
 11: 0x0062 [0x1D] PRINT_EVENT_MESSAGE(message_id=7967*)
    → "Stop dawdling and go help some people who need it. All I require is more time to carry all these provisions."
 12: 0x0065 [0x23] WAIT_FOR_DIALOG_INTERACTION
 13: 0x0066 [0x1D] PRINT_EVENT_MESSAGE(message_id=7968*)
    → "Oh, and don't ever come here at night! I don't care how beautiful you think the scenery is."
 14: 0x0069 [0x23] WAIT_FOR_DIALOG_INTERACTION
 15: 0x006A [0x1D] PRINT_EVENT_MESSAGE(message_id=7969*)
    → "Especially not with your [girlfriend/boyfriend]! If you don't want to sleep with the fishes, you'll take that to heart."
 16: 0x006D [0x23] WAIT_FOR_DIALOG_INTERACTION
 17: 0x006E [0x66] LOAD_EXT_SCHEDULER_MAIN: Load scheduler "tlk1" with entities [EventEntity, EventEntity], work=60*
 18: 0x007D [0x2E] SET_CLI_EVENT_CANCEL_FLAGS()
 19: 0x007E [0x21] END_EVENT
 20: 0x007F [0x00] END_REQSTACK()
```

### Event 2592

#### Metadata

| Field        | Value    |
|--------------|----------|
| Entrypoint   | 0x0080   |
| Data Size    | 57 bytes |
| Instructions | 17       |

```
      00 01 02 03 04 05 06 07  08 09 0A 0B 0C 0D 0E 0F
      -- -- -- -- -- -- -- --  -- -- -- -- -- -- -- --
0080: 1E F0 FF FF 7F 42 6F 70  66 00 80 F8 FF FF 7F F8  .....Bopf.......
0090: FF FF 7F 74 61 6C 6B 1D  0B 80 23 1D 0C 80 23 1D  ...talk...#...#.
00A0: 0D 80 23 1D 0E 80 23 66  00 80 F8 FF FF 7F F8 FF  ..#...#f........
00B0: FF 7F 74 6C 6B 31 2E 21  00                       ..tlk1.!.       
```

#### Opcodes

```
  0: 0x0080 [0x1E] EventEntity looks at LocalPlayer and starts talking
  1: 0x0085 [0x42] SET_CLI_EVENT_CANCEL_DATA()
  2: 0x0086 [0x6F] WAIT_FRAME_DELAY: Yield until WaitTime reaches zero
  3: 0x0087 [0x70] WAIT_ENTITY_RENDER_FLAG: Wait while EventEntity->Render.Flags3 bit 2 is set (cancel turn if not)
  4: 0x0088 [0x66] LOAD_EXT_SCHEDULER_MAIN: Load scheduler "talk" with entities [EventEntity, EventEntity], work=60*
  5: 0x0097 [0x1D] PRINT_EVENT_MESSAGE(message_id=8000*)
    → "What!? The wrong destination!? ...<Sigh> I hate when this happens."
  6: 0x009A [0x23] WAIT_FOR_DIALOG_INTERACTION
  7: 0x009B [0x1D] PRINT_EVENT_MESSAGE(message_id=8001*)
    → "Gimme that...uh-huh... Looks like this was originally bound for C-6 in the Rala Waterways."
  8: 0x009E [0x23] WAIT_FOR_DIALOG_INTERACTION
  9: 0x009F [0x1D] PRINT_EVENT_MESSAGE(message_id=8002*)
    → "Take the road up that hill over there and you'll find another street that leads to them. Take a right once you're inside and you'll come to a sluice gate."
 10: 0x00A2 [0x23] WAIT_FOR_DIALOG_INTERACTION
 11: 0x00A3 [0x1D] PRINT_EVENT_MESSAGE(message_id=8003*)
    → "Put it down near there. It's an important package, too, so I'll curse you to your grave if someone sees you down there. What? I don't care what that Elvaan said. I don't have the time to deal with lost packages."
 12: 0x00A6 [0x23] WAIT_FOR_DIALOG_INTERACTION
 13: 0x00A7 [0x66] LOAD_EXT_SCHEDULER_MAIN: Load scheduler "tlk1" with entities [EventEntity, EventEntity], work=60*
 14: 0x00B6 [0x2E] SET_CLI_EVENT_CANCEL_FLAGS()
 15: 0x00B7 [0x21] END_EVENT
 16: 0x00B8 [0x00] END_REQSTACK()
```

### Event 48

#### Metadata

| Field        | Value   |
|--------------|---------|
| Entrypoint   | 0x00B9  |
| Data Size    | 1 bytes |
| Instructions | 1       |

```
      00 01 02 03 04 05 06 07  08 09 0A 0B 0C 0D 0E 0F
      -- -- -- -- -- -- -- --  -- -- -- -- -- -- -- --
00B0:                             00                             .      
```

#### Opcodes

```
  0: 0x00B9 [0x00] END_REQSTACK()
```

### Event 51

#### Metadata

| Field        | Value   |
|--------------|---------|
| Entrypoint   | 0x00BA  |
| Data Size    | 1 bytes |
| Instructions | 1       |

```
      00 01 02 03 04 05 06 07  08 09 0A 0B 0C 0D 0E 0F
      -- -- -- -- -- -- -- --  -- -- -- -- -- -- -- --
00B0:                                00                           .     
```

#### Opcodes

```
  0: 0x00BA [0x00] END_REQSTACK()
```

### Event 54

#### Metadata

| Field        | Value   |
|--------------|---------|
| Entrypoint   | 0x00BB  |
| Data Size    | 1 bytes |
| Instructions | 1       |

```
      00 01 02 03 04 05 06 07  08 09 0A 0B 0C 0D 0E 0F
      -- -- -- -- -- -- -- --  -- -- -- -- -- -- -- --
00B0:                                   00                         .    
```

#### Opcodes

```
  0: 0x00BB [0x00] END_REQSTACK()
```

### Event 56

#### Metadata

| Field        | Value   |
|--------------|---------|
| Entrypoint   | 0x00BC  |
| Data Size    | 1 bytes |
| Instructions | 1       |

```
      00 01 02 03 04 05 06 07  08 09 0A 0B 0C 0D 0E 0F
      -- -- -- -- -- -- -- --  -- -- -- -- -- -- -- --
00B0:                                      00                       .   
```

#### Opcodes

```
  0: 0x00BC [0x00] END_REQSTACK()
```

### Event 62

#### Metadata

| Field        | Value   |
|--------------|---------|
| Entrypoint   | 0x00BD  |
| Data Size    | 1 bytes |
| Instructions | 1       |

```
      00 01 02 03 04 05 06 07  08 09 0A 0B 0C 0D 0E 0F
      -- -- -- -- -- -- -- --  -- -- -- -- -- -- -- --
00B0:                                         00                     .  
```

#### Opcodes

```
  0: 0x00BD [0x00] END_REQSTACK()
```

### Event 65

#### Metadata

| Field        | Value   |
|--------------|---------|
| Entrypoint   | 0x00BE  |
| Data Size    | 1 bytes |
| Instructions | 1       |

```
      00 01 02 03 04 05 06 07  08 09 0A 0B 0C 0D 0E 0F
      -- -- -- -- -- -- -- --  -- -- -- -- -- -- -- --
00B0:                                            00                   . 
```

#### Opcodes

```
  0: 0x00BE [0x00] END_REQSTACK()
```

### Event 148

#### Metadata

| Field        | Value    |
|--------------|----------|
| Entrypoint   | 0x00BF   |
| Data Size    | 85 bytes |
| Instructions | 17       |

```
      00 01 02 03 04 05 06 07  08 09 0A 0B 0C 0D 0E 0F
      -- -- -- -- -- -- -- --  -- -- -- -- -- -- -- --
00B0:                                               1E                 .
00C0: F0 FF FF 7F 6F 70 66 00  80 F8 FF FF 7F F8 FF FF  ....opf.........
00D0: 7F 74 61 6C 6B 1D 0F 80  23 1D 10 80 23 66 00 80  .talk...#...#f..
00E0: F8 FF FF 7F F8 FF FF 7F  74 6C 6B 31 66 00 80 F8  ........tlk1f...
00F0: FF FF 7F F8 FF FF 7F 74  68 6B 31 1D 11 80 23 1D  .......thk1...#.
0100: 12 80 23 66 00 80 F8 FF  FF 7F F8 FF FF 7F 74 68  ..#f..........th
0110: 6B 32 21 00                                       k2!.            
```

#### Opcodes

```
  0: 0x00BF [0x1E] EventEntity looks at LocalPlayer and starts talking
  1: 0x00C4 [0x6F] WAIT_FRAME_DELAY: Yield until WaitTime reaches zero
  2: 0x00C5 [0x70] WAIT_ENTITY_RENDER_FLAG: Wait while EventEntity->Render.Flags3 bit 2 is set (cancel turn if not)
  3: 0x00C6 [0x66] LOAD_EXT_SCHEDULER_MAIN: Load scheduler "talk" with entities [EventEntity, EventEntity], work=60*
  4: 0x00D5 [0x1D] PRINT_EVENT_MESSAGE(message_id=8748*)
    → "Huh? You want "a piece of stone wall touched by the light of dawn"?"
  5: 0x00D8 [0x23] WAIT_FOR_DIALOG_INTERACTION
  6: 0x00D9 [0x1D] PRINT_EVENT_MESSAGE(message_id=8749*)
    → "Something about an exorcist ritual, you say? Well, I'm pretty sure you've come to the right place."
  7: 0x00DC [0x23] WAIT_FOR_DIALOG_INTERACTION
  8: 0x00DD [0x66] LOAD_EXT_SCHEDULER_MAIN: Load scheduler "tlk1" with entities [EventEntity, EventEntity], work=60*
  9: 0x00EC [0x66] LOAD_EXT_SCHEDULER_MAIN: Load scheduler "thk1" with entities [EventEntity, EventEntity], work=60*
 10: 0x00FB [0x1D] PRINT_EVENT_MESSAGE(message_id=8750*)
    → "But there are lots of stones. Which would be touched by light?"
 11: 0x00FE [0x23] WAIT_FOR_DIALOG_INTERACTION
 12: 0x00FF [0x1D] PRINT_EVENT_MESSAGE(message_id=8751*)
    → "I know where you could look! There's a grand lighthouse over to the east. Back in the day, people called it the "Sunrise Beacon.""
 13: 0x0102 [0x23] WAIT_FOR_DIALOG_INTERACTION
 14: 0x0103 [0x66] LOAD_EXT_SCHEDULER_MAIN: Load scheduler "thk2" with entities [EventEntity, EventEntity], work=60*
 15: 0x0112 [0x21] END_EVENT
 16: 0x0113 [0x00] END_REQSTACK()
```

### Event 149

#### Metadata

| Field        | Value    |
|--------------|----------|
| Entrypoint   | 0x0114   |
| Data Size    | 43 bytes |
| Instructions | 9        |

```
      00 01 02 03 04 05 06 07  08 09 0A 0B 0C 0D 0E 0F
      -- -- -- -- -- -- -- --  -- -- -- -- -- -- -- --
0110:             1E F0 FF FF  7F 6F 70 66 00 80 F8 FF      .....opf....
0120: FF 7F F8 FF FF 7F 74 61  6C 6B 1D 13 80 23 66 00  ......talk...#f.
0130: 80 F8 FF FF 7F F8 FF FF  7F 74 6C 6B 31 21 00     .........tlk1!. 
```

#### Opcodes

```
  0: 0x0114 [0x1E] EventEntity looks at LocalPlayer and starts talking
  1: 0x0119 [0x6F] WAIT_FRAME_DELAY: Yield until WaitTime reaches zero
  2: 0x011A [0x70] WAIT_ENTITY_RENDER_FLAG: Wait while EventEntity->Render.Flags3 bit 2 is set (cancel turn if not)
  3: 0x011B [0x66] LOAD_EXT_SCHEDULER_MAIN: Load scheduler "talk" with entities [EventEntity, EventEntity], work=60*
  4: 0x012A [0x1D] PRINT_EVENT_MESSAGE(message_id=8752*)
    → "The place you're looking for is the Sunrise Beacon, on the east side of the waterfront."
  5: 0x012D [0x23] WAIT_FOR_DIALOG_INTERACTION
  6: 0x012E [0x66] LOAD_EXT_SCHEDULER_MAIN: Load scheduler "tlk1" with entities [EventEntity, EventEntity], work=60*
  7: 0x013D [0x21] END_EVENT
  8: 0x013E [0x00] END_REQSTACK()
```

### Event 5224

#### Metadata

| Field        | Value   |
|--------------|---------|
| Entrypoint   | 0x013F  |
| Data Size    | 7 bytes |
| Instructions | 2       |

```
      00 01 02 03 04 05 06 07  08 09 0A 0B 0C 0D 0E 0F
      -- -- -- -- -- -- -- --  -- -- -- -- -- -- -- --
0130:                                               92                 .
0140: 01 F8 FF FF 7F 00                                 ......          
```

#### Opcodes

```
  0: 0x013F [0x92] EventEntity->Render.Flags3 ^= 0x01
  1: 0x0145 [0x00] END_REQSTACK()
```
