# 17826111 - Octavernost

## Common Data

| Field            | Value                     |
|------------------|---------------------------|
| Zone             | Western Adoulin (ID: 256) |
| Block Size       | 976 bytes                 |
| Total Events     | 40                        |
| References Count | 32                        |

## List of Events

| Event ID                   | Entrypoint   |   Size |   Instructions |
|----------------------------|--------------|--------|----------------|
| [65535](#event-65535)      | 0x0000       |      1 |              1 |
| [220](#event-220)          | 0x0001       |    167 |             40 |
| [205](#event-205)          | 0x00A8       |      1 |              1 |
| [206](#event-206)          | 0x00A9       |      1 |              1 |
| [207](#event-207)          | 0x00AA       |      1 |              1 |
| [208](#event-208)          | 0x00AB       |      1 |              1 |
| [222](#event-222)          | 0x00AC       |      1 |              1 |
| [214](#event-214)          | 0x00AD       |      1 |              1 |
| [210](#event-210)          | 0x00AE       |      1 |              1 |
| [212](#event-212)          | 0x00AF       |      1 |              1 |
| [215](#event-215)          | 0x00B0       |      1 |              1 |
| [216](#event-216)          | 0x00B1       |      1 |              1 |
| [217](#event-217)          | 0x00B2       |      1 |              1 |
| [218](#event-218)          | 0x00B3       |      1 |              1 |
| [219](#event-219)          | 0x00B4       |      1 |              1 |
| [221](#event-221)          | 0x00B5       |      1 |              1 |
| [213](#event-213)          | 0x00B6       |      1 |              1 |
| [224](#event-224)          | 0x00B7       |      1 |              1 |
| [65535.1](#event-655351)   | 0x00B8       |     33 |              3 |
| [65535.2](#event-655352)   | 0x00D9       |     33 |              3 |
| [65535.3](#event-655353)   | 0x00FA       |     33 |              3 |
| [65535.4](#event-655354)   | 0x011B       |     33 |              3 |
| [65535.5](#event-655355)   | 0x013C       |     33 |              3 |
| [65535.6](#event-655356)   | 0x015D       |     33 |              3 |
| [65535.7](#event-655357)   | 0x017E       |     33 |              3 |
| [65535.8](#event-655358)   | 0x019F       |     33 |              3 |
| [65535.9](#event-655359)   | 0x01C0       |     16 |              4 |
| [65535.10](#event-6553510) | 0x01D0       |     16 |              4 |
| [65535.11](#event-6553511) | 0x01E0       |     16 |              4 |
| [65535.12](#event-6553512) | 0x01F0       |     16 |              4 |
| [65535.13](#event-6553513) | 0x0200       |     16 |              4 |
| [65535.14](#event-6553514) | 0x0210       |     16 |              4 |
| [65535.15](#event-6553515) | 0x0220       |     16 |              4 |
| [65535.16](#event-6553516) | 0x0230       |     16 |              4 |
| [65535.17](#event-6553517) | 0x0240       |     16 |              4 |
| [65535.18](#event-6553518) | 0x0250       |     16 |              4 |
| [65535.19](#event-6553519) | 0x0260       |     16 |              4 |
| [65535.20](#event-6553520) | 0x0270       |     16 |              4 |
| [65535.21](#event-6553521) | 0x0280       |     16 |              4 |
| [65535.22](#event-6553522) | 0x0290       |     16 |              4 |

## DAT References (imed_data)

|   Index | Hex Value   |   Dec Value |
|---------|-------------|-------------|
|       0 | 0x0014      |          20 |
|       1 | 0x0001      |           1 |
|       2 | 0x2E45      |       11845 |
|       3 | 0x00A9      |         169 |
|       4 | 0x005A      |          90 |
|       5 | 0x2E46      |       11846 |
|       6 | 0x2E47      |       11847 |
|       7 | 0x2E48      |       11848 |
|       8 | 0x2E42      |       11842 |
|       9 | 0x0FB0      |        4016 |
|      10 | 0x0000      |           0 |
|      11 | 0x2E43      |       11843 |
|      12 | 0x0082      |         130 |
|      13 | 0x2E44      |       11844 |
|      14 | 0x003C      |          60 |
|      15 | 0x0050      |          80 |
|      16 | 0x005C      |          92 |
|      17 | 0x00D0      |         208 |
|      18 | 0x001D      |          29 |
|      19 | 0x005B      |          91 |
|      20 | 0x00C8      |         200 |
|      21 | 0x0007      |           7 |
|      22 | 0x0013      |          19 |
|      23 | 0x0096      |         150 |
|      24 | 0x000B      |          11 |
|      25 | 0x0020      |          32 |
|      26 | 0x0015      |          21 |
|      27 | 0x0024      |          36 |
|      28 | 0x0005      |           5 |
|      29 | 0x0016      |          22 |
|      30 | 0x000A      |          10 |
|      31 | 0x0008      |           8 |

## String References

- **11842**: Ah, what a beautiful day to be me... Oho, a thousand pardons. You are one of those new pioneers, are you not?
- **11843**: See Big Bridge over there? You can reach Eastern Adoulin just by crossing it...or did you know that already?
- **11844**: My grandfather, Octavien, waits on Sverdhried Hillock to instruct newcomers in the runic arts. He might not hold a candle to me now, but I am sure his training would suffice for the likes of you.
- **11845**: Well, well... Someone whose runes shine almost as brightly as my own. A rune fencer, are you not?
- **11846**: Yes, "as my own." For I, too, am a rune fencer.
- **11847**: My grandfather's endless prattling doubtless bored you to tears.
- **11848**: I promise that you will not find my lessons to be even half as tedious.

## Events

### Event 65535

#### Metadata

| Field        | Value   |
|--------------|---------|
| Entrypoint   | 0x0000  |
| Data Size    | 1 bytes |
| Instructions | 1       |

```
      00 01 02 03 04 05 06 07  08 09 0A 0B 0C 0D 0E 0F
      -- -- -- -- -- -- -- --  -- -- -- -- -- -- -- --
0000: 00                                                .               
```

#### Opcodes

```
  0: 0x0000 [0x00] END_REQSTACK()
```

### Event 220

#### Metadata

| Field        | Value     |
|--------------|-----------|
| Entrypoint   | 0x0001    |
| Data Size    | 167 bytes |
| Instructions | 40        |

```
      00 01 02 03 04 05 06 07  08 09 0A 0B 0C 0D 0E 0F
      -- -- -- -- -- -- -- --  -- -- -- -- -- -- -- --
0000:    4A F0 FF FF 7F F8 FF  FF 7F 6F 76 F0 FF FF 7F   J........ov....
0010: 1C 00 80 1E F0 FF FF 7F  6F 70 02 02 10 01 80 00  ........op......
0020: 75 00 1D 02 80 23 5F 06  03 80 F8 FF FF 7F F8 FF  u....#_.........
0030: FF 7F 74 6C 6B 30 04 80  1D 05 80 23 1D 06 80 5F  ..tlk0.....#..._
0040: 07 F8 FF FF 7F F8 FF FF  7F 74 6C 6B 30 23 5F 06  .........tlk0#_.
0050: 03 80 F8 FF FF 7F F8 FF  FF 7F 74 6C 6B 31 04 80  ..........tlk1..
0060: 1D 07 80 5F 07 F8 FF FF  7F F8 FF FF 7F 74 6C 6B  ..._.........tlk
0070: 30 23 01 A6 00 1D 08 80  23 4B F8 FF FF 7F 09 80  0#......#K......
0080: 6F 70 6E F8 FF FF 7F 0A  80 99 F8 FF FF 7F 1C 00  opn.............
0090: 80 1D 0B 80 1C 0C 80 23  1E F0 FF FF 7F 6F 70 1D  .......#.....op.
00A0: 0D 80 1C 0E 80 23 21 00                           .....#!.        
```

#### Opcodes

```
  0: 0x0001 [0x4A] LocalPlayer looks at EventEntity
  1: 0x000A [0x6F] WAIT_FRAME_DELAY: Yield until WaitTime reaches zero
  2: 0x000B [0x76] CHECK_ENTITY_RENDER_FLAGS: Wait until LocalPlayer Render.Flags0 and Render.Flags3 conditions are met
  3: 0x0010 [0x1C] WAIT(20* ticks)
  4: 0x0013 [0x1E] EventEntity looks at LocalPlayer and starts talking
  5: 0x0018 [0x6F] WAIT_FRAME_DELAY: Yield until WaitTime reaches zero
  6: 0x0019 [0x70] WAIT_ENTITY_RENDER_FLAG: Wait while EventEntity->Render.Flags3 bit 2 is set (cancel turn if not)
  7: 0x001A [0x02] IF !(Work_Zone[2] == 1*) GOTO 0x0075
  8: 0x0022 [0x1D] PRINT_EVENT_MESSAGE(message_id=11845*)
    → "Well, well... Someone whose runes shine almost as brightly as my own. A rune fencer, are you not?"
  9: 0x0025 [0x23] WAIT_FOR_DIALOG_INTERACTION
 10: 0x0026 [0x5F] MULTI_HANDLER_COMPLEX(mode=0x06 - Load ext scheduler with flag (OpCode 0x5B mode 1, flag 1), ref=169*, entity1=EventEntity, entity2=EventEntity, string="tlk0", extra=90*)
 11: 0x0038 [0x1D] PRINT_EVENT_MESSAGE(message_id=11846*)
    → "Yes, "as my own." For I, too, am a rune fencer."
 12: 0x003B [0x23] WAIT_FOR_DIALOG_INTERACTION
 13: 0x003C [0x1D] PRINT_EVENT_MESSAGE(message_id=11847*)
    → "My grandfather's endless prattling doubtless bored you to tears."
 14: 0x003F [0x5F] MULTI_HANDLER_COMPLEX(mode=0x07 - Wait scheduler task (OpCode 0x53))
 15: 0x004D [0x23] WAIT_FOR_DIALOG_INTERACTION
 16: 0x004E [0x5F] MULTI_HANDLER_COMPLEX(mode=0x06 - Load ext scheduler with flag (OpCode 0x5B mode 1, flag 1), ref=169*, entity1=EventEntity, entity2=EventEntity, string="tlk1", extra=90*)
 17: 0x0060 [0x1D] PRINT_EVENT_MESSAGE(message_id=11848*)
    → "I promise that you will not find my lessons to be even half as tedious."
 18: 0x0063 [0x5F] MULTI_HANDLER_COMPLEX(mode=0x07 - Wait scheduler task (OpCode 0x53))
 19: 0x0071 [0x23] WAIT_FOR_DIALOG_INTERACTION
 20: 0x0072 [0x01] GOTO 0x00A6
 21: 0x0075 [0x1D] PRINT_EVENT_MESSAGE(message_id=11842*)
    → "Ah, what a beautiful day to be me... Oho, a thousand pardons. You are one of those new pioneers, are you not?"
 22: 0x0078 [0x23] WAIT_FOR_DIALOG_INTERACTION
 23: 0x0079 [0x4B] UPDATE_ENTITY_YAW(entity=EventEntity, yaw=22.1°*)
 24: 0x0080 [0x6F] WAIT_FRAME_DELAY: Yield until WaitTime reaches zero
 25: 0x0081 [0x70] WAIT_ENTITY_RENDER_FLAG: Wait while EventEntity->Render.Flags3 bit 2 is set (cancel turn if not)
 26: 0x0082 [0x6E] EventEntity uses emote 0*
 27: 0x0089 [0x99] Wait for EventEntity animation to complete
 28: 0x008E [0x1C] WAIT(20* ticks)
 29: 0x0091 [0x1D] PRINT_EVENT_MESSAGE(message_id=11843*)
    → "See Big Bridge over there? You can reach Eastern Adoulin just by crossing it...or did you know that already?"
 30: 0x0094 [0x1C] WAIT(130* ticks)
 31: 0x0097 [0x23] WAIT_FOR_DIALOG_INTERACTION
 32: 0x0098 [0x1E] EventEntity looks at LocalPlayer and starts talking
 33: 0x009D [0x6F] WAIT_FRAME_DELAY: Yield until WaitTime reaches zero
 34: 0x009E [0x70] WAIT_ENTITY_RENDER_FLAG: Wait while EventEntity->Render.Flags3 bit 2 is set (cancel turn if not)
 35: 0x009F [0x1D] PRINT_EVENT_MESSAGE(message_id=11844*)
    → "My grandfather, Octavien, waits on Sverdhried Hillock to instruct newcomers in the runic arts. He might not hold a candle to me now, but I am sure his training would suffice for the likes of you."
 36: 0x00A2 [0x1C] WAIT(60* ticks)
 37: 0x00A5 [0x23] WAIT_FOR_DIALOG_INTERACTION

SUBROUTINE_00A6:
 38: 0x00A6 [0x21] END_EVENT
 39: 0x00A7 [0x00] END_REQSTACK()
```

### Event 205

#### Metadata

| Field        | Value   |
|--------------|---------|
| Entrypoint   | 0x00A8  |
| Data Size    | 1 bytes |
| Instructions | 1       |

```
      00 01 02 03 04 05 06 07  08 09 0A 0B 0C 0D 0E 0F
      -- -- -- -- -- -- -- --  -- -- -- -- -- -- -- --
00A0:                          00                               .       
```

#### Opcodes

```
  0: 0x00A8 [0x00] END_REQSTACK()
```

### Event 206

#### Metadata

| Field        | Value   |
|--------------|---------|
| Entrypoint   | 0x00A9  |
| Data Size    | 1 bytes |
| Instructions | 1       |

```
      00 01 02 03 04 05 06 07  08 09 0A 0B 0C 0D 0E 0F
      -- -- -- -- -- -- -- --  -- -- -- -- -- -- -- --
00A0:                             00                             .      
```

#### Opcodes

```
  0: 0x00A9 [0x00] END_REQSTACK()
```

### Event 207

#### Metadata

| Field        | Value   |
|--------------|---------|
| Entrypoint   | 0x00AA  |
| Data Size    | 1 bytes |
| Instructions | 1       |

```
      00 01 02 03 04 05 06 07  08 09 0A 0B 0C 0D 0E 0F
      -- -- -- -- -- -- -- --  -- -- -- -- -- -- -- --
00A0:                                00                           .     
```

#### Opcodes

```
  0: 0x00AA [0x00] END_REQSTACK()
```

### Event 208

#### Metadata

| Field        | Value   |
|--------------|---------|
| Entrypoint   | 0x00AB  |
| Data Size    | 1 bytes |
| Instructions | 1       |

```
      00 01 02 03 04 05 06 07  08 09 0A 0B 0C 0D 0E 0F
      -- -- -- -- -- -- -- --  -- -- -- -- -- -- -- --
00A0:                                   00                         .    
```

#### Opcodes

```
  0: 0x00AB [0x00] END_REQSTACK()
```

### Event 222

#### Metadata

| Field        | Value   |
|--------------|---------|
| Entrypoint   | 0x00AC  |
| Data Size    | 1 bytes |
| Instructions | 1       |

```
      00 01 02 03 04 05 06 07  08 09 0A 0B 0C 0D 0E 0F
      -- -- -- -- -- -- -- --  -- -- -- -- -- -- -- --
00A0:                                      00                       .   
```

#### Opcodes

```
  0: 0x00AC [0x00] END_REQSTACK()
```

### Event 214

#### Metadata

| Field        | Value   |
|--------------|---------|
| Entrypoint   | 0x00AD  |
| Data Size    | 1 bytes |
| Instructions | 1       |

```
      00 01 02 03 04 05 06 07  08 09 0A 0B 0C 0D 0E 0F
      -- -- -- -- -- -- -- --  -- -- -- -- -- -- -- --
00A0:                                         00                     .  
```

#### Opcodes

```
  0: 0x00AD [0x00] END_REQSTACK()
```

### Event 210

#### Metadata

| Field        | Value   |
|--------------|---------|
| Entrypoint   | 0x00AE  |
| Data Size    | 1 bytes |
| Instructions | 1       |

```
      00 01 02 03 04 05 06 07  08 09 0A 0B 0C 0D 0E 0F
      -- -- -- -- -- -- -- --  -- -- -- -- -- -- -- --
00A0:                                            00                   . 
```

#### Opcodes

```
  0: 0x00AE [0x00] END_REQSTACK()
```

### Event 212

#### Metadata

| Field        | Value   |
|--------------|---------|
| Entrypoint   | 0x00AF  |
| Data Size    | 1 bytes |
| Instructions | 1       |

```
      00 01 02 03 04 05 06 07  08 09 0A 0B 0C 0D 0E 0F
      -- -- -- -- -- -- -- --  -- -- -- -- -- -- -- --
00A0:                                               00                 .
```

#### Opcodes

```
  0: 0x00AF [0x00] END_REQSTACK()
```

### Event 215

#### Metadata

| Field        | Value   |
|--------------|---------|
| Entrypoint   | 0x00B0  |
| Data Size    | 1 bytes |
| Instructions | 1       |

```
      00 01 02 03 04 05 06 07  08 09 0A 0B 0C 0D 0E 0F
      -- -- -- -- -- -- -- --  -- -- -- -- -- -- -- --
00B0: 00                                                .               
```

#### Opcodes

```
  0: 0x00B0 [0x00] END_REQSTACK()
```

### Event 216

#### Metadata

| Field        | Value   |
|--------------|---------|
| Entrypoint   | 0x00B1  |
| Data Size    | 1 bytes |
| Instructions | 1       |

```
      00 01 02 03 04 05 06 07  08 09 0A 0B 0C 0D 0E 0F
      -- -- -- -- -- -- -- --  -- -- -- -- -- -- -- --
00B0:    00                                              .              
```

#### Opcodes

```
  0: 0x00B1 [0x00] END_REQSTACK()
```

### Event 217

#### Metadata

| Field        | Value   |
|--------------|---------|
| Entrypoint   | 0x00B2  |
| Data Size    | 1 bytes |
| Instructions | 1       |

```
      00 01 02 03 04 05 06 07  08 09 0A 0B 0C 0D 0E 0F
      -- -- -- -- -- -- -- --  -- -- -- -- -- -- -- --
00B0:       00                                            .             
```

#### Opcodes

```
  0: 0x00B2 [0x00] END_REQSTACK()
```

### Event 218

#### Metadata

| Field        | Value   |
|--------------|---------|
| Entrypoint   | 0x00B3  |
| Data Size    | 1 bytes |
| Instructions | 1       |

```
      00 01 02 03 04 05 06 07  08 09 0A 0B 0C 0D 0E 0F
      -- -- -- -- -- -- -- --  -- -- -- -- -- -- -- --
00B0:          00                                          .            
```

#### Opcodes

```
  0: 0x00B3 [0x00] END_REQSTACK()
```

### Event 219

#### Metadata

| Field        | Value   |
|--------------|---------|
| Entrypoint   | 0x00B4  |
| Data Size    | 1 bytes |
| Instructions | 1       |

```
      00 01 02 03 04 05 06 07  08 09 0A 0B 0C 0D 0E 0F
      -- -- -- -- -- -- -- --  -- -- -- -- -- -- -- --
00B0:             00                                        .           
```

#### Opcodes

```
  0: 0x00B4 [0x00] END_REQSTACK()
```

### Event 221

#### Metadata

| Field        | Value   |
|--------------|---------|
| Entrypoint   | 0x00B5  |
| Data Size    | 1 bytes |
| Instructions | 1       |

```
      00 01 02 03 04 05 06 07  08 09 0A 0B 0C 0D 0E 0F
      -- -- -- -- -- -- -- --  -- -- -- -- -- -- -- --
00B0:                00                                      .          
```

#### Opcodes

```
  0: 0x00B5 [0x00] END_REQSTACK()
```

### Event 213

#### Metadata

| Field        | Value   |
|--------------|---------|
| Entrypoint   | 0x00B6  |
| Data Size    | 1 bytes |
| Instructions | 1       |

```
      00 01 02 03 04 05 06 07  08 09 0A 0B 0C 0D 0E 0F
      -- -- -- -- -- -- -- --  -- -- -- -- -- -- -- --
00B0:                   00                                    .         
```

#### Opcodes

```
  0: 0x00B6 [0x00] END_REQSTACK()
```

### Event 224

#### Metadata

| Field        | Value   |
|--------------|---------|
| Entrypoint   | 0x00B7  |
| Data Size    | 1 bytes |
| Instructions | 1       |

```
      00 01 02 03 04 05 06 07  08 09 0A 0B 0C 0D 0E 0F
      -- -- -- -- -- -- -- --  -- -- -- -- -- -- -- --
00B0:                      00                                  .        
```

#### Opcodes

```
  0: 0x00B7 [0x00] END_REQSTACK()
```

### Event 65535.1

#### Metadata

| Field        | Value    |
|--------------|----------|
| Entrypoint   | 0x00B8   |
| Data Size    | 33 bytes |
| Instructions | 3        |

```
      00 01 02 03 04 05 06 07  08 09 0A 0B 0C 0D 0E 0F
      -- -- -- -- -- -- -- --  -- -- -- -- -- -- -- --
00B0:                          5F 06 03 80 F8 FF FF 7F          _.......
00C0: F8 FF FF 7F 74 6C 6B 30  0F 80 5F 07 F8 FF FF 7F  ....tlk0.._.....
00D0: F8 FF FF 7F 74 6C 6B 30  00                       ....tlk0.       
```

#### Opcodes

```
  0: 0x00B8 [0x5F] MULTI_HANDLER_COMPLEX(mode=0x06 - Load ext scheduler with flag (OpCode 0x5B mode 1, flag 1), ref=169*, entity1=EventEntity, entity2=EventEntity, string="tlk0", extra=80*)
  1: 0x00CA [0x5F] MULTI_HANDLER_COMPLEX(mode=0x07 - Wait scheduler task (OpCode 0x53))
  2: 0x00D8 [0x00] END_REQSTACK()
```

### Event 65535.2

#### Metadata

| Field        | Value    |
|--------------|----------|
| Entrypoint   | 0x00D9   |
| Data Size    | 33 bytes |
| Instructions | 3        |

```
      00 01 02 03 04 05 06 07  08 09 0A 0B 0C 0D 0E 0F
      -- -- -- -- -- -- -- --  -- -- -- -- -- -- -- --
00D0:                             5F 06 03 80 F8 FF FF           _......
00E0: 7F F8 FF FF 7F 74 6C 6B  31 10 80 5F 07 F8 FF FF  .....tlk1.._....
00F0: 7F F8 FF FF 7F 74 6C 6B  31 00                    .....tlk1.      
```

#### Opcodes

```
  0: 0x00D9 [0x5F] MULTI_HANDLER_COMPLEX(mode=0x06 - Load ext scheduler with flag (OpCode 0x5B mode 1, flag 1), ref=169*, entity1=EventEntity, entity2=EventEntity, string="tlk1", extra=92*)
  1: 0x00EB [0x5F] MULTI_HANDLER_COMPLEX(mode=0x07 - Wait scheduler task (OpCode 0x53))
  2: 0x00F9 [0x00] END_REQSTACK()
```

### Event 65535.3

#### Metadata

| Field        | Value    |
|--------------|----------|
| Entrypoint   | 0x00FA   |
| Data Size    | 33 bytes |
| Instructions | 3        |

```
      00 01 02 03 04 05 06 07  08 09 0A 0B 0C 0D 0E 0F
      -- -- -- -- -- -- -- --  -- -- -- -- -- -- -- --
00F0:                                5F 06 03 80 F8 FF            _.....
0100: FF 7F F8 FF FF 7F 6B 79  61 30 11 80 5F 07 F8 FF  ......kya0.._...
0110: FF 7F F8 FF FF 7F 6B 79  61 30 00                 ......kya0.     
```

#### Opcodes

```
  0: 0x00FA [0x5F] MULTI_HANDLER_COMPLEX(mode=0x06 - Load ext scheduler with flag (OpCode 0x5B mode 1, flag 1), ref=169*, entity1=EventEntity, entity2=EventEntity, string="kya0", extra=208*)
  1: 0x010C [0x5F] MULTI_HANDLER_COMPLEX(mode=0x07 - Wait scheduler task (OpCode 0x53))
  2: 0x011A [0x00] END_REQSTACK()
```

### Event 65535.4

#### Metadata

| Field        | Value    |
|--------------|----------|
| Entrypoint   | 0x011B   |
| Data Size    | 33 bytes |
| Instructions | 3        |

```
      00 01 02 03 04 05 06 07  08 09 0A 0B 0C 0D 0E 0F
      -- -- -- -- -- -- -- --  -- -- -- -- -- -- -- --
0110:                                   5F 06 12 80 F8             _....
0120: FF FF 7F F8 FF FF 7F 74  6C 6B 30 04 80 5F 07 F8  .......tlk0.._..
0130: FF FF 7F F8 FF FF 7F 74  6C 6B 30 00              .......tlk0.    
```

#### Opcodes

```
  0: 0x011B [0x5F] MULTI_HANDLER_COMPLEX(mode=0x06 - Load ext scheduler with flag (OpCode 0x5B mode 1, flag 1), ref=29*, entity1=EventEntity, entity2=EventEntity, string="tlk0", extra=90*)
  1: 0x012D [0x5F] MULTI_HANDLER_COMPLEX(mode=0x07 - Wait scheduler task (OpCode 0x53))
  2: 0x013B [0x00] END_REQSTACK()
```

### Event 65535.5

#### Metadata

| Field        | Value    |
|--------------|----------|
| Entrypoint   | 0x013C   |
| Data Size    | 33 bytes |
| Instructions | 3        |

```
      00 01 02 03 04 05 06 07  08 09 0A 0B 0C 0D 0E 0F
      -- -- -- -- -- -- -- --  -- -- -- -- -- -- -- --
0130:                                      5F 06 12 80              _...
0140: F8 FF FF 7F F8 FF FF 7F  74 6C 6B 31 04 80 5F 07  ........tlk1.._.
0150: F8 FF FF 7F F8 FF FF 7F  74 6C 6B 31 00           ........tlk1.   
```

#### Opcodes

```
  0: 0x013C [0x5F] MULTI_HANDLER_COMPLEX(mode=0x06 - Load ext scheduler with flag (OpCode 0x5B mode 1, flag 1), ref=29*, entity1=EventEntity, entity2=EventEntity, string="tlk1", extra=90*)
  1: 0x014E [0x5F] MULTI_HANDLER_COMPLEX(mode=0x07 - Wait scheduler task (OpCode 0x53))
  2: 0x015C [0x00] END_REQSTACK()
```

### Event 65535.6

#### Metadata

| Field        | Value    |
|--------------|----------|
| Entrypoint   | 0x015D   |
| Data Size    | 33 bytes |
| Instructions | 3        |

```
      00 01 02 03 04 05 06 07  08 09 0A 0B 0C 0D 0E 0F
      -- -- -- -- -- -- -- --  -- -- -- -- -- -- -- --
0150:                                         5F 06 12               _..
0160: 80 F8 FF FF 7F F8 FF FF  7F 74 68 6B 31 04 80 5F  .........thk1.._
0170: 07 F8 FF FF 7F F8 FF FF  7F 74 68 6B 31 00        .........thk1.  
```

#### Opcodes

```
  0: 0x015D [0x5F] MULTI_HANDLER_COMPLEX(mode=0x06 - Load ext scheduler with flag (OpCode 0x5B mode 1, flag 1), ref=29*, entity1=EventEntity, entity2=EventEntity, string="thk1", extra=90*)
  1: 0x016F [0x5F] MULTI_HANDLER_COMPLEX(mode=0x07 - Wait scheduler task (OpCode 0x53))
  2: 0x017D [0x00] END_REQSTACK()
```

### Event 65535.7

#### Metadata

| Field        | Value    |
|--------------|----------|
| Entrypoint   | 0x017E   |
| Data Size    | 33 bytes |
| Instructions | 3        |

```
      00 01 02 03 04 05 06 07  08 09 0A 0B 0C 0D 0E 0F
      -- -- -- -- -- -- -- --  -- -- -- -- -- -- -- --
0170:                                            5F 06                _.
0180: 12 80 F8 FF FF 7F F8 FF  FF 7F 74 68 6B 32 04 80  ..........thk2..
0190: 5F 07 F8 FF FF 7F F8 FF  FF 7F 74 68 6B 32 00     _.........thk2. 
```

#### Opcodes

```
  0: 0x017E [0x5F] MULTI_HANDLER_COMPLEX(mode=0x06 - Load ext scheduler with flag (OpCode 0x5B mode 1, flag 1), ref=29*, entity1=EventEntity, entity2=EventEntity, string="thk2", extra=90*)
  1: 0x0190 [0x5F] MULTI_HANDLER_COMPLEX(mode=0x07 - Wait scheduler task (OpCode 0x53))
  2: 0x019E [0x00] END_REQSTACK()
```

### Event 65535.8

#### Metadata

| Field        | Value    |
|--------------|----------|
| Entrypoint   | 0x019F   |
| Data Size    | 33 bytes |
| Instructions | 3        |

```
      00 01 02 03 04 05 06 07  08 09 0A 0B 0C 0D 0E 0F
      -- -- -- -- -- -- -- --  -- -- -- -- -- -- -- --
0190:                                               5F                 _
01A0: 06 13 80 F8 FF FF 7F F8  FF FF 7F 70 61 73 30 14  ...........pas0.
01B0: 80 5F 07 F8 FF FF 7F F8  FF FF 7F 70 61 73 30 00  ._.........pas0.
```

#### Opcodes

```
  0: 0x019F [0x5F] MULTI_HANDLER_COMPLEX(mode=0x06 - Load ext scheduler with flag (OpCode 0x5B mode 1, flag 1), ref=91*, entity1=EventEntity, entity2=EventEntity, string="pas0", extra=200*)
  1: 0x01B1 [0x5F] MULTI_HANDLER_COMPLEX(mode=0x07 - Wait scheduler task (OpCode 0x53))
  2: 0x01BF [0x00] END_REQSTACK()
```

### Event 65535.9

#### Metadata

| Field        | Value    |
|--------------|----------|
| Entrypoint   | 0x01C0   |
| Data Size    | 16 bytes |
| Instructions | 4        |

```
      00 01 02 03 04 05 06 07  08 09 0A 0B 0C 0D 0E 0F
      -- -- -- -- -- -- -- --  -- -- -- -- -- -- -- --
01C0: 6E F8 FF FF 7F 15 80 99  F8 FF FF 7F 1C 0E 80 00  n...............
```

#### Opcodes

```
  0: 0x01C0 [0x6E] EventEntity uses emote 7*
  1: 0x01C7 [0x99] Wait for EventEntity animation to complete
  2: 0x01CC [0x1C] WAIT(60* ticks)
  3: 0x01CF [0x00] END_REQSTACK()
```

### Event 65535.10

#### Metadata

| Field        | Value    |
|--------------|----------|
| Entrypoint   | 0x01D0   |
| Data Size    | 16 bytes |
| Instructions | 4        |

```
      00 01 02 03 04 05 06 07  08 09 0A 0B 0C 0D 0E 0F
      -- -- -- -- -- -- -- --  -- -- -- -- -- -- -- --
01D0: 6E F8 FF FF 7F 16 80 99  F8 FF FF 7F 1C 17 80 00  n...............
```

#### Opcodes

```
  0: 0x01D0 [0x6E] EventEntity uses emote 19*
  1: 0x01D7 [0x99] Wait for EventEntity animation to complete
  2: 0x01DC [0x1C] WAIT(150* ticks)
  3: 0x01DF [0x00] END_REQSTACK()
```

### Event 65535.11

#### Metadata

| Field        | Value    |
|--------------|----------|
| Entrypoint   | 0x01E0   |
| Data Size    | 16 bytes |
| Instructions | 4        |

```
      00 01 02 03 04 05 06 07  08 09 0A 0B 0C 0D 0E 0F
      -- -- -- -- -- -- -- --  -- -- -- -- -- -- -- --
01E0: 6E F8 FF FF 7F 18 80 99  F8 FF FF 7F 1C 17 80 00  n...............
```

#### Opcodes

```
  0: 0x01E0 [0x6E] EventEntity uses emote 11*
  1: 0x01E7 [0x99] Wait for EventEntity animation to complete
  2: 0x01EC [0x1C] WAIT(150* ticks)
  3: 0x01EF [0x00] END_REQSTACK()
```

### Event 65535.12

#### Metadata

| Field        | Value    |
|--------------|----------|
| Entrypoint   | 0x01F0   |
| Data Size    | 16 bytes |
| Instructions | 4        |

```
      00 01 02 03 04 05 06 07  08 09 0A 0B 0C 0D 0E 0F
      -- -- -- -- -- -- -- --  -- -- -- -- -- -- -- --
01F0: 6E F8 FF FF 7F 0A 80 99  F8 FF FF 7F 1C 17 80 00  n...............
```

#### Opcodes

```
  0: 0x01F0 [0x6E] EventEntity uses emote 0*
  1: 0x01F7 [0x99] Wait for EventEntity animation to complete
  2: 0x01FC [0x1C] WAIT(150* ticks)
  3: 0x01FF [0x00] END_REQSTACK()
```

### Event 65535.13

#### Metadata

| Field        | Value    |
|--------------|----------|
| Entrypoint   | 0x0200   |
| Data Size    | 16 bytes |
| Instructions | 4        |

```
      00 01 02 03 04 05 06 07  08 09 0A 0B 0C 0D 0E 0F
      -- -- -- -- -- -- -- --  -- -- -- -- -- -- -- --
0200: 6E F8 FF FF 7F 19 80 99  F8 FF FF 7F 1C 17 80 00  n...............
```

#### Opcodes

```
  0: 0x0200 [0x6E] EventEntity uses emote 32*
  1: 0x0207 [0x99] Wait for EventEntity animation to complete
  2: 0x020C [0x1C] WAIT(150* ticks)
  3: 0x020F [0x00] END_REQSTACK()
```

### Event 65535.14

#### Metadata

| Field        | Value    |
|--------------|----------|
| Entrypoint   | 0x0210   |
| Data Size    | 16 bytes |
| Instructions | 4        |

```
      00 01 02 03 04 05 06 07  08 09 0A 0B 0C 0D 0E 0F
      -- -- -- -- -- -- -- --  -- -- -- -- -- -- -- --
0210: 6E F8 FF FF 7F 1A 80 99  F8 FF FF 7F 1C 17 80 00  n...............
```

#### Opcodes

```
  0: 0x0210 [0x6E] EventEntity uses emote 21*
  1: 0x0217 [0x99] Wait for EventEntity animation to complete
  2: 0x021C [0x1C] WAIT(150* ticks)
  3: 0x021F [0x00] END_REQSTACK()
```

### Event 65535.15

#### Metadata

| Field        | Value    |
|--------------|----------|
| Entrypoint   | 0x0220   |
| Data Size    | 16 bytes |
| Instructions | 4        |

```
      00 01 02 03 04 05 06 07  08 09 0A 0B 0C 0D 0E 0F
      -- -- -- -- -- -- -- --  -- -- -- -- -- -- -- --
0220: 6E F8 FF FF 7F 12 80 99  F8 FF FF 7F 1C 17 80 00  n...............
```

#### Opcodes

```
  0: 0x0220 [0x6E] EventEntity uses emote 29*
  1: 0x0227 [0x99] Wait for EventEntity animation to complete
  2: 0x022C [0x1C] WAIT(150* ticks)
  3: 0x022F [0x00] END_REQSTACK()
```

### Event 65535.16

#### Metadata

| Field        | Value    |
|--------------|----------|
| Entrypoint   | 0x0230   |
| Data Size    | 16 bytes |
| Instructions | 4        |

```
      00 01 02 03 04 05 06 07  08 09 0A 0B 0C 0D 0E 0F
      -- -- -- -- -- -- -- --  -- -- -- -- -- -- -- --
0230: 6E F8 FF FF 7F 1B 80 99  F8 FF FF 7F 1C 17 80 00  n...............
```

#### Opcodes

```
  0: 0x0230 [0x6E] EventEntity uses emote 36*
  1: 0x0237 [0x99] Wait for EventEntity animation to complete
  2: 0x023C [0x1C] WAIT(150* ticks)
  3: 0x023F [0x00] END_REQSTACK()
```

### Event 65535.17

#### Metadata

| Field        | Value    |
|--------------|----------|
| Entrypoint   | 0x0240   |
| Data Size    | 16 bytes |
| Instructions | 4        |

```
      00 01 02 03 04 05 06 07  08 09 0A 0B 0C 0D 0E 0F
      -- -- -- -- -- -- -- --  -- -- -- -- -- -- -- --
0240: 6E F8 FF FF 7F 1C 80 99  F8 FF FF 7F 1C 17 80 00  n...............
```

#### Opcodes

```
  0: 0x0240 [0x6E] EventEntity uses emote 5*
  1: 0x0247 [0x99] Wait for EventEntity animation to complete
  2: 0x024C [0x1C] WAIT(150* ticks)
  3: 0x024F [0x00] END_REQSTACK()
```

### Event 65535.18

#### Metadata

| Field        | Value    |
|--------------|----------|
| Entrypoint   | 0x0250   |
| Data Size    | 16 bytes |
| Instructions | 4        |

```
      00 01 02 03 04 05 06 07  08 09 0A 0B 0C 0D 0E 0F
      -- -- -- -- -- -- -- --  -- -- -- -- -- -- -- --
0250: 6E F8 FF FF 7F 1D 80 99  F8 FF FF 7F 1C 17 80 00  n...............
```

#### Opcodes

```
  0: 0x0250 [0x6E] EventEntity uses emote 22*
  1: 0x0257 [0x99] Wait for EventEntity animation to complete
  2: 0x025C [0x1C] WAIT(150* ticks)
  3: 0x025F [0x00] END_REQSTACK()
```

### Event 65535.19

#### Metadata

| Field        | Value    |
|--------------|----------|
| Entrypoint   | 0x0260   |
| Data Size    | 16 bytes |
| Instructions | 4        |

```
      00 01 02 03 04 05 06 07  08 09 0A 0B 0C 0D 0E 0F
      -- -- -- -- -- -- -- --  -- -- -- -- -- -- -- --
0260: 6E F8 FF FF 7F 01 80 99  F8 FF FF 7F 1C 17 80 00  n...............
```

#### Opcodes

```
  0: 0x0260 [0x6E] EventEntity uses emote 1*
  1: 0x0267 [0x99] Wait for EventEntity animation to complete
  2: 0x026C [0x1C] WAIT(150* ticks)
  3: 0x026F [0x00] END_REQSTACK()
```

### Event 65535.20

#### Metadata

| Field        | Value    |
|--------------|----------|
| Entrypoint   | 0x0270   |
| Data Size    | 16 bytes |
| Instructions | 4        |

```
      00 01 02 03 04 05 06 07  08 09 0A 0B 0C 0D 0E 0F
      -- -- -- -- -- -- -- --  -- -- -- -- -- -- -- --
0270: 6E F8 FF FF 7F 1E 80 99  F8 FF FF 7F 1C 17 80 00  n...............
```

#### Opcodes

```
  0: 0x0270 [0x6E] EventEntity uses emote 10*
  1: 0x0277 [0x99] Wait for EventEntity animation to complete
  2: 0x027C [0x1C] WAIT(150* ticks)
  3: 0x027F [0x00] END_REQSTACK()
```

### Event 65535.21

#### Metadata

| Field        | Value    |
|--------------|----------|
| Entrypoint   | 0x0280   |
| Data Size    | 16 bytes |
| Instructions | 4        |

```
      00 01 02 03 04 05 06 07  08 09 0A 0B 0C 0D 0E 0F
      -- -- -- -- -- -- -- --  -- -- -- -- -- -- -- --
0280: 6E F8 FF FF 7F 00 80 99  F8 FF FF 7F 1C 17 80 00  n...............
```

#### Opcodes

```
  0: 0x0280 [0x6E] EventEntity uses emote 20*
  1: 0x0287 [0x99] Wait for EventEntity animation to complete
  2: 0x028C [0x1C] WAIT(150* ticks)
  3: 0x028F [0x00] END_REQSTACK()
```

### Event 65535.22

#### Metadata

| Field        | Value    |
|--------------|----------|
| Entrypoint   | 0x0290   |
| Data Size    | 16 bytes |
| Instructions | 4        |

```
      00 01 02 03 04 05 06 07  08 09 0A 0B 0C 0D 0E 0F
      -- -- -- -- -- -- -- --  -- -- -- -- -- -- -- --
0290: 6E F8 FF FF 7F 1F 80 99  F8 FF FF 7F 1C 17 80 00  n...............
```

#### Opcodes

```
  0: 0x0290 [0x6E] EventEntity uses emote 8*
  1: 0x0297 [0x99] Wait for EventEntity animation to complete
  2: 0x029C [0x1C] WAIT(150* ticks)
  3: 0x029F [0x00] END_REQSTACK()
```
