# 17826176 - Prah Janimhar

## Common Data

| Field            | Value                     |
|------------------|---------------------------|
| Zone             | Western Adoulin (ID: 256) |
| Block Size       | 11832 bytes               |
| Total Events     | 7                         |
| References Count | 110                       |

## List of Events

| Event ID              | Entrypoint   |   Size |   Instructions |
|-----------------------|--------------|--------|----------------|
| [65535](#event-65535) | 0x0000       |      1 |              1 |
| [5123](#event-5123)   | 0x0001       |     14 |              6 |
| [5125](#event-5125)   | 0x000F       |    702 |            134 |
| [5124](#event-5124)   | 0x02CD       |   1497 |            246 |
| [5126](#event-5126)   | 0x08A6       |   2978 |            509 |
| [5128](#event-5128)   | 0x1448       |   2948 |            507 |
| [5127](#event-5127)   | 0x1FCC       |   3207 |            528 |

## DAT References (imed_data)

|   Index | Hex Value   |   Dec Value |
|---------|-------------|-------------|
|       0 | 0x0001      |           1 |
|       1 | 0x31BA      |       12730 |
|       2 | 0x003B      |          59 |
|       3 | 0x31BB      |       12731 |
|       4 | 0x0005      |           5 |
|       5 | 0x31BC      |       12732 |
|       6 | 0x31BD      |       12733 |
|       7 | 0x31BE      |       12734 |
|       8 | 0x31BF      |       12735 |
|       9 | 0x31C0      |       12736 |
|      10 | 0x31C1      |       12737 |
|      11 | 0x0003      |           3 |
|      12 | 0x31D0      |       12752 |
|      13 | 0x0000      |           0 |
|      14 | 0x31C2      |       12738 |
|      15 | 0x31D2      |       12754 |
|      16 | 0x31C3      |       12739 |
|      17 | 0x31C4      |       12740 |
|      18 | 0x31C5      |       12741 |
|      19 | 0x09B2      |        2482 |
|      20 | 0x31D4      |       12756 |
|      21 | 0x09B3      |        2483 |
|      22 | 0x31D5      |       12757 |
|      23 | 0x09B4      |        2484 |
|      24 | 0x31D6      |       12758 |
|      25 | 0x09B5      |        2485 |
|      26 | 0x31D7      |       12759 |
|      27 | 0x09B6      |        2486 |
|      28 | 0x31D8      |       12760 |
|      29 | 0x09B7      |        2487 |
|      30 | 0x31D9      |       12761 |
|      31 | 0x31DA      |       12762 |
|      32 | 0x31DB      |       12763 |
|      33 | 0x31DC      |       12764 |
|      34 | 0x31DD      |       12765 |
|      35 | 0x31DE      |       12766 |
|      36 | 0x31DF      |       12767 |
|      37 | 0x31C6      |       12742 |
|      38 | 0x31C7      |       12743 |
|      39 | 0x31C8      |       12744 |
|      40 | 0x31C9      |       12745 |
|      41 | 0x0002      |           2 |
|      42 | 0x0004      |           4 |
|      43 | 0x0006      |           6 |
|      44 | 0x31CA      |       12746 |
|      45 | 0x31CB      |       12747 |
|      46 | 0x31CD      |       12749 |
|      47 | 0x31CE      |       12750 |
|      48 | 0x31CF      |       12751 |
|      49 | 0x31D1      |       12753 |
|      50 | 0x31D3      |       12755 |
|      51 | 0x0007      |           7 |
|      52 | 0x31CC      |       12748 |
|      53 | 0x0034      |          52 |
|      54 | 0x31E0      |       12768 |
|      55 | 0x31E1      |       12769 |
|      56 | 0x31E2      |       12770 |
|      57 | 0x31E3      |       12771 |
|      58 | 0xE817      |       59415 |
|      59 | 0xE823      |       59427 |
|      60 | 0x4390      |       17296 |
|      61 | 0x701F      |       28703 |
|      62 | 0x0008      |           8 |
|      63 | 0x000B      |          11 |
|      64 | 0x208E      |        8334 |
|      65 | 0x701B      |       28699 |
|      66 | 0x31E4      |       12772 |
|      67 | 0x31E5      |       12773 |
|      68 | 0x0036      |          54 |
|      69 | 0x31E6      |       12774 |
|      70 | 0x31E7      |       12775 |
|      71 | 0x7025      |       28709 |
|      72 | 0x7023      |       28707 |
|      73 | 0xE809      |       59401 |
|      74 | 0x9819      |       38937 |
|      75 | 0x981D      |       38941 |
|      76 | 0x0947      |        2375 |
|      77 | 0x000F      |          15 |
|      78 | 0x0836      |        2102 |
|      79 | 0x0010      |          16 |
|      80 | 0x001F      |          31 |
|      81 | 0x0837      |        2103 |
|      82 | 0x1089      |        4233 |
|      83 | 0x2164      |        8548 |
|      84 | 0x7017      |       28695 |
|      85 | 0x1829      |        6185 |
|      86 | 0x0948      |        2376 |
|      87 | 0x4885      |       18565 |
|      88 | 0x716A      |       29034 |
|      89 | 0x4828      |       18472 |
|      90 | 0xE81B      |       59419 |
|      91 | 0x5390      |       21392 |
|      92 | 0xE801      |       59393 |
|      93 | 0x0831      |        2097 |
|      94 | 0x08D3      |        2259 |
|      95 | 0x481F      |       18463 |
|      96 | 0x3A03      |       14851 |
|      97 | 0x108C      |        4236 |
|      98 | 0x0886      |        2182 |
|      99 | 0x3A05      |       14853 |
|     100 | 0x4825      |       18469 |
|     101 | 0x4819      |       18457 |
|     102 | 0x3A00      |       14848 |
|     103 | 0x481D      |       18461 |
|     104 | 0x3A02      |       14850 |
|     105 | 0x0891      |        2193 |
|     106 | 0x3A01      |       14849 |
|     107 | 0x094C      |        2380 |
|     108 | 0x196A      |        6506 |
|     109 | 0x3A04      |       14852 |

## String References

- **12730**: Do I look like I've got time to barrrter with neophytes? Off with you!
- **12731**: So much to do, so little time... Wait. How did you get your grrrubby hands on that $3?
- **12732**: Amazing--to think I'd actually see a paragon up close! It shines even more brightly than I'd been told!
- **12733**: <Cough> Allow me to prrroffer an explanation.
- **12734**: Paragons are trrreasures gleaned from vanquishing Naakuals, and the secrets harbored within can be used to inscribe certain curios with arcane glyptics.
- **12735**: The energies therein are so delicate and purrre that every arcanist in the city is itching to get their hands on them. Imagine the look on Divainy-Gamainy's face when I tell him that I...<cough>
- **12736**: I've gotten sidetrrracked. The only thing an adventurer needs to know is that one paragon will provide two different arcane glyptics.
- **12737**: For example, with weapons, I can inscrrribe...
- **12738**: And for arrrmor...
- **12739**: That's all there is to it!
- **12740**: Ah, but I said that each paragon could provide two glyptics. The second rrrests on the identity of the paragon you bring me.
- **12741**: With your $3, I can inscrrribe weapons with...
- **12742**: Worrrking with the paragons is a simple affair, but given the intensity of their auras, I can only inscribe them on very specific equipment.
- **12743**: They must be able to withstand the infusing process. We artisans refer to these types of equipment as "rrresonant."
- **12744**: But since you have a paragon on hand, then surrrely you have a piece of resonant equipment already.
- **12745**: Don't worry about losing equipment unsuited for this endeavor. A veteran of my caliberrr can hold a piece in my paw and know instantly whether or not it would survive the process.
- **12746**: Any questions, or should we get to worrrk?
- **12747**: What will you ask? [To see the list of arcane glyptics./Nothing.]
- **12748**: Leaving so soon? Come back if you need me to lend a paw!
- **12749**: Which parrragon are you interested in?
- **12750**: View which paragon? [Shared arcane glyptics./3./$3./$3./$3./$3./$3./Back.]
- **12751**: I can inscrrribe the following on [weapons/ranged weapons/armor].
- **12752**: Shared arcane glyptics: [Accuracy+30./Magic Accuracy+30./Occasionally attacks twice./Back.]
- **12753**: Shared arcane glyptics: [Ranged Accuracy+30./Magic Accuracy+30./Occasionally attacks twice./Back.]
- **12754**: Shared arcane glyptics: [HP+30 MP+30./Physical/Magic damage taken -2%./Haste+2% "Snapshot"+2./Back.]
- **12755**: I can inscrrribe the following arcane glyptics unique to $6 on [weapons/armor].
- **12756**: 3: [Evasion+15./"Store TP"+5./Ranged Accuracy+15./Back.]
- **12757**: 3: [Magic Evasion+15./Magic Accuracy+15./MP+30./Back.]
- **12758**: 3: [Attack+20./Ranged Attack+20./Weapon skill damage +2%./Back.]
- **12759**: 3: [Damage taken -2%./"Regen"+3./"Cure" potency received +5%./Back.]
- **12760**: 3: [Accuracy+15./Critical hit rate +4%./Critical hit damage +2%./Back.]
- **12761**: 3: ["Magic Atk. Bonus"+10./Magic Damage+15./Enmity-10./Back.]
- **12762**: 3: [Evasion+10./AGI+8./"Fast Cast"+3./Back.]
- **12763**: 3: ["Magic Def. Bonus"+2./MND+8./Magic Evasion+10./Back.]
- **12764**: 3: [Attack+10./STR+8./Ranged Attack+10./Back.]
- **12765**: 3: [Physical damage taken -2%./VIT+8./HP+30./Back.]
- **12766**: 3: ["Counter"+2./DEX+8./Skillchain damage +2./Back.]
- **12767**: 3: [Magic Damage+4./INT+8./MP+30./Back.]
- **12768**: Yes, a purrrfect specimen. Can you sense the slight tingling as it resonates with your paragon?
- **12769**: Select a paragon. [3./$3./$3./$3./$3./$3./Never mind.]
- **12770**: That $3 would make a wonderrrful addition. Just tell me which type of glyptic you are interested in, and I'll get started.
- **12771**: Select the [first/second] arcane glyptic.
- **12772**: Your weapon'll come out looking something like this.
- **12773**: Is this acceptable? [Positively peachy./Back to the beginning./Agonizingly atrocious.]
- **12774**: I'd call this a success! Can you not sense the aura emanating from the surrrface? That's the paragon's power in action!
- **12775**: Change your mind? Well, a paragon is your trrreasure to use as you see fit. Come back again if you decide you're interested.

## Events

### Event 65535

#### Metadata

| Field        | Value   |
|--------------|---------|
| Entrypoint   | 0x0000  |
| Data Size    | 1 bytes |
| Instructions | 1       |

```
      00 01 02 03 04 05 06 07  08 09 0A 0B 0C 0D 0E 0F
      -- -- -- -- -- -- -- --  -- -- -- -- -- -- -- --
0000: 00                                                .               
```

#### Opcodes

```
  0: 0x0000 [0x00] END_REQSTACK()
```

### Event 5123

#### Metadata

| Field        | Value    |
|--------------|----------|
| Entrypoint   | 0x0001   |
| Data Size    | 14 bytes |
| Instructions | 6        |

```
      00 01 02 03 04 05 06 07  08 09 0A 0B 0C 0D 0E 0F
      -- -- -- -- -- -- -- --  -- -- -- -- -- -- -- --
0000:    1E F0 FF FF 7F 1C 00  80 1D 01 80 23 21 00      ...........#!. 
```

#### Opcodes

```
  0: 0x0001 [0x1E] EventEntity looks at LocalPlayer and starts talking
  1: 0x0006 [0x1C] WAIT(1* ticks)
  2: 0x0009 [0x1D] PRINT_EVENT_MESSAGE(message_id=12730*)
    → "Do I look like I've got time to barrrter with neophytes? Off with you!"
  3: 0x000C [0x23] WAIT_FOR_DIALOG_INTERACTION
  4: 0x000D [0x21] END_EVENT
  5: 0x000E [0x00] END_REQSTACK()
```

### Event 5125

#### Metadata

| Field        | Value     |
|--------------|-----------|
| Entrypoint   | 0x000F    |
| Data Size    | 702 bytes |
| Instructions | 134       |

```
      00 01 02 03 04 05 06 07  08 09 0A 0B 0C 0D 0E 0F
      -- -- -- -- -- -- -- --  -- -- -- -- -- -- -- --
0000:                                               03                 .
0010: 02 00 02 10 1E F0 FF FF  7F 1C 00 80 66 02 80 F8  ............f...
0020: FF FF 7F F8 FF FF 7F 74  6C 6B 30 1D 03 80 23 1C  .......tlk0...#.
0030: 04 80 66 02 80 F8 FF FF  7F F8 FF FF 7F 74 6C 6B  ..f..........tlk
0040: 31 66 02 80 F8 FF FF 7F  F8 FF FF 7F 74 68 6B 31  1f..........thk1
0050: 1D 05 80 23 66 02 80 F8  FF FF 7F F8 FF FF 7F 74  ...#f..........t
0060: 68 6B 32 66 02 80 F8 FF  FF 7F F8 FF FF 7F 74 6C  hk2f..........tl
0070: 6B 30 1D 06 80 23 1D 07  80 23 1D 08 80 23 1D 09  k0...#...#...#..
0080: 80 23 1D 0A 80 23 66 02  80 F8 FF FF 7F F8 FF FF  .#...#f.........
0090: 7F 74 6C 6B 31 3C 00 00  0B 80 00 80 24 0C 80 0D  .tlk1<......$...
00A0: 80 00 00 25 02 00 10 0D  80 00 AF 00 01 AF 00 66  ...%...........f
00B0: 02 80 F8 FF FF 7F F8 FF  FF 7F 74 6C 6B 30 1D 0E  ..........tlk0..
00C0: 80 23 66 02 80 F8 FF FF  7F F8 FF FF 7F 74 6C 6B  .#f..........tlk
00D0: 31 24 0F 80 0D 80 00 00  25 02 00 10 0D 80 00 E4  1$......%.......
00E0: 00 01 E4 00 66 02 80 F8  FF FF 7F F8 FF FF 7F 74  ....f..........t
00F0: 6C 6B 30 1D 10 80 23 1D  11 80 23 03 02 10 02 00  lk0...#...#.....
0100: 1D 12 80 23 66 02 80 F8  FF FF 7F F8 FF FF 7F 74  ...#f..........t
0110: 6C 6B 31 02 02 00 13 80  80 31 01 24 14 80 0D 80  lk1......1.$....
0120: 00 00 25 02 00 10 0D 80  00 2E 01 01 2E 01 01 C7  ..%.............
0130: 01 02 02 00 15 80 80 4F  01 24 16 80 0D 80 00 00  .......O.$......
0140: 25 02 00 10 0D 80 00 4C  01 01 4C 01 01 C7 01 02  %......L..L.....
0150: 02 00 17 80 80 6D 01 24  18 80 0D 80 00 00 25 02  .....m.$......%.
0160: 00 10 0D 80 00 6A 01 01  6A 01 01 C7 01 02 02 00  .....j..j.......
0170: 19 80 80 8B 01 24 1A 80  0D 80 00 00 25 02 00 10  .....$......%...
0180: 0D 80 00 88 01 01 88 01  01 C7 01 02 02 00 1B 80  ................
0190: 80 A9 01 24 1C 80 0D 80  00 00 25 02 00 10 0D 80  ...$......%.....
01A0: 00 A6 01 01 A6 01 01 C7  01 02 02 00 1D 80 80 C7  ................
01B0: 01 24 1E 80 0D 80 00 00  25 02 00 10 0D 80 00 C4  .$......%.......
01C0: 01 01 C4 01 01 C7 01 66  02 80 F8 FF FF 7F F8 FF  .......f........
01D0: FF 7F 74 6C 6B 30 1D 0E  80 23 66 02 80 F8 FF FF  ..tlk0...#f.....
01E0: 7F F8 FF FF 7F 74 6C 6B  31 02 02 00 13 80 80 07  .....tlk1.......
01F0: 02 24 1F 80 0D 80 00 00  25 02 00 10 0D 80 00 04  .$......%.......
0200: 02 01 04 02 01 9D 02 02  02 00 15 80 80 25 02 24  .............%.$
0210: 20 80 0D 80 00 00 25 02  00 10 0D 80 00 22 02 01   .....%......"..
0220: 22 02 01 9D 02 02 02 00  17 80 80 43 02 24 21 80  "..........C.$!.
0230: 0D 80 00 00 25 02 00 10  0D 80 00 40 02 01 40 02  ....%......@..@.
0240: 01 9D 02 02 02 00 19 80  80 61 02 24 22 80 0D 80  .........a.$"...
0250: 00 00 25 02 00 10 0D 80  00 5E 02 01 5E 02 01 9D  ..%......^..^...
0260: 02 02 02 00 1B 80 80 7F  02 24 23 80 0D 80 00 00  .........$#.....
0270: 25 02 00 10 0D 80 00 7C  02 01 7C 02 01 9D 02 02  %......|..|.....
0280: 02 00 1D 80 80 9D 02 24  24 80 0D 80 00 00 25 02  .......$$.....%.
0290: 00 10 0D 80 00 9A 02 01  9A 02 01 9D 02 66 02 80  .............f..
02A0: F8 FF FF 7F F8 FF FF 7F  74 6C 6B 30 1D 25 80 23  ........tlk0.%.#
02B0: 1D 26 80 23 1D 27 80 23  1D 28 80 23 66 02 80 F8  .&.#.'.#.(.#f...
02C0: FF FF 7F F8 FF FF 7F 74  6C 6B 31 21 00           .......tlk1!.   
```

#### Opcodes

```
  0: 0x000F [0x03] ExtData[1]->WorkLocal[2] = Work_Zone[2]
  1: 0x0014 [0x1E] EventEntity looks at LocalPlayer and starts talking
  2: 0x0019 [0x1C] WAIT(1* ticks)
  3: 0x001C [0x66] LOAD_EXT_SCHEDULER_MAIN: Load scheduler "tlk0" with entities [EventEntity, EventEntity], work=59*
  4: 0x002B [0x1D] PRINT_EVENT_MESSAGE(message_id=12731*)
    → "So much to do, so little time... Wait. How did you get your grrrubby hands on that $3?"
  5: 0x002E [0x23] WAIT_FOR_DIALOG_INTERACTION
  6: 0x002F [0x1C] WAIT(5* ticks)
  7: 0x0032 [0x66] LOAD_EXT_SCHEDULER_MAIN: Load scheduler "tlk1" with entities [EventEntity, EventEntity], work=59*
  8: 0x0041 [0x66] LOAD_EXT_SCHEDULER_MAIN: Load scheduler "thk1" with entities [EventEntity, EventEntity], work=59*
  9: 0x0050 [0x1D] PRINT_EVENT_MESSAGE(message_id=12732*)
    → "Amazing--to think I'd actually see a paragon up close! It shines even more brightly than I'd been told!"
 10: 0x0053 [0x23] WAIT_FOR_DIALOG_INTERACTION
 11: 0x0054 [0x66] LOAD_EXT_SCHEDULER_MAIN: Load scheduler "thk2" with entities [EventEntity, EventEntity], work=59*
 12: 0x0063 [0x66] LOAD_EXT_SCHEDULER_MAIN: Load scheduler "tlk0" with entities [EventEntity, EventEntity], work=59*
 13: 0x0072 [0x1D] PRINT_EVENT_MESSAGE(message_id=12733*)
    → "<Cough> Allow me to prrroffer an explanation."
 14: 0x0075 [0x23] WAIT_FOR_DIALOG_INTERACTION
 15: 0x0076 [0x1D] PRINT_EVENT_MESSAGE(message_id=12734*)
    → "Paragons are trrreasures gleaned from vanquishing Naakuals, and the secrets harbored within can be used to inscribe certain curios with arcane glyptics."
 16: 0x0079 [0x23] WAIT_FOR_DIALOG_INTERACTION
 17: 0x007A [0x1D] PRINT_EVENT_MESSAGE(message_id=12735*)
    → "The energies therein are so delicate and purrre that every arcanist in the city is itching to get their hands on them. Imagine the look on Divainy-Gamainy's face when I tell him that I...<cough>"
 18: 0x007D [0x23] WAIT_FOR_DIALOG_INTERACTION
 19: 0x007E [0x1D] PRINT_EVENT_MESSAGE(message_id=12736*)
    → "I've gotten sidetrrracked. The only thing an adventurer needs to know is that one paragon will provide two different arcane glyptics."
 20: 0x0081 [0x23] WAIT_FOR_DIALOG_INTERACTION
 21: 0x0082 [0x1D] PRINT_EVENT_MESSAGE(message_id=12737*)
    → "For example, with weapons, I can inscrrribe..."
 22: 0x0085 [0x23] WAIT_FOR_DIALOG_INTERACTION
 23: 0x0086 [0x66] LOAD_EXT_SCHEDULER_MAIN: Load scheduler "tlk1" with entities [EventEntity, EventEntity], work=59*
 24: 0x0095 [0x3C] SET_BIT_FLAG_CONDITIONAL(target_work_offset=ExtData[1]->WorkLocal[0], bit_index_work_offset=3*, condition_work_offset=1*)
 25: 0x009C [0x24] CREATE_DIALOG(message_id=12752*, default_option=0*, option_flags=ExtData[1]->WorkLocal[0])
    → "Shared arcane glyptics: [Accuracy+30./Magic Accuracy+30./Occasionally attacks twice./Back.]"
 26: 0x00A3 [0x25] WAIT_DIALOG_SELECT()
 27: 0x00A4 [0x02] IF !(Work_Zone[0] == 0*) GOTO 0x00AF
 28: 0x00AC [0x01] GOTO 0x00AF

SUBROUTINE_00AF:
 29: 0x00AF [0x66] LOAD_EXT_SCHEDULER_MAIN: Load scheduler "tlk0" with entities [EventEntity, EventEntity], work=59*
 30: 0x00BE [0x1D] PRINT_EVENT_MESSAGE(message_id=12738*)
    → "And for arrrmor..."
 31: 0x00C1 [0x23] WAIT_FOR_DIALOG_INTERACTION
 32: 0x00C2 [0x66] LOAD_EXT_SCHEDULER_MAIN: Load scheduler "tlk1" with entities [EventEntity, EventEntity], work=59*
 33: 0x00D1 [0x24] CREATE_DIALOG(message_id=12754*, default_option=0*, option_flags=ExtData[1]->WorkLocal[0])
    → "Shared arcane glyptics: [HP+30 MP+30./Physical/Magic damage taken -2%./Haste+2% "Snapshot"+2./Back.]"
 34: 0x00D8 [0x25] WAIT_DIALOG_SELECT()
 35: 0x00D9 [0x02] IF !(Work_Zone[0] == 0*) GOTO 0x00E4
 36: 0x00E1 [0x01] GOTO 0x00E4

SUBROUTINE_00E4:
 37: 0x00E4 [0x66] LOAD_EXT_SCHEDULER_MAIN: Load scheduler "tlk0" with entities [EventEntity, EventEntity], work=59*
 38: 0x00F3 [0x1D] PRINT_EVENT_MESSAGE(message_id=12739*)
    → "That's all there is to it!"
 39: 0x00F6 [0x23] WAIT_FOR_DIALOG_INTERACTION
 40: 0x00F7 [0x1D] PRINT_EVENT_MESSAGE(message_id=12740*)
    → "Ah, but I said that each paragon could provide two glyptics. The second rrrests on the identity of the paragon you bring me."
 41: 0x00FA [0x23] WAIT_FOR_DIALOG_INTERACTION
 42: 0x00FB [0x03] Work_Zone[2] = ExtData[1]->WorkLocal[2]
 43: 0x0100 [0x1D] PRINT_EVENT_MESSAGE(message_id=12741*)
    → "With your $3, I can inscrrribe weapons with..."
 44: 0x0103 [0x23] WAIT_FOR_DIALOG_INTERACTION
 45: 0x0104 [0x66] LOAD_EXT_SCHEDULER_MAIN: Load scheduler "tlk1" with entities [EventEntity, EventEntity], work=59*
 46: 0x0113 [0x02] IF !(ExtData[1]->WorkLocal[2] == 2482*) GOTO 0x0131
 47: 0x011B [0x24] CREATE_DIALOG(message_id=12756*, default_option=0*, option_flags=ExtData[1]->WorkLocal[0])
    → "3: [Evasion+15./"Store TP"+5./Ranged Accuracy+15./Back.]"
 48: 0x0122 [0x25] WAIT_DIALOG_SELECT()
 49: 0x0123 [0x02] IF !(Work_Zone[0] == 0*) GOTO 0x012E
 50: 0x012B [0x01] GOTO 0x012E

SUBROUTINE_012E:
 51: 0x012E [0x01] GOTO 0x01C7
 52: 0x0131 [0x02] IF !(ExtData[1]->WorkLocal[2] == 2483*) GOTO 0x014F
 53: 0x0139 [0x24] CREATE_DIALOG(message_id=12757*, default_option=0*, option_flags=ExtData[1]->WorkLocal[0])
    → "3: [Magic Evasion+15./Magic Accuracy+15./MP+30./Back.]"
 54: 0x0140 [0x25] WAIT_DIALOG_SELECT()
 55: 0x0141 [0x02] IF !(Work_Zone[0] == 0*) GOTO 0x014C
 56: 0x0149 [0x01] GOTO 0x014C

SUBROUTINE_014C:
 57: 0x014C [0x01] GOTO 0x01C7
 58: 0x014F [0x02] IF !(ExtData[1]->WorkLocal[2] == 2484*) GOTO 0x016D
 59: 0x0157 [0x24] CREATE_DIALOG(message_id=12758*, default_option=0*, option_flags=ExtData[1]->WorkLocal[0])
    → "3: [Attack+20./Ranged Attack+20./Weapon skill damage +2%./Back.]"
 60: 0x015E [0x25] WAIT_DIALOG_SELECT()
 61: 0x015F [0x02] IF !(Work_Zone[0] == 0*) GOTO 0x016A
 62: 0x0167 [0x01] GOTO 0x016A

SUBROUTINE_016A:
 63: 0x016A [0x01] GOTO 0x01C7
 64: 0x016D [0x02] IF !(ExtData[1]->WorkLocal[2] == 2485*) GOTO 0x018B
 65: 0x0175 [0x24] CREATE_DIALOG(message_id=12759*, default_option=0*, option_flags=ExtData[1]->WorkLocal[0])
    → "3: [Damage taken -2%./"Regen"+3./"Cure" potency received +5%./Back.]"
 66: 0x017C [0x25] WAIT_DIALOG_SELECT()
 67: 0x017D [0x02] IF !(Work_Zone[0] == 0*) GOTO 0x0188
 68: 0x0185 [0x01] GOTO 0x0188

SUBROUTINE_0188:
 69: 0x0188 [0x01] GOTO 0x01C7
 70: 0x018B [0x02] IF !(ExtData[1]->WorkLocal[2] == 2486*) GOTO 0x01A9
 71: 0x0193 [0x24] CREATE_DIALOG(message_id=12760*, default_option=0*, option_flags=ExtData[1]->WorkLocal[0])
    → "3: [Accuracy+15./Critical hit rate +4%./Critical hit damage +2%./Back.]"
 72: 0x019A [0x25] WAIT_DIALOG_SELECT()
 73: 0x019B [0x02] IF !(Work_Zone[0] == 0*) GOTO 0x01A6
 74: 0x01A3 [0x01] GOTO 0x01A6

SUBROUTINE_01A6:
 75: 0x01A6 [0x01] GOTO 0x01C7
 76: 0x01A9 [0x02] IF !(ExtData[1]->WorkLocal[2] == 2487*) GOTO 0x01C7
 77: 0x01B1 [0x24] CREATE_DIALOG(message_id=12761*, default_option=0*, option_flags=ExtData[1]->WorkLocal[0])
    → "3: ["Magic Atk. Bonus"+10./Magic Damage+15./Enmity-10./Back.]"
 78: 0x01B8 [0x25] WAIT_DIALOG_SELECT()
 79: 0x01B9 [0x02] IF !(Work_Zone[0] == 0*) GOTO 0x01C4
 80: 0x01C1 [0x01] GOTO 0x01C4

SUBROUTINE_01C4:
 81: 0x01C4 [0x01] GOTO 0x01C7

SUBROUTINE_01C7:
 82: 0x01C7 [0x66] LOAD_EXT_SCHEDULER_MAIN: Load scheduler "tlk0" with entities [EventEntity, EventEntity], work=59*
 83: 0x01D6 [0x1D] PRINT_EVENT_MESSAGE(message_id=12738*)
    → "And for arrrmor..."
 84: 0x01D9 [0x23] WAIT_FOR_DIALOG_INTERACTION
 85: 0x01DA [0x66] LOAD_EXT_SCHEDULER_MAIN: Load scheduler "tlk1" with entities [EventEntity, EventEntity], work=59*
 86: 0x01E9 [0x02] IF !(ExtData[1]->WorkLocal[2] == 2482*) GOTO 0x0207
 87: 0x01F1 [0x24] CREATE_DIALOG(message_id=12762*, default_option=0*, option_flags=ExtData[1]->WorkLocal[0])
    → "3: [Evasion+10./AGI+8./"Fast Cast"+3./Back.]"
 88: 0x01F8 [0x25] WAIT_DIALOG_SELECT()
 89: 0x01F9 [0x02] IF !(Work_Zone[0] == 0*) GOTO 0x0204
 90: 0x0201 [0x01] GOTO 0x0204

SUBROUTINE_0204:
 91: 0x0204 [0x01] GOTO 0x029D
 92: 0x0207 [0x02] IF !(ExtData[1]->WorkLocal[2] == 2483*) GOTO 0x0225
 93: 0x020F [0x24] CREATE_DIALOG(message_id=12763*, default_option=0*, option_flags=ExtData[1]->WorkLocal[0])
    → "3: ["Magic Def. Bonus"+2./MND+8./Magic Evasion+10./Back.]"
 94: 0x0216 [0x25] WAIT_DIALOG_SELECT()
 95: 0x0217 [0x02] IF !(Work_Zone[0] == 0*) GOTO 0x0222
 96: 0x021F [0x01] GOTO 0x0222

SUBROUTINE_0222:
 97: 0x0222 [0x01] GOTO 0x029D
 98: 0x0225 [0x02] IF !(ExtData[1]->WorkLocal[2] == 2484*) GOTO 0x0243
 99: 0x022D [0x24] CREATE_DIALOG(message_id=12764*, default_option=0*, option_flags=ExtData[1]->WorkLocal[0])
    → "3: [Attack+10./STR+8./Ranged Attack+10./Back.]"
100: 0x0234 [0x25] WAIT_DIALOG_SELECT()
101: 0x0235 [0x02] IF !(Work_Zone[0] == 0*) GOTO 0x0240
102: 0x023D [0x01] GOTO 0x0240

SUBROUTINE_0240:
103: 0x0240 [0x01] GOTO 0x029D
104: 0x0243 [0x02] IF !(ExtData[1]->WorkLocal[2] == 2485*) GOTO 0x0261
105: 0x024B [0x24] CREATE_DIALOG(message_id=12765*, default_option=0*, option_flags=ExtData[1]->WorkLocal[0])
    → "3: [Physical damage taken -2%./VIT+8./HP+30./Back.]"
106: 0x0252 [0x25] WAIT_DIALOG_SELECT()
107: 0x0253 [0x02] IF !(Work_Zone[0] == 0*) GOTO 0x025E
108: 0x025B [0x01] GOTO 0x025E

SUBROUTINE_025E:
109: 0x025E [0x01] GOTO 0x029D
110: 0x0261 [0x02] IF !(ExtData[1]->WorkLocal[2] == 2486*) GOTO 0x027F
111: 0x0269 [0x24] CREATE_DIALOG(message_id=12766*, default_option=0*, option_flags=ExtData[1]->WorkLocal[0])
    → "3: ["Counter"+2./DEX+8./Skillchain damage +2./Back.]"
112: 0x0270 [0x25] WAIT_DIALOG_SELECT()
113: 0x0271 [0x02] IF !(Work_Zone[0] == 0*) GOTO 0x027C
114: 0x0279 [0x01] GOTO 0x027C

SUBROUTINE_027C:
115: 0x027C [0x01] GOTO 0x029D
116: 0x027F [0x02] IF !(ExtData[1]->WorkLocal[2] == 2487*) GOTO 0x029D
117: 0x0287 [0x24] CREATE_DIALOG(message_id=12767*, default_option=0*, option_flags=ExtData[1]->WorkLocal[0])
    → "3: [Magic Damage+4./INT+8./MP+30./Back.]"
118: 0x028E [0x25] WAIT_DIALOG_SELECT()
119: 0x028F [0x02] IF !(Work_Zone[0] == 0*) GOTO 0x029A
120: 0x0297 [0x01] GOTO 0x029A

SUBROUTINE_029A:
121: 0x029A [0x01] GOTO 0x029D

SUBROUTINE_029D:
122: 0x029D [0x66] LOAD_EXT_SCHEDULER_MAIN: Load scheduler "tlk0" with entities [EventEntity, EventEntity], work=59*
123: 0x02AC [0x1D] PRINT_EVENT_MESSAGE(message_id=12742*)
    → "Worrrking with the paragons is a simple affair, but given the intensity of their auras, I can only inscribe them on very specific equipment."
124: 0x02AF [0x23] WAIT_FOR_DIALOG_INTERACTION
125: 0x02B0 [0x1D] PRINT_EVENT_MESSAGE(message_id=12743*)
    → "They must be able to withstand the infusing process. We artisans refer to these types of equipment as "rrresonant.""
126: 0x02B3 [0x23] WAIT_FOR_DIALOG_INTERACTION
127: 0x02B4 [0x1D] PRINT_EVENT_MESSAGE(message_id=12744*)
    → "But since you have a paragon on hand, then surrrely you have a piece of resonant equipment already."
128: 0x02B7 [0x23] WAIT_FOR_DIALOG_INTERACTION
129: 0x02B8 [0x1D] PRINT_EVENT_MESSAGE(message_id=12745*)
    → "Don't worry about losing equipment unsuited for this endeavor. A veteran of my caliberrr can hold a piece in my paw and know instantly whether or not it would survive the process."
130: 0x02BB [0x23] WAIT_FOR_DIALOG_INTERACTION
131: 0x02BC [0x66] LOAD_EXT_SCHEDULER_MAIN: Load scheduler "tlk1" with entities [EventEntity, EventEntity], work=59*
132: 0x02CB [0x21] END_EVENT
133: 0x02CC [0x00] END_REQSTACK()
```

### Event 5124

#### Metadata

| Field        | Value      |
|--------------|------------|
| Entrypoint   | 0x02CD     |
| Data Size    | 1497 bytes |
| Instructions | 156        |

```
      00 01 02 03 04 05 06 07  08 09 0A 0B 0C 0D 0E 0F
      -- -- -- -- -- -- -- --  -- -- -- -- -- -- -- --
02C0:                                         03 00 00               ...
02D0: 02 10 3E 00 00 00 80 E3  02 3D 00 00 00 80 00 80  ..>......=......
02E0: 01 EA 02 3C 00 00 00 80  00 80 3E 00 00 29 80 FB  ...<......>..)..
02F0: 02 3D 00 00 29 80 00 80  01 02 03 3C 00 00 29 80  .=..)......<..).
0300: 00 80 3E 00 00 0B 80 13  03 3D 00 00 0B 80 00 80  ..>......=......
0310: 01 1A 03 3C 00 00 0B 80  00 80 3E 00 00 2A 80 2B  ...<......>..*.+
0320: 03 3D 00 00 2A 80 00 80  01 32 03 3C 00 00 2A 80  .=..*....2.<..*.
0330: 00 80 3E 00 00 04 80 43  03 3D 00 00 04 80 00 80  ..>....C.=......
0340: 01 4A 03 3C 00 00 04 80  00 80 3E 00 00 2B 80 5B  .J.<......>..+.[
0350: 03 3D 00 00 2B 80 00 80  01 62 03 3C 00 00 2B 80  .=..+....b.<..+.
0360: 00 80 1E F0 FF FF 7F 1C  00 80 66 02 80 F8 FF FF  ..........f.....
0370: 7F F8 FF FF 7F 74 6C 6B  30 1D 2C 80 23 66 02 80  .....tlk0.,.#f..
0380: F8 FF FF 7F F8 FF FF 7F  74 6C 6B 31 24 2D 80 0D  ........tlk1$-..
0390: 80 0D 80 25 02 00 10 0D  80 00 86 08 66 02 80 F8  ...%........f...
03A0: FF FF 7F F8 FF FF 7F 74  6C 6B 30 1D 2E 80 23 66  .......tlk0...#f
03B0: 02 80 F8 FF FF 7F F8 FF  FF 7F 74 6C 6B 31 03 01  ..........tlk1..
03C0: 00 0D 80 03 03 00 0D 80  03 02 10 13 80 03 03 10  ................
03D0: 15 80 03 04 10 17 80 03  05 10 19 80 03 06 10 1B  ................
03E0: 80 03 07 10 1D 80 24 2F  80 03 00 00 00 25 02 00  ......$/.....%..
03F0: 10 0D 80 00 C4 04 03 03  00 00 10 03 02 10 0D 80  ................
0400: 66 02 80 F8 FF FF 7F F8  FF FF 7F 74 6C 6B 30 1D  f..........tlk0.
0410: 30 80 23 66 02 80 F8 FF  FF 7F F8 FF FF 7F 74 6C  0.#f..........tl
0420: 6B 31 3C 01 00 0B 80 00  80 24 0C 80 0D 80 01 00  k1<......$......
0430: 25 02 00 10 0D 80 00 3C  04 01 3C 04 03 02 10 00  %......<..<.....
0440: 80 66 02 80 F8 FF FF 7F  F8 FF FF 7F 74 6C 6B 30  .f..........tlk0
0450: 1D 30 80 23 66 02 80 F8  FF FF 7F F8 FF FF 7F 74  .0.#f..........t
0460: 6C 6B 31 3C 01 00 0B 80  00 80 24 31 80 0D 80 01  lk1<......$1....
0470: 00 25 02 00 10 0D 80 00  7D 04 01 7D 04 03 02 10  .%......}..}....
0480: 29 80 66 02 80 F8 FF FF  7F F8 FF FF 7F 74 6C 6B  ).f..........tlk
0490: 30 1D 30 80 23 66 02 80  F8 FF FF 7F F8 FF FF 7F  0.0.#f..........
04A0: 74 6C 6B 31 3C 01 00 0B  80 00 80 24 0F 80 0D 80  tlk1<......$....
04B0: 01 00 25 02 00 10 0D 80  00 BE 04 01 BE 04 01 C8  ..%.............
04C0: 03 01 83 08 02 00 10 00  80 00 63 05 03 03 00 00  ..........c.....
04D0: 10 03 02 10 13 80 03 03  10 0D 80 66 02 80 F8 FF  ...........f....
04E0: FF 7F F8 FF FF 7F 74 6C  6B 30 1D 32 80 23 66 02  ......tlk0.2.#f.
04F0: 80 F8 FF FF 7F F8 FF FF  7F 74 6C 6B 31 3C 01 00  .........tlk1<..
0500: 0B 80 00 80 24 14 80 0D  80 01 00 25 02 00 10 0D  ....$......%....
0510: 80 00 17 05 01 17 05 03  02 10 13 80 03 03 10 00  ................
0520: 80 66 02 80 F8 FF FF 7F  F8 FF FF 7F 74 6C 6B 30  .f..........tlk0
0530: 1D 32 80 23 66 02 80 F8  FF FF 7F F8 FF FF 7F 74  .2.#f..........t
0540: 6C 6B 31 3C 01 00 0B 80  00 80 24 1F 80 0D 80 01  lk1<......$.....
0550: 00 25 02 00 10 0D 80 00  5D 05 01 5D 05 01 C8 03  .%......]..]....
0560: 01 83 08 02 00 10 29 80  00 FD 05 03 03 00 00 10  ......).........
0570: 03 02 10 15 80 03 03 10  0D 80 66 02 80 F8 FF FF  ..........f.....
0580: 7F F8 FF FF 7F 74 6C 6B  30 1D 32 80 23 66 02 80  .....tlk0.2.#f..
0590: F8 FF FF 7F F8 FF FF 7F  74 6C 6B 31 3C 01 00 0B  ........tlk1<...
05A0: 80 00 80 24 16 80 0D 80  01 00 25 02 00 10 0D 80  ...$......%.....
05B0: 00 B6 05 01 B6 05 03 03  10 00 80 66 02 80 F8 FF  ...........f....
05C0: FF 7F F8 FF FF 7F 74 6C  6B 30 1D 32 80 23 66 02  ......tlk0.2.#f.
05D0: 80 F8 FF FF 7F F8 FF FF  7F 74 6C 6B 31 3C 01 00  .........tlk1<..
05E0: 0B 80 00 80 24 20 80 0D  80 01 00 25 02 00 10 0D  ....$ .....%....
05F0: 80 00 F7 05 01 F7 05 01  C8 03 01 83 08 02 00 10  ................
0600: 0B 80 00 97 06 03 03 00  00 10 03 02 10 17 80 03  ................
0610: 03 10 0D 80 66 02 80 F8  FF FF 7F F8 FF FF 7F 74  ....f..........t
0620: 6C 6B 30 1D 32 80 23 66  02 80 F8 FF FF 7F F8 FF  lk0.2.#f........
0630: FF 7F 74 6C 6B 31 3C 01  00 0B 80 00 80 24 18 80  ..tlk1<......$..
0640: 0D 80 01 00 25 02 00 10  0D 80 00 50 06 01 50 06  ....%......P..P.
0650: 03 03 10 00 80 66 02 80  F8 FF FF 7F F8 FF FF 7F  .....f..........
0660: 74 6C 6B 30 1D 32 80 23  66 02 80 F8 FF FF 7F F8  tlk0.2.#f.......
0670: FF FF 7F 74 6C 6B 31 3C  01 00 0B 80 00 80 24 21  ...tlk1<......$!
0680: 80 0D 80 01 00 25 02 00  10 0D 80 00 91 06 01 91  .....%..........
0690: 06 01 C8 03 01 83 08 02  00 10 2A 80 00 31 07 03  ..........*..1..
06A0: 03 00 00 10 03 02 10 19  80 03 03 10 0D 80 66 02  ..............f.
06B0: 80 F8 FF FF 7F F8 FF FF  7F 74 6C 6B 30 1D 32 80  .........tlk0.2.
06C0: 23 66 02 80 F8 FF FF 7F  F8 FF FF 7F 74 6C 6B 31  #f..........tlk1
06D0: 3C 01 00 0B 80 00 80 24  1A 80 0D 80 01 00 25 02  <......$......%.
06E0: 00 10 0D 80 00 EA 06 01  EA 06 03 03 10 00 80 66  ...............f
06F0: 02 80 F8 FF FF 7F F8 FF  FF 7F 74 6C 6B 30 1D 32  ..........tlk0.2
0700: 80 23 66 02 80 F8 FF FF  7F F8 FF FF 7F 74 6C 6B  .#f..........tlk
0710: 31 3C 01 00 0B 80 00 80  24 22 80 0D 80 01 00 25  1<......$".....%
0720: 02 00 10 0D 80 00 2B 07  01 2B 07 01 C8 03 01 83  ......+..+......
0730: 08 02 00 10 04 80 00 CB  07 03 03 00 00 10 03 02  ................
0740: 10 1B 80 03 03 10 0D 80  66 02 80 F8 FF FF 7F F8  ........f.......
0750: FF FF 7F 74 6C 6B 30 1D  32 80 23 66 02 80 F8 FF  ...tlk0.2.#f....
0760: FF 7F F8 FF FF 7F 74 6C  6B 31 3C 01 00 0B 80 00  ......tlk1<.....
0770: 80 24 1C 80 0D 80 01 00  25 02 00 10 0D 80 00 84  .$......%.......
0780: 07 01 84 07 03 03 10 00  80 66 02 80 F8 FF FF 7F  .........f......
0790: F8 FF FF 7F 74 6C 6B 30  1D 32 80 23 66 02 80 F8  ....tlk0.2.#f...
07A0: FF FF 7F F8 FF FF 7F 74  6C 6B 31 3C 01 00 0B 80  .......tlk1<....
07B0: 00 80 24 23 80 0D 80 01  00 25 02 00 10 0D 80 00  ..$#.....%......
07C0: C5 07 01 C5 07 01 C8 03  01 83 08 02 00 10 2B 80  ..............+.
07D0: 00 65 08 03 03 00 00 10  03 02 10 1D 80 03 03 10  .e..............
07E0: 0D 80 66 02 80 F8 FF FF  7F F8 FF FF 7F 74 6C 6B  ..f..........tlk
07F0: 30 1D 32 80 23 66 02 80  F8 FF FF 7F F8 FF FF 7F  0.2.#f..........
0800: 74 6C 6B 31 3C 01 00 0B  80 00 80 24 1E 80 0D 80  tlk1<......$....
0810: 01 00 25 02 00 10 0D 80  00 1E 08 01 1E 08 03 03  ..%.............
0820: 10 00 80 66 02 80 F8 FF  FF 7F F8 FF FF 7F 74 6C  ...f..........tl
0830: 6B 30 1D 32 80 23 66 02  80 F8 FF FF 7F F8 FF FF  k0.2.#f.........
0840: 7F 74 6C 6B 31 3C 01 00  0B 80 00 80 24 24 80 0D  .tlk1<......$$..
0850: 80 01 00 25 02 00 10 0D  80 00 5F 08 01 5F 08 01  ...%......_.._..
0860: C8 03 01 83 08 02 00 10  33 80 00 83 08 66 02 80  ........3....f..
0870: F8 FF FF 7F F8 FF FF 7F  77 61 76 30 1D 34 80 23  ........wav0.4.#
0880: 01 83 08 01 A4 08 02 00  10 00 80 00 A4 08 66 35  ..............f5
0890: 80 F8 FF FF 7F F8 FF FF  7F 77 61 76 30 1D 34 80  .........wav0.4.
08A0: 23 01 A4 08 21 00                                 #...!.          
```

#### Opcodes

```
  0: 0x02CD [0x03] ExtData[1]->WorkLocal[0] = Work_Zone[2]
  1: 0x02D2 [0x3E] IF !(ExtData[1]->WorkLocal[0] bit 1*) GOTO 0x02E3
  2: 0x02D9 [0x3D] CLEAR_BIT_FLAG_CONDITIONAL(target_work_offset=ExtData[1]->WorkLocal[0], bit_index_work_offset=1*, condition_work_offset=1*)
  3: 0x02E0 [0x01] GOTO 0x02EA
  4: 0x02E3 [0x3C] SET_BIT_FLAG_CONDITIONAL(target_work_offset=ExtData[1]->WorkLocal[0], bit_index_work_offset=1*, condition_work_offset=1*)

SUBROUTINE_02EA:
  5: 0x02EA [0x3E] IF !(ExtData[1]->WorkLocal[0] bit 2*) GOTO 0x02FB
  6: 0x02F1 [0x3D] CLEAR_BIT_FLAG_CONDITIONAL(target_work_offset=ExtData[1]->WorkLocal[0], bit_index_work_offset=2*, condition_work_offset=1*)
  7: 0x02F8 [0x01] GOTO 0x0302
  8: 0x02FB [0x3C] SET_BIT_FLAG_CONDITIONAL(target_work_offset=ExtData[1]->WorkLocal[0], bit_index_work_offset=2*, condition_work_offset=1*)

SUBROUTINE_0302:
  9: 0x0302 [0x3E] IF !(ExtData[1]->WorkLocal[0] bit 3*) GOTO 0x0313
 10: 0x0309 [0x3D] CLEAR_BIT_FLAG_CONDITIONAL(target_work_offset=ExtData[1]->WorkLocal[0], bit_index_work_offset=3*, condition_work_offset=1*)
 11: 0x0310 [0x01] GOTO 0x031A
 12: 0x0313 [0x3C] SET_BIT_FLAG_CONDITIONAL(target_work_offset=ExtData[1]->WorkLocal[0], bit_index_work_offset=3*, condition_work_offset=1*)

SUBROUTINE_031A:
 13: 0x031A [0x3E] IF !(ExtData[1]->WorkLocal[0] bit 4*) GOTO 0x032B
 14: 0x0321 [0x3D] CLEAR_BIT_FLAG_CONDITIONAL(target_work_offset=ExtData[1]->WorkLocal[0], bit_index_work_offset=4*, condition_work_offset=1*)
 15: 0x0328 [0x01] GOTO 0x0332
 16: 0x032B [0x3C] SET_BIT_FLAG_CONDITIONAL(target_work_offset=ExtData[1]->WorkLocal[0], bit_index_work_offset=4*, condition_work_offset=1*)

SUBROUTINE_0332:
 17: 0x0332 [0x3E] IF !(ExtData[1]->WorkLocal[0] bit 5*) GOTO 0x0343
 18: 0x0339 [0x3D] CLEAR_BIT_FLAG_CONDITIONAL(target_work_offset=ExtData[1]->WorkLocal[0], bit_index_work_offset=5*, condition_work_offset=1*)
 19: 0x0340 [0x01] GOTO 0x034A
 20: 0x0343 [0x3C] SET_BIT_FLAG_CONDITIONAL(target_work_offset=ExtData[1]->WorkLocal[0], bit_index_work_offset=5*, condition_work_offset=1*)

SUBROUTINE_034A:
 21: 0x034A [0x3E] IF !(ExtData[1]->WorkLocal[0] bit 6*) GOTO 0x035B
 22: 0x0351 [0x3D] CLEAR_BIT_FLAG_CONDITIONAL(target_work_offset=ExtData[1]->WorkLocal[0], bit_index_work_offset=6*, condition_work_offset=1*)
 23: 0x0358 [0x01] GOTO 0x0362
 24: 0x035B [0x3C] SET_BIT_FLAG_CONDITIONAL(target_work_offset=ExtData[1]->WorkLocal[0], bit_index_work_offset=6*, condition_work_offset=1*)

SUBROUTINE_0362:
 25: 0x0362 [0x1E] EventEntity looks at LocalPlayer and starts talking
 26: 0x0367 [0x1C] WAIT(1* ticks)
 27: 0x036A [0x66] LOAD_EXT_SCHEDULER_MAIN: Load scheduler "tlk0" with entities [EventEntity, EventEntity], work=59*
 28: 0x0379 [0x1D] PRINT_EVENT_MESSAGE(message_id=12746*)
    → "Any questions, or should we get to worrrk?"
 29: 0x037C [0x23] WAIT_FOR_DIALOG_INTERACTION
 30: 0x037D [0x66] LOAD_EXT_SCHEDULER_MAIN: Load scheduler "tlk1" with entities [EventEntity, EventEntity], work=59*
 31: 0x038C [0x24] CREATE_DIALOG(message_id=12747*, default_option=0*, option_flags=0*)
    → "What will you ask? [To see the list of arcane glyptics./Nothing.]"
 32: 0x0393 [0x25] WAIT_DIALOG_SELECT()
 33: 0x0394 [0x02] IF !(Work_Zone[0] == 0*) GOTO 0x0886
 34: 0x039C [0x66] LOAD_EXT_SCHEDULER_MAIN: Load scheduler "tlk0" with entities [EventEntity, EventEntity], work=59*
 35: 0x03AB [0x1D] PRINT_EVENT_MESSAGE(message_id=12749*)
    → "Which parrragon are you interested in?"
 36: 0x03AE [0x23] WAIT_FOR_DIALOG_INTERACTION
 37: 0x03AF [0x66] LOAD_EXT_SCHEDULER_MAIN: Load scheduler "tlk1" with entities [EventEntity, EventEntity], work=59*
 38: 0x03BE [0x03] ExtData[1]->WorkLocal[1] = 0*
 39: 0x03C3 [0x03] ExtData[1]->WorkLocal[3] = 0*

SUBROUTINE_03C8:
 40: 0x03C8 [0x03] Work_Zone[2] = 2482*
 41: 0x03CD [0x03] Work_Zone[3] = 2483*
 42: 0x03D2 [0x03] Work_Zone[4] = 2484*
 43: 0x03D7 [0x03] Work_Zone[5] = 2485*
 44: 0x03DC [0x03] Work_Zone[6] = 2486*
 45: 0x03E1 [0x03] Work_Zone[7] = 2487*
 46: 0x03E6 [0x24] CREATE_DIALOG(message_id=12750*, default_option=ExtData[1]->WorkLocal[3], option_flags=ExtData[1]->WorkLocal[0])
    → "View which paragon? [Shared arcane glyptics./3./$3./$3./$3./$3./$3./Back.]"
 47: 0x03ED [0x25] WAIT_DIALOG_SELECT()
 48: 0x03EE [0x02] IF !(Work_Zone[0] == 0*) GOTO 0x04C4
 49: 0x03F6 [0x03] ExtData[1]->WorkLocal[3] = Work_Zone[0]
 50: 0x03FB [0x03] Work_Zone[2] = 0*
 51: 0x0400 [0x66] LOAD_EXT_SCHEDULER_MAIN: Load scheduler "tlk0" with entities [EventEntity, EventEntity], work=59*
 52: 0x040F [0x1D] PRINT_EVENT_MESSAGE(message_id=12751*)
    → "I can inscrrribe the following on [weapons/ranged weapons/armor]."
 53: 0x0412 [0x23] WAIT_FOR_DIALOG_INTERACTION
 54: 0x0413 [0x66] LOAD_EXT_SCHEDULER_MAIN: Load scheduler "tlk1" with entities [EventEntity, EventEntity], work=59*
 55: 0x0422 [0x3C] SET_BIT_FLAG_CONDITIONAL(target_work_offset=ExtData[1]->WorkLocal[1], bit_index_work_offset=3*, condition_work_offset=1*)
 56: 0x0429 [0x24] CREATE_DIALOG(message_id=12752*, default_option=0*, option_flags=ExtData[1]->WorkLocal[1])
    → "Shared arcane glyptics: [Accuracy+30./Magic Accuracy+30./Occasionally attacks twice./Back.]"
 57: 0x0430 [0x25] WAIT_DIALOG_SELECT()
 58: 0x0431 [0x02] IF !(Work_Zone[0] == 0*) GOTO 0x043C
 59: 0x0439 [0x01] GOTO 0x043C

SUBROUTINE_043C:
 60: 0x043C [0x03] Work_Zone[2] = 1*
 61: 0x0441 [0x66] LOAD_EXT_SCHEDULER_MAIN: Load scheduler "tlk0" with entities [EventEntity, EventEntity], work=59*
 62: 0x0450 [0x1D] PRINT_EVENT_MESSAGE(message_id=12751*)
    → "I can inscrrribe the following on [weapons/ranged weapons/armor]."
 63: 0x0453 [0x23] WAIT_FOR_DIALOG_INTERACTION
 64: 0x0454 [0x66] LOAD_EXT_SCHEDULER_MAIN: Load scheduler "tlk1" with entities [EventEntity, EventEntity], work=59*
 65: 0x0463 [0x3C] SET_BIT_FLAG_CONDITIONAL(target_work_offset=ExtData[1]->WorkLocal[1], bit_index_work_offset=3*, condition_work_offset=1*)
 66: 0x046A [0x24] CREATE_DIALOG(message_id=12753*, default_option=0*, option_flags=ExtData[1]->WorkLocal[1])
    → "Shared arcane glyptics: [Ranged Accuracy+30./Magic Accuracy+30./Occasionally attacks twice./Back.]"
 67: 0x0471 [0x25] WAIT_DIALOG_SELECT()
 68: 0x0472 [0x02] IF !(Work_Zone[0] == 0*) GOTO 0x047D
 69: 0x047A [0x01] GOTO 0x047D

SUBROUTINE_047D:
 70: 0x047D [0x03] Work_Zone[2] = 2*
 71: 0x0482 [0x66] LOAD_EXT_SCHEDULER_MAIN: Load scheduler "tlk0" with entities [EventEntity, EventEntity], work=59*
 72: 0x0491 [0x1D] PRINT_EVENT_MESSAGE(message_id=12751*)
    → "I can inscrrribe the following on [weapons/ranged weapons/armor]."
 73: 0x0494 [0x23] WAIT_FOR_DIALOG_INTERACTION
 74: 0x0495 [0x66] LOAD_EXT_SCHEDULER_MAIN: Load scheduler "tlk1" with entities [EventEntity, EventEntity], work=59*
 75: 0x04A4 [0x3C] SET_BIT_FLAG_CONDITIONAL(target_work_offset=ExtData[1]->WorkLocal[1], bit_index_work_offset=3*, condition_work_offset=1*)
 76: 0x04AB [0x24] CREATE_DIALOG(message_id=12754*, default_option=0*, option_flags=ExtData[1]->WorkLocal[1])
    → "Shared arcane glyptics: [HP+30 MP+30./Physical/Magic damage taken -2%./Haste+2% "Snapshot"+2./Back.]"
 77: 0x04B2 [0x25] WAIT_DIALOG_SELECT()
 78: 0x04B3 [0x02] IF !(Work_Zone[0] == 0*) GOTO 0x04BE
 79: 0x04BB [0x01] GOTO 0x04BE

SUBROUTINE_04BE:
 80: 0x04BE [0x01] GOTO 0x03C8

SUBROUTINE_0517:
 81: 0x0517 [0x03] Work_Zone[2] = 2482*
 82: 0x051C [0x03] Work_Zone[3] = 1*
 83: 0x0521 [0x66] LOAD_EXT_SCHEDULER_MAIN: Load scheduler "tlk0" with entities [EventEntity, EventEntity], work=59*
 84: 0x0530 [0x1D] PRINT_EVENT_MESSAGE(message_id=12755*)
    → "I can inscrrribe the following arcane glyptics unique to $6 on [weapons/armor]."
 85: 0x0533 [0x23] WAIT_FOR_DIALOG_INTERACTION
 86: 0x0534 [0x66] LOAD_EXT_SCHEDULER_MAIN: Load scheduler "tlk1" with entities [EventEntity, EventEntity], work=59*
 87: 0x0543 [0x3C] SET_BIT_FLAG_CONDITIONAL(target_work_offset=ExtData[1]->WorkLocal[1], bit_index_work_offset=3*, condition_work_offset=1*)
 88: 0x054A [0x24] CREATE_DIALOG(message_id=12762*, default_option=0*, option_flags=ExtData[1]->WorkLocal[1])
    → "3: [Evasion+10./AGI+8./"Fast Cast"+3./Back.]"
 89: 0x0551 [0x25] WAIT_DIALOG_SELECT()
 90: 0x0552 [0x02] IF !(Work_Zone[0] == 0*) GOTO 0x055D
 91: 0x055A [0x01] GOTO 0x055D

SUBROUTINE_055D:
 92: 0x055D [0x01] GOTO 0x03C8

SUBROUTINE_05B6:
 93: 0x05B6 [0x03] Work_Zone[3] = 1*
 94: 0x05BB [0x66] LOAD_EXT_SCHEDULER_MAIN: Load scheduler "tlk0" with entities [EventEntity, EventEntity], work=59*
 95: 0x05CA [0x1D] PRINT_EVENT_MESSAGE(message_id=12755*)
    → "I can inscrrribe the following arcane glyptics unique to $6 on [weapons/armor]."
 96: 0x05CD [0x23] WAIT_FOR_DIALOG_INTERACTION
 97: 0x05CE [0x66] LOAD_EXT_SCHEDULER_MAIN: Load scheduler "tlk1" with entities [EventEntity, EventEntity], work=59*
 98: 0x05DD [0x3C] SET_BIT_FLAG_CONDITIONAL(target_work_offset=ExtData[1]->WorkLocal[1], bit_index_work_offset=3*, condition_work_offset=1*)
 99: 0x05E4 [0x24] CREATE_DIALOG(message_id=12763*, default_option=0*, option_flags=ExtData[1]->WorkLocal[1])
    → "3: ["Magic Def. Bonus"+2./MND+8./Magic Evasion+10./Back.]"
100: 0x05EB [0x25] WAIT_DIALOG_SELECT()
101: 0x05EC [0x02] IF !(Work_Zone[0] == 0*) GOTO 0x05F7
102: 0x05F4 [0x01] GOTO 0x05F7

SUBROUTINE_05F7:
103: 0x05F7 [0x01] GOTO 0x03C8

SUBROUTINE_0650:
104: 0x0650 [0x03] Work_Zone[3] = 1*
105: 0x0655 [0x66] LOAD_EXT_SCHEDULER_MAIN: Load scheduler "tlk0" with entities [EventEntity, EventEntity], work=59*
106: 0x0664 [0x1D] PRINT_EVENT_MESSAGE(message_id=12755*)
    → "I can inscrrribe the following arcane glyptics unique to $6 on [weapons/armor]."
107: 0x0667 [0x23] WAIT_FOR_DIALOG_INTERACTION
108: 0x0668 [0x66] LOAD_EXT_SCHEDULER_MAIN: Load scheduler "tlk1" with entities [EventEntity, EventEntity], work=59*
109: 0x0677 [0x3C] SET_BIT_FLAG_CONDITIONAL(target_work_offset=ExtData[1]->WorkLocal[1], bit_index_work_offset=3*, condition_work_offset=1*)
110: 0x067E [0x24] CREATE_DIALOG(message_id=12764*, default_option=0*, option_flags=ExtData[1]->WorkLocal[1])
    → "3: [Attack+10./STR+8./Ranged Attack+10./Back.]"
111: 0x0685 [0x25] WAIT_DIALOG_SELECT()
112: 0x0686 [0x02] IF !(Work_Zone[0] == 0*) GOTO 0x0691
113: 0x068E [0x01] GOTO 0x0691

SUBROUTINE_0691:
114: 0x0691 [0x01] GOTO 0x03C8

SUBROUTINE_06EA:
115: 0x06EA [0x03] Work_Zone[3] = 1*
116: 0x06EF [0x66] LOAD_EXT_SCHEDULER_MAIN: Load scheduler "tlk0" with entities [EventEntity, EventEntity], work=59*
117: 0x06FE [0x1D] PRINT_EVENT_MESSAGE(message_id=12755*)
    → "I can inscrrribe the following arcane glyptics unique to $6 on [weapons/armor]."
118: 0x0701 [0x23] WAIT_FOR_DIALOG_INTERACTION
119: 0x0702 [0x66] LOAD_EXT_SCHEDULER_MAIN: Load scheduler "tlk1" with entities [EventEntity, EventEntity], work=59*
120: 0x0711 [0x3C] SET_BIT_FLAG_CONDITIONAL(target_work_offset=ExtData[1]->WorkLocal[1], bit_index_work_offset=3*, condition_work_offset=1*)
121: 0x0718 [0x24] CREATE_DIALOG(message_id=12765*, default_option=0*, option_flags=ExtData[1]->WorkLocal[1])
    → "3: [Physical damage taken -2%./VIT+8./HP+30./Back.]"
122: 0x071F [0x25] WAIT_DIALOG_SELECT()
123: 0x0720 [0x02] IF !(Work_Zone[0] == 0*) GOTO 0x072B
124: 0x0728 [0x01] GOTO 0x072B

SUBROUTINE_072B:
125: 0x072B [0x01] GOTO 0x03C8

SUBROUTINE_0784:
126: 0x0784 [0x03] Work_Zone[3] = 1*
127: 0x0789 [0x66] LOAD_EXT_SCHEDULER_MAIN: Load scheduler "tlk0" with entities [EventEntity, EventEntity], work=59*
128: 0x0798 [0x1D] PRINT_EVENT_MESSAGE(message_id=12755*)
    → "I can inscrrribe the following arcane glyptics unique to $6 on [weapons/armor]."
129: 0x079B [0x23] WAIT_FOR_DIALOG_INTERACTION
130: 0x079C [0x66] LOAD_EXT_SCHEDULER_MAIN: Load scheduler "tlk1" with entities [EventEntity, EventEntity], work=59*
131: 0x07AB [0x3C] SET_BIT_FLAG_CONDITIONAL(target_work_offset=ExtData[1]->WorkLocal[1], bit_index_work_offset=3*, condition_work_offset=1*)
132: 0x07B2 [0x24] CREATE_DIALOG(message_id=12766*, default_option=0*, option_flags=ExtData[1]->WorkLocal[1])
    → "3: ["Counter"+2./DEX+8./Skillchain damage +2./Back.]"
133: 0x07B9 [0x25] WAIT_DIALOG_SELECT()
134: 0x07BA [0x02] IF !(Work_Zone[0] == 0*) GOTO 0x07C5
135: 0x07C2 [0x01] GOTO 0x07C5

SUBROUTINE_07C5:
136: 0x07C5 [0x01] GOTO 0x03C8

SUBROUTINE_081E:
137: 0x081E [0x03] Work_Zone[3] = 1*
138: 0x0823 [0x66] LOAD_EXT_SCHEDULER_MAIN: Load scheduler "tlk0" with entities [EventEntity, EventEntity], work=59*
139: 0x0832 [0x1D] PRINT_EVENT_MESSAGE(message_id=12755*)
    → "I can inscrrribe the following arcane glyptics unique to $6 on [weapons/armor]."
140: 0x0835 [0x23] WAIT_FOR_DIALOG_INTERACTION
141: 0x0836 [0x66] LOAD_EXT_SCHEDULER_MAIN: Load scheduler "tlk1" with entities [EventEntity, EventEntity], work=59*
142: 0x0845 [0x3C] SET_BIT_FLAG_CONDITIONAL(target_work_offset=ExtData[1]->WorkLocal[1], bit_index_work_offset=3*, condition_work_offset=1*)
143: 0x084C [0x24] CREATE_DIALOG(message_id=12767*, default_option=0*, option_flags=ExtData[1]->WorkLocal[1])
    → "3: [Magic Damage+4./INT+8./MP+30./Back.]"
144: 0x0853 [0x25] WAIT_DIALOG_SELECT()
145: 0x0854 [0x02] IF !(Work_Zone[0] == 0*) GOTO 0x085F
146: 0x085C [0x01] GOTO 0x085F

SUBROUTINE_085F:
147: 0x085F [0x01] GOTO 0x03C8

SUBROUTINE_0883:
148: 0x0883 [0x01] GOTO 0x08A4
149: 0x0886 [0x02] IF !(Work_Zone[0] == 1*) GOTO 0x08A4
150: 0x088E [0x66] LOAD_EXT_SCHEDULER_MAIN: Load scheduler "wav0" with entities [EventEntity, EventEntity], work=52*
151: 0x089D [0x1D] PRINT_EVENT_MESSAGE(message_id=12748*)
    → "Leaving so soon? Come back if you need me to lend a paw!"
152: 0x08A0 [0x23] WAIT_FOR_DIALOG_INTERACTION
153: 0x08A1 [0x01] GOTO 0x08A4

SUBROUTINE_08A4:
154: 0x08A4 [0x21] END_EVENT
155: 0x08A5 [0x00] END_REQSTACK()
```

#### Data or dead code:

```
# Dead code (unreachable instructions):
     0x04C1 [0x01] GOTO 0x0883
# Dead code (unreachable instructions):
     0x0560 [0x01] GOTO 0x0883
# Dead code (unreachable instructions):
     0x05FA [0x01] GOTO 0x0883
# Dead code (unreachable instructions):
     0x0694 [0x01] GOTO 0x0883
# Dead code (unreachable instructions):
     0x072E [0x01] GOTO 0x0883
# Dead code (unreachable instructions):
     0x07C8 [0x01] GOTO 0x0883
# Dead code (unreachable instructions):
     0x0862 [0x01] GOTO 0x0883
```

### Event 5126

#### Metadata

| Field        | Value      |
|--------------|------------|
| Entrypoint   | 0x08A6     |
| Data Size    | 2978 bytes |
| Instructions | 449        |

```
      00 01 02 03 04 05 06 07  08 09 0A 0B 0C 0D 0E 0F
      -- -- -- -- -- -- -- --  -- -- -- -- -- -- -- --
08A0:                   42 03  00 00 02 10 3E 00 00 0D        B.....>...
08B0: 80 BD 08 3D 00 00 0D 80  00 80 01 C4 08 3C 00 00  ...=.........<..
08C0: 0D 80 00 80 3E 00 00 00  80 D5 08 3D 00 00 00 80  ....>......=....
08D0: 00 80 01 DC 08 3C 00 00  00 80 00 80 3E 00 00 29  .....<......>..)
08E0: 80 ED 08 3D 00 00 29 80  00 80 01 F4 08 3C 00 00  ...=..)......<..
08F0: 29 80 00 80 3E 00 00 0B  80 05 09 3D 00 00 0B 80  )...>......=....
0900: 00 80 01 0C 09 3C 00 00  0B 80 00 80 3E 00 00 2A  .....<......>..*
0910: 80 1D 09 3D 00 00 2A 80  00 80 01 24 09 3C 00 00  ...=..*....$.<..
0920: 2A 80 00 80 3E 00 00 04  80 35 09 3D 00 00 04 80  *...>....5.=....
0930: 00 80 01 3C 09 3C 00 00  04 80 00 80 03 04 00 03  ...<.<..........
0940: 10 1E F0 FF FF 7F 1C 00  80 6E F8 FF FF 7F 33 80  .........n....3.
0950: 99 F8 FF FF 7F 99 F8 FF  FF 7F 66 02 80 F8 FF FF  ..........f.....
0960: 7F F8 FF FF 7F 74 6C 6B  30 1D 36 80 23 66 02 80  .....tlk0.6.#f..
0970: F8 FF FF 7F F8 FF FF 7F  74 6C 6B 31 03 07 00 0D  ........tlk1....
0980: 80 03 01 10 0D 80 03 02  10 13 80 03 03 10 15 80  ................
0990: 03 04 10 17 80 03 05 10  19 80 03 06 10 1B 80 03  ................
09A0: 07 10 1D 80 03 05 00 0D  80 03 06 00 0D 80 24 37  ..............$7
09B0: 80 07 00 00 00 25 02 00  10 0D 80 00 6E 0B 03 07  .....%......n...
09C0: 00 00 10 03 02 10 13 80  66 02 80 F8 FF FF 7F F8  ........f.......
09D0: FF FF 7F 74 6C 6B 30 1D  38 80 23 66 02 80 F8 FF  ...tlk0.8.#f....
09E0: FF 7F F8 FF FF 7F 74 6C  6B 31 03 02 10 0D 80 48  ......tlk1.....H
09F0: 39 80 23 03 02 10 13 80  24 0C 80 0D 80 0D 80 25  9.#.....$......%
0A00: 02 00 10 0D 80 00 19 0A  03 05 00 3A 80 40 2A 80  ...........:.@*.
0A10: 33 80 01 10 00 10 01 59  0A 02 00 10 00 80 00 32  3......Y.......2
0A20: 0A 03 05 00 3B 80 40 2A  80 33 80 01 10 00 10 01  ....;.@*.3......
0A30: 59 0A 02 00 10 29 80 00  4B 0A 03 05 00 3C 80 40  Y....)..K....<.@
0A40: 2A 80 33 80 01 10 00 10  01 59 0A 02 00 10 0B 80  *.3......Y......
0A50: 00 59 0A 01 81 09 01 59  0A 03 02 10 00 80 48 39  .Y.....Y......H9
0A60: 80 23 03 02 10 13 80 24  14 80 0D 80 0D 80 25 02  .#.....$......%.
0A70: 00 10 0D 80 00 88 0A 03  06 00 3D 80 40 3E 80 3F  ..........=.@>.?
0A80: 80 01 10 00 10 01 C8 0A  02 00 10 00 80 00 A1 0A  ................
0A90: 03 06 00 40 80 40 3E 80  3F 80 01 10 00 10 01 C8  ...@.@>.?.......
0AA0: 0A 02 00 10 29 80 00 BA  0A 03 06 00 41 80 40 3E  ....).......A.@>
0AB0: 80 3F 80 01 10 00 10 01  C8 0A 02 00 10 0B 80 00  .?..............
0AC0: C8 0A 01 81 09 01 C8 0A  03 02 10 04 00 CC 01 02  ................
0AD0: 10 29 80 05 00 06 00 66  02 80 F8 FF FF 7F F8 FF  .).....f........
0AE0: FF 7F 74 6C 6B 30 1D 42  80 23 66 02 80 F8 FF FF  ..tlk0.B.#f.....
0AF0: 7F F8 FF FF 7F 74 6C 6B  31 93 0D 80 24 43 80 00  .....tlk1...$C..
0B00: 80 0D 80 25 02 00 10 0D  80 00 2B 0B 66 44 80 F8  ...%......+.fD..
0B10: FF FF 7F F8 FF FF 7F 70  61 73 30 1D 45 80 23 40  .......pas0.E.#@
0B20: 0D 80 0B 80 01 10 00 80  01 6B 0B 02 00 10 00 80  .........k......
0B30: 00 39 0B 01 81 09 01 6B  0B 02 00 10 29 80 00 6B  .9.....k....)..k
0B40: 0B 66 02 80 F8 FF FF 7F  F8 FF FF 7F 74 6C 6B 30  .f..........tlk0
0B50: 1D 46 80 23 66 02 80 F8  FF FF 7F F8 FF FF 7F 74  .F.#f..........t
0B60: 6C 6B 31 03 01 10 0D 80  01 6B 0B 01 45 14 02 00  lk1......k..E...
0B70: 10 00 80 00 26 0D 03 07  00 00 10 03 02 10 15 80  ....&...........
0B80: 66 02 80 F8 FF FF 7F F8  FF FF 7F 74 6C 6B 30 1D  f..........tlk0.
0B90: 38 80 23 66 02 80 F8 FF  FF 7F F8 FF FF 7F 74 6C  8.#f..........tl
0BA0: 6B 31 03 02 10 0D 80 48  39 80 23 03 02 10 15 80  k1.....H9.#.....
0BB0: 24 0C 80 0D 80 0D 80 25  02 00 10 0D 80 00 D1 0B  $......%........
0BC0: 03 05 00 3A 80 40 2A 80  33 80 01 10 00 10 01 11  ...:.@*.3.......
0BD0: 0C 02 00 10 00 80 00 EA  0B 03 05 00 3B 80 40 2A  ............;.@*
0BE0: 80 33 80 01 10 00 10 01  11 0C 02 00 10 29 80 00  .3...........)..
0BF0: 03 0C 03 05 00 3C 80 40  2A 80 33 80 01 10 00 10  .....<.@*.3.....
0C00: 01 11 0C 02 00 10 0B 80  00 11 0C 01 81 09 01 11  ................
0C10: 0C 03 02 10 00 80 48 39  80 23 03 02 10 15 80 24  ......H9.#.....$
0C20: 16 80 0D 80 0D 80 25 02  00 10 0D 80 00 40 0C 03  ......%......@..
0C30: 06 00 47 80 40 3E 80 3F  80 01 10 00 10 01 80 0C  ..G.@>.?........
0C40: 02 00 10 00 80 00 59 0C  03 06 00 48 80 40 3E 80  ......Y....H.@>.
0C50: 3F 80 01 10 00 10 01 80  0C 02 00 10 29 80 00 72  ?...........)..r
0C60: 0C 03 06 00 49 80 40 3E  80 3F 80 01 10 00 10 01  ....I.@>.?......
0C70: 80 0C 02 00 10 0B 80 00  80 0C 01 81 09 01 80 0C  ................
0C80: 03 02 10 04 00 CC 01 02  10 29 80 05 00 06 00 66  .........).....f
0C90: 02 80 F8 FF FF 7F F8 FF  FF 7F 74 6C 6B 30 1D 42  ..........tlk0.B
0CA0: 80 23 66 02 80 F8 FF FF  7F F8 FF FF 7F 74 6C 6B  .#f..........tlk
0CB0: 31 93 0D 80 24 43 80 00  80 0D 80 25 02 00 10 0D  1...$C.....%....
0CC0: 80 00 E3 0C 66 44 80 F8  FF FF 7F F8 FF FF 7F 70  ....fD.........p
0CD0: 61 73 30 1D 45 80 23 40  0D 80 0B 80 01 10 29 80  as0.E.#@......).
0CE0: 01 23 0D 02 00 10 00 80  00 F1 0C 01 81 09 01 23  .#.............#
0CF0: 0D 02 00 10 29 80 00 23  0D 66 02 80 F8 FF FF 7F  ....)..#.f......
0D00: F8 FF FF 7F 74 6C 6B 30  1D 46 80 23 66 02 80 F8  ....tlk0.F.#f...
0D10: FF FF 7F F8 FF FF 7F 74  6C 6B 31 03 01 10 0D 80  .......tlk1.....
0D20: 01 23 0D 01 45 14 02 00  10 29 80 00 DE 0E 03 07  .#..E....)......
0D30: 00 00 10 03 02 10 17 80  66 02 80 F8 FF FF 7F F8  ........f.......
0D40: FF FF 7F 74 6C 6B 30 1D  38 80 23 66 02 80 F8 FF  ...tlk0.8.#f....
0D50: FF 7F F8 FF FF 7F 74 6C  6B 31 03 02 10 0D 80 48  ......tlk1.....H
0D60: 39 80 23 03 02 10 17 80  24 0C 80 0D 80 0D 80 25  9.#.....$......%
0D70: 02 00 10 0D 80 00 89 0D  03 05 00 3A 80 40 2A 80  ...........:.@*.
0D80: 33 80 01 10 00 10 01 C9  0D 02 00 10 00 80 00 A2  3...............
0D90: 0D 03 05 00 3B 80 40 2A  80 33 80 01 10 00 10 01  ....;.@*.3......
0DA0: C9 0D 02 00 10 29 80 00  BB 0D 03 05 00 3C 80 40  .....).......<.@
0DB0: 2A 80 33 80 01 10 00 10  01 C9 0D 02 00 10 0B 80  *.3.............
0DC0: 00 C9 0D 01 81 09 01 C9  0D 03 02 10 00 80 48 39  ..............H9
0DD0: 80 23 03 02 10 17 80 24  18 80 0D 80 0D 80 25 02  .#.....$......%.
0DE0: 00 10 0D 80 00 F8 0D 03  06 00 4A 80 40 3E 80 3F  ..........J.@>.?
0DF0: 80 01 10 00 10 01 38 0E  02 00 10 00 80 00 11 0E  ......8.........
0E00: 03 06 00 4B 80 40 3E 80  3F 80 01 10 00 10 01 38  ...K.@>.?......8
0E10: 0E 02 00 10 29 80 00 2A  0E 03 06 00 4C 80 40 3E  ....)..*....L.@>
0E20: 80 3F 80 01 10 00 10 01  38 0E 02 00 10 0B 80 00  .?......8.......
0E30: 38 0E 01 81 09 01 38 0E  03 02 10 04 00 CC 01 02  8.....8.........
0E40: 10 29 80 05 00 06 00 66  02 80 F8 FF FF 7F F8 FF  .).....f........
0E50: FF 7F 74 6C 6B 30 1D 42  80 23 66 02 80 F8 FF FF  ..tlk0.B.#f.....
0E60: 7F F8 FF FF 7F 74 6C 6B  31 93 0D 80 24 43 80 00  .....tlk1...$C..
0E70: 80 0D 80 25 02 00 10 0D  80 00 9B 0E 66 44 80 F8  ...%........fD..
0E80: FF FF 7F F8 FF FF 7F 70  61 73 30 1D 45 80 23 40  .......pas0.E.#@
0E90: 0D 80 0B 80 01 10 0B 80  01 DB 0E 02 00 10 00 80  ................
0EA0: 00 A9 0E 01 81 09 01 DB  0E 02 00 10 29 80 00 DB  ............)...
0EB0: 0E 66 02 80 F8 FF FF 7F  F8 FF FF 7F 74 6C 6B 30  .f..........tlk0
0EC0: 1D 46 80 23 66 02 80 F8  FF FF 7F F8 FF FF 7F 74  .F.#f..........t
0ED0: 6C 6B 31 03 01 10 0D 80  01 DB 0E 01 45 14 02 00  lk1.........E...
0EE0: 10 0B 80 00 A3 10 03 07  00 00 10 03 02 10 19 80  ................
0EF0: 66 02 80 F8 FF FF 7F F8  FF FF 7F 74 6C 6B 30 1D  f..........tlk0.
0F00: 38 80 23 66 02 80 F8 FF  FF 7F F8 FF FF 7F 74 6C  8.#f..........tl
0F10: 6B 31 03 02 10 0D 80 48  39 80 23 03 02 10 19 80  k1.....H9.#.....
0F20: 24 0C 80 0D 80 0D 80 25  02 00 10 0D 80 00 41 0F  $......%......A.
0F30: 03 05 00 3A 80 40 2A 80  33 80 01 10 00 10 01 81  ...:.@*.3.......
0F40: 0F 02 00 10 00 80 00 5A  0F 03 05 00 3B 80 40 2A  .......Z....;.@*
0F50: 80 33 80 01 10 00 10 01  81 0F 02 00 10 29 80 00  .3...........)..
0F60: 73 0F 03 05 00 3C 80 40  2A 80 33 80 01 10 00 10  s....<.@*.3.....
0F70: 01 81 0F 02 00 10 0B 80  00 81 0F 01 81 09 01 81  ................
0F80: 0F 03 02 10 00 80 48 39  80 23 03 02 10 19 80 24  ......H9.#.....$
0F90: 1A 80 0D 80 0D 80 25 02  00 10 0D 80 00 BD 0F 40  ......%........@
0FA0: 0D 80 4D 80 06 00 4E 80  40 4F 80 50 80 06 00 51  ..M...N.@O.P...Q
0FB0: 80 40 3E 80 3F 80 01 10  00 10 01 FD 0F 02 00 10  .@>.?...........
0FC0: 00 80 00 D6 0F 03 06 00  52 80 40 3E 80 3F 80 01  ........R.@>.?..
0FD0: 10 00 10 01 FD 0F 02 00  10 29 80 00 EF 0F 03 06  .........)......
0FE0: 00 53 80 40 3E 80 3F 80  01 10 00 10 01 FD 0F 02  .S.@>.?.........
0FF0: 00 10 0B 80 00 FD 0F 01  81 09 01 FD 0F 03 02 10  ................
1000: 04 00 CC 01 02 10 29 80  05 00 06 00 66 02 80 F8  ......).....f...
1010: FF FF 7F F8 FF FF 7F 74  6C 6B 30 1D 42 80 23 66  .......tlk0.B.#f
1020: 02 80 F8 FF FF 7F F8 FF  FF 7F 74 6C 6B 31 93 0D  ..........tlk1..
1030: 80 24 43 80 00 80 0D 80  25 02 00 10 0D 80 00 60  .$C.....%......`
1040: 10 66 44 80 F8 FF FF 7F  F8 FF FF 7F 70 61 73 30  .fD.........pas0
1050: 1D 45 80 23 40 0D 80 0B  80 01 10 2A 80 01 A0 10  .E.#@......*....
1060: 02 00 10 00 80 00 6E 10  01 81 09 01 A0 10 02 00  ......n.........
1070: 10 29 80 00 A0 10 66 02  80 F8 FF FF 7F F8 FF FF  .)....f.........
1080: 7F 74 6C 6B 30 1D 46 80  23 66 02 80 F8 FF FF 7F  .tlk0.F.#f......
1090: F8 FF FF 7F 74 6C 6B 31  03 01 10 0D 80 01 A0 10  ....tlk1........
10A0: 01 45 14 02 00 10 2A 80  00 5B 12 03 07 00 00 10  .E....*..[......
10B0: 03 02 10 1B 80 66 02 80  F8 FF FF 7F F8 FF FF 7F  .....f..........
10C0: 74 6C 6B 30 1D 38 80 23  66 02 80 F8 FF FF 7F F8  tlk0.8.#f.......
10D0: FF FF 7F 74 6C 6B 31 03  02 10 0D 80 48 39 80 23  ...tlk1.....H9.#
10E0: 03 02 10 1B 80 24 0C 80  0D 80 0D 80 25 02 00 10  .....$......%...
10F0: 0D 80 00 06 11 03 05 00  3A 80 40 2A 80 33 80 01  ........:.@*.3..
1100: 10 00 10 01 46 11 02 00  10 00 80 00 1F 11 03 05  ....F...........
1110: 00 3B 80 40 2A 80 33 80  01 10 00 10 01 46 11 02  .;.@*.3......F..
1120: 00 10 29 80 00 38 11 03  05 00 3C 80 40 2A 80 33  ..)..8....<.@*.3
1130: 80 01 10 00 10 01 46 11  02 00 10 0B 80 00 46 11  ......F.......F.
1140: 01 81 09 01 46 11 03 02  10 00 80 48 39 80 23 03  ....F......H9.#.
1150: 02 10 1B 80 24 1C 80 0D  80 0D 80 25 02 00 10 0D  ....$......%....
1160: 80 00 75 11 03 06 00 54  80 40 3E 80 3F 80 01 10  ..u....T.@>.?...
1170: 00 10 01 B5 11 02 00 10  00 80 00 8E 11 03 06 00  ................
1180: 55 80 40 3E 80 3F 80 01  10 00 10 01 B5 11 02 00  U.@>.?..........
1190: 10 29 80 00 A7 11 03 06  00 56 80 40 3E 80 3F 80  .).......V.@>.?.
11A0: 01 10 00 10 01 B5 11 02  00 10 0B 80 00 B5 11 01  ................
11B0: 81 09 01 B5 11 03 02 10  04 00 CC 01 02 10 29 80  ..............).
11C0: 05 00 06 00 66 02 80 F8  FF FF 7F F8 FF FF 7F 74  ....f..........t
11D0: 6C 6B 30 1D 42 80 23 66  02 80 F8 FF FF 7F F8 FF  lk0.B.#f........
11E0: FF 7F 74 6C 6B 31 93 0D  80 24 43 80 00 80 0D 80  ..tlk1...$C.....
11F0: 25 02 00 10 0D 80 00 18  12 66 44 80 F8 FF FF 7F  %........fD.....
1200: F8 FF FF 7F 70 61 73 30  1D 45 80 23 40 0D 80 0B  ....pas0.E.#@...
1210: 80 01 10 04 80 01 58 12  02 00 10 00 80 00 26 12  ......X.......&.
1220: 01 81 09 01 58 12 02 00  10 29 80 00 58 12 66 02  ....X....)..X.f.
1230: 80 F8 FF FF 7F F8 FF FF  7F 74 6C 6B 30 1D 46 80  .........tlk0.F.
1240: 23 66 02 80 F8 FF FF 7F  F8 FF FF 7F 74 6C 6B 31  #f..........tlk1
1250: 03 01 10 0D 80 01 58 12  01 45 14 02 00 10 04 80  ......X..E......
1260: 00 13 14 03 07 00 00 10  03 02 10 1D 80 66 02 80  .............f..
1270: F8 FF FF 7F F8 FF FF 7F  74 6C 6B 30 1D 38 80 23  ........tlk0.8.#
1280: 66 02 80 F8 FF FF 7F F8  FF FF 7F 74 6C 6B 31 03  f..........tlk1.
1290: 02 10 0D 80 48 39 80 23  03 02 10 1D 80 24 0C 80  ....H9.#.....$..
12A0: 0D 80 0D 80 25 02 00 10  0D 80 00 BE 12 03 05 00  ....%...........
12B0: 3A 80 40 2A 80 33 80 01  10 00 10 01 FE 12 02 00  :.@*.3..........
12C0: 10 00 80 00 D7 12 03 05  00 3B 80 40 2A 80 33 80  .........;.@*.3.
12D0: 01 10 00 10 01 FE 12 02  00 10 29 80 00 F0 12 03  ..........).....
12E0: 05 00 3C 80 40 2A 80 33  80 01 10 00 10 01 FE 12  ..<.@*.3........
12F0: 02 00 10 0B 80 00 FE 12  01 81 09 01 FE 12 03 02  ................
1300: 10 00 80 48 39 80 23 03  02 10 1D 80 24 1E 80 0D  ...H9.#.....$...
1310: 80 0D 80 25 02 00 10 0D  80 00 2D 13 03 06 00 57  ...%......-....W
1320: 80 40 3E 80 3F 80 01 10  00 10 01 6D 13 02 00 10  .@>.?......m....
1330: 00 80 00 46 13 03 06 00  58 80 40 3E 80 3F 80 01  ...F....X.@>.?..
1340: 10 00 10 01 6D 13 02 00  10 29 80 00 5F 13 03 06  ....m....).._...
1350: 00 59 80 40 3E 80 3F 80  01 10 00 10 01 6D 13 02  .Y.@>.?......m..
1360: 00 10 0B 80 00 6D 13 01  81 09 01 6D 13 03 02 10  .....m.....m....
1370: 04 00 CC 01 02 10 29 80  05 00 06 00 66 02 80 F8  ......).....f...
1380: FF FF 7F F8 FF FF 7F 74  6C 6B 30 1D 42 80 23 66  .......tlk0.B.#f
1390: 02 80 F8 FF FF 7F F8 FF  FF 7F 74 6C 6B 31 93 0D  ..........tlk1..
13A0: 80 24 43 80 00 80 0D 80  25 02 00 10 0D 80 00 D0  .$C.....%.......
13B0: 13 66 44 80 F8 FF FF 7F  F8 FF FF 7F 70 61 73 30  .fD.........pas0
13C0: 1D 45 80 23 40 0D 80 0B  80 01 10 2B 80 01 10 14  .E.#@......+....
13D0: 02 00 10 00 80 00 DE 13  01 81 09 01 10 14 02 00  ................
13E0: 10 29 80 00 10 14 66 02  80 F8 FF FF 7F F8 FF FF  .)....f.........
13F0: 7F 74 6C 6B 30 1D 46 80  23 66 02 80 F8 FF FF 7F  .tlk0.F.#f......
1400: F8 FF FF 7F 74 6C 6B 31  03 01 10 0D 80 01 10 14  ....tlk1........
1410: 01 45 14 02 00 10 2B 80  00 45 14 66 02 80 F8 FF  .E....+..E.f....
1420: FF 7F F8 FF FF 7F 74 6C  6B 30 1D 46 80 23 66 02  ......tlk0.F.#f.
1430: 80 F8 FF FF 7F F8 FF FF  7F 74 6C 6B 31 03 01 10  .........tlk1...
1440: 0D 80 01 45 14 2E 21 00                           ...E..!.        
```

#### Opcodes

```
  0: 0x08A6 [0x42] SET_CLI_EVENT_CANCEL_DATA()
  1: 0x08A7 [0x03] ExtData[1]->WorkLocal[0] = Work_Zone[2]
  2: 0x08AC [0x3E] IF !(ExtData[1]->WorkLocal[0] bit 0*) GOTO 0x08BD
  3: 0x08B3 [0x3D] CLEAR_BIT_FLAG_CONDITIONAL(target_work_offset=ExtData[1]->WorkLocal[0], bit_index_work_offset=0*, condition_work_offset=1*)
  4: 0x08BA [0x01] GOTO 0x08C4
  5: 0x08BD [0x3C] SET_BIT_FLAG_CONDITIONAL(target_work_offset=ExtData[1]->WorkLocal[0], bit_index_work_offset=0*, condition_work_offset=1*)

SUBROUTINE_08C4:
  6: 0x08C4 [0x3E] IF !(ExtData[1]->WorkLocal[0] bit 1*) GOTO 0x08D5
  7: 0x08CB [0x3D] CLEAR_BIT_FLAG_CONDITIONAL(target_work_offset=ExtData[1]->WorkLocal[0], bit_index_work_offset=1*, condition_work_offset=1*)
  8: 0x08D2 [0x01] GOTO 0x08DC
  9: 0x08D5 [0x3C] SET_BIT_FLAG_CONDITIONAL(target_work_offset=ExtData[1]->WorkLocal[0], bit_index_work_offset=1*, condition_work_offset=1*)

SUBROUTINE_08DC:
 10: 0x08DC [0x3E] IF !(ExtData[1]->WorkLocal[0] bit 2*) GOTO 0x08ED
 11: 0x08E3 [0x3D] CLEAR_BIT_FLAG_CONDITIONAL(target_work_offset=ExtData[1]->WorkLocal[0], bit_index_work_offset=2*, condition_work_offset=1*)
 12: 0x08EA [0x01] GOTO 0x08F4
 13: 0x08ED [0x3C] SET_BIT_FLAG_CONDITIONAL(target_work_offset=ExtData[1]->WorkLocal[0], bit_index_work_offset=2*, condition_work_offset=1*)

SUBROUTINE_08F4:
 14: 0x08F4 [0x3E] IF !(ExtData[1]->WorkLocal[0] bit 3*) GOTO 0x0905
 15: 0x08FB [0x3D] CLEAR_BIT_FLAG_CONDITIONAL(target_work_offset=ExtData[1]->WorkLocal[0], bit_index_work_offset=3*, condition_work_offset=1*)
 16: 0x0902 [0x01] GOTO 0x090C
 17: 0x0905 [0x3C] SET_BIT_FLAG_CONDITIONAL(target_work_offset=ExtData[1]->WorkLocal[0], bit_index_work_offset=3*, condition_work_offset=1*)

SUBROUTINE_090C:
 18: 0x090C [0x3E] IF !(ExtData[1]->WorkLocal[0] bit 4*) GOTO 0x091D
 19: 0x0913 [0x3D] CLEAR_BIT_FLAG_CONDITIONAL(target_work_offset=ExtData[1]->WorkLocal[0], bit_index_work_offset=4*, condition_work_offset=1*)
 20: 0x091A [0x01] GOTO 0x0924
 21: 0x091D [0x3C] SET_BIT_FLAG_CONDITIONAL(target_work_offset=ExtData[1]->WorkLocal[0], bit_index_work_offset=4*, condition_work_offset=1*)

SUBROUTINE_0924:
 22: 0x0924 [0x3E] IF !(ExtData[1]->WorkLocal[0] bit 5*) GOTO 0x0935
 23: 0x092B [0x3D] CLEAR_BIT_FLAG_CONDITIONAL(target_work_offset=ExtData[1]->WorkLocal[0], bit_index_work_offset=5*, condition_work_offset=1*)
 24: 0x0932 [0x01] GOTO 0x093C
 25: 0x0935 [0x3C] SET_BIT_FLAG_CONDITIONAL(target_work_offset=ExtData[1]->WorkLocal[0], bit_index_work_offset=5*, condition_work_offset=1*)

SUBROUTINE_093C:
 26: 0x093C [0x03] ExtData[1]->WorkLocal[4] = Work_Zone[3]
 27: 0x0941 [0x1E] EventEntity looks at LocalPlayer and starts talking
 28: 0x0946 [0x1C] WAIT(1* ticks)
 29: 0x0949 [0x6E] EventEntity uses emote 7*
 30: 0x0950 [0x99] Wait for EventEntity animation to complete
 31: 0x0955 [0x99] Wait for EventEntity animation to complete
 32: 0x095A [0x66] LOAD_EXT_SCHEDULER_MAIN: Load scheduler "tlk0" with entities [EventEntity, EventEntity], work=59*
 33: 0x0969 [0x1D] PRINT_EVENT_MESSAGE(message_id=12768*)
    → "Yes, a purrrfect specimen. Can you sense the slight tingling as it resonates with your paragon?"
 34: 0x096C [0x23] WAIT_FOR_DIALOG_INTERACTION
 35: 0x096D [0x66] LOAD_EXT_SCHEDULER_MAIN: Load scheduler "tlk1" with entities [EventEntity, EventEntity], work=59*
 36: 0x097C [0x03] ExtData[1]->WorkLocal[7] = 0*

SUBROUTINE_0981:
 37: 0x0981 [0x03] Work_Zone[1] = 0*
 38: 0x0986 [0x03] Work_Zone[2] = 2482*
 39: 0x098B [0x03] Work_Zone[3] = 2483*
 40: 0x0990 [0x03] Work_Zone[4] = 2484*
 41: 0x0995 [0x03] Work_Zone[5] = 2485*
 42: 0x099A [0x03] Work_Zone[6] = 2486*
 43: 0x099F [0x03] Work_Zone[7] = 2487*
 44: 0x09A4 [0x03] ExtData[1]->WorkLocal[5] = 0*
 45: 0x09A9 [0x03] ExtData[1]->WorkLocal[6] = 0*
 46: 0x09AE [0x24] CREATE_DIALOG(message_id=12769*, default_option=ExtData[1]->WorkLocal[7], option_flags=ExtData[1]->WorkLocal[0])
    → "Select a paragon. [3./$3./$3./$3./$3./$3./Never mind.]"
 47: 0x09B5 [0x25] WAIT_DIALOG_SELECT()
 48: 0x09B6 [0x02] IF !(Work_Zone[0] == 0*) GOTO 0x0B6E
 49: 0x09BE [0x03] ExtData[1]->WorkLocal[7] = Work_Zone[0]
 50: 0x09C3 [0x03] Work_Zone[2] = 2482*
 51: 0x09C8 [0x66] LOAD_EXT_SCHEDULER_MAIN: Load scheduler "tlk0" with entities [EventEntity, EventEntity], work=59*
 52: 0x09D7 [0x1D] PRINT_EVENT_MESSAGE(message_id=12770*)
    → "That $3 would make a wonderrrful addition. Just tell me which type of glyptic you are interested in, and I'll get started."
 53: 0x09DA [0x23] WAIT_FOR_DIALOG_INTERACTION
 54: 0x09DB [0x66] LOAD_EXT_SCHEDULER_MAIN: Load scheduler "tlk1" with entities [EventEntity, EventEntity], work=59*
 55: 0x09EA [0x03] Work_Zone[2] = 0*
 56: 0x09EF [0x48] [System] [12771*]:
    → "Select the [first/second] arcane glyptic."
 57: 0x09F2 [0x23] WAIT_FOR_DIALOG_INTERACTION
 58: 0x09F3 [0x03] Work_Zone[2] = 2482*
 59: 0x09F8 [0x24] CREATE_DIALOG(message_id=12752*, default_option=0*, option_flags=0*)
    → "Shared arcane glyptics: [Accuracy+30./Magic Accuracy+30./Occasionally attacks twice./Back.]"
 60: 0x09FF [0x25] WAIT_DIALOG_SELECT()
 61: 0x0A00 [0x02] IF !(Work_Zone[0] == 0*) GOTO 0x0A19
 62: 0x0A08 [0x03] ExtData[1]->WorkLocal[5] = 59415*
 63: 0x0A0D [0x40] SET_BIT_WORK_RANGE(start_bit=4*, end_bit=7*, target=Work_Zone[1], source=Work_Zone[0])
 64: 0x0A16 [0x01] GOTO 0x0A59
 65: 0x0A19 [0x02] IF !(Work_Zone[0] == 1*) GOTO 0x0A32
 66: 0x0A21 [0x03] ExtData[1]->WorkLocal[5] = 59427*
 67: 0x0A26 [0x40] SET_BIT_WORK_RANGE(start_bit=4*, end_bit=7*, target=Work_Zone[1], source=Work_Zone[0])
 68: 0x0A2F [0x01] GOTO 0x0A59
 69: 0x0A32 [0x02] IF !(Work_Zone[0] == 2*) GOTO 0x0A4B
 70: 0x0A3A [0x03] ExtData[1]->WorkLocal[5] = 17296*
 71: 0x0A3F [0x40] SET_BIT_WORK_RANGE(start_bit=4*, end_bit=7*, target=Work_Zone[1], source=Work_Zone[0])
 72: 0x0A48 [0x01] GOTO 0x0A59
 73: 0x0A4B [0x02] IF !(Work_Zone[0] == 3*) GOTO 0x0A59
 74: 0x0A53 [0x01] GOTO 0x0981

SUBROUTINE_0A59:
 75: 0x0A59 [0x03] Work_Zone[2] = 1*
 76: 0x0A5E [0x48] [System] [12771*]:
    → "Select the [first/second] arcane glyptic."
 77: 0x0A61 [0x23] WAIT_FOR_DIALOG_INTERACTION
 78: 0x0A62 [0x03] Work_Zone[2] = 2482*
 79: 0x0A67 [0x24] CREATE_DIALOG(message_id=12756*, default_option=0*, option_flags=0*)
    → "3: [Evasion+15./"Store TP"+5./Ranged Accuracy+15./Back.]"
 80: 0x0A6E [0x25] WAIT_DIALOG_SELECT()
 81: 0x0A6F [0x02] IF !(Work_Zone[0] == 0*) GOTO 0x0A88
 82: 0x0A77 [0x03] ExtData[1]->WorkLocal[6] = 28703*
 83: 0x0A7C [0x40] SET_BIT_WORK_RANGE(start_bit=8*, end_bit=11*, target=Work_Zone[1], source=Work_Zone[0])
 84: 0x0A85 [0x01] GOTO 0x0AC8
 85: 0x0A88 [0x02] IF !(Work_Zone[0] == 1*) GOTO 0x0AA1
 86: 0x0A90 [0x03] ExtData[1]->WorkLocal[6] = 8334*
 87: 0x0A95 [0x40] SET_BIT_WORK_RANGE(start_bit=8*, end_bit=11*, target=Work_Zone[1], source=Work_Zone[0])
 88: 0x0A9E [0x01] GOTO 0x0AC8
 89: 0x0AA1 [0x02] IF !(Work_Zone[0] == 2*) GOTO 0x0ABA
 90: 0x0AA9 [0x03] ExtData[1]->WorkLocal[6] = 28699*
 91: 0x0AAE [0x40] SET_BIT_WORK_RANGE(start_bit=8*, end_bit=11*, target=Work_Zone[1], source=Work_Zone[0])
 92: 0x0AB7 [0x01] GOTO 0x0AC8
 93: 0x0ABA [0x02] IF !(Work_Zone[0] == 3*) GOTO 0x0AC8
 94: 0x0AC2 [0x01] GOTO 0x0981

SUBROUTINE_0AC8:
 95: 0x0AC8 [0x03] Work_Zone[2] = ExtData[1]->WorkLocal[4]
 96: 0x0ACD [0xCC] ITEM_INFO_WINDOW_HANDLER(case=0x01 - Open item info window (with chase), check_value=Work_Zone[2], buffer1=2*, buffer2=ExtData[1]->WorkLocal[5], buffer3=ExtData[1]->WorkLocal[6])
 97: 0x0AD7 [0x66] LOAD_EXT_SCHEDULER_MAIN: Load scheduler "tlk0" with entities [EventEntity, EventEntity], work=59*
 98: 0x0AE6 [0x1D] PRINT_EVENT_MESSAGE(message_id=12772*)
    → "Your weapon'll come out looking something like this."
 99: 0x0AE9 [0x23] WAIT_FOR_DIALOG_INTERACTION
100: 0x0AEA [0x66] LOAD_EXT_SCHEDULER_MAIN: Load scheduler "tlk1" with entities [EventEntity, EventEntity], work=59*
101: 0x0AF9 [0x93] DISPLAY_ITEM_INFO(item_id=0*)
102: 0x0AFC [0x24] CREATE_DIALOG(message_id=12773*, default_option=1*, option_flags=0*)
    → "Is this acceptable? [Positively peachy./Back to the beginning./Agonizingly atrocious.]"
103: 0x0B03 [0x25] WAIT_DIALOG_SELECT()
104: 0x0B04 [0x02] IF !(Work_Zone[0] == 0*) GOTO 0x0B2B
105: 0x0B0C [0x66] LOAD_EXT_SCHEDULER_MAIN: Load scheduler "pas0" with entities [EventEntity, EventEntity], work=54*
106: 0x0B1B [0x1D] PRINT_EVENT_MESSAGE(message_id=12774*)
    → "I'd call this a success! Can you not sense the aura emanating from the surrrface? That's the paragon's power in action!"
107: 0x0B1E [0x23] WAIT_FOR_DIALOG_INTERACTION
108: 0x0B1F [0x40] SET_BIT_WORK_RANGE(start_bit=0*, end_bit=3*, target=Work_Zone[1], source=1*)
109: 0x0B28 [0x01] GOTO 0x0B6B
110: 0x0B2B [0x02] IF !(Work_Zone[0] == 1*) GOTO 0x0B39
111: 0x0B33 [0x01] GOTO 0x0981

SUBROUTINE_0B6B:
112: 0x0B6B [0x01] GOTO 0x1445
113: 0x0B6E [0x02] IF !(Work_Zone[0] == 1*) GOTO 0x0D26
114: 0x0B76 [0x03] ExtData[1]->WorkLocal[7] = Work_Zone[0]
115: 0x0B7B [0x03] Work_Zone[2] = 2483*
116: 0x0B80 [0x66] LOAD_EXT_SCHEDULER_MAIN: Load scheduler "tlk0" with entities [EventEntity, EventEntity], work=59*
117: 0x0B8F [0x1D] PRINT_EVENT_MESSAGE(message_id=12770*)
    → "That $3 would make a wonderrrful addition. Just tell me which type of glyptic you are interested in, and I'll get started."
118: 0x0B92 [0x23] WAIT_FOR_DIALOG_INTERACTION
119: 0x0B93 [0x66] LOAD_EXT_SCHEDULER_MAIN: Load scheduler "tlk1" with entities [EventEntity, EventEntity], work=59*
120: 0x0BA2 [0x03] Work_Zone[2] = 0*
121: 0x0BA7 [0x48] [System] [12771*]:
    → "Select the [first/second] arcane glyptic."
122: 0x0BAA [0x23] WAIT_FOR_DIALOG_INTERACTION
123: 0x0BAB [0x03] Work_Zone[2] = 2483*
124: 0x0BB0 [0x24] CREATE_DIALOG(message_id=12752*, default_option=0*, option_flags=0*)
    → "Shared arcane glyptics: [Accuracy+30./Magic Accuracy+30./Occasionally attacks twice./Back.]"
125: 0x0BB7 [0x25] WAIT_DIALOG_SELECT()
126: 0x0BB8 [0x02] IF !(Work_Zone[0] == 0*) GOTO 0x0BD1
127: 0x0BC0 [0x03] ExtData[1]->WorkLocal[5] = 59415*
128: 0x0BC5 [0x40] SET_BIT_WORK_RANGE(start_bit=4*, end_bit=7*, target=Work_Zone[1], source=Work_Zone[0])
129: 0x0BCE [0x01] GOTO 0x0C11
130: 0x0BD1 [0x02] IF !(Work_Zone[0] == 1*) GOTO 0x0BEA
131: 0x0BD9 [0x03] ExtData[1]->WorkLocal[5] = 59427*
132: 0x0BDE [0x40] SET_BIT_WORK_RANGE(start_bit=4*, end_bit=7*, target=Work_Zone[1], source=Work_Zone[0])
133: 0x0BE7 [0x01] GOTO 0x0C11
134: 0x0BEA [0x02] IF !(Work_Zone[0] == 2*) GOTO 0x0C03
135: 0x0BF2 [0x03] ExtData[1]->WorkLocal[5] = 17296*
136: 0x0BF7 [0x40] SET_BIT_WORK_RANGE(start_bit=4*, end_bit=7*, target=Work_Zone[1], source=Work_Zone[0])
137: 0x0C00 [0x01] GOTO 0x0C11
138: 0x0C03 [0x02] IF !(Work_Zone[0] == 3*) GOTO 0x0C11
139: 0x0C0B [0x01] GOTO 0x0981

SUBROUTINE_0C11:
140: 0x0C11 [0x03] Work_Zone[2] = 1*
141: 0x0C16 [0x48] [System] [12771*]:
    → "Select the [first/second] arcane glyptic."
142: 0x0C19 [0x23] WAIT_FOR_DIALOG_INTERACTION
143: 0x0C1A [0x03] Work_Zone[2] = 2483*
144: 0x0C1F [0x24] CREATE_DIALOG(message_id=12757*, default_option=0*, option_flags=0*)
    → "3: [Magic Evasion+15./Magic Accuracy+15./MP+30./Back.]"
145: 0x0C26 [0x25] WAIT_DIALOG_SELECT()
146: 0x0C27 [0x02] IF !(Work_Zone[0] == 0*) GOTO 0x0C40
147: 0x0C2F [0x03] ExtData[1]->WorkLocal[6] = 28709*
148: 0x0C34 [0x40] SET_BIT_WORK_RANGE(start_bit=8*, end_bit=11*, target=Work_Zone[1], source=Work_Zone[0])
149: 0x0C3D [0x01] GOTO 0x0C80
150: 0x0C40 [0x02] IF !(Work_Zone[0] == 1*) GOTO 0x0C59
151: 0x0C48 [0x03] ExtData[1]->WorkLocal[6] = 28707*
152: 0x0C4D [0x40] SET_BIT_WORK_RANGE(start_bit=8*, end_bit=11*, target=Work_Zone[1], source=Work_Zone[0])
153: 0x0C56 [0x01] GOTO 0x0C80
154: 0x0C59 [0x02] IF !(Work_Zone[0] == 2*) GOTO 0x0C72
155: 0x0C61 [0x03] ExtData[1]->WorkLocal[6] = 59401*
156: 0x0C66 [0x40] SET_BIT_WORK_RANGE(start_bit=8*, end_bit=11*, target=Work_Zone[1], source=Work_Zone[0])
157: 0x0C6F [0x01] GOTO 0x0C80
158: 0x0C72 [0x02] IF !(Work_Zone[0] == 3*) GOTO 0x0C80
159: 0x0C7A [0x01] GOTO 0x0981

SUBROUTINE_0C80:
160: 0x0C80 [0x03] Work_Zone[2] = ExtData[1]->WorkLocal[4]
161: 0x0C85 [0xCC] ITEM_INFO_WINDOW_HANDLER(case=0x01 - Open item info window (with chase), check_value=Work_Zone[2], buffer1=2*, buffer2=ExtData[1]->WorkLocal[5], buffer3=ExtData[1]->WorkLocal[6])
162: 0x0C8F [0x66] LOAD_EXT_SCHEDULER_MAIN: Load scheduler "tlk0" with entities [EventEntity, EventEntity], work=59*
163: 0x0C9E [0x1D] PRINT_EVENT_MESSAGE(message_id=12772*)
    → "Your weapon'll come out looking something like this."
164: 0x0CA1 [0x23] WAIT_FOR_DIALOG_INTERACTION
165: 0x0CA2 [0x66] LOAD_EXT_SCHEDULER_MAIN: Load scheduler "tlk1" with entities [EventEntity, EventEntity], work=59*
166: 0x0CB1 [0x93] DISPLAY_ITEM_INFO(item_id=0*)
167: 0x0CB4 [0x24] CREATE_DIALOG(message_id=12773*, default_option=1*, option_flags=0*)
    → "Is this acceptable? [Positively peachy./Back to the beginning./Agonizingly atrocious.]"
168: 0x0CBB [0x25] WAIT_DIALOG_SELECT()
169: 0x0CBC [0x02] IF !(Work_Zone[0] == 0*) GOTO 0x0CE3
170: 0x0CC4 [0x66] LOAD_EXT_SCHEDULER_MAIN: Load scheduler "pas0" with entities [EventEntity, EventEntity], work=54*
171: 0x0CD3 [0x1D] PRINT_EVENT_MESSAGE(message_id=12774*)
    → "I'd call this a success! Can you not sense the aura emanating from the surrrface? That's the paragon's power in action!"
172: 0x0CD6 [0x23] WAIT_FOR_DIALOG_INTERACTION
173: 0x0CD7 [0x40] SET_BIT_WORK_RANGE(start_bit=0*, end_bit=3*, target=Work_Zone[1], source=2*)
174: 0x0CE0 [0x01] GOTO 0x0D23
175: 0x0CE3 [0x02] IF !(Work_Zone[0] == 1*) GOTO 0x0CF1
176: 0x0CEB [0x01] GOTO 0x0981

SUBROUTINE_0D23:
177: 0x0D23 [0x01] GOTO 0x1445
178: 0x0D26 [0x02] IF !(Work_Zone[0] == 2*) GOTO 0x0EDE
179: 0x0D2E [0x03] ExtData[1]->WorkLocal[7] = Work_Zone[0]
180: 0x0D33 [0x03] Work_Zone[2] = 2484*
181: 0x0D38 [0x66] LOAD_EXT_SCHEDULER_MAIN: Load scheduler "tlk0" with entities [EventEntity, EventEntity], work=59*
182: 0x0D47 [0x1D] PRINT_EVENT_MESSAGE(message_id=12770*)
    → "That $3 would make a wonderrrful addition. Just tell me which type of glyptic you are interested in, and I'll get started."
183: 0x0D4A [0x23] WAIT_FOR_DIALOG_INTERACTION
184: 0x0D4B [0x66] LOAD_EXT_SCHEDULER_MAIN: Load scheduler "tlk1" with entities [EventEntity, EventEntity], work=59*
185: 0x0D5A [0x03] Work_Zone[2] = 0*
186: 0x0D5F [0x48] [System] [12771*]:
    → "Select the [first/second] arcane glyptic."
187: 0x0D62 [0x23] WAIT_FOR_DIALOG_INTERACTION
188: 0x0D63 [0x03] Work_Zone[2] = 2484*
189: 0x0D68 [0x24] CREATE_DIALOG(message_id=12752*, default_option=0*, option_flags=0*)
    → "Shared arcane glyptics: [Accuracy+30./Magic Accuracy+30./Occasionally attacks twice./Back.]"
190: 0x0D6F [0x25] WAIT_DIALOG_SELECT()
191: 0x0D70 [0x02] IF !(Work_Zone[0] == 0*) GOTO 0x0D89
192: 0x0D78 [0x03] ExtData[1]->WorkLocal[5] = 59415*
193: 0x0D7D [0x40] SET_BIT_WORK_RANGE(start_bit=4*, end_bit=7*, target=Work_Zone[1], source=Work_Zone[0])
194: 0x0D86 [0x01] GOTO 0x0DC9
195: 0x0D89 [0x02] IF !(Work_Zone[0] == 1*) GOTO 0x0DA2
196: 0x0D91 [0x03] ExtData[1]->WorkLocal[5] = 59427*
197: 0x0D96 [0x40] SET_BIT_WORK_RANGE(start_bit=4*, end_bit=7*, target=Work_Zone[1], source=Work_Zone[0])
198: 0x0D9F [0x01] GOTO 0x0DC9
199: 0x0DA2 [0x02] IF !(Work_Zone[0] == 2*) GOTO 0x0DBB
200: 0x0DAA [0x03] ExtData[1]->WorkLocal[5] = 17296*
201: 0x0DAF [0x40] SET_BIT_WORK_RANGE(start_bit=4*, end_bit=7*, target=Work_Zone[1], source=Work_Zone[0])
202: 0x0DB8 [0x01] GOTO 0x0DC9
203: 0x0DBB [0x02] IF !(Work_Zone[0] == 3*) GOTO 0x0DC9
204: 0x0DC3 [0x01] GOTO 0x0981

SUBROUTINE_0DC9:
205: 0x0DC9 [0x03] Work_Zone[2] = 1*
206: 0x0DCE [0x48] [System] [12771*]:
    → "Select the [first/second] arcane glyptic."
207: 0x0DD1 [0x23] WAIT_FOR_DIALOG_INTERACTION
208: 0x0DD2 [0x03] Work_Zone[2] = 2484*
209: 0x0DD7 [0x24] CREATE_DIALOG(message_id=12758*, default_option=0*, option_flags=0*)
    → "3: [Attack+20./Ranged Attack+20./Weapon skill damage +2%./Back.]"
210: 0x0DDE [0x25] WAIT_DIALOG_SELECT()
211: 0x0DDF [0x02] IF !(Work_Zone[0] == 0*) GOTO 0x0DF8
212: 0x0DE7 [0x03] ExtData[1]->WorkLocal[6] = 38937*
213: 0x0DEC [0x40] SET_BIT_WORK_RANGE(start_bit=8*, end_bit=11*, target=Work_Zone[1], source=Work_Zone[0])
214: 0x0DF5 [0x01] GOTO 0x0E38
215: 0x0DF8 [0x02] IF !(Work_Zone[0] == 1*) GOTO 0x0E11
216: 0x0E00 [0x03] ExtData[1]->WorkLocal[6] = 38941*
217: 0x0E05 [0x40] SET_BIT_WORK_RANGE(start_bit=8*, end_bit=11*, target=Work_Zone[1], source=Work_Zone[0])
218: 0x0E0E [0x01] GOTO 0x0E38
219: 0x0E11 [0x02] IF !(Work_Zone[0] == 2*) GOTO 0x0E2A
220: 0x0E19 [0x03] ExtData[1]->WorkLocal[6] = 2375*
221: 0x0E1E [0x40] SET_BIT_WORK_RANGE(start_bit=8*, end_bit=11*, target=Work_Zone[1], source=Work_Zone[0])
222: 0x0E27 [0x01] GOTO 0x0E38
223: 0x0E2A [0x02] IF !(Work_Zone[0] == 3*) GOTO 0x0E38
224: 0x0E32 [0x01] GOTO 0x0981

SUBROUTINE_0E38:
225: 0x0E38 [0x03] Work_Zone[2] = ExtData[1]->WorkLocal[4]
226: 0x0E3D [0xCC] ITEM_INFO_WINDOW_HANDLER(case=0x01 - Open item info window (with chase), check_value=Work_Zone[2], buffer1=2*, buffer2=ExtData[1]->WorkLocal[5], buffer3=ExtData[1]->WorkLocal[6])
227: 0x0E47 [0x66] LOAD_EXT_SCHEDULER_MAIN: Load scheduler "tlk0" with entities [EventEntity, EventEntity], work=59*
228: 0x0E56 [0x1D] PRINT_EVENT_MESSAGE(message_id=12772*)
    → "Your weapon'll come out looking something like this."
229: 0x0E59 [0x23] WAIT_FOR_DIALOG_INTERACTION
230: 0x0E5A [0x66] LOAD_EXT_SCHEDULER_MAIN: Load scheduler "tlk1" with entities [EventEntity, EventEntity], work=59*
231: 0x0E69 [0x93] DISPLAY_ITEM_INFO(item_id=0*)
232: 0x0E6C [0x24] CREATE_DIALOG(message_id=12773*, default_option=1*, option_flags=0*)
    → "Is this acceptable? [Positively peachy./Back to the beginning./Agonizingly atrocious.]"
233: 0x0E73 [0x25] WAIT_DIALOG_SELECT()
234: 0x0E74 [0x02] IF !(Work_Zone[0] == 0*) GOTO 0x0E9B
235: 0x0E7C [0x66] LOAD_EXT_SCHEDULER_MAIN: Load scheduler "pas0" with entities [EventEntity, EventEntity], work=54*
236: 0x0E8B [0x1D] PRINT_EVENT_MESSAGE(message_id=12774*)
    → "I'd call this a success! Can you not sense the aura emanating from the surrrface? That's the paragon's power in action!"
237: 0x0E8E [0x23] WAIT_FOR_DIALOG_INTERACTION
238: 0x0E8F [0x40] SET_BIT_WORK_RANGE(start_bit=0*, end_bit=3*, target=Work_Zone[1], source=3*)
239: 0x0E98 [0x01] GOTO 0x0EDB
240: 0x0E9B [0x02] IF !(Work_Zone[0] == 1*) GOTO 0x0EA9
241: 0x0EA3 [0x01] GOTO 0x0981

SUBROUTINE_0EDB:
242: 0x0EDB [0x01] GOTO 0x1445
243: 0x0EDE [0x02] IF !(Work_Zone[0] == 3*) GOTO 0x10A3
244: 0x0EE6 [0x03] ExtData[1]->WorkLocal[7] = Work_Zone[0]
245: 0x0EEB [0x03] Work_Zone[2] = 2485*
246: 0x0EF0 [0x66] LOAD_EXT_SCHEDULER_MAIN: Load scheduler "tlk0" with entities [EventEntity, EventEntity], work=59*
247: 0x0EFF [0x1D] PRINT_EVENT_MESSAGE(message_id=12770*)
    → "That $3 would make a wonderrrful addition. Just tell me which type of glyptic you are interested in, and I'll get started."
248: 0x0F02 [0x23] WAIT_FOR_DIALOG_INTERACTION
249: 0x0F03 [0x66] LOAD_EXT_SCHEDULER_MAIN: Load scheduler "tlk1" with entities [EventEntity, EventEntity], work=59*
250: 0x0F12 [0x03] Work_Zone[2] = 0*
251: 0x0F17 [0x48] [System] [12771*]:
    → "Select the [first/second] arcane glyptic."
252: 0x0F1A [0x23] WAIT_FOR_DIALOG_INTERACTION
253: 0x0F1B [0x03] Work_Zone[2] = 2485*
254: 0x0F20 [0x24] CREATE_DIALOG(message_id=12752*, default_option=0*, option_flags=0*)
    → "Shared arcane glyptics: [Accuracy+30./Magic Accuracy+30./Occasionally attacks twice./Back.]"
255: 0x0F27 [0x25] WAIT_DIALOG_SELECT()
256: 0x0F28 [0x02] IF !(Work_Zone[0] == 0*) GOTO 0x0F41
257: 0x0F30 [0x03] ExtData[1]->WorkLocal[5] = 59415*
258: 0x0F35 [0x40] SET_BIT_WORK_RANGE(start_bit=4*, end_bit=7*, target=Work_Zone[1], source=Work_Zone[0])
259: 0x0F3E [0x01] GOTO 0x0F81
260: 0x0F41 [0x02] IF !(Work_Zone[0] == 1*) GOTO 0x0F5A
261: 0x0F49 [0x03] ExtData[1]->WorkLocal[5] = 59427*
262: 0x0F4E [0x40] SET_BIT_WORK_RANGE(start_bit=4*, end_bit=7*, target=Work_Zone[1], source=Work_Zone[0])
263: 0x0F57 [0x01] GOTO 0x0F81
264: 0x0F5A [0x02] IF !(Work_Zone[0] == 2*) GOTO 0x0F73
265: 0x0F62 [0x03] ExtData[1]->WorkLocal[5] = 17296*
266: 0x0F67 [0x40] SET_BIT_WORK_RANGE(start_bit=4*, end_bit=7*, target=Work_Zone[1], source=Work_Zone[0])
267: 0x0F70 [0x01] GOTO 0x0F81
268: 0x0F73 [0x02] IF !(Work_Zone[0] == 3*) GOTO 0x0F81
269: 0x0F7B [0x01] GOTO 0x0981

SUBROUTINE_0F81:
270: 0x0F81 [0x03] Work_Zone[2] = 1*
271: 0x0F86 [0x48] [System] [12771*]:
    → "Select the [first/second] arcane glyptic."
272: 0x0F89 [0x23] WAIT_FOR_DIALOG_INTERACTION
273: 0x0F8A [0x03] Work_Zone[2] = 2485*
274: 0x0F8F [0x24] CREATE_DIALOG(message_id=12759*, default_option=0*, option_flags=0*)
    → "3: [Damage taken -2%./"Regen"+3./"Cure" potency received +5%./Back.]"
275: 0x0F96 [0x25] WAIT_DIALOG_SELECT()
276: 0x0F97 [0x02] IF !(Work_Zone[0] == 0*) GOTO 0x0FBD
277: 0x0F9F [0x40] SET_BIT_WORK_RANGE(start_bit=0*, end_bit=15*, target=ExtData[1]->WorkLocal[6], source=2102*)
278: 0x0FA8 [0x40] SET_BIT_WORK_RANGE(start_bit=16*, end_bit=31*, target=ExtData[1]->WorkLocal[6], source=2103*)
279: 0x0FB1 [0x40] SET_BIT_WORK_RANGE(start_bit=8*, end_bit=11*, target=Work_Zone[1], source=Work_Zone[0])
280: 0x0FBA [0x01] GOTO 0x0FFD
281: 0x0FBD [0x02] IF !(Work_Zone[0] == 1*) GOTO 0x0FD6
282: 0x0FC5 [0x03] ExtData[1]->WorkLocal[6] = 4233*
283: 0x0FCA [0x40] SET_BIT_WORK_RANGE(start_bit=8*, end_bit=11*, target=Work_Zone[1], source=Work_Zone[0])
284: 0x0FD3 [0x01] GOTO 0x0FFD
285: 0x0FD6 [0x02] IF !(Work_Zone[0] == 2*) GOTO 0x0FEF
286: 0x0FDE [0x03] ExtData[1]->WorkLocal[6] = 8548*
287: 0x0FE3 [0x40] SET_BIT_WORK_RANGE(start_bit=8*, end_bit=11*, target=Work_Zone[1], source=Work_Zone[0])
288: 0x0FEC [0x01] GOTO 0x0FFD
289: 0x0FEF [0x02] IF !(Work_Zone[0] == 3*) GOTO 0x0FFD
290: 0x0FF7 [0x01] GOTO 0x0981

SUBROUTINE_0FFD:
291: 0x0FFD [0x03] Work_Zone[2] = ExtData[1]->WorkLocal[4]
292: 0x1002 [0xCC] ITEM_INFO_WINDOW_HANDLER(case=0x01 - Open item info window (with chase), check_value=Work_Zone[2], buffer1=2*, buffer2=ExtData[1]->WorkLocal[5], buffer3=ExtData[1]->WorkLocal[6])
293: 0x100C [0x66] LOAD_EXT_SCHEDULER_MAIN: Load scheduler "tlk0" with entities [EventEntity, EventEntity], work=59*
294: 0x101B [0x1D] PRINT_EVENT_MESSAGE(message_id=12772*)
    → "Your weapon'll come out looking something like this."
295: 0x101E [0x23] WAIT_FOR_DIALOG_INTERACTION
296: 0x101F [0x66] LOAD_EXT_SCHEDULER_MAIN: Load scheduler "tlk1" with entities [EventEntity, EventEntity], work=59*
297: 0x102E [0x93] DISPLAY_ITEM_INFO(item_id=0*)
298: 0x1031 [0x24] CREATE_DIALOG(message_id=12773*, default_option=1*, option_flags=0*)
    → "Is this acceptable? [Positively peachy./Back to the beginning./Agonizingly atrocious.]"
299: 0x1038 [0x25] WAIT_DIALOG_SELECT()
300: 0x1039 [0x02] IF !(Work_Zone[0] == 0*) GOTO 0x1060
301: 0x1041 [0x66] LOAD_EXT_SCHEDULER_MAIN: Load scheduler "pas0" with entities [EventEntity, EventEntity], work=54*
302: 0x1050 [0x1D] PRINT_EVENT_MESSAGE(message_id=12774*)
    → "I'd call this a success! Can you not sense the aura emanating from the surrrface? That's the paragon's power in action!"
303: 0x1053 [0x23] WAIT_FOR_DIALOG_INTERACTION
304: 0x1054 [0x40] SET_BIT_WORK_RANGE(start_bit=0*, end_bit=3*, target=Work_Zone[1], source=4*)
305: 0x105D [0x01] GOTO 0x10A0
306: 0x1060 [0x02] IF !(Work_Zone[0] == 1*) GOTO 0x106E
307: 0x1068 [0x01] GOTO 0x0981

SUBROUTINE_10A0:
308: 0x10A0 [0x01] GOTO 0x1445
309: 0x10A3 [0x02] IF !(Work_Zone[0] == 4*) GOTO 0x125B
310: 0x10AB [0x03] ExtData[1]->WorkLocal[7] = Work_Zone[0]
311: 0x10B0 [0x03] Work_Zone[2] = 2486*
312: 0x10B5 [0x66] LOAD_EXT_SCHEDULER_MAIN: Load scheduler "tlk0" with entities [EventEntity, EventEntity], work=59*
313: 0x10C4 [0x1D] PRINT_EVENT_MESSAGE(message_id=12770*)
    → "That $3 would make a wonderrrful addition. Just tell me which type of glyptic you are interested in, and I'll get started."
314: 0x10C7 [0x23] WAIT_FOR_DIALOG_INTERACTION
315: 0x10C8 [0x66] LOAD_EXT_SCHEDULER_MAIN: Load scheduler "tlk1" with entities [EventEntity, EventEntity], work=59*
316: 0x10D7 [0x03] Work_Zone[2] = 0*
317: 0x10DC [0x48] [System] [12771*]:
    → "Select the [first/second] arcane glyptic."
318: 0x10DF [0x23] WAIT_FOR_DIALOG_INTERACTION
319: 0x10E0 [0x03] Work_Zone[2] = 2486*
320: 0x10E5 [0x24] CREATE_DIALOG(message_id=12752*, default_option=0*, option_flags=0*)
    → "Shared arcane glyptics: [Accuracy+30./Magic Accuracy+30./Occasionally attacks twice./Back.]"
321: 0x10EC [0x25] WAIT_DIALOG_SELECT()
322: 0x10ED [0x02] IF !(Work_Zone[0] == 0*) GOTO 0x1106
323: 0x10F5 [0x03] ExtData[1]->WorkLocal[5] = 59415*
324: 0x10FA [0x40] SET_BIT_WORK_RANGE(start_bit=4*, end_bit=7*, target=Work_Zone[1], source=Work_Zone[0])
325: 0x1103 [0x01] GOTO 0x1146
326: 0x1106 [0x02] IF !(Work_Zone[0] == 1*) GOTO 0x111F
327: 0x110E [0x03] ExtData[1]->WorkLocal[5] = 59427*
328: 0x1113 [0x40] SET_BIT_WORK_RANGE(start_bit=4*, end_bit=7*, target=Work_Zone[1], source=Work_Zone[0])
329: 0x111C [0x01] GOTO 0x1146
330: 0x111F [0x02] IF !(Work_Zone[0] == 2*) GOTO 0x1138
331: 0x1127 [0x03] ExtData[1]->WorkLocal[5] = 17296*
332: 0x112C [0x40] SET_BIT_WORK_RANGE(start_bit=4*, end_bit=7*, target=Work_Zone[1], source=Work_Zone[0])
333: 0x1135 [0x01] GOTO 0x1146
334: 0x1138 [0x02] IF !(Work_Zone[0] == 3*) GOTO 0x1146
335: 0x1140 [0x01] GOTO 0x0981

SUBROUTINE_1146:
336: 0x1146 [0x03] Work_Zone[2] = 1*
337: 0x114B [0x48] [System] [12771*]:
    → "Select the [first/second] arcane glyptic."
338: 0x114E [0x23] WAIT_FOR_DIALOG_INTERACTION
339: 0x114F [0x03] Work_Zone[2] = 2486*
340: 0x1154 [0x24] CREATE_DIALOG(message_id=12760*, default_option=0*, option_flags=0*)
    → "3: [Accuracy+15./Critical hit rate +4%./Critical hit damage +2%./Back.]"
341: 0x115B [0x25] WAIT_DIALOG_SELECT()
342: 0x115C [0x02] IF !(Work_Zone[0] == 0*) GOTO 0x1175
343: 0x1164 [0x03] ExtData[1]->WorkLocal[6] = 28695*
344: 0x1169 [0x40] SET_BIT_WORK_RANGE(start_bit=8*, end_bit=11*, target=Work_Zone[1], source=Work_Zone[0])
345: 0x1172 [0x01] GOTO 0x11B5
346: 0x1175 [0x02] IF !(Work_Zone[0] == 1*) GOTO 0x118E
347: 0x117D [0x03] ExtData[1]->WorkLocal[6] = 6185*
348: 0x1182 [0x40] SET_BIT_WORK_RANGE(start_bit=8*, end_bit=11*, target=Work_Zone[1], source=Work_Zone[0])
349: 0x118B [0x01] GOTO 0x11B5
350: 0x118E [0x02] IF !(Work_Zone[0] == 2*) GOTO 0x11A7
351: 0x1196 [0x03] ExtData[1]->WorkLocal[6] = 2376*
352: 0x119B [0x40] SET_BIT_WORK_RANGE(start_bit=8*, end_bit=11*, target=Work_Zone[1], source=Work_Zone[0])
353: 0x11A4 [0x01] GOTO 0x11B5
354: 0x11A7 [0x02] IF !(Work_Zone[0] == 3*) GOTO 0x11B5
355: 0x11AF [0x01] GOTO 0x0981

SUBROUTINE_11B5:
356: 0x11B5 [0x03] Work_Zone[2] = ExtData[1]->WorkLocal[4]
357: 0x11BA [0xCC] ITEM_INFO_WINDOW_HANDLER(case=0x01 - Open item info window (with chase), check_value=Work_Zone[2], buffer1=2*, buffer2=ExtData[1]->WorkLocal[5], buffer3=ExtData[1]->WorkLocal[6])
358: 0x11C4 [0x66] LOAD_EXT_SCHEDULER_MAIN: Load scheduler "tlk0" with entities [EventEntity, EventEntity], work=59*
359: 0x11D3 [0x1D] PRINT_EVENT_MESSAGE(message_id=12772*)
    → "Your weapon'll come out looking something like this."
360: 0x11D6 [0x23] WAIT_FOR_DIALOG_INTERACTION
361: 0x11D7 [0x66] LOAD_EXT_SCHEDULER_MAIN: Load scheduler "tlk1" with entities [EventEntity, EventEntity], work=59*
362: 0x11E6 [0x93] DISPLAY_ITEM_INFO(item_id=0*)
363: 0x11E9 [0x24] CREATE_DIALOG(message_id=12773*, default_option=1*, option_flags=0*)
    → "Is this acceptable? [Positively peachy./Back to the beginning./Agonizingly atrocious.]"
364: 0x11F0 [0x25] WAIT_DIALOG_SELECT()
365: 0x11F1 [0x02] IF !(Work_Zone[0] == 0*) GOTO 0x1218
366: 0x11F9 [0x66] LOAD_EXT_SCHEDULER_MAIN: Load scheduler "pas0" with entities [EventEntity, EventEntity], work=54*
367: 0x1208 [0x1D] PRINT_EVENT_MESSAGE(message_id=12774*)
    → "I'd call this a success! Can you not sense the aura emanating from the surrrface? That's the paragon's power in action!"
368: 0x120B [0x23] WAIT_FOR_DIALOG_INTERACTION
369: 0x120C [0x40] SET_BIT_WORK_RANGE(start_bit=0*, end_bit=3*, target=Work_Zone[1], source=5*)
370: 0x1215 [0x01] GOTO 0x1258
371: 0x1218 [0x02] IF !(Work_Zone[0] == 1*) GOTO 0x1226
372: 0x1220 [0x01] GOTO 0x0981

SUBROUTINE_1258:
373: 0x1258 [0x01] GOTO 0x1445
374: 0x125B [0x02] IF !(Work_Zone[0] == 5*) GOTO 0x1413
375: 0x1263 [0x03] ExtData[1]->WorkLocal[7] = Work_Zone[0]
376: 0x1268 [0x03] Work_Zone[2] = 2487*
377: 0x126D [0x66] LOAD_EXT_SCHEDULER_MAIN: Load scheduler "tlk0" with entities [EventEntity, EventEntity], work=59*
378: 0x127C [0x1D] PRINT_EVENT_MESSAGE(message_id=12770*)
    → "That $3 would make a wonderrrful addition. Just tell me which type of glyptic you are interested in, and I'll get started."
379: 0x127F [0x23] WAIT_FOR_DIALOG_INTERACTION
380: 0x1280 [0x66] LOAD_EXT_SCHEDULER_MAIN: Load scheduler "tlk1" with entities [EventEntity, EventEntity], work=59*
381: 0x128F [0x03] Work_Zone[2] = 0*
382: 0x1294 [0x48] [System] [12771*]:
    → "Select the [first/second] arcane glyptic."
383: 0x1297 [0x23] WAIT_FOR_DIALOG_INTERACTION
384: 0x1298 [0x03] Work_Zone[2] = 2487*
385: 0x129D [0x24] CREATE_DIALOG(message_id=12752*, default_option=0*, option_flags=0*)
    → "Shared arcane glyptics: [Accuracy+30./Magic Accuracy+30./Occasionally attacks twice./Back.]"
386: 0x12A4 [0x25] WAIT_DIALOG_SELECT()
387: 0x12A5 [0x02] IF !(Work_Zone[0] == 0*) GOTO 0x12BE
388: 0x12AD [0x03] ExtData[1]->WorkLocal[5] = 59415*
389: 0x12B2 [0x40] SET_BIT_WORK_RANGE(start_bit=4*, end_bit=7*, target=Work_Zone[1], source=Work_Zone[0])
390: 0x12BB [0x01] GOTO 0x12FE
391: 0x12BE [0x02] IF !(Work_Zone[0] == 1*) GOTO 0x12D7
392: 0x12C6 [0x03] ExtData[1]->WorkLocal[5] = 59427*
393: 0x12CB [0x40] SET_BIT_WORK_RANGE(start_bit=4*, end_bit=7*, target=Work_Zone[1], source=Work_Zone[0])
394: 0x12D4 [0x01] GOTO 0x12FE
395: 0x12D7 [0x02] IF !(Work_Zone[0] == 2*) GOTO 0x12F0
396: 0x12DF [0x03] ExtData[1]->WorkLocal[5] = 17296*
397: 0x12E4 [0x40] SET_BIT_WORK_RANGE(start_bit=4*, end_bit=7*, target=Work_Zone[1], source=Work_Zone[0])
398: 0x12ED [0x01] GOTO 0x12FE
399: 0x12F0 [0x02] IF !(Work_Zone[0] == 3*) GOTO 0x12FE
400: 0x12F8 [0x01] GOTO 0x0981

SUBROUTINE_12FE:
401: 0x12FE [0x03] Work_Zone[2] = 1*
402: 0x1303 [0x48] [System] [12771*]:
    → "Select the [first/second] arcane glyptic."
403: 0x1306 [0x23] WAIT_FOR_DIALOG_INTERACTION
404: 0x1307 [0x03] Work_Zone[2] = 2487*
405: 0x130C [0x24] CREATE_DIALOG(message_id=12761*, default_option=0*, option_flags=0*)
    → "3: ["Magic Atk. Bonus"+10./Magic Damage+15./Enmity-10./Back.]"
406: 0x1313 [0x25] WAIT_DIALOG_SELECT()
407: 0x1314 [0x02] IF !(Work_Zone[0] == 0*) GOTO 0x132D
408: 0x131C [0x03] ExtData[1]->WorkLocal[6] = 18565*
409: 0x1321 [0x40] SET_BIT_WORK_RANGE(start_bit=8*, end_bit=11*, target=Work_Zone[1], source=Work_Zone[0])
410: 0x132A [0x01] GOTO 0x136D
411: 0x132D [0x02] IF !(Work_Zone[0] == 1*) GOTO 0x1346
412: 0x1335 [0x03] ExtData[1]->WorkLocal[6] = 29034*
413: 0x133A [0x40] SET_BIT_WORK_RANGE(start_bit=8*, end_bit=11*, target=Work_Zone[1], source=Work_Zone[0])
414: 0x1343 [0x01] GOTO 0x136D
415: 0x1346 [0x02] IF !(Work_Zone[0] == 2*) GOTO 0x135F
416: 0x134E [0x03] ExtData[1]->WorkLocal[6] = 18472*
417: 0x1353 [0x40] SET_BIT_WORK_RANGE(start_bit=8*, end_bit=11*, target=Work_Zone[1], source=Work_Zone[0])
418: 0x135C [0x01] GOTO 0x136D
419: 0x135F [0x02] IF !(Work_Zone[0] == 3*) GOTO 0x136D
420: 0x1367 [0x01] GOTO 0x0981

SUBROUTINE_136D:
421: 0x136D [0x03] Work_Zone[2] = ExtData[1]->WorkLocal[4]
422: 0x1372 [0xCC] ITEM_INFO_WINDOW_HANDLER(case=0x01 - Open item info window (with chase), check_value=Work_Zone[2], buffer1=2*, buffer2=ExtData[1]->WorkLocal[5], buffer3=ExtData[1]->WorkLocal[6])
423: 0x137C [0x66] LOAD_EXT_SCHEDULER_MAIN: Load scheduler "tlk0" with entities [EventEntity, EventEntity], work=59*
424: 0x138B [0x1D] PRINT_EVENT_MESSAGE(message_id=12772*)
    → "Your weapon'll come out looking something like this."
425: 0x138E [0x23] WAIT_FOR_DIALOG_INTERACTION
426: 0x138F [0x66] LOAD_EXT_SCHEDULER_MAIN: Load scheduler "tlk1" with entities [EventEntity, EventEntity], work=59*
427: 0x139E [0x93] DISPLAY_ITEM_INFO(item_id=0*)
428: 0x13A1 [0x24] CREATE_DIALOG(message_id=12773*, default_option=1*, option_flags=0*)
    → "Is this acceptable? [Positively peachy./Back to the beginning./Agonizingly atrocious.]"
429: 0x13A8 [0x25] WAIT_DIALOG_SELECT()
430: 0x13A9 [0x02] IF !(Work_Zone[0] == 0*) GOTO 0x13D0
431: 0x13B1 [0x66] LOAD_EXT_SCHEDULER_MAIN: Load scheduler "pas0" with entities [EventEntity, EventEntity], work=54*
432: 0x13C0 [0x1D] PRINT_EVENT_MESSAGE(message_id=12774*)
    → "I'd call this a success! Can you not sense the aura emanating from the surrrface? That's the paragon's power in action!"
433: 0x13C3 [0x23] WAIT_FOR_DIALOG_INTERACTION
434: 0x13C4 [0x40] SET_BIT_WORK_RANGE(start_bit=0*, end_bit=3*, target=Work_Zone[1], source=6*)
435: 0x13CD [0x01] GOTO 0x1410
436: 0x13D0 [0x02] IF !(Work_Zone[0] == 1*) GOTO 0x13DE
437: 0x13D8 [0x01] GOTO 0x0981

SUBROUTINE_1410:
438: 0x1410 [0x01] GOTO 0x1445
439: 0x1413 [0x02] IF !(Work_Zone[0] == 6*) GOTO 0x1445
440: 0x141B [0x66] LOAD_EXT_SCHEDULER_MAIN: Load scheduler "tlk0" with entities [EventEntity, EventEntity], work=59*
441: 0x142A [0x1D] PRINT_EVENT_MESSAGE(message_id=12775*)
    → "Change your mind? Well, a paragon is your trrreasure to use as you see fit. Come back again if you decide you're interested."
442: 0x142D [0x23] WAIT_FOR_DIALOG_INTERACTION
443: 0x142E [0x66] LOAD_EXT_SCHEDULER_MAIN: Load scheduler "tlk1" with entities [EventEntity, EventEntity], work=59*
444: 0x143D [0x03] Work_Zone[1] = 0*
445: 0x1442 [0x01] GOTO 0x1445

SUBROUTINE_1445:
446: 0x1445 [0x2E] SET_CLI_EVENT_CANCEL_FLAGS()
447: 0x1446 [0x21] END_EVENT
448: 0x1447 [0x00] END_REQSTACK()
```

#### Data or dead code:

```
# Dead code (unreachable instructions):
     0x0A56 [0x01] GOTO 0x0A59
# Dead code (unreachable instructions):
     0x0AC5 [0x01] GOTO 0x0AC8
# Dead code (unreachable instructions):
     0x0B36 [0x01] GOTO 0x0B6B
# Dead code (unreachable instructions):
     0x0C0E [0x01] GOTO 0x0C11
# Dead code (unreachable instructions):
     0x0C7D [0x01] GOTO 0x0C80
# Dead code (unreachable instructions):
     0x0CEE [0x01] GOTO 0x0D23
# Dead code (unreachable instructions):
     0x0DC6 [0x01] GOTO 0x0DC9
# Dead code (unreachable instructions):
     0x0E35 [0x01] GOTO 0x0E38
# Dead code (unreachable instructions):
     0x0EA6 [0x01] GOTO 0x0EDB
# Dead code (unreachable instructions):
     0x0F7E [0x01] GOTO 0x0F81
# Dead code (unreachable instructions):
     0x0FFA [0x01] GOTO 0x0FFD
# Dead code (unreachable instructions):
     0x106B [0x01] GOTO 0x10A0
# Dead code (unreachable instructions):
     0x1143 [0x01] GOTO 0x1146
# Dead code (unreachable instructions):
     0x11B2 [0x01] GOTO 0x11B5
# Dead code (unreachable instructions):
     0x1223 [0x01] GOTO 0x1258
# Dead code (unreachable instructions):
     0x12FB [0x01] GOTO 0x12FE
# Dead code (unreachable instructions):
     0x136A [0x01] GOTO 0x136D
# Dead code (unreachable instructions):
     0x13DB [0x01] GOTO 0x1410
```

### Event 5128

#### Metadata

| Field        | Value      |
|--------------|------------|
| Entrypoint   | 0x1448     |
| Data Size    | 2948 bytes |
| Instructions | 449        |

```
      00 01 02 03 04 05 06 07  08 09 0A 0B 0C 0D 0E 0F
      -- -- -- -- -- -- -- --  -- -- -- -- -- -- -- --
1440:                          42 03 00 00 02 10 3E 00          B.....>.
1450: 00 0D 80 5F 14 3D 00 00  0D 80 00 80 01 66 14 3C  ..._.=.......f.<
1460: 00 00 0D 80 00 80 3E 00  00 00 80 77 14 3D 00 00  ......>....w.=..
1470: 00 80 00 80 01 7E 14 3C  00 00 00 80 00 80 3E 00  .....~.<......>.
1480: 00 29 80 8F 14 3D 00 00  29 80 00 80 01 96 14 3C  .)...=..)......<
1490: 00 00 29 80 00 80 3E 00  00 0B 80 A7 14 3D 00 00  ..)...>......=..
14A0: 0B 80 00 80 01 AE 14 3C  00 00 0B 80 00 80 3E 00  .......<......>.
14B0: 00 2A 80 BF 14 3D 00 00  2A 80 00 80 01 C6 14 3C  .*...=..*......<
14C0: 00 00 2A 80 00 80 3E 00  00 04 80 D7 14 3D 00 00  ..*...>......=..
14D0: 04 80 00 80 01 DE 14 3C  00 00 04 80 00 80 03 04  .......<........
14E0: 00 03 10 1E F0 FF FF 7F  1C 00 80 6E F8 FF FF 7F  ...........n....
14F0: 33 80 99 F8 FF FF 7F 99  F8 FF FF 7F 66 02 80 F8  3...........f...
1500: FF FF 7F F8 FF FF 7F 74  6C 6B 30 1D 36 80 23 66  .......tlk0.6.#f
1510: 02 80 F8 FF FF 7F F8 FF  FF 7F 74 6C 6B 31 03 07  ..........tlk1..
1520: 00 0D 80 03 01 10 0D 80  03 02 10 13 80 03 03 10  ................
1530: 15 80 03 04 10 17 80 03  05 10 19 80 03 06 10 1B  ................
1540: 80 03 07 10 1D 80 03 05  00 0D 80 03 06 00 0D 80  ................
1550: 24 37 80 07 00 00 00 25  02 00 10 0D 80 00 F2 16  $7.....%........
1560: 03 07 00 00 10 03 02 10  13 80 66 02 80 F8 FF FF  ..........f.....
1570: 7F F8 FF FF 7F 74 6C 6B  30 1D 38 80 23 66 02 80  .....tlk0.8.#f..
1580: F8 FF FF 7F F8 FF FF 7F  74 6C 6B 31 03 02 10 0D  ........tlk1....
1590: 80 48 39 80 23 03 02 10  13 80 24 31 80 0D 80 0D  .H9.#.....$1....
15A0: 80 25 02 00 10 0D 80 00  BB 15 03 05 00 5A 80 40  .%...........Z.@
15B0: 2A 80 33 80 01 10 00 10  01 FB 15 02 00 10 00 80  *.3.............
15C0: 00 D4 15 03 05 00 3B 80  40 2A 80 33 80 01 10 00  ......;.@*.3....
15D0: 10 01 FB 15 02 00 10 29  80 00 ED 15 03 05 00 5B  .......).......[
15E0: 80 40 2A 80 33 80 01 10  00 10 01 FB 15 02 00 10  .@*.3...........
15F0: 0B 80 00 FB 15 01 23 15  01 FB 15 03 02 10 00 80  ......#.........
1600: 48 39 80 23 03 02 10 13  80 24 14 80 0D 80 0D 80  H9.#.....$......
1610: 25 02 00 10 0D 80 00 2A  16 03 06 00 3D 80 40 3E  %......*....=.@>
1620: 80 3F 80 01 10 00 10 01  6A 16 02 00 10 00 80 00  .?......j.......
1630: 43 16 03 06 00 40 80 40  3E 80 3F 80 01 10 00 10  C....@.@>.?.....
1640: 01 6A 16 02 00 10 29 80  00 5C 16 03 06 00 41 80  .j....)..\....A.
1650: 40 3E 80 3F 80 01 10 00  10 01 6A 16 02 00 10 0B  @>.?......j.....
1660: 80 00 6A 16 01 23 15 01  6A 16 03 02 10 04 00 CC  ..j..#..j.......
1670: 01 02 10 29 80 05 00 06  00 66 02 80 F8 FF FF 7F  ...).....f......
1680: F8 FF FF 7F 74 6C 6B 30  1D 42 80 23 66 02 80 F8  ....tlk0.B.#f...
1690: FF FF 7F F8 FF FF 7F 74  6C 6B 31 93 0D 80 24 43  .......tlk1...$C
16A0: 80 00 80 0D 80 25 02 00  10 0D 80 00 CD 16 66 44  .....%........fD
16B0: 80 F8 FF FF 7F F8 FF FF  7F 70 61 73 30 1D 45 80  .........pas0.E.
16C0: 23 40 0D 80 0B 80 01 10  00 80 01 EF 16 02 00 10  #@..............
16D0: 00 80 00 DB 16 01 23 15  01 EF 16 02 00 10 29 80  ......#.......).
16E0: 00 EF 16 1D 46 80 23 03  01 10 0D 80 01 EF 16 01  ....F.#.........
16F0: C9 1F 02 00 10 00 80 00  AA 18 03 07 00 00 10 03  ................
1700: 02 10 15 80 66 02 80 F8  FF FF 7F F8 FF FF 7F 74  ....f..........t
1710: 6C 6B 30 1D 38 80 23 66  02 80 F8 FF FF 7F F8 FF  lk0.8.#f........
1720: FF 7F 74 6C 6B 31 03 02  10 0D 80 48 39 80 23 03  ..tlk1.....H9.#.
1730: 02 10 15 80 24 31 80 0D  80 0D 80 25 02 00 10 0D  ....$1.....%....
1740: 80 00 55 17 03 05 00 5A  80 40 2A 80 33 80 01 10  ..U....Z.@*.3...
1750: 00 10 01 95 17 02 00 10  00 80 00 6E 17 03 05 00  ...........n....
1760: 3B 80 40 2A 80 33 80 01  10 00 10 01 95 17 02 00  ;.@*.3..........
1770: 10 29 80 00 87 17 03 05  00 5B 80 40 2A 80 33 80  .).......[.@*.3.
