# 17826007 - Cilmad

## Common Data

| Field            | Value                     |
|------------------|---------------------------|
| Zone             | Western Adoulin (ID: 256) |
| Block Size       | 256 bytes                 |
| Total Events     | 6                         |
| References Count | 16                        |

## List of Events

| Event ID                 | Entrypoint   |   Size |   Instructions |
|--------------------------|--------------|--------|----------------|
| [65535](#event-65535)    | 0x0000       |      1 |              1 |
| [181](#event-181)        | 0x0001       |      1 |              1 |
| [65535.1](#event-655351) | 0x0002       |     14 |              4 |
| [190](#event-190)        | 0x0010       |     45 |              4 |
| [65535.2](#event-655352) | 0x003D       |     45 |              4 |
| [65535.3](#event-655353) | 0x006A       |     45 |              4 |

## DAT References (imed_data)

|   Index | Hex Value   |   Dec Value |
|---------|-------------|-------------|
|       0 | 0x000D      |          13 |
|       1 | 0xFFFD9557  |  4294808919 |
|       2 | 0xFFFF9A2A  |  4294941226 |
|       3 | 0x0A8B      |        2699 |
|       4 | 0x0001      |           1 |
|       5 | 0x0004      |           4 |
|       6 | 0x0000      |           0 |
|       7 | 0x015B      |         347 |
|       8 | 0x0002      |           2 |
|       9 | 0x0077      |         119 |
|      10 | 0x002E      |          46 |
|      11 | 0x00BA      |         186 |
|      12 | 0x0013      |          19 |
|      13 | 0x0014      |          20 |
|      14 | 0x008F      |         143 |
|      15 | 0x0017      |          23 |

## Events

### Event 65535

#### Metadata

| Field        | Value   |
|--------------|---------|
| Entrypoint   | 0x0000  |
| Data Size    | 1 bytes |
| Instructions | 1       |

```
      00 01 02 03 04 05 06 07  08 09 0A 0B 0C 0D 0E 0F
      -- -- -- -- -- -- -- --  -- -- -- -- -- -- -- --
0000: 00                                                .               
```

#### Opcodes

```
  0: 0x0000 [0x00] END_REQSTACK()
```

### Event 181

#### Metadata

| Field        | Value   |
|--------------|---------|
| Entrypoint   | 0x0001  |
| Data Size    | 1 bytes |
| Instructions | 1       |

```
      00 01 02 03 04 05 06 07  08 09 0A 0B 0C 0D 0E 0F
      -- -- -- -- -- -- -- --  -- -- -- -- -- -- -- --
0000:    00                                              .              
```

#### Opcodes

```
  0: 0x0001 [0x00] END_REQSTACK()
```

### Event 65535.1

#### Metadata

| Field        | Value    |
|--------------|----------|
| Entrypoint   | 0x0002   |
| Data Size    | 14 bytes |
| Instructions | 4        |

```
      00 01 02 03 04 05 06 07  08 09 0A 0B 0C 0D 0E 0F
      -- -- -- -- -- -- -- --  -- -- -- -- -- -- -- --
0000:       32 00 80 1F 00 01  80 02 80 03 80 1F 01 00    2.............
```

#### Opcodes

```
  0: 0x0002 [0x32] ExtData[1]->MainSpeed = 13* * 0.1
  1: 0x0005 [0x1F] MOVE_ENTITY: EventEntity moves to X=-158.377*, Z=-26.070*, Y=2.699*
  2: 0x000D [0x1F] MOVE_ENTITY: Update entity position (mode=1)
  3: 0x000F [0x00] END_REQSTACK()
```

### Event 190

#### Metadata

| Field        | Value    |
|--------------|----------|
| Entrypoint   | 0x0010   |
| Data Size    | 45 bytes |
| Instructions | 4        |

```
      00 01 02 03 04 05 06 07  08 09 0A 0B 0C 0D 0E 0F
      -- -- -- -- -- -- -- --  -- -- -- -- -- -- -- --
0010: B4 00 00 00 43 61 67 73  77 65 6C 6C 00 00 00 00  ....Cagswell....
0020: 00 00 00 00 B5 00 00 00  B6 0B 04 80 05 80 06 80  ................
0030: 07 80 06 80 07 80 07 80  06 80 06 80 00           .............   
```

#### Opcodes

```
  0: 0x0010 [0xB4] UI_WINDOW_STRING_HANDLER(case=0x00 - Copy string from opcode, work_offset=ExtData[1]->WorkLocal[0], string="Cagswell")
  1: 0x0024 [0xB5] SET_EVENT_ENTITY_NAME: Change EventEntity name to ExtData[1]->WorkLocal[0]
  2: 0x0028 [0xB6] ENTITY_APPEARANCE_HANDLER(case=Full entity look, race=1*, hair=4*, head=0*, body=347*, hands=0*, legs=347*, feet=347*, main=0*, sub=0*)
  3: 0x003C [0x00] END_REQSTACK()
```

### Event 65535.2

#### Metadata

| Field        | Value    |
|--------------|----------|
| Entrypoint   | 0x003D   |
| Data Size    | 45 bytes |
| Instructions | 4        |

```
      00 01 02 03 04 05 06 07  08 09 0A 0B 0C 0D 0E 0F
      -- -- -- -- -- -- -- --  -- -- -- -- -- -- -- --
0030:                                         B4 00 00               ...
0040: 00 4D 65 6C 69 73 61 6E  64 72 61 00 00 00 00 00  .Melisandra.....
0050: 00 B5 00 00 00 B6 0B 08  80 04 80 09 80 0A 80 06  ................
0060: 80 0B 80 0C 80 06 80 06  80 00                    ..........      
```

#### Opcodes

```
  0: 0x003D [0xB4] UI_WINDOW_STRING_HANDLER(case=0x00 - Copy string from opcode, work_offset=ExtData[1]->WorkLocal[0], string="Melisandra")
  1: 0x0051 [0xB5] SET_EVENT_ENTITY_NAME: Change EventEntity name to ExtData[1]->WorkLocal[0]
  2: 0x0055 [0xB6] ENTITY_APPEARANCE_HANDLER(case=Full entity look, race=2*, hair=1*, head=119*, body=46*, hands=0*, legs=186*, feet=19*, main=0*, sub=0*)
  3: 0x0069 [0x00] END_REQSTACK()
```

### Event 65535.3

#### Metadata

| Field        | Value    |
|--------------|----------|
| Entrypoint   | 0x006A   |
| Data Size    | 45 bytes |
| Instructions | 4        |

```
      00 01 02 03 04 05 06 07  08 09 0A 0B 0C 0D 0E 0F
      -- -- -- -- -- -- -- --  -- -- -- -- -- -- -- --
0060:                                B4 00 00 00 43 69            ....Ci
0070: 6C 6D 61 64 00 00 00 00  00 00 00 00 00 00 B5 00  lmad............
0080: 00 00 B6 0B 04 80 04 80  0D 80 0E 80 0F 80 0E 80  ................
0090: 0E 80 06 80 06 80 00                              .......         
```

#### Opcodes

```
  0: 0x006A [0xB4] UI_WINDOW_STRING_HANDLER(case=0x00 - Copy string from opcode, work_offset=ExtData[1]->WorkLocal[0], string="Cilmad")
  1: 0x007E [0xB5] SET_EVENT_ENTITY_NAME: Change EventEntity name to ExtData[1]->WorkLocal[0]
  2: 0x0082 [0xB6] ENTITY_APPEARANCE_HANDLER(case=Full entity look, race=1*, hair=1*, head=20*, body=143*, hands=23*, legs=143*, feet=143*, main=0*, sub=0*)
  3: 0x0096 [0x00] END_REQSTACK()
```
