# 17825963 - Svenja

## Common Data

| Field            | Value                     |
|------------------|---------------------------|
| Zone             | Western Adoulin (ID: 256) |
| Block Size       | 1188 bytes                |
| Total Events     | 58                        |
| References Count | 29                        |

## List of Events

| Event ID                   | Entrypoint   |   Size |   Instructions |
|----------------------------|--------------|--------|----------------|
| [65535](#event-65535)      | 0x0000       |      1 |              1 |
| [5085](#event-5085)        | 0x0001       |      7 |              2 |
| [65535.1](#event-655351)   | 0x0008       |     35 |              7 |
| [65535.2](#event-655352)   | 0x002B       |     14 |              4 |
| [65535.3](#event-655353)   | 0x0039       |     19 |              5 |
| [168](#event-168)          | 0x004C       |      7 |              2 |
| [65535.4](#event-655354)   | 0x0053       |     14 |              4 |
| [169](#event-169)          | 0x0061       |      7 |              2 |
| [170](#event-170)          | 0x0068       |      7 |              2 |
| [65535.5](#event-655355)   | 0x006F       |     35 |              7 |
| [185](#event-185)          | 0x0092       |      7 |              2 |
| [65535.6](#event-655356)   | 0x0099       |     22 |              6 |
| [186](#event-186)          | 0x00AF       |      7 |              2 |
| [187](#event-187)          | 0x00B6       |      7 |              2 |
| [172](#event-172)          | 0x00BD       |      1 |              1 |
| [65535.7](#event-655357)   | 0x00BE       |     16 |              2 |
| [65535.8](#event-655358)   | 0x00CE       |     14 |              2 |
| [65535.9](#event-655359)   | 0x00DC       |     16 |              2 |
| [65535.10](#event-6553510) | 0x00EC       |     14 |              2 |
| [65535.11](#event-6553511) | 0x00FA       |     16 |              2 |
| [65535.12](#event-6553512) | 0x010A       |     14 |              2 |
| [65535.13](#event-6553513) | 0x0118       |     16 |              2 |
| [65535.14](#event-6553514) | 0x0128       |     14 |              2 |
| [65535.15](#event-6553515) | 0x0136       |     16 |              2 |
| [65535.16](#event-6553516) | 0x0146       |     14 |              2 |
| [65535.17](#event-6553517) | 0x0154       |     16 |              2 |
| [65535.18](#event-6553518) | 0x0164       |     14 |              2 |
| [65535.19](#event-6553519) | 0x0172       |     16 |              2 |
| [65535.20](#event-6553520) | 0x0182       |     14 |              2 |
| [65535.21](#event-6553521) | 0x0190       |     16 |              2 |
| [65535.22](#event-6553522) | 0x01A0       |     14 |              2 |
| [65535.23](#event-6553523) | 0x01AE       |     16 |              2 |
| [65535.24](#event-6553524) | 0x01BE       |     14 |              2 |
| [65535.25](#event-6553525) | 0x01CC       |     16 |              2 |
| [65535.26](#event-6553526) | 0x01DC       |     14 |              2 |
| [65535.27](#event-6553527) | 0x01EA       |     16 |              2 |
| [65535.28](#event-6553528) | 0x01FA       |     14 |              2 |
| [65535.29](#event-6553529) | 0x0208       |     16 |              2 |
| [65535.30](#event-6553530) | 0x0218       |     14 |              2 |
| [65535.31](#event-6553531) | 0x0226       |     16 |              2 |
| [65535.32](#event-6553532) | 0x0236       |     14 |              2 |
| [65535.33](#event-6553533) | 0x0244       |     16 |              2 |
| [65535.34](#event-6553534) | 0x0254       |     14 |              2 |
| [65535.35](#event-6553535) | 0x0262       |     16 |              2 |
| [65535.36](#event-6553536) | 0x0272       |     14 |              2 |
| [65535.37](#event-6553537) | 0x0280       |     16 |              2 |
| [65535.38](#event-6553538) | 0x0290       |     14 |              2 |
| [65535.39](#event-6553539) | 0x029E       |     16 |              2 |
| [65535.40](#event-6553540) | 0x02AE       |     14 |              2 |
| [65535.41](#event-6553541) | 0x02BC       |     16 |              2 |
| [65535.42](#event-6553542) | 0x02CC       |     14 |              2 |
| [5206](#event-5206)        | 0x02DA       |      7 |              2 |
| [5207](#event-5207)        | 0x02E1       |      7 |              2 |
| [65535.43](#event-6553543) | 0x02E8       |     17 |              5 |
| [65535.44](#event-6553544) | 0x02F9       |     14 |              4 |
| [65535.45](#event-6553545) | 0x0307       |     14 |              4 |
| [65535.46](#event-6553546) | 0x0315       |     19 |              5 |
| [65535.47](#event-6553547) | 0x0328       |     14 |              4 |

## DAT References (imed_data)

|   Index | Hex Value   |   Dec Value |
|---------|-------------|-------------|
|       0 | 0x000D      |          13 |
|       1 | 0xFFFFFFFF  |  4294967295 |
|       2 | 0xFFFFD5EC  |  4294956524 |
|       3 | 0x0000      |           0 |
|       4 | 0x001E      |          30 |
|       5 | 0x0028      |          40 |
|       6 | 0xFFFFFFB4  |  4294967220 |
|       7 | 0xFFFFD1AB  |  4294955435 |
|       8 | 0xFFFFFFDD  |  4294967261 |
|       9 | 0xFFFFCC30  |  4294954032 |
|      10 | 0x0160      |         352 |
|      11 | 0xFFFFCFF3  |  4294954995 |
|      12 | 0x002B      |          43 |
|      13 | 0xFFFFD291  |  4294955665 |
|      14 | 0x0CBE      |        3262 |
|      15 | 0x005A      |          90 |
|      16 | 0x0012      |          18 |
|      17 | 0xFFFFCF87  |  4294954887 |
|      18 | 0x0CBD      |        3261 |
|      19 | 0xFFFFDECC  |  4294958796 |
|      20 | 0x03FF      |        1023 |
|      21 | 0xFFFFFE7A  |  4294966906 |
|      22 | 0xFFFFD6CA  |  4294956746 |
|      23 | 0xFFFFFD44  |  4294966596 |
|      24 | 0xFFFF264E  |  4294911566 |
|      25 | 0xFFFFDD0A  |  4294958346 |
|      26 | 0xFFFFFE0C  |  4294966796 |
|      27 | 0xFFFF2202  |  4294910466 |
|      28 | 0xFFFFE48A  |  4294960266 |

## Events

### Event 65535

#### Metadata

| Field        | Value   |
|--------------|---------|
| Entrypoint   | 0x0000  |
| Data Size    | 1 bytes |
| Instructions | 1       |

```
      00 01 02 03 04 05 06 07  08 09 0A 0B 0C 0D 0E 0F
      -- -- -- -- -- -- -- --  -- -- -- -- -- -- -- --
0000: 00                                                .               
```

#### Opcodes

```
  0: 0x0000 [0x00] END_REQSTACK()
```

### Event 5085

#### Metadata

| Field        | Value   |
|--------------|---------|
| Entrypoint   | 0x0001  |
| Data Size    | 7 bytes |
| Instructions | 2       |

```
      00 01 02 03 04 05 06 07  08 09 0A 0B 0C 0D 0E 0F
      -- -- -- -- -- -- -- --  -- -- -- -- -- -- -- --
0000:    92 01 F8 FF FF 7F 00                            .......        
```

#### Opcodes

```
  0: 0x0001 [0x92] EventEntity->Render.Flags3 ^= 0x01
  1: 0x0007 [0x00] END_REQSTACK()
```

### Event 65535.1

#### Metadata

| Field        | Value    |
|--------------|----------|
| Entrypoint   | 0x0008   |
| Data Size    | 35 bytes |
| Instructions | 7        |

```
      00 01 02 03 04 05 06 07  08 09 0A 0B 0C 0D 0E 0F
      -- -- -- -- -- -- -- --  -- -- -- -- -- -- -- --
0000:                          32 00 80 1F 00 01 80 02          2.......
0010: 80 03 80 1F 01 2C F7 00  10 01 F7 00 10 01 63 6C  .....,........cl
0020: 6F 73 1E C1 00 10 01 1C  04 80 00                 os.........     
```

#### Opcodes

```
  0: 0x0008 [0x32] ExtData[1]->MainSpeed = 13* * 0.1
  1: 0x000B [0x1F] MOVE_ENTITY: EventEntity moves to X=-0.001*, Z=-10.772*, Y=0.000*
  2: 0x0013 [0x1F] MOVE_ENTITY: Update entity position (mode=1)
  3: 0x0015 [0x2C] CREATE_SCHEDULER_TASK: Create scheduler "clos" with entities [Unnamed NPC (ID: 17826039/0x011000F7), Unnamed NPC (ID: 17826039/0x011000F7)]
  4: 0x0022 [0x1E] EventEntity looks at Alianne (ID: 17825985/0x011000C1) and starts talking
  5: 0x0027 [0x1C] WAIT(30* ticks)
  6: 0x002A [0x00] END_REQSTACK()
```

### Event 65535.2

#### Metadata

| Field        | Value    |
|--------------|----------|
| Entrypoint   | 0x002B   |
| Data Size    | 14 bytes |
| Instructions | 4        |

```
      00 01 02 03 04 05 06 07  08 09 0A 0B 0C 0D 0E 0F
      -- -- -- -- -- -- -- --  -- -- -- -- -- -- -- --
0020:                                   32 05 80 1F 00             2....
0030: 06 80 07 80 03 80 1F 01  00                       .........       
```

#### Opcodes

```
  0: 0x002B [0x32] ExtData[1]->MainSpeed = 40* * 0.1
  1: 0x002E [0x1F] MOVE_ENTITY: EventEntity moves to X=-0.076*, Z=-11.861*, Y=0.000*
  2: 0x0036 [0x1F] MOVE_ENTITY: Update entity position (mode=1)
  3: 0x0038 [0x00] END_REQSTACK()
```

### Event 65535.3

#### Metadata

| Field        | Value    |
|--------------|----------|
| Entrypoint   | 0x0039   |
| Data Size    | 19 bytes |
| Instructions | 5        |

```
      00 01 02 03 04 05 06 07  08 09 0A 0B 0C 0D 0E 0F
      -- -- -- -- -- -- -- --  -- -- -- -- -- -- -- --
0030:                             32 00 80 1F 00 08 80           2......
0040: 09 80 03 80 1F 01 1E F0  FF FF 7F 00              ............    
```

#### Opcodes

```
  0: 0x0039 [0x32] ExtData[1]->MainSpeed = 13* * 0.1
  1: 0x003C [0x1F] MOVE_ENTITY: EventEntity moves to X=-0.035*, Z=-13.264*, Y=0.000*
  2: 0x0044 [0x1F] MOVE_ENTITY: Update entity position (mode=1)
  3: 0x0046 [0x1E] EventEntity looks at LocalPlayer and starts talking
  4: 0x004B [0x00] END_REQSTACK()
```

### Event 168

#### Metadata

| Field        | Value   |
|--------------|---------|
| Entrypoint   | 0x004C  |
| Data Size    | 7 bytes |
| Instructions | 2       |

```
      00 01 02 03 04 05 06 07  08 09 0A 0B 0C 0D 0E 0F
      -- -- -- -- -- -- -- --  -- -- -- -- -- -- -- --
0040:                                      92 01 F8 FF              ....
0050: FF 7F 00                                          ...             
```

#### Opcodes

```
  0: 0x004C [0x92] EventEntity->Render.Flags3 ^= 0x01
  1: 0x0052 [0x00] END_REQSTACK()
```

### Event 65535.4

#### Metadata

| Field        | Value    |
|--------------|----------|
| Entrypoint   | 0x0053   |
| Data Size    | 14 bytes |
| Instructions | 4        |

```
      00 01 02 03 04 05 06 07  08 09 0A 0B 0C 0D 0E 0F
      -- -- -- -- -- -- -- --  -- -- -- -- -- -- -- --
0050:          32 00 80 1F 00  0A 80 0B 80 03 80 1F 01     2............
0060: 00                                                .               
```

#### Opcodes

```
  0: 0x0053 [0x32] ExtData[1]->MainSpeed = 13* * 0.1
  1: 0x0056 [0x1F] MOVE_ENTITY: EventEntity moves to X=0.352*, Z=-12.301*, Y=0.000*
  2: 0x005E [0x1F] MOVE_ENTITY: Update entity position (mode=1)
  3: 0x0060 [0x00] END_REQSTACK()
```

### Event 169

#### Metadata

| Field        | Value   |
|--------------|---------|
| Entrypoint   | 0x0061  |
| Data Size    | 7 bytes |
| Instructions | 2       |

```
      00 01 02 03 04 05 06 07  08 09 0A 0B 0C 0D 0E 0F
      -- -- -- -- -- -- -- --  -- -- -- -- -- -- -- --
0060:    92 01 F8 FF FF 7F 00                            .......        
```

#### Opcodes

```
  0: 0x0061 [0x92] EventEntity->Render.Flags3 ^= 0x01
  1: 0x0067 [0x00] END_REQSTACK()
```

### Event 170

#### Metadata

| Field        | Value   |
|--------------|---------|
| Entrypoint   | 0x0068  |
| Data Size    | 7 bytes |
| Instructions | 2       |

```
      00 01 02 03 04 05 06 07  08 09 0A 0B 0C 0D 0E 0F
      -- -- -- -- -- -- -- --  -- -- -- -- -- -- -- --
0060:                          92 01 F8 FF FF 7F 00             ....... 
```

#### Opcodes

```
  0: 0x0068 [0x92] EventEntity->Render.Flags3 ^= 0x01
  1: 0x006E [0x00] END_REQSTACK()
```

### Event 65535.5

#### Metadata

| Field        | Value    |
|--------------|----------|
| Entrypoint   | 0x006F   |
| Data Size    | 35 bytes |
| Instructions | 7        |

```
      00 01 02 03 04 05 06 07  08 09 0A 0B 0C 0D 0E 0F
      -- -- -- -- -- -- -- --  -- -- -- -- -- -- -- --
0060:                                               32                 2
0070: 05 80 1F 00 0C 80 0D 80  03 80 1F 01 1C 04 80 5B  ...............[
0080: 0E 80 AB 00 10 01 AB 00  10 01 73 68 61 30 1C 0F  ..........sha0..
0090: 80 00                                             ..              
```

#### Opcodes

```
  0: 0x006F [0x32] ExtData[1]->MainSpeed = 40* * 0.1
  1: 0x0072 [0x1F] MOVE_ENTITY: EventEntity moves to X=0.043*, Z=-11.631*, Y=0.000*
  2: 0x007A [0x1F] MOVE_ENTITY: Update entity position (mode=1)
  3: 0x007C [0x1C] WAIT(30* ticks)
  4: 0x007F [0x5B] LOAD_EXT_SCHEDULER: Load scheduler "sha0" with entities [Svenja (ID: 17825963/0x011000AB), Svenja (ID: 17825963/0x011000AB)], work=3262*
  5: 0x008E [0x1C] WAIT(90* ticks)
  6: 0x0091 [0x00] END_REQSTACK()
```

### Event 185

#### Metadata

| Field        | Value   |
|--------------|---------|
| Entrypoint   | 0x0092  |
| Data Size    | 7 bytes |
| Instructions | 2       |

```
      00 01 02 03 04 05 06 07  08 09 0A 0B 0C 0D 0E 0F
      -- -- -- -- -- -- -- --  -- -- -- -- -- -- -- --
0090:       92 01 F8 FF FF 7F  00                         .......       
```

#### Opcodes

```
  0: 0x0092 [0x92] EventEntity->Render.Flags3 ^= 0x01
  1: 0x0098 [0x00] END_REQSTACK()
```

### Event 65535.6

#### Metadata

| Field        | Value    |
|--------------|----------|
| Entrypoint   | 0x0099   |
| Data Size    | 22 bytes |
| Instructions | 6        |

```
      00 01 02 03 04 05 06 07  08 09 0A 0B 0C 0D 0E 0F
      -- -- -- -- -- -- -- --  -- -- -- -- -- -- -- --
0090:                             32 00 80 1F 00 10 80           2......
00A0: 11 80 03 80 1F 01 1E F0  FF FF 7F 1C 04 80 00     ............... 
```

#### Opcodes

```
  0: 0x0099 [0x32] ExtData[1]->MainSpeed = 13* * 0.1
  1: 0x009C [0x1F] MOVE_ENTITY: EventEntity moves to X=0.018*, Z=-12.409*, Y=0.000*
  2: 0x00A4 [0x1F] MOVE_ENTITY: Update entity position (mode=1)
  3: 0x00A6 [0x1E] EventEntity looks at LocalPlayer and starts talking
  4: 0x00AB [0x1C] WAIT(30* ticks)
  5: 0x00AE [0x00] END_REQSTACK()
```

### Event 186

#### Metadata

| Field        | Value   |
|--------------|---------|
| Entrypoint   | 0x00AF  |
| Data Size    | 7 bytes |
| Instructions | 2       |

```
      00 01 02 03 04 05 06 07  08 09 0A 0B 0C 0D 0E 0F
      -- -- -- -- -- -- -- --  -- -- -- -- -- -- -- --
00A0:                                               92                 .
00B0: 01 F8 FF FF 7F 00                                 ......          
```

#### Opcodes

```
  0: 0x00AF [0x92] EventEntity->Render.Flags3 ^= 0x01
  1: 0x00B5 [0x00] END_REQSTACK()
```

### Event 187

#### Metadata

| Field        | Value   |
|--------------|---------|
| Entrypoint   | 0x00B6  |
| Data Size    | 7 bytes |
| Instructions | 2       |

```
      00 01 02 03 04 05 06 07  08 09 0A 0B 0C 0D 0E 0F
      -- -- -- -- -- -- -- --  -- -- -- -- -- -- -- --
00B0:                   92 01  F8 FF FF 7F 00                 .......   
```

#### Opcodes

```
  0: 0x00B6 [0x92] EventEntity->Render.Flags3 ^= 0x01
  1: 0x00BC [0x00] END_REQSTACK()
```

### Event 172

#### Metadata

| Field        | Value   |
|--------------|---------|
| Entrypoint   | 0x00BD  |
| Data Size    | 1 bytes |
| Instructions | 1       |

```
      00 01 02 03 04 05 06 07  08 09 0A 0B 0C 0D 0E 0F
      -- -- -- -- -- -- -- --  -- -- -- -- -- -- -- --
00B0:                                         00                     .  
```

#### Opcodes

```
  0: 0x00BD [0x00] END_REQSTACK()
```

### Event 65535.7

#### Metadata

| Field        | Value    |
|--------------|----------|
| Entrypoint   | 0x00BE   |
| Data Size    | 16 bytes |
| Instructions | 2        |

```
      00 01 02 03 04 05 06 07  08 09 0A 0B 0C 0D 0E 0F
      -- -- -- -- -- -- -- --  -- -- -- -- -- -- -- --
00B0:                                            5B 12                [.
00C0: 80 F8 FF FF 7F F8 FF FF  7F 66 30 30 30 00        .........f000.  
```

#### Opcodes

```
  0: 0x00BE [0x5B] LOAD_EXT_SCHEDULER: Load scheduler "f000" with entities [EventEntity, EventEntity], work=3261*
  1: 0x00CD [0x00] END_REQSTACK()
```

### Event 65535.8

#### Metadata

| Field        | Value    |
|--------------|----------|
| Entrypoint   | 0x00CE   |
| Data Size    | 14 bytes |
| Instructions | 2        |

```
      00 01 02 03 04 05 06 07  08 09 0A 0B 0C 0D 0E 0F
      -- -- -- -- -- -- -- --  -- -- -- -- -- -- -- --
00C0:                                            53 F8                S.
00D0: FF FF 7F F8 FF FF 7F 66  30 30 30 00              .......f000.    
```

#### Opcodes

```
  0: 0x00CE [0x53] WAIT_SCHEDULER_TASK: Wait for scheduler "f000" with entities [EventEntity, EventEntity]
  1: 0x00DB [0x00] END_REQSTACK()
```

### Event 65535.9

#### Metadata

| Field        | Value    |
|--------------|----------|
| Entrypoint   | 0x00DC   |
| Data Size    | 16 bytes |
| Instructions | 2        |

```
      00 01 02 03 04 05 06 07  08 09 0A 0B 0C 0D 0E 0F
      -- -- -- -- -- -- -- --  -- -- -- -- -- -- -- --
00D0:                                      5B 12 80 F8              [...
00E0: FF FF 7F F8 FF FF 7F 66  30 30 31 00              .......f001.    
```

#### Opcodes

```
  0: 0x00DC [0x5B] LOAD_EXT_SCHEDULER: Load scheduler "f001" with entities [EventEntity, EventEntity], work=3261*
  1: 0x00EB [0x00] END_REQSTACK()
```

### Event 65535.10

#### Metadata

| Field        | Value    |
|--------------|----------|
| Entrypoint   | 0x00EC   |
| Data Size    | 14 bytes |
| Instructions | 2        |

```
      00 01 02 03 04 05 06 07  08 09 0A 0B 0C 0D 0E 0F
      -- -- -- -- -- -- -- --  -- -- -- -- -- -- -- --
00E0:                                      53 F8 FF FF              S...
00F0: 7F F8 FF FF 7F 66 30 30  31 00                    .....f001.      
```

#### Opcodes

```
  0: 0x00EC [0x53] WAIT_SCHEDULER_TASK: Wait for scheduler "f001" with entities [EventEntity, EventEntity]
  1: 0x00F9 [0x00] END_REQSTACK()
```

### Event 65535.11

#### Metadata

| Field        | Value    |
|--------------|----------|
| Entrypoint   | 0x00FA   |
| Data Size    | 16 bytes |
| Instructions | 2        |

```
      00 01 02 03 04 05 06 07  08 09 0A 0B 0C 0D 0E 0F
      -- -- -- -- -- -- -- --  -- -- -- -- -- -- -- --
00F0:                                5B 12 80 F8 FF FF            [.....
0100: 7F F8 FF FF 7F 66 61 30  30 00                    .....fa00.      
```

#### Opcodes

```
  0: 0x00FA [0x5B] LOAD_EXT_SCHEDULER: Load scheduler "fa00" with entities [EventEntity, EventEntity], work=3261*
  1: 0x0109 [0x00] END_REQSTACK()
```

### Event 65535.12

#### Metadata

| Field        | Value    |
|--------------|----------|
| Entrypoint   | 0x010A   |
| Data Size    | 14 bytes |
| Instructions | 2        |

```
      00 01 02 03 04 05 06 07  08 09 0A 0B 0C 0D 0E 0F
      -- -- -- -- -- -- -- --  -- -- -- -- -- -- -- --
0100:                                53 F8 FF FF 7F F8            S.....
0110: FF FF 7F 66 61 30 30 00                           ...fa00.        
```

#### Opcodes

```
  0: 0x010A [0x53] WAIT_SCHEDULER_TASK: Wait for scheduler "fa00" with entities [EventEntity, EventEntity]
  1: 0x0117 [0x00] END_REQSTACK()
```

### Event 65535.13

#### Metadata

| Field        | Value    |
|--------------|----------|
| Entrypoint   | 0x0118   |
| Data Size    | 16 bytes |
| Instructions | 2        |

```
      00 01 02 03 04 05 06 07  08 09 0A 0B 0C 0D 0E 0F
      -- -- -- -- -- -- -- --  -- -- -- -- -- -- -- --
0110:                          5B 12 80 F8 FF FF 7F F8          [.......
0120: FF FF 7F 66 61 30 31 00                           ...fa01.        
```

#### Opcodes

```
  0: 0x0118 [0x5B] LOAD_EXT_SCHEDULER: Load scheduler "fa01" with entities [EventEntity, EventEntity], work=3261*
  1: 0x0127 [0x00] END_REQSTACK()
```

### Event 65535.14

#### Metadata

| Field        | Value    |
|--------------|----------|
| Entrypoint   | 0x0128   |
| Data Size    | 14 bytes |
| Instructions | 2        |

```
      00 01 02 03 04 05 06 07  08 09 0A 0B 0C 0D 0E 0F
      -- -- -- -- -- -- -- --  -- -- -- -- -- -- -- --
0120:                          53 F8 FF FF 7F F8 FF FF          S.......
0130: 7F 66 61 30 31 00                                 .fa01.          
```

#### Opcodes

```
  0: 0x0128 [0x53] WAIT_SCHEDULER_TASK: Wait for scheduler "fa01" with entities [EventEntity, EventEntity]
  1: 0x0135 [0x00] END_REQSTACK()
```

### Event 65535.15

#### Metadata

| Field        | Value    |
|--------------|----------|
| Entrypoint   | 0x0136   |
| Data Size    | 16 bytes |
| Instructions | 2        |

```
      00 01 02 03 04 05 06 07  08 09 0A 0B 0C 0D 0E 0F
      -- -- -- -- -- -- -- --  -- -- -- -- -- -- -- --
0130:                   5B 12  80 F8 FF FF 7F F8 FF FF        [.........
0140: 7F 66 68 30 30 00                                 .fh00.          
```

#### Opcodes

```
  0: 0x0136 [0x5B] LOAD_EXT_SCHEDULER: Load scheduler "fh00" with entities [EventEntity, EventEntity], work=3261*
  1: 0x0145 [0x00] END_REQSTACK()
```

### Event 65535.16

#### Metadata

| Field        | Value    |
|--------------|----------|
| Entrypoint   | 0x0146   |
| Data Size    | 14 bytes |
| Instructions | 2        |

```
      00 01 02 03 04 05 06 07  08 09 0A 0B 0C 0D 0E 0F
      -- -- -- -- -- -- -- --  -- -- -- -- -- -- -- --
0140:                   53 F8  FF FF 7F F8 FF FF 7F 66        S........f
0150: 68 30 30 00                                       h00.            
```

#### Opcodes

```
  0: 0x0146 [0x53] WAIT_SCHEDULER_TASK: Wait for scheduler "fh00" with entities [EventEntity, EventEntity]
  1: 0x0153 [0x00] END_REQSTACK()
```

### Event 65535.17

#### Metadata

| Field        | Value    |
|--------------|----------|
| Entrypoint   | 0x0154   |
| Data Size    | 16 bytes |
| Instructions | 2        |

```
      00 01 02 03 04 05 06 07  08 09 0A 0B 0C 0D 0E 0F
      -- -- -- -- -- -- -- --  -- -- -- -- -- -- -- --
0150:             5B 12 80 F8  FF FF 7F F8 FF FF 7F 66      [..........f
0160: 68 30 31 00                                       h01.            
```

#### Opcodes

```
  0: 0x0154 [0x5B] LOAD_EXT_SCHEDULER: Load scheduler "fh01" with entities [EventEntity, EventEntity], work=3261*
  1: 0x0163 [0x00] END_REQSTACK()
```

### Event 65535.18

#### Metadata

| Field        | Value    |
|--------------|----------|
| Entrypoint   | 0x0164   |
| Data Size    | 14 bytes |
| Instructions | 2        |

```
      00 01 02 03 04 05 06 07  08 09 0A 0B 0C 0D 0E 0F
      -- -- -- -- -- -- -- --  -- -- -- -- -- -- -- --
0160:             53 F8 FF FF  7F F8 FF FF 7F 66 68 30      S........fh0
0170: 31 00                                             1.              
```

#### Opcodes

```
  0: 0x0164 [0x53] WAIT_SCHEDULER_TASK: Wait for scheduler "fh01" with entities [EventEntity, EventEntity]
  1: 0x0171 [0x00] END_REQSTACK()
```

### Event 65535.19

#### Metadata

| Field        | Value    |
|--------------|----------|
| Entrypoint   | 0x0172   |
| Data Size    | 16 bytes |
| Instructions | 2        |

```
      00 01 02 03 04 05 06 07  08 09 0A 0B 0C 0D 0E 0F
      -- -- -- -- -- -- -- --  -- -- -- -- -- -- -- --
0170:       5B 12 80 F8 FF FF  7F F8 FF FF 7F 74 6C 6B    [..........tlk
0180: 30 00                                             0.              
```

#### Opcodes

```
  0: 0x0172 [0x5B] LOAD_EXT_SCHEDULER: Load scheduler "tlk0" with entities [EventEntity, EventEntity], work=3261*
  1: 0x0181 [0x00] END_REQSTACK()
```

### Event 65535.20

#### Metadata

| Field        | Value    |
|--------------|----------|
| Entrypoint   | 0x0182   |
| Data Size    | 14 bytes |
| Instructions | 2        |

```
      00 01 02 03 04 05 06 07  08 09 0A 0B 0C 0D 0E 0F
      -- -- -- -- -- -- -- --  -- -- -- -- -- -- -- --
0180:       53 F8 FF FF 7F F8  FF FF 7F 74 6C 6B 30 00    S........tlk0.
```

#### Opcodes

```
  0: 0x0182 [0x53] WAIT_SCHEDULER_TASK: Wait for scheduler "tlk0" with entities [EventEntity, EventEntity]
  1: 0x018F [0x00] END_REQSTACK()
```

### Event 65535.21

#### Metadata

| Field        | Value    |
|--------------|----------|
| Entrypoint   | 0x0190   |
| Data Size    | 16 bytes |
| Instructions | 2        |

```
      00 01 02 03 04 05 06 07  08 09 0A 0B 0C 0D 0E 0F
      -- -- -- -- -- -- -- --  -- -- -- -- -- -- -- --
0190: 5B 12 80 F8 FF FF 7F F8  FF FF 7F 74 6C 6B 31 00  [..........tlk1.
```

#### Opcodes

```
  0: 0x0190 [0x5B] LOAD_EXT_SCHEDULER: Load scheduler "tlk1" with entities [EventEntity, EventEntity], work=3261*
  1: 0x019F [0x00] END_REQSTACK()
```

### Event 65535.22

#### Metadata

| Field        | Value    |
|--------------|----------|
| Entrypoint   | 0x01A0   |
| Data Size    | 14 bytes |
| Instructions | 2        |

```
      00 01 02 03 04 05 06 07  08 09 0A 0B 0C 0D 0E 0F
      -- -- -- -- -- -- -- --  -- -- -- -- -- -- -- --
01A0: 53 F8 FF FF 7F F8 FF FF  7F 74 6C 6B 31 00        S........tlk1.  
```

#### Opcodes

```
  0: 0x01A0 [0x53] WAIT_SCHEDULER_TASK: Wait for scheduler "tlk1" with entities [EventEntity, EventEntity]
  1: 0x01AD [0x00] END_REQSTACK()
```

### Event 65535.23

#### Metadata

| Field        | Value    |
|--------------|----------|
| Entrypoint   | 0x01AE   |
| Data Size    | 16 bytes |
| Instructions | 2        |

```
      00 01 02 03 04 05 06 07  08 09 0A 0B 0C 0D 0E 0F
      -- -- -- -- -- -- -- --  -- -- -- -- -- -- -- --
01A0:                                            5B 12                [.
01B0: 80 F8 FF FF 7F F8 FF FF  7F 74 68 6B 30 00        .........thk0.  
```

#### Opcodes

```
  0: 0x01AE [0x5B] LOAD_EXT_SCHEDULER: Load scheduler "thk0" with entities [EventEntity, EventEntity], work=3261*
  1: 0x01BD [0x00] END_REQSTACK()
```

### Event 65535.24

#### Metadata

| Field        | Value    |
|--------------|----------|
| Entrypoint   | 0x01BE   |
| Data Size    | 14 bytes |
| Instructions | 2        |

```
      00 01 02 03 04 05 06 07  08 09 0A 0B 0C 0D 0E 0F
      -- -- -- -- -- -- -- --  -- -- -- -- -- -- -- --
01B0:                                            53 F8                S.
01C0: FF FF 7F F8 FF FF 7F 74  68 6B 30 00              .......thk0.    
```

#### Opcodes

```
  0: 0x01BE [0x53] WAIT_SCHEDULER_TASK: Wait for scheduler "thk0" with entities [EventEntity, EventEntity]
  1: 0x01CB [0x00] END_REQSTACK()
```

### Event 65535.25

#### Metadata

| Field        | Value    |
|--------------|----------|
| Entrypoint   | 0x01CC   |
| Data Size    | 16 bytes |
| Instructions | 2        |

```
      00 01 02 03 04 05 06 07  08 09 0A 0B 0C 0D 0E 0F
      -- -- -- -- -- -- -- --  -- -- -- -- -- -- -- --
01C0:                                      5B 12 80 F8              [...
01D0: FF FF 7F F8 FF FF 7F 74  68 6B 31 00              .......thk1.    
```

#### Opcodes

```
  0: 0x01CC [0x5B] LOAD_EXT_SCHEDULER: Load scheduler "thk1" with entities [EventEntity, EventEntity], work=3261*
  1: 0x01DB [0x00] END_REQSTACK()
```

### Event 65535.26

#### Metadata

| Field        | Value    |
|--------------|----------|
| Entrypoint   | 0x01DC   |
| Data Size    | 14 bytes |
| Instructions | 2        |

```
      00 01 02 03 04 05 06 07  08 09 0A 0B 0C 0D 0E 0F
      -- -- -- -- -- -- -- --  -- -- -- -- -- -- -- --
01D0:                                      53 F8 FF FF              S...
01E0: 7F F8 FF FF 7F 74 68 6B  31 00                    .....thk1.      
```

#### Opcodes

```
  0: 0x01DC [0x53] WAIT_SCHEDULER_TASK: Wait for scheduler "thk1" with entities [EventEntity, EventEntity]
  1: 0x01E9 [0x00] END_REQSTACK()
```

### Event 65535.27

#### Metadata

| Field        | Value    |
|--------------|----------|
| Entrypoint   | 0x01EA   |
| Data Size    | 16 bytes |
| Instructions | 2        |

```
      00 01 02 03 04 05 06 07  08 09 0A 0B 0C 0D 0E 0F
      -- -- -- -- -- -- -- --  -- -- -- -- -- -- -- --
01E0:                                5B 12 80 F8 FF FF            [.....
01F0: 7F F8 FF FF 7F 79 65 73  30 00                    .....yes0.      
```

#### Opcodes

```
  0: 0x01EA [0x5B] LOAD_EXT_SCHEDULER: Load scheduler "yes0" with entities [EventEntity, EventEntity], work=3261*
  1: 0x01F9 [0x00] END_REQSTACK()
```

### Event 65535.28

#### Metadata

| Field        | Value    |
|--------------|----------|
| Entrypoint   | 0x01FA   |
| Data Size    | 14 bytes |
| Instructions | 2        |

```
      00 01 02 03 04 05 06 07  08 09 0A 0B 0C 0D 0E 0F
      -- -- -- -- -- -- -- --  -- -- -- -- -- -- -- --
01F0:                                53 F8 FF FF 7F F8            S.....
0200: FF FF 7F 79 65 73 30 00                           ...yes0.        
```

#### Opcodes

```
  0: 0x01FA [0x53] WAIT_SCHEDULER_TASK: Wait for scheduler "yes0" with entities [EventEntity, EventEntity]
  1: 0x0207 [0x00] END_REQSTACK()
```

### Event 65535.29

#### Metadata

| Field        | Value    |
|--------------|----------|
| Entrypoint   | 0x0208   |
| Data Size    | 16 bytes |
| Instructions | 2        |

```
      00 01 02 03 04 05 06 07  08 09 0A 0B 0C 0D 0E 0F
      -- -- -- -- -- -- -- --  -- -- -- -- -- -- -- --
0200:                          5B 12 80 F8 FF FF 7F F8          [.......
0210: FF FF 7F 6E 6F 6E 30 00                           ...non0.        
```

#### Opcodes

```
  0: 0x0208 [0x5B] LOAD_EXT_SCHEDULER: Load scheduler "non0" with entities [EventEntity, EventEntity], work=3261*
  1: 0x0217 [0x00] END_REQSTACK()
```

### Event 65535.30

#### Metadata

| Field        | Value    |
|--------------|----------|
| Entrypoint   | 0x0218   |
| Data Size    | 14 bytes |
| Instructions | 2        |

```
      00 01 02 03 04 05 06 07  08 09 0A 0B 0C 0D 0E 0F
      -- -- -- -- -- -- -- --  -- -- -- -- -- -- -- --
0210:                          53 F8 FF FF 7F F8 FF FF          S.......
0220: 7F 6E 6F 6E 30 00                                 .non0.          
```

#### Opcodes

```
  0: 0x0218 [0x53] WAIT_SCHEDULER_TASK: Wait for scheduler "non0" with entities [EventEntity, EventEntity]
  1: 0x0225 [0x00] END_REQSTACK()
```

### Event 65535.31

#### Metadata

| Field        | Value    |
|--------------|----------|
| Entrypoint   | 0x0226   |
| Data Size    | 16 bytes |
| Instructions | 2        |

```
      00 01 02 03 04 05 06 07  08 09 0A 0B 0C 0D 0E 0F
      -- -- -- -- -- -- -- --  -- -- -- -- -- -- -- --
0220:                   5B 0E  80 F8 FF FF 7F F8 FF FF        [.........
0230: 7F 6D 6A 6B 30 00                                 .mjk0.          
```

#### Opcodes

```
  0: 0x0226 [0x5B] LOAD_EXT_SCHEDULER: Load scheduler "mjk0" with entities [EventEntity, EventEntity], work=3262*
  1: 0x0235 [0x00] END_REQSTACK()
```

### Event 65535.32

#### Metadata

| Field        | Value    |
|--------------|----------|
| Entrypoint   | 0x0236   |
| Data Size    | 14 bytes |
| Instructions | 2        |

```
      00 01 02 03 04 05 06 07  08 09 0A 0B 0C 0D 0E 0F
      -- -- -- -- -- -- -- --  -- -- -- -- -- -- -- --
0230:                   53 F8  FF FF 7F F8 FF FF 7F 6D        S........m
0240: 6A 6B 30 00                                       jk0.            
```

#### Opcodes

```
  0: 0x0236 [0x53] WAIT_SCHEDULER_TASK: Wait for scheduler "mjk0" with entities [EventEntity, EventEntity]
  1: 0x0243 [0x00] END_REQSTACK()
```

### Event 65535.33

#### Metadata

| Field        | Value    |
|--------------|----------|
| Entrypoint   | 0x0244   |
| Data Size    | 16 bytes |
| Instructions | 2        |

```
      00 01 02 03 04 05 06 07  08 09 0A 0B 0C 0D 0E 0F
      -- -- -- -- -- -- -- --  -- -- -- -- -- -- -- --
0240:             5B 0E 80 F8  FF FF 7F F8 FF FF 7F 6D      [..........m
0250: 6A 6B 31 00                                       jk1.            
```

#### Opcodes

```
  0: 0x0244 [0x5B] LOAD_EXT_SCHEDULER: Load scheduler "mjk1" with entities [EventEntity, EventEntity], work=3262*
  1: 0x0253 [0x00] END_REQSTACK()
```

### Event 65535.34

#### Metadata

| Field        | Value    |
|--------------|----------|
| Entrypoint   | 0x0254   |
| Data Size    | 14 bytes |
| Instructions | 2        |

```
      00 01 02 03 04 05 06 07  08 09 0A 0B 0C 0D 0E 0F
      -- -- -- -- -- -- -- --  -- -- -- -- -- -- -- --
0250:             53 F8 FF FF  7F F8 FF FF 7F 6D 6A 6B      S........mjk
0260: 31 00                                             1.              
```

#### Opcodes

```
  0: 0x0254 [0x53] WAIT_SCHEDULER_TASK: Wait for scheduler "mjk1" with entities [EventEntity, EventEntity]
  1: 0x0261 [0x00] END_REQSTACK()
```

### Event 65535.35

#### Metadata

| Field        | Value    |
|--------------|----------|
| Entrypoint   | 0x0262   |
| Data Size    | 16 bytes |
| Instructions | 2        |

```
      00 01 02 03 04 05 06 07  08 09 0A 0B 0C 0D 0E 0F
      -- -- -- -- -- -- -- --  -- -- -- -- -- -- -- --
0260:       5B 0E 80 F8 FF FF  7F F8 FF FF 7F 79 72 6F    [..........yro
0270: 30 00                                             0.              
```

#### Opcodes

```
  0: 0x0262 [0x5B] LOAD_EXT_SCHEDULER: Load scheduler "yro0" with entities [EventEntity, EventEntity], work=3262*
  1: 0x0271 [0x00] END_REQSTACK()
```

### Event 65535.36

#### Metadata

| Field        | Value    |
|--------------|----------|
| Entrypoint   | 0x0272   |
| Data Size    | 14 bytes |
| Instructions | 2        |

```
      00 01 02 03 04 05 06 07  08 09 0A 0B 0C 0D 0E 0F
      -- -- -- -- -- -- -- --  -- -- -- -- -- -- -- --
0270:       53 F8 FF FF 7F F8  FF FF 7F 79 72 6F 30 00    S........yro0.
```

#### Opcodes

```
  0: 0x0272 [0x53] WAIT_SCHEDULER_TASK: Wait for scheduler "yro0" with entities [EventEntity, EventEntity]
  1: 0x027F [0x00] END_REQSTACK()
```

### Event 65535.37

#### Metadata

| Field        | Value    |
|--------------|----------|
| Entrypoint   | 0x0280   |
| Data Size    | 16 bytes |
| Instructions | 2        |

```
      00 01 02 03 04 05 06 07  08 09 0A 0B 0C 0D 0E 0F
      -- -- -- -- -- -- -- --  -- -- -- -- -- -- -- --
0280: 5B 0E 80 F8 FF FF 7F F8  FF FF 7F 79 72 6F 31 00  [..........yro1.
```

#### Opcodes

```
  0: 0x0280 [0x5B] LOAD_EXT_SCHEDULER: Load scheduler "yro1" with entities [EventEntity, EventEntity], work=3262*
  1: 0x028F [0x00] END_REQSTACK()
```

### Event 65535.38

#### Metadata

| Field        | Value    |
|--------------|----------|
| Entrypoint   | 0x0290   |
| Data Size    | 14 bytes |
| Instructions | 2        |

```
      00 01 02 03 04 05 06 07  08 09 0A 0B 0C 0D 0E 0F
      -- -- -- -- -- -- -- --  -- -- -- -- -- -- -- --
0290: 53 F8 FF FF 7F F8 FF FF  7F 79 72 6F 31 00        S........yro1.  
```

#### Opcodes

```
  0: 0x0290 [0x53] WAIT_SCHEDULER_TASK: Wait for scheduler "yro1" with entities [EventEntity, EventEntity]
  1: 0x029D [0x00] END_REQSTACK()
```

### Event 65535.39

#### Metadata

| Field        | Value    |
|--------------|----------|
| Entrypoint   | 0x029E   |
| Data Size    | 16 bytes |
| Instructions | 2        |

```
      00 01 02 03 04 05 06 07  08 09 0A 0B 0C 0D 0E 0F
      -- -- -- -- -- -- -- --  -- -- -- -- -- -- -- --
0290:                                            5B 0E                [.
02A0: 80 F8 FF FF 7F F8 FF FF  7F 73 68 61 30 00        .........sha0.  
```

#### Opcodes

```
  0: 0x029E [0x5B] LOAD_EXT_SCHEDULER: Load scheduler "sha0" with entities [EventEntity, EventEntity], work=3262*
  1: 0x02AD [0x00] END_REQSTACK()
```

### Event 65535.40

#### Metadata

| Field        | Value    |
|--------------|----------|
| Entrypoint   | 0x02AE   |
| Data Size    | 14 bytes |
| Instructions | 2        |

```
      00 01 02 03 04 05 06 07  08 09 0A 0B 0C 0D 0E 0F
      -- -- -- -- -- -- -- --  -- -- -- -- -- -- -- --
02A0:                                            53 F8                S.
02B0: FF FF 7F F8 FF FF 7F 73  68 61 30 00              .......sha0.    
```

#### Opcodes

```
  0: 0x02AE [0x53] WAIT_SCHEDULER_TASK: Wait for scheduler "sha0" with entities [EventEntity, EventEntity]
  1: 0x02BB [0x00] END_REQSTACK()
```

### Event 65535.41

#### Metadata

| Field        | Value    |
|--------------|----------|
| Entrypoint   | 0x02BC   |
| Data Size    | 16 bytes |
| Instructions | 2        |

```
      00 01 02 03 04 05 06 07  08 09 0A 0B 0C 0D 0E 0F
      -- -- -- -- -- -- -- --  -- -- -- -- -- -- -- --
02B0:                                      5B 0E 80 F8              [...
02C0: FF FF 7F F8 FF FF 7F 73  68 61 31 00              .......sha1.    
```

#### Opcodes

```
  0: 0x02BC [0x5B] LOAD_EXT_SCHEDULER: Load scheduler "sha1" with entities [EventEntity, EventEntity], work=3262*
  1: 0x02CB [0x00] END_REQSTACK()
```

### Event 65535.42

#### Metadata

| Field        | Value    |
|--------------|----------|
| Entrypoint   | 0x02CC   |
| Data Size    | 14 bytes |
| Instructions | 2        |

```
      00 01 02 03 04 05 06 07  08 09 0A 0B 0C 0D 0E 0F
      -- -- -- -- -- -- -- --  -- -- -- -- -- -- -- --
02C0:                                      53 F8 FF FF              S...
02D0: 7F F8 FF FF 7F 73 68 61  31 00                    .....sha1.      
```

#### Opcodes

```
  0: 0x02CC [0x53] WAIT_SCHEDULER_TASK: Wait for scheduler "sha1" with entities [EventEntity, EventEntity]
  1: 0x02D9 [0x00] END_REQSTACK()
```

### Event 5206

#### Metadata

| Field        | Value   |
|--------------|---------|
| Entrypoint   | 0x02DA  |
| Data Size    | 7 bytes |
| Instructions | 2       |

```
      00 01 02 03 04 05 06 07  08 09 0A 0B 0C 0D 0E 0F
      -- -- -- -- -- -- -- --  -- -- -- -- -- -- -- --
02D0:                                92 01 F8 FF FF 7F            ......
02E0: 00                                                .               
```

#### Opcodes

```
  0: 0x02DA [0x92] EventEntity->Render.Flags3 ^= 0x01
  1: 0x02E0 [0x00] END_REQSTACK()
```

### Event 5207

#### Metadata

| Field        | Value   |
|--------------|---------|
| Entrypoint   | 0x02E1  |
| Data Size    | 7 bytes |
| Instructions | 2       |

```
      00 01 02 03 04 05 06 07  08 09 0A 0B 0C 0D 0E 0F
      -- -- -- -- -- -- -- --  -- -- -- -- -- -- -- --
02E0:    92 01 F8 FF FF 7F 00                            .......        
```

#### Opcodes

```
  0: 0x02E1 [0x92] EventEntity->Render.Flags3 ^= 0x01
  1: 0x02E7 [0x00] END_REQSTACK()
```

### Event 65535.43

#### Metadata

| Field        | Value    |
|--------------|----------|
| Entrypoint   | 0x02E8   |
| Data Size    | 17 bytes |
| Instructions | 5        |

```
      00 01 02 03 04 05 06 07  08 09 0A 0B 0C 0D 0E 0F
      -- -- -- -- -- -- -- --  -- -- -- -- -- -- -- --
02E0:                          32 00 80 1F 00 03 80 13          2.......
02F0: 80 03 80 1F 01 39 14 80  00                       .....9...       
```

#### Opcodes

```
  0: 0x02E8 [0x32] ExtData[1]->MainSpeed = 13* * 0.1
  1: 0x02EB [0x1F] MOVE_ENTITY: EventEntity moves to X=0.000*, Z=-8.500*, Y=0.000*
  2: 0x02F3 [0x1F] MOVE_ENTITY: Update entity position (mode=1)
  3: 0x02F5 [0x39] SET_ENTITY_DIRECTION(direction=5.6°*)
  4: 0x02F8 [0x00] END_REQSTACK()
```

### Event 65535.44

#### Metadata

| Field        | Value    |
|--------------|----------|
| Entrypoint   | 0x02F9   |
| Data Size    | 14 bytes |
| Instructions | 4        |

```
      00 01 02 03 04 05 06 07  08 09 0A 0B 0C 0D 0E 0F
      -- -- -- -- -- -- -- --  -- -- -- -- -- -- -- --
02F0:                             32 00 80 1F 00 15 80           2......
0300: 16 80 03 80 1F 01 00                              .......         
```

#### Opcodes

```
  0: 0x02F9 [0x32] ExtData[1]->MainSpeed = 13* * 0.1
  1: 0x02FC [0x1F] MOVE_ENTITY: EventEntity moves to X=-0.390*, Z=-10.550*, Y=0.000*
  2: 0x0304 [0x1F] MOVE_ENTITY: Update entity position (mode=1)
  3: 0x0306 [0x00] END_REQSTACK()
```

### Event 65535.45

#### Metadata

| Field        | Value    |
|--------------|----------|
| Entrypoint   | 0x0307   |
| Data Size    | 14 bytes |
| Instructions | 4        |

```
      00 01 02 03 04 05 06 07  08 09 0A 0B 0C 0D 0E 0F
      -- -- -- -- -- -- -- --  -- -- -- -- -- -- -- --
0300:                      32  00 80 1F 00 17 80 13 80         2........
0310: 03 80 1F 01 00                                    .....           
```

#### Opcodes

```
  0: 0x0307 [0x32] ExtData[1]->MainSpeed = 13* * 0.1
  1: 0x030A [0x1F] MOVE_ENTITY: EventEntity moves to X=-0.700*, Z=-8.500*, Y=0.000*
  2: 0x0312 [0x1F] MOVE_ENTITY: Update entity position (mode=1)
  3: 0x0314 [0x00] END_REQSTACK()
```

### Event 65535.46

#### Metadata

| Field        | Value    |
|--------------|----------|
| Entrypoint   | 0x0315   |
| Data Size    | 19 bytes |
| Instructions | 5        |

```
      00 01 02 03 04 05 06 07  08 09 0A 0B 0C 0D 0E 0F
      -- -- -- -- -- -- -- --  -- -- -- -- -- -- -- --
0310:                32 00 80  1F 00 18 80 19 80 1A 80       2..........
0320: 1F 01 1E DA 00 10 01 00                           ........        
```

#### Opcodes

```
  0: 0x0315 [0x32] ExtData[1]->MainSpeed = 13* * 0.1
  1: 0x0318 [0x1F] MOVE_ENTITY: EventEntity moves to X=-55.730*, Z=-8.950*, Y=-0.500*
  2: 0x0320 [0x1F] MOVE_ENTITY: Update entity position (mode=1)
  3: 0x0322 [0x1E] EventEntity looks at Tuffle-Buffle (ID: 17826010/0x011000DA) and starts talking
  4: 0x0327 [0x00] END_REQSTACK()
```

### Event 65535.47

#### Metadata

| Field        | Value    |
|--------------|----------|
| Entrypoint   | 0x0328   |
| Data Size    | 14 bytes |
| Instructions | 4        |

```
      00 01 02 03 04 05 06 07  08 09 0A 0B 0C 0D 0E 0F
      -- -- -- -- -- -- -- --  -- -- -- -- -- -- -- --
0320:                          32 00 80 1F 00 1B 80 1C          2.......
0330: 80 1A 80 1F 01 00                                 ......          
```

#### Opcodes

```
  0: 0x0328 [0x32] ExtData[1]->MainSpeed = 13* * 0.1
  1: 0x032B [0x1F] MOVE_ENTITY: EventEntity moves to X=-56.830*, Z=-7.030*, Y=-0.500*
  2: 0x0333 [0x1F] MOVE_ENTITY: Update entity position (mode=1)
  3: 0x0335 [0x00] END_REQSTACK()
```
