# 17825952

## Common Data

| Field            | Value                     |
|------------------|---------------------------|
| Zone             | Western Adoulin (ID: 256) |
| Block Size       | 112 bytes                 |
| Total Events     | 3                         |
| References Count | 8                         |

## List of Events

| Event ID                 | Entrypoint   |   Size |   Instructions |
|--------------------------|--------------|--------|----------------|
| [65535](#event-65535)    | 0x0000       |      1 |              1 |
| [130](#event-130)        | 0x0001       |     20 |              1 |
| [65535.1](#event-655351) | 0x0015       |     30 |              7 |

## DAT References (imed_data)

|   Index | Hex Value   |   Dec Value |
|---------|-------------|-------------|
|       0 | 0x0003      |           3 |
|       1 | 0x0002      |           2 |
|       2 | 0x0000      |           0 |
|       3 | 0x008F      |         143 |
|       4 | 0x000D      |          13 |
|       5 | 0x520A      |       21002 |
|       6 | 0x24089     |      147593 |
|       7 | 0xFFFEA5FE  |  4294878718 |

## Events

### Event 65535

#### Metadata

| Field        | Value   |
|--------------|---------|
| Entrypoint   | 0x0000  |
| Data Size    | 1 bytes |
| Instructions | 1       |

```
      00 01 02 03 04 05 06 07  08 09 0A 0B 0C 0D 0E 0F
      -- -- -- -- -- -- -- --  -- -- -- -- -- -- -- --
0000: 00                                                .               
```

#### Opcodes

```
  0: 0x0000 [0x00] END_REQSTACK()
```

### Event 130

#### Metadata

| Field        | Value    |
|--------------|----------|
| Entrypoint   | 0x0001   |
| Data Size    | 20 bytes |
| Instructions | 1        |

```
      00 01 02 03 04 05 06 07  08 09 0A 0B 0C 0D 0E 0F
      -- -- -- -- -- -- -- --  -- -- -- -- -- -- -- --
0000:    B6 0B 00 80 01 80 02  80 03 80 03 80 03 80 03   ...............
0010: 80 02 80 02 80                                    .....           
```

#### Opcodes

```
  0: 0x0001 [0xB6] ENTITY_APPEARANCE_HANDLER(case=Full entity look, race=3*, hair=2*, head=0*, body=143*, hands=143*, legs=143*, feet=143*, main=0*, sub=0*)
```

### Event 65535.1

#### Metadata

| Field        | Value    |
|--------------|----------|
| Entrypoint   | 0x0015   |
| Data Size    | 30 bytes |
| Instructions | 7        |

```
      00 01 02 03 04 05 06 07  08 09 0A 0B 0C 0D 0E 0F
      -- -- -- -- -- -- -- --  -- -- -- -- -- -- -- --
0010:                61 00 7B  A0 00 10 01 32 04 80 1F       a.{....2...
0020: 00 05 80 06 80 07 80 1F  01 4A A0 00 10 01 A2 00  .........J......
0030: 10 01 00                                          ...             
```

#### Opcodes

```
  0: 0x0015 [0x61] EventEntity->Render.Flags2 &= ~0x00000001
  1: 0x0017 [0x7B] Unnamed NPC (ID: 17825952/0x011000A0) stops talking
  2: 0x001C [0x32] ExtData[1]->MainSpeed = 13* * 0.1
  3: 0x001F [0x1F] MOVE_ENTITY: EventEntity moves to X=21.002*, Z=147.593*, Y=-88.578*
  4: 0x0027 [0x1F] MOVE_ENTITY: Update entity position (mode=1)
  5: 0x0029 [0x4A] Unnamed NPC (ID: 17825952/0x011000A0) looks at Unnamed NPC (ID: 17825954/0x011000A2)
  6: 0x0032 [0x00] END_REQSTACK()
```
