# 17826000

## Common Data

| Field            | Value                     |
|------------------|---------------------------|
| Zone             | Western Adoulin (ID: 256) |
| Block Size       | 344 bytes                 |
| Total Events     | 10                        |
| References Count | 20                        |

## List of Events

| Event ID                 | Entrypoint   |   Size |   Instructions |
|--------------------------|--------------|--------|----------------|
| [65535](#event-65535)    | 0x0000       |      1 |              1 |
| [5056](#event-5056)      | 0x0001       |      5 |              2 |
| [65535.1](#event-655351) | 0x0006       |     22 |              6 |
| [65535.2](#event-655352) | 0x001C       |     14 |              4 |
| [5039](#event-5039)      | 0x002A       |      5 |              2 |
| [65535.3](#event-655353) | 0x002F       |    107 |             12 |
| [65535.4](#event-655354) | 0x009A       |      6 |              2 |
| [65535.5](#event-655355) | 0x00A0       |     34 |              8 |
| [5037](#event-5037)      | 0x00C2       |      7 |              3 |
| [65535.6](#event-655356) | 0x00C9       |      5 |              2 |

## DAT References (imed_data)

|   Index | Hex Value   |   Dec Value |
|---------|-------------|-------------|
|       0 | 0x0050      |          80 |
|       1 | 0xFFFF91AE  |  4294939054 |
|       2 | 0xFFFE9E40  |  4294876736 |
|       3 | 0xFFFF15A0  |  4294907296 |
|       4 | 0x001E      |          30 |
|       5 | 0x000D      |          13 |
|       6 | 0xFFFFE472  |  4294960242 |
|       7 | 0xFFFEA008  |  4294877192 |
|       8 | 0x0000      |           0 |
|       9 | 0x0CAC      |        3244 |
|      10 | 0x000F      |          15 |
|      11 | 0x0001      |           1 |
|      12 | 0x334D      |       13133 |
|      13 | 0xFFFE8B61  |  4294871905 |
|      14 | 0x3F5F      |       16223 |
|      15 | 0xFFFE7949  |  4294867273 |
|      16 | 0x3F82      |       16258 |
|      17 | 0xFFFE5713  |  4294858515 |
|      18 | 0x0AE8      |        2792 |
|      19 | 0x013D      |         317 |

## Events

### Event 65535

#### Metadata

| Field        | Value   |
|--------------|---------|
| Entrypoint   | 0x0000  |
| Data Size    | 1 bytes |
| Instructions | 1       |

```
      00 01 02 03 04 05 06 07  08 09 0A 0B 0C 0D 0E 0F
      -- -- -- -- -- -- -- --  -- -- -- -- -- -- -- --
0000: 00                                                .               
```

#### Opcodes

```
  0: 0x0000 [0x00] END_REQSTACK()
```

### Event 5056

#### Metadata

| Field        | Value   |
|--------------|---------|
| Entrypoint   | 0x0001  |
| Data Size    | 5 bytes |
| Instructions | 2       |

```
      00 01 02 03 04 05 06 07  08 09 0A 0B 0C 0D 0E 0F
      -- -- -- -- -- -- -- --  -- -- -- -- -- -- -- --
0000:    B6 0F 00 80 00                                  .....          
```

#### Opcodes

```
  0: 0x0001 [0xB6] ENTITY_APPEARANCE_HANDLER(case=Model size, value=80*)
  1: 0x0005 [0x00] END_REQSTACK()
```

### Event 65535.1

#### Metadata

| Field        | Value    |
|--------------|----------|
| Entrypoint   | 0x0006   |
| Data Size    | 22 bytes |
| Instructions | 6        |

```
      00 01 02 03 04 05 06 07  08 09 0A 0B 0C 0D 0E 0F
      -- -- -- -- -- -- -- --  -- -- -- -- -- -- -- --
0000:                   32 00  80 1F 00 01 80 02 80 03        2.........
0010: 80 1F 01 1E CA 00 10 01  1C 04 80 00              ............    
```

#### Opcodes

```
  0: 0x0006 [0x32] ExtData[1]->MainSpeed = 80* * 0.1
  1: 0x0009 [0x1F] MOVE_ENTITY: EventEntity moves to X=-28.242*, Z=-90.560*, Y=-60.000*
  2: 0x0011 [0x1F] MOVE_ENTITY: Update entity position (mode=1)
  3: 0x0013 [0x1E] EventEntity looks at Wesley (ID: 17825994/0x011000CA) and starts talking
  4: 0x0018 [0x1C] WAIT(30* ticks)
  5: 0x001B [0x00] END_REQSTACK()
```

### Event 65535.2

#### Metadata

| Field        | Value    |
|--------------|----------|
| Entrypoint   | 0x001C   |
| Data Size    | 14 bytes |
| Instructions | 4        |

```
      00 01 02 03 04 05 06 07  08 09 0A 0B 0C 0D 0E 0F
      -- -- -- -- -- -- -- --  -- -- -- -- -- -- -- --
0010:                                      32 05 80 1F              2...
0020: 00 06 80 07 80 08 80 1F  01 00                    ..........      
```

#### Opcodes

```
  0: 0x001C [0x32] ExtData[1]->MainSpeed = 13* * 0.1
  1: 0x001F [0x1F] MOVE_ENTITY: EventEntity moves to X=-7.054*, Z=-90.104*, Y=0.000*
  2: 0x0027 [0x1F] MOVE_ENTITY: Update entity position (mode=1)
  3: 0x0029 [0x00] END_REQSTACK()
```

### Event 5039

#### Metadata

| Field        | Value   |
|--------------|---------|
| Entrypoint   | 0x002A  |
| Data Size    | 5 bytes |
| Instructions | 2       |

```
      00 01 02 03 04 05 06 07  08 09 0A 0B 0C 0D 0E 0F
      -- -- -- -- -- -- -- --  -- -- -- -- -- -- -- --
0020:                                B6 0F 00 80 00               ..... 
```

#### Opcodes

```
  0: 0x002A [0xB6] ENTITY_APPEARANCE_HANDLER(case=Model size, value=80*)
  1: 0x002E [0x00] END_REQSTACK()
```

### Event 65535.3

#### Metadata

| Field        | Value     |
|--------------|-----------|
| Entrypoint   | 0x002F    |
| Data Size    | 107 bytes |
| Instructions | 12        |

```
      00 01 02 03 04 05 06 07  08 09 0A 0B 0C 0D 0E 0F
      -- -- -- -- -- -- -- --  -- -- -- -- -- -- -- --
0020:                                               03                 .
0030: 00 00 08 80 02 00 00 08  80 00 99 00 5B 09 80 D0  ............[...
0040: 00 10 01 D0 00 10 01 65  61 74 30 1C 0A 80 5B 09  .......eat0...[.
0050: 80 D1 00 10 01 D1 00 10  01 65 61 74 30 1C 0A 80  .........eat0...
0060: 5B 09 80 CE 00 10 01 CE  00 10 01 65 61 74 30 53  [..........eat0S
0070: D0 00 10 01 D0 00 10 01  65 61 74 30 53 D1 00 10  ........eat0S...
0080: 01 D1 00 10 01 65 61 74  30 53 CE 00 10 01 CE 00  .....eat0S......
0090: 10 01 65 61 74 30 01 34  00 00                    ..eat0.4..      
```

#### Opcodes

```
  0: 0x002F [0x03] ExtData[1]->WorkLocal[0] = 0*
  1: 0x0034 [0x02] IF !(ExtData[1]->WorkLocal[0] == 0*) GOTO 0x0099
  2: 0x003C [0x5B] LOAD_EXT_SCHEDULER: Load scheduler "eat0" with entities [Unnamed NPC (ID: 17826000/0x011000D0), Unnamed NPC (ID: 17826000/0x011000D0)], work=3244*
  3: 0x004B [0x1C] WAIT(15* ticks)
  4: 0x004E [0x5B] LOAD_EXT_SCHEDULER: Load scheduler "eat0" with entities [Unnamed NPC (ID: 17826001/0x011000D1), Unnamed NPC (ID: 17826001/0x011000D1)], work=3244*
  5: 0x005D [0x1C] WAIT(15* ticks)
  6: 0x0060 [0x5B] LOAD_EXT_SCHEDULER: Load scheduler "eat0" with entities [Distrova (ID: 17825998/0x011000CE), Distrova (ID: 17825998/0x011000CE)], work=3244*
  7: 0x006F [0x53] WAIT_SCHEDULER_TASK: Wait for scheduler "eat0" with entities [Unnamed NPC (ID: 17826000/0x011000D0), Unnamed NPC (ID: 17826000/0x011000D0)]
  8: 0x007C [0x53] WAIT_SCHEDULER_TASK: Wait for scheduler "eat0" with entities [Unnamed NPC (ID: 17826001/0x011000D1), Unnamed NPC (ID: 17826001/0x011000D1)]
  9: 0x0089 [0x53] WAIT_SCHEDULER_TASK: Wait for scheduler "eat0" with entities [Distrova (ID: 17825998/0x011000CE), Distrova (ID: 17825998/0x011000CE)]
 10: 0x0096 [0x01] GOTO 0x0034
 11: 0x0099 [0x00] END_REQSTACK()
```

### Event 65535.4

#### Metadata

| Field        | Value   |
|--------------|---------|
| Entrypoint   | 0x009A  |
| Data Size    | 6 bytes |
| Instructions | 2       |

```
      00 01 02 03 04 05 06 07  08 09 0A 0B 0C 0D 0E 0F
      -- -- -- -- -- -- -- --  -- -- -- -- -- -- -- --
0090:                                03 00 00 0B 80 00            ......
```

#### Opcodes

```
  0: 0x009A [0x03] ExtData[1]->WorkLocal[0] = 1*
  1: 0x009F [0x00] END_REQSTACK()
```

### Event 65535.5

#### Metadata

| Field        | Value    |
|--------------|----------|
| Entrypoint   | 0x00A0   |
| Data Size    | 34 bytes |
| Instructions | 8        |

```
      00 01 02 03 04 05 06 07  08 09 0A 0B 0C 0D 0E 0F
      -- -- -- -- -- -- -- --  -- -- -- -- -- -- -- --
00A0: 32 05 80 1F 00 0C 80 0D  80 08 80 1F 01 1F 00 0E  2...............
00B0: 80 0F 80 08 80 1F 01 1F  00 10 80 11 80 08 80 1F  ................
00C0: 01 00                                             ..              
```

#### Opcodes

```
  0: 0x00A0 [0x32] ExtData[1]->MainSpeed = 13* * 0.1
  1: 0x00A3 [0x1F] MOVE_ENTITY: EventEntity moves to X=13.133*, Z=-95.391*, Y=0.000*
  2: 0x00AB [0x1F] MOVE_ENTITY: Update entity position (mode=1)
  3: 0x00AD [0x1F] MOVE_ENTITY: EventEntity moves to X=16.223*, Z=-100.023*, Y=0.000*
  4: 0x00B5 [0x1F] MOVE_ENTITY: Update entity position (mode=1)
  5: 0x00B7 [0x1F] MOVE_ENTITY: EventEntity moves to X=16.258*, Z=-108.781*, Y=0.000*
  6: 0x00BF [0x1F] MOVE_ENTITY: Update entity position (mode=1)
  7: 0x00C1 [0x00] END_REQSTACK()
```

### Event 5037

#### Metadata

| Field        | Value   |
|--------------|---------|
| Entrypoint   | 0x00C2  |
| Data Size    | 7 bytes |
| Instructions | 3       |

```
      00 01 02 03 04 05 06 07  08 09 0A 0B 0C 0D 0E 0F
      -- -- -- -- -- -- -- --  -- -- -- -- -- -- -- --
00C0:       A4 01 B6 00 12 80  00                         .......       
```

#### Opcodes

```
  0: 0x00C2 [0xA4] EventEntity->Flags3.unknown_3_2 = 1
  1: 0x00C4 [0xB6] ENTITY_APPEARANCE_HANDLER(case=Hair style, value=2792*)
  2: 0x00C8 [0x00] END_REQSTACK()
```

### Event 65535.6

#### Metadata

| Field        | Value   |
|--------------|---------|
| Entrypoint   | 0x00C9  |
| Data Size    | 5 bytes |
| Instructions | 2       |

```
      00 01 02 03 04 05 06 07  08 09 0A 0B 0C 0D 0E 0F
      -- -- -- -- -- -- -- --  -- -- -- -- -- -- -- --
00C0:                             B6 00 13 80 00                 .....  
```

#### Opcodes

```
  0: 0x00C9 [0xB6] ENTITY_APPEARANCE_HANDLER(case=Hair style, value=317*)
  1: 0x00CD [0x00] END_REQSTACK()
```
