# 17826097 - Kipligg

## Common Data

| Field            | Value                     |
|------------------|---------------------------|
| Zone             | Western Adoulin (ID: 256) |
| Block Size       | 280 bytes                 |
| Total Events     | 7                         |
| References Count | 10                        |

## List of Events

| Event ID              | Entrypoint   |   Size |   Instructions |
|-----------------------|--------------|--------|----------------|
| [65535](#event-65535) | 0x0000       |      1 |              1 |
| [571](#event-571)     | 0x0001       |     32 |             10 |
| [589](#event-589)     | 0x0021       |     66 |             14 |
| [155](#event-155)     | 0x0063       |      1 |              1 |
| [157](#event-157)     | 0x0064       |      1 |              1 |
| [162](#event-162)     | 0x0065       |     47 |             11 |
| [163](#event-163)     | 0x0094       |     47 |             11 |

## DAT References (imed_data)

|   Index | Hex Value   |   Dec Value |
|---------|-------------|-------------|
|       0 | 0x003C      |          60 |
|       1 | 0x265A      |        9818 |
|       2 | 0x265B      |        9819 |
|       3 | 0x265C      |        9820 |
|       4 | 0x265D      |        9821 |
|       5 | 0x265E      |        9822 |
|       6 | 0x2350      |        9040 |
|       7 | 0x2351      |        9041 |
|       8 | 0x2396      |        9110 |
|       9 | 0x2397      |        9111 |

## String References

- **9040**: Sorry to drag you into this, <Player>, but could you possibly head to the waterfront and check on how things are going?
- **9041**: I'm sure it's all topsy-turvy over there, but maybe you can find which end is up.
- **9110**: Thanks for helping me make up my mind, <Player>! Oh, and for helping down at the waterfront, too.
- **9111**: Will you give my thanks to Levil as well? You can find him in the Pioneers' Coalition, now that Maester Lhangavo revoked his day off.
- **9818**: What!? You haven't registered as a pioneer yet!?
- **9819**: Don't give me that "I'm undecided" crap! Go talk to Brenton in the Pioneers' Coalition before I carry you over there myself!
- **9820**: You take any offers from the Couriers' Coalition yet? It's never too late to start.
- **9821**: If you already have, then you might as well take a waypoint! No sense in throwing your back out, right?
- **9822**: Although...you can't warp to any frontier stations unless you've been to them before, so maybe it doesn't matter for you yet.

## Events

### Event 65535

#### Metadata

| Field        | Value   |
|--------------|---------|
| Entrypoint   | 0x0000  |
| Data Size    | 1 bytes |
| Instructions | 1       |

```
      00 01 02 03 04 05 06 07  08 09 0A 0B 0C 0D 0E 0F
      -- -- -- -- -- -- -- --  -- -- -- -- -- -- -- --
0000: 00                                                .               
```

#### Opcodes

```
  0: 0x0000 [0x00] END_REQSTACK()
```

### Event 571

#### Metadata

| Field        | Value    |
|--------------|----------|
| Entrypoint   | 0x0001   |
| Data Size    | 32 bytes |
| Instructions | 10       |

```
      00 01 02 03 04 05 06 07  08 09 0A 0B 0C 0D 0E 0F
      -- -- -- -- -- -- -- --  -- -- -- -- -- -- -- --
0000:    1E F0 FF FF 7F 6F 70  66 00 80 F8 FF FF 7F F8   .....opf.......
0010: FF FF 7F 64 69 73 30 1D  01 80 23 1D 02 80 23 21  ...dis0...#...#!
0020: 00                                                .               
```

#### Opcodes

```
  0: 0x0001 [0x1E] EventEntity looks at LocalPlayer and starts talking
  1: 0x0006 [0x6F] WAIT_FRAME_DELAY: Yield until WaitTime reaches zero
  2: 0x0007 [0x70] WAIT_ENTITY_RENDER_FLAG: Wait while EventEntity->Render.Flags3 bit 2 is set (cancel turn if not)
  3: 0x0008 [0x66] LOAD_EXT_SCHEDULER_MAIN: Load scheduler "dis0" with entities [EventEntity, EventEntity], work=60*
  4: 0x0017 [0x1D] PRINT_EVENT_MESSAGE(message_id=9818*)
    → "What!? You haven't registered as a pioneer yet!?"
  5: 0x001A [0x23] WAIT_FOR_DIALOG_INTERACTION
  6: 0x001B [0x1D] PRINT_EVENT_MESSAGE(message_id=9819*)
    → "Don't give me that "I'm undecided" crap! Go talk to Brenton in the Pioneers' Coalition before I carry you over there myself!"
  7: 0x001E [0x23] WAIT_FOR_DIALOG_INTERACTION
  8: 0x001F [0x21] END_EVENT
  9: 0x0020 [0x00] END_REQSTACK()
```

### Event 589

#### Metadata

| Field        | Value    |
|--------------|----------|
| Entrypoint   | 0x0021   |
| Data Size    | 66 bytes |
| Instructions | 14       |

```
      00 01 02 03 04 05 06 07  08 09 0A 0B 0C 0D 0E 0F
      -- -- -- -- -- -- -- --  -- -- -- -- -- -- -- --
0020:    1E F0 FF FF 7F 6F 70  66 00 80 F8 FF FF 7F F8   .....opf.......
0030: FF FF 7F 74 6C 6B 30 1D  03 80 23 66 00 80 F8 FF  ...tlk0...#f....
0040: FF 7F F8 FF FF 7F 74 6C  6B 31 1D 04 80 23 66 00  ......tlk1...#f.
0050: 80 F8 FF FF 7F F8 FF FF  7F 64 69 73 30 1D 05 80  .........dis0...
0060: 23 21 00                                          #!.             
```

#### Opcodes

```
  0: 0x0021 [0x1E] EventEntity looks at LocalPlayer and starts talking
  1: 0x0026 [0x6F] WAIT_FRAME_DELAY: Yield until WaitTime reaches zero
  2: 0x0027 [0x70] WAIT_ENTITY_RENDER_FLAG: Wait while EventEntity->Render.Flags3 bit 2 is set (cancel turn if not)
  3: 0x0028 [0x66] LOAD_EXT_SCHEDULER_MAIN: Load scheduler "tlk0" with entities [EventEntity, EventEntity], work=60*
  4: 0x0037 [0x1D] PRINT_EVENT_MESSAGE(message_id=9820*)
    → "You take any offers from the Couriers' Coalition yet? It's never too late to start."
  5: 0x003A [0x23] WAIT_FOR_DIALOG_INTERACTION
  6: 0x003B [0x66] LOAD_EXT_SCHEDULER_MAIN: Load scheduler "tlk1" with entities [EventEntity, EventEntity], work=60*
  7: 0x004A [0x1D] PRINT_EVENT_MESSAGE(message_id=9821*)
    → "If you already have, then you might as well take a waypoint! No sense in throwing your back out, right?"
  8: 0x004D [0x23] WAIT_FOR_DIALOG_INTERACTION
  9: 0x004E [0x66] LOAD_EXT_SCHEDULER_MAIN: Load scheduler "dis0" with entities [EventEntity, EventEntity], work=60*
 10: 0x005D [0x1D] PRINT_EVENT_MESSAGE(message_id=9822*)
    → "Although...you can't warp to any frontier stations unless you've been to them before, so maybe it doesn't matter for you yet."
 11: 0x0060 [0x23] WAIT_FOR_DIALOG_INTERACTION
 12: 0x0061 [0x21] END_EVENT
 13: 0x0062 [0x00] END_REQSTACK()
```

### Event 155

#### Metadata

| Field        | Value   |
|--------------|---------|
| Entrypoint   | 0x0063  |
| Data Size    | 1 bytes |
| Instructions | 1       |

```
      00 01 02 03 04 05 06 07  08 09 0A 0B 0C 0D 0E 0F
      -- -- -- -- -- -- -- --  -- -- -- -- -- -- -- --
0060:          00                                          .            
```

#### Opcodes

```
  0: 0x0063 [0x00] END_REQSTACK()
```

### Event 157

#### Metadata

| Field        | Value   |
|--------------|---------|
| Entrypoint   | 0x0064  |
| Data Size    | 1 bytes |
| Instructions | 1       |

```
      00 01 02 03 04 05 06 07  08 09 0A 0B 0C 0D 0E 0F
      -- -- -- -- -- -- -- --  -- -- -- -- -- -- -- --
0060:             00                                        .           
```

#### Opcodes

```
  0: 0x0064 [0x00] END_REQSTACK()
```

### Event 162

#### Metadata

| Field        | Value    |
|--------------|----------|
| Entrypoint   | 0x0065   |
| Data Size    | 47 bytes |
| Instructions | 11       |

```
      00 01 02 03 04 05 06 07  08 09 0A 0B 0C 0D 0E 0F
      -- -- -- -- -- -- -- --  -- -- -- -- -- -- -- --
0060:                1E F0 FF  FF 7F 6F 70 66 00 80 F8       .....opf...
0070: FF FF 7F F8 FF FF 7F 74  6C 6B 30 1D 06 80 23 1D  .......tlk0...#.
0080: 07 80 23 66 00 80 F8 FF  FF 7F F8 FF FF 7F 74 6C  ..#f..........tl
0090: 6B 31 21 00                                       k1!.            
```

#### Opcodes

```
  0: 0x0065 [0x1E] EventEntity looks at LocalPlayer and starts talking
  1: 0x006A [0x6F] WAIT_FRAME_DELAY: Yield until WaitTime reaches zero
  2: 0x006B [0x70] WAIT_ENTITY_RENDER_FLAG: Wait while EventEntity->Render.Flags3 bit 2 is set (cancel turn if not)
  3: 0x006C [0x66] LOAD_EXT_SCHEDULER_MAIN: Load scheduler "tlk0" with entities [EventEntity, EventEntity], work=60*
  4: 0x007B [0x1D] PRINT_EVENT_MESSAGE(message_id=9040*)
    → "Sorry to drag you into this, <Player>, but could you possibly head to the waterfront and check on how things are going?"
  5: 0x007E [0x23] WAIT_FOR_DIALOG_INTERACTION
  6: 0x007F [0x1D] PRINT_EVENT_MESSAGE(message_id=9041*)
    → "I'm sure it's all topsy-turvy over there, but maybe you can find which end is up."
  7: 0x0082 [0x23] WAIT_FOR_DIALOG_INTERACTION
  8: 0x0083 [0x66] LOAD_EXT_SCHEDULER_MAIN: Load scheduler "tlk1" with entities [EventEntity, EventEntity], work=60*
  9: 0x0092 [0x21] END_EVENT
 10: 0x0093 [0x00] END_REQSTACK()
```

### Event 163

#### Metadata

| Field        | Value    |
|--------------|----------|
| Entrypoint   | 0x0094   |
| Data Size    | 47 bytes |
| Instructions | 11       |

```
      00 01 02 03 04 05 06 07  08 09 0A 0B 0C 0D 0E 0F
      -- -- -- -- -- -- -- --  -- -- -- -- -- -- -- --
0090:             1E F0 FF FF  7F 6F 70 66 00 80 F8 FF      .....opf....
00A0: FF 7F F8 FF FF 7F 74 6C  6B 30 1D 08 80 23 1D 09  ......tlk0...#..
00B0: 80 23 66 00 80 F8 FF FF  7F F8 FF FF 7F 74 6C 6B  .#f..........tlk
00C0: 31 21 00                                          1!.             
```

#### Opcodes

```
  0: 0x0094 [0x1E] EventEntity looks at LocalPlayer and starts talking
  1: 0x0099 [0x6F] WAIT_FRAME_DELAY: Yield until WaitTime reaches zero
  2: 0x009A [0x70] WAIT_ENTITY_RENDER_FLAG: Wait while EventEntity->Render.Flags3 bit 2 is set (cancel turn if not)
  3: 0x009B [0x66] LOAD_EXT_SCHEDULER_MAIN: Load scheduler "tlk0" with entities [EventEntity, EventEntity], work=60*
  4: 0x00AA [0x1D] PRINT_EVENT_MESSAGE(message_id=9110*)
    → "Thanks for helping me make up my mind, <Player>! Oh, and for helping down at the waterfront, too."
  5: 0x00AD [0x23] WAIT_FOR_DIALOG_INTERACTION
  6: 0x00AE [0x1D] PRINT_EVENT_MESSAGE(message_id=9111*)
    → "Will you give my thanks to Levil as well? You can find him in the Pioneers' Coalition, now that Maester Lhangavo revoked his day off."
  7: 0x00B1 [0x23] WAIT_FOR_DIALOG_INTERACTION
  8: 0x00B2 [0x66] LOAD_EXT_SCHEDULER_MAIN: Load scheduler "tlk1" with entities [EventEntity, EventEntity], work=60*
  9: 0x00C1 [0x21] END_EVENT
 10: 0x00C2 [0x00] END_REQSTACK()
```
