# 17825989 - Logan

## Common Data

| Field            | Value                     |
|------------------|---------------------------|
| Zone             | Western Adoulin (ID: 256) |
| Block Size       | 536 bytes                 |
| Total Events     | 15                        |
| References Count | 41                        |

## List of Events

| Event ID                 | Entrypoint   |   Size |   Instructions |
|--------------------------|--------------|--------|----------------|
| [65535](#event-65535)    | 0x0000       |      1 |              1 |
| [5074](#event-5074)      | 0x0001       |      7 |              2 |
| [5075](#event-5075)      | 0x0008       |      7 |              2 |
| [181](#event-181)        | 0x000F       |     21 |              2 |
| [65535.1](#event-655351) | 0x0024       |     34 |              8 |
| [65535.2](#event-655352) | 0x0046       |     21 |              2 |
| [185](#event-185)        | 0x005B       |     54 |              6 |
| [65535.3](#event-655353) | 0x0091       |      2 |              2 |
| [65535.4](#event-655354) | 0x0093       |     14 |              4 |
| [65535.5](#event-655355) | 0x00A1       |     25 |              3 |
| [187](#event-187)        | 0x00BA       |      1 |              1 |
| [65535.6](#event-655356) | 0x00BB       |     51 |              5 |
| [65535.7](#event-655357) | 0x00EE       |     24 |              6 |
| [65535.8](#event-655358) | 0x0106       |     24 |              6 |
| [5223](#event-5223)      | 0x011E       |      7 |              2 |

## DAT References (imed_data)

|   Index | Hex Value   |   Dec Value |
|---------|-------------|-------------|
|       0 | 0x0001      |           1 |
|       1 | 0x0008      |           8 |
|       2 | 0x0014      |          20 |
|       3 | 0x008F      |         143 |
|       4 | 0x0017      |          23 |
|       5 | 0x0000      |           0 |
|       6 | 0x000D      |          13 |
|       7 | 0xFFFD9568  |  4294808936 |
|       8 | 0xFFFF9D85  |  4294942085 |
|       9 | 0x0A8B      |        2699 |
|      10 | 0xFFFD84F5  |  4294804725 |
|      11 | 0xFFFF9DA0  |  4294942112 |
|      12 | 0xFFFD73AC  |  4294800300 |
|      13 | 0xFFFF9D99  |  4294942105 |
|      14 | 0x0DEC      |        3564 |
|      15 | 0x0003      |           3 |
|      16 | 0x0069      |         105 |
|      17 | 0x0066      |         102 |
|      18 | 0x0015      |          21 |
|      19 | 0x0006      |           6 |
|      20 | 0x0005      |           5 |
|      21 | 0x0073      |         115 |
|      22 | 0x0067      |         103 |
|      23 | 0x00AB      |         171 |
|      24 | 0xFFFFFDB1  |  4294966705 |
|      25 | 0xFFFFBEFC  |  4294950652 |
|      26 | 0x0004      |           4 |
|      27 | 0x0081      |         129 |
|      28 | 0x006E      |         110 |
|      29 | 0x000F      |          15 |
|      30 | 0x0094      |         148 |
|      31 | 0x000E      |          14 |
|      32 | 0x0062      |          98 |
|      33 | 0x0028      |          40 |
|      34 | 0xFFFF1F27  |  4294909735 |
|      35 | 0xFFFFEC17  |  4294962199 |
|      36 | 0xFFFFFE0C  |  4294966796 |
|      37 | 0xFFFF1D33  |  4294909235 |
|      38 | 0xFFFFE225  |  4294959653 |
|      39 | 0xFFFF172D  |  4294907693 |
|      40 | 0x04A5      |        1189 |

## Events

### Event 65535

#### Metadata

| Field        | Value   |
|--------------|---------|
| Entrypoint   | 0x0000  |
| Data Size    | 1 bytes |
| Instructions | 1       |

```
      00 01 02 03 04 05 06 07  08 09 0A 0B 0C 0D 0E 0F
      -- -- -- -- -- -- -- --  -- -- -- -- -- -- -- --
0000: 00                                                .               
```

#### Opcodes

```
  0: 0x0000 [0x00] END_REQSTACK()
```

### Event 5074

#### Metadata

| Field        | Value   |
|--------------|---------|
| Entrypoint   | 0x0001  |
| Data Size    | 7 bytes |
| Instructions | 2       |

```
      00 01 02 03 04 05 06 07  08 09 0A 0B 0C 0D 0E 0F
      -- -- -- -- -- -- -- --  -- -- -- -- -- -- -- --
0000:    92 01 F8 FF FF 7F 00                            .......        
```

#### Opcodes

```
  0: 0x0001 [0x92] EventEntity->Render.Flags3 ^= 0x01
  1: 0x0007 [0x00] END_REQSTACK()
```

### Event 5075

#### Metadata

| Field        | Value   |
|--------------|---------|
| Entrypoint   | 0x0008  |
| Data Size    | 7 bytes |
| Instructions | 2       |

```
      00 01 02 03 04 05 06 07  08 09 0A 0B 0C 0D 0E 0F
      -- -- -- -- -- -- -- --  -- -- -- -- -- -- -- --
0000:                          92 01 F8 FF FF 7F 00             ....... 
```

#### Opcodes

```
  0: 0x0008 [0x92] EventEntity->Render.Flags3 ^= 0x01
  1: 0x000E [0x00] END_REQSTACK()
```

### Event 181

#### Metadata

| Field        | Value    |
|--------------|----------|
| Entrypoint   | 0x000F   |
| Data Size    | 21 bytes |
| Instructions | 2        |

```
      00 01 02 03 04 05 06 07  08 09 0A 0B 0C 0D 0E 0F
      -- -- -- -- -- -- -- --  -- -- -- -- -- -- -- --
0000:                                               B6                 .
0010: 0B 00 80 01 80 02 80 03  80 04 80 03 80 03 80 05  ................
0020: 80 05 80 00                                       ....            
```

#### Opcodes

```
  0: 0x000F [0xB6] ENTITY_APPEARANCE_HANDLER(case=Full entity look, race=1*, hair=8*, head=20*, body=143*, hands=23*, legs=143*, feet=143*, main=0*, sub=0*)
  1: 0x0023 [0x00] END_REQSTACK()
```

### Event 65535.1

#### Metadata

| Field        | Value    |
|--------------|----------|
| Entrypoint   | 0x0024   |
| Data Size    | 34 bytes |
| Instructions | 8        |

```
      00 01 02 03 04 05 06 07  08 09 0A 0B 0C 0D 0E 0F
      -- -- -- -- -- -- -- --  -- -- -- -- -- -- -- --
0020:             32 06 80 1F  00 07 80 08 80 09 80 1F      2...........
0030: 01 1F 00 0A 80 0B 80 09  80 1F 01 1F 00 0C 80 0D  ................
0040: 80 0E 80 1F 01 00                                 ......          
```

#### Opcodes

```
  0: 0x0024 [0x32] ExtData[1]->MainSpeed = 13* * 0.1
  1: 0x0027 [0x1F] MOVE_ENTITY: EventEntity moves to X=-158.360*, Z=-25.211*, Y=2.699*
  2: 0x002F [0x1F] MOVE_ENTITY: Update entity position (mode=1)
  3: 0x0031 [0x1F] MOVE_ENTITY: EventEntity moves to X=-162.571*, Z=-25.184*, Y=2.699*
  4: 0x0039 [0x1F] MOVE_ENTITY: Update entity position (mode=1)
  5: 0x003B [0x1F] MOVE_ENTITY: EventEntity moves to X=-166.996*, Z=-25.191*, Y=3.564*
  6: 0x0043 [0x1F] MOVE_ENTITY: Update entity position (mode=1)
  7: 0x0045 [0x00] END_REQSTACK()
```

### Event 65535.2

#### Metadata

| Field        | Value    |
|--------------|----------|
| Entrypoint   | 0x0046   |
| Data Size    | 21 bytes |
| Instructions | 2        |

```
      00 01 02 03 04 05 06 07  08 09 0A 0B 0C 0D 0E 0F
      -- -- -- -- -- -- -- --  -- -- -- -- -- -- -- --
0040:                   B6 0B  00 80 0F 80 05 80 10 80        ..........
0050: 05 80 11 80 12 80 05 80  05 80 00                 ...........     
```

#### Opcodes

```
  0: 0x0046 [0xB6] ENTITY_APPEARANCE_HANDLER(case=Full entity look, race=1*, hair=3*, head=0*, body=105*, hands=0*, legs=102*, feet=21*, main=0*, sub=0*)
  1: 0x005A [0x00] END_REQSTACK()
```

### Event 185

#### Metadata

| Field        | Value    |
|--------------|----------|
| Entrypoint   | 0x005B   |
| Data Size    | 54 bytes |
| Instructions | 6        |

```
      00 01 02 03 04 05 06 07  08 09 0A 0B 0C 0D 0E 0F
      -- -- -- -- -- -- -- --  -- -- -- -- -- -- -- --
0050:                                   B4 00 00 00 43             ....C
0060: 68 61 6C 76 61 76 61 00  00 00 00 00 00 00 00 B5  halvava.........
0070: 00 00 00 B6 0B 13 80 14  80 15 80 16 80 05 80 17  ................
0080: 80 0F 80 05 80 05 80 95  00 80 92 01 F8 FF FF 7F  ................
0090: 00                                                .               
```

#### Opcodes

```
  0: 0x005B [0xB4] UI_WINDOW_STRING_HANDLER(case=0x00 - Copy string from opcode, work_offset=ExtData[1]->WorkLocal[0], string="Chalvava")
  1: 0x006F [0xB5] SET_EVENT_ENTITY_NAME: Change EventEntity name to ExtData[1]->WorkLocal[0]
  2: 0x0073 [0xB6] ENTITY_APPEARANCE_HANDLER(case=Full entity look, race=6*, hair=5*, head=115*, body=103*, hands=0*, legs=171*, feet=3*, main=0*, sub=0*)
  3: 0x0087 [0x95] SETUP_EVENT_NPC: Prepare NPC for event (Render.Flags3 = 1*)
  4: 0x008A [0x92] EventEntity->Render.Flags3 ^= 0x01
  5: 0x0090 [0x00] END_REQSTACK()
```

### Event 65535.3

#### Metadata

| Field        | Value   |
|--------------|---------|
| Entrypoint   | 0x0091  |
| Data Size    | 2 bytes |
| Instructions | 2       |

```
      00 01 02 03 04 05 06 07  08 09 0A 0B 0C 0D 0E 0F
      -- -- -- -- -- -- -- --  -- -- -- -- -- -- -- --
0090:    96 00                                           ..             
```

#### Opcodes

```
  0: 0x0091 [0x96] UNSET_EVENT_NPC: Restore NPC after event (removes event NPC status)
  1: 0x0092 [0x00] END_REQSTACK()
```

### Event 65535.4

#### Metadata

| Field        | Value    |
|--------------|----------|
| Entrypoint   | 0x0093   |
| Data Size    | 14 bytes |
| Instructions | 4        |

```
      00 01 02 03 04 05 06 07  08 09 0A 0B 0C 0D 0E 0F
      -- -- -- -- -- -- -- --  -- -- -- -- -- -- -- --
0090:          32 06 80 1F 00  18 80 19 80 05 80 1F 01     2............
00A0: 00                                                .               
```

#### Opcodes

```
  0: 0x0093 [0x32] ExtData[1]->MainSpeed = 13* * 0.1
  1: 0x0096 [0x1F] MOVE_ENTITY: EventEntity moves to X=-0.591*, Z=-16.644*, Y=0.000*
  2: 0x009E [0x1F] MOVE_ENTITY: Update entity position (mode=1)
  3: 0x00A0 [0x00] END_REQSTACK()
```

### Event 65535.5

#### Metadata

| Field        | Value    |
|--------------|----------|
| Entrypoint   | 0x00A1   |
| Data Size    | 25 bytes |
| Instructions | 3        |

```
      00 01 02 03 04 05 06 07  08 09 0A 0B 0C 0D 0E 0F
      -- -- -- -- -- -- -- --  -- -- -- -- -- -- -- --
00A0:    B4 00 00 00 4C 6F 67  61 6E 00 00 00 00 00 00   ....Logan......
00B0: 00 00 00 00 00 B5 00 00  00 00                    ..........      
```

#### Opcodes

```
  0: 0x00A1 [0xB4] UI_WINDOW_STRING_HANDLER(case=0x00 - Copy string from opcode, work_offset=ExtData[1]->WorkLocal[0], string="Logan")
  1: 0x00B5 [0xB5] SET_EVENT_ENTITY_NAME: Change EventEntity name to ExtData[1]->WorkLocal[0]
  2: 0x00B9 [0x00] END_REQSTACK()
```

### Event 187

#### Metadata

| Field        | Value   |
|--------------|---------|
| Entrypoint   | 0x00BA  |
| Data Size    | 1 bytes |
| Instructions | 1       |

```
      00 01 02 03 04 05 06 07  08 09 0A 0B 0C 0D 0E 0F
      -- -- -- -- -- -- -- --  -- -- -- -- -- -- -- --
00B0:                                00                           .     
```

#### Opcodes

```
  0: 0x00BA [0x00] END_REQSTACK()
```

### Event 65535.6

#### Metadata

| Field        | Value    |
|--------------|----------|
| Entrypoint   | 0x00BB   |
| Data Size    | 51 bytes |
| Instructions | 5        |

```
      00 01 02 03 04 05 06 07  08 09 0A 0B 0C 0D 0E 0F
      -- -- -- -- -- -- -- --  -- -- -- -- -- -- -- --
00B0:                                   B4 00 00 00 42             ....B
00C0: 6F 72 67 68 65 73 74 00  00 00 00 00 00 00 00 B5  orghest.........
00D0: 00 00 00 B6 0B 01 80 1A  80 1B 80 1C 80 1D 80 1E  ................
00E0: 80 1F 80 20 80 05 80 92  01 F8 FF FF 7F 00        ... ..........  
```

#### Opcodes

```
  0: 0x00BB [0xB4] UI_WINDOW_STRING_HANDLER(case=0x00 - Copy string from opcode, work_offset=ExtData[1]->WorkLocal[0], string="Borghest")
  1: 0x00CF [0xB5] SET_EVENT_ENTITY_NAME: Change EventEntity name to ExtData[1]->WorkLocal[0]
  2: 0x00D3 [0xB6] ENTITY_APPEARANCE_HANDLER(case=Full entity look, race=8*, hair=4*, head=129*, body=110*, hands=15*, legs=148*, feet=14*, main=98*, sub=0*)
  3: 0x00E7 [0x92] EventEntity->Render.Flags3 ^= 0x01
  4: 0x00ED [0x00] END_REQSTACK()
```

### Event 65535.7

#### Metadata

| Field        | Value    |
|--------------|----------|
| Entrypoint   | 0x00EE   |
| Data Size    | 24 bytes |
| Instructions | 6        |

```
      00 01 02 03 04 05 06 07  08 09 0A 0B 0C 0D 0E 0F
      -- -- -- -- -- -- -- --  -- -- -- -- -- -- -- --
00E0:                                            32 21                2!
00F0: 80 1F 00 22 80 23 80 24  80 1F 01 1F 00 25 80 26  ...".#.$.....%.&
0100: 80 24 80 1F 01 00                                 .$....          
```

#### Opcodes

```
  0: 0x00EE [0x32] ExtData[1]->MainSpeed = 40* * 0.1
  1: 0x00F1 [0x1F] MOVE_ENTITY: EventEntity moves to X=-57.561*, Z=-5.097*, Y=-0.500*
  2: 0x00F9 [0x1F] MOVE_ENTITY: Update entity position (mode=1)
  3: 0x00FB [0x1F] MOVE_ENTITY: EventEntity moves to X=-58.061*, Z=-7.643*, Y=-0.500*
  4: 0x0103 [0x1F] MOVE_ENTITY: Update entity position (mode=1)
  5: 0x0105 [0x00] END_REQSTACK()
```

### Event 65535.8

#### Metadata

| Field        | Value    |
|--------------|----------|
| Entrypoint   | 0x0106   |
| Data Size    | 24 bytes |
| Instructions | 6        |

```
      00 01 02 03 04 05 06 07  08 09 0A 0B 0C 0D 0E 0F
      -- -- -- -- -- -- -- --  -- -- -- -- -- -- -- --
0100:                   32 21  80 1F 00 22 80 23 80 24        2!...".#.$
0110: 80 1F 01 1F 00 27 80 28  80 24 80 1F 01 00        .....'.(.$....  
```

#### Opcodes

```
  0: 0x0106 [0x32] ExtData[1]->MainSpeed = 40* * 0.1
  1: 0x0109 [0x1F] MOVE_ENTITY: EventEntity moves to X=-57.561*, Z=-5.097*, Y=-0.500*
  2: 0x0111 [0x1F] MOVE_ENTITY: Update entity position (mode=1)
  3: 0x0113 [0x1F] MOVE_ENTITY: EventEntity moves to X=-59.603*, Z=1.189*, Y=-0.500*
  4: 0x011B [0x1F] MOVE_ENTITY: Update entity position (mode=1)
  5: 0x011D [0x00] END_REQSTACK()
```

### Event 5223

#### Metadata

| Field        | Value   |
|--------------|---------|
| Entrypoint   | 0x011E  |
| Data Size    | 7 bytes |
| Instructions | 2       |

```
      00 01 02 03 04 05 06 07  08 09 0A 0B 0C 0D 0E 0F
      -- -- -- -- -- -- -- --  -- -- -- -- -- -- -- --
0110:                                            92 01                ..
0120: F8 FF FF 7F 00                                    .....           
```

#### Opcodes

```
  0: 0x011E [0x92] EventEntity->Render.Flags3 ^= 0x01
  1: 0x0124 [0x00] END_REQSTACK()
```
