# 17825945

## Common Data

| Field            | Value                     |
|------------------|---------------------------|
| Zone             | Western Adoulin (ID: 256) |
| Block Size       | 192 bytes                 |
| Total Events     | 6                         |
| References Count | 17                        |

## List of Events

| Event ID                 | Entrypoint   |   Size |   Instructions |
|--------------------------|--------------|--------|----------------|
| [65535](#event-65535)    | 0x0000       |      1 |              1 |
| [130](#event-130)        | 0x0001       |      3 |              2 |
| [153](#event-153)        | 0x0004       |      7 |              3 |
| [5218](#event-5218)      | 0x000B       |      5 |              2 |
| [65535.1](#event-655351) | 0x0010       |     22 |              6 |
| [65535.2](#event-655352) | 0x0026       |     43 |             11 |

## DAT References (imed_data)

|   Index | Hex Value   |   Dec Value |
|---------|-------------|-------------|
|       0 | 0x0AE1      |        2785 |
|       1 | 0x005D      |          93 |
|       2 | 0x000A      |          10 |
|       3 | 0x5780      |       22400 |
|       4 | 0xFFFF92A0  |  4294939296 |
|       5 | 0x03E8      |        1000 |
|       6 | 0xFFFFFB01  |  4294966017 |
|       7 | 0xFFFFFE01  |  4294966785 |
|       8 | 0x002D      |          45 |
|       9 | 0x001E      |          30 |
|      10 | 0x5E88      |       24200 |
|      11 | 0xFFFF9688  |  4294940296 |
|      12 | 0x6928      |       26920 |
|      13 | 0xFFFF9C64  |  4294941796 |
|      14 | 0x7404      |       29700 |
|      15 | 0xFFFFAC04  |  4294945796 |
|      16 | 0xFFFFF7C1  |  4294965185 |

## Events

### Event 65535

#### Metadata

| Field        | Value   |
|--------------|---------|
| Entrypoint   | 0x0000  |
| Data Size    | 1 bytes |
| Instructions | 1       |

```
      00 01 02 03 04 05 06 07  08 09 0A 0B 0C 0D 0E 0F
      -- -- -- -- -- -- -- --  -- -- -- -- -- -- -- --
0000: 00                                                .               
```

#### Opcodes

```
  0: 0x0000 [0x00] END_REQSTACK()
```

### Event 130

#### Metadata

| Field        | Value   |
|--------------|---------|
| Entrypoint   | 0x0001  |
| Data Size    | 3 bytes |
| Instructions | 2       |

```
      00 01 02 03 04 05 06 07  08 09 0A 0B 0C 0D 0E 0F
      -- -- -- -- -- -- -- --  -- -- -- -- -- -- -- --
0000:    A5 01 00                                        ...            
```

#### Opcodes

```
  0: 0x0001 [0xA5] EventEntity->Flags3.BallistaTeam |= 0x08  // Set bit 3 of BallistaTeam
  1: 0x0003 [0x00] END_REQSTACK()
```

### Event 153

#### Metadata

| Field        | Value   |
|--------------|---------|
| Entrypoint   | 0x0004  |
| Data Size    | 7 bytes |
| Instructions | 3       |

```
      00 01 02 03 04 05 06 07  08 09 0A 0B 0C 0D 0E 0F
      -- -- -- -- -- -- -- --  -- -- -- -- -- -- -- --
0000:             A5 01 B6 00  00 80 00                     .......     
```

#### Opcodes

```
  0: 0x0004 [0xA5] EventEntity->Flags3.BallistaTeam |= 0x08  // Set bit 3 of BallistaTeam
  1: 0x0006 [0xB6] ENTITY_APPEARANCE_HANDLER(case=Hair style, value=2785*)
  2: 0x000A [0x00] END_REQSTACK()
```

### Event 5218

#### Metadata

| Field        | Value   |
|--------------|---------|
| Entrypoint   | 0x000B  |
| Data Size    | 5 bytes |
| Instructions | 2       |

```
      00 01 02 03 04 05 06 07  08 09 0A 0B 0C 0D 0E 0F
      -- -- -- -- -- -- -- --  -- -- -- -- -- -- -- --
0000:                                   B6 00 01 80 00             .....
```

#### Opcodes

```
  0: 0x000B [0xB6] ENTITY_APPEARANCE_HANDLER(case=Hair style, value=93*)
  1: 0x000F [0x00] END_REQSTACK()
```

### Event 65535.1

#### Metadata

| Field        | Value    |
|--------------|----------|
| Entrypoint   | 0x0010   |
| Data Size    | 22 bytes |
| Instructions | 6        |

```
      00 01 02 03 04 05 06 07  08 09 0A 0B 0C 0D 0E 0F
      -- -- -- -- -- -- -- --  -- -- -- -- -- -- -- --
0010: 32 02 80 1F 00 03 80 04  80 05 80 1F 01 39 06 80  2............9..
0020: 1E EB 00 10 01 00                                 ......          
```

#### Opcodes

```
  0: 0x0010 [0x32] ExtData[1]->MainSpeed = 10* * 0.1
  1: 0x0013 [0x1F] MOVE_ENTITY: EventEntity moves to X=22.400*, Z=-28.000*, Y=1.000*
  2: 0x001B [0x1F] MOVE_ENTITY: Update entity position (mode=1)
  3: 0x001D [0x39] SET_ENTITY_DIRECTION(direction=353.0°*)
  4: 0x0020 [0x1E] EventEntity looks at Fabioso (ID: 17826027/0x011000EB) and starts talking
  5: 0x0025 [0x00] END_REQSTACK()
```

### Event 65535.2

#### Metadata

| Field        | Value    |
|--------------|----------|
| Entrypoint   | 0x0026   |
| Data Size    | 43 bytes |
| Instructions | 11       |

```
      00 01 02 03 04 05 06 07  08 09 0A 0B 0C 0D 0E 0F
      -- -- -- -- -- -- -- --  -- -- -- -- -- -- -- --
0020:                   39 07  80 1C 08 80 32 09 80 1F        9.....2...
0030: 00 0A 80 0B 80 05 80 1F  01 1F 00 0C 80 0D 80 05  ................
0040: 80 1F 01 1F 00 0E 80 0F  80 05 80 1F 01 39 10 80  .............9..
0050: 00                                                .               
```

#### Opcodes

```
  0: 0x0026 [0x39] SET_ENTITY_DIRECTION(direction=357.2°*)
  1: 0x0029 [0x1C] WAIT(45* ticks)
  2: 0x002C [0x32] ExtData[1]->MainSpeed = 30* * 0.1
  3: 0x002F [0x1F] MOVE_ENTITY: EventEntity moves to X=24.200*, Z=-27.000*, Y=1.000*
  4: 0x0037 [0x1F] MOVE_ENTITY: Update entity position (mode=1)
  5: 0x0039 [0x1F] MOVE_ENTITY: EventEntity moves to X=26.920*, Z=-25.500*, Y=1.000*
  6: 0x0041 [0x1F] MOVE_ENTITY: Update entity position (mode=1)
  7: 0x0043 [0x1F] MOVE_ENTITY: EventEntity moves to X=29.700*, Z=-21.500*, Y=1.000*
  8: 0x004B [0x1F] MOVE_ENTITY: Update entity position (mode=1)
  9: 0x004D [0x39] SET_ENTITY_DIRECTION(direction=348.4°*)
 10: 0x0050 [0x00] END_REQSTACK()
```
