# 17826070 - Gorad

## Common Data

| Field            | Value                     |
|------------------|---------------------------|
| Zone             | Western Adoulin (ID: 256) |
| Block Size       | 80 bytes                  |
| Total Events     | 4                         |
| References Count | 3                         |

## List of Events

| Event ID              | Entrypoint   |   Size |   Instructions |
|-----------------------|--------------|--------|----------------|
| [65535](#event-65535) | 0x0000       |      1 |              1 |
| [542](#event-542)     | 0x0001       |     32 |             10 |
| [5079](#event-5079)   | 0x0021       |      1 |              1 |
| [5146](#event-5146)   | 0x0022       |      1 |              1 |

## DAT References (imed_data)

|   Index | Hex Value   |   Dec Value |
|---------|-------------|-------------|
|       0 | 0x0041      |          65 |
|       1 | 0x26AC      |        9900 |
|       2 | 0x26AD      |        9901 |

## String References

- **9900**: I can't thank you pioneers enough for coming to this continent. I've never seen Adoulin so lively in all my years of trading.
- **9901**: I might have to invest in a pair of sea legs soon, what with all the ships going back and forth between here and the Middle Lands. Hopefully these mercantile connections will bridge the cultural divisions between our two homes as well.

## Events

### Event 65535

#### Metadata

| Field        | Value   |
|--------------|---------|
| Entrypoint   | 0x0000  |
| Data Size    | 1 bytes |
| Instructions | 1       |

```
      00 01 02 03 04 05 06 07  08 09 0A 0B 0C 0D 0E 0F
      -- -- -- -- -- -- -- --  -- -- -- -- -- -- -- --
0000: 00                                                .               
```

#### Opcodes

```
  0: 0x0000 [0x00] END_REQSTACK()
```

### Event 542

#### Metadata

| Field        | Value    |
|--------------|----------|
| Entrypoint   | 0x0001   |
| Data Size    | 32 bytes |
| Instructions | 10       |

```
      00 01 02 03 04 05 06 07  08 09 0A 0B 0C 0D 0E 0F
      -- -- -- -- -- -- -- --  -- -- -- -- -- -- -- --
0000:    1E F0 FF FF 7F 6F 70  5B 00 80 F8 FF FF 7F F8   .....op[.......
0010: FF FF 7F 74 6C 6B 30 1D  01 80 23 1D 02 80 23 21  ...tlk0...#...#!
0020: 00                                                .               
```

#### Opcodes

```
  0: 0x0001 [0x1E] EventEntity looks at LocalPlayer and starts talking
  1: 0x0006 [0x6F] WAIT_FRAME_DELAY: Yield until WaitTime reaches zero
  2: 0x0007 [0x70] WAIT_ENTITY_RENDER_FLAG: Wait while EventEntity->Render.Flags3 bit 2 is set (cancel turn if not)
  3: 0x0008 [0x5B] LOAD_EXT_SCHEDULER: Load scheduler "tlk0" with entities [EventEntity, EventEntity], work=65*
  4: 0x0017 [0x1D] PRINT_EVENT_MESSAGE(message_id=9900*)
    → "I can't thank you pioneers enough for coming to this continent. I've never seen Adoulin so lively in all my years of trading."
  5: 0x001A [0x23] WAIT_FOR_DIALOG_INTERACTION
  6: 0x001B [0x1D] PRINT_EVENT_MESSAGE(message_id=9901*)
    → "I might have to invest in a pair of sea legs soon, what with all the ships going back and forth between here and the Middle Lands. Hopefully these mercantile connections will bridge the cultural divisions between our two homes as well."
  7: 0x001E [0x23] WAIT_FOR_DIALOG_INTERACTION
  8: 0x001F [0x21] END_EVENT
  9: 0x0020 [0x00] END_REQSTACK()
```

### Event 5079

#### Metadata

| Field        | Value   |
|--------------|---------|
| Entrypoint   | 0x0021  |
| Data Size    | 1 bytes |
| Instructions | 1       |

```
      00 01 02 03 04 05 06 07  08 09 0A 0B 0C 0D 0E 0F
      -- -- -- -- -- -- -- --  -- -- -- -- -- -- -- --
0020:    00                                              .              
```

#### Opcodes

```
  0: 0x0021 [0x00] END_REQSTACK()
```

### Event 5146

#### Metadata

| Field        | Value   |
|--------------|---------|
| Entrypoint   | 0x0022  |
| Data Size    | 1 bytes |
| Instructions | 1       |

```
      00 01 02 03 04 05 06 07  08 09 0A 0B 0C 0D 0E 0F
      -- -- -- -- -- -- -- --  -- -- -- -- -- -- -- --
0020:       00                                            .             
```

#### Opcodes

```
  0: 0x0022 [0x00] END_REQSTACK()
```
