# 17825954

## Common Data

| Field            | Value                     |
|------------------|---------------------------|
| Zone             | Western Adoulin (ID: 256) |
| Block Size       | 216 bytes                 |
| Total Events     | 7                         |
| References Count | 17                        |

## List of Events

| Event ID                 | Entrypoint   |   Size |   Instructions |
|--------------------------|--------------|--------|----------------|
| [65535](#event-65535)    | 0x0000       |      1 |              1 |
| [130](#event-130)        | 0x0001       |      7 |              3 |
| [5218](#event-5218)      | 0x0008       |      5 |              2 |
| [65535.1](#event-655351) | 0x000D       |     32 |              6 |
| [65535.2](#event-655352) | 0x002D       |      9 |              3 |
| [5221](#event-5221)      | 0x0036       |      5 |              2 |
| [65535.3](#event-655353) | 0x003B       |     44 |             10 |

## DAT References (imed_data)

|   Index | Hex Value   |   Dec Value |
|---------|-------------|-------------|
|       0 | 0x0A05      |        2565 |
|       1 | 0x0A9D      |        2717 |
|       2 | 0x000D      |          13 |
|       3 | 0x6F54      |       28500 |
|       4 | 0xFFFFBBA4  |  4294949796 |
|       5 | 0x03E8      |        1000 |
|       6 | 0x063F      |        1599 |
|       7 | 0x0CD1      |        3281 |
|       8 | 0xFFFF6320  |  4294927136 |
|       9 | 0xFFFE57F0  |  4294858736 |
|      10 | 0xFFFFFD76  |  4294966646 |
|      11 | 0xFFFF6B2C  |  4294929196 |
|      12 | 0xFFFE56EC  |  4294858476 |
|      13 | 0xFFFF7A0E  |  4294933006 |
|      14 | 0xFFFE5002  |  4294856706 |
|      15 | 0xFFFF8B2A  |  4294937386 |
|      16 | 0xFFFE5340  |  4294857536 |

## Events

### Event 65535

#### Metadata

| Field        | Value   |
|--------------|---------|
| Entrypoint   | 0x0000  |
| Data Size    | 1 bytes |
| Instructions | 1       |

```
      00 01 02 03 04 05 06 07  08 09 0A 0B 0C 0D 0E 0F
      -- -- -- -- -- -- -- --  -- -- -- -- -- -- -- --
0000: 00                                                .               
```

#### Opcodes

```
  0: 0x0000 [0x00] END_REQSTACK()
```

### Event 130

#### Metadata

| Field        | Value   |
|--------------|---------|
| Entrypoint   | 0x0001  |
| Data Size    | 7 bytes |
| Instructions | 3       |

```
      00 01 02 03 04 05 06 07  08 09 0A 0B 0C 0D 0E 0F
      -- -- -- -- -- -- -- --  -- -- -- -- -- -- -- --
0000:    A5 01 B6 00 00 80 00                            .......        
```

#### Opcodes

```
  0: 0x0001 [0xA5] EventEntity->Flags3.BallistaTeam |= 0x08  // Set bit 3 of BallistaTeam
  1: 0x0003 [0xB6] ENTITY_APPEARANCE_HANDLER(case=Hair style, value=2565*)
  2: 0x0007 [0x00] END_REQSTACK()
```

### Event 5218

#### Metadata

| Field        | Value   |
|--------------|---------|
| Entrypoint   | 0x0008  |
| Data Size    | 5 bytes |
| Instructions | 2       |

```
      00 01 02 03 04 05 06 07  08 09 0A 0B 0C 0D 0E 0F
      -- -- -- -- -- -- -- --  -- -- -- -- -- -- -- --
0000:                          B6 00 01 80 00                   .....   
```

#### Opcodes

```
  0: 0x0008 [0xB6] ENTITY_APPEARANCE_HANDLER(case=Hair style, value=2717*)
  1: 0x000C [0x00] END_REQSTACK()
```

### Event 65535.1

#### Metadata

| Field        | Value    |
|--------------|----------|
| Entrypoint   | 0x000D   |
| Data Size    | 32 bytes |
| Instructions | 6        |

```
      00 01 02 03 04 05 06 07  08 09 0A 0B 0C 0D 0E 0F
      -- -- -- -- -- -- -- --  -- -- -- -- -- -- -- --
0000:                                         32 02 80               2..
0010: 1F 00 03 80 04 80 05 80  1F 01 39 06 80 5B 07 80  ..........9..[..
0020: F8 FF FF 7F F8 FF FF 7F  73 74 64 30 00           ........std0.   
```

#### Opcodes

```
  0: 0x000D [0x32] ExtData[1]->MainSpeed = 13* * 0.1
  1: 0x0010 [0x1F] MOVE_ENTITY: EventEntity moves to X=28.500*, Z=-17.500*, Y=1.000*
  2: 0x0018 [0x1F] MOVE_ENTITY: Update entity position (mode=1)
  3: 0x001A [0x39] SET_ENTITY_DIRECTION(direction=8.8°*)
  4: 0x001D [0x5B] LOAD_EXT_SCHEDULER: Load scheduler "std0" with entities [EventEntity, EventEntity], work=3281*
  5: 0x002C [0x00] END_REQSTACK()
```

### Event 65535.2

#### Metadata

| Field        | Value   |
|--------------|---------|
| Entrypoint   | 0x002D  |
| Data Size    | 9 bytes |
| Instructions | 3       |

```
      00 01 02 03 04 05 06 07  08 09 0A 0B 0C 0D 0E 0F
      -- -- -- -- -- -- -- --  -- -- -- -- -- -- -- --
0020:                                         7B F8 FF               {..
0030: FF 7F 39 06 80 00                                 ..9...          
```

#### Opcodes

```
  0: 0x002D [0x7B] EventEntity stops talking
  1: 0x0032 [0x39] SET_ENTITY_DIRECTION(direction=8.8°*)
  2: 0x0035 [0x00] END_REQSTACK()
```

### Event 5221

#### Metadata

| Field        | Value   |
|--------------|---------|
| Entrypoint   | 0x0036  |
| Data Size    | 5 bytes |
| Instructions | 2       |

```
      00 01 02 03 04 05 06 07  08 09 0A 0B 0C 0D 0E 0F
      -- -- -- -- -- -- -- --  -- -- -- -- -- -- -- --
0030:                   B6 00  01 80 00                       .....     
```

#### Opcodes

```
  0: 0x0036 [0xB6] ENTITY_APPEARANCE_HANDLER(case=Hair style, value=2717*)
  1: 0x003A [0x00] END_REQSTACK()
```

### Event 65535.3

#### Metadata

| Field        | Value    |
|--------------|----------|
| Entrypoint   | 0x003B   |
| Data Size    | 44 bytes |
| Instructions | 10       |

```
      00 01 02 03 04 05 06 07  08 09 0A 0B 0C 0D 0E 0F
      -- -- -- -- -- -- -- --  -- -- -- -- -- -- -- --
0030:                                   32 02 80 1F 00             2....
0040: 08 80 09 80 0A 80 1F 01  1F 00 0B 80 0C 80 0A 80  ................
0050: 1F 01 1F 00 0D 80 0E 80  0A 80 1F 01 1F 00 0F 80  ................
0060: 10 80 0A 80 1F 01 00                              .......         
```

#### Opcodes

```
  0: 0x003B [0x32] ExtData[1]->MainSpeed = 13* * 0.1
  1: 0x003E [0x1F] MOVE_ENTITY: EventEntity moves to X=-40.160*, Z=-108.560*, Y=-0.650*
  2: 0x0046 [0x1F] MOVE_ENTITY: Update entity position (mode=1)
  3: 0x0048 [0x1F] MOVE_ENTITY: EventEntity moves to X=-38.100*, Z=-108.820*, Y=-0.650*
  4: 0x0050 [0x1F] MOVE_ENTITY: Update entity position (mode=1)
  5: 0x0052 [0x1F] MOVE_ENTITY: EventEntity moves to X=-34.290*, Z=-110.590*, Y=-0.650*
  6: 0x005A [0x1F] MOVE_ENTITY: Update entity position (mode=1)
  7: 0x005C [0x1F] MOVE_ENTITY: EventEntity moves to X=-29.910*, Z=-109.760*, Y=-0.650*
  8: 0x0064 [0x1F] MOVE_ENTITY: Update entity position (mode=1)
  9: 0x0066 [0x00] END_REQSTACK()
```
