# 17826052 - Flapano

## Common Data

| Field            | Value                     |
|------------------|---------------------------|
| Zone             | Western Adoulin (ID: 256) |
| Block Size       | 768 bytes                 |
| Total Events     | 10                        |
| References Count | 41                        |

## List of Events

| Event ID                 | Entrypoint   |   Size |   Instructions |
|--------------------------|--------------|--------|----------------|
| [65535](#event-65535)    | 0x0000       |      1 |              1 |
| [2860](#event-2860)      | 0x0001       |    128 |             34 |
| [2861](#event-2861)      | 0x0081       |    116 |             24 |
| [2862](#event-2862)      | 0x00F5       |     48 |             12 |
| [2863](#event-2863)      | 0x0125       |     63 |             13 |
| [5071](#event-5071)      | 0x0164       |     48 |             12 |
| [134](#event-134)        | 0x0194       |      1 |              1 |
| [65535.1](#event-655351) | 0x0195       |     42 |             10 |
| [65535.2](#event-655352) | 0x01BF       |     68 |             14 |
| [191](#event-191)        | 0x0203       |     33 |              9 |

## DAT References (imed_data)

|   Index | Hex Value   |   Dec Value |
|---------|-------------|-------------|
|       0 | 0x0041      |          65 |
|       1 | 0x1F94      |        8084 |
|       2 | 0x1F95      |        8085 |
|       3 | 0x1F96      |        8086 |
|       4 | 0x1F97      |        8087 |
|       5 | 0x1F98      |        8088 |
|       6 | 0x0001      |           1 |
|       7 | 0x0000      |           0 |
|       8 | 0x1742      |        5954 |
|       9 | 0x173D      |        5949 |
|      10 | 0x0F4C      |        3916 |
|      11 | 0x0002      |           2 |
|      12 | 0x1F9A      |        8090 |
|      13 | 0x1F9B      |        8091 |
|      14 | 0x1F99      |        8089 |
|      15 | 0x1F9D      |        8093 |
|      16 | 0x026C      |         620 |
|      17 | 0x119D      |        4509 |
|      18 | 0x1123      |        4387 |
|      19 | 0x0266      |         614 |
|      20 | 0x1F9E      |        8094 |
|      21 | 0x1757      |        5975 |
|      22 | 0x1F9F      |        8095 |
|      23 | 0x0078      |         120 |
|      24 | 0x1FA0      |        8096 |
|      25 | 0x00C9      |         201 |
|      26 | 0x1FA1      |        8097 |
|      27 | 0x1FA2      |        8098 |
|      28 | 0x1F9C      |        8092 |
|      29 | 0x2866      |       10342 |
|      30 | 0x2867      |       10343 |
|      31 | 0x001E      |          30 |
|      32 | 0x000D      |          13 |
|      33 | 0xFFFF82DA  |  4294935258 |
|      34 | 0xFFFE799D  |  4294867357 |
|      35 | 0xFFFFFD76  |  4294966646 |
|      36 | 0x003C      |          60 |
|      37 | 0xFFFF6AC0  |  4294929088 |
|      38 | 0xFFFE6AF3  |  4294863603 |
|      39 | 0x261D      |        9757 |
|      40 | 0x261E      |        9758 |

## String References

- **8084**: You there! Come to get a taste of our famous cuisine?
- **8085**: I'd love to give ya the house special, but hey--it's so popular that I'm completely out of ingredients to make it!
- **8086**: Wait...yer one of them pioneers, ain't ya? Tell ya what. You bring me some more ingredients and I'll whip up something really good.
- **8087**: How about it, [guy/little lady]?
- **8088**: Lend a hand? [Sure. Food sounds good./I've got better things to do.]
- **8089**: Too bad. Maybe later, then.
- **8090**: Yer a real pal! Here's what I need: $3 $0, $1, and $2.
- **8091**: Bring me those and I'll make a shell-shocking dish like none ya ever seen!
- **8092**: $3 $0, $1, and $2. Bring me those, and I'll be able to make ya somethin' special.
- **8093**: Gotta love that pioneer dependability.
- **8094**: Hang on just a tick. Together with what you've brought me, we add some $0, $1, $2, and $3. Plus, ya gotta heat it up just right. Not too strong, not too weak.
- **8095**: Aaand, we're done. My famous $0. Bet yer mouth's startin' to water just lookin' at it!
- **8096**: It's on the house. After all, yer the one who brought me what I needed, and it was fun bein' able to make some again.
- **8097**: Oh-ho, made some yerself, did ya? I'm impressed.
- **8098**: But I really wanted to don the ol' chef's hat for this one. If ya get more ingredients, make sure to bring 'em, back to me.
- **9757**: You should have seen the way the Blackthorn Coven skittered out of town.
- **9758**: An exorcist called "Nashu" came by to ask about them a while ago. His shoulders slumped when he heard the news.
- **10342**: Need somethin'? Oh, you're here from the Mummers' Coalition. Must be about the tab, then.
- **10343**: Pleasure doin' business. You're always welcome here!

## Events

### Event 65535

#### Metadata

| Field        | Value   |
|--------------|---------|
| Entrypoint   | 0x0000  |
| Data Size    | 1 bytes |
| Instructions | 1       |

```
      00 01 02 03 04 05 06 07  08 09 0A 0B 0C 0D 0E 0F
      -- -- -- -- -- -- -- --  -- -- -- -- -- -- -- --
0000: 00                                                .               
```

#### Opcodes

```
  0: 0x0000 [0x00] END_REQSTACK()
```

### Event 2860

#### Metadata

| Field        | Value     |
|--------------|-----------|
| Entrypoint   | 0x0001    |
| Data Size    | 128 bytes |
| Instructions | 34        |

```
      00 01 02 03 04 05 06 07  08 09 0A 0B 0C 0D 0E 0F
      -- -- -- -- -- -- -- --  -- -- -- -- -- -- -- --
0000:    1E F0 FF FF 7F 6F 70  5B 00 80 F8 FF FF 7F F8   .....op[.......
0010: FF FF 7F 74 6C 6B 30 03  02 10 8B 7F 1D 01 80 23  ...tlk0........#
0020: 1D 02 80 23 1D 03 80 23  1D 04 80 23 24 05 80 06  ...#...#...#$...
0030: 80 07 80 25 02 00 10 07  80 00 61 00 42 03 02 10  ...%......a.B...
0040: 08 80 03 03 10 09 80 03  04 10 0A 80 03 05 10 0B  ................
0050: 80 1D 0C 80 23 1D 0D 80  23 03 01 10 06 80 01 70  ....#...#......p
0060: 00 02 00 10 06 80 00 70  00 1D 0E 80 23 01 70 00  .......p....#.p.
0070: 5B 00 80 F8 FF FF 7F F8  FF FF 7F 73 74 64 30 21  [..........std0!
0080: 00                                                .               
```

#### Opcodes

```
  0: 0x0001 [0x1E] EventEntity looks at LocalPlayer and starts talking
  1: 0x0006 [0x6F] WAIT_FRAME_DELAY: Yield until WaitTime reaches zero
  2: 0x0007 [0x70] WAIT_ENTITY_RENDER_FLAG: Wait while EventEntity->Render.Flags3 bit 2 is set (cancel turn if not)
  3: 0x0008 [0x5B] LOAD_EXT_SCHEDULER: Load scheduler "tlk0" with entities [EventEntity, EventEntity], work=65*
  4: 0x0017 [0x03] Work_Zone[2] = (LocalPlayer->Render.Flags01 >> 25) & 1
  5: 0x001C [0x1D] PRINT_EVENT_MESSAGE(message_id=8084*)
    → "You there! Come to get a taste of our famous cuisine?"
  6: 0x001F [0x23] WAIT_FOR_DIALOG_INTERACTION
  7: 0x0020 [0x1D] PRINT_EVENT_MESSAGE(message_id=8085*)
    → "I'd love to give ya the house special, but hey--it's so popular that I'm completely out of ingredients to make it!"
  8: 0x0023 [0x23] WAIT_FOR_DIALOG_INTERACTION
  9: 0x0024 [0x1D] PRINT_EVENT_MESSAGE(message_id=8086*)
    → "Wait...yer one of them pioneers, ain't ya? Tell ya what. You bring me some more ingredients and I'll whip up something really good."
 10: 0x0027 [0x23] WAIT_FOR_DIALOG_INTERACTION
 11: 0x0028 [0x1D] PRINT_EVENT_MESSAGE(message_id=8087*)
    → "How about it, [guy/little lady]?"
 12: 0x002B [0x23] WAIT_FOR_DIALOG_INTERACTION
 13: 0x002C [0x24] CREATE_DIALOG(message_id=8088*, default_option=1*, option_flags=0*)
    → "Lend a hand? [Sure. Food sounds good./I've got better things to do.]"
 14: 0x0033 [0x25] WAIT_DIALOG_SELECT()
 15: 0x0034 [0x02] IF !(Work_Zone[0] == 0*) GOTO 0x0061
 16: 0x003C [0x42] SET_CLI_EVENT_CANCEL_DATA()
 17: 0x003D [0x03] Work_Zone[2] = 5954*
 18: 0x0042 [0x03] Work_Zone[3] = 5949*
 19: 0x0047 [0x03] Work_Zone[4] = 3916*
 20: 0x004C [0x03] Work_Zone[5] = 2*
 21: 0x0051 [0x1D] PRINT_EVENT_MESSAGE(message_id=8090*)
    → "Yer a real pal! Here's what I need: $3 $0, $1, and $2."
 22: 0x0054 [0x23] WAIT_FOR_DIALOG_INTERACTION
 23: 0x0055 [0x1D] PRINT_EVENT_MESSAGE(message_id=8091*)
    → "Bring me those and I'll make a shell-shocking dish like none ya ever seen!"
 24: 0x0058 [0x23] WAIT_FOR_DIALOG_INTERACTION
 25: 0x0059 [0x03] Work_Zone[1] = 1*
 26: 0x005E [0x01] GOTO 0x0070
 27: 0x0061 [0x02] IF !(Work_Zone[0] == 1*) GOTO 0x0070
 28: 0x0069 [0x1D] PRINT_EVENT_MESSAGE(message_id=8089*)
    → "Too bad. Maybe later, then."
 29: 0x006C [0x23] WAIT_FOR_DIALOG_INTERACTION
 30: 0x006D [0x01] GOTO 0x0070

SUBROUTINE_0070:
 31: 0x0070 [0x5B] LOAD_EXT_SCHEDULER: Load scheduler "std0" with entities [EventEntity, EventEntity], work=65*
 32: 0x007F [0x21] END_EVENT
 33: 0x0080 [0x00] END_REQSTACK()
```

### Event 2861

#### Metadata

| Field        | Value     |
|--------------|-----------|
| Entrypoint   | 0x0081    |
| Data Size    | 116 bytes |
| Instructions | 24        |

```
      00 01 02 03 04 05 06 07  08 09 0A 0B 0C 0D 0E 0F
      -- -- -- -- -- -- -- --  -- -- -- -- -- -- -- --
0080:    1E F0 FF FF 7F 42 6F  70 5B 00 80 F8 FF FF 7F   .....Bop[......
0090: F8 FF FF 7F 74 6C 6B 30  1D 0F 80 23 03 02 10 10  ....tlk0...#....
00A0: 80 03 03 10 11 80 03 04  10 12 80 03 05 10 13 80  ................
00B0: 1D 14 80 23 03 02 10 15  80 1D 16 80 23 5B 00 80  ...#........#[..
00C0: F8 FF FF 7F F8 FF FF 7F  70 61 73 30 1C 17 80 1D  ........pas0....
00D0: 18 80 23 5B 00 80 F8 FF  FF 7F F8 FF FF 7F 73 74  ..#[..........st
00E0: 64 30 45 19 80 F8 FF FF  7F F8 FF FF 7F 71 73 74  d0E..........qst
00F0: 63 07 80 21 00                                    c..!.           
```

#### Opcodes

```
  0: 0x0081 [0x1E] EventEntity looks at LocalPlayer and starts talking
  1: 0x0086 [0x42] SET_CLI_EVENT_CANCEL_DATA()
  2: 0x0087 [0x6F] WAIT_FRAME_DELAY: Yield until WaitTime reaches zero
  3: 0x0088 [0x70] WAIT_ENTITY_RENDER_FLAG: Wait while EventEntity->Render.Flags3 bit 2 is set (cancel turn if not)
  4: 0x0089 [0x5B] LOAD_EXT_SCHEDULER: Load scheduler "tlk0" with entities [EventEntity, EventEntity], work=65*
  5: 0x0098 [0x1D] PRINT_EVENT_MESSAGE(message_id=8093*)
    → "Gotta love that pioneer dependability."
  6: 0x009B [0x23] WAIT_FOR_DIALOG_INTERACTION
  7: 0x009C [0x03] Work_Zone[2] = 620*
  8: 0x00A1 [0x03] Work_Zone[3] = 4509*
  9: 0x00A6 [0x03] Work_Zone[4] = 4387*
 10: 0x00AB [0x03] Work_Zone[5] = 614*
 11: 0x00B0 [0x1D] PRINT_EVENT_MESSAGE(message_id=8094*)
    → "Hang on just a tick. Together with what you've brought me, we add some $0, $1, $2, and $3. Plus, ya gotta heat it up just right. Not too strong, not too weak."
 12: 0x00B3 [0x23] WAIT_FOR_DIALOG_INTERACTION
 13: 0x00B4 [0x03] Work_Zone[2] = 5975*
 14: 0x00B9 [0x1D] PRINT_EVENT_MESSAGE(message_id=8095*)
    → "Aaand, we're done. My famous $0. Bet yer mouth's startin' to water just lookin' at it!"
 15: 0x00BC [0x23] WAIT_FOR_DIALOG_INTERACTION
 16: 0x00BD [0x5B] LOAD_EXT_SCHEDULER: Load scheduler "pas0" with entities [EventEntity, EventEntity], work=65*
 17: 0x00CC [0x1C] WAIT(120* ticks)
 18: 0x00CF [0x1D] PRINT_EVENT_MESSAGE(message_id=8096*)
    → "It's on the house. After all, yer the one who brought me what I needed, and it was fun bein' able to make some again."
 19: 0x00D2 [0x23] WAIT_FOR_DIALOG_INTERACTION
 20: 0x00D3 [0x5B] LOAD_EXT_SCHEDULER: Load scheduler "std0" with entities [EventEntity, EventEntity], work=65*
 21: 0x00E2 [0x45] LOAD_SCHEDULED_TASK: Load scheduler "qstc" with entities [EventEntity, EventEntity], work=[201*, 0*]
 22: 0x00F3 [0x21] END_EVENT
 23: 0x00F4 [0x00] END_REQSTACK()
```

### Event 2862

#### Metadata

| Field        | Value    |
|--------------|----------|
| Entrypoint   | 0x00F5   |
| Data Size    | 48 bytes |
| Instructions | 12       |

```
      00 01 02 03 04 05 06 07  08 09 0A 0B 0C 0D 0E 0F
      -- -- -- -- -- -- -- --  -- -- -- -- -- -- -- --
00F0:                1E F0 FF  FF 7F 42 6F 70 5B 00 80       .....Bop[..
0100: F8 FF FF 7F F8 FF FF 7F  74 6C 6B 30 1D 1A 80 23  ........tlk0...#
0110: 1D 1B 80 23 5B 00 80 F8  FF FF 7F F8 FF FF 7F 73  ...#[..........s
0120: 74 64 30 21 00                                    td0!.           
```

#### Opcodes

```
  0: 0x00F5 [0x1E] EventEntity looks at LocalPlayer and starts talking
  1: 0x00FA [0x42] SET_CLI_EVENT_CANCEL_DATA()
  2: 0x00FB [0x6F] WAIT_FRAME_DELAY: Yield until WaitTime reaches zero
  3: 0x00FC [0x70] WAIT_ENTITY_RENDER_FLAG: Wait while EventEntity->Render.Flags3 bit 2 is set (cancel turn if not)
  4: 0x00FD [0x5B] LOAD_EXT_SCHEDULER: Load scheduler "tlk0" with entities [EventEntity, EventEntity], work=65*
  5: 0x010C [0x1D] PRINT_EVENT_MESSAGE(message_id=8097*)
    → "Oh-ho, made some yerself, did ya? I'm impressed."
  6: 0x010F [0x23] WAIT_FOR_DIALOG_INTERACTION
  7: 0x0110 [0x1D] PRINT_EVENT_MESSAGE(message_id=8098*)
    → "But I really wanted to don the ol' chef's hat for this one. If ya get more ingredients, make sure to bring 'em, back to me."
  8: 0x0113 [0x23] WAIT_FOR_DIALOG_INTERACTION
  9: 0x0114 [0x5B] LOAD_EXT_SCHEDULER: Load scheduler "std0" with entities [EventEntity, EventEntity], work=65*
 10: 0x0123 [0x21] END_EVENT
 11: 0x0124 [0x00] END_REQSTACK()
```

### Event 2863

#### Metadata

| Field        | Value    |
|--------------|----------|
| Entrypoint   | 0x0125   |
| Data Size    | 63 bytes |
| Instructions | 13       |

```
      00 01 02 03 04 05 06 07  08 09 0A 0B 0C 0D 0E 0F
      -- -- -- -- -- -- -- --  -- -- -- -- -- -- -- --
0120:                1E F0 FF  FF 7F 6F 70 5B 00 80 F8       .....op[...
0130: FF FF 7F F8 FF FF 7F 74  6C 6B 30 03 02 10 08 80  .......tlk0.....
0140: 03 03 10 09 80 03 04 10  0A 80 03 05 10 0B 80 1D  ................
0150: 1C 80 23 5B 00 80 F8 FF  FF 7F F8 FF FF 7F 73 74  ..#[..........st
0160: 64 30 21 00                                       d0!.            
```

#### Opcodes

```
  0: 0x0125 [0x1E] EventEntity looks at LocalPlayer and starts talking
  1: 0x012A [0x6F] WAIT_FRAME_DELAY: Yield until WaitTime reaches zero
  2: 0x012B [0x70] WAIT_ENTITY_RENDER_FLAG: Wait while EventEntity->Render.Flags3 bit 2 is set (cancel turn if not)
  3: 0x012C [0x5B] LOAD_EXT_SCHEDULER: Load scheduler "tlk0" with entities [EventEntity, EventEntity], work=65*
  4: 0x013B [0x03] Work_Zone[2] = 5954*
  5: 0x0140 [0x03] Work_Zone[3] = 5949*
  6: 0x0145 [0x03] Work_Zone[4] = 3916*
  7: 0x014A [0x03] Work_Zone[5] = 2*
  8: 0x014F [0x1D] PRINT_EVENT_MESSAGE(message_id=8092*)
    → "$3 $0, $1, and $2. Bring me those, and I'll be able to make ya somethin' special."
  9: 0x0152 [0x23] WAIT_FOR_DIALOG_INTERACTION
 10: 0x0153 [0x5B] LOAD_EXT_SCHEDULER: Load scheduler "std0" with entities [EventEntity, EventEntity], work=65*
 11: 0x0162 [0x21] END_EVENT
 12: 0x0163 [0x00] END_REQSTACK()
```

### Event 5071

#### Metadata

| Field        | Value    |
|--------------|----------|
| Entrypoint   | 0x0164   |
| Data Size    | 48 bytes |
| Instructions | 12       |

```
      00 01 02 03 04 05 06 07  08 09 0A 0B 0C 0D 0E 0F
      -- -- -- -- -- -- -- --  -- -- -- -- -- -- -- --
0160:             42 1E F0 FF  FF 7F 6F 70 5B 00 80 F8      B.....op[...
0170: FF FF 7F F8 FF FF 7F 74  6C 6B 30 1D 1D 80 23 1D  .......tlk0...#.
0180: 1E 80 23 5B 00 80 F8 FF  FF 7F F8 FF FF 7F 73 74  ..#[..........st
0190: 64 30 21 00                                       d0!.            
```

#### Opcodes

```
  0: 0x0164 [0x42] SET_CLI_EVENT_CANCEL_DATA()
  1: 0x0165 [0x1E] EventEntity looks at LocalPlayer and starts talking
  2: 0x016A [0x6F] WAIT_FRAME_DELAY: Yield until WaitTime reaches zero
  3: 0x016B [0x70] WAIT_ENTITY_RENDER_FLAG: Wait while EventEntity->Render.Flags3 bit 2 is set (cancel turn if not)
  4: 0x016C [0x5B] LOAD_EXT_SCHEDULER: Load scheduler "tlk0" with entities [EventEntity, EventEntity], work=65*
  5: 0x017B [0x1D] PRINT_EVENT_MESSAGE(message_id=10342*)
    → "Need somethin'? Oh, you're here from the Mummers' Coalition. Must be about the tab, then."
  6: 0x017E [0x23] WAIT_FOR_DIALOG_INTERACTION
  7: 0x017F [0x1D] PRINT_EVENT_MESSAGE(message_id=10343*)
    → "Pleasure doin' business. You're always welcome here!"
  8: 0x0182 [0x23] WAIT_FOR_DIALOG_INTERACTION
  9: 0x0183 [0x5B] LOAD_EXT_SCHEDULER: Load scheduler "std0" with entities [EventEntity, EventEntity], work=65*
 10: 0x0192 [0x21] END_EVENT
 11: 0x0193 [0x00] END_REQSTACK()
```

### Event 134

#### Metadata

| Field        | Value   |
|--------------|---------|
| Entrypoint   | 0x0194  |
| Data Size    | 1 bytes |
| Instructions | 1       |

```
      00 01 02 03 04 05 06 07  08 09 0A 0B 0C 0D 0E 0F
      -- -- -- -- -- -- -- --  -- -- -- -- -- -- -- --
0190:             00                                        .           
```

#### Opcodes

```
  0: 0x0194 [0x00] END_REQSTACK()
```

### Event 65535.1

#### Metadata

| Field        | Value    |
|--------------|----------|
| Entrypoint   | 0x0195   |
| Data Size    | 42 bytes |
| Instructions | 10       |

```
      00 01 02 03 04 05 06 07  08 09 0A 0B 0C 0D 0E 0F
      -- -- -- -- -- -- -- --  -- -- -- -- -- -- -- --
0190:                1C 1F 80  1E 68 01 10 01 6F 70 32       ....h...op2
01A0: 20 80 1F 00 21 80 22 80  23 80 1F 01 1C 1F 80 5B   ...!.".#......[
01B0: 00 80 F8 FF FF 7F F8 FF  FF 7F 74 6C 6B 30 00     ..........tlk0. 
```

#### Opcodes

```
  0: 0x0195 [0x1C] WAIT(30* ticks)
  1: 0x0198 [0x1E] EventEntity looks at Iscandelle (ID: 17826152/0x01100168) and starts talking
  2: 0x019D [0x6F] WAIT_FRAME_DELAY: Yield until WaitTime reaches zero
  3: 0x019E [0x70] WAIT_ENTITY_RENDER_FLAG: Wait while EventEntity->Render.Flags3 bit 2 is set (cancel turn if not)
  4: 0x019F [0x32] ExtData[1]->MainSpeed = 13* * 0.1
  5: 0x01A2 [0x1F] MOVE_ENTITY: EventEntity moves to X=-32.038*, Z=-99.939*, Y=-0.650*
  6: 0x01AA [0x1F] MOVE_ENTITY: Update entity position (mode=1)
  7: 0x01AC [0x1C] WAIT(30* ticks)
  8: 0x01AF [0x5B] LOAD_EXT_SCHEDULER: Load scheduler "tlk0" with entities [EventEntity, EventEntity], work=65*
  9: 0x01BE [0x00] END_REQSTACK()
```

### Event 65535.2

#### Metadata

| Field        | Value    |
|--------------|----------|
| Entrypoint   | 0x01BF   |
| Data Size    | 68 bytes |
| Instructions | 14       |

```
      00 01 02 03 04 05 06 07  08 09 0A 0B 0C 0D 0E 0F
      -- -- -- -- -- -- -- --  -- -- -- -- -- -- -- --
01B0:                                               1C                 .
01C0: 1F 80 5B 00 80 F8 FF FF  7F F8 FF FF 7F 6A 69 6D  ..[..........jim
01D0: 30 1C 24 80 5B 00 80 F8  FF FF 7F F8 FF FF 7F 73  0.$.[..........s
01E0: 74 64 30 1C 24 80 1E 3B  00 10 01 6F 70 32 20 80  td0.$..;...op2 .
01F0: 1F 00 25 80 26 80 23 80  1F 01 2F 01 F8 FF FF 7F  ..%.&.#.../.....
0200: 22 01 00                                          "..             
```

#### Opcodes

```
  0: 0x01BF [0x1C] WAIT(30* ticks)
  1: 0x01C2 [0x5B] LOAD_EXT_SCHEDULER: Load scheduler "jim0" with entities [EventEntity, EventEntity], work=65*
  2: 0x01D1 [0x1C] WAIT(60* ticks)
  3: 0x01D4 [0x5B] LOAD_EXT_SCHEDULER: Load scheduler "std0" with entities [EventEntity, EventEntity], work=65*
  4: 0x01E3 [0x1C] WAIT(60* ticks)
  5: 0x01E6 [0x1E] EventEntity looks at Task Delegator (ID: 17825851/0x0110003B) and starts talking
  6: 0x01EB [0x6F] WAIT_FRAME_DELAY: Yield until WaitTime reaches zero
  7: 0x01EC [0x70] WAIT_ENTITY_RENDER_FLAG: Wait while EventEntity->Render.Flags3 bit 2 is set (cancel turn if not)
  8: 0x01ED [0x32] ExtData[1]->MainSpeed = 13* * 0.1
  9: 0x01F0 [0x1F] MOVE_ENTITY: EventEntity moves to X=-38.208*, Z=-103.693*, Y=-0.650*
 10: 0x01F8 [0x1F] MOVE_ENTITY: Update entity position (mode=1)
 11: 0x01FA [0x2F] EventEntity->Render.Flags0 |= 0x80000 // Bit 19
 12: 0x0200 [0x22] ENTITY_HIDE_FLAG(enabled=0x01)
 13: 0x0202 [0x00] END_REQSTACK()
```

### Event 191

#### Metadata

| Field        | Value    |
|--------------|----------|
| Entrypoint   | 0x0203   |
| Data Size    | 33 bytes |
| Instructions | 9        |

```
      00 01 02 03 04 05 06 07  08 09 0A 0B 0C 0D 0E 0F
      -- -- -- -- -- -- -- --  -- -- -- -- -- -- -- --
0200:          1E F0 FF FF 7F  1C 1F 80 5B 00 80 F8 FF     ........[....
0210: FF 7F F8 FF FF 7F 74 6C  6B 30 1D 27 80 23 1D 28  ......tlk0.'.#.(
0220: 80 23 21 00                                       .#!.            
```

#### Opcodes

```
  0: 0x0203 [0x1E] EventEntity looks at LocalPlayer and starts talking
  1: 0x0208 [0x1C] WAIT(30* ticks)
  2: 0x020B [0x5B] LOAD_EXT_SCHEDULER: Load scheduler "tlk0" with entities [EventEntity, EventEntity], work=65*
  3: 0x021A [0x1D] PRINT_EVENT_MESSAGE(message_id=9757*)
    → "You should have seen the way the Blackthorn Coven skittered out of town."
  4: 0x021D [0x23] WAIT_FOR_DIALOG_INTERACTION
  5: 0x021E [0x1D] PRINT_EVENT_MESSAGE(message_id=9758*)
    → "An exorcist called "Nashu" came by to ask about them a while ago. His shoulders slumped when he heard the news."
  6: 0x0221 [0x23] WAIT_FOR_DIALOG_INTERACTION
  7: 0x0222 [0x21] END_EVENT
  8: 0x0223 [0x00] END_REQSTACK()
```
