# 17826042 - Volgoi

## Common Data

| Field            | Value                     |
|------------------|---------------------------|
| Zone             | Western Adoulin (ID: 256) |
| Block Size       | 628 bytes                 |
| Total Events     | 15                        |
| References Count | 29                        |

## List of Events

| Event ID                 | Entrypoint   |   Size |   Instructions |
|--------------------------|--------------|--------|----------------|
| [65535](#event-65535)    | 0x0000       |      1 |              1 |
| [501](#event-501)        | 0x0001       |     47 |             11 |
| [579](#event-579)        | 0x0030       |     47 |             11 |
| [2](#event-2)            | 0x005F       |      1 |              1 |
| [65535.1](#event-655351) | 0x0060       |     24 |              3 |
| [65535.2](#event-655352) | 0x0078       |     49 |              5 |
| [65535.3](#event-655353) | 0x00A9       |     37 |              5 |
| [65535.4](#event-655354) | 0x00CE       |     41 |              5 |
| [65535.5](#event-655355) | 0x00F7       |     15 |              5 |
| [65535.6](#event-655356) | 0x0106       |     22 |              6 |
| [65535.7](#event-655357) | 0x011C       |     24 |              3 |
| [151](#event-151)        | 0x0134       |    119 |             26 |
| [159](#event-159)        | 0x01AB       |      7 |              2 |
| [182](#event-182)        | 0x01B2       |      1 |              1 |
| [181](#event-181)        | 0x01B3       |      1 |              1 |

## DAT References (imed_data)

|   Index | Hex Value   |   Dec Value |
|---------|-------------|-------------|
|       0 | 0x0041      |          65 |
|       1 | 0x2620      |        9760 |
|       2 | 0x2621      |        9761 |
|       3 | 0x0008      |           8 |
|       4 | 0x0002      |           2 |
|       5 | 0x0156      |         342 |
|       6 | 0x0140      |         320 |
|       7 | 0x00EF      |         239 |
|       8 | 0x0000      |           0 |
|       9 | 0x0001      |           1 |
|      10 | 0x003C      |          60 |
|      11 | 0x0014      |          20 |
|      12 | 0x000A      |          10 |
|      13 | 0x0028      |          40 |
|      14 | 0x000D      |          13 |
|      15 | 0x721B      |       29211 |
|      16 | 0xFFFF9A01  |  4294941185 |
|      17 | 0x03E8      |        1000 |
|      18 | 0x27100     |      160000 |
|      19 | 0xFFFF7360  |  4294931296 |
|      20 | 0x0FA0      |        4000 |
|      21 | 0x0C00      |        3072 |
|      22 | 0x22F8      |        8952 |
|      23 | 0x22F9      |        8953 |
|      24 | 0x22FA      |        8954 |
|      25 | 0x22FB      |        8955 |
|      26 | 0x22FC      |        8956 |
|      27 | 0x22FD      |        8957 |
|      28 | 0x22FE      |        8958 |

## String References

- **8952**: You've got questions? Yeah, you and everyone else.
- **8953**: Ah, 'bout the princess's younger days? Suppose there's no harm there...
- **8954**: After all, who better to ask than me? I was there when they found her lying in the meadow.
- **8955**: Was she really protected by the animals of the forest? Well...
- **8956**: 'Tis all true, although they weren't animals. Oh no, "animals" is far too generous of a word to describe those...things.
- **8957**: They were vicious monsters, through and through. Yet for some reason they were encircled around Arciela, protectin' her 'sif she was one of their own.
- **8958**: My legs were quiverin' so hard you'd've thought I was a black pudding during an earthquake!
- **9760**: Once you pass through these gates, you'll be treading upon the Ceizak Battlegrounds.
- **9761**: There'll be monsters here, monsters there, monsters monsters everywhere! They'll all be thirsting for blood, too.

## Events

### Event 65535

#### Metadata

| Field        | Value   |
|--------------|---------|
| Entrypoint   | 0x0000  |
| Data Size    | 1 bytes |
| Instructions | 1       |

```
      00 01 02 03 04 05 06 07  08 09 0A 0B 0C 0D 0E 0F
      -- -- -- -- -- -- -- --  -- -- -- -- -- -- -- --
0000: 00                                                .               
```

#### Opcodes

```
  0: 0x0000 [0x00] END_REQSTACK()
```

### Event 501

#### Metadata

| Field        | Value    |
|--------------|----------|
| Entrypoint   | 0x0001   |
| Data Size    | 47 bytes |
| Instructions | 11       |

```
      00 01 02 03 04 05 06 07  08 09 0A 0B 0C 0D 0E 0F
      -- -- -- -- -- -- -- --  -- -- -- -- -- -- -- --
0000:    1E F0 FF FF 7F 6F 70  66 00 80 F8 FF FF 7F F8   .....opf.......
0010: FF FF 7F 74 6C 62 30 1D  01 80 23 1D 02 80 23 66  ...tlb0...#...#f
0020: 00 80 F8 FF FF 7F F8 FF  FF 7F 74 6C 62 31 21 00  ..........tlb1!.
```

#### Opcodes

```
  0: 0x0001 [0x1E] EventEntity looks at LocalPlayer and starts talking
  1: 0x0006 [0x6F] WAIT_FRAME_DELAY: Yield until WaitTime reaches zero
  2: 0x0007 [0x70] WAIT_ENTITY_RENDER_FLAG: Wait while EventEntity->Render.Flags3 bit 2 is set (cancel turn if not)
  3: 0x0008 [0x66] LOAD_EXT_SCHEDULER_MAIN: Load scheduler "tlb0" with entities [EventEntity, EventEntity], work=65*
  4: 0x0017 [0x1D] PRINT_EVENT_MESSAGE(message_id=9760*)
    → "Once you pass through these gates, you'll be treading upon the Ceizak Battlegrounds."
  5: 0x001A [0x23] WAIT_FOR_DIALOG_INTERACTION
  6: 0x001B [0x1D] PRINT_EVENT_MESSAGE(message_id=9761*)
    → "There'll be monsters here, monsters there, monsters monsters everywhere! They'll all be thirsting for blood, too."
  7: 0x001E [0x23] WAIT_FOR_DIALOG_INTERACTION
  8: 0x001F [0x66] LOAD_EXT_SCHEDULER_MAIN: Load scheduler "tlb1" with entities [EventEntity, EventEntity], work=65*
  9: 0x002E [0x21] END_EVENT
 10: 0x002F [0x00] END_REQSTACK()
```

### Event 579

#### Metadata

| Field        | Value    |
|--------------|----------|
| Entrypoint   | 0x0030   |
| Data Size    | 47 bytes |
| Instructions | 11       |

```
      00 01 02 03 04 05 06 07  08 09 0A 0B 0C 0D 0E 0F
      -- -- -- -- -- -- -- --  -- -- -- -- -- -- -- --
0030: 1E F0 FF FF 7F 6F 70 66  00 80 F8 FF FF 7F F8 FF  .....opf........
0040: FF 7F 74 6C 62 30 1D 01  80 23 1D 02 80 23 66 00  ..tlb0...#...#f.
0050: 80 F8 FF FF 7F F8 FF FF  7F 74 6C 62 31 21 00     .........tlb1!. 
```

#### Opcodes

```
  0: 0x0030 [0x1E] EventEntity looks at LocalPlayer and starts talking
  1: 0x0035 [0x6F] WAIT_FRAME_DELAY: Yield until WaitTime reaches zero
  2: 0x0036 [0x70] WAIT_ENTITY_RENDER_FLAG: Wait while EventEntity->Render.Flags3 bit 2 is set (cancel turn if not)
  3: 0x0037 [0x66] LOAD_EXT_SCHEDULER_MAIN: Load scheduler "tlb0" with entities [EventEntity, EventEntity], work=65*
  4: 0x0046 [0x1D] PRINT_EVENT_MESSAGE(message_id=9760*)
    → "Once you pass through these gates, you'll be treading upon the Ceizak Battlegrounds."
  5: 0x0049 [0x23] WAIT_FOR_DIALOG_INTERACTION
  6: 0x004A [0x1D] PRINT_EVENT_MESSAGE(message_id=9761*)
    → "There'll be monsters here, monsters there, monsters monsters everywhere! They'll all be thirsting for blood, too."
  7: 0x004D [0x23] WAIT_FOR_DIALOG_INTERACTION
  8: 0x004E [0x66] LOAD_EXT_SCHEDULER_MAIN: Load scheduler "tlb1" with entities [EventEntity, EventEntity], work=65*
  9: 0x005D [0x21] END_EVENT
 10: 0x005E [0x00] END_REQSTACK()
```

### Event 2

#### Metadata

| Field        | Value   |
|--------------|---------|
| Entrypoint   | 0x005F  |
| Data Size    | 1 bytes |
| Instructions | 1       |

```
      00 01 02 03 04 05 06 07  08 09 0A 0B 0C 0D 0E 0F
      -- -- -- -- -- -- -- --  -- -- -- -- -- -- -- --
0050:                                               00                 .
```

#### Opcodes

```
  0: 0x005F [0x00] END_REQSTACK()
```

### Event 65535.1

#### Metadata

| Field        | Value    |
|--------------|----------|
| Entrypoint   | 0x0060   |
| Data Size    | 24 bytes |
| Instructions | 3        |

```
      00 01 02 03 04 05 06 07  08 09 0A 0B 0C 0D 0E 0F
      -- -- -- -- -- -- -- --  -- -- -- -- -- -- -- --
0060: B6 0B 03 80 04 80 05 80  05 80 06 80 05 80 07 80  ................
0070: 08 80 08 80 C0 09 80 00                           ........        
```

#### Opcodes

```
  0: 0x0060 [0xB6] ENTITY_APPEARANCE_HANDLER(case=Full entity look, race=8*, hair=2*, head=342*, body=342*, hands=320*, legs=342*, feet=239*, main=0*, sub=0*)
  1: 0x0074 [0xC0] EventEntity->Render.Flags3 |= 0x1000 // Set bit 12 (from 1*)
  2: 0x0077 [0x00] END_REQSTACK()
```

### Event 65535.2

#### Metadata

| Field        | Value    |
|--------------|----------|
| Entrypoint   | 0x0078   |
| Data Size    | 49 bytes |
| Instructions | 5        |

```
      00 01 02 03 04 05 06 07  08 09 0A 0B 0C 0D 0E 0F
      -- -- -- -- -- -- -- --  -- -- -- -- -- -- -- --
0070:                          4A FA 00 10 01 30 01 10          J....0..
0080: 01 4A 30 01 10 01 FA 00  10 01 66 0A 80 FA 00 10  .J0.......f.....
0090: 01 FA 00 10 01 74 6C 6B  30 66 0B 80 30 01 10 01  .....tlk0f..0...
00A0: 30 01 10 01 74 6C 6B 30  00                       0...tlk0.       
```

#### Opcodes

```
  0: 0x0078 [0x4A] Volgoi (ID: 17826042/0x011000FA) looks at Aindemont (ID: 17826096/0x01100130)
  1: 0x0081 [0x4A] Aindemont (ID: 17826096/0x01100130) looks at Volgoi (ID: 17826042/0x011000FA)
  2: 0x008A [0x66] LOAD_EXT_SCHEDULER_MAIN: Load scheduler "tlk0" with entities [Volgoi (ID: 17826042/0x011000FA), Volgoi (ID: 17826042/0x011000FA)], work=60*
  3: 0x0099 [0x66] LOAD_EXT_SCHEDULER_MAIN: Load scheduler "tlk0" with entities [Aindemont (ID: 17826096/0x01100130), Aindemont (ID: 17826096/0x01100130)], work=20*
  4: 0x00A8 [0x00] END_REQSTACK()
```

### Event 65535.3

#### Metadata

| Field        | Value    |
|--------------|----------|
| Entrypoint   | 0x00A9   |
| Data Size    | 37 bytes |
| Instructions | 5        |

```
      00 01 02 03 04 05 06 07  08 09 0A 0B 0C 0D 0E 0F
      -- -- -- -- -- -- -- --  -- -- -- -- -- -- -- --
00A0:                             1C 0C 80 66 0B 80 30           ...f..0
00B0: 01 10 01 30 01 10 01 74  6C 6B 31 1C 0D 80 66 0B  ...0...tlk1...f.
00C0: 80 30 01 10 01 30 01 10  01 74 68 6B 31 00        .0...0...thk1.  
```

#### Opcodes

```
  0: 0x00A9 [0x1C] WAIT(10* ticks)
  1: 0x00AC [0x66] LOAD_EXT_SCHEDULER_MAIN: Load scheduler "tlk1" with entities [Aindemont (ID: 17826096/0x01100130), Aindemont (ID: 17826096/0x01100130)], work=20*
  2: 0x00BB [0x1C] WAIT(40* ticks)
  3: 0x00BE [0x66] LOAD_EXT_SCHEDULER_MAIN: Load scheduler "thk1" with entities [Aindemont (ID: 17826096/0x01100130), Aindemont (ID: 17826096/0x01100130)], work=20*
  4: 0x00CD [0x00] END_REQSTACK()
```

### Event 65535.4

#### Metadata

| Field        | Value    |
|--------------|----------|
| Entrypoint   | 0x00CE   |
| Data Size    | 41 bytes |
| Instructions | 5        |

```
      00 01 02 03 04 05 06 07  08 09 0A 0B 0C 0D 0E 0F
      -- -- -- -- -- -- -- --  -- -- -- -- -- -- -- --
00C0:                                            7B FA                {.
00D0: 00 10 01 7B 30 01 10 01  66 0B 80 30 01 10 01 30  ...{0...f..0...0
00E0: 01 10 01 74 68 6B 32 66  0A 80 FA 00 10 01 FA 00  ...thk2f........
00F0: 10 01 74 6C 6B 31 00                              ..tlk1.         
```

#### Opcodes

```
  0: 0x00CE [0x7B] Volgoi (ID: 17826042/0x011000FA) stops talking
  1: 0x00D3 [0x7B] Aindemont (ID: 17826096/0x01100130) stops talking
  2: 0x00D8 [0x66] LOAD_EXT_SCHEDULER_MAIN: Load scheduler "thk2" with entities [Aindemont (ID: 17826096/0x01100130), Aindemont (ID: 17826096/0x01100130)], work=20*
  3: 0x00E7 [0x66] LOAD_EXT_SCHEDULER_MAIN: Load scheduler "tlk1" with entities [Volgoi (ID: 17826042/0x011000FA), Volgoi (ID: 17826042/0x011000FA)], work=60*
  4: 0x00F6 [0x00] END_REQSTACK()
```

### Event 65535.5

#### Metadata

| Field        | Value    |
|--------------|----------|
| Entrypoint   | 0x00F7   |
| Data Size    | 15 bytes |
| Instructions | 5        |

```
      00 01 02 03 04 05 06 07  08 09 0A 0B 0C 0D 0E 0F
      -- -- -- -- -- -- -- --  -- -- -- -- -- -- -- --
00F0:                      32  0E 80 1F 00 0F 80 10 80         2........
0100: 11 80 1F 01 6F 00                                 ....o.          
```

#### Opcodes

```
  0: 0x00F7 [0x32] ExtData[1]->MainSpeed = 13* * 0.1
  1: 0x00FA [0x1F] MOVE_ENTITY: EventEntity moves to X=29.211*, Z=-26.111*, Y=1.000*
  2: 0x0102 [0x1F] MOVE_ENTITY: Update entity position (mode=1)
  3: 0x0104 [0x6F] WAIT_FRAME_DELAY: Yield until WaitTime reaches zero
  4: 0x0105 [0x00] END_REQSTACK()
```

### Event 65535.6

#### Metadata

| Field        | Value    |
|--------------|----------|
| Entrypoint   | 0x0106   |
| Data Size    | 22 bytes |
| Instructions | 6        |

```
      00 01 02 03 04 05 06 07  08 09 0A 0B 0C 0D 0E 0F
      -- -- -- -- -- -- -- --  -- -- -- -- -- -- -- --
0100:                   32 0E  80 1F 00 12 80 13 80 14        2.........
0110: 80 1F 01 6F 4B F8 FF FF  7F 15 80 00              ...oK.......    
```

#### Opcodes

```
  0: 0x0106 [0x32] ExtData[1]->MainSpeed = 13* * 0.1
  1: 0x0109 [0x1F] MOVE_ENTITY: EventEntity moves to X=160.000*, Z=-36.000*, Y=4.000*
  2: 0x0111 [0x1F] MOVE_ENTITY: Update entity position (mode=1)
  3: 0x0113 [0x6F] WAIT_FRAME_DELAY: Yield until WaitTime reaches zero
  4: 0x0114 [0x4B] UPDATE_ENTITY_YAW(entity=EventEntity, yaw=16.9°*)
  5: 0x011B [0x00] END_REQSTACK()
```

### Event 65535.7

#### Metadata

| Field        | Value    |
|--------------|----------|
| Entrypoint   | 0x011C   |
| Data Size    | 24 bytes |
| Instructions | 3        |

```
      00 01 02 03 04 05 06 07  08 09 0A 0B 0C 0D 0E 0F
      -- -- -- -- -- -- -- --  -- -- -- -- -- -- -- --
0110:                                      B6 0B 03 80              ....
0120: 0E 80 05 80 05 80 06 80  05 80 07 80 08 80 08 80  ................
0130: C0 09 80 00                                       ....            
```

#### Opcodes

```
  0: 0x011C [0xB6] ENTITY_APPEARANCE_HANDLER(case=Full entity look, race=8*, hair=13*, head=342*, body=342*, hands=320*, legs=342*, feet=239*, main=0*, sub=0*)
  1: 0x0130 [0xC0] EventEntity->Render.Flags3 |= 0x1000 // Set bit 12 (from 1*)
  2: 0x0133 [0x00] END_REQSTACK()
```

### Event 151

#### Metadata

| Field        | Value     |
|--------------|-----------|
| Entrypoint   | 0x0134    |
| Data Size    | 119 bytes |
| Instructions | 26        |

```
      00 01 02 03 04 05 06 07  08 09 0A 0B 0C 0D 0E 0F
      -- -- -- -- -- -- -- --  -- -- -- -- -- -- -- --
0130:             1E F0 FF FF  7F 6F 70 66 00 80 F8 FF      .....opf....
0140: FF 7F F8 FF FF 7F 74 6C  62 30 1D 16 80 23 66 00  ......tlb0...#f.
0150: 80 F8 FF FF 7F F8 FF FF  7F 74 6C 62 31 1D 17 80  .........tlb1...
0160: 23 66 0A 80 F8 FF FF 7F  F8 FF FF 7F 74 68 6B 31  #f..........thk1
0170: 1D 18 80 23 1D 19 80 23  66 0A 80 F8 FF FF 7F F8  ...#...#f.......
0180: FF FF 7F 74 68 6B 32 66  0A 80 F8 FF FF 7F F8 FF  ...thk2f........
0190: FF 7F 61 6E 67 30 1D 1A  80 23 1D 1B 80 23 5E 69  ..ang0...#...#^i
01A0: 64 6C 30 1D 1C 80 23 20  00 21 00                 dl0...# .!.     
```

#### Opcodes

```
  0: 0x0134 [0x1E] EventEntity looks at LocalPlayer and starts talking
  1: 0x0139 [0x6F] WAIT_FRAME_DELAY: Yield until WaitTime reaches zero
  2: 0x013A [0x70] WAIT_ENTITY_RENDER_FLAG: Wait while EventEntity->Render.Flags3 bit 2 is set (cancel turn if not)
  3: 0x013B [0x66] LOAD_EXT_SCHEDULER_MAIN: Load scheduler "tlb0" with entities [EventEntity, EventEntity], work=65*
  4: 0x014A [0x1D] PRINT_EVENT_MESSAGE(message_id=8952*)
    → "You've got questions? Yeah, you and everyone else."
  5: 0x014D [0x23] WAIT_FOR_DIALOG_INTERACTION
  6: 0x014E [0x66] LOAD_EXT_SCHEDULER_MAIN: Load scheduler "tlb1" with entities [EventEntity, EventEntity], work=65*
  7: 0x015D [0x1D] PRINT_EVENT_MESSAGE(message_id=8953*)
    → "Ah, 'bout the princess's younger days? Suppose there's no harm there..."
  8: 0x0160 [0x23] WAIT_FOR_DIALOG_INTERACTION
  9: 0x0161 [0x66] LOAD_EXT_SCHEDULER_MAIN: Load scheduler "thk1" with entities [EventEntity, EventEntity], work=60*
 10: 0x0170 [0x1D] PRINT_EVENT_MESSAGE(message_id=8954*)
    → "After all, who better to ask than me? I was there when they found her lying in the meadow."
 11: 0x0173 [0x23] WAIT_FOR_DIALOG_INTERACTION
 12: 0x0174 [0x1D] PRINT_EVENT_MESSAGE(message_id=8955*)
    → "Was she really protected by the animals of the forest? Well..."
 13: 0x0177 [0x23] WAIT_FOR_DIALOG_INTERACTION
 14: 0x0178 [0x66] LOAD_EXT_SCHEDULER_MAIN: Load scheduler "thk2" with entities [EventEntity, EventEntity], work=60*
 15: 0x0187 [0x66] LOAD_EXT_SCHEDULER_MAIN: Load scheduler "ang0" with entities [EventEntity, EventEntity], work=60*
 16: 0x0196 [0x1D] PRINT_EVENT_MESSAGE(message_id=8956*)
    → "'Tis all true, although they weren't animals. Oh no, "animals" is far too generous of a word to describe those...things."
 17: 0x0199 [0x23] WAIT_FOR_DIALOG_INTERACTION
 18: 0x019A [0x1D] PRINT_EVENT_MESSAGE(message_id=8957*)
    → "They were vicious monsters, through and through. Yet for some reason they were encircled around Arciela, protectin' her 'sif she was one of their own."
 19: 0x019D [0x23] WAIT_FOR_DIALOG_INTERACTION
 20: 0x019E [0x5E] EventEntity goes idle (kills current action) (animation: "idl0")
 21: 0x01A3 [0x1D] PRINT_EVENT_MESSAGE(message_id=8958*)
    → "My legs were quiverin' so hard you'd've thought I was a black pudding during an earthquake!"
 22: 0x01A6 [0x23] WAIT_FOR_DIALOG_INTERACTION
 23: 0x01A7 [0x20] SET_CLI_EVENT_UC_FLAG: Unlock player control
 24: 0x01A9 [0x21] END_EVENT
 25: 0x01AA [0x00] END_REQSTACK()
```

### Event 159

#### Metadata

| Field        | Value   |
|--------------|---------|
| Entrypoint   | 0x01AB  |
| Data Size    | 7 bytes |
| Instructions | 2       |

```
      00 01 02 03 04 05 06 07  08 09 0A 0B 0C 0D 0E 0F
      -- -- -- -- -- -- -- --  -- -- -- -- -- -- -- --
01A0:                                   92 01 F8 FF FF             .....
01B0: 7F 00                                             ..              
```

#### Opcodes

```
  0: 0x01AB [0x92] EventEntity->Render.Flags3 ^= 0x01
  1: 0x01B1 [0x00] END_REQSTACK()
```

### Event 182

#### Metadata

| Field        | Value   |
|--------------|---------|
| Entrypoint   | 0x01B2  |
| Data Size    | 1 bytes |
| Instructions | 1       |

```
      00 01 02 03 04 05 06 07  08 09 0A 0B 0C 0D 0E 0F
      -- -- -- -- -- -- -- --  -- -- -- -- -- -- -- --
01B0:       00                                            .             
```

#### Opcodes

```
  0: 0x01B2 [0x00] END_REQSTACK()
```

### Event 181

#### Metadata

| Field        | Value   |
|--------------|---------|
| Entrypoint   | 0x01B3  |
| Data Size    | 1 bytes |
| Instructions | 1       |

```
      00 01 02 03 04 05 06 07  08 09 0A 0B 0C 0D 0E 0F
      -- -- -- -- -- -- -- --  -- -- -- -- -- -- -- --
01B0:          00                                          .            
```

#### Opcodes

```
  0: 0x01B3 [0x00] END_REQSTACK()
```
