# 17826080 - Westerly Breeze

## Common Data

| Field            | Value                     |
|------------------|---------------------------|
| Zone             | Western Adoulin (ID: 256) |
| Block Size       | 1432 bytes                |
| Total Events     | 26                        |
| References Count | 62                        |

## List of Events

| Event ID                 | Entrypoint   |   Size |   Instructions |
|--------------------------|--------------|--------|----------------|
| [65535](#event-65535)    | 0x0000       |      1 |              1 |
| [553](#event-553)        | 0x0001       |     47 |             11 |
| [2530](#event-2530)      | 0x0030       |     66 |             20 |
| [2531](#event-2531)      | 0x0072       |     48 |             10 |
| [2532](#event-2532)      | 0x00A2       |     91 |             23 |
| [2533](#event-2533)      | 0x00FD       |     54 |             14 |
| [3005](#event-3005)      | 0x0133       |     66 |             20 |
| [3006](#event-3006)      | 0x0175       |     43 |              9 |
| [3007](#event-3007)      | 0x01A0       |     90 |             24 |
| [3008](#event-3008)      | 0x01FA       |     48 |             12 |
| [3010](#event-3010)      | 0x022A       |     74 |             22 |
| [3011](#event-3011)      | 0x0274       |     43 |              9 |
| [3012](#event-3012)      | 0x029F       |     77 |             19 |
| [3013](#event-3013)      | 0x02EC       |     48 |             12 |
| [3014](#event-3014)      | 0x031C       |     48 |             12 |
| [48](#event-48)          | 0x034C       |      1 |              1 |
| [51](#event-51)          | 0x034D       |      1 |              1 |
| [54](#event-54)          | 0x034E       |      1 |              1 |
| [56](#event-56)          | 0x034F       |      1 |              1 |
| [62](#event-62)          | 0x0350       |      1 |              1 |
| [65](#event-65)          | 0x0351       |      1 |              1 |
| [5064](#event-5064)      | 0x0352       |      1 |              1 |
| [5067](#event-5067)      | 0x0353       |      1 |              1 |
| [5068](#event-5068)      | 0x0354       |    204 |             38 |
| [65535.1](#event-655351) | 0x0420       |      4 |              2 |
| [65535.2](#event-655352) | 0x0424       |      2 |              2 |

## DAT References (imed_data)

|   Index | Hex Value   |   Dec Value |
|---------|-------------|-------------|
|       0 | 0x003C      |          60 |
|       1 | 0x2673      |        9843 |
|       2 | 0x2674      |        9844 |
|       3 | 0x11F0      |        4592 |
|       4 | 0x1EE3      |        7907 |
|       5 | 0x1EE4      |        7908 |
|       6 | 0x1EE5      |        7909 |
|       7 | 0x1EE6      |        7910 |
|       8 | 0x1EE7      |        7911 |
|       9 | 0x1EE8      |        7912 |
|      10 | 0x1EE9      |        7913 |
|      11 | 0x1EEA      |        7914 |
|      12 | 0x1EEB      |        7915 |
|      13 | 0x1EEC      |        7916 |
|      14 | 0x1EED      |        7917 |
|      15 | 0x1EEE      |        7918 |
|      16 | 0x00C9      |         201 |
|      17 | 0x0000      |           0 |
|      18 | 0x1EEF      |        7919 |
|      19 | 0x1EF0      |        7920 |
|      20 | 0x1F4B      |        8011 |
|      21 | 0x1F4C      |        8012 |
|      22 | 0x1F4D      |        8013 |
|      23 | 0x1F4E      |        8014 |
|      24 | 0x1F4F      |        8015 |
|      25 | 0x1F50      |        8016 |
|      26 | 0x11BD      |        4541 |
|      27 | 0x1F51      |        8017 |
|      28 | 0x1F52      |        8018 |
|      29 | 0x1F53      |        8019 |
|      30 | 0x1F54      |        8020 |
|      31 | 0x1F55      |        8021 |
|      32 | 0x1F56      |        8022 |
|      33 | 0x1F57      |        8023 |
|      34 | 0x1F58      |        8024 |
|      35 | 0x1F59      |        8025 |
|      36 | 0x1F5A      |        8026 |
|      37 | 0x1F5B      |        8027 |
|      38 | 0x1F5C      |        8028 |
|      39 | 0x1F5D      |        8029 |
|      40 | 0x1F5E      |        8030 |
|      41 | 0x1F5F      |        8031 |
|      42 | 0x1F60      |        8032 |
|      43 | 0x1F61      |        8033 |
|      44 | 0x1F62      |        8034 |
|      45 | 0x1F63      |        8035 |
|      46 | 0x1F64      |        8036 |
|      47 | 0x1F65      |        8037 |
|      48 | 0x1F68      |        8040 |
|      49 | 0x1F69      |        8041 |
|      50 | 0x1F66      |        8038 |
|      51 | 0x1F67      |        8039 |
|      52 | 0x28BC      |       10428 |
|      53 | 0x0001      |           1 |
|      54 | 0x11B6      |        4534 |
|      55 | 0x28BD      |       10429 |
|      56 | 0x005A      |          90 |
|      57 | 0x28BF      |       10431 |
|      58 | 0x1189      |        4489 |
|      59 | 0x28BE      |       10430 |
|      60 | 0x0096      |         150 |
|      61 | 0x28C0      |       10432 |

## String References

- **7907**: <Sigh> They like to run you ragged at the waterfront warehouse.
- **7908**: How am I supposed to work when they won't let me eat!?
- **7909**: I'm so hungry...but I'm sick of Adoulinian food. It tastes like acuex toxin. I deserve something from the Middle Lands for all my hard work.
- **7910**: Aha! I remember some guy who came back from the Middle Lands was talking about $0!
- **7911**: That's what I want! Can you get it for me? If I can eat it now before it's widely imported, I can say I liked it before it was popular!
- **7912**: Hurry up! I won't be able to move a single step until you bring me $0.
- **7913**: Yeeeeeeeeeeees! You got $0 for me! After all this time, I finally have $0!
- **7914**: <Sniff, sniff>... What a delightful smell... I can already imagine a matronly figure in an apron slaving over a hot batch of it while the warm Quon sun shines through the window!
- **7915**: <Gulp>... This's the tastiest thing that's ever passed my lips!
- **7916**: The flavor's so simple...but it also has a mellow backing. All my anger has completely disappeared... I love my job!
- **7917**: This single bowl of soup has given me a zest for life! It's even made me nostalgic for Adoulinian food!
- **7918**: Speaking of which...if you want a good Ulbukan restaurant, head out of Platea Triumphus towards Big Bridge. I heartily recommend it.
- **7919**: Hey, this isn't $0 at all... No use letting good food go to waste, though.
- **7920**: This isn't half bad! But bring me $0 next time, okay?
- **8011**: Thanks for that $0 earlier.
- **8012**: Phew, my throat sure is dry, though...
- **8013**: Hey, hey, hey! Don't be like that! We're the bestest of all friends for eternity, remember?
- **8014**: And since you're such a good friend, I know you'll want to surprise me. Get me a drink made from something that'll knock my tunic off!
- **8015**: I can't wait to get my liquid gift. You're such a good friend, <Player>.
- **8016**: Hey, I thought you were going to surprise me with a drink. I'm going to shrivel into a skeleton if you don't hurry up!
- **8017**: Yeeeeeeeees! Such an...<gulp>...intense aroma... So this is the fabled $0...
- **8018**: If this is made by Goblins...I best prepare my stomach...
- **8019**: Ew...it smells like raw fish! But...I asked for it...so here goes nothing!
- **8020**: <Glug>...<gluk>...<gulp>... Bleeeeeech, it tastes like bilge water! Get it away from me!
- **8021**: My tongue's coated in it. Yuck, I feel it crawling down my throat! Oh no, I can even smell it when I open my mouth!
- **8022**: Haaah...haaah...haaah... I don't think you want to drink that. Instead, try the caf<Player>i across Big Bridge in one of Eastern Adoulin's plazas.
- **8023**: It's too hoity-toity for my tastes, but I just may have to go there anyway... I need to cleanse my palate.
- **8024**: This isn't much of a surprise. It's so...normal.
- **8025**: Hey, this is kind of tasty! Too bad it's not what I'm looking for. You'll need to bring me something else, buddy.
- **8026**: We've shared so many memories together, haven't we? Like the time you gave me that $0. I had to curl up on the ground for hours before I stopped feeling sick.
- **8027**: But anyway... The little chocobo who told me about $0 recently chirped to me about a pink beverage.
- **8028**: Apparently the liquid inside is heretical or something, and bizarre stuff happens to your body when you drink it!
- **8029**: I've gotta have one! I must experience its effects firsthand!
- **8030**: Ha, nice try. That face won't work on me. I've seen it too many times already.
- **8031**: Make sure it's the pink one that's sparkling. Sparkling and pink, okay? Okay!
- **8032**: If you don't get me that sparkling pink drink, I'm gonna go tear you limb from limb like a Velkk marauder, buddy.
- **8033**: Yeeeeeeeees! It's pink...it's sparkly...it's <gulp> exactly what I asked for!
- **8034**: <Glug>...hm? ...It goes down smoother than pugil roe! Oh, and there's the slightest bite to it that brings out its sweetness. I love it!
- **8035**: Ack! By the founder king, the pain consumes my soul! Altana, forgive me my trespasses...!
- **8036**: So the rumors were true! It is cursed! ...<Player>, when will my body stop shaking?
- **8037**: Maybe getting back to work will make me forget how disgusting I feel...
- **8038**: This isn't very pink and doesn't sparkle...but oh well.
- **8039**: Not bad! Next time, bring me a sparkling pink one, friend of friends. And make it snappy!
- **8040**: Hey, this is the same drink from before! Fool me once, shame on me. Fool me twice...well, you're not gonna fool me twice!
- **8041**: I want the one that's pink and sparkling! Pink and shiny, I say!
- **9843**: There's a good reason Velkk are known as the Eventide Savages. They've been trying to raze our sacred city for as long as I remember!
- **9844**: I don't care what that old tome in the library says! This is our city now, and the Velkk can't have it back!
- **10428**: Yes? Oh? Is this for me?
- **10429**: How'd you ever know that I was craving $0?
- **10430**: Ahhh... Yes, that hits the spot!
- **10431**: Aaall right! I feel ready to take on anything that comes my way!
- **10432**: You're a real pal! C'mon--a little something for your trouble.

## Events

### Event 65535

#### Metadata

| Field        | Value   |
|--------------|---------|
| Entrypoint   | 0x0000  |
| Data Size    | 1 bytes |
| Instructions | 1       |

```
      00 01 02 03 04 05 06 07  08 09 0A 0B 0C 0D 0E 0F
      -- -- -- -- -- -- -- --  -- -- -- -- -- -- -- --
0000: 00                                                .               
```

#### Opcodes

```
  0: 0x0000 [0x00] END_REQSTACK()
```

### Event 553

#### Metadata

| Field        | Value    |
|--------------|----------|
| Entrypoint   | 0x0001   |
| Data Size    | 47 bytes |
| Instructions | 11       |

```
      00 01 02 03 04 05 06 07  08 09 0A 0B 0C 0D 0E 0F
      -- -- -- -- -- -- -- --  -- -- -- -- -- -- -- --
0000:    1E F0 FF FF 7F 6F 70  66 00 80 F8 FF FF 7F F8   .....opf.......
0010: FF FF 7F 74 61 6C 6B 1D  01 80 23 1D 02 80 23 66  ...talk...#...#f
0020: 00 80 F8 FF FF 7F F8 FF  FF 7F 74 6C 6B 31 21 00  ..........tlk1!.
```

#### Opcodes

```
  0: 0x0001 [0x1E] EventEntity looks at LocalPlayer and starts talking
  1: 0x0006 [0x6F] WAIT_FRAME_DELAY: Yield until WaitTime reaches zero
  2: 0x0007 [0x70] WAIT_ENTITY_RENDER_FLAG: Wait while EventEntity->Render.Flags3 bit 2 is set (cancel turn if not)
  3: 0x0008 [0x66] LOAD_EXT_SCHEDULER_MAIN: Load scheduler "talk" with entities [EventEntity, EventEntity], work=60*
  4: 0x0017 [0x1D] PRINT_EVENT_MESSAGE(message_id=9843*)
    → "There's a good reason Velkk are known as the Eventide Savages. They've been trying to raze our sacred city for as long as I remember!"
  5: 0x001A [0x23] WAIT_FOR_DIALOG_INTERACTION
  6: 0x001B [0x1D] PRINT_EVENT_MESSAGE(message_id=9844*)
    → "I don't care what that old tome in the library says! This is our city now, and the Velkk can't have it back!"
  7: 0x001E [0x23] WAIT_FOR_DIALOG_INTERACTION
  8: 0x001F [0x66] LOAD_EXT_SCHEDULER_MAIN: Load scheduler "tlk1" with entities [EventEntity, EventEntity], work=60*
  9: 0x002E [0x21] END_EVENT
 10: 0x002F [0x00] END_REQSTACK()
```

### Event 2530

#### Metadata

| Field        | Value    |
|--------------|----------|
| Entrypoint   | 0x0030   |
| Data Size    | 66 bytes |
| Instructions | 20       |

```
      00 01 02 03 04 05 06 07  08 09 0A 0B 0C 0D 0E 0F
      -- -- -- -- -- -- -- --  -- -- -- -- -- -- -- --
0030: 1E F0 FF FF 7F 42 6F 70  66 00 80 F8 FF FF 7F F8  .....Bopf.......
0040: FF FF 7F 74 61 6C 6B 03  02 10 03 80 1D 04 80 23  ...talk........#
0050: 1D 05 80 23 1D 06 80 23  1D 07 80 23 1D 08 80 23  ...#...#...#...#
0060: 66 00 80 F8 FF FF 7F F8  FF FF 7F 74 6C 6B 31 2E  f..........tlk1.
0070: 21 00                                             !.              
```

#### Opcodes

```
  0: 0x0030 [0x1E] EventEntity looks at LocalPlayer and starts talking
  1: 0x0035 [0x42] SET_CLI_EVENT_CANCEL_DATA()
  2: 0x0036 [0x6F] WAIT_FRAME_DELAY: Yield until WaitTime reaches zero
  3: 0x0037 [0x70] WAIT_ENTITY_RENDER_FLAG: Wait while EventEntity->Render.Flags3 bit 2 is set (cancel turn if not)
  4: 0x0038 [0x66] LOAD_EXT_SCHEDULER_MAIN: Load scheduler "talk" with entities [EventEntity, EventEntity], work=60*
  5: 0x0047 [0x03] Work_Zone[2] = 4592*
  6: 0x004C [0x1D] PRINT_EVENT_MESSAGE(message_id=7907*)
    → "<Sigh> They like to run you ragged at the waterfront warehouse."
  7: 0x004F [0x23] WAIT_FOR_DIALOG_INTERACTION
  8: 0x0050 [0x1D] PRINT_EVENT_MESSAGE(message_id=7908*)
    → "How am I supposed to work when they won't let me eat!?"
  9: 0x0053 [0x23] WAIT_FOR_DIALOG_INTERACTION
 10: 0x0054 [0x1D] PRINT_EVENT_MESSAGE(message_id=7909*)
    → "I'm so hungry...but I'm sick of Adoulinian food. It tastes like acuex toxin. I deserve something from the Middle Lands for all my hard work."
 11: 0x0057 [0x23] WAIT_FOR_DIALOG_INTERACTION
 12: 0x0058 [0x1D] PRINT_EVENT_MESSAGE(message_id=7910*)
    → "Aha! I remember some guy who came back from the Middle Lands was talking about $0!"
 13: 0x005B [0x23] WAIT_FOR_DIALOG_INTERACTION
 14: 0x005C [0x1D] PRINT_EVENT_MESSAGE(message_id=7911*)
    → "That's what I want! Can you get it for me? If I can eat it now before it's widely imported, I can say I liked it before it was popular!"
 15: 0x005F [0x23] WAIT_FOR_DIALOG_INTERACTION
 16: 0x0060 [0x66] LOAD_EXT_SCHEDULER_MAIN: Load scheduler "tlk1" with entities [EventEntity, EventEntity], work=60*
 17: 0x006F [0x2E] SET_CLI_EVENT_CANCEL_FLAGS()
 18: 0x0070 [0x21] END_EVENT
 19: 0x0071 [0x00] END_REQSTACK()
```

### Event 2531

#### Metadata

| Field        | Value    |
|--------------|----------|
| Entrypoint   | 0x0072   |
| Data Size    | 48 bytes |
| Instructions | 10       |

```
      00 01 02 03 04 05 06 07  08 09 0A 0B 0C 0D 0E 0F
      -- -- -- -- -- -- -- --  -- -- -- -- -- -- -- --
0070:       1E F0 FF FF 7F 6F  70 66 00 80 F8 FF FF 7F    .....opf......
0080: F8 FF FF 7F 74 61 6C 6B  03 02 10 03 80 1D 09 80  ....talk........
0090: 23 66 00 80 F8 FF FF 7F  F8 FF FF 7F 74 6C 6B 31  #f..........tlk1
00A0: 21 00                                             !.              
```

#### Opcodes

```
  0: 0x0072 [0x1E] EventEntity looks at LocalPlayer and starts talking
  1: 0x0077 [0x6F] WAIT_FRAME_DELAY: Yield until WaitTime reaches zero
  2: 0x0078 [0x70] WAIT_ENTITY_RENDER_FLAG: Wait while EventEntity->Render.Flags3 bit 2 is set (cancel turn if not)
  3: 0x0079 [0x66] LOAD_EXT_SCHEDULER_MAIN: Load scheduler "talk" with entities [EventEntity, EventEntity], work=60*
  4: 0x0088 [0x03] Work_Zone[2] = 4592*
  5: 0x008D [0x1D] PRINT_EVENT_MESSAGE(message_id=7912*)
    → "Hurry up! I won't be able to move a single step until you bring me $0."
  6: 0x0090 [0x23] WAIT_FOR_DIALOG_INTERACTION
  7: 0x0091 [0x66] LOAD_EXT_SCHEDULER_MAIN: Load scheduler "tlk1" with entities [EventEntity, EventEntity], work=60*
  8: 0x00A0 [0x21] END_EVENT
  9: 0x00A1 [0x00] END_REQSTACK()
```

### Event 2532

#### Metadata

| Field        | Value    |
|--------------|----------|
| Entrypoint   | 0x00A2   |
| Data Size    | 91 bytes |
| Instructions | 23       |

```
      00 01 02 03 04 05 06 07  08 09 0A 0B 0C 0D 0E 0F
      -- -- -- -- -- -- -- --  -- -- -- -- -- -- -- --
00A0:       42 1E F0 FF FF 7F  6F 70 66 00 80 F8 FF FF    B.....opf.....
00B0: 7F F8 FF FF 7F 74 61 6C  6B 03 02 10 03 80 1D 0A  .....talk.......
00C0: 80 23 1D 0B 80 23 1D 0C  80 23 1D 0D 80 23 03 02  .#...#...#...#..
00D0: 10 03 80 1D 0E 80 23 1D  0F 80 23 45 10 80 F8 FF  ......#...#E....
00E0: FF 7F F8 FF FF 7F 71 73  74 63 11 80 66 00 80 F8  ......qstc..f...
00F0: FF FF 7F F8 FF FF 7F 74  6C 6B 31 21 00           .......tlk1!.   
```

#### Opcodes

```
  0: 0x00A2 [0x42] SET_CLI_EVENT_CANCEL_DATA()
  1: 0x00A3 [0x1E] EventEntity looks at LocalPlayer and starts talking
  2: 0x00A8 [0x6F] WAIT_FRAME_DELAY: Yield until WaitTime reaches zero
  3: 0x00A9 [0x70] WAIT_ENTITY_RENDER_FLAG: Wait while EventEntity->Render.Flags3 bit 2 is set (cancel turn if not)
  4: 0x00AA [0x66] LOAD_EXT_SCHEDULER_MAIN: Load scheduler "talk" with entities [EventEntity, EventEntity], work=60*
  5: 0x00B9 [0x03] Work_Zone[2] = 4592*
  6: 0x00BE [0x1D] PRINT_EVENT_MESSAGE(message_id=7913*)
    → "Yeeeeeeeeeeees! You got $0 for me! After all this time, I finally have $0!"
  7: 0x00C1 [0x23] WAIT_FOR_DIALOG_INTERACTION
  8: 0x00C2 [0x1D] PRINT_EVENT_MESSAGE(message_id=7914*)
    → "<Sniff, sniff>... What a delightful smell... I can already imagine a matronly figure in an apron slaving over a hot batch of it while the warm Quon sun shines through the window!"
  9: 0x00C5 [0x23] WAIT_FOR_DIALOG_INTERACTION
 10: 0x00C6 [0x1D] PRINT_EVENT_MESSAGE(message_id=7915*)
    → "<Gulp>... This's the tastiest thing that's ever passed my lips!"
 11: 0x00C9 [0x23] WAIT_FOR_DIALOG_INTERACTION
 12: 0x00CA [0x1D] PRINT_EVENT_MESSAGE(message_id=7916*)
    → "The flavor's so simple...but it also has a mellow backing. All my anger has completely disappeared... I love my job!"
 13: 0x00CD [0x23] WAIT_FOR_DIALOG_INTERACTION
 14: 0x00CE [0x03] Work_Zone[2] = 4592*
 15: 0x00D3 [0x1D] PRINT_EVENT_MESSAGE(message_id=7917*)
    → "This single bowl of soup has given me a zest for life! It's even made me nostalgic for Adoulinian food!"
 16: 0x00D6 [0x23] WAIT_FOR_DIALOG_INTERACTION
 17: 0x00D7 [0x1D] PRINT_EVENT_MESSAGE(message_id=7918*)
    → "Speaking of which...if you want a good Ulbukan restaurant, head out of Platea Triumphus towards Big Bridge. I heartily recommend it."
 18: 0x00DA [0x23] WAIT_FOR_DIALOG_INTERACTION
 19: 0x00DB [0x45] LOAD_SCHEDULED_TASK: Load scheduler "qstc" with entities [EventEntity, EventEntity], work=[201*, 0*]
 20: 0x00EC [0x66] LOAD_EXT_SCHEDULER_MAIN: Load scheduler "tlk1" with entities [EventEntity, EventEntity], work=60*
 21: 0x00FB [0x21] END_EVENT
 22: 0x00FC [0x00] END_REQSTACK()
```

### Event 2533

#### Metadata

| Field        | Value    |
|--------------|----------|
| Entrypoint   | 0x00FD   |
| Data Size    | 54 bytes |
| Instructions | 14       |

```
      00 01 02 03 04 05 06 07  08 09 0A 0B 0C 0D 0E 0F
      -- -- -- -- -- -- -- --  -- -- -- -- -- -- -- --
00F0:                                         1E F0 FF               ...
0100: FF 7F 42 6F 70 66 00 80  F8 FF FF 7F F8 FF FF 7F  ..Bopf..........
0110: 74 61 6C 6B 03 02 10 03  80 1D 12 80 23 1D 13 80  talk........#...
0120: 23 66 00 80 F8 FF FF 7F  F8 FF FF 7F 74 6C 6B 31  #f..........tlk1
0130: 2E 21 00                                          .!.             
```

#### Opcodes

```
  0: 0x00FD [0x1E] EventEntity looks at LocalPlayer and starts talking
  1: 0x0102 [0x42] SET_CLI_EVENT_CANCEL_DATA()
  2: 0x0103 [0x6F] WAIT_FRAME_DELAY: Yield until WaitTime reaches zero
  3: 0x0104 [0x70] WAIT_ENTITY_RENDER_FLAG: Wait while EventEntity->Render.Flags3 bit 2 is set (cancel turn if not)
  4: 0x0105 [0x66] LOAD_EXT_SCHEDULER_MAIN: Load scheduler "talk" with entities [EventEntity, EventEntity], work=60*
  5: 0x0114 [0x03] Work_Zone[2] = 4592*
  6: 0x0119 [0x1D] PRINT_EVENT_MESSAGE(message_id=7919*)
    → "Hey, this isn't $0 at all... No use letting good food go to waste, though."
  7: 0x011C [0x23] WAIT_FOR_DIALOG_INTERACTION
  8: 0x011D [0x1D] PRINT_EVENT_MESSAGE(message_id=7920*)
    → "This isn't half bad! But bring me $0 next time, okay?"
  9: 0x0120 [0x23] WAIT_FOR_DIALOG_INTERACTION
 10: 0x0121 [0x66] LOAD_EXT_SCHEDULER_MAIN: Load scheduler "tlk1" with entities [EventEntity, EventEntity], work=60*
 11: 0x0130 [0x2E] SET_CLI_EVENT_CANCEL_FLAGS()
 12: 0x0131 [0x21] END_EVENT
 13: 0x0132 [0x00] END_REQSTACK()
```

### Event 3005

#### Metadata

| Field        | Value    |
|--------------|----------|
| Entrypoint   | 0x0133   |
| Data Size    | 66 bytes |
| Instructions | 20       |

```
      00 01 02 03 04 05 06 07  08 09 0A 0B 0C 0D 0E 0F
      -- -- -- -- -- -- -- --  -- -- -- -- -- -- -- --
0130:          1E F0 FF FF 7F  42 6F 70 66 00 80 F8 FF     .....Bopf....
0140: FF 7F F8 FF FF 7F 74 61  6C 6B 03 02 10 03 80 1D  ......talk......
0150: 14 80 23 1D 15 80 23 1D  16 80 23 1D 17 80 23 1D  ..#...#...#...#.
0160: 18 80 23 66 00 80 F8 FF  FF 7F F8 FF FF 7F 74 6C  ..#f..........tl
0170: 6B 31 2E 21 00                                    k1.!.           
```

#### Opcodes

```
  0: 0x0133 [0x1E] EventEntity looks at LocalPlayer and starts talking
  1: 0x0138 [0x42] SET_CLI_EVENT_CANCEL_DATA()
  2: 0x0139 [0x6F] WAIT_FRAME_DELAY: Yield until WaitTime reaches zero
  3: 0x013A [0x70] WAIT_ENTITY_RENDER_FLAG: Wait while EventEntity->Render.Flags3 bit 2 is set (cancel turn if not)
  4: 0x013B [0x66] LOAD_EXT_SCHEDULER_MAIN: Load scheduler "talk" with entities [EventEntity, EventEntity], work=60*
  5: 0x014A [0x03] Work_Zone[2] = 4592*
  6: 0x014F [0x1D] PRINT_EVENT_MESSAGE(message_id=8011*)
    → "Thanks for that $0 earlier."
  7: 0x0152 [0x23] WAIT_FOR_DIALOG_INTERACTION
  8: 0x0153 [0x1D] PRINT_EVENT_MESSAGE(message_id=8012*)
    → "Phew, my throat sure is dry, though..."
  9: 0x0156 [0x23] WAIT_FOR_DIALOG_INTERACTION
 10: 0x0157 [0x1D] PRINT_EVENT_MESSAGE(message_id=8013*)
    → "Hey, hey, hey! Don't be like that! We're the bestest of all friends for eternity, remember?"
 11: 0x015A [0x23] WAIT_FOR_DIALOG_INTERACTION
 12: 0x015B [0x1D] PRINT_EVENT_MESSAGE(message_id=8014*)
    → "And since you're such a good friend, I know you'll want to surprise me. Get me a drink made from something that'll knock my tunic off!"
 13: 0x015E [0x23] WAIT_FOR_DIALOG_INTERACTION
 14: 0x015F [0x1D] PRINT_EVENT_MESSAGE(message_id=8015*)
    → "I can't wait to get my liquid gift. You're such a good friend, <Player>."
 15: 0x0162 [0x23] WAIT_FOR_DIALOG_INTERACTION
 16: 0x0163 [0x66] LOAD_EXT_SCHEDULER_MAIN: Load scheduler "tlk1" with entities [EventEntity, EventEntity], work=60*
 17: 0x0172 [0x2E] SET_CLI_EVENT_CANCEL_FLAGS()
 18: 0x0173 [0x21] END_EVENT
 19: 0x0174 [0x00] END_REQSTACK()
```

### Event 3006

#### Metadata

| Field        | Value    |
|--------------|----------|
| Entrypoint   | 0x0175   |
| Data Size    | 43 bytes |
| Instructions | 9        |

```
      00 01 02 03 04 05 06 07  08 09 0A 0B 0C 0D 0E 0F
      -- -- -- -- -- -- -- --  -- -- -- -- -- -- -- --
0170:                1E F0 FF  FF 7F 6F 70 66 00 80 F8       .....opf...
0180: FF FF 7F F8 FF FF 7F 74  61 6C 6B 1D 19 80 23 66  .......talk...#f
0190: 00 80 F8 FF FF 7F F8 FF  FF 7F 74 6C 6B 31 21 00  ..........tlk1!.
```

#### Opcodes

```
  0: 0x0175 [0x1E] EventEntity looks at LocalPlayer and starts talking
  1: 0x017A [0x6F] WAIT_FRAME_DELAY: Yield until WaitTime reaches zero
  2: 0x017B [0x70] WAIT_ENTITY_RENDER_FLAG: Wait while EventEntity->Render.Flags3 bit 2 is set (cancel turn if not)
  3: 0x017C [0x66] LOAD_EXT_SCHEDULER_MAIN: Load scheduler "talk" with entities [EventEntity, EventEntity], work=60*
  4: 0x018B [0x1D] PRINT_EVENT_MESSAGE(message_id=8016*)
    → "Hey, I thought you were going to surprise me with a drink. I'm going to shrivel into a skeleton if you don't hurry up!"
  5: 0x018E [0x23] WAIT_FOR_DIALOG_INTERACTION
  6: 0x018F [0x66] LOAD_EXT_SCHEDULER_MAIN: Load scheduler "tlk1" with entities [EventEntity, EventEntity], work=60*
  7: 0x019E [0x21] END_EVENT
  8: 0x019F [0x00] END_REQSTACK()
```

### Event 3007

#### Metadata

| Field        | Value    |
|--------------|----------|
| Entrypoint   | 0x01A0   |
| Data Size    | 90 bytes |
| Instructions | 24       |

```
      00 01 02 03 04 05 06 07  08 09 0A 0B 0C 0D 0E 0F
      -- -- -- -- -- -- -- --  -- -- -- -- -- -- -- --
01A0: 42 1E F0 FF FF 7F 6F 70  66 00 80 F8 FF FF 7F F8  B.....opf.......
01B0: FF FF 7F 74 61 6C 6B 03  02 10 1A 80 1D 1B 80 23  ...talk........#
01C0: 1D 1C 80 23 1D 1D 80 23  1D 1E 80 23 1D 1F 80 23  ...#...#...#...#
01D0: 1D 20 80 23 1D 21 80 23  45 10 80 F8 FF FF 7F F8  . .#.!.#E.......
01E0: FF FF 7F 71 73 74 63 11  80 66 00 80 F8 FF FF 7F  ...qstc..f......
01F0: F8 FF FF 7F 74 6C 6B 31  21 00                    ....tlk1!.      
```

#### Opcodes

```
  0: 0x01A0 [0x42] SET_CLI_EVENT_CANCEL_DATA()
  1: 0x01A1 [0x1E] EventEntity looks at LocalPlayer and starts talking
  2: 0x01A6 [0x6F] WAIT_FRAME_DELAY: Yield until WaitTime reaches zero
  3: 0x01A7 [0x70] WAIT_ENTITY_RENDER_FLAG: Wait while EventEntity->Render.Flags3 bit 2 is set (cancel turn if not)
  4: 0x01A8 [0x66] LOAD_EXT_SCHEDULER_MAIN: Load scheduler "talk" with entities [EventEntity, EventEntity], work=60*
  5: 0x01B7 [0x03] Work_Zone[2] = 4541*
  6: 0x01BC [0x1D] PRINT_EVENT_MESSAGE(message_id=8017*)
    → "Yeeeeeeeees! Such an...<gulp>...intense aroma... So this is the fabled $0..."
  7: 0x01BF [0x23] WAIT_FOR_DIALOG_INTERACTION
  8: 0x01C0 [0x1D] PRINT_EVENT_MESSAGE(message_id=8018*)
    → "If this is made by Goblins...I best prepare my stomach..."
  9: 0x01C3 [0x23] WAIT_FOR_DIALOG_INTERACTION
 10: 0x01C4 [0x1D] PRINT_EVENT_MESSAGE(message_id=8019*)
    → "Ew...it smells like raw fish! But...I asked for it...so here goes nothing!"
 11: 0x01C7 [0x23] WAIT_FOR_DIALOG_INTERACTION
 12: 0x01C8 [0x1D] PRINT_EVENT_MESSAGE(message_id=8020*)
    → "<Glug>...<gluk>...<gulp>... Bleeeeeech, it tastes like bilge water! Get it away from me!"
 13: 0x01CB [0x23] WAIT_FOR_DIALOG_INTERACTION
 14: 0x01CC [0x1D] PRINT_EVENT_MESSAGE(message_id=8021*)
    → "My tongue's coated in it. Yuck, I feel it crawling down my throat! Oh no, I can even smell it when I open my mouth!"
 15: 0x01CF [0x23] WAIT_FOR_DIALOG_INTERACTION
 16: 0x01D0 [0x1D] PRINT_EVENT_MESSAGE(message_id=8022*)
    → "Haaah...haaah...haaah... I don't think you want to drink that. Instead, try the caf<Player>i across Big Bridge in one of Eastern Adoulin's plazas."
 17: 0x01D3 [0x23] WAIT_FOR_DIALOG_INTERACTION
 18: 0x01D4 [0x1D] PRINT_EVENT_MESSAGE(message_id=8023*)
    → "It's too hoity-toity for my tastes, but I just may have to go there anyway... I need to cleanse my palate."
 19: 0x01D7 [0x23] WAIT_FOR_DIALOG_INTERACTION
 20: 0x01D8 [0x45] LOAD_SCHEDULED_TASK: Load scheduler "qstc" with entities [EventEntity, EventEntity], work=[201*, 0*]
 21: 0x01E9 [0x66] LOAD_EXT_SCHEDULER_MAIN: Load scheduler "tlk1" with entities [EventEntity, EventEntity], work=60*
 22: 0x01F8 [0x21] END_EVENT
 23: 0x01F9 [0x00] END_REQSTACK()
```

### Event 3008

#### Metadata

| Field        | Value    |
|--------------|----------|
| Entrypoint   | 0x01FA   |
| Data Size    | 48 bytes |
| Instructions | 12       |

```
      00 01 02 03 04 05 06 07  08 09 0A 0B 0C 0D 0E 0F
      -- -- -- -- -- -- -- --  -- -- -- -- -- -- -- --
01F0:                                1E F0 FF FF 7F 42            .....B
0200: 6F 70 66 00 80 F8 FF FF  7F F8 FF FF 7F 74 61 6C  opf..........tal
0210: 6B 1D 22 80 23 1D 23 80  23 66 00 80 F8 FF FF 7F  k.".#.#.#f......
0220: F8 FF FF 7F 74 6C 6B 31  21 00                    ....tlk1!.      
```

#### Opcodes

```
  0: 0x01FA [0x1E] EventEntity looks at LocalPlayer and starts talking
  1: 0x01FF [0x42] SET_CLI_EVENT_CANCEL_DATA()
  2: 0x0200 [0x6F] WAIT_FRAME_DELAY: Yield until WaitTime reaches zero
  3: 0x0201 [0x70] WAIT_ENTITY_RENDER_FLAG: Wait while EventEntity->Render.Flags3 bit 2 is set (cancel turn if not)
  4: 0x0202 [0x66] LOAD_EXT_SCHEDULER_MAIN: Load scheduler "talk" with entities [EventEntity, EventEntity], work=60*
  5: 0x0211 [0x1D] PRINT_EVENT_MESSAGE(message_id=8024*)
    → "This isn't much of a surprise. It's so...normal."
  6: 0x0214 [0x23] WAIT_FOR_DIALOG_INTERACTION
  7: 0x0215 [0x1D] PRINT_EVENT_MESSAGE(message_id=8025*)
    → "Hey, this is kind of tasty! Too bad it's not what I'm looking for. You'll need to bring me something else, buddy."
  8: 0x0218 [0x23] WAIT_FOR_DIALOG_INTERACTION
  9: 0x0219 [0x66] LOAD_EXT_SCHEDULER_MAIN: Load scheduler "tlk1" with entities [EventEntity, EventEntity], work=60*
 10: 0x0228 [0x21] END_EVENT
 11: 0x0229 [0x00] END_REQSTACK()
```

### Event 3010

#### Metadata

| Field        | Value    |
|--------------|----------|
| Entrypoint   | 0x022A   |
| Data Size    | 74 bytes |
| Instructions | 22       |

```
      00 01 02 03 04 05 06 07  08 09 0A 0B 0C 0D 0E 0F
      -- -- -- -- -- -- -- --  -- -- -- -- -- -- -- --
0220:                                1E F0 FF FF 7F 42            .....B
0230: 6F 70 66 00 80 F8 FF FF  7F F8 FF FF 7F 74 61 6C  opf..........tal
0240: 6B 03 02 10 1A 80 1D 24  80 23 03 02 10 03 80 1D  k......$.#......
0250: 25 80 23 1D 26 80 23 1D  27 80 23 1D 28 80 23 1D  %.#.&.#.'.#.(.#.
0260: 29 80 23 66 00 80 F8 FF  FF 7F F8 FF FF 7F 74 6C  ).#f..........tl
0270: 6B 31 21 00                                       k1!.            
```

#### Opcodes

```
  0: 0x022A [0x1E] EventEntity looks at LocalPlayer and starts talking
  1: 0x022F [0x42] SET_CLI_EVENT_CANCEL_DATA()
  2: 0x0230 [0x6F] WAIT_FRAME_DELAY: Yield until WaitTime reaches zero
  3: 0x0231 [0x70] WAIT_ENTITY_RENDER_FLAG: Wait while EventEntity->Render.Flags3 bit 2 is set (cancel turn if not)
  4: 0x0232 [0x66] LOAD_EXT_SCHEDULER_MAIN: Load scheduler "talk" with entities [EventEntity, EventEntity], work=60*
  5: 0x0241 [0x03] Work_Zone[2] = 4541*
  6: 0x0246 [0x1D] PRINT_EVENT_MESSAGE(message_id=8026*)
    → "We've shared so many memories together, haven't we? Like the time you gave me that $0. I had to curl up on the ground for hours before I stopped feeling sick."
  7: 0x0249 [0x23] WAIT_FOR_DIALOG_INTERACTION
  8: 0x024A [0x03] Work_Zone[2] = 4592*
  9: 0x024F [0x1D] PRINT_EVENT_MESSAGE(message_id=8027*)
    → "But anyway... The little chocobo who told me about $0 recently chirped to me about a pink beverage."
 10: 0x0252 [0x23] WAIT_FOR_DIALOG_INTERACTION
 11: 0x0253 [0x1D] PRINT_EVENT_MESSAGE(message_id=8028*)
    → "Apparently the liquid inside is heretical or something, and bizarre stuff happens to your body when you drink it!"
 12: 0x0256 [0x23] WAIT_FOR_DIALOG_INTERACTION
 13: 0x0257 [0x1D] PRINT_EVENT_MESSAGE(message_id=8029*)
    → "I've gotta have one! I must experience its effects firsthand!"
 14: 0x025A [0x23] WAIT_FOR_DIALOG_INTERACTION
 15: 0x025B [0x1D] PRINT_EVENT_MESSAGE(message_id=8030*)
    → "Ha, nice try. That face won't work on me. I've seen it too many times already."
 16: 0x025E [0x23] WAIT_FOR_DIALOG_INTERACTION
 17: 0x025F [0x1D] PRINT_EVENT_MESSAGE(message_id=8031*)
    → "Make sure it's the pink one that's sparkling. Sparkling and pink, okay? Okay!"
 18: 0x0262 [0x23] WAIT_FOR_DIALOG_INTERACTION
 19: 0x0263 [0x66] LOAD_EXT_SCHEDULER_MAIN: Load scheduler "tlk1" with entities [EventEntity, EventEntity], work=60*
 20: 0x0272 [0x21] END_EVENT
 21: 0x0273 [0x00] END_REQSTACK()
```

### Event 3011

#### Metadata

| Field        | Value    |
|--------------|----------|
| Entrypoint   | 0x0274   |
| Data Size    | 43 bytes |
| Instructions | 9        |

```
      00 01 02 03 04 05 06 07  08 09 0A 0B 0C 0D 0E 0F
      -- -- -- -- -- -- -- --  -- -- -- -- -- -- -- --
0270:             1E F0 FF FF  7F 6F 70 66 00 80 F8 FF      .....opf....
0280: FF 7F F8 FF FF 7F 74 61  6C 6B 1D 2A 80 23 66 00  ......talk.*.#f.
0290: 80 F8 FF FF 7F F8 FF FF  7F 74 6C 6B 31 21 00     .........tlk1!. 
```

#### Opcodes

```
  0: 0x0274 [0x1E] EventEntity looks at LocalPlayer and starts talking
  1: 0x0279 [0x6F] WAIT_FRAME_DELAY: Yield until WaitTime reaches zero
  2: 0x027A [0x70] WAIT_ENTITY_RENDER_FLAG: Wait while EventEntity->Render.Flags3 bit 2 is set (cancel turn if not)
  3: 0x027B [0x66] LOAD_EXT_SCHEDULER_MAIN: Load scheduler "talk" with entities [EventEntity, EventEntity], work=60*
  4: 0x028A [0x1D] PRINT_EVENT_MESSAGE(message_id=8032*)
    → "If you don't get me that sparkling pink drink, I'm gonna go tear you limb from limb like a Velkk marauder, buddy."
  5: 0x028D [0x23] WAIT_FOR_DIALOG_INTERACTION
  6: 0x028E [0x66] LOAD_EXT_SCHEDULER_MAIN: Load scheduler "tlk1" with entities [EventEntity, EventEntity], work=60*
  7: 0x029D [0x21] END_EVENT
  8: 0x029E [0x00] END_REQSTACK()
```

### Event 3012

#### Metadata

| Field        | Value    |
|--------------|----------|
| Entrypoint   | 0x029F   |
| Data Size    | 77 bytes |
| Instructions | 19       |

```
      00 01 02 03 04 05 06 07  08 09 0A 0B 0C 0D 0E 0F
      -- -- -- -- -- -- -- --  -- -- -- -- -- -- -- --
0290:                                               42                 B
02A0: 1E F0 FF FF 7F 6F 70 66  00 80 F8 FF FF 7F F8 FF  .....opf........
02B0: FF 7F 74 61 6C 6B 1D 2B  80 23 1D 2C 80 23 1D 2D  ..talk.+.#.,.#.-
02C0: 80 23 1D 2E 80 23 1D 2F  80 23 45 10 80 F8 FF FF  .#...#./.#E.....
02D0: 7F F8 FF FF 7F 71 73 74  63 11 80 66 00 80 F8 FF  .....qstc..f....
02E0: FF 7F F8 FF FF 7F 74 6C  6B 31 21 00              ......tlk1!.    
```

#### Opcodes

```
  0: 0x029F [0x42] SET_CLI_EVENT_CANCEL_DATA()
  1: 0x02A0 [0x1E] EventEntity looks at LocalPlayer and starts talking
  2: 0x02A5 [0x6F] WAIT_FRAME_DELAY: Yield until WaitTime reaches zero
  3: 0x02A6 [0x70] WAIT_ENTITY_RENDER_FLAG: Wait while EventEntity->Render.Flags3 bit 2 is set (cancel turn if not)
  4: 0x02A7 [0x66] LOAD_EXT_SCHEDULER_MAIN: Load scheduler "talk" with entities [EventEntity, EventEntity], work=60*
  5: 0x02B6 [0x1D] PRINT_EVENT_MESSAGE(message_id=8033*)
    → "Yeeeeeeeees! It's pink...it's sparkly...it's <gulp> exactly what I asked for!"
  6: 0x02B9 [0x23] WAIT_FOR_DIALOG_INTERACTION
  7: 0x02BA [0x1D] PRINT_EVENT_MESSAGE(message_id=8034*)
    → "<Glug>...hm? ...It goes down smoother than pugil roe! Oh, and there's the slightest bite to it that brings out its sweetness. I love it!"
  8: 0x02BD [0x23] WAIT_FOR_DIALOG_INTERACTION
  9: 0x02BE [0x1D] PRINT_EVENT_MESSAGE(message_id=8035*)
    → "Ack! By the founder king, the pain consumes my soul! Altana, forgive me my trespasses...!"
 10: 0x02C1 [0x23] WAIT_FOR_DIALOG_INTERACTION
 11: 0x02C2 [0x1D] PRINT_EVENT_MESSAGE(message_id=8036*)
    → "So the rumors were true! It is cursed! ...<Player>, when will my body stop shaking?"
 12: 0x02C5 [0x23] WAIT_FOR_DIALOG_INTERACTION
 13: 0x02C6 [0x1D] PRINT_EVENT_MESSAGE(message_id=8037*)
    → "Maybe getting back to work will make me forget how disgusting I feel..."
 14: 0x02C9 [0x23] WAIT_FOR_DIALOG_INTERACTION
 15: 0x02CA [0x45] LOAD_SCHEDULED_TASK: Load scheduler "qstc" with entities [EventEntity, EventEntity], work=[201*, 0*]
 16: 0x02DB [0x66] LOAD_EXT_SCHEDULER_MAIN: Load scheduler "tlk1" with entities [EventEntity, EventEntity], work=60*
 17: 0x02EA [0x21] END_EVENT
 18: 0x02EB [0x00] END_REQSTACK()
```

### Event 3013

#### Metadata

| Field        | Value    |
|--------------|----------|
| Entrypoint   | 0x02EC   |
| Data Size    | 48 bytes |
| Instructions | 12       |

```
      00 01 02 03 04 05 06 07  08 09 0A 0B 0C 0D 0E 0F
      -- -- -- -- -- -- -- --  -- -- -- -- -- -- -- --
02E0:                                      1E F0 FF FF              ....
02F0: 7F 42 6F 70 66 00 80 F8  FF FF 7F F8 FF FF 7F 74  .Bopf..........t
0300: 61 6C 6B 1D 30 80 23 1D  31 80 23 66 00 80 F8 FF  alk.0.#.1.#f....
0310: FF 7F F8 FF FF 7F 74 6C  6B 31 21 00              ......tlk1!.    
```

#### Opcodes

```
  0: 0x02EC [0x1E] EventEntity looks at LocalPlayer and starts talking
  1: 0x02F1 [0x42] SET_CLI_EVENT_CANCEL_DATA()
  2: 0x02F2 [0x6F] WAIT_FRAME_DELAY: Yield until WaitTime reaches zero
  3: 0x02F3 [0x70] WAIT_ENTITY_RENDER_FLAG: Wait while EventEntity->Render.Flags3 bit 2 is set (cancel turn if not)
  4: 0x02F4 [0x66] LOAD_EXT_SCHEDULER_MAIN: Load scheduler "talk" with entities [EventEntity, EventEntity], work=60*
  5: 0x0303 [0x1D] PRINT_EVENT_MESSAGE(message_id=8040*)
    → "Hey, this is the same drink from before! Fool me once, shame on me. Fool me twice...well, you're not gonna fool me twice!"
  6: 0x0306 [0x23] WAIT_FOR_DIALOG_INTERACTION
  7: 0x0307 [0x1D] PRINT_EVENT_MESSAGE(message_id=8041*)
    → "I want the one that's pink and sparkling! Pink and shiny, I say!"
  8: 0x030A [0x23] WAIT_FOR_DIALOG_INTERACTION
  9: 0x030B [0x66] LOAD_EXT_SCHEDULER_MAIN: Load scheduler "tlk1" with entities [EventEntity, EventEntity], work=60*
 10: 0x031A [0x21] END_EVENT
 11: 0x031B [0x00] END_REQSTACK()
```

### Event 3014

#### Metadata

| Field        | Value    |
|--------------|----------|
| Entrypoint   | 0x031C   |
| Data Size    | 48 bytes |
| Instructions | 12       |

```
      00 01 02 03 04 05 06 07  08 09 0A 0B 0C 0D 0E 0F
      -- -- -- -- -- -- -- --  -- -- -- -- -- -- -- --
0310:                                      1E F0 FF FF              ....
0320: 7F 42 6F 70 66 00 80 F8  FF FF 7F F8 FF FF 7F 74  .Bopf..........t
0330: 61 6C 6B 1D 32 80 23 1D  33 80 23 66 00 80 F8 FF  alk.2.#.3.#f....
0340: FF 7F F8 FF FF 7F 74 6C  6B 31 21 00              ......tlk1!.    
```

#### Opcodes

```
  0: 0x031C [0x1E] EventEntity looks at LocalPlayer and starts talking
  1: 0x0321 [0x42] SET_CLI_EVENT_CANCEL_DATA()
  2: 0x0322 [0x6F] WAIT_FRAME_DELAY: Yield until WaitTime reaches zero
  3: 0x0323 [0x70] WAIT_ENTITY_RENDER_FLAG: Wait while EventEntity->Render.Flags3 bit 2 is set (cancel turn if not)
  4: 0x0324 [0x66] LOAD_EXT_SCHEDULER_MAIN: Load scheduler "talk" with entities [EventEntity, EventEntity], work=60*
  5: 0x0333 [0x1D] PRINT_EVENT_MESSAGE(message_id=8038*)
    → "This isn't very pink and doesn't sparkle...but oh well."
  6: 0x0336 [0x23] WAIT_FOR_DIALOG_INTERACTION
  7: 0x0337 [0x1D] PRINT_EVENT_MESSAGE(message_id=8039*)
    → "Not bad! Next time, bring me a sparkling pink one, friend of friends. And make it snappy!"
  8: 0x033A [0x23] WAIT_FOR_DIALOG_INTERACTION
  9: 0x033B [0x66] LOAD_EXT_SCHEDULER_MAIN: Load scheduler "tlk1" with entities [EventEntity, EventEntity], work=60*
 10: 0x034A [0x21] END_EVENT
 11: 0x034B [0x00] END_REQSTACK()
```

### Event 48

#### Metadata

| Field        | Value   |
|--------------|---------|
| Entrypoint   | 0x034C  |
| Data Size    | 1 bytes |
| Instructions | 1       |

```
      00 01 02 03 04 05 06 07  08 09 0A 0B 0C 0D 0E 0F
      -- -- -- -- -- -- -- --  -- -- -- -- -- -- -- --
0340:                                      00                       .   
```

#### Opcodes

```
  0: 0x034C [0x00] END_REQSTACK()
```

### Event 51

#### Metadata

| Field        | Value   |
|--------------|---------|
| Entrypoint   | 0x034D  |
| Data Size    | 1 bytes |
| Instructions | 1       |

```
      00 01 02 03 04 05 06 07  08 09 0A 0B 0C 0D 0E 0F
      -- -- -- -- -- -- -- --  -- -- -- -- -- -- -- --
0340:                                         00                     .  
```

#### Opcodes

```
  0: 0x034D [0x00] END_REQSTACK()
```

### Event 54

#### Metadata

| Field        | Value   |
|--------------|---------|
| Entrypoint   | 0x034E  |
| Data Size    | 1 bytes |
| Instructions | 1       |

```
      00 01 02 03 04 05 06 07  08 09 0A 0B 0C 0D 0E 0F
      -- -- -- -- -- -- -- --  -- -- -- -- -- -- -- --
0340:                                            00                   . 
```

#### Opcodes

```
  0: 0x034E [0x00] END_REQSTACK()
```

### Event 56

#### Metadata

| Field        | Value   |
|--------------|---------|
| Entrypoint   | 0x034F  |
| Data Size    | 1 bytes |
| Instructions | 1       |

```
      00 01 02 03 04 05 06 07  08 09 0A 0B 0C 0D 0E 0F
      -- -- -- -- -- -- -- --  -- -- -- -- -- -- -- --
0340:                                               00                 .
```

#### Opcodes

```
  0: 0x034F [0x00] END_REQSTACK()
```

### Event 62

#### Metadata

| Field        | Value   |
|--------------|---------|
| Entrypoint   | 0x0350  |
| Data Size    | 1 bytes |
| Instructions | 1       |

```
      00 01 02 03 04 05 06 07  08 09 0A 0B 0C 0D 0E 0F
      -- -- -- -- -- -- -- --  -- -- -- -- -- -- -- --
0350: 00                                                .               
```

#### Opcodes

```
  0: 0x0350 [0x00] END_REQSTACK()
```

### Event 65

#### Metadata

| Field        | Value   |
|--------------|---------|
| Entrypoint   | 0x0351  |
| Data Size    | 1 bytes |
| Instructions | 1       |

```
      00 01 02 03 04 05 06 07  08 09 0A 0B 0C 0D 0E 0F
      -- -- -- -- -- -- -- --  -- -- -- -- -- -- -- --
0350:    00                                              .              
```

#### Opcodes

```
  0: 0x0351 [0x00] END_REQSTACK()
```

### Event 5064

#### Metadata

| Field        | Value   |
|--------------|---------|
| Entrypoint   | 0x0352  |
| Data Size    | 1 bytes |
| Instructions | 1       |

```
      00 01 02 03 04 05 06 07  08 09 0A 0B 0C 0D 0E 0F
      -- -- -- -- -- -- -- --  -- -- -- -- -- -- -- --
0350:       00                                            .             
```

#### Opcodes

```
  0: 0x0352 [0x00] END_REQSTACK()
```

### Event 5067

#### Metadata

| Field        | Value   |
|--------------|---------|
| Entrypoint   | 0x0353  |
| Data Size    | 1 bytes |
| Instructions | 1       |

```
      00 01 02 03 04 05 06 07  08 09 0A 0B 0C 0D 0E 0F
      -- -- -- -- -- -- -- --  -- -- -- -- -- -- -- --
0350:          00                                          .            
```

#### Opcodes

```
  0: 0x0353 [0x00] END_REQSTACK()
```

### Event 5068

#### Metadata

| Field        | Value     |
|--------------|-----------|
| Entrypoint   | 0x0354    |
| Data Size    | 204 bytes |
| Instructions | 38        |

```
      00 01 02 03 04 05 06 07  08 09 0A 0B 0C 0D 0E 0F
      -- -- -- -- -- -- -- --  -- -- -- -- -- -- -- --
0350:             42 03 01 10  02 10 1E F0 FF FF 7F 6F      B..........o
0360: 70 66 00 80 F8 FF FF 7F  F8 FF FF 7F 74 6C 6B 30  pf..........tlk0
0370: 1D 34 80 23 02 01 10 35  80 00 BC 03 03 02 10 36  .4.#...5.......6
0380: 80 1D 37 80 23 66 00 80  F8 FF FF 7F F8 FF FF 7F  ..7.#f..........
0390: 74 6C 6B 31 66 00 80 F8  FF FF 7F F8 FF FF 7F 61  tlk1f..........a
03A0: 6E 67 30 03 00 17 38 80  27 10 D9 00 10 01 0A 1D  ng0...8.'.......
03B0: 39 80 23 2A 10 D9 00 10  01 01 F9 03 03 02 10 3A  9.#*...........:
03C0: 80 1D 37 80 23 66 00 80  F8 FF FF 7F F8 FF FF 7F  ..7.#f..........
03D0: 74 6C 6B 31 66 00 80 F8  FF FF 7F F8 FF FF 7F 61  tlk1f..........a
03E0: 6E 67 30 03 00 17 38 80  27 10 D9 00 10 01 0A 1D  ng0...8.'.......
03F0: 3B 80 23 2A 10 D9 00 10  01 66 00 80 F8 FF FF 7F  ;.#*.....f......
0400: F8 FF FF 7F 70 61 73 30  03 00 17 3C 80 27 10 D9  ....pas0...<.'..
0410: 00 10 01 0A 1D 3D 80 23  2A 10 D9 00 10 01 21 00  .....=.#*.....!.
```

#### Opcodes

```
  0: 0x0354 [0x42] SET_CLI_EVENT_CANCEL_DATA()
  1: 0x0355 [0x03] Work_Zone[1] = Work_Zone[2]
  2: 0x035A [0x1E] EventEntity looks at LocalPlayer and starts talking
  3: 0x035F [0x6F] WAIT_FRAME_DELAY: Yield until WaitTime reaches zero
  4: 0x0360 [0x70] WAIT_ENTITY_RENDER_FLAG: Wait while EventEntity->Render.Flags3 bit 2 is set (cancel turn if not)
  5: 0x0361 [0x66] LOAD_EXT_SCHEDULER_MAIN: Load scheduler "tlk0" with entities [EventEntity, EventEntity], work=60*
  6: 0x0370 [0x1D] PRINT_EVENT_MESSAGE(message_id=10428*)
    → "Yes? Oh? Is this for me?"
  7: 0x0373 [0x23] WAIT_FOR_DIALOG_INTERACTION
  8: 0x0374 [0x02] IF !(Work_Zone[1] == 1*) GOTO 0x03BC
  9: 0x037C [0x03] Work_Zone[2] = 4534*
 10: 0x0381 [0x1D] PRINT_EVENT_MESSAGE(message_id=10429*)
    → "How'd you ever know that I was craving $0?"
 11: 0x0384 [0x23] WAIT_FOR_DIALOG_INTERACTION
 12: 0x0385 [0x66] LOAD_EXT_SCHEDULER_MAIN: Load scheduler "tlk1" with entities [EventEntity, EventEntity], work=60*
 13: 0x0394 [0x66] LOAD_EXT_SCHEDULER_MAIN: Load scheduler "ang0" with entities [EventEntity, EventEntity], work=60*
 14: 0x03A3 [0x03] Work_Zone_1700[0] = 90*
 15: 0x03A8 [0x27] REQ_SET(priority=0x10, entity_id=Mischief Marker (ID: 17826009/0x011000D9), tag_num=0x0A)
 16: 0x03AF [0x1D] PRINT_EVENT_MESSAGE(message_id=10431*)
    → "Aaall right! I feel ready to take on anything that comes my way!"
 17: 0x03B2 [0x23] WAIT_FOR_DIALOG_INTERACTION
 18: 0x03B3 [0x2A] GET_REQ_LEVEL(level=16, entity_id=Mischief Marker (ID: 17826009/0x011000D9))
 19: 0x03B9 [0x01] GOTO 0x03F9
 20: 0x03BC [0x03] Work_Zone[2] = 4489*
 21: 0x03C1 [0x1D] PRINT_EVENT_MESSAGE(message_id=10429*)
    → "How'd you ever know that I was craving $0?"
 22: 0x03C4 [0x23] WAIT_FOR_DIALOG_INTERACTION
 23: 0x03C5 [0x66] LOAD_EXT_SCHEDULER_MAIN: Load scheduler "tlk1" with entities [EventEntity, EventEntity], work=60*
 24: 0x03D4 [0x66] LOAD_EXT_SCHEDULER_MAIN: Load scheduler "ang0" with entities [EventEntity, EventEntity], work=60*
 25: 0x03E3 [0x03] Work_Zone_1700[0] = 90*
 26: 0x03E8 [0x27] REQ_SET(priority=0x10, entity_id=Mischief Marker (ID: 17826009/0x011000D9), tag_num=0x0A)
 27: 0x03EF [0x1D] PRINT_EVENT_MESSAGE(message_id=10430*)
    → "Ahhh... Yes, that hits the spot!"
 28: 0x03F2 [0x23] WAIT_FOR_DIALOG_INTERACTION
 29: 0x03F3 [0x2A] GET_REQ_LEVEL(level=16, entity_id=Mischief Marker (ID: 17826009/0x011000D9))

SUBROUTINE_03F9:
 30: 0x03F9 [0x66] LOAD_EXT_SCHEDULER_MAIN: Load scheduler "pas0" with entities [EventEntity, EventEntity], work=60*
 31: 0x0408 [0x03] Work_Zone_1700[0] = 150*
 32: 0x040D [0x27] REQ_SET(priority=0x10, entity_id=Mischief Marker (ID: 17826009/0x011000D9), tag_num=0x0A)
 33: 0x0414 [0x1D] PRINT_EVENT_MESSAGE(message_id=10432*)
    → "You're a real pal! C'mon--a little something for your trouble."
 34: 0x0417 [0x23] WAIT_FOR_DIALOG_INTERACTION
 35: 0x0418 [0x2A] GET_REQ_LEVEL(level=16, entity_id=Mischief Marker (ID: 17826009/0x011000D9))
 36: 0x041E [0x21] END_EVENT
 37: 0x041F [0x00] END_REQSTACK()
```

### Event 65535.1

#### Metadata

| Field        | Value   |
|--------------|---------|
| Entrypoint   | 0x0420  |
| Data Size    | 4 bytes |
| Instructions | 2       |

```
      00 01 02 03 04 05 06 07  08 09 0A 0B 0C 0D 0E 0F
      -- -- -- -- -- -- -- --  -- -- -- -- -- -- -- --
0420: 95 11 80 00                                       ....            
```

#### Opcodes

```
  0: 0x0420 [0x95] SETUP_EVENT_NPC: Prepare NPC for event (Render.Flags3 = 0*)
  1: 0x0423 [0x00] END_REQSTACK()
```

### Event 65535.2

#### Metadata

| Field        | Value   |
|--------------|---------|
| Entrypoint   | 0x0424  |
| Data Size    | 2 bytes |
| Instructions | 2       |

```
      00 01 02 03 04 05 06 07  08 09 0A 0B 0C 0D 0E 0F
      -- -- -- -- -- -- -- --  -- -- -- -- -- -- -- --
0420:             96 00                                     ..          
```

#### Opcodes

```
  0: 0x0424 [0x96] UNSET_EVENT_NPC: Restore NPC after event (removes event NPC status)
  1: 0x0425 [0x00] END_REQSTACK()
```
