# 17826029 - Amchuchu

## Common Data

| Field            | Value                     |
|------------------|---------------------------|
| Zone             | Western Adoulin (ID: 256) |
| Block Size       | 2160 bytes                |
| Total Events     | 71                        |
| References Count | 72                        |

## List of Events

| Event ID                   | Entrypoint   |   Size |   Instructions |
|----------------------------|--------------|--------|----------------|
| [65535](#event-65535)      | 0x0000       |      1 |              1 |
| [5054](#event-5054)        | 0x0001       |      1 |              1 |
| [5055](#event-5055)        | 0x0002       |      1 |              1 |
| [5062](#event-5062)        | 0x0003       |      1 |              1 |
| [5063](#event-5063)        | 0x0004       |      1 |              1 |
| [5087](#event-5087)        | 0x0005       |      1 |              1 |
| [5090](#event-5090)        | 0x0006       |      1 |              1 |
| [5091](#event-5091)        | 0x0007       |      1 |              1 |
| [5211](#event-5211)        | 0x0008       |      1 |              1 |
| [5214](#event-5214)        | 0x0009       |      1 |              1 |
| [5215](#event-5215)        | 0x000A       |      1 |              1 |
| [5223](#event-5223)        | 0x000B       |      1 |              1 |
| [5224](#event-5224)        | 0x000C       |      1 |              1 |
| [5200](#event-5200)        | 0x000D       |      7 |              2 |
| [65535.1](#event-655351)   | 0x0014       |    292 |             34 |
| [209](#event-209)          | 0x0138       |      1 |              1 |
| [5122](#event-5122)        | 0x0139       |      1 |              1 |
| [65535.2](#event-655352)   | 0x013A       |     26 |              6 |
| [5116](#event-5116)        | 0x0154       |      1 |              1 |
| [65535.3](#event-655353)   | 0x0155       |     26 |              6 |
| [65535.4](#event-655354)   | 0x016F       |     26 |              6 |
| [5098](#event-5098)        | 0x0189       |      1 |              1 |
| [5099](#event-5099)        | 0x018A       |      1 |              1 |
| [65535.5](#event-655355)   | 0x018B       |     26 |              6 |
| [65535.6](#event-655356)   | 0x01A5       |     33 |              3 |
| [65535.7](#event-655357)   | 0x01C6       |     33 |              3 |
| [65535.8](#event-655358)   | 0x01E7       |     33 |              3 |
| [65535.9](#event-655359)   | 0x0208       |     33 |              3 |
| [65535.10](#event-6553510) | 0x0229       |     33 |              3 |
| [65535.11](#event-6553511) | 0x024A       |     33 |              3 |
| [65535.12](#event-6553512) | 0x026B       |     33 |              3 |
| [65535.13](#event-6553513) | 0x028C       |     33 |              3 |
| [65535.14](#event-6553514) | 0x02AD       |     33 |              3 |
| [65535.15](#event-6553515) | 0x02CE       |     33 |              3 |
| [65535.16](#event-6553516) | 0x02EF       |     33 |              3 |
| [65535.17](#event-6553517) | 0x0310       |     33 |              3 |
| [65535.18](#event-6553518) | 0x0331       |     33 |              3 |
| [65535.19](#event-6553519) | 0x0352       |     45 |              5 |
| [65535.20](#event-6553520) | 0x037F       |     57 |              7 |
| [65535.21](#event-6553521) | 0x03B8       |     57 |              7 |
| [65535.22](#event-6553522) | 0x03F1       |     16 |              4 |
| [65535.23](#event-6553523) | 0x0401       |     16 |              4 |
| [65535.24](#event-6553524) | 0x0411       |     16 |              4 |
| [65535.25](#event-6553525) | 0x0421       |     19 |              3 |
| [65535.26](#event-6553526) | 0x0434       |     19 |              3 |
| [65535.27](#event-6553527) | 0x0447       |     19 |              3 |
| [65535.28](#event-6553528) | 0x045A       |     19 |              3 |
| [65535.29](#event-6553529) | 0x046D       |     19 |              3 |
| [65535.30](#event-6553530) | 0x0480       |     19 |              3 |
| [65535.31](#event-6553531) | 0x0493       |     19 |              3 |
| [65535.32](#event-6553532) | 0x04A6       |     19 |              3 |
| [65535.33](#event-6553533) | 0x04B9       |     19 |              3 |
| [65535.34](#event-6553534) | 0x04CC       |     19 |              3 |
| [65535.35](#event-6553535) | 0x04DF       |     19 |              3 |
| [65535.36](#event-6553536) | 0x04F2       |     19 |              3 |
| [65535.37](#event-6553537) | 0x0505       |     19 |              3 |
| [65535.38](#event-6553538) | 0x0518       |     19 |              3 |
| [65535.39](#event-6553539) | 0x052B       |     19 |              3 |
| [65535.40](#event-6553540) | 0x053E       |     19 |              3 |
| [65535.41](#event-6553541) | 0x0551       |     19 |              3 |
| [65535.42](#event-6553542) | 0x0564       |     15 |              5 |
| [65535.43](#event-6553543) | 0x0573       |     15 |              5 |
| [65535.44](#event-6553544) | 0x0582       |     20 |              6 |
| [65535.45](#event-6553545) | 0x0596       |     15 |              5 |
| [65535.46](#event-6553546) | 0x05A5       |     14 |              4 |
| [65535.47](#event-6553547) | 0x05B3       |     14 |              4 |
| [65535.48](#event-6553548) | 0x05C1       |     22 |              8 |
| [65535.49](#event-6553549) | 0x05D7       |     14 |              4 |
| [65535.50](#event-6553550) | 0x05E5       |     14 |              4 |
| [65535.51](#event-6553551) | 0x05F3       |     34 |              8 |
| [65535.52](#event-6553552) | 0x0615       |     14 |              4 |

## DAT References (imed_data)

|   Index | Hex Value   |   Dec Value |
|---------|-------------|-------------|
|       0 | 0x00BD      |         189 |
|       1 | 0x0053      |          83 |
|       2 | 0x0050      |          80 |
|       3 | 0x0028      |          40 |
|       4 | 0x0016      |          22 |
|       5 | 0x0078      |         120 |
|       6 | 0x0BC1      |        3009 |
|       7 | 0x0096      |         150 |
|       8 | 0x0023      |          35 |
|       9 | 0x00C8      |         200 |
|      10 | 0x001E      |          30 |
|      11 | 0x002D      |          45 |
|      12 | 0x0095      |         149 |
|      13 | 0x0007      |           7 |
|      14 | 0x003C      |          60 |
|      15 | 0x0006      |           6 |
|      16 | 0x010E      |         270 |
|      17 | 0x000D      |          13 |
|      18 | 0x167C8     |       92104 |
|      19 | 0xFFFF07AD  |  4294903725 |
|      20 | 0xFFFFFD77  |  4294966647 |
|      21 | 0x15EF3     |       89843 |
|      22 | 0xFFFF0FE3  |  4294905827 |
|      23 | 0x166AF     |       91823 |
|      24 | 0xFFFF07F8  |  4294903800 |
|      25 | 0x167C2     |       92098 |
|      26 | 0xFFFEE40B  |  4294894603 |
|      27 | 0xFFFFFD3F  |  4294966591 |
|      28 | 0x006F      |         111 |
|      29 | 0x00C7      |         199 |
|      30 | 0x0031      |          49 |
|      31 | 0x005A      |          90 |
|      32 | 0x0022      |          34 |
|      33 | 0x002A      |          42 |
|      34 | 0x0072      |         114 |
|      35 | 0x0038      |          56 |
|      36 | 0x0801      |        2049 |
|      37 | 0x00B0      |         176 |
|      38 | 0x055D      |        1373 |
|      39 | 0x0008      |           8 |
|      40 | 0x0029      |          41 |
|      41 | 0x1647C     |       91260 |
|      42 | 0xFFFEE8CE  |  4294895822 |
|      43 | 0xFFFFFD3E  |  4294966590 |
|      44 | 0x16E04     |       93700 |
|      45 | 0xFFFEDF54  |  4294893396 |
|      46 | 0xFFFFFD75  |  4294966645 |
|      47 | 0x16A08     |       92680 |
|      48 | 0xFFFEDE50  |  4294893136 |
|      49 | 0x17B04     |       97028 |
|      50 | 0xFFFECF43  |  4294889283 |
|      51 | 0x16E36     |       93750 |
|      52 | 0x17049     |       94281 |
|      53 | 0xFFFEDD6D  |  4294892909 |
|      54 | 0x07FF      |        2047 |
|      55 | 0x000A      |          10 |
|      56 | 0x159C8     |       88520 |
|      57 | 0xFFFEDE64  |  4294893156 |
|      58 | 0xFFFFFD76  |  4294966646 |
|      59 | 0x16260     |       90720 |
|      60 | 0xFA00      |       64000 |
|      61 | 0x1DC90     |      122000 |
|      62 | 0x7D00      |       32000 |
|      63 | 0x7210      |       29200 |
|      64 | 0x18D12     |      101650 |
|      65 | 0x5ECE      |       24270 |
|      66 | 0x18768     |      100200 |
|      67 | 0x3084      |       12420 |
|      68 | 0x18614     |       99860 |
|      69 | 0xB057C     |      722300 |
|      70 | 0xFFFDF0A8  |  4294832296 |
|      71 | 0xFFFDE77A  |  4294829946 |

## Events

### Event 65535

#### Metadata

| Field        | Value   |
|--------------|---------|
| Entrypoint   | 0x0000  |
| Data Size    | 1 bytes |
| Instructions | 1       |

```
      00 01 02 03 04 05 06 07  08 09 0A 0B 0C 0D 0E 0F
      -- -- -- -- -- -- -- --  -- -- -- -- -- -- -- --
0000: 00                                                .               
```

#### Opcodes

```
  0: 0x0000 [0x00] END_REQSTACK()
```

### Event 5054

#### Metadata

| Field        | Value   |
|--------------|---------|
| Entrypoint   | 0x0001  |
| Data Size    | 1 bytes |
| Instructions | 1       |

```
      00 01 02 03 04 05 06 07  08 09 0A 0B 0C 0D 0E 0F
      -- -- -- -- -- -- -- --  -- -- -- -- -- -- -- --
0000:    00                                              .              
```

#### Opcodes

```
  0: 0x0001 [0x00] END_REQSTACK()
```

### Event 5055

#### Metadata

| Field        | Value   |
|--------------|---------|
| Entrypoint   | 0x0002  |
| Data Size    | 1 bytes |
| Instructions | 1       |

```
      00 01 02 03 04 05 06 07  08 09 0A 0B 0C 0D 0E 0F
      -- -- -- -- -- -- -- --  -- -- -- -- -- -- -- --
0000:       00                                            .             
```

#### Opcodes

```
  0: 0x0002 [0x00] END_REQSTACK()
```

### Event 5062

#### Metadata

| Field        | Value   |
|--------------|---------|
| Entrypoint   | 0x0003  |
| Data Size    | 1 bytes |
| Instructions | 1       |

```
      00 01 02 03 04 05 06 07  08 09 0A 0B 0C 0D 0E 0F
      -- -- -- -- -- -- -- --  -- -- -- -- -- -- -- --
0000:          00                                          .            
```

#### Opcodes

```
  0: 0x0003 [0x00] END_REQSTACK()
```

### Event 5063

#### Metadata

| Field        | Value   |
|--------------|---------|
| Entrypoint   | 0x0004  |
| Data Size    | 1 bytes |
| Instructions | 1       |

```
      00 01 02 03 04 05 06 07  08 09 0A 0B 0C 0D 0E 0F
      -- -- -- -- -- -- -- --  -- -- -- -- -- -- -- --
0000:             00                                        .           
```

#### Opcodes

```
  0: 0x0004 [0x00] END_REQSTACK()
```

### Event 5087

#### Metadata

| Field        | Value   |
|--------------|---------|
| Entrypoint   | 0x0005  |
| Data Size    | 1 bytes |
| Instructions | 1       |

```
      00 01 02 03 04 05 06 07  08 09 0A 0B 0C 0D 0E 0F
      -- -- -- -- -- -- -- --  -- -- -- -- -- -- -- --
0000:                00                                      .          
```

#### Opcodes

```
  0: 0x0005 [0x00] END_REQSTACK()
```

### Event 5090

#### Metadata

| Field        | Value   |
|--------------|---------|
| Entrypoint   | 0x0006  |
| Data Size    | 1 bytes |
| Instructions | 1       |

```
      00 01 02 03 04 05 06 07  08 09 0A 0B 0C 0D 0E 0F
      -- -- -- -- -- -- -- --  -- -- -- -- -- -- -- --
0000:                   00                                    .         
```

#### Opcodes

```
  0: 0x0006 [0x00] END_REQSTACK()
```

### Event 5091

#### Metadata

| Field        | Value   |
|--------------|---------|
| Entrypoint   | 0x0007  |
| Data Size    | 1 bytes |
| Instructions | 1       |

```
      00 01 02 03 04 05 06 07  08 09 0A 0B 0C 0D 0E 0F
      -- -- -- -- -- -- -- --  -- -- -- -- -- -- -- --
0000:                      00                                  .        
```

#### Opcodes

```
  0: 0x0007 [0x00] END_REQSTACK()
```

### Event 5211

#### Metadata

| Field        | Value   |
|--------------|---------|
| Entrypoint   | 0x0008  |
| Data Size    | 1 bytes |
| Instructions | 1       |

```
      00 01 02 03 04 05 06 07  08 09 0A 0B 0C 0D 0E 0F
      -- -- -- -- -- -- -- --  -- -- -- -- -- -- -- --
0000:                          00                               .       
```

#### Opcodes

```
  0: 0x0008 [0x00] END_REQSTACK()
```

### Event 5214

#### Metadata

| Field        | Value   |
|--------------|---------|
| Entrypoint   | 0x0009  |
| Data Size    | 1 bytes |
| Instructions | 1       |

```
      00 01 02 03 04 05 06 07  08 09 0A 0B 0C 0D 0E 0F
      -- -- -- -- -- -- -- --  -- -- -- -- -- -- -- --
0000:                             00                             .      
```

#### Opcodes

```
  0: 0x0009 [0x00] END_REQSTACK()
```

### Event 5215

#### Metadata

| Field        | Value   |
|--------------|---------|
| Entrypoint   | 0x000A  |
| Data Size    | 1 bytes |
| Instructions | 1       |

```
      00 01 02 03 04 05 06 07  08 09 0A 0B 0C 0D 0E 0F
      -- -- -- -- -- -- -- --  -- -- -- -- -- -- -- --
0000:                                00                           .     
```

#### Opcodes

```
  0: 0x000A [0x00] END_REQSTACK()
```

### Event 5223

#### Metadata

| Field        | Value   |
|--------------|---------|
| Entrypoint   | 0x000B  |
| Data Size    | 1 bytes |
| Instructions | 1       |

```
      00 01 02 03 04 05 06 07  08 09 0A 0B 0C 0D 0E 0F
      -- -- -- -- -- -- -- --  -- -- -- -- -- -- -- --
0000:                                   00                         .    
```

#### Opcodes

```
  0: 0x000B [0x00] END_REQSTACK()
```

### Event 5224

#### Metadata

| Field        | Value   |
|--------------|---------|
| Entrypoint   | 0x000C  |
| Data Size    | 1 bytes |
| Instructions | 1       |

```
      00 01 02 03 04 05 06 07  08 09 0A 0B 0C 0D 0E 0F
      -- -- -- -- -- -- -- --  -- -- -- -- -- -- -- --
0000:                                      00                       .   
```

#### Opcodes

```
  0: 0x000C [0x00] END_REQSTACK()
```

### Event 5200

#### Metadata

| Field        | Value   |
|--------------|---------|
| Entrypoint   | 0x000D  |
| Data Size    | 7 bytes |
| Instructions | 2       |

```
      00 01 02 03 04 05 06 07  08 09 0A 0B 0C 0D 0E 0F
      -- -- -- -- -- -- -- --  -- -- -- -- -- -- -- --
0000:                                         92 01 F8               ...
0010: FF FF 7F 00                                       ....            
```

#### Opcodes

```
  0: 0x000D [0x92] EventEntity->Render.Flags3 ^= 0x01
  1: 0x0013 [0x00] END_REQSTACK()
```

### Event 65535.1

#### Metadata

| Field        | Value     |
|--------------|-----------|
| Entrypoint   | 0x0014    |
| Data Size    | 292 bytes |
| Instructions | 33        |

```
      00 01 02 03 04 05 06 07  08 09 0A 0B 0C 0D 0E 0F
      -- -- -- -- -- -- -- --  -- -- -- -- -- -- -- --
0010:             5F 06 00 80  F8 FF FF 7F F8 FF FF 7F      _...........
0020: 74 6C 6B 30 01 80 5F 07  F8 FF FF 7F F8 FF FF 7F  tlk0.._.........
0030: 74 6C 6B 30 1C 02 80 5F  06 00 80 F8 FF FF 7F F8  tlk0..._........
0040: FF FF 7F 74 6C 6B 31 01  80 5F 07 F8 FF FF 7F F8  ...tlk1.._......
0050: FF FF 7F 74 6C 6B 31 1C  03 80 6E 46 01 10 01 04  ...tlk1...nF....
0060: 80 99 46 01 10 01 1C 05  80 5F 05 06 80 46 01 10  ..F......_...F..
0070: 01 46 01 10 01 6B 69 6D  30 07 80 5F 07 46 01 10  .F...kim0.._.F..
0080: 01 46 01 10 01 6B 69 6D  30 81 00 F8 FF FF 7F 5F  .F...kim0......_
0090: 06 08 80 F8 FF FF 7F F8  FF FF 7F 6D 6F 6E 30 09  ...........mon0.
00A0: 80 5F 07 F8 FF FF 7F F8  FF FF 7F 6D 6F 6E 30 81  ._.........mon0.
00B0: 01 F8 FF FF 7F 1C 0A 80  6B 69 64 6C 30 46 01 10  ........kidl0F..
00C0: 01 1C 0B 80 5F 06 0C 80  46 01 10 01 46 01 10 01  ...._...F...F...
00D0: 74 6C 6B 30 05 80 5F 07  46 01 10 01 46 01 10 01  tlk0.._.F...F...
00E0: 74 6C 6B 30 6E F8 FF FF  7F 0D 80 99 F8 FF FF 7F  tlk0n...........
00F0: 1C 0E 80 6E F8 FF FF 7F  0D 80 99 F8 FF FF 7F 1C  ...n............
0100: 07 80 6E F8 FF FF 7F 0F  80 99 F8 FF FF 7F 1C 10  ..n.............
0110: 80 5F 06 0C 80 46 01 10  01 46 01 10 01 74 6C 6B  ._...F...F...tlk
0120: 31 05 80 5F 07 46 01 10  01 46 01 10 01 74 6C 6B  1.._.F...F...tlk
0130: 31 1C 03 80 01 14 00 00                           1.......        
```

#### Opcodes

```
  0: 0x0014 [0x5F] MULTI_HANDLER_COMPLEX(mode=0x06 - Load ext scheduler with flag (OpCode 0x5B mode 1, flag 1), ref=189*, entity1=EventEntity, entity2=EventEntity, string="tlk0", extra=83*)
  1: 0x0026 [0x5F] MULTI_HANDLER_COMPLEX(mode=0x07 - Wait scheduler task (OpCode 0x53))
  2: 0x0034 [0x1C] WAIT(80* ticks)
  3: 0x0037 [0x5F] MULTI_HANDLER_COMPLEX(mode=0x06 - Load ext scheduler with flag (OpCode 0x5B mode 1, flag 1), ref=189*, entity1=EventEntity, entity2=EventEntity, string="tlk1", extra=83*)
  4: 0x0049 [0x5F] MULTI_HANDLER_COMPLEX(mode=0x07 - Wait scheduler task (OpCode 0x53))
  5: 0x0057 [0x1C] WAIT(40* ticks)
  6: 0x005A [0x6E] Unnamed NPC (ID: 17826118/0x01100146) uses emote 22*
  7: 0x0061 [0x99] Wait for Unnamed NPC (ID: 17826118/0x01100146) animation to complete
  8: 0x0066 [0x1C] WAIT(120* ticks)
  9: 0x0069 [0x5F] MULTI_HANDLER_COMPLEX(mode=0x05 - Load ext scheduler with flag (OpCode 0x5B mode 0, flag 1), ref=3009*, entity1=Unnamed NPC (ID: 17826118/0x01100146), entity2=Unnamed NPC (ID: 17826118/0x01100146), string="kim0", extra=150*)
 10: 0x007B [0x5F] MULTI_HANDLER_COMPLEX(mode=0x07 - Wait scheduler task (OpCode 0x53))
 11: 0x0089 [0x81] SET_ENTITY_BLINKING(blink_flag=0x00, entity=EventEntity)
 12: 0x008F [0x5F] MULTI_HANDLER_COMPLEX(mode=0x06 - Load ext scheduler with flag (OpCode 0x5B mode 1, flag 1), ref=35*, entity1=EventEntity, entity2=EventEntity, string="mon0", extra=200*)
 13: 0x00A1 [0x5F] MULTI_HANDLER_COMPLEX(mode=0x07 - Wait scheduler task (OpCode 0x53))
 14: 0x00AF [0x81] SET_ENTITY_BLINKING(blink_flag=0x01, entity=EventEntity)
 15: 0x00B5 [0x1C] WAIT(30* ticks)
 16: 0x00B8 [0x6B] STOP_AND_IDLE: Unnamed NPC (ID: 17826118/0x01100146) stops current action and resets to idle (animation="idl0")
 17: 0x00C1 [0x1C] WAIT(45* ticks)
 18: 0x00C4 [0x5F] MULTI_HANDLER_COMPLEX(mode=0x06 - Load ext scheduler with flag (OpCode 0x5B mode 1, flag 1), ref=149*, entity1=Unnamed NPC (ID: 17826118/0x01100146), entity2=Unnamed NPC (ID: 17826118/0x01100146), string="tlk0", extra=120*)
 19: 0x00D6 [0x5F] MULTI_HANDLER_COMPLEX(mode=0x07 - Wait scheduler task (OpCode 0x53))
 20: 0x00E4 [0x6E] EventEntity uses emote 7*
 21: 0x00EB [0x99] Wait for EventEntity animation to complete
 22: 0x00F0 [0x1C] WAIT(60* ticks)
 23: 0x00F3 [0x6E] EventEntity uses emote 7*
 24: 0x00FA [0x99] Wait for EventEntity animation to complete
 25: 0x00FF [0x1C] WAIT(150* ticks)
 26: 0x0102 [0x6E] EventEntity uses emote 6*
 27: 0x0109 [0x99] Wait for EventEntity animation to complete
 28: 0x010E [0x1C] WAIT(270* ticks)
 29: 0x0111 [0x5F] MULTI_HANDLER_COMPLEX(mode=0x06 - Load ext scheduler with flag (OpCode 0x5B mode 1, flag 1), ref=149*, entity1=Unnamed NPC (ID: 17826118/0x01100146), entity2=Unnamed NPC (ID: 17826118/0x01100146), string="tlk1", extra=120*)
 30: 0x0123 [0x5F] MULTI_HANDLER_COMPLEX(mode=0x07 - Wait scheduler task (OpCode 0x53))
 31: 0x0131 [0x1C] WAIT(40* ticks)
 32: 0x0134 [0x01] GOTO 0x0014
```

#### Data or dead code:

```
# Dead code (unreachable instructions):
     0x0137 [0x00] END_REQSTACK()
```

### Event 209

#### Metadata

| Field        | Value   |
|--------------|---------|
| Entrypoint   | 0x0138  |
| Data Size    | 1 bytes |
| Instructions | 1       |

```
      00 01 02 03 04 05 06 07  08 09 0A 0B 0C 0D 0E 0F
      -- -- -- -- -- -- -- --  -- -- -- -- -- -- -- --
0130:                          00                               .       
```

#### Opcodes

```
  0: 0x0138 [0x00] END_REQSTACK()
```

### Event 5122

#### Metadata

| Field        | Value   |
|--------------|---------|
| Entrypoint   | 0x0139  |
| Data Size    | 1 bytes |
| Instructions | 1       |

```
      00 01 02 03 04 05 06 07  08 09 0A 0B 0C 0D 0E 0F
      -- -- -- -- -- -- -- --  -- -- -- -- -- -- -- --
0130:                             00                             .      
```

#### Opcodes

```
  0: 0x0139 [0x00] END_REQSTACK()
```

### Event 65535.2

#### Metadata

| Field        | Value    |
|--------------|----------|
| Entrypoint   | 0x013A   |
| Data Size    | 26 bytes |
| Instructions | 6        |

```
      00 01 02 03 04 05 06 07  08 09 0A 0B 0C 0D 0E 0F
      -- -- -- -- -- -- -- --  -- -- -- -- -- -- -- --
0130:                                32 11 80 1F 00 12            2.....
0140: 80 13 80 14 80 1F 01 4A  ED 00 10 01 41 01 10 01  .......J....A...
0150: 1C 0A 80 00                                       ....            
```

#### Opcodes

```
  0: 0x013A [0x32] ExtData[1]->MainSpeed = 13* * 0.1
  1: 0x013D [0x1F] MOVE_ENTITY: EventEntity moves to X=92.104*, Z=-63.571*, Y=-0.649*
  2: 0x0145 [0x1F] MOVE_ENTITY: Update entity position (mode=1)
  3: 0x0147 [0x4A] Amchuchu (ID: 17826029/0x011000ED) looks at Gaddiux (ID: 17826113/0x01100141)
  4: 0x0150 [0x1C] WAIT(30* ticks)
  5: 0x0153 [0x00] END_REQSTACK()
```

### Event 5116

#### Metadata

| Field        | Value   |
|--------------|---------|
| Entrypoint   | 0x0154  |
| Data Size    | 1 bytes |
| Instructions | 1       |

```
      00 01 02 03 04 05 06 07  08 09 0A 0B 0C 0D 0E 0F
      -- -- -- -- -- -- -- --  -- -- -- -- -- -- -- --
0150:             00                                        .           
```

#### Opcodes

```
  0: 0x0154 [0x00] END_REQSTACK()
```

### Event 65535.3

#### Metadata

| Field        | Value    |
|--------------|----------|
| Entrypoint   | 0x0155   |
| Data Size    | 26 bytes |
| Instructions | 6        |

```
      00 01 02 03 04 05 06 07  08 09 0A 0B 0C 0D 0E 0F
      -- -- -- -- -- -- -- --  -- -- -- -- -- -- -- --
0150:                32 11 80  1F 00 15 80 16 80 14 80       2..........
0160: 1F 01 4A ED 00 10 01 F0  FF FF 7F 1C 0A 80 00     ..J............ 
```

#### Opcodes

```
  0: 0x0155 [0x32] ExtData[1]->MainSpeed = 13* * 0.1
  1: 0x0158 [0x1F] MOVE_ENTITY: EventEntity moves to X=89.843*, Z=-61.469*, Y=-0.649*
  2: 0x0160 [0x1F] MOVE_ENTITY: Update entity position (mode=1)
  3: 0x0162 [0x4A] Amchuchu (ID: 17826029/0x011000ED) looks at LocalPlayer
  4: 0x016B [0x1C] WAIT(30* ticks)
  5: 0x016E [0x00] END_REQSTACK()
```

### Event 65535.4

#### Metadata

| Field        | Value    |
|--------------|----------|
| Entrypoint   | 0x016F   |
| Data Size    | 26 bytes |
| Instructions | 6        |

```
      00 01 02 03 04 05 06 07  08 09 0A 0B 0C 0D 0E 0F
      -- -- -- -- -- -- -- --  -- -- -- -- -- -- -- --
0160:                                               32                 2
0170: 11 80 1F 00 17 80 18 80  14 80 1F 01 4A ED 00 10  ............J...
0180: 01 48 01 10 01 1C 0A 80  00                       .H.......       
```

#### Opcodes

```
  0: 0x016F [0x32] ExtData[1]->MainSpeed = 13* * 0.1
  1: 0x0172 [0x1F] MOVE_ENTITY: EventEntity moves to X=91.823*, Z=-63.496*, Y=-0.649*
  2: 0x017A [0x1F] MOVE_ENTITY: Update entity position (mode=1)
  3: 0x017C [0x4A] Amchuchu (ID: 17826029/0x011000ED) looks at Unnamed NPC (ID: 17826120/0x01100148)
  4: 0x0185 [0x1C] WAIT(30* ticks)
  5: 0x0188 [0x00] END_REQSTACK()
```

### Event 5098

#### Metadata

| Field        | Value   |
|--------------|---------|
| Entrypoint   | 0x0189  |
| Data Size    | 1 bytes |
| Instructions | 1       |

```
      00 01 02 03 04 05 06 07  08 09 0A 0B 0C 0D 0E 0F
      -- -- -- -- -- -- -- --  -- -- -- -- -- -- -- --
0180:                             00                             .      
```

#### Opcodes

```
  0: 0x0189 [0x00] END_REQSTACK()
```

### Event 5099

#### Metadata

| Field        | Value   |
|--------------|---------|
| Entrypoint   | 0x018A  |
| Data Size    | 1 bytes |
| Instructions | 1       |

```
      00 01 02 03 04 05 06 07  08 09 0A 0B 0C 0D 0E 0F
      -- -- -- -- -- -- -- --  -- -- -- -- -- -- -- --
0180:                                00                           .     
```

#### Opcodes

```
  0: 0x018A [0x00] END_REQSTACK()
```

### Event 65535.5

#### Metadata

| Field        | Value    |
|--------------|----------|
| Entrypoint   | 0x018B   |
| Data Size    | 26 bytes |
| Instructions | 6        |

```
      00 01 02 03 04 05 06 07  08 09 0A 0B 0C 0D 0E 0F
      -- -- -- -- -- -- -- --  -- -- -- -- -- -- -- --
0180:                                   32 11 80 1F 00             2....
0190: 19 80 1A 80 1B 80 1F 01  4A ED 00 10 01 F0 FF FF  ........J.......
01A0: 7F 1C 0A 80 00                                    .....           
```

#### Opcodes

```
  0: 0x018B [0x32] ExtData[1]->MainSpeed = 13* * 0.1
  1: 0x018E [0x1F] MOVE_ENTITY: EventEntity moves to X=92.098*, Z=-72.693*, Y=-0.705*
  2: 0x0196 [0x1F] MOVE_ENTITY: Update entity position (mode=1)
  3: 0x0198 [0x4A] Amchuchu (ID: 17826029/0x011000ED) looks at LocalPlayer
  4: 0x01A1 [0x1C] WAIT(30* ticks)
  5: 0x01A4 [0x00] END_REQSTACK()
```

### Event 65535.6

#### Metadata

| Field        | Value    |
|--------------|----------|
| Entrypoint   | 0x01A5   |
| Data Size    | 33 bytes |
| Instructions | 3        |

```
      00 01 02 03 04 05 06 07  08 09 0A 0B 0C 0D 0E 0F
      -- -- -- -- -- -- -- --  -- -- -- -- -- -- -- --
01A0:                5F 06 1C  80 F8 FF FF 7F F8 FF FF       _..........
01B0: 7F 70 61 73 30 1D 80 5F  07 F8 FF FF 7F F8 FF FF  .pas0.._........
01C0: 7F 70 61 73 30 00                                 .pas0.          
```

#### Opcodes

```
  0: 0x01A5 [0x5F] MULTI_HANDLER_COMPLEX(mode=0x06 - Load ext scheduler with flag (OpCode 0x5B mode 1, flag 1), ref=111*, entity1=EventEntity, entity2=EventEntity, string="pas0", extra=199*)
  1: 0x01B7 [0x5F] MULTI_HANDLER_COMPLEX(mode=0x07 - Wait scheduler task (OpCode 0x53))
  2: 0x01C5 [0x00] END_REQSTACK()
```

### Event 65535.7

#### Metadata

| Field        | Value    |
|--------------|----------|
| Entrypoint   | 0x01C6   |
| Data Size    | 33 bytes |
| Instructions | 3        |

```
      00 01 02 03 04 05 06 07  08 09 0A 0B 0C 0D 0E 0F
      -- -- -- -- -- -- -- --  -- -- -- -- -- -- -- --
01C0:                   5F 06  00 80 F8 FF FF 7F F8 FF        _.........
01D0: FF 7F 6C 6B 30 30 0A 80  5F 07 F8 FF FF 7F F8 FF  ..lk00.._.......
01E0: FF 7F 6C 6B 30 30 00                              ..lk00.         
```

#### Opcodes

```
  0: 0x01C6 [0x5F] MULTI_HANDLER_COMPLEX(mode=0x06 - Load ext scheduler with flag (OpCode 0x5B mode 1, flag 1), ref=189*, entity1=EventEntity, entity2=EventEntity, string="lk00", extra=30*)
  1: 0x01D8 [0x5F] MULTI_HANDLER_COMPLEX(mode=0x07 - Wait scheduler task (OpCode 0x53))
  2: 0x01E6 [0x00] END_REQSTACK()
```

### Event 65535.8

#### Metadata

| Field        | Value    |
|--------------|----------|
| Entrypoint   | 0x01E7   |
| Data Size    | 33 bytes |
| Instructions | 3        |

```
      00 01 02 03 04 05 06 07  08 09 0A 0B 0C 0D 0E 0F
      -- -- -- -- -- -- -- --  -- -- -- -- -- -- -- --
01E0:                      5F  06 00 80 F8 FF FF 7F F8         _........
01F0: FF FF 7F 74 6C 6B 30 01  80 5F 07 F8 FF FF 7F F8  ...tlk0.._......
0200: FF FF 7F 74 6C 6B 30 00                           ...tlk0.        
```

#### Opcodes

```
  0: 0x01E7 [0x5F] MULTI_HANDLER_COMPLEX(mode=0x06 - Load ext scheduler with flag (OpCode 0x5B mode 1, flag 1), ref=189*, entity1=EventEntity, entity2=EventEntity, string="tlk0", extra=83*)
  1: 0x01F9 [0x5F] MULTI_HANDLER_COMPLEX(mode=0x07 - Wait scheduler task (OpCode 0x53))
  2: 0x0207 [0x00] END_REQSTACK()
```

### Event 65535.9

#### Metadata

| Field        | Value    |
|--------------|----------|
| Entrypoint   | 0x0208   |
| Data Size    | 33 bytes |
| Instructions | 3        |

```
      00 01 02 03 04 05 06 07  08 09 0A 0B 0C 0D 0E 0F
      -- -- -- -- -- -- -- --  -- -- -- -- -- -- -- --
0200:                          5F 06 00 80 F8 FF FF 7F          _.......
0210: F8 FF FF 7F 74 6C 6B 31  01 80 5F 07 F8 FF FF 7F  ....tlk1.._.....
0220: F8 FF FF 7F 74 6C 6B 31  00                       ....tlk1.       
```

#### Opcodes

```
  0: 0x0208 [0x5F] MULTI_HANDLER_COMPLEX(mode=0x06 - Load ext scheduler with flag (OpCode 0x5B mode 1, flag 1), ref=189*, entity1=EventEntity, entity2=EventEntity, string="tlk1", extra=83*)
  1: 0x021A [0x5F] MULTI_HANDLER_COMPLEX(mode=0x07 - Wait scheduler task (OpCode 0x53))
  2: 0x0228 [0x00] END_REQSTACK()
```

### Event 65535.10

#### Metadata

| Field        | Value    |
|--------------|----------|
| Entrypoint   | 0x0229   |
| Data Size    | 33 bytes |
| Instructions | 3        |

```
      00 01 02 03 04 05 06 07  08 09 0A 0B 0C 0D 0E 0F
      -- -- -- -- -- -- -- --  -- -- -- -- -- -- -- --
0220:                             5F 06 1E 80 F8 FF FF           _......
0230: 7F F8 FF FF 7F 74 6C 6B  30 1F 80 5F 07 F8 FF FF  .....tlk0.._....
0240: 7F F8 FF FF 7F 74 6C 6B  30 00                    .....tlk0.      
```

#### Opcodes

```
  0: 0x0229 [0x5F] MULTI_HANDLER_COMPLEX(mode=0x06 - Load ext scheduler with flag (OpCode 0x5B mode 1, flag 1), ref=49*, entity1=EventEntity, entity2=EventEntity, string="tlk0", extra=90*)
  1: 0x023B [0x5F] MULTI_HANDLER_COMPLEX(mode=0x07 - Wait scheduler task (OpCode 0x53))
  2: 0x0249 [0x00] END_REQSTACK()
```

### Event 65535.11

#### Metadata

| Field        | Value    |
|--------------|----------|
| Entrypoint   | 0x024A   |
| Data Size    | 33 bytes |
| Instructions | 3        |

```
      00 01 02 03 04 05 06 07  08 09 0A 0B 0C 0D 0E 0F
      -- -- -- -- -- -- -- --  -- -- -- -- -- -- -- --
0240:                                5F 06 1E 80 F8 FF            _.....
0250: FF 7F F8 FF FF 7F 74 6C  6B 31 1F 80 5F 07 F8 FF  ......tlk1.._...
0260: FF 7F F8 FF FF 7F 74 6C  6B 31 00                 ......tlk1.     
```

#### Opcodes

```
  0: 0x024A [0x5F] MULTI_HANDLER_COMPLEX(mode=0x06 - Load ext scheduler with flag (OpCode 0x5B mode 1, flag 1), ref=49*, entity1=EventEntity, entity2=EventEntity, string="tlk1", extra=90*)
  1: 0x025C [0x5F] MULTI_HANDLER_COMPLEX(mode=0x07 - Wait scheduler task (OpCode 0x53))
  2: 0x026A [0x00] END_REQSTACK()
```

### Event 65535.12

#### Metadata

| Field        | Value    |
|--------------|----------|
| Entrypoint   | 0x026B   |
| Data Size    | 33 bytes |
| Instructions | 3        |

```
      00 01 02 03 04 05 06 07  08 09 0A 0B 0C 0D 0E 0F
      -- -- -- -- -- -- -- --  -- -- -- -- -- -- -- --
0260:                                   5F 06 1E 80 F8             _....
0270: FF FF 7F F8 FF FF 7F 74  68 6B 31 1F 80 5F 07 F8  .......thk1.._..
0280: FF FF 7F F8 FF FF 7F 74  68 6B 31 00              .......thk1.    
```

#### Opcodes

```
  0: 0x026B [0x5F] MULTI_HANDLER_COMPLEX(mode=0x06 - Load ext scheduler with flag (OpCode 0x5B mode 1, flag 1), ref=49*, entity1=EventEntity, entity2=EventEntity, string="thk1", extra=90*)
  1: 0x027D [0x5F] MULTI_HANDLER_COMPLEX(mode=0x07 - Wait scheduler task (OpCode 0x53))
  2: 0x028B [0x00] END_REQSTACK()
```

### Event 65535.13

#### Metadata

| Field        | Value    |
|--------------|----------|
| Entrypoint   | 0x028C   |
| Data Size    | 33 bytes |
| Instructions | 3        |

```
      00 01 02 03 04 05 06 07  08 09 0A 0B 0C 0D 0E 0F
      -- -- -- -- -- -- -- --  -- -- -- -- -- -- -- --
0280:                                      5F 06 1E 80              _...
0290: F8 FF FF 7F F8 FF FF 7F  74 68 6B 32 1F 80 5F 07  ........thk2.._.
02A0: F8 FF FF 7F F8 FF FF 7F  74 68 6B 32 00           ........thk2.   
```

#### Opcodes

```
  0: 0x028C [0x5F] MULTI_HANDLER_COMPLEX(mode=0x06 - Load ext scheduler with flag (OpCode 0x5B mode 1, flag 1), ref=49*, entity1=EventEntity, entity2=EventEntity, string="thk2", extra=90*)
  1: 0x029E [0x5F] MULTI_HANDLER_COMPLEX(mode=0x07 - Wait scheduler task (OpCode 0x53))
  2: 0x02AC [0x00] END_REQSTACK()
```

### Event 65535.14

#### Metadata

| Field        | Value    |
|--------------|----------|
| Entrypoint   | 0x02AD   |
| Data Size    | 33 bytes |
| Instructions | 3        |

```
      00 01 02 03 04 05 06 07  08 09 0A 0B 0C 0D 0E 0F
      -- -- -- -- -- -- -- --  -- -- -- -- -- -- -- --
02A0:                                         5F 06 20               _. 
02B0: 80 F8 FF FF 7F F8 FF FF  7F 74 6C 62 30 1F 80 5F  .........tlb0.._
02C0: 07 F8 FF FF 7F F8 FF FF  7F 74 6C 62 30 00        .........tlb0.  
```

#### Opcodes

```
  0: 0x02AD [0x5F] MULTI_HANDLER_COMPLEX(mode=0x06 - Load ext scheduler with flag (OpCode 0x5B mode 1, flag 1), ref=34*, entity1=EventEntity, entity2=EventEntity, string="tlb0", extra=90*)
  1: 0x02BF [0x5F] MULTI_HANDLER_COMPLEX(mode=0x07 - Wait scheduler task (OpCode 0x53))
  2: 0x02CD [0x00] END_REQSTACK()
```

### Event 65535.15

#### Metadata

| Field        | Value    |
|--------------|----------|
| Entrypoint   | 0x02CE   |
| Data Size    | 33 bytes |
| Instructions | 3        |

```
      00 01 02 03 04 05 06 07  08 09 0A 0B 0C 0D 0E 0F
      -- -- -- -- -- -- -- --  -- -- -- -- -- -- -- --
02C0:                                            5F 06                _.
02D0: 20 80 F8 FF FF 7F F8 FF  FF 7F 74 6C 62 31 1F 80   .........tlb1..
02E0: 5F 07 F8 FF FF 7F F8 FF  FF 7F 74 6C 62 31 00     _.........tlb1. 
```

#### Opcodes

```
  0: 0x02CE [0x5F] MULTI_HANDLER_COMPLEX(mode=0x06 - Load ext scheduler with flag (OpCode 0x5B mode 1, flag 1), ref=34*, entity1=EventEntity, entity2=EventEntity, string="tlb1", extra=90*)
  1: 0x02E0 [0x5F] MULTI_HANDLER_COMPLEX(mode=0x07 - Wait scheduler task (OpCode 0x53))
  2: 0x02EE [0x00] END_REQSTACK()
```

### Event 65535.16

#### Metadata

| Field        | Value    |
|--------------|----------|
| Entrypoint   | 0x02EF   |
| Data Size    | 33 bytes |
| Instructions | 3        |

```
      00 01 02 03 04 05 06 07  08 09 0A 0B 0C 0D 0E 0F
      -- -- -- -- -- -- -- --  -- -- -- -- -- -- -- --
02E0:                                               5F                 _
02F0: 06 21 80 F8 FF FF 7F F8  FF FF 7F 62 69 6B 30 1F  .!.........bik0.
0300: 80 5F 07 F8 FF FF 7F F8  FF FF 7F 62 69 6B 30 00  ._.........bik0.
```

#### Opcodes

```
  0: 0x02EF [0x5F] MULTI_HANDLER_COMPLEX(mode=0x06 - Load ext scheduler with flag (OpCode 0x5B mode 1, flag 1), ref=42*, entity1=EventEntity, entity2=EventEntity, string="bik0", extra=90*)
  1: 0x0301 [0x5F] MULTI_HANDLER_COMPLEX(mode=0x07 - Wait scheduler task (OpCode 0x53))
  2: 0x030F [0x00] END_REQSTACK()
```

### Event 65535.17

#### Metadata

| Field        | Value    |
|--------------|----------|
| Entrypoint   | 0x0310   |
| Data Size    | 33 bytes |
| Instructions | 3        |

```
      00 01 02 03 04 05 06 07  08 09 0A 0B 0C 0D 0E 0F
      -- -- -- -- -- -- -- --  -- -- -- -- -- -- -- --
0310: 5F 06 21 80 F8 FF FF 7F  F8 FF FF 7F 62 69 6B 31  _.!.........bik1
0320: 1F 80 5F 07 F8 FF FF 7F  F8 FF FF 7F 62 69 6B 31  .._.........bik1
0330: 00                                                .               
```

#### Opcodes

```
  0: 0x0310 [0x5F] MULTI_HANDLER_COMPLEX(mode=0x06 - Load ext scheduler with flag (OpCode 0x5B mode 1, flag 1), ref=42*, entity1=EventEntity, entity2=EventEntity, string="bik1", extra=90*)
  1: 0x0322 [0x5F] MULTI_HANDLER_COMPLEX(mode=0x07 - Wait scheduler task (OpCode 0x53))
  2: 0x0330 [0x00] END_REQSTACK()
```

### Event 65535.18

#### Metadata

| Field        | Value    |
|--------------|----------|
| Entrypoint   | 0x0331   |
| Data Size    | 33 bytes |
| Instructions | 3        |

```
      00 01 02 03 04 05 06 07  08 09 0A 0B 0C 0D 0E 0F
      -- -- -- -- -- -- -- --  -- -- -- -- -- -- -- --
0330:    5F 06 22 80 F8 FF FF  7F F8 FF FF 7F 70 6F 73   _.".........pos
0340: 30 23 80 5F 07 F8 FF FF  7F F8 FF FF 7F 70 6F 73  0#._.........pos
0350: 30 00                                             0.              
```

#### Opcodes

```
  0: 0x0331 [0x5F] MULTI_HANDLER_COMPLEX(mode=0x06 - Load ext scheduler with flag (OpCode 0x5B mode 1, flag 1), ref=114*, entity1=EventEntity, entity2=EventEntity, string="pos0", extra=56*)
  1: 0x0343 [0x5F] MULTI_HANDLER_COMPLEX(mode=0x07 - Wait scheduler task (OpCode 0x53))
  2: 0x0351 [0x00] END_REQSTACK()
```

### Event 65535.19

#### Metadata

| Field        | Value    |
|--------------|----------|
| Entrypoint   | 0x0352   |
| Data Size    | 45 bytes |
| Instructions | 5        |

```
      00 01 02 03 04 05 06 07  08 09 0A 0B 0C 0D 0E 0F
      -- -- -- -- -- -- -- --  -- -- -- -- -- -- -- --
0350:       81 00 F8 FF FF 7F  5F 06 08 80 F8 FF FF 7F    ......_.......
0360: F8 FF FF 7F 6D 6F 6E 30  09 80 5F 07 F8 FF FF 7F  ....mon0.._.....
0370: F8 FF FF 7F 6D 6F 6E 30  81 01 F8 FF FF 7F 00     ....mon0....... 
```

#### Opcodes

```
  0: 0x0352 [0x81] SET_ENTITY_BLINKING(blink_flag=0x00, entity=EventEntity)
  1: 0x0358 [0x5F] MULTI_HANDLER_COMPLEX(mode=0x06 - Load ext scheduler with flag (OpCode 0x5B mode 1, flag 1), ref=35*, entity1=EventEntity, entity2=EventEntity, string="mon0", extra=200*)
  2: 0x036A [0x5F] MULTI_HANDLER_COMPLEX(mode=0x07 - Wait scheduler task (OpCode 0x53))
  3: 0x0378 [0x81] SET_ENTITY_BLINKING(blink_flag=0x01, entity=EventEntity)
  4: 0x037E [0x00] END_REQSTACK()
```

### Event 65535.20

#### Metadata

| Field        | Value    |
|--------------|----------|
| Entrypoint   | 0x037F   |
| Data Size    | 57 bytes |
| Instructions | 7        |

```
      00 01 02 03 04 05 06 07  08 09 0A 0B 0C 0D 0E 0F
      -- -- -- -- -- -- -- --  -- -- -- -- -- -- -- --
0370:                                               81                 .
0380: 00 F8 FF FF 7F 7C 00 F8  FF FF 7F 5F 05 24 80 F8  .....|....._.$..
0390: FF FF 7F F8 FF FF 7F 79  67 6F 30 25 80 5F 07 F8  .......ygo0%._..
03A0: FF FF 7F F8 FF FF 7F 79  67 6F 30 81 01 F8 FF FF  .......ygo0.....
03B0: 7F 7C 01 F8 FF FF 7F 00                           .|......        
```

#### Opcodes

```
  0: 0x037F [0x81] SET_ENTITY_BLINKING(blink_flag=0x00, entity=EventEntity)
  1: 0x0385 [0x7C] EventEntity->Render.Flags2 |= 0x00
  2: 0x038B [0x5F] MULTI_HANDLER_COMPLEX(mode=0x05 - Load ext scheduler with flag (OpCode 0x5B mode 0, flag 1), ref=2049*, entity1=EventEntity, entity2=EventEntity, string="ygo0", extra=176*)
  3: 0x039D [0x5F] MULTI_HANDLER_COMPLEX(mode=0x07 - Wait scheduler task (OpCode 0x53))
  4: 0x03AB [0x81] SET_ENTITY_BLINKING(blink_flag=0x01, entity=EventEntity)
  5: 0x03B1 [0x7C] EventEntity->Render.Flags2 |= 0x01
  6: 0x03B7 [0x00] END_REQSTACK()
```

### Event 65535.21

#### Metadata

| Field        | Value    |
|--------------|----------|
| Entrypoint   | 0x03B8   |
| Data Size    | 57 bytes |
| Instructions | 7        |

```
      00 01 02 03 04 05 06 07  08 09 0A 0B 0C 0D 0E 0F
      -- -- -- -- -- -- -- --  -- -- -- -- -- -- -- --
03B0:                          81 00 F8 FF FF 7F 7C 00          ......|.
03C0: F8 FF FF 7F 5F 05 26 80  F8 FF FF 7F F8 FF FF 7F  ...._.&.........
03D0: 67 61 68 32 07 80 5F 07  F8 FF FF 7F F8 FF FF 7F  gah2.._.........
03E0: 67 61 68 32 81 01 F8 FF  FF 7F 7C 01 F8 FF FF 7F  gah2......|.....
03F0: 00                                                .               
```

#### Opcodes

```
  0: 0x03B8 [0x81] SET_ENTITY_BLINKING(blink_flag=0x00, entity=EventEntity)
  1: 0x03BE [0x7C] EventEntity->Render.Flags2 |= 0x00
  2: 0x03C4 [0x5F] MULTI_HANDLER_COMPLEX(mode=0x05 - Load ext scheduler with flag (OpCode 0x5B mode 0, flag 1), ref=1373*, entity1=EventEntity, entity2=EventEntity, string="gah2", extra=150*)
  3: 0x03D6 [0x5F] MULTI_HANDLER_COMPLEX(mode=0x07 - Wait scheduler task (OpCode 0x53))
  4: 0x03E4 [0x81] SET_ENTITY_BLINKING(blink_flag=0x01, entity=EventEntity)
  5: 0x03EA [0x7C] EventEntity->Render.Flags2 |= 0x01
  6: 0x03F0 [0x00] END_REQSTACK()
```

### Event 65535.22

#### Metadata

| Field        | Value    |
|--------------|----------|
| Entrypoint   | 0x03F1   |
| Data Size    | 16 bytes |
| Instructions | 4        |

```
      00 01 02 03 04 05 06 07  08 09 0A 0B 0C 0D 0E 0F
      -- -- -- -- -- -- -- --  -- -- -- -- -- -- -- --
03F0:    6E F8 FF FF 7F 27 80  99 F8 FF FF 7F 1C 07 80   n....'.........
0400: 00                                                .               
```

#### Opcodes

```
  0: 0x03F1 [0x6E] EventEntity uses emote 8*
  1: 0x03F8 [0x99] Wait for EventEntity animation to complete
  2: 0x03FD [0x1C] WAIT(150* ticks)
  3: 0x0400 [0x00] END_REQSTACK()
```

### Event 65535.23

#### Metadata

| Field        | Value    |
|--------------|----------|
| Entrypoint   | 0x0401   |
| Data Size    | 16 bytes |
| Instructions | 4        |

```
      00 01 02 03 04 05 06 07  08 09 0A 0B 0C 0D 0E 0F
      -- -- -- -- -- -- -- --  -- -- -- -- -- -- -- --
0400:    6E F8 FF FF 7F 0D 80  99 F8 FF FF 7F 1C 0E 80   n..............
0410: 00                                                .               
```

#### Opcodes

```
  0: 0x0401 [0x6E] EventEntity uses emote 7*
  1: 0x0408 [0x99] Wait for EventEntity animation to complete
  2: 0x040D [0x1C] WAIT(60* ticks)
  3: 0x0410 [0x00] END_REQSTACK()
```

### Event 65535.24

#### Metadata

| Field        | Value    |
|--------------|----------|
| Entrypoint   | 0x0411   |
| Data Size    | 16 bytes |
| Instructions | 4        |

```
      00 01 02 03 04 05 06 07  08 09 0A 0B 0C 0D 0E 0F
      -- -- -- -- -- -- -- --  -- -- -- -- -- -- -- --
0410:    6E F8 FF FF 7F 04 80  99 F8 FF FF 7F 1C 07 80   n..............
0420: 00                                                .               
```

#### Opcodes

```
  0: 0x0411 [0x6E] EventEntity uses emote 22*
  1: 0x0418 [0x99] Wait for EventEntity animation to complete
  2: 0x041D [0x1C] WAIT(150* ticks)
  3: 0x0420 [0x00] END_REQSTACK()
```

### Event 65535.25

#### Metadata

| Field        | Value    |
|--------------|----------|
| Entrypoint   | 0x0421   |
| Data Size    | 19 bytes |
| Instructions | 3        |

```
      00 01 02 03 04 05 06 07  08 09 0A 0B 0C 0D 0E 0F
      -- -- -- -- -- -- -- --  -- -- -- -- -- -- -- --
0420:    66 00 80 F8 FF FF 7F  F8 FF FF 7F 74 6C 6B 30   f..........tlk0
0430: 1C 00 17 00                                       ....            
```

#### Opcodes

```
  0: 0x0421 [0x66] LOAD_EXT_SCHEDULER_MAIN: Load scheduler "tlk0" with entities [EventEntity, EventEntity], work=189*
  1: 0x0430 [0x1C] WAIT(Work_Zone_1700[0] ticks)
  2: 0x0433 [0x00] END_REQSTACK()
```

### Event 65535.26

#### Metadata

| Field        | Value    |
|--------------|----------|
| Entrypoint   | 0x0434   |
| Data Size    | 19 bytes |
| Instructions | 3        |

```
      00 01 02 03 04 05 06 07  08 09 0A 0B 0C 0D 0E 0F
      -- -- -- -- -- -- -- --  -- -- -- -- -- -- -- --
0430:             66 1E 80 F8  FF FF 7F F8 FF FF 7F 74      f..........t
0440: 6C 6B 30 1C 00 17 00                              lk0....         
```

#### Opcodes

```
  0: 0x0434 [0x66] LOAD_EXT_SCHEDULER_MAIN: Load scheduler "tlk0" with entities [EventEntity, EventEntity], work=49*
  1: 0x0443 [0x1C] WAIT(Work_Zone_1700[0] ticks)
  2: 0x0446 [0x00] END_REQSTACK()
```

### Event 65535.27

#### Metadata

| Field        | Value    |
|--------------|----------|
| Entrypoint   | 0x0447   |
| Data Size    | 19 bytes |
| Instructions | 3        |

```
      00 01 02 03 04 05 06 07  08 09 0A 0B 0C 0D 0E 0F
      -- -- -- -- -- -- -- --  -- -- -- -- -- -- -- --
0440:                      66  03 80 F8 FF FF 7F F8 FF         f........
0450: FF 7F 74 6C 6B 30 1C 00  17 00                    ..tlk0....      
```

#### Opcodes

```
  0: 0x0447 [0x66] LOAD_EXT_SCHEDULER_MAIN: Load scheduler "tlk0" with entities [EventEntity, EventEntity], work=40*
  1: 0x0456 [0x1C] WAIT(Work_Zone_1700[0] ticks)
  2: 0x0459 [0x00] END_REQSTACK()
```

### Event 65535.28

#### Metadata

| Field        | Value    |
|--------------|----------|
| Entrypoint   | 0x045A   |
| Data Size    | 19 bytes |
| Instructions | 3        |

```
      00 01 02 03 04 05 06 07  08 09 0A 0B 0C 0D 0E 0F
      -- -- -- -- -- -- -- --  -- -- -- -- -- -- -- --
0450:                                66 28 80 F8 FF FF            f(....
0460: 7F F8 FF FF 7F 65 68 6E  30 1C 00 17 00           .....ehn0....   
```

#### Opcodes

```
  0: 0x045A [0x66] LOAD_EXT_SCHEDULER_MAIN: Load scheduler "ehn0" with entities [EventEntity, EventEntity], work=41*
  1: 0x0469 [0x1C] WAIT(Work_Zone_1700[0] ticks)
  2: 0x046C [0x00] END_REQSTACK()
```

### Event 65535.29

#### Metadata

| Field        | Value    |
|--------------|----------|
| Entrypoint   | 0x046D   |
| Data Size    | 19 bytes |
| Instructions | 3        |

```
      00 01 02 03 04 05 06 07  08 09 0A 0B 0C 0D 0E 0F
      -- -- -- -- -- -- -- --  -- -- -- -- -- -- -- --
0460:                                         66 22 80               f".
0470: F8 FF FF 7F F8 FF FF 7F  70 6F 73 30 1C 00 17 00  ........pos0....
```

#### Opcodes

```
  0: 0x046D [0x66] LOAD_EXT_SCHEDULER_MAIN: Load scheduler "pos0" with entities [EventEntity, EventEntity], work=114*
  1: 0x047C [0x1C] WAIT(Work_Zone_1700[0] ticks)
  2: 0x047F [0x00] END_REQSTACK()
```

### Event 65535.30

#### Metadata

| Field        | Value    |
|--------------|----------|
| Entrypoint   | 0x0480   |
| Data Size    | 19 bytes |
| Instructions | 3        |

```
      00 01 02 03 04 05 06 07  08 09 0A 0B 0C 0D 0E 0F
      -- -- -- -- -- -- -- --  -- -- -- -- -- -- -- --
0480: 66 03 80 F8 FF FF 7F F8  FF FF 7F 73 79 75 30 1C  f..........syu0.
0490: 00 17 00                                          ...             
```

#### Opcodes

```
  0: 0x0480 [0x66] LOAD_EXT_SCHEDULER_MAIN: Load scheduler "syu0" with entities [EventEntity, EventEntity], work=40*
  1: 0x048F [0x1C] WAIT(Work_Zone_1700[0] ticks)
  2: 0x0492 [0x00] END_REQSTACK()
```

### Event 65535.31

#### Metadata

| Field        | Value    |
|--------------|----------|
| Entrypoint   | 0x0493   |
| Data Size    | 19 bytes |
| Instructions | 3        |

```
      00 01 02 03 04 05 06 07  08 09 0A 0B 0C 0D 0E 0F
      -- -- -- -- -- -- -- --  -- -- -- -- -- -- -- --
0490:          66 03 80 F8 FF  FF 7F F8 FF FF 7F 74 68     f..........th
04A0: 6B 31 1C 00 17 00                                 k1....          
```

#### Opcodes

```
  0: 0x0493 [0x66] LOAD_EXT_SCHEDULER_MAIN: Load scheduler "thk1" with entities [EventEntity, EventEntity], work=40*
  1: 0x04A2 [0x1C] WAIT(Work_Zone_1700[0] ticks)
  2: 0x04A5 [0x00] END_REQSTACK()
```

### Event 65535.32

#### Metadata

| Field        | Value    |
|--------------|----------|
| Entrypoint   | 0x04A6   |
| Data Size    | 19 bytes |
| Instructions | 3        |

```
      00 01 02 03 04 05 06 07  08 09 0A 0B 0C 0D 0E 0F
      -- -- -- -- -- -- -- --  -- -- -- -- -- -- -- --
04A0:                   5B 24  80 F8 FF FF 7F F8 FF FF        [$........
04B0: 7F 79 67 6F 30 1C 00 17  00                       .ygo0....       
```

#### Opcodes

```
  0: 0x04A6 [0x5B] LOAD_EXT_SCHEDULER: Load scheduler "ygo0" with entities [EventEntity, EventEntity], work=2049*
  1: 0x04B5 [0x1C] WAIT(Work_Zone_1700[0] ticks)
  2: 0x04B8 [0x00] END_REQSTACK()
```

### Event 65535.33

#### Metadata

| Field        | Value    |
|--------------|----------|
| Entrypoint   | 0x04B9   |
| Data Size    | 19 bytes |
| Instructions | 3        |

```
      00 01 02 03 04 05 06 07  08 09 0A 0B 0C 0D 0E 0F
      -- -- -- -- -- -- -- --  -- -- -- -- -- -- -- --
04B0:                             66 03 80 F8 FF FF 7F           f......
04C0: F8 FF FF 7F 69 72 6F 30  1C 00 17 00              ....iro0....    
```

#### Opcodes

```
  0: 0x04B9 [0x66] LOAD_EXT_SCHEDULER_MAIN: Load scheduler "iro0" with entities [EventEntity, EventEntity], work=40*
  1: 0x04C8 [0x1C] WAIT(Work_Zone_1700[0] ticks)
  2: 0x04CB [0x00] END_REQSTACK()
```

### Event 65535.34

#### Metadata

| Field        | Value    |
|--------------|----------|
| Entrypoint   | 0x04CC   |
| Data Size    | 19 bytes |
| Instructions | 3        |

```
      00 01 02 03 04 05 06 07  08 09 0A 0B 0C 0D 0E 0F
      -- -- -- -- -- -- -- --  -- -- -- -- -- -- -- --
04C0:                                      66 20 80 F8              f ..
04D0: FF FF 7F F8 FF FF 7F 77  61 76 30 1C 00 17 00     .......wav0.... 
```

#### Opcodes

```
  0: 0x04CC [0x66] LOAD_EXT_SCHEDULER_MAIN: Load scheduler "wav0" with entities [EventEntity, EventEntity], work=34*
  1: 0x04DB [0x1C] WAIT(Work_Zone_1700[0] ticks)
  2: 0x04DE [0x00] END_REQSTACK()
```

### Event 65535.35

#### Metadata

| Field        | Value    |
|--------------|----------|
| Entrypoint   | 0x04DF   |
| Data Size    | 19 bytes |
| Instructions | 3        |

```
      00 01 02 03 04 05 06 07  08 09 0A 0B 0C 0D 0E 0F
      -- -- -- -- -- -- -- --  -- -- -- -- -- -- -- --
04D0:                                               66                 f
04E0: 28 80 F8 FF FF 7F F8 FF  FF 7F 73 68 6B 30 1C 00  (.........shk0..
04F0: 17 00                                             ..              
```

#### Opcodes

```
  0: 0x04DF [0x66] LOAD_EXT_SCHEDULER_MAIN: Load scheduler "shk0" with entities [EventEntity, EventEntity], work=41*
  1: 0x04EE [0x1C] WAIT(Work_Zone_1700[0] ticks)
  2: 0x04F1 [0x00] END_REQSTACK()
```

### Event 65535.36

#### Metadata

| Field        | Value    |
|--------------|----------|
| Entrypoint   | 0x04F2   |
| Data Size    | 19 bytes |
| Instructions | 3        |

```
      00 01 02 03 04 05 06 07  08 09 0A 0B 0C 0D 0E 0F
      -- -- -- -- -- -- -- --  -- -- -- -- -- -- -- --
04F0:       66 21 80 F8 FF FF  7F F8 FF FF 7F 62 69 6B    f!.........bik
0500: 30 1C 00 17 00                                    0....           
```

#### Opcodes

```
  0: 0x04F2 [0x66] LOAD_EXT_SCHEDULER_MAIN: Load scheduler "bik0" with entities [EventEntity, EventEntity], work=42*
  1: 0x0501 [0x1C] WAIT(Work_Zone_1700[0] ticks)
  2: 0x0504 [0x00] END_REQSTACK()
```

### Event 65535.37

#### Metadata

| Field        | Value    |
|--------------|----------|
| Entrypoint   | 0x0505   |
| Data Size    | 19 bytes |
| Instructions | 3        |

```
      00 01 02 03 04 05 06 07  08 09 0A 0B 0C 0D 0E 0F
      -- -- -- -- -- -- -- --  -- -- -- -- -- -- -- --
0500:                66 21 80  F8 FF FF 7F F8 FF FF 7F       f!.........
0510: 74 65 68 30 1C 00 17 00                           teh0....        
```

#### Opcodes

```
  0: 0x0505 [0x66] LOAD_EXT_SCHEDULER_MAIN: Load scheduler "teh0" with entities [EventEntity, EventEntity], work=42*
  1: 0x0514 [0x1C] WAIT(Work_Zone_1700[0] ticks)
  2: 0x0517 [0x00] END_REQSTACK()
```

### Event 65535.38

#### Metadata

| Field        | Value    |
|--------------|----------|
| Entrypoint   | 0x0518   |
| Data Size    | 19 bytes |
| Instructions | 3        |

```
      00 01 02 03 04 05 06 07  08 09 0A 0B 0C 0D 0E 0F
      -- -- -- -- -- -- -- --  -- -- -- -- -- -- -- --
0510:                          66 03 80 F8 FF FF 7F F8          f.......
0520: FF FF 7F 70 61 73 30 1C  00 17 00                 ...pas0....     
```

#### Opcodes

```
  0: 0x0518 [0x66] LOAD_EXT_SCHEDULER_MAIN: Load scheduler "pas0" with entities [EventEntity, EventEntity], work=40*
  1: 0x0527 [0x1C] WAIT(Work_Zone_1700[0] ticks)
  2: 0x052A [0x00] END_REQSTACK()
```

### Event 65535.39

#### Metadata

| Field        | Value    |
|--------------|----------|
| Entrypoint   | 0x052B   |
| Data Size    | 19 bytes |
| Instructions | 3        |

```
      00 01 02 03 04 05 06 07  08 09 0A 0B 0C 0D 0E 0F
      -- -- -- -- -- -- -- --  -- -- -- -- -- -- -- --
0520:                                   66 22 80 F8 FF             f"...
0530: FF 7F F8 FF FF 7F 70 69  61 6C 1C 00 17 00        ......pial....  
```

#### Opcodes

```
  0: 0x052B [0x66] LOAD_EXT_SCHEDULER_MAIN: Load scheduler "pial" with entities [EventEntity, EventEntity], work=114*
  1: 0x053A [0x1C] WAIT(Work_Zone_1700[0] ticks)
  2: 0x053D [0x00] END_REQSTACK()
```

### Event 65535.40

#### Metadata

| Field        | Value    |
|--------------|----------|
| Entrypoint   | 0x053E   |
| Data Size    | 19 bytes |
| Instructions | 3        |

```
      00 01 02 03 04 05 06 07  08 09 0A 0B 0C 0D 0E 0F
      -- -- -- -- -- -- -- --  -- -- -- -- -- -- -- --
0530:                                            66 21                f!
0540: 80 F8 FF FF 7F F8 FF FF  7F 6D 73 75 30 1C 00 17  .........msu0...
0550: 00                                                .               
```

#### Opcodes

```
  0: 0x053E [0x66] LOAD_EXT_SCHEDULER_MAIN: Load scheduler "msu0" with entities [EventEntity, EventEntity], work=42*
  1: 0x054D [0x1C] WAIT(Work_Zone_1700[0] ticks)
  2: 0x0550 [0x00] END_REQSTACK()
```

### Event 65535.41

#### Metadata

| Field        | Value    |
|--------------|----------|
| Entrypoint   | 0x0551   |
| Data Size    | 19 bytes |
| Instructions | 3        |

```
      00 01 02 03 04 05 06 07  08 09 0A 0B 0C 0D 0E 0F
      -- -- -- -- -- -- -- --  -- -- -- -- -- -- -- --
0550:    66 21 80 F8 FF FF 7F  F8 FF FF 7F 6E 6D 6F 30   f!.........nmo0
0560: 1C 00 17 00                                       ....            
```

#### Opcodes

```
  0: 0x0551 [0x66] LOAD_EXT_SCHEDULER_MAIN: Load scheduler "nmo0" with entities [EventEntity, EventEntity], work=42*
  1: 0x0560 [0x1C] WAIT(Work_Zone_1700[0] ticks)
  2: 0x0563 [0x00] END_REQSTACK()
```

### Event 65535.42

#### Metadata

| Field        | Value    |
|--------------|----------|
| Entrypoint   | 0x0564   |
| Data Size    | 15 bytes |
| Instructions | 5        |

```
      00 01 02 03 04 05 06 07  08 09 0A 0B 0C 0D 0E 0F
      -- -- -- -- -- -- -- --  -- -- -- -- -- -- -- --
0560:             32 11 80 1F  00 29 80 2A 80 2B 80 1F      2....).*.+..
0570: 01 6F 00                                          .o.             
```

#### Opcodes

```
  0: 0x0564 [0x32] ExtData[1]->MainSpeed = 13* * 0.1
  1: 0x0567 [0x1F] MOVE_ENTITY: EventEntity moves to X=91.260*, Z=-71.474*, Y=-0.706*
  2: 0x056F [0x1F] MOVE_ENTITY: Update entity position (mode=1)
  3: 0x0571 [0x6F] WAIT_FRAME_DELAY: Yield until WaitTime reaches zero
  4: 0x0572 [0x00] END_REQSTACK()
```

### Event 65535.43

#### Metadata

| Field        | Value    |
|--------------|----------|
| Entrypoint   | 0x0573   |
| Data Size    | 15 bytes |
| Instructions | 5        |

```
      00 01 02 03 04 05 06 07  08 09 0A 0B 0C 0D 0E 0F
      -- -- -- -- -- -- -- --  -- -- -- -- -- -- -- --
0570:          32 03 80 1F 00  2C 80 2D 80 2E 80 1F 01     2....,.-.....
0580: 6F 00                                             o.              
```

#### Opcodes

```
  0: 0x0573 [0x32] ExtData[1]->MainSpeed = 40* * 0.1
  1: 0x0576 [0x1F] MOVE_ENTITY: EventEntity moves to X=93.700*, Z=-73.900*, Y=-0.651*
  2: 0x057E [0x1F] MOVE_ENTITY: Update entity position (mode=1)
  3: 0x0580 [0x6F] WAIT_FRAME_DELAY: Yield until WaitTime reaches zero
  4: 0x0581 [0x00] END_REQSTACK()
```

### Event 65535.44

#### Metadata

| Field        | Value    |
|--------------|----------|
| Entrypoint   | 0x0582   |
| Data Size    | 20 bytes |
| Instructions | 6        |

```
      00 01 02 03 04 05 06 07  08 09 0A 0B 0C 0D 0E 0F
      -- -- -- -- -- -- -- --  -- -- -- -- -- -- -- --
0580:       32 11 80 1F 00 2F  80 30 80 2E 80 1F 01 6F    2..../.0.....o
0590: 1E AC 00 10 01 00                                 ......          
```

#### Opcodes

```
  0: 0x0582 [0x32] ExtData[1]->MainSpeed = 13* * 0.1
  1: 0x0585 [0x1F] MOVE_ENTITY: EventEntity moves to X=92.680*, Z=-74.160*, Y=-0.651*
  2: 0x058D [0x1F] MOVE_ENTITY: Update entity position (mode=1)
  3: 0x058F [0x6F] WAIT_FRAME_DELAY: Yield until WaitTime reaches zero
  4: 0x0590 [0x1E] EventEntity looks at Gratzigg (ID: 17825964/0x011000AC) and starts talking
  5: 0x0595 [0x00] END_REQSTACK()
```

### Event 65535.45

#### Metadata

| Field        | Value    |
|--------------|----------|
| Entrypoint   | 0x0596   |
| Data Size    | 15 bytes |
| Instructions | 5        |

```
      00 01 02 03 04 05 06 07  08 09 0A 0B 0C 0D 0E 0F
      -- -- -- -- -- -- -- --  -- -- -- -- -- -- -- --
0590:                   32 03  80 1F 00 31 80 32 80 2E        2....1.2..
05A0: 80 1F 01 6F 00                                    ...o.           
```

#### Opcodes

```
  0: 0x0596 [0x32] ExtData[1]->MainSpeed = 40* * 0.1
  1: 0x0599 [0x1F] MOVE_ENTITY: EventEntity moves to X=97.028*, Z=-78.013*, Y=-0.651*
  2: 0x05A1 [0x1F] MOVE_ENTITY: Update entity position (mode=1)
  3: 0x05A3 [0x6F] WAIT_FRAME_DELAY: Yield until WaitTime reaches zero
  4: 0x05A4 [0x00] END_REQSTACK()
```

### Event 65535.46

#### Metadata

| Field        | Value    |
|--------------|----------|
| Entrypoint   | 0x05A5   |
| Data Size    | 14 bytes |
| Instructions | 4        |

```
      00 01 02 03 04 05 06 07  08 09 0A 0B 0C 0D 0E 0F
      -- -- -- -- -- -- -- --  -- -- -- -- -- -- -- --
05A0:                32 11 80  1F 00 33 80 2D 80 2E 80       2....3.-...
05B0: 1F 01 00                                          ...             
```

#### Opcodes

```
  0: 0x05A5 [0x32] ExtData[1]->MainSpeed = 13* * 0.1
  1: 0x05A8 [0x1F] MOVE_ENTITY: EventEntity moves to X=93.750*, Z=-73.900*, Y=-0.651*
  2: 0x05B0 [0x1F] MOVE_ENTITY: Update entity position (mode=1)
  3: 0x05B2 [0x00] END_REQSTACK()
```

### Event 65535.47

#### Metadata

| Field        | Value    |
|--------------|----------|
| Entrypoint   | 0x05B3   |
| Data Size    | 14 bytes |
| Instructions | 4        |

```
      00 01 02 03 04 05 06 07  08 09 0A 0B 0C 0D 0E 0F
      -- -- -- -- -- -- -- --  -- -- -- -- -- -- -- --
05B0:          32 11 80 1F 00  34 80 35 80 2E 80 1F 01     2....4.5.....
05C0: 00                                                .               
```

#### Opcodes

```
  0: 0x05B3 [0x32] ExtData[1]->MainSpeed = 13* * 0.1
  1: 0x05B6 [0x1F] MOVE_ENTITY: EventEntity moves to X=94.281*, Z=-74.387*, Y=-0.651*
  2: 0x05BE [0x1F] MOVE_ENTITY: Update entity position (mode=1)
  3: 0x05C0 [0x00] END_REQSTACK()
```

### Event 65535.48

#### Metadata

| Field        | Value    |
|--------------|----------|
| Entrypoint   | 0x05C1   |
| Data Size    | 22 bytes |
| Instructions | 8        |

```
      00 01 02 03 04 05 06 07  08 09 0A 0B 0C 0D 0E 0F
      -- -- -- -- -- -- -- --  -- -- -- -- -- -- -- --
05C0:    39 36 80 6F 70 1C 37  80 32 11 80 1F 00 38 80   96.op.7.2....8.
05D0: 39 80 3A 80 1F 01 00                              9.:....         
```

#### Opcodes

```
  0: 0x05C1 [0x39] SET_ENTITY_DIRECTION(direction=11.2*)
  1: 0x05C4 [0x6F] WAIT_FRAME_DELAY: Yield until WaitTime reaches zero
  2: 0x05C5 [0x70] WAIT_ENTITY_RENDER_FLAG: Wait while EventEntity->Render.Flags3 bit 2 is set (cancel turn if not)
  3: 0x05C6 [0x1C] WAIT(10* ticks)
  4: 0x05C9 [0x32] ExtData[1]->MainSpeed = 13* * 0.1
  5: 0x05CC [0x1F] MOVE_ENTITY: EventEntity moves to X=88.520*, Z=-74.140*, Y=-0.650*
  6: 0x05D4 [0x1F] MOVE_ENTITY: Update entity position (mode=1)
  7: 0x05D6 [0x00] END_REQSTACK()
```

### Event 65535.49

#### Metadata

| Field        | Value    |
|--------------|----------|
| Entrypoint   | 0x05D7   |
| Data Size    | 14 bytes |
| Instructions | 4        |

```
      00 01 02 03 04 05 06 07  08 09 0A 0B 0C 0D 0E 0F
      -- -- -- -- -- -- -- --  -- -- -- -- -- -- -- --
05D0:                      32  0A 80 1F 00 3B 80 30 80         2....;.0.
05E0: 3A 80 1F 01 00                                    :....           
```

#### Opcodes

```
  0: 0x05D7 [0x32] ExtData[1]->MainSpeed = 30* * 0.1
  1: 0x05DA [0x1F] MOVE_ENTITY: EventEntity moves to X=90.720*, Z=-74.160*, Y=-0.650*
  2: 0x05E2 [0x1F] MOVE_ENTITY: Update entity position (mode=1)
  3: 0x05E4 [0x00] END_REQSTACK()
```

### Event 65535.50

#### Metadata

| Field        | Value    |
|--------------|----------|
| Entrypoint   | 0x05E5   |
| Data Size    | 14 bytes |
| Instructions | 4        |

```
      00 01 02 03 04 05 06 07  08 09 0A 0B 0C 0D 0E 0F
      -- -- -- -- -- -- -- --  -- -- -- -- -- -- -- --
05E0:                32 03 80  1F 00 3C 80 3D 80 3E 80       2....<.=.>.
05F0: 1F 01 00                                          ...             
```

#### Opcodes

```
  0: 0x05E5 [0x32] ExtData[1]->MainSpeed = 40* * 0.1
  1: 0x05E8 [0x1F] MOVE_ENTITY: EventEntity moves to X=64.000*, Z=122.000*, Y=32.000*
  2: 0x05F0 [0x1F] MOVE_ENTITY: Update entity position (mode=1)
  3: 0x05F2 [0x00] END_REQSTACK()
```

### Event 65535.51

#### Metadata

| Field        | Value    |
|--------------|----------|
| Entrypoint   | 0x05F3   |
| Data Size    | 34 bytes |
| Instructions | 8        |

```
      00 01 02 03 04 05 06 07  08 09 0A 0B 0C 0D 0E 0F
      -- -- -- -- -- -- -- --  -- -- -- -- -- -- -- --
05F0:          32 03 80 1F 00  3F 80 40 80 3E 80 1F 01     2....?.@.>...
0600: 1F 00 41 80 42 80 3E 80  1F 01 1F 00 43 80 44 80  ..A.B.>.....C.D.
0610: 3E 80 1F 01 00                                    >....           
```

#### Opcodes

```
  0: 0x05F3 [0x32] ExtData[1]->MainSpeed = 40* * 0.1
  1: 0x05F6 [0x1F] MOVE_ENTITY: EventEntity moves to X=29.200*, Z=101.650*, Y=32.000*
  2: 0x05FE [0x1F] MOVE_ENTITY: Update entity position (mode=1)
  3: 0x0600 [0x1F] MOVE_ENTITY: EventEntity moves to X=24.270*, Z=100.200*, Y=32.000*
  4: 0x0608 [0x1F] MOVE_ENTITY: Update entity position (mode=1)
  5: 0x060A [0x1F] MOVE_ENTITY: EventEntity moves to X=12.420*, Z=99.860*, Y=32.000*
  6: 0x0612 [0x1F] MOVE_ENTITY: Update entity position (mode=1)
  7: 0x0614 [0x00] END_REQSTACK()
```

### Event 65535.52

#### Metadata

| Field        | Value    |
|--------------|----------|
| Entrypoint   | 0x0615   |
| Data Size    | 14 bytes |
| Instructions | 4        |

```
      00 01 02 03 04 05 06 07  08 09 0A 0B 0C 0D 0E 0F
      -- -- -- -- -- -- -- --  -- -- -- -- -- -- -- --
0610:                32 11 80  1F 00 45 80 46 80 47 80       2....E.F.G.
0620: 1F 01 00                                          ...             
```

#### Opcodes

```
  0: 0x0615 [0x32] ExtData[1]->MainSpeed = 13* * 0.1
  1: 0x0618 [0x1F] MOVE_ENTITY: EventEntity moves to X=722.300*, Z=-135.000*, Y=-137.350*
  2: 0x0620 [0x1F] MOVE_ENTITY: Update entity position (mode=1)
  3: 0x0622 [0x00] END_REQSTACK()
```
