# 17826078 - Safrick

## Common Data

| Field            | Value                     |
|------------------|---------------------------|
| Zone             | Western Adoulin (ID: 256) |
| Block Size       | 312 bytes                 |
| Total Events     | 14                        |
| References Count | 19                        |

## List of Events

| Event ID                 | Entrypoint   |   Size |   Instructions |
|--------------------------|--------------|--------|----------------|
| [65535](#event-65535)    | 0x0000       |      1 |              1 |
| [551](#event-551)        | 0x0001       |     51 |             13 |
| [2](#event-2)            | 0x0034       |      1 |              1 |
| [65535.1](#event-655351) | 0x0035       |     18 |              6 |
| [65535.2](#event-655352) | 0x0047       |     15 |              5 |
| [65535.3](#event-655353) | 0x0056       |     24 |              3 |
| [65535.4](#event-655354) | 0x006E       |     24 |              3 |
| [65535.5](#event-655355) | 0x0086       |     24 |              3 |
| [89](#event-89)          | 0x009E       |      1 |              1 |
| [93](#event-93)          | 0x009F       |      1 |              1 |
| [94](#event-94)          | 0x00A0       |      1 |              1 |
| [95](#event-95)          | 0x00A1       |      1 |              1 |
| [96](#event-96)          | 0x00A2       |      1 |              1 |
| [97](#event-97)          | 0x00A3       |      1 |              1 |

## DAT References (imed_data)

|   Index | Hex Value   |   Dec Value |
|---------|-------------|-------------|
|       0 | 0x0000      |           0 |
|       1 | 0x265F      |        9823 |
|       2 | 0x2660      |        9824 |
|       3 | 0x2661      |        9825 |
|       4 | 0x000F      |          15 |
|       5 | 0x0028      |          40 |
|       6 | 0x1246C     |       74860 |
|       7 | 0x25826     |      153638 |
|       8 | 0x7CFF      |       31999 |
|       9 | 0x51AA4     |      334500 |
|      10 | 0xFFFF9E58  |  4294942296 |
|      11 | 0x0F9F      |        3999 |
|      12 | 0x0001      |           1 |
|      13 | 0x0009      |           9 |
|      14 | 0x0018      |          24 |
|      15 | 0x0031      |          49 |
|      16 | 0x00AB      |         171 |
|      17 | 0x0063      |          99 |
|      18 | 0x0004      |           4 |

## String References

- **9823**: Move it! Out of the way! I'm on my way to breaking my personal speed record for carrying important stuff!
- **9824**: Nooo! I just realized I have to go west from the city and pass through the Ceizak Battlegrounds!
- **9825**: I have to deal with all those disgusting vermin as soon as I leave the city!? I'll have to take it slow this time. Well, there goes my bet.

## Events

### Event 65535

#### Metadata

| Field        | Value   |
|--------------|---------|
| Entrypoint   | 0x0000  |
| Data Size    | 1 bytes |
| Instructions | 1       |

```
      00 01 02 03 04 05 06 07  08 09 0A 0B 0C 0D 0E 0F
      -- -- -- -- -- -- -- --  -- -- -- -- -- -- -- --
0000: 00                                                .               
```

#### Opcodes

```
  0: 0x0000 [0x00] END_REQSTACK()
```

### Event 551

#### Metadata

| Field        | Value    |
|--------------|----------|
| Entrypoint   | 0x0001   |
| Data Size    | 51 bytes |
| Instructions | 13       |

```
      00 01 02 03 04 05 06 07  08 09 0A 0B 0C 0D 0E 0F
      -- -- -- -- -- -- -- --  -- -- -- -- -- -- -- --
0000:    1E F0 FF FF 7F 6F 70  66 00 80 F8 FF FF 7F F8   .....opf.......
0010: FF FF 7F 74 6C 6B 31 1D  01 80 23 1D 02 80 23 66  ...tlk1...#...#f
0020: 00 80 F8 FF FF 7F F8 FF  FF 7F 74 65 6E 31 1D 03  ..........ten1..
0030: 80 23 21 00                                       .#!.            
```

#### Opcodes

```
  0: 0x0001 [0x1E] EventEntity looks at LocalPlayer and starts talking
  1: 0x0006 [0x6F] WAIT_FRAME_DELAY: Yield until WaitTime reaches zero
  2: 0x0007 [0x70] WAIT_ENTITY_RENDER_FLAG: Wait while EventEntity->Render.Flags3 bit 2 is set (cancel turn if not)
  3: 0x0008 [0x66] LOAD_EXT_SCHEDULER_MAIN: Load scheduler "tlk1" with entities [EventEntity, EventEntity], work=0*
  4: 0x0017 [0x1D] PRINT_EVENT_MESSAGE(message_id=9823*)
    → "Move it! Out of the way! I'm on my way to breaking my personal speed record for carrying important stuff!"
  5: 0x001A [0x23] WAIT_FOR_DIALOG_INTERACTION
  6: 0x001B [0x1D] PRINT_EVENT_MESSAGE(message_id=9824*)
    → "Nooo! I just realized I have to go west from the city and pass through the Ceizak Battlegrounds!"
  7: 0x001E [0x23] WAIT_FOR_DIALOG_INTERACTION
  8: 0x001F [0x66] LOAD_EXT_SCHEDULER_MAIN: Load scheduler "ten1" with entities [EventEntity, EventEntity], work=0*
  9: 0x002E [0x1D] PRINT_EVENT_MESSAGE(message_id=9825*)
    → "I have to deal with all those disgusting vermin as soon as I leave the city!? I'll have to take it slow this time. Well, there goes my bet."
 10: 0x0031 [0x23] WAIT_FOR_DIALOG_INTERACTION
 11: 0x0032 [0x21] END_EVENT
 12: 0x0033 [0x00] END_REQSTACK()
```

### Event 2

#### Metadata

| Field        | Value   |
|--------------|---------|
| Entrypoint   | 0x0034  |
| Data Size    | 1 bytes |
| Instructions | 1       |

```
      00 01 02 03 04 05 06 07  08 09 0A 0B 0C 0D 0E 0F
      -- -- -- -- -- -- -- --  -- -- -- -- -- -- -- --
0030:             00                                        .           
```

#### Opcodes

```
  0: 0x0034 [0x00] END_REQSTACK()
```

### Event 65535.1

#### Metadata

| Field        | Value    |
|--------------|----------|
| Entrypoint   | 0x0035   |
| Data Size    | 18 bytes |
| Instructions | 6        |

```
      00 01 02 03 04 05 06 07  08 09 0A 0B 0C 0D 0E 0F
      -- -- -- -- -- -- -- --  -- -- -- -- -- -- -- --
0030:                1C 04 80  32 05 80 1F 00 06 80 07       ...2.......
0040: 80 08 80 1F 01 6F 00                              .....o.         
```

#### Opcodes

```
  0: 0x0035 [0x1C] WAIT(15* ticks)
  1: 0x0038 [0x32] ExtData[1]->MainSpeed = 40* * 0.1
  2: 0x003B [0x1F] MOVE_ENTITY: EventEntity moves to X=74.860*, Z=153.638*, Y=31.999*
  3: 0x0043 [0x1F] MOVE_ENTITY: Update entity position (mode=1)
  4: 0x0045 [0x6F] WAIT_FRAME_DELAY: Yield until WaitTime reaches zero
  5: 0x0046 [0x00] END_REQSTACK()
```

### Event 65535.2

#### Metadata

| Field        | Value    |
|--------------|----------|
| Entrypoint   | 0x0047   |
| Data Size    | 15 bytes |
| Instructions | 5        |

```
      00 01 02 03 04 05 06 07  08 09 0A 0B 0C 0D 0E 0F
      -- -- -- -- -- -- -- --  -- -- -- -- -- -- -- --
0040:                      32  05 80 1F 00 09 80 0A 80         2........
0050: 0B 80 1F 01 6F 00                                 ....o.          
```

#### Opcodes

```
  0: 0x0047 [0x32] ExtData[1]->MainSpeed = 40* * 0.1
  1: 0x004A [0x1F] MOVE_ENTITY: EventEntity moves to X=334.500*, Z=-25.000*, Y=3.999*
  2: 0x0052 [0x1F] MOVE_ENTITY: Update entity position (mode=1)
  3: 0x0054 [0x6F] WAIT_FRAME_DELAY: Yield until WaitTime reaches zero
  4: 0x0055 [0x00] END_REQSTACK()
```

### Event 65535.3

#### Metadata

| Field        | Value    |
|--------------|----------|
| Entrypoint   | 0x0056   |
| Data Size    | 24 bytes |
| Instructions | 3        |

```
      00 01 02 03 04 05 06 07  08 09 0A 0B 0C 0D 0E 0F
      -- -- -- -- -- -- -- --  -- -- -- -- -- -- -- --
0050:                   B6 0B  0C 80 0D 80 0E 80 0F 80        ..........
0060: 00 80 10 80 11 80 00 80  00 80 C0 0C 80 00        ..............  
```

#### Opcodes

```
  0: 0x0056 [0xB6] ENTITY_APPEARANCE_HANDLER(case=Full entity look, race=1*, hair=9*, head=24*, body=49*, hands=0*, legs=171*, feet=99*, main=0*, sub=0*)
  1: 0x006A [0xC0] EventEntity->Render.Flags3 |= 0x1000 // Set bit 12 (from 1*)
  2: 0x006D [0x00] END_REQSTACK()
```

### Event 65535.4

#### Metadata

| Field        | Value    |
|--------------|----------|
| Entrypoint   | 0x006E   |
| Data Size    | 24 bytes |
| Instructions | 3        |

```
      00 01 02 03 04 05 06 07  08 09 0A 0B 0C 0D 0E 0F
      -- -- -- -- -- -- -- --  -- -- -- -- -- -- -- --
0060:                                            B6 0B                ..
0070: 12 80 12 80 0E 80 0F 80  00 80 10 80 11 80 00 80  ................
0080: 00 80 C0 0C 80 00                                 ......          
```

#### Opcodes

```
  0: 0x006E [0xB6] ENTITY_APPEARANCE_HANDLER(case=Full entity look, race=4*, hair=4*, head=24*, body=49*, hands=0*, legs=171*, feet=99*, main=0*, sub=0*)
  1: 0x0082 [0xC0] EventEntity->Render.Flags3 |= 0x1000 // Set bit 12 (from 1*)
  2: 0x0085 [0x00] END_REQSTACK()
```

### Event 65535.5

#### Metadata

| Field        | Value    |
|--------------|----------|
| Entrypoint   | 0x0086   |
| Data Size    | 24 bytes |
| Instructions | 3        |

```
      00 01 02 03 04 05 06 07  08 09 0A 0B 0C 0D 0E 0F
      -- -- -- -- -- -- -- --  -- -- -- -- -- -- -- --
0080:                   B6 0B  0C 80 12 80 0E 80 0F 80        ..........
0090: 00 80 10 80 11 80 00 80  00 80 C0 0C 80 00        ..............  
```

#### Opcodes

```
  0: 0x0086 [0xB6] ENTITY_APPEARANCE_HANDLER(case=Full entity look, race=1*, hair=4*, head=24*, body=49*, hands=0*, legs=171*, feet=99*, main=0*, sub=0*)
  1: 0x009A [0xC0] EventEntity->Render.Flags3 |= 0x1000 // Set bit 12 (from 1*)
  2: 0x009D [0x00] END_REQSTACK()
```

### Event 89

#### Metadata

| Field        | Value   |
|--------------|---------|
| Entrypoint   | 0x009E  |
| Data Size    | 1 bytes |
| Instructions | 1       |

```
      00 01 02 03 04 05 06 07  08 09 0A 0B 0C 0D 0E 0F
      -- -- -- -- -- -- -- --  -- -- -- -- -- -- -- --
0090:                                            00                   . 
```

#### Opcodes

```
  0: 0x009E [0x00] END_REQSTACK()
```

### Event 93

#### Metadata

| Field        | Value   |
|--------------|---------|
| Entrypoint   | 0x009F  |
| Data Size    | 1 bytes |
| Instructions | 1       |

```
      00 01 02 03 04 05 06 07  08 09 0A 0B 0C 0D 0E 0F
      -- -- -- -- -- -- -- --  -- -- -- -- -- -- -- --
0090:                                               00                 .
```

#### Opcodes

```
  0: 0x009F [0x00] END_REQSTACK()
```

### Event 94

#### Metadata

| Field        | Value   |
|--------------|---------|
| Entrypoint   | 0x00A0  |
| Data Size    | 1 bytes |
| Instructions | 1       |

```
      00 01 02 03 04 05 06 07  08 09 0A 0B 0C 0D 0E 0F
      -- -- -- -- -- -- -- --  -- -- -- -- -- -- -- --
00A0: 00                                                .               
```

#### Opcodes

```
  0: 0x00A0 [0x00] END_REQSTACK()
```

### Event 95

#### Metadata

| Field        | Value   |
|--------------|---------|
| Entrypoint   | 0x00A1  |
| Data Size    | 1 bytes |
| Instructions | 1       |

```
      00 01 02 03 04 05 06 07  08 09 0A 0B 0C 0D 0E 0F
      -- -- -- -- -- -- -- --  -- -- -- -- -- -- -- --
00A0:    00                                              .              
```

#### Opcodes

```
  0: 0x00A1 [0x00] END_REQSTACK()
```

### Event 96

#### Metadata

| Field        | Value   |
|--------------|---------|
| Entrypoint   | 0x00A2  |
| Data Size    | 1 bytes |
| Instructions | 1       |

```
      00 01 02 03 04 05 06 07  08 09 0A 0B 0C 0D 0E 0F
      -- -- -- -- -- -- -- --  -- -- -- -- -- -- -- --
00A0:       00                                            .             
```

#### Opcodes

```
  0: 0x00A2 [0x00] END_REQSTACK()
```

### Event 97

#### Metadata

| Field        | Value   |
|--------------|---------|
| Entrypoint   | 0x00A3  |
| Data Size    | 1 bytes |
| Instructions | 1       |

```
      00 01 02 03 04 05 06 07  08 09 0A 0B 0C 0D 0E 0F
      -- -- -- -- -- -- -- --  -- -- -- -- -- -- -- --
00A0:          00                                          .            
```

#### Opcodes

```
  0: 0x00A3 [0x00] END_REQSTACK()
```
