# 17825991 - Bilp

## Common Data

| Field            | Value                     |
|------------------|---------------------------|
| Zone             | Western Adoulin (ID: 256) |
| Block Size       | 596 bytes                 |
| Total Events     | 17                        |
| References Count | 27                        |

## List of Events

| Event ID                 | Entrypoint   |   Size |   Instructions |
|--------------------------|--------------|--------|----------------|
| [65535](#event-65535)    | 0x0000       |      1 |              1 |
| [5023](#event-5023)      | 0x0001       |      7 |              2 |
| [5024](#event-5024)      | 0x0008       |      7 |              2 |
| [5025](#event-5025)      | 0x000F       |     85 |             19 |
| [5026](#event-5026)      | 0x0064       |     33 |              9 |
| [5028](#event-5028)      | 0x0085       |      7 |              2 |
| [65535.1](#event-655351) | 0x008C       |     27 |              5 |
| [5029](#event-5029)      | 0x00A7       |     29 |              7 |
| [5031](#event-5031)      | 0x00C4       |      1 |              1 |
| [83](#event-83)          | 0x00C5       |      1 |              1 |
| [65535.2](#event-655352) | 0x00C6       |     35 |              7 |
| [134](#event-134)        | 0x00E9       |      1 |              1 |
| [65535.3](#event-655353) | 0x00EA       |     62 |             12 |
| [5220](#event-5220)      | 0x0128       |      7 |              2 |
| [5221](#event-5221)      | 0x012F       |      7 |              2 |
| [65535.4](#event-655354) | 0x0136       |     47 |              9 |
| [65535.5](#event-655355) | 0x0165       |     44 |             10 |

## DAT References (imed_data)

|   Index | Hex Value   |   Dec Value |
|---------|-------------|-------------|
|       0 | 0x001E      |          30 |
|       1 | 0x0016      |          22 |
|       2 | 0x24D2      |        9426 |
|       3 | 0x0006      |           6 |
|       4 | 0x24D3      |        9427 |
|       5 | 0x0045      |          69 |
|       6 | 0x24D0      |        9424 |
|       7 | 0x24D6      |        9430 |
|       8 | 0x24D7      |        9431 |
|       9 | 0x003C      |          60 |
|      10 | 0x24ED      |        9453 |
|      11 | 0x000B      |          11 |
|      12 | 0x005A      |          90 |
|      13 | 0x0010      |          16 |
|      14 | 0x014A      |         330 |
|      15 | 0x02EE      |         750 |
|      16 | 0x0078      |         120 |
|      17 | 0x0028      |          40 |
|      18 | 0xFFFF6B18  |  4294929176 |
|      19 | 0xFFFE6B00  |  4294863616 |
|      20 | 0xFFFFFD76  |  4294966646 |
|      21 | 0xFFFF6B68  |  4294929256 |
|      22 | 0xFFFE64FC  |  4294862076 |
|      23 | 0xFFFF6D98  |  4294929816 |
|      24 | 0xFFFE5CD2  |  4294859986 |
|      25 | 0xFFFF7D2E  |  4294933806 |
|      26 | 0xFFFE4B84  |  4294855556 |

## String References

- **9424**: Let me show you on my map. See here? G-8.
- **9427**: I told you, you need to be more specific.
- **9430**: Hey, how'd you like to see real live ghosts?
- **9431**: They were on the road to the Cirdas Caverns located within the Sih Gates.
- **9453**: If I knew then what I know now, I would never have tried pawning our duties off on an innocent bystander.

## Events

### Event 65535

#### Metadata

| Field        | Value   |
|--------------|---------|
| Entrypoint   | 0x0000  |
| Data Size    | 1 bytes |
| Instructions | 1       |

```
      00 01 02 03 04 05 06 07  08 09 0A 0B 0C 0D 0E 0F
      -- -- -- -- -- -- -- --  -- -- -- -- -- -- -- --
0000: 00                                                .               
```

#### Opcodes

```
  0: 0x0000 [0x00] END_REQSTACK()
```

### Event 5023

#### Metadata

| Field        | Value   |
|--------------|---------|
| Entrypoint   | 0x0001  |
| Data Size    | 7 bytes |
| Instructions | 2       |

```
      00 01 02 03 04 05 06 07  08 09 0A 0B 0C 0D 0E 0F
      -- -- -- -- -- -- -- --  -- -- -- -- -- -- -- --
0000:    92 01 F8 FF FF 7F 00                            .......        
```

#### Opcodes

```
  0: 0x0001 [0x92] EventEntity->Render.Flags3 ^= 0x01
  1: 0x0007 [0x00] END_REQSTACK()
```

### Event 5024

#### Metadata

| Field        | Value   |
|--------------|---------|
| Entrypoint   | 0x0008  |
| Data Size    | 7 bytes |
| Instructions | 2       |

```
      00 01 02 03 04 05 06 07  08 09 0A 0B 0C 0D 0E 0F
      -- -- -- -- -- -- -- --  -- -- -- -- -- -- -- --
0000:                          92 01 F8 FF FF 7F 00             ....... 
```

#### Opcodes

```
  0: 0x0008 [0x92] EventEntity->Render.Flags3 ^= 0x01
  1: 0x000E [0x00] END_REQSTACK()
```

### Event 5025

#### Metadata

| Field        | Value    |
|--------------|----------|
| Entrypoint   | 0x000F   |
| Data Size    | 85 bytes |
| Instructions | 19       |

```
      00 01 02 03 04 05 06 07  08 09 0A 0B 0C 0D 0E 0F
      -- -- -- -- -- -- -- --  -- -- -- -- -- -- -- --
0000:                                               4A                 J
0010: C8 00 10 01 F0 FF FF 7F  1C 00 80 6E C8 00 10 01  ...........n....
0020: 01 80 99 C8 00 10 01 2B  C8 00 10 01 02 80 23 1E  .......+......#.
0030: C8 00 10 01 1C 00 80 6E  C7 00 10 01 03 80 99 C7  .......n........
0040: 00 10 01 1D 04 80 23 1E  F0 FF FF 7F 1C 00 80 66  ......#........f
0050: 05 80 C7 00 10 01 C7 00  10 01 74 6C 6B 30 1D 06  ..........tlk0..
0060: 80 23 21 00                                       .#!.            
```

#### Opcodes

```
  0: 0x000F [0x4A] Eamonn (ID: 17825992/0x011000C8) looks at LocalPlayer
  1: 0x0018 [0x1C] WAIT(30* ticks)
  2: 0x001B [0x6E] Eamonn (ID: 17825992/0x011000C8) uses emote 22*
  3: 0x0022 [0x99] Wait for Eamonn (ID: 17825992/0x011000C8) animation to complete
  4: 0x0027 [0x2B] Eamonn (ID: 17825992/0x011000C8) [9426*]:
    → "Didn't I already tell you where you have to go? Pretty much in the middle of Ceizak Battlegrounds."
  5: 0x002E [0x23] WAIT_FOR_DIALOG_INTERACTION
  6: 0x002F [0x1E] EventEntity looks at Eamonn (ID: 17825992/0x011000C8) and starts talking
  7: 0x0034 [0x1C] WAIT(30* ticks)
  8: 0x0037 [0x6E] Bilp (ID: 17825991/0x011000C7) uses emote 6*
  9: 0x003E [0x99] Wait for Bilp (ID: 17825991/0x011000C7) animation to complete
 10: 0x0043 [0x1D] PRINT_EVENT_MESSAGE(message_id=9427*)
    → "I told you, you need to be more specific."
 11: 0x0046 [0x23] WAIT_FOR_DIALOG_INTERACTION
 12: 0x0047 [0x1E] EventEntity looks at LocalPlayer and starts talking
 13: 0x004C [0x1C] WAIT(30* ticks)
 14: 0x004F [0x66] LOAD_EXT_SCHEDULER_MAIN: Load scheduler "tlk0" with entities [Bilp (ID: 17825991/0x011000C7), Bilp (ID: 17825991/0x011000C7)], work=69*
 15: 0x005E [0x1D] PRINT_EVENT_MESSAGE(message_id=9424*)
    → "Let me show you on my map. See here? G-8."
 16: 0x0061 [0x23] WAIT_FOR_DIALOG_INTERACTION
 17: 0x0062 [0x21] END_EVENT
 18: 0x0063 [0x00] END_REQSTACK()
```

### Event 5026

#### Metadata

| Field        | Value    |
|--------------|----------|
| Entrypoint   | 0x0064   |
| Data Size    | 33 bytes |
| Instructions | 9        |

```
      00 01 02 03 04 05 06 07  08 09 0A 0B 0C 0D 0E 0F
      -- -- -- -- -- -- -- --  -- -- -- -- -- -- -- --
0060:             1E F0 FF FF  7F 1C 00 80 66 05 80 C7      ........f...
0070: 00 10 01 C7 00 10 01 74  6C 6B 30 1D 07 80 23 1D  .......tlk0...#.
0080: 08 80 23 21 00                                    ..#!.           
```

#### Opcodes

```
  0: 0x0064 [0x1E] EventEntity looks at LocalPlayer and starts talking
  1: 0x0069 [0x1C] WAIT(30* ticks)
  2: 0x006C [0x66] LOAD_EXT_SCHEDULER_MAIN: Load scheduler "tlk0" with entities [Bilp (ID: 17825991/0x011000C7), Bilp (ID: 17825991/0x011000C7)], work=69*
  3: 0x007B [0x1D] PRINT_EVENT_MESSAGE(message_id=9430*)
    → "Hey, how'd you like to see real live ghosts?"
  4: 0x007E [0x23] WAIT_FOR_DIALOG_INTERACTION
  5: 0x007F [0x1D] PRINT_EVENT_MESSAGE(message_id=9431*)
    → "They were on the road to the Cirdas Caverns located within the Sih Gates."
  6: 0x0082 [0x23] WAIT_FOR_DIALOG_INTERACTION
  7: 0x0083 [0x21] END_EVENT
  8: 0x0084 [0x00] END_REQSTACK()
```

### Event 5028

#### Metadata

| Field        | Value   |
|--------------|---------|
| Entrypoint   | 0x0085  |
| Data Size    | 7 bytes |
| Instructions | 2       |

```
      00 01 02 03 04 05 06 07  08 09 0A 0B 0C 0D 0E 0F
      -- -- -- -- -- -- -- --  -- -- -- -- -- -- -- --
0080:                92 01 F8  FF FF 7F 00                   .......    
```

#### Opcodes

```
  0: 0x0085 [0x92] EventEntity->Render.Flags3 ^= 0x01
  1: 0x008B [0x00] END_REQSTACK()
```

### Event 65535.1

#### Metadata

| Field        | Value    |
|--------------|----------|
| Entrypoint   | 0x008C   |
| Data Size    | 27 bytes |
| Instructions | 5        |

```
      00 01 02 03 04 05 06 07  08 09 0A 0B 0C 0D 0E 0F
      -- -- -- -- -- -- -- --  -- -- -- -- -- -- -- --
0080:                                      1C 09 80 1E              ....
0090: C8 00 10 01 1C 00 80 66  05 80 C7 00 10 01 C7 00  .......f........
00A0: 10 01 74 6C 6B 30 00                              ..tlk0.         
```

#### Opcodes

```
  0: 0x008C [0x1C] WAIT(60* ticks)
  1: 0x008F [0x1E] EventEntity looks at Eamonn (ID: 17825992/0x011000C8) and starts talking
  2: 0x0094 [0x1C] WAIT(30* ticks)
  3: 0x0097 [0x66] LOAD_EXT_SCHEDULER_MAIN: Load scheduler "tlk0" with entities [Bilp (ID: 17825991/0x011000C7), Bilp (ID: 17825991/0x011000C7)], work=69*
  4: 0x00A6 [0x00] END_REQSTACK()
```

### Event 5029

#### Metadata

| Field        | Value    |
|--------------|----------|
| Entrypoint   | 0x00A7   |
| Data Size    | 29 bytes |
| Instructions | 7        |

```
      00 01 02 03 04 05 06 07  08 09 0A 0B 0C 0D 0E 0F
      -- -- -- -- -- -- -- --  -- -- -- -- -- -- -- --
00A0:                      1E  F0 FF FF 7F 1C 00 80 66         ........f
00B0: 05 80 C7 00 10 01 C7 00  10 01 74 6C 6B 30 1D 0A  ..........tlk0..
00C0: 80 23 21 00                                       .#!.            
```

#### Opcodes

```
  0: 0x00A7 [0x1E] EventEntity looks at LocalPlayer and starts talking
  1: 0x00AC [0x1C] WAIT(30* ticks)
  2: 0x00AF [0x66] LOAD_EXT_SCHEDULER_MAIN: Load scheduler "tlk0" with entities [Bilp (ID: 17825991/0x011000C7), Bilp (ID: 17825991/0x011000C7)], work=69*
  3: 0x00BE [0x1D] PRINT_EVENT_MESSAGE(message_id=9453*)
    → "If I knew then what I know now, I would never have tried pawning our duties off on an innocent bystander."
  4: 0x00C1 [0x23] WAIT_FOR_DIALOG_INTERACTION
  5: 0x00C2 [0x21] END_EVENT
  6: 0x00C3 [0x00] END_REQSTACK()
```

### Event 5031

#### Metadata

| Field        | Value   |
|--------------|---------|
| Entrypoint   | 0x00C4  |
| Data Size    | 1 bytes |
| Instructions | 1       |

```
      00 01 02 03 04 05 06 07  08 09 0A 0B 0C 0D 0E 0F
      -- -- -- -- -- -- -- --  -- -- -- -- -- -- -- --
00C0:             00                                        .           
```

#### Opcodes

```
  0: 0x00C4 [0x00] END_REQSTACK()
```

### Event 83

#### Metadata

| Field        | Value   |
|--------------|---------|
| Entrypoint   | 0x00C5  |
| Data Size    | 1 bytes |
| Instructions | 1       |

```
      00 01 02 03 04 05 06 07  08 09 0A 0B 0C 0D 0E 0F
      -- -- -- -- -- -- -- --  -- -- -- -- -- -- -- --
00C0:                00                                      .          
```

#### Opcodes

```
  0: 0x00C5 [0x00] END_REQSTACK()
```

### Event 65535.2

#### Metadata

| Field        | Value    |
|--------------|----------|
| Entrypoint   | 0x00C6   |
| Data Size    | 35 bytes |
| Instructions | 7        |

```
      00 01 02 03 04 05 06 07  08 09 0A 0B 0C 0D 0E 0F
      -- -- -- -- -- -- -- --  -- -- -- -- -- -- -- --
00C0:                   1C 00  80 2C CE 00 10 01 CE 00        ...,......
00D0: 10 01 6F 70 65 6E 1C 00  80 6E F8 FF FF 7F 0B 80  ..open...n......
00E0: 99 F8 FF FF 7F 1C 0C 80  00                       .........       
```

#### Opcodes

```
  0: 0x00C6 [0x1C] WAIT(30* ticks)
  1: 0x00C9 [0x2C] CREATE_SCHEDULER_TASK: Create scheduler "open" with entities [Distrova (ID: 17825998/0x011000CE), Distrova (ID: 17825998/0x011000CE)]
  2: 0x00D6 [0x1C] WAIT(30* ticks)
  3: 0x00D9 [0x6E] EventEntity uses emote 11*
  4: 0x00E0 [0x99] Wait for EventEntity animation to complete
  5: 0x00E5 [0x1C] WAIT(90* ticks)
  6: 0x00E8 [0x00] END_REQSTACK()
```

### Event 134

#### Metadata

| Field        | Value   |
|--------------|---------|
| Entrypoint   | 0x00E9  |
| Data Size    | 1 bytes |
| Instructions | 1       |

```
      00 01 02 03 04 05 06 07  08 09 0A 0B 0C 0D 0E 0F
      -- -- -- -- -- -- -- --  -- -- -- -- -- -- -- --
00E0:                             00                             .      
```

#### Opcodes

```
  0: 0x00E9 [0x00] END_REQSTACK()
```

### Event 65535.3

#### Metadata

| Field        | Value    |
|--------------|----------|
| Entrypoint   | 0x00EA   |
| Data Size    | 62 bytes |
| Instructions | 12       |

```
      00 01 02 03 04 05 06 07  08 09 0A 0B 0C 0D 0E 0F
      -- -- -- -- -- -- -- --  -- -- -- -- -- -- -- --
00E0:                                1C 09 80 6E C7 00            ...n..
00F0: 10 01 0D 80 99 C7 00 10  01 1C 0E 80 2C CE 00 10  ............,...
0100: 01 CE 00 10 01 6F 70 65  6E 1C 00 80 6E C7 00 10  .....open...n...
0110: 01 0B 80 99 C7 00 10 01  1C 0F 80 6E C7 00 10 01  ...........n....
0120: 0D 80 99 C7 00 10 01 00                           ........        
```

#### Opcodes

```
  0: 0x00EA [0x1C] WAIT(60* ticks)
  1: 0x00ED [0x6E] Bilp (ID: 17825991/0x011000C7) uses emote 16*
  2: 0x00F4 [0x99] Wait for Bilp (ID: 17825991/0x011000C7) animation to complete
  3: 0x00F9 [0x1C] WAIT(330* ticks)
  4: 0x00FC [0x2C] CREATE_SCHEDULER_TASK: Create scheduler "open" with entities [Distrova (ID: 17825998/0x011000CE), Distrova (ID: 17825998/0x011000CE)]
  5: 0x0109 [0x1C] WAIT(30* ticks)
  6: 0x010C [0x6E] Bilp (ID: 17825991/0x011000C7) uses emote 11*
  7: 0x0113 [0x99] Wait for Bilp (ID: 17825991/0x011000C7) animation to complete
  8: 0x0118 [0x1C] WAIT(750* ticks)
  9: 0x011B [0x6E] Bilp (ID: 17825991/0x011000C7) uses emote 16*
 10: 0x0122 [0x99] Wait for Bilp (ID: 17825991/0x011000C7) animation to complete
 11: 0x0127 [0x00] END_REQSTACK()
```

### Event 5220

#### Metadata

| Field        | Value   |
|--------------|---------|
| Entrypoint   | 0x0128  |
| Data Size    | 7 bytes |
| Instructions | 2       |

```
      00 01 02 03 04 05 06 07  08 09 0A 0B 0C 0D 0E 0F
      -- -- -- -- -- -- -- --  -- -- -- -- -- -- -- --
0120:                          92 01 F8 FF FF 7F 00             ....... 
```

#### Opcodes

```
  0: 0x0128 [0x92] EventEntity->Render.Flags3 ^= 0x01
  1: 0x012E [0x00] END_REQSTACK()
```

### Event 5221

#### Metadata

| Field        | Value   |
|--------------|---------|
| Entrypoint   | 0x012F  |
| Data Size    | 7 bytes |
| Instructions | 2       |

```
      00 01 02 03 04 05 06 07  08 09 0A 0B 0C 0D 0E 0F
      -- -- -- -- -- -- -- --  -- -- -- -- -- -- -- --
0120:                                               92                 .
0130: 01 F8 FF FF 7F 00                                 ......          
```

#### Opcodes

```
  0: 0x012F [0x92] EventEntity->Render.Flags3 ^= 0x01
  1: 0x0135 [0x00] END_REQSTACK()
```

### Event 65535.4

#### Metadata

| Field        | Value    |
|--------------|----------|
| Entrypoint   | 0x0136   |
| Data Size    | 47 bytes |
| Instructions | 9        |

```
      00 01 02 03 04 05 06 07  08 09 0A 0B 0C 0D 0E 0F
      -- -- -- -- -- -- -- --  -- -- -- -- -- -- -- --
0130:                   1C 09  80 6E C7 00 10 01 0D 80        ...n......
0140: 99 C7 00 10 01 1C 10 80  2C CE 00 10 01 CE 00 10  ........,.......
0150: 01 6F 70 65 6E 1C 00 80  6E C7 00 10 01 0B 80 99  .open...n.......
0160: C7 00 10 01 00                                    .....           
```

#### Opcodes

```
  0: 0x0136 [0x1C] WAIT(60* ticks)
  1: 0x0139 [0x6E] Bilp (ID: 17825991/0x011000C7) uses emote 16*
  2: 0x0140 [0x99] Wait for Bilp (ID: 17825991/0x011000C7) animation to complete
  3: 0x0145 [0x1C] WAIT(120* ticks)
  4: 0x0148 [0x2C] CREATE_SCHEDULER_TASK: Create scheduler "open" with entities [Distrova (ID: 17825998/0x011000CE), Distrova (ID: 17825998/0x011000CE)]
  5: 0x0155 [0x1C] WAIT(30* ticks)
  6: 0x0158 [0x6E] Bilp (ID: 17825991/0x011000C7) uses emote 11*
  7: 0x015F [0x99] Wait for Bilp (ID: 17825991/0x011000C7) animation to complete
  8: 0x0164 [0x00] END_REQSTACK()
```

### Event 65535.5

#### Metadata

| Field        | Value    |
|--------------|----------|
| Entrypoint   | 0x0165   |
| Data Size    | 44 bytes |
| Instructions | 10       |

```
      00 01 02 03 04 05 06 07  08 09 0A 0B 0C 0D 0E 0F
      -- -- -- -- -- -- -- --  -- -- -- -- -- -- -- --
0160:                32 11 80  1F 00 12 80 13 80 14 80       2..........
0170: 1F 01 1F 00 15 80 16 80  14 80 1F 01 1F 00 17 80  ................
0180: 18 80 14 80 1F 01 1F 00  19 80 1A 80 14 80 1F 01  ................
0190: 00                                                .               
```

#### Opcodes

```
  0: 0x0165 [0x32] ExtData[1]->MainSpeed = 40* * 0.1
  1: 0x0168 [0x1F] MOVE_ENTITY: EventEntity moves to X=-38.120*, Z=-103.680*, Y=-0.650*
  2: 0x0170 [0x1F] MOVE_ENTITY: Update entity position (mode=1)
  3: 0x0172 [0x1F] MOVE_ENTITY: EventEntity moves to X=-38.040*, Z=-105.220*, Y=-0.650*
  4: 0x017A [0x1F] MOVE_ENTITY: Update entity position (mode=1)
  5: 0x017C [0x1F] MOVE_ENTITY: EventEntity moves to X=-37.480*, Z=-107.310*, Y=-0.650*
  6: 0x0184 [0x1F] MOVE_ENTITY: Update entity position (mode=1)
  7: 0x0186 [0x1F] MOVE_ENTITY: EventEntity moves to X=-33.490*, Z=-111.740*, Y=-0.650*
  8: 0x018E [0x1F] MOVE_ENTITY: Update entity position (mode=1)
  9: 0x0190 [0x00] END_REQSTACK()
```
