# 17826058 - Orfbis

## Common Data

| Field            | Value                     |
|------------------|---------------------------|
| Zone             | Western Adoulin (ID: 256) |
| Block Size       | 112 bytes                 |
| Total Events     | 2                         |
| References Count | 6                         |

## List of Events

| Event ID              | Entrypoint   |   Size |   Instructions |
|-----------------------|--------------|--------|----------------|
| [65535](#event-65535) | 0x0000       |      1 |              1 |
| [523](#event-523)     | 0x0001       |     63 |             15 |

## DAT References (imed_data)

|   Index | Hex Value   |   Dec Value |
|---------|-------------|-------------|
|       0 | 0x0045      |          69 |
|       1 | 0x264C      |        9804 |
|       2 | 0x264D      |        9805 |
|       3 | 0x0041      |          65 |
|       4 | 0x0007      |           7 |
|       5 | 0x264E      |        9806 |

## String References

- **9804**: What does the Couriers' Coalition do? Like the name implies, we transport supplies.
- **9805**: That's why we need better roads. How can we carry stuff efficiently if we have to worry about rocks and potholes?
- **9806**: No offense meant to you. The more you pioneers explore, the easier it is for us to do our jobs, so keep up the good work!

## Events

### Event 65535

#### Metadata

| Field        | Value   |
|--------------|---------|
| Entrypoint   | 0x0000  |
| Data Size    | 1 bytes |
| Instructions | 1       |

```
      00 01 02 03 04 05 06 07  08 09 0A 0B 0C 0D 0E 0F
      -- -- -- -- -- -- -- --  -- -- -- -- -- -- -- --
0000: 00                                                .               
```

#### Opcodes

```
  0: 0x0000 [0x00] END_REQSTACK()
```

### Event 523

#### Metadata

| Field        | Value    |
|--------------|----------|
| Entrypoint   | 0x0001   |
| Data Size    | 63 bytes |
| Instructions | 15       |

```
      00 01 02 03 04 05 06 07  08 09 0A 0B 0C 0D 0E 0F
      -- -- -- -- -- -- -- --  -- -- -- -- -- -- -- --
0000:    1E F0 FF FF 7F 6F 70  66 00 80 F8 FF FF 7F F8   .....opf.......
0010: FF FF 7F 74 6C 6B 30 1D  01 80 23 1D 02 80 23 66  ...tlk0...#...#f
0020: 03 80 F8 FF FF 7F F8 FF  FF 7F 74 6C 6B 31 6E F8  ..........tlk1n.
0030: FF FF 7F 04 80 99 F8 FF  FF 7F 1D 05 80 23 21 00  .............#!.
```

#### Opcodes

```
  0: 0x0001 [0x1E] EventEntity looks at LocalPlayer and starts talking
  1: 0x0006 [0x6F] WAIT_FRAME_DELAY: Yield until WaitTime reaches zero
  2: 0x0007 [0x70] WAIT_ENTITY_RENDER_FLAG: Wait while EventEntity->Render.Flags3 bit 2 is set (cancel turn if not)
  3: 0x0008 [0x66] LOAD_EXT_SCHEDULER_MAIN: Load scheduler "tlk0" with entities [EventEntity, EventEntity], work=69*
  4: 0x0017 [0x1D] PRINT_EVENT_MESSAGE(message_id=9804*)
    → "What does the Couriers' Coalition do? Like the name implies, we transport supplies."
  5: 0x001A [0x23] WAIT_FOR_DIALOG_INTERACTION
  6: 0x001B [0x1D] PRINT_EVENT_MESSAGE(message_id=9805*)
    → "That's why we need better roads. How can we carry stuff efficiently if we have to worry about rocks and potholes?"
  7: 0x001E [0x23] WAIT_FOR_DIALOG_INTERACTION
  8: 0x001F [0x66] LOAD_EXT_SCHEDULER_MAIN: Load scheduler "tlk1" with entities [EventEntity, EventEntity], work=65*
  9: 0x002E [0x6E] EventEntity uses emote 7*
 10: 0x0035 [0x99] Wait for EventEntity animation to complete
 11: 0x003A [0x1D] PRINT_EVENT_MESSAGE(message_id=9806*)
    → "No offense meant to you. The more you pioneers explore, the easier it is for us to do our jobs, so keep up the good work!"
 12: 0x003D [0x23] WAIT_FOR_DIALOG_INTERACTION
 13: 0x003E [0x21] END_EVENT
 14: 0x003F [0x00] END_REQSTACK()
```
