# 17826010 - Tuffle-Buffle

## Common Data

| Field            | Value                     |
|------------------|---------------------------|
| Zone             | Western Adoulin (ID: 256) |
| Block Size       | 3752 bytes                |
| Total Events     | 82                        |
| References Count | 120                       |

## List of Events

| Event ID                   | Entrypoint   |   Size |   Instructions |
|----------------------------|--------------|--------|----------------|
| [65535](#event-65535)      | 0x0000       |      1 |              1 |
| [5045](#event-5045)        | 0x0001       |      1 |              1 |
| [5046](#event-5046)        | 0x0002       |      1 |              1 |
| [5047](#event-5047)        | 0x0003       |      1 |              1 |
| [5048](#event-5048)        | 0x0004       |      1 |              1 |
| [5049](#event-5049)        | 0x0005       |      1 |              1 |
| [5050](#event-5050)        | 0x0006       |      1 |              1 |
| [5051](#event-5051)        | 0x0007       |      1 |              1 |
| [65535.1](#event-655351)   | 0x0008       |      4 |              2 |
| [65535.2](#event-655352)   | 0x000C       |      4 |              2 |
| [65535.3](#event-655353)   | 0x0010       |    283 |             47 |
| [65535.4](#event-655354)   | 0x012B       |     42 |              9 |
| [65535.5](#event-655355)   | 0x0155       |     18 |              4 |
| [65535.6](#event-655356)   | 0x0167       |     18 |              3 |
| [65535.7](#event-655357)   | 0x0179       |     58 |              8 |
| [65535.8](#event-655358)   | 0x01B3       |     58 |              8 |
| [5067](#event-5067)        | 0x01ED       |      1 |              1 |
| [65535.9](#event-655359)   | 0x01EE       |      5 |              2 |
| [5094](#event-5094)        | 0x01F3       |      1 |              1 |
| [5095](#event-5095)        | 0x01F4       |      1 |              1 |
| [5096](#event-5096)        | 0x01F5       |      1 |              1 |
| [5202](#event-5202)        | 0x01F6       |      1 |              1 |
| [5203](#event-5203)        | 0x01F7       |      1 |              1 |
| [5204](#event-5204)        | 0x01F8       |      1 |              1 |
| [5205](#event-5205)        | 0x01F9       |      1 |              1 |
| [5206](#event-5206)        | 0x01FA       |      1 |              1 |
| [5207](#event-5207)        | 0x01FB       |      1 |              1 |
| [5208](#event-5208)        | 0x01FC       |      1 |              1 |
| [65535.10](#event-6553510) | 0x01FD       |     14 |              4 |
| [65535.11](#event-6553511) | 0x020B       |      4 |              2 |
| [65535.12](#event-6553512) | 0x020F       |      4 |              2 |
| [65535.13](#event-6553513) | 0x0213       |     54 |             12 |
| [65535.14](#event-6553514) | 0x0249       |     31 |              5 |
| [65535.15](#event-6553515) | 0x0268       |     28 |             10 |
| [65535.16](#event-6553516) | 0x0284       |     22 |              4 |
| [65535.17](#event-6553517) | 0x029A       |     44 |              8 |
| [65535.18](#event-6553518) | 0x02C6       |      4 |              2 |
| [65535.19](#event-6553519) | 0x02CA       |    288 |             48 |
| [65535.20](#event-6553520) | 0x03EA       |     32 |              6 |
| [65535.21](#event-6553521) | 0x040A       |     17 |              5 |
| [65535.22](#event-6553522) | 0x041B       |     41 |              7 |
| [65535.23](#event-6553523) | 0x0444       |    158 |             29 |
| [65535.24](#event-6553524) | 0x04E2       |     59 |             10 |
| [65535.25](#event-6553525) | 0x051D       |    288 |             48 |
| [65535.26](#event-6553526) | 0x063D       |    291 |             49 |
| [65535.27](#event-6553527) | 0x0760       |     16 |              3 |
| [65535.28](#event-6553528) | 0x0770       |     16 |              3 |
| [65535.29](#event-6553529) | 0x0780       |     16 |              3 |
| [65535.30](#event-6553530) | 0x0790       |     16 |              3 |
| [65535.31](#event-6553531) | 0x07A0       |     16 |              3 |
| [65535.32](#event-6553532) | 0x07B0       |     16 |              3 |
| [65535.33](#event-6553533) | 0x07C0       |     16 |              3 |
| [65535.34](#event-6553534) | 0x07D0       |     16 |              3 |
| [65535.35](#event-6553535) | 0x07E0       |     16 |              3 |
| [65535.36](#event-6553536) | 0x07F0       |     19 |              3 |
| [65535.37](#event-6553537) | 0x0803       |     19 |              3 |
| [65535.38](#event-6553538) | 0x0816       |     19 |              3 |
| [65535.39](#event-6553539) | 0x0829       |     25 |              4 |
| [65535.40](#event-6553540) | 0x0842       |     19 |              3 |
| [65535.41](#event-6553541) | 0x0855       |     19 |              3 |
| [65535.42](#event-6553542) | 0x0868       |     19 |              3 |
| [65535.43](#event-6553543) | 0x087B       |     19 |              3 |
| [65535.44](#event-6553544) | 0x088E       |     19 |              3 |
| [65535.45](#event-6553545) | 0x08A1       |     19 |              3 |
| [65535.46](#event-6553546) | 0x08B4       |     19 |              3 |
| [65535.47](#event-6553547) | 0x08C7       |     19 |              3 |
| [65535.48](#event-6553548) | 0x08DA       |     19 |              3 |
| [65535.49](#event-6553549) | 0x08ED       |     16 |              4 |
| [65535.50](#event-6553550) | 0x08FD       |     16 |              4 |
| [65535.51](#event-6553551) | 0x090D       |     16 |              4 |
| [65535.52](#event-6553552) | 0x091D       |     16 |              4 |
| [65535.53](#event-6553553) | 0x092D       |     16 |              4 |
| [65535.54](#event-6553554) | 0x093D       |     16 |              4 |
| [65535.55](#event-6553555) | 0x094D       |     16 |              4 |
| [65535.56](#event-6553556) | 0x095D       |     16 |              4 |
| [65535.57](#event-6553557) | 0x096D       |     16 |              4 |
| [5217](#event-5217)        | 0x097D       |      7 |              2 |
| [5218](#event-5218)        | 0x0984       |      7 |              2 |
| [65535.58](#event-6553558) | 0x098B       |    283 |             47 |
| [65535.59](#event-6553559) | 0x0AA6       |     69 |             12 |
| [65535.60](#event-6553560) | 0x0AEB       |     13 |              3 |
| [65535.61](#event-6553561) | 0x0AF8       |    120 |             19 |

## DAT References (imed_data)

|   Index | Hex Value   |   Dec Value |
|---------|-------------|-------------|
|       0 | 0x083B      |        2107 |
|       1 | 0x0A3B      |        2619 |
|       2 | 0x0014      |          20 |
|       3 | 0x16F30     |       94000 |
|       4 | 0xFFFE2974  |  4294846836 |
|       5 | 0x0982      |        2434 |
|       6 | 0x0028      |          40 |
|       7 | 0x0064      |         100 |
|       8 | 0xFFFFFED4  |  4294966996 |
|       9 | 0x001E      |          30 |
|      10 | 0x000E      |          14 |
|      11 | 0xFFFFFF9C  |  4294967196 |
|      12 | 0x0001      |           1 |
|      13 | 0x065E      |        1630 |
|      14 | 0x0000      |           0 |
|      15 | 0x03E8      |        1000 |
|      16 | 0x0800      |        2048 |
|      17 | 0x00C8      |         200 |
|      18 | 0x0009      |           9 |
|      19 | 0x005A      |          90 |
|      20 | 0xFFFFFD80  |  4294966656 |
|      21 | 0x18B6E     |      101230 |
|      22 | 0xFFFE57C8  |  4294858696 |
|      23 | 0x08CA      |        2250 |
|      24 | 0x1D1A0     |      119200 |
|      25 | 0xFFFE9C88  |  4294876296 |
|      26 | 0xFFFFFCE9  |  4294966505 |
|      27 | 0x27B5      |       10165 |
|      28 | 0x27D8      |       10200 |
|      29 | 0x00BC      |         188 |
|      30 | 0x00B4      |         180 |
|      31 | 0x0078      |         120 |
|      32 | 0x003C      |          60 |
|      33 | 0x00F0      |         240 |
|      34 | 0x19CD0     |      105680 |
|      35 | 0xFFFE672C  |  4294862636 |
|      36 | 0x05FF      |        1535 |
|      37 | 0x02FF      |         767 |
|      38 | 0xFFFF1FDC  |  4294909916 |
|      39 | 0xFFFFE1C4  |  4294959556 |
|      40 | 0xFFFFFE0C  |  4294966796 |
|      41 | 0xFFFF1E42  |  4294909506 |
|      42 | 0xFFFFEB10  |  4294961936 |
|      43 | 0xFFFF1924  |  4294908196 |
|      44 | 0xFFFFF704  |  4294964996 |
|      45 | 0xFFFF2AE0  |  4294912736 |
|      46 | 0x0CF8      |        3320 |
|      47 | 0x0005      |           5 |
|      48 | 0x157C0     |       88000 |
|      49 | 0xFFFE3AE0  |  4294851296 |
|      50 | 0x0E92      |        3730 |
|      51 | 0x002D      |          45 |
|      52 | 0xFFFFFC01  |  4294966273 |
|      53 | 0xFFFFFE01  |  4294966785 |
|      54 | 0x20C7E     |      134270 |
|      55 | 0xFFFEEF1C  |  4294897436 |
|      56 | 0x0FA0      |        4000 |
|      57 | 0x2182C     |      137260 |
|      58 | 0xFFFF5132  |  4294922546 |
|      59 | 0x16EC0     |       93888 |
|      60 | 0xFFFE2867  |  4294846567 |
|      61 | 0xFFFFFF6A  |  4294967146 |
|      62 | 0x000D      |          13 |
|      63 | 0x14BFE     |       84990 |
|      64 | 0xFFFE27D6  |  4294846422 |
|      65 | 0x13A26     |       80422 |
|      66 | 0xFFFE2362  |  4294845282 |
|      67 | 0x06FF      |        1791 |
|      68 | 0x128BB     |       75963 |
|      69 | 0xFFFE1FDF  |  4294844383 |
|      70 | 0x14FB7     |       85943 |
|      71 | 0xFFFE28EC  |  4294846700 |
|      72 | 0x154FA     |       87290 |
|      73 | 0xFFFE2986  |  4294846854 |
|      74 | 0x16117     |       90391 |
|      75 | 0xFFFE2A32  |  4294847026 |
|      76 | 0x003F      |          63 |
|      77 | 0x1670D     |       91917 |
|      78 | 0xFFFE29AC  |  4294846892 |
|      79 | 0x017C      |         380 |
|      80 | 0xFFFFF830  |  4294965296 |
|      81 | 0x00AA      |         170 |
|      82 | 0xFFFFFFD8  |  4294967256 |
|      83 | 0x0708      |        1800 |
|      84 | 0x000F      |          15 |
|      85 | 0x172CF     |       94927 |
|      86 | 0xFFFE273C  |  4294846268 |
|      87 | 0x0883      |        2179 |
|      88 | 0x15F90     |       90000 |
|      89 | 0xFFFE2B40  |  4294847296 |
|      90 | 0x0050      |          80 |
|      91 | 0x16378     |       91000 |
|      92 | 0xFFFE2F28  |  4294848296 |
|      93 | 0x0018      |          24 |
|      94 | 0x001C      |          28 |
|      95 | 0x0019      |          25 |
|      96 | 0x001D      |          29 |
|      97 | 0x001A      |          26 |
|      98 | 0x001B      |          27 |
|      99 | 0x000A      |          10 |
|     100 | 0x0051      |          81 |
|     101 | 0x0031      |          49 |
|     102 | 0x0029      |          41 |
|     103 | 0x055D      |        1373 |
|     104 | 0x0023      |          35 |
|     105 | 0x0072      |         114 |
|     106 | 0x0015      |          21 |
|     107 | 0x0010      |          16 |
|     108 | 0x0016      |          22 |
|     109 | 0x0044      |          68 |
|     110 | 0x0007      |           7 |
|     111 | 0x0E01      |        3585 |
|     112 | 0x18D30     |      101680 |
|     113 | 0xFFFE6010  |  4294860816 |
|     114 | 0x13FEC     |       81900 |
|     115 | 0xFFFEB2AE  |  4294881966 |
|     116 | 0x062B      |        1579 |
|     117 | 0x012C      |         300 |
|     118 | 0x0002      |           2 |
|     119 | 0x0025      |          37 |

## Events

### Event 65535

#### Metadata

| Field        | Value   |
|--------------|---------|
| Entrypoint   | 0x0000  |
| Data Size    | 1 bytes |
| Instructions | 1       |

```
      00 01 02 03 04 05 06 07  08 09 0A 0B 0C 0D 0E 0F
      -- -- -- -- -- -- -- --  -- -- -- -- -- -- -- --
0000: 00                                                .               
```

#### Opcodes

```
  0: 0x0000 [0x00] END_REQSTACK()
```

### Event 5045

#### Metadata

| Field        | Value   |
|--------------|---------|
| Entrypoint   | 0x0001  |
| Data Size    | 1 bytes |
| Instructions | 1       |

```
      00 01 02 03 04 05 06 07  08 09 0A 0B 0C 0D 0E 0F
      -- -- -- -- -- -- -- --  -- -- -- -- -- -- -- --
0000:    00                                              .              
```

#### Opcodes

```
  0: 0x0001 [0x00] END_REQSTACK()
```

### Event 5046

#### Metadata

| Field        | Value   |
|--------------|---------|
| Entrypoint   | 0x0002  |
| Data Size    | 1 bytes |
| Instructions | 1       |

```
      00 01 02 03 04 05 06 07  08 09 0A 0B 0C 0D 0E 0F
      -- -- -- -- -- -- -- --  -- -- -- -- -- -- -- --
0000:       00                                            .             
```

#### Opcodes

```
  0: 0x0002 [0x00] END_REQSTACK()
```

### Event 5047

#### Metadata

| Field        | Value   |
|--------------|---------|
| Entrypoint   | 0x0003  |
| Data Size    | 1 bytes |
| Instructions | 1       |

```
      00 01 02 03 04 05 06 07  08 09 0A 0B 0C 0D 0E 0F
      -- -- -- -- -- -- -- --  -- -- -- -- -- -- -- --
0000:          00                                          .            
```

#### Opcodes

```
  0: 0x0003 [0x00] END_REQSTACK()
```

### Event 5048

#### Metadata

| Field        | Value   |
|--------------|---------|
| Entrypoint   | 0x0004  |
| Data Size    | 1 bytes |
| Instructions | 1       |

```
      00 01 02 03 04 05 06 07  08 09 0A 0B 0C 0D 0E 0F
      -- -- -- -- -- -- -- --  -- -- -- -- -- -- -- --
0000:             00                                        .           
```

#### Opcodes

```
  0: 0x0004 [0x00] END_REQSTACK()
```

### Event 5049

#### Metadata

| Field        | Value   |
|--------------|---------|
| Entrypoint   | 0x0005  |
| Data Size    | 1 bytes |
| Instructions | 1       |

```
      00 01 02 03 04 05 06 07  08 09 0A 0B 0C 0D 0E 0F
      -- -- -- -- -- -- -- --  -- -- -- -- -- -- -- --
0000:                00                                      .          
```

#### Opcodes

```
  0: 0x0005 [0x00] END_REQSTACK()
```

### Event 5050

#### Metadata

| Field        | Value   |
|--------------|---------|
| Entrypoint   | 0x0006  |
| Data Size    | 1 bytes |
| Instructions | 1       |

```
      00 01 02 03 04 05 06 07  08 09 0A 0B 0C 0D 0E 0F
      -- -- -- -- -- -- -- --  -- -- -- -- -- -- -- --
0000:                   00                                    .         
```

#### Opcodes

```
  0: 0x0006 [0x00] END_REQSTACK()
```

### Event 5051

#### Metadata

| Field        | Value   |
|--------------|---------|
| Entrypoint   | 0x0007  |
| Data Size    | 1 bytes |
| Instructions | 1       |

```
      00 01 02 03 04 05 06 07  08 09 0A 0B 0C 0D 0E 0F
      -- -- -- -- -- -- -- --  -- -- -- -- -- -- -- --
0000:                      00                                  .        
```

#### Opcodes

```
  0: 0x0007 [0x00] END_REQSTACK()
```

### Event 65535.1

#### Metadata

| Field        | Value   |
|--------------|---------|
| Entrypoint   | 0x0008  |
| Data Size    | 4 bytes |
| Instructions | 2       |

```
      00 01 02 03 04 05 06 07  08 09 0A 0B 0C 0D 0E 0F
      -- -- -- -- -- -- -- --  -- -- -- -- -- -- -- --
0000:                          39 00 80 00                      9...    
```

#### Opcodes

```
  0: 0x0008 [0x39] SET_ENTITY_DIRECTION(direction=11.6°*)
  1: 0x000B [0x00] END_REQSTACK()
```

### Event 65535.2

#### Metadata

| Field        | Value   |
|--------------|---------|
| Entrypoint   | 0x000C  |
| Data Size    | 4 bytes |
| Instructions | 2       |

```
      00 01 02 03 04 05 06 07  08 09 0A 0B 0C 0D 0E 0F
      -- -- -- -- -- -- -- --  -- -- -- -- -- -- -- --
0000:                                      39 01 80 00              9...
```

#### Opcodes

```
  0: 0x000C [0x39] SET_ENTITY_DIRECTION(direction=14.4°*)
  1: 0x000F [0x00] END_REQSTACK()
```

### Event 65535.3

#### Metadata

| Field        | Value     |
|--------------|-----------|
| Entrypoint   | 0x0010    |
| Data Size    | 283 bytes |
| Instructions | 47        |

```
      00 01 02 03 04 05 06 07  08 09 0A 0B 0C 0D 0E 0F
      -- -- -- -- -- -- -- --  -- -- -- -- -- -- -- --
0010: 32 02 80 1E F8 FF FF 7F  1F 00 03 80 04 80 05 80  2...............
0020: 1F 01 33 01 03 00 00 00  7F 03 01 00 02 7F 03 02  ..3.............
0030: 00 01 7F 03 03 00 03 7F  03 04 00 02 00 66 06 80  .............f..
0040: F8 FF FF 7F F8 FF FF 7F  6A 6D 70 30 53 F8 FF FF  ........jmp0S...
0050: 7F F8 FF FF 7F 6A 6D 70  30 66 06 80 F8 FF FF 7F  .....jmp0f......
0060: F8 FF FF 7F 6A 6D 70 33  06 05 00 03 06 00 07 80  ....jmp3........
0070: 02 05 00 08 80 04 AD 00  03 02 00 04 00 07 02 00  ................
0080: 05 00 37 00 00 01 00 02  00 03 00 02 06 00 09 80  ..7.............
0090: 04 98 00 08 06 00 0A 80  07 00 00 0B 80 07 01 00  ................
00A0: 07 80 08 05 00 06 00 1C  0C 80 01 70 00 06 07 00  ...........p....
00B0: 02 05 00 0D 80 05 00 01  02 05 00 0E 80 05 CB 00  ................
00C0: 02 07 00 0E 80 00 CB 00  05 07 00 03 02 00 04 00  ................
00D0: 07 02 00 05 00 37 00 00  01 00 02 00 03 00 02 06  .....7..........
00E0: 00 0F 80 05 EB 00 07 06  00 06 80 07 00 00 0B 80  ................
00F0: 07 01 00 07 80 07 05 00  06 00 1C 0C 80 01 B0 00  ................
0100: 33 00 37 00 00 01 00 02  00 03 00 66 06 80 F8 FF  3.7........f....
0110: FF 7F F8 FF FF 7F 6A 6D  70 32 53 DA 00 10 01 DA  ......jmp2S.....
0120: 00 10 01 6A 6D 70 32 39  10 80 00                 ...jmp29...     
```

#### Opcodes

```
  0: 0x0010 [0x32] ExtData[1]->MainSpeed = 20* * 0.1
  1: 0x0013 [0x1E] EventEntity looks at EventEntity and starts talking
  2: 0x0018 [0x1F] MOVE_ENTITY: EventEntity moves to X=94.000*, Z=-120.460*, Y=2.434*
  3: 0x0020 [0x1F] MOVE_ENTITY: Update entity position (mode=1)
  4: 0x0022 [0x33] EventEntity->Render.Flags0 |= 0x200000 // Bit 21 (flag=0x01)
  5: 0x0024 [0x03] ExtData[1]->WorkLocal[0] = ExtData[1]->EventPos[0] * 1000.0
  6: 0x0029 [0x03] ExtData[1]->WorkLocal[1] = ExtData[1]->EventPos[2] * 1000.0
  7: 0x002E [0x03] ExtData[1]->WorkLocal[2] = ExtData[1]->EventPos[1] * 1000.0
  8: 0x0033 [0x03] ExtData[1]->WorkLocal[3] = enDirCli(ExtData[1]->EventDir[1]) * 4096.0 * 0.15915963
  9: 0x0038 [0x03] ExtData[1]->WorkLocal[4] = ExtData[1]->WorkLocal[2]
 10: 0x003D [0x66] LOAD_EXT_SCHEDULER_MAIN: Load scheduler "jmp0" with entities [EventEntity, EventEntity], work=40*
 11: 0x004C [0x53] WAIT_SCHEDULER_TASK: Wait for scheduler "jmp0" with entities [EventEntity, EventEntity]
 12: 0x0059 [0x66] LOAD_EXT_SCHEDULER_MAIN: Load scheduler "jmp3" with entities [EventEntity, EventEntity], work=40*
 13: 0x0068 [0x06] ExtData[1]->WorkLocal[5] = 0
 14: 0x006B [0x03] ExtData[1]->WorkLocal[6] = 100*
 15: 0x0070 [0x02] IF !(ExtData[1]->WorkLocal[5] < 4294966996*) GOTO 0x00AD
 16: 0x0078 [0x03] ExtData[1]->WorkLocal[2] = ExtData[1]->WorkLocal[4]
 17: 0x007D [0x07] ExtData[1]->WorkLocal[2] += ExtData[1]->WorkLocal[5]
 18: 0x0082 [0x37] UPDATE_EVENT_POSITION_AND_DIR: x=ExtData[1]->WorkLocal[0], z=ExtData[1]->WorkLocal[1], y=ExtData[1]->WorkLocal[2], direction=ExtData[1]->WorkLocal[3]
 19: 0x008B [0x02] IF !(ExtData[1]->WorkLocal[6] < 30*) GOTO 0x0098
 20: 0x0093 [0x08] ExtData[1]->WorkLocal[6] -= 14*
 21: 0x0098 [0x07] ExtData[1]->WorkLocal[0] += 4294967196*
 22: 0x009D [0x07] ExtData[1]->WorkLocal[1] += 100*
 23: 0x00A2 [0x08] ExtData[1]->WorkLocal[5] -= ExtData[1]->WorkLocal[6]
 24: 0x00A7 [0x1C] WAIT(1* ticks)
 25: 0x00AA [0x01] GOTO 0x0070
 26: 0x00AD [0x06] ExtData[1]->WorkLocal[7] = 0

SUBROUTINE_00B0:
 27: 0x00B0 [0x02] IF !(ExtData[1]->WorkLocal[5] > 1630*) GOTO 0x0100
 28: 0x00B8 [0x02] IF !(ExtData[1]->WorkLocal[5] > 0*) GOTO 0x00CB
 29: 0x00C0 [0x02] IF !(ExtData[1]->WorkLocal[7] == 0*) GOTO 0x00CB
 30: 0x00C8 [0x05] ExtData[1]->WorkLocal[7] = 1
 31: 0x00CB [0x03] ExtData[1]->WorkLocal[2] = ExtData[1]->WorkLocal[4]
 32: 0x00D0 [0x07] ExtData[1]->WorkLocal[2] += ExtData[1]->WorkLocal[5]
 33: 0x00D5 [0x37] UPDATE_EVENT_POSITION_AND_DIR: x=ExtData[1]->WorkLocal[0], z=ExtData[1]->WorkLocal[1], y=ExtData[1]->WorkLocal[2], direction=ExtData[1]->WorkLocal[3]
 34: 0x00DE [0x02] IF !(ExtData[1]->WorkLocal[6] > 1000*) GOTO 0x00EB
 35: 0x00E6 [0x07] ExtData[1]->WorkLocal[6] += 40*
 36: 0x00EB [0x07] ExtData[1]->WorkLocal[0] += 4294967196*
 37: 0x00F0 [0x07] ExtData[1]->WorkLocal[1] += 100*
 38: 0x00F5 [0x07] ExtData[1]->WorkLocal[5] += ExtData[1]->WorkLocal[6]
 39: 0x00FA [0x1C] WAIT(1* ticks)
 40: 0x00FD [0x01] GOTO 0x00B0
 41: 0x0100 [0x33] EventEntity->Render.Flags0 &= ~ 0x200000 // Bit 21 (flag=0x00)
 42: 0x0102 [0x37] UPDATE_EVENT_POSITION_AND_DIR: x=ExtData[1]->WorkLocal[0], z=ExtData[1]->WorkLocal[1], y=ExtData[1]->WorkLocal[2], direction=ExtData[1]->WorkLocal[3]
 43: 0x010B [0x66] LOAD_EXT_SCHEDULER_MAIN: Load scheduler "jmp2" with entities [EventEntity, EventEntity], work=40*
 44: 0x011A [0x53] WAIT_SCHEDULER_TASK: Wait for scheduler "jmp2" with entities [Tuffle-Buffle (ID: 17826010/0x011000DA), Tuffle-Buffle (ID: 17826010/0x011000DA)]
 45: 0x0127 [0x39] SET_ENTITY_DIRECTION(direction=11.2°*)
 46: 0x012A [0x00] END_REQSTACK()
```

### Event 65535.4

#### Metadata

| Field        | Value    |
|--------------|----------|
| Entrypoint   | 0x012B   |
| Data Size    | 42 bytes |
| Instructions | 9        |

```
      00 01 02 03 04 05 06 07  08 09 0A 0B 0C 0D 0E 0F
      -- -- -- -- -- -- -- --  -- -- -- -- -- -- -- --
0120:                                   32 11 80 AD 02             2....
0130: 12 80 F8 FF FF 7F F8 FF  FF 7F 1C 13 80 39 14 80  .............9..
0140: 1F 00 15 80 16 80 17 80  1F 01 1F 00 18 80 19 80  ................
0150: 1A 80 1F 01 00                                    .....           
```

#### Opcodes

```
  0: 0x012B [0x32] ExtData[1]->MainSpeed = 200* * 0.1
  1: 0x012E [0xAD] DUAL_ENTITY_SCHEDULER_HANDLER: Execute sub-case 2 with entities [EventEntity, EventEntity], work=9*
  2: 0x013A [0x1C] WAIT(90* ticks)
  3: 0x013D [0x39] SET_ENTITY_DIRECTION(direction=356.5°*)
  4: 0x0140 [0x1F] MOVE_ENTITY: EventEntity moves to X=101.230*, Z=-108.600*, Y=2.250*
  5: 0x0148 [0x1F] MOVE_ENTITY: Update entity position (mode=1)
  6: 0x014A [0x1F] MOVE_ENTITY: EventEntity moves to X=119.200*, Z=-91.000*, Y=-0.791*
  7: 0x0152 [0x1F] MOVE_ENTITY: Update entity position (mode=1)
  8: 0x0154 [0x00] END_REQSTACK()
```

### Event 65535.5

#### Metadata

| Field        | Value    |
|--------------|----------|
| Entrypoint   | 0x0155   |
| Data Size    | 18 bytes |
| Instructions | 3        |

```
      00 01 02 03 04 05 06 07  08 09 0A 0B 0C 0D 0E 0F
      -- -- -- -- -- -- -- --  -- -- -- -- -- -- -- --
0150:                B7 01 08  00 DA 00 10 01 B4 04 08       ...........
0160: 00 0E 80 48 1B 80 00                              ...H...         
```

#### Opcodes

```
  0: 0x0155 [0xB7] ENTITY_DATA_HANDLER: Set Unknown NPC (ID: 14286856/0x00DA0008) name from 0x0110 (monstrosity: 0x04B4)
  1: 0x015F [0x08] 0x0E00 -= 0x4880
  2: 0x0164 [0x1B] RETURN
```

#### Data or dead code:

```
# Dead code (unreachable instructions):
     0x0165 [0x00] END_REQSTACK()
```

### Event 65535.6

#### Metadata

| Field        | Value    |
|--------------|----------|
| Entrypoint   | 0x0167   |
| Data Size    | 18 bytes |
| Instructions | 3        |

```
      00 01 02 03 04 05 06 07  08 09 0A 0B 0C 0D 0E 0F
      -- -- -- -- -- -- -- --  -- -- -- -- -- -- -- --
0160:                      B7  01 08 00 DA 00 10 01 B4         .........
0170: 04 08 00 0E 80 48 1C 80  00                       .....H...       
```

#### Opcodes

```
  0: 0x0167 [0xB7] ENTITY_DATA_HANDLER: Set Unknown NPC (ID: 14286856/0x00DA0008) name from 0x0110 (monstrosity: 0x04B4)
  1: 0x0171 [0x08] 0x0E00 -= 0x4880
  2: 0x0176 [0x1C] WAIT(0x80 ticks)
```

### Event 65535.7

#### Metadata

| Field        | Value    |
|--------------|----------|
| Entrypoint   | 0x0179   |
| Data Size    | 58 bytes |
| Instructions | 8        |

```
      00 01 02 03 04 05 06 07  08 09 0A 0B 0C 0D 0E 0F
      -- -- -- -- -- -- -- --  -- -- -- -- -- -- -- --
0170:                             03 09 00 1D 80 07 09           .......
0180: 00 02 10 9F 09 00 F8 FF  FF 7F F8 FF FF 7F 66 72  ..............fr
0190: 73 74 0E 80 1C 1E 80 27  10 DA 00 10 01 0D 1C 1F  st.....'........
01A0: 80 9F 09 00 F8 FF FF 7F  F8 FF FF 7F 6F 6B 30 30  ............ok00
01B0: 0E 80 00                                          ...             
```

#### Opcodes

```
  0: 0x0179 [0x03] ExtData[1]->WorkLocal[9] = 188*
  1: 0x017E [0x07] ExtData[1]->WorkLocal[9] += Work_Zone[2]
  2: 0x0183 [0x9F] LOAD_SCHEDULED_TASK_ALT: Load scheduler "frst" with entities [EventEntity, EventEntity], work=[ExtData[1]->WorkLocal[9], 0*]
  3: 0x0194 [0x1C] WAIT(180* ticks)
  4: 0x0197 [0x27] REQ_SET(priority=0x10, entity_id=Tuffle-Buffle (ID: 17826010/0x011000DA), tag_num=0x0D)
  5: 0x019E [0x1C] WAIT(120* ticks)
  6: 0x01A1 [0x9F] LOAD_SCHEDULED_TASK_ALT: Load scheduler "ok00" with entities [EventEntity, EventEntity], work=[ExtData[1]->WorkLocal[9], 0*]
  7: 0x01B2 [0x00] END_REQSTACK()
```

### Event 65535.8

#### Metadata

| Field        | Value    |
|--------------|----------|
| Entrypoint   | 0x01B3   |
| Data Size    | 58 bytes |
| Instructions | 8        |

```
      00 01 02 03 04 05 06 07  08 09 0A 0B 0C 0D 0E 0F
      -- -- -- -- -- -- -- --  -- -- -- -- -- -- -- --
01B0:          03 09 00 1D 80  07 09 00 02 10 9F 09 00     .............
01C0: F8 FF FF 7F F8 FF FF 7F  66 72 73 74 0E 80 1C 20  ........frst... 
01D0: 80 27 10 DA 00 10 01 0D  1C 21 80 9F 09 00 F8 FF  .'.......!......
01E0: FF 7F F8 FF FF 7F 6E 67  30 30 0E 80 00           ......ng00...   
```

#### Opcodes

```
  0: 0x01B3 [0x03] ExtData[1]->WorkLocal[9] = 188*
  1: 0x01B8 [0x07] ExtData[1]->WorkLocal[9] += Work_Zone[2]
  2: 0x01BD [0x9F] LOAD_SCHEDULED_TASK_ALT: Load scheduler "frst" with entities [EventEntity, EventEntity], work=[ExtData[1]->WorkLocal[9], 0*]
  3: 0x01CE [0x1C] WAIT(60* ticks)
  4: 0x01D1 [0x27] REQ_SET(priority=0x10, entity_id=Tuffle-Buffle (ID: 17826010/0x011000DA), tag_num=0x0D)
  5: 0x01D8 [0x1C] WAIT(240* ticks)
  6: 0x01DB [0x9F] LOAD_SCHEDULED_TASK_ALT: Load scheduler "ng00" with entities [EventEntity, EventEntity], work=[ExtData[1]->WorkLocal[9], 0*]
  7: 0x01EC [0x00] END_REQSTACK()
```

### Event 5067

#### Metadata

| Field        | Value   |
|--------------|---------|
| Entrypoint   | 0x01ED  |
| Data Size    | 1 bytes |
| Instructions | 1       |

```
      00 01 02 03 04 05 06 07  08 09 0A 0B 0C 0D 0E 0F
      -- -- -- -- -- -- -- --  -- -- -- -- -- -- -- --
01E0:                                         00                     .  
```

#### Opcodes

```
  0: 0x01ED [0x00] END_REQSTACK()
```

### Event 65535.9

#### Metadata

| Field        | Value   |
|--------------|---------|
| Entrypoint   | 0x01EE  |
| Data Size    | 5 bytes |
| Instructions | 2       |

```
      00 01 02 03 04 05 06 07  08 09 0A 0B 0C 0D 0E 0F
      -- -- -- -- -- -- -- --  -- -- -- -- -- -- -- --
01E0:                                            B6 03                ..
01F0: 01 17 00                                          ...             
```

#### Opcodes

```
  0: 0x01EE [0xB6] ENTITY_APPEARANCE_HANDLER(case=Head, value=Work_Zone_1700[1])
  1: 0x01F2 [0x00] END_REQSTACK()
```

### Event 5094

#### Metadata

| Field        | Value   |
|--------------|---------|
| Entrypoint   | 0x01F3  |
| Data Size    | 1 bytes |
| Instructions | 1       |

```
      00 01 02 03 04 05 06 07  08 09 0A 0B 0C 0D 0E 0F
      -- -- -- -- -- -- -- --  -- -- -- -- -- -- -- --
01F0:          00                                          .            
```

#### Opcodes

```
  0: 0x01F3 [0x00] END_REQSTACK()
```

### Event 5095

#### Metadata

| Field        | Value   |
|--------------|---------|
| Entrypoint   | 0x01F4  |
| Data Size    | 1 bytes |
| Instructions | 1       |

```
      00 01 02 03 04 05 06 07  08 09 0A 0B 0C 0D 0E 0F
      -- -- -- -- -- -- -- --  -- -- -- -- -- -- -- --
01F0:             00                                        .           
```

#### Opcodes

```
  0: 0x01F4 [0x00] END_REQSTACK()
```

### Event 5096

#### Metadata

| Field        | Value   |
|--------------|---------|
| Entrypoint   | 0x01F5  |
| Data Size    | 1 bytes |
| Instructions | 1       |

```
      00 01 02 03 04 05 06 07  08 09 0A 0B 0C 0D 0E 0F
      -- -- -- -- -- -- -- --  -- -- -- -- -- -- -- --
01F0:                00                                      .          
```

#### Opcodes

```
  0: 0x01F5 [0x00] END_REQSTACK()
```

### Event 5202

#### Metadata

| Field        | Value   |
|--------------|---------|
| Entrypoint   | 0x01F6  |
| Data Size    | 1 bytes |
| Instructions | 1       |

```
      00 01 02 03 04 05 06 07  08 09 0A 0B 0C 0D 0E 0F
      -- -- -- -- -- -- -- --  -- -- -- -- -- -- -- --
01F0:                   00                                    .         
```

#### Opcodes

```
  0: 0x01F6 [0x00] END_REQSTACK()
```

### Event 5203

#### Metadata

| Field        | Value   |
|--------------|---------|
| Entrypoint   | 0x01F7  |
| Data Size    | 1 bytes |
| Instructions | 1       |

```
      00 01 02 03 04 05 06 07  08 09 0A 0B 0C 0D 0E 0F
      -- -- -- -- -- -- -- --  -- -- -- -- -- -- -- --
01F0:                      00                                  .        
```

#### Opcodes

```
  0: 0x01F7 [0x00] END_REQSTACK()
```

### Event 5204

#### Metadata

| Field        | Value   |
|--------------|---------|
| Entrypoint   | 0x01F8  |
| Data Size    | 1 bytes |
| Instructions | 1       |

```
      00 01 02 03 04 05 06 07  08 09 0A 0B 0C 0D 0E 0F
      -- -- -- -- -- -- -- --  -- -- -- -- -- -- -- --
01F0:                          00                               .       
```

#### Opcodes

```
  0: 0x01F8 [0x00] END_REQSTACK()
```

### Event 5205

#### Metadata

| Field        | Value   |
|--------------|---------|
| Entrypoint   | 0x01F9  |
| Data Size    | 1 bytes |
| Instructions | 1       |

```
      00 01 02 03 04 05 06 07  08 09 0A 0B 0C 0D 0E 0F
      -- -- -- -- -- -- -- --  -- -- -- -- -- -- -- --
01F0:                             00                             .      
```

#### Opcodes

```
  0: 0x01F9 [0x00] END_REQSTACK()
```

### Event 5206

#### Metadata

| Field        | Value   |
|--------------|---------|
| Entrypoint   | 0x01FA  |
| Data Size    | 1 bytes |
| Instructions | 1       |

```
      00 01 02 03 04 05 06 07  08 09 0A 0B 0C 0D 0E 0F
      -- -- -- -- -- -- -- --  -- -- -- -- -- -- -- --
01F0:                                00                           .     
```

#### Opcodes

```
  0: 0x01FA [0x00] END_REQSTACK()
```

### Event 5207

#### Metadata

| Field        | Value   |
|--------------|---------|
| Entrypoint   | 0x01FB  |
| Data Size    | 1 bytes |
| Instructions | 1       |

```
      00 01 02 03 04 05 06 07  08 09 0A 0B 0C 0D 0E 0F
      -- -- -- -- -- -- -- --  -- -- -- -- -- -- -- --
01F0:                                   00                         .    
```

#### Opcodes

```
  0: 0x01FB [0x00] END_REQSTACK()
```

### Event 5208

#### Metadata

| Field        | Value   |
|--------------|---------|
| Entrypoint   | 0x01FC  |
| Data Size    | 1 bytes |
| Instructions | 1       |

```
      00 01 02 03 04 05 06 07  08 09 0A 0B 0C 0D 0E 0F
      -- -- -- -- -- -- -- --  -- -- -- -- -- -- -- --
01F0:                                      00                       .   
```

#### Opcodes

```
  0: 0x01FC [0x00] END_REQSTACK()
```

### Event 65535.10

#### Metadata

| Field        | Value    |
|--------------|----------|
| Entrypoint   | 0x01FD   |
| Data Size    | 14 bytes |
| Instructions | 4        |

```
      00 01 02 03 04 05 06 07  08 09 0A 0B 0C 0D 0E 0F
      -- -- -- -- -- -- -- --  -- -- -- -- -- -- -- --
01F0:                                         32 09 80               2..
0200: 1F 00 22 80 23 80 17 80  1F 01 00                 ..".#......     
```

#### Opcodes

```
  0: 0x01FD [0x32] ExtData[1]->MainSpeed = 30* * 0.1
  1: 0x0200 [0x1F] MOVE_ENTITY: EventEntity moves to X=105.680*, Z=-104.660*, Y=2.250*
  2: 0x0208 [0x1F] MOVE_ENTITY: Update entity position (mode=1)
  3: 0x020A [0x00] END_REQSTACK()
```

### Event 65535.11

#### Metadata

| Field        | Value   |
|--------------|---------|
| Entrypoint   | 0x020B  |
| Data Size    | 4 bytes |
| Instructions | 2       |

```
      00 01 02 03 04 05 06 07  08 09 0A 0B 0C 0D 0E 0F
      -- -- -- -- -- -- -- --  -- -- -- -- -- -- -- --
0200:                                   39 24 80 00                9$.. 
```

#### Opcodes

```
  0: 0x020B [0x39] SET_ENTITY_DIRECTION(direction=8.4°*)
  1: 0x020E [0x00] END_REQSTACK()
```

### Event 65535.12

#### Metadata

| Field        | Value   |
|--------------|---------|
| Entrypoint   | 0x020F  |
| Data Size    | 4 bytes |
| Instructions | 2       |

```
      00 01 02 03 04 05 06 07  08 09 0A 0B 0C 0D 0E 0F
      -- -- -- -- -- -- -- --  -- -- -- -- -- -- -- --
0200:                                               39                 9
0210: 25 80 00                                          %..             
```

#### Opcodes

```
  0: 0x020F [0x39] SET_ENTITY_DIRECTION(direction=4.2°*)
  1: 0x0212 [0x00] END_REQSTACK()
```

### Event 65535.13

#### Metadata

| Field        | Value    |
|--------------|----------|
| Entrypoint   | 0x0213   |
| Data Size    | 54 bytes |
| Instructions | 12       |

```
      00 01 02 03 04 05 06 07  08 09 0A 0B 0C 0D 0E 0F
      -- -- -- -- -- -- -- --  -- -- -- -- -- -- -- --
0210:          32 06 80 1F 00  26 80 27 80 28 80 1F 01     2....&.'.(...
0220: 1F 00 29 80 2A 80 28 80  1F 01 1F 00 2B 80 2C 80  ..).*.(.....+.,.
0230: 28 80 1F 01 1F 00 2B 80  2C 80 28 80 1F 01 1F 00  (.....+.,.(.....
0240: 2D 80 2E 80 28 80 1F 01  00                       -...(....       
```

#### Opcodes

```
  0: 0x0213 [0x32] ExtData[1]->MainSpeed = 40* * 0.1
  1: 0x0216 [0x1F] MOVE_ENTITY: EventEntity moves to X=-57.380*, Z=-7.740*, Y=-0.500*
  2: 0x021E [0x1F] MOVE_ENTITY: Update entity position (mode=1)
  3: 0x0220 [0x1F] MOVE_ENTITY: EventEntity moves to X=-57.790*, Z=-5.360*, Y=-0.500*
  4: 0x0228 [0x1F] MOVE_ENTITY: Update entity position (mode=1)
  5: 0x022A [0x1F] MOVE_ENTITY: EventEntity moves to X=-59.100*, Z=-2.300*, Y=-0.500*
  6: 0x0232 [0x1F] MOVE_ENTITY: Update entity position (mode=1)
  7: 0x0234 [0x1F] MOVE_ENTITY: EventEntity moves to X=-59.100*, Z=-2.300*, Y=-0.500*
  8: 0x023C [0x1F] MOVE_ENTITY: Update entity position (mode=1)
  9: 0x023E [0x1F] MOVE_ENTITY: EventEntity moves to X=-54.560*, Z=3.320*, Y=-0.500*
 10: 0x0246 [0x1F] MOVE_ENTITY: Update entity position (mode=1)
 11: 0x0248 [0x00] END_REQSTACK()
```

### Event 65535.14

#### Metadata

| Field        | Value    |
|--------------|----------|
| Entrypoint   | 0x0249   |
| Data Size    | 31 bytes |
| Instructions | 5        |

```
      00 01 02 03 04 05 06 07  08 09 0A 0B 0C 0D 0E 0F
      -- -- -- -- -- -- -- --  -- -- -- -- -- -- -- --
0240:                             32 11 80 C5 2F 80 F8           2.../..
0250: FF FF 7F F8 FF FF 7F 73  30 30 32 0E 80 1F 00 30  .......s002....0
0260: 80 31 80 32 80 1F 01 00                           .1.2....        
```

#### Opcodes

```
  0: 0x0249 [0x32] ExtData[1]->MainSpeed = 200* * 0.1
  1: 0x024C [0xC5] LOAD_SCHEDULED_TASK_ALT3: Load scheduler 0x800E3230 for entities [EventEntity, EventEntity], work=5*, param=12403
  2: 0x025D [0x1F] MOVE_ENTITY: EventEntity moves to X=88.000*, Z=-116.000*, Y=3.730*
  3: 0x0265 [0x1F] MOVE_ENTITY: Update entity position (mode=1)
  4: 0x0267 [0x00] END_REQSTACK()
```

### Event 65535.15

#### Metadata

| Field        | Value    |
|--------------|----------|
| Entrypoint   | 0x0268   |
| Data Size    | 28 bytes |
| Instructions | 10       |

```
      00 01 02 03 04 05 06 07  08 09 0A 0B 0C 0D 0E 0F
      -- -- -- -- -- -- -- --  -- -- -- -- -- -- -- --
0260:                          39 0E 80 1C 33 80 39 34          9...3.94
0270: 80 1C 33 80 39 0E 80 1C  33 80 39 34 80 1C 20 80  ..3.9...3.94.. .
0280: 39 35 80 00                                       95..            
```

#### Opcodes

```
  0: 0x0268 [0x39] SET_ENTITY_DIRECTION(direction=0.0°*)
  1: 0x026B [0x1C] WAIT(45* ticks)
  2: 0x026E [0x39] SET_ENTITY_DIRECTION(direction=354.4°*)
  3: 0x0271 [0x1C] WAIT(45* ticks)
  4: 0x0274 [0x39] SET_ENTITY_DIRECTION(direction=0.0°*)
  5: 0x0277 [0x1C] WAIT(45* ticks)
  6: 0x027A [0x39] SET_ENTITY_DIRECTION(direction=354.4°*)
  7: 0x027D [0x1C] WAIT(60* ticks)
  8: 0x0280 [0x39] SET_ENTITY_DIRECTION(direction=357.2°*)
  9: 0x0283 [0x00] END_REQSTACK()
```

### Event 65535.16

#### Metadata

| Field        | Value    |
|--------------|----------|
| Entrypoint   | 0x0284   |
| Data Size    | 22 bytes |
| Instructions | 4        |

```
      00 01 02 03 04 05 06 07  08 09 0A 0B 0C 0D 0E 0F
      -- -- -- -- -- -- -- --  -- -- -- -- -- -- -- --
0280:             1C 1F 80 66  06 80 F8 FF FF 7F F8 FF      ...f........
0290: FF 7F 73 79 75 30 1C 1E  80 00                    ..syu0....      
```

#### Opcodes

```
  0: 0x0284 [0x1C] WAIT(120* ticks)
  1: 0x0287 [0x66] LOAD_EXT_SCHEDULER_MAIN: Load scheduler "syu0" with entities [EventEntity, EventEntity], work=40*
  2: 0x0296 [0x1C] WAIT(180* ticks)
  3: 0x0299 [0x00] END_REQSTACK()
```

### Event 65535.17

#### Metadata

| Field        | Value    |
|--------------|----------|
| Entrypoint   | 0x029A   |
| Data Size    | 44 bytes |
| Instructions | 8        |

```
      00 01 02 03 04 05 06 07  08 09 0A 0B 0C 0D 0E 0F
      -- -- -- -- -- -- -- --  -- -- -- -- -- -- -- --
0290:                                32 11 80 39 35 80            2..95.
02A0: C5 2F 80 F8 FF FF 7F F8  FF FF 7F 73 30 30 32 0E  ./.........s002.
02B0: 80 1F 00 36 80 37 80 38  80 1F 01 1F 00 39 80 3A  ...6.7.8.....9.:
02C0: 80 38 80 1F 01 00                                 .8....          
```

#### Opcodes

```
  0: 0x029A [0x32] ExtData[1]->MainSpeed = 200* * 0.1
  1: 0x029D [0x39] SET_ENTITY_DIRECTION(direction=357.2°*)
  2: 0x02A0 [0xC5] LOAD_SCHEDULED_TASK_ALT3: Load scheduler 0x800E3230 for entities [EventEntity, EventEntity], work=5*, param=12403
  3: 0x02B1 [0x1F] MOVE_ENTITY: EventEntity moves to X=134.270*, Z=-69.860*, Y=4.000*
  4: 0x02B9 [0x1F] MOVE_ENTITY: Update entity position (mode=1)
  5: 0x02BB [0x1F] MOVE_ENTITY: EventEntity moves to X=137.260*, Z=-44.750*, Y=4.000*
  6: 0x02C3 [0x1F] MOVE_ENTITY: Update entity position (mode=1)
  7: 0x02C5 [0x00] END_REQSTACK()
```

### Event 65535.18

#### Metadata

| Field        | Value   |
|--------------|---------|
| Entrypoint   | 0x02C6  |
| Data Size    | 4 bytes |
| Instructions | 2       |

```
      00 01 02 03 04 05 06 07  08 09 0A 0B 0C 0D 0E 0F
      -- -- -- -- -- -- -- --  -- -- -- -- -- -- -- --
02C0:                   39 00  80 00                          9...      
```

#### Opcodes

```
  0: 0x02C6 [0x39] SET_ENTITY_DIRECTION(direction=11.6°*)
  1: 0x02C9 [0x00] END_REQSTACK()
```

### Event 65535.19

#### Metadata

| Field        | Value     |
|--------------|-----------|
| Entrypoint   | 0x02CA    |
| Data Size    | 288 bytes |
| Instructions | 48        |

```
      00 01 02 03 04 05 06 07  08 09 0A 0B 0C 0D 0E 0F
      -- -- -- -- -- -- -- --  -- -- -- -- -- -- -- --
02C0:                                32 02 80 1F 00 3B            2....;
02D0: 80 3C 80 05 80 1F 01 33  01 03 00 00 00 7F 03 01  .<.....3........
02E0: 00 02 7F 03 02 00 01 7F  03 03 00 03 7F 03 04 00  ................
02F0: 02 00 66 06 80 F8 FF FF  7F F8 FF FF 7F 6A 6D 70  ..f..........jmp
0300: 30 53 F8 FF FF 7F F8 FF  FF 7F 6A 6D 70 30 66 06  0S........jmp0f.
0310: 80 F8 FF FF 7F F8 FF FF  7F 6A 6D 70 33 06 05 00  .........jmp3...
0320: 03 06 00 07 80 02 05 00  08 80 04 62 03 03 02 00  ...........b....
0330: 04 00 07 02 00 05 00 37  00 00 01 00 02 00 03 00  .......7........
0340: 02 06 00 09 80 04 4D 03  08 06 00 0A 80 07 00 00  ......M.........
0350: 3D 80 07 01 00 06 80 08  05 00 06 00 1C 0C 80 01  =...............
0360: 25 03 06 07 00 02 05 00  0D 80 05 B5 03 02 05 00  %...............
0370: 0E 80 05 80 03 02 07 00  0E 80 00 80 03 05 07 00  ................
0380: 03 02 00 04 00 07 02 00  05 00 37 00 00 01 00 02  ..........7.....
0390: 00 03 00 02 06 00 0F 80  05 A0 03 07 06 00 06 80  ................
03A0: 07 00 00 3D 80 07 01 00  06 80 07 05 00 06 00 1C  ...=............
03B0: 0C 80 01 65 03 33 00 37  00 00 01 00 02 00 03 00  ...e.3.7........
03C0: 66 06 80 F8 FF FF 7F F8  FF FF 7F 6A 6D 70 32 53  f..........jmp2S
03D0: DA 00 10 01 DA 00 10 01  6A 6D 70 32 32 3E 80 1F  ........jmp22>..
03E0: 00 3F 80 40 80 38 80 1F  01 00                    .?.@.8....      
```

#### Opcodes

```
  0: 0x02CA [0x32] ExtData[1]->MainSpeed = 20* * 0.1
  1: 0x02CD [0x1F] MOVE_ENTITY: EventEntity moves to X=93.888*, Z=-120.729*, Y=2.434*
  2: 0x02D5 [0x1F] MOVE_ENTITY: Update entity position (mode=1)
  3: 0x02D7 [0x33] EventEntity->Render.Flags0 |= 0x200000 // Bit 21 (flag=0x01)
  4: 0x02D9 [0x03] ExtData[1]->WorkLocal[0] = ExtData[1]->EventPos[0] * 1000.0
  5: 0x02DE [0x03] ExtData[1]->WorkLocal[1] = ExtData[1]->EventPos[2] * 1000.0
  6: 0x02E3 [0x03] ExtData[1]->WorkLocal[2] = ExtData[1]->EventPos[1] * 1000.0
  7: 0x02E8 [0x03] ExtData[1]->WorkLocal[3] = enDirCli(ExtData[1]->EventDir[1]) * 4096.0 * 0.15915963
  8: 0x02ED [0x03] ExtData[1]->WorkLocal[4] = ExtData[1]->WorkLocal[2]
  9: 0x02F2 [0x66] LOAD_EXT_SCHEDULER_MAIN: Load scheduler "jmp0" with entities [EventEntity, EventEntity], work=40*
 10: 0x0301 [0x53] WAIT_SCHEDULER_TASK: Wait for scheduler "jmp0" with entities [EventEntity, EventEntity]
 11: 0x030E [0x66] LOAD_EXT_SCHEDULER_MAIN: Load scheduler "jmp3" with entities [EventEntity, EventEntity], work=40*
 12: 0x031D [0x06] ExtData[1]->WorkLocal[5] = 0
 13: 0x0320 [0x03] ExtData[1]->WorkLocal[6] = 100*
 14: 0x0325 [0x02] IF !(ExtData[1]->WorkLocal[5] < 4294966996*) GOTO 0x0362
 15: 0x032D [0x03] ExtData[1]->WorkLocal[2] = ExtData[1]->WorkLocal[4]
 16: 0x0332 [0x07] ExtData[1]->WorkLocal[2] += ExtData[1]->WorkLocal[5]
 17: 0x0337 [0x37] UPDATE_EVENT_POSITION_AND_DIR: x=ExtData[1]->WorkLocal[0], z=ExtData[1]->WorkLocal[1], y=ExtData[1]->WorkLocal[2], direction=ExtData[1]->WorkLocal[3]
 18: 0x0340 [0x02] IF !(ExtData[1]->WorkLocal[6] < 30*) GOTO 0x034D
 19: 0x0348 [0x08] ExtData[1]->WorkLocal[6] -= 14*
 20: 0x034D [0x07] ExtData[1]->WorkLocal[0] += 4294967146*
 21: 0x0352 [0x07] ExtData[1]->WorkLocal[1] += 40*
 22: 0x0357 [0x08] ExtData[1]->WorkLocal[5] -= ExtData[1]->WorkLocal[6]
 23: 0x035C [0x1C] WAIT(1* ticks)
 24: 0x035F [0x01] GOTO 0x0325
 25: 0x0362 [0x06] ExtData[1]->WorkLocal[7] = 0

SUBROUTINE_0365:
 26: 0x0365 [0x02] IF !(ExtData[1]->WorkLocal[5] > 1630*) GOTO 0x03B5
 27: 0x036D [0x02] IF !(ExtData[1]->WorkLocal[5] > 0*) GOTO 0x0380
 28: 0x0375 [0x02] IF !(ExtData[1]->WorkLocal[7] == 0*) GOTO 0x0380
 29: 0x037D [0x05] ExtData[1]->WorkLocal[7] = 1
 30: 0x0380 [0x03] ExtData[1]->WorkLocal[2] = ExtData[1]->WorkLocal[4]
 31: 0x0385 [0x07] ExtData[1]->WorkLocal[2] += ExtData[1]->WorkLocal[5]
 32: 0x038A [0x37] UPDATE_EVENT_POSITION_AND_DIR: x=ExtData[1]->WorkLocal[0], z=ExtData[1]->WorkLocal[1], y=ExtData[1]->WorkLocal[2], direction=ExtData[1]->WorkLocal[3]
 33: 0x0393 [0x02] IF !(ExtData[1]->WorkLocal[6] > 1000*) GOTO 0x03A0
 34: 0x039B [0x07] ExtData[1]->WorkLocal[6] += 40*
 35: 0x03A0 [0x07] ExtData[1]->WorkLocal[0] += 4294967146*
 36: 0x03A5 [0x07] ExtData[1]->WorkLocal[1] += 40*
 37: 0x03AA [0x07] ExtData[1]->WorkLocal[5] += ExtData[1]->WorkLocal[6]
 38: 0x03AF [0x1C] WAIT(1* ticks)
 39: 0x03B2 [0x01] GOTO 0x0365
 40: 0x03B5 [0x33] EventEntity->Render.Flags0 &= ~ 0x200000 // Bit 21 (flag=0x00)
 41: 0x03B7 [0x37] UPDATE_EVENT_POSITION_AND_DIR: x=ExtData[1]->WorkLocal[0], z=ExtData[1]->WorkLocal[1], y=ExtData[1]->WorkLocal[2], direction=ExtData[1]->WorkLocal[3]
 42: 0x03C0 [0x66] LOAD_EXT_SCHEDULER_MAIN: Load scheduler "jmp2" with entities [EventEntity, EventEntity], work=40*
 43: 0x03CF [0x53] WAIT_SCHEDULER_TASK: Wait for scheduler "jmp2" with entities [Tuffle-Buffle (ID: 17826010/0x011000DA), Tuffle-Buffle (ID: 17826010/0x011000DA)]
 44: 0x03DC [0x32] ExtData[1]->MainSpeed = 13* * 0.1
 45: 0x03DF [0x1F] MOVE_ENTITY: EventEntity moves to X=84.990*, Z=-120.874*, Y=4.000*
 46: 0x03E7 [0x1F] MOVE_ENTITY: Update entity position (mode=1)
 47: 0x03E9 [0x00] END_REQSTACK()
```

### Event 65535.20

#### Metadata

| Field        | Value    |
|--------------|----------|
| Entrypoint   | 0x03EA   |
| Data Size    | 32 bytes |
| Instructions | 6        |

```
      00 01 02 03 04 05 06 07  08 09 0A 0B 0C 0D 0E 0F
      -- -- -- -- -- -- -- --  -- -- -- -- -- -- -- --
03E0:                                32 3E 80 37 41 80            2>.7A.
03F0: 42 80 38 80 43 80 1F 00  44 80 45 80 38 80 1F 01  B.8.C...D.E.8...
0400: 4A DC 00 10 01 F8 FF FF  7F 00                    J.........      
```

#### Opcodes

```
  0: 0x03EA [0x32] ExtData[1]->MainSpeed = 13* * 0.1
  1: 0x03ED [0x37] UPDATE_EVENT_POSITION_AND_DIR: x=80.422*, z=-122.014*, y=4.000*, direction=157.4°*
  2: 0x03F6 [0x1F] MOVE_ENTITY: EventEntity moves to X=75.963*, Z=-122.913*, Y=4.000*
  3: 0x03FE [0x1F] MOVE_ENTITY: Update entity position (mode=1)
  4: 0x0400 [0x4A] Minnifi Delqabba (ID: 17826012/0x011000DC) looks at EventEntity
  5: 0x0409 [0x00] END_REQSTACK()
```

### Event 65535.21

#### Metadata

| Field        | Value    |
|--------------|----------|
| Entrypoint   | 0x040A   |
| Data Size    | 17 bytes |
| Instructions | 5        |

```
      00 01 02 03 04 05 06 07  08 09 0A 0B 0C 0D 0E 0F
      -- -- -- -- -- -- -- --  -- -- -- -- -- -- -- --
0400:                                32 3E 80 39 0E 80            2>.9..
0410: 1F 00 46 80 47 80 38 80  1F 01 00                 ..F.G.8....     
```

#### Opcodes

```
  0: 0x040A [0x32] ExtData[1]->MainSpeed = 13* * 0.1
  1: 0x040D [0x39] SET_ENTITY_DIRECTION(direction=0.0°*)
  2: 0x0410 [0x1F] MOVE_ENTITY: EventEntity moves to X=85.943*, Z=-120.596*, Y=4.000*
  3: 0x0418 [0x1F] MOVE_ENTITY: Update entity position (mode=1)
  4: 0x041A [0x00] END_REQSTACK()
```

### Event 65535.22

#### Metadata

| Field        | Value    |
|--------------|----------|
| Entrypoint   | 0x041B   |
| Data Size    | 41 bytes |
| Instructions | 7        |

```
      00 01 02 03 04 05 06 07  08 09 0A 0B 0C 0D 0E 0F
      -- -- -- -- -- -- -- --  -- -- -- -- -- -- -- --
0410:                                   32 3E 80 37 48             2>.7H
0420: 80 49 80 38 80 0E 80 1F  00 4A 80 4B 80 38 80 1F  .I.8.....J.K.8..
0430: 01 4A DB 00 10 01 F8 FF  FF 7F 4A F0 FF FF 7F F8  .J........J.....
0440: FF FF 7F 00                                       ....            
```

#### Opcodes

```
  0: 0x041B [0x32] ExtData[1]->MainSpeed = 13* * 0.1
  1: 0x041E [0x37] UPDATE_EVENT_POSITION_AND_DIR: x=87.290*, z=-120.442*, y=4.000*, direction=0.0°*
  2: 0x0427 [0x1F] MOVE_ENTITY: EventEntity moves to X=90.391*, Z=-120.270*, Y=4.000*
  3: 0x042F [0x1F] MOVE_ENTITY: Update entity position (mode=1)
  4: 0x0431 [0x4A] Musto-Rusto (ID: 17826011/0x011000DB) looks at EventEntity
  5: 0x043A [0x4A] LocalPlayer looks at EventEntity
  6: 0x0443 [0x00] END_REQSTACK()
```

### Event 65535.23

#### Metadata

| Field        | Value     |
|--------------|-----------|
| Entrypoint   | 0x0444    |
| Data Size    | 158 bytes |
| Instructions | 29        |

```
      00 01 02 03 04 05 06 07  08 09 0A 0B 0C 0D 0E 0F
      -- -- -- -- -- -- -- --  -- -- -- -- -- -- -- --
0440:             32 02 80 39  4C 80 6F 70 1F 00 4D 80      2..9L.op..M.
0450: 4E 80 38 80 1F 01 33 01  03 00 00 00 7F 03 01 00  N.8...3.........
0460: 02 7F 03 02 00 01 7F 03  03 00 03 7F 03 04 00 02  ................
0470: 00 66 06 80 F8 FF FF 7F  F8 FF FF 7F 6A 6D 70 30  .f..........jmp0
0480: 53 F8 FF FF 7F F8 FF FF  7F 6A 6D 70 30 66 06 80  S........jmp0f..
0490: F8 FF FF 7F F8 FF FF 7F  6A 6D 70 33 06 05 00 03  ........jmp3....
04A0: 06 00 4F 80 02 05 00 50  80 04 E1 04 03 02 00 04  ..O....P........
04B0: 00 07 02 00 05 00 37 00  00 01 00 02 00 03 00 02  ......7.........
04C0: 06 00 09 80 04 CC 04 08  06 00 0A 80 07 00 00 51  ...............Q
04D0: 80 07 01 00 52 80 08 05  00 06 00 1C 0C 80 01 A4  ....R...........
04E0: 04 00                                             ..              
```

#### Opcodes

```
  0: 0x0444 [0x32] ExtData[1]->MainSpeed = 20* * 0.1
  1: 0x0447 [0x39] SET_ENTITY_DIRECTION(direction=0.3°*)
  2: 0x044A [0x6F] WAIT_FRAME_DELAY: Yield until WaitTime reaches zero
  3: 0x044B [0x70] WAIT_ENTITY_RENDER_FLAG: Wait while EventEntity->Render.Flags3 bit 2 is set (cancel turn if not)
  4: 0x044C [0x1F] MOVE_ENTITY: EventEntity moves to X=91.917*, Z=-120.404*, Y=4.000*
  5: 0x0454 [0x1F] MOVE_ENTITY: Update entity position (mode=1)
  6: 0x0456 [0x33] EventEntity->Render.Flags0 |= 0x200000 // Bit 21 (flag=0x01)
  7: 0x0458 [0x03] ExtData[1]->WorkLocal[0] = ExtData[1]->EventPos[0] * 1000.0
  8: 0x045D [0x03] ExtData[1]->WorkLocal[1] = ExtData[1]->EventPos[2] * 1000.0
  9: 0x0462 [0x03] ExtData[1]->WorkLocal[2] = ExtData[1]->EventPos[1] * 1000.0
 10: 0x0467 [0x03] ExtData[1]->WorkLocal[3] = enDirCli(ExtData[1]->EventDir[1]) * 4096.0 * 0.15915963
 11: 0x046C [0x03] ExtData[1]->WorkLocal[4] = ExtData[1]->WorkLocal[2]
 12: 0x0471 [0x66] LOAD_EXT_SCHEDULER_MAIN: Load scheduler "jmp0" with entities [EventEntity, EventEntity], work=40*
 13: 0x0480 [0x53] WAIT_SCHEDULER_TASK: Wait for scheduler "jmp0" with entities [EventEntity, EventEntity]
 14: 0x048D [0x66] LOAD_EXT_SCHEDULER_MAIN: Load scheduler "jmp3" with entities [EventEntity, EventEntity], work=40*
 15: 0x049C [0x06] ExtData[1]->WorkLocal[5] = 0
 16: 0x049F [0x03] ExtData[1]->WorkLocal[6] = 380*
 17: 0x04A4 [0x02] IF !(ExtData[1]->WorkLocal[5] < 4294965296*) GOTO 0x04E1
 18: 0x04AC [0x03] ExtData[1]->WorkLocal[2] = ExtData[1]->WorkLocal[4]
 19: 0x04B1 [0x07] ExtData[1]->WorkLocal[2] += ExtData[1]->WorkLocal[5]
 20: 0x04B6 [0x37] UPDATE_EVENT_POSITION_AND_DIR: x=ExtData[1]->WorkLocal[0], z=ExtData[1]->WorkLocal[1], y=ExtData[1]->WorkLocal[2], direction=ExtData[1]->WorkLocal[3]
 21: 0x04BF [0x02] IF !(ExtData[1]->WorkLocal[6] < 30*) GOTO 0x04CC
 22: 0x04C7 [0x08] ExtData[1]->WorkLocal[6] -= 14*
 23: 0x04CC [0x07] ExtData[1]->WorkLocal[0] += 170*
 24: 0x04D1 [0x07] ExtData[1]->WorkLocal[1] += 4294967256*
 25: 0x04D6 [0x08] ExtData[1]->WorkLocal[5] -= ExtData[1]->WorkLocal[6]
 26: 0x04DB [0x1C] WAIT(1* ticks)
 27: 0x04DE [0x01] GOTO 0x04A4
 28: 0x04E1 [0x00] END_REQSTACK()
```

### Event 65535.24

#### Metadata

| Field        | Value    |
|--------------|----------|
| Entrypoint   | 0x04E2   |
| Data Size    | 59 bytes |
| Instructions | 10       |

```
      00 01 02 03 04 05 06 07  08 09 0A 0B 0C 0D 0E 0F
      -- -- -- -- -- -- -- --  -- -- -- -- -- -- -- --
04E0:       36 3B 80 3C 80 53  80 33 00 66 06 80 F8 FF    6;.<.S.3.f....
04F0: FF 7F F8 FF FF 7F 6A 6D  70 32 53 DA 00 10 01 DA  ......jmp2S.....
0500: 00 10 01 6A 6D 70 32 1C  54 80 32 3E 80 1F 00 55  ...jmp2.T.2>...U
0510: 80 56 80 57 80 1F 01 1E  F0 FF FF 7F 00           .V.W.........   
```

#### Opcodes

```
  0: 0x04E2 [0x36] SET_ENTITY_EVENT_POSITION(pos_x=93.888*, pos_z=-120.729*, pos_y=1.800*)
  1: 0x04E9 [0x33] EventEntity->Render.Flags0 &= ~ 0x200000 // Bit 21 (flag=0x00)
  2: 0x04EB [0x66] LOAD_EXT_SCHEDULER_MAIN: Load scheduler "jmp2" with entities [EventEntity, EventEntity], work=40*
  3: 0x04FA [0x53] WAIT_SCHEDULER_TASK: Wait for scheduler "jmp2" with entities [Tuffle-Buffle (ID: 17826010/0x011000DA), Tuffle-Buffle (ID: 17826010/0x011000DA)]
  4: 0x0507 [0x1C] WAIT(15* ticks)
  5: 0x050A [0x32] ExtData[1]->MainSpeed = 13* * 0.1
  6: 0x050D [0x1F] MOVE_ENTITY: EventEntity moves to X=94.927*, Z=-121.028*, Y=2.179*
  7: 0x0515 [0x1F] MOVE_ENTITY: Update entity position (mode=1)
  8: 0x0517 [0x1E] EventEntity looks at LocalPlayer and starts talking
  9: 0x051C [0x00] END_REQSTACK()
```

### Event 65535.25

#### Metadata

| Field        | Value     |
|--------------|-----------|
| Entrypoint   | 0x051D    |
| Data Size    | 288 bytes |
| Instructions | 48        |

```
      00 01 02 03 04 05 06 07  08 09 0A 0B 0C 0D 0E 0F
      -- -- -- -- -- -- -- --  -- -- -- -- -- -- -- --
0510:                                         32 02 80               2..
0520: 1F 00 3B 80 3C 80 05 80  1F 01 33 01 03 00 00 00  ..;.<.....3.....
0530: 7F 03 01 00 02 7F 03 02  00 01 7F 03 03 00 03 7F  ................
0540: 03 04 00 02 00 66 06 80  F8 FF FF 7F F8 FF FF 7F  .....f..........
0550: 6A 6D 70 30 53 F8 FF FF  7F F8 FF FF 7F 6A 6D 70  jmp0S........jmp
0560: 30 66 06 80 F8 FF FF 7F  F8 FF FF 7F 6A 6D 70 33  0f..........jmp3
0570: 06 05 00 03 06 00 07 80  02 05 00 08 80 04 B5 05  ................
0580: 03 02 00 04 00 07 02 00  05 00 37 00 00 01 00 02  ..........7.....
0590: 00 03 00 02 06 00 09 80  04 A0 05 08 06 00 0A 80  ................
05A0: 07 00 00 3D 80 07 01 00  06 80 08 05 00 06 00 1C  ...=............
05B0: 0C 80 01 78 05 06 07 00  02 05 00 0D 80 05 08 06  ...x............
05C0: 02 05 00 0E 80 05 D3 05  02 07 00 0E 80 00 D3 05  ................
05D0: 05 07 00 03 02 00 04 00  07 02 00 05 00 37 00 00  .............7..
05E0: 01 00 02 00 03 00 02 06  00 0F 80 05 F3 05 07 06  ................
05F0: 00 06 80 07 00 00 3D 80  07 01 00 06 80 07 05 00  ......=.........
0600: 06 00 1C 0C 80 01 B8 05  33 00 37 00 00 01 00 02  ........3.7.....
0610: 00 03 00 66 06 80 F8 FF  FF 7F F8 FF FF 7F 6A 6D  ...f..........jm
0620: 70 32 53 DA 00 10 01 DA  00 10 01 6A 6D 70 32 32  p2S........jmp22
0630: 3E 80 1F 00 58 80 59 80  38 80 1F 01 00           >...X.Y.8....   
```

#### Opcodes

```
  0: 0x051D [0x32] ExtData[1]->MainSpeed = 20* * 0.1
  1: 0x0520 [0x1F] MOVE_ENTITY: EventEntity moves to X=93.888*, Z=-120.729*, Y=2.434*
  2: 0x0528 [0x1F] MOVE_ENTITY: Update entity position (mode=1)
  3: 0x052A [0x33] EventEntity->Render.Flags0 |= 0x200000 // Bit 21 (flag=0x01)
  4: 0x052C [0x03] ExtData[1]->WorkLocal[0] = ExtData[1]->EventPos[0] * 1000.0
  5: 0x0531 [0x03] ExtData[1]->WorkLocal[1] = ExtData[1]->EventPos[2] * 1000.0
  6: 0x0536 [0x03] ExtData[1]->WorkLocal[2] = ExtData[1]->EventPos[1] * 1000.0
  7: 0x053B [0x03] ExtData[1]->WorkLocal[3] = enDirCli(ExtData[1]->EventDir[1]) * 4096.0 * 0.15915963
  8: 0x0540 [0x03] ExtData[1]->WorkLocal[4] = ExtData[1]->WorkLocal[2]
  9: 0x0545 [0x66] LOAD_EXT_SCHEDULER_MAIN: Load scheduler "jmp0" with entities [EventEntity, EventEntity], work=40*
 10: 0x0554 [0x53] WAIT_SCHEDULER_TASK: Wait for scheduler "jmp0" with entities [EventEntity, EventEntity]
 11: 0x0561 [0x66] LOAD_EXT_SCHEDULER_MAIN: Load scheduler "jmp3" with entities [EventEntity, EventEntity], work=40*
 12: 0x0570 [0x06] ExtData[1]->WorkLocal[5] = 0
 13: 0x0573 [0x03] ExtData[1]->WorkLocal[6] = 100*
 14: 0x0578 [0x02] IF !(ExtData[1]->WorkLocal[5] < 4294966996*) GOTO 0x05B5
 15: 0x0580 [0x03] ExtData[1]->WorkLocal[2] = ExtData[1]->WorkLocal[4]
 16: 0x0585 [0x07] ExtData[1]->WorkLocal[2] += ExtData[1]->WorkLocal[5]
 17: 0x058A [0x37] UPDATE_EVENT_POSITION_AND_DIR: x=ExtData[1]->WorkLocal[0], z=ExtData[1]->WorkLocal[1], y=ExtData[1]->WorkLocal[2], direction=ExtData[1]->WorkLocal[3]
 18: 0x0593 [0x02] IF !(ExtData[1]->WorkLocal[6] < 30*) GOTO 0x05A0
 19: 0x059B [0x08] ExtData[1]->WorkLocal[6] -= 14*
 20: 0x05A0 [0x07] ExtData[1]->WorkLocal[0] += 4294967146*
 21: 0x05A5 [0x07] ExtData[1]->WorkLocal[1] += 40*
 22: 0x05AA [0x08] ExtData[1]->WorkLocal[5] -= ExtData[1]->WorkLocal[6]
 23: 0x05AF [0x1C] WAIT(1* ticks)
 24: 0x05B2 [0x01] GOTO 0x0578
 25: 0x05B5 [0x06] ExtData[1]->WorkLocal[7] = 0

SUBROUTINE_05B8:
 26: 0x05B8 [0x02] IF !(ExtData[1]->WorkLocal[5] > 1630*) GOTO 0x0608
 27: 0x05C0 [0x02] IF !(ExtData[1]->WorkLocal[5] > 0*) GOTO 0x05D3
 28: 0x05C8 [0x02] IF !(ExtData[1]->WorkLocal[7] == 0*) GOTO 0x05D3
 29: 0x05D0 [0x05] ExtData[1]->WorkLocal[7] = 1
 30: 0x05D3 [0x03] ExtData[1]->WorkLocal[2] = ExtData[1]->WorkLocal[4]
 31: 0x05D8 [0x07] ExtData[1]->WorkLocal[2] += ExtData[1]->WorkLocal[5]
 32: 0x05DD [0x37] UPDATE_EVENT_POSITION_AND_DIR: x=ExtData[1]->WorkLocal[0], z=ExtData[1]->WorkLocal[1], y=ExtData[1]->WorkLocal[2], direction=ExtData[1]->WorkLocal[3]
 33: 0x05E6 [0x02] IF !(ExtData[1]->WorkLocal[6] > 1000*) GOTO 0x05F3
 34: 0x05EE [0x07] ExtData[1]->WorkLocal[6] += 40*
 35: 0x05F3 [0x07] ExtData[1]->WorkLocal[0] += 4294967146*
 36: 0x05F8 [0x07] ExtData[1]->WorkLocal[1] += 40*
 37: 0x05FD [0x07] ExtData[1]->WorkLocal[5] += ExtData[1]->WorkLocal[6]
 38: 0x0602 [0x1C] WAIT(1* ticks)
 39: 0x0605 [0x01] GOTO 0x05B8
 40: 0x0608 [0x33] EventEntity->Render.Flags0 &= ~ 0x200000 // Bit 21 (flag=0x00)
 41: 0x060A [0x37] UPDATE_EVENT_POSITION_AND_DIR: x=ExtData[1]->WorkLocal[0], z=ExtData[1]->WorkLocal[1], y=ExtData[1]->WorkLocal[2], direction=ExtData[1]->WorkLocal[3]
 42: 0x0613 [0x66] LOAD_EXT_SCHEDULER_MAIN: Load scheduler "jmp2" with entities [EventEntity, EventEntity], work=40*
 43: 0x0622 [0x53] WAIT_SCHEDULER_TASK: Wait for scheduler "jmp2" with entities [Tuffle-Buffle (ID: 17826010/0x011000DA), Tuffle-Buffle (ID: 17826010/0x011000DA)]
 44: 0x062F [0x32] ExtData[1]->MainSpeed = 13* * 0.1
 45: 0x0632 [0x1F] MOVE_ENTITY: EventEntity moves to X=90.000*, Z=-120.000*, Y=4.000*
 46: 0x063A [0x1F] MOVE_ENTITY: Update entity position (mode=1)
 47: 0x063C [0x00] END_REQSTACK()
```

### Event 65535.26

#### Metadata

| Field        | Value     |
|--------------|-----------|
| Entrypoint   | 0x063D    |
| Data Size    | 291 bytes |
| Instructions | 49        |

```
      00 01 02 03 04 05 06 07  08 09 0A 0B 0C 0D 0E 0F
      -- -- -- -- -- -- -- --  -- -- -- -- -- -- -- --
0630:                                         32 02 80               2..
0640: 1E F8 FF FF 7F 1F 00 03  80 04 80 05 80 1F 01 33  ...............3
0650: 01 03 00 00 00 7F 03 01  00 02 7F 03 02 00 01 7F  ................
0660: 03 03 00 03 7F 03 04 00  02 00 66 06 80 F8 FF FF  ..........f.....
0670: 7F F8 FF FF 7F 6A 6D 70  30 53 F8 FF FF 7F F8 FF  .....jmp0S......
0680: FF 7F 6A 6D 70 30 66 06  80 F8 FF FF 7F F8 FF FF  ..jmp0f.........
0690: 7F 6A 6D 70 33 06 05 00  03 06 00 07 80 02 05 00  .jmp3...........
06A0: 08 80 04 DA 06 03 02 00  04 00 07 02 00 05 00 37  ...............7
06B0: 00 00 01 00 02 00 03 00  02 06 00 09 80 04 C5 06  ................
06C0: 08 06 00 0A 80 07 00 00  0B 80 07 01 00 5A 80 08  .............Z..
06D0: 05 00 06 00 1C 0C 80 01  9D 06 06 07 00 02 05 00  ................
06E0: 0D 80 05 2D 07 02 05 00  0E 80 05 F8 06 02 07 00  ...-............
06F0: 0E 80 00 F8 06 05 07 00  03 02 00 04 00 07 02 00  ................
0700: 05 00 37 00 00 01 00 02  00 03 00 02 06 00 0F 80  ..7.............
0710: 05 18 07 07 06 00 06 80  07 00 00 0B 80 07 01 00  ................
0720: 5A 80 07 05 00 06 00 1C  0C 80 01 DD 06 33 00 37  Z............3.7
0730: 00 00 01 00 02 00 03 00  66 06 80 F8 FF FF 7F F8  ........f.......
0740: FF FF 7F 6A 6D 70 32 53  DA 00 10 01 DA 00 10 01  ...jmp2S........
0750: 6A 6D 70 32 1F 00 5B 80  5C 80 38 80 1F 01 6F 00  jmp2..[.\.8...o.
```

#### Opcodes

```
  0: 0x063D [0x32] ExtData[1]->MainSpeed = 20* * 0.1
  1: 0x0640 [0x1E] EventEntity looks at EventEntity and starts talking
  2: 0x0645 [0x1F] MOVE_ENTITY: EventEntity moves to X=94.000*, Z=-120.460*, Y=2.434*
  3: 0x064D [0x1F] MOVE_ENTITY: Update entity position (mode=1)
  4: 0x064F [0x33] EventEntity->Render.Flags0 |= 0x200000 // Bit 21 (flag=0x01)
  5: 0x0651 [0x03] ExtData[1]->WorkLocal[0] = ExtData[1]->EventPos[0] * 1000.0
  6: 0x0656 [0x03] ExtData[1]->WorkLocal[1] = ExtData[1]->EventPos[2] * 1000.0
  7: 0x065B [0x03] ExtData[1]->WorkLocal[2] = ExtData[1]->EventPos[1] * 1000.0
  8: 0x0660 [0x03] ExtData[1]->WorkLocal[3] = enDirCli(ExtData[1]->EventDir[1]) * 4096.0 * 0.15915963
  9: 0x0665 [0x03] ExtData[1]->WorkLocal[4] = ExtData[1]->WorkLocal[2]
 10: 0x066A [0x66] LOAD_EXT_SCHEDULER_MAIN: Load scheduler "jmp0" with entities [EventEntity, EventEntity], work=40*
 11: 0x0679 [0x53] WAIT_SCHEDULER_TASK: Wait for scheduler "jmp0" with entities [EventEntity, EventEntity]
 12: 0x0686 [0x66] LOAD_EXT_SCHEDULER_MAIN: Load scheduler "jmp3" with entities [EventEntity, EventEntity], work=40*
 13: 0x0695 [0x06] ExtData[1]->WorkLocal[5] = 0
 14: 0x0698 [0x03] ExtData[1]->WorkLocal[6] = 100*
 15: 0x069D [0x02] IF !(ExtData[1]->WorkLocal[5] < 4294966996*) GOTO 0x06DA
 16: 0x06A5 [0x03] ExtData[1]->WorkLocal[2] = ExtData[1]->WorkLocal[4]
 17: 0x06AA [0x07] ExtData[1]->WorkLocal[2] += ExtData[1]->WorkLocal[5]
 18: 0x06AF [0x37] UPDATE_EVENT_POSITION_AND_DIR: x=ExtData[1]->WorkLocal[0], z=ExtData[1]->WorkLocal[1], y=ExtData[1]->WorkLocal[2], direction=ExtData[1]->WorkLocal[3]
 19: 0x06B8 [0x02] IF !(ExtData[1]->WorkLocal[6] < 30*) GOTO 0x06C5
 20: 0x06C0 [0x08] ExtData[1]->WorkLocal[6] -= 14*
 21: 0x06C5 [0x07] ExtData[1]->WorkLocal[0] += 4294967196*
 22: 0x06CA [0x07] ExtData[1]->WorkLocal[1] += 80*
 23: 0x06CF [0x08] ExtData[1]->WorkLocal[5] -= ExtData[1]->WorkLocal[6]
 24: 0x06D4 [0x1C] WAIT(1* ticks)
 25: 0x06D7 [0x01] GOTO 0x069D
 26: 0x06DA [0x06] ExtData[1]->WorkLocal[7] = 0

SUBROUTINE_06DD:
 27: 0x06DD [0x02] IF !(ExtData[1]->WorkLocal[5] > 1630*) GOTO 0x072D
 28: 0x06E5 [0x02] IF !(ExtData[1]->WorkLocal[5] > 0*) GOTO 0x06F8
 29: 0x06ED [0x02] IF !(ExtData[1]->WorkLocal[7] == 0*) GOTO 0x06F8
 30: 0x06F5 [0x05] ExtData[1]->WorkLocal[7] = 1
 31: 0x06F8 [0x03] ExtData[1]->WorkLocal[2] = ExtData[1]->WorkLocal[4]
 32: 0x06FD [0x07] ExtData[1]->WorkLocal[2] += ExtData[1]->WorkLocal[5]
 33: 0x0702 [0x37] UPDATE_EVENT_POSITION_AND_DIR: x=ExtData[1]->WorkLocal[0], z=ExtData[1]->WorkLocal[1], y=ExtData[1]->WorkLocal[2], direction=ExtData[1]->WorkLocal[3]
 34: 0x070B [0x02] IF !(ExtData[1]->WorkLocal[6] > 1000*) GOTO 0x0718
 35: 0x0713 [0x07] ExtData[1]->WorkLocal[6] += 40*
 36: 0x0718 [0x07] ExtData[1]->WorkLocal[0] += 4294967196*
 37: 0x071D [0x07] ExtData[1]->WorkLocal[1] += 80*
 38: 0x0722 [0x07] ExtData[1]->WorkLocal[5] += ExtData[1]->WorkLocal[6]
 39: 0x0727 [0x1C] WAIT(1* ticks)
 40: 0x072A [0x01] GOTO 0x06DD
 41: 0x072D [0x33] EventEntity->Render.Flags0 &= ~ 0x200000 // Bit 21 (flag=0x00)
 42: 0x072F [0x37] UPDATE_EVENT_POSITION_AND_DIR: x=ExtData[1]->WorkLocal[0], z=ExtData[1]->WorkLocal[1], y=ExtData[1]->WorkLocal[2], direction=ExtData[1]->WorkLocal[3]
 43: 0x0738 [0x66] LOAD_EXT_SCHEDULER_MAIN: Load scheduler "jmp2" with entities [EventEntity, EventEntity], work=40*
 44: 0x0747 [0x53] WAIT_SCHEDULER_TASK: Wait for scheduler "jmp2" with entities [Tuffle-Buffle (ID: 17826010/0x011000DA), Tuffle-Buffle (ID: 17826010/0x011000DA)]
 45: 0x0754 [0x1F] MOVE_ENTITY: EventEntity moves to X=91.000*, Z=-119.000*, Y=4.000*
 46: 0x075C [0x1F] MOVE_ENTITY: Update entity position (mode=1)
 47: 0x075E [0x6F] WAIT_FRAME_DELAY: Yield until WaitTime reaches zero
 48: 0x075F [0x00] END_REQSTACK()
```

### Event 65535.27

#### Metadata

| Field        | Value    |
|--------------|----------|
| Entrypoint   | 0x0760   |
| Data Size    | 16 bytes |
| Instructions | 3        |

```
      00 01 02 03 04 05 06 07  08 09 0A 0B 0C 0D 0E 0F
      -- -- -- -- -- -- -- --  -- -- -- -- -- -- -- --
0760: AD 00 5D 80 DA 00 10 01  DA 00 10 01 1C 00 17 00  ..].............
```

#### Opcodes

```
  0: 0x0760 [0xAD] DUAL_ENTITY_SCHEDULER_HANDLER: Execute sub-case 0 with entities [Tuffle-Buffle (ID: 17826010/0x011000DA), Tuffle-Buffle (ID: 17826010/0x011000DA)], work=24*
  1: 0x076C [0x1C] WAIT(Work_Zone_1700[0] ticks)
  2: 0x076F [0x00] END_REQSTACK()
```

### Event 65535.28

#### Metadata

| Field        | Value    |
|--------------|----------|
| Entrypoint   | 0x0770   |
| Data Size    | 16 bytes |
| Instructions | 3        |

```
      00 01 02 03 04 05 06 07  08 09 0A 0B 0C 0D 0E 0F
      -- -- -- -- -- -- -- --  -- -- -- -- -- -- -- --
0770: AD 00 5E 80 DA 00 10 01  DA 00 10 01 1C 00 17 00  ..^.............
```

#### Opcodes

```
  0: 0x0770 [0xAD] DUAL_ENTITY_SCHEDULER_HANDLER: Execute sub-case 0 with entities [Tuffle-Buffle (ID: 17826010/0x011000DA), Tuffle-Buffle (ID: 17826010/0x011000DA)], work=28*
  1: 0x077C [0x1C] WAIT(Work_Zone_1700[0] ticks)
  2: 0x077F [0x00] END_REQSTACK()
```

### Event 65535.29

#### Metadata

| Field        | Value    |
|--------------|----------|
| Entrypoint   | 0x0780   |
| Data Size    | 16 bytes |
| Instructions | 3        |

```
      00 01 02 03 04 05 06 07  08 09 0A 0B 0C 0D 0E 0F
      -- -- -- -- -- -- -- --  -- -- -- -- -- -- -- --
0780: AD 00 5F 80 DA 00 10 01  DA 00 10 01 1C 00 17 00  .._.............
```

#### Opcodes

```
  0: 0x0780 [0xAD] DUAL_ENTITY_SCHEDULER_HANDLER: Execute sub-case 0 with entities [Tuffle-Buffle (ID: 17826010/0x011000DA), Tuffle-Buffle (ID: 17826010/0x011000DA)], work=25*
  1: 0x078C [0x1C] WAIT(Work_Zone_1700[0] ticks)
  2: 0x078F [0x00] END_REQSTACK()
```

### Event 65535.30

#### Metadata

| Field        | Value    |
|--------------|----------|
| Entrypoint   | 0x0790   |
| Data Size    | 16 bytes |
| Instructions | 3        |

```
      00 01 02 03 04 05 06 07  08 09 0A 0B 0C 0D 0E 0F
      -- -- -- -- -- -- -- --  -- -- -- -- -- -- -- --
0790: AD 00 60 80 DA 00 10 01  DA 00 10 01 1C 00 17 00  ..`.............
```

#### Opcodes

```
  0: 0x0790 [0xAD] DUAL_ENTITY_SCHEDULER_HANDLER: Execute sub-case 0 with entities [Tuffle-Buffle (ID: 17826010/0x011000DA), Tuffle-Buffle (ID: 17826010/0x011000DA)], work=29*
  1: 0x079C [0x1C] WAIT(Work_Zone_1700[0] ticks)
  2: 0x079F [0x00] END_REQSTACK()
```

### Event 65535.31

#### Metadata

| Field        | Value    |
|--------------|----------|
| Entrypoint   | 0x07A0   |
| Data Size    | 16 bytes |
| Instructions | 3        |

```
      00 01 02 03 04 05 06 07  08 09 0A 0B 0C 0D 0E 0F
      -- -- -- -- -- -- -- --  -- -- -- -- -- -- -- --
07A0: AD 00 5D 80 DA 00 10 01  DA 00 10 01 1C 00 17 00  ..].............
```

#### Opcodes

```
  0: 0x07A0 [0xAD] DUAL_ENTITY_SCHEDULER_HANDLER: Execute sub-case 0 with entities [Tuffle-Buffle (ID: 17826010/0x011000DA), Tuffle-Buffle (ID: 17826010/0x011000DA)], work=24*
  1: 0x07AC [0x1C] WAIT(Work_Zone_1700[0] ticks)
  2: 0x07AF [0x00] END_REQSTACK()
```

### Event 65535.32

#### Metadata

| Field        | Value    |
|--------------|----------|
| Entrypoint   | 0x07B0   |
| Data Size    | 16 bytes |
| Instructions | 3        |

```
      00 01 02 03 04 05 06 07  08 09 0A 0B 0C 0D 0E 0F
      -- -- -- -- -- -- -- --  -- -- -- -- -- -- -- --
07B0: AD 00 61 80 DA 00 10 01  DA 00 10 01 1C 00 17 00  ..a.............
```

#### Opcodes

```
  0: 0x07B0 [0xAD] DUAL_ENTITY_SCHEDULER_HANDLER: Execute sub-case 0 with entities [Tuffle-Buffle (ID: 17826010/0x011000DA), Tuffle-Buffle (ID: 17826010/0x011000DA)], work=26*
  1: 0x07BC [0x1C] WAIT(Work_Zone_1700[0] ticks)
  2: 0x07BF [0x00] END_REQSTACK()
```

### Event 65535.33

#### Metadata

| Field        | Value    |
|--------------|----------|
| Entrypoint   | 0x07C0   |
| Data Size    | 16 bytes |
| Instructions | 3        |

```
      00 01 02 03 04 05 06 07  08 09 0A 0B 0C 0D 0E 0F
      -- -- -- -- -- -- -- --  -- -- -- -- -- -- -- --
07C0: AD 00 62 80 DA 00 10 01  DA 00 10 01 1C 00 17 00  ..b.............
```

#### Opcodes

```
  0: 0x07C0 [0xAD] DUAL_ENTITY_SCHEDULER_HANDLER: Execute sub-case 0 with entities [Tuffle-Buffle (ID: 17826010/0x011000DA), Tuffle-Buffle (ID: 17826010/0x011000DA)], work=27*
  1: 0x07CC [0x1C] WAIT(Work_Zone_1700[0] ticks)
  2: 0x07CF [0x00] END_REQSTACK()
```

### Event 65535.34

#### Metadata

| Field        | Value    |
|--------------|----------|
| Entrypoint   | 0x07D0   |
| Data Size    | 16 bytes |
| Instructions | 3        |

```
      00 01 02 03 04 05 06 07  08 09 0A 0B 0C 0D 0E 0F
      -- -- -- -- -- -- -- --  -- -- -- -- -- -- -- --
07D0: AD 00 63 80 DA 00 10 01  DA 00 10 01 1C 00 17 00  ..c.............
```

#### Opcodes

```
  0: 0x07D0 [0xAD] DUAL_ENTITY_SCHEDULER_HANDLER: Execute sub-case 0 with entities [Tuffle-Buffle (ID: 17826010/0x011000DA), Tuffle-Buffle (ID: 17826010/0x011000DA)], work=10*
  1: 0x07DC [0x1C] WAIT(Work_Zone_1700[0] ticks)
  2: 0x07DF [0x00] END_REQSTACK()
```

### Event 65535.35

#### Metadata

| Field        | Value    |
|--------------|----------|
| Entrypoint   | 0x07E0   |
| Data Size    | 16 bytes |
| Instructions | 3        |

```
      00 01 02 03 04 05 06 07  08 09 0A 0B 0C 0D 0E 0F
      -- -- -- -- -- -- -- --  -- -- -- -- -- -- -- --
07E0: AD 00 64 80 DA 00 10 01  DA 00 10 01 1C 00 17 00  ..d.............
```

#### Opcodes

```
  0: 0x07E0 [0xAD] DUAL_ENTITY_SCHEDULER_HANDLER: Execute sub-case 0 with entities [Tuffle-Buffle (ID: 17826010/0x011000DA), Tuffle-Buffle (ID: 17826010/0x011000DA)], work=81*
  1: 0x07EC [0x1C] WAIT(Work_Zone_1700[0] ticks)
  2: 0x07EF [0x00] END_REQSTACK()
```

### Event 65535.36

#### Metadata

| Field        | Value    |
|--------------|----------|
| Entrypoint   | 0x07F0   |
| Data Size    | 19 bytes |
| Instructions | 3        |

```
      00 01 02 03 04 05 06 07  08 09 0A 0B 0C 0D 0E 0F
      -- -- -- -- -- -- -- --  -- -- -- -- -- -- -- --
07F0: 66 06 80 F8 FF FF 7F F8  FF FF 7F 74 6C 6B 30 1C  f..........tlk0.
0800: 00 17 00                                          ...             
```

#### Opcodes

```
  0: 0x07F0 [0x66] LOAD_EXT_SCHEDULER_MAIN: Load scheduler "tlk0" with entities [EventEntity, EventEntity], work=40*
  1: 0x07FF [0x1C] WAIT(Work_Zone_1700[0] ticks)
  2: 0x0802 [0x00] END_REQSTACK()
```

### Event 65535.37

#### Metadata

| Field        | Value    |
|--------------|----------|
| Entrypoint   | 0x0803   |
| Data Size    | 19 bytes |
| Instructions | 3        |

```
      00 01 02 03 04 05 06 07  08 09 0A 0B 0C 0D 0E 0F
      -- -- -- -- -- -- -- --  -- -- -- -- -- -- -- --
0800:          66 65 80 F8 FF  FF 7F F8 FF FF 7F 74 6C     fe.........tl
0810: 6B 30 1C 00 17 00                                 k0....          
```

#### Opcodes

```
  0: 0x0803 [0x66] LOAD_EXT_SCHEDULER_MAIN: Load scheduler "tlk0" with entities [EventEntity, EventEntity], work=49*
  1: 0x0812 [0x1C] WAIT(Work_Zone_1700[0] ticks)
  2: 0x0815 [0x00] END_REQSTACK()
```

### Event 65535.38

#### Metadata

| Field        | Value    |
|--------------|----------|
| Entrypoint   | 0x0816   |
| Data Size    | 19 bytes |
| Instructions | 3        |

```
      00 01 02 03 04 05 06 07  08 09 0A 0B 0C 0D 0E 0F
      -- -- -- -- -- -- -- --  -- -- -- -- -- -- -- --
0810:                   66 66  80 F8 FF FF 7F F8 FF FF        ff........
0820: 7F 6E 6D 69 30 1C 00 17  00                       .nmi0....       
```

#### Opcodes

```
  0: 0x0816 [0x66] LOAD_EXT_SCHEDULER_MAIN: Load scheduler "nmi0" with entities [EventEntity, EventEntity], work=41*
  1: 0x0825 [0x1C] WAIT(Work_Zone_1700[0] ticks)
  2: 0x0828 [0x00] END_REQSTACK()
```

### Event 65535.39

#### Metadata

| Field        | Value    |
|--------------|----------|
| Entrypoint   | 0x0829   |
| Data Size    | 25 bytes |
| Instructions | 4        |

```
      00 01 02 03 04 05 06 07  08 09 0A 0B 0C 0D 0E 0F
      -- -- -- -- -- -- -- --  -- -- -- -- -- -- -- --
0820:                             66 65 80 F8 FF FF 7F           fe.....
0830: F8 FF FF 7F 74 68 6B 31  1C 00 17 81 00 F8 FF FF  ....thk1........
0840: 7F 00                                             ..              
```

#### Opcodes

```
  0: 0x0829 [0x66] LOAD_EXT_SCHEDULER_MAIN: Load scheduler "thk1" with entities [EventEntity, EventEntity], work=49*
  1: 0x0838 [0x1C] WAIT(Work_Zone_1700[0] ticks)
  2: 0x083B [0x81] SET_ENTITY_BLINKING(blink_flag=0x00, entity=EventEntity)
  3: 0x0841 [0x00] END_REQSTACK()
```

### Event 65535.40

#### Metadata

| Field        | Value    |
|--------------|----------|
| Entrypoint   | 0x0842   |
| Data Size    | 19 bytes |
| Instructions | 3        |

```
      00 01 02 03 04 05 06 07  08 09 0A 0B 0C 0D 0E 0F
      -- -- -- -- -- -- -- --  -- -- -- -- -- -- -- --
0840:       5B 67 80 F8 FF FF  7F F8 FF FF 7F 67 75 64    [g.........gud
0850: 30 1C 00 17 00                                    0....           
```

#### Opcodes

```
  0: 0x0842 [0x5B] LOAD_EXT_SCHEDULER: Load scheduler "gud0" with entities [EventEntity, EventEntity], work=1373*
  1: 0x0851 [0x1C] WAIT(Work_Zone_1700[0] ticks)
  2: 0x0854 [0x00] END_REQSTACK()
```

### Event 65535.41

#### Metadata

| Field        | Value    |
|--------------|----------|
| Entrypoint   | 0x0855   |
| Data Size    | 19 bytes |
| Instructions | 3        |

```
      00 01 02 03 04 05 06 07  08 09 0A 0B 0C 0D 0E 0F
      -- -- -- -- -- -- -- --  -- -- -- -- -- -- -- --
0850:                66 66 80  F8 FF FF 7F F8 FF FF 7F       ff.........
0860: 65 68 6E 30 1C 00 17 00                           ehn0....        
```

#### Opcodes

```
  0: 0x0855 [0x66] LOAD_EXT_SCHEDULER_MAIN: Load scheduler "ehn0" with entities [EventEntity, EventEntity], work=41*
  1: 0x0864 [0x1C] WAIT(Work_Zone_1700[0] ticks)
  2: 0x0867 [0x00] END_REQSTACK()
```

### Event 65535.42

#### Metadata

| Field        | Value    |
|--------------|----------|
| Entrypoint   | 0x0868   |
| Data Size    | 19 bytes |
| Instructions | 3        |

```
      00 01 02 03 04 05 06 07  08 09 0A 0B 0C 0D 0E 0F
      -- -- -- -- -- -- -- --  -- -- -- -- -- -- -- --
0860:                          66 68 80 F8 FF FF 7F F8          fh......
0870: FF FF 7F 6D 6F 6E 30 1C  00 17 00                 ...mon0....     
```

#### Opcodes

```
  0: 0x0868 [0x66] LOAD_EXT_SCHEDULER_MAIN: Load scheduler "mon0" with entities [EventEntity, EventEntity], work=35*
  1: 0x0877 [0x1C] WAIT(Work_Zone_1700[0] ticks)
  2: 0x087A [0x00] END_REQSTACK()
```

### Event 65535.43

#### Metadata

| Field        | Value    |
|--------------|----------|
| Entrypoint   | 0x087B   |
| Data Size    | 19 bytes |
| Instructions | 3        |

```
      00 01 02 03 04 05 06 07  08 09 0A 0B 0C 0D 0E 0F
      -- -- -- -- -- -- -- --  -- -- -- -- -- -- -- --
0870:                                   66 06 80 F8 FF             f....
0880: FF 7F F8 FF FF 7F 73 79  75 30 1C 00 17 00        ......syu0....  
```

#### Opcodes

```
  0: 0x087B [0x66] LOAD_EXT_SCHEDULER_MAIN: Load scheduler "syu0" with entities [EventEntity, EventEntity], work=40*
  1: 0x088A [0x1C] WAIT(Work_Zone_1700[0] ticks)
  2: 0x088D [0x00] END_REQSTACK()
```

### Event 65535.44

#### Metadata

| Field        | Value    |
|--------------|----------|
| Entrypoint   | 0x088E   |
| Data Size    | 19 bytes |
| Instructions | 3        |

```
      00 01 02 03 04 05 06 07  08 09 0A 0B 0C 0D 0E 0F
      -- -- -- -- -- -- -- --  -- -- -- -- -- -- -- --
0880:                                            66 06                f.
0890: 80 F8 FF FF 7F F8 FF FF  7F 67 6B 72 30 1C 00 17  .........gkr0...
08A0: 00                                                .               
```

#### Opcodes

```
  0: 0x088E [0x66] LOAD_EXT_SCHEDULER_MAIN: Load scheduler "gkr0" with entities [EventEntity, EventEntity], work=40*
  1: 0x089D [0x1C] WAIT(Work_Zone_1700[0] ticks)
  2: 0x08A0 [0x00] END_REQSTACK()
```

### Event 65535.45

#### Metadata

| Field        | Value    |
|--------------|----------|
| Entrypoint   | 0x08A1   |
| Data Size    | 19 bytes |
| Instructions | 3        |

```
      00 01 02 03 04 05 06 07  08 09 0A 0B 0C 0D 0E 0F
      -- -- -- -- -- -- -- --  -- -- -- -- -- -- -- --
08A0:    66 06 80 F8 FF FF 7F  F8 FF FF 7F 77 61 69 30   f..........wai0
08B0: 1C 00 17 00                                       ....            
```

#### Opcodes

```
  0: 0x08A1 [0x66] LOAD_EXT_SCHEDULER_MAIN: Load scheduler "wai0" with entities [EventEntity, EventEntity], work=40*
  1: 0x08B0 [0x1C] WAIT(Work_Zone_1700[0] ticks)
  2: 0x08B3 [0x00] END_REQSTACK()
```

### Event 65535.46

#### Metadata

| Field        | Value    |
|--------------|----------|
| Entrypoint   | 0x08B4   |
| Data Size    | 19 bytes |
| Instructions | 3        |

```
      00 01 02 03 04 05 06 07  08 09 0A 0B 0C 0D 0E 0F
      -- -- -- -- -- -- -- --  -- -- -- -- -- -- -- --
08B0:             66 06 80 F8  FF FF 7F F8 FF FF 7F 7A      f..........z
08C0: 69 74 30 1C 00 17 00                              it0....         
```

#### Opcodes

```
  0: 0x08B4 [0x66] LOAD_EXT_SCHEDULER_MAIN: Load scheduler "zit0" with entities [EventEntity, EventEntity], work=40*
  1: 0x08C3 [0x1C] WAIT(Work_Zone_1700[0] ticks)
  2: 0x08C6 [0x00] END_REQSTACK()
```

### Event 65535.47

#### Metadata

| Field        | Value    |
|--------------|----------|
| Entrypoint   | 0x08C7   |
| Data Size    | 19 bytes |
| Instructions | 3        |

```
      00 01 02 03 04 05 06 07  08 09 0A 0B 0C 0D 0E 0F
      -- -- -- -- -- -- -- --  -- -- -- -- -- -- -- --
08C0:                      66  69 80 F8 FF FF 7F F8 FF         fi.......
08D0: FF 7F 70 6F 73 30 1C 00  17 00                    ..pos0....      
```

#### Opcodes

```
  0: 0x08C7 [0x66] LOAD_EXT_SCHEDULER_MAIN: Load scheduler "pos0" with entities [EventEntity, EventEntity], work=114*
  1: 0x08D6 [0x1C] WAIT(Work_Zone_1700[0] ticks)
  2: 0x08D9 [0x00] END_REQSTACK()
```

### Event 65535.48

#### Metadata

| Field        | Value    |
|--------------|----------|
| Entrypoint   | 0x08DA   |
| Data Size    | 19 bytes |
| Instructions | 3        |

```
      00 01 02 03 04 05 06 07  08 09 0A 0B 0C 0D 0E 0F
      -- -- -- -- -- -- -- --  -- -- -- -- -- -- -- --
08D0:                                66 06 80 F8 FF FF            f.....
08E0: 7F F8 FF FF 7F 64 69 73  30 1C 00 17 00           .....dis0....   
```

#### Opcodes

```
  0: 0x08DA [0x66] LOAD_EXT_SCHEDULER_MAIN: Load scheduler "dis0" with entities [EventEntity, EventEntity], work=40*
  1: 0x08E9 [0x1C] WAIT(Work_Zone_1700[0] ticks)
  2: 0x08EC [0x00] END_REQSTACK()
```

### Event 65535.49

#### Metadata

| Field        | Value    |
|--------------|----------|
| Entrypoint   | 0x08ED   |
| Data Size    | 16 bytes |
| Instructions | 4        |

```
      00 01 02 03 04 05 06 07  08 09 0A 0B 0C 0D 0E 0F
      -- -- -- -- -- -- -- --  -- -- -- -- -- -- -- --
08E0:                                         6E F8 FF               n..
08F0: FF 7F 0E 80 99 F8 FF FF  7F 1C 00 17 00           .............   
```

#### Opcodes

```
  0: 0x08ED [0x6E] EventEntity uses emote 0*
  1: 0x08F4 [0x99] Wait for EventEntity animation to complete
  2: 0x08F9 [0x1C] WAIT(Work_Zone_1700[0] ticks)
  3: 0x08FC [0x00] END_REQSTACK()
```

### Event 65535.50

#### Metadata

| Field        | Value    |
|--------------|----------|
| Entrypoint   | 0x08FD   |
| Data Size    | 16 bytes |
| Instructions | 4        |

```
      00 01 02 03 04 05 06 07  08 09 0A 0B 0C 0D 0E 0F
      -- -- -- -- -- -- -- --  -- -- -- -- -- -- -- --
08F0:                                         6E F8 FF               n..
0900: FF 7F 6A 80 99 F8 FF FF  7F 1C 00 17 00           ..j..........   
```

#### Opcodes

```
  0: 0x08FD [0x6E] EventEntity uses emote 21*
  1: 0x0904 [0x99] Wait for EventEntity animation to complete
  2: 0x0909 [0x1C] WAIT(Work_Zone_1700[0] ticks)
  3: 0x090C [0x00] END_REQSTACK()
```

### Event 65535.51

#### Metadata

| Field        | Value    |
|--------------|----------|
| Entrypoint   | 0x090D   |
| Data Size    | 16 bytes |
| Instructions | 4        |

```
      00 01 02 03 04 05 06 07  08 09 0A 0B 0C 0D 0E 0F
      -- -- -- -- -- -- -- --  -- -- -- -- -- -- -- --
0900:                                         6E F8 FF               n..
0910: FF 7F 6B 80 99 F8 FF FF  7F 1C 00 17 00           ..k..........   
```

#### Opcodes

```
  0: 0x090D [0x6E] EventEntity uses emote 16*
  1: 0x0914 [0x99] Wait for EventEntity animation to complete
  2: 0x0919 [0x1C] WAIT(Work_Zone_1700[0] ticks)
  3: 0x091C [0x00] END_REQSTACK()
```

### Event 65535.52

#### Metadata

| Field        | Value    |
|--------------|----------|
| Entrypoint   | 0x091D   |
| Data Size    | 16 bytes |
| Instructions | 4        |

```
      00 01 02 03 04 05 06 07  08 09 0A 0B 0C 0D 0E 0F
      -- -- -- -- -- -- -- --  -- -- -- -- -- -- -- --
0910:                                         6E F8 FF               n..
0920: FF 7F 6C 80 99 F8 FF FF  7F 1C 00 17 00           ..l..........   
```

#### Opcodes

```
  0: 0x091D [0x6E] EventEntity uses emote 22*
  1: 0x0924 [0x99] Wait for EventEntity animation to complete
  2: 0x0929 [0x1C] WAIT(Work_Zone_1700[0] ticks)
  3: 0x092C [0x00] END_REQSTACK()
```

### Event 65535.53

#### Metadata

| Field        | Value    |
|--------------|----------|
| Entrypoint   | 0x092D   |
| Data Size    | 16 bytes |
| Instructions | 4        |

```
      00 01 02 03 04 05 06 07  08 09 0A 0B 0C 0D 0E 0F
      -- -- -- -- -- -- -- --  -- -- -- -- -- -- -- --
0920:                                         6E F8 FF               n..
0930: FF 7F 6D 80 99 F8 FF FF  7F 1C 00 17 00           ..m..........   
```

#### Opcodes

```
  0: 0x092D [0x6E] EventEntity uses emote 68*
  1: 0x0934 [0x99] Wait for EventEntity animation to complete
  2: 0x0939 [0x1C] WAIT(Work_Zone_1700[0] ticks)
  3: 0x093C [0x00] END_REQSTACK()
```

### Event 65535.54

#### Metadata

| Field        | Value    |
|--------------|----------|
| Entrypoint   | 0x093D   |
| Data Size    | 16 bytes |
| Instructions | 4        |

```
      00 01 02 03 04 05 06 07  08 09 0A 0B 0C 0D 0E 0F
      -- -- -- -- -- -- -- --  -- -- -- -- -- -- -- --
0930:                                         6E F8 FF               n..
0940: FF 7F 63 80 99 F8 FF FF  7F 1C 00 17 00           ..c..........   
```

#### Opcodes

```
  0: 0x093D [0x6E] EventEntity uses emote 10*
  1: 0x0944 [0x99] Wait for EventEntity animation to complete
  2: 0x0949 [0x1C] WAIT(Work_Zone_1700[0] ticks)
  3: 0x094C [0x00] END_REQSTACK()
```

### Event 65535.55

#### Metadata

| Field        | Value    |
|--------------|----------|
| Entrypoint   | 0x094D   |
| Data Size    | 16 bytes |
| Instructions | 4        |

```
      00 01 02 03 04 05 06 07  08 09 0A 0B 0C 0D 0E 0F
      -- -- -- -- -- -- -- --  -- -- -- -- -- -- -- --
0940:                                         6E F8 FF               n..
0950: FF 7F 60 80 99 F8 FF FF  7F 1C 00 17 00           ..`..........   
```

#### Opcodes

```
  0: 0x094D [0x6E] EventEntity uses emote 29*
  1: 0x0954 [0x99] Wait for EventEntity animation to complete
  2: 0x0959 [0x1C] WAIT(Work_Zone_1700[0] ticks)
  3: 0x095C [0x00] END_REQSTACK()
```

### Event 65535.56

#### Metadata

| Field        | Value    |
|--------------|----------|
| Entrypoint   | 0x095D   |
| Data Size    | 16 bytes |
| Instructions | 4        |

```
      00 01 02 03 04 05 06 07  08 09 0A 0B 0C 0D 0E 0F
      -- -- -- -- -- -- -- --  -- -- -- -- -- -- -- --
0950:                                         6E F8 FF               n..
0960: FF 7F 6E 80 99 F8 FF FF  7F 1C 00 17 00           ..n..........   
```

#### Opcodes

```
  0: 0x095D [0x6E] EventEntity uses emote 7*
  1: 0x0964 [0x99] Wait for EventEntity animation to complete
  2: 0x0969 [0x1C] WAIT(Work_Zone_1700[0] ticks)
  3: 0x096C [0x00] END_REQSTACK()
```

### Event 65535.57

#### Metadata

| Field        | Value    |
|--------------|----------|
| Entrypoint   | 0x096D   |
| Data Size    | 16 bytes |
| Instructions | 4        |

```
      00 01 02 03 04 05 06 07  08 09 0A 0B 0C 0D 0E 0F
      -- -- -- -- -- -- -- --  -- -- -- -- -- -- -- --
0960:                                         6E F8 FF               n..
0970: FF 7F 5F 80 99 F8 FF FF  7F 1C 00 17 00           .._..........   
```

#### Opcodes

```
  0: 0x096D [0x6E] EventEntity uses emote 25*
  1: 0x0974 [0x99] Wait for EventEntity animation to complete
  2: 0x0979 [0x1C] WAIT(Work_Zone_1700[0] ticks)
  3: 0x097C [0x00] END_REQSTACK()
```

### Event 5217

#### Metadata

| Field        | Value   |
|--------------|---------|
| Entrypoint   | 0x097D  |
| Data Size    | 7 bytes |
| Instructions | 2       |

```
      00 01 02 03 04 05 06 07  08 09 0A 0B 0C 0D 0E 0F
      -- -- -- -- -- -- -- --  -- -- -- -- -- -- -- --
0970:                                         92 01 F8               ...
0980: FF FF 7F 00                                       ....            
```

#### Opcodes

```
  0: 0x097D [0x92] EventEntity->Render.Flags3 ^= 0x01
  1: 0x0983 [0x00] END_REQSTACK()
```

### Event 5218

#### Metadata

| Field        | Value   |
|--------------|---------|
| Entrypoint   | 0x0984  |
| Data Size    | 7 bytes |
| Instructions | 2       |

```
      00 01 02 03 04 05 06 07  08 09 0A 0B 0C 0D 0E 0F
      -- -- -- -- -- -- -- --  -- -- -- -- -- -- -- --
0980:             92 01 F8 FF  FF 7F 00                     .......     
```

#### Opcodes

```
  0: 0x0984 [0x92] EventEntity->Render.Flags3 ^= 0x01
  1: 0x098A [0x00] END_REQSTACK()
```

### Event 65535.58

#### Metadata

| Field        | Value     |
|--------------|-----------|
| Entrypoint   | 0x098B    |
| Data Size    | 283 bytes |
| Instructions | 47        |

```
      00 01 02 03 04 05 06 07  08 09 0A 0B 0C 0D 0E 0F
      -- -- -- -- -- -- -- --  -- -- -- -- -- -- -- --
0980:                                   32 02 80 1E F8             2....
0990: FF FF 7F 1F 00 03 80 04  80 05 80 1F 01 33 01 03  .............3..
09A0: 00 00 00 7F 03 01 00 02  7F 03 02 00 01 7F 03 03  ................
09B0: 00 03 7F 03 04 00 02 00  66 06 80 F8 FF FF 7F F8  ........f.......
09C0: FF FF 7F 6A 6D 70 30 53  F8 FF FF 7F F8 FF FF 7F  ...jmp0S........
09D0: 6A 6D 70 30 66 06 80 F8  FF FF 7F F8 FF FF 7F 6A  jmp0f..........j
09E0: 6D 70 33 06 05 00 03 06  00 07 80 02 05 00 08 80  mp3.............
09F0: 04 28 0A 03 02 00 04 00  07 02 00 05 00 37 00 00  .(...........7..
0A00: 01 00 02 00 03 00 02 06  00 09 80 04 13 0A 08 06  ................
0A10: 00 0A 80 07 00 00 0B 80  07 01 00 07 80 08 05 00  ................
0A20: 06 00 1C 0C 80 01 EB 09  06 07 00 02 05 00 0D 80  ................
0A30: 05 7B 0A 02 05 00 0E 80  05 46 0A 02 07 00 0E 80  .{.......F......
0A40: 00 46 0A 05 07 00 03 02  00 04 00 07 02 00 05 00  .F..............
0A50: 37 00 00 01 00 02 00 03  00 02 06 00 0F 80 05 66  7..............f
0A60: 0A 07 06 00 06 80 07 00  00 0B 80 07 01 00 07 80  ................
0A70: 07 05 00 06 00 1C 0C 80  01 2B 0A 33 00 37 00 00  .........+.3.7..
0A80: 01 00 02 00 03 00 66 06  80 F8 FF FF 7F F8 FF FF  ......f.........
0A90: 7F 6A 6D 70 32 53 DA 00  10 01 DA 00 10 01 6A 6D  .jmp2S........jm
0AA0: 70 32 39 6F 80 00                                 p29o..          
```

#### Opcodes

```
  0: 0x098B [0x32] ExtData[1]->MainSpeed = 20* * 0.1
  1: 0x098E [0x1E] EventEntity looks at EventEntity and starts talking
  2: 0x0993 [0x1F] MOVE_ENTITY: EventEntity moves to X=94.000*, Z=-120.460*, Y=2.434*
  3: 0x099B [0x1F] MOVE_ENTITY: Update entity position (mode=1)
  4: 0x099D [0x33] EventEntity->Render.Flags0 |= 0x200000 // Bit 21 (flag=0x01)
  5: 0x099F [0x03] ExtData[1]->WorkLocal[0] = ExtData[1]->EventPos[0] * 1000.0
  6: 0x09A4 [0x03] ExtData[1]->WorkLocal[1] = ExtData[1]->EventPos[2] * 1000.0
  7: 0x09A9 [0x03] ExtData[1]->WorkLocal[2] = ExtData[1]->EventPos[1] * 1000.0
  8: 0x09AE [0x03] ExtData[1]->WorkLocal[3] = enDirCli(ExtData[1]->EventDir[1]) * 4096.0 * 0.15915963
  9: 0x09B3 [0x03] ExtData[1]->WorkLocal[4] = ExtData[1]->WorkLocal[2]
 10: 0x09B8 [0x66] LOAD_EXT_SCHEDULER_MAIN: Load scheduler "jmp0" with entities [EventEntity, EventEntity], work=40*
 11: 0x09C7 [0x53] WAIT_SCHEDULER_TASK: Wait for scheduler "jmp0" with entities [EventEntity, EventEntity]
 12: 0x09D4 [0x66] LOAD_EXT_SCHEDULER_MAIN: Load scheduler "jmp3" with entities [EventEntity, EventEntity], work=40*
 13: 0x09E3 [0x06] ExtData[1]->WorkLocal[5] = 0
 14: 0x09E6 [0x03] ExtData[1]->WorkLocal[6] = 100*
 15: 0x09EB [0x02] IF !(ExtData[1]->WorkLocal[5] < 4294966996*) GOTO 0x0A28
 16: 0x09F3 [0x03] ExtData[1]->WorkLocal[2] = ExtData[1]->WorkLocal[4]
 17: 0x09F8 [0x07] ExtData[1]->WorkLocal[2] += ExtData[1]->WorkLocal[5]
 18: 0x09FD [0x37] UPDATE_EVENT_POSITION_AND_DIR: x=ExtData[1]->WorkLocal[0], z=ExtData[1]->WorkLocal[1], y=ExtData[1]->WorkLocal[2], direction=ExtData[1]->WorkLocal[3]
 19: 0x0A06 [0x02] IF !(ExtData[1]->WorkLocal[6] < 30*) GOTO 0x0A13
 20: 0x0A0E [0x08] ExtData[1]->WorkLocal[6] -= 14*
 21: 0x0A13 [0x07] ExtData[1]->WorkLocal[0] += 4294967196*
 22: 0x0A18 [0x07] ExtData[1]->WorkLocal[1] += 100*
 23: 0x0A1D [0x08] ExtData[1]->WorkLocal[5] -= ExtData[1]->WorkLocal[6]
 24: 0x0A22 [0x1C] WAIT(1* ticks)
 25: 0x0A25 [0x01] GOTO 0x09EB
 26: 0x0A28 [0x06] ExtData[1]->WorkLocal[7] = 0

SUBROUTINE_0A2B:
 27: 0x0A2B [0x02] IF !(ExtData[1]->WorkLocal[5] > 1630*) GOTO 0x0A7B
 28: 0x0A33 [0x02] IF !(ExtData[1]->WorkLocal[5] > 0*) GOTO 0x0A46
 29: 0x0A3B [0x02] IF !(ExtData[1]->WorkLocal[7] == 0*) GOTO 0x0A46
 30: 0x0A43 [0x05] ExtData[1]->WorkLocal[7] = 1
 31: 0x0A46 [0x03] ExtData[1]->WorkLocal[2] = ExtData[1]->WorkLocal[4]
 32: 0x0A4B [0x07] ExtData[1]->WorkLocal[2] += ExtData[1]->WorkLocal[5]
 33: 0x0A50 [0x37] UPDATE_EVENT_POSITION_AND_DIR: x=ExtData[1]->WorkLocal[0], z=ExtData[1]->WorkLocal[1], y=ExtData[1]->WorkLocal[2], direction=ExtData[1]->WorkLocal[3]
 34: 0x0A59 [0x02] IF !(ExtData[1]->WorkLocal[6] > 1000*) GOTO 0x0A66
 35: 0x0A61 [0x07] ExtData[1]->WorkLocal[6] += 40*
 36: 0x0A66 [0x07] ExtData[1]->WorkLocal[0] += 4294967196*
 37: 0x0A6B [0x07] ExtData[1]->WorkLocal[1] += 100*
 38: 0x0A70 [0x07] ExtData[1]->WorkLocal[5] += ExtData[1]->WorkLocal[6]
 39: 0x0A75 [0x1C] WAIT(1* ticks)
 40: 0x0A78 [0x01] GOTO 0x0A2B
 41: 0x0A7B [0x33] EventEntity->Render.Flags0 &= ~ 0x200000 // Bit 21 (flag=0x00)
 42: 0x0A7D [0x37] UPDATE_EVENT_POSITION_AND_DIR: x=ExtData[1]->WorkLocal[0], z=ExtData[1]->WorkLocal[1], y=ExtData[1]->WorkLocal[2], direction=ExtData[1]->WorkLocal[3]
 43: 0x0A86 [0x66] LOAD_EXT_SCHEDULER_MAIN: Load scheduler "jmp2" with entities [EventEntity, EventEntity], work=40*
 44: 0x0A95 [0x53] WAIT_SCHEDULER_TASK: Wait for scheduler "jmp2" with entities [Tuffle-Buffle (ID: 17826010/0x011000DA), Tuffle-Buffle (ID: 17826010/0x011000DA)]
 45: 0x0AA2 [0x39] SET_ENTITY_DIRECTION(direction=19.7°*)
 46: 0x0AA5 [0x00] END_REQSTACK()
```

### Event 65535.59

#### Metadata

| Field        | Value    |
|--------------|----------|
| Entrypoint   | 0x0AA6   |
| Data Size    | 69 bytes |
| Instructions | 12       |

```
      00 01 02 03 04 05 06 07  08 09 0A 0B 0C 0D 0E 0F
      -- -- -- -- -- -- -- --  -- -- -- -- -- -- -- --
0AA0:                   32 11  80 AD 02 12 80 F8 FF FF        2.........
0AB0: 7F F8 FF FF 7F 1C 13 80  39 14 80 C5 2F 80 F8 FF  ........9.../...
0AC0: FF 7F F8 FF FF 7F 73 30  30 32 0E 80 1F 00 15 80  ......s002......
0AD0: 16 80 17 80 1F 01 1F 00  70 80 71 80 17 80 1F 01  ........p.q.....
0AE0: 1F 00 72 80 73 80 0E 80  1F 01 00                 ..r.s......     
```

#### Opcodes

```
  0: 0x0AA6 [0x32] ExtData[1]->MainSpeed = 200* * 0.1
  1: 0x0AA9 [0xAD] DUAL_ENTITY_SCHEDULER_HANDLER: Execute sub-case 2 with entities [EventEntity, EventEntity], work=9*
  2: 0x0AB5 [0x1C] WAIT(90* ticks)
  3: 0x0AB8 [0x39] SET_ENTITY_DIRECTION(direction=356.5°*)
  4: 0x0ABB [0xC5] LOAD_SCHEDULED_TASK_ALT3: Load scheduler 0x800E3230 for entities [EventEntity, EventEntity], work=5*, param=12403
  5: 0x0ACC [0x1F] MOVE_ENTITY: EventEntity moves to X=101.230*, Z=-108.600*, Y=2.250*
  6: 0x0AD4 [0x1F] MOVE_ENTITY: Update entity position (mode=1)
  7: 0x0AD6 [0x1F] MOVE_ENTITY: EventEntity moves to X=101.680*, Z=-106.480*, Y=2.250*
  8: 0x0ADE [0x1F] MOVE_ENTITY: Update entity position (mode=1)
  9: 0x0AE0 [0x1F] MOVE_ENTITY: EventEntity moves to X=81.900*, Z=-85.330*, Y=0.000*
 10: 0x0AE8 [0x1F] MOVE_ENTITY: Update entity position (mode=1)
 11: 0x0AEA [0x00] END_REQSTACK()
```

### Event 65535.60

#### Metadata

| Field        | Value    |
|--------------|----------|
| Entrypoint   | 0x0AEB   |
| Data Size    | 13 bytes |
| Instructions | 3        |

```
      00 01 02 03 04 05 06 07  08 09 0A 0B 0C 0D 0E 0F
      -- -- -- -- -- -- -- --  -- -- -- -- -- -- -- --
0AE0:                                   6E F8 FF FF 7F             n....
0AF0: 74 80 99 F8 FF FF 7F 00                           t.......        
```

#### Opcodes

```
  0: 0x0AEB [0x6E] EventEntity uses emote 1579*
  1: 0x0AF2 [0x99] Wait for EventEntity animation to complete
  2: 0x0AF7 [0x00] END_REQSTACK()
```

### Event 65535.61

#### Metadata

| Field        | Value     |
|--------------|-----------|
| Entrypoint   | 0x0AF8    |
| Data Size    | 120 bytes |
| Instructions | 18        |

```
      00 01 02 03 04 05 06 07  08 09 0A 0B 0C 0D 0E 0F
      -- -- -- -- -- -- -- --  -- -- -- -- -- -- -- --
0AF0:                          13 0A 00 2F 80 14 0A 00          .../....
0B00: 20 80 07 0A 00 75 80 1C  0A 00 13 0A 00 76 80 02   ....u.......v..
0B10: 0A 00 0E 80 80 29 0B 66  06 80 F8 FF FF 7F F8 FF  .....).f........
0B20: FF 7F 77 61 69 30 01 6C  0B 02 0A 00 0C 80 80 40  ..wai0.l.......@
0B30: 0B 6E F8 FF FF 7F 77 80  99 F8 FF FF 7F 01 6C 0B  .n....w.......l.
0B40: 02 0A 00 76 80 80 6C 0B  66 66 80 F8 FF FF 7F F8  ...v..l.ff......
0B50: FF FF 7F 65 68 6E 30 1C  1E 80 66 66 80 F8 FF FF  ...ehn0...ff....
0B60: 7F F8 FF FF 7F 65 68 6E  31 01 6C 0B 01 F8 0A 00  .....ehn1.l.....
```

#### Opcodes

```
  0: 0x0AF8 [0x13] ExtData[1]->WorkLocal[10] = rand() % 5*
  1: 0x0AFD [0x14] ExtData[1]->WorkLocal[10] *= 60*
  2: 0x0B02 [0x07] ExtData[1]->WorkLocal[10] += 300*
  3: 0x0B07 [0x1C] WAIT(ExtData[1]->WorkLocal[10] ticks)
  4: 0x0B0A [0x13] ExtData[1]->WorkLocal[10] = rand() % 2*
  5: 0x0B0F [0x02] IF !(ExtData[1]->WorkLocal[10] == 0*) GOTO 0x0B29
  6: 0x0B17 [0x66] LOAD_EXT_SCHEDULER_MAIN: Load scheduler "wai0" with entities [EventEntity, EventEntity], work=40*
  7: 0x0B26 [0x01] GOTO 0x0B6C
  8: 0x0B29 [0x02] IF !(ExtData[1]->WorkLocal[10] == 1*) GOTO 0x0B40
  9: 0x0B31 [0x6E] EventEntity uses emote 37*
 10: 0x0B38 [0x99] Wait for EventEntity animation to complete
 11: 0x0B3D [0x01] GOTO 0x0B6C
 12: 0x0B40 [0x02] IF !(ExtData[1]->WorkLocal[10] == 2*) GOTO 0x0B6C
 13: 0x0B48 [0x66] LOAD_EXT_SCHEDULER_MAIN: Load scheduler "ehn0" with entities [EventEntity, EventEntity], work=41*
 14: 0x0B57 [0x1C] WAIT(180* ticks)
 15: 0x0B5A [0x66] LOAD_EXT_SCHEDULER_MAIN: Load scheduler "ehn1" with entities [EventEntity, EventEntity], work=41*
 16: 0x0B69 [0x01] GOTO 0x0B6C

SUBROUTINE_0B6C:
 17: 0x0B6C [0x01] GOTO 0x0AF8
```

#### Data or dead code:

```
# Dead code (unreachable instructions):
     0x0B6F [0x00] END_REQSTACK()
```
