# 17826163

## Common Data

| Field            | Value                     |
|------------------|---------------------------|
| Zone             | Western Adoulin (ID: 256) |
| Block Size       | 232 bytes                 |
| Total Events     | 7                         |
| References Count | 11                        |

## List of Events

| Event ID                 | Entrypoint   |   Size |   Instructions |
|--------------------------|--------------|--------|----------------|
| [65535](#event-65535)    | 0x0000       |      1 |              1 |
| [65535.1](#event-655351) | 0x0001       |     13 |              4 |
| [65535.2](#event-655352) | 0x000E       |     13 |              4 |
| [65535.3](#event-655353) | 0x001B       |     13 |              4 |
| [65535.4](#event-655354) | 0x0028       |     13 |              4 |
| [65535.5](#event-655355) | 0x0035       |     13 |              4 |
| [7555](#event-7555)      | 0x0042       |     77 |             17 |

## DAT References (imed_data)

|   Index | Hex Value   |   Dec Value |
|---------|-------------|-------------|
|       0 | 0x0000      |           0 |
|       1 | 0x001C      |          28 |
|       2 | 0x0001      |           1 |
|       3 | 0x0002      |           2 |
|       4 | 0x0003      |           3 |
|       5 | 0x0004      |           4 |
|       6 | 0x03C0      |         960 |
|       7 | 0x03C2      |         962 |
|       8 | 0x03C1      |         961 |
|       9 | 0x03C8      |         968 |
|      10 | 0x03C9      |         969 |

## Events

### Event 65535

#### Metadata

| Field        | Value   |
|--------------|---------|
| Entrypoint   | 0x0000  |
| Data Size    | 1 bytes |
| Instructions | 1       |

```
      00 01 02 03 04 05 06 07  08 09 0A 0B 0C 0D 0E 0F
      -- -- -- -- -- -- -- --  -- -- -- -- -- -- -- --
0000: 00                                                .               
```

#### Opcodes

```
  0: 0x0000 [0x00] END_REQSTACK()
```

### Event 65535.1

#### Metadata

| Field        | Value    |
|--------------|----------|
| Entrypoint   | 0x0001   |
| Data Size    | 13 bytes |
| Instructions | 4        |

```
      00 01 02 03 04 05 06 07  08 09 0A 0B 0C 0D 0E 0F
      -- -- -- -- -- -- -- --  -- -- -- -- -- -- -- --
0000:    03 00 00 00 80 1A 43  00 B6 0F 01 80 00         ......C......  
```

#### Opcodes

```
  0: 0x0001 [0x03] ExtData[1]->WorkLocal[0] = 0*
  1: 0x0006 [0x1A] CALL_SUBROUTINE(address=0x0043)
  2: 0x0009 [0xB6] ENTITY_APPEARANCE_HANDLER(case=Model size, value=28*)
  3: 0x000D [0x00] END_REQSTACK()
```

### Event 65535.2

#### Metadata

| Field        | Value    |
|--------------|----------|
| Entrypoint   | 0x000E   |
| Data Size    | 13 bytes |
| Instructions | 4        |

```
      00 01 02 03 04 05 06 07  08 09 0A 0B 0C 0D 0E 0F
      -- -- -- -- -- -- -- --  -- -- -- -- -- -- -- --
0000:                                            03 00                ..
0010: 00 02 80 1A 43 00 B6 0F  01 80 00                 ....C......     
```

#### Opcodes

```
  0: 0x000E [0x03] ExtData[1]->WorkLocal[0] = 1*
  1: 0x0013 [0x1A] CALL_SUBROUTINE(address=0x0043)
  2: 0x0016 [0xB6] ENTITY_APPEARANCE_HANDLER(case=Model size, value=28*)
  3: 0x001A [0x00] END_REQSTACK()
```

### Event 65535.3

#### Metadata

| Field        | Value    |
|--------------|----------|
| Entrypoint   | 0x001B   |
| Data Size    | 13 bytes |
| Instructions | 4        |

```
      00 01 02 03 04 05 06 07  08 09 0A 0B 0C 0D 0E 0F
      -- -- -- -- -- -- -- --  -- -- -- -- -- -- -- --
0010:                                   03 00 00 03 80             .....
0020: 1A 43 00 B6 0F 01 80 00                           .C......        
```

#### Opcodes

```
  0: 0x001B [0x03] ExtData[1]->WorkLocal[0] = 2*
  1: 0x0020 [0x1A] CALL_SUBROUTINE(address=0x0043)
  2: 0x0023 [0xB6] ENTITY_APPEARANCE_HANDLER(case=Model size, value=28*)
  3: 0x0027 [0x00] END_REQSTACK()
```

### Event 65535.4

#### Metadata

| Field        | Value    |
|--------------|----------|
| Entrypoint   | 0x0028   |
| Data Size    | 13 bytes |
| Instructions | 4        |

```
      00 01 02 03 04 05 06 07  08 09 0A 0B 0C 0D 0E 0F
      -- -- -- -- -- -- -- --  -- -- -- -- -- -- -- --
0020:                          03 00 00 04 80 1A 43 00          ......C.
0030: B6 0F 01 80 00                                    .....           
```

#### Opcodes

```
  0: 0x0028 [0x03] ExtData[1]->WorkLocal[0] = 3*
  1: 0x002D [0x1A] CALL_SUBROUTINE(address=0x0043)
  2: 0x0030 [0xB6] ENTITY_APPEARANCE_HANDLER(case=Model size, value=28*)
  3: 0x0034 [0x00] END_REQSTACK()
```

### Event 65535.5

#### Metadata

| Field        | Value    |
|--------------|----------|
| Entrypoint   | 0x0035   |
| Data Size    | 13 bytes |
| Instructions | 4        |

```
      00 01 02 03 04 05 06 07  08 09 0A 0B 0C 0D 0E 0F
      -- -- -- -- -- -- -- --  -- -- -- -- -- -- -- --
0030:                03 00 00  05 80 1A 43 00 B6 0F 01       ......C....
0040: 80 00                                             ..              
```

#### Opcodes

```
  0: 0x0035 [0x03] ExtData[1]->WorkLocal[0] = 4*
  1: 0x003A [0x1A] CALL_SUBROUTINE(address=0x0043)
  2: 0x003D [0xB6] ENTITY_APPEARANCE_HANDLER(case=Model size, value=28*)
  3: 0x0041 [0x00] END_REQSTACK()
```

### Event 7555

#### Metadata

| Field        | Value    |
|--------------|----------|
| Entrypoint   | 0x0042   |
| Data Size    | 77 bytes |
| Instructions | 1        |

```
      00 01 02 03 04 05 06 07  08 09 0A 0B 0C 0D 0E 0F
      -- -- -- -- -- -- -- --  -- -- -- -- -- -- -- --
0040:       00 02 00 00 00 80  80 52 00 B6 00 06 80 01    .......R......
0050: 8E 00 02 00 00 02 80 80  61 00 B6 00 07 80 01 8E  ........a.......
0060: 00 02 00 00 03 80 80 70  00 B6 00 08 80 01 8E 00  .......p........
0070: 02 00 00 04 80 80 7F 00  B6 00 09 80 01 8E 00 02  ................
0080: 00 00 05 80 80 8E 00 B6  00 0A 80 01 8E 00 1B     ............... 
```

#### Opcodes

```
  0: 0x0042 [0x00] END_REQSTACK()
```

#### Data or dead code:

```
# Dead code (unreachable instructions):
     0x0043 [0x02] IF !(ExtData[1]->WorkLocal[0] == 0*) GOTO 0x0052
     0x004B [0xB6] ENTITY_APPEARANCE_HANDLER(case=Hair style, value=960*)
     0x004F [0x01] GOTO 0x008E
     0x0052 [0x02] IF !(ExtData[1]->WorkLocal[0] == 1*) GOTO 0x0061
     0x005A [0xB6] ENTITY_APPEARANCE_HANDLER(case=Hair style, value=962*)
     0x005E [0x01] GOTO 0x008E
     0x0061 [0x02] IF !(ExtData[1]->WorkLocal[0] == 2*) GOTO 0x0070
     0x0069 [0xB6] ENTITY_APPEARANCE_HANDLER(case=Hair style, value=961*)
     0x006D [0x01] GOTO 0x008E
     0x0070 [0x02] IF !(ExtData[1]->WorkLocal[0] == 3*) GOTO 0x007F
     0x0078 [0xB6] ENTITY_APPEARANCE_HANDLER(case=Hair style, value=968*)
     0x007C [0x01] GOTO 0x008E
     0x007F [0x02] IF !(ExtData[1]->WorkLocal[0] == 4*) GOTO 0x008E
     0x0087 [0xB6] ENTITY_APPEARANCE_HANDLER(case=Hair style, value=969*)
     0x008B [0x01] GOTO 0x008E
     0x008E [0x1B] RETURN
```
