# 17826061 - Chanteillie

## Common Data

| Field            | Value                     |
|------------------|---------------------------|
| Zone             | Western Adoulin (ID: 256) |
| Block Size       | 756 bytes                 |
| Total Events     | 22                        |
| References Count | 45                        |

## List of Events

| Event ID                 | Entrypoint   |   Size |   Instructions |
|--------------------------|--------------|--------|----------------|
| [65535](#event-65535)    | 0x0000       |      1 |              1 |
| [531](#event-531)        | 0x0001       |     43 |              9 |
| [588](#event-588)        | 0x002C       |     43 |              9 |
| [5054](#event-5054)      | 0x0057       |      1 |              1 |
| [65535.1](#event-655351) | 0x0058       |     18 |              6 |
| [5062](#event-5062)      | 0x006A       |      1 |              1 |
| [65535.2](#event-655352) | 0x006B       |     27 |              7 |
| [65535.3](#event-655353) | 0x0086       |      4 |              2 |
| [65535.4](#event-655354) | 0x008A       |      2 |              2 |
| [5087](#event-5087)      | 0x008C       |      7 |              2 |
| [5088](#event-5088)      | 0x0093       |     51 |             15 |
| [5089](#event-5089)      | 0x00C6       |     68 |             19 |
| [5211](#event-5211)      | 0x010A       |      7 |              2 |
| [65535.5](#event-655355) | 0x0111       |     34 |              4 |
| [65535.6](#event-655356) | 0x0133       |     66 |             16 |
| [5098](#event-5098)      | 0x0175       |      1 |              1 |
| [209](#event-209)        | 0x0176       |      1 |              1 |
| [65535.7](#event-655357) | 0x0177       |     13 |              3 |
| [5223](#event-5223)      | 0x0184       |      7 |              2 |
| [5076](#event-5076)      | 0x018B       |      7 |              2 |
| [65535.8](#event-655358) | 0x0192       |     34 |              8 |
| [5077](#event-5077)      | 0x01B4       |     33 |              9 |

## DAT References (imed_data)

|   Index | Hex Value   |   Dec Value |
|---------|-------------|-------------|
|       0 | 0x001E      |          30 |
|       1 | 0x2692      |        9874 |
|       2 | 0x2693      |        9875 |
|       3 | 0x000D      |          13 |
|       4 | 0x15716     |       87830 |
|       5 | 0xFFFED70C  |  4294891276 |
|       6 | 0xFFFFFD75  |  4294966645 |
|       7 | 0x0603      |        1539 |
|       8 | 0x166FC     |       91900 |
|       9 | 0xFFFED0C9  |  4294889673 |
|      10 | 0x178BD     |       96445 |
|      11 | 0xFFFEBE02  |  4294884866 |
|      12 | 0x01FF      |         511 |
|      13 | 0x0000      |           0 |
|      14 | 0x0F4F      |        3919 |
|      15 | 0x0F57      |        3927 |
|      16 | 0x2AB8      |       10936 |
|      17 | 0x2204      |        8708 |
|      18 | 0x2AB9      |       10937 |
|      19 | 0x2ABA      |       10938 |
|      20 | 0x2ABB      |       10939 |
|      21 | 0x2ABC      |       10940 |
|      22 | 0x2ABD      |       10941 |
|      23 | 0x2ABE      |       10942 |
|      24 | 0x003C      |          60 |
|      25 | 0xFFFFFA01  |  4294965761 |
|      26 | 0x000A      |          10 |
|      27 | 0x167CE     |       92110 |
|      28 | 0xFFFECEEC  |  4294889196 |
|      29 | 0xFFFFFD76  |  4294966646 |
|      30 | 0x165A8     |       91560 |
|      31 | 0xFFFECE60  |  4294889056 |
|      32 | 0x16378     |       91000 |
|      33 | 0xFFFECDE8  |  4294888936 |
|      34 | 0x05FF      |        1535 |
|      35 | 0x000F      |          15 |
|      36 | 0x15ED5     |       89813 |
|      37 | 0xFFFEE2E4  |  4294894308 |
|      38 | 0xFFFFFD3F  |  4294966591 |
|      39 | 0x15E81     |       89729 |
|      40 | 0xFFFEE794  |  4294895508 |
|      41 | 0x1585D     |       88157 |
|      42 | 0xFFFEECF5  |  4294896885 |
|      43 | 0x2527      |        9511 |
|      44 | 0x2528      |        9512 |

## String References

- **9511**: There is one undeniable truth about construction: that which is made can always be broken. However, I am confident in the durability of this piece.
- **9512**: As long as the boy makes sure to treat it with the proper care and respect, it should serve him well for many years to come.
- **9874**: ...It would behoove an outsider like you to register as a pioneer before entering our premises, but I will not force you to leave. Take a look around our facilities, but do not interfere with anyone's work.
- **9875**: It is imperative that you be able to properly use the tools with which we, the Inventors' Coalition, supply you. Otherwise, the colonization effort is doomed to fail.
- **10936**: Ah, <Player>. Amchuchu informed me that you would be assisting in her repair efforts. She requires $0, $1...
- **10937**: ...And $0. One of each, no more and no less.
- **10938**: Kindly trade them to me when you return.
- **10939**: Ah, most excellent. This should suffice.
- **10940**: I shall see that they are delivered to the appropriate personnel.
- **10941**: I know our maester asserted that she would have the letter done by the time you returned, but she has a slight penchant for hyperbole. I apologize for the delay, but I must request that you wait a little longer.
- **10942**: Amchuchu has likely finished composing her missive. A slight knock on the door should get her attention.

## Events

### Event 65535

#### Metadata

| Field        | Value   |
|--------------|---------|
| Entrypoint   | 0x0000  |
| Data Size    | 1 bytes |
| Instructions | 1       |

```
      00 01 02 03 04 05 06 07  08 09 0A 0B 0C 0D 0E 0F
      -- -- -- -- -- -- -- --  -- -- -- -- -- -- -- --
0000: 00                                                .               
```

#### Opcodes

```
  0: 0x0000 [0x00] END_REQSTACK()
```

### Event 531

#### Metadata

| Field        | Value    |
|--------------|----------|
| Entrypoint   | 0x0001   |
| Data Size    | 43 bytes |
| Instructions | 9        |

```
      00 01 02 03 04 05 06 07  08 09 0A 0B 0C 0D 0E 0F
      -- -- -- -- -- -- -- --  -- -- -- -- -- -- -- --
0000:    1E F0 FF FF 7F 6F 70  66 00 80 F8 FF FF 7F F8   .....opf.......
0010: FF FF 7F 74 6C 6B 30 1D  01 80 23 66 00 80 F8 FF  ...tlk0...#f....
0020: FF 7F F8 FF FF 7F 74 6C  6B 31 21 00              ......tlk1!.    
```

#### Opcodes

```
  0: 0x0001 [0x1E] EventEntity looks at LocalPlayer and starts talking
  1: 0x0006 [0x6F] WAIT_FRAME_DELAY: Yield until WaitTime reaches zero
  2: 0x0007 [0x70] WAIT_ENTITY_RENDER_FLAG: Wait while EventEntity->Render.Flags3 bit 2 is set (cancel turn if not)
  3: 0x0008 [0x66] LOAD_EXT_SCHEDULER_MAIN: Load scheduler "tlk0" with entities [EventEntity, EventEntity], work=30*
  4: 0x0017 [0x1D] PRINT_EVENT_MESSAGE(message_id=9874*)
    → "...It would behoove an outsider like you to register as a pioneer before entering our premises, but I will not force you to leave. Take a look around our facilities, but do not interfere with anyone's work."
  5: 0x001A [0x23] WAIT_FOR_DIALOG_INTERACTION
  6: 0x001B [0x66] LOAD_EXT_SCHEDULER_MAIN: Load scheduler "tlk1" with entities [EventEntity, EventEntity], work=30*
  7: 0x002A [0x21] END_EVENT
  8: 0x002B [0x00] END_REQSTACK()
```

### Event 588

#### Metadata

| Field        | Value    |
|--------------|----------|
| Entrypoint   | 0x002C   |
| Data Size    | 43 bytes |
| Instructions | 9        |

```
      00 01 02 03 04 05 06 07  08 09 0A 0B 0C 0D 0E 0F
      -- -- -- -- -- -- -- --  -- -- -- -- -- -- -- --
0020:                                      1E F0 FF FF              ....
0030: 7F 6F 70 66 00 80 F8 FF  FF 7F F8 FF FF 7F 74 6C  .opf..........tl
0040: 6B 30 1D 02 80 23 66 00  80 F8 FF FF 7F F8 FF FF  k0...#f.........
0050: 7F 74 6C 6B 31 21 00                              .tlk1!.         
```

#### Opcodes

```
  0: 0x002C [0x1E] EventEntity looks at LocalPlayer and starts talking
  1: 0x0031 [0x6F] WAIT_FRAME_DELAY: Yield until WaitTime reaches zero
  2: 0x0032 [0x70] WAIT_ENTITY_RENDER_FLAG: Wait while EventEntity->Render.Flags3 bit 2 is set (cancel turn if not)
  3: 0x0033 [0x66] LOAD_EXT_SCHEDULER_MAIN: Load scheduler "tlk0" with entities [EventEntity, EventEntity], work=30*
  4: 0x0042 [0x1D] PRINT_EVENT_MESSAGE(message_id=9875*)
    → "It is imperative that you be able to properly use the tools with which we, the Inventors' Coalition, supply you. Otherwise, the colonization effort is doomed to fail."
  5: 0x0045 [0x23] WAIT_FOR_DIALOG_INTERACTION
  6: 0x0046 [0x66] LOAD_EXT_SCHEDULER_MAIN: Load scheduler "tlk1" with entities [EventEntity, EventEntity], work=30*
  7: 0x0055 [0x21] END_EVENT
  8: 0x0056 [0x00] END_REQSTACK()
```

### Event 5054

#### Metadata

| Field        | Value   |
|--------------|---------|
| Entrypoint   | 0x0057  |
| Data Size    | 1 bytes |
| Instructions | 1       |

```
      00 01 02 03 04 05 06 07  08 09 0A 0B 0C 0D 0E 0F
      -- -- -- -- -- -- -- --  -- -- -- -- -- -- -- --
0050:                      00                                  .        
```

#### Opcodes

```
  0: 0x0057 [0x00] END_REQSTACK()
```

### Event 65535.1

#### Metadata

| Field        | Value    |
|--------------|----------|
| Entrypoint   | 0x0058   |
| Data Size    | 18 bytes |
| Instructions | 6        |

```
      00 01 02 03 04 05 06 07  08 09 0A 0B 0C 0D 0E 0F
      -- -- -- -- -- -- -- --  -- -- -- -- -- -- -- --
0050:                          32 03 80 1F 00 04 80 05          2.......
0060: 80 06 80 1F 01 6F 39 07  80 00                    .....o9...      
```

#### Opcodes

```
  0: 0x0058 [0x32] ExtData[1]->MainSpeed = 13* * 0.1
  1: 0x005B [0x1F] MOVE_ENTITY: EventEntity moves to X=87.830*, Z=-76.020*, Y=-0.651*
  2: 0x0063 [0x1F] MOVE_ENTITY: Update entity position (mode=1)
  3: 0x0065 [0x6F] WAIT_FRAME_DELAY: Yield until WaitTime reaches zero
  4: 0x0066 [0x39] SET_ENTITY_DIRECTION(direction=8.5°*)
  5: 0x0069 [0x00] END_REQSTACK()
```

### Event 5062

#### Metadata

| Field        | Value   |
|--------------|---------|
| Entrypoint   | 0x006A  |
| Data Size    | 1 bytes |
| Instructions | 1       |

```
      00 01 02 03 04 05 06 07  08 09 0A 0B 0C 0D 0E 0F
      -- -- -- -- -- -- -- --  -- -- -- -- -- -- -- --
0060:                                00                           .     
```

#### Opcodes

```
  0: 0x006A [0x00] END_REQSTACK()
```

### Event 65535.2

#### Metadata

| Field        | Value    |
|--------------|----------|
| Entrypoint   | 0x006B   |
| Data Size    | 27 bytes |
| Instructions | 7        |

```
      00 01 02 03 04 05 06 07  08 09 0A 0B 0C 0D 0E 0F
      -- -- -- -- -- -- -- --  -- -- -- -- -- -- -- --
0060:                                   32 03 80 1F 00             2....
0070: 08 80 09 80 06 80 1F 01  1F 00 0A 80 0B 80 06 80  ................
0080: 1F 01 39 0C 80 00                                 ..9...          
```

#### Opcodes

```
  0: 0x006B [0x32] ExtData[1]->MainSpeed = 13* * 0.1
  1: 0x006E [0x1F] MOVE_ENTITY: EventEntity moves to X=91.900*, Z=-77.623*, Y=-0.651*
  2: 0x0076 [0x1F] MOVE_ENTITY: Update entity position (mode=1)
  3: 0x0078 [0x1F] MOVE_ENTITY: EventEntity moves to X=96.445*, Z=-82.430*, Y=-0.651*
  4: 0x0080 [0x1F] MOVE_ENTITY: Update entity position (mode=1)
  5: 0x0082 [0x39] SET_ENTITY_DIRECTION(direction=2.8°*)
  6: 0x0085 [0x00] END_REQSTACK()
```

### Event 65535.3

#### Metadata

| Field        | Value   |
|--------------|---------|
| Entrypoint   | 0x0086  |
| Data Size    | 4 bytes |
| Instructions | 2       |

```
      00 01 02 03 04 05 06 07  08 09 0A 0B 0C 0D 0E 0F
      -- -- -- -- -- -- -- --  -- -- -- -- -- -- -- --
0080:                   95 0D  80 00                          ....      
```

#### Opcodes

```
  0: 0x0086 [0x95] SETUP_EVENT_NPC: Prepare NPC for event (Render.Flags3 = 0*)
  1: 0x0089 [0x00] END_REQSTACK()
```

### Event 65535.4

#### Metadata

| Field        | Value   |
|--------------|---------|
| Entrypoint   | 0x008A  |
| Data Size    | 2 bytes |
| Instructions | 2       |

```
      00 01 02 03 04 05 06 07  08 09 0A 0B 0C 0D 0E 0F
      -- -- -- -- -- -- -- --  -- -- -- -- -- -- -- --
0080:                                96 00                        ..    
```

#### Opcodes

```
  0: 0x008A [0x96] UNSET_EVENT_NPC: Restore NPC after event (removes event NPC status)
  1: 0x008B [0x00] END_REQSTACK()
```

### Event 5087

#### Metadata

| Field        | Value   |
|--------------|---------|
| Entrypoint   | 0x008C  |
| Data Size    | 7 bytes |
| Instructions | 2       |

```
      00 01 02 03 04 05 06 07  08 09 0A 0B 0C 0D 0E 0F
      -- -- -- -- -- -- -- --  -- -- -- -- -- -- -- --
0080:                                      92 01 F8 FF              ....
0090: FF 7F 00                                          ...             
```

#### Opcodes

```
  0: 0x008C [0x92] EventEntity->Render.Flags3 ^= 0x01
  1: 0x0092 [0x00] END_REQSTACK()
```

### Event 5088

#### Metadata

| Field        | Value    |
|--------------|----------|
| Entrypoint   | 0x0093   |
| Data Size    | 51 bytes |
| Instructions | 15       |

```
      00 01 02 03 04 05 06 07  08 09 0A 0B 0C 0D 0E 0F
      -- -- -- -- -- -- -- --  -- -- -- -- -- -- -- --
0090:          1E F0 FF FF 7F  6F 70 66 00 80 F8 FF FF     .....opf.....
00A0: 7F F8 FF FF 7F 74 6C 6B  30 03 02 10 0E 80 03 03  .....tlk0.......
00B0: 10 0F 80 1D 10 80 23 03  02 10 11 80 1D 12 80 23  ......#........#
00C0: 1D 13 80 23 21 00                                 ...#!.          
```

#### Opcodes

```
  0: 0x0093 [0x1E] EventEntity looks at LocalPlayer and starts talking
  1: 0x0098 [0x6F] WAIT_FRAME_DELAY: Yield until WaitTime reaches zero
  2: 0x0099 [0x70] WAIT_ENTITY_RENDER_FLAG: Wait while EventEntity->Render.Flags3 bit 2 is set (cancel turn if not)
  3: 0x009A [0x66] LOAD_EXT_SCHEDULER_MAIN: Load scheduler "tlk0" with entities [EventEntity, EventEntity], work=30*
  4: 0x00A9 [0x03] Work_Zone[2] = 3919*
  5: 0x00AE [0x03] Work_Zone[3] = 3927*
  6: 0x00B3 [0x1D] PRINT_EVENT_MESSAGE(message_id=10936*)
    → "Ah, <Player>. Amchuchu informed me that you would be assisting in her repair efforts. She requires $0, $1..."
  7: 0x00B6 [0x23] WAIT_FOR_DIALOG_INTERACTION
  8: 0x00B7 [0x03] Work_Zone[2] = 8708*
  9: 0x00BC [0x1D] PRINT_EVENT_MESSAGE(message_id=10937*)
    → "...And $0. One of each, no more and no less."
 10: 0x00BF [0x23] WAIT_FOR_DIALOG_INTERACTION
 11: 0x00C0 [0x1D] PRINT_EVENT_MESSAGE(message_id=10938*)
    → "Kindly trade them to me when you return."
 12: 0x00C3 [0x23] WAIT_FOR_DIALOG_INTERACTION
 13: 0x00C4 [0x21] END_EVENT
 14: 0x00C5 [0x00] END_REQSTACK()
```

### Event 5089

#### Metadata

| Field        | Value    |
|--------------|----------|
| Entrypoint   | 0x00C6   |
| Data Size    | 68 bytes |
| Instructions | 19       |

```
      00 01 02 03 04 05 06 07  08 09 0A 0B 0C 0D 0E 0F
      -- -- -- -- -- -- -- --  -- -- -- -- -- -- -- --
00C0:                   02 03  10 0D 80 00 CF 00 42 1E        ........B.
00D0: F0 FF FF 7F 6F 70 66 00  80 F8 FF FF 7F F8 FF FF  ....opf.........
00E0: 7F 74 6C 6B 30 02 03 10  0D 80 00 F5 00 1D 14 80  .tlk0...........
00F0: 23 1D 15 80 23 02 02 10  0D 80 00 04 01 1D 16 80  #...#...........
0100: 23 01 08 01 1D 17 80 23  21 00                    #......#!.      
```

#### Opcodes

```
  0: 0x00C6 [0x02] IF !(Work_Zone[3] == 0*) GOTO 0x00CF
  1: 0x00CE [0x42] SET_CLI_EVENT_CANCEL_DATA()
  2: 0x00CF [0x1E] EventEntity looks at LocalPlayer and starts talking
  3: 0x00D4 [0x6F] WAIT_FRAME_DELAY: Yield until WaitTime reaches zero
  4: 0x00D5 [0x70] WAIT_ENTITY_RENDER_FLAG: Wait while EventEntity->Render.Flags3 bit 2 is set (cancel turn if not)
  5: 0x00D6 [0x66] LOAD_EXT_SCHEDULER_MAIN: Load scheduler "tlk0" with entities [EventEntity, EventEntity], work=30*
  6: 0x00E5 [0x02] IF !(Work_Zone[3] == 0*) GOTO 0x00F5
  7: 0x00ED [0x1D] PRINT_EVENT_MESSAGE(message_id=10939*)
    → "Ah, most excellent. This should suffice."
  8: 0x00F0 [0x23] WAIT_FOR_DIALOG_INTERACTION
  9: 0x00F1 [0x1D] PRINT_EVENT_MESSAGE(message_id=10940*)
    → "I shall see that they are delivered to the appropriate personnel."
 10: 0x00F4 [0x23] WAIT_FOR_DIALOG_INTERACTION
 11: 0x00F5 [0x02] IF !(Work_Zone[2] == 0*) GOTO 0x0104
 12: 0x00FD [0x1D] PRINT_EVENT_MESSAGE(message_id=10941*)
    → "I know our maester asserted that she would have the letter done by the time you returned, but she has a slight penchant for hyperbole. I apologize for the delay, but I must request that you wait a little longer."
 13: 0x0100 [0x23] WAIT_FOR_DIALOG_INTERACTION
 14: 0x0101 [0x01] GOTO 0x0108
 15: 0x0104 [0x1D] PRINT_EVENT_MESSAGE(message_id=10942*)
    → "Amchuchu has likely finished composing her missive. A slight knock on the door should get her attention."
 16: 0x0107 [0x23] WAIT_FOR_DIALOG_INTERACTION

SUBROUTINE_0108:
 17: 0x0108 [0x21] END_EVENT
 18: 0x0109 [0x00] END_REQSTACK()
```

### Event 5211

#### Metadata

| Field        | Value   |
|--------------|---------|
| Entrypoint   | 0x010A  |
| Data Size    | 7 bytes |
| Instructions | 2       |

```
      00 01 02 03 04 05 06 07  08 09 0A 0B 0C 0D 0E 0F
      -- -- -- -- -- -- -- --  -- -- -- -- -- -- -- --
0100:                                92 01 F8 FF FF 7F            ......
0110: 00                                                .               
```

#### Opcodes

```
  0: 0x010A [0x92] EventEntity->Render.Flags3 ^= 0x01
  1: 0x0110 [0x00] END_REQSTACK()
```

### Event 65535.5

#### Metadata

| Field        | Value    |
|--------------|----------|
| Entrypoint   | 0x0111   |
| Data Size    | 34 bytes |
| Instructions | 4        |

```
      00 01 02 03 04 05 06 07  08 09 0A 0B 0C 0D 0E 0F
      -- -- -- -- -- -- -- --  -- -- -- -- -- -- -- --
0110:    66 00 80 F8 FF FF 7F  F8 FF FF 7F 74 6C 6B 30   f..........tlk0
0120: 1C 18 80 66 00 80 F8 FF  FF 7F F8 FF FF 7F 74 6C  ...f..........tl
0130: 6B 31 00                                          k1.             
```

#### Opcodes

```
  0: 0x0111 [0x66] LOAD_EXT_SCHEDULER_MAIN: Load scheduler "tlk0" with entities [EventEntity, EventEntity], work=30*
  1: 0x0120 [0x1C] WAIT(60* ticks)
  2: 0x0123 [0x66] LOAD_EXT_SCHEDULER_MAIN: Load scheduler "tlk1" with entities [EventEntity, EventEntity], work=30*
  3: 0x0132 [0x00] END_REQSTACK()
```

### Event 65535.6

#### Metadata

| Field        | Value    |
|--------------|----------|
| Entrypoint   | 0x0133   |
| Data Size    | 66 bytes |
| Instructions | 16       |

```
      00 01 02 03 04 05 06 07  08 09 0A 0B 0C 0D 0E 0F
      -- -- -- -- -- -- -- --  -- -- -- -- -- -- -- --
0130:          1C 18 80 39 19  80 6F 70 1C 1A 80 32 03     ...9..op...2.
0140: 80 1F 00 1B 80 1C 80 1D  80 1F 01 1F 00 1E 80 1F  ................
0150: 80 1D 80 1F 01 1F 00 20  80 21 80 1D 80 1F 01 39  ....... .!.....9
0160: 22 80 1C 23 80 66 00 80  F8 FF FF 7F F8 FF FF 7F  "..#.f..........
0170: 74 68 6B 31 00                                    thk1.           
```

#### Opcodes

```
  0: 0x0133 [0x1C] WAIT(60* ticks)
  1: 0x0136 [0x39] SET_ENTITY_DIRECTION(direction=351.6°*)
  2: 0x0139 [0x6F] WAIT_FRAME_DELAY: Yield until WaitTime reaches zero
  3: 0x013A [0x70] WAIT_ENTITY_RENDER_FLAG: Wait while EventEntity->Render.Flags3 bit 2 is set (cancel turn if not)
  4: 0x013B [0x1C] WAIT(10* ticks)
  5: 0x013E [0x32] ExtData[1]->MainSpeed = 13* * 0.1
  6: 0x0141 [0x1F] MOVE_ENTITY: EventEntity moves to X=92.110*, Z=-78.100*, Y=-0.650*
  7: 0x0149 [0x1F] MOVE_ENTITY: Update entity position (mode=1)
  8: 0x014B [0x1F] MOVE_ENTITY: EventEntity moves to X=91.560*, Z=-78.240*, Y=-0.650*
  9: 0x0153 [0x1F] MOVE_ENTITY: Update entity position (mode=1)
 10: 0x0155 [0x1F] MOVE_ENTITY: EventEntity moves to X=91.000*, Z=-78.360*, Y=-0.650*
 11: 0x015D [0x1F] MOVE_ENTITY: Update entity position (mode=1)
 12: 0x015F [0x39] SET_ENTITY_DIRECTION(direction=8.4°*)
 13: 0x0162 [0x1C] WAIT(15* ticks)
 14: 0x0165 [0x66] LOAD_EXT_SCHEDULER_MAIN: Load scheduler "thk1" with entities [EventEntity, EventEntity], work=30*
 15: 0x0174 [0x00] END_REQSTACK()
```

### Event 5098

#### Metadata

| Field        | Value   |
|--------------|---------|
| Entrypoint   | 0x0175  |
| Data Size    | 1 bytes |
| Instructions | 1       |

```
      00 01 02 03 04 05 06 07  08 09 0A 0B 0C 0D 0E 0F
      -- -- -- -- -- -- -- --  -- -- -- -- -- -- -- --
0170:                00                                      .          
```

#### Opcodes

```
  0: 0x0175 [0x00] END_REQSTACK()
```

### Event 209

#### Metadata

| Field        | Value   |
|--------------|---------|
| Entrypoint   | 0x0176  |
| Data Size    | 1 bytes |
| Instructions | 1       |

```
      00 01 02 03 04 05 06 07  08 09 0A 0B 0C 0D 0E 0F
      -- -- -- -- -- -- -- --  -- -- -- -- -- -- -- --
0170:                   00                                    .         
```

#### Opcodes

```
  0: 0x0176 [0x00] END_REQSTACK()
```

### Event 65535.7

#### Metadata

| Field        | Value    |
|--------------|----------|
| Entrypoint   | 0x0177   |
| Data Size    | 13 bytes |
| Instructions | 3        |

```
      00 01 02 03 04 05 06 07  08 09 0A 0B 0C 0D 0E 0F
      -- -- -- -- -- -- -- --  -- -- -- -- -- -- -- --
0170:                      1C  00 80 4A 0D 01 10 01 ED         ...J.....
0180: 00 10 01 00                                       ....            
```

#### Opcodes

```
  0: 0x0177 [0x1C] WAIT(30* ticks)
  1: 0x017A [0x4A] Chanteillie (ID: 17826061/0x0110010D) looks at Amchuchu (ID: 17826029/0x011000ED)
  2: 0x0183 [0x00] END_REQSTACK()
```

### Event 5223

#### Metadata

| Field        | Value   |
|--------------|---------|
| Entrypoint   | 0x0184  |
| Data Size    | 7 bytes |
| Instructions | 2       |

```
      00 01 02 03 04 05 06 07  08 09 0A 0B 0C 0D 0E 0F
      -- -- -- -- -- -- -- --  -- -- -- -- -- -- -- --
0180:             92 01 F8 FF  FF 7F 00                     .......     
```

#### Opcodes

```
  0: 0x0184 [0x92] EventEntity->Render.Flags3 ^= 0x01
  1: 0x018A [0x00] END_REQSTACK()
```

### Event 5076

#### Metadata

| Field        | Value   |
|--------------|---------|
| Entrypoint   | 0x018B  |
| Data Size    | 7 bytes |
| Instructions | 2       |

```
      00 01 02 03 04 05 06 07  08 09 0A 0B 0C 0D 0E 0F
      -- -- -- -- -- -- -- --  -- -- -- -- -- -- -- --
0180:                                   92 01 F8 FF FF             .....
0190: 7F 00                                             ..              
```

#### Opcodes

```
  0: 0x018B [0x92] EventEntity->Render.Flags3 ^= 0x01
  1: 0x0191 [0x00] END_REQSTACK()
```

### Event 65535.8

#### Metadata

| Field        | Value    |
|--------------|----------|
| Entrypoint   | 0x0192   |
| Data Size    | 34 bytes |
| Instructions | 8        |

```
      00 01 02 03 04 05 06 07  08 09 0A 0B 0C 0D 0E 0F
      -- -- -- -- -- -- -- --  -- -- -- -- -- -- -- --
0190:       32 03 80 1F 00 24  80 25 80 26 80 1F 01 1F    2....$.%.&....
01A0: 00 27 80 28 80 26 80 1F  01 1F 00 29 80 2A 80 26  .'.(.&.....).*.&
01B0: 80 1F 01 00                                       ....            
```

#### Opcodes

```
  0: 0x0192 [0x32] ExtData[1]->MainSpeed = 13* * 0.1
  1: 0x0195 [0x1F] MOVE_ENTITY: EventEntity moves to X=89.813*, Z=-72.988*, Y=-0.705*
  2: 0x019D [0x1F] MOVE_ENTITY: Update entity position (mode=1)
  3: 0x019F [0x1F] MOVE_ENTITY: EventEntity moves to X=89.729*, Z=-71.788*, Y=-0.705*
  4: 0x01A7 [0x1F] MOVE_ENTITY: Update entity position (mode=1)
  5: 0x01A9 [0x1F] MOVE_ENTITY: EventEntity moves to X=88.157*, Z=-70.411*, Y=-0.705*
  6: 0x01B1 [0x1F] MOVE_ENTITY: Update entity position (mode=1)
  7: 0x01B3 [0x00] END_REQSTACK()
```

### Event 5077

#### Metadata

| Field        | Value    |
|--------------|----------|
| Entrypoint   | 0x01B4   |
| Data Size    | 33 bytes |
| Instructions | 9        |

```
      00 01 02 03 04 05 06 07  08 09 0A 0B 0C 0D 0E 0F
      -- -- -- -- -- -- -- --  -- -- -- -- -- -- -- --
01B0:             1E F0 FF FF  7F 1C 00 80 66 00 80 F8      ........f...
01C0: FF FF 7F F8 FF FF 7F 74  6C 6B 30 1D 2B 80 23 1D  .......tlk0.+.#.
01D0: 2C 80 23 21 00                                    ,.#!.           
```

#### Opcodes

```
  0: 0x01B4 [0x1E] EventEntity looks at LocalPlayer and starts talking
  1: 0x01B9 [0x1C] WAIT(30* ticks)
  2: 0x01BC [0x66] LOAD_EXT_SCHEDULER_MAIN: Load scheduler "tlk0" with entities [EventEntity, EventEntity], work=30*
  3: 0x01CB [0x1D] PRINT_EVENT_MESSAGE(message_id=9511*)
    → "There is one undeniable truth about construction: that which is made can always be broken. However, I am confident in the durability of this piece."
  4: 0x01CE [0x23] WAIT_FOR_DIALOG_INTERACTION
  5: 0x01CF [0x1D] PRINT_EVENT_MESSAGE(message_id=9512*)
    → "As long as the boy makes sure to treat it with the proper care and respect, it should serve him well for many years to come."
  6: 0x01D2 [0x23] WAIT_FOR_DIALOG_INTERACTION
  7: 0x01D3 [0x21] END_EVENT
  8: 0x01D4 [0x00] END_REQSTACK()
```
