# 17826015

## Common Data

| Field            | Value                     |
|------------------|---------------------------|
| Zone             | Western Adoulin (ID: 256) |
| Block Size       | 252 bytes                 |
| Total Events     | 8                         |
| References Count | 14                        |

## List of Events

| Event ID                 | Entrypoint   |   Size |   Instructions |
|--------------------------|--------------|--------|----------------|
| [65535](#event-65535)    | 0x0000       |      1 |              1 |
| [5092](#event-5092)      | 0x0001       |      1 |              1 |
| [65535.1](#event-655351) | 0x0002       |     43 |              8 |
| [5221](#event-5221)      | 0x002D       |      7 |              2 |
| [65535.2](#event-655352) | 0x0034       |     21 |              3 |
| [65535.3](#event-655353) | 0x0049       |     14 |              4 |
| [65535.4](#event-655354) | 0x0057       |     39 |              5 |
| [65535.5](#event-655355) | 0x007E       |     19 |              5 |

## DAT References (imed_data)

|   Index | Hex Value   |   Dec Value |
|---------|-------------|-------------|
|       0 | 0x0002      |           2 |
|       1 | 0x0000      |           0 |
|       2 | 0x00FB      |         251 |
|       3 | 0x0258      |         600 |
|       4 | 0x003C      |          60 |
|       5 | 0x000D      |          13 |
|       6 | 0xFFFF7554  |  4294931796 |
|       7 | 0xFFFE7D34  |  4294868276 |
|       8 | 0xFFFFFD76  |  4294966646 |
|       9 | 0x001E      |          30 |
|      10 | 0x0364      |         868 |
|      11 | 0x0005      |           5 |
|      12 | 0xFFFF614A  |  4294926666 |
|      13 | 0xFFFE5BEC  |  4294859756 |

## Events

### Event 65535

#### Metadata

| Field        | Value   |
|--------------|---------|
| Entrypoint   | 0x0000  |
| Data Size    | 1 bytes |
| Instructions | 1       |

```
      00 01 02 03 04 05 06 07  08 09 0A 0B 0C 0D 0E 0F
      -- -- -- -- -- -- -- --  -- -- -- -- -- -- -- --
0000: 00                                                .               
```

#### Opcodes

```
  0: 0x0000 [0x00] END_REQSTACK()
```

### Event 5092

#### Metadata

| Field        | Value   |
|--------------|---------|
| Entrypoint   | 0x0001  |
| Data Size    | 1 bytes |
| Instructions | 1       |

```
      00 01 02 03 04 05 06 07  08 09 0A 0B 0C 0D 0E 0F
      -- -- -- -- -- -- -- --  -- -- -- -- -- -- -- --
0000:    00                                              .              
```

#### Opcodes

```
  0: 0x0001 [0x00] END_REQSTACK()
```

### Event 65535.1

#### Metadata

| Field        | Value    |
|--------------|----------|
| Entrypoint   | 0x0002   |
| Data Size    | 43 bytes |
| Instructions | 7        |

```
      00 01 02 03 04 05 06 07  08 09 0A 0B 0C 0D 0E 0F
      -- -- -- -- -- -- -- --  -- -- -- -- -- -- -- --
0000:       13 00 00 00 80 02  00 00 01 80 00 26 00 9F    ...........&..
0010: 02 80 F8 FF FF 7F F8 FF  FF 7F 6D 61 69 6E 01 80  ..........main..
0020: 1C 03 80 01 29 00 1C 04  80 01 02 00 00           ....)........   
```

#### Opcodes

```
  0: 0x0002 [0x13] ExtData[1]->WorkLocal[0] = rand() % 2*
  1: 0x0007 [0x02] IF !(ExtData[1]->WorkLocal[0] == 0*) GOTO 0x0026
  2: 0x000F [0x9F] LOAD_SCHEDULED_TASK_ALT: Load scheduler "main" with entities [EventEntity, EventEntity], work=[251*, 0*]
  3: 0x0020 [0x1C] WAIT(600* ticks)
  4: 0x0023 [0x01] GOTO 0x0029
  5: 0x0026 [0x1C] WAIT(60* ticks)

SUBROUTINE_0029:
  6: 0x0029 [0x01] GOTO 0x0002
```

#### Data or dead code:

```
# Dead code (unreachable instructions):
     0x002C [0x00] END_REQSTACK()
```

### Event 5221

#### Metadata

| Field        | Value   |
|--------------|---------|
| Entrypoint   | 0x002D  |
| Data Size    | 7 bytes |
| Instructions | 2       |

```
      00 01 02 03 04 05 06 07  08 09 0A 0B 0C 0D 0E 0F
      -- -- -- -- -- -- -- --  -- -- -- -- -- -- -- --
0020:                                         92 01 F8               ...
0030: FF FF 7F 00                                       ....            
```

#### Opcodes

```
  0: 0x002D [0x92] EventEntity->Render.Flags3 ^= 0x01
  1: 0x0033 [0x00] END_REQSTACK()
```

### Event 65535.2

#### Metadata

| Field        | Value    |
|--------------|----------|
| Entrypoint   | 0x0034   |
| Data Size    | 21 bytes |
| Instructions | 3        |

```
      00 01 02 03 04 05 06 07  08 09 0A 0B 0C 0D 0E 0F
      -- -- -- -- -- -- -- --  -- -- -- -- -- -- -- --
0030:             1C 04 80 9F  02 80 F8 FF FF 7F F8 FF      ............
0040: FF 7F 6D 61 69 6E 01 80  00                       ..main...       
```

#### Opcodes

```
  0: 0x0034 [0x1C] WAIT(60* ticks)
  1: 0x0037 [0x9F] LOAD_SCHEDULED_TASK_ALT: Load scheduler "main" with entities [EventEntity, EventEntity], work=[251*, 0*]
  2: 0x0048 [0x00] END_REQSTACK()
```

### Event 65535.3

#### Metadata

| Field        | Value    |
|--------------|----------|
| Entrypoint   | 0x0049   |
| Data Size    | 14 bytes |
| Instructions | 4        |

```
      00 01 02 03 04 05 06 07  08 09 0A 0B 0C 0D 0E 0F
      -- -- -- -- -- -- -- --  -- -- -- -- -- -- -- --
0040:                             32 05 80 1F 00 06 80           2......
0050: 07 80 08 80 1F 01 00                              .......         
```

#### Opcodes

```
  0: 0x0049 [0x32] ExtData[1]->MainSpeed = 13* * 0.1
  1: 0x004C [0x1F] MOVE_ENTITY: EventEntity moves to X=-35.500*, Z=-99.020*, Y=-0.650*
  2: 0x0054 [0x1F] MOVE_ENTITY: Update entity position (mode=1)
  3: 0x0056 [0x00] END_REQSTACK()
```

### Event 65535.4

#### Metadata

| Field        | Value    |
|--------------|----------|
| Entrypoint   | 0x0057   |
| Data Size    | 39 bytes |
| Instructions | 5        |

```
      00 01 02 03 04 05 06 07  08 09 0A 0B 0C 0D 0E 0F
      -- -- -- -- -- -- -- --  -- -- -- -- -- -- -- --
0050:                      1C  09 80 5B 0A 80 F8 FF FF         ...[.....
0060: 7F F8 FF FF 7F 79 61 64  30 1C 0B 80 9F 02 80 F8  .....yad0.......
0070: FF FF 7F F8 FF FF 7F 6D  61 69 6E 01 80 00        .......main...  
```

#### Opcodes

```
  0: 0x0057 [0x1C] WAIT(30* ticks)
  1: 0x005A [0x5B] LOAD_EXT_SCHEDULER: Load scheduler "yad0" with entities [EventEntity, EventEntity], work=868*
  2: 0x0069 [0x1C] WAIT(5* ticks)
  3: 0x006C [0x9F] LOAD_SCHEDULED_TASK_ALT: Load scheduler "main" with entities [EventEntity, EventEntity], work=[251*, 0*]
  4: 0x007D [0x00] END_REQSTACK()
```

### Event 65535.5

#### Metadata

| Field        | Value    |
|--------------|----------|
| Entrypoint   | 0x007E   |
| Data Size    | 19 bytes |
| Instructions | 5        |

```
      00 01 02 03 04 05 06 07  08 09 0A 0B 0C 0D 0E 0F
      -- -- -- -- -- -- -- --  -- -- -- -- -- -- -- --
0070:                                            32 05                2.
0080: 80 1F 00 0C 80 0D 80 08  80 1F 01 1E A2 00 10 01  ................
0090: 00                                                .               
```

#### Opcodes

```
  0: 0x007E [0x32] ExtData[1]->MainSpeed = 13* * 0.1
  1: 0x0081 [0x1F] MOVE_ENTITY: EventEntity moves to X=-40.630*, Z=-107.540*, Y=-0.650*
  2: 0x0089 [0x1F] MOVE_ENTITY: Update entity position (mode=1)
  3: 0x008B [0x1E] EventEntity looks at Unnamed NPC (ID: 17825954/0x011000A2) and starts talking
  4: 0x0090 [0x00] END_REQSTACK()
```
