# 17826117

## Common Data

| Field            | Value                     |
|------------------|---------------------------|
| Zone             | Western Adoulin (ID: 256) |
| Block Size       | 976 bytes                 |
| Total Events     | 47                        |
| References Count | 43                        |

## List of Events

| Event ID                   | Entrypoint   |   Size |   Instructions |
|----------------------------|--------------|--------|----------------|
| [65535](#event-65535)      | 0x0000       |      1 |              1 |
| [65535.1](#event-655351)   | 0x0001       |      1 |              1 |
| [65535.2](#event-655352)   | 0x0002       |     18 |              4 |
| [65535.3](#event-655353)   | 0x0014       |     10 |              2 |
| [65535.4](#event-655354)   | 0x001E       |      9 |              3 |
| [65535.5](#event-655355)   | 0x0027       |      9 |              3 |
| [65535.6](#event-655356)   | 0x0030       |     10 |              2 |
| [65535.7](#event-655357)   | 0x003A       |     10 |              2 |
| [65535.8](#event-655358)   | 0x0044       |     23 |              3 |
| [65535.9](#event-655359)   | 0x005B       |     23 |              3 |
| [65535.10](#event-6553510) | 0x0072       |     23 |              3 |
| [65535.11](#event-6553511) | 0x0089       |     23 |              3 |
| [65535.12](#event-6553512) | 0x00A0       |     14 |              4 |
| [65535.13](#event-6553513) | 0x00AE       |     14 |              4 |
| [65535.14](#event-6553514) | 0x00BC       |     14 |              4 |
| [65535.15](#event-6553515) | 0x00CA       |     14 |              4 |
| [109](#event-109)          | 0x00D8       |      1 |              1 |
| [110](#event-110)          | 0x00D9       |      1 |              1 |
| [111](#event-111)          | 0x00DA       |      1 |              1 |
| [112](#event-112)          | 0x00DB       |      1 |              1 |
| [113](#event-113)          | 0x00DC       |      1 |              1 |
| [114](#event-114)          | 0x00DD       |      1 |              1 |
| [115](#event-115)          | 0x00DE       |      1 |              1 |
| [116](#event-116)          | 0x00DF       |      1 |              1 |
| [117](#event-117)          | 0x00E0       |      1 |              1 |
| [118](#event-118)          | 0x00E1       |      1 |              1 |
| [128](#event-128)          | 0x00E2       |      1 |              1 |
| [5104](#event-5104)        | 0x00E3       |      1 |              1 |
| [5105](#event-5105)        | 0x00E4       |      1 |              1 |
| [5109](#event-5109)        | 0x00E5       |      1 |              1 |
| [5106](#event-5106)        | 0x00E6       |      1 |              1 |
| [5098](#event-5098)        | 0x00E7       |      1 |              1 |
| [5099](#event-5099)        | 0x00E8       |      1 |              1 |
| [209](#event-209)          | 0x00E9       |      1 |              1 |
| [211](#event-211)          | 0x00EA       |      1 |              1 |
| [65535.16](#event-6553516) | 0x00EB       |     45 |              4 |
| [65535.17](#event-6553517) | 0x0118       |     25 |              3 |
| [65535.18](#event-6553518) | 0x0131       |     45 |              4 |
| [65535.19](#event-6553519) | 0x015E       |     14 |              4 |
| [65535.20](#event-6553520) | 0x016C       |     14 |              4 |
| [65535.21](#event-6553521) | 0x017A       |     14 |              4 |
| [65535.22](#event-6553522) | 0x0188       |     24 |              6 |
| [65535.23](#event-6553523) | 0x01A0       |     34 |              8 |
| [65535.24](#event-6553524) | 0x01C2       |     53 |              6 |
| [5200](#event-5200)        | 0x01F7       |      7 |              2 |
| [65535.25](#event-6553525) | 0x01FE       |     53 |              6 |
| [65535.26](#event-6553526) | 0x0233       |     34 |              8 |

## DAT References (imed_data)

|   Index | Hex Value   |   Dec Value |
|---------|-------------|-------------|
|       0 | 0x0000      |           0 |
|       1 | 0x0001      |           1 |
|       2 | 0x0080      |         128 |
|       3 | 0x0006      |           6 |
|       4 | 0x0004      |           4 |
|       5 | 0x008B      |         139 |
|       6 | 0x0002      |           2 |
|       7 | 0x0046      |          70 |
|       8 | 0x0034      |          52 |
|       9 | 0x000D      |          13 |
|      10 | 0x172AD     |       94893 |
|      11 | 0xFFFECE59  |  4294889049 |
|      12 | 0xFFFCD24D  |  4294758989 |
|      13 | 0x000C      |          12 |
|      14 | 0x000B      |          11 |
|      15 | 0x0009      |           9 |
|      16 | 0x0005      |           5 |
|      17 | 0x008A      |         138 |
|      18 | 0x0091      |         145 |
|      19 | 0x0073      |         115 |
|      20 | 0xCA5E      |       51806 |
|      21 | 0x27A3C     |      162364 |
|      22 | 0x6D5F      |       27999 |
|      23 | 0xD7A7      |       55207 |
|      24 | 0x2899E     |      166302 |
|      25 | 0x0028      |          40 |
|      26 | 0xE215      |       57877 |
|      27 | 0x2A0CD     |      172237 |
|      28 | 0x19750     |      104272 |
|      29 | 0xFFFECF91  |  4294889361 |
|      30 | 0xFFFFFD76  |  4294966646 |
|      31 | 0x195AF     |      103855 |
|      32 | 0xFFFEDB81  |  4294892417 |
|      33 | 0x15825     |       88101 |
|      34 | 0xFFFF16C3  |  4294907587 |
|      35 | 0xFFFFFF6C  |  4294967148 |
|      36 | 0x14399     |       82841 |
|      37 | 0xFFFF20A4  |  4294910116 |
|      38 | 0x15BAE     |       89006 |
|      39 | 0xFFFF196D  |  4294908269 |
|      40 | 0x1846F     |       99439 |
|      41 | 0xFFFEF56C  |  4294899052 |
|      42 | 0xFFFFFD77  |  4294966647 |

## Events

### Event 65535

#### Metadata

| Field        | Value   |
|--------------|---------|
| Entrypoint   | 0x0000  |
| Data Size    | 1 bytes |
| Instructions | 1       |

```
      00 01 02 03 04 05 06 07  08 09 0A 0B 0C 0D 0E 0F
      -- -- -- -- -- -- -- --  -- -- -- -- -- -- -- --
0000: 00                                                .               
```

#### Opcodes

```
  0: 0x0000 [0x00] END_REQSTACK()
```

### Event 65535.1

#### Metadata

| Field        | Value   |
|--------------|---------|
| Entrypoint   | 0x0001  |
| Data Size    | 1 bytes |
| Instructions | 1       |

```
      00 01 02 03 04 05 06 07  08 09 0A 0B 0C 0D 0E 0F
      -- -- -- -- -- -- -- --  -- -- -- -- -- -- -- --
0000:    00                                              .              
```

#### Opcodes

```
  0: 0x0001 [0x00] END_REQSTACK()
```

### Event 65535.2

#### Metadata

| Field        | Value    |
|--------------|----------|
| Entrypoint   | 0x0002   |
| Data Size    | 18 bytes |
| Instructions | 4        |

```
      00 01 02 03 04 05 06 07  08 09 0A 0B 0C 0D 0E 0F
      -- -- -- -- -- -- -- --  -- -- -- -- -- -- -- --
0000:       22 00 2F 00 F8 FF  FF 7F 6C F8 FF FF 7F 00    "./.....l.....
0010: 80 01 80 00                                       ....            
```

#### Opcodes

```
  0: 0x0002 [0x22] ENTITY_HIDE_FLAG(enabled=0x00)
  1: 0x0004 [0x2F] EventEntity->Render.Flags0 &= ~0x80000 // Bit 19
  2: 0x000A [0x6C] FADE_ENTITY_COLOR(entity_id=EventEntity, end_alpha=0*, fade_time=1*)
  3: 0x0013 [0x00] END_REQSTACK()
```

### Event 65535.3

#### Metadata

| Field        | Value    |
|--------------|----------|
| Entrypoint   | 0x0014   |
| Data Size    | 10 bytes |
| Instructions | 2        |

```
      00 01 02 03 04 05 06 07  08 09 0A 0B 0C 0D 0E 0F
      -- -- -- -- -- -- -- --  -- -- -- -- -- -- -- --
0010:             6C F8 FF FF  7F 02 80 01 80 00            l.........  
```

#### Opcodes

```
  0: 0x0014 [0x6C] FADE_ENTITY_COLOR(entity_id=EventEntity, end_alpha=128*, fade_time=1*)
  1: 0x001D [0x00] END_REQSTACK()
```

### Event 65535.4

#### Metadata

| Field        | Value   |
|--------------|---------|
| Entrypoint   | 0x001E  |
| Data Size    | 9 bytes |
| Instructions | 3       |

```
      00 01 02 03 04 05 06 07  08 09 0A 0B 0C 0D 0E 0F
      -- -- -- -- -- -- -- --  -- -- -- -- -- -- -- --
0010:                                            22 00                ".
0020: 2F 00 F8 FF FF 7F 00                              /......         
```

#### Opcodes

```
  0: 0x001E [0x22] ENTITY_HIDE_FLAG(enabled=0x00)
  1: 0x0020 [0x2F] EventEntity->Render.Flags0 &= ~0x80000 // Bit 19
  2: 0x0026 [0x00] END_REQSTACK()
```

### Event 65535.5

#### Metadata

| Field        | Value   |
|--------------|---------|
| Entrypoint   | 0x0027  |
| Data Size    | 9 bytes |
| Instructions | 3       |

```
      00 01 02 03 04 05 06 07  08 09 0A 0B 0C 0D 0E 0F
      -- -- -- -- -- -- -- --  -- -- -- -- -- -- -- --
0020:                      22  01 2F 01 F8 FF FF 7F 00         "./......
```

#### Opcodes

```
  0: 0x0027 [0x22] ENTITY_HIDE_FLAG(enabled=0x01)
  1: 0x0029 [0x2F] EventEntity->Render.Flags0 |= 0x80000 // Bit 19
  2: 0x002F [0x00] END_REQSTACK()
```

### Event 65535.6

#### Metadata

| Field        | Value    |
|--------------|----------|
| Entrypoint   | 0x0030   |
| Data Size    | 10 bytes |
| Instructions | 2        |

```
      00 01 02 03 04 05 06 07  08 09 0A 0B 0C 0D 0E 0F
      -- -- -- -- -- -- -- --  -- -- -- -- -- -- -- --
0030: 6C F8 FF FF 7F 00 80 01  80 00                    l.........      
```

#### Opcodes

```
  0: 0x0030 [0x6C] FADE_ENTITY_COLOR(entity_id=EventEntity, end_alpha=0*, fade_time=1*)
  1: 0x0039 [0x00] END_REQSTACK()
```

### Event 65535.7

#### Metadata

| Field        | Value    |
|--------------|----------|
| Entrypoint   | 0x003A   |
| Data Size    | 10 bytes |
| Instructions | 2        |

```
      00 01 02 03 04 05 06 07  08 09 0A 0B 0C 0D 0E 0F
      -- -- -- -- -- -- -- --  -- -- -- -- -- -- -- --
0030:                                6C F8 FF FF 7F 02            l.....
0040: 80 01 80 00                                       ....            
```

#### Opcodes

```
  0: 0x003A [0x6C] FADE_ENTITY_COLOR(entity_id=EventEntity, end_alpha=128*, fade_time=1*)
  1: 0x0043 [0x00] END_REQSTACK()
```

### Event 65535.8

#### Metadata

| Field        | Value    |
|--------------|----------|
| Entrypoint   | 0x0044   |
| Data Size    | 23 bytes |
| Instructions | 3        |

```
      00 01 02 03 04 05 06 07  08 09 0A 0B 0C 0D 0E 0F
      -- -- -- -- -- -- -- --  -- -- -- -- -- -- -- --
0040:             61 00 B6 0B  03 80 04 80 05 80 05 80      a...........
0050: 00 80 06 80 06 80 00 80  00 80 00                 ...........     
```

#### Opcodes

```
  0: 0x0044 [0x61] EventEntity->Render.Flags2 &= ~0x00000001
  1: 0x0046 [0xB6] ENTITY_APPEARANCE_HANDLER(case=Full entity look, race=6*, hair=4*, head=139*, body=139*, hands=0*, legs=2*, feet=2*, main=0*, sub=0*)
  2: 0x005A [0x00] END_REQSTACK()
```

### Event 65535.9

#### Metadata

| Field        | Value    |
|--------------|----------|
| Entrypoint   | 0x005B   |
| Data Size    | 23 bytes |
| Instructions | 3        |

```
      00 01 02 03 04 05 06 07  08 09 0A 0B 0C 0D 0E 0F
      -- -- -- -- -- -- -- --  -- -- -- -- -- -- -- --
0050:                                   61 00 B6 0B 03             a....
0060: 80 04 80 05 80 05 80 00  80 06 80 06 80 07 80 00  ................
0070: 80 00                                             ..              
```

#### Opcodes

```
  0: 0x005B [0x61] EventEntity->Render.Flags2 &= ~0x00000001
  1: 0x005D [0xB6] ENTITY_APPEARANCE_HANDLER(case=Full entity look, race=6*, hair=4*, head=139*, body=139*, hands=0*, legs=2*, feet=2*, main=70*, sub=0*)
  2: 0x0071 [0x00] END_REQSTACK()
```

### Event 65535.10

#### Metadata

| Field        | Value    |
|--------------|----------|
| Entrypoint   | 0x0072   |
| Data Size    | 23 bytes |
| Instructions | 3        |

```
      00 01 02 03 04 05 06 07  08 09 0A 0B 0C 0D 0E 0F
      -- -- -- -- -- -- -- --  -- -- -- -- -- -- -- --
0070:       61 00 B6 0B 03 80  04 80 05 80 08 80 00 80    a.............
0080: 06 80 06 80 07 80 00 80  00                       .........       
```

#### Opcodes

```
  0: 0x0072 [0x61] EventEntity->Render.Flags2 &= ~0x00000001
  1: 0x0074 [0xB6] ENTITY_APPEARANCE_HANDLER(case=Full entity look, race=6*, hair=4*, head=139*, body=52*, hands=0*, legs=2*, feet=2*, main=70*, sub=0*)
  2: 0x0088 [0x00] END_REQSTACK()
```

### Event 65535.11

#### Metadata

| Field        | Value    |
|--------------|----------|
| Entrypoint   | 0x0089   |
| Data Size    | 23 bytes |
| Instructions | 3        |

```
      00 01 02 03 04 05 06 07  08 09 0A 0B 0C 0D 0E 0F
      -- -- -- -- -- -- -- --  -- -- -- -- -- -- -- --
0080:                             61 00 B6 0B 03 80 04           a......
0090: 80 00 80 08 80 00 80 06  80 06 80 07 80 00 80 00  ................
```

#### Opcodes

```
  0: 0x0089 [0x61] EventEntity->Render.Flags2 &= ~0x00000001
  1: 0x008B [0xB6] ENTITY_APPEARANCE_HANDLER(case=Full entity look, race=6*, hair=4*, head=0*, body=52*, hands=0*, legs=2*, feet=2*, main=70*, sub=0*)
  2: 0x009F [0x00] END_REQSTACK()
```

### Event 65535.12

#### Metadata

| Field        | Value    |
|--------------|----------|
| Entrypoint   | 0x00A0   |
| Data Size    | 14 bytes |
| Instructions | 4        |

```
      00 01 02 03 04 05 06 07  08 09 0A 0B 0C 0D 0E 0F
      -- -- -- -- -- -- -- --  -- -- -- -- -- -- -- --
00A0: 32 09 80 1F 00 0A 80 0B  80 0C 80 1F 01 00        2.............  
```

#### Opcodes

```
  0: 0x00A0 [0x32] ExtData[1]->MainSpeed = 13* * 0.1
  1: 0x00A3 [0x1F] MOVE_ENTITY: EventEntity moves to X=94.893*, Z=-78.247*, Y=-208.307*
  2: 0x00AB [0x1F] MOVE_ENTITY: Update entity position (mode=1)
  3: 0x00AD [0x00] END_REQSTACK()
```

### Event 65535.13

#### Metadata

| Field        | Value    |
|--------------|----------|
| Entrypoint   | 0x00AE   |
| Data Size    | 14 bytes |
| Instructions | 4        |

```
      00 01 02 03 04 05 06 07  08 09 0A 0B 0C 0D 0E 0F
      -- -- -- -- -- -- -- --  -- -- -- -- -- -- -- --
00A0:                                            32 0D                2.
00B0: 80 1F 00 0A 80 0B 80 0C  80 1F 01 00              ............    
```

#### Opcodes

```
  0: 0x00AE [0x32] ExtData[1]->MainSpeed = 12* * 0.1
  1: 0x00B1 [0x1F] MOVE_ENTITY: EventEntity moves to X=94.893*, Z=-78.247*, Y=-208.307*
  2: 0x00B9 [0x1F] MOVE_ENTITY: Update entity position (mode=1)
  3: 0x00BB [0x00] END_REQSTACK()
```

### Event 65535.14

#### Metadata

| Field        | Value    |
|--------------|----------|
| Entrypoint   | 0x00BC   |
| Data Size    | 14 bytes |
| Instructions | 4        |

```
      00 01 02 03 04 05 06 07  08 09 0A 0B 0C 0D 0E 0F
      -- -- -- -- -- -- -- --  -- -- -- -- -- -- -- --
00B0:                                      32 0E 80 1F              2...
00C0: 00 0A 80 0B 80 0C 80 1F  01 00                    ..........      
```

#### Opcodes

```
  0: 0x00BC [0x32] ExtData[1]->MainSpeed = 11* * 0.1
  1: 0x00BF [0x1F] MOVE_ENTITY: EventEntity moves to X=94.893*, Z=-78.247*, Y=-208.307*
  2: 0x00C7 [0x1F] MOVE_ENTITY: Update entity position (mode=1)
  3: 0x00C9 [0x00] END_REQSTACK()
```

### Event 65535.15

#### Metadata

| Field        | Value    |
|--------------|----------|
| Entrypoint   | 0x00CA   |
| Data Size    | 14 bytes |
| Instructions | 4        |

```
      00 01 02 03 04 05 06 07  08 09 0A 0B 0C 0D 0E 0F
      -- -- -- -- -- -- -- --  -- -- -- -- -- -- -- --
00C0:                                32 0F 80 1F 00 0A            2.....
00D0: 80 0B 80 0C 80 1F 01 00                           ........        
```

#### Opcodes

```
  0: 0x00CA [0x32] ExtData[1]->MainSpeed = 9* * 0.1
  1: 0x00CD [0x1F] MOVE_ENTITY: EventEntity moves to X=94.893*, Z=-78.247*, Y=-208.307*
  2: 0x00D5 [0x1F] MOVE_ENTITY: Update entity position (mode=1)
  3: 0x00D7 [0x00] END_REQSTACK()
```

### Event 109

#### Metadata

| Field        | Value   |
|--------------|---------|
| Entrypoint   | 0x00D8  |
| Data Size    | 1 bytes |
| Instructions | 1       |

```
      00 01 02 03 04 05 06 07  08 09 0A 0B 0C 0D 0E 0F
      -- -- -- -- -- -- -- --  -- -- -- -- -- -- -- --
00D0:                          00                               .       
```

#### Opcodes

```
  0: 0x00D8 [0x00] END_REQSTACK()
```

### Event 110

#### Metadata

| Field        | Value   |
|--------------|---------|
| Entrypoint   | 0x00D9  |
| Data Size    | 1 bytes |
| Instructions | 1       |

```
      00 01 02 03 04 05 06 07  08 09 0A 0B 0C 0D 0E 0F
      -- -- -- -- -- -- -- --  -- -- -- -- -- -- -- --
00D0:                             00                             .      
```

#### Opcodes

```
  0: 0x00D9 [0x00] END_REQSTACK()
```

### Event 111

#### Metadata

| Field        | Value   |
|--------------|---------|
| Entrypoint   | 0x00DA  |
| Data Size    | 1 bytes |
| Instructions | 1       |

```
      00 01 02 03 04 05 06 07  08 09 0A 0B 0C 0D 0E 0F
      -- -- -- -- -- -- -- --  -- -- -- -- -- -- -- --
00D0:                                00                           .     
```

#### Opcodes

```
  0: 0x00DA [0x00] END_REQSTACK()
```

### Event 112

#### Metadata

| Field        | Value   |
|--------------|---------|
| Entrypoint   | 0x00DB  |
| Data Size    | 1 bytes |
| Instructions | 1       |

```
      00 01 02 03 04 05 06 07  08 09 0A 0B 0C 0D 0E 0F
      -- -- -- -- -- -- -- --  -- -- -- -- -- -- -- --
00D0:                                   00                         .    
```

#### Opcodes

```
  0: 0x00DB [0x00] END_REQSTACK()
```

### Event 113

#### Metadata

| Field        | Value   |
|--------------|---------|
| Entrypoint   | 0x00DC  |
| Data Size    | 1 bytes |
| Instructions | 1       |

```
      00 01 02 03 04 05 06 07  08 09 0A 0B 0C 0D 0E 0F
      -- -- -- -- -- -- -- --  -- -- -- -- -- -- -- --
00D0:                                      00                       .   
```

#### Opcodes

```
  0: 0x00DC [0x00] END_REQSTACK()
```

### Event 114

#### Metadata

| Field        | Value   |
|--------------|---------|
| Entrypoint   | 0x00DD  |
| Data Size    | 1 bytes |
| Instructions | 1       |

```
      00 01 02 03 04 05 06 07  08 09 0A 0B 0C 0D 0E 0F
      -- -- -- -- -- -- -- --  -- -- -- -- -- -- -- --
00D0:                                         00                     .  
```

#### Opcodes

```
  0: 0x00DD [0x00] END_REQSTACK()
```

### Event 115

#### Metadata

| Field        | Value   |
|--------------|---------|
| Entrypoint   | 0x00DE  |
| Data Size    | 1 bytes |
| Instructions | 1       |

```
      00 01 02 03 04 05 06 07  08 09 0A 0B 0C 0D 0E 0F
      -- -- -- -- -- -- -- --  -- -- -- -- -- -- -- --
00D0:                                            00                   . 
```

#### Opcodes

```
  0: 0x00DE [0x00] END_REQSTACK()
```

### Event 116

#### Metadata

| Field        | Value   |
|--------------|---------|
| Entrypoint   | 0x00DF  |
| Data Size    | 1 bytes |
| Instructions | 1       |

```
      00 01 02 03 04 05 06 07  08 09 0A 0B 0C 0D 0E 0F
      -- -- -- -- -- -- -- --  -- -- -- -- -- -- -- --
00D0:                                               00                 .
```

#### Opcodes

```
  0: 0x00DF [0x00] END_REQSTACK()
```

### Event 117

#### Metadata

| Field        | Value   |
|--------------|---------|
| Entrypoint   | 0x00E0  |
| Data Size    | 1 bytes |
| Instructions | 1       |

```
      00 01 02 03 04 05 06 07  08 09 0A 0B 0C 0D 0E 0F
      -- -- -- -- -- -- -- --  -- -- -- -- -- -- -- --
00E0: 00                                                .               
```

#### Opcodes

```
  0: 0x00E0 [0x00] END_REQSTACK()
```

### Event 118

#### Metadata

| Field        | Value   |
|--------------|---------|
| Entrypoint   | 0x00E1  |
| Data Size    | 1 bytes |
| Instructions | 1       |

```
      00 01 02 03 04 05 06 07  08 09 0A 0B 0C 0D 0E 0F
      -- -- -- -- -- -- -- --  -- -- -- -- -- -- -- --
00E0:    00                                              .              
```

#### Opcodes

```
  0: 0x00E1 [0x00] END_REQSTACK()
```

### Event 128

#### Metadata

| Field        | Value   |
|--------------|---------|
| Entrypoint   | 0x00E2  |
| Data Size    | 1 bytes |
| Instructions | 1       |

```
      00 01 02 03 04 05 06 07  08 09 0A 0B 0C 0D 0E 0F
      -- -- -- -- -- -- -- --  -- -- -- -- -- -- -- --
00E0:       00                                            .             
```

#### Opcodes

```
  0: 0x00E2 [0x00] END_REQSTACK()
```

### Event 5104

#### Metadata

| Field        | Value   |
|--------------|---------|
| Entrypoint   | 0x00E3  |
| Data Size    | 1 bytes |
| Instructions | 1       |

```
      00 01 02 03 04 05 06 07  08 09 0A 0B 0C 0D 0E 0F
      -- -- -- -- -- -- -- --  -- -- -- -- -- -- -- --
00E0:          00                                          .            
```

#### Opcodes

```
  0: 0x00E3 [0x00] END_REQSTACK()
```

### Event 5105

#### Metadata

| Field        | Value   |
|--------------|---------|
| Entrypoint   | 0x00E4  |
| Data Size    | 1 bytes |
| Instructions | 1       |

```
      00 01 02 03 04 05 06 07  08 09 0A 0B 0C 0D 0E 0F
      -- -- -- -- -- -- -- --  -- -- -- -- -- -- -- --
00E0:             00                                        .           
```

#### Opcodes

```
  0: 0x00E4 [0x00] END_REQSTACK()
```

### Event 5109

#### Metadata

| Field        | Value   |
|--------------|---------|
| Entrypoint   | 0x00E5  |
| Data Size    | 1 bytes |
| Instructions | 1       |

```
      00 01 02 03 04 05 06 07  08 09 0A 0B 0C 0D 0E 0F
      -- -- -- -- -- -- -- --  -- -- -- -- -- -- -- --
00E0:                00                                      .          
```

#### Opcodes

```
  0: 0x00E5 [0x00] END_REQSTACK()
```

### Event 5106

#### Metadata

| Field        | Value   |
|--------------|---------|
| Entrypoint   | 0x00E6  |
| Data Size    | 1 bytes |
| Instructions | 1       |

```
      00 01 02 03 04 05 06 07  08 09 0A 0B 0C 0D 0E 0F
      -- -- -- -- -- -- -- --  -- -- -- -- -- -- -- --
00E0:                   00                                    .         
```

#### Opcodes

```
  0: 0x00E6 [0x00] END_REQSTACK()
```

### Event 5098

#### Metadata

| Field        | Value   |
|--------------|---------|
| Entrypoint   | 0x00E7  |
| Data Size    | 1 bytes |
| Instructions | 1       |

```
      00 01 02 03 04 05 06 07  08 09 0A 0B 0C 0D 0E 0F
      -- -- -- -- -- -- -- --  -- -- -- -- -- -- -- --
00E0:                      00                                  .        
```

#### Opcodes

```
  0: 0x00E7 [0x00] END_REQSTACK()
```

### Event 5099

#### Metadata

| Field        | Value   |
|--------------|---------|
| Entrypoint   | 0x00E8  |
| Data Size    | 1 bytes |
| Instructions | 1       |

```
      00 01 02 03 04 05 06 07  08 09 0A 0B 0C 0D 0E 0F
      -- -- -- -- -- -- -- --  -- -- -- -- -- -- -- --
00E0:                          00                               .       
```

#### Opcodes

```
  0: 0x00E8 [0x00] END_REQSTACK()
```

### Event 209

#### Metadata

| Field        | Value   |
|--------------|---------|
| Entrypoint   | 0x00E9  |
| Data Size    | 1 bytes |
| Instructions | 1       |

```
      00 01 02 03 04 05 06 07  08 09 0A 0B 0C 0D 0E 0F
      -- -- -- -- -- -- -- --  -- -- -- -- -- -- -- --
00E0:                             00                             .      
```

#### Opcodes

```
  0: 0x00E9 [0x00] END_REQSTACK()
```

### Event 211

#### Metadata

| Field        | Value   |
|--------------|---------|
| Entrypoint   | 0x00EA  |
| Data Size    | 1 bytes |
| Instructions | 1       |

```
      00 01 02 03 04 05 06 07  08 09 0A 0B 0C 0D 0E 0F
      -- -- -- -- -- -- -- --  -- -- -- -- -- -- -- --
00E0:                                00                           .     
```

#### Opcodes

```
  0: 0x00EA [0x00] END_REQSTACK()
```

### Event 65535.16

#### Metadata

| Field        | Value    |
|--------------|----------|
| Entrypoint   | 0x00EB   |
| Data Size    | 45 bytes |
| Instructions | 4        |

```
      00 01 02 03 04 05 06 07  08 09 0A 0B 0C 0D 0E 0F
      -- -- -- -- -- -- -- --  -- -- -- -- -- -- -- --
00E0:                                   B6 0B 10 80 10             .....
00F0: 80 11 80 12 80 00 80 06  80 06 80 13 80 00 80 B4  ................
0100: 00 00 00 3F 3F 3F 00 00  00 00 00 00 00 00 00 00  ...???..........
0110: 00 00 00 B5 00 00 00 00                           ........        
```

#### Opcodes

```
  0: 0x00EB [0xB6] ENTITY_APPEARANCE_HANDLER(case=Full entity look, race=5*, hair=5*, head=138*, body=145*, hands=0*, legs=2*, feet=2*, main=115*, sub=0*)
  1: 0x00FF [0xB4] UI_WINDOW_STRING_HANDLER(case=0x00 - Copy string from opcode, work_offset=ExtData[1]->WorkLocal[0], string="???")
  2: 0x0113 [0xB5] SET_EVENT_ENTITY_NAME: Change EventEntity name to ExtData[1]->WorkLocal[0]
  3: 0x0117 [0x00] END_REQSTACK()
```

### Event 65535.17

#### Metadata

| Field        | Value    |
|--------------|----------|
| Entrypoint   | 0x0118   |
| Data Size    | 25 bytes |
| Instructions | 3        |

```
      00 01 02 03 04 05 06 07  08 09 0A 0B 0C 0D 0E 0F
      -- -- -- -- -- -- -- --  -- -- -- -- -- -- -- --
0110:                          B4 00 00 00 59 65 73 74          ....Yest
0120: 69 6E 2D 4F 76 65 73 74  69 6E 00 00 B5 00 00 00  in-Ovestin......
0130: 00                                                .               
```

#### Opcodes

```
  0: 0x0118 [0xB4] UI_WINDOW_STRING_HANDLER(case=0x00 - Copy string from opcode, work_offset=ExtData[1]->WorkLocal[0], string="Yestin-Ovestin")
  1: 0x012C [0xB5] SET_EVENT_ENTITY_NAME: Change EventEntity name to ExtData[1]->WorkLocal[0]
  2: 0x0130 [0x00] END_REQSTACK()
```

### Event 65535.18

#### Metadata

| Field        | Value    |
|--------------|----------|
| Entrypoint   | 0x0131   |
| Data Size    | 45 bytes |
| Instructions | 4        |

```
      00 01 02 03 04 05 06 07  08 09 0A 0B 0C 0D 0E 0F
      -- -- -- -- -- -- -- --  -- -- -- -- -- -- -- --
0130:    B6 0B 10 80 10 80 11  80 12 80 00 80 06 80 06   ...............
0140: 80 13 80 00 80 B4 00 00  00 59 65 73 74 69 6E 2D  .........Yestin-
0150: 4F 76 65 73 74 69 6E 00  00 B5 00 00 00 00        Ovestin.......  
```

#### Opcodes

```
  0: 0x0131 [0xB6] ENTITY_APPEARANCE_HANDLER(case=Full entity look, race=5*, hair=5*, head=138*, body=145*, hands=0*, legs=2*, feet=2*, main=115*, sub=0*)
  1: 0x0145 [0xB4] UI_WINDOW_STRING_HANDLER(case=0x00 - Copy string from opcode, work_offset=ExtData[1]->WorkLocal[0], string="Yestin-Ovestin")
  2: 0x0159 [0xB5] SET_EVENT_ENTITY_NAME: Change EventEntity name to ExtData[1]->WorkLocal[0]
  3: 0x015D [0x00] END_REQSTACK()
```

### Event 65535.19

#### Metadata

| Field        | Value    |
|--------------|----------|
| Entrypoint   | 0x015E   |
| Data Size    | 14 bytes |
| Instructions | 4        |

```
      00 01 02 03 04 05 06 07  08 09 0A 0B 0C 0D 0E 0F
      -- -- -- -- -- -- -- --  -- -- -- -- -- -- -- --
0150:                                            32 09                2.
0160: 80 1F 00 14 80 15 80 16  80 1F 01 00              ............    
```

#### Opcodes

```
  0: 0x015E [0x32] ExtData[1]->MainSpeed = 13* * 0.1
  1: 0x0161 [0x1F] MOVE_ENTITY: EventEntity moves to X=51.806*, Z=162.364*, Y=27.999*
  2: 0x0169 [0x1F] MOVE_ENTITY: Update entity position (mode=1)
  3: 0x016B [0x00] END_REQSTACK()
```

### Event 65535.20

#### Metadata

| Field        | Value    |
|--------------|----------|
| Entrypoint   | 0x016C   |
| Data Size    | 14 bytes |
| Instructions | 4        |

```
      00 01 02 03 04 05 06 07  08 09 0A 0B 0C 0D 0E 0F
      -- -- -- -- -- -- -- --  -- -- -- -- -- -- -- --
0160:                                      32 10 80 1F              2...
0170: 00 14 80 15 80 16 80 1F  01 00                    ..........      
```

#### Opcodes

```
  0: 0x016C [0x32] ExtData[1]->MainSpeed = 5* * 0.1
  1: 0x016F [0x1F] MOVE_ENTITY: EventEntity moves to X=51.806*, Z=162.364*, Y=27.999*
  2: 0x0177 [0x1F] MOVE_ENTITY: Update entity position (mode=1)
  3: 0x0179 [0x00] END_REQSTACK()
```

### Event 65535.21

#### Metadata

| Field        | Value    |
|--------------|----------|
| Entrypoint   | 0x017A   |
| Data Size    | 14 bytes |
| Instructions | 4        |

```
      00 01 02 03 04 05 06 07  08 09 0A 0B 0C 0D 0E 0F
      -- -- -- -- -- -- -- --  -- -- -- -- -- -- -- --
0170:                                32 09 80 1F 00 17            2.....
0180: 80 18 80 16 80 1F 01 00                           ........        
```

#### Opcodes

```
  0: 0x017A [0x32] ExtData[1]->MainSpeed = 13* * 0.1
  1: 0x017D [0x1F] MOVE_ENTITY: EventEntity moves to X=55.207*, Z=166.302*, Y=27.999*
  2: 0x0185 [0x1F] MOVE_ENTITY: Update entity position (mode=1)
  3: 0x0187 [0x00] END_REQSTACK()
```

### Event 65535.22

#### Metadata

| Field        | Value    |
|--------------|----------|
| Entrypoint   | 0x0188   |
| Data Size    | 24 bytes |
| Instructions | 6        |

```
      00 01 02 03 04 05 06 07  08 09 0A 0B 0C 0D 0E 0F
      -- -- -- -- -- -- -- --  -- -- -- -- -- -- -- --
0180:                          32 19 80 1F 00 17 80 18          2.......
0190: 80 16 80 1F 01 1F 00 1A  80 1B 80 16 80 1F 01 00  ................
```

#### Opcodes

```
  0: 0x0188 [0x32] ExtData[1]->MainSpeed = 40* * 0.1
  1: 0x018B [0x1F] MOVE_ENTITY: EventEntity moves to X=55.207*, Z=166.302*, Y=27.999*
  2: 0x0193 [0x1F] MOVE_ENTITY: Update entity position (mode=1)
  3: 0x0195 [0x1F] MOVE_ENTITY: EventEntity moves to X=57.877*, Z=172.237*, Y=27.999*
  4: 0x019D [0x1F] MOVE_ENTITY: Update entity position (mode=1)
  5: 0x019F [0x00] END_REQSTACK()
```

### Event 65535.23

#### Metadata

| Field        | Value    |
|--------------|----------|
| Entrypoint   | 0x01A0   |
| Data Size    | 34 bytes |
| Instructions | 8        |

```
      00 01 02 03 04 05 06 07  08 09 0A 0B 0C 0D 0E 0F
      -- -- -- -- -- -- -- --  -- -- -- -- -- -- -- --
01A0: 32 09 80 1F 00 1C 80 1D  80 1E 80 1F 01 1F 00 1F  2...............
01B0: 80 20 80 1E 80 1F 01 1F  00 21 80 22 80 23 80 1F  . .......!.".#..
01C0: 01 00                                             ..              
```

#### Opcodes

```
  0: 0x01A0 [0x32] ExtData[1]->MainSpeed = 13* * 0.1
  1: 0x01A3 [0x1F] MOVE_ENTITY: EventEntity moves to X=104.272*, Z=-77.935*, Y=-0.650*
  2: 0x01AB [0x1F] MOVE_ENTITY: Update entity position (mode=1)
  3: 0x01AD [0x1F] MOVE_ENTITY: EventEntity moves to X=103.855*, Z=-74.879*, Y=-0.650*
  4: 0x01B5 [0x1F] MOVE_ENTITY: Update entity position (mode=1)
  5: 0x01B7 [0x1F] MOVE_ENTITY: EventEntity moves to X=88.101*, Z=-59.709*, Y=-0.148*
  6: 0x01BF [0x1F] MOVE_ENTITY: Update entity position (mode=1)
  7: 0x01C1 [0x00] END_REQSTACK()
```

### Event 65535.24

#### Metadata

| Field        | Value    |
|--------------|----------|
| Entrypoint   | 0x01C2   |
| Data Size    | 53 bytes |
| Instructions | 6        |

```
      00 01 02 03 04 05 06 07  08 09 0A 0B 0C 0D 0E 0F
      -- -- -- -- -- -- -- --  -- -- -- -- -- -- -- --
01C0:       B6 0B 10 80 0E 80  01 80 01 80 01 80 01 80    ..............
01D0: 01 80 00 80 00 80 B4 00  00 00 00 00 00 00 00 00  ................
01E0: 00 00 00 00 00 00 00 00  00 00 B5 00 00 00 22 01  ..............".
01F0: 2F 01 F8 FF FF 7F 00                              /......         
```

#### Opcodes

```
  0: 0x01C2 [0xB6] ENTITY_APPEARANCE_HANDLER(case=Full entity look, race=5*, hair=11*, head=1*, body=1*, hands=1*, legs=1*, feet=1*, main=0*, sub=0*)
  1: 0x01D6 [0xB4] UI_WINDOW_STRING_HANDLER(case=0x00 - Copy string from opcode, work_offset=ExtData[1]->WorkLocal[0], string="")
  2: 0x01EA [0xB5] SET_EVENT_ENTITY_NAME: Change EventEntity name to ExtData[1]->WorkLocal[0]
  3: 0x01EE [0x22] ENTITY_HIDE_FLAG(enabled=0x01)
  4: 0x01F0 [0x2F] EventEntity->Render.Flags0 |= 0x80000 // Bit 19
  5: 0x01F6 [0x00] END_REQSTACK()
```

### Event 5200

#### Metadata

| Field        | Value   |
|--------------|---------|
| Entrypoint   | 0x01F7  |
| Data Size    | 7 bytes |
| Instructions | 2       |

```
      00 01 02 03 04 05 06 07  08 09 0A 0B 0C 0D 0E 0F
      -- -- -- -- -- -- -- --  -- -- -- -- -- -- -- --
01F0:                      92  01 F8 FF FF 7F 00               .......  
```

#### Opcodes

```
  0: 0x01F7 [0x92] EventEntity->Render.Flags3 ^= 0x01
  1: 0x01FD [0x00] END_REQSTACK()
```

### Event 65535.25

#### Metadata

| Field        | Value    |
|--------------|----------|
| Entrypoint   | 0x01FE   |
| Data Size    | 53 bytes |
| Instructions | 6        |

```
      00 01 02 03 04 05 06 07  08 09 0A 0B 0C 0D 0E 0F
      -- -- -- -- -- -- -- --  -- -- -- -- -- -- -- --
01F0:                                            22 00                ".
0200: 2F 00 F8 FF FF 7F B6 0B  10 80 10 80 11 80 12 80  /...............
0210: 00 80 06 80 06 80 13 80  00 80 B4 00 00 00 00 00  ................
0220: 00 00 00 00 00 00 00 00  00 00 00 00 00 00 B5 00  ................
0230: 00 00 00                                          ...             
```

#### Opcodes

```
  0: 0x01FE [0x22] ENTITY_HIDE_FLAG(enabled=0x00)
  1: 0x0200 [0x2F] EventEntity->Render.Flags0 &= ~0x80000 // Bit 19
  2: 0x0206 [0xB6] ENTITY_APPEARANCE_HANDLER(case=Full entity look, race=5*, hair=5*, head=138*, body=145*, hands=0*, legs=2*, feet=2*, main=115*, sub=0*)
  3: 0x021A [0xB4] UI_WINDOW_STRING_HANDLER(case=0x00 - Copy string from opcode, work_offset=ExtData[1]->WorkLocal[0], string="")
  4: 0x022E [0xB5] SET_EVENT_ENTITY_NAME: Change EventEntity name to ExtData[1]->WorkLocal[0]
  5: 0x0232 [0x00] END_REQSTACK()
```

### Event 65535.26

#### Metadata

| Field        | Value    |
|--------------|----------|
| Entrypoint   | 0x0233   |
| Data Size    | 34 bytes |
| Instructions | 8        |

```
      00 01 02 03 04 05 06 07  08 09 0A 0B 0C 0D 0E 0F
      -- -- -- -- -- -- -- --  -- -- -- -- -- -- -- --
0230:          32 09 80 1F 00  24 80 25 80 23 80 1F 01     2....$.%.#...
0240: 1F 00 26 80 27 80 23 80  1F 01 1F 00 28 80 29 80  ..&.'.#.....(.).
0250: 2A 80 1F 01 00                                    *....           
```

#### Opcodes

```
  0: 0x0233 [0x32] ExtData[1]->MainSpeed = 13* * 0.1
  1: 0x0236 [0x1F] MOVE_ENTITY: EventEntity moves to X=82.841*, Z=-57.180*, Y=-0.148*
  2: 0x023E [0x1F] MOVE_ENTITY: Update entity position (mode=1)
  3: 0x0240 [0x1F] MOVE_ENTITY: EventEntity moves to X=89.006*, Z=-59.027*, Y=-0.148*
  4: 0x0248 [0x1F] MOVE_ENTITY: Update entity position (mode=1)
  5: 0x024A [0x1F] MOVE_ENTITY: EventEntity moves to X=99.439*, Z=-68.244*, Y=-0.649*
  6: 0x0252 [0x1F] MOVE_ENTITY: Update entity position (mode=1)
  7: 0x0254 [0x00] END_REQSTACK()
```
