# 17825997 - Ilney

## Common Data

| Field            | Value                     |
|------------------|---------------------------|
| Zone             | Western Adoulin (ID: 256) |
| Block Size       | 348 bytes                 |
| Total Events     | 9                         |
| References Count | 24                        |

## List of Events

| Event ID                 | Entrypoint   |   Size |   Instructions |
|--------------------------|--------------|--------|----------------|
| [65535](#event-65535)    | 0x0000       |      1 |              1 |
| [5034](#event-5034)      | 0x0001       |      7 |              2 |
| [181](#event-181)        | 0x0008       |      1 |              1 |
| [65535.1](#event-655351) | 0x0009       |     21 |              2 |
| [65535.2](#event-655352) | 0x001E       |     34 |              8 |
| [65535.3](#event-655353) | 0x0040       |     21 |              2 |
| [190](#event-190)        | 0x0055       |     45 |              4 |
| [65535.4](#event-655354) | 0x0082       |     45 |              4 |
| [65535.5](#event-655355) | 0x00AF       |     25 |              3 |

## DAT References (imed_data)

|   Index | Hex Value   |   Dec Value |
|---------|-------------|-------------|
|       0 | 0x0004      |           4 |
|       1 | 0x0001      |           1 |
|       2 | 0x0014      |          20 |
|       3 | 0x008F      |         143 |
|       4 | 0x0017      |          23 |
|       5 | 0x0000      |           0 |
|       6 | 0x000D      |          13 |
|       7 | 0xFFFD95E5  |  4294809061 |
|       8 | 0xFFFF9692  |  4294940306 |
|       9 | 0x0A8B      |        2699 |
|      10 | 0xFFFD8457  |  4294804567 |
|      11 | 0xFFFF968C  |  4294940300 |
|      12 | 0xFFFD735F  |  4294800223 |
|      13 | 0xFFFF9663  |  4294940259 |
|      14 | 0x0DFC      |        3580 |
|      15 | 0x0085      |         133 |
|      16 | 0x0018      |          24 |
|      17 | 0x0003      |           3 |
|      18 | 0x0007      |           7 |
|      19 | 0x000C      |          12 |
|      20 | 0x0105      |         261 |
|      21 | 0x00BA      |         186 |
|      22 | 0x000F      |          15 |
|      23 | 0x00AF      |         175 |

## Events

### Event 65535

#### Metadata

| Field        | Value   |
|--------------|---------|
| Entrypoint   | 0x0000  |
| Data Size    | 1 bytes |
| Instructions | 1       |

```
      00 01 02 03 04 05 06 07  08 09 0A 0B 0C 0D 0E 0F
      -- -- -- -- -- -- -- --  -- -- -- -- -- -- -- --
0000: 00                                                .               
```

#### Opcodes

```
  0: 0x0000 [0x00] END_REQSTACK()
```

### Event 5034

#### Metadata

| Field        | Value   |
|--------------|---------|
| Entrypoint   | 0x0001  |
| Data Size    | 7 bytes |
| Instructions | 2       |

```
      00 01 02 03 04 05 06 07  08 09 0A 0B 0C 0D 0E 0F
      -- -- -- -- -- -- -- --  -- -- -- -- -- -- -- --
0000:    92 01 F8 FF FF 7F 00                            .......        
```

#### Opcodes

```
  0: 0x0001 [0x92] EventEntity->Render.Flags3 ^= 0x01
  1: 0x0007 [0x00] END_REQSTACK()
```

### Event 181

#### Metadata

| Field        | Value   |
|--------------|---------|
| Entrypoint   | 0x0008  |
| Data Size    | 1 bytes |
| Instructions | 1       |

```
      00 01 02 03 04 05 06 07  08 09 0A 0B 0C 0D 0E 0F
      -- -- -- -- -- -- -- --  -- -- -- -- -- -- -- --
0000:                          00                               .       
```

#### Opcodes

```
  0: 0x0008 [0x00] END_REQSTACK()
```

### Event 65535.1

#### Metadata

| Field        | Value    |
|--------------|----------|
| Entrypoint   | 0x0009   |
| Data Size    | 21 bytes |
| Instructions | 2        |

```
      00 01 02 03 04 05 06 07  08 09 0A 0B 0C 0D 0E 0F
      -- -- -- -- -- -- -- --  -- -- -- -- -- -- -- --
0000:                             B6 0B 00 80 01 80 02           .......
0010: 80 03 80 04 80 03 80 03  80 05 80 05 80 00        ..............  
```

#### Opcodes

```
  0: 0x0009 [0xB6] ENTITY_APPEARANCE_HANDLER(case=Full entity look, race=4*, hair=1*, head=20*, body=143*, hands=23*, legs=143*, feet=143*, main=0*, sub=0*)
  1: 0x001D [0x00] END_REQSTACK()
```

### Event 65535.2

#### Metadata

| Field        | Value    |
|--------------|----------|
| Entrypoint   | 0x001E   |
| Data Size    | 34 bytes |
| Instructions | 8        |

```
      00 01 02 03 04 05 06 07  08 09 0A 0B 0C 0D 0E 0F
      -- -- -- -- -- -- -- --  -- -- -- -- -- -- -- --
0010:                                            32 06                2.
0020: 80 1F 00 07 80 08 80 09  80 1F 01 1F 00 0A 80 0B  ................
0030: 80 09 80 1F 01 1F 00 0C  80 0D 80 0E 80 1F 01 00  ................
```

#### Opcodes

```
  0: 0x001E [0x32] ExtData[1]->MainSpeed = 13* * 0.1
  1: 0x0021 [0x1F] MOVE_ENTITY: EventEntity moves to X=-158.235*, Z=-26.990*, Y=2.699*
  2: 0x0029 [0x1F] MOVE_ENTITY: Update entity position (mode=1)
  3: 0x002B [0x1F] MOVE_ENTITY: EventEntity moves to X=-162.729*, Z=-26.996*, Y=2.699*
  4: 0x0033 [0x1F] MOVE_ENTITY: Update entity position (mode=1)
  5: 0x0035 [0x1F] MOVE_ENTITY: EventEntity moves to X=-167.073*, Z=-27.037*, Y=3.580*
  6: 0x003D [0x1F] MOVE_ENTITY: Update entity position (mode=1)
  7: 0x003F [0x00] END_REQSTACK()
```

### Event 65535.3

#### Metadata

| Field        | Value    |
|--------------|----------|
| Entrypoint   | 0x0040   |
| Data Size    | 21 bytes |
| Instructions | 2        |

```
      00 01 02 03 04 05 06 07  08 09 0A 0B 0C 0D 0E 0F
      -- -- -- -- -- -- -- --  -- -- -- -- -- -- -- --
0040: B6 0B 01 80 00 80 05 80  0F 80 05 80 10 80 02 80  ................
0050: 05 80 05 80 00                                    .....           
```

#### Opcodes

```
  0: 0x0040 [0xB6] ENTITY_APPEARANCE_HANDLER(case=Full entity look, race=1*, hair=4*, head=0*, body=133*, hands=0*, legs=24*, feet=20*, main=0*, sub=0*)
  1: 0x0054 [0x00] END_REQSTACK()
```

### Event 190

#### Metadata

| Field        | Value    |
|--------------|----------|
| Entrypoint   | 0x0055   |
| Data Size    | 45 bytes |
| Instructions | 4        |

```
      00 01 02 03 04 05 06 07  08 09 0A 0B 0C 0D 0E 0F
      -- -- -- -- -- -- -- --  -- -- -- -- -- -- -- --
0050:                B4 00 00  00 41 64 72 61 73 74 69       ....Adrasti
0060: 65 6E 00 00 00 00 00 00  00 B5 00 00 00 B6 0B 11  en..............
0070: 80 01 80 05 80 0F 80 05  80 10 80 02 80 05 80 05  ................
0080: 80 00                                             ..              
```

#### Opcodes

```
  0: 0x0055 [0xB4] UI_WINDOW_STRING_HANDLER(case=0x00 - Copy string from opcode, work_offset=ExtData[1]->WorkLocal[0], string="Adrastien")
  1: 0x0069 [0xB5] SET_EVENT_ENTITY_NAME: Change EventEntity name to ExtData[1]->WorkLocal[0]
  2: 0x006D [0xB6] ENTITY_APPEARANCE_HANDLER(case=Full entity look, race=3*, hair=1*, head=0*, body=133*, hands=0*, legs=24*, feet=20*, main=0*, sub=0*)
  3: 0x0081 [0x00] END_REQSTACK()
```

### Event 65535.4

#### Metadata

| Field        | Value    |
|--------------|----------|
| Entrypoint   | 0x0082   |
| Data Size    | 45 bytes |
| Instructions | 4        |

```
      00 01 02 03 04 05 06 07  08 09 0A 0B 0C 0D 0E 0F
      -- -- -- -- -- -- -- --  -- -- -- -- -- -- -- --
0080:       B4 13 00 00 53 6F  72 61 61 40 49 73 68 61    ....Soraa@Isha
0090: 6B 61 6C 00 00 00 B5 00  00 00 B6 0B 12 80 13 80  kal.............
00A0: 14 80 15 80 05 80 16 80  17 80 05 80 05 80 00     ............... 
```

#### Opcodes

```
  0: 0x0082 [0xB4] UI_WINDOW_STRING_HANDLER(case=0x13 - Copy string and replace @ with space, work_offset=ExtData[1]->WorkLocal[0], string="Soraa@Ishakal")
  1: 0x0096 [0xB5] SET_EVENT_ENTITY_NAME: Change EventEntity name to ExtData[1]->WorkLocal[0]
  2: 0x009A [0xB6] ENTITY_APPEARANCE_HANDLER(case=Full entity look, race=7*, hair=12*, head=261*, body=186*, hands=0*, legs=15*, feet=175*, main=0*, sub=0*)
  3: 0x00AE [0x00] END_REQSTACK()
```

### Event 65535.5

#### Metadata

| Field        | Value    |
|--------------|----------|
| Entrypoint   | 0x00AF   |
| Data Size    | 25 bytes |
| Instructions | 3        |

```
      00 01 02 03 04 05 06 07  08 09 0A 0B 0C 0D 0E 0F
      -- -- -- -- -- -- -- --  -- -- -- -- -- -- -- --
00A0:                                               B4                 .
00B0: 00 00 00 49 6C 6E 65 79  00 00 00 00 00 00 00 00  ...Ilney........
00C0: 00 00 00 B5 00 00 00 00                           ........        
```

#### Opcodes

```
  0: 0x00AF [0xB4] UI_WINDOW_STRING_HANDLER(case=0x00 - Copy string from opcode, work_offset=ExtData[1]->WorkLocal[0], string="Ilney")
  1: 0x00C3 [0xB5] SET_EVENT_ENTITY_NAME: Change EventEntity name to ExtData[1]->WorkLocal[0]
  2: 0x00C7 [0x00] END_REQSTACK()
```
