# 17826103 - Wescolina

## Common Data

| Field            | Value                     |
|------------------|---------------------------|
| Zone             | Western Adoulin (ID: 256) |
| Block Size       | 5356 bytes                |
| Total Events     | 66                        |
| References Count | 111                       |

## List of Events

| Event ID                   | Entrypoint   |   Size |   Instructions |
|----------------------------|--------------|--------|----------------|
| [65535](#event-65535)      | 0x0000       |      1 |              1 |
| [65535.1](#event-655351)   | 0x0001       |     16 |              2 |
| [65535.2](#event-655352)   | 0x0011       |     14 |              2 |
| [65535.3](#event-655353)   | 0x001F       |     16 |              2 |
| [65535.4](#event-655354)   | 0x002F       |     14 |              2 |
| [65535.5](#event-655355)   | 0x003D       |     16 |              2 |
| [65535.6](#event-655356)   | 0x004D       |     14 |              2 |
| [65535.7](#event-655357)   | 0x005B       |     16 |              2 |
| [65535.8](#event-655358)   | 0x006B       |     14 |              2 |
| [65535.9](#event-655359)   | 0x0079       |     16 |              2 |
| [65535.10](#event-6553510) | 0x0089       |      4 |              2 |
| [65535.11](#event-6553511) | 0x008D       |     16 |              2 |
| [65535.12](#event-6553512) | 0x009D       |     14 |              2 |
| [65535.13](#event-6553513) | 0x00AB       |     16 |              2 |
| [65535.14](#event-6553514) | 0x00BB       |     14 |              2 |
| [65535.15](#event-6553515) | 0x00C9       |     16 |              2 |
| [65535.16](#event-6553516) | 0x00D9       |     14 |              2 |
| [65535.17](#event-6553517) | 0x00E7       |     16 |              2 |
| [65535.18](#event-6553518) | 0x00F7       |     14 |              2 |
| [65535.19](#event-6553519) | 0x0105       |     16 |              2 |
| [65535.20](#event-6553520) | 0x0115       |     14 |              2 |
| [65535.21](#event-6553521) | 0x0123       |     16 |              2 |
| [65535.22](#event-6553522) | 0x0133       |     14 |              2 |
| [65535.23](#event-6553523) | 0x0141       |     16 |              2 |
| [65535.24](#event-6553524) | 0x0151       |     14 |              2 |
| [65535.25](#event-6553525) | 0x015F       |     16 |              2 |
| [65535.26](#event-6553526) | 0x016F       |     14 |              2 |
| [65535.27](#event-6553527) | 0x017D       |     16 |              2 |
| [65535.28](#event-6553528) | 0x018D       |     14 |              2 |
| [101](#event-101)          | 0x019B       |     29 |             10 |
| [89](#event-89)            | 0x01B8       |      1 |              1 |
| [65535.29](#event-6553529) | 0x01B9       |     21 |              7 |
| [65535.30](#event-6553530) | 0x01CE       |     49 |              9 |
| [90](#event-90)            | 0x01FF       |    105 |             28 |
| [91](#event-91)            | 0x0268       |     52 |             17 |
| [92](#event-92)            | 0x029C       |    208 |             48 |
| [100](#event-100)          | 0x036C       |     29 |             10 |
| [93](#event-93)            | 0x0389       |      1 |              1 |
| [94](#event-94)            | 0x038A       |      1 |              1 |
| [95](#event-95)            | 0x038B       |      1 |              1 |
| [96](#event-96)            | 0x038C       |      1 |              1 |
| [97](#event-97)            | 0x038D       |      1 |              1 |
| [98](#event-98)            | 0x038E       |     29 |             10 |
| [199](#event-199)          | 0x03AB       |      1 |              1 |
| [200](#event-200)          | 0x03AC       |      1 |              1 |
| [202](#event-202)          | 0x03AD       |      1 |              1 |
| [5100](#event-5100)        | 0x03AE       |    842 |            179 |
| [5101](#event-5101)        | 0x06F8       |    888 |            176 |
| [5108](#event-5108)        | 0x0A70       |    996 |            197 |
| [5102](#event-5102)        | 0x0E54       |     29 |             10 |
| [5103](#event-5103)        | 0x0E71       |    442 |             91 |
| [5107](#event-5107)        | 0x102B       |     29 |             10 |
| [65535.31](#event-6553531) | 0x1048       |     33 |              3 |
| [65535.32](#event-6553532) | 0x1069       |     33 |              3 |
| [65535.33](#event-6553533) | 0x108A       |     33 |              3 |
| [65535.34](#event-6553534) | 0x10AB       |     33 |              3 |
| [65535.35](#event-6553535) | 0x10CC       |     33 |              3 |
| [65535.36](#event-6553536) | 0x10ED       |     33 |              3 |
| [65535.37](#event-6553537) | 0x110E       |     33 |              3 |
| [65535.38](#event-6553538) | 0x112F       |     33 |              3 |
| [65535.39](#event-6553539) | 0x1150       |     33 |              3 |
| [65535.40](#event-6553540) | 0x1171       |     33 |              3 |
| [65535.41](#event-6553541) | 0x1192       |     33 |              3 |
| [65535.42](#event-6553542) | 0x11B3       |     33 |              3 |
| [65535.43](#event-6553543) | 0x11D4       |     33 |              3 |
| [65535.44](#event-6553544) | 0x11F5       |     33 |              3 |

## DAT References (imed_data)

|   Index | Hex Value   |   Dec Value |
|---------|-------------|-------------|
|       0 | 0x0046      |          70 |
|       1 | 0x001E      |          30 |
|       2 | 0x0047      |          71 |
|       3 | 0x273D      |       10045 |
|       4 | 0x000D      |          13 |
|       5 | 0x6BC8      |       27592 |
|       6 | 0x8732      |       34610 |
|       7 | 0x0000      |           0 |
|       8 | 0x2755      |       10069 |
|       9 | 0x2756      |       10070 |
|      10 | 0x2757      |       10071 |
|      11 | 0x2758      |       10072 |
|      12 | 0x2759      |       10073 |
|      13 | 0x275A      |       10074 |
|      14 | 0x275B      |       10075 |
|      15 | 0x275C      |       10076 |
|      16 | 0x275D      |       10077 |
|      17 | 0x275E      |       10078 |
|      18 | 0x275F      |       10079 |
|      19 | 0x0001      |           1 |
|      20 | 0x2762      |       10082 |
|      21 | 0x2763      |       10083 |
|      22 | 0x2764      |       10084 |
|      23 | 0x2765      |       10085 |
|      24 | 0x0002      |           2 |
|      25 | 0x2761      |       10081 |
|      26 | 0x2760      |       10080 |
|      27 | 0x2766      |       10086 |
|      28 | 0x278B      |       10123 |
|      29 | 0x0003      |           3 |
|      30 | 0x0004      |           4 |
|      31 | 0x2CFA      |       11514 |
|      32 | 0x003C      |          60 |
|      33 | 0x2CFB      |       11515 |
|      34 | 0x2CFC      |       11516 |
|      35 | 0x09CF      |        2511 |
|      36 | 0x2CFD      |       11517 |
|      37 | 0x09D1      |        2513 |
|      38 | 0x2CFE      |       11518 |
|      39 | 0x2CFF      |       11519 |
|      40 | 0x2D00      |       11520 |
|      41 | 0x2D01      |       11521 |
|      42 | 0x6828      |       26664 |
|      43 | 0x68D8      |       26840 |
|      44 | 0x6988      |       27016 |
|      45 | 0x6A38      |       27192 |
|      46 | 0x6AE8      |       27368 |
|      47 | 0x2D02      |       11522 |
|      48 | 0x0005      |           5 |
|      49 | 0x2D07      |       11527 |
|      50 | 0x2D08      |       11528 |
|      51 | 0x2D09      |       11529 |
|      52 | 0x05B3      |        1459 |
|      53 | 0x0FBE      |        4030 |
|      54 | 0x2204      |        8708 |
|      55 | 0x1738      |        5944 |
|      56 | 0x17AE8     |       97000 |
|      57 | 0x07C9      |        1993 |
|      58 | 0x0FBC      |        4028 |
|      59 | 0x168F      |        5775 |
|      60 | 0x0FFF      |        4095 |
|      61 | 0x0FBB      |        4027 |
|      62 | 0x1735      |        5941 |
|      63 | 0x07CA      |        1994 |
|      64 | 0x1736      |        5942 |
|      65 | 0x0897      |        2199 |
|      66 | 0x1734      |        5940 |
|      67 | 0x2D03      |       11523 |
|      68 | 0x2D04      |       11524 |
|      69 | 0x2D05      |       11525 |
|      70 | 0x2D06      |       11526 |
|      71 | 0x2D0C      |       11532 |
|      72 | 0x2D0D      |       11533 |
|      73 | 0x0015      |          21 |
|      74 | 0x0016      |          22 |
|      75 | 0x0017      |          23 |
|      76 | 0x0018      |          24 |
|      77 | 0x0019      |          25 |
|      78 | 0x0006      |           6 |
|      79 | 0x000A      |          10 |
|      80 | 0x000E      |          14 |
|      81 | 0x0012      |          18 |
|      82 | 0x2D0F      |       11535 |
|      83 | 0x0008      |           8 |
|      84 | 0x000C      |          12 |
|      85 | 0x0010      |          16 |
|      86 | 0x0014      |          20 |
|      87 | 0x2D10      |       11536 |
|      88 | 0x2D0E      |       11534 |
|      89 | 0x2D0A      |       11530 |
|      90 | 0x2D0B      |       11531 |
|      91 | 0x0009      |           9 |
|      92 | 0x0011      |          17 |
|      93 | 0x0007      |           7 |
|      94 | 0x000B      |          11 |
|      95 | 0x000F      |          15 |
|      96 | 0x0013      |          19 |
|      97 | 0x0DAB      |        3499 |
|      98 | 0x2D11      |       11537 |
|      99 | 0x2D12      |       11538 |
|     100 | 0x2D14      |       11540 |
|     101 | 0x2D13      |       11539 |
|     102 | 0x0DAA      |        3498 |
|     103 | 0x0DA8      |        3496 |
|     104 | 0x2D15      |       11541 |
|     105 | 0x05A9      |        1449 |
|     106 | 0x2D16      |       11542 |
|     107 | 0x2D17      |       11543 |
|     108 | 0x00C9      |         201 |
|     109 | 0x2D18      |       11544 |
|     110 | 0x0064      |         100 |

## String References

- **10045**: Ah sweah by Altana hehself the ol' hubby o' mine nevah come outta his workshop fo' nothin'!
- **10069**: Peaches 'n cream, it's <Player>! Dun worry your pretty little head--Ah remembah your ordah of one $0.
- **10070**: And how's your hunting goin', pet? Ah need $1, $2, $3, and...what was it?
- **10071**: That's right, $4. Ah sweah, 'times Ah dun know wheah my head is at.
- **10072**: 'N on top o' all that, dun forget that Ah be needin' a small fee of $5 bayld to bring the chickens home to roost.
- **10073**: First, though, Ah need those four items.
- **10074**: We can discuss payment aftah that.
- **10075**: Well, Ah'll be swanned, <Player>! You brought me exactly what Ah need. Ready for me to make you your $0?
- **10076**: Let me just lay mah eyes on them... $1, $2, $3, 'n $4. Dun that just beat all!
- **10077**: Now we can talk about the sugah you owe me. Remember--Ah need $5 bayld. Speak to me again when you're reddah. (Bayld: $7.)
- **10078**: Come back with the right amount o' bayld, <Player>? It comes to $5.
- **10079**: Pay $5 bayld? (Bayld: $2) [Of course!/Let me think some more.]
- **10080**: Aftah all that time gatherin' materials, you're gon' back out on me now? Altana above, make up yo' min'!
- **10081**: Have you got cotton in your ears, <Player>? You dun have the $5 bayld Ah need!
- **10082**: Mercy! A sweet young [man/woman] who listens to [his/her] eldahs is such a treat in these troublin' times.
- **10083**: Ready to start, <Player>?
- **10084**: 'Course, Ah'm not th' one doing th' work. That be up to my husband. 'Times he be workin' real hard, other times he's as useless as tits on a bull. Hopefully he comes up aces this time.
- **10085**: Ah'll give you this li'l piece o' paper--a receipt, I 'ppose. Come back in a li'l while and hopefully it'll be reddah.
- **10086**: Hut-tut! These things take time, <Player>. You come back a bit lateah, hear?
- **10123**: Ah be needin' you to help spread th' word o' Zacariah--'n it'll help Sylvie out too!
- **11514**: Altana take me! Why, if'n 'tisn't mah sweet ol' pum'kin, <Player>!
- **11515**: Wescolina's eyes begin to twinkle.
- **11516**: Well, Ah'll be a leafkin's uncle! The day is 'pon us!
- **11517**: Ikhi done come o'er heah 'n show me that ol' work from the lieberry. Ah can make 'em for you, right as rain!
- **11518**: With all those ol' $5 you done brought me, should be as simpl' as pluckin' feathers from a heartwing.
- **11519**: 'N when it comes to clippers, you came to th' right place, fo' right and fo' true!
- **11520**: Our Or'er of Renaye friends have done paid mah fee in advance, so all I be needin' 'tis the materials t'emselves.
- **11521**: I be needin' the right amount to stitch y'self up a mess o' garments. 'Course, all d'pends on what part you want...
- **11522**: Check for which item? [Head: #./Chest: $1./Hands: $2./Legs: $3./Feet: $4/I'm done for now.]
- **11523**: Hoo boy, $0?
- **11524**: Lemme jus' put on mah thinkin' bonnet... Yes, I be needin' $1, 'course, in addition to $2 and $3. Yuppers, if'n you could bring those to me that'd be th' bee's knees!
- **11525**: But Ah know that you're busier than an alley cat durin' matin' season, so Ah can spot you some o' the materials.
- **11526**: So if'n you just gimme the most important parts--$1 and $4--together with $5 bayld, I should be able to handle things from theah.
- **11527**: Criminy, <Player>! I sweah, next time around you'll have me sewin' your unduhgahments!
- **11528**: Hoo hoo, I be ticklin' my funny bone!
- **11529**: But in the name o' ol' Zacariah, I promise that you'll have clothin' fittin' of one attuned with nature!
- **11530**: Positively wunn'ful, <Player>! I trust you have th' items Ah need for your $0?
- **11531**: Have Wecolina create your garment? [By the Goddess, yes!/No...stop talking.]
- **11532**: Well, slap mah bum 'n call me Shirley, you do! Ready to have me lovin'ly stitch together your $0 for $1 bayld in place 'o th' othah materials?
- **11533**: Pay the price? (You have $2 bayld). [$1 bayld? Absolutely, Shirley./No. Haven't I suffered enough?]
- **11534**: But darlin', we've barely gotten started!
- **11535**: Right! These fingers're jus' itchin' to get down to work!
- **11536**: Hon, you don' have 'nough bayld.
- **11537**: Why, you just beam down on me like sunshine from th' heavens, don' you, <Player>? Ah'm so glad to see you, because Ah've jus' finished your $0! A fine piece o' work, if'n Ah do say so m'self.
- **11538**: The $1 Ah used for the weave is said to focus the wearer's mental acuity--that's the fancy words for "noggin power." What's more 'tis both functional 'n stylish!
- **11539**: All th' energy contained in the $1 really drew forth the potential of this heah piece.
- **11540**: Sure gets sticky out theah in Ulbuka, no? That's why I wanted you to brin' me that $1. Very breathable material that lets both air 'n magic through!
- **11541**: Y'know why Ah asked for $1? Ain't nothin' brimming with more geomantic potential, that's why! Ah used some ol' sewing techniques passed down from th' eastern lands.
- **11542**: Did ya know that $1 are used to reduce wear 'n tear on your luopan? Mah mah, [sir/ma'am], Ah do declare that you done learn' somethin' new today!
- **11543**: Heah you go, dumplin'!
- **11544**: Well, you done look th' [han'somes'/purties'] thing I ever did see. Now go out theah and do me proud!

## Events

### Event 65535

#### Metadata

| Field        | Value   |
|--------------|---------|
| Entrypoint   | 0x0000  |
| Data Size    | 1 bytes |
| Instructions | 1       |

```
      00 01 02 03 04 05 06 07  08 09 0A 0B 0C 0D 0E 0F
      -- -- -- -- -- -- -- --  -- -- -- -- -- -- -- --
0000: 00                                                .               
```

#### Opcodes

```
  0: 0x0000 [0x00] END_REQSTACK()
```

### Event 65535.1

#### Metadata

| Field        | Value    |
|--------------|----------|
| Entrypoint   | 0x0001   |
| Data Size    | 16 bytes |
| Instructions | 2        |

```
      00 01 02 03 04 05 06 07  08 09 0A 0B 0C 0D 0E 0F
      -- -- -- -- -- -- -- --  -- -- -- -- -- -- -- --
0000:    5B 00 80 F8 FF FF 7F  F8 FF FF 7F 70 61 73 30   [..........pas0
0010: 00                                                .               
```

#### Opcodes

```
  0: 0x0001 [0x5B] LOAD_EXT_SCHEDULER: Load scheduler "pas0" with entities [EventEntity, EventEntity], work=70*
  1: 0x0010 [0x00] END_REQSTACK()
```

### Event 65535.2

#### Metadata

| Field        | Value    |
|--------------|----------|
| Entrypoint   | 0x0011   |
| Data Size    | 14 bytes |
| Instructions | 2        |

```
      00 01 02 03 04 05 06 07  08 09 0A 0B 0C 0D 0E 0F
      -- -- -- -- -- -- -- --  -- -- -- -- -- -- -- --
0010:    53 F8 FF FF 7F F8 FF  FF 7F 70 61 73 30 00      S........pas0. 
```

#### Opcodes

```
  0: 0x0011 [0x53] WAIT_SCHEDULER_TASK: Wait for scheduler "pas0" with entities [EventEntity, EventEntity]
  1: 0x001E [0x00] END_REQSTACK()
```

### Event 65535.3

#### Metadata

| Field        | Value    |
|--------------|----------|
| Entrypoint   | 0x001F   |
| Data Size    | 16 bytes |
| Instructions | 2        |

```
      00 01 02 03 04 05 06 07  08 09 0A 0B 0C 0D 0E 0F
      -- -- -- -- -- -- -- --  -- -- -- -- -- -- -- --
0010:                                               5B                 [
0020: 00 80 F8 FF FF 7F F8 FF  FF 7F 74 68 6B 31 00     ..........thk1. 
```

#### Opcodes

```
  0: 0x001F [0x5B] LOAD_EXT_SCHEDULER: Load scheduler "thk1" with entities [EventEntity, EventEntity], work=70*
  1: 0x002E [0x00] END_REQSTACK()
```

### Event 65535.4

#### Metadata

| Field        | Value    |
|--------------|----------|
| Entrypoint   | 0x002F   |
| Data Size    | 14 bytes |
| Instructions | 2        |

```
      00 01 02 03 04 05 06 07  08 09 0A 0B 0C 0D 0E 0F
      -- -- -- -- -- -- -- --  -- -- -- -- -- -- -- --
0020:                                               53                 S
0030: F8 FF FF 7F F8 FF FF 7F  74 68 6B 31 00           ........thk1.   
```

#### Opcodes

```
  0: 0x002F [0x53] WAIT_SCHEDULER_TASK: Wait for scheduler "thk1" with entities [EventEntity, EventEntity]
  1: 0x003C [0x00] END_REQSTACK()
```

### Event 65535.5

#### Metadata

| Field        | Value    |
|--------------|----------|
| Entrypoint   | 0x003D   |
| Data Size    | 16 bytes |
| Instructions | 2        |

```
      00 01 02 03 04 05 06 07  08 09 0A 0B 0C 0D 0E 0F
      -- -- -- -- -- -- -- --  -- -- -- -- -- -- -- --
0030:                                         5B 00 80               [..
0040: F8 FF FF 7F F8 FF FF 7F  74 68 6B 32 00           ........thk2.   
```

#### Opcodes

```
  0: 0x003D [0x5B] LOAD_EXT_SCHEDULER: Load scheduler "thk2" with entities [EventEntity, EventEntity], work=70*
  1: 0x004C [0x00] END_REQSTACK()
```

### Event 65535.6

#### Metadata

| Field        | Value    |
|--------------|----------|
| Entrypoint   | 0x004D   |
| Data Size    | 14 bytes |
| Instructions | 2        |

```
      00 01 02 03 04 05 06 07  08 09 0A 0B 0C 0D 0E 0F
      -- -- -- -- -- -- -- --  -- -- -- -- -- -- -- --
0040:                                         53 F8 FF               S..
0050: FF 7F F8 FF FF 7F 74 68  6B 32 00                 ......thk2.     
```

#### Opcodes

```
  0: 0x004D [0x53] WAIT_SCHEDULER_TASK: Wait for scheduler "thk2" with entities [EventEntity, EventEntity]
  1: 0x005A [0x00] END_REQSTACK()
```

### Event 65535.7

#### Metadata

| Field        | Value    |
|--------------|----------|
| Entrypoint   | 0x005B   |
| Data Size    | 16 bytes |
| Instructions | 2        |

```
      00 01 02 03 04 05 06 07  08 09 0A 0B 0C 0D 0E 0F
      -- -- -- -- -- -- -- --  -- -- -- -- -- -- -- --
0050:                                   5B 00 80 F8 FF             [....
0060: FF 7F F8 FF FF 7F 74 6C  6B 30 00                 ......tlk0.     
```

#### Opcodes

```
  0: 0x005B [0x5B] LOAD_EXT_SCHEDULER: Load scheduler "tlk0" with entities [EventEntity, EventEntity], work=70*
  1: 0x006A [0x00] END_REQSTACK()
```

### Event 65535.8

#### Metadata

| Field        | Value    |
|--------------|----------|
| Entrypoint   | 0x006B   |
| Data Size    | 14 bytes |
| Instructions | 2        |

```
      00 01 02 03 04 05 06 07  08 09 0A 0B 0C 0D 0E 0F
      -- -- -- -- -- -- -- --  -- -- -- -- -- -- -- --
0060:                                   53 F8 FF FF 7F             S....
0070: F8 FF FF 7F 74 6C 6B 30  00                       ....tlk0.       
```

#### Opcodes

```
  0: 0x006B [0x53] WAIT_SCHEDULER_TASK: Wait for scheduler "tlk0" with entities [EventEntity, EventEntity]
  1: 0x0078 [0x00] END_REQSTACK()
```

### Event 65535.9

#### Metadata

| Field        | Value    |
|--------------|----------|
| Entrypoint   | 0x0079   |
| Data Size    | 16 bytes |
| Instructions | 2        |

```
      00 01 02 03 04 05 06 07  08 09 0A 0B 0C 0D 0E 0F
      -- -- -- -- -- -- -- --  -- -- -- -- -- -- -- --
0070:                             5B 00 80 F8 FF FF 7F           [......
0080: F8 FF FF 7F 73 74 64 30  00                       ....std0.       
```

#### Opcodes

```
  0: 0x0079 [0x5B] LOAD_EXT_SCHEDULER: Load scheduler "std0" with entities [EventEntity, EventEntity], work=70*
  1: 0x0088 [0x00] END_REQSTACK()
```

### Event 65535.10

#### Metadata

| Field        | Value   |
|--------------|---------|
| Entrypoint   | 0x0089  |
| Data Size    | 4 bytes |
| Instructions | 2       |

```
      00 01 02 03 04 05 06 07  08 09 0A 0B 0C 0D 0E 0F
      -- -- -- -- -- -- -- --  -- -- -- -- -- -- -- --
0080:                             1C 01 80 00                    ....   
```

#### Opcodes

```
  0: 0x0089 [0x1C] WAIT(30* ticks)
  1: 0x008C [0x00] END_REQSTACK()
```

### Event 65535.11

#### Metadata

| Field        | Value    |
|--------------|----------|
| Entrypoint   | 0x008D   |
| Data Size    | 16 bytes |
| Instructions | 2        |

```
      00 01 02 03 04 05 06 07  08 09 0A 0B 0C 0D 0E 0F
      -- -- -- -- -- -- -- --  -- -- -- -- -- -- -- --
0080:                                         5B 00 80               [..
0090: F8 FF FF 7F F8 FF FF 7F  74 6C 61 30 00           ........tla0.   
```

#### Opcodes

```
  0: 0x008D [0x5B] LOAD_EXT_SCHEDULER: Load scheduler "tla0" with entities [EventEntity, EventEntity], work=70*
  1: 0x009C [0x00] END_REQSTACK()
```

### Event 65535.12

#### Metadata

| Field        | Value    |
|--------------|----------|
| Entrypoint   | 0x009D   |
| Data Size    | 14 bytes |
| Instructions | 2        |

```
      00 01 02 03 04 05 06 07  08 09 0A 0B 0C 0D 0E 0F
      -- -- -- -- -- -- -- --  -- -- -- -- -- -- -- --
0090:                                         53 F8 FF               S..
00A0: FF 7F F8 FF FF 7F 74 6C  61 30 00                 ......tla0.     
```

#### Opcodes

```
  0: 0x009D [0x53] WAIT_SCHEDULER_TASK: Wait for scheduler "tla0" with entities [EventEntity, EventEntity]
  1: 0x00AA [0x00] END_REQSTACK()
```

### Event 65535.13

#### Metadata

| Field        | Value    |
|--------------|----------|
| Entrypoint   | 0x00AB   |
| Data Size    | 16 bytes |
| Instructions | 2        |

```
      00 01 02 03 04 05 06 07  08 09 0A 0B 0C 0D 0E 0F
      -- -- -- -- -- -- -- --  -- -- -- -- -- -- -- --
00A0:                                   5B 00 80 F8 FF             [....
00B0: FF 7F F8 FF FF 7F 74 6C  61 31 00                 ......tla1.     
```

#### Opcodes

```
  0: 0x00AB [0x5B] LOAD_EXT_SCHEDULER: Load scheduler "tla1" with entities [EventEntity, EventEntity], work=70*
  1: 0x00BA [0x00] END_REQSTACK()
```

### Event 65535.14

#### Metadata

| Field        | Value    |
|--------------|----------|
| Entrypoint   | 0x00BB   |
| Data Size    | 14 bytes |
| Instructions | 2        |

```
      00 01 02 03 04 05 06 07  08 09 0A 0B 0C 0D 0E 0F
      -- -- -- -- -- -- -- --  -- -- -- -- -- -- -- --
00B0:                                   53 F8 FF FF 7F             S....
00C0: F8 FF FF 7F 74 6C 61 31  00                       ....tla1.       
```

#### Opcodes

```
  0: 0x00BB [0x53] WAIT_SCHEDULER_TASK: Wait for scheduler "tla1" with entities [EventEntity, EventEntity]
  1: 0x00C8 [0x00] END_REQSTACK()
```

### Event 65535.15

#### Metadata

| Field        | Value    |
|--------------|----------|
| Entrypoint   | 0x00C9   |
| Data Size    | 16 bytes |
| Instructions | 2        |

```
      00 01 02 03 04 05 06 07  08 09 0A 0B 0C 0D 0E 0F
      -- -- -- -- -- -- -- --  -- -- -- -- -- -- -- --
00C0:                             5B 00 80 F8 FF FF 7F           [......
00D0: F8 FF FF 7F 74 6C 62 30  00                       ....tlb0.       
```

#### Opcodes

```
  0: 0x00C9 [0x5B] LOAD_EXT_SCHEDULER: Load scheduler "tlb0" with entities [EventEntity, EventEntity], work=70*
  1: 0x00D8 [0x00] END_REQSTACK()
```

### Event 65535.16

#### Metadata

| Field        | Value    |
|--------------|----------|
| Entrypoint   | 0x00D9   |
| Data Size    | 14 bytes |
| Instructions | 2        |

```
      00 01 02 03 04 05 06 07  08 09 0A 0B 0C 0D 0E 0F
      -- -- -- -- -- -- -- --  -- -- -- -- -- -- -- --
00D0:                             53 F8 FF FF 7F F8 FF           S......
00E0: FF 7F 74 6C 62 30 00                              ..tlb0.         
```

#### Opcodes

```
  0: 0x00D9 [0x53] WAIT_SCHEDULER_TASK: Wait for scheduler "tlb0" with entities [EventEntity, EventEntity]
  1: 0x00E6 [0x00] END_REQSTACK()
```

### Event 65535.17

#### Metadata

| Field        | Value    |
|--------------|----------|
| Entrypoint   | 0x00E7   |
| Data Size    | 16 bytes |
| Instructions | 2        |

```
      00 01 02 03 04 05 06 07  08 09 0A 0B 0C 0D 0E 0F
      -- -- -- -- -- -- -- --  -- -- -- -- -- -- -- --
00E0:                      5B  00 80 F8 FF FF 7F F8 FF         [........
00F0: FF 7F 74 6C 62 31 00                              ..tlb1.         
```

#### Opcodes

```
  0: 0x00E7 [0x5B] LOAD_EXT_SCHEDULER: Load scheduler "tlb1" with entities [EventEntity, EventEntity], work=70*
  1: 0x00F6 [0x00] END_REQSTACK()
```

### Event 65535.18

#### Metadata

| Field        | Value    |
|--------------|----------|
| Entrypoint   | 0x00F7   |
| Data Size    | 14 bytes |
| Instructions | 2        |

```
      00 01 02 03 04 05 06 07  08 09 0A 0B 0C 0D 0E 0F
      -- -- -- -- -- -- -- --  -- -- -- -- -- -- -- --
00F0:                      53  F8 FF FF 7F F8 FF FF 7F         S........
0100: 74 6C 62 31 00                                    tlb1.           
```

#### Opcodes

```
  0: 0x00F7 [0x53] WAIT_SCHEDULER_TASK: Wait for scheduler "tlb1" with entities [EventEntity, EventEntity]
  1: 0x0104 [0x00] END_REQSTACK()
```

### Event 65535.19

#### Metadata

| Field        | Value    |
|--------------|----------|
| Entrypoint   | 0x0105   |
| Data Size    | 16 bytes |
| Instructions | 2        |

```
      00 01 02 03 04 05 06 07  08 09 0A 0B 0C 0D 0E 0F
      -- -- -- -- -- -- -- --  -- -- -- -- -- -- -- --
0100:                5B 00 80  F8 FF FF 7F F8 FF FF 7F       [..........
0110: 6F 74 69 30 00                                    oti0.           
```

#### Opcodes

```
  0: 0x0105 [0x5B] LOAD_EXT_SCHEDULER: Load scheduler "oti0" with entities [EventEntity, EventEntity], work=70*
  1: 0x0114 [0x00] END_REQSTACK()
```

### Event 65535.20

#### Metadata

| Field        | Value    |
|--------------|----------|
| Entrypoint   | 0x0115   |
| Data Size    | 14 bytes |
| Instructions | 2        |

```
      00 01 02 03 04 05 06 07  08 09 0A 0B 0C 0D 0E 0F
      -- -- -- -- -- -- -- --  -- -- -- -- -- -- -- --
0110:                53 F8 FF  FF 7F F8 FF FF 7F 6F 74       S........ot
0120: 69 30 00                                          i0.             
```

#### Opcodes

```
  0: 0x0115 [0x53] WAIT_SCHEDULER_TASK: Wait for scheduler "oti0" with entities [EventEntity, EventEntity]
  1: 0x0122 [0x00] END_REQSTACK()
```

### Event 65535.21

#### Metadata

| Field        | Value    |
|--------------|----------|
| Entrypoint   | 0x0123   |
| Data Size    | 16 bytes |
| Instructions | 2        |

```
      00 01 02 03 04 05 06 07  08 09 0A 0B 0C 0D 0E 0F
      -- -- -- -- -- -- -- --  -- -- -- -- -- -- -- --
0120:          5B 00 80 F8 FF  FF 7F F8 FF FF 7F 6F 74     [..........ot
0130: 69 31 00                                          i1.             
```

#### Opcodes

```
  0: 0x0123 [0x5B] LOAD_EXT_SCHEDULER: Load scheduler "oti1" with entities [EventEntity, EventEntity], work=70*
  1: 0x0132 [0x00] END_REQSTACK()
```

### Event 65535.22

#### Metadata

| Field        | Value    |
|--------------|----------|
| Entrypoint   | 0x0133   |
| Data Size    | 14 bytes |
| Instructions | 2        |

```
      00 01 02 03 04 05 06 07  08 09 0A 0B 0C 0D 0E 0F
      -- -- -- -- -- -- -- --  -- -- -- -- -- -- -- --
0130:          53 F8 FF FF 7F  F8 FF FF 7F 6F 74 69 31     S........oti1
0140: 00                                                .               
```

#### Opcodes

```
  0: 0x0133 [0x53] WAIT_SCHEDULER_TASK: Wait for scheduler "oti1" with entities [EventEntity, EventEntity]
  1: 0x0140 [0x00] END_REQSTACK()
```

### Event 65535.23

#### Metadata

| Field        | Value    |
|--------------|----------|
| Entrypoint   | 0x0141   |
| Data Size    | 16 bytes |
| Instructions | 2        |

```
      00 01 02 03 04 05 06 07  08 09 0A 0B 0C 0D 0E 0F
      -- -- -- -- -- -- -- --  -- -- -- -- -- -- -- --
0140:    5B 00 80 F8 FF FF 7F  F8 FF FF 7F 6F 72 6F 30   [..........oro0
0150: 00                                                .               
```

#### Opcodes

```
  0: 0x0141 [0x5B] LOAD_EXT_SCHEDULER: Load scheduler "oro0" with entities [EventEntity, EventEntity], work=70*
  1: 0x0150 [0x00] END_REQSTACK()
```

### Event 65535.24

#### Metadata

| Field        | Value    |
|--------------|----------|
| Entrypoint   | 0x0151   |
| Data Size    | 14 bytes |
| Instructions | 2        |

```
      00 01 02 03 04 05 06 07  08 09 0A 0B 0C 0D 0E 0F
      -- -- -- -- -- -- -- --  -- -- -- -- -- -- -- --
0150:    53 F8 FF FF 7F F8 FF  FF 7F 6F 72 6F 30 00      S........oro0. 
```

#### Opcodes

```
  0: 0x0151 [0x53] WAIT_SCHEDULER_TASK: Wait for scheduler "oro0" with entities [EventEntity, EventEntity]
  1: 0x015E [0x00] END_REQSTACK()
```

### Event 65535.25

#### Metadata

| Field        | Value    |
|--------------|----------|
| Entrypoint   | 0x015F   |
| Data Size    | 16 bytes |
| Instructions | 2        |

```
      00 01 02 03 04 05 06 07  08 09 0A 0B 0C 0D 0E 0F
      -- -- -- -- -- -- -- --  -- -- -- -- -- -- -- --
0150:                                               5B                 [
0160: 00 80 F8 FF FF 7F F8 FF  FF 7F 6F 72 6F 31 00     ..........oro1. 
```

#### Opcodes

```
  0: 0x015F [0x5B] LOAD_EXT_SCHEDULER: Load scheduler "oro1" with entities [EventEntity, EventEntity], work=70*
  1: 0x016E [0x00] END_REQSTACK()
```

### Event 65535.26

#### Metadata

| Field        | Value    |
|--------------|----------|
| Entrypoint   | 0x016F   |
| Data Size    | 14 bytes |
| Instructions | 2        |

```
      00 01 02 03 04 05 06 07  08 09 0A 0B 0C 0D 0E 0F
      -- -- -- -- -- -- -- --  -- -- -- -- -- -- -- --
0160:                                               53                 S
0170: F8 FF FF 7F F8 FF FF 7F  6F 72 6F 31 00           ........oro1.   
```

#### Opcodes

```
  0: 0x016F [0x53] WAIT_SCHEDULER_TASK: Wait for scheduler "oro1" with entities [EventEntity, EventEntity]
  1: 0x017C [0x00] END_REQSTACK()
```

### Event 65535.27

#### Metadata

| Field        | Value    |
|--------------|----------|
| Entrypoint   | 0x017D   |
| Data Size    | 16 bytes |
| Instructions | 2        |

```
      00 01 02 03 04 05 06 07  08 09 0A 0B 0C 0D 0E 0F
      -- -- -- -- -- -- -- --  -- -- -- -- -- -- -- --
0170:                                         5B 02 80               [..
0180: F8 FF FF 7F F8 FF FF 7F  77 61 76 30 00           ........wav0.   
```

#### Opcodes

```
  0: 0x017D [0x5B] LOAD_EXT_SCHEDULER: Load scheduler "wav0" with entities [EventEntity, EventEntity], work=71*
  1: 0x018C [0x00] END_REQSTACK()
```

### Event 65535.28

#### Metadata

| Field        | Value    |
|--------------|----------|
| Entrypoint   | 0x018D   |
| Data Size    | 14 bytes |
| Instructions | 2        |

```
      00 01 02 03 04 05 06 07  08 09 0A 0B 0C 0D 0E 0F
      -- -- -- -- -- -- -- --  -- -- -- -- -- -- -- --
0180:                                         53 F8 FF               S..
0190: FF 7F F8 FF FF 7F 77 61  76 30 00                 ......wav0.     
```

#### Opcodes

```
  0: 0x018D [0x53] WAIT_SCHEDULER_TASK: Wait for scheduler "wav0" with entities [EventEntity, EventEntity]
  1: 0x019A [0x00] END_REQSTACK()
```

### Event 101

#### Metadata

| Field        | Value    |
|--------------|----------|
| Entrypoint   | 0x019B   |
| Data Size    | 29 bytes |
| Instructions | 10       |

```
      00 01 02 03 04 05 06 07  08 09 0A 0B 0C 0D 0E 0F
      -- -- -- -- -- -- -- --  -- -- -- -- -- -- -- --
0190:                                   1E F0 FF FF 7F             .....
01A0: 6F 70 29 08 37 01 10 01  07 1D 03 80 23 29 08 37  op).7.......#).7
01B0: 01 10 01 09 20 00 21 00                           .... .!.        
```

#### Opcodes

```
  0: 0x019B [0x1E] EventEntity looks at LocalPlayer and starts talking
  1: 0x01A0 [0x6F] WAIT_FRAME_DELAY: Yield until WaitTime reaches zero
  2: 0x01A1 [0x70] WAIT_ENTITY_RENDER_FLAG: Wait while EventEntity->Render.Flags3 bit 2 is set (cancel turn if not)
  3: 0x01A2 [0x29] REQ_SET_WAIT(priority=0x08, entity_id=Wescolina (ID: 17826103/0x01100137), tag_num=0x07)
  4: 0x01A9 [0x1D] PRINT_EVENT_MESSAGE(message_id=10045*)
    → "Ah sweah by Altana hehself the ol' hubby o' mine nevah come outta his workshop fo' nothin'!"
  5: 0x01AC [0x23] WAIT_FOR_DIALOG_INTERACTION
  6: 0x01AD [0x29] REQ_SET_WAIT(priority=0x08, entity_id=Wescolina (ID: 17826103/0x01100137), tag_num=0x09)
  7: 0x01B4 [0x20] SET_CLI_EVENT_UC_FLAG: Unlock player control
  8: 0x01B6 [0x21] END_EVENT
  9: 0x01B7 [0x00] END_REQSTACK()
```

### Event 89

#### Metadata

| Field        | Value   |
|--------------|---------|
| Entrypoint   | 0x01B8  |
| Data Size    | 1 bytes |
| Instructions | 1       |

```
      00 01 02 03 04 05 06 07  08 09 0A 0B 0C 0D 0E 0F
      -- -- -- -- -- -- -- --  -- -- -- -- -- -- -- --
01B0:                          00                               .       
```

#### Opcodes

```
  0: 0x01B8 [0x00] END_REQSTACK()
```

### Event 65535.29

#### Metadata

| Field        | Value    |
|--------------|----------|
| Entrypoint   | 0x01B9   |
| Data Size    | 21 bytes |
| Instructions | 7        |

```
      00 01 02 03 04 05 06 07  08 09 0A 0B 0C 0D 0E 0F
      -- -- -- -- -- -- -- --  -- -- -- -- -- -- -- --
01B0:                             32 04 80 1F 00 05 80           2......
01C0: 06 80 07 80 1F 01 1E F0  FF FF 7F 6F 70 00        ...........op.  
```

#### Opcodes

```
  0: 0x01B9 [0x32] ExtData[1]->MainSpeed = 13* * 0.1
  1: 0x01BC [0x1F] MOVE_ENTITY: EventEntity moves to X=27.592*, Z=34.610*, Y=0.000*
  2: 0x01C4 [0x1F] MOVE_ENTITY: Update entity position (mode=1)
  3: 0x01C6 [0x1E] EventEntity looks at LocalPlayer and starts talking
  4: 0x01CB [0x6F] WAIT_FRAME_DELAY: Yield until WaitTime reaches zero
  5: 0x01CC [0x70] WAIT_ENTITY_RENDER_FLAG: Wait while EventEntity->Render.Flags3 bit 2 is set (cancel turn if not)
  6: 0x01CD [0x00] END_REQSTACK()
```

### Event 65535.30

#### Metadata

| Field        | Value    |
|--------------|----------|
| Entrypoint   | 0x01CE   |
| Data Size    | 49 bytes |
| Instructions | 9        |

```
      00 01 02 03 04 05 06 07  08 09 0A 0B 0C 0D 0E 0F
      -- -- -- -- -- -- -- --  -- -- -- -- -- -- -- --
01C0:                                            32 04                2.
01D0: 80 1F 00 05 80 06 80 07  80 1F 01 1E F0 FF FF 7F  ................
01E0: 6F 70 5B 00 80 F8 FF FF  7F F8 FF FF 7F 70 61 73  op[..........pas
01F0: 30 53 F8 FF FF 7F F8 FF  FF 7F 70 61 73 30 00     0S........pas0. 
```

#### Opcodes

```
  0: 0x01CE [0x32] ExtData[1]->MainSpeed = 13* * 0.1
  1: 0x01D1 [0x1F] MOVE_ENTITY: EventEntity moves to X=27.592*, Z=34.610*, Y=0.000*
  2: 0x01D9 [0x1F] MOVE_ENTITY: Update entity position (mode=1)
  3: 0x01DB [0x1E] EventEntity looks at LocalPlayer and starts talking
  4: 0x01E0 [0x6F] WAIT_FRAME_DELAY: Yield until WaitTime reaches zero
  5: 0x01E1 [0x70] WAIT_ENTITY_RENDER_FLAG: Wait while EventEntity->Render.Flags3 bit 2 is set (cancel turn if not)
  6: 0x01E2 [0x5B] LOAD_EXT_SCHEDULER: Load scheduler "pas0" with entities [EventEntity, EventEntity], work=70*
  7: 0x01F1 [0x53] WAIT_SCHEDULER_TASK: Wait for scheduler "pas0" with entities [EventEntity, EventEntity]
  8: 0x01FE [0x00] END_REQSTACK()
```

### Event 90

#### Metadata

| Field        | Value     |
|--------------|-----------|
| Entrypoint   | 0x01FF    |
| Data Size    | 105 bytes |
| Instructions | 28        |

```
      00 01 02 03 04 05 06 07  08 09 0A 0B 0C 0D 0E 0F
      -- -- -- -- -- -- -- --  -- -- -- -- -- -- -- --
01F0:                                               1E                 .
0200: F0 FF FF 7F 6F 70 29 08  37 01 10 01 07 1D 08 80  ....op).7.......
0210: 23 29 08 37 01 10 01 08  29 08 37 01 10 01 09 1D  #).7....).7.....
0220: 09 80 23 29 08 37 01 10  01 0A 29 08 37 01 10 01  ..#).7....).7...
0230: 03 1D 0A 80 23 29 08 37  01 10 01 04 29 08 37 01  ....#).7....).7.
0240: 10 01 05 1D 0B 80 23 29  08 37 01 10 01 06 29 08  ......#).7....).
0250: 37 01 10 01 07 1D 0C 80  23 1D 0D 80 23 29 08 37  7.......#...#).7
0260: 01 10 01 09 20 00 21 00                           .... .!.        
```

#### Opcodes

```
  0: 0x01FF [0x1E] EventEntity looks at LocalPlayer and starts talking
  1: 0x0204 [0x6F] WAIT_FRAME_DELAY: Yield until WaitTime reaches zero
  2: 0x0205 [0x70] WAIT_ENTITY_RENDER_FLAG: Wait while EventEntity->Render.Flags3 bit 2 is set (cancel turn if not)
  3: 0x0206 [0x29] REQ_SET_WAIT(priority=0x08, entity_id=Wescolina (ID: 17826103/0x01100137), tag_num=0x07)
  4: 0x020D [0x1D] PRINT_EVENT_MESSAGE(message_id=10069*)
    → "Peaches 'n cream, it's <Player>! Dun worry your pretty little head--Ah remembah your ordah of one $0."
  5: 0x0210 [0x23] WAIT_FOR_DIALOG_INTERACTION
  6: 0x0211 [0x29] REQ_SET_WAIT(priority=0x08, entity_id=Wescolina (ID: 17826103/0x01100137), tag_num=0x08)
  7: 0x0218 [0x29] REQ_SET_WAIT(priority=0x08, entity_id=Wescolina (ID: 17826103/0x01100137), tag_num=0x09)
  8: 0x021F [0x1D] PRINT_EVENT_MESSAGE(message_id=10070*)
    → "And how's your hunting goin', pet? Ah need $1, $2, $3, and...what was it?"
  9: 0x0222 [0x23] WAIT_FOR_DIALOG_INTERACTION
 10: 0x0223 [0x29] REQ_SET_WAIT(priority=0x08, entity_id=Wescolina (ID: 17826103/0x01100137), tag_num=0x0A)
 11: 0x022A [0x29] REQ_SET_WAIT(priority=0x08, entity_id=Wescolina (ID: 17826103/0x01100137), tag_num=0x03)
 12: 0x0231 [0x1D] PRINT_EVENT_MESSAGE(message_id=10071*)
    → "That's right, $4. Ah sweah, 'times Ah dun know wheah my head is at."
 13: 0x0234 [0x23] WAIT_FOR_DIALOG_INTERACTION
 14: 0x0235 [0x29] REQ_SET_WAIT(priority=0x08, entity_id=Wescolina (ID: 17826103/0x01100137), tag_num=0x04)
 15: 0x023C [0x29] REQ_SET_WAIT(priority=0x08, entity_id=Wescolina (ID: 17826103/0x01100137), tag_num=0x05)
 16: 0x0243 [0x1D] PRINT_EVENT_MESSAGE(message_id=10072*)
    → "'N on top o' all that, dun forget that Ah be needin' a small fee of $5 bayld to bring the chickens home to roost."
 17: 0x0246 [0x23] WAIT_FOR_DIALOG_INTERACTION
 18: 0x0247 [0x29] REQ_SET_WAIT(priority=0x08, entity_id=Wescolina (ID: 17826103/0x01100137), tag_num=0x06)
 19: 0x024E [0x29] REQ_SET_WAIT(priority=0x08, entity_id=Wescolina (ID: 17826103/0x01100137), tag_num=0x07)
 20: 0x0255 [0x1D] PRINT_EVENT_MESSAGE(message_id=10073*)
    → "First, though, Ah need those four items."
 21: 0x0258 [0x23] WAIT_FOR_DIALOG_INTERACTION
 22: 0x0259 [0x1D] PRINT_EVENT_MESSAGE(message_id=10074*)
    → "We can discuss payment aftah that."
 23: 0x025C [0x23] WAIT_FOR_DIALOG_INTERACTION
 24: 0x025D [0x29] REQ_SET_WAIT(priority=0x08, entity_id=Wescolina (ID: 17826103/0x01100137), tag_num=0x09)
 25: 0x0264 [0x20] SET_CLI_EVENT_UC_FLAG: Unlock player control
 26: 0x0266 [0x21] END_EVENT
 27: 0x0267 [0x00] END_REQSTACK()
```

### Event 91

#### Metadata

| Field        | Value    |
|--------------|----------|
| Entrypoint   | 0x0268   |
| Data Size    | 52 bytes |
| Instructions | 17       |

```
      00 01 02 03 04 05 06 07  08 09 0A 0B 0C 0D 0E 0F
      -- -- -- -- -- -- -- --  -- -- -- -- -- -- -- --
0260:                          42 1E F0 FF FF 7F 6F 70          B.....op
0270: 29 08 37 01 10 01 07 1D  0E 80 23 1D 0F 80 23 29  ).7.......#...#)
0280: 08 37 01 10 01 08 29 08  37 01 10 01 09 1D 10 80  .7....).7.......
0290: 23 29 08 37 01 10 01 0A  20 00 21 00              #).7.... .!.    
```

#### Opcodes

```
  0: 0x0268 [0x42] SET_CLI_EVENT_CANCEL_DATA()
  1: 0x0269 [0x1E] EventEntity looks at LocalPlayer and starts talking
  2: 0x026E [0x6F] WAIT_FRAME_DELAY: Yield until WaitTime reaches zero
  3: 0x026F [0x70] WAIT_ENTITY_RENDER_FLAG: Wait while EventEntity->Render.Flags3 bit 2 is set (cancel turn if not)
  4: 0x0270 [0x29] REQ_SET_WAIT(priority=0x08, entity_id=Wescolina (ID: 17826103/0x01100137), tag_num=0x07)
  5: 0x0277 [0x1D] PRINT_EVENT_MESSAGE(message_id=10075*)
    → "Well, Ah'll be swanned, <Player>! You brought me exactly what Ah need. Ready for me to make you your $0?"
  6: 0x027A [0x23] WAIT_FOR_DIALOG_INTERACTION
  7: 0x027B [0x1D] PRINT_EVENT_MESSAGE(message_id=10076*)
    → "Let me just lay mah eyes on them... $1, $2, $3, 'n $4. Dun that just beat all!"
  8: 0x027E [0x23] WAIT_FOR_DIALOG_INTERACTION
  9: 0x027F [0x29] REQ_SET_WAIT(priority=0x08, entity_id=Wescolina (ID: 17826103/0x01100137), tag_num=0x08)
 10: 0x0286 [0x29] REQ_SET_WAIT(priority=0x08, entity_id=Wescolina (ID: 17826103/0x01100137), tag_num=0x09)
 11: 0x028D [0x1D] PRINT_EVENT_MESSAGE(message_id=10077*)
    → "Now we can talk about the sugah you owe me. Remember--Ah need $5 bayld. Speak to me again when you're reddah. (Bayld: $7.)"
 12: 0x0290 [0x23] WAIT_FOR_DIALOG_INTERACTION
 13: 0x0291 [0x29] REQ_SET_WAIT(priority=0x08, entity_id=Wescolina (ID: 17826103/0x01100137), tag_num=0x0A)
 14: 0x0298 [0x20] SET_CLI_EVENT_UC_FLAG: Unlock player control
 15: 0x029A [0x21] END_EVENT
 16: 0x029B [0x00] END_REQSTACK()
```

### Event 92

#### Metadata

| Field        | Value     |
|--------------|-----------|
| Entrypoint   | 0x029C    |
| Data Size    | 208 bytes |
| Instructions | 48        |

```
      00 01 02 03 04 05 06 07  08 09 0A 0B 0C 0D 0E 0F
      -- -- -- -- -- -- -- --  -- -- -- -- -- -- -- --
0290:                                      42 1E F0 FF              B...
02A0: FF 7F 6F 70 29 08 37 01  10 01 03 1D 11 80 23 29  ..op).7.......#)
02B0: 08 37 01 10 01 04 24 12  80 07 80 07 80 25 02 00  .7....$......%..
02C0: 10 07 80 00 46 03 02 05  10 13 80 00 2C 03 03 01  ....F.......,...
02D0: 10 13 80 29 08 37 01 10  01 05 1D 14 80 23 29 08  ...).7.......#).
02E0: 37 01 10 01 06 29 08 37  01 10 01 07 1D 15 80 23  7....).7.......#
02F0: 29 08 37 01 10 01 09 29  08 37 01 10 01 0A 29 08  ).7....).7....).
0300: 37 01 10 01 0F 1D 16 80  23 29 08 37 01 10 01 11  7.......#).7....
0310: 29 08 37 01 10 01 12 29  08 37 01 10 01 01 1D 17  ).7....).7......
0320: 80 23 29 08 37 01 10 01  02 01 43 03 03 01 10 18  .#).7.....C.....
0330: 80 29 08 37 01 10 01 05  1D 19 80 23 29 08 37 01  .).7.......#).7.
0340: 10 01 06 01 68 03 02 00  10 13 80 00 68 03 03 01  ....h.......h...
0350: 10 18 80 29 08 37 01 10  01 05 1D 1A 80 23 29 08  ...).7.......#).
0360: 37 01 10 01 06 01 68 03  20 00 21 00              7.....h. .!.    
```

#### Opcodes

```
  0: 0x029C [0x42] SET_CLI_EVENT_CANCEL_DATA()
  1: 0x029D [0x1E] EventEntity looks at LocalPlayer and starts talking
  2: 0x02A2 [0x6F] WAIT_FRAME_DELAY: Yield until WaitTime reaches zero
  3: 0x02A3 [0x70] WAIT_ENTITY_RENDER_FLAG: Wait while EventEntity->Render.Flags3 bit 2 is set (cancel turn if not)
  4: 0x02A4 [0x29] REQ_SET_WAIT(priority=0x08, entity_id=Wescolina (ID: 17826103/0x01100137), tag_num=0x03)
  5: 0x02AB [0x1D] PRINT_EVENT_MESSAGE(message_id=10078*)
    → "Come back with the right amount o' bayld, <Player>? It comes to $5."
  6: 0x02AE [0x23] WAIT_FOR_DIALOG_INTERACTION
  7: 0x02AF [0x29] REQ_SET_WAIT(priority=0x08, entity_id=Wescolina (ID: 17826103/0x01100137), tag_num=0x04)
  8: 0x02B6 [0x24] CREATE_DIALOG(message_id=10079*, default_option=0*, option_flags=0*)
    → "Pay $5 bayld? (Bayld: $2) [Of course!/Let me think some more.]"
  9: 0x02BD [0x25] WAIT_DIALOG_SELECT()
 10: 0x02BE [0x02] IF !(Work_Zone[0] == 0*) GOTO 0x0346
 11: 0x02C6 [0x02] IF !(Work_Zone[5] == 1*) GOTO 0x032C
 12: 0x02CE [0x03] Work_Zone[1] = 1*
 13: 0x02D3 [0x29] REQ_SET_WAIT(priority=0x08, entity_id=Wescolina (ID: 17826103/0x01100137), tag_num=0x05)
 14: 0x02DA [0x1D] PRINT_EVENT_MESSAGE(message_id=10082*)
    → "Mercy! A sweet young [man/woman] who listens to [his/her] eldahs is such a treat in these troublin' times."
 15: 0x02DD [0x23] WAIT_FOR_DIALOG_INTERACTION
 16: 0x02DE [0x29] REQ_SET_WAIT(priority=0x08, entity_id=Wescolina (ID: 17826103/0x01100137), tag_num=0x06)
 17: 0x02E5 [0x29] REQ_SET_WAIT(priority=0x08, entity_id=Wescolina (ID: 17826103/0x01100137), tag_num=0x07)
 18: 0x02EC [0x1D] PRINT_EVENT_MESSAGE(message_id=10083*)
    → "Ready to start, <Player>?"
 19: 0x02EF [0x23] WAIT_FOR_DIALOG_INTERACTION
 20: 0x02F0 [0x29] REQ_SET_WAIT(priority=0x08, entity_id=Wescolina (ID: 17826103/0x01100137), tag_num=0x09)
 21: 0x02F7 [0x29] REQ_SET_WAIT(priority=0x08, entity_id=Wescolina (ID: 17826103/0x01100137), tag_num=0x0A)
 22: 0x02FE [0x29] REQ_SET_WAIT(priority=0x08, entity_id=Wescolina (ID: 17826103/0x01100137), tag_num=0x0F)
 23: 0x0305 [0x1D] PRINT_EVENT_MESSAGE(message_id=10084*)
    → "'Course, Ah'm not th' one doing th' work. That be up to my husband. 'Times he be workin' real hard, other times he's as useless as tits on a bull. Hopefully he comes up aces this time."
 24: 0x0308 [0x23] WAIT_FOR_DIALOG_INTERACTION
 25: 0x0309 [0x29] REQ_SET_WAIT(priority=0x08, entity_id=Wescolina (ID: 17826103/0x01100137), tag_num=0x11)
 26: 0x0310 [0x29] REQ_SET_WAIT(priority=0x08, entity_id=Wescolina (ID: 17826103/0x01100137), tag_num=0x12)
 27: 0x0317 [0x29] REQ_SET_WAIT(priority=0x08, entity_id=Wescolina (ID: 17826103/0x01100137), tag_num=0x01)
 28: 0x031E [0x1D] PRINT_EVENT_MESSAGE(message_id=10085*)
    → "Ah'll give you this li'l piece o' paper--a receipt, I 'ppose. Come back in a li'l while and hopefully it'll be reddah."
 29: 0x0321 [0x23] WAIT_FOR_DIALOG_INTERACTION
 30: 0x0322 [0x29] REQ_SET_WAIT(priority=0x08, entity_id=Wescolina (ID: 17826103/0x01100137), tag_num=0x02)
 31: 0x0329 [0x01] GOTO 0x0343
 32: 0x032C [0x03] Work_Zone[1] = 2*
 33: 0x0331 [0x29] REQ_SET_WAIT(priority=0x08, entity_id=Wescolina (ID: 17826103/0x01100137), tag_num=0x05)
 34: 0x0338 [0x1D] PRINT_EVENT_MESSAGE(message_id=10081*)
    → "Have you got cotton in your ears, <Player>? You dun have the $5 bayld Ah need!"
 35: 0x033B [0x23] WAIT_FOR_DIALOG_INTERACTION
 36: 0x033C [0x29] REQ_SET_WAIT(priority=0x08, entity_id=Wescolina (ID: 17826103/0x01100137), tag_num=0x06)

SUBROUTINE_0343:
 37: 0x0343 [0x01] GOTO 0x0368
 38: 0x0346 [0x02] IF !(Work_Zone[0] == 1*) GOTO 0x0368
 39: 0x034E [0x03] Work_Zone[1] = 2*
 40: 0x0353 [0x29] REQ_SET_WAIT(priority=0x08, entity_id=Wescolina (ID: 17826103/0x01100137), tag_num=0x05)
 41: 0x035A [0x1D] PRINT_EVENT_MESSAGE(message_id=10080*)
    → "Aftah all that time gatherin' materials, you're gon' back out on me now? Altana above, make up yo' min'!"
 42: 0x035D [0x23] WAIT_FOR_DIALOG_INTERACTION
 43: 0x035E [0x29] REQ_SET_WAIT(priority=0x08, entity_id=Wescolina (ID: 17826103/0x01100137), tag_num=0x06)
 44: 0x0365 [0x01] GOTO 0x0368

SUBROUTINE_0368:
 45: 0x0368 [0x20] SET_CLI_EVENT_UC_FLAG: Unlock player control
 46: 0x036A [0x21] END_EVENT
 47: 0x036B [0x00] END_REQSTACK()
```

### Event 100

#### Metadata

| Field        | Value    |
|--------------|----------|
| Entrypoint   | 0x036C   |
| Data Size    | 29 bytes |
| Instructions | 10       |

```
      00 01 02 03 04 05 06 07  08 09 0A 0B 0C 0D 0E 0F
      -- -- -- -- -- -- -- --  -- -- -- -- -- -- -- --
0360:                                      1E F0 FF FF              ....
0370: 7F 6F 70 29 08 37 01 10  01 0F 1D 1B 80 23 29 08  .op).7.......#).
0380: 37 01 10 01 11 20 00 21  00                       7.... .!.       
```

#### Opcodes

```
  0: 0x036C [0x1E] EventEntity looks at LocalPlayer and starts talking
  1: 0x0371 [0x6F] WAIT_FRAME_DELAY: Yield until WaitTime reaches zero
  2: 0x0372 [0x70] WAIT_ENTITY_RENDER_FLAG: Wait while EventEntity->Render.Flags3 bit 2 is set (cancel turn if not)
  3: 0x0373 [0x29] REQ_SET_WAIT(priority=0x08, entity_id=Wescolina (ID: 17826103/0x01100137), tag_num=0x0F)
  4: 0x037A [0x1D] PRINT_EVENT_MESSAGE(message_id=10086*)
    → "Hut-tut! These things take time, <Player>. You come back a bit lateah, hear?"
  5: 0x037D [0x23] WAIT_FOR_DIALOG_INTERACTION
  6: 0x037E [0x29] REQ_SET_WAIT(priority=0x08, entity_id=Wescolina (ID: 17826103/0x01100137), tag_num=0x11)
  7: 0x0385 [0x20] SET_CLI_EVENT_UC_FLAG: Unlock player control
  8: 0x0387 [0x21] END_EVENT
  9: 0x0388 [0x00] END_REQSTACK()
```

### Event 93

#### Metadata

| Field        | Value   |
|--------------|---------|
| Entrypoint   | 0x0389  |
| Data Size    | 1 bytes |
| Instructions | 1       |

```
      00 01 02 03 04 05 06 07  08 09 0A 0B 0C 0D 0E 0F
      -- -- -- -- -- -- -- --  -- -- -- -- -- -- -- --
0380:                             00                             .      
```

#### Opcodes

```
  0: 0x0389 [0x00] END_REQSTACK()
```

### Event 94

#### Metadata

| Field        | Value   |
|--------------|---------|
| Entrypoint   | 0x038A  |
| Data Size    | 1 bytes |
| Instructions | 1       |

```
      00 01 02 03 04 05 06 07  08 09 0A 0B 0C 0D 0E 0F
      -- -- -- -- -- -- -- --  -- -- -- -- -- -- -- --
0380:                                00                           .     
```

#### Opcodes

```
  0: 0x038A [0x00] END_REQSTACK()
```

### Event 95

#### Metadata

| Field        | Value   |
|--------------|---------|
| Entrypoint   | 0x038B  |
| Data Size    | 1 bytes |
| Instructions | 1       |

```
      00 01 02 03 04 05 06 07  08 09 0A 0B 0C 0D 0E 0F
      -- -- -- -- -- -- -- --  -- -- -- -- -- -- -- --
0380:                                   00                         .    
```

#### Opcodes

```
  0: 0x038B [0x00] END_REQSTACK()
```

### Event 96

#### Metadata

| Field        | Value   |
|--------------|---------|
| Entrypoint   | 0x038C  |
| Data Size    | 1 bytes |
| Instructions | 1       |

```
      00 01 02 03 04 05 06 07  08 09 0A 0B 0C 0D 0E 0F
      -- -- -- -- -- -- -- --  -- -- -- -- -- -- -- --
0380:                                      00                       .   
```

#### Opcodes

```
  0: 0x038C [0x00] END_REQSTACK()
```

### Event 97

#### Metadata

| Field        | Value   |
|--------------|---------|
| Entrypoint   | 0x038D  |
| Data Size    | 1 bytes |
| Instructions | 1       |

```
      00 01 02 03 04 05 06 07  08 09 0A 0B 0C 0D 0E 0F
      -- -- -- -- -- -- -- --  -- -- -- -- -- -- -- --
0380:                                         00                     .  
```

#### Opcodes

```
  0: 0x038D [0x00] END_REQSTACK()
```

### Event 98

#### Metadata

| Field        | Value    |
|--------------|----------|
| Entrypoint   | 0x038E   |
| Data Size    | 29 bytes |
| Instructions | 10       |

```
      00 01 02 03 04 05 06 07  08 09 0A 0B 0C 0D 0E 0F
      -- -- -- -- -- -- -- --  -- -- -- -- -- -- -- --
0380:                                            1E F0                ..
0390: FF FF 7F 6F 70 29 08 37  01 10 01 07 1D 1C 80 23  ...op).7.......#
03A0: 29 08 37 01 10 01 09 20  00 21 00                 ).7.... .!.     
```

#### Opcodes

```
  0: 0x038E [0x1E] EventEntity looks at LocalPlayer and starts talking
  1: 0x0393 [0x6F] WAIT_FRAME_DELAY: Yield until WaitTime reaches zero
  2: 0x0394 [0x70] WAIT_ENTITY_RENDER_FLAG: Wait while EventEntity->Render.Flags3 bit 2 is set (cancel turn if not)
  3: 0x0395 [0x29] REQ_SET_WAIT(priority=0x08, entity_id=Wescolina (ID: 17826103/0x01100137), tag_num=0x07)
  4: 0x039C [0x1D] PRINT_EVENT_MESSAGE(message_id=10123*)
    → "Ah be needin' you to help spread th' word o' Zacariah--'n it'll help Sylvie out too!"
  5: 0x039F [0x23] WAIT_FOR_DIALOG_INTERACTION
  6: 0x03A0 [0x29] REQ_SET_WAIT(priority=0x08, entity_id=Wescolina (ID: 17826103/0x01100137), tag_num=0x09)
  7: 0x03A7 [0x20] SET_CLI_EVENT_UC_FLAG: Unlock player control
  8: 0x03A9 [0x21] END_EVENT
  9: 0x03AA [0x00] END_REQSTACK()
```

### Event 199

#### Metadata

| Field        | Value   |
|--------------|---------|
| Entrypoint   | 0x03AB  |
| Data Size    | 1 bytes |
| Instructions | 1       |

```
      00 01 02 03 04 05 06 07  08 09 0A 0B 0C 0D 0E 0F
      -- -- -- -- -- -- -- --  -- -- -- -- -- -- -- --
03A0:                                   00                         .    
```

#### Opcodes

```
  0: 0x03AB [0x00] END_REQSTACK()
```

### Event 200

#### Metadata

| Field        | Value   |
|--------------|---------|
| Entrypoint   | 0x03AC  |
| Data Size    | 1 bytes |
| Instructions | 1       |

```
      00 01 02 03 04 05 06 07  08 09 0A 0B 0C 0D 0E 0F
      -- -- -- -- -- -- -- --  -- -- -- -- -- -- -- --
03A0:                                      00                       .   
```

#### Opcodes

```
  0: 0x03AC [0x00] END_REQSTACK()
```

### Event 202

#### Metadata

| Field        | Value   |
|--------------|---------|
| Entrypoint   | 0x03AD  |
| Data Size    | 1 bytes |
| Instructions | 1       |

```
      00 01 02 03 04 05 06 07  08 09 0A 0B 0C 0D 0E 0F
      -- -- -- -- -- -- -- --  -- -- -- -- -- -- -- --
03A0:                                         00                     .  
```

#### Opcodes

```
  0: 0x03AD [0x00] END_REQSTACK()
```

### Event 5100

#### Metadata

| Field        | Value     |
|--------------|-----------|
| Entrypoint   | 0x03AE    |
| Data Size    | 842 bytes |
| Instructions | 142       |

```
      00 01 02 03 04 05 06 07  08 09 0A 0B 0C 0D 0E 0F
      -- -- -- -- -- -- -- --  -- -- -- -- -- -- -- --
03A0:                                            03 06                ..
03B0: 00 09 10 02 06 00 13 80  00 BE 03 01 BF 03 42 03  ..............B.
03C0: 01 00 03 10 03 02 00 04  10 03 03 00 05 10 03 04  ................
03D0: 00 06 10 03 05 00 07 10  06 01 10 1E F0 FF FF 7F  ................
03E0: 6F 70 02 06 00 13 80 00  38 04 02 01 00 13 80 00  op......8.......
03F0: F9 03 3C 07 00 07 80 13  80 02 02 00 13 80 00 08  ..<.............
0400: 04 3C 07 00 13 80 13 80  02 03 00 13 80 00 17 04  .<..............
0410: 3C 07 00 18 80 13 80 02  04 00 13 80 00 26 04 3C  <............&.<
0420: 07 00 1D 80 13 80 02 05  00 13 80 00 35 04 3C 07  ............5.<.
0430: 00 1E 80 13 80 01 A2 04  29 08 37 01 10 01 07 1D  ........).7.....
0440: 1F 80 23 29 10 F0 FF FF  7F 06 1C 20 80 29 08 37  ..#)....... .).7
0450: 01 10 01 08 29 08 37 01  10 01 09 48 21 80 1C 00  ....).7....H!...
0460: 80 1D 22 80 23 03 02 10  23 80 1D 24 80 23 29 08  ..".#...#..$.#).
0470: 37 01 10 01 0A 29 08 37  01 10 01 03 03 03 10 25  7....).7.......%
0480: 80 1D 26 80 23 29 08 37  01 10 01 04 29 08 37 01  ..&.#).7....).7.
0490: 10 01 05 1D 27 80 23 1D  28 80 23 29 08 37 01 10  ....'.#.(.#).7..
04A0: 01 06 29 08 37 01 10 01  07 1D 29 80 23 29 08 37  ..).7.....).#).7
04B0: 01 10 01 08 06 00 00 29  08 37 01 10 01 09 03 02  .......).7......
04C0: 10 2A 80 03 03 10 2B 80  03 04 10 2C 80 03 05 10  .*....+....,....
04D0: 2D 80 03 06 10 2E 80 24  2F 80 07 80 07 00 25 02  -......$/.....%.
04E0: 00 10 07 80 00 FC 04 29  08 37 01 10 01 0A 03 00  .......).7......
04F0: 00 07 80 1A C7 05 01 B4  04 01 B5 05 02 00 10 13  ................
0500: 80 00 19 05 29 08 37 01  10 01 0A 03 00 00 13 80  ....).7.........
0510: 1A C7 05 01 B4 04 01 B5  05 02 00 10 18 80 00 36  ...............6
0520: 05 29 08 37 01 10 01 0A  03 00 00 18 80 1A C7 05  .).7............
0530: 01 B4 04 01 B5 05 02 00  10 1D 80 00 53 05 29 08  ............S.).
0540: 37 01 10 01 0A 03 00 00  1D 80 1A C7 05 01 B4 04  7...............
0550: 01 B5 05 02 00 10 1E 80  00 70 05 29 08 37 01 10  .........p.).7..
0560: 01 0A 03 00 00 1E 80 1A  C7 05 01 B4 04 01 B5 05  ................
0570: 02 00 10 30 80 00 B5 05  29 08 37 01 10 01 0A 02  ...0....).7.....
0580: 06 00 13 80 00 8A 05 01  AE 05 29 08 37 01 10 01  ..........).7...
0590: 0B 1D 31 80 23 29 08 37  01 10 01 0C 29 08 37 01  ..1.#).7....).7.
05A0: 10 01 0D 1D 32 80 23 29  08 37 01 10 01 0E 1D 33  ....2.#).7.....3
05B0: 80 23 01 B5 05 02 06 00  13 80 00 C0 05 01 C3 05  .#..............
05C0: 05 01 10 20 00 21 00 02  00 00 07 80 80 F0 05 03  ... .!..........
05D0: 0B 00 2A 80 03 0C 00 34  80 03 0D 00 35 80 03 0E  ..*....4....5...
05E0: 00 36 80 03 0F 00 37 80  03 0A 00 38 80 01 94 06  .6....7....8....
05F0: 02 00 00 13 80 80 19 06  03 0B 00 2B 80 03 0C 00  ...........+....
0600: 34 80 03 0D 00 39 80 03  0E 00 3A 80 03 0F 00 3B  4....9....:....;
0610: 80 03 0A 00 38 80 01 94  06 02 00 00 18 80 80 42  ....8..........B
0620: 06 03 0B 00 2C 80 03 0C  00 34 80 03 0D 00 3C 80  ....,....4....<.
0630: 03 0E 00 3D 80 03 0F 00  3E 80 03 0A 00 38 80 01  ...=....>....8..
0640: 94 06 02 00 00 1D 80 80  6B 06 03 0B 00 2D 80 03  ........k....-..
0650: 0C 00 34 80 03 0D 00 3F  80 03 0E 00 3A 80 03 0F  ..4....?....:...
0660: 00 40 80 03 0A 00 38 80  01 94 06 02 00 00 1E 80  .@....8.........
0670: 80 94 06 03 0B 00 2E 80  03 0C 00 34 80 03 0D 00  ...........4....
0680: 3F 80 03 0E 00 41 80 03  0F 00 42 80 03 0A 00 38  ?....A....B....8
0690: 80 01 94 06 93 0B 00 03  02 10 0B 00 1D 43 80 23  .............C.#
06A0: 93 07 80 29 08 37 01 10  01 03 03 03 10 0C 00 03  ...).7..........
06B0: 04 10 0D 00 03 05 10 0E  00 1D 44 80 23 29 08 37  ..........D.#).7
06C0: 01 10 01 04 29 08 37 01  10 01 05 1D 45 80 23 29  ....).7.....E.#)
06D0: 08 37 01 10 01 06 29 08  37 01 10 01 07 03 03 10  .7....).7.......
06E0: 0C 00 03 06 10 0F 00 03  07 10 0A 00 1D 46 80 23  .............F.#
06F0: 29 08 37 01 10 01 08 1B                           ).7.....        
```

#### Opcodes

```
  0: 0x03AE [0x03] ExtData[1]->WorkLocal[6] = Work_Zone[9]
  1: 0x03B3 [0x02] IF !(ExtData[1]->WorkLocal[6] == 1*) GOTO 0x03BE
  2: 0x03BB [0x01] GOTO 0x03BF
  3: 0x03BE [0x42] SET_CLI_EVENT_CANCEL_DATA()

SUBROUTINE_03BF:
  4: 0x03BF [0x03] ExtData[1]->WorkLocal[1] = Work_Zone[3]
  5: 0x03C4 [0x03] ExtData[1]->WorkLocal[2] = Work_Zone[4]
  6: 0x03C9 [0x03] ExtData[1]->WorkLocal[3] = Work_Zone[5]
  7: 0x03CE [0x03] ExtData[1]->WorkLocal[4] = Work_Zone[6]
  8: 0x03D3 [0x03] ExtData[1]->WorkLocal[5] = Work_Zone[7]
  9: 0x03D8 [0x06] Work_Zone[1] = 0
 10: 0x03DB [0x1E] EventEntity looks at LocalPlayer and starts talking
 11: 0x03E0 [0x6F] WAIT_FRAME_DELAY: Yield until WaitTime reaches zero
 12: 0x03E1 [0x70] WAIT_ENTITY_RENDER_FLAG: Wait while EventEntity->Render.Flags3 bit 2 is set (cancel turn if not)
 13: 0x03E2 [0x02] IF !(ExtData[1]->WorkLocal[6] == 1*) GOTO 0x0438
 14: 0x03EA [0x02] IF !(ExtData[1]->WorkLocal[1] == 1*) GOTO 0x03F9
 15: 0x03F2 [0x3C] SET_BIT_FLAG_CONDITIONAL(target_work_offset=ExtData[1]->WorkLocal[7], bit_index_work_offset=0*, condition_work_offset=1*)
 16: 0x03F9 [0x02] IF !(ExtData[1]->WorkLocal[2] == 1*) GOTO 0x0408
 17: 0x0401 [0x3C] SET_BIT_FLAG_CONDITIONAL(target_work_offset=ExtData[1]->WorkLocal[7], bit_index_work_offset=1*, condition_work_offset=1*)
 18: 0x0408 [0x02] IF !(ExtData[1]->WorkLocal[3] == 1*) GOTO 0x0417
 19: 0x0410 [0x3C] SET_BIT_FLAG_CONDITIONAL(target_work_offset=ExtData[1]->WorkLocal[7], bit_index_work_offset=2*, condition_work_offset=1*)
 20: 0x0417 [0x02] IF !(ExtData[1]->WorkLocal[4] == 1*) GOTO 0x0426
 21: 0x041F [0x3C] SET_BIT_FLAG_CONDITIONAL(target_work_offset=ExtData[1]->WorkLocal[7], bit_index_work_offset=3*, condition_work_offset=1*)
 22: 0x0426 [0x02] IF !(ExtData[1]->WorkLocal[5] == 1*) GOTO 0x0435
 23: 0x042E [0x3C] SET_BIT_FLAG_CONDITIONAL(target_work_offset=ExtData[1]->WorkLocal[7], bit_index_work_offset=4*, condition_work_offset=1*)
 24: 0x0435 [0x01] GOTO 0x04A2
 25: 0x0438 [0x29] REQ_SET_WAIT(priority=0x08, entity_id=Wescolina (ID: 17826103/0x01100137), tag_num=0x07)
 26: 0x043F [0x1D] PRINT_EVENT_MESSAGE(message_id=11514*)
    → "Altana take me! Why, if'n 'tisn't mah sweet ol' pum'kin, <Player>!"
 27: 0x0442 [0x23] WAIT_FOR_DIALOG_INTERACTION
 28: 0x0443 [0x29] REQ_SET_WAIT(priority=0x10, entity_id=LocalPlayer, tag_num=0x06)
 29: 0x044A [0x1C] WAIT(60* ticks)
 30: 0x044D [0x29] REQ_SET_WAIT(priority=0x08, entity_id=Wescolina (ID: 17826103/0x01100137), tag_num=0x08)
 31: 0x0454 [0x29] REQ_SET_WAIT(priority=0x08, entity_id=Wescolina (ID: 17826103/0x01100137), tag_num=0x09)
 32: 0x045B [0x48] [System] [11515*]:
    → "Wescolina's eyes begin to twinkle."
 33: 0x045E [0x1C] WAIT(70* ticks)
 34: 0x0461 [0x1D] PRINT_EVENT_MESSAGE(message_id=11516*)
    → "Well, Ah'll be a leafkin's uncle! The day is 'pon us!"
 35: 0x0464 [0x23] WAIT_FOR_DIALOG_INTERACTION
 36: 0x0465 [0x03] Work_Zone[2] = 2511*
 37: 0x046A [0x1D] PRINT_EVENT_MESSAGE(message_id=11517*)
    → "Ikhi done come o'er heah 'n show me that ol' work from the lieberry. Ah can make 'em for you, right as rain!"
 38: 0x046D [0x23] WAIT_FOR_DIALOG_INTERACTION
 39: 0x046E [0x29] REQ_SET_WAIT(priority=0x08, entity_id=Wescolina (ID: 17826103/0x01100137), tag_num=0x0A)
 40: 0x0475 [0x29] REQ_SET_WAIT(priority=0x08, entity_id=Wescolina (ID: 17826103/0x01100137), tag_num=0x03)
 41: 0x047C [0x03] Work_Zone[3] = 2513*
 42: 0x0481 [0x1D] PRINT_EVENT_MESSAGE(message_id=11518*)
    → "With all those ol' $5 you done brought me, should be as simpl' as pluckin' feathers from a heartwing."
 43: 0x0484 [0x23] WAIT_FOR_DIALOG_INTERACTION
 44: 0x0485 [0x29] REQ_SET_WAIT(priority=0x08, entity_id=Wescolina (ID: 17826103/0x01100137), tag_num=0x04)
 45: 0x048C [0x29] REQ_SET_WAIT(priority=0x08, entity_id=Wescolina (ID: 17826103/0x01100137), tag_num=0x05)
 46: 0x0493 [0x1D] PRINT_EVENT_MESSAGE(message_id=11519*)
    → "'N when it comes to clippers, you came to th' right place, fo' right and fo' true!"
 47: 0x0496 [0x23] WAIT_FOR_DIALOG_INTERACTION
 48: 0x0497 [0x1D] PRINT_EVENT_MESSAGE(message_id=11520*)
    → "Our Or'er of Renaye friends have done paid mah fee in advance, so all I be needin' 'tis the materials t'emselves."
 49: 0x049A [0x23] WAIT_FOR_DIALOG_INTERACTION
 50: 0x049B [0x29] REQ_SET_WAIT(priority=0x08, entity_id=Wescolina (ID: 17826103/0x01100137), tag_num=0x06)

SUBROUTINE_04A2:
 51: 0x04A2 [0x29] REQ_SET_WAIT(priority=0x08, entity_id=Wescolina (ID: 17826103/0x01100137), tag_num=0x07)
 52: 0x04A9 [0x1D] PRINT_EVENT_MESSAGE(message_id=11521*)
    → "I be needin' the right amount to stitch y'self up a mess o' garments. 'Course, all d'pends on what part you want..."
 53: 0x04AC [0x23] WAIT_FOR_DIALOG_INTERACTION
 54: 0x04AD [0x29] REQ_SET_WAIT(priority=0x08, entity_id=Wescolina (ID: 17826103/0x01100137), tag_num=0x08)

SUBROUTINE_04B4:
 55: 0x04B4 [0x06] ExtData[1]->WorkLocal[0] = 0
 56: 0x04B7 [0x29] REQ_SET_WAIT(priority=0x08, entity_id=Wescolina (ID: 17826103/0x01100137), tag_num=0x09)
 57: 0x04BE [0x03] Work_Zone[2] = 26664*
 58: 0x04C3 [0x03] Work_Zone[3] = 26840*
 59: 0x04C8 [0x03] Work_Zone[4] = 27016*
 60: 0x04CD [0x03] Work_Zone[5] = 27192*
 61: 0x04D2 [0x03] Work_Zone[6] = 27368*
 62: 0x04D7 [0x24] CREATE_DIALOG(message_id=11522*, default_option=0*, option_flags=ExtData[1]->WorkLocal[7])
    → "Check for which item? [Head: #./Chest: $1./Hands: $2./Legs: $3./Feet: $4/I'm done for now.]"
 63: 0x04DE [0x25] WAIT_DIALOG_SELECT()
 64: 0x04DF [0x02] IF !(Work_Zone[0] == 0*) GOTO 0x04FC
 65: 0x04E7 [0x29] REQ_SET_WAIT(priority=0x08, entity_id=Wescolina (ID: 17826103/0x01100137), tag_num=0x0A)
 66: 0x04EE [0x03] ExtData[1]->WorkLocal[0] = 0*
 67: 0x04F3 [0x1A] CALL_SUBROUTINE(address=0x05C7)
 68: 0x04F6 [0x01] GOTO 0x04B4

SUBROUTINE_05AE:
 69: 0x05AE [0x1D] PRINT_EVENT_MESSAGE(message_id=11529*)
    → "But in the name o' ol' Zacariah, I promise that you'll have clothin' fittin' of one attuned with nature!"
 70: 0x05B1 [0x23] WAIT_FOR_DIALOG_INTERACTION
 71: 0x05B2 [0x01] GOTO 0x05B5

SUBROUTINE_05B5:
 72: 0x05B5 [0x02] IF !(ExtData[1]->WorkLocal[6] == 1*) GOTO 0x05C0
 73: 0x05BD [0x01] GOTO 0x05C3
 74: 0x05C0 [0x05] Work_Zone[1] = 1

SUBROUTINE_05C3:
 75: 0x05C3 [0x20] SET_CLI_EVENT_UC_FLAG: Unlock player control
 76: 0x05C5 [0x21] END_EVENT
 77: 0x05C6 [0x00] END_REQSTACK()

SUBROUTINE_05C7:
 78: 0x05C7 [0x02] IF !(ExtData[1]->WorkLocal[0] == 0*) GOTO 0x05F0
 79: 0x05CF [0x03] ExtData[1]->WorkLocal[11] = 26664*
 80: 0x05D4 [0x03] ExtData[1]->WorkLocal[12] = 1459*
 81: 0x05D9 [0x03] ExtData[1]->WorkLocal[13] = 4030*
 82: 0x05DE [0x03] ExtData[1]->WorkLocal[14] = 8708*
 83: 0x05E3 [0x03] ExtData[1]->WorkLocal[15] = 5944*
 84: 0x05E8 [0x03] ExtData[1]->WorkLocal[10] = 97000*
 85: 0x05ED [0x01] GOTO 0x0694
 86: 0x05F0 [0x02] IF !(ExtData[1]->WorkLocal[0] == 1*) GOTO 0x0619
 87: 0x05F8 [0x03] ExtData[1]->WorkLocal[11] = 26840*
 88: 0x05FD [0x03] ExtData[1]->WorkLocal[12] = 1459*
 89: 0x0602 [0x03] ExtData[1]->WorkLocal[13] = 1993*
 90: 0x0607 [0x03] ExtData[1]->WorkLocal[14] = 4028*
 91: 0x060C [0x03] ExtData[1]->WorkLocal[15] = 5775*
 92: 0x0611 [0x03] ExtData[1]->WorkLocal[10] = 97000*
 93: 0x0616 [0x01] GOTO 0x0694
 94: 0x0619 [0x02] IF !(ExtData[1]->WorkLocal[0] == 2*) GOTO 0x0642
 95: 0x0621 [0x03] ExtData[1]->WorkLocal[11] = 27016*
 96: 0x0626 [0x03] ExtData[1]->WorkLocal[12] = 1459*
 97: 0x062B [0x03] ExtData[1]->WorkLocal[13] = 4095*
 98: 0x0630 [0x03] ExtData[1]->WorkLocal[14] = 4027*
 99: 0x0635 [0x03] ExtData[1]->WorkLocal[15] = 5941*
100: 0x063A [0x03] ExtData[1]->WorkLocal[10] = 97000*
101: 0x063F [0x01] GOTO 0x0694
102: 0x0642 [0x02] IF !(ExtData[1]->WorkLocal[0] == 3*) GOTO 0x066B
103: 0x064A [0x03] ExtData[1]->WorkLocal[11] = 27192*
104: 0x064F [0x03] ExtData[1]->WorkLocal[12] = 1459*
105: 0x0654 [0x03] ExtData[1]->WorkLocal[13] = 1994*
106: 0x0659 [0x03] ExtData[1]->WorkLocal[14] = 4028*
107: 0x065E [0x03] ExtData[1]->WorkLocal[15] = 5942*
108: 0x0663 [0x03] ExtData[1]->WorkLocal[10] = 97000*
109: 0x0668 [0x01] GOTO 0x0694
110: 0x066B [0x02] IF !(ExtData[1]->WorkLocal[0] == 4*) GOTO 0x0694
111: 0x0673 [0x03] ExtData[1]->WorkLocal[11] = 27368*
112: 0x0678 [0x03] ExtData[1]->WorkLocal[12] = 1459*
113: 0x067D [0x03] ExtData[1]->WorkLocal[13] = 1994*
114: 0x0682 [0x03] ExtData[1]->WorkLocal[14] = 2199*
115: 0x0687 [0x03] ExtData[1]->WorkLocal[15] = 5940*
116: 0x068C [0x03] ExtData[1]->WorkLocal[10] = 97000*
117: 0x0691 [0x01] GOTO 0x0694

SUBROUTINE_0694:
118: 0x0694 [0x93] DISPLAY_ITEM_INFO(item_id=ExtData[1]->WorkLocal[11])
119: 0x0697 [0x03] Work_Zone[2] = ExtData[1]->WorkLocal[11]
120: 0x069C [0x1D] PRINT_EVENT_MESSAGE(message_id=11523*)
    → "Hoo boy, $0?"
121: 0x069F [0x23] WAIT_FOR_DIALOG_INTERACTION
122: 0x06A0 [0x93] DISPLAY_ITEM_INFO(item_id=0*)
123: 0x06A3 [0x29] REQ_SET_WAIT(priority=0x08, entity_id=Wescolina (ID: 17826103/0x01100137), tag_num=0x03)
124: 0x06AA [0x03] Work_Zone[3] = ExtData[1]->WorkLocal[12]
125: 0x06AF [0x03] Work_Zone[4] = ExtData[1]->WorkLocal[13]
126: 0x06B4 [0x03] Work_Zone[5] = ExtData[1]->WorkLocal[14]
127: 0x06B9 [0x1D] PRINT_EVENT_MESSAGE(message_id=11524*)
    → "Lemme jus' put on mah thinkin' bonnet... Yes, I be needin' $1, 'course, in addition to $2 and $3. Yuppers, if'n you could bring those to me that'd be th' bee's knees!"
128: 0x06BC [0x23] WAIT_FOR_DIALOG_INTERACTION
129: 0x06BD [0x29] REQ_SET_WAIT(priority=0x08, entity_id=Wescolina (ID: 17826103/0x01100137), tag_num=0x04)
130: 0x06C4 [0x29] REQ_SET_WAIT(priority=0x08, entity_id=Wescolina (ID: 17826103/0x01100137), tag_num=0x05)
131: 0x06CB [0x1D] PRINT_EVENT_MESSAGE(message_id=11525*)
    → "But Ah know that you're busier than an alley cat durin' matin' season, so Ah can spot you some o' the materials."
132: 0x06CE [0x23] WAIT_FOR_DIALOG_INTERACTION
133: 0x06CF [0x29] REQ_SET_WAIT(priority=0x08, entity_id=Wescolina (ID: 17826103/0x01100137), tag_num=0x06)
134: 0x06D6 [0x29] REQ_SET_WAIT(priority=0x08, entity_id=Wescolina (ID: 17826103/0x01100137), tag_num=0x07)
135: 0x06DD [0x03] Work_Zone[3] = ExtData[1]->WorkLocal[12]
136: 0x06E2 [0x03] Work_Zone[6] = ExtData[1]->WorkLocal[15]
137: 0x06E7 [0x03] Work_Zone[7] = ExtData[1]->WorkLocal[10]
138: 0x06EC [0x1D] PRINT_EVENT_MESSAGE(message_id=11526*)
    → "So if'n you just gimme the most important parts--$1 and $4--together with $5 bayld, I should be able to handle things from theah."
139: 0x06EF [0x23] WAIT_FOR_DIALOG_INTERACTION
140: 0x06F0 [0x29] REQ_SET_WAIT(priority=0x08, entity_id=Wescolina (ID: 17826103/0x01100137), tag_num=0x08)
141: 0x06F7 [0x1B] RETURN
```

#### Data or dead code:

```
# Dead code (unreachable instructions):
     0x04F9 [0x01] GOTO 0x05B5
     0x0516 [0x01] GOTO 0x05B5
     0x0533 [0x01] GOTO 0x05B5
     0x0550 [0x01] GOTO 0x05B5
     0x056D [0x01] GOTO 0x05B5
```

### Event 5101

#### Metadata

| Field        | Value     |
|--------------|-----------|
| Entrypoint   | 0x06F8    |
| Data Size    | 888 bytes |
| Instructions | 176       |

```
      00 01 02 03 04 05 06 07  08 09 0A 0B 0C 0D 0E 0F
      -- -- -- -- -- -- -- --  -- -- -- -- -- -- -- --
06F0:                          42 03 00 00 03 10 03 07          B.......
0700: 00 04 10 03 0A 00 07 10  06 01 10 1E F0 FF FF 7F  ................
0710: 6F 70 02 00 00 13 80 80  27 07 03 02 10 2A 80 03  op......'....*..
0720: 03 10 38 80 01 7B 07 02  00 00 18 80 80 3C 07 03  ..8..{.......<..
0730: 02 10 2B 80 03 03 10 38  80 01 7B 07 02 00 00 1D  ..+....8..{.....
0740: 80 80 51 07 03 02 10 2C  80 03 03 10 38 80 01 7B  ..Q....,....8..{
0750: 07 02 00 00 1E 80 80 66  07 03 02 10 2D 80 03 03  .......f....-...
0760: 10 38 80 01 7B 07 02 00  00 30 80 80 7B 07 03 02  .8..{....0..{...
0770: 10 2E 80 03 03 10 38 80  01 7B 07 02 07 00 13 80  ......8..{......
0780: 00 63 09 29 08 37 01 10  01 07 1D 47 80 23 29 08  .c.).7.....G.#).
0790: 37 01 10 01 08 29 08 37  01 10 01 09 03 04 10 0A  7....).7........
07A0: 00 24 48 80 07 80 07 80  25 02 00 10 07 80 00 DE  .$H.....%.......
07B0: 08 29 08 37 01 10 01 0A  02 00 00 13 80 80 C8 07  .).7............
07C0: 03 01 10 49 80 01 08 08  02 00 00 18 80 80 D8 07  ...I............
07D0: 03 01 10 4A 80 01 08 08  02 00 00 1D 80 80 E8 07  ...J............
07E0: 03 01 10 4B 80 01 08 08  02 00 00 1E 80 80 F8 07  ...K............
07F0: 03 01 10 4C 80 01 08 08  02 00 00 30 80 80 08 08  ...L.......0....
0800: 03 01 10 4D 80 01 08 08  43 00 43 01 02 06 10 13  ...M....C.C.....
0810: 80 04 6B 08 02 06 10 13  80 80 24 08 03 01 10 18  ..k.......$.....
0820: 80 01 64 08 02 06 10 18  80 80 34 08 03 01 10 4E  ..d.......4....N
0830: 80 01 64 08 02 06 10 1D  80 80 44 08 03 01 10 4F  ..d.......D....O
0840: 80 01 64 08 02 06 10 1E  80 80 54 08 03 01 10 50  ..d.......T....P
0850: 80 01 64 08 02 06 10 30  80 80 64 08 03 01 10 51  ..d....0..d....Q
0860: 80 01 64 08 1D 52 80 23  01 DB 08 02 00 00 13 80  ..d..R.#........
0870: 80 7B 08 03 01 10 1E 80  01 BB 08 02 00 00 18 80  .{..............
0880: 80 8B 08 03 01 10 53 80  01 BB 08 02 00 00 1D 80  ......S.........
0890: 80 9B 08 03 01 10 54 80  01 BB 08 02 00 00 1E 80  ......T.........
08A0: 80 AB 08 03 01 10 55 80  01 BB 08 02 00 00 30 80  ......U.......0.
08B0: 80 BB 08 03 01 10 56 80  01 BB 08 29 08 37 01 10  ......V....).7..
08C0: 01 03 1D 57 80 23 29 08  37 01 10 01 04 29 08 37  ...W.#).7....).7
08D0: 01 10 01 03 29 08 37 01  10 01 04 01 60 09 02 00  ....).7.....`...
08E0: 10 13 80 00 60 09 29 08  37 01 10 01 0A 02 00 00  ....`.).7.......
08F0: 13 80 80 FD 08 03 01 10  1E 80 01 3D 09 02 00 00  ...........=....
0900: 18 80 80 0D 09 03 01 10  53 80 01 3D 09 02 00 00  ........S..=....
0910: 1D 80 80 1D 09 03 01 10  54 80 01 3D 09 02 00 00  ........T..=....
0920: 1E 80 80 2D 09 03 01 10  55 80 01 3D 09 02 00 00  ...-....U..=....
0930: 30 80 80 3D 09 03 01 10  56 80 01 3D 09 29 08 37  0..=....V..=.).7
0940: 01 10 01 0F 1D 58 80 23  29 08 37 01 10 01 10 29  .....X.#).7....)
0950: 08 37 01 10 01 11 29 08  37 01 10 01 12 01 60 09  .7....).7.....`.
0960: 01 6C 0A 29 08 37 01 10  01 07 1D 59 80 23 29 08  .l.).7.....Y.#).
0970: 37 01 10 01 08 29 08 37  01 10 01 09 24 5A 80 07  7....).7....$Z..
0980: 80 07 80 25 02 00 10 07  80 00 EA 09 29 08 37 01  ...%........).7.
0990: 10 01 0A 02 00 00 13 80  80 A3 09 03 01 10 13 80  ................
09A0: 01 E3 09 02 00 00 18 80  80 B3 09 03 01 10 30 80  ..............0.
09B0: 01 E3 09 02 00 00 1D 80  80 C3 09 03 01 10 5B 80  ..............[.
09C0: 01 E3 09 02 00 00 1E 80  80 D3 09 03 01 10 04 80  ................
09D0: 01 E3 09 02 00 00 30 80  80 E3 09 03 01 10 5C 80  ......0.......\.
09E0: 01 E3 09 1D 52 80 23 01  6C 0A 02 00 10 13 80 00  ....R.#.l.......
09F0: 6C 0A 29 08 37 01 10 01  0A 02 00 00 13 80 80 09  l.).7...........
0A00: 0A 03 01 10 1D 80 01 49  0A 02 00 00 18 80 80 19  .......I........
0A10: 0A 03 01 10 5D 80 01 49  0A 02 00 00 1D 80 80 29  ....]..I.......)
0A20: 0A 03 01 10 5E 80 01 49  0A 02 00 00 1E 80 80 39  ....^..I.......9
0A30: 0A 03 01 10 5F 80 01 49  0A 02 00 00 30 80 80 49  ...._..I....0..I
0A40: 0A 03 01 10 60 80 01 49  0A 29 08 37 01 10 01 0F  ....`..I.).7....
0A50: 1D 58 80 23 29 08 37 01  10 01 10 29 08 37 01 10  .X.#).7....).7..
0A60: 01 11 29 08 37 01 10 01  12 01 6C 0A 20 00 21 00  ..).7.....l. .!.
```

#### Opcodes

```
  0: 0x06F8 [0x42] SET_CLI_EVENT_CANCEL_DATA()
  1: 0x06F9 [0x03] ExtData[1]->WorkLocal[0] = Work_Zone[3]
  2: 0x06FE [0x03] ExtData[1]->WorkLocal[7] = Work_Zone[4]
  3: 0x0703 [0x03] ExtData[1]->WorkLocal[10] = Work_Zone[7]
  4: 0x0708 [0x06] Work_Zone[1] = 0
  5: 0x070B [0x1E] EventEntity looks at LocalPlayer and starts talking
  6: 0x0710 [0x6F] WAIT_FRAME_DELAY: Yield until WaitTime reaches zero
  7: 0x0711 [0x70] WAIT_ENTITY_RENDER_FLAG: Wait while EventEntity->Render.Flags3 bit 2 is set (cancel turn if not)
  8: 0x0712 [0x02] IF !(ExtData[1]->WorkLocal[0] == 1*) GOTO 0x0727
  9: 0x071A [0x03] Work_Zone[2] = 26664*
 10: 0x071F [0x03] Work_Zone[3] = 97000*
 11: 0x0724 [0x01] GOTO 0x077B
 12: 0x0727 [0x02] IF !(ExtData[1]->WorkLocal[0] == 2*) GOTO 0x073C
 13: 0x072F [0x03] Work_Zone[2] = 26840*
 14: 0x0734 [0x03] Work_Zone[3] = 97000*
 15: 0x0739 [0x01] GOTO 0x077B
 16: 0x073C [0x02] IF !(ExtData[1]->WorkLocal[0] == 3*) GOTO 0x0751
 17: 0x0744 [0x03] Work_Zone[2] = 27016*
 18: 0x0749 [0x03] Work_Zone[3] = 97000*
 19: 0x074E [0x01] GOTO 0x077B
 20: 0x0751 [0x02] IF !(ExtData[1]->WorkLocal[0] == 4*) GOTO 0x0766
 21: 0x0759 [0x03] Work_Zone[2] = 27192*
 22: 0x075E [0x03] Work_Zone[3] = 97000*
 23: 0x0763 [0x01] GOTO 0x077B
 24: 0x0766 [0x02] IF !(ExtData[1]->WorkLocal[0] == 5*) GOTO 0x077B
 25: 0x076E [0x03] Work_Zone[2] = 27368*
 26: 0x0773 [0x03] Work_Zone[3] = 97000*
 27: 0x0778 [0x01] GOTO 0x077B

SUBROUTINE_077B:
 28: 0x077B [0x02] IF !(ExtData[1]->WorkLocal[7] == 1*) GOTO 0x0963
 29: 0x0783 [0x29] REQ_SET_WAIT(priority=0x08, entity_id=Wescolina (ID: 17826103/0x01100137), tag_num=0x07)
 30: 0x078A [0x1D] PRINT_EVENT_MESSAGE(message_id=11532*)
    → "Well, slap mah bum 'n call me Shirley, you do! Ready to have me lovin'ly stitch together your $0 for $1 bayld in place 'o th' othah materials?"
 31: 0x078D [0x23] WAIT_FOR_DIALOG_INTERACTION
 32: 0x078E [0x29] REQ_SET_WAIT(priority=0x08, entity_id=Wescolina (ID: 17826103/0x01100137), tag_num=0x08)
 33: 0x0795 [0x29] REQ_SET_WAIT(priority=0x08, entity_id=Wescolina (ID: 17826103/0x01100137), tag_num=0x09)
 34: 0x079C [0x03] Work_Zone[4] = ExtData[1]->WorkLocal[10]
 35: 0x07A1 [0x24] CREATE_DIALOG(message_id=11533*, default_option=0*, option_flags=0*)
    → "Pay the price? (You have $2 bayld). [$1 bayld? Absolutely, Shirley./No. Haven't I suffered enough?]"
 36: 0x07A8 [0x25] WAIT_DIALOG_SELECT()
 37: 0x07A9 [0x02] IF !(Work_Zone[0] == 0*) GOTO 0x08DE
 38: 0x07B1 [0x29] REQ_SET_WAIT(priority=0x08, entity_id=Wescolina (ID: 17826103/0x01100137), tag_num=0x0A)
 39: 0x07B8 [0x02] IF !(ExtData[1]->WorkLocal[0] == 1*) GOTO 0x07C8
 40: 0x07C0 [0x03] Work_Zone[1] = 21*
 41: 0x07C5 [0x01] GOTO 0x0808
 42: 0x07C8 [0x02] IF !(ExtData[1]->WorkLocal[0] == 2*) GOTO 0x07D8
 43: 0x07D0 [0x03] Work_Zone[1] = 22*
 44: 0x07D5 [0x01] GOTO 0x0808
 45: 0x07D8 [0x02] IF !(ExtData[1]->WorkLocal[0] == 3*) GOTO 0x07E8
 46: 0x07E0 [0x03] Work_Zone[1] = 23*
 47: 0x07E5 [0x01] GOTO 0x0808
 48: 0x07E8 [0x02] IF !(ExtData[1]->WorkLocal[0] == 4*) GOTO 0x07F8
 49: 0x07F0 [0x03] Work_Zone[1] = 24*
 50: 0x07F5 [0x01] GOTO 0x0808
 51: 0x07F8 [0x02] IF !(ExtData[1]->WorkLocal[0] == 5*) GOTO 0x0808
 52: 0x0800 [0x03] Work_Zone[1] = 25*
 53: 0x0805 [0x01] GOTO 0x0808

SUBROUTINE_0808:
 54: 0x0808 [0x43] SEND_EVENT_UPDATE: Send pending tag to server (packet 0x005B)
 55: 0x080A [0x43] SEND_EVENT_UPDATE: Check pending flag (skip if not pending)
 56: 0x080C [0x02] IF !(Work_Zone[6] < 1*) GOTO 0x086B
 57: 0x0814 [0x02] IF !(Work_Zone[6] == 1*) GOTO 0x0824
 58: 0x081C [0x03] Work_Zone[1] = 2*
 59: 0x0821 [0x01] GOTO 0x0864
 60: 0x0824 [0x02] IF !(Work_Zone[6] == 2*) GOTO 0x0834
 61: 0x082C [0x03] Work_Zone[1] = 6*
 62: 0x0831 [0x01] GOTO 0x0864
 63: 0x0834 [0x02] IF !(Work_Zone[6] == 3*) GOTO 0x0844
 64: 0x083C [0x03] Work_Zone[1] = 10*
 65: 0x0841 [0x01] GOTO 0x0864
 66: 0x0844 [0x02] IF !(Work_Zone[6] == 4*) GOTO 0x0854
 67: 0x084C [0x03] Work_Zone[1] = 14*
 68: 0x0851 [0x01] GOTO 0x0864
 69: 0x0854 [0x02] IF !(Work_Zone[6] == 5*) GOTO 0x0864
 70: 0x085C [0x03] Work_Zone[1] = 18*
 71: 0x0861 [0x01] GOTO 0x0864

SUBROUTINE_0864:
 72: 0x0864 [0x1D] PRINT_EVENT_MESSAGE(message_id=11535*)
    → "Right! These fingers're jus' itchin' to get down to work!"
 73: 0x0867 [0x23] WAIT_FOR_DIALOG_INTERACTION
 74: 0x0868 [0x01] GOTO 0x08DB
 75: 0x086B [0x02] IF !(ExtData[1]->WorkLocal[0] == 1*) GOTO 0x087B
 76: 0x0873 [0x03] Work_Zone[1] = 4*
 77: 0x0878 [0x01] GOTO 0x08BB
 78: 0x087B [0x02] IF !(ExtData[1]->WorkLocal[0] == 2*) GOTO 0x088B
 79: 0x0883 [0x03] Work_Zone[1] = 8*
 80: 0x0888 [0x01] GOTO 0x08BB
 81: 0x088B [0x02] IF !(ExtData[1]->WorkLocal[0] == 3*) GOTO 0x089B
 82: 0x0893 [0x03] Work_Zone[1] = 12*
 83: 0x0898 [0x01] GOTO 0x08BB
 84: 0x089B [0x02] IF !(ExtData[1]->WorkLocal[0] == 4*) GOTO 0x08AB
 85: 0x08A3 [0x03] Work_Zone[1] = 16*
 86: 0x08A8 [0x01] GOTO 0x08BB
 87: 0x08AB [0x02] IF !(ExtData[1]->WorkLocal[0] == 5*) GOTO 0x08BB
 88: 0x08B3 [0x03] Work_Zone[1] = 20*
 89: 0x08B8 [0x01] GOTO 0x08BB

SUBROUTINE_08BB:
 90: 0x08BB [0x29] REQ_SET_WAIT(priority=0x08, entity_id=Wescolina (ID: 17826103/0x01100137), tag_num=0x03)
 91: 0x08C2 [0x1D] PRINT_EVENT_MESSAGE(message_id=11536*)
    → "Hon, you don' have 'nough bayld."
 92: 0x08C5 [0x23] WAIT_FOR_DIALOG_INTERACTION
 93: 0x08C6 [0x29] REQ_SET_WAIT(priority=0x08, entity_id=Wescolina (ID: 17826103/0x01100137), tag_num=0x04)
 94: 0x08CD [0x29] REQ_SET_WAIT(priority=0x08, entity_id=Wescolina (ID: 17826103/0x01100137), tag_num=0x03)
 95: 0x08D4 [0x29] REQ_SET_WAIT(priority=0x08, entity_id=Wescolina (ID: 17826103/0x01100137), tag_num=0x04)

SUBROUTINE_08DB:
 96: 0x08DB [0x01] GOTO 0x0960
 97: 0x08DE [0x02] IF !(Work_Zone[0] == 1*) GOTO 0x0960
 98: 0x08E6 [0x29] REQ_SET_WAIT(priority=0x08, entity_id=Wescolina (ID: 17826103/0x01100137), tag_num=0x0A)
 99: 0x08ED [0x02] IF !(ExtData[1]->WorkLocal[0] == 1*) GOTO 0x08FD
100: 0x08F5 [0x03] Work_Zone[1] = 4*
101: 0x08FA [0x01] GOTO 0x093D
102: 0x08FD [0x02] IF !(ExtData[1]->WorkLocal[0] == 2*) GOTO 0x090D
103: 0x0905 [0x03] Work_Zone[1] = 8*
104: 0x090A [0x01] GOTO 0x093D
105: 0x090D [0x02] IF !(ExtData[1]->WorkLocal[0] == 3*) GOTO 0x091D
106: 0x0915 [0x03] Work_Zone[1] = 12*
107: 0x091A [0x01] GOTO 0x093D
108: 0x091D [0x02] IF !(ExtData[1]->WorkLocal[0] == 4*) GOTO 0x092D
109: 0x0925 [0x03] Work_Zone[1] = 16*
110: 0x092A [0x01] GOTO 0x093D
111: 0x092D [0x02] IF !(ExtData[1]->WorkLocal[0] == 5*) GOTO 0x093D
112: 0x0935 [0x03] Work_Zone[1] = 20*
113: 0x093A [0x01] GOTO 0x093D

SUBROUTINE_093D:
114: 0x093D [0x29] REQ_SET_WAIT(priority=0x08, entity_id=Wescolina (ID: 17826103/0x01100137), tag_num=0x0F)
115: 0x0944 [0x1D] PRINT_EVENT_MESSAGE(message_id=11534*)
    → "But darlin', we've barely gotten started!"
116: 0x0947 [0x23] WAIT_FOR_DIALOG_INTERACTION
117: 0x0948 [0x29] REQ_SET_WAIT(priority=0x08, entity_id=Wescolina (ID: 17826103/0x01100137), tag_num=0x10)
118: 0x094F [0x29] REQ_SET_WAIT(priority=0x08, entity_id=Wescolina (ID: 17826103/0x01100137), tag_num=0x11)
119: 0x0956 [0x29] REQ_SET_WAIT(priority=0x08, entity_id=Wescolina (ID: 17826103/0x01100137), tag_num=0x12)
120: 0x095D [0x01] GOTO 0x0960

SUBROUTINE_0960:
121: 0x0960 [0x01] GOTO 0x0A6C
122: 0x0963 [0x29] REQ_SET_WAIT(priority=0x08, entity_id=Wescolina (ID: 17826103/0x01100137), tag_num=0x07)
123: 0x096A [0x1D] PRINT_EVENT_MESSAGE(message_id=11530*)
    → "Positively wunn'ful, <Player>! I trust you have th' items Ah need for your $0?"
124: 0x096D [0x23] WAIT_FOR_DIALOG_INTERACTION
125: 0x096E [0x29] REQ_SET_WAIT(priority=0x08, entity_id=Wescolina (ID: 17826103/0x01100137), tag_num=0x08)
126: 0x0975 [0x29] REQ_SET_WAIT(priority=0x08, entity_id=Wescolina (ID: 17826103/0x01100137), tag_num=0x09)
127: 0x097C [0x24] CREATE_DIALOG(message_id=11531*, default_option=0*, option_flags=0*)
    → "Have Wecolina create your garment? [By the Goddess, yes!/No...stop talking.]"
128: 0x0983 [0x25] WAIT_DIALOG_SELECT()
129: 0x0984 [0x02] IF !(Work_Zone[0] == 0*) GOTO 0x09EA
130: 0x098C [0x29] REQ_SET_WAIT(priority=0x08, entity_id=Wescolina (ID: 17826103/0x01100137), tag_num=0x0A)
131: 0x0993 [0x02] IF !(ExtData[1]->WorkLocal[0] == 1*) GOTO 0x09A3
132: 0x099B [0x03] Work_Zone[1] = 1*
133: 0x09A0 [0x01] GOTO 0x09E3
134: 0x09A3 [0x02] IF !(ExtData[1]->WorkLocal[0] == 2*) GOTO 0x09B3
135: 0x09AB [0x03] Work_Zone[1] = 5*
136: 0x09B0 [0x01] GOTO 0x09E3
137: 0x09B3 [0x02] IF !(ExtData[1]->WorkLocal[0] == 3*) GOTO 0x09C3
138: 0x09BB [0x03] Work_Zone[1] = 9*
139: 0x09C0 [0x01] GOTO 0x09E3
140: 0x09C3 [0x02] IF !(ExtData[1]->WorkLocal[0] == 4*) GOTO 0x09D3
141: 0x09CB [0x03] Work_Zone[1] = 13*
142: 0x09D0 [0x01] GOTO 0x09E3
143: 0x09D3 [0x02] IF !(ExtData[1]->WorkLocal[0] == 5*) GOTO 0x09E3
144: 0x09DB [0x03] Work_Zone[1] = 17*
145: 0x09E0 [0x01] GOTO 0x09E3

SUBROUTINE_09E3:
146: 0x09E3 [0x1D] PRINT_EVENT_MESSAGE(message_id=11535*)
    → "Right! These fingers're jus' itchin' to get down to work!"
147: 0x09E6 [0x23] WAIT_FOR_DIALOG_INTERACTION
148: 0x09E7 [0x01] GOTO 0x0A6C
149: 0x09EA [0x02] IF !(Work_Zone[0] == 1*) GOTO 0x0A6C
150: 0x09F2 [0x29] REQ_SET_WAIT(priority=0x08, entity_id=Wescolina (ID: 17826103/0x01100137), tag_num=0x0A)
151: 0x09F9 [0x02] IF !(ExtData[1]->WorkLocal[0] == 1*) GOTO 0x0A09
152: 0x0A01 [0x03] Work_Zone[1] = 3*
153: 0x0A06 [0x01] GOTO 0x0A49
154: 0x0A09 [0x02] IF !(ExtData[1]->WorkLocal[0] == 2*) GOTO 0x0A19
155: 0x0A11 [0x03] Work_Zone[1] = 7*
156: 0x0A16 [0x01] GOTO 0x0A49
157: 0x0A19 [0x02] IF !(ExtData[1]->WorkLocal[0] == 3*) GOTO 0x0A29
158: 0x0A21 [0x03] Work_Zone[1] = 11*
159: 0x0A26 [0x01] GOTO 0x0A49
160: 0x0A29 [0x02] IF !(ExtData[1]->WorkLocal[0] == 4*) GOTO 0x0A39
161: 0x0A31 [0x03] Work_Zone[1] = 15*
162: 0x0A36 [0x01] GOTO 0x0A49
163: 0x0A39 [0x02] IF !(ExtData[1]->WorkLocal[0] == 5*) GOTO 0x0A49
164: 0x0A41 [0x03] Work_Zone[1] = 19*
165: 0x0A46 [0x01] GOTO 0x0A49

SUBROUTINE_0A49:
166: 0x0A49 [0x29] REQ_SET_WAIT(priority=0x08, entity_id=Wescolina (ID: 17826103/0x01100137), tag_num=0x0F)
167: 0x0A50 [0x1D] PRINT_EVENT_MESSAGE(message_id=11534*)
    → "But darlin', we've barely gotten started!"
168: 0x0A53 [0x23] WAIT_FOR_DIALOG_INTERACTION
169: 0x0A54 [0x29] REQ_SET_WAIT(priority=0x08, entity_id=Wescolina (ID: 17826103/0x01100137), tag_num=0x10)
170: 0x0A5B [0x29] REQ_SET_WAIT(priority=0x08, entity_id=Wescolina (ID: 17826103/0x01100137), tag_num=0x11)
171: 0x0A62 [0x29] REQ_SET_WAIT(priority=0x08, entity_id=Wescolina (ID: 17826103/0x01100137), tag_num=0x12)
172: 0x0A69 [0x01] GOTO 0x0A6C

SUBROUTINE_0A6C:
173: 0x0A6C [0x20] SET_CLI_EVENT_UC_FLAG: Unlock player control
174: 0x0A6E [0x21] END_EVENT
175: 0x0A6F [0x00] END_REQSTACK()
```

### Event 5108

#### Metadata

| Field        | Value     |
|--------------|-----------|
| Entrypoint   | 0x0A70    |
| Data Size    | 996 bytes |
| Instructions | 197       |

```
      00 01 02 03 04 05 06 07  08 09 0A 0B 0C 0D 0E 0F
      -- -- -- -- -- -- -- --  -- -- -- -- -- -- -- --
0A70: 42 03 00 00 03 10 03 08  00 08 10 03 09 00 09 10  B...............
0A80: 03 0A 00 07 10 06 01 10  1E F0 FF FF 7F 6F 70 02  .............op.
0A90: 00 00 13 80 80 A4 0A 03  02 10 2A 80 03 03 10 38  ..........*....8
0AA0: 80 01 F8 0A 02 00 00 18  80 80 B9 0A 03 02 10 2B  ...............+
0AB0: 80 03 03 10 38 80 01 F8  0A 02 00 00 1D 80 80 CE  ....8...........
0AC0: 0A 03 02 10 2C 80 03 03  10 38 80 01 F8 0A 02 00  ....,....8......
0AD0: 00 1E 80 80 E3 0A 03 02  10 2D 80 03 03 10 38 80  .........-....8.
0AE0: 01 F8 0A 02 00 00 30 80  80 F8 0A 03 02 10 2E 80  ......0.........
0AF0: 03 03 10 38 80 01 F8 0A  02 08 00 13 80 00 6B 0C  ...8..........k.
0B00: 02 09 00 13 80 00 5F 0B  02 00 00 13 80 80 18 0B  ......_.........
0B10: 03 01 10 18 80 01 58 0B  02 00 00 18 80 80 28 0B  ......X.......(.
0B20: 03 01 10 4E 80 01 58 0B  02 00 00 1D 80 80 38 0B  ...N..X.......8.
0B30: 03 01 10 4F 80 01 58 0B  02 00 00 1E 80 80 48 0B  ...O..X.......H.
0B40: 03 01 10 50 80 01 58 0B  02 00 00 30 80 80 58 0B  ...P..X....0..X.
0B50: 03 01 10 51 80 01 58 0B  1D 52 80 23 01 68 0C 29  ...Q..X..R.#.h.)
0B60: 08 37 01 10 01 07 1D 59  80 23 29 08 37 01 10 01  .7.....Y.#).7...
0B70: 08 29 08 37 01 10 01 09  24 5A 80 07 80 07 80 25  .).7....$Z.....%
0B80: 02 00 10 07 80 00 E6 0B  29 08 37 01 10 01 0A 02  ........).7.....
0B90: 00 00 13 80 80 9F 0B 03  01 10 13 80 01 DF 0B 02  ................
0BA0: 00 00 18 80 80 AF 0B 03  01 10 30 80 01 DF 0B 02  ..........0.....
0BB0: 00 00 1D 80 80 BF 0B 03  01 10 5B 80 01 DF 0B 02  ..........[.....
0BC0: 00 00 1E 80 80 CF 0B 03  01 10 04 80 01 DF 0B 02  ................
0BD0: 00 00 30 80 80 DF 0B 03  01 10 5C 80 01 DF 0B 1D  ..0.......\.....
0BE0: 52 80 23 01 68 0C 02 00  10 13 80 00 68 0C 29 08  R.#.h.......h.).
0BF0: 37 01 10 01 0A 02 00 00  13 80 80 05 0C 03 01 10  7...............
0C00: 1D 80 01 45 0C 02 00 00  18 80 80 15 0C 03 01 10  ...E............
0C10: 5D 80 01 45 0C 02 00 00  1D 80 80 25 0C 03 01 10  ]..E.......%....
0C20: 5E 80 01 45 0C 02 00 00  1E 80 80 35 0C 03 01 10  ^..E.......5....
0C30: 5F 80 01 45 0C 02 00 00  30 80 80 45 0C 03 01 10  _..E....0..E....
0C40: 60 80 01 45 0C 29 08 37  01 10 01 0F 1D 58 80 23  `..E.).7.....X.#
0C50: 29 08 37 01 10 01 10 29  08 37 01 10 01 11 29 08  ).7....).7....).
0C60: 37 01 10 01 12 01 68 0C  01 50 0E 02 09 00 13 80  7.....h..P......
0C70: 00 50 0E 29 08 37 01 10  01 07 1D 47 80 23 29 08  .P.).7.....G.#).
0C80: 37 01 10 01 08 29 08 37  01 10 01 09 03 04 10 0A  7....).7........
0C90: 00 24 48 80 07 80 07 80  25 02 00 10 07 80 00 CE  .$H.....%.......
0CA0: 0D 29 08 37 01 10 01 0A  02 00 00 13 80 80 B8 0C  .).7............
0CB0: 03 01 10 49 80 01 F8 0C  02 00 00 18 80 80 C8 0C  ...I............
0CC0: 03 01 10 4A 80 01 F8 0C  02 00 00 1D 80 80 D8 0C  ...J............
0CD0: 03 01 10 4B 80 01 F8 0C  02 00 00 1E 80 80 E8 0C  ...K............
0CE0: 03 01 10 4C 80 01 F8 0C  02 00 00 30 80 80 F8 0C  ...L.......0....
0CF0: 03 01 10 4D 80 01 F8 0C  43 00 43 01 02 06 10 13  ...M....C.C.....
0D00: 80 04 5B 0D 02 06 10 13  80 80 14 0D 03 01 10 18  ..[.............
0D10: 80 01 54 0D 02 06 10 18  80 80 24 0D 03 01 10 4E  ..T.......$....N
0D20: 80 01 54 0D 02 06 10 1D  80 80 34 0D 03 01 10 4F  ..T.......4....O
0D30: 80 01 54 0D 02 06 10 1E  80 80 44 0D 03 01 10 50  ..T.......D....P
0D40: 80 01 54 0D 02 06 10 30  80 80 54 0D 03 01 10 51  ..T....0..T....Q
0D50: 80 01 54 0D 1D 52 80 23  01 CB 0D 02 00 00 13 80  ..T..R.#........
0D60: 80 6B 0D 03 01 10 1E 80  01 AB 0D 02 00 00 18 80  .k..............
0D70: 80 7B 0D 03 01 10 53 80  01 AB 0D 02 00 00 1D 80  .{....S.........
0D80: 80 8B 0D 03 01 10 54 80  01 AB 0D 02 00 00 1E 80  ......T.........
0D90: 80 9B 0D 03 01 10 55 80  01 AB 0D 02 00 00 30 80  ......U.......0.
0DA0: 80 AB 0D 03 01 10 56 80  01 AB 0D 29 08 37 01 10  ......V....).7..
0DB0: 01 03 1D 57 80 23 29 08  37 01 10 01 04 29 08 37  ...W.#).7....).7
0DC0: 01 10 01 03 29 08 37 01  10 01 04 01 50 0E 02 00  ....).7.....P...
0DD0: 10 13 80 00 50 0E 29 08  37 01 10 01 0A 02 00 00  ....P.).7.......
0DE0: 13 80 80 ED 0D 03 01 10  1E 80 01 2D 0E 02 00 00  ...........-....
0DF0: 18 80 80 FD 0D 03 01 10  53 80 01 2D 0E 02 00 00  ........S..-....
0E00: 1D 80 80 0D 0E 03 01 10  54 80 01 2D 0E 02 00 00  ........T..-....
0E10: 1E 80 80 1D 0E 03 01 10  55 80 01 2D 0E 02 00 00  ........U..-....
0E20: 30 80 80 2D 0E 03 01 10  56 80 01 2D 0E 29 08 37  0..-....V..-.).7
0E30: 01 10 01 0F 1D 58 80 23  29 08 37 01 10 01 10 29  .....X.#).7....)
0E40: 08 37 01 10 01 11 29 08  37 01 10 01 12 01 50 0E  .7....).7.....P.
0E50: 20 00 21 00                                        .!.            
```

#### Opcodes

```
  0: 0x0A70 [0x42] SET_CLI_EVENT_CANCEL_DATA()
  1: 0x0A71 [0x03] ExtData[1]->WorkLocal[0] = Work_Zone[3]
  2: 0x0A76 [0x03] ExtData[1]->WorkLocal[8] = Work_Zone[8]
  3: 0x0A7B [0x03] ExtData[1]->WorkLocal[9] = Work_Zone[9]
  4: 0x0A80 [0x03] ExtData[1]->WorkLocal[10] = Work_Zone[7]
  5: 0x0A85 [0x06] Work_Zone[1] = 0
  6: 0x0A88 [0x1E] EventEntity looks at LocalPlayer and starts talking
  7: 0x0A8D [0x6F] WAIT_FRAME_DELAY: Yield until WaitTime reaches zero
  8: 0x0A8E [0x70] WAIT_ENTITY_RENDER_FLAG: Wait while EventEntity->Render.Flags3 bit 2 is set (cancel turn if not)
  9: 0x0A8F [0x02] IF !(ExtData[1]->WorkLocal[0] == 1*) GOTO 0x0AA4
 10: 0x0A97 [0x03] Work_Zone[2] = 26664*
 11: 0x0A9C [0x03] Work_Zone[3] = 97000*
 12: 0x0AA1 [0x01] GOTO 0x0AF8
 13: 0x0AA4 [0x02] IF !(ExtData[1]->WorkLocal[0] == 2*) GOTO 0x0AB9
 14: 0x0AAC [0x03] Work_Zone[2] = 26840*
 15: 0x0AB1 [0x03] Work_Zone[3] = 97000*
 16: 0x0AB6 [0x01] GOTO 0x0AF8
 17: 0x0AB9 [0x02] IF !(ExtData[1]->WorkLocal[0] == 3*) GOTO 0x0ACE
 18: 0x0AC1 [0x03] Work_Zone[2] = 27016*
 19: 0x0AC6 [0x03] Work_Zone[3] = 97000*
 20: 0x0ACB [0x01] GOTO 0x0AF8
 21: 0x0ACE [0x02] IF !(ExtData[1]->WorkLocal[0] == 4*) GOTO 0x0AE3
 22: 0x0AD6 [0x03] Work_Zone[2] = 27192*
 23: 0x0ADB [0x03] Work_Zone[3] = 97000*
 24: 0x0AE0 [0x01] GOTO 0x0AF8
 25: 0x0AE3 [0x02] IF !(ExtData[1]->WorkLocal[0] == 5*) GOTO 0x0AF8
 26: 0x0AEB [0x03] Work_Zone[2] = 27368*
 27: 0x0AF0 [0x03] Work_Zone[3] = 97000*
 28: 0x0AF5 [0x01] GOTO 0x0AF8

SUBROUTINE_0AF8:
 29: 0x0AF8 [0x02] IF !(ExtData[1]->WorkLocal[8] == 1*) GOTO 0x0C6B
 30: 0x0B00 [0x02] IF !(ExtData[1]->WorkLocal[9] == 1*) GOTO 0x0B5F
 31: 0x0B08 [0x02] IF !(ExtData[1]->WorkLocal[0] == 1*) GOTO 0x0B18
 32: 0x0B10 [0x03] Work_Zone[1] = 2*
 33: 0x0B15 [0x01] GOTO 0x0B58
 34: 0x0B18 [0x02] IF !(ExtData[1]->WorkLocal[0] == 2*) GOTO 0x0B28
 35: 0x0B20 [0x03] Work_Zone[1] = 6*
 36: 0x0B25 [0x01] GOTO 0x0B58
 37: 0x0B28 [0x02] IF !(ExtData[1]->WorkLocal[0] == 3*) GOTO 0x0B38
 38: 0x0B30 [0x03] Work_Zone[1] = 10*
 39: 0x0B35 [0x01] GOTO 0x0B58
 40: 0x0B38 [0x02] IF !(ExtData[1]->WorkLocal[0] == 4*) GOTO 0x0B48
 41: 0x0B40 [0x03] Work_Zone[1] = 14*
 42: 0x0B45 [0x01] GOTO 0x0B58
 43: 0x0B48 [0x02] IF !(ExtData[1]->WorkLocal[0] == 5*) GOTO 0x0B58
 44: 0x0B50 [0x03] Work_Zone[1] = 18*
 45: 0x0B55 [0x01] GOTO 0x0B58

SUBROUTINE_0B58:
 46: 0x0B58 [0x1D] PRINT_EVENT_MESSAGE(message_id=11535*)
    → "Right! These fingers're jus' itchin' to get down to work!"
 47: 0x0B5B [0x23] WAIT_FOR_DIALOG_INTERACTION
 48: 0x0B5C [0x01] GOTO 0x0C68
 49: 0x0B5F [0x29] REQ_SET_WAIT(priority=0x08, entity_id=Wescolina (ID: 17826103/0x01100137), tag_num=0x07)
 50: 0x0B66 [0x1D] PRINT_EVENT_MESSAGE(message_id=11530*)
    → "Positively wunn'ful, <Player>! I trust you have th' items Ah need for your $0?"
 51: 0x0B69 [0x23] WAIT_FOR_DIALOG_INTERACTION
 52: 0x0B6A [0x29] REQ_SET_WAIT(priority=0x08, entity_id=Wescolina (ID: 17826103/0x01100137), tag_num=0x08)
 53: 0x0B71 [0x29] REQ_SET_WAIT(priority=0x08, entity_id=Wescolina (ID: 17826103/0x01100137), tag_num=0x09)
 54: 0x0B78 [0x24] CREATE_DIALOG(message_id=11531*, default_option=0*, option_flags=0*)
    → "Have Wecolina create your garment? [By the Goddess, yes!/No...stop talking.]"
 55: 0x0B7F [0x25] WAIT_DIALOG_SELECT()
 56: 0x0B80 [0x02] IF !(Work_Zone[0] == 0*) GOTO 0x0BE6
 57: 0x0B88 [0x29] REQ_SET_WAIT(priority=0x08, entity_id=Wescolina (ID: 17826103/0x01100137), tag_num=0x0A)
 58: 0x0B8F [0x02] IF !(ExtData[1]->WorkLocal[0] == 1*) GOTO 0x0B9F
 59: 0x0B97 [0x03] Work_Zone[1] = 1*
 60: 0x0B9C [0x01] GOTO 0x0BDF
 61: 0x0B9F [0x02] IF !(ExtData[1]->WorkLocal[0] == 2*) GOTO 0x0BAF
 62: 0x0BA7 [0x03] Work_Zone[1] = 5*
 63: 0x0BAC [0x01] GOTO 0x0BDF
 64: 0x0BAF [0x02] IF !(ExtData[1]->WorkLocal[0] == 3*) GOTO 0x0BBF
 65: 0x0BB7 [0x03] Work_Zone[1] = 9*
 66: 0x0BBC [0x01] GOTO 0x0BDF
 67: 0x0BBF [0x02] IF !(ExtData[1]->WorkLocal[0] == 4*) GOTO 0x0BCF
 68: 0x0BC7 [0x03] Work_Zone[1] = 13*
 69: 0x0BCC [0x01] GOTO 0x0BDF
 70: 0x0BCF [0x02] IF !(ExtData[1]->WorkLocal[0] == 5*) GOTO 0x0BDF
 71: 0x0BD7 [0x03] Work_Zone[1] = 17*
 72: 0x0BDC [0x01] GOTO 0x0BDF

SUBROUTINE_0BDF:
 73: 0x0BDF [0x1D] PRINT_EVENT_MESSAGE(message_id=11535*)
    → "Right! These fingers're jus' itchin' to get down to work!"
 74: 0x0BE2 [0x23] WAIT_FOR_DIALOG_INTERACTION
 75: 0x0BE3 [0x01] GOTO 0x0C68
 76: 0x0BE6 [0x02] IF !(Work_Zone[0] == 1*) GOTO 0x0C68
 77: 0x0BEE [0x29] REQ_SET_WAIT(priority=0x08, entity_id=Wescolina (ID: 17826103/0x01100137), tag_num=0x0A)
 78: 0x0BF5 [0x02] IF !(ExtData[1]->WorkLocal[0] == 1*) GOTO 0x0C05
 79: 0x0BFD [0x03] Work_Zone[1] = 3*
 80: 0x0C02 [0x01] GOTO 0x0C45
 81: 0x0C05 [0x02] IF !(ExtData[1]->WorkLocal[0] == 2*) GOTO 0x0C15
 82: 0x0C0D [0x03] Work_Zone[1] = 7*
 83: 0x0C12 [0x01] GOTO 0x0C45
 84: 0x0C15 [0x02] IF !(ExtData[1]->WorkLocal[0] == 3*) GOTO 0x0C25
 85: 0x0C1D [0x03] Work_Zone[1] = 11*
 86: 0x0C22 [0x01] GOTO 0x0C45
 87: 0x0C25 [0x02] IF !(ExtData[1]->WorkLocal[0] == 4*) GOTO 0x0C35
 88: 0x0C2D [0x03] Work_Zone[1] = 15*
 89: 0x0C32 [0x01] GOTO 0x0C45
 90: 0x0C35 [0x02] IF !(ExtData[1]->WorkLocal[0] == 5*) GOTO 0x0C45
 91: 0x0C3D [0x03] Work_Zone[1] = 19*
 92: 0x0C42 [0x01] GOTO 0x0C45

SUBROUTINE_0C45:
 93: 0x0C45 [0x29] REQ_SET_WAIT(priority=0x08, entity_id=Wescolina (ID: 17826103/0x01100137), tag_num=0x0F)
 94: 0x0C4C [0x1D] PRINT_EVENT_MESSAGE(message_id=11534*)
    → "But darlin', we've barely gotten started!"
 95: 0x0C4F [0x23] WAIT_FOR_DIALOG_INTERACTION
 96: 0x0C50 [0x29] REQ_SET_WAIT(priority=0x08, entity_id=Wescolina (ID: 17826103/0x01100137), tag_num=0x10)
 97: 0x0C57 [0x29] REQ_SET_WAIT(priority=0x08, entity_id=Wescolina (ID: 17826103/0x01100137), tag_num=0x11)
 98: 0x0C5E [0x29] REQ_SET_WAIT(priority=0x08, entity_id=Wescolina (ID: 17826103/0x01100137), tag_num=0x12)
 99: 0x0C65 [0x01] GOTO 0x0C68

SUBROUTINE_0C68:
100: 0x0C68 [0x01] GOTO 0x0E50
101: 0x0C6B [0x02] IF !(ExtData[1]->WorkLocal[9] == 1*) GOTO 0x0E50
102: 0x0C73 [0x29] REQ_SET_WAIT(priority=0x08, entity_id=Wescolina (ID: 17826103/0x01100137), tag_num=0x07)
103: 0x0C7A [0x1D] PRINT_EVENT_MESSAGE(message_id=11532*)
    → "Well, slap mah bum 'n call me Shirley, you do! Ready to have me lovin'ly stitch together your $0 for $1 bayld in place 'o th' othah materials?"
104: 0x0C7D [0x23] WAIT_FOR_DIALOG_INTERACTION
105: 0x0C7E [0x29] REQ_SET_WAIT(priority=0x08, entity_id=Wescolina (ID: 17826103/0x01100137), tag_num=0x08)
106: 0x0C85 [0x29] REQ_SET_WAIT(priority=0x08, entity_id=Wescolina (ID: 17826103/0x01100137), tag_num=0x09)
107: 0x0C8C [0x03] Work_Zone[4] = ExtData[1]->WorkLocal[10]
108: 0x0C91 [0x24] CREATE_DIALOG(message_id=11533*, default_option=0*, option_flags=0*)
    → "Pay the price? (You have $2 bayld). [$1 bayld? Absolutely, Shirley./No. Haven't I suffered enough?]"
109: 0x0C98 [0x25] WAIT_DIALOG_SELECT()
110: 0x0C99 [0x02] IF !(Work_Zone[0] == 0*) GOTO 0x0DCE
111: 0x0CA1 [0x29] REQ_SET_WAIT(priority=0x08, entity_id=Wescolina (ID: 17826103/0x01100137), tag_num=0x0A)
112: 0x0CA8 [0x02] IF !(ExtData[1]->WorkLocal[0] == 1*) GOTO 0x0CB8
113: 0x0CB0 [0x03] Work_Zone[1] = 21*
114: 0x0CB5 [0x01] GOTO 0x0CF8
115: 0x0CB8 [0x02] IF !(ExtData[1]->WorkLocal[0] == 2*) GOTO 0x0CC8
116: 0x0CC0 [0x03] Work_Zone[1] = 22*
117: 0x0CC5 [0x01] GOTO 0x0CF8
118: 0x0CC8 [0x02] IF !(ExtData[1]->WorkLocal[0] == 3*) GOTO 0x0CD8
119: 0x0CD0 [0x03] Work_Zone[1] = 23*
120: 0x0CD5 [0x01] GOTO 0x0CF8
121: 0x0CD8 [0x02] IF !(ExtData[1]->WorkLocal[0] == 4*) GOTO 0x0CE8
122: 0x0CE0 [0x03] Work_Zone[1] = 24*
123: 0x0CE5 [0x01] GOTO 0x0CF8
124: 0x0CE8 [0x02] IF !(ExtData[1]->WorkLocal[0] == 5*) GOTO 0x0CF8
125: 0x0CF0 [0x03] Work_Zone[1] = 25*
126: 0x0CF5 [0x01] GOTO 0x0CF8

SUBROUTINE_0CF8:
127: 0x0CF8 [0x43] SEND_EVENT_UPDATE: Send pending tag to server (packet 0x005B)
128: 0x0CFA [0x43] SEND_EVENT_UPDATE: Check pending flag (skip if not pending)
129: 0x0CFC [0x02] IF !(Work_Zone[6] < 1*) GOTO 0x0D5B
130: 0x0D04 [0x02] IF !(Work_Zone[6] == 1*) GOTO 0x0D14
131: 0x0D0C [0x03] Work_Zone[1] = 2*
132: 0x0D11 [0x01] GOTO 0x0D54
133: 0x0D14 [0x02] IF !(Work_Zone[6] == 2*) GOTO 0x0D24
134: 0x0D1C [0x03] Work_Zone[1] = 6*
135: 0x0D21 [0x01] GOTO 0x0D54
136: 0x0D24 [0x02] IF !(Work_Zone[6] == 3*) GOTO 0x0D34
137: 0x0D2C [0x03] Work_Zone[1] = 10*
138: 0x0D31 [0x01] GOTO 0x0D54
139: 0x0D34 [0x02] IF !(Work_Zone[6] == 4*) GOTO 0x0D44
140: 0x0D3C [0x03] Work_Zone[1] = 14*
141: 0x0D41 [0x01] GOTO 0x0D54
142: 0x0D44 [0x02] IF !(Work_Zone[6] == 5*) GOTO 0x0D54
143: 0x0D4C [0x03] Work_Zone[1] = 18*
144: 0x0D51 [0x01] GOTO 0x0D54

SUBROUTINE_0D54:
145: 0x0D54 [0x1D] PRINT_EVENT_MESSAGE(message_id=11535*)
    → "Right! These fingers're jus' itchin' to get down to work!"
146: 0x0D57 [0x23] WAIT_FOR_DIALOG_INTERACTION
147: 0x0D58 [0x01] GOTO 0x0DCB
148: 0x0D5B [0x02] IF !(ExtData[1]->WorkLocal[0] == 1*) GOTO 0x0D6B
149: 0x0D63 [0x03] Work_Zone[1] = 4*
150: 0x0D68 [0x01] GOTO 0x0DAB
151: 0x0D6B [0x02] IF !(ExtData[1]->WorkLocal[0] == 2*) GOTO 0x0D7B
152: 0x0D73 [0x03] Work_Zone[1] = 8*
153: 0x0D78 [0x01] GOTO 0x0DAB
154: 0x0D7B [0x02] IF !(ExtData[1]->WorkLocal[0] == 3*) GOTO 0x0D8B
155: 0x0D83 [0x03] Work_Zone[1] = 12*
156: 0x0D88 [0x01] GOTO 0x0DAB
157: 0x0D8B [0x02] IF !(ExtData[1]->WorkLocal[0] == 4*) GOTO 0x0D9B
158: 0x0D93 [0x03] Work_Zone[1] = 16*
159: 0x0D98 [0x01] GOTO 0x0DAB
160: 0x0D9B [0x02] IF !(ExtData[1]->WorkLocal[0] == 5*) GOTO 0x0DAB
161: 0x0DA3 [0x03] Work_Zone[1] = 20*
162: 0x0DA8 [0x01] GOTO 0x0DAB

SUBROUTINE_0DAB:
163: 0x0DAB [0x29] REQ_SET_WAIT(priority=0x08, entity_id=Wescolina (ID: 17826103/0x01100137), tag_num=0x03)
164: 0x0DB2 [0x1D] PRINT_EVENT_MESSAGE(message_id=11536*)
    → "Hon, you don' have 'nough bayld."
165: 0x0DB5 [0x23] WAIT_FOR_DIALOG_INTERACTION
166: 0x0DB6 [0x29] REQ_SET_WAIT(priority=0x08, entity_id=Wescolina (ID: 17826103/0x01100137), tag_num=0x04)
167: 0x0DBD [0x29] REQ_SET_WAIT(priority=0x08, entity_id=Wescolina (ID: 17826103/0x01100137), tag_num=0x03)
168: 0x0DC4 [0x29] REQ_SET_WAIT(priority=0x08, entity_id=Wescolina (ID: 17826103/0x01100137), tag_num=0x04)

SUBROUTINE_0DCB:
169: 0x0DCB [0x01] GOTO 0x0E50
170: 0x0DCE [0x02] IF !(Work_Zone[0] == 1*) GOTO 0x0E50
171: 0x0DD6 [0x29] REQ_SET_WAIT(priority=0x08, entity_id=Wescolina (ID: 17826103/0x01100137), tag_num=0x0A)
172: 0x0DDD [0x02] IF !(ExtData[1]->WorkLocal[0] == 1*) GOTO 0x0DED
173: 0x0DE5 [0x03] Work_Zone[1] = 4*
174: 0x0DEA [0x01] GOTO 0x0E2D
175: 0x0DED [0x02] IF !(ExtData[1]->WorkLocal[0] == 2*) GOTO 0x0DFD
176: 0x0DF5 [0x03] Work_Zone[1] = 8*
177: 0x0DFA [0x01] GOTO 0x0E2D
178: 0x0DFD [0x02] IF !(ExtData[1]->WorkLocal[0] == 3*) GOTO 0x0E0D
179: 0x0E05 [0x03] Work_Zone[1] = 12*
180: 0x0E0A [0x01] GOTO 0x0E2D
181: 0x0E0D [0x02] IF !(ExtData[1]->WorkLocal[0] == 4*) GOTO 0x0E1D
182: 0x0E15 [0x03] Work_Zone[1] = 16*
183: 0x0E1A [0x01] GOTO 0x0E2D
184: 0x0E1D [0x02] IF !(ExtData[1]->WorkLocal[0] == 5*) GOTO 0x0E2D
185: 0x0E25 [0x03] Work_Zone[1] = 20*
186: 0x0E2A [0x01] GOTO 0x0E2D

SUBROUTINE_0E2D:
187: 0x0E2D [0x29] REQ_SET_WAIT(priority=0x08, entity_id=Wescolina (ID: 17826103/0x01100137), tag_num=0x0F)
188: 0x0E34 [0x1D] PRINT_EVENT_MESSAGE(message_id=11534*)
    → "But darlin', we've barely gotten started!"
189: 0x0E37 [0x23] WAIT_FOR_DIALOG_INTERACTION
190: 0x0E38 [0x29] REQ_SET_WAIT(priority=0x08, entity_id=Wescolina (ID: 17826103/0x01100137), tag_num=0x10)
191: 0x0E3F [0x29] REQ_SET_WAIT(priority=0x08, entity_id=Wescolina (ID: 17826103/0x01100137), tag_num=0x11)
192: 0x0E46 [0x29] REQ_SET_WAIT(priority=0x08, entity_id=Wescolina (ID: 17826103/0x01100137), tag_num=0x12)
193: 0x0E4D [0x01] GOTO 0x0E50

