# 17826081 - Coltrone

## Common Data

| Field            | Value                     |
|------------------|---------------------------|
| Zone             | Western Adoulin (ID: 256) |
| Block Size       | 776 bytes                 |
| Total Events     | 2                         |
| References Count | 11                        |

## List of Events

| Event ID              | Entrypoint   |   Size |   Instructions |
|-----------------------|--------------|--------|----------------|
| [65535](#event-65535) | 0x0000       |      1 |              1 |
| [555](#event-555)     | 0x0001       |    704 |             72 |

## DAT References (imed_data)

|   Index | Hex Value   |   Dec Value |
|---------|-------------|-------------|
|       0 | 0x0005      |           5 |
|       1 | 0x2671      |        9841 |
|       2 | 0x2672      |        9842 |
|       3 | 0x00C8      |         200 |
|       4 | 0x0000      |           0 |
|       5 | 0x00C9      |         201 |
|       6 | 0x0001      |           1 |
|       7 | 0x002D      |          45 |
|       8 | 0x0002      |           2 |
|       9 | 0x001E      |          30 |
|      10 | 0x00D7      |         215 |

## String References

- **9841**: What's that? You want to help? How kind of you!
- **9842**: Follow me, then! It'll take a while, though. The spot I'm in charge of is so far away that I think my boss must have it in for me.

## Events

### Event 65535

#### Metadata

| Field        | Value   |
|--------------|---------|
| Entrypoint   | 0x0000  |
| Data Size    | 1 bytes |
| Instructions | 1       |

```
      00 01 02 03 04 05 06 07  08 09 0A 0B 0C 0D 0E 0F
      -- -- -- -- -- -- -- --  -- -- -- -- -- -- -- --
0000: 00                                                .               
```

#### Opcodes

```
  0: 0x0000 [0x00] END_REQSTACK()
```

### Event 555

#### Metadata

| Field        | Value     |
|--------------|-----------|
| Entrypoint   | 0x0001    |
| Data Size    | 704 bytes |
| Instructions | 11        |

```
      00 01 02 03 04 05 06 07  08 09 0A 0B 0C 0D 0E 0F
      -- -- -- -- -- -- -- --  -- -- -- -- -- -- -- --
0000:    1E F0 FF FF 7F 6F 70  66 00 80 F8 FF FF 7F F8   .....opf.......
0010: FF FF 7F 74 6C 62 30 1D  01 80 23 1D 02 80 23 66  ...tlb0...#...#f
0020: 00 80 F8 FF FF 7F F8 FF  FF 7F 74 6C 62 31 21 00  ..........tlb1!.
0030: 45 03 80 F0 FF FF 7F F0  FF FF 7F 66 64 69 30 04  E..........fdi0.
0040: 80 55 03 80 F0 FF FF 7F  F0 FF FF 7F 66 64 69 30  .U..........fdi0
0050: 1B 45 03 80 F0 FF FF 7F  F0 FF FF 7F 66 64 6F 30  .E..........fdo0
0060: 04 80 55 03 80 F0 FF FF  7F F0 FF FF 7F 66 64 6F  ..U..........fdo
0070: 30 1B 45 03 80 F0 FF FF  7F F0 FF FF 7F 66 64 69  0.E..........fdi
0080: 31 04 80 55 03 80 F0 FF  FF 7F F0 FF FF 7F 66 64  1..U..........fd
0090: 69 31 1B 45 03 80 F0 FF  FF 7F F0 FF FF 7F 66 64  i1.E..........fd
00A0: 6F 31 04 80 55 03 80 F0  FF FF 7F F0 FF FF 7F 66  o1..U..........f
00B0: 64 6F 31 1B 45 05 80 F0  FF FF 7F F0 FF FF 7F 77  do1.E..........w
00C0: 68 69 31 04 80 55 05 80  F0 FF FF 7F F0 FF FF 7F  hi1..U..........
00D0: 77 68 69 31 1B 45 05 80  F0 FF FF 7F F0 FF FF 7F  whi1.E..........
00E0: 77 68 6F 31 04 80 55 05  80 F0 FF FF 7F F0 FF FF  who1..U.........
00F0: 7F 77 68 6F 31 1B 45 05  80 F0 FF FF 7F F0 FF FF  .who1.E.........
0100: 7F 77 68 6F 32 04 80 55  05 80 F0 FF FF 7F F0 FF  .who2..U........
0110: FF 7F 77 68 6F 32 1B 45  05 80 F0 FF FF 7F F0 FF  ..who2.E........
0120: FF 7F 77 68 6F 33 04 80  55 05 80 F0 FF FF 7F F0  ..who3..U.......
0130: FF FF 7F 77 68 6F 33 1B  62 06 80 F0 FF FF 7F F0  ...who3.b.......
0140: FF FF 7F 6D 61 69 6E 04  80 1C 07 80 45 03 80 F0  ...main.....E...
0150: FF FF 7F F0 FF FF 7F 66  64 6F 31 04 80 55 03 80  .......fdo1..U..
0160: F0 FF FF 7F F0 FF FF 7F  66 64 6F 31 1B 45 03 80  ........fdo1.E..
0170: F0 FF FF 7F F0 FF FF 7F  66 64 69 31 04 80 62 08  ........fdi1..b.
0180: 80 F0 FF FF 7F F0 FF FF  7F 6D 61 69 6E 04 80 1C  .........main...
0190: 09 80 55 03 80 F0 FF FF  7F F0 FF FF 7F 66 64 69  ..U..........fdi
01A0: 31 1B 45 03 80 F0 FF FF  7F F0 FF FF 7F 62 6C 6F  1.E..........blo
01B0: 6E 04 80 45 05 80 F0 FF  FF 7F F0 FF FF 7F 62 6C  n..E..........bl
01C0: 6F 6E 04 80 1B 45 05 80  F0 FF FF 7F F0 FF FF 7F  on...E..........
01D0: 77 68 69 30 04 80 55 05  80 F0 FF FF 7F F0 FF FF  whi0..U.........
01E0: 7F 77 68 69 30 1B 45 05  80 F0 FF FF 7F F0 FF FF  .whi0.E.........
01F0: 7F 77 68 6F 30 04 80 55  05 80 F0 FF FF 7F F0 FF  .who0..U........
0200: FF 7F 77 68 6F 30 1B 45  0A 80 F0 FF FF 7F F0 FF  ..who0.E........
0210: FF 7F 65 66 6F 6E 04 80  55 0A 80 F0 FF FF 7F F0  ..efon..U.......
0220: FF FF 7F 65 66 6F 6E 1B  45 03 80 F0 FF FF 7F F0  ...efon.E.......
0230: FF FF 7F 66 64 69 73 04  80 1B 45 03 80 F0 FF FF  ...fdis...E.....
0240: 7F F0 FF FF 7F 66 64 6F  73 04 80 55 03 80 F0 FF  .....fdos..U....
0250: FF 7F F0 FF FF 7F 66 64  6F 73 1B 45 03 80 F0 FF  ......fdos.E....
0260: FF 7F F0 FF FF 7F 66 64  69 66 04 80 1B 45 03 80  ......fdif...E..
0270: F0 FF FF 7F F0 FF FF 7F  66 64 6F 66 04 80 55 03  ........fdof..U.
0280: 80 F0 FF FF 7F F0 FF FF  7F 66 64 6F 66 1B 45 03  .........fdof.E.
0290: 80 F0 FF FF 7F F0 FF FF  7F 66 64 69 70 04 80 1B  .........fdip...
02A0: 45 03 80 F0 FF FF 7F F0  FF FF 7F 66 64 6F 70 04  E..........fdop.
02B0: 80 55 03 80 F0 FF FF 7F  F0 FF FF 7F 66 64 6F 70  .U..........fdop
02C0: 1B                                                .               
```

#### Opcodes

```
  0: 0x0001 [0x1E] EventEntity looks at LocalPlayer and starts talking
  1: 0x0006 [0x6F] WAIT_FRAME_DELAY: Yield until WaitTime reaches zero
  2: 0x0007 [0x70] WAIT_ENTITY_RENDER_FLAG: Wait while EventEntity->Render.Flags3 bit 2 is set (cancel turn if not)
  3: 0x0008 [0x66] LOAD_EXT_SCHEDULER_MAIN: Load scheduler "tlb0" with entities [EventEntity, EventEntity], work=5*
  4: 0x0017 [0x1D] PRINT_EVENT_MESSAGE(message_id=9841*)
    → "What's that? You want to help? How kind of you!"
  5: 0x001A [0x23] WAIT_FOR_DIALOG_INTERACTION
  6: 0x001B [0x1D] PRINT_EVENT_MESSAGE(message_id=9842*)
    → "Follow me, then! It'll take a while, though. The spot I'm in charge of is so far away that I think my boss must have it in for me."
  7: 0x001E [0x23] WAIT_FOR_DIALOG_INTERACTION
  8: 0x001F [0x66] LOAD_EXT_SCHEDULER_MAIN: Load scheduler "tlb1" with entities [EventEntity, EventEntity], work=5*
  9: 0x002E [0x21] END_EVENT
 10: 0x002F [0x00] END_REQSTACK()
```

#### Data or dead code:

```
# Dead code (unreachable instructions):
     0x0030 [0x45] LOAD_SCHEDULED_TASK: Load scheduler "fdi0" with entities [LocalPlayer, LocalPlayer], work=[200*, 0*]
     0x0041 [0x55] WAIT_LOAD_SCHEDULER: Wait for scheduler "fdi0" with entities [LocalPlayer, LocalPlayer], work=200*
     0x0050 [0x1B] RETURN
     0x0051 [0x45] LOAD_SCHEDULED_TASK: Load scheduler "fdo0" with entities [LocalPlayer, LocalPlayer], work=[200*, 0*]
     0x0062 [0x55] WAIT_LOAD_SCHEDULER: Wait for scheduler "fdo0" with entities [LocalPlayer, LocalPlayer], work=200*
     0x0071 [0x1B] RETURN
     0x0072 [0x45] LOAD_SCHEDULED_TASK: Load scheduler "fdi1" with entities [LocalPlayer, LocalPlayer], work=[200*, 0*]
     0x0083 [0x55] WAIT_LOAD_SCHEDULER: Wait for scheduler "fdi1" with entities [LocalPlayer, LocalPlayer], work=200*
     0x0092 [0x1B] RETURN
     0x0093 [0x45] LOAD_SCHEDULED_TASK: Load scheduler "fdo1" with entities [LocalPlayer, LocalPlayer], work=[200*, 0*]
     0x00A4 [0x55] WAIT_LOAD_SCHEDULER: Wait for scheduler "fdo1" with entities [LocalPlayer, LocalPlayer], work=200*
     0x00B3 [0x1B] RETURN
     0x00B4 [0x45] LOAD_SCHEDULED_TASK: Load scheduler "whi1" with entities [LocalPlayer, LocalPlayer], work=[201*, 0*]
     0x00C5 [0x55] WAIT_LOAD_SCHEDULER: Wait for scheduler "whi1" with entities [LocalPlayer, LocalPlayer], work=201*
     0x00D4 [0x1B] RETURN
     0x00D5 [0x45] LOAD_SCHEDULED_TASK: Load scheduler "who1" with entities [LocalPlayer, LocalPlayer], work=[201*, 0*]
     0x00E6 [0x55] WAIT_LOAD_SCHEDULER: Wait for scheduler "who1" with entities [LocalPlayer, LocalPlayer], work=201*
     0x00F5 [0x1B] RETURN
     0x00F6 [0x45] LOAD_SCHEDULED_TASK: Load scheduler "who2" with entities [LocalPlayer, LocalPlayer], work=[201*, 0*]
     0x0107 [0x55] WAIT_LOAD_SCHEDULER: Wait for scheduler "who2" with entities [LocalPlayer, LocalPlayer], work=201*
     0x0116 [0x1B] RETURN
     0x0117 [0x45] LOAD_SCHEDULED_TASK: Load scheduler "who3" with entities [LocalPlayer, LocalPlayer], work=[201*, 0*]
     0x0128 [0x55] WAIT_LOAD_SCHEDULER: Wait for scheduler "who3" with entities [LocalPlayer, LocalPlayer], work=201*
     0x0137 [0x1B] RETURN
     0x0138 [0x62] LOAD_EVENT_SCHEDULER: Load scheduler "main" with entities [LocalPlayer, LocalPlayer], work=[1*, 0*]
     0x0149 [0x1C] WAIT(45* ticks)
     0x014C [0x45] LOAD_SCHEDULED_TASK: Load scheduler "fdo1" with entities [LocalPlayer, LocalPlayer], work=[200*, 0*]
     0x015D [0x55] WAIT_LOAD_SCHEDULER: Wait for scheduler "fdo1" with entities [LocalPlayer, LocalPlayer], work=200*
     0x016C [0x1B] RETURN
     0x016D [0x45] LOAD_SCHEDULED_TASK: Load scheduler "fdi1" with entities [LocalPlayer, LocalPlayer], work=[200*, 0*]
     0x017E [0x62] LOAD_EVENT_SCHEDULER: Load scheduler "main" with entities [LocalPlayer, LocalPlayer], work=[2*, 0*]
     0x018F [0x1C] WAIT(30* ticks)
     0x0192 [0x55] WAIT_LOAD_SCHEDULER: Wait for scheduler "fdi1" with entities [LocalPlayer, LocalPlayer], work=200*
     0x01A1 [0x1B] RETURN
     0x01A2 [0x45] LOAD_SCHEDULED_TASK: Load scheduler "blon" with entities [LocalPlayer, LocalPlayer], work=[200*, 0*]
     0x01B3 [0x45] LOAD_SCHEDULED_TASK: Load scheduler "blon" with entities [LocalPlayer, LocalPlayer], work=[201*, 0*]
     0x01C4 [0x1B] RETURN
     0x01C5 [0x45] LOAD_SCHEDULED_TASK: Load scheduler "whi0" with entities [LocalPlayer, LocalPlayer], work=[201*, 0*]
     0x01D6 [0x55] WAIT_LOAD_SCHEDULER: Wait for scheduler "whi0" with entities [LocalPlayer, LocalPlayer], work=201*
     0x01E5 [0x1B] RETURN
     0x01E6 [0x45] LOAD_SCHEDULED_TASK: Load scheduler "who0" with entities [LocalPlayer, LocalPlayer], work=[201*, 0*]
     0x01F7 [0x55] WAIT_LOAD_SCHEDULER: Wait for scheduler "who0" with entities [LocalPlayer, LocalPlayer], work=201*
     0x0206 [0x1B] RETURN
     0x0207 [0x45] LOAD_SCHEDULED_TASK: Load scheduler "efon" with entities [LocalPlayer, LocalPlayer], work=[215*, 0*]
     0x0218 [0x55] WAIT_LOAD_SCHEDULER: Wait for scheduler "efon" with entities [LocalPlayer, LocalPlayer], work=215*
     0x0227 [0x1B] RETURN
     0x0228 [0x45] LOAD_SCHEDULED_TASK: Load scheduler "fdis" with entities [LocalPlayer, LocalPlayer], work=[200*, 0*]
     0x0239 [0x1B] RETURN
     0x023A [0x45] LOAD_SCHEDULED_TASK: Load scheduler "fdos" with entities [LocalPlayer, LocalPlayer], work=[200*, 0*]
     0x024B [0x55] WAIT_LOAD_SCHEDULER: Wait for scheduler "fdos" with entities [LocalPlayer, LocalPlayer], work=200*
     0x025A [0x1B] RETURN
     0x025B [0x45] LOAD_SCHEDULED_TASK: Load scheduler "fdif" with entities [LocalPlayer, LocalPlayer], work=[200*, 0*]
     0x026C [0x1B] RETURN
     0x026D [0x45] LOAD_SCHEDULED_TASK: Load scheduler "fdof" with entities [LocalPlayer, LocalPlayer], work=[200*, 0*]
     0x027E [0x55] WAIT_LOAD_SCHEDULER: Wait for scheduler "fdof" with entities [LocalPlayer, LocalPlayer], work=200*
     0x028D [0x1B] RETURN
     0x028E [0x45] LOAD_SCHEDULED_TASK: Load scheduler "fdip" with entities [LocalPlayer, LocalPlayer], work=[200*, 0*]
     0x029F [0x1B] RETURN
     0x02A0 [0x45] LOAD_SCHEDULED_TASK: Load scheduler "fdop" with entities [LocalPlayer, LocalPlayer], work=[200*, 0*]
     0x02B1 [0x55] WAIT_LOAD_SCHEDULER: Wait for scheduler "fdop" with entities [LocalPlayer, LocalPlayer], work=200*
     0x02C0 [0x1B] RETURN
```
