# 17825941 - Flaviria

## Common Data

| Field            | Value                     |
|------------------|---------------------------|
| Zone             | Western Adoulin (ID: 256) |
| Block Size       | 624 bytes                 |
| Total Events     | 17                        |
| References Count | 53                        |

## List of Events

| Event ID                   | Entrypoint   |   Size |   Instructions |
|----------------------------|--------------|--------|----------------|
| [65535](#event-65535)      | 0x0000       |      1 |              1 |
| [5056](#event-5056)        | 0x0001       |      7 |              2 |
| [65535.1](#event-655351)   | 0x0008       |     14 |              4 |
| [65535.2](#event-655352)   | 0x0016       |     14 |              4 |
| [5037](#event-5037)        | 0x0024       |      7 |              2 |
| [65535.3](#event-655353)   | 0x002B       |     14 |              4 |
| [65535.4](#event-655354)   | 0x0039       |     30 |              8 |
| [5039](#event-5039)        | 0x0057       |      7 |              2 |
| [65535.5](#event-655355)   | 0x005E       |     34 |              8 |
| [5087](#event-5087)        | 0x0080       |      7 |              2 |
| [65535.6](#event-655356)   | 0x0087       |     64 |             14 |
| [65535.7](#event-655357)   | 0x00C7       |     14 |              4 |
| [65535.8](#event-655358)   | 0x00D5       |     23 |              7 |
| [65535.9](#event-655359)   | 0x00EC       |     14 |              4 |
| [65535.10](#event-6553510) | 0x00FA       |     56 |             13 |
| [5221](#event-5221)        | 0x0132       |      7 |              2 |
| [65535.11](#event-6553511) | 0x0139       |     14 |              4 |

## DAT References (imed_data)

|   Index | Hex Value   |   Dec Value |
|---------|-------------|-------------|
|       0 | 0x000D      |          13 |
|       1 | 0xFFFFD813  |  4294957075 |
|       2 | 0xFFFE8823  |  4294871075 |
|       3 | 0xFFFFFF6C  |  4294967148 |
|       4 | 0x099D      |        2461 |
|       5 | 0xFFFE9835  |  4294875189 |
|       6 | 0x0000      |           0 |
|       7 | 0x3E64      |       15972 |
|       8 | 0xFFFEA573  |  4294878579 |
|       9 | 0x0028      |          40 |
|      10 | 0x2785      |       10117 |
|      11 | 0xFFFE9C3C  |  4294876220 |
|      12 | 0x0014      |          20 |
|      13 | 0x005A      |          90 |
|      14 | 0x334D      |       13133 |
|      15 | 0xFFFE8B61  |  4294871905 |
|      16 | 0x3F5F      |       16223 |
|      17 | 0xFFFE7949  |  4294867273 |
|      18 | 0x3F82      |       16258 |
|      19 | 0xFFFE5713  |  4294858515 |
|      20 | 0x18DAE     |      101806 |
|      21 | 0xFFFEC365  |  4294886245 |
|      22 | 0xFFFFFD75  |  4294966645 |
|      23 | 0x18AED     |      101101 |
|      24 | 0xFFFEC2D0  |  4294886096 |
|      25 | 0x18864     |      100452 |
|      26 | 0xFFFEC2A8  |  4294886056 |
|      27 | 0x1857F     |       99711 |
|      28 | 0xFFFEC2F0  |  4294886128 |
|      29 | 0x182AE     |       98990 |
|      30 | 0xFFFEC426  |  4294886438 |
|      31 | 0x17E08     |       97800 |
|      32 | 0xFFFEC8AC  |  4294887596 |
|      33 | 0x17868     |       96360 |
|      34 | 0xFFFEBFB0  |  4294885296 |
|      35 | 0x17B7A     |       97146 |
|      36 | 0xFFFEC6BA  |  4294887098 |
|      37 | 0x000A      |          10 |
|      38 | 0x174B4     |       95412 |
|      39 | 0xFFFECDB8  |  4294888888 |
|      40 | 0x18277     |       98935 |
|      41 | 0xFFFEBF8B  |  4294885259 |
|      42 | 0x18475     |       99445 |
|      43 | 0xFFFEBF89  |  4294885257 |
|      44 | 0x187D4     |      100308 |
|      45 | 0xFFFEC04C  |  4294885452 |
|      46 | 0x18B6A     |      101226 |
|      47 | 0xFFFEC233  |  4294885939 |
|      48 | 0x19C1C     |      105500 |
|      49 | 0xFFFED144  |  4294889796 |
|      50 | 0xFFFF8436  |  4294935606 |
|      51 | 0xFFFE7C1C  |  4294867996 |
|      52 | 0xFFFFFD76  |  4294966646 |

## Events

### Event 65535

#### Metadata

| Field        | Value   |
|--------------|---------|
| Entrypoint   | 0x0000  |
| Data Size    | 1 bytes |
| Instructions | 1       |

```
      00 01 02 03 04 05 06 07  08 09 0A 0B 0C 0D 0E 0F
      -- -- -- -- -- -- -- --  -- -- -- -- -- -- -- --
0000: 00                                                .               
```

#### Opcodes

```
  0: 0x0000 [0x00] END_REQSTACK()
```

### Event 5056

#### Metadata

| Field        | Value   |
|--------------|---------|
| Entrypoint   | 0x0001  |
| Data Size    | 7 bytes |
| Instructions | 2       |

```
      00 01 02 03 04 05 06 07  08 09 0A 0B 0C 0D 0E 0F
      -- -- -- -- -- -- -- --  -- -- -- -- -- -- -- --
0000:    92 01 F8 FF FF 7F 00                            .......        
```

#### Opcodes

```
  0: 0x0001 [0x92] EventEntity->Render.Flags3 ^= 0x01
  1: 0x0007 [0x00] END_REQSTACK()
```

### Event 65535.1

#### Metadata

| Field        | Value    |
|--------------|----------|
| Entrypoint   | 0x0008   |
| Data Size    | 14 bytes |
| Instructions | 4        |

```
      00 01 02 03 04 05 06 07  08 09 0A 0B 0C 0D 0E 0F
      -- -- -- -- -- -- -- --  -- -- -- -- -- -- -- --
0000:                          32 00 80 1F 00 01 80 02          2.......
0010: 80 03 80 1F 01 00                                 ......          
```

#### Opcodes

```
  0: 0x0008 [0x32] ExtData[1]->MainSpeed = 13* * 0.1
  1: 0x000B [0x1F] MOVE_ENTITY: EventEntity moves to X=-10.221*, Z=-96.221*, Y=-0.148*
  2: 0x0013 [0x1F] MOVE_ENTITY: Update entity position (mode=1)
  3: 0x0015 [0x00] END_REQSTACK()
```

### Event 65535.2

#### Metadata

| Field        | Value    |
|--------------|----------|
| Entrypoint   | 0x0016   |
| Data Size    | 14 bytes |
| Instructions | 4        |

```
      00 01 02 03 04 05 06 07  08 09 0A 0B 0C 0D 0E 0F
      -- -- -- -- -- -- -- --  -- -- -- -- -- -- -- --
0010:                   32 00  80 1F 00 04 80 05 80 06        2.........
0020: 80 1F 01 00                                       ....            
```

#### Opcodes

```
  0: 0x0016 [0x32] ExtData[1]->MainSpeed = 13* * 0.1
  1: 0x0019 [0x1F] MOVE_ENTITY: EventEntity moves to X=2.461*, Z=-92.107*, Y=0.000*
  2: 0x0021 [0x1F] MOVE_ENTITY: Update entity position (mode=1)
  3: 0x0023 [0x00] END_REQSTACK()
```

### Event 5037

#### Metadata

| Field        | Value   |
|--------------|---------|
| Entrypoint   | 0x0024  |
| Data Size    | 7 bytes |
| Instructions | 2       |

```
      00 01 02 03 04 05 06 07  08 09 0A 0B 0C 0D 0E 0F
      -- -- -- -- -- -- -- --  -- -- -- -- -- -- -- --
0020:             92 01 F8 FF  FF 7F 00                     .......     
```

#### Opcodes

```
  0: 0x0024 [0x92] EventEntity->Render.Flags3 ^= 0x01
  1: 0x002A [0x00] END_REQSTACK()
```

### Event 65535.3

#### Metadata

| Field        | Value    |
|--------------|----------|
| Entrypoint   | 0x002B   |
| Data Size    | 14 bytes |
| Instructions | 4        |

```
      00 01 02 03 04 05 06 07  08 09 0A 0B 0C 0D 0E 0F
      -- -- -- -- -- -- -- --  -- -- -- -- -- -- -- --
0020:                                   32 00 80 1F 00             2....
0030: 07 80 08 80 06 80 1F 01  00                       .........       
```

#### Opcodes

```
  0: 0x002B [0x32] ExtData[1]->MainSpeed = 13* * 0.1
  1: 0x002E [0x1F] MOVE_ENTITY: EventEntity moves to X=15.972*, Z=-88.717*, Y=0.000*
  2: 0x0036 [0x1F] MOVE_ENTITY: Update entity position (mode=1)
  3: 0x0038 [0x00] END_REQSTACK()
```

### Event 65535.4

#### Metadata

| Field        | Value    |
|--------------|----------|
| Entrypoint   | 0x0039   |
| Data Size    | 30 bytes |
| Instructions | 8        |

```
      00 01 02 03 04 05 06 07  08 09 0A 0B 0C 0D 0E 0F
      -- -- -- -- -- -- -- --  -- -- -- -- -- -- -- --
0030:                             32 09 80 1F 00 0A 80           2......
0040: 0B 80 06 80 1F 01 6F 6E  95 00 10 01 0C 80 99 95  ......on........
0050: 00 10 01 1C 0D 80 00                              .......         
```

#### Opcodes

```
  0: 0x0039 [0x32] ExtData[1]->MainSpeed = 40* * 0.1
  1: 0x003C [0x1F] MOVE_ENTITY: EventEntity moves to X=10.117*, Z=-91.076*, Y=0.000*
  2: 0x0044 [0x1F] MOVE_ENTITY: Update entity position (mode=1)
  3: 0x0046 [0x6F] WAIT_FRAME_DELAY: Yield until WaitTime reaches zero
  4: 0x0047 [0x6E] Flaviria (ID: 17825941/0x01100095) uses emote 20*
  5: 0x004E [0x99] Wait for Flaviria (ID: 17825941/0x01100095) animation to complete
  6: 0x0053 [0x1C] WAIT(90* ticks)
  7: 0x0056 [0x00] END_REQSTACK()
```

### Event 5039

#### Metadata

| Field        | Value   |
|--------------|---------|
| Entrypoint   | 0x0057  |
| Data Size    | 7 bytes |
| Instructions | 2       |

```
      00 01 02 03 04 05 06 07  08 09 0A 0B 0C 0D 0E 0F
      -- -- -- -- -- -- -- --  -- -- -- -- -- -- -- --
0050:                      92  01 F8 FF FF 7F 00               .......  
```

#### Opcodes

```
  0: 0x0057 [0x92] EventEntity->Render.Flags3 ^= 0x01
  1: 0x005D [0x00] END_REQSTACK()
```

### Event 65535.5

#### Metadata

| Field        | Value    |
|--------------|----------|
| Entrypoint   | 0x005E   |
| Data Size    | 34 bytes |
| Instructions | 8        |

```
      00 01 02 03 04 05 06 07  08 09 0A 0B 0C 0D 0E 0F
      -- -- -- -- -- -- -- --  -- -- -- -- -- -- -- --
0050:                                            32 00                2.
0060: 80 1F 00 0E 80 0F 80 06  80 1F 01 1F 00 10 80 11  ................
0070: 80 06 80 1F 01 1F 00 12  80 13 80 06 80 1F 01 00  ................
```

#### Opcodes

```
  0: 0x005E [0x32] ExtData[1]->MainSpeed = 13* * 0.1
  1: 0x0061 [0x1F] MOVE_ENTITY: EventEntity moves to X=13.133*, Z=-95.391*, Y=0.000*
  2: 0x0069 [0x1F] MOVE_ENTITY: Update entity position (mode=1)
  3: 0x006B [0x1F] MOVE_ENTITY: EventEntity moves to X=16.223*, Z=-100.023*, Y=0.000*
  4: 0x0073 [0x1F] MOVE_ENTITY: Update entity position (mode=1)
  5: 0x0075 [0x1F] MOVE_ENTITY: EventEntity moves to X=16.258*, Z=-108.781*, Y=0.000*
  6: 0x007D [0x1F] MOVE_ENTITY: Update entity position (mode=1)
  7: 0x007F [0x00] END_REQSTACK()
```

### Event 5087

#### Metadata

| Field        | Value   |
|--------------|---------|
| Entrypoint   | 0x0080  |
| Data Size    | 7 bytes |
| Instructions | 2       |

```
      00 01 02 03 04 05 06 07  08 09 0A 0B 0C 0D 0E 0F
      -- -- -- -- -- -- -- --  -- -- -- -- -- -- -- --
0080: 92 01 F8 FF FF 7F 00                              .......         
```

#### Opcodes

```
  0: 0x0080 [0x92] EventEntity->Render.Flags3 ^= 0x01
  1: 0x0086 [0x00] END_REQSTACK()
```

### Event 65535.6

#### Metadata

| Field        | Value    |
|--------------|----------|
| Entrypoint   | 0x0087   |
| Data Size    | 64 bytes |
| Instructions | 14       |

```
      00 01 02 03 04 05 06 07  08 09 0A 0B 0C 0D 0E 0F
      -- -- -- -- -- -- -- --  -- -- -- -- -- -- -- --
0080:                      32  00 80 1F 00 14 80 15 80         2........
0090: 16 80 1F 01 1F 00 17 80  18 80 16 80 1F 01 1F 00  ................
00A0: 19 80 1A 80 16 80 1F 01  1F 00 1B 80 1C 80 16 80  ................
00B0: 1F 01 1F 00 1D 80 1E 80  16 80 1F 01 1F 00 1F 80  ................
00C0: 20 80 16 80 1F 01 00                               ......         
```

#### Opcodes

```
  0: 0x0087 [0x32] ExtData[1]->MainSpeed = 13* * 0.1
  1: 0x008A [0x1F] MOVE_ENTITY: EventEntity moves to X=101.806*, Z=-81.051*, Y=-0.651*
  2: 0x0092 [0x1F] MOVE_ENTITY: Update entity position (mode=1)
  3: 0x0094 [0x1F] MOVE_ENTITY: EventEntity moves to X=101.101*, Z=-81.200*, Y=-0.651*
  4: 0x009C [0x1F] MOVE_ENTITY: Update entity position (mode=1)
  5: 0x009E [0x1F] MOVE_ENTITY: EventEntity moves to X=100.452*, Z=-81.240*, Y=-0.651*
  6: 0x00A6 [0x1F] MOVE_ENTITY: Update entity position (mode=1)
  7: 0x00A8 [0x1F] MOVE_ENTITY: EventEntity moves to X=99.711*, Z=-81.168*, Y=-0.651*
  8: 0x00B0 [0x1F] MOVE_ENTITY: Update entity position (mode=1)
  9: 0x00B2 [0x1F] MOVE_ENTITY: EventEntity moves to X=98.990*, Z=-80.858*, Y=-0.651*
 10: 0x00BA [0x1F] MOVE_ENTITY: Update entity position (mode=1)
 11: 0x00BC [0x1F] MOVE_ENTITY: EventEntity moves to X=97.800*, Z=-79.700*, Y=-0.651*
 12: 0x00C4 [0x1F] MOVE_ENTITY: Update entity position (mode=1)
 13: 0x00C6 [0x00] END_REQSTACK()
```

### Event 65535.7

#### Metadata

| Field        | Value    |
|--------------|----------|
| Entrypoint   | 0x00C7   |
| Data Size    | 14 bytes |
| Instructions | 4        |

```
      00 01 02 03 04 05 06 07  08 09 0A 0B 0C 0D 0E 0F
      -- -- -- -- -- -- -- --  -- -- -- -- -- -- -- --
00C0:                      32  00 80 1F 00 21 80 22 80         2....!.".
00D0: 16 80 1F 01 00                                    .....           
```

#### Opcodes

```
  0: 0x00C7 [0x32] ExtData[1]->MainSpeed = 13* * 0.1
  1: 0x00CA [0x1F] MOVE_ENTITY: EventEntity moves to X=96.360*, Z=-82.000*, Y=-0.651*
  2: 0x00D2 [0x1F] MOVE_ENTITY: Update entity position (mode=1)
  3: 0x00D4 [0x00] END_REQSTACK()
```

### Event 65535.8

#### Metadata

| Field        | Value    |
|--------------|----------|
| Entrypoint   | 0x00D5   |
| Data Size    | 23 bytes |
| Instructions | 7        |

```
      00 01 02 03 04 05 06 07  08 09 0A 0B 0C 0D 0E 0F
      -- -- -- -- -- -- -- --  -- -- -- -- -- -- -- --
00D0:                32 00 80  1F 00 23 80 24 80 16 80       2....#.$...
00E0: 1F 01 6F 1C 25 80 1E AC  00 10 01 00              ..o.%.......    
```

#### Opcodes

```
  0: 0x00D5 [0x32] ExtData[1]->MainSpeed = 13* * 0.1
  1: 0x00D8 [0x1F] MOVE_ENTITY: EventEntity moves to X=97.146*, Z=-80.198*, Y=-0.651*
  2: 0x00E0 [0x1F] MOVE_ENTITY: Update entity position (mode=1)
  3: 0x00E2 [0x6F] WAIT_FRAME_DELAY: Yield until WaitTime reaches zero
  4: 0x00E3 [0x1C] WAIT(10* ticks)
  5: 0x00E6 [0x1E] EventEntity looks at Gratzigg (ID: 17825964/0x011000AC) and starts talking
  6: 0x00EB [0x00] END_REQSTACK()
```

### Event 65535.9

#### Metadata

| Field        | Value    |
|--------------|----------|
| Entrypoint   | 0x00EC   |
| Data Size    | 14 bytes |
| Instructions | 4        |

```
      00 01 02 03 04 05 06 07  08 09 0A 0B 0C 0D 0E 0F
      -- -- -- -- -- -- -- --  -- -- -- -- -- -- -- --
00E0:                                      32 00 80 1F              2...
00F0: 00 26 80 27 80 16 80 1F  01 00                    .&.'......      
```

#### Opcodes

```
  0: 0x00EC [0x32] ExtData[1]->MainSpeed = 13* * 0.1
  1: 0x00EF [0x1F] MOVE_ENTITY: EventEntity moves to X=95.412*, Z=-78.408*, Y=-0.651*
  2: 0x00F7 [0x1F] MOVE_ENTITY: Update entity position (mode=1)
  3: 0x00F9 [0x00] END_REQSTACK()
```

### Event 65535.10

#### Metadata

| Field        | Value    |
|--------------|----------|
| Entrypoint   | 0x00FA   |
| Data Size    | 56 bytes |
| Instructions | 13       |

```
      00 01 02 03 04 05 06 07  08 09 0A 0B 0C 0D 0E 0F
      -- -- -- -- -- -- -- --  -- -- -- -- -- -- -- --
00F0:                                32 00 80 1F 00 28            2....(
0100: 80 29 80 16 80 1F 01 1F  00 2A 80 2B 80 16 80 1F  .).......*.+....
0110: 01 1F 00 2C 80 2D 80 16  80 1F 01 1F 00 2E 80 2F  ...,.-........./
0120: 80 16 80 1F 01 1F 00 30  80 31 80 16 80 1F 01 22  .......0.1....."
0130: 01 00                                             ..              
```

#### Opcodes

```
  0: 0x00FA [0x32] ExtData[1]->MainSpeed = 13* * 0.1
  1: 0x00FD [0x1F] MOVE_ENTITY: EventEntity moves to X=98.935*, Z=-82.037*, Y=-0.651*
  2: 0x0105 [0x1F] MOVE_ENTITY: Update entity position (mode=1)
  3: 0x0107 [0x1F] MOVE_ENTITY: EventEntity moves to X=99.445*, Z=-82.039*, Y=-0.651*
  4: 0x010F [0x1F] MOVE_ENTITY: Update entity position (mode=1)
  5: 0x0111 [0x1F] MOVE_ENTITY: EventEntity moves to X=100.308*, Z=-81.844*, Y=-0.651*
  6: 0x0119 [0x1F] MOVE_ENTITY: Update entity position (mode=1)
  7: 0x011B [0x1F] MOVE_ENTITY: EventEntity moves to X=101.226*, Z=-81.357*, Y=-0.651*
  8: 0x0123 [0x1F] MOVE_ENTITY: Update entity position (mode=1)
  9: 0x0125 [0x1F] MOVE_ENTITY: EventEntity moves to X=105.500*, Z=-77.500*, Y=-0.651*
 10: 0x012D [0x1F] MOVE_ENTITY: Update entity position (mode=1)
 11: 0x012F [0x22] ENTITY_HIDE_FLAG(enabled=0x01)
 12: 0x0131 [0x00] END_REQSTACK()
```

### Event 5221

#### Metadata

| Field        | Value   |
|--------------|---------|
| Entrypoint   | 0x0132  |
| Data Size    | 7 bytes |
| Instructions | 2       |

```
      00 01 02 03 04 05 06 07  08 09 0A 0B 0C 0D 0E 0F
      -- -- -- -- -- -- -- --  -- -- -- -- -- -- -- --
0130:       92 01 F8 FF FF 7F  00                         .......       
```

#### Opcodes

```
  0: 0x0132 [0x92] EventEntity->Render.Flags3 ^= 0x01
  1: 0x0138 [0x00] END_REQSTACK()
```

### Event 65535.11

#### Metadata

| Field        | Value    |
|--------------|----------|
| Entrypoint   | 0x0139   |
| Data Size    | 14 bytes |
| Instructions | 4        |

```
      00 01 02 03 04 05 06 07  08 09 0A 0B 0C 0D 0E 0F
      -- -- -- -- -- -- -- --  -- -- -- -- -- -- -- --
0130:                             32 00 80 1F 00 32 80           2....2.
0140: 33 80 34 80 1F 01 00                              3.4....         
```

#### Opcodes

```
  0: 0x0139 [0x32] ExtData[1]->MainSpeed = 13* * 0.1
  1: 0x013C [0x1F] MOVE_ENTITY: EventEntity moves to X=-31.690*, Z=-99.300*, Y=-0.650*
  2: 0x0144 [0x1F] MOVE_ENTITY: Update entity position (mode=1)
  3: 0x0146 [0x00] END_REQSTACK()
```
