# 0x7FFFFFF0 - Zone Events

## Common Data

| Field            | Value                     |
|------------------|---------------------------|
| Zone             | Western Adoulin (ID: 256) |
| Block Size       | 5056 bytes                |
| Total Events     | 138                       |
| References Count | 255                       |

## List of Events

| Event ID                     | Entrypoint   |   Size |   Instructions |
|------------------------------|--------------|--------|----------------|
| [65535](#event-65535)        | 0x0000       |      1 |              1 |
| [65534](#event-65534)        | 0x0001       |      1 |              1 |
| [65535.1](#event-655351)     | 0x0002       |      6 |              2 |
| [65535.2](#event-655352)     | 0x0008       |      6 |              2 |
| [65535.3](#event-655353)     | 0x000E       |     37 |              5 |
| [65535.4](#event-655354)     | 0x0033       |     37 |              5 |
| [65535.5](#event-655355)     | 0x0058       |     27 |              5 |
| [65535.6](#event-655356)     | 0x0073       |     24 |              4 |
| [65535.7](#event-655357)     | 0x008B       |    172 |             36 |
| [65535.8](#event-655358)     | 0x0137       |     24 |              4 |
| [65535.9](#event-655359)     | 0x014F       |     24 |              4 |
| [65535.10](#event-6553510)   | 0x0167       |     38 |              5 |
| [65535.11](#event-6553511)   | 0x018D       |     38 |              5 |
| [65535.12](#event-6553512)   | 0x01B3       |     38 |              5 |
| [65535.13](#event-6553513)   | 0x01D9       |     37 |              5 |
| [65535.14](#event-6553514)   | 0x01FE       |     37 |              5 |
| [65535.15](#event-6553515)   | 0x0223       |     42 |              6 |
| [65535.16](#event-6553516)   | 0x024D       |     29 |              5 |
| [65535.17](#event-6553517)   | 0x026A       |     29 |              5 |
| [65535.18](#event-6553518)   | 0x0287       |     47 |              7 |
| [65535.19](#event-6553519)   | 0x02B6       |     14 |              4 |
| [65535.20](#event-6553520)   | 0x02C4       |     14 |              4 |
| [65535.21](#event-6553521)   | 0x02D2       |     15 |              5 |
| [65535.22](#event-6553522)   | 0x02E1       |     15 |              5 |
| [65535.23](#event-6553523)   | 0x02F0       |     15 |              5 |
| [65535.24](#event-6553524)   | 0x02FF       |     14 |              4 |
| [65535.25](#event-6553525)   | 0x030D       |     19 |              5 |
| [65535.26](#event-6553526)   | 0x0320       |     19 |              5 |
| [65535.27](#event-6553527)   | 0x0333       |     14 |              4 |
| [65535.28](#event-6553528)   | 0x0341       |     24 |              6 |
| [65535.29](#event-6553529)   | 0x0359       |     14 |              4 |
| [65535.30](#event-6553530)   | 0x0367       |     19 |              5 |
| [65535.31](#event-6553531)   | 0x037A       |     14 |              4 |
| [65535.32](#event-6553532)   | 0x0388       |     19 |              5 |
| [65535.33](#event-6553533)   | 0x039B       |     22 |              6 |
| [65535.34](#event-6553534)   | 0x03B1       |     14 |              4 |
| [65535.35](#event-6553535)   | 0x03BF       |     22 |              6 |
| [65535.36](#event-6553536)   | 0x03D5       |     22 |              6 |
| [65535.37](#event-6553537)   | 0x03EB       |     22 |              6 |
| [65535.38](#event-6553538)   | 0x0401       |     35 |              7 |
| [65535.39](#event-6553539)   | 0x0424       |     22 |              6 |
| [65535.40](#event-6553540)   | 0x043A       |     35 |              7 |
| [65535.41](#event-6553541)   | 0x045D       |     22 |              6 |
| [65535.42](#event-6553542)   | 0x0473       |     14 |              4 |
| [65535.43](#event-6553543)   | 0x0481       |     14 |              4 |
| [65535.44](#event-6553544)   | 0x048F       |     22 |              6 |
| [65535.45](#event-6553545)   | 0x04A5       |     32 |              8 |
| [65535.46](#event-6553546)   | 0x04C5       |     31 |              6 |
| [65535.47](#event-6553547)   | 0x04E4       |     14 |              4 |
| [65535.48](#event-6553548)   | 0x04F2       |     14 |              4 |
| [65535.49](#event-6553549)   | 0x0500       |     32 |              8 |
| [65535.50](#event-6553550)   | 0x0520       |     22 |              6 |
| [65535.51](#event-6553551)   | 0x0536       |     22 |              6 |
| [65535.52](#event-6553552)   | 0x054C       |    366 |             43 |
| [65535.53](#event-6553553)   | 0x06BA       |    353 |             41 |
| [65535.54](#event-6553554)   | 0x081B       |     19 |              5 |
| [65535.55](#event-6553555)   | 0x082E       |     22 |              6 |
| [65535.56](#event-6553556)   | 0x0844       |     29 |              7 |
| [65535.57](#event-6553557)   | 0x0861       |     20 |              6 |
| [65535.58](#event-6553558)   | 0x0875       |     17 |              5 |
| [65535.59](#event-6553559)   | 0x0886       |     19 |              5 |
| [65535.60](#event-6553560)   | 0x0899       |      4 |              2 |
| [65535.61](#event-6553561)   | 0x089D       |     27 |              7 |
| [65535.62](#event-6553562)   | 0x08B8       |     32 |              6 |
| [65535.63](#event-6553563)   | 0x08D8       |     22 |              6 |
| [65535.64](#event-6553564)   | 0x08EE       |     22 |              6 |
| [65535.65](#event-6553565)   | 0x0904       |     20 |              8 |
| [65535.66](#event-6553566)   | 0x0918       |     14 |              4 |
| [65535.67](#event-6553567)   | 0x0926       |     14 |              4 |
| [65535.68](#event-6553568)   | 0x0934       |     14 |              4 |
| [65535.69](#event-6553569)   | 0x0942       |     27 |              7 |
| [65535.70](#event-6553570)   | 0x095D       |     18 |              6 |
| [65535.71](#event-6553571)   | 0x096F       |      4 |              2 |
| [65535.72](#event-6553572)   | 0x0973       |     14 |              4 |
| [65535.73](#event-6553573)   | 0x0981       |     14 |              4 |
| [65535.74](#event-6553574)   | 0x098F       |      4 |              2 |
| [65535.75](#event-6553575)   | 0x0993       |     14 |              4 |
| [65535.76](#event-6553576)   | 0x09A1       |     14 |              4 |
| [65535.77](#event-6553577)   | 0x09AF       |     19 |              5 |
| [65535.78](#event-6553578)   | 0x09C2       |     22 |              6 |
| [65535.79](#event-6553579)   | 0x09D8       |     22 |              6 |
| [65535.80](#event-6553580)   | 0x09EE       |     37 |              9 |
| [65535.81](#event-6553581)   | 0x0A13       |     14 |              4 |
| [65535.82](#event-6553582)   | 0x0A21       |     29 |              5 |
| [65535.83](#event-6553583)   | 0x0A3E       |     14 |              4 |
| [65535.84](#event-6553584)   | 0x0A4C       |     27 |              7 |
| [65535.85](#event-6553585)   | 0x0A67       |      4 |              2 |
| [65535.86](#event-6553586)   | 0x0A6B       |     23 |              7 |
| [65535.87](#event-6553587)   | 0x0A82       |     23 |              7 |
| [65535.88](#event-6553588)   | 0x0A99       |     28 |              7 |
| [65535.89](#event-6553589)   | 0x0AB5       |     14 |              4 |
| [65535.90](#event-6553590)   | 0x0AC3       |     24 |              6 |
| [65535.91](#event-6553591)   | 0x0ADB       |     14 |              4 |
| [65535.92](#event-6553592)   | 0x0AE9       |     14 |              4 |
| [65535.93](#event-6553593)   | 0x0AF7       |     14 |              4 |
| [65535.94](#event-6553594)   | 0x0B05       |     20 |              6 |
| [65535.95](#event-6553595)   | 0x0B19       |     14 |              4 |
| [65535.96](#event-6553596)   | 0x0B27       |     17 |              5 |
| [65535.97](#event-6553597)   | 0x0B38       |     34 |              8 |
| [65535.98](#event-6553598)   | 0x0B5A       |     24 |              6 |
| [65535.99](#event-6553599)   | 0x0B72       |     19 |              5 |
| [65535.100](#event-65535100) | 0x0B85       |     14 |              4 |
| [65535.101](#event-65535101) | 0x0B93       |     14 |              4 |
| [65535.102](#event-65535102) | 0x0BA1       |     24 |              6 |
| [65535.103](#event-65535103) | 0x0BB9       |     14 |              4 |
| [65535.104](#event-65535104) | 0x0BC7       |     14 |              4 |
| [65535.105](#event-65535105) | 0x0BD5       |     14 |              4 |
| [65535.106](#event-65535106) | 0x0BE3       |     14 |              4 |
| [65535.107](#event-65535107) | 0x0BF1       |     14 |              4 |
| [65535.108](#event-65535108) | 0x0BFF       |     13 |              3 |
| [65535.109](#event-65535109) | 0x0C0C       |     14 |              4 |
| [65535.110](#event-65535110) | 0x0C1A       |     14 |              4 |
| [65535.111](#event-65535111) | 0x0C28       |     14 |              4 |
| [65535.112](#event-65535112) | 0x0C36       |     14 |              4 |
| [65535.113](#event-65535113) | 0x0C44       |     16 |              4 |
| [65535.114](#event-65535114) | 0x0C54       |     19 |              5 |
| [65535.115](#event-65535115) | 0x0C67       |     14 |              4 |
| [65535.116](#event-65535116) | 0x0C75       |     23 |              5 |
| [65535.117](#event-65535117) | 0x0C8C       |     22 |              8 |
| [65535.118](#event-65535118) | 0x0CA2       |      6 |              2 |
| [65535.119](#event-65535119) | 0x0CA8       |      6 |              2 |
| [65535.120](#event-65535120) | 0x0CAE       |      6 |              2 |
| [65535.121](#event-65535121) | 0x0CB4       |      6 |              2 |
| [65535.122](#event-65535122) | 0x0CBA       |      6 |              2 |
| [65535.123](#event-65535123) | 0x0CC0       |     16 |              4 |
| [51](#event-51)              | 0x0CD0       |      1 |              1 |
| [54](#event-54)              | 0x0CD1       |      1 |              1 |
| [65535.124](#event-65535124) | 0x0CD2       |     10 |              2 |
| [65535.125](#event-65535125) | 0x0CDC       |     10 |              2 |
| [65535.126](#event-65535126) | 0x0CE6       |     10 |              2 |
| [65535.127](#event-65535127) | 0x0CF0       |     14 |              3 |
| [65535.128](#event-65535128) | 0x0CFE       |     10 |              2 |
| [65535.129](#event-65535129) | 0x0D08       |     14 |              4 |
| [65535.130](#event-65535130) | 0x0D16       |     10 |              2 |
| [65535.131](#event-65535131) | 0x0D20       |     10 |              2 |
| [65535.132](#event-65535132) | 0x0D2A       |     42 |              6 |
| [65535.133](#event-65535133) | 0x0D54       |     27 |              3 |
| [65535.134](#event-65535134) | 0x0D6F       |     27 |              3 |

## DAT References (imed_data)

|   Index | Hex Value   |   Dec Value |
|---------|-------------|-------------|
|       0 | 0x0005      |           5 |
|       1 | 0x0001      |           1 |
|       2 | 0x0002      |           2 |
|       3 | 0x000A      |          10 |
|       4 | 0x0009      |           9 |
|       5 | 0x0046      |          70 |
|       6 | 0x008C      |         140 |
|       7 | 0x00D2      |         210 |
|       8 | 0x0008      |           8 |
|       9 | 0x0007      |           7 |
|      10 | 0x0091      |         145 |
|      11 | 0x004F      |          79 |
|      12 | 0x004C      |          76 |
|      13 | 0x00C9      |         201 |
|      14 | 0x0018      |          24 |
|      15 | 0x0020      |          32 |
|      16 | 0x0030      |          48 |
|      17 | 0x0040      |          64 |
|      18 | 0x003C      |          60 |
|      19 | 0x000C      |          12 |
|      20 | 0xFFFE1204  |  4294840836 |
|      21 | 0xFFFFA54A  |  4294944074 |
|      22 | 0x0F9F      |        3999 |
|      23 | 0x000D      |          13 |
|      24 | 0xFFFE3E83  |  4294852227 |
|      25 | 0xFFFFB255  |  4294947413 |
|      26 | 0xFFFE9A94  |  4294875796 |
|      27 | 0x3E80      |       16000 |
|      28 | 0x0FA0      |        4000 |
|      29 | 0xFFFEA5E8  |  4294878696 |
|      30 | 0x4844      |       18500 |
|      31 | 0x0004      |           4 |
|      32 | 0xFFFFADFC  |  4294946300 |
|      33 | 0x0000      |           0 |
|      34 | 0x0083      |         131 |
|      35 | 0xFFFFCA57  |  4294953559 |
|      36 | 0xFFFF5244  |  4294922820 |
|      37 | 0xFFFFEB8E  |  4294962062 |
|      38 | 0xFFFF52E5  |  4294922981 |
|      39 | 0xFFFFD5E3  |  4294956515 |
|      40 | 0x2287      |        8839 |
|      41 | 0xFFFDDE5D  |  4294827613 |
|      42 | 0xFFFFFF6C  |  4294967148 |
|      43 | 0x0DD2      |        3538 |
|      44 | 0xFFFDD7CF  |  4294825935 |
|      45 | 0xFFFFFD11  |  4294966545 |
|      46 | 0x6789      |       26505 |
|      47 | 0xFFFE545B  |  4294857819 |
|      48 | 0xFFFF2200  |  4294910464 |
|      49 | 0xFFFFDE1B  |  4294958619 |
|      50 | 0xFFFFFE0C  |  4294966796 |
|      51 | 0x5B8C      |       23436 |
|      52 | 0xFFFE541F  |  4294857759 |
|      53 | 0xFFFFDF5B  |  4294958939 |
|      54 | 0xFFFE7F64  |  4294868836 |
|      55 | 0x0577      |        1399 |
|      56 | 0xFFFFCF37  |  4294954807 |
|      57 | 0xFFFE79C7  |  4294867399 |
|      58 | 0x001E      |          30 |
|      59 | 0xFFFFD5CF  |  4294956495 |
|      60 | 0xFFFE7960  |  4294867296 |
|      61 | 0xFFFE9C19  |  4294876185 |
|      62 | 0x3E4C      |       15948 |
|      63 | 0x0D15      |        3349 |
|      64 | 0x0039      |          57 |
|      65 | 0xFFFFC54D  |  4294952269 |
|      66 | 0xFFFFBF61  |  4294950753 |
|      67 | 0x003D      |          61 |
|      68 | 0xFFFFCDAB  |  4294954411 |
|      69 | 0xFFFFFFAE  |  4294967214 |
|      70 | 0xFFFFC44A  |  4294952010 |
|      71 | 0xFFFDDC5A  |  4294827098 |
|      72 | 0xFFFF9B38  |  4294941496 |
|      73 | 0xFFFDA9C3  |  4294814147 |
|      74 | 0xFFFF9A81  |  4294941313 |
|      75 | 0xFFFE39AF  |  4294850991 |
|      76 | 0xFFFFB424  |  4294947876 |
|      77 | 0x01E0      |         480 |
|      78 | 0xFFFFC9DE  |  4294953438 |
|      79 | 0x035C      |         860 |
|      80 | 0xFFFFCC83  |  4294954115 |
|      81 | 0xFFFF1F27  |  4294909735 |
|      82 | 0xFFFFEC17  |  4294962199 |
|      83 | 0xFFFF21D6  |  4294910422 |
|      84 | 0xFFFFE193  |  4294959507 |
|      85 | 0xFFFF1F81  |  4294909825 |
|      86 | 0xFFFFDC42  |  4294958146 |
|      87 | 0xFFFF23E0  |  4294910944 |
|      88 | 0xFFFFE531  |  4294960433 |
|      89 | 0x0078      |         120 |
|      90 | 0x0095      |         149 |
|      91 | 0x009F      |         159 |
|      92 | 0x0003      |           3 |
|      93 | 0x00A9      |         169 |
|      94 | 0x00B3      |         179 |
|      95 | 0x00BD      |         189 |
|      96 | 0x0006      |           6 |
|      97 | 0x00C7      |         199 |
|      98 | 0x00D1      |         209 |
|      99 | 0xFFFF8A03  |  4294937091 |
|     100 | 0xFFFE81E4  |  4294869476 |
|     101 | 0xFFFFFD76  |  4294966646 |
|     102 | 0x161E8     |       90600 |
|     103 | 0xFFFE2C08  |  4294847496 |
|     104 | 0x0028      |          40 |
|     105 | 0x18B6E     |      101230 |
|     106 | 0xFFFE57C8  |  4294858696 |
|     107 | 0x08CA      |        2250 |
|     108 | 0x1D1A0     |      119200 |
|     109 | 0xFFFE9C88  |  4294876296 |
|     110 | 0xFFFFFCE9  |  4294966505 |
|     111 | 0x05FF      |        1535 |
|     112 | 0xFFFF8293  |  4294935187 |
|     113 | 0xFFFE7A4A  |  4294867530 |
|     114 | 0x000F      |          15 |
|     115 | 0x0015      |          21 |
|     116 | 0xFFFFFE01  |  4294966785 |
|     117 | 0xFFFF6DAE  |  4294929838 |
|     118 | 0xFFFE66C2  |  4294862530 |
|     119 | 0xFFFF7750  |  4294932304 |
|     120 | 0xFFFE447A  |  4294853754 |
|     121 | 0x165F1     |       91633 |
|     122 | 0xFFFE318F  |  4294848911 |
|     123 | 0x019D      |         413 |
|     124 | 0x16C53     |       93267 |
|     125 | 0xFFFE2FB4  |  4294848436 |
|     126 | 0xFFFFFA0B  |  4294965771 |
|     127 | 0xFFFF64EC  |  4294927596 |
|     128 | 0xFFFE6128  |  4294861096 |
|     129 | 0xFFFF6FDC  |  4294930396 |
|     130 | 0xFFFE6ED4  |  4294864596 |
|     131 | 0xFFFF810C  |  4294934796 |
|     132 | 0xFFFE8130  |  4294869296 |
|     133 | 0xFFFF877E  |  4294936446 |
|     134 | 0xFFFE83B0  |  4294869936 |
|     135 | 0x16634     |       91700 |
|     136 | 0xFFFE3022  |  4294848546 |
|     137 | 0x19514     |      103700 |
|     138 | 0xFFFE6092  |  4294860946 |
|     139 | 0x007F      |         127 |
|     140 | 0x1CD0E     |      118030 |
|     141 | 0x1DCCC     |      122060 |
|     142 | 0x7D00      |       32000 |
|     143 | 0xFFFF1ECE  |  4294909646 |
|     144 | 0xFFFFEC78  |  4294962296 |
|     145 | 0xFFFF255E  |  4294911326 |
|     146 | 0xFFFFECB4  |  4294962356 |
|     147 | 0xFFFFFAF3  |  4294966003 |
|     148 | 0x1656C     |       91500 |
|     149 | 0xFFFE343C  |  4294849596 |
|     150 | 0x031D      |         797 |
|     151 | 0x182B8     |       99000 |
|     152 | 0xFFFE7578  |  4294866296 |
|     153 | 0x0960      |        2400 |
|     154 | 0x21340     |      136000 |
|     155 | 0xFFFF0790  |  4294903696 |
|     156 | 0x21728     |      137000 |
|     157 | 0xFFFF4E80  |  4294921856 |
|     158 | 0x17318     |       95000 |
|     159 | 0xFFFEDA59  |  4294892121 |
|     160 | 0xFFFFFD75  |  4294966645 |
|     161 | 0x16D3C     |       93500 |
|     162 | 0xFFFEDDC4  |  4294892996 |
|     163 | 0x19208     |      102920 |
|     164 | 0xFFFEC398  |  4294886296 |
|     165 | 0x18574     |       99700 |
|     166 | 0xFFFECC94  |  4294888596 |
|     167 | 0x18382     |       99202 |
|     168 | 0xFFFEC8ED  |  4294887661 |
|     169 | 0x17F83     |       98179 |
|     170 | 0xFFFEC484  |  4294886532 |
|     171 | 0x0117      |         279 |
|     172 | 0xFFFF664F  |  4294927951 |
|     173 | 0xFFFE5EA8  |  4294860456 |
|     174 | 0xFFFF78DB  |  4294932699 |
|     175 | 0xFFFE773C  |  4294866748 |
|     176 | 0xFFFF8931  |  4294936881 |
|     177 | 0xFFFE86FA  |  4294870778 |
|     178 | 0xFFFF88CB  |  4294936779 |
|     179 | 0xFFFE8DFF  |  4294872575 |
|     180 | 0x17124     |       94500 |
|     181 | 0xFFFEDB08  |  4294892296 |
|     182 | 0x125F2     |       75250 |
|     183 | 0x1D74A     |      120650 |
|     184 | 0x7530      |       30000 |
|     185 | 0x07FF      |        2047 |
|     186 | 0x86C4      |       34500 |
|     187 | 0xFFFFE4A8  |  4294960296 |
|     188 | 0x057E      |        1406 |
|     189 | 0xFFFE958A  |  4294874506 |
|     190 | 0x3D68      |       15720 |
|     191 | 0x0D16      |        3350 |
|     192 | 0xFFFE9A3A  |  4294875706 |
|     193 | 0x3B56      |       15190 |
|     194 | 0xFFFEA2E4  |  4294877924 |
|     195 | 0x3551      |       13649 |
|     196 | 0xFFFF6BE0  |  4294929376 |
|     197 | 0xFFFE5C46  |  4294859846 |
|     198 | 0xFFFF67EE  |  4294928366 |
|     199 | 0xFFFE610A  |  4294861066 |
|     200 | 0xFFFF8300  |  4294935296 |
|     201 | 0xFFFF88C8  |  4294936776 |
|     202 | 0xFFFE8E00  |  4294872576 |
|     203 | 0x18E70     |      102000 |
|     204 | 0x184AC     |       99500 |
|     205 | 0xFFFEC884  |  4294887556 |
|     206 | 0x1705C     |       94300 |
|     207 | 0xFFFEDA72  |  4294892146 |
|     208 | 0x12016     |       73750 |
|     209 | 0x1D2CC     |      119500 |
|     210 | 0xD353      |       54099 |
|     211 | 0x26B2F     |      158511 |
|     212 | 0x7CFF      |       31999 |
|     213 | 0x1032B     |       66347 |
|     214 | 0x23909     |      145673 |
|     215 | 0x100DE     |       65758 |
|     216 | 0xFFFF0155  |  4294902101 |
|     217 | 0x002C      |          44 |
|     218 | 0x4AEB      |       19179 |
|     219 | 0x234C8     |      144584 |
|     220 | 0x50CB      |       20683 |
|     221 | 0x20F3F     |      134975 |
|     222 | 0x0012      |          18 |
|     223 | 0x006E      |         110 |
|     224 | 0x0026      |          38 |
|     225 | 0x0050      |          80 |
|     226 | 0x30CB      |       12491 |
|     227 | 0xFFFFBE39  |  4294950457 |
|     228 | 0x03E7      |         999 |
|     229 | 0x66C8      |       26312 |
|     230 | 0xFFFFDC2B  |  4294958123 |
|     231 | 0x0F07      |        3847 |
|     232 | 0x6D06      |       27910 |
|     233 | 0xFFFFDF1A  |  4294958874 |
|     234 | 0x16AF7     |       92919 |
|     235 | 0xFFFEDF3E  |  4294893374 |
|     236 | 0x0014      |          20 |
|     237 | 0x1292F     |       76079 |
|     238 | 0x218F2     |      137458 |
|     239 | 0x019E      |         414 |
|     240 | 0x1341B     |       78875 |
|     241 | 0x2152E     |      136494 |
|     242 | 0x04B0      |        1200 |
|     243 | 0x13706     |       79622 |
|     244 | 0x21926     |      137510 |
|     245 | 0x12C72     |       76914 |
|     246 | 0x2190C     |      137484 |
|     247 | 0x02BC      |         700 |
|     248 | 0x12B1D     |       76573 |
|     249 | 0x21601     |      136705 |
|     250 | 0x640B      |       25611 |
|     251 | 0x87CE      |       34766 |
|     252 | 0x009A      |         154 |
|     253 | 0xFFFFF98B  |  4294965643 |
|     254 | 0x0B83      |        2947 |

## Events

### Event 65535

#### Metadata

| Field        | Value   |
|--------------|---------|
| Entrypoint   | 0x0000  |
| Data Size    | 1 bytes |
| Instructions | 1       |

```
      00 01 02 03 04 05 06 07  08 09 0A 0B 0C 0D 0E 0F
      -- -- -- -- -- -- -- --  -- -- -- -- -- -- -- --
0000: 00                                                .               
```

#### Opcodes

```
  0: 0x0000 [0x00] END_REQSTACK()
```

### Event 65534

#### Metadata

| Field        | Value   |
|--------------|---------|
| Entrypoint   | 0x0001  |
| Data Size    | 1 bytes |
| Instructions | 1       |

```
      00 01 02 03 04 05 06 07  08 09 0A 0B 0C 0D 0E 0F
      -- -- -- -- -- -- -- --  -- -- -- -- -- -- -- --
0000:    00                                              .              
```

#### Opcodes

```
  0: 0x0001 [0x00] END_REQSTACK()
```

### Event 65535.1

#### Metadata

| Field        | Value   |
|--------------|---------|
| Entrypoint   | 0x0002  |
| Data Size    | 6 bytes |
| Instructions | 2       |

```
      00 01 02 03 04 05 06 07  08 09 0A 0B 0C 0D 0E 0F
      -- -- -- -- -- -- -- --  -- -- -- -- -- -- -- --
0000:       03 02 10 07 7F 00                             ......        
```

#### Opcodes

```
  0: 0x0002 [0x03] Work_Zone[2] = Entity->Race
  1: 0x0007 [0x00] END_REQSTACK()
```

### Event 65535.2

#### Metadata

| Field        | Value   |
|--------------|---------|
| Entrypoint   | 0x0008  |
| Data Size    | 6 bytes |
| Instructions | 2       |

```
      00 01 02 03 04 05 06 07  08 09 0A 0B 0C 0D 0E 0F
      -- -- -- -- -- -- -- --  -- -- -- -- -- -- -- --
0000:                          03 02 10 0B 7F 00                ......  
```

#### Opcodes

```
  0: 0x0008 [0x03] Work_Zone[2] = (Entity->Render.Flags01 >> 25) & 1
  1: 0x000D [0x00] END_REQSTACK()
```

### Event 65535.3

#### Metadata

| Field        | Value    |
|--------------|----------|
| Entrypoint   | 0x000E   |
| Data Size    | 37 bytes |
| Instructions | 5        |

```
      00 01 02 03 04 05 06 07  08 09 0A 0B 0C 0D 0E 0F
      -- -- -- -- -- -- -- --  -- -- -- -- -- -- -- --
0000:                                            03 00                ..
0010: 00 07 7F 1A A3 00 66 01  00 F8 FF FF 7F F8 FF FF  ......f.........
0020: 7F 73 68 61 30 53 F8 FF  FF 7F F8 FF FF 7F 73 68  .sha0S........sh
0030: 61 30 00                                          a0.             
```

#### Opcodes

```
  0: 0x000E [0x03] ExtData[1]->WorkLocal[0] = Entity->Race
  1: 0x0013 [0x1A] CALL_SUBROUTINE(address=0x00A3)
  2: 0x0016 [0x66] LOAD_EXT_SCHEDULER_MAIN: Load scheduler "sha0" with entities [EventEntity, EventEntity], work=ExtData[1]->WorkLocal[1]
  3: 0x0025 [0x53] WAIT_SCHEDULER_TASK: Wait for scheduler "sha0" with entities [EventEntity, EventEntity]
  4: 0x0032 [0x00] END_REQSTACK()
```

### Event 65535.4

#### Metadata

| Field        | Value    |
|--------------|----------|
| Entrypoint   | 0x0033   |
| Data Size    | 37 bytes |
| Instructions | 5        |

```
      00 01 02 03 04 05 06 07  08 09 0A 0B 0C 0D 0E 0F
      -- -- -- -- -- -- -- --  -- -- -- -- -- -- -- --
0030:          03 00 00 07 7F  1A A3 00 66 01 00 F8 FF     ........f....
0040: FF 7F F8 FF FF 7F 73 68  61 31 53 F8 FF FF 7F F8  ......sha1S.....
0050: FF FF 7F 73 68 61 31 00                           ...sha1.        
```

#### Opcodes

```
  0: 0x0033 [0x03] ExtData[1]->WorkLocal[0] = Entity->Race
  1: 0x0038 [0x1A] CALL_SUBROUTINE(address=0x00A3)
  2: 0x003B [0x66] LOAD_EXT_SCHEDULER_MAIN: Load scheduler "sha1" with entities [EventEntity, EventEntity], work=ExtData[1]->WorkLocal[1]
  3: 0x004A [0x53] WAIT_SCHEDULER_TASK: Wait for scheduler "sha1" with entities [EventEntity, EventEntity]
  4: 0x0057 [0x00] END_REQSTACK()
```

### Event 65535.5

#### Metadata

| Field        | Value    |
|--------------|----------|
| Entrypoint   | 0x0058   |
| Data Size    | 27 bytes |
| Instructions | 5        |

```
      00 01 02 03 04 05 06 07  08 09 0A 0B 0C 0D 0E 0F
      -- -- -- -- -- -- -- --  -- -- -- -- -- -- -- --
0050:                          03 00 00 07 7F 1A C8 00          ........
0060: 0B 01 00 66 01 00 F8 FF  FF 7F F8 FF FF 7F 70 61  ...f..........pa
0070: 73 30 00                                          s0.             
```

#### Opcodes

```
  0: 0x0058 [0x03] ExtData[1]->WorkLocal[0] = Entity->Race
  1: 0x005D [0x1A] CALL_SUBROUTINE(address=0x00C8)
  2: 0x0060 [0x0B] ExtData[1]->WorkLocal[1]++
  3: 0x0063 [0x66] LOAD_EXT_SCHEDULER_MAIN: Load scheduler "pas0" with entities [EventEntity, EventEntity], work=ExtData[1]->WorkLocal[1]
  4: 0x0072 [0x00] END_REQSTACK()
```

### Event 65535.6

#### Metadata

| Field        | Value    |
|--------------|----------|
| Entrypoint   | 0x0073   |
| Data Size    | 24 bytes |
| Instructions | 4        |

```
      00 01 02 03 04 05 06 07  08 09 0A 0B 0C 0D 0E 0F
      -- -- -- -- -- -- -- --  -- -- -- -- -- -- -- --
0070:          03 00 00 07 7F  1A A3 00 66 01 00 F8 FF     ........f....
0080: FF 7F F8 FF FF 7F 74 68  6B 31 00                 ......thk1.     
```

#### Opcodes

```
  0: 0x0073 [0x03] ExtData[1]->WorkLocal[0] = Entity->Race
  1: 0x0078 [0x1A] CALL_SUBROUTINE(address=0x00A3)
  2: 0x007B [0x66] LOAD_EXT_SCHEDULER_MAIN: Load scheduler "thk1" with entities [EventEntity, EventEntity], work=ExtData[1]->WorkLocal[1]
  3: 0x008A [0x00] END_REQSTACK()
```

### Event 65535.7

#### Metadata

| Field        | Value     |
|--------------|-----------|
| Entrypoint   | 0x008B    |
| Data Size    | 172 bytes |
| Instructions | 12        |

```
      00 01 02 03 04 05 06 07  08 09 0A 0B 0C 0D 0E 0F
      -- -- -- -- -- -- -- --  -- -- -- -- -- -- -- --
0080:                                   03 00 00 07 7F             .....
0090: 1A A3 00 66 01 00 F8 FF  FF 7F F8 FF FF 7F 74 68  ...f..........th
00A0: 6B 32 00 03 01 00 00 00  02 01 00 00 80 05 B8 00  k2..............
00B0: 08 01 00 01 80 01 BD 00  08 01 00 02 80 14 01 00  ................
00C0: 03 80 07 01 00 04 80 1B  03 01 00 00 00 02 01 00  ................
00D0: 00 80 05 DD 00 08 01 00  01 80 01 E2 00 08 01 00  ................
00E0: 02 80 14 01 00 03 80 07  01 00 05 80 1B 03 01 00  ................
00F0: 00 00 02 01 00 00 80 05  02 01 08 01 00 01 80 01  ................
0100: 07 01 08 01 00 02 80 14  01 00 03 80 07 01 00 06  ................
0110: 80 1B 03 01 00 00 00 02  01 00 00 80 05 27 01 08  .............'..
0120: 01 00 01 80 01 2C 01 08  01 00 02 80 14 01 00 03  .....,..........
0130: 80 07 01 00 07 80 1B                              .......         
```

#### Opcodes

```
  0: 0x008B [0x03] ExtData[1]->WorkLocal[0] = Entity->Race
  1: 0x0090 [0x1A] CALL_SUBROUTINE(address=0x00A3)
  2: 0x0093 [0x66] LOAD_EXT_SCHEDULER_MAIN: Load scheduler "thk2" with entities [EventEntity, EventEntity], work=ExtData[1]->WorkLocal[1]
  3: 0x00A2 [0x00] END_REQSTACK()

SUBROUTINE_00A3:
  4: 0x00A3 [0x03] ExtData[1]->WorkLocal[1] = ExtData[1]->WorkLocal[0]
  5: 0x00A8 [0x02] IF !(ExtData[1]->WorkLocal[1] > 5*) GOTO 0x00B8
  6: 0x00B0 [0x08] ExtData[1]->WorkLocal[1] -= 1*
  7: 0x00B5 [0x01] GOTO 0x00BD
  8: 0x00B8 [0x08] ExtData[1]->WorkLocal[1] -= 2*

SUBROUTINE_00BD:
  9: 0x00BD [0x14] ExtData[1]->WorkLocal[1] *= 10*
 10: 0x00C2 [0x07] ExtData[1]->WorkLocal[1] += 9*
 11: 0x00C7 [0x1B] RETURN
```

#### Data or dead code:

```
# Dead code (unreachable instructions):
     0x00C8 [0x03] ExtData[1]->WorkLocal[1] = ExtData[1]->WorkLocal[0]
     0x00CD [0x02] IF !(ExtData[1]->WorkLocal[1] > 5*) GOTO 0x00DD
     0x00D5 [0x08] ExtData[1]->WorkLocal[1] -= 1*
     0x00DA [0x01] GOTO 0x00E2
     0x00DD [0x08] ExtData[1]->WorkLocal[1] -= 2*
     0x00E2 [0x14] ExtData[1]->WorkLocal[1] *= 10*
     0x00E7 [0x07] ExtData[1]->WorkLocal[1] += 70*
     0x00EC [0x1B] RETURN
     0x00ED [0x03] ExtData[1]->WorkLocal[1] = ExtData[1]->WorkLocal[0]
     0x00F2 [0x02] IF !(ExtData[1]->WorkLocal[1] > 5*) GOTO 0x0102
     0x00FA [0x08] ExtData[1]->WorkLocal[1] -= 1*
     0x00FF [0x01] GOTO 0x0107
     0x0102 [0x08] ExtData[1]->WorkLocal[1] -= 2*
     0x0107 [0x14] ExtData[1]->WorkLocal[1] *= 10*
     0x010C [0x07] ExtData[1]->WorkLocal[1] += 140*
     0x0111 [0x1B] RETURN
     0x0112 [0x03] ExtData[1]->WorkLocal[1] = ExtData[1]->WorkLocal[0]
     0x0117 [0x02] IF !(ExtData[1]->WorkLocal[1] > 5*) GOTO 0x0127
     0x011F [0x08] ExtData[1]->WorkLocal[1] -= 1*
     0x0124 [0x01] GOTO 0x012C
     0x0127 [0x08] ExtData[1]->WorkLocal[1] -= 2*
     0x012C [0x14] ExtData[1]->WorkLocal[1] *= 10*
     0x0131 [0x07] ExtData[1]->WorkLocal[1] += 210*
     0x0136 [0x1B] RETURN
```

### Event 65535.8

#### Metadata

| Field        | Value    |
|--------------|----------|
| Entrypoint   | 0x0137   |
| Data Size    | 24 bytes |
| Instructions | 4        |

```
      00 01 02 03 04 05 06 07  08 09 0A 0B 0C 0D 0E 0F
      -- -- -- -- -- -- -- --  -- -- -- -- -- -- -- --
0130:                      03  00 00 07 7F 1A A3 00 66         ........f
0140: 01 00 F8 FF FF 7F F8 FF  FF 7F 74 6C 6B 30 00     ..........tlk0. 
```

#### Opcodes

```
  0: 0x0137 [0x03] ExtData[1]->WorkLocal[0] = Entity->Race
  1: 0x013C [0x1A] CALL_SUBROUTINE(address=0x00A3)
  2: 0x013F [0x66] LOAD_EXT_SCHEDULER_MAIN: Load scheduler "tlk0" with entities [EventEntity, EventEntity], work=ExtData[1]->WorkLocal[1]
  3: 0x014E [0x00] END_REQSTACK()
```

### Event 65535.9

#### Metadata

| Field        | Value    |
|--------------|----------|
| Entrypoint   | 0x014F   |
| Data Size    | 24 bytes |
| Instructions | 4        |

```
      00 01 02 03 04 05 06 07  08 09 0A 0B 0C 0D 0E 0F
      -- -- -- -- -- -- -- --  -- -- -- -- -- -- -- --
0140:                                               03                 .
0150: 00 00 07 7F 1A A3 00 66  01 00 F8 FF FF 7F F8 FF  .......f........
0160: FF 7F 74 6C 6B 31 00                              ..tlk1.         
```

#### Opcodes

```
  0: 0x014F [0x03] ExtData[1]->WorkLocal[0] = Entity->Race
  1: 0x0154 [0x1A] CALL_SUBROUTINE(address=0x00A3)
  2: 0x0157 [0x66] LOAD_EXT_SCHEDULER_MAIN: Load scheduler "tlk1" with entities [EventEntity, EventEntity], work=ExtData[1]->WorkLocal[1]
  3: 0x0166 [0x00] END_REQSTACK()
```

### Event 65535.10

#### Metadata

| Field        | Value    |
|--------------|----------|
| Entrypoint   | 0x0167   |
| Data Size    | 38 bytes |
| Instructions | 5        |

```
      00 01 02 03 04 05 06 07  08 09 0A 0B 0C 0D 0E 0F
      -- -- -- -- -- -- -- --  -- -- -- -- -- -- -- --
0160:                      22  00 2F 00 F8 FF FF 7F B6         "./......
0170: 0B 08 80 09 80 0A 80 0B  80 0C 80 0C 80 0C 80 0D  ................
0180: 80 0E 80 6C F8 FF FF 7F  0F 80 01 80 00           ...l.........   
```

#### Opcodes

```
  0: 0x0167 [0x22] ENTITY_HIDE_FLAG(enabled=0x00)
  1: 0x0169 [0x2F] EventEntity->Render.Flags0 &= ~0x80000 // Bit 19
  2: 0x016F [0xB6] ENTITY_APPEARANCE_HANDLER(case=Full entity look, race=8*, hair=7*, head=145*, body=79*, hands=76*, legs=76*, feet=76*, main=201*, sub=24*)
  3: 0x0183 [0x6C] FADE_ENTITY_COLOR(entity_id=EventEntity, end_alpha=32*, fade_time=1*)
  4: 0x018C [0x00] END_REQSTACK()
```

### Event 65535.11

#### Metadata

| Field        | Value    |
|--------------|----------|
| Entrypoint   | 0x018D   |
| Data Size    | 38 bytes |
| Instructions | 5        |

```
      00 01 02 03 04 05 06 07  08 09 0A 0B 0C 0D 0E 0F
      -- -- -- -- -- -- -- --  -- -- -- -- -- -- -- --
0180:                                         22 00 2F               "./
0190: 00 F8 FF FF 7F B6 0B 09  80 09 80 0A 80 0B 80 0C  ................
01A0: 80 0C 80 0C 80 0D 80 0E  80 6C F8 FF FF 7F 10 80  .........l......
01B0: 01 80 00                                          ...             
```

#### Opcodes

```
  0: 0x018D [0x22] ENTITY_HIDE_FLAG(enabled=0x00)
  1: 0x018F [0x2F] EventEntity->Render.Flags0 &= ~0x80000 // Bit 19
  2: 0x0195 [0xB6] ENTITY_APPEARANCE_HANDLER(case=Full entity look, race=7*, hair=7*, head=145*, body=79*, hands=76*, legs=76*, feet=76*, main=201*, sub=24*)
  3: 0x01A9 [0x6C] FADE_ENTITY_COLOR(entity_id=EventEntity, end_alpha=48*, fade_time=1*)
  4: 0x01B2 [0x00] END_REQSTACK()
```

### Event 65535.12

#### Metadata

| Field        | Value    |
|--------------|----------|
| Entrypoint   | 0x01B3   |
| Data Size    | 38 bytes |
| Instructions | 5        |

```
      00 01 02 03 04 05 06 07  08 09 0A 0B 0C 0D 0E 0F
      -- -- -- -- -- -- -- --  -- -- -- -- -- -- -- --
01B0:          22 00 2F 00 F8  FF FF 7F B6 0B 00 80 09     "./..........
01C0: 80 0A 80 0B 80 0C 80 0C  80 0C 80 0D 80 0E 80 6C  ...............l
01D0: F8 FF FF 7F 11 80 01 80  00                       .........       
```

#### Opcodes

```
  0: 0x01B3 [0x22] ENTITY_HIDE_FLAG(enabled=0x00)
  1: 0x01B5 [0x2F] EventEntity->Render.Flags0 &= ~0x80000 // Bit 19
  2: 0x01BB [0xB6] ENTITY_APPEARANCE_HANDLER(case=Full entity look, race=5*, hair=7*, head=145*, body=79*, hands=76*, legs=76*, feet=76*, main=201*, sub=24*)
  3: 0x01CF [0x6C] FADE_ENTITY_COLOR(entity_id=EventEntity, end_alpha=64*, fade_time=1*)
  4: 0x01D8 [0x00] END_REQSTACK()
```

### Event 65535.13

#### Metadata

| Field        | Value    |
|--------------|----------|
| Entrypoint   | 0x01D9   |
| Data Size    | 37 bytes |
| Instructions | 5        |

```
      00 01 02 03 04 05 06 07  08 09 0A 0B 0C 0D 0E 0F
      -- -- -- -- -- -- -- --  -- -- -- -- -- -- -- --
01D0:                             03 00 00 07 7F 1A A3           .......
01E0: 00 66 01 00 F8 FF FF 7F  F8 FF FF 7F 73 69 74 30  .f..........sit0
01F0: 53 F8 FF FF 7F F8 FF FF  7F 73 69 74 30 00        S........sit0.  
```

#### Opcodes

```
  0: 0x01D9 [0x03] ExtData[1]->WorkLocal[0] = Entity->Race
  1: 0x01DE [0x1A] CALL_SUBROUTINE(address=0x00A3)
  2: 0x01E1 [0x66] LOAD_EXT_SCHEDULER_MAIN: Load scheduler "sit0" with entities [EventEntity, EventEntity], work=ExtData[1]->WorkLocal[1]
  3: 0x01F0 [0x53] WAIT_SCHEDULER_TASK: Wait for scheduler "sit0" with entities [EventEntity, EventEntity]
  4: 0x01FD [0x00] END_REQSTACK()
```

### Event 65535.14

#### Metadata

| Field        | Value    |
|--------------|----------|
| Entrypoint   | 0x01FE   |
| Data Size    | 37 bytes |
| Instructions | 5        |

```
      00 01 02 03 04 05 06 07  08 09 0A 0B 0C 0D 0E 0F
      -- -- -- -- -- -- -- --  -- -- -- -- -- -- -- --
01F0:                                            03 00                ..
0200: 00 07 7F 1A A3 00 66 01  00 F8 FF FF 7F F8 FF FF  ......f.........
0210: 7F 73 69 74 31 53 F8 FF  FF 7F F8 FF FF 7F 73 69  .sit1S........si
0220: 74 31 00                                          t1.             
```

#### Opcodes

```
  0: 0x01FE [0x03] ExtData[1]->WorkLocal[0] = Entity->Race
  1: 0x0203 [0x1A] CALL_SUBROUTINE(address=0x00A3)
  2: 0x0206 [0x66] LOAD_EXT_SCHEDULER_MAIN: Load scheduler "sit1" with entities [EventEntity, EventEntity], work=ExtData[1]->WorkLocal[1]
  3: 0x0215 [0x53] WAIT_SCHEDULER_TASK: Wait for scheduler "sit1" with entities [EventEntity, EventEntity]
  4: 0x0222 [0x00] END_REQSTACK()
```

### Event 65535.15

#### Metadata

| Field        | Value    |
|--------------|----------|
| Entrypoint   | 0x0223   |
| Data Size    | 42 bytes |
| Instructions | 6        |

```
      00 01 02 03 04 05 06 07  08 09 0A 0B 0C 0D 0E 0F
      -- -- -- -- -- -- -- --  -- -- -- -- -- -- -- --
0220:          03 00 00 07 7F  1A A3 00 66 01 00 F8 FF     ........f....
0230: FF 7F F8 FF FF 7F 74 6C  6B 30 1C 12 80 66 01 00  ......tlk0...f..
0240: F8 FF FF 7F F8 FF FF 7F  74 6C 6B 31 00           ........tlk1.   
```

#### Opcodes

```
  0: 0x0223 [0x03] ExtData[1]->WorkLocal[0] = Entity->Race
  1: 0x0228 [0x1A] CALL_SUBROUTINE(address=0x00A3)
  2: 0x022B [0x66] LOAD_EXT_SCHEDULER_MAIN: Load scheduler "tlk0" with entities [EventEntity, EventEntity], work=ExtData[1]->WorkLocal[1]
  3: 0x023A [0x1C] WAIT(60* ticks)
  4: 0x023D [0x66] LOAD_EXT_SCHEDULER_MAIN: Load scheduler "tlk1" with entities [EventEntity, EventEntity], work=ExtData[1]->WorkLocal[1]
  5: 0x024C [0x00] END_REQSTACK()
```

### Event 65535.16

#### Metadata

| Field        | Value    |
|--------------|----------|
| Entrypoint   | 0x024D   |
| Data Size    | 29 bytes |
| Instructions | 5        |

```
      00 01 02 03 04 05 06 07  08 09 0A 0B 0C 0D 0E 0F
      -- -- -- -- -- -- -- --  -- -- -- -- -- -- -- --
0240:                                         03 00 00               ...
0250: 07 7F 1A ED 00 07 01 00  04 80 66 01 00 F8 FF FF  ..........f.....
0260: 7F F8 FF FF 7F 74 6C 6B  30 00                    .....tlk0.      
```

#### Opcodes

```
  0: 0x024D [0x03] ExtData[1]->WorkLocal[0] = Entity->Race
  1: 0x0252 [0x1A] CALL_SUBROUTINE(address=0x00ED)
  2: 0x0255 [0x07] ExtData[1]->WorkLocal[1] += 9*
  3: 0x025A [0x66] LOAD_EXT_SCHEDULER_MAIN: Load scheduler "tlk0" with entities [EventEntity, EventEntity], work=ExtData[1]->WorkLocal[1]
  4: 0x0269 [0x00] END_REQSTACK()
```

### Event 65535.17

#### Metadata

| Field        | Value    |
|--------------|----------|
| Entrypoint   | 0x026A   |
| Data Size    | 29 bytes |
| Instructions | 5        |

```
      00 01 02 03 04 05 06 07  08 09 0A 0B 0C 0D 0E 0F
      -- -- -- -- -- -- -- --  -- -- -- -- -- -- -- --
0260:                                03 00 00 07 7F 1A            ......
0270: ED 00 07 01 00 04 80 66  01 00 F8 FF FF 7F F8 FF  .......f........
0280: FF 7F 74 6C 6B 31 00                              ..tlk1.         
```

#### Opcodes

```
  0: 0x026A [0x03] ExtData[1]->WorkLocal[0] = Entity->Race
  1: 0x026F [0x1A] CALL_SUBROUTINE(address=0x00ED)
  2: 0x0272 [0x07] ExtData[1]->WorkLocal[1] += 9*
  3: 0x0277 [0x66] LOAD_EXT_SCHEDULER_MAIN: Load scheduler "tlk1" with entities [EventEntity, EventEntity], work=ExtData[1]->WorkLocal[1]
  4: 0x0286 [0x00] END_REQSTACK()
```

### Event 65535.18

#### Metadata

| Field        | Value    |
|--------------|----------|
| Entrypoint   | 0x0287   |
| Data Size    | 47 bytes |
| Instructions | 7        |

```
      00 01 02 03 04 05 06 07  08 09 0A 0B 0C 0D 0E 0F
      -- -- -- -- -- -- -- --  -- -- -- -- -- -- -- --
0280:                      03  00 00 07 7F 1A ED 00 07         .........
0290: 01 00 04 80 66 01 00 F8  FF FF 7F F8 FF FF 7F 74  ....f..........t
02A0: 6C 6B 30 1C 12 80 66 01  00 F8 FF FF 7F F8 FF FF  lk0...f.........
02B0: 7F 74 6C 6B 31 00                                 .tlk1.          
```

#### Opcodes

```
  0: 0x0287 [0x03] ExtData[1]->WorkLocal[0] = Entity->Race
  1: 0x028C [0x1A] CALL_SUBROUTINE(address=0x00ED)
  2: 0x028F [0x07] ExtData[1]->WorkLocal[1] += 9*
  3: 0x0294 [0x66] LOAD_EXT_SCHEDULER_MAIN: Load scheduler "tlk0" with entities [EventEntity, EventEntity], work=ExtData[1]->WorkLocal[1]
  4: 0x02A3 [0x1C] WAIT(60* ticks)
  5: 0x02A6 [0x66] LOAD_EXT_SCHEDULER_MAIN: Load scheduler "tlk1" with entities [EventEntity, EventEntity], work=ExtData[1]->WorkLocal[1]
  6: 0x02B5 [0x00] END_REQSTACK()
```

### Event 65535.19

#### Metadata

| Field        | Value    |
|--------------|----------|
| Entrypoint   | 0x02B6   |
| Data Size    | 14 bytes |
| Instructions | 4        |

```
      00 01 02 03 04 05 06 07  08 09 0A 0B 0C 0D 0E 0F
      -- -- -- -- -- -- -- --  -- -- -- -- -- -- -- --
02B0:                   32 13  80 5A 00 14 80 15 80 16        2..Z......
02C0: 80 5A 01 00                                       .Z..            
```

#### Opcodes

```
  0: 0x02B6 [0x32] ExtData[1]->MainSpeed = 12* * 0.1
  1: 0x02B9 [0x5A] UPDATE_EVENT_POSITION: Set EventEntity MovePosition to X=-126.460*, Z=-23.222*, Y=3.999*
  2: 0x02C1 [0x5A] UPDATE_EVENT_POSITION: Move EventEntity incrementally towards MovePosition
  3: 0x02C3 [0x00] END_REQSTACK()
```

### Event 65535.20

#### Metadata

| Field        | Value    |
|--------------|----------|
| Entrypoint   | 0x02C4   |
| Data Size    | 14 bytes |
| Instructions | 4        |

```
      00 01 02 03 04 05 06 07  08 09 0A 0B 0C 0D 0E 0F
      -- -- -- -- -- -- -- --  -- -- -- -- -- -- -- --
02C0:             32 17 80 1F  00 18 80 19 80 16 80 1F      2...........
02D0: 01 00                                             ..              
```

#### Opcodes

```
  0: 0x02C4 [0x32] ExtData[1]->MainSpeed = 13* * 0.1
  1: 0x02C7 [0x1F] MOVE_ENTITY: EventEntity moves to X=-115.069*, Z=-19.883*, Y=3.999*
  2: 0x02CF [0x1F] MOVE_ENTITY: Update entity position (mode=1)
  3: 0x02D1 [0x00] END_REQSTACK()
```

### Event 65535.21

#### Metadata

| Field        | Value    |
|--------------|----------|
| Entrypoint   | 0x02D2   |
| Data Size    | 15 bytes |
| Instructions | 5        |

```
      00 01 02 03 04 05 06 07  08 09 0A 0B 0C 0D 0E 0F
      -- -- -- -- -- -- -- --  -- -- -- -- -- -- -- --
02D0:       32 17 80 1F 00 1A  80 1B 80 1C 80 1F 01 6F    2............o
02E0: 00                                                .               
```

#### Opcodes

```
  0: 0x02D2 [0x32] ExtData[1]->MainSpeed = 13* * 0.1
  1: 0x02D5 [0x1F] MOVE_ENTITY: EventEntity moves to X=-91.500*, Z=16.000*, Y=4.000*
  2: 0x02DD [0x1F] MOVE_ENTITY: Update entity position (mode=1)
  3: 0x02DF [0x6F] WAIT_FRAME_DELAY: Yield until WaitTime reaches zero
  4: 0x02E0 [0x00] END_REQSTACK()
```

### Event 65535.22

#### Metadata

| Field        | Value    |
|--------------|----------|
| Entrypoint   | 0x02E1   |
| Data Size    | 15 bytes |
| Instructions | 5        |

```
      00 01 02 03 04 05 06 07  08 09 0A 0B 0C 0D 0E 0F
      -- -- -- -- -- -- -- --  -- -- -- -- -- -- -- --
02E0:    32 17 80 1F 00 1D 80  1E 80 1C 80 1F 01 6F 00   2............o.
```

#### Opcodes

```
  0: 0x02E1 [0x32] ExtData[1]->MainSpeed = 13* * 0.1
  1: 0x02E4 [0x1F] MOVE_ENTITY: EventEntity moves to X=-88.600*, Z=18.500*, Y=4.000*
  2: 0x02EC [0x1F] MOVE_ENTITY: Update entity position (mode=1)
  3: 0x02EE [0x6F] WAIT_FRAME_DELAY: Yield until WaitTime reaches zero
  4: 0x02EF [0x00] END_REQSTACK()
```

### Event 65535.23

#### Metadata

| Field        | Value    |
|--------------|----------|
| Entrypoint   | 0x02F0   |
| Data Size    | 15 bytes |
| Instructions | 5        |

```
      00 01 02 03 04 05 06 07  08 09 0A 0B 0C 0D 0E 0F
      -- -- -- -- -- -- -- --  -- -- -- -- -- -- -- --
02F0: 32 17 80 1F 00 1D 80 1E  80 1C 80 1F 01 6F 00     2............o. 
```

#### Opcodes

```
  0: 0x02F0 [0x32] ExtData[1]->MainSpeed = 13* * 0.1
  1: 0x02F3 [0x1F] MOVE_ENTITY: EventEntity moves to X=-88.600*, Z=18.500*, Y=4.000*
  2: 0x02FB [0x1F] MOVE_ENTITY: Update entity position (mode=1)
  3: 0x02FD [0x6F] WAIT_FRAME_DELAY: Yield until WaitTime reaches zero
  4: 0x02FE [0x00] END_REQSTACK()
```

### Event 65535.24

#### Metadata

| Field        | Value    |
|--------------|----------|
| Entrypoint   | 0x02FF   |
| Data Size    | 14 bytes |
| Instructions | 4        |

```
      00 01 02 03 04 05 06 07  08 09 0A 0B 0C 0D 0E 0F
      -- -- -- -- -- -- -- --  -- -- -- -- -- -- -- --
02F0:                                               32                 2
0300: 17 80 1F 00 1F 80 20 80  21 80 1F 01 00           ...... .!....   
```

#### Opcodes

```
  0: 0x02FF [0x32] ExtData[1]->MainSpeed = 13* * 0.1
  1: 0x0302 [0x1F] MOVE_ENTITY: EventEntity moves to X=0.004*, Z=-20.996*, Y=0.000*
  2: 0x030A [0x1F] MOVE_ENTITY: Update entity position (mode=1)
  3: 0x030C [0x00] END_REQSTACK()
```

### Event 65535.25

#### Metadata

| Field        | Value    |
|--------------|----------|
| Entrypoint   | 0x030D   |
| Data Size    | 19 bytes |
| Instructions | 5        |

```
      00 01 02 03 04 05 06 07  08 09 0A 0B 0C 0D 0E 0F
      -- -- -- -- -- -- -- --  -- -- -- -- -- -- -- --
0300:                                         32 17 80               2..
0310: 1F 00 22 80 23 80 21 80  1F 01 1E C1 00 10 01 00  ..".#.!.........
```

#### Opcodes

```
  0: 0x030D [0x32] ExtData[1]->MainSpeed = 13* * 0.1
  1: 0x0310 [0x1F] MOVE_ENTITY: EventEntity moves to X=0.131*, Z=-13.737*, Y=0.000*
  2: 0x0318 [0x1F] MOVE_ENTITY: Update entity position (mode=1)
  3: 0x031A [0x1E] EventEntity looks at Alianne (ID: 17825985/0x011000C1) and starts talking
  4: 0x031F [0x00] END_REQSTACK()
```

### Event 65535.26

#### Metadata

| Field        | Value    |
|--------------|----------|
| Entrypoint   | 0x0320   |
| Data Size    | 19 bytes |
| Instructions | 5        |

```
      00 01 02 03 04 05 06 07  08 09 0A 0B 0C 0D 0E 0F
      -- -- -- -- -- -- -- --  -- -- -- -- -- -- -- --
0320: 32 17 80 1F 00 24 80 25  80 21 80 1F 01 1E C1 00  2....$.%.!......
0330: 10 01 00                                          ...             
```

#### Opcodes

```
  0: 0x0320 [0x32] ExtData[1]->MainSpeed = 13* * 0.1
  1: 0x0323 [0x1F] MOVE_ENTITY: EventEntity moves to X=-44.476*, Z=-5.234*, Y=0.000*
  2: 0x032B [0x1F] MOVE_ENTITY: Update entity position (mode=1)
  3: 0x032D [0x1E] EventEntity looks at Alianne (ID: 17825985/0x011000C1) and starts talking
  4: 0x0332 [0x00] END_REQSTACK()
```

### Event 65535.27

#### Metadata

| Field        | Value    |
|--------------|----------|
| Entrypoint   | 0x0333   |
| Data Size    | 14 bytes |
| Instructions | 4        |

```
      00 01 02 03 04 05 06 07  08 09 0A 0B 0C 0D 0E 0F
      -- -- -- -- -- -- -- --  -- -- -- -- -- -- -- --
0330:          32 17 80 1F 00  26 80 27 80 21 80 1F 01     2....&.'.!...
0340: 00                                                .               
```

#### Opcodes

```
  0: 0x0333 [0x32] ExtData[1]->MainSpeed = 13* * 0.1
  1: 0x0336 [0x1F] MOVE_ENTITY: EventEntity moves to X=-44.315*, Z=-10.781*, Y=0.000*
  2: 0x033E [0x1F] MOVE_ENTITY: Update entity position (mode=1)
  3: 0x0340 [0x00] END_REQSTACK()
```

### Event 65535.28

#### Metadata

| Field        | Value    |
|--------------|----------|
| Entrypoint   | 0x0341   |
| Data Size    | 24 bytes |
| Instructions | 6        |

```
      00 01 02 03 04 05 06 07  08 09 0A 0B 0C 0D 0E 0F
      -- -- -- -- -- -- -- --  -- -- -- -- -- -- -- --
0340:    32 17 80 1F 00 28 80  29 80 2A 80 1F 01 1F 00   2....(.).*.....
0350: 2B 80 2C 80 2D 80 1F 01  00                       +.,.-....       
```

#### Opcodes

```
  0: 0x0341 [0x32] ExtData[1]->MainSpeed = 13* * 0.1
  1: 0x0344 [0x1F] MOVE_ENTITY: EventEntity moves to X=8.839*, Z=-139.683*, Y=-0.148*
  2: 0x034C [0x1F] MOVE_ENTITY: Update entity position (mode=1)
  3: 0x034E [0x1F] MOVE_ENTITY: EventEntity moves to X=3.538*, Z=-141.361*, Y=-0.751*
  4: 0x0356 [0x1F] MOVE_ENTITY: Update entity position (mode=1)
  5: 0x0358 [0x00] END_REQSTACK()
```

### Event 65535.29

#### Metadata

| Field        | Value    |
|--------------|----------|
| Entrypoint   | 0x0359   |
| Data Size    | 14 bytes |
| Instructions | 4        |

```
      00 01 02 03 04 05 06 07  08 09 0A 0B 0C 0D 0E 0F
      -- -- -- -- -- -- -- --  -- -- -- -- -- -- -- --
0350:                             32 17 80 1F 00 2E 80           2......
0360: 2F 80 2D 80 1F 01 00                              /.-....         
```

#### Opcodes

```
  0: 0x0359 [0x32] ExtData[1]->MainSpeed = 13* * 0.1
  1: 0x035C [0x1F] MOVE_ENTITY: EventEntity moves to X=26.505*, Z=-109.477*, Y=-0.751*
  2: 0x0364 [0x1F] MOVE_ENTITY: Update entity position (mode=1)
  3: 0x0366 [0x00] END_REQSTACK()
```

### Event 65535.30

#### Metadata

| Field        | Value    |
|--------------|----------|
| Entrypoint   | 0x0367   |
| Data Size    | 19 bytes |
| Instructions | 5        |

```
      00 01 02 03 04 05 06 07  08 09 0A 0B 0C 0D 0E 0F
      -- -- -- -- -- -- -- --  -- -- -- -- -- -- -- --
0360:                      32  17 80 1F 00 30 80 31 80         2....0.1.
0370: 32 80 1F 01 1E CD 00 10  01 00                    2.........      
```

#### Opcodes

```
  0: 0x0367 [0x32] ExtData[1]->MainSpeed = 13* * 0.1
  1: 0x036A [0x1F] MOVE_ENTITY: EventEntity moves to X=-56.832*, Z=-8.677*, Y=-0.500*
  2: 0x0372 [0x1F] MOVE_ENTITY: Update entity position (mode=1)
  3: 0x0374 [0x1E] EventEntity looks at Ilney (ID: 17825997/0x011000CD) and starts talking
  4: 0x0379 [0x00] END_REQSTACK()
```

### Event 65535.31

#### Metadata

| Field        | Value    |
|--------------|----------|
| Entrypoint   | 0x037A   |
| Data Size    | 14 bytes |
| Instructions | 4        |

```
      00 01 02 03 04 05 06 07  08 09 0A 0B 0C 0D 0E 0F
      -- -- -- -- -- -- -- --  -- -- -- -- -- -- -- --
0370:                                32 17 80 1F 00 33            2....3
0380: 80 34 80 21 80 1F 01 00                           .4.!....        
```

#### Opcodes

```
  0: 0x037A [0x32] ExtData[1]->MainSpeed = 13* * 0.1
  1: 0x037D [0x1F] MOVE_ENTITY: EventEntity moves to X=23.436*, Z=-109.537*, Y=0.000*
  2: 0x0385 [0x1F] MOVE_ENTITY: Update entity position (mode=1)
  3: 0x0387 [0x00] END_REQSTACK()
```

### Event 65535.32

#### Metadata

| Field        | Value    |
|--------------|----------|
| Entrypoint   | 0x0388   |
| Data Size    | 19 bytes |
| Instructions | 5        |

```
      00 01 02 03 04 05 06 07  08 09 0A 0B 0C 0D 0E 0F
      -- -- -- -- -- -- -- --  -- -- -- -- -- -- -- --
0380:                          32 17 80 1F 00 35 80 36          2....5.6
0390: 80 37 80 1F 01 1E CA 00  10 01 00                 .7.........     
```

#### Opcodes

```
  0: 0x0388 [0x32] ExtData[1]->MainSpeed = 13* * 0.1
  1: 0x038B [0x1F] MOVE_ENTITY: EventEntity moves to X=-8.357*, Z=-98.460*, Y=1.399*
  2: 0x0393 [0x1F] MOVE_ENTITY: Update entity position (mode=1)
  3: 0x0395 [0x1E] EventEntity looks at Wesley (ID: 17825994/0x011000CA) and starts talking
  4: 0x039A [0x00] END_REQSTACK()
```

### Event 65535.33

#### Metadata

| Field        | Value    |
|--------------|----------|
| Entrypoint   | 0x039B   |
| Data Size    | 22 bytes |
| Instructions | 6        |

```
      00 01 02 03 04 05 06 07  08 09 0A 0B 0C 0D 0E 0F
      -- -- -- -- -- -- -- --  -- -- -- -- -- -- -- --
0390:                                   32 17 80 1F 00             2....
03A0: 38 80 39 80 37 80 1F 01  1E CE 00 10 01 1C 3A 80  8.9.7.........:.
03B0: 00                                                .               
```

#### Opcodes

```
  0: 0x039B [0x32] ExtData[1]->MainSpeed = 13* * 0.1
  1: 0x039E [0x1F] MOVE_ENTITY: EventEntity moves to X=-12.489*, Z=-99.897*, Y=1.399*
  2: 0x03A6 [0x1F] MOVE_ENTITY: Update entity position (mode=1)
  3: 0x03A8 [0x1E] EventEntity looks at Distrova (ID: 17825998/0x011000CE) and starts talking
  4: 0x03AD [0x1C] WAIT(30* ticks)
  5: 0x03B0 [0x00] END_REQSTACK()
```

### Event 65535.34

#### Metadata

| Field        | Value    |
|--------------|----------|
| Entrypoint   | 0x03B1   |
| Data Size    | 14 bytes |
| Instructions | 4        |

```
      00 01 02 03 04 05 06 07  08 09 0A 0B 0C 0D 0E 0F
      -- -- -- -- -- -- -- --  -- -- -- -- -- -- -- --
03B0:    32 17 80 1F 00 3B 80  3C 80 37 80 1F 01 00      2....;.<.7.... 
```

#### Opcodes

```
  0: 0x03B1 [0x32] ExtData[1]->MainSpeed = 13* * 0.1
  1: 0x03B4 [0x1F] MOVE_ENTITY: EventEntity moves to X=-10.801*, Z=-100.000*, Y=1.399*
  2: 0x03BC [0x1F] MOVE_ENTITY: Update entity position (mode=1)
  3: 0x03BE [0x00] END_REQSTACK()
```

### Event 65535.35

#### Metadata

| Field        | Value    |
|--------------|----------|
| Entrypoint   | 0x03BF   |
| Data Size    | 22 bytes |
| Instructions | 6        |

```
      00 01 02 03 04 05 06 07  08 09 0A 0B 0C 0D 0E 0F
      -- -- -- -- -- -- -- --  -- -- -- -- -- -- -- --
03B0:                                               32                 2
03C0: 17 80 1F 00 3D 80 3E 80  3F 80 1F 01 1E 94 00 10  ....=.>.?.......
03D0: 01 1C 3A 80 00                                    ..:..           
```

#### Opcodes

```
  0: 0x03BF [0x32] ExtData[1]->MainSpeed = 13* * 0.1
  1: 0x03C2 [0x1F] MOVE_ENTITY: EventEntity moves to X=-91.111*, Z=15.948*, Y=3.349*
  2: 0x03CA [0x1F] MOVE_ENTITY: Update entity position (mode=1)
  3: 0x03CC [0x1E] EventEntity looks at Lhe Lhangavo (ID: 17825940/0x01100094) and starts talking
  4: 0x03D1 [0x1C] WAIT(30* ticks)
  5: 0x03D4 [0x00] END_REQSTACK()
```

### Event 65535.36

#### Metadata

| Field        | Value    |
|--------------|----------|
| Entrypoint   | 0x03D5   |
| Data Size    | 22 bytes |
| Instructions | 6        |

```
      00 01 02 03 04 05 06 07  08 09 0A 0B 0C 0D 0E 0F
      -- -- -- -- -- -- -- --  -- -- -- -- -- -- -- --
03D0:                32 17 80  1F 00 40 80 41 80 21 80       2....@.A.!.
03E0: 1F 01 1E C1 00 10 01 1C  3A 80 00                 ........:..     
```

#### Opcodes

```
  0: 0x03D5 [0x32] ExtData[1]->MainSpeed = 13* * 0.1
  1: 0x03D8 [0x1F] MOVE_ENTITY: EventEntity moves to X=0.057*, Z=-15.027*, Y=0.000*
  2: 0x03E0 [0x1F] MOVE_ENTITY: Update entity position (mode=1)
  3: 0x03E2 [0x1E] EventEntity looks at Alianne (ID: 17825985/0x011000C1) and starts talking
  4: 0x03E7 [0x1C] WAIT(30* ticks)
  5: 0x03EA [0x00] END_REQSTACK()
```

### Event 65535.37

#### Metadata

| Field        | Value    |
|--------------|----------|
| Entrypoint   | 0x03EB   |
| Data Size    | 22 bytes |
| Instructions | 6        |

```
      00 01 02 03 04 05 06 07  08 09 0A 0B 0C 0D 0E 0F
      -- -- -- -- -- -- -- --  -- -- -- -- -- -- -- --
03E0:                                   32 17 80 1F 00             2....
03F0: 30 80 31 80 32 80 1F 01  1E C5 00 10 01 1C 3A 80  0.1.2.........:.
0400: 00                                                .               
```

#### Opcodes

```
  0: 0x03EB [0x32] ExtData[1]->MainSpeed = 13* * 0.1
  1: 0x03EE [0x1F] MOVE_ENTITY: EventEntity moves to X=-56.832*, Z=-8.677*, Y=-0.500*
  2: 0x03F6 [0x1F] MOVE_ENTITY: Update entity position (mode=1)
  3: 0x03F8 [0x1E] EventEntity looks at Logan (ID: 17825989/0x011000C5) and starts talking
  4: 0x03FD [0x1C] WAIT(30* ticks)
  5: 0x0400 [0x00] END_REQSTACK()
```

### Event 65535.38

#### Metadata

| Field        | Value    |
|--------------|----------|
| Entrypoint   | 0x0401   |
| Data Size    | 35 bytes |
| Instructions | 7        |

```
      00 01 02 03 04 05 06 07  08 09 0A 0B 0C 0D 0E 0F
      -- -- -- -- -- -- -- --  -- -- -- -- -- -- -- --
0400:    32 17 80 1F 00 17 80  42 80 21 80 1F 01 2C F8   2......B.!...,.
0410: 00 10 01 F8 00 10 01 63  6C 6F 73 1E C1 00 10 01  .......clos.....
0420: 1C 3A 80 00                                       .:..            
```

#### Opcodes

```
  0: 0x0401 [0x32] ExtData[1]->MainSpeed = 13* * 0.1
  1: 0x0404 [0x1F] MOVE_ENTITY: EventEntity moves to X=0.013*, Z=-16.543*, Y=0.000*
  2: 0x040C [0x1F] MOVE_ENTITY: Update entity position (mode=1)
  3: 0x040E [0x2C] CREATE_SCHEDULER_TASK: Create scheduler "clos" with entities [Unnamed NPC (ID: 17826040/0x011000F8), Unnamed NPC (ID: 17826040/0x011000F8)]
  4: 0x041B [0x1E] EventEntity looks at Alianne (ID: 17825985/0x011000C1) and starts talking
  5: 0x0420 [0x1C] WAIT(30* ticks)
  6: 0x0423 [0x00] END_REQSTACK()
```

### Event 65535.39

#### Metadata

| Field        | Value    |
|--------------|----------|
| Entrypoint   | 0x0424   |
| Data Size    | 22 bytes |
| Instructions | 6        |

```
      00 01 02 03 04 05 06 07  08 09 0A 0B 0C 0D 0E 0F
      -- -- -- -- -- -- -- --  -- -- -- -- -- -- -- --
0420:             32 17 80 1F  00 43 80 44 80 21 80 1F      2....C.D.!..
0430: 01 1E C1 00 10 01 1C 3A  80 00                    .......:..      
```

#### Opcodes

```
  0: 0x0424 [0x32] ExtData[1]->MainSpeed = 13* * 0.1
  1: 0x0427 [0x1F] MOVE_ENTITY: EventEntity moves to X=0.061*, Z=-12.885*, Y=0.000*
  2: 0x042F [0x1F] MOVE_ENTITY: Update entity position (mode=1)
  3: 0x0431 [0x1E] EventEntity looks at Alianne (ID: 17825985/0x011000C1) and starts talking
  4: 0x0436 [0x1C] WAIT(30* ticks)
  5: 0x0439 [0x00] END_REQSTACK()
```

### Event 65535.40

#### Metadata

| Field        | Value    |
|--------------|----------|
| Entrypoint   | 0x043A   |
| Data Size    | 35 bytes |
| Instructions | 7        |

```
      00 01 02 03 04 05 06 07  08 09 0A 0B 0C 0D 0E 0F
      -- -- -- -- -- -- -- --  -- -- -- -- -- -- -- --
0430:                                32 17 80 1F 00 45            2....E
0440: 80 46 80 21 80 1F 01 2C  F8 00 10 01 F8 00 10 01  .F.!...,........
0450: 63 6C 6F 73 1E C1 00 10  01 1C 3A 80 00           clos......:..   
```

#### Opcodes

```
  0: 0x043A [0x32] ExtData[1]->MainSpeed = 13* * 0.1
  1: 0x043D [0x1F] MOVE_ENTITY: EventEntity moves to X=-0.082*, Z=-15.286*, Y=0.000*
  2: 0x0445 [0x1F] MOVE_ENTITY: Update entity position (mode=1)
  3: 0x0447 [0x2C] CREATE_SCHEDULER_TASK: Create scheduler "clos" with entities [Unnamed NPC (ID: 17826040/0x011000F8), Unnamed NPC (ID: 17826040/0x011000F8)]
  4: 0x0454 [0x1E] EventEntity looks at Alianne (ID: 17825985/0x011000C1) and starts talking
  5: 0x0459 [0x1C] WAIT(30* ticks)
  6: 0x045C [0x00] END_REQSTACK()
```

### Event 65535.41

#### Metadata

| Field        | Value    |
|--------------|----------|
| Entrypoint   | 0x045D   |
| Data Size    | 22 bytes |
| Instructions | 6        |

```
      00 01 02 03 04 05 06 07  08 09 0A 0B 0C 0D 0E 0F
      -- -- -- -- -- -- -- --  -- -- -- -- -- -- -- --
0450:                                         32 17 80               2..
0460: 1F 00 47 80 48 80 16 80  1F 01 1E A8 00 10 01 1C  ..G.H...........
0470: 3A 80 00                                          :..             
```

#### Opcodes

```
  0: 0x045D [0x32] ExtData[1]->MainSpeed = 13* * 0.1
  1: 0x0460 [0x1F] MOVE_ENTITY: EventEntity moves to X=-140.198*, Z=-25.800*, Y=3.999*
  2: 0x0468 [0x1F] MOVE_ENTITY: Update entity position (mode=1)
  3: 0x046A [0x1E] EventEntity looks at Arciela (ID: 17825960/0x011000A8) and starts talking
  4: 0x046F [0x1C] WAIT(30* ticks)
  5: 0x0472 [0x00] END_REQSTACK()
```

### Event 65535.42

#### Metadata

| Field        | Value    |
|--------------|----------|
| Entrypoint   | 0x0473   |
| Data Size    | 14 bytes |
| Instructions | 4        |

```
      00 01 02 03 04 05 06 07  08 09 0A 0B 0C 0D 0E 0F
      -- -- -- -- -- -- -- --  -- -- -- -- -- -- -- --
0470:          32 17 80 1F 00  49 80 4A 80 16 80 1F 01     2....I.J.....
0480: 00                                                .               
```

#### Opcodes

```
  0: 0x0473 [0x32] ExtData[1]->MainSpeed = 13* * 0.1
  1: 0x0476 [0x1F] MOVE_ENTITY: EventEntity moves to X=-153.149*, Z=-25.983*, Y=3.999*
  2: 0x047E [0x1F] MOVE_ENTITY: Update entity position (mode=1)
  3: 0x0480 [0x00] END_REQSTACK()
```

### Event 65535.43

#### Metadata

| Field        | Value    |
|--------------|----------|
| Entrypoint   | 0x0481   |
| Data Size    | 14 bytes |
| Instructions | 4        |

```
      00 01 02 03 04 05 06 07  08 09 0A 0B 0C 0D 0E 0F
      -- -- -- -- -- -- -- --  -- -- -- -- -- -- -- --
0480:    32 17 80 5A 00 14 80  15 80 16 80 5A 01 00      2..Z.......Z.. 
```

#### Opcodes

```
  0: 0x0481 [0x32] ExtData[1]->MainSpeed = 13* * 0.1
  1: 0x0484 [0x5A] UPDATE_EVENT_POSITION: Set EventEntity MovePosition to X=-126.460*, Z=-23.222*, Y=3.999*
  2: 0x048C [0x5A] UPDATE_EVENT_POSITION: Move EventEntity incrementally towards MovePosition
  3: 0x048E [0x00] END_REQSTACK()
```

### Event 65535.44

#### Metadata

| Field        | Value    |
|--------------|----------|
| Entrypoint   | 0x048F   |
| Data Size    | 22 bytes |
| Instructions | 6        |

```
      00 01 02 03 04 05 06 07  08 09 0A 0B 0C 0D 0E 0F
      -- -- -- -- -- -- -- --  -- -- -- -- -- -- -- --
0480:                                               32                 2
0490: 17 80 1F 00 4B 80 4C 80  16 80 1F 01 1E 92 00 10  ....K.L.........
04A0: 01 1C 3A 80 00                                    ..:..           
```

#### Opcodes

```
  0: 0x048F [0x32] ExtData[1]->MainSpeed = 13* * 0.1
  1: 0x0492 [0x1F] MOVE_ENTITY: EventEntity moves to X=-116.305*, Z=-19.420*, Y=3.999*
  2: 0x049A [0x1F] MOVE_ENTITY: Update entity position (mode=1)
  3: 0x049C [0x1E] EventEntity looks at Tiana (ID: 17825938/0x01100092) and starts talking
  4: 0x04A1 [0x1C] WAIT(30* ticks)
  5: 0x04A4 [0x00] END_REQSTACK()
```

### Event 65535.45

#### Metadata

| Field        | Value    |
|--------------|----------|
| Entrypoint   | 0x04A5   |
| Data Size    | 32 bytes |
| Instructions | 8        |

```
      00 01 02 03 04 05 06 07  08 09 0A 0B 0C 0D 0E 0F
      -- -- -- -- -- -- -- --  -- -- -- -- -- -- -- --
04A0:                32 17 80  1F 00 17 80 42 80 21 80       2......B.!.
04B0: 1F 01 1F 00 4D 80 4E 80  21 80 1F 01 1E C2 00 10  ....M.N.!.......
04C0: 01 1C 3A 80 00                                    ..:..           
```

#### Opcodes

```
  0: 0x04A5 [0x32] ExtData[1]->MainSpeed = 13* * 0.1
  1: 0x04A8 [0x1F] MOVE_ENTITY: EventEntity moves to X=0.013*, Z=-16.543*, Y=0.000*
  2: 0x04B0 [0x1F] MOVE_ENTITY: Update entity position (mode=1)
  3: 0x04B2 [0x1F] MOVE_ENTITY: EventEntity moves to X=0.480*, Z=-13.858*, Y=0.000*
  4: 0x04BA [0x1F] MOVE_ENTITY: Update entity position (mode=1)
  5: 0x04BC [0x1E] EventEntity looks at Othellius (ID: 17825986/0x011000C2) and starts talking
  6: 0x04C1 [0x1C] WAIT(30* ticks)
  7: 0x04C4 [0x00] END_REQSTACK()
```

### Event 65535.46

#### Metadata

| Field        | Value    |
|--------------|----------|
| Entrypoint   | 0x04C5   |
| Data Size    | 31 bytes |
| Instructions | 6        |

```
      00 01 02 03 04 05 06 07  08 09 0A 0B 0C 0D 0E 0F
      -- -- -- -- -- -- -- --  -- -- -- -- -- -- -- --
04C0:                1C 12 80  4A C2 00 10 01 AE 00 10       ...J.......
04D0: 01 1C 12 80 1E AB 00 10  01 79 00 F8 FF FF 7F AE  .........y......
04E0: 00 10 01 00                                       ....            
```

#### Opcodes

```
  0: 0x04C5 [0x1C] WAIT(60* ticks)
  1: 0x04C8 [0x4A] Othellius (ID: 17825986/0x011000C2) looks at Margret (ID: 17825966/0x011000AE)
  2: 0x04D1 [0x1C] WAIT(60* ticks)
  3: 0x04D4 [0x1E] EventEntity looks at Svenja (ID: 17825963/0x011000AB) and starts talking
  4: 0x04D9 [0x79] EventEntity looks at Margret (ID: 17825966/0x011000AE) (Basic look)
  5: 0x04E3 [0x00] END_REQSTACK()
```

### Event 65535.47

#### Metadata

| Field        | Value    |
|--------------|----------|
| Entrypoint   | 0x04E4   |
| Data Size    | 14 bytes |
| Instructions | 4        |

```
      00 01 02 03 04 05 06 07  08 09 0A 0B 0C 0D 0E 0F
      -- -- -- -- -- -- -- --  -- -- -- -- -- -- -- --
04E0:             32 17 80 1F  00 4F 80 50 80 21 80 1F      2....O.P.!..
04F0: 01 00                                             ..              
```

#### Opcodes

```
  0: 0x04E4 [0x32] ExtData[1]->MainSpeed = 13* * 0.1
  1: 0x04E7 [0x1F] MOVE_ENTITY: EventEntity moves to X=0.860*, Z=-13.181*, Y=0.000*
  2: 0x04EF [0x1F] MOVE_ENTITY: Update entity position (mode=1)
  3: 0x04F1 [0x00] END_REQSTACK()
```

### Event 65535.48

#### Metadata

| Field        | Value    |
|--------------|----------|
| Entrypoint   | 0x04F2   |
| Data Size    | 14 bytes |
| Instructions | 4        |

```
      00 01 02 03 04 05 06 07  08 09 0A 0B 0C 0D 0E 0F
      -- -- -- -- -- -- -- --  -- -- -- -- -- -- -- --
04F0:       32 17 80 1F 00 17  80 42 80 21 80 1F 01 00    2......B.!....
```

#### Opcodes

```
  0: 0x04F2 [0x32] ExtData[1]->MainSpeed = 13* * 0.1
  1: 0x04F5 [0x1F] MOVE_ENTITY: EventEntity moves to X=0.013*, Z=-16.543*, Y=0.000*
  2: 0x04FD [0x1F] MOVE_ENTITY: Update entity position (mode=1)
  3: 0x04FF [0x00] END_REQSTACK()
```

### Event 65535.49

#### Metadata

| Field        | Value    |
|--------------|----------|
| Entrypoint   | 0x0500   |
| Data Size    | 32 bytes |
| Instructions | 8        |

```
      00 01 02 03 04 05 06 07  08 09 0A 0B 0C 0D 0E 0F
      -- -- -- -- -- -- -- --  -- -- -- -- -- -- -- --
0500: 32 17 80 1F 00 51 80 52  80 32 80 1F 01 1F 00 53  2....Q.R.2.....S
0510: 80 54 80 32 80 1F 01 1E  C1 00 10 01 1C 3A 80 00  .T.2.........:..
```

#### Opcodes

```
  0: 0x0500 [0x32] ExtData[1]->MainSpeed = 13* * 0.1
  1: 0x0503 [0x1F] MOVE_ENTITY: EventEntity moves to X=-57.561*, Z=-5.097*, Y=-0.500*
  2: 0x050B [0x1F] MOVE_ENTITY: Update entity position (mode=1)
  3: 0x050D [0x1F] MOVE_ENTITY: EventEntity moves to X=-56.874*, Z=-7.789*, Y=-0.500*
  4: 0x0515 [0x1F] MOVE_ENTITY: Update entity position (mode=1)
  5: 0x0517 [0x1E] EventEntity looks at Alianne (ID: 17825985/0x011000C1) and starts talking
  6: 0x051C [0x1C] WAIT(30* ticks)
  7: 0x051F [0x00] END_REQSTACK()
```

### Event 65535.50

#### Metadata

| Field        | Value    |
|--------------|----------|
| Entrypoint   | 0x0520   |
| Data Size    | 22 bytes |
| Instructions | 6        |

```
      00 01 02 03 04 05 06 07  08 09 0A 0B 0C 0D 0E 0F
      -- -- -- -- -- -- -- --  -- -- -- -- -- -- -- --
0520: 32 17 80 1F 00 55 80 56  80 32 80 1F 01 1E C1 00  2....U.V.2......
0530: 10 01 1C 3A 80 00                                 ...:..          
```

#### Opcodes

```
  0: 0x0520 [0x32] ExtData[1]->MainSpeed = 13* * 0.1
  1: 0x0523 [0x1F] MOVE_ENTITY: EventEntity moves to X=-57.471*, Z=-9.150*, Y=-0.500*
  2: 0x052B [0x1F] MOVE_ENTITY: Update entity position (mode=1)
  3: 0x052D [0x1E] EventEntity looks at Alianne (ID: 17825985/0x011000C1) and starts talking
  4: 0x0532 [0x1C] WAIT(30* ticks)
  5: 0x0535 [0x00] END_REQSTACK()
```

### Event 65535.51

#### Metadata

| Field        | Value    |
|--------------|----------|
| Entrypoint   | 0x0536   |
| Data Size    | 22 bytes |
| Instructions | 6        |

```
      00 01 02 03 04 05 06 07  08 09 0A 0B 0C 0D 0E 0F
      -- -- -- -- -- -- -- --  -- -- -- -- -- -- -- --
0530:                   32 17  80 1F 00 57 80 58 80 32        2....W.X.2
0540: 80 1F 01 1E CD 00 10 01  1C 3A 80 00              .........:..    
```

#### Opcodes

```
  0: 0x0536 [0x32] ExtData[1]->MainSpeed = 13* * 0.1
  1: 0x0539 [0x1F] MOVE_ENTITY: EventEntity moves to X=-56.352*, Z=-6.863*, Y=-0.500*
  2: 0x0541 [0x1F] MOVE_ENTITY: Update entity position (mode=1)
  3: 0x0543 [0x1E] EventEntity looks at Ilney (ID: 17825997/0x011000CD) and starts talking
  4: 0x0548 [0x1C] WAIT(30* ticks)
  5: 0x054B [0x00] END_REQSTACK()
```

### Event 65535.52

#### Metadata

| Field        | Value     |
|--------------|-----------|
| Entrypoint   | 0x054C    |
| Data Size    | 366 bytes |
| Instructions | 43        |

```
      00 01 02 03 04 05 06 07  08 09 0A 0B 0C 0D 0E 0F
      -- -- -- -- -- -- -- --  -- -- -- -- -- -- -- --
0540:                                      02 03 10 21              ...!
0550: 80 05 59 05 03 03 10 59  80 02 02 10 01 80 80 85  ..Y....Y........
0560: 05 66 5A 80 F8 FF FF 7F  F8 FF FF 7F 74 6C 6B 30  .fZ.........tlk0
0570: 1C 03 10 66 5A 80 F8 FF  FF 7F F8 FF FF 7F 74 6C  ...fZ.........tl
0580: 6B 31 01 B9 06 02 02 10  02 80 80 B1 05 66 5B 80  k1...........f[.
0590: F8 FF FF 7F F8 FF FF 7F  74 6C 6B 30 1C 03 10 66  ........tlk0...f
05A0: 5B 80 F8 FF FF 7F F8 FF  FF 7F 74 6C 6B 31 01 B9  [.........tlk1..
05B0: 06 02 02 10 5C 80 80 DD  05 66 5D 80 F8 FF FF 7F  ....\....f].....
05C0: F8 FF FF 7F 74 6C 6B 30  1C 03 10 66 5D 80 F8 FF  ....tlk0...f]...
05D0: FF 7F F8 FF FF 7F 74 6C  6B 31 01 B9 06 02 02 10  ......tlk1......
05E0: 1F 80 80 09 06 66 5E 80  F8 FF FF 7F F8 FF FF 7F  .....f^.........
05F0: 74 6C 6B 30 1C 03 10 66  5E 80 F8 FF FF 7F F8 FF  tlk0...f^.......
0600: FF 7F 74 6C 6B 31 01 B9  06 02 02 10 00 80 80 35  ..tlk1.........5
0610: 06 66 5F 80 F8 FF FF 7F  F8 FF FF 7F 74 6C 6B 30  .f_.........tlk0
0620: 1C 03 10 66 5F 80 F8 FF  FF 7F F8 FF FF 7F 74 6C  ...f_.........tl
0630: 6B 31 01 B9 06 02 02 10  60 80 80 61 06 66 5F 80  k1......`..a.f_.
0640: F8 FF FF 7F F8 FF FF 7F  74 6C 6B 30 1C 03 10 66  ........tlk0...f
0650: 5F 80 F8 FF FF 7F F8 FF  FF 7F 74 6C 6B 31 01 B9  _.........tlk1..
0660: 06 02 02 10 09 80 80 8D  06 66 61 80 F8 FF FF 7F  .........fa.....
0670: F8 FF FF 7F 74 6C 6B 30  1C 03 10 66 61 80 F8 FF  ....tlk0...fa...
0680: FF 7F F8 FF FF 7F 74 6C  6B 31 01 B9 06 02 02 10  ......tlk1......
0690: 08 80 80 B9 06 66 62 80  F8 FF FF 7F F8 FF FF 7F  .....fb.........
06A0: 74 6C 6B 30 1C 03 10 66  62 80 F8 FF FF 7F F8 FF  tlk0...fb.......
06B0: FF 7F 74 6C 6B 31 01 B9  06 00                    ..tlk1....      
```

#### Opcodes

```
  0: 0x054C [0x02] IF !(Work_Zone[3] > 0*) GOTO 0x0559
  1: 0x0554 [0x03] Work_Zone[3] = 120*
  2: 0x0559 [0x02] IF !(Work_Zone[2] == 1*) GOTO 0x0585
  3: 0x0561 [0x66] LOAD_EXT_SCHEDULER_MAIN: Load scheduler "tlk0" with entities [EventEntity, EventEntity], work=149*
  4: 0x0570 [0x1C] WAIT(Work_Zone[3] ticks)
  5: 0x0573 [0x66] LOAD_EXT_SCHEDULER_MAIN: Load scheduler "tlk1" with entities [EventEntity, EventEntity], work=149*
  6: 0x0582 [0x01] GOTO 0x06B9
  7: 0x0585 [0x02] IF !(Work_Zone[2] == 2*) GOTO 0x05B1
  8: 0x058D [0x66] LOAD_EXT_SCHEDULER_MAIN: Load scheduler "tlk0" with entities [EventEntity, EventEntity], work=159*
  9: 0x059C [0x1C] WAIT(Work_Zone[3] ticks)
 10: 0x059F [0x66] LOAD_EXT_SCHEDULER_MAIN: Load scheduler "tlk1" with entities [EventEntity, EventEntity], work=159*
 11: 0x05AE [0x01] GOTO 0x06B9
 12: 0x05B1 [0x02] IF !(Work_Zone[2] == 3*) GOTO 0x05DD
 13: 0x05B9 [0x66] LOAD_EXT_SCHEDULER_MAIN: Load scheduler "tlk0" with entities [EventEntity, EventEntity], work=169*
 14: 0x05C8 [0x1C] WAIT(Work_Zone[3] ticks)
 15: 0x05CB [0x66] LOAD_EXT_SCHEDULER_MAIN: Load scheduler "tlk1" with entities [EventEntity, EventEntity], work=169*
 16: 0x05DA [0x01] GOTO 0x06B9
 17: 0x05DD [0x02] IF !(Work_Zone[2] == 4*) GOTO 0x0609
 18: 0x05E5 [0x66] LOAD_EXT_SCHEDULER_MAIN: Load scheduler "tlk0" with entities [EventEntity, EventEntity], work=179*
 19: 0x05F4 [0x1C] WAIT(Work_Zone[3] ticks)
 20: 0x05F7 [0x66] LOAD_EXT_SCHEDULER_MAIN: Load scheduler "tlk1" with entities [EventEntity, EventEntity], work=179*
 21: 0x0606 [0x01] GOTO 0x06B9
 22: 0x0609 [0x02] IF !(Work_Zone[2] == 5*) GOTO 0x0635
 23: 0x0611 [0x66] LOAD_EXT_SCHEDULER_MAIN: Load scheduler "tlk0" with entities [EventEntity, EventEntity], work=189*
 24: 0x0620 [0x1C] WAIT(Work_Zone[3] ticks)
 25: 0x0623 [0x66] LOAD_EXT_SCHEDULER_MAIN: Load scheduler "tlk1" with entities [EventEntity, EventEntity], work=189*
 26: 0x0632 [0x01] GOTO 0x06B9
 27: 0x0635 [0x02] IF !(Work_Zone[2] == 6*) GOTO 0x0661
 28: 0x063D [0x66] LOAD_EXT_SCHEDULER_MAIN: Load scheduler "tlk0" with entities [EventEntity, EventEntity], work=189*
 29: 0x064C [0x1C] WAIT(Work_Zone[3] ticks)
 30: 0x064F [0x66] LOAD_EXT_SCHEDULER_MAIN: Load scheduler "tlk1" with entities [EventEntity, EventEntity], work=189*
 31: 0x065E [0x01] GOTO 0x06B9
 32: 0x0661 [0x02] IF !(Work_Zone[2] == 7*) GOTO 0x068D
 33: 0x0669 [0x66] LOAD_EXT_SCHEDULER_MAIN: Load scheduler "tlk0" with entities [EventEntity, EventEntity], work=199*
 34: 0x0678 [0x1C] WAIT(Work_Zone[3] ticks)
 35: 0x067B [0x66] LOAD_EXT_SCHEDULER_MAIN: Load scheduler "tlk1" with entities [EventEntity, EventEntity], work=199*
 36: 0x068A [0x01] GOTO 0x06B9
 37: 0x068D [0x02] IF !(Work_Zone[2] == 8*) GOTO 0x06B9
 38: 0x0695 [0x66] LOAD_EXT_SCHEDULER_MAIN: Load scheduler "tlk0" with entities [EventEntity, EventEntity], work=209*
 39: 0x06A4 [0x1C] WAIT(Work_Zone[3] ticks)
 40: 0x06A7 [0x66] LOAD_EXT_SCHEDULER_MAIN: Load scheduler "tlk1" with entities [EventEntity, EventEntity], work=209*
 41: 0x06B6 [0x01] GOTO 0x06B9

SUBROUTINE_06B9:
 42: 0x06B9 [0x00] END_REQSTACK()
```

### Event 65535.53

#### Metadata

| Field        | Value     |
|--------------|-----------|
| Entrypoint   | 0x06BA    |
| Data Size    | 353 bytes |
| Instructions | 41        |

```
      00 01 02 03 04 05 06 07  08 09 0A 0B 0C 0D 0E 0F
      -- -- -- -- -- -- -- --  -- -- -- -- -- -- -- --
06B0:                                02 07 7F 01 80 80            ......
06C0: E6 06 66 5A 80 F0 FF FF  7F F0 FF FF 7F 74 6C 6B  ..fZ.........tlk
06D0: 30 1C 59 80 66 5A 80 F0  FF FF 7F F0 FF FF 7F 74  0.Y.fZ.........t
06E0: 6C 6B 31 01 1A 08 02 07  7F 02 80 80 12 07 66 5B  lk1...........f[
06F0: 80 F0 FF FF 7F F0 FF FF  7F 74 6C 6B 30 1C 59 80  .........tlk0.Y.
0700: 66 5B 80 F0 FF FF 7F F0  FF FF 7F 74 6C 6B 31 01  f[.........tlk1.
0710: 1A 08 02 07 7F 5C 80 80  3E 07 66 5D 80 F0 FF FF  .....\..>.f]....
0720: 7F F0 FF FF 7F 74 6C 6B  30 1C 59 80 66 5D 80 F0  .....tlk0.Y.f]..
0730: FF FF 7F F0 FF FF 7F 74  6C 6B 31 01 1A 08 02 07  .......tlk1.....
0740: 7F 1F 80 80 6A 07 66 5E  80 F0 FF FF 7F F0 FF FF  ....j.f^........
0750: 7F 74 6C 6B 30 1C 59 80  66 5E 80 F0 FF FF 7F F0  .tlk0.Y.f^......
0760: FF FF 7F 74 6C 6B 31 01  1A 08 02 07 7F 00 80 80  ...tlk1.........
0770: 96 07 66 5F 80 F0 FF FF  7F F0 FF FF 7F 74 6C 6B  ..f_.........tlk
0780: 30 1C 59 80 66 5F 80 F0  FF FF 7F F0 FF FF 7F 74  0.Y.f_.........t
0790: 6C 6B 31 01 1A 08 02 07  7F 60 80 80 C2 07 66 5F  lk1......`....f_
07A0: 80 F0 FF FF 7F F0 FF FF  7F 74 6C 6B 30 1C 59 80  .........tlk0.Y.
07B0: 66 5F 80 F0 FF FF 7F F0  FF FF 7F 74 6C 6B 31 01  f_.........tlk1.
07C0: 1A 08 02 07 7F 09 80 80  EE 07 66 61 80 F0 FF FF  ..........fa....
07D0: 7F F0 FF FF 7F 74 6C 6B  30 1C 59 80 66 61 80 F0  .....tlk0.Y.fa..
07E0: FF FF 7F F0 FF FF 7F 74  6C 6B 31 01 1A 08 02 07  .......tlk1.....
07F0: 7F 08 80 80 1A 08 66 62  80 F0 FF FF 7F F0 FF FF  ......fb........
0800: 7F 74 6C 6B 30 1C 59 80  66 62 80 F0 FF FF 7F F0  .tlk0.Y.fb......
0810: FF FF 7F 74 6C 6B 31 01  1A 08 00                 ...tlk1....     
```

#### Opcodes

```
  0: 0x06BA [0x02] IF !(Entity->Race == 1*) GOTO 0x06E6
  1: 0x06C2 [0x66] LOAD_EXT_SCHEDULER_MAIN: Load scheduler "tlk0" with entities [LocalPlayer, LocalPlayer], work=149*
  2: 0x06D1 [0x1C] WAIT(120* ticks)
  3: 0x06D4 [0x66] LOAD_EXT_SCHEDULER_MAIN: Load scheduler "tlk1" with entities [LocalPlayer, LocalPlayer], work=149*
  4: 0x06E3 [0x01] GOTO 0x081A
  5: 0x06E6 [0x02] IF !(Entity->Race == 2*) GOTO 0x0712
  6: 0x06EE [0x66] LOAD_EXT_SCHEDULER_MAIN: Load scheduler "tlk0" with entities [LocalPlayer, LocalPlayer], work=159*
  7: 0x06FD [0x1C] WAIT(120* ticks)
  8: 0x0700 [0x66] LOAD_EXT_SCHEDULER_MAIN: Load scheduler "tlk1" with entities [LocalPlayer, LocalPlayer], work=159*
  9: 0x070F [0x01] GOTO 0x081A
 10: 0x0712 [0x02] IF !(Entity->Race == 3*) GOTO 0x073E
 11: 0x071A [0x66] LOAD_EXT_SCHEDULER_MAIN: Load scheduler "tlk0" with entities [LocalPlayer, LocalPlayer], work=169*
 12: 0x0729 [0x1C] WAIT(120* ticks)
 13: 0x072C [0x66] LOAD_EXT_SCHEDULER_MAIN: Load scheduler "tlk1" with entities [LocalPlayer, LocalPlayer], work=169*
 14: 0x073B [0x01] GOTO 0x081A
 15: 0x073E [0x02] IF !(Entity->Race == 4*) GOTO 0x076A
 16: 0x0746 [0x66] LOAD_EXT_SCHEDULER_MAIN: Load scheduler "tlk0" with entities [LocalPlayer, LocalPlayer], work=179*
 17: 0x0755 [0x1C] WAIT(120* ticks)
 18: 0x0758 [0x66] LOAD_EXT_SCHEDULER_MAIN: Load scheduler "tlk1" with entities [LocalPlayer, LocalPlayer], work=179*
 19: 0x0767 [0x01] GOTO 0x081A
 20: 0x076A [0x02] IF !(Entity->Race == 5*) GOTO 0x0796
 21: 0x0772 [0x66] LOAD_EXT_SCHEDULER_MAIN: Load scheduler "tlk0" with entities [LocalPlayer, LocalPlayer], work=189*
 22: 0x0781 [0x1C] WAIT(120* ticks)
 23: 0x0784 [0x66] LOAD_EXT_SCHEDULER_MAIN: Load scheduler "tlk1" with entities [LocalPlayer, LocalPlayer], work=189*
 24: 0x0793 [0x01] GOTO 0x081A
 25: 0x0796 [0x02] IF !(Entity->Race == 6*) GOTO 0x07C2
 26: 0x079E [0x66] LOAD_EXT_SCHEDULER_MAIN: Load scheduler "tlk0" with entities [LocalPlayer, LocalPlayer], work=189*
 27: 0x07AD [0x1C] WAIT(120* ticks)
 28: 0x07B0 [0x66] LOAD_EXT_SCHEDULER_MAIN: Load scheduler "tlk1" with entities [LocalPlayer, LocalPlayer], work=189*
 29: 0x07BF [0x01] GOTO 0x081A
 30: 0x07C2 [0x02] IF !(Entity->Race == 7*) GOTO 0x07EE
 31: 0x07CA [0x66] LOAD_EXT_SCHEDULER_MAIN: Load scheduler "tlk0" with entities [LocalPlayer, LocalPlayer], work=199*
 32: 0x07D9 [0x1C] WAIT(120* ticks)
 33: 0x07DC [0x66] LOAD_EXT_SCHEDULER_MAIN: Load scheduler "tlk1" with entities [LocalPlayer, LocalPlayer], work=199*
 34: 0x07EB [0x01] GOTO 0x081A
 35: 0x07EE [0x02] IF !(Entity->Race == 8*) GOTO 0x081A
 36: 0x07F6 [0x66] LOAD_EXT_SCHEDULER_MAIN: Load scheduler "tlk0" with entities [LocalPlayer, LocalPlayer], work=209*
 37: 0x0805 [0x1C] WAIT(120* ticks)
 38: 0x0808 [0x66] LOAD_EXT_SCHEDULER_MAIN: Load scheduler "tlk1" with entities [LocalPlayer, LocalPlayer], work=209*
 39: 0x0817 [0x01] GOTO 0x081A

SUBROUTINE_081A:
 40: 0x081A [0x00] END_REQSTACK()
```

### Event 65535.54

#### Metadata

| Field        | Value    |
|--------------|----------|
| Entrypoint   | 0x081B   |
| Data Size    | 19 bytes |
| Instructions | 5        |

```
      00 01 02 03 04 05 06 07  08 09 0A 0B 0C 0D 0E 0F
      -- -- -- -- -- -- -- --  -- -- -- -- -- -- -- --
0810:                                   32 17 80 1E F8             2....
0820: FF FF 7F 1F 00 63 80 64  80 65 80 1F 01 00        .....c.d.e....  
```

#### Opcodes

```
  0: 0x081B [0x32] ExtData[1]->MainSpeed = 13* * 0.1
  1: 0x081E [0x1E] EventEntity looks at EventEntity and starts talking
  2: 0x0823 [0x1F] MOVE_ENTITY: EventEntity moves to X=-30.205*, Z=-97.820*, Y=-0.650*
  3: 0x082B [0x1F] MOVE_ENTITY: Update entity position (mode=1)
  4: 0x082D [0x00] END_REQSTACK()
```

### Event 65535.55

#### Metadata

| Field        | Value    |
|--------------|----------|
| Entrypoint   | 0x082E   |
| Data Size    | 22 bytes |
| Instructions | 6        |

```
      00 01 02 03 04 05 06 07  08 09 0A 0B 0C 0D 0E 0F
      -- -- -- -- -- -- -- --  -- -- -- -- -- -- -- --
0820:                                            32 17                2.
0830: 80 1E F8 FF FF 7F 1C 12  80 1F 00 66 80 67 80 1C  ...........f.g..
0840: 80 1F 01 00                                       ....            
```

#### Opcodes

```
  0: 0x082E [0x32] ExtData[1]->MainSpeed = 13* * 0.1
  1: 0x0831 [0x1E] EventEntity looks at EventEntity and starts talking
  2: 0x0836 [0x1C] WAIT(60* ticks)
  3: 0x0839 [0x1F] MOVE_ENTITY: EventEntity moves to X=90.600*, Z=-119.800*, Y=4.000*
  4: 0x0841 [0x1F] MOVE_ENTITY: Update entity position (mode=1)
  5: 0x0843 [0x00] END_REQSTACK()
```

### Event 65535.56

#### Metadata

| Field        | Value    |
|--------------|----------|
| Entrypoint   | 0x0844   |
| Data Size    | 29 bytes |
| Instructions | 7        |

```
      00 01 02 03 04 05 06 07  08 09 0A 0B 0C 0D 0E 0F
      -- -- -- -- -- -- -- --  -- -- -- -- -- -- -- --
0840:             32 68 80 1E  DA 00 10 01 1F 00 69 80      2h........i.
0850: 6A 80 6B 80 1F 01 1F 00  6C 80 6D 80 6E 80 1F 01  j.k.....l.m.n...
0860: 00                                                .               
```

#### Opcodes

```
  0: 0x0844 [0x32] ExtData[1]->MainSpeed = 40* * 0.1
  1: 0x0847 [0x1E] EventEntity looks at Tuffle-Buffle (ID: 17826010/0x011000DA) and starts talking
  2: 0x084C [0x1F] MOVE_ENTITY: EventEntity moves to X=101.230*, Z=-108.600*, Y=2.250*
  3: 0x0854 [0x1F] MOVE_ENTITY: Update entity position (mode=1)
  4: 0x0856 [0x1F] MOVE_ENTITY: EventEntity moves to X=119.200*, Z=-91.000*, Y=-0.791*
  5: 0x085E [0x1F] MOVE_ENTITY: Update entity position (mode=1)
  6: 0x0860 [0x00] END_REQSTACK()
```

### Event 65535.57

#### Metadata

| Field        | Value    |
|--------------|----------|
| Entrypoint   | 0x0861   |
| Data Size    | 20 bytes |
| Instructions | 6        |

```
      00 01 02 03 04 05 06 07  08 09 0A 0B 0C 0D 0E 0F
      -- -- -- -- -- -- -- --  -- -- -- -- -- -- -- --
0860:    32 17 80 1F 00 63 80  64 80 65 80 1F 01 6F 1E   2....c.d.e...o.
0870: D8 00 10 01 00                                    .....           
```

#### Opcodes

```
  0: 0x0861 [0x32] ExtData[1]->MainSpeed = 13* * 0.1
  1: 0x0864 [0x1F] MOVE_ENTITY: EventEntity moves to X=-30.205*, Z=-97.820*, Y=-0.650*
  2: 0x086C [0x1F] MOVE_ENTITY: Update entity position (mode=1)
  3: 0x086E [0x6F] WAIT_FRAME_DELAY: Yield until WaitTime reaches zero
  4: 0x086F [0x1E] EventEntity looks at Peladi Shalmohr (ID: 17826008/0x011000D8) and starts talking
  5: 0x0874 [0x00] END_REQSTACK()
```

### Event 65535.58

#### Metadata

| Field        | Value    |
|--------------|----------|
| Entrypoint   | 0x0875   |
| Data Size    | 17 bytes |
| Instructions | 5        |

```
      00 01 02 03 04 05 06 07  08 09 0A 0B 0C 0D 0E 0F
      -- -- -- -- -- -- -- --  -- -- -- -- -- -- -- --
0870:                32 08 80  39 6F 80 1F 00 70 80 71       2..9o...p.q
0880: 80 65 80 1F 01 00                                 .e....          
```

#### Opcodes

```
  0: 0x0875 [0x32] ExtData[1]->MainSpeed = 8* * 0.1
  1: 0x0878 [0x39] SET_ENTITY_DIRECTION(direction=8.4*)
  2: 0x087B [0x1F] MOVE_ENTITY: EventEntity moves to X=-32.109*, Z=-99.766*, Y=-0.650*
  3: 0x0883 [0x1F] MOVE_ENTITY: Update entity position (mode=1)
  4: 0x0885 [0x00] END_REQSTACK()
```

### Event 65535.59

#### Metadata

| Field        | Value    |
|--------------|----------|
| Entrypoint   | 0x0886   |
| Data Size    | 19 bytes |
| Instructions | 5        |

```
      00 01 02 03 04 05 06 07  08 09 0A 0B 0C 0D 0E 0F
      -- -- -- -- -- -- -- --  -- -- -- -- -- -- -- --
0880:                   1C 72  80 6E F8 FF FF 7F 73 80        .r.n....s.
0890: 99 F8 FF FF 7F 1C 00 17  00                       .........       
```

#### Opcodes

```
  0: 0x0886 [0x1C] WAIT(15* ticks)
  1: 0x0889 [0x6E] EventEntity uses emote 21*
  2: 0x0890 [0x99] Wait for EventEntity animation to complete
  3: 0x0895 [0x1C] WAIT(Work_Zone_1700[0] ticks)
  4: 0x0898 [0x00] END_REQSTACK()
```

### Event 65535.60

#### Metadata

| Field        | Value   |
|--------------|---------|
| Entrypoint   | 0x0899  |
| Data Size    | 4 bytes |
| Instructions | 2       |

```
      00 01 02 03 04 05 06 07  08 09 0A 0B 0C 0D 0E 0F
      -- -- -- -- -- -- -- --  -- -- -- -- -- -- -- --
0890:                             39 74 80 00                    9t..   
```

#### Opcodes

```
  0: 0x0899 [0x39] SET_ENTITY_DIRECTION(direction=357.2*)
  1: 0x089C [0x00] END_REQSTACK()
```

### Event 65535.61

#### Metadata

| Field        | Value    |
|--------------|----------|
| Entrypoint   | 0x089D   |
| Data Size    | 27 bytes |
| Instructions | 7        |

```
      00 01 02 03 04 05 06 07  08 09 0A 0B 0C 0D 0E 0F
      -- -- -- -- -- -- -- --  -- -- -- -- -- -- -- --
0890:                                         32 68 80               2h.
08A0: 39 6F 80 1F 00 75 80 76  80 65 80 1F 01 1F 00 77  9o...u.v.e.....w
08B0: 80 78 80 65 80 1F 01 00                           .x.e....        
```

#### Opcodes

```
  0: 0x089D [0x32] ExtData[1]->MainSpeed = 40* * 0.1
  1: 0x08A0 [0x39] SET_ENTITY_DIRECTION(direction=8.4*)
  2: 0x08A3 [0x1F] MOVE_ENTITY: EventEntity moves to X=-37.458*, Z=-104.766*, Y=-0.650*
  3: 0x08AB [0x1F] MOVE_ENTITY: Update entity position (mode=1)
  4: 0x08AD [0x1F] MOVE_ENTITY: EventEntity moves to X=-34.992*, Z=-113.542*, Y=-0.650*
  5: 0x08B5 [0x1F] MOVE_ENTITY: Update entity position (mode=1)
  6: 0x08B7 [0x00] END_REQSTACK()
```

### Event 65535.62

#### Metadata

| Field        | Value    |
|--------------|----------|
| Entrypoint   | 0x08B8   |
| Data Size    | 32 bytes |
| Instructions | 6        |

```
      00 01 02 03 04 05 06 07  08 09 0A 0B 0C 0D 0E 0F
      -- -- -- -- -- -- -- --  -- -- -- -- -- -- -- --
08B0:                          32 17 80 1F 00 79 80 7A          2....y.z
08C0: 80 1C 80 1F 01 4A DA 00  10 01 F8 FF FF 7F 4A DB  .....J........J.
08D0: 00 10 01 F8 FF FF 7F 00                           ........        
```

#### Opcodes

```
  0: 0x08B8 [0x32] ExtData[1]->MainSpeed = 13* * 0.1
  1: 0x08BB [0x1F] MOVE_ENTITY: EventEntity moves to X=91.633*, Z=-118.385*, Y=4.000*
  2: 0x08C3 [0x1F] MOVE_ENTITY: Update entity position (mode=1)
  3: 0x08C5 [0x4A] Tuffle-Buffle (ID: 17826010/0x011000DA) looks at EventEntity
  4: 0x08CE [0x4A] Musto-Rusto (ID: 17826011/0x011000DB) looks at EventEntity
  5: 0x08D7 [0x00] END_REQSTACK()
```

### Event 65535.63

#### Metadata

| Field        | Value    |
|--------------|----------|
| Entrypoint   | 0x08D8   |
| Data Size    | 22 bytes |
| Instructions | 6        |

```
      00 01 02 03 04 05 06 07  08 09 0A 0B 0C 0D 0E 0F
      -- -- -- -- -- -- -- --  -- -- -- -- -- -- -- --
08D0:                          32 68 80 39 7B 80 1F 00          2h.9{...
08E0: 7C 80 7D 80 1C 80 1F 01  1E DA 00 10 01 00        |.}...........  
```

#### Opcodes

```
  0: 0x08D8 [0x32] ExtData[1]->MainSpeed = 40* * 0.1
  1: 0x08DB [0x39] SET_ENTITY_DIRECTION(direction=2.3*)
  2: 0x08DE [0x1F] MOVE_ENTITY: EventEntity moves to X=93.267*, Z=-118.860*, Y=4.000*
  3: 0x08E6 [0x1F] MOVE_ENTITY: Update entity position (mode=1)
  4: 0x08E8 [0x1E] EventEntity looks at Tuffle-Buffle (ID: 17826010/0x011000DA) and starts talking
  5: 0x08ED [0x00] END_REQSTACK()
```

### Event 65535.64

#### Metadata

| Field        | Value    |
|--------------|----------|
| Entrypoint   | 0x08EE   |
| Data Size    | 22 bytes |
| Instructions | 6        |

```
      00 01 02 03 04 05 06 07  08 09 0A 0B 0C 0D 0E 0F
      -- -- -- -- -- -- -- --  -- -- -- -- -- -- -- --
08E0:                                            32 68                2h
08F0: 80 39 7E 80 1F 00 79 80  7A 80 1C 80 1F 01 1E DA  .9~...y.z.......
0900: 00 10 01 00                                       ....            
```

#### Opcodes

```
  0: 0x08EE [0x32] ExtData[1]->MainSpeed = 40* * 0.1
  1: 0x08F1 [0x39] SET_ENTITY_DIRECTION(direction=351.6*)
  2: 0x08F4 [0x1F] MOVE_ENTITY: EventEntity moves to X=91.633*, Z=-118.385*, Y=4.000*
  3: 0x08FC [0x1F] MOVE_ENTITY: Update entity position (mode=1)
  4: 0x08FE [0x1E] EventEntity looks at Tuffle-Buffle (ID: 17826010/0x011000DA) and starts talking
  5: 0x0903 [0x00] END_REQSTACK()
```

### Event 65535.65

#### Metadata

| Field        | Value    |
|--------------|----------|
| Entrypoint   | 0x0904   |
| Data Size    | 20 bytes |
| Instructions | 8        |

```
      00 01 02 03 04 05 06 07  08 09 0A 0B 0C 0D 0E 0F
      -- -- -- -- -- -- -- --  -- -- -- -- -- -- -- --
0900:             32 17 80 1F  00 7F 80 80 80 65 80 1F      2........e..
0910: 01 6F 39 74 80 6F 70 00                           .o9t.op.        
```

#### Opcodes

```
  0: 0x0904 [0x32] ExtData[1]->MainSpeed = 13* * 0.1
  1: 0x0907 [0x1F] MOVE_ENTITY: EventEntity moves to X=-39.700*, Z=-106.200*, Y=-0.650*
  2: 0x090F [0x1F] MOVE_ENTITY: Update entity position (mode=1)
  3: 0x0911 [0x6F] WAIT_FRAME_DELAY: Yield until WaitTime reaches zero
  4: 0x0912 [0x39] SET_ENTITY_DIRECTION(direction=357.2*)
  5: 0x0915 [0x6F] WAIT_FRAME_DELAY: Yield until WaitTime reaches zero
  6: 0x0916 [0x70] WAIT_ENTITY_RENDER_FLAG: Wait while EventEntity->Render.Flags3 bit 2 is set (cancel turn if not)
  7: 0x0917 [0x00] END_REQSTACK()
```

### Event 65535.66

#### Metadata

| Field        | Value    |
|--------------|----------|
| Entrypoint   | 0x0918   |
| Data Size    | 14 bytes |
| Instructions | 4        |

```
      00 01 02 03 04 05 06 07  08 09 0A 0B 0C 0D 0E 0F
      -- -- -- -- -- -- -- --  -- -- -- -- -- -- -- --
0910:                          32 17 80 1F 00 81 80 82          2.......
0920: 80 65 80 1F 01 00                                 .e....          
```

#### Opcodes

```
  0: 0x0918 [0x32] ExtData[1]->MainSpeed = 13* * 0.1
  1: 0x091B [0x1F] MOVE_ENTITY: EventEntity moves to X=-36.900*, Z=-102.700*, Y=-0.650*
  2: 0x0923 [0x1F] MOVE_ENTITY: Update entity position (mode=1)
  3: 0x0925 [0x00] END_REQSTACK()
```

### Event 65535.67

#### Metadata

| Field        | Value    |
|--------------|----------|
| Entrypoint   | 0x0926   |
| Data Size    | 14 bytes |
| Instructions | 4        |

```
      00 01 02 03 04 05 06 07  08 09 0A 0B 0C 0D 0E 0F
      -- -- -- -- -- -- -- --  -- -- -- -- -- -- -- --
0920:                   32 17  80 1F 00 83 80 84 80 65        2........e
0930: 80 1F 01 00                                       ....            
```

#### Opcodes

```
  0: 0x0926 [0x32] ExtData[1]->MainSpeed = 13* * 0.1
  1: 0x0929 [0x1F] MOVE_ENTITY: EventEntity moves to X=-32.500*, Z=-98.000*, Y=-0.650*
  2: 0x0931 [0x1F] MOVE_ENTITY: Update entity position (mode=1)
  3: 0x0933 [0x00] END_REQSTACK()
```

### Event 65535.68

#### Metadata

| Field        | Value    |
|--------------|----------|
| Entrypoint   | 0x0934   |
| Data Size    | 14 bytes |
| Instructions | 4        |

```
      00 01 02 03 04 05 06 07  08 09 0A 0B 0C 0D 0E 0F
      -- -- -- -- -- -- -- --  -- -- -- -- -- -- -- --
0930:             32 17 80 1F  00 85 80 86 80 65 80 1F      2........e..
0940: 01 00                                             ..              
```

#### Opcodes

```
  0: 0x0934 [0x32] ExtData[1]->MainSpeed = 13* * 0.1
  1: 0x0937 [0x1F] MOVE_ENTITY: EventEntity moves to X=-30.850*, Z=-97.360*, Y=-0.650*
  2: 0x093F [0x1F] MOVE_ENTITY: Update entity position (mode=1)
  3: 0x0941 [0x00] END_REQSTACK()
```

### Event 65535.69

#### Metadata

| Field        | Value    |
|--------------|----------|
| Entrypoint   | 0x0942   |
| Data Size    | 27 bytes |
| Instructions | 7        |

```
      00 01 02 03 04 05 06 07  08 09 0A 0B 0C 0D 0E 0F
      -- -- -- -- -- -- -- --  -- -- -- -- -- -- -- --
0940:       32 68 80 39 6F 80  1F 00 7F 80 80 80 65 80    2h.9o.......e.
0950: 1F 01 1F 00 77 80 78 80  65 80 1F 01 00           ....w.x.e....   
```

#### Opcodes

```
  0: 0x0942 [0x32] ExtData[1]->MainSpeed = 40* * 0.1
  1: 0x0945 [0x39] SET_ENTITY_DIRECTION(direction=8.4*)
  2: 0x0948 [0x1F] MOVE_ENTITY: EventEntity moves to X=-39.700*, Z=-106.200*, Y=-0.650*
  3: 0x0950 [0x1F] MOVE_ENTITY: Update entity position (mode=1)
  4: 0x0952 [0x1F] MOVE_ENTITY: EventEntity moves to X=-34.992*, Z=-113.542*, Y=-0.650*
  5: 0x095A [0x1F] MOVE_ENTITY: Update entity position (mode=1)
  6: 0x095C [0x00] END_REQSTACK()
```

### Event 65535.70

#### Metadata

| Field        | Value    |
|--------------|----------|
| Entrypoint   | 0x095D   |
| Data Size    | 18 bytes |
| Instructions | 6        |

```
      00 01 02 03 04 05 06 07  08 09 0A 0B 0C 0D 0E 0F
      -- -- -- -- -- -- -- --  -- -- -- -- -- -- -- --
0950:                                         32 17 80               2..
0960: 1F 00 87 80 88 80 1C 80  1F 01 6F 39 6F 80 00     ..........o9o.. 
```

#### Opcodes

```
  0: 0x095D [0x32] ExtData[1]->MainSpeed = 13* * 0.1
  1: 0x0960 [0x1F] MOVE_ENTITY: EventEntity moves to X=91.700*, Z=-118.750*, Y=4.000*
  2: 0x0968 [0x1F] MOVE_ENTITY: Update entity position (mode=1)
  3: 0x096A [0x6F] WAIT_FRAME_DELAY: Yield until WaitTime reaches zero
  4: 0x096B [0x39] SET_ENTITY_DIRECTION(direction=8.4*)
  5: 0x096E [0x00] END_REQSTACK()
```

### Event 65535.71

#### Metadata

| Field        | Value   |
|--------------|---------|
| Entrypoint   | 0x096F  |
| Data Size    | 4 bytes |
| Instructions | 2       |

```
      00 01 02 03 04 05 06 07  08 09 0A 0B 0C 0D 0E 0F
      -- -- -- -- -- -- -- --  -- -- -- -- -- -- -- --
0960:                                               1C                 .
0970: 00 17 00                                          ...             
```

#### Opcodes

```
  0: 0x096F [0x1C] WAIT(Work_Zone_1700[0] ticks)
  1: 0x0972 [0x00] END_REQSTACK()
```

### Event 65535.72

#### Metadata

| Field        | Value    |
|--------------|----------|
| Entrypoint   | 0x0973   |
| Data Size    | 14 bytes |
| Instructions | 4        |

```
      00 01 02 03 04 05 06 07  08 09 0A 0B 0C 0D 0E 0F
      -- -- -- -- -- -- -- --  -- -- -- -- -- -- -- --
0970:          32 17 80 1F 00  66 80 67 80 1C 80 1F 01     2....f.g.....
0980: 00                                                .               
```

#### Opcodes

```
  0: 0x0973 [0x32] ExtData[1]->MainSpeed = 13* * 0.1
  1: 0x0976 [0x1F] MOVE_ENTITY: EventEntity moves to X=90.600*, Z=-119.800*, Y=4.000*
  2: 0x097E [0x1F] MOVE_ENTITY: Update entity position (mode=1)
  3: 0x0980 [0x00] END_REQSTACK()
```

### Event 65535.73

#### Metadata

| Field        | Value    |
|--------------|----------|
| Entrypoint   | 0x0981   |
| Data Size    | 14 bytes |
| Instructions | 4        |

```
      00 01 02 03 04 05 06 07  08 09 0A 0B 0C 0D 0E 0F
      -- -- -- -- -- -- -- --  -- -- -- -- -- -- -- --
0980:    32 17 80 1F 00 89 80  8A 80 6B 80 1F 01 00      2........k.... 
```

#### Opcodes

```
  0: 0x0981 [0x32] ExtData[1]->MainSpeed = 13* * 0.1
  1: 0x0984 [0x1F] MOVE_ENTITY: EventEntity moves to X=103.700*, Z=-106.350*, Y=2.250*
  2: 0x098C [0x1F] MOVE_ENTITY: Update entity position (mode=1)
  3: 0x098E [0x00] END_REQSTACK()
```

### Event 65535.74

#### Metadata

| Field        | Value   |
|--------------|---------|
| Entrypoint   | 0x098F  |
| Data Size    | 4 bytes |
| Instructions | 2       |

```
      00 01 02 03 04 05 06 07  08 09 0A 0B 0C 0D 0E 0F
      -- -- -- -- -- -- -- --  -- -- -- -- -- -- -- --
0980:                                               39                 9
0990: 8B 80 00                                          ...             
```

#### Opcodes

```
  0: 0x098F [0x39] SET_ENTITY_DIRECTION(direction=0.7*)
  1: 0x0992 [0x00] END_REQSTACK()
```

### Event 65535.75

#### Metadata

| Field        | Value    |
|--------------|----------|
| Entrypoint   | 0x0993   |
| Data Size    | 14 bytes |
| Instructions | 4        |

```
      00 01 02 03 04 05 06 07  08 09 0A 0B 0C 0D 0E 0F
      -- -- -- -- -- -- -- --  -- -- -- -- -- -- -- --
0990:          32 17 80 1F 00  8C 80 8D 80 8E 80 1F 01     2............
09A0: 00                                                .               
```

#### Opcodes

```
  0: 0x0993 [0x32] ExtData[1]->MainSpeed = 13* * 0.1
  1: 0x0996 [0x1F] MOVE_ENTITY: EventEntity moves to X=118.030*, Z=122.060*, Y=32.000*
  2: 0x099E [0x1F] MOVE_ENTITY: Update entity position (mode=1)
  3: 0x09A0 [0x00] END_REQSTACK()
```

### Event 65535.76

#### Metadata

| Field        | Value    |
|--------------|----------|
| Entrypoint   | 0x09A1   |
| Data Size    | 14 bytes |
| Instructions | 4        |

```
      00 01 02 03 04 05 06 07  08 09 0A 0B 0C 0D 0E 0F
      -- -- -- -- -- -- -- --  -- -- -- -- -- -- -- --
09A0:    32 17 80 1F 00 8F 80  90 80 32 80 1F 01 00      2........2.... 
```

#### Opcodes

```
  0: 0x09A1 [0x32] ExtData[1]->MainSpeed = 13* * 0.1
  1: 0x09A4 [0x1F] MOVE_ENTITY: EventEntity moves to X=-57.650*, Z=-5.000*, Y=-0.500*
  2: 0x09AC [0x1F] MOVE_ENTITY: Update entity position (mode=1)
  3: 0x09AE [0x00] END_REQSTACK()
```

### Event 65535.77

#### Metadata

| Field        | Value    |
|--------------|----------|
| Entrypoint   | 0x09AF   |
| Data Size    | 19 bytes |
| Instructions | 5        |

```
      00 01 02 03 04 05 06 07  08 09 0A 0B 0C 0D 0E 0F
      -- -- -- -- -- -- -- --  -- -- -- -- -- -- -- --
09A0:                                               32                 2
09B0: 17 80 1F 00 91 80 92 80  32 80 1F 01 1E C2 00 10  ........2.......
09C0: 01 00                                             ..              
```

#### Opcodes

```
  0: 0x09AF [0x32] ExtData[1]->MainSpeed = 13* * 0.1
  1: 0x09B2 [0x1F] MOVE_ENTITY: EventEntity moves to X=-55.970*, Z=-4.940*, Y=-0.500*
  2: 0x09BA [0x1F] MOVE_ENTITY: Update entity position (mode=1)
  3: 0x09BC [0x1E] EventEntity looks at Othellius (ID: 17825986/0x011000C2) and starts talking
  4: 0x09C1 [0x00] END_REQSTACK()
```

### Event 65535.78

#### Metadata

| Field        | Value    |
|--------------|----------|
| Entrypoint   | 0x09C2   |
| Data Size    | 22 bytes |
| Instructions | 6        |

```
      00 01 02 03 04 05 06 07  08 09 0A 0B 0C 0D 0E 0F
      -- -- -- -- -- -- -- --  -- -- -- -- -- -- -- --
09C0:       32 17 80 39 93 80  1F 00 94 80 95 80 1C 80    2..9..........
09D0: 1F 01 1E DA 00 10 01 00                           ........        
```

#### Opcodes

```
  0: 0x09C2 [0x32] ExtData[1]->MainSpeed = 13* * 0.1
  1: 0x09C5 [0x39] SET_ENTITY_DIRECTION(direction=352.9*)
  2: 0x09C8 [0x1F] MOVE_ENTITY: EventEntity moves to X=91.500*, Z=-117.700*, Y=4.000*
  3: 0x09D0 [0x1F] MOVE_ENTITY: Update entity position (mode=1)
  4: 0x09D2 [0x1E] EventEntity looks at Tuffle-Buffle (ID: 17826010/0x011000DA) and starts talking
  5: 0x09D7 [0x00] END_REQSTACK()
```

### Event 65535.79

#### Metadata

| Field        | Value    |
|--------------|----------|
| Entrypoint   | 0x09D8   |
| Data Size    | 22 bytes |
| Instructions | 6        |

```
      00 01 02 03 04 05 06 07  08 09 0A 0B 0C 0D 0E 0F
      -- -- -- -- -- -- -- --  -- -- -- -- -- -- -- --
09D0:                          32 17 80 39 96 80 1F 00          2..9....
09E0: 79 80 7A 80 1C 80 1F 01  1E DA 00 10 01 00        y.z...........  
```

#### Opcodes

```
  0: 0x09D8 [0x32] ExtData[1]->MainSpeed = 13* * 0.1
  1: 0x09DB [0x39] SET_ENTITY_DIRECTION(direction=4.4*)
  2: 0x09DE [0x1F] MOVE_ENTITY: EventEntity moves to X=91.633*, Z=-118.385*, Y=4.000*
  3: 0x09E6 [0x1F] MOVE_ENTITY: Update entity position (mode=1)
  4: 0x09E8 [0x1E] EventEntity looks at Tuffle-Buffle (ID: 17826010/0x011000DA) and starts talking
  5: 0x09ED [0x00] END_REQSTACK()
```

### Event 65535.80

#### Metadata

| Field        | Value    |
|--------------|----------|
| Entrypoint   | 0x09EE   |
| Data Size    | 37 bytes |
| Instructions | 9        |

```
      00 01 02 03 04 05 06 07  08 09 0A 0B 0C 0D 0E 0F
      -- -- -- -- -- -- -- --  -- -- -- -- -- -- -- --
09E0:                                            32 68                2h
09F0: 80 39 74 80 1F 00 97 80  98 80 99 80 1F 01 1F 00  .9t.............
0A00: 9A 80 9B 80 1C 80 1F 01  1F 00 9C 80 9D 80 1C 80  ................
0A10: 1F 01 00                                          ...             
```

#### Opcodes

```
  0: 0x09EE [0x32] ExtData[1]->MainSpeed = 40* * 0.1
  1: 0x09F1 [0x39] SET_ENTITY_DIRECTION(direction=357.2*)
  2: 0x09F4 [0x1F] MOVE_ENTITY: EventEntity moves to X=99.000*, Z=-101.000*, Y=2.400*
  3: 0x09FC [0x1F] MOVE_ENTITY: Update entity position (mode=1)
  4: 0x09FE [0x1F] MOVE_ENTITY: EventEntity moves to X=136.000*, Z=-63.600*, Y=4.000*
  5: 0x0A06 [0x1F] MOVE_ENTITY: Update entity position (mode=1)
  6: 0x0A08 [0x1F] MOVE_ENTITY: EventEntity moves to X=137.000*, Z=-45.440*, Y=4.000*
  7: 0x0A10 [0x1F] MOVE_ENTITY: Update entity position (mode=1)
  8: 0x0A12 [0x00] END_REQSTACK()
```

### Event 65535.81

#### Metadata

| Field        | Value    |
|--------------|----------|
| Entrypoint   | 0x0A13   |
| Data Size    | 14 bytes |
| Instructions | 4        |

```
      00 01 02 03 04 05 06 07  08 09 0A 0B 0C 0D 0E 0F
      -- -- -- -- -- -- -- --  -- -- -- -- -- -- -- --
0A10:          32 17 80 1F 00  9E 80 9F 80 A0 80 1F 01     2............
0A20: 00                                                .               
```

#### Opcodes

```
  0: 0x0A13 [0x32] ExtData[1]->MainSpeed = 13* * 0.1
  1: 0x0A16 [0x1F] MOVE_ENTITY: EventEntity moves to X=95.000*, Z=-75.175*, Y=-0.651*
  2: 0x0A1E [0x1F] MOVE_ENTITY: Update entity position (mode=1)
  3: 0x0A20 [0x00] END_REQSTACK()
```

### Event 65535.82

#### Metadata

| Field        | Value    |
|--------------|----------|
| Entrypoint   | 0x0A21   |
| Data Size    | 29 bytes |
| Instructions | 5        |

```
      00 01 02 03 04 05 06 07  08 09 0A 0B 0C 0D 0E 0F
      -- -- -- -- -- -- -- --  -- -- -- -- -- -- -- --
0A20:    03 00 00 07 7F 1A C8  00 07 01 00 01 80 66 01   .............f.
0A30: 00 F8 FF FF 7F F8 FF FF  7F 70 61 73 30 00        .........pas0.  
```

#### Opcodes

```
  0: 0x0A21 [0x03] ExtData[1]->WorkLocal[0] = Entity->Race
  1: 0x0A26 [0x1A] CALL_SUBROUTINE(address=0x00C8)
  2: 0x0A29 [0x07] ExtData[1]->WorkLocal[1] += 1*
  3: 0x0A2E [0x66] LOAD_EXT_SCHEDULER_MAIN: Load scheduler "pas0" with entities [EventEntity, EventEntity], work=ExtData[1]->WorkLocal[1]
  4: 0x0A3D [0x00] END_REQSTACK()
```

### Event 65535.83

#### Metadata

| Field        | Value    |
|--------------|----------|
| Entrypoint   | 0x0A3E   |
| Data Size    | 14 bytes |
| Instructions | 4        |

```
      00 01 02 03 04 05 06 07  08 09 0A 0B 0C 0D 0E 0F
      -- -- -- -- -- -- -- --  -- -- -- -- -- -- -- --
0A30:                                            32 17                2.
