# 17297484

## Common Data

| Field            | Value                         |
|------------------|-------------------------------|
| Zone             | Behemoth's Dominion (ID: 127) |
| Block Size       | 76 bytes                      |
| Total Events     | 2                             |
| References Count | 4                             |

## List of Events

| Event ID              | Entrypoint   |   Size |   Instructions |
|-----------------------|--------------|--------|----------------|
| [65535](#event-65535) | 0x0000       |      1 |              1 |
| [100](#event-100)     | 0x0001       |     35 |              8 |

## DAT References (imed_data)

|   Index | Hex Value   |   Dec Value |
|---------|-------------|-------------|
|       0 | 0x1CA0      |        7328 |
|       1 | 0x0001      |           1 |
|       2 | 0x0000      |           0 |
|       3 | 0x40000000  |  1073741824 |

## String References

- **7328**: Examine further? [Yes./No.]

## Events

### Event 65535

#### Metadata

| Field        | Value   |
|--------------|---------|
| Entrypoint   | 0x0000  |
| Data Size    | 1 bytes |
| Instructions | 1       |

```
      00 01 02 03 04 05 06 07  08 09 0A 0B 0C 0D 0E 0F
      -- -- -- -- -- -- -- --  -- -- -- -- -- -- -- --
0000: 00                                                .               
```

#### Opcodes

```
  0: 0x0000 [0x00] END_REQSTACK()
```

### Event 100

#### Metadata

| Field        | Value    |
|--------------|----------|
| Entrypoint   | 0x0001   |
| Data Size    | 35 bytes |
| Instructions | 8        |

```
      00 01 02 03 04 05 06 07  08 09 0A 0B 0C 0D 0E 0F
      -- -- -- -- -- -- -- --  -- -- -- -- -- -- -- --
0000:    4A F0 FF FF 7F 4C F0  07 01 24 00 80 01 80 02   J....L...$.....
0010: 80 25 02 00 10 01 80 00  22 00 03 01 10 03 80 01  .%......".......
0020: 22 00 21 00                                       ".!.            
```

#### Opcodes

```
  0: 0x0001 [0x4A] LocalPlayer looks at ??? (ID: 17297484/0x0107F04C)
  1: 0x000A [0x24] CREATE_DIALOG(message_id=7328*, default_option=1*, option_flags=0*)
    → "Examine further? [Yes./No.]"
  2: 0x0011 [0x25] WAIT_DIALOG_SELECT()
  3: 0x0012 [0x02] IF !(Work_Zone[0] == 1*) GOTO 0x0022
  4: 0x001A [0x03] Work_Zone[1] = 1073741824*
  5: 0x001F [0x01] GOTO 0x0022

SUBROUTINE_0022:
  6: 0x0022 [0x21] END_EVENT
  7: 0x0023 [0x00] END_REQSTACK()
```
