# Event 590

## Metadata

| Field           | Value    |
|-----------------|----------|
| Event Index     | 3/4      |
| Offset          | 0x0056   |
| Data Size       | 47 bytes |
| Calculated Size | 47 bytes |
| Instructions    | 11       |

```
      00 01 02 03 04 05 06 07  08 09 0A 0B 0C 0D 0E 0F
      -- -- -- -- -- -- -- --  -- -- -- -- -- -- -- --
0050:                   1E F0  FF FF 7F 6F 70 66 00 80        .....opf..
0060: F8 FF FF 7F F8 FF FF 7F  74 6C 6B 30 1D 05 80 23  ........tlk0...#
0070: 1D 06 80 23 66 00 80 F8  FF FF 7F F8 FF FF 7F 74  ...#f..........t
0080: 6C 6B 31 21 00                                    lk1!.           
```

## Opcodes

```
  0: 0x0056 [0x1E] EventEntity looks at LocalPlayer and starts talking
  1: 0x005B [0x6F] WAIT_FRAME_DELAY: Yield until WaitTime reaches zero
  2: 0x005C [0x70] WAIT_ENTITY_RENDER_FLAG: Wait while EventEntity->Render.Flags3 bit 2 is set (cancel turn if not)
  3: 0x005D [0x66] LOAD_EXT_SCHEDULER_MAIN(work_offset=158*, entity1=EventEntity, entity2=EventEntity, action="tlk0")
  4: 0x006C [0x1D] PRINT_EVENT_MESSAGE(message_id=9770*)
    → "The more developed the continent becomes and the more you contribute to the pioneering effort, the more services the coalitions will provide! \u007F1\u0000\u0007"
  5: 0x006F [0x23] WAIT_FOR_DIALOG_INTERACTION
  6: 0x0070 [0x1D] PRINT_EVENT_MESSAGE(message_id=9771*)
    → "They'll also look much grander, if you're a fan of architecture and such things.\u0007Either way, you've so much to gain by helping the coalitions, so please do!\u007F1\u0000\u0007"
  7: 0x0073 [0x23] WAIT_FOR_DIALOG_INTERACTION
  8: 0x0074 [0x66] LOAD_EXT_SCHEDULER_MAIN(work_offset=158*, entity1=EventEntity, entity2=EventEntity, action="tlk1")
  9: 0x0083 [0x21] END_EVENT
 10: 0x0084 [0x00] END_REQSTACK()
```
