# Event 65535

## Metadata

| Field           | Value    |
|-----------------|----------|
| Event Index     | 28/47    |
| Offset          | 0x0457   |
| Data Size       | 48 bytes |
| Calculated Size | 48 bytes |
| Instructions    | 11       |

```
      00 01 02 03 04 05 06 07  08 09 0A 0B 0C 0D 0E 0F
      -- -- -- -- -- -- -- --  -- -- -- -- -- -- -- --
0450:                      59  04 F8 FF FF 7F 75 80 1F         Y.....u..
0460: 00 80 80 81 80 82 80 1F  01 1F 00 83 80 84 80 6D  ...............m
0470: 80 1F 01 1F 00 85 80 86  80 6D 80 1F 01 6F 22 01  .........m...o".
0480: 2F 01 F8 FF FF 7F 00                              /......         
```

## Opcodes

```
  0: 0x0457 [0x59] UPDATE_ENTITY_DATA: Set EventEntity main speed = 27* * 0.1
  1: 0x045F [0x1F] MOVE_ENTITY: EventEntity moves to X=-27.766*, Z=73.600*, Y=-3.414*
  2: 0x0467 [0x1F] MOVE_ENTITY: Update entity position (mode=1)
  3: 0x0469 [0x1F] MOVE_ENTITY: EventEntity moves to X=-52.430*, Z=73.638*, Y=-3.500*
  4: 0x0471 [0x1F] MOVE_ENTITY: Update entity position (mode=1)
  5: 0x0473 [0x1F] MOVE_ENTITY: EventEntity moves to X=-54.193*, Z=72.044*, Y=-3.500*
  6: 0x047B [0x1F] MOVE_ENTITY: Update entity position (mode=1)
  7: 0x047D [0x6F] WAIT_FRAME_DELAY: Yield until WaitTime reaches zero
  8: 0x047E [0x22] ENTITY_HIDE_FLAG(enabled=0x01)
  9: 0x0480 [0x2F] EventEntity->Render.Flags0 |= 0x80000 // Bit 19
 10: 0x0486 [0x00] END_REQSTACK()
```
