# Event 65535

## Metadata

| Field           | Value    |
|-----------------|----------|
| Event Index     | 21/30    |
| Offset          | 0x01C2   |
| Data Size       | 50 bytes |
| Calculated Size | 50 bytes |
| Instructions    | 11       |

```
      00 01 02 03 04 05 06 07  08 09 0A 0B 0C 0D 0E 0F
      -- -- -- -- -- -- -- --  -- -- -- -- -- -- -- --
01C0:       4A 16 F0 0E 01 17  F0 0E 01 4A 16 F0 0E 01    J........J....
01D0: 15 F0 0E 01 1C 25 80 4A  16 F0 0E 01 17 F0 0E 01  .....%.J........
01E0: 1C 25 80 32 07 80 1F 00  26 80 27 80 28 80 1F 01  .%.2....&.'.(...
01F0: 6F 22 01 00                                       o"..            
```

## Opcodes

```
  0: 0x01C2 [0x4A] Yafa Yaa (ID: 17756182/0x010EF016) looks at Pyo Nzon (ID: 17756183/0x010EF017)
  1: 0x01CB [0x4A] Yafa Yaa (ID: 17756182/0x010EF016) looks at Pichichi (ID: 17756181/0x010EF015)
  2: 0x01D4 [0x1C] WAIT(60* ticks)
  3: 0x01D7 [0x4A] Yafa Yaa (ID: 17756182/0x010EF016) looks at Pyo Nzon (ID: 17756183/0x010EF017)
  4: 0x01E0 [0x1C] WAIT(60* ticks)
  5: 0x01E3 [0x32] ExtData[1]->MainSpeed = 40* * 0.1
  6: 0x01E6 [0x1F] MOVE_ENTITY: EventEntity moves to X=-37.973*, Z=244.602*, Y=-12.499*
  7: 0x01EE [0x1F] MOVE_ENTITY: Update entity position (mode=1)
  8: 0x01F0 [0x6F] WAIT_FRAME_DELAY: Yield until WaitTime reaches zero
  9: 0x01F1 [0x22] ENTITY_HIDE_FLAG(enabled=0x01)
 10: 0x01F3 [0x00] END_REQSTACK()
```
