# Event 65535

## Metadata

| Field           | Value    |
|-----------------|----------|
| Event Index     | 6/30     |
| Offset          | 0x005D   |
| Data Size       | 53 bytes |
| Calculated Size | 53 bytes |
| Instructions    | 7        |

```
      00 01 02 03 04 05 06 07  08 09 0A 0B 0C 0D 0E 0F
      -- -- -- -- -- -- -- --  -- -- -- -- -- -- -- --
0050:                                         7C 00 F8               |..
0060: FF FF 7F 81 00 F8 FF FF  7F 5B 02 80 F8 FF FF 7F  .........[......
0070: F8 FF FF 7F 68 61 69 30  53 F8 FF FF 7F F8 FF FF  ....hai0S.......
0080: 7F 68 61 69 30 7C 01 F8  FF FF 7F 81 01 F8 FF FF  .hai0|..........
0090: 7F 00                                             ..              
```

## Opcodes

```
  0: 0x005D [0x7C] EventEntity->Render.Flags2 |= 0x00
  1: 0x0063 [0x81] SET_ENTITY_BLINKING(blink_flag=0x00, entity=EventEntity)
  2: 0x0069 [0x5B] LOAD_EXT_SCHEDULER(work_offset=81*, entity1=EventEntity, entity2=EventEntity, action="hai0")
  3: 0x0078 [0x53] WAIT_SCHEDULER_TASK(entity1=EventEntity, entity2=EventEntity, action_id="hai0")
  4: 0x0085 [0x7C] EventEntity->Render.Flags2 |= 0x01
  5: 0x008B [0x81] SET_ENTITY_BLINKING(blink_flag=0x01, entity=EventEntity)
  6: 0x0091 [0x00] END_REQSTACK()
```
