# Event 65535

## Metadata

| Field           | Value    |
|-----------------|----------|
| Event Index     | 20/30    |
| Offset          | 0x0187   |
| Data Size       | 59 bytes |
| Calculated Size | 59 bytes |
| Instructions    | 9        |

```
      00 01 02 03 04 05 06 07  08 09 0A 0B 0C 0D 0E 0F
      -- -- -- -- -- -- -- --  -- -- -- -- -- -- -- --
0180:                      1C  1C 80 45 1D 80 01 F0 0E         ...E.....
0190: 01 01 F0 0E 01 73 30 34  32 1E 80 37 1F 80 20 80  .....s042..7.. .
01A0: 0E 80 21 80 32 07 80 1F  00 22 80 23 80 24 80 1F  ..!.2....".#.$..
01B0: 01 6F 55 1D 80 01 F0 0E  01 01 F0 0E 01 73 30 34  .oU..........s04
01C0: 32 00                                             2.              
```

## Opcodes

```
  0: 0x0187 [0x1C] WAIT(220* ticks)
  1: 0x018A [0x45] LOAD_SCHEDULED_TASK: Load scheduler "s042" with entities [PRODUCER (ID: 17756161/0x010EF001), PRODUCER (ID: 17756161/0x010EF001)], work=[139*, 0*]
  2: 0x019B [0x37] UPDATE_EVENT_POSITION_AND_DIR: x=-25.544*, z=261.180*, y=-12.999*, direction=67.2°*
  3: 0x01A4 [0x32] ExtData[1]->MainSpeed = 40* * 0.1
  4: 0x01A7 [0x1F] MOVE_ENTITY: EventEntity moves to X=-25.429*, Z=254.825*, Y=-12.411*
  5: 0x01AF [0x1F] MOVE_ENTITY: Update entity position (mode=1)
  6: 0x01B1 [0x6F] WAIT_FRAME_DELAY: Yield until WaitTime reaches zero
  7: 0x01B2 [0x55] WAIT_LOAD_SCHEDULER: Wait for scheduler "s042" with entities [PRODUCER (ID: 17756161/0x010EF001), PRODUCER (ID: 17756161/0x010EF001)], work=139*
  8: 0x01C1 [0x00] END_REQSTACK()
```
