# Event 65535

## Metadata

| Field           | Value    |
|-----------------|----------|
| Event Index     | 4/40     |
| Offset          | 0x0009   |
| Data Size       | 80 bytes |
| Calculated Size | 80 bytes |
| Instructions    | 12       |

```
      00 01 02 03 04 05 06 07  08 09 0A 0B 0C 0D 0E 0F
      -- -- -- -- -- -- -- --  -- -- -- -- -- -- -- --
0000:                             32 00 80 1F 00 01 80           2......
0010: 02 80 03 80 1F 01 4A B4  71 05 01 F3 71 05 01 1C  ......J.q...q...
0020: 04 80 1E B4 71 05 01 1C  04 80 66 05 80 F3 71 05  ....q.....f...q.
0030: 01 F3 71 05 01 74 6C 62  30 1C 04 80 66 05 80 F3  ..q..tlb0...f...
0040: 71 05 01 F3 71 05 01 74  6C 62 31 53 F3 71 05 01  q...q..tlb1S.q..
0050: F3 71 05 01 74 6C 62 31  00                       .q..tlb1.       
```

## Opcodes

```
  0: 0x0009 [0x32] ExtData[1]->MainSpeed = 13* * 0.1
  1: 0x000C [0x1F] MOVE_ENTITY: EventEntity moves to X=-32.729*, Z=0.545*, Y=-9.999*
  2: 0x0014 [0x1F] MOVE_ENTITY: Update entity position (mode=1)
  3: 0x0016 [0x4A] Volker (ID: 17134004/0x010571B4) looks at Nicolaus (ID: 17134067/0x010571F3)
  4: 0x001F [0x1C] WAIT(60* ticks)
  5: 0x0022 [0x1E] EventEntity looks at Volker (ID: 17134004/0x010571B4) and starts talking
  6: 0x0027 [0x1C] WAIT(60* ticks)
  7: 0x002A [0x66] LOAD_EXT_SCHEDULER_MAIN(work_offset=5*, entity1=Nicolaus (ID: 17134067/0x010571F3), entity2=Nicolaus (ID: 17134067/0x010571F3), action="tlb0")
  8: 0x0039 [0x1C] WAIT(60* ticks)
  9: 0x003C [0x66] LOAD_EXT_SCHEDULER_MAIN(work_offset=5*, entity1=Nicolaus (ID: 17134067/0x010571F3), entity2=Nicolaus (ID: 17134067/0x010571F3), action="tlb1")
 10: 0x004B [0x53] WAIT_SCHEDULER_TASK(entity1=Nicolaus (ID: 17134067/0x010571F3), entity2=Nicolaus (ID: 17134067/0x010571F3), action_id="tlb1")
 11: 0x0058 [0x00] END_REQSTACK()
```
