# Event 497

## Metadata

| Field           | Value    |
|-----------------|----------|
| Event Index     | 6/6      |
| Offset          | 0x0042   |
| Data Size       | 52 bytes |
| Calculated Size | 52 bytes |
| Instructions    | 12       |

```
      00 01 02 03 04 05 06 07  08 09 0A 0B 0C 0D 0E 0F
      -- -- -- -- -- -- -- --  -- -- -- -- -- -- -- --
0040:       42 48 04 80 1E F0  FF FF 7F 1C 01 80 1D 05    BH............
0050: 80 23 66 00 80 F8 FF FF  7F F8 FF FF 7F 74 6C 6B  .#f..........tlk
0060: 30 1D 06 80 23 66 00 80  F8 FF FF 7F F8 FF FF 7F  0...#f..........
0070: 74 6C 6B 31 21 00                                 tlk1!.          
```

## Opcodes

```
  0: 0x0042 [0x42] SET_CLI_EVENT_CANCEL_DATA()
  1: 0x0043 [0x48] [System] [9608*]:
    → "\u001F\u000F\u0008's badge flashes brightly.\u007F1\u0000\u0007"
  2: 0x0046 [0x1E] EventEntity looks at LocalPlayer and starts talking
  3: 0x004B [0x1C] WAIT(30* ticks)
  4: 0x004E [0x1D] PRINT_EVENT_MESSAGE(message_id=9612*)
    → "We should help those who are in trouble-o-rouble.\u007F1\u0000\u0007"
  5: 0x0051 [0x23] WAIT_FOR_DIALOG_INTERACTION
  6: 0x0052 [0x66] LOAD_EXT_SCHEDULER_MAIN(work_offset=40*, entity1=EventEntity, entity2=EventEntity, action="tlk0")
  7: 0x0061 [0x1D] PRINT_EVENT_MESSAGE(message_id=9613*)
    → "I bet the people of Aht Urhgan have problems-o-roblems. You should become a mercenary and help them-o-em out!\u007F1\u0000\u0007"
  8: 0x0064 [0x23] WAIT_FOR_DIALOG_INTERACTION
  9: 0x0065 [0x66] LOAD_EXT_SCHEDULER_MAIN(work_offset=40*, entity1=EventEntity, entity2=EventEntity, action="tlk1")
 10: 0x0074 [0x21] END_EVENT
 11: 0x0075 [0x00] END_REQSTACK()
```
