# Event 65535

## Metadata

| Field           | Value    |
|-----------------|----------|
| Event Index     | 8/23     |
| Offset          | 0x0052   |
| Data Size       | 52 bytes |
| Calculated Size | 52 bytes |
| Instructions    | 12       |

```
      00 01 02 03 04 05 06 07  08 09 0A 0B 0C 0D 0E 0F
      -- -- -- -- -- -- -- --  -- -- -- -- -- -- -- --
0050:       32 07 80 1F 00 08  80 09 80 0A 80 1F 01 39    2............9
0060: 0B 80 1C 0C 80 66 03 80  F8 FF FF 7F F8 FF FF 7F  .....f..........
0070: 74 6C 6B 30 1D 0D 80 23  1C 05 80 1F 00 0E 80 0F  tlk0...#........
0080: 80 10 80 1F 01 00                                 ......          
```

## Opcodes

```
  0: 0x0052 [0x32] ExtData[1]->MainSpeed = 75* * 0.1
  1: 0x0055 [0x1F] MOVE_ENTITY: EventEntity moves to X=-264.409*, Z=133.042*, Y=21.774*
  2: 0x005D [0x1F] MOVE_ENTITY: Update entity position (mode=1)
  3: 0x005F [0x39] SET_ENTITY_DIRECTION(direction=12.2°*)
  4: 0x0062 [0x1C] WAIT(60* ticks)
  5: 0x0065 [0x66] LOAD_EXT_SCHEDULER_MAIN(work_offset=20*, entity1=EventEntity, entity2=EventEntity, action="tlk0")
  6: 0x0074 [0x1D] PRINT_EVENT_MESSAGE(message_id=7416*)
    → "Hey! Come take a look at this! Quickly!\u007F1\u0000\u0007"
  7: 0x0077 [0x23] WAIT_FOR_DIALOG_INTERACTION
  8: 0x0078 [0x1C] WAIT(30* ticks)
  9: 0x007B [0x1F] MOVE_ENTITY: EventEntity moves to X=-261.936*, Z=127.610*, Y=23.144*
 10: 0x0083 [0x1F] MOVE_ENTITY: Update entity position (mode=1)
 11: 0x0085 [0x00] END_REQSTACK()
```
