# Event 206

## Metadata

| Field           | Value    |
|-----------------|----------|
| Event Index     | 5/10     |
| Offset          | 0x0DC9   |
| Data Size       | 48 bytes |
| Calculated Size | 48 bytes |
| Instructions    | 10       |

```
      00 01 02 03 04 05 06 07  08 09 0A 0B 0C 0D 0E 0F
      -- -- -- -- -- -- -- --  -- -- -- -- -- -- -- --
0DC0:                             1A 61 0F 66 22 80 0D           .a.f"..
0DD0: D0 0E 01 0D D0 0E 01 74  6C 6B 30 2B 0D D0 0E 01  .......tlk0+....
0DE0: 58 80 23 2B 0D D0 0E 01  59 80 23 6B 69 64 6C 30  X.#+....Y.#kidl0
0DF0: 0D D0 0E 01 1A 12 11 21  00                       .......!.       
```

## Opcodes

```
  0: 0x0DC9 [0x1A] CALL_SUBROUTINE(address=0x0F61)
  1: 0x0DCC [0x66] LOAD_EXT_SCHEDULER_MAIN: Load scheduler "tlk0" with entities [Riault (ID: 17747981/0x010ED00D), Riault (ID: 17747981/0x010ED00D)], work=20*
  2: 0x0DDB [0x2B] Riault (ID: 17747981/0x010ED00D) [7688*]:
    → "We need to find out who or what is rallying the beastmen, and at the same time make it look like we are cooperating with Bastok.\u007F1\u0000\u0007"
  3: 0x0DE2 [0x23] WAIT_FOR_DIALOG_INTERACTION
  4: 0x0DE3 [0x2B] Riault (ID: 17747981/0x010ED00D) [7689*]:
    → "That is why we need you to go investigate the Palborough Mines. They were once the property of Bastok...but these days, no sane Bastoker would come within a malm of it, given the choice.\u007F1\u0000\u0007"
  5: 0x0DEA [0x23] WAIT_FOR_DIALOG_INTERACTION
  6: 0x0DEB [0x6B] STOP_AND_IDLE: Riault (ID: 17747981/0x010ED00D) stops current action and resets to idle (animation="idl0")
  7: 0x0DF4 [0x1A] CALL_SUBROUTINE(address=0x1112)
  8: 0x0DF7 [0x21] END_EVENT
  9: 0x0DF8 [0x00] END_REQSTACK()
```
