# Event 275

## Metadata

| Field           | Value    |
|-----------------|----------|
| Event Index     | 9/9      |
| Offset          | 0x01F5   |
| Data Size       | 29 bytes |
| Calculated Size | 29 bytes |
| Instructions    | 13       |

```
      00 01 02 03 04 05 06 07  08 09 0A 0B 0C 0D 0E 0F
      -- -- -- -- -- -- -- --  -- -- -- -- -- -- -- --
01F0:                42 1E F0  FF FF 7F 1D 23 80 23 1D       B......#.#.
0200: 24 80 23 1D 25 80 23 1D  26 80 23 03 01 10 0F 80  $.#.%.#.&.#.....
0210: 21 00                                             !.              
```

## Opcodes

```
  0: 0x01F5 [0x42] SET_CLI_EVENT_CANCEL_DATA()
  1: 0x01F6 [0x1E] EventEntity looks at LocalPlayer and starts talking
  2: 0x01FB [0x1D] PRINT_EVENT_MESSAGE(message_id=12260*)
    → "Well, could a day for greeting visitors be any gloomier?\u0007What can I do for you?\u007F1\u0000\u0007"
  3: 0x01FE [0x23] WAIT_FOR_DIALOG_INTERACTION
  4: 0x01FF [0x1D] PRINT_EVENT_MESSAGE(message_id=12261*)
    → "Anastase told you to bring me something?\u0007Great--not like it will divert my attention from this monotony for long, though.\u007F1\u0000\u0007"
  5: 0x0202 [0x23] WAIT_FOR_DIALOG_INTERACTION
  6: 0x0203 [0x1D] PRINT_EVENT_MESSAGE(message_id=12262*)
    → "Other than keeping the waypoints in check, there's not much for me to do out here. Just the same tired routine, week after week...\u007F1\u0000\u0007"
  7: 0x0206 [0x23] WAIT_FOR_DIALOG_INTERACTION
  8: 0x0207 [0x1D] PRINT_EVENT_MESSAGE(message_id=12263*)
    → "Tell him that things are going well, but that I really need a break.\u007F1\u0000\u0007"
  9: 0x020A [0x23] WAIT_FOR_DIALOG_INTERACTION
 10: 0x020B [0x03] Work_Zone[1] = 1*
 11: 0x0210 [0x21] END_EVENT
 12: 0x0211 [0x00] END_REQSTACK()
```
