# Event 1002

## Metadata

| Field           | Value    |
|-----------------|----------|
| Event Index     | 6/6      |
| Offset          | 0x03BD   |
| Data Size       | 63 bytes |
| Calculated Size | 63 bytes |
| Instructions    | 13       |

```
      00 01 02 03 04 05 06 07  08 09 0A 0B 0C 0D 0E 0F
      -- -- -- -- -- -- -- --  -- -- -- -- -- -- -- --
03B0:                                         20 01 42                .B
03C0: 45 33 80 F0 FF FF 7F F0  FF FF 7F 77 68 6F 31 01  E3.........who1.
03D0: 80 1C 30 80 47 00 27 80  11 80 12 80 01 80 47 01  ..0.G.'.......G.
03E0: 1C 30 80 45 33 80 F0 FF  FF 7F F0 FF FF 7F 77 68  .0.E3.........wh
03F0: 69 31 01 80 1C 30 80 2E  20 00 21 00              i1...0.. .!.    
```

## Opcodes

```
  0: 0x03BD [0x20] SET_CLI_EVENT_UC_FLAG: Lock player control
  1: 0x03BF [0x42] SET_CLI_EVENT_CANCEL_DATA()
  2: 0x03C0 [0x45] LOAD_SCHEDULED_TASK(work_offset1=201*, entity1=LocalPlayer, entity2=LocalPlayer, scheduler_id="who1", work_offset2=0*)
  3: 0x03D1 [0x1C] WAIT(60* ticks)
  4: 0x03D4 [0x47] UPDATE_PLAYER_POS(-820.000*, 780.000*, -30.500*, yaw=0.0°*)
  5: 0x03DE [0x47] WAIT_PLAYER_POS_UPDATE
  6: 0x03E0 [0x1C] WAIT(60* ticks)
  7: 0x03E3 [0x45] LOAD_SCHEDULED_TASK(work_offset1=201*, entity1=LocalPlayer, entity2=LocalPlayer, scheduler_id="whi1", work_offset2=0*)
  8: 0x03F4 [0x1C] WAIT(60* ticks)
  9: 0x03F7 [0x2E] SET_CLI_EVENT_CANCEL_FLAGS()
 10: 0x03F8 [0x20] SET_CLI_EVENT_UC_FLAG: Unlock player control
 11: 0x03FA [0x21] END_EVENT
 12: 0x03FB [0x00] END_REQSTACK()
```
