# Event 864

## Metadata

| Field           | Value    |
|-----------------|----------|
| Event Index     | 74/80    |
| Offset          | 0x0636   |
| Data Size       | 33 bytes |
| Calculated Size | 33 bytes |
| Instructions    | 12       |

```
      00 01 02 03 04 05 06 07  08 09 0A 0B 0C 0D 0E 0F
      -- -- -- -- -- -- -- --  -- -- -- -- -- -- -- --
0630:                   1E F0  FF FF 7F 6F 70 29 08 BA        .....op)..
0640: 11 0F 01 01 1D 23 80 23  1D 24 80 23 29 08 BA 11  .....#.#.$.#)...
0650: 0F 01 02 20 00 21 00                              ... .!.         
```

## Opcodes

```
  0: 0x0636 [0x1E] EventEntity looks at LocalPlayer and starts talking
  1: 0x063B [0x6F] WAIT_FRAME_DELAY: Yield until WaitTime reaches zero
  2: 0x063C [0x70] WAIT_ENTITY_RENDER_FLAG: Wait while EventEntity->Render.Flags3 bit 2 is set (cancel turn if not)
  3: 0x063D [0x29] REQ_SET_WAIT(priority=0x08, entity_id=Wetata (ID: 17764794/0x010F11BA), tag_num=0x01)
  4: 0x0644 [0x1D] PRINT_EVENT_MESSAGE(message_id=14061*)
    → "Not only am I irresistible, but I'm also good with directions-wections! Just head north from here to Windurst Walls, look for the big tree, and follow the path there!\u007F1\u0000\u0007"
  5: 0x0647 [0x23] WAIT_FOR_DIALOG_INTERACTION
  6: 0x0648 [0x1D] PRINT_EVENT_MESSAGE(message_id=14062*)
    → "You're looking for a foul-mouthed Tarutaru named Kupipi. She might have a bit of a hot streak, but she'll be able to provide you with an explanation-wation almost as stupendous as my own!\u007F1\u0000\u0007"
  7: 0x064B [0x23] WAIT_FOR_DIALOG_INTERACTION
  8: 0x064C [0x29] REQ_SET_WAIT(priority=0x08, entity_id=Wetata (ID: 17764794/0x010F11BA), tag_num=0x02)
  9: 0x0653 [0x20] SET_CLI_EVENT_UC_FLAG: Unlock player control
 10: 0x0655 [0x21] END_EVENT
 11: 0x0656 [0x00] END_REQSTACK()
```
