# Event 65535

## Metadata

| Field           | Value    |
|-----------------|----------|
| Event Index     | 35/43    |
| Offset          | 0x01E6   |
| Data Size       | 56 bytes |
| Calculated Size | 56 bytes |
| Instructions    | 12       |

```
      00 01 02 03 04 05 06 07  08 09 0A 0B 0C 0D 0E 0F
      -- -- -- -- -- -- -- --  -- -- -- -- -- -- -- --
01E0:                   32 0C  80 1F 00 46 80 47 80 48        2....F.G.H
01F0: 80 1F 01 32 07 80 1F 00  49 80 4A 80 48 80 1F 01  ...2....I.J.H...
0200: 32 4B 80 1F 00 4C 80 4D  80 48 80 1F 01 6F 5B 4E  2K...L.M.H...o[N
0210: 80 D7 20 03 01 D7 20 03  01 64 65 64 30 00        .. ... ..ded0.  
```

## Opcodes

```
  0: 0x01E6 [0x32] ExtData[1]->MainSpeed = 10* * 0.1
  1: 0x01E9 [0x1F] MOVE_ENTITY: EventEntity moves to X=17.474*, Z=62.533*, Y=-5.999*
  2: 0x01F1 [0x1F] MOVE_ENTITY: Update entity position (mode=1)
  3: 0x01F3 [0x32] ExtData[1]->MainSpeed = 11* * 0.1
  4: 0x01F6 [0x1F] MOVE_ENTITY: EventEntity moves to X=16.213*, Z=62.919*, Y=-5.999*
  5: 0x01FE [0x1F] MOVE_ENTITY: Update entity position (mode=1)
  6: 0x0200 [0x32] ExtData[1]->MainSpeed = 9* * 0.1
  7: 0x0203 [0x1F] MOVE_ENTITY: EventEntity moves to X=13.928*, Z=61.063*, Y=-5.999*
  8: 0x020B [0x1F] MOVE_ENTITY: Update entity position (mode=1)
  9: 0x020D [0x6F] WAIT_FRAME_DELAY: Yield until WaitTime reaches zero
 10: 0x020E [0x5B] LOAD_EXT_SCHEDULER(work_offset=181*, entity1=King of Hearts (ID: 16982231/0x010320D7), entity2=King of Hearts (ID: 16982231/0x010320D7), action="ded0")
 11: 0x021D [0x00] END_REQSTACK()
```
