# Event 65535

## Metadata

| Field           | Value    |
|-----------------|----------|
| Event Index     | 4/9      |
| Offset          | 0x0017   |
| Data Size       | 78 bytes |
| Calculated Size | 78 bytes |
| Instructions    | 8        |

```
      00 01 02 03 04 05 06 07  08 09 0A 0B 0C 0D 0E 0F
      -- -- -- -- -- -- -- --  -- -- -- -- -- -- -- --
0010:                      9F  03 80 73 10 01 01 73 10         ...s...s.
0020: 01 01 73 74 72 30 02 80  1C 04 80 9F 03 80 76 10  ..str0........v.
0030: 01 01 76 10 01 01 73 74  72 30 02 80 1C 05 80 9F  ..v...str0......
0040: 03 80 75 10 01 01 75 10  01 01 73 74 72 30 02 80  ..u...u...str0..
0050: 1C 06 80 9F 03 80 74 10  01 01 74 10 01 01 73 74  ......t...t...st
0060: 72 30 02 80 00                                    r0...           
```

## Opcodes

```
  0: 0x0017 [0x9F] LOAD_SCHEDULED_TASK_ALT: Load scheduler "str0" with entities [Unnamed NPC (ID: 16846963/0x01011073), Unnamed NPC (ID: 16846963/0x01011073)], work=[94*, 0*]
  1: 0x0028 [0x1C] WAIT(15* ticks)
  2: 0x002B [0x9F] LOAD_SCHEDULED_TASK_ALT: Load scheduler "str0" with entities [Unnamed NPC (ID: 16846966/0x01011076), Unnamed NPC (ID: 16846966/0x01011076)], work=[94*, 0*]
  3: 0x003C [0x1C] WAIT(6* ticks)
  4: 0x003F [0x9F] LOAD_SCHEDULED_TASK_ALT: Load scheduler "str0" with entities [Unnamed NPC (ID: 16846965/0x01011075), Unnamed NPC (ID: 16846965/0x01011075)], work=[94*, 0*]
  5: 0x0050 [0x1C] WAIT(9* ticks)
  6: 0x0053 [0x9F] LOAD_SCHEDULED_TASK_ALT: Load scheduler "str0" with entities [Unnamed NPC (ID: 16846964/0x01011074), Unnamed NPC (ID: 16846964/0x01011074)], work=[94*, 0*]
  7: 0x0064 [0x00] END_REQSTACK()
```
