# Event 65535

## Metadata

| Field           | Value    |
|-----------------|----------|
| Event Index     | 10/11    |
| Offset          | 0x0087   |
| Data Size       | 58 bytes |
| Calculated Size | 58 bytes |
| Instructions    | 11       |

```
      00 01 02 03 04 05 06 07  08 09 0A 0B 0C 0D 0E 0F
      -- -- -- -- -- -- -- --  -- -- -- -- -- -- -- --
0080:                      03  00 00 12 80 03 01 00 13         .........
0090: 80 03 02 00 14 80 02 00  00 15 80 03 C0 00 07 00  ................
00A0: 00 16 80 07 01 00 17 80  07 02 00 18 80 BA 47 93  ..............G.
00B0: 05 01 00 00 01 00 02 00  19 80 1C 09 80 01 96 00  ................
00C0: 00                                                .               
```

## Opcodes

```
  0: 0x0087 [0x03] ExtData[1]->WorkLocal[0] = 84511*
  1: 0x008C [0x03] ExtData[1]->WorkLocal[1] = 4294768920*
  2: 0x0091 [0x03] ExtData[1]->WorkLocal[2] = 4294882111*
  3: 0x0096 [0x02] IF !(ExtData[1]->WorkLocal[0] >= 110000*) GOTO 0x00C0
  4: 0x009E [0x07] ExtData[1]->WorkLocal[0] += 333*
  5: 0x00A3 [0x07] ExtData[1]->WorkLocal[1] += 444*
  6: 0x00A8 [0x07] ExtData[1]->WorkLocal[2] += 150*
  7: 0x00AD [0xBA] SET_ENTITY_POSITION(entity_id=References[17109831], pos_x=ExtData[1]->WorkLocal[0], pos_z=ExtData[1]->WorkLocal[1], pos_y=ExtData[1]->WorkLocal[2], direction=307.6°*)
  8: 0x00BA [0x1C] WAIT(1* ticks)
  9: 0x00BD [0x01] GOTO 0x0096
 10: 0x00C0 [0x00] END_REQSTACK()
```
