# Event 65535

## Metadata

| Field           | Value    |
|-----------------|----------|
| Event Index     | 8/11     |
| Offset          | 0x0013   |
| Data Size       | 58 bytes |
| Calculated Size | 58 bytes |
| Instructions    | 11       |

```
      00 01 02 03 04 05 06 07  08 09 0A 0B 0C 0D 0E 0F
      -- -- -- -- -- -- -- --  -- -- -- -- -- -- -- --
0010:          03 00 00 01 80  03 01 00 02 80 03 02 00     .............
0020: 03 80 02 00 00 04 80 03  4C 00 07 00 00 05 80 07  ........L.......
0030: 01 00 06 80 07 02 00 07  80 BA 47 93 05 01 00 00  ..........G.....
0040: 01 00 02 00 08 80 1C 09  80 01 22 00 00           .........."..   
```

## Opcodes

```
  0: 0x0013 [0x03] ExtData[1]->WorkLocal[0] = 4294785267*
  1: 0x0018 [0x03] ExtData[1]->WorkLocal[1] = 4294600171*
  2: 0x001D [0x03] ExtData[1]->WorkLocal[2] = 4294932297*
  3: 0x0022 [0x02] IF !(ExtData[1]->WorkLocal[0] >= 4294822597*) GOTO 0x004C
  4: 0x002A [0x07] ExtData[1]->WorkLocal[0] += 210*
  5: 0x002F [0x07] ExtData[1]->WorkLocal[1] += 280*
  6: 0x0034 [0x07] ExtData[1]->WorkLocal[2] += 85*
  7: 0x0039 [0xBA] SET_ENTITY_POSITION(entity_id=Odzmanouk (ID: 17142599/0x01059347), pos_x=ExtData[1]->WorkLocal[0], pos_z=ExtData[1]->WorkLocal[1], pos_y=ExtData[1]->WorkLocal[2], direction=304.1°*)
  8: 0x0046 [0x1C] WAIT(1* ticks)
  9: 0x0049 [0x01] GOTO 0x0022
 10: 0x004C [0x00] END_REQSTACK()
```
