# Event 65535

## Metadata

| Field           | Value    |
|-----------------|----------|
| Event Index     | 9/11     |
| Offset          | 0x004D   |
| Data Size       | 58 bytes |
| Calculated Size | 58 bytes |
| Instructions    | 11       |

```
      00 01 02 03 04 05 06 07  08 09 0A 0B 0C 0D 0E 0F
      -- -- -- -- -- -- -- --  -- -- -- -- -- -- -- --
0040:                                         03 00 00               ...
0050: 0A 80 03 01 00 0B 80 03  02 00 0C 80 02 00 00 0D  ................
0060: 80 03 86 00 07 00 00 0E  80 07 01 00 0F 80 08 02  ................
0070: 00 10 80 BA 47 93 05 01  00 00 01 00 02 00 11 80  ....G...........
0080: 1C 09 80 01 5C 00 00                              ....\..         
```

## Opcodes

```
  0: 0x004D [0x03] ExtData[1]->WorkLocal[0] = 4294819670*
  1: 0x0052 [0x03] ExtData[1]->WorkLocal[1] = 4294631176*
  2: 0x0057 [0x03] ExtData[1]->WorkLocal[2] = 4294926617*
  3: 0x005C [0x02] IF !(ExtData[1]->WorkLocal[0] >= 0*) GOTO 0x0086
  4: 0x0064 [0x07] ExtData[1]->WorkLocal[0] += 462*
  5: 0x0069 [0x07] ExtData[1]->WorkLocal[1] += 231*
  6: 0x006E [0x08] ExtData[1]->WorkLocal[2] -= 25*
  7: 0x0073 [0xBA] SET_ENTITY_POSITION(entity_id=Odzmanouk (ID: 17142599/0x01059347), pos_x=ExtData[1]->WorkLocal[0], pos_z=ExtData[1]->WorkLocal[1], pos_y=ExtData[1]->WorkLocal[2], direction=315.5°*)
  8: 0x0080 [0x1C] WAIT(1* ticks)
  9: 0x0083 [0x01] GOTO 0x005C
 10: 0x0086 [0x00] END_REQSTACK()
```
