# Event 15

## Metadata

| Field           | Value    |
|-----------------|----------|
| Event Index     | 11/43    |
| Offset          | 0x01C2   |
| Data Size       | 81 bytes |
| Calculated Size | 81 bytes |
| Instructions    | 10       |

```
      00 01 02 03 04 05 06 07  08 09 0A 0B 0C 0D 0E 0F
      -- -- -- -- -- -- -- --  -- -- -- -- -- -- -- --
01C0:       20 01 42 45 00 80  F0 FF FF 7F F0 FF FF 7F     .BE..........
01D0: 66 64 6F 30 01 80 55 00  80 F0 FF FF 7F F0 FF FF  fdo0..U.........
01E0: 7F 66 64 6F 30 47 00 09  80 0A 80 0B 80 0C 80 47  .fdo0G.........G
01F0: 01 45 00 80 F0 FF FF 7F  F0 FF FF 7F 66 64 69 30  .E..........fdi0
0200: 01 80 55 00 80 F0 FF FF  7F F0 FF FF 7F 66 64 69  ..U..........fdi
0210: 30 21 00                                          0!.             
```

## Opcodes

```
  0: 0x01C2 [0x20] SET_CLI_EVENT_UC_FLAG: Lock player control
  1: 0x01C4 [0x42] SET_CLI_EVENT_CANCEL_DATA()
  2: 0x01C5 [0x45] LOAD_SCHEDULED_TASK(work_offset1=200*, entity1=LocalPlayer, entity2=LocalPlayer, scheduler_id="fdo0", work_offset2=0*)
  3: 0x01D6 [0x55] WAIT_LOAD_SCHEDULER(work_offset=200*, entity1=LocalPlayer, entity2=LocalPlayer, scheduler_id="fdo0")
  4: 0x01E5 [0x47] UPDATE_PLAYER_POS(489.763*, 708.851*, -3.003*, yaw=269.3°*)
  5: 0x01EF [0x47] WAIT_PLAYER_POS_UPDATE
  6: 0x01F1 [0x45] LOAD_SCHEDULED_TASK(work_offset1=200*, entity1=LocalPlayer, entity2=LocalPlayer, scheduler_id="fdi0", work_offset2=0*)
  7: 0x0202 [0x55] WAIT_LOAD_SCHEDULER(work_offset=200*, entity1=LocalPlayer, entity2=LocalPlayer, scheduler_id="fdi0")
  8: 0x0211 [0x21] END_EVENT
  9: 0x0212 [0x00] END_REQSTACK()
```
