# Event 17

## Metadata

| Field           | Value    |
|-----------------|----------|
| Event Index     | 14/43    |
| Offset          | 0x02B0   |
| Data Size       | 81 bytes |
| Calculated Size | 81 bytes |
| Instructions    | 10       |

```
      00 01 02 03 04 05 06 07  08 09 0A 0B 0C 0D 0E 0F
      -- -- -- -- -- -- -- --  -- -- -- -- -- -- -- --
02B0: 20 01 42 45 00 80 F0 FF  FF 7F F0 FF FF 7F 66 64   .BE..........fd
02C0: 6F 30 01 80 55 00 80 F0  FF FF 7F F0 FF FF 7F 66  o0..U..........f
02D0: 64 6F 30 47 00 0D 80 0E  80 0F 80 10 80 47 01 45  do0G.........G.E
02E0: 00 80 F0 FF FF 7F F0 FF  FF 7F 66 64 69 30 01 80  ..........fdi0..
02F0: 55 00 80 F0 FF FF 7F F0  FF FF 7F 66 64 69 30 21  U..........fdi0!
0300: 00                                                .               
```

## Opcodes

```
  0: 0x02B0 [0x20] SET_CLI_EVENT_UC_FLAG: Lock player control
  1: 0x02B2 [0x42] SET_CLI_EVENT_CANCEL_DATA()
  2: 0x02B3 [0x45] LOAD_SCHEDULED_TASK(work_offset1=200*, entity1=LocalPlayer, entity2=LocalPlayer, scheduler_id="fdo0", work_offset2=0*)
  3: 0x02C4 [0x55] WAIT_LOAD_SCHEDULER(work_offset=200*, entity1=LocalPlayer, entity2=LocalPlayer, scheduler_id="fdo0")
  4: 0x02D3 [0x47] UPDATE_PLAYER_POS(-393.358*, -387.582*, -3.000*, yaw=271.7°*)
  5: 0x02DD [0x47] WAIT_PLAYER_POS_UPDATE
  6: 0x02DF [0x45] LOAD_SCHEDULED_TASK(work_offset1=200*, entity1=LocalPlayer, entity2=LocalPlayer, scheduler_id="fdi0", work_offset2=0*)
  7: 0x02F0 [0x55] WAIT_LOAD_SCHEDULER(work_offset=200*, entity1=LocalPlayer, entity2=LocalPlayer, scheduler_id="fdi0")
  8: 0x02FF [0x21] END_EVENT
  9: 0x0300 [0x00] END_REQSTACK()
```
