# Event 252

## Metadata

| Field           | Value    |
|-----------------|----------|
| Event Index     | 4/6      |
| Offset          | 0x0046   |
| Data Size       | 43 bytes |
| Calculated Size | 43 bytes |
| Instructions    | 12       |

```
      00 01 02 03 04 05 06 07  08 09 0A 0B 0C 0D 0E 0F
      -- -- -- -- -- -- -- --  -- -- -- -- -- -- -- --
0040:                   20 01  42 1E F0 FF FF 7F 1C 00         .B.......
0050: 80 1D 0A 80 23 03 02 10  06 80 1D 0B 80 23 45 0C  ....#........#E.
0060: 80 F0 FF FF 7F F0 FF FF  7F 71 73 74 63 0D 80 21  .........qstc..!
0070: 00                                                .               
```

## Opcodes

```
  0: 0x0046 [0x20] SET_CLI_EVENT_UC_FLAG: Lock player control
  1: 0x0048 [0x42] SET_CLI_EVENT_CANCEL_DATA()
  2: 0x0049 [0x1E] EventEntity looks at LocalPlayer and starts talking
  3: 0x004E [0x1C] WAIT(20* ticks)
  4: 0x0051 [0x1D] PRINT_EVENT_MESSAGE(message_id=7990*)
    → "Yes! This is just what I need to conductaru a review session for my students.\u0007However can I thank you?\u007F1\u0000\u0007"
  5: 0x0054 [0x23] WAIT_FOR_DIALOG_INTERACTION
  6: 0x0055 [0x03] Work_Zone[2] = 2975*
  7: 0x005A [0x1D] PRINT_EVENT_MESSAGE(message_id=7991*)
    → "Why, I know! Here, you can have this.\u0007If you ever find any more \u0001\u0005%\u0002\u0000\u0000\u0000, don't hesitataru to bring them here. Remember, it's for a wonderful cause!\u007F1\u0000\u0007"
  8: 0x005D [0x23] WAIT_FOR_DIALOG_INTERACTION
  9: 0x005E [0x45] LOAD_SCHEDULED_TASK(work_offset1=201*, entity1=LocalPlayer, entity2=LocalPlayer, scheduler_id="qstc", work_offset2=0*)
 10: 0x006F [0x21] END_EVENT
 11: 0x0070 [0x00] END_REQSTACK()
```
