# Event 143

## Metadata

| Field           | Value    |
|-----------------|----------|
| Event Index     | 35/55    |
| Offset          | 0x02FC   |
| Data Size       | 33 bytes |
| Calculated Size | 33 bytes |
| Instructions    | 12       |

```
      00 01 02 03 04 05 06 07  08 09 0A 0B 0C 0D 0E 0F
      -- -- -- -- -- -- -- --  -- -- -- -- -- -- -- --
02F0:                                      1E F0 FF FF              ....
0300: 7F 6F 70 29 08 0C F0 0E  01 01 1D 20 80 23 1D 21  .op)....... .#.!
0310: 80 23 29 08 0C F0 0E 01  02 20 00 21 00           .#)...... .!.   
```

## Opcodes

```
  0: 0x02FC [0x1E] EventEntity looks at LocalPlayer and starts talking
  1: 0x0301 [0x6F] WAIT_FRAME_DELAY: Yield until WaitTime reaches zero
  2: 0x0302 [0x70] WAIT_ENTITY_RENDER_FLAG: Wait while EventEntity->Render.Flags3 bit 2 is set (cancel turn if not)
  3: 0x0303 [0x29] REQ_SET_WAIT(priority=0x08, entity_id=Pakke-Pokke (ID: 17756172/0x010EF00C), tag_num=0x01)
  4: 0x030A [0x1D] PRINT_EVENT_MESSAGE(message_id=7414*)
    → "When I was selected to serve as a guard in front of Heavens Tower, I was over the moon-boon! Just the thought of becoming friend-priends with all those ladies-in-waiting...Hum-hmm...\u007F1\u0000\u0007"
  5: 0x030D [0x23] WAIT_FOR_DIALOG_INTERACTION
  6: 0x030E [0x1D] PRINT_EVENT_MESSAGE(message_id=7415*)
    → "That dream was soon shattered-splattered when mean old Zubaba cracked down on the young ladies-in-waiting going outside. It brings tears to my eyes-cries!\u007F1\u0000\u0007"
  7: 0x0311 [0x23] WAIT_FOR_DIALOG_INTERACTION
  8: 0x0312 [0x29] REQ_SET_WAIT(priority=0x08, entity_id=Pakke-Pokke (ID: 17756172/0x010EF00C), tag_num=0x02)
  9: 0x0319 [0x20] SET_CLI_EVENT_UC_FLAG: Unlock player control
 10: 0x031B [0x21] END_EVENT
 11: 0x031C [0x00] END_REQSTACK()
```
