# Event 147

## Metadata

| Field           | Value    |
|-----------------|----------|
| Event Index     | 36/55    |
| Offset          | 0x031D   |
| Data Size       | 33 bytes |
| Calculated Size | 33 bytes |
| Instructions    | 12       |

```
      00 01 02 03 04 05 06 07  08 09 0A 0B 0C 0D 0E 0F
      -- -- -- -- -- -- -- --  -- -- -- -- -- -- -- --
0310:                                         1E F0 FF               ...
0320: FF 7F 6F 70 29 08 0C F0  0E 01 01 1D 22 80 23 1D  ..op).......".#.
0330: 23 80 23 29 08 0C F0 0E  01 02 20 00 21 00        #.#)...... .!.  
```

## Opcodes

```
  0: 0x031D [0x1E] EventEntity looks at LocalPlayer and starts talking
  1: 0x0322 [0x6F] WAIT_FRAME_DELAY: Yield until WaitTime reaches zero
  2: 0x0323 [0x70] WAIT_ENTITY_RENDER_FLAG: Wait while EventEntity->Render.Flags3 bit 2 is set (cancel turn if not)
  3: 0x0324 [0x29] REQ_SET_WAIT(priority=0x08, entity_id=Pakke-Pokke (ID: 17756172/0x010EF00C), tag_num=0x01)
  4: 0x032B [0x1D] PRINT_EVENT_MESSAGE(message_id=7423*)
    → "I'm not the least bit jealous-mealous! I've delivered a document with the star emblem on it to the minister-pinister of the Orastery before.\u007F1\u0000\u0007"
  5: 0x032E [0x23] WAIT_FOR_DIALOG_INTERACTION
  6: 0x032F [0x1D] PRINT_EVENT_MESSAGE(message_id=7424*)
    → "I can remember I was so nervous-dervous back then. I was in a cold sweat at the thought of what punishment-bunishment would await me if I lost the darned thing.\u007F1\u0000\u0007"
  7: 0x0332 [0x23] WAIT_FOR_DIALOG_INTERACTION
  8: 0x0333 [0x29] REQ_SET_WAIT(priority=0x08, entity_id=Pakke-Pokke (ID: 17756172/0x010EF00C), tag_num=0x02)
  9: 0x033A [0x20] SET_CLI_EVENT_UC_FLAG: Unlock player control
 10: 0x033C [0x21] END_EVENT
 11: 0x033D [0x00] END_REQSTACK()
```
