# Event 151

## Metadata

| Field           | Value    |
|-----------------|----------|
| Event Index     | 37/55    |
| Offset          | 0x033E   |
| Data Size       | 33 bytes |
| Calculated Size | 33 bytes |
| Instructions    | 12       |

```
      00 01 02 03 04 05 06 07  08 09 0A 0B 0C 0D 0E 0F
      -- -- -- -- -- -- -- --  -- -- -- -- -- -- -- --
0330:                                            1E F0                ..
0340: FF FF 7F 6F 70 29 08 0C  F0 0E 01 01 1D 24 80 23  ...op).......$.#
0350: 1D 25 80 23 29 08 0C F0  0E 01 02 20 00 21 00     .%.#)...... .!. 
```

## Opcodes

```
  0: 0x033E [0x1E] EventEntity looks at LocalPlayer and starts talking
  1: 0x0343 [0x6F] WAIT_FRAME_DELAY: Yield until WaitTime reaches zero
  2: 0x0344 [0x70] WAIT_ENTITY_RENDER_FLAG: Wait while EventEntity->Render.Flags3 bit 2 is set (cancel turn if not)
  3: 0x0345 [0x29] REQ_SET_WAIT(priority=0x08, entity_id=Pakke-Pokke (ID: 17756172/0x010EF00C), tag_num=0x01)
  4: 0x034C [0x1D] PRINT_EVENT_MESSAGE(message_id=7430*)
    → "No matter how you look at it, you can't help but conclude something major-dajor is going down in Heavens Tower right now.\u007F1\u0000\u0007"
  5: 0x034F [0x23] WAIT_FOR_DIALOG_INTERACTION
  6: 0x0350 [0x1D] PRINT_EVENT_MESSAGE(message_id=7431*)
    → "The head of the Sibyl Guards, Semih Lafihna, has been going-zoing in and out of here all day. My arms are tired from giving her the Windurstian salute-dalute each time she passes by.\u007F1\u0000\u0007"
  7: 0x0353 [0x23] WAIT_FOR_DIALOG_INTERACTION
  8: 0x0354 [0x29] REQ_SET_WAIT(priority=0x08, entity_id=Pakke-Pokke (ID: 17756172/0x010EF00C), tag_num=0x02)
  9: 0x035B [0x20] SET_CLI_EVENT_UC_FLAG: Unlock player control
 10: 0x035D [0x21] END_EVENT
 11: 0x035E [0x00] END_REQSTACK()
```
