# Event 35

## Metadata

| Field           | Value    |
|-----------------|----------|
| Event Index     | 3/5      |
| Offset          | 0x0037   |
| Data Size       | 44 bytes |
| Calculated Size | 44 bytes |
| Instructions    | 9        |

```
      00 01 02 03 04 05 06 07  08 09 0A 0B 0C 0D 0E 0F
      -- -- -- -- -- -- -- --  -- -- -- -- -- -- -- --
0030:                      3B  F0 FF FF 7F 01 00 02 00         ;........
0040: 03 00 02 02 00 00 80 03  5E 00 4A 2E 60 0F 01 F0  ........^.J.`...
0050: FF FF 7F 2B 2E 60 0F 01  04 80 23 01 61 00 1A 29  ...+.`....#.a..)
0060: 01 21 00                                          .!.             
```

## Opcodes

```
  0: 0x0037 [0x3B] GET_ENTITY_POSITION(entity=LocalPlayer, x_destination=ExtData[1]->WorkLocal[1], y_destination=ExtData[1]->WorkLocal[2], z_destination=ExtData[1]->WorkLocal[3])
  1: 0x0042 [0x02] IF !(ExtData[1]->WorkLocal[2] >= 57800*) GOTO 0x005E
  2: 0x004A [0x4A] Illauvolahaut (ID: 17784878/0x010F602E) looks at LocalPlayer
  3: 0x0053 [0x2B] Illauvolahaut (ID: 17784878/0x010F602E) [7401*]:
    → "This is the departure gate for airship passengers. If you have any questions, please inquire with Guddal.\u007F1\u0000\u0007"
  4: 0x005A [0x23] WAIT_FOR_DIALOG_INTERACTION
  5: 0x005B [0x01] GOTO 0x0061
  6: 0x005E [0x1A] CALL_SUBROUTINE(address=0x0129)

SUBROUTINE_0061:
  7: 0x0061 [0x21] END_EVENT
  8: 0x0062 [0x00] END_REQSTACK()
```
