# Event 65535

## Metadata

| Field           | Value    |
|-----------------|----------|
| Event Index     | 22/132   |
| Offset          | 0x0CEF   |
| Data Size       | 55 bytes |
| Calculated Size | 55 bytes |
| Instructions    | 9        |

```
      00 01 02 03 04 05 06 07  08 09 0A 0B 0C 0D 0E 0F
      -- -- -- -- -- -- -- --  -- -- -- -- -- -- -- --
0CE0:                                               32                 2
0CF0: 00 80 37 A9 80 AA 80 A1  80 AB 80 45 97 80 F0 FF  ..7........E....
0D00: FF 7F F0 FF FF 7F 63 30  35 69 0C 80 1F 00 AC 80  ......c05i......
0D10: AD 80 9A 80 1F 01 1F 00  AE 80 AF 80 9A 80 1F 01  ................
0D20: 1E 31 A0 0E 01 00                                 .1....          
```

## Opcodes

```
  0: 0x0CEF [0x32] ExtData[1]->MainSpeed = 13* * 0.1
  1: 0x0CF2 [0x37] UPDATE_EVENT_POSITION_AND_DIR: x=33.952*, z=-108.811*, y=0.749*, direction=69.4°*
  2: 0x0CFB [0x45] LOAD_SCHEDULED_TASK(work_offset1=202*, entity1=LocalPlayer, entity2=LocalPlayer, scheduler_id="c05i", work_offset2=0*)
  3: 0x0D0C [0x1F] MOVE_ENTITY: EventEntity moves to X=34.046*, Z=-109.870*, Y=1.374*
  4: 0x0D14 [0x1F] MOVE_ENTITY: Update entity position (mode=1)
  5: 0x0D16 [0x1F] MOVE_ENTITY: EventEntity moves to X=34.419*, Z=-110.475*, Y=1.374*
  6: 0x0D1E [0x1F] MOVE_ENTITY: Update entity position (mode=1)
  7: 0x0D20 [0x1E] EventEntity looks at Chocobo (ID: 17735729/0x010EA031) and starts talking
  8: 0x0D25 [0x00] END_REQSTACK()
```
