# Event 65535

## Metadata

| Field           | Value    |
|-----------------|----------|
| Event Index     | 12/132   |
| Offset          | 0x05B9   |
| Data Size       | 53 bytes |
| Calculated Size | 53 bytes |
| Instructions    | 11       |

```
      00 01 02 03 04 05 06 07  08 09 0A 0B 0C 0D 0E 0F
      -- -- -- -- -- -- -- --  -- -- -- -- -- -- -- --
05B0:                             32 00 80 1F 00 50 80           2....P.
05C0: 51 80 52 80 1F 01 27 0A  51 A0 0E 01 03 1F 00 53  Q.R...'.Q......S
05D0: 80 54 80 55 80 1F 01 1F  00 56 80 57 80 55 80 1F  .T.U.....V.W.U..
05E0: 01 27 0A 51 A0 0E 01 04  1E 39 A0 0E 01 00        .'.Q.....9....  
```

## Opcodes

```
  0: 0x05B9 [0x32] ExtData[1]->MainSpeed = 13* * 0.1
  1: 0x05BC [0x1F] MOVE_ENTITY: EventEntity moves to X=14.450*, Z=-12.112*, Y=6.992*
  2: 0x05C4 [0x1F] MOVE_ENTITY: Update entity position (mode=1)
  3: 0x05C6 [0x27] REQ_SET(priority=0x0A, entity_id=Door:House (ID: 17735761/0x010EA051), tag_num=0x03)
  4: 0x05CD [0x1F] MOVE_ENTITY: EventEntity moves to X=13.927*, Z=-8.817*, Y=6.999*
  5: 0x05D5 [0x1F] MOVE_ENTITY: Update entity position (mode=1)
  6: 0x05D7 [0x1F] MOVE_ENTITY: EventEntity moves to X=13.741*, Z=-7.050*, Y=6.999*
  7: 0x05DF [0x1F] MOVE_ENTITY: Update entity position (mode=1)
  8: 0x05E1 [0x27] REQ_SET(priority=0x0A, entity_id=Door:House (ID: 17735761/0x010EA051), tag_num=0x04)
  9: 0x05E8 [0x1E] EventEntity looks at Cornelia (ID: 17735737/0x010EA039) and starts talking
 10: 0x05ED [0x00] END_REQSTACK()
```
