# Event 65535

## Metadata

| Field           | Value    |
|-----------------|----------|
| Event Index     | 18/132   |
| Offset          | 0x0C65   |
| Data Size       | 55 bytes |
| Calculated Size | 55 bytes |
| Instructions    | 9        |

```
      00 01 02 03 04 05 06 07  08 09 0A 0B 0C 0D 0E 0F
      -- -- -- -- -- -- -- --  -- -- -- -- -- -- -- --
0C60:                32 00 80  37 93 80 94 80 95 80 96       2..7.......
0C70: 80 45 97 80 F0 FF FF 7F  F0 FF FF 7F 63 30 35 69  .E..........c05i
0C80: 0C 80 1F 00 98 80 99 80  9A 80 1F 01 1F 00 9B 80  ................
0C90: 9C 80 9A 80 1F 01 1E 2F  A0 0E 01 00              ......./....    
```

## Opcodes

```
  0: 0x0C65 [0x32] ExtData[1]->MainSpeed = 13* * 0.1
  1: 0x0C68 [0x37] UPDATE_EVENT_POSITION_AND_DIR: x=43.855*, z=-108.883*, y=0.750*, direction=99.8°*
  2: 0x0C71 [0x45] LOAD_SCHEDULED_TASK(work_offset1=202*, entity1=LocalPlayer, entity2=LocalPlayer, scheduler_id="c05i", work_offset2=0*)
  3: 0x0C82 [0x1F] MOVE_ENTITY: EventEntity moves to X=43.907*, Z=-110.038*, Y=1.374*
  4: 0x0C8A [0x1F] MOVE_ENTITY: Update entity position (mode=1)
  5: 0x0C8C [0x1F] MOVE_ENTITY: EventEntity moves to X=44.356*, Z=-110.571*, Y=1.374*
  6: 0x0C94 [0x1F] MOVE_ENTITY: Update entity position (mode=1)
  7: 0x0C96 [0x1E] EventEntity looks at Chocobo (ID: 17735727/0x010EA02F) and starts talking
  8: 0x0C9B [0x00] END_REQSTACK()
```
