# Event 65535

## Metadata

| Field           | Value    |
|-----------------|----------|
| Event Index     | 20/132   |
| Offset          | 0x0CAA   |
| Data Size       | 55 bytes |
| Calculated Size | 55 bytes |
| Instructions    | 9        |

```
      00 01 02 03 04 05 06 07  08 09 0A 0B 0C 0D 0E 0F
      -- -- -- -- -- -- -- --  -- -- -- -- -- -- -- --
0CA0:                                32 00 80 37 9F 80            2..7..
0CB0: A0 80 A1 80 A2 80 45 97  80 F0 FF FF 7F F0 FF FF  ......E.........
0CC0: 7F 63 30 35 69 0C 80 1F  00 A3 80 A4 80 9A 80 1F  .c05i...........
0CD0: 01 1F 00 A5 80 A6 80 9A  80 1F 01 1E 30 A0 0E 01  ............0...
0CE0: 00                                                .               
```

## Opcodes

```
  0: 0x0CAA [0x32] ExtData[1]->MainSpeed = 13* * 0.1
  1: 0x0CAD [0x37] UPDATE_EVENT_POSITION_AND_DIR: x=39.159*, z=-108.901*, y=0.749*, direction=115.7°*
  2: 0x0CB6 [0x45] LOAD_SCHEDULED_TASK: Load scheduler "c05i" with entities [LocalPlayer, LocalPlayer], work=[202*, 0*]
  3: 0x0CC7 [0x1F] MOVE_ENTITY: EventEntity moves to X=39.091*, Z=-110.123*, Y=1.374*
  4: 0x0CCF [0x1F] MOVE_ENTITY: Update entity position (mode=1)
  5: 0x0CD1 [0x1F] MOVE_ENTITY: EventEntity moves to X=39.648*, Z=-110.659*, Y=1.374*
  6: 0x0CD9 [0x1F] MOVE_ENTITY: Update entity position (mode=1)
  7: 0x0CDB [0x1E] EventEntity looks at Chocobo (ID: 17735728/0x010EA030) and starts talking
  8: 0x0CE0 [0x00] END_REQSTACK()
```
