# Event 10008

## Metadata

| Field           | Value    |
|-----------------|----------|
| Event Index     | 27/63    |
| Offset          | 0x09E1   |
| Data Size       | 33 bytes |
| Calculated Size | 33 bytes |
| Instructions    | 12       |

```
      00 01 02 03 04 05 06 07  08 09 0A 0B 0C 0D 0E 0F
      -- -- -- -- -- -- -- --  -- -- -- -- -- -- -- --
09E0:    1E F0 FF FF 7F 6F 70  29 08 4D 90 0F 01 02 1D   .....op).M.....
09F0: 33 80 23 1D 34 80 23 29  08 4D 90 0F 01 03 20 00  3.#.4.#).M.... .
0A00: 21 00                                             !.              
```

## Opcodes

```
  0: 0x09E1 [0x1E] EventEntity looks at LocalPlayer and starts talking
  1: 0x09E6 [0x6F] WAIT_FRAME_DELAY: Yield until WaitTime reaches zero
  2: 0x09E7 [0x70] WAIT_ENTITY_RENDER_FLAG: Wait while EventEntity->Render.Flags3 bit 2 is set (cancel turn if not)
  3: 0x09E8 [0x29] REQ_SET_WAIT(priority=0x08, entity_id=Koh Lenbalalako (ID: 17797197/0x010F904D), tag_num=0x02)
  4: 0x09EF [0x1D] PRINT_EVENT_MESSAGE(message_id=7297*)
    → "Most of the old Mithra living near Windurst are of the southern Fire Tribe.\u007F1\u0000\u0007"
  5: 0x09F2 [0x23] WAIT_FOR_DIALOG_INTERACTION
  6: 0x09F3 [0x1D] PRINT_EVENT_MESSAGE(message_id=7298*)
    → "However, they would not harborrr the sinner out of pity. A sin must be atoned for, and this cannot be avoided.\u007F1\u0000\u0007"
  7: 0x09F6 [0x23] WAIT_FOR_DIALOG_INTERACTION
  8: 0x09F7 [0x29] REQ_SET_WAIT(priority=0x08, entity_id=Koh Lenbalalako (ID: 17797197/0x010F904D), tag_num=0x03)
  9: 0x09FE [0x20] SET_CLI_EVENT_UC_FLAG: Unlock player control
 10: 0x0A00 [0x21] END_EVENT
 11: 0x0A01 [0x00] END_REQSTACK()
```
