# Event 10015

## Metadata

| Field           | Value    |
|-----------------|----------|
| Event Index     | 28/63    |
| Offset          | 0x0A02   |
| Data Size       | 33 bytes |
| Calculated Size | 33 bytes |
| Instructions    | 12       |

```
      00 01 02 03 04 05 06 07  08 09 0A 0B 0C 0D 0E 0F
      -- -- -- -- -- -- -- --  -- -- -- -- -- -- -- --
0A00:       1E F0 FF FF 7F 6F  70 29 08 4D 90 0F 01 02    .....op).M....
0A10: 1D 35 80 23 1D 36 80 23  29 08 4D 90 0F 01 03 20  .5.#.6.#).M.... 
0A20: 00 21 00                                          .!.             
```

## Opcodes

```
  0: 0x0A02 [0x1E] EventEntity looks at LocalPlayer and starts talking
  1: 0x0A07 [0x6F] WAIT_FRAME_DELAY: Yield until WaitTime reaches zero
  2: 0x0A08 [0x70] WAIT_ENTITY_RENDER_FLAG: Wait while EventEntity->Render.Flags3 bit 2 is set (cancel turn if not)
  3: 0x0A09 [0x29] REQ_SET_WAIT(priority=0x08, entity_id=Koh Lenbalalako (ID: 17797197/0x010F904D), tag_num=0x02)
  4: 0x0A10 [0x1D] PRINT_EVENT_MESSAGE(message_id=7299*)
    → "It would seem the Mithran Tracker was not satisfied with the way things turned out.\u007F1\u0000\u0007"
  5: 0x0A13 [0x23] WAIT_FOR_DIALOG_INTERACTION
  6: 0x0A14 [0x1D] PRINT_EVENT_MESSAGE(message_id=7300*)
    → "I don't believe she can return home without first discovering the whereabouts of the Bow of Light.\u007F1\u0000\u0007"
  7: 0x0A17 [0x23] WAIT_FOR_DIALOG_INTERACTION
  8: 0x0A18 [0x29] REQ_SET_WAIT(priority=0x08, entity_id=Koh Lenbalalako (ID: 17797197/0x010F904D), tag_num=0x03)
  9: 0x0A1F [0x20] SET_CLI_EVENT_UC_FLAG: Unlock player control
 10: 0x0A21 [0x21] END_EVENT
 11: 0x0A22 [0x00] END_REQSTACK()
```
