# Event 323

## Metadata

| Field           | Value    |
|-----------------|----------|
| Event Index     | 63/63    |
| Offset          | 0x1361   |
| Data Size       | 42 bytes |
| Calculated Size | 42 bytes |
| Instructions    | 13       |

```
      00 01 02 03 04 05 06 07  08 09 0A 0B 0C 0D 0E 0F
      -- -- -- -- -- -- -- --  -- -- -- -- -- -- -- --
1360:    42 1E F0 FF FF 7F 6F  70 29 08 4D 90 0F 01 02   B.....op).M....
1370: 2B 4D 90 0F 01 69 80 23  2B 4D 90 0F 01 6A 80 23  +M...i.#+M...j.#
1380: 29 08 4D 90 0F 01 03 20  00 21 00                 ).M.... .!.     
```

## Opcodes

```
  0: 0x1361 [0x42] SET_CLI_EVENT_CANCEL_DATA()
  1: 0x1362 [0x1E] EventEntity looks at LocalPlayer and starts talking
  2: 0x1367 [0x6F] WAIT_FRAME_DELAY: Yield until WaitTime reaches zero
  3: 0x1368 [0x70] WAIT_ENTITY_RENDER_FLAG: Wait while EventEntity->Render.Flags3 bit 2 is set (cancel turn if not)
  4: 0x1369 [0x29] REQ_SET_WAIT(priority=0x08, entity_id=Koh Lenbalalako (ID: 17797197/0x010F904D), tag_num=0x02)
  5: 0x1370 [0x2B] Koh Lenbalalako (ID: 17797197/0x010F904D) [7691*]:
    → "Why, this brings back memorrries.\u0007The daughters of the Mithran Tracker I met twenty years ago have also chosen the life of the sin hunter.\u007F1\u0000\u0007"
  6: 0x1377 [0x23] WAIT_FOR_DIALOG_INTERACTION
  7: 0x1378 [0x2B] Koh Lenbalalako (ID: 17797197/0x010F904D) [7692*]:
    → "I pray that they, too, find the path of justice.\u007F1\u0000\u0007"
  8: 0x137F [0x23] WAIT_FOR_DIALOG_INTERACTION
  9: 0x1380 [0x29] REQ_SET_WAIT(priority=0x08, entity_id=Koh Lenbalalako (ID: 17797197/0x010F904D), tag_num=0x03)
 10: 0x1387 [0x20] SET_CLI_EVENT_UC_FLAG: Unlock player control
 11: 0x1389 [0x21] END_EVENT
 12: 0x138A [0x00] END_REQSTACK()
```
