# 17871248

## Common Data

| Field            | Value                   |
|------------------|-------------------------|
| Zone             | Kamihr Drifts (ID: 267) |
| Block Size       | 984 bytes               |
| Total Events     | 29                      |
| References Count | 20                      |

## List of Events

| Event ID                   | Entrypoint   |   Size |   Instructions |
|----------------------------|--------------|--------|----------------|
| [65535](#event-65535)      | 0x0000       |      1 |              1 |
| [65535.1](#event-655351)   | 0x0001       |     31 |              3 |
| [65535.2](#event-655352)   | 0x0020       |     31 |              3 |
| [65535.3](#event-655353)   | 0x003F       |     31 |              3 |
| [65535.4](#event-655354)   | 0x005E       |     31 |              3 |
| [65535.5](#event-655355)   | 0x007D       |     31 |              3 |
| [65535.6](#event-655356)   | 0x009C       |     47 |              4 |
| [33](#event-33)            | 0x00CB       |      1 |              1 |
| [65535.7](#event-655357)   | 0x00CC       |     10 |              2 |
| [65535.8](#event-655358)   | 0x00D6       |     10 |              2 |
| [65535.9](#event-655359)   | 0x00E0       |     10 |              2 |
| [65535.10](#event-6553510) | 0x00EA       |     10 |              2 |
| [47](#event-47)            | 0x00F4       |      1 |              1 |
| [51](#event-51)            | 0x00F5       |      1 |              1 |
| [65535.11](#event-6553511) | 0x00F6       |     33 |              3 |
| [65535.12](#event-6553512) | 0x0117       |     33 |              3 |
| [65535.13](#event-6553513) | 0x0138       |     33 |              3 |
| [65535.14](#event-6553514) | 0x0159       |     33 |              3 |
| [65535.15](#event-6553515) | 0x017A       |     33 |              3 |
| [65535.16](#event-6553516) | 0x019B       |     49 |              4 |
| [65535.17](#event-6553517) | 0x01CC       |     49 |              4 |
| [65535.18](#event-6553518) | 0x01FD       |     31 |              3 |
| [65535.19](#event-6553519) | 0x021C       |     33 |              3 |
| [65535.20](#event-6553520) | 0x023D       |     33 |              3 |
| [65535.21](#event-6553521) | 0x025E       |     33 |              3 |
| [65535.22](#event-6553522) | 0x027F       |     33 |              3 |
| [65535.23](#event-6553523) | 0x02A0       |     33 |              3 |
| [65535.24](#event-6553524) | 0x02C1       |     33 |              3 |
| [65535.25](#event-6553525) | 0x02E2       |     33 |              3 |

## DAT References (imed_data)

|   Index | Hex Value   |   Dec Value |
|---------|-------------|-------------|
|       0 | 0x0D7D      |        3453 |
|       1 | 0x0D5A      |        3418 |
|       2 | 0x0D7F      |        3455 |
|       3 | 0x0D81      |        3457 |
|       4 | 0x0D67      |        3431 |
|       5 | 0x0D7E      |        3454 |
|       6 | 0x007F      |         127 |
|       7 | 0x0001      |           1 |
|       8 | 0x0000      |           0 |
|       9 | 0x0D64      |        3428 |
|      10 | 0x0DA2      |        3490 |
|      11 | 0x0DA3      |        3491 |
|      12 | 0x0DA5      |        3493 |
|      13 | 0x0DA4      |        3492 |
|      14 | 0x0D62      |        3426 |
|      15 | 0x0D68      |        3432 |
|      16 | 0x0DE1      |        3553 |
|      17 | 0x0DE2      |        3554 |
|      18 | 0x0DE3      |        3555 |
|      19 | 0x0DE4      |        3556 |

## Events

### Event 65535

#### Metadata

| Field        | Value   |
|--------------|---------|
| Entrypoint   | 0x0000  |
| Data Size    | 1 bytes |
| Instructions | 1       |

```
      00 01 02 03 04 05 06 07  08 09 0A 0B 0C 0D 0E 0F
      -- -- -- -- -- -- -- --  -- -- -- -- -- -- -- --
0000: 00                                                .               
```

#### Opcodes

```
  0: 0x0000 [0x00] END_REQSTACK()
```

### Event 65535.1

#### Metadata

| Field        | Value    |
|--------------|----------|
| Entrypoint   | 0x0001   |
| Data Size    | 31 bytes |
| Instructions | 3        |

```
      00 01 02 03 04 05 06 07  08 09 0A 0B 0C 0D 0E 0F
      -- -- -- -- -- -- -- --  -- -- -- -- -- -- -- --
0000:    5B 00 80 7B B1 10 01  7B B1 10 01 00 FE FE FE   [..{...{.......
0010: 5B 01 80 7E B1 10 01 7E  B1 10 01 00 FE FE FE 00  [..~...~........
```

#### Opcodes

```
  0: 0x0001 [0x5B] LOAD_EXT_SCHEDULER: Load scheduler 0xFEFEFE00 with entities [Arciela (ID: 17871227/0x0110B17B), Arciela (ID: 17871227/0x0110B17B)], work=3453*
  1: 0x0010 [0x5B] LOAD_EXT_SCHEDULER: Load scheduler 0xFEFEFE00 with entities [Unnamed NPC (ID: 17871230/0x0110B17E), Unnamed NPC (ID: 17871230/0x0110B17E)], work=3418*
  2: 0x001F [0x00] END_REQSTACK()
```

### Event 65535.2

#### Metadata

| Field        | Value    |
|--------------|----------|
| Entrypoint   | 0x0020   |
| Data Size    | 31 bytes |
| Instructions | 3        |

```
      00 01 02 03 04 05 06 07  08 09 0A 0B 0C 0D 0E 0F
      -- -- -- -- -- -- -- --  -- -- -- -- -- -- -- --
0020: 5B 02 80 7B B1 10 01 7B  B1 10 01 00 FE FE FE 5B  [..{...{.......[
0030: 01 80 7E B1 10 01 7E B1  10 01 00 FE FE FE 00     ..~...~........ 
```

#### Opcodes

```
  0: 0x0020 [0x5B] LOAD_EXT_SCHEDULER: Load scheduler 0xFEFEFE00 with entities [Arciela (ID: 17871227/0x0110B17B), Arciela (ID: 17871227/0x0110B17B)], work=3455*
  1: 0x002F [0x5B] LOAD_EXT_SCHEDULER: Load scheduler 0xFEFEFE00 with entities [Unnamed NPC (ID: 17871230/0x0110B17E), Unnamed NPC (ID: 17871230/0x0110B17E)], work=3418*
  2: 0x003E [0x00] END_REQSTACK()
```

### Event 65535.3

#### Metadata

| Field        | Value    |
|--------------|----------|
| Entrypoint   | 0x003F   |
| Data Size    | 31 bytes |
| Instructions | 3        |

```
      00 01 02 03 04 05 06 07  08 09 0A 0B 0C 0D 0E 0F
      -- -- -- -- -- -- -- --  -- -- -- -- -- -- -- --
0030:                                               5B                 [
0040: 02 80 7B B1 10 01 7B B1  10 01 00 FE FE FE 5B 01  ..{...{.......[.
0050: 80 7E B1 10 01 7E B1 10  01 00 FE FE FE 00        .~...~........  
```

#### Opcodes

```
  0: 0x003F [0x5B] LOAD_EXT_SCHEDULER: Load scheduler 0xFEFEFE00 with entities [Arciela (ID: 17871227/0x0110B17B), Arciela (ID: 17871227/0x0110B17B)], work=3455*
  1: 0x004E [0x5B] LOAD_EXT_SCHEDULER: Load scheduler 0xFEFEFE00 with entities [Unnamed NPC (ID: 17871230/0x0110B17E), Unnamed NPC (ID: 17871230/0x0110B17E)], work=3418*
  2: 0x005D [0x00] END_REQSTACK()
```

### Event 65535.4

#### Metadata

| Field        | Value    |
|--------------|----------|
| Entrypoint   | 0x005E   |
| Data Size    | 31 bytes |
| Instructions | 3        |

```
      00 01 02 03 04 05 06 07  08 09 0A 0B 0C 0D 0E 0F
      -- -- -- -- -- -- -- --  -- -- -- -- -- -- -- --
0050:                                            5B 03                [.
0060: 80 7B B1 10 01 7B B1 10  01 00 FE FE FE 5B 01 80  .{...{.......[..
0070: 7E B1 10 01 7E B1 10 01  00 FE FE FE 00           ~...~........   
```

#### Opcodes

```
  0: 0x005E [0x5B] LOAD_EXT_SCHEDULER: Load scheduler 0xFEFEFE00 with entities [Arciela (ID: 17871227/0x0110B17B), Arciela (ID: 17871227/0x0110B17B)], work=3457*
  1: 0x006D [0x5B] LOAD_EXT_SCHEDULER: Load scheduler 0xFEFEFE00 with entities [Unnamed NPC (ID: 17871230/0x0110B17E), Unnamed NPC (ID: 17871230/0x0110B17E)], work=3418*
  2: 0x007C [0x00] END_REQSTACK()
```

### Event 65535.5

#### Metadata

| Field        | Value    |
|--------------|----------|
| Entrypoint   | 0x007D   |
| Data Size    | 31 bytes |
| Instructions | 3        |

```
      00 01 02 03 04 05 06 07  08 09 0A 0B 0C 0D 0E 0F
      -- -- -- -- -- -- -- --  -- -- -- -- -- -- -- --
0070:                                         5B 03 80               [..
0080: 7B B1 10 01 7B B1 10 01  00 FE FE FE 5B 01 80 7E  {...{.......[..~
0090: B1 10 01 7E B1 10 01 00  FE FE FE 00              ...~........    
```

#### Opcodes

```
  0: 0x007D [0x5B] LOAD_EXT_SCHEDULER: Load scheduler 0xFEFEFE00 with entities [Arciela (ID: 17871227/0x0110B17B), Arciela (ID: 17871227/0x0110B17B)], work=3457*
  1: 0x008C [0x5B] LOAD_EXT_SCHEDULER: Load scheduler 0xFEFEFE00 with entities [Unnamed NPC (ID: 17871230/0x0110B17E), Unnamed NPC (ID: 17871230/0x0110B17E)], work=3418*
  2: 0x009B [0x00] END_REQSTACK()
```

### Event 65535.6

#### Metadata

| Field        | Value    |
|--------------|----------|
| Entrypoint   | 0x009C   |
| Data Size    | 47 bytes |
| Instructions | 4        |

```
      00 01 02 03 04 05 06 07  08 09 0A 0B 0C 0D 0E 0F
      -- -- -- -- -- -- -- --  -- -- -- -- -- -- -- --
0090:                                      5F 03 04 80              _...
00A0: 87 B1 10 01 87 B1 10 01  00 FE FE FE 5B 05 80 7B  ............[..{
00B0: B1 10 01 7B B1 10 01 00  FE FE FE 5B 01 80 7E B1  ...{.......[..~.
00C0: 10 01 7E B1 10 01 00 FE  FE FE 00                 ..~........     
```

#### Opcodes

```
  0: 0x009C [0x5F] MULTI_HANDLER_COMPLEX(mode=0x03 - Load ext scheduler (OpCode 0x5B mode 0), ref=3431*, entity1=Unnamed NPC (ID: 17871239/0x0110B187), entity2=Unnamed NPC (ID: 17871239/0x0110B187), string=0xFEFEFE00)
  1: 0x00AC [0x5B] LOAD_EXT_SCHEDULER: Load scheduler 0xFEFEFE00 with entities [Arciela (ID: 17871227/0x0110B17B), Arciela (ID: 17871227/0x0110B17B)], work=3454*
  2: 0x00BB [0x5B] LOAD_EXT_SCHEDULER: Load scheduler 0xFEFEFE00 with entities [Unnamed NPC (ID: 17871230/0x0110B17E), Unnamed NPC (ID: 17871230/0x0110B17E)], work=3418*
  3: 0x00CA [0x00] END_REQSTACK()
```

### Event 33

#### Metadata

| Field        | Value   |
|--------------|---------|
| Entrypoint   | 0x00CB  |
| Data Size    | 1 bytes |
| Instructions | 1       |

```
      00 01 02 03 04 05 06 07  08 09 0A 0B 0C 0D 0E 0F
      -- -- -- -- -- -- -- --  -- -- -- -- -- -- -- --
00C0:                                   00                         .    
```

#### Opcodes

```
  0: 0x00CB [0x00] END_REQSTACK()
```

### Event 65535.7

#### Metadata

| Field        | Value    |
|--------------|----------|
| Entrypoint   | 0x00CC   |
| Data Size    | 10 bytes |
| Instructions | 2        |

```
      00 01 02 03 04 05 06 07  08 09 0A 0B 0C 0D 0E 0F
      -- -- -- -- -- -- -- --  -- -- -- -- -- -- -- --
00C0:                                      6C 7E B1 10              l~..
00D0: 01 06 80 07 80 00                                 ......          
```

#### Opcodes

```
  0: 0x00CC [0x6C] FADE_ENTITY_COLOR(entity_id=Unnamed NPC (ID: 17871230/0x0110B17E), end_alpha=127*, fade_time=1*)
  1: 0x00D5 [0x00] END_REQSTACK()
```

### Event 65535.8

#### Metadata

| Field        | Value    |
|--------------|----------|
| Entrypoint   | 0x00D6   |
| Data Size    | 10 bytes |
| Instructions | 2        |

```
      00 01 02 03 04 05 06 07  08 09 0A 0B 0C 0D 0E 0F
      -- -- -- -- -- -- -- --  -- -- -- -- -- -- -- --
00D0:                   6C 7E  B1 10 01 08 80 07 80 00        l~........
```

#### Opcodes

```
  0: 0x00D6 [0x6C] FADE_ENTITY_COLOR(entity_id=Unnamed NPC (ID: 17871230/0x0110B17E), end_alpha=0*, fade_time=1*)
  1: 0x00DF [0x00] END_REQSTACK()
```

### Event 65535.9

#### Metadata

| Field        | Value    |
|--------------|----------|
| Entrypoint   | 0x00E0   |
| Data Size    | 10 bytes |
| Instructions | 2        |

```
      00 01 02 03 04 05 06 07  08 09 0A 0B 0C 0D 0E 0F
      -- -- -- -- -- -- -- --  -- -- -- -- -- -- -- --
00E0: 6C 7F B1 10 01 06 80 07  80 00                    l.........      
```

#### Opcodes

```
  0: 0x00E0 [0x6C] FADE_ENTITY_COLOR(entity_id=Unnamed NPC (ID: 17871231/0x0110B17F), end_alpha=127*, fade_time=1*)
  1: 0x00E9 [0x00] END_REQSTACK()
```

### Event 65535.10

#### Metadata

| Field        | Value    |
|--------------|----------|
| Entrypoint   | 0x00EA   |
| Data Size    | 10 bytes |
| Instructions | 2        |

```
      00 01 02 03 04 05 06 07  08 09 0A 0B 0C 0D 0E 0F
      -- -- -- -- -- -- -- --  -- -- -- -- -- -- -- --
00E0:                                6C 7F B1 10 01 08            l.....
00F0: 80 07 80 00                                       ....            
```

#### Opcodes

```
  0: 0x00EA [0x6C] FADE_ENTITY_COLOR(entity_id=Unnamed NPC (ID: 17871231/0x0110B17F), end_alpha=0*, fade_time=1*)
  1: 0x00F3 [0x00] END_REQSTACK()
```

### Event 47

#### Metadata

| Field        | Value   |
|--------------|---------|
| Entrypoint   | 0x00F4  |
| Data Size    | 1 bytes |
| Instructions | 1       |

```
      00 01 02 03 04 05 06 07  08 09 0A 0B 0C 0D 0E 0F
      -- -- -- -- -- -- -- --  -- -- -- -- -- -- -- --
00F0:             00                                        .           
```

#### Opcodes

```
  0: 0x00F4 [0x00] END_REQSTACK()
```

### Event 51

#### Metadata

| Field        | Value   |
|--------------|---------|
| Entrypoint   | 0x00F5  |
| Data Size    | 1 bytes |
| Instructions | 1       |

```
      00 01 02 03 04 05 06 07  08 09 0A 0B 0C 0D 0E 0F
      -- -- -- -- -- -- -- --  -- -- -- -- -- -- -- --
00F0:                00                                      .          
```

#### Opcodes

```
  0: 0x00F5 [0x00] END_REQSTACK()
```

### Event 65535.11

#### Metadata

| Field        | Value    |
|--------------|----------|
| Entrypoint   | 0x00F6   |
| Data Size    | 33 bytes |
| Instructions | 3        |

```
      00 01 02 03 04 05 06 07  08 09 0A 0B 0C 0D 0E 0F
      -- -- -- -- -- -- -- --  -- -- -- -- -- -- -- --
00F0:                   5F 03  04 80 87 B1 10 01 87 B1        _.........
0100: 10 01 78 78 78 78 5F 03  09 80 7F B1 10 01 7F B1  ..xxxx_.........
0110: 10 01 78 78 78 78 00                              ..xxxx.         
```

#### Opcodes

```
  0: 0x00F6 [0x5F] MULTI_HANDLER_COMPLEX(mode=0x03 - Load ext scheduler (OpCode 0x5B mode 0), ref=3431*, entity1=Unnamed NPC (ID: 17871239/0x0110B187), entity2=Unnamed NPC (ID: 17871239/0x0110B187), string="xxxx")
  1: 0x0106 [0x5F] MULTI_HANDLER_COMPLEX(mode=0x03 - Load ext scheduler (OpCode 0x5B mode 0), ref=3428*, entity1=Unnamed NPC (ID: 17871231/0x0110B17F), entity2=Unnamed NPC (ID: 17871231/0x0110B17F), string="xxxx")
  2: 0x0116 [0x00] END_REQSTACK()
```

### Event 65535.12

#### Metadata

| Field        | Value    |
|--------------|----------|
| Entrypoint   | 0x0117   |
| Data Size    | 33 bytes |
| Instructions | 3        |

```
      00 01 02 03 04 05 06 07  08 09 0A 0B 0C 0D 0E 0F
      -- -- -- -- -- -- -- --  -- -- -- -- -- -- -- --
0110:                      5F  03 04 80 87 B1 10 01 87         _........
0120: B1 10 01 78 78 78 78 5F  03 0A 80 7C B1 10 01 7C  ...xxxx_...|...|
0130: B1 10 01 78 78 78 78 00                           ...xxxx.        
```

#### Opcodes

```
  0: 0x0117 [0x5F] MULTI_HANDLER_COMPLEX(mode=0x03 - Load ext scheduler (OpCode 0x5B mode 0), ref=3431*, entity1=Unnamed NPC (ID: 17871239/0x0110B187), entity2=Unnamed NPC (ID: 17871239/0x0110B187), string="xxxx")
  1: 0x0127 [0x5F] MULTI_HANDLER_COMPLEX(mode=0x03 - Load ext scheduler (OpCode 0x5B mode 0), ref=3490*, entity1=Unnamed NPC (ID: 17871228/0x0110B17C), entity2=Unnamed NPC (ID: 17871228/0x0110B17C), string="xxxx")
  2: 0x0137 [0x00] END_REQSTACK()
```

### Event 65535.13

#### Metadata

| Field        | Value    |
|--------------|----------|
| Entrypoint   | 0x0138   |
| Data Size    | 33 bytes |
| Instructions | 3        |

```
      00 01 02 03 04 05 06 07  08 09 0A 0B 0C 0D 0E 0F
      -- -- -- -- -- -- -- --  -- -- -- -- -- -- -- --
0130:                          5F 03 04 80 87 B1 10 01          _.......
0140: 87 B1 10 01 78 78 78 78  5F 03 0A 80 7C B1 10 01  ....xxxx_...|...
0150: 7C B1 10 01 78 78 78 78  00                       |...xxxx.       
```

#### Opcodes

```
  0: 0x0138 [0x5F] MULTI_HANDLER_COMPLEX(mode=0x03 - Load ext scheduler (OpCode 0x5B mode 0), ref=3431*, entity1=Unnamed NPC (ID: 17871239/0x0110B187), entity2=Unnamed NPC (ID: 17871239/0x0110B187), string="xxxx")
  1: 0x0148 [0x5F] MULTI_HANDLER_COMPLEX(mode=0x03 - Load ext scheduler (OpCode 0x5B mode 0), ref=3490*, entity1=Unnamed NPC (ID: 17871228/0x0110B17C), entity2=Unnamed NPC (ID: 17871228/0x0110B17C), string="xxxx")
  2: 0x0158 [0x00] END_REQSTACK()
```

### Event 65535.14

#### Metadata

| Field        | Value    |
|--------------|----------|
| Entrypoint   | 0x0159   |
| Data Size    | 33 bytes |
| Instructions | 3        |

```
      00 01 02 03 04 05 06 07  08 09 0A 0B 0C 0D 0E 0F
      -- -- -- -- -- -- -- --  -- -- -- -- -- -- -- --
0150:                             5F 03 0B 80 7C B1 10           _...|..
0160: 01 7C B1 10 01 78 78 78  78 5F 03 0C 80 7D B1 10  .|...xxxx_...}..
0170: 01 7D B1 10 01 78 78 78  78 00                    .}...xxxx.      
```

#### Opcodes

```
  0: 0x0159 [0x5F] MULTI_HANDLER_COMPLEX(mode=0x03 - Load ext scheduler (OpCode 0x5B mode 0), ref=3491*, entity1=Unnamed NPC (ID: 17871228/0x0110B17C), entity2=Unnamed NPC (ID: 17871228/0x0110B17C), string="xxxx")
  1: 0x0169 [0x5F] MULTI_HANDLER_COMPLEX(mode=0x03 - Load ext scheduler (OpCode 0x5B mode 0), ref=3493*, entity1=Unnamed NPC (ID: 17871229/0x0110B17D), entity2=Unnamed NPC (ID: 17871229/0x0110B17D), string="xxxx")
  2: 0x0179 [0x00] END_REQSTACK()
```

### Event 65535.15

#### Metadata

| Field        | Value    |
|--------------|----------|
| Entrypoint   | 0x017A   |
| Data Size    | 33 bytes |
| Instructions | 3        |

```
      00 01 02 03 04 05 06 07  08 09 0A 0B 0C 0D 0E 0F
      -- -- -- -- -- -- -- --  -- -- -- -- -- -- -- --
0170:                                5F 03 0B 80 7C B1            _...|.
0180: 10 01 7C B1 10 01 78 78  78 78 5F 03 0C 80 7D B1  ..|...xxxx_...}.
0190: 10 01 7D B1 10 01 78 78  78 78 00                 ..}...xxxx.     
```

#### Opcodes

```
  0: 0x017A [0x5F] MULTI_HANDLER_COMPLEX(mode=0x03 - Load ext scheduler (OpCode 0x5B mode 0), ref=3491*, entity1=Unnamed NPC (ID: 17871228/0x0110B17C), entity2=Unnamed NPC (ID: 17871228/0x0110B17C), string="xxxx")
  1: 0x018A [0x5F] MULTI_HANDLER_COMPLEX(mode=0x03 - Load ext scheduler (OpCode 0x5B mode 0), ref=3493*, entity1=Unnamed NPC (ID: 17871229/0x0110B17D), entity2=Unnamed NPC (ID: 17871229/0x0110B17D), string="xxxx")
  2: 0x019A [0x00] END_REQSTACK()
```

### Event 65535.16

#### Metadata

| Field        | Value    |
|--------------|----------|
| Entrypoint   | 0x019B   |
| Data Size    | 49 bytes |
| Instructions | 4        |

```
      00 01 02 03 04 05 06 07  08 09 0A 0B 0C 0D 0E 0F
      -- -- -- -- -- -- -- --  -- -- -- -- -- -- -- --
0190:                                   5F 03 04 80 87             _....
01A0: B1 10 01 87 B1 10 01 78  78 78 78 5F 03 0B 80 7C  .......xxxx_...|
01B0: B1 10 01 7C B1 10 01 78  78 78 78 5F 03 0C 80 7D  ...|...xxxx_...}
01C0: B1 10 01 7D B1 10 01 78  78 78 78 00              ...}...xxxx.    
```

#### Opcodes

```
  0: 0x019B [0x5F] MULTI_HANDLER_COMPLEX(mode=0x03 - Load ext scheduler (OpCode 0x5B mode 0), ref=3431*, entity1=Unnamed NPC (ID: 17871239/0x0110B187), entity2=Unnamed NPC (ID: 17871239/0x0110B187), string="xxxx")
  1: 0x01AB [0x5F] MULTI_HANDLER_COMPLEX(mode=0x03 - Load ext scheduler (OpCode 0x5B mode 0), ref=3491*, entity1=Unnamed NPC (ID: 17871228/0x0110B17C), entity2=Unnamed NPC (ID: 17871228/0x0110B17C), string="xxxx")
  2: 0x01BB [0x5F] MULTI_HANDLER_COMPLEX(mode=0x03 - Load ext scheduler (OpCode 0x5B mode 0), ref=3493*, entity1=Unnamed NPC (ID: 17871229/0x0110B17D), entity2=Unnamed NPC (ID: 17871229/0x0110B17D), string="xxxx")
  3: 0x01CB [0x00] END_REQSTACK()
```

### Event 65535.17

#### Metadata

| Field        | Value    |
|--------------|----------|
| Entrypoint   | 0x01CC   |
| Data Size    | 49 bytes |
| Instructions | 4        |

```
      00 01 02 03 04 05 06 07  08 09 0A 0B 0C 0D 0E 0F
      -- -- -- -- -- -- -- --  -- -- -- -- -- -- -- --
01C0:                                      5F 03 04 80              _...
01D0: 87 B1 10 01 87 B1 10 01  78 78 78 78 5F 03 0D 80  ........xxxx_...
01E0: 7C B1 10 01 7C B1 10 01  78 78 78 78 5F 03 0C 80  |...|...xxxx_...
01F0: 7D B1 10 01 7D B1 10 01  78 78 78 78 00           }...}...xxxx.   
```

#### Opcodes

```
  0: 0x01CC [0x5F] MULTI_HANDLER_COMPLEX(mode=0x03 - Load ext scheduler (OpCode 0x5B mode 0), ref=3431*, entity1=Unnamed NPC (ID: 17871239/0x0110B187), entity2=Unnamed NPC (ID: 17871239/0x0110B187), string="xxxx")
  1: 0x01DC [0x5F] MULTI_HANDLER_COMPLEX(mode=0x03 - Load ext scheduler (OpCode 0x5B mode 0), ref=3492*, entity1=Unnamed NPC (ID: 17871228/0x0110B17C), entity2=Unnamed NPC (ID: 17871228/0x0110B17C), string="xxxx")
  2: 0x01EC [0x5F] MULTI_HANDLER_COMPLEX(mode=0x03 - Load ext scheduler (OpCode 0x5B mode 0), ref=3493*, entity1=Unnamed NPC (ID: 17871229/0x0110B17D), entity2=Unnamed NPC (ID: 17871229/0x0110B17D), string="xxxx")
  3: 0x01FC [0x00] END_REQSTACK()
```

### Event 65535.18

#### Metadata

| Field        | Value    |
|--------------|----------|
| Entrypoint   | 0x01FD   |
| Data Size    | 31 bytes |
| Instructions | 3        |

```
      00 01 02 03 04 05 06 07  08 09 0A 0B 0C 0D 0E 0F
      -- -- -- -- -- -- -- --  -- -- -- -- -- -- -- --
01F0:                                         5B 04 80               [..
0200: 87 B1 10 01 87 B1 10 01  78 78 78 78 5B 0E 80 7C  ........xxxx[..|
0210: B1 10 01 7C B1 10 01 78  78 78 78 00              ...|...xxxx.    
```

#### Opcodes

```
  0: 0x01FD [0x5B] LOAD_EXT_SCHEDULER: Load scheduler "xxxx" with entities [Unnamed NPC (ID: 17871239/0x0110B187), Unnamed NPC (ID: 17871239/0x0110B187)], work=3431*
  1: 0x020C [0x5B] LOAD_EXT_SCHEDULER: Load scheduler "xxxx" with entities [Unnamed NPC (ID: 17871228/0x0110B17C), Unnamed NPC (ID: 17871228/0x0110B17C)], work=3426*
  2: 0x021B [0x00] END_REQSTACK()
```

### Event 65535.19

#### Metadata

| Field        | Value    |
|--------------|----------|
| Entrypoint   | 0x021C   |
| Data Size    | 33 bytes |
| Instructions | 3        |

```
      00 01 02 03 04 05 06 07  08 09 0A 0B 0C 0D 0E 0F
      -- -- -- -- -- -- -- --  -- -- -- -- -- -- -- --
0210:                                      5F 03 0F 80              _...
0220: 87 B1 10 01 87 B1 10 01  78 78 78 78 5F 03 10 80  ........xxxx_...
0230: 7C B1 10 01 7C B1 10 01  78 78 78 78 00           |...|...xxxx.   
```

#### Opcodes

```
  0: 0x021C [0x5F] MULTI_HANDLER_COMPLEX(mode=0x03 - Load ext scheduler (OpCode 0x5B mode 0), ref=3432*, entity1=Unnamed NPC (ID: 17871239/0x0110B187), entity2=Unnamed NPC (ID: 17871239/0x0110B187), string="xxxx")
  1: 0x022C [0x5F] MULTI_HANDLER_COMPLEX(mode=0x03 - Load ext scheduler (OpCode 0x5B mode 0), ref=3553*, entity1=Unnamed NPC (ID: 17871228/0x0110B17C), entity2=Unnamed NPC (ID: 17871228/0x0110B17C), string="xxxx")
  2: 0x023C [0x00] END_REQSTACK()
```

### Event 65535.20

#### Metadata

| Field        | Value    |
|--------------|----------|
| Entrypoint   | 0x023D   |
| Data Size    | 33 bytes |
| Instructions | 3        |

```
      00 01 02 03 04 05 06 07  08 09 0A 0B 0C 0D 0E 0F
      -- -- -- -- -- -- -- --  -- -- -- -- -- -- -- --
0230:                                         5F 03 0F               _..
0240: 80 87 B1 10 01 87 B1 10  01 78 78 78 78 5F 03 11  .........xxxx_..
0250: 80 7C B1 10 01 7C B1 10  01 78 78 78 78 00        .|...|...xxxx.  
```

#### Opcodes

```
  0: 0x023D [0x5F] MULTI_HANDLER_COMPLEX(mode=0x03 - Load ext scheduler (OpCode 0x5B mode 0), ref=3432*, entity1=Unnamed NPC (ID: 17871239/0x0110B187), entity2=Unnamed NPC (ID: 17871239/0x0110B187), string="xxxx")
  1: 0x024D [0x5F] MULTI_HANDLER_COMPLEX(mode=0x03 - Load ext scheduler (OpCode 0x5B mode 0), ref=3554*, entity1=Unnamed NPC (ID: 17871228/0x0110B17C), entity2=Unnamed NPC (ID: 17871228/0x0110B17C), string="xxxx")
  2: 0x025D [0x00] END_REQSTACK()
```

### Event 65535.21

#### Metadata

| Field        | Value    |
|--------------|----------|
| Entrypoint   | 0x025E   |
| Data Size    | 33 bytes |
| Instructions | 3        |

```
      00 01 02 03 04 05 06 07  08 09 0A 0B 0C 0D 0E 0F
      -- -- -- -- -- -- -- --  -- -- -- -- -- -- -- --
0250:                                            5F 03                _.
0260: 0F 80 87 B1 10 01 87 B1  10 01 78 78 78 78 5F 03  ..........xxxx_.
0270: 11 80 7C B1 10 01 7C B1  10 01 78 78 78 78 00     ..|...|...xxxx. 
```

#### Opcodes

```
  0: 0x025E [0x5F] MULTI_HANDLER_COMPLEX(mode=0x03 - Load ext scheduler (OpCode 0x5B mode 0), ref=3432*, entity1=Unnamed NPC (ID: 17871239/0x0110B187), entity2=Unnamed NPC (ID: 17871239/0x0110B187), string="xxxx")
  1: 0x026E [0x5F] MULTI_HANDLER_COMPLEX(mode=0x03 - Load ext scheduler (OpCode 0x5B mode 0), ref=3554*, entity1=Unnamed NPC (ID: 17871228/0x0110B17C), entity2=Unnamed NPC (ID: 17871228/0x0110B17C), string="xxxx")
  2: 0x027E [0x00] END_REQSTACK()
```

### Event 65535.22

#### Metadata

| Field        | Value    |
|--------------|----------|
| Entrypoint   | 0x027F   |
| Data Size    | 33 bytes |
| Instructions | 3        |

```
      00 01 02 03 04 05 06 07  08 09 0A 0B 0C 0D 0E 0F
      -- -- -- -- -- -- -- --  -- -- -- -- -- -- -- --
0270:                                               5F                 _
0280: 03 0F 80 87 B1 10 01 87  B1 10 01 78 78 78 78 5F  ...........xxxx_
0290: 03 12 80 7C B1 10 01 7C  B1 10 01 78 78 78 78 00  ...|...|...xxxx.
```

#### Opcodes

```
  0: 0x027F [0x5F] MULTI_HANDLER_COMPLEX(mode=0x03 - Load ext scheduler (OpCode 0x5B mode 0), ref=3432*, entity1=Unnamed NPC (ID: 17871239/0x0110B187), entity2=Unnamed NPC (ID: 17871239/0x0110B187), string="xxxx")
  1: 0x028F [0x5F] MULTI_HANDLER_COMPLEX(mode=0x03 - Load ext scheduler (OpCode 0x5B mode 0), ref=3555*, entity1=Unnamed NPC (ID: 17871228/0x0110B17C), entity2=Unnamed NPC (ID: 17871228/0x0110B17C), string="xxxx")
  2: 0x029F [0x00] END_REQSTACK()
```

### Event 65535.23

#### Metadata

| Field        | Value    |
|--------------|----------|
| Entrypoint   | 0x02A0   |
| Data Size    | 33 bytes |
| Instructions | 3        |

```
      00 01 02 03 04 05 06 07  08 09 0A 0B 0C 0D 0E 0F
      -- -- -- -- -- -- -- --  -- -- -- -- -- -- -- --
02A0: 5F 03 0F 80 87 B1 10 01  87 B1 10 01 78 78 78 78  _...........xxxx
02B0: 5F 03 12 80 7C B1 10 01  7C B1 10 01 78 78 78 78  _...|...|...xxxx
02C0: 00                                                .               
```

#### Opcodes

```
  0: 0x02A0 [0x5F] MULTI_HANDLER_COMPLEX(mode=0x03 - Load ext scheduler (OpCode 0x5B mode 0), ref=3432*, entity1=Unnamed NPC (ID: 17871239/0x0110B187), entity2=Unnamed NPC (ID: 17871239/0x0110B187), string="xxxx")
  1: 0x02B0 [0x5F] MULTI_HANDLER_COMPLEX(mode=0x03 - Load ext scheduler (OpCode 0x5B mode 0), ref=3555*, entity1=Unnamed NPC (ID: 17871228/0x0110B17C), entity2=Unnamed NPC (ID: 17871228/0x0110B17C), string="xxxx")
  2: 0x02C0 [0x00] END_REQSTACK()
```

### Event 65535.24

#### Metadata

| Field        | Value    |
|--------------|----------|
| Entrypoint   | 0x02C1   |
| Data Size    | 33 bytes |
| Instructions | 3        |

```
      00 01 02 03 04 05 06 07  08 09 0A 0B 0C 0D 0E 0F
      -- -- -- -- -- -- -- --  -- -- -- -- -- -- -- --
02C0:    5F 03 0F 80 87 B1 10  01 87 B1 10 01 78 78 78   _...........xxx
02D0: 78 5F 03 13 80 80 B1 10  01 80 B1 10 01 78 78 78  x_...........xxx
02E0: 78 00                                             x.              
```

#### Opcodes

```
  0: 0x02C1 [0x5F] MULTI_HANDLER_COMPLEX(mode=0x03 - Load ext scheduler (OpCode 0x5B mode 0), ref=3432*, entity1=Unnamed NPC (ID: 17871239/0x0110B187), entity2=Unnamed NPC (ID: 17871239/0x0110B187), string="xxxx")
  1: 0x02D1 [0x5F] MULTI_HANDLER_COMPLEX(mode=0x03 - Load ext scheduler (OpCode 0x5B mode 0), ref=3556*, entity1=Unnamed NPC (ID: 17871232/0x0110B180), entity2=Unnamed NPC (ID: 17871232/0x0110B180), string="xxxx")
  2: 0x02E1 [0x00] END_REQSTACK()
```

### Event 65535.25

#### Metadata

| Field        | Value    |
|--------------|----------|
| Entrypoint   | 0x02E2   |
| Data Size    | 33 bytes |
| Instructions | 3        |

```
      00 01 02 03 04 05 06 07  08 09 0A 0B 0C 0D 0E 0F
      -- -- -- -- -- -- -- --  -- -- -- -- -- -- -- --
02E0:       5F 03 0F 80 87 B1  10 01 87 B1 10 01 78 78    _...........xx
02F0: 78 78 5F 03 13 80 80 B1  10 01 80 B1 10 01 78 78  xx_...........xx
0300: 78 78 00                                          xx.             
```

#### Opcodes

```
  0: 0x02E2 [0x5F] MULTI_HANDLER_COMPLEX(mode=0x03 - Load ext scheduler (OpCode 0x5B mode 0), ref=3432*, entity1=Unnamed NPC (ID: 17871239/0x0110B187), entity2=Unnamed NPC (ID: 17871239/0x0110B187), string="xxxx")
  1: 0x02F2 [0x5F] MULTI_HANDLER_COMPLEX(mode=0x03 - Load ext scheduler (OpCode 0x5B mode 0), ref=3556*, entity1=Unnamed NPC (ID: 17871232/0x0110B180), entity2=Unnamed NPC (ID: 17871232/0x0110B180), string="xxxx")
  2: 0x0302 [0x00] END_REQSTACK()
```
