# 17871209 - DIRECTOR by yaeko

## Common Data

| Field            | Value                   |
|------------------|-------------------------|
| Zone             | Kamihr Drifts (ID: 267) |
| Block Size       | 8624 bytes              |
| Total Events     | 4                       |
| References Count | 113                     |

## List of Events

| Event ID              | Entrypoint   |   Size |   Instructions |
|-----------------------|--------------|--------|----------------|
| [65535](#event-65535) | 0x0000       |      1 |              1 |
| [26](#event-26)       | 0x0001       |   1684 |            203 |
| [40](#event-40)       | 0x0695       |   3770 |            468 |
| [42](#event-42)       | 0x154F       |   2685 |            346 |

## DAT References (imed_data)

|   Index | Hex Value   |   Dec Value |
|---------|-------------|-------------|
|       0 | 0x00C8      |         200 |
|       1 | 0x0000      |           0 |
|       2 | 0x0013      |          19 |
|       3 | 0x0064      |         100 |
|       4 | 0x029B      |         667 |
|       5 | 0x1E66      |        7782 |
|       6 | 0x00BF      |         191 |
|       7 | 0x0078      |         120 |
|       8 | 0x00B4      |         180 |
|       9 | 0x0028      |          40 |
|      10 | 0x1E68      |        7784 |
|      11 | 0x1E69      |        7785 |
|      12 | 0x0032      |          50 |
|      13 | 0x001E      |          30 |
|      14 | 0x009F      |         159 |
|      15 | 0x007F      |         127 |
|      16 | 0x0001      |           1 |
|      17 | 0x1BC8D     |      113805 |
|      18 | 0xFFFBD273  |  4294693491 |
|      19 | 0x9E18      |       40472 |
|      20 | 0x0A3E      |        2622 |
|      21 | 0x1E67      |        7783 |
|      22 | 0x005A      |          90 |
|      23 | 0x1E6A      |        7786 |
|      24 | 0x0548      |        1352 |
|      25 | 0x1E6B      |        7787 |
|      26 | 0x003C      |          60 |
|      27 | 0x0990      |        2448 |
|      28 | 0x1E6C      |        7788 |
|      29 | 0x1E6D      |        7789 |
|      30 | 0x0005      |           5 |
|      31 | 0x0006      |           6 |
|      32 | 0x1E6E      |        7790 |
|      33 | 0x1E6F      |        7791 |
|      34 | 0x1E71      |        7793 |
|      35 | 0x1E72      |        7794 |
|      36 | 0x1E73      |        7795 |
|      37 | 0x1E74      |        7796 |
|      38 | 0x0002      |           2 |
|      39 | 0x1E70      |        7792 |
|      40 | 0x00C9      |         201 |
|      41 | 0x0048      |          72 |
|      42 | 0x00A3      |         163 |
|      43 | 0x02AA      |         682 |
|      44 | 0x0008      |           8 |
|      45 | 0x1E77      |        7799 |
|      46 | 0x1E78      |        7800 |
|      47 | 0x000A      |          10 |
|      48 | 0x1E79      |        7801 |
|      49 | 0x1E7A      |        7802 |
|      50 | 0x1E7B      |        7803 |
|      51 | 0x1E7C      |        7804 |
|      52 | 0x1E7D      |        7805 |
|      53 | 0x1E7E      |        7806 |
|      54 | 0x1E7F      |        7807 |
|      55 | 0x1E80      |        7808 |
|      56 | 0x1E81      |        7809 |
|      57 | 0x1E82      |        7810 |
|      58 | 0x1E83      |        7811 |
|      59 | 0x1E84      |        7812 |
|      60 | 0x1E85      |        7813 |
|      61 | 0x1E86      |        7814 |
|      62 | 0x1E87      |        7815 |
|      63 | 0x1E88      |        7816 |
|      64 | 0x1E89      |        7817 |
|      65 | 0x0014      |          20 |
|      66 | 0x0003      |           3 |
|      67 | 0x1E8A      |        7818 |
|      68 | 0x1E8B      |        7819 |
|      69 | 0x1E8C      |        7820 |
|      70 | 0x1E8E      |        7822 |
|      71 | 0x1E8F      |        7823 |
|      72 | 0x1E90      |        7824 |
|      73 | 0x1E91      |        7825 |
|      74 | 0x1E92      |        7826 |
|      75 | 0x1E93      |        7827 |
|      76 | 0x0AC3      |        2755 |
|      77 | 0x1E94      |        7828 |
|      78 | 0x1E95      |        7829 |
|      79 | 0x1E96      |        7830 |
|      80 | 0x1E8D      |        7821 |
|      81 | 0x1E9A      |        7834 |
|      82 | 0x1E9B      |        7835 |
|      83 | 0x1128      |        4392 |
|      84 | 0x1E9C      |        7836 |
|      85 | 0x1174      |        4468 |
|      86 | 0x1E9D      |        7837 |
|      87 | 0x1E9E      |        7838 |
|      88 | 0x1E9F      |        7839 |
|      89 | 0x1EA0      |        7840 |
|      90 | 0x1EA1      |        7841 |
|      91 | 0x1EA2      |        7842 |
|      92 | 0x1EA3      |        7843 |
|      93 | 0x1EA4      |        7844 |
|      94 | 0x1EA5      |        7845 |
|      95 | 0x1EA6      |        7846 |
|      96 | 0x1EA7      |        7847 |
|      97 | 0x1EA8      |        7848 |
|      98 | 0x1EA9      |        7849 |
|      99 | 0x1EAA      |        7850 |
|     100 | 0x1EAB      |        7851 |
|     101 | 0x1EAC      |        7852 |
|     102 | 0x1EAD      |        7853 |
|     103 | 0x1EAE      |        7854 |
|     104 | 0x1EAF      |        7855 |
|     105 | 0x1EB0      |        7856 |
|     106 | 0x0007      |           7 |
|     107 | 0x1EB1      |        7857 |
|     108 | 0x1EB2      |        7858 |
|     109 | 0x1EB3      |        7859 |
|     110 | 0x1EB4      |        7860 |
|     111 | 0x1EB5      |        7861 |
|     112 | 0x1EB6      |        7862 |

## String References

- **7783**: 
- **7791**: What's your conclusion? [I think I've got it./Let's run that over again.]
- **7820**: Pick your poison. [Help him out./Let him languish.]

## Events

### Event 65535

#### Metadata

| Field        | Value   |
|--------------|---------|
| Entrypoint   | 0x0000  |
| Data Size    | 1 bytes |
| Instructions | 1       |

```
      00 01 02 03 04 05 06 07  08 09 0A 0B 0C 0D 0E 0F
      -- -- -- -- -- -- -- --  -- -- -- -- -- -- -- --
0000: 00                                                .               
```

#### Opcodes

```
  0: 0x0000 [0x00] END_REQSTACK()
```

### Event 26

#### Metadata

| Field        | Value      |
|--------------|------------|
| Entrypoint   | 0x0001     |
| Data Size    | 1684 bytes |
| Instructions | 203        |

```
      00 01 02 03 04 05 06 07  08 09 0A 0B 0C 0D 0E 0F
      -- -- -- -- -- -- -- --  -- -- -- -- -- -- -- --
0000:    42 46 01 45 00 80 F0  FF FF 7F F0 FF FF 7F 66   BF.E..........f
0010: 64 6F 31 01 80 55 00 80  F0 FF FF 7F F0 FF FF 7F  do1..U..........
0020: 66 64 6F 31 38 02 80 5D  01 80 03 80 29 08 F0 FF  fdo18..]....)...
0030: FF 7F 0B 80 6A B1 10 01  92 01 6A B1 10 01 29 08  ....j.....j...).
0040: 6A B1 10 01 11 29 08 F0  FF FF 7F 08 79 00 6A B1  j....)......y.j.
0050: 10 01 F0 FF FF 7F 45 04  80 F0 FF FF 7F F0 FF FF  ......E.........
0060: 7F 73 30 33 32 01 80 45  00 80 F0 FF FF 7F F0 FF  .s032..E........
0070: FF 7F 66 64 69 31 01 80  55 00 80 F0 FF FF 7F F0  ..fdi1..U.......
0080: FF FF 7F 66 64 69 31 2B  6A B1 10 01 05 80 23 52  ...fdi1+j.....#R
0090: 04 80 F0 FF FF 7F F0 FF  FF 7F 73 30 33 32 45 04  ..........s032E.
00A0: 80 F0 FF FF 7F F0 FF FF  7F 73 30 32 31 01 80 9F  .........s021...
00B0: 06 80 6A B1 10 01 6A B1  10 01 66 72 73 74 01 80  ..j...j...frst..
00C0: 1C 07 80 9F 06 80 6A B1  10 01 6A B1 10 01 6F 6B  ......j...j...ok
00D0: 30 30 01 80 1C 08 80 52  04 80 F0 FF FF 7F F0 FF  00.....R........
00E0: FF 7F 73 30 32 31 45 04  80 F0 FF FF 7F F0 FF FF  ..s021E.........
00F0: 7F 73 30 32 30 01 80 27  08 6A B1 10 01 0E 1C 09  .s020..'.j......
0100: 80 2B 6A B1 10 01 0A 80  23 2B 6A B1 10 01 0B 80  .+j.....#+j.....
0110: 23 2A 08 6A B1 10 01 52  04 80 F0 FF FF 7F F0 FF  #*.j...R........
0120: FF 7F 73 30 32 30 45 04  80 F0 FF FF 7F F0 FF FF  ..s020E.........
0130: 7F 73 30 32 32 01 80 7B  6A B1 10 01 27 08 6A B1  .s022..{j...'.j.
0140: 10 01 19 1C 0C 80 4A F0  FF FF 7F 6A B1 10 01 1C  ......J....j....
0150: 0D 80 45 00 80 F0 FF FF  7F F0 FF FF 7F 66 64 6F  ..E..........fdo
0160: 31 01 80 55 00 80 F0 FF  FF 7F F0 FF FF 7F 66 64  1..U..........fd
0170: 6F 31 6F 76 F0 FF FF 7F  5C 00 0E 80 5C 01 0E 80  o1ov....\...\...
0180: 9A 5D 0F 80 10 80 52 04  80 F0 FF FF 7F F0 FF FF  .]....R.........
0190: 7F 73 30 32 32 29 08 6A  B1 10 01 1C 29 08 F0 FF  .s022).j....)...
01A0: FF 7F 0C 37 11 80 12 80  13 80 14 80 80 6A B1 10  ...7.........j..
01B0: 01 80 F0 FF FF 7F 48 15  80 23 45 04 80 F0 FF FF  ......H..#E.....
01C0: 7F F0 FF FF 7F 73 30 32  33 01 80 27 08 6A B1 10  .....s023..'.j..
01D0: 01 1D 27 08 F0 FF FF 7F  0D 45 00 80 F0 FF FF 7F  ..'......E......
01E0: F0 FF FF 7F 66 64 69 31  01 80 55 00 80 F0 FF FF  ....fdi1..U.....
01F0: 7F F0 FF FF 7F 66 64 69  31 1C 16 80 52 04 80 F0  .....fdi1...R...
0200: FF FF 7F F0 FF FF 7F 73  30 32 33 45 04 80 F0 FF  .......s023E....
0210: FF 7F F0 FF FF 7F 73 30  32 34 01 80 1C 16 80 2A  ......s024.....*
0220: 08 6A B1 10 01 52 04 80  F0 FF FF 7F F0 FF FF 7F  .j...R..........
0230: 73 30 32 34 45 04 80 F0  FF FF 7F F0 FF FF 7F 73  s024E..........s
0240: 30 32 35 01 80 2B 6A B1  10 01 17 80 23 79 00 6A  025..+j.....#y.j
0250: B1 10 01 F0 FF FF 7F 4B  6A B1 10 01 18 80 6F 76  .......Kj.....ov
0260: 6A B1 10 01 2B 6A B1 10  01 19 80 23 2A 08 F0 FF  j...+j.....#*...
0270: FF 7F 7B F0 FF FF 7F 27  08 F0 FF FF 7F 0E 1C 1A  ..{....'........
0280: 80 7B 6A B1 10 01 4B 6A  B1 10 01 1B 80 52 04 80  .{j...Kj.....R..
0290: F0 FF FF 7F F0 FF FF 7F  73 30 32 35 45 04 80 F0  ........s025E...
02A0: FF FF 7F F0 FF FF 7F 73  30 33 33 01 80 6F 76 6A  .......s033..ovj
02B0: B1 10 01 27 08 6A B1 10  01 10 2B 6A B1 10 01 1C  ...'.j....+j....
02C0: 80 23 2A 08 6A B1 10 01  2A 08 F0 FF FF 7F 27 08  .#*.j...*.....'.
02D0: 6A B1 10 01 0F 45 00 80  F0 FF FF 7F F0 FF FF 7F  j....E..........
02E0: 66 64 6F 31 01 80 55 00  80 F0 FF FF 7F F0 FF FF  fdo1..U.........
02F0: 7F 66 64 6F 31 45 04 80  F8 FF FF 7F F8 FF FF 7F  .fdo1E..........
0300: 73 65 30 31 01 80 52 04  80 F0 FF FF 7F F0 FF FF  se01..R.........
0310: 7F 73 30 33 33 2A 08 6A  B1 10 01 06 00 00 02 00  .s033*.j........
0320: 00 01 80 00 3C 06 1C 16  80 45 04 80 F0 FF FF 7F  ....<....E......
0330: F0 FF FF 7F 73 30 32 37  01 80 45 00 80 F0 FF FF  ....s027..E.....
0340: 7F F0 FF FF 7F 66 64 69  31 01 80 55 00 80 F0 FF  .....fdi1..U....
0350: FF 7F F0 FF FF 7F 66 64  69 31 2B 6A B1 10 01 1D  ......fdi1+j....
0360: 80 23 27 08 6A B1 10 01  0F 45 00 80 F0 FF FF 7F  .#'.j....E......
0370: F0 FF FF 7F 66 64 6F 31  01 80 55 00 80 F0 FF FF  ....fdo1..U.....
0380: 7F F0 FF FF 7F 66 64 6F  31 45 04 80 F8 FF FF 7F  .....fdo1E......
0390: F8 FF FF 7F 73 65 30 32  01 80 2A 08 6A B1 10 01  ....se02..*.j...
03A0: 52 04 80 F0 FF FF 7F F0  FF FF 7F 73 30 32 37 29  R..........s027)
03B0: 08 6A B1 10 01 11 4A 6A  B1 10 01 F0 FF FF 7F 6F  .j....Jj.......o
03C0: 76 6A B1 10 01 1C 16 80  79 00 F0 FF FF 7F 6A B1  vj......y.....j.
03D0: 10 01 02 09 10 1E 80 00  EE 03 45 04 80 F0 FF FF  ..........E.....
03E0: 7F F0 FF FF 7F 73 30 33  34 01 80 01 1B 04 02 09  .....s034.......
03F0: 10 1F 80 00 0A 04 45 04  80 F0 FF FF 7F F0 FF FF  ......E.........
0400: 7F 73 30 33 34 01 80 01  1B 04 45 04 80 F0 FF FF  .s034.....E.....
0410: 7F F0 FF FF 7F 73 30 32  36 01 80 45 00 80 F0 FF  .....s026..E....
0420: FF 7F F0 FF FF 7F 66 64  69 31 01 80 55 00 80 F0  ......fdi1..U...
0430: FF FF 7F F0 FF FF 7F 66  64 69 31 2B 6A B1 10 01  .......fdi1+j...
0440: 20 80 23 02 09 10 1E 80  00 5D 04 52 04 80 F0 FF   .#......].R....
0450: FF 7F F0 FF FF 7F 73 30  33 34 01 86 04 02 09 10  ......s034......
0460: 1F 80 00 77 04 52 04 80  F0 FF FF 7F F0 FF FF 7F  ...w.R..........
0470: 73 30 33 34 01 86 04 52  04 80 F0 FF FF 7F F0 FF  s034...R........
0480: FF 7F 73 30 32 36 24 21  80 01 80 01 80 25 02 00  ..s026$!.....%..
0490: 10 01 80 00 A1 05 03 01  10 10 80 05 00 00 45 04  ..............E.
04A0: 80 F0 FF FF 7F F0 FF FF  7F 73 30 32 38 01 80 2B  .........s028..+
04B0: 6A B1 10 01 22 80 23 2B  6A B1 10 01 23 80 23 52  j...".#+j...#.#R
04C0: 04 80 F0 FF FF 7F F0 FF  FF 7F 73 30 32 38 45 00  ..........s028E.
04D0: 80 F0 FF FF 7F F0 FF FF  7F 66 64 6F 31 01 80 55  .........fdo1..U
04E0: 00 80 F0 FF FF 7F F0 FF  FF 7F 66 64 6F 31 5D 01  ..........fdo1].
04F0: 80 03 80 1C 16 80 48 15  80 23 29 08 F0 FF FF 7F  ......H..#).....
0500: 0B 29 08 6A B1 10 01 18  80 6A B1 10 01 79 00 6A  .).j.....j...y.j
0510: B1 10 01 F0 FF FF 7F 79  00 F0 FF FF 7F 6A B1 10  .......y.....j..
0520: 01 29 08 6A B1 10 01 1B  45 04 80 F0 FF FF 7F F0  .).j....E.......
0530: FF FF 7F 73 30 32 39 01  80 45 00 80 F0 FF FF 7F  ...s029..E......
0540: F0 FF FF 7F 66 64 69 31  01 80 55 00 80 F0 FF FF  ....fdi1..U.....
0550: 7F F0 FF FF 7F 66 64 69  31 1C 1A 80 1C 1A 80 52  .....fdi1......R
0560: 04 80 F0 FF FF 7F F0 FF  FF 7F 73 30 32 39 45 04  ..........s029E.
0570: 80 F0 FF FF 7F F0 FF FF  7F 73 30 33 30 01 80 2B  .........s030..+
0580: 6A B1 10 01 24 80 23 2B  6A B1 10 01 25 80 23 52  j...$.#+j...%.#R
0590: 04 80 F0 FF FF 7F F0 FF  FF 7F 73 30 33 30 01 39  ..........s030.9
05A0: 06 02 00 10 10 80 00 39  06 03 01 10 26 80 45 04  .......9....&.E.
05B0: 80 F0 FF FF 7F F0 FF FF  7F 73 30 33 31 01 80 7B  .........s031..{
05C0: 6A B1 10 01 4B 6A B1 10  01 1B 80 6F 76 6A B1 10  j...Kj.....ovj..
05D0: 01 27 08 6A B1 10 01 10  2B 6A B1 10 01 27 80 23  .'.j....+j...'.#
05E0: 2A 08 6A B1 10 01 1C 26  80 27 08 6A B1 10 01 0F  *.j....&.'.j....
05F0: 45 00 80 F0 FF FF 7F F0  FF FF 7F 66 64 6F 31 01  E..........fdo1.
0600: 80 55 00 80 F0 FF FF 7F  F0 FF FF 7F 66 64 6F 31  .U..........fdo1
0610: 45 04 80 F8 FF FF 7F F8  FF FF 7F 73 65 30 31 01  E..........se01.
0620: 80 2A 08 6A B1 10 01 52  04 80 F0 FF FF 7F F0 FF  .*.j...R........
0630: FF 7F 73 30 33 31 01 39  06 01 1E 03 45 00 80 F0  ..s031.9....E...
0640: FF FF 7F F0 FF FF 7F 66  64 6F 31 01 80 55 00 80  .......fdo1..U..
0650: F0 FF FF 7F F0 FF FF 7F  66 64 6F 31 45 28 80 F8  ........fdo1E(..
0660: FF FF 7F F8 FF FF 7F 71  73 74 63 01 80 5C 00 29  .......qstc..\.)
0670: 80 5C 01 29 80 9A 5D 0F  80 10 80 1C 26 80 46 00  .\.)..].....&.F.
0680: 45 00 80 F0 FF FF 7F F0  FF FF 7F 66 64 69 31 01  E..........fdi1.
0690: 80 20 00 21 00                                    . .!.           
```

#### Opcodes

```
  0: 0x0001 [0x42] SET_CLI_EVENT_CANCEL_DATA()
  1: 0x0002 [0x46] CAMERA_CONTROL: Disable user control
  2: 0x0004 [0x45] LOAD_SCHEDULED_TASK: Load scheduler "fdo1" with entities [LocalPlayer, LocalPlayer], work=[200*, 0*]
  3: 0x0015 [0x55] WAIT_LOAD_SCHEDULER: Wait for scheduler "fdo1" with entities [LocalPlayer, LocalPlayer], work=200*
  4: 0x0024 [0x38] SET_CLIENT_EVENT_MODE(mode=19*)
  5: 0x0027 [0x5D] SET_MUSIC_VOLUME(volume=0*, fade_time=100*)
  6: 0x002C [0x29] REQ_SET_WAIT(priority=0x08, entity_id=LocalPlayer, tag_num=0x0B)
  7: 0x0033 [0x80] LOAD_WAIT(entity=Traiffeaux (ID: 17871210/0x0110B16A))
  8: 0x0038 [0x92] Traiffeaux (ID: 17871210/0x0110B16A)->Render.Flags3 ^= 0x01
  9: 0x003E [0x29] REQ_SET_WAIT(priority=0x08, entity_id=Traiffeaux (ID: 17871210/0x0110B16A), tag_num=0x11)
 10: 0x0045 [0x29] REQ_SET_WAIT(priority=0x08, entity_id=LocalPlayer, tag_num=0x08)
 11: 0x004C [0x79] Traiffeaux (ID: 17871210/0x0110B16A) looks at LocalPlayer (Basic look)
 12: 0x0056 [0x45] LOAD_SCHEDULED_TASK: Load scheduler "s032" with entities [LocalPlayer, LocalPlayer], work=[667*, 0*]
 13: 0x0067 [0x45] LOAD_SCHEDULED_TASK: Load scheduler "fdi1" with entities [LocalPlayer, LocalPlayer], work=[200*, 0*]
 14: 0x0078 [0x55] WAIT_LOAD_SCHEDULER: Wait for scheduler "fdi1" with entities [LocalPlayer, LocalPlayer], work=200*
 15: 0x0087 [0x2B] Traiffeaux (ID: 17871210/0x0110B16A) [7782*]:
    → "(I must c-confess that I thought the desolate drifts would get the better of you. Congratulations on making it back in one piece.)"
 16: 0x008E [0x23] WAIT_FOR_DIALOG_INTERACTION
 17: 0x008F [0x52] END_LOAD_SCHEDULER: End scheduler "s032" with entities [LocalPlayer, LocalPlayer], work=667*
 18: 0x009E [0x45] LOAD_SCHEDULED_TASK: Load scheduler "s021" with entities [LocalPlayer, LocalPlayer], work=[667*, 0*]
 19: 0x00AF [0x9F] LOAD_SCHEDULED_TASK_ALT: Load scheduler "frst" with entities [Traiffeaux (ID: 17871210/0x0110B16A), Traiffeaux (ID: 17871210/0x0110B16A)], work=[191*, 0*]
 20: 0x00C0 [0x1C] WAIT(120* ticks)
 21: 0x00C3 [0x9F] LOAD_SCHEDULED_TASK_ALT: Load scheduler "ok00" with entities [Traiffeaux (ID: 17871210/0x0110B16A), Traiffeaux (ID: 17871210/0x0110B16A)], work=[191*, 0*]
 22: 0x00D4 [0x1C] WAIT(180* ticks)
 23: 0x00D7 [0x52] END_LOAD_SCHEDULER: End scheduler "s021" with entities [LocalPlayer, LocalPlayer], work=667*
 24: 0x00E6 [0x45] LOAD_SCHEDULED_TASK: Load scheduler "s020" with entities [LocalPlayer, LocalPlayer], work=[667*, 0*]
 25: 0x00F7 [0x27] REQ_SET(priority=0x08, entity_id=Traiffeaux (ID: 17871210/0x0110B16A), tag_num=0x0E)
 26: 0x00FE [0x1C] WAIT(40* ticks)
 27: 0x0101 [0x2B] Traiffeaux (ID: 17871210/0x0110B16A) [7784*]:
    → "(And h-here you are. Your very own $3.)"
 28: 0x0108 [0x23] WAIT_FOR_DIALOG_INTERACTION
 29: 0x0109 [0x2B] Traiffeaux (ID: 17871210/0x0110B16A) [7785*]:
    → "(I shall accompany you to an ice w-wall. That much energy I can spare, as long as you're not that cursed Taru.)"
 30: 0x0110 [0x23] WAIT_FOR_DIALOG_INTERACTION
 31: 0x0111 [0x2A] GET_REQ_LEVEL(level=8, entity_id=Traiffeaux (ID: 17871210/0x0110B16A))
 32: 0x0117 [0x52] END_LOAD_SCHEDULER: End scheduler "s020" with entities [LocalPlayer, LocalPlayer], work=667*
 33: 0x0126 [0x45] LOAD_SCHEDULED_TASK: Load scheduler "s022" with entities [LocalPlayer, LocalPlayer], work=[667*, 0*]
 34: 0x0137 [0x7B] Traiffeaux (ID: 17871210/0x0110B16A) stops talking
 35: 0x013C [0x27] REQ_SET(priority=0x08, entity_id=Traiffeaux (ID: 17871210/0x0110B16A), tag_num=0x19)
 36: 0x0143 [0x1C] WAIT(50* ticks)
 37: 0x0146 [0x4A] LocalPlayer looks at Traiffeaux (ID: 17871210/0x0110B16A)
 38: 0x014F [0x1C] WAIT(30* ticks)
 39: 0x0152 [0x45] LOAD_SCHEDULED_TASK: Load scheduler "fdo1" with entities [LocalPlayer, LocalPlayer], work=[200*, 0*]
 40: 0x0163 [0x55] WAIT_LOAD_SCHEDULER: Wait for scheduler "fdo1" with entities [LocalPlayer, LocalPlayer], work=200*
 41: 0x0172 [0x6F] WAIT_FRAME_DELAY: Yield until WaitTime reaches zero
 42: 0x0173 [0x76] CHECK_ENTITY_RENDER_FLAGS: Wait until LocalPlayer Render.Flags0 and Render.Flags3 conditions are met
 43: 0x0178 [0x5C] MUSIC_CONTROL: Set Idle (Day) music to song 159*
 44: 0x017C [0x5C] MUSIC_CONTROL: Set Idle (Night) music to song 159*
 45: 0x0180 [0x9A] WAIT_MUSIC_SERVER()
 46: 0x0181 [0x5D] SET_MUSIC_VOLUME(volume=127*, fade_time=1*)
 47: 0x0186 [0x52] END_LOAD_SCHEDULER: End scheduler "s022" with entities [LocalPlayer, LocalPlayer], work=667*
 48: 0x0195 [0x29] REQ_SET_WAIT(priority=0x08, entity_id=Traiffeaux (ID: 17871210/0x0110B16A), tag_num=0x1C)
 49: 0x019C [0x29] REQ_SET_WAIT(priority=0x08, entity_id=LocalPlayer, tag_num=0x0C)
 50: 0x01A3 [0x37] UPDATE_EVENT_POSITION_AND_DIR: x=113.805*, z=-273.805*, y=40.472*, direction=230.4°*
 51: 0x01AC [0x80] LOAD_WAIT(entity=Traiffeaux (ID: 17871210/0x0110B16A))
 52: 0x01B1 [0x80] LOAD_WAIT(entity=LocalPlayer)
 53: 0x01B6 [0x48] [System] [7783*]:
    → ""
 54: 0x01B9 [0x23] WAIT_FOR_DIALOG_INTERACTION
 55: 0x01BA [0x45] LOAD_SCHEDULED_TASK: Load scheduler "s023" with entities [LocalPlayer, LocalPlayer], work=[667*, 0*]
 56: 0x01CB [0x27] REQ_SET(priority=0x08, entity_id=Traiffeaux (ID: 17871210/0x0110B16A), tag_num=0x1D)
 57: 0x01D2 [0x27] REQ_SET(priority=0x08, entity_id=LocalPlayer, tag_num=0x0D)
 58: 0x01D9 [0x45] LOAD_SCHEDULED_TASK: Load scheduler "fdi1" with entities [LocalPlayer, LocalPlayer], work=[200*, 0*]
 59: 0x01EA [0x55] WAIT_LOAD_SCHEDULER: Wait for scheduler "fdi1" with entities [LocalPlayer, LocalPlayer], work=200*
 60: 0x01F9 [0x1C] WAIT(90* ticks)
 61: 0x01FC [0x52] END_LOAD_SCHEDULER: End scheduler "s023" with entities [LocalPlayer, LocalPlayer], work=667*
 62: 0x020B [0x45] LOAD_SCHEDULED_TASK: Load scheduler "s024" with entities [LocalPlayer, LocalPlayer], work=[667*, 0*]
 63: 0x021C [0x1C] WAIT(90* ticks)
 64: 0x021F [0x2A] GET_REQ_LEVEL(level=8, entity_id=Traiffeaux (ID: 17871210/0x0110B16A))
 65: 0x0225 [0x52] END_LOAD_SCHEDULER: End scheduler "s024" with entities [LocalPlayer, LocalPlayer], work=667*
 66: 0x0234 [0x45] LOAD_SCHEDULED_TASK: Load scheduler "s025" with entities [LocalPlayer, LocalPlayer], work=[667*, 0*]
 67: 0x0245 [0x2B] Traiffeaux (ID: 17871210/0x0110B16A) [7786*]:
    → "(Y-yes. This one should do nicely.)"
 68: 0x024C [0x23] WAIT_FOR_DIALOG_INTERACTION
 69: 0x024D [0x79] Traiffeaux (ID: 17871210/0x0110B16A) looks at LocalPlayer (Basic look)
 70: 0x0257 [0x4B] UPDATE_ENTITY_YAW(entity=Traiffeaux (ID: 17871210/0x0110B16A), yaw=7.4°*)
 71: 0x025E [0x6F] WAIT_FRAME_DELAY: Yield until WaitTime reaches zero
 72: 0x025F [0x76] CHECK_ENTITY_RENDER_FLAGS: Wait until Traiffeaux (ID: 17871210/0x0110B16A) Render.Flags0 and Render.Flags3 conditions are met
 73: 0x0264 [0x2B] Traiffeaux (ID: 17871210/0x0110B16A) [7787*]:
    → "(I shall tap on the ice while you l-listen to the sounds with your $3.)"
 74: 0x026B [0x23] WAIT_FOR_DIALOG_INTERACTION
 75: 0x026C [0x2A] GET_REQ_LEVEL(level=8, entity_id=LocalPlayer)
 76: 0x0272 [0x7B] LocalPlayer stops talking
 77: 0x0277 [0x27] REQ_SET(priority=0x08, entity_id=LocalPlayer, tag_num=0x0E)
 78: 0x027E [0x1C] WAIT(60* ticks)
 79: 0x0281 [0x7B] Traiffeaux (ID: 17871210/0x0110B16A) stops talking
 80: 0x0286 [0x4B] UPDATE_ENTITY_YAW(entity=Traiffeaux (ID: 17871210/0x0110B16A), yaw=13.4°*)
 81: 0x028D [0x52] END_LOAD_SCHEDULER: End scheduler "s025" with entities [LocalPlayer, LocalPlayer], work=667*
 82: 0x029C [0x45] LOAD_SCHEDULED_TASK: Load scheduler "s033" with entities [LocalPlayer, LocalPlayer], work=[667*, 0*]
 83: 0x02AD [0x6F] WAIT_FRAME_DELAY: Yield until WaitTime reaches zero
 84: 0x02AE [0x76] CHECK_ENTITY_RENDER_FLAGS: Wait until Traiffeaux (ID: 17871210/0x0110B16A) Render.Flags0 and Render.Flags3 conditions are met
 85: 0x02B3 [0x27] REQ_SET(priority=0x08, entity_id=Traiffeaux (ID: 17871210/0x0110B16A), tag_num=0x10)
 86: 0x02BA [0x2B] Traiffeaux (ID: 17871210/0x0110B16A) [7788*]:
    → "(Are you ready? First, I will thump an a-area that is not the eye.)"
 87: 0x02C1 [0x23] WAIT_FOR_DIALOG_INTERACTION
 88: 0x02C2 [0x2A] GET_REQ_LEVEL(level=8, entity_id=Traiffeaux (ID: 17871210/0x0110B16A))
 89: 0x02C8 [0x2A] GET_REQ_LEVEL(level=8, entity_id=LocalPlayer)
 90: 0x02CE [0x27] REQ_SET(priority=0x08, entity_id=Traiffeaux (ID: 17871210/0x0110B16A), tag_num=0x0F)
 91: 0x02D5 [0x45] LOAD_SCHEDULED_TASK: Load scheduler "fdo1" with entities [LocalPlayer, LocalPlayer], work=[200*, 0*]
 92: 0x02E6 [0x55] WAIT_LOAD_SCHEDULER: Wait for scheduler "fdo1" with entities [LocalPlayer, LocalPlayer], work=200*
 93: 0x02F5 [0x45] LOAD_SCHEDULED_TASK: Load scheduler "se01" with entities [EventEntity, EventEntity], work=[667*, 0*]
 94: 0x0306 [0x52] END_LOAD_SCHEDULER: End scheduler "s033" with entities [LocalPlayer, LocalPlayer], work=667*
 95: 0x0315 [0x2A] GET_REQ_LEVEL(level=8, entity_id=Traiffeaux (ID: 17871210/0x0110B16A))
 96: 0x031B [0x06] ExtData[1]->WorkLocal[0] = 0
 97: 0x031E [0x02] IF !(ExtData[1]->WorkLocal[0] == 0*) GOTO 0x063C
 98: 0x0326 [0x1C] WAIT(90* ticks)
 99: 0x0329 [0x45] LOAD_SCHEDULED_TASK: Load scheduler "s027" with entities [LocalPlayer, LocalPlayer], work=[667*, 0*]
100: 0x033A [0x45] LOAD_SCHEDULED_TASK: Load scheduler "fdi1" with entities [LocalPlayer, LocalPlayer], work=[200*, 0*]
101: 0x034B [0x55] WAIT_LOAD_SCHEDULER: Wait for scheduler "fdi1" with entities [LocalPlayer, LocalPlayer], work=200*
102: 0x035A [0x2B] Traiffeaux (ID: 17871210/0x0110B16A) [7789*]:
    → "(...And now, the eye itself.)"
103: 0x0361 [0x23] WAIT_FOR_DIALOG_INTERACTION
104: 0x0362 [0x27] REQ_SET(priority=0x08, entity_id=Traiffeaux (ID: 17871210/0x0110B16A), tag_num=0x0F)
105: 0x0369 [0x45] LOAD_SCHEDULED_TASK: Load scheduler "fdo1" with entities [LocalPlayer, LocalPlayer], work=[200*, 0*]
106: 0x037A [0x55] WAIT_LOAD_SCHEDULER: Wait for scheduler "fdo1" with entities [LocalPlayer, LocalPlayer], work=200*
107: 0x0389 [0x45] LOAD_SCHEDULED_TASK: Load scheduler "se02" with entities [EventEntity, EventEntity], work=[667*, 0*]
108: 0x039A [0x2A] GET_REQ_LEVEL(level=8, entity_id=Traiffeaux (ID: 17871210/0x0110B16A))
109: 0x03A0 [0x52] END_LOAD_SCHEDULER: End scheduler "s027" with entities [LocalPlayer, LocalPlayer], work=667*
110: 0x03AF [0x29] REQ_SET_WAIT(priority=0x08, entity_id=Traiffeaux (ID: 17871210/0x0110B16A), tag_num=0x11)
111: 0x03B6 [0x4A] Traiffeaux (ID: 17871210/0x0110B16A) looks at LocalPlayer
112: 0x03BF [0x6F] WAIT_FRAME_DELAY: Yield until WaitTime reaches zero
113: 0x03C0 [0x76] CHECK_ENTITY_RENDER_FLAGS: Wait until Traiffeaux (ID: 17871210/0x0110B16A) Render.Flags0 and Render.Flags3 conditions are met
114: 0x03C5 [0x1C] WAIT(90* ticks)
115: 0x03C8 [0x79] LocalPlayer looks at Traiffeaux (ID: 17871210/0x0110B16A) (Basic look)
116: 0x03D2 [0x02] IF !(Work_Zone[9] == 5*) GOTO 0x03EE
117: 0x03DA [0x45] LOAD_SCHEDULED_TASK: Load scheduler "s034" with entities [LocalPlayer, LocalPlayer], work=[667*, 0*]
118: 0x03EB [0x01] GOTO 0x041B
119: 0x03EE [0x02] IF !(Work_Zone[9] == 6*) GOTO 0x040A
120: 0x03F6 [0x45] LOAD_SCHEDULED_TASK: Load scheduler "s034" with entities [LocalPlayer, LocalPlayer], work=[667*, 0*]
121: 0x0407 [0x01] GOTO 0x041B
122: 0x040A [0x45] LOAD_SCHEDULED_TASK: Load scheduler "s026" with entities [LocalPlayer, LocalPlayer], work=[667*, 0*]

SUBROUTINE_041B:
123: 0x041B [0x45] LOAD_SCHEDULED_TASK: Load scheduler "fdi1" with entities [LocalPlayer, LocalPlayer], work=[200*, 0*]
124: 0x042C [0x55] WAIT_LOAD_SCHEDULER: Wait for scheduler "fdi1" with entities [LocalPlayer, LocalPlayer], work=200*
125: 0x043B [0x2B] Traiffeaux (ID: 17871210/0x0110B16A) [7790*]:
    → "(Could you t-tell the difference?)"
126: 0x0442 [0x23] WAIT_FOR_DIALOG_INTERACTION
127: 0x0443 [0x02] IF !(Work_Zone[9] == 5*) GOTO 0x045D
128: 0x044B [0x52] END_LOAD_SCHEDULER: End scheduler "s034" with entities [LocalPlayer, LocalPlayer], work=667*
129: 0x045A [0x01] GOTO 0x0486
130: 0x045D [0x02] IF !(Work_Zone[9] == 6*) GOTO 0x0477
131: 0x0465 [0x52] END_LOAD_SCHEDULER: End scheduler "s034" with entities [LocalPlayer, LocalPlayer], work=667*
132: 0x0474 [0x01] GOTO 0x0486
133: 0x0477 [0x52] END_LOAD_SCHEDULER: End scheduler "s026" with entities [LocalPlayer, LocalPlayer], work=667*

SUBROUTINE_0486:
134: 0x0486 [0x24] CREATE_DIALOG(message_id=7791*, default_option=0*, option_flags=0*)
    → "What's your conclusion? [I think I've got it./Let's run that over again.]"
135: 0x048D [0x25] WAIT_DIALOG_SELECT()
136: 0x048E [0x02] IF !(Work_Zone[0] == 0*) GOTO 0x05A1
137: 0x0496 [0x03] Work_Zone[1] = 1*
138: 0x049B [0x05] ExtData[1]->WorkLocal[0] = 1
139: 0x049E [0x45] LOAD_SCHEDULED_TASK: Load scheduler "s028" with entities [LocalPlayer, LocalPlayer], work=[667*, 0*]
140: 0x04AF [0x2B] Traiffeaux (ID: 17871210/0x0110B16A) [7793*]:
    → "(That is all the help I am able to p-provide. You should now be able to break such walls by striking at the eye.)"
141: 0x04B6 [0x23] WAIT_FOR_DIALOG_INTERACTION
142: 0x04B7 [0x2B] Traiffeaux (ID: 17871210/0x0110B16A) [7794*]:
    → "(L-let us return so we may warm our frigid bodies.)"
143: 0x04BE [0x23] WAIT_FOR_DIALOG_INTERACTION
144: 0x04BF [0x52] END_LOAD_SCHEDULER: End scheduler "s028" with entities [LocalPlayer, LocalPlayer], work=667*
145: 0x04CE [0x45] LOAD_SCHEDULED_TASK: Load scheduler "fdo1" with entities [LocalPlayer, LocalPlayer], work=[200*, 0*]
146: 0x04DF [0x55] WAIT_LOAD_SCHEDULER: Wait for scheduler "fdo1" with entities [LocalPlayer, LocalPlayer], work=200*
147: 0x04EE [0x5D] SET_MUSIC_VOLUME(volume=0*, fade_time=100*)
148: 0x04F3 [0x1C] WAIT(90* ticks)
149: 0x04F6 [0x48] [System] [7783*]:
    → ""
150: 0x04F9 [0x23] WAIT_FOR_DIALOG_INTERACTION
151: 0x04FA [0x29] REQ_SET_WAIT(priority=0x08, entity_id=LocalPlayer, tag_num=0x0B)
152: 0x0501 [0x29] REQ_SET_WAIT(priority=0x08, entity_id=Traiffeaux (ID: 17871210/0x0110B16A), tag_num=0x18)
153: 0x0508 [0x80] LOAD_WAIT(entity=Traiffeaux (ID: 17871210/0x0110B16A))
154: 0x050D [0x79] Traiffeaux (ID: 17871210/0x0110B16A) looks at LocalPlayer (Basic look)
155: 0x0517 [0x79] LocalPlayer looks at Traiffeaux (ID: 17871210/0x0110B16A) (Basic look)
156: 0x0521 [0x29] REQ_SET_WAIT(priority=0x08, entity_id=Traiffeaux (ID: 17871210/0x0110B16A), tag_num=0x1B)
157: 0x0528 [0x45] LOAD_SCHEDULED_TASK: Load scheduler "s029" with entities [LocalPlayer, LocalPlayer], work=[667*, 0*]
158: 0x0539 [0x45] LOAD_SCHEDULED_TASK: Load scheduler "fdi1" with entities [LocalPlayer, LocalPlayer], work=[200*, 0*]
159: 0x054A [0x55] WAIT_LOAD_SCHEDULER: Wait for scheduler "fdi1" with entities [LocalPlayer, LocalPlayer], work=200*
160: 0x0559 [0x1C] WAIT(60* ticks)
161: 0x055C [0x1C] WAIT(60* ticks)
162: 0x055F [0x52] END_LOAD_SCHEDULER: End scheduler "s029" with entities [LocalPlayer, LocalPlayer], work=667*
163: 0x056E [0x45] LOAD_SCHEDULED_TASK: Load scheduler "s030" with entities [LocalPlayer, LocalPlayer], work=[667*, 0*]
164: 0x057F [0x2B] Traiffeaux (ID: 17871210/0x0110B16A) [7795*]:
    → "(Knowing the location of the eye is only the f-first step. Breaking the wall requires immense physical fortitude.)"
165: 0x0586 [0x23] WAIT_FOR_DIALOG_INTERACTION
166: 0x0587 [0x2B] Traiffeaux (ID: 17871210/0x0110B16A) [7796*]:
    → "(Yet you have come this far. I am c-confident that you will see this task to its natural conclusion.)"
167: 0x058E [0x23] WAIT_FOR_DIALOG_INTERACTION
168: 0x058F [0x52] END_LOAD_SCHEDULER: End scheduler "s030" with entities [LocalPlayer, LocalPlayer], work=667*
169: 0x059E [0x01] GOTO 0x0639
170: 0x05A1 [0x02] IF !(Work_Zone[0] == 1*) GOTO 0x0639
171: 0x05A9 [0x03] Work_Zone[1] = 2*
172: 0x05AE [0x45] LOAD_SCHEDULED_TASK: Load scheduler "s031" with entities [LocalPlayer, LocalPlayer], work=[667*, 0*]
173: 0x05BF [0x7B] Traiffeaux (ID: 17871210/0x0110B16A) stops talking
174: 0x05C4 [0x4B] UPDATE_ENTITY_YAW(entity=Traiffeaux (ID: 17871210/0x0110B16A), yaw=13.4°*)
175: 0x05CB [0x6F] WAIT_FRAME_DELAY: Yield until WaitTime reaches zero
176: 0x05CC [0x76] CHECK_ENTITY_RENDER_FLAGS: Wait until Traiffeaux (ID: 17871210/0x0110B16A) Render.Flags0 and Render.Flags3 conditions are met
177: 0x05D1 [0x27] REQ_SET(priority=0x08, entity_id=Traiffeaux (ID: 17871210/0x0110B16A), tag_num=0x10)
178: 0x05D8 [0x2B] Traiffeaux (ID: 17871210/0x0110B16A) [7792*]:
    → "(Understood. Let me tap on a s-section that is not the eye.)"
179: 0x05DF [0x23] WAIT_FOR_DIALOG_INTERACTION
180: 0x05E0 [0x2A] GET_REQ_LEVEL(level=8, entity_id=Traiffeaux (ID: 17871210/0x0110B16A))
181: 0x05E6 [0x1C] WAIT(2* ticks)
182: 0x05E9 [0x27] REQ_SET(priority=0x08, entity_id=Traiffeaux (ID: 17871210/0x0110B16A), tag_num=0x0F)
183: 0x05F0 [0x45] LOAD_SCHEDULED_TASK: Load scheduler "fdo1" with entities [LocalPlayer, LocalPlayer], work=[200*, 0*]
184: 0x0601 [0x55] WAIT_LOAD_SCHEDULER: Wait for scheduler "fdo1" with entities [LocalPlayer, LocalPlayer], work=200*
185: 0x0610 [0x45] LOAD_SCHEDULED_TASK: Load scheduler "se01" with entities [EventEntity, EventEntity], work=[667*, 0*]
186: 0x0621 [0x2A] GET_REQ_LEVEL(level=8, entity_id=Traiffeaux (ID: 17871210/0x0110B16A))
187: 0x0627 [0x52] END_LOAD_SCHEDULER: End scheduler "s031" with entities [LocalPlayer, LocalPlayer], work=667*
188: 0x0636 [0x01] GOTO 0x0639

SUBROUTINE_0639:
189: 0x0639 [0x01] GOTO 0x031E
190: 0x063C [0x45] LOAD_SCHEDULED_TASK: Load scheduler "fdo1" with entities [LocalPlayer, LocalPlayer], work=[200*, 0*]
191: 0x064D [0x55] WAIT_LOAD_SCHEDULER: Wait for scheduler "fdo1" with entities [LocalPlayer, LocalPlayer], work=200*
192: 0x065C [0x45] LOAD_SCHEDULED_TASK: Load scheduler "qstc" with entities [EventEntity, EventEntity], work=[201*, 0*]
193: 0x066D [0x5C] MUSIC_CONTROL: Set Idle (Day) music to song 72*
194: 0x0671 [0x5C] MUSIC_CONTROL: Set Idle (Night) music to song 72*
195: 0x0675 [0x9A] WAIT_MUSIC_SERVER()
196: 0x0676 [0x5D] SET_MUSIC_VOLUME(volume=127*, fade_time=1*)
197: 0x067B [0x1C] WAIT(2* ticks)
198: 0x067E [0x46] CAMERA_CONTROL: Restore default settings
199: 0x0680 [0x45] LOAD_SCHEDULED_TASK: Load scheduler "fdi1" with entities [LocalPlayer, LocalPlayer], work=[200*, 0*]
200: 0x0691 [0x20] SET_CLI_EVENT_UC_FLAG: Unlock player control
201: 0x0693 [0x21] END_EVENT
202: 0x0694 [0x00] END_REQSTACK()
```

### Event 40

#### Metadata

| Field        | Value      |
|--------------|------------|
| Entrypoint   | 0x0695     |
| Data Size    | 3770 bytes |
| Instructions | 468        |

```
      00 01 02 03 04 05 06 07  08 09 0A 0B 0C 0D 0E 0F
      -- -- -- -- -- -- -- --  -- -- -- -- -- -- -- --
0690:                42 46 01  45 00 80 F0 FF FF 7F F0       BF.E.......
06A0: FF FF 7F 66 64 6F 31 01  80 55 00 80 F0 FF FF 7F  ...fdo1..U......
06B0: F0 FF FF 7F 66 64 6F 31  38 02 80 5D 01 80 03 80  ....fdo18..]....
06C0: 2F 00 6C B1 10 01 4E 00  6C B1 10 01 29 08 F0 FF  /.l...N.l...)...
06D0: FF 7F 0F 29 08 6C B1 10  01 4B 92 01 6B B1 10 01  ...).l...K..k...
06E0: 92 01 6C B1 10 01 92 01  6A B1 10 01 80 6C B1 10  ..l.....j....l..
06F0: 01 4A 6B B1 10 01 F0 FF  FF 7F 4A F0 FF FF 7F 6B  .Jk.......J....k
0700: B1 10 01 6F 76 6B B1 10  01 6F 76 F0 FF FF 7F 29  ...ovk...ov....)
0710: 08 F0 FF FF 7F 08 5C 00  2A 80 5C 01 2A 80 9A 5D  ......\.*.\.*..]
0720: 0F 80 10 80 02 09 10 1E  80 00 40 07 45 2B 80 F0  ..........@.E+..
0730: FF FF 7F F0 FF FF 7F 73  30 34 33 01 80 01 89 07  .......s043.....
0740: 02 09 10 1F 80 00 5C 07  45 2B 80 F0 FF FF 7F F0  ......\.E+......
0750: FF FF 7F 73 30 34 33 01  80 01 89 07 02 09 10 2C  ...s043........,
0760: 80 00 78 07 45 2B 80 F0  FF FF 7F F0 FF FF 7F 73  ..x.E+.........s
0770: 30 34 37 01 80 01 89 07  45 2B 80 F0 FF FF 7F F0  047.....E+......
0780: FF FF 7F 73 30 30 31 01  80 45 00 80 F0 FF FF 7F  ...s001..E......
0790: F0 FF FF 7F 66 64 69 31  01 80 55 00 80 F0 FF FF  ....fdi1..U.....
07A0: 7F F0 FF FF 7F 66 64 69  31 29 08 6B B1 10 01 06  .....fdi1).k....
07B0: 2B 6B B1 10 01 2D 80 23  29 08 6B B1 10 01 07 2B  +k...-.#).k....+
07C0: 6C B1 10 01 2E 80 23 79  00 6B B1 10 01 6C B1 10  l.....#y.k...l..
07D0: 01 29 08 6B B1 10 01 08  29 08 6B B1 10 01 09 02  .).k....).k.....
07E0: 09 10 1E 80 00 F9 07 52  2B 80 F0 FF FF 7F F0 FF  .......R+.......
07F0: FF 7F 73 30 34 33 01 3C  08 02 09 10 1F 80 00 13  ..s043.<........
0800: 08 52 2B 80 F0 FF FF 7F  F0 FF FF 7F 73 30 34 33  .R+.........s043
0810: 01 3C 08 02 09 10 2C 80  00 2D 08 52 2B 80 F0 FF  .<....,..-.R+...
0820: FF 7F F0 FF FF 7F 73 30  34 37 01 3C 08 52 2B 80  ......s047.<.R+.
0830: F0 FF FF 7F F0 FF FF 7F  73 30 30 31 02 09 10 1E  ........s001....
0840: 80 00 58 08 45 2B 80 F0  FF FF 7F F0 FF FF 7F 73  ..X.E+.........s
0850: 30 34 34 01 80 01 A1 08  02 09 10 1F 80 00 74 08  044...........t.
0860: 45 2B 80 F0 FF FF 7F F0  FF FF 7F 73 30 34 34 01  E+.........s044.
0870: 80 01 A1 08 02 09 10 2C  80 00 90 08 45 2B 80 F0  .......,....E+..
0880: FF FF 7F F0 FF FF 7F 73  30 34 38 01 80 01 A1 08  .......s048.....
0890: 45 2B 80 F0 FF FF 7F F0  FF FF 7F 73 30 30 32 01  E+.........s002.
08A0: 80 4A F0 FF FF 7F 6C B1  10 01 27 08 6C B1 10 01  .J....l...'.l...
08B0: 4C 1C 2F 80 02 09 10 1E  80 00 CE 08 52 2B 80 F0  L./.........R+..
08C0: FF FF 7F F0 FF FF 7F 73  30 34 34 01 11 09 02 09  .......s044.....
08D0: 10 1F 80 00 E8 08 52 2B  80 F0 FF FF 7F F0 FF FF  ......R+........
08E0: 7F 73 30 34 34 01 11 09  02 09 10 2C 80 00 02 09  .s044......,....
08F0: 52 2B 80 F0 FF FF 7F F0  FF FF 7F 73 30 34 38 01  R+.........s048.
0900: 11 09 52 2B 80 F0 FF FF  7F F0 FF FF 7F 73 30 30  ..R+.........s00
0910: 32 45 2B 80 F0 FF FF 7F  F0 FF FF 7F 73 30 30 33  2E+.........s003
0920: 01 80 4A 6B B1 10 01 6C  B1 10 01 1C 0D 80 6F 76  ..Jk...l......ov
0930: F0 FF FF 7F 1C 16 80 2B  6C B1 10 01 30 80 2A 08  .......+l...0.*.
0940: 6C B1 10 01 23 6F 76 6B  B1 10 01 52 2B 80 F0 FF  l...#ovk...R+...
0950: FF 7F F0 FF FF 7F 73 30  30 33 02 09 10 1E 80 00  ......s003......
0960: 76 09 45 2B 80 F0 FF FF  7F F0 FF FF 7F 73 30 35  v.E+.........s05
0970: 36 01 80 01 A3 09 02 09  10 1F 80 00 92 09 45 2B  6.............E+
0980: 80 F0 FF FF 7F F0 FF FF  7F 73 30 35 36 01 80 01  .........s056...
0990: A3 09 45 2B 80 F0 FF FF  7F F0 FF FF 7F 73 30 30  ..E+.........s00
09A0: 34 01 80 27 08 6B B1 10  01 2E 2B 6B B1 10 01 31  4..'.k....+k...1
09B0: 80 23 2A 08 6B B1 10 01  29 08 6C B1 10 01 27 45  .#*.k...).l...'E
09C0: 00 80 F0 FF FF 7F F0 FF  FF 7F 66 64 6F 31 01 80  ..........fdo1..
09D0: 55 00 80 F0 FF FF 7F F0  FF FF 7F 66 64 6F 31 29  U..........fdo1)
09E0: 08 6C B1 10 01 28 02 09  10 1E 80 00 00 0A 52 2B  .l...(........R+
09F0: 80 F0 FF FF 7F F0 FF FF  7F 73 30 35 36 01 29 0A  .........s056.).
0A00: 02 09 10 1F 80 00 1A 0A  52 2B 80 F0 FF FF 7F F0  ........R+......
0A10: FF FF 7F 73 30 35 36 01  29 0A 52 2B 80 F0 FF FF  ...s056.).R+....
0A20: 7F F0 FF FF 7F 73 30 30  34 4A 6B B1 10 01 6C B1  .....s004Jk...l.
0A30: 10 01 6F 76 6B B1 10 01  29 08 6B B1 10 01 0E 1C  ..ovk...).k.....
0A40: 1A 80 29 08 6B B1 10 01  0F 29 08 6C B1 10 01 01  ..).k....).l....
0A50: 45 2B 80 F0 FF FF 7F F0  FF FF 7F 73 30 30 35 01  E+.........s005.
0A60: 80 45 00 80 F0 FF FF 7F  F0 FF FF 7F 66 64 69 31  .E..........fdi1
0A70: 01 80 29 08 6C B1 10 01  02 52 2B 80 F0 FF FF 7F  ..).l....R+.....
0A80: F0 FF FF 7F 73 30 30 35  45 2B 80 F0 FF FF 7F F0  ....s005E+......
0A90: FF FF 7F 73 30 30 36 01  80 29 08 6B B1 10 01 10  ...s006..).k....
0AA0: 29 08 6B B1 10 01 11 29  08 6B B1 10 01 04 2B 6B  ).k....).k....+k
0AB0: B1 10 01 32 80 23 29 08  6B B1 10 01 05 52 2B 80  ...2.#).k....R+.
0AC0: F0 FF FF 7F F0 FF FF 7F  73 30 30 36 45 2B 80 F0  ........s006E+..
0AD0: FF FF 7F F0 FF FF 7F 73  30 30 37 01 80 29 08 6C  .......s007..).l
0AE0: B1 10 01 0F 2B 6C B1 10  01 33 80 23 29 08 6C B1  ....+l...3.#).l.
0AF0: 10 01 10 52 2B 80 F0 FF  FF 7F F0 FF FF 7F 73 30  ...R+.........s0
0B00: 30 37 45 2B 80 F0 FF FF  7F F0 FF FF 7F 73 30 30  07E+.........s00
0B10: 38 01 80 29 08 6B B1 10  01 16 2B 6B B1 10 01 34  8..).k....+k...4
0B20: 80 23 29 08 6C B1 10 01  07 2B 6C B1 10 01 35 80  .#).l....+l...5.
0B30: 23 29 08 6C B1 10 01 08  29 08 6B B1 10 01 17 52  #).l....).k....R
0B40: 2B 80 F0 FF FF 7F F0 FF  FF 7F 73 30 30 38 45 2B  +.........s008E+
0B50: 80 F0 FF FF 7F F0 FF FF  7F 73 30 30 39 01 80 29  .........s009..)
0B60: 08 6B B1 10 01 18 27 08  6C B1 10 01 4D 2B 6C B1  .k....'.l...M+l.
0B70: 10 01 36 80 23 29 08 6B  B1 10 01 19 52 2B 80 F0  ..6.#).k....R+..
0B80: FF FF 7F F0 FF FF 7F 73  30 30 39 45 2B 80 F0 FF  .......s009E+...
0B90: FF 7F F0 FF FF 7F 73 30  31 33 01 80 29 08 6B B1  ......s013..).k.
0BA0: 10 01 1A 2B 6C B1 10 01  37 80 23 29 08 6B B1 10  ...+l...7.#).k..
0BB0: 01 1B 2A 08 6C B1 10 01  52 2B 80 F0 FF FF 7F F0  ..*.l...R+......
0BC0: FF FF 7F 73 30 31 33 45  2B 80 F0 FF FF 7F F0 FF  ...s013E+.......
0BD0: FF 7F 73 30 31 36 01 80  29 08 6B B1 10 01 0A 2B  ..s016..).k....+
0BE0: 6B B1 10 01 38 80 29 08  6C B1 10 01 05 29 08 6C  k...8.).l....).l
0BF0: B1 10 01 06 4A 6C B1 10  01 6B B1 10 01 6F 76 6C  ....Jl...k...ovl
0C00: B1 10 01 23 29 08 6B B1  10 01 0B 29 08 6C B1 10  ...#).k....).l..
0C10: 01 09 29 08 6C B1 10 01  0A 52 2B 80 F0 FF FF 7F  ..).l....R+.....
0C20: F0 FF FF 7F 73 30 31 36  45 2B 80 F0 FF FF 7F F0  ....s016E+......
0C30: FF FF 7F 73 30 31 31 01  80 27 08 6B B1 10 01 03  ...s011..'.k....
0C40: 29 08 6C B1 10 01 01 2B  6C B1 10 01 39 80 23 27  ).l....+l...9.#'
0C50: 08 6C B1 10 01 02 2A 08  6C B1 10 01 2A 08 6B B1  .l....*.l...*.k.
0C60: 10 01 4A 6B B1 10 01 6C  B1 10 01 4A F0 FF FF 7F  ..Jk...l...J....
0C70: 6C B1 10 01 29 08 6C B1  10 01 0B 2B 6C B1 10 01  l...).l....+l...
0C80: 3A 80 23 29 08 6C B1 10  01 0C 6F 76 F0 FF FF 7F  :.#).l....ov....
0C90: 6F 76 6B B1 10 01 52 2B  80 F0 FF FF 7F F0 FF FF  ovk...R+........
0CA0: 7F 73 30 31 31 45 2B 80  F0 FF FF 7F F0 FF FF 7F  .s011E+.........
0CB0: 73 30 31 34 01 80 29 08  6B B1 10 01 0A 2B 6B B1  s014..).k....+k.
0CC0: 10 01 3B 80 23 29 08 6B  B1 10 01 0B 29 08 6C B1  ..;.#).k....).l.
0CD0: 10 01 09 2B 6C B1 10 01  3C 80 23 29 08 6C B1 10  ...+l...<.#).l..
0CE0: 01 0A 52 2B 80 F0 FF FF  7F F0 FF FF 7F 73 30 31  ..R+.........s01
0CF0: 34 45 2B 80 F0 FF FF 7F  F0 FF FF 7F 73 30 31 30  4E+.........s010
0D00: 01 80 2B 6B B1 10 01 3D  80 23 29 08 6C B1 10 01  ..+k...=.#).l...
0D10: 03 2B 6C B1 10 01 3E 80  1C 0D 80 27 08 6B B1 10  .+l...>....'.k..
0D20: 01 03 2A 08 6B B1 10 01  23 29 08 6C B1 10 01 04  ..*.k...#).l....
0D30: 52 2B 80 F0 FF FF 7F F0  FF FF 7F 73 30 31 30 45  R+.........s010E
0D40: 2B 80 F0 FF FF 7F F0 FF  FF 7F 73 30 31 35 01 80  +.........s015..
0D50: 79 00 F0 FF FF 7F 6B B1  10 01 1C 0D 80 29 08 6B  y.....k......).k
0D60: B1 10 01 0A 2B 6B B1 10  01 3F 80 23 29 08 6B B1  ....+k...?.#).k.
0D70: 10 01 0B 52 2B 80 F0 FF  FF 7F F0 FF FF 7F 73 30  ...R+.........s0
0D80: 31 35 02 09 10 1E 80 00  9E 0D 45 2B 80 F0 FF FF  15........E+....
0D90: 7F F0 FF FF 7F 73 30 35  37 01 80 01 CB 0D 02 09  .....s057.......
0DA0: 10 1F 80 00 BA 0D 45 2B  80 F0 FF FF 7F F0 FF FF  ......E+........
0DB0: 7F 73 30 35 37 01 80 01  CB 0D 45 2B 80 F0 FF FF  .s057.....E+....
0DC0: 7F F0 FF FF 7F 73 30 31  32 01 80 29 08 6C B1 10  .....s012..).l..
0DD0: 01 05 29 08 6C B1 10 01  06 79 00 F0 FF FF 7F 6C  ..).l....y.....l
0DE0: B1 10 01 29 08 6C B1 10  01 17 2B 6C B1 10 01 40  ...).l....+l...@
0DF0: 80 23 29 08 6B B1 10 01  03 1C 41 80 29 08 6B B1  .#).k.....A.).k.
0E00: 10 01 1A 29 08 6B B1 10  01 1B 79 00 F0 FF FF 7F  ...).k....y.....
0E10: 6B B1 10 01 1C 09 80 4A  6B B1 10 01 F0 FF FF 7F  k......Jk.......
0E20: 6F 76 6B B1 10 01 02 09  10 1E 80 00 40 0E 52 2B  ovk.........@.R+
0E30: 80 F0 FF FF 7F F0 FF FF  7F 73 30 35 37 01 69 0E  .........s057.i.
0E40: 02 09 10 1F 80 00 5A 0E  52 2B 80 F0 FF FF 7F F0  ......Z.R+......
0E50: FF FF 7F 73 30 35 37 01  69 0E 52 2B 80 F0 FF FF  ...s057.i.R+....
0E60: 7F F0 FF FF 7F 73 30 31  32 02 09 10 42 80 00 85  .....s012...B...
0E70: 0E 45 2B 80 F0 FF FF 7F  F0 FF FF 7F 73 30 35 34  .E+.........s054
0E80: 01 80 01 EA 0E 02 09 10  1E 80 00 A1 0E 45 2B 80  .............E+.
0E90: F0 FF FF 7F F0 FF FF 7F  73 30 35 38 01 80 01 EA  ........s058....
0EA0: 0E 02 09 10 1F 80 00 BD  0E 45 2B 80 F0 FF FF 7F  .........E+.....
0EB0: F0 FF FF 7F 73 30 35 38  01 80 01 EA 0E 02 09 10  ....s058........
0EC0: 2C 80 00 D9 0E 45 2B 80  F0 FF FF 7F F0 FF FF 7F  ,....E+.........
0ED0: 73 30 35 34 01 80 01 EA  0E 45 2B 80 F0 FF FF 7F  s054.....E+.....
0EE0: F0 FF FF 7F 73 30 31 37  01 80 29 08 6B B1 10 01  ....s017..).k...
0EF0: 04 2B 6B B1 10 01 43 80  1C 41 80 4A F0 FF FF 7F  .+k...C..A.J....
0F00: 6B B1 10 01 23 29 08 6B  B1 10 01 05 29 08 6C B1  k...#).k....).l.
0F10: 10 01 18 02 09 10 42 80  00 2D 0F 52 2B 80 F0 FF  ......B..-.R+...
0F20: FF 7F F0 FF FF 7F 73 30  35 34 01 8A 0F 02 09 10  ......s054......
0F30: 1E 80 00 47 0F 52 2B 80  F0 FF FF 7F F0 FF FF 7F  ...G.R+.........
0F40: 73 30 35 38 01 8A 0F 02  09 10 1F 80 00 61 0F 52  s058.........a.R
0F50: 2B 80 F0 FF FF 7F F0 FF  FF 7F 73 30 35 38 01 8A  +.........s058..
0F60: 0F 02 09 10 2C 80 00 7B  0F 52 2B 80 F0 FF FF 7F  ....,..{.R+.....
0F70: F0 FF FF 7F 73 30 35 34  01 8A 0F 52 2B 80 F0 FF  ....s054...R+...
0F80: FF 7F F0 FF FF 7F 73 30  31 37 02 09 10 1E 80 00  ......s017......
0F90: A6 0F 45 2B 80 F0 FF FF  7F F0 FF FF 7F 73 30 35  ..E+.........s05
0FA0: 39 01 80 01 D3 0F 02 09  10 1F 80 00 C2 0F 45 2B  9.............E+
0FB0: 80 F0 FF FF 7F F0 FF FF  7F 73 30 35 39 01 80 01  .........s059...
0FC0: D3 0F 45 2B 80 F0 FF FF  7F F0 FF FF 7F 73 30 31  ..E+.........s01
0FD0: 38 01 80 6F 76 F0 FF FF  7F 29 08 6B B1 10 01 1C  8..ov....).k....
0FE0: 2B 6B B1 10 01 44 80 23  29 08 6B B1 10 01 1D 02  +k...D.#).k.....
0FF0: 09 10 1E 80 00 09 10 52  2B 80 F0 FF FF 7F F0 FF  .......R+.......
1000: FF 7F 73 30 35 39 01 32  10 02 09 10 1F 80 00 23  ..s059.2.......#
1010: 10 52 2B 80 F0 FF FF 7F  F0 FF FF 7F 73 30 35 39  .R+.........s059
1020: 01 32 10 52 2B 80 F0 FF  FF 7F F0 FF FF 7F 73 30  .2.R+.........s0
1030: 31 38 24 45 80 01 80 01  80 25 02 00 10 01 80 00  18$E.....%......
1040: C1 14 03 01 10 26 80 45  2B 80 F0 FF FF 7F F0 FF  .....&.E+.......
1050: FF 7F 73 30 31 39 01 80  29 08 6B B1 10 01 0C 2B  ..s019..).k....+
1060: 6B B1 10 01 46 80 23 29  08 6B B1 10 01 0D 29 08  k...F.#).k....).
1070: 6B B1 10 01 06 2B 6B B1  10 01 47 80 23 29 08 6B  k....+k...G.#).k
1080: B1 10 01 07 45 00 80 F0  FF FF 7F F0 FF FF 7F 66  ....E..........f
1090: 64 6F 31 01 80 55 00 80  F0 FF FF 7F F0 FF FF 7F  do1..U..........
10A0: 66 64 6F 31 52 2B 80 F0  FF FF 7F F0 FF FF 7F 73  fdo1R+.........s
10B0: 30 31 39 29 08 6C B1 10  01 4E 29 08 6B B1 10 01  019).l...N).k...
10C0: 2F 29 08 6C B1 10 01 25  29 08 6B B1 10 01 08 29  /).l...%).k....)
10D0: 08 6B B1 10 01 09 29 08  6C B1 10 01 26 7B 6C B1  .k....).l...&{l.
10E0: 10 01 29 08 F0 FF FF 7F  10 1C 0D 80 45 2B 80 F0  ..).........E+..
10F0: FF FF 7F F0 FF FF 7F 73  30 32 30 01 80 45 00 80  .......s020..E..
1100: F0 FF FF 7F F0 FF FF 7F  66 64 69 31 01 80 1C 00  ........fdi1....
1110: 80 52 2B 80 F0 FF FF 7F  F0 FF FF 7F 73 30 32 30  .R+.........s020
1120: 02 09 10 1E 80 00 3C 11  45 2B 80 F0 FF FF 7F F0  ......<.E+......
1130: FF FF 7F 73 30 36 30 01  80 01 69 11 02 09 10 1F  ...s060...i.....
1140: 80 00 58 11 45 2B 80 F0  FF FF 7F F0 FF FF 7F 73  ..X.E+.........s
1150: 30 36 30 01 80 01 69 11  45 2B 80 F0 FF FF 7F F0  060...i.E+......
1160: FF FF 7F 73 30 32 31 01  80 29 08 6B B1 10 01 1C  ...s021..).k....
1170: 1C 0D 80 2B 6B B1 10 01  48 80 23 29 08 6B B1 10  ...+k...H.#).k..
1180: 01 1D 29 08 6C B1 10 01  27 29 08 6C B1 10 01 28  ..).l...').l...(
1190: 29 08 F0 FF FF 7F 11 79  00 F0 FF FF 7F 6C B1 10  )......y.....l..
11A0: 01 79 00 6B B1 10 01 6C  B1 10 01 02 09 10 1E 80  .y.k...l........
11B0: 00 C5 11 52 2B 80 F0 FF  FF 7F F0 FF FF 7F 73 30  ...R+.........s0
11C0: 36 30 01 EE 11 02 09 10  1F 80 00 DF 11 52 2B 80  60...........R+.
11D0: F0 FF FF 7F F0 FF FF 7F  73 30 36 30 01 EE 11 52  ........s060...R
11E0: 2B 80 F0 FF FF 7F F0 FF  FF 7F 73 30 32 31 45 2B  +.........s021E+
11F0: 80 F0 FF FF 7F F0 FF FF  7F 73 30 32 32 01 80 29  .........s022..)
1200: 08 6C B1 10 01 2C 2B 6C  B1 10 01 49 80 23 2B 6C  .l...,+l...I.#+l
1210: B1 10 01 4A 80 23 29 08  6C B1 10 01 2D 52 2B 80  ...J.#).l...-R+.
1220: F0 FF FF 7F F0 FF FF 7F  73 30 32 32 02 09 10 1E  ........s022....
1230: 80 00 48 12 45 2B 80 F0  FF FF 7F F0 FF FF 7F 73  ..H.E+.........s
1240: 30 36 31 01 80 01 75 12  02 09 10 1F 80 00 64 12  061...u.......d.
1250: 45 2B 80 F0 FF FF 7F F0  FF FF 7F 73 30 36 31 01  E+.........s061.
1260: 80 01 75 12 45 2B 80 F0  FF FF 7F F0 FF FF 7F 73  ..u.E+.........s
1270: 30 32 33 01 80 29 08 6B  B1 10 01 1E 2B 6B B1 10  023..).k....+k..
1280: 01 4B 80 29 08 6B B1 10  01 1F 79 00 6B B1 10 01  .K.).k....y.k...
1290: F0 FF FF 7F 79 00 F0 FF  FF 7F 6B B1 10 01 23 79  ....y.....k...#y
12A0: 00 F0 FF FF 7F 6C B1 10  01 29 08 6C B1 10 01 34  .....l...).l...4
12B0: 4A 6C B1 10 01 F0 FF FF  7F 6F 76 6C B1 10 01 02  Jl.......ovl....
12C0: 09 10 1E 80 00 D9 12 52  2B 80 F0 FF FF 7F F0 FF  .......R+.......
12D0: FF 7F 73 30 36 31 01 02  13 02 09 10 1F 80 00 F3  ..s061..........
12E0: 12 52 2B 80 F0 FF FF 7F  F0 FF FF 7F 73 30 36 31  .R+.........s061
12F0: 01 02 13 52 2B 80 F0 FF  FF 7F F0 FF FF 7F 73 30  ...R+.........s0
1300: 32 33 45 2B 80 F0 FF FF  7F F0 FF FF 7F 73 30 32  23E+.........s02
1310: 34 01 80 03 03 10 4C 80  29 08 6C B1 10 01 0B 2B  4.....L.).l....+
1320: 6C B1 10 01 4D 80 23 29  08 6C B1 10 01 0C 4A 6B  l...M.#).l....Jk
1330: B1 10 01 6C B1 10 01 2B  6C B1 10 01 4E 80 29 08  ...l...+l...N.).
1340: 6C B1 10 01 11 29 08 6C  B1 10 01 12 6F 76 6B B1  l....).l....ovk.
1350: 10 01 7B 6C B1 10 01 1C  0D 80 27 08 6C B1 10 01  ..{l......'.l...
1360: 4F 23 29 08 6B B1 10 01  20 1C 0D 80 52 2B 80 F0  O#).k... ...R+..
1370: FF FF 7F F0 FF FF 7F 73  30 32 34 02 09 10 42 80  .......s024...B.
1380: 00 97 13 45 2B 80 F0 FF  FF 7F F0 FF FF 7F 73 30  ...E+.........s0
1390: 35 35 01 80 01 FC 13 02  09 10 1E 80 00 B3 13 45  55.............E
13A0: 2B 80 F0 FF FF 7F F0 FF  FF 7F 73 30 36 32 01 80  +.........s062..
13B0: 01 FC 13 02 09 10 1F 80  00 CF 13 45 2B 80 F0 FF  ...........E+...
13C0: FF 7F F0 FF FF 7F 73 30  36 32 01 80 01 FC 13 02  ......s062......
13D0: 09 10 2C 80 00 EB 13 45  2B 80 F0 FF FF 7F F0 FF  ..,....E+.......
13E0: FF 7F 73 30 35 35 01 80  01 FC 13 45 2B 80 F0 FF  ..s055.....E+...
13F0: FF 7F F0 FF FF 7F 73 30  32 35 01 80 29 08 6B B1  ......s025..).k.
1400: 10 01 21 4A 6B B1 10 01  F0 FF FF 7F 6F 76 6B B1  ..!Jk.......ovk.
1410: 10 01 2B 6B B1 10 01 4F  80 1C 0D 80 79 00 F0 FF  ..+k...O....y...
1420: FF 7F 6B B1 10 01 23 45  00 80 F0 FF FF 7F F0 FF  ..k...#E........
1430: FF 7F 66 64 6F 31 01 80  55 00 80 F0 FF FF 7F F0  ..fdo1..U.......
1440: FF FF 7F 66 64 6F 31 02  09 10 42 80 00 61 14 52  ...fdo1...B..a.R
1450: 2B 80 F0 FF FF 7F F0 FF  FF 7F 73 30 35 35 01 BE  +.........s055..
1460: 14 02 09 10 1E 80 00 7B  14 52 2B 80 F0 FF FF 7F  .......{.R+.....
1470: F0 FF FF 7F 73 30 36 32  01 BE 14 02 09 10 1F 80  ....s062........
1480: 00 95 14 52 2B 80 F0 FF  FF 7F F0 FF FF 7F 73 30  ...R+.........s0
1490: 36 32 01 BE 14 02 09 10  2C 80 00 AF 14 52 2B 80  62......,....R+.
14A0: F0 FF FF 7F F0 FF FF 7F  73 30 35 35 01 BE 14 52  ........s055...R
14B0: 2B 80 F0 FF FF 7F F0 FF  FF 7F 73 30 32 35 01 27  +.........s025.'
14C0: 15 02 00 10 10 80 00 27  15 03 01 10 10 80 45 2B  .......'......E+
14D0: 80 F0 FF FF 7F F0 FF FF  7F 73 30 35 33 01 80 29  .........s053..)
14E0: 08 6B B1 10 01 0A 2B 6B  B1 10 01 50 80 23 29 08  .k....+k...P.#).
14F0: 6B B1 10 01 0B 45 00 80  F0 FF FF 7F F0 FF FF 7F  k....E..........
1500: 66 64 6F 31 01 80 55 00  80 F0 FF FF 7F F0 FF FF  fdo1..U.........
1510: 7F 66 64 6F 31 52 2B 80  F0 FF FF 7F F0 FF FF 7F  .fdo1R+.........
1520: 73 30 35 33 01 27 15 5C  00 29 80 5C 01 29 80 9A  s053.'.\.).\.)..
1530: 5D 0F 80 10 80 1C 26 80  46 00 45 00 80 F0 FF FF  ].....&.F.E.....
1540: 7F F0 FF FF 7F 66 64 69  31 01 80 20 00 21 00     .....fdi1.. .!. 
```

#### Opcodes

```
  0: 0x0695 [0x42] SET_CLI_EVENT_CANCEL_DATA()
  1: 0x0696 [0x46] CAMERA_CONTROL: Disable user control
  2: 0x0698 [0x45] LOAD_SCHEDULED_TASK: Load scheduler "fdo1" with entities [LocalPlayer, LocalPlayer], work=[200*, 0*]
  3: 0x06A9 [0x55] WAIT_LOAD_SCHEDULER: Wait for scheduler "fdo1" with entities [LocalPlayer, LocalPlayer], work=200*
  4: 0x06B8 [0x38] SET_CLIENT_EVENT_MODE(mode=19*)
  5: 0x06BB [0x5D] SET_MUSIC_VOLUME(volume=0*, fade_time=100*)
  6: 0x06C0 [0x2F] Orsa-Porsa (ID: 17871212/0x0110B16C)->Render.Flags0 &= ~0x80000 // Bit 19
  7: 0x06C6 [0x4E] SET_ENTITY_HIDE_FLAG: Show Orsa-Porsa (ID: 17871212/0x0110B16C)
  8: 0x06CC [0x29] REQ_SET_WAIT(priority=0x08, entity_id=LocalPlayer, tag_num=0x0F)
  9: 0x06D3 [0x29] REQ_SET_WAIT(priority=0x08, entity_id=Orsa-Porsa (ID: 17871212/0x0110B16C), tag_num=0x4B)
 10: 0x06DA [0x92] Peppe-Aleppe (ID: 17871211/0x0110B16B)->Render.Flags3 ^= 0x01
 11: 0x06E0 [0x92] Orsa-Porsa (ID: 17871212/0x0110B16C)->Render.Flags3 ^= 0x01
 12: 0x06E6 [0x92] Traiffeaux (ID: 17871210/0x0110B16A)->Render.Flags3 ^= 0x01
 13: 0x06EC [0x80] LOAD_WAIT(entity=Orsa-Porsa (ID: 17871212/0x0110B16C))
 14: 0x06F1 [0x4A] Peppe-Aleppe (ID: 17871211/0x0110B16B) looks at LocalPlayer
 15: 0x06FA [0x4A] LocalPlayer looks at Peppe-Aleppe (ID: 17871211/0x0110B16B)
 16: 0x0703 [0x6F] WAIT_FRAME_DELAY: Yield until WaitTime reaches zero
 17: 0x0704 [0x76] CHECK_ENTITY_RENDER_FLAGS: Wait until Peppe-Aleppe (ID: 17871211/0x0110B16B) Render.Flags0 and Render.Flags3 conditions are met
 18: 0x0709 [0x6F] WAIT_FRAME_DELAY: Yield until WaitTime reaches zero
 19: 0x070A [0x76] CHECK_ENTITY_RENDER_FLAGS: Wait until LocalPlayer Render.Flags0 and Render.Flags3 conditions are met
 20: 0x070F [0x29] REQ_SET_WAIT(priority=0x08, entity_id=LocalPlayer, tag_num=0x08)
 21: 0x0716 [0x5C] MUSIC_CONTROL: Set Idle (Day) music to song 163*
 22: 0x071A [0x5C] MUSIC_CONTROL: Set Idle (Night) music to song 163*
 23: 0x071E [0x9A] WAIT_MUSIC_SERVER()
 24: 0x071F [0x5D] SET_MUSIC_VOLUME(volume=127*, fade_time=1*)
 25: 0x0724 [0x02] IF !(Work_Zone[9] == 5*) GOTO 0x0740
 26: 0x072C [0x45] LOAD_SCHEDULED_TASK: Load scheduler "s043" with entities [LocalPlayer, LocalPlayer], work=[682*, 0*]
 27: 0x073D [0x01] GOTO 0x0789
 28: 0x0740 [0x02] IF !(Work_Zone[9] == 6*) GOTO 0x075C
 29: 0x0748 [0x45] LOAD_SCHEDULED_TASK: Load scheduler "s043" with entities [LocalPlayer, LocalPlayer], work=[682*, 0*]
 30: 0x0759 [0x01] GOTO 0x0789
 31: 0x075C [0x02] IF !(Work_Zone[9] == 8*) GOTO 0x0778
 32: 0x0764 [0x45] LOAD_SCHEDULED_TASK: Load scheduler "s047" with entities [LocalPlayer, LocalPlayer], work=[682*, 0*]
 33: 0x0775 [0x01] GOTO 0x0789
 34: 0x0778 [0x45] LOAD_SCHEDULED_TASK: Load scheduler "s001" with entities [LocalPlayer, LocalPlayer], work=[682*, 0*]

SUBROUTINE_0789:
 35: 0x0789 [0x45] LOAD_SCHEDULED_TASK: Load scheduler "fdi1" with entities [LocalPlayer, LocalPlayer], work=[200*, 0*]
 36: 0x079A [0x55] WAIT_LOAD_SCHEDULER: Wait for scheduler "fdi1" with entities [LocalPlayer, LocalPlayer], work=200*
 37: 0x07A9 [0x29] REQ_SET_WAIT(priority=0x08, entity_id=Peppe-Aleppe (ID: 17871211/0x0110B16B), tag_num=0x06)
 38: 0x07B0 [0x2B] Peppe-Aleppe (ID: 17871211/0x0110B16B) [7799*]:
    → "Are you...a pioneer? All the way out here? Boy, the coalition sure is expanding-wanding fast!"
 39: 0x07B7 [0x23] WAIT_FOR_DIALOG_INTERACTION
 40: 0x07B8 [0x29] REQ_SET_WAIT(priority=0x08, entity_id=Peppe-Aleppe (ID: 17871211/0x0110B16B), tag_num=0x07)
 41: 0x07BF [0x2B] Orsa-Porsa (ID: 17871212/0x0110B16C) [7800*]:
    → "Brrrrrrrrr..."
 42: 0x07C6 [0x23] WAIT_FOR_DIALOG_INTERACTION
 43: 0x07C7 [0x79] Peppe-Aleppe (ID: 17871211/0x0110B16B) looks at Orsa-Porsa (ID: 17871212/0x0110B16C) (Basic look)
 44: 0x07D1 [0x29] REQ_SET_WAIT(priority=0x08, entity_id=Peppe-Aleppe (ID: 17871211/0x0110B16B), tag_num=0x08)
 45: 0x07D8 [0x29] REQ_SET_WAIT(priority=0x08, entity_id=Peppe-Aleppe (ID: 17871211/0x0110B16B), tag_num=0x09)
 46: 0x07DF [0x02] IF !(Work_Zone[9] == 5*) GOTO 0x07F9
 47: 0x07E7 [0x52] END_LOAD_SCHEDULER: End scheduler "s043" with entities [LocalPlayer, LocalPlayer], work=682*
 48: 0x07F6 [0x01] GOTO 0x083C
 49: 0x07F9 [0x02] IF !(Work_Zone[9] == 6*) GOTO 0x0813
 50: 0x0801 [0x52] END_LOAD_SCHEDULER: End scheduler "s043" with entities [LocalPlayer, LocalPlayer], work=682*
 51: 0x0810 [0x01] GOTO 0x083C
 52: 0x0813 [0x02] IF !(Work_Zone[9] == 8*) GOTO 0x082D
 53: 0x081B [0x52] END_LOAD_SCHEDULER: End scheduler "s047" with entities [LocalPlayer, LocalPlayer], work=682*
 54: 0x082A [0x01] GOTO 0x083C
 55: 0x082D [0x52] END_LOAD_SCHEDULER: End scheduler "s001" with entities [LocalPlayer, LocalPlayer], work=682*

SUBROUTINE_083C:
 56: 0x083C [0x02] IF !(Work_Zone[9] == 5*) GOTO 0x0858
 57: 0x0844 [0x45] LOAD_SCHEDULED_TASK: Load scheduler "s044" with entities [LocalPlayer, LocalPlayer], work=[682*, 0*]
 58: 0x0855 [0x01] GOTO 0x08A1
 59: 0x0858 [0x02] IF !(Work_Zone[9] == 6*) GOTO 0x0874
 60: 0x0860 [0x45] LOAD_SCHEDULED_TASK: Load scheduler "s044" with entities [LocalPlayer, LocalPlayer], work=[682*, 0*]
 61: 0x0871 [0x01] GOTO 0x08A1
 62: 0x0874 [0x02] IF !(Work_Zone[9] == 8*) GOTO 0x0890
 63: 0x087C [0x45] LOAD_SCHEDULED_TASK: Load scheduler "s048" with entities [LocalPlayer, LocalPlayer], work=[682*, 0*]
 64: 0x088D [0x01] GOTO 0x08A1
 65: 0x0890 [0x45] LOAD_SCHEDULED_TASK: Load scheduler "s002" with entities [LocalPlayer, LocalPlayer], work=[682*, 0*]

SUBROUTINE_08A1:
 66: 0x08A1 [0x4A] LocalPlayer looks at Orsa-Porsa (ID: 17871212/0x0110B16C)
 67: 0x08AA [0x27] REQ_SET(priority=0x08, entity_id=Orsa-Porsa (ID: 17871212/0x0110B16C), tag_num=0x4C)
 68: 0x08B1 [0x1C] WAIT(10* ticks)
 69: 0x08B4 [0x02] IF !(Work_Zone[9] == 5*) GOTO 0x08CE
 70: 0x08BC [0x52] END_LOAD_SCHEDULER: End scheduler "s044" with entities [LocalPlayer, LocalPlayer], work=682*
 71: 0x08CB [0x01] GOTO 0x0911
 72: 0x08CE [0x02] IF !(Work_Zone[9] == 6*) GOTO 0x08E8
 73: 0x08D6 [0x52] END_LOAD_SCHEDULER: End scheduler "s044" with entities [LocalPlayer, LocalPlayer], work=682*
 74: 0x08E5 [0x01] GOTO 0x0911
 75: 0x08E8 [0x02] IF !(Work_Zone[9] == 8*) GOTO 0x0902
 76: 0x08F0 [0x52] END_LOAD_SCHEDULER: End scheduler "s048" with entities [LocalPlayer, LocalPlayer], work=682*
 77: 0x08FF [0x01] GOTO 0x0911
 78: 0x0902 [0x52] END_LOAD_SCHEDULER: End scheduler "s002" with entities [LocalPlayer, LocalPlayer], work=682*

SUBROUTINE_0911:
 79: 0x0911 [0x45] LOAD_SCHEDULED_TASK: Load scheduler "s003" with entities [LocalPlayer, LocalPlayer], work=[682*, 0*]
 80: 0x0922 [0x4A] Peppe-Aleppe (ID: 17871211/0x0110B16B) looks at Orsa-Porsa (ID: 17871212/0x0110B16C)
 81: 0x092B [0x1C] WAIT(30* ticks)
 82: 0x092E [0x6F] WAIT_FRAME_DELAY: Yield until WaitTime reaches zero
 83: 0x092F [0x76] CHECK_ENTITY_RENDER_FLAGS: Wait until LocalPlayer Render.Flags0 and Render.Flags3 conditions are met
 84: 0x0934 [0x1C] WAIT(90* ticks)
 85: 0x0937 [0x2B] Orsa-Porsa (ID: 17871212/0x0110B16C) [7801*]:
    → "<Shiver> My toes are going to freeze off and break into little bitarus!"
 86: 0x093E [0x2A] GET_REQ_LEVEL(level=8, entity_id=Orsa-Porsa (ID: 17871212/0x0110B16C))
 87: 0x0944 [0x23] WAIT_FOR_DIALOG_INTERACTION
 88: 0x0945 [0x6F] WAIT_FRAME_DELAY: Yield until WaitTime reaches zero
 89: 0x0946 [0x76] CHECK_ENTITY_RENDER_FLAGS: Wait until Peppe-Aleppe (ID: 17871211/0x0110B16B) Render.Flags0 and Render.Flags3 conditions are met
 90: 0x094B [0x52] END_LOAD_SCHEDULER: End scheduler "s003" with entities [LocalPlayer, LocalPlayer], work=682*
 91: 0x095A [0x02] IF !(Work_Zone[9] == 5*) GOTO 0x0976
 92: 0x0962 [0x45] LOAD_SCHEDULED_TASK: Load scheduler "s056" with entities [LocalPlayer, LocalPlayer], work=[682*, 0*]
 93: 0x0973 [0x01] GOTO 0x09A3
 94: 0x0976 [0x02] IF !(Work_Zone[9] == 6*) GOTO 0x0992
 95: 0x097E [0x45] LOAD_SCHEDULED_TASK: Load scheduler "s056" with entities [LocalPlayer, LocalPlayer], work=[682*, 0*]
 96: 0x098F [0x01] GOTO 0x09A3
 97: 0x0992 [0x45] LOAD_SCHEDULED_TASK: Load scheduler "s004" with entities [LocalPlayer, LocalPlayer], work=[682*, 0*]

SUBROUTINE_09A3:
 98: 0x09A3 [0x27] REQ_SET(priority=0x08, entity_id=Peppe-Aleppe (ID: 17871211/0x0110B16B), tag_num=0x2E)
 99: 0x09AA [0x2B] Peppe-Aleppe (ID: 17871211/0x0110B16B) [7802*]:
    → "Orsa-Porsa!? Why are you here instead of bathing in the Morimar Basaltaru Fields hot springs?"
100: 0x09B1 [0x23] WAIT_FOR_DIALOG_INTERACTION
101: 0x09B2 [0x2A] GET_REQ_LEVEL(level=8, entity_id=Peppe-Aleppe (ID: 17871211/0x0110B16B))
102: 0x09B8 [0x29] REQ_SET_WAIT(priority=0x08, entity_id=Orsa-Porsa (ID: 17871212/0x0110B16C), tag_num=0x27)
103: 0x09BF [0x45] LOAD_SCHEDULED_TASK: Load scheduler "fdo1" with entities [LocalPlayer, LocalPlayer], work=[200*, 0*]
104: 0x09D0 [0x55] WAIT_LOAD_SCHEDULER: Wait for scheduler "fdo1" with entities [LocalPlayer, LocalPlayer], work=200*
105: 0x09DF [0x29] REQ_SET_WAIT(priority=0x08, entity_id=Orsa-Porsa (ID: 17871212/0x0110B16C), tag_num=0x28)
106: 0x09E6 [0x02] IF !(Work_Zone[9] == 5*) GOTO 0x0A00
107: 0x09EE [0x52] END_LOAD_SCHEDULER: End scheduler "s056" with entities [LocalPlayer, LocalPlayer], work=682*
108: 0x09FD [0x01] GOTO 0x0A29
109: 0x0A00 [0x02] IF !(Work_Zone[9] == 6*) GOTO 0x0A1A
110: 0x0A08 [0x52] END_LOAD_SCHEDULER: End scheduler "s056" with entities [LocalPlayer, LocalPlayer], work=682*
111: 0x0A17 [0x01] GOTO 0x0A29
112: 0x0A1A [0x52] END_LOAD_SCHEDULER: End scheduler "s004" with entities [LocalPlayer, LocalPlayer], work=682*

SUBROUTINE_0A29:
113: 0x0A29 [0x4A] Peppe-Aleppe (ID: 17871211/0x0110B16B) looks at Orsa-Porsa (ID: 17871212/0x0110B16C)
114: 0x0A32 [0x6F] WAIT_FRAME_DELAY: Yield until WaitTime reaches zero
115: 0x0A33 [0x76] CHECK_ENTITY_RENDER_FLAGS: Wait until Peppe-Aleppe (ID: 17871211/0x0110B16B) Render.Flags0 and Render.Flags3 conditions are met
116: 0x0A38 [0x29] REQ_SET_WAIT(priority=0x08, entity_id=Peppe-Aleppe (ID: 17871211/0x0110B16B), tag_num=0x0E)
117: 0x0A3F [0x1C] WAIT(60* ticks)
118: 0x0A42 [0x29] REQ_SET_WAIT(priority=0x08, entity_id=Peppe-Aleppe (ID: 17871211/0x0110B16B), tag_num=0x0F)
119: 0x0A49 [0x29] REQ_SET_WAIT(priority=0x08, entity_id=Orsa-Porsa (ID: 17871212/0x0110B16C), tag_num=0x01)
120: 0x0A50 [0x45] LOAD_SCHEDULED_TASK: Load scheduler "s005" with entities [LocalPlayer, LocalPlayer], work=[682*, 0*]
121: 0x0A61 [0x45] LOAD_SCHEDULED_TASK: Load scheduler "fdi1" with entities [LocalPlayer, LocalPlayer], work=[200*, 0*]
122: 0x0A72 [0x29] REQ_SET_WAIT(priority=0x08, entity_id=Orsa-Porsa (ID: 17871212/0x0110B16C), tag_num=0x02)
123: 0x0A79 [0x52] END_LOAD_SCHEDULER: End scheduler "s005" with entities [LocalPlayer, LocalPlayer], work=682*
124: 0x0A88 [0x45] LOAD_SCHEDULED_TASK: Load scheduler "s006" with entities [LocalPlayer, LocalPlayer], work=[682*, 0*]
125: 0x0A99 [0x29] REQ_SET_WAIT(priority=0x08, entity_id=Peppe-Aleppe (ID: 17871211/0x0110B16B), tag_num=0x10)
126: 0x0AA0 [0x29] REQ_SET_WAIT(priority=0x08, entity_id=Peppe-Aleppe (ID: 17871211/0x0110B16B), tag_num=0x11)
127: 0x0AA7 [0x29] REQ_SET_WAIT(priority=0x08, entity_id=Peppe-Aleppe (ID: 17871211/0x0110B16B), tag_num=0x04)
128: 0x0AAE [0x2B] Peppe-Aleppe (ID: 17871211/0x0110B16B) [7803*]:
    → "Aha. They sentaru you to do some research over here."
129: 0x0AB5 [0x23] WAIT_FOR_DIALOG_INTERACTION
130: 0x0AB6 [0x29] REQ_SET_WAIT(priority=0x08, entity_id=Peppe-Aleppe (ID: 17871211/0x0110B16B), tag_num=0x05)
131: 0x0ABD [0x52] END_LOAD_SCHEDULER: End scheduler "s006" with entities [LocalPlayer, LocalPlayer], work=682*
132: 0x0ACC [0x45] LOAD_SCHEDULED_TASK: Load scheduler "s007" with entities [LocalPlayer, LocalPlayer], work=[682*, 0*]
133: 0x0ADD [0x29] REQ_SET_WAIT(priority=0x08, entity_id=Orsa-Porsa (ID: 17871212/0x0110B16C), tag_num=0x0F)
134: 0x0AE4 [0x2B] Orsa-Porsa (ID: 17871212/0x0110B16C) [7804*]:
    → "Correctaru. Just research. Unlike you, I haven't been shoved off to this Altana-forsaken wasteland because I couldn't keep my mouth shut."
135: 0x0AEB [0x23] WAIT_FOR_DIALOG_INTERACTION
136: 0x0AEC [0x29] REQ_SET_WAIT(priority=0x08, entity_id=Orsa-Porsa (ID: 17871212/0x0110B16C), tag_num=0x10)
137: 0x0AF3 [0x52] END_LOAD_SCHEDULER: End scheduler "s007" with entities [LocalPlayer, LocalPlayer], work=682*
138: 0x0B02 [0x45] LOAD_SCHEDULED_TASK: Load scheduler "s008" with entities [LocalPlayer, LocalPlayer], work=[682*, 0*]
139: 0x0B13 [0x29] REQ_SET_WAIT(priority=0x08, entity_id=Peppe-Aleppe (ID: 17871211/0x0110B16B), tag_num=0x16)
140: 0x0B1A [0x2B] Peppe-Aleppe (ID: 17871211/0x0110B16B) [7805*]:
    → "M-mouth shut!? Whaddaya mean?"
141: 0x0B21 [0x23] WAIT_FOR_DIALOG_INTERACTION
142: 0x0B22 [0x29] REQ_SET_WAIT(priority=0x08, entity_id=Orsa-Porsa (ID: 17871212/0x0110B16C), tag_num=0x07)
143: 0x0B29 [0x2B] Orsa-Porsa (ID: 17871212/0x0110B16C) [7806*]:
    → "Wha--!? You always were oblivious to a faultaru, but this is too much!"
144: 0x0B30 [0x23] WAIT_FOR_DIALOG_INTERACTION
145: 0x0B31 [0x29] REQ_SET_WAIT(priority=0x08, entity_id=Orsa-Porsa (ID: 17871212/0x0110B16C), tag_num=0x08)
146: 0x0B38 [0x29] REQ_SET_WAIT(priority=0x08, entity_id=Peppe-Aleppe (ID: 17871211/0x0110B16B), tag_num=0x17)
147: 0x0B3F [0x52] END_LOAD_SCHEDULER: End scheduler "s008" with entities [LocalPlayer, LocalPlayer], work=682*
148: 0x0B4E [0x45] LOAD_SCHEDULED_TASK: Load scheduler "s009" with entities [LocalPlayer, LocalPlayer], work=[682*, 0*]
149: 0x0B5F [0x29] REQ_SET_WAIT(priority=0x08, entity_id=Peppe-Aleppe (ID: 17871211/0x0110B16B), tag_num=0x18)
150: 0x0B66 [0x27] REQ_SET(priority=0x08, entity_id=Orsa-Porsa (ID: 17871212/0x0110B16C), tag_num=0x4D)
151: 0x0B6D [0x2B] Orsa-Porsa (ID: 17871212/0x0110B16C) [7807*]:
    → "Don't you remember how you threw yourself at that dainty-wainty little tart at the Inventors' Coalition?"
152: 0x0B74 [0x23] WAIT_FOR_DIALOG_INTERACTION
153: 0x0B75 [0x29] REQ_SET_WAIT(priority=0x08, entity_id=Peppe-Aleppe (ID: 17871211/0x0110B16B), tag_num=0x19)
154: 0x0B7C [0x52] END_LOAD_SCHEDULER: End scheduler "s009" with entities [LocalPlayer, LocalPlayer], work=682*
155: 0x0B8B [0x45] LOAD_SCHEDULED_TASK: Load scheduler "s013" with entities [LocalPlayer, LocalPlayer], work=[682*, 0*]
156: 0x0B9C [0x29] REQ_SET_WAIT(priority=0x08, entity_id=Peppe-Aleppe (ID: 17871211/0x0110B16B), tag_num=0x1A)
157: 0x0BA3 [0x2B] Orsa-Porsa (ID: 17871212/0x0110B16C) [7808*]:
    → "I tried to warn you, but noooooo. You just had to send her that "handpicked" bouquet of flowers that you probably found wiltaruing in Foret de Hennetiel."
158: 0x0BAA [0x23] WAIT_FOR_DIALOG_INTERACTION
159: 0x0BAB [0x29] REQ_SET_WAIT(priority=0x08, entity_id=Peppe-Aleppe (ID: 17871211/0x0110B16B), tag_num=0x1B)
160: 0x0BB2 [0x2A] GET_REQ_LEVEL(level=8, entity_id=Orsa-Porsa (ID: 17871212/0x0110B16C))
161: 0x0BB8 [0x52] END_LOAD_SCHEDULER: End scheduler "s013" with entities [LocalPlayer, LocalPlayer], work=682*
162: 0x0BC7 [0x45] LOAD_SCHEDULED_TASK: Load scheduler "s016" with entities [LocalPlayer, LocalPlayer], work=[682*, 0*]
163: 0x0BD8 [0x29] REQ_SET_WAIT(priority=0x08, entity_id=Peppe-Aleppe (ID: 17871211/0x0110B16B), tag_num=0x0A)
164: 0x0BDF [0x2B] Peppe-Aleppe (ID: 17871211/0x0110B16B) [7809*]:
    → "I-I nearly threw my back out looking for only the prettiest-wittiest henneblooms I could find! She's my dream girl, and I would do anything for her!"
165: 0x0BE6 [0x29] REQ_SET_WAIT(priority=0x08, entity_id=Orsa-Porsa (ID: 17871212/0x0110B16C), tag_num=0x05)
166: 0x0BED [0x29] REQ_SET_WAIT(priority=0x08, entity_id=Orsa-Porsa (ID: 17871212/0x0110B16C), tag_num=0x06)
167: 0x0BF4 [0x4A] Orsa-Porsa (ID: 17871212/0x0110B16C) looks at Peppe-Aleppe (ID: 17871211/0x0110B16B)
168: 0x0BFD [0x6F] WAIT_FRAME_DELAY: Yield until WaitTime reaches zero
169: 0x0BFE [0x76] CHECK_ENTITY_RENDER_FLAGS: Wait until Orsa-Porsa (ID: 17871212/0x0110B16C) Render.Flags0 and Render.Flags3 conditions are met
170: 0x0C03 [0x23] WAIT_FOR_DIALOG_INTERACTION
171: 0x0C04 [0x29] REQ_SET_WAIT(priority=0x08, entity_id=Peppe-Aleppe (ID: 17871211/0x0110B16B), tag_num=0x0B)
172: 0x0C0B [0x29] REQ_SET_WAIT(priority=0x08, entity_id=Orsa-Porsa (ID: 17871212/0x0110B16C), tag_num=0x09)
173: 0x0C12 [0x29] REQ_SET_WAIT(priority=0x08, entity_id=Orsa-Porsa (ID: 17871212/0x0110B16C), tag_num=0x0A)
174: 0x0C19 [0x52] END_LOAD_SCHEDULER: End scheduler "s016" with entities [LocalPlayer, LocalPlayer], work=682*
175: 0x0C28 [0x45] LOAD_SCHEDULED_TASK: Load scheduler "s011" with entities [LocalPlayer, LocalPlayer], work=[682*, 0*]
176: 0x0C39 [0x27] REQ_SET(priority=0x08, entity_id=Peppe-Aleppe (ID: 17871211/0x0110B16B), tag_num=0x03)
177: 0x0C40 [0x29] REQ_SET_WAIT(priority=0x08, entity_id=Orsa-Porsa (ID: 17871212/0x0110B16C), tag_num=0x01)
178: 0x0C47 [0x2B] Orsa-Porsa (ID: 17871212/0x0110B16C) [7810*]:
    → "If she were just any old technician, you might have gotten away with a slap on the wristaru--but she was Amchuchu's hairdresser's sister! You know how the maester can be."
179: 0x0C4E [0x23] WAIT_FOR_DIALOG_INTERACTION
180: 0x0C4F [0x27] REQ_SET(priority=0x08, entity_id=Orsa-Porsa (ID: 17871212/0x0110B16C), tag_num=0x02)
181: 0x0C56 [0x2A] GET_REQ_LEVEL(level=8, entity_id=Orsa-Porsa (ID: 17871212/0x0110B16C))
182: 0x0C5C [0x2A] GET_REQ_LEVEL(level=8, entity_id=Peppe-Aleppe (ID: 17871211/0x0110B16B))
183: 0x0C62 [0x4A] Peppe-Aleppe (ID: 17871211/0x0110B16B) looks at Orsa-Porsa (ID: 17871212/0x0110B16C)
184: 0x0C6B [0x4A] LocalPlayer looks at Orsa-Porsa (ID: 17871212/0x0110B16C)
185: 0x0C74 [0x29] REQ_SET_WAIT(priority=0x08, entity_id=Orsa-Porsa (ID: 17871212/0x0110B16C), tag_num=0x0B)
186: 0x0C7B [0x2B] Orsa-Porsa (ID: 17871212/0x0110B16C) [7811*]:
    → "Aaaaaand that's why you got forced out of the city, doomed to spend the rest of your days playing footsie with cicatricose raaz."
187: 0x0C82 [0x23] WAIT_FOR_DIALOG_INTERACTION
188: 0x0C83 [0x29] REQ_SET_WAIT(priority=0x08, entity_id=Orsa-Porsa (ID: 17871212/0x0110B16C), tag_num=0x0C)
189: 0x0C8A [0x6F] WAIT_FRAME_DELAY: Yield until WaitTime reaches zero
190: 0x0C8B [0x76] CHECK_ENTITY_RENDER_FLAGS: Wait until LocalPlayer Render.Flags0 and Render.Flags3 conditions are met
191: 0x0C90 [0x6F] WAIT_FRAME_DELAY: Yield until WaitTime reaches zero
192: 0x0C91 [0x76] CHECK_ENTITY_RENDER_FLAGS: Wait until Peppe-Aleppe (ID: 17871211/0x0110B16B) Render.Flags0 and Render.Flags3 conditions are met
193: 0x0C96 [0x52] END_LOAD_SCHEDULER: End scheduler "s011" with entities [LocalPlayer, LocalPlayer], work=682*
194: 0x0CA5 [0x45] LOAD_SCHEDULED_TASK: Load scheduler "s014" with entities [LocalPlayer, LocalPlayer], work=[682*, 0*]
195: 0x0CB6 [0x29] REQ_SET_WAIT(priority=0x08, entity_id=Peppe-Aleppe (ID: 17871211/0x0110B16B), tag_num=0x0A)
196: 0x0CBD [0x2B] Peppe-Aleppe (ID: 17871211/0x0110B16B) [7812*]:
    → "Y-you mean I'll never go back to Adoulin ever-wever again!? Oh no no no! What can I do?"
197: 0x0CC4 [0x23] WAIT_FOR_DIALOG_INTERACTION
198: 0x0CC5 [0x29] REQ_SET_WAIT(priority=0x08, entity_id=Peppe-Aleppe (ID: 17871211/0x0110B16B), tag_num=0x0B)
199: 0x0CCC [0x29] REQ_SET_WAIT(priority=0x08, entity_id=Orsa-Porsa (ID: 17871212/0x0110B16C), tag_num=0x09)
200: 0x0CD3 [0x2B] Orsa-Porsa (ID: 17871212/0x0110B16C) [7813*]:
    → "How am I supposed to know? Maybe if you became an expert pioneer, our maester would change her mind...but don't countaru on it."
201: 0x0CDA [0x23] WAIT_FOR_DIALOG_INTERACTION
202: 0x0CDB [0x29] REQ_SET_WAIT(priority=0x08, entity_id=Orsa-Porsa (ID: 17871212/0x0110B16C), tag_num=0x0A)
203: 0x0CE2 [0x52] END_LOAD_SCHEDULER: End scheduler "s014" with entities [LocalPlayer, LocalPlayer], work=682*
204: 0x0CF1 [0x45] LOAD_SCHEDULED_TASK: Load scheduler "s010" with entities [LocalPlayer, LocalPlayer], work=[682*, 0*]
205: 0x0D02 [0x2B] Peppe-Aleppe (ID: 17871211/0x0110B16B) [7814*]:
    → "That's easy for you to say! Morimar is a lot closer to the city, plus you get to relax in the hot springs! The only remotely warm thing to bathe in around here is the slobber of some horrible beast!"
206: 0x0D09 [0x23] WAIT_FOR_DIALOG_INTERACTION
207: 0x0D0A [0x29] REQ_SET_WAIT(priority=0x08, entity_id=Orsa-Porsa (ID: 17871212/0x0110B16C), tag_num=0x03)
208: 0x0D11 [0x2B] Orsa-Porsa (ID: 17871212/0x0110B16C) [7815*]:
    → "Hmm... Well, maybe you'll have to become an inventor who can wow Amchuchu into submission!"
209: 0x0D18 [0x1C] WAIT(30* ticks)
210: 0x0D1B [0x27] REQ_SET(priority=0x08, entity_id=Peppe-Aleppe (ID: 17871211/0x0110B16B), tag_num=0x03)
211: 0x0D22 [0x2A] GET_REQ_LEVEL(level=8, entity_id=Peppe-Aleppe (ID: 17871211/0x0110B16B))
212: 0x0D28 [0x23] WAIT_FOR_DIALOG_INTERACTION
213: 0x0D29 [0x29] REQ_SET_WAIT(priority=0x08, entity_id=Orsa-Porsa (ID: 17871212/0x0110B16C), tag_num=0x04)
214: 0x0D30 [0x52] END_LOAD_SCHEDULER: End scheduler "s010" with entities [LocalPlayer, LocalPlayer], work=682*
215: 0x0D3F [0x45] LOAD_SCHEDULED_TASK: Load scheduler "s015" with entities [LocalPlayer, LocalPlayer], work=[682*, 0*]
216: 0x0D50 [0x79] LocalPlayer looks at Peppe-Aleppe (ID: 17871211/0x0110B16B) (Basic look)
217: 0x0D5A [0x1C] WAIT(30* ticks)
218: 0x0D5D [0x29] REQ_SET_WAIT(priority=0x08, entity_id=Peppe-Aleppe (ID: 17871211/0x0110B16B), tag_num=0x0A)
219: 0x0D64 [0x2B] Peppe-Aleppe (ID: 17871211/0x0110B16B) [7816*]:
    → "But I've never been big on brains! It's all I can do to keep from getting expelled-welled from the coalition!"
220: 0x0D6B [0x23] WAIT_FOR_DIALOG_INTERACTION
221: 0x0D6C [0x29] REQ_SET_WAIT(priority=0x08, entity_id=Peppe-Aleppe (ID: 17871211/0x0110B16B), tag_num=0x0B)
222: 0x0D73 [0x52] END_LOAD_SCHEDULER: End scheduler "s015" with entities [LocalPlayer, LocalPlayer], work=682*
223: 0x0D82 [0x02] IF !(Work_Zone[9] == 5*) GOTO 0x0D9E
224: 0x0D8A [0x45] LOAD_SCHEDULED_TASK: Load scheduler "s057" with entities [LocalPlayer, LocalPlayer], work=[682*, 0*]
225: 0x0D9B [0x01] GOTO 0x0DCB
226: 0x0D9E [0x02] IF !(Work_Zone[9] == 6*) GOTO 0x0DBA
227: 0x0DA6 [0x45] LOAD_SCHEDULED_TASK: Load scheduler "s057" with entities [LocalPlayer, LocalPlayer], work=[682*, 0*]
228: 0x0DB7 [0x01] GOTO 0x0DCB
229: 0x0DBA [0x45] LOAD_SCHEDULED_TASK: Load scheduler "s012" with entities [LocalPlayer, LocalPlayer], work=[682*, 0*]

SUBROUTINE_0DCB:
230: 0x0DCB [0x29] REQ_SET_WAIT(priority=0x08, entity_id=Orsa-Porsa (ID: 17871212/0x0110B16C), tag_num=0x05)
231: 0x0DD2 [0x29] REQ_SET_WAIT(priority=0x08, entity_id=Orsa-Porsa (ID: 17871212/0x0110B16C), tag_num=0x06)
232: 0x0DD9 [0x79] LocalPlayer looks at Orsa-Porsa (ID: 17871212/0x0110B16C) (Basic look)
233: 0x0DE3 [0x29] REQ_SET_WAIT(priority=0x08, entity_id=Orsa-Porsa (ID: 17871212/0x0110B16C), tag_num=0x17)
234: 0x0DEA [0x2B] Orsa-Porsa (ID: 17871212/0x0110B16C) [7817*]:
    → "Look around you. You've already got one footaru in the grave."
235: 0x0DF1 [0x23] WAIT_FOR_DIALOG_INTERACTION
236: 0x0DF2 [0x29] REQ_SET_WAIT(priority=0x08, entity_id=Peppe-Aleppe (ID: 17871211/0x0110B16B), tag_num=0x03)
237: 0x0DF9 [0x1C] WAIT(20* ticks)
238: 0x0DFC [0x29] REQ_SET_WAIT(priority=0x08, entity_id=Peppe-Aleppe (ID: 17871211/0x0110B16B), tag_num=0x1A)
239: 0x0E03 [0x29] REQ_SET_WAIT(priority=0x08, entity_id=Peppe-Aleppe (ID: 17871211/0x0110B16B), tag_num=0x1B)
240: 0x0E0A [0x79] LocalPlayer looks at Peppe-Aleppe (ID: 17871211/0x0110B16B) (Basic look)
241: 0x0E14 [0x1C] WAIT(40* ticks)
242: 0x0E17 [0x4A] Peppe-Aleppe (ID: 17871211/0x0110B16B) looks at LocalPlayer
243: 0x0E20 [0x6F] WAIT_FRAME_DELAY: Yield until WaitTime reaches zero
244: 0x0E21 [0x76] CHECK_ENTITY_RENDER_FLAGS: Wait until Peppe-Aleppe (ID: 17871211/0x0110B16B) Render.Flags0 and Render.Flags3 conditions are met
245: 0x0E26 [0x02] IF !(Work_Zone[9] == 5*) GOTO 0x0E40
246: 0x0E2E [0x52] END_LOAD_SCHEDULER: End scheduler "s057" with entities [LocalPlayer, LocalPlayer], work=682*
247: 0x0E3D [0x01] GOTO 0x0E69
248: 0x0E40 [0x02] IF !(Work_Zone[9] == 6*) GOTO 0x0E5A
249: 0x0E48 [0x52] END_LOAD_SCHEDULER: End scheduler "s057" with entities [LocalPlayer, LocalPlayer], work=682*
250: 0x0E57 [0x01] GOTO 0x0E69
251: 0x0E5A [0x52] END_LOAD_SCHEDULER: End scheduler "s012" with entities [LocalPlayer, LocalPlayer], work=682*

SUBROUTINE_0E69:
252: 0x0E69 [0x02] IF !(Work_Zone[9] == 3*) GOTO 0x0E85
253: 0x0E71 [0x45] LOAD_SCHEDULED_TASK: Load scheduler "s054" with entities [LocalPlayer, LocalPlayer], work=[682*, 0*]
254: 0x0E82 [0x01] GOTO 0x0EEA
255: 0x0E85 [0x02] IF !(Work_Zone[9] == 5*) GOTO 0x0EA1
256: 0x0E8D [0x45] LOAD_SCHEDULED_TASK: Load scheduler "s058" with entities [LocalPlayer, LocalPlayer], work=[682*, 0*]
257: 0x0E9E [0x01] GOTO 0x0EEA
258: 0x0EA1 [0x02] IF !(Work_Zone[9] == 6*) GOTO 0x0EBD
259: 0x0EA9 [0x45] LOAD_SCHEDULED_TASK: Load scheduler "s058" with entities [LocalPlayer, LocalPlayer], work=[682*, 0*]
260: 0x0EBA [0x01] GOTO 0x0EEA
261: 0x0EBD [0x02] IF !(Work_Zone[9] == 8*) GOTO 0x0ED9
262: 0x0EC5 [0x45] LOAD_SCHEDULED_TASK: Load scheduler "s054" with entities [LocalPlayer, LocalPlayer], work=[682*, 0*]
263: 0x0ED6 [0x01] GOTO 0x0EEA
264: 0x0ED9 [0x45] LOAD_SCHEDULED_TASK: Load scheduler "s017" with entities [LocalPlayer, LocalPlayer], work=[682*, 0*]

SUBROUTINE_0EEA:
265: 0x0EEA [0x29] REQ_SET_WAIT(priority=0x08, entity_id=Peppe-Aleppe (ID: 17871211/0x0110B16B), tag_num=0x04)
266: 0x0EF1 [0x2B] Peppe-Aleppe (ID: 17871211/0x0110B16B) [7818*]:
    → "Wait--[Mr./Ms.] Pioneer!"
267: 0x0EF8 [0x1C] WAIT(20* ticks)
268: 0x0EFB [0x4A] LocalPlayer looks at Peppe-Aleppe (ID: 17871211/0x0110B16B)
269: 0x0F04 [0x23] WAIT_FOR_DIALOG_INTERACTION
270: 0x0F05 [0x29] REQ_SET_WAIT(priority=0x08, entity_id=Peppe-Aleppe (ID: 17871211/0x0110B16B), tag_num=0x05)
271: 0x0F0C [0x29] REQ_SET_WAIT(priority=0x08, entity_id=Orsa-Porsa (ID: 17871212/0x0110B16C), tag_num=0x18)
272: 0x0F13 [0x02] IF !(Work_Zone[9] == 3*) GOTO 0x0F2D
273: 0x0F1B [0x52] END_LOAD_SCHEDULER: End scheduler "s054" with entities [LocalPlayer, LocalPlayer], work=682*
274: 0x0F2A [0x01] GOTO 0x0F8A
275: 0x0F2D [0x02] IF !(Work_Zone[9] == 5*) GOTO 0x0F47
276: 0x0F35 [0x52] END_LOAD_SCHEDULER: End scheduler "s058" with entities [LocalPlayer, LocalPlayer], work=682*
277: 0x0F44 [0x01] GOTO 0x0F8A
278: 0x0F47 [0x02] IF !(Work_Zone[9] == 6*) GOTO 0x0F61
279: 0x0F4F [0x52] END_LOAD_SCHEDULER: End scheduler "s058" with entities [LocalPlayer, LocalPlayer], work=682*
280: 0x0F5E [0x01] GOTO 0x0F8A
281: 0x0F61 [0x02] IF !(Work_Zone[9] == 8*) GOTO 0x0F7B
282: 0x0F69 [0x52] END_LOAD_SCHEDULER: End scheduler "s054" with entities [LocalPlayer, LocalPlayer], work=682*
283: 0x0F78 [0x01] GOTO 0x0F8A
284: 0x0F7B [0x52] END_LOAD_SCHEDULER: End scheduler "s017" with entities [LocalPlayer, LocalPlayer], work=682*

SUBROUTINE_0F8A:
285: 0x0F8A [0x02] IF !(Work_Zone[9] == 5*) GOTO 0x0FA6
286: 0x0F92 [0x45] LOAD_SCHEDULED_TASK: Load scheduler "s059" with entities [LocalPlayer, LocalPlayer], work=[682*, 0*]
287: 0x0FA3 [0x01] GOTO 0x0FD3
288: 0x0FA6 [0x02] IF !(Work_Zone[9] == 6*) GOTO 0x0FC2
289: 0x0FAE [0x45] LOAD_SCHEDULED_TASK: Load scheduler "s059" with entities [LocalPlayer, LocalPlayer], work=[682*, 0*]
290: 0x0FBF [0x01] GOTO 0x0FD3
291: 0x0FC2 [0x45] LOAD_SCHEDULED_TASK: Load scheduler "s018" with entities [LocalPlayer, LocalPlayer], work=[682*, 0*]

SUBROUTINE_0FD3:
292: 0x0FD3 [0x6F] WAIT_FRAME_DELAY: Yield until WaitTime reaches zero
293: 0x0FD4 [0x76] CHECK_ENTITY_RENDER_FLAGS: Wait until LocalPlayer Render.Flags0 and Render.Flags3 conditions are met
294: 0x0FD9 [0x29] REQ_SET_WAIT(priority=0x08, entity_id=Peppe-Aleppe (ID: 17871211/0x0110B16B), tag_num=0x1C)
295: 0x0FE0 [0x2B] Peppe-Aleppe (ID: 17871211/0x0110B16B) [7819*]:
    → "They made you come all the way out here too, right? Maybe if we put our noggins together, they'll letaru us both go back!"
296: 0x0FE7 [0x23] WAIT_FOR_DIALOG_INTERACTION
297: 0x0FE8 [0x29] REQ_SET_WAIT(priority=0x08, entity_id=Peppe-Aleppe (ID: 17871211/0x0110B16B), tag_num=0x1D)
298: 0x0FEF [0x02] IF !(Work_Zone[9] == 5*) GOTO 0x1009
299: 0x0FF7 [0x52] END_LOAD_SCHEDULER: End scheduler "s059" with entities [LocalPlayer, LocalPlayer], work=682*
300: 0x1006 [0x01] GOTO 0x1032
301: 0x1009 [0x02] IF !(Work_Zone[9] == 6*) GOTO 0x1023
302: 0x1011 [0x52] END_LOAD_SCHEDULER: End scheduler "s059" with entities [LocalPlayer, LocalPlayer], work=682*
303: 0x1020 [0x01] GOTO 0x1032
304: 0x1023 [0x52] END_LOAD_SCHEDULER: End scheduler "s018" with entities [LocalPlayer, LocalPlayer], work=682*

SUBROUTINE_1032:
305: 0x1032 [0x24] CREATE_DIALOG(message_id=7820*, default_option=0*, option_flags=0*)
    → "Pick your poison. [Help him out./Let him languish.]"
306: 0x1039 [0x25] WAIT_DIALOG_SELECT()
307: 0x103A [0x02] IF !(Work_Zone[0] == 0*) GOTO 0x14C1
308: 0x1042 [0x03] Work_Zone[1] = 2*
309: 0x1047 [0x45] LOAD_SCHEDULED_TASK: Load scheduler "s019" with entities [LocalPlayer, LocalPlayer], work=[682*, 0*]
310: 0x1058 [0x29] REQ_SET_WAIT(priority=0x08, entity_id=Peppe-Aleppe (ID: 17871211/0x0110B16B), tag_num=0x0C)
311: 0x105F [0x2B] Peppe-Aleppe (ID: 17871211/0x0110B16B) [7822*]:
    → "Hooray!!!"
312: 0x1066 [0x23] WAIT_FOR_DIALOG_INTERACTION
313: 0x1067 [0x29] REQ_SET_WAIT(priority=0x08, entity_id=Peppe-Aleppe (ID: 17871211/0x0110B16B), tag_num=0x0D)
314: 0x106E [0x29] REQ_SET_WAIT(priority=0x08, entity_id=Peppe-Aleppe (ID: 17871211/0x0110B16B), tag_num=0x06)
315: 0x1075 [0x2B] Peppe-Aleppe (ID: 17871211/0x0110B16B) [7823*]:
    → "Okay, so...get to thinking!"
316: 0x107C [0x23] WAIT_FOR_DIALOG_INTERACTION
317: 0x107D [0x29] REQ_SET_WAIT(priority=0x08, entity_id=Peppe-Aleppe (ID: 17871211/0x0110B16B), tag_num=0x07)
318: 0x1084 [0x45] LOAD_SCHEDULED_TASK: Load scheduler "fdo1" with entities [LocalPlayer, LocalPlayer], work=[200*, 0*]
319: 0x1095 [0x55] WAIT_LOAD_SCHEDULER: Wait for scheduler "fdo1" with entities [LocalPlayer, LocalPlayer], work=200*
320: 0x10A4 [0x52] END_LOAD_SCHEDULER: End scheduler "s019" with entities [LocalPlayer, LocalPlayer], work=682*
321: 0x10B3 [0x29] REQ_SET_WAIT(priority=0x08, entity_id=Orsa-Porsa (ID: 17871212/0x0110B16C), tag_num=0x4E)
322: 0x10BA [0x29] REQ_SET_WAIT(priority=0x08, entity_id=Peppe-Aleppe (ID: 17871211/0x0110B16B), tag_num=0x2F)
323: 0x10C1 [0x29] REQ_SET_WAIT(priority=0x08, entity_id=Orsa-Porsa (ID: 17871212/0x0110B16C), tag_num=0x25)
324: 0x10C8 [0x29] REQ_SET_WAIT(priority=0x08, entity_id=Peppe-Aleppe (ID: 17871211/0x0110B16B), tag_num=0x08)
325: 0x10CF [0x29] REQ_SET_WAIT(priority=0x08, entity_id=Peppe-Aleppe (ID: 17871211/0x0110B16B), tag_num=0x09)
326: 0x10D6 [0x29] REQ_SET_WAIT(priority=0x08, entity_id=Orsa-Porsa (ID: 17871212/0x0110B16C), tag_num=0x26)
327: 0x10DD [0x7B] Orsa-Porsa (ID: 17871212/0x0110B16C) stops talking
328: 0x10E2 [0x29] REQ_SET_WAIT(priority=0x08, entity_id=LocalPlayer, tag_num=0x10)
329: 0x10E9 [0x1C] WAIT(30* ticks)
330: 0x10EC [0x45] LOAD_SCHEDULED_TASK: Load scheduler "s020" with entities [LocalPlayer, LocalPlayer], work=[682*, 0*]
331: 0x10FD [0x45] LOAD_SCHEDULED_TASK: Load scheduler "fdi1" with entities [LocalPlayer, LocalPlayer], work=[200*, 0*]
332: 0x110E [0x1C] WAIT(200* ticks)
333: 0x1111 [0x52] END_LOAD_SCHEDULER: End scheduler "s020" with entities [LocalPlayer, LocalPlayer], work=682*
334: 0x1120 [0x02] IF !(Work_Zone[9] == 5*) GOTO 0x113C
335: 0x1128 [0x45] LOAD_SCHEDULED_TASK: Load scheduler "s060" with entities [LocalPlayer, LocalPlayer], work=[682*, 0*]
336: 0x1139 [0x01] GOTO 0x1169
337: 0x113C [0x02] IF !(Work_Zone[9] == 6*) GOTO 0x1158
338: 0x1144 [0x45] LOAD_SCHEDULED_TASK: Load scheduler "s060" with entities [LocalPlayer, LocalPlayer], work=[682*, 0*]
339: 0x1155 [0x01] GOTO 0x1169
340: 0x1158 [0x45] LOAD_SCHEDULED_TASK: Load scheduler "s021" with entities [LocalPlayer, LocalPlayer], work=[682*, 0*]

SUBROUTINE_1169:
341: 0x1169 [0x29] REQ_SET_WAIT(priority=0x08, entity_id=Peppe-Aleppe (ID: 17871211/0x0110B16B), tag_num=0x1C)
342: 0x1170 [0x1C] WAIT(30* ticks)
343: 0x1173 [0x2B] Peppe-Aleppe (ID: 17871211/0x0110B16B) [7824*]:
    → "Still nothing-wothing!? Orsa-Porsa, stop standing there like a tree stump and help me!"
344: 0x117A [0x23] WAIT_FOR_DIALOG_INTERACTION
345: 0x117B [0x29] REQ_SET_WAIT(priority=0x08, entity_id=Peppe-Aleppe (ID: 17871211/0x0110B16B), tag_num=0x1D)
346: 0x1182 [0x29] REQ_SET_WAIT(priority=0x08, entity_id=Orsa-Porsa (ID: 17871212/0x0110B16C), tag_num=0x27)
347: 0x1189 [0x29] REQ_SET_WAIT(priority=0x08, entity_id=Orsa-Porsa (ID: 17871212/0x0110B16C), tag_num=0x28)
348: 0x1190 [0x29] REQ_SET_WAIT(priority=0x08, entity_id=LocalPlayer, tag_num=0x11)
349: 0x1197 [0x79] LocalPlayer looks at Orsa-Porsa (ID: 17871212/0x0110B16C) (Basic look)
350: 0x11A1 [0x79] Peppe-Aleppe (ID: 17871211/0x0110B16B) looks at Orsa-Porsa (ID: 17871212/0x0110B16C) (Basic look)
351: 0x11AB [0x02] IF !(Work_Zone[9] == 5*) GOTO 0x11C5
352: 0x11B3 [0x52] END_LOAD_SCHEDULER: End scheduler "s060" with entities [LocalPlayer, LocalPlayer], work=682*
353: 0x11C2 [0x01] GOTO 0x11EE
354: 0x11C5 [0x02] IF !(Work_Zone[9] == 6*) GOTO 0x11DF
355: 0x11CD [0x52] END_LOAD_SCHEDULER: End scheduler "s060" with entities [LocalPlayer, LocalPlayer], work=682*
356: 0x11DC [0x01] GOTO 0x11EE
357: 0x11DF [0x52] END_LOAD_SCHEDULER: End scheduler "s021" with entities [LocalPlayer, LocalPlayer], work=682*

SUBROUTINE_11EE:
358: 0x11EE [0x45] LOAD_SCHEDULED_TASK: Load scheduler "s022" with entities [LocalPlayer, LocalPlayer], work=[682*, 0*]
359: 0x11FF [0x29] REQ_SET_WAIT(priority=0x08, entity_id=Orsa-Porsa (ID: 17871212/0x0110B16C), tag_num=0x2C)
360: 0x1206 [0x2B] Orsa-Porsa (ID: 17871212/0x0110B16C) [7825*]:
    → "Wh-what do you expect me to do!? All the goo has frozen in my nose, and the icicle-wicicles on my eyelids are stabbing my cheeks!"
361: 0x120D [0x23] WAIT_FOR_DIALOG_INTERACTION
362: 0x120E [0x2B] Orsa-Porsa (ID: 17871212/0x0110B16C) [7826*]:
    → "<Chatter> I-I guess just find something we might be able to use, and think from there? Maybe something that'll help me with my research too!"
363: 0x1215 [0x23] WAIT_FOR_DIALOG_INTERACTION
364: 0x1216 [0x29] REQ_SET_WAIT(priority=0x08, entity_id=Orsa-Porsa (ID: 17871212/0x0110B16C), tag_num=0x2D)
365: 0x121D [0x52] END_LOAD_SCHEDULER: End scheduler "s022" with entities [LocalPlayer, LocalPlayer], work=682*
366: 0x122C [0x02] IF !(Work_Zone[9] == 5*) GOTO 0x1248
367: 0x1234 [0x45] LOAD_SCHEDULED_TASK: Load scheduler "s061" with entities [LocalPlayer, LocalPlayer], work=[682*, 0*]
368: 0x1245 [0x01] GOTO 0x1275
369: 0x1248 [0x02] IF !(Work_Zone[9] == 6*) GOTO 0x1264
370: 0x1250 [0x45] LOAD_SCHEDULED_TASK: Load scheduler "s061" with entities [LocalPlayer, LocalPlayer], work=[682*, 0*]
371: 0x1261 [0x01] GOTO 0x1275
372: 0x1264 [0x45] LOAD_SCHEDULED_TASK: Load scheduler "s023" with entities [LocalPlayer, LocalPlayer], work=[682*, 0*]

SUBROUTINE_1275:
373: 0x1275 [0x29] REQ_SET_WAIT(priority=0x08, entity_id=Peppe-Aleppe (ID: 17871211/0x0110B16B), tag_num=0x1E)
374: 0x127C [0x2B] Peppe-Aleppe (ID: 17871211/0x0110B16B) [7827*]:
    → "<Sigh> All right. Let's see... First, for our pioneer friend-wend..."
375: 0x1283 [0x29] REQ_SET_WAIT(priority=0x08, entity_id=Peppe-Aleppe (ID: 17871211/0x0110B16B), tag_num=0x1F)
376: 0x128A [0x79] Peppe-Aleppe (ID: 17871211/0x0110B16B) looks at LocalPlayer (Basic look)
377: 0x1294 [0x79] LocalPlayer looks at Peppe-Aleppe (ID: 17871211/0x0110B16B) (Basic look)
378: 0x129E [0x23] WAIT_FOR_DIALOG_INTERACTION
379: 0x129F [0x79] LocalPlayer looks at Orsa-Porsa (ID: 17871212/0x0110B16C) (Basic look)
380: 0x12A9 [0x29] REQ_SET_WAIT(priority=0x08, entity_id=Orsa-Porsa (ID: 17871212/0x0110B16C), tag_num=0x34)
381: 0x12B0 [0x4A] Orsa-Porsa (ID: 17871212/0x0110B16C) looks at LocalPlayer
382: 0x12B9 [0x6F] WAIT_FRAME_DELAY: Yield until WaitTime reaches zero
383: 0x12BA [0x76] CHECK_ENTITY_RENDER_FLAGS: Wait until Orsa-Porsa (ID: 17871212/0x0110B16C) Render.Flags0 and Render.Flags3 conditions are met
384: 0x12BF [0x02] IF !(Work_Zone[9] == 5*) GOTO 0x12D9
385: 0x12C7 [0x52] END_LOAD_SCHEDULER: End scheduler "s061" with entities [LocalPlayer, LocalPlayer], work=682*
386: 0x12D6 [0x01] GOTO 0x1302
387: 0x12D9 [0x02] IF !(Work_Zone[9] == 6*) GOTO 0x12F3
388: 0x12E1 [0x52] END_LOAD_SCHEDULER: End scheduler "s061" with entities [LocalPlayer, LocalPlayer], work=682*
389: 0x12F0 [0x01] GOTO 0x1302
390: 0x12F3 [0x52] END_LOAD_SCHEDULER: End scheduler "s023" with entities [LocalPlayer, LocalPlayer], work=682*

SUBROUTINE_1302:
391: 0x1302 [0x45] LOAD_SCHEDULED_TASK: Load scheduler "s024" with entities [LocalPlayer, LocalPlayer], work=[682*, 0*]
392: 0x1313 [0x03] Work_Zone[3] = 2755*
393: 0x1318 [0x29] REQ_SET_WAIT(priority=0x08, entity_id=Orsa-Porsa (ID: 17871212/0x0110B16C), tag_num=0x0B)
394: 0x131F [0x2B] Orsa-Porsa (ID: 17871212/0x0110B16C) [7828*]:
    → "Slap around some ruszors and bring us one $1!"
395: 0x1326 [0x23] WAIT_FOR_DIALOG_INTERACTION
396: 0x1327 [0x29] REQ_SET_WAIT(priority=0x08, entity_id=Orsa-Porsa (ID: 17871212/0x0110B16C), tag_num=0x0C)
397: 0x132E [0x4A] Peppe-Aleppe (ID: 17871211/0x0110B16B) looks at Orsa-Porsa (ID: 17871212/0x0110B16C)
398: 0x1337 [0x2B] Orsa-Porsa (ID: 17871212/0x0110B16C) [7829*]:
    → "That would be perfectaru! In the meantime, I'll do some running-wunning around, both to get my blood pumping and to see if I can <sniff> find anything."
399: 0x133E [0x29] REQ_SET_WAIT(priority=0x08, entity_id=Orsa-Porsa (ID: 17871212/0x0110B16C), tag_num=0x11)
400: 0x1345 [0x29] REQ_SET_WAIT(priority=0x08, entity_id=Orsa-Porsa (ID: 17871212/0x0110B16C), tag_num=0x12)
401: 0x134C [0x6F] WAIT_FRAME_DELAY: Yield until WaitTime reaches zero
402: 0x134D [0x76] CHECK_ENTITY_RENDER_FLAGS: Wait until Peppe-Aleppe (ID: 17871211/0x0110B16B) Render.Flags0 and Render.Flags3 conditions are met
403: 0x1352 [0x7B] Orsa-Porsa (ID: 17871212/0x0110B16C) stops talking
404: 0x1357 [0x1C] WAIT(30* ticks)
405: 0x135A [0x27] REQ_SET(priority=0x08, entity_id=Orsa-Porsa (ID: 17871212/0x0110B16C), tag_num=0x4F)
406: 0x1361 [0x23] WAIT_FOR_DIALOG_INTERACTION
407: 0x1362 [0x29] REQ_SET_WAIT(priority=0x08, entity_id=Peppe-Aleppe (ID: 17871211/0x0110B16B), tag_num=0x20)
408: 0x1369 [0x1C] WAIT(30* ticks)
409: 0x136C [0x52] END_LOAD_SCHEDULER: End scheduler "s024" with entities [LocalPlayer, LocalPlayer], work=682*
410: 0x137B [0x02] IF !(Work_Zone[9] == 3*) GOTO 0x1397
411: 0x1383 [0x45] LOAD_SCHEDULED_TASK: Load scheduler "s055" with entities [LocalPlayer, LocalPlayer], work=[682*, 0*]
412: 0x1394 [0x01] GOTO 0x13FC
413: 0x1397 [0x02] IF !(Work_Zone[9] == 5*) GOTO 0x13B3
414: 0x139F [0x45] LOAD_SCHEDULED_TASK: Load scheduler "s062" with entities [LocalPlayer, LocalPlayer], work=[682*, 0*]
415: 0x13B0 [0x01] GOTO 0x13FC
416: 0x13B3 [0x02] IF !(Work_Zone[9] == 6*) GOTO 0x13CF
417: 0x13BB [0x45] LOAD_SCHEDULED_TASK: Load scheduler "s062" with entities [LocalPlayer, LocalPlayer], work=[682*, 0*]
418: 0x13CC [0x01] GOTO 0x13FC
419: 0x13CF [0x02] IF !(Work_Zone[9] == 8*) GOTO 0x13EB
420: 0x13D7 [0x45] LOAD_SCHEDULED_TASK: Load scheduler "s055" with entities [LocalPlayer, LocalPlayer], work=[682*, 0*]
421: 0x13E8 [0x01] GOTO 0x13FC
422: 0x13EB [0x45] LOAD_SCHEDULED_TASK: Load scheduler "s025" with entities [LocalPlayer, LocalPlayer], work=[682*, 0*]

SUBROUTINE_13FC:
423: 0x13FC [0x29] REQ_SET_WAIT(priority=0x08, entity_id=Peppe-Aleppe (ID: 17871211/0x0110B16B), tag_num=0x21)
424: 0x1403 [0x4A] Peppe-Aleppe (ID: 17871211/0x0110B16B) looks at LocalPlayer
425: 0x140C [0x6F] WAIT_FRAME_DELAY: Yield until WaitTime reaches zero
426: 0x140D [0x76] CHECK_ENTITY_RENDER_FLAGS: Wait until Peppe-Aleppe (ID: 17871211/0x0110B16B) Render.Flags0 and Render.Flags3 conditions are met
427: 0x1412 [0x2B] Peppe-Aleppe (ID: 17871211/0x0110B16B) [7830*]:
    → "...He'd better come back... Okay, while you two are off, I'll put my thinking cap-wap on!"
428: 0x1419 [0x1C] WAIT(30* ticks)
429: 0x141C [0x79] LocalPlayer looks at Peppe-Aleppe (ID: 17871211/0x0110B16B) (Basic look)
430: 0x1426 [0x23] WAIT_FOR_DIALOG_INTERACTION
431: 0x1427 [0x45] LOAD_SCHEDULED_TASK: Load scheduler "fdo1" with entities [LocalPlayer, LocalPlayer], work=[200*, 0*]
432: 0x1438 [0x55] WAIT_LOAD_SCHEDULER: Wait for scheduler "fdo1" with entities [LocalPlayer, LocalPlayer], work=200*
433: 0x1447 [0x02] IF !(Work_Zone[9] == 3*) GOTO 0x1461
434: 0x144F [0x52] END_LOAD_SCHEDULER: End scheduler "s055" with entities [LocalPlayer, LocalPlayer], work=682*
435: 0x145E [0x01] GOTO 0x14BE
436: 0x1461 [0x02] IF !(Work_Zone[9] == 5*) GOTO 0x147B
437: 0x1469 [0x52] END_LOAD_SCHEDULER: End scheduler "s062" with entities [LocalPlayer, LocalPlayer], work=682*
438: 0x1478 [0x01] GOTO 0x14BE
439: 0x147B [0x02] IF !(Work_Zone[9] == 6*) GOTO 0x1495
440: 0x1483 [0x52] END_LOAD_SCHEDULER: End scheduler "s062" with entities [LocalPlayer, LocalPlayer], work=682*
441: 0x1492 [0x01] GOTO 0x14BE
442: 0x1495 [0x02] IF !(Work_Zone[9] == 8*) GOTO 0x14AF
443: 0x149D [0x52] END_LOAD_SCHEDULER: End scheduler "s055" with entities [LocalPlayer, LocalPlayer], work=682*
444: 0x14AC [0x01] GOTO 0x14BE
445: 0x14AF [0x52] END_LOAD_SCHEDULER: End scheduler "s025" with entities [LocalPlayer, LocalPlayer], work=682*

SUBROUTINE_14BE:
446: 0x14BE [0x01] GOTO 0x1527
447: 0x14C1 [0x02] IF !(Work_Zone[0] == 1*) GOTO 0x1527
448: 0x14C9 [0x03] Work_Zone[1] = 1*
449: 0x14CE [0x45] LOAD_SCHEDULED_TASK: Load scheduler "s053" with entities [LocalPlayer, LocalPlayer], work=[682*, 0*]
450: 0x14DF [0x29] REQ_SET_WAIT(priority=0x08, entity_id=Peppe-Aleppe (ID: 17871211/0x0110B16B), tag_num=0x0A)
451: 0x14E6 [0x2B] Peppe-Aleppe (ID: 17871211/0x0110B16B) [7821*]:
    → "Waaaaaah! I'll never see home again!"
452: 0x14ED [0x23] WAIT_FOR_DIALOG_INTERACTION
453: 0x14EE [0x29] REQ_SET_WAIT(priority=0x08, entity_id=Peppe-Aleppe (ID: 17871211/0x0110B16B), tag_num=0x0B)
454: 0x14F5 [0x45] LOAD_SCHEDULED_TASK: Load scheduler "fdo1" with entities [LocalPlayer, LocalPlayer], work=[200*, 0*]
455: 0x1506 [0x55] WAIT_LOAD_SCHEDULER: Wait for scheduler "fdo1" with entities [LocalPlayer, LocalPlayer], work=200*
456: 0x1515 [0x52] END_LOAD_SCHEDULER: End scheduler "s053" with entities [LocalPlayer, LocalPlayer], work=682*
457: 0x1524 [0x01] GOTO 0x1527

SUBROUTINE_1527:
458: 0x1527 [0x5C] MUSIC_CONTROL: Set Idle (Day) music to song 72*
459: 0x152B [0x5C] MUSIC_CONTROL: Set Idle (Night) music to song 72*
460: 0x152F [0x9A] WAIT_MUSIC_SERVER()
461: 0x1530 [0x5D] SET_MUSIC_VOLUME(volume=127*, fade_time=1*)
462: 0x1535 [0x1C] WAIT(2* ticks)
463: 0x1538 [0x46] CAMERA_CONTROL: Restore default settings
464: 0x153A [0x45] LOAD_SCHEDULED_TASK: Load scheduler "fdi1" with entities [LocalPlayer, LocalPlayer], work=[200*, 0*]
465: 0x154B [0x20] SET_CLI_EVENT_UC_FLAG: Unlock player control
466: 0x154D [0x21] END_EVENT
467: 0x154E [0x00] END_REQSTACK()
```

### Event 42

#### Metadata

| Field        | Value      |
|--------------|------------|
| Entrypoint   | 0x154F     |
| Data Size    | 2685 bytes |
| Instructions | 346        |

```
      00 01 02 03 04 05 06 07  08 09 0A 0B 0C 0D 0E 0F
      -- -- -- -- -- -- -- --  -- -- -- -- -- -- -- --
1540:                                               42                 B
1550: 46 01 45 00 80 F0 FF FF  7F F0 FF FF 7F 66 64 6F  F.E..........fdo
1560: 31 01 80 55 00 80 F0 FF  FF 7F F0 FF FF 7F 66 64  1..U..........fd
1570: 6F 31 38 02 80 2F 00 6C  B1 10 01 4E 00 6C B1 10  o18../.l...N.l..
1580: 01 29 08 F0 FF FF 7F 0F  29 08 6C B1 10 01 50 92  .)......).l...P.
1590: 01 6B B1 10 01 92 01 6C  B1 10 01 92 01 6A B1 10  .k.....l.....j..
15A0: 01 80 6C B1 10 01 4A 6B  B1 10 01 F0 FF FF 7F 4A  ..l...Jk.......J
15B0: F0 FF FF 7F 6B B1 10 01  6F 76 6B B1 10 01 6F 76  ....k...ovk...ov
15C0: F0 FF FF 7F 29 08 F0 FF  FF 7F 08 29 08 F0 FF FF  ....)......)....
15D0: 7F 34 29 08 6B B1 10 01  22 1C 0D 80 02 09 10 1E  .4).k...".......
15E0: 80 00 F8 15 45 2B 80 F0  FF FF 7F F0 FF FF 7F 73  ....E+.........s
15F0: 30 34 33 01 80 01 41 16  02 09 10 1F 80 00 14 16  043...A.........
1600: 45 2B 80 F0 FF FF 7F F0  FF FF 7F 73 30 34 33 01  E+.........s043.
1610: 80 01 41 16 02 09 10 2C  80 00 30 16 45 2B 80 F0  ..A....,..0.E+..
1620: FF FF 7F F0 FF FF 7F 73  30 34 37 01 80 01 41 16  .......s047...A.
1630: 45 2B 80 F0 FF FF 7F F0  FF FF 7F 73 30 30 31 01  E+.........s001.
1640: 80 45 00 80 F0 FF FF 7F  F0 FF FF 7F 66 64 69 31  .E..........fdi1
1650: 01 80 55 00 80 F0 FF FF  7F F0 FF FF 7F 66 64 69  ..U..........fdi
1660: 31 03 03 10 4C 80 2B 6B  B1 10 01 51 80 23 29 08  1...L.+k...Q.#).
1670: 6B B1 10 01 23 02 09 10  1E 80 00 8F 16 52 2B 80  k...#........R+.
1680: F0 FF FF 7F F0 FF FF 7F  73 30 34 33 01 D2 16 02  ........s043....
1690: 09 10 1F 80 00 A9 16 52  2B 80 F0 FF FF 7F F0 FF  .......R+.......
16A0: FF 7F 73 30 34 33 01 D2  16 02 09 10 2C 80 00 C3  ..s043......,...
16B0: 16 52 2B 80 F0 FF FF 7F  F0 FF FF 7F 73 30 34 37  .R+.........s047
16C0: 01 D2 16 52 2B 80 F0 FF  FF 7F F0 FF FF 7F 73 30  ...R+.........s0
16D0: 30 31 02 09 10 2C 80 00  EE 16 45 2B 80 F0 FF FF  01...,....E+....
16E0: 7F F0 FF FF 7F 73 30 35  32 01 80 01 FF 16 45 2B  .....s052.....E+
16F0: 80 F0 FF FF 7F F0 FF FF  7F 73 30 32 37 01 80 27  .........s027..'
1700: 08 6B B1 10 01 2E 2B 6B  B1 10 01 52 80 2A 08 6B  .k....+k...R.*.k
1710: B1 10 01 29 08 6B B1 10  01 06 23 02 09 10 2C 80  ...).k....#...,.
1720: 00 35 17 52 2B 80 F0 FF  FF 7F F0 FF FF 7F 73 30  .5.R+.........s0
1730: 35 32 01 44 17 52 2B 80  F0 FF FF 7F F0 FF FF 7F  52.D.R+.........
1740: 73 30 32 37 45 2B 80 F0  FF FF 7F F0 FF FF 7F 73  s027E+.........s
1750: 30 32 36 01 80 03 04 10  53 80 2B 6B B1 10 01 54  026.....S.+k...T
1760: 80 23 29 08 6B B1 10 01  07 52 2B 80 F0 FF FF 7F  .#).k....R+.....
1770: F0 FF FF 7F 73 30 32 36  45 2B 80 F0 FF FF 7F F0  ....s026E+......
1780: FF FF 7F 73 30 32 38 01  80 4A F0 FF FF 7F 6B B1  ...s028..J....k.
1790: 10 01 03 05 10 55 80 2B  6B B1 10 01 56 80 23 6F  .....U.+k...V.#o
17A0: 76 F0 FF FF 7F 52 2B 80  F0 FF FF 7F F0 FF FF 7F  v....R+.........
17B0: 73 30 32 38 02 09 10 42  80 00 D0 17 45 2B 80 F0  s028...B....E+..
17C0: FF FF 7F F0 FF FF 7F 73  30 34 39 01 80 01 35 18  .......s049...5.
17D0: 02 09 10 1E 80 00 EC 17  45 2B 80 F0 FF FF 7F F0  ........E+......
17E0: FF FF 7F 73 30 34 35 01  80 01 35 18 02 09 10 1F  ...s045...5.....
17F0: 80 00 08 18 45 2B 80 F0  FF FF 7F F0 FF FF 7F 73  ....E+.........s
1800: 30 34 35 01 80 01 35 18  02 09 10 2C 80 00 24 18  045...5....,..$.
1810: 45 2B 80 F0 FF FF 7F F0  FF FF 7F 73 30 34 39 01  E+.........s049.
1820: 80 01 35 18 45 2B 80 F0  FF FF 7F F0 FF FF 7F 73  ..5.E+.........s
1830: 30 32 39 01 80 29 08 6B  B1 10 01 08 29 08 6B B1  029..).k....).k.
1840: 10 01 09 29 08 6C B1 10  01 33 29 08 6B B1 10 01  ...).l...3).k...
1850: 04 2B 6B B1 10 01 57 80  1C 0D 80 4A F0 FF FF 7F  .+k...W....J....
1860: 6C B1 10 01 6F 76 F0 FF  FF 7F 29 08 6B B1 10 01  l...ov....).k...
1870: 05 23 02 09 10 42 80 00  8C 18 52 2B 80 F0 FF FF  .#...B....R+....
1880: 7F F0 FF FF 7F 73 30 34  39 01 E9 18 02 09 10 1E  .....s049.......
1890: 80 00 A6 18 52 2B 80 F0  FF FF 7F F0 FF FF 7F 73  ....R+.........s
18A0: 30 34 35 01 E9 18 02 09  10 1F 80 00 C0 18 52 2B  045...........R+
18B0: 80 F0 FF FF 7F F0 FF FF  7F 73 30 34 35 01 E9 18  .........s045...
18C0: 02 09 10 2C 80 00 DA 18  52 2B 80 F0 FF FF 7F F0  ...,....R+......
18D0: FF FF 7F 73 30 34 39 01  E9 18 52 2B 80 F0 FF FF  ...s049...R+....
18E0: 7F F0 FF FF 7F 73 30 32  39 45 2B 80 F0 FF FF 7F  .....s029E+.....
18F0: F0 FF FF 7F 73 30 33 30  01 80 5D 01 80 03 80 1C  ....s030..].....
1900: 03 80 27 08 6B B1 10 01  30 1C 09 80 45 00 80 F0  ..'.k...0...E...
1910: FF FF 7F F0 FF FF 7F 66  64 6F 31 01 80 55 00 80  .......fdo1..U..
1920: F0 FF FF 7F F0 FF FF 7F  66 64 6F 31 52 2B 80 F0  ........fdo1R+..
1930: FF FF 7F F0 FF FF 7F 73  30 33 30 2A 08 6B B1 10  .......s030*.k..
1940: 01 29 08 6C B1 10 01 51  29 08 6B B1 10 01 31 29  .).l...Q).k...1)
1950: 08 F0 FF FF 7F 12 29 08  6C B1 10 01 47 5C 00 2A  ......).l...G\.*
1960: 80 5C 01 2A 80 9A 5D 0F  80 10 80 4A 6B B1 10 01  .\.*..]....Jk...
1970: 6C B1 10 01 4A F0 FF FF  7F 6C B1 10 01 6F 76 F0  l...J....l...ov.
1980: FF FF 7F 6F 76 6B B1 10  01 1C 16 80 45 2B 80 F0  ...ovk......E+..
1990: FF FF 7F F0 FF FF 7F 73  30 33 31 01 80 45 00 80  .......s031..E..
19A0: F0 FF FF 7F F0 FF FF 7F  66 64 69 31 01 80 55 00  ........fdi1..U.
19B0: 80 F0 FF FF 7F F0 FF FF  7F 66 64 69 31 29 08 6B  .........fdi1).k
19C0: B1 10 01 1E 2B 6B B1 10  01 58 80 23 29 08 6B B1  ....+k...X.#).k.
19D0: 10 01 1F 29 08 6C B1 10  01 48 1C 2F 80 52 2B 80  ...).l...H./.R+.
19E0: F0 FF FF 7F F0 FF FF 7F  73 30 33 31 45 2B 80 F0  ........s031E+..
19F0: FF FF 7F F0 FF FF 7F 73  30 33 32 01 80 1C 41 80  .......s032...A.
1A00: 4A 6C B1 10 01 6B B1 10  01 6F 76 6C B1 10 01 29  Jl...k...ovl...)
1A10: 08 6C B1 10 01 2C 2B 6C  B1 10 01 59 80 23 29 08  .l...,+l...Y.#).
1A20: 6C B1 10 01 2D 29 08 6B  B1 10 01 16 2B 6B B1 10  l...-).k....+k..
1A30: 01 5A 80 23 52 2B 80 F0  FF FF 7F F0 FF FF 7F 73  .Z.#R+.........s
1A40: 30 33 32 45 2B 80 F0 FF  FF 7F F0 FF FF 7F 73 30  032E+.........s0
1A50: 33 33 01 80 29 08 6C B1  10 01 34 1C 0D 80 2B 6C  33..).l...4...+l
1A60: B1 10 01 5B 80 23 29 08  6B B1 10 01 17 29 08 6B  ...[.#).k....).k
1A70: B1 10 01 18 29 08 6B B1  10 01 19 52 2B 80 F0 FF  ....).k....R+...
1A80: FF 7F F0 FF FF 7F 73 30  33 33 45 2B 80 F0 FF FF  ......s033E+....
1A90: 7F F0 FF FF 7F 73 30 33  34 01 80 29 08 6B B1 10  .....s034..).k..
1AA0: 01 01 2B 6B B1 10 01 5C  80 23 03 03 10 4C 80 2B  ..+k...\.#...L.+
1AB0: 6B B1 10 01 5D 80 29 08  6B B1 10 01 02 29 08 6B  k...].).k....).k
1AC0: B1 10 01 22 29 08 6C B1  10 01 0B 29 08 6B B1 10  ...").l....).k..
1AD0: 01 23 29 08 6C B1 10 01  0C 23 52 2B 80 F0 FF FF  .#).l....#R+....
1AE0: 7F F0 FF FF 7F 73 30 33  34 02 09 10 1E 80 00 05  .....s034.......
1AF0: 1B 45 2B 80 F0 FF FF 7F  F0 FF FF 7F 73 30 34 36  .E+.........s046
1B00: 01 80 01 4E 1B 02 09 10  1F 80 00 21 1B 45 2B 80  ...N.......!.E+.
1B10: F0 FF FF 7F F0 FF FF 7F  73 30 34 36 01 80 01 4E  ........s046...N
1B20: 1B 02 09 10 2C 80 00 3D  1B 45 2B 80 F0 FF FF 7F  ....,..=.E+.....
1B30: F0 FF FF 7F 73 30 35 30  01 80 01 4E 1B 45 2B 80  ....s050...N.E+.
1B40: F0 FF FF 7F F0 FF FF 7F  73 30 33 35 01 80 29 08  ........s035..).
1B50: 6C B1 10 01 03 1C 09 80  2B 6C B1 10 01 5E 80 23  l.......+l...^.#
1B60: 29 08 6C B1 10 01 04 29  08 6B B1 10 01 1A 29 08  ).l....).k....).
1B70: 6B B1 10 01 1B 29 08 6C  B1 10 01 05 29 08 6B B1  k....).l....).k.
1B80: 10 01 04 2B 6B B1 10 01  5F 80 23 29 08 6B B1 10  ...+k..._.#).k..
1B90: 01 05 29 08 6C B1 10 01  06 02 09 10 1E 80 00 B3  ..).l...........
1BA0: 1B 52 2B 80 F0 FF FF 7F  F0 FF FF 7F 73 30 34 36  .R+.........s046
1BB0: 01 F6 1B 02 09 10 1F 80  00 CD 1B 52 2B 80 F0 FF  ...........R+...
1BC0: FF 7F F0 FF FF 7F 73 30  34 36 01 F6 1B 02 09 10  ......s046......
