# 17871210 - Traiffeaux

## Common Data

| Field            | Value                   |
|------------------|-------------------------|
| Zone             | Kamihr Drifts (ID: 267) |
| Block Size       | 1276 bytes              |
| Total Events     | 34                      |
| References Count | 57                      |

## List of Events

| Event ID                   | Entrypoint   |   Size |   Instructions |
|----------------------------|--------------|--------|----------------|
| [65535](#event-65535)      | 0x0000       |      1 |              1 |
| [65535.1](#event-655351)   | 0x0001       |     47 |              5 |
| [65535.2](#event-655352)   | 0x0030       |     16 |              2 |
| [65535.3](#event-655353)   | 0x0040       |     14 |              2 |
| [65535.4](#event-655354)   | 0x004E       |     16 |              2 |
| [65535.5](#event-655355)   | 0x005E       |     14 |              2 |
| [65535.6](#event-655356)   | 0x006C       |     16 |              2 |
| [65535.7](#event-655357)   | 0x007C       |     14 |              2 |
| [65535.8](#event-655358)   | 0x008A       |     16 |              2 |
| [65535.9](#event-655359)   | 0x009A       |     14 |              2 |
| [65535.10](#event-6553510) | 0x00A8       |     16 |              2 |
| [65535.11](#event-6553511) | 0x00B8       |     14 |              2 |
| [65535.12](#event-6553512) | 0x00C6       |     16 |              2 |
| [65535.13](#event-6553513) | 0x00D6       |     14 |              2 |
| [65535.14](#event-6553514) | 0x00E4       |     29 |              3 |
| [65535.15](#event-6553515) | 0x0101       |     16 |              3 |
| [65535.16](#event-6553516) | 0x0111       |      7 |              3 |
| [65535.17](#event-6553517) | 0x0118       |      7 |              3 |
| [65535.18](#event-6553518) | 0x011F       |      9 |              3 |
| [21](#event-21)            | 0x0128       |     19 |             10 |
| [23](#event-23)            | 0x013B       |     19 |             10 |
| [24](#event-24)            | 0x014E       |    445 |            131 |
| [25](#event-25)            | 0x030B       |     33 |             14 |
| [26](#event-26)            | 0x032C       |      1 |              1 |
| [65535.19](#event-6553519) | 0x032D       |     10 |              2 |
| [65535.20](#event-6553520) | 0x0337       |     14 |              4 |
| [65535.21](#event-6553521) | 0x0345       |      1 |              1 |
| [65535.22](#event-6553522) | 0x0346       |      1 |              1 |
| [65535.23](#event-6553523) | 0x0347       |     10 |              2 |
| [65535.24](#event-6553524) | 0x0351       |     14 |              4 |
| [27](#event-27)            | 0x035F       |     15 |              8 |
| [28](#event-28)            | 0x036E       |     15 |              8 |
| [40](#event-40)            | 0x037D       |      1 |              1 |
| [42](#event-42)            | 0x037E       |      1 |              1 |

## DAT References (imed_data)

|   Index | Hex Value   |   Dec Value |
|---------|-------------|-------------|
|       0 | 0x001D      |          29 |
|       1 | 0x0032      |          50 |
|       2 | 0x00A9      |         169 |
|       3 | 0x005B      |          91 |
|       4 | 0x0000      |           0 |
|       5 | 0x0064      |         100 |
|       6 | 0x0001      |           1 |
|       7 | 0x001E      |          30 |
|       8 | 0x1E45      |        7749 |
|       9 | 0x1E46      |        7750 |
|      10 | 0x1E4B      |        7755 |
|      11 | 0x0002      |           2 |
|      12 | 0x1E4C      |        7756 |
|      13 | 0x1E4D      |        7757 |
|      14 | 0x1E4E      |        7758 |
|      15 | 0x1E4F      |        7759 |
|      16 | 0x1E50      |        7760 |
|      17 | 0x1E52      |        7762 |
|      18 | 0x1E51      |        7761 |
|      19 | 0x1E53      |        7763 |
|      20 | 0x1E54      |        7764 |
|      21 | 0x1E55      |        7765 |
|      22 | 0x1E56      |        7766 |
|      23 | 0x1E57      |        7767 |
|      24 | 0x1E58      |        7768 |
|      25 | 0x1E59      |        7769 |
|      26 | 0x1E5A      |        7770 |
|      27 | 0x1E5B      |        7771 |
|      28 | 0x1E5C      |        7772 |
|      29 | 0x1E5D      |        7773 |
|      30 | 0x1E5E      |        7774 |
|      31 | 0x1E5F      |        7775 |
|      32 | 0x0358      |         856 |
|      33 | 0x1E60      |        7776 |
|      34 | 0x2205      |        8709 |
|      35 | 0x1E61      |        7777 |
|      36 | 0x1E62      |        7778 |
|      37 | 0x1E63      |        7779 |
|      38 | 0x1E64      |        7780 |
|      39 | 0x1E65      |        7781 |
|      40 | 0x6ACCB     |      437451 |
|      41 | 0xFFFB9130  |  4294676784 |
|      42 | 0xF618      |       63000 |
|      43 | 0xFFFFFC7C  |  4294966396 |
|      44 | 0x000D      |          13 |
|      45 | 0x6A019     |      434201 |
|      46 | 0xFFFBA6D9  |  4294682329 |
|      47 | 0xF6FF      |       63231 |
|      48 | 0x1DBC4     |      121796 |
|      49 | 0xFFFBCE9B  |  4294692507 |
|      50 | 0x9D83      |       40323 |
|      51 | 0x08AA      |        2218 |
|      52 | 0x1C2B4     |      115380 |
|      53 | 0xFFFBD5B1  |  4294694321 |
|      54 | 0x9E1A      |       40474 |
|      55 | 0x1E75      |        7797 |
|      56 | 0x1E76      |        7798 |

## String References

- **7749**: ...
- **7750**: He seems to be trying to say something, but his voice is too soft to make out.
- **7755**: What will you do? [Ask him to speak up./Leave in despair.]
- **7756**: <Shuffle> <shuffle>
- **7757**: <Shuffle> (You are a p-patient one, aren't you?)
- **7758**: (The Kamihr Drifts are long known as a place of t-training and ritual for geomancers of old, and so, too, have I chosen to make this p-pilgrimage.)
- **7759**: (My voice is so s-soft because I am attuning my senses to the region so I can become one with n-nature... Can you even hear me?)
- **7760**: Can you hear him? [Of course./Why would I even want to?]
- **7761**: (Then leave me to my devices.)
- **7762**: (Then t-tell that little toy soldier over there to stop pestering me to break down the walls while I am t-training.)
- **7763**: Will you tell the Taru to stop? [Sure./Wait. What if you taught me how?]
- **7764**: (I appreciate your th-thoughtfulness, but there's no way he will lend an ear to my plight.)
- **7765**: (You raise an interesting p-point. If I imparted my knowledge to you, then you could d-do as he asks...and in turn, I can resume my regimen.)
- **7766**: (You must f-focus all your thoughts on the ice. Become the ice. Find its eye--the weakest point--and s-smash into it with all your might.)
- **7767**: (S-sounds easy? Well, it is not. No, I predict it would take you...[thirty/three] years to perform such a feat.)
- **7768**: What will you say? [[Thirty/Three] years? Piece of cake!/I can't even wait that many minutes...]
- **7769**: (I admire your dedication, but...there may yet b-be another way.)
- **7770**: (W-wait...there may be another way.)
- **7771**: (If you can hear me, then p-perhaps...perhaps you could sense the changes in tone when you thump different parts of the wall.)
- **7772**: (This might enable you to f-find the eye.)
- **7773**: (I shall teach you to distinguish b-between the eye and the other parts of the ice.)
- **7774**: (But do not be so b-brash as to put your head directly to the ice. Your ears would just weld to the surface.)
- **7775**: (So what you need, then, is a n-nice pair of earmuffs.)
- **7776**: (G-gather three $1 from the snowpelt rabbits around the drifts...)
- **7777**: (And while you are in the vicinity, one $2 from a raaz.)
- **7778**: (I can tear myself a-away from my training long enough to make a pair for you.)
- **7779**: (I am s-sure you would be able to break the wall if you could hear the eye of the ice.)
- **7780**: (To p-protect your ears during the process, I will make you a little something if you bring me three $1 from rabbits and one $2 from a raaz.)
- **7781**: (That should be enough for you to accomplish your t-task.)
- **7797**: (Breaking down the wall is b-but one of many grueling trials that you will doubtless undertake.)
- **7798**: (B-but all this gives me pause...why would the leafkin be in such an inhospitable place...?)

## Events

### Event 65535

#### Metadata

| Field        | Value   |
|--------------|---------|
| Entrypoint   | 0x0000  |
| Data Size    | 1 bytes |
| Instructions | 1       |

```
      00 01 02 03 04 05 06 07  08 09 0A 0B 0C 0D 0E 0F
      -- -- -- -- -- -- -- --  -- -- -- -- -- -- -- --
0000: 00                                                .               
```

#### Opcodes

```
  0: 0x0000 [0x00] END_REQSTACK()
```

### Event 65535.1

#### Metadata

| Field        | Value    |
|--------------|----------|
| Entrypoint   | 0x0001   |
| Data Size    | 47 bytes |
| Instructions | 5        |

```
      00 01 02 03 04 05 06 07  08 09 0A 0B 0C 0D 0E 0F
      -- -- -- -- -- -- -- --  -- -- -- -- -- -- -- --
0000:    66 00 80 F8 FF FF 7F  F8 FF FF 7F 74 6C 6B 30   f..........tlk0
0010: 1C 01 80 66 00 80 F8 FF  FF 7F F8 FF FF 7F 74 6C  ...f..........tl
0020: 6B 31 53 F8 FF FF 7F F8  FF FF 7F 74 6C 6B 31 00  k1S........tlk1.
```

#### Opcodes

```
  0: 0x0001 [0x66] LOAD_EXT_SCHEDULER_MAIN: Load scheduler "tlk0" with entities [EventEntity, EventEntity], work=29*
  1: 0x0010 [0x1C] WAIT(50* ticks)
  2: 0x0013 [0x66] LOAD_EXT_SCHEDULER_MAIN: Load scheduler "tlk1" with entities [EventEntity, EventEntity], work=29*
  3: 0x0022 [0x53] WAIT_SCHEDULER_TASK: Wait for scheduler "tlk1" with entities [EventEntity, EventEntity]
  4: 0x002F [0x00] END_REQSTACK()
```

### Event 65535.2

#### Metadata

| Field        | Value    |
|--------------|----------|
| Entrypoint   | 0x0030   |
| Data Size    | 16 bytes |
| Instructions | 2        |

```
      00 01 02 03 04 05 06 07  08 09 0A 0B 0C 0D 0E 0F
      -- -- -- -- -- -- -- --  -- -- -- -- -- -- -- --
0030: 66 00 80 F8 FF FF 7F F8  FF FF 7F 74 6C 6B 30 00  f..........tlk0.
```

#### Opcodes

```
  0: 0x0030 [0x66] LOAD_EXT_SCHEDULER_MAIN: Load scheduler "tlk0" with entities [EventEntity, EventEntity], work=29*
  1: 0x003F [0x00] END_REQSTACK()
```

### Event 65535.3

#### Metadata

| Field        | Value    |
|--------------|----------|
| Entrypoint   | 0x0040   |
| Data Size    | 14 bytes |
| Instructions | 2        |

```
      00 01 02 03 04 05 06 07  08 09 0A 0B 0C 0D 0E 0F
      -- -- -- -- -- -- -- --  -- -- -- -- -- -- -- --
0040: 53 F8 FF FF 7F F8 FF FF  7F 74 6C 6B 30 00        S........tlk0.  
```

#### Opcodes

```
  0: 0x0040 [0x53] WAIT_SCHEDULER_TASK: Wait for scheduler "tlk0" with entities [EventEntity, EventEntity]
  1: 0x004D [0x00] END_REQSTACK()
```

### Event 65535.4

#### Metadata

| Field        | Value    |
|--------------|----------|
| Entrypoint   | 0x004E   |
| Data Size    | 16 bytes |
| Instructions | 2        |

```
      00 01 02 03 04 05 06 07  08 09 0A 0B 0C 0D 0E 0F
      -- -- -- -- -- -- -- --  -- -- -- -- -- -- -- --
0040:                                            66 00                f.
0050: 80 F8 FF FF 7F F8 FF FF  7F 74 6C 6B 31 00        .........tlk1.  
```

#### Opcodes

```
  0: 0x004E [0x66] LOAD_EXT_SCHEDULER_MAIN: Load scheduler "tlk1" with entities [EventEntity, EventEntity], work=29*
  1: 0x005D [0x00] END_REQSTACK()
```

### Event 65535.5

#### Metadata

| Field        | Value    |
|--------------|----------|
| Entrypoint   | 0x005E   |
| Data Size    | 14 bytes |
| Instructions | 2        |

```
      00 01 02 03 04 05 06 07  08 09 0A 0B 0C 0D 0E 0F
      -- -- -- -- -- -- -- --  -- -- -- -- -- -- -- --
0050:                                            53 F8                S.
0060: FF FF 7F F8 FF FF 7F 74  6C 6B 31 00              .......tlk1.    
```

#### Opcodes

```
  0: 0x005E [0x53] WAIT_SCHEDULER_TASK: Wait for scheduler "tlk1" with entities [EventEntity, EventEntity]
  1: 0x006B [0x00] END_REQSTACK()
```

### Event 65535.6

#### Metadata

| Field        | Value    |
|--------------|----------|
| Entrypoint   | 0x006C   |
| Data Size    | 16 bytes |
| Instructions | 2        |

```
      00 01 02 03 04 05 06 07  08 09 0A 0B 0C 0D 0E 0F
      -- -- -- -- -- -- -- --  -- -- -- -- -- -- -- --
0060:                                      66 00 80 F8              f...
0070: FF FF 7F F8 FF FF 7F 74  68 6B 31 00              .......thk1.    
```

#### Opcodes

```
  0: 0x006C [0x66] LOAD_EXT_SCHEDULER_MAIN: Load scheduler "thk1" with entities [EventEntity, EventEntity], work=29*
  1: 0x007B [0x00] END_REQSTACK()
```

### Event 65535.7

#### Metadata

| Field        | Value    |
|--------------|----------|
| Entrypoint   | 0x007C   |
| Data Size    | 14 bytes |
| Instructions | 2        |

```
      00 01 02 03 04 05 06 07  08 09 0A 0B 0C 0D 0E 0F
      -- -- -- -- -- -- -- --  -- -- -- -- -- -- -- --
0070:                                      53 F8 FF FF              S...
0080: 7F F8 FF FF 7F 74 68 6B  31 00                    .....thk1.      
```

#### Opcodes

```
  0: 0x007C [0x53] WAIT_SCHEDULER_TASK: Wait for scheduler "thk1" with entities [EventEntity, EventEntity]
  1: 0x0089 [0x00] END_REQSTACK()
```

### Event 65535.8

#### Metadata

| Field        | Value    |
|--------------|----------|
| Entrypoint   | 0x008A   |
| Data Size    | 16 bytes |
| Instructions | 2        |

```
      00 01 02 03 04 05 06 07  08 09 0A 0B 0C 0D 0E 0F
      -- -- -- -- -- -- -- --  -- -- -- -- -- -- -- --
0080:                                66 00 80 F8 FF FF            f.....
0090: 7F F8 FF FF 7F 74 68 6B  32 00                    .....thk2.      
```

#### Opcodes

```
  0: 0x008A [0x66] LOAD_EXT_SCHEDULER_MAIN: Load scheduler "thk2" with entities [EventEntity, EventEntity], work=29*
  1: 0x0099 [0x00] END_REQSTACK()
```

### Event 65535.9

#### Metadata

| Field        | Value    |
|--------------|----------|
| Entrypoint   | 0x009A   |
| Data Size    | 14 bytes |
| Instructions | 2        |

```
      00 01 02 03 04 05 06 07  08 09 0A 0B 0C 0D 0E 0F
      -- -- -- -- -- -- -- --  -- -- -- -- -- -- -- --
0090:                                53 F8 FF FF 7F F8            S.....
00A0: FF FF 7F 74 68 6B 32 00                           ...thk2.        
```

#### Opcodes

```
  0: 0x009A [0x53] WAIT_SCHEDULER_TASK: Wait for scheduler "thk2" with entities [EventEntity, EventEntity]
  1: 0x00A7 [0x00] END_REQSTACK()
```

### Event 65535.10

#### Metadata

| Field        | Value    |
|--------------|----------|
| Entrypoint   | 0x00A8   |
| Data Size    | 16 bytes |
| Instructions | 2        |

```
      00 01 02 03 04 05 06 07  08 09 0A 0B 0C 0D 0E 0F
      -- -- -- -- -- -- -- --  -- -- -- -- -- -- -- --
00A0:                          66 02 80 F8 FF FF 7F F8          f.......
00B0: FF FF 7F 74 6C 6B 30 00                           ...tlk0.        
```

#### Opcodes

```
  0: 0x00A8 [0x66] LOAD_EXT_SCHEDULER_MAIN: Load scheduler "tlk0" with entities [EventEntity, EventEntity], work=169*
  1: 0x00B7 [0x00] END_REQSTACK()
```

### Event 65535.11

#### Metadata

| Field        | Value    |
|--------------|----------|
| Entrypoint   | 0x00B8   |
| Data Size    | 14 bytes |
| Instructions | 2        |

```
      00 01 02 03 04 05 06 07  08 09 0A 0B 0C 0D 0E 0F
      -- -- -- -- -- -- -- --  -- -- -- -- -- -- -- --
00B0:                          53 F8 FF FF 7F F8 FF FF          S.......
00C0: 7F 74 6C 6B 30 00                                 .tlk0.          
```

#### Opcodes

```
  0: 0x00B8 [0x53] WAIT_SCHEDULER_TASK: Wait for scheduler "tlk0" with entities [EventEntity, EventEntity]
  1: 0x00C5 [0x00] END_REQSTACK()
```

### Event 65535.12

#### Metadata

| Field        | Value    |
|--------------|----------|
| Entrypoint   | 0x00C6   |
| Data Size    | 16 bytes |
| Instructions | 2        |

```
      00 01 02 03 04 05 06 07  08 09 0A 0B 0C 0D 0E 0F
      -- -- -- -- -- -- -- --  -- -- -- -- -- -- -- --
00C0:                   66 02  80 F8 FF FF 7F F8 FF FF        f.........
00D0: 7F 74 6C 6B 31 00                                 .tlk1.          
```

#### Opcodes

```
  0: 0x00C6 [0x66] LOAD_EXT_SCHEDULER_MAIN: Load scheduler "tlk1" with entities [EventEntity, EventEntity], work=169*
  1: 0x00D5 [0x00] END_REQSTACK()
```

### Event 65535.13

#### Metadata

| Field        | Value    |
|--------------|----------|
| Entrypoint   | 0x00D6   |
| Data Size    | 14 bytes |
| Instructions | 2        |

```
      00 01 02 03 04 05 06 07  08 09 0A 0B 0C 0D 0E 0F
      -- -- -- -- -- -- -- --  -- -- -- -- -- -- -- --
00D0:                   53 F8  FF FF 7F F8 FF FF 7F 74        S........t
00E0: 6C 6B 31 00                                       lk1.            
```

#### Opcodes

```
  0: 0x00D6 [0x53] WAIT_SCHEDULER_TASK: Wait for scheduler "tlk1" with entities [EventEntity, EventEntity]
  1: 0x00E3 [0x00] END_REQSTACK()
```

### Event 65535.14

#### Metadata

| Field        | Value    |
|--------------|----------|
| Entrypoint   | 0x00E4   |
| Data Size    | 29 bytes |
| Instructions | 3        |

```
      00 01 02 03 04 05 06 07  08 09 0A 0B 0C 0D 0E 0F
      -- -- -- -- -- -- -- --  -- -- -- -- -- -- -- --
00E0:             66 03 80 F8  FF FF 7F F8 FF FF 7F 70      f..........p
00F0: 61 73 30 53 F8 FF FF 7F  F8 FF FF 7F 70 61 73 30  as0S........pas0
0100: 00                                                .               
```

#### Opcodes

```
  0: 0x00E4 [0x66] LOAD_EXT_SCHEDULER_MAIN: Load scheduler "pas0" with entities [EventEntity, EventEntity], work=91*
  1: 0x00F3 [0x53] WAIT_SCHEDULER_TASK: Wait for scheduler "pas0" with entities [EventEntity, EventEntity]
  2: 0x0100 [0x00] END_REQSTACK()
```

### Event 65535.15

#### Metadata

| Field        | Value    |
|--------------|----------|
| Entrypoint   | 0x0101   |
| Data Size    | 16 bytes |
| Instructions | 3        |

```
      00 01 02 03 04 05 06 07  08 09 0A 0B 0C 0D 0E 0F
      -- -- -- -- -- -- -- --  -- -- -- -- -- -- -- --
0100:    C4 01 04 80 F8 FF FF  7F 69 B1 10 01 1C 05 80   ........i......
0110: 00                                                .               
```

#### Opcodes

```
  0: 0x0101 [0xC4] SCHEDULE_MAGIC_CASTING_ALT (arg=17): EventEntity casts magic 0* on DIRECTOR by yaeko (ID: 17871209/0x0110B169)
  1: 0x010D [0x1C] WAIT(100* ticks)
  2: 0x0110 [0x00] END_REQSTACK()
```

### Event 65535.16

#### Metadata

| Field        | Value   |
|--------------|---------|
| Entrypoint   | 0x0111  |
| Data Size    | 7 bytes |
| Instructions | 3       |

```
      00 01 02 03 04 05 06 07  08 09 0A 0B 0C 0D 0E 0F
      -- -- -- -- -- -- -- --  -- -- -- -- -- -- -- --
0110:    AB 03 AC 01 06 80 00                            .......        
```

#### Opcodes

```
  0: 0x0111 [0xAB] EventEntity->Render.Flags0 ^= 0x20000 // Toggle bit 17
  1: 0x0113 [0xAC] EventEntity->StatusEvent = 1*
  2: 0x0117 [0x00] END_REQSTACK()
```

### Event 65535.17

#### Metadata

| Field        | Value   |
|--------------|---------|
| Entrypoint   | 0x0118  |
| Data Size    | 7 bytes |
| Instructions | 3       |

```
      00 01 02 03 04 05 06 07  08 09 0A 0B 0C 0D 0E 0F
      -- -- -- -- -- -- -- --  -- -- -- -- -- -- -- --
0110:                          AC 01 04 80 AB 04 00             ....... 
```

#### Opcodes

```
  0: 0x0118 [0xAC] EventEntity->StatusEvent = 0*
  1: 0x011C [0xAB] EventEntity->Render.Flags0 |= 0x40000 // Set bit 18
  2: 0x011E [0x00] END_REQSTACK()
```

### Event 65535.18

#### Metadata

| Field        | Value   |
|--------------|---------|
| Entrypoint   | 0x011F  |
| Data Size    | 9 bytes |
| Instructions | 3       |

```
      00 01 02 03 04 05 06 07  08 09 0A 0B 0C 0D 0E 0F
      -- -- -- -- -- -- -- --  -- -- -- -- -- -- -- --
0110:                                               5E                 ^
0120: 69 64 6C 30 1C 07 80 00                           idl0....        
```

#### Opcodes

```
  0: 0x011F [0x5E] EventEntity goes idle (kills current action) (animation: "idl0")
  1: 0x0124 [0x1C] WAIT(30* ticks)
  2: 0x0127 [0x00] END_REQSTACK()
```

### Event 21

#### Metadata

| Field        | Value    |
|--------------|----------|
| Entrypoint   | 0x0128   |
| Data Size    | 19 bytes |
| Instructions | 10       |

```
      00 01 02 03 04 05 06 07  08 09 0A 0B 0C 0D 0E 0F
      -- -- -- -- -- -- -- --  -- -- -- -- -- -- -- --
0120:                          1E F0 FF FF 7F 6F 70 1D          .....op.
0130: 08 80 23 48 09 80 23 20  00 21 00                 ..#H..# .!.     
```

#### Opcodes

```
  0: 0x0128 [0x1E] EventEntity looks at LocalPlayer and starts talking
  1: 0x012D [0x6F] WAIT_FRAME_DELAY: Yield until WaitTime reaches zero
  2: 0x012E [0x70] WAIT_ENTITY_RENDER_FLAG: Wait while EventEntity->Render.Flags3 bit 2 is set (cancel turn if not)
  3: 0x012F [0x1D] PRINT_EVENT_MESSAGE(message_id=7749*)
    → "..."
  4: 0x0132 [0x23] WAIT_FOR_DIALOG_INTERACTION
  5: 0x0133 [0x48] [System] [7750*]:
    → "He seems to be trying to say something, but his voice is too soft to make out."
  6: 0x0136 [0x23] WAIT_FOR_DIALOG_INTERACTION
  7: 0x0137 [0x20] SET_CLI_EVENT_UC_FLAG: Unlock player control
  8: 0x0139 [0x21] END_EVENT
  9: 0x013A [0x00] END_REQSTACK()
```

### Event 23

#### Metadata

| Field        | Value    |
|--------------|----------|
| Entrypoint   | 0x013B   |
| Data Size    | 19 bytes |
| Instructions | 10       |

```
      00 01 02 03 04 05 06 07  08 09 0A 0B 0C 0D 0E 0F
      -- -- -- -- -- -- -- --  -- -- -- -- -- -- -- --
0130:                                   1E F0 FF FF 7F             .....
0140: 6F 70 1D 08 80 23 48 09  80 23 20 00 21 00        op...#H..# .!.  
```

#### Opcodes

```
  0: 0x013B [0x1E] EventEntity looks at LocalPlayer and starts talking
  1: 0x0140 [0x6F] WAIT_FRAME_DELAY: Yield until WaitTime reaches zero
  2: 0x0141 [0x70] WAIT_ENTITY_RENDER_FLAG: Wait while EventEntity->Render.Flags3 bit 2 is set (cancel turn if not)
  3: 0x0142 [0x1D] PRINT_EVENT_MESSAGE(message_id=7749*)
    → "..."
  4: 0x0145 [0x23] WAIT_FOR_DIALOG_INTERACTION
  5: 0x0146 [0x48] [System] [7750*]:
    → "He seems to be trying to say something, but his voice is too soft to make out."
  6: 0x0149 [0x23] WAIT_FOR_DIALOG_INTERACTION
  7: 0x014A [0x20] SET_CLI_EVENT_UC_FLAG: Unlock player control
  8: 0x014C [0x21] END_EVENT
  9: 0x014D [0x00] END_REQSTACK()
```

### Event 24

#### Metadata

| Field        | Value     |
|--------------|-----------|
| Entrypoint   | 0x014E    |
| Data Size    | 445 bytes |
| Instructions | 117       |

```
      00 01 02 03 04 05 06 07  08 09 0A 0B 0C 0D 0E 0F
      -- -- -- -- -- -- -- --  -- -- -- -- -- -- -- --
0140:                                            42 1D                B.
0150: 08 80 23 48 09 80 23 24  0A 80 04 80 04 80 25 02  ..#H..#$......%.
0160: 00 10 04 80 00 D7 01 03  01 10 0B 80 1D 0C 80 23  ...............#
0170: 48 09 80 23 24 0A 80 04  80 04 80 25 02 00 10 04  H..#$......%....
0180: 80 00 C0 01 03 01 10 0B  80 1D 0C 80 23 48 09 80  ............#H..
0190: 23 24 0A 80 04 80 04 80  25 02 00 10 04 80 00 A9  #$......%.......
01A0: 01 03 01 10 0B 80 01 BD  01 02 00 10 06 80 00 BD  ................
01B0: 01 03 01 10 06 80 20 00  21 00 01 BD 01 01 D4 01  ...... .!.......
01C0: 02 00 10 06 80 00 D4 01  03 01 10 06 80 20 00 21  ............. .!
01D0: 00 01 D4 01 01 EB 01 02  00 10 06 80 00 EB 01 03  ................
01E0: 01 10 06 80 20 00 21 00  01 EB 01 1E F0 FF FF 7F  .... .!.........
01F0: 6F 70 1D 0D 80 23 29 08  6A B1 10 01 06 1D 0E 80  op...#).j.......
0200: 23 1D 0F 80 23 29 08 6A  B1 10 01 07 24 10 80 04  #...#).j....$...
0210: 80 04 80 25 02 00 10 04  80 00 28 02 03 01 10 0B  ...%......(.....
0220: 80 1D 11 80 23 01 4E 02  02 00 10 06 80 00 4E 02  ....#.N.......N.
0230: 03 01 10 06 80 29 08 6A  B1 10 01 08 1D 12 80 23  .....).j.......#
0240: 29 08 6A B1 10 01 09 20  00 21 00 01 4E 02 24 13  ).j.... .!..N.$.
0250: 80 04 80 04 80 25 02 00  10 04 80 00 7C 02 03 01  .....%......|...
0260: 10 06 80 29 08 6A B1 10  01 08 1D 14 80 23 29 08  ...).j.......#).
0270: 6A B1 10 01 09 20 00 21  00 01 98 02 02 00 10 06  j.... .!........
0280: 80 00 98 02 03 01 10 0B  80 1D 15 80 23 1D 16 80  ............#...
0290: 23 1D 17 80 23 01 98 02  24 18 80 04 80 04 80 25  #...#...$......%
02A0: 02 00 10 04 80 00 BB 02  03 01 10 0B 80 29 08 6A  .............).j
02B0: B1 10 01 08 1D 19 80 23  01 D6 02 02 00 10 06 80  .......#........
02C0: 00 D6 02 03 01 10 0B 80  29 08 6A B1 10 01 08 1D  ........).j.....
02D0: 1A 80 23 01 D6 02 1D 1B  80 23 29 08 6A B1 10 01  ..#......#).j...
02E0: 09 1D 1C 80 23 1D 1D 80  23 1D 1E 80 23 1D 1F 80  ....#...#...#...
02F0: 23 03 03 10 20 80 1D 21  80 23 03 04 10 22 80 1D  #... ..!.#..."..
0300: 23 80 23 1D 24 80 23 20  00 21 00                 #.#.$.# .!.     
```

#### Opcodes

```
  0: 0x014E [0x42] SET_CLI_EVENT_CANCEL_DATA()
  1: 0x014F [0x1D] PRINT_EVENT_MESSAGE(message_id=7749*)
    → "..."
  2: 0x0152 [0x23] WAIT_FOR_DIALOG_INTERACTION
  3: 0x0153 [0x48] [System] [7750*]:
    → "He seems to be trying to say something, but his voice is too soft to make out."
  4: 0x0156 [0x23] WAIT_FOR_DIALOG_INTERACTION
  5: 0x0157 [0x24] CREATE_DIALOG(message_id=7755*, default_option=0*, option_flags=0*)
    → "What will you do? [Ask him to speak up./Leave in despair.]"
  6: 0x015E [0x25] WAIT_DIALOG_SELECT()
  7: 0x015F [0x02] IF !(Work_Zone[0] == 0*) GOTO 0x01D7
  8: 0x0167 [0x03] Work_Zone[1] = 2*
  9: 0x016C [0x1D] PRINT_EVENT_MESSAGE(message_id=7756*)
    → "<Shuffle> <shuffle>"
 10: 0x016F [0x23] WAIT_FOR_DIALOG_INTERACTION
 11: 0x0170 [0x48] [System] [7750*]:
    → "He seems to be trying to say something, but his voice is too soft to make out."
 12: 0x0173 [0x23] WAIT_FOR_DIALOG_INTERACTION
 13: 0x0174 [0x24] CREATE_DIALOG(message_id=7755*, default_option=0*, option_flags=0*)
    → "What will you do? [Ask him to speak up./Leave in despair.]"
 14: 0x017B [0x25] WAIT_DIALOG_SELECT()
 15: 0x017C [0x02] IF !(Work_Zone[0] == 0*) GOTO 0x01C0
 16: 0x0184 [0x03] Work_Zone[1] = 2*
 17: 0x0189 [0x1D] PRINT_EVENT_MESSAGE(message_id=7756*)
    → "<Shuffle> <shuffle>"
 18: 0x018C [0x23] WAIT_FOR_DIALOG_INTERACTION
 19: 0x018D [0x48] [System] [7750*]:
    → "He seems to be trying to say something, but his voice is too soft to make out."
 20: 0x0190 [0x23] WAIT_FOR_DIALOG_INTERACTION
 21: 0x0191 [0x24] CREATE_DIALOG(message_id=7755*, default_option=0*, option_flags=0*)
    → "What will you do? [Ask him to speak up./Leave in despair.]"
 22: 0x0198 [0x25] WAIT_DIALOG_SELECT()
 23: 0x0199 [0x02] IF !(Work_Zone[0] == 0*) GOTO 0x01A9
 24: 0x01A1 [0x03] Work_Zone[1] = 2*
 25: 0x01A6 [0x01] GOTO 0x01BD
 26: 0x01A9 [0x02] IF !(Work_Zone[0] == 1*) GOTO 0x01BD
 27: 0x01B1 [0x03] Work_Zone[1] = 1*
 28: 0x01B6 [0x20] SET_CLI_EVENT_UC_FLAG: Unlock player control
 29: 0x01B8 [0x21] END_EVENT
 30: 0x01B9 [0x00] END_REQSTACK()

SUBROUTINE_01BD:
 31: 0x01BD [0x01] GOTO 0x01D4
 32: 0x01C0 [0x02] IF !(Work_Zone[0] == 1*) GOTO 0x01D4
 33: 0x01C8 [0x03] Work_Zone[1] = 1*
 34: 0x01CD [0x20] SET_CLI_EVENT_UC_FLAG: Unlock player control
 35: 0x01CF [0x21] END_EVENT
 36: 0x01D0 [0x00] END_REQSTACK()

SUBROUTINE_01D4:
 37: 0x01D4 [0x01] GOTO 0x01EB
 38: 0x01D7 [0x02] IF !(Work_Zone[0] == 1*) GOTO 0x01EB
 39: 0x01DF [0x03] Work_Zone[1] = 1*
 40: 0x01E4 [0x20] SET_CLI_EVENT_UC_FLAG: Unlock player control
 41: 0x01E6 [0x21] END_EVENT
 42: 0x01E7 [0x00] END_REQSTACK()

SUBROUTINE_01EB:
 43: 0x01EB [0x1E] EventEntity looks at LocalPlayer and starts talking
 44: 0x01F0 [0x6F] WAIT_FRAME_DELAY: Yield until WaitTime reaches zero
 45: 0x01F1 [0x70] WAIT_ENTITY_RENDER_FLAG: Wait while EventEntity->Render.Flags3 bit 2 is set (cancel turn if not)
 46: 0x01F2 [0x1D] PRINT_EVENT_MESSAGE(message_id=7757*)
    → "<Shuffle> (You are a p-patient one, aren't you?)"
 47: 0x01F5 [0x23] WAIT_FOR_DIALOG_INTERACTION
 48: 0x01F6 [0x29] REQ_SET_WAIT(priority=0x08, entity_id=Traiffeaux (ID: 17871210/0x0110B16A), tag_num=0x06)
 49: 0x01FD [0x1D] PRINT_EVENT_MESSAGE(message_id=7758*)
    → "(The Kamihr Drifts are long known as a place of t-training and ritual for geomancers of old, and so, too, have I chosen to make this p-pilgrimage.)"
 50: 0x0200 [0x23] WAIT_FOR_DIALOG_INTERACTION
 51: 0x0201 [0x1D] PRINT_EVENT_MESSAGE(message_id=7759*)
    → "(My voice is so s-soft because I am attuning my senses to the region so I can become one with n-nature... Can you even hear me?)"
 52: 0x0204 [0x23] WAIT_FOR_DIALOG_INTERACTION
 53: 0x0205 [0x29] REQ_SET_WAIT(priority=0x08, entity_id=Traiffeaux (ID: 17871210/0x0110B16A), tag_num=0x07)
 54: 0x020C [0x24] CREATE_DIALOG(message_id=7760*, default_option=0*, option_flags=0*)
    → "Can you hear him? [Of course./Why would I even want to?]"
 55: 0x0213 [0x25] WAIT_DIALOG_SELECT()
 56: 0x0214 [0x02] IF !(Work_Zone[0] == 0*) GOTO 0x0228
 57: 0x021C [0x03] Work_Zone[1] = 2*
 58: 0x0221 [0x1D] PRINT_EVENT_MESSAGE(message_id=7762*)
    → "(Then t-tell that little toy soldier over there to stop pestering me to break down the walls while I am t-training.)"
 59: 0x0224 [0x23] WAIT_FOR_DIALOG_INTERACTION
 60: 0x0225 [0x01] GOTO 0x024E
 61: 0x0228 [0x02] IF !(Work_Zone[0] == 1*) GOTO 0x024E
 62: 0x0230 [0x03] Work_Zone[1] = 1*
 63: 0x0235 [0x29] REQ_SET_WAIT(priority=0x08, entity_id=Traiffeaux (ID: 17871210/0x0110B16A), tag_num=0x08)
 64: 0x023C [0x1D] PRINT_EVENT_MESSAGE(message_id=7761*)
    → "(Then leave me to my devices.)"
 65: 0x023F [0x23] WAIT_FOR_DIALOG_INTERACTION
 66: 0x0240 [0x29] REQ_SET_WAIT(priority=0x08, entity_id=Traiffeaux (ID: 17871210/0x0110B16A), tag_num=0x09)
 67: 0x0247 [0x20] SET_CLI_EVENT_UC_FLAG: Unlock player control
 68: 0x0249 [0x21] END_EVENT
 69: 0x024A [0x00] END_REQSTACK()

SUBROUTINE_024E:
 70: 0x024E [0x24] CREATE_DIALOG(message_id=7763*, default_option=0*, option_flags=0*)
    → "Will you tell the Taru to stop? [Sure./Wait. What if you taught me how?]"
 71: 0x0255 [0x25] WAIT_DIALOG_SELECT()
 72: 0x0256 [0x02] IF !(Work_Zone[0] == 0*) GOTO 0x027C
 73: 0x025E [0x03] Work_Zone[1] = 1*
 74: 0x0263 [0x29] REQ_SET_WAIT(priority=0x08, entity_id=Traiffeaux (ID: 17871210/0x0110B16A), tag_num=0x08)
 75: 0x026A [0x1D] PRINT_EVENT_MESSAGE(message_id=7764*)
    → "(I appreciate your th-thoughtfulness, but there's no way he will lend an ear to my plight.)"
 76: 0x026D [0x23] WAIT_FOR_DIALOG_INTERACTION
 77: 0x026E [0x29] REQ_SET_WAIT(priority=0x08, entity_id=Traiffeaux (ID: 17871210/0x0110B16A), tag_num=0x09)
 78: 0x0275 [0x20] SET_CLI_EVENT_UC_FLAG: Unlock player control
 79: 0x0277 [0x21] END_EVENT
 80: 0x0278 [0x00] END_REQSTACK()

SUBROUTINE_0298:
 81: 0x0298 [0x24] CREATE_DIALOG(message_id=7768*, default_option=0*, option_flags=0*)
    → "What will you say? [[Thirty/Three] years? Piece of cake!/I can't even wait that many minutes...]"
 82: 0x029F [0x25] WAIT_DIALOG_SELECT()
 83: 0x02A0 [0x02] IF !(Work_Zone[0] == 0*) GOTO 0x02BB
 84: 0x02A8 [0x03] Work_Zone[1] = 2*
 85: 0x02AD [0x29] REQ_SET_WAIT(priority=0x08, entity_id=Traiffeaux (ID: 17871210/0x0110B16A), tag_num=0x08)
 86: 0x02B4 [0x1D] PRINT_EVENT_MESSAGE(message_id=7769*)
    → "(I admire your dedication, but...there may yet b-be another way.)"
 87: 0x02B7 [0x23] WAIT_FOR_DIALOG_INTERACTION
 88: 0x02B8 [0x01] GOTO 0x02D6
 89: 0x02BB [0x02] IF !(Work_Zone[0] == 1*) GOTO 0x02D6
 90: 0x02C3 [0x03] Work_Zone[1] = 2*
 91: 0x02C8 [0x29] REQ_SET_WAIT(priority=0x08, entity_id=Traiffeaux (ID: 17871210/0x0110B16A), tag_num=0x08)
 92: 0x02CF [0x1D] PRINT_EVENT_MESSAGE(message_id=7770*)
    → "(W-wait...there may be another way.)"
 93: 0x02D2 [0x23] WAIT_FOR_DIALOG_INTERACTION
 94: 0x02D3 [0x01] GOTO 0x02D6

SUBROUTINE_02D6:
 95: 0x02D6 [0x1D] PRINT_EVENT_MESSAGE(message_id=7771*)
    → "(If you can hear me, then p-perhaps...perhaps you could sense the changes in tone when you thump different parts of the wall.)"
 96: 0x02D9 [0x23] WAIT_FOR_DIALOG_INTERACTION
 97: 0x02DA [0x29] REQ_SET_WAIT(priority=0x08, entity_id=Traiffeaux (ID: 17871210/0x0110B16A), tag_num=0x09)
 98: 0x02E1 [0x1D] PRINT_EVENT_MESSAGE(message_id=7772*)
    → "(This might enable you to f-find the eye.)"
 99: 0x02E4 [0x23] WAIT_FOR_DIALOG_INTERACTION
100: 0x02E5 [0x1D] PRINT_EVENT_MESSAGE(message_id=7773*)
    → "(I shall teach you to distinguish b-between the eye and the other parts of the ice.)"
101: 0x02E8 [0x23] WAIT_FOR_DIALOG_INTERACTION
102: 0x02E9 [0x1D] PRINT_EVENT_MESSAGE(message_id=7774*)
    → "(But do not be so b-brash as to put your head directly to the ice. Your ears would just weld to the surface.)"
103: 0x02EC [0x23] WAIT_FOR_DIALOG_INTERACTION
104: 0x02ED [0x1D] PRINT_EVENT_MESSAGE(message_id=7775*)
    → "(So what you need, then, is a n-nice pair of earmuffs.)"
105: 0x02F0 [0x23] WAIT_FOR_DIALOG_INTERACTION
106: 0x02F1 [0x03] Work_Zone[3] = 856*
107: 0x02F6 [0x1D] PRINT_EVENT_MESSAGE(message_id=7776*)
    → "(G-gather three $1 from the snowpelt rabbits around the drifts...)"
108: 0x02F9 [0x23] WAIT_FOR_DIALOG_INTERACTION
109: 0x02FA [0x03] Work_Zone[4] = 8709*
110: 0x02FF [0x1D] PRINT_EVENT_MESSAGE(message_id=7777*)
    → "(And while you are in the vicinity, one $2 from a raaz.)"
111: 0x0302 [0x23] WAIT_FOR_DIALOG_INTERACTION
112: 0x0303 [0x1D] PRINT_EVENT_MESSAGE(message_id=7778*)
    → "(I can tear myself a-away from my training long enough to make a pair for you.)"
113: 0x0306 [0x23] WAIT_FOR_DIALOG_INTERACTION
114: 0x0307 [0x20] SET_CLI_EVENT_UC_FLAG: Unlock player control
115: 0x0309 [0x21] END_EVENT
116: 0x030A [0x00] END_REQSTACK()
```

#### Data or dead code:

```
# Dead code (unreachable instructions):
     0x01BA [0x01] GOTO 0x01BD
# Dead code (unreachable instructions):
     0x01D1 [0x01] GOTO 0x01D4
# Dead code (unreachable instructions):
     0x01E8 [0x01] GOTO 0x01EB
# Dead code (unreachable instructions):
     0x024B [0x01] GOTO 0x024E
# Dead code (unreachable instructions):
     0x0279 [0x01] GOTO 0x0298
```

### Event 25

#### Metadata

| Field        | Value    |
|--------------|----------|
| Entrypoint   | 0x030B   |
| Data Size    | 33 bytes |
| Instructions | 14       |

```
      00 01 02 03 04 05 06 07  08 09 0A 0B 0C 0D 0E 0F
      -- -- -- -- -- -- -- --  -- -- -- -- -- -- -- --
0300:                                   1E F0 FF FF 7F             .....
0310: 6F 70 03 03 10 20 80 03  04 10 22 80 1D 25 80 23  op... ...."..%.#
0320: 1D 26 80 23 1D 27 80 23  20 00 21 00              .&.#.'.# .!.    
```

#### Opcodes

```
  0: 0x030B [0x1E] EventEntity looks at LocalPlayer and starts talking
  1: 0x0310 [0x6F] WAIT_FRAME_DELAY: Yield until WaitTime reaches zero
  2: 0x0311 [0x70] WAIT_ENTITY_RENDER_FLAG: Wait while EventEntity->Render.Flags3 bit 2 is set (cancel turn if not)
  3: 0x0312 [0x03] Work_Zone[3] = 856*
  4: 0x0317 [0x03] Work_Zone[4] = 8709*
  5: 0x031C [0x1D] PRINT_EVENT_MESSAGE(message_id=7779*)
    → "(I am s-sure you would be able to break the wall if you could hear the eye of the ice.)"
  6: 0x031F [0x23] WAIT_FOR_DIALOG_INTERACTION
  7: 0x0320 [0x1D] PRINT_EVENT_MESSAGE(message_id=7780*)
    → "(To p-protect your ears during the process, I will make you a little something if you bring me three $1 from rabbits and one $2 from a raaz.)"
  8: 0x0323 [0x23] WAIT_FOR_DIALOG_INTERACTION
  9: 0x0324 [0x1D] PRINT_EVENT_MESSAGE(message_id=7781*)
    → "(That should be enough for you to accomplish your t-task.)"
 10: 0x0327 [0x23] WAIT_FOR_DIALOG_INTERACTION
 11: 0x0328 [0x20] SET_CLI_EVENT_UC_FLAG: Unlock player control
 12: 0x032A [0x21] END_EVENT
 13: 0x032B [0x00] END_REQSTACK()
```

### Event 26

#### Metadata

| Field        | Value   |
|--------------|---------|
| Entrypoint   | 0x032C  |
| Data Size    | 1 bytes |
| Instructions | 1       |

```
      00 01 02 03 04 05 06 07  08 09 0A 0B 0C 0D 0E 0F
      -- -- -- -- -- -- -- --  -- -- -- -- -- -- -- --
0320:                                      00                       .   
```

#### Opcodes

```
  0: 0x032C [0x00] END_REQSTACK()
```

### Event 65535.19

#### Metadata

| Field        | Value    |
|--------------|----------|
| Entrypoint   | 0x032D   |
| Data Size    | 10 bytes |
| Instructions | 2        |

```
      00 01 02 03 04 05 06 07  08 09 0A 0B 0C 0D 0E 0F
      -- -- -- -- -- -- -- --  -- -- -- -- -- -- -- --
0320:                                         37 28 80               7(.
0330: 29 80 2A 80 2B 80 00                              ).*.+..         
```

#### Opcodes

```
  0: 0x032D [0x37] UPDATE_EVENT_POSITION_AND_DIR: x=437.451*, z=-290.512*, y=63.000*, direction=377476140.1°*
  1: 0x0336 [0x00] END_REQSTACK()
```

### Event 65535.20

#### Metadata

| Field        | Value    |
|--------------|----------|
| Entrypoint   | 0x0337   |
| Data Size    | 14 bytes |
| Instructions | 4        |

```
      00 01 02 03 04 05 06 07  08 09 0A 0B 0C 0D 0E 0F
      -- -- -- -- -- -- -- --  -- -- -- -- -- -- -- --
0330:                      32  2C 80 1F 00 2D 80 2E 80         2,...-...
0340: 2F 80 1F 01 00                                    /....           
```

#### Opcodes

```
  0: 0x0337 [0x32] ExtData[1]->MainSpeed = 13* * 0.1
  1: 0x033A [0x1F] MOVE_ENTITY: EventEntity moves to X=434.201*, Z=-284.967*, Y=63.231*
  2: 0x0342 [0x1F] MOVE_ENTITY: Update entity position (mode=1)
  3: 0x0344 [0x00] END_REQSTACK()
```

### Event 65535.21

#### Metadata

| Field        | Value   |
|--------------|---------|
| Entrypoint   | 0x0345  |
| Data Size    | 1 bytes |
| Instructions | 1       |

```
      00 01 02 03 04 05 06 07  08 09 0A 0B 0C 0D 0E 0F
      -- -- -- -- -- -- -- --  -- -- -- -- -- -- -- --
0340:                00                                      .          
```

#### Opcodes

```
  0: 0x0345 [0x00] END_REQSTACK()
```

### Event 65535.22

#### Metadata

| Field        | Value   |
|--------------|---------|
| Entrypoint   | 0x0346  |
| Data Size    | 1 bytes |
| Instructions | 1       |

```
      00 01 02 03 04 05 06 07  08 09 0A 0B 0C 0D 0E 0F
      -- -- -- -- -- -- -- --  -- -- -- -- -- -- -- --
0340:                   00                                    .         
```

#### Opcodes

```
  0: 0x0346 [0x00] END_REQSTACK()
```

### Event 65535.23

#### Metadata

| Field        | Value    |
|--------------|----------|
| Entrypoint   | 0x0347   |
| Data Size    | 10 bytes |
| Instructions | 2        |

```
      00 01 02 03 04 05 06 07  08 09 0A 0B 0C 0D 0E 0F
      -- -- -- -- -- -- -- --  -- -- -- -- -- -- -- --
0340:                      37  30 80 31 80 32 80 33 80         70.1.2.3.
0350: 00                                                .               
```

#### Opcodes

```
  0: 0x0347 [0x37] UPDATE_EVENT_POSITION_AND_DIR: x=121.796*, z=-274.789*, y=40.323*, direction=194.9°*
  1: 0x0350 [0x00] END_REQSTACK()
```

### Event 65535.24

#### Metadata

| Field        | Value    |
|--------------|----------|
| Entrypoint   | 0x0351   |
| Data Size    | 14 bytes |
| Instructions | 4        |

```
      00 01 02 03 04 05 06 07  08 09 0A 0B 0C 0D 0E 0F
      -- -- -- -- -- -- -- --  -- -- -- -- -- -- -- --
0350:    32 2C 80 1F 00 34 80  35 80 36 80 1F 01 00      2,...4.5.6.... 
```

#### Opcodes

```
  0: 0x0351 [0x32] ExtData[1]->MainSpeed = 13* * 0.1
  1: 0x0354 [0x1F] MOVE_ENTITY: EventEntity moves to X=115.380*, Z=-272.975*, Y=40.474*
  2: 0x035C [0x1F] MOVE_ENTITY: Update entity position (mode=1)
  3: 0x035E [0x00] END_REQSTACK()
```

### Event 27

#### Metadata

| Field        | Value    |
|--------------|----------|
| Entrypoint   | 0x035F   |
| Data Size    | 15 bytes |
| Instructions | 8        |

```
      00 01 02 03 04 05 06 07  08 09 0A 0B 0C 0D 0E 0F
      -- -- -- -- -- -- -- --  -- -- -- -- -- -- -- --
0350:                                               1E                 .
0360: F0 FF FF 7F 6F 70 1D 37  80 23 20 00 21 00        ....op.7.# .!.  
```

#### Opcodes

```
  0: 0x035F [0x1E] EventEntity looks at LocalPlayer and starts talking
  1: 0x0364 [0x6F] WAIT_FRAME_DELAY: Yield until WaitTime reaches zero
  2: 0x0365 [0x70] WAIT_ENTITY_RENDER_FLAG: Wait while EventEntity->Render.Flags3 bit 2 is set (cancel turn if not)
  3: 0x0366 [0x1D] PRINT_EVENT_MESSAGE(message_id=7797*)
    → "(Breaking down the wall is b-but one of many grueling trials that you will doubtless undertake.)"
  4: 0x0369 [0x23] WAIT_FOR_DIALOG_INTERACTION
  5: 0x036A [0x20] SET_CLI_EVENT_UC_FLAG: Unlock player control
  6: 0x036C [0x21] END_EVENT
  7: 0x036D [0x00] END_REQSTACK()
```

### Event 28

#### Metadata

| Field        | Value    |
|--------------|----------|
| Entrypoint   | 0x036E   |
| Data Size    | 15 bytes |
| Instructions | 8        |

```
      00 01 02 03 04 05 06 07  08 09 0A 0B 0C 0D 0E 0F
      -- -- -- -- -- -- -- --  -- -- -- -- -- -- -- --
0360:                                            1E F0                ..
0370: FF FF 7F 6F 70 1D 38 80  23 20 00 21 00           ...op.8.# .!.   
```

#### Opcodes

```
  0: 0x036E [0x1E] EventEntity looks at LocalPlayer and starts talking
  1: 0x0373 [0x6F] WAIT_FRAME_DELAY: Yield until WaitTime reaches zero
  2: 0x0374 [0x70] WAIT_ENTITY_RENDER_FLAG: Wait while EventEntity->Render.Flags3 bit 2 is set (cancel turn if not)
  3: 0x0375 [0x1D] PRINT_EVENT_MESSAGE(message_id=7798*)
    → "(B-but all this gives me pause...why would the leafkin be in such an inhospitable place...?)"
  4: 0x0378 [0x23] WAIT_FOR_DIALOG_INTERACTION
  5: 0x0379 [0x20] SET_CLI_EVENT_UC_FLAG: Unlock player control
  6: 0x037B [0x21] END_EVENT
  7: 0x037C [0x00] END_REQSTACK()
```

### Event 40

#### Metadata

| Field        | Value   |
|--------------|---------|
| Entrypoint   | 0x037D  |
| Data Size    | 1 bytes |
| Instructions | 1       |

```
      00 01 02 03 04 05 06 07  08 09 0A 0B 0C 0D 0E 0F
      -- -- -- -- -- -- -- --  -- -- -- -- -- -- -- --
0370:                                         00                     .  
```

#### Opcodes

```
  0: 0x037D [0x00] END_REQSTACK()
```

### Event 42

#### Metadata

| Field        | Value   |
|--------------|---------|
| Entrypoint   | 0x037E  |
| Data Size    | 1 bytes |
| Instructions | 1       |

```
      00 01 02 03 04 05 06 07  08 09 0A 0B 0C 0D 0E 0F
      -- -- -- -- -- -- -- --  -- -- -- -- -- -- -- --
0370:                                            00                   . 
```

#### Opcodes

```
  0: 0x037E [0x00] END_REQSTACK()
```
