# 17871226

## Common Data

| Field            | Value                   |
|------------------|-------------------------|
| Zone             | Kamihr Drifts (ID: 267) |
| Block Size       | 66512 bytes             |
| Total Events     | 16                      |
| References Count | 1303                    |

## List of Events

| Event ID              | Entrypoint   |   Size |   Instructions |
|-----------------------|--------------|--------|----------------|
| [65535](#event-65535) | 0x0000       |    658 |             62 |
| [29](#event-29)       | 0x0292       |   2086 |            235 |
| [30](#event-30)       | 0x0AB8       |   1641 |            194 |
| [31](#event-31)       | 0x1121       |   2944 |            319 |
| [33](#event-33)       | 0x1CA1       |   7160 |            849 |
| [0](#event-0)         | 0x3899       |    239 |             37 |
| [52](#event-52)       | 0x3988       |    356 |             53 |
| [47](#event-47)       | 0x3AEC       |   5290 |            623 |
| [48](#event-48)       | 0x4F96       |  10480 |           1233 |
| [49](#event-49)       | 0x7886       |  11047 |           1274 |
| [50](#event-50)       | 0xA3AD       |    384 |             64 |
| [51](#event-51)       | 0xA52D       |   7540 |            832 |
| [58](#event-58)       | 0xC2A1       |   1471 |            190 |
| [62](#event-62)       | 0xC860       |   3053 |            381 |
| [63](#event-63)       | 0xD44D       |   5780 |            702 |
| [64](#event-64)       | 0xEAE1       |   1089 |            153 |

## DAT References (imed_data)

|   Index | Hex Value   |   Dec Value |
|---------|-------------|-------------|
|       0 | 0x00C8      |         200 |
|       1 | 0x0000      |           0 |
|       2 | 0x00C9      |         201 |
|       3 | 0x0001      |           1 |
|       4 | 0x002D      |          45 |
|       5 | 0x0002      |           2 |
|       6 | 0x001E      |          30 |
|       7 | 0x00D7      |         215 |
|       8 | 0x0078      |         120 |
|       9 | 0x0093      |         147 |
|      10 | 0x62B58     |      404312 |
|      11 | 0xFFF9CE51  |  4294561361 |
|      12 | 0xEBA3      |       60323 |
|      13 | 0x013D      |         317 |
|      14 | 0x65709     |      415497 |
|      15 | 0xFFF9A6A7  |  4294551207 |
|      16 | 0xB173      |       45427 |
|      17 | 0x0400      |        1024 |
|      18 | 0x00B7      |         183 |
|      19 | 0x0D55      |        3413 |
|      20 | 0x0275      |         629 |
|      21 | 0x000F      |          15 |
|      22 | 0x0096      |         150 |
|      23 | 0x0014      |          20 |
|      24 | 0x00B4      |         180 |
|      25 | 0x0D66      |        3430 |
|      26 | 0x0168      |         360 |
|      27 | 0x63B15     |      408341 |
|      28 | 0xFFF9BD69  |  4294557033 |
|      29 | 0xEA5F      |       59999 |
|      30 | 0x09DB      |        2523 |
|      31 | 0x0D56      |        3414 |
|      32 | 0x0050      |          80 |
|      33 | 0x0D54      |        3412 |
|      34 | 0x0064      |         100 |
|      35 | 0x63002     |      405506 |
|      36 | 0xFFF9CD99  |  4294561177 |
|      37 | 0xEB88      |       60296 |
|      38 | 0x0104      |         260 |
|      39 | 0x00D2      |         210 |
|      40 | 0x003E      |          62 |
|      41 | 0x005A      |          90 |
|      42 | 0x003C      |          60 |
|      43 | 0x0032      |          50 |
|      44 | 0x63D4E     |      408910 |
|      45 | 0xFFF9B94A  |  4294555978 |
|      46 | 0x0A7A      |        2682 |
|      47 | 0x000A      |          10 |
|      48 | 0x1EBA      |        7866 |
|      49 | 0x1EBB      |        7867 |
|      50 | 0x0004      |           4 |
|      51 | 0x0007      |           7 |
|      52 | 0x0003      |           3 |
|      53 | 0x1EBC      |        7868 |
|      54 | 0x1EBD      |        7869 |
|      55 | 0x1EBE      |        7870 |
|      56 | 0x0005      |           5 |
|      57 | 0x0006      |           6 |
|      58 | 0x002C      |          44 |
|      59 | 0x099C      |        2460 |
|      60 | 0x1EBF      |        7871 |
|      61 | 0x02B3      |         691 |
|      62 | 0x1EC0      |        7872 |
|      63 | 0x1EC1      |        7873 |
|      64 | 0x1EC2      |        7874 |
|      65 | 0x1EC3      |        7875 |
|      66 | 0x1EC4      |        7876 |
|      67 | 0x1EC5      |        7877 |
|      68 | 0x0048      |          72 |
|      69 | 0x1EC6      |        7878 |
|      70 | 0x0013      |          19 |
|      71 | 0x2233A     |      140090 |
|      72 | 0xFFFC1FBF  |  4294713279 |
|      73 | 0xA5CF      |       42447 |
|      74 | 0x0C3A      |        3130 |
|      75 | 0x23197     |      143767 |
|      76 | 0xFFFCB022  |  4294750242 |
|      77 | 0xABE0      |       44000 |
|      78 | 0x2252A     |      140586 |
|      79 | 0xFFFC8EA8  |  4294741672 |
|      80 | 0xAB32      |       43826 |
|      81 | 0x0D07      |        3335 |
|      82 | 0x2220E     |      139790 |
|      83 | 0xFFFC83E4  |  4294738916 |
|      84 | 0xA9EB      |       43499 |
|      85 | 0x0D23      |        3363 |
|      86 | 0x21DDD     |      138717 |
|      87 | 0xFFFC8996  |  4294740374 |
|      88 | 0xAADF      |       43743 |
|      89 | 0x0D49      |        3401 |
|      90 | 0x0D33      |        3379 |
|      91 | 0x0274      |         628 |
|      92 | 0x012C      |         300 |
|      93 | 0x00BB      |         187 |
|      94 | 0x22033     |      139315 |
|      95 | 0xFFFC8DF2  |  4294741490 |
|      96 | 0xABDF      |       43999 |
|      97 | 0x0CE7      |        3303 |
|      98 | 0x0D4A      |        3402 |
|      99 | 0x1EC7      |        7879 |
|     100 | 0x0015      |          21 |
|     101 | 0x003D      |          61 |
|     102 | 0x0D4D      |        3405 |
|     103 | 0x1EC8      |        7880 |
|     104 | 0x0098      |         152 |
|     105 | 0x00E4      |         228 |
|     106 | 0x001C      |          28 |
|     107 | 0x231F6     |      143862 |
|     108 | 0xFFFCA1DD  |  4294746589 |
|     109 | 0x0D2A      |        3370 |
|     110 | 0x0CDD      |        3293 |
|     111 | 0x1EC9      |        7881 |
|     112 | 0x1ECA      |        7882 |
|     113 | 0x1ECB      |        7883 |
|     114 | 0x1ECC      |        7884 |
|     115 | 0x1ECD      |        7885 |
|     116 | 0x0D0F      |        3343 |
|     117 | 0x1ECE      |        7886 |
|     118 | 0x237D5     |      145365 |
|     119 | 0xFFFCA87A  |  4294748282 |
|     120 | 0x0053      |          83 |
|     121 | 0x04F3      |        1267 |
|     122 | 0x22633     |      140851 |
|     123 | 0xFFFC91B7  |  4294742455 |
|     124 | 0xAB04      |       43780 |
|     125 | 0x0D1C      |        3356 |
|     126 | 0x04A4      |        1188 |
|     127 | 0x22849     |      141385 |
|     128 | 0xFFFC8B8F  |  4294740879 |
|     129 | 0xA9E8      |       43496 |
|     130 | 0x0D37      |        3383 |
|     131 | 0x21F71     |      139121 |
|     132 | 0xFFFC8B8E  |  4294740878 |
|     133 | 0xAB5D      |       43869 |
|     134 | 0x0D34      |        3380 |
|     135 | 0x0D4B      |        3403 |
|     136 | 0x1ECF      |        7887 |
|     137 | 0x0086      |         134 |
|     138 | 0x1ED0      |        7888 |
|     139 | 0x0039      |          57 |
|     140 | 0x0028      |          40 |
|     141 | 0x00AC      |         172 |
|     142 | 0x1ED1      |        7889 |
|     143 | 0x008C      |         140 |
|     144 | 0x1ED2      |        7890 |
|     145 | 0x00C0      |         192 |
|     146 | 0x1ED3      |        7891 |
|     147 | 0x1ED4      |        7892 |
|     148 | 0x00BF      |         191 |
|     149 | 0x0018      |          24 |
|     150 | 0x0D4C      |        3404 |
|     151 | 0x00D8      |         216 |
|     152 | 0x0D35      |        3381 |
|     153 | 0x0010      |          16 |
|     154 | 0x0020      |          32 |
|     155 | 0x0134      |         308 |
|     156 | 0x00B8      |         184 |
|     157 | 0x007F      |         127 |
|     158 | 0x0051      |          81 |
|     159 | 0x0034      |          52 |
|     160 | 0x0D52      |        3410 |
|     161 | 0x1ED7      |        7895 |
|     162 | 0x00A0      |         160 |
|     163 | 0x1ED8      |        7896 |
|     164 | 0x00A6      |         166 |
|     165 | 0x007A      |         122 |
|     166 | 0x22BAA     |      142250 |
|     167 | 0xFFFCAEC3  |  4294749891 |
|     168 | 0x1E31      |        7729 |
|     169 | 0x1ED9      |        7897 |
|     170 | 0x1EDA      |        7898 |
|     171 | 0x1EDB      |        7899 |
|     172 | 0x1EDC      |        7900 |
|     173 | 0x1EDD      |        7901 |
|     174 | 0x1EDE      |        7902 |
|     175 | 0x1EDF      |        7903 |
|     176 | 0x1EE0      |        7904 |
|     177 | 0x1EE1      |        7905 |
|     178 | 0x0011      |          17 |
|     179 | 0x227C2     |      141250 |
|     180 | 0xFFFCAC2E  |  4294749230 |
|     181 | 0x0DD6      |        3542 |
|     182 | 0x222E0     |      140000 |
|     183 | 0xFFFC9500  |  4294743296 |
|     184 | 0x22B78     |      142200 |
|     185 | 0xFFFCAEB6  |  4294749878 |
|     186 | 0x08C0      |        2240 |
|     187 | 0x22A28     |      141864 |
|     188 | 0xFFFCB601  |  4294751745 |
|     189 | 0x037C      |         892 |
|     190 | 0x22C48     |      142408 |
|     191 | 0xFFFCA954  |  4294748500 |
|     192 | 0xABE3      |       44003 |
|     193 | 0xFFFFFC2E  |  4294966318 |
|     194 | 0x23414     |      144404 |
|     195 | 0xFFFC9F36  |  4294745910 |
|     196 | 0xFFFFFCCB  |  4294966475 |
|     197 | 0x23083     |      143491 |
|     198 | 0xFFFC9DB7  |  4294745527 |
|     199 | 0xFFFFFC50  |  4294966352 |
|     200 | 0x0D7A      |        3450 |
|     201 | 0x0D53      |        3411 |
|     202 | 0x0D50      |        3408 |
|     203 | 0x0D5A      |        3418 |
|     204 | 0x0D5B      |        3419 |
|     205 | 0x0D15      |        3349 |
|     206 | 0x0D67      |        3431 |
|     207 | 0x00EC      |         236 |
|     208 | 0x00C7      |         199 |
|     209 | 0x00E6      |         230 |
|     210 | 0x017C      |         380 |
|     211 | 0x22BDC     |      142300 |
|     212 | 0xFFFCA950  |  4294748496 |
|     213 | 0xFFFFFC15  |  4294966293 |
|     214 | 0x0194      |         404 |
|     215 | 0x00E0      |         224 |
|     216 | 0x1EE5      |        7909 |
|     217 | 0x0D7B      |        3451 |
|     218 | 0x1EE6      |        7910 |
|     219 | 0x1EE7      |        7911 |
|     220 | 0x228EA     |      141546 |
|     221 | 0xFFFCAAE1  |  4294748897 |
|     222 | 0x1EE8      |        7912 |
|     223 | 0x0008      |           8 |
|     224 | 0x1EE9      |        7913 |
|     225 | 0x00F0      |         240 |
|     226 | 0x1EEA      |        7914 |
|     227 | 0x1EEB      |        7915 |
|     228 | 0x1EEC      |        7916 |
|     229 | 0x0D7C      |        3452 |
|     230 | 0x1EED      |        7917 |
|     231 | 0x1EEE      |        7918 |
|     232 | 0x010E      |         270 |
|     233 | 0x1EEF      |        7919 |
|     234 | 0x0082      |         130 |
|     235 | 0x1EF0      |        7920 |
|     236 | 0x0042      |          66 |
|     237 | 0x1EF1      |        7921 |
|     238 | 0x00DC      |         220 |
|     239 | 0x1EF2      |        7922 |
|     240 | 0x1EF3      |        7923 |
|     241 | 0x1EF4      |        7924 |
|     242 | 0x1EF5      |        7925 |
|     243 | 0x1EF6      |        7926 |
|     244 | 0x1EF7      |        7927 |
|     245 | 0x1EF8      |        7928 |
|     246 | 0x0C90      |        3216 |
|     247 | 0x0D7D      |        3453 |
|     248 | 0x1EF9      |        7929 |
|     249 | 0x096A      |        2410 |
|     250 | 0x1EFA      |        7930 |
|     251 | 0x1EFB      |        7931 |
|     252 | 0x0009      |           9 |
|     253 | 0x1EFC      |        7932 |
|     254 | 0x0D7F      |        3455 |
|     255 | 0x1EFD      |        7933 |
|     256 | 0x0D7E      |        3454 |
|     257 | 0x1EFE      |        7934 |
|     258 | 0x1EFF      |        7935 |
|     259 | 0x014A      |         330 |
|     260 | 0x1F00      |        7936 |
|     261 | 0x1F01      |        7937 |
|     262 | 0x1F02      |        7938 |
|     263 | 0x0D81      |        3457 |
|     264 | 0x1F03      |        7939 |
|     265 | 0x1F04      |        7940 |
|     266 | 0xFFFFFF88  |  4294967176 |
|     267 | 0x1C188     |      115080 |
|     268 | 0xFFFF5286  |  4294922886 |
|     269 | 0x074E      |        1870 |
|     270 | 0xFFFE85EA  |  4294870506 |
|     271 | 0x1F05      |        7941 |
|     272 | 0xFFFE85AE  |  4294870446 |
|     273 | 0xFFFF7E78  |  4294934136 |
|     274 | 0x0852      |        2130 |
|     275 | 0xFFFDFE68  |  4294835816 |
|     276 | 0x1F06      |        7942 |
|     277 | 0x1F07      |        7943 |
|     278 | 0x03E8      |        1000 |
|     279 | 0x04B0      |        1200 |
|     280 | 0x1F08      |        7944 |
|     281 | 0x1F09      |        7945 |
|     282 | 0x1F0A      |        7946 |
|     283 | 0x1F0B      |        7947 |
|     284 | 0x0080      |         128 |
|     285 | 0xFFFD77EA  |  4294801386 |
|     286 | 0xFFF9C26A  |  4294558314 |
|     287 | 0x8F54      |       36692 |
|     288 | 0x0F49      |        3913 |
|     289 | 0x0F4B      |        3915 |
|     290 | 0x6E7D      |       28285 |
|     291 | 0x5C2A0     |      377504 |
|     292 | 0xFFFFF542  |  4294964546 |
|     293 | 0x0BA9      |        2985 |
|     294 | 0xFFFD63C5  |  4294796229 |
|     295 | 0xFFF9BC45  |  4294556741 |
|     296 | 0x9378      |       37752 |
|     297 | 0x0F9B      |        3995 |
|     298 | 0xFFFD5496  |  4294792342 |
|     299 | 0xFFF9B847  |  4294555719 |
|     300 | 0x9620      |       38432 |
|     301 | 0xFFFD5277  |  4294791799 |
|     302 | 0xFFF9B0F8  |  4294553848 |
|     303 | 0x976A      |       38762 |
|     304 | 0x0E66      |        3686 |
|     305 | 0xFFFEF73F  |  4294899519 |
|     306 | 0xFFF9F797  |  4294571927 |
|     307 | 0xFFFFF061  |  4294963297 |
|     308 | 0x0800      |        2048 |
|     309 | 0x0D4E      |        3406 |
|     310 | 0x0D93      |        3475 |
|     311 | 0x0D36      |        3382 |
|     312 | 0x0118      |         280 |
|     313 | 0x0044      |          68 |
|     314 | 0x00C6      |         198 |
|     315 | 0x0273      |         627 |
|     316 | 0x0186      |         390 |
|     317 | 0x0D38      |        3384 |
|     318 | 0x00BE      |         190 |
|     319 | 0x1F0D      |        7949 |
|     320 | 0x0D5F      |        3423 |
|     321 | 0x1F0E      |        7950 |
|     322 | 0xFFFFFF87  |  4294967175 |
|     323 | 0xFFFFEA48  |  4294961736 |
|     324 | 0xFFFEE7E2  |  4294895586 |
|     325 | 0x094C      |        2380 |
|     326 | 0x065E      |        1630 |
|     327 | 0x1F10      |        7952 |
|     328 | 0x1F11      |        7953 |
|     329 | 0x0802      |        2050 |
|     330 | 0xFFFF3922  |  4294916386 |
|     331 | 0x0474      |        1140 |
|     332 | 0xFFFFC4BE  |  4294952126 |
|     333 | 0x1F12      |        7954 |
|     334 | 0x1F0F      |        7951 |
|     335 | 0x1F13      |        7955 |
|     336 | 0x0140      |         320 |
|     337 | 0x1F14      |        7956 |
|     338 | 0x1F15      |        7957 |
|     339 | 0x0D43      |        3395 |
|     340 | 0x1E30      |        7728 |
|     341 | 0x0252      |         594 |
|     342 | 0x00FF      |         255 |
|     343 | 0x45F5B     |      286555 |
|     344 | 0x1BC2      |        7106 |
|     345 | 0xFFFFD2DE  |  4294955742 |
|     346 | 0x04E7      |        1255 |
|     347 | 0x0D82      |        3458 |
|     348 | 0x0D62      |        3426 |
|     349 | 0x0D3D      |        3389 |
|     350 | 0x0D97      |        3479 |
|     351 | 0x02C7      |         711 |
|     352 | 0x02D6      |         726 |
|     353 | 0x46500     |      288000 |
|     354 | 0x48E27     |      298535 |
|     355 | 0xFFFFD069  |  4294955113 |
|     356 | 0xFFFFE8A8  |  4294961320 |
|     357 | 0x09B1      |        2481 |
|     358 | 0x48758     |      296792 |
|     359 | 0xFFFFCA97  |  4294953623 |
|     360 | 0xFFFFE893  |  4294961299 |
|     361 | 0x0A48      |        2632 |
|     362 | 0x47AA6     |      293542 |
|     363 | 0xFFFFEB52  |  4294962002 |
|     364 | 0xFFFFE6EC  |  4294960876 |
|     365 | 0xFFFFEAEE  |  4294961902 |
|     366 | 0xFFFFE23C  |  4294959676 |
|     367 | 0xFFFFE5C0  |  4294960576 |
|     368 | 0xFFFFEA8A  |  4294961802 |
|     369 | 0xFFFFE304  |  4294959876 |
|     370 | 0x0CAE      |        3246 |
|     371 | 0x0290      |         656 |
|     372 | 0x00D0      |         208 |
|     373 | 0x47C6F     |      293999 |
|     374 | 0xFFFFF179  |  4294963577 |
|     375 | 0xFFFFE76E  |  4294961006 |
|     376 | 0x0150      |         336 |
|     377 | 0x0DA8      |        3496 |
|     378 | 0x1F76      |        8054 |
|     379 | 0x1F77      |        8055 |
|     380 | 0x0CA2      |        3234 |
|     381 | 0x1F78      |        8056 |
|     382 | 0x0D88      |        3464 |
|     383 | 0x1F79      |        8057 |
|     384 | 0x0D63      |        3427 |
|     385 | 0x1F7A      |        8058 |
|     386 | 0x1F7B      |        8059 |
|     387 | 0x1F7C      |        8060 |
|     388 | 0x0D89      |        3465 |
|     389 | 0x1F7E      |        8062 |
|     390 | 0x1F7F      |        8063 |
|     391 | 0x1F80      |        8064 |
|     392 | 0x1F81      |        8065 |
|     393 | 0x0097      |         151 |
|     394 | 0x1F82      |        8066 |
|     395 | 0x1F83      |        8067 |
|     396 | 0x0016      |          22 |
|     397 | 0x1F7D      |        8061 |
|     398 | 0x1F84      |        8068 |
|     399 | 0x1F85      |        8069 |
|     400 | 0x1F86      |        8070 |
|     401 | 0x1F87      |        8071 |
|     402 | 0x1F88      |        8072 |
|     403 | 0x1F89      |        8073 |
|     404 | 0x0DE0      |        3552 |
|     405 | 0xFFFFFF86  |  4294967174 |
|     406 | 0xFFFED00E  |  4294889486 |
|     407 | 0x1A05E     |      106590 |
|     408 | 0x0780      |        1920 |
|     409 | 0xFFFED130  |  4294889776 |
|     410 | 0x1A1F8     |      107000 |
|     411 | 0x0654      |        1620 |
|     412 | 0x1F8A      |        8074 |
|     413 | 0xFFFF808A  |  4294934666 |
|     414 | 0x22CE      |        8910 |
|     415 | 0x058C      |        1420 |
|     416 | 0x1F8B      |        8075 |
|     417 | 0x1F8C      |        8076 |
|     418 | 0x1F8D      |        8077 |
|     419 | 0x1F8E      |        8078 |
|     420 | 0x1F8F      |        8079 |
|     421 | 0x1F90      |        8080 |
|     422 | 0x1F91      |        8081 |
|     423 | 0x1F92      |        8082 |
|     424 | 0x1F93      |        8083 |
|     425 | 0x1F94      |        8084 |
|     426 | 0x1F95      |        8085 |
|     427 | 0x1F96      |        8086 |
|     428 | 0x0DC5      |        3525 |
|     429 | 0x1F97      |        8087 |
|     430 | 0x1F98      |        8088 |
|     431 | 0x1F99      |        8089 |
|     432 | 0x1F9A      |        8090 |
|     433 | 0x1F9B      |        8091 |
|     434 | 0x1F9C      |        8092 |
|     435 | 0x1F9D      |        8093 |
|     436 | 0x1F9E      |        8094 |
|     437 | 0x1F9F      |        8095 |
|     438 | 0x0D8C      |        3468 |
|     439 | 0x1FA0      |        8096 |
|     440 | 0x1FA1      |        8097 |
|     441 | 0x1FA2      |        8098 |
|     442 | 0x1FA3      |        8099 |
|     443 | 0x1FA4      |        8100 |
|     444 | 0x1FA5      |        8101 |
|     445 | 0x1FA6      |        8102 |
|     446 | 0x1FA7      |        8103 |
|     447 | 0x1FA8      |        8104 |
|     448 | 0x1FA9      |        8105 |
|     449 | 0x0C9E      |        3230 |
|     450 | 0x1FAA      |        8106 |
|     451 | 0x1FAB      |        8107 |
|     452 | 0x1FAC      |        8108 |
|     453 | 0x0C91      |        3217 |
|     454 | 0x1FAD      |        8109 |
|     455 | 0xFFFC5E9C  |  4294729372 |
|     456 | 0x07D6      |        2006 |
|     457 | 0xFFFFF63B  |  4294964795 |
|     458 | 0x07FE      |        2046 |
|     459 | 0x0DA5      |        3493 |
|     460 | 0x000E      |          14 |
|     461 | 0x01AC      |         428 |
|     462 | 0x0278      |         632 |
|     463 | 0x1FAE      |        8110 |
|     464 | 0x1FAF      |        8111 |
|     465 | 0x1FB0      |        8112 |
|     466 | 0x1FB1      |        8113 |
|     467 | 0x0190      |         400 |
|     468 | 0x1FB2      |        8114 |
|     469 | 0x1FB3      |        8115 |
|     470 | 0x1FB4      |        8116 |
|     471 | 0x1FB5      |        8117 |
|     472 | 0x1FB6      |        8118 |
|     473 | 0x1FB7      |        8119 |
|     474 | 0x1FB9      |        8121 |
|     475 | 0x1FBA      |        8122 |
|     476 | 0x1FBB      |        8123 |
|     477 | 0x1FBC      |        8124 |
|     478 | 0x1FBD      |        8125 |
|     479 | 0x1FBE      |        8126 |
|     480 | 0x1FBF      |        8127 |
|     481 | 0x1FC0      |        8128 |
|     482 | 0x1FC1      |        8129 |
|     483 | 0x1FC2      |        8130 |
|     484 | 0x1FC3      |        8131 |
|     485 | 0x1FC4      |        8132 |
|     486 | 0x1FC5      |        8133 |
|     487 | 0x1FC6      |        8134 |
|     488 | 0x1FC7      |        8135 |
|     489 | 0x1FC8      |        8136 |
|     490 | 0x1FC9      |        8137 |
|     491 | 0x1FCA      |        8138 |
|     492 | 0x1FCB      |        8139 |
|     493 | 0x1FCC      |        8140 |
|     494 | 0x1FCD      |        8141 |
|     495 | 0x1FCE      |        8142 |
|     496 | 0x1FCF      |        8143 |
|     497 | 0x0DCA      |        3530 |
|     498 | 0x1FD0      |        8144 |
|     499 | 0x1FD1      |        8145 |
|     500 | 0x1FD2      |        8146 |
|     501 | 0x1FD3      |        8147 |
|     502 | 0x1FD4      |        8148 |
|     503 | 0x1FD5      |        8149 |
|     504 | 0x1FD6      |        8150 |
|     505 | 0x1FD7      |        8151 |
|     506 | 0x1FD8      |        8152 |
|     507 | 0x1FD9      |        8153 |
|     508 | 0x1FDA      |        8154 |
|     509 | 0x1FDB      |        8155 |
|     510 | 0x1FDC      |        8156 |
|     511 | 0x1FDD      |        8157 |
|     512 | 0x1FDE      |        8158 |
|     513 | 0x1FDF      |        8159 |
|     514 | 0x1FE0      |        8160 |
|     515 | 0x1FE1      |        8161 |
|     516 | 0x1FE2      |        8162 |
|     517 | 0x1FE3      |        8163 |
|     518 | 0x1FE4      |        8164 |
|     519 | 0x1FE5      |        8165 |
|     520 | 0x1FE6      |        8166 |
|     521 | 0x1FE7      |        8167 |
|     522 | 0x1FE8      |        8168 |
|     523 | 0x1FE9      |        8169 |
|     524 | 0x1FEA      |        8170 |
|     525 | 0x1FEB      |        8171 |
|     526 | 0x1FEC      |        8172 |
|     527 | 0x1FED      |        8173 |
|     528 | 0x1FEE      |        8174 |
|     529 | 0x1FEF      |        8175 |
|     530 | 0x1FF0      |        8176 |
|     531 | 0x1FF1      |        8177 |
|     532 | 0x1FF2      |        8178 |
|     533 | 0x476B2     |      292530 |
|     534 | 0xFFFFEE22  |  4294962722 |
|     535 | 0xFFFFE747  |  4294960967 |
|     536 | 0x0A94      |        2708 |
|     537 | 0x1FF3      |        8179 |
|     538 | 0x1FF4      |        8180 |
|     539 | 0x1FF5      |        8181 |
|     540 | 0x1FF6      |        8182 |
|     541 | 0x1FF7      |        8183 |
|     542 | 0x1FF8      |        8184 |
|     543 | 0x1FF9      |        8185 |
|     544 | 0x1FFA      |        8186 |
|     545 | 0x0D83      |        3459 |
|     546 | 0x1FFB      |        8187 |
|     547 | 0x1FFC      |        8188 |
|     548 | 0x1FFD      |        8189 |
|     549 | 0x1FFE      |        8190 |
|     550 | 0x1FFF      |        8191 |
|     551 | 0x2000      |        8192 |
|     552 | 0x2001      |        8193 |
|     553 | 0x2002      |        8194 |
|     554 | 0x2003      |        8195 |
|     555 | 0x2004      |        8196 |
|     556 | 0x2005      |        8197 |
|     557 | 0x2006      |        8198 |
|     558 | 0x2007      |        8199 |
|     559 | 0x0DCC      |        3532 |
|     560 | 0x2008      |        8200 |
|     561 | 0x2009      |        8201 |
|     562 | 0x200A      |        8202 |
|     563 | 0x200B      |        8203 |
|     564 | 0x200C      |        8204 |
|     565 | 0x200D      |        8205 |
|     566 | 0x200E      |        8206 |
|     567 | 0x200F      |        8207 |
|     568 | 0x2010      |        8208 |
|     569 | 0x2011      |        8209 |
|     570 | 0x2012      |        8210 |
|     571 | 0x0D85      |        3461 |
|     572 | 0x2013      |        8211 |
|     573 | 0x2014      |        8212 |
|     574 | 0x0041      |          65 |
|     575 | 0x2015      |        8213 |
|     576 | 0x2016      |        8214 |
|     577 | 0x2017      |        8215 |
|     578 | 0x2018      |        8216 |
|     579 | 0x2019      |        8217 |
|     580 | 0x201A      |        8218 |
|     581 | 0x201B      |        8219 |
|     582 | 0x201C      |        8220 |
|     583 | 0xFFFFFF95  |  4294967189 |
|     584 | 0x049C      |        1180 |
|     585 | 0x201D      |        8221 |
|     586 | 0x201E      |        8222 |
|     587 | 0x201F      |        8223 |
|     588 | 0x2020      |        8224 |
|     589 | 0x2021      |        8225 |
|     590 | 0x2022      |        8226 |
|     591 | 0x2023      |        8227 |
|     592 | 0x2024      |        8228 |
|     593 | 0xFFFFFF80  |  4294967168 |
|     594 | 0x11AB2     |       72370 |
|     595 | 0x1A860     |      108640 |
|     596 | 0x0686      |        1670 |
|     597 | 0xFFFFBF78  |  4294950776 |
|     598 | 0x2025      |        8229 |
|     599 | 0x2026      |        8230 |
|     600 | 0x2027      |        8231 |
|     601 | 0x2028      |        8232 |
|     602 | 0x2029      |        8233 |
|     603 | 0x202A      |        8234 |
|     604 | 0x202B      |        8235 |
|     605 | 0x202C      |        8236 |
|     606 | 0x202D      |        8237 |
|     607 | 0xFFFFFF7F  |  4294967167 |
|     608 | 0xE646      |       58950 |
|     609 | 0x4EAC      |       20140 |
|     610 | 0x06C2      |        1730 |
|     611 | 0x19438     |      103480 |
|     612 | 0x202E      |        8238 |
|     613 | 0x7896      |       30870 |
|     614 | 0x04A6      |        1190 |
|     615 | 0xFFFF76DA  |  4294932186 |
|     616 | 0x202F      |        8239 |
|     617 | 0x2030      |        8240 |
|     618 | 0x2031      |        8241 |
|     619 | 0x2032      |        8242 |
|     620 | 0x00DA      |         218 |
|     621 | 0x2033      |        8243 |
|     622 | 0x0079      |         121 |
|     623 | 0x2034      |        8244 |
|     624 | 0x2035      |        8245 |
|     625 | 0x2036      |        8246 |
|     626 | 0x2037      |        8247 |
|     627 | 0x2038      |        8248 |
|     628 | 0x2039      |        8249 |
|     629 | 0x203A      |        8250 |
|     630 | 0x203B      |        8251 |
|     631 | 0x203C      |        8252 |
|     632 | 0x203D      |        8253 |
|     633 | 0x203E      |        8254 |
|     634 | 0x203F      |        8255 |
|     635 | 0x2040      |        8256 |
|     636 | 0x2041      |        8257 |
|     637 | 0x2042      |        8258 |
|     638 | 0x2043      |        8259 |
|     639 | 0x2044      |        8260 |
|     640 | 0x2045      |        8261 |
|     641 | 0x2046      |        8262 |
|     642 | 0x2047      |        8263 |
|     643 | 0x2048      |        8264 |
|     644 | 0x009F      |         159 |
|     645 | 0x2049      |        8265 |
|     646 | 0x204A      |        8266 |
|     647 | 0xFFFFFF97  |  4294967191 |
|     648 | 0x8FFC      |       36860 |
|     649 | 0x1C66      |        7270 |
|     650 | 0x04BA      |        1210 |
|     651 | 0xFFFF84A4  |  4294935716 |
|     652 | 0x204B      |        8267 |
|     653 | 0x00CC      |         204 |
|     654 | 0x204C      |        8268 |
|     655 | 0x0258      |         600 |
|     656 | 0x204D      |        8269 |
|     657 | 0x204E      |        8270 |
|     658 | 0x204F      |        8271 |
|     659 | 0x2050      |        8272 |
|     660 | 0x2051      |        8273 |
|     661 | 0x2052      |        8274 |
|     662 | 0x2053      |        8275 |
|     663 | 0x2054      |        8276 |
|     664 | 0x2055      |        8277 |
|     665 | 0x2056      |        8278 |
|     666 | 0x2057      |        8279 |
|     667 | 0x2058      |        8280 |
|     668 | 0x0C93      |        3219 |
|     669 | 0x2059      |        8281 |
|     670 | 0x48C88     |      298120 |
|     671 | 0xFFFFE746  |  4294960966 |
|     672 | 0xFFFFE796  |  4294961046 |
|     673 | 0x09AB      |        2475 |
|     674 | 0x478D4     |      293076 |
|     675 | 0xFFFFF0BB  |  4294963387 |
|     676 | 0xFFFFE765  |  4294960997 |
|     677 | 0x09F0      |        2544 |
|     678 | 0x47BBF     |      293823 |
|     679 | 0xFFFFE6B0  |  4294960816 |
|     680 | 0xFFFFE6E4  |  4294960868 |
|     681 | 0x0A11      |        2577 |
|     682 | 0x47BD4     |      293844 |
|     683 | 0xFFFFE1DA  |  4294959578 |
|     684 | 0xFFFFE6E2  |  4294960866 |
|     685 | 0x0A72      |        2674 |
|     686 | 0x45302     |      283394 |
|     687 | 0xFFFED0BE  |  4294889662 |
|     688 | 0xFFFE3A1B  |  4294851099 |
|     689 | 0x0460      |        1120 |
|     690 | 0x0DE7      |        3559 |
|     691 | 0x0DC3      |        3523 |
|     692 | 0x0BC4      |        3012 |
|     693 | 0x00D5      |         213 |
|     694 | 0x027A      |         634 |
|     695 | 0x205A      |        8282 |
|     696 | 0x205B      |        8283 |
|     697 | 0x205C      |        8284 |
|     698 | 0x205D      |        8285 |
|     699 | 0x205E      |        8286 |
|     700 | 0x205F      |        8287 |
|     701 | 0x2060      |        8288 |
|     702 | 0x2061      |        8289 |
|     703 | 0x2062      |        8290 |
|     704 | 0x2063      |        8291 |
|     705 | 0x2064      |        8292 |
|     706 | 0x2065      |        8293 |
|     707 | 0x2066      |        8294 |
|     708 | 0x2067      |        8295 |
|     709 | 0x2068      |        8296 |
|     710 | 0x0049      |          73 |
|     711 | 0x2069      |        8297 |
|     712 | 0x206A      |        8298 |
|     713 | 0x206B      |        8299 |
|     714 | 0x206C      |        8300 |
|     715 | 0x206D      |        8301 |
|     716 | 0x206E      |        8302 |
|     717 | 0x206F      |        8303 |
|     718 | 0x2070      |        8304 |
|     719 | 0x2071      |        8305 |
|     720 | 0x2072      |        8306 |
|     721 | 0x2073      |        8307 |
|     722 | 0x2074      |        8308 |
|     723 | 0x2075      |        8309 |
|     724 | 0x2076      |        8310 |
|     725 | 0x2077      |        8311 |
|     726 | 0x0D9B      |        3483 |
|     727 | 0x2078      |        8312 |
|     728 | 0x2079      |        8313 |
|     729 | 0x207A      |        8314 |
|     730 | 0x207B      |        8315 |
|     731 | 0x207C      |        8316 |
|     732 | 0x0DCD      |        3533 |
|     733 | 0x00AA      |         170 |
|     734 | 0x207D      |        8317 |
|     735 | 0x207E      |        8318 |
|     736 | 0x015E      |         350 |
|     737 | 0x207F      |        8319 |
|     738 | 0x2080      |        8320 |
|     739 | 0x0D95      |        3477 |
|     740 | 0x2081      |        8321 |
|     741 | 0x2082      |        8322 |
|     742 | 0x2083      |        8323 |
|     743 | 0x0DE5      |        3557 |
|     744 | 0x2084      |        8324 |
|     745 | 0x0D94      |        3476 |
|     746 | 0x2085      |        8325 |
|     747 | 0x2086      |        8326 |
|     748 | 0x2087      |        8327 |
|     749 | 0x2088      |        8328 |
|     750 | 0x2089      |        8329 |
|     751 | 0x208A      |        8330 |
|     752 | 0x208B      |        8331 |
|     753 | 0x45C28     |      285736 |
|     754 | 0xFFFED36F  |  4294890351 |
|     755 | 0xFFFE3A1D  |  4294851101 |
|     756 | 0x0859      |        2137 |
|     757 | 0x0D1B      |        3355 |
|     758 | 0x208C      |        8332 |
|     759 | 0x208D      |        8333 |
|     760 | 0x208E      |        8334 |
|     761 | 0x00C4      |         196 |
|     762 | 0xFFFFE6CE  |  4294960846 |
|     763 | 0x208F      |        8335 |
|     764 | 0x2090      |        8336 |
|     765 | 0x2091      |        8337 |
|     766 | 0x0DF2      |        3570 |
|     767 | 0x004B      |          75 |
|     768 | 0x2092      |        8338 |
|     769 | 0x2093      |        8339 |
|     770 | 0x2094      |        8340 |
|     771 | 0x2095      |        8341 |
|     772 | 0x2096      |        8342 |
|     773 | 0x2097      |        8343 |
|     774 | 0x2098      |        8344 |
|     775 | 0x2099      |        8345 |
|     776 | 0x209A      |        8346 |
|     777 | 0x209B      |        8347 |
|     778 | 0x209C      |        8348 |
|     779 | 0x209D      |        8349 |
|     780 | 0x0D8A      |        3466 |
|     781 | 0x209E      |        8350 |
|     782 | 0x0DE8      |        3560 |
|     783 | 0x209F      |        8351 |
|     784 | 0x20A0      |        8352 |
|     785 | 0x20A1      |        8353 |
|     786 | 0x20A2      |        8354 |
|     787 | 0x20A3      |        8355 |
|     788 | 0x20A4      |        8356 |
|     789 | 0x20A5      |        8357 |
|     790 | 0x20A6      |        8358 |
|     791 | 0x20A7      |        8359 |
|     792 | 0x20A8      |        8360 |
|     793 | 0x20A9      |        8361 |
|     794 | 0x20AA      |        8362 |
|     795 | 0x20AB      |        8363 |
|     796 | 0x0D9C      |        3484 |
|     797 | 0x20AC      |        8364 |
|     798 | 0x20AD      |        8365 |
|     799 | 0x20AE      |        8366 |
|     800 | 0x20AF      |        8367 |
|     801 | 0x20B0      |        8368 |
|     802 | 0x20B1      |        8369 |
|     803 | 0x20B2      |        8370 |
|     804 | 0x0D98      |        3480 |
|     805 | 0x20B3      |        8371 |
|     806 | 0x20B4      |        8372 |
|     807 | 0x20B5      |        8373 |
|     808 | 0x20B6      |        8374 |
|     809 | 0x0D9A      |        3482 |
|     810 | 0x20B7      |        8375 |
|     811 | 0x20B8      |        8376 |
|     812 | 0x0D9D      |        3485 |
|     813 | 0x20B9      |        8377 |
|     814 | 0x0D99      |        3481 |
|     815 | 0x20BA      |        8378 |
|     816 | 0x20BB      |        8379 |
|     817 | 0x20BC      |        8380 |
|     818 | 0x20BD      |        8381 |
|     819 | 0x20BE      |        8382 |
|     820 | 0x20BF      |        8383 |
|     821 | 0x20C0      |        8384 |
|     822 | 0x20C1      |        8385 |
|     823 | 0x20C2      |        8386 |
|     824 | 0x20C3      |        8387 |
|     825 | 0x20C4      |        8388 |
|     826 | 0x0040      |          64 |
|     827 | 0x20C5      |        8389 |
|     828 | 0x0C99      |        3225 |
|     829 | 0x20C6      |        8390 |
|     830 | 0x20C7      |        8391 |
|     831 | 0x20C8      |        8392 |
|     832 | 0x20C9      |        8393 |
|     833 | 0x20CA      |        8394 |
|     834 | 0x20CB      |        8395 |
|     835 | 0x20CC      |        8396 |
|     836 | 0x20CD      |        8397 |
|     837 | 0x20CE      |        8398 |
|     838 | 0x20CF      |        8399 |
|     839 | 0x20D0      |        8400 |
|     840 | 0x20D1      |        8401 |
|     841 | 0x20D2      |        8402 |
|     842 | 0x20D3      |        8403 |
|     843 | 0x20D4      |        8404 |
|     844 | 0x20D5      |        8405 |
|     845 | 0x20D6      |        8406 |
|     846 | 0x20D7      |        8407 |
|     847 | 0x20D8      |        8408 |
|     848 | 0x20D9      |        8409 |
|     849 | 0x20DA      |        8410 |
|     850 | 0x20DB      |        8411 |
|     851 | 0x47842     |      292930 |
|     852 | 0xFFFFE8CB  |  4294961355 |
|     853 | 0xFFFFE6CB  |  4294960843 |
|     854 | 0x20DC      |        8412 |
|     855 | 0x20DD      |        8413 |
|     856 | 0x20DE      |        8414 |
|     857 | 0x0DCF      |        3535 |
|     858 | 0x00DE      |         222 |
|     859 | 0x20DF      |        8415 |
|     860 | 0x20E0      |        8416 |
|     861 | 0x20E1      |        8417 |
|     862 | 0x20E2      |        8418 |
|     863 | 0x20E3      |        8419 |
|     864 | 0x20E4      |        8420 |
|     865 | 0x20E5      |        8421 |
|     866 | 0x20E6      |        8422 |
|     867 | 0x20E7      |        8423 |
|     868 | 0x0C9F      |        3231 |
|     869 | 0x20E8      |        8424 |
|     870 | 0x20E9      |        8425 |
|     871 | 0x20EA      |        8426 |
|     872 | 0x00FA      |         250 |
|     873 | 0x20EB      |        8427 |
|     874 | 0x20EC      |        8428 |
|     875 | 0x20ED      |        8429 |
|     876 | 0x20EE      |        8430 |
|     877 | 0x20EF      |        8431 |
|     878 | 0x20F0      |        8432 |
|     879 | 0x20F1      |        8433 |
|     880 | 0x0DC0      |        3520 |
|     881 | 0x20F2      |        8434 |
|     882 | 0x0D96      |        3478 |
|     883 | 0x20F3      |        8435 |
|     884 | 0x20F4      |        8436 |
|     885 | 0x20F5      |        8437 |
|     886 | 0x20F6      |        8438 |
|     887 | 0x20F7      |        8439 |
|     888 | 0x20F8      |        8440 |
|     889 | 0x20F9      |        8441 |
|     890 | 0x20FA      |        8442 |
|     891 | 0x20FB      |        8443 |
|     892 | 0x20FC      |        8444 |
|     893 | 0x20FD      |        8445 |
|     894 | 0x20FE      |        8446 |
|     895 | 0x48362     |      295778 |
|     896 | 0xFFFFEB92  |  4294962066 |
|     897 | 0xFFFFE65E  |  4294960734 |
|     898 | 0x09D8      |        2520 |
|     899 | 0x49083     |      299139 |
|     900 | 0xFFFFE662  |  4294960738 |
|     901 | 0xFFFFE871  |  4294961265 |
|     902 | 0x09A8      |        2472 |
|     903 | 0x49C41     |      302145 |
|     904 | 0x150D      |        5389 |
|     905 | 0xFFFE05F6  |  4294837750 |
|     906 | 0x481F1     |      295409 |
|     907 | 0xFFFFE642  |  4294960706 |
|     908 | 0xFFFFE6A4  |  4294960804 |
|     909 | 0x0A02      |        2562 |
|     910 | 0x47B46     |      293702 |
|     911 | 0xFFFFEFED  |  4294963181 |
|     912 | 0xFFFFE75E  |  4294960990 |
|     913 | 0x09DF      |        2527 |
|     914 | 0x0C60      |        3168 |
|     915 | 0x0094      |         148 |
|     916 | 0x00D9      |         217 |
|     917 | 0x20FF      |        8447 |
|     918 | 0x0024      |          36 |
|     919 | 0x0D68      |        3432 |
|     920 | 0x0DE1      |        3553 |
|     921 | 0x2100      |        8448 |
|     922 | 0x2101      |        8449 |
|     923 | 0x2102      |        8450 |
|     924 | 0x0DE2      |        3554 |
|     925 | 0x2103      |        8451 |
|     926 | 0x00DB      |         219 |
|     927 | 0x0DE3      |        3555 |
|     928 | 0x00AE      |         174 |
|     929 | 0xFFFFBE7D  |  4294950525 |
|     930 | 0x0DE4      |        3556 |
|     931 | 0x2104      |        8452 |
|     932 | 0x0068      |         104 |
|     933 | 0x2105      |        8453 |
|     934 | 0x2106      |        8454 |
|     935 | 0x000C      |          12 |
|     936 | 0xFFFB730C  |  4294669068 |
|     937 | 0x85CC      |       34252 |
|     938 | 0xFFFF38D3  |  4294916307 |
|     939 | 0xFFFC5DD9  |  4294729177 |
|     940 | 0x0837      |        2103 |
|     941 | 0xFFFFF80E  |  4294965262 |
|     942 | 0x028E      |         654 |
|     943 | 0x0D64      |        3428 |
|     944 | 0x00CD      |         205 |
|     945 | 0x0060      |          96 |
|     946 | 0xFFFDAB3A  |  4294814522 |
|     947 | 0x0AD4      |        2772 |
|     948 | 0xFFFF6094  |  4294926484 |
|     949 | 0x00CF      |         207 |
|     950 | 0x0D65      |        3429 |
|     951 | 0x0046      |          70 |
|     952 | 0x00A4      |         164 |
|     953 | 0x0DA2      |        3490 |
|     954 | 0x0156      |         342 |
|     955 | 0x0019      |          25 |
|     956 | 0x006E      |         110 |
|     957 | 0x0DA3      |        3491 |
|     958 | 0x00CE      |         206 |
|     959 | 0x00D1      |         209 |
|     960 | 0xFFFBC883  |  4294690947 |
|     961 | 0xFFFFA6F5  |  4294944501 |
|     962 | 0xFFFF9E25  |  4294942245 |
|     963 | 0xFFFBC7C1  |  4294690753 |
|     964 | 0xFFFFA756  |  4294944598 |
|     965 | 0xFFFF9FF8  |  4294942712 |
|     966 | 0x0DA4      |        3492 |
|     967 | 0xFFFC93DE  |  4294743006 |
|     968 | 0xFFFFB2DC  |  4294947548 |
|     969 | 0x47C06     |      293894 |
|     970 | 0xFFFFE283  |  4294959747 |
|     971 | 0xFFFFE6B9  |  4294960825 |
|     972 | 0x0A8C      |        2700 |
|     973 | 0x47ADC     |      293596 |
|     974 | 0xFFFFEBAB  |  4294962091 |
|     975 | 0xFFFFE6F3  |  4294960883 |
|     976 | 0x0A0E      |        2574 |
|     977 | 0xFFFFF14C  |  4294963532 |
|     978 | 0xFFFFE75D  |  4294960989 |
|     979 | 0xFFFFE80D  |  4294961165 |
|     980 | 0x0DEA      |        3562 |
|     981 | 0x0D1A      |        3354 |
|     982 | 0x09FE      |        2558 |
|     983 | 0x2107      |        8455 |
|     984 | 0x2109      |        8457 |
|     985 | 0x210A      |        8458 |
|     986 | 0x210B      |        8459 |
|     987 | 0x210C      |        8460 |
|     988 | 0x210D      |        8461 |
|     989 | 0x210E      |        8462 |
|     990 | 0x210F      |        8463 |
|     991 | 0x2110      |        8464 |
|     992 | 0x2111      |        8465 |
|     993 | 0x2112      |        8466 |
|     994 | 0x2113      |        8467 |
|     995 | 0x2114      |        8468 |
|     996 | 0x2115      |        8469 |
|     997 | 0x2116      |        8470 |
|     998 | 0x2117      |        8471 |
|     999 | 0x2118      |        8472 |
|    1000 | 0x2119      |        8473 |
|    1001 | 0x211A      |        8474 |
|    1002 | 0x211B      |        8475 |
|    1003 | 0x211C      |        8476 |
|    1004 | 0x211D      |        8477 |
|    1005 | 0x211E      |        8478 |
|    1006 | 0x211F      |        8479 |
|    1007 | 0x2120      |        8480 |
|    1008 | 0x2121      |        8481 |
|    1009 | 0x4771F     |      292639 |
|    1010 | 0xFFFFEFB2  |  4294963122 |
|    1011 | 0xFFFFE770  |  4294961008 |
|    1012 | 0x2122      |        8482 |
|    1013 | 0x2123      |        8483 |
|    1014 | 0x2124      |        8484 |
|    1015 | 0x2125      |        8485 |
|    1016 | 0x2126      |        8486 |
|    1017 | 0x2127      |        8487 |
|    1018 | 0x2128      |        8488 |
|    1019 | 0x2129      |        8489 |
|    1020 | 0x212A      |        8490 |
|    1021 | 0x212B      |        8491 |
|    1022 | 0x212C      |        8492 |
|    1023 | 0x212D      |        8493 |
|    1024 | 0x212E      |        8494 |
|    1025 | 0x003A      |          58 |
|    1026 | 0x212F      |        8495 |
|    1027 | 0x2130      |        8496 |
|    1028 | 0x452B1     |      283313 |
|    1029 | 0xFFFECCA7  |  4294888615 |
|    1030 | 0xFFFE3A1C  |  4294851100 |
|    1031 | 0x2131      |        8497 |
|    1032 | 0x2132      |        8498 |
|    1033 | 0x2133      |        8499 |
|    1034 | 0x2134      |        8500 |
|    1035 | 0x2135      |        8501 |
|    1036 | 0x2136      |        8502 |
|    1037 | 0x2137      |        8503 |
|    1038 | 0x2138      |        8504 |
|    1039 | 0x2139      |        8505 |
|    1040 | 0xFFFC1379  |  4294710137 |
|    1041 | 0xE9D1      |       59857 |
|    1042 | 0x5145      |       20805 |
|    1043 | 0xFFFC1B97  |  4294712215 |
|    1044 | 0xF27C      |       62076 |
|    1045 | 0x5208      |       21000 |
|    1046 | 0x0AC7      |        2759 |
|    1047 | 0xFFFC14ED  |  4294710509 |
|    1048 | 0xF5EA      |       62954 |
|    1049 | 0x51D5      |       20949 |
|    1050 | 0xFFFC2ED1  |  4294717137 |
|    1051 | 0xF418      |       62488 |
|    1052 | 0x5279      |       21113 |
|    1053 | 0x07B3      |        1971 |
|    1054 | 0x0CC3      |        3267 |
|    1055 | 0x0CA1      |        3233 |
|    1056 | 0x0214      |         532 |
|    1057 | 0x1F16      |        7958 |
|    1058 | 0x1F17      |        7959 |
|    1059 | 0x1F18      |        7960 |
|    1060 | 0x1F19      |        7961 |
|    1061 | 0x1F1A      |        7962 |
|    1062 | 0x1F1B      |        7963 |
|    1063 | 0x1F1C      |        7964 |
|    1064 | 0x1F1D      |        7965 |
|    1065 | 0x1F1E      |        7966 |
|    1066 | 0x0CC4      |        3268 |
|    1067 | 0x1F1F      |        7967 |
|    1068 | 0x1F20      |        7968 |
|    1069 | 0x1F21      |        7969 |
|    1070 | 0xFFFC1594  |  4294710676 |
|    1071 | 0xEC0C      |       60428 |
|    1072 | 0x51DF      |       20959 |
|    1073 | 0x0F79      |        3961 |
|    1074 | 0x1F22      |        7970 |
|    1075 | 0x1F23      |        7971 |
|    1076 | 0x48058     |      295000 |
|    1077 | 0xFFFFF202  |  4294963714 |
|    1078 | 0xFFFFE66A  |  4294960746 |
|    1079 | 0x09E0      |        2528 |
|    1080 | 0x48C03     |      297987 |
|    1081 | 0xFFFFF284  |  4294963844 |
|    1082 | 0xFFFFE783  |  4294961027 |
|    1083 | 0x09C5      |        2501 |
|    1084 | 0x49698     |      300696 |
|    1085 | 0xFFFFD09B  |  4294955163 |
|    1086 | 0xFFFFE9B4  |  4294961588 |
|    1087 | 0x0A0D      |        2573 |
|    1088 | 0x4908B     |      299147 |
|    1089 | 0xFFFFCB8E  |  4294953870 |
|    1090 | 0xFFFFEA8B  |  4294961803 |
|    1091 | 0x09F7      |        2551 |
|    1092 | 0x02E3      |         739 |
|    1093 | 0x213D      |        8509 |
|    1094 | 0x213E      |        8510 |
|    1095 | 0x213F      |        8511 |
|    1096 | 0x2140      |        8512 |
|    1097 | 0x2141      |        8513 |
|    1098 | 0x0DF3      |        3571 |
|    1099 | 0x2142      |        8514 |
|    1100 | 0x2143      |        8515 |
|    1101 | 0x2144      |        8516 |
|    1102 | 0xFFFFFF7B  |  4294967163 |
|    1103 | 0xFFFFEE9E  |  4294962846 |
|    1104 | 0xFFFF3954  |  4294916436 |
|    1105 | 0x0081      |         129 |
|    1106 | 0xFFFFF5BA  |  4294964666 |
|    1107 | 0x0424      |        1060 |
|    1108 | 0x2145      |        8517 |
|    1109 | 0x2146      |        8518 |
|    1110 | 0x2147      |        8519 |
|    1111 | 0x2148      |        8520 |
|    1112 | 0x2149      |        8521 |
|    1113 | 0x214A      |        8522 |
|    1114 | 0x214B      |        8523 |
|    1115 | 0x214C      |        8524 |
|    1116 | 0x214D      |        8525 |
|    1117 | 0x214E      |        8526 |
|    1118 | 0x214F      |        8527 |
|    1119 | 0x2150      |        8528 |
|    1120 | 0x2151      |        8529 |
|    1121 | 0x2152      |        8530 |
|    1122 | 0x2153      |        8531 |
|    1123 | 0x2154      |        8532 |
|    1124 | 0x2155      |        8533 |
|    1125 | 0x2156      |        8534 |
|    1126 | 0x2157      |        8535 |
|    1127 | 0x2158      |        8536 |
|    1128 | 0x2159      |        8537 |
|    1129 | 0x215A      |        8538 |
|    1130 | 0x215B      |        8539 |
|    1131 | 0x215C      |        8540 |
|    1132 | 0x215D      |        8541 |
|    1133 | 0x215E      |        8542 |
|    1134 | 0x215F      |        8543 |
|    1135 | 0x2160      |        8544 |
|    1136 | 0x2161      |        8545 |
|    1137 | 0x2162      |        8546 |
|    1138 | 0x2163      |        8547 |
|    1139 | 0x2164      |        8548 |
|    1140 | 0x2165      |        8549 |
|    1141 | 0x2166      |        8550 |
|    1142 | 0x01E0      |         480 |
|    1143 | 0x2167      |        8551 |
|    1144 | 0x2168      |        8552 |
|    1145 | 0x2169      |        8553 |
|    1146 | 0x216A      |        8554 |
|    1147 | 0x216B      |        8555 |
|    1148 | 0x216C      |        8556 |
|    1149 | 0x216D      |        8557 |
|    1150 | 0x216E      |        8558 |
|    1151 | 0x216F      |        8559 |
|    1152 | 0x49C57     |      302167 |
|    1153 | 0xFFFFCE36  |  4294954550 |
|    1154 | 0xFFFFEB84  |  4294962052 |
|    1155 | 0x0BFB      |        3067 |
|    1156 | 0xFFFFE60B  |  4294960651 |
|    1157 | 0x0277      |         631 |
|    1158 | 0x2170      |        8560 |
|    1159 | 0x2171      |        8561 |
|    1160 | 0x2172      |        8562 |
|    1161 | 0x2173      |        8563 |
|    1162 | 0x2174      |        8564 |
|    1163 | 0x2175      |        8565 |
|    1164 | 0x2176      |        8566 |
|    1165 | 0x2177      |        8567 |
|    1166 | 0x0CC8      |        3272 |
|    1167 | 0x2178      |        8568 |
|    1168 | 0x2179      |        8569 |
|    1169 | 0x217A      |        8570 |
|    1170 | 0x0CFD      |        3325 |
|    1171 | 0x217B      |        8571 |
|    1172 | 0x005E      |          94 |
|    1173 | 0x00F2      |         242 |
|    1174 | 0x217C      |        8572 |
|    1175 | 0x217D      |        8573 |
|    1176 | 0x217E      |        8574 |
|    1177 | 0x0CC2      |        3266 |
|    1178 | 0x217F      |        8575 |
|    1179 | 0x2180      |        8576 |
|    1180 | 0x0CC7      |        3271 |
|    1181 | 0x2181      |        8577 |
|    1182 | 0x2182      |        8578 |
|    1183 | 0x0DD1      |        3537 |
|    1184 | 0x2183      |        8579 |
|    1185 | 0x2184      |        8580 |
|    1186 | 0x2185      |        8581 |
|    1187 | 0x2186      |        8582 |
|    1188 | 0x2187      |        8583 |
|    1189 | 0x2188      |        8584 |
|    1190 | 0x2189      |        8585 |
|    1191 | 0x218A      |        8586 |
|    1192 | 0x218B      |        8587 |
|    1193 | 0x218C      |        8588 |
|    1194 | 0x218D      |        8589 |
|    1195 | 0x218E      |        8590 |
|    1196 | 0x218F      |        8591 |
|    1197 | 0x0E1D      |        3613 |
|    1198 | 0x48B1C     |      297756 |
|    1199 | 0xFFFFE8E0  |  4294961376 |
|    1200 | 0xFFFFE693  |  4294960787 |
|    1201 | 0x481E7     |      295399 |
|    1202 | 0xFFFFE3C3  |  4294960067 |
|    1203 | 0xFFFFE6EB  |  4294960875 |
|    1204 | 0x4939A     |      299930 |
|    1205 | 0xFFFFE482  |  4294960258 |
|    1206 | 0xFFFFE852  |  4294961234 |
|    1207 | 0x0BB9      |        3001 |
|    1208 | 0x2190      |        8592 |
|    1209 | 0x2191      |        8593 |
|    1210 | 0x2192      |        8594 |
|    1211 | 0x0CCB      |        3275 |
|    1212 | 0x2193      |        8595 |
|    1213 | 0x2194      |        8596 |
|    1214 | 0x2195      |        8597 |
|    1215 | 0x2196      |        8598 |
|    1216 | 0x2197      |        8599 |
|    1217 | 0x2198      |        8600 |
|    1218 | 0x2199      |        8601 |
|    1219 | 0x219A      |        8602 |
|    1220 | 0x219B      |        8603 |
|    1221 | 0x219C      |        8604 |
|    1222 | 0x219D      |        8605 |
|    1223 | 0x219E      |        8606 |
|    1224 | 0x219F      |        8607 |
|    1225 | 0x21A0      |        8608 |
|    1226 | 0x21A1      |        8609 |
|    1227 | 0x21A2      |        8610 |
|    1228 | 0x21A3      |        8611 |
|    1229 | 0x21A4      |        8612 |
|    1230 | 0x21A5      |        8613 |
|    1231 | 0x21A6      |        8614 |
|    1232 | 0x21A7      |        8615 |
|    1233 | 0x21A8      |        8616 |
|    1234 | 0x21A9      |        8617 |
|    1235 | 0x21AA      |        8618 |
|    1236 | 0x21AB      |        8619 |
|    1237 | 0x0DB9      |        3513 |
|    1238 | 0x21AC      |        8620 |
|    1239 | 0x21AD      |        8621 |
|    1240 | 0x21AE      |        8622 |
|    1241 | 0x21AF      |        8623 |
|    1242 | 0x21B0      |        8624 |
|    1243 | 0x21B1      |        8625 |
|    1244 | 0x21B2      |        8626 |
|    1245 | 0x21B3      |        8627 |
|    1246 | 0x21B4      |        8628 |
|    1247 | 0x21B5      |        8629 |
|    1248 | 0x21B6      |        8630 |
|    1249 | 0x21B7      |        8631 |
|    1250 | 0x21B8      |        8632 |
|    1251 | 0x21B9      |        8633 |
|    1252 | 0x0CA3      |        3235 |
|    1253 | 0x21BA      |        8634 |
|    1254 | 0x21BB      |        8635 |
|    1255 | 0x21BC      |        8636 |
|    1256 | 0x21BD      |        8637 |
|    1257 | 0x21BE      |        8638 |
|    1258 | 0x21BF      |        8639 |
|    1259 | 0x21C0      |        8640 |
|    1260 | 0x21C1      |        8641 |
|    1261 | 0x21C2      |        8642 |
|    1262 | 0x21C3      |        8643 |
|    1263 | 0x0CEC      |        3308 |
|    1264 | 0x21C4      |        8644 |
|    1265 | 0x21C5      |        8645 |
|    1266 | 0x21C6      |        8646 |
|    1267 | 0x21C7      |        8647 |
|    1268 | 0x21C8      |        8648 |
|    1269 | 0x21C9      |        8649 |
|    1270 | 0x21CA      |        8650 |
|    1271 | 0x21CB      |        8651 |
|    1272 | 0x21CC      |        8652 |
|    1273 | 0x47D1C     |      294172 |
|    1274 | 0xFFFFECE0  |  4294962400 |
|    1275 | 0xFFFFE6F4  |  4294960884 |
|    1276 | 0x09FF      |        2559 |
|    1277 | 0x21CD      |        8653 |
|    1278 | 0x21CE      |        8654 |
|    1279 | 0x21CF      |        8655 |
|    1280 | 0x21D0      |        8656 |
|    1281 | 0x21D1      |        8657 |
|    1282 | 0x21D2      |        8658 |
|    1283 | 0x21D3      |        8659 |
|    1284 | 0x21D4      |        8660 |
|    1285 | 0x21D5      |        8661 |
|    1286 | 0x21D6      |        8662 |
|    1287 | 0x21D7      |        8663 |
|    1288 | 0x21D8      |        8664 |
|    1289 | 0x21D9      |        8665 |
|    1290 | 0x21DA      |        8666 |
|    1291 | 0x21DB      |        8667 |
|    1292 | 0x21DC      |        8668 |
|    1293 | 0x21DD      |        8669 |
|    1294 | 0x21DE      |        8670 |
|    1295 | 0x21DF      |        8671 |
|    1296 | 0x21E0      |        8672 |
|    1297 | 0x21E1      |        8673 |
|    1298 | 0x21E2      |        8674 |
|    1299 | 0x21E3      |        8675 |
|    1300 | 0x21E4      |        8676 |
|    1301 | 0x21E5      |        8677 |
|    1302 | 0x21E6      |        8678 |

## String References

- **7728**: $3{$3^$3$97F$31V$P10i]\\7
- **7729**: @@
- **7868**: What business do you have? [Please, I mean you no harm./Tell me about the golden tiger./Do you know where they took Arciela?]
- **7871**: You hurriedly discard the $3.
- **7898**: A gruff and authoritarian voice booms within your skull.
- **7899**: By its fearsome tone, there is no doubt it emanates from the golden-furred tiger.
- **7913**: Well, is it? [Never a truer word has been spoken./No. Finish her.]
- **7927**: Is everything all right? [That beast can communicate with me!/Yes. I couldn't be better.]
- **7932**: Look at what part of Arciela? [Her innocent face./Her heaving chest./Her hilt-clutching hands.]
- **7935**: You point emphatically to the poniard she wields.
- **7952**: "The Scourge of the Land" Rumored to have emerged from Vana'diel's primordial muck with the birth of the Ulbukan continent, this pearlescent wyrm inevitably appears before Adoulinians in the midst of great calamity. Therefore, the populace has come to regard its presence as an ill omen of the highest degree.
- **7953**: Of late, though, a new theory has been put forth by a scholarly collective. It asserts that the Scourge reveals itself not as a harbinger of crisis, but as a savior to deliver Ulbuka from cataclysmic destruction.
- **7954**: Neither hypothesis, however, has been proven.
- **8060**: Show your $3? [Sounds like a plan./No can do.]
- **8061**: You bring forth the $3 before the Winged Scourge.
- **8064**: Did you leave it behind? [Yes, silly me./No, I've got it right here.]
- **8068**: The Winged Scourge casts a burning stare in your direction.
- **8121**: Where did the fight occur? [Marjami Ravine./Yorcia Weald./Morimar Basalt Fields.]
- **8131**: What was the man's name? [Morigan./Morimar./Morison.]
- **8139**: Where did the last battle occur? [Abyssea./Promyvion./The Serpentine Labyrinth.]
- **8152**: Does the story sound familiar? [Yes, it does./Not one iota.]
- **8161**: What will you ask? [But isn't it your homeland?/Who are "they"?]
- **8246**: What will you do? [Pet and comfort him./Unleash a feral scream.]
- **8256**: What will you inquire? [What are you proposing?/What can we do?]
- **8293**: What do you think of Sajj'aka's claim? [It's relevant./It's preposterous.]
- **8316**: What is your opinion? [There's some deeper meaning./It's just the winds of chance.]
- **8353**: Do you remember? [Tiana. Of course./I've seen lots of little girls...]
- **8360**: How do you react? [Assent./Dissent.]
- **8397**: You take a long look at your $3.
- **8438**: Should Darrcuiln speak with Arciela? [Yes. She has a right to know./No. I'd rather keep her safe.]
- **8556**: How do you respond? [Just where are we going?/"Fly"?]
- **8583**: How do you respond? [What does that mean?/Then our attacks against him...]
- **8640**: How do you respond? [You knew each other?/I thought he was a libertine, myself.]

## Events

### Event 65535

#### Metadata

| Field        | Value     |
|--------------|-----------|
| Entrypoint   | 0x0000    |
| Data Size    | 658 bytes |
| Instructions | 1         |

```
      00 01 02 03 04 05 06 07  08 09 0A 0B 0C 0D 0E 0F
      -- -- -- -- -- -- -- --  -- -- -- -- -- -- -- --
0000: 00 45 00 80 F0 FF FF 7F  F0 FF FF 7F 66 64 69 30  .E..........fdi0
0010: 01 80 55 00 80 F0 FF FF  7F F0 FF FF 7F 66 64 69  ..U..........fdi
0020: 30 1B 45 00 80 F0 FF FF  7F F0 FF FF 7F 66 64 6F  0.E..........fdo
0030: 30 01 80 55 00 80 F0 FF  FF 7F F0 FF FF 7F 66 64  0..U..........fd
0040: 6F 30 1B 45 00 80 F0 FF  FF 7F F0 FF FF 7F 66 64  o0.E..........fd
0050: 69 31 01 80 55 00 80 F0  FF FF 7F F0 FF FF 7F 66  i1..U..........f
0060: 64 69 31 1B 45 00 80 F0  FF FF 7F F0 FF FF 7F 66  di1.E..........f
0070: 64 6F 31 01 80 55 00 80  F0 FF FF 7F F0 FF FF 7F  do1..U..........
0080: 66 64 6F 31 1B 45 02 80  F0 FF FF 7F F0 FF FF 7F  fdo1.E..........
0090: 77 68 69 31 01 80 55 02  80 F0 FF FF 7F F0 FF FF  whi1..U.........
00A0: 7F 77 68 69 31 1B 45 02  80 F0 FF FF 7F F0 FF FF  .whi1.E.........
00B0: 7F 77 68 6F 31 01 80 55  02 80 F0 FF FF 7F F0 FF  .who1..U........
00C0: FF 7F 77 68 6F 31 1B 45  02 80 F0 FF FF 7F F0 FF  ..who1.E........
00D0: FF 7F 77 68 6F 32 01 80  55 02 80 F0 FF FF 7F F0  ..who2..U.......
00E0: FF FF 7F 77 68 6F 32 1B  45 02 80 F0 FF FF 7F F0  ...who2.E.......
00F0: FF FF 7F 77 68 6F 33 01  80 55 02 80 F0 FF FF 7F  ...who3..U......
0100: F0 FF FF 7F 77 68 6F 33  1B 62 03 80 F0 FF FF 7F  ....who3.b......
0110: F0 FF FF 7F 6D 61 69 6E  01 80 1C 04 80 45 00 80  ....main.....E..
0120: F0 FF FF 7F F0 FF FF 7F  66 64 6F 31 01 80 55 00  ........fdo1..U.
0130: 80 F0 FF FF 7F F0 FF FF  7F 66 64 6F 31 1B 45 00  .........fdo1.E.
0140: 80 F0 FF FF 7F F0 FF FF  7F 66 64 69 31 01 80 62  .........fdi1..b
0150: 05 80 F0 FF FF 7F F0 FF  FF 7F 6D 61 69 6E 01 80  ..........main..
0160: 1C 06 80 55 00 80 F0 FF  FF 7F F0 FF FF 7F 66 64  ...U..........fd
0170: 69 31 1B 45 00 80 F0 FF  FF 7F F0 FF FF 7F 62 6C  i1.E..........bl
0180: 6F 6E 01 80 45 02 80 F0  FF FF 7F F0 FF FF 7F 62  on..E..........b
0190: 6C 6F 6E 01 80 1B 45 02  80 F0 FF FF 7F F0 FF FF  lon...E.........
01A0: 7F 77 68 69 30 01 80 55  02 80 F0 FF FF 7F F0 FF  .whi0..U........
01B0: FF 7F 77 68 69 30 1B 45  02 80 F0 FF FF 7F F0 FF  ..whi0.E........
01C0: FF 7F 77 68 6F 30 01 80  55 02 80 F0 FF FF 7F F0  ..who0..U.......
01D0: FF FF 7F 77 68 6F 30 1B  45 07 80 F0 FF FF 7F F0  ...who0.E.......
01E0: FF FF 7F 65 66 6F 6E 01  80 55 07 80 F0 FF FF 7F  ...efon..U......
01F0: F0 FF FF 7F 65 66 6F 6E  1B 45 00 80 F0 FF FF 7F  ....efon.E......
0200: F0 FF FF 7F 66 64 69 73  01 80 1B 45 00 80 F0 FF  ....fdis...E....
0210: FF 7F F0 FF FF 7F 66 64  6F 73 01 80 55 00 80 F0  ......fdos..U...
0220: FF FF 7F F0 FF FF 7F 66  64 6F 73 1B 45 00 80 F0  .......fdos.E...
0230: FF FF 7F F0 FF FF 7F 66  64 69 66 01 80 1B 45 00  .......fdif...E.
0240: 80 F0 FF FF 7F F0 FF FF  7F 66 64 6F 66 01 80 55  .........fdof..U
0250: 00 80 F0 FF FF 7F F0 FF  FF 7F 66 64 6F 66 1B 45  ..........fdof.E
0260: 00 80 F0 FF FF 7F F0 FF  FF 7F 66 64 69 70 01 80  ..........fdip..
0270: 1B 45 00 80 F0 FF FF 7F  F0 FF FF 7F 66 64 6F 70  .E..........fdop
0280: 01 80 55 00 80 F0 FF FF  7F F0 FF FF 7F 66 64 6F  ..U..........fdo
0290: 70 1B                                             p.              
```

#### Opcodes

```
  0: 0x0000 [0x00] END_REQSTACK()
```

#### Data or dead code:

```
# Dead code (unreachable instructions):
     0x0001 [0x45] LOAD_SCHEDULED_TASK: Load scheduler "fdi0" with entities [LocalPlayer, LocalPlayer], work=[200*, 0*]
     0x0012 [0x55] WAIT_LOAD_SCHEDULER: Wait for scheduler "fdi0" with entities [LocalPlayer, LocalPlayer], work=200*
     0x0021 [0x1B] RETURN
     0x0022 [0x45] LOAD_SCHEDULED_TASK: Load scheduler "fdo0" with entities [LocalPlayer, LocalPlayer], work=[200*, 0*]
     0x0033 [0x55] WAIT_LOAD_SCHEDULER: Wait for scheduler "fdo0" with entities [LocalPlayer, LocalPlayer], work=200*
     0x0042 [0x1B] RETURN
     0x0043 [0x45] LOAD_SCHEDULED_TASK: Load scheduler "fdi1" with entities [LocalPlayer, LocalPlayer], work=[200*, 0*]
     0x0054 [0x55] WAIT_LOAD_SCHEDULER: Wait for scheduler "fdi1" with entities [LocalPlayer, LocalPlayer], work=200*
     0x0063 [0x1B] RETURN
     0x0064 [0x45] LOAD_SCHEDULED_TASK: Load scheduler "fdo1" with entities [LocalPlayer, LocalPlayer], work=[200*, 0*]
     0x0075 [0x55] WAIT_LOAD_SCHEDULER: Wait for scheduler "fdo1" with entities [LocalPlayer, LocalPlayer], work=200*
     0x0084 [0x1B] RETURN
     0x0085 [0x45] LOAD_SCHEDULED_TASK: Load scheduler "whi1" with entities [LocalPlayer, LocalPlayer], work=[201*, 0*]
     0x0096 [0x55] WAIT_LOAD_SCHEDULER: Wait for scheduler "whi1" with entities [LocalPlayer, LocalPlayer], work=201*
     0x00A5 [0x1B] RETURN
     0x00A6 [0x45] LOAD_SCHEDULED_TASK: Load scheduler "who1" with entities [LocalPlayer, LocalPlayer], work=[201*, 0*]
     0x00B7 [0x55] WAIT_LOAD_SCHEDULER: Wait for scheduler "who1" with entities [LocalPlayer, LocalPlayer], work=201*
     0x00C6 [0x1B] RETURN
     0x00C7 [0x45] LOAD_SCHEDULED_TASK: Load scheduler "who2" with entities [LocalPlayer, LocalPlayer], work=[201*, 0*]
     0x00D8 [0x55] WAIT_LOAD_SCHEDULER: Wait for scheduler "who2" with entities [LocalPlayer, LocalPlayer], work=201*
     0x00E7 [0x1B] RETURN
     0x00E8 [0x45] LOAD_SCHEDULED_TASK: Load scheduler "who3" with entities [LocalPlayer, LocalPlayer], work=[201*, 0*]
     0x00F9 [0x55] WAIT_LOAD_SCHEDULER: Wait for scheduler "who3" with entities [LocalPlayer, LocalPlayer], work=201*
     0x0108 [0x1B] RETURN
     0x0109 [0x62] LOAD_EVENT_SCHEDULER: Load scheduler "main" with entities [LocalPlayer, LocalPlayer], work=[1*, 0*]
     0x011A [0x1C] WAIT(45* ticks)
     0x011D [0x45] LOAD_SCHEDULED_TASK: Load scheduler "fdo1" with entities [LocalPlayer, LocalPlayer], work=[200*, 0*]
     0x012E [0x55] WAIT_LOAD_SCHEDULER: Wait for scheduler "fdo1" with entities [LocalPlayer, LocalPlayer], work=200*
     0x013D [0x1B] RETURN
     0x013E [0x45] LOAD_SCHEDULED_TASK: Load scheduler "fdi1" with entities [LocalPlayer, LocalPlayer], work=[200*, 0*]
     0x014F [0x62] LOAD_EVENT_SCHEDULER: Load scheduler "main" with entities [LocalPlayer, LocalPlayer], work=[2*, 0*]
     0x0160 [0x1C] WAIT(30* ticks)
     0x0163 [0x55] WAIT_LOAD_SCHEDULER: Wait for scheduler "fdi1" with entities [LocalPlayer, LocalPlayer], work=200*
     0x0172 [0x1B] RETURN
     0x0173 [0x45] LOAD_SCHEDULED_TASK: Load scheduler "blon" with entities [LocalPlayer, LocalPlayer], work=[200*, 0*]
     0x0184 [0x45] LOAD_SCHEDULED_TASK: Load scheduler "blon" with entities [LocalPlayer, LocalPlayer], work=[201*, 0*]
     0x0195 [0x1B] RETURN
     0x0196 [0x45] LOAD_SCHEDULED_TASK: Load scheduler "whi0" with entities [LocalPlayer, LocalPlayer], work=[201*, 0*]
     0x01A7 [0x55] WAIT_LOAD_SCHEDULER: Wait for scheduler "whi0" with entities [LocalPlayer, LocalPlayer], work=201*
     0x01B6 [0x1B] RETURN
     0x01B7 [0x45] LOAD_SCHEDULED_TASK: Load scheduler "who0" with entities [LocalPlayer, LocalPlayer], work=[201*, 0*]
     0x01C8 [0x55] WAIT_LOAD_SCHEDULER: Wait for scheduler "who0" with entities [LocalPlayer, LocalPlayer], work=201*
     0x01D7 [0x1B] RETURN
     0x01D8 [0x45] LOAD_SCHEDULED_TASK: Load scheduler "efon" with entities [LocalPlayer, LocalPlayer], work=[215*, 0*]
     0x01E9 [0x55] WAIT_LOAD_SCHEDULER: Wait for scheduler "efon" with entities [LocalPlayer, LocalPlayer], work=215*
     0x01F8 [0x1B] RETURN
     0x01F9 [0x45] LOAD_SCHEDULED_TASK: Load scheduler "fdis" with entities [LocalPlayer, LocalPlayer], work=[200*, 0*]
     0x020A [0x1B] RETURN
     0x020B [0x45] LOAD_SCHEDULED_TASK: Load scheduler "fdos" with entities [LocalPlayer, LocalPlayer], work=[200*, 0*]
     0x021C [0x55] WAIT_LOAD_SCHEDULER: Wait for scheduler "fdos" with entities [LocalPlayer, LocalPlayer], work=200*
     0x022B [0x1B] RETURN
     0x022C [0x45] LOAD_SCHEDULED_TASK: Load scheduler "fdif" with entities [LocalPlayer, LocalPlayer], work=[200*, 0*]
     0x023D [0x1B] RETURN
     0x023E [0x45] LOAD_SCHEDULED_TASK: Load scheduler "fdof" with entities [LocalPlayer, LocalPlayer], work=[200*, 0*]
     0x024F [0x55] WAIT_LOAD_SCHEDULER: Wait for scheduler "fdof" with entities [LocalPlayer, LocalPlayer], work=200*
     0x025E [0x1B] RETURN
     0x025F [0x45] LOAD_SCHEDULED_TASK: Load scheduler "fdip" with entities [LocalPlayer, LocalPlayer], work=[200*, 0*]
     0x0270 [0x1B] RETURN
     0x0271 [0x45] LOAD_SCHEDULED_TASK: Load scheduler "fdop" with entities [LocalPlayer, LocalPlayer], work=[200*, 0*]
     0x0282 [0x55] WAIT_LOAD_SCHEDULER: Wait for scheduler "fdop" with entities [LocalPlayer, LocalPlayer], work=200*
     0x0291 [0x1B] RETURN
```

### Event 29

#### Metadata

| Field        | Value      |
|--------------|------------|
| Entrypoint   | 0x0292     |
| Data Size    | 2086 bytes |
| Instructions | 183        |

```
      00 01 02 03 04 05 06 07  08 09 0A 0B 0C 0D 0E 0F
      -- -- -- -- -- -- -- --  -- -- -- -- -- -- -- --
0290:       42 5D 01 80 08 80  1A 64 00 46 01 38 09 80    B].....d.F.8..
02A0: 2F 00 7C B1 10 01 2F 00  87 B1 10 01 4E 00 7C B1  /.|.../.....N.|.
02B0: 10 01 4E 00 87 B1 10 01  92 01 7C B1 10 01 94 01  ..N.......|.....
02C0: 7C B1 10 01 94 01 F0 FF  FF 7F 94 01 87 B1 10 01  |...............
02D0: 59 05 7C B1 10 01 01 59  05 87 B1 10 01 01 4E 00  Y.|....Y......N.
02E0: F0 FF FF 7F BA F0 FF FF  7F 0A 80 0B 80 0C 80 0D  ................
02F0: 80 BA 7C B1 10 01 0E 80  0F 80 10 80 11 80 BA 87  ..|.............
0300: B1 10 01 0E 80 0F 80 10  80 11 80 80 7C B1 10 01  ............|...
0310: 80 87 B1 10 01 80 F0 FF  FF 7F 1C 06 80 81 00 7C  ...............|
0320: B1 10 01 7C 00 7C B1 10  01 CD 12 80 7C B1 10 01  ...|.|......|...
0330: 7C B1 10 01 00 FE FE FE  01 80 5B 13 80 7C B1 10  |.........[..|..
0340: 01 7C B1 10 01 67 61 6B  30 27 05 F0 FF FF 7F 13  .|...gak0'......
0350: 45 14 80 F8 FF FF 7F F8  FF FF 7F 73 32 33 36 01  E..........s236.
0360: 80 1C 15 80 45 00 80 F0  FF FF 7F F0 FF FF 7F 66  ....E..........f
0370: 64 69 30 01 80 5D 01 80  08 80 1C 16 80 52 14 80  di0..].......R..
0380: F8 FF FF 7F F8 FF FF 7F  73 32 33 36 45 14 80 F8  ........s236E...
0390: FF FF 7F F8 FF FF 7F 73  32 33 37 01 80 1C 16 80  .......s237.....
03A0: 52 14 80 F8 FF FF 7F F8  FF FF 7F 73 32 33 37 45  R..........s237E
03B0: 14 80 F8 FF FF 7F F8 FF  FF 7F 73 31 35 36 01 80  ..........s156..
03C0: 1C 17 80 4A F0 FF FF 7F  7C B1 10 01 1C 18 80 52  ...J....|......R
03D0: 14 80 F8 FF FF 7F F8 FF  FF 7F 73 31 35 36 45 14  ..........s156E.
03E0: 80 F8 FF FF 7F F8 FF FF  7F 30 62 6C 66 01 80 5F  .........0blf.._
03F0: 03 19 80 87 B1 10 01 87  B1 10 01 63 6D 6F 6E 5F  ...........cmon_
0400: 03 19 80 87 B1 10 01 87  B1 10 01 68 6F 65 30 5F  ...........hoe0_
0410: 03 13 80 7C B1 10 01 7C  B1 10 01 68 6F 65 30 CD  ...|...|...hoe0.
0420: 12 80 7C B1 10 01 7C B1  10 01 62 6C 30 30 01 80  ..|...|...bl00..
0430: 45 14 80 F8 FF FF 7F F8  FF FF 7F 68 6F 65 73 01  E..........hoes.
0440: 80 1C 1A 80 7B F0 FF FF  7F BA F0 FF FF 7F 1B 80  ....{...........
0450: 1C 80 1D 80 1E 80 81 01  7C B1 10 01 7C 01 7C B1  ........|...|.|.
0460: 10 01 5F 03 19 80 87 B1  10 01 87 B1 10 01 74 6F  .._...........to
0470: 62 30 5F 03 1F 80 7C B1  10 01 7C B1 10 01 74 6F  b0_...|...|...to
0480: 62 30 1C 20 80 29 10 F0  FF FF 7F 22 5F 03 19 80  b0. .)....."_...
0490: 87 B1 10 01 87 B1 10 01  74 72 69 30 5F 03 21 80  ........tri0_.!.
04A0: 7C B1 10 01 7C B1 10 01  74 72 69 30 CD 12 80 7C  |...|...tri0...|
04B0: B1 10 01 7C B1 10 01 62  6C 30 32 01 80 45 14 80  ...|...bl02..E..
04C0: F8 FF FF 7F F8 FF FF 7F  74 72 69 73 01 80 1C 22  ........tris..."
04D0: 80 BA 87 B1 10 01 23 80  24 80 25 80 11 80 BA 7C  ......#.$.%....|
04E0: B1 10 01 23 80 24 80 25  80 11 80 5F 03 19 80 87  ...#.$.%..._....
04F0: B1 10 01 87 B1 10 01 74  79 6B 30 5F 03 1F 80 7C  .......tyk0_...|
0500: B1 10 01 7C B1 10 01 74  79 6B 30 CD 12 80 7C B1  ...|...tyk0...|.
0510: 10 01 7C B1 10 01 62 6C  30 31 01 80 45 14 80 F8  ..|...bl01..E...
0520: FF FF 7F F8 FF FF 7F 62  6C 31 73 01 80 1C 26 80  .......bl1s...&.
0530: 5F 03 19 80 87 B1 10 01  87 B1 10 01 63 6D 6F 66  _...........cmof
0540: 5F 02 87 B1 10 01 45 14  80 F8 FF FF 7F F8 FF FF  _.....E.........
0550: 7F 73 31 35 37 01 80 29  10 F0 FF FF 7F 23 03 02  .s157..).....#..
0560: 10 27 80 27 10 8F B1 10  01 01 5C 00 28 80 5C 01  .'.'......\.(.\.
0570: 28 80 9A 1C 29 80 5B 1F  80 7C B1 10 01 7C B1 10  (...).[..|...|..
0580: 01 74 79 6B 31 1C 2A 80  52 14 80 F8 FF FF 7F F8  .tyk1.*.R.......
0590: FF FF 7F 73 31 35 37 45  14 80 F8 FF FF 7F F8 FF  ...s157E........
05A0: FF 7F 73 31 35 38 01 80  2A 10 8F B1 10 01 29 10  ..s158..*.....).
05B0: F0 FF FF 7F 24 1C 08 80  52 14 80 F8 FF FF 7F F8  ....$...R.......
05C0: FF FF 7F 73 31 35 38 45  14 80 F8 FF FF 7F F8 FF  ...s158E........
05D0: FF 7F 73 31 35 39 01 80  1C 2B 80 BA F0 FF FF 7F  ..s159...+......
05E0: 2C 80 2D 80 1D 80 2E 80  1C 2F 80 6B 69 64 6C 30  ,.-....../.kidl0
05F0: F0 FF FF 7F 4A F0 FF FF  7F 7C B1 10 01 1C 2A 80  ....J....|....*.
0600: 52 14 80 F8 FF FF 7F F8  FF FF 7F 73 31 35 39 45  R..........s159E
0610: 14 80 F8 FF FF 7F F8 FF  FF 7F 73 31 36 30 01 80  ..........s160..
0620: 81 00 7C B1 10 01 7C 00  7C B1 10 01 5B 21 80 7C  ..|...|.|...[!.|
0630: B1 10 01 7C B1 10 01 66  61 30 31 2B 7C B1 10 01  ...|...fa01+|...
0640: 30 80 23 2B 7C B1 10 01  31 80 23 5B 21 80 7C B1  0.#+|...1.#[!.|.
0650: 10 01 7C B1 10 01 66 61  30 30 03 03 00 32 80 02  ..|...fa00...2..
0660: 03 00 33 80 00 6C 06 03  03 00 34 80 24 35 80 01  ..3..l....4.$5..
0670: 80 03 00 25 02 00 10 01  80 00 F8 07 6E F0 FF FF  ...%........n...
0680: 7F 2F 80 99 F0 FF FF 7F  1C 08 80 52 14 80 F8 FF  ./.........R....
0690: FF 7F F8 FF FF 7F 73 31  36 30 45 14 80 F8 FF FF  ......s160E.....
06A0: 7F F8 FF FF 7F 73 31 36  35 01 80 5B 21 80 7C B1  .....s165..[!.|.
06B0: 10 01 7C B1 10 01 66 61  30 31 2B 7C B1 10 01 36  ..|...fa01+|...6
06C0: 80 23 7B F0 FF FF 7F 2B  7C B1 10 01 37 80 23 5B  .#{....+|...7.#[
06D0: 21 80 7C B1 10 01 7C B1  10 01 66 61 30 30 52 14  !.|...|...fa00R.
06E0: 80 F8 FF FF 7F F8 FF FF  7F 73 31 36 35 02 87 7F  .........s165...
06F0: 38 80 80 09 07 45 14 80  F8 FF FF 7F F8 FF FF 7F  8....E..........
0700: 73 31 36 32 01 80 01 36  07 02 87 7F 39 80 80 25  s162...6....9..%
0710: 07 45 14 80 F8 FF FF 7F  F8 FF FF 7F 73 31 36 32  .E..........s162
0720: 01 80 01 36 07 45 14 80  F8 FF FF 7F F8 FF FF 7F  ...6.E..........
0730: 73 31 36 31 01 80 6E F0  FF FF 7F 3A 80 99 F0 FF  s161..n....:....
0740: FF 7F 1C 2A 80 03 02 10  3B 80 48 3C 80 1C 2A 80  ...*....;.H<..*.
0750: 59 05 7C B1 10 01 00 27  05 7C B1 10 01 0B BA 7C  Y.|....'.|.....|
0760: B1 10 01 23 80 24 80 25  80 3D 80 81 01 7C B1 10  ...#.$.%.=...|..
0770: 01 7C 01 7C B1 10 01 5B  21 80 7C B1 10 01 7C B1  .|.|...[!.|...|.
0780: 10 01 6D 75 6B 30 1C 17  80 79 00 F0 FF FF 7F 7C  ..muk0...y.....|
0790: B1 10 01 52 14 80 F8 FF  FF 7F F8 FF FF 7F 73 31  ...R..........s1
07A0: 36 31 52 14 80 F8 FF FF  7F F8 FF FF 7F 73 31 36  61R..........s16
07B0: 32 45 14 80 F8 FF FF 7F  F8 FF FF 7F 73 31 36 36  2E..........s166
07C0: 01 80 1C 2A 80 2B 7C B1  10 01 3E 80 23 0F 03 00  ...*.+|...>.#...
07D0: 03 80 52 14 80 F8 FF FF  7F F8 FF FF 7F 73 31 36  ..R..........s16
07E0: 36 45 14 80 F8 FF FF 7F  F8 FF FF 7F 73 31 36 37  6E..........s167
07F0: 01 80 01 5F 06 01 3D 0A  02 00 10 03 80 00 D1 08  ..._..=.........
0800: 29 10 F0 FF FF 7F 21 1C  2A 80 52 14 80 F8 FF FF  ).....!.*.R.....
0810: 7F F8 FF FF 7F 73 31 36  30 52 14 80 F8 FF FF 7F  .....s160R......
0820: F8 FF FF 7F 73 31 36 37  02 03 00 32 80 00 44 08  ....s167...2..D.
0830: 45 14 80 F8 FF FF 7F F8  FF FF 7F 73 32 34 33 01  E..........s243.
0840: 80 01 55 08 45 14 80 F8  FF FF 7F F8 FF FF 7F 73  ..U.E..........s
0850: 31 36 38 01 80 5B 21 80  7C B1 10 01 7C B1 10 01  168..[!.|...|...
0860: 66 61 30 31 2B 7C B1 10  01 3F 80 23 5B 21 80 7C  fa01+|...?.#[!.|
0870: B1 10 01 7C B1 10 01 66  61 30 30 0F 03 00 05 80  ...|...fa00.....
0880: 52 14 80 F8 FF FF 7F F8  FF FF 7F 73 32 34 33 52  R..........s243R
0890: 14 80 F8 FF FF 7F F8 FF  FF 7F 73 31 36 38 02 03  ..........s168..
08A0: 00 33 80 00 BA 08 45 14  80 F8 FF FF 7F F8 FF FF  .3....E.........
08B0: 7F 73 31 36 37 01 80 01  CB 08 45 14 80 F8 FF FF  .s167.....E.....
08C0: 7F F8 FF FF 7F 73 31 36  30 01 80 01 5F 06 01 3D  .....s160..._..=
08D0: 0A 02 00 10 05 80 00 3D  0A 29 10 F0 FF FF 7F 21  .......=.).....!
08E0: 1C 2A 80 52 14 80 F8 FF  FF 7F F8 FF FF 7F 73 31  .*.R..........s1
08F0: 36 30 52 14 80 F8 FF FF  7F F8 FF FF 7F 73 31 36  60R..........s16
0900: 37 45 14 80 F8 FF FF 7F  F8 FF FF 7F 73 31 37 31  7E..........s171
0910: 01 80 5D 01 80 2A 80 5B  21 80 7C B1 10 01 7C B1  ..]..*.[!.|...|.
0920: 10 01 66 30 30 31 2B 7C  B1 10 01 40 80 23 52 14  ..f001+|...@.#R.
0930: 80 F8 FF FF 7F F8 FF FF  7F 73 31 37 31 45 14 80  .........s171E..
0940: F8 FF FF 7F F8 FF FF 7F  73 31 37 32 01 80 2B 7C  ........s172..+|
0950: B1 10 01 41 80 23 2B 7C  B1 10 01 42 80 23 5B 21  ...A.#+|...B.#[!
0960: 80 7C B1 10 01 7C B1 10  01 74 68 6B 30 1C 15 80  .|...|...thk0...
0970: 52 14 80 F8 FF FF 7F F8  FF FF 7F 73 31 37 32 45  R..........s172E
0980: 14 80 F8 FF FF 7F F8 FF  FF 7F 73 31 37 33 01 80  ..........s173..
0990: 2B 7C B1 10 01 43 80 23  5C 00 44 80 5C 01 44 80  +|...C.#\.D.\.D.
09A0: 9A 5B 21 80 7C B1 10 01  7C B1 10 01 74 68 6B 31  .[!.|...|...thk1
09B0: 1C 15 80 52 14 80 F8 FF  FF 7F F8 FF FF 7F 73 31  ...R..........s1
09C0: 37 33 45 14 80 F8 FF FF  7F F8 FF FF 7F 73 31 37  73E..........s17
09D0: 34 01 80 2B 7C B1 10 01  45 80 23 5B 21 80 7C B1  4..+|...E.#[!.|.
09E0: 10 01 7C B1 10 01 66 61  30 30 52 14 80 F8 FF FF  ..|...fa00R.....
09F0: 7F F8 FF FF 7F 73 31 37  34 45 14 80 F8 FF FF 7F  .....s174E......
0A00: F8 FF FF 7F 73 32 34 32  01 80 1C 18 80 27 10 7C  ....s242.....'.|
0A10: B1 10 01 11 1C 2F 80 52  14 80 F8 FF FF 7F F8 FF  ...../.R........
0A20: FF 7F 73 32 34 32 45 14  80 F8 FF FF 7F F8 FF FF  ..s242E.........
0A30: 7F 73 31 36 33 01 80 1C  2A 80 01 3D 0A 52 14 80  .s163...*..=.R..
0A40: F8 FF FF 7F F8 FF FF 7F  73 31 36 33 45 14 80 F8  ........s163E...
0A50: FF FF 7F F8 FF FF 7F 73  32 34 31 01 80 1C 2A 80  .......s241...*.
0A60: 6E F0 FF FF 7F 46 80 99  F0 FF FF 7F 1C 29 80 1A  n....F.......)..
0A70: 64 00 52 14 80 F8 FF FF  7F F8 FF FF 7F 73 32 34  d.R..........s24
0A80: 31 45 14 80 F8 FF FF 7F  F8 FF FF 7F 30 62 6C 66  1E..........0blf
0A90: 01 80 27 05 7C B1 10 01  0C 1C 15 80 AB 11 01 80  ..'.|...........
0AA0: 1C 03 80 46 00 45 00 80  F0 FF FF 7F F0 FF FF 7F  ...F.E..........
0AB0: 66 64 69 32 01 80 21 00                           fdi2..!.        
```

#### Opcodes

```
  0: 0x0292 [0x42] SET_CLI_EVENT_CANCEL_DATA()
  1: 0x0293 [0x5D] SET_MUSIC_VOLUME(volume=0*, fade_time=120*)
  2: 0x0298 [0x1A] CALL_SUBROUTINE(address=0x0064)
  3: 0x029B [0x46] CAMERA_CONTROL: Disable user control
  4: 0x029D [0x38] SET_CLIENT_EVENT_MODE(mode=147*)
  5: 0x02A0 [0x2F] Unnamed NPC (ID: 17871228/0x0110B17C)->Render.Flags0 &= ~0x80000 // Bit 19
  6: 0x02A6 [0x2F] Unnamed NPC (ID: 17871239/0x0110B187)->Render.Flags0 &= ~0x80000 // Bit 19
  7: 0x02AC [0x4E] SET_ENTITY_HIDE_FLAG: Show Unnamed NPC (ID: 17871228/0x0110B17C)
  8: 0x02B2 [0x4E] SET_ENTITY_HIDE_FLAG: Show Unnamed NPC (ID: 17871239/0x0110B187)
  9: 0x02B8 [0x92] Unnamed NPC (ID: 17871228/0x0110B17C)->Render.Flags3 ^= 0x01
 10: 0x02BE [0x94] Unnamed NPC (ID: 17871228/0x0110B17C)->Render.Flags3 ^= 0x01
 11: 0x02C4 [0x94] LocalPlayer->Render.Flags3 ^= 0x01
 12: 0x02CA [0x94] Unnamed NPC (ID: 17871239/0x0110B187)->Render.Flags3 ^= 0x01
 13: 0x02D0 [0x59] UPDATE_ENTITY_DATA: Unnamed NPC (ID: 17871228/0x0110B17C)->Render.Flags0 |= 0x200000
 14: 0x02D7 [0x59] UPDATE_ENTITY_DATA: Unnamed NPC (ID: 17871239/0x0110B187)->Render.Flags0 |= 0x200000
 15: 0x02DE [0x4E] SET_ENTITY_HIDE_FLAG: Show LocalPlayer
 16: 0x02E4 [0xBA] SET_ENTITY_POSITION(entity_id=LocalPlayer, pos_x=404.312*, pos_z=-405.935*, pos_y=60.323*, direction=27.9*)
 17: 0x02F1 [0xBA] SET_ENTITY_POSITION(entity_id=Unnamed NPC (ID: 17871228/0x0110B17C), pos_x=415.497*, pos_z=-416.089*, pos_y=45.427*, direction=90.0*)
 18: 0x02FE [0xBA] SET_ENTITY_POSITION(entity_id=Unnamed NPC (ID: 17871239/0x0110B187), pos_x=415.497*, pos_z=-416.089*, pos_y=45.427*, direction=90.0*)
 19: 0x030B [0x80] LOAD_WAIT(entity=Unnamed NPC (ID: 17871228/0x0110B17C))
 20: 0x0310 [0x80] LOAD_WAIT(entity=Unnamed NPC (ID: 17871239/0x0110B187))
 21: 0x0315 [0x80] LOAD_WAIT(entity=LocalPlayer)
 22: 0x031A [0x1C] WAIT(30* ticks)
 23: 0x031D [0x81] SET_ENTITY_BLINKING(blink_flag=0x00, entity=Unnamed NPC (ID: 17871228/0x0110B17C))
 24: 0x0323 [0x7C] Unnamed NPC (ID: 17871228/0x0110B17C)->Render.Flags2 |= 0x00
 25: 0x0329 [0xCD] LOAD_SCHEDULED_TASK_ALT4: Load scheduler 0xFEFEFE00 with entities [Unnamed NPC (ID: 17871228/0x0110B17C), Unnamed NPC (ID: 17871228/0x0110B17C)], work=[183*, 0*]
 26: 0x033A [0x5B] LOAD_EXT_SCHEDULER: Load scheduler "gak0" with entities [Unnamed NPC (ID: 17871228/0x0110B17C), Unnamed NPC (ID: 17871228/0x0110B17C)], work=3413*
 27: 0x0349 [0x27] REQ_SET(priority=0x05, entity_id=LocalPlayer, tag_num=0x13)
 28: 0x0350 [0x45] LOAD_SCHEDULED_TASK: Load scheduler "s236" with entities [EventEntity, EventEntity], work=[629*, 0*]
 29: 0x0361 [0x1C] WAIT(15* ticks)
 30: 0x0364 [0x45] LOAD_SCHEDULED_TASK: Load scheduler "fdi0" with entities [LocalPlayer, LocalPlayer], work=[200*, 0*]
 31: 0x0375 [0x5D] SET_MUSIC_VOLUME(volume=0*, fade_time=120*)
 32: 0x037A [0x1C] WAIT(150* ticks)
 33: 0x037D [0x52] END_LOAD_SCHEDULER: End scheduler "s236" with entities [EventEntity, EventEntity], work=629*
 34: 0x038C [0x45] LOAD_SCHEDULED_TASK: Load scheduler "s237" with entities [EventEntity, EventEntity], work=[629*, 0*]
 35: 0x039D [0x1C] WAIT(150* ticks)
 36: 0x03A0 [0x52] END_LOAD_SCHEDULER: End scheduler "s237" with entities [EventEntity, EventEntity], work=629*
 37: 0x03AF [0x45] LOAD_SCHEDULED_TASK: Load scheduler "s156" with entities [EventEntity, EventEntity], work=[629*, 0*]
 38: 0x03C0 [0x1C] WAIT(20* ticks)
 39: 0x03C3 [0x4A] LocalPlayer looks at Unnamed NPC (ID: 17871228/0x0110B17C)
 40: 0x03CC [0x1C] WAIT(180* ticks)
 41: 0x03CF [0x52] END_LOAD_SCHEDULER: End scheduler "s156" with entities [EventEntity, EventEntity], work=629*
 42: 0x03DE [0x45] LOAD_SCHEDULED_TASK: Load scheduler "0blf" with entities [EventEntity, EventEntity], work=[629*, 0*]
 43: 0x03EF [0x5F] MULTI_HANDLER_COMPLEX(mode=0x03 - Load ext scheduler (OpCode 0x5B mode 0), ref=3430*, entity1=Unnamed NPC (ID: 17871239/0x0110B187), entity2=Unnamed NPC (ID: 17871239/0x0110B187), string="cmon")
 44: 0x03FF [0x5F] MULTI_HANDLER_COMPLEX(mode=0x03 - Load ext scheduler (OpCode 0x5B mode 0), ref=3430*, entity1=Unnamed NPC (ID: 17871239/0x0110B187), entity2=Unnamed NPC (ID: 17871239/0x0110B187), string="hoe0")
 45: 0x040F [0x5F] MULTI_HANDLER_COMPLEX(mode=0x03 - Load ext scheduler (OpCode 0x5B mode 0), ref=3413*, entity1=Unnamed NPC (ID: 17871228/0x0110B17C), entity2=Unnamed NPC (ID: 17871228/0x0110B17C), string="hoe0")
 46: 0x041F [0xCD] LOAD_SCHEDULED_TASK_ALT4: Load scheduler "bl00" with entities [Unnamed NPC (ID: 17871228/0x0110B17C), Unnamed NPC (ID: 17871228/0x0110B17C)], work=[183*, 0*]
 47: 0x0430 [0x45] LOAD_SCHEDULED_TASK: Load scheduler "hoes" with entities [EventEntity, EventEntity], work=[629*, 0*]
 48: 0x0441 [0x1C] WAIT(360* ticks)
 49: 0x0444 [0x7B] LocalPlayer stops talking
 50: 0x0449 [0xBA] SET_ENTITY_POSITION(entity_id=LocalPlayer, pos_x=408.341*, pos_z=-410.263*, pos_y=59.999*, direction=221.7*)
 51: 0x0456 [0x81] SET_ENTITY_BLINKING(blink_flag=0x01, entity=Unnamed NPC (ID: 17871228/0x0110B17C))
 52: 0x045C [0x7C] Unnamed NPC (ID: 17871228/0x0110B17C)->Render.Flags2 |= 0x01
 53: 0x0462 [0x5F] MULTI_HANDLER_COMPLEX(mode=0x03 - Load ext scheduler (OpCode 0x5B mode 0), ref=3430*, entity1=Unnamed NPC (ID: 17871239/0x0110B187), entity2=Unnamed NPC (ID: 17871239/0x0110B187), string="tob0")
 54: 0x0472 [0x5F] MULTI_HANDLER_COMPLEX(mode=0x03 - Load ext scheduler (OpCode 0x5B mode 0), ref=3414*, entity1=Unnamed NPC (ID: 17871228/0x0110B17C), entity2=Unnamed NPC (ID: 17871228/0x0110B17C), string="tob0")
 55: 0x0482 [0x1C] WAIT(80* ticks)
 56: 0x0485 [0x29] REQ_SET_WAIT(priority=0x10, entity_id=LocalPlayer, tag_num=0x22)
 57: 0x048C [0x5F] MULTI_HANDLER_COMPLEX(mode=0x03 - Load ext scheduler (OpCode 0x5B mode 0), ref=3430*, entity1=Unnamed NPC (ID: 17871239/0x0110B187), entity2=Unnamed NPC (ID: 17871239/0x0110B187), string="tri0")
 58: 0x049C [0x5F] MULTI_HANDLER_COMPLEX(mode=0x03 - Load ext scheduler (OpCode 0x5B mode 0), ref=3412*, entity1=Unnamed NPC (ID: 17871228/0x0110B17C), entity2=Unnamed NPC (ID: 17871228/0x0110B17C), string="tri0")
 59: 0x04AC [0xCD] LOAD_SCHEDULED_TASK_ALT4: Load scheduler "bl02" with entities [Unnamed NPC (ID: 17871228/0x0110B17C), Unnamed NPC (ID: 17871228/0x0110B17C)], work=[183*, 0*]
 60: 0x04BD [0x45] LOAD_SCHEDULED_TASK: Load scheduler "tris" with entities [EventEntity, EventEntity], work=[629*, 0*]
 61: 0x04CE [0x1C] WAIT(100* ticks)
 62: 0x04D1 [0xBA] SET_ENTITY_POSITION(entity_id=Unnamed NPC (ID: 17871239/0x0110B187), pos_x=405.506*, pos_z=-406.119*, pos_y=60.296*, direction=90.0*)
 63: 0x04DE [0xBA] SET_ENTITY_POSITION(entity_id=Unnamed NPC (ID: 17871228/0x0110B17C), pos_x=405.506*, pos_z=-406.119*, pos_y=60.296*, direction=90.0*)
 64: 0x04EB [0x5F] MULTI_HANDLER_COMPLEX(mode=0x03 - Load ext scheduler (OpCode 0x5B mode 0), ref=3430*, entity1=Unnamed NPC (ID: 17871239/0x0110B187), entity2=Unnamed NPC (ID: 17871239/0x0110B187), string="tyk0")
 65: 0x04FB [0x5F] MULTI_HANDLER_COMPLEX(mode=0x03 - Load ext scheduler (OpCode 0x5B mode 0), ref=3414*, entity1=Unnamed NPC (ID: 17871228/0x0110B17C), entity2=Unnamed NPC (ID: 17871228/0x0110B17C), string="tyk0")
 66: 0x050B [0xCD] LOAD_SCHEDULED_TASK_ALT4: Load scheduler "bl01" with entities [Unnamed NPC (ID: 17871228/0x0110B17C), Unnamed NPC (ID: 17871228/0x0110B17C)], work=[183*, 0*]
 67: 0x051C [0x45] LOAD_SCHEDULED_TASK: Load scheduler "bl1s" with entities [EventEntity, EventEntity], work=[629*, 0*]
 68: 0x052D [0x1C] WAIT(260* ticks)
 69: 0x0530 [0x5F] MULTI_HANDLER_COMPLEX(mode=0x03 - Load ext scheduler (OpCode 0x5B mode 0), ref=3430*, entity1=Unnamed NPC (ID: 17871239/0x0110B187), entity2=Unnamed NPC (ID: 17871239/0x0110B187), string="cmof")
 70: 0x0540 [0x5F] MULTI_HANDLER_COMPLEX(mode=0x02 - Kill entity action (OpCode 0xC1))
 71: 0x0546 [0x45] LOAD_SCHEDULED_TASK: Load scheduler "s157" with entities [EventEntity, EventEntity], work=[629*, 0*]
 72: 0x0557 [0x29] REQ_SET_WAIT(priority=0x10, entity_id=LocalPlayer, tag_num=0x23)
 73: 0x055E [0x03] Work_Zone[2] = 210*
 74: 0x0563 [0x27] REQ_SET(priority=0x10, entity_id=??? (ID: 17871247/0x0110B18F), tag_num=0x01)
 75: 0x056A [0x5C] MUSIC_CONTROL: Set Idle (Day) music to song 62*
 76: 0x056E [0x5C] MUSIC_CONTROL: Set Idle (Night) music to song 62*
 77: 0x0572 [0x9A] WAIT_MUSIC_SERVER()
 78: 0x0573 [0x1C] WAIT(90* ticks)
 79: 0x0576 [0x5B] LOAD_EXT_SCHEDULER: Load scheduler "tyk1" with entities [Unnamed NPC (ID: 17871228/0x0110B17C), Unnamed NPC (ID: 17871228/0x0110B17C)], work=3414*
 80: 0x0585 [0x1C] WAIT(60* ticks)
 81: 0x0588 [0x52] END_LOAD_SCHEDULER: End scheduler "s157" with entities [EventEntity, EventEntity], work=629*
 82: 0x0597 [0x45] LOAD_SCHEDULED_TASK: Load scheduler "s158" with entities [EventEntity, EventEntity], work=[629*, 0*]
 83: 0x05A8 [0x2A] GET_REQ_LEVEL(level=16, entity_id=??? (ID: 17871247/0x0110B18F))
 84: 0x05AE [0x29] REQ_SET_WAIT(priority=0x10, entity_id=LocalPlayer, tag_num=0x24)
 85: 0x05B5 [0x1C] WAIT(120* ticks)
 86: 0x05B8 [0x52] END_LOAD_SCHEDULER: End scheduler "s158" with entities [EventEntity, EventEntity], work=629*
 87: 0x05C7 [0x45] LOAD_SCHEDULED_TASK: Load scheduler "s159" with entities [EventEntity, EventEntity], work=[629*, 0*]
 88: 0x05D8 [0x1C] WAIT(50* ticks)
 89: 0x05DB [0xBA] SET_ENTITY_POSITION(entity_id=LocalPlayer, pos_x=408.910*, pos_z=-411.318*, pos_y=59.999*, direction=235.7*)
 90: 0x05E8 [0x1C] WAIT(10* ticks)
 91: 0x05EB [0x6B] STOP_AND_IDLE: LocalPlayer stops current action and resets to idle (animation="idl0")
 92: 0x05F4 [0x4A] LocalPlayer looks at Unnamed NPC (ID: 17871228/0x0110B17C)
 93: 0x05FD [0x1C] WAIT(60* ticks)
 94: 0x0600 [0x52] END_LOAD_SCHEDULER: End scheduler "s159" with entities [EventEntity, EventEntity], work=629*
 95: 0x060F [0x45] LOAD_SCHEDULED_TASK: Load scheduler "s160" with entities [EventEntity, EventEntity], work=[629*, 0*]
 96: 0x0620 [0x81] SET_ENTITY_BLINKING(blink_flag=0x00, entity=Unnamed NPC (ID: 17871228/0x0110B17C))
 97: 0x0626 [0x7C] Unnamed NPC (ID: 17871228/0x0110B17C)->Render.Flags2 |= 0x00
 98: 0x062C [0x5B] LOAD_EXT_SCHEDULER: Load scheduler "fa01" with entities [Unnamed NPC (ID: 17871228/0x0110B17C), Unnamed NPC (ID: 17871228/0x0110B17C)], work=3412*
 99: 0x063B [0x2B] Unnamed NPC (ID: 17871228/0x0110B17C) [7866*]:
     "Silence that infernal racket!"
100: 0x0642 [0x23] WAIT_FOR_DIALOG_INTERACTION
101: 0x0643 [0x2B] Unnamed NPC (ID: 17871228/0x0110B17C) [7867*]:
     "What business have you in my domain? Think before you speak, <growl> for your life will be forfeit depending on your response."
102: 0x064A [0x23] WAIT_FOR_DIALOG_INTERACTION
103: 0x064B [0x5B] LOAD_EXT_SCHEDULER: Load scheduler "fa00" with entities [Unnamed NPC (ID: 17871228/0x0110B17C), Unnamed NPC (ID: 17871228/0x0110B17C)], work=3412*
104: 0x065A [0x03] ExtData[1]->WorkLocal[3] = 4*
105: 0x065F [0x02] IF !(ExtData[1]->WorkLocal[3] == 7*) GOTO 0x066C
106: 0x0667 [0x03] ExtData[1]->WorkLocal[3] = 3*
107: 0x066C [0x24] CREATE_DIALOG(message_id=7868*, default_option=0*, option_flags=ExtData[1]->WorkLocal[3])
     "What business do you have? [Please, I mean you no harm./Tell me about the golden tiger./Do you know where they took Arciela?]"
108: 0x0673 [0x25] WAIT_DIALOG_SELECT()
109: 0x0674 [0x02] IF !(Work_Zone[0] == 0*) GOTO 0x07F8
110: 0x067C [0x6E] LocalPlayer uses emote 10*
111: 0x0683 [0x99] Wait for LocalPlayer animation to complete
112: 0x0688 [0x1C] WAIT(120* ticks)
113: 0x068B [0x52] END_LOAD_SCHEDULER: End scheduler "s160" with entities [EventEntity, EventEntity], work=629*
114: 0x069A [0x45] LOAD_SCHEDULED_TASK: Load scheduler "s165" with entities [EventEntity, EventEntity], work=[629*, 0*]
115: 0x06AB [0x5B] LOAD_EXT_SCHEDULER: Load scheduler "fa01" with entities [Unnamed NPC (ID: 17871228/0x0110B17C), Unnamed NPC (ID: 17871228/0x0110B17C)], work=3412*
116: 0x06BA [0x2B] Unnamed NPC (ID: 17871228/0x0110B17C) [7869*]:
     "Is that so? What then is that <growl> cacophonous device?"
117: 0x06C1 [0x23] WAIT_FOR_DIALOG_INTERACTION
118: 0x06C2 [0x7B] LocalPlayer stops talking
119: 0x06C7 [0x2B] Unnamed NPC (ID: 17871228/0x0110B17C) [7870*]:
     "Ugh, my ears still ring from the horrible discord it produces. If you truly mean me no harm, you will <growl> dispose of that thing immediately...or else."
120: 0x06CE [0x23] WAIT_FOR_DIALOG_INTERACTION
121: 0x06CF [0x5B] LOAD_EXT_SCHEDULER: Load scheduler "fa00" with entities [Unnamed NPC (ID: 17871228/0x0110B17C), Unnamed NPC (ID: 17871228/0x0110B17C)], work=3412*
122: 0x06DE [0x52] END_LOAD_SCHEDULER: End scheduler "s165" with entities [EventEntity, EventEntity], work=629*
123: 0x06ED [0x02] IF !(LocalPlayer->Race == 5*) GOTO 0x0709
124: 0x06F5 [0x45] LOAD_SCHEDULED_TASK: Load scheduler "s162" with entities [EventEntity, EventEntity], work=[629*, 0*]
125: 0x0706 [0x01] GOTO 0x0736
126: 0x0709 [0x02] IF !(LocalPlayer->Race == 6*) GOTO 0x0725
127: 0x0711 [0x45] LOAD_SCHEDULED_TASK: Load scheduler "s162" with entities [EventEntity, EventEntity], work=[629*, 0*]
128: 0x0722 [0x01] GOTO 0x0736
129: 0x0725 [0x45] LOAD_SCHEDULED_TASK: Load scheduler "s161" with entities [EventEntity, EventEntity], work=[629*, 0*]

SUBROUTINE_0736:
130: 0x0736 [0x6E] LocalPlayer uses emote 44*
131: 0x073D [0x99] Wait for LocalPlayer animation to complete
132: 0x0742 [0x1C] WAIT(60* ticks)
133: 0x0745 [0x03] Work_Zone[2] = 2460*
134: 0x074A [0x48] [System] [7871*]:
     "You hurriedly discard the $3."
135: 0x074D [0x1C] WAIT(60* ticks)
136: 0x0750 [0x59] UPDATE_ENTITY_DATA: Unnamed NPC (ID: 17871228/0x0110B17C)->Render.Flags0 &= ~0x200000
137: 0x0757 [0x27] REQ_SET(priority=0x05, entity_id=Unnamed NPC (ID: 17871228/0x0110B17C), tag_num=0x0B)
138: 0x075E [0xBA] SET_ENTITY_POSITION(entity_id=Unnamed NPC (ID: 17871228/0x0110B17C), pos_x=405.506*, pos_z=-406.119*, pos_y=60.296*, direction=60.7*)
139: 0x076B [0x81] SET_ENTITY_BLINKING(blink_flag=0x01, entity=Unnamed NPC (ID: 17871228/0x0110B17C))
140: 0x0771 [0x7C] Unnamed NPC (ID: 17871228/0x0110B17C)->Render.Flags2 |= 0x01
141: 0x0777 [0x5B] LOAD_EXT_SCHEDULER: Load scheduler "muk0" with entities [Unnamed NPC (ID: 17871228/0x0110B17C), Unnamed NPC (ID: 17871228/0x0110B17C)], work=3412*
142: 0x0786 [0x1C] WAIT(20* ticks)
143: 0x0789 [0x79] LocalPlayer looks at Unnamed NPC (ID: 17871228/0x0110B17C) (Basic look)
144: 0x0793 [0x52] END_LOAD_SCHEDULER: End scheduler "s161" with entities [EventEntity, EventEntity], work=629*
145: 0x07A2 [0x52] END_LOAD_SCHEDULER: End scheduler "s162" with entities [EventEntity, EventEntity], work=629*
146: 0x07B1 [0x45] LOAD_SCHEDULED_TASK: Load scheduler "s166" with entities [EventEntity, EventEntity], work=[629*, 0*]
147: 0x07C2 [0x1C] WAIT(60* ticks)
148: 0x07C5 [0x2B] Unnamed NPC (ID: 17871228/0x0110B17C) [7872*]:
     "Let me guess, you had no idea how <growl> loathsome that contraption was? Your panicked manner gave it away. What an interesting stratagem. I must praise whomever outfitted you with that bell."
149: 0x07CC [0x23] WAIT_FOR_DIALOG_INTERACTION
150: 0x07CD [0x0F] ExtData[1]->WorkLocal[3] ^= 1*
151: 0x07D2 [0x52] END_LOAD_SCHEDULER: End scheduler "s166" with entities [EventEntity, EventEntity], work=629*
152: 0x07E1 [0x45] LOAD_SCHEDULED_TASK: Load scheduler "s167" with entities [EventEntity, EventEntity], work=[629*, 0*]
153: 0x07F2 [0x01] GOTO 0x065F

SUBROUTINE_0855:
154: 0x0855 [0x5B] LOAD_EXT_SCHEDULER: Load scheduler "fa01" with entities [Unnamed NPC (ID: 17871228/0x0110B17C), Unnamed NPC (ID: 17871228/0x0110B17C)], work=3412*
155: 0x0864 [0x2B] Unnamed NPC (ID: 17871228/0x0110B17C) [7873*]:
     "Such trivial topics are beneath me."
156: 0x086B [0x23] WAIT_FOR_DIALOG_INTERACTION
157: 0x086C [0x5B] LOAD_EXT_SCHEDULER: Load scheduler "fa00" with entities [Unnamed NPC (ID: 17871228/0x0110B17C), Unnamed NPC (ID: 17871228/0x0110B17C)], work=3412*
158: 0x087B [0x0F] ExtData[1]->WorkLocal[3] ^= 2*
159: 0x0880 [0x52] END_LOAD_SCHEDULER: End scheduler "s243" with entities [EventEntity, EventEntity], work=629*
160: 0x088F [0x52] END_LOAD_SCHEDULER: End scheduler "s168" with entities [EventEntity, EventEntity], work=629*
161: 0x089E [0x02] IF !(ExtData[1]->WorkLocal[3] == 7*) GOTO 0x08BA
162: 0x08A6 [0x45] LOAD_SCHEDULED_TASK: Load scheduler "s167" with entities [EventEntity, EventEntity], work=[629*, 0*]
163: 0x08B7 [0x01] GOTO 0x08CB
164: 0x08BA [0x45] LOAD_SCHEDULED_TASK: Load scheduler "s160" with entities [EventEntity, EventEntity], work=[629*, 0*]

SUBROUTINE_08CB:
165: 0x08CB [0x01] GOTO 0x065F

SUBROUTINE_0A3D:
166: 0x0A3D [0x52] END_LOAD_SCHEDULER: End scheduler "s163" with entities [EventEntity, EventEntity], work=629*
167: 0x0A4C [0x45] LOAD_SCHEDULED_TASK: Load scheduler "s241" with entities [EventEntity, EventEntity], work=[629*, 0*]
168: 0x0A5D [0x1C] WAIT(60* ticks)
169: 0x0A60 [0x6E] LocalPlayer uses emote 19*
170: 0x0A67 [0x99] Wait for LocalPlayer animation to complete
171: 0x0A6C [0x1C] WAIT(90* ticks)
172: 0x0A6F [0x1A] CALL_SUBROUTINE(address=0x0064)
173: 0x0A72 [0x52] END_LOAD_SCHEDULER: End scheduler "s241" with entities [EventEntity, EventEntity], work=629*
174: 0x0A81 [0x45] LOAD_SCHEDULED_TASK: Load scheduler "0blf" with entities [EventEntity, EventEntity], work=[629*, 0*]
175: 0x0A92 [0x27] REQ_SET(priority=0x05, entity_id=Unnamed NPC (ID: 17871228/0x0110B17C), tag_num=0x0C)
176: 0x0A99 [0x1C] WAIT(15* ticks)
177: 0x0A9C [0xAB] EventEntity->DespawnValue = 0* // Set despawn value
178: 0x0AA0 [0x1C] WAIT(1* ticks)
179: 0x0AA3 [0x46] CAMERA_CONTROL: Restore default settings
180: 0x0AA5 [0x45] LOAD_SCHEDULED_TASK: Load scheduler "fdi2" with entities [LocalPlayer, LocalPlayer], work=[200*, 0*]
181: 0x0AB6 [0x21] END_EVENT
182: 0x0AB7 [0x00] END_REQSTACK()
```

#### Data or dead code:

```
# Dead code (unreachable instructions):
     0x07F5 [0x01] GOTO 0x0A3D
# Dead code (unreachable instructions):
     0x08CE [0x01] GOTO 0x0A3D
```

### Event 30

#### Metadata

| Field        | Value      |
|--------------|------------|
| Entrypoint   | 0x0AB8     |
| Data Size    | 1641 bytes |
| Instructions | 194        |

```
      00 01 02 03 04 05 06 07  08 09 0A 0B 0C 0D 0E 0F
      -- -- -- -- -- -- -- --  -- -- -- -- -- -- -- --
0AB0:                          42 1A 64 00 03 01 00 02          B.d.....
0AC0: 10 46 01 38 09 80 2F 00  7B B1 10 01 2F 00 87 B1  .F.8../.{.../...
0AD0: 10 01 2F 00 7C B1 10 01  2F 00 7D B1 10 01 2F 00  ../.|.../.}.../.
0AE0: 82 B1 10 01 2F 00 83 B1  10 01 4E 00 7B B1 10 01  ..../.....N.{...
0AF0: 4E 00 87 B1 10 01 4E 00  7D B1 10 01 4E 00 F0 FF  N.....N.}...N...
0B00: FF 7F 92 01 7B B1 10 01  92 01 7C B1 10 01 92 01  ....{.....|.....
0B10: 7D B1 10 01 92 01 82 B1  10 01 92 01 83 B1 10 01  }...............
0B20: 94 01 F0 FF FF 7F 94 01  7B B1 10 01 94 01 7C B1  ........{.....|.
0B30: 10 01 94 01 7D B1 10 01  94 01 82 B1 10 01 94 01  ....}...........
0B40: 83 B1 10 01 94 01 87 B1  10 01 59 05 87 B1 10 01  ..........Y.....
0B50: 01 59 05 7C B1 10 01 01  BA F0 FF FF 7F 47 80 48  .Y.|.........G.H
0B60: 80 49 80 4A 80 BA 87 B1  10 01 4B 80 4C 80 4D 80  .I.J......K.L.M.
0B70: 11 80 BA 7B B1 10 01 4B  80 4C 80 4D 80 11 80 BA  ...{...K.L.M....
0B80: 7C B1 10 01 4E 80 4F 80  50 80 51 80 BA 7D B1 10  |...N.O.P.Q..}..
0B90: 01 4B 80 4C 80 4D 80 11  80 BA 82 B1 10 01 52 80  .K.L.M........R.
0BA0: 53 80 54 80 55 80 BA 83  B1 10 01 56 80 57 80 58  S.T.U......V.W.X
0BB0: 80 55 80 80 87 B1 10 01  80 F0 FF FF 7F 80 7B B1  .U............{.
0BC0: 10 01 80 7D B1 10 01 1C  06 80 2C 7B B1 10 01 7B  ...}......,{...{
0BD0: B1 10 01 77 34 6F 6E 2C  7B B1 10 01 7B B1 10 01  ...w4on,{...{...
0BE0: 77 33 6F 66 81 00 7D B1  10 01 81 00 7C B1 10 01  w3of..}.....|...
0BF0: 81 00 7B B1 10 01 7C 00  7B B1 10 01 5B 59 80 7D  ..{...|.{...[Y.}
0C00: B1 10 01 7D B1 10 01 79  72 69 30 5B 5A 80 7B B1  ...}...yri0[Z.{.
0C10: 10 01 7B B1 10 01 6D 61  6B 30 45 5B 80 F8 FF FF  ..{...mak0E[....
0C20: 7F F8 FF FF 7F 73 31 34  32 01 80 1A 43 00 45 5B  .....s142...C.E[
0C30: 80 F8 FF FF 7F F8 FF FF  7F 70 6F 74 61 01 80 1C  .........pota...
0C40: 5C 80 52 5B 80 F8 FF FF  7F F8 FF FF 7F 73 31 34  \.R[.........s14
0C50: 32 45 5B 80 F8 FF FF 7F  F8 FF FF 7F 73 31 34 33  2E[.........s143
0C60: 01 80 1C 18 80 52 5B 80  F8 FF FF 7F F8 FF FF 7F  .....R[.........
0C70: 73 31 34 33 45 5B 80 F8  FF FF 7F F8 FF FF 7F 73  s143E[.........s
0C80: 31 34 34 01 80 1C 18 80  27 05 F0 FF FF 7F 14 1C  144.....'.......
0C90: 17 80 52 5B 80 F8 FF FF  7F F8 FF FF 7F 73 31 34  ..R[.........s14
0CA0: 34 45 5B 80 F8 FF FF 7F  F8 FF FF 7F 73 31 34 35  4E[.........s145
0CB0: 01 80 1C 18 80 5B 59 80  7D B1 10 01 7D B1 10 01  .....[Y.}...}...
0CC0: 79 72 69 31 5B 5A 80 7B  B1 10 01 7B B1 10 01 6D  yri1[Z.{...{...m
0CD0: 61 6B 31 52 5B 80 F8 FF  FF 7F F8 FF FF 7F 73 31  ak1R[.........s1
0CE0: 34 35 45 5B 80 F8 FF FF  7F F8 FF FF 7F 73 31 34  45E[.........s14
0CF0: 36 01 80 1C 22 80 52 5B  80 F8 FF FF 7F F8 FF FF  6...".R[........
0D00: 7F 73 31 34 36 45 5B 80  F8 FF FF 7F F8 FF FF 7F  .s146E[.........
0D10: 73 31 34 37 01 80 1C 5D  80 5B 5A 80 7B B1 10 01  s147...].[Z.{...
0D20: 7B B1 10 01 6D 61 6B 32  52 5B 80 F8 FF FF 7F F8  {...mak2R[......
0D30: FF FF 7F 73 31 34 37 45  5B 80 F8 FF FF 7F F8 FF  ...s147E[.......
0D40: FF 7F 73 31 34 38 01 80  1C 22 80 BA F0 FF FF 7F  ..s148..."......
0D50: 5E 80 5F 80 60 80 61 80  80 F0 FF FF 7F 5B 62 80  ^._.`.a......[b.
0D60: 7D B1 10 01 7D B1 10 01  79 72 69 32 27 05 F0 FF  }...}...yri2'...
0D70: FF 7F 15 1C 2B 80 52 5B  80 F8 FF FF 7F F8 FF FF  ....+.R[........
0D80: 7F 73 31 34 38 45 5B 80  F8 FF FF 7F F8 FF FF 7F  .s148E[.........
0D90: 73 31 34 39 01 80 5B 62  80 7D B1 10 01 7D B1 10  s149..[b.}...}..
0DA0: 01 79 72 69 32 1C 18 80  52 5B 80 F8 FF FF 7F F8  .yri2...R[......
0DB0: FF FF 7F 73 31 34 39 45  5B 80 F8 FF FF 7F F8 FF  ...s149E[.......
0DC0: FF 7F 73 31 35 30 01 80  1C 00 80 52 5B 80 F8 FF  ..s150.....R[...
0DD0: FF 7F F8 FF FF 7F 73 31  35 30 45 5B 80 F8 FF FF  ......s150E[....
0DE0: 7F F8 FF FF 7F 73 31 35  31 01 80 5B 5A 80 7B B1  .....s151..[Z.{.
0DF0: 10 01 7B B1 10 01 6D 61  6B 33 03 02 10 5C 80 27  ..{...mak3...\.'
0E00: 10 8F B1 10 01 01 1C 08  80 2B 7B B1 10 01 63 80  .........+{...c.
0E10: 23 2A 10 8F B1 10 01 5D  01 80 08 80 52 5B 80 F8  #*.....]....R[..
0E20: FF FF 7F F8 FF FF 7F 73  31 35 31 02 87 7F 38 80  .......s151...8.
0E30: 80 47 0E 45 5B 80 F8 FF  FF 7F F8 FF FF 7F 73 31  .G.E[.........s1
0E40: 35 33 01 80 01 74 0E 02  87 7F 39 80 80 63 0E 45  53...t....9..c.E
0E50: 5B 80 F8 FF FF 7F F8 FF  FF 7F 73 31 35 33 01 80  [.........s153..
0E60: 01 74 0E 45 5B 80 F8 FF  FF 7F F8 FF FF 7F 73 31  .t.E[.........s1
0E70: 35 32 01 80 6E F0 FF FF  7F 64 80 99 F0 FF FF 7F  52..n....d......
0E80: 4E 00 7C B1 10 01 80 7C  B1 10 01 5C 00 65 80 5C  N.|....|...\.e.\
0E90: 01 65 80 9A 5F 03 66 80  7C B1 10 01 7C B1 10 01  .e.._.f.|...|...
0EA0: 77 61 6B 32 1C 29 80 52  5B 80 F8 FF FF 7F F8 FF  wak2.).R[.......
0EB0: FF 7F 73 31 35 32 52 5B  80 F8 FF FF 7F F8 FF FF  ..s152R[........
0EC0: 7F 73 31 35 33 5F 03 19  80 87 B1 10 01 87 B1 10  .s153_..........
0ED0: 01 63 6D 6F 6E 5F 03 19  80 87 B1 10 01 87 B1 10  .cmon_..........
0EE0: 01 77 61 6B 32 5F 03 66  80 7C B1 10 01 7C B1 10  .wak2_.f.|...|..
0EF0: 01 77 61 6B 32 2B 8F B1  10 01 67 80 1C 68 80 5F  .wak2+....g..h._
0F00: 03 19 80 87 B1 10 01 87  B1 10 01 77 61 6B 33 5F  ...........wak3_
0F10: 03 66 80 7C B1 10 01 7C  B1 10 01 77 61 6B 32 1C  .f.|...|...wak2.
0F20: 69 80 4E 00 82 B1 10 01  4E 00 83 B1 10 01 1C 6A  i.N.....N......j
0F30: 80 5F 03 19 80 87 B1 10  01 87 B1 10 01 63 6D 6F  ._...........cmo
0F40: 66 5F 02 87 B1 10 01 45  5B 80 F8 FF FF 7F F8 FF  f_.....E[.......
0F50: FF 7F 73 31 35 34 01 80  1C 06 80 BA F0 FF FF 7F  ..s154..........
0F60: 6B 80 6C 80 60 80 6D 80  4A F0 FF FF 7F 7C B1 10  k.l.`.m.J....|..
0F70: 01 23 55 5B 80 F8 FF FF  7F F8 FF FF 7F 73 31 35  .#U[.........s15
0F80: 34 45 5B 80 F8 FF FF 7F  F8 FF FF 7F 73 31 35 35  4E[.........s155
0F90: 01 80 5B 6E 80 7C B1 10  01 7C B1 10 01 74 6C 61  ..[n.|...|...tla
0FA0: 30 02 05 10 03 80 00 B4  0F 2B 7C B1 10 01 6F 80  0........+|...o.
0FB0: 23 01 C4 0F 2B 7C B1 10  01 70 80 23 2B 7C B1 10  #...+|...p.#+|..
0FC0: 01 71 80 23 5B 6E 80 7C  B1 10 01 7C B1 10 01 74  .q.#[n.|...|...t
0FD0: 6C 61 31 52 5B 80 F8 FF  FF 7F F8 FF FF 7F 73 31  la1R[.........s1
0FE0: 35 35 45 5B 80 F8 FF FF  7F F8 FF FF 7F 73 31 35  55E[.........s15
0FF0: 36 01 80 2B 7C B1 10 01  72 80 23 2B 7C B1 10 01  6..+|...r.#+|...
1000: 73 80 23 5B 74 80 83 B1  10 01 83 B1 10 01 62 61  s.#[t.........ba
1010: 74 30 1C 06 80 5B 74 80  82 B1 10 01 82 B1 10 01  t0...[t.........
1020: 62 61 74 30 52 5B 80 F8  FF FF 7F F8 FF FF 7F 73  bat0R[.........s
1030: 31 35 36 45 5B 80 F8 FF  FF 7F F8 FF FF 7F 73 31  156E[.........s1
1040: 35 37 01 80 1C 16 80 52  5B 80 F8 FF FF 7F F8 FF  57.....R[.......
