# 17871249

## Common Data

| Field            | Value                   |
|------------------|-------------------------|
| Zone             | Kamihr Drifts (ID: 267) |
| Block Size       | 1652 bytes              |
| Total Events     | 2                       |
| References Count | 45                      |

## List of Events

| Event ID              | Entrypoint   |   Size |   Instructions |
|-----------------------|--------------|--------|----------------|
| [65535](#event-65535) | 0x0000       |    658 |             62 |
| [59](#event-59)       | 0x0292       |    788 |            105 |

## DAT References (imed_data)

|   Index | Hex Value   |   Dec Value |
|---------|-------------|-------------|
|       0 | 0x00C8      |         200 |
|       1 | 0x0000      |           0 |
|       2 | 0x00C9      |         201 |
|       3 | 0x0001      |           1 |
|       4 | 0x002D      |          45 |
|       5 | 0x0002      |           2 |
|       6 | 0x001E      |          30 |
|       7 | 0x00D7      |         215 |
|       8 | 0x001B      |          27 |
|       9 | 0xFFFCBAE9  |  4294753001 |
|      10 | 0xEF59      |       61273 |
|      11 | 0x4BE0      |       19424 |
|      12 | 0x07BE      |        1982 |
|      13 | 0xFFFCA069  |  4294746217 |
|      14 | 0x16CE9     |       93417 |
|      15 | 0x7917      |       30999 |
|      16 | 0x0403      |        1027 |
|      17 | 0xFFFCA05F  |  4294746207 |
|      18 | 0x11E82     |       73346 |
|      19 | 0x0C20      |        3104 |
|      20 | 0x02BD      |         701 |
|      21 | 0x000F      |          15 |
|      22 | 0x0CC9      |        3273 |
|      23 | 0x001F      |          31 |
|      24 | 0x00F0      |         240 |
|      25 | 0x01E0      |         480 |
|      26 | 0x006E      |         110 |
|      27 | 0x21F5      |        8693 |
|      28 | 0x0046      |          70 |
|      29 | 0x000C      |          12 |
|      30 | 0x0044      |          68 |
|      31 | 0x000A      |          10 |
|      32 | 0x21E7      |        8679 |
|      33 | 0x005A      |          90 |
|      34 | 0x21E8      |        8680 |
|      35 | 0x21E9      |        8681 |
|      36 | 0x21EA      |        8682 |
|      37 | 0x0096      |         150 |
|      38 | 0x0014      |          20 |
|      39 | 0x21EB      |        8683 |
|      40 | 0x003C      |          60 |
|      41 | 0x0032      |          50 |
|      42 | 0x0048      |          72 |
|      43 | 0x007F      |         127 |
|      44 | 0x21F6      |        8694 |

## String References

- **8693**: Strange visions flood into your mind!
- **8694**: Fragments of shattered memories wedge themselves into your skull.

## Events

### Event 65535

#### Metadata

| Field        | Value     |
|--------------|-----------|
| Entrypoint   | 0x0000    |
| Data Size    | 658 bytes |
| Instructions | 1         |

```
      00 01 02 03 04 05 06 07  08 09 0A 0B 0C 0D 0E 0F
      -- -- -- -- -- -- -- --  -- -- -- -- -- -- -- --
0000: 00 45 00 80 F0 FF FF 7F  F0 FF FF 7F 66 64 69 30  .E..........fdi0
0010: 01 80 55 00 80 F0 FF FF  7F F0 FF FF 7F 66 64 69  ..U..........fdi
0020: 30 1B 45 00 80 F0 FF FF  7F F0 FF FF 7F 66 64 6F  0.E..........fdo
0030: 30 01 80 55 00 80 F0 FF  FF 7F F0 FF FF 7F 66 64  0..U..........fd
0040: 6F 30 1B 45 00 80 F0 FF  FF 7F F0 FF FF 7F 66 64  o0.E..........fd
0050: 69 31 01 80 55 00 80 F0  FF FF 7F F0 FF FF 7F 66  i1..U..........f
0060: 64 69 31 1B 45 00 80 F0  FF FF 7F F0 FF FF 7F 66  di1.E..........f
0070: 64 6F 31 01 80 55 00 80  F0 FF FF 7F F0 FF FF 7F  do1..U..........
0080: 66 64 6F 31 1B 45 02 80  F0 FF FF 7F F0 FF FF 7F  fdo1.E..........
0090: 77 68 69 31 01 80 55 02  80 F0 FF FF 7F F0 FF FF  whi1..U.........
00A0: 7F 77 68 69 31 1B 45 02  80 F0 FF FF 7F F0 FF FF  .whi1.E.........
00B0: 7F 77 68 6F 31 01 80 55  02 80 F0 FF FF 7F F0 FF  .who1..U........
00C0: FF 7F 77 68 6F 31 1B 45  02 80 F0 FF FF 7F F0 FF  ..who1.E........
00D0: FF 7F 77 68 6F 32 01 80  55 02 80 F0 FF FF 7F F0  ..who2..U.......
00E0: FF FF 7F 77 68 6F 32 1B  45 02 80 F0 FF FF 7F F0  ...who2.E.......
00F0: FF FF 7F 77 68 6F 33 01  80 55 02 80 F0 FF FF 7F  ...who3..U......
0100: F0 FF FF 7F 77 68 6F 33  1B 62 03 80 F0 FF FF 7F  ....who3.b......
0110: F0 FF FF 7F 6D 61 69 6E  01 80 1C 04 80 45 00 80  ....main.....E..
0120: F0 FF FF 7F F0 FF FF 7F  66 64 6F 31 01 80 55 00  ........fdo1..U.
0130: 80 F0 FF FF 7F F0 FF FF  7F 66 64 6F 31 1B 45 00  .........fdo1.E.
0140: 80 F0 FF FF 7F F0 FF FF  7F 66 64 69 31 01 80 62  .........fdi1..b
0150: 05 80 F0 FF FF 7F F0 FF  FF 7F 6D 61 69 6E 01 80  ..........main..
0160: 1C 06 80 55 00 80 F0 FF  FF 7F F0 FF FF 7F 66 64  ...U..........fd
0170: 69 31 1B 45 00 80 F0 FF  FF 7F F0 FF FF 7F 62 6C  i1.E..........bl
0180: 6F 6E 01 80 45 02 80 F0  FF FF 7F F0 FF FF 7F 62  on..E..........b
0190: 6C 6F 6E 01 80 1B 45 02  80 F0 FF FF 7F F0 FF FF  lon...E.........
01A0: 7F 77 68 69 30 01 80 55  02 80 F0 FF FF 7F F0 FF  .whi0..U........
01B0: FF 7F 77 68 69 30 1B 45  02 80 F0 FF FF 7F F0 FF  ..whi0.E........
01C0: FF 7F 77 68 6F 30 01 80  55 02 80 F0 FF FF 7F F0  ..who0..U.......
01D0: FF FF 7F 77 68 6F 30 1B  45 07 80 F0 FF FF 7F F0  ...who0.E.......
01E0: FF FF 7F 65 66 6F 6E 01  80 55 07 80 F0 FF FF 7F  ...efon..U......
01F0: F0 FF FF 7F 65 66 6F 6E  1B 45 00 80 F0 FF FF 7F  ....efon.E......
0200: F0 FF FF 7F 66 64 69 73  01 80 1B 45 00 80 F0 FF  ....fdis...E....
0210: FF 7F F0 FF FF 7F 66 64  6F 73 01 80 55 00 80 F0  ......fdos..U...
0220: FF FF 7F F0 FF FF 7F 66  64 6F 73 1B 45 00 80 F0  .......fdos.E...
0230: FF FF 7F F0 FF FF 7F 66  64 69 66 01 80 1B 45 00  .......fdif...E.
0240: 80 F0 FF FF 7F F0 FF FF  7F 66 64 6F 66 01 80 55  .........fdof..U
0250: 00 80 F0 FF FF 7F F0 FF  FF 7F 66 64 6F 66 1B 45  ..........fdof.E
0260: 00 80 F0 FF FF 7F F0 FF  FF 7F 66 64 69 70 01 80  ..........fdip..
0270: 1B 45 00 80 F0 FF FF 7F  F0 FF FF 7F 66 64 6F 70  .E..........fdop
0280: 01 80 55 00 80 F0 FF FF  7F F0 FF FF 7F 66 64 6F  ..U..........fdo
0290: 70 1B                                             p.              
```

#### Opcodes

```
  0: 0x0000 [0x00] END_REQSTACK()
```

#### Data or dead code:

```
# Dead code (unreachable instructions):
     0x0001 [0x45] LOAD_SCHEDULED_TASK: Load scheduler "fdi0" with entities [LocalPlayer, LocalPlayer], work=[200*, 0*]
     0x0012 [0x55] WAIT_LOAD_SCHEDULER: Wait for scheduler "fdi0" with entities [LocalPlayer, LocalPlayer], work=200*
     0x0021 [0x1B] RETURN
     0x0022 [0x45] LOAD_SCHEDULED_TASK: Load scheduler "fdo0" with entities [LocalPlayer, LocalPlayer], work=[200*, 0*]
     0x0033 [0x55] WAIT_LOAD_SCHEDULER: Wait for scheduler "fdo0" with entities [LocalPlayer, LocalPlayer], work=200*
     0x0042 [0x1B] RETURN
     0x0043 [0x45] LOAD_SCHEDULED_TASK: Load scheduler "fdi1" with entities [LocalPlayer, LocalPlayer], work=[200*, 0*]
     0x0054 [0x55] WAIT_LOAD_SCHEDULER: Wait for scheduler "fdi1" with entities [LocalPlayer, LocalPlayer], work=200*
     0x0063 [0x1B] RETURN
     0x0064 [0x45] LOAD_SCHEDULED_TASK: Load scheduler "fdo1" with entities [LocalPlayer, LocalPlayer], work=[200*, 0*]
     0x0075 [0x55] WAIT_LOAD_SCHEDULER: Wait for scheduler "fdo1" with entities [LocalPlayer, LocalPlayer], work=200*
     0x0084 [0x1B] RETURN
     0x0085 [0x45] LOAD_SCHEDULED_TASK: Load scheduler "whi1" with entities [LocalPlayer, LocalPlayer], work=[201*, 0*]
     0x0096 [0x55] WAIT_LOAD_SCHEDULER: Wait for scheduler "whi1" with entities [LocalPlayer, LocalPlayer], work=201*
     0x00A5 [0x1B] RETURN
     0x00A6 [0x45] LOAD_SCHEDULED_TASK: Load scheduler "who1" with entities [LocalPlayer, LocalPlayer], work=[201*, 0*]
     0x00B7 [0x55] WAIT_LOAD_SCHEDULER: Wait for scheduler "who1" with entities [LocalPlayer, LocalPlayer], work=201*
     0x00C6 [0x1B] RETURN
     0x00C7 [0x45] LOAD_SCHEDULED_TASK: Load scheduler "who2" with entities [LocalPlayer, LocalPlayer], work=[201*, 0*]
     0x00D8 [0x55] WAIT_LOAD_SCHEDULER: Wait for scheduler "who2" with entities [LocalPlayer, LocalPlayer], work=201*
     0x00E7 [0x1B] RETURN
     0x00E8 [0x45] LOAD_SCHEDULED_TASK: Load scheduler "who3" with entities [LocalPlayer, LocalPlayer], work=[201*, 0*]
     0x00F9 [0x55] WAIT_LOAD_SCHEDULER: Wait for scheduler "who3" with entities [LocalPlayer, LocalPlayer], work=201*
     0x0108 [0x1B] RETURN
     0x0109 [0x62] LOAD_EVENT_SCHEDULER: Load scheduler "main" with entities [LocalPlayer, LocalPlayer], work=[1*, 0*]
     0x011A [0x1C] WAIT(45* ticks)
     0x011D [0x45] LOAD_SCHEDULED_TASK: Load scheduler "fdo1" with entities [LocalPlayer, LocalPlayer], work=[200*, 0*]
     0x012E [0x55] WAIT_LOAD_SCHEDULER: Wait for scheduler "fdo1" with entities [LocalPlayer, LocalPlayer], work=200*
     0x013D [0x1B] RETURN
     0x013E [0x45] LOAD_SCHEDULED_TASK: Load scheduler "fdi1" with entities [LocalPlayer, LocalPlayer], work=[200*, 0*]
     0x014F [0x62] LOAD_EVENT_SCHEDULER: Load scheduler "main" with entities [LocalPlayer, LocalPlayer], work=[2*, 0*]
     0x0160 [0x1C] WAIT(30* ticks)
     0x0163 [0x55] WAIT_LOAD_SCHEDULER: Wait for scheduler "fdi1" with entities [LocalPlayer, LocalPlayer], work=200*
     0x0172 [0x1B] RETURN
     0x0173 [0x45] LOAD_SCHEDULED_TASK: Load scheduler "blon" with entities [LocalPlayer, LocalPlayer], work=[200*, 0*]
     0x0184 [0x45] LOAD_SCHEDULED_TASK: Load scheduler "blon" with entities [LocalPlayer, LocalPlayer], work=[201*, 0*]
     0x0195 [0x1B] RETURN
     0x0196 [0x45] LOAD_SCHEDULED_TASK: Load scheduler "whi0" with entities [LocalPlayer, LocalPlayer], work=[201*, 0*]
     0x01A7 [0x55] WAIT_LOAD_SCHEDULER: Wait for scheduler "whi0" with entities [LocalPlayer, LocalPlayer], work=201*
     0x01B6 [0x1B] RETURN
     0x01B7 [0x45] LOAD_SCHEDULED_TASK: Load scheduler "who0" with entities [LocalPlayer, LocalPlayer], work=[201*, 0*]
     0x01C8 [0x55] WAIT_LOAD_SCHEDULER: Wait for scheduler "who0" with entities [LocalPlayer, LocalPlayer], work=201*
     0x01D7 [0x1B] RETURN
     0x01D8 [0x45] LOAD_SCHEDULED_TASK: Load scheduler "efon" with entities [LocalPlayer, LocalPlayer], work=[215*, 0*]
     0x01E9 [0x55] WAIT_LOAD_SCHEDULER: Wait for scheduler "efon" with entities [LocalPlayer, LocalPlayer], work=215*
     0x01F8 [0x1B] RETURN
     0x01F9 [0x45] LOAD_SCHEDULED_TASK: Load scheduler "fdis" with entities [LocalPlayer, LocalPlayer], work=[200*, 0*]
     0x020A [0x1B] RETURN
     0x020B [0x45] LOAD_SCHEDULED_TASK: Load scheduler "fdos" with entities [LocalPlayer, LocalPlayer], work=[200*, 0*]
     0x021C [0x55] WAIT_LOAD_SCHEDULER: Wait for scheduler "fdos" with entities [LocalPlayer, LocalPlayer], work=200*
     0x022B [0x1B] RETURN
     0x022C [0x45] LOAD_SCHEDULED_TASK: Load scheduler "fdif" with entities [LocalPlayer, LocalPlayer], work=[200*, 0*]
     0x023D [0x1B] RETURN
     0x023E [0x45] LOAD_SCHEDULED_TASK: Load scheduler "fdof" with entities [LocalPlayer, LocalPlayer], work=[200*, 0*]
     0x024F [0x55] WAIT_LOAD_SCHEDULER: Wait for scheduler "fdof" with entities [LocalPlayer, LocalPlayer], work=200*
     0x025E [0x1B] RETURN
     0x025F [0x45] LOAD_SCHEDULED_TASK: Load scheduler "fdip" with entities [LocalPlayer, LocalPlayer], work=[200*, 0*]
     0x0270 [0x1B] RETURN
     0x0271 [0x45] LOAD_SCHEDULED_TASK: Load scheduler "fdop" with entities [LocalPlayer, LocalPlayer], work=[200*, 0*]
     0x0282 [0x55] WAIT_LOAD_SCHEDULER: Wait for scheduler "fdop" with entities [LocalPlayer, LocalPlayer], work=200*
     0x0291 [0x1B] RETURN
```

### Event 59

#### Metadata

| Field        | Value     |
|--------------|-----------|
| Entrypoint   | 0x0292    |
| Data Size    | 788 bytes |
| Instructions | 105       |

```
      00 01 02 03 04 05 06 07  08 09 0A 0B 0C 0D 0E 0F
      -- -- -- -- -- -- -- --  -- -- -- -- -- -- -- --
0290:       42 45 00 80 F0 FF  FF 7F F0 FF FF 7F 66 64    BE..........fd
02A0: 6F 31 01 80 55 00 80 F0  FF FF 7F F0 FF FF 7F 66  o1..U..........f
02B0: 64 6F 31 46 01 38 08 80  2F 00 93 B1 10 01 2F 00  do1F.8../...../.
02C0: 94 B1 10 01 4E 00 93 B1  10 01 4E 00 94 B1 10 01  ....N.....N.....
02D0: 92 01 93 B1 10 01 92 01  94 B1 10 01 94 01 93 B1  ................
02E0: 10 01 94 01 94 B1 10 01  94 01 F0 FF FF 7F BA F0  ................
02F0: FF FF 7F 09 80 0A 80 0B  80 0C 80 BA 93 B1 10 01  ................
0300: 0D 80 0E 80 0F 80 10 80  BA 94 B1 10 01 11 80 12  ................
0310: 80 0F 80 13 80 80 93 B1  10 01 80 94 B1 10 01 80  ................
0320: F0 FF FF 7F 4A 94 B1 10  01 93 B1 10 01 45 14 80  ....J........E..
0330: F8 FF FF 7F F8 FF FF 7F  73 30 31 39 01 80 1C 15  ........s019....
0340: 80 45 00 80 F0 FF FF 7F  F0 FF FF 7F 66 64 69 31  .E..........fdi1
0350: 01 80 5B 16 80 93 B1 10  01 93 B1 10 01 66 72 69  ..[..........fri
0360: 30 5C A0 17 80 18 80 5C  A1 17 80 19 80 27 08 F0  0\.....\.....'..
0370: FF FF 7F 02 1C 1A 80 48  1B 80 1C 1C 80 23 53 93  .......H.....#S.
0380: B1 10 01 93 B1 10 01 66  72 69 30 45 02 80 F0 FF  .......fri0E....
0390: FF 7F F0 FF FF 7F 77 68  6F 30 01 80 55 02 80 F0  ......who0..U...
03A0: FF FF 7F F0 FF FF 7F 77  68 6F 30 1C 15 80 52 14  .......who0...R.
03B0: 80 F8 FF FF 7F F8 FF FF  7F 73 30 31 39 4E 01 F0  .........s019N..
03C0: FF FF 7F 77 15 80 1D 80  5C 00 1E 80 5C 01 1E 80  ...w....\...\...
03D0: 9A 1A D8 01 45 14 80 F8  FF FF 7F F8 FF FF 7F 73  ....E..........s
03E0: 30 32 30 01 80 27 08 94  B1 10 01 02 1C 1F 80 45  020..'.........E
03F0: 02 80 F0 FF FF 7F F0 FF  FF 7F 77 68 69 31 01 80  ..........whi1..
0400: 55 02 80 F0 FF FF 7F F0  FF FF 7F 77 68 69 31 2B  U..........whi1+
0410: 93 B1 10 01 20 80 1C 21  80 23 2B 94 B1 10 01 22  .... ..!.#+...."
0420: 80 1C 21 80 23 52 14 80  F8 FF FF 7F F8 FF FF 7F  ..!.#R..........
0430: 73 30 32 30 27 08 F0 FF  FF 7F 25 45 14 80 F8 FF  s020'.....%E....
0440: FF 7F F8 FF FF 7F 73 30  32 31 01 80 2B 93 B1 10  ......s021..+...
0450: 01 23 80 1C 21 80 23 2B  93 B1 10 01 24 80 1C 25  .#..!.#+....$..%
0460: 80 23 5B 16 80 93 B1 10  01 93 B1 10 01 66 72 69  .#[..........fri
0470: 31 1C 26 80 52 14 80 F8  FF FF 7F F8 FF FF 7F 73  1.&.R..........s
0480: 30 32 31 45 14 80 F8 FF  FF 7F F8 FF FF 7F 73 30  021E..........s0
0490: 32 32 01 80 1C 26 80 2B  94 B1 10 01 27 80 1C 28  22...&.+....'..(
04A0: 80 23 45 02 80 F0 FF FF  7F F0 FF FF 7F 77 68 6F  .#E..........who
04B0: 33 01 80 55 02 80 F0 FF  FF 7F F0 FF FF 7F 77 68  3..U..........wh
04C0: 6F 33 1C 15 80 45 07 80  F0 FF FF 7F F0 FF FF 7F  o3...E..........
04D0: 65 66 6F 66 01 80 55 07  80 F0 FF FF 7F F0 FF FF  efof..U.........
04E0: 7F 65 66 6F 66 52 14 80  F8 FF FF 7F F8 FF FF 7F  .efofR..........
04F0: 73 30 32 32 78 1C 06 80  4E 00 F0 FF FF 7F 1C 29  s022x...N......)
0500: 80 4E 01 93 B1 10 01 4E  01 94 B1 10 01 5C 00 2A  .N.....N.....\.*
0510: 80 5C 01 2A 80 9A 5D 2B  80 03 80 45 14 80 F8 FF  .\.*..]+...E....
0520: FF 7F F8 FF FF 7F 73 30  32 33 01 80 1C 15 80 45  ......s023.....E
0530: 02 80 F0 FF FF 7F F0 FF  FF 7F 77 68 69 31 01 80  ..........whi1..
0540: 55 02 80 F0 FF FF 7F F0  FF FF 7F 77 68 69 31 48  U..........whi1H
0550: 2C 80 1C 1C 80 23 45 00  80 F0 FF FF 7F F0 FF FF  ,....#E.........
0560: 7F 66 64 6F 31 01 80 55  00 80 F0 FF FF 7F F0 FF  .fdo1..U........
0570: FF 7F 66 64 6F 31 52 14  80 F8 FF FF 7F F8 FF FF  ..fdo1R.........
0580: 7F 73 30 32 33 1C 15 80  AB 11 01 80 1C 03 80 AB  .s023...........
0590: 0A 46 00 45 00 80 F0 FF  FF 7F F0 FF FF 7F 66 64  .F.E..........fd
05A0: 69 32 01 80 21 00                                 i2..!.          
```

#### Opcodes

```
  0: 0x0292 [0x42] SET_CLI_EVENT_CANCEL_DATA()
  1: 0x0293 [0x45] LOAD_SCHEDULED_TASK: Load scheduler "fdo1" with entities [LocalPlayer, LocalPlayer], work=[200*, 0*]
  2: 0x02A4 [0x55] WAIT_LOAD_SCHEDULER: Wait for scheduler "fdo1" with entities [LocalPlayer, LocalPlayer], work=200*
  3: 0x02B3 [0x46] CAMERA_CONTROL: Disable user control
  4: 0x02B5 [0x38] SET_CLIENT_EVENT_MODE(mode=27*)
  5: 0x02B8 [0x2F] Unnamed NPC (ID: 17871251/0x0110B193)->Render.Flags0 &= ~0x80000 // Bit 19
  6: 0x02BE [0x2F] Unnamed NPC (ID: 17871252/0x0110B194)->Render.Flags0 &= ~0x80000 // Bit 19
  7: 0x02C4 [0x4E] SET_ENTITY_HIDE_FLAG: Show Unnamed NPC (ID: 17871251/0x0110B193)
  8: 0x02CA [0x4E] SET_ENTITY_HIDE_FLAG: Show Unnamed NPC (ID: 17871252/0x0110B194)
  9: 0x02D0 [0x92] Unnamed NPC (ID: 17871251/0x0110B193)->Render.Flags3 ^= 0x01
 10: 0x02D6 [0x92] Unnamed NPC (ID: 17871252/0x0110B194)->Render.Flags3 ^= 0x01
 11: 0x02DC [0x94] Unnamed NPC (ID: 17871251/0x0110B193)->Render.Flags3 ^= 0x01
 12: 0x02E2 [0x94] Unnamed NPC (ID: 17871252/0x0110B194)->Render.Flags3 ^= 0x01
 13: 0x02E8 [0x94] LocalPlayer->Render.Flags3 ^= 0x01
 14: 0x02EE [0xBA] SET_ENTITY_POSITION(entity_id=LocalPlayer, pos_x=-214.295*, pos_z=61.273*, pos_y=19.424*, direction=174.2°*)
 15: 0x02FB [0xBA] SET_ENTITY_POSITION(entity_id=Unnamed NPC (ID: 17871251/0x0110B193), pos_x=-221.079*, pos_z=93.417*, pos_y=30.999*, direction=90.3°*)
 16: 0x0308 [0xBA] SET_ENTITY_POSITION(entity_id=Unnamed NPC (ID: 17871252/0x0110B194), pos_x=-221.089*, pos_z=73.346*, pos_y=30.999*, direction=272.8°*)
 17: 0x0315 [0x80] LOAD_WAIT(entity=Unnamed NPC (ID: 17871251/0x0110B193))
 18: 0x031A [0x80] LOAD_WAIT(entity=Unnamed NPC (ID: 17871252/0x0110B194))
 19: 0x031F [0x80] LOAD_WAIT(entity=LocalPlayer)
 20: 0x0324 [0x4A] Unnamed NPC (ID: 17871252/0x0110B194) looks at Unnamed NPC (ID: 17871251/0x0110B193)
 21: 0x032D [0x45] LOAD_SCHEDULED_TASK: Load scheduler "s019" with entities [EventEntity, EventEntity], work=[701*, 0*]
 22: 0x033E [0x1C] WAIT(15* ticks)
 23: 0x0341 [0x45] LOAD_SCHEDULED_TASK: Load scheduler "fdi1" with entities [LocalPlayer, LocalPlayer], work=[200*, 0*]
 24: 0x0352 [0x5B] LOAD_EXT_SCHEDULER: Load scheduler "fri0" with entities [Unnamed NPC (ID: 17871251/0x0110B193), Unnamed NPC (ID: 17871251/0x0110B193)], work=3273*
 25: 0x0361 [0x5C] MUSIC_CONTROL: Set music volume to song 31*, fade_time=240*
 26: 0x0367 [0x5C] MUSIC_CONTROL: Adjust music volume to song 31*, fade_time=480*
 27: 0x036D [0x27] REQ_SET(priority=0x08, entity_id=LocalPlayer, tag_num=0x02)
 28: 0x0374 [0x1C] WAIT(110* ticks)
 29: 0x0377 [0x48] [System] [8693*]:
    → "Strange visions flood into your mind!"
 30: 0x037A [0x1C] WAIT(70* ticks)
 31: 0x037D [0x23] WAIT_FOR_DIALOG_INTERACTION
 32: 0x037E [0x53] WAIT_SCHEDULER_TASK: Wait for scheduler "fri0" with entities [Unnamed NPC (ID: 17871251/0x0110B193), Unnamed NPC (ID: 17871251/0x0110B193)]
 33: 0x038B [0x45] LOAD_SCHEDULED_TASK: Load scheduler "who0" with entities [LocalPlayer, LocalPlayer], work=[201*, 0*]
 34: 0x039C [0x55] WAIT_LOAD_SCHEDULER: Wait for scheduler "who0" with entities [LocalPlayer, LocalPlayer], work=201*
 35: 0x03AB [0x1C] WAIT(15* ticks)
 36: 0x03AE [0x52] END_LOAD_SCHEDULER: End scheduler "s019" with entities [EventEntity, EventEntity], work=701*
 37: 0x03BD [0x4E] SET_ENTITY_HIDE_FLAG: Hide LocalPlayer
 38: 0x03C3 [0x77] SET_EVENT_TIME_WEATHER(hour=15*, weather=12*)
 39: 0x03C8 [0x5C] MUSIC_CONTROL: Set Idle (Day) music to song 68*
 40: 0x03CC [0x5C] MUSIC_CONTROL: Set Idle (Night) music to song 68*
 41: 0x03D0 [0x9A] WAIT_MUSIC_SERVER()
 42: 0x03D1 [0x1A] CALL_SUBROUTINE(address=0x01D8)
 43: 0x03D4 [0x45] LOAD_SCHEDULED_TASK: Load scheduler "s020" with entities [EventEntity, EventEntity], work=[701*, 0*]
 44: 0x03E5 [0x27] REQ_SET(priority=0x08, entity_id=Unnamed NPC (ID: 17871252/0x0110B194), tag_num=0x02)
 45: 0x03EC [0x1C] WAIT(10* ticks)
 46: 0x03EF [0x45] LOAD_SCHEDULED_TASK: Load scheduler "whi1" with entities [LocalPlayer, LocalPlayer], work=[201*, 0*]
 47: 0x0400 [0x55] WAIT_LOAD_SCHEDULER: Wait for scheduler "whi1" with entities [LocalPlayer, LocalPlayer], work=201*
 48: 0x040F [0x2B] Unnamed NPC (ID: 17871251/0x0110B193) [8679*]:
    → "Your audacity intrigues me, knight. Only the noble and the foolhardy possess the gumption to face an entire regiment with naught but the armor on their backs."
 49: 0x0416 [0x1C] WAIT(90* ticks)
 50: 0x0419 [0x23] WAIT_FOR_DIALOG_INTERACTION
 51: 0x041A [0x2B] Unnamed NPC (ID: 17871252/0x0110B194) [8680*]:
    → "Why withdraw your forces, knave? Dare you doubt the capabilities of your better?"
 52: 0x0421 [0x1C] WAIT(90* ticks)
 53: 0x0424 [0x23] WAIT_FOR_DIALOG_INTERACTION
 54: 0x0425 [0x52] END_LOAD_SCHEDULER: End scheduler "s020" with entities [EventEntity, EventEntity], work=701*
 55: 0x0434 [0x27] REQ_SET(priority=0x08, entity_id=LocalPlayer, tag_num=0x25)
 56: 0x043B [0x45] LOAD_SCHEDULED_TASK: Load scheduler "s021" with entities [EventEntity, EventEntity], work=[701*, 0*]
 57: 0x044C [0x2B] Unnamed NPC (ID: 17871251/0x0110B193) [8681*]:
    → "Ah, how quickly the veil breaks down. You are a fool to the bitter end."
 58: 0x0453 [0x1C] WAIT(90* ticks)
 59: 0x0456 [0x23] WAIT_FOR_DIALOG_INTERACTION
 60: 0x0457 [0x2B] Unnamed NPC (ID: 17871251/0x0110B193) [8682*]:
    → "I offer myself on a silver platter, and all you concern yourself with is the "why.""
 61: 0x045E [0x1C] WAIT(150* ticks)
 62: 0x0461 [0x23] WAIT_FOR_DIALOG_INTERACTION
 63: 0x0462 [0x5B] LOAD_EXT_SCHEDULER: Load scheduler "fri1" with entities [Unnamed NPC (ID: 17871251/0x0110B193), Unnamed NPC (ID: 17871251/0x0110B193)], work=3273*
 64: 0x0471 [0x1C] WAIT(20* ticks)
 65: 0x0474 [0x52] END_LOAD_SCHEDULER: End scheduler "s021" with entities [EventEntity, EventEntity], work=701*
 66: 0x0483 [0x45] LOAD_SCHEDULED_TASK: Load scheduler "s022" with entities [EventEntity, EventEntity], work=[701*, 0*]
 67: 0x0494 [0x1C] WAIT(20* ticks)
 68: 0x0497 [0x2B] Unnamed NPC (ID: 17871252/0x0110B194) [8683*]:
    → "..."
 69: 0x049E [0x1C] WAIT(60* ticks)
 70: 0x04A1 [0x23] WAIT_FOR_DIALOG_INTERACTION
 71: 0x04A2 [0x45] LOAD_SCHEDULED_TASK: Load scheduler "who3" with entities [LocalPlayer, LocalPlayer], work=[201*, 0*]
 72: 0x04B3 [0x55] WAIT_LOAD_SCHEDULER: Wait for scheduler "who3" with entities [LocalPlayer, LocalPlayer], work=201*
 73: 0x04C2 [0x1C] WAIT(15* ticks)
 74: 0x04C5 [0x45] LOAD_SCHEDULED_TASK: Load scheduler "efof" with entities [LocalPlayer, LocalPlayer], work=[215*, 0*]
 75: 0x04D6 [0x55] WAIT_LOAD_SCHEDULER: Wait for scheduler "efof" with entities [LocalPlayer, LocalPlayer], work=215*
 76: 0x04E5 [0x52] END_LOAD_SCHEDULER: End scheduler "s022" with entities [EventEntity, EventEntity], work=701*
 77: 0x04F4 [0x78] ENABLE_GAME_TIMER_RESET_WEATHER()
 78: 0x04F5 [0x1C] WAIT(30* ticks)
 79: 0x04F8 [0x4E] SET_ENTITY_HIDE_FLAG: Show LocalPlayer
 80: 0x04FE [0x1C] WAIT(50* ticks)
 81: 0x0501 [0x4E] SET_ENTITY_HIDE_FLAG: Hide Unnamed NPC (ID: 17871251/0x0110B193)
 82: 0x0507 [0x4E] SET_ENTITY_HIDE_FLAG: Hide Unnamed NPC (ID: 17871252/0x0110B194)
 83: 0x050D [0x5C] MUSIC_CONTROL: Set Idle (Day) music to song 72*
 84: 0x0511 [0x5C] MUSIC_CONTROL: Set Idle (Night) music to song 72*
 85: 0x0515 [0x9A] WAIT_MUSIC_SERVER()
 86: 0x0516 [0x5D] SET_MUSIC_VOLUME(volume=127*, fade_time=1*)
 87: 0x051B [0x45] LOAD_SCHEDULED_TASK: Load scheduler "s023" with entities [EventEntity, EventEntity], work=[701*, 0*]
 88: 0x052C [0x1C] WAIT(15* ticks)
 89: 0x052F [0x45] LOAD_SCHEDULED_TASK: Load scheduler "whi1" with entities [LocalPlayer, LocalPlayer], work=[201*, 0*]
 90: 0x0540 [0x55] WAIT_LOAD_SCHEDULER: Wait for scheduler "whi1" with entities [LocalPlayer, LocalPlayer], work=201*
 91: 0x054F [0x48] [System] [8694*]:
    → "Fragments of shattered memories wedge themselves into your skull."
 92: 0x0552 [0x1C] WAIT(70* ticks)
 93: 0x0555 [0x23] WAIT_FOR_DIALOG_INTERACTION
 94: 0x0556 [0x45] LOAD_SCHEDULED_TASK: Load scheduler "fdo1" with entities [LocalPlayer, LocalPlayer], work=[200*, 0*]
 95: 0x0567 [0x55] WAIT_LOAD_SCHEDULER: Wait for scheduler "fdo1" with entities [LocalPlayer, LocalPlayer], work=200*
 96: 0x0576 [0x52] END_LOAD_SCHEDULER: End scheduler "s023" with entities [EventEntity, EventEntity], work=701*
 97: 0x0585 [0x1C] WAIT(15* ticks)
 98: 0x0588 [0xAB] EventEntity->DespawnValue = 0* // Set despawn value
 99: 0x058C [0x1C] WAIT(1* ticks)
100: 0x058F [0xAB] EventEntity->UnknownFlag = 0 // Disable unknown flag
101: 0x0591 [0x46] CAMERA_CONTROL: Restore default settings
102: 0x0593 [0x45] LOAD_SCHEDULED_TASK: Load scheduler "fdi2" with entities [LocalPlayer, LocalPlayer], work=[200*, 0*]
103: 0x05A4 [0x21] END_EVENT
104: 0x05A5 [0x00] END_REQSTACK()
```
