# 17871211 - Peppe-Aleppe

## Common Data

| Field            | Value                   |
|------------------|-------------------------|
| Zone             | Kamihr Drifts (ID: 267) |
| Block Size       | 1280 bytes              |
| Total Events     | 52                      |
| References Count | 37                      |

## List of Events

| Event ID                   | Entrypoint   |   Size |   Instructions |
|----------------------------|--------------|--------|----------------|
| [65535](#event-65535)      | 0x0000       |      1 |              1 |
| [65535.1](#event-655351)   | 0x0001       |     16 |              2 |
| [65535.2](#event-655352)   | 0x0011       |     22 |              4 |
| [65535.3](#event-655353)   | 0x0027       |      6 |              2 |
| [65535.4](#event-655354)   | 0x002D       |     16 |              2 |
| [65535.5](#event-655355)   | 0x003D       |     14 |              2 |
| [65535.6](#event-655356)   | 0x004B       |     16 |              2 |
| [65535.7](#event-655357)   | 0x005B       |     14 |              2 |
| [65535.8](#event-655358)   | 0x0069       |     16 |              2 |
| [65535.9](#event-655359)   | 0x0079       |     14 |              2 |
| [65535.10](#event-6553510) | 0x0087       |     16 |              2 |
| [65535.11](#event-6553511) | 0x0097       |     14 |              2 |
| [65535.12](#event-6553512) | 0x00A5       |     16 |              2 |
| [65535.13](#event-6553513) | 0x00B5       |     14 |              2 |
| [65535.14](#event-6553514) | 0x00C3       |     16 |              2 |
| [65535.15](#event-6553515) | 0x00D3       |     14 |              2 |
| [65535.16](#event-6553516) | 0x00E1       |     16 |              2 |
| [65535.17](#event-6553517) | 0x00F1       |     14 |              2 |
| [65535.18](#event-6553518) | 0x00FF       |     16 |              2 |
| [65535.19](#event-6553519) | 0x010F       |     14 |              2 |
| [65535.20](#event-6553520) | 0x011D       |     16 |              2 |
| [65535.21](#event-6553521) | 0x012D       |     14 |              2 |
| [65535.22](#event-6553522) | 0x013B       |     16 |              2 |
| [65535.23](#event-6553523) | 0x014B       |     14 |              2 |
| [65535.24](#event-6553524) | 0x0159       |     16 |              2 |
| [65535.25](#event-6553525) | 0x0169       |     14 |              2 |
| [65535.26](#event-6553526) | 0x0177       |     16 |              2 |
| [65535.27](#event-6553527) | 0x0187       |     14 |              2 |
| [65535.28](#event-6553528) | 0x0195       |     16 |              2 |
| [65535.29](#event-6553529) | 0x01A5       |     14 |              2 |
| [65535.30](#event-6553530) | 0x01B3       |     16 |              2 |
| [65535.31](#event-6553531) | 0x01C3       |     14 |              2 |
| [65535.32](#event-6553532) | 0x01D1       |     16 |              2 |
| [65535.33](#event-6553533) | 0x01E1       |     14 |              2 |
| [65535.34](#event-6553534) | 0x01EF       |     16 |              2 |
| [65535.35](#event-6553535) | 0x01FF       |     14 |              2 |
| [65535.36](#event-6553536) | 0x020D       |     16 |              2 |
| [65535.37](#event-6553537) | 0x021D       |     14 |              2 |
| [65535.38](#event-6553538) | 0x022B       |     16 |              2 |
| [65535.39](#event-6553539) | 0x023B       |     14 |              2 |
| [20](#event-20)            | 0x0249       |     33 |             12 |
| [22](#event-22)            | 0x026A       |     76 |             23 |
| [40](#event-40)            | 0x02B6       |      1 |              1 |
| [42](#event-42)            | 0x02B7       |      1 |              1 |
| [41](#event-41)            | 0x02B8       |     56 |             17 |
| [43](#event-43)            | 0x02F0       |     33 |             12 |
| [65535.40](#event-6553540) | 0x0311       |     14 |              4 |
| [65535.41](#event-6553541) | 0x031F       |     10 |              2 |
| [65535.42](#event-6553542) | 0x0329       |     14 |              4 |
| [65535.43](#event-6553543) | 0x0337       |     10 |              2 |
| [65535.44](#event-6553544) | 0x0341       |     52 |             10 |
| [65535.45](#event-6553545) | 0x0375       |     21 |              7 |

## DAT References (imed_data)

|   Index | Hex Value   |   Dec Value |
|---------|-------------|-------------|
|       0 | 0x0028      |          40 |
|       1 | 0x001E      |          30 |
|       2 | 0x0029      |          41 |
|       3 | 0x002A      |          42 |
|       4 | 0x1E43      |        7747 |
|       5 | 0x1E44      |        7748 |
|       6 | 0x1E47      |        7751 |
|       7 | 0x1E48      |        7752 |
|       8 | 0x1E49      |        7753 |
|       9 | 0x1E4A      |        7754 |
|      10 | 0x0AC3      |        2755 |
|      11 | 0x1E97      |        7831 |
|      12 | 0x1E98      |        7832 |
|      13 | 0x1E99      |        7833 |
|      14 | 0x1EB7      |        7863 |
|      15 | 0x1EB8      |        7864 |
|      16 | 0x000D      |          13 |
|      17 | 0x691CE     |      430542 |
|      18 | 0xFFFBA605  |  4294682117 |
|      19 | 0xFE59      |       65113 |
|      20 | 0x695B5     |      431541 |
|      21 | 0xFFFBA7EC  |  4294682604 |
|      22 | 0xFDE8      |       65000 |
|      23 | 0x0960      |        2400 |
|      24 | 0x67FED     |      425965 |
|      25 | 0xFFFB9973  |  4294678899 |
|      26 | 0xFF5E      |       65374 |
|      27 | 0x694BE     |      431294 |
|      28 | 0xFFFBA8B7  |  4294682807 |
|      29 | 0xFDE7      |       64999 |
|      30 | 0x0D1A      |        3354 |
|      31 | 0x68FC2     |      430018 |
|      32 | 0xFFFBABEC  |  4294683628 |
|      33 | 0xFD70      |       64880 |
|      34 | 0x690F2     |      430322 |
|      35 | 0xFFFBAA3B  |  4294683195 |
|      36 | 0xFD91      |       64913 |

## String References

- **7747**: It's f-freezing-weezing out here! Why are we colonizing such a terrible place?
- **7748**: I suppose I'm bettaru off than most, though, given that I'm both small and compact...
- **7751**: When I said that we should put c-c-colonization on icey-wice, this isn't what I had in mind! Brrr...
- **7752**: The terrain is rugged enough on its own, with all these tuftarus of snow...but ice walls blocking our progress? It's t-too much!
- **7753**: Thankfully, my geomancer friend Traiffeaux can crush them into a fine powder!
- **7754**: I say "thankfully," but he's been babbling like a baby for the pastaru I-don't-know-how-many hours.
- **7831**: Orsa-Porsa wanted you to get one $1. I have a suspicion he's more interested in his surveys than actually helping-welping me out...
- **7832**: But even if he's not, I'm no inventaru! Maybe I could make some kind of shovel to break down those thick walls of ice...
- **7833**: Hmm...that wouldn't work, though, because Traiffeaux's already found-wound some geomantic way to get around those...hmm...
- **7863**: Did you see the way Orsa-Porsa danced-wanced out of here? We gave him a new lease on life!
- **7864**: Mind over mattaru. It's just as cold as before, but if the oil makes him happy, then that's great!

## Events

### Event 65535

#### Metadata

| Field        | Value   |
|--------------|---------|
| Entrypoint   | 0x0000  |
| Data Size    | 1 bytes |
| Instructions | 1       |

```
      00 01 02 03 04 05 06 07  08 09 0A 0B 0C 0D 0E 0F
      -- -- -- -- -- -- -- --  -- -- -- -- -- -- -- --
0000: 00                                                .               
```

#### Opcodes

```
  0: 0x0000 [0x00] END_REQSTACK()
```

### Event 65535.1

#### Metadata

| Field        | Value    |
|--------------|----------|
| Entrypoint   | 0x0001   |
| Data Size    | 16 bytes |
| Instructions | 2        |

```
      00 01 02 03 04 05 06 07  08 09 0A 0B 0C 0D 0E 0F
      -- -- -- -- -- -- -- --  -- -- -- -- -- -- -- --
0000:    66 00 80 F8 FF FF 7F  F8 FF FF 7F 74 6C 6B 30   f..........tlk0
0010: 00                                                .               
```

#### Opcodes

```
  0: 0x0001 [0x66] LOAD_EXT_SCHEDULER_MAIN: Load scheduler "tlk0" with entities [EventEntity, EventEntity], work=40*
  1: 0x0010 [0x00] END_REQSTACK()
```

### Event 65535.2

#### Metadata

| Field        | Value    |
|--------------|----------|
| Entrypoint   | 0x0011   |
| Data Size    | 22 bytes |
| Instructions | 4        |

```
      00 01 02 03 04 05 06 07  08 09 0A 0B 0C 0D 0E 0F
      -- -- -- -- -- -- -- --  -- -- -- -- -- -- -- --
0010:    53 F8 FF FF 7F F8 FF  FF 7F 74 6C 6B 30 5E 69   S........tlk0^i
0020: 64 6C 30 1C 01 80 00                              dl0....         
```

#### Opcodes

```
  0: 0x0011 [0x53] WAIT_SCHEDULER_TASK: Wait for scheduler "tlk0" with entities [EventEntity, EventEntity]
  1: 0x001E [0x5E] EventEntity goes idle (kills current action) (animation: "idl0")
  2: 0x0023 [0x1C] WAIT(30* ticks)
  3: 0x0026 [0x00] END_REQSTACK()
```

### Event 65535.3

#### Metadata

| Field        | Value   |
|--------------|---------|
| Entrypoint   | 0x0027  |
| Data Size    | 6 bytes |
| Instructions | 2       |

```
      00 01 02 03 04 05 06 07  08 09 0A 0B 0C 0D 0E 0F
      -- -- -- -- -- -- -- --  -- -- -- -- -- -- -- --
0020:                      5E  69 64 6C 30 00                  ^idl0.   
```

#### Opcodes

```
  0: 0x0027 [0x5E] EventEntity goes idle (kills current action) (animation: "idl0")
  1: 0x002C [0x00] END_REQSTACK()
```

### Event 65535.4

#### Metadata

| Field        | Value    |
|--------------|----------|
| Entrypoint   | 0x002D   |
| Data Size    | 16 bytes |
| Instructions | 2        |

```
      00 01 02 03 04 05 06 07  08 09 0A 0B 0C 0D 0E 0F
      -- -- -- -- -- -- -- --  -- -- -- -- -- -- -- --
0020:                                         66 00 80               f..
0030: F8 FF FF 7F F8 FF FF 7F  70 6F 69 30 00           ........poi0.   
```

#### Opcodes

```
  0: 0x002D [0x66] LOAD_EXT_SCHEDULER_MAIN: Load scheduler "poi0" with entities [EventEntity, EventEntity], work=40*
  1: 0x003C [0x00] END_REQSTACK()
```

### Event 65535.5

#### Metadata

| Field        | Value    |
|--------------|----------|
| Entrypoint   | 0x003D   |
| Data Size    | 14 bytes |
| Instructions | 2        |

```
      00 01 02 03 04 05 06 07  08 09 0A 0B 0C 0D 0E 0F
      -- -- -- -- -- -- -- --  -- -- -- -- -- -- -- --
0030:                                         53 F8 FF               S..
0040: FF 7F F8 FF FF 7F 70 6F  69 30 00                 ......poi0.     
```

#### Opcodes

```
  0: 0x003D [0x53] WAIT_SCHEDULER_TASK: Wait for scheduler "poi0" with entities [EventEntity, EventEntity]
  1: 0x004A [0x00] END_REQSTACK()
```

### Event 65535.6

#### Metadata

| Field        | Value    |
|--------------|----------|
| Entrypoint   | 0x004B   |
| Data Size    | 16 bytes |
| Instructions | 2        |

```
      00 01 02 03 04 05 06 07  08 09 0A 0B 0C 0D 0E 0F
      -- -- -- -- -- -- -- --  -- -- -- -- -- -- -- --
0040:                                   66 02 80 F8 FF             f....
0050: FF 7F F8 FF FF 7F 65 68  6E 30 00                 ......ehn0.     
```

#### Opcodes

```
  0: 0x004B [0x66] LOAD_EXT_SCHEDULER_MAIN: Load scheduler "ehn0" with entities [EventEntity, EventEntity], work=41*
  1: 0x005A [0x00] END_REQSTACK()
```

### Event 65535.7

#### Metadata

| Field        | Value    |
|--------------|----------|
| Entrypoint   | 0x005B   |
| Data Size    | 14 bytes |
| Instructions | 2        |

```
      00 01 02 03 04 05 06 07  08 09 0A 0B 0C 0D 0E 0F
      -- -- -- -- -- -- -- --  -- -- -- -- -- -- -- --
0050:                                   53 F8 FF FF 7F             S....
0060: F8 FF FF 7F 65 68 6E 30  00                       ....ehn0.       
```

#### Opcodes

```
  0: 0x005B [0x53] WAIT_SCHEDULER_TASK: Wait for scheduler "ehn0" with entities [EventEntity, EventEntity]
  1: 0x0068 [0x00] END_REQSTACK()
```

### Event 65535.8

#### Metadata

| Field        | Value    |
|--------------|----------|
| Entrypoint   | 0x0069   |
| Data Size    | 16 bytes |
| Instructions | 2        |

```
      00 01 02 03 04 05 06 07  08 09 0A 0B 0C 0D 0E 0F
      -- -- -- -- -- -- -- --  -- -- -- -- -- -- -- --
0060:                             66 02 80 F8 FF FF 7F           f......
0070: F8 FF FF 7F 65 68 6E 31  00                       ....ehn1.       
```

#### Opcodes

```
  0: 0x0069 [0x66] LOAD_EXT_SCHEDULER_MAIN: Load scheduler "ehn1" with entities [EventEntity, EventEntity], work=41*
  1: 0x0078 [0x00] END_REQSTACK()
```

### Event 65535.9

#### Metadata

| Field        | Value    |
|--------------|----------|
| Entrypoint   | 0x0079   |
| Data Size    | 14 bytes |
| Instructions | 2        |

```
      00 01 02 03 04 05 06 07  08 09 0A 0B 0C 0D 0E 0F
      -- -- -- -- -- -- -- --  -- -- -- -- -- -- -- --
0070:                             53 F8 FF FF 7F F8 FF           S......
0080: FF 7F 65 68 6E 31 00                              ..ehn1.         
```

#### Opcodes

```
  0: 0x0079 [0x53] WAIT_SCHEDULER_TASK: Wait for scheduler "ehn1" with entities [EventEntity, EventEntity]
  1: 0x0086 [0x00] END_REQSTACK()
```

### Event 65535.10

#### Metadata

| Field        | Value    |
|--------------|----------|
| Entrypoint   | 0x0087   |
| Data Size    | 16 bytes |
| Instructions | 2        |

```
      00 01 02 03 04 05 06 07  08 09 0A 0B 0C 0D 0E 0F
      -- -- -- -- -- -- -- --  -- -- -- -- -- -- -- --
0080:                      66  00 80 F8 FF FF 7F F8 FF         f........
0090: FF 7F 7A 69 74 30 00                              ..zit0.         
```

#### Opcodes

```
  0: 0x0087 [0x66] LOAD_EXT_SCHEDULER_MAIN: Load scheduler "zit0" with entities [EventEntity, EventEntity], work=40*
  1: 0x0096 [0x00] END_REQSTACK()
```

### Event 65535.11

#### Metadata

| Field        | Value    |
|--------------|----------|
| Entrypoint   | 0x0097   |
| Data Size    | 14 bytes |
| Instructions | 2        |

```
      00 01 02 03 04 05 06 07  08 09 0A 0B 0C 0D 0E 0F
      -- -- -- -- -- -- -- --  -- -- -- -- -- -- -- --
0090:                      53  F8 FF FF 7F F8 FF FF 7F         S........
00A0: 7A 69 74 30 00                                    zit0.           
```

#### Opcodes

```
  0: 0x0097 [0x53] WAIT_SCHEDULER_TASK: Wait for scheduler "zit0" with entities [EventEntity, EventEntity]
  1: 0x00A4 [0x00] END_REQSTACK()
```

### Event 65535.12

#### Metadata

| Field        | Value    |
|--------------|----------|
| Entrypoint   | 0x00A5   |
| Data Size    | 16 bytes |
| Instructions | 2        |

```
      00 01 02 03 04 05 06 07  08 09 0A 0B 0C 0D 0E 0F
      -- -- -- -- -- -- -- --  -- -- -- -- -- -- -- --
00A0:                66 00 80  F8 FF FF 7F F8 FF FF 7F       f..........
00B0: 77 61 69 30 00                                    wai0.           
```

#### Opcodes

```
  0: 0x00A5 [0x66] LOAD_EXT_SCHEDULER_MAIN: Load scheduler "wai0" with entities [EventEntity, EventEntity], work=40*
  1: 0x00B4 [0x00] END_REQSTACK()
```

### Event 65535.13

#### Metadata

| Field        | Value    |
|--------------|----------|
| Entrypoint   | 0x00B5   |
| Data Size    | 14 bytes |
| Instructions | 2        |

```
      00 01 02 03 04 05 06 07  08 09 0A 0B 0C 0D 0E 0F
      -- -- -- -- -- -- -- --  -- -- -- -- -- -- -- --
00B0:                53 F8 FF  FF 7F F8 FF FF 7F 77 61       S........wa
00C0: 69 30 00                                          i0.             
```

#### Opcodes

```
  0: 0x00B5 [0x53] WAIT_SCHEDULER_TASK: Wait for scheduler "wai0" with entities [EventEntity, EventEntity]
  1: 0x00C2 [0x00] END_REQSTACK()
```

### Event 65535.14

#### Metadata

| Field        | Value    |
|--------------|----------|
| Entrypoint   | 0x00C3   |
| Data Size    | 16 bytes |
| Instructions | 2        |

```
      00 01 02 03 04 05 06 07  08 09 0A 0B 0C 0D 0E 0F
      -- -- -- -- -- -- -- --  -- -- -- -- -- -- -- --
00C0:          66 00 80 F8 FF  FF 7F F8 FF FF 7F 74 68     f..........th
00D0: 6B 31 00                                          k1.             
```

#### Opcodes

```
  0: 0x00C3 [0x66] LOAD_EXT_SCHEDULER_MAIN: Load scheduler "thk1" with entities [EventEntity, EventEntity], work=40*
  1: 0x00D2 [0x00] END_REQSTACK()
```

### Event 65535.15

#### Metadata

| Field        | Value    |
|--------------|----------|
| Entrypoint   | 0x00D3   |
| Data Size    | 14 bytes |
| Instructions | 2        |

```
      00 01 02 03 04 05 06 07  08 09 0A 0B 0C 0D 0E 0F
      -- -- -- -- -- -- -- --  -- -- -- -- -- -- -- --
00D0:          53 F8 FF FF 7F  F8 FF FF 7F 74 68 6B 31     S........thk1
00E0: 00                                                .               
```

#### Opcodes

```
  0: 0x00D3 [0x53] WAIT_SCHEDULER_TASK: Wait for scheduler "thk1" with entities [EventEntity, EventEntity]
  1: 0x00E0 [0x00] END_REQSTACK()
```

### Event 65535.16

#### Metadata

| Field        | Value    |
|--------------|----------|
| Entrypoint   | 0x00E1   |
| Data Size    | 16 bytes |
| Instructions | 2        |

```
      00 01 02 03 04 05 06 07  08 09 0A 0B 0C 0D 0E 0F
      -- -- -- -- -- -- -- --  -- -- -- -- -- -- -- --
00E0:    66 00 80 F8 FF FF 7F  F8 FF FF 7F 74 68 6B 32   f..........thk2
00F0: 00                                                .               
```

#### Opcodes

```
  0: 0x00E1 [0x66] LOAD_EXT_SCHEDULER_MAIN: Load scheduler "thk2" with entities [EventEntity, EventEntity], work=40*
  1: 0x00F0 [0x00] END_REQSTACK()
```

### Event 65535.17

#### Metadata

| Field        | Value    |
|--------------|----------|
| Entrypoint   | 0x00F1   |
| Data Size    | 14 bytes |
| Instructions | 2        |

```
      00 01 02 03 04 05 06 07  08 09 0A 0B 0C 0D 0E 0F
      -- -- -- -- -- -- -- --  -- -- -- -- -- -- -- --
00F0:    53 F8 FF FF 7F F8 FF  FF 7F 74 68 6B 32 00      S........thk2. 
```

#### Opcodes

```
  0: 0x00F1 [0x53] WAIT_SCHEDULER_TASK: Wait for scheduler "thk2" with entities [EventEntity, EventEntity]
  1: 0x00FE [0x00] END_REQSTACK()
```

### Event 65535.18

#### Metadata

| Field        | Value    |
|--------------|----------|
| Entrypoint   | 0x00FF   |
| Data Size    | 16 bytes |
| Instructions | 2        |

```
      00 01 02 03 04 05 06 07  08 09 0A 0B 0C 0D 0E 0F
      -- -- -- -- -- -- -- --  -- -- -- -- -- -- -- --
00F0:                                               66                 f
0100: 00 80 F8 FF FF 7F F8 FF  FF 7F 6F 62 69 30 00     ..........obi0. 
```

#### Opcodes

```
  0: 0x00FF [0x66] LOAD_EXT_SCHEDULER_MAIN: Load scheduler "obi0" with entities [EventEntity, EventEntity], work=40*
  1: 0x010E [0x00] END_REQSTACK()
```

### Event 65535.19

#### Metadata

| Field        | Value    |
|--------------|----------|
| Entrypoint   | 0x010F   |
| Data Size    | 14 bytes |
| Instructions | 2        |

```
      00 01 02 03 04 05 06 07  08 09 0A 0B 0C 0D 0E 0F
      -- -- -- -- -- -- -- --  -- -- -- -- -- -- -- --
0100:                                               53                 S
0110: F8 FF FF 7F F8 FF FF 7F  6F 62 69 30 00           ........obi0.   
```

#### Opcodes

```
  0: 0x010F [0x53] WAIT_SCHEDULER_TASK: Wait for scheduler "obi0" with entities [EventEntity, EventEntity]
  1: 0x011C [0x00] END_REQSTACK()
```

### Event 65535.20

#### Metadata

| Field        | Value    |
|--------------|----------|
| Entrypoint   | 0x011D   |
| Data Size    | 16 bytes |
| Instructions | 2        |

```
      00 01 02 03 04 05 06 07  08 09 0A 0B 0C 0D 0E 0F
      -- -- -- -- -- -- -- --  -- -- -- -- -- -- -- --
0110:                                         66 00 80               f..
0120: F8 FF FF 7F F8 FF FF 7F  6F 62 69 31 00           ........obi1.   
```

#### Opcodes

```
  0: 0x011D [0x66] LOAD_EXT_SCHEDULER_MAIN: Load scheduler "obi1" with entities [EventEntity, EventEntity], work=40*
  1: 0x012C [0x00] END_REQSTACK()
```

### Event 65535.21

#### Metadata

| Field        | Value    |
|--------------|----------|
| Entrypoint   | 0x012D   |
| Data Size    | 14 bytes |
| Instructions | 2        |

```
      00 01 02 03 04 05 06 07  08 09 0A 0B 0C 0D 0E 0F
      -- -- -- -- -- -- -- --  -- -- -- -- -- -- -- --
0120:                                         53 F8 FF               S..
0130: FF 7F F8 FF FF 7F 6F 62  69 31 00                 ......obi1.     
```

#### Opcodes

```
  0: 0x012D [0x53] WAIT_SCHEDULER_TASK: Wait for scheduler "obi1" with entities [EventEntity, EventEntity]
  1: 0x013A [0x00] END_REQSTACK()
```

### Event 65535.22

#### Metadata

| Field        | Value    |
|--------------|----------|
| Entrypoint   | 0x013B   |
| Data Size    | 16 bytes |
| Instructions | 2        |

```
      00 01 02 03 04 05 06 07  08 09 0A 0B 0C 0D 0E 0F
      -- -- -- -- -- -- -- --  -- -- -- -- -- -- -- --
0130:                                   66 03 80 F8 FF             f....
0140: FF 7F F8 FF FF 7F 62 69  6B 30 00                 ......bik0.     
```

#### Opcodes

```
  0: 0x013B [0x66] LOAD_EXT_SCHEDULER_MAIN: Load scheduler "bik0" with entities [EventEntity, EventEntity], work=42*
  1: 0x014A [0x00] END_REQSTACK()
```

### Event 65535.23

#### Metadata

| Field        | Value    |
|--------------|----------|
| Entrypoint   | 0x014B   |
| Data Size    | 14 bytes |
| Instructions | 2        |

```
      00 01 02 03 04 05 06 07  08 09 0A 0B 0C 0D 0E 0F
      -- -- -- -- -- -- -- --  -- -- -- -- -- -- -- --
0140:                                   53 F8 FF FF 7F             S....
0150: F8 FF FF 7F 62 69 6B 30  00                       ....bik0.       
```

#### Opcodes

```
  0: 0x014B [0x53] WAIT_SCHEDULER_TASK: Wait for scheduler "bik0" with entities [EventEntity, EventEntity]
  1: 0x0158 [0x00] END_REQSTACK()
```

### Event 65535.24

#### Metadata

| Field        | Value    |
|--------------|----------|
| Entrypoint   | 0x0159   |
| Data Size    | 16 bytes |
| Instructions | 2        |

```
      00 01 02 03 04 05 06 07  08 09 0A 0B 0C 0D 0E 0F
      -- -- -- -- -- -- -- --  -- -- -- -- -- -- -- --
0150:                             66 03 80 F8 FF FF 7F           f......
0160: F8 FF FF 7F 62 69 6B 31  00                       ....bik1.       
```

#### Opcodes

```
  0: 0x0159 [0x66] LOAD_EXT_SCHEDULER_MAIN: Load scheduler "bik1" with entities [EventEntity, EventEntity], work=42*
  1: 0x0168 [0x00] END_REQSTACK()
```

### Event 65535.25

#### Metadata

| Field        | Value    |
|--------------|----------|
| Entrypoint   | 0x0169   |
| Data Size    | 14 bytes |
| Instructions | 2        |

```
      00 01 02 03 04 05 06 07  08 09 0A 0B 0C 0D 0E 0F
      -- -- -- -- -- -- -- --  -- -- -- -- -- -- -- --
0160:                             53 F8 FF FF 7F F8 FF           S......
0170: FF 7F 62 69 6B 31 00                              ..bik1.         
```

#### Opcodes

```
  0: 0x0169 [0x53] WAIT_SCHEDULER_TASK: Wait for scheduler "bik1" with entities [EventEntity, EventEntity]
  1: 0x0176 [0x00] END_REQSTACK()
```

### Event 65535.26

#### Metadata

| Field        | Value    |
|--------------|----------|
| Entrypoint   | 0x0177   |
| Data Size    | 16 bytes |
| Instructions | 2        |

```
      00 01 02 03 04 05 06 07  08 09 0A 0B 0C 0D 0E 0F
      -- -- -- -- -- -- -- --  -- -- -- -- -- -- -- --
0170:                      66  02 80 F8 FF FF 7F F8 FF         f........
0180: FF 7F 73 68 6B 30 00                              ..shk0.         
```

#### Opcodes

```
  0: 0x0177 [0x66] LOAD_EXT_SCHEDULER_MAIN: Load scheduler "shk0" with entities [EventEntity, EventEntity], work=41*
  1: 0x0186 [0x00] END_REQSTACK()
```

### Event 65535.27

#### Metadata

| Field        | Value    |
|--------------|----------|
| Entrypoint   | 0x0187   |
| Data Size    | 14 bytes |
| Instructions | 2        |

```
      00 01 02 03 04 05 06 07  08 09 0A 0B 0C 0D 0E 0F
      -- -- -- -- -- -- -- --  -- -- -- -- -- -- -- --
0180:                      53  F8 FF FF 7F F8 FF FF 7F         S........
0190: 73 68 6B 30 00                                    shk0.           
```

#### Opcodes

```
  0: 0x0187 [0x53] WAIT_SCHEDULER_TASK: Wait for scheduler "shk0" with entities [EventEntity, EventEntity]
  1: 0x0194 [0x00] END_REQSTACK()
```

### Event 65535.28

#### Metadata

| Field        | Value    |
|--------------|----------|
| Entrypoint   | 0x0195   |
| Data Size    | 16 bytes |
| Instructions | 2        |

```
      00 01 02 03 04 05 06 07  08 09 0A 0B 0C 0D 0E 0F
      -- -- -- -- -- -- -- --  -- -- -- -- -- -- -- --
0190:                66 00 80  F8 FF FF 7F F8 FF FF 7F       f..........
01A0: 69 72 6F 30 00                                    iro0.           
```

#### Opcodes

```
  0: 0x0195 [0x66] LOAD_EXT_SCHEDULER_MAIN: Load scheduler "iro0" with entities [EventEntity, EventEntity], work=40*
  1: 0x01A4 [0x00] END_REQSTACK()
```

### Event 65535.29

#### Metadata

| Field        | Value    |
|--------------|----------|
| Entrypoint   | 0x01A5   |
| Data Size    | 14 bytes |
| Instructions | 2        |

```
      00 01 02 03 04 05 06 07  08 09 0A 0B 0C 0D 0E 0F
      -- -- -- -- -- -- -- --  -- -- -- -- -- -- -- --
01A0:                53 F8 FF  FF 7F F8 FF FF 7F 69 72       S........ir
01B0: 6F 30 00                                          o0.             
```

#### Opcodes

```
  0: 0x01A5 [0x53] WAIT_SCHEDULER_TASK: Wait for scheduler "iro0" with entities [EventEntity, EventEntity]
  1: 0x01B2 [0x00] END_REQSTACK()
```

### Event 65535.30

#### Metadata

| Field        | Value    |
|--------------|----------|
| Entrypoint   | 0x01B3   |
| Data Size    | 16 bytes |
| Instructions | 2        |

```
      00 01 02 03 04 05 06 07  08 09 0A 0B 0C 0D 0E 0F
      -- -- -- -- -- -- -- --  -- -- -- -- -- -- -- --
01B0:          66 00 80 F8 FF  FF 7F F8 FF FF 7F 64 69     f..........di
01C0: 73 30 00                                          s0.             
```

#### Opcodes

```
  0: 0x01B3 [0x66] LOAD_EXT_SCHEDULER_MAIN: Load scheduler "dis0" with entities [EventEntity, EventEntity], work=40*
  1: 0x01C2 [0x00] END_REQSTACK()
```

### Event 65535.31

#### Metadata

| Field        | Value    |
|--------------|----------|
| Entrypoint   | 0x01C3   |
| Data Size    | 14 bytes |
| Instructions | 2        |

```
      00 01 02 03 04 05 06 07  08 09 0A 0B 0C 0D 0E 0F
      -- -- -- -- -- -- -- --  -- -- -- -- -- -- -- --
01C0:          53 F8 FF FF 7F  F8 FF FF 7F 64 69 73 30     S........dis0
01D0: 00                                                .               
```

#### Opcodes

```
  0: 0x01C3 [0x53] WAIT_SCHEDULER_TASK: Wait for scheduler "dis0" with entities [EventEntity, EventEntity]
  1: 0x01D0 [0x00] END_REQSTACK()
```

### Event 65535.32

#### Metadata

| Field        | Value    |
|--------------|----------|
| Entrypoint   | 0x01D1   |
| Data Size    | 16 bytes |
| Instructions | 2        |

```
      00 01 02 03 04 05 06 07  08 09 0A 0B 0C 0D 0E 0F
      -- -- -- -- -- -- -- --  -- -- -- -- -- -- -- --
01D0:    66 00 80 F8 FF FF 7F  F8 FF FF 7F 77 61 76 30   f..........wav0
01E0: 00                                                .               
```

#### Opcodes

```
  0: 0x01D1 [0x66] LOAD_EXT_SCHEDULER_MAIN: Load scheduler "wav0" with entities [EventEntity, EventEntity], work=40*
  1: 0x01E0 [0x00] END_REQSTACK()
```

### Event 65535.33

#### Metadata

| Field        | Value    |
|--------------|----------|
| Entrypoint   | 0x01E1   |
| Data Size    | 14 bytes |
| Instructions | 2        |

```
      00 01 02 03 04 05 06 07  08 09 0A 0B 0C 0D 0E 0F
      -- -- -- -- -- -- -- --  -- -- -- -- -- -- -- --
01E0:    53 F8 FF FF 7F F8 FF  FF 7F 77 61 76 30 00      S........wav0. 
```

#### Opcodes

```
  0: 0x01E1 [0x53] WAIT_SCHEDULER_TASK: Wait for scheduler "wav0" with entities [EventEntity, EventEntity]
  1: 0x01EE [0x00] END_REQSTACK()
```

### Event 65535.34

#### Metadata

| Field        | Value    |
|--------------|----------|
| Entrypoint   | 0x01EF   |
| Data Size    | 16 bytes |
| Instructions | 2        |

```
      00 01 02 03 04 05 06 07  08 09 0A 0B 0C 0D 0E 0F
      -- -- -- -- -- -- -- --  -- -- -- -- -- -- -- --
01E0:                                               66                 f
01F0: 00 80 F8 FF FF 7F F8 FF  FF 7F 70 61 73 30 00     ..........pas0. 
```

#### Opcodes

```
  0: 0x01EF [0x66] LOAD_EXT_SCHEDULER_MAIN: Load scheduler "pas0" with entities [EventEntity, EventEntity], work=40*
  1: 0x01FE [0x00] END_REQSTACK()
```

### Event 65535.35

#### Metadata

| Field        | Value    |
|--------------|----------|
| Entrypoint   | 0x01FF   |
| Data Size    | 14 bytes |
| Instructions | 2        |

```
      00 01 02 03 04 05 06 07  08 09 0A 0B 0C 0D 0E 0F
      -- -- -- -- -- -- -- --  -- -- -- -- -- -- -- --
01F0:                                               53                 S
0200: F8 FF FF 7F F8 FF FF 7F  70 61 73 30 00           ........pas0.   
```

#### Opcodes

```
  0: 0x01FF [0x53] WAIT_SCHEDULER_TASK: Wait for scheduler "pas0" with entities [EventEntity, EventEntity]
  1: 0x020C [0x00] END_REQSTACK()
```

### Event 65535.36

#### Metadata

| Field        | Value    |
|--------------|----------|
| Entrypoint   | 0x020D   |
| Data Size    | 16 bytes |
| Instructions | 2        |

```
      00 01 02 03 04 05 06 07  08 09 0A 0B 0C 0D 0E 0F
      -- -- -- -- -- -- -- --  -- -- -- -- -- -- -- --
0200:                                         66 03 80               f..
0210: F8 FF FF 7F F8 FF FF 7F  74 65 68 30 00           ........teh0.   
```

#### Opcodes

```
  0: 0x020D [0x66] LOAD_EXT_SCHEDULER_MAIN: Load scheduler "teh0" with entities [EventEntity, EventEntity], work=42*
  1: 0x021C [0x00] END_REQSTACK()
```

### Event 65535.37

#### Metadata

| Field        | Value    |
|--------------|----------|
| Entrypoint   | 0x021D   |
| Data Size    | 14 bytes |
| Instructions | 2        |

```
      00 01 02 03 04 05 06 07  08 09 0A 0B 0C 0D 0E 0F
      -- -- -- -- -- -- -- --  -- -- -- -- -- -- -- --
0210:                                         53 F8 FF               S..
0220: FF 7F F8 FF FF 7F 74 65  68 30 00                 ......teh0.     
```

#### Opcodes

```
  0: 0x021D [0x53] WAIT_SCHEDULER_TASK: Wait for scheduler "teh0" with entities [EventEntity, EventEntity]
  1: 0x022A [0x00] END_REQSTACK()
```

### Event 65535.38

#### Metadata

| Field        | Value    |
|--------------|----------|
| Entrypoint   | 0x022B   |
| Data Size    | 16 bytes |
| Instructions | 2        |

```
      00 01 02 03 04 05 06 07  08 09 0A 0B 0C 0D 0E 0F
      -- -- -- -- -- -- -- --  -- -- -- -- -- -- -- --
0220:                                   66 03 80 F8 FF             f....
0230: FF 7F F8 FF FF 7F 74 65  68 31 00                 ......teh1.     
```

#### Opcodes

```
  0: 0x022B [0x66] LOAD_EXT_SCHEDULER_MAIN: Load scheduler "teh1" with entities [EventEntity, EventEntity], work=42*
  1: 0x023A [0x00] END_REQSTACK()
```

### Event 65535.39

#### Metadata

| Field        | Value    |
|--------------|----------|
| Entrypoint   | 0x023B   |
| Data Size    | 14 bytes |
| Instructions | 2        |

```
      00 01 02 03 04 05 06 07  08 09 0A 0B 0C 0D 0E 0F
      -- -- -- -- -- -- -- --  -- -- -- -- -- -- -- --
0230:                                   53 F8 FF FF 7F             S....
0240: F8 FF FF 7F 74 65 68 31  00                       ....teh1.       
```

#### Opcodes

```
  0: 0x023B [0x53] WAIT_SCHEDULER_TASK: Wait for scheduler "teh1" with entities [EventEntity, EventEntity]
  1: 0x0248 [0x00] END_REQSTACK()
```

### Event 20

#### Metadata

| Field        | Value    |
|--------------|----------|
| Entrypoint   | 0x0249   |
| Data Size    | 33 bytes |
| Instructions | 12       |

```
      00 01 02 03 04 05 06 07  08 09 0A 0B 0C 0D 0E 0F
      -- -- -- -- -- -- -- --  -- -- -- -- -- -- -- --
0240:                             1E F0 FF FF 7F 6F 70           .....op
0250: 29 08 6B B1 10 01 12 1D  04 80 23 1D 05 80 23 29  ).k.......#...#)
0260: 08 6B B1 10 01 13 20 00  21 00                    .k.... .!.      
```

#### Opcodes

```
  0: 0x0249 [0x1E] EventEntity looks at LocalPlayer and starts talking
  1: 0x024E [0x6F] WAIT_FRAME_DELAY: Yield until WaitTime reaches zero
  2: 0x024F [0x70] WAIT_ENTITY_RENDER_FLAG: Wait while EventEntity->Render.Flags3 bit 2 is set (cancel turn if not)
  3: 0x0250 [0x29] REQ_SET_WAIT(priority=0x08, entity_id=Peppe-Aleppe (ID: 17871211/0x0110B16B), tag_num=0x12)
  4: 0x0257 [0x1D] PRINT_EVENT_MESSAGE(message_id=7747*)
    → "It's f-freezing-weezing out here! Why are we colonizing such a terrible place?"
  5: 0x025A [0x23] WAIT_FOR_DIALOG_INTERACTION
  6: 0x025B [0x1D] PRINT_EVENT_MESSAGE(message_id=7748*)
    → "I suppose I'm bettaru off than most, though, given that I'm both small and compact..."
  7: 0x025E [0x23] WAIT_FOR_DIALOG_INTERACTION
  8: 0x025F [0x29] REQ_SET_WAIT(priority=0x08, entity_id=Peppe-Aleppe (ID: 17871211/0x0110B16B), tag_num=0x13)
  9: 0x0266 [0x20] SET_CLI_EVENT_UC_FLAG: Unlock player control
 10: 0x0268 [0x21] END_EVENT
 11: 0x0269 [0x00] END_REQSTACK()
```

### Event 22

#### Metadata

| Field        | Value    |
|--------------|----------|
| Entrypoint   | 0x026A   |
| Data Size    | 76 bytes |
| Instructions | 23       |

```
      00 01 02 03 04 05 06 07  08 09 0A 0B 0C 0D 0E 0F
      -- -- -- -- -- -- -- --  -- -- -- -- -- -- -- --
0260:                                1E F0 FF FF 7F 6F            .....o
0270: 70 29 08 6B B1 10 01 12  1D 06 80 23 1D 07 80 23  p).k.......#...#
0280: 29 08 6B B1 10 01 13 29  08 6B B1 10 01 14 29 08  ).k....).k....).
0290: 6B B1 10 01 15 1E 6A B1  10 01 6F 70 29 08 6B B1  k.....j...op).k.
02A0: 10 01 04 1D 08 80 23 29  08 6B B1 10 01 05 1D 09  ......#).k......
02B0: 80 23 20 00 21 00                                 .# .!.          
```

#### Opcodes

```
  0: 0x026A [0x1E] EventEntity looks at LocalPlayer and starts talking
  1: 0x026F [0x6F] WAIT_FRAME_DELAY: Yield until WaitTime reaches zero
  2: 0x0270 [0x70] WAIT_ENTITY_RENDER_FLAG: Wait while EventEntity->Render.Flags3 bit 2 is set (cancel turn if not)
  3: 0x0271 [0x29] REQ_SET_WAIT(priority=0x08, entity_id=Peppe-Aleppe (ID: 17871211/0x0110B16B), tag_num=0x12)
  4: 0x0278 [0x1D] PRINT_EVENT_MESSAGE(message_id=7751*)
    → "When I said that we should put c-c-colonization on icey-wice, this isn't what I had in mind! Brrr..."
  5: 0x027B [0x23] WAIT_FOR_DIALOG_INTERACTION
  6: 0x027C [0x1D] PRINT_EVENT_MESSAGE(message_id=7752*)
    → "The terrain is rugged enough on its own, with all these tuftarus of snow...but ice walls blocking our progress? It's t-too much!"
  7: 0x027F [0x23] WAIT_FOR_DIALOG_INTERACTION
  8: 0x0280 [0x29] REQ_SET_WAIT(priority=0x08, entity_id=Peppe-Aleppe (ID: 17871211/0x0110B16B), tag_num=0x13)
  9: 0x0287 [0x29] REQ_SET_WAIT(priority=0x08, entity_id=Peppe-Aleppe (ID: 17871211/0x0110B16B), tag_num=0x14)
 10: 0x028E [0x29] REQ_SET_WAIT(priority=0x08, entity_id=Peppe-Aleppe (ID: 17871211/0x0110B16B), tag_num=0x15)
 11: 0x0295 [0x1E] EventEntity looks at Traiffeaux (ID: 17871210/0x0110B16A) and starts talking
 12: 0x029A [0x6F] WAIT_FRAME_DELAY: Yield until WaitTime reaches zero
 13: 0x029B [0x70] WAIT_ENTITY_RENDER_FLAG: Wait while EventEntity->Render.Flags3 bit 2 is set (cancel turn if not)
 14: 0x029C [0x29] REQ_SET_WAIT(priority=0x08, entity_id=Peppe-Aleppe (ID: 17871211/0x0110B16B), tag_num=0x04)
 15: 0x02A3 [0x1D] PRINT_EVENT_MESSAGE(message_id=7753*)
    → "Thankfully, my geomancer friend Traiffeaux can crush them into a fine powder!"
 16: 0x02A6 [0x23] WAIT_FOR_DIALOG_INTERACTION
 17: 0x02A7 [0x29] REQ_SET_WAIT(priority=0x08, entity_id=Peppe-Aleppe (ID: 17871211/0x0110B16B), tag_num=0x05)
 18: 0x02AE [0x1D] PRINT_EVENT_MESSAGE(message_id=7754*)
    → "I say "thankfully," but he's been babbling like a baby for the pastaru I-don't-know-how-many hours."
 19: 0x02B1 [0x23] WAIT_FOR_DIALOG_INTERACTION
 20: 0x02B2 [0x20] SET_CLI_EVENT_UC_FLAG: Unlock player control
 21: 0x02B4 [0x21] END_EVENT
 22: 0x02B5 [0x00] END_REQSTACK()
```

### Event 40

#### Metadata

| Field        | Value   |
|--------------|---------|
| Entrypoint   | 0x02B6  |
| Data Size    | 1 bytes |
| Instructions | 1       |

```
      00 01 02 03 04 05 06 07  08 09 0A 0B 0C 0D 0E 0F
      -- -- -- -- -- -- -- --  -- -- -- -- -- -- -- --
02B0:                   00                                    .         
```

#### Opcodes

```
  0: 0x02B6 [0x00] END_REQSTACK()
```

### Event 42

#### Metadata

| Field        | Value   |
|--------------|---------|
| Entrypoint   | 0x02B7  |
| Data Size    | 1 bytes |
| Instructions | 1       |

```
      00 01 02 03 04 05 06 07  08 09 0A 0B 0C 0D 0E 0F
      -- -- -- -- -- -- -- --  -- -- -- -- -- -- -- --
02B0:                      00                                  .        
```

#### Opcodes

```
  0: 0x02B7 [0x00] END_REQSTACK()
```

### Event 41

#### Metadata

| Field        | Value    |
|--------------|----------|
| Entrypoint   | 0x02B8   |
| Data Size    | 56 bytes |
| Instructions | 17       |

```
      00 01 02 03 04 05 06 07  08 09 0A 0B 0C 0D 0E 0F
      -- -- -- -- -- -- -- --  -- -- -- -- -- -- -- --
02B0:                          1E F0 FF FF 7F 6F 70 29          .....op)
02C0: 08 6B B1 10 01 0E 03 03  10 0A 80 1D 0B 80 23 1D  .k............#.
02D0: 0C 80 23 29 08 6B B1 10  01 0F 29 08 6B B1 10 01  ..#).k....).k...
02E0: 10 1D 0D 80 23 29 08 6B  B1 10 01 11 20 00 21 00  ....#).k.... .!.
```

#### Opcodes

```
  0: 0x02B8 [0x1E] EventEntity looks at LocalPlayer and starts talking
  1: 0x02BD [0x6F] WAIT_FRAME_DELAY: Yield until WaitTime reaches zero
  2: 0x02BE [0x70] WAIT_ENTITY_RENDER_FLAG: Wait while EventEntity->Render.Flags3 bit 2 is set (cancel turn if not)
  3: 0x02BF [0x29] REQ_SET_WAIT(priority=0x08, entity_id=Peppe-Aleppe (ID: 17871211/0x0110B16B), tag_num=0x0E)
  4: 0x02C6 [0x03] Work_Zone[3] = 2755*
  5: 0x02CB [0x1D] PRINT_EVENT_MESSAGE(message_id=7831*)
    → "Orsa-Porsa wanted you to get one $1. I have a suspicion he's more interested in his surveys than actually helping-welping me out..."
  6: 0x02CE [0x23] WAIT_FOR_DIALOG_INTERACTION
  7: 0x02CF [0x1D] PRINT_EVENT_MESSAGE(message_id=7832*)
    → "But even if he's not, I'm no inventaru! Maybe I could make some kind of shovel to break down those thick walls of ice..."
  8: 0x02D2 [0x23] WAIT_FOR_DIALOG_INTERACTION
  9: 0x02D3 [0x29] REQ_SET_WAIT(priority=0x08, entity_id=Peppe-Aleppe (ID: 17871211/0x0110B16B), tag_num=0x0F)
 10: 0x02DA [0x29] REQ_SET_WAIT(priority=0x08, entity_id=Peppe-Aleppe (ID: 17871211/0x0110B16B), tag_num=0x10)
 11: 0x02E1 [0x1D] PRINT_EVENT_MESSAGE(message_id=7833*)
    → "Hmm...that wouldn't work, though, because Traiffeaux's already found-wound some geomantic way to get around those...hmm..."
 12: 0x02E4 [0x23] WAIT_FOR_DIALOG_INTERACTION
 13: 0x02E5 [0x29] REQ_SET_WAIT(priority=0x08, entity_id=Peppe-Aleppe (ID: 17871211/0x0110B16B), tag_num=0x11)
 14: 0x02EC [0x20] SET_CLI_EVENT_UC_FLAG: Unlock player control
 15: 0x02EE [0x21] END_EVENT
 16: 0x02EF [0x00] END_REQSTACK()
```

### Event 43

#### Metadata

| Field        | Value    |
|--------------|----------|
| Entrypoint   | 0x02F0   |
| Data Size    | 33 bytes |
| Instructions | 12       |

```
      00 01 02 03 04 05 06 07  08 09 0A 0B 0C 0D 0E 0F
      -- -- -- -- -- -- -- --  -- -- -- -- -- -- -- --
02F0: 1E F0 FF FF 7F 6F 70 29  08 6B B1 10 01 01 1D 0E  .....op).k......
0300: 80 23 1D 0F 80 23 29 08  6B B1 10 01 02 20 00 21  .#...#).k.... .!
0310: 00                                                .               
```

#### Opcodes

```
  0: 0x02F0 [0x1E] EventEntity looks at LocalPlayer and starts talking
  1: 0x02F5 [0x6F] WAIT_FRAME_DELAY: Yield until WaitTime reaches zero
  2: 0x02F6 [0x70] WAIT_ENTITY_RENDER_FLAG: Wait while EventEntity->Render.Flags3 bit 2 is set (cancel turn if not)
  3: 0x02F7 [0x29] REQ_SET_WAIT(priority=0x08, entity_id=Peppe-Aleppe (ID: 17871211/0x0110B16B), tag_num=0x01)
  4: 0x02FE [0x1D] PRINT_EVENT_MESSAGE(message_id=7863*)
    → "Did you see the way Orsa-Porsa danced-wanced out of here? We gave him a new lease on life!"
  5: 0x0301 [0x23] WAIT_FOR_DIALOG_INTERACTION
  6: 0x0302 [0x1D] PRINT_EVENT_MESSAGE(message_id=7864*)
    → "Mind over mattaru. It's just as cold as before, but if the oil makes him happy, then that's great!"
  7: 0x0305 [0x23] WAIT_FOR_DIALOG_INTERACTION
  8: 0x0306 [0x29] REQ_SET_WAIT(priority=0x08, entity_id=Peppe-Aleppe (ID: 17871211/0x0110B16B), tag_num=0x02)
  9: 0x030D [0x20] SET_CLI_EVENT_UC_FLAG: Unlock player control
 10: 0x030F [0x21] END_EVENT
 11: 0x0310 [0x00] END_REQSTACK()
```

### Event 65535.40

#### Metadata

| Field        | Value    |
|--------------|----------|
| Entrypoint   | 0x0311   |
| Data Size    | 14 bytes |
| Instructions | 4        |

```
      00 01 02 03 04 05 06 07  08 09 0A 0B 0C 0D 0E 0F
      -- -- -- -- -- -- -- --  -- -- -- -- -- -- -- --
0310:    32 10 80 1F 00 11 80  12 80 13 80 1F 01 00      2............. 
```

#### Opcodes

```
  0: 0x0311 [0x32] ExtData[1]->MainSpeed = 13* * 0.1
  1: 0x0314 [0x1F] MOVE_ENTITY: EventEntity moves to X=430.542*, Z=-285.179*, Y=65.113*
  2: 0x031C [0x1F] MOVE_ENTITY: Update entity position (mode=1)
  3: 0x031E [0x00] END_REQSTACK()
```

### Event 65535.41

#### Metadata

| Field        | Value    |
|--------------|----------|
| Entrypoint   | 0x031F   |
| Data Size    | 10 bytes |
| Instructions | 2        |

```
      00 01 02 03 04 05 06 07  08 09 0A 0B 0C 0D 0E 0F
      -- -- -- -- -- -- -- --  -- -- -- -- -- -- -- --
0310:                                               37                 7
0320: 14 80 15 80 16 80 17 80  00                       .........       
```

#### Opcodes

```
  0: 0x031F [0x37] UPDATE_EVENT_POSITION_AND_DIR: x=431.541*, z=-284.692*, y=65.000*, direction=210.9°*
  1: 0x0328 [0x00] END_REQSTACK()
```

### Event 65535.42

#### Metadata

| Field        | Value    |
|--------------|----------|
| Entrypoint   | 0x0329   |
| Data Size    | 14 bytes |
| Instructions | 4        |

```
      00 01 02 03 04 05 06 07  08 09 0A 0B 0C 0D 0E 0F
      -- -- -- -- -- -- -- --  -- -- -- -- -- -- -- --
0320:                             32 00 80 1F 00 18 80           2......
0330: 19 80 1A 80 1F 01 00                              .......         
```

#### Opcodes

```
  0: 0x0329 [0x32] ExtData[1]->MainSpeed = 40* * 0.1
  1: 0x032C [0x1F] MOVE_ENTITY: EventEntity moves to X=425.965*, Z=-288.397*, Y=65.374*
  2: 0x0334 [0x1F] MOVE_ENTITY: Update entity position (mode=1)
  3: 0x0336 [0x00] END_REQSTACK()
```

### Event 65535.43

#### Metadata

| Field        | Value    |
|--------------|----------|
| Entrypoint   | 0x0337   |
| Data Size    | 10 bytes |
| Instructions | 2        |

```
      00 01 02 03 04 05 06 07  08 09 0A 0B 0C 0D 0E 0F
      -- -- -- -- -- -- -- --  -- -- -- -- -- -- -- --
0330:                      37  1B 80 1C 80 1D 80 1E 80         7........
0340: 00                                                .               
```

#### Opcodes

```
  0: 0x0337 [0x37] UPDATE_EVENT_POSITION_AND_DIR: x=431.294*, z=-284.489*, y=64.999*, direction=294.8°*
  1: 0x0340 [0x00] END_REQSTACK()
```

### Event 65535.44

#### Metadata

| Field        | Value    |
|--------------|----------|
| Entrypoint   | 0x0341   |
| Data Size    | 52 bytes |
| Instructions | 10       |

```
      00 01 02 03 04 05 06 07  08 09 0A 0B 0C 0D 0E 0F
      -- -- -- -- -- -- -- --  -- -- -- -- -- -- -- --
0340:    32 10 80 1F 00 1F 80  20 80 21 80 1F 01 1E F0   2...... .!.....
0350: FF FF 7F 6F 70 1C 01 80  66 00 80 F8 FF FF 7F F8  ...op...f.......
0360: FF FF 7F 70 61 73 30 53  F8 FF FF 7F F8 FF FF 7F  ...pas0S........
0370: 70 61 73 30 00                                    pas0.           
```

#### Opcodes

```
  0: 0x0341 [0x32] ExtData[1]->MainSpeed = 13* * 0.1
  1: 0x0344 [0x1F] MOVE_ENTITY: EventEntity moves to X=430.018*, Z=-283.668*, Y=64.880*
  2: 0x034C [0x1F] MOVE_ENTITY: Update entity position (mode=1)
  3: 0x034E [0x1E] EventEntity looks at LocalPlayer and starts talking
  4: 0x0353 [0x6F] WAIT_FRAME_DELAY: Yield until WaitTime reaches zero
  5: 0x0354 [0x70] WAIT_ENTITY_RENDER_FLAG: Wait while EventEntity->Render.Flags3 bit 2 is set (cancel turn if not)
  6: 0x0355 [0x1C] WAIT(30* ticks)
  7: 0x0358 [0x66] LOAD_EXT_SCHEDULER_MAIN: Load scheduler "pas0" with entities [EventEntity, EventEntity], work=40*
  8: 0x0367 [0x53] WAIT_SCHEDULER_TASK: Wait for scheduler "pas0" with entities [EventEntity, EventEntity]
  9: 0x0374 [0x00] END_REQSTACK()
```

### Event 65535.45

#### Metadata

| Field        | Value    |
|--------------|----------|
| Entrypoint   | 0x0375   |
| Data Size    | 21 bytes |
| Instructions | 7        |

```
      00 01 02 03 04 05 06 07  08 09 0A 0B 0C 0D 0E 0F
      -- -- -- -- -- -- -- --  -- -- -- -- -- -- -- --
0370:                32 10 80  1F 00 22 80 23 80 24 80       2....".#.$.
0380: 1F 01 1E F0 FF FF 7F 6F  70 00                    .......op.      
```

#### Opcodes

```
  0: 0x0375 [0x32] ExtData[1]->MainSpeed = 13* * 0.1
  1: 0x0378 [0x1F] MOVE_ENTITY: EventEntity moves to X=430.322*, Z=-284.101*, Y=64.913*
  2: 0x0380 [0x1F] MOVE_ENTITY: Update entity position (mode=1)
  3: 0x0382 [0x1E] EventEntity looks at LocalPlayer and starts talking
  4: 0x0387 [0x6F] WAIT_FRAME_DELAY: Yield until WaitTime reaches zero
  5: 0x0388 [0x70] WAIT_ENTITY_RENDER_FLAG: Wait while EventEntity->Render.Flags3 bit 2 is set (cancel turn if not)
  6: 0x0389 [0x00] END_REQSTACK()
```
