# 0x7FFFFFF0 - Zone Events

## Common Data

| Field            | Value                   |
|------------------|-------------------------|
| Zone             | Kamihr Drifts (ID: 267) |
| Block Size       | 2384 bytes              |
| Total Events     | 59                      |
| References Count | 98                      |

## List of Events

| Event ID                   | Entrypoint   |   Size |   Instructions |
|----------------------------|--------------|--------|----------------|
| [65535](#event-65535)      | 0x0000       |      1 |              1 |
| [65534](#event-65534)      | 0x0001       |      1 |              1 |
| [65535.1](#event-655351)   | 0x0002       |     37 |              5 |
| [65535.2](#event-655352)   | 0x0027       |     37 |              5 |
| [65535.3](#event-655353)   | 0x004C       |      7 |              3 |
| [65535.4](#event-655354)   | 0x0053       |    155 |             35 |
| [65535.5](#event-655355)   | 0x00EE       |      6 |              2 |
| [65535.6](#event-655356)   | 0x00F4       |      6 |              2 |
| [65535.7](#event-655357)   | 0x00FA       |      6 |              2 |
| [65535.8](#event-655358)   | 0x0100       |      6 |              2 |
| [65535.9](#event-655359)   | 0x0106       |     27 |              3 |
| [65535.10](#event-6553510) | 0x0121       |     10 |              2 |
| [65535.11](#event-6553511) | 0x012B       |     10 |              2 |
| [65535.12](#event-6553512) | 0x0135       |     27 |              7 |
| [65535.13](#event-6553513) | 0x0150       |     27 |              7 |
| [65535.14](#event-6553514) | 0x016B       |     10 |              2 |
| [65535.15](#event-6553515) | 0x0175       |     24 |              4 |
| [65535.16](#event-6553516) | 0x018D       |     24 |              4 |
| [65535.17](#event-6553517) | 0x01A5       |     10 |              2 |
| [65535.18](#event-6553518) | 0x01AF       |     14 |              4 |
| [65535.19](#event-6553519) | 0x01BD       |     14 |              4 |
| [65535.20](#event-6553520) | 0x01CB       |     14 |              4 |
| [65535.21](#event-6553521) | 0x01D9       |     14 |              4 |
| [65535.22](#event-6553522) | 0x01E7       |     10 |              2 |
| [65535.23](#event-6553523) | 0x01F1       |     10 |              2 |
| [65535.24](#event-6553524) | 0x01FB       |     24 |              6 |
| [65535.25](#event-6553525) | 0x0213       |     24 |              4 |
| [65535.26](#event-6553526) | 0x022B       |     24 |              4 |
| [65535.27](#event-6553527) | 0x0243       |     38 |              5 |
| [65535.28](#event-6553528) | 0x0269       |     38 |              5 |
| [65535.29](#event-6553529) | 0x028F       |     38 |              5 |
| [65535.30](#event-6553530) | 0x02B5       |     37 |              5 |
| [65535.31](#event-6553531) | 0x02DA       |     37 |              5 |
| [65535.32](#event-6553532) | 0x02FF       |     42 |              6 |
| [65535.33](#event-6553533) | 0x0329       |     29 |              5 |
| [65535.34](#event-6553534) | 0x0346       |     29 |              5 |
| [65535.35](#event-6553535) | 0x0363       |     29 |              5 |
| [65535.36](#event-6553536) | 0x0380       |     27 |              3 |
| [65535.37](#event-6553537) | 0x039B       |      5 |              2 |
| [65535.38](#event-6553538) | 0x03A0       |      5 |              2 |
| [65535.39](#event-6553539) | 0x03A5       |      5 |              2 |
| [65535.40](#event-6553540) | 0x03AA       |      5 |              2 |
| [65535.41](#event-6553541) | 0x03AF       |     14 |              4 |
| [65535.42](#event-6553542) | 0x03BD       |     14 |              4 |
| [65535.43](#event-6553543) | 0x03CB       |     10 |              2 |
| [65535.44](#event-6553544) | 0x03D5       |     10 |              2 |
| [65535.45](#event-6553545) | 0x03DF       |     24 |              4 |
| [65535.46](#event-6553546) | 0x03F7       |     24 |              4 |
| [65535.47](#event-6553547) | 0x040F       |     29 |              5 |
| [65535.48](#event-6553548) | 0x042C       |     29 |              5 |
| [65535.49](#event-6553549) | 0x0449       |     10 |              2 |
| [65535.50](#event-6553550) | 0x0453       |     10 |              2 |
| [65535.51](#event-6553551) | 0x045D       |     27 |              5 |
| [65535.52](#event-6553552) | 0x0478       |     22 |              6 |
| [65535.53](#event-6553553) | 0x048E       |     19 |              5 |
| [65535.54](#event-6553554) | 0x04A1       |     24 |              5 |
| [65535.55](#event-6553555) | 0x04B9       |    353 |             41 |
| [65535.56](#event-6553556) | 0x061A       |     47 |              7 |
| [5504](#event-5504)        | 0x0649       |    128 |             14 |

## DAT References (imed_data)

|   Index | Hex Value   |   Dec Value |
|---------|-------------|-------------|
|       0 | 0x0001      |           1 |
|       1 | 0x0000      |           0 |
|       2 | 0x0005      |           5 |
|       3 | 0x0002      |           2 |
|       4 | 0x000A      |          10 |
|       5 | 0x0009      |           9 |
|       6 | 0x0046      |          70 |
|       7 | 0x008C      |         140 |
|       8 | 0x00D2      |         210 |
|       9 | 0x6AD64     |      437604 |
|      10 | 0xFFFB9E79  |  4294680185 |
|      11 | 0xF618      |       63000 |
|      12 | 0x0400      |        1024 |
|      13 | 0x1EC35     |      126005 |
|      14 | 0xFFFBC649  |  4294690377 |
|      15 | 0x9E1B      |       40475 |
|      16 | 0x080E      |        2062 |
|      17 | 0x000D      |          13 |
|      18 | 0x1C9EE     |      117230 |
|      19 | 0xFFFBCCDB  |  4294692059 |
|      20 | 0x9D68      |       40296 |
|      21 | 0x0A98      |        2712 |
|      22 | 0x1B986     |      113030 |
|      23 | 0xFFFBCDC0  |  4294692288 |
|      24 | 0x9E2E      |       40494 |
|      25 | 0x0B84      |        2948 |
|      26 | 0x69215     |      430613 |
|      27 | 0xFFFBAC85  |  4294683781 |
|      28 | 0xFDE7      |       64999 |
|      29 | 0x0289      |         649 |
|      30 | 0x68F5F     |      429919 |
|      31 | 0xFFFBAF6D  |  4294684525 |
|      32 | 0x0099      |         153 |
|      33 | 0x63F6A     |      409450 |
|      34 | 0xFFF9C096  |  4294557846 |
|      35 | 0xEA57      |       59991 |
|      36 | 0x0028      |          40 |
|      37 | 0x224CD     |      140493 |
|      38 | 0xFFFC5336  |  4294726454 |
|      39 | 0xA7F7      |       42999 |
|      40 | 0x22870     |      141424 |
|      41 | 0xFFFC9F9F  |  4294746015 |
|      42 | 0xABDF      |       43999 |
|      43 | 0x22633     |      140851 |
|      44 | 0xFFFC91B7  |  4294742455 |
|      45 | 0xAB04      |       43780 |
|      46 | 0x0080      |         128 |
|      47 | 0xFFFC2B30  |  4294716208 |
|      48 | 0xEDA5      |       60837 |
|      49 | 0x523F      |       21055 |
|      50 | 0xFFFC324B  |  4294718027 |
|      51 | 0xEA46      |       59974 |
|      52 | 0x5354      |       21332 |
|      53 | 0x0008      |           8 |
|      54 | 0x0007      |           7 |
|      55 | 0x0091      |         145 |
|      56 | 0x004F      |          79 |
|      57 | 0x004C      |          76 |
|      58 | 0x00C9      |         201 |
|      59 | 0x0018      |          24 |
|      60 | 0x0020      |          32 |
|      61 | 0x0030      |          48 |
|      62 | 0x0040      |          64 |
|      63 | 0x003C      |          60 |
|      64 | 0x0057      |          87 |
|      65 | 0x005D      |          93 |
|      66 | 0x0060      |          96 |
|      67 | 0x0064      |         100 |
|      68 | 0x47AA6     |      293542 |
|      69 | 0xFFFFEB52  |  4294962002 |
|      70 | 0xFFFFE6EC  |  4294960876 |
|      71 | 0x47821     |      292897 |
|      72 | 0xFFFFEF2B  |  4294962987 |
|      73 | 0xFFFFE767  |  4294960999 |
|      74 | 0x007F      |         127 |
|      75 | 0x0078      |         120 |
|      76 | 0x48073     |      295027 |
|      77 | 0xFFFFE44E  |  4294960206 |
|      78 | 0xFFFFE6ED  |  4294960877 |
|      79 | 0x001E      |          30 |
|      80 | 0x47714     |      292628 |
|      81 | 0xFFFFF297  |  4294963863 |
|      82 | 0xFFFFE6BA  |  4294960826 |
|      83 | 0x0095      |         149 |
|      84 | 0x009F      |         159 |
|      85 | 0x0003      |           3 |
|      86 | 0x00A9      |         169 |
|      87 | 0x0004      |           4 |
|      88 | 0x00B3      |         179 |
|      89 | 0x00BD      |         189 |
|      90 | 0x0006      |           6 |
|      91 | 0x00C7      |         199 |
|      92 | 0x00D1      |         209 |
|      93 | 0x00B4      |         180 |
|      94 | 0x00C8      |         200 |
|      95 | 0x005A      |          90 |
|      96 | 0x002D      |          45 |
|      97 | 0x000F      |          15 |

## Events

### Event 65535

#### Metadata

| Field        | Value   |
|--------------|---------|
| Entrypoint   | 0x0000  |
| Data Size    | 1 bytes |
| Instructions | 1       |

```
      00 01 02 03 04 05 06 07  08 09 0A 0B 0C 0D 0E 0F
      -- -- -- -- -- -- -- --  -- -- -- -- -- -- -- --
0000: 00                                                .               
```

#### Opcodes

```
  0: 0x0000 [0x00] END_REQSTACK()
```

### Event 65534

#### Metadata

| Field        | Value   |
|--------------|---------|
| Entrypoint   | 0x0001  |
| Data Size    | 1 bytes |
| Instructions | 1       |

```
      00 01 02 03 04 05 06 07  08 09 0A 0B 0C 0D 0E 0F
      -- -- -- -- -- -- -- --  -- -- -- -- -- -- -- --
0000:    00                                              .              
```

#### Opcodes

```
  0: 0x0001 [0x00] END_REQSTACK()
```

### Event 65535.1

#### Metadata

| Field        | Value    |
|--------------|----------|
| Entrypoint   | 0x0002   |
| Data Size    | 37 bytes |
| Instructions | 5        |

```
      00 01 02 03 04 05 06 07  08 09 0A 0B 0C 0D 0E 0F
      -- -- -- -- -- -- -- --  -- -- -- -- -- -- -- --
0000:       03 00 00 07 7F 1A  5A 00 66 01 00 F8 FF FF    ......Z.f.....
0010: 7F F8 FF FF 7F 73 68 61  30 53 F8 FF FF 7F F8 FF  .....sha0S......
0020: FF 7F 73 68 61 30 00                              ..sha0.         
```

#### Opcodes

```
  0: 0x0002 [0x03] ExtData[1]->WorkLocal[0] = Entity->Race
  1: 0x0007 [0x1A] CALL_SUBROUTINE(address=0x005A)
  2: 0x000A [0x66] LOAD_EXT_SCHEDULER_MAIN: Load scheduler "sha0" with entities [EventEntity, EventEntity], work=ExtData[1]->WorkLocal[1]
  3: 0x0019 [0x53] WAIT_SCHEDULER_TASK: Wait for scheduler "sha0" with entities [EventEntity, EventEntity]
  4: 0x0026 [0x00] END_REQSTACK()
```

### Event 65535.2

#### Metadata

| Field        | Value    |
|--------------|----------|
| Entrypoint   | 0x0027   |
| Data Size    | 37 bytes |
| Instructions | 5        |

```
      00 01 02 03 04 05 06 07  08 09 0A 0B 0C 0D 0E 0F
      -- -- -- -- -- -- -- --  -- -- -- -- -- -- -- --
0020:                      03  00 00 07 7F 1A 5A 00 66         ......Z.f
0030: 01 00 F8 FF FF 7F F8 FF  FF 7F 73 68 61 31 53 F8  ..........sha1S.
0040: FF FF 7F F8 FF FF 7F 73  68 61 31 00              .......sha1.    
```

#### Opcodes

```
  0: 0x0027 [0x03] ExtData[1]->WorkLocal[0] = Entity->Race
  1: 0x002C [0x1A] CALL_SUBROUTINE(address=0x005A)
  2: 0x002F [0x66] LOAD_EXT_SCHEDULER_MAIN: Load scheduler "sha1" with entities [EventEntity, EventEntity], work=ExtData[1]->WorkLocal[1]
  3: 0x003E [0x53] WAIT_SCHEDULER_TASK: Wait for scheduler "sha1" with entities [EventEntity, EventEntity]
  4: 0x004B [0x00] END_REQSTACK()
```

### Event 65535.3

#### Metadata

| Field        | Value   |
|--------------|---------|
| Entrypoint   | 0x004C  |
| Data Size    | 7 bytes |
| Instructions | 3       |

```
      00 01 02 03 04 05 06 07  08 09 0A 0B 0C 0D 0E 0F
      -- -- -- -- -- -- -- --  -- -- -- -- -- -- -- --
0040:                                      AB 03 AC 01              ....
0050: 00 80 00                                          ...             
```

#### Opcodes

```
  0: 0x004C [0xAB] EventEntity->Render.Flags0 ^= 0x20000 // Toggle bit 17
  1: 0x004E [0xAC] EventEntity->StatusEvent = 1*
  2: 0x0052 [0x00] END_REQSTACK()
```

### Event 65535.4

#### Metadata

| Field        | Value     |
|--------------|-----------|
| Entrypoint   | 0x0053    |
| Data Size    | 155 bytes |
| Instructions | 3         |

```
      00 01 02 03 04 05 06 07  08 09 0A 0B 0C 0D 0E 0F
      -- -- -- -- -- -- -- --  -- -- -- -- -- -- -- --
0050:          AC 01 01 80 AB  04 00 03 01 00 00 00 02     .............
0060: 01 00 02 80 05 6F 00 08  01 00 00 80 01 74 00 08  .....o.......t..
0070: 01 00 03 80 14 01 00 04  80 07 01 00 05 80 1B 03  ................
0080: 01 00 00 00 02 01 00 02  80 05 94 00 08 01 00 00  ................
0090: 80 01 99 00 08 01 00 03  80 14 01 00 04 80 07 01  ................
00A0: 00 06 80 1B 03 01 00 00  00 02 01 00 02 80 05 B9  ................
00B0: 00 08 01 00 00 80 01 BE  00 08 01 00 03 80 14 01  ................
00C0: 00 04 80 07 01 00 07 80  1B 03 01 00 00 00 02 01  ................
00D0: 00 02 80 05 DE 00 08 01  00 00 80 01 E3 00 08 01  ................
00E0: 00 03 80 14 01 00 04 80  07 01 00 08 80 1B        ..............  
```

#### Opcodes

```
  0: 0x0053 [0xAC] EventEntity->StatusEvent = 0*
  1: 0x0057 [0xAB] EventEntity->Render.Flags0 |= 0x40000 // Set bit 18
  2: 0x0059 [0x00] END_REQSTACK()
```

#### Data or dead code:

```
# Dead code (unreachable instructions):
     0x005A [0x03] ExtData[1]->WorkLocal[1] = ExtData[1]->WorkLocal[0]
     0x005F [0x02] IF !(ExtData[1]->WorkLocal[1] > 5*) GOTO 0x006F
     0x0067 [0x08] ExtData[1]->WorkLocal[1] -= 1*
     0x006C [0x01] GOTO 0x0074
     0x006F [0x08] ExtData[1]->WorkLocal[1] -= 2*
     0x0074 [0x14] ExtData[1]->WorkLocal[1] *= 10*
     0x0079 [0x07] ExtData[1]->WorkLocal[1] += 9*
     0x007E [0x1B] RETURN
     0x007F [0x03] ExtData[1]->WorkLocal[1] = ExtData[1]->WorkLocal[0]
     0x0084 [0x02] IF !(ExtData[1]->WorkLocal[1] > 5*) GOTO 0x0094
     0x008C [0x08] ExtData[1]->WorkLocal[1] -= 1*
     0x0091 [0x01] GOTO 0x0099
     0x0094 [0x08] ExtData[1]->WorkLocal[1] -= 2*
     0x0099 [0x14] ExtData[1]->WorkLocal[1] *= 10*
     0x009E [0x07] ExtData[1]->WorkLocal[1] += 70*
     0x00A3 [0x1B] RETURN
     0x00A4 [0x03] ExtData[1]->WorkLocal[1] = ExtData[1]->WorkLocal[0]
     0x00A9 [0x02] IF !(ExtData[1]->WorkLocal[1] > 5*) GOTO 0x00B9
     0x00B1 [0x08] ExtData[1]->WorkLocal[1] -= 1*
     0x00B6 [0x01] GOTO 0x00BE
     0x00B9 [0x08] ExtData[1]->WorkLocal[1] -= 2*
     0x00BE [0x14] ExtData[1]->WorkLocal[1] *= 10*
     0x00C3 [0x07] ExtData[1]->WorkLocal[1] += 140*
     0x00C8 [0x1B] RETURN
     0x00C9 [0x03] ExtData[1]->WorkLocal[1] = ExtData[1]->WorkLocal[0]
     0x00CE [0x02] IF !(ExtData[1]->WorkLocal[1] > 5*) GOTO 0x00DE
     0x00D6 [0x08] ExtData[1]->WorkLocal[1] -= 1*
     0x00DB [0x01] GOTO 0x00E3
     0x00DE [0x08] ExtData[1]->WorkLocal[1] -= 2*
     0x00E3 [0x14] ExtData[1]->WorkLocal[1] *= 10*
     0x00E8 [0x07] ExtData[1]->WorkLocal[1] += 210*
     0x00ED [0x1B] RETURN
```

### Event 65535.5

#### Metadata

| Field        | Value   |
|--------------|---------|
| Entrypoint   | 0x00EE  |
| Data Size    | 6 bytes |
| Instructions | 2       |

```
      00 01 02 03 04 05 06 07  08 09 0A 0B 0C 0D 0E 0F
      -- -- -- -- -- -- -- --  -- -- -- -- -- -- -- --
00E0:                                            03 02                ..
00F0: 10 0B 7F 00                                       ....            
```

#### Opcodes

```
  0: 0x00EE [0x03] Work_Zone[2] = (Entity->Render.Flags01 >> 25) & 1
  1: 0x00F3 [0x00] END_REQSTACK()
```

### Event 65535.6

#### Metadata

| Field        | Value   |
|--------------|---------|
| Entrypoint   | 0x00F4  |
| Data Size    | 6 bytes |
| Instructions | 2       |

```
      00 01 02 03 04 05 06 07  08 09 0A 0B 0C 0D 0E 0F
      -- -- -- -- -- -- -- --  -- -- -- -- -- -- -- --
00F0:             03 02 10 07  7F 00                        ......      
```

#### Opcodes

```
  0: 0x00F4 [0x03] Work_Zone[2] = Entity->Race
  1: 0x00F9 [0x00] END_REQSTACK()
```

### Event 65535.7

#### Metadata

| Field        | Value   |
|--------------|---------|
| Entrypoint   | 0x00FA  |
| Data Size    | 6 bytes |
| Instructions | 2       |

```
      00 01 02 03 04 05 06 07  08 09 0A 0B 0C 0D 0E 0F
      -- -- -- -- -- -- -- --  -- -- -- -- -- -- -- --
00F0:                                03 09 10 07 7F 00            ......
```

#### Opcodes

```
  0: 0x00FA [0x03] Work_Zone[9] = Entity->Race
  1: 0x00FF [0x00] END_REQSTACK()
```

### Event 65535.8

#### Metadata

| Field        | Value   |
|--------------|---------|
| Entrypoint   | 0x0100  |
| Data Size    | 6 bytes |
| Instructions | 2       |

```
      00 01 02 03 04 05 06 07  08 09 0A 0B 0C 0D 0E 0F
      -- -- -- -- -- -- -- --  -- -- -- -- -- -- -- --
0100: 03 02 10 06 7F 00                                 ......          
```

#### Opcodes

```
  0: 0x0100 [0x03] Work_Zone[2] = Entity->JobId (if LocalPlayer)
  1: 0x0105 [0x00] END_REQSTACK()
```

### Event 65535.9

#### Metadata

| Field        | Value    |
|--------------|----------|
| Entrypoint   | 0x0106   |
| Data Size    | 27 bytes |
| Instructions | 3        |

```
      00 01 02 03 04 05 06 07  08 09 0A 0B 0C 0D 0E 0F
      -- -- -- -- -- -- -- --  -- -- -- -- -- -- -- --
0100:                   2C F8  FF FF 7F F8 FF FF 7F 63        ,........c
0110: 6F 72 70 53 F8 FF FF 7F  F8 FF FF 7F 63 6F 72 70  orpS........corp
0120: 00                                                .               
```

#### Opcodes

```
  0: 0x0106 [0x2C] CREATE_SCHEDULER_TASK: Create scheduler "corp" with entities [EventEntity, EventEntity]
  1: 0x0113 [0x53] WAIT_SCHEDULER_TASK: Wait for scheduler "corp" with entities [EventEntity, EventEntity]
  2: 0x0120 [0x00] END_REQSTACK()
```

### Event 65535.10

#### Metadata

| Field        | Value    |
|--------------|----------|
| Entrypoint   | 0x0121   |
| Data Size    | 10 bytes |
| Instructions | 2        |

```
      00 01 02 03 04 05 06 07  08 09 0A 0B 0C 0D 0E 0F
      -- -- -- -- -- -- -- --  -- -- -- -- -- -- -- --
0120:    37 09 80 0A 80 0B 80  0C 80 00                  7.........     
```

#### Opcodes

```
  0: 0x0121 [0x37] UPDATE_EVENT_POSITION_AND_DIR: x=437.604*, z=-287.111*, y=63.000*, direction=90.0°*
  1: 0x012A [0x00] END_REQSTACK()
```

### Event 65535.11

#### Metadata

| Field        | Value    |
|--------------|----------|
| Entrypoint   | 0x012B   |
| Data Size    | 10 bytes |
| Instructions | 2        |

```
      00 01 02 03 04 05 06 07  08 09 0A 0B 0C 0D 0E 0F
      -- -- -- -- -- -- -- --  -- -- -- -- -- -- -- --
0120:                                   37 0D 80 0E 80             7....
0130: 0F 80 10 80 00                                    .....           
```

#### Opcodes

```
  0: 0x012B [0x37] UPDATE_EVENT_POSITION_AND_DIR: x=126.005*, z=-276.919*, y=40.475*, direction=181.2°*
  1: 0x0134 [0x00] END_REQSTACK()
```

### Event 65535.12

#### Metadata

| Field        | Value    |
|--------------|----------|
| Entrypoint   | 0x0135   |
| Data Size    | 27 bytes |
| Instructions | 7        |

```
      00 01 02 03 04 05 06 07  08 09 0A 0B 0C 0D 0E 0F
      -- -- -- -- -- -- -- --  -- -- -- -- -- -- -- --
0130:                32 11 80  1F 00 12 80 13 80 14 80       2..........
0140: 1F 01 4B F0 FF FF 7F 15  80 6F 76 F0 FF FF 7F 00  ..K......ov.....
```

#### Opcodes

```
  0: 0x0135 [0x32] ExtData[1]->MainSpeed = 13* * 0.1
  1: 0x0138 [0x1F] MOVE_ENTITY: EventEntity moves to X=117.230*, Z=-275.237*, Y=40.296*
  2: 0x0140 [0x1F] MOVE_ENTITY: Update entity position (mode=1)
  3: 0x0142 [0x4B] UPDATE_ENTITY_YAW(entity=LocalPlayer, yaw=14.9°*)
  4: 0x0149 [0x6F] WAIT_FRAME_DELAY: Yield until WaitTime reaches zero
  5: 0x014A [0x76] CHECK_ENTITY_RENDER_FLAGS: Wait until LocalPlayer Render.Flags0 and Render.Flags3 conditions are met
  6: 0x014F [0x00] END_REQSTACK()
```

### Event 65535.13

#### Metadata

| Field        | Value    |
|--------------|----------|
| Entrypoint   | 0x0150   |
| Data Size    | 27 bytes |
| Instructions | 7        |

```
      00 01 02 03 04 05 06 07  08 09 0A 0B 0C 0D 0E 0F
      -- -- -- -- -- -- -- --  -- -- -- -- -- -- -- --
0150: 32 11 80 1F 00 16 80 17  80 18 80 1F 01 4B F0 FF  2............K..
0160: FF 7F 19 80 6F 76 F0 FF  FF 7F 00                 ....ov.....     
```

#### Opcodes

```
  0: 0x0150 [0x32] ExtData[1]->MainSpeed = 13* * 0.1
  1: 0x0153 [0x1F] MOVE_ENTITY: EventEntity moves to X=113.030*, Z=-275.008*, Y=40.494*
  2: 0x015B [0x1F] MOVE_ENTITY: Update entity position (mode=1)
  3: 0x015D [0x4B] UPDATE_ENTITY_YAW(entity=LocalPlayer, yaw=16.2°*)
  4: 0x0164 [0x6F] WAIT_FRAME_DELAY: Yield until WaitTime reaches zero
  5: 0x0165 [0x76] CHECK_ENTITY_RENDER_FLAGS: Wait until LocalPlayer Render.Flags0 and Render.Flags3 conditions are met
  6: 0x016A [0x00] END_REQSTACK()
```

### Event 65535.14

#### Metadata

| Field        | Value    |
|--------------|----------|
| Entrypoint   | 0x016B   |
| Data Size    | 10 bytes |
| Instructions | 2        |

```
      00 01 02 03 04 05 06 07  08 09 0A 0B 0C 0D 0E 0F
      -- -- -- -- -- -- -- --  -- -- -- -- -- -- -- --
0160:                                   37 1A 80 1B 80             7....
0170: 1C 80 1D 80 00                                    .....           
```

#### Opcodes

```
  0: 0x016B [0x37] UPDATE_EVENT_POSITION_AND_DIR: x=430.613*, z=-283.515*, y=64.999*, direction=57.0°*
  1: 0x0174 [0x00] END_REQSTACK()
```

### Event 65535.15

#### Metadata

| Field        | Value    |
|--------------|----------|
| Entrypoint   | 0x0175   |
| Data Size    | 24 bytes |
| Instructions | 4        |

```
      00 01 02 03 04 05 06 07  08 09 0A 0B 0C 0D 0E 0F
      -- -- -- -- -- -- -- --  -- -- -- -- -- -- -- --
0170:                03 00 00  07 7F 1A 5A 00 66 01 00       ......Z.f..
0180: F8 FF FF 7F F8 FF FF 7F  74 68 6B 31 00           ........thk1.   
```

#### Opcodes

```
  0: 0x0175 [0x03] ExtData[1]->WorkLocal[0] = Entity->Race
  1: 0x017A [0x1A] CALL_SUBROUTINE(address=0x005A)
  2: 0x017D [0x66] LOAD_EXT_SCHEDULER_MAIN: Load scheduler "thk1" with entities [EventEntity, EventEntity], work=ExtData[1]->WorkLocal[1]
  3: 0x018C [0x00] END_REQSTACK()
```

### Event 65535.16

#### Metadata

| Field        | Value    |
|--------------|----------|
| Entrypoint   | 0x018D   |
| Data Size    | 24 bytes |
| Instructions | 4        |

```
      00 01 02 03 04 05 06 07  08 09 0A 0B 0C 0D 0E 0F
      -- -- -- -- -- -- -- --  -- -- -- -- -- -- -- --
0180:                                         03 00 00               ...
0190: 07 7F 1A 5A 00 66 01 00  F8 FF FF 7F F8 FF FF 7F  ...Z.f..........
01A0: 74 68 6B 32 00                                    thk2.           
```

#### Opcodes

```
  0: 0x018D [0x03] ExtData[1]->WorkLocal[0] = Entity->Race
  1: 0x0192 [0x1A] CALL_SUBROUTINE(address=0x005A)
  2: 0x0195 [0x66] LOAD_EXT_SCHEDULER_MAIN: Load scheduler "thk2" with entities [EventEntity, EventEntity], work=ExtData[1]->WorkLocal[1]
  3: 0x01A4 [0x00] END_REQSTACK()
```

### Event 65535.17

#### Metadata

| Field        | Value    |
|--------------|----------|
| Entrypoint   | 0x01A5   |
| Data Size    | 10 bytes |
| Instructions | 2        |

```
      00 01 02 03 04 05 06 07  08 09 0A 0B 0C 0D 0E 0F
      -- -- -- -- -- -- -- --  -- -- -- -- -- -- -- --
01A0:                37 1E 80  1F 80 1C 80 20 80 00          7...... .. 
```

#### Opcodes

```
  0: 0x01A5 [0x37] UPDATE_EVENT_POSITION_AND_DIR: x=429.919*, z=-282.771*, y=64.999*, direction=13.4°*
  1: 0x01AE [0x00] END_REQSTACK()
```

### Event 65535.18

#### Metadata

| Field        | Value    |
|--------------|----------|
| Entrypoint   | 0x01AF   |
| Data Size    | 14 bytes |
| Instructions | 4        |

```
      00 01 02 03 04 05 06 07  08 09 0A 0B 0C 0D 0E 0F
      -- -- -- -- -- -- -- --  -- -- -- -- -- -- -- --
01A0:                                               32                 2
01B0: 11 80 1F 00 21 80 22 80  23 80 1F 01 00           ....!.".#....   
```

#### Opcodes

```
  0: 0x01AF [0x32] ExtData[1]->MainSpeed = 13* * 0.1
  1: 0x01B2 [0x1F] MOVE_ENTITY: EventEntity moves to X=409.450*, Z=-409.450*, Y=59.991*
  2: 0x01BA [0x1F] MOVE_ENTITY: Update entity position (mode=1)
  3: 0x01BC [0x00] END_REQSTACK()
```

### Event 65535.19

#### Metadata

| Field        | Value    |
|--------------|----------|
| Entrypoint   | 0x01BD   |
| Data Size    | 14 bytes |
| Instructions | 4        |

```
      00 01 02 03 04 05 06 07  08 09 0A 0B 0C 0D 0E 0F
      -- -- -- -- -- -- -- --  -- -- -- -- -- -- -- --
01B0:                                         32 24 80               2$.
01C0: 1F 00 25 80 26 80 27 80  1F 01 00                 ..%.&.'....     
```

#### Opcodes

```
  0: 0x01BD [0x32] ExtData[1]->MainSpeed = 40* * 0.1
  1: 0x01C0 [0x1F] MOVE_ENTITY: EventEntity moves to X=140.493*, Z=-240.842*, Y=42.999*
  2: 0x01C8 [0x1F] MOVE_ENTITY: Update entity position (mode=1)
  3: 0x01CA [0x00] END_REQSTACK()
```

### Event 65535.20

#### Metadata

| Field        | Value    |
|--------------|----------|
| Entrypoint   | 0x01CB   |
| Data Size    | 14 bytes |
| Instructions | 4        |

```
      00 01 02 03 04 05 06 07  08 09 0A 0B 0C 0D 0E 0F
      -- -- -- -- -- -- -- --  -- -- -- -- -- -- -- --
01C0:                                   32 11 80 1F 00             2....
01D0: 28 80 29 80 2A 80 1F 01  00                       (.).*....       
```

#### Opcodes

```
  0: 0x01CB [0x32] ExtData[1]->MainSpeed = 13* * 0.1
  1: 0x01CE [0x1F] MOVE_ENTITY: EventEntity moves to X=141.424*, Z=-221.281*, Y=43.999*
  2: 0x01D6 [0x1F] MOVE_ENTITY: Update entity position (mode=1)
  3: 0x01D8 [0x00] END_REQSTACK()
```

### Event 65535.21

#### Metadata

| Field        | Value    |
|--------------|----------|
| Entrypoint   | 0x01D9   |
| Data Size    | 14 bytes |
| Instructions | 4        |

```
      00 01 02 03 04 05 06 07  08 09 0A 0B 0C 0D 0E 0F
      -- -- -- -- -- -- -- --  -- -- -- -- -- -- -- --
01D0:                             32 24 80 1F 00 2B 80           2$...+.
01E0: 2C 80 2D 80 1F 01 00                              ,.-....         
```

#### Opcodes

```
  0: 0x01D9 [0x32] ExtData[1]->MainSpeed = 40* * 0.1
  1: 0x01DC [0x1F] MOVE_ENTITY: EventEntity moves to X=140.851*, Z=-224.841*, Y=43.780*
  2: 0x01E4 [0x1F] MOVE_ENTITY: Update entity position (mode=1)
  3: 0x01E6 [0x00] END_REQSTACK()
```

### Event 65535.22

#### Metadata

| Field        | Value    |
|--------------|----------|
| Entrypoint   | 0x01E7   |
| Data Size    | 10 bytes |
| Instructions | 2        |

```
      00 01 02 03 04 05 06 07  08 09 0A 0B 0C 0D 0E 0F
      -- -- -- -- -- -- -- --  -- -- -- -- -- -- -- --
01E0:                      6C  F8 FF FF 7F 01 80 00 80         l........
01F0: 00                                                .               
```

#### Opcodes

```
  0: 0x01E7 [0x6C] FADE_ENTITY_COLOR(entity_id=EventEntity, end_alpha=0*, fade_time=1*)
  1: 0x01F0 [0x00] END_REQSTACK()
```

### Event 65535.23

#### Metadata

| Field        | Value    |
|--------------|----------|
| Entrypoint   | 0x01F1   |
| Data Size    | 10 bytes |
| Instructions | 2        |

```
      00 01 02 03 04 05 06 07  08 09 0A 0B 0C 0D 0E 0F
      -- -- -- -- -- -- -- --  -- -- -- -- -- -- -- --
01F0:    6C F8 FF FF 7F 2E 80  00 80 00                  l.........     
```

#### Opcodes

```
  0: 0x01F1 [0x6C] FADE_ENTITY_COLOR(entity_id=EventEntity, end_alpha=128*, fade_time=1*)
  1: 0x01FA [0x00] END_REQSTACK()
```

### Event 65535.24

#### Metadata

| Field        | Value    |
|--------------|----------|
| Entrypoint   | 0x01FB   |
| Data Size    | 24 bytes |
| Instructions | 6        |

```
      00 01 02 03 04 05 06 07  08 09 0A 0B 0C 0D 0E 0F
      -- -- -- -- -- -- -- --  -- -- -- -- -- -- -- --
01F0:                                   32 11 80 1F 00             2....
0200: 2F 80 30 80 31 80 1F 01  1F 00 32 80 33 80 34 80  /.0.1.....2.3.4.
0210: 1F 01 00                                          ...             
```

#### Opcodes

```
  0: 0x01FB [0x32] ExtData[1]->MainSpeed = 13* * 0.1
  1: 0x01FE [0x1F] MOVE_ENTITY: EventEntity moves to X=-251.088*, Z=60.837*, Y=21.055*
  2: 0x0206 [0x1F] MOVE_ENTITY: Update entity position (mode=1)
  3: 0x0208 [0x1F] MOVE_ENTITY: EventEntity moves to X=-249.269*, Z=59.974*, Y=21.332*
  4: 0x0210 [0x1F] MOVE_ENTITY: Update entity position (mode=1)
  5: 0x0212 [0x00] END_REQSTACK()
```

### Event 65535.25

#### Metadata

| Field        | Value    |
|--------------|----------|
| Entrypoint   | 0x0213   |
| Data Size    | 24 bytes |
| Instructions | 4        |

```
      00 01 02 03 04 05 06 07  08 09 0A 0B 0C 0D 0E 0F
      -- -- -- -- -- -- -- --  -- -- -- -- -- -- -- --
0210:          03 00 00 07 7F  1A 5A 00 66 01 00 F8 FF     ......Z.f....
0220: FF 7F F8 FF FF 7F 74 6C  6B 30 00                 ......tlk0.     
```

#### Opcodes

```
  0: 0x0213 [0x03] ExtData[1]->WorkLocal[0] = Entity->Race
  1: 0x0218 [0x1A] CALL_SUBROUTINE(address=0x005A)
  2: 0x021B [0x66] LOAD_EXT_SCHEDULER_MAIN: Load scheduler "tlk0" with entities [EventEntity, EventEntity], work=ExtData[1]->WorkLocal[1]
  3: 0x022A [0x00] END_REQSTACK()
```

### Event 65535.26

#### Metadata

| Field        | Value    |
|--------------|----------|
| Entrypoint   | 0x022B   |
| Data Size    | 24 bytes |
| Instructions | 4        |

```
      00 01 02 03 04 05 06 07  08 09 0A 0B 0C 0D 0E 0F
      -- -- -- -- -- -- -- --  -- -- -- -- -- -- -- --
0220:                                   03 00 00 07 7F             .....
0230: 1A 5A 00 66 01 00 F8 FF  FF 7F F8 FF FF 7F 74 6C  .Z.f..........tl
0240: 6B 31 00                                          k1.             
```

#### Opcodes

```
  0: 0x022B [0x03] ExtData[1]->WorkLocal[0] = Entity->Race
  1: 0x0230 [0x1A] CALL_SUBROUTINE(address=0x005A)
  2: 0x0233 [0x66] LOAD_EXT_SCHEDULER_MAIN: Load scheduler "tlk1" with entities [EventEntity, EventEntity], work=ExtData[1]->WorkLocal[1]
  3: 0x0242 [0x00] END_REQSTACK()
```

### Event 65535.27

#### Metadata

| Field        | Value    |
|--------------|----------|
| Entrypoint   | 0x0243   |
| Data Size    | 38 bytes |
| Instructions | 5        |

```
      00 01 02 03 04 05 06 07  08 09 0A 0B 0C 0D 0E 0F
      -- -- -- -- -- -- -- --  -- -- -- -- -- -- -- --
0240:          22 00 2F 00 F8  FF FF 7F B6 0B 35 80 36     "./.......5.6
0250: 80 37 80 38 80 39 80 39  80 39 80 3A 80 3B 80 6C  .7.8.9.9.9.:.;.l
0260: F8 FF FF 7F 3C 80 00 80  00                       ....<....       
```

#### Opcodes

```
  0: 0x0243 [0x22] ENTITY_HIDE_FLAG(enabled=0x00)
  1: 0x0245 [0x2F] EventEntity->Render.Flags0 &= ~0x80000 // Bit 19
  2: 0x024B [0xB6] ENTITY_APPEARANCE_HANDLER(case=Full entity look, race=8*, hair=7*, head=145*, body=79*, hands=76*, legs=76*, feet=76*, main=201*, sub=24*)
  3: 0x025F [0x6C] FADE_ENTITY_COLOR(entity_id=EventEntity, end_alpha=32*, fade_time=1*)
  4: 0x0268 [0x00] END_REQSTACK()
```

### Event 65535.28

#### Metadata

| Field        | Value    |
|--------------|----------|
| Entrypoint   | 0x0269   |
| Data Size    | 38 bytes |
| Instructions | 5        |

```
      00 01 02 03 04 05 06 07  08 09 0A 0B 0C 0D 0E 0F
      -- -- -- -- -- -- -- --  -- -- -- -- -- -- -- --
0260:                             22 00 2F 00 F8 FF FF           "./....
0270: 7F B6 0B 36 80 36 80 37  80 38 80 39 80 39 80 39  ...6.6.7.8.9.9.9
0280: 80 3A 80 3B 80 6C F8 FF  FF 7F 3D 80 00 80 00     .:.;.l....=.... 
```

#### Opcodes

```
  0: 0x0269 [0x22] ENTITY_HIDE_FLAG(enabled=0x00)
  1: 0x026B [0x2F] EventEntity->Render.Flags0 &= ~0x80000 // Bit 19
  2: 0x0271 [0xB6] ENTITY_APPEARANCE_HANDLER(case=Full entity look, race=7*, hair=7*, head=145*, body=79*, hands=76*, legs=76*, feet=76*, main=201*, sub=24*)
  3: 0x0285 [0x6C] FADE_ENTITY_COLOR(entity_id=EventEntity, end_alpha=48*, fade_time=1*)
  4: 0x028E [0x00] END_REQSTACK()
```

### Event 65535.29

#### Metadata

| Field        | Value    |
|--------------|----------|
| Entrypoint   | 0x028F   |
| Data Size    | 38 bytes |
| Instructions | 5        |

```
      00 01 02 03 04 05 06 07  08 09 0A 0B 0C 0D 0E 0F
      -- -- -- -- -- -- -- --  -- -- -- -- -- -- -- --
0280:                                               22                 "
0290: 00 2F 00 F8 FF FF 7F B6  0B 02 80 36 80 37 80 38  ./.........6.7.8
02A0: 80 39 80 39 80 39 80 3A  80 3B 80 6C F8 FF FF 7F  .9.9.9.:.;.l....
02B0: 3E 80 00 80 00                                    >....           
```

#### Opcodes

```
  0: 0x028F [0x22] ENTITY_HIDE_FLAG(enabled=0x00)
  1: 0x0291 [0x2F] EventEntity->Render.Flags0 &= ~0x80000 // Bit 19
  2: 0x0297 [0xB6] ENTITY_APPEARANCE_HANDLER(case=Full entity look, race=5*, hair=7*, head=145*, body=79*, hands=76*, legs=76*, feet=76*, main=201*, sub=24*)
  3: 0x02AB [0x6C] FADE_ENTITY_COLOR(entity_id=EventEntity, end_alpha=64*, fade_time=1*)
  4: 0x02B4 [0x00] END_REQSTACK()
```

### Event 65535.30

#### Metadata

| Field        | Value    |
|--------------|----------|
| Entrypoint   | 0x02B5   |
| Data Size    | 37 bytes |
| Instructions | 5        |

```
      00 01 02 03 04 05 06 07  08 09 0A 0B 0C 0D 0E 0F
      -- -- -- -- -- -- -- --  -- -- -- -- -- -- -- --
02B0:                03 00 00  07 7F 1A 5A 00 66 01 00       ......Z.f..
02C0: F8 FF FF 7F F8 FF FF 7F  73 69 74 30 53 F8 FF FF  ........sit0S...
02D0: 7F F8 FF FF 7F 73 69 74  30 00                    .....sit0.      
```

#### Opcodes

```
  0: 0x02B5 [0x03] ExtData[1]->WorkLocal[0] = Entity->Race
  1: 0x02BA [0x1A] CALL_SUBROUTINE(address=0x005A)
  2: 0x02BD [0x66] LOAD_EXT_SCHEDULER_MAIN: Load scheduler "sit0" with entities [EventEntity, EventEntity], work=ExtData[1]->WorkLocal[1]
  3: 0x02CC [0x53] WAIT_SCHEDULER_TASK: Wait for scheduler "sit0" with entities [EventEntity, EventEntity]
  4: 0x02D9 [0x00] END_REQSTACK()
```

### Event 65535.31

#### Metadata

| Field        | Value    |
|--------------|----------|
| Entrypoint   | 0x02DA   |
| Data Size    | 37 bytes |
| Instructions | 5        |

```
      00 01 02 03 04 05 06 07  08 09 0A 0B 0C 0D 0E 0F
      -- -- -- -- -- -- -- --  -- -- -- -- -- -- -- --
02D0:                                03 00 00 07 7F 1A            ......
02E0: 5A 00 66 01 00 F8 FF FF  7F F8 FF FF 7F 73 69 74  Z.f..........sit
02F0: 31 53 F8 FF FF 7F F8 FF  FF 7F 73 69 74 31 00     1S........sit1. 
```

#### Opcodes

```
  0: 0x02DA [0x03] ExtData[1]->WorkLocal[0] = Entity->Race
  1: 0x02DF [0x1A] CALL_SUBROUTINE(address=0x005A)
  2: 0x02E2 [0x66] LOAD_EXT_SCHEDULER_MAIN: Load scheduler "sit1" with entities [EventEntity, EventEntity], work=ExtData[1]->WorkLocal[1]
  3: 0x02F1 [0x53] WAIT_SCHEDULER_TASK: Wait for scheduler "sit1" with entities [EventEntity, EventEntity]
  4: 0x02FE [0x00] END_REQSTACK()
```

### Event 65535.32

#### Metadata

| Field        | Value    |
|--------------|----------|
| Entrypoint   | 0x02FF   |
| Data Size    | 42 bytes |
| Instructions | 6        |

```
      00 01 02 03 04 05 06 07  08 09 0A 0B 0C 0D 0E 0F
      -- -- -- -- -- -- -- --  -- -- -- -- -- -- -- --
02F0:                                               03                 .
0300: 00 00 07 7F 1A 5A 00 66  01 00 F8 FF FF 7F F8 FF  .....Z.f........
0310: FF 7F 74 6C 6B 30 1C 3F  80 66 01 00 F8 FF FF 7F  ..tlk0.?.f......
0320: F8 FF FF 7F 74 6C 6B 31  00                       ....tlk1.       
```

#### Opcodes

```
  0: 0x02FF [0x03] ExtData[1]->WorkLocal[0] = Entity->Race
  1: 0x0304 [0x1A] CALL_SUBROUTINE(address=0x005A)
  2: 0x0307 [0x66] LOAD_EXT_SCHEDULER_MAIN: Load scheduler "tlk0" with entities [EventEntity, EventEntity], work=ExtData[1]->WorkLocal[1]
  3: 0x0316 [0x1C] WAIT(60* ticks)
  4: 0x0319 [0x66] LOAD_EXT_SCHEDULER_MAIN: Load scheduler "tlk1" with entities [EventEntity, EventEntity], work=ExtData[1]->WorkLocal[1]
  5: 0x0328 [0x00] END_REQSTACK()
```

### Event 65535.33

#### Metadata

| Field        | Value    |
|--------------|----------|
| Entrypoint   | 0x0329   |
| Data Size    | 29 bytes |
| Instructions | 5        |

```
      00 01 02 03 04 05 06 07  08 09 0A 0B 0C 0D 0E 0F
      -- -- -- -- -- -- -- --  -- -- -- -- -- -- -- --
0320:                             03 00 00 07 7F 1A A4           .......
0330: 00 07 01 00 00 80 66 01  00 F8 FF FF 7F F8 FF FF  ......f.........
0340: 7F 6F 6F 75 30 00                                 .oou0.          
```

#### Opcodes

```
  0: 0x0329 [0x03] ExtData[1]->WorkLocal[0] = Entity->Race
  1: 0x032E [0x1A] CALL_SUBROUTINE(address=0x00A4)
  2: 0x0331 [0x07] ExtData[1]->WorkLocal[1] += 1*
  3: 0x0336 [0x66] LOAD_EXT_SCHEDULER_MAIN: Load scheduler "oou0" with entities [EventEntity, EventEntity], work=ExtData[1]->WorkLocal[1]
  4: 0x0345 [0x00] END_REQSTACK()
```

### Event 65535.34

#### Metadata

| Field        | Value    |
|--------------|----------|
| Entrypoint   | 0x0346   |
| Data Size    | 29 bytes |
| Instructions | 5        |

```
      00 01 02 03 04 05 06 07  08 09 0A 0B 0C 0D 0E 0F
      -- -- -- -- -- -- -- --  -- -- -- -- -- -- -- --
0340:                   03 00  00 07 7F 1A A4 00 07 01        ..........
0350: 00 00 80 66 01 00 F8 FF  FF 7F F8 FF FF 7F 6F 6F  ...f..........oo
0360: 75 31 00                                          u1.             
```

#### Opcodes

```
  0: 0x0346 [0x03] ExtData[1]->WorkLocal[0] = Entity->Race
  1: 0x034B [0x1A] CALL_SUBROUTINE(address=0x00A4)
  2: 0x034E [0x07] ExtData[1]->WorkLocal[1] += 1*
  3: 0x0353 [0x66] LOAD_EXT_SCHEDULER_MAIN: Load scheduler "oou1" with entities [EventEntity, EventEntity], work=ExtData[1]->WorkLocal[1]
  4: 0x0362 [0x00] END_REQSTACK()
```

### Event 65535.35

#### Metadata

| Field        | Value    |
|--------------|----------|
| Entrypoint   | 0x0363   |
| Data Size    | 29 bytes |
| Instructions | 5        |

```
      00 01 02 03 04 05 06 07  08 09 0A 0B 0C 0D 0E 0F
      -- -- -- -- -- -- -- --  -- -- -- -- -- -- -- --
0360:          03 00 00 07 7F  1A A4 00 07 01 00 00 80     .............
0370: 66 01 00 F8 FF FF 7F F8  FF FF 7F 6F 6F 75 32 00  f..........oou2.
```

#### Opcodes

```
  0: 0x0363 [0x03] ExtData[1]->WorkLocal[0] = Entity->Race
  1: 0x0368 [0x1A] CALL_SUBROUTINE(address=0x00A4)
  2: 0x036B [0x07] ExtData[1]->WorkLocal[1] += 1*
  3: 0x0370 [0x66] LOAD_EXT_SCHEDULER_MAIN: Load scheduler "oou2" with entities [EventEntity, EventEntity], work=ExtData[1]->WorkLocal[1]
  4: 0x037F [0x00] END_REQSTACK()
```

### Event 65535.36

#### Metadata

| Field        | Value    |
|--------------|----------|
| Entrypoint   | 0x0380   |
| Data Size    | 27 bytes |
| Instructions | 3        |

```
      00 01 02 03 04 05 06 07  08 09 0A 0B 0C 0D 0E 0F
      -- -- -- -- -- -- -- --  -- -- -- -- -- -- -- --
0380: 2C F8 FF FF 7F F8 FF FF  7F 63 6F 72 70 53 F8 FF  ,........corpS..
0390: FF 7F F8 FF FF 7F 63 6F  72 70 00                 ......corp.     
```

#### Opcodes

```
  0: 0x0380 [0x2C] CREATE_SCHEDULER_TASK: Create scheduler "corp" with entities [EventEntity, EventEntity]
  1: 0x038D [0x53] WAIT_SCHEDULER_TASK: Wait for scheduler "corp" with entities [EventEntity, EventEntity]
  2: 0x039A [0x00] END_REQSTACK()
```

### Event 65535.37

#### Metadata

| Field        | Value   |
|--------------|---------|
| Entrypoint   | 0x039B  |
| Data Size    | 5 bytes |
| Instructions | 2       |

```
      00 01 02 03 04 05 06 07  08 09 0A 0B 0C 0D 0E 0F
      -- -- -- -- -- -- -- --  -- -- -- -- -- -- -- --
0390:                                   B6 0F 40 80 00             ..@..
```

#### Opcodes

```
  0: 0x039B [0xB6] ENTITY_APPEARANCE_HANDLER(case=Model size, value=87*)
  1: 0x039F [0x00] END_REQSTACK()
```

### Event 65535.38

#### Metadata

| Field        | Value   |
|--------------|---------|
| Entrypoint   | 0x03A0  |
| Data Size    | 5 bytes |
| Instructions | 2       |

```
      00 01 02 03 04 05 06 07  08 09 0A 0B 0C 0D 0E 0F
      -- -- -- -- -- -- -- --  -- -- -- -- -- -- -- --
03A0: B6 0F 41 80 00                                    ..A..           
```

#### Opcodes

```
  0: 0x03A0 [0xB6] ENTITY_APPEARANCE_HANDLER(case=Model size, value=93*)
  1: 0x03A4 [0x00] END_REQSTACK()
```

### Event 65535.39

#### Metadata

| Field        | Value   |
|--------------|---------|
| Entrypoint   | 0x03A5  |
| Data Size    | 5 bytes |
| Instructions | 2       |

```
      00 01 02 03 04 05 06 07  08 09 0A 0B 0C 0D 0E 0F
      -- -- -- -- -- -- -- --  -- -- -- -- -- -- -- --
03A0:                B6 0F 42  80 00                         ..B..      
```

#### Opcodes

```
  0: 0x03A5 [0xB6] ENTITY_APPEARANCE_HANDLER(case=Model size, value=96*)
  1: 0x03A9 [0x00] END_REQSTACK()
```

### Event 65535.40

#### Metadata

| Field        | Value   |
|--------------|---------|
| Entrypoint   | 0x03AA  |
| Data Size    | 5 bytes |
| Instructions | 2       |

```
      00 01 02 03 04 05 06 07  08 09 0A 0B 0C 0D 0E 0F
      -- -- -- -- -- -- -- --  -- -- -- -- -- -- -- --
03A0:                                B6 0F 43 80 00               ..C.. 
```

#### Opcodes

```
  0: 0x03AA [0xB6] ENTITY_APPEARANCE_HANDLER(case=Model size, value=100*)
  1: 0x03AE [0x00] END_REQSTACK()
```

### Event 65535.41

#### Metadata

| Field        | Value    |
|--------------|----------|
| Entrypoint   | 0x03AF   |
| Data Size    | 14 bytes |
| Instructions | 4        |

```
      00 01 02 03 04 05 06 07  08 09 0A 0B 0C 0D 0E 0F
      -- -- -- -- -- -- -- --  -- -- -- -- -- -- -- --
03A0:                                               32                 2
03B0: 11 80 1F 00 44 80 45 80  46 80 1F 01 00           ....D.E.F....   
```

#### Opcodes

```
  0: 0x03AF [0x32] ExtData[1]->MainSpeed = 13* * 0.1
  1: 0x03B2 [0x1F] MOVE_ENTITY: EventEntity moves to X=293.542*, Z=-5.294*, Y=-6.420*
  2: 0x03BA [0x1F] MOVE_ENTITY: Update entity position (mode=1)
  3: 0x03BC [0x00] END_REQSTACK()
```

### Event 65535.42

#### Metadata

| Field        | Value    |
|--------------|----------|
| Entrypoint   | 0x03BD   |
| Data Size    | 14 bytes |
| Instructions | 4        |

```
      00 01 02 03 04 05 06 07  08 09 0A 0B 0C 0D 0E 0F
      -- -- -- -- -- -- -- --  -- -- -- -- -- -- -- --
03B0:                                         32 11 80               2..
03C0: 1F 00 47 80 48 80 49 80  1F 01 00                 ..G.H.I....     
```

#### Opcodes

```
  0: 0x03BD [0x32] ExtData[1]->MainSpeed = 13* * 0.1
  1: 0x03C0 [0x1F] MOVE_ENTITY: EventEntity moves to X=292.897*, Z=-4.309*, Y=-6.297*
  2: 0x03C8 [0x1F] MOVE_ENTITY: Update entity position (mode=1)
  3: 0x03CA [0x00] END_REQSTACK()
```

### Event 65535.43

#### Metadata

| Field        | Value    |
|--------------|----------|
| Entrypoint   | 0x03CB   |
| Data Size    | 10 bytes |
| Instructions | 2        |

```
      00 01 02 03 04 05 06 07  08 09 0A 0B 0C 0D 0E 0F
      -- -- -- -- -- -- -- --  -- -- -- -- -- -- -- --
03C0:                                   6C F8 FF FF 7F             l....
03D0: 01 80 3F 80 00                                    ..?..           
```

#### Opcodes

```
  0: 0x03CB [0x6C] FADE_ENTITY_COLOR(entity_id=EventEntity, end_alpha=0*, fade_time=60*)
  1: 0x03D4 [0x00] END_REQSTACK()
```

### Event 65535.44

#### Metadata

| Field        | Value    |
|--------------|----------|
| Entrypoint   | 0x03D5   |
| Data Size    | 10 bytes |
| Instructions | 2        |

```
      00 01 02 03 04 05 06 07  08 09 0A 0B 0C 0D 0E 0F
      -- -- -- -- -- -- -- --  -- -- -- -- -- -- -- --
03D0:                6C F8 FF  FF 7F 2E 80 3F 80 00          l......?.. 
```

#### Opcodes

```
  0: 0x03D5 [0x6C] FADE_ENTITY_COLOR(entity_id=EventEntity, end_alpha=128*, fade_time=60*)
  1: 0x03DE [0x00] END_REQSTACK()
```

### Event 65535.45

#### Metadata

| Field        | Value    |
|--------------|----------|
| Entrypoint   | 0x03DF   |
| Data Size    | 24 bytes |
| Instructions | 4        |

```
      00 01 02 03 04 05 06 07  08 09 0A 0B 0C 0D 0E 0F
      -- -- -- -- -- -- -- --  -- -- -- -- -- -- -- --
03D0:                                               03                 .
03E0: 00 00 07 7F 1A A4 00 66  01 00 F8 FF FF 7F F8 FF  .......f........
03F0: FF 7F 6D 61 62 30 00                              ..mab0.         
```

#### Opcodes

```
  0: 0x03DF [0x03] ExtData[1]->WorkLocal[0] = Entity->Race
  1: 0x03E4 [0x1A] CALL_SUBROUTINE(address=0x00A4)
  2: 0x03E7 [0x66] LOAD_EXT_SCHEDULER_MAIN: Load scheduler "mab0" with entities [EventEntity, EventEntity], work=ExtData[1]->WorkLocal[1]
  3: 0x03F6 [0x00] END_REQSTACK()
```

### Event 65535.46

#### Metadata

| Field        | Value    |
|--------------|----------|
| Entrypoint   | 0x03F7   |
| Data Size    | 24 bytes |
| Instructions | 4        |

```
      00 01 02 03 04 05 06 07  08 09 0A 0B 0C 0D 0E 0F
      -- -- -- -- -- -- -- --  -- -- -- -- -- -- -- --
03F0:                      03  00 00 07 7F 1A A4 00 66         ........f
0400: 01 00 F8 FF FF 7F F8 FF  FF 7F 6D 61 62 31 00     ..........mab1. 
```

#### Opcodes

```
  0: 0x03F7 [0x03] ExtData[1]->WorkLocal[0] = Entity->Race
  1: 0x03FC [0x1A] CALL_SUBROUTINE(address=0x00A4)
  2: 0x03FF [0x66] LOAD_EXT_SCHEDULER_MAIN: Load scheduler "mab1" with entities [EventEntity, EventEntity], work=ExtData[1]->WorkLocal[1]
  3: 0x040E [0x00] END_REQSTACK()
```

### Event 65535.47

#### Metadata

| Field        | Value    |
|--------------|----------|
| Entrypoint   | 0x040F   |
| Data Size    | 29 bytes |
| Instructions | 5        |

```
      00 01 02 03 04 05 06 07  08 09 0A 0B 0C 0D 0E 0F
      -- -- -- -- -- -- -- --  -- -- -- -- -- -- -- --
0400:                                               03                 .
0410: 00 00 07 7F 1A A4 00 07  01 00 00 80 66 01 00 F8  ............f...
0420: FF FF 7F F8 FF FF 7F 6B  69 7A 30 00              .......kiz0.    
```

#### Opcodes

```
  0: 0x040F [0x03] ExtData[1]->WorkLocal[0] = Entity->Race
  1: 0x0414 [0x1A] CALL_SUBROUTINE(address=0x00A4)
  2: 0x0417 [0x07] ExtData[1]->WorkLocal[1] += 1*
  3: 0x041C [0x66] LOAD_EXT_SCHEDULER_MAIN: Load scheduler "kiz0" with entities [EventEntity, EventEntity], work=ExtData[1]->WorkLocal[1]
  4: 0x042B [0x00] END_REQSTACK()
```

### Event 65535.48

#### Metadata

| Field        | Value    |
|--------------|----------|
| Entrypoint   | 0x042C   |
| Data Size    | 29 bytes |
| Instructions | 5        |

```
      00 01 02 03 04 05 06 07  08 09 0A 0B 0C 0D 0E 0F
      -- -- -- -- -- -- -- --  -- -- -- -- -- -- -- --
0420:                                      03 00 00 07              ....
0430: 7F 1A A4 00 07 01 00 00  80 66 01 00 F8 FF FF 7F  .........f......
0440: F8 FF FF 7F 6B 69 7A 31  00                       ....kiz1.       
```

#### Opcodes

```
  0: 0x042C [0x03] ExtData[1]->WorkLocal[0] = Entity->Race
  1: 0x0431 [0x1A] CALL_SUBROUTINE(address=0x00A4)
  2: 0x0434 [0x07] ExtData[1]->WorkLocal[1] += 1*
  3: 0x0439 [0x66] LOAD_EXT_SCHEDULER_MAIN: Load scheduler "kiz1" with entities [EventEntity, EventEntity], work=ExtData[1]->WorkLocal[1]
  4: 0x0448 [0x00] END_REQSTACK()
```

### Event 65535.49

#### Metadata

| Field        | Value    |
|--------------|----------|
| Entrypoint   | 0x0449   |
| Data Size    | 10 bytes |
| Instructions | 2        |

```
      00 01 02 03 04 05 06 07  08 09 0A 0B 0C 0D 0E 0F
      -- -- -- -- -- -- -- --  -- -- -- -- -- -- -- --
0440:                             6C F8 FF FF 7F 4A 80           l....J.
0450: 4B 80 00                                          K..             
```

#### Opcodes

```
  0: 0x0449 [0x6C] FADE_ENTITY_COLOR(entity_id=EventEntity, end_alpha=127*, fade_time=120*)
  1: 0x0452 [0x00] END_REQSTACK()
```

### Event 65535.50

#### Metadata

| Field        | Value    |
|--------------|----------|
| Entrypoint   | 0x0453   |
| Data Size    | 10 bytes |
| Instructions | 2        |

```
      00 01 02 03 04 05 06 07  08 09 0A 0B 0C 0D 0E 0F
      -- -- -- -- -- -- -- --  -- -- -- -- -- -- -- --
0450:          6C F8 FF FF 7F  01 80 4B 80 00              l......K..   
```

#### Opcodes

```
  0: 0x0453 [0x6C] FADE_ENTITY_COLOR(entity_id=EventEntity, end_alpha=0*, fade_time=120*)
  1: 0x045C [0x00] END_REQSTACK()
```

### Event 65535.51

#### Metadata

| Field        | Value    |
|--------------|----------|
| Entrypoint   | 0x045D   |
| Data Size    | 27 bytes |
| Instructions | 5        |

```
      00 01 02 03 04 05 06 07  08 09 0A 0B 0C 0D 0E 0F
      -- -- -- -- -- -- -- --  -- -- -- -- -- -- -- --
0450:                                         03 00 00               ...
0460: 07 7F 1A 7F 00 0B 01 00  66 01 00 F8 FF FF 7F F8  ........f.......
0470: FF FF 7F 70 61 73 30 00                           ...pas0.        
```

#### Opcodes

```
  0: 0x045D [0x03] ExtData[1]->WorkLocal[0] = Entity->Race
  1: 0x0462 [0x1A] CALL_SUBROUTINE(address=0x007F)
  2: 0x0465 [0x0B] ExtData[1]->WorkLocal[1]++
  3: 0x0468 [0x66] LOAD_EXT_SCHEDULER_MAIN: Load scheduler "pas0" with entities [EventEntity, EventEntity], work=ExtData[1]->WorkLocal[1]
  4: 0x0477 [0x00] END_REQSTACK()
```

### Event 65535.52

#### Metadata

| Field        | Value    |
|--------------|----------|
| Entrypoint   | 0x0478   |
| Data Size    | 22 bytes |
| Instructions | 6        |

```
      00 01 02 03 04 05 06 07  08 09 0A 0B 0C 0D 0E 0F
      -- -- -- -- -- -- -- --  -- -- -- -- -- -- -- --
0470:                          32 24 80 1F 00 4C 80 4D          2$...L.M
0480: 80 4E 80 1F 01 1E 7E B1  10 01 1C 4F 80 00        .N....~....O..  
```

#### Opcodes

```
  0: 0x0478 [0x32] ExtData[1]->MainSpeed = 40* * 0.1
  1: 0x047B [0x1F] MOVE_ENTITY: EventEntity moves to X=295.027*, Z=-7.090*, Y=-6.419*
  2: 0x0483 [0x1F] MOVE_ENTITY: Update entity position (mode=1)
  3: 0x0485 [0x1E] EventEntity looks at Unnamed NPC (ID: 17871230/0x0110B17E) and starts talking
  4: 0x048A [0x1C] WAIT(30* ticks)
  5: 0x048D [0x00] END_REQSTACK()
```

### Event 65535.53

#### Metadata

| Field        | Value    |
|--------------|----------|
| Entrypoint   | 0x048E   |
| Data Size    | 19 bytes |
| Instructions | 5        |

```
      00 01 02 03 04 05 06 07  08 09 0A 0B 0C 0D 0E 0F
      -- -- -- -- -- -- -- --  -- -- -- -- -- -- -- --
0480:                                            32 11                2.
0490: 80 1F 00 4C 80 4D 80 4E  80 1F 01 1E 7E B1 10 01  ...L.M.N....~...
04A0: 00                                                .               
```

#### Opcodes

```
  0: 0x048E [0x32] ExtData[1]->MainSpeed = 13* * 0.1
  1: 0x0491 [0x1F] MOVE_ENTITY: EventEntity moves to X=295.027*, Z=-7.090*, Y=-6.419*
  2: 0x0499 [0x1F] MOVE_ENTITY: Update entity position (mode=1)
  3: 0x049B [0x1E] EventEntity looks at Unnamed NPC (ID: 17871230/0x0110B17E) and starts talking
  4: 0x04A0 [0x00] END_REQSTACK()
```

### Event 65535.54

#### Metadata

| Field        | Value    |
|--------------|----------|
| Entrypoint   | 0x04A1   |
| Data Size    | 24 bytes |
| Instructions | 5        |

```
      00 01 02 03 04 05 06 07  08 09 0A 0B 0C 0D 0E 0F
      -- -- -- -- -- -- -- --  -- -- -- -- -- -- -- --
04A0:    32 11 80 1F 00 50 80  51 80 52 80 1F 01 79 00   2....P.Q.R...y.
04B0: F0 FF FF 7F 7C B1 10 01  00                       ....|....       
```

#### Opcodes

```
  0: 0x04A1 [0x32] ExtData[1]->MainSpeed = 13* * 0.1
  1: 0x04A4 [0x1F] MOVE_ENTITY: EventEntity moves to X=292.628*, Z=-3.433*, Y=-6.470*
  2: 0x04AC [0x1F] MOVE_ENTITY: Update entity position (mode=1)
  3: 0x04AE [0x79] LocalPlayer looks at Unnamed NPC (ID: 17871228/0x0110B17C) (Basic look)
  4: 0x04B8 [0x00] END_REQSTACK()
```

### Event 65535.55

#### Metadata

| Field        | Value     |
|--------------|-----------|
| Entrypoint   | 0x04B9    |
| Data Size    | 353 bytes |
| Instructions | 41        |

```
      00 01 02 03 04 05 06 07  08 09 0A 0B 0C 0D 0E 0F
      -- -- -- -- -- -- -- --  -- -- -- -- -- -- -- --
04B0:                             02 07 7F 00 80 80 E5           .......
04C0: 04 66 53 80 F8 FF FF 7F  F8 FF FF 7F 74 6C 6B 30  .fS.........tlk0
04D0: 1C 4B 80 66 53 80 F8 FF  FF 7F F8 FF FF 7F 74 6C  .K.fS.........tl
04E0: 6B 31 01 19 06 02 07 7F  03 80 80 11 05 66 54 80  k1...........fT.
04F0: F8 FF FF 7F F8 FF FF 7F  74 6C 6B 30 1C 4B 80 66  ........tlk0.K.f
0500: 54 80 F8 FF FF 7F F8 FF  FF 7F 74 6C 6B 31 01 19  T.........tlk1..
0510: 06 02 07 7F 55 80 80 3D  05 66 56 80 F8 FF FF 7F  ....U..=.fV.....
0520: F8 FF FF 7F 74 6C 6B 30  1C 4B 80 66 56 80 F8 FF  ....tlk0.K.fV...
0530: FF 7F F8 FF FF 7F 74 6C  6B 31 01 19 06 02 07 7F  ......tlk1......
0540: 57 80 80 69 05 66 58 80  F8 FF FF 7F F8 FF FF 7F  W..i.fX.........
0550: 74 6C 6B 30 1C 4B 80 66  58 80 F8 FF FF 7F F8 FF  tlk0.K.fX.......
0560: FF 7F 74 6C 6B 31 01 19  06 02 07 7F 02 80 80 95  ..tlk1..........
0570: 05 66 59 80 F8 FF FF 7F  F8 FF FF 7F 74 6C 6B 30  .fY.........tlk0
0580: 1C 4B 80 66 59 80 F8 FF  FF 7F F8 FF FF 7F 74 6C  .K.fY.........tl
0590: 6B 31 01 19 06 02 07 7F  5A 80 80 C1 05 66 59 80  k1......Z....fY.
05A0: F8 FF FF 7F F8 FF FF 7F  74 6C 6B 30 1C 4B 80 66  ........tlk0.K.f
05B0: 59 80 F8 FF FF 7F F8 FF  FF 7F 74 6C 6B 31 01 19  Y.........tlk1..
05C0: 06 02 07 7F 36 80 80 ED  05 66 5B 80 F8 FF FF 7F  ....6....f[.....
05D0: F8 FF FF 7F 74 6C 6B 30  1C 4B 80 66 5B 80 F8 FF  ....tlk0.K.f[...
05E0: FF 7F F8 FF FF 7F 74 6C  6B 31 01 19 06 02 07 7F  ......tlk1......
05F0: 35 80 80 19 06 66 5C 80  F8 FF FF 7F F8 FF FF 7F  5....f\.........
0600: 74 6C 6B 30 1C 4B 80 66  5C 80 F8 FF FF 7F F8 FF  tlk0.K.f\.......
0610: FF 7F 74 6C 6B 31 01 19  06 00                    ..tlk1....      
```

#### Opcodes

```
  0: 0x04B9 [0x02] IF !(Entity->Race == 1*) GOTO 0x04E5
  1: 0x04C1 [0x66] LOAD_EXT_SCHEDULER_MAIN: Load scheduler "tlk0" with entities [EventEntity, EventEntity], work=149*
  2: 0x04D0 [0x1C] WAIT(120* ticks)
  3: 0x04D3 [0x66] LOAD_EXT_SCHEDULER_MAIN: Load scheduler "tlk1" with entities [EventEntity, EventEntity], work=149*
  4: 0x04E2 [0x01] GOTO 0x0619
  5: 0x04E5 [0x02] IF !(Entity->Race == 2*) GOTO 0x0511
  6: 0x04ED [0x66] LOAD_EXT_SCHEDULER_MAIN: Load scheduler "tlk0" with entities [EventEntity, EventEntity], work=159*
  7: 0x04FC [0x1C] WAIT(120* ticks)
  8: 0x04FF [0x66] LOAD_EXT_SCHEDULER_MAIN: Load scheduler "tlk1" with entities [EventEntity, EventEntity], work=159*
  9: 0x050E [0x01] GOTO 0x0619
 10: 0x0511 [0x02] IF !(Entity->Race == 3*) GOTO 0x053D
 11: 0x0519 [0x66] LOAD_EXT_SCHEDULER_MAIN: Load scheduler "tlk0" with entities [EventEntity, EventEntity], work=169*
 12: 0x0528 [0x1C] WAIT(120* ticks)
 13: 0x052B [0x66] LOAD_EXT_SCHEDULER_MAIN: Load scheduler "tlk1" with entities [EventEntity, EventEntity], work=169*
 14: 0x053A [0x01] GOTO 0x0619
 15: 0x053D [0x02] IF !(Entity->Race == 4*) GOTO 0x0569
 16: 0x0545 [0x66] LOAD_EXT_SCHEDULER_MAIN: Load scheduler "tlk0" with entities [EventEntity, EventEntity], work=179*
 17: 0x0554 [0x1C] WAIT(120* ticks)
 18: 0x0557 [0x66] LOAD_EXT_SCHEDULER_MAIN: Load scheduler "tlk1" with entities [EventEntity, EventEntity], work=179*
 19: 0x0566 [0x01] GOTO 0x0619
 20: 0x0569 [0x02] IF !(Entity->Race == 5*) GOTO 0x0595
 21: 0x0571 [0x66] LOAD_EXT_SCHEDULER_MAIN: Load scheduler "tlk0" with entities [EventEntity, EventEntity], work=189*
 22: 0x0580 [0x1C] WAIT(120* ticks)
 23: 0x0583 [0x66] LOAD_EXT_SCHEDULER_MAIN: Load scheduler "tlk1" with entities [EventEntity, EventEntity], work=189*
 24: 0x0592 [0x01] GOTO 0x0619
 25: 0x0595 [0x02] IF !(Entity->Race == 6*) GOTO 0x05C1
 26: 0x059D [0x66] LOAD_EXT_SCHEDULER_MAIN: Load scheduler "tlk0" with entities [EventEntity, EventEntity], work=189*
 27: 0x05AC [0x1C] WAIT(120* ticks)
 28: 0x05AF [0x66] LOAD_EXT_SCHEDULER_MAIN: Load scheduler "tlk1" with entities [EventEntity, EventEntity], work=189*
 29: 0x05BE [0x01] GOTO 0x0619
 30: 0x05C1 [0x02] IF !(Entity->Race == 7*) GOTO 0x05ED
 31: 0x05C9 [0x66] LOAD_EXT_SCHEDULER_MAIN: Load scheduler "tlk0" with entities [EventEntity, EventEntity], work=199*
 32: 0x05D8 [0x1C] WAIT(120* ticks)
 33: 0x05DB [0x66] LOAD_EXT_SCHEDULER_MAIN: Load scheduler "tlk1" with entities [EventEntity, EventEntity], work=199*
 34: 0x05EA [0x01] GOTO 0x0619
 35: 0x05ED [0x02] IF !(Entity->Race == 8*) GOTO 0x0619
 36: 0x05F5 [0x66] LOAD_EXT_SCHEDULER_MAIN: Load scheduler "tlk0" with entities [EventEntity, EventEntity], work=209*
 37: 0x0604 [0x1C] WAIT(120* ticks)
 38: 0x0607 [0x66] LOAD_EXT_SCHEDULER_MAIN: Load scheduler "tlk1" with entities [EventEntity, EventEntity], work=209*
 39: 0x0616 [0x01] GOTO 0x0619

SUBROUTINE_0619:
 40: 0x0619 [0x00] END_REQSTACK()
```

### Event 65535.56

#### Metadata

| Field        | Value    |
|--------------|----------|
| Entrypoint   | 0x061A   |
| Data Size    | 47 bytes |
| Instructions | 7        |

```
      00 01 02 03 04 05 06 07  08 09 0A 0B 0C 0D 0E 0F
      -- -- -- -- -- -- -- --  -- -- -- -- -- -- -- --
0610:                                03 00 00 07 7F 1A            ......
0620: A4 00 07 01 00 00 80 66  01 00 F8 FF FF 7F F8 FF  .......f........
0630: FF 7F 6B 69 7A 30 1C 5D  80 66 01 00 F8 FF FF 7F  ..kiz0.].f......
0640: F8 FF FF 7F 6B 69 7A 31  00                       ....kiz1.       
```

#### Opcodes

```
  0: 0x061A [0x03] ExtData[1]->WorkLocal[0] = Entity->Race
  1: 0x061F [0x1A] CALL_SUBROUTINE(address=0x00A4)
  2: 0x0622 [0x07] ExtData[1]->WorkLocal[1] += 1*
  3: 0x0627 [0x66] LOAD_EXT_SCHEDULER_MAIN: Load scheduler "kiz0" with entities [EventEntity, EventEntity], work=ExtData[1]->WorkLocal[1]
  4: 0x0636 [0x1C] WAIT(180* ticks)
  5: 0x0639 [0x66] LOAD_EXT_SCHEDULER_MAIN: Load scheduler "kiz1" with entities [EventEntity, EventEntity], work=ExtData[1]->WorkLocal[1]
  6: 0x0648 [0x00] END_REQSTACK()
```

### Event 5504

#### Metadata

| Field        | Value     |
|--------------|-----------|
| Entrypoint   | 0x0649    |
| Data Size    | 128 bytes |
| Instructions | 14        |

```
      00 01 02 03 04 05 06 07  08 09 0A 0B 0C 0D 0E 0F
      -- -- -- -- -- -- -- --  -- -- -- -- -- -- -- --
0640:                             42 45 5E 80 F0 FF FF           BE^....
0650: 7F F0 FF FF 7F 66 64 6F  31 01 80 62 00 80 F0 FF  .....fdo1..b....
0660: FF 7F F0 FF FF 7F 6D 61  69 6E 01 80 1C 5F 80 45  ......main..._.E
0670: 3A 80 F0 FF FF 7F F0 FF  FF 7F 77 68 6F 31 01 80  :.........who1..
0680: 55 3A 80 F0 FF FF 7F F0  FF FF 7F 77 68 6F 31 1C  U:.........who1.
0690: 60 80 45 5E 80 F0 FF FF  7F F0 FF FF 7F 66 64 6F  `.E^.........fdo
06A0: 31 01 80 55 5E 80 F0 FF  FF 7F F0 FF FF 7F 66 64  1..U^.........fd
06B0: 6F 31 45 3A 80 F0 FF FF  7F F0 FF FF 7F 77 68 69  o1E:.........whi
06C0: 31 01 80 1C 61 80 30 21  00                       1...a.0!.       
```

#### Opcodes

```
  0: 0x0649 [0x42] SET_CLI_EVENT_CANCEL_DATA()
  1: 0x064A [0x45] LOAD_SCHEDULED_TASK: Load scheduler "fdo1" with entities [LocalPlayer, LocalPlayer], work=[200*, 0*]
  2: 0x065B [0x62] LOAD_EVENT_SCHEDULER: Load scheduler "main" with entities [LocalPlayer, LocalPlayer], work=[1*, 0*]
  3: 0x066C [0x1C] WAIT(90* ticks)
  4: 0x066F [0x45] LOAD_SCHEDULED_TASK: Load scheduler "who1" with entities [LocalPlayer, LocalPlayer], work=[201*, 0*]
  5: 0x0680 [0x55] WAIT_LOAD_SCHEDULER: Wait for scheduler "who1" with entities [LocalPlayer, LocalPlayer], work=201*
  6: 0x068F [0x1C] WAIT(45* ticks)
  7: 0x0692 [0x45] LOAD_SCHEDULED_TASK: Load scheduler "fdo1" with entities [LocalPlayer, LocalPlayer], work=[200*, 0*]
  8: 0x06A3 [0x55] WAIT_LOAD_SCHEDULER: Wait for scheduler "fdo1" with entities [LocalPlayer, LocalPlayer], work=200*
  9: 0x06B2 [0x45] LOAD_SCHEDULED_TASK: Load scheduler "whi1" with entities [LocalPlayer, LocalPlayer], work=[201*, 0*]
 10: 0x06C3 [0x1C] WAIT(15* ticks)
 11: 0x06C6 [0x30] SET_UCOFF_CONTINUE_ZERO()
 12: 0x06C7 [0x21] END_EVENT
 13: 0x06C8 [0x00] END_REQSTACK()
```
