# Event 193

## Metadata

| Field           | Value    |
|-----------------|----------|
| Event Index     | 4/9      |
| Offset          | 0x04B1   |
| Data Size       | 47 bytes |
| Calculated Size | 47 bytes |
| Instructions    | 11       |

```
      00 01 02 03 04 05 06 07  08 09 0A 0B 0C 0D 0E 0F
      -- -- -- -- -- -- -- --  -- -- -- -- -- -- -- --
04B0:    20 01 1E F0 FF FF 7F  6F 70 66 09 80 F8 FF FF    ......opf.....
04C0: 7F F8 FF FF 7F 74 6C 6B  30 1D 31 80 23 66 09 80  .....tlk0.1.#f..
04D0: F8 FF FF 7F F8 FF FF 7F  74 6C 6B 31 20 00 21 00  ........tlk1 .!.
```

## Opcodes

```
  0: 0x04B1 [0x20] SET_CLI_EVENT_UC_FLAG: Lock player control
  1: 0x04B3 [0x1E] EventEntity looks at LocalPlayer and starts talking
  2: 0x04B8 [0x6F] WAIT_FRAME_DELAY: Yield until WaitTime reaches zero
  3: 0x04B9 [0x70] WAIT_ENTITY_RENDER_FLAG: Wait while EventEntity->Render.Flags3 bit 2 is set (cancel turn if not)
  4: 0x04BA [0x66] LOAD_EXT_SCHEDULER_MAIN: Load scheduler "tlk0" with entities [EventEntity, EventEntity], work=40*
  5: 0x04C9 [0x1D] PRINT_EVENT_MESSAGE(message_id=7730*)
    → "Mercenaries from across the Federation are banging on my doors day and nightaru to get their greedy-weedy hands on my charms. I'm counting on you!\u007F1\u0000\u0007"
  6: 0x04CC [0x23] WAIT_FOR_DIALOG_INTERACTION
  7: 0x04CD [0x66] LOAD_EXT_SCHEDULER_MAIN: Load scheduler "tlk1" with entities [EventEntity, EventEntity], work=40*
  8: 0x04DC [0x20] SET_CLI_EVENT_UC_FLAG: Unlock player control
  9: 0x04DE [0x21] END_EVENT
 10: 0x04DF [0x00] END_REQSTACK()
```
