# Event 198

## Metadata

| Field           | Value    |
|-----------------|----------|
| Event Index     | 9/9      |
| Offset          | 0x07DD   |
| Data Size       | 47 bytes |
| Calculated Size | 47 bytes |
| Instructions    | 11       |

```
      00 01 02 03 04 05 06 07  08 09 0A 0B 0C 0D 0E 0F
      -- -- -- -- -- -- -- --  -- -- -- -- -- -- -- --
07D0:                                         20 01 1E                ..
07E0: F0 FF FF 7F 6F 70 66 09  80 F8 FF FF 7F F8 FF FF  ....opf.........
07F0: 7F 74 6C 6B 30 1D 0A 80  23 66 09 80 F8 FF FF 7F  .tlk0...#f......
0800: F8 FF FF 7F 74 6C 6B 31  20 00 21 00              ....tlk1 .!.    
```

## Opcodes

```
  0: 0x07DD [0x20] SET_CLI_EVENT_UC_FLAG: Lock player control
  1: 0x07DF [0x1E] EventEntity looks at LocalPlayer and starts talking
  2: 0x07E4 [0x6F] WAIT_FRAME_DELAY: Yield until WaitTime reaches zero
  3: 0x07E5 [0x70] WAIT_ENTITY_RENDER_FLAG: Wait while EventEntity->Render.Flags3 bit 2 is set (cancel turn if not)
  4: 0x07E6 [0x66] LOAD_EXT_SCHEDULER_MAIN: Load scheduler "tlk0" with entities [EventEntity, EventEntity], work=40*
  5: 0x07F5 [0x1D] PRINT_EVENT_MESSAGE(message_id=7704*)
    → "My mercenary friend!\u0007All of Windurst is in your debtaru!\u007F1\u0000\u0007"
  6: 0x07F8 [0x23] WAIT_FOR_DIALOG_INTERACTION
  7: 0x07F9 [0x66] LOAD_EXT_SCHEDULER_MAIN: Load scheduler "tlk1" with entities [EventEntity, EventEntity], work=40*
  8: 0x0808 [0x20] SET_CLI_EVENT_UC_FLAG: Unlock player control
  9: 0x080A [0x21] END_EVENT
 10: 0x080B [0x00] END_REQSTACK()
```
