# Event 65535

## Metadata

| Field           | Value    |
|-----------------|----------|
| Event Index     | 85/85    |
| Offset          | 0x04CE   |
| Data Size       | 37 bytes |
| Calculated Size | 37 bytes |
| Instructions    | 10       |

```
      00 01 02 03 04 05 06 07  08 09 0A 0B 0C 0D 0E 0F
      -- -- -- -- -- -- -- --  -- -- -- -- -- -- -- --
04C0:                                            32 04                2.
04D0: 80 1F 00 14 80 15 80 16  80 1F 01 1F 00 17 80 18  ................
04E0: 80 16 80 1F 01 1F 00 19  80 1A 80 1B 80 1F 01 6F  ...............o
04F0: 22 01 00                                          "..             
```

## Opcodes

```
  0: 0x04CE [0x32] ExtData[1]->MainSpeed = 40* * 0.1
  1: 0x04D1 [0x1F] MOVE_ENTITY: EventEntity moves to X=93.672*, Z=-67.599*, Y=-31.999*
  2: 0x04D9 [0x1F] MOVE_ENTITY: Update entity position (mode=1)
  3: 0x04DB [0x1F] MOVE_ENTITY: EventEntity moves to X=90.942*, Z=-62.658*, Y=-31.999*
  4: 0x04E3 [0x1F] MOVE_ENTITY: Update entity position (mode=1)
  5: 0x04E5 [0x1F] MOVE_ENTITY: EventEntity moves to X=79.674*, Z=-60.153*, Y=-32.430*
  6: 0x04ED [0x1F] MOVE_ENTITY: Update entity position (mode=1)
  7: 0x04EF [0x6F] WAIT_FRAME_DELAY: Yield until WaitTime reaches zero
  8: 0x04F0 [0x22] ENTITY_HIDE_FLAG(enabled=0x01)
  9: 0x04F2 [0x00] END_REQSTACK()
```
