# 16921098

## Common Data

| Field            | Value                          |
|------------------|--------------------------------|
| Zone             | The Garden of Ru'Hmet (ID: 35) |
| Block Size       | 1072 bytes                     |
| Total Events     | 13                             |
| References Count | 22                             |

## List of Events

| Event ID                   | Entrypoint   |   Size |   Instructions |
|----------------------------|--------------|--------|----------------|
| [65535](#event-65535)      | 0x0000       |      1 |              1 |
| [65534](#event-65534)      | 0x0001       |      1 |              1 |
| [65535.1](#event-655351)   | 0x0002       |     31 |              7 |
| [65535.2](#event-655352)   | 0x0021       |     52 |              6 |
| [65535.3](#event-655353)   | 0x0055       |     38 |              8 |
| [65535.4](#event-655354)   | 0x007B       |     21 |              3 |
| [65535.5](#event-655355)   | 0x0090       |     21 |              3 |
| [65535.6](#event-655356)   | 0x00A5       |     52 |              6 |
| [65535.7](#event-655357)   | 0x00D9       |    372 |             36 |
| [65535.8](#event-655358)   | 0x024D       |    149 |             11 |
| [65535.9](#event-655359)   | 0x02E2       |     38 |              4 |
| [65535.10](#event-6553510) | 0x0308       |    129 |              9 |
| [65535.11](#event-6553511) | 0x0389       |      8 |              2 |

## DAT References (imed_data)

|   Index | Hex Value   |   Dec Value |
|---------|-------------|-------------|
|       0 | 0x0009      |           9 |
|       1 | 0x0003      |           3 |
|       2 | 0x0006      |           6 |
|       3 | 0x01B9      |         441 |
|       4 | 0x01AF      |         431 |
|       5 | 0x01C2      |         450 |
|       6 | 0x0081      |         129 |
|       7 | 0x0000      |           0 |
|       8 | 0x010E      |         270 |
|       9 | 0x02D5      |         725 |
|      10 | 0x001C      |          28 |
|      11 | 0x0001      |           1 |
|      12 | 0x0002      |           2 |
|      13 | 0x0004      |           4 |
|      14 | 0x0005      |           5 |
|      15 | 0x0007      |           7 |
|      16 | 0x0008      |           8 |
|      17 | 0x0096      |         150 |
|      18 | 0x0087      |         135 |
|      19 | 0x0078      |         120 |
|      20 | 0x003C      |          60 |
|      21 | 0x000F      |          15 |

## Events

### Event 65535

#### Metadata

| Field        | Value   |
|--------------|---------|
| Entrypoint   | 0x0000  |
| Data Size    | 1 bytes |
| Instructions | 1       |

```
      00 01 02 03 04 05 06 07  08 09 0A 0B 0C 0D 0E 0F
      -- -- -- -- -- -- -- --  -- -- -- -- -- -- -- --
0000: 00                                                .               
```

#### Opcodes

```
  0: 0x0000 [0x00] END_REQSTACK()
```

### Event 65534

#### Metadata

| Field        | Value   |
|--------------|---------|
| Entrypoint   | 0x0001  |
| Data Size    | 1 bytes |
| Instructions | 1       |

```
      00 01 02 03 04 05 06 07  08 09 0A 0B 0C 0D 0E 0F
      -- -- -- -- -- -- -- --  -- -- -- -- -- -- -- --
0000:    00                                              .              
```

#### Opcodes

```
  0: 0x0001 [0x00] END_REQSTACK()
```

### Event 65535.1

#### Metadata

| Field        | Value    |
|--------------|----------|
| Entrypoint   | 0x0002   |
| Data Size    | 31 bytes |
| Instructions | 7        |

```
      00 01 02 03 04 05 06 07  08 09 0A 0B 0C 0D 0E 0F
      -- -- -- -- -- -- -- --  -- -- -- -- -- -- -- --
0000:       1C 00 80 27 10 14  32 02 01 0D 1C 01 80 27    ...'..2......'
0010: 10 15 32 02 01 0D 1C 02  80 27 10 16 32 02 01 0D  ..2......'..2...
0020: 00                                                .               
```

#### Opcodes

```
  0: 0x0002 [0x1C] WAIT(9* ticks)
  1: 0x0005 [0x27] REQ_SET(priority=0x10, entity_id=Makki-Chebukki (ID: 16921108/0x01023214), tag_num=0x0D)
  2: 0x000C [0x1C] WAIT(3* ticks)
  3: 0x000F [0x27] REQ_SET(priority=0x10, entity_id=Kukki-Chebukki (ID: 16921109/0x01023215), tag_num=0x0D)
  4: 0x0016 [0x1C] WAIT(6* ticks)
  5: 0x0019 [0x27] REQ_SET(priority=0x10, entity_id=Cherukiki (ID: 16921110/0x01023216), tag_num=0x0D)
  6: 0x0020 [0x00] END_REQSTACK()
```

### Event 65535.2

#### Metadata

| Field        | Value    |
|--------------|----------|
| Entrypoint   | 0x0021   |
| Data Size    | 52 bytes |
| Instructions | 6        |

```
      00 01 02 03 04 05 06 07  08 09 0A 0B 0C 0D 0E 0F
      -- -- -- -- -- -- -- --  -- -- -- -- -- -- -- --
0020:    5B 03 80 14 32 02 01  14 32 02 01 64 66 6D 31   [...2...2..dfm1
0030: 1C 01 80 5B 03 80 15 32  02 01 15 32 02 01 64 66  ...[...2...2..df
0040: 6B 31 1C 01 80 5B 04 80  16 32 02 01 16 32 02 01  k1...[...2...2..
0050: 64 66 63 31 00                                    dfc1.           
```

#### Opcodes

```
  0: 0x0021 [0x5B] LOAD_EXT_SCHEDULER: Load scheduler "dfm1" with entities [Makki-Chebukki (ID: 16921108/0x01023214), Makki-Chebukki (ID: 16921108/0x01023214)], work=441*
  1: 0x0030 [0x1C] WAIT(3* ticks)
  2: 0x0033 [0x5B] LOAD_EXT_SCHEDULER: Load scheduler "dfk1" with entities [Kukki-Chebukki (ID: 16921109/0x01023215), Kukki-Chebukki (ID: 16921109/0x01023215)], work=441*
  3: 0x0042 [0x1C] WAIT(3* ticks)
  4: 0x0045 [0x5B] LOAD_EXT_SCHEDULER: Load scheduler "dfc1" with entities [Cherukiki (ID: 16921110/0x01023216), Cherukiki (ID: 16921110/0x01023216)], work=431*
  5: 0x0054 [0x00] END_REQSTACK()
```

### Event 65535.3

#### Metadata

| Field        | Value    |
|--------------|----------|
| Entrypoint   | 0x0055   |
| Data Size    | 38 bytes |
| Instructions | 8        |

```
      00 01 02 03 04 05 06 07  08 09 0A 0B 0C 0D 0E 0F
      -- -- -- -- -- -- -- --  -- -- -- -- -- -- -- --
0050:                27 10 17  32 02 01 0B 1C 02 80 27       '..2......'
0060: 10 18 32 02 01 0B 1C 02  80 27 10 19 32 02 01 0B  ..2......'..2...
0070: 1C 02 80 27 10 1A 32 02  01 0B 00                 ...'..2....     
```

#### Opcodes

```
  0: 0x0055 [0x27] REQ_SET(priority=0x10, entity_id=Unnamed NPC (ID: 16921111/0x01023217), tag_num=0x0B)
  1: 0x005C [0x1C] WAIT(6* ticks)
  2: 0x005F [0x27] REQ_SET(priority=0x10, entity_id=Unnamed NPC (ID: 16921112/0x01023218), tag_num=0x0B)
  3: 0x0066 [0x1C] WAIT(6* ticks)
  4: 0x0069 [0x27] REQ_SET(priority=0x10, entity_id=Unnamed NPC (ID: 16921113/0x01023219), tag_num=0x0B)
  5: 0x0070 [0x1C] WAIT(6* ticks)
  6: 0x0073 [0x27] REQ_SET(priority=0x10, entity_id=Unnamed NPC (ID: 16921114/0x0102321A), tag_num=0x0B)
  7: 0x007A [0x00] END_REQSTACK()
```

### Event 65535.4

#### Metadata

| Field        | Value    |
|--------------|----------|
| Entrypoint   | 0x007B   |
| Data Size    | 21 bytes |
| Instructions | 3        |

```
      00 01 02 03 04 05 06 07  08 09 0A 0B 0C 0D 0E 0F
      -- -- -- -- -- -- -- --  -- -- -- -- -- -- -- --
0070:                                   1C 05 80 9F 06             .....
0080: 80 20 32 02 01 F8 FF FF  7F 73 74 72 30 07 80 00  . 2......str0...
```

#### Opcodes

```
  0: 0x007B [0x1C] WAIT(450* ticks)
  1: 0x007E [0x9F] LOAD_SCHEDULED_TASK_ALT: Load scheduler "str0" with entities [Promathia (ID: 16921120/0x01023220), EventEntity], work=[129*, 0*]
  2: 0x008F [0x00] END_REQSTACK()
```

### Event 65535.5

#### Metadata

| Field        | Value    |
|--------------|----------|
| Entrypoint   | 0x0090   |
| Data Size    | 21 bytes |
| Instructions | 3        |

```
      00 01 02 03 04 05 06 07  08 09 0A 0B 0C 0D 0E 0F
      -- -- -- -- -- -- -- --  -- -- -- -- -- -- -- --
0090: 1C 08 80 9F 06 80 20 32  02 01 F8 FF FF 7F 73 74  ...... 2......st
00A0: 72 31 07 80 00                                    r1...           
```

#### Opcodes

```
  0: 0x0090 [0x1C] WAIT(270* ticks)
  1: 0x0093 [0x9F] LOAD_SCHEDULED_TASK_ALT: Load scheduler "str1" with entities [Promathia (ID: 16921120/0x01023220), EventEntity], work=[129*, 0*]
  2: 0x00A4 [0x00] END_REQSTACK()
```

### Event 65535.6

#### Metadata

| Field        | Value    |
|--------------|----------|
| Entrypoint   | 0x00A5   |
| Data Size    | 52 bytes |
| Instructions | 6        |

```
      00 01 02 03 04 05 06 07  08 09 0A 0B 0C 0D 0E 0F
      -- -- -- -- -- -- -- --  -- -- -- -- -- -- -- --
00A0:                5B 09 80  14 32 02 01 14 32 02 01       [...2...2..
00B0: 64 6F 72 33 1C 01 80 5B  09 80 15 32 02 01 15 32  dor3...[...2...2
00C0: 02 01 64 6F 72 31 1C 01  80 5B 09 80 16 32 02 01  ..dor1...[...2..
00D0: 16 32 02 01 64 6F 72 32  00                       .2..dor2.       
```

#### Opcodes

```
  0: 0x00A5 [0x5B] LOAD_EXT_SCHEDULER: Load scheduler "dor3" with entities [Makki-Chebukki (ID: 16921108/0x01023214), Makki-Chebukki (ID: 16921108/0x01023214)], work=725*
  1: 0x00B4 [0x1C] WAIT(3* ticks)
  2: 0x00B7 [0x5B] LOAD_EXT_SCHEDULER: Load scheduler "dor1" with entities [Kukki-Chebukki (ID: 16921109/0x01023215), Kukki-Chebukki (ID: 16921109/0x01023215)], work=725*
  3: 0x00C6 [0x1C] WAIT(3* ticks)
  4: 0x00C9 [0x5B] LOAD_EXT_SCHEDULER: Load scheduler "dor2" with entities [Cherukiki (ID: 16921110/0x01023216), Cherukiki (ID: 16921110/0x01023216)], work=725*
  5: 0x00D8 [0x00] END_REQSTACK()
```

### Event 65535.7

#### Metadata

| Field        | Value     |
|--------------|-----------|
| Entrypoint   | 0x00D9    |
| Data Size    | 372 bytes |
| Instructions | 36        |

```
      00 01 02 03 04 05 06 07  08 09 0A 0B 0C 0D 0E 0F
      -- -- -- -- -- -- -- --  -- -- -- -- -- -- -- --
00D0:                             29 10 F0 FF FF 7F 4E           ).....N
00E0: 55 0A 80 F0 FF FF 7F F0  FF FF 7F 70 72 32 30 03  U..........pr20.
00F0: 00 00 02 10 02 00 00 0B  80 80 1F 01 45 0A 80 F0  ............E...
0100: FF FF 7F F0 FF FF 7F 70  68 6D 30 07 80 55 0A 80  .......phm0..U..
0110: F0 FF FF 7F F0 FF FF 7F  70 68 6D 30 01 4C 02 02  ........phm0.L..
0120: 00 00 0C 80 80 4A 01 45  0A 80 F0 FF FF 7F F0 FF  .....J.E........
0130: FF 7F 70 68 66 30 07 80  55 0A 80 F0 FF FF 7F F0  ..phf0..U.......
0140: FF FF 7F 70 68 66 30 01  4C 02 02 00 00 01 80 80  ...phf0.L.......
0150: 75 01 45 0A 80 F0 FF FF  7F F0 FF FF 7F 70 65 6D  u.E..........pem
0160: 30 07 80 55 0A 80 F0 FF  FF 7F F0 FF FF 7F 70 65  0..U..........pe
0170: 6D 30 01 4C 02 02 00 00  0D 80 80 A0 01 45 0A 80  m0.L.........E..
0180: F0 FF FF 7F F0 FF FF 7F  70 65 66 30 07 80 55 0A  ........pef0..U.
0190: 80 F0 FF FF 7F F0 FF FF  7F 70 65 66 30 01 4C 02  .........pef0.L.
01A0: 02 00 00 0E 80 80 CB 01  45 0A 80 F0 FF FF 7F F0  ........E.......
01B0: FF FF 7F 70 74 72 30 07  80 55 0A 80 F0 FF FF 7F  ...ptr0..U......
01C0: F0 FF FF 7F 70 74 72 30  01 4C 02 02 00 00 02 80  ....ptr0.L......
01D0: 80 F6 01 45 0A 80 F0 FF  FF 7F F0 FF FF 7F 70 74  ...E..........pt
01E0: 72 30 07 80 55 0A 80 F0  FF FF 7F F0 FF FF 7F 70  r0..U..........p
01F0: 74 72 30 01 4C 02 02 00  00 0F 80 80 21 02 45 0A  tr0.L.......!.E.
0200: 80 F0 FF FF 7F F0 FF FF  7F 70 6D 74 30 07 80 55  .........pmt0..U
0210: 0A 80 F0 FF FF 7F F0 FF  FF 7F 70 6D 74 30 01 4C  ..........pmt0.L
0220: 02 02 00 00 10 80 80 4C  02 45 0A 80 F0 FF FF 7F  .......L.E......
0230: F0 FF FF 7F 70 67 6C 30  07 80 55 0A 80 F0 FF FF  ....pgl0..U.....
0240: 7F F0 FF FF 7F 70 67 6C  30 01 4C 02 00           .....pgl0.L..   
```

#### Opcodes

```
  0: 0x00D9 [0x29] REQ_SET_WAIT(priority=0x10, entity_id=LocalPlayer, tag_num=0x4E)
  1: 0x00E0 [0x55] WAIT_LOAD_SCHEDULER: Wait for scheduler "pr20" with entities [LocalPlayer, LocalPlayer], work=28*
  2: 0x00EF [0x03] ExtData[1]->WorkLocal[0] = Work_Zone[2]
  3: 0x00F4 [0x02] IF !(ExtData[1]->WorkLocal[0] == 1*) GOTO 0x011F
  4: 0x00FC [0x45] LOAD_SCHEDULED_TASK: Load scheduler "phm0" with entities [LocalPlayer, LocalPlayer], work=[28*, 0*]
  5: 0x010D [0x55] WAIT_LOAD_SCHEDULER: Wait for scheduler "phm0" with entities [LocalPlayer, LocalPlayer], work=28*
  6: 0x011C [0x01] GOTO 0x024C
  7: 0x011F [0x02] IF !(ExtData[1]->WorkLocal[0] == 2*) GOTO 0x014A
  8: 0x0127 [0x45] LOAD_SCHEDULED_TASK: Load scheduler "phf0" with entities [LocalPlayer, LocalPlayer], work=[28*, 0*]
  9: 0x0138 [0x55] WAIT_LOAD_SCHEDULER: Wait for scheduler "phf0" with entities [LocalPlayer, LocalPlayer], work=28*
 10: 0x0147 [0x01] GOTO 0x024C
 11: 0x014A [0x02] IF !(ExtData[1]->WorkLocal[0] == 3*) GOTO 0x0175
 12: 0x0152 [0x45] LOAD_SCHEDULED_TASK: Load scheduler "pem0" with entities [LocalPlayer, LocalPlayer], work=[28*, 0*]
 13: 0x0163 [0x55] WAIT_LOAD_SCHEDULER: Wait for scheduler "pem0" with entities [LocalPlayer, LocalPlayer], work=28*
 14: 0x0172 [0x01] GOTO 0x024C
 15: 0x0175 [0x02] IF !(ExtData[1]->WorkLocal[0] == 4*) GOTO 0x01A0
 16: 0x017D [0x45] LOAD_SCHEDULED_TASK: Load scheduler "pef0" with entities [LocalPlayer, LocalPlayer], work=[28*, 0*]
 17: 0x018E [0x55] WAIT_LOAD_SCHEDULER: Wait for scheduler "pef0" with entities [LocalPlayer, LocalPlayer], work=28*
 18: 0x019D [0x01] GOTO 0x024C
 19: 0x01A0 [0x02] IF !(ExtData[1]->WorkLocal[0] == 5*) GOTO 0x01CB
 20: 0x01A8 [0x45] LOAD_SCHEDULED_TASK: Load scheduler "ptr0" with entities [LocalPlayer, LocalPlayer], work=[28*, 0*]
 21: 0x01B9 [0x55] WAIT_LOAD_SCHEDULER: Wait for scheduler "ptr0" with entities [LocalPlayer, LocalPlayer], work=28*
 22: 0x01C8 [0x01] GOTO 0x024C
 23: 0x01CB [0x02] IF !(ExtData[1]->WorkLocal[0] == 6*) GOTO 0x01F6
 24: 0x01D3 [0x45] LOAD_SCHEDULED_TASK: Load scheduler "ptr0" with entities [LocalPlayer, LocalPlayer], work=[28*, 0*]
 25: 0x01E4 [0x55] WAIT_LOAD_SCHEDULER: Wait for scheduler "ptr0" with entities [LocalPlayer, LocalPlayer], work=28*
 26: 0x01F3 [0x01] GOTO 0x024C
 27: 0x01F6 [0x02] IF !(ExtData[1]->WorkLocal[0] == 7*) GOTO 0x0221
 28: 0x01FE [0x45] LOAD_SCHEDULED_TASK: Load scheduler "pmt0" with entities [LocalPlayer, LocalPlayer], work=[28*, 0*]
 29: 0x020F [0x55] WAIT_LOAD_SCHEDULER: Wait for scheduler "pmt0" with entities [LocalPlayer, LocalPlayer], work=28*
 30: 0x021E [0x01] GOTO 0x024C
 31: 0x0221 [0x02] IF !(ExtData[1]->WorkLocal[0] == 8*) GOTO 0x024C
 32: 0x0229 [0x45] LOAD_SCHEDULED_TASK: Load scheduler "pgl0" with entities [LocalPlayer, LocalPlayer], work=[28*, 0*]
 33: 0x023A [0x55] WAIT_LOAD_SCHEDULER: Wait for scheduler "pgl0" with entities [LocalPlayer, LocalPlayer], work=28*
 34: 0x0249 [0x01] GOTO 0x024C

SUBROUTINE_024C:
 35: 0x024C [0x00] END_REQSTACK()
```

### Event 65535.8

#### Metadata

| Field        | Value     |
|--------------|-----------|
| Entrypoint   | 0x024D    |
| Data Size    | 149 bytes |
| Instructions | 11        |

```
      00 01 02 03 04 05 06 07  08 09 0A 0B 0C 0D 0E 0F
      -- -- -- -- -- -- -- --  -- -- -- -- -- -- -- --
0240:                                         52 0A 80               R..
0250: F0 FF FF 7F F0 FF FF 7F  70 6D 30 30 45 0A 80 F0  ........pm00E...
0260: FF FF 7F F0 FF FF 7F 70  6D 30 32 07 80 55 0A 80  .......pm02..U..
0270: F0 FF FF 7F F0 FF FF 7F  70 6D 30 32 45 0A 80 F0  ........pm02E...
0280: FF FF 7F F0 FF FF 7F 70  6D 30 33 07 80 55 0A 80  .......pm03..U..
0290: F0 FF FF 7F F0 FF FF 7F  70 6D 30 33 45 0A 80 F0  ........pm03E...
02A0: FF FF 7F F0 FF FF 7F 70  6D 31 30 07 80 1C 11 80  .......pm10.....
02B0: 9F 12 80 22 32 02 01 22  32 02 01 73 74 72 30 07  ..."2.."2..str0.
02C0: 80 55 0A 80 F0 FF FF 7F  F0 FF FF 7F 70 6D 31 30  .U..........pm10
02D0: 45 0A 80 F0 FF FF 7F F0  FF FF 7F 70 6D 30 35 07  E..........pm05.
02E0: 80 00                                             ..              
```

#### Opcodes

```
  0: 0x024D [0x52] END_LOAD_SCHEDULER: End scheduler "pm00" with entities [LocalPlayer, LocalPlayer], work=28*
  1: 0x025C [0x45] LOAD_SCHEDULED_TASK: Load scheduler "pm02" with entities [LocalPlayer, LocalPlayer], work=[28*, 0*]
  2: 0x026D [0x55] WAIT_LOAD_SCHEDULER: Wait for scheduler "pm02" with entities [LocalPlayer, LocalPlayer], work=28*
  3: 0x027C [0x45] LOAD_SCHEDULED_TASK: Load scheduler "pm03" with entities [LocalPlayer, LocalPlayer], work=[28*, 0*]
  4: 0x028D [0x55] WAIT_LOAD_SCHEDULER: Wait for scheduler "pm03" with entities [LocalPlayer, LocalPlayer], work=28*
  5: 0x029C [0x45] LOAD_SCHEDULED_TASK: Load scheduler "pm10" with entities [LocalPlayer, LocalPlayer], work=[28*, 0*]
  6: 0x02AD [0x1C] WAIT(150* ticks)
  7: 0x02B0 [0x9F] LOAD_SCHEDULED_TASK_ALT: Load scheduler "str0" with entities [Unnamed NPC (ID: 16921122/0x01023222), Unnamed NPC (ID: 16921122/0x01023222)], work=[135*, 0*]
  8: 0x02C1 [0x55] WAIT_LOAD_SCHEDULER: Wait for scheduler "pm10" with entities [LocalPlayer, LocalPlayer], work=28*
  9: 0x02D0 [0x45] LOAD_SCHEDULED_TASK: Load scheduler "pm05" with entities [LocalPlayer, LocalPlayer], work=[28*, 0*]
 10: 0x02E1 [0x00] END_REQSTACK()
```

### Event 65535.9

#### Metadata

| Field        | Value    |
|--------------|----------|
| Entrypoint   | 0x02E2   |
| Data Size    | 38 bytes |
| Instructions | 4        |

```
      00 01 02 03 04 05 06 07  08 09 0A 0B 0C 0D 0E 0F
      -- -- -- -- -- -- -- --  -- -- -- -- -- -- -- --
02E0:       1C 13 80 9F 06 80  20 32 02 01 20 32 02 01    ...... 2.. 2..
02F0: 6B 69 6C 30 07 80 9F 06  80 20 32 02 01 20 32 02  kil0..... 2.. 2.
0300: 01 6B 69 6C 31 07 80 00                           .kil1...        
```

#### Opcodes

```
  0: 0x02E2 [0x1C] WAIT(120* ticks)
  1: 0x02E5 [0x9F] LOAD_SCHEDULED_TASK_ALT: Load scheduler "kil0" with entities [Promathia (ID: 16921120/0x01023220), Promathia (ID: 16921120/0x01023220)], work=[129*, 0*]
  2: 0x02F6 [0x9F] LOAD_SCHEDULED_TASK_ALT: Load scheduler "kil1" with entities [Promathia (ID: 16921120/0x01023220), Promathia (ID: 16921120/0x01023220)], work=[129*, 0*]
  3: 0x0307 [0x00] END_REQSTACK()
```

### Event 65535.10

#### Metadata

| Field        | Value     |
|--------------|-----------|
| Entrypoint   | 0x0308    |
| Data Size    | 129 bytes |
| Instructions | 9         |

```
      00 01 02 03 04 05 06 07  08 09 0A 0B 0C 0D 0E 0F
      -- -- -- -- -- -- -- --  -- -- -- -- -- -- -- --
0300:                          45 0A 80 F0 FF FF 7F F0          E.......
0310: FF FF 7F 70 6D 30 36 07  80 55 0A 80 F0 FF FF 7F  ...pm06..U......
0320: F0 FF FF 7F 70 6D 30 36  45 0A 80 F0 FF FF 7F F0  ....pm06E.......
0330: FF FF 7F 70 6D 30 37 07  80 55 0A 80 F0 FF FF 7F  ...pm07..U......
0340: F0 FF FF 7F 70 6D 30 37  45 0A 80 F0 FF FF 7F F0  ....pm07E.......
0350: FF FF 7F 70 6D 30 38 07  80 55 0A 80 F0 FF FF 7F  ...pm08..U......
0360: F0 FF FF 7F 70 6D 30 38  45 0A 80 F0 FF FF 7F F0  ....pm08E.......
0370: FF FF 7F 70 6D 30 39 07  80 55 0A 80 F0 FF FF 7F  ...pm09..U......
0380: F0 FF FF 7F 70 6D 30 39  00                       ....pm09.       
```

#### Opcodes

```
  0: 0x0308 [0x45] LOAD_SCHEDULED_TASK: Load scheduler "pm06" with entities [LocalPlayer, LocalPlayer], work=[28*, 0*]
  1: 0x0319 [0x55] WAIT_LOAD_SCHEDULER: Wait for scheduler "pm06" with entities [LocalPlayer, LocalPlayer], work=28*
  2: 0x0328 [0x45] LOAD_SCHEDULED_TASK: Load scheduler "pm07" with entities [LocalPlayer, LocalPlayer], work=[28*, 0*]
  3: 0x0339 [0x55] WAIT_LOAD_SCHEDULER: Wait for scheduler "pm07" with entities [LocalPlayer, LocalPlayer], work=28*
  4: 0x0348 [0x45] LOAD_SCHEDULED_TASK: Load scheduler "pm08" with entities [LocalPlayer, LocalPlayer], work=[28*, 0*]
  5: 0x0359 [0x55] WAIT_LOAD_SCHEDULER: Wait for scheduler "pm08" with entities [LocalPlayer, LocalPlayer], work=28*
  6: 0x0368 [0x45] LOAD_SCHEDULED_TASK: Load scheduler "pm09" with entities [LocalPlayer, LocalPlayer], work=[28*, 0*]
  7: 0x0379 [0x55] WAIT_LOAD_SCHEDULER: Wait for scheduler "pm09" with entities [LocalPlayer, LocalPlayer], work=28*
  8: 0x0388 [0x00] END_REQSTACK()
```

### Event 65535.11

#### Metadata

| Field        | Value   |
|--------------|---------|
| Entrypoint   | 0x0389  |
| Data Size    | 8 bytes |
| Instructions | 2       |

```
      00 01 02 03 04 05 06 07  08 09 0A 0B 0C 0D 0E 0F
      -- -- -- -- -- -- -- --  -- -- -- -- -- -- -- --
0380:                             6A 07 80 14 80 15 80           j......
0390: 00                                                .               
```

#### Opcodes

```
  0: 0x0389 [0x6A] CHANGE_SOUND_VOLUME: Set (Effects/System/Zone/Master)* volume to 0*, fade_time=60*
  1: 0x0390 [0x00] END_REQSTACK()
```
