# 16921094

## Common Data

| Field            | Value                          |
|------------------|--------------------------------|
| Zone             | The Garden of Ru'Hmet (ID: 35) |
| Block Size       | 192 bytes                      |
| Total Events     | 2                              |
| References Count | 12                             |

## List of Events

| Event ID              | Entrypoint   |   Size |   Instructions |
|-----------------------|--------------|--------|----------------|
| [65535](#event-65535) | 0x0000       |      1 |              1 |
| [2](#event-2)         | 0x0001       |    117 |             21 |

## DAT References (imed_data)

|   Index | Hex Value   |   Dec Value |
|---------|-------------|-------------|
|       0 | 0x00C8      |         200 |
|       1 | 0x0000      |           0 |
|       2 | 0x003C      |          60 |
|       3 | 0x0013      |          19 |
|       4 | 0x0221      |         545 |
|       5 | 0x000C      |          12 |
|       6 | 0x0001      |           1 |
|       7 | 0x0075      |         117 |
|       8 | 0xB860      |       47200 |
|       9 | 0xFFFFF831  |  4294965297 |
|      10 | 0x0C00      |        3072 |
|      11 | 0x03E8      |        1000 |

## Events

### Event 65535

#### Metadata

| Field        | Value   |
|--------------|---------|
| Entrypoint   | 0x0000  |
| Data Size    | 1 bytes |
| Instructions | 1       |

```
      00 01 02 03 04 05 06 07  08 09 0A 0B 0C 0D 0E 0F
      -- -- -- -- -- -- -- --  -- -- -- -- -- -- -- --
0000: 00                                                .               
```

#### Opcodes

```
  0: 0x0000 [0x00] END_REQSTACK()
```

### Event 2

#### Metadata

| Field        | Value     |
|--------------|-----------|
| Entrypoint   | 0x0001    |
| Data Size    | 117 bytes |
| Instructions | 21        |

```
      00 01 02 03 04 05 06 07  08 09 0A 0B 0C 0D 0E 0F
      -- -- -- -- -- -- -- --  -- -- -- -- -- -- -- --
0000:    20 01 42 46 01 45 00  80 F8 FF FF 7F F8 FF FF    .BF.E.........
0010: 7F 66 64 6F 31 01 80 1C  02 80 38 03 80 34 04 80  .fdo1.....8..4..
0020: 77 05 80 06 80 77 05 80  06 80 1C 02 80 45 07 80  w....w.......E..
0030: F8 FF FF 7F F8 FF FF 7F  73 30 32 30 01 80 45 00  ........s020..E.
0040: 80 F8 FF FF 7F F8 FF FF  7F 66 64 69 31 01 80 47  .........fdi1..G
0050: 00 01 80 08 80 09 80 0A  80 47 01 1C 00 80 52 07  .........G....R.
0060: 80 F8 FF FF 7F F8 FF FF  7F 73 30 32 30 1C 0B 80  .........s020...
0070: 46 00 20 00 21 00                                 F. .!.          
```

#### Opcodes

```
  0: 0x0001 [0x20] SET_CLI_EVENT_UC_FLAG: Lock player control
  1: 0x0003 [0x42] SET_CLI_EVENT_CANCEL_DATA()
  2: 0x0004 [0x46] CAMERA_CONTROL: Disable user control
  3: 0x0006 [0x45] LOAD_SCHEDULED_TASK: Load scheduler "fdo1" with entities [EventEntity, EventEntity], work=[200*, 0*]
  4: 0x0017 [0x1C] WAIT(60* ticks)
  5: 0x001A [0x38] SET_CLIENT_EVENT_MODE(mode=19*)
  6: 0x001D [0x34] LOAD_UNLOAD_ZONE(zone_id=545*)
  7: 0x0020 [0x77] SET_EVENT_TIME_WEATHER(hour=12*, weather=1*)
  8: 0x0025 [0x77] SET_EVENT_TIME_WEATHER(hour=12*, weather=1*)
  9: 0x002A [0x1C] WAIT(60* ticks)
 10: 0x002D [0x45] LOAD_SCHEDULED_TASK: Load scheduler "s020" with entities [EventEntity, EventEntity], work=[117*, 0*]
 11: 0x003E [0x45] LOAD_SCHEDULED_TASK: Load scheduler "fdi1" with entities [EventEntity, EventEntity], work=[200*, 0*]
 12: 0x004F [0x47] UPDATE_PLAYER_POS(0.000*, 47.200*, -1.999*, yaw=270.0°*)
 13: 0x0059 [0x47] WAIT_PLAYER_POS_UPDATE
 14: 0x005B [0x1C] WAIT(200* ticks)
 15: 0x005E [0x52] END_LOAD_SCHEDULER: End scheduler "s020" with entities [EventEntity, EventEntity], work=117*
 16: 0x006D [0x1C] WAIT(1000* ticks)
 17: 0x0070 [0x46] CAMERA_CONTROL: Restore default settings
 18: 0x0072 [0x20] SET_CLI_EVENT_UC_FLAG: Unlock player control
 19: 0x0074 [0x21] END_EVENT
 20: 0x0075 [0x00] END_REQSTACK()
```
