# 16921074 - Warp_1F

## Common Data

| Field            | Value                          |
|------------------|--------------------------------|
| Zone             | The Garden of Ru'Hmet (ID: 35) |
| Block Size       | 148 bytes                      |
| Total Events     | 2                              |
| References Count | 7                              |

## List of Events

| Event ID              | Entrypoint   |   Size |   Instructions |
|-----------------------|--------------|--------|----------------|
| [65535](#event-65535) | 0x0000       |      1 |              1 |
| [101](#event-101)     | 0x0001       |     95 |             24 |

## DAT References (imed_data)

|   Index | Hex Value   |   Dec Value |
|---------|-------------|-------------|
|       0 | 0x1DCA      |        7626 |
|       1 | 0x0002      |           2 |
|       2 | 0x0000      |           0 |
|       3 | 0xFFF99760  |  4294547296 |
|       4 | 0xFFFFF92A  |  4294965546 |
|       5 | 0x03E8      |        1000 |
|       6 | 0x0001      |           1 |

## String References

- **7626**: Use the device? [Ascend./Descend./Do nothing.]

## Events

### Event 65535

#### Metadata

| Field        | Value   |
|--------------|---------|
| Entrypoint   | 0x0000  |
| Data Size    | 1 bytes |
| Instructions | 1       |

```
      00 01 02 03 04 05 06 07  08 09 0A 0B 0C 0D 0E 0F
      -- -- -- -- -- -- -- --  -- -- -- -- -- -- -- --
0000: 00                                                .               
```

#### Opcodes

```
  0: 0x0000 [0x00] END_REQSTACK()
```

### Event 101

#### Metadata

| Field        | Value    |
|--------------|----------|
| Entrypoint   | 0x0001   |
| Data Size    | 95 bytes |
| Instructions | 24       |

```
      00 01 02 03 04 05 06 07  08 09 0A 0B 0C 0D 0E 0F
      -- -- -- -- -- -- -- --  -- -- -- -- -- -- -- --
0000:    20 01 24 00 80 01 80  02 80 25 02 00 10 02 80    .$......%.....
0010: 00 35 00 42 43 00 43 01  29 01 F0 FF FF 7F 15 47  .5.BC.C.)......G
0020: 00 03 80 03 80 04 80 05  80 47 01 29 01 F0 FF FF  .........G.)....
0030: 7F 16 01 5C 00 02 00 10  06 80 00 51 00 42 43 00  ...\.......Q.BC.
0040: 43 01 03 01 10 06 80 29  01 F0 FF FF 7F 15 01 5C  C......).......\
0050: 00 02 00 10 01 80 00 5C  00 01 5C 00 20 00 21 00  .......\..\. .!.
```

#### Opcodes

```
  0: 0x0001 [0x20] SET_CLI_EVENT_UC_FLAG: Lock player control
  1: 0x0003 [0x24] CREATE_DIALOG(message_id=7626*, default_option=2*, option_flags=0*)
    → "Use the device? [Ascend./Descend./Do nothing.]"
  2: 0x000A [0x25] WAIT_DIALOG_SELECT()
  3: 0x000B [0x02] IF !(Work_Zone[0] == 0*) GOTO 0x0035
  4: 0x0013 [0x42] SET_CLI_EVENT_CANCEL_DATA()
  5: 0x0014 [0x43] SEND_EVENT_UPDATE: Send pending tag to server (packet 0x005B)
  6: 0x0016 [0x43] SEND_EVENT_UPDATE: Check pending flag (skip if not pending)
  7: 0x0018 [0x29] REQ_SET_WAIT(priority=0x01, entity_id=LocalPlayer, tag_num=0x15)
  8: 0x001F [0x47] UPDATE_PLAYER_POS(-420.000*, -420.000*, -1.750*, yaw=87.9°*)
  9: 0x0029 [0x47] WAIT_PLAYER_POS_UPDATE
 10: 0x002B [0x29] REQ_SET_WAIT(priority=0x01, entity_id=LocalPlayer, tag_num=0x16)
 11: 0x0032 [0x01] GOTO 0x005C
 12: 0x0035 [0x02] IF !(Work_Zone[0] == 1*) GOTO 0x0051
 13: 0x003D [0x42] SET_CLI_EVENT_CANCEL_DATA()
 14: 0x003E [0x43] SEND_EVENT_UPDATE: Send pending tag to server (packet 0x005B)
 15: 0x0040 [0x43] SEND_EVENT_UPDATE: Check pending flag (skip if not pending)
 16: 0x0042 [0x03] Work_Zone[1] = 1*
 17: 0x0047 [0x29] REQ_SET_WAIT(priority=0x01, entity_id=LocalPlayer, tag_num=0x15)
 18: 0x004E [0x01] GOTO 0x005C
 19: 0x0051 [0x02] IF !(Work_Zone[0] == 2*) GOTO 0x005C
 20: 0x0059 [0x01] GOTO 0x005C

SUBROUTINE_005C:
 21: 0x005C [0x20] SET_CLI_EVENT_UC_FLAG: Unlock player control
 22: 0x005E [0x21] END_EVENT
 23: 0x005F [0x00] END_REQSTACK()
```
