# 16921116

## Common Data

| Field            | Value                          |
|------------------|--------------------------------|
| Zone             | The Garden of Ru'Hmet (ID: 35) |
| Block Size       | 13424 bytes                    |
| Total Events     | 6                              |
| References Count | 197                            |

## List of Events

| Event ID              | Entrypoint   |   Size |   Instructions |
|-----------------------|--------------|--------|----------------|
| [65535](#event-65535) | 0x0000       |      1 |              1 |
| [201](#event-201)     | 0x0001       |    557 |             79 |
| [202](#event-202)     | 0x022E       |    949 |            120 |
| [203](#event-203)     | 0x05E3       |   2875 |            338 |
| [204](#event-204)     | 0x111E       |   7448 |            899 |
| [200](#event-200)     | 0x2E36       |    765 |             91 |

## DAT References (imed_data)

|   Index | Hex Value   |   Dec Value |
|---------|-------------|-------------|
|       0 | 0x0013      |          19 |
|       1 | 0x001E      |          30 |
|       2 | 0x007F      |         127 |
|       3 | 0x00B2      |         178 |
|       4 | 0x0000      |           0 |
|       5 | 0x1DF5      |        7669 |
|       6 | 0x012C      |         300 |
|       7 | 0x01DF      |         479 |
|       8 | 0x1DF6      |        7670 |
|       9 | 0x1DF7      |        7671 |
|      10 | 0x01DB      |         475 |
|      11 | 0x1DF8      |        7672 |
|      12 | 0x000F      |          15 |
|      13 | 0x0001      |           1 |
|      14 | 0x01DD      |         477 |
|      15 | 0x1DF9      |        7673 |
|      16 | 0x0080      |         128 |
|      17 | 0x00E4      |         228 |
|      18 | 0x0073      |         115 |
|      19 | 0x00DA      |         218 |
|      20 | 0x00C8      |         200 |
|      21 | 0x0220      |         544 |
|      22 | 0x000C      |          12 |
|      23 | 0x02E9      |         745 |
|      24 | 0x00DE      |         222 |
|      25 | 0x003C      |          60 |
|      26 | 0x1DFA      |        7674 |
|      27 | 0x1DFB      |        7675 |
|      28 | 0x1DFC      |        7676 |
|      29 | 0x003D      |          61 |
|      30 | 0x02CA      |         714 |
|      31 | 0x00B4      |         180 |
|      32 | 0x1DFD      |        7677 |
|      33 | 0x1DFE      |        7678 |
|      34 | 0x1DFF      |        7679 |
|      35 | 0x1E00      |        7680 |
|      36 | 0x1E01      |        7681 |
|      37 | 0x1E02      |        7682 |
|      38 | 0x1E03      |        7683 |
|      39 | 0x0258      |         600 |
|      40 | 0x1E04      |        7684 |
|      41 | 0x1E05      |        7685 |
|      42 | 0x00F0      |         240 |
|      43 | 0x0023      |          35 |
|      44 | 0x004B      |          75 |
|      45 | 0x008C      |         140 |
|      46 | 0x027C      |         636 |
|      47 | 0x029C      |         668 |
|      48 | 0x01EE      |         494 |
|      49 | 0x0292      |         658 |
|      50 | 0x0294      |         660 |
|      51 | 0x02DA      |         730 |
|      52 | 0x004C      |          76 |
|      53 | 0x00E7      |         231 |
|      54 | 0x1E06      |        7686 |
|      55 | 0x1E07      |        7687 |
|      56 | 0x1E08      |        7688 |
|      57 | 0x005A      |          90 |
|      58 | 0x0078      |         120 |
|      59 | 0x1E09      |        7689 |
|      60 | 0x0270      |         624 |
|      61 | 0x1E0A      |        7690 |
|      62 | 0x1E0B      |        7691 |
|      63 | 0x1E0C      |        7692 |
|      64 | 0x002D      |          45 |
|      65 | 0x1E0D      |        7693 |
|      66 | 0x01B9      |         441 |
|      67 | 0x1E0E      |        7694 |
|      68 | 0x1E0F      |        7695 |
|      69 | 0x01AF      |         431 |
|      70 | 0x1E10      |        7696 |
|      71 | 0x1E11      |        7697 |
|      72 | 0x1E12      |        7698 |
|      73 | 0x1E13      |        7699 |
|      74 | 0x1E14      |        7700 |
|      75 | 0x02B1      |         689 |
|      76 | 0x1E15      |        7701 |
|      77 | 0x1E16      |        7702 |
|      78 | 0x1E17      |        7703 |
|      79 | 0x1E18      |        7704 |
|      80 | 0x1E19      |        7705 |
|      81 | 0x007C      |         124 |
|      82 | 0x1E1A      |        7706 |
|      83 | 0x1E1B      |        7707 |
|      84 | 0x1E1C      |        7708 |
|      85 | 0x01E3      |         483 |
|      86 | 0x1E1D      |        7709 |
|      87 | 0x00DC      |         220 |
|      88 | 0x02DB      |         731 |
|      89 | 0x1E1E      |        7710 |
|      90 | 0x1E1F      |        7711 |
|      91 | 0x0265      |         613 |
|      92 | 0x1E20      |        7712 |
|      93 | 0x03E7      |         999 |
|      94 | 0x001C      |          28 |
|      95 | 0x00C9      |         201 |
|      96 | 0x0221      |         545 |
|      97 | 0x02CB      |         715 |
|      98 | 0x02EA      |         746 |
|      99 | 0x0088      |         136 |
|     100 | 0x0089      |         137 |
|     101 | 0x008A      |         138 |
|     102 | 0x008B      |         139 |
|     103 | 0x008D      |         141 |
|     104 | 0x008E      |         142 |
|     105 | 0x007D      |         125 |
|     106 | 0x007E      |         126 |
|     107 | 0x0081      |         129 |
|     108 | 0x0003      |           3 |
|     109 | 0x0096      |         150 |
|     110 | 0x1E21      |        7713 |
|     111 | 0x0282      |         642 |
|     112 | 0x0268      |         616 |
|     113 | 0x1E22      |        7714 |
|     114 | 0x00E0      |         224 |
|     115 | 0x02B3      |         691 |
|     116 | 0x1E23      |        7715 |
|     117 | 0x1E24      |        7716 |
|     118 | 0x1E25      |        7717 |
|     119 | 0x1E26      |        7718 |
|     120 | 0x1E27      |        7719 |
|     121 | 0x1E28      |        7720 |
|     122 | 0x1E2A      |        7722 |
|     123 | 0x1E2B      |        7723 |
|     124 | 0x1E2C      |        7724 |
|     125 | 0x1E2D      |        7725 |
|     126 | 0x1E2E      |        7726 |
|     127 | 0x1E2F      |        7727 |
|     128 | 0x1E30      |        7728 |
|     129 | 0x1E31      |        7729 |
|     130 | 0x1E32      |        7730 |
|     131 | 0x1E33      |        7731 |
|     132 | 0x1E34      |        7732 |
|     133 | 0x1E35      |        7733 |
|     134 | 0x1E36      |        7734 |
|     135 | 0x02DC      |         732 |
|     136 | 0x1E37      |        7735 |
|     137 | 0x02CC      |         716 |
|     138 | 0x00EB      |         235 |
|     139 | 0x02F5      |         757 |
|     140 | 0x02FB      |         763 |
|     141 | 0x014D      |         333 |
|     142 | 0x02F0      |         752 |
|     143 | 0x02F1      |         753 |
|     144 | 0x02F2      |         754 |
|     145 | 0x02F3      |         755 |
|     146 | 0x02F4      |         756 |
|     147 | 0x0086      |         134 |
|     148 | 0x00D2      |         210 |
|     149 | 0x014A      |         330 |
|     150 | 0x0087      |         135 |
|     151 | 0x00ED      |         237 |
|     152 | 0x02EB      |         747 |
|     153 | 0x0084      |         132 |
|     154 | 0x1E39      |        7737 |
|     155 | 0x0600      |        1536 |
|     156 | 0x1E38      |        7736 |
|     157 | 0x0083      |         131 |
|     158 | 0x02EC      |         748 |
|     159 | 0x0168      |         360 |
|     160 | 0x02ED      |         749 |
|     161 | 0x1E3B      |        7739 |
|     162 | 0x1E3C      |        7740 |
|     163 | 0x1E3D      |        7741 |
|     164 | 0x1E3E      |        7742 |
|     165 | 0x1E3F      |        7743 |
|     166 | 0x1E40      |        7744 |
|     167 | 0x1E41      |        7745 |
|     168 | 0x00EC      |         236 |
|     169 | 0x1E42      |        7746 |
|     170 | 0x1E43      |        7747 |
|     171 | 0x00EF      |         239 |
|     172 | 0x1E44      |        7748 |
|     173 | 0x00F3      |         243 |
|     174 | 0x1E45      |        7749 |
|     175 | 0x0024      |          36 |
|     176 | 0x0002      |           2 |
|     177 | 0x01AA      |         426 |
|     178 | 0x02EE      |         750 |
|     179 | 0x0085      |         133 |
|     180 | 0x00A0      |         160 |
|     181 | 0x1E46      |        7750 |
|     182 | 0x007B      |         123 |
|     183 | 0x1E47      |        7751 |
|     184 | 0x1E48      |        7752 |
|     185 | 0x1E49      |        7753 |
|     186 | 0x1E4A      |        7754 |
|     187 | 0x0019      |          25 |
|     188 | 0x1E4B      |        7755 |
|     189 | 0x0014      |          20 |
|     190 | 0x1E4C      |        7756 |
|     191 | 0x1E4D      |        7757 |
|     192 | 0x1E4E      |        7758 |
|     193 | 0x1E4F      |        7759 |
|     194 | 0x000A      |          10 |
|     195 | 0x1DF3      |        7667 |
|     196 | 0x00D7      |         215 |

## String References

- **7667**: Press a button to continue.
- **7728**: Do you wish to learn the truth? [Yes./No.]
- **7754**: What do you say? [Snap out of it, Prishe!/Say nothing and leave.]

## Events

### Event 65535

#### Metadata

| Field        | Value   |
|--------------|---------|
| Entrypoint   | 0x0000  |
| Data Size    | 1 bytes |
| Instructions | 1       |

```
      00 01 02 03 04 05 06 07  08 09 0A 0B 0C 0D 0E 0F
      -- -- -- -- -- -- -- --  -- -- -- -- -- -- -- --
0000: 00                                                .               
```

#### Opcodes

```
  0: 0x0000 [0x00] END_REQSTACK()
```

### Event 201

#### Metadata

| Field        | Value     |
|--------------|-----------|
| Entrypoint   | 0x0001    |
| Data Size    | 557 bytes |
| Instructions | 79        |

```
      00 01 02 03 04 05 06 07  08 09 0A 0B 0C 0D 0E 0F
      -- -- -- -- -- -- -- --  -- -- -- -- -- -- -- --
0000:    42 1A 05 2F 46 01 38  00 80 79 00 F0 FF FF 7F   B../F.8..y.....
0010: F0 FF FF 7F 4E 00 F0 FF  FF 7F 27 10 0C 32 02 01  ....N.....'..2..
0020: 04 92 01 0C 32 02 01 94  01 F0 FF FF 7F 94 01 0C  ....2...........
0030: 32 02 01 29 10 0C 32 02  01 0B 29 10 F0 FF FF 7F  2..)..2...).....
0040: 3A 80 0C 32 02 01 80 F0  FF FF 7F 1C 01 80 5C 00  :..2..........\.
0050: 02 80 5C 01 02 80 9A 7B  F0 FF FF 7F 45 03 80 F0  ..\....{....E...
0060: FF FF 7F F0 FF FF 7F 63  30 31 30 04 80 27 10 F0  .......c010..'..
0070: FF FF 7F 3B 1A E4 2E 2A  10 F0 FF FF 7F 55 03 80  ...;...*.....U..
0080: F0 FF FF 7F F0 FF FF 7F  63 30 31 30 45 03 80 F0  ........c010E...
0090: FF FF 7F F0 FF FF 7F 63  30 31 31 04 80 4A 0C 32  .......c011..J.2
00A0: 02 01 F0 FF FF 7F 6F 76  0C 32 02 01 27 10 0C 32  ......ov.2..'..2
00B0: 02 01 0C 2B 0C 32 02 01  05 80 23 2A 10 0C 32 02  ...+.2....#*..2.
00C0: 01 4B 0C 32 02 01 06 80  52 03 80 F0 FF FF 7F F0  .K.2....R.......
00D0: FF FF 7F 63 30 31 31 45  03 80 F0 FF FF 7F F0 FF  ...c011E........
00E0: FF 7F 63 30 31 32 04 80  6F 76 0C 32 02 01 7B 0C  ..c012..ov.2..{.
00F0: 32 02 01 81 00 0C 32 02  01 5B 07 80 0C 32 02 01  2.....2..[...2..
0100: 0C 32 02 01 74 68 63 30  2B 0C 32 02 01 08 80 23  .2..thc0+.2....#
0110: 1C 01 80 5B 07 80 0C 32  02 01 0C 32 02 01 74 68  ...[...2...2..th
0120: 63 31 79 00 0C 32 02 01  F0 FF FF 7F 2B 0C 32 02  c1y..2......+.2.
0130: 01 09 80 23 52 03 80 F0  FF FF 7F F0 FF FF 7F 63  ...#R..........c
0140: 30 31 32 45 03 80 F0 FF  FF 7F F0 FF FF 7F 63 30  012E..........c0
0150: 31 33 04 80 29 10 0C 32  02 01 0D 5B 0A 80 0C 32  13..)..2...[...2
0160: 02 01 0C 32 02 01 74 6C  65 30 2B 0C 32 02 01 0B  ...2..tle0+.2...
0170: 80 23 52 03 80 F0 FF FF  7F F0 FF FF 7F 63 30 31  .#R..........c01
0180: 33 45 03 80 F0 FF FF 7F  F0 FF FF 7F 63 30 31 34  3E..........c014
0190: 04 80 29 10 0C 32 02 01  0E 1C 0C 80 52 03 80 F0  ..)..2......R...
01A0: FF FF 7F F0 FF FF 7F 63  30 31 34 45 03 80 F0 FF  .......c014E....
01B0: FF 7F F0 FF FF 7F 63 30  31 35 04 80 6C F0 FF FF  ......c015..l...
01C0: 7F 04 80 0D 80 5B 0E 80  0C 32 02 01 0C 32 02 01  .....[...2...2..
01D0: 70 61 73 30 2B 0C 32 02  01 0F 80 23 53 0C 32 02  pas0+.2....#S.2.
01E0: 01 0C 32 02 01 70 61 73  30 27 10 0C 32 02 01 0F  ..2..pas0'..2...
01F0: 1C 01 80 1A 05 2F 1C 01  80 2A 10 0C 32 02 01 6C  ...../...*..2..l
0200: F0 FF FF 7F 10 80 0D 80  5C 00 11 80 5C 01 11 80  ........\...\...
0210: 5C 02 12 80 5C 03 13 80  9A 46 00 45 14 80 F0 FF  \...\....F.E....
0220: FF 7F F0 FF FF 7F 66 64  69 32 04 80 21 00        ......fdi2..!.  
```

#### Opcodes

```
  0: 0x0001 [0x42] SET_CLI_EVENT_CANCEL_DATA()
  1: 0x0002 [0x1A] CALL_SUBROUTINE(address=0x2F05)
  2: 0x0005 [0x46] CAMERA_CONTROL: Disable user control
  3: 0x0007 [0x38] SET_CLIENT_EVENT_MODE(mode=19*)
  4: 0x000A [0x79] LocalPlayer looks at LocalPlayer (Basic look)
  5: 0x0014 [0x4E] SET_ENTITY_HIDE_FLAG: Show LocalPlayer
  6: 0x001A [0x27] REQ_SET(priority=0x10, entity_id=Prishe (ID: 16921100/0x0102320C), tag_num=0x04)
  7: 0x0021 [0x92] Prishe (ID: 16921100/0x0102320C)->Render.Flags3 ^= 0x01
  8: 0x0027 [0x94] LocalPlayer->Render.Flags3 ^= 0x01
  9: 0x002D [0x94] Prishe (ID: 16921100/0x0102320C)->Render.Flags3 ^= 0x01
 10: 0x0033 [0x29] REQ_SET_WAIT(priority=0x10, entity_id=Prishe (ID: 16921100/0x0102320C), tag_num=0x0B)
 11: 0x003A [0x29] REQ_SET_WAIT(priority=0x10, entity_id=LocalPlayer, tag_num=0x3A)
 12: 0x0041 [0x80] LOAD_WAIT(entity=Prishe (ID: 16921100/0x0102320C))
 13: 0x0046 [0x80] LOAD_WAIT(entity=LocalPlayer)
 14: 0x004B [0x1C] WAIT(30* ticks)
 15: 0x004E [0x5C] MUSIC_CONTROL: Set Idle (Day) music to song 127*
 16: 0x0052 [0x5C] MUSIC_CONTROL: Set Idle (Night) music to song 127*
 17: 0x0056 [0x9A] WAIT_MUSIC_SERVER()
 18: 0x0057 [0x7B] LocalPlayer stops talking
 19: 0x005C [0x45] LOAD_SCHEDULED_TASK: Load scheduler "c010" with entities [LocalPlayer, LocalPlayer], work=[178*, 0*]
 20: 0x006D [0x27] REQ_SET(priority=0x10, entity_id=LocalPlayer, tag_num=0x3B)
 21: 0x0074 [0x1A] CALL_SUBROUTINE(address=0x2EE4)
 22: 0x0077 [0x2A] GET_REQ_LEVEL(level=16, entity_id=LocalPlayer)
 23: 0x007D [0x55] WAIT_LOAD_SCHEDULER: Wait for scheduler "c010" with entities [LocalPlayer, LocalPlayer], work=178*
 24: 0x008C [0x45] LOAD_SCHEDULED_TASK: Load scheduler "c011" with entities [LocalPlayer, LocalPlayer], work=[178*, 0*]
 25: 0x009D [0x4A] Prishe (ID: 16921100/0x0102320C) looks at LocalPlayer
 26: 0x00A6 [0x6F] WAIT_FRAME_DELAY: Yield until WaitTime reaches zero
 27: 0x00A7 [0x76] CHECK_ENTITY_RENDER_FLAGS: Wait until Prishe (ID: 16921100/0x0102320C) Render.Flags0 and Render.Flags3 conditions are met
 28: 0x00AC [0x27] REQ_SET(priority=0x10, entity_id=Prishe (ID: 16921100/0x0102320C), tag_num=0x0C)
 29: 0x00B3 [0x2B] Prishe (ID: 16921100/0x0102320C) [7669*]:
    → "<Player>! Did you see where everyone went?"
 30: 0x00BA [0x23] WAIT_FOR_DIALOG_INTERACTION
 31: 0x00BB [0x2A] GET_REQ_LEVEL(level=16, entity_id=Prishe (ID: 16921100/0x0102320C))
 32: 0x00C1 [0x4B] UPDATE_ENTITY_YAW(entity=Prishe (ID: 16921100/0x0102320C), yaw=1.6°*)
 33: 0x00C8 [0x52] END_LOAD_SCHEDULER: End scheduler "c011" with entities [LocalPlayer, LocalPlayer], work=178*
 34: 0x00D7 [0x45] LOAD_SCHEDULED_TASK: Load scheduler "c012" with entities [LocalPlayer, LocalPlayer], work=[178*, 0*]
 35: 0x00E8 [0x6F] WAIT_FRAME_DELAY: Yield until WaitTime reaches zero
 36: 0x00E9 [0x76] CHECK_ENTITY_RENDER_FLAGS: Wait until Prishe (ID: 16921100/0x0102320C) Render.Flags0 and Render.Flags3 conditions are met
 37: 0x00EE [0x7B] Prishe (ID: 16921100/0x0102320C) stops talking
 38: 0x00F3 [0x81] SET_ENTITY_BLINKING(blink_flag=0x00, entity=Prishe (ID: 16921100/0x0102320C))
 39: 0x00F9 [0x5B] LOAD_EXT_SCHEDULER: Load scheduler "thc0" with entities [Prishe (ID: 16921100/0x0102320C), Prishe (ID: 16921100/0x0102320C)], work=479*
 40: 0x0108 [0x2B] Prishe (ID: 16921100/0x0102320C) [7670*]:
    → "I can't believe they went ahead without me! I woulda expected more from Ulmia, at least!"
 41: 0x010F [0x23] WAIT_FOR_DIALOG_INTERACTION
 42: 0x0110 [0x1C] WAIT(30* ticks)
 43: 0x0113 [0x5B] LOAD_EXT_SCHEDULER: Load scheduler "thc1" with entities [Prishe (ID: 16921100/0x0102320C), Prishe (ID: 16921100/0x0102320C)], work=479*
 44: 0x0122 [0x79] Prishe (ID: 16921100/0x0102320C) looks at LocalPlayer (Basic look)
 45: 0x012C [0x2B] Prishe (ID: 16921100/0x0102320C) [7671*]:
    → "Huh? They said they heard a voice calling them from up this way?"
 46: 0x0133 [0x23] WAIT_FOR_DIALOG_INTERACTION
 47: 0x0134 [0x52] END_LOAD_SCHEDULER: End scheduler "c012" with entities [LocalPlayer, LocalPlayer], work=178*
 48: 0x0143 [0x45] LOAD_SCHEDULED_TASK: Load scheduler "c013" with entities [LocalPlayer, LocalPlayer], work=[178*, 0*]
 49: 0x0154 [0x29] REQ_SET_WAIT(priority=0x10, entity_id=Prishe (ID: 16921100/0x0102320C), tag_num=0x0D)
 50: 0x015B [0x5B] LOAD_EXT_SCHEDULER: Load scheduler "tle0" with entities [Prishe (ID: 16921100/0x0102320C), Prishe (ID: 16921100/0x0102320C)], work=475*
 51: 0x016A [0x2B] Prishe (ID: 16921100/0x0102320C) [7672*]:
    → "You gotta be kidding me! They can hear that!? I better find them quick!"
 52: 0x0171 [0x23] WAIT_FOR_DIALOG_INTERACTION
 53: 0x0172 [0x52] END_LOAD_SCHEDULER: End scheduler "c013" with entities [LocalPlayer, LocalPlayer], work=178*
 54: 0x0181 [0x45] LOAD_SCHEDULED_TASK: Load scheduler "c014" with entities [LocalPlayer, LocalPlayer], work=[178*, 0*]
 55: 0x0192 [0x29] REQ_SET_WAIT(priority=0x10, entity_id=Prishe (ID: 16921100/0x0102320C), tag_num=0x0E)
 56: 0x0199 [0x1C] WAIT(15* ticks)
 57: 0x019C [0x52] END_LOAD_SCHEDULER: End scheduler "c014" with entities [LocalPlayer, LocalPlayer], work=178*
 58: 0x01AB [0x45] LOAD_SCHEDULED_TASK: Load scheduler "c015" with entities [LocalPlayer, LocalPlayer], work=[178*, 0*]
 59: 0x01BC [0x6C] FADE_ENTITY_COLOR(entity_id=LocalPlayer, end_alpha=0*, fade_time=1*)
 60: 0x01C5 [0x5B] LOAD_EXT_SCHEDULER: Load scheduler "pas0" with entities [Prishe (ID: 16921100/0x0102320C), Prishe (ID: 16921100/0x0102320C)], work=477*
 61: 0x01D4 [0x2B] Prishe (ID: 16921100/0x0102320C) [7673*]:
    → "Oh yeah, you better take this so you can wander around by yourself. Meet up with you later, <Player>!"
 62: 0x01DB [0x23] WAIT_FOR_DIALOG_INTERACTION
 63: 0x01DC [0x53] WAIT_SCHEDULER_TASK: Wait for scheduler "pas0" with entities [Prishe (ID: 16921100/0x0102320C), Prishe (ID: 16921100/0x0102320C)]
 64: 0x01E9 [0x27] REQ_SET(priority=0x10, entity_id=Prishe (ID: 16921100/0x0102320C), tag_num=0x0F)
 65: 0x01F0 [0x1C] WAIT(30* ticks)
 66: 0x01F3 [0x1A] CALL_SUBROUTINE(address=0x2F05)
 67: 0x01F6 [0x1C] WAIT(30* ticks)
 68: 0x01F9 [0x2A] GET_REQ_LEVEL(level=16, entity_id=Prishe (ID: 16921100/0x0102320C))
 69: 0x01FF [0x6C] FADE_ENTITY_COLOR(entity_id=LocalPlayer, end_alpha=128*, fade_time=1*)
 70: 0x0208 [0x5C] MUSIC_CONTROL: Set Idle (Day) music to song 228*
 71: 0x020C [0x5C] MUSIC_CONTROL: Set Idle (Night) music to song 228*
 72: 0x0210 [0x5C] MUSIC_CONTROL: Set Combat (Solo) music to song 115*
 73: 0x0214 [0x5C] MUSIC_CONTROL: Set Combat (Party) music to song 218*
 74: 0x0218 [0x9A] WAIT_MUSIC_SERVER()
 75: 0x0219 [0x46] CAMERA_CONTROL: Restore default settings
 76: 0x021B [0x45] LOAD_SCHEDULED_TASK: Load scheduler "fdi2" with entities [LocalPlayer, LocalPlayer], work=[200*, 0*]
 77: 0x022C [0x21] END_EVENT
 78: 0x022D [0x00] END_REQSTACK()
```

### Event 202

#### Metadata

| Field        | Value     |
|--------------|-----------|
| Entrypoint   | 0x022E    |
| Data Size    | 949 bytes |
| Instructions | 120       |

```
      00 01 02 03 04 05 06 07  08 09 0A 0B 0C 0D 0E 0F
      -- -- -- -- -- -- -- --  -- -- -- -- -- -- -- --
0220:                                            42 1A                B.
0230: 47 2F 46 01 38 00 80 03  00 00 09 10 02 00 00 0D  G/F.8...........
0240: 80 00 47 02 1A E4 2E 34  15 80 77 16 80 0D 80 1C  ..G....4..w.....
0250: 01 80 AB 09 27 10 13 32  02 01 04 27 10 1B 32 02  ....'..2...'..2.
0260: 01 04 92 01 13 32 02 01  92 01 1B 32 02 01 94 01  .....2.....2....
0270: 13 32 02 01 94 01 1B 32  02 01 29 10 13 32 02 01  .2.....2..)..2..
0280: 09 29 10 1B 32 02 01 09  80 13 32 02 01 80 1B 32  .)..2.....2....2
0290: 02 01 1C 01 80 5B 17 80  1B 32 02 01 1B 32 02 01  .....[...2...2..
02A0: 64 65 64 30 5C 00 18 80  5C 01 18 80 9A 7B F0 FF  ded0\...\....{..
02B0: FF 7F 1C 19 80 2B 13 32  02 01 1A 80 23 2B 13 32  .....+.2....#+.2
02C0: 02 01 1B 80 23 2B 13 32  02 01 1C 80 23 1C 19 80  ....#+.2....#...
02D0: 45 03 80 F0 FF FF 7F F0  FF FF 7F 63 30 31 36 04  E..........c016.
02E0: 80 9F 1D 80 F0 FF FF 7F  F0 FF FF 7F 73 74 72 30  ............str0
02F0: 04 80 1A 26 2F 5B 1E 80  13 32 02 01 13 32 02 01  ...&/[...2...2..
0300: 75 74 30 30 6C 13 32 02  01 10 80 0D 80 45 03 80  ut00l.2......E..
0310: F0 FF FF 7F F0 FF FF 7F  31 30 30 35 04 80 1C 1F  ........1005....
0320: 80 2B 13 32 02 01 20 80  23 53 13 32 02 01 13 32  .+.2.. .#S.2...2
0330: 02 01 75 74 30 30 55 03  80 F0 FF FF 7F F0 FF FF  ..ut00U.........
0340: 7F 63 30 31 36 45 03 80  F0 FF FF 7F F0 FF FF 7F  .c016E..........
0350: 63 30 31 37 04 80 2B 13  32 02 01 21 80 23 52 03  c017..+.2..!.#R.
0360: 80 F0 FF FF 7F F0 FF FF  7F 63 30 31 37 45 03 80  .........c017E..
0370: F0 FF FF 7F F0 FF FF 7F  63 30 31 38 04 80 5B 1E  ........c018..[.
0380: 80 13 32 02 01 13 32 02  01 75 74 30 31 2B 13 32  ..2...2..ut01+.2
0390: 02 01 22 80 23 53 13 32  02 01 13 32 02 01 75 74  ..".#S.2...2..ut
03A0: 30 31 5B 1E 80 13 32 02  01 13 32 02 01 75 74 30  01[...2...2..ut0
03B0: 32 1C 01 80 52 03 80 F0  FF FF 7F F0 FF FF 7F 63  2...R..........c
03C0: 30 31 38 45 03 80 F0 FF  FF 7F F0 FF FF 7F 63 30  018E..........c0
03D0: 31 39 04 80 2B 13 32 02  01 23 80 23 53 13 32 02  19..+.2..#.#S.2.
03E0: 01 13 32 02 01 75 74 30  32 5B 1E 80 13 32 02 01  ..2..ut02[...2..
03F0: 13 32 02 01 75 74 30 33  52 03 80 F0 FF FF 7F F0  .2..ut03R.......
0400: FF FF 7F 63 30 31 39 45  03 80 F0 FF FF 7F F0 FF  ...c019E........
0410: FF 7F 63 30 32 30 04 80  2B 13 32 02 01 24 80 23  ..c020..+.2..$.#
0420: 53 13 32 02 01 13 32 02  01 75 74 30 33 5B 1E 80  S.2...2..ut03[..
0430: 13 32 02 01 13 32 02 01  75 74 30 34 52 03 80 F0  .2...2..ut04R...
0440: FF FF 7F F0 FF FF 7F 63  30 32 30 45 03 80 F0 FF  .......c020E....
0450: FF 7F F0 FF FF 7F 63 30  32 31 04 80 2B 13 32 02  ......c021..+.2.
0460: 01 25 80 23 53 13 32 02  01 13 32 02 01 75 74 30  .%.#S.2...2..ut0
0470: 34 5B 1E 80 13 32 02 01  13 32 02 01 75 74 30 35  4[...2...2..ut05
0480: 1C 19 80 52 03 80 F0 FF  FF 7F F0 FF FF 7F 63 30  ...R..........c0
0490: 32 31 45 03 80 F0 FF FF  7F F0 FF FF 7F 63 30 32  21E..........c02
04A0: 32 04 80 2B 13 32 02 01  26 80 23 53 13 32 02 01  2..+.2..&.#S.2..
04B0: 13 32 02 01 75 74 30 35  52 03 80 F0 FF FF 7F F0  .2..ut05R.......
04C0: FF FF 7F 63 30 32 32 45  03 80 F0 FF FF 7F F0 FF  ...c022E........
04D0: FF 7F 63 30 32 33 04 80  5D 04 80 27 80 1C 06 80  ..c023..]..'....
04E0: 5B 1E 80 13 32 02 01 13  32 02 01 75 74 30 36 45  [...2...2..ut06E
04F0: 03 80 F0 FF FF 7F F0 FF  FF 7F 68 69 7A 30 04 80  ..........hiz0..
0500: 1C 1F 80 45 03 80 F0 FF  FF 7F F0 FF FF 7F 68 69  ...E..........hi
0510: 7A 31 04 80 2B 13 32 02  01 28 80 23 53 13 32 02  z1..+.2..(.#S.2.
0520: 01 13 32 02 01 75 74 30  36 52 03 80 F0 FF FF 7F  ..2..ut06R......
0530: F0 FF FF 7F 63 30 32 33  45 03 80 F0 FF FF 7F F0  ....c023E.......
0540: FF FF 7F 63 30 32 36 04  80 2B 13 32 02 01 29 80  ...c026..+.2..).
0550: 23 52 03 80 F0 FF FF 7F  F0 FF FF 7F 63 30 32 36  #R..........c026
0560: 45 03 80 F0 FF FF 7F F0  FF FF 7F 63 30 32 35 04  E..........c025.
0570: 80 1C 2A 80 1A 47 2F 1C  19 80 52 03 80 F0 FF FF  ..*..G/...R.....
0580: 7F F0 FF FF 7F 63 30 32  35 9F 1D 80 F0 FF FF 7F  .....c025.......
0590: F0 FF FF 7F 6B 69 6C 6C  04 80 1A 05 2F 1A 26 2F  ....kill..../.&/
05A0: 35 2B 80 78 1C 01 80 AB  0A 1C 0C 80 45 03 80 F0  5+.x........E...
05B0: FF FF 7F F0 FF FF 7F 30  62 6C 66 04 80 5C 00 11  .......0blf..\..
05C0: 80 5C 01 11 80 5C 02 12  80 5C 03 13 80 9A 46 00  .\...\...\....F.
05D0: 45 14 80 F0 FF FF 7F F0  FF FF 7F 66 64 69 32 04  E..........fdi2.
05E0: 80 21 00                                          .!.             
```

#### Opcodes

```
  0: 0x022E [0x42] SET_CLI_EVENT_CANCEL_DATA()
  1: 0x022F [0x1A] CALL_SUBROUTINE(address=0x2F47)
  2: 0x0232 [0x46] CAMERA_CONTROL: Disable user control
  3: 0x0234 [0x38] SET_CLIENT_EVENT_MODE(mode=19*)
  4: 0x0237 [0x03] ExtData[1]->WorkLocal[0] = Work_Zone[9]
  5: 0x023C [0x02] IF !(ExtData[1]->WorkLocal[0] == 1*) GOTO 0x0247
  6: 0x0244 [0x1A] CALL_SUBROUTINE(address=0x2EE4)
  7: 0x0247 [0x34] LOAD_UNLOAD_ZONE(zone_id=544*)
  8: 0x024A [0x77] SET_EVENT_TIME_WEATHER(hour=12*, weather=1*)
  9: 0x024F [0x1C] WAIT(30* ticks)
 10: 0x0252 [0xAB] EventEntity->UnknownFlag = 1 // Enable unknown flag
 11: 0x0254 [0x27] REQ_SET(priority=0x10, entity_id=Nag'molada (ID: 16921107/0x01023213), tag_num=0x04)
 12: 0x025B [0x27] REQ_SET(priority=0x10, entity_id=Yve'noile (ID: 16921115/0x0102321B), tag_num=0x04)
 13: 0x0262 [0x92] Nag'molada (ID: 16921107/0x01023213)->Render.Flags3 ^= 0x01
 14: 0x0268 [0x92] Yve'noile (ID: 16921115/0x0102321B)->Render.Flags3 ^= 0x01
 15: 0x026E [0x94] Nag'molada (ID: 16921107/0x01023213)->Render.Flags3 ^= 0x01
 16: 0x0274 [0x94] Yve'noile (ID: 16921115/0x0102321B)->Render.Flags3 ^= 0x01
 17: 0x027A [0x29] REQ_SET_WAIT(priority=0x10, entity_id=Nag'molada (ID: 16921107/0x01023213), tag_num=0x09)
 18: 0x0281 [0x29] REQ_SET_WAIT(priority=0x10, entity_id=Yve'noile (ID: 16921115/0x0102321B), tag_num=0x09)
 19: 0x0288 [0x80] LOAD_WAIT(entity=Nag'molada (ID: 16921107/0x01023213))
 20: 0x028D [0x80] LOAD_WAIT(entity=Yve'noile (ID: 16921115/0x0102321B))
 21: 0x0292 [0x1C] WAIT(30* ticks)
 22: 0x0295 [0x5B] LOAD_EXT_SCHEDULER: Load scheduler "ded0" with entities [Yve'noile (ID: 16921115/0x0102321B), Yve'noile (ID: 16921115/0x0102321B)], work=745*
 23: 0x02A4 [0x5C] MUSIC_CONTROL: Set Idle (Day) music to song 222*
 24: 0x02A8 [0x5C] MUSIC_CONTROL: Set Idle (Night) music to song 222*
 25: 0x02AC [0x9A] WAIT_MUSIC_SERVER()
 26: 0x02AD [0x7B] LocalPlayer stops talking
 27: 0x02B2 [0x1C] WAIT(60* ticks)
 28: 0x02B5 [0x2B] Nag'molada (ID: 16921107/0x01023213) [7674*]:
    → "Lady Yve'noile... I wanted to let you know..."
 29: 0x02BC [0x23] WAIT_FOR_DIALOG_INTERACTION
 30: 0x02BD [0x2B] Nag'molada (ID: 16921107/0x01023213) [7675*]:
    → "We who are bound in darkness are soothed by your light. You can never know how grateful..."
 31: 0x02C4 [0x23] WAIT_FOR_DIALOG_INTERACTION
 32: 0x02C5 [0x2B] Nag'molada (ID: 16921107/0x01023213) [7676*]:
    → "With the whisper of the soul I could have conveyed my thoughts to you completely..."
 33: 0x02CC [0x23] WAIT_FOR_DIALOG_INTERACTION
 34: 0x02CD [0x1C] WAIT(60* ticks)
 35: 0x02D0 [0x45] LOAD_SCHEDULED_TASK: Load scheduler "c016" with entities [LocalPlayer, LocalPlayer], work=[178*, 0*]
 36: 0x02E1 [0x9F] LOAD_SCHEDULED_TASK_ALT: Load scheduler "str0" with entities [LocalPlayer, LocalPlayer], work=[61*, 0*]
 37: 0x02F2 [0x1A] CALL_SUBROUTINE(address=0x2F26)
 38: 0x02F5 [0x5B] LOAD_EXT_SCHEDULER: Load scheduler "ut00" with entities [Nag'molada (ID: 16921107/0x01023213), Nag'molada (ID: 16921107/0x01023213)], work=714*
 39: 0x0304 [0x6C] FADE_ENTITY_COLOR(entity_id=Nag'molada (ID: 16921107/0x01023213), end_alpha=128*, fade_time=1*)
 40: 0x030D [0x45] LOAD_SCHEDULED_TASK: Load scheduler "1005" with entities [LocalPlayer, LocalPlayer], work=[178*, 0*]
 41: 0x031E [0x1C] WAIT(180* ticks)
 42: 0x0321 [0x2B] Nag'molada (ID: 16921107/0x01023213) [7677*]:
    → "Perfection..."
 43: 0x0328 [0x23] WAIT_FOR_DIALOG_INTERACTION
 44: 0x0329 [0x53] WAIT_SCHEDULER_TASK: Wait for scheduler "ut00" with entities [Nag'molada (ID: 16921107/0x01023213), Nag'molada (ID: 16921107/0x01023213)]
 45: 0x0336 [0x55] WAIT_LOAD_SCHEDULER: Wait for scheduler "c016" with entities [LocalPlayer, LocalPlayer], work=178*
 46: 0x0345 [0x45] LOAD_SCHEDULED_TASK: Load scheduler "c017" with entities [LocalPlayer, LocalPlayer], work=[178*, 0*]
 47: 0x0356 [0x2B] Nag'molada (ID: 16921107/0x01023213) [7678*]:
    → "I should be the one to attain perfection. I am the one who should lead the imperfect masses."
 48: 0x035D [0x23] WAIT_FOR_DIALOG_INTERACTION
 49: 0x035E [0x52] END_LOAD_SCHEDULER: End scheduler "c017" with entities [LocalPlayer, LocalPlayer], work=178*
 50: 0x036D [0x45] LOAD_SCHEDULED_TASK: Load scheduler "c018" with entities [LocalPlayer, LocalPlayer], work=[178*, 0*]
 51: 0x037E [0x5B] LOAD_EXT_SCHEDULER: Load scheduler "ut01" with entities [Nag'molada (ID: 16921107/0x01023213), Nag'molada (ID: 16921107/0x01023213)], work=714*
 52: 0x038D [0x2B] Nag'molada (ID: 16921107/0x01023213) [7679*]:
    → "Why does the betrayer ascend to a higher form while I remain flawed and incomplete?"
 53: 0x0394 [0x23] WAIT_FOR_DIALOG_INTERACTION
 54: 0x0395 [0x53] WAIT_SCHEDULER_TASK: Wait for scheduler "ut01" with entities [Nag'molada (ID: 16921107/0x01023213), Nag'molada (ID: 16921107/0x01023213)]
 55: 0x03A2 [0x5B] LOAD_EXT_SCHEDULER: Load scheduler "ut02" with entities [Nag'molada (ID: 16921107/0x01023213), Nag'molada (ID: 16921107/0x01023213)], work=714*
 56: 0x03B1 [0x1C] WAIT(30* ticks)
 57: 0x03B4 [0x52] END_LOAD_SCHEDULER: End scheduler "c018" with entities [LocalPlayer, LocalPlayer], work=178*
 58: 0x03C3 [0x45] LOAD_SCHEDULED_TASK: Load scheduler "c019" with entities [LocalPlayer, LocalPlayer], work=[178*, 0*]
 59: 0x03D4 [0x2B] Nag'molada (ID: 16921107/0x01023213) [7680*]:
    → "Tell me. What terrible folly have I perpetrated? Was this act so irreversible?"
 60: 0x03DB [0x23] WAIT_FOR_DIALOG_INTERACTION
 61: 0x03DC [0x53] WAIT_SCHEDULER_TASK: Wait for scheduler "ut02" with entities [Nag'molada (ID: 16921107/0x01023213), Nag'molada (ID: 16921107/0x01023213)]
 62: 0x03E9 [0x5B] LOAD_EXT_SCHEDULER: Load scheduler "ut03" with entities [Nag'molada (ID: 16921107/0x01023213), Nag'molada (ID: 16921107/0x01023213)], work=714*
 63: 0x03F8 [0x52] END_LOAD_SCHEDULER: End scheduler "c019" with entities [LocalPlayer, LocalPlayer], work=178*
 64: 0x0407 [0x45] LOAD_SCHEDULED_TASK: Load scheduler "c020" with entities [LocalPlayer, LocalPlayer], work=[178*, 0*]
 65: 0x0418 [0x2B] Nag'molada (ID: 16921107/0x01023213) [7681*]:
    → "No... My path has been true. It is the incomplete world that is in error."
 66: 0x041F [0x23] WAIT_FOR_DIALOG_INTERACTION
 67: 0x0420 [0x53] WAIT_SCHEDULER_TASK: Wait for scheduler "ut03" with entities [Nag'molada (ID: 16921107/0x01023213), Nag'molada (ID: 16921107/0x01023213)]
 68: 0x042D [0x5B] LOAD_EXT_SCHEDULER: Load scheduler "ut04" with entities [Nag'molada (ID: 16921107/0x01023213), Nag'molada (ID: 16921107/0x01023213)], work=714*
 69: 0x043C [0x52] END_LOAD_SCHEDULER: End scheduler "c020" with entities [LocalPlayer, LocalPlayer], work=178*
 70: 0x044B [0x45] LOAD_SCHEDULED_TASK: Load scheduler "c021" with entities [LocalPlayer, LocalPlayer], work=[178*, 0*]
 71: 0x045C [0x2B] Nag'molada (ID: 16921107/0x01023213) [7682*]:
    → "Yes! This world and the addled gods who created it have committed an unforgivable sin!"
 72: 0x0463 [0x23] WAIT_FOR_DIALOG_INTERACTION
 73: 0x0464 [0x53] WAIT_SCHEDULER_TASK: Wait for scheduler "ut04" with entities [Nag'molada (ID: 16921107/0x01023213), Nag'molada (ID: 16921107/0x01023213)]
 74: 0x0471 [0x5B] LOAD_EXT_SCHEDULER: Load scheduler "ut05" with entities [Nag'molada (ID: 16921107/0x01023213), Nag'molada (ID: 16921107/0x01023213)], work=714*
 75: 0x0480 [0x1C] WAIT(60* ticks)
 76: 0x0483 [0x52] END_LOAD_SCHEDULER: End scheduler "c021" with entities [LocalPlayer, LocalPlayer], work=178*
 77: 0x0492 [0x45] LOAD_SCHEDULED_TASK: Load scheduler "c022" with entities [LocalPlayer, LocalPlayer], work=[178*, 0*]
 78: 0x04A3 [0x2B] Nag'molada (ID: 16921107/0x01023213) [7683*]:
    → "Lord Promathia! What do you want of us? What do you want from this world?"
 79: 0x04AA [0x23] WAIT_FOR_DIALOG_INTERACTION
 80: 0x04AB [0x53] WAIT_SCHEDULER_TASK: Wait for scheduler "ut05" with entities [Nag'molada (ID: 16921107/0x01023213), Nag'molada (ID: 16921107/0x01023213)]
 81: 0x04B8 [0x52] END_LOAD_SCHEDULER: End scheduler "c022" with entities [LocalPlayer, LocalPlayer], work=178*
 82: 0x04C7 [0x45] LOAD_SCHEDULED_TASK: Load scheduler "c023" with entities [LocalPlayer, LocalPlayer], work=[178*, 0*]
 83: 0x04D8 [0x5D] SET_MUSIC_VOLUME(volume=0*, fade_time=600*)
 84: 0x04DD [0x1C] WAIT(300* ticks)
 85: 0x04E0 [0x5B] LOAD_EXT_SCHEDULER: Load scheduler "ut06" with entities [Nag'molada (ID: 16921107/0x01023213), Nag'molada (ID: 16921107/0x01023213)], work=714*
 86: 0x04EF [0x45] LOAD_SCHEDULED_TASK: Load scheduler "hiz0" with entities [LocalPlayer, LocalPlayer], work=[178*, 0*]
 87: 0x0500 [0x1C] WAIT(180* ticks)
 88: 0x0503 [0x45] LOAD_SCHEDULED_TASK: Load scheduler "hiz1" with entities [LocalPlayer, LocalPlayer], work=[178*, 0*]
 89: 0x0514 [0x2B] Nag'molada (ID: 16921107/0x01023213) [7684*]:
    → "That's it, isn't it...? This incomplete world exists for the sake of imperfection..."
 90: 0x051B [0x23] WAIT_FOR_DIALOG_INTERACTION
 91: 0x051C [0x53] WAIT_SCHEDULER_TASK: Wait for scheduler "ut06" with entities [Nag'molada (ID: 16921107/0x01023213), Nag'molada (ID: 16921107/0x01023213)]
 92: 0x0529 [0x52] END_LOAD_SCHEDULER: End scheduler "c023" with entities [LocalPlayer, LocalPlayer], work=178*
 93: 0x0538 [0x45] LOAD_SCHEDULED_TASK: Load scheduler "c026" with entities [LocalPlayer, LocalPlayer], work=[178*, 0*]
 94: 0x0549 [0x2B] Nag'molada (ID: 16921107/0x01023213) [7685*]:
    → "That explains our existence... But I do not...will not..."
 95: 0x0550 [0x23] WAIT_FOR_DIALOG_INTERACTION
 96: 0x0551 [0x52] END_LOAD_SCHEDULER: End scheduler "c026" with entities [LocalPlayer, LocalPlayer], work=178*
 97: 0x0560 [0x45] LOAD_SCHEDULED_TASK: Load scheduler "c025" with entities [LocalPlayer, LocalPlayer], work=[178*, 0*]
 98: 0x0571 [0x1C] WAIT(240* ticks)
 99: 0x0574 [0x1A] CALL_SUBROUTINE(address=0x2F47)
100: 0x0577 [0x1C] WAIT(60* ticks)
101: 0x057A [0x52] END_LOAD_SCHEDULER: End scheduler "c025" with entities [LocalPlayer, LocalPlayer], work=178*
102: 0x0589 [0x9F] LOAD_SCHEDULED_TASK_ALT: Load scheduler "kill" with entities [LocalPlayer, LocalPlayer], work=[61*, 0*]
103: 0x059A [0x1A] CALL_SUBROUTINE(address=0x2F05)
104: 0x059D [0x1A] CALL_SUBROUTINE(address=0x2F26)
105: 0x05A0 [0x35] LOAD_ZONE_NO_CLOSE(zone_id=35*)
106: 0x05A3 [0x78] ENABLE_GAME_TIMER_RESET_WEATHER()
107: 0x05A4 [0x1C] WAIT(30* ticks)
108: 0x05A7 [0xAB] EventEntity->UnknownFlag = 0 // Disable unknown flag
109: 0x05A9 [0x1C] WAIT(15* ticks)
110: 0x05AC [0x45] LOAD_SCHEDULED_TASK: Load scheduler "0blf" with entities [LocalPlayer, LocalPlayer], work=[178*, 0*]
111: 0x05BD [0x5C] MUSIC_CONTROL: Set Idle (Day) music to song 228*
112: 0x05C1 [0x5C] MUSIC_CONTROL: Set Idle (Night) music to song 228*
113: 0x05C5 [0x5C] MUSIC_CONTROL: Set Combat (Solo) music to song 115*
114: 0x05C9 [0x5C] MUSIC_CONTROL: Set Combat (Party) music to song 218*
115: 0x05CD [0x9A] WAIT_MUSIC_SERVER()
116: 0x05CE [0x46] CAMERA_CONTROL: Restore default settings
117: 0x05D0 [0x45] LOAD_SCHEDULED_TASK: Load scheduler "fdi2" with entities [LocalPlayer, LocalPlayer], work=[200*, 0*]
118: 0x05E1 [0x21] END_EVENT
119: 0x05E2 [0x00] END_REQSTACK()
```

### Event 203

#### Metadata

| Field        | Value      |
|--------------|------------|
| Entrypoint   | 0x05E3     |
| Data Size    | 2875 bytes |
| Instructions | 338        |

```
      00 01 02 03 04 05 06 07  08 09 0A 0B 0C 0D 0E 0F
      -- -- -- -- -- -- -- --  -- -- -- -- -- -- -- --
05E0:          42 1A 05 2F 46  01 38 00 80 1C 0C 80 79     B../F.8.....y
05F0: 00 F0 FF FF 7F F0 FF FF  7F 5D 04 80 06 80 27 10  .........]....'.
0600: F0 FF FF 7F 43 45 03 80  F0 FF FF 7F F0 FF FF 7F  ....CE..........
0610: 62 63 30 30 04 80 45 14  80 F0 FF FF 7F F0 FF FF  bc00..E.........
0620: 7F 66 64 69 32 04 80 29  10 F0 FF FF 7F 44 1C 0C  .fdi2..).....D..
0630: 80 6E F0 FF FF 7F 04 80  99 F0 FF FF 7F 99 F0 FF  .n..............
0640: FF 7F 9F 2C 80 F0 FF FF  7F F0 FF FF 7F 6D 61 69  ...,.........mai
0650: 6E 04 80 1C 2D 80 1A 05  2F 1C 01 80 27 10 0C 32  n...-.../...'..2
0660: 02 01 02 27 10 0D 32 02  01 02 27 10 0E 32 02 01  ...'..2...'..2..
0670: 04 27 10 11 32 02 01 04  27 10 10 32 02 01 04 27  .'..2...'..2...'
0680: 10 12 32 02 01 04 27 10  0F 32 02 01 04 27 10 14  ..2...'..2...'..
0690: 32 02 01 04 27 10 15 32  02 01 04 27 10 16 32 02  2...'..2...'..2.
06A0: 01 04 27 10 17 32 02 01  02 27 10 18 32 02 01 02  ..'..2...'..2...
06B0: 27 10 19 32 02 01 02 27  10 1A 32 02 01 02 92 01  '..2...'..2.....
06C0: 0C 32 02 01 92 01 0D 32  02 01 92 01 0E 32 02 01  .2.....2.....2..
06D0: 92 01 11 32 02 01 92 01  10 32 02 01 92 01 12 32  ...2.....2.....2
06E0: 02 01 92 01 0F 32 02 01  92 01 14 32 02 01 92 01  .....2.....2....
06F0: 15 32 02 01 92 01 16 32  02 01 92 01 17 32 02 01  .2.....2.....2..
0700: 92 01 18 32 02 01 92 01  19 32 02 01 92 01 1A 32  ...2.....2.....2
0710: 02 01 94 01 F0 FF FF 7F  94 01 0C 32 02 01 94 01  ...........2....
0720: 0D 32 02 01 94 01 0E 32  02 01 94 01 11 32 02 01  .2.....2.....2..
0730: 94 01 10 32 02 01 94 01  12 32 02 01 94 01 0F 32  ...2.....2.....2
0740: 02 01 94 01 14 32 02 01  94 01 15 32 02 01 94 01  .....2.....2....
0750: 16 32 02 01 94 01 17 32  02 01 94 01 18 32 02 01  .2.....2.....2..
0760: 94 01 19 32 02 01 94 01  1A 32 02 01 29 10 0C 32  ...2.....2..)..2
0770: 02 01 10 29 10 0D 32 02  01 0A 29 10 0E 32 02 01  ...)..2...)..2..
0780: 0A 29 10 11 32 02 01 0A  29 10 10 32 02 01 0A 29  .)..2...)..2...)
0790: 10 12 32 02 01 0A 29 10  0F 32 02 01 0A 29 10 14  ..2...)..2...)..
07A0: 32 02 01 0A 29 10 15 32  02 01 0A 29 10 16 32 02  2...)..2...)..2.
07B0: 01 0A 29 10 17 32 02 01  09 29 10 18 32 02 01 09  ..)..2...)..2...
07C0: 29 10 19 32 02 01 09 29  10 1A 32 02 01 09 29 10  )..2...)..2...).
07D0: F0 FF FF 7F 3C 80 0C 32  02 01 80 0D 32 02 01 80  ....<..2....2...
07E0: 0E 32 02 01 80 11 32 02  01 80 10 32 02 01 80 12  .2....2....2....
07F0: 32 02 01 80 0F 32 02 01  80 14 32 02 01 80 15 32  2....2....2....2
0800: 02 01 80 16 32 02 01 80  17 32 02 01 80 18 32 02  ....2....2....2.
0810: 01 80 19 32 02 01 80 1A  32 02 01 80 F0 FF FF 7F  ...2....2.......
0820: 1C 01 80 81 00 0E 32 02  01 81 00 11 32 02 01 81  ......2.....2...
0830: 00 10 32 02 01 81 00 12  32 02 01 5B 2E 80 0E 32  ..2.....2..[...2
0840: 02 01 0E 32 02 01 6D 67  61 30 5B 2F 80 11 32 02  ...2..mga0[/..2.
0850: 01 11 32 02 01 6D 67 61  30 5B 30 80 10 32 02 01  ..2..mga0[0..2..
0860: 10 32 02 01 6D 67 61 30  5B 31 80 12 32 02 01 12  .2..mga0[1..2...
0870: 32 02 01 6D 67 61 30 5B  32 80 0F 32 02 01 0F 32  2..mga0[2..2...2
0880: 02 01 64 72 30 31 5B 33  80 0D 32 02 01 0D 32 02  ..dr01[3..2...2.
0890: 01 70 6F 70 30 45 03 80  F0 FF FF 7F F0 FF FF 7F  .pop0E..........
08A0: 63 30 32 37 04 80 9F 34  80 F0 FF FF 7F F0 FF FF  c027...4........
08B0: 7F 6D 61 69 6E 04 80 1A  E4 2E 27 10 CF 31 02 01  .main.....'..1..
08C0: 04 1C 01 80 29 10 F0 FF  FF 7F 3D 5C 00 35 80 5C  ....).....=\.5.\
08D0: 01 35 80 9A 52 03 80 F0  FF FF 7F F0 FF FF 7F 63  .5..R..........c
08E0: 30 32 37 45 03 80 F0 FF  FF 7F F0 FF FF 7F 63 30  027E..........c0
08F0: 32 38 04 80 1C 0C 80 27  10 16 32 02 01 0B 2B 16  28.....'..2...+.
0900: 32 02 01 36 80 1C 0C 80  27 10 15 32 02 01 0B 2B  2..6....'..2...+
0910: 15 32 02 01 37 80 1C 0C  80 27 10 14 32 02 01 0B  .2..7....'..2...
0920: 2B 14 32 02 01 38 80 55  03 80 F0 FF FF 7F F0 FF  +.2..8.U........
0930: FF 7F 63 30 32 38 45 03  80 F0 FF FF 7F F0 FF FF  ..c028E.........
0940: 7F 63 30 32 39 04 80 1C  39 80 5B 32 80 0F 32 02  .c029...9.[2..2.
0950: 01 0F 32 02 01 64 72 30  32 55 03 80 F0 FF FF 7F  ..2..dr02U......
0960: F0 FF FF 7F 63 30 32 39  45 03 80 F0 FF FF 7F F0  ....c029E.......
0970: FF FF 7F 63 30 35 35 04  80 55 03 80 F0 FF FF 7F  ...c055..U......
0980: F0 FF FF 7F 63 30 35 35  45 03 80 F0 FF FF 7F F0  ....c055E.......
0990: FF FF 7F 63 30 33 30 04  80 27 10 F0 FF FF 7F 3E  ...c030..'.....>
09A0: 6C 0C 32 02 01 10 80 0D  80 55 03 80 F0 FF FF 7F  l.2......U......
09B0: F0 FF FF 7F 63 30 33 30  45 03 80 F0 FF FF 7F F0  ....c030E.......
09C0: FF FF 7F 63 30 33 31 04  80 27 10 0C 32 02 01 11  ...c031..'..2...
09D0: 1C 3A 80 52 03 80 F0 FF  FF 7F F0 FF FF 7F 63 30  .:.R..........c0
09E0: 33 31 45 03 80 F0 FF FF  7F F0 FF FF 7F 63 30 33  31E..........c03
09F0: 32 04 80 2A 10 0C 32 02  01 45 03 80 F0 FF FF 7F  2..*..2..E......
0A00: F0 FF FF 7F 6B 30 37 36  04 80 1C 0C 80 4A 0C 32  ....k076.....J.2
0A10: 02 01 0F 32 02 01 2B 0C  32 02 01 3B 80 23 52 03  ...2..+.2..;.#R.
0A20: 80 F0 FF FF 7F F0 FF FF  7F 63 30 33 32 45 03 80  .........c032E..
0A30: F0 FF FF 7F F0 FF FF 7F  63 30 33 33 04 80 5B 3C  ........c033..[<
0A40: 80 0C 32 02 01 0C 32 02  01 6F 72 61 30 1C 0C 80  ..2...2..ora0...
0A50: 2B 0C 32 02 01 3D 80 23  52 03 80 F0 FF FF 7F F0  +.2..=.#R.......
0A60: FF FF 7F 63 30 33 33 45  03 80 F0 FF FF 7F F0 FF  ...c033E........
0A70: FF 7F 63 30 33 34 04 80  5B 32 80 0F 32 02 01 0F  ..c034..[2..2...
0A80: 32 02 01 64 72 30 33 2B  0F 32 02 01 3E 80 23 52  2..dr03+.2..>.#R
0A90: 03 80 F0 FF FF 7F F0 FF  FF 7F 63 30 33 34 45 03  ..........c034E.
0AA0: 80 F0 FF FF 7F F0 FF FF  7F 63 30 33 35 04 80 2B  .........c035..+
0AB0: 0F 32 02 01 3F 80 23 52  03 80 F0 FF FF 7F F0 FF  .2..?.#R........
0AC0: FF 7F 63 30 33 35 45 03  80 F0 FF FF 7F F0 FF FF  ..c035E.........
0AD0: 7F 63 30 33 36 04 80 5B  32 80 0F 32 02 01 0F 32  .c036..[2..2...2
0AE0: 02 01 64 72 30 34 1C 40  80 5B 3C 80 0C 32 02 01  ..dr04.@.[<..2..
0AF0: 0C 32 02 01 6F 72 61 32  2B 0F 32 02 01 41 80 23  .2..ora2+.2..A.#
0B00: 5D 04 80 3A 80 52 03 80  F0 FF FF 7F F0 FF FF 7F  ]..:.R..........
0B10: 63 30 33 36 45 03 80 F0  FF FF 7F F0 FF FF 7F 63  c036E..........c
0B20: 30 33 37 04 80 5B 42 80  14 32 02 01 14 32 02 01  037..[B..2...2..
0B30: 64 66 6D 30 2B 14 32 02  01 43 80 23 5B 42 80 15  dfm0+.2..C.#[B..
0B40: 32 02 01 15 32 02 01 64  66 6B 30 2B 15 32 02 01  2...2..dfk0+.2..
0B50: 44 80 23 5B 45 80 16 32  02 01 16 32 02 01 64 66  D.#[E..2...2..df
0B60: 63 30 2B 16 32 02 01 46  80 23 5C 00 2A 80 5C 01  c0+.2..F.#\.*.\.
0B70: 2A 80 9A 6C 0F 32 02 01  04 80 0D 80 52 03 80 F0  *..l.2......R...
0B80: FF FF 7F F0 FF FF 7F 63  30 33 37 45 03 80 F0 FF  .......c037E....
0B90: FF 7F F0 FF FF 7F 34 31  32 35 04 80 55 03 80 F0  ......4125..U...
0BA0: FF FF 7F F0 FF FF 7F 34  31 32 35 45 03 80 F0 FF  .......4125E....
0BB0: FF 7F F0 FF FF 7F 63 30  33 38 04 80 5B 2E 80 0E  ......c038..[...
0BC0: 32 02 01 0E 32 02 01 6D  67 61 31 2B 0E 32 02 01  2...2..mga1+.2..
0BD0: 47 80 23 53 0E 32 02 01  0E 32 02 01 6D 67 61 31  G.#S.2...2..mga1
0BE0: 52 03 80 F0 FF FF 7F F0  FF FF 7F 63 30 33 38 45  R..........c038E
0BF0: 03 80 F0 FF FF 7F F0 FF  FF 7F 34 31 32 35 04 80  ..........4125..
0C00: 55 03 80 F0 FF FF 7F F0  FF FF 7F 34 31 32 35 45  U..........4125E
0C10: 03 80 F0 FF FF 7F F0 FF  FF 7F 63 30 33 39 04 80  ..........c039..
0C20: 5B 31 80 12 32 02 01 12  32 02 01 6D 67 61 31 2B  [1..2...2..mga1+
0C30: 12 32 02 01 48 80 23 53  12 32 02 01 12 32 02 01  .2..H.#S.2...2..
0C40: 6D 67 61 31 52 03 80 F0  FF FF 7F F0 FF FF 7F 63  mga1R..........c
0C50: 30 33 39 45 03 80 F0 FF  FF 7F F0 FF FF 7F 34 31  039E..........41
0C60: 32 35 04 80 55 03 80 F0  FF FF 7F F0 FF FF 7F 34  25..U..........4
0C70: 31 32 35 45 03 80 F0 FF  FF 7F F0 FF FF 7F 63 30  125E..........c0
0C80: 34 30 04 80 5B 2F 80 11  32 02 01 11 32 02 01 6D  40..[/..2...2..m
0C90: 67 61 31 2B 11 32 02 01  49 80 23 53 11 32 02 01  ga1+.2..I.#S.2..
0CA0: 11 32 02 01 6D 67 61 31  52 03 80 F0 FF FF 7F F0  .2..mga1R.......
0CB0: FF FF 7F 63 30 34 30 45  03 80 F0 FF FF 7F F0 FF  ...c040E........
0CC0: FF 7F 34 31 32 35 04 80  55 03 80 F0 FF FF 7F F0  ..4125..U.......
0CD0: FF FF 7F 34 31 32 35 45  03 80 F0 FF FF 7F F0 FF  ...4125E........
0CE0: FF 7F 63 30 34 31 04 80  5B 30 80 10 32 02 01 10  ..c041..[0..2...
0CF0: 32 02 01 6D 67 61 31 2B  10 32 02 01 4A 80 23 53  2..mga1+.2..J.#S
0D00: 10 32 02 01 10 32 02 01  6D 67 61 31 1C 01 80 52  .2...2..mga1...R
0D10: 03 80 F0 FF FF 7F F0 FF  FF 7F 63 30 34 31 6C 0F  ..........c041l.
0D20: 32 02 01 10 80 0D 80 45  03 80 F0 FF FF 7F F0 FF  2......E........
0D30: FF 7F 63 30 34 32 04 80  5B 4B 80 0C 32 02 01 0C  ..c042..[K..2...
0D40: 32 02 01 63 35 31 35 7B  0F 32 02 01 5B 32 80 0F  2..c515{.2..[2..
0D50: 32 02 01 0F 32 02 01 64  72 30 35 2B 0F 32 02 01  2...2..dr05+.2..
0D60: 4C 80 23 2B 0F 32 02 01  4D 80 23 5D 04 80 3A 80  L.#+.2..M.#]..:.
0D70: 52 03 80 F0 FF FF 7F F0  FF FF 7F 63 30 34 32 45  R..........c042E
0D80: 03 80 F0 FF FF 7F F0 FF  FF 7F 63 30 34 33 04 80  ..........c043..
0D90: 1C 01 80 2B 0C 32 02 01  4E 80 23 1C 19 80 2B 0C  ...+.2..N.#...+.
0DA0: 32 02 01 4F 80 23 52 03  80 F0 FF FF 7F F0 FF FF  2..O.#R.........
0DB0: 7F 63 30 34 33 45 03 80  F0 FF FF 7F F0 FF FF 7F  .c043E..........
0DC0: 63 30 34 34 04 80 5C 00  18 80 5C 01 18 80 9A 27  c044..\...\....'
0DD0: 10 0C 32 02 01 12 1C 01  80 5B 32 80 0F 32 02 01  ..2......[2..2..
0DE0: 0F 32 02 01 64 72 30 36  27 10 0A 32 02 01 03 2B  .2..dr06'..2...+
0DF0: 0B 32 02 01 50 80 23 2A  10 0C 32 02 01 52 03 80  .2..P.#*..2..R..
0E00: F0 FF FF 7F F0 FF FF 7F  63 30 34 34 45 03 80 F0  ........c044E...
0E10: FF FF 7F F0 FF FF 7F 63  30 34 35 04 80 27 10 0F  .......c045..'..
0E20: 32 02 01 0B 27 10 0C 32  02 01 13 6C 0F 32 02 01  2...'..2...l.2..
0E30: 04 80 0D 80 6C 0C 32 02  01 04 80 0D 80 9F 51 80  ....l.2.......Q.
0E40: 0D 32 02 01 0D 32 02 01  6D 61 69 6E 04 80 55 03  .2...2..main..U.
0E50: 80 F0 FF FF 7F F0 FF FF  7F 63 30 34 35 4A 0C 32  .........c045J.2
0E60: 02 01 0D 32 02 01 2B 0D  32 02 01 52 80 23 6C 0F  ...2..+.2..R.#l.
0E70: 32 02 01 10 80 0D 80 6C  0C 32 02 01 10 80 0D 80  2......l.2......
0E80: 45 03 80 F0 FF FF 7F F0  FF FF 7F 63 30 34 36 04  E..........c046.
0E90: 80 27 10 F0 FF FF 7F 3F  2B 0D 32 02 01 53 80 23  .'.....?+.2..S.#
0EA0: 2A 10 F0 FF FF 7F 52 03  80 F0 FF FF 7F F0 FF FF  *.....R.........
0EB0: 7F 63 30 34 36 45 03 80  F0 FF FF 7F F0 FF FF 7F  .c046E..........
0EC0: 63 30 35 34 04 80 2B 0D  32 02 01 54 80 23 5B 55  c054..+.2..T.#[U
0ED0: 80 0C 32 02 01 0C 32 02  01 6F 72 61 30 1C 0C 80  ..2...2..ora0...
0EE0: 52 03 80 F0 FF FF 7F F0  FF FF 7F 63 30 35 34 45  R..........c054E
0EF0: 03 80 F0 FF FF 7F F0 FF  FF 7F 63 30 34 37 04 80  ..........c047..
0F00: 2B 0C 32 02 01 56 80 23  55 03 80 F0 FF FF 7F F0  +.2..V.#U.......
0F10: FF FF 7F 63 30 34 37 5C  00 57 80 5C 01 57 80 9A  ...c047\.W.\.W..
0F20: 9F 02 80 F8 FF FF 7F F8  FF FF 7F 73 74 72 30 04  ...........str0.
0F30: 80 45 03 80 F0 FF FF 7F  F0 FF FF 7F 63 30 34 38  .E..........c048
0F40: 04 80 1C 01 80 5B 58 80  0D 32 02 01 0D 32 02 01  .....[X..2...2..
0F50: 6F 61 30 30 1C 0C 80 27  10 0A 32 02 01 02 55 03  oa00...'..2...U.
0F60: 80 F0 FF FF 7F F0 FF FF  7F 63 30 34 38 5B 55 80  .........c048[U.
0F70: 0C 32 02 01 0C 32 02 01  6F 72 61 31 2B 0C 32 02  .2...2..ora1+.2.
0F80: 01 59 80 23 45 03 80 F0  FF FF 7F F0 FF FF 7F 63  .Y.#E..........c
0F90: 30 34 39 04 80 1C 40 80  2B 0D 32 02 01 5A 80 23  049...@.+.2..Z.#
0FA0: 52 03 80 F0 FF FF 7F F0  FF FF 7F 63 30 34 39 45  R..........c049E
0FB0: 03 80 F0 FF FF 7F F0 FF  FF 7F 63 30 35 30 04 80  ..........c050..
0FC0: 1C 0C 80 5B 58 80 0D 32  02 01 0D 32 02 01 6F 61  ...[X..2...2..oa
0FD0: 30 31 55 03 80 F0 FF FF  7F F0 FF FF 7F 63 30 35  01U..........c05
0FE0: 30 45 03 80 F0 FF FF 7F  F0 FF FF 7F 63 30 35 31  0E..........c051
0FF0: 04 80 27 10 0A 32 02 01  04 1C 39 80 1A 47 2F 1C  ..'..2....9..G/.
1000: 0C 80 7B 0C 32 02 01 6C  0D 32 02 01 04 80 0D 80  ..{.2..l.2......
1010: 5B 5B 80 0C 32 02 01 0C  32 02 01 61 73 30 30 29  [[..2...2..as00)
1020: 10 F0 FF FF 7F 40 52 03  80 F0 FF FF 7F F0 FF FF  .....@R.........
1030: 7F 63 30 35 31 1C 0C 80  45 03 80 F0 FF FF 7F F0  .c051...E.......
1040: FF FF 7F 30 62 6C 66 04  80 45 03 80 F0 FF FF 7F  ...0blf..E......
1050: F0 FF FF 7F 63 30 35 32  04 80 1A 26 2F 55 03 80  ....c052...&/U..
1060: F0 FF FF 7F F0 FF FF 7F  63 30 35 32 79 00 F0 FF  ........c052y...
1070: FF 7F 0C 32 02 01 2B 0C  32 02 01 5C 80 23 45 03  ...2..+.2..\.#E.
1080: 80 F0 FF FF 7F F0 FF FF  7F 63 30 35 33 04 80 27  .........c053..'
1090: 10 F0 FF FF 7F 41 1C 0C  80 27 10 0C 32 02 01 14  .....A...'..2...
10A0: 1C 01 80 1A 05 2F 1C 01  80 2A 10 F0 FF FF 7F 45  ...../...*.....E
10B0: 03 80 F0 FF FF 7F F0 FF  FF 7F 6B 30 30 36 04 80  ..........k006..
10C0: 52 03 80 F0 FF FF 7F F0  FF FF 7F 63 30 35 33 9F  R..........c053.
10D0: 02 80 F8 FF FF 7F F8 FF  FF 7F 6B 69 6C 6C 04 80  ..........kill..
10E0: 29 10 CF 31 02 01 05 5C  00 11 80 5C 01 11 80 5C  )..1...\...\...\
10F0: 02 12 80 5C 03 13 80 9A  46 00 45 03 80 F0 FF FF  ...\....F.E.....
1100: 7F F0 FF FF 7F 30 62 6C  66 04 80 45 14 80 F0 FF  .....0blf..E....
1110: FF 7F F0 FF FF 7F 66 64  69 32 04 80 21 00        ......fdi2..!.  
```

#### Opcodes

```
  0: 0x05E3 [0x42] SET_CLI_EVENT_CANCEL_DATA()
  1: 0x05E4 [0x1A] CALL_SUBROUTINE(address=0x2F05)
  2: 0x05E7 [0x46] CAMERA_CONTROL: Disable user control
  3: 0x05E9 [0x38] SET_CLIENT_EVENT_MODE(mode=19*)
  4: 0x05EC [0x1C] WAIT(15* ticks)
  5: 0x05EF [0x79] LocalPlayer looks at LocalPlayer (Basic look)
  6: 0x05F9 [0x5D] SET_MUSIC_VOLUME(volume=0*, fade_time=300*)
  7: 0x05FE [0x27] REQ_SET(priority=0x10, entity_id=LocalPlayer, tag_num=0x43)
  8: 0x0605 [0x45] LOAD_SCHEDULED_TASK: Load scheduler "bc00" with entities [LocalPlayer, LocalPlayer], work=[178*, 0*]
  9: 0x0616 [0x45] LOAD_SCHEDULED_TASK: Load scheduler "fdi2" with entities [LocalPlayer, LocalPlayer], work=[200*, 0*]
 10: 0x0627 [0x29] REQ_SET_WAIT(priority=0x10, entity_id=LocalPlayer, tag_num=0x44)
 11: 0x062E [0x1C] WAIT(15* ticks)
 12: 0x0631 [0x6E] LocalPlayer uses emote 0*
 13: 0x0638 [0x99] Wait for LocalPlayer animation to complete
 14: 0x063D [0x99] Wait for LocalPlayer animation to complete
 15: 0x0642 [0x9F] LOAD_SCHEDULED_TASK_ALT: Load scheduler "main" with entities [LocalPlayer, LocalPlayer], work=[75*, 0*]
 16: 0x0653 [0x1C] WAIT(140* ticks)
 17: 0x0656 [0x1A] CALL_SUBROUTINE(address=0x2F05)
 18: 0x0659 [0x1C] WAIT(30* ticks)
 19: 0x065C [0x27] REQ_SET(priority=0x10, entity_id=Prishe (ID: 16921100/0x0102320C), tag_num=0x02)
 20: 0x0663 [0x27] REQ_SET(priority=0x10, entity_id=Selh'teus (ID: 16921101/0x0102320D), tag_num=0x02)
 21: 0x066A [0x27] REQ_SET(priority=0x10, entity_id=Ulmia (ID: 16921102/0x0102320E), tag_num=0x04)
 22: 0x0671 [0x27] REQ_SET(priority=0x10, entity_id=Shikaree Z (ID: 16921105/0x01023211), tag_num=0x04)
 23: 0x0678 [0x27] REQ_SET(priority=0x10, entity_id=Jabbos (ID: 16921104/0x01023210), tag_num=0x04)
 24: 0x067F [0x27] REQ_SET(priority=0x10, entity_id=Louverance (ID: 16921106/0x01023212), tag_num=0x04)
 25: 0x0686 [0x27] REQ_SET(priority=0x10, entity_id=Tenzen (ID: 16921103/0x0102320F), tag_num=0x04)
 26: 0x068D [0x27] REQ_SET(priority=0x10, entity_id=Makki-Chebukki (ID: 16921108/0x01023214), tag_num=0x04)
 27: 0x0694 [0x27] REQ_SET(priority=0x10, entity_id=Kukki-Chebukki (ID: 16921109/0x01023215), tag_num=0x04)
 28: 0x069B [0x27] REQ_SET(priority=0x10, entity_id=Cherukiki (ID: 16921110/0x01023216), tag_num=0x04)
 29: 0x06A2 [0x27] REQ_SET(priority=0x10, entity_id=Unnamed NPC (ID: 16921111/0x01023217), tag_num=0x02)
 30: 0x06A9 [0x27] REQ_SET(priority=0x10, entity_id=Unnamed NPC (ID: 16921112/0x01023218), tag_num=0x02)
 31: 0x06B0 [0x27] REQ_SET(priority=0x10, entity_id=Unnamed NPC (ID: 16921113/0x01023219), tag_num=0x02)
 32: 0x06B7 [0x27] REQ_SET(priority=0x10, entity_id=Unnamed NPC (ID: 16921114/0x0102321A), tag_num=0x02)
 33: 0x06BE [0x92] Prishe (ID: 16921100/0x0102320C)->Render.Flags3 ^= 0x01
 34: 0x06C4 [0x92] Selh'teus (ID: 16921101/0x0102320D)->Render.Flags3 ^= 0x01
 35: 0x06CA [0x92] Ulmia (ID: 16921102/0x0102320E)->Render.Flags3 ^= 0x01
 36: 0x06D0 [0x92] Shikaree Z (ID: 16921105/0x01023211)->Render.Flags3 ^= 0x01
 37: 0x06D6 [0x92] Jabbos (ID: 16921104/0x01023210)->Render.Flags3 ^= 0x01
 38: 0x06DC [0x92] Louverance (ID: 16921106/0x01023212)->Render.Flags3 ^= 0x01
 39: 0x06E2 [0x92] Tenzen (ID: 16921103/0x0102320F)->Render.Flags3 ^= 0x01
 40: 0x06E8 [0x92] Makki-Chebukki (ID: 16921108/0x01023214)->Render.Flags3 ^= 0x01
 41: 0x06EE [0x92] Kukki-Chebukki (ID: 16921109/0x01023215)->Render.Flags3 ^= 0x01
 42: 0x06F4 [0x92] Cherukiki (ID: 16921110/0x01023216)->Render.Flags3 ^= 0x01
 43: 0x06FA [0x92] Unnamed NPC (ID: 16921111/0x01023217)->Render.Flags3 ^= 0x01
 44: 0x0700 [0x92] Unnamed NPC (ID: 16921112/0x01023218)->Render.Flags3 ^= 0x01
 45: 0x0706 [0x92] Unnamed NPC (ID: 16921113/0x01023219)->Render.Flags3 ^= 0x01
 46: 0x070C [0x92] Unnamed NPC (ID: 16921114/0x0102321A)->Render.Flags3 ^= 0x01
 47: 0x0712 [0x94] LocalPlayer->Render.Flags3 ^= 0x01
 48: 0x0718 [0x94] Prishe (ID: 16921100/0x0102320C)->Render.Flags3 ^= 0x01
 49: 0x071E [0x94] Selh'teus (ID: 16921101/0x0102320D)->Render.Flags3 ^= 0x01
 50: 0x0724 [0x94] Ulmia (ID: 16921102/0x0102320E)->Render.Flags3 ^= 0x01
 51: 0x072A [0x94] Shikaree Z (ID: 16921105/0x01023211)->Render.Flags3 ^= 0x01
 52: 0x0730 [0x94] Jabbos (ID: 16921104/0x01023210)->Render.Flags3 ^= 0x01
 53: 0x0736 [0x94] Louverance (ID: 16921106/0x01023212)->Render.Flags3 ^= 0x01
 54: 0x073C [0x94] Tenzen (ID: 16921103/0x0102320F)->Render.Flags3 ^= 0x01
 55: 0x0742 [0x94] Makki-Chebukki (ID: 16921108/0x01023214)->Render.Flags3 ^= 0x01
 56: 0x0748 [0x94] Kukki-Chebukki (ID: 16921109/0x01023215)->Render.Flags3 ^= 0x01
 57: 0x074E [0x94] Cherukiki (ID: 16921110/0x01023216)->Render.Flags3 ^= 0x01
 58: 0x0754 [0x94] Unnamed NPC (ID: 16921111/0x01023217)->Render.Flags3 ^= 0x01
 59: 0x075A [0x94] Unnamed NPC (ID: 16921112/0x01023218)->Render.Flags3 ^= 0x01
 60: 0x0760 [0x94] Unnamed NPC (ID: 16921113/0x01023219)->Render.Flags3 ^= 0x01
 61: 0x0766 [0x94] Unnamed NPC (ID: 16921114/0x0102321A)->Render.Flags3 ^= 0x01
 62: 0x076C [0x29] REQ_SET_WAIT(priority=0x10, entity_id=Prishe (ID: 16921100/0x0102320C), tag_num=0x10)
 63: 0x0773 [0x29] REQ_SET_WAIT(priority=0x10, entity_id=Selh'teus (ID: 16921101/0x0102320D), tag_num=0x0A)
 64: 0x077A [0x29] REQ_SET_WAIT(priority=0x10, entity_id=Ulmia (ID: 16921102/0x0102320E), tag_num=0x0A)
 65: 0x0781 [0x29] REQ_SET_WAIT(priority=0x10, entity_id=Shikaree Z (ID: 16921105/0x01023211), tag_num=0x0A)
 66: 0x0788 [0x29] REQ_SET_WAIT(priority=0x10, entity_id=Jabbos (ID: 16921104/0x01023210), tag_num=0x0A)
 67: 0x078F [0x29] REQ_SET_WAIT(priority=0x10, entity_id=Louverance (ID: 16921106/0x01023212), tag_num=0x0A)
 68: 0x0796 [0x29] REQ_SET_WAIT(priority=0x10, entity_id=Tenzen (ID: 16921103/0x0102320F), tag_num=0x0A)
 69: 0x079D [0x29] REQ_SET_WAIT(priority=0x10, entity_id=Makki-Chebukki (ID: 16921108/0x01023214), tag_num=0x0A)
 70: 0x07A4 [0x29] REQ_SET_WAIT(priority=0x10, entity_id=Kukki-Chebukki (ID: 16921109/0x01023215), tag_num=0x0A)
 71: 0x07AB [0x29] REQ_SET_WAIT(priority=0x10, entity_id=Cherukiki (ID: 16921110/0x01023216), tag_num=0x0A)
 72: 0x07B2 [0x29] REQ_SET_WAIT(priority=0x10, entity_id=Unnamed NPC (ID: 16921111/0x01023217), tag_num=0x09)
 73: 0x07B9 [0x29] REQ_SET_WAIT(priority=0x10, entity_id=Unnamed NPC (ID: 16921112/0x01023218), tag_num=0x09)
 74: 0x07C0 [0x29] REQ_SET_WAIT(priority=0x10, entity_id=Unnamed NPC (ID: 16921113/0x01023219), tag_num=0x09)
 75: 0x07C7 [0x29] REQ_SET_WAIT(priority=0x10, entity_id=Unnamed NPC (ID: 16921114/0x0102321A), tag_num=0x09)
 76: 0x07CE [0x29] REQ_SET_WAIT(priority=0x10, entity_id=LocalPlayer, tag_num=0x3C)
 77: 0x07D5 [0x80] LOAD_WAIT(entity=Prishe (ID: 16921100/0x0102320C))
 78: 0x07DA [0x80] LOAD_WAIT(entity=Selh'teus (ID: 16921101/0x0102320D))
 79: 0x07DF [0x80] LOAD_WAIT(entity=Ulmia (ID: 16921102/0x0102320E))
 80: 0x07E4 [0x80] LOAD_WAIT(entity=Shikaree Z (ID: 16921105/0x01023211))
 81: 0x07E9 [0x80] LOAD_WAIT(entity=Jabbos (ID: 16921104/0x01023210))
 82: 0x07EE [0x80] LOAD_WAIT(entity=Louverance (ID: 16921106/0x01023212))
 83: 0x07F3 [0x80] LOAD_WAIT(entity=Tenzen (ID: 16921103/0x0102320F))
 84: 0x07F8 [0x80] LOAD_WAIT(entity=Makki-Chebukki (ID: 16921108/0x01023214))
 85: 0x07FD [0x80] LOAD_WAIT(entity=Kukki-Chebukki (ID: 16921109/0x01023215))
 86: 0x0802 [0x80] LOAD_WAIT(entity=Cherukiki (ID: 16921110/0x01023216))
 87: 0x0807 [0x80] LOAD_WAIT(entity=Unnamed NPC (ID: 16921111/0x01023217))
 88: 0x080C [0x80] LOAD_WAIT(entity=Unnamed NPC (ID: 16921112/0x01023218))
 89: 0x0811 [0x80] LOAD_WAIT(entity=Unnamed NPC (ID: 16921113/0x01023219))
 90: 0x0816 [0x80] LOAD_WAIT(entity=Unnamed NPC (ID: 16921114/0x0102321A))
 91: 0x081B [0x80] LOAD_WAIT(entity=LocalPlayer)
 92: 0x0820 [0x1C] WAIT(30* ticks)
 93: 0x0823 [0x81] SET_ENTITY_BLINKING(blink_flag=0x00, entity=Ulmia (ID: 16921102/0x0102320E))
 94: 0x0829 [0x81] SET_ENTITY_BLINKING(blink_flag=0x00, entity=Shikaree Z (ID: 16921105/0x01023211))
 95: 0x082F [0x81] SET_ENTITY_BLINKING(blink_flag=0x00, entity=Jabbos (ID: 16921104/0x01023210))
 96: 0x0835 [0x81] SET_ENTITY_BLINKING(blink_flag=0x00, entity=Louverance (ID: 16921106/0x01023212))
 97: 0x083B [0x5B] LOAD_EXT_SCHEDULER: Load scheduler "mga0" with entities [Ulmia (ID: 16921102/0x0102320E), Ulmia (ID: 16921102/0x0102320E)], work=636*
 98: 0x084A [0x5B] LOAD_EXT_SCHEDULER: Load scheduler "mga0" with entities [Shikaree Z (ID: 16921105/0x01023211), Shikaree Z (ID: 16921105/0x01023211)], work=668*
 99: 0x0859 [0x5B] LOAD_EXT_SCHEDULER: Load scheduler "mga0" with entities [Jabbos (ID: 16921104/0x01023210), Jabbos (ID: 16921104/0x01023210)], work=494*
100: 0x0868 [0x5B] LOAD_EXT_SCHEDULER: Load scheduler "mga0" with entities [Louverance (ID: 16921106/0x01023212), Louverance (ID: 16921106/0x01023212)], work=658*
101: 0x0877 [0x5B] LOAD_EXT_SCHEDULER: Load scheduler "dr01" with entities [Tenzen (ID: 16921103/0x0102320F), Tenzen (ID: 16921103/0x0102320F)], work=660*
102: 0x0886 [0x5B] LOAD_EXT_SCHEDULER: Load scheduler "pop0" with entities [Selh'teus (ID: 16921101/0x0102320D), Selh'teus (ID: 16921101/0x0102320D)], work=730*
103: 0x0895 [0x45] LOAD_SCHEDULED_TASK: Load scheduler "c027" with entities [LocalPlayer, LocalPlayer], work=[178*, 0*]
104: 0x08A6 [0x9F] LOAD_SCHEDULED_TASK_ALT: Load scheduler "main" with entities [LocalPlayer, LocalPlayer], work=[76*, 0*]
105: 0x08B7 [0x1A] CALL_SUBROUTINE(address=0x2EE4)
106: 0x08BA [0x27] REQ_SET(priority=0x10, entity_id=Particle Gate (ID: 16921039/0x010231CF), tag_num=0x04)
107: 0x08C1 [0x1C] WAIT(30* ticks)
108: 0x08C4 [0x29] REQ_SET_WAIT(priority=0x10, entity_id=LocalPlayer, tag_num=0x3D)
109: 0x08CB [0x5C] MUSIC_CONTROL: Set Idle (Day) music to song 231*
110: 0x08CF [0x5C] MUSIC_CONTROL: Set Idle (Night) music to song 231*
111: 0x08D3 [0x9A] WAIT_MUSIC_SERVER()
112: 0x08D4 [0x52] END_LOAD_SCHEDULER: End scheduler "c027" with entities [LocalPlayer, LocalPlayer], work=178*
113: 0x08E3 [0x45] LOAD_SCHEDULED_TASK: Load scheduler "c028" with entities [LocalPlayer, LocalPlayer], work=[178*, 0*]
114: 0x08F4 [0x1C] WAIT(15* ticks)
115: 0x08F7 [0x27] REQ_SET(priority=0x10, entity_id=Cherukiki (ID: 16921110/0x01023216), tag_num=0x0B)
116: 0x08FE [0x2B] Cherukiki (ID: 16921110/0x01023216) [7686*]:
    → "Help!"
117: 0x0905 [0x1C] WAIT(15* ticks)
118: 0x0908 [0x27] REQ_SET(priority=0x10, entity_id=Kukki-Chebukki (ID: 16921109/0x01023215), tag_num=0x0B)
119: 0x090F [0x2B] Kukki-Chebukki (ID: 16921109/0x01023215) [7687*]:
    → "He's gone mad!"
120: 0x0916 [0x1C] WAIT(15* ticks)
121: 0x0919 [0x27] REQ_SET(priority=0x10, entity_id=Makki-Chebukki (ID: 16921108/0x01023214), tag_num=0x0B)
122: 0x0920 [0x2B] Makki-Chebukki (ID: 16921108/0x01023214) [7688*]:
    → "Stark raving bonkers!"
123: 0x0927 [0x55] WAIT_LOAD_SCHEDULER: Wait for scheduler "c028" with entities [LocalPlayer, LocalPlayer], work=178*
124: 0x0936 [0x45] LOAD_SCHEDULED_TASK: Load scheduler "c029" with entities [LocalPlayer, LocalPlayer], work=[178*, 0*]
125: 0x0947 [0x1C] WAIT(90* ticks)
126: 0x094A [0x5B] LOAD_EXT_SCHEDULER: Load scheduler "dr02" with entities [Tenzen (ID: 16921103/0x0102320F), Tenzen (ID: 16921103/0x0102320F)], work=660*
127: 0x0959 [0x55] WAIT_LOAD_SCHEDULER: Wait for scheduler "c029" with entities [LocalPlayer, LocalPlayer], work=178*
128: 0x0968 [0x45] LOAD_SCHEDULED_TASK: Load scheduler "c055" with entities [LocalPlayer, LocalPlayer], work=[178*, 0*]
129: 0x0979 [0x55] WAIT_LOAD_SCHEDULER: Wait for scheduler "c055" with entities [LocalPlayer, LocalPlayer], work=178*
130: 0x0988 [0x45] LOAD_SCHEDULED_TASK: Load scheduler "c030" with entities [LocalPlayer, LocalPlayer], work=[178*, 0*]
131: 0x0999 [0x27] REQ_SET(priority=0x10, entity_id=LocalPlayer, tag_num=0x3E)
132: 0x09A0 [0x6C] FADE_ENTITY_COLOR(entity_id=Prishe (ID: 16921100/0x0102320C), end_alpha=128*, fade_time=1*)
133: 0x09A9 [0x55] WAIT_LOAD_SCHEDULER: Wait for scheduler "c030" with entities [LocalPlayer, LocalPlayer], work=178*
134: 0x09B8 [0x45] LOAD_SCHEDULED_TASK: Load scheduler "c031" with entities [LocalPlayer, LocalPlayer], work=[178*, 0*]
135: 0x09C9 [0x27] REQ_SET(priority=0x10, entity_id=Prishe (ID: 16921100/0x0102320C), tag_num=0x11)
136: 0x09D0 [0x1C] WAIT(120* ticks)
137: 0x09D3 [0x52] END_LOAD_SCHEDULER: End scheduler "c031" with entities [LocalPlayer, LocalPlayer], work=178*
138: 0x09E2 [0x45] LOAD_SCHEDULED_TASK: Load scheduler "c032" with entities [LocalPlayer, LocalPlayer], work=[178*, 0*]
139: 0x09F3 [0x2A] GET_REQ_LEVEL(level=16, entity_id=Prishe (ID: 16921100/0x0102320C))
140: 0x09F9 [0x45] LOAD_SCHEDULED_TASK: Load scheduler "k076" with entities [LocalPlayer, LocalPlayer], work=[178*, 0*]
141: 0x0A0A [0x1C] WAIT(15* ticks)
142: 0x0A0D [0x4A] Prishe (ID: 16921100/0x0102320C) looks at Tenzen (ID: 16921103/0x0102320F)
143: 0x0A16 [0x2B] Prishe (ID: 16921100/0x0102320C) [7689*]:
    → "What the...!?"
144: 0x0A1D [0x23] WAIT_FOR_DIALOG_INTERACTION
145: 0x0A1E [0x52] END_LOAD_SCHEDULER: End scheduler "c032" with entities [LocalPlayer, LocalPlayer], work=178*
146: 0x0A2D [0x45] LOAD_SCHEDULED_TASK: Load scheduler "c033" with entities [LocalPlayer, LocalPlayer], work=[178*, 0*]
147: 0x0A3E [0x5B] LOAD_EXT_SCHEDULER: Load scheduler "ora0" with entities [Prishe (ID: 16921100/0x0102320C), Prishe (ID: 16921100/0x0102320C)], work=624*
148: 0x0A4D [0x1C] WAIT(15* ticks)
149: 0x0A50 [0x2B] Prishe (ID: 16921100/0x0102320C) [7690*]:
    → "Hey, what the hell's going on!?"
150: 0x0A57 [0x23] WAIT_FOR_DIALOG_INTERACTION
151: 0x0A58 [0x52] END_LOAD_SCHEDULER: End scheduler "c033" with entities [LocalPlayer, LocalPlayer], work=178*
152: 0x0A67 [0x45] LOAD_SCHEDULED_TASK: Load scheduler "c034" with entities [LocalPlayer, LocalPlayer], work=[178*, 0*]
153: 0x0A78 [0x5B] LOAD_EXT_SCHEDULER: Load scheduler "dr03" with entities [Tenzen (ID: 16921103/0x0102320F), Tenzen (ID: 16921103/0x0102320F)], work=660*
154: 0x0A87 [0x2B] Tenzen (ID: 16921103/0x0102320F) [7691*]:
    → "I struck with the flat of my blade. They are not badly wounded."
155: 0x0A8E [0x23] WAIT_FOR_DIALOG_INTERACTION
156: 0x0A8F [0x52] END_LOAD_SCHEDULER: End scheduler "c034" with entities [LocalPlayer, LocalPlayer], work=178*
157: 0x0A9E [0x45] LOAD_SCHEDULED_TASK: Load scheduler "c035" with entities [LocalPlayer, LocalPlayer], work=[178*, 0*]
158: 0x0AAF [0x2B] Tenzen (ID: 16921103/0x0102320F) [7692*]:
    → "Our companions were climbing over one another to reach the portal ahead."
159: 0x0AB6 [0x23] WAIT_FOR_DIALOG_INTERACTION
160: 0x0AB7 [0x52] END_LOAD_SCHEDULER: End scheduler "c035" with entities [LocalPlayer, LocalPlayer], work=178*
161: 0x0AC6 [0x45] LOAD_SCHEDULED_TASK: Load scheduler "c036" with entities [LocalPlayer, LocalPlayer], work=[178*, 0*]
162: 0x0AD7 [0x5B] LOAD_EXT_SCHEDULER: Load scheduler "dr04" with entities [Tenzen (ID: 16921103/0x0102320F), Tenzen (ID: 16921103/0x0102320F)], work=660*
163: 0x0AE6 [0x1C] WAIT(45* ticks)
164: 0x0AE9 [0x5B] LOAD_EXT_SCHEDULER: Load scheduler "ora2" with entities [Prishe (ID: 16921100/0x0102320C), Prishe (ID: 16921100/0x0102320C)], work=624*
165: 0x0AF8 [0x2B] Tenzen (ID: 16921103/0x0102320F) [7693*]:
    → "Surely you have heard it? That voice has poisoned their minds."
166: 0x0AFF [0x23] WAIT_FOR_DIALOG_INTERACTION
167: 0x0B00 [0x5D] SET_MUSIC_VOLUME(volume=0*, fade_time=120*)
168: 0x0B05 [0x52] END_LOAD_SCHEDULER: End scheduler "c036" with entities [LocalPlayer, LocalPlayer], work=178*
169: 0x0B14 [0x45] LOAD_SCHEDULED_TASK: Load scheduler "c037" with entities [LocalPlayer, LocalPlayer], work=[178*, 0*]
170: 0x0B25 [0x5B] LOAD_EXT_SCHEDULER: Load scheduler "dfm0" with entities [Makki-Chebukki (ID: 16921108/0x01023214), Makki-Chebukki (ID: 16921108/0x01023214)], work=441*
171: 0x0B34 [0x2B] Makki-Chebukki (ID: 16921108/0x01023214) [7694*]:
    → "That voice speaks the truth! Our mother and father are waiting for us!"
172: 0x0B3B [0x23] WAIT_FOR_DIALOG_INTERACTION
173: 0x0B3C [0x5B] LOAD_EXT_SCHEDULER: Load scheduler "dfk0" with entities [Kukki-Chebukki (ID: 16921109/0x01023215), Kukki-Chebukki (ID: 16921109/0x01023215)], work=441*
174: 0x0B4B [0x2B] Kukki-Chebukki (ID: 16921109/0x01023215) [7695*]:
    → "It says we can live happily ever after as one big family!"
175: 0x0B52 [0x23] WAIT_FOR_DIALOG_INTERACTION
176: 0x0B53 [0x5B] LOAD_EXT_SCHEDULER: Load scheduler "dfc0" with entities [Cherukiki (ID: 16921110/0x01023216), Cherukiki (ID: 16921110/0x01023216)], work=431*
177: 0x0B62 [0x2B] Cherukiki (ID: 16921110/0x01023216) [7696*]:
    → "And we'll never be sad or lonely ever again!"
178: 0x0B69 [0x23] WAIT_FOR_DIALOG_INTERACTION
179: 0x0B6A [0x5C] MUSIC_CONTROL: Set Idle (Day) music to song 240*
180: 0x0B6E [0x5C] MUSIC_CONTROL: Set Idle (Night) music to song 240*
181: 0x0B72 [0x9A] WAIT_MUSIC_SERVER()
182: 0x0B73 [0x6C] FADE_ENTITY_COLOR(entity_id=Tenzen (ID: 16921103/0x0102320F), end_alpha=0*, fade_time=1*)
183: 0x0B7C [0x52] END_LOAD_SCHEDULER: End scheduler "c037" with entities [LocalPlayer, LocalPlayer], work=178*
184: 0x0B8B [0x45] LOAD_SCHEDULED_TASK: Load scheduler "4125" with entities [LocalPlayer, LocalPlayer], work=[178*, 0*]
185: 0x0B9C [0x55] WAIT_LOAD_SCHEDULER: Wait for scheduler "4125" with entities [LocalPlayer, LocalPlayer], work=178*
186: 0x0BAB [0x45] LOAD_SCHEDULED_TASK: Load scheduler "c038" with entities [LocalPlayer, LocalPlayer], work=[178*, 0*]
187: 0x0BBC [0x5B] LOAD_EXT_SCHEDULER: Load scheduler "mga1" with entities [Ulmia (ID: 16921102/0x0102320E), Ulmia (ID: 16921102/0x0102320E)], work=636*
188: 0x0BCB [0x2B] Ulmia (ID: 16921102/0x0102320E) [7697*]:
    → "Uh... He wishes to hear my song... The song that only I can sing..."
189: 0x0BD2 [0x23] WAIT_FOR_DIALOG_INTERACTION
190: 0x0BD3 [0x53] WAIT_SCHEDULER_TASK: Wait for scheduler "mga1" with entities [Ulmia (ID: 16921102/0x0102320E), Ulmia (ID: 16921102/0x0102320E)]
191: 0x0BE0 [0x52] END_LOAD_SCHEDULER: End scheduler "c038" with entities [LocalPlayer, LocalPlayer], work=178*
192: 0x0BEF [0x45] LOAD_SCHEDULED_TASK: Load scheduler "4125" with entities [LocalPlayer, LocalPlayer], work=[178*, 0*]
193: 0x0C00 [0x55] WAIT_LOAD_SCHEDULER: Wait for scheduler "4125" with entities [LocalPlayer, LocalPlayer], work=178*
194: 0x0C0F [0x45] LOAD_SCHEDULED_TASK: Load scheduler "c039" with entities [LocalPlayer, LocalPlayer], work=[178*, 0*]
195: 0x0C20 [0x5B] LOAD_EXT_SCHEDULER: Load scheduler "mga1" with entities [Louverance (ID: 16921106/0x01023212), Louverance (ID: 16921106/0x01023212)], work=658*
196: 0x0C2F [0x2B] Louverance (ID: 16921106/0x01023212) [7698*]:
    → "... He needs my strength to rebuild this shattered city..."
197: 0x0C36 [0x23] WAIT_FOR_DIALOG_INTERACTION
198: 0x0C37 [0x53] WAIT_SCHEDULER_TASK: Wait for scheduler "mga1" with entities [Louverance (ID: 16921106/0x01023212), Louverance (ID: 16921106/0x01023212)]
199: 0x0C44 [0x52] END_LOAD_SCHEDULER: End scheduler "c039" with entities [LocalPlayer, LocalPlayer], work=178*
200: 0x0C53 [0x45] LOAD_SCHEDULED_TASK: Load scheduler "4125" with entities [LocalPlayer, LocalPlayer], work=[178*, 0*]
201: 0x0C64 [0x55] WAIT_LOAD_SCHEDULER: Wait for scheduler "4125" with entities [LocalPlayer, LocalPlayer], work=178*
202: 0x0C73 [0x45] LOAD_SCHEDULED_TASK: Load scheduler "c040" with entities [LocalPlayer, LocalPlayer], work=[178*, 0*]
203: 0x0C84 [0x5B] LOAD_EXT_SCHEDULER: Load scheduler "mga1" with entities [Shikaree Z (ID: 16921105/0x01023211), Shikaree Z (ID: 16921105/0x01023211)], work=668*
204: 0x0C93 [0x2B] Shikaree Z (ID: 16921105/0x01023211) [7699*]:
    → "Ah... A perfect law...where no crimes will be committed...lies ahead... It offers a new way of life...for everyone..."
205: 0x0C9A [0x23] WAIT_FOR_DIALOG_INTERACTION
206: 0x0C9B [0x53] WAIT_SCHEDULER_TASK: Wait for scheduler "mga1" with entities [Shikaree Z (ID: 16921105/0x01023211), Shikaree Z (ID: 16921105/0x01023211)]
207: 0x0CA8 [0x52] END_LOAD_SCHEDULER: End scheduler "c040" with entities [LocalPlayer, LocalPlayer], work=178*
208: 0x0CB7 [0x45] LOAD_SCHEDULED_TASK: Load scheduler "4125" with entities [LocalPlayer, LocalPlayer], work=[178*, 0*]
209: 0x0CC8 [0x55] WAIT_LOAD_SCHEDULER: Wait for scheduler "4125" with entities [LocalPlayer, LocalPlayer], work=178*
210: 0x0CD7 [0x45] LOAD_SCHEDULED_TASK: Load scheduler "c041" with entities [LocalPlayer, LocalPlayer], work=[178*, 0*]
211: 0x0CE8 [0x5B] LOAD_EXT_SCHEDULER: Load scheduler "mga1" with entities [Jabbos (ID: 16921104/0x01023210), Jabbos (ID: 16921104/0x01023210)], work=494*
212: 0x0CF7 [0x2B] Jabbos (ID: 16921104/0x01023210) [7700*]:
    → "Power... Power to...protect...the weak... That voice...promises me...power..."
213: 0x0CFE [0x23] WAIT_FOR_DIALOG_INTERACTION
214: 0x0CFF [0x53] WAIT_SCHEDULER_TASK: Wait for scheduler "mga1" with entities [Jabbos (ID: 16921104/0x01023210), Jabbos (ID: 16921104/0x01023210)]
215: 0x0D0C [0x1C] WAIT(30* ticks)
216: 0x0D0F [0x52] END_LOAD_SCHEDULER: End scheduler "c041" with entities [LocalPlayer, LocalPlayer], work=178*
217: 0x0D1E [0x6C] FADE_ENTITY_COLOR(entity_id=Tenzen (ID: 16921103/0x0102320F), end_alpha=128*, fade_time=1*)
218: 0x0D27 [0x45] LOAD_SCHEDULED_TASK: Load scheduler "c042" with entities [LocalPlayer, LocalPlayer], work=[178*, 0*]
219: 0x0D38 [0x5B] LOAD_EXT_SCHEDULER: Load scheduler "c515" with entities [Prishe (ID: 16921100/0x0102320C), Prishe (ID: 16921100/0x0102320C)], work=689*
220: 0x0D47 [0x7B] Tenzen (ID: 16921103/0x0102320F) stops talking
221: 0x0D4C [0x5B] LOAD_EXT_SCHEDULER: Load scheduler "dr05" with entities [Tenzen (ID: 16921103/0x0102320F), Tenzen (ID: 16921103/0x0102320F)], work=660*
222: 0x0D5B [0x2B] Tenzen (ID: 16921103/0x0102320F) [7701*]:
    → "To me it promises to teach the path of righteousness."
223: 0x0D62 [0x23] WAIT_FOR_DIALOG_INTERACTION
224: 0x0D63 [0x2B] Tenzen (ID: 16921103/0x0102320F) [7702*]:
    → "A path that can be walked without the slightest regret or hesitation."
225: 0x0D6A [0x23] WAIT_FOR_DIALOG_INTERACTION
226: 0x0D6B [0x5D] SET_MUSIC_VOLUME(volume=0*, fade_time=120*)
227: 0x0D70 [0x52] END_LOAD_SCHEDULER: End scheduler "c042" with entities [LocalPlayer, LocalPlayer], work=178*
228: 0x0D7F [0x45] LOAD_SCHEDULED_TASK: Load scheduler "c043" with entities [LocalPlayer, LocalPlayer], work=[178*, 0*]
229: 0x0D90 [0x1C] WAIT(30* ticks)
230: 0x0D93 [0x2B] Prishe (ID: 16921100/0x0102320C) [7703*]:
    → "And to me it promises..."
231: 0x0D9A [0x23] WAIT_FOR_DIALOG_INTERACTION
232: 0x0D9B [0x1C] WAIT(60* ticks)
233: 0x0D9E [0x2B] Prishe (ID: 16921100/0x0102320C) [7704*]:
    → "...an end."
234: 0x0DA5 [0x23] WAIT_FOR_DIALOG_INTERACTION
235: 0x0DA6 [0x52] END_LOAD_SCHEDULER: End scheduler "c043" with entities [LocalPlayer, LocalPlayer], work=178*
236: 0x0DB5 [0x45] LOAD_SCHEDULED_TASK: Load scheduler "c044" with entities [LocalPlayer, LocalPlayer], work=[178*, 0*]
237: 0x0DC6 [0x5C] MUSIC_CONTROL: Set Idle (Day) music to song 222*
238: 0x0DCA [0x5C] MUSIC_CONTROL: Set Idle (Night) music to song 222*
239: 0x0DCE [0x9A] WAIT_MUSIC_SERVER()
240: 0x0DCF [0x27] REQ_SET(priority=0x10, entity_id=Prishe (ID: 16921100/0x0102320C), tag_num=0x12)
241: 0x0DD6 [0x1C] WAIT(30* ticks)
242: 0x0DD9 [0x5B] LOAD_EXT_SCHEDULER: Load scheduler "dr06" with entities [Tenzen (ID: 16921103/0x0102320F), Tenzen (ID: 16921103/0x0102320F)], work=660*
243: 0x0DE8 [0x27] REQ_SET(priority=0x10, entity_id=Unnamed NPC (ID: 16921098/0x0102320A), tag_num=0x03)
244: 0x0DEF [0x2B] ??? (ID: 16921099/0x0102320B) [7705*]:
    → "The voice of the Emptiness is within you..."
245: 0x0DF6 [0x23] WAIT_FOR_DIALOG_INTERACTION
246: 0x0DF7 [0x2A] GET_REQ_LEVEL(level=16, entity_id=Prishe (ID: 16921100/0x0102320C))
247: 0x0DFD [0x52] END_LOAD_SCHEDULER: End scheduler "c044" with entities [LocalPlayer, LocalPlayer], work=178*
248: 0x0E0C [0x45] LOAD_SCHEDULED_TASK: Load scheduler "c045" with entities [LocalPlayer, LocalPlayer], work=[178*, 0*]
249: 0x0E1D [0x27] REQ_SET(priority=0x10, entity_id=Tenzen (ID: 16921103/0x0102320F), tag_num=0x0B)
250: 0x0E24 [0x27] REQ_SET(priority=0x10, entity_id=Prishe (ID: 16921100/0x0102320C), tag_num=0x13)
251: 0x0E2B [0x6C] FADE_ENTITY_COLOR(entity_id=Tenzen (ID: 16921103/0x0102320F), end_alpha=0*, fade_time=1*)
252: 0x0E34 [0x6C] FADE_ENTITY_COLOR(entity_id=Prishe (ID: 16921100/0x0102320C), end_alpha=0*, fade_time=1*)
253: 0x0E3D [0x9F] LOAD_SCHEDULED_TASK_ALT: Load scheduler "main" with entities [Selh'teus (ID: 16921101/0x0102320D), Selh'teus (ID: 16921101/0x0102320D)], work=[124*, 0*]
254: 0x0E4E [0x55] WAIT_LOAD_SCHEDULER: Wait for scheduler "c045" with entities [LocalPlayer, LocalPlayer], work=178*
255: 0x0E5D [0x4A] Prishe (ID: 16921100/0x0102320C) looks at Selh'teus (ID: 16921101/0x0102320D)
256: 0x0E66 [0x2B] Selh'teus (ID: 16921101/0x0102320D) [7706*]:
    → "Any attempt to escape from it is futile."
257: 0x0E6D [0x23] WAIT_FOR_DIALOG_INTERACTION
258: 0x0E6E [0x6C] FADE_ENTITY_COLOR(entity_id=Tenzen (ID: 16921103/0x0102320F), end_alpha=128*, fade_time=1*)
259: 0x0E77 [0x6C] FADE_ENTITY_COLOR(entity_id=Prishe (ID: 16921100/0x0102320C), end_alpha=128*, fade_time=1*)
260: 0x0E80 [0x45] LOAD_SCHEDULED_TASK: Load scheduler "c046" with entities [LocalPlayer, LocalPlayer], work=[178*, 0*]
261: 0x0E91 [0x27] REQ_SET(priority=0x10, entity_id=LocalPlayer, tag_num=0x3F)
262: 0x0E98 [0x2B] Selh'teus (ID: 16921101/0x0102320D) [7707*]:
    → "And yet it seems that some of you still resist."
263: 0x0E9F [0x23] WAIT_FOR_DIALOG_INTERACTION
264: 0x0EA0 [0x2A] GET_REQ_LEVEL(level=16, entity_id=LocalPlayer)
265: 0x0EA6 [0x52] END_LOAD_SCHEDULER: End scheduler "c046" with entities [LocalPlayer, LocalPlayer], work=178*
266: 0x0EB5 [0x45] LOAD_SCHEDULED_TASK: Load scheduler "c054" with entities [LocalPlayer, LocalPlayer], work=[178*, 0*]
267: 0x0EC6 [0x2B] Selh'teus (ID: 16921101/0x0102320D) [7708*]:
    → "But when you stand before the Keeper of the Apocalypse and behold the form of the Twilight God, will you then be able to withstand his call?"
268: 0x0ECD [0x23] WAIT_FOR_DIALOG_INTERACTION
269: 0x0ECE [0x5B] LOAD_EXT_SCHEDULER: Load scheduler "ora0" with entities [Prishe (ID: 16921100/0x0102320C), Prishe (ID: 16921100/0x0102320C)], work=483*
270: 0x0EDD [0x1C] WAIT(15* ticks)
271: 0x0EE0 [0x52] END_LOAD_SCHEDULER: End scheduler "c054" with entities [LocalPlayer, LocalPlayer], work=178*
272: 0x0EEF [0x45] LOAD_SCHEDULED_TASK: Load scheduler "c047" with entities [LocalPlayer, LocalPlayer], work=[178*, 0*]
273: 0x0F00 [0x2B] Prishe (ID: 16921100/0x0102320C) [7709*]:
    → "Are you still droning the same old words, Selh'teus? I told you, we can..."
274: 0x0F07 [0x23] WAIT_FOR_DIALOG_INTERACTION
275: 0x0F08 [0x55] WAIT_LOAD_SCHEDULER: Wait for scheduler "c047" with entities [LocalPlayer, LocalPlayer], work=178*
276: 0x0F17 [0x5C] MUSIC_CONTROL: Set Idle (Day) music to song 220*
277: 0x0F1B [0x5C] MUSIC_CONTROL: Set Idle (Night) music to song 220*
278: 0x0F1F [0x9A] WAIT_MUSIC_SERVER()
279: 0x0F20 [0x9F] LOAD_SCHEDULED_TASK_ALT: Load scheduler "str0" with entities [EventEntity, EventEntity], work=[127*, 0*]
280: 0x0F31 [0x45] LOAD_SCHEDULED_TASK: Load scheduler "c048" with entities [LocalPlayer, LocalPlayer], work=[178*, 0*]
281: 0x0F42 [0x1C] WAIT(30* ticks)
282: 0x0F45 [0x5B] LOAD_EXT_SCHEDULER: Load scheduler "oa00" with entities [Selh'teus (ID: 16921101/0x0102320D), Selh'teus (ID: 16921101/0x0102320D)], work=731*
283: 0x0F54 [0x1C] WAIT(15* ticks)
284: 0x0F57 [0x27] REQ_SET(priority=0x10, entity_id=Unnamed NPC (ID: 16921098/0x0102320A), tag_num=0x02)
285: 0x0F5E [0x55] WAIT_LOAD_SCHEDULER: Wait for scheduler "c048" with entities [LocalPlayer, LocalPlayer], work=178*
286: 0x0F6D [0x5B] LOAD_EXT_SCHEDULER: Load scheduler "ora1" with entities [Prishe (ID: 16921100/0x0102320C), Prishe (ID: 16921100/0x0102320C)], work=483*
287: 0x0F7C [0x2B] Prishe (ID: 16921100/0x0102320C) [7710*]:
    → "Now what!?"
288: 0x0F83 [0x23] WAIT_FOR_DIALOG_INTERACTION
289: 0x0F84 [0x45] LOAD_SCHEDULED_TASK: Load scheduler "c049" with entities [LocalPlayer, LocalPlayer], work=[178*, 0*]
290: 0x0F95 [0x1C] WAIT(45* ticks)
291: 0x0F98 [0x2B] Selh'teus (ID: 16921101/0x0102320D) [7711*]:
    → "It can't be!"
292: 0x0F9F [0x23] WAIT_FOR_DIALOG_INTERACTION
293: 0x0FA0 [0x52] END_LOAD_SCHEDULER: End scheduler "c049" with entities [LocalPlayer, LocalPlayer], work=178*
294: 0x0FAF [0x45] LOAD_SCHEDULED_TASK: Load scheduler "c050" with entities [LocalPlayer, LocalPlayer], work=[178*, 0*]
295: 0x0FC0 [0x1C] WAIT(15* ticks)
296: 0x0FC3 [0x5B] LOAD_EXT_SCHEDULER: Load scheduler "oa01" with entities [Selh'teus (ID: 16921101/0x0102320D), Selh'teus (ID: 16921101/0x0102320D)], work=731*
297: 0x0FD2 [0x55] WAIT_LOAD_SCHEDULER: Wait for scheduler "c050" with entities [LocalPlayer, LocalPlayer], work=178*
298: 0x0FE1 [0x45] LOAD_SCHEDULED_TASK: Load scheduler "c051" with entities [LocalPlayer, LocalPlayer], work=[178*, 0*]
299: 0x0FF2 [0x27] REQ_SET(priority=0x10, entity_id=Unnamed NPC (ID: 16921098/0x0102320A), tag_num=0x04)
300: 0x0FF9 [0x1C] WAIT(90* ticks)
301: 0x0FFC [0x1A] CALL_SUBROUTINE(address=0x2F47)
302: 0x0FFF [0x1C] WAIT(15* ticks)
303: 0x1002 [0x7B] Prishe (ID: 16921100/0x0102320C) stops talking
304: 0x1007 [0x6C] FADE_ENTITY_COLOR(entity_id=Selh'teus (ID: 16921101/0x0102320D), end_alpha=0*, fade_time=1*)
305: 0x1010 [0x5B] LOAD_EXT_SCHEDULER: Load scheduler "as00" with entities [Prishe (ID: 16921100/0x0102320C), Prishe (ID: 16921100/0x0102320C)], work=613*
306: 0x101F [0x29] REQ_SET_WAIT(priority=0x10, entity_id=LocalPlayer, tag_num=0x40)
307: 0x1026 [0x52] END_LOAD_SCHEDULER: End scheduler "c051" with entities [LocalPlayer, LocalPlayer], work=178*
308: 0x1035 [0x1C] WAIT(15* ticks)
309: 0x1038 [0x45] LOAD_SCHEDULED_TASK: Load scheduler "0blf" with entities [LocalPlayer, LocalPlayer], work=[178*, 0*]
310: 0x1049 [0x45] LOAD_SCHEDULED_TASK: Load scheduler "c052" with entities [LocalPlayer, LocalPlayer], work=[178*, 0*]
311: 0x105A [0x1A] CALL_SUBROUTINE(address=0x2F26)
312: 0x105D [0x55] WAIT_LOAD_SCHEDULER: Wait for scheduler "c052" with entities [LocalPlayer, LocalPlayer], work=178*
313: 0x106C [0x79] LocalPlayer looks at Prishe (ID: 16921100/0x0102320C) (Basic look)
314: 0x1076 [0x2B] Prishe (ID: 16921100/0x0102320C) [7712*]:
    → "<Player>, can you handle this? Think of it as a warmup for the main event!"
315: 0x107D [0x23] WAIT_FOR_DIALOG_INTERACTION
316: 0x107E [0x45] LOAD_SCHEDULED_TASK: Load scheduler "c053" with entities [LocalPlayer, LocalPlayer], work=[178*, 0*]
317: 0x108F [0x27] REQ_SET(priority=0x10, entity_id=LocalPlayer, tag_num=0x41)
318: 0x1096 [0x1C] WAIT(15* ticks)
319: 0x1099 [0x27] REQ_SET(priority=0x10, entity_id=Prishe (ID: 16921100/0x0102320C), tag_num=0x14)
320: 0x10A0 [0x1C] WAIT(30* ticks)
321: 0x10A3 [0x1A] CALL_SUBROUTINE(address=0x2F05)
322: 0x10A6 [0x1C] WAIT(30* ticks)
323: 0x10A9 [0x2A] GET_REQ_LEVEL(level=16, entity_id=LocalPlayer)
324: 0x10AF [0x45] LOAD_SCHEDULED_TASK: Load scheduler "k006" with entities [LocalPlayer, LocalPlayer], work=[178*, 0*]
325: 0x10C0 [0x52] END_LOAD_SCHEDULER: End scheduler "c053" with entities [LocalPlayer, LocalPlayer], work=178*
326: 0x10CF [0x9F] LOAD_SCHEDULED_TASK_ALT: Load scheduler "kill" with entities [EventEntity, EventEntity], work=[127*, 0*]
327: 0x10E0 [0x29] REQ_SET_WAIT(priority=0x10, entity_id=Particle Gate (ID: 16921039/0x010231CF), tag_num=0x05)
328: 0x10E7 [0x5C] MUSIC_CONTROL: Set Idle (Day) music to song 228*
329: 0x10EB [0x5C] MUSIC_CONTROL: Set Idle (Night) music to song 228*
330: 0x10EF [0x5C] MUSIC_CONTROL: Set Combat (Solo) music to song 115*
331: 0x10F3 [0x5C] MUSIC_CONTROL: Set Combat (Party) music to song 218*
332: 0x10F7 [0x9A] WAIT_MUSIC_SERVER()
333: 0x10F8 [0x46] CAMERA_CONTROL: Restore default settings
334: 0x10FA [0x45] LOAD_SCHEDULED_TASK: Load scheduler "0blf" with entities [LocalPlayer, LocalPlayer], work=[178*, 0*]
335: 0x110B [0x45] LOAD_SCHEDULED_TASK: Load scheduler "fdi2" with entities [LocalPlayer, LocalPlayer], work=[200*, 0*]
336: 0x111C [0x21] END_EVENT
337: 0x111D [0x00] END_REQSTACK()
```

### Event 204

#### Metadata

| Field        | Value      |
|--------------|------------|
| Entrypoint   | 0x111E     |
| Data Size    | 7448 bytes |
| Instructions | 899        |

```
      00 01 02 03 04 05 06 07  08 09 0A 0B 0C 0D 0E 0F
      -- -- -- -- -- -- -- --  -- -- -- -- -- -- -- --
1110:                                            42 1A                B.
1120: 05 2F 46 01 38 00 80 1C  0C 80 79 00 F0 FF FF 7F  ./F.8.....y.....
1130: F0 FF FF 7F 5C 00 11 80  5C 01 11 80 9A 6A 5D 80  ....\...\....j].
1140: 3A 80 0C 80 29 10 F0 FF  FF 7F 50 80 F0 FF FF 7F  :...).....P.....
1150: 45 5E 80 F0 FF FF 7F F0  FF FF 7F 6F 75 30 30 04  E^.........ou00.
1160: 80 1C 0C 80 1A E4 2E 2D  F8 FF FF 7F F8 FF FF 7F  .......-........
1170: 73 31 35 31 2D F8 FF FF  7F F8 FF FF 7F 6C 73 74  s151-........lst
1180: 34 1C 1F 80 2D F8 FF FF  7F F8 FF FF 7F 6C 73 74  4...-........lst
1190: 36 1C 1F 80 2D F8 FF FF  7F F8 FF FF 7F 6C 73 74  6...-........lst
11A0: 35 1C 06 80 2D F8 FF FF  7F F8 FF FF 7F 65 6E 64  5...-........end
11B0: 71 29 10 CE 31 02 01 04  1C 1F 80 27 10 F0 FF FF  q)..1......'....
11C0: 7F 51 1C 19 80 1A 05 2F  1C 0C 80 45 5F 80 F0 FF  .Q...../...E_...
11D0: FF 7F F0 FF FF 7F 77 68  69 31 04 80 52 5E 80 F0  ......whi1..R^..
11E0: FF FF 7F F0 FF FF 7F 6F  75 30 30 2A 10 F0 FF FF  .......ou00*....
11F0: 7F 29 10 CE 31 02 01 05  1C 0C 80 34 60 80 77 16  .)..1......4`.w.
1200: 80 0D 80 1C 01 80 AB 09  06 01 00 1A 8F 27 1C 01  .............'..
1210: 80 5B 61 80 13 32 02 01  13 32 02 01 6F 61 30 30  .[a..2...2..oa00
1220: 5B 62 80 20 32 02 01 20  32 02 01 70 72 30 31 9F  [b. 2.. 2..pr01.
1230: 63 80 23 32 02 01 23 32  02 01 00 FE FE FE 04 80  c.#2..#2........
1240: 9F 64 80 24 32 02 01 24  32 02 01 00 FE FE FE 04  .d.$2..$2.......
1250: 80 9F 65 80 25 32 02 01  25 32 02 01 00 FE FE FE  ..e.%2..%2......
1260: 04 80 9F 66 80 26 32 02  01 26 32 02 01 00 FE FE  ...f.&2..&2.....
1270: FE 04 80 9F 2D 80 27 32  02 01 27 32 02 01 00 FE  ....-.'2..'2....
1280: FE FE 04 80 9F 67 80 28  32 02 01 28 32 02 01 00  .....g.(2..(2...
1290: FE FE FE 04 80 9F 68 80  29 32 02 01 29 32 02 01  ......h.)2..)2..
12A0: 00 FE FE FE 04 80 9F 69  80 13 32 02 01 1F 32 02  .......i..2...2.
12B0: 01 00 FE FE FE 04 80 9F  6A 80 13 32 02 01 13 32  ........j..2...2
12C0: 02 01 00 FE FE FE 04 80  9F 6A 80 13 32 02 01 13  .........j..2...
12D0: 32 02 01 00 FE FE FE 04  80 9F 6B 80 20 32 02 01  2.........k. 2..
12E0: 20 32 02 01 6B 69 6C 30  04 80 9F 6B 80 20 32 02   2..kil0...k. 2.
12F0: 01 20 32 02 01 6B 69 6C  31 04 80 27 10 0C 32 02  . 2..kil1..'..2.
1300: 01 16 27 10 0F 32 02 01  0D 27 10 F0 FF FF 7F 48  ..'..2...'.....H
1310: 1C 6C 80 45 5E 80 F0 FF  FF 7F F0 FF FF 7F 70 30  .l.E^.........p0
1320: 30 30 04 80 1A E4 2E 1C  1F 80 5D 04 80 6D 80 1A  00........]..m..
1330: 47 2F 1C 0C 80 2A 10 0C  32 02 01 2A 10 0F 32 02  G/...*..2..*..2.
1340: 01 2A 10 F0 FF FF 7F 1A  05 2F 1A 26 2F 52 5E 80  .*......./.&/R^.
1350: F0 FF FF 7F F0 FF FF 7F  70 30 30 30 1C 0C 80 45  ........p000...E
1360: 5E 80 F0 FF FF 7F F0 FF  FF 7F 30 62 6C 66 04 80  ^.........0blf..
1370: 29 10 0C 32 02 01 17 29  10 0F 32 02 01 0E 29 10  )..2...)..2...).
1380: F0 FF FF 7F 49 45 5E 80  F0 FF FF 7F F0 FF FF 7F  ....IE^.........
1390: 70 30 30 31 04 80 1C 0C  80 1A E4 2E 1C 1F 80 79  p001...........y
13A0: 00 0C 32 02 01 0D 32 02  01 55 5E 80 F0 FF FF 7F  ..2...2..U^.....
13B0: F0 FF FF 7F 70 30 30 31  2B 0D 32 02 01 6E 80 23  ....p001+.2..n.#
13C0: 45 5E 80 F0 FF FF 7F F0  FF FF 7F 70 30 30 34 04  E^.........p004.
13D0: 80 1C 01 80 7B 0C 32 02  01 27 10 0C 32 02 01 18  ....{.2..'..2...
13E0: 1C 0C 80 27 10 F0 FF FF  7F 4A 5B 6F 80 0F 32 02  ...'.....J[o..2.
13F0: 01 0F 32 02 01 63 79 30  32 2A 10 0C 32 02 01 5B  ..2..cy02*..2..[
1400: 70 80 0C 32 02 01 0C 32  02 01 63 34 30 38 2B 0C  p..2...2..c408+.
1410: 32 02 01 71 80 23 52 5E  80 F0 FF FF 7F F0 FF FF  2..q.#R^........
1420: 7F 70 30 30 34 45 5E 80  F0 FF FF 7F F0 FF FF 7F  .p004E^.........
1430: 70 30 30 35 04 80 55 5E  80 F0 FF FF 7F F0 FF FF  p005..U^........
1440: 7F 70 30 30 35 5C 00 72  80 5C 01 72 80 9A 45 5E  .p005\.r.\.r..E^
1450: 80 F0 FF FF 7F F0 FF FF  7F 70 30 30 36 04 80 1C  .........p006...
1460: 0C 80 5B 70 80 0C 32 02  01 0C 32 02 01 63 34 30  ..[p..2...2..c40
1470: 39 55 5E 80 F0 FF FF 7F  F0 FF FF 7F 70 30 30 36  9U^.........p006
1480: 45 5E 80 F0 FF FF 7F F0  FF FF 7F 70 30 30 37 04  E^.........p007.
1490: 80 5B 73 80 0C 32 02 01  0C 32 02 01 6F 61 30 31  .[s..2...2..oa01
14A0: 55 5E 80 F0 FF FF 7F F0  FF FF 7F 70 30 30 37 45  U^.........p007E
14B0: 5E 80 F0 FF FF 7F F0 FF  FF 7F 70 30 30 39 04 80  ^.........p009..
14C0: 2B 0C 32 02 01 74 80 23  52 5E 80 F0 FF FF 7F F0  +.2..t.#R^......
14D0: FF FF 7F 70 30 30 39 45  5E 80 F0 FF FF 7F F0 FF  ...p009E^.......
14E0: FF 7F 70 30 31 30 04 80  5B 61 80 13 32 02 01 13  ..p010..[a..2...
14F0: 32 02 01 6F 61 30 31 1C  01 80 2B 13 32 02 01 75  2..oa01...+.2..u
1500: 80 23 5B 32 80 0F 32 02  01 0F 32 02 01 6B 72 6C  .#[2..2...2..krl
1510: 30 52 5E 80 F0 FF FF 7F  F0 FF FF 7F 70 30 31 30  0R^.........p010
1520: 45 5E 80 F0 FF FF 7F F0  FF FF 7F 70 30 31 31 04  E^.........p011.
1530: 80 2B 13 32 02 01 76 80  23 52 5E 80 F0 FF FF 7F  .+.2..v.#R^.....
1540: F0 FF FF 7F 70 30 31 31  45 5E 80 F0 FF FF 7F F0  ....p011E^......
1550: FF FF 7F 70 30 31 32 04  80 1C 01 80 2B 0F 32 02  ...p012.....+.2.
1560: 01 77 80 23 52 5E 80 F0  FF FF 7F F0 FF FF 7F 70  .w.#R^.........p
1570: 30 31 32 45 5E 80 F0 FF  FF 7F F0 FF FF 7F 70 30  012E^.........p0
1580: 31 33 04 80 2B 0C 32 02  01 78 80 23 52 5E 80 F0  13..+.2..x.#R^..
1590: FF FF 7F F0 FF FF 7F 70  30 31 33 45 5E 80 F0 FF  .......p013E^...
15A0: FF 7F F0 FF FF 7F 70 30  31 34 04 80 79 00 F0 FF  ......p014..y...
15B0: FF 7F 0C 32 02 01 2B 0C  32 02 01 79 80 23 7B F0  ...2..+.2..y.#{.
15C0: FF FF 7F 1A 05 2F 1C 01  80 27 10 F0 FF FF 7F 4B  ...../...'.....K
15D0: 27 10 0C 32 02 01 19 52  5E 80 F0 FF FF 7F F0 FF  '..2...R^.......
15E0: FF 7F 70 30 31 34 45 5E  80 F0 FF FF 7F F0 FF FF  ..p014E^........
15F0: 7F 70 30 31 35 04 80 1C  0C 80 1A E4 2E 2A 10 F0  .p015........*..
1600: FF FF 7F 52 5E 80 F0 FF  FF 7F F0 FF FF 7F 70 30  ...R^.........p0
1610: 31 35 45 5E 80 F0 FF FF  7F F0 FF FF 7F 70 30 31  15E^.........p01
1620: 36 04 80 5B 61 80 13 32  02 01 13 32 02 01 6F 61  6..[a..2...2..oa
1630: 30 32 1C 40 80 2B 13 32  02 01 7A 80 23 52 5E 80  02.@.+.2..z.#R^.
1640: F0 FF FF 7F F0 FF FF 7F  70 30 31 36 45 5E 80 F0  ........p016E^..
1650: FF FF 7F F0 FF FF 7F 70  30 33 34 04 80 5B 4B 80  .......p034..[K.
1660: 0C 32 02 01 0C 32 02 01  63 35 31 35 2B 13 32 02  .2...2..c515+.2.
1670: 01 7B 80 23 52 5E 80 F0  FF FF 7F F0 FF FF 7F 70  .{.#R^.........p
1680: 30 33 34 45 5E 80 F0 FF  FF 7F F0 FF FF 7F 70 30  034E^.........p0
1690: 31 37 04 80 2B 13 32 02  01 7C 80 23 52 5E 80 F0  17..+.2..|.#R^..
16A0: FF FF 7F F0 FF FF 7F 70  30 31 37 45 5E 80 F0 FF  .......p017E^...
16B0: FF 7F F0 FF FF 7F 70 30  31 38 04 80 2B 13 32 02  ......p018..+.2.
16C0: 01 7D 80 23 52 5E 80 F0  FF FF 7F F0 FF FF 7F 70  .}.#R^.........p
16D0: 30 31 38 45 5E 80 F0 FF  FF 7F F0 FF FF 7F 70 30  018E^.........p0
16E0: 32 31 04 80 5B 61 80 13  32 02 01 13 32 02 01 6F  21..[a..2...2..o
16F0: 61 30 33 2B 13 32 02 01  7E 80 23 2B 13 32 02 01  a03+.2..~.#+.2..
1700: 7F 80 23 52 5E 80 F0 FF  FF 7F F0 FF FF 7F 70 30  ..#R^.........p0
1710: 32 31 45 5E 80 F0 FF FF  7F F0 FF FF 7F 70 30 32  21E^.........p02
1720: 32 04 80 5D 04 80 27 80  24 80 80 04 80 04 80 25  2..]..'.$......%
1730: 02 00 10 04 80 00 63 17  52 5E 80 F0 FF FF 7F F0  ......c.R^......
1740: FF FF 7F 70 30 32 32 45  5E 80 F0 FF FF 7F F0 FF  ...p022E^.......
1750: FF 7F 70 30 32 33 04 80  2B 13 32 02 01 81 80 23  ..p023..+.2....#
1760: 01 96 17 02 00 10 0D 80  00 96 17 52 5E 80 F0 FF  ...........R^...
1770: FF 7F F0 FF FF 7F 70 30  32 32 45 5E 80 F0 FF FF  ......p022E^....
1780: 7F F0 FF FF 7F 70 30 32  33 04 80 2B 13 32 02 01  .....p023..+.2..
1790: 82 80 23 01 96 17 52 5E  80 F0 FF FF 7F F0 FF FF  ..#...R^........
17A0: 7F 70 30 32 33 45 5E 80  F0 FF FF 7F F0 FF FF 7F  .p023E^.........
17B0: 70 30 32 38 04 80 2B 13  32 02 01 83 80 23 52 5E  p028..+.2....#R^
17C0: 80 F0 FF FF 7F F0 FF FF  7F 70 30 32 38 45 5E 80  .........p028E^.
17D0: F0 FF FF 7F F0 FF FF 7F  70 72 33 38 04 80 5B 61  ........pr38..[a
17E0: 80 13 32 02 01 13 32 02  01 6F 61 30 34 2B 13 32  ..2...2..oa04+.2
17F0: 02 01 84 80 23 53 13 32  02 01 13 32 02 01 6F 61  ....#S.2...2..oa
1800: 30 34 1C 01 80 52 5E 80  F0 FF FF 7F F0 FF FF 7F  04...R^.........
1810: 70 72 33 38 45 5E 80 F0  FF FF 7F F0 FF FF 7F 70  pr38E^.........p
1820: 30 32 35 04 80 5B 61 80  13 32 02 01 13 32 02 01  025..[a..2...2..
1830: 6F 61 30 35 2B 13 32 02  01 85 80 23 53 13 32 02  oa05+.2....#S.2.
1840: 01 13 32 02 01 6F 61 30  35 52 5E 80 F0 FF FF 7F  ..2..oa05R^.....
1850: F0 FF FF 7F 70 30 32 35  45 5E 80 F0 FF FF 7F F0  ....p025E^......
1860: FF FF 7F 70 30 32 37 04  80 5B 61 80 13 32 02 01  ...p027..[a..2..
1870: 13 32 02 01 6F 61 30 36  1C 01 80 2B 13 32 02 01  .2..oa06...+.2..
1880: 86 80 23 53 13 32 02 01  13 32 02 01 6F 61 30 36  ..#S.2...2..oa06
1890: 52 5E 80 F0 FF FF 7F F0  FF FF 7F 70 30 32 37 45  R^.........p027E
18A0: 5E 80 F0 FF FF 7F F0 FF  FF 7F 70 30 32 39 04 80  ^.........p029..
18B0: 5B 61 80 13 32 02 01 13  32 02 01 6F 61 30 37 1C  [a..2...2..oa07.
18C0: 3A 80 1A 58 30 52 5E 80  F0 FF FF 7F F0 FF FF 7F  :..X0R^.........
18D0: 70 30 32 39 27 10 1F 32  02 01 09 27 10 13 32 02  p029'..2...'..2.
18E0: 01 0C 5B 87 80 0D 32 02  01 0D 32 02 01 6F 62 30  ..[...2...2..ob0
18F0: 30 45 5E 80 F0 FF FF 7F  F0 FF FF 7F 70 30 33 31  0E^.........p031
1900: 04 80 1A 37 30 2B 0D 32  02 01 88 80 55 5E 80 F0  ...70+.2....U^..
1910: FF FF 7F F0 FF FF 7F 70  30 33 31 5B 89 80 13 32  .......p031[...2
1920: 02 01 13 32 02 01 6F 62  30 30 45 5E 80 F0 FF FF  ...2..ob00E^....
1930: 7F F0 FF FF 7F 70 30 33  32 04 80 1C 6C 80 9F 69  .....p032...l..i
1940: 80 13 32 02 01 1F 32 02  01 6D 61 69 6E 04 80 55  ..2...2..main..U
1950: 5E 80 F0 FF FF 7F F0 FF  FF 7F 70 30 33 32 5C 00  ^.........p032\.
1960: 8A 80 5C 01 8A 80 9A 45  5E 80 F0 FF FF 7F F0 FF  ..\....E^.......
1970: FF 7F 70 6D 30 30 04 80  27 10 13 32 02 01 0D 5B  ..pm00..'..2...[
1980: 8B 80 28 32 02 01 28 32  02 01 61 30 30 30 5B 8C  ..(2..(2..a000[.
1990: 80 29 32 02 01 29 32 02  01 62 30 30 30 1C 8D 80  .)2..)2..b000...
19A0: 27 10 0A 32 02 01 09 5B  8E 80 23 32 02 01 23 32  '..2...[..#2..#2
19B0: 02 01 6B 72 30 30 5B 8F  80 24 32 02 01 24 32 02  ..kr00[..$2..$2.
19C0: 01 61 6B 30 30 5B 90 80  25 32 02 01 25 32 02 01  .ak00[..%2..%2..
19D0: 61 6F 30 30 5B 91 80 26  32 02 01 26 32 02 01 63  ao00[..&2..&2..c
19E0: 68 30 30 5B 92 80 27 32  02 01 27 32 02 01 6D 64  h00[..'2..'2..md
19F0: 30 30 9F 63 80 23 32 02  01 23 32 02 01 63 61 73  00.c.#2..#2..cas
1A00: 30 04 80 9F 64 80 24 32  02 01 24 32 02 01 63 61  0...d.$2..$2..ca
1A10: 73 31 04 80 9F 65 80 25  32 02 01 25 32 02 01 63  s1...e.%2..%2..c
1A20: 61 73 32 04 80 9F 66 80  26 32 02 01 26 32 02 01  as2...f.&2..&2..
1A30: 63 61 73 33 04 80 9F 2D  80 27 32 02 01 27 32 02  cas3...-.'2..'2.
1A40: 01 63 61 73 34 04 80 9F  67 80 28 32 02 01 28 32  .cas4...g.(2..(2
1A50: 02 01 63 61 73 35 04 80  9F 68 80 29 32 02 01 29  ..cas5...h.)2..)
1A60: 32 02 01 63 61 73 36 04  80 2A 10 0A 32 02 01 1C  2..cas6..*..2...
1A70: 1F 80 27 10 20 32 02 01  0A 9F 93 80 21 32 02 01  ..'. 2......!2..
1A80: 21 32 02 01 62 72 61 30  04 80 45 5E 80 F0 FF FF  !2..bra0..E^....
1A90: 7F F0 FF FF 7F 36 31 30  37 04 80 1C 94 80 27 10  .....6107.....'.
1AA0: 23 32 02 01 0A 27 10 24  32 02 01 0A 27 10 25 32  #2...'.$2...'.%2
1AB0: 02 01 0A 27 10 26 32 02  01 0A 27 10 27 32 02 01  ...'.&2...'.'2..
1AC0: 0A 27 10 28 32 02 01 0A  27 10 29 32 02 01 0A 27  .'.(2...'.)2...'
1AD0: 10 0B 32 02 01 03 52 5E  80 F0 FF FF 7F F0 FF FF  ..2...R^........
1AE0: 7F 70 6D 30 35 45 5E 80  F0 FF FF 7F F0 FF FF 7F  .pm05E^.........
1AF0: 70 6D 31 31 04 80 1C 95  80 52 5E 80 F0 FF FF 7F  pm11.....R^.....
1B00: F0 FF FF 7F 70 6D 31 31  45 5E 80 F0 FF FF 7F F0  ....pm11E^......
1B10: FF FF 7F 70 6D 31 32 04  80 1C 06 80 9F 96 80 22  ...pm12........"
1B20: 32 02 01 22 32 02 01 6B  69 6C 6C 04 80 1C 1F 80  2.."2..kill.....
1B30: 1A 47 2F 1C 01 80 52 5E  80 F0 FF FF 7F F0 FF FF  .G/...R^........
1B40: 7F 70 6D 31 32 9F 6B 80  20 32 02 01 20 32 02 01  .pm12.k. 2.. 2..
1B50: 73 74 72 30 04 80 9F 6B  80 20 32 02 01 20 32 02  str0...k. 2.. 2.
1B60: 01 73 74 72 31 04 80 5B  62 80 20 32 02 01 20 32  .str1..[b. 2.. 2
1B70: 02 01 70 72 30 31 29 10  20 32 02 01 09 29 10 21  ..pr01). 2...).!
1B80: 32 02 01 0A 6C 20 32 02  01 10 80 0D 80 5C 00 97  2...l 2......\..
1B90: 80 5C 01 97 80 9A 1C 0C  80 45 5E 80 F0 FF FF 7F  .\.......E^.....
1BA0: F0 FF FF 7F 30 62 6C 66  04 80 27 10 0B 32 02 01  ....0blf..'..2..
1BB0: 02 5B 62 80 20 32 02 01  20 32 02 01 70 72 30 32  .[b. 2.. 2..pr02
1BC0: 1C 01 80 27 10 0A 32 02  01 0B 1A 26 2F 53 20 32  ...'..2....&/S 2
1BD0: 02 01 20 32 02 01 70 72  30 32 2A 10 0A 32 02 01  .. 2..pr02*..2..
1BE0: 45 5E 80 F0 FF FF 7F F0  FF FF 7F 70 33 30 37 04  E^.........p307.
1BF0: 80 55 5E 80 F0 FF FF 7F  F0 FF FF 7F 70 33 30 37  .U^.........p307
1C00: 45 5E 80 F0 FF FF 7F F0  FF FF 7F 70 72 30 32 04  E^.........pr02.
1C10: 80 5B 98 80 20 32 02 01  20 32 02 01 70 72 30 33  .[.. 2.. 2..pr03
1C20: 9F 99 80 20 32 02 01 20  32 02 01 73 74 72 30 04  ... 2.. 2..str0.
1C30: 80 53 20 32 02 01 20 32  02 01 70 72 30 33 55 5E  .S 2.. 2..pr03U^
1C40: 80 F0 FF FF 7F F0 FF FF  7F 70 72 30 32 5C 00 72  .........pr02\.r
1C50: 80 5C 01 72 80 9A 45 5E  80 F0 FF FF 7F F0 FF FF  .\.r..E^........
1C60: 7F 70 72 30 35 04 80 2B  0C 32 02 01 9A 80 1C 01  .pr05..+.2......
1C70: 80 27 10 0C 32 02 01 1A  1C 0C 80 29 10 F0 FF FF  .'..2......)....
1C80: 7F 4C 1C 0C 80 52 5E 80  F0 FF FF 7F F0 FF FF 7F  .L...R^.........
1C90: 70 72 30 35 45 5E 80 F0  FF FF 7F F0 FF FF 7F 70  pr05E^.........p
1CA0: 72 30 37 04 80 5B 98 80  20 32 02 01 20 32 02 01  r07..[.. 2.. 2..
1CB0: 70 72 30 34 53 20 32 02  01 20 32 02 01 70 72 30  pr04S 2.. 2..pr0
1CC0: 34 55 5E 80 F0 FF FF 7F  F0 FF FF 7F 70 72 30 37  4U^.........pr07
1CD0: 45 5E 80 F0 FF FF 7F F0  FF FF 7F 70 33 30 38 04  E^.........p308.
1CE0: 80 55 5E 80 F0 FF FF 7F  F0 FF FF 7F 70 33 30 38  .U^.........p308
1CF0: 45 5E 80 F0 FF FF 7F F0  FF FF 7F 70 34 31 31 04  E^.........p411.
1D00: 80 5B 89 80 13 32 02 01  13 32 02 01 6F 62 30 32  .[...2...2..ob02
1D10: 9F 6A 80 13 32 02 01 13  32 02 01 73 74 72 30 04  .j..2...2..str0.
1D20: 80 53 13 32 02 01 13 32  02 01 6F 62 30 32 1C 01  .S.2...2..ob02..
1D30: 80 6C 13 32 02 01 04 80  0D 80 6B 69 64 6C 30 0C  .l.2......kidl0.
1D40: 32 02 01 4B 0C 32 02 01  9B 80 52 5E 80 F0 FF FF  2..K.2....R^....
1D50: 7F F0 FF FF 7F 70 34 31  31 45 5E 80 F0 FF FF 7F  .....p411E^.....
1D60: F0 FF FF 7F 70 72 30 34  04 80 2B 0F 32 02 01 9C  ....pr04..+.2...
1D70: 80 23 52 5E 80 F0 FF FF  7F F0 FF FF 7F 70 72 30  .#R^.........pr0
1D80: 34 45 5E 80 F0 FF FF 7F  F0 FF FF 7F 70 72 30 36  4E^.........pr06
1D90: 04 80 27 10 0C 32 02 01  1B 27 10 F0 FF FF 7F 4D  ..'..2...'.....M
1DA0: 9F 6A 80 13 32 02 01 13  32 02 01 6B 69 6C 6C 04  .j..2...2..kill.
1DB0: 80 55 5E 80 F0 FF FF 7F  F0 FF FF 7F 70 72 30 36  .U^.........pr06
1DC0: 45 5E 80 F0 FF FF 7F F0  FF FF 7F 70 72 31 30 04  E^.........pr10.
1DD0: 80 9F 9D 80 13 32 02 01  13 32 02 01 73 74 72 30  .....2...2..str0
1DE0: 04 80 55 5E 80 F0 FF FF  7F F0 FF FF 7F 70 72 31  ..U^.........pr1
1DF0: 30 45 5E 80 F0 FF FF 7F  F0 FF FF 7F 70 72 31 31  0E^.........pr11
1E00: 04 80 55 5E 80 F0 FF FF  7F F0 FF FF 7F 70 72 31  ..U^.........pr1
1E10: 31 45 5E 80 F0 FF FF 7F  F0 FF FF 7F 70 72 31 32  1E^.........pr12
1E20: 04 80 9F 9D 80 13 32 02  01 13 32 02 01 6B 69 6C  ......2...2..kil
1E30: 6C 04 80 1C 6C 80 9F 9D  80 13 32 02 01 20 32 02  l...l.....2.. 2.
1E40: 01 73 74 72 32 04 80 55  5E 80 F0 FF FF 7F F0 FF  .str2..U^.......
1E50: FF 7F 70 72 31 32 5B 73  80 0C 32 02 01 0C 32 02  ..pr12[s..2...2.
1E60: 01 6F 61 30 30 1C 19 80  45 5E 80 F0 FF FF 7F F0  .oa00...E^......
1E70: FF FF 7F 70 72 31 34 04  80 5D 04 80 06 80 5B 9E  ...pr14..]....[.
1E80: 80 20 32 02 01 20 32 02  01 70 72 30 35 1C 9F 80  . 2.. 2..pr05...
1E90: 52 5E 80 F0 FF FF 7F F0  FF FF 7F 70 72 31 34 45  R^.........pr14E
1EA0: 5E 80 F0 FF FF 7F F0 FF  FF 7F 70 72 31 35 04 80  ^.........pr15..
1EB0: 55 5E 80 F0 FF FF 7F F0  FF FF 7F 70 72 31 35 45  U^.........pr15E
1EC0: 5E 80 F0 FF FF 7F F0 FF  FF 7F 70 72 31 36 04 80  ^.........pr16..
1ED0: 53 20 32 02 01 20 32 02  01 70 72 30 35 52 5E 80  S 2.. 2..pr05R^.
1EE0: F0 FF FF 7F F0 FF FF 7F  70 72 31 36 45 5E 80 F0  ........pr16E^..
1EF0: FF FF 7F F0 FF FF 7F 70  72 31 37 04 80 5B A0 80  .......pr17..[..
1F00: 20 32 02 01 20 32 02 01  70 72 30 36 9F 02 80 F8   2.. 2..pr06....
1F10: FF FF 7F F8 FF FF 7F 73  74 72 30 04 80 1C 01 80  .......str0.....
1F20: 2B 13 32 02 01 A1 80 1C  3A 80 2B 13 32 02 01 A2  +.2.....:.+.2...
1F30: 80 1C 6D 80 2B 13 32 02  01 A3 80 1C 6D 80 52 5E  ..m.+.2.....m.R^
1F40: 80 F0 FF FF 7F F0 FF FF  7F 70 72 31 37 45 5E 80  .........pr17E^.
1F50: F0 FF FF 7F F0 FF FF 7F  70 72 32 30 04 80 27 10  ........pr20..'.
1F60: 0A 32 02 01 08 2B 13 32  02 01 A4 80 23 2A 10 0A  .2...+.2....#*..
1F70: 32 02 01 1A 47 2F 45 5E  80 F0 FF FF 7F F0 FF FF  2...G/E^........
1F80: 7F 6B 36 30 30 04 80 9F  02 80 F8 FF FF 7F F8 FF  .k600...........
1F90: FF 7F 6B 69 6C 6C 04 80  45 5E 80 F0 FF FF 7F F0  ..kill..E^......
1FA0: FF FF 7F 30 62 6C 66 04  80 1C 0C 80 52 5E 80 F0  ...0blf.....R^..
1FB0: FF FF 7F F0 FF FF 7F 70  72 32 30 34 2B 80 77 16  .......pr204+.w.
1FC0: 80 0D 80 1C 01 80 1A 6C  2B 1A F4 2D 1C 0C 80 27  .......l+..-...'
1FD0: 10 0A 32 02 01 07 5B 2E  80 0E 32 02 01 0E 32 02  ..2...[...2...2.
1FE0: 01 6D 67 61 6C 5B 2F 80  11 32 02 01 11 32 02 01  .mgal[/..2...2..
1FF0: 6D 67 61 6C 5B 30 80 10  32 02 01 10 32 02 01 6D  mgal[0..2...2..m
2000: 67 61 6C 5B 31 80 12 32  02 01 12 32 02 01 6D 67  gal[1..2...2..mg
2010: 61 6C 1C 0C 80 45 5E 80  F0 FF FF 7F F0 FF FF 7F  al...E^.........
2020: 70 6A 30 30 04 80 1A 26  2F 2B 13 32 02 01 A5 80  pj00...&/+.2....
2030: 1C 0C 80 55 5E 80 F0 FF  FF 7F F0 FF FF 7F 70 6A  ...U^.........pj
2040: 30 30 45 5E 80 F0 FF FF  7F F0 FF FF 7F 70 6A 30  00E^.........pj0
2050: 31 04 80 2B 13 32 02 01  A4 80 23 55 5E 80 F0 FF  1..+.2....#U^...
2060: FF 7F F0 FF FF 7F 70 6A  30 31 1A 47 2F 1C 0C 80  ......pj01.G/...
2070: 34 15 80 77 16 80 0D 80  1C 01 80 1A 55 2A 1C 0C  4..w........U*..
2080: 80 5B 17 80 1B 32 02 01  1B 32 02 01 64 65 64 30  .[...2...2..ded0
2090: 1C 0C 80 45 03 80 F0 FF  FF 7F F0 FF FF 7F 63 30  ...E..........c0
20A0: 32 36 04 80 1A 26 2F 55  03 80 F0 FF FF 7F F0 FF  26...&/U........
20B0: FF 7F 63 30 32 36 2B 13  32 02 01 A6 80 23 1A 47  ..c026+.2....#.G
20C0: 2F 1C 0C 80 34 60 80 77  16 80 0D 80 1C 01 80 03  /...4`.w........
20D0: 01 00 0D 80 1A 8F 27 1C  0C 80 5B 87 80 0D 32 02  ......'...[...2.
20E0: 01 0D 32 02 01 6F 62 30  31 1C 0C 80 45 5E 80 F0  ..2..ob01...E^..
20F0: FF FF 7F F0 FF FF 7F 70  72 33 37 04 80 5B 87 80  .......pr37..[..
2100: 0D 32 02 01 0D 32 02 01  6F 62 30 32 45 5F 80 F0  .2...2..ob02E_..
2110: FF FF 7F F0 FF FF 7F 77  68 69 31 04 80 1C 01 80  .......whi1.....
2120: 2B 0D 32 02 01 A7 80 1C  01 80 45 5E 80 F0 FF FF  +.2.......E^....
2130: 7F F0 FF FF 7F 37 31 32  32 04 80 1A 05 2F 1C 0C  .....7122..../..
2140: 80 27 10 0A 32 02 01 0C  34 35 80 77 16 80 0D 80  .'..2...45.w....
2150: 1C 01 80 1A EF 2C 1C 0C  80 5C 00 A8 80 5C 01 A8  .....,...\...\..
2160: 80 9A 9F 1D 80 F0 FF FF  7F F0 FF FF 7F 73 74 72  .............str
2170: 30 04 80 45 5E 80 F0 FF  FF 7F F0 FF FF 7F 70 6A  0..E^.........pj
2180: 30 32 04 80 1A E4 2E 1C  06 80 2B 0B 32 02 01 A9  02........+.2...
2190: 80 1C 1F 80 1A 05 2F 9F  1D 80 F0 FF FF 7F F0 FF  ....../.........
21A0: FF 7F 6B 69 6C 6C 04 80  52 5E 80 F0 FF FF 7F F0  ..kill..R^......
21B0: FF FF 7F 70 6A 30 32 1C  0C 80 34 8A 80 77 16 80  ...pj02...4..w..
