# 16921100 - Prishe

## Common Data

| Field            | Value                          |
|------------------|--------------------------------|
| Zone             | The Garden of Ru'Hmet (ID: 35) |
| Block Size       | 720 bytes                      |
| Total Events     | 29                             |
| References Count | 57                             |

## List of Events

| Event ID                   | Entrypoint   |   Size |   Instructions |
|----------------------------|--------------|--------|----------------|
| [65535](#event-65535)      | 0x0000       |      1 |              1 |
| [200](#event-200)          | 0x0001       |      1 |              1 |
| [65535.1](#event-655351)   | 0x0002       |     18 |              4 |
| [65535.2](#event-655352)   | 0x0014       |     10 |              2 |
| [65535.3](#event-655353)   | 0x001E       |      9 |              3 |
| [65535.4](#event-655354)   | 0x0027       |      9 |              3 |
| [65535.5](#event-655355)   | 0x0030       |     10 |              2 |
| [65535.6](#event-655356)   | 0x003A       |     10 |              2 |
| [201](#event-201)          | 0x0044       |      1 |              1 |
| [203](#event-203)          | 0x0045       |      1 |              1 |
| [204](#event-204)          | 0x0046       |      1 |              1 |
| [65535.7](#event-655357)   | 0x0047       |     10 |              2 |
| [65535.8](#event-655358)   | 0x0051       |     15 |              5 |
| [65535.9](#event-655359)   | 0x0060       |     15 |              5 |
| [65535.10](#event-6553510) | 0x006F       |     15 |              5 |
| [65535.11](#event-6553511) | 0x007E       |     15 |              5 |
| [65535.12](#event-6553512) | 0x008D       |     10 |              2 |
| [65535.13](#event-6553513) | 0x0097       |     25 |              7 |
| [65535.14](#event-6553514) | 0x00B0       |     34 |             10 |
| [65535.15](#event-6553515) | 0x00D2       |     10 |              2 |
| [65535.16](#event-6553516) | 0x00DC       |     15 |              5 |
| [65535.17](#event-6553517) | 0x00EB       |     10 |              2 |
| [65535.18](#event-6553518) | 0x00F5       |     15 |              5 |
| [65535.19](#event-6553519) | 0x0104       |     10 |              2 |
| [65535.20](#event-6553520) | 0x010E       |     15 |              5 |
| [65535.21](#event-6553521) | 0x011D       |     27 |              7 |
| [65535.22](#event-6553522) | 0x0138       |     15 |              5 |
| [65535.23](#event-6553523) | 0x0147       |     10 |              2 |
| [65535.24](#event-6553524) | 0x0151       |     20 |              6 |

## DAT References (imed_data)

|   Index | Hex Value   |   Dec Value |
|---------|-------------|-------------|
|       0 | 0x0000      |           0 |
|       1 | 0x0001      |           1 |
|       2 | 0x0080      |         128 |
|       3 | 0xFFF99775  |  4294547317 |
|       4 | 0x3CFEB     |      249835 |
|       5 | 0x0C0C      |        3084 |
|       6 | 0x0036      |          54 |
|       7 | 0xFFF99746  |  4294547270 |
|       8 | 0x3C17F     |      246143 |
|       9 | 0xFFF99783  |  4294547331 |
|      10 | 0x3CF5B     |      249691 |
|      11 | 0xFFF99725  |  4294547237 |
|      12 | 0x3B84C     |      243788 |
|      13 | 0xFFF99758  |  4294547288 |
|      14 | 0x3F7A7     |      260007 |
|      15 | 0x668C1     |      420033 |
|      16 | 0x6AC8C     |      437388 |
|      17 | 0x0BFC      |        3068 |
|      18 | 0x6648C     |      418956 |
|      19 | 0x6CECA     |      446154 |
|      20 | 0x66421     |      418849 |
|      21 | 0x6D9F7     |      449015 |
|      22 | 0x001E      |          30 |
|      23 | 0x0012      |          18 |
|      24 | 0x662B4     |      418484 |
|      25 | 0x6DD5E     |      449886 |
|      26 | 0x000F      |          15 |
|      27 | 0x6656B     |      419179 |
|      28 | 0x6E560     |      451936 |
|      29 | 0x66685     |      419461 |
|      30 | 0x6F322     |      455458 |
|      31 | 0x0C08      |        3080 |
|      32 | 0x66808     |      419848 |
|      33 | 0x72978     |      469368 |
|      34 | 0xFFFFFFF9  |  4294967289 |
|      35 | 0xFFFF6D88  |  4294929800 |
|      36 | 0xFFFFFE0C  |  4294966796 |
|      37 | 0x0422      |        1058 |
|      38 | 0x0006      |           6 |
|      39 | 0xFFFF2C83  |  4294913155 |
|      40 | 0xFFFFE2EC  |  4294959852 |
|      41 | 0x0013      |          19 |
|      42 | 0x0C00      |        3072 |
|      43 | 0xFFFFECB4  |  4294962356 |
|      44 | 0xFFFFFFFF  |  4294967295 |
|      45 | 0x0614      |        1556 |
|      46 | 0x0C0B      |        3083 |
|      47 | 0x000C      |          12 |
|      48 | 0x000A      |          10 |
|      49 | 0x1347      |        4935 |
|      50 | 0x0033      |          51 |
|      51 | 0xFFFFFF37  |  4294967095 |
|      52 | 0x0319      |         793 |
|      53 | 0x0F34      |        3892 |
|      54 | 0x0C2A      |        3114 |
|      55 | 0x0091      |         145 |
|      56 | 0xFFFFE511  |  4294960401 |

## Events

### Event 65535

#### Metadata

| Field        | Value   |
|--------------|---------|
| Entrypoint   | 0x0000  |
| Data Size    | 1 bytes |
| Instructions | 1       |

```
      00 01 02 03 04 05 06 07  08 09 0A 0B 0C 0D 0E 0F
      -- -- -- -- -- -- -- --  -- -- -- -- -- -- -- --
0000: 00                                                .               
```

#### Opcodes

```
  0: 0x0000 [0x00] END_REQSTACK()
```

### Event 200

#### Metadata

| Field        | Value   |
|--------------|---------|
| Entrypoint   | 0x0001  |
| Data Size    | 1 bytes |
| Instructions | 1       |

```
      00 01 02 03 04 05 06 07  08 09 0A 0B 0C 0D 0E 0F
      -- -- -- -- -- -- -- --  -- -- -- -- -- -- -- --
0000:    00                                              .              
```

#### Opcodes

```
  0: 0x0001 [0x00] END_REQSTACK()
```

### Event 65535.1

#### Metadata

| Field        | Value    |
|--------------|----------|
| Entrypoint   | 0x0002   |
| Data Size    | 18 bytes |
| Instructions | 4        |

```
      00 01 02 03 04 05 06 07  08 09 0A 0B 0C 0D 0E 0F
      -- -- -- -- -- -- -- --  -- -- -- -- -- -- -- --
0000:       22 00 2F 00 F8 FF  FF 7F 6C F8 FF FF 7F 00    "./.....l.....
0010: 80 01 80 00                                       ....            
```

#### Opcodes

```
  0: 0x0002 [0x22] ENTITY_HIDE_FLAG(enabled=0x00)
  1: 0x0004 [0x2F] EventEntity->Render.Flags0 &= ~0x80000 // Bit 19
  2: 0x000A [0x6C] FADE_ENTITY_COLOR(entity_id=EventEntity, end_alpha=0*, fade_time=1*)
  3: 0x0013 [0x00] END_REQSTACK()
```

### Event 65535.2

#### Metadata

| Field        | Value    |
|--------------|----------|
| Entrypoint   | 0x0014   |
| Data Size    | 10 bytes |
| Instructions | 2        |

```
      00 01 02 03 04 05 06 07  08 09 0A 0B 0C 0D 0E 0F
      -- -- -- -- -- -- -- --  -- -- -- -- -- -- -- --
0010:             6C F8 FF FF  7F 02 80 01 80 00            l.........  
```

#### Opcodes

```
  0: 0x0014 [0x6C] FADE_ENTITY_COLOR(entity_id=EventEntity, end_alpha=128*, fade_time=1*)
  1: 0x001D [0x00] END_REQSTACK()
```

### Event 65535.3

#### Metadata

| Field        | Value   |
|--------------|---------|
| Entrypoint   | 0x001E  |
| Data Size    | 9 bytes |
| Instructions | 3       |

```
      00 01 02 03 04 05 06 07  08 09 0A 0B 0C 0D 0E 0F
      -- -- -- -- -- -- -- --  -- -- -- -- -- -- -- --
0010:                                            22 00                ".
0020: 2F 00 F8 FF FF 7F 00                              /......         
```

#### Opcodes

```
  0: 0x001E [0x22] ENTITY_HIDE_FLAG(enabled=0x00)
  1: 0x0020 [0x2F] EventEntity->Render.Flags0 &= ~0x80000 // Bit 19
  2: 0x0026 [0x00] END_REQSTACK()
```

### Event 65535.4

#### Metadata

| Field        | Value   |
|--------------|---------|
| Entrypoint   | 0x0027  |
| Data Size    | 9 bytes |
| Instructions | 3       |

```
      00 01 02 03 04 05 06 07  08 09 0A 0B 0C 0D 0E 0F
      -- -- -- -- -- -- -- --  -- -- -- -- -- -- -- --
0020:                      22  01 2F 01 F8 FF FF 7F 00         "./......
```

#### Opcodes

```
  0: 0x0027 [0x22] ENTITY_HIDE_FLAG(enabled=0x01)
  1: 0x0029 [0x2F] EventEntity->Render.Flags0 |= 0x80000 // Bit 19
  2: 0x002F [0x00] END_REQSTACK()
```

### Event 65535.5

#### Metadata

| Field        | Value    |
|--------------|----------|
| Entrypoint   | 0x0030   |
| Data Size    | 10 bytes |
| Instructions | 2        |

```
      00 01 02 03 04 05 06 07  08 09 0A 0B 0C 0D 0E 0F
      -- -- -- -- -- -- -- --  -- -- -- -- -- -- -- --
0030: 6C F8 FF FF 7F 00 80 01  80 00                    l.........      
```

#### Opcodes

```
  0: 0x0030 [0x6C] FADE_ENTITY_COLOR(entity_id=EventEntity, end_alpha=0*, fade_time=1*)
  1: 0x0039 [0x00] END_REQSTACK()
```

### Event 65535.6

#### Metadata

| Field        | Value    |
|--------------|----------|
| Entrypoint   | 0x003A   |
| Data Size    | 10 bytes |
| Instructions | 2        |

```
      00 01 02 03 04 05 06 07  08 09 0A 0B 0C 0D 0E 0F
      -- -- -- -- -- -- -- --  -- -- -- -- -- -- -- --
0030:                                6C F8 FF FF 7F 02            l.....
0040: 80 01 80 00                                       ....            
```

#### Opcodes

```
  0: 0x003A [0x6C] FADE_ENTITY_COLOR(entity_id=EventEntity, end_alpha=128*, fade_time=1*)
  1: 0x0043 [0x00] END_REQSTACK()
```

### Event 201

#### Metadata

| Field        | Value   |
|--------------|---------|
| Entrypoint   | 0x0044  |
| Data Size    | 1 bytes |
| Instructions | 1       |

```
      00 01 02 03 04 05 06 07  08 09 0A 0B 0C 0D 0E 0F
      -- -- -- -- -- -- -- --  -- -- -- -- -- -- -- --
0040:             00                                        .           
```

#### Opcodes

```
  0: 0x0044 [0x00] END_REQSTACK()
```

### Event 203

#### Metadata

| Field        | Value   |
|--------------|---------|
| Entrypoint   | 0x0045  |
| Data Size    | 1 bytes |
| Instructions | 1       |

```
      00 01 02 03 04 05 06 07  08 09 0A 0B 0C 0D 0E 0F
      -- -- -- -- -- -- -- --  -- -- -- -- -- -- -- --
0040:                00                                      .          
```

#### Opcodes

```
  0: 0x0045 [0x00] END_REQSTACK()
```

### Event 204

#### Metadata

| Field        | Value   |
|--------------|---------|
| Entrypoint   | 0x0046  |
| Data Size    | 1 bytes |
| Instructions | 1       |

```
      00 01 02 03 04 05 06 07  08 09 0A 0B 0C 0D 0E 0F
      -- -- -- -- -- -- -- --  -- -- -- -- -- -- -- --
0040:                   00                                    .         
```

#### Opcodes

```
  0: 0x0046 [0x00] END_REQSTACK()
```

### Event 65535.7

#### Metadata

| Field        | Value    |
|--------------|----------|
| Entrypoint   | 0x0047   |
| Data Size    | 10 bytes |
| Instructions | 2        |

```
      00 01 02 03 04 05 06 07  08 09 0A 0B 0C 0D 0E 0F
      -- -- -- -- -- -- -- --  -- -- -- -- -- -- -- --
0040:                      37  03 80 04 80 00 80 05 80         7........
0050: 00                                                .               
```

#### Opcodes

```
  0: 0x0047 [0x37] UPDATE_EVENT_POSITION_AND_DIR: x=-419.979*, z=249.835*, y=0.000*, direction=271.0°*
  1: 0x0050 [0x00] END_REQSTACK()
```

### Event 65535.8

#### Metadata

| Field        | Value    |
|--------------|----------|
| Entrypoint   | 0x0051   |
| Data Size    | 15 bytes |
| Instructions | 5        |

```
      00 01 02 03 04 05 06 07  08 09 0A 0B 0C 0D 0E 0F
      -- -- -- -- -- -- -- --  -- -- -- -- -- -- -- --
0050:    32 06 80 1F 00 07 80  08 80 00 80 1F 01 6F 00   2............o.
```

#### Opcodes

```
  0: 0x0051 [0x32] ExtData[1]->MainSpeed = 54* * 0.1
  1: 0x0054 [0x1F] MOVE_ENTITY: EventEntity moves to X=-420.026*, Z=246.143*, Y=0.000*
  2: 0x005C [0x1F] MOVE_ENTITY: Update entity position (mode=1)
  3: 0x005E [0x6F] WAIT_FRAME_DELAY: Yield until WaitTime reaches zero
  4: 0x005F [0x00] END_REQSTACK()
```

### Event 65535.9

#### Metadata

| Field        | Value    |
|--------------|----------|
| Entrypoint   | 0x0060   |
| Data Size    | 15 bytes |
| Instructions | 5        |

```
      00 01 02 03 04 05 06 07  08 09 0A 0B 0C 0D 0E 0F
      -- -- -- -- -- -- -- --  -- -- -- -- -- -- -- --
0060: 32 06 80 1F 00 09 80 0A  80 00 80 1F 01 6F 00     2............o. 
```

#### Opcodes

```
  0: 0x0060 [0x32] ExtData[1]->MainSpeed = 54* * 0.1
  1: 0x0063 [0x1F] MOVE_ENTITY: EventEntity moves to X=-419.965*, Z=249.691*, Y=0.000*
  2: 0x006B [0x1F] MOVE_ENTITY: Update entity position (mode=1)
  3: 0x006D [0x6F] WAIT_FRAME_DELAY: Yield until WaitTime reaches zero
  4: 0x006E [0x00] END_REQSTACK()
```

### Event 65535.10

#### Metadata

| Field        | Value    |
|--------------|----------|
| Entrypoint   | 0x006F   |
| Data Size    | 15 bytes |
| Instructions | 5        |

```
      00 01 02 03 04 05 06 07  08 09 0A 0B 0C 0D 0E 0F
      -- -- -- -- -- -- -- --  -- -- -- -- -- -- -- --
0060:                                               32                 2
0070: 06 80 1F 00 0B 80 0C 80  00 80 1F 01 6F 00        ............o.  
```

#### Opcodes

```
  0: 0x006F [0x32] ExtData[1]->MainSpeed = 54* * 0.1
  1: 0x0072 [0x1F] MOVE_ENTITY: EventEntity moves to X=-420.059*, Z=243.788*, Y=0.000*
  2: 0x007A [0x1F] MOVE_ENTITY: Update entity position (mode=1)
  3: 0x007C [0x6F] WAIT_FRAME_DELAY: Yield until WaitTime reaches zero
  4: 0x007D [0x00] END_REQSTACK()
```

### Event 65535.11

#### Metadata

| Field        | Value    |
|--------------|----------|
| Entrypoint   | 0x007E   |
| Data Size    | 15 bytes |
| Instructions | 5        |

```
      00 01 02 03 04 05 06 07  08 09 0A 0B 0C 0D 0E 0F
      -- -- -- -- -- -- -- --  -- -- -- -- -- -- -- --
0070:                                            32 06                2.
0080: 80 1F 00 0D 80 0E 80 00  80 1F 01 6F 00           ...........o.   
```

#### Opcodes

```
  0: 0x007E [0x32] ExtData[1]->MainSpeed = 54* * 0.1
  1: 0x0081 [0x1F] MOVE_ENTITY: EventEntity moves to X=-420.008*, Z=260.007*, Y=0.000*
  2: 0x0089 [0x1F] MOVE_ENTITY: Update entity position (mode=1)
  3: 0x008B [0x6F] WAIT_FRAME_DELAY: Yield until WaitTime reaches zero
  4: 0x008C [0x00] END_REQSTACK()
```

### Event 65535.12

#### Metadata

| Field        | Value    |
|--------------|----------|
| Entrypoint   | 0x008D   |
| Data Size    | 10 bytes |
| Instructions | 2        |

```
      00 01 02 03 04 05 06 07  08 09 0A 0B 0C 0D 0E 0F
      -- -- -- -- -- -- -- --  -- -- -- -- -- -- -- --
0080:                                         37 0F 80               7..
0090: 10 80 00 80 11 80 00                              .......         
```

#### Opcodes

```
  0: 0x008D [0x37] UPDATE_EVENT_POSITION_AND_DIR: x=420.033*, z=437.388*, y=0.000*, direction=269.6°*
  1: 0x0096 [0x00] END_REQSTACK()
```

### Event 65535.13

#### Metadata

| Field        | Value    |
|--------------|----------|
| Entrypoint   | 0x0097   |
| Data Size    | 25 bytes |
| Instructions | 7        |

```
      00 01 02 03 04 05 06 07  08 09 0A 0B 0C 0D 0E 0F
      -- -- -- -- -- -- -- --  -- -- -- -- -- -- -- --
0090:                      32  06 80 1F 00 12 80 13 80         2........
00A0: 00 80 1F 01 1F 00 14 80  15 80 00 80 1F 01 6F 00  ..............o.
```

#### Opcodes

```
  0: 0x0097 [0x32] ExtData[1]->MainSpeed = 54* * 0.1
  1: 0x009A [0x1F] MOVE_ENTITY: EventEntity moves to X=418.956*, Z=446.154*, Y=0.000*
  2: 0x00A2 [0x1F] MOVE_ENTITY: Update entity position (mode=1)
  3: 0x00A4 [0x1F] MOVE_ENTITY: EventEntity moves to X=418.849*, Z=449.015*, Y=0.000*
  4: 0x00AC [0x1F] MOVE_ENTITY: Update entity position (mode=1)
  5: 0x00AE [0x6F] WAIT_FRAME_DELAY: Yield until WaitTime reaches zero
  6: 0x00AF [0x00] END_REQSTACK()
```

### Event 65535.14

#### Metadata

| Field        | Value    |
|--------------|----------|
| Entrypoint   | 0x00B0   |
| Data Size    | 34 bytes |
| Instructions | 10       |

```
      00 01 02 03 04 05 06 07  08 09 0A 0B 0C 0D 0E 0F
      -- -- -- -- -- -- -- --  -- -- -- -- -- -- -- --
00B0: 1C 16 80 32 17 80 1F 00  18 80 19 80 00 80 1F 01  ...2............
00C0: 1C 1A 80 32 06 80 1F 00  1B 80 1C 80 00 80 1F 01  ...2............
00D0: 6F 00                                             o.              
```

#### Opcodes

```
  0: 0x00B0 [0x1C] WAIT(30* ticks)
  1: 0x00B3 [0x32] ExtData[1]->MainSpeed = 18* * 0.1
  2: 0x00B6 [0x1F] MOVE_ENTITY: EventEntity moves to X=418.484*, Z=449.886*, Y=0.000*
  3: 0x00BE [0x1F] MOVE_ENTITY: Update entity position (mode=1)
  4: 0x00C0 [0x1C] WAIT(15* ticks)
  5: 0x00C3 [0x32] ExtData[1]->MainSpeed = 54* * 0.1
  6: 0x00C6 [0x1F] MOVE_ENTITY: EventEntity moves to X=419.179*, Z=451.936*, Y=0.000*
  7: 0x00CE [0x1F] MOVE_ENTITY: Update entity position (mode=1)
  8: 0x00D0 [0x6F] WAIT_FRAME_DELAY: Yield until WaitTime reaches zero
  9: 0x00D1 [0x00] END_REQSTACK()
```

### Event 65535.15

#### Metadata

| Field        | Value    |
|--------------|----------|
| Entrypoint   | 0x00D2   |
| Data Size    | 10 bytes |
| Instructions | 2        |

```
      00 01 02 03 04 05 06 07  08 09 0A 0B 0C 0D 0E 0F
      -- -- -- -- -- -- -- --  -- -- -- -- -- -- -- --
00D0:       37 1D 80 1E 80 00  80 1F 80 00                7.........    
```

#### Opcodes

```
  0: 0x00D2 [0x37] UPDATE_EVENT_POSITION_AND_DIR: x=419.461*, z=455.458*, y=0.000*, direction=270.7°*
  1: 0x00DB [0x00] END_REQSTACK()
```

### Event 65535.16

#### Metadata

| Field        | Value    |
|--------------|----------|
| Entrypoint   | 0x00DC   |
| Data Size    | 15 bytes |
| Instructions | 5        |

```
      00 01 02 03 04 05 06 07  08 09 0A 0B 0C 0D 0E 0F
      -- -- -- -- -- -- -- --  -- -- -- -- -- -- -- --
00D0:                                      32 06 80 1F              2...
00E0: 00 20 80 21 80 00 80 1F  01 6F 00                 . .!.....o.     
```

#### Opcodes

```
  0: 0x00DC [0x32] ExtData[1]->MainSpeed = 54* * 0.1
  1: 0x00DF [0x1F] MOVE_ENTITY: EventEntity moves to X=419.848*, Z=469.368*, Y=0.000*
  2: 0x00E7 [0x1F] MOVE_ENTITY: Update entity position (mode=1)
  3: 0x00E9 [0x6F] WAIT_FRAME_DELAY: Yield until WaitTime reaches zero
  4: 0x00EA [0x00] END_REQSTACK()
```

### Event 65535.17

#### Metadata

| Field        | Value    |
|--------------|----------|
| Entrypoint   | 0x00EB   |
| Data Size    | 10 bytes |
| Instructions | 2        |

```
      00 01 02 03 04 05 06 07  08 09 0A 0B 0C 0D 0E 0F
      -- -- -- -- -- -- -- --  -- -- -- -- -- -- -- --
00E0:                                   37 22 80 23 80             7".#.
00F0: 24 80 25 80 00                                    $.%..           
```

#### Opcodes

```
  0: 0x00EB [0x37] UPDATE_EVENT_POSITION_AND_DIR: x=-0.007*, z=-37.496*, y=-0.500*, direction=93.0°*
  1: 0x00F4 [0x00] END_REQSTACK()
```

### Event 65535.18

#### Metadata

| Field        | Value    |
|--------------|----------|
| Entrypoint   | 0x00F5   |
| Data Size    | 15 bytes |
| Instructions | 5        |

```
      00 01 02 03 04 05 06 07  08 09 0A 0B 0C 0D 0E 0F
      -- -- -- -- -- -- -- --  -- -- -- -- -- -- -- --
00F0:                32 06 80  1F 00 26 80 27 80 24 80       2....&.'.$.
0100: 1F 01 6F 00                                       ..o.            
```

#### Opcodes

```
  0: 0x00F5 [0x32] ExtData[1]->MainSpeed = 54* * 0.1
  1: 0x00F8 [0x1F] MOVE_ENTITY: EventEntity moves to X=0.006*, Z=-54.141*, Y=-0.500*
  2: 0x0100 [0x1F] MOVE_ENTITY: Update entity position (mode=1)
  3: 0x0102 [0x6F] WAIT_FRAME_DELAY: Yield until WaitTime reaches zero
  4: 0x0103 [0x00] END_REQSTACK()
```

### Event 65535.19

#### Metadata

| Field        | Value    |
|--------------|----------|
| Entrypoint   | 0x0104   |
| Data Size    | 10 bytes |
| Instructions | 2        |

```
      00 01 02 03 04 05 06 07  08 09 0A 0B 0C 0D 0E 0F
      -- -- -- -- -- -- -- --  -- -- -- -- -- -- -- --
0100:             37 00 80 28  80 29 80 2A 80 00            7..(.).*..  
```

#### Opcodes

```
  0: 0x0104 [0x37] UPDATE_EVENT_POSITION_AND_DIR: x=0.000*, z=-7.444*, y=0.019*, direction=270.0°*
  1: 0x010D [0x00] END_REQSTACK()
```

### Event 65535.20

#### Metadata

| Field        | Value    |
|--------------|----------|
| Entrypoint   | 0x010E   |
| Data Size    | 15 bytes |
| Instructions | 5        |

```
      00 01 02 03 04 05 06 07  08 09 0A 0B 0C 0D 0E 0F
      -- -- -- -- -- -- -- --  -- -- -- -- -- -- -- --
0100:                                            32 06                2.
0110: 80 1F 00 00 80 2B 80 29  80 1F 01 6F 00           .....+.)...o.   
```

#### Opcodes

```
  0: 0x010E [0x32] ExtData[1]->MainSpeed = 54* * 0.1
  1: 0x0111 [0x1F] MOVE_ENTITY: EventEntity moves to X=0.000*, Z=-4.940*, Y=0.019*
  2: 0x0119 [0x1F] MOVE_ENTITY: Update entity position (mode=1)
  3: 0x011B [0x6F] WAIT_FRAME_DELAY: Yield until WaitTime reaches zero
  4: 0x011C [0x00] END_REQSTACK()
```

### Event 65535.21

#### Metadata

| Field        | Value    |
|--------------|----------|
| Entrypoint   | 0x011D   |
| Data Size    | 27 bytes |
| Instructions | 7        |

```
      00 01 02 03 04 05 06 07  08 09 0A 0B 0C 0D 0E 0F
      -- -- -- -- -- -- -- --  -- -- -- -- -- -- -- --
0110:                                         37 2C 80               7,.
0120: 2D 80 29 80 2E 80 1C 01  80 32 2F 80 1F 00 30 80  -.)......2/...0.
0130: 31 80 29 80 1F 01 6F 00                           1.)...o.        
```

#### Opcodes

```
  0: 0x011D [0x37] UPDATE_EVENT_POSITION_AND_DIR: x=-0.001*, z=1.556*, y=0.019*, direction=271.0°*
  1: 0x0126 [0x1C] WAIT(1* ticks)
  2: 0x0129 [0x32] ExtData[1]->MainSpeed = 12* * 0.1
  3: 0x012C [0x1F] MOVE_ENTITY: EventEntity moves to X=0.010*, Z=4.935*, Y=0.019*
  4: 0x0134 [0x1F] MOVE_ENTITY: Update entity position (mode=1)
  5: 0x0136 [0x6F] WAIT_FRAME_DELAY: Yield until WaitTime reaches zero
  6: 0x0137 [0x00] END_REQSTACK()
```

### Event 65535.22

#### Metadata

| Field        | Value    |
|--------------|----------|
| Entrypoint   | 0x0138   |
| Data Size    | 15 bytes |
| Instructions | 5        |

```
      00 01 02 03 04 05 06 07  08 09 0A 0B 0C 0D 0E 0F
      -- -- -- -- -- -- -- --  -- -- -- -- -- -- -- --
0130:                          32 32 80 1F 00 2F 80 33          22.../.3
0140: 80 29 80 1F 01 6F 00                              .)...o.         
```

#### Opcodes

```
  0: 0x0138 [0x32] ExtData[1]->MainSpeed = 51* * 0.1
  1: 0x013B [0x1F] MOVE_ENTITY: EventEntity moves to X=0.012*, Z=-0.201*, Y=0.019*
  2: 0x0143 [0x1F] MOVE_ENTITY: Update entity position (mode=1)
  3: 0x0145 [0x6F] WAIT_FRAME_DELAY: Yield until WaitTime reaches zero
  4: 0x0146 [0x00] END_REQSTACK()
```

### Event 65535.23

#### Metadata

| Field        | Value    |
|--------------|----------|
| Entrypoint   | 0x0147   |
| Data Size    | 10 bytes |
| Instructions | 2        |

```
      00 01 02 03 04 05 06 07  08 09 0A 0B 0C 0D 0E 0F
      -- -- -- -- -- -- -- --  -- -- -- -- -- -- -- --
0140:                      37  34 80 35 80 29 80 36 80         74.5.).6.
0150: 00                                                .               
```

#### Opcodes

```
  0: 0x0147 [0x37] UPDATE_EVENT_POSITION_AND_DIR: x=0.793*, z=3.892*, y=0.019*, direction=273.7°*
  1: 0x0150 [0x00] END_REQSTACK()
```

### Event 65535.24

#### Metadata

| Field        | Value    |
|--------------|----------|
| Entrypoint   | 0x0151   |
| Data Size    | 20 bytes |
| Instructions | 6        |

```
      00 01 02 03 04 05 06 07  08 09 0A 0B 0C 0D 0E 0F
      -- -- -- -- -- -- -- --  -- -- -- -- -- -- -- --
0150:    5E 69 64 6C 30 32 32  80 1F 00 37 80 38 80 29   ^idl022...7.8.)
0160: 80 1F 01 6F 00                                    ...o.           
```

#### Opcodes

```
  0: 0x0151 [0x5E] EventEntity goes idle (kills current action) (animation: "idl0")
  1: 0x0156 [0x32] ExtData[1]->MainSpeed = 51* * 0.1
  2: 0x0159 [0x1F] MOVE_ENTITY: EventEntity moves to X=0.145*, Z=-6.895*, Y=0.019*
  3: 0x0161 [0x1F] MOVE_ENTITY: Update entity position (mode=1)
  4: 0x0163 [0x6F] WAIT_FRAME_DELAY: Yield until WaitTime reaches zero
  5: 0x0164 [0x00] END_REQSTACK()
```
