# 16921076 - Warp_3F

## Common Data

| Field            | Value                          |
|------------------|--------------------------------|
| Zone             | The Garden of Ru'Hmet (ID: 35) |
| Block Size       | 144 bytes                      |
| Total Events     | 2                              |
| References Count | 8                              |

## List of Events

| Event ID              | Entrypoint   |   Size |   Instructions |
|-----------------------|--------------|--------|----------------|
| [65535](#event-65535) | 0x0000       |      1 |              1 |
| [103](#event-103)     | 0x0001       |     87 |             24 |

## DAT References (imed_data)

|   Index | Hex Value   |   Dec Value |
|---------|-------------|-------------|
|       0 | 0x1DCA      |        7626 |
|       1 | 0x0002      |           2 |
|       2 | 0x0000      |           0 |
|       3 | 0x1DCB      |        7627 |
|       4 | 0x0001      |           1 |
|       5 | 0xFFF99760  |  4294547296 |
|       6 | 0xFFFFF92A  |  4294965546 |
|       7 | 0x03E8      |        1000 |

## String References

- **7626**: Use the device? [Ascend./Descend./Do nothing.]
- **7627**: Nothing happens...

## Events

### Event 65535

#### Metadata

| Field        | Value   |
|--------------|---------|
| Entrypoint   | 0x0000  |
| Data Size    | 1 bytes |
| Instructions | 1       |

```
      00 01 02 03 04 05 06 07  08 09 0A 0B 0C 0D 0E 0F
      -- -- -- -- -- -- -- --  -- -- -- -- -- -- -- --
0000: 00                                                .               
```

#### Opcodes

```
  0: 0x0000 [0x00] END_REQSTACK()
```

### Event 103

#### Metadata

| Field        | Value    |
|--------------|----------|
| Entrypoint   | 0x0001   |
| Data Size    | 87 bytes |
| Instructions | 24       |

```
      00 01 02 03 04 05 06 07  08 09 0A 0B 0C 0D 0E 0F
      -- -- -- -- -- -- -- --  -- -- -- -- -- -- -- --
0000:    20 01 24 00 80 01 80  02 80 25 02 00 10 02 80    .$......%.....
0010: 00 1F 00 42 43 00 43 01  48 03 80 23 01 54 00 02  ...BC.C.H..#.T..
0020: 00 10 04 80 00 49 00 42  43 00 43 01 29 01 F0 FF  .....I.BC.C.)...
0030: FF 7F 15 47 00 05 80 05  80 06 80 07 80 47 01 29  ...G.........G.)
0040: 01 F0 FF FF 7F 16 01 54  00 02 00 10 01 80 00 54  .......T.......T
0050: 00 01 54 00 20 00 21 00                           ..T. .!.        
```

#### Opcodes

```
  0: 0x0001 [0x20] SET_CLI_EVENT_UC_FLAG: Lock player control
  1: 0x0003 [0x24] CREATE_DIALOG(message_id=7626*, default_option=2*, option_flags=0*)
    → "Use the device? [Ascend./Descend./Do nothing.]"
  2: 0x000A [0x25] WAIT_DIALOG_SELECT()
  3: 0x000B [0x02] IF !(Work_Zone[0] == 0*) GOTO 0x001F
  4: 0x0013 [0x42] SET_CLI_EVENT_CANCEL_DATA()
  5: 0x0014 [0x43] SEND_EVENT_UPDATE: Send pending tag to server (packet 0x005B)
  6: 0x0016 [0x43] SEND_EVENT_UPDATE: Check pending flag (skip if not pending)
  7: 0x0018 [0x48] [System] [7627*]:
    → "Nothing happens..."
  8: 0x001B [0x23] WAIT_FOR_DIALOG_INTERACTION
  9: 0x001C [0x01] GOTO 0x0054
 10: 0x001F [0x02] IF !(Work_Zone[0] == 1*) GOTO 0x0049
 11: 0x0027 [0x42] SET_CLI_EVENT_CANCEL_DATA()
 12: 0x0028 [0x43] SEND_EVENT_UPDATE: Send pending tag to server (packet 0x005B)
 13: 0x002A [0x43] SEND_EVENT_UPDATE: Check pending flag (skip if not pending)
 14: 0x002C [0x29] REQ_SET_WAIT(priority=0x01, entity_id=LocalPlayer, tag_num=0x15)
 15: 0x0033 [0x47] UPDATE_PLAYER_POS(-420.000*, -420.000*, -1.750*, yaw=87.9°*)
 16: 0x003D [0x47] WAIT_PLAYER_POS_UPDATE
 17: 0x003F [0x29] REQ_SET_WAIT(priority=0x01, entity_id=LocalPlayer, tag_num=0x16)
 18: 0x0046 [0x01] GOTO 0x0054
 19: 0x0049 [0x02] IF !(Work_Zone[0] == 2*) GOTO 0x0054
 20: 0x0051 [0x01] GOTO 0x0054

SUBROUTINE_0054:
 21: 0x0054 [0x20] SET_CLI_EVENT_UC_FLAG: Unlock player control
 22: 0x0056 [0x21] END_EVENT
 23: 0x0057 [0x00] END_REQSTACK()
```
