# 16921099

## Common Data

| Field            | Value                          |
|------------------|--------------------------------|
| Zone             | The Garden of Ru'Hmet (ID: 35) |
| Block Size       | 148 bytes                      |
| Total Events     | 4                              |
| References Count | 7                              |

## List of Events

| Event ID                 | Entrypoint   |   Size |   Instructions |
|--------------------------|--------------|--------|----------------|
| [65535](#event-65535)    | 0x0000       |      1 |              1 |
| [65534](#event-65534)    | 0x0001       |      1 |              1 |
| [65535.1](#event-655351) | 0x0002       |     75 |              7 |
| [65535.2](#event-655352) | 0x004D       |     10 |              2 |

## DAT References (imed_data)

|   Index | Hex Value   |   Dec Value |
|---------|-------------|-------------|
|       0 | 0x0294      |         660 |
|       1 | 0x001C      |          28 |
|       2 | 0x0000      |           0 |
|       3 | 0x0082      |         130 |
|       4 | 0x01C2      |         450 |
|       5 | 0x0080      |         128 |
|       6 | 0x0258      |         600 |

## Events

### Event 65535

#### Metadata

| Field        | Value   |
|--------------|---------|
| Entrypoint   | 0x0000  |
| Data Size    | 1 bytes |
| Instructions | 1       |

```
      00 01 02 03 04 05 06 07  08 09 0A 0B 0C 0D 0E 0F
      -- -- -- -- -- -- -- --  -- -- -- -- -- -- -- --
0000: 00                                                .               
```

#### Opcodes

```
  0: 0x0000 [0x00] END_REQSTACK()
```

### Event 65534

#### Metadata

| Field        | Value   |
|--------------|---------|
| Entrypoint   | 0x0001  |
| Data Size    | 1 bytes |
| Instructions | 1       |

```
      00 01 02 03 04 05 06 07  08 09 0A 0B 0C 0D 0E 0F
      -- -- -- -- -- -- -- --  -- -- -- -- -- -- -- --
0000:    00                                              .              
```

#### Opcodes

```
  0: 0x0001 [0x00] END_REQSTACK()
```

### Event 65535.1

#### Metadata

| Field        | Value    |
|--------------|----------|
| Entrypoint   | 0x0002   |
| Data Size    | 75 bytes |
| Instructions | 7        |

```
      00 01 02 03 04 05 06 07  08 09 0A 0B 0C 0D 0E 0F
      -- -- -- -- -- -- -- --  -- -- -- -- -- -- -- --
0000:       1C 00 80 45 01 80  F0 FF FF 7F F0 FF FF 7F    ...E..........
0010: 73 36 30 31 02 80 9F 03  80 21 32 02 01 21 32 02  s601.....!2..!2.
0020: 01 73 74 72 30 02 80 1C  04 80 45 01 80 F0 FF FF  .str0.....E.....
0030: 7F F0 FF FF 7F 77 69 6E  30 02 80 9F 03 80 21 32  .....win0.....!2
0040: 02 01 21 32 02 01 6B 69  6C 6C 02 80 00           ..!2..kill...   
```

#### Opcodes

```
  0: 0x0002 [0x1C] WAIT(660* ticks)
  1: 0x0005 [0x45] LOAD_SCHEDULED_TASK: Load scheduler "s601" with entities [LocalPlayer, LocalPlayer], work=[28*, 0*]
  2: 0x0016 [0x9F] LOAD_SCHEDULED_TASK_ALT: Load scheduler "str0" with entities [Unnamed NPC (ID: 16921121/0x01023221), Unnamed NPC (ID: 16921121/0x01023221)], work=[130*, 0*]
  3: 0x0027 [0x1C] WAIT(450* ticks)
  4: 0x002A [0x45] LOAD_SCHEDULED_TASK: Load scheduler "win0" with entities [LocalPlayer, LocalPlayer], work=[28*, 0*]
  5: 0x003B [0x9F] LOAD_SCHEDULED_TASK_ALT: Load scheduler "kill" with entities [Unnamed NPC (ID: 16921121/0x01023221), Unnamed NPC (ID: 16921121/0x01023221)], work=[130*, 0*]
  6: 0x004C [0x00] END_REQSTACK()
```

### Event 65535.2

#### Metadata

| Field        | Value    |
|--------------|----------|
| Entrypoint   | 0x004D   |
| Data Size    | 10 bytes |
| Instructions | 2        |

```
      00 01 02 03 04 05 06 07  08 09 0A 0B 0C 0D 0E 0F
      -- -- -- -- -- -- -- --  -- -- -- -- -- -- -- --
0040:                                         6C 20 32               l 2
0050: 02 01 05 80 06 80 00                              .......         
```

#### Opcodes

```
  0: 0x004D [0x6C] FADE_ENTITY_COLOR(entity_id=Promathia (ID: 16921120/0x01023220), end_alpha=128*, fade_time=600*)
  1: 0x0056 [0x00] END_REQSTACK()
```
