# 0x7FFFFFF0 - Zone Events

## Common Data

| Field            | Value                          |
|------------------|--------------------------------|
| Zone             | The Garden of Ru'Hmet (ID: 35) |
| Block Size       | 11068 bytes                    |
| Total Events     | 83                             |
| References Count | 292                            |

## List of Events

| Event ID                   | Entrypoint   |   Size |   Instructions |
|----------------------------|--------------|--------|----------------|
| [65535](#event-65535)      | 0x0000       |      1 |              1 |
| [65534](#event-65534)      | 0x0001       |      1 |              1 |
| [32000](#event-32000)      | 0x0002       |   2116 |            412 |
| [32002](#event-32002)      | 0x0846       |    494 |             83 |
| [32001](#event-32001)      | 0x0A34       |   1033 |            179 |
| [32003](#event-32003)      | 0x0E3D       |    435 |             77 |
| [32004](#event-32004)      | 0x0FF0       |   1856 |            235 |
| [127](#event-127)          | 0x1730       |     16 |              3 |
| [113](#event-113)          | 0x1740       |     16 |              3 |
| [130](#event-130)          | 0x1750       |     10 |              2 |
| [131](#event-131)          | 0x175A       |     14 |              4 |
| [132](#event-132)          | 0x1768       |     16 |              3 |
| [133](#event-133)          | 0x1778       |     14 |              4 |
| [134](#event-134)          | 0x1786       |     16 |              3 |
| [135](#event-135)          | 0x1796       |     14 |              4 |
| [142](#event-142)          | 0x17A4       |     16 |              3 |
| [143](#event-143)          | 0x17B4       |     14 |              4 |
| [144](#event-144)          | 0x17C2       |     13 |              3 |
| [145](#event-145)          | 0x17CF       |     16 |              3 |
| [146](#event-146)          | 0x17DF       |     14 |              4 |
| [147](#event-147)          | 0x17ED       |     13 |              3 |
| [50](#event-50)            | 0x17FA       |     41 |              5 |
| [51](#event-51)            | 0x1823       |     38 |              4 |
| [150](#event-150)          | 0x1849       |     76 |             20 |
| [151](#event-151)          | 0x1895       |     76 |             20 |
| [152](#event-152)          | 0x18E1       |     76 |             20 |
| [153](#event-153)          | 0x192D       |     76 |             20 |
| [154](#event-154)          | 0x1979       |     76 |             20 |
| [155](#event-155)          | 0x19C5       |     87 |             24 |
| [184](#event-184)          | 0x1A1C       |    100 |             25 |
| [156](#event-156)          | 0x1A80       |    307 |             50 |
| [157](#event-157)          | 0x1BB3       |     71 |             19 |
| [158](#event-158)          | 0x1BFA       |     76 |             20 |
| [159](#event-159)          | 0x1C46       |     76 |             20 |
| [160](#event-160)          | 0x1C92       |     76 |             20 |
| [161](#event-161)          | 0x1CDE       |     76 |             20 |
| [162](#event-162)          | 0x1D2A       |     76 |             20 |
| [163](#event-163)          | 0x1D76       |     76 |             20 |
| [164](#event-164)          | 0x1DC2       |     76 |             20 |
| [165](#event-165)          | 0x1E0E       |     76 |             20 |
| [166](#event-166)          | 0x1E5A       |     76 |             20 |
| [167](#event-167)          | 0x1EA6       |     76 |             20 |
| [168](#event-168)          | 0x1EF2       |     76 |             20 |
| [169](#event-169)          | 0x1F3E       |     76 |             20 |
| [170](#event-170)          | 0x1F8A       |     76 |             20 |
| [171](#event-171)          | 0x1FD6       |     76 |             20 |
| [172](#event-172)          | 0x2022       |     76 |             20 |
| [173](#event-173)          | 0x206E       |     76 |             20 |
| [174](#event-174)          | 0x20BA       |     76 |             20 |
| [175](#event-175)          | 0x2106       |     76 |             20 |
| [176](#event-176)          | 0x2152       |     76 |             20 |
| [177](#event-177)          | 0x219E       |     76 |             20 |
| [178](#event-178)          | 0x21EA       |     76 |             20 |
| [179](#event-179)          | 0x2236       |     76 |             20 |
| [180](#event-180)          | 0x2282       |     76 |             20 |
| [181](#event-181)          | 0x22CE       |     76 |             20 |
| [182](#event-182)          | 0x231A       |     76 |             20 |
| [183](#event-183)          | 0x2366       |     88 |             23 |
| [65535.1](#event-655351)   | 0x23BE       |     10 |              2 |
| [65535.2](#event-655352)   | 0x23C8       |     15 |              5 |
| [65535.3](#event-655353)   | 0x23D7       |     10 |              2 |
| [65535.4](#event-655354)   | 0x23E1       |     28 |              8 |
| [65535.5](#event-655355)   | 0x23FD       |     10 |              2 |
| [65535.6](#event-655356)   | 0x2407       |     15 |              5 |
| [65535.7](#event-655357)   | 0x2416       |     10 |              2 |
| [65535.8](#event-655358)   | 0x2420       |     14 |              4 |
| [65535.9](#event-655359)   | 0x242E       |      1 |              1 |
| [65535.10](#event-6553510) | 0x242F       |     10 |              2 |
| [65535.11](#event-6553511) | 0x2439       |     15 |              5 |
| [205](#event-205)          | 0x2448       |     94 |             20 |
| [65535.12](#event-6553512) | 0x24A6       |     10 |              2 |
| [65535.13](#event-6553513) | 0x24B0       |     10 |              2 |
| [65535.14](#event-6553514) | 0x24BA       |     15 |              5 |
| [65535.15](#event-6553515) | 0x24C9       |     10 |              2 |
| [65535.16](#event-6553516) | 0x24D3       |     15 |              5 |
| [65535.17](#event-6553517) | 0x24E2       |     27 |              7 |
| [65535.18](#event-6553518) | 0x24FD       |     15 |              5 |
| [65535.19](#event-6553519) | 0x250C       |     10 |              2 |
| [65535.20](#event-6553520) | 0x2516       |      6 |              2 |
| [65535.21](#event-6553521) | 0x251C       |     15 |              5 |
| [65535.22](#event-6553522) | 0x252B       |     10 |              2 |
| [65535.23](#event-6553523) | 0x2535       |     15 |              5 |
| [65535.24](#event-6553524) | 0x2544       |     10 |              2 |

## DAT References (imed_data)

|   Index | Hex Value   |   Dec Value |
|---------|-------------|-------------|
|       0 | 0x0000      |           0 |
|       1 | 0x000F      |          15 |
|       2 | 0x0010      |          16 |
|       3 | 0x001F      |          31 |
|       4 | 0xFFFFFFFF  |  4294967295 |
|       5 | 0x0001      |           1 |
|       6 | 0x1DC8      |        7624 |
|       7 | 0x1D09      |        7433 |
|       8 | 0x0005      |           5 |
|       9 | 0x0002      |           2 |
|      10 | 0x0003      |           3 |
|      11 | 0x0004      |           4 |
|      12 | 0x1B9C      |        7068 |
|      13 | 0x00FF      |         255 |
|      14 | 0x00C8      |         200 |
|      15 | 0x0013      |          19 |
|      16 | 0x0008      |           8 |
|      17 | 0x0009      |           9 |
|      18 | 0x000B      |          11 |
|      19 | 0x1BA7      |        7079 |
|      20 | 0x1BA8      |        7080 |
|      21 | 0x1BA9      |        7081 |
|      22 | 0x1BAA      |        7082 |
|      23 | 0x1BCE      |        7118 |
|      24 | 0x0006      |           6 |
|      25 | 0x0007      |           7 |
|      26 | 0x000A      |          10 |
|      27 | 0x000C      |          12 |
|      28 | 0x000D      |          13 |
|      29 | 0x000E      |          14 |
|      30 | 0x0011      |          17 |
|      31 | 0x0012      |          18 |
|      32 | 0x0014      |          20 |
|      33 | 0x0015      |          21 |
|      34 | 0x0016      |          22 |
|      35 | 0x0017      |          23 |
|      36 | 0x0018      |          24 |
|      37 | 0x0019      |          25 |
|      38 | 0x001A      |          26 |
|      39 | 0x001B      |          27 |
|      40 | 0x001C      |          28 |
|      41 | 0x001D      |          29 |
|      42 | 0x001E      |          30 |
|      43 | 0x1D03      |        7427 |
|      44 | 0x1D08      |        7432 |
|      45 | 0x1D07      |        7431 |
|      46 | 0x003C      |          60 |
|      47 | 0x1DC6      |        7622 |
|      48 | 0x1DC5      |        7621 |
|      49 | 0x0064      |         100 |
|      50 | 0x1CEF      |        7407 |
|      51 | 0x00DC      |         220 |
|      52 | 0x1B9F      |        7071 |
|      53 | 0x00C9      |         201 |
|      54 | 0x00E4      |         228 |
|      55 | 0x0073      |         115 |
|      56 | 0x00DA      |         218 |
|      57 | 0x00B4      |         180 |
|      58 | 0xFFF6C42B  |  4294362155 |
|      59 | 0x752B9     |      479929 |
|      60 | 0xFFFFA767  |  4294944615 |
|      61 | 0x03E0      |         992 |
|      62 | 0xFFFBFE43  |  4294704707 |
|      63 | 0x5C401     |      377857 |
|      64 | 0xFFFDE79F  |  4294829983 |
|      65 | 0x0D92      |        3474 |
|      66 | 0x47AC      |       18348 |
|      67 | 0x76E1C     |      486940 |
|      68 | 0xFFFC93B2  |  4294742962 |
|      69 | 0x00C2      |         194 |
|      70 | 0x388A9     |      231593 |
|      71 | 0x57E9E     |      360094 |
|      72 | 0xFFFD59FC  |  4294793724 |
|      73 | 0x0726      |        1830 |
|      74 | 0x872C0     |      553664 |
|      75 | 0x7FEA3     |      523939 |
|      76 | 0xFFFF6AC3  |  4294929091 |
|      77 | 0x0A65      |        2661 |
|      78 | 0x66898     |      419992 |
|      79 | 0x61222     |      397858 |
|      80 | 0x0400      |        1024 |
|      81 | 0xFFF2A593  |  4294092179 |
|      82 | 0xFFFF548C  |  4294923404 |
|      83 | 0xFFFF442C  |  4294919212 |
|      84 | 0x0201      |         513 |
|      85 | 0xFFF478D5  |  4294211797 |
|      86 | 0x89AEB     |      563947 |
|      87 | 0xFFFE4A5D  |  4294855261 |
|      88 | 0x0DEF      |        3567 |
|      89 | 0x1E173     |      123251 |
|      90 | 0xB8221     |      754209 |
|      91 | 0xFFFD5FA4  |  4294795172 |
|      92 | 0x01B8      |         440 |
|      93 | 0xFFF81ECC  |  4294450892 |
|      94 | 0xFFF3BE05  |  4294163973 |
|      95 | 0x5E8E      |       24206 |
|      96 | 0x01B5      |         437 |
|      97 | 0x012C      |         300 |
|      98 | 0x0080      |         128 |
|      99 | 0xFFF690A7  |  4294348967 |
|     100 | 0xFFF62CE4  |  4294323428 |
|     101 | 0xFFFF9B33  |  4294941491 |
|     102 | 0x0EB1      |        3761 |
|     103 | 0xFFFAEE7D  |  4294635133 |
|     104 | 0xFFF941C6  |  4294525382 |
|     105 | 0xFFFE8CB1  |  4294872241 |
|     106 | 0x0EB0      |        3760 |
|     107 | 0xFFFFCF50  |  4294954832 |
|     108 | 0xFFF61B47  |  4294318919 |
|     109 | 0xFFFD07BB  |  4294772667 |
|     110 | 0x0EBA      |        3770 |
|     111 | 0x4EF35     |      323381 |
|     112 | 0xFFF93A6F  |  4294523503 |
|     113 | 0xFFFE5868  |  4294858856 |
|     114 | 0x0EA0      |        3744 |
|     115 | 0x92763     |      599907 |
|     116 | 0xFFF5AB97  |  4294290327 |
|     117 | 0xFFFFA837  |  4294944823 |
|     118 | 0x0EB3      |        3763 |
|     119 | 0x66879     |      419961 |
|     120 | 0x72BC8     |      469960 |
|     121 | 0x0C00      |        3072 |
|     122 | 0x00A8      |         168 |
|     123 | 0x30D7B     |      200059 |
|     124 | 0xFFFFAA3A  |  4294945338 |
|     125 | 0xFFFFFF06  |  4294967046 |
|     126 | 0x0411      |        1041 |
|     127 | 0x00CA      |         202 |
|     128 | 0x837EC     |      538604 |
|     129 | 0x7A88C     |      501900 |
|     130 | 0xFFFFC98A  |  4294953354 |
|     131 | 0x0CBC      |        3260 |
|     132 | 0x00CB      |         203 |
|     133 | 0x870F5     |      553205 |
|     134 | 0x8FF41     |      589633 |
|     135 | 0xFFFFFFEB  |  4294967275 |
|     136 | 0x0587      |        1415 |
|     137 | 0x00D3      |         211 |
|     138 | 0x8AF88     |      569224 |
|     139 | 0x85E6E     |      548462 |
|     140 | 0x8FE5      |       36837 |
|     141 | 0x02A1      |         673 |
|     142 | 0x0024      |          36 |
|     143 | 0x1CF1      |        7409 |
|     144 | 0x1CF0      |        7408 |
|     145 | 0x1DC4      |        7620 |
|     146 | 0x1CF3      |        7411 |
|     147 | 0x1CF2      |        7410 |
|     148 | 0x668C0     |      420032 |
|     149 | 0x60E3B     |      396859 |
|     150 | 0x0BF1      |        3057 |
|     151 | 0x00B2      |         178 |
|     152 | 0x668A4     |      420004 |
|     153 | 0x612EE     |      398062 |
|     154 | 0x004B      |          75 |
|     155 | 0x008C      |         140 |
|     156 | 0x66894     |      419988 |
|     157 | 0x6AF21     |      438049 |
|     158 | 0x004C      |          76 |
|     159 | 0x0096      |         150 |
|     160 | 0x0078      |         120 |
|     161 | 0x1B9D      |        7069 |
|     162 | 0x668C6     |      420038 |
|     163 | 0x621F8     |      401912 |
|     164 | 0x03F4      |        1012 |
|     165 | 0x00B3      |         179 |
|     166 | 0x002D      |          45 |
|     167 | 0x00D7      |         215 |
|     168 | 0x6755F     |      423263 |
|     169 | 0xFFFE795A  |  4294867290 |
|     170 | 0xFFFFEFFB  |  4294963195 |
|     171 | 0x0800      |        2048 |
|     172 | 0xFFF99741  |  4294547265 |
|     173 | 0xFFF996CA  |  4294547146 |
|     174 | 0xFFFFF92A  |  4294965546 |
|     175 | 0xFFF996F8  |  4294547192 |
|     176 | 0xFFFBE074  |  4294697076 |
|     177 | 0xFFF99764  |  4294547300 |
|     178 | 0xFFFBF141  |  4294701377 |
|     179 | 0xFFFFFE0D  |  4294966797 |
|     180 | 0xFFF99759  |  4294547289 |
|     181 | 0xFFFBB30F  |  4294685455 |
|     182 | 0xFFF9976E  |  4294547310 |
|     183 | 0xFFFBC664  |  4294690404 |
|     184 | 0xFFF77C3F  |  4294409279 |
|     185 | 0xFFF99781  |  4294547329 |
|     186 | 0xFFF76854  |  4294404180 |
|     187 | 0xFFF99760  |  4294547296 |
|     188 | 0x5768B     |      358027 |
|     189 | 0x58611     |      362001 |
|     190 | 0x57670     |      358000 |
|     191 | 0x00AA      |         170 |
|     192 | 0x1DCE      |        7630 |
|     193 | 0x1DCC      |        7628 |
|     194 | 0xFFF84F40  |  4294463296 |
|     195 | 0xFFFE7961  |  4294867297 |
|     196 | 0xFFFFF6B9  |  4294964921 |
|     197 | 0xFFFC1800  |  4294711296 |
|     198 | 0xFFFD5081  |  4294791297 |
|     199 | 0xFFF551A1  |  4294267297 |
|     200 | 0xFFF86E81  |  4294471297 |
|     201 | 0xFFF4B561  |  4294227297 |
|     202 | 0xFFF987C1  |  4294543297 |
|     203 | 0x1DCA      |        7626 |
|     204 | 0x1DCB      |        7627 |
|     205 | 0x02C6      |         710 |
|     206 | 0x02C7      |         711 |
|     207 | 0x1DD4      |        7636 |
|     208 | 0x005E      |          94 |
|     209 | 0x668A0     |      420000 |
|     210 | 0x5CC60     |      380000 |
|     211 | 0x1DCD      |        7629 |
|     212 | 0xFFF84F41  |  4294463297 |
|     213 | 0xAAE5F     |      699999 |
|     214 | 0x7B0BF     |      503999 |
|     215 | 0x84CFF     |      543999 |
|     216 | 0xB4A9F     |      739999 |
|     217 | 0x5BCBF     |      375999 |
|     218 | 0x1869F     |       99999 |
|     219 | 0xFFFFF6BA  |  4294964922 |
|     220 | 0x7917F     |      495999 |
|     221 | 0x2AF7F     |      175999 |
|     222 | 0x52080     |      336000 |
|     223 | 0xFFFE7960  |  4294867296 |
|     224 | 0x1000      |        4096 |
|     225 | 0xFFFADF81  |  4294631297 |
|     226 | 0xB4AA0     |      740000 |
|     227 | 0xA21C0     |      664000 |
|     228 | 0xFFF551A0  |  4294267296 |
|     229 | 0xFFFAC041  |  4294623297 |
|     230 | 0x53FBF     |      343999 |
|     231 | 0xFFF5DE40  |  4294303296 |
|     232 | 0xFFF4B560  |  4294227296 |
|     233 | 0x5207F     |      335999 |
|     234 | 0xA21BF     |      663999 |
|     235 | 0xFFF99752  |  4294547282 |
|     236 | 0x3A3C3     |      238531 |
|     237 | 0x0C09      |        3081 |
|     238 | 0xFFF99732  |  4294547250 |
|     239 | 0x3B1C3     |      242115 |
|     240 | 0x6688D     |      419981 |
|     241 | 0x6A944     |      436548 |
|     242 | 0x66899     |      419993 |
|     243 | 0x6B26E     |      438894 |
|     244 | 0x0025      |          37 |
|     245 | 0x6C3CE     |      443342 |
|     246 | 0x668A3     |      420003 |
|     247 | 0x6E024     |      450596 |
|     248 | 0x6E839     |      452665 |
|     249 | 0x669CD     |      420301 |
|     250 | 0x6D91A     |      448794 |
|     251 | 0x074F      |        1871 |
|     252 | 0x0028      |          40 |
|     253 | 0x6689F     |      419999 |
|     254 | 0x6AB36     |      437046 |
|     255 | 0x1E50      |        7760 |
|     256 | 0x1E51      |        7761 |
|     257 | 0x0C0B      |        3083 |
|     258 | 0x64BA      |       25786 |
|     259 | 0x0C02      |        3074 |
|     260 | 0x0205      |         517 |
|     261 | 0xFFFF7957  |  4294932823 |
|     262 | 0xFFFFFE0C  |  4294966796 |
|     263 | 0x03F9      |        1017 |
|     264 | 0x0249      |         585 |
|     265 | 0xFFFF40FD  |  4294918397 |
|     266 | 0xFFFFFBE2  |  4294966242 |
|     267 | 0xFFFFDCFE  |  4294958334 |
|     268 | 0x0BE6      |        3046 |
|     269 | 0xFFFFFC04  |  4294966276 |
|     270 | 0xFFFFE4FC  |  4294960380 |
|     271 | 0xFFFFFB8F  |  4294966159 |
|     272 | 0x08C1      |        2241 |
|     273 | 0xFFFFFBA8  |  4294966184 |
|     274 | 0x1633      |        5683 |
|     275 | 0x0026      |          38 |
|     276 | 0xFFFFFBAA  |  4294966186 |
|     277 | 0x02D3      |         723 |
|     278 | 0xFFFFFB41  |  4294966081 |
|     279 | 0x0CB0      |        3248 |
|     280 | 0x0C34      |        3124 |
|     281 | 0xFFFFFBC2  |  4294966210 |
|     282 | 0x66880     |      419968 |
|     283 | 0x7E67C     |      517756 |
|     284 | 0xFFFFFD8F  |  4294966671 |
|     285 | 0x0BF5      |        3061 |
|     286 | 0x668B3     |      420019 |
|     287 | 0x7F6B8     |      521912 |
|     288 | 0x06C8      |        1736 |
|     289 | 0xACE6      |       44262 |
|     290 | 0xFFFFF831  |  4294965297 |
|     291 | 0x0410      |        1040 |

## String References

- **7068**: Enter the battlefield? [Enter./Decline.]
- **7069**: Leave the battlefield? [Run away./Stay.]
- **7071**: You cannot enter the battlefield at present. Please wait a little longer.
- **7079**: You are cleared to enter the battlefield, but you cannot while party members are engaged in combat.
- **7080**: You are cleared to enter the battlefield, but you cannot while party members are engaged in combat.
- **7081**: You are cleared to enter the battlefield, but you cannot while party members are engaged in combat.
- **7082**: You are cleared to enter the battlefield, but you cannot while party members are engaged in combat.
- **7118**: You do not meet the requirements to enter the battlefield. Access is denied.
- **7407**: Skip the event? [Yes./No.]
- **7408**: Battlefield clear time: $3 second[/s]!
- **7409**: Battlefield clear time: $3 minute[/s], $2 second[/s]!
- **7410**: The current battlefield clear time record is $3 second[/s].
- **7411**: The current battlefield clear time record is $3 minute[/s] $2 second[/s].
- **7427**: Only $3 [member/members] have clearance to enter the battlefield. This room has reached its maximum capacity.
- **7431**: That record is held by $5 adventurers, including %0!
- **7432**: That record is held by %0!
- **7433**: Select difficulty. [Very difficult. (Level: ???)/Difficult. (Level: ???)/Normal. (Level: $18)/Easy. (Level: $17)/Very Easy. (Level: $16)/Leave.]
- **7620**: You have broken the clear time record for "[When Angels Fall/]"!
- **7621**: The current battlefield clear time record for "[When Angels Fall/]" is $3 second[/s].
- **7622**: The current battlefield clear time record for "[When Angels Fall/]" is $3 minute[/s] $2 second[/s].
- **7624**: Which battlefield will you enter? [None./When Angels Fall././././././././././././././././././././././././././././././]
- **7626**: Use the device? [Ascend./Descend./Do nothing.]
- **7627**: Nothing happens...
- **7628**: Use the device? [Yes./No.]
- **7629**: This device appears to be connected to the level below.
- **7630**: This device appears to be connected to the level above.
- **7636**: 3 and $3 confirmed. Access granted.
- **7760**: What will you do? [Return to the Luminous Convergence?/Do nothing.]
- **7761**: Return to the Luminous Convergence? [Yes./No.]

## Events

### Event 65535

#### Metadata

| Field        | Value   |
|--------------|---------|
| Entrypoint   | 0x0000  |
| Data Size    | 1 bytes |
| Instructions | 1       |

```
      00 01 02 03 04 05 06 07  08 09 0A 0B 0C 0D 0E 0F
      -- -- -- -- -- -- -- --  -- -- -- -- -- -- -- --
0000: 00                                                .               
```

#### Opcodes

```
  0: 0x0000 [0x00] END_REQSTACK()
```

### Event 65534

#### Metadata

| Field        | Value   |
|--------------|---------|
| Entrypoint   | 0x0001  |
| Data Size    | 1 bytes |
| Instructions | 1       |

```
      00 01 02 03 04 05 06 07  08 09 0A 0B 0C 0D 0E 0F
      -- -- -- -- -- -- -- --  -- -- -- -- -- -- -- --
0000:    00                                              .              
```

#### Opcodes

```
  0: 0x0001 [0x00] END_REQSTACK()
```

### Event 32000

#### Metadata

| Field        | Value      |
|--------------|------------|
| Entrypoint   | 0x0002     |
| Data Size    | 2116 bytes |
| Instructions | 279        |

```
      00 01 02 03 04 05 06 07  08 09 0A 0B 0C 0D 0E 0F
      -- -- -- -- -- -- -- --  -- -- -- -- -- -- -- --
0000:       20 01 79 00 F0 FF  FF 7F F0 FF FF 7F 03 02     .y...........
0010: 00 02 10 03 03 00 03 10  03 05 00 04 10 03 06 00  ................
0020: 05 10 03 0F 00 06 10 03  10 00 07 10 03 11 00 08  ................
0030: 10 41 00 80 01 80 09 10  07 00 41 02 80 03 80 09  .A........A.....
0040: 10 06 10 06 01 00 02 07  00 00 80 00 45 01 03 08  ............E...
0050: 00 04 80 0F 08 00 06 00  10 08 00 05 80 24 06 80  .............$..
0060: 00 80 08 00 25 02 00 10  00 80 00 73 00 01 2B 08  ....%......s..+.
0070: 01 45 01 03 03 00 00 10  0C 03 00 06 16 00 06 13  .E..............
0080: 00 3E 0F 00 03 00 21 01  06 0F 00 06 08 00 3E 11  .>....!.......>.
0090: 00 03 00 98 00 01 9F 00  3C 08 00 00 80 05 80 3E  ........<......>
00A0: 10 00 03 00 A9 00 01 B0  00 3C 08 00 05 80 05 80  .........<......
00B0: 1A 16 14 24 07 80 08 80  08 00 25 02 00 10 00 80  ...$......%.....
00C0: 00 CB 00 03 0F 00 05 80  01 1E 01 02 00 10 05 80  ................
00D0: 00 DB 00 03 0F 00 09 80  01 1E 01 02 00 10 09 80  ................
00E0: 00 EB 00 03 0F 00 0A 80  01 1E 01 02 00 10 0A 80  ................
00F0: 00 FB 00 03 0F 00 0B 80  01 1E 01 02 00 10 0B 80  ................
0100: 00 0B 01 03 0F 00 08 80  01 1E 01 02 00 10 08 80  ................
0110: 00 19 01 01 2B 08 01 1E  01 03 0F 00 0A 80 01 45  ....+..........E
0120: 01 06 0F 00 1A 45 08 02  16 00 05 80 00 45 01 24  .....E.......E.$
0130: 0C 80 05 80 00 80 25 02  00 10 05 80 00 45 01 01  ......%......E..
0140: 2B 08 01 45 01 42 03 01  10 0D 80 43 00 43 01 06  +..E.B.....C.C..
0150: 01 10 45 0E 80 F0 FF FF  7F F0 FF FF 7F 66 64 6F  ..E..........fdo
0160: 31 00 80 55 0E 80 F0 FF  FF 7F F0 FF FF 7F 66 64  1..U..........fd
0170: 6F 31 3B F0 FF FF 7F 20  10 21 10 22 10 38 0F 80  o1;.... .!.".8..
0180: 02 07 00 05 80 00 9F 01  03 00 00 05 80 03 04 00  ................
0190: 03 00 03 02 00 00 80 03  1C 00 00 80 01 5F 05 03  ............._..
01A0: 00 00 05 80 02 00 00 05  80 05 F4 07 02 00 80 05  ................
01B0: 80 00 B9 01 03 00 00 05  00 40 00 80 0A 80 01 10  .........@......
01C0: 00 00 40 0B 80 10 80 01  10 03 00 40 11 80 12 80  ..@........@....
01D0: 01 10 0F 00 06 02 10 06  03 10 06 04 10 1A B3 16  ................
01E0: 47 00 09 00 0A 00 0B 00  0C 00 47 01 03 04 00 03  G.........G.....
01F0: 10 03 02 00 04 10 03 1A  00 05 10 03 0D 00 06 10  ................
0200: 03 0E 00 07 10 03 1C 00  09 10 02 02 10 05 80 80  ................
0210: 15 02 01 E1 07 02 02 10  0B 80 80 5F 02 02 00 00  ..........._....
0220: 05 80 80 2C 02 48 13 80  23 01 59 02 02 00 00 09  ...,.H..#.Y.....
0230: 80 80 3B 02 48 14 80 23  01 59 02 02 00 00 0A 80  ..;.H..#.Y......
0240: 80 4A 02 48 15 80 23 01  59 02 02 00 00 0B 80 80  .J.H..#.Y.......
0250: 59 02 48 16 80 23 01 59  02 01 F8 07 01 E1 07 02  Y.H..#.Y........
0260: 02 10 08 80 80 71 02 48  17 80 23 01 F8 07 01 E1  .....q.H..#.....
0270: 07 02 02 10 18 80 80 73  04 02 04 00 00 80 80 89  .......s........
0280: 02 03 05 10 18 80 01 69  04 02 04 00 05 80 80 99  .......i........
0290: 02 03 05 10 00 80 01 69  04 02 04 00 09 80 80 A9  .......i........
02A0: 02 03 05 10 00 80 01 69  04 02 04 00 0A 80 80 B9  .......i........
02B0: 02 03 05 10 00 80 01 69  04 02 04 00 0B 80 80 C9  .......i........
02C0: 02 03 05 10 00 80 01 69  04 02 04 00 08 80 80 D9  .......i........
02D0: 02 03 05 10 00 80 01 69  04 02 04 00 18 80 80 E9  .......i........
02E0: 02 03 05 10 00 80 01 69  04 02 04 00 19 80 80 F9  .......i........
02F0: 02 03 05 10 00 80 01 69  04 02 04 00 10 80 80 09  .......i........
0300: 03 03 05 10 00 80 01 69  04 02 04 00 11 80 80 19  .......i........
0310: 03 03 05 10 00 80 01 69  04 02 04 00 1A 80 80 29  .......i.......)
0320: 03 03 05 10 00 80 01 69  04 02 04 00 12 80 80 39  .......i.......9
0330: 03 03 05 10 00 80 01 69  04 02 04 00 1B 80 80 49  .......i.......I
0340: 03 03 05 10 00 80 01 69  04 02 04 00 1C 80 80 59  .......i.......Y
0350: 03 03 05 10 00 80 01 69  04 02 04 00 1D 80 80 69  .......i.......i
0360: 03 03 05 10 00 80 01 69  04 02 04 00 01 80 80 79  .......i.......y
0370: 03 03 05 10 00 80 01 69  04 02 04 00 02 80 80 89  .......i........
0380: 03 03 05 10 00 80 01 69  04 02 04 00 1E 80 80 99  .......i........
0390: 03 03 05 10 00 80 01 69  04 02 04 00 1F 80 80 A9  .......i........
03A0: 03 03 05 10 00 80 01 69  04 02 04 00 0F 80 80 B9  .......i........
03B0: 03 03 05 10 00 80 01 69  04 02 04 00 20 80 80 C9  .......i.... ...
03C0: 03 03 05 10 00 80 01 69  04 02 04 00 21 80 80 D9  .......i....!...
03D0: 03 03 05 10 00 80 01 69  04 02 04 00 22 80 80 E9  .......i...."...
03E0: 03 03 05 10 00 80 01 69  04 02 04 00 23 80 80 F9  .......i....#...
03F0: 03 03 05 10 00 80 01 69  04 02 04 00 24 80 80 09  .......i....$...
0400: 04 03 05 10 00 80 01 69  04 02 04 00 25 80 80 19  .......i....%...
0410: 04 03 05 10 00 80 01 69  04 02 04 00 26 80 80 29  .......i....&..)
0420: 04 03 05 10 00 80 01 69  04 02 04 00 27 80 80 39  .......i....'..9
0430: 04 03 05 10 00 80 01 69  04 02 04 00 28 80 80 49  .......i....(..I
0440: 04 03 05 10 00 80 01 69  04 02 04 00 29 80 80 59  .......i....)..Y
0450: 04 03 05 10 00 80 01 69  04 02 04 00 2A 80 80 69  .......i....*..i
0460: 04 03 05 10 00 80 01 69  04 48 2B 80 23 01 F8 07  .......i.H+.#...
0470: 01 E1 07 02 02 10 0A 80  80 81 04 01 9F 01 01 E1  ................
0480: 07 02 02 10 09 80 80 E1  07 02 0D 00 00 80 01 15  ................
0490: 05 02 13 00 00 80 01 C9  04 03 05 10 1A 00 02 1A  ................
04A0: 00 00 80 02 A6 04 02 0D  00 05 80 05 B5 04 48 2C  ..............H,
04B0: 80 23 01 C6 04 03 06 10  0D 00 0C 06 10 03 07 10  .#..............
04C0: 0D 00 48 2D 80 23 01 15  05 03 05 10 1A 00 02 1A  ..H-.#..........
04D0: 00 00 80 02 F5 04 02 1A  00 2E 80 04 F1 04 3F 04  ..............?.
04E0: 10 05 10 2E 80 15 05 10  2E 80 48 2F 80 23 01 F5  ..........H/.#..
04F0: 04 48 30 80 23 02 0D 00  05 80 05 04 05 48 2C 80  .H0.#........H,.
0500: 23 01 15 05 03 06 10 0D  00 0C 06 10 03 07 10 0D  #...............
0510: 00 48 2D 80 23 03 03 00  04 00 03 14 00 31 80 07  .H-.#........1..
0520: 14 00 03 00 02 02 00 14  00 00 34 05 03 02 00 05  ..........4.....
0530: 80 01 39 05 03 02 00 00  80 02 02 00 00 80 00 5F  ..9............_
0540: 05 02 0E 00 05 80 00 5F  05 24 32 80 05 80 00 80  ......._.$2.....
0550: 25 02 00 10 00 80 00 5F  05 05 02 00 01 5F 05 06  %......_....._..
0560: 15 00 02 04 00 00 80 80  72 05 03 15 00 00 80 01  ........r.......
0570: 57 07 02 04 00 05 80 80  82 05 03 15 00 00 80 01  W...............
0580: 57 07 02 04 00 09 80 80  92 05 03 15 00 00 80 01  W...............
0590: 57 07 02 04 00 0A 80 80  A2 05 03 15 00 00 80 01  W...............
05A0: 57 07 02 04 00 0B 80 80  B2 05 03 15 00 00 80 01  W...............
05B0: 57 07 02 04 00 08 80 80  C2 05 03 15 00 00 80 01  W...............
05C0: 57 07 02 04 00 18 80 80  D2 05 03 15 00 00 80 01  W...............
05D0: 57 07 02 04 00 19 80 80  E2 05 03 15 00 00 80 01  W...............
05E0: 57 07 02 04 00 10 80 80  F2 05 03 15 00 00 80 01  W...............
05F0: 57 07 02 04 00 11 80 80  02 06 03 15 00 00 80 01  W...............
0600: 57 07 02 04 00 1A 80 80  12 06 03 15 00 00 80 01  W...............
0610: 57 07 02 04 00 12 80 80  22 06 03 15 00 00 80 01  W.......".......
0620: 57 07 02 04 00 1B 80 80  32 06 03 15 00 00 80 01  W.......2.......
0630: 57 07 02 04 00 1C 80 80  42 06 03 15 00 00 80 01  W.......B.......
0640: 57 07 02 04 00 1D 80 80  52 06 03 15 00 00 80 01  W.......R.......
0650: 57 07 02 04 00 01 80 80  62 06 03 15 00 00 80 01  W.......b.......
0660: 57 07 02 04 00 02 80 80  72 06 03 15 00 00 80 01  W.......r.......
0670: 57 07 02 04 00 1E 80 80  82 06 03 15 00 00 80 01  W...............
0680: 57 07 02 04 00 1F 80 80  92 06 03 15 00 00 80 01  W...............
0690: 57 07 02 04 00 0F 80 80  A2 06 03 15 00 00 80 01  W...............
06A0: 57 07 02 04 00 20 80 80  B2 06 03 15 00 00 80 01  W.... ..........
06B0: 57 07 02 04 00 21 80 80  C2 06 03 15 00 00 80 01  W....!..........
06C0: 57 07 02 04 00 22 80 80  D2 06 03 15 00 00 80 01  W...."..........
06D0: 57 07 02 04 00 23 80 80  E2 06 03 15 00 00 80 01  W....#..........
06E0: 57 07 02 04 00 24 80 80  F2 06 03 15 00 00 80 01  W....$..........
06F0: 57 07 02 04 00 25 80 80  02 07 03 15 00 00 80 01  W....%..........
0700: 57 07 02 04 00 26 80 80  12 07 03 15 00 00 80 01  W....&..........
0710: 57 07 02 04 00 27 80 80  22 07 03 15 00 00 80 01  W....'..".......
0720: 57 07 02 04 00 28 80 80  32 07 03 15 00 00 80 01  W....(..2.......
0730: 57 07 02 04 00 29 80 80  42 07 03 15 00 00 80 01  W....)..B.......
0740: 57 07 02 04 00 2A 80 80  52 07 03 15 00 00 80 01  W....*..R.......
0750: 57 07 03 15 00 00 80 02  02 00 05 80 00 72 07 5C  W............r.\
0760: 00 33 80 5C 01 33 80 5C  02 33 80 5C 03 33 80 01  .3.\.3.\.3.\.3..
0770: 8A 07 02 15 00 00 80 00  8A 07 5C 00 33 80 5C 01  ..........\.3.\.
0780: 33 80 5C 02 33 80 5C 03  33 80 02 02 00 00 80 00  3.\.3.\.3.......
0790: 98 07 1A 09 10 01 D1 07  6C F0 FF FF 7F 00 80 05  ........l.......
07A0: 80 62 09 80 F0 FF FF 7F  F0 FF FF 7F 6D 61 69 6E  .b..........main
07B0: 00 80 45 0E 80 F0 FF FF  7F F0 FF FF 7F 6F 76 6C  ..E..........ovl
07C0: 31 00 80 46 02 12 00 02  12 00 00 80 00 D1 07 46  1..F...........F
07D0: 00 03 01 10 31 80 07 01  10 03 00 01 F8 07 01 E1  ....1...........
07E0: 07 0B 00 00 02 00 80 05  80 00 F1 07 03 00 00 09  ................
07F0: 80 01 A4 01 48 34 80 23  45 35 80 F0 FF FF 7F F0  ....H4.#E5......
0800: FF FF 7F 77 68 69 31 00  80 45 0E 80 F0 FF FF 7F  ...whi1..E......
0810: F0 FF FF 7F 62 6C 6F 66  00 80 45 0E 80 F0 FF FF  ....blof..E.....
0820: 7F F0 FF FF 7F 66 64 69  30 00 80 02 07 00 05 80  .....fdi0.......
0830: 00 43 08 5C 00 36 80 5C  01 36 80 5C 02 37 80 5C  .C.\.6.\.6.\.7.\
0840: 03 38 80 21 00 1B                                 .8.!..          
```

#### Opcodes

```
  0: 0x0002 [0x20] SET_CLI_EVENT_UC_FLAG: Lock player control
  1: 0x0004 [0x79] LocalPlayer looks at LocalPlayer (Basic look)
  2: 0x000E [0x03] ExtData[1]->WorkLocal[2] = Work_Zone[2]
  3: 0x0013 [0x03] ExtData[1]->WorkLocal[3] = Work_Zone[3]
  4: 0x0018 [0x03] ExtData[1]->WorkLocal[5] = Work_Zone[4]
  5: 0x001D [0x03] ExtData[1]->WorkLocal[6] = Work_Zone[5]
  6: 0x0022 [0x03] ExtData[1]->WorkLocal[15] = Work_Zone[6]
  7: 0x0027 [0x03] ExtData[1]->WorkLocal[16] = Work_Zone[7]
  8: 0x002C [0x03] ExtData[1]->WorkLocal[17] = Work_Zone[8]
  9: 0x0031 [0x41] ExtData[1]->WorkLocal[7] = Work_Zone[9] (bits 0*-15*)
 10: 0x003A [0x41] Work_Zone[6] = Work_Zone[9] (bits 16*-31*)
 11: 0x0043 [0x06] ExtData[1]->WorkLocal[1] = 0
 12: 0x0046 [0x02] IF !(ExtData[1]->WorkLocal[7] == 0*) GOTO 0x0145
 13: 0x004E [0x03] ExtData[1]->WorkLocal[8] = 4294967295*
 14: 0x0053 [0x0F] ExtData[1]->WorkLocal[8] ^= ExtData[1]->WorkLocal[6]
 15: 0x0058 [0x10] ExtData[1]->WorkLocal[8] <<= 1*
 16: 0x005D [0x24] CREATE_DIALOG(message_id=7624*, default_option=0*, option_flags=ExtData[1]->WorkLocal[8])
    → "Which battlefield will you enter? [None./When Angels Fall././././././././././././././././././././././././././././././]"
 17: 0x0064 [0x25] WAIT_DIALOG_SELECT()
 18: 0x0065 [0x02] IF !(Work_Zone[0] == 0*) GOTO 0x0073
 19: 0x006D [0x01] GOTO 0x082B

SUBROUTINE_009F:
 20: 0x009F [0x3E] IF !(ExtData[1]->WorkLocal[16] bit ExtData[1]->WorkLocal[3]) GOTO 0x00A9
 21: 0x00A6 [0x01] GOTO 0x00B0
 22: 0x00A9 [0x3C] SET_BIT_FLAG_CONDITIONAL(target_work_offset=ExtData[1]->WorkLocal[8], bit_index_work_offset=1*, condition_work_offset=1*)

SUBROUTINE_00B0:
 23: 0x00B0 [0x1A] CALL_SUBROUTINE(address=0x1416)
 24: 0x00B3 [0x24] CREATE_DIALOG(message_id=7433*, default_option=5*, option_flags=ExtData[1]->WorkLocal[8])
    → "Select difficulty. [Very difficult. (Level: ???)/Difficult. (Level: ???)/Normal. (Level: $18)/Easy. (Level: $17)/Very Easy. (Level: $16)/Leave.]"
 25: 0x00BA [0x25] WAIT_DIALOG_SELECT()
 26: 0x00BB [0x02] IF !(Work_Zone[0] == 0*) GOTO 0x00CB
 27: 0x00C3 [0x03] ExtData[1]->WorkLocal[15] = 1*
 28: 0x00C8 [0x01] GOTO 0x011E
 29: 0x00CB [0x02] IF !(Work_Zone[0] == 1*) GOTO 0x00DB
 30: 0x00D3 [0x03] ExtData[1]->WorkLocal[15] = 2*
 31: 0x00D8 [0x01] GOTO 0x011E
 32: 0x00DB [0x02] IF !(Work_Zone[0] == 2*) GOTO 0x00EB
 33: 0x00E3 [0x03] ExtData[1]->WorkLocal[15] = 3*
 34: 0x00E8 [0x01] GOTO 0x011E
 35: 0x00EB [0x02] IF !(Work_Zone[0] == 3*) GOTO 0x00FB
 36: 0x00F3 [0x03] ExtData[1]->WorkLocal[15] = 4*
 37: 0x00F8 [0x01] GOTO 0x011E
 38: 0x00FB [0x02] IF !(Work_Zone[0] == 4*) GOTO 0x010B
 39: 0x0103 [0x03] ExtData[1]->WorkLocal[15] = 5*
 40: 0x0108 [0x01] GOTO 0x011E
 41: 0x010B [0x02] IF !(Work_Zone[0] == 5*) GOTO 0x0119
 42: 0x0113 [0x01] GOTO 0x082B

SUBROUTINE_011E:
 43: 0x011E [0x01] GOTO 0x0145
 44: 0x0121 [0x06] ExtData[1]->WorkLocal[15] = 0
 45: 0x0124 [0x1A] CALL_SUBROUTINE(address=0x0845)
 46: 0x0127 [0x02] IF !(ExtData[1]->WorkLocal[22] == 1*) GOTO 0x0145
 47: 0x012F [0x24] CREATE_DIALOG(message_id=7068*, default_option=1*, option_flags=0*)
    → "Enter the battlefield? [Enter./Decline.]"
 48: 0x0136 [0x25] WAIT_DIALOG_SELECT()
 49: 0x0137 [0x02] IF !(Work_Zone[0] == 1*) GOTO 0x0145
 50: 0x013F [0x01] GOTO 0x082B

SUBROUTINE_0145:
 51: 0x0145 [0x42] SET_CLI_EVENT_CANCEL_DATA()
 52: 0x0146 [0x03] Work_Zone[1] = 255*
 53: 0x014B [0x43] SEND_EVENT_UPDATE: Send pending tag to server (packet 0x005B)
 54: 0x014D [0x43] SEND_EVENT_UPDATE: Check pending flag (skip if not pending)
 55: 0x014F [0x06] Work_Zone[1] = 0
 56: 0x0152 [0x45] LOAD_SCHEDULED_TASK: Load scheduler "fdo1" with entities [LocalPlayer, LocalPlayer], work=[200*, 0*]
 57: 0x0163 [0x55] WAIT_LOAD_SCHEDULER: Wait for scheduler "fdo1" with entities [LocalPlayer, LocalPlayer], work=200*
 58: 0x0172 [0x3B] GET_ENTITY_POSITION(entity=LocalPlayer, x_destination=Work_Zone[32], y_destination=Work_Zone[33], z_destination=Work_Zone[34])
 59: 0x017D [0x38] SET_CLIENT_EVENT_MODE(mode=19*)
 60: 0x0180 [0x02] IF !(ExtData[1]->WorkLocal[7] == 1*) GOTO 0x019F
 61: 0x0188 [0x03] ExtData[1]->WorkLocal[0] = 1*
 62: 0x018D [0x03] ExtData[1]->WorkLocal[4] = ExtData[1]->WorkLocal[3]
 63: 0x0192 [0x03] ExtData[1]->WorkLocal[2] = 0*
 64: 0x0197 [0x03] ExtData[1]->WorkLocal[28] = 0*
 65: 0x019C [0x01] GOTO 0x055F

SUBROUTINE_019F:
 66: 0x019F [0x03] ExtData[1]->WorkLocal[0] = 1*

SUBROUTINE_01A4:
 67: 0x01A4 [0x02] IF !(ExtData[1]->WorkLocal[0] > 1*) GOTO 0x07F4
 68: 0x01AC [0x02] IF !(0* == 1*) GOTO 0x01B9
 69: 0x01B4 [0x03] ExtData[1]->WorkLocal[0] = ExtData[1]->WorkLocal[5]
 70: 0x01B9 [0x40] SET_BIT_WORK_RANGE(start_bit=0*, end_bit=3*, target=Work_Zone[1], source=ExtData[1]->WorkLocal[0])
 71: 0x01C2 [0x40] SET_BIT_WORK_RANGE(start_bit=4*, end_bit=8*, target=Work_Zone[1], source=ExtData[1]->WorkLocal[3])
 72: 0x01CB [0x40] SET_BIT_WORK_RANGE(start_bit=9*, end_bit=11*, target=Work_Zone[1], source=ExtData[1]->WorkLocal[15])
 73: 0x01D4 [0x06] Work_Zone[2] = 0
 74: 0x01D7 [0x06] Work_Zone[3] = 0
 75: 0x01DA [0x06] Work_Zone[4] = 0
 76: 0x01DD [0x1A] CALL_SUBROUTINE(address=0x16B3)
 77: 0x01E0 [0x47] UPDATE_PLAYER_POS(ExtData[1]->WorkLocal[9], ExtData[1]->WorkLocal[10], ExtData[1]->WorkLocal[11], yaw=ExtData[1]->WorkLocal[12])
 78: 0x01EA [0x47] WAIT_PLAYER_POS_UPDATE
 79: 0x01EC [0x03] ExtData[1]->WorkLocal[4] = Work_Zone[3]
 80: 0x01F1 [0x03] ExtData[1]->WorkLocal[2] = Work_Zone[4]
 81: 0x01F6 [0x03] ExtData[1]->WorkLocal[26] = Work_Zone[5]
 82: 0x01FB [0x03] ExtData[1]->WorkLocal[13] = Work_Zone[6]
 83: 0x0200 [0x03] ExtData[1]->WorkLocal[14] = Work_Zone[7]
 84: 0x0205 [0x03] ExtData[1]->WorkLocal[28] = Work_Zone[9]
 85: 0x020A [0x02] IF !(Work_Zone[2] == 1*) GOTO 0x0215
 86: 0x0212 [0x01] GOTO 0x07E1
 87: 0x0215 [0x02] IF !(Work_Zone[2] == 4*) GOTO 0x025F
 88: 0x021D [0x02] IF !(ExtData[1]->WorkLocal[0] == 1*) GOTO 0x022C
 89: 0x0225 [0x48] [System] [7079*]:
    → "You are cleared to enter the battlefield, but you cannot while party members are engaged in combat."
 90: 0x0228 [0x23] WAIT_FOR_DIALOG_INTERACTION
 91: 0x0229 [0x01] GOTO 0x0259
 92: 0x022C [0x02] IF !(ExtData[1]->WorkLocal[0] == 2*) GOTO 0x023B
 93: 0x0234 [0x48] [System] [7080*]:
    → "You are cleared to enter the battlefield, but you cannot while party members are engaged in combat."
 94: 0x0237 [0x23] WAIT_FOR_DIALOG_INTERACTION
 95: 0x0238 [0x01] GOTO 0x0259
 96: 0x023B [0x02] IF !(ExtData[1]->WorkLocal[0] == 3*) GOTO 0x024A
 97: 0x0243 [0x48] [System] [7081*]:
    → "You are cleared to enter the battlefield, but you cannot while party members are engaged in combat."
 98: 0x0246 [0x23] WAIT_FOR_DIALOG_INTERACTION
 99: 0x0247 [0x01] GOTO 0x0259
100: 0x024A [0x02] IF !(ExtData[1]->WorkLocal[0] == 4*) GOTO 0x0259
101: 0x0252 [0x48] [System] [7082*]:
    → "You are cleared to enter the battlefield, but you cannot while party members are engaged in combat."
102: 0x0255 [0x23] WAIT_FOR_DIALOG_INTERACTION
103: 0x0256 [0x01] GOTO 0x0259

SUBROUTINE_0259:
104: 0x0259 [0x01] GOTO 0x07F8

SUBROUTINE_0469:
105: 0x0469 [0x48] [System] [7427*]:
    → "Only $3 [member/members] have clearance to enter the battlefield. This room has reached its maximum capacity."
106: 0x046C [0x23] WAIT_FOR_DIALOG_INTERACTION
107: 0x046D [0x01] GOTO 0x07F8

SUBROUTINE_04C6:
108: 0x04C6 [0x01] GOTO 0x0515
109: 0x04C9 [0x03] Work_Zone[5] = ExtData[1]->WorkLocal[26]
110: 0x04CE [0x02] IF !(ExtData[1]->WorkLocal[26] <= 0*) GOTO 0x04F5
111: 0x04D6 [0x02] IF !(ExtData[1]->WorkLocal[26] < 60*) GOTO 0x04F1
112: 0x04DE [0x3F] Work_Zone[4] = Work_Zone[5] % 60*
113: 0x04E5 [0x15] Work_Zone[5] /= 60*
114: 0x04EA [0x48] [System] [7622*]:
    → "The current battlefield clear time record for "[When Angels Fall/]" is $3 minute[/s] $2 second[/s]."
115: 0x04ED [0x23] WAIT_FOR_DIALOG_INTERACTION
116: 0x04EE [0x01] GOTO 0x04F5
117: 0x04F1 [0x48] [System] [7621*]:
    → "The current battlefield clear time record for "[When Angels Fall/]" is $3 second[/s]."
118: 0x04F4 [0x23] WAIT_FOR_DIALOG_INTERACTION

SUBROUTINE_04F5:
119: 0x04F5 [0x02] IF !(ExtData[1]->WorkLocal[13] > 1*) GOTO 0x0504
120: 0x04FD [0x48] [System] [7432*]:
    → "That record is held by %0!"
121: 0x0500 [0x23] WAIT_FOR_DIALOG_INTERACTION
122: 0x0501 [0x01] GOTO 0x0515
123: 0x0504 [0x03] Work_Zone[6] = ExtData[1]->WorkLocal[13]
124: 0x0509 [0x0C] Work_Zone[6]--
125: 0x050C [0x03] Work_Zone[7] = ExtData[1]->WorkLocal[13]
126: 0x0511 [0x48] [System] [7431*]:
    → "That record is held by $5 adventurers, including %0!"
127: 0x0514 [0x23] WAIT_FOR_DIALOG_INTERACTION

SUBROUTINE_0515:
128: 0x0515 [0x03] ExtData[1]->WorkLocal[3] = ExtData[1]->WorkLocal[4]
129: 0x051A [0x03] ExtData[1]->WorkLocal[20] = 100*
130: 0x051F [0x07] ExtData[1]->WorkLocal[20] += ExtData[1]->WorkLocal[3]
131: 0x0524 [0x02] IF !(ExtData[1]->WorkLocal[2] == ExtData[1]->WorkLocal[20]) GOTO 0x0534
132: 0x052C [0x03] ExtData[1]->WorkLocal[2] = 1*
133: 0x0531 [0x01] GOTO 0x0539
134: 0x0534 [0x03] ExtData[1]->WorkLocal[2] = 0*

SUBROUTINE_0539:
135: 0x0539 [0x02] IF !(ExtData[1]->WorkLocal[2] == 0*) GOTO 0x055F
136: 0x0541 [0x02] IF !(ExtData[1]->WorkLocal[14] == 1*) GOTO 0x055F
137: 0x0549 [0x24] CREATE_DIALOG(message_id=7407*, default_option=1*, option_flags=0*)
    → "Skip the event? [Yes./No.]"
138: 0x0550 [0x25] WAIT_DIALOG_SELECT()
139: 0x0551 [0x02] IF !(Work_Zone[0] == 0*) GOTO 0x055F
140: 0x0559 [0x05] ExtData[1]->WorkLocal[2] = 1
141: 0x055C [0x01] GOTO 0x055F

SUBROUTINE_055F:
142: 0x055F [0x06] ExtData[1]->WorkLocal[21] = 0
143: 0x0562 [0x02] IF !(ExtData[1]->WorkLocal[4] == 0*) GOTO 0x0572
144: 0x056A [0x03] ExtData[1]->WorkLocal[21] = 0*
145: 0x056F [0x01] GOTO 0x0757
146: 0x0572 [0x02] IF !(ExtData[1]->WorkLocal[4] == 1*) GOTO 0x0582
147: 0x057A [0x03] ExtData[1]->WorkLocal[21] = 0*
148: 0x057F [0x01] GOTO 0x0757
149: 0x0582 [0x02] IF !(ExtData[1]->WorkLocal[4] == 2*) GOTO 0x0592
150: 0x058A [0x03] ExtData[1]->WorkLocal[21] = 0*
151: 0x058F [0x01] GOTO 0x0757
152: 0x0592 [0x02] IF !(ExtData[1]->WorkLocal[4] == 3*) GOTO 0x05A2
153: 0x059A [0x03] ExtData[1]->WorkLocal[21] = 0*
154: 0x059F [0x01] GOTO 0x0757
155: 0x05A2 [0x02] IF !(ExtData[1]->WorkLocal[4] == 4*) GOTO 0x05B2
156: 0x05AA [0x03] ExtData[1]->WorkLocal[21] = 0*
157: 0x05AF [0x01] GOTO 0x0757
158: 0x05B2 [0x02] IF !(ExtData[1]->WorkLocal[4] == 5*) GOTO 0x05C2
159: 0x05BA [0x03] ExtData[1]->WorkLocal[21] = 0*
160: 0x05BF [0x01] GOTO 0x0757
161: 0x05C2 [0x02] IF !(ExtData[1]->WorkLocal[4] == 6*) GOTO 0x05D2
162: 0x05CA [0x03] ExtData[1]->WorkLocal[21] = 0*
163: 0x05CF [0x01] GOTO 0x0757
164: 0x05D2 [0x02] IF !(ExtData[1]->WorkLocal[4] == 7*) GOTO 0x05E2
165: 0x05DA [0x03] ExtData[1]->WorkLocal[21] = 0*
166: 0x05DF [0x01] GOTO 0x0757
167: 0x05E2 [0x02] IF !(ExtData[1]->WorkLocal[4] == 8*) GOTO 0x05F2
168: 0x05EA [0x03] ExtData[1]->WorkLocal[21] = 0*
169: 0x05EF [0x01] GOTO 0x0757
170: 0x05F2 [0x02] IF !(ExtData[1]->WorkLocal[4] == 9*) GOTO 0x0602
171: 0x05FA [0x03] ExtData[1]->WorkLocal[21] = 0*
172: 0x05FF [0x01] GOTO 0x0757
173: 0x0602 [0x02] IF !(ExtData[1]->WorkLocal[4] == 10*) GOTO 0x0612
174: 0x060A [0x03] ExtData[1]->WorkLocal[21] = 0*
175: 0x060F [0x01] GOTO 0x0757
176: 0x0612 [0x02] IF !(ExtData[1]->WorkLocal[4] == 11*) GOTO 0x0622
177: 0x061A [0x03] ExtData[1]->WorkLocal[21] = 0*
178: 0x061F [0x01] GOTO 0x0757
179: 0x0622 [0x02] IF !(ExtData[1]->WorkLocal[4] == 12*) GOTO 0x0632
180: 0x062A [0x03] ExtData[1]->WorkLocal[21] = 0*
181: 0x062F [0x01] GOTO 0x0757
182: 0x0632 [0x02] IF !(ExtData[1]->WorkLocal[4] == 13*) GOTO 0x0642
183: 0x063A [0x03] ExtData[1]->WorkLocal[21] = 0*
184: 0x063F [0x01] GOTO 0x0757
185: 0x0642 [0x02] IF !(ExtData[1]->WorkLocal[4] == 14*) GOTO 0x0652
186: 0x064A [0x03] ExtData[1]->WorkLocal[21] = 0*
187: 0x064F [0x01] GOTO 0x0757
188: 0x0652 [0x02] IF !(ExtData[1]->WorkLocal[4] == 15*) GOTO 0x0662
189: 0x065A [0x03] ExtData[1]->WorkLocal[21] = 0*
190: 0x065F [0x01] GOTO 0x0757
191: 0x0662 [0x02] IF !(ExtData[1]->WorkLocal[4] == 16*) GOTO 0x0672
192: 0x066A [0x03] ExtData[1]->WorkLocal[21] = 0*
193: 0x066F [0x01] GOTO 0x0757
194: 0x0672 [0x02] IF !(ExtData[1]->WorkLocal[4] == 17*) GOTO 0x0682
195: 0x067A [0x03] ExtData[1]->WorkLocal[21] = 0*
196: 0x067F [0x01] GOTO 0x0757
197: 0x0682 [0x02] IF !(ExtData[1]->WorkLocal[4] == 18*) GOTO 0x0692
198: 0x068A [0x03] ExtData[1]->WorkLocal[21] = 0*
199: 0x068F [0x01] GOTO 0x0757
200: 0x0692 [0x02] IF !(ExtData[1]->WorkLocal[4] == 19*) GOTO 0x06A2
201: 0x069A [0x03] ExtData[1]->WorkLocal[21] = 0*
202: 0x069F [0x01] GOTO 0x0757
203: 0x06A2 [0x02] IF !(ExtData[1]->WorkLocal[4] == 20*) GOTO 0x06B2
204: 0x06AA [0x03] ExtData[1]->WorkLocal[21] = 0*
205: 0x06AF [0x01] GOTO 0x0757
206: 0x06B2 [0x02] IF !(ExtData[1]->WorkLocal[4] == 21*) GOTO 0x06C2
207: 0x06BA [0x03] ExtData[1]->WorkLocal[21] = 0*
208: 0x06BF [0x01] GOTO 0x0757
209: 0x06C2 [0x02] IF !(ExtData[1]->WorkLocal[4] == 22*) GOTO 0x06D2
210: 0x06CA [0x03] ExtData[1]->WorkLocal[21] = 0*
211: 0x06CF [0x01] GOTO 0x0757
212: 0x06D2 [0x02] IF !(ExtData[1]->WorkLocal[4] == 23*) GOTO 0x06E2
213: 0x06DA [0x03] ExtData[1]->WorkLocal[21] = 0*
214: 0x06DF [0x01] GOTO 0x0757
215: 0x06E2 [0x02] IF !(ExtData[1]->WorkLocal[4] == 24*) GOTO 0x06F2
216: 0x06EA [0x03] ExtData[1]->WorkLocal[21] = 0*
217: 0x06EF [0x01] GOTO 0x0757
218: 0x06F2 [0x02] IF !(ExtData[1]->WorkLocal[4] == 25*) GOTO 0x0702
219: 0x06FA [0x03] ExtData[1]->WorkLocal[21] = 0*
220: 0x06FF [0x01] GOTO 0x0757
221: 0x0702 [0x02] IF !(ExtData[1]->WorkLocal[4] == 26*) GOTO 0x0712
222: 0x070A [0x03] ExtData[1]->WorkLocal[21] = 0*
223: 0x070F [0x01] GOTO 0x0757
224: 0x0712 [0x02] IF !(ExtData[1]->WorkLocal[4] == 27*) GOTO 0x0722
225: 0x071A [0x03] ExtData[1]->WorkLocal[21] = 0*
226: 0x071F [0x01] GOTO 0x0757
227: 0x0722 [0x02] IF !(ExtData[1]->WorkLocal[4] == 28*) GOTO 0x0732
228: 0x072A [0x03] ExtData[1]->WorkLocal[21] = 0*
229: 0x072F [0x01] GOTO 0x0757
230: 0x0732 [0x02] IF !(ExtData[1]->WorkLocal[4] == 29*) GOTO 0x0742
231: 0x073A [0x03] ExtData[1]->WorkLocal[21] = 0*
232: 0x073F [0x01] GOTO 0x0757
233: 0x0742 [0x02] IF !(ExtData[1]->WorkLocal[4] == 30*) GOTO 0x0752
234: 0x074A [0x03] ExtData[1]->WorkLocal[21] = 0*
235: 0x074F [0x01] GOTO 0x0757
236: 0x0752 [0x03] ExtData[1]->WorkLocal[21] = 0*

SUBROUTINE_0757:
237: 0x0757 [0x02] IF !(ExtData[1]->WorkLocal[2] == 1*) GOTO 0x0772
238: 0x075F [0x5C] MUSIC_CONTROL: Set Idle (Day) music to song 220*
239: 0x0763 [0x5C] MUSIC_CONTROL: Set Idle (Night) music to song 220*
240: 0x0767 [0x5C] MUSIC_CONTROL: Set Combat (Solo) music to song 220*
241: 0x076B [0x5C] MUSIC_CONTROL: Set Combat (Party) music to song 220*
242: 0x076F [0x01] GOTO 0x078A
243: 0x0772 [0x02] IF !(ExtData[1]->WorkLocal[21] == 0*) GOTO 0x078A
244: 0x077A [0x5C] MUSIC_CONTROL: Set Idle (Day) music to song 220*
245: 0x077E [0x5C] MUSIC_CONTROL: Set Idle (Night) music to song 220*
246: 0x0782 [0x5C] MUSIC_CONTROL: Set Combat (Solo) music to song 220*
247: 0x0786 [0x5C] MUSIC_CONTROL: Set Combat (Party) music to song 220*

SUBROUTINE_078A:
248: 0x078A [0x02] IF !(ExtData[1]->WorkLocal[2] == 0*) GOTO 0x0798
249: 0x0792 [0x1A] CALL_SUBROUTINE(address=0x1009)
250: 0x0795 [0x01] GOTO 0x07D1
251: 0x0798 [0x6C] FADE_ENTITY_COLOR(entity_id=LocalPlayer, end_alpha=0*, fade_time=1*)
252: 0x07A1 [0x62] LOAD_EVENT_SCHEDULER: Load scheduler "main" with entities [LocalPlayer, LocalPlayer], work=[2*, 0*]
253: 0x07B2 [0x45] LOAD_SCHEDULED_TASK: Load scheduler "ovl1" with entities [LocalPlayer, LocalPlayer], work=[200*, 0*]
254: 0x07C3 [0x46] CAMERA_CONTROL: Query status
255: 0x07C5 [0x12] 0x0200 = rand()
256: 0x07C8 [0x12] ExtData[1]->WorkLocal[0] = rand()
257: 0x07CB [0x80] LOAD_WAIT(entity=Unknown NPC (ID: 1174917376/0x4607D100))
258: 0x07D0 [0x00] END_REQSTACK()

SUBROUTINE_07D1:
259: 0x07D1 [0x03] Work_Zone[1] = 100*
260: 0x07D6 [0x07] Work_Zone[1] += ExtData[1]->WorkLocal[3]
261: 0x07DB [0x01] GOTO 0x07F8

SUBROUTINE_07E1:
262: 0x07E1 [0x0B] ExtData[1]->WorkLocal[0]++
263: 0x07E4 [0x02] IF !(0* == 1*) GOTO 0x07F1
264: 0x07EC [0x03] ExtData[1]->WorkLocal[0] = 2*
265: 0x07F1 [0x01] GOTO 0x01A4
266: 0x07F4 [0x48] [System] [7071*]:
    → "You cannot enter the battlefield at present. Please wait a little longer."
267: 0x07F7 [0x23] WAIT_FOR_DIALOG_INTERACTION

SUBROUTINE_07F8:
268: 0x07F8 [0x45] LOAD_SCHEDULED_TASK: Load scheduler "whi1" with entities [LocalPlayer, LocalPlayer], work=[201*, 0*]
269: 0x0809 [0x45] LOAD_SCHEDULED_TASK: Load scheduler "blof" with entities [LocalPlayer, LocalPlayer], work=[200*, 0*]
270: 0x081A [0x45] LOAD_SCHEDULED_TASK: Load scheduler "fdi0" with entities [LocalPlayer, LocalPlayer], work=[200*, 0*]

SUBROUTINE_082B:
271: 0x082B [0x02] IF !(ExtData[1]->WorkLocal[7] == 1*) GOTO 0x0843
272: 0x0833 [0x5C] MUSIC_CONTROL: Set Idle (Day) music to song 228*
273: 0x0837 [0x5C] MUSIC_CONTROL: Set Idle (Night) music to song 228*
274: 0x083B [0x5C] MUSIC_CONTROL: Set Combat (Solo) music to song 115*
275: 0x083F [0x5C] MUSIC_CONTROL: Set Combat (Party) music to song 218*
276: 0x0843 [0x21] END_EVENT
277: 0x0844 [0x00] END_REQSTACK()

SUBROUTINE_0845:
278: 0x0845 [0x1B] RETURN
```

#### Data or dead code:

```
# Dead code (unreachable instructions):
     0x0070 [0x01] GOTO 0x0145
# Dead code (unreachable instructions):
     0x0116 [0x01] GOTO 0x011E
# Dead code (unreachable instructions):
     0x0142 [0x01] GOTO 0x0145
# Dead code (unreachable instructions):
     0x025C [0x01] GOTO 0x07E1
     0x026E [0x01] GOTO 0x07E1
# Dead code (unreachable instructions):
     0x0470 [0x01] GOTO 0x07E1
     0x047E [0x01] GOTO 0x07E1
# Dead code (unreachable instructions):
     0x07DE [0x01] GOTO 0x07E1
```

### Event 32002

#### Metadata

| Field        | Value     |
|--------------|-----------|
| Entrypoint   | 0x0846    |
| Data Size    | 494 bytes |
| Instructions | 83        |

```
      00 01 02 03 04 05 06 07  08 09 0A 0B 0C 0D 0E 0F
      -- -- -- -- -- -- -- --  -- -- -- -- -- -- -- --
0840:                   03 05  00 06 10 03 21 00 07 10        ......!...
0850: 03 20 00 08 10 20 01 42  3B F0 FF FF 7F 20 10 21  . ... .B;.... .!
0860: 10 22 10 3A F0 FF FF 7F  23 10 45 0E 80 F0 FF FF  .".:....#.E.....
0870: 7F F0 FF FF 7F 66 64 6F  31 00 80 55 0E 80 F0 FF  .....fdo1..U....
0880: FF 7F F0 FF FF 7F 66 64  6F 31 02 00 80 05 80 00  ......fdo1......
0890: F1 08 02 05 00 05 80 80  A9 08 47 00 00 80 00 80  ..........G.....
08A0: 00 80 00 80 47 01 01 EE  08 02 05 00 09 80 80 C0  ....G...........
08B0: 08 47 00 00 80 00 80 00  80 00 80 47 01 01 EE 08  .G.........G....
08C0: 02 05 00 0A 80 80 D7 08  47 00 00 80 00 80 00 80  ........G.......
08D0: 00 80 47 01 01 EE 08 02  05 00 0B 80 80 EE 08 47  ..G............G
08E0: 00 00 80 00 80 00 80 00  80 47 01 01 EE 08 01 FA  .........G......
08F0: 09 02 20 00 39 80 80 7B  09 02 21 00 00 80 80 10  .. .9..{..!.....
0900: 09 47 00 3A 80 3B 80 3C  80 3D 80 47 01 01 78 09  .G.:.;.<.=.G..x.
0910: 02 21 00 05 80 80 27 09  47 00 3E 80 3F 80 40 80  .!....'.G.>.?.@.
0920: 41 80 47 01 01 78 09 02  21 00 09 80 80 3E 09 47  A.G..x..!....>.G
0930: 00 42 80 43 80 44 80 45  80 47 01 01 78 09 02 21  .B.C.D.E.G..x..!
0940: 00 0A 80 80 55 09 47 00  46 80 47 80 48 80 49 80  ....U.G.F.G.H.I.
0950: 47 01 01 78 09 02 21 00  0B 80 80 6C 09 47 00 4A  G..x..!....l.G.J
0960: 80 4B 80 4C 80 4D 80 47  01 01 78 09 47 00 4E 80  .K.L.M.G..x.G.N.
0970: 4F 80 00 80 50 80 47 01  01 FA 09 02 20 00 18 80  O...P.G..... ...
0980: 80 EE 09 02 21 00 05 80  80 9A 09 47 00 51 80 52  ....!......G.Q.R
0990: 80 53 80 54 80 47 01 01  EB 09 02 21 00 09 80 80  .S.T.G.....!....
09A0: B1 09 47 00 55 80 56 80  57 80 58 80 47 01 01 EB  ..G.U.V.W.X.G...
09B0: 09 02 21 00 0A 80 80 C8  09 47 00 59 80 5A 80 5B  ..!......G.Y.Z.[
09C0: 80 5C 80 47 01 01 EB 09  02 21 00 0B 80 80 DF 09  .\.G.....!......
09D0: 47 00 5D 80 5E 80 5F 80  60 80 47 01 01 EB 09 47  G.].^._.`.G....G
09E0: 00 4E 80 4F 80 00 80 50  80 47 01 01 FA 09 47 00  .N.O...P.G....G.
09F0: 4E 80 4F 80 00 80 50 80  47 01 38 0F 80 1A AD 13  N.O...P.G.8.....
0A00: 45 35 80 F0 FF FF 7F F0  FF FF 7F 77 68 69 31 00  E5.........whi1.
0A10: 80 45 0E 80 F0 FF FF 7F  F0 FF FF 7F 62 6C 6F 66  .E..........blof
0A20: 00 80 5C 00 36 80 5C 01  36 80 5C 02 37 80 5C 03  ..\.6.\.6.\.7.\.
0A30: 38 80 21 00                                       8.!.            
```

#### Opcodes

```
  0: 0x0846 [0x03] ExtData[1]->WorkLocal[5] = Work_Zone[6]
  1: 0x084B [0x03] ExtData[1]->WorkLocal[33] = Work_Zone[7]
  2: 0x0850 [0x03] ExtData[1]->WorkLocal[32] = Work_Zone[8]
  3: 0x0855 [0x20] SET_CLI_EVENT_UC_FLAG: Lock player control
  4: 0x0857 [0x42] SET_CLI_EVENT_CANCEL_DATA()
  5: 0x0858 [0x3B] GET_ENTITY_POSITION(entity=LocalPlayer, x_destination=Work_Zone[32], y_destination=Work_Zone[33], z_destination=Work_Zone[34])
  6: 0x0863 [0x3A] CONVERT_YAW_TO_BYTE(entity=LocalPlayer, result_destination=Work_Zone[35])
  7: 0x086A [0x45] LOAD_SCHEDULED_TASK: Load scheduler "fdo1" with entities [LocalPlayer, LocalPlayer], work=[200*, 0*]
  8: 0x087B [0x55] WAIT_LOAD_SCHEDULER: Wait for scheduler "fdo1" with entities [LocalPlayer, LocalPlayer], work=200*
  9: 0x088A [0x02] IF !(0* == 1*) GOTO 0x08F1
 10: 0x0892 [0x02] IF !(ExtData[1]->WorkLocal[5] == 1*) GOTO 0x08A9
 11: 0x089A [0x47] UPDATE_PLAYER_POS(0.000*, 0.000*, 0.000*, yaw=0.0°*)
 12: 0x08A4 [0x47] WAIT_PLAYER_POS_UPDATE
 13: 0x08A6 [0x01] GOTO 0x08EE
 14: 0x08A9 [0x02] IF !(ExtData[1]->WorkLocal[5] == 2*) GOTO 0x08C0
 15: 0x08B1 [0x47] UPDATE_PLAYER_POS(0.000*, 0.000*, 0.000*, yaw=0.0°*)
 16: 0x08BB [0x47] WAIT_PLAYER_POS_UPDATE
 17: 0x08BD [0x01] GOTO 0x08EE
 18: 0x08C0 [0x02] IF !(ExtData[1]->WorkLocal[5] == 3*) GOTO 0x08D7
 19: 0x08C8 [0x47] UPDATE_PLAYER_POS(0.000*, 0.000*, 0.000*, yaw=0.0°*)
 20: 0x08D2 [0x47] WAIT_PLAYER_POS_UPDATE
 21: 0x08D4 [0x01] GOTO 0x08EE
 22: 0x08D7 [0x02] IF !(ExtData[1]->WorkLocal[5] == 4*) GOTO 0x08EE
 23: 0x08DF [0x47] UPDATE_PLAYER_POS(0.000*, 0.000*, 0.000*, yaw=0.0°*)
 24: 0x08E9 [0x47] WAIT_PLAYER_POS_UPDATE
 25: 0x08EB [0x01] GOTO 0x08EE

SUBROUTINE_08EE:
 26: 0x08EE [0x01] GOTO 0x09FA
 27: 0x08F1 [0x02] IF !(ExtData[1]->WorkLocal[32] == 180*) GOTO 0x097B
 28: 0x08F9 [0x02] IF !(ExtData[1]->WorkLocal[33] == 0*) GOTO 0x0910
 29: 0x0901 [0x47] UPDATE_PLAYER_POS(-605.141*, 479.929*, -22.681*, yaw=87.2°*)
 30: 0x090B [0x47] WAIT_PLAYER_POS_UPDATE
 31: 0x090D [0x01] GOTO 0x0978
 32: 0x0910 [0x02] IF !(ExtData[1]->WorkLocal[33] == 1*) GOTO 0x0927
 33: 0x0918 [0x47] UPDATE_PLAYER_POS(-262.589*, 377.857*, -137.313*, yaw=305.3°*)
 34: 0x0922 [0x47] WAIT_PLAYER_POS_UPDATE
 35: 0x0924 [0x01] GOTO 0x0978
 36: 0x0927 [0x02] IF !(ExtData[1]->WorkLocal[33] == 2*) GOTO 0x093E
 37: 0x092F [0x47] UPDATE_PLAYER_POS(18.348*, 486.940*, -224.334*, yaw=17.1°*)
 38: 0x0939 [0x47] WAIT_PLAYER_POS_UPDATE
 39: 0x093B [0x01] GOTO 0x0978
 40: 0x093E [0x02] IF !(ExtData[1]->WorkLocal[33] == 3*) GOTO 0x0955
 41: 0x0946 [0x47] UPDATE_PLAYER_POS(231.593*, 360.094*, -173.572*, yaw=160.8°*)
 42: 0x0950 [0x47] WAIT_PLAYER_POS_UPDATE
 43: 0x0952 [0x01] GOTO 0x0978
 44: 0x0955 [0x02] IF !(ExtData[1]->WorkLocal[33] == 4*) GOTO 0x096C
 45: 0x095D [0x47] UPDATE_PLAYER_POS(553.664*, 523.939*, -38.205*, yaw=233.9°*)
 46: 0x0967 [0x47] WAIT_PLAYER_POS_UPDATE
 47: 0x0969 [0x01] GOTO 0x0978
 48: 0x096C [0x47] UPDATE_PLAYER_POS(419.992*, 397.858*, 0.000*, yaw=90.0°*)
 49: 0x0976 [0x47] WAIT_PLAYER_POS_UPDATE

SUBROUTINE_0978:
 50: 0x0978 [0x01] GOTO 0x09FA
 51: 0x097B [0x02] IF !(ExtData[1]->WorkLocal[32] == 6*) GOTO 0x09EE
 52: 0x0983 [0x02] IF !(ExtData[1]->WorkLocal[33] == 1*) GOTO 0x099A
 53: 0x098B [0x47] UPDATE_PLAYER_POS(-875.117*, -43.892*, -48.084*, yaw=45.1°*)
 54: 0x0995 [0x47] WAIT_PLAYER_POS_UPDATE
 55: 0x0997 [0x01] GOTO 0x09EB
 56: 0x099A [0x02] IF !(ExtData[1]->WorkLocal[33] == 2*) GOTO 0x09B1
 57: 0x09A2 [0x47] UPDATE_PLAYER_POS(-755.499*, 563.947*, -112.035*, yaw=313.5°*)
 58: 0x09AC [0x47] WAIT_PLAYER_POS_UPDATE
 59: 0x09AE [0x01] GOTO 0x09EB
 60: 0x09B1 [0x02] IF !(ExtData[1]->WorkLocal[33] == 3*) GOTO 0x09C8
 61: 0x09B9 [0x47] UPDATE_PLAYER_POS(123.251*, 754.209*, -172.124*, yaw=38.7°*)
 62: 0x09C3 [0x47] WAIT_PLAYER_POS_UPDATE
 63: 0x09C5 [0x01] GOTO 0x09EB
 64: 0x09C8 [0x02] IF !(ExtData[1]->WorkLocal[33] == 4*) GOTO 0x09DF
 65: 0x09D0 [0x47] UPDATE_PLAYER_POS(-516.404*, -803.323*, 24.206*, yaw=38.4°*)
 66: 0x09DA [0x47] WAIT_PLAYER_POS_UPDATE
 67: 0x09DC [0x01] GOTO 0x09EB
 68: 0x09DF [0x47] UPDATE_PLAYER_POS(419.992*, 397.858*, 0.000*, yaw=90.0°*)
 69: 0x09E9 [0x47] WAIT_PLAYER_POS_UPDATE

SUBROUTINE_09EB:
 70: 0x09EB [0x01] GOTO 0x09FA
 71: 0x09EE [0x47] UPDATE_PLAYER_POS(419.992*, 397.858*, 0.000*, yaw=90.0°*)
 72: 0x09F8 [0x47] WAIT_PLAYER_POS_UPDATE

SUBROUTINE_09FA:
 73: 0x09FA [0x38] SET_CLIENT_EVENT_MODE(mode=19*)
 74: 0x09FD [0x1A] CALL_SUBROUTINE(address=0x13AD)
 75: 0x0A00 [0x45] LOAD_SCHEDULED_TASK: Load scheduler "whi1" with entities [LocalPlayer, LocalPlayer], work=[201*, 0*]
 76: 0x0A11 [0x45] LOAD_SCHEDULED_TASK: Load scheduler "blof" with entities [LocalPlayer, LocalPlayer], work=[200*, 0*]
 77: 0x0A22 [0x5C] MUSIC_CONTROL: Set Idle (Day) music to song 228*
 78: 0x0A26 [0x5C] MUSIC_CONTROL: Set Idle (Night) music to song 228*
 79: 0x0A2A [0x5C] MUSIC_CONTROL: Set Combat (Solo) music to song 115*
 80: 0x0A2E [0x5C] MUSIC_CONTROL: Set Combat (Party) music to song 218*
 81: 0x0A32 [0x21] END_EVENT
 82: 0x0A33 [0x00] END_REQSTACK()
```

### Event 32001

#### Metadata

| Field        | Value      |
|--------------|------------|
| Entrypoint   | 0x0A34     |
| Data Size    | 1033 bytes |
| Instructions | 177        |

```
      00 01 02 03 04 05 06 07  08 09 0A 0B 0C 0D 0E 0F
      -- -- -- -- -- -- -- --  -- -- -- -- -- -- -- --
0A30:             79 00 F0 FF  FF 7F F0 FF FF 7F 03 21      y..........!
0A40: 00 02 10 03 1A 00 03 10  03 1B 00 05 10 03 20 00  .............. .
0A50: 06 10 03 19 00 07 10 03  17 00 08 10 02 17 00 0A  ................
0A60: 80 04 69 0A 03 17 00 00  80 03 1C 00 09 10 20 01  ..i........... .
0A70: 42 3B F0 FF FF 7F 20 10  21 10 22 10 3A F0 FF FF  B;.... .!.".:...
0A80: 7F 23 10 02 20 00 39 80  01 8E 0A 1C 61 80 45 35  .#.. .9.....a.E5
0A90: 80 F0 FF FF 7F F0 FF FF  7F 77 68 69 31 00 80 45  .........whi1..E
0AA0: 0E 80 F0 FF FF 7F F0 FF  FF 7F 62 6C 6F 66 00 80  ..........blof..
0AB0: 45 0E 80 F0 FF FF 7F F0  FF FF 7F 66 64 6F 31 00  E..........fdo1.
0AC0: 80 55 0E 80 F0 FF FF 7F  F0 FF FF 7F 66 64 6F 31  .U..........fdo1
0AD0: 6C F0 FF FF 7F 62 80 05  80 06 01 10 02 17 00 00  l....b..........
0AE0: 80 03 E7 0A 01 35 0C 02  20 00 39 80 80 71 0B 02  .....5.. .9..q..
0AF0: 21 00 00 80 80 06 0B 47  00 63 80 64 80 65 80 66  !......G.c.d.e.f
0B00: 80 47 01 01 6E 0B 02 21  00 05 80 80 1D 0B 47 00  .G..n..!......G.
0B10: 67 80 68 80 69 80 6A 80  47 01 01 6E 0B 02 21 00  g.h.i.j.G..n..!.
0B20: 09 80 80 34 0B 47 00 6B  80 6C 80 6D 80 6E 80 47  ...4.G.k.l.m.n.G
0B30: 01 01 6E 0B 02 21 00 0A  80 80 4B 0B 47 00 6F 80  ..n..!....K.G.o.
0B40: 70 80 71 80 72 80 47 01  01 6E 0B 02 21 00 0B 80  p.q.r.G..n..!...
0B50: 80 62 0B 47 00 73 80 74  80 75 80 76 80 47 01 01  .b.G.s.t.u.v.G..
0B60: 6E 0B 47 00 77 80 78 80  00 80 79 80 47 01 01 35  n.G.w.x...y.G..5
0B70: 0C 02 20 00 7A 80 80 9F  0B 02 19 00 00 80 80 90  .. .z...........
0B80: 0B 47 00 77 80 78 80 00  80 79 80 47 01 01 9C 0B  .G.w.x...y.G....
0B90: 47 00 7B 80 7C 80 7D 80  7E 80 47 01 01 35 0C 02  G.{.|.}.~.G..5..
0BA0: 20 00 7F 80 80 CD 0B 02  19 00 0B 80 80 BE 0B 47   ..............G
0BB0: 00 80 80 81 80 82 80 83  80 47 01 01 CA 0B 47 00  .........G....G.
0BC0: 77 80 78 80 00 80 79 80  47 01 01 35 0C 02 20 00  w.x...y.G..5.. .
0BD0: 84 80 80 FB 0B 02 19 00  0B 80 80 EC 0B 47 00 85  .............G..
0BE0: 80 86 80 87 80 88 80 47  01 01 F8 0B 47 00 77 80  .......G....G.w.
0BF0: 78 80 00 80 79 80 47 01  01 35 0C 02 20 00 89 80  x...y.G..5.. ...
0C00: 80 29 0C 02 19 00 0A 80  80 1A 0C 47 00 8A 80 8B  .).........G....
0C10: 80 8C 80 8D 80 47 01 01  26 0C 47 00 77 80 78 80  .....G..&.G.w.x.
0C20: 00 80 79 80 47 01 01 35  0C 47 00 77 80 78 80 00  ..y.G..5.G.w.x..
0C30: 80 79 80 47 01 38 0F 80  02 17 00 09 80 00 43 0C  .y.G.8........C.
0C40: 01 5E 0C 02 17 00 05 80  00 0E 0D 1C 01 80 24 32  .^............$2
0C50: 80 05 80 00 80 25 02 00  10 00 80 00 0E 0D 02 20  .....%......... 
0C60: 00 39 80 00 CA 0C 02 21  00 00 80 80 78 0C 36 63  .9.....!....x.6c
0C70: 80 64 80 65 80 01 C7 0C  02 21 00 05 80 80 8A 0C  .d.e.....!......
0C80: 36 67 80 68 80 69 80 01  C7 0C 02 21 00 09 80 80  6g.h.i.....!....
0C90: 9C 0C 36 6B 80 6C 80 6D  80 01 C7 0C 02 21 00 0A  ..6k.l.m.....!..
0CA0: 80 80 AE 0C 36 6F 80 70  80 71 80 01 C7 0C 02 21  ....6o.p.q.....!
0CB0: 00 0B 80 80 C0 0C 36 73  80 74 80 75 80 01 C7 0C  ......6s.t.u....
0CC0: 36 77 80 78 80 00 80 01  D3 0C 37 77 80 78 80 00  6w.x......7w.x..
0CD0: 80 79 80 80 F0 FF FF 7F  62 09 80 F0 FF FF 7F F0  .y......b.......
0CE0: FF FF 7F 6D 61 69 6E 00  80 45 0E 80 F0 FF FF 7F  ...main..E......
0CF0: F0 FF FF 7F 66 64 69 32  00 80 46 02 12 00 02 12  ....fdi2..F.....
0D00: 00 00 80 00 08 0D 46 00  01 35 0D 01 0E 0D 02 17  ......F..5......
0D10: 00 04 80 04 27 0D 5C 00  33 80 5C 01 33 80 5C 02  ....'.\.3.\.3.\.
0D20: 33 80 5C 03 33 80 9A 1A  3F 12 02 17 00 00 80 03  3.\.3...?.......
0D30: 35 0D 01 D5 0D 02 20 00  8E 80 80 40 0D 01 40 0D  5..... ....@..@.
0D40: 02 20 00 1E 80 80 4B 0D  01 D5 0D 02 20 00 0F 80  . ....K..... ...
0D50: 80 56 0D 01 D5 0D 02 20  00 21 80 80 61 0D 01 D5  .V..... .!..a...
0D60: 0D 02 20 00 23 80 80 6C  0D 01 D5 0D 03 05 10 1B  .. .#..l........
0D70: 00 02 05 10 00 80 02 D5  0D 02 05 10 2E 80 04 94  ................
0D80: 0D 3F 04 10 05 10 2E 80  15 05 10 2E 80 48 8F 80  .?...........H..
0D90: 23 01 98 0D 48 90 80 23  02 1B 00 1A 00 05 AC 0D  #...H..#........
0DA0: 03 07 10 19 00 48 91 80  23 01 D5 0D 02 1A 00 2E  .....H..#.......
0DB0: 80 04 CC 0D 03 05 10 1A  00 3F 04 10 05 10 2E 80  .........?......
0DC0: 15 05 10 2E 80 48 92 80  23 01 D5 0D 03 05 10 1A  .....H..#.......
0DD0: 00 48 93 80 23 02 18 00  00 80 00 ED 0D 5C 00 36  .H..#........\.6
0DE0: 80 5C 01 36 80 5C 02 37  80 5C 03 38 80 02 17 00  .\.6.\.7.\.8....
0DF0: 00 80 03 16 0E 45 0E 80  F0 FF FF 7F F0 FF FF 7F  .....E..........
0E00: 66 64 69 32 00 80 5C 00  36 80 5C 01 36 80 5C 02  fdi2..\.6.\.6.\.
0E10: 37 80 5C 03 38 80 06 18  00 45 35 80 F0 FF FF 7F  7.\.8....E5.....
0E20: F0 FF FF 7F 77 68 69 31  00 80 45 0E 80 F0 FF FF  ....whi1..E.....
0E30: 7F F0 FF FF 7F 62 6C 6F  66 00 80 21 00           .....blof..!.   
```

#### Opcodes

```
  0: 0x0A34 [0x79] LocalPlayer looks at LocalPlayer (Basic look)
  1: 0x0A3E [0x03] ExtData[1]->WorkLocal[33] = Work_Zone[2]
  2: 0x0A43 [0x03] ExtData[1]->WorkLocal[26] = Work_Zone[3]
  3: 0x0A48 [0x03] ExtData[1]->WorkLocal[27] = Work_Zone[5]
  4: 0x0A4D [0x03] ExtData[1]->WorkLocal[32] = Work_Zone[6]
  5: 0x0A52 [0x03] ExtData[1]->WorkLocal[25] = Work_Zone[7]
  6: 0x0A57 [0x03] ExtData[1]->WorkLocal[23] = Work_Zone[8]
  7: 0x0A5C [0x02] IF !(ExtData[1]->WorkLocal[23] < 3*) GOTO 0x0A69
  8: 0x0A64 [0x03] ExtData[1]->WorkLocal[23] = 0*
  9: 0x0A69 [0x03] ExtData[1]->WorkLocal[28] = Work_Zone[9]
 10: 0x0A6E [0x20] SET_CLI_EVENT_UC_FLAG: Lock player control
 11: 0x0A70 [0x42] SET_CLI_EVENT_CANCEL_DATA()
 12: 0x0A71 [0x3B] GET_ENTITY_POSITION(entity=LocalPlayer, x_destination=Work_Zone[32], y_destination=Work_Zone[33], z_destination=Work_Zone[34])
 13: 0x0A7C [0x3A] CONVERT_YAW_TO_BYTE(entity=LocalPlayer, result_destination=Work_Zone[35])
 14: 0x0A83 [0x02] IF !(ExtData[1]->WorkLocal[32] == 180*) GOTO 0x0A8E
 15: 0x0A8B [0x1C] WAIT(300* ticks)
 16: 0x0A8E [0x45] LOAD_SCHEDULED_TASK: Load scheduler "whi1" with entities [LocalPlayer, LocalPlayer], work=[201*, 0*]
 17: 0x0A9F [0x45] LOAD_SCHEDULED_TASK: Load scheduler "blof" with entities [LocalPlayer, LocalPlayer], work=[200*, 0*]
 18: 0x0AB0 [0x45] LOAD_SCHEDULED_TASK: Load scheduler "fdo1" with entities [LocalPlayer, LocalPlayer], work=[200*, 0*]
 19: 0x0AC1 [0x55] WAIT_LOAD_SCHEDULER: Wait for scheduler "fdo1" with entities [LocalPlayer, LocalPlayer], work=200*
 20: 0x0AD0 [0x6C] FADE_ENTITY_COLOR(entity_id=LocalPlayer, end_alpha=128*, fade_time=1*)
 21: 0x0AD9 [0x06] Work_Zone[1] = 0
 22: 0x0ADC [0x02] IF !(ExtData[1]->WorkLocal[23] >= 0*) GOTO 0x0AE7
 23: 0x0AE4 [0x01] GOTO 0x0C35
 24: 0x0AE7 [0x02] IF !(ExtData[1]->WorkLocal[32] == 180*) GOTO 0x0B71
 25: 0x0AEF [0x02] IF !(ExtData[1]->WorkLocal[33] == 0*) GOTO 0x0B06
 26: 0x0AF7 [0x47] UPDATE_PLAYER_POS(-618.329*, -643.868*, -25.805*, yaw=330.5°*)
 27: 0x0B01 [0x47] WAIT_PLAYER_POS_UPDATE
 28: 0x0B03 [0x01] GOTO 0x0B6E
 29: 0x0B06 [0x02] IF !(ExtData[1]->WorkLocal[33] == 1*) GOTO 0x0B1D
 30: 0x0B0E [0x47] UPDATE_PLAYER_POS(-332.163*, -441.914*, -95.055*, yaw=330.5°*)
 31: 0x0B18 [0x47] WAIT_PLAYER_POS_UPDATE
 32: 0x0B1A [0x01] GOTO 0x0B6E
 33: 0x0B1D [0x02] IF !(ExtData[1]->WorkLocal[33] == 2*) GOTO 0x0B34
 34: 0x0B25 [0x47] UPDATE_PLAYER_POS(-12.464*, -648.377*, -194.629*, yaw=331.3°*)
 35: 0x0B2F [0x47] WAIT_PLAYER_POS_UPDATE
 36: 0x0B31 [0x01] GOTO 0x0B6E
 37: 0x0B34 [0x02] IF !(ExtData[1]->WorkLocal[33] == 3*) GOTO 0x0B4B
 38: 0x0B3C [0x47] UPDATE_PLAYER_POS(323.381*, -443.793*, -108.440*, yaw=329.1°*)
 39: 0x0B46 [0x47] WAIT_PLAYER_POS_UPDATE
 40: 0x0B48 [0x01] GOTO 0x0B6E
 41: 0x0B4B [0x02] IF !(ExtData[1]->WorkLocal[33] == 4*) GOTO 0x0B62
 42: 0x0B53 [0x47] UPDATE_PLAYER_POS(599.907*, -676.969*, -22.473*, yaw=330.7°*)
 43: 0x0B5D [0x47] WAIT_PLAYER_POS_UPDATE
 44: 0x0B5F [0x01] GOTO 0x0B6E
 45: 0x0B62 [0x47] UPDATE_PLAYER_POS(419.961*, 469.960*, 0.000*, yaw=270.0°*)
 46: 0x0B6C [0x47] WAIT_PLAYER_POS_UPDATE

SUBROUTINE_0B6E:
 47: 0x0B6E [0x01] GOTO 0x0C35
 48: 0x0B71 [0x02] IF !(ExtData[1]->WorkLocal[32] == 168*) GOTO 0x0B9F
 49: 0x0B79 [0x02] IF !(ExtData[1]->WorkLocal[25] == 0*) GOTO 0x0B90
 50: 0x0B81 [0x47] UPDATE_PLAYER_POS(419.961*, 469.960*, 0.000*, yaw=270.0°*)
 51: 0x0B8B [0x47] WAIT_PLAYER_POS_UPDATE
 52: 0x0B8D [0x01] GOTO 0x0B9C
 53: 0x0B90 [0x47] UPDATE_PLAYER_POS(200.059*, -21.958*, -0.250*, yaw=91.5°*)
 54: 0x0B9A [0x47] WAIT_PLAYER_POS_UPDATE

SUBROUTINE_0B9C:
 55: 0x0B9C [0x01] GOTO 0x0C35
 56: 0x0B9F [0x02] IF !(ExtData[1]->WorkLocal[32] == 202*) GOTO 0x0BCD
 57: 0x0BA7 [0x02] IF !(ExtData[1]->WorkLocal[25] == 4*) GOTO 0x0BBE
 58: 0x0BAF [0x47] UPDATE_PLAYER_POS(538.604*, 501.900*, -13.942*, yaw=286.5°*)
 59: 0x0BB9 [0x47] WAIT_PLAYER_POS_UPDATE
 60: 0x0BBB [0x01] GOTO 0x0BCA
 61: 0x0BBE [0x47] UPDATE_PLAYER_POS(419.961*, 469.960*, 0.000*, yaw=270.0°*)
 62: 0x0BC8 [0x47] WAIT_PLAYER_POS_UPDATE

SUBROUTINE_0BCA:
 63: 0x0BCA [0x01] GOTO 0x0C35
 64: 0x0BCD [0x02] IF !(ExtData[1]->WorkLocal[32] == 203*) GOTO 0x0BFB
 65: 0x0BD5 [0x02] IF !(ExtData[1]->WorkLocal[25] == 4*) GOTO 0x0BEC
 66: 0x0BDD [0x47] UPDATE_PLAYER_POS(553.205*, 589.633*, -0.021*, yaw=124.4°*)
 67: 0x0BE7 [0x47] WAIT_PLAYER_POS_UPDATE
 68: 0x0BE9 [0x01] GOTO 0x0BF8
 69: 0x0BEC [0x47] UPDATE_PLAYER_POS(419.961*, 469.960*, 0.000*, yaw=270.0°*)
 70: 0x0BF6 [0x47] WAIT_PLAYER_POS_UPDATE

SUBROUTINE_0BF8:
 71: 0x0BF8 [0x01] GOTO 0x0C35
 72: 0x0BFB [0x02] IF !(ExtData[1]->WorkLocal[32] == 211*) GOTO 0x0C29
 73: 0x0C03 [0x02] IF !(ExtData[1]->WorkLocal[25] == 3*) GOTO 0x0C1A
 74: 0x0C0B [0x47] UPDATE_PLAYER_POS(569.224*, 548.462*, 36.837*, yaw=59.1°*)
 75: 0x0C15 [0x47] WAIT_PLAYER_POS_UPDATE
 76: 0x0C17 [0x01] GOTO 0x0C26
 77: 0x0C1A [0x47] UPDATE_PLAYER_POS(419.961*, 469.960*, 0.000*, yaw=270.0°*)
 78: 0x0C24 [0x47] WAIT_PLAYER_POS_UPDATE

SUBROUTINE_0C26:
 79: 0x0C26 [0x01] GOTO 0x0C35
 80: 0x0C29 [0x47] UPDATE_PLAYER_POS(419.961*, 469.960*, 0.000*, yaw=270.0°*)
 81: 0x0C33 [0x47] WAIT_PLAYER_POS_UPDATE

SUBROUTINE_0C35:
 82: 0x0C35 [0x38] SET_CLIENT_EVENT_MODE(mode=19*)
 83: 0x0C38 [0x02] IF !(ExtData[1]->WorkLocal[23] == 2*) GOTO 0x0C43
 84: 0x0C40 [0x01] GOTO 0x0C5E
 85: 0x0C43 [0x02] IF !(ExtData[1]->WorkLocal[23] == 1*) GOTO 0x0D0E
 86: 0x0C4B [0x1C] WAIT(15* ticks)
 87: 0x0C4E [0x24] CREATE_DIALOG(message_id=7407*, default_option=1*, option_flags=0*)
    → "Skip the event? [Yes./No.]"
 88: 0x0C55 [0x25] WAIT_DIALOG_SELECT()
 89: 0x0C56 [0x02] IF !(Work_Zone[0] == 0*) GOTO 0x0D0E

SUBROUTINE_0C5E:
 90: 0x0C5E [0x02] IF !(ExtData[1]->WorkLocal[32] == 180*) GOTO 0x0CCA
 91: 0x0C66 [0x02] IF !(ExtData[1]->WorkLocal[33] == 0*) GOTO 0x0C78
 92: 0x0C6E [0x36] SET_ENTITY_EVENT_POSITION(pos_x=-618.329*, pos_z=-643.868*, pos_y=-25.805*)
 93: 0x0C75 [0x01] GOTO 0x0CC7
 94: 0x0C78 [0x02] IF !(ExtData[1]->WorkLocal[33] == 1*) GOTO 0x0C8A
 95: 0x0C80 [0x36] SET_ENTITY_EVENT_POSITION(pos_x=-332.163*, pos_z=-441.914*, pos_y=-95.055*)
 96: 0x0C87 [0x01] GOTO 0x0CC7
 97: 0x0C8A [0x02] IF !(ExtData[1]->WorkLocal[33] == 2*) GOTO 0x0C9C
 98: 0x0C92 [0x36] SET_ENTITY_EVENT_POSITION(pos_x=-12.464*, pos_z=-648.377*, pos_y=-194.629*)
 99: 0x0C99 [0x01] GOTO 0x0CC7
100: 0x0C9C [0x02] IF !(ExtData[1]->WorkLocal[33] == 3*) GOTO 0x0CAE
101: 0x0CA4 [0x36] SET_ENTITY_EVENT_POSITION(pos_x=323.381*, pos_z=-443.793*, pos_y=-108.440*)
102: 0x0CAB [0x01] GOTO 0x0CC7
103: 0x0CAE [0x02] IF !(ExtData[1]->WorkLocal[33] == 4*) GOTO 0x0CC0
104: 0x0CB6 [0x36] SET_ENTITY_EVENT_POSITION(pos_x=599.907*, pos_z=-676.969*, pos_y=-22.473*)
105: 0x0CBD [0x01] GOTO 0x0CC7
106: 0x0CC0 [0x36] SET_ENTITY_EVENT_POSITION(pos_x=419.961*, pos_z=469.960*, pos_y=0.000*)

SUBROUTINE_0CC7:
107: 0x0CC7 [0x01] GOTO 0x0CD3
108: 0x0CCA [0x37] UPDATE_EVENT_POSITION_AND_DIR: x=419.961*, z=469.960*, y=0.000*, direction=270.0°*

SUBROUTINE_0CD3:
109: 0x0CD3 [0x80] LOAD_WAIT(entity=LocalPlayer)
110: 0x0CD8 [0x62] LOAD_EVENT_SCHEDULER: Load scheduler "main" with entities [LocalPlayer, LocalPlayer], work=[2*, 0*]
111: 0x0CE9 [0x45] LOAD_SCHEDULED_TASK: Load scheduler "fdi2" with entities [LocalPlayer, LocalPlayer], work=[200*, 0*]
112: 0x0CFA [0x46] CAMERA_CONTROL: Query status
113: 0x0CFC [0x12] 0x0200 = rand()
114: 0x0CFF [0x12] ExtData[1]->WorkLocal[0] = rand()
115: 0x0D02 [0x80] LOAD_WAIT(entity=Unknown NPC (ID: 1175259136/0x460D0800))
116: 0x0D07 [0x00] END_REQSTACK()

SUBROUTINE_0D0E:
117: 0x0D0E [0x02] IF !(ExtData[1]->WorkLocal[23] < 4294967295*) GOTO 0x0D27
118: 0x0D16 [0x5C] MUSIC_CONTROL: Set Idle (Day) music to song 220*
119: 0x0D1A [0x5C] MUSIC_CONTROL: Set Idle (Night) music to song 220*
120: 0x0D1E [0x5C] MUSIC_CONTROL: Set Combat (Solo) music to song 220*
121: 0x0D22 [0x5C] MUSIC_CONTROL: Set Combat (Party) music to song 220*
122: 0x0D26 [0x9A] WAIT_MUSIC_SERVER()
123: 0x0D27 [0x1A] CALL_SUBROUTINE(address=0x123F)
124: 0x0D2A [0x02] IF !(ExtData[1]->WorkLocal[23] >= 0*) GOTO 0x0D35
125: 0x0D32 [0x01] GOTO 0x0DD5

SUBROUTINE_0D35:
126: 0x0D35 [0x02] IF !(ExtData[1]->WorkLocal[32] == 36*) GOTO 0x0D40
127: 0x0D3D [0x01] GOTO 0x0D40

SUBROUTINE_0D40:
128: 0x0D40 [0x02] IF !(ExtData[1]->WorkLocal[32] == 17*) GOTO 0x0D4B
129: 0x0D48 [0x01] GOTO 0x0DD5
130: 0x0D4B [0x02] IF !(ExtData[1]->WorkLocal[32] == 19*) GOTO 0x0D56
131: 0x0D53 [0x01] GOTO 0x0DD5
132: 0x0D56 [0x02] IF !(ExtData[1]->WorkLocal[32] == 21*) GOTO 0x0D61
133: 0x0D5E [0x01] GOTO 0x0DD5
134: 0x0D61 [0x02] IF !(ExtData[1]->WorkLocal[32] == 23*) GOTO 0x0D6C
135: 0x0D69 [0x01] GOTO 0x0DD5
136: 0x0D6C [0x03] Work_Zone[5] = ExtData[1]->WorkLocal[27]
137: 0x0D71 [0x02] IF !(Work_Zone[5] <= 0*) GOTO 0x0DD5
138: 0x0D79 [0x02] IF !(Work_Zone[5] < 60*) GOTO 0x0D94
139: 0x0D81 [0x3F] Work_Zone[4] = Work_Zone[5] % 60*
140: 0x0D88 [0x15] Work_Zone[5] /= 60*
141: 0x0D8D [0x48] [System] [7409*]:
    → "Battlefield clear time: $3 minute[/s], $2 second[/s]!"
142: 0x0D90 [0x23] WAIT_FOR_DIALOG_INTERACTION
143: 0x0D91 [0x01] GOTO 0x0D98
144: 0x0D94 [0x48] [System] [7408*]:
    → "Battlefield clear time: $3 second[/s]!"
145: 0x0D97 [0x23] WAIT_FOR_DIALOG_INTERACTION

SUBROUTINE_0D98:
146: 0x0D98 [0x02] IF !(ExtData[1]->WorkLocal[27] > ExtData[1]->WorkLocal[26]) GOTO 0x0DAC
147: 0x0DA0 [0x03] Work_Zone[7] = ExtData[1]->WorkLocal[25]
148: 0x0DA5 [0x48] [System] [7620*]:
    → "You have broken the clear time record for "[When Angels Fall/]"!"
149: 0x0DA8 [0x23] WAIT_FOR_DIALOG_INTERACTION
150: 0x0DA9 [0x01] GOTO 0x0DD5
151: 0x0DAC [0x02] IF !(ExtData[1]->WorkLocal[26] < 60*) GOTO 0x0DCC
152: 0x0DB4 [0x03] Work_Zone[5] = ExtData[1]->WorkLocal[26]
153: 0x0DB9 [0x3F] Work_Zone[4] = Work_Zone[5] % 60*
154: 0x0DC0 [0x15] Work_Zone[5] /= 60*
155: 0x0DC5 [0x48] [System] [7411*]:
    → "The current battlefield clear time record is $3 minute[/s] $2 second[/s]."
156: 0x0DC8 [0x23] WAIT_FOR_DIALOG_INTERACTION
157: 0x0DC9 [0x01] GOTO 0x0DD5
158: 0x0DCC [0x03] Work_Zone[5] = ExtData[1]->WorkLocal[26]
159: 0x0DD1 [0x48] [System] [7410*]:
    → "The current battlefield clear time record is $3 second[/s]."
160: 0x0DD4 [0x23] WAIT_FOR_DIALOG_INTERACTION

SUBROUTINE_0DD5:
161: 0x0DD5 [0x02] IF !(ExtData[1]->WorkLocal[24] == 0*) GOTO 0x0DED
162: 0x0DDD [0x5C] MUSIC_CONTROL: Set Idle (Day) music to song 228*
163: 0x0DE1 [0x5C] MUSIC_CONTROL: Set Idle (Night) music to song 228*
164: 0x0DE5 [0x5C] MUSIC_CONTROL: Set Combat (Solo) music to song 115*
165: 0x0DE9 [0x5C] MUSIC_CONTROL: Set Combat (Party) music to song 218*
166: 0x0DED [0x02] IF !(ExtData[1]->WorkLocal[23] >= 0*) GOTO 0x0E16
167: 0x0DF5 [0x45] LOAD_SCHEDULED_TASK: Load scheduler "fdi2" with entities [LocalPlayer, LocalPlayer], work=[200*, 0*]
168: 0x0E06 [0x5C] MUSIC_CONTROL: Set Idle (Day) music to song 228*
169: 0x0E0A [0x5C] MUSIC_CONTROL: Set Idle (Night) music to song 228*
170: 0x0E0E [0x5C] MUSIC_CONTROL: Set Combat (Solo) music to song 115*
171: 0x0E12 [0x5C] MUSIC_CONTROL: Set Combat (Party) music to song 218*
172: 0x0E16 [0x06] ExtData[1]->WorkLocal[24] = 0
173: 0x0E19 [0x45] LOAD_SCHEDULED_TASK: Load scheduler "whi1" with entities [LocalPlayer, LocalPlayer], work=[201*, 0*]
174: 0x0E2A [0x45] LOAD_SCHEDULED_TASK: Load scheduler "blof" with entities [LocalPlayer, LocalPlayer], work=[200*, 0*]
175: 0x0E3B [0x21] END_EVENT
176: 0x0E3C [0x00] END_REQSTACK()
```

#### Data or dead code:

```
# Dead code (unreachable instructions):
     0x0D08 [0x01] GOTO 0x0D35
     0x0D0B [0x01] GOTO 0x0D0E
```

### Event 32003

#### Metadata

| Field        | Value     |
|--------------|-----------|
| Entrypoint   | 0x0E3D    |
| Data Size    | 435 bytes |
| Instructions | 77        |

```
      00 01 02 03 04 05 06 07  08 09 0A 0B 0C 0D 0E 0F
      -- -- -- -- -- -- -- --  -- -- -- -- -- -- -- --
0E30:                                         06 1D 00               ...
0E40: 06 1E 00 03 21 00 06 10  03 20 00 07 10 03 1F 00  ....!.... ......
0E50: 08 10 06 01 10 1A C1 12  02 1D 00 05 80 00 EE 0F  ................
0E60: 42 03 01 10 09 80 43 00  43 01 03 01 10 0A 80 43  B.....C.C......C
0E70: 00 43 01 1A D8 12 02 1E  00 05 80 00 EE 0F 45 0E  .C............E.
0E80: 80 F0 FF FF 7F F0 FF FF  7F 66 64 6F 31 00 80 55  .........fdo1..U
0E90: 0E 80 F0 FF FF 7F F0 FF  FF 7F 66 64 6F 31 03 01  ..........fdo1..
0EA0: 10 0B 80 02 20 00 39 80  80 2D 0F 02 21 00 00 80  .... .9..-..!...
0EB0: 80 C2 0E 47 00 3A 80 3B  80 3C 80 3D 80 47 01 01  ...G.:.;.<.=.G..
0EC0: 2A 0F 02 21 00 05 80 80  D9 0E 47 00 3E 80 3F 80  *..!......G.>.?.
0ED0: 40 80 41 80 47 01 01 2A  0F 02 21 00 09 80 80 F0  @.A.G..*..!.....
0EE0: 0E 47 00 42 80 43 80 44  80 45 80 47 01 01 2A 0F  .G.B.C.D.E.G..*.
0EF0: 02 21 00 0A 80 80 07 0F  47 00 46 80 47 80 48 80  .!......G.F.G.H.
0F00: 49 80 47 01 01 2A 0F 02  21 00 0B 80 80 1E 0F 47  I.G..*..!......G
0F10: 00 4A 80 4B 80 4C 80 4D  80 47 01 01 2A 0F 47 00  .J.K.L.M.G..*.G.
0F20: 4E 80 4F 80 00 80 50 80  47 01 01 AC 0F 02 20 00  N.O...P.G..... .
0F30: 18 80 80 A0 0F 02 1F 00  05 80 80 4C 0F 47 00 51  ...........L.G.Q
0F40: 80 52 80 53 80 54 80 47  01 01 9D 0F 02 1F 00 09  .R.S.T.G........
0F50: 80 80 63 0F 47 00 55 80  56 80 57 80 58 80 47 01  ..c.G.U.V.W.X.G.
0F60: 01 9D 0F 02 1F 00 0A 80  80 7A 0F 47 00 59 80 5A  .........z.G.Y.Z
0F70: 80 5B 80 5C 80 47 01 01  9D 0F 02 1F 00 0B 80 80  .[.\.G..........
0F80: 91 0F 47 00 5D 80 5E 80  5F 80 60 80 47 01 01 9D  ..G.].^._.`.G...
0F90: 0F 47 00 4E 80 4F 80 00  80 50 80 47 01 01 AC 0F  .G.N.O...P.G....
0FA0: 47 00 4E 80 4F 80 00 80  50 80 47 01 38 0F 80 79  G.N.O...P.G.8..y
0FB0: 00 F0 FF FF 7F F0 FF FF  7F 1A DC 12 45 35 80 F0  ............E5..
0FC0: FF FF 7F F0 FF FF 7F 77  68 69 31 00 80 45 0E 80  .......whi1..E..
0FD0: F0 FF FF 7F F0 FF FF 7F  62 6C 6F 66 00 80 5C 00  ........blof..\.
0FE0: 36 80 5C 01 36 80 5C 02  37 80 5C 03 38 80 21 00  6.\.6.\.7.\.8.!.
```

#### Opcodes

```
  0: 0x0E3D [0x06] ExtData[1]->WorkLocal[29] = 0
  1: 0x0E40 [0x06] ExtData[1]->WorkLocal[30] = 0
  2: 0x0E43 [0x03] ExtData[1]->WorkLocal[33] = Work_Zone[6]
  3: 0x0E48 [0x03] ExtData[1]->WorkLocal[32] = Work_Zone[7]
  4: 0x0E4D [0x03] ExtData[1]->WorkLocal[31] = Work_Zone[8]
  5: 0x0E52 [0x06] Work_Zone[1] = 0
  6: 0x0E55 [0x1A] CALL_SUBROUTINE(address=0x12C1)
  7: 0x0E58 [0x02] IF !(ExtData[1]->WorkLocal[29] == 1*) GOTO 0x0FEE
  8: 0x0E60 [0x42] SET_CLI_EVENT_CANCEL_DATA()
  9: 0x0E61 [0x03] Work_Zone[1] = 2*
 10: 0x0E66 [0x43] SEND_EVENT_UPDATE: Send pending tag to server (packet 0x005B)
 11: 0x0E68 [0x43] SEND_EVENT_UPDATE: Check pending flag (skip if not pending)
 12: 0x0E6A [0x03] Work_Zone[1] = 3*
 13: 0x0E6F [0x43] SEND_EVENT_UPDATE: Send pending tag to server (packet 0x005B)
 14: 0x0E71 [0x43] SEND_EVENT_UPDATE: Check pending flag (skip if not pending)
 15: 0x0E73 [0x1A] CALL_SUBROUTINE(address=0x12D8)
 16: 0x0E76 [0x02] IF !(ExtData[1]->WorkLocal[30] == 1*) GOTO 0x0FEE
 17: 0x0E7E [0x45] LOAD_SCHEDULED_TASK: Load scheduler "fdo1" with entities [LocalPlayer, LocalPlayer], work=[200*, 0*]
 18: 0x0E8F [0x55] WAIT_LOAD_SCHEDULER: Wait for scheduler "fdo1" with entities [LocalPlayer, LocalPlayer], work=200*
 19: 0x0E9E [0x03] Work_Zone[1] = 4*
 20: 0x0EA3 [0x02] IF !(ExtData[1]->WorkLocal[32] == 180*) GOTO 0x0F2D
 21: 0x0EAB [0x02] IF !(ExtData[1]->WorkLocal[33] == 0*) GOTO 0x0EC2
 22: 0x0EB3 [0x47] UPDATE_PLAYER_POS(-605.141*, 479.929*, -22.681*, yaw=87.2°*)
 23: 0x0EBD [0x47] WAIT_PLAYER_POS_UPDATE
 24: 0x0EBF [0x01] GOTO 0x0F2A
 25: 0x0EC2 [0x02] IF !(ExtData[1]->WorkLocal[33] == 1*) GOTO 0x0ED9
 26: 0x0ECA [0x47] UPDATE_PLAYER_POS(-262.589*, 377.857*, -137.313*, yaw=305.3°*)
 27: 0x0ED4 [0x47] WAIT_PLAYER_POS_UPDATE
 28: 0x0ED6 [0x01] GOTO 0x0F2A
 29: 0x0ED9 [0x02] IF !(ExtData[1]->WorkLocal[33] == 2*) GOTO 0x0EF0
 30: 0x0EE1 [0x47] UPDATE_PLAYER_POS(18.348*, 486.940*, -224.334*, yaw=17.1°*)
 31: 0x0EEB [0x47] WAIT_PLAYER_POS_UPDATE
 32: 0x0EED [0x01] GOTO 0x0F2A
 33: 0x0EF0 [0x02] IF !(ExtData[1]->WorkLocal[33] == 3*) GOTO 0x0F07
 34: 0x0EF8 [0x47] UPDATE_PLAYER_POS(231.593*, 360.094*, -173.572*, yaw=160.8°*)
 35: 0x0F02 [0x47] WAIT_PLAYER_POS_UPDATE
 36: 0x0F04 [0x01] GOTO 0x0F2A
 37: 0x0F07 [0x02] IF !(ExtData[1]->WorkLocal[33] == 4*) GOTO 0x0F1E
 38: 0x0F0F [0x47] UPDATE_PLAYER_POS(553.664*, 523.939*, -38.205*, yaw=233.9°*)
 39: 0x0F19 [0x47] WAIT_PLAYER_POS_UPDATE
 40: 0x0F1B [0x01] GOTO 0x0F2A
 41: 0x0F1E [0x47] UPDATE_PLAYER_POS(419.992*, 397.858*, 0.000*, yaw=90.0°*)
 42: 0x0F28 [0x47] WAIT_PLAYER_POS_UPDATE

SUBROUTINE_0F2A:
 43: 0x0F2A [0x01] GOTO 0x0FAC
 44: 0x0F2D [0x02] IF !(ExtData[1]->WorkLocal[32] == 6*) GOTO 0x0FA0
 45: 0x0F35 [0x02] IF !(ExtData[1]->WorkLocal[31] == 1*) GOTO 0x0F4C
 46: 0x0F3D [0x47] UPDATE_PLAYER_POS(-875.117*, -43.892*, -48.084*, yaw=45.1°*)
 47: 0x0F47 [0x47] WAIT_PLAYER_POS_UPDATE
 48: 0x0F49 [0x01] GOTO 0x0F9D
 49: 0x0F4C [0x02] IF !(ExtData[1]->WorkLocal[31] == 2*) GOTO 0x0F63
 50: 0x0F54 [0x47] UPDATE_PLAYER_POS(-755.499*, 563.947*, -112.035*, yaw=313.5°*)
 51: 0x0F5E [0x47] WAIT_PLAYER_POS_UPDATE
 52: 0x0F60 [0x01] GOTO 0x0F9D
 53: 0x0F63 [0x02] IF !(ExtData[1]->WorkLocal[31] == 3*) GOTO 0x0F7A
 54: 0x0F6B [0x47] UPDATE_PLAYER_POS(123.251*, 754.209*, -172.124*, yaw=38.7°*)
 55: 0x0F75 [0x47] WAIT_PLAYER_POS_UPDATE
 56: 0x0F77 [0x01] GOTO 0x0F9D
 57: 0x0F7A [0x02] IF !(ExtData[1]->WorkLocal[31] == 4*) GOTO 0x0F91
 58: 0x0F82 [0x47] UPDATE_PLAYER_POS(-516.404*, -803.323*, 24.206*, yaw=38.4°*)
 59: 0x0F8C [0x47] WAIT_PLAYER_POS_UPDATE
 60: 0x0F8E [0x01] GOTO 0x0F9D
 61: 0x0F91 [0x47] UPDATE_PLAYER_POS(419.992*, 397.858*, 0.000*, yaw=90.0°*)
 62: 0x0F9B [0x47] WAIT_PLAYER_POS_UPDATE

SUBROUTINE_0F9D:
 63: 0x0F9D [0x01] GOTO 0x0FAC
 64: 0x0FA0 [0x47] UPDATE_PLAYER_POS(419.992*, 397.858*, 0.000*, yaw=90.0°*)
 65: 0x0FAA [0x47] WAIT_PLAYER_POS_UPDATE

SUBROUTINE_0FAC:
 66: 0x0FAC [0x38] SET_CLIENT_EVENT_MODE(mode=19*)
 67: 0x0FAF [0x79] LocalPlayer looks at LocalPlayer (Basic look)
 68: 0x0FB9 [0x1A] CALL_SUBROUTINE(address=0x12DC)
 69: 0x0FBC [0x45] LOAD_SCHEDULED_TASK: Load scheduler "whi1" with entities [LocalPlayer, LocalPlayer], work=[201*, 0*]
 70: 0x0FCD [0x45] LOAD_SCHEDULED_TASK: Load scheduler "blof" with entities [LocalPlayer, LocalPlayer], work=[200*, 0*]
 71: 0x0FDE [0x5C] MUSIC_CONTROL: Set Idle (Day) music to song 228*
 72: 0x0FE2 [0x5C] MUSIC_CONTROL: Set Idle (Night) music to song 228*
 73: 0x0FE6 [0x5C] MUSIC_CONTROL: Set Combat (Solo) music to song 115*
 74: 0x0FEA [0x5C] MUSIC_CONTROL: Set Combat (Party) music to song 218*
 75: 0x0FEE [0x21] END_EVENT
 76: 0x0FEF [0x00] END_REQSTACK()
```

### Event 32004

#### Metadata

| Field        | Value      |
|--------------|------------|
| Entrypoint   | 0x0FF0     |
| Data Size    | 1856 bytes |
| Instructions | 2          |

```
      00 01 02 03 04 05 06 07  08 09 0A 0B 0C 0D 0E 0F
      -- -- -- -- -- -- -- --  -- -- -- -- -- -- -- --
0FF0: 21 00 24 0C 80 05 80 00  80 25 02 00 10 00 80 00  !.$......%......
1000: 08 10 05 01 00 01 08 10  1B 1A 43 14 46 01 38 0F  ..........C.F.8.
1010: 80 79 00 F0 FF FF 7F F0  FF FF 7F 02 03 00 00 80  .y..............
1020: 80 38 10 92 01 F0 FF FF  7F 6C F0 FF FF 7F 00 80  .8.......l......
1030: 05 80 1A 20 11 01 BC 10  37 94 80 95 80 00 80 96  ... ....7.......
1040: 80 45 97 80 F0 FF FF 7F  F0 FF FF 7F 62 63 30 30  .E..........bc00
1050: 00 80 45 0E 80 F0 FF FF  7F F0 FF FF 7F 66 64 69  ..E..........fdi
1060: 32 00 80 32 1C 80 1F 00  98 80 99 80 00 80 1F 01  2..2............
1070: 6F 1C 01 80 6E F0 FF FF  7F 00 80 99 F0 FF FF 7F  o...n...........
1080: 99 F0 FF FF 7F 9F 9A 80  F0 FF FF 7F F0 FF FF 7F  ................
1090: 6D 61 69 6E 00 80 1C 9B  80 45 0E 80 F0 FF FF 7F  main.....E......
10A0: F0 FF FF 7F 66 64 6F 31  00 80 1C 2E 80 52 97 80  ....fdo1.....R..
10B0: F0 FF FF 7F F0 FF FF 7F  62 63 30 30 94 01 F0 FF  ........bc00....
10C0: FF 7F 79 00 F0 FF FF 7F  F0 FF FF 7F 37 9C 80 9D  ..y.........7...
10D0: 80 00 80 50 80 1C 2A 80  45 97 80 F0 FF FF 7F F0  ...P..*.E.......
10E0: FF FF 7F 62 63 30 31 00  80 45 0E 80 F0 FF FF 7F  ...bc01..E......
10F0: F0 FF FF 7F 66 64 69 31  00 80 9F 9E 80 F0 FF FF  ....fdi1........
1100: 7F F0 FF FF 7F 6D 61 69  6E 00 80 1C 9F 80 55 97  .....main.....U.
1110: 80 F0 FF FF 7F F0 FF FF  7F 62 63 30 31 46 00 1B  .........bc01F..
1120: 27 10 17 32 02 01 02 27  10 18 32 02 01 02 27 10  '..2...'..2...'.
1130: 19 32 02 01 02 27 10 1A  32 02 01 02 92 01 17 32  .2...'..2......2
1140: 02 01 92 01 18 32 02 01  92 01 19 32 02 01 92 01  .....2.....2....
1150: 1A 32 02 01 94 01 17 32  02 01 94 01 18 32 02 01  .2.....2.....2..
1160: 94 01 19 32 02 01 94 01  1A 32 02 01 27 10 17 32  ...2.....2..'..2
1170: 02 01 09 27 10 18 32 02  01 09 27 10 19 32 02 01  ...'..2...'..2..
1180: 09 27 10 1A 32 02 01 09  80 17 32 02 01 80 18 32  .'..2.....2....2
1190: 02 01 80 19 32 02 01 80  1A 32 02 01 1C 2A 80 45  ....2....2...*.E
11A0: 97 80 F0 FF FF 7F F0 FF  FF 7F 62 63 30 32 00 80  ..........bc02..
11B0: 1A 64 14 27 10 17 32 02  01 0B 55 97 80 F0 FF FF  .d.'..2...U.....
11C0: 7F F0 FF FF 7F 62 63 30  32 45 97 80 F0 FF FF 7F  .....bc02E......
11D0: F0 FF FF 7F 62 63 30 33  00 80 27 10 18 32 02 01  ....bc03..'..2..
11E0: 0B 55 97 80 F0 FF FF 7F  F0 FF FF 7F 62 63 30 33  .U..........bc03
11F0: 45 97 80 F0 FF FF 7F F0  FF FF 7F 62 63 30 34 00  E..........bc04.
1200: 80 27 10 19 32 02 01 0B  27 10 1A 32 02 01 0B 1C  .'..2...'..2....
1210: A0 80 1A C7 14 1C 2A 80  1A 85 14 1A A6 14 55 97  ......*.......U.
1220: 80 F0 FF FF 7F F0 FF FF  7F 62 63 30 34 45 97 80  .........bc04E..
1230: F0 FF FF 7F F0 FF FF 7F  30 62 6C 66 00 80 1B 02  ........0blf....
1240: 19 00 00 80 80 4D 12 1A  C0 12 01 4D 12 92 01 F0  .....M.....M....
1250: FF FF 7F 6C F0 FF FF 7F  00 80 05 80 94 01 F0 FF  ...l............
1260: FF 7F 79 00 F0 FF FF 7F  F0 FF FF 7F 37 77 80 78  ..y.........7w.x
1270: 80 00 80 79 80 1C 01 80  45 97 80 F0 FF FF 7F F0  ...y....E.......
1280: FF FF 7F 62 63 30 37 00  80 45 0E 80 F0 FF FF 7F  ...bc07..E......
1290: F0 FF FF 7F 66 64 69 31  00 80 9F 9E 80 F0 FF FF  ....fdi1........
12A0: 7F F0 FF FF 7F 6D 61 69  6E 00 80 1C 9F 80 55 97  .....main.....U.
12B0: 80 F0 FF FF 7F F0 FF FF  7F 62 63 30 37 46 00 1B  .........bc07F..
12C0: 1B 24 A1 80 00 80 00 80  25 02 00 10 00 80 00 D7  .$......%.......
12D0: 12 05 1D 00 01 D7 12 1B  05 1E 00 1B 1A 43 14 1C  .............C..
12E0: 01 80 46 01 37 A2 80 A3  80 00 80 A4 80 45 97 80  ..F.7........E..
12F0: F0 FF FF 7F F0 FF FF 7F  62 63 30 35 00 80 1A 64  ........bc05...d
1300: 14 6E F0 FF FF 7F 00 80  99 F0 FF FF 7F 99 F0 FF  .n..............
1310: FF 7F 9F 9A 80 F0 FF FF  7F F0 FF FF 7F 6D 61 69  .............mai
1320: 6E 00 80 1C 9B 80 45 0E  80 F0 FF FF 7F F0 FF FF  n.....E.........
1330: 7F 66 64 6F 31 00 80 1C  2E 80 52 A5 80 F0 FF FF  .fdo1.....R.....
1340: 7F F0 FF FF 7F 62 63 30  35 94 01 F0 FF FF 7F 79  .....bc05......y
1350: 00 F0 FF FF 7F F0 FF FF  7F 37 4E 80 4F 80 00 80  .........7N.O...
1360: 50 80 1C 01 80 45 97 80  F0 FF FF 7F F0 FF FF 7F  P....E..........
1370: 62 63 30 36 00 80 45 0E  80 F0 FF FF 7F F0 FF FF  bc06..E.........
1380: 7F 66 64 69 31 00 80 9F  9E 80 F0 FF FF 7F F0 FF  .fdi1...........
1390: FF 7F 6D 61 69 6E 00 80  1C 9F 80 55 97 80 F0 FF  ..main.....U....
13A0: FF 7F F0 FF FF 7F 62 63  30 36 46 00 1B 1A 43 14  ......bc06F...C.
13B0: 46 01 94 01 F0 FF FF 7F  79 00 F0 FF FF 7F F0 FF  F.......y.......
13C0: FF 7F 37 4E 80 4F 80 00  80 50 80 1C 01 80 45 97  ..7N.O...P....E.
13D0: 80 F0 FF FF 7F F0 FF FF  7F 62 63 30 36 00 80 45  .........bc06..E
13E0: 0E 80 F0 FF FF 7F F0 FF  FF 7F 66 64 69 31 00 80  ..........fdi1..
13F0: 9F 9E 80 F0 FF FF 7F F0  FF FF 7F 6D 61 69 6E 00  ...........main.
1400: 80 1C 9F 80 55 97 80 F0  FF FF 7F F0 FF FF 7F 62  ....U..........b
1410: 63 30 36 46 00 1B 02 03  00 00 80 80 21 14 01 21  c06F........!..!
1420: 14 1B 45 0E 80 F0 FF FF  7F F0 FF FF 7F 66 64 69  ..E..........fdi
1430: 30 00 80 55 0E 80 F0 FF  FF 7F F0 FF FF 7F 66 64  0..U..........fd
1440: 69 30 1B 45 0E 80 F0 FF  FF 7F F0 FF FF 7F 66 64  i0.E..........fd
1450: 6F 30 00 80 55 0E 80 F0  FF FF 7F F0 FF FF 7F 66  o0..U..........f
1460: 64 6F 30 1B 45 0E 80 F0  FF FF 7F F0 FF FF 7F 66  do0.E..........f
1470: 64 69 31 00 80 55 0E 80  F0 FF FF 7F F0 FF FF 7F  di1..U..........
1480: 66 64 69 31 1B 45 0E 80  F0 FF FF 7F F0 FF FF 7F  fdi1.E..........
1490: 66 64 6F 31 00 80 55 0E  80 F0 FF FF 7F F0 FF FF  fdo1..U.........
14A0: 7F 66 64 6F 31 1B 45 35  80 F0 FF FF 7F F0 FF FF  .fdo1.E5........
14B0: 7F 77 68 69 31 00 80 55  35 80 F0 FF FF 7F F0 FF  .whi1..U5.......
14C0: FF 7F 77 68 69 31 1B 45  35 80 F0 FF FF 7F F0 FF  ..whi1.E5.......
14D0: FF 7F 77 68 6F 31 00 80  55 35 80 F0 FF FF 7F F0  ..who1..U5......
14E0: FF FF 7F 77 68 6F 31 1B  45 35 80 F0 FF FF 7F F0  ...who1.E5......
14F0: FF FF 7F 77 68 6F 32 00  80 55 35 80 F0 FF FF 7F  ...who2..U5.....
1500: F0 FF FF 7F 77 68 6F 32  1B 45 35 80 F0 FF FF 7F  ....who2.E5.....
1510: F0 FF FF 7F 77 68 6F 33  00 80 55 35 80 F0 FF FF  ....who3..U5....
1520: 7F F0 FF FF 7F 77 68 6F  33 1B 62 05 80 F0 FF FF  .....who3.b.....
1530: 7F F0 FF FF 7F 6D 61 69  6E 00 80 1C A6 80 45 0E  .....main.....E.
1540: 80 F0 FF FF 7F F0 FF FF  7F 66 64 6F 31 00 80 55  .........fdo1..U
1550: 0E 80 F0 FF FF 7F F0 FF  FF 7F 66 64 6F 31 1B 45  ..........fdo1.E
1560: 0E 80 F0 FF FF 7F F0 FF  FF 7F 66 64 69 31 00 80  ..........fdi1..
1570: 62 09 80 F0 FF FF 7F F0  FF FF 7F 6D 61 69 6E 00  b..........main.
1580: 80 1C 2A 80 55 0E 80 F0  FF FF 7F F0 FF FF 7F 66  ..*.U..........f
1590: 64 69 31 1B 45 0E 80 F0  FF FF 7F F0 FF FF 7F 62  di1.E..........b
15A0: 6C 6F 6E 00 80 45 35 80  F0 FF FF 7F F0 FF FF 7F  lon..E5.........
15B0: 62 6C 6F 6E 00 80 1B 45  35 80 F0 FF FF 7F F0 FF  blon...E5.......
15C0: FF 7F 77 68 69 30 00 80  55 35 80 F0 FF FF 7F F0  ..whi0..U5......
15D0: FF FF 7F 77 68 69 30 1B  45 35 80 F0 FF FF 7F F0  ...whi0.E5......
15E0: FF FF 7F 77 68 6F 30 00  80 55 35 80 F0 FF FF 7F  ...who0..U5.....
15F0: F0 FF FF 7F 77 68 6F 30  1B 45 A7 80 F0 FF FF 7F  ....who0.E......
1600: F0 FF FF 7F 65 66 6F 6E  00 80 55 A7 80 F0 FF FF  ....efon..U.....
1610: 7F F0 FF FF 7F 65 66 6F  6E 1B 45 0E 80 F0 FF FF  .....efon.E.....
1620: 7F F0 FF FF 7F 66 64 69  73 00 80 1B 45 0E 80 F0  .....fdis...E...
1630: FF FF 7F F0 FF FF 7F 66  64 6F 73 00 80 55 0E 80  .......fdos..U..
1640: F0 FF FF 7F F0 FF FF 7F  66 64 6F 73 1B 45 0E 80  ........fdos.E..
1650: F0 FF FF 7F F0 FF FF 7F  66 64 69 66 00 80 1B 45  ........fdif...E
1660: 0E 80 F0 FF FF 7F F0 FF  FF 7F 66 64 6F 66 00 80  ..........fdof..
1670: 55 0E 80 F0 FF FF 7F F0  FF FF 7F 66 64 6F 66 1B  U..........fdof.
1680: 45 0E 80 F0 FF FF 7F F0  FF FF 7F 66 64 69 70 00  E..........fdip.
1690: 80 1B 45 0E 80 F0 FF FF  7F F0 FF FF 7F 66 64 6F  ..E..........fdo
16A0: 70 00 80 55 0E 80 F0 FF  FF 7F F0 FF FF 7F 66 64  p..U..........fd
16B0: 6F 70 1B 02 00 00 05 80  80 D2 16 03 09 00 9C 80  op..............
16C0: 03 0A 00 9D 80 03 0B 00  00 80 03 0C 00 50 80 01  .............P..
16D0: 2F 17 02 00 00 09 80 80  F1 16 03 09 00 00 80 03  /...............
16E0: 0A 00 00 80 03 0B 00 00  80 03 0C 00 00 80 01 2F  .............../
16F0: 17 02 00 00 0A 80 80 10  17 03 09 00 00 80 03 0A  ................
1700: 00 00 80 03 0B 00 00 80  03 0C 00 00 80 01 2F 17  ............../.
1710: 02 00 00 0B 80 80 2F 17  03 09 00 00 80 03 0A 00  ....../.........
1720: 00 80 03 0B 00 00 80 03  0C 00 00 80 01 2F 17 1B  ............./..
```

#### Opcodes

```
  0: 0x0FF0 [0x21] END_EVENT
  1: 0x0FF1 [0x00] END_REQSTACK()
```

#### Data or dead code:

```
# Dead code (unreachable instructions):
     0x0FF2 [0x24] CREATE_DIALOG(message_id=7068*, default_option=1*, option_flags=0*)
    → "Enter the battlefield? [Enter./Decline.]"
     0x0FF9 [0x25] WAIT_DIALOG_SELECT()
     0x0FFA [0x02] IF !(Work_Zone[0] == 0*) GOTO 0x1008
     0x1002 [0x05] ExtData[1]->WorkLocal[1] = 1
     0x1005 [0x01] GOTO 0x1008
     0x1008 [0x1B] RETURN
     0x1009 [0x1A] CALL_SUBROUTINE(address=0x1443)
     0x100C [0x46] CAMERA_CONTROL: Disable user control
     0x100E [0x38] SET_CLIENT_EVENT_MODE(mode=19*)
     0x1011 [0x79] LocalPlayer looks at LocalPlayer (Basic look)
     0x101B [0x02] IF !(ExtData[1]->WorkLocal[3] == 0*) GOTO 0x1038
     0x1023 [0x92] LocalPlayer->Render.Flags3 ^= 0x01
     0x1029 [0x6C] FADE_ENTITY_COLOR(entity_id=LocalPlayer, end_alpha=0*, fade_time=1*)
     0x1032 [0x1A] CALL_SUBROUTINE(address=0x1120)
     0x1035 [0x01] GOTO 0x10BC
     0x1038 [0x37] UPDATE_EVENT_POSITION_AND_DIR: x=420.032*, z=396.859*, y=0.000*, direction=268.7°*
     0x1041 [0x45] LOAD_SCHEDULED_TASK: Load scheduler "bc00" with entities [LocalPlayer, LocalPlayer], work=[178*, 0*]
     0x1052 [0x45] LOAD_SCHEDULED_TASK: Load scheduler "fdi2" with entities [LocalPlayer, LocalPlayer], work=[200*, 0*]
     0x1063 [0x32] ExtData[1]->MainSpeed = 13* * 0.1
     0x1066 [0x1F] MOVE_ENTITY: EventEntity moves to X=420.004*, Z=398.062*, Y=0.000*
     0x106E [0x1F] MOVE_ENTITY: Update entity position (mode=1)
     0x1070 [0x6F] WAIT_FRAME_DELAY: Yield until WaitTime reaches zero
     0x1071 [0x1C] WAIT(15* ticks)
     0x1074 [0x6E] LocalPlayer uses emote 0*
     0x107B [0x99] Wait for LocalPlayer animation to complete
     0x1080 [0x99] Wait for LocalPlayer animation to complete
     0x1085 [0x9F] LOAD_SCHEDULED_TASK_ALT: Load scheduler "main" with entities [LocalPlayer, LocalPlayer], work=[75*, 0*]
     0x1096 [0x1C] WAIT(140* ticks)
     0x1099 [0x45] LOAD_SCHEDULED_TASK: Load scheduler "fdo1" with entities [LocalPlayer, LocalPlayer], work=[200*, 0*]
     0x10AA [0x1C] WAIT(60* ticks)
     0x10AD [0x52] END_LOAD_SCHEDULER: End scheduler "bc00" with entities [LocalPlayer, LocalPlayer], work=178*
     0x10BC [0x94] LocalPlayer->Render.Flags3 ^= 0x01
     0x10C2 [0x79] LocalPlayer looks at LocalPlayer (Basic look)
     0x10CC [0x37] UPDATE_EVENT_POSITION_AND_DIR: x=419.988*, z=438.049*, y=0.000*, direction=90.0°*
     0x10D5 [0x1C] WAIT(30* ticks)
     0x10D8 [0x45] LOAD_SCHEDULED_TASK: Load scheduler "bc01" with entities [LocalPlayer, LocalPlayer], work=[178*, 0*]
     0x10E9 [0x45] LOAD_SCHEDULED_TASK: Load scheduler "fdi1" with entities [LocalPlayer, LocalPlayer], work=[200*, 0*]
     0x10FA [0x9F] LOAD_SCHEDULED_TASK_ALT: Load scheduler "main" with entities [LocalPlayer, LocalPlayer], work=[76*, 0*]
     0x110B [0x1C] WAIT(150* ticks)
     0x110E [0x55] WAIT_LOAD_SCHEDULER: Wait for scheduler "bc01" with entities [LocalPlayer, LocalPlayer], work=178*
     0x111D [0x46] CAMERA_CONTROL: Restore default settings
     0x111F [0x1B] RETURN
     0x1120 [0x27] REQ_SET(priority=0x10, entity_id=Unnamed NPC (ID: 16921111/0x01023217), tag_num=0x02)
     0x1127 [0x27] REQ_SET(priority=0x10, entity_id=Unnamed NPC (ID: 16921112/0x01023218), tag_num=0x02)
     0x112E [0x27] REQ_SET(priority=0x10, entity_id=Unnamed NPC (ID: 16921113/0x01023219), tag_num=0x02)
     0x1135 [0x27] REQ_SET(priority=0x10, entity_id=Unnamed NPC (ID: 16921114/0x0102321A), tag_num=0x02)
     0x113C [0x92] Unnamed NPC (ID: 16921111/0x01023217)->Render.Flags3 ^= 0x01
     0x1142 [0x92] Unnamed NPC (ID: 16921112/0x01023218)->Render.Flags3 ^= 0x01
     0x1148 [0x92] Unnamed NPC (ID: 16921113/0x01023219)->Render.Flags3 ^= 0x01
     0x114E [0x92] Unnamed NPC (ID: 16921114/0x0102321A)->Render.Flags3 ^= 0x01
     0x1154 [0x94] Unnamed NPC (ID: 16921111/0x01023217)->Render.Flags3 ^= 0x01
     0x115A [0x94] Unnamed NPC (ID: 16921112/0x01023218)->Render.Flags3 ^= 0x01
     0x1160 [0x94] Unnamed NPC (ID: 16921113/0x01023219)->Render.Flags3 ^= 0x01
     0x1166 [0x94] Unnamed NPC (ID: 16921114/0x0102321A)->Render.Flags3 ^= 0x01
     0x116C [0x27] REQ_SET(priority=0x10, entity_id=Unnamed NPC (ID: 16921111/0x01023217), tag_num=0x09)
     0x1173 [0x27] REQ_SET(priority=0x10, entity_id=Unnamed NPC (ID: 16921112/0x01023218), tag_num=0x09)
     0x117A [0x27] REQ_SET(priority=0x10, entity_id=Unnamed NPC (ID: 16921113/0x01023219), tag_num=0x09)
     0x1181 [0x27] REQ_SET(priority=0x10, entity_id=Unnamed NPC (ID: 16921114/0x0102321A), tag_num=0x09)
     0x1188 [0x80] LOAD_WAIT(entity=Unnamed NPC (ID: 16921111/0x01023217))
     0x118D [0x80] LOAD_WAIT(entity=Unnamed NPC (ID: 16921112/0x01023218))
     0x1192 [0x80] LOAD_WAIT(entity=Unnamed NPC (ID: 16921113/0x01023219))
     0x1197 [0x80] LOAD_WAIT(entity=Unnamed NPC (ID: 16921114/0x0102321A))
     0x119C [0x1C] WAIT(30* ticks)
     0x119F [0x45] LOAD_SCHEDULED_TASK: Load scheduler "bc02" with entities [LocalPlayer, LocalPlayer], work=[178*, 0*]
     0x11B0 [0x1A] CALL_SUBROUTINE(address=0x1464)
     0x11B3 [0x27] REQ_SET(priority=0x10, entity_id=Unnamed NPC (ID: 16921111/0x01023217), tag_num=0x0B)
     0x11BA [0x55] WAIT_LOAD_SCHEDULER: Wait for scheduler "bc02" with entities [LocalPlayer, LocalPlayer], work=178*
     0x11C9 [0x45] LOAD_SCHEDULED_TASK: Load scheduler "bc03" with entities [LocalPlayer, LocalPlayer], work=[178*, 0*]
     0x11DA [0x27] REQ_SET(priority=0x10, entity_id=Unnamed NPC (ID: 16921112/0x01023218), tag_num=0x0B)
     0x11E1 [0x55] WAIT_LOAD_SCHEDULER: Wait for scheduler "bc03" with entities [LocalPlayer, LocalPlayer], work=178*
     0x11F0 [0x45] LOAD_SCHEDULED_TASK: Load scheduler "bc04" with entities [LocalPlayer, LocalPlayer], work=[178*, 0*]
     0x1201 [0x27] REQ_SET(priority=0x10, entity_id=Unnamed NPC (ID: 16921113/0x01023219), tag_num=0x0B)
     0x1208 [0x27] REQ_SET(priority=0x10, entity_id=Unnamed NPC (ID: 16921114/0x0102321A), tag_num=0x0B)
     0x120F [0x1C] WAIT(120* ticks)
     0x1212 [0x1A] CALL_SUBROUTINE(address=0x14C7)
     0x1215 [0x1C] WAIT(30* ticks)
     0x1218 [0x1A] CALL_SUBROUTINE(address=0x1485)
     0x121B [0x1A] CALL_SUBROUTINE(address=0x14A6)
     0x121E [0x55] WAIT_LOAD_SCHEDULER: Wait for scheduler "bc04" with entities [LocalPlayer, LocalPlayer], work=178*
     0x122D [0x45] LOAD_SCHEDULED_TASK: Load scheduler "0blf" with entities [LocalPlayer, LocalPlayer], work=[178*, 0*]
     0x123E [0x1B] RETURN
     0x123F [0x02] IF !(ExtData[1]->WorkLocal[25] == 0*) GOTO 0x124D
     0x1247 [0x1A] CALL_SUBROUTINE(address=0x12C0)
     0x124A [0x01] GOTO 0x124D
     0x124D [0x92] LocalPlayer->Render.Flags3 ^= 0x01
     0x1253 [0x6C] FADE_ENTITY_COLOR(entity_id=LocalPlayer, end_alpha=0*, fade_time=1*)
     0x125C [0x94] LocalPlayer->Render.Flags3 ^= 0x01
     0x1262 [0x79] LocalPlayer looks at LocalPlayer (Basic look)
     0x126C [0x37] UPDATE_EVENT_POSITION_AND_DIR: x=419.961*, z=469.960*, y=0.000*, direction=270.0°*
     0x1275 [0x1C] WAIT(15* ticks)
     0x1278 [0x45] LOAD_SCHEDULED_TASK: Load scheduler "bc07" with entities [LocalPlayer, LocalPlayer], work=[178*, 0*]
     0x1289 [0x45] LOAD_SCHEDULED_TASK: Load scheduler "fdi1" with entities [LocalPlayer, LocalPlayer], work=[200*, 0*]
     0x129A [0x9F] LOAD_SCHEDULED_TASK_ALT: Load scheduler "main" with entities [LocalPlayer, LocalPlayer], work=[76*, 0*]
     0x12AB [0x1C] WAIT(150* ticks)
     0x12AE [0x55] WAIT_LOAD_SCHEDULER: Wait for scheduler "bc07" with entities [LocalPlayer, LocalPlayer], work=178*
     0x12BD [0x46] CAMERA_CONTROL: Restore default settings
     0x12BF [0x1B] RETURN
     0x12C0 [0x1B] RETURN
     0x12C1 [0x24] CREATE_DIALOG(message_id=7069*, default_option=0*, option_flags=0*)
    → "Leave the battlefield? [Run away./Stay.]"
     0x12C8 [0x25] WAIT_DIALOG_SELECT()
     0x12C9 [0x02] IF !(Work_Zone[0] == 0*) GOTO 0x12D7
     0x12D1 [0x05] ExtData[1]->WorkLocal[29] = 1
     0x12D4 [0x01] GOTO 0x12D7
     0x12D7 [0x1B] RETURN
     0x12D8 [0x05] ExtData[1]->WorkLocal[30] = 1
     0x12DB [0x1B] RETURN
     0x12DC [0x1A] CALL_SUBROUTINE(address=0x1443)
     0x12DF [0x1C] WAIT(15* ticks)
     0x12E2 [0x46] CAMERA_CONTROL: Disable user control
     0x12E4 [0x37] UPDATE_EVENT_POSITION_AND_DIR: x=420.038*, z=401.912*, y=0.000*, direction=88.9°*
     0x12ED [0x45] LOAD_SCHEDULED_TASK: Load scheduler "bc05" with entities [LocalPlayer, LocalPlayer], work=[178*, 0*]
     0x12FE [0x1A] CALL_SUBROUTINE(address=0x1464)
     0x1301 [0x6E] LocalPlayer uses emote 0*
     0x1308 [0x99] Wait for LocalPlayer animation to complete
     0x130D [0x99] Wait for LocalPlayer animation to complete
     0x1312 [0x9F] LOAD_SCHEDULED_TASK_ALT: Load scheduler "main" with entities [LocalPlayer, LocalPlayer], work=[75*, 0*]
     0x1323 [0x1C] WAIT(140* ticks)
     0x1326 [0x45] LOAD_SCHEDULED_TASK: Load scheduler "fdo1" with entities [LocalPlayer, LocalPlayer], work=[200*, 0*]
     0x1337 [0x1C] WAIT(60* ticks)
     0x133A [0x52] END_LOAD_SCHEDULER: End scheduler "bc05" with entities [LocalPlayer, LocalPlayer], work=179*
     0x1349 [0x94] LocalPlayer->Render.Flags3 ^= 0x01
     0x134F [0x79] LocalPlayer looks at LocalPlayer (Basic look)
     0x1359 [0x37] UPDATE_EVENT_POSITION_AND_DIR: x=419.992*, z=397.858*, y=0.000*, direction=90.0°*
     0x1362 [0x1C] WAIT(15* ticks)
     0x1365 [0x45] LOAD_SCHEDULED_TASK: Load scheduler "bc06" with entities [LocalPlayer, LocalPlayer], work=[178*, 0*]
     0x1376 [0x45] LOAD_SCHEDULED_TASK: Load scheduler "fdi1" with entities [LocalPlayer, LocalPlayer], work=[200*, 0*]
     0x1387 [0x9F] LOAD_SCHEDULED_TASK_ALT: Load scheduler "main" with entities [LocalPlayer, LocalPlayer], work=[76*, 0*]
     0x1398 [0x1C] WAIT(150* ticks)
     0x139B [0x55] WAIT_LOAD_SCHEDULER: Wait for scheduler "bc06" with entities [LocalPlayer, LocalPlayer], work=178*
     0x13AA [0x46] CAMERA_CONTROL: Restore default settings
     0x13AC [0x1B] RETURN
     0x13AD [0x1A] CALL_SUBROUTINE(address=0x1443)
     0x13B0 [0x46] CAMERA_CONTROL: Disable user control
     0x13B2 [0x94] LocalPlayer->Render.Flags3 ^= 0x01
     0x13B8 [0x79] LocalPlayer looks at LocalPlayer (Basic look)
     0x13C2 [0x37] UPDATE_EVENT_POSITION_AND_DIR: x=419.992*, z=397.858*, y=0.000*, direction=90.0°*
     0x13CB [0x1C] WAIT(15* ticks)
     0x13CE [0x45] LOAD_SCHEDULED_TASK: Load scheduler "bc06" with entities [LocalPlayer, LocalPlayer], work=[178*, 0*]
     0x13DF [0x45] LOAD_SCHEDULED_TASK: Load scheduler "fdi1" with entities [LocalPlayer, LocalPlayer], work=[200*, 0*]
     0x13F0 [0x9F] LOAD_SCHEDULED_TASK_ALT: Load scheduler "main" with entities [LocalPlayer, LocalPlayer], work=[76*, 0*]
     0x1401 [0x1C] WAIT(150* ticks)
     0x1404 [0x55] WAIT_LOAD_SCHEDULER: Wait for scheduler "bc06" with entities [LocalPlayer, LocalPlayer], work=178*
     0x1413 [0x46] CAMERA_CONTROL: Restore default settings
     0x1415 [0x1B] RETURN
     0x1416 [0x02] IF !(ExtData[1]->WorkLocal[3] == 0*) GOTO 0x1421
     0x141E [0x01] GOTO 0x1421
     0x1421 [0x1B] RETURN
