# Event 125

## Metadata

| Field           | Value    |
|-----------------|----------|
| Event Index     | 6/6      |
| Offset          | 0x0172   |
| Data Size       | 58 bytes |
| Calculated Size | 58 bytes |
| Instructions    | 14       |

```
      00 01 02 03 04 05 06 07  08 09 0A 0B 0C 0D 0E 0F
      -- -- -- -- -- -- -- --  -- -- -- -- -- -- -- --
0170:       1E F0 FF FF 7F 6F  70 5B 00 80 F8 FF FF 7F    .....op[......
0180: F8 FF FF 7F 74 6C 6B 30  03 02 10 10 80 1D 11 80  ....tlk0........
0190: 23 1D 12 80 1C 13 80 23  5B 00 80 F8 FF FF 7F F8  #......#[.......
01A0: FF FF 7F 74 6C 6B 31 1C  02 80 21 00              ...tlk1...!.    
```

## Opcodes

```
  0: 0x0172 [0x1E] EventEntity looks at LocalPlayer and starts talking
  1: 0x0177 [0x6F] WAIT_FRAME_DELAY: Yield until WaitTime reaches zero
  2: 0x0178 [0x70] WAIT_ENTITY_RENDER_FLAG: Wait while EventEntity->Render.Flags3 bit 2 is set (cancel turn if not)
  3: 0x0179 [0x5B] LOAD_EXT_SCHEDULER: Load scheduler "tlk0" with entities [EventEntity, EventEntity], work=238*
  4: 0x0188 [0x03] Work_Zone[2] = 6008*
  5: 0x018D [0x1D] PRINT_EVENT_MESSAGE(message_id=11831*)
    → "What's that? You need some \u0001\u0005%\u0002\u0000\u0000\u0000?\u007F1\u0000\u0007"
  6: 0x0190 [0x23] WAIT_FOR_DIALOG_INTERACTION
  7: 0x0191 [0x1D] PRINT_EVENT_MESSAGE(message_id=11832*)
    → "Forgive me, I'm just a poor little antiquary. I do not carry such items.\u007F1\u0000\u0007"
  8: 0x0194 [0x1C] WAIT(60* ticks)
  9: 0x0197 [0x23] WAIT_FOR_DIALOG_INTERACTION
 10: 0x0198 [0x5B] LOAD_EXT_SCHEDULER: Load scheduler "tlk1" with entities [EventEntity, EventEntity], work=238*
 11: 0x01A7 [0x1C] WAIT(30* ticks)
 12: 0x01AA [0x21] END_EVENT
 13: 0x01AB [0x00] END_REQSTACK()
```
