# Event 5113

## Metadata

| Field           | Value    |
|-----------------|----------|
| Event Index     | 4/6      |
| Offset          | 0x012E   |
| Data Size       | 61 bytes |
| Calculated Size | 61 bytes |
| Instructions    | 13       |

```
      00 01 02 03 04 05 06 07  08 09 0A 0B 0C 0D 0E 0F
      -- -- -- -- -- -- -- --  -- -- -- -- -- -- -- --
0120:                                            1E F0                ..
0130: FF FF 7F 6F 70 4A F0 FF  FF 7F F8 FF FF 7F 6F 76  ...opJ........ov
0140: F0 FF FF 7F 5B 00 80 F8  FF FF 7F F8 FF FF 7F 74  ....[..........t
0150: 6C 6B 30 1D 0D 80 23 5B  00 80 F8 FF FF 7F F8 FF  lk0...#[........
0160: FF 7F 74 6C 6B 31 1C 02  80 21 00                 ..tlk1...!.     
```

## Opcodes

```
  0: 0x012E [0x1E] EventEntity looks at LocalPlayer and starts talking
  1: 0x0133 [0x6F] WAIT_FRAME_DELAY: Yield until WaitTime reaches zero
  2: 0x0134 [0x70] WAIT_ENTITY_RENDER_FLAG: Wait while EventEntity->Render.Flags3 bit 2 is set (cancel turn if not)
  3: 0x0135 [0x4A] LocalPlayer looks at EventEntity
  4: 0x013E [0x6F] WAIT_FRAME_DELAY: Yield until WaitTime reaches zero
  5: 0x013F [0x76] CHECK_ENTITY_RENDER_FLAGS: Wait until LocalPlayer Render.Flags0 and Render.Flags3 conditions are met
  6: 0x0144 [0x5B] LOAD_EXT_SCHEDULER(work_offset=238*, entity1=EventEntity, entity2=EventEntity, action="tlk0")
  7: 0x0153 [0x1D] PRINT_EVENT_MESSAGE(message_id=11062*)
    → "Thanks! I guarantee you won't regret this. <Wink>\u007F1\u0000\u0007"
  8: 0x0156 [0x23] WAIT_FOR_DIALOG_INTERACTION
  9: 0x0157 [0x5B] LOAD_EXT_SCHEDULER(work_offset=238*, entity1=EventEntity, entity2=EventEntity, action="tlk1")
 10: 0x0166 [0x1C] WAIT(30* ticks)
 11: 0x0169 [0x21] END_EVENT
 12: 0x016A [0x00] END_REQSTACK()
```
