# Event 65535

## Metadata

| Field           | Value    |
|-----------------|----------|
| Event Index     | 62/62    |
| Offset          | 0x0447   |
| Data Size       | 37 bytes |
| Calculated Size | 37 bytes |
| Instructions    | 9        |

```
      00 01 02 03 04 05 06 07  08 09 0A 0B 0C 0D 0E 0F
      -- -- -- -- -- -- -- --  -- -- -- -- -- -- -- --
0440:                      29  08 1B 00 0F 01 01 1D 39         ).......9
0450: 80 23 29 08 1B 00 0F 01  02 29 08 1B 00 0F 01 17  .#)......)......
0460: 1D 3A 80 23 29 08 1B 00  0F 01 18 00              .:.#).......    
```

## Opcodes

```
  0: 0x0447 [0x29] REQ_SET_WAIT(priority=0x08, entity_id=Apururu (ID: 17760283/0x010F001B), tag_num=0x01)
  1: 0x044E [0x1D] PRINT_EVENT_MESSAGE(message_id=12411*)
    → "Oh, they're not for the mages to use, they're for research purposes apparently. Ajido-Marujido must've have bought them for you boys here in Operations.\u007F1\u0000\u0007"
  2: 0x0451 [0x23] WAIT_FOR_DIALOG_INTERACTION
  3: 0x0452 [0x29] REQ_SET_WAIT(priority=0x08, entity_id=Apururu (ID: 17760283/0x010F001B), tag_num=0x02)
  4: 0x0459 [0x29] REQ_SET_WAIT(priority=0x08, entity_id=Apururu (ID: 17760283/0x010F001B), tag_num=0x17)
  5: 0x0460 [0x1D] PRINT_EVENT_MESSAGE(message_id=12412*)
    → "...Well, that's all I came over for, so I guess it's ta-taru for me! Have fun with your research!\u007F1\u0000\u0007"
  6: 0x0463 [0x23] WAIT_FOR_DIALOG_INTERACTION
  7: 0x0464 [0x29] REQ_SET_WAIT(priority=0x08, entity_id=Apururu (ID: 17760283/0x010F001B), tag_num=0x18)
  8: 0x046B [0x00] END_REQSTACK()
```
