# Event 65535

## Metadata

| Field           | Value    |
|-----------------|----------|
| Event Index     | 47/62    |
| Offset          | 0x0322   |
| Data Size       | 37 bytes |
| Calculated Size | 37 bytes |
| Instructions    | 9        |

```
      00 01 02 03 04 05 06 07  08 09 0A 0B 0C 0D 0E 0F
      -- -- -- -- -- -- -- --  -- -- -- -- -- -- -- --
0320:       29 08 1B 00 0F 01  0D 1D 21 80 23 29 08 1B    ).......!.#)..
0330: 00 0F 01 0E 29 08 1B 00  0F 01 03 1D 22 80 23 29  ....).......".#)
0340: 08 1B 00 0F 01 04 00                              .......         
```

## Opcodes

```
  0: 0x0322 [0x29] REQ_SET_WAIT(priority=0x08, entity_id=Apururu (ID: 17760283/0x010F001B), tag_num=0x0D)
  1: 0x0329 [0x1D] PRINT_EVENT_MESSAGE(message_id=3807*)
    → "She meant to teach us the lesson that when two people fight over something, it will surely get broken...\u007F1\u0000\u0007"
  2: 0x032C [0x23] WAIT_FOR_DIALOG_INTERACTION
  3: 0x032D [0x29] REQ_SET_WAIT(priority=0x08, entity_id=Apururu (ID: 17760283/0x010F001B), tag_num=0x0E)
  4: 0x0334 [0x29] REQ_SET_WAIT(priority=0x08, entity_id=Apururu (ID: 17760283/0x010F001B), tag_num=0x03)
  5: 0x033B [0x1D] PRINT_EVENT_MESSAGE(message_id=3808*)
    → "I can't recall ever being so frightened of our mother...\u007F1\u0000\u0007"
  6: 0x033E [0x23] WAIT_FOR_DIALOG_INTERACTION
  7: 0x033F [0x29] REQ_SET_WAIT(priority=0x08, entity_id=Apururu (ID: 17760283/0x010F001B), tag_num=0x04)
  8: 0x0346 [0x00] END_REQSTACK()
```
