# Event 65535

## Metadata

| Field           | Value    |
|-----------------|----------|
| Event Index     | 59/62    |
| Offset          | 0x0401   |
| Data Size       | 46 bytes |
| Calculated Size | 46 bytes |
| Instructions    | 10       |

```
      00 01 02 03 04 05 06 07  08 09 0A 0B 0C 0D 0E 0F
      -- -- -- -- -- -- -- --  -- -- -- -- -- -- -- --
0400:    29 08 1B 00 0F 01 1F  1D 35 80 23 29 08 1B 00   ).......5.#)...
0410: 0F 01 20 4A 11 00 0F 01  1B 00 0F 01 29 08 1B 00  .. J........)...
0420: 0F 01 1B 1D 36 80 23 29  08 1B 00 0F 01 1C 00     ....6.#)....... 
```

## Opcodes

```
  0: 0x0401 [0x29] REQ_SET_WAIT(priority=0x08, entity_id=Apururu (ID: 17760283/0x010F001B), tag_num=0x1F)
  1: 0x0408 [0x1D] PRINT_EVENT_MESSAGE(message_id=12403*)
    → "...Just because my brother isn't here, doesn't mean you can go around endangering adventurers willy-nilly!\u007F1\u0000\u0007"
  2: 0x040B [0x23] WAIT_FOR_DIALOG_INTERACTION
  3: 0x040C [0x29] REQ_SET_WAIT(priority=0x08, entity_id=Apururu (ID: 17760283/0x010F001B), tag_num=0x20)
  4: 0x0413 [0x4A] Hakkuru-Rinkuru (ID: 17760273/0x010F0011) looks at Apururu (ID: 17760283/0x010F001B)
  5: 0x041C [0x29] REQ_SET_WAIT(priority=0x08, entity_id=Apururu (ID: 17760283/0x010F001B), tag_num=0x1B)
  6: 0x0423 [0x1D] PRINT_EVENT_MESSAGE(message_id=12404*)
    → "No matter how desperate the Orastery is for mages, you don't have the right to use adventurers for experiments. You should know better!\u007F1\u0000\u0007"
  7: 0x0426 [0x23] WAIT_FOR_DIALOG_INTERACTION
  8: 0x0427 [0x29] REQ_SET_WAIT(priority=0x08, entity_id=Apururu (ID: 17760283/0x010F001B), tag_num=0x1C)
  9: 0x042E [0x00] END_REQSTACK()
```
