# Event 65535

## Metadata

| Field           | Value    |
|-----------------|----------|
| Event Index     | 42/62    |
| Offset          | 0x02AD   |
| Data Size       | 37 bytes |
| Calculated Size | 37 bytes |
| Instructions    | 9        |

```
      00 01 02 03 04 05 06 07  08 09 0A 0B 0C 0D 0E 0F
      -- -- -- -- -- -- -- --  -- -- -- -- -- -- -- --
02A0:                                         29 08 1B               )..
02B0: 00 0F 01 19 1D 1A 80 23  29 08 1B 00 0F 01 1A 29  .......#)......)
02C0: 08 1B 00 0F 01 01 1D 1B  80 23 29 08 1B 00 0F 01  .........#).....
02D0: 02 00                                             ..              
```

## Opcodes

```
  0: 0x02AD [0x29] REQ_SET_WAIT(priority=0x08, entity_id=Apururu (ID: 17760283/0x010F001B), tag_num=0x19)
  1: 0x02B4 [0x1D] PRINT_EVENT_MESSAGE(message_id=12391*)
    → "No, not particularly.\u0007Professor Shantotto was at the Manustery today and mentioned that I might want to visit the Orastery from time to time and see how things are going.\u007F1\u0000\u0007"
  2: 0x02B7 [0x23] WAIT_FOR_DIALOG_INTERACTION
  3: 0x02B8 [0x29] REQ_SET_WAIT(priority=0x08, entity_id=Apururu (ID: 17760283/0x010F001B), tag_num=0x1A)
  4: 0x02BF [0x29] REQ_SET_WAIT(priority=0x08, entity_id=Apururu (ID: 17760283/0x010F001B), tag_num=0x01)
  5: 0x02C6 [0x1D] PRINT_EVENT_MESSAGE(message_id=12392*)
    → "I thought at first that maybe she was just concerned about everyone here at the Orastery...\u007F1\u0000\u0007"
  6: 0x02C9 [0x23] WAIT_FOR_DIALOG_INTERACTION
  7: 0x02CA [0x29] REQ_SET_WAIT(priority=0x08, entity_id=Apururu (ID: 17760283/0x010F001B), tag_num=0x02)
  8: 0x02D1 [0x00] END_REQSTACK()
```
