# Event 65535

## Metadata

| Field           | Value    |
|-----------------|----------|
| Event Index     | 5/12     |
| Offset          | 0x006B   |
| Data Size       | 50 bytes |
| Calculated Size | 50 bytes |
| Instructions    | 10       |

```
      00 01 02 03 04 05 06 07  08 09 0A 0B 0C 0D 0E 0F
      -- -- -- -- -- -- -- --  -- -- -- -- -- -- -- --
0060:                                   32 01 80 1F 00             2....
0070: 17 80 18 80 19 80 1F 01  1F 00 1A 80 1B 80 1C 80  ................
0080: 1F 01 6F 4B F8 FF FF 7F  1D 80 1C 1E 80 5B 00 80  ..oK.........[..
0090: F8 FF FF 7F F8 FF FF 7F  6B 61 61 30 00           ........kaa0.   
```

## Opcodes

```
  0: 0x006B [0x32] ExtData[1]->MainSpeed = 39* * 0.1
  1: 0x006E [0x1F] MOVE_ENTITY: EventEntity moves to X=-38.900*, Z=209.711*, Y=-5.128*
  2: 0x0076 [0x1F] MOVE_ENTITY: Update entity position (mode=1)
  3: 0x0078 [0x1F] MOVE_ENTITY: EventEntity moves to X=-36.875*, Z=217.886*, Y=-4.903*
  4: 0x0080 [0x1F] MOVE_ENTITY: Update entity position (mode=1)
  5: 0x0082 [0x6F] WAIT_FRAME_DELAY: Yield until WaitTime reaches zero
  6: 0x0083 [0x4B] UPDATE_ENTITY_YAW(entity=EventEntity, yaw=16.48°*)
  7: 0x008A [0x1C] WAIT(15* ticks)
  8: 0x008D [0x5B] LOAD_EXT_SCHEDULER: Load scheduler "kaa0" with entities [EventEntity, EventEntity], work=181*
  9: 0x009C [0x00] END_REQSTACK()
```
