# Event 65535

## Metadata

| Field           | Value    |
|-----------------|----------|
| Event Index     | 5/5      |
| Offset          | 0x005F   |
| Data Size       | 67 bytes |
| Calculated Size | 67 bytes |
| Instructions    | 16       |

```
      00 01 02 03 04 05 06 07  08 09 0A 0B 0C 0D 0E 0F
      -- -- -- -- -- -- -- --  -- -- -- -- -- -- -- --
0050:                                               83                 .
0060: 01 00 07 01 00 04 80 06  02 00 02 02 00 01 00 05  ................
0070: A1 00 1C 05 80 83 02 00  03 00 00 01 00 08 00 00  ................
0080: 02 00 02 00 00 05 80 00  9E 00 02 08 17 01 80 00  ................
0090: 9E 00 03 04 17 04 80 0B  08 17 B4 06 00 00 01 6A  ...............j
00A0: 00 00                                             ..              
```

## Opcodes

```
  0: 0x005F [0x83] ExtData[1]->WorkLocal[1] = GetGameTime()
  1: 0x0062 [0x07] ExtData[1]->WorkLocal[1] += 10*
  2: 0x0067 [0x06] ExtData[1]->WorkLocal[2] = 0
  3: 0x006A [0x02] IF !(ExtData[1]->WorkLocal[2] > ExtData[1]->WorkLocal[1]) GOTO 0x00A1
  4: 0x0072 [0x1C] WAIT(5* ticks)
  5: 0x0075 [0x83] ExtData[1]->WorkLocal[2] = GetGameTime()
  6: 0x0078 [0x03] ExtData[1]->WorkLocal[0] = ExtData[1]->WorkLocal[1]
  7: 0x007D [0x08] ExtData[1]->WorkLocal[0] -= ExtData[1]->WorkLocal[2]
  8: 0x0082 [0x02] IF !(ExtData[1]->WorkLocal[0] == 5*) GOTO 0x009E
  9: 0x008A [0x02] IF !(Work_Zone_1700[8] == 0*) GOTO 0x009E
 10: 0x0092 [0x03] Work_Zone_1700[4] = 10*
 11: 0x0097 [0x0B] Work_Zone_1700[8]++
 12: 0x009A [0xB4] UI_WINDOW_STRING_HANDLER(case=0x06 - Toggle query message flag, flag_value=0x00)
 13: 0x009D [0x00] END_REQSTACK()
 14: 0x009E [0x01] GOTO 0x006A
 15: 0x00A1 [0x00] END_REQSTACK()
```
