# 17977507 - Ramblix

## Common Data

| Field            | Value                           |
|------------------|---------------------------------|
| Zone             | Reisenjima Sanctorium (ID: 293) |
| Block Size       | 5348 bytes                      |
| Total Events     | 7                               |
| References Count | 101                             |

## List of Events

| Event ID              | Entrypoint   |   Size |   Instructions |
|-----------------------|--------------|--------|----------------|
| [65535](#event-65535) | 0x0000       |      1 |              1 |
| [0](#event-0)         | 0x0001       |    484 |            102 |
| [32000](#event-32000) | 0x01E5       |   2255 |            441 |
| [32002](#event-32002) | 0x0AB4       |    133 |             20 |
| [32001](#event-32001) | 0x0B39       |    562 |             98 |
| [32003](#event-32003) | 0x0D6B       |    182 |             33 |
| [32004](#event-32004) | 0x0E21       |   1283 |            185 |

## DAT References (imed_data)

|   Index | Hex Value   |   Dec Value |
|---------|-------------|-------------|
|       0 | 0x001E      |          30 |
|       1 | 0xFFFFFFFE  |  4294967294 |
|       2 | 0x0001      |           1 |
|       3 | 0x0002      |           2 |
|       4 | 0x0003      |           3 |
|       5 | 0x0004      |           4 |
|       6 | 0x0466      |        1126 |
|       7 | 0x1E18      |        7704 |
|       8 | 0x1E19      |        7705 |
|       9 | 0x1E1A      |        7706 |
|      10 | 0x001C      |          28 |
|      11 | 0x001A      |          26 |
|      12 | 0x0016      |          22 |
|      13 | 0x000E      |          14 |
|      14 | 0x1E22      |        7714 |
|      15 | 0x0000      |           0 |
|      16 | 0x1E23      |        7715 |
|      17 | 0x40000000  |  1073741824 |
|      18 | 0x00E6      |         230 |
|      19 | 0x1E1C      |        7708 |
|      20 | 0x1E24      |        7716 |
|      21 | 0x0020      |          32 |
|      22 | 0x1E25      |        7717 |
|      23 | 0x0040      |          64 |
|      24 | 0x1E26      |        7718 |
|      25 | 0x0060      |          96 |
|      26 | 0x1E1B      |        7707 |
|      27 | 0x00C8      |         200 |
|      28 | 0x003C      |          60 |
|      29 | 0x000F      |          15 |
|      30 | 0x0010      |          16 |
|      31 | 0x001F      |          31 |
|      32 | 0xFFFFFFFF  |  4294967295 |
|      33 | 0x1F47      |        8007 |
|      34 | 0x1E0C      |        7692 |
|      35 | 0x0005      |           5 |
|      36 | 0x1C9F      |        7327 |
|      37 | 0x00FF      |         255 |
|      38 | 0x0013      |          19 |
|      39 | 0x0008      |           8 |
|      40 | 0x0009      |           9 |
|      41 | 0x000B      |          11 |
|      42 | 0x7A120     |      500000 |
|      43 | 0x73B90     |      474000 |
|      44 | 0xFFF7E7BC  |  4294436796 |
|      45 | 0x0C04      |        3076 |
|      46 | 0xFFF85EE0  |  4294467296 |
|      47 | 0xFFFF88DC  |  4294936796 |
|      48 | 0xFFF7F950  |  4294441296 |
|      49 | 0x72808     |      469000 |
|      50 | 0x1CAA      |        7338 |
|      51 | 0x1CAB      |        7339 |
|      52 | 0x1CAC      |        7340 |
|      53 | 0x1CAD      |        7341 |
|      54 | 0x1CAE      |        7342 |
|      55 | 0x1CD1      |        7377 |
|      56 | 0x0006      |           6 |
|      57 | 0x0007      |           7 |
|      58 | 0x000A      |          10 |
|      59 | 0x000C      |          12 |
|      60 | 0x000D      |          13 |
|      61 | 0x0011      |          17 |
|      62 | 0x0012      |          18 |
|      63 | 0x0014      |          20 |
|      64 | 0x0015      |          21 |
|      65 | 0x0017      |          23 |
|      66 | 0x0018      |          24 |
|      67 | 0x0019      |          25 |
|      68 | 0x001B      |          27 |
|      69 | 0x001D      |          29 |
|      70 | 0x1E06      |        7686 |
|      71 | 0x1E0B      |        7691 |
|      72 | 0x1E0A      |        7690 |
|      73 | 0x1F45      |        8005 |
|      74 | 0x1F44      |        8004 |
|      75 | 0x0064      |         100 |
|      76 | 0x1DF2      |        7666 |
|      77 | 0x0052      |          82 |
|      78 | 0x1CA2      |        7330 |
|      79 | 0x00C9      |         201 |
|      80 | 0x0FA0      |        4000 |
|      81 | 0x0400      |        1024 |
|      82 | 0x00B4      |         180 |
|      83 | 0x012C      |         300 |
|      84 | 0x0080      |         128 |
|      85 | 0x1DF4      |        7668 |
|      86 | 0x1DF3      |        7667 |
|      87 | 0x1F43      |        8003 |
|      88 | 0x1DF6      |        7670 |
|      89 | 0x1DF5      |        7669 |
|      90 | 0x0078      |         120 |
|      91 | 0x1CA0      |        7328 |
|      92 | 0x0077      |         119 |
|      93 | 0x007C      |         124 |
|      94 | 0x0081      |         129 |
|      95 | 0x0086      |         134 |
|      96 | 0x008B      |         139 |
|      97 | 0x005A      |          90 |
|      98 | 0x006C      |         108 |
|      99 | 0x002D      |          45 |
|     100 | 0x00D7      |         215 |

## String References

- **7327**: Enter the battlefield? [Enter./Decline.]
- **7328**: Leave the battlefield? [Run away./Stay.]
- **7330**: You cannot enter the battlefield at present. Please wait a little longer.
- **7338**: You are cleared to enter the battlefield, but you cannot while party members are engaged in combat.
- **7339**: You are cleared to enter the battlefield, but you cannot while party members are engaged in combat.
- **7340**: You are cleared to enter the battlefield, but you cannot while party members are engaged in combat.
- **7341**: You are cleared to enter the battlefield, but you cannot while party members are engaged in combat.
- **7342**: You are cleared to enter the battlefield, but you cannot while party members are engaged in combat.
- **7377**: You do not meet the requirements to enter the battlefield. Access is denied.
- **7666**: Skip the event? [Yes./No.]
- **7667**: Battlefield clear time: $3 second[/s]!
- **7668**: Battlefield clear time: $3 minute[/s], $2 second[/s]!
- **7669**: The current battlefield clear time record is $3 second[/s].
- **7670**: The current battlefield clear time record is $3 minute[/s] $2 second[/s].
- **7686**: Only $3 [member/members] have clearance to enter the battlefield. This room has reached its maximum capacity.
- **7690**: That record is held by $5 adventurers, including %0!
- **7691**: That record is held by %0!
- **7692**: Select difficulty. [Very difficult. (Level: ???)/Difficult. (Level: ???)/Normal. (Level: $18)/Easy. (Level: $17)/Very Easy. (Level: $16)/Leave.]
- **7704**: Oh my Gob! You're one of those adventurerurers, aren't ya? You got nothin' on me, [man./lady.] I was just mindin' my own businesesess, lookin' for junk an' stuff.
- **7705**: Hey, watch out. You don't wanna fight me. I'll turn you into meat jerky! Wait, how about you and me be friends instead? Sound good?
- **7706**: I travel all over the world and hear lots of differererent stories. I even hear your stories. I can tell you one, if you want.
- **7707**: Now, listen close...
- **7708**: Oh... Well, if that's the case, I'm outta here.
- **7714**: Do you want to hear a story? [No, thank you./Let's hear one.]
- **7715**: What story would you like to be told? [On second thought, maybe later./The Crucible(pt.1)./The Crucible(pt.2)./The Crucible(pt.3)./The Crucible(pt.4)./Unshakable Nightmares./The Lifestream of Reisenjima(pt.1)./The Lifestream of Reisenjima(pt.2)./Way to Divinity(pt.1)./Way to Divinity(pt.2)./The Winds of Time./Nary a Cloud in Sight./Guardians./Absolute Trust./The Orb's Radiance(pt.1)./The Orb's Radiance(pt.2)./A Rhapsody for the Ages.]
- **7716**: 
- **7717**: 
- **7718**: 
- **8003**: You have broken the clear time record for "[The Orb's Radiance/Letter from Iroha/Letter from Reisenjima/$26The Orb's Radiance]"!
- **8004**: The current battlefield clear time record for "[The Orb's Radiance/Letter from Iroha/Letter from Reisenjima/$26The Orb's Radiance]" is $3 second[/s].
- **8005**: The current battlefield clear time record for "[The Orb's Radiance/Letter from Iroha/Letter from Reisenjima/$26The Orb's Radiance]" is $3 minute[/s] $2 second[/s].
- **8007**: Which battlefield will you enter? [None./The Orb's Radiance./Letter from Iroha. (CL: 119)/Letter from Reisenjima./$26The Orb's Radiance./]

## Events

### Event 65535

#### Metadata

| Field        | Value   |
|--------------|---------|
| Entrypoint   | 0x0000  |
| Data Size    | 1 bytes |
| Instructions | 1       |

```
      00 01 02 03 04 05 06 07  08 09 0A 0B 0C 0D 0E 0F
      -- -- -- -- -- -- -- --  -- -- -- -- -- -- -- --
0000: 00                                                .               
```

#### Opcodes

```
  0: 0x0000 [0x00] END_REQSTACK()
```

### Event 0

#### Metadata

| Field        | Value     |
|--------------|-----------|
| Entrypoint   | 0x0001    |
| Data Size    | 484 bytes |
| Instructions | 90        |

```
      00 01 02 03 04 05 06 07  08 09 0A 0B 0C 0D 0E 0F
      -- -- -- -- -- -- -- --  -- -- -- -- -- -- -- --
0000:    20 01 42 22 00 1E F0  FF FF 7F 4A F0 FF FF 7F    .B"......J....
0010: A3 50 12 01 03 00 00 00  80 02 02 10 01 80 01 28  .P.............(
0020: 00 3D 00 00 02 80 02 80  02 03 10 01 80 01 37 00  .=............7.
0030: 3D 00 00 03 80 02 80 02  04 10 01 80 01 46 00 3D  =............F.=
0040: 00 00 04 80 02 80 02 05  10 01 80 01 55 00 3D 00  ............U.=.
0050: 00 05 80 02 80 03 09 10  06 80 1D 07 80 23 1D 08  .............#..
0060: 80 23 1D 09 80 23 02 00  00 0A 80 00 71 00 01 A2  .#...#......q...
0070: 00 02 00 00 0B 80 00 7C  00 01 E6 00 02 00 00 0C  .......|........
0080: 80 00 87 00 01 2A 01 02  00 00 0D 80 00 92 00 01  .....*..........
0090: 6E 01 24 0E 80 0F 80 00  00 25 02 00 10 02 80 00  n.$......%......
00A0: DE 00 24 10 80 0F 80 02  10 25 02 00 10 0F 80 00  ..$......%......
00B0: D1 00 03 01 10 11 80 9F  12 80 F8 FF FF 7F F8 FF  ................
00C0: FF 7F 6D 61 69 6E 0F 80  1D 13 80 23 21 00 01 DB  ..main.....#!...
00D0: 00 03 01 10 0F 80 0E 01  10 00 10 01 C6 01 02 00  ................
00E0: 10 03 80 00 22 01 24 14  80 0F 80 03 10 25 02 00  ....".$......%..
00F0: 10 0F 80 00 15 01 03 01  10 11 80 9F 12 80 F8 FF  ................
0100: FF 7F F8 FF FF 7F 6D 61  69 6E 0F 80 1D 13 80 23  ......main.....#
0110: 21 00 01 1F 01 03 01 10  15 80 0E 01 10 00 10 01  !...............
0120: C6 01 02 00 10 04 80 00  66 01 24 16 80 0F 80 04  ........f.$.....
0130: 10 25 02 00 10 0F 80 00  59 01 03 01 10 11 80 9F  .%......Y.......
0140: 12 80 F8 FF FF 7F F8 FF  FF 7F 6D 61 69 6E 0F 80  ..........main..
0150: 1D 13 80 23 21 00 01 63  01 03 01 10 17 80 0E 01  ...#!..c........
0160: 10 00 10 01 C6 01 02 00  10 05 80 00 AA 01 24 18  ..............$.
0170: 80 0F 80 05 10 25 02 00  10 0F 80 00 9D 01 03 01  .....%..........
0180: 10 11 80 9F 12 80 F8 FF  FF 7F F8 FF FF 7F 6D 61  ..............ma
0190: 69 6E 0F 80 1D 13 80 23  21 00 01 A7 01 03 01 10  in.....#!.......
01A0: 19 80 0E 01 10 00 10 01  C6 01 03 01 10 11 80 9F  ................
01B0: 12 80 F8 FF FF 7F F8 FF  FF 7F 6D 61 69 6E 0F 80  ..........main..
01C0: 1D 13 80 23 21 00 1D 1A  80 23 43 00 43 01 45 1B  ...#!....#C.C.E.
01D0: 80 F8 FF FF 7F F8 FF FF  7F 66 64 6F 31 0F 80 1C  .........fdo1...
01E0: 1C 80 30 21 00                                    ..0!.           
```

#### Opcodes

```
  0: 0x0001 [0x20] SET_CLI_EVENT_UC_FLAG: Lock player control
  1: 0x0003 [0x42] SET_CLI_EVENT_CANCEL_DATA()
  2: 0x0004 [0x22] ENTITY_HIDE_FLAG(enabled=0x00)
  3: 0x0006 [0x1E] EventEntity looks at LocalPlayer and starts talking
  4: 0x000B [0x4A] LocalPlayer looks at Ramblix (ID: 17977507/0x011250A3)
  5: 0x0014 [0x03] ExtData[1]->WorkLocal[0] = 30*
  6: 0x0019 [0x02] IF !(Work_Zone[2] == 4294967294*) GOTO 0x0028
  7: 0x0021 [0x3D] CLEAR_BIT_FLAG_CONDITIONAL(target_work_offset=ExtData[1]->WorkLocal[0], bit_index_work_offset=1*, condition_work_offset=1*)
  8: 0x0028 [0x02] IF !(Work_Zone[3] == 4294967294*) GOTO 0x0037
  9: 0x0030 [0x3D] CLEAR_BIT_FLAG_CONDITIONAL(target_work_offset=ExtData[1]->WorkLocal[0], bit_index_work_offset=2*, condition_work_offset=1*)
 10: 0x0037 [0x02] IF !(Work_Zone[4] == 4294967294*) GOTO 0x0046
 11: 0x003F [0x3D] CLEAR_BIT_FLAG_CONDITIONAL(target_work_offset=ExtData[1]->WorkLocal[0], bit_index_work_offset=3*, condition_work_offset=1*)
 12: 0x0046 [0x02] IF !(Work_Zone[5] == 4294967294*) GOTO 0x0055
 13: 0x004E [0x3D] CLEAR_BIT_FLAG_CONDITIONAL(target_work_offset=ExtData[1]->WorkLocal[0], bit_index_work_offset=4*, condition_work_offset=1*)
 14: 0x0055 [0x03] Work_Zone[9] = 1126*
 15: 0x005A [0x1D] PRINT_EVENT_MESSAGE(message_id=7704*)
    → "Oh my Gob! You're one of those adventurerurers, aren't ya? You got nothin' on me, [man./lady.] I was just mindin' my own businesesess, lookin' for junk an' stuff."
 16: 0x005D [0x23] WAIT_FOR_DIALOG_INTERACTION
 17: 0x005E [0x1D] PRINT_EVENT_MESSAGE(message_id=7705*)
    → "Hey, watch out. You don't wanna fight me. I'll turn you into meat jerky! Wait, how about you and me be friends instead? Sound good?"
 18: 0x0061 [0x23] WAIT_FOR_DIALOG_INTERACTION
 19: 0x0062 [0x1D] PRINT_EVENT_MESSAGE(message_id=7706*)
    → "I travel all over the world and hear lots of differererent stories. I even hear your stories. I can tell you one, if you want."
 20: 0x0065 [0x23] WAIT_FOR_DIALOG_INTERACTION
 21: 0x0066 [0x02] IF !(ExtData[1]->WorkLocal[0] == 28*) GOTO 0x0071
 22: 0x006E [0x01] GOTO 0x00A2
 23: 0x0071 [0x02] IF !(ExtData[1]->WorkLocal[0] == 26*) GOTO 0x007C
 24: 0x0079 [0x01] GOTO 0x00E6
 25: 0x007C [0x02] IF !(ExtData[1]->WorkLocal[0] == 22*) GOTO 0x0087
 26: 0x0084 [0x01] GOTO 0x012A
 27: 0x0087 [0x02] IF !(ExtData[1]->WorkLocal[0] == 14*) GOTO 0x0092
 28: 0x008F [0x01] GOTO 0x016E
 29: 0x0092 [0x24] CREATE_DIALOG(message_id=7714*, default_option=0*, option_flags=ExtData[1]->WorkLocal[0])
    → "Do you want to hear a story? [No, thank you./Let's hear one.]"
 30: 0x0099 [0x25] WAIT_DIALOG_SELECT()
 31: 0x009A [0x02] IF !(Work_Zone[0] == 1*) GOTO 0x00DE

SUBROUTINE_00A2:
 32: 0x00A2 [0x24] CREATE_DIALOG(message_id=7715*, default_option=0*, option_flags=Work_Zone[2])
    → "What story would you like to be told? [On second thought, maybe later./The Crucible(pt.1)./The Crucible(pt.2)./The Crucible(pt.3)./The Crucible(pt.4)./Unshakable Nightmares./The Lifestream of Reisenjima(pt.1)./The Lifestream of Reisenjima(pt.2)./Way to Divinity(pt.1)./Way to Divinity(pt.2)./The Winds of Time./Nary a Cloud in Sight./Guardians./Absolute Trust./The Orb's Radiance(pt.1)./The Orb's Radiance(pt.2)./A Rhapsody for the Ages.]"
 33: 0x00A9 [0x25] WAIT_DIALOG_SELECT()
 34: 0x00AA [0x02] IF !(Work_Zone[0] == 0*) GOTO 0x00D1
 35: 0x00B2 [0x03] Work_Zone[1] = 1073741824*
 36: 0x00B7 [0x9F] LOAD_SCHEDULED_TASK_ALT: Load scheduler "main" with entities [EventEntity, EventEntity], work=[230*, 0*]
 37: 0x00C8 [0x1D] PRINT_EVENT_MESSAGE(message_id=7708*)
    → "Oh... Well, if that's the case, I'm outta here."
 38: 0x00CB [0x23] WAIT_FOR_DIALOG_INTERACTION
 39: 0x00CC [0x21] END_EVENT
 40: 0x00CD [0x00] END_REQSTACK()

SUBROUTINE_00DB:
 41: 0x00DB [0x01] GOTO 0x01C6
 42: 0x00DE [0x02] IF !(Work_Zone[0] == 2*) GOTO 0x0122

SUBROUTINE_00E6:
 43: 0x00E6 [0x24] CREATE_DIALOG(message_id=7716*, default_option=0*, option_flags=Work_Zone[3])
    → ""
 44: 0x00ED [0x25] WAIT_DIALOG_SELECT()
 45: 0x00EE [0x02] IF !(Work_Zone[0] == 0*) GOTO 0x0115
 46: 0x00F6 [0x03] Work_Zone[1] = 1073741824*
 47: 0x00FB [0x9F] LOAD_SCHEDULED_TASK_ALT: Load scheduler "main" with entities [EventEntity, EventEntity], work=[230*, 0*]
 48: 0x010C [0x1D] PRINT_EVENT_MESSAGE(message_id=7708*)
    → "Oh... Well, if that's the case, I'm outta here."
 49: 0x010F [0x23] WAIT_FOR_DIALOG_INTERACTION
 50: 0x0110 [0x21] END_EVENT
 51: 0x0111 [0x00] END_REQSTACK()

SUBROUTINE_011F:
 52: 0x011F [0x01] GOTO 0x01C6
 53: 0x0122 [0x02] IF !(Work_Zone[0] == 3*) GOTO 0x0166

SUBROUTINE_012A:
 54: 0x012A [0x24] CREATE_DIALOG(message_id=7717*, default_option=0*, option_flags=Work_Zone[4])
    → ""
 55: 0x0131 [0x25] WAIT_DIALOG_SELECT()
 56: 0x0132 [0x02] IF !(Work_Zone[0] == 0*) GOTO 0x0159
 57: 0x013A [0x03] Work_Zone[1] = 1073741824*
 58: 0x013F [0x9F] LOAD_SCHEDULED_TASK_ALT: Load scheduler "main" with entities [EventEntity, EventEntity], work=[230*, 0*]
 59: 0x0150 [0x1D] PRINT_EVENT_MESSAGE(message_id=7708*)
    → "Oh... Well, if that's the case, I'm outta here."
 60: 0x0153 [0x23] WAIT_FOR_DIALOG_INTERACTION
 61: 0x0154 [0x21] END_EVENT
 62: 0x0155 [0x00] END_REQSTACK()

SUBROUTINE_0163:
 63: 0x0163 [0x01] GOTO 0x01C6
 64: 0x0166 [0x02] IF !(Work_Zone[0] == 4*) GOTO 0x01AA

SUBROUTINE_016E:
 65: 0x016E [0x24] CREATE_DIALOG(message_id=7718*, default_option=0*, option_flags=Work_Zone[5])
    → ""
 66: 0x0175 [0x25] WAIT_DIALOG_SELECT()
 67: 0x0176 [0x02] IF !(Work_Zone[0] == 0*) GOTO 0x019D
 68: 0x017E [0x03] Work_Zone[1] = 1073741824*
 69: 0x0183 [0x9F] LOAD_SCHEDULED_TASK_ALT: Load scheduler "main" with entities [EventEntity, EventEntity], work=[230*, 0*]
 70: 0x0194 [0x1D] PRINT_EVENT_MESSAGE(message_id=7708*)
    → "Oh... Well, if that's the case, I'm outta here."
 71: 0x0197 [0x23] WAIT_FOR_DIALOG_INTERACTION
 72: 0x0198 [0x21] END_EVENT
 73: 0x0199 [0x00] END_REQSTACK()

SUBROUTINE_01A7:
 74: 0x01A7 [0x01] GOTO 0x01C6
 75: 0x01AA [0x03] Work_Zone[1] = 1073741824*
 76: 0x01AF [0x9F] LOAD_SCHEDULED_TASK_ALT: Load scheduler "main" with entities [EventEntity, EventEntity], work=[230*, 0*]
 77: 0x01C0 [0x1D] PRINT_EVENT_MESSAGE(message_id=7708*)
    → "Oh... Well, if that's the case, I'm outta here."
 78: 0x01C3 [0x23] WAIT_FOR_DIALOG_INTERACTION
 79: 0x01C4 [0x21] END_EVENT
 80: 0x01C5 [0x00] END_REQSTACK()

SUBROUTINE_01C6:
 81: 0x01C6 [0x1D] PRINT_EVENT_MESSAGE(message_id=7707*)
    → "Now, listen close..."
 82: 0x01C9 [0x23] WAIT_FOR_DIALOG_INTERACTION
 83: 0x01CA [0x43] SEND_EVENT_UPDATE: Send pending tag to server (packet 0x005B)
 84: 0x01CC [0x43] SEND_EVENT_UPDATE: Check pending flag (skip if not pending)
 85: 0x01CE [0x45] LOAD_SCHEDULED_TASK: Load scheduler "fdo1" with entities [EventEntity, EventEntity], work=[200*, 0*]
 86: 0x01DF [0x1C] WAIT(60* ticks)
 87: 0x01E2 [0x30] SET_UCOFF_CONTINUE_ZERO()
 88: 0x01E3 [0x21] END_EVENT
 89: 0x01E4 [0x00] END_REQSTACK()
```

#### Data or dead code:

```
# Dead code (unreachable instructions):
     0x00CE [0x01] GOTO 0x00DB
# Dead code (unreachable instructions):
     0x0112 [0x01] GOTO 0x011F
# Dead code (unreachable instructions):
     0x0156 [0x01] GOTO 0x0163
# Dead code (unreachable instructions):
     0x019A [0x01] GOTO 0x01A7
```

### Event 32000

#### Metadata

| Field        | Value      |
|--------------|------------|
| Entrypoint   | 0x01E5     |
| Data Size    | 2255 bytes |
| Instructions | 308        |

```
      00 01 02 03 04 05 06 07  08 09 0A 0B 0C 0D 0E 0F
      -- -- -- -- -- -- -- --  -- -- -- -- -- -- -- --
01E0:                20 01 79  00 F0 FF FF 7F F0 FF FF        .y........
01F0: 7F 03 03 00 02 10 03 04  00 03 10 03 06 00 05 10  ................
0200: 03 0F 00 06 10 03 10 00  07 10 03 11 00 08 10 41  ...............A
0210: 0F 80 1D 80 09 10 07 00  41 1E 80 1F 80 09 10 06  ........A.......
0220: 10 06 02 00 02 07 00 0F  80 00 23 03 03 08 00 20  ..........#.... 
0230: 80 0F 08 00 06 00 10 08  00 02 80 24 21 80 0F 80  ...........$!...
0240: 08 00 25 02 00 10 0F 80  00 51 02 01 99 0A 01 23  ..%......Q.....#
0250: 03 03 04 00 00 10 0C 04  00 06 16 00 06 13 00 3E  ...............>
0260: 0F 00 04 00 FF 02 06 0F  00 06 08 00 3E 11 00 04  ............>...
0270: 00 76 02 01 7D 02 3C 08  00 0F 80 02 80 3E 10 00  .v..}.<......>..
0280: 04 00 87 02 01 8E 02 3C  08 00 02 80 02 80 1A FF  .......<........
0290: 0F 24 22 80 23 80 08 00  25 02 00 10 0F 80 00 A9  .$".#...%.......
02A0: 02 03 0F 00 02 80 01 FC  02 02 00 10 02 80 00 B9  ................
02B0: 02 03 0F 00 03 80 01 FC  02 02 00 10 03 80 00 C9  ................
02C0: 02 03 0F 00 04 80 01 FC  02 02 00 10 04 80 00 D9  ................
02D0: 02 03 0F 00 05 80 01 FC  02 02 00 10 05 80 00 E9  ................
02E0: 02 03 0F 00 23 80 01 FC  02 02 00 10 23 80 00 F7  ....#.......#...
02F0: 02 01 99 0A 01 FC 02 03  0F 00 04 80 01 23 03 06  .............#..
0300: 0F 00 1A B3 0A 02 16 00  02 80 00 23 03 24 24 80  ...........#.$$.
0310: 02 80 0F 80 25 02 00 10  02 80 00 23 03 01 99 0A  ....%......#....
0320: 01 23 03 42 03 01 10 25  80 43 00 43 01 06 01 10  .#.B...%.C.C....
0330: 45 1B 80 F0 FF FF 7F F0  FF FF 7F 66 64 6F 31 0F  E..........fdo1.
0340: 80 55 1B 80 F0 FF FF 7F  F0 FF FF 7F 66 64 6F 31  .U..........fdo1
0350: 3B F0 FF FF 7F 20 10 21  10 22 10 38 26 80 02 07  ;.... .!.".8&...
0360: 00 02 80 00 7D 03 03 01  00 02 80 03 05 00 04 00  ....}...........
0370: 03 03 00 0F 80 03 1C 00  0F 80 01 D7 07 03 01 00  ................
0380: 02 80 02 01 00 04 80 05  62 0A 40 0F 80 04 80 01  ........b.@.....
0390: 10 01 00 40 05 80 27 80  01 10 04 00 40 28 80 29  ...@..'.....@(.)
03A0: 80 01 10 0F 00 06 02 10  06 03 10 06 04 10 02 01  ................
03B0: 00 02 80 80 CD 03 03 09  00 2A 80 03 0A 00 2B 80  .........*....+.
03C0: 03 0B 00 2C 80 03 0C 00  2D 80 01 49 04 02 01 00  ...,....-..I....
03D0: 03 80 80 EC 03 03 09 00  2E 80 03 0A 00 2B 80 03  .............+..
03E0: 0B 00 2F 80 03 0C 00 2D  80 01 49 04 02 01 00 04  ../....-..I.....
03F0: 80 80 0B 04 03 09 00 2E  80 03 0A 00 30 80 03 0B  ............0...
0400: 00 31 80 03 0C 00 2D 80  01 49 04 02 01 00 05 80  .1....-..I......
0410: 80 2A 04 03 09 00 0F 80  03 0A 00 0F 80 03 0B 00  .*..............
0420: 0F 80 03 0C 00 0F 80 01  49 04 02 01 00 23 80 80  ........I....#..
0430: 49 04 03 09 00 0F 80 03  0A 00 0F 80 03 0B 00 0F  I...............
0440: 80 03 0C 00 0F 80 01 49  04 47 00 09 00 0A 00 0B  .......I.G......
0450: 00 0C 00 47 01 03 05 00  03 10 03 03 00 04 10 03  ...G............
0460: 1A 00 05 10 03 0D 00 06  10 03 0E 00 07 10 03 1C  ................
0470: 00 09 10 02 02 10 02 80  80 7E 04 01 5C 0A 02 02  .........~..\...
0480: 10 05 80 80 D7 04 02 01  00 02 80 80 95 04 48 32  ..............H2
0490: 80 23 01 D1 04 02 01 00  03 80 80 A4 04 48 33 80  .#...........H3.
04A0: 23 01 D1 04 02 01 00 04  80 80 B3 04 48 34 80 23  #...........H4.#
04B0: 01 D1 04 02 01 00 05 80  80 C2 04 48 35 80 23 01  ...........H5.#.
04C0: D1 04 02 01 00 23 80 80  D1 04 48 36 80 23 01 D1  .....#....H6.#..
04D0: 04 01 66 0A 01 5C 0A 02  02 10 23 80 80 E9 04 48  ..f..\....#....H
04E0: 37 80 23 01 66 0A 01 5C  0A 02 02 10 38 80 80 EB  7.#.f..\....8...
04F0: 06 02 05 00 0F 80 80 01  05 03 05 10 38 80 01 E1  ............8...
0500: 06 02 05 00 02 80 80 11  05 03 05 10 38 80 01 E1  ............8...
0510: 06 02 05 00 03 80 80 21  05 03 05 10 38 80 01 E1  .......!....8...
0520: 06 02 05 00 04 80 80 31  05 03 05 10 38 80 01 E1  .......1....8...
0530: 06 02 05 00 05 80 80 41  05 03 05 10 0F 80 01 E1  .......A........
0540: 06 02 05 00 23 80 80 51  05 03 05 10 0F 80 01 E1  ....#..Q........
0550: 06 02 05 00 38 80 80 61  05 03 05 10 0F 80 01 E1  ....8..a........
0560: 06 02 05 00 39 80 80 71  05 03 05 10 0F 80 01 E1  ....9..q........
0570: 06 02 05 00 27 80 80 81  05 03 05 10 0F 80 01 E1  ....'...........
0580: 06 02 05 00 28 80 80 91  05 03 05 10 0F 80 01 E1  ....(...........
0590: 06 02 05 00 3A 80 80 A1  05 03 05 10 0F 80 01 E1  ....:...........
05A0: 06 02 05 00 29 80 80 B1  05 03 05 10 0F 80 01 E1  ....)...........
05B0: 06 02 05 00 3B 80 80 C1  05 03 05 10 0F 80 01 E1  ....;...........
05C0: 06 02 05 00 3C 80 80 D1  05 03 05 10 0F 80 01 E1  ....<...........
05D0: 06 02 05 00 0D 80 80 E1  05 03 05 10 0F 80 01 E1  ................
05E0: 06 02 05 00 1D 80 80 F1  05 03 05 10 0F 80 01 E1  ................
05F0: 06 02 05 00 1E 80 80 01  06 03 05 10 0F 80 01 E1  ................
0600: 06 02 05 00 3D 80 80 11  06 03 05 10 0F 80 01 E1  ....=...........
0610: 06 02 05 00 3E 80 80 21  06 03 05 10 0F 80 01 E1  ....>..!........
0620: 06 02 05 00 26 80 80 31  06 03 05 10 0F 80 01 E1  ....&..1........
0630: 06 02 05 00 3F 80 80 41  06 03 05 10 0F 80 01 E1  ....?..A........
0640: 06 02 05 00 40 80 80 51  06 03 05 10 0F 80 01 E1  ....@..Q........
0650: 06 02 05 00 0C 80 80 61  06 03 05 10 0F 80 01 E1  .......a........
0660: 06 02 05 00 41 80 80 71  06 03 05 10 0F 80 01 E1  ....A..q........
0670: 06 02 05 00 42 80 80 81  06 03 05 10 0F 80 01 E1  ....B...........
0680: 06 02 05 00 43 80 80 91  06 03 05 10 0F 80 01 E1  ....C...........
0690: 06 02 05 00 0B 80 80 A1  06 03 05 10 0F 80 01 E1  ................
06A0: 06 02 05 00 44 80 80 B1  06 03 05 10 0F 80 01 E1  ....D...........
06B0: 06 02 05 00 0A 80 80 C1  06 03 05 10 0F 80 01 E1  ................
06C0: 06 02 05 00 45 80 80 D1  06 03 05 10 0F 80 01 E1  ....E...........
06D0: 06 02 05 00 00 80 80 E1  06 03 05 10 0F 80 01 E1  ................
06E0: 06 48 46 80 23 01 66 0A  01 5C 0A 02 02 10 04 80  .HF.#.f..\......
06F0: 80 F9 06 01 7D 03 01 5C  0A 02 02 10 03 80 80 5C  ....}..\.......\
0700: 0A 02 0D 00 0F 80 01 8D  07 02 13 00 0F 80 01 41  ...............A
0710: 07 03 05 10 1A 00 02 1A  00 0F 80 02 1E 07 02 0D  ................
0720: 00 02 80 05 2D 07 48 47  80 23 01 3E 07 03 06 10  ....-.HG.#.>....
0730: 0D 00 0C 06 10 03 07 10  0D 00 48 48 80 23 01 8D  ..........HH.#..
0740: 07 03 05 10 1A 00 02 1A  00 0F 80 02 6D 07 02 1A  ............m...
0750: 00 1C 80 04 69 07 3F 04  10 05 10 1C 80 15 05 10  ....i.?.........
0760: 1C 80 48 49 80 23 01 6D  07 48 4A 80 23 02 0D 00  ..HI.#.m.HJ.#...
0770: 02 80 05 7C 07 48 47 80  23 01 8D 07 03 06 10 0D  ...|.HG.#.......
0780: 00 0C 06 10 03 07 10 0D  00 48 48 80 23 03 04 00  .........HH.#...
0790: 05 00 03 14 00 4B 80 07  14 00 04 00 02 03 00 14  .....K..........
07A0: 00 00 AC 07 03 03 00 02  80 01 B1 07 03 03 00 0F  ................
07B0: 80 02 03 00 0F 80 00 D7  07 02 0E 00 02 80 00 D7  ................
07C0: 07 24 4C 80 02 80 0F 80  25 02 00 10 0F 80 00 D7  .$L.....%.......
07D0: 07 05 03 00 01 D7 07 06  15 00 02 05 00 0F 80 80  ................
07E0: EA 07 03 15 00 0F 80 01  CF 09 02 05 00 02 80 80  ................
07F0: FA 07 03 15 00 0F 80 01  CF 09 02 05 00 03 80 80  ................
0800: 0A 08 03 15 00 0F 80 01  CF 09 02 05 00 04 80 80  ................
0810: 1A 08 03 15 00 0F 80 01  CF 09 02 05 00 05 80 80  ................
0820: 2A 08 03 15 00 0F 80 01  CF 09 02 05 00 23 80 80  *............#..
0830: 3A 08 03 15 00 0F 80 01  CF 09 02 05 00 38 80 80  :............8..
0840: 4A 08 03 15 00 0F 80 01  CF 09 02 05 00 39 80 80  J............9..
0850: 5A 08 03 15 00 0F 80 01  CF 09 02 05 00 27 80 80  Z............'..
0860: 6A 08 03 15 00 0F 80 01  CF 09 02 05 00 28 80 80  j............(..
0870: 7A 08 03 15 00 0F 80 01  CF 09 02 05 00 3A 80 80  z............:..
0880: 8A 08 03 15 00 0F 80 01  CF 09 02 05 00 29 80 80  .............)..
0890: 9A 08 03 15 00 0F 80 01  CF 09 02 05 00 3B 80 80  .............;..
08A0: AA 08 03 15 00 0F 80 01  CF 09 02 05 00 3C 80 80  .............<..
08B0: BA 08 03 15 00 0F 80 01  CF 09 02 05 00 0D 80 80  ................
08C0: CA 08 03 15 00 0F 80 01  CF 09 02 05 00 1D 80 80  ................
08D0: DA 08 03 15 00 0F 80 01  CF 09 02 05 00 1E 80 80  ................
08E0: EA 08 03 15 00 0F 80 01  CF 09 02 05 00 3D 80 80  .............=..
08F0: FA 08 03 15 00 0F 80 01  CF 09 02 05 00 3E 80 80  .............>..
0900: 0A 09 03 15 00 0F 80 01  CF 09 02 05 00 26 80 80  .............&..
0910: 1A 09 03 15 00 0F 80 01  CF 09 02 05 00 3F 80 80  .............?..
0920: 2A 09 03 15 00 0F 80 01  CF 09 02 05 00 40 80 80  *............@..
0930: 3A 09 03 15 00 0F 80 01  CF 09 02 05 00 0C 80 80  :...............
0940: 4A 09 03 15 00 0F 80 01  CF 09 02 05 00 41 80 80  J............A..
0950: 5A 09 03 15 00 0F 80 01  CF 09 02 05 00 42 80 80  Z............B..
0960: 6A 09 03 15 00 0F 80 01  CF 09 02 05 00 43 80 80  j............C..
0970: 7A 09 03 15 00 0F 80 01  CF 09 02 05 00 0B 80 80  z...............
0980: 8A 09 03 15 00 0F 80 01  CF 09 02 05 00 44 80 80  .............D..
0990: 9A 09 03 15 00 0F 80 01  CF 09 02 05 00 0A 80 80  ................
09A0: AA 09 03 15 00 0F 80 01  CF 09 02 05 00 45 80 80  .............E..
09B0: BA 09 03 15 00 0F 80 01  CF 09 02 05 00 00 80 80  ................
09C0: CA 09 03 15 00 0F 80 01  CF 09 03 15 00 0F 80 02  ................
09D0: 03 00 02 80 00 EA 09 5C  00 4D 80 5C 01 4D 80 5C  .......\.M.\.M.\
09E0: 02 4D 80 5C 03 4D 80 01  02 0A 02 15 00 0F 80 00  .M.\.M..........
09F0: 02 0A 5C 00 4D 80 5C 01  4D 80 5C 02 4D 80 5C 03  ..\.M.\.M.\.M.\.
0A00: 4D 80 1A 2F 10 02 03 00  0F 80 00 13 0A 1A A5 0E  M../............
0A10: 01 4C 0A 6C F0 FF FF 7F  0F 80 02 80 62 03 80 F0  .L.l........b...
0A20: FF FF 7F F0 FF FF 7F 6D  61 69 6E 0F 80 45 1B 80  .......main..E..
0A30: F0 FF FF 7F F0 FF FF 7F  6F 76 6C 31 0F 80 46 02  ........ovl1..F.
0A40: 12 00 02 12 00 0F 80 00  4C 0A 46 00 03 01 10 4B  ........L.F....K
0A50: 80 07 01 10 04 00 01 66  0A 01 5C 0A 0B 01 00 01  .......f..\.....
0A60: 82 03 48 4E 80 23 45 4F  80 F0 FF FF 7F F0 FF FF  ..HN.#EO........
0A70: 7F 77 68 69 31 0F 80 45  1B 80 F0 FF FF 7F F0 FF  .whi1..E........
0A80: FF 7F 62 6C 6F 66 0F 80  45 1B 80 F0 FF FF 7F F0  ..blof..E.......
0A90: FF FF 7F 66 64 69 30 0F  80 02 07 00 02 80 00 B1  ...fdi0.........
0AA0: 0A 5C 00 0F 80 5C 01 0F  80 5C 02 4D 80 5C 03 4D  .\...\...\.M.\.M
0AB0: 80 21 00 1B                                       .!..            
```

#### Opcodes

```
  0: 0x01E5 [0x20] SET_CLI_EVENT_UC_FLAG: Lock player control
  1: 0x01E7 [0x79] LocalPlayer looks at LocalPlayer (Basic look)
  2: 0x01F1 [0x03] ExtData[1]->WorkLocal[3] = Work_Zone[2]
  3: 0x01F6 [0x03] ExtData[1]->WorkLocal[4] = Work_Zone[3]
  4: 0x01FB [0x03] ExtData[1]->WorkLocal[6] = Work_Zone[5]
  5: 0x0200 [0x03] ExtData[1]->WorkLocal[15] = Work_Zone[6]
  6: 0x0205 [0x03] ExtData[1]->WorkLocal[16] = Work_Zone[7]
  7: 0x020A [0x03] ExtData[1]->WorkLocal[17] = Work_Zone[8]
  8: 0x020F [0x41] ExtData[1]->WorkLocal[7] = Work_Zone[9] (bits 0*-15*)
  9: 0x0218 [0x41] Work_Zone[6] = Work_Zone[9] (bits 16*-31*)
 10: 0x0221 [0x06] ExtData[1]->WorkLocal[2] = 0
 11: 0x0224 [0x02] IF !(ExtData[1]->WorkLocal[7] == 0*) GOTO 0x0323
 12: 0x022C [0x03] ExtData[1]->WorkLocal[8] = 4294967295*
 13: 0x0231 [0x0F] ExtData[1]->WorkLocal[8] ^= ExtData[1]->WorkLocal[6]
 14: 0x0236 [0x10] ExtData[1]->WorkLocal[8] <<= 1*
 15: 0x023B [0x24] CREATE_DIALOG(message_id=8007*, default_option=0*, option_flags=ExtData[1]->WorkLocal[8])
    → "Which battlefield will you enter? [None./The Orb's Radiance./Letter from Iroha. (CL: 119)/Letter from Reisenjima./$26The Orb's Radiance./]"
 16: 0x0242 [0x25] WAIT_DIALOG_SELECT()
 17: 0x0243 [0x02] IF !(Work_Zone[0] == 0*) GOTO 0x0251
 18: 0x024B [0x01] GOTO 0x0A99

SUBROUTINE_027D:
 19: 0x027D [0x3E] IF !(ExtData[1]->WorkLocal[16] bit ExtData[1]->WorkLocal[4]) GOTO 0x0287
 20: 0x0284 [0x01] GOTO 0x028E
 21: 0x0287 [0x3C] SET_BIT_FLAG_CONDITIONAL(target_work_offset=ExtData[1]->WorkLocal[8], bit_index_work_offset=1*, condition_work_offset=1*)

SUBROUTINE_028E:
 22: 0x028E [0x1A] CALL_SUBROUTINE(address=0x0FFF)
 23: 0x0291 [0x24] CREATE_DIALOG(message_id=7692*, default_option=5*, option_flags=ExtData[1]->WorkLocal[8])
    → "Select difficulty. [Very difficult. (Level: ???)/Difficult. (Level: ???)/Normal. (Level: $18)/Easy. (Level: $17)/Very Easy. (Level: $16)/Leave.]"
 24: 0x0298 [0x25] WAIT_DIALOG_SELECT()
 25: 0x0299 [0x02] IF !(Work_Zone[0] == 0*) GOTO 0x02A9
 26: 0x02A1 [0x03] ExtData[1]->WorkLocal[15] = 1*
 27: 0x02A6 [0x01] GOTO 0x02FC
 28: 0x02A9 [0x02] IF !(Work_Zone[0] == 1*) GOTO 0x02B9
 29: 0x02B1 [0x03] ExtData[1]->WorkLocal[15] = 2*
 30: 0x02B6 [0x01] GOTO 0x02FC
 31: 0x02B9 [0x02] IF !(Work_Zone[0] == 2*) GOTO 0x02C9
 32: 0x02C1 [0x03] ExtData[1]->WorkLocal[15] = 3*
 33: 0x02C6 [0x01] GOTO 0x02FC
 34: 0x02C9 [0x02] IF !(Work_Zone[0] == 3*) GOTO 0x02D9
 35: 0x02D1 [0x03] ExtData[1]->WorkLocal[15] = 4*
 36: 0x02D6 [0x01] GOTO 0x02FC
 37: 0x02D9 [0x02] IF !(Work_Zone[0] == 4*) GOTO 0x02E9
 38: 0x02E1 [0x03] ExtData[1]->WorkLocal[15] = 5*
 39: 0x02E6 [0x01] GOTO 0x02FC
 40: 0x02E9 [0x02] IF !(Work_Zone[0] == 5*) GOTO 0x02F7
 41: 0x02F1 [0x01] GOTO 0x0A99

SUBROUTINE_02FC:
 42: 0x02FC [0x01] GOTO 0x0323
 43: 0x02FF [0x06] ExtData[1]->WorkLocal[15] = 0
 44: 0x0302 [0x1A] CALL_SUBROUTINE(address=0x0AB3)
 45: 0x0305 [0x02] IF !(ExtData[1]->WorkLocal[22] == 1*) GOTO 0x0323
 46: 0x030D [0x24] CREATE_DIALOG(message_id=7327*, default_option=1*, option_flags=0*)
    → "Enter the battlefield? [Enter./Decline.]"
 47: 0x0314 [0x25] WAIT_DIALOG_SELECT()
 48: 0x0315 [0x02] IF !(Work_Zone[0] == 1*) GOTO 0x0323
 49: 0x031D [0x01] GOTO 0x0A99

SUBROUTINE_0323:
 50: 0x0323 [0x42] SET_CLI_EVENT_CANCEL_DATA()
 51: 0x0324 [0x03] Work_Zone[1] = 255*
 52: 0x0329 [0x43] SEND_EVENT_UPDATE: Send pending tag to server (packet 0x005B)
 53: 0x032B [0x43] SEND_EVENT_UPDATE: Check pending flag (skip if not pending)
 54: 0x032D [0x06] Work_Zone[1] = 0
 55: 0x0330 [0x45] LOAD_SCHEDULED_TASK: Load scheduler "fdo1" with entities [LocalPlayer, LocalPlayer], work=[200*, 0*]
 56: 0x0341 [0x55] WAIT_LOAD_SCHEDULER: Wait for scheduler "fdo1" with entities [LocalPlayer, LocalPlayer], work=200*
 57: 0x0350 [0x3B] GET_ENTITY_POSITION(entity=LocalPlayer, x_destination=Work_Zone[32], y_destination=Work_Zone[33], z_destination=Work_Zone[34])
 58: 0x035B [0x38] SET_CLIENT_EVENT_MODE(mode=19*)
 59: 0x035E [0x02] IF !(ExtData[1]->WorkLocal[7] == 1*) GOTO 0x037D
 60: 0x0366 [0x03] ExtData[1]->WorkLocal[1] = 1*
 61: 0x036B [0x03] ExtData[1]->WorkLocal[5] = ExtData[1]->WorkLocal[4]
 62: 0x0370 [0x03] ExtData[1]->WorkLocal[3] = 0*
 63: 0x0375 [0x03] ExtData[1]->WorkLocal[28] = 0*
 64: 0x037A [0x01] GOTO 0x07D7

SUBROUTINE_037D:
 65: 0x037D [0x03] ExtData[1]->WorkLocal[1] = 1*

SUBROUTINE_0382:
 66: 0x0382 [0x02] IF !(ExtData[1]->WorkLocal[1] > 3*) GOTO 0x0A62
 67: 0x038A [0x40] SET_BIT_WORK_RANGE(start_bit=0*, end_bit=3*, target=Work_Zone[1], source=ExtData[1]->WorkLocal[1])
 68: 0x0393 [0x40] SET_BIT_WORK_RANGE(start_bit=4*, end_bit=8*, target=Work_Zone[1], source=ExtData[1]->WorkLocal[4])
 69: 0x039C [0x40] SET_BIT_WORK_RANGE(start_bit=9*, end_bit=11*, target=Work_Zone[1], source=ExtData[1]->WorkLocal[15])
 70: 0x03A5 [0x06] Work_Zone[2] = 0
 71: 0x03A8 [0x06] Work_Zone[3] = 0
 72: 0x03AB [0x06] Work_Zone[4] = 0
 73: 0x03AE [0x02] IF !(ExtData[1]->WorkLocal[1] == 1*) GOTO 0x03CD
 74: 0x03B6 [0x03] ExtData[1]->WorkLocal[9] = 500000*
 75: 0x03BB [0x03] ExtData[1]->WorkLocal[10] = 474000*
 76: 0x03C0 [0x03] ExtData[1]->WorkLocal[11] = 4294436796*
 77: 0x03C5 [0x03] ExtData[1]->WorkLocal[12] = 3076*
 78: 0x03CA [0x01] GOTO 0x0449
 79: 0x03CD [0x02] IF !(ExtData[1]->WorkLocal[1] == 2*) GOTO 0x03EC
 80: 0x03D5 [0x03] ExtData[1]->WorkLocal[9] = 4294467296*
 81: 0x03DA [0x03] ExtData[1]->WorkLocal[10] = 474000*
 82: 0x03DF [0x03] ExtData[1]->WorkLocal[11] = 4294936796*
 83: 0x03E4 [0x03] ExtData[1]->WorkLocal[12] = 3076*
 84: 0x03E9 [0x01] GOTO 0x0449
 85: 0x03EC [0x02] IF !(ExtData[1]->WorkLocal[1] == 3*) GOTO 0x040B
 86: 0x03F4 [0x03] ExtData[1]->WorkLocal[9] = 4294467296*
 87: 0x03F9 [0x03] ExtData[1]->WorkLocal[10] = 4294441296*
 88: 0x03FE [0x03] ExtData[1]->WorkLocal[11] = 469000*
 89: 0x0403 [0x03] ExtData[1]->WorkLocal[12] = 3076*
 90: 0x0408 [0x01] GOTO 0x0449
 91: 0x040B [0x02] IF !(ExtData[1]->WorkLocal[1] == 4*) GOTO 0x042A
 92: 0x0413 [0x03] ExtData[1]->WorkLocal[9] = 0*
 93: 0x0418 [0x03] ExtData[1]->WorkLocal[10] = 0*
 94: 0x041D [0x03] ExtData[1]->WorkLocal[11] = 0*
 95: 0x0422 [0x03] ExtData[1]->WorkLocal[12] = 0*
 96: 0x0427 [0x01] GOTO 0x0449
 97: 0x042A [0x02] IF !(ExtData[1]->WorkLocal[1] == 5*) GOTO 0x0449
 98: 0x0432 [0x03] ExtData[1]->WorkLocal[9] = 0*
 99: 0x0437 [0x03] ExtData[1]->WorkLocal[10] = 0*
100: 0x043C [0x03] ExtData[1]->WorkLocal[11] = 0*
101: 0x0441 [0x03] ExtData[1]->WorkLocal[12] = 0*
102: 0x0446 [0x01] GOTO 0x0449

SUBROUTINE_0449:
103: 0x0449 [0x47] UPDATE_PLAYER_POS(ExtData[1]->WorkLocal[9], ExtData[1]->WorkLocal[10], ExtData[1]->WorkLocal[11], yaw=ExtData[1]->WorkLocal[12])
104: 0x0453 [0x47] WAIT_PLAYER_POS_UPDATE
105: 0x0455 [0x03] ExtData[1]->WorkLocal[5] = Work_Zone[3]
106: 0x045A [0x03] ExtData[1]->WorkLocal[3] = Work_Zone[4]
107: 0x045F [0x03] ExtData[1]->WorkLocal[26] = Work_Zone[5]
108: 0x0464 [0x03] ExtData[1]->WorkLocal[13] = Work_Zone[6]
109: 0x0469 [0x03] ExtData[1]->WorkLocal[14] = Work_Zone[7]
110: 0x046E [0x03] ExtData[1]->WorkLocal[28] = Work_Zone[9]
111: 0x0473 [0x02] IF !(Work_Zone[2] == 1*) GOTO 0x047E
112: 0x047B [0x01] GOTO 0x0A5C
113: 0x047E [0x02] IF !(Work_Zone[2] == 4*) GOTO 0x04D7
114: 0x0486 [0x02] IF !(ExtData[1]->WorkLocal[1] == 1*) GOTO 0x0495
115: 0x048E [0x48] [System] [7338*]:
    → "You are cleared to enter the battlefield, but you cannot while party members are engaged in combat."
116: 0x0491 [0x23] WAIT_FOR_DIALOG_INTERACTION
117: 0x0492 [0x01] GOTO 0x04D1
118: 0x0495 [0x02] IF !(ExtData[1]->WorkLocal[1] == 2*) GOTO 0x04A4
119: 0x049D [0x48] [System] [7339*]:
    → "You are cleared to enter the battlefield, but you cannot while party members are engaged in combat."
120: 0x04A0 [0x23] WAIT_FOR_DIALOG_INTERACTION
121: 0x04A1 [0x01] GOTO 0x04D1
122: 0x04A4 [0x02] IF !(ExtData[1]->WorkLocal[1] == 3*) GOTO 0x04B3
123: 0x04AC [0x48] [System] [7340*]:
    → "You are cleared to enter the battlefield, but you cannot while party members are engaged in combat."
124: 0x04AF [0x23] WAIT_FOR_DIALOG_INTERACTION
125: 0x04B0 [0x01] GOTO 0x04D1
126: 0x04B3 [0x02] IF !(ExtData[1]->WorkLocal[1] == 4*) GOTO 0x04C2
127: 0x04BB [0x48] [System] [7341*]:
    → "You are cleared to enter the battlefield, but you cannot while party members are engaged in combat."
128: 0x04BE [0x23] WAIT_FOR_DIALOG_INTERACTION
129: 0x04BF [0x01] GOTO 0x04D1
130: 0x04C2 [0x02] IF !(ExtData[1]->WorkLocal[1] == 5*) GOTO 0x04D1
131: 0x04CA [0x48] [System] [7342*]:
    → "You are cleared to enter the battlefield, but you cannot while party members are engaged in combat."
132: 0x04CD [0x23] WAIT_FOR_DIALOG_INTERACTION
133: 0x04CE [0x01] GOTO 0x04D1

SUBROUTINE_04D1:
134: 0x04D1 [0x01] GOTO 0x0A66

SUBROUTINE_06E1:
135: 0x06E1 [0x48] [System] [7686*]:
    → "Only $3 [member/members] have clearance to enter the battlefield. This room has reached its maximum capacity."
136: 0x06E4 [0x23] WAIT_FOR_DIALOG_INTERACTION
137: 0x06E5 [0x01] GOTO 0x0A66

SUBROUTINE_073E:
138: 0x073E [0x01] GOTO 0x078D
139: 0x0741 [0x03] Work_Zone[5] = ExtData[1]->WorkLocal[26]
140: 0x0746 [0x02] IF !(ExtData[1]->WorkLocal[26] <= 0*) GOTO 0x076D
141: 0x074E [0x02] IF !(ExtData[1]->WorkLocal[26] < 60*) GOTO 0x0769
142: 0x0756 [0x3F] Work_Zone[4] = Work_Zone[5] % 60*
143: 0x075D [0x15] Work_Zone[5] /= 60*
144: 0x0762 [0x48] [System] [8005*]:
    → "The current battlefield clear time record for "[The Orb's Radiance/Letter from Iroha/Letter from Reisenjima/$26The Orb's Radiance]" is $3 minute[/s] $2 second[/s]."
145: 0x0765 [0x23] WAIT_FOR_DIALOG_INTERACTION
146: 0x0766 [0x01] GOTO 0x076D
147: 0x0769 [0x48] [System] [8004*]:
    → "The current battlefield clear time record for "[The Orb's Radiance/Letter from Iroha/Letter from Reisenjima/$26The Orb's Radiance]" is $3 second[/s]."
148: 0x076C [0x23] WAIT_FOR_DIALOG_INTERACTION

SUBROUTINE_076D:
149: 0x076D [0x02] IF !(ExtData[1]->WorkLocal[13] > 1*) GOTO 0x077C
150: 0x0775 [0x48] [System] [7691*]:
    → "That record is held by %0!"
151: 0x0778 [0x23] WAIT_FOR_DIALOG_INTERACTION
152: 0x0779 [0x01] GOTO 0x078D
153: 0x077C [0x03] Work_Zone[6] = ExtData[1]->WorkLocal[13]
154: 0x0781 [0x0C] Work_Zone[6]--
155: 0x0784 [0x03] Work_Zone[7] = ExtData[1]->WorkLocal[13]
156: 0x0789 [0x48] [System] [7690*]:
    → "That record is held by $5 adventurers, including %0!"
157: 0x078C [0x23] WAIT_FOR_DIALOG_INTERACTION

SUBROUTINE_078D:
158: 0x078D [0x03] ExtData[1]->WorkLocal[4] = ExtData[1]->WorkLocal[5]
159: 0x0792 [0x03] ExtData[1]->WorkLocal[20] = 100*
160: 0x0797 [0x07] ExtData[1]->WorkLocal[20] += ExtData[1]->WorkLocal[4]
161: 0x079C [0x02] IF !(ExtData[1]->WorkLocal[3] == ExtData[1]->WorkLocal[20]) GOTO 0x07AC
162: 0x07A4 [0x03] ExtData[1]->WorkLocal[3] = 1*
163: 0x07A9 [0x01] GOTO 0x07B1
164: 0x07AC [0x03] ExtData[1]->WorkLocal[3] = 0*

SUBROUTINE_07B1:
165: 0x07B1 [0x02] IF !(ExtData[1]->WorkLocal[3] == 0*) GOTO 0x07D7
166: 0x07B9 [0x02] IF !(ExtData[1]->WorkLocal[14] == 1*) GOTO 0x07D7
167: 0x07C1 [0x24] CREATE_DIALOG(message_id=7666*, default_option=1*, option_flags=0*)
    → "Skip the event? [Yes./No.]"
168: 0x07C8 [0x25] WAIT_DIALOG_SELECT()
169: 0x07C9 [0x02] IF !(Work_Zone[0] == 0*) GOTO 0x07D7
170: 0x07D1 [0x05] ExtData[1]->WorkLocal[3] = 1
171: 0x07D4 [0x01] GOTO 0x07D7

SUBROUTINE_07D7:
172: 0x07D7 [0x06] ExtData[1]->WorkLocal[21] = 0
173: 0x07DA [0x02] IF !(ExtData[1]->WorkLocal[5] == 0*) GOTO 0x07EA
174: 0x07E2 [0x03] ExtData[1]->WorkLocal[21] = 0*
175: 0x07E7 [0x01] GOTO 0x09CF
176: 0x07EA [0x02] IF !(ExtData[1]->WorkLocal[5] == 1*) GOTO 0x07FA
177: 0x07F2 [0x03] ExtData[1]->WorkLocal[21] = 0*
178: 0x07F7 [0x01] GOTO 0x09CF
179: 0x07FA [0x02] IF !(ExtData[1]->WorkLocal[5] == 2*) GOTO 0x080A
180: 0x0802 [0x03] ExtData[1]->WorkLocal[21] = 0*
181: 0x0807 [0x01] GOTO 0x09CF
182: 0x080A [0x02] IF !(ExtData[1]->WorkLocal[5] == 3*) GOTO 0x081A
183: 0x0812 [0x03] ExtData[1]->WorkLocal[21] = 0*
184: 0x0817 [0x01] GOTO 0x09CF
185: 0x081A [0x02] IF !(ExtData[1]->WorkLocal[5] == 4*) GOTO 0x082A
186: 0x0822 [0x03] ExtData[1]->WorkLocal[21] = 0*
187: 0x0827 [0x01] GOTO 0x09CF
188: 0x082A [0x02] IF !(ExtData[1]->WorkLocal[5] == 5*) GOTO 0x083A
189: 0x0832 [0x03] ExtData[1]->WorkLocal[21] = 0*
190: 0x0837 [0x01] GOTO 0x09CF
191: 0x083A [0x02] IF !(ExtData[1]->WorkLocal[5] == 6*) GOTO 0x084A
192: 0x0842 [0x03] ExtData[1]->WorkLocal[21] = 0*
193: 0x0847 [0x01] GOTO 0x09CF
194: 0x084A [0x02] IF !(ExtData[1]->WorkLocal[5] == 7*) GOTO 0x085A
195: 0x0852 [0x03] ExtData[1]->WorkLocal[21] = 0*
196: 0x0857 [0x01] GOTO 0x09CF
197: 0x085A [0x02] IF !(ExtData[1]->WorkLocal[5] == 8*) GOTO 0x086A
198: 0x0862 [0x03] ExtData[1]->WorkLocal[21] = 0*
199: 0x0867 [0x01] GOTO 0x09CF
200: 0x086A [0x02] IF !(ExtData[1]->WorkLocal[5] == 9*) GOTO 0x087A
201: 0x0872 [0x03] ExtData[1]->WorkLocal[21] = 0*
202: 0x0877 [0x01] GOTO 0x09CF
203: 0x087A [0x02] IF !(ExtData[1]->WorkLocal[5] == 10*) GOTO 0x088A
204: 0x0882 [0x03] ExtData[1]->WorkLocal[21] = 0*
205: 0x0887 [0x01] GOTO 0x09CF
206: 0x088A [0x02] IF !(ExtData[1]->WorkLocal[5] == 11*) GOTO 0x089A
207: 0x0892 [0x03] ExtData[1]->WorkLocal[21] = 0*
208: 0x0897 [0x01] GOTO 0x09CF
209: 0x089A [0x02] IF !(ExtData[1]->WorkLocal[5] == 12*) GOTO 0x08AA
210: 0x08A2 [0x03] ExtData[1]->WorkLocal[21] = 0*
211: 0x08A7 [0x01] GOTO 0x09CF
212: 0x08AA [0x02] IF !(ExtData[1]->WorkLocal[5] == 13*) GOTO 0x08BA
213: 0x08B2 [0x03] ExtData[1]->WorkLocal[21] = 0*
214: 0x08B7 [0x01] GOTO 0x09CF
215: 0x08BA [0x02] IF !(ExtData[1]->WorkLocal[5] == 14*) GOTO 0x08CA
216: 0x08C2 [0x03] ExtData[1]->WorkLocal[21] = 0*
217: 0x08C7 [0x01] GOTO 0x09CF
218: 0x08CA [0x02] IF !(ExtData[1]->WorkLocal[5] == 15*) GOTO 0x08DA
219: 0x08D2 [0x03] ExtData[1]->WorkLocal[21] = 0*
220: 0x08D7 [0x01] GOTO 0x09CF
221: 0x08DA [0x02] IF !(ExtData[1]->WorkLocal[5] == 16*) GOTO 0x08EA
222: 0x08E2 [0x03] ExtData[1]->WorkLocal[21] = 0*
223: 0x08E7 [0x01] GOTO 0x09CF
224: 0x08EA [0x02] IF !(ExtData[1]->WorkLocal[5] == 17*) GOTO 0x08FA
225: 0x08F2 [0x03] ExtData[1]->WorkLocal[21] = 0*
226: 0x08F7 [0x01] GOTO 0x09CF
227: 0x08FA [0x02] IF !(ExtData[1]->WorkLocal[5] == 18*) GOTO 0x090A
228: 0x0902 [0x03] ExtData[1]->WorkLocal[21] = 0*
229: 0x0907 [0x01] GOTO 0x09CF
230: 0x090A [0x02] IF !(ExtData[1]->WorkLocal[5] == 19*) GOTO 0x091A
231: 0x0912 [0x03] ExtData[1]->WorkLocal[21] = 0*
232: 0x0917 [0x01] GOTO 0x09CF
233: 0x091A [0x02] IF !(ExtData[1]->WorkLocal[5] == 20*) GOTO 0x092A
234: 0x0922 [0x03] ExtData[1]->WorkLocal[21] = 0*
235: 0x0927 [0x01] GOTO 0x09CF
236: 0x092A [0x02] IF !(ExtData[1]->WorkLocal[5] == 21*) GOTO 0x093A
237: 0x0932 [0x03] ExtData[1]->WorkLocal[21] = 0*
238: 0x0937 [0x01] GOTO 0x09CF
239: 0x093A [0x02] IF !(ExtData[1]->WorkLocal[5] == 22*) GOTO 0x094A
240: 0x0942 [0x03] ExtData[1]->WorkLocal[21] = 0*
241: 0x0947 [0x01] GOTO 0x09CF
242: 0x094A [0x02] IF !(ExtData[1]->WorkLocal[5] == 23*) GOTO 0x095A
243: 0x0952 [0x03] ExtData[1]->WorkLocal[21] = 0*
244: 0x0957 [0x01] GOTO 0x09CF
245: 0x095A [0x02] IF !(ExtData[1]->WorkLocal[5] == 24*) GOTO 0x096A
246: 0x0962 [0x03] ExtData[1]->WorkLocal[21] = 0*
247: 0x0967 [0x01] GOTO 0x09CF
248: 0x096A [0x02] IF !(ExtData[1]->WorkLocal[5] == 25*) GOTO 0x097A
249: 0x0972 [0x03] ExtData[1]->WorkLocal[21] = 0*
250: 0x0977 [0x01] GOTO 0x09CF
251: 0x097A [0x02] IF !(ExtData[1]->WorkLocal[5] == 26*) GOTO 0x098A
252: 0x0982 [0x03] ExtData[1]->WorkLocal[21] = 0*
253: 0x0987 [0x01] GOTO 0x09CF
254: 0x098A [0x02] IF !(ExtData[1]->WorkLocal[5] == 27*) GOTO 0x099A
255: 0x0992 [0x03] ExtData[1]->WorkLocal[21] = 0*
256: 0x0997 [0x01] GOTO 0x09CF
257: 0x099A [0x02] IF !(ExtData[1]->WorkLocal[5] == 28*) GOTO 0x09AA
258: 0x09A2 [0x03] ExtData[1]->WorkLocal[21] = 0*
259: 0x09A7 [0x01] GOTO 0x09CF
260: 0x09AA [0x02] IF !(ExtData[1]->WorkLocal[5] == 29*) GOTO 0x09BA
261: 0x09B2 [0x03] ExtData[1]->WorkLocal[21] = 0*
262: 0x09B7 [0x01] GOTO 0x09CF
263: 0x09BA [0x02] IF !(ExtData[1]->WorkLocal[5] == 30*) GOTO 0x09CA
264: 0x09C2 [0x03] ExtData[1]->WorkLocal[21] = 0*
265: 0x09C7 [0x01] GOTO 0x09CF
266: 0x09CA [0x03] ExtData[1]->WorkLocal[21] = 0*

SUBROUTINE_09CF:
267: 0x09CF [0x02] IF !(ExtData[1]->WorkLocal[3] == 1*) GOTO 0x09EA
268: 0x09D7 [0x5C] MUSIC_CONTROL: Set Idle (Day) music to song 82*
269: 0x09DB [0x5C] MUSIC_CONTROL: Set Idle (Night) music to song 82*
270: 0x09DF [0x5C] MUSIC_CONTROL: Set Combat (Solo) music to song 82*
271: 0x09E3 [0x5C] MUSIC_CONTROL: Set Combat (Party) music to song 82*
272: 0x09E7 [0x01] GOTO 0x0A02
273: 0x09EA [0x02] IF !(ExtData[1]->WorkLocal[21] == 0*) GOTO 0x0A02
274: 0x09F2 [0x5C] MUSIC_CONTROL: Set Idle (Day) music to song 82*
275: 0x09F6 [0x5C] MUSIC_CONTROL: Set Idle (Night) music to song 82*
276: 0x09FA [0x5C] MUSIC_CONTROL: Set Combat (Solo) music to song 82*
277: 0x09FE [0x5C] MUSIC_CONTROL: Set Combat (Party) music to song 82*

SUBROUTINE_0A02:
278: 0x0A02 [0x1A] CALL_SUBROUTINE(address=0x102F)
279: 0x0A05 [0x02] IF !(ExtData[1]->WorkLocal[3] == 0*) GOTO 0x0A13
280: 0x0A0D [0x1A] CALL_SUBROUTINE(address=0x0EA5)
281: 0x0A10 [0x01] GOTO 0x0A4C
282: 0x0A13 [0x6C] FADE_ENTITY_COLOR(entity_id=LocalPlayer, end_alpha=0*, fade_time=1*)
283: 0x0A1C [0x62] LOAD_EVENT_SCHEDULER: Load scheduler "main" with entities [LocalPlayer, LocalPlayer], work=[2*, 0*]
284: 0x0A2D [0x45] LOAD_SCHEDULED_TASK: Load scheduler "ovl1" with entities [LocalPlayer, LocalPlayer], work=[200*, 0*]
285: 0x0A3E [0x46] CAMERA_CONTROL: Query status
286: 0x0A40 [0x12] 0x0200 = rand()
287: 0x0A43 [0x12] 0x0F00 = rand()
288: 0x0A46 [0x80] LOAD_WAIT(entity=Unknown NPC (ID: 1175079936/0x460A4C00))
289: 0x0A4B [0x00] END_REQSTACK()

SUBROUTINE_0A4C:
290: 0x0A4C [0x03] Work_Zone[1] = 100*
291: 0x0A51 [0x07] Work_Zone[1] += ExtData[1]->WorkLocal[4]
292: 0x0A56 [0x01] GOTO 0x0A66

SUBROUTINE_0A5C:
293: 0x0A5C [0x0B] ExtData[1]->WorkLocal[1]++
294: 0x0A5F [0x01] GOTO 0x0382
295: 0x0A62 [0x48] [System] [7330*]:
    → "You cannot enter the battlefield at present. Please wait a little longer."
296: 0x0A65 [0x23] WAIT_FOR_DIALOG_INTERACTION

SUBROUTINE_0A66:
297: 0x0A66 [0x45] LOAD_SCHEDULED_TASK: Load scheduler "whi1" with entities [LocalPlayer, LocalPlayer], work=[201*, 0*]
298: 0x0A77 [0x45] LOAD_SCHEDULED_TASK: Load scheduler "blof" with entities [LocalPlayer, LocalPlayer], work=[200*, 0*]
299: 0x0A88 [0x45] LOAD_SCHEDULED_TASK: Load scheduler "fdi0" with entities [LocalPlayer, LocalPlayer], work=[200*, 0*]

SUBROUTINE_0A99:
300: 0x0A99 [0x02] IF !(ExtData[1]->WorkLocal[7] == 1*) GOTO 0x0AB1
301: 0x0AA1 [0x5C] MUSIC_CONTROL: Set Idle (Day) music to song 0*
302: 0x0AA5 [0x5C] MUSIC_CONTROL: Set Idle (Night) music to song 0*
303: 0x0AA9 [0x5C] MUSIC_CONTROL: Set Combat (Solo) music to song 82*
304: 0x0AAD [0x5C] MUSIC_CONTROL: Set Combat (Party) music to song 82*
305: 0x0AB1 [0x21] END_EVENT
306: 0x0AB2 [0x00] END_REQSTACK()

SUBROUTINE_0AB3:
307: 0x0AB3 [0x1B] RETURN
```

#### Data or dead code:

```
# Dead code (unreachable instructions):
     0x024E [0x01] GOTO 0x0323
# Dead code (unreachable instructions):
     0x02F4 [0x01] GOTO 0x02FC
# Dead code (unreachable instructions):
     0x0320 [0x01] GOTO 0x0323
# Dead code (unreachable instructions):
     0x04D4 [0x01] GOTO 0x0A5C
     0x04E6 [0x01] GOTO 0x0A5C
# Dead code (unreachable instructions):
     0x06E8 [0x01] GOTO 0x0A5C
     0x06F6 [0x01] GOTO 0x0A5C
# Dead code (unreachable instructions):
     0x0A59 [0x01] GOTO 0x0A5C
```

### Event 32002

#### Metadata

| Field        | Value     |
|--------------|-----------|
| Entrypoint   | 0x0AB4    |
| Data Size    | 133 bytes |
| Instructions | 20        |

```
      00 01 02 03 04 05 06 07  08 09 0A 0B 0C 0D 0E 0F
      -- -- -- -- -- -- -- --  -- -- -- -- -- -- -- --
0AB0:             03 21 00 07  10 03 20 00 08 10 20 01      .!.... ... .
0AC0: 42 3B F0 FF FF 7F 20 10  21 10 22 10 3A F0 FF FF  B;.... .!.".:...
0AD0: 7F 23 10 45 1B 80 F0 FF  FF 7F F0 FF FF 7F 66 64  .#.E..........fd
0AE0: 6F 31 0F 80 55 1B 80 F0  FF FF 7F F0 FF FF 7F 66  o1..U..........f
0AF0: 64 6F 31 47 00 0F 80 0F  80 50 80 51 80 47 01 38  do1G.....P.Q.G.8
0B00: 26 80 1A F4 0F 45 4F 80  F0 FF FF 7F F0 FF FF 7F  &....EO.........
0B10: 77 68 69 31 0F 80 45 1B  80 F0 FF FF 7F F0 FF FF  whi1..E.........
0B20: 7F 62 6C 6F 66 0F 80 5C  00 0F 80 5C 01 0F 80 5C  .blof..\...\...\
0B30: 02 4D 80 5C 03 4D 80 21  00                       .M.\.M.!.       
```

#### Opcodes

```
  0: 0x0AB4 [0x03] ExtData[1]->WorkLocal[33] = Work_Zone[7]
  1: 0x0AB9 [0x03] ExtData[1]->WorkLocal[32] = Work_Zone[8]
  2: 0x0ABE [0x20] SET_CLI_EVENT_UC_FLAG: Lock player control
  3: 0x0AC0 [0x42] SET_CLI_EVENT_CANCEL_DATA()
  4: 0x0AC1 [0x3B] GET_ENTITY_POSITION(entity=LocalPlayer, x_destination=Work_Zone[32], y_destination=Work_Zone[33], z_destination=Work_Zone[34])
  5: 0x0ACC [0x3A] CONVERT_YAW_TO_BYTE(entity=LocalPlayer, result_destination=Work_Zone[35])
  6: 0x0AD3 [0x45] LOAD_SCHEDULED_TASK: Load scheduler "fdo1" with entities [LocalPlayer, LocalPlayer], work=[200*, 0*]
  7: 0x0AE4 [0x55] WAIT_LOAD_SCHEDULER: Wait for scheduler "fdo1" with entities [LocalPlayer, LocalPlayer], work=200*
  8: 0x0AF3 [0x47] UPDATE_PLAYER_POS(0.000*, 0.000*, 4.000*, yaw=90.0°*)
  9: 0x0AFD [0x47] WAIT_PLAYER_POS_UPDATE
 10: 0x0AFF [0x38] SET_CLIENT_EVENT_MODE(mode=19*)
 11: 0x0B02 [0x1A] CALL_SUBROUTINE(address=0x0FF4)
 12: 0x0B05 [0x45] LOAD_SCHEDULED_TASK: Load scheduler "whi1" with entities [LocalPlayer, LocalPlayer], work=[201*, 0*]
 13: 0x0B16 [0x45] LOAD_SCHEDULED_TASK: Load scheduler "blof" with entities [LocalPlayer, LocalPlayer], work=[200*, 0*]
 14: 0x0B27 [0x5C] MUSIC_CONTROL: Set Idle (Day) music to song 0*
 15: 0x0B2B [0x5C] MUSIC_CONTROL: Set Idle (Night) music to song 0*
 16: 0x0B2F [0x5C] MUSIC_CONTROL: Set Combat (Solo) music to song 82*
 17: 0x0B33 [0x5C] MUSIC_CONTROL: Set Combat (Party) music to song 82*
 18: 0x0B37 [0x21] END_EVENT
 19: 0x0B38 [0x00] END_REQSTACK()
```

### Event 32001

#### Metadata

| Field        | Value     |
|--------------|-----------|
| Entrypoint   | 0x0B39    |
| Data Size    | 562 bytes |
| Instructions | 96        |

```
      00 01 02 03 04 05 06 07  08 09 0A 0B 0C 0D 0E 0F
      -- -- -- -- -- -- -- --  -- -- -- -- -- -- -- --
0B30:                             79 00 F0 FF FF 7F F0           y......
0B40: FF FF 7F 03 21 00 02 10  03 1A 00 03 10 03 1B 00  ....!...........
0B50: 05 10 03 20 00 06 10 03  19 00 07 10 03 17 00 08  ... ............
0B60: 10 02 17 00 04 80 04 6E  0B 03 17 00 0F 80 1A E3  .......n........
0B70: 0F 03 1C 00 09 10 20 01  42 3B F0 FF FF 7F 20 10  ...... .B;.... .
0B80: 21 10 22 10 3A F0 FF FF  7F 23 10 02 20 00 52 80  !.".:....#.. .R.
0B90: 01 96 0B 1C 53 80 45 4F  80 F0 FF FF 7F F0 FF FF  ....S.EO........
0BA0: 7F 77 68 69 31 0F 80 45  1B 80 F0 FF FF 7F F0 FF  .whi1..E........
0BB0: FF 7F 62 6C 6F 66 0F 80  45 1B 80 F0 FF FF 7F F0  ..blof..E.......
0BC0: FF FF 7F 66 64 6F 31 0F  80 55 1B 80 F0 FF FF 7F  ...fdo1..U......
0BD0: F0 FF FF 7F 66 64 6F 31  6C F0 FF FF 7F 54 80 02  ....fdo1l....T..
0BE0: 80 06 01 10 02 17 00 0F  80 03 EF 0B 01 FB 0B 47  ...............G
0BF0: 00 0F 80 0F 80 50 80 51  80 47 01 38 26 80 02 17  .....P.Q.G.8&...
0C00: 00 03 80 00 09 0C 01 24  0C 02 17 00 02 80 00 68  .......$.......h
0C10: 0C 1C 1D 80 24 4C 80 02  80 0F 80 25 02 00 10 0F  ....$L.....%....
0C20: 80 00 68 0C 37 0F 80 0F  80 50 80 51 80 80 F0 FF  ..h.7....P.Q....
0C30: FF 7F 62 03 80 F0 FF FF  7F F0 FF FF 7F 6D 61 69  ..b..........mai
0C40: 6E 0F 80 45 1B 80 F0 FF  FF 7F F0 FF FF 7F 66 64  n..E..........fd
0C50: 69 32 0F 80 46 02 12 00  02 12 00 0F 80 00 62 0C  i2..F.........b.
0C60: 46 00 01 8F 0C 01 68 0C  02 17 00 20 80 04 81 0C  F.....h.... ....
0C70: 5C 00 4D 80 5C 01 4D 80  5C 02 4D 80 5C 03 4D 80  \.M.\.M.\.M.\.M.
0C80: 9A 1A 34 0F 02 17 00 0F  80 03 8F 0C 01 03 0D 02  ..4.............
0C90: 20 00 0F 80 80 9A 0C 01  9A 0C 03 05 10 1B 00 02   ...............
0CA0: 05 10 0F 80 02 03 0D 02  05 10 1C 80 04 C2 0C 3F  ...............?
0CB0: 04 10 05 10 1C 80 15 05  10 1C 80 48 55 80 23 01  ...........HU.#.
0CC0: C6 0C 48 56 80 23 02 1B  00 1A 00 05 DA 0C 03 07  ..HV.#..........
0CD0: 10 19 00 48 57 80 23 01  03 0D 02 1A 00 1C 80 04  ...HW.#.........
0CE0: FA 0C 03 05 10 1A 00 3F  04 10 05 10 1C 80 15 05  .......?........
0CF0: 10 1C 80 48 58 80 23 01  03 0D 03 05 10 1A 00 48  ...HX.#........H
0D00: 59 80 23 02 18 00 0F 80  00 1B 0D 5C 00 0F 80 5C  Y.#........\...\
0D10: 01 0F 80 5C 02 4D 80 5C  03 4D 80 02 17 00 0F 80  ...\.M.\.M......
0D20: 03 44 0D 45 1B 80 F0 FF  FF 7F F0 FF FF 7F 66 64  .D.E..........fd
0D30: 69 32 0F 80 5C 00 0F 80  5C 01 0F 80 5C 02 4D 80  i2..\...\...\.M.
0D40: 5C 03 4D 80 06 18 00 45  4F 80 F0 FF FF 7F F0 FF  \.M....EO.......
0D50: FF 7F 77 68 69 31 0F 80  45 1B 80 F0 FF FF 7F F0  ..whi1..E.......
0D60: FF FF 7F 62 6C 6F 66 0F  80 21 00                 ...blof..!.     
```

#### Opcodes

```
  0: 0x0B39 [0x79] LocalPlayer looks at LocalPlayer (Basic look)
  1: 0x0B43 [0x03] ExtData[1]->WorkLocal[33] = Work_Zone[2]
  2: 0x0B48 [0x03] ExtData[1]->WorkLocal[26] = Work_Zone[3]
  3: 0x0B4D [0x03] ExtData[1]->WorkLocal[27] = Work_Zone[5]
  4: 0x0B52 [0x03] ExtData[1]->WorkLocal[32] = Work_Zone[6]
  5: 0x0B57 [0x03] ExtData[1]->WorkLocal[25] = Work_Zone[7]
  6: 0x0B5C [0x03] ExtData[1]->WorkLocal[23] = Work_Zone[8]
  7: 0x0B61 [0x02] IF !(ExtData[1]->WorkLocal[23] < 3*) GOTO 0x0B6E
  8: 0x0B69 [0x03] ExtData[1]->WorkLocal[23] = 0*
  9: 0x0B6E [0x1A] CALL_SUBROUTINE(address=0x0FE3)
 10: 0x0B71 [0x03] ExtData[1]->WorkLocal[28] = Work_Zone[9]
 11: 0x0B76 [0x20] SET_CLI_EVENT_UC_FLAG: Lock player control
 12: 0x0B78 [0x42] SET_CLI_EVENT_CANCEL_DATA()
 13: 0x0B79 [0x3B] GET_ENTITY_POSITION(entity=LocalPlayer, x_destination=Work_Zone[32], y_destination=Work_Zone[33], z_destination=Work_Zone[34])
 14: 0x0B84 [0x3A] CONVERT_YAW_TO_BYTE(entity=LocalPlayer, result_destination=Work_Zone[35])
 15: 0x0B8B [0x02] IF !(ExtData[1]->WorkLocal[32] == 180*) GOTO 0x0B96
 16: 0x0B93 [0x1C] WAIT(300* ticks)
 17: 0x0B96 [0x45] LOAD_SCHEDULED_TASK: Load scheduler "whi1" with entities [LocalPlayer, LocalPlayer], work=[201*, 0*]
 18: 0x0BA7 [0x45] LOAD_SCHEDULED_TASK: Load scheduler "blof" with entities [LocalPlayer, LocalPlayer], work=[200*, 0*]
 19: 0x0BB8 [0x45] LOAD_SCHEDULED_TASK: Load scheduler "fdo1" with entities [LocalPlayer, LocalPlayer], work=[200*, 0*]
 20: 0x0BC9 [0x55] WAIT_LOAD_SCHEDULER: Wait for scheduler "fdo1" with entities [LocalPlayer, LocalPlayer], work=200*
 21: 0x0BD8 [0x6C] FADE_ENTITY_COLOR(entity_id=LocalPlayer, end_alpha=128*, fade_time=1*)
 22: 0x0BE1 [0x06] Work_Zone[1] = 0
 23: 0x0BE4 [0x02] IF !(ExtData[1]->WorkLocal[23] >= 0*) GOTO 0x0BEF
 24: 0x0BEC [0x01] GOTO 0x0BFB
 25: 0x0BEF [0x47] UPDATE_PLAYER_POS(0.000*, 0.000*, 4.000*, yaw=90.0°*)
 26: 0x0BF9 [0x47] WAIT_PLAYER_POS_UPDATE

SUBROUTINE_0BFB:
 27: 0x0BFB [0x38] SET_CLIENT_EVENT_MODE(mode=19*)
 28: 0x0BFE [0x02] IF !(ExtData[1]->WorkLocal[23] == 2*) GOTO 0x0C09
 29: 0x0C06 [0x01] GOTO 0x0C24
 30: 0x0C09 [0x02] IF !(ExtData[1]->WorkLocal[23] == 1*) GOTO 0x0C68
 31: 0x0C11 [0x1C] WAIT(15* ticks)
 32: 0x0C14 [0x24] CREATE_DIALOG(message_id=7666*, default_option=1*, option_flags=0*)
    → "Skip the event? [Yes./No.]"
 33: 0x0C1B [0x25] WAIT_DIALOG_SELECT()
 34: 0x0C1C [0x02] IF !(Work_Zone[0] == 0*) GOTO 0x0C68

SUBROUTINE_0C24:
 35: 0x0C24 [0x37] UPDATE_EVENT_POSITION_AND_DIR: x=0.000*, z=0.000*, y=4.000*, direction=90.0°*
 36: 0x0C2D [0x80] LOAD_WAIT(entity=LocalPlayer)
 37: 0x0C32 [0x62] LOAD_EVENT_SCHEDULER: Load scheduler "main" with entities [LocalPlayer, LocalPlayer], work=[2*, 0*]
 38: 0x0C43 [0x45] LOAD_SCHEDULED_TASK: Load scheduler "fdi2" with entities [LocalPlayer, LocalPlayer], work=[200*, 0*]
 39: 0x0C54 [0x46] CAMERA_CONTROL: Query status
 40: 0x0C56 [0x12] 0x0200 = rand()
 41: 0x0C59 [0x12] 0x0F00 = rand()
 42: 0x0C5C [0x80] LOAD_WAIT(entity=Unknown NPC (ID: 1175216640/0x460C6200))
 43: 0x0C61 [0x00] END_REQSTACK()

SUBROUTINE_0C68:
 44: 0x0C68 [0x02] IF !(ExtData[1]->WorkLocal[23] < 4294967295*) GOTO 0x0C81
 45: 0x0C70 [0x5C] MUSIC_CONTROL: Set Idle (Day) music to song 82*
 46: 0x0C74 [0x5C] MUSIC_CONTROL: Set Idle (Night) music to song 82*
 47: 0x0C78 [0x5C] MUSIC_CONTROL: Set Combat (Solo) music to song 82*
 48: 0x0C7C [0x5C] MUSIC_CONTROL: Set Combat (Party) music to song 82*
 49: 0x0C80 [0x9A] WAIT_MUSIC_SERVER()
 50: 0x0C81 [0x1A] CALL_SUBROUTINE(address=0x0F34)
 51: 0x0C84 [0x02] IF !(ExtData[1]->WorkLocal[23] >= 0*) GOTO 0x0C8F
 52: 0x0C8C [0x01] GOTO 0x0D03

SUBROUTINE_0C8F:
 53: 0x0C8F [0x02] IF !(ExtData[1]->WorkLocal[32] == 0*) GOTO 0x0C9A
 54: 0x0C97 [0x01] GOTO 0x0C9A

SUBROUTINE_0C9A:
 55: 0x0C9A [0x03] Work_Zone[5] = ExtData[1]->WorkLocal[27]
 56: 0x0C9F [0x02] IF !(Work_Zone[5] <= 0*) GOTO 0x0D03
 57: 0x0CA7 [0x02] IF !(Work_Zone[5] < 60*) GOTO 0x0CC2
 58: 0x0CAF [0x3F] Work_Zone[4] = Work_Zone[5] % 60*
 59: 0x0CB6 [0x15] Work_Zone[5] /= 60*
 60: 0x0CBB [0x48] [System] [7668*]:
    → "Battlefield clear time: $3 minute[/s], $2 second[/s]!"
 61: 0x0CBE [0x23] WAIT_FOR_DIALOG_INTERACTION
 62: 0x0CBF [0x01] GOTO 0x0CC6
 63: 0x0CC2 [0x48] [System] [7667*]:
    → "Battlefield clear time: $3 second[/s]!"
 64: 0x0CC5 [0x23] WAIT_FOR_DIALOG_INTERACTION

SUBROUTINE_0CC6:
 65: 0x0CC6 [0x02] IF !(ExtData[1]->WorkLocal[27] > ExtData[1]->WorkLocal[26]) GOTO 0x0CDA
 66: 0x0CCE [0x03] Work_Zone[7] = ExtData[1]->WorkLocal[25]
 67: 0x0CD3 [0x48] [System] [8003*]:
    → "You have broken the clear time record for "[The Orb's Radiance/Letter from Iroha/Letter from Reisenjima/$26The Orb's Radiance]"!"
 68: 0x0CD6 [0x23] WAIT_FOR_DIALOG_INTERACTION
 69: 0x0CD7 [0x01] GOTO 0x0D03
 70: 0x0CDA [0x02] IF !(ExtData[1]->WorkLocal[26] < 60*) GOTO 0x0CFA
 71: 0x0CE2 [0x03] Work_Zone[5] = ExtData[1]->WorkLocal[26]
 72: 0x0CE7 [0x3F] Work_Zone[4] = Work_Zone[5] % 60*
 73: 0x0CEE [0x15] Work_Zone[5] /= 60*
 74: 0x0CF3 [0x48] [System] [7670*]:
    → "The current battlefield clear time record is $3 minute[/s] $2 second[/s]."
 75: 0x0CF6 [0x23] WAIT_FOR_DIALOG_INTERACTION
 76: 0x0CF7 [0x01] GOTO 0x0D03
 77: 0x0CFA [0x03] Work_Zone[5] = ExtData[1]->WorkLocal[26]
 78: 0x0CFF [0x48] [System] [7669*]:
    → "The current battlefield clear time record is $3 second[/s]."
 79: 0x0D02 [0x23] WAIT_FOR_DIALOG_INTERACTION

SUBROUTINE_0D03:
 80: 0x0D03 [0x02] IF !(ExtData[1]->WorkLocal[24] == 0*) GOTO 0x0D1B
 81: 0x0D0B [0x5C] MUSIC_CONTROL: Set Idle (Day) music to song 0*
 82: 0x0D0F [0x5C] MUSIC_CONTROL: Set Idle (Night) music to song 0*
 83: 0x0D13 [0x5C] MUSIC_CONTROL: Set Combat (Solo) music to song 82*
 84: 0x0D17 [0x5C] MUSIC_CONTROL: Set Combat (Party) music to song 82*
 85: 0x0D1B [0x02] IF !(ExtData[1]->WorkLocal[23] >= 0*) GOTO 0x0D44
 86: 0x0D23 [0x45] LOAD_SCHEDULED_TASK: Load scheduler "fdi2" with entities [LocalPlayer, LocalPlayer], work=[200*, 0*]
 87: 0x0D34 [0x5C] MUSIC_CONTROL: Set Idle (Day) music to song 0*
 88: 0x0D38 [0x5C] MUSIC_CONTROL: Set Idle (Night) music to song 0*
 89: 0x0D3C [0x5C] MUSIC_CONTROL: Set Combat (Solo) music to song 82*
 90: 0x0D40 [0x5C] MUSIC_CONTROL: Set Combat (Party) music to song 82*
 91: 0x0D44 [0x06] ExtData[1]->WorkLocal[24] = 0
 92: 0x0D47 [0x45] LOAD_SCHEDULED_TASK: Load scheduler "whi1" with entities [LocalPlayer, LocalPlayer], work=[201*, 0*]
 93: 0x0D58 [0x45] LOAD_SCHEDULED_TASK: Load scheduler "blof" with entities [LocalPlayer, LocalPlayer], work=[200*, 0*]
 94: 0x0D69 [0x21] END_EVENT
 95: 0x0D6A [0x00] END_REQSTACK()
```

#### Data or dead code:

```
# Dead code (unreachable instructions):
     0x0C62 [0x01] GOTO 0x0C8F
     0x0C65 [0x01] GOTO 0x0C68
```

### Event 32003

#### Metadata

| Field        | Value     |
|--------------|-----------|
| Entrypoint   | 0x0D6B    |
| Data Size    | 182 bytes |
| Instructions | 33        |

```
      00 01 02 03 04 05 06 07  08 09 0A 0B 0C 0D 0E 0F
      -- -- -- -- -- -- -- --  -- -- -- -- -- -- -- --
0D60:                                   06 1D 00 06 1E             .....
0D70: 00 03 21 00 06 10 03 20  00 07 10 03 1F 00 08 10  ..!.... ........
0D80: 06 01 10 1A 93 0F 02 1D  00 02 80 00 1F 0E 42 03  ..............B.
0D90: 01 10 03 80 43 00 43 01  03 01 10 04 80 43 00 43  ....C.C......C.C
0DA0: 01 1A AA 0F 02 1E 00 02  80 00 1F 0E 45 1B 80 F0  ............E...
0DB0: FF FF 7F F0 FF FF 7F 66  64 6F 31 0F 80 55 1B 80  .......fdo1..U..
0DC0: F0 FF FF 7F F0 FF FF 7F  66 64 6F 31 03 01 10 05  ........fdo1....
0DD0: 80 47 00 0F 80 0F 80 50  80 51 80 47 01 38 26 80  .G.....P.Q.G.8&.
0DE0: 79 00 F0 FF FF 7F F0 FF  FF 7F 1A AE 0F 45 4F 80  y............EO.
0DF0: F0 FF FF 7F F0 FF FF 7F  77 68 69 31 0F 80 45 1B  ........whi1..E.
0E00: 80 F0 FF FF 7F F0 FF FF  7F 62 6C 6F 66 0F 80 5C  .........blof..\
0E10: 00 0F 80 5C 01 0F 80 5C  02 4D 80 5C 03 4D 80 21  ...\...\.M.\.M.!
0E20: 00                                                .               
```

#### Opcodes

```
  0: 0x0D6B [0x06] ExtData[1]->WorkLocal[29] = 0
  1: 0x0D6E [0x06] ExtData[1]->WorkLocal[30] = 0
  2: 0x0D71 [0x03] ExtData[1]->WorkLocal[33] = Work_Zone[6]
  3: 0x0D76 [0x03] ExtData[1]->WorkLocal[32] = Work_Zone[7]
  4: 0x0D7B [0x03] ExtData[1]->WorkLocal[31] = Work_Zone[8]
  5: 0x0D80 [0x06] Work_Zone[1] = 0
  6: 0x0D83 [0x1A] CALL_SUBROUTINE(address=0x0F93)
  7: 0x0D86 [0x02] IF !(ExtData[1]->WorkLocal[29] == 1*) GOTO 0x0E1F
  8: 0x0D8E [0x42] SET_CLI_EVENT_CANCEL_DATA()
  9: 0x0D8F [0x03] Work_Zone[1] = 2*
 10: 0x0D94 [0x43] SEND_EVENT_UPDATE: Send pending tag to server (packet 0x005B)
 11: 0x0D96 [0x43] SEND_EVENT_UPDATE: Check pending flag (skip if not pending)
 12: 0x0D98 [0x03] Work_Zone[1] = 3*
 13: 0x0D9D [0x43] SEND_EVENT_UPDATE: Send pending tag to server (packet 0x005B)
 14: 0x0D9F [0x43] SEND_EVENT_UPDATE: Check pending flag (skip if not pending)
 15: 0x0DA1 [0x1A] CALL_SUBROUTINE(address=0x0FAA)
 16: 0x0DA4 [0x02] IF !(ExtData[1]->WorkLocal[30] == 1*) GOTO 0x0E1F
 17: 0x0DAC [0x45] LOAD_SCHEDULED_TASK: Load scheduler "fdo1" with entities [LocalPlayer, LocalPlayer], work=[200*, 0*]
 18: 0x0DBD [0x55] WAIT_LOAD_SCHEDULER: Wait for scheduler "fdo1" with entities [LocalPlayer, LocalPlayer], work=200*
 19: 0x0DCC [0x03] Work_Zone[1] = 4*
 20: 0x0DD1 [0x47] UPDATE_PLAYER_POS(0.000*, 0.000*, 4.000*, yaw=90.0°*)
 21: 0x0DDB [0x47] WAIT_PLAYER_POS_UPDATE
 22: 0x0DDD [0x38] SET_CLIENT_EVENT_MODE(mode=19*)
 23: 0x0DE0 [0x79] LocalPlayer looks at LocalPlayer (Basic look)
 24: 0x0DEA [0x1A] CALL_SUBROUTINE(address=0x0FAE)
 25: 0x0DED [0x45] LOAD_SCHEDULED_TASK: Load scheduler "whi1" with entities [LocalPlayer, LocalPlayer], work=[201*, 0*]
 26: 0x0DFE [0x45] LOAD_SCHEDULED_TASK: Load scheduler "blof" with entities [LocalPlayer, LocalPlayer], work=[200*, 0*]
 27: 0x0E0F [0x5C] MUSIC_CONTROL: Set Idle (Day) music to song 0*
 28: 0x0E13 [0x5C] MUSIC_CONTROL: Set Idle (Night) music to song 0*
 29: 0x0E17 [0x5C] MUSIC_CONTROL: Set Combat (Solo) music to song 82*
 30: 0x0E1B [0x5C] MUSIC_CONTROL: Set Combat (Party) music to song 82*
 31: 0x0E1F [0x21] END_EVENT
 32: 0x0E20 [0x00] END_REQSTACK()
```

### Event 32004

#### Metadata

| Field        | Value      |
|--------------|------------|
| Entrypoint   | 0x0E21     |
| Data Size    | 1283 bytes |
| Instructions | 14         |

```
      00 01 02 03 04 05 06 07  08 09 0A 0B 0C 0D 0E 0F
      -- -- -- -- -- -- -- --  -- -- -- -- -- -- -- --
0E20:    03 22 00 02 10 03 23  00 03 10 03 1F 00 04 10   ."....#........
0E30: 03 24 00 05 10 42 38 44  80 02 24 00 0F 80 00 44  .$...B8D..$....D
0E40: 0E 1C 5A 80 02 1F 00 0F  80 80 4F 0E 01 4F 0E 45  ..Z.......O..O.E
0E50: 1B 80 F0 FF FF 7F F0 FF  FF 7F 66 64 69 32 0F 80  ..........fdi2..
0E60: 46 00 21 00 02 24 00 0F  80 00 8D 0E 02 22 00 02  F.!..$......."..
0E70: 80 80 77 0E 01 8D 0E 02  22 00 03 80 80 82 0E 01  ..w.....".......
0E80: 8D 0E 02 22 00 04 80 80  8D 0E 01 8D 0E 1B 24 24  ..."..........$$
0E90: 80 02 80 0F 80 25 02 00  10 0F 80 00 A4 0E 05 02  .....%..........
0EA0: 00 01 A4 0E 1B 79 00 F0  FF FF 7F F0 FF FF 7F 42  .....y.........B
0EB0: 46 01 02 04 00 02 80 80  BD 0E 01 BD 0E 78 02 01  F............x..
0EC0: 00 02 80 80 D5 0E 37 2A  80 2B 80 2C 80 2D 80 1A  ......7*.+.,.-..
0ED0: D0 11 01 31 0F 02 01 00  03 80 80 EC 0E 37 2E 80  ...1.........7..
0EE0: 2B 80 2F 80 2D 80 1A D0  11 01 31 0F 02 01 00 04  +./.-.....1.....
0EF0: 80 80 03 0F 37 2E 80 30  80 31 80 2D 80 1A D0 11  ....7..0.1.-....
0F00: 01 31 0F 02 01 00 05 80  80 1A 0F 37 0F 80 0F 80  .1.........7....
0F10: 0F 80 0F 80 1A D0 11 01  31 0F 02 01 00 23 80 80  ........1....#..
0F20: 31 0F 37 0F 80 0F 80 0F  80 0F 80 1A D0 11 01 31  1.7............1
0F30: 0F 46 00 1B 02 19 00 0F  80 80 42 0F 1A 56 0F 01  .F........B..V..
0F40: 53 0F 02 19 00 02 80 80  50 0F 1A 56 0F 01 53 0F  S.......P..V..S.
0F50: 1A 56 0F 46 00 1B 45 1B  80 F0 FF FF 7F F0 FF FF  .V.F..E.........
0F60: 7F 66 64 69 32 0F 80 02  17 00 20 80 01 80 0F 62  .fdi2..... ....b
0F70: 03 80 F0 FF FF 7F F0 FF  FF 7F 6D 61 69 6E 0F 80  ..........main..
0F80: 1C 00 80 55 1B 80 F0 FF  FF 7F F0 FF FF 7F 66 64  ...U..........fd
0F90: 69 32 1B 24 5B 80 02 80  0F 80 25 02 00 10 0F 80  i2.$[.....%.....
0FA0: 00 A9 0F 05 1D 00 01 A9  0F 1B 05 1E 00 1B 42 45  ..............BE
0FB0: 4F 80 F0 FF FF 7F F0 FF  FF 7F 77 68 69 31 0F 80  O.........whi1..
0FC0: 45 1B 80 F0 FF FF 7F F0  FF FF 7F 62 6C 6F 66 0F  E..........blof.
0FD0: 80 45 1B 80 F0 FF FF 7F  F0 FF FF 7F 66 64 69 30  .E..........fdi0
0FE0: 0F 80 1B 02 19 00 0F 80  80 F3 0F 03 17 00 03 80  ................
0FF0: 01 F3 0F 1B 46 01 1A 81  10 1A D0 11 46 00 1B 02  ....F.......F...
1000: 04 00 0F 80 80 0A 10 01  2E 10 02 04 00 04 80 80  ................
1010: 2E 10 03 08 17 5C 80 03  09 17 5D 80 03 0A 17 5E  .....\....]....^
1020: 80 03 0B 17 5F 80 03 0C  17 60 80 01 2E 10 1B 02  ...._....`......
1030: 05 00 0F 80 80 4A 10 5C  00 4D 80 5C 01 4D 80 5C  .....J.\.M.\.M.\
1040: 02 4D 80 5C 03 4D 80 01  80 10 02 05 00 02 80 80  .M.\.M..........
1050: 65 10 5C 00 61 80 5C 01  61 80 5C 02 61 80 5C 03  e.\.a.\.a.\.a.\.
1060: 61 80 01 80 10 02 05 00  03 80 80 80 10 5C 00 61  a............\.a
1070: 80 5C 01 61 80 5C 02 61  80 5C 03 61 80 01 80 10  .\.a.\.a.\.a....
1080: 1B 45 62 80 F0 FF FF 7F  F0 FF FF 7F 62 61 63 6B  .Eb.........back
1090: 0F 80 1B 45 1B 80 F0 FF  FF 7F F0 FF FF 7F 66 64  ...E..........fd
10A0: 69 30 0F 80 55 1B 80 F0  FF FF 7F F0 FF FF 7F 66  i0..U..........f
10B0: 64 69 30 1B 45 1B 80 F0  FF FF 7F F0 FF FF 7F 66  di0.E..........f
10C0: 64 6F 30 0F 80 55 1B 80  F0 FF FF 7F F0 FF FF 7F  do0..U..........
10D0: 66 64 6F 30 1B 45 1B 80  F0 FF FF 7F F0 FF FF 7F  fdo0.E..........
10E0: 66 64 69 31 0F 80 55 1B  80 F0 FF FF 7F F0 FF FF  fdi1..U.........
10F0: 7F 66 64 69 31 1B 45 1B  80 F0 FF FF 7F F0 FF FF  .fdi1.E.........
1100: 7F 66 64 6F 31 0F 80 55  1B 80 F0 FF FF 7F F0 FF  .fdo1..U........
1110: FF 7F 66 64 6F 31 1B 45  4F 80 F0 FF FF 7F F0 FF  ..fdo1.EO.......
1120: FF 7F 77 68 69 31 0F 80  55 4F 80 F0 FF FF 7F F0  ..whi1..UO......
1130: FF FF 7F 77 68 69 31 1B  45 4F 80 F0 FF FF 7F F0  ...whi1.EO......
1140: FF FF 7F 77 68 6F 31 0F  80 55 4F 80 F0 FF FF 7F  ...who1..UO.....
1150: F0 FF FF 7F 77 68 6F 31  1B 45 4F 80 F0 FF FF 7F  ....who1.EO.....
1160: F0 FF FF 7F 77 68 6F 32  0F 80 55 4F 80 F0 FF FF  ....who2..UO....
1170: 7F F0 FF FF 7F 77 68 6F  32 1B 45 4F 80 F0 FF FF  .....who2.EO....
1180: 7F F0 FF FF 7F 77 68 6F  33 0F 80 55 4F 80 F0 FF  .....who3..UO...
1190: FF 7F F0 FF FF 7F 77 68  6F 33 1B 62 02 80 F0 FF  ......who3.b....
11A0: FF 7F F0 FF FF 7F 6D 61  69 6E 0F 80 1C 63 80 45  ......main...c.E
11B0: 1B 80 F0 FF FF 7F F0 FF  FF 7F 66 64 6F 31 0F 80  ..........fdo1..
11C0: 55 1B 80 F0 FF FF 7F F0  FF FF 7F 66 64 6F 31 1B  U..........fdo1.
11D0: 45 1B 80 F0 FF FF 7F F0  FF FF 7F 66 64 69 31 0F  E..........fdi1.
11E0: 80 62 03 80 F0 FF FF 7F  F0 FF FF 7F 6D 61 69 6E  .b..........main
11F0: 0F 80 1C 00 80 55 1B 80  F0 FF FF 7F F0 FF FF 7F  .....U..........
1200: 66 64 69 31 1B 45 1B 80  F0 FF FF 7F F0 FF FF 7F  fdi1.E..........
1210: 62 6C 6F 6E 0F 80 45 4F  80 F0 FF FF 7F F0 FF FF  blon..EO........
1220: 7F 62 6C 6F 6E 0F 80 1B  45 4F 80 F0 FF FF 7F F0  .blon...EO......
1230: FF FF 7F 77 68 69 30 0F  80 55 4F 80 F0 FF FF 7F  ...whi0..UO.....
1240: F0 FF FF 7F 77 68 69 30  1B 45 4F 80 F0 FF FF 7F  ....whi0.EO.....
1250: F0 FF FF 7F 77 68 6F 30  0F 80 55 4F 80 F0 FF FF  ....who0..UO....
1260: 7F F0 FF FF 7F 77 68 6F  30 1B 45 64 80 F0 FF FF  .....who0.Ed....
1270: 7F F0 FF FF 7F 65 66 6F  6E 0F 80 55 64 80 F0 FF  .....efon..Ud...
1280: FF 7F F0 FF FF 7F 65 66  6F 6E 1B 45 1B 80 F0 FF  ......efon.E....
1290: FF 7F F0 FF FF 7F 66 64  69 73 0F 80 1B 45 1B 80  ......fdis...E..
12A0: F0 FF FF 7F F0 FF FF 7F  66 64 6F 73 0F 80 55 1B  ........fdos..U.
12B0: 80 F0 FF FF 7F F0 FF FF  7F 66 64 6F 73 1B 45 1B  .........fdos.E.
12C0: 80 F0 FF FF 7F F0 FF FF  7F 66 64 69 66 0F 80 1B  .........fdif...
12D0: 45 1B 80 F0 FF FF 7F F0  FF FF 7F 66 64 6F 66 0F  E..........fdof.
12E0: 80 55 1B 80 F0 FF FF 7F  F0 FF FF 7F 66 64 6F 66  .U..........fdof
12F0: 1B 45 1B 80 F0 FF FF 7F  F0 FF FF 7F 66 64 69 70  .E..........fdip
1300: 0F 80 1B 45 1B 80 F0 FF  FF 7F F0 FF FF 7F 66 64  ...E..........fd
1310: 6F 70 0F 80 55 1B 80 F0  FF FF 7F F0 FF FF 7F 66  op..U..........f
1320: 64 6F 70 1B                                       dop.            
```

#### Opcodes

```
  0: 0x0E21 [0x03] ExtData[1]->WorkLocal[34] = Work_Zone[2]
  1: 0x0E26 [0x03] ExtData[1]->WorkLocal[35] = Work_Zone[3]
  2: 0x0E2B [0x03] ExtData[1]->WorkLocal[31] = Work_Zone[4]
  3: 0x0E30 [0x03] ExtData[1]->WorkLocal[36] = Work_Zone[5]
  4: 0x0E35 [0x42] SET_CLI_EVENT_CANCEL_DATA()
  5: 0x0E36 [0x38] SET_CLIENT_EVENT_MODE(mode=27*)
  6: 0x0E39 [0x02] IF !(ExtData[1]->WorkLocal[36] == 0*) GOTO 0x0E44
  7: 0x0E41 [0x1C] WAIT(120* ticks)
  8: 0x0E44 [0x02] IF !(ExtData[1]->WorkLocal[31] == 0*) GOTO 0x0E4F
  9: 0x0E4C [0x01] GOTO 0x0E4F

SUBROUTINE_0E4F:
 10: 0x0E4F [0x45] LOAD_SCHEDULED_TASK: Load scheduler "fdi2" with entities [LocalPlayer, LocalPlayer], work=[200*, 0*]
 11: 0x0E60 [0x46] CAMERA_CONTROL: Restore default settings
 12: 0x0E62 [0x21] END_EVENT
 13: 0x0E63 [0x00] END_REQSTACK()
```

#### Data or dead code:

```
# Dead code (unreachable instructions):
     0x0E64 [0x02] IF !(ExtData[1]->WorkLocal[36] == 0*) GOTO 0x0E8D
     0x0E6C [0x02] IF !(ExtData[1]->WorkLocal[34] == 1*) GOTO 0x0E77
     0x0E74 [0x01] GOTO 0x0E8D
     0x0E77 [0x02] IF !(ExtData[1]->WorkLocal[34] == 2*) GOTO 0x0E82
     0x0E7F [0x01] GOTO 0x0E8D
     0x0E82 [0x02] IF !(ExtData[1]->WorkLocal[34] == 3*) GOTO 0x0E8D
     0x0E8A [0x01] GOTO 0x0E8D
     0x0E8D [0x1B] RETURN
     0x0E8E [0x24] CREATE_DIALOG(message_id=7327*, default_option=1*, option_flags=0*)
    → "Enter the battlefield? [Enter./Decline.]"
     0x0E95 [0x25] WAIT_DIALOG_SELECT()
     0x0E96 [0x02] IF !(Work_Zone[0] == 0*) GOTO 0x0EA4
     0x0E9E [0x05] ExtData[1]->WorkLocal[2] = 1
     0x0EA1 [0x01] GOTO 0x0EA4
     0x0EA4 [0x1B] RETURN
     0x0EA5 [0x79] LocalPlayer looks at LocalPlayer (Basic look)
     0x0EAF [0x42] SET_CLI_EVENT_CANCEL_DATA()
     0x0EB0 [0x46] CAMERA_CONTROL: Disable user control
     0x0EB2 [0x02] IF !(ExtData[1]->WorkLocal[4] == 1*) GOTO 0x0EBD
     0x0EBA [0x01] GOTO 0x0EBD
     0x0EBD [0x78] ENABLE_GAME_TIMER_RESET_WEATHER()
     0x0EBE [0x02] IF !(ExtData[1]->WorkLocal[1] == 1*) GOTO 0x0ED5
     0x0EC6 [0x37] UPDATE_EVENT_POSITION_AND_DIR: x=500.000*, z=474.000*, y=-530.500*, direction=270.3°*
     0x0ECF [0x1A] CALL_SUBROUTINE(address=0x11D0)
     0x0ED2 [0x01] GOTO 0x0F31
     0x0ED5 [0x02] IF !(ExtData[1]->WorkLocal[1] == 2*) GOTO 0x0EEC
     0x0EDD [0x37] UPDATE_EVENT_POSITION_AND_DIR: x=-500.000*, z=474.000*, y=-30.500*, direction=270.3°*
     0x0EE6 [0x1A] CALL_SUBROUTINE(address=0x11D0)
     0x0EE9 [0x01] GOTO 0x0F31
     0x0EEC [0x02] IF !(ExtData[1]->WorkLocal[1] == 3*) GOTO 0x0F03
     0x0EF4 [0x37] UPDATE_EVENT_POSITION_AND_DIR: x=-500.000*, z=-526.000*, y=469.000*, direction=270.3°*
     0x0EFD [0x1A] CALL_SUBROUTINE(address=0x11D0)
     0x0F00 [0x01] GOTO 0x0F31
     0x0F03 [0x02] IF !(ExtData[1]->WorkLocal[1] == 4*) GOTO 0x0F1A
     0x0F0B [0x37] UPDATE_EVENT_POSITION_AND_DIR: x=0.000*, z=0.000*, y=0.000*, direction=0.0°*
     0x0F14 [0x1A] CALL_SUBROUTINE(address=0x11D0)
     0x0F17 [0x01] GOTO 0x0F31
     0x0F1A [0x02] IF !(ExtData[1]->WorkLocal[1] == 5*) GOTO 0x0F31
     0x0F22 [0x37] UPDATE_EVENT_POSITION_AND_DIR: x=0.000*, z=0.000*, y=0.000*, direction=0.0°*
     0x0F2B [0x1A] CALL_SUBROUTINE(address=0x11D0)
     0x0F2E [0x01] GOTO 0x0F31
     0x0F31 [0x46] CAMERA_CONTROL: Restore default settings
     0x0F33 [0x1B] RETURN
     0x0F34 [0x02] IF !(ExtData[1]->WorkLocal[25] == 0*) GOTO 0x0F42
     0x0F3C [0x1A] CALL_SUBROUTINE(address=0x0F56)
     0x0F3F [0x01] GOTO 0x0F53
     0x0F42 [0x02] IF !(ExtData[1]->WorkLocal[25] == 1*) GOTO 0x0F50
     0x0F4A [0x1A] CALL_SUBROUTINE(address=0x0F56)
     0x0F4D [0x01] GOTO 0x0F53
     0x0F50 [0x1A] CALL_SUBROUTINE(address=0x0F56)
     0x0F53 [0x46] CAMERA_CONTROL: Restore default settings
     0x0F55 [0x1B] RETURN
     0x0F56 [0x45] LOAD_SCHEDULED_TASK: Load scheduler "fdi2" with entities [LocalPlayer, LocalPlayer], work=[200*, 0*]
     0x0F67 [0x02] IF !(ExtData[1]->WorkLocal[23] == 4294967295*) GOTO 0x0F80
     0x0F6F [0x62] LOAD_EVENT_SCHEDULER: Load scheduler "main" with entities [LocalPlayer, LocalPlayer], work=[2*, 0*]
     0x0F80 [0x1C] WAIT(30* ticks)
     0x0F83 [0x55] WAIT_LOAD_SCHEDULER: Wait for scheduler "fdi2" with entities [LocalPlayer, LocalPlayer], work=200*
     0x0F92 [0x1B] RETURN
     0x0F93 [0x24] CREATE_DIALOG(message_id=7328*, default_option=1*, option_flags=0*)
    → "Leave the battlefield? [Run away./Stay.]"
     0x0F9A [0x25] WAIT_DIALOG_SELECT()
     0x0F9B [0x02] IF !(Work_Zone[0] == 0*) GOTO 0x0FA9
     0x0FA3 [0x05] ExtData[1]->WorkLocal[29] = 1
     0x0FA6 [0x01] GOTO 0x0FA9
     0x0FA9 [0x1B] RETURN
     0x0FAA [0x05] ExtData[1]->WorkLocal[30] = 1
     0x0FAD [0x1B] RETURN
     0x0FAE [0x42] SET_CLI_EVENT_CANCEL_DATA()
     0x0FAF [0x45] LOAD_SCHEDULED_TASK: Load scheduler "whi1" with entities [LocalPlayer, LocalPlayer], work=[201*, 0*]
     0x0FC0 [0x45] LOAD_SCHEDULED_TASK: Load scheduler "blof" with entities [LocalPlayer, LocalPlayer], work=[200*, 0*]
     0x0FD1 [0x45] LOAD_SCHEDULED_TASK: Load scheduler "fdi0" with entities [LocalPlayer, LocalPlayer], work=[200*, 0*]
     0x0FE2 [0x1B] RETURN
     0x0FE3 [0x02] IF !(ExtData[1]->WorkLocal[25] == 0*) GOTO 0x0FF3
     0x0FEB [0x03] ExtData[1]->WorkLocal[23] = 2*
     0x0FF0 [0x01] GOTO 0x0FF3
     0x0FF3 [0x1B] RETURN
     0x0FF4 [0x46] CAMERA_CONTROL: Disable user control
     0x0FF6 [0x1A] CALL_SUBROUTINE(address=0x1081)
     0x0FF9 [0x1A] CALL_SUBROUTINE(address=0x11D0)
     0x0FFC [0x46] CAMERA_CONTROL: Restore default settings
     0x0FFE [0x1B] RETURN
     0x0FFF [0x02] IF !(ExtData[1]->WorkLocal[4] == 0*) GOTO 0x100A
     0x1007 [0x01] GOTO 0x102E
     0x100A [0x02] IF !(ExtData[1]->WorkLocal[4] == 3*) GOTO 0x102E
     0x1012 [0x03] Work_Zone_1700[8] = 119*
     0x1017 [0x03] Work_Zone_1700[9] = 124*
     0x101C [0x03] Work_Zone_1700[10] = 129*
     0x1021 [0x03] Work_Zone_1700[11] = 134*
     0x1026 [0x03] Work_Zone_1700[12] = 139*
     0x102B [0x01] GOTO 0x102E
     0x102E [0x1B] RETURN
     0x102F [0x02] IF !(ExtData[1]->WorkLocal[5] == 0*) GOTO 0x104A
     0x1037 [0x5C] MUSIC_CONTROL: Set Idle (Day) music to song 82*
     0x103B [0x5C] MUSIC_CONTROL: Set Idle (Night) music to song 82*
     0x103F [0x5C] MUSIC_CONTROL: Set Combat (Solo) music to song 82*
     0x1043 [0x5C] MUSIC_CONTROL: Set Combat (Party) music to song 82*
     0x1047 [0x01] GOTO 0x1080
     0x104A [0x02] IF !(ExtData[1]->WorkLocal[5] == 1*) GOTO 0x1065
     0x1052 [0x5C] MUSIC_CONTROL: Set Idle (Day) music to song 90*
     0x1056 [0x5C] MUSIC_CONTROL: Set Idle (Night) music to song 90*
     0x105A [0x5C] MUSIC_CONTROL: Set Combat (Solo) music to song 90*
     0x105E [0x5C] MUSIC_CONTROL: Set Combat (Party) music to song 90*
     0x1062 [0x01] GOTO 0x1080
     0x1065 [0x02] IF !(ExtData[1]->WorkLocal[5] == 2*) GOTO 0x1080
     0x106D [0x5C] MUSIC_CONTROL: Set Idle (Day) music to song 90*
     0x1071 [0x5C] MUSIC_CONTROL: Set Idle (Night) music to song 90*
     0x1075 [0x5C] MUSIC_CONTROL: Set Combat (Solo) music to song 90*
     0x1079 [0x5C] MUSIC_CONTROL: Set Combat (Party) music to song 90*
     0x107D [0x01] GOTO 0x1080
     0x1080 [0x1B] RETURN
     0x1081 [0x45] LOAD_SCHEDULED_TASK: Load scheduler "back" with entities [LocalPlayer, LocalPlayer], work=[108*, 0*]
     0x1092 [0x1B] RETURN
     0x1093 [0x45] LOAD_SCHEDULED_TASK: Load scheduler "fdi0" with entities [LocalPlayer, LocalPlayer], work=[200*, 0*]
     0x10A4 [0x55] WAIT_LOAD_SCHEDULER: Wait for scheduler "fdi0" with entities [LocalPlayer, LocalPlayer], work=200*
     0x10B3 [0x1B] RETURN
     0x10B4 [0x45] LOAD_SCHEDULED_TASK: Load scheduler "fdo0" with entities [LocalPlayer, LocalPlayer], work=[200*, 0*]
     0x10C5 [0x55] WAIT_LOAD_SCHEDULER: Wait for scheduler "fdo0" with entities [LocalPlayer, LocalPlayer], work=200*
     0x10D4 [0x1B] RETURN
     0x10D5 [0x45] LOAD_SCHEDULED_TASK: Load scheduler "fdi1" with entities [LocalPlayer, LocalPlayer], work=[200*, 0*]
     0x10E6 [0x55] WAIT_LOAD_SCHEDULER: Wait for scheduler "fdi1" with entities [LocalPlayer, LocalPlayer], work=200*
     0x10F5 [0x1B] RETURN
     0x10F6 [0x45] LOAD_SCHEDULED_TASK: Load scheduler "fdo1" with entities [LocalPlayer, LocalPlayer], work=[200*, 0*]
     0x1107 [0x55] WAIT_LOAD_SCHEDULER: Wait for scheduler "fdo1" with entities [LocalPlayer, LocalPlayer], work=200*
     0x1116 [0x1B] RETURN
     0x1117 [0x45] LOAD_SCHEDULED_TASK: Load scheduler "whi1" with entities [LocalPlayer, LocalPlayer], work=[201*, 0*]
     0x1128 [0x55] WAIT_LOAD_SCHEDULER: Wait for scheduler "whi1" with entities [LocalPlayer, LocalPlayer], work=201*
     0x1137 [0x1B] RETURN
     0x1138 [0x45] LOAD_SCHEDULED_TASK: Load scheduler "who1" with entities [LocalPlayer, LocalPlayer], work=[201*, 0*]
     0x1149 [0x55] WAIT_LOAD_SCHEDULER: Wait for scheduler "who1" with entities [LocalPlayer, LocalPlayer], work=201*
     0x1158 [0x1B] RETURN
     0x1159 [0x45] LOAD_SCHEDULED_TASK: Load scheduler "who2" with entities [LocalPlayer, LocalPlayer], work=[201*, 0*]
     0x116A [0x55] WAIT_LOAD_SCHEDULER: Wait for scheduler "who2" with entities [LocalPlayer, LocalPlayer], work=201*
     0x1179 [0x1B] RETURN
     0x117A [0x45] LOAD_SCHEDULED_TASK: Load scheduler "who3" with entities [LocalPlayer, LocalPlayer], work=[201*, 0*]
     0x118B [0x55] WAIT_LOAD_SCHEDULER: Wait for scheduler "who3" with entities [LocalPlayer, LocalPlayer], work=201*
     0x119A [0x1B] RETURN
     0x119B [0x62] LOAD_EVENT_SCHEDULER: Load scheduler "main" with entities [LocalPlayer, LocalPlayer], work=[1*, 0*]
     0x11AC [0x1C] WAIT(45* ticks)
     0x11AF [0x45] LOAD_SCHEDULED_TASK: Load scheduler "fdo1" with entities [LocalPlayer, LocalPlayer], work=[200*, 0*]
     0x11C0 [0x55] WAIT_LOAD_SCHEDULER: Wait for scheduler "fdo1" with entities [LocalPlayer, LocalPlayer], work=200*
     0x11CF [0x1B] RETURN
     0x11D0 [0x45] LOAD_SCHEDULED_TASK: Load scheduler "fdi1" with entities [LocalPlayer, LocalPlayer], work=[200*, 0*]
     0x11E1 [0x62] LOAD_EVENT_SCHEDULER: Load scheduler "main" with entities [LocalPlayer, LocalPlayer], work=[2*, 0*]
     0x11F2 [0x1C] WAIT(30* ticks)
     0x11F5 [0x55] WAIT_LOAD_SCHEDULER: Wait for scheduler "fdi1" with entities [LocalPlayer, LocalPlayer], work=200*
     0x1204 [0x1B] RETURN
     0x1205 [0x45] LOAD_SCHEDULED_TASK: Load scheduler "blon" with entities [LocalPlayer, LocalPlayer], work=[200*, 0*]
     0x1216 [0x45] LOAD_SCHEDULED_TASK: Load scheduler "blon" with entities [LocalPlayer, LocalPlayer], work=[201*, 0*]
     0x1227 [0x1B] RETURN
     0x1228 [0x45] LOAD_SCHEDULED_TASK: Load scheduler "whi0" with entities [LocalPlayer, LocalPlayer], work=[201*, 0*]
     0x1239 [0x55] WAIT_LOAD_SCHEDULER: Wait for scheduler "whi0" with entities [LocalPlayer, LocalPlayer], work=201*
     0x1248 [0x1B] RETURN
     0x1249 [0x45] LOAD_SCHEDULED_TASK: Load scheduler "who0" with entities [LocalPlayer, LocalPlayer], work=[201*, 0*]
     0x125A [0x55] WAIT_LOAD_SCHEDULER: Wait for scheduler "who0" with entities [LocalPlayer, LocalPlayer], work=201*
     0x1269 [0x1B] RETURN
     0x126A [0x45] LOAD_SCHEDULED_TASK: Load scheduler "efon" with entities [LocalPlayer, LocalPlayer], work=[215*, 0*]
     0x127B [0x55] WAIT_LOAD_SCHEDULER: Wait for scheduler "efon" with entities [LocalPlayer, LocalPlayer], work=215*
     0x128A [0x1B] RETURN
     0x128B [0x45] LOAD_SCHEDULED_TASK: Load scheduler "fdis" with entities [LocalPlayer, LocalPlayer], work=[200*, 0*]
     0x129C [0x1B] RETURN
     0x129D [0x45] LOAD_SCHEDULED_TASK: Load scheduler "fdos" with entities [LocalPlayer, LocalPlayer], work=[200*, 0*]
     0x12AE [0x55] WAIT_LOAD_SCHEDULER: Wait for scheduler "fdos" with entities [LocalPlayer, LocalPlayer], work=200*
     0x12BD [0x1B] RETURN
     0x12BE [0x45] LOAD_SCHEDULED_TASK: Load scheduler "fdif" with entities [LocalPlayer, LocalPlayer], work=[200*, 0*]
     0x12CF [0x1B] RETURN
     0x12D0 [0x45] LOAD_SCHEDULED_TASK: Load scheduler "fdof" with entities [LocalPlayer, LocalPlayer], work=[200*, 0*]
     0x12E1 [0x55] WAIT_LOAD_SCHEDULER: Wait for scheduler "fdof" with entities [LocalPlayer, LocalPlayer], work=200*
     0x12F0 [0x1B] RETURN
     0x12F1 [0x45] LOAD_SCHEDULED_TASK: Load scheduler "fdip" with entities [LocalPlayer, LocalPlayer], work=[200*, 0*]
     0x1302 [0x1B] RETURN
     0x1303 [0x45] LOAD_SCHEDULED_TASK: Load scheduler "fdop" with entities [LocalPlayer, LocalPlayer], work=[200*, 0*]
     0x1314 [0x55] WAIT_LOAD_SCHEDULER: Wait for scheduler "fdop" with entities [LocalPlayer, LocalPlayer], work=200*
     0x1323 [0x1B] RETURN
```
