# 17977516

## Common Data

| Field            | Value                           |
|------------------|---------------------------------|
| Zone             | Reisenjima Sanctorium (ID: 293) |
| Block Size       | 2256 bytes                      |
| Total Events     | 42                              |
| References Count | 73                              |

## List of Events

| Event ID                   | Entrypoint   |   Size |   Instructions |
|----------------------------|--------------|--------|----------------|
| [65535](#event-65535)      | 0x0000       |      1 |              1 |
| [2](#event-2)              | 0x0001       |      5 |              2 |
| [1](#event-1)              | 0x0006       |      5 |              2 |
| [65535.1](#event-655351)   | 0x000B       |      5 |              2 |
| [3](#event-3)              | 0x0010       |      5 |              2 |
| [10](#event-10)            | 0x0015       |      1 |              1 |
| [65535.2](#event-655352)   | 0x0016       |      5 |              2 |
| [11](#event-11)            | 0x001B       |      5 |              2 |
| [12](#event-12)            | 0x0020       |      1 |              1 |
| [14](#event-14)            | 0x0021       |      5 |              2 |
| [65535.3](#event-655353)   | 0x0026       |      5 |              2 |
| [65535.4](#event-655354)   | 0x002B       |      5 |              2 |
| [65535.5](#event-655355)   | 0x0030       |      5 |              2 |
| [65535.6](#event-655356)   | 0x0035       |      5 |              2 |
| [65535.7](#event-655357)   | 0x003A       |      5 |              2 |
| [65535.8](#event-655358)   | 0x003F       |      5 |              2 |
| [65535.9](#event-655359)   | 0x0044       |      5 |              2 |
| [65535.10](#event-6553510) | 0x0049       |      5 |              2 |
| [65535.11](#event-6553511) | 0x004E       |     33 |              3 |
| [65535.12](#event-6553512) | 0x006F       |    345 |             33 |
| [65535.13](#event-6553513) | 0x01C8       |     65 |              5 |
| [65535.14](#event-6553514) | 0x0209       |     33 |              3 |
| [65535.15](#event-6553515) | 0x022A       |     33 |              3 |
| [65535.16](#event-6553516) | 0x024B       |     33 |              3 |
| [65535.17](#event-6553517) | 0x026C       |     33 |              3 |
| [65535.18](#event-6553518) | 0x028D       |     81 |              6 |
| [65535.19](#event-6553519) | 0x02DE       |     81 |              6 |
| [65535.20](#event-6553520) | 0x032F       |     65 |              5 |
| [65535.21](#event-6553521) | 0x0370       |     49 |              4 |
| [65535.22](#event-6553522) | 0x03A1       |     99 |              7 |
| [65535.23](#event-6553523) | 0x0404       |     49 |              4 |
| [65535.24](#event-6553524) | 0x0435       |     49 |              4 |
| [65535.25](#event-6553525) | 0x0466       |     50 |              4 |
| [65535.26](#event-6553526) | 0x0498       |     49 |              4 |
| [65535.27](#event-6553527) | 0x04C9       |     65 |              5 |
| [65535.28](#event-6553528) | 0x050A       |     49 |              4 |
| [65535.29](#event-6553529) | 0x053B       |     33 |              3 |
| [65535.30](#event-6553530) | 0x055C       |    345 |             33 |
| [65535.31](#event-6553531) | 0x06B5       |     33 |              3 |
| [65535.32](#event-6553532) | 0x06D6       |     10 |              2 |
| [65535.33](#event-6553533) | 0x06E0       |     10 |              2 |
| [65535.34](#event-6553534) | 0x06EA       |     10 |              2 |

## DAT References (imed_data)

|   Index | Hex Value   |   Dec Value |
|---------|-------------|-------------|
|       0 | 0x0146      |         326 |
|       1 | 0x0991      |        2449 |
|       2 | 0x05CB      |        1483 |
|       3 | 0x0997      |        2455 |
|       4 | 0x099B      |        2459 |
|       5 | 0x0057      |          87 |
|       6 | 0x005D      |          93 |
|       7 | 0x0060      |          96 |
|       8 | 0x0064      |         100 |
|       9 | 0x09A3      |        2467 |
|      10 | 0x099E      |        2462 |
|      11 | 0x0992      |        2450 |
|      12 | 0x0F6E      |        3950 |
|      13 | 0x0F5D      |        3933 |
|      14 | 0x0001      |           1 |
|      15 | 0x0090      |         144 |
|      16 | 0x0F26      |        3878 |
|      17 | 0x0002      |           2 |
|      18 | 0x009A      |         154 |
|      19 | 0x0003      |           3 |
|      20 | 0x00A4      |         164 |
|      21 | 0x0004      |           4 |
|      22 | 0x00AE      |         174 |
|      23 | 0x0005      |           5 |
|      24 | 0x00B8      |         184 |
|      25 | 0x0006      |           6 |
|      26 | 0x0007      |           7 |
|      27 | 0x00C2      |         194 |
|      28 | 0x0008      |           8 |
|      29 | 0x00CC      |         204 |
|      30 | 0x0D71      |        3441 |
|      31 | 0x0EFC      |        3836 |
|      32 | 0x0F3D      |        3901 |
|      33 | 0x0F66      |        3942 |
|      34 | 0x04CD      |        1229 |
|      35 | 0x0F5F      |        3935 |
|      36 | 0x0EFD      |        3837 |
|      37 | 0x0F3E      |        3902 |
|      38 | 0x0ED3      |        3795 |
|      39 | 0x0F7F      |        3967 |
|      40 | 0x0ED5      |        3797 |
|      41 | 0x0F7D      |        3965 |
|      42 | 0x0F70      |        3952 |
|      43 | 0x0ED4      |        3796 |
|      44 | 0x0F7E      |        3966 |
|      45 | 0x0D72      |        3442 |
|      46 | 0x0F55      |        3925 |
|      47 | 0x0F56      |        3926 |
|      48 | 0x0F71      |        3953 |
|      49 | 0x00E0      |         224 |
|      50 | 0x0000      |           0 |
|      51 | 0x00DE      |         222 |
|      52 | 0x0F72      |        3954 |
|      53 | 0x0F57      |        3927 |
|      54 | 0x0F61      |        3937 |
|      55 | 0x00E1      |         225 |
|      56 | 0x0F80      |        3968 |
|      57 | 0x0F75      |        3957 |
|      58 | 0x0F73      |        3955 |
|      59 | 0x0F81      |        3969 |
|      60 | 0x0F74      |        3956 |
|      61 | 0x0D74      |        3444 |
|      62 | 0x0F87      |        3975 |
|      63 | 0x00D6      |         214 |
|      64 | 0x0F76      |        3958 |
|      65 | 0x00EA      |         234 |
|      66 | 0x00F4      |         244 |
|      67 | 0x00FE      |         254 |
|      68 | 0x0108      |         264 |
|      69 | 0x0112      |         274 |
|      70 | 0x0D73      |        3443 |
|      71 | 0x0F89      |        3977 |
|      72 | 0x0080      |         128 |

## Events

### Event 65535

#### Metadata

| Field        | Value   |
|--------------|---------|
| Entrypoint   | 0x0000  |
| Data Size    | 1 bytes |
| Instructions | 1       |

```
      00 01 02 03 04 05 06 07  08 09 0A 0B 0C 0D 0E 0F
      -- -- -- -- -- -- -- --  -- -- -- -- -- -- -- --
0000: 00                                                .               
```

#### Opcodes

```
  0: 0x0000 [0x00] END_REQSTACK()
```

### Event 2

#### Metadata

| Field        | Value   |
|--------------|---------|
| Entrypoint   | 0x0001  |
| Data Size    | 5 bytes |
| Instructions | 2       |

```
      00 01 02 03 04 05 06 07  08 09 0A 0B 0C 0D 0E 0F
      -- -- -- -- -- -- -- --  -- -- -- -- -- -- -- --
0000:    B6 00 00 80 00                                  .....          
```

#### Opcodes

```
  0: 0x0001 [0xB6] ENTITY_APPEARANCE_HANDLER(case=Hair style, value=326*)
  1: 0x0005 [0x00] END_REQSTACK()
```

### Event 1

#### Metadata

| Field        | Value   |
|--------------|---------|
| Entrypoint   | 0x0006  |
| Data Size    | 5 bytes |
| Instructions | 2       |

```
      00 01 02 03 04 05 06 07  08 09 0A 0B 0C 0D 0E 0F
      -- -- -- -- -- -- -- --  -- -- -- -- -- -- -- --
0000:                   B6 00  00 80 00                       .....     
```

#### Opcodes

```
  0: 0x0006 [0xB6] ENTITY_APPEARANCE_HANDLER(case=Hair style, value=326*)
  1: 0x000A [0x00] END_REQSTACK()
```

### Event 65535.1

#### Metadata

| Field        | Value   |
|--------------|---------|
| Entrypoint   | 0x000B  |
| Data Size    | 5 bytes |
| Instructions | 2       |

```
      00 01 02 03 04 05 06 07  08 09 0A 0B 0C 0D 0E 0F
      -- -- -- -- -- -- -- --  -- -- -- -- -- -- -- --
0000:                                   B6 00 01 80 00             .....
```

#### Opcodes

```
  0: 0x000B [0xB6] ENTITY_APPEARANCE_HANDLER(case=Hair style, value=2449*)
  1: 0x000F [0x00] END_REQSTACK()
```

### Event 3

#### Metadata

| Field        | Value   |
|--------------|---------|
| Entrypoint   | 0x0010  |
| Data Size    | 5 bytes |
| Instructions | 2       |

```
      00 01 02 03 04 05 06 07  08 09 0A 0B 0C 0D 0E 0F
      -- -- -- -- -- -- -- --  -- -- -- -- -- -- -- --
0010: B6 00 02 80 00                                    .....           
```

#### Opcodes

```
  0: 0x0010 [0xB6] ENTITY_APPEARANCE_HANDLER(case=Hair style, value=1483*)
  1: 0x0014 [0x00] END_REQSTACK()
```

### Event 10

#### Metadata

| Field        | Value   |
|--------------|---------|
| Entrypoint   | 0x0015  |
| Data Size    | 1 bytes |
| Instructions | 1       |

```
      00 01 02 03 04 05 06 07  08 09 0A 0B 0C 0D 0E 0F
      -- -- -- -- -- -- -- --  -- -- -- -- -- -- -- --
0010:                00                                      .          
```

#### Opcodes

```
  0: 0x0015 [0x00] END_REQSTACK()
```

### Event 65535.2

#### Metadata

| Field        | Value   |
|--------------|---------|
| Entrypoint   | 0x0016  |
| Data Size    | 5 bytes |
| Instructions | 2       |

```
      00 01 02 03 04 05 06 07  08 09 0A 0B 0C 0D 0E 0F
      -- -- -- -- -- -- -- --  -- -- -- -- -- -- -- --
0010:                   B6 00  03 80 00                       .....     
```

#### Opcodes

```
  0: 0x0016 [0xB6] ENTITY_APPEARANCE_HANDLER(case=Hair style, value=2455*)
  1: 0x001A [0x00] END_REQSTACK()
```

### Event 11

#### Metadata

| Field        | Value   |
|--------------|---------|
| Entrypoint   | 0x001B  |
| Data Size    | 5 bytes |
| Instructions | 2       |

```
      00 01 02 03 04 05 06 07  08 09 0A 0B 0C 0D 0E 0F
      -- -- -- -- -- -- -- --  -- -- -- -- -- -- -- --
0010:                                   B6 00 00 80 00             .....
```

#### Opcodes

```
  0: 0x001B [0xB6] ENTITY_APPEARANCE_HANDLER(case=Hair style, value=326*)
  1: 0x001F [0x00] END_REQSTACK()
```

### Event 12

#### Metadata

| Field        | Value   |
|--------------|---------|
| Entrypoint   | 0x0020  |
| Data Size    | 1 bytes |
| Instructions | 1       |

```
      00 01 02 03 04 05 06 07  08 09 0A 0B 0C 0D 0E 0F
      -- -- -- -- -- -- -- --  -- -- -- -- -- -- -- --
0020: 00                                                .               
```

#### Opcodes

```
  0: 0x0020 [0x00] END_REQSTACK()
```

### Event 14

#### Metadata

| Field        | Value   |
|--------------|---------|
| Entrypoint   | 0x0021  |
| Data Size    | 5 bytes |
| Instructions | 2       |

```
      00 01 02 03 04 05 06 07  08 09 0A 0B 0C 0D 0E 0F
      -- -- -- -- -- -- -- --  -- -- -- -- -- -- -- --
0020:    B6 00 04 80 00                                  .....          
```

#### Opcodes

```
  0: 0x0021 [0xB6] ENTITY_APPEARANCE_HANDLER(case=Hair style, value=2459*)
  1: 0x0025 [0x00] END_REQSTACK()
```

### Event 65535.3

#### Metadata

| Field        | Value   |
|--------------|---------|
| Entrypoint   | 0x0026  |
| Data Size    | 5 bytes |
| Instructions | 2       |

```
      00 01 02 03 04 05 06 07  08 09 0A 0B 0C 0D 0E 0F
      -- -- -- -- -- -- -- --  -- -- -- -- -- -- -- --
0020:                   B6 0F  05 80 00                       .....     
```

#### Opcodes

```
  0: 0x0026 [0xB6] ENTITY_APPEARANCE_HANDLER(case=Model size, value=87*)
  1: 0x002A [0x00] END_REQSTACK()
```

### Event 65535.4

#### Metadata

| Field        | Value   |
|--------------|---------|
| Entrypoint   | 0x002B  |
| Data Size    | 5 bytes |
| Instructions | 2       |

```
      00 01 02 03 04 05 06 07  08 09 0A 0B 0C 0D 0E 0F
      -- -- -- -- -- -- -- --  -- -- -- -- -- -- -- --
0020:                                   B6 0F 06 80 00             .....
```

#### Opcodes

```
  0: 0x002B [0xB6] ENTITY_APPEARANCE_HANDLER(case=Model size, value=93*)
  1: 0x002F [0x00] END_REQSTACK()
```

### Event 65535.5

#### Metadata

| Field        | Value   |
|--------------|---------|
| Entrypoint   | 0x0030  |
| Data Size    | 5 bytes |
| Instructions | 2       |

```
      00 01 02 03 04 05 06 07  08 09 0A 0B 0C 0D 0E 0F
      -- -- -- -- -- -- -- --  -- -- -- -- -- -- -- --
0030: B6 0F 07 80 00                                    .....           
```

#### Opcodes

```
  0: 0x0030 [0xB6] ENTITY_APPEARANCE_HANDLER(case=Model size, value=96*)
  1: 0x0034 [0x00] END_REQSTACK()
```

### Event 65535.6

#### Metadata

| Field        | Value   |
|--------------|---------|
| Entrypoint   | 0x0035  |
| Data Size    | 5 bytes |
| Instructions | 2       |

```
      00 01 02 03 04 05 06 07  08 09 0A 0B 0C 0D 0E 0F
      -- -- -- -- -- -- -- --  -- -- -- -- -- -- -- --
0030:                B6 0F 08  80 00                         .....      
```

#### Opcodes

```
  0: 0x0035 [0xB6] ENTITY_APPEARANCE_HANDLER(case=Model size, value=100*)
  1: 0x0039 [0x00] END_REQSTACK()
```

### Event 65535.7

#### Metadata

| Field        | Value   |
|--------------|---------|
| Entrypoint   | 0x003A  |
| Data Size    | 5 bytes |
| Instructions | 2       |

```
      00 01 02 03 04 05 06 07  08 09 0A 0B 0C 0D 0E 0F
      -- -- -- -- -- -- -- --  -- -- -- -- -- -- -- --
0030:                                B6 00 09 80 00               ..... 
```

#### Opcodes

```
  0: 0x003A [0xB6] ENTITY_APPEARANCE_HANDLER(case=Hair style, value=2467*)
  1: 0x003E [0x00] END_REQSTACK()
```

### Event 65535.8

#### Metadata

| Field        | Value   |
|--------------|---------|
| Entrypoint   | 0x003F  |
| Data Size    | 5 bytes |
| Instructions | 2       |

```
      00 01 02 03 04 05 06 07  08 09 0A 0B 0C 0D 0E 0F
      -- -- -- -- -- -- -- --  -- -- -- -- -- -- -- --
0030:                                               B6                 .
0040: 00 0A 80 00                                       ....            
```

#### Opcodes

```
  0: 0x003F [0xB6] ENTITY_APPEARANCE_HANDLER(case=Hair style, value=2462*)
  1: 0x0043 [0x00] END_REQSTACK()
```

### Event 65535.9

#### Metadata

| Field        | Value   |
|--------------|---------|
| Entrypoint   | 0x0044  |
| Data Size    | 5 bytes |
| Instructions | 2       |

```
      00 01 02 03 04 05 06 07  08 09 0A 0B 0C 0D 0E 0F
      -- -- -- -- -- -- -- --  -- -- -- -- -- -- -- --
0040:             B6 00 00 80  00                           .....       
```

#### Opcodes

```
  0: 0x0044 [0xB6] ENTITY_APPEARANCE_HANDLER(case=Hair style, value=326*)
  1: 0x0048 [0x00] END_REQSTACK()
```

### Event 65535.10

#### Metadata

| Field        | Value   |
|--------------|---------|
| Entrypoint   | 0x0049  |
| Data Size    | 5 bytes |
| Instructions | 2       |

```
      00 01 02 03 04 05 06 07  08 09 0A 0B 0C 0D 0E 0F
      -- -- -- -- -- -- -- --  -- -- -- -- -- -- -- --
0040:                             B6 00 0B 80 00                 .....  
```

#### Opcodes

```
  0: 0x0049 [0xB6] ENTITY_APPEARANCE_HANDLER(case=Hair style, value=2450*)
  1: 0x004D [0x00] END_REQSTACK()
```

### Event 65535.11

#### Metadata

| Field        | Value    |
|--------------|----------|
| Entrypoint   | 0x004E   |
| Data Size    | 33 bytes |
| Instructions | 3        |

```
      00 01 02 03 04 05 06 07  08 09 0A 0B 0C 0D 0E 0F
      -- -- -- -- -- -- -- --  -- -- -- -- -- -- -- --
0040:                                            5F 03                _.
0050: 0C 80 B6 50 12 01 B6 50  12 01 78 78 78 78 5F 03  ...P...P..xxxx_.
0060: 0D 80 B0 50 12 01 B0 50  12 01 78 78 78 78 00     ...P...P..xxxx. 
```

#### Opcodes

```
  0: 0x004E [0x5F] MULTI_HANDLER_COMPLEX(mode=0x03 - Load ext scheduler (OpCode 0x5B mode 0), ref=3950*, entity1=Aldo (ID: 17977526/0x011250B6), entity2=Aldo (ID: 17977526/0x011250B6), string="xxxx")
  1: 0x005E [0x5F] MULTI_HANDLER_COMPLEX(mode=0x03 - Load ext scheduler (OpCode 0x5B mode 0), ref=3933*, entity1=Tenzen (ID: 17977520/0x011250B0), entity2=Tenzen (ID: 17977520/0x011250B0), string="xxxx")
  2: 0x006E [0x00] END_REQSTACK()
```

### Event 65535.12

#### Metadata

| Field        | Value     |
|--------------|-----------|
| Entrypoint   | 0x006F    |
| Data Size    | 345 bytes |
| Instructions | 33        |

```
      00 01 02 03 04 05 06 07  08 09 0A 0B 0C 0D 0E 0F
      -- -- -- -- -- -- -- --  -- -- -- -- -- -- -- --
0060:                                               02                 .
0070: 87 7F 0E 80 80 9A 00 5F  04 0F 80 F0 FF FF 7F F0  ......._........
0080: FF FF 7F 78 78 78 78 5F  03 10 80 AC 50 12 01 AC  ...xxxx_....P...
0090: 50 12 01 78 78 78 78 01  C7 01 02 87 7F 11 80 80  P..xxxx.........
00A0: C5 00 5F 04 12 80 F0 FF  FF 7F F0 FF FF 7F 78 78  .._...........xx
00B0: 78 78 5F 03 10 80 AC 50  12 01 AC 50 12 01 78 78  xx_....P...P..xx
00C0: 78 78 01 C7 01 02 87 7F  13 80 80 F0 00 5F 04 14  xx..........._..
00D0: 80 F0 FF FF 7F F0 FF FF  7F 78 78 78 78 5F 03 10  .........xxxx_..
00E0: 80 AC 50 12 01 AC 50 12  01 78 78 78 78 01 C7 01  ..P...P..xxxx...
00F0: 02 87 7F 15 80 80 1B 01  5F 04 16 80 F0 FF FF 7F  ........_.......
0100: F0 FF FF 7F 78 78 78 78  5F 03 10 80 AC 50 12 01  ....xxxx_....P..
0110: AC 50 12 01 78 78 78 78  01 C7 01 02 87 7F 17 80  .P..xxxx........
0120: 80 46 01 5F 04 18 80 F0  FF FF 7F F0 FF FF 7F 78  .F._...........x
0130: 78 78 78 5F 03 10 80 AC  50 12 01 AC 50 12 01 78  xxx_....P...P..x
0140: 78 78 78 01 C7 01 02 87  7F 19 80 80 71 01 5F 04  xxx.........q._.
0150: 18 80 F0 FF FF 7F F0 FF  FF 7F 78 78 78 78 5F 03  ..........xxxx_.
0160: 10 80 AC 50 12 01 AC 50  12 01 78 78 78 78 01 C7  ...P...P..xxxx..
0170: 01 02 87 7F 1A 80 80 9C  01 5F 04 1B 80 F0 FF FF  ........._......
0180: 7F F0 FF FF 7F 78 78 78  78 5F 03 10 80 AC 50 12  .....xxxx_....P.
0190: 01 AC 50 12 01 78 78 78  78 01 C7 01 02 87 7F 1C  ..P..xxxx.......
01A0: 80 80 C7 01 5F 04 1D 80  F0 FF FF 7F F0 FF FF 7F  ...._...........
01B0: 78 78 78 78 5F 03 10 80  AC 50 12 01 AC 50 12 01  xxxx_....P...P..
01C0: 78 78 78 78 01 C7 01 00                           xxxx....        
```

#### Opcodes

```
  0: 0x006F [0x02] IF !(LocalPlayer->Race == 1*) GOTO 0x009A
  1: 0x0077 [0x5F] MULTI_HANDLER_COMPLEX(mode=0x04 - Load ext scheduler (OpCode 0x5B mode 1), ref=144*, entity1=LocalPlayer, entity2=LocalPlayer, string="xxxx")
  2: 0x0087 [0x5F] MULTI_HANDLER_COMPLEX(mode=0x03 - Load ext scheduler (OpCode 0x5B mode 0), ref=3878*, entity1=??? (ID: 17977516/0x011250AC), entity2=??? (ID: 17977516/0x011250AC), string="xxxx")
  3: 0x0097 [0x01] GOTO 0x01C7
  4: 0x009A [0x02] IF !(LocalPlayer->Race == 2*) GOTO 0x00C5
  5: 0x00A2 [0x5F] MULTI_HANDLER_COMPLEX(mode=0x04 - Load ext scheduler (OpCode 0x5B mode 1), ref=154*, entity1=LocalPlayer, entity2=LocalPlayer, string="xxxx")
  6: 0x00B2 [0x5F] MULTI_HANDLER_COMPLEX(mode=0x03 - Load ext scheduler (OpCode 0x5B mode 0), ref=3878*, entity1=??? (ID: 17977516/0x011250AC), entity2=??? (ID: 17977516/0x011250AC), string="xxxx")
  7: 0x00C2 [0x01] GOTO 0x01C7
  8: 0x00C5 [0x02] IF !(LocalPlayer->Race == 3*) GOTO 0x00F0
  9: 0x00CD [0x5F] MULTI_HANDLER_COMPLEX(mode=0x04 - Load ext scheduler (OpCode 0x5B mode 1), ref=164*, entity1=LocalPlayer, entity2=LocalPlayer, string="xxxx")
 10: 0x00DD [0x5F] MULTI_HANDLER_COMPLEX(mode=0x03 - Load ext scheduler (OpCode 0x5B mode 0), ref=3878*, entity1=??? (ID: 17977516/0x011250AC), entity2=??? (ID: 17977516/0x011250AC), string="xxxx")
 11: 0x00ED [0x01] GOTO 0x01C7
 12: 0x00F0 [0x02] IF !(LocalPlayer->Race == 4*) GOTO 0x011B
 13: 0x00F8 [0x5F] MULTI_HANDLER_COMPLEX(mode=0x04 - Load ext scheduler (OpCode 0x5B mode 1), ref=174*, entity1=LocalPlayer, entity2=LocalPlayer, string="xxxx")
 14: 0x0108 [0x5F] MULTI_HANDLER_COMPLEX(mode=0x03 - Load ext scheduler (OpCode 0x5B mode 0), ref=3878*, entity1=??? (ID: 17977516/0x011250AC), entity2=??? (ID: 17977516/0x011250AC), string="xxxx")
 15: 0x0118 [0x01] GOTO 0x01C7
 16: 0x011B [0x02] IF !(LocalPlayer->Race == 5*) GOTO 0x0146
 17: 0x0123 [0x5F] MULTI_HANDLER_COMPLEX(mode=0x04 - Load ext scheduler (OpCode 0x5B mode 1), ref=184*, entity1=LocalPlayer, entity2=LocalPlayer, string="xxxx")
 18: 0x0133 [0x5F] MULTI_HANDLER_COMPLEX(mode=0x03 - Load ext scheduler (OpCode 0x5B mode 0), ref=3878*, entity1=??? (ID: 17977516/0x011250AC), entity2=??? (ID: 17977516/0x011250AC), string="xxxx")
 19: 0x0143 [0x01] GOTO 0x01C7
 20: 0x0146 [0x02] IF !(LocalPlayer->Race == 6*) GOTO 0x0171
 21: 0x014E [0x5F] MULTI_HANDLER_COMPLEX(mode=0x04 - Load ext scheduler (OpCode 0x5B mode 1), ref=184*, entity1=LocalPlayer, entity2=LocalPlayer, string="xxxx")
 22: 0x015E [0x5F] MULTI_HANDLER_COMPLEX(mode=0x03 - Load ext scheduler (OpCode 0x5B mode 0), ref=3878*, entity1=??? (ID: 17977516/0x011250AC), entity2=??? (ID: 17977516/0x011250AC), string="xxxx")
 23: 0x016E [0x01] GOTO 0x01C7
 24: 0x0171 [0x02] IF !(LocalPlayer->Race == 7*) GOTO 0x019C
 25: 0x0179 [0x5F] MULTI_HANDLER_COMPLEX(mode=0x04 - Load ext scheduler (OpCode 0x5B mode 1), ref=194*, entity1=LocalPlayer, entity2=LocalPlayer, string="xxxx")
 26: 0x0189 [0x5F] MULTI_HANDLER_COMPLEX(mode=0x03 - Load ext scheduler (OpCode 0x5B mode 0), ref=3878*, entity1=??? (ID: 17977516/0x011250AC), entity2=??? (ID: 17977516/0x011250AC), string="xxxx")
 27: 0x0199 [0x01] GOTO 0x01C7
 28: 0x019C [0x02] IF !(LocalPlayer->Race == 8*) GOTO 0x01C7
 29: 0x01A4 [0x5F] MULTI_HANDLER_COMPLEX(mode=0x04 - Load ext scheduler (OpCode 0x5B mode 1), ref=204*, entity1=LocalPlayer, entity2=LocalPlayer, string="xxxx")
 30: 0x01B4 [0x5F] MULTI_HANDLER_COMPLEX(mode=0x03 - Load ext scheduler (OpCode 0x5B mode 0), ref=3878*, entity1=??? (ID: 17977516/0x011250AC), entity2=??? (ID: 17977516/0x011250AC), string="xxxx")
 31: 0x01C4 [0x01] GOTO 0x01C7

SUBROUTINE_01C7:
 32: 0x01C7 [0x00] END_REQSTACK()
```

### Event 65535.13

#### Metadata

| Field        | Value    |
|--------------|----------|
| Entrypoint   | 0x01C8   |
| Data Size    | 65 bytes |
| Instructions | 5        |

```
      00 01 02 03 04 05 06 07  08 09 0A 0B 0C 0D 0E 0F
      -- -- -- -- -- -- -- --  -- -- -- -- -- -- -- --
01C0:                          5F 03 1E 80 AB 50 12 01          _....P..
01D0: AB 50 12 01 78 78 78 78  5F 03 1F 80 B5 50 12 01  .P..xxxx_....P..
01E0: B5 50 12 01 78 78 78 78  5F 03 20 80 B4 50 12 01  .P..xxxx_. ..P..
01F0: B4 50 12 01 78 78 78 78  5F 03 21 80 B7 50 12 01  .P..xxxx_.!..P..
0200: B7 50 12 01 78 78 78 78  00                       .P..xxxx.       
```

#### Opcodes

```
  0: 0x01C8 [0x5F] MULTI_HANDLER_COMPLEX(mode=0x03 - Load ext scheduler (OpCode 0x5B mode 0), ref=3441*, entity1=Unnamed NPC (ID: 17977515/0x011250AB), entity2=Unnamed NPC (ID: 17977515/0x011250AB), string="xxxx")
  1: 0x01D8 [0x5F] MULTI_HANDLER_COMPLEX(mode=0x03 - Load ext scheduler (OpCode 0x5B mode 0), ref=3836*, entity1=Arciela (ID: 17977525/0x011250B5), entity2=Arciela (ID: 17977525/0x011250B5), string="xxxx")
  2: 0x01E8 [0x5F] MULTI_HANDLER_COMPLEX(mode=0x03 - Load ext scheduler (OpCode 0x5B mode 0), ref=3901*, entity1=Lilisette (ID: 17977524/0x011250B4), entity2=Lilisette (ID: 17977524/0x011250B4), string="xxxx")
  3: 0x01F8 [0x5F] MULTI_HANDLER_COMPLEX(mode=0x03 - Load ext scheduler (OpCode 0x5B mode 0), ref=3942*, entity1=Gilgamesh (ID: 17977527/0x011250B7), entity2=Gilgamesh (ID: 17977527/0x011250B7), string="xxxx")
  4: 0x0208 [0x00] END_REQSTACK()
```

### Event 65535.14

#### Metadata

| Field        | Value    |
|--------------|----------|
| Entrypoint   | 0x0209   |
| Data Size    | 33 bytes |
| Instructions | 3        |

```
      00 01 02 03 04 05 06 07  08 09 0A 0B 0C 0D 0E 0F
      -- -- -- -- -- -- -- --  -- -- -- -- -- -- -- --
0200:                             5F 03 22 80 B3 50 12           _."..P.
0210: 01 B3 50 12 01 78 78 78  78 5F 03 23 80 B0 50 12  ..P..xxxx_.#..P.
0220: 01 B0 50 12 01 78 78 78  78 00                    ..P..xxxx.      
```

#### Opcodes

```
  0: 0x0209 [0x5F] MULTI_HANDLER_COMPLEX(mode=0x03 - Load ext scheduler (OpCode 0x5B mode 0), ref=1229*, entity1=Nashmeira (ID: 17977523/0x011250B3), entity2=Nashmeira (ID: 17977523/0x011250B3), string="xxxx")
  1: 0x0219 [0x5F] MULTI_HANDLER_COMPLEX(mode=0x03 - Load ext scheduler (OpCode 0x5B mode 0), ref=3935*, entity1=Tenzen (ID: 17977520/0x011250B0), entity2=Tenzen (ID: 17977520/0x011250B0), string="xxxx")
  2: 0x0229 [0x00] END_REQSTACK()
```

### Event 65535.15

#### Metadata

| Field        | Value    |
|--------------|----------|
| Entrypoint   | 0x022A   |
| Data Size    | 33 bytes |
| Instructions | 3        |

```
      00 01 02 03 04 05 06 07  08 09 0A 0B 0C 0D 0E 0F
      -- -- -- -- -- -- -- --  -- -- -- -- -- -- -- --
0220:                                5F 03 21 80 B7 50            _.!..P
0230: 12 01 B7 50 12 01 78 78  78 78 5F 03 24 80 B5 50  ...P..xxxx_.$..P
0240: 12 01 B5 50 12 01 78 78  78 78 00                 ...P..xxxx.     
```

#### Opcodes

```
  0: 0x022A [0x5F] MULTI_HANDLER_COMPLEX(mode=0x03 - Load ext scheduler (OpCode 0x5B mode 0), ref=3942*, entity1=Gilgamesh (ID: 17977527/0x011250B7), entity2=Gilgamesh (ID: 17977527/0x011250B7), string="xxxx")
  1: 0x023A [0x5F] MULTI_HANDLER_COMPLEX(mode=0x03 - Load ext scheduler (OpCode 0x5B mode 0), ref=3837*, entity1=Arciela (ID: 17977525/0x011250B5), entity2=Arciela (ID: 17977525/0x011250B5), string="xxxx")
  2: 0x024A [0x00] END_REQSTACK()
```

### Event 65535.16

#### Metadata

| Field        | Value    |
|--------------|----------|
| Entrypoint   | 0x024B   |
| Data Size    | 33 bytes |
| Instructions | 3        |

```
      00 01 02 03 04 05 06 07  08 09 0A 0B 0C 0D 0E 0F
      -- -- -- -- -- -- -- --  -- -- -- -- -- -- -- --
0240:                                   5F 03 21 80 B7             _.!..
0250: 50 12 01 B7 50 12 01 78  78 78 78 5F 03 25 80 B4  P...P..xxxx_.%..
0260: 50 12 01 B4 50 12 01 78  78 78 78 00              P...P..xxxx.    
```

#### Opcodes

```
  0: 0x024B [0x5F] MULTI_HANDLER_COMPLEX(mode=0x03 - Load ext scheduler (OpCode 0x5B mode 0), ref=3942*, entity1=Gilgamesh (ID: 17977527/0x011250B7), entity2=Gilgamesh (ID: 17977527/0x011250B7), string="xxxx")
  1: 0x025B [0x5F] MULTI_HANDLER_COMPLEX(mode=0x03 - Load ext scheduler (OpCode 0x5B mode 0), ref=3902*, entity1=Lilisette (ID: 17977524/0x011250B4), entity2=Lilisette (ID: 17977524/0x011250B4), string="xxxx")
  2: 0x026B [0x00] END_REQSTACK()
```

### Event 65535.17

#### Metadata

| Field        | Value    |
|--------------|----------|
| Entrypoint   | 0x026C   |
| Data Size    | 33 bytes |
| Instructions | 3        |

```
      00 01 02 03 04 05 06 07  08 09 0A 0B 0C 0D 0E 0F
      -- -- -- -- -- -- -- --  -- -- -- -- -- -- -- --
0260:                                      5F 03 25 80              _.%.
0270: B4 50 12 01 B4 50 12 01  78 78 78 78 5F 03 26 80  .P...P..xxxx_.&.
0280: B2 50 12 01 B2 50 12 01  78 78 78 78 00           .P...P..xxxx.   
```

#### Opcodes

```
  0: 0x026C [0x5F] MULTI_HANDLER_COMPLEX(mode=0x03 - Load ext scheduler (OpCode 0x5B mode 0), ref=3902*, entity1=Lilisette (ID: 17977524/0x011250B4), entity2=Lilisette (ID: 17977524/0x011250B4), string="xxxx")
  1: 0x027C [0x5F] MULTI_HANDLER_COMPLEX(mode=0x03 - Load ext scheduler (OpCode 0x5B mode 0), ref=3795*, entity1=Prishe (ID: 17977522/0x011250B2), entity2=Prishe (ID: 17977522/0x011250B2), string="xxxx")
  2: 0x028C [0x00] END_REQSTACK()
```

### Event 65535.18

#### Metadata

| Field        | Value    |
|--------------|----------|
| Entrypoint   | 0x028D   |
| Data Size    | 81 bytes |
| Instructions | 6        |

```
      00 01 02 03 04 05 06 07  08 09 0A 0B 0C 0D 0E 0F
      -- -- -- -- -- -- -- --  -- -- -- -- -- -- -- --
0280:                                         5F 03 1E               _..
0290: 80 AB 50 12 01 AB 50 12  01 78 78 78 78 5F 03 27  ..P...P..xxxx_.'
02A0: 80 B4 50 12 01 B4 50 12  01 78 78 78 78 5F 03 21  ..P...P..xxxx_.!
02B0: 80 B7 50 12 01 B7 50 12  01 78 78 78 78 5F 03 28  ..P...P..xxxx_.(
02C0: 80 B2 50 12 01 B2 50 12  01 78 78 78 78 5F 03 21  ..P...P..xxxx_.!
02D0: 80 AD 50 12 01 AD 50 12  01 78 78 78 78 00        ..P...P..xxxx.  
```

#### Opcodes

```
  0: 0x028D [0x5F] MULTI_HANDLER_COMPLEX(mode=0x03 - Load ext scheduler (OpCode 0x5B mode 0), ref=3441*, entity1=Unnamed NPC (ID: 17977515/0x011250AB), entity2=Unnamed NPC (ID: 17977515/0x011250AB), string="xxxx")
  1: 0x029D [0x5F] MULTI_HANDLER_COMPLEX(mode=0x03 - Load ext scheduler (OpCode 0x5B mode 0), ref=3967*, entity1=Lilisette (ID: 17977524/0x011250B4), entity2=Lilisette (ID: 17977524/0x011250B4), string="xxxx")
  2: 0x02AD [0x5F] MULTI_HANDLER_COMPLEX(mode=0x03 - Load ext scheduler (OpCode 0x5B mode 0), ref=3942*, entity1=Gilgamesh (ID: 17977527/0x011250B7), entity2=Gilgamesh (ID: 17977527/0x011250B7), string="xxxx")
  3: 0x02BD [0x5F] MULTI_HANDLER_COMPLEX(mode=0x03 - Load ext scheduler (OpCode 0x5B mode 0), ref=3797*, entity1=Prishe (ID: 17977522/0x011250B2), entity2=Prishe (ID: 17977522/0x011250B2), string="xxxx")
  4: 0x02CD [0x5F] MULTI_HANDLER_COMPLEX(mode=0x03 - Load ext scheduler (OpCode 0x5B mode 0), ref=3942*, entity1=Iroha (ID: 17977517/0x011250AD), entity2=Iroha (ID: 17977517/0x011250AD), string="xxxx")
  5: 0x02DD [0x00] END_REQSTACK()
```

### Event 65535.19

#### Metadata

| Field        | Value    |
|--------------|----------|
| Entrypoint   | 0x02DE   |
| Data Size    | 81 bytes |
| Instructions | 6        |

```
      00 01 02 03 04 05 06 07  08 09 0A 0B 0C 0D 0E 0F
      -- -- -- -- -- -- -- --  -- -- -- -- -- -- -- --
02D0:                                            5F 03                _.
02E0: 1E 80 AB 50 12 01 AB 50  12 01 78 78 78 78 5F 03  ...P...P..xxxx_.
02F0: 29 80 B4 50 12 01 B4 50  12 01 78 78 78 78 5F 03  )..P...P..xxxx_.
0300: 2A 80 B6 50 12 01 B6 50  12 01 78 78 78 78 5F 03  *..P...P..xxxx_.
0310: 28 80 B2 50 12 01 B2 50  12 01 78 78 78 78 5F 03  (..P...P..xxxx_.
0320: 21 80 B7 50 12 01 B7 50  12 01 78 78 78 78 00     !..P...P..xxxx. 
```

#### Opcodes

```
  0: 0x02DE [0x5F] MULTI_HANDLER_COMPLEX(mode=0x03 - Load ext scheduler (OpCode 0x5B mode 0), ref=3441*, entity1=Unnamed NPC (ID: 17977515/0x011250AB), entity2=Unnamed NPC (ID: 17977515/0x011250AB), string="xxxx")
  1: 0x02EE [0x5F] MULTI_HANDLER_COMPLEX(mode=0x03 - Load ext scheduler (OpCode 0x5B mode 0), ref=3965*, entity1=Lilisette (ID: 17977524/0x011250B4), entity2=Lilisette (ID: 17977524/0x011250B4), string="xxxx")
  2: 0x02FE [0x5F] MULTI_HANDLER_COMPLEX(mode=0x03 - Load ext scheduler (OpCode 0x5B mode 0), ref=3952*, entity1=Aldo (ID: 17977526/0x011250B6), entity2=Aldo (ID: 17977526/0x011250B6), string="xxxx")
  3: 0x030E [0x5F] MULTI_HANDLER_COMPLEX(mode=0x03 - Load ext scheduler (OpCode 0x5B mode 0), ref=3797*, entity1=Prishe (ID: 17977522/0x011250B2), entity2=Prishe (ID: 17977522/0x011250B2), string="xxxx")
  4: 0x031E [0x5F] MULTI_HANDLER_COMPLEX(mode=0x03 - Load ext scheduler (OpCode 0x5B mode 0), ref=3942*, entity1=Gilgamesh (ID: 17977527/0x011250B7), entity2=Gilgamesh (ID: 17977527/0x011250B7), string="xxxx")
  5: 0x032E [0x00] END_REQSTACK()
```

### Event 65535.20

#### Metadata

| Field        | Value    |
|--------------|----------|
| Entrypoint   | 0x032F   |
| Data Size    | 65 bytes |
| Instructions | 5        |

```
      00 01 02 03 04 05 06 07  08 09 0A 0B 0C 0D 0E 0F
      -- -- -- -- -- -- -- --  -- -- -- -- -- -- -- --
0320:                                               5F                 _
0330: 03 1E 80 AB 50 12 01 AB  50 12 01 78 78 78 78 5F  ....P...P..xxxx_
0340: 03 2B 80 B2 50 12 01 B2  50 12 01 78 78 78 78 5F  .+..P...P..xxxx_
0350: 03 2C 80 B4 50 12 01 B4  50 12 01 78 78 78 78 5F  .,..P...P..xxxx_
0360: 03 2A 80 B6 50 12 01 B6  50 12 01 78 78 78 78 00  .*..P...P..xxxx.
```

#### Opcodes

```
  0: 0x032F [0x5F] MULTI_HANDLER_COMPLEX(mode=0x03 - Load ext scheduler (OpCode 0x5B mode 0), ref=3441*, entity1=Unnamed NPC (ID: 17977515/0x011250AB), entity2=Unnamed NPC (ID: 17977515/0x011250AB), string="xxxx")
  1: 0x033F [0x5F] MULTI_HANDLER_COMPLEX(mode=0x03 - Load ext scheduler (OpCode 0x5B mode 0), ref=3796*, entity1=Prishe (ID: 17977522/0x011250B2), entity2=Prishe (ID: 17977522/0x011250B2), string="xxxx")
  2: 0x034F [0x5F] MULTI_HANDLER_COMPLEX(mode=0x03 - Load ext scheduler (OpCode 0x5B mode 0), ref=3966*, entity1=Lilisette (ID: 17977524/0x011250B4), entity2=Lilisette (ID: 17977524/0x011250B4), string="xxxx")
  3: 0x035F [0x5F] MULTI_HANDLER_COMPLEX(mode=0x03 - Load ext scheduler (OpCode 0x5B mode 0), ref=3952*, entity1=Aldo (ID: 17977526/0x011250B6), entity2=Aldo (ID: 17977526/0x011250B6), string="xxxx")
  4: 0x036F [0x00] END_REQSTACK()
```

### Event 65535.21

#### Metadata

| Field        | Value    |
|--------------|----------|
| Entrypoint   | 0x0370   |
| Data Size    | 49 bytes |
| Instructions | 4        |

```
      00 01 02 03 04 05 06 07  08 09 0A 0B 0C 0D 0E 0F
      -- -- -- -- -- -- -- --  -- -- -- -- -- -- -- --
0370: 5F 03 2D 80 AB 50 12 01  AB 50 12 01 78 78 78 78  _.-..P...P..xxxx
0380: 5F 03 2E 80 B1 50 12 01  B1 50 12 01 78 78 78 78  _....P...P..xxxx
0390: 5F 03 21 80 B7 50 12 01  B7 50 12 01 78 78 78 78  _.!..P...P..xxxx
03A0: 00                                                .               
```

#### Opcodes

```
  0: 0x0370 [0x5F] MULTI_HANDLER_COMPLEX(mode=0x03 - Load ext scheduler (OpCode 0x5B mode 0), ref=3442*, entity1=Unnamed NPC (ID: 17977515/0x011250AB), entity2=Unnamed NPC (ID: 17977515/0x011250AB), string="xxxx")
  1: 0x0380 [0x5F] MULTI_HANDLER_COMPLEX(mode=0x03 - Load ext scheduler (OpCode 0x5B mode 0), ref=3925*, entity1=Lion (ID: 17977521/0x011250B1), entity2=Lion (ID: 17977521/0x011250B1), string="xxxx")
  2: 0x0390 [0x5F] MULTI_HANDLER_COMPLEX(mode=0x03 - Load ext scheduler (OpCode 0x5B mode 0), ref=3942*, entity1=Gilgamesh (ID: 17977527/0x011250B7), entity2=Gilgamesh (ID: 17977527/0x011250B7), string="xxxx")
  3: 0x03A0 [0x00] END_REQSTACK()
```

### Event 65535.22

#### Metadata

| Field        | Value    |
|--------------|----------|
| Entrypoint   | 0x03A1   |
| Data Size    | 99 bytes |
| Instructions | 7        |

```
      00 01 02 03 04 05 06 07  08 09 0A 0B 0C 0D 0E 0F
      -- -- -- -- -- -- -- --  -- -- -- -- -- -- -- --
03A0:    5F 03 2D 80 AB 50 12  01 AB 50 12 01 78 78 78   _.-..P...P..xxx
03B0: 78 5F 03 2F 80 B1 50 12  01 B1 50 12 01 78 78 78  x_./..P...P..xxx
03C0: 78 5F 03 21 80 B7 50 12  01 B7 50 12 01 78 78 78  x_.!..P...P..xxx
03D0: 78 5F 03 30 80 B6 50 12  01 B6 50 12 01 78 78 78  x_.0..P...P..xxx
03E0: 78 D0 31 80 B1 50 12 01  B1 50 12 01 78 78 78 78  x.1..P...P..xxxx
03F0: 32 80 D0 33 80 B6 50 12  01 B6 50 12 01 78 78 78  2..3..P...P..xxx
0400: 78 32 80 00                                       x2..            
```

#### Opcodes

```
  0: 0x03A1 [0x5F] MULTI_HANDLER_COMPLEX(mode=0x03 - Load ext scheduler (OpCode 0x5B mode 0), ref=3442*, entity1=Unnamed NPC (ID: 17977515/0x011250AB), entity2=Unnamed NPC (ID: 17977515/0x011250AB), string="xxxx")
  1: 0x03B1 [0x5F] MULTI_HANDLER_COMPLEX(mode=0x03 - Load ext scheduler (OpCode 0x5B mode 0), ref=3926*, entity1=Lion (ID: 17977521/0x011250B1), entity2=Lion (ID: 17977521/0x011250B1), string="xxxx")
  2: 0x03C1 [0x5F] MULTI_HANDLER_COMPLEX(mode=0x03 - Load ext scheduler (OpCode 0x5B mode 0), ref=3942*, entity1=Gilgamesh (ID: 17977527/0x011250B7), entity2=Gilgamesh (ID: 17977527/0x011250B7), string="xxxx")
  3: 0x03D1 [0x5F] MULTI_HANDLER_COMPLEX(mode=0x03 - Load ext scheduler (OpCode 0x5B mode 0), ref=3953*, entity1=Aldo (ID: 17977526/0x011250B6), entity2=Aldo (ID: 17977526/0x011250B6), string="xxxx")
  4: 0x03E1 [0xD0] LOAD_SCHEDULED_TASK_ALT5: Load scheduler "xxxx" with entities [Lion (ID: 17977521/0x011250B1), Lion (ID: 17977521/0x011250B1)], work=[224*, 0*]
  5: 0x03F2 [0xD0] LOAD_SCHEDULED_TASK_ALT5: Load scheduler "xxxx" with entities [Aldo (ID: 17977526/0x011250B6), Aldo (ID: 17977526/0x011250B6)], work=[222*, 0*]
  6: 0x0403 [0x00] END_REQSTACK()
```

### Event 65535.23

#### Metadata

| Field        | Value    |
|--------------|----------|
| Entrypoint   | 0x0404   |
| Data Size    | 49 bytes |
| Instructions | 4        |

```
      00 01 02 03 04 05 06 07  08 09 0A 0B 0C 0D 0E 0F
      -- -- -- -- -- -- -- --  -- -- -- -- -- -- -- --
0400:             5F 03 2D 80  AB 50 12 01 AB 50 12 01      _.-..P...P..
0410: 78 78 78 78 5F 03 2E 80  B1 50 12 01 B1 50 12 01  xxxx_....P...P..
0420: 78 78 78 78 5F 03 34 80  B6 50 12 01 B6 50 12 01  xxxx_.4..P...P..
0430: 78 78 78 78 00                                    xxxx.           
```

#### Opcodes

```
  0: 0x0404 [0x5F] MULTI_HANDLER_COMPLEX(mode=0x03 - Load ext scheduler (OpCode 0x5B mode 0), ref=3442*, entity1=Unnamed NPC (ID: 17977515/0x011250AB), entity2=Unnamed NPC (ID: 17977515/0x011250AB), string="xxxx")
  1: 0x0414 [0x5F] MULTI_HANDLER_COMPLEX(mode=0x03 - Load ext scheduler (OpCode 0x5B mode 0), ref=3925*, entity1=Lion (ID: 17977521/0x011250B1), entity2=Lion (ID: 17977521/0x011250B1), string="xxxx")
  2: 0x0424 [0x5F] MULTI_HANDLER_COMPLEX(mode=0x03 - Load ext scheduler (OpCode 0x5B mode 0), ref=3954*, entity1=Aldo (ID: 17977526/0x011250B6), entity2=Aldo (ID: 17977526/0x011250B6), string="xxxx")
  3: 0x0434 [0x00] END_REQSTACK()
```

### Event 65535.24

#### Metadata

| Field        | Value    |
|--------------|----------|
| Entrypoint   | 0x0435   |
| Data Size    | 49 bytes |
| Instructions | 4        |

```
      00 01 02 03 04 05 06 07  08 09 0A 0B 0C 0D 0E 0F
      -- -- -- -- -- -- -- --  -- -- -- -- -- -- -- --
0430:                5F 03 2D  80 AB 50 12 01 AB 50 12       _.-..P...P.
0440: 01 78 78 78 78 5F 03 35  80 B1 50 12 01 B1 50 12  .xxxx_.5..P...P.
0450: 01 78 78 78 78 5F 03 21  80 B7 50 12 01 B7 50 12  .xxxx_.!..P...P.
0460: 01 78 78 78 78 00                                 .xxxx.          
```

#### Opcodes

```
  0: 0x0435 [0x5F] MULTI_HANDLER_COMPLEX(mode=0x03 - Load ext scheduler (OpCode 0x5B mode 0), ref=3442*, entity1=Unnamed NPC (ID: 17977515/0x011250AB), entity2=Unnamed NPC (ID: 17977515/0x011250AB), string="xxxx")
  1: 0x0445 [0x5F] MULTI_HANDLER_COMPLEX(mode=0x03 - Load ext scheduler (OpCode 0x5B mode 0), ref=3927*, entity1=Lion (ID: 17977521/0x011250B1), entity2=Lion (ID: 17977521/0x011250B1), string="xxxx")
  2: 0x0455 [0x5F] MULTI_HANDLER_COMPLEX(mode=0x03 - Load ext scheduler (OpCode 0x5B mode 0), ref=3942*, entity1=Gilgamesh (ID: 17977527/0x011250B7), entity2=Gilgamesh (ID: 17977527/0x011250B7), string="xxxx")
  3: 0x0465 [0x00] END_REQSTACK()
```

### Event 65535.25

#### Metadata

| Field        | Value    |
|--------------|----------|
| Entrypoint   | 0x0466   |
| Data Size    | 50 bytes |
| Instructions | 4        |

```
      00 01 02 03 04 05 06 07  08 09 0A 0B 0C 0D 0E 0F
      -- -- -- -- -- -- -- --  -- -- -- -- -- -- -- --
0460:                   5F 03  2D 80 AB 50 12 01 AB 50        _.-..P...P
0470: 12 01 78 78 78 78 5F 03  36 80 B0 50 12 01 B0 50  ..xxxx_.6..P...P
0480: 12 01 78 78 78 78 D0 37  80 B0 50 12 01 B0 50 12  ..xxxx.7..P...P.
0490: 01 78 78 78 78 32 80 00                           .xxxx2..        
```

#### Opcodes

```
  0: 0x0466 [0x5F] MULTI_HANDLER_COMPLEX(mode=0x03 - Load ext scheduler (OpCode 0x5B mode 0), ref=3442*, entity1=Unnamed NPC (ID: 17977515/0x011250AB), entity2=Unnamed NPC (ID: 17977515/0x011250AB), string="xxxx")
  1: 0x0476 [0x5F] MULTI_HANDLER_COMPLEX(mode=0x03 - Load ext scheduler (OpCode 0x5B mode 0), ref=3937*, entity1=Tenzen (ID: 17977520/0x011250B0), entity2=Tenzen (ID: 17977520/0x011250B0), string="xxxx")
  2: 0x0486 [0xD0] LOAD_SCHEDULED_TASK_ALT5: Load scheduler "xxxx" with entities [Tenzen (ID: 17977520/0x011250B0), Tenzen (ID: 17977520/0x011250B0)], work=[225*, 0*]
  3: 0x0497 [0x00] END_REQSTACK()
```

### Event 65535.26

#### Metadata

| Field        | Value    |
|--------------|----------|
| Entrypoint   | 0x0498   |
| Data Size    | 49 bytes |
| Instructions | 4        |

```
      00 01 02 03 04 05 06 07  08 09 0A 0B 0C 0D 0E 0F
      -- -- -- -- -- -- -- --  -- -- -- -- -- -- -- --
0490:                          5F 03 38 80 B4 50 12 01          _.8..P..
04A0: B4 50 12 01 78 78 78 78  5F 03 35 80 B1 50 12 01  .P..xxxx_.5..P..
04B0: B1 50 12 01 78 78 78 78  5F 03 39 80 AD 50 12 01  .P..xxxx_.9..P..
04C0: AD 50 12 01 78 78 78 78  00                       .P..xxxx.       
```

#### Opcodes

```
  0: 0x0498 [0x5F] MULTI_HANDLER_COMPLEX(mode=0x03 - Load ext scheduler (OpCode 0x5B mode 0), ref=3968*, entity1=Lilisette (ID: 17977524/0x011250B4), entity2=Lilisette (ID: 17977524/0x011250B4), string="xxxx")
  1: 0x04A8 [0x5F] MULTI_HANDLER_COMPLEX(mode=0x03 - Load ext scheduler (OpCode 0x5B mode 0), ref=3927*, entity1=Lion (ID: 17977521/0x011250B1), entity2=Lion (ID: 17977521/0x011250B1), string="xxxx")
  2: 0x04B8 [0x5F] MULTI_HANDLER_COMPLEX(mode=0x03 - Load ext scheduler (OpCode 0x5B mode 0), ref=3957*, entity1=Iroha (ID: 17977517/0x011250AD), entity2=Iroha (ID: 17977517/0x011250AD), string="xxxx")
  3: 0x04C8 [0x00] END_REQSTACK()
```

### Event 65535.27

#### Metadata

| Field        | Value    |
|--------------|----------|
| Entrypoint   | 0x04C9   |
| Data Size    | 65 bytes |
| Instructions | 5        |

```
      00 01 02 03 04 05 06 07  08 09 0A 0B 0C 0D 0E 0F
      -- -- -- -- -- -- -- --  -- -- -- -- -- -- -- --
04C0:                             5F 03 2D 80 AB 50 12           _.-..P.
04D0: 01 AB 50 12 01 78 78 78  78 5F 03 35 80 B1 50 12  ..P..xxxx_.5..P.
04E0: 01 B1 50 12 01 78 78 78  78 5F 03 3A 80 B6 50 12  ..P..xxxx_.:..P.
04F0: 01 B6 50 12 01 78 78 78  78 5F 03 39 80 AD 50 12  ..P..xxxx_.9..P.
0500: 01 AD 50 12 01 78 78 78  78 00                    ..P..xxxx.      
```

#### Opcodes

```
  0: 0x04C9 [0x5F] MULTI_HANDLER_COMPLEX(mode=0x03 - Load ext scheduler (OpCode 0x5B mode 0), ref=3442*, entity1=Unnamed NPC (ID: 17977515/0x011250AB), entity2=Unnamed NPC (ID: 17977515/0x011250AB), string="xxxx")
  1: 0x04D9 [0x5F] MULTI_HANDLER_COMPLEX(mode=0x03 - Load ext scheduler (OpCode 0x5B mode 0), ref=3927*, entity1=Lion (ID: 17977521/0x011250B1), entity2=Lion (ID: 17977521/0x011250B1), string="xxxx")
  2: 0x04E9 [0x5F] MULTI_HANDLER_COMPLEX(mode=0x03 - Load ext scheduler (OpCode 0x5B mode 0), ref=3955*, entity1=Aldo (ID: 17977526/0x011250B6), entity2=Aldo (ID: 17977526/0x011250B6), string="xxxx")
  3: 0x04F9 [0x5F] MULTI_HANDLER_COMPLEX(mode=0x03 - Load ext scheduler (OpCode 0x5B mode 0), ref=3957*, entity1=Iroha (ID: 17977517/0x011250AD), entity2=Iroha (ID: 17977517/0x011250AD), string="xxxx")
  4: 0x0509 [0x00] END_REQSTACK()
```

### Event 65535.28

#### Metadata

| Field        | Value    |
|--------------|----------|
| Entrypoint   | 0x050A   |
| Data Size    | 49 bytes |
| Instructions | 4        |

```
      00 01 02 03 04 05 06 07  08 09 0A 0B 0C 0D 0E 0F
      -- -- -- -- -- -- -- --  -- -- -- -- -- -- -- --
0500:                                5F 03 2D 80 AB 50            _.-..P
0510: 12 01 AB 50 12 01 78 78  78 78 5F 03 3B 80 B4 50  ...P..xxxx_.;..P
0520: 12 01 B4 50 12 01 78 78  78 78 5F 03 3C 80 B6 50  ...P..xxxx_.<..P
0530: 12 01 B6 50 12 01 78 78  78 78 00                 ...P..xxxx.     
```

#### Opcodes

```
  0: 0x050A [0x5F] MULTI_HANDLER_COMPLEX(mode=0x03 - Load ext scheduler (OpCode 0x5B mode 0), ref=3442*, entity1=Unnamed NPC (ID: 17977515/0x011250AB), entity2=Unnamed NPC (ID: 17977515/0x011250AB), string="xxxx")
  1: 0x051A [0x5F] MULTI_HANDLER_COMPLEX(mode=0x03 - Load ext scheduler (OpCode 0x5B mode 0), ref=3969*, entity1=Lilisette (ID: 17977524/0x011250B4), entity2=Lilisette (ID: 17977524/0x011250B4), string="xxxx")
  2: 0x052A [0x5F] MULTI_HANDLER_COMPLEX(mode=0x03 - Load ext scheduler (OpCode 0x5B mode 0), ref=3956*, entity1=Aldo (ID: 17977526/0x011250B6), entity2=Aldo (ID: 17977526/0x011250B6), string="xxxx")
  3: 0x053A [0x00] END_REQSTACK()
```

### Event 65535.29

#### Metadata

| Field        | Value    |
|--------------|----------|
| Entrypoint   | 0x053B   |
| Data Size    | 33 bytes |
| Instructions | 3        |

```
      00 01 02 03 04 05 06 07  08 09 0A 0B 0C 0D 0E 0F
      -- -- -- -- -- -- -- --  -- -- -- -- -- -- -- --
0530:                                   5F 03 3D 80 AB             _.=..
0540: 50 12 01 AB 50 12 01 78  78 78 78 5F 03 3E 80 B2  P...P..xxxx_.>..
0550: 50 12 01 B2 50 12 01 78  78 78 78 00              P...P..xxxx.    
```

#### Opcodes

```
  0: 0x053B [0x5F] MULTI_HANDLER_COMPLEX(mode=0x03 - Load ext scheduler (OpCode 0x5B mode 0), ref=3444*, entity1=Unnamed NPC (ID: 17977515/0x011250AB), entity2=Unnamed NPC (ID: 17977515/0x011250AB), string="xxxx")
  1: 0x054B [0x5F] MULTI_HANDLER_COMPLEX(mode=0x03 - Load ext scheduler (OpCode 0x5B mode 0), ref=3975*, entity1=Prishe (ID: 17977522/0x011250B2), entity2=Prishe (ID: 17977522/0x011250B2), string="xxxx")
  2: 0x055B [0x00] END_REQSTACK()
```

### Event 65535.30

#### Metadata

| Field        | Value     |
|--------------|-----------|
| Entrypoint   | 0x055C    |
| Data Size    | 345 bytes |
| Instructions | 33        |

```
      00 01 02 03 04 05 06 07  08 09 0A 0B 0C 0D 0E 0F
      -- -- -- -- -- -- -- --  -- -- -- -- -- -- -- --
0550:                                      02 87 7F 0E              ....
0560: 80 80 87 05 5F 04 3F 80  F0 FF FF 7F F0 FF FF 7F  ...._.?.........
0570: 78 78 78 78 5F 03 40 80  AC 50 12 01 AC 50 12 01  xxxx_.@..P...P..
0580: 78 78 78 78 01 B4 06 02  87 7F 11 80 80 B2 05 5F  xxxx..........._
0590: 04 31 80 F0 FF FF 7F F0  FF FF 7F 78 78 78 78 5F  .1.........xxxx_
05A0: 03 40 80 AC 50 12 01 AC  50 12 01 78 78 78 78 01  .@..P...P..xxxx.
05B0: B4 06 02 87 7F 13 80 80  DD 05 5F 04 41 80 F0 FF  .........._.A...
05C0: FF 7F F0 FF FF 7F 78 78  78 78 5F 03 40 80 AC 50  ......xxxx_.@..P
05D0: 12 01 AC 50 12 01 78 78  78 78 01 B4 06 02 87 7F  ...P..xxxx......
05E0: 15 80 80 08 06 5F 04 42  80 F0 FF FF 7F F0 FF FF  ....._.B........
05F0: 7F 78 78 78 78 5F 03 40  80 AC 50 12 01 AC 50 12  .xxxx_.@..P...P.
0600: 01 78 78 78 78 01 B4 06  02 87 7F 17 80 80 33 06  .xxxx.........3.
0610: 5F 04 43 80 F0 FF FF 7F  F0 FF FF 7F 78 78 78 78  _.C.........xxxx
0620: 5F 03 40 80 AC 50 12 01  AC 50 12 01 78 78 78 78  _.@..P...P..xxxx
0630: 01 B4 06 02 87 7F 19 80  80 5E 06 5F 04 43 80 F0  .........^._.C..
0640: FF FF 7F F0 FF FF 7F 78  78 78 78 5F 03 40 80 AC  .......xxxx_.@..
0650: 50 12 01 AC 50 12 01 78  78 78 78 01 B4 06 02 87  P...P..xxxx.....
0660: 7F 1A 80 80 89 06 5F 04  44 80 F0 FF FF 7F F0 FF  ......_.D.......
0670: FF 7F 78 78 78 78 5F 03  40 80 AC 50 12 01 AC 50  ..xxxx_.@..P...P
0680: 12 01 78 78 78 78 01 B4  06 02 87 7F 1C 80 80 B4  ..xxxx..........
0690: 06 5F 04 45 80 F0 FF FF  7F F0 FF FF 7F 78 78 78  ._.E.........xxx
06A0: 78 5F 03 40 80 AC 50 12  01 AC 50 12 01 78 78 78  x_.@..P...P..xxx
06B0: 78 01 B4 06 00                                    x....           
```

#### Opcodes

```
  0: 0x055C [0x02] IF !(LocalPlayer->Race == 1*) GOTO 0x0587
  1: 0x0564 [0x5F] MULTI_HANDLER_COMPLEX(mode=0x04 - Load ext scheduler (OpCode 0x5B mode 1), ref=214*, entity1=LocalPlayer, entity2=LocalPlayer, string="xxxx")
  2: 0x0574 [0x5F] MULTI_HANDLER_COMPLEX(mode=0x03 - Load ext scheduler (OpCode 0x5B mode 0), ref=3958*, entity1=??? (ID: 17977516/0x011250AC), entity2=??? (ID: 17977516/0x011250AC), string="xxxx")
  3: 0x0584 [0x01] GOTO 0x06B4
  4: 0x0587 [0x02] IF !(LocalPlayer->Race == 2*) GOTO 0x05B2
  5: 0x058F [0x5F] MULTI_HANDLER_COMPLEX(mode=0x04 - Load ext scheduler (OpCode 0x5B mode 1), ref=224*, entity1=LocalPlayer, entity2=LocalPlayer, string="xxxx")
  6: 0x059F [0x5F] MULTI_HANDLER_COMPLEX(mode=0x03 - Load ext scheduler (OpCode 0x5B mode 0), ref=3958*, entity1=??? (ID: 17977516/0x011250AC), entity2=??? (ID: 17977516/0x011250AC), string="xxxx")
  7: 0x05AF [0x01] GOTO 0x06B4
  8: 0x05B2 [0x02] IF !(LocalPlayer->Race == 3*) GOTO 0x05DD
  9: 0x05BA [0x5F] MULTI_HANDLER_COMPLEX(mode=0x04 - Load ext scheduler (OpCode 0x5B mode 1), ref=234*, entity1=LocalPlayer, entity2=LocalPlayer, string="xxxx")
 10: 0x05CA [0x5F] MULTI_HANDLER_COMPLEX(mode=0x03 - Load ext scheduler (OpCode 0x5B mode 0), ref=3958*, entity1=??? (ID: 17977516/0x011250AC), entity2=??? (ID: 17977516/0x011250AC), string="xxxx")
 11: 0x05DA [0x01] GOTO 0x06B4
 12: 0x05DD [0x02] IF !(LocalPlayer->Race == 4*) GOTO 0x0608
 13: 0x05E5 [0x5F] MULTI_HANDLER_COMPLEX(mode=0x04 - Load ext scheduler (OpCode 0x5B mode 1), ref=244*, entity1=LocalPlayer, entity2=LocalPlayer, string="xxxx")
 14: 0x05F5 [0x5F] MULTI_HANDLER_COMPLEX(mode=0x03 - Load ext scheduler (OpCode 0x5B mode 0), ref=3958*, entity1=??? (ID: 17977516/0x011250AC), entity2=??? (ID: 17977516/0x011250AC), string="xxxx")
 15: 0x0605 [0x01] GOTO 0x06B4
 16: 0x0608 [0x02] IF !(LocalPlayer->Race == 5*) GOTO 0x0633
 17: 0x0610 [0x5F] MULTI_HANDLER_COMPLEX(mode=0x04 - Load ext scheduler (OpCode 0x5B mode 1), ref=254*, entity1=LocalPlayer, entity2=LocalPlayer, string="xxxx")
 18: 0x0620 [0x5F] MULTI_HANDLER_COMPLEX(mode=0x03 - Load ext scheduler (OpCode 0x5B mode 0), ref=3958*, entity1=??? (ID: 17977516/0x011250AC), entity2=??? (ID: 17977516/0x011250AC), string="xxxx")
 19: 0x0630 [0x01] GOTO 0x06B4
 20: 0x0633 [0x02] IF !(LocalPlayer->Race == 6*) GOTO 0x065E
 21: 0x063B [0x5F] MULTI_HANDLER_COMPLEX(mode=0x04 - Load ext scheduler (OpCode 0x5B mode 1), ref=254*, entity1=LocalPlayer, entity2=LocalPlayer, string="xxxx")
 22: 0x064B [0x5F] MULTI_HANDLER_COMPLEX(mode=0x03 - Load ext scheduler (OpCode 0x5B mode 0), ref=3958*, entity1=??? (ID: 17977516/0x011250AC), entity2=??? (ID: 17977516/0x011250AC), string="xxxx")
 23: 0x065B [0x01] GOTO 0x06B4
 24: 0x065E [0x02] IF !(LocalPlayer->Race == 7*) GOTO 0x0689
 25: 0x0666 [0x5F] MULTI_HANDLER_COMPLEX(mode=0x04 - Load ext scheduler (OpCode 0x5B mode 1), ref=264*, entity1=LocalPlayer, entity2=LocalPlayer, string="xxxx")
 26: 0x0676 [0x5F] MULTI_HANDLER_COMPLEX(mode=0x03 - Load ext scheduler (OpCode 0x5B mode 0), ref=3958*, entity1=??? (ID: 17977516/0x011250AC), entity2=??? (ID: 17977516/0x011250AC), string="xxxx")
 27: 0x0686 [0x01] GOTO 0x06B4
 28: 0x0689 [0x02] IF !(LocalPlayer->Race == 8*) GOTO 0x06B4
 29: 0x0691 [0x5F] MULTI_HANDLER_COMPLEX(mode=0x04 - Load ext scheduler (OpCode 0x5B mode 1), ref=274*, entity1=LocalPlayer, entity2=LocalPlayer, string="xxxx")
 30: 0x06A1 [0x5F] MULTI_HANDLER_COMPLEX(mode=0x03 - Load ext scheduler (OpCode 0x5B mode 0), ref=3958*, entity1=??? (ID: 17977516/0x011250AC), entity2=??? (ID: 17977516/0x011250AC), string="xxxx")
 31: 0x06B1 [0x01] GOTO 0x06B4

SUBROUTINE_06B4:
 32: 0x06B4 [0x00] END_REQSTACK()
```

### Event 65535.31

#### Metadata

| Field        | Value    |
|--------------|----------|
| Entrypoint   | 0x06B5   |
| Data Size    | 33 bytes |
| Instructions | 3        |

```
      00 01 02 03 04 05 06 07  08 09 0A 0B 0C 0D 0E 0F
      -- -- -- -- -- -- -- --  -- -- -- -- -- -- -- --
06B0:                5F 03 46  80 AB 50 12 01 AB 50 12       _.F..P...P.
06C0: 01 78 78 78 78 5F 03 47  80 AE 50 12 01 AE 50 12  .xxxx_.G..P...P.
06D0: 01 78 78 78 78 00                                 .xxxx.          
```

#### Opcodes

```
  0: 0x06B5 [0x5F] MULTI_HANDLER_COMPLEX(mode=0x03 - Load ext scheduler (OpCode 0x5B mode 0), ref=3443*, entity1=Unnamed NPC (ID: 17977515/0x011250AB), entity2=Unnamed NPC (ID: 17977515/0x011250AB), string="xxxx")
  1: 0x06C5 [0x5F] MULTI_HANDLER_COMPLEX(mode=0x03 - Load ext scheduler (OpCode 0x5B mode 0), ref=3977*, entity1=Selh'teus (ID: 17977518/0x011250AE), entity2=Selh'teus (ID: 17977518/0x011250AE), string="xxxx")
  2: 0x06D5 [0x00] END_REQSTACK()
```

### Event 65535.32

#### Metadata

| Field        | Value    |
|--------------|----------|
| Entrypoint   | 0x06D6   |
| Data Size    | 10 bytes |
| Instructions | 2        |

```
      00 01 02 03 04 05 06 07  08 09 0A 0B 0C 0D 0E 0F
      -- -- -- -- -- -- -- --  -- -- -- -- -- -- -- --
06D0:                   6C F8  FF FF 7F 32 80 0E 80 00        l....2....
```

#### Opcodes

```
  0: 0x06D6 [0x6C] FADE_ENTITY_COLOR(entity_id=EventEntity, end_alpha=0*, fade_time=1*)
  1: 0x06DF [0x00] END_REQSTACK()
```

### Event 65535.33

#### Metadata

| Field        | Value    |
|--------------|----------|
| Entrypoint   | 0x06E0   |
| Data Size    | 10 bytes |
| Instructions | 2        |

```
      00 01 02 03 04 05 06 07  08 09 0A 0B 0C 0D 0E 0F
      -- -- -- -- -- -- -- --  -- -- -- -- -- -- -- --
06E0: 6C F8 FF FF 7F 32 80 0E  80 00                    l....2....      
```

#### Opcodes

```
  0: 0x06E0 [0x6C] FADE_ENTITY_COLOR(entity_id=EventEntity, end_alpha=0*, fade_time=1*)
  1: 0x06E9 [0x00] END_REQSTACK()
```

### Event 65535.34

#### Metadata

| Field        | Value    |
|--------------|----------|
| Entrypoint   | 0x06EA   |
| Data Size    | 10 bytes |
| Instructions | 2        |

```
      00 01 02 03 04 05 06 07  08 09 0A 0B 0C 0D 0E 0F
      -- -- -- -- -- -- -- --  -- -- -- -- -- -- -- --
06E0:                                6C F8 FF FF 7F 48            l....H
06F0: 80 0E 80 00                                       ....            
```

#### Opcodes

```
  0: 0x06EA [0x6C] FADE_ENTITY_COLOR(entity_id=EventEntity, end_alpha=128*, fade_time=1*)
  1: 0x06F3 [0x00] END_REQSTACK()
```
