# 17977513

## Common Data

| Field            | Value                           |
|------------------|---------------------------------|
| Zone             | Reisenjima Sanctorium (ID: 293) |
| Block Size       | 36556 bytes                     |
| Total Events     | 12                              |
| References Count | 803                             |

## List of Events

| Event ID              | Entrypoint   |   Size |   Instructions |
|-----------------------|--------------|--------|----------------|
| [65535](#event-65535) | 0x0000       |      1 |              1 |
| [2](#event-2)         | 0x0001       |      6 |              4 |
| [1](#event-1)         | 0x0007       |   4337 |            500 |
| [5](#event-5)         | 0x10F8       |      6 |              4 |
| [4](#event-4)         | 0x10FE       |   2491 |            287 |
| [6](#event-6)         | 0x1AB9       |   2003 |            222 |
| [7](#event-7)         | 0x228C       |    432 |             51 |
| [8](#event-8)         | 0x243C       |    397 |             49 |
| [10](#event-10)       | 0x25C9       |   3867 |            447 |
| [11](#event-11)       | 0x34E4       |  16311 |           1650 |
| [13](#event-13)       | 0x749B       |   1322 |            150 |
| [14](#event-14)       | 0x79C5       |   2104 |            229 |

## DAT References (imed_data)

|   Index | Hex Value   |   Dec Value |
|---------|-------------|-------------|
|       0 | 0x0001      |           1 |
|       1 | 0x0000      |           0 |
|       2 | 0x0078      |         120 |
|       3 | 0x00C8      |         200 |
|       4 | 0x001B      |          27 |
|       5 | 0x3AEF      |       15087 |
|       6 | 0x7AA13     |      502291 |
|       7 | 0xFFFFFB9C  |  4294966172 |
|       8 | 0x0721      |        1825 |
|       9 | 0xFFFFFB51  |  4294966097 |
|      10 | 0x33C1      |       13249 |
|      11 | 0x0F9F      |        3999 |
|      12 | 0x0C2D      |        3117 |
|      13 | 0x04BC      |        1212 |
|      14 | 0x2924      |       10532 |
|      15 | 0x0C15      |        3093 |
|      16 | 0x00F1      |         241 |
|      17 | 0x516F      |       20847 |
|      18 | 0x07D0      |        2000 |
|      19 | 0x0B72      |        2930 |
|      20 | 0x004F      |          79 |
|      21 | 0x0304      |         772 |
|      22 | 0x000F      |          15 |
|      23 | 0x0064      |         100 |
|      24 | 0x0014      |          20 |
|      25 | 0x0096      |         150 |
|      26 | 0x0005      |           5 |
|      27 | 0x0006      |           6 |
|      28 | 0x0F17      |        3863 |
|      29 | 0x1E28      |        7720 |
|      30 | 0x1E29      |        7721 |
|      31 | 0x005D      |          93 |
|      32 | 0x00B4      |         180 |
|      33 | 0x0059      |          89 |
|      34 | 0x003C      |          60 |
|      35 | 0x1E2A      |        7722 |
|      36 | 0x1E2B      |        7723 |
|      37 | 0x1E2C      |        7724 |
|      38 | 0xFFFFFF5A  |  4294967130 |
|      39 | 0x03E8      |        1000 |
|      40 | 0x0514      |        1300 |
|      41 | 0x001E      |          30 |
|      42 | 0x1E2D      |        7725 |
|      43 | 0xFFFFFF53  |  4294967123 |
|      44 | 0x012C      |         300 |
|      45 | 0x1E2E      |        7726 |
|      46 | 0x1E2F      |        7727 |
|      47 | 0x1E30      |        7728 |
|      48 | 0x00FF      |         255 |
|      49 | 0x0002      |           2 |
|      50 | 0x4352      |       17234 |
|      51 | 0x7AC50     |      502864 |
|      52 | 0xFFFFFD58  |  4294966616 |
|      53 | 0x0413      |        1043 |
|      54 | 0x4E93      |       20115 |
|      55 | 0x7B04E     |      503886 |
|      56 | 0xFFFFFD57  |  4294966615 |
|      57 | 0x040C      |        1036 |
|      58 | 0x0F40      |        3904 |
|      59 | 0x0F48      |        3912 |
|      60 | 0x0066      |         102 |
|      61 | 0x008C      |         140 |
|      62 | 0x1E31      |        7729 |
|      63 | 0x1E32      |        7730 |
|      64 | 0x0008      |           8 |
|      65 | 0x1E33      |        7731 |
|      66 | 0x1E34      |        7732 |
|      67 | 0x4A0F      |       18959 |
|      68 | 0x7A52E     |      501038 |
|      69 | 0x0C16      |        3094 |
|      70 | 0x52AD      |       21165 |
|      71 | 0x7A551     |      501073 |
|      72 | 0x0B1C      |        2844 |
|      73 | 0x0F20      |        3872 |
|      74 | 0x008E      |         142 |
|      75 | 0x0098      |         152 |
|      76 | 0x0003      |           3 |
|      77 | 0x00A2      |         162 |
|      78 | 0x0004      |           4 |
|      79 | 0x00AC      |         172 |
|      80 | 0x00B6      |         182 |
|      81 | 0x0007      |           7 |
|      82 | 0x00C0      |         192 |
|      83 | 0x00CA      |         202 |
|      84 | 0x0A6B      |        2667 |
|      85 | 0x009E      |         158 |
|      86 | 0x1E35      |        7733 |
|      87 | 0x1E36      |        7734 |
|      88 | 0x1E37      |        7735 |
|      89 | 0x1E38      |        7736 |
|      90 | 0xFFFFF833  |  4294965299 |
|      91 | 0x3EAE      |       16046 |
|      92 | 0x04B1      |        1201 |
|      93 | 0x3383      |       13187 |
|      94 | 0x0F16      |        3862 |
|      95 | 0x1E39      |        7737 |
|      96 | 0x1E3A      |        7738 |
|      97 | 0x0F3F      |        3903 |
|      98 | 0x0140      |         320 |
|      99 | 0x1E3B      |        7739 |
|     100 | 0x1E3C      |        7740 |
|     101 | 0x1E3D      |        7741 |
|     102 | 0x0F15      |        3861 |
|     103 | 0x1E3E      |        7742 |
|     104 | 0x1E3F      |        7743 |
|     105 | 0x1E40      |        7744 |
|     106 | 0x1E41      |        7745 |
|     107 | 0x0050      |          80 |
|     108 | 0x0028      |          40 |
|     109 | 0x1E42      |        7746 |
|     110 | 0x0013      |          19 |
|     111 | 0x006E      |         110 |
|     112 | 0x1E43      |        7747 |
|     113 | 0x1E44      |        7748 |
|     114 | 0x0F13      |        3859 |
|     115 | 0x1E45      |        7749 |
|     116 | 0x1E46      |        7750 |
|     117 | 0x1E47      |        7751 |
|     118 | 0x1E48      |        7752 |
|     119 | 0x1E49      |        7753 |
|     120 | 0x1E4A      |        7754 |
|     121 | 0x0F19      |        3865 |
|     122 | 0x000A      |          10 |
|     123 | 0x0032      |          50 |
|     124 | 0x0F1D      |        3869 |
|     125 | 0x0068      |         104 |
|     126 | 0x1E4B      |        7755 |
|     127 | 0x1E4C      |        7756 |
|     128 | 0x0D6E      |        3438 |
|     129 | 0x0067      |         103 |
|     130 | 0x005A      |          90 |
|     131 | 0x0D66      |        3430 |
|     132 | 0x00F0      |         240 |
|     133 | 0xFFFFFFBC  |  4294967228 |
|     134 | 0x27AE      |       10158 |
|     135 | 0x0EA5      |        3749 |
|     136 | 0x0C0D      |        3085 |
|     137 | 0x4E20      |       20000 |
|     138 | 0x7A120     |      500000 |
|     139 | 0xFFFFFA24  |  4294965796 |
|     140 | 0x0BF1      |        3057 |
|     141 | 0x3529      |       13609 |
|     142 | 0x7B0ED     |      504045 |
|     143 | 0x02DD      |         733 |
|     144 | 0x0F46      |        3910 |
|     145 | 0x0084      |         132 |
|     146 | 0x0099      |         153 |
|     147 | 0x1E8A      |        7818 |
|     148 | 0x1E8B      |        7819 |
|     149 | 0x1E8C      |        7820 |
|     150 | 0x1E8D      |        7821 |
|     151 | 0x1E8E      |        7822 |
|     152 | 0x0F1A      |        3866 |
|     153 | 0x0082      |         130 |
|     154 | 0x1E8F      |        7823 |
|     155 | 0x1E90      |        7824 |
|     156 | 0x0091      |         145 |
|     157 | 0x1E91      |        7825 |
|     158 | 0x1E92      |        7826 |
|     159 | 0x0AFA      |        2810 |
|     160 | 0x02FC      |         764 |
|     161 | 0x4D24      |       19748 |
|     162 | 0x7AF8A     |      503690 |
|     163 | 0x1E93      |        7827 |
|     164 | 0x1E94      |        7828 |
|     165 | 0x0020      |          32 |
|     166 | 0x1E95      |        7829 |
|     167 | 0x1E96      |        7830 |
|     168 | 0x1E97      |        7831 |
|     169 | 0x1E98      |        7832 |
|     170 | 0x1E99      |        7833 |
|     171 | 0x1E9A      |        7834 |
|     172 | 0x1E9B      |        7835 |
|     173 | 0x1E9C      |        7836 |
|     174 | 0x1E9D      |        7837 |
|     175 | 0x1E9E      |        7838 |
|     176 | 0x1E9F      |        7839 |
|     177 | 0x1EA0      |        7840 |
|     178 | 0x1EA1      |        7841 |
|     179 | 0x0DAC      |        3500 |
|     180 | 0x1EA2      |        7842 |
|     181 | 0x1EA3      |        7843 |
|     182 | 0x1EA4      |        7844 |
|     183 | 0x1EA5      |        7845 |
|     184 | 0x1EA6      |        7846 |
|     185 | 0x1EA7      |        7847 |
|     186 | 0xFFFFFFED  |  4294967277 |
|     187 | 0x3696      |       13974 |
|     188 | 0x0BEF      |        3055 |
|     189 | 0x0A28      |        2600 |
|     190 | 0x3323      |       13091 |
|     191 | 0x79128     |      495912 |
|     192 | 0x0D82      |        3458 |
|     193 | 0x0505      |        1285 |
|     194 | 0x2EF8      |       12024 |
|     195 | 0x0C68      |        3176 |
|     196 | 0x0232      |         562 |
|     197 | 0x28F0      |       10480 |
|     198 | 0xFFFFFBA7  |  4294966183 |
|     199 | 0x2C06      |       11270 |
|     200 | 0x01AB      |         427 |
|     201 | 0x1EA8      |        7848 |
|     202 | 0xFFFFF254  |  4294963796 |
|     203 | 0x0F14      |        3860 |
|     204 | 0x00B2      |         178 |
|     205 | 0x00DC      |         220 |
|     206 | 0x00FA      |         250 |
|     207 | 0x1EA9      |        7849 |
|     208 | 0x02DA      |         730 |
|     209 | 0x00A4      |         164 |
|     210 | 0x3FA4      |       16292 |
|     211 | 0x7A79B     |      501659 |
|     212 | 0x03D3      |         979 |
|     213 | 0x1EAA      |        7850 |
|     214 | 0x1EAB      |        7851 |
|     215 | 0x1EAC      |        7852 |
|     216 | 0x1EAD      |        7853 |
|     217 | 0x1EAE      |        7854 |
|     218 | 0x4BB4      |       19380 |
|     219 | 0x7A4A3     |      500899 |
|     220 | 0xFFFFF380  |  4294964096 |
|     221 | 0x0033      |          51 |
|     222 | 0x1EAF      |        7855 |
|     223 | 0x1EB0      |        7856 |
|     224 | 0x1EB2      |        7858 |
|     225 | 0x007C      |         124 |
|     226 | 0x007D      |         125 |
|     227 | 0x03E7      |         999 |
|     228 | 0x1EB1      |        7857 |
|     229 | 0xFFFFFFF4  |  4294967284 |
|     230 | 0x3F4B      |       16203 |
|     231 | 0x0C01      |        3073 |
|     232 | 0x0301      |         769 |
|     233 | 0x1EB3      |        7859 |
|     234 | 0x1EB4      |        7860 |
|     235 | 0x1EB5      |        7861 |
|     236 | 0x1564      |        5476 |
|     237 | 0x0C00      |        3072 |
|     238 | 0xFFFFFFDE  |  4294967262 |
|     239 | 0x3D48      |       15688 |
|     240 | 0x0BE8      |        3048 |
|     241 | 0xFFFFFFF7  |  4294967287 |
|     242 | 0x331F      |       13087 |
|     243 | 0x0C0C      |        3084 |
|     244 | 0x00C4      |         196 |
|     245 | 0x0297      |         663 |
|     246 | 0x0307      |         775 |
|     247 | 0x1ED2      |        7890 |
|     248 | 0x01A9      |         425 |
|     249 | 0x1ED3      |        7891 |
|     250 | 0x1ED4      |        7892 |
|     251 | 0x1ED5      |        7893 |
|     252 | 0x0F63      |        3939 |
|     253 | 0x007F      |         127 |
|     254 | 0x0934      |        2356 |
|     255 | 0x3692      |       13970 |
|     256 | 0x7B351     |      504657 |
|     257 | 0x077C      |        1916 |
|     258 | 0x32E7      |       13031 |
|     259 | 0x7AD18     |      503064 |
|     260 | 0x0015      |          21 |
|     261 | 0x0F1E      |        3870 |
|     262 | 0x1ED6      |        7894 |
|     263 | 0x1ED7      |        7895 |
|     264 | 0x1ED8      |        7896 |
|     265 | 0x1ED9      |        7897 |
|     266 | 0x1EDA      |        7898 |
|     267 | 0x1EDB      |        7899 |
|     268 | 0x1EDC      |        7900 |
|     269 | 0x1EDD      |        7901 |
|     270 | 0x05CA      |        1482 |
|     271 | 0x3CDA      |       15578 |
|     272 | 0x0C0F      |        3087 |
|     273 | 0xFFFFFB7C  |  4294966140 |
|     274 | 0x3EE0      |       16096 |
|     275 | 0x0C55      |        3157 |
|     276 | 0x0296      |         662 |
|     277 | 0x0F26      |        3878 |
|     278 | 0x1EDE      |        7902 |
|     279 | 0x1EDF      |        7903 |
|     280 | 0x1EE0      |        7904 |
|     281 | 0x1EE1      |        7905 |
|     282 | 0x1EE2      |        7906 |
|     283 | 0x1EE3      |        7907 |
|     284 | 0x1EE4      |        7908 |
|     285 | 0x1EE5      |        7909 |
|     286 | 0x1EE6      |        7910 |
|     287 | 0x1EE7      |        7911 |
|     288 | 0x1EE8      |        7912 |
|     289 | 0x1EE9      |        7913 |
|     290 | 0x1EEA      |        7914 |
|     291 | 0x01E0      |         480 |
|     292 | 0x01AC      |         428 |
|     293 | 0x1EEB      |        7915 |
|     294 | 0xFFFFFC18  |  4294966296 |
|     295 | 0x41CF      |       16847 |
|     296 | 0x7968F     |      497295 |
|     297 | 0x010E      |         270 |
|     298 | 0x472F      |       18223 |
|     299 | 0x7917B     |      495995 |
|     300 | 0x00A1      |         161 |
|     301 | 0x003D      |          61 |
|     302 | 0x1E15      |        7701 |
|     303 | 0x1EEC      |        7916 |
|     304 | 0x1EED      |        7917 |
|     305 | 0x1EEE      |        7918 |
|     306 | 0x1EEF      |        7919 |
|     307 | 0x01AA      |         426 |
|     308 | 0x1EF0      |        7920 |
|     309 | 0x1EF1      |        7921 |
|     310 | 0x1EF2      |        7922 |
|     311 | 0xFFFFFDE5  |  4294966757 |
|     312 | 0xFFFF9158  |  4294938968 |
|     313 | 0x0FA0      |        4000 |
|     314 | 0xFFFFCB44  |  4294953796 |
|     315 | 0x0400      |        1024 |
|     316 | 0xFFFF91E3  |  4294939107 |
|     317 | 0x0360      |         864 |
|     318 | 0xFFFFA484  |  4294943876 |
|     319 | 0x0A59      |        2649 |
|     320 | 0x0F6B      |        3947 |
|     321 | 0x0051      |          81 |
|     322 | 0x0D71      |        3441 |
|     323 | 0x0F5C      |        3932 |
|     324 | 0x1EF3      |        7923 |
|     325 | 0x0F5D      |        3933 |
|     326 | 0x0F6E      |        3950 |
|     327 | 0xFFFFF92D  |  4294965549 |
|     328 | 0xFFFFDBD8  |  4294958040 |
|     329 | 0xFFFFFC6E  |  4294966382 |
|     330 | 0xFFFFD7F1  |  4294957041 |
|     331 | 0x0030      |          48 |
|     332 | 0x00D9      |         217 |
|     333 | 0x1EF4      |        7924 |
|     334 | 0xFFFFFD8D  |  4294966669 |
|     335 | 0xFFFFAD9B  |  4294946203 |
|     336 | 0x00DA      |         218 |
|     337 | 0x0305      |         773 |
|     338 | 0x0F5E      |        3934 |
|     339 | 0x1EF5      |        7925 |
|     340 | 0x1EF6      |        7926 |
|     341 | 0x00DB      |         219 |
|     342 | 0x1EF7      |        7927 |
|     343 | 0x0190      |         400 |
|     344 | 0x7A125     |      500005 |
|     345 | 0x094E      |        2382 |
|     346 | 0xFFFFA2E5  |  4294943461 |
|     347 | 0xFFFFFA62  |  4294965858 |
|     348 | 0xFFFFB15E  |  4294947166 |
|     349 | 0xFFFFFC42  |  4294966338 |
|     350 | 0xFFFFA4E5  |  4294943973 |
|     351 | 0xFFFFF232  |  4294963762 |
|     352 | 0xFFFFA639  |  4294944313 |
|     353 | 0x0981      |        2433 |
|     354 | 0xFFFFA443  |  4294943811 |
|     355 | 0x0F54      |        3924 |
|     356 | 0x00D3      |         211 |
|     357 | 0x0F6F      |        3951 |
|     358 | 0x00DE      |         222 |
|     359 | 0x0016      |          22 |
|     360 | 0x000C      |          12 |
|     361 | 0x0024      |          36 |
|     362 | 0x004E      |          78 |
|     363 | 0x1EF8      |        7928 |
|     364 | 0xFFFF96EC  |  4294940396 |
|     365 | 0x0AF0      |        2800 |
|     366 | 0x0E74      |        3700 |
|     367 | 0x0C1C      |        3100 |
|     368 | 0x0BB8      |        3000 |
|     369 | 0x0037      |          55 |
|     370 | 0xFFFFFFDC  |  4294967260 |
|     371 | 0xFFFF96B3  |  4294940339 |
|     372 | 0x00BF      |         191 |
|     373 | 0x0ED2      |        3794 |
|     374 | 0x1EF9      |        7929 |
|     375 | 0xFFFFFE1F  |  4294966815 |
|     376 | 0xFFFF9B2B  |  4294941483 |
|     377 | 0x0C2E      |        3118 |
|     378 | 0x1EFA      |        7930 |
|     379 | 0x1EFB      |        7931 |
|     380 | 0x0F5F      |        3935 |
|     381 | 0x0115      |         277 |
|     382 | 0x1EFC      |        7932 |
|     383 | 0x1EFD      |        7933 |
|     384 | 0x0CD0      |        3280 |
|     385 | 0x1EFE      |        7934 |
|     386 | 0x00AA      |         170 |
|     387 | 0x00DF      |         223 |
|     388 | 0x04CD      |        1229 |
|     389 | 0xFFFFF6E5  |  4294964965 |
|     390 | 0xFFFFA6DF  |  4294944479 |
|     391 | 0x08E3      |        2275 |
|     392 | 0x1EFF      |        7935 |
|     393 | 0x0F3D      |        3901 |
|     394 | 0x1F00      |        7936 |
|     395 | 0x0EFC      |        3836 |
|     396 | 0x1F01      |        7937 |
|     397 | 0x0F70      |        3952 |
|     398 | 0xFFFF958B  |  4294940043 |
|     399 | 0xFFFFF888  |  4294965384 |
|     400 | 0xFFFF9853  |  4294940755 |
|     401 | 0xFFFFF915  |  4294965525 |
|     402 | 0xFFFF90E9  |  4294938857 |
|     403 | 0xFFFFFD56  |  4294966614 |
|     404 | 0xFFFF902D  |  4294938669 |
|     405 | 0x02AB      |         683 |
|     406 | 0xFFFF91D9  |  4294939097 |
|     407 | 0x0586      |        1414 |
|     408 | 0xFFFF953C  |  4294939964 |
|     409 | 0xFFFFF4CF  |  4294964431 |
|     410 | 0xFFFF9671  |  4294940273 |
|     411 | 0x0F66      |        3942 |
|     412 | 0xFFFFFCB1  |  4294966449 |
|     413 | 0xFFFF9031  |  4294938673 |
|     414 | 0x0260      |         608 |
|     415 | 0xFFFF9FFA  |  4294942714 |
|     416 | 0xFFFFF5EF  |  4294964719 |
|     417 | 0xFFFF9F45  |  4294942533 |
|     418 | 0x00C9      |         201 |
|     419 | 0xFFFFFE80  |  4294966912 |
|     420 | 0xFFFF8A10  |  4294937104 |
|     421 | 0x0BA5      |        2981 |
|     422 | 0x058F      |        1423 |
|     423 | 0xFFFFA66B  |  4294944363 |
|     424 | 0x09E2      |        2530 |
|     425 | 0x001C      |          28 |
|     426 | 0x00C6      |         198 |
|     427 | 0x002A      |          42 |
|     428 | 0x023A      |         570 |
|     429 | 0xFFFFA7FD  |  4294944765 |
|     430 | 0x0BC2      |        3010 |
|     431 | 0x0509      |        1289 |
|     432 | 0xFFFF9EBC  |  4294942396 |
|     433 | 0x00D6      |         214 |
|     434 | 0x1F02      |        7938 |
|     435 | 0x0EFD      |        3837 |
|     436 | 0x1F03      |        7939 |
|     437 | 0x07E4      |        2020 |
|     438 | 0xFFFFA30E  |  4294943502 |
|     439 | 0x0A0A      |        2570 |
|     440 | 0x031D      |         797 |
|     441 | 0xFFFFA5A6  |  4294944166 |
|     442 | 0x0A7B      |        2683 |
|     443 | 0x002C      |          44 |
|     444 | 0x039B      |         923 |
|     445 | 0xFFFF912F  |  4294938927 |
|     446 | 0xFFFFF849  |  4294965321 |
|     447 | 0xFFFF97D4  |  4294940628 |
|     448 | 0x0F60      |        3936 |
|     449 | 0x1F04      |        7940 |
|     450 | 0x1F05      |        7941 |
|     451 | 0xFFFFA6A9  |  4294944425 |
|     452 | 0x0F3E      |        3902 |
|     453 | 0xFFFFF126  |  4294963494 |
|     454 | 0xFFFFA9FF  |  4294945279 |
|     455 | 0x089C      |        2204 |
|     456 | 0xFFFFF97A  |  4294965626 |
|     457 | 0xFFFFA817  |  4294944791 |
|     458 | 0x0803      |        2051 |
|     459 | 0x1F06      |        7942 |
|     460 | 0xFFFFFC70  |  4294966384 |
|     461 | 0xFFFF993A  |  4294940986 |
|     462 | 0x0B02      |        2818 |
|     463 | 0xFFFFFCAD  |  4294966445 |
|     464 | 0xFFFF9026  |  4294938662 |
|     465 | 0xFFFF9F38  |  4294942520 |
|     466 | 0x1F07      |        7943 |
|     467 | 0x0ED3      |        3795 |
|     468 | 0x1F08      |        7944 |
|     469 | 0x1F09      |        7945 |
|     470 | 0xFFFFF775  |  4294965109 |
|     471 | 0xFFFF97AB  |  4294940587 |
|     472 | 0x0F7F      |        3967 |
|     473 | 0x00C7      |         199 |
|     474 | 0x0ED5      |        3797 |
|     475 | 0xFFFFF66D  |  4294964845 |
|     476 | 0xFFFFB533  |  4294948147 |
|     477 | 0x09CC      |        2508 |
|     478 | 0xFFFFFCF8  |  4294966520 |
|     479 | 0xFFFFB9D3  |  4294949331 |
|     480 | 0x0893      |        2195 |
|     481 | 0x004A      |          74 |
|     482 | 0xFFFFFA7A  |  4294965882 |
|     483 | 0xFFFFB0AF  |  4294946991 |
|     484 | 0x0841      |        2113 |
|     485 | 0xFFFFF565  |  4294964581 |
|     486 | 0xFFFFB791  |  4294948753 |
|     487 | 0x0823      |        2083 |
|     488 | 0x000E      |          14 |
|     489 | 0xFFFFFA6C  |  4294965868 |
|     490 | 0xFFFFB4D7  |  4294948055 |
|     491 | 0x0E47      |        3655 |
|     492 | 0xFFFFF4D1  |  4294964433 |
|     493 | 0xFFFFAF24  |  4294946596 |
|     494 | 0x0E26      |        3622 |
|     495 | 0xFFFFFA1F  |  4294965791 |
|     496 | 0xFFFFB3FD  |  4294947837 |
|     497 | 0x0D36      |        3382 |
|     498 | 0x0018      |          24 |
|     499 | 0xFFFFF465  |  4294964325 |
|     500 | 0xFFFFCAC8  |  4294953672 |
|     501 | 0x0A5A      |        2650 |
|     502 | 0xFFFFD96B  |  4294957419 |
|     503 | 0xFFFFC0F3  |  4294951155 |
|     504 | 0x0F7D      |        3965 |
|     505 | 0x1F0A      |        7946 |
|     506 | 0xFFFFF7FE  |  4294965246 |
|     507 | 0xFFFFFBDD  |  4294966237 |
|     508 | 0x0579      |        1401 |
|     509 | 0xFFFFF7A2  |  4294965154 |
|     510 | 0xFFFFAE12  |  4294946322 |
|     511 | 0x1F0B      |        7947 |
|     512 | 0x1F0C      |        7948 |
|     513 | 0xFFFFF5E0  |  4294964704 |
|     514 | 0x0ED4      |        3796 |
|     515 | 0x00DD      |         221 |
|     516 | 0x0F7E      |        3966 |
|     517 | 0x1F0D      |        7949 |
|     518 | 0xFFFFF1EF  |  4294963695 |
|     519 | 0xFFFFE836  |  4294961206 |
|     520 | 0x0F71      |        3953 |
|     521 | 0x0048      |          72 |
|     522 | 0x00D2      |         210 |
|     523 | 0x0D72      |        3442 |
|     524 | 0xFFFFFB22  |  4294966050 |
|     525 | 0xFFFFEF9B  |  4294963099 |
|     526 | 0x065A      |        1626 |
|     527 | 0xFFFFF553  |  4294964563 |
|     528 | 0xFFFFFC28  |  4294966312 |
|     529 | 0x0238      |         568 |
|     530 | 0x0641      |        1601 |
|     531 | 0xFFFF9817  |  4294940695 |
|     532 | 0x0335      |         821 |
|     533 | 0xFFFF9618  |  4294940184 |
|     534 | 0x0F55      |        3925 |
|     535 | 0x1F0E      |        7950 |
|     536 | 0xFFFFE2A3  |  4294959779 |
|     537 | 0xFFFFF9AB  |  4294965675 |
|     538 | 0x0EA7      |        3751 |
|     539 | 0x0E92      |        3730 |
|     540 | 0x232D      |        9005 |
|     541 | 0xFFFFFE6D  |  4294966893 |
|     542 | 0x0EAD      |        3757 |
|     543 | 0x09A6      |        2470 |
|     544 | 0x028D      |         653 |
|     545 | 0xFFFFA466  |  4294943846 |
|     546 | 0x04E7      |        1255 |
|     547 | 0x0286      |         646 |
|     548 | 0xFFFFBABF  |  4294949567 |
|     549 | 0x0BC5      |        3013 |
|     550 | 0x1F0F      |        7951 |
|     551 | 0x0036      |          54 |
|     552 | 0x1F10      |        7952 |
|     553 | 0xFFFFC181  |  4294951297 |
|     554 | 0x3A98      |       15000 |
|     555 | 0x0F56      |        3926 |
|     556 | 0x00E0      |         224 |
|     557 | 0x08E7      |        2279 |
|     558 | 0xFFFFD060  |  4294955104 |
|     559 | 0x0BDE      |        3038 |
|     560 | 0x0474      |        1140 |
|     561 | 0x07A9      |        1961 |
|     562 | 0xFFFFD419  |  4294956057 |
|     563 | 0x0AED      |        2797 |
|     564 | 0xFFFFDCE3  |  4294958307 |
|     565 | 0x0AC0      |        2752 |
|     566 | 0x0058      |          88 |
|     567 | 0x1F11      |        7953 |
|     568 | 0x0BD1      |        3025 |
|     569 | 0x0010      |          16 |
|     570 | 0x00CB      |         203 |
|     571 | 0x1F12      |        7954 |
|     572 | 0x00A0      |         160 |
|     573 | 0xFFFFD1B8  |  4294955448 |
|     574 | 0x0F72      |        3954 |
|     575 | 0x00D5      |         213 |
|     576 | 0x0072      |         114 |
|     577 | 0x0040      |          64 |
|     578 | 0x1F13      |        7955 |
|     579 | 0x0427      |        1063 |
|     580 | 0xFFFF851C  |  4294935836 |
|     581 | 0xFFFF98CE  |  4294940878 |
|     582 | 0xFFFFFA63  |  4294965859 |
|     583 | 0xFFFF91AB  |  4294939051 |
|     584 | 0x0046      |          70 |
|     585 | 0x1F14      |        7956 |
|     586 | 0x1F15      |        7957 |
|     587 | 0x1F16      |        7958 |
|     588 | 0x1DC8      |        7624 |
|     589 | 0xFFFFFB1F  |  4294966047 |
|     590 | 0x05BE      |        1470 |
|     591 | 0xFFFFEAD2  |  4294961874 |
|     592 | 0xFFFFEB96  |  4294962070 |
|     593 | 0x0ED6      |        3798 |
|     594 | 0x0F80      |        3968 |
|     595 | 0x1F17      |        7959 |
|     596 | 0x1A5C      |        6748 |
|     597 | 0xFFFFF733  |  4294965043 |
|     598 | 0xFFFFFAD0  |  4294965968 |
|     599 | 0xFFFFE62C  |  4294960684 |
|     600 | 0x0052      |          82 |
|     601 | 0xFFFFFA22  |  4294965794 |
|     602 | 0xFFFFC813  |  4294952979 |
|     603 | 0x00D0      |         208 |
|     604 | 0x1F18      |        7960 |
|     605 | 0x0CAF      |        3247 |
|     606 | 0xFFFFAD35  |  4294946101 |
|     607 | 0x0AD1      |        2769 |
|     608 | 0x04CE      |        1230 |
|     609 | 0xFFFFBDAD  |  4294950317 |
|     610 | 0x1F19      |        7961 |
|     611 | 0x14E0      |        5344 |
|     612 | 0xFFFFF41C  |  4294964252 |
|     613 | 0x06AA      |        1706 |
|     614 | 0x14F9      |        5369 |
|     615 | 0xFFFFBD4B  |  4294950219 |
|     616 | 0x093B      |        2363 |
|     617 | 0x0F57      |        3927 |
|     618 | 0x1F1A      |        7962 |
|     619 | 0x1F1B      |        7963 |
|     620 | 0xFFFFF235  |  4294963765 |
|     621 | 0xFFFFC6F2  |  4294952690 |
|     622 | 0xFFFFE2AB  |  4294959787 |
|     623 | 0xFFFFE4B9  |  4294960313 |
|     624 | 0x0EA1      |        3745 |
|     625 | 0x0F73      |        3955 |
|     626 | 0xFFFFFE25  |  4294966821 |
|     627 | 0xFFFFBEB6  |  4294950582 |
|     628 | 0xFFFFFAD9  |  4294965977 |
|     629 | 0xFFFFC6BD  |  4294952637 |
|     630 | 0xFFFFF3BB  |  4294964155 |
|     631 | 0x1971      |        6513 |
|     632 | 0xFFFFEA05  |  4294961669 |
|     633 | 0x03FF      |        1023 |
|     634 | 0x0012      |          18 |
|     635 | 0x0EFE      |        3838 |
|     636 | 0x00CE      |         206 |
|     637 | 0x1F1C      |        7964 |
|     638 | 0xFFFFF80B  |  4294965259 |
|     639 | 0xFFFFC678  |  4294952568 |
|     640 | 0x06FF      |        1791 |
|     641 | 0x03AE      |         942 |
|     642 | 0xFFFFFD26  |  4294966566 |
|     643 | 0xFFFFC81B  |  4294952987 |
|     644 | 0x07DB      |        2011 |
|     645 | 0x042E      |        1070 |
|     646 | 0x02B3      |         691 |
|     647 | 0xFFFFC438  |  4294951992 |
|     648 | 0x0B3F      |        2879 |
|     649 | 0x045F      |        1119 |
|     650 | 0x1F1D      |        7965 |
|     651 | 0x1F1E      |        7966 |
|     652 | 0x16BE      |        5822 |
|     653 | 0xFFFFE23A  |  4294959674 |
|     654 | 0xFFFFF49B  |  4294964379 |
|     655 | 0xFFFFE465  |  4294960229 |
|     656 | 0x1F1F      |        7967 |
|     657 | 0x1F20      |        7968 |
|     658 | 0xFFFFEF95  |  4294963093 |
|     659 | 0xFFFF9FCF  |  4294942671 |
|     660 | 0x0F33      |        3891 |
|     661 | 0x03A9      |         937 |
|     662 | 0x0F61      |        3937 |
|     663 | 0xFFFFC8A2  |  4294953122 |
|     664 | 0x00E1      |         225 |
|     665 | 0x1F21      |        7969 |
|     666 | 0xFFFFD548  |  4294956360 |
|     667 | 0x084B      |        2123 |
|     668 | 0xFFFFC848  |  4294953032 |
|     669 | 0x09C2      |        2498 |
|     670 | 0xFFFFEC25  |  4294962213 |
|     671 | 0xFFFFDE27  |  4294958631 |
|     672 | 0x1F22      |        7970 |
|     673 | 0x1F23      |        7971 |
|     674 | 0xFFFFF773  |  4294965107 |
|     675 | 0xFFFFC142  |  4294951234 |
|     676 | 0xFFFFC920  |  4294953248 |
|     677 | 0x00CF      |         207 |
|     678 | 0xFFFFF830  |  4294965296 |
|     679 | 0xFFFFD8F0  |  4294957296 |
|     680 | 0x0523      |        1315 |
|     681 | 0xFFFFC3B3  |  4294951859 |
|     682 | 0x0EFF      |        3839 |
|     683 | 0x00D7      |         215 |
|     684 | 0x1F24      |        7972 |
|     685 | 0x0017      |          23 |
|     686 | 0x0F75      |        3957 |
|     687 | 0x1F25      |        7973 |
|     688 | 0x00D4      |         212 |
|     689 | 0xFFFFEAA5  |  4294961829 |
|     690 | 0xFFFFE3B2  |  4294960050 |
|     691 | 0x0B59      |        2905 |
|     692 | 0xFFFFFECE  |  4294966990 |
|     693 | 0xFFFFED2B  |  4294962475 |
|     694 | 0xFFFFFAA6  |  4294965926 |
|     695 | 0x129B      |        4763 |
|     696 | 0xFFFFDEE8  |  4294958824 |
|     697 | 0x09BB      |        2491 |
|     698 | 0x02C3      |         707 |
|     699 | 0x0210      |         528 |
|     700 | 0xFFFFFABF  |  4294965951 |
|     701 | 0xFFFFE018  |  4294959128 |
|     702 | 0x0F74      |        3956 |
|     703 | 0x0F81      |        3969 |
|     704 | 0xFFFFDCF3  |  4294958323 |
|     705 | 0xFFFFC39C  |  4294951836 |
|     706 | 0x1F26      |        7974 |
|     707 | 0x0468      |        1128 |
|     708 | 0xFFFFE78E  |  4294961038 |
|     709 | 0xFFFFC40B  |  4294951947 |
|     710 | 0x00E2      |         226 |
|     711 | 0x00E6      |         230 |
|     712 | 0x1F27      |        7975 |
|     713 | 0x0F90      |        3984 |
|     714 | 0xFFFFFC23  |  4294966307 |
|     715 | 0xFFFFEE75  |  4294962805 |
|     716 | 0xFFFFFCBB  |  4294966459 |
|     717 | 0x1F28      |        7976 |
|     718 | 0x0F62      |        3938 |
|     719 | 0xFFFFFA06  |  4294965766 |
|     720 | 0xFFFFEC56  |  4294962262 |
|     721 | 0x1F29      |        7977 |
|     722 | 0x03C0      |         960 |
|     723 | 0xFFFFFF92  |  4294967186 |
|     724 | 0x2AE2      |       10978 |
|     725 | 0xFFFFFBD6  |  4294966230 |
|     726 | 0x16E6      |        5862 |
|     727 | 0x0DDC      |        3548 |
|     728 | 0xFFFFF7E1  |  4294965217 |
|     729 | 0x216A      |        8554 |
|     730 | 0x0542      |        1346 |
|     731 | 0x2150      |        8528 |
|     732 | 0x0978      |        2424 |
|     733 | 0x05EA      |        1514 |
|     734 | 0x1D5B      |        7515 |
|     735 | 0xFFFFFB57  |  4294966103 |
|     736 | 0x394E      |       14670 |
|     737 | 0x0EE9      |        3817 |
|     738 | 0xFFFFE4FD  |  4294960381 |
|     739 | 0x0ED0      |        3792 |
|     740 | 0x0F00      |        3840 |
|     741 | 0x0F82      |        3970 |
|     742 | 0x027F      |         639 |
|     743 | 0x0F58      |        3928 |
|     744 | 0x0470      |        1136 |
|     745 | 0x00BD      |         189 |
|     746 | 0x1F2A      |        7978 |
|     747 | 0x03BA      |         954 |
|     748 | 0x04DE      |        1246 |
|     749 | 0x252D      |        9517 |
|     750 | 0x09C4      |        2500 |
|     751 | 0xFFFFFA3F  |  4294965823 |
|     752 | 0x028E      |         654 |
|     753 | 0x04ED      |        1261 |
|     754 | 0x1F2B      |        7979 |
|     755 | 0x1F2C      |        7980 |
|     756 | 0x1F2D      |        7981 |
|     757 | 0x1F2E      |        7982 |
|     758 | 0x1F2F      |        7983 |
|     759 | 0x1F30      |        7984 |
|     760 | 0xFFFFFAA3  |  4294965923 |
|     761 | 0x310A      |       12554 |
|     762 | 0x0104      |         260 |
|     763 | 0x0168      |         360 |
|     764 | 0x02D0      |         720 |
|     765 | 0x7A700     |      501504 |
|     766 | 0xFFF829F3  |  4294453747 |
|     767 | 0xFFFF84F4  |  4294935796 |
|     768 | 0x0C14      |        3092 |
|     769 | 0x7A0E2     |      499938 |
|     770 | 0xFFF863AE  |  4294468526 |
|     771 | 0xFFFF897D  |  4294936957 |
|     772 | 0x03F6      |        1014 |
|     773 | 0x7A084     |      499844 |
|     774 | 0xFFF82949  |  4294453577 |
|     775 | 0x7A0D1     |      499921 |
|     776 | 0xFFF85DD3  |  4294467027 |
|     777 | 0x0F25      |        3877 |
|     778 | 0x0F6C      |        3948 |
|     779 | 0x000B      |          11 |
|     780 | 0x014A      |         330 |
|     781 | 0x1F40      |        8000 |
|     782 | 0x1F41      |        8001 |
|     783 | 0x0F8D      |        3981 |
|     784 | 0x000D      |          13 |
|     785 | 0x01A4      |         420 |
|     786 | 0xFFFFFFCE  |  4294967246 |
|     787 | 0x26A4      |        9892 |
|     788 | 0x0C02      |        3074 |
|     789 | 0xFFFFFFFF  |  4294967295 |
|     790 | 0x5639      |       22073 |
|     791 | 0x005C      |          92 |
|     792 | 0x0070      |         112 |
|     793 | 0x007A      |         122 |
|     794 | 0x02FE      |         766 |
|     795 | 0x0F76      |        3958 |
|     796 | 0x00EA      |         234 |
|     797 | 0x00F4      |         244 |
|     798 | 0x00FE      |         254 |
|     799 | 0x0108      |         264 |
|     800 | 0x0112      |         274 |
|     801 | 0x1F42      |        8002 |
|     802 | 0x002D      |          45 |

## String References

- **7701**: @@
- **7740**: How do you respond? [It's not your fault./Why would I blame you?/I'm not sure I understand.]
- **7856**: Are you ready to meet the Goddess? [Yes. At long last.../I need to take care of some things.]
- **7903**: Should you shatter the crystal? [I'll do what must be done./That's not the answer.]
- **8002**: Welcome back, <Player>. Welcome back to Vana'diel.

## Events

### Event 65535

#### Metadata

| Field        | Value   |
|--------------|---------|
| Entrypoint   | 0x0000  |
| Data Size    | 1 bytes |
| Instructions | 1       |

```
      00 01 02 03 04 05 06 07  08 09 0A 0B 0C 0D 0E 0F
      -- -- -- -- -- -- -- --  -- -- -- -- -- -- -- --
0000: 00                                                .               
```

#### Opcodes

```
  0: 0x0000 [0x00] END_REQSTACK()
```

### Event 2

#### Metadata

| Field        | Value   |
|--------------|---------|
| Entrypoint   | 0x0001  |
| Data Size    | 6 bytes |
| Instructions | 4       |

```
      00 01 02 03 04 05 06 07  08 09 0A 0B 0C 0D 0E 0F
      -- -- -- -- -- -- -- --  -- -- -- -- -- -- -- --
0000:    42 1A 16 00 21 00                               B...!.         
```

#### Opcodes

```
  0: 0x0001 [0x42] SET_CLI_EVENT_CANCEL_DATA()
  1: 0x0002 [0x1A] CALL_SUBROUTINE(address=0x0016)
  2: 0x0005 [0x21] END_EVENT
  3: 0x0006 [0x00] END_REQSTACK()
```

### Event 1

#### Metadata

| Field        | Value      |
|--------------|------------|
| Entrypoint   | 0x0007     |
| Data Size    | 4337 bytes |
| Instructions | 484        |

```
      00 01 02 03 04 05 06 07  08 09 0A 0B 0C 0D 0E 0F
      -- -- -- -- -- -- -- --  -- -- -- -- -- -- -- --
0000:                      42  03 01 10 00 80 43 00 43         B.....C.C
0010: 01 1A 16 00 21 00 03 01  00 02 10 03 03 00 03 10  ....!...........
0020: 03 04 00 04 10 03 05 00  05 10 03 06 00 06 10 03  ................
0030: 07 00 07 10 03 02 00 08  10 5D 01 80 02 80 45 03  .........]....E.
0040: 80 F8 FF FF 7F F8 FF FF  7F 66 64 6F 31 01 80 55  .........fdo1..U
0050: 03 80 F8 FF FF 7F F8 FF  FF 7F 66 64 6F 31 46 01  ..........fdo1F.
0060: 38 04 80 2F 00 AD 50 12  01 2F 00 AC 50 12 01 4E  8../..P../..P..N
0070: 00 F0 FF FF 7F 4E 00 AD  50 12 01 4E 00 AC 50 12  .....N..P..N..P.
0080: 01 22 00 92 01 AD 50 12  01 92 01 AC 50 12 01 94  ."....P.....P...
0090: 01 AC 50 12 01 94 01 F0  FF FF 7F 94 01 AD 50 12  ..P...........P.
00A0: 01 59 05 AC 50 12 01 01  33 01 BA AC 50 12 01 05  .Y..P...3...P...
00B0: 80 06 80 07 80 08 80 BA  AD 50 12 01 09 80 0A 80  .........P......
00C0: 0B 80 0C 80 BA F0 FF FF  7F 0D 80 0E 80 0B 80 0F  ................
00D0: 80 37 10 80 11 80 12 80  13 80 80 AD 50 12 01 80  .7..........P...
00E0: F0 FF FF 7F 80 F8 FF FF  7F 80 AC 50 12 01 5C 00  ...........P..\.
00F0: 14 80 5C 01 14 80 9A 45  15 80 F8 FF FF 7F F8 FF  ..\....E........
0100: FF 7F 73 31 35 39 01 80  1C 16 80 45 03 80 F8 FF  ..s159.....E....
0110: FF 7F F8 FF FF 7F 66 64  69 31 01 80 1C 17 80 27  ......fdi1.....'
0120: 05 F0 FF FF 7F 16 1C 18  80 52 15 80 F8 FF FF 7F  .........R......
0130: F8 FF FF 7F 73 31 35 39  45 15 80 F8 FF FF 7F F8  ....s159E.......
0140: FF FF 7F 73 31 36 30 01  80 1C 19 80 45 03 80 F0  ...s160.....E...
0150: FF FF 7F F0 FF FF 7F 6F  76 6C 31 01 80 52 15 80  .......ovl1..R..
0160: F8 FF FF 7F F8 FF FF 7F  73 31 36 30 45 15 80 F8  ........s160E...
0170: FF FF 7F F8 FF FF 7F 73  31 32 33 01 80 1C 19 80  .......s123.....
0180: 52 15 80 F8 FF FF 7F F8  FF FF 7F 73 31 32 33 02  R..........s123.
0190: 87 7F 1A 80 80 AB 01 45  15 80 F8 FF FF 7F F8 FF  .......E........
01A0: FF 7F 73 31 32 35 01 80  01 D8 01 02 87 7F 1B 80  ..s125..........
01B0: 80 C7 01 45 15 80 F8 FF  FF 7F F8 FF FF 7F 73 31  ...E..........s1
01C0: 32 35 01 80 01 D8 01 45  15 80 F8 FF FF 7F F8 FF  25.....E........
01D0: FF 7F 73 31 32 34 01 80  5B 1C 80 AD 50 12 01 AD  ..s124..[...P...
01E0: 50 12 01 74 6C 63 30 2B  AD 50 12 01 1D 80 23 2B  P..tlc0+.P....#+
01F0: AD 50 12 01 1E 80 23 52  15 80 F8 FF FF 7F F8 FF  .P....#R........
0200: FF 7F 73 31 32 34 52 15  80 F8 FF FF 7F F8 FF FF  ..s124R.........
0210: 7F 73 31 32 35 45 15 80  F8 FF FF 7F F8 FF FF 7F  .s125E..........
0220: 73 31 32 36 01 80 C5 1F  80 F8 FF FF 7F F8 FF FF  s126............
0230: 7F 73 30 30 34 01 80 45  03 80 F8 FF FF 7F F8 FF  .s004..E........
0240: FF 7F 31 30 35 38 01 80  1C 20 80 52 15 80 F8 FF  ..1058... .R....
0250: FF 7F F8 FF FF 7F 73 31  32 36 C5 21 80 AC 50 12  ......s126.!..P.
0260: 01 AC 50 12 01 6D 61 69  6E 01 80 1C 22 80 45 15  ..P..main...".E.
0270: 80 F8 FF FF 7F F8 FF FF  7F 73 31 32 37 01 80 C5  .........s127...
0280: 1F 80 F8 FF FF 7F F8 FF  FF 7F 73 74 70 34 01 80  ..........stp4..
0290: 02 01 00 00 80 00 A3 02  2B AD 50 12 01 23 80 23  ........+.P..#.#
02A0: 01 AB 02 2B AD 50 12 01  24 80 23 2B AD 50 12 01  ...+.P..$.#+.P..
02B0: 25 80 23 45 03 80 F8 FF  FF 7F F8 FF FF 7F 66 64  %.#E..........fd
02C0: 6F 31 01 80 55 03 80 F8  FF FF 7F F8 FF FF 7F 66  o1..U..........f
02D0: 64 6F 31 52 15 80 F8 FF  FF 7F F8 FF FF 7F 73 31  do1R..........s1
02E0: 32 37 C5 21 80 AC 50 12  01 AC 50 12 01 6B 69 6C  27.!..P...P..kil
02F0: 61 01 80 27 05 AC 50 12  01 03 1A 76 81 89 26 80  a..'..P....v..&.
0300: 1C 22 80 B4 14 27 80 27  80 28 80 01 80 00 80 1C  ."...'.'.(......
0310: 29 80 B4 14 27 80 27 80  28 80 01 80 00 80 03 02  )...'.'.(.......
0320: 10 19 80 27 10 A7 50 12  01 01 1A 64 81 2B AD 50  ...'..P....d.+.P
0330: 12 01 2A 80 23 2A 10 A7  50 12 01 1A 76 81 89 2B  ..*.#*..P...v..+
0340: 80 1C 22 80 B4 14 27 80  27 80 28 80 01 80 00 80  .."...'.'.(.....
0350: 1C 22 80 B4 14 27 80 27  80 27 80 2C 80 00 80 03  ."...'.'.'.,....
0360: 02 10 19 80 27 10 A7 50  12 01 01 1A 64 81 2B AD  ....'..P....d.+.
0370: 50 12 01 2D 80 23 2B AD  50 12 01 2E 80 23 2B AD  P..-.#+.P....#+.
0380: 50 12 01 2F 80 23 2A 10  A7 50 12 01 1A 76 81 8A  P../.#*..P...v..
0390: B4 15 1A 64 81 77 30 80  31 80 4E 01 AC 50 12 01  ...d.w0.1.N..P..
03A0: 2F 00 AF 50 12 01 2F 00  B8 50 12 01 4E 00 AF 50  /..P../..P..N..P
03B0: 12 01 4E 00 B8 50 12 01  92 01 AF 50 12 01 94 01  ..N..P.....P....
03C0: AF 50 12 01 94 01 B8 50  12 01 03 03 10 03 00 29  .P.....P.......)
03D0: 05 AF 50 12 01 02 03 03  10 03 00 03 04 10 04 00  ..P.............
03E0: 03 05 10 05 00 03 06 10  06 00 03 07 10 07 00 29  ...............)
03F0: 05 B8 50 12 01 04 59 05  B8 50 12 01 01 59 05 AF  ..P...Y..P...Y..
0400: 50 12 01 01 59 05 AD 50  12 01 01 BA AD 50 12 01  P...Y..P.....P..
0410: 32 80 33 80 34 80 35 80  BA AF 50 12 01 36 80 37  2.3.4.5...P..6.7
0420: 80 38 80 39 80 BA B8 50  12 01 36 80 37 80 38 80  .8.9...P..6.7.8.
0430: 39 80 80 AF 50 12 01 80  AD 50 12 01 4A AD 50 12  9...P....P..J.P.
0440: 01 AF 50 12 01 4A AF 50  12 01 AD 50 12 01 7B AF  ..P..J.P...P..{.
0450: 50 12 01 7B AD 50 12 01  1C 29 80 27 05 AF 50 12  P..{.P...).'..P.
0460: 01 0B 81 00 AD 50 12 01  7C 00 AD 50 12 01 5B 3A  .....P..|..P..[:
0470: 80 AD 50 12 01 AD 50 12  01 66 6E 30 30 5B 3B 80  ..P...P..fn00[;.
0480: AD 50 12 01 AD 50 12 01  73 65 69 30 D0 3C 80 AD  .P...P..sei0.<..
0490: 50 12 01 AD 50 12 01 6B  79 75 30 01 80 1C 3D 80  P...P..kyu0...=.
04A0: 45 15 80 F8 FF FF 7F F8  FF FF 7F 73 30 36 36 01  E..........s066.
04B0: 80 1C 16 80 45 03 80 F8  FF FF 7F F8 FF FF 7F 66  ....E..........f
04C0: 64 69 31 01 80 1C 22 80  2B AD 50 12 01 3E 80 23  di1...".+.P..>.#
04D0: 52 15 80 F8 FF FF 7F F8  FF FF 7F 73 30 36 36 45  R..........s066E
04E0: 15 80 F8 FF FF 7F F8 FF  FF 7F 73 31 32 38 01 80  ..........s128..
04F0: 2B AD 50 12 01 3F 80 23  52 15 80 F8 FF FF 7F F8  +.P..?.#R.......
0500: FF FF 7F 73 31 32 38 02  87 7F 40 80 80 23 05 45  ...s128...@..#.E
0510: 15 80 F8 FF FF 7F F8 FF  FF 7F 73 30 32 36 01 80  ..........s026..
0520: 01 34 05 45 15 80 F8 FF  FF 7F F8 FF FF 7F 73 31  .4.E..........s1
0530: 36 31 01 80 2B AD 50 12  01 41 80 23 2B AD 50 12  61..+.P..A.#+.P.
0540: 01 42 80 23 27 10 AF 50  12 01 0E 45 03 80 F8 FF  .B.#'..P...E....
0550: FF 7F F8 FF FF 7F 66 64  6F 31 01 80 55 03 80 F8  ......fdo1..U...
0560: FF FF 7F F8 FF FF 7F 66  64 6F 31 52 15 80 F8 FF  .......fdo1R....
0570: FF 7F F8 FF FF 7F 73 31  36 31 52 15 80 F8 FF FF  ......s161R.....
0580: 7F F8 FF FF 7F 73 30 32  36 29 05 AF 50 12 01 0C  .....s026)..P...
0590: 27 05 AF 50 12 01 01 4E  01 AF 50 12 01 D3 00 AD  '..P...N..P.....
05A0: 50 12 01 2F 00 BE 50 12  01 4E 00 BE 50 12 01 94  P../..P..N..P...
05B0: 01 BE 50 12 01 59 05 BE  50 12 01 01 59 05 F0 FF  ..P..Y..P...Y...
05C0: FF 7F 01 BA AD 50 12 01  43 80 44 80 34 80 45 80  .....P..C.D.4.E.
05D0: BA BE 50 12 01 36 80 37  80 38 80 39 80 BA F0 FF  ..P..6.7.8.9....
05E0: FF 7F 46 80 47 80 34 80  48 80 80 AD 50 12 01 80  ..F.G.4.H...P...
05F0: BE 50 12 01 80 F0 FF FF  7F 1C 29 80 27 10 AF 50  .P........).'..P
0600: 12 01 0D 29 10 F0 FF FF  7F 2D 5B 49 80 AD 50 12  ...).....-[I..P.
0610: 01 AD 50 12 01 62 74 6C  6C 2C AD 50 12 01 AD 50  ..P..btll,.P...P
0620: 12 01 77 33 6F 6E 02 87  7F 00 80 80 40 06 66 4A  ..w3on......@.fJ
0630: 80 B8 50 12 01 B8 50 12  01 6B 72 75 30 01 F6 06  ..P...P..kru0...
0640: 02 87 7F 31 80 80 5A 06  66 4B 80 B8 50 12 01 B8  ...1..Z.fK..P...
0650: 50 12 01 6B 72 75 30 01  F6 06 02 87 7F 4C 80 80  P..kru0......L..
0660: 74 06 66 4D 80 B8 50 12  01 B8 50 12 01 6B 72 75  t.fM..P...P..kru
0670: 30 01 F6 06 02 87 7F 4E  80 80 8E 06 66 4F 80 B8  0......N....fO..
0680: 50 12 01 B8 50 12 01 6B  72 75 30 01 F6 06 02 87  P...P..kru0.....
0690: 7F 1A 80 80 A8 06 66 50  80 B8 50 12 01 B8 50 12  ......fP..P...P.
06A0: 01 6B 72 75 30 01 F6 06  02 87 7F 1B 80 80 C2 06  .kru0...........
06B0: 66 50 80 B8 50 12 01 B8  50 12 01 6B 72 75 30 01  fP..P...P..kru0.
06C0: F6 06 02 87 7F 51 80 80  DC 06 66 52 80 B8 50 12  .....Q....fR..P.
06D0: 01 B8 50 12 01 6B 72 75  30 01 F6 06 02 87 7F 40  ..P..kru0......@
06E0: 80 80 F6 06 66 53 80 B8  50 12 01 B8 50 12 01 6B  ....fS..P...P..k
06F0: 72 75 30 01 F6 06 5F 03  54 80 BE 50 12 01 BE 50  ru0..._.T..P...P
0700: 12 01 6D 65 74 30 D0 55  80 BE 50 12 01 BE 50 12  ..met0.U..P...P.
0710: 01 67 6E 67 30 01 80 1C  02 80 45 15 80 F8 FF FF  .gng0.....E.....
0720: 7F F8 FF FF 7F 73 31 36  32 01 80 1C 16 80 45 03  .....s162.....E.
0730: 80 F8 FF FF 7F F8 FF FF  7F 66 64 69 31 01 80 2B  .........fdi1..+
0740: AD 50 12 01 56 80 1C 19  80 5B 49 80 AD 50 12 01  .P..V....[I..P..
0750: AD 50 12 01 62 74 6C 31  52 15 80 F8 FF FF 7F F8  .P..btl1R.......
0760: FF FF 7F 73 31 36 32 45  15 80 F8 FF FF 7F F8 FF  ...s162E........
0770: FF 7F 73 31 36 33 01 80  1C 22 80 D0 55 80 BE 50  ..s163..."..U..P
0780: 12 01 BE 50 12 01 6C 70  6B 6C 01 80 6B 69 64 6C  ...P..lpkl..kidl
0790: 30 BE 50 12 01 4E 01 BE  50 12 01 1C 22 80 23 D0  0.P..N..P...".#.
07A0: 55 80 B8 50 12 01 B8 50  12 01 67 6E 68 31 01 80  U..P...P..gnh1..
07B0: 52 15 80 F8 FF FF 7F F8  FF FF 7F 73 31 36 33 45  R..........s163E
07C0: 15 80 F8 FF FF 7F F8 FF  FF 7F 73 31 32 39 01 80  ..........s129..
07D0: 2B AD 50 12 01 57 80 1C  20 80 52 15 80 F8 FF FF  +.P..W.. .R.....
07E0: 7F F8 FF FF 7F 73 31 32  39 02 87 7F 00 80 80 14  .....s129.......
07F0: 08 45 15 80 F8 FF FF 7F  F8 FF FF 7F 73 31 33 30  .E..........s130
0800: 01 80 66 4A 80 B8 50 12  01 B8 50 12 01 6B 72 75  ..fJ..P...P..kru
0810: 31 01 41 09 02 87 7F 31  80 80 3F 08 45 15 80 F8  1.A....1..?.E...
0820: FF FF 7F F8 FF FF 7F 73  31 33 30 01 80 66 4B 80  .......s130..fK.
0830: B8 50 12 01 B8 50 12 01  6B 72 75 31 01 41 09 02  .P...P..kru1.A..
0840: 87 7F 4C 80 80 6A 08 45  15 80 F8 FF FF 7F F8 FF  ..L..j.E........
0850: FF 7F 73 31 33 31 01 80  66 4D 80 B8 50 12 01 B8  ..s131..fM..P...
0860: 50 12 01 6B 72 75 31 01  41 09 02 87 7F 4E 80 80  P..kru1.A....N..
0870: 95 08 45 15 80 F8 FF FF  7F F8 FF FF 7F 73 31 33  ..E..........s13
0880: 31 01 80 66 4F 80 B8 50  12 01 B8 50 12 01 6B 72  1..fO..P...P..kr
0890: 75 31 01 41 09 02 87 7F  1A 80 80 C0 08 45 15 80  u1.A.........E..
08A0: F8 FF FF 7F F8 FF FF 7F  73 31 33 32 01 80 66 50  ........s132..fP
08B0: 80 B8 50 12 01 B8 50 12  01 6B 72 75 31 01 41 09  ..P...P..kru1.A.
08C0: 02 87 7F 1B 80 80 EB 08  45 15 80 F8 FF FF 7F F8  ........E.......
08D0: FF FF 7F 73 31 33 32 01  80 66 50 80 B8 50 12 01  ...s132..fP..P..
08E0: B8 50 12 01 6B 72 75 31  01 41 09 02 87 7F 51 80  .P..kru1.A....Q.
08F0: 80 16 09 45 15 80 F8 FF  FF 7F F8 FF FF 7F 73 31  ...E..........s1
0900: 33 30 01 80 66 52 80 B8  50 12 01 B8 50 12 01 6B  30..fR..P...P..k
0910: 72 75 31 01 41 09 02 87  7F 40 80 80 41 09 45 15  ru1.A....@..A.E.
0920: 80 F8 FF FF 7F F8 FF FF  7F 73 31 33 31 01 80 66  .........s131..f
0930: 53 80 B8 50 12 01 B8 50  12 01 6B 72 75 31 01 41  S..P...P..kru1.A
0940: 09 23 2B AD 50 12 01 58  80 23 2B AD 50 12 01 59  .#+.P..X.#+.P..Y
0950: 80 23 45 03 80 F8 FF FF  7F F8 FF FF 7F 66 64 6F  .#E..........fdo
0960: 31 01 80 55 03 80 F8 FF  FF 7F F8 FF FF 7F 66 64  1..U..........fd
0970: 6F 31 52 15 80 F8 FF FF  7F F8 FF FF 7F 73 31 33  o1R..........s13
0980: 30 52 15 80 F8 FF FF 7F  F8 FF FF 7F 73 31 33 31  0R..........s131
0990: 52 15 80 F8 FF FF 7F F8  FF FF 7F 73 31 33 32 D0  R..........s132.
09A0: 55 80 B8 50 12 01 B8 50  12 01 67 6E 68 32 01 80  U..P...P..gnh2..
09B0: D0 3C 80 AD 50 12 01 AD  50 12 01 6B 6C 6B 79 01  .<..P...P..klky.
09C0: 80 78 6B 69 64 6C 30 B8  50 12 01 27 05 B8 50 12  .xkidl0.P..'..P.
09D0: 01 05 2C AD 50 12 01 AD  50 12 01 77 33 6F 66 2F  ..,.P...P..w3of/
09E0: 00 AB 50 12 01 4E 00 AB  50 12 01 94 01 AB 50 12  ..P..N..P.....P.
09F0: 01 59 05 AB 50 12 01 01  BA AB 50 12 01 09 80 0A  .Y..P.....P.....
0A00: 80 0B 80 0C 80 BA AC 50  12 01 5A 80 5B 80 0B 80  .......P..Z.[...
0A10: 0C 80 BA AD 50 12 01 09  80 0A 80 0B 80 0C 80 BA  ....P...........
0A20: F0 FF FF 7F 5C 80 5D 80  0B 80 0F 80 80 AB 50 12  ....\.].......P.
0A30: 01 80 AD 50 12 01 80 F0  FF FF 7F 81 01 AD 50 12  ...P..........P.
0A40: 01 7C 01 AD 50 12 01 4A  AD 50 12 01 F0 FF FF 7F  .|..P..J.P......
0A50: 4A F0 FF FF 7F AD 50 12  01 7B AD 50 12 01 1C 29  J.....P..{.P...)
0A60: 80 45 15 80 F8 FF FF 7F  F8 FF FF 7F 73 31 33 33  .E..........s133
0A70: 01 80 1C 16 80 45 03 80  F8 FF FF 7F F8 FF FF 7F  .....E..........
0A80: 66 64 69 31 01 80 81 00  AD 50 12 01 5F 05 5E 80  fdi1.....P.._.^.
0A90: AD 50 12 01 AD 50 12 01  6E 6F 6E 30 3D 80 2B AD  .P...P..non0=.+.
0AA0: 50 12 01 5F 80 23 2B AD  50 12 01 60 80 23 5F 07  P.._.#+.P..`.#_.
0AB0: AD 50 12 01 AD 50 12 01  6E 6F 6E 30 81 01 AD 50  .P...P..non0...P
0AC0: 12 01 5F 05 61 80 AD 50  12 01 AD 50 12 01 6F 6A  .._.a..P...P..oj
0AD0: 69 30 62 80 1C 18 80 52  15 80 F8 FF FF 7F F8 FF  i0b....R........
0AE0: FF 7F 73 31 33 33 45 15  80 F8 FF FF 7F F8 FF FF  ..s133E.........
0AF0: 7F 73 31 33 34 01 80 2B  AD 50 12 01 63 80 1C 19  .s134..+.P..c...
0B00: 80 52 15 80 F8 FF FF 7F  F8 FF FF 7F 73 31 33 34  .R..........s134
0B10: 45 15 80 F8 FF FF 7F F8  FF FF 7F 73 31 33 35 01  E..........s135.
0B20: 80 23 24 64 80 01 80 01  80 25 02 00 10 00 80 00  .#$d.....%......
0B30: AC 0B 5F 07 AD 50 12 01  AD 50 12 01 6F 6A 69 30  .._..P...P..oji0
0B40: 52 15 80 F8 FF FF 7F F8  FF FF 7F 73 31 33 35 45  R..........s135E
0B50: 15 80 F8 FF FF 7F F8 FF  FF 7F 73 31 33 36 01 80  ..........s136..
0B60: 81 00 AD 50 12 01 5B 5E  80 AD 50 12 01 AD 50 12  ...P..[^..P...P.
0B70: 01 6E 6F 6E 30 2B AD 50  12 01 65 80 1C 3D 80 81  .non0+.P..e..=..
0B80: 01 AD 50 12 01 23 52 15  80 F8 FF FF 7F F8 FF FF  ..P..#R.........
0B90: 7F 73 31 33 36 45 15 80  F8 FF FF 7F F8 FF FF 7F  .s136E..........
0BA0: 73 31 33 35 01 80 01 22  0B 01 39 0C 02 00 10 31  s135..."..9....1
0BB0: 80 00 39 0C 5F 07 AD 50  12 01 AD 50 12 01 6F 6A  ..9._..P...P..oj
0BC0: 69 30 5B 66 80 AD 50 12  01 AD 50 12 01 74 6C 62  i0[f..P...P..tlb
0BD0: 30 52 15 80 F8 FF FF 7F  F8 FF FF 7F 73 31 33 35  0R..........s135
0BE0: 45 15 80 F8 FF FF 7F F8  FF FF 7F 73 31 33 37 01  E..........s137.
0BF0: 80 2B AD 50 12 01 67 80  23 2B AD 50 12 01 68 80  .+.P..g.#+.P..h.
0C00: 23 5B 66 80 AD 50 12 01  AD 50 12 01 74 6C 62 31  #[f..P...P..tlb1
0C10: 1C 02 80 52 15 80 F8 FF  FF 7F F8 FF FF 7F 73 31  ...R..........s1
0C20: 33 37 45 15 80 F8 FF FF  7F F8 FF FF 7F 73 31 33  37E..........s13
0C30: 35 01 80 01 22 0B 01 39  0C 5F 07 AD 50 12 01 AD  5..."..9._..P...
0C40: 50 12 01 6F 6A 69 30 5B  1C 80 AD 50 12 01 AD 50  P..oji0[...P...P
0C50: 12 01 74 6C 63 30 52 15  80 F8 FF FF 7F F8 FF FF  ..tlc0R.........
0C60: 7F 73 31 33 35 45 15 80  F8 FF FF 7F F8 FF FF 7F  .s135E..........
0C70: 73 31 33 38 01 80 2B AD  50 12 01 69 80 23 52 15  s138..+.P..i.#R.
0C80: 80 F8 FF FF 7F F8 FF FF  7F 73 31 33 38 45 15 80  .........s138E..
0C90: F8 FF FF 7F F8 FF FF 7F  73 31 33 39 01 80 2B AD  ........s139..+.
0CA0: 50 12 01 6A 80 23 5B 1C  80 AD 50 12 01 AD 50 12  P..j.#[...P...P.
0CB0: 01 74 6C 63 31 27 05 F0  FF FF 7F 09 1C 6B 80 27  .tlc1'.......k.'
0CC0: 05 F0 FF FF 7F 0A 1C 6C  80 5B 1C 80 AD 50 12 01  .......l.[...P..
0CD0: AD 50 12 01 62 69 6B 30  52 15 80 F8 FF FF 7F F8  .P..bik0R.......
0CE0: FF FF 7F 73 31 33 39 45  15 80 F8 FF FF 7F F8 FF  ...s139E........
0CF0: FF 7F 73 31 34 30 01 80  2B AD 50 12 01 6D 80 1C  ..s140..+.P..m..
0D00: 17 80 23 52 15 80 F8 FF  FF 7F F8 FF FF 7F 73 31  ..#R..........s1
0D10: 34 30 02 87 7F 1A 80 80  2E 0D 45 15 80 F8 FF FF  40........E.....
0D20: 7F F8 FF FF 7F 73 31 36  35 01 80 01 5B 0D 02 87  .....s165...[...
0D30: 7F 1B 80 80 4A 0D 45 15  80 F8 FF FF 7F F8 FF FF  ....J.E.........
0D40: 7F 73 31 36 35 01 80 01  5B 0D 45 15 80 F8 FF FF  .s165...[.E.....
0D50: 7F F8 FF FF 7F 73 31 36  34 01 80 6E F0 FF FF 7F  .....s164..n....
0D60: 6E 80 99 F0 FF FF 7F 1C  02 80 52 15 80 F8 FF FF  n.........R.....
0D70: 7F F8 FF FF 7F 73 31 36  34 52 15 80 F8 FF FF 7F  .....s164R......
0D80: F8 FF FF 7F 73 31 36 35  45 15 80 F8 FF FF 7F F8  ....s165E.......
0D90: FF FF 7F 73 31 34 31 01  80 5F 05 1C 80 AD 50 12  ...s141.._....P.
0DA0: 01 AD 50 12 01 62 69 6B  31 6F 80 2B AD 50 12 01  ..P..bik1o.+.P..
0DB0: 70 80 23 2B AD 50 12 01  71 80 23 02 02 00 01 80  p.#+.P..q.#.....
0DC0: 00 3F 0E 52 15 80 F8 FF  FF 7F F8 FF FF 7F 73 31  .?.R..........s1
0DD0: 34 31 45 15 80 F8 FF FF  7F F8 FF FF 7F 73 31 34  41E..........s14
0DE0: 32 01 80 5B 72 80 AD 50  12 01 AD 50 12 01 6D 61  2..[r..P...P..ma
0DF0: 67 30 2B AD 50 12 01 73  80 1C 3D 80 23 5F 05 72  g0+.P..s..=.#_.r
0E00: 80 AD 50 12 01 AD 50 12  01 6D 61 67 31 17 80 2B  ..P...P..mag1..+
0E10: AD 50 12 01 74 80 23 2B  AD 50 12 01 75 80 23 5F  .P..t.#+.P..u.#_
0E20: 07 AD 50 12 01 AD 50 12  01 6D 61 67 31 52 15 80  ..P...P..mag1R..
0E30: F8 FF FF 7F F8 FF FF 7F  73 31 34 32 01 8A 0E 27  ........s142...'
0E40: 05 F0 FF FF 7F 09 1C 6B  80 27 05 F0 FF FF 7F 0A  .......k.'......
0E50: 1C 6C 80 52 15 80 F8 FF  FF 7F F8 FF FF 7F 73 31  .l.R..........s1
0E60: 34 31 45 15 80 F8 FF FF  7F F8 FF FF 7F 73 31 34  41E..........s14
0E70: 33 01 80 2B AD 50 12 01  76 80 23 52 15 80 F8 FF  3..+.P..v.#R....
0E80: FF 7F F8 FF FF 7F 73 31  34 33 45 15 80 F8 FF FF  ......s143E.....
0E90: 7F F8 FF FF 7F 73 31 34  34 01 80 5B 66 80 AD 50  .....s144..[f..P
0EA0: 12 01 AD 50 12 01 74 6C  6B 30 2B AD 50 12 01 77  ...P..tlk0+.P..w
0EB0: 80 23 2B AD 50 12 01 78  80 23 5B 66 80 AD 50 12  .#+.P..x.#[f..P.
0EC0: 01 AD 50 12 01 74 6C 6B  31 5D 01 80 19 80 52 15  ..P..tlk1]....R.
0ED0: 80 F8 FF FF 7F F8 FF FF  7F 73 31 34 34 45 15 80  .........s144E..
0EE0: F8 FF FF 7F F8 FF FF 7F  73 31 34 35 01 80 27 05  ........s145..'.
0EF0: F0 FF FF 7F 20 1C 3D 80  81 00 AD 50 12 01 7C 00  .... .=....P..|.
0F00: AD 50 12 01 5B 79 80 AD  50 12 01 AD 50 12 01 68  .P..[y..P...P..h
0F10: 69 7A 30 1C 7A 80 52 15  80 F8 FF FF 7F F8 FF FF  iz0.z.R.........
0F20: 7F 73 31 34 35 45 15 80  F8 FF FF 7F F8 FF FF 7F  .s145E..........
0F30: 73 31 34 36 01 80 1C 7B  80 4E 00 AC 50 12 01 1C  s146...{.N..P...
0F40: 22 80 81 00 AC 50 12 01  7C 00 AC 50 12 01 5B 7C  "....P..|..P..[|
0F50: 80 AC 50 12 01 AC 50 12  01 73 69 6E 30 1C 7A 80  ..P...P..sin0.z.
0F60: 52 15 80 F8 FF FF 7F F8  FF FF 7F 73 31 34 36 45  R..........s146E
0F70: 15 80 F8 FF FF 7F F8 FF  FF 7F 73 31 34 37 01 80  ..........s147..
0F80: D0 7D 80 AC 50 12 01 AC  50 12 01 6B 69 65 30 01  .}..P...P..kie0.
0F90: 80 2B AD 50 12 01 7E 80  1C 29 80 27 05 AD 50 12  .+.P..~..).'..P.
0FA0: 01 01 4E 01 F0 FF FF 7F  BA AD 50 12 01 09 80 0A  ..N.......P.....
0FB0: 80 0B 80 0C 80 1C 22 80  23 5B 7C 80 AC 50 12 01  ......".#[|..P..
0FC0: AC 50 12 01 73 69 6E 31  52 15 80 F8 FF FF 7F F8  .P..sin1R.......
0FD0: FF FF 7F 73 31 34 37 45  15 80 F8 FF FF 7F F8 FF  ...s147E........
0FE0: FF 7F 73 31 34 38 01 80  1C 02 80 2B AD 50 12 01  ..s148.....+.P..
0FF0: 7F 80 1C 17 80 23 52 15  80 F8 FF FF 7F F8 FF FF  .....#R.........
1000: 7F 73 31 34 38 5F 03 80  80 AB 50 12 01 AB 50 12  .s148_....P...P.
1010: 01 6B 72 61 30 CD 81 80  F8 FF FF 7F F8 FF FF 7F  .kra0...........
1020: 6D 65 6D 30 01 80 D0 7D  80 AC 50 12 01 AC 50 12  mem0...}..P...P.
1030: 01 6B 6C 30 30 01 80 4E  01 AC 50 12 01 1C 2C 80  .kl00..N..P...,.
1040: 5B 79 80 AD 50 12 01 AD  50 12 01 68 69 7A 31 D0  [y..P...P..hiz1.
1050: 7D 80 AD 50 12 01 AD 50  12 01 6B 69 65 31 01 80  }..P...P..kie1..
1060: 1C 82 80 27 05 AD 50 12  01 02 5F 03 83 80 AB 50  ...'..P..._....P
1070: 12 01 AB 50 12 01 63 6D  6F 66 5F 02 AB 50 12 01  ...P..cmof_..P..
1080: 45 15 80 F8 FF FF 7F F8  FF FF 7F 73 31 34 39 01  E..........s149.
1090: 80 CD 81 80 F8 FF FF 7F  F8 FF FF 7F 73 74 6D 30  ............stm0
10A0: 01 80 1C 84 80 45 03 80  F8 FF FF 7F F8 FF FF 7F  .....E..........
10B0: 66 64 6F 31 01 80 55 03  80 F8 FF FF 7F F8 FF FF  fdo1..U.........
10C0: 7F 66 64 6F 31 52 15 80  F8 FF FF 7F F8 FF FF 7F  .fdo1R..........
10D0: 73 31 34 39 29 05 AC 50  12 01 11 5C 00 01 80 5C  s149)..P...\...\
10E0: 01 01 80 9A 46 00 45 03  80 F8 FF FF 7F F8 FF FF  ....F.E.........
10F0: 7F 66 64 69 32 01 80 1B                           .fdi2...        
```

#### Opcodes

```
  0: 0x0007 [0x42] SET_CLI_EVENT_CANCEL_DATA()
  1: 0x0008 [0x03] Work_Zone[1] = 1*
  2: 0x000D [0x43] SEND_EVENT_UPDATE: Send pending tag to server (packet 0x005B)
  3: 0x000F [0x43] SEND_EVENT_UPDATE: Check pending flag (skip if not pending)
  4: 0x0011 [0x1A] CALL_SUBROUTINE(address=0x0016)
  5: 0x0014 [0x21] END_EVENT
  6: 0x0015 [0x00] END_REQSTACK()

SUBROUTINE_0016:
  7: 0x0016 [0x03] ExtData[1]->WorkLocal[1] = Work_Zone[2]
  8: 0x001B [0x03] ExtData[1]->WorkLocal[3] = Work_Zone[3]
  9: 0x0020 [0x03] ExtData[1]->WorkLocal[4] = Work_Zone[4]
 10: 0x0025 [0x03] ExtData[1]->WorkLocal[5] = Work_Zone[5]
 11: 0x002A [0x03] ExtData[1]->WorkLocal[6] = Work_Zone[6]
 12: 0x002F [0x03] ExtData[1]->WorkLocal[7] = Work_Zone[7]
 13: 0x0034 [0x03] ExtData[1]->WorkLocal[2] = Work_Zone[8]
 14: 0x0039 [0x5D] SET_MUSIC_VOLUME(volume=0*, fade_time=120*)
 15: 0x003E [0x45] LOAD_SCHEDULED_TASK: Load scheduler "fdo1" with entities [EventEntity, EventEntity], work=[200*, 0*]
 16: 0x004F [0x55] WAIT_LOAD_SCHEDULER: Wait for scheduler "fdo1" with entities [EventEntity, EventEntity], work=200*
 17: 0x005E [0x46] CAMERA_CONTROL: Disable user control
 18: 0x0060 [0x38] SET_CLIENT_EVENT_MODE(mode=27*)
 19: 0x0063 [0x2F] Iroha (ID: 17977517/0x011250AD)->Render.Flags0 &= ~0x80000 // Bit 19
 20: 0x0069 [0x2F] ??? (ID: 17977516/0x011250AC)->Render.Flags0 &= ~0x80000 // Bit 19
 21: 0x006F [0x4E] SET_ENTITY_HIDE_FLAG: Show LocalPlayer
 22: 0x0075 [0x4E] SET_ENTITY_HIDE_FLAG: Show Iroha (ID: 17977517/0x011250AD)
 23: 0x007B [0x4E] SET_ENTITY_HIDE_FLAG: Show ??? (ID: 17977516/0x011250AC)
 24: 0x0081 [0x22] ENTITY_HIDE_FLAG(enabled=0x00)
 25: 0x0083 [0x92] Iroha (ID: 17977517/0x011250AD)->Render.Flags3 ^= 0x01
 26: 0x0089 [0x92] ??? (ID: 17977516/0x011250AC)->Render.Flags3 ^= 0x01
 27: 0x008F [0x94] ??? (ID: 17977516/0x011250AC)->Render.Flags3 ^= 0x01
 28: 0x0095 [0x94] LocalPlayer->Render.Flags3 ^= 0x01
 29: 0x009B [0x94] Iroha (ID: 17977517/0x011250AD)->Render.Flags3 ^= 0x01
 30: 0x00A1 [0x59] UPDATE_ENTITY_DATA: ??? (ID: 17977516/0x011250AC)->Render.Flags0 |= 0x200000
 31: 0x00A8 [0x33] EventEntity->Render.Flags0 |= 0x200000 // Bit 21 (flag=0x01)
 32: 0x00AA [0xBA] SET_ENTITY_POSITION(entity_id=??? (ID: 17977516/0x011250AC), pos_x=15.087*, pos_z=502.291*, pos_y=-1.124*, direction=160.4*)
 33: 0x00B7 [0xBA] SET_ENTITY_POSITION(entity_id=Iroha (ID: 17977517/0x011250AD), pos_x=-1.199*, pos_z=13.249*, pos_y=3.999*, direction=273.9*)
 34: 0x00C4 [0xBA] SET_ENTITY_POSITION(entity_id=LocalPlayer, pos_x=1.212*, pos_z=10.532*, pos_y=3.999*, direction=271.8*)
 35: 0x00D1 [0x37] UPDATE_EVENT_POSITION_AND_DIR: x=0.241*, z=20.847*, y=2.000*, direction=257.5*
 36: 0x00DA [0x80] LOAD_WAIT(entity=Iroha (ID: 17977517/0x011250AD))
 37: 0x00DF [0x80] LOAD_WAIT(entity=LocalPlayer)
 38: 0x00E4 [0x80] LOAD_WAIT(entity=EventEntity)
 39: 0x00E9 [0x80] LOAD_WAIT(entity=??? (ID: 17977516/0x011250AC))
 40: 0x00EE [0x5C] MUSIC_CONTROL: Set Idle (Day) music to song 79*
 41: 0x00F2 [0x5C] MUSIC_CONTROL: Set Idle (Night) music to song 79*
 42: 0x00F6 [0x9A] WAIT_MUSIC_SERVER()
 43: 0x00F7 [0x45] LOAD_SCHEDULED_TASK: Load scheduler "s159" with entities [EventEntity, EventEntity], work=[772*, 0*]
 44: 0x0108 [0x1C] WAIT(15* ticks)
 45: 0x010B [0x45] LOAD_SCHEDULED_TASK: Load scheduler "fdi1" with entities [EventEntity, EventEntity], work=[200*, 0*]
 46: 0x011C [0x1C] WAIT(100* ticks)
 47: 0x011F [0x27] REQ_SET(priority=0x05, entity_id=LocalPlayer, tag_num=0x16)
 48: 0x0126 [0x1C] WAIT(20* ticks)
 49: 0x0129 [0x52] END_LOAD_SCHEDULER: End scheduler "s159" with entities [EventEntity, EventEntity], work=772*
 50: 0x0138 [0x45] LOAD_SCHEDULED_TASK: Load scheduler "s160" with entities [EventEntity, EventEntity], work=[772*, 0*]
 51: 0x0149 [0x1C] WAIT(150* ticks)
 52: 0x014C [0x45] LOAD_SCHEDULED_TASK: Load scheduler "ovl1" with entities [LocalPlayer, LocalPlayer], work=[200*, 0*]
 53: 0x015D [0x52] END_LOAD_SCHEDULER: End scheduler "s160" with entities [EventEntity, EventEntity], work=772*
 54: 0x016C [0x45] LOAD_SCHEDULED_TASK: Load scheduler "s123" with entities [EventEntity, EventEntity], work=[772*, 0*]
 55: 0x017D [0x1C] WAIT(150* ticks)
 56: 0x0180 [0x52] END_LOAD_SCHEDULER: End scheduler "s123" with entities [EventEntity, EventEntity], work=772*
 57: 0x018F [0x02] IF !(LocalPlayer->Race == 5*) GOTO 0x01AB
 58: 0x0197 [0x45] LOAD_SCHEDULED_TASK: Load scheduler "s125" with entities [EventEntity, EventEntity], work=[772*, 0*]
 59: 0x01A8 [0x01] GOTO 0x01D8
 60: 0x01AB [0x02] IF !(LocalPlayer->Race == 6*) GOTO 0x01C7
 61: 0x01B3 [0x45] LOAD_SCHEDULED_TASK: Load scheduler "s125" with entities [EventEntity, EventEntity], work=[772*, 0*]
 62: 0x01C4 [0x01] GOTO 0x01D8
 63: 0x01C7 [0x45] LOAD_SCHEDULED_TASK: Load scheduler "s124" with entities [EventEntity, EventEntity], work=[772*, 0*]

SUBROUTINE_01D8:
 64: 0x01D8 [0x5B] LOAD_EXT_SCHEDULER: Load scheduler "tlc0" with entities [Iroha (ID: 17977517/0x011250AD), Iroha (ID: 17977517/0x011250AD)], work=3863*
 65: 0x01E7 [0x2B] Iroha (ID: 17977517/0x011250AD) [7720*]:
     "Master, as you have doubtlessly realized, this is the crystal that Selh'teus relinquished his corporeal form to create."
 66: 0x01EE [0x23] WAIT_FOR_DIALOG_INTERACTION
 67: 0x01EF [0x2B] Iroha (ID: 17977517/0x011250AD) [7721*]:
     "Though the crystal may still be young, its light shines as brightly as any other."
 68: 0x01F6 [0x23] WAIT_FOR_DIALOG_INTERACTION
 69: 0x01F7 [0x52] END_LOAD_SCHEDULER: End scheduler "s124" with entities [EventEntity, EventEntity], work=772*
 70: 0x0206 [0x52] END_LOAD_SCHEDULER: End scheduler "s125" with entities [EventEntity, EventEntity], work=772*
 71: 0x0215 [0x45] LOAD_SCHEDULED_TASK: Load scheduler "s126" with entities [EventEntity, EventEntity], work=[772*, 0*]
 72: 0x0226 [0xC5] LOAD_SCHEDULED_TASK_ALT3: Load scheduler 0x80013430 for entities [EventEntity, EventEntity], work=93*, param=12403
 73: 0x0237 [0x45] LOAD_SCHEDULED_TASK: Load scheduler "1058" with entities [EventEntity, EventEntity], work=[200*, 0*]
 74: 0x0248 [0x1C] WAIT(180* ticks)
 75: 0x024B [0x52] END_LOAD_SCHEDULER: End scheduler "s126" with entities [EventEntity, EventEntity], work=772*
 76: 0x025A [0xC5] LOAD_SCHEDULED_TASK_ALT3: Load scheduler 0x80016E69 for entities [??? (ID: 17977516/0x011250AC), ??? (ID: 17977516/0x011250AC)], work=89*, param=24941
 77: 0x026B [0x1C] WAIT(60* ticks)
 78: 0x026E [0x45] LOAD_SCHEDULED_TASK: Load scheduler "s127" with entities [EventEntity, EventEntity], work=[772*, 0*]
 79: 0x027F [0xC5] LOAD_SCHEDULED_TASK_ALT3: Load scheduler 0x80013470 for entities [EventEntity, EventEntity], work=93*, param=29811
 80: 0x0290 [0x02] IF !(ExtData[1]->WorkLocal[1] == 1*) GOTO 0x02A3
 81: 0x0298 [0x2B] Iroha (ID: 17977517/0x011250AD) [7722*]:
     "The Emptiness that remains in the Far East in the future will be banished thanks to this beacon of hope."
 82: 0x029F [0x23] WAIT_FOR_DIALOG_INTERACTION
 83: 0x02A0 [0x01] GOTO 0x02AB
 84: 0x02A3 [0x2B] Iroha (ID: 17977517/0x011250AD) [7723*]:
     "The Emptiness that had been eating away at the Far East will be banished thanks to this beacon of hope."
 85: 0x02AA [0x23] WAIT_FOR_DIALOG_INTERACTION

SUBROUTINE_02AB:
 86: 0x02AB [0x2B] Iroha (ID: 17977517/0x011250AD) [7724*]:
     "But despite this, the coming darkness will not be stopped."
 87: 0x02B2 [0x23] WAIT_FOR_DIALOG_INTERACTION
 88: 0x02B3 [0x45] LOAD_SCHEDULED_TASK: Load scheduler "fdo1" with entities [EventEntity, EventEntity], work=[200*, 0*]
 89: 0x02C4 [0x55] WAIT_LOAD_SCHEDULER: Wait for scheduler "fdo1" with entities [EventEntity, EventEntity], work=200*
 90: 0x02D3 [0x52] END_LOAD_SCHEDULER: End scheduler "s127" with entities [EventEntity, EventEntity], work=772*
 91: 0x02E2 [0xC5] LOAD_SCHEDULED_TASK_ALT3: Load scheduler 0x8001616C for entities [??? (ID: 17977516/0x011250AC), ??? (ID: 17977516/0x011250AC)], work=89*, param=26987
 92: 0x02F3 [0x27] REQ_SET(priority=0x05, entity_id=??? (ID: 17977516/0x011250AC), tag_num=0x03)
 93: 0x02FA [0x1A] CALL_SUBROUTINE(address=0x8176)
 94: 0x02FD [0x89] OPEN_MAP(map_id=0x00008026)
 95: 0x0300 [0x1C] WAIT(60* ticks)
 96: 0x0303 [0xB4] UI_WINDOW_STRING_HANDLER(case=0x14 - Update map window values, work_offset1=1000*, work_offset2=1000*, work_offset3=1300*, work_offset4=0*, work_offset5=1*)
 97: 0x030F [0x1C] WAIT(30* ticks)
 98: 0x0312 [0xB4] UI_WINDOW_STRING_HANDLER(case=0x14 - Update map window values, work_offset1=1000*, work_offset2=1000*, work_offset3=1300*, work_offset4=0*, work_offset5=1*)
 99: 0x031E [0x03] Work_Zone[2] = 150*
100: 0x0323 [0x27] REQ_SET(priority=0x10, entity_id=??? (ID: 17977511/0x011250A7), tag_num=0x01)
101: 0x032A [0x1A] CALL_SUBROUTINE(address=0x8164)
102: 0x032D [0x2B] Iroha (ID: 17977517/0x011250AD) [7725*]:
     "Ere long, a murky gloom will seep forth from mothercrystals throughout Vana'diel--a corrosive force destroying them from within."
103: 0x0334 [0x23] WAIT_FOR_DIALOG_INTERACTION
104: 0x0335 [0x2A] GET_REQ_LEVEL(level=16, entity_id=??? (ID: 17977511/0x011250A7))
105: 0x033B [0x1A] CALL_SUBROUTINE(address=0x8176)
106: 0x033E [0x89] OPEN_MAP(map_id=0x0000802B)
107: 0x0341 [0x1C] WAIT(60* ticks)
108: 0x0344 [0xB4] UI_WINDOW_STRING_HANDLER(case=0x14 - Update map window values, work_offset1=1000*, work_offset2=1000*, work_offset3=1300*, work_offset4=0*, work_offset5=1*)
109: 0x0350 [0x1C] WAIT(60* ticks)
110: 0x0353 [0xB4] UI_WINDOW_STRING_HANDLER(case=0x14 - Update map window values, work_offset1=1000*, work_offset2=1000*, work_offset3=1000*, work_offset4=300*, work_offset5=1*)
111: 0x035F [0x03] Work_Zone[2] = 150*
112: 0x0364 [0x27] REQ_SET(priority=0x10, entity_id=??? (ID: 17977511/0x011250A7), tag_num=0x01)
113: 0x036B [0x1A] CALL_SUBROUTINE(address=0x8164)
114: 0x036E [0x2B] Iroha (ID: 17977517/0x011250AD) [7726*]:
     "This crystal--and this crystal alone--remained safe thanks to you, Master, and your allies."
115: 0x0375 [0x23] WAIT_FOR_DIALOG_INTERACTION
116: 0x0376 [0x2B] Iroha (ID: 17977517/0x011250AD) [7727*]:
     "My prayers were answered, erecting an ethereal shield to shelter this area from harm."
117: 0x037D [0x23] WAIT_FOR_DIALOG_INTERACTION
118: 0x037E [0x2B] Iroha (ID: 17977517/0x011250AD) [7728*]:
     "And as such, Reisenjima remained the only land that the void did not overcome."
119: 0x0385 [0x23] WAIT_FOR_DIALOG_INTERACTION
120: 0x0386 [0x2A] GET_REQ_LEVEL(level=16, entity_id=??? (ID: 17977511/0x011250A7))
121: 0x038C [0x1A] CALL_SUBROUTINE(address=0x8176)
122: 0x038F [0x8A] CLOSE_MAP()
123: 0x0390 [0xB4] UI_WINDOW_STRING_HANDLER(case=0x15 - Test map window validity)
124: 0x0392 [0x1A] CALL_SUBROUTINE(address=0x8164)
125: 0x0395 [0x77] SET_EVENT_TIME_WEATHER(hour=255*, weather=2*)
126: 0x039A [0x4E] SET_ENTITY_HIDE_FLAG: Hide ??? (ID: 17977516/0x011250AC)
127: 0x03A0 [0x2F] Disjoined One (ID: 17977519/0x011250AF)->Render.Flags0 &= ~0x80000 // Bit 19
128: 0x03A6 [0x2F] Unnamed NPC (ID: 17977528/0x011250B8)->Render.Flags0 &= ~0x80000 // Bit 19
129: 0x03AC [0x4E] SET_ENTITY_HIDE_FLAG: Show Disjoined One (ID: 17977519/0x011250AF)
130: 0x03B2 [0x4E] SET_ENTITY_HIDE_FLAG: Show Unnamed NPC (ID: 17977528/0x011250B8)
131: 0x03B8 [0x92] Disjoined One (ID: 17977519/0x011250AF)->Render.Flags3 ^= 0x01
132: 0x03BE [0x94] Disjoined One (ID: 17977519/0x011250AF)->Render.Flags3 ^= 0x01
133: 0x03C4 [0x94] Unnamed NPC (ID: 17977528/0x011250B8)->Render.Flags3 ^= 0x01
134: 0x03CA [0x03] Work_Zone[3] = ExtData[1]->WorkLocal[3]
135: 0x03CF [0x29] REQ_SET_WAIT(priority=0x05, entity_id=Disjoined One (ID: 17977519/0x011250AF), tag_num=0x02)
136: 0x03D6 [0x03] Work_Zone[3] = ExtData[1]->WorkLocal[3]
137: 0x03DB [0x03] Work_Zone[4] = ExtData[1]->WorkLocal[4]
138: 0x03E0 [0x03] Work_Zone[5] = ExtData[1]->WorkLocal[5]
139: 0x03E5 [0x03] Work_Zone[6] = ExtData[1]->WorkLocal[6]
140: 0x03EA [0x03] Work_Zone[7] = ExtData[1]->WorkLocal[7]
141: 0x03EF [0x29] REQ_SET_WAIT(priority=0x05, entity_id=Unnamed NPC (ID: 17977528/0x011250B8), tag_num=0x04)
142: 0x03F6 [0x59] UPDATE_ENTITY_DATA: Unnamed NPC (ID: 17977528/0x011250B8)->Render.Flags0 |= 0x200000
143: 0x03FD [0x59] UPDATE_ENTITY_DATA: Disjoined One (ID: 17977519/0x011250AF)->Render.Flags0 |= 0x200000
144: 0x0404 [0x59] UPDATE_ENTITY_DATA: Iroha (ID: 17977517/0x011250AD)->Render.Flags0 |= 0x200000
145: 0x040B [0xBA] SET_ENTITY_POSITION(entity_id=Iroha (ID: 17977517/0x011250AD), pos_x=17.234*, pos_z=502.864*, pos_y=-0.680*, direction=91.7*)
146: 0x0418 [0xBA] SET_ENTITY_POSITION(entity_id=Disjoined One (ID: 17977519/0x011250AF), pos_x=20.115*, pos_z=503.886*, pos_y=-0.681*, direction=91.1*)
147: 0x0425 [0xBA] SET_ENTITY_POSITION(entity_id=Unnamed NPC (ID: 17977528/0x011250B8), pos_x=20.115*, pos_z=503.886*, pos_y=-0.681*, direction=91.1*)
148: 0x0432 [0x80] LOAD_WAIT(entity=Disjoined One (ID: 17977519/0x011250AF))
149: 0x0437 [0x80] LOAD_WAIT(entity=Iroha (ID: 17977517/0x011250AD))
150: 0x043C [0x4A] Iroha (ID: 17977517/0x011250AD) looks at Disjoined One (ID: 17977519/0x011250AF)
151: 0x0445 [0x4A] Disjoined One (ID: 17977519/0x011250AF) looks at Iroha (ID: 17977517/0x011250AD)
152: 0x044E [0x7B] Disjoined One (ID: 17977519/0x011250AF) stops talking
153: 0x0453 [0x7B] Iroha (ID: 17977517/0x011250AD) stops talking
154: 0x0458 [0x1C] WAIT(30* ticks)
155: 0x045B [0x27] REQ_SET(priority=0x05, entity_id=Disjoined One (ID: 17977519/0x011250AF), tag_num=0x0B)
156: 0x0462 [0x81] SET_ENTITY_BLINKING(blink_flag=0x00, entity=Iroha (ID: 17977517/0x011250AD))
157: 0x0468 [0x7C] Iroha (ID: 17977517/0x011250AD)->Render.Flags2 |= 0x00
158: 0x046E [0x5B] LOAD_EXT_SCHEDULER: Load scheduler "fn00" with entities [Iroha (ID: 17977517/0x011250AD), Iroha (ID: 17977517/0x011250AD)], work=3904*
159: 0x047D [0x5B] LOAD_EXT_SCHEDULER: Load scheduler "sei0" with entities [Iroha (ID: 17977517/0x011250AD), Iroha (ID: 17977517/0x011250AD)], work=3912*
160: 0x048C [0xD0] LOAD_SCHEDULED_TASK_ALT5: Load scheduler "kyu0" with entities [Iroha (ID: 17977517/0x011250AD), Iroha (ID: 17977517/0x011250AD)], work=[102*, 0*]
161: 0x049D [0x1C] WAIT(140* ticks)
162: 0x04A0 [0x45] LOAD_SCHEDULED_TASK: Load scheduler "s066" with entities [EventEntity, EventEntity], work=[772*, 0*]
163: 0x04B1 [0x1C] WAIT(15* ticks)
164: 0x04B4 [0x45] LOAD_SCHEDULED_TASK: Load scheduler "fdi1" with entities [EventEntity, EventEntity], work=[200*, 0*]
165: 0x04C5 [0x1C] WAIT(60* ticks)
166: 0x04C8 [0x2B] Iroha (ID: 17977517/0x011250AD) [7729*]:
     "And the night before the final struggle was to take place..."
167: 0x04CF [0x23] WAIT_FOR_DIALOG_INTERACTION
168: 0x04D0 [0x52] END_LOAD_SCHEDULER: End scheduler "s066" with entities [EventEntity, EventEntity], work=772*
169: 0x04DF [0x45] LOAD_SCHEDULED_TASK: Load scheduler "s128" with entities [EventEntity, EventEntity], work=[772*, 0*]
170: 0x04F0 [0x2B] Iroha (ID: 17977517/0x011250AD) [7730*]:
     "...you made an impossible decision."
171: 0x04F7 [0x23] WAIT_FOR_DIALOG_INTERACTION
172: 0x04F8 [0x52] END_LOAD_SCHEDULER: End scheduler "s128" with entities [EventEntity, EventEntity], work=772*
173: 0x0507 [0x02] IF !(LocalPlayer->Race == 8*) GOTO 0x0523
174: 0x050F [0x45] LOAD_SCHEDULED_TASK: Load scheduler "s026" with entities [EventEntity, EventEntity], work=[772*, 0*]
175: 0x0520 [0x01] GOTO 0x0534
176: 0x0523 [0x45] LOAD_SCHEDULED_TASK: Load scheduler "s161" with entities [EventEntity, EventEntity], work=[772*, 0*]

SUBROUTINE_0534:
177: 0x0534 [0x2B] Iroha (ID: 17977517/0x011250AD) [7731*]:
     ""Every victory comes with a price.""
178: 0x053B [0x23] WAIT_FOR_DIALOG_INTERACTION
179: 0x053C [0x2B] Iroha (ID: 17977517/0x011250AD) [7732*]:
     "Master, those were the words you spoke to me."
180: 0x0543 [0x23] WAIT_FOR_DIALOG_INTERACTION
181: 0x0544 [0x27] REQ_SET(priority=0x10, entity_id=Disjoined One (ID: 17977519/0x011250AF), tag_num=0x0E)
182: 0x054B [0x45] LOAD_SCHEDULED_TASK: Load scheduler "fdo1" with entities [EventEntity, EventEntity], work=[200*, 0*]
183: 0x055C [0x55] WAIT_LOAD_SCHEDULER: Wait for scheduler "fdo1" with entities [EventEntity, EventEntity], work=200*
184: 0x056B [0x52] END_LOAD_SCHEDULER: End scheduler "s161" with entities [EventEntity, EventEntity], work=772*
185: 0x057A [0x52] END_LOAD_SCHEDULER: End scheduler "s026" with entities [EventEntity, EventEntity], work=772*
186: 0x0589 [0x29] REQ_SET_WAIT(priority=0x05, entity_id=Disjoined One (ID: 17977519/0x011250AF), tag_num=0x0C)
187: 0x0590 [0x27] REQ_SET(priority=0x05, entity_id=Disjoined One (ID: 17977519/0x011250AF), tag_num=0x01)
188: 0x0597 [0x4E] SET_ENTITY_HIDE_FLAG: Hide Disjoined One (ID: 17977519/0x011250AF)
189: 0x059D [0xD3] CLEAR_ENTITY_MOTION_QUEUE(condition_flag=0x00, entity_server_id=0x011250AD)
190: 0x05A3 [0x2F] Unnamed NPC (ID: 17977534/0x011250BE)->Render.Flags0 &= ~0x80000 // Bit 19
191: 0x05A9 [0x4E] SET_ENTITY_HIDE_FLAG: Show Unnamed NPC (ID: 17977534/0x011250BE)
192: 0x05AF [0x94] Unnamed NPC (ID: 17977534/0x011250BE)->Render.Flags3 ^= 0x01
193: 0x05B5 [0x59] UPDATE_ENTITY_DATA: Unnamed NPC (ID: 17977534/0x011250BE)->Render.Flags0 |= 0x200000
194: 0x05BC [0x59] UPDATE_ENTITY_DATA: LocalPlayer->Render.Flags0 |= 0x200000
195: 0x05C3 [0xBA] SET_ENTITY_POSITION(entity_id=Iroha (ID: 17977517/0x011250AD), pos_x=18.959*, pos_z=501.038*, pos_y=-0.680*, direction=271.9*)
196: 0x05D0 [0xBA] SET_ENTITY_POSITION(entity_id=Unnamed NPC (ID: 17977534/0x011250BE), pos_x=20.115*, pos_z=503.886*, pos_y=-0.681*, direction=91.1*)
197: 0x05DD [0xBA] SET_ENTITY_POSITION(entity_id=LocalPlayer, pos_x=21.165*, pos_z=501.073*, pos_y=-0.680*, direction=250.0*)
198: 0x05EA [0x80] LOAD_WAIT(entity=Iroha (ID: 17977517/0x011250AD))
199: 0x05EF [0x80] LOAD_WAIT(entity=Unnamed NPC (ID: 17977534/0x011250BE))
200: 0x05F4 [0x80] LOAD_WAIT(entity=LocalPlayer)
201: 0x05F9 [0x1C] WAIT(30* ticks)
202: 0x05FC [0x27] REQ_SET(priority=0x10, entity_id=Disjoined One (ID: 17977519/0x011250AF), tag_num=0x0D)
203: 0x0603 [0x29] REQ_SET_WAIT(priority=0x10, entity_id=LocalPlayer, tag_num=0x2D)
204: 0x060A [0x5B] LOAD_EXT_SCHEDULER: Load scheduler "btll" with entities [Iroha (ID: 17977517/0x011250AD), Iroha (ID: 17977517/0x011250AD)], work=3872*
205: 0x0619 [0x2C] CREATE_SCHEDULER_TASK: Create scheduler "w3on" with entities [Iroha (ID: 17977517/0x011250AD), Iroha (ID: 17977517/0x011250AD)]
206: 0x0626 [0x02] IF !(LocalPlayer->Race == 1*) GOTO 0x0640
207: 0x062E [0x66] LOAD_EXT_SCHEDULER_MAIN: Load scheduler "kru0" with entities [Unnamed NPC (ID: 17977528/0x011250B8), Unnamed NPC (ID: 17977528/0x011250B8)], work=142*
208: 0x063D [0x01] GOTO 0x06F6
209: 0x0640 [0x02] IF !(LocalPlayer->Race == 2*) GOTO 0x065A
210: 0x0648 [0x66] LOAD_EXT_SCHEDULER_MAIN: Load scheduler "kru0" with entities [Unnamed NPC (ID: 17977528/0x011250B8), Unnamed NPC (ID: 17977528/0x011250B8)], work=152*
211: 0x0657 [0x01] GOTO 0x06F6
212: 0x065A [0x02] IF !(LocalPlayer->Race == 3*) GOTO 0x0674
213: 0x0662 [0x66] LOAD_EXT_SCHEDULER_MAIN: Load scheduler "kru0" with entities [Unnamed NPC (ID: 17977528/0x011250B8), Unnamed NPC (ID: 17977528/0x011250B8)], work=162*
214: 0x0671 [0x01] GOTO 0x06F6
215: 0x0674 [0x02] IF !(LocalPlayer->Race == 4*) GOTO 0x068E
216: 0x067C [0x66] LOAD_EXT_SCHEDULER_MAIN: Load scheduler "kru0" with entities [Unnamed NPC (ID: 17977528/0x011250B8), Unnamed NPC (ID: 17977528/0x011250B8)], work=172*
217: 0x068B [0x01] GOTO 0x06F6
218: 0x068E [0x02] IF !(LocalPlayer->Race == 5*) GOTO 0x06A8
219: 0x0696 [0x66] LOAD_EXT_SCHEDULER_MAIN: Load scheduler "kru0" with entities [Unnamed NPC (ID: 17977528/0x011250B8), Unnamed NPC (ID: 17977528/0x011250B8)], work=182*
220: 0x06A5 [0x01] GOTO 0x06F6
221: 0x06A8 [0x02] IF !(LocalPlayer->Race == 6*) GOTO 0x06C2
222: 0x06B0 [0x66] LOAD_EXT_SCHEDULER_MAIN: Load scheduler "kru0" with entities [Unnamed NPC (ID: 17977528/0x011250B8), Unnamed NPC (ID: 17977528/0x011250B8)], work=182*
223: 0x06BF [0x01] GOTO 0x06F6
224: 0x06C2 [0x02] IF !(LocalPlayer->Race == 7*) GOTO 0x06DC
225: 0x06CA [0x66] LOAD_EXT_SCHEDULER_MAIN: Load scheduler "kru0" with entities [Unnamed NPC (ID: 17977528/0x011250B8), Unnamed NPC (ID: 17977528/0x011250B8)], work=192*
226: 0x06D9 [0x01] GOTO 0x06F6
227: 0x06DC [0x02] IF !(LocalPlayer->Race == 8*) GOTO 0x06F6
228: 0x06E4 [0x66] LOAD_EXT_SCHEDULER_MAIN: Load scheduler "kru0" with entities [Unnamed NPC (ID: 17977528/0x011250B8), Unnamed NPC (ID: 17977528/0x011250B8)], work=202*
229: 0x06F3 [0x01] GOTO 0x06F6

SUBROUTINE_06F6:
230: 0x06F6 [0x5F] MULTI_HANDLER_COMPLEX(mode=0x03 - Load ext scheduler (OpCode 0x5B mode 0), ref=2667*, entity1=Unnamed NPC (ID: 17977534/0x011250BE), entity2=Unnamed NPC (ID: 17977534/0x011250BE), string="met0")
231: 0x0706 [0xD0] LOAD_SCHEDULED_TASK_ALT5: Load scheduler "gng0" with entities [Unnamed NPC (ID: 17977534/0x011250BE), Unnamed NPC (ID: 17977534/0x011250BE)], work=[158*, 0*]
232: 0x0717 [0x1C] WAIT(120* ticks)
233: 0x071A [0x45] LOAD_SCHEDULED_TASK: Load scheduler "s162" with entities [EventEntity, EventEntity], work=[772*, 0*]
234: 0x072B [0x1C] WAIT(15* ticks)
235: 0x072E [0x45] LOAD_SCHEDULED_TASK: Load scheduler "fdi1" with entities [EventEntity, EventEntity], work=[200*, 0*]
236: 0x073F [0x2B] Iroha (ID: 17977517/0x011250AD) [7733*]:
     "Your decision was made with the best of intentions, yet it was an incorrect one."
237: 0x0746 [0x1C] WAIT(150* ticks)
238: 0x0749 [0x5B] LOAD_EXT_SCHEDULER: Load scheduler "btl1" with entities [Iroha (ID: 17977517/0x011250AD), Iroha (ID: 17977517/0x011250AD)], work=3872*
239: 0x0758 [0x52] END_LOAD_SCHEDULER: End scheduler "s162" with entities [EventEntity, EventEntity], work=772*
240: 0x0767 [0x45] LOAD_SCHEDULED_TASK: Load scheduler "s163" with entities [EventEntity, EventEntity], work=[772*, 0*]
241: 0x0778 [0x1C] WAIT(60* ticks)
242: 0x077B [0xD0] LOAD_SCHEDULED_TASK_ALT5: Load scheduler "lpkl" with entities [Unnamed NPC (ID: 17977534/0x011250BE), Unnamed NPC (ID: 17977534/0x011250BE)], work=[158*, 0*]
243: 0x078C [0x6B] STOP_AND_IDLE: Unnamed NPC (ID: 17977534/0x011250BE) stops current action and resets to idle (animation="idl0")
244: 0x0795 [0x4E] SET_ENTITY_HIDE_FLAG: Hide Unnamed NPC (ID: 17977534/0x011250BE)
245: 0x079B [0x1C] WAIT(60* ticks)
246: 0x079E [0x23] WAIT_FOR_DIALOG_INTERACTION
247: 0x079F [0xD0] LOAD_SCHEDULED_TASK_ALT5: Load scheduler "gnh1" with entities [Unnamed NPC (ID: 17977528/0x011250B8), Unnamed NPC (ID: 17977528/0x011250B8)], work=[158*, 0*]
248: 0x07B0 [0x52] END_LOAD_SCHEDULER: End scheduler "s163" with entities [EventEntity, EventEntity], work=772*
249: 0x07BF [0x45] LOAD_SCHEDULED_TASK: Load scheduler "s129" with entities [EventEntity, EventEntity], work=[772*, 0*]
250: 0x07D0 [0x2B] Iroha (ID: 17977517/0x011250AD) [7734*]:
     "Why? For beyond was the cold, undying stare of another you."
251: 0x07D7 [0x1C] WAIT(180* ticks)
252: 0x07DA [0x52] END_LOAD_SCHEDULER: End scheduler "s129" with entities [EventEntity, EventEntity], work=772*
253: 0x07E9 [0x02] IF !(LocalPlayer->Race == 1*) GOTO 0x0814
254: 0x07F1 [0x45] LOAD_SCHEDULED_TASK: Load scheduler "s130" with entities [EventEntity, EventEntity], work=[772*, 0*]
255: 0x0802 [0x66] LOAD_EXT_SCHEDULER_MAIN: Load scheduler "kru1" with entities [Unnamed NPC (ID: 17977528/0x011250B8), Unnamed NPC (ID: 17977528/0x011250B8)], work=142*
256: 0x0811 [0x01] GOTO 0x0941
257: 0x0814 [0x02] IF !(LocalPlayer->Race == 2*) GOTO 0x083F
258: 0x081C [0x45] LOAD_SCHEDULED_TASK: Load scheduler "s130" with entities [EventEntity, EventEntity], work=[772*, 0*]
259: 0x082D [0x66] LOAD_EXT_SCHEDULER_MAIN: Load scheduler "kru1" with entities [Unnamed NPC (ID: 17977528/0x011250B8), Unnamed NPC (ID: 17977528/0x011250B8)], work=152*
260: 0x083C [0x01] GOTO 0x0941
261: 0x083F [0x02] IF !(LocalPlayer->Race == 3*) GOTO 0x086A
262: 0x0847 [0x45] LOAD_SCHEDULED_TASK: Load scheduler "s131" with entities [EventEntity, EventEntity], work=[772*, 0*]
263: 0x0858 [0x66] LOAD_EXT_SCHEDULER_MAIN: Load scheduler "kru1" with entities [Unnamed NPC (ID: 17977528/0x011250B8), Unnamed NPC (ID: 17977528/0x011250B8)], work=162*
264: 0x0867 [0x01] GOTO 0x0941
265: 0x086A [0x02] IF !(LocalPlayer->Race == 4*) GOTO 0x0895
266: 0x0872 [0x45] LOAD_SCHEDULED_TASK: Load scheduler "s131" with entities [EventEntity, EventEntity], work=[772*, 0*]
267: 0x0883 [0x66] LOAD_EXT_SCHEDULER_MAIN: Load scheduler "kru1" with entities [Unnamed NPC (ID: 17977528/0x011250B8), Unnamed NPC (ID: 17977528/0x011250B8)], work=172*
268: 0x0892 [0x01] GOTO 0x0941
269: 0x0895 [0x02] IF !(LocalPlayer->Race == 5*) GOTO 0x08C0
270: 0x089D [0x45] LOAD_SCHEDULED_TASK: Load scheduler "s132" with entities [EventEntity, EventEntity], work=[772*, 0*]
271: 0x08AE [0x66] LOAD_EXT_SCHEDULER_MAIN: Load scheduler "kru1" with entities [Unnamed NPC (ID: 17977528/0x011250B8), Unnamed NPC (ID: 17977528/0x011250B8)], work=182*
272: 0x08BD [0x01] GOTO 0x0941
273: 0x08C0 [0x02] IF !(LocalPlayer->Race == 6*) GOTO 0x08EB
274: 0x08C8 [0x45] LOAD_SCHEDULED_TASK: Load scheduler "s132" with entities [EventEntity, EventEntity], work=[772*, 0*]
275: 0x08D9 [0x66] LOAD_EXT_SCHEDULER_MAIN: Load scheduler "kru1" with entities [Unnamed NPC (ID: 17977528/0x011250B8), Unnamed NPC (ID: 17977528/0x011250B8)], work=182*
276: 0x08E8 [0x01] GOTO 0x0941
277: 0x08EB [0x02] IF !(LocalPlayer->Race == 7*) GOTO 0x0916
278: 0x08F3 [0x45] LOAD_SCHEDULED_TASK: Load scheduler "s130" with entities [EventEntity, EventEntity], work=[772*, 0*]
279: 0x0904 [0x66] LOAD_EXT_SCHEDULER_MAIN: Load scheduler "kru1" with entities [Unnamed NPC (ID: 17977528/0x011250B8), Unnamed NPC (ID: 17977528/0x011250B8)], work=192*
280: 0x0913 [0x01] GOTO 0x0941
281: 0x0916 [0x02] IF !(LocalPlayer->Race == 8*) GOTO 0x0941
282: 0x091E [0x45] LOAD_SCHEDULED_TASK: Load scheduler "s131" with entities [EventEntity, EventEntity], work=[772*, 0*]
283: 0x092F [0x66] LOAD_EXT_SCHEDULER_MAIN: Load scheduler "kru1" with entities [Unnamed NPC (ID: 17977528/0x011250B8), Unnamed NPC (ID: 17977528/0x011250B8)], work=202*
284: 0x093E [0x01] GOTO 0x0941

SUBROUTINE_0941:
285: 0x0941 [0x23] WAIT_FOR_DIALOG_INTERACTION
286: 0x0942 [0x2B] Iroha (ID: 17977517/0x011250AD) [7735*]:
     "For all the light you have worked to gather, is it possible that another is gathering umbral puissance?"
287: 0x0949 [0x23] WAIT_FOR_DIALOG_INTERACTION
288: 0x094A [0x2B] Iroha (ID: 17977517/0x011250AD) [7736*]:
     "That is why I was permitted to cross the boundaries of time and come to you."
289: 0x0951 [0x23] WAIT_FOR_DIALOG_INTERACTION
290: 0x0952 [0x45] LOAD_SCHEDULED_TASK: Load scheduler "fdo1" with entities [EventEntity, EventEntity], work=[200*, 0*]
291: 0x0963 [0x55] WAIT_LOAD_SCHEDULER: Wait for scheduler "fdo1" with entities [EventEntity, EventEntity], work=200*
292: 0x0972 [0x52] END_LOAD_SCHEDULER: End scheduler "s130" with entities [EventEntity, EventEntity], work=772*
293: 0x0981 [0x52] END_LOAD_SCHEDULER: End scheduler "s131" with entities [EventEntity, EventEntity], work=772*
294: 0x0990 [0x52] END_LOAD_SCHEDULER: End scheduler "s132" with entities [EventEntity, EventEntity], work=772*
295: 0x099F [0xD0] LOAD_SCHEDULED_TASK_ALT5: Load scheduler "gnh2" with entities [Unnamed NPC (ID: 17977528/0x011250B8), Unnamed NPC (ID: 17977528/0x011250B8)], work=[158*, 0*]
296: 0x09B0 [0xD0] LOAD_SCHEDULED_TASK_ALT5: Load scheduler "klky" with entities [Iroha (ID: 17977517/0x011250AD), Iroha (ID: 17977517/0x011250AD)], work=[102*, 0*]
297: 0x09C1 [0x78] ENABLE_GAME_TIMER_RESET_WEATHER()
298: 0x09C2 [0x6B] STOP_AND_IDLE: Unnamed NPC (ID: 17977528/0x011250B8) stops current action and resets to idle (animation="idl0")
299: 0x09CB [0x27] REQ_SET(priority=0x05, entity_id=Unnamed NPC (ID: 17977528/0x011250B8), tag_num=0x05)
300: 0x09D2 [0x2C] CREATE_SCHEDULER_TASK: Create scheduler "w3of" with entities [Iroha (ID: 17977517/0x011250AD), Iroha (ID: 17977517/0x011250AD)]
301: 0x09DF [0x2F] Unnamed NPC (ID: 17977515/0x011250AB)->Render.Flags0 &= ~0x80000 // Bit 19
302: 0x09E5 [0x4E] SET_ENTITY_HIDE_FLAG: Show Unnamed NPC (ID: 17977515/0x011250AB)
303: 0x09EB [0x94] Unnamed NPC (ID: 17977515/0x011250AB)->Render.Flags3 ^= 0x01
304: 0x09F1 [0x59] UPDATE_ENTITY_DATA: Unnamed NPC (ID: 17977515/0x011250AB)->Render.Flags0 |= 0x200000
305: 0x09F8 [0xBA] SET_ENTITY_POSITION(entity_id=Unnamed NPC (ID: 17977515/0x011250AB), pos_x=-1.199*, pos_z=13.249*, pos_y=3.999*, direction=273.9*)
306: 0x0A05 [0xBA] SET_ENTITY_POSITION(entity_id=??? (ID: 17977516/0x011250AC), pos_x=-1.997*, pos_z=16.046*, pos_y=3.999*, direction=273.9*)
307: 0x0A12 [0xBA] SET_ENTITY_POSITION(entity_id=Iroha (ID: 17977517/0x011250AD), pos_x=-1.199*, pos_z=13.249*, pos_y=3.999*, direction=273.9*)
308: 0x0A1F [0xBA] SET_ENTITY_POSITION(entity_id=LocalPlayer, pos_x=1.201*, pos_z=13.187*, pos_y=3.999*, direction=271.8*)
309: 0x0A2C [0x80] LOAD_WAIT(entity=Unnamed NPC (ID: 17977515/0x011250AB))
310: 0x0A31 [0x80] LOAD_WAIT(entity=Iroha (ID: 17977517/0x011250AD))
311: 0x0A36 [0x80] LOAD_WAIT(entity=LocalPlayer)
312: 0x0A3B [0x81] SET_ENTITY_BLINKING(blink_flag=0x01, entity=Iroha (ID: 17977517/0x011250AD))
313: 0x0A41 [0x7C] Iroha (ID: 17977517/0x011250AD)->Render.Flags2 |= 0x01
314: 0x0A47 [0x4A] Iroha (ID: 17977517/0x011250AD) looks at LocalPlayer
315: 0x0A50 [0x4A] LocalPlayer looks at Iroha (ID: 17977517/0x011250AD)
316: 0x0A59 [0x7B] Iroha (ID: 17977517/0x011250AD) stops talking
317: 0x0A5E [0x1C] WAIT(30* ticks)
318: 0x0A61 [0x45] LOAD_SCHEDULED_TASK: Load scheduler "s133" with entities [EventEntity, EventEntity], work=[772*, 0*]
319: 0x0A72 [0x1C] WAIT(15* ticks)
320: 0x0A75 [0x45] LOAD_SCHEDULED_TASK: Load scheduler "fdi1" with entities [EventEntity, EventEntity], work=[200*, 0*]
321: 0x0A86 [0x81] SET_ENTITY_BLINKING(blink_flag=0x00, entity=Iroha (ID: 17977517/0x011250AD))
322: 0x0A8C [0x5F] MULTI_HANDLER_COMPLEX(mode=0x05 - Load ext scheduler with flag (OpCode 0x5B mode 0, flag 1), ref=3862*, entity1=Iroha (ID: 17977517/0x011250AD), entity2=Iroha (ID: 17977517/0x011250AD), string="non0", extra=140*)
323: 0x0A9E [0x2B] Iroha (ID: 17977517/0x011250AD) [7737*]:
     "Yet my greatest anguish was how utterly powerless I was."
324: 0x0AA5 [0x23] WAIT_FOR_DIALOG_INTERACTION
325: 0x0AA6 [0x2B] Iroha (ID: 17977517/0x011250AD) [7738*]:
     "Master, all your sacrifices were made to save me."
326: 0x0AAD [0x23] WAIT_FOR_DIALOG_INTERACTION
327: 0x0AAE [0x5F] MULTI_HANDLER_COMPLEX(mode=0x07 - Wait scheduler task (OpCode 0x53))
328: 0x0ABC [0x81] SET_ENTITY_BLINKING(blink_flag=0x01, entity=Iroha (ID: 17977517/0x011250AD))
329: 0x0AC2 [0x5F] MULTI_HANDLER_COMPLEX(mode=0x05 - Load ext scheduler with flag (OpCode 0x5B mode 0, flag 1), ref=3903*, entity1=Iroha (ID: 17977517/0x011250AD), entity2=Iroha (ID: 17977517/0x011250AD), string="oji0", extra=320*)
330: 0x0AD4 [0x1C] WAIT(20* ticks)
331: 0x0AD7 [0x52] END_LOAD_SCHEDULER: End scheduler "s133" with entities [EventEntity, EventEntity], work=772*
332: 0x0AE6 [0x45] LOAD_SCHEDULED_TASK: Load scheduler "s134" with entities [EventEntity, EventEntity], work=[772*, 0*]
333: 0x0AF7 [0x2B] Iroha (ID: 17977517/0x011250AD) [7739*]:
     "Please...it would be a burden off my shoulders if you blamed me outright rather than forcing me to suffer in silence."
334: 0x0AFE [0x1C] WAIT(150* ticks)
335: 0x0B01 [0x52] END_LOAD_SCHEDULER: End scheduler "s134" with entities [EventEntity, EventEntity], work=772*
336: 0x0B10 [0x45] LOAD_SCHEDULED_TASK: Load scheduler "s135" with entities [EventEntity, EventEntity], work=[772*, 0*]
337: 0x0B21 [0x23] WAIT_FOR_DIALOG_INTERACTION

SUBROUTINE_0B22:
338: 0x0B22 [0x24] CREATE_DIALOG(message_id=7740*, default_option=0*, option_flags=0*)
     "How do you respond? [It's not your fault./Why would I blame you?/I'm not sure I understand.]"
339: 0x0B29 [0x25] WAIT_DIALOG_SELECT()
340: 0x0B2A [0x02] IF !(Work_Zone[0] == 1*) GOTO 0x0BAC
341: 0x0B32 [0x5F] MULTI_HANDLER_COMPLEX(mode=0x07 - Wait scheduler task (OpCode 0x53))
342: 0x0B40 [0x52] END_LOAD_SCHEDULER: End scheduler "s135" with entities [EventEntity, EventEntity], work=772*
343: 0x0B4F [0x45] LOAD_SCHEDULED_TASK: Load scheduler "s136" with entities [EventEntity, EventEntity], work=[772*, 0*]
344: 0x0B60 [0x81] SET_ENTITY_BLINKING(blink_flag=0x00, entity=Iroha (ID: 17977517/0x011250AD))
345: 0x0B66 [0x5B] LOAD_EXT_SCHEDULER: Load scheduler "non0" with entities [Iroha (ID: 17977517/0x011250AD), Iroha (ID: 17977517/0x011250AD)], work=3862*
346: 0x0B75 [0x2B] Iroha (ID: 17977517/0x011250AD) [7741*]:
     "Master, please... I beg you...I beg you..."
347: 0x0B7C [0x1C] WAIT(140* ticks)
348: 0x0B7F [0x81] SET_ENTITY_BLINKING(blink_flag=0x01, entity=Iroha (ID: 17977517/0x011250AD))
349: 0x0B85 [0x23] WAIT_FOR_DIALOG_INTERACTION
350: 0x0B86 [0x52] END_LOAD_SCHEDULER: End scheduler "s136" with entities [EventEntity, EventEntity], work=772*
351: 0x0B95 [0x45] LOAD_SCHEDULED_TASK: Load scheduler "s135" with entities [EventEntity, EventEntity], work=[772*, 0*]
352: 0x0BA6 [0x01] GOTO 0x0B22

SUBROUTINE_0C39:
353: 0x0C39 [0x5F] MULTI_HANDLER_COMPLEX(mode=0x07 - Wait scheduler task (OpCode 0x53))
354: 0x0C47 [0x5B] LOAD_EXT_SCHEDULER: Load scheduler "tlc0" with entities [Iroha (ID: 17977517/0x011250AD), Iroha (ID: 17977517/0x011250AD)], work=3863*
355: 0x0C56 [0x52] END_LOAD_SCHEDULER: End scheduler "s135" with entities [EventEntity, EventEntity], work=772*
356: 0x0C65 [0x45] LOAD_SCHEDULED_TASK: Load scheduler "s138" with entities [EventEntity, EventEntity], work=[772*, 0*]
357: 0x0C76 [0x2B] Iroha (ID: 17977517/0x011250AD) [7744*]:
     "Master, your words of compassion have moved me yet again. I promise to atone for all I have--or will have--put you through."
358: 0x0C7D [0x23] WAIT_FOR_DIALOG_INTERACTION
359: 0x0C7E [0x52] END_LOAD_SCHEDULER: End scheduler "s138" with entities [EventEntity, EventEntity], work=772*
360: 0x0C8D [0x45] LOAD_SCHEDULED_TASK: Load scheduler "s139" with entities [EventEntity, EventEntity], work=[772*, 0*]
361: 0x0C9E [0x2B] Iroha (ID: 17977517/0x011250AD) [7745*]:
     "If the only way to prevent you from succumbing to darkness is by filling the orb with light, then that is what we shall do. Not just for you, but to reclaim all you may have sacrificed."
362: 0x0CA5 [0x23] WAIT_FOR_DIALOG_INTERACTION
363: 0x0CA6 [0x5B] LOAD_EXT_SCHEDULER: Load scheduler "tlc1" with entities [Iroha (ID: 17977517/0x011250AD), Iroha (ID: 17977517/0x011250AD)], work=3863*
364: 0x0CB5 [0x27] REQ_SET(priority=0x05, entity_id=LocalPlayer, tag_num=0x09)
365: 0x0CBC [0x1C] WAIT(80* ticks)
366: 0x0CBF [0x27] REQ_SET(priority=0x05, entity_id=LocalPlayer, tag_num=0x0A)
367: 0x0CC6 [0x1C] WAIT(40* ticks)
368: 0x0CC9 [0x5B] LOAD_EXT_SCHEDULER: Load scheduler "bik0" with entities [Iroha (ID: 17977517/0x011250AD), Iroha (ID: 17977517/0x011250AD)], work=3863*
369: 0x0CD8 [0x52] END_LOAD_SCHEDULER: End scheduler "s139" with entities [EventEntity, EventEntity], work=772*
370: 0x0CE7 [0x45] LOAD_SCHEDULED_TASK: Load scheduler "s140" with entities [EventEntity, EventEntity], work=[772*, 0*]
371: 0x0CF8 [0x2B] Iroha (ID: 17977517/0x011250AD) [7746*]:
     "...The ambassador infused you with a flood of darkness?"
372: 0x0CFF [0x1C] WAIT(100* ticks)
373: 0x0D02 [0x23] WAIT_FOR_DIALOG_INTERACTION
374: 0x0D03 [0x52] END_LOAD_SCHEDULER: End scheduler "s140" with entities [EventEntity, EventEntity], work=772*
375: 0x0D12 [0x02] IF !(LocalPlayer->Race == 5*) GOTO 0x0D2E
376: 0x0D1A [0x45] LOAD_SCHEDULED_TASK: Load scheduler "s165" with entities [EventEntity, EventEntity], work=[772*, 0*]
377: 0x0D2B [0x01] GOTO 0x0D5B
378: 0x0D2E [0x02] IF !(LocalPlayer->Race == 6*) GOTO 0x0D4A
379: 0x0D36 [0x45] LOAD_SCHEDULED_TASK: Load scheduler "s165" with entities [EventEntity, EventEntity], work=[772*, 0*]
380: 0x0D47 [0x01] GOTO 0x0D5B
381: 0x0D4A [0x45] LOAD_SCHEDULED_TASK: Load scheduler "s164" with entities [EventEntity, EventEntity], work=[772*, 0*]

SUBROUTINE_0D5B:
382: 0x0D5B [0x6E] LocalPlayer uses emote 19*
383: 0x0D62 [0x99] Wait for LocalPlayer animation to complete
384: 0x0D67 [0x1C] WAIT(120* ticks)
385: 0x0D6A [0x52] END_LOAD_SCHEDULER: End scheduler "s164" with entities [EventEntity, EventEntity], work=772*
386: 0x0D79 [0x52] END_LOAD_SCHEDULER: End scheduler "s165" with entities [EventEntity, EventEntity], work=772*
387: 0x0D88 [0x45] LOAD_SCHEDULED_TASK: Load scheduler "s141" with entities [EventEntity, EventEntity], work=[772*, 0*]
388: 0x0D99 [0x5F] MULTI_HANDLER_COMPLEX(mode=0x05 - Load ext scheduler with flag (OpCode 0x5B mode 0, flag 1), ref=3863*, entity1=Iroha (ID: 17977517/0x011250AD), entity2=Iroha (ID: 17977517/0x011250AD), string="bik1", extra=110*)
389: 0x0DAB [0x2B] Iroha (ID: 17977517/0x011250AD) [7747*]:
     "Though this does not affect our mission, it does bring a greater sense of urgency."
390: 0x0DB2 [0x23] WAIT_FOR_DIALOG_INTERACTION
391: 0x0DB3 [0x2B] Iroha (ID: 17977517/0x011250AD) [7748*]:
     "Let us head to Adoulin, one of the many places you described to me."
392: 0x0DBA [0x23] WAIT_FOR_DIALOG_INTERACTION
393: 0x0DBB [0x02] IF !(ExtData[1]->WorkLocal[2] == 0*) GOTO 0x0E3F
394: 0x0DC3 [0x52] END_LOAD_SCHEDULER: End scheduler "s141" with entities [EventEntity, EventEntity], work=772*
395: 0x0DD2 [0x45] LOAD_SCHEDULED_TASK: Load scheduler "s142" with entities [EventEntity, EventEntity], work=[772*, 0*]
396: 0x0DE3 [0x5B] LOAD_EXT_SCHEDULER: Load scheduler "mag0" with entities [Iroha (ID: 17977517/0x011250AD), Iroha (ID: 17977517/0x011250AD)], work=3859*
397: 0x0DF2 [0x2B] Iroha (ID: 17977517/0x011250AD) [7749*]:
     "Please, take this with you."
398: 0x0DF9 [0x1C] WAIT(140* ticks)
399: 0x0DFC [0x23] WAIT_FOR_DIALOG_INTERACTION
400: 0x0DFD [0x5F] MULTI_HANDLER_COMPLEX(mode=0x05 - Load ext scheduler with flag (OpCode 0x5B mode 0, flag 1), ref=3859*, entity1=Iroha (ID: 17977517/0x011250AD), entity2=Iroha (ID: 17977517/0x011250AD), string="mag1", extra=100*)
401: 0x0E0F [0x2B] Iroha (ID: 17977517/0x011250AD) [7750*]:
     "My understanding is that there are transit devices in Jeuno which can take us to the western continent."
402: 0x0E16 [0x23] WAIT_FOR_DIALOG_INTERACTION
403: 0x0E17 [0x2B] Iroha (ID: 17977517/0x011250AD) [7751*]:
     "The Jeuno Chamber of Commerce and Industry is looking for people to become pioneers and colonize the Ulbukan hinterlands."
404: 0x0E1E [0x23] WAIT_FOR_DIALOG_INTERACTION
405: 0x0E1F [0x5F] MULTI_HANDLER_COMPLEX(mode=0x07 - Wait scheduler task (OpCode 0x53))
406: 0x0E2D [0x52] END_LOAD_SCHEDULER: End scheduler "s142" with entities [EventEntity, EventEntity], work=772*
407: 0x0E3C [0x01] GOTO 0x0E8A
408: 0x0E3F [0x27] REQ_SET(priority=0x05, entity_id=LocalPlayer, tag_num=0x09)
409: 0x0E46 [0x1C] WAIT(80* ticks)
410: 0x0E49 [0x27] REQ_SET(priority=0x05, entity_id=LocalPlayer, tag_num=0x0A)
411: 0x0E50 [0x1C] WAIT(40* ticks)
412: 0x0E53 [0x52] END_LOAD_SCHEDULER: End scheduler "s141" with entities [EventEntity, EventEntity], work=772*
413: 0x0E62 [0x45] LOAD_SCHEDULED_TASK: Load scheduler "s143" with entities [EventEntity, EventEntity], work=[772*, 0*]
414: 0x0E73 [0x2B] Iroha (ID: 17977517/0x011250AD) [7752*]:
     "Ah, but you have been there already?"
415: 0x0E7A [0x23] WAIT_FOR_DIALOG_INTERACTION
416: 0x0E7B [0x52] END_LOAD_SCHEDULER: End scheduler "s143" with entities [EventEntity, EventEntity], work=772*

SUBROUTINE_0E8A:
417: 0x0E8A [0x45] LOAD_SCHEDULED_TASK: Load scheduler "s144" with entities [EventEntity, EventEntity], work=[772*, 0*]
418: 0x0E9B [0x5B] LOAD_EXT_SCHEDULER: Load scheduler "tlk0" with entities [Iroha (ID: 17977517/0x011250AD), Iroha (ID: 17977517/0x011250AD)], work=3861*
419: 0x0EAA [0x2B] Iroha (ID: 17977517/0x011250AD) [7753*]:
     "Let us make haste. I shall meet you on the archipelago."
420: 0x0EB1 [0x23] WAIT_FOR_DIALOG_INTERACTION
421: 0x0EB2 [0x2B] Iroha (ID: 17977517/0x011250AD) [7754*]:
     "I must take a short while to recover. Please, go on ahead."
422: 0x0EB9 [0x23] WAIT_FOR_DIALOG_INTERACTION
423: 0x0EBA [0x5B] LOAD_EXT_SCHEDULER: Load scheduler "tlk1" with entities [Iroha (ID: 17977517/0x011250AD), Iroha (ID: 17977517/0x011250AD)], work=3861*
424: 0x0EC9 [0x5D] SET_MUSIC_VOLUME(volume=0*, fade_time=150*)
425: 0x0ECE [0x52] END_LOAD_SCHEDULER: End scheduler "s144" with entities [EventEntity, EventEntity], work=772*
426: 0x0EDD [0x45] LOAD_SCHEDULED_TASK: Load scheduler "s145" with entities [EventEntity, EventEntity], work=[772*, 0*]
427: 0x0EEE [0x27] REQ_SET(priority=0x05, entity_id=LocalPlayer, tag_num=0x20)
428: 0x0EF5 [0x1C] WAIT(140* ticks)
429: 0x0EF8 [0x81] SET_ENTITY_BLINKING(blink_flag=0x00, entity=Iroha (ID: 17977517/0x011250AD))
430: 0x0EFE [0x7C] Iroha (ID: 17977517/0x011250AD)->Render.Flags2 |= 0x00
431: 0x0F04 [0x5B] LOAD_EXT_SCHEDULER: Load scheduler "hiz0" with entities [Iroha (ID: 17977517/0x011250AD), Iroha (ID: 17977517/0x011250AD)], work=3865*
432: 0x0F13 [0x1C] WAIT(10* ticks)
433: 0x0F16 [0x52] END_LOAD_SCHEDULER: End scheduler "s145" with entities [EventEntity, EventEntity], work=772*
434: 0x0F25 [0x45] LOAD_SCHEDULED_TASK: Load scheduler "s146" with entities [EventEntity, EventEntity], work=[772*, 0*]
435: 0x0F36 [0x1C] WAIT(50* ticks)
436: 0x0F39 [0x4E] SET_ENTITY_HIDE_FLAG: Show ??? (ID: 17977516/0x011250AC)
437: 0x0F3F [0x1C] WAIT(60* ticks)
438: 0x0F42 [0x81] SET_ENTITY_BLINKING(blink_flag=0x00, entity=??? (ID: 17977516/0x011250AC))
439: 0x0F48 [0x7C] ??? (ID: 17977516/0x011250AC)->Render.Flags2 |= 0x00
440: 0x0F4E [0x5B] LOAD_EXT_SCHEDULER: Load scheduler "sin0" with entities [??? (ID: 17977516/0x011250AC), ??? (ID: 17977516/0x011250AC)], work=3869*
441: 0x0F5D [0x1C] WAIT(10* ticks)
442: 0x0F60 [0x52] END_LOAD_SCHEDULER: End scheduler "s146" with entities [EventEntity, EventEntity], work=772*
443: 0x0F6F [0x45] LOAD_SCHEDULED_TASK: Load scheduler "s147" with entities [EventEntity, EventEntity], work=[772*, 0*]
444: 0x0F80 [0xD0] LOAD_SCHEDULED_TASK_ALT5: Load scheduler "kie0" with entities [??? (ID: 17977516/0x011250AC), ??? (ID: 17977516/0x011250AC)], work=[104*, 0*]
445: 0x0F91 [0x2B] Iroha (ID: 17977517/0x011250AD) [7755*]:
     "My heart...it is about to burst."
446: 0x0F98 [0x1C] WAIT(30* ticks)
447: 0x0F9B [0x27] REQ_SET(priority=0x05, entity_id=Iroha (ID: 17977517/0x011250AD), tag_num=0x01)
448: 0x0FA2 [0x4E] SET_ENTITY_HIDE_FLAG: Hide LocalPlayer
449: 0x0FA8 [0xBA] SET_ENTITY_POSITION(entity_id=Iroha (ID: 17977517/0x011250AD), pos_x=-1.199*, pos_z=13.249*, pos_y=3.999*, direction=273.9*)
450: 0x0FB5 [0x1C] WAIT(60* ticks)
451: 0x0FB8 [0x23] WAIT_FOR_DIALOG_INTERACTION
452: 0x0FB9 [0x5B] LOAD_EXT_SCHEDULER: Load scheduler "sin1" with entities [??? (ID: 17977516/0x011250AC), ??? (ID: 17977516/0x011250AC)], work=3869*
453: 0x0FC8 [0x52] END_LOAD_SCHEDULER: End scheduler "s147" with entities [EventEntity, EventEntity], work=772*
454: 0x0FD7 [0x45] LOAD_SCHEDULED_TASK: Load scheduler "s148" with entities [EventEntity, EventEntity], work=[772*, 0*]
455: 0x0FE8 [0x1C] WAIT(120* ticks)
456: 0x0FEB [0x2B] Iroha (ID: 17977517/0x011250AD) [7756*]:
     "Is...is this it? Is this how I meet my end?"
457: 0x0FF2 [0x1C] WAIT(100* ticks)
458: 0x0FF5 [0x23] WAIT_FOR_DIALOG_INTERACTION
459: 0x0FF6 [0x52] END_LOAD_SCHEDULER: End scheduler "s148" with entities [EventEntity, EventEntity], work=772*
460: 0x1005 [0x5F] MULTI_HANDLER_COMPLEX(mode=0x03 - Load ext scheduler (OpCode 0x5B mode 0), ref=3438*, entity1=Unnamed NPC (ID: 17977515/0x011250AB), entity2=Unnamed NPC (ID: 17977515/0x011250AB), string="kra0")
461: 0x1015 [0xCD] LOAD_SCHEDULED_TASK_ALT4: Load scheduler "mem0" with entities [EventEntity, EventEntity], work=[103*, 0*]
462: 0x1026 [0xD0] LOAD_SCHEDULED_TASK_ALT5: Load scheduler "kl00" with entities [??? (ID: 17977516/0x011250AC), ??? (ID: 17977516/0x011250AC)], work=[104*, 0*]
463: 0x1037 [0x4E] SET_ENTITY_HIDE_FLAG: Hide ??? (ID: 17977516/0x011250AC)
464: 0x103D [0x1C] WAIT(300* ticks)
465: 0x1040 [0x5B] LOAD_EXT_SCHEDULER: Load scheduler "hiz1" with entities [Iroha (ID: 17977517/0x011250AD), Iroha (ID: 17977517/0x011250AD)], work=3865*
466: 0x104F [0xD0] LOAD_SCHEDULED_TASK_ALT5: Load scheduler "kie1" with entities [Iroha (ID: 17977517/0x011250AD), Iroha (ID: 17977517/0x011250AD)], work=[104*, 0*]
467: 0x1060 [0x1C] WAIT(90* ticks)
468: 0x1063 [0x27] REQ_SET(priority=0x05, entity_id=Iroha (ID: 17977517/0x011250AD), tag_num=0x02)
469: 0x106A [0x5F] MULTI_HANDLER_COMPLEX(mode=0x03 - Load ext scheduler (OpCode 0x5B mode 0), ref=3430*, entity1=Unnamed NPC (ID: 17977515/0x011250AB), entity2=Unnamed NPC (ID: 17977515/0x011250AB), string="cmof")
470: 0x107A [0x5F] MULTI_HANDLER_COMPLEX(mode=0x02 - Kill entity action (OpCode 0xC1))
471: 0x1080 [0x45] LOAD_SCHEDULED_TASK: Load scheduler "s149" with entities [EventEntity, EventEntity], work=[772*, 0*]
472: 0x1091 [0xCD] LOAD_SCHEDULED_TASK_ALT4: Load scheduler "stm0" with entities [EventEntity, EventEntity], work=[103*, 0*]
473: 0x10A2 [0x1C] WAIT(240* ticks)
474: 0x10A5 [0x45] LOAD_SCHEDULED_TASK: Load scheduler "fdo1" with entities [EventEntity, EventEntity], work=[200*, 0*]
475: 0x10B6 [0x55] WAIT_LOAD_SCHEDULER: Wait for scheduler "fdo1" with entities [EventEntity, EventEntity], work=200*
