# 17977514

## Common Data

| Field            | Value                           |
|------------------|---------------------------------|
| Zone             | Reisenjima Sanctorium (ID: 293) |
| Block Size       | 17864 bytes                     |
| Total Events     | 5                               |
| References Count | 360                             |

## List of Events

| Event ID              | Entrypoint   |   Size |   Instructions |
|-----------------------|--------------|--------|----------------|
| [65535](#event-65535) | 0x0000       |      1 |              1 |
| [3](#event-3)         | 0x0001       |   6952 |            841 |
| [15](#event-15)       | 0x1B29       |     39 |              8 |
| [9](#event-9)         | 0x1B50       |   3052 |            367 |
| [12](#event-12)       | 0x273C       |   6341 |            699 |

## DAT References (imed_data)

|   Index | Hex Value   |   Dec Value |
|---------|-------------|-------------|
|       0 | 0x0001      |           1 |
|       1 | 0x0000      |           0 |
|       2 | 0x0078      |         120 |
|       3 | 0x00C8      |         200 |
|       4 | 0x001B      |          27 |
|       5 | 0xFFFFFFBC  |  4294967228 |
|       6 | 0x27AE      |       10158 |
|       7 | 0x0EA5      |        3749 |
|       8 | 0x0C0D      |        3085 |
|       9 | 0x4E20      |       20000 |
|      10 | 0x7A120     |      500000 |
|      11 | 0xFFFFFA24  |  4294965796 |
|      12 | 0x0BF1      |        3057 |
|      13 | 0x2AF3      |       10995 |
|      14 | 0x7AED5     |      503509 |
|      15 | 0xFFFFFD58  |  4294966616 |
|      16 | 0x008E      |         142 |
|      17 | 0x00F1      |         241 |
|      18 | 0x516F      |       20847 |
|      19 | 0x07D0      |        2000 |
|      20 | 0x0B72      |        2930 |
|      21 | 0x50CE      |       20686 |
|      22 | 0x78D5F     |      494943 |
|      23 | 0xFFFFE0C0  |  4294959296 |
|      24 | 0x0696      |        1686 |
|      25 | 0x4074      |       16500 |
|      26 | 0x7B0B7     |      503991 |
|      27 | 0xFFFFFC18  |  4294966296 |
|      28 | 0x0D07      |        3335 |
|      29 | 0x6621      |       26145 |
|      30 | 0x7C349     |      508745 |
|      31 | 0xFFFFF060  |  4294963296 |
|      32 | 0x0C11      |        3089 |
|      33 | 0x001E      |          30 |
|      34 | 0x0BC6      |        3014 |
|      35 | 0x0D24      |        3364 |
|      36 | 0x031D      |         797 |
|      37 | 0x1E4D      |        7757 |
|      38 | 0x005A      |          90 |
|      39 | 0x005D      |          93 |
|      40 | 0x00FF      |         255 |
|      41 | 0x0002      |           2 |
|      42 | 0x4F6F      |       20335 |
|      43 | 0x7B1A4     |      504228 |
|      44 | 0x0413      |        1043 |
|      45 | 0xFFFFF254  |  4294963796 |
|      46 | 0x02DD      |         733 |
|      47 | 0x0F46      |        3910 |
|      48 | 0x00B2      |         178 |
|      49 | 0x00B6      |         182 |
|      50 | 0x00AB      |         171 |
|      51 | 0x003C      |          60 |
|      52 | 0x0099      |         153 |
|      53 | 0x0096      |         150 |
|      54 | 0x21B4      |        8628 |
|      55 | 0x7A16D     |      500077 |
|      56 | 0xFFFFF31B  |  4294963995 |
|      57 | 0x0A1F      |        2591 |
|      58 | 0x1441      |        5185 |
|      59 | 0x7B989     |      506249 |
|      60 | 0xFFFFEF33  |  4294962995 |
|      61 | 0x0F7F      |        3967 |
|      62 | 0x35C9      |       13769 |
|      63 | 0x7A4B2     |      500914 |
|      64 | 0x0121      |         289 |
|      65 | 0x1E4E      |        7758 |
|      66 | 0x1E4F      |        7759 |
|      67 | 0x0050      |          80 |
|      68 | 0x0064      |         100 |
|      69 | 0x0028      |          40 |
|      70 | 0x00B4      |         180 |
|      71 | 0x0F14      |        3860 |
|      72 | 0x0014      |          20 |
|      73 | 0x0F16      |        3862 |
|      74 | 0x0934      |        2356 |
|      75 | 0x0F47      |        3911 |
|      76 | 0x1E50      |        7760 |
|      77 | 0x1E51      |        7761 |
|      78 | 0x0F12      |        3858 |
|      79 | 0x1E52      |        7762 |
|      80 | 0x1E53      |        7763 |
|      81 | 0x1E54      |        7764 |
|      82 | 0x1E55      |        7765 |
|      83 | 0x1E56      |        7766 |
|      84 | 0x48FB      |       18683 |
|      85 | 0x779E1     |      489953 |
|      86 | 0x01AC      |         428 |
|      87 | 0x1E57      |        7767 |
|      88 | 0x3692      |       13970 |
|      89 | 0x7B351     |      504657 |
|      90 | 0x077C      |        1916 |
|      91 | 0x1E58      |        7768 |
|      92 | 0x1E59      |        7769 |
|      93 | 0x0F15      |        3861 |
|      94 | 0x1E5A      |        7770 |
|      95 | 0x0032      |          50 |
|      96 | 0x1E5B      |        7771 |
|      97 | 0x1E5C      |        7772 |
|      98 | 0x1E5D      |        7773 |
|      99 | 0x0F17      |        3863 |
|     100 | 0x1E5E      |        7774 |
|     101 | 0x008C      |         140 |
|     102 | 0x1E5F      |        7775 |
|     103 | 0x1E60      |        7776 |
|     104 | 0x1E61      |        7777 |
|     105 | 0x1E62      |        7778 |
|     106 | 0x0007      |           7 |
|     107 | 0x1E63      |        7779 |
|     108 | 0x1E64      |        7780 |
|     109 | 0x1E65      |        7781 |
|     110 | 0x1E66      |        7782 |
|     111 | 0x1E67      |        7783 |
|     112 | 0x1E68      |        7784 |
|     113 | 0x1E69      |        7785 |
|     114 | 0x1E6A      |        7786 |
|     115 | 0x002D      |          45 |
|     116 | 0x1E6B      |        7787 |
|     117 | 0x1E6C      |        7788 |
|     118 | 0x1E6D      |        7789 |
|     119 | 0x1E6E      |        7790 |
|     120 | 0x1E6F      |        7791 |
|     121 | 0x1E70      |        7792 |
|     122 | 0x0024      |          36 |
|     123 | 0x0082      |         130 |
|     124 | 0x1E71      |        7793 |
|     125 | 0x1E72      |        7794 |
|     126 | 0x0023      |          35 |
|     127 | 0x1E73      |        7795 |
|     128 | 0x1E74      |        7796 |
|     129 | 0x1E75      |        7797 |
|     130 | 0x1E76      |        7798 |
|     131 | 0x0005      |           5 |
|     132 | 0x0006      |           6 |
|     133 | 0x1E77      |        7799 |
|     134 | 0x000F      |          15 |
|     135 | 0x403D      |       16445 |
|     136 | 0x7A824     |      501796 |
|     137 | 0x29B7      |       10679 |
|     138 | 0x7A777     |      501623 |
|     139 | 0x2510      |        9488 |
|     140 | 0x7B41C     |      504860 |
|     141 | 0x4250      |       16976 |
|     142 | 0x7B87E     |      505982 |
|     143 | 0x3213      |       12819 |
|     144 | 0x7A42B     |      500779 |
|     145 | 0x36DA      |       14042 |
|     146 | 0x7A43B     |      500795 |
|     147 | 0x2E14      |       11796 |
|     148 | 0x7C0CB     |      508107 |
|     149 | 0x399C      |       14748 |
|     150 | 0x7C514     |      509204 |
|     151 | 0x00B7      |         183 |
|     152 | 0x0F31      |        3889 |
|     153 | 0x00DF      |         223 |
|     154 | 0x00E9      |         233 |
|     155 | 0x00F3      |         243 |
|     156 | 0x00FD      |         253 |
|     157 | 0x0107      |         263 |
|     158 | 0x0111      |         273 |
|     159 | 0x001D      |          29 |
|     160 | 0x0258      |         600 |
|     161 | 0x1E15      |        7701 |
|     162 | 0x1E78      |        7800 |
|     163 | 0x1E79      |        7801 |
|     164 | 0x1E7A      |        7802 |
|     165 | 0x3CDC      |       15580 |
|     166 | 0x7A837     |      501815 |
|     167 | 0xFFFFF9C0  |  4294965696 |
|     168 | 0x1E7B      |        7803 |
|     169 | 0x0003      |           3 |
|     170 | 0x0004      |           4 |
|     171 | 0x0008      |           8 |
|     172 | 0x1E7C      |        7804 |
|     173 | 0x1E7D      |        7805 |
|     174 | 0x1E7E      |        7806 |
|     175 | 0x1E7F      |        7807 |
|     176 | 0x02DE      |         734 |
|     177 | 0x7F002     |      520194 |
|     178 | 0x7F563     |      521571 |
|     179 | 0xFFF85EE0  |  4294467296 |
|     180 | 0x0BD0      |        3024 |
|     181 | 0x1E80      |        7808 |
|     182 | 0x1E81      |        7809 |
|     183 | 0x02E1      |         737 |
|     184 | 0x433B      |       17211 |
|     185 | 0x7A742     |      501570 |
|     186 | 0xFFFFF704  |  4294964996 |
|     187 | 0x1E82      |        7810 |
|     188 | 0x1E83      |        7811 |
|     189 | 0x1E84      |        7812 |
|     190 | 0x1E85      |        7813 |
|     191 | 0x1E86      |        7814 |
|     192 | 0x1E87      |        7815 |
|     193 | 0x1E88      |        7816 |
|     194 | 0x1E89      |        7817 |
|     195 | 0xFFFFFFF4  |  4294967284 |
|     196 | 0x3F4B      |       16203 |
|     197 | 0x0F9F      |        3999 |
|     198 | 0x0C01      |        3073 |
|     199 | 0x1B88      |        7048 |
|     200 | 0x003E      |          62 |
|     201 | 0x441C      |       17436 |
|     202 | 0x0402      |        1026 |
|     203 | 0x07A2      |        1954 |
|     204 | 0x4685      |       18053 |
|     205 | 0x0401      |        1025 |
|     206 | 0x0029      |          41 |
|     207 | 0x1D98      |        7576 |
|     208 | 0x0C24      |        3108 |
|     209 | 0x07BC      |        1980 |
|     210 | 0x1750      |        5968 |
|     211 | 0x0C42      |        3138 |
|     212 | 0xFFFFFF80  |  4294967168 |
|     213 | 0x1D80      |        7552 |
|     214 | 0x0C5E      |        3166 |
|     215 | 0x0306      |         774 |
|     216 | 0x007D      |         125 |
|     217 | 0x00A0      |         160 |
|     218 | 0x000A      |          10 |
|     219 | 0x1EB6      |        7862 |
|     220 | 0x01A9      |         425 |
|     221 | 0x1EB7      |        7863 |
|     222 | 0x00B9      |         185 |
|     223 | 0x1EB8      |        7864 |
|     224 | 0x0236      |         566 |
|     225 | 0x1EB9      |        7865 |
|     226 | 0x1EBA      |        7866 |
|     227 | 0x1EBB      |        7867 |
|     228 | 0x1EBC      |        7868 |
|     229 | 0x0297      |         663 |
|     230 | 0x1EBD      |        7869 |
|     231 | 0x05FD      |        1533 |
|     232 | 0x2A96      |       10902 |
|     233 | 0x0C80      |        3200 |
|     234 | 0x1EBE      |        7870 |
|     235 | 0x1EBF      |        7871 |
|     236 | 0x1EC0      |        7872 |
|     237 | 0x1EC1      |        7873 |
|     238 | 0x1EC2      |        7874 |
|     239 | 0x0168      |         360 |
|     240 | 0x02D0      |         720 |
|     241 | 0x1EC3      |        7875 |
|     242 | 0x01AB      |         427 |
|     243 | 0x0735      |        1845 |
|     244 | 0x3A94      |       14996 |
|     245 | 0x0D55      |        3413 |
|     246 | 0x1599      |        5529 |
|     247 | 0x3208      |       12808 |
|     248 | 0xFFFFF2F9  |  4294963961 |
|     249 | 0x3FC2      |       16322 |
|     250 | 0x0118      |         280 |
|     251 | 0x1EC4      |        7876 |
|     252 | 0x1EC5      |        7877 |
|     253 | 0x0036      |          54 |
|     254 | 0x1EC6      |        7878 |
|     255 | 0x1EC7      |        7879 |
|     256 | 0x1EC8      |        7880 |
|     257 | 0x1EC9      |        7881 |
|     258 | 0x0238      |         568 |
|     259 | 0x1ECA      |        7882 |
|     260 | 0x0046      |          70 |
|     261 | 0x0F40      |        3904 |
|     262 | 0x1ECB      |        7883 |
|     263 | 0x1ECC      |        7884 |
|     264 | 0x1ECD      |        7885 |
|     265 | 0x1ECE      |        7886 |
|     266 | 0x0F1D      |        3869 |
|     267 | 0x0040      |          64 |
|     268 | 0x00F0      |         240 |
|     269 | 0x01E0      |         480 |
|     270 | 0x1ECF      |        7887 |
|     271 | 0x1ED0      |        7888 |
|     272 | 0x0F13      |        3859 |
|     273 | 0x1ED1      |        7889 |
|     274 | 0x799FE     |      498174 |
|     275 | 0xFFF81E0A  |  4294450698 |
|     276 | 0xFFFF897C  |  4294936956 |
|     277 | 0x0C00      |        3072 |
|     278 | 0xFFF89BA4  |  4294482852 |
|     279 | 0x0400      |        1024 |
|     280 | 0x79F62     |      499554 |
|     281 | 0xFFF81982  |  4294449538 |
|     282 | 0xFFFF8978  |  4294936952 |
|     283 | 0x0BDD      |        3037 |
|     284 | 0xFFF7F907  |  4294441223 |
|     285 | 0xFFFF88DC  |  4294936796 |
|     286 | 0x01C8      |         456 |
|     287 | 0x00F4      |         244 |
|     288 | 0x0051      |          81 |
|     289 | 0x0D73      |        3443 |
|     290 | 0x786C1     |      493249 |
|     291 | 0xFFF843AC  |  4294460332 |
|     292 | 0xFFF82C18  |  4294454296 |
|     293 | 0x00E6      |         230 |
|     294 | 0x0D66      |        3430 |
|     295 | 0x0305      |         773 |
|     296 | 0x0015      |          21 |
|     297 | 0x79BFE     |      498686 |
|     298 | 0x01D0      |         464 |
|     299 | 0x1F31      |        7985 |
|     300 | 0x1F32      |        7986 |
|     301 | 0x1F33      |        7987 |
|     302 | 0x1F34      |        7988 |
|     303 | 0x0D74      |        3444 |
|     304 | 0x1F35      |        7989 |
|     305 | 0x1F36      |        7990 |
|     306 | 0x00D8      |         216 |
|     307 | 0x1F37      |        7991 |
|     308 | 0x012C      |         300 |
|     309 | 0xFFF814F6  |  4294448374 |
|     310 | 0xFFF89F41  |  4294483777 |
|     311 | 0xFFFF75DC  |  4294931932 |
|     312 | 0x0F8E      |        3982 |
|     313 | 0x0F91      |        3985 |
|     314 | 0x00DC      |         220 |
|     315 | 0x007E      |         126 |
|     316 | 0x004A      |          74 |
|     317 | 0x00AA      |         170 |
|     318 | 0xFFF8D485  |  4294497413 |
|     319 | 0xFFFF5F4C  |  4294926156 |
|     320 | 0xFFF8194E  |  4294449486 |
|     321 | 0xFFFF8985  |  4294936965 |
|     322 | 0x0F4D      |        3917 |
|     323 | 0x1F38      |        7992 |
|     324 | 0xFFF87EB6  |  4294475446 |
|     325 | 0x00F2      |         242 |
|     326 | 0x0F4E      |        3918 |
|     327 | 0x0F8A      |        3978 |
|     328 | 0xFFF872FE  |  4294472446 |
|     329 | 0x0F4F      |        3919 |
|     330 | 0x0F77      |        3959 |
|     331 | 0x0F89      |        3977 |
|     332 | 0x0154      |         340 |
|     333 | 0x010E      |         270 |
|     334 | 0x0F50      |        3920 |
|     335 | 0x0F8B      |        3979 |
|     336 | 0x01A4      |         420 |
|     337 | 0x0140      |         320 |
|     338 | 0x0F8C      |        3980 |
|     339 | 0x79C3D     |      498749 |
|     340 | 0xFFF81DF3  |  4294450675 |
|     341 | 0x01CC      |         460 |
|     342 | 0x1F39      |        7993 |
|     343 | 0x0F87      |        3975 |
|     344 | 0x7A359     |      500569 |
|     345 | 0x79E59     |      499289 |
|     346 | 0x0190      |         400 |
|     347 | 0x01F4      |         500 |
|     348 | 0x1F3A      |        7994 |
|     349 | 0x1F3B      |        7995 |
|     350 | 0x0F88      |        3976 |
|     351 | 0x1F3C      |        7996 |
|     352 | 0x79D93     |      499091 |
|     353 | 0x0F51      |        3921 |
|     354 | 0x1F3D      |        7997 |
|     355 | 0x1F3E      |        7998 |
|     356 | 0x1F3F      |        7999 |
|     357 | 0x0093      |         147 |
|     358 | 0x00C9      |         201 |
|     359 | 0x00D7      |         215 |

## String References

- **7048**: You are unable to make further progress in Rhapsodies of Vana'diel due to an event occurring in the [Chains of Promathia/Treasures of Aht Urhgan/Wings of the Goddess/Seekers of Adoulin/Rise of the Zilart] missions.
- **7701**: @@
- **7761**: How do you react? [Are you well?/Don't strain yourself!/Does this mean you're back with us?]
- **7792**: Are you destined for godhood? [I'll do what must be done./I'm not cut out for it.]
- **7814**: How do you respond? [Stay silent./Reassure Iroha.]
- **7989**: What do you say? [Iroha!/Get out of there!/Wake up!]

## Events

### Event 65535

#### Metadata

| Field        | Value   |
|--------------|---------|
| Entrypoint   | 0x0000  |
| Data Size    | 1 bytes |
| Instructions | 1       |

```
      00 01 02 03 04 05 06 07  08 09 0A 0B 0C 0D 0E 0F
      -- -- -- -- -- -- -- --  -- -- -- -- -- -- -- --
0000: 00                                                .               
```

#### Opcodes

```
  0: 0x0000 [0x00] END_REQSTACK()
```

### Event 3

#### Metadata

| Field        | Value      |
|--------------|------------|
| Entrypoint   | 0x0001     |
| Data Size    | 6952 bytes |
| Instructions | 841        |

```
      00 01 02 03 04 05 06 07  08 09 0A 0B 0C 0D 0E 0F
      -- -- -- -- -- -- -- --  -- -- -- -- -- -- -- --
0000:    42 03 01 10 00 80 43  00 43 01 03 03 00 03 10   B.....C.C......
0010: 03 04 00 04 10 03 05 00  05 10 03 06 00 06 10 03  ................
0020: 07 00 07 10 5D 01 80 02  80 45 03 80 F8 FF FF 7F  ....]....E......
0030: F8 FF FF 7F 66 64 6F 31  01 80 55 03 80 F8 FF FF  ....fdo1..U.....
0040: 7F F8 FF FF 7F 66 64 6F  31 46 01 38 04 80 2F 00  .....fdo1F.8../.
0050: AE 50 12 01 2F 00 AD 50  12 01 2F 00 AC 50 12 01  .P../..P../..P..
0060: 2F 00 B0 50 12 01 2F 00  B1 50 12 01 4E 00 AD 50  /..P../..P..N..P
0070: 12 01 4E 00 AE 50 12 01  4E 00 AC 50 12 01 4E 00  ..N..P..N..P..N.
0080: B0 50 12 01 4E 00 B1 50  12 01 4E 00 F0 FF FF 7F  .P..N..P..N.....
0090: 22 00 92 01 AE 50 12 01  92 01 AD 50 12 01 92 01  "....P.....P....
00A0: AC 50 12 01 92 01 B0 50  12 01 92 01 B1 50 12 01  .P.....P.....P..
00B0: 94 01 F0 FF FF 7F 94 01  AE 50 12 01 94 01 AD 50  .........P.....P
00C0: 12 01 59 05 AE 50 12 01  01 59 05 AD 50 12 01 01  ..Y..P...Y..P...
00D0: 59 05 AC 50 12 01 01 59  05 B0 50 12 01 01 59 05  Y..P...Y..P...Y.
00E0: B1 50 12 01 01 33 01 BA  F0 FF FF 7F 05 80 06 80  .P...3..........
00F0: 07 80 08 80 BA AE 50 12  01 09 80 0A 80 0B 80 0C  ......P.........
0100: 80 BA AD 50 12 01 0D 80  0E 80 0F 80 10 80 37 11  ...P..........7.
0110: 80 12 80 13 80 14 80 BA  AC 50 12 01 15 80 16 80  .........P......
0120: 17 80 18 80 BA B0 50 12  01 19 80 1A 80 1B 80 1C  ......P.........
0130: 80 BA B1 50 12 01 1D 80  1E 80 1F 80 20 80 80 F0  ...P........ ...
0140: FF FF 7F 80 AD 50 12 01  80 F8 FF FF 7F 80 AE 50  .....P.........P
0150: 12 01 80 AC 50 12 01 80  B0 50 12 01 80 B1 50 12  ....P....P....P.
0160: 01 27 05 F0 FF FF 7F 1D  1C 21 80 81 00 AC 50 12  .'.......!....P.
0170: 01 81 00 B0 50 12 01 81  00 B1 50 12 01 7C 00 AC  ....P.....P..|..
0180: 50 12 01 7C 00 B0 50 12  01 7C 00 B1 50 12 01 5B  P..|..P..|..P..[
0190: 22 80 B0 50 12 01 B0 50  12 01 63 72 79 30 5B 22  "..P...P..cry0["
01A0: 80 B1 50 12 01 B1 50 12  01 63 72 79 31 5B 23 80  ..P...P..cry1[#.
01B0: AC 50 12 01 AC 50 12 01  63 72 79 30 1C 21 80 45  .P...P..cry0.!.E
01C0: 24 80 F8 FF FF 7F F8 FF  FF 7F 73 30 34 38 01 80  $.........s048..
01D0: 1A B2 3D 2A 05 F0 FF FF  7F 1C 21 80 52 24 80 F8  ..=*......!.R$..
01E0: FF FF 7F F8 FF FF 7F 73  30 34 38 45 24 80 F8 FF  .......s048E$...
01F0: FF 7F F8 FF FF 7F 73 30  34 39 01 80 2B AE 50 12  ......s049..+.P.
0200: 01 25 80 1C 26 80 23 C5  27 80 F8 FF FF 7F F8 FF  .%..&.#.'.......
0210: FF 7F 73 30 30 34 01 80  45 03 80 F8 FF FF 7F F8  ..s004..E.......
0220: FF FF 7F 31 30 35 38 01  80 1C 03 80 1A D3 3D 1C  ...1058.......=.
0230: 21 80 52 24 80 F8 FF FF  7F F8 FF FF 7F 73 30 34  !.R$.........s04
0240: 39 C5 27 80 F8 FF FF 7F  F8 FF FF 7F 73 74 70 34  9.'.........stp4
0250: 01 80 77 28 80 29 80 1C  00 80 2F 00 B2 50 12 01  ..w(.)..../..P..
0260: 4E 00 B2 50 12 01 92 01  B2 50 12 01 59 05 F0 FF  N..P.....P..Y...
0270: FF 7F 01 59 05 B2 50 12  01 01 BA F0 FF FF 7F 2A  ...Y..P........*
0280: 80 2B 80 0F 80 2C 80 37  09 80 0A 80 2D 80 0C 80  .+...,.7....-...
0290: BA B2 50 12 01 0D 80 0E  80 0F 80 10 80 80 F0 FF  ..P.............
02A0: FF 7F 80 F8 FF FF 7F 80  B2 50 12 01 4A AE 50 12  .........P..J.P.
02B0: 01 F0 FF FF 7F 4A F0 FF  FF 7F AE 50 12 01 7B AE  .....J.....P..{.
02C0: 50 12 01 1C 21 80 81 00  AD 50 12 01 81 00 AE 50  P...!....P.....P
02D0: 12 01 7C 00 AD 50 12 01  5B 2E 80 AE 50 12 01 AE  ..|..P..[...P...
02E0: 50 12 01 63 72 79 30 5B  2F 80 AD 50 12 01 AD 50  P..cry0[/..P...P
02F0: 12 01 66 79 75 31 D0 30  80 AD 50 12 01 AD 50 12  ..fyu1.0..P...P.
0300: 01 6B 61 69 30 01 80 D0  31 80 F8 FF FF 7F F8 FF  .kai0...1.......
0310: FF 7F 68 6B 79 30 01 80  D0 31 80 B2 50 12 01 B2  ..hky0...1..P...
0320: 50 12 01 68 74 6D 30 01  80 D0 32 80 AC 50 12 01  P..htm0...2..P..
0330: AC 50 12 01 67 6C 30 31  01 80 D0 32 80 B0 50 12  .P..gl01...2..P.
0340: 01 B0 50 12 01 67 6C 30  31 01 80 D0 32 80 B1 50  ..P..gl01...2..P
0350: 12 01 B1 50 12 01 67 6C  30 31 01 80 27 05 AE 50  ...P..gl01..'..P
0360: 12 01 01 1C 33 80 5C 00  34 80 5C 01 34 80 9A 45  ....3.\.4.\.4..E
0370: 24 80 F8 FF FF 7F F8 FF  FF 7F 73 30 35 30 01 80  $.........s050..
0380: 1A B2 3D 1C 35 80 52 24  80 F8 FF FF 7F F8 FF FF  ..=.5.R$........
0390: 7F 73 30 35 30 45 24 80  F8 FF FF 7F F8 FF FF 7F  .s050E$.........
03A0: 73 30 35 32 01 80 1C 02  80 52 24 80 F8 FF FF 7F  s052.....R$.....
03B0: F8 FF FF 7F 73 30 35 32  45 24 80 F8 FF FF 7F F8  ....s052E$......
03C0: FF FF 7F 73 30 35 33 01  80 C5 27 80 F8 FF FF 7F  ...s053...'.....
03D0: F8 FF FF 7F 73 30 30 34  01 80 45 03 80 F8 FF FF  ....s004..E.....
03E0: 7F F8 FF FF 7F 31 30 35  38 01 80 1C 33 80 27 10  .....1058...3.'.
03F0: F0 FF FF 7F 35 1C 02 80  1A D3 3D 1C 21 80 52 24  ....5.....=.!.R$
0400: 80 F8 FF FF 7F F8 FF FF  7F 73 30 35 33 C5 27 80  .........s053.'.
0410: F8 FF FF 7F F8 FF FF 7F  73 74 70 34 01 80 27 05  ........stp4..'.
0420: AE 50 12 01 03 BA AC 50  12 01 36 80 37 80 38 80  .P.....P..6.7.8.
0430: 39 80 BA B0 50 12 01 3A  80 3B 80 3C 80 3D 80 BA  9...P..:.;.<.=..
0440: B1 50 12 01 3E 80 3F 80  1B 80 40 80 37 0D 80 0E  .P..>.?...@.7...
0450: 80 0F 80 10 80 1C 33 80  45 24 80 F8 FF FF 7F F8  ......3.E$......
0460: FF FF 7F 73 30 35 34 01  80 1A B2 3D 27 10 F0 FF  ...s054....='...
0470: FF 7F 36 2B AE 50 12 01  41 80 23 2B AE 50 12 01  ..6+.P..A.#+.P..
0480: 42 80 23 52 24 80 F8 FF  FF 7F F8 FF FF 7F 73 30  B.#R$.........s0
0490: 35 34 45 24 80 F8 FF FF  7F F8 FF FF 7F 73 30 35  54E$.........s05
04A0: 31 01 80 1C 43 80 6B 69  64 6C 30 F0 FF FF 7F 4A  1...C.kidl0....J
04B0: F0 FF FF 7F AD 50 12 01  1C 44 80 52 24 80 F8 FF  .....P...D.R$...
04C0: FF 7F F8 FF FF 7F 73 30  35 31 45 24 80 F8 FF FF  ......s051E$....
04D0: 7F F8 FF FF 7F 73 30 35  35 01 80 5B 2F 80 AD 50  .....s055..[/..P
04E0: 12 01 AD 50 12 01 66 79  75 32 D0 30 80 AD 50 12  ...P..fyu2.0..P.
04F0: 01 AD 50 12 01 6B 61 69  31 01 80 1C 45 80 4E 01  ..P..kai1...E.N.
0500: AC 50 12 01 4E 01 B0 50  12 01 4E 01 B1 50 12 01  .P..N..P..N..P..
0510: D0 32 80 AC 50 12 01 AC  50 12 01 6B 6C 67 6C 01  .2..P...P..klgl.
0520: 80 D0 32 80 B0 50 12 01  B0 50 12 01 6B 6C 67 6C  ..2..P...P..klgl
0530: 01 80 D0 32 80 B1 50 12  01 B1 50 12 01 6B 6C 67  ...2..P...P..klg
0540: 6C 01 80 1C 44 80 52 24  80 F8 FF FF 7F F8 FF FF  l...D.R$........
0550: 7F 73 30 35 35 45 24 80  F8 FF FF 7F F8 FF FF 7F  .s055E$.........
0560: 73 30 35 36 01 80 1C 46  80 52 24 80 F8 FF FF 7F  s056...F.R$.....
0570: F8 FF FF 7F 73 30 35 36  45 24 80 F8 FF FF 7F F8  ....s056E$......
0580: FF FF 7F 73 30 35 37 01  80 5B 47 80 AD 50 12 01  ...s057..[G..P..
0590: AD 50 12 01 77 61 73 31  D0 30 80 AD 50 12 01 AD  .P..was1.0..P...
05A0: 50 12 01 6B 61 69 32 01  80 1C 03 80 52 24 80 F8  P..kai2.....R$..
05B0: FF FF 7F F8 FF FF 7F 73  30 35 37 45 24 80 F8 FF  .......s057E$...
05C0: FF 7F F8 FF FF 7F 73 30  35 38 01 80 27 05 F0 FF  ......s058..'...
05D0: FF 7F 1C 1C 48 80 6B 69  64 6C 30 AD 50 12 01 4A  ....H.kidl0.P..J
05E0: AD 50 12 01 F0 FF FF 7F  7B AD 50 12 01 1C 21 80  .P......{.P...!.
05F0: 5B 49 80 AD 50 12 01 AD  50 12 01 73 68 61 31 1C  [I..P...P..sha1.
0600: 21 80 52 24 80 F8 FF FF  7F F8 FF FF 7F 73 30 35  !.R$.........s05
0610: 38 45 24 80 F8 FF FF 7F  F8 FF FF 7F 73 30 35 39  8E$.........s059
0620: 01 80 1C 33 80 BA AE 50  12 01 09 80 0A 80 0B 80  ...3...P........
0630: 4A 80 1C 33 80 52 24 80  F8 FF FF 7F F8 FF FF 7F  J..3.R$.........
0640: 73 30 35 39 45 24 80 F8  FF FF 7F F8 FF FF 7F 73  s059E$.........s
0650: 30 36 30 01 80 5B 4B 80  AD 50 12 01 AD 50 12 01  060..[K..P...P..
0660: 66 6A 30 31 5B 4B 80 AD  50 12 01 AD 50 12 01 62  fj01[K..P...P..b
0670: 61 74 30 2B AD 50 12 01  4C 80 1C 02 80 23 5B 4B  at0+.P..L....#[K
0680: 80 AD 50 12 01 AD 50 12  01 66 6A 30 30 52 24 80  ..P...P..fj00R$.
0690: F8 FF FF 7F F8 FF FF 7F  73 30 36 30 45 24 80 F8  ........s060E$..
06A0: FF FF 7F F8 FF FF 7F 73  30 36 31 01 80 24 4D 80  .......s061..$M.
06B0: 01 80 01 80 25 02 00 10  01 80 00 06 07 52 24 80  ....%........R$.
06C0: F8 FF FF 7F F8 FF FF 7F  73 30 36 31 45 24 80 F8  ........s061E$..
06D0: FF FF 7F F8 FF FF 7F 73  30 36 32 01 80 5B 4E 80  .......s062..[N.
06E0: AD 50 12 01 AD 50 12 01  66 66 30 31 5B 4B 80 AD  .P...P..ff01[K..
06F0: 50 12 01 AD 50 12 01 62  61 74 31 2B AD 50 12 01  P...P..bat1+.P..
0700: 4F 80 23 01 B8 07 02 00  10 00 80 00 5F 07 52 24  O.#........._.R$
0710: 80 F8 FF FF 7F F8 FF FF  7F 73 30 36 31 45 24 80  .........s061E$.
0720: F8 FF FF 7F F8 FF FF 7F  73 30 36 32 01 80 5B 4E  ........s062..[N
0730: 80 AD 50 12 01 AD 50 12  01 66 66 30 31 5B 4B 80  ..P...P..ff01[K.
0740: AD 50 12 01 AD 50 12 01  62 61 74 31 2B AD 50 12  .P...P..bat1+.P.
0750: 01 50 80 23 2B AD 50 12  01 51 80 23 01 B8 07 02  .P.#+.P..Q.#....
0760: 00 10 29 80 00 B8 07 52  24 80 F8 FF FF 7F F8 FF  ..)....R$.......
0770: FF 7F 73 30 36 31 45 24  80 F8 FF FF 7F F8 FF FF  ..s061E$........
0780: 7F 73 30 36 32 01 80 5B  4E 80 AD 50 12 01 AD 50  .s062..[N..P...P
0790: 12 01 66 66 30 31 5B 4B  80 AD 50 12 01 AD 50 12  ..ff01[K..P...P.
07A0: 01 62 61 74 31 2B AD 50  12 01 52 80 23 2B AD 50  .bat1+.P..R.#+.P
07B0: 12 01 53 80 23 01 B8 07  BA AC 50 12 01 54 80 55  ..S.#.....P..T.U
07C0: 80 1B 80 56 80 4E 00 AC  50 12 01 80 AC 50 12 01  ...V.N..P....P..
07D0: 1C 21 80 D0 32 80 AC 50  12 01 AC 50 12 01 67 6C  .!..2..P...P..gl
07E0: 30 31 01 80 5B 4E 80 AD  50 12 01 AD 50 12 01 66  01..[N..P...P..f
07F0: 66 30 30 52 24 80 F8 FF  FF 7F F8 FF FF 7F 73 30  f00R$.........s0
0800: 36 32 45 24 80 F8 FF FF  7F F8 FF FF 7F 73 30 36  62E$.........s06
0810: 33 01 80 2B AE 50 12 01  57 80 1C 21 80 BA F0 FF  3..+.P..W..!....
0820: FF 7F 58 80 59 80 0F 80  5A 80 4A F0 FF FF 7F AE  ..X.Y...Z.J.....
0830: 50 12 01 1C 45 80 23 52  24 80 F8 FF FF 7F F8 FF  P...E.#R$.......
0840: FF 7F 73 30 36 33 45 24  80 F8 FF FF 7F F8 FF FF  ..s063E$........
0850: 7F 73 30 36 34 01 80 2B  AE 50 12 01 5B 80 23 2B  .s064..+.P..[.#+
0860: AE 50 12 01 5C 80 23 52  24 80 F8 FF FF 7F F8 FF  .P..\.#R$.......
0870: FF 7F 73 30 36 34 45 24  80 F8 FF FF 7F F8 FF FF  ..s064E$........
0880: 7F 73 30 36 35 01 80 5B  4E 80 AD 50 12 01 AD 50  .s065..[N..P...P
0890: 12 01 66 62 30 31 5B 5D  80 AD 50 12 01 AD 50 12  ..fb01[]..P...P.
08A0: 01 74 6C 6B 30 2B AD 50  12 01 5E 80 1C 5F 80 4E  .tlk0+.P..^.._.N
08B0: 01 AC 50 12 01 D0 32 80  AC 50 12 01 AC 50 12 01  ..P...2..P...P..
08C0: 6B 6C 67 6C 01 80 1C 5F  80 23 52 24 80 F8 FF FF  klgl..._.#R$....
08D0: 7F F8 FF FF 7F 73 30 36  35 45 24 80 F8 FF FF 7F  .....s065E$.....
08E0: F8 FF FF 7F 73 30 36 36  01 80 1C 21 80 7C 00 AE  ....s066...!.|..
08F0: 50 12 01 2B AE 50 12 01  60 80 1C 21 80 6B 69 64  P..+.P..`..!.kid
0900: 6C 30 AD 50 12 01 81 01  AD 50 12 01 7C 01 AD 50  l0.P.....P..|..P
0910: 12 01 D3 00 AD 50 12 01  1C 21 80 23 7C 01 AE 50  .....P...!.#|..P
0920: 12 01 52 24 80 F8 FF FF  7F F8 FF FF 7F 73 30 36  ..R$.........s06
0930: 36 45 24 80 F8 FF FF 7F  F8 FF FF 7F 73 30 36 39  6E$.........s069
0940: 01 80 27 05 AD 50 12 01  06 2B AD 50 12 01 61 80  ..'..P...+.P..a.
0950: 1C 26 80 23 2B AD 50 12  01 62 80 1C 26 80 23 2A  .&.#+.P..b..&.#*
0960: 05 AD 50 12 01 27 05 F0  FF FF 7F 09 1C 43 80 1A  ..P..'.......C..
0970: D3 3D 1C 21 80 52 24 80  F8 FF FF 7F F8 FF FF 7F  .=.!.R$.........
0980: 73 30 36 39 27 05 AC 50  12 01 11 27 05 B0 50 12  s069'..P...'..P.
0990: 01 02 27 05 B1 50 12 01  05 27 05 F0 FF FF 7F 0A  ..'..P...'......
09A0: 1C 45 80 4E 01 AC 50 12  01 4E 01 B0 50 12 01 4E  .E.N..P..N..P..N
09B0: 01 B1 50 12 01 4A F0 FF  FF 7F AE 50 12 01 1C 21  ..P..J.....P...!
09C0: 80 45 24 80 F8 FF FF 7F  F8 FF FF 7F 73 30 37 30  .E$.........s070
09D0: 01 80 1A B2 3D 5B 63 80  AD 50 12 01 AD 50 12 01  ....=[c..P...P..
09E0: 74 6C 63 31 2B AD 50 12  01 64 80 1C 65 80 23 53  tlc1+.P..d..e.#S
09F0: AD 50 12 01 AD 50 12 01  74 6C 63 31 7B AD 50 12  .P...P..tlc1{.P.
0A00: 01 81 00 AD 50 12 01 7C  00 AD 50 12 01 5B 49 80  ....P..|..P..[I.
0A10: AD 50 12 01 AD 50 12 01  74 68 6B 30 52 24 80 F8  .P...P..thk0R$..
0A20: FF FF 7F F8 FF FF 7F 73  30 37 30 45 24 80 F8 FF  .......s070E$...
0A30: FF 7F F8 FF FF 7F 73 30  37 31 01 80 2B AD 50 12  ......s071..+.P.
0A40: 01 66 80 1C 26 80 23 2B  AD 50 12 01 67 80 1C 26  .f..&.#+.P..g..&
0A50: 80 23 2B AE 50 12 01 68  80 23 52 24 80 F8 FF FF  .#+.P..h.#R$....
0A60: 7F F8 FF FF 7F 73 30 37  31 45 24 80 F8 FF FF 7F  .....s071E$.....
0A70: F8 FF FF 7F 73 30 37 32  01 80 81 01 AD 50 12 01  ....s072.....P..
0A80: 7C 01 AD 50 12 01 5B 49  80 AD 50 12 01 AD 50 12  |..P..[I..P...P.
0A90: 01 74 68 6B 31 2B AE 50  12 01 69 80 1C 35 80 4A  .thk1+.P..i..5.J
0AA0: AD 50 12 01 AE 50 12 01  23 6E F0 FF FF 7F 6A 80  .P...P..#n....j.
0AB0: 99 F0 FF FF 7F 1C 26 80  52 24 80 F8 FF FF 7F F8  ......&.R$......
0AC0: FF FF 7F 73 30 37 32 45  24 80 F8 FF FF 7F F8 FF  ...s072E$.......
0AD0: FF 7F 73 30 37 33 01 80  2B AE 50 12 01 6B 80 1C  ..s073..+.P..k..
0AE0: 26 80 23 52 24 80 F8 FF  FF 7F F8 FF FF 7F 73 30  &.#R$.........s0
0AF0: 37 33 45 24 80 F8 FF FF  7F F8 FF FF 7F 73 30 37  73E$.........s07
0B00: 34 01 80 2B AD 50 12 01  6C 80 23 1C 26 80 23 52  4..+.P..l.#.&.#R
0B10: 24 80 F8 FF FF 7F F8 FF  FF 7F 73 30 37 34 45 24  $.........s074E$
0B20: 80 F8 FF FF 7F F8 FF FF  7F 73 30 37 35 01 80 1C  .........s075...
0B30: 21 80 2B AE 50 12 01 6D  80 23 1C 26 80 23 52 24  !.+.P..m.#.&.#R$
0B40: 80 F8 FF FF 7F F8 FF FF  7F 73 30 37 35 45 24 80  .........s075E$.
0B50: F8 FF FF 7F F8 FF FF 7F  73 30 36 38 01 80 1C 33  ........s068...3
0B60: 80 2B AE 50 12 01 6E 80  23 1C 26 80 23 5B 63 80  .+.P..n.#.&.#[c.
0B70: AD 50 12 01 AD 50 12 01  74 6C 62 30 52 24 80 F8  .P...P..tlb0R$..
0B80: FF FF 7F F8 FF FF 7F 73  30 36 38 45 24 80 F8 FF  .......s068E$...
0B90: FF 7F F8 FF FF 7F 73 30  36 37 01 80 2B AD 50 12  ......s067..+.P.
0BA0: 01 6F 80 1C 33 80 23 5B  63 80 AD 50 12 01 AD 50  .o..3.#[c..P...P
0BB0: 12 01 74 6C 62 31 52 24  80 F8 FF FF 7F F8 FF FF  ..tlb1R$........
0BC0: 7F 73 30 36 37 45 24 80  F8 FF FF 7F F8 FF FF 7F  .s067E$.........
0BD0: 73 30 37 36 01 80 2B AE  50 12 01 70 80 1C 26 80  s076..+.P..p..&.
0BE0: 23 2B AE 50 12 01 71 80  1C 26 80 23 2B AE 50 12  #+.P..q..&.#+.P.
0BF0: 01 72 80 1C 26 80 23 52  24 80 F8 FF FF 7F F8 FF  .r..&.#R$.......
0C00: FF 7F 73 30 37 36 45 24  80 F8 FF FF 7F F8 FF FF  ..s076E$........
0C10: 7F 73 30 37 37 01 80 1C  73 80 2B AE 50 12 01 74  .s077...s.+.P..t
0C20: 80 1C 21 80 4A AD 50 12  01 F0 FF FF 7F 1C 26 80  ..!.J.P.......&.
0C30: 23 52 24 80 F8 FF FF 7F  F8 FF FF 7F 73 30 37 37  #R$.........s077
0C40: 45 24 80 F8 FF FF 7F F8  FF FF 7F 73 30 37 38 01  E$.........s078.
0C50: 80 5B 63 80 AD 50 12 01  AD 50 12 01 74 6C 63 30  .[c..P...P..tlc0
0C60: 2B AD 50 12 01 75 80 1C  26 80 23 2B AD 50 12 01  +.P..u..&.#+.P..
0C70: 76 80 1C 26 80 23 5B 63  80 AD 50 12 01 AD 50 12  v..&.#[c..P...P.
0C80: 01 74 6C 63 31 52 24 80  F8 FF FF 7F F8 FF FF 7F  .tlc1R$.........
0C90: 73 30 37 38 45 24 80 F8  FF FF 7F F8 FF FF 7F 73  s078E$.........s
0CA0: 30 37 39 01 80 2B AE 50  12 01 77 80 1C 26 80 23  079..+.P..w..&.#
0CB0: 2B AE 50 12 01 78 80 1C  26 80 23 52 24 80 F8 FF  +.P..x..&.#R$...
0CC0: FF 7F F8 FF FF 7F 73 30  37 39 45 24 80 F8 FF FF  ......s079E$....
0CD0: 7F F8 FF FF 7F 73 30 38  33 01 80 24 79 80 01 80  .....s083..$y...
0CE0: 01 80 25 02 00 10 01 80  00 45 0D 6E F0 FF FF 7F  ..%......E.n....
0CF0: 7A 80 99 F0 FF FF 7F 1C  26 80 52 24 80 F8 FF FF  z.......&.R$....
0D00: 7F F8 FF FF 7F 73 30 38  33 45 24 80 F8 FF FF 7F  .....s083E$.....
0D10: F8 FF FF 7F 73 30 38 32  01 80 5F 05 49 80 AD 50  ....s082.._.I..P
0D20: 12 01 AD 50 12 01 79 65  73 30 7B 80 2B AD 50 12  ...P..yes0{.+.P.
0D30: 01 7C 80 1C 26 80 23 2B  AD 50 12 01 7D 80 1C 26  .|..&.#+.P..}..&
0D40: 80 23 01 9C 0D 02 00 10  00 80 00 9C 0D 6E F0 FF  .#...........n..
0D50: FF 7F 7E 80 99 F0 FF FF  7F 1C 26 80 52 24 80 F8  ..~.......&.R$..
0D60: FF FF 7F F8 FF FF 7F 73  30 38 33 45 24 80 F8 FF  .......s083E$...
0D70: FF 7F F8 FF FF 7F 73 30  38 32 01 80 5F 05 49 80  ......s082.._.I.
0D80: AD 50 12 01 AD 50 12 01  79 65 73 30 7B 80 2B AD  .P...P..yes0{.+.
0D90: 50 12 01 7F 80 1C 26 80  23 01 9C 0D 5F 07 AD 50  P.....&.#..._..P
0DA0: 12 01 AD 50 12 01 79 65  73 30 52 24 80 F8 FF FF  ...P..yes0R$....
0DB0: 7F F8 FF FF 7F 73 30 38  32 45 24 80 F8 FF FF 7F  .....s082E$.....
0DC0: F8 FF FF 7F 73 30 38 38  01 80 2B AE 50 12 01 80  ....s088..+.P...
0DD0: 80 1C 48 80 4A AD 50 12  01 AE 50 12 01 1C 45 80  ..H.J.P...P...E.
0DE0: 23 2B AE 50 12 01 81 80  1C 26 80 23 5B 63 80 AD  #+.P.....&.#[c..
0DF0: 50 12 01 AD 50 12 01 74  6C 63 30 2B AD 50 12 01  P...P..tlc0+.P..
0E00: 82 80 1C 26 80 23 5B 63  80 AD 50 12 01 AD 50 12  ...&.#[c..P...P.
0E10: 01 74 6C 63 31 52 24 80  F8 FF FF 7F F8 FF FF 7F  .tlc1R$.........
0E20: 73 30 38 38 02 87 7F 83  80 80 40 0E 45 24 80 F8  s088......@.E$..
0E30: FF FF 7F F8 FF FF 7F 73  30 38 31 01 80 01 6D 0E  .......s081...m.
0E40: 02 87 7F 84 80 80 5C 0E  45 24 80 F8 FF FF 7F F8  ......\.E$......
0E50: FF FF 7F 73 30 38 31 01  80 01 6D 0E 45 24 80 F8  ...s081...m.E$..
0E60: FF FF 7F F8 FF FF 7F 73  30 38 30 01 80 2B AE 50  .......s080..+.P
0E70: 12 01 85 80 23 1A 26 3F  1C 86 80 52 24 80 F8 FF  ....#.&?...R$...
0E80: FF 7F F8 FF FF 7F 73 30  38 30 52 24 80 F8 FF FF  ......s080R$....
0E90: 7F F8 FF FF 7F 73 30 38  31 D0 31 80 B2 50 12 01  .....s081.1..P..
0EA0: B2 50 12 01 68 6B 6C 74  01 80 D0 31 80 F8 FF FF  .P..hklt...1....
0EB0: 7F F8 FF FF 7F 68 6B 6C  30 01 80 4E 01 AE 50 12  .....hkl0..N..P.
0EC0: 01 4E 01 AD 50 12 01 2F  00 AF 50 12 01 2F 00 B8  .N..P../..P../..
0ED0: 50 12 01 2F 00 B9 50 12  01 2F 00 BA 50 12 01 2F  P../..P../..P../
0EE0: 00 BB 50 12 01 2F 00 BC  50 12 01 2F 00 BD 50 12  ..P../..P../..P.
0EF0: 01 2F 00 BE 50 12 01 4E  00 AF 50 12 01 4E 00 B8  ./..P..N..P..N..
0F00: 50 12 01 4E 00 B9 50 12  01 4E 00 BA 50 12 01 4E  P..N..P..N..P..N
0F10: 00 BB 50 12 01 4E 00 BC  50 12 01 4E 00 BD 50 12  ..P..N..P..N..P.
0F20: 01 4E 00 BE 50 12 01 92  01 AF 50 12 01 94 01 AF  .N..P.....P.....
0F30: 50 12 01 94 01 B8 50 12  01 94 01 B9 50 12 01 94  P.....P.....P...
0F40: 01 BA 50 12 01 94 01 BB  50 12 01 94 01 BC 50 12  ..P.....P.....P.
0F50: 01 94 01 BD 50 12 01 94  01 BE 50 12 01 59 05 AF  ....P.....P..Y..
0F60: 50 12 01 01 59 05 B8 50  12 01 01 59 05 B9 50 12  P...Y..P...Y..P.
0F70: 01 01 59 05 BA 50 12 01  01 59 05 BB 50 12 01 01  ..Y..P...Y..P...
0F80: 59 05 BC 50 12 01 01 59  05 BD 50 12 01 01 59 05  Y..P...Y..P...Y.
0F90: BE 50 12 01 01 BA AF 50  12 01 87 80 88 80 1B 80  .P.....P........
0FA0: 56 80 BA B8 50 12 01 89  80 8A 80 1B 80 56 80 BA  V...P........V..
0FB0: B9 50 12 01 8B 80 8C 80  1B 80 56 80 BA BA 50 12  .P........V...P.
0FC0: 01 8D 80 8E 80 1B 80 56  80 BA BB 50 12 01 8F 80  .......V...P....
0FD0: 90 80 1B 80 56 80 BA BC  50 12 01 91 80 92 80 1B  ....V...P.......
0FE0: 80 56 80 BA BD 50 12 01  93 80 94 80 1B 80 56 80  .V...P........V.
0FF0: BA BE 50 12 01 95 80 96  80 1B 80 56 80 80 AF 50  ..P........V...P
1000: 12 01 80 B8 50 12 01 80  B9 50 12 01 80 BA 50 12  ....P....P....P.
1010: 01 80 BB 50 12 01 80 BC  50 12 01 80 BD 50 12 01  ...P....P....P..
1020: 80 BE 50 12 01 4A AF 50  12 01 F0 FF FF 7F 4A B8  ..P..J.P......J.
1030: 50 12 01 F0 FF FF 7F 4A  B9 50 12 01 F0 FF FF 7F  P......J.P......
1040: 4A BA 50 12 01 F0 FF FF  7F 4A BB 50 12 01 F0 FF  J.P......J.P....
1050: FF 7F 4A BC 50 12 01 F0  FF FF 7F 4A BD 50 12 01  ..J.P......J.P..
1060: F0 FF FF 7F 4A BE 50 12  01 F0 FF FF 7F 7B AF 50  ....J.P......{.P
1070: 12 01 7B B8 50 12 01 7B  B9 50 12 01 7B BA 50 12  ..{.P..{.P..{.P.
1080: 01 7B BB 50 12 01 7B BC  50 12 01 7B BD 50 12 01  .{.P..{.P..{.P..
1090: 7B BE 50 12 01 7B F0 FF  FF 7F 1C 21 80 D0 97 80  {.P..{.....!....
10A0: AF 50 12 01 AF 50 12 01  67 6E 67 30 01 80 D0 97  .P...P..gng0....
10B0: 80 B8 50 12 01 B8 50 12  01 67 6E 68 31 01 80 D0  ..P...P..gnh1...
10C0: 97 80 B9 50 12 01 B9 50  12 01 67 6E 68 31 01 80  ...P...P..gnh1..
10D0: D0 97 80 BA 50 12 01 BA  50 12 01 67 6E 68 31 01  ....P...P..gnh1.
10E0: 80 D0 97 80 BB 50 12 01  BB 50 12 01 67 6E 68 31  .....P...P..gnh1
10F0: 01 80 D0 97 80 BC 50 12  01 BC 50 12 01 67 6E 68  ......P...P..gnh
1100: 31 01 80 D0 97 80 BD 50  12 01 BD 50 12 01 67 6E  1......P...P..gn
1110: 68 31 01 80 D0 97 80 BE  50 12 01 BE 50 12 01 67  h1......P...P..g
1120: 6E 68 31 01 80 5B 98 80  AF 50 12 01 AF 50 12 01  nh1..[...P...P..
1130: 66 79 75 30 66 99 80 B8  50 12 01 B8 50 12 01 66  fyu0f...P...P..f
1140: 79 75 30 66 9A 80 B9 50  12 01 B9 50 12 01 66 79  yu0f...P...P..fy
1150: 75 30 66 9B 80 BA 50 12  01 BA 50 12 01 66 79 75  u0f...P...P..fyu
1160: 30 66 9C 80 BB 50 12 01  BB 50 12 01 66 79 75 30  0f...P...P..fyu0
1170: 66 9C 80 BC 50 12 01 BC  50 12 01 66 79 75 30 66  f...P...P..fyu0f
1180: 9D 80 BD 50 12 01 BD 50  12 01 66 79 75 30 66 9E  ...P...P..fyu0f.
1190: 80 BE 50 12 01 BE 50 12  01 66 79 75 30 1C 21 80  ..P...P..fyu0.!.
11A0: 45 24 80 F8 FF FF 7F F8  FF FF 7F 73 31 30 32 01  E$.........s102.
11B0: 80 1A F4 3D 6E F0 FF FF  7F 9F 80 99 F0 FF FF 7F  ...=n...........
11C0: 1C 26 80 27 10 A8 50 12  01 06 1C A0 80 1A 15 3E  .&.'..P........>
11D0: 1C 21 80 52 24 80 F8 FF  FF 7F F8 FF FF 7F 73 31  .!.R$.........s1
11E0: 30 32 45 24 80 F8 FF FF  7F F8 FF FF 7F 30 62 6C  02E$.........0bl
11F0: 66 01 80 D0 97 80 AF 50  12 01 AF 50 12 01 73 65  f......P...P..se
1200: 6B 6C 01 80 4E 01 F0 FF  FF 7F 4E 01 AF 50 12 01  kl..N.....N..P..
1210: 4E 01 B8 50 12 01 4E 01  B9 50 12 01 4E 01 BA 50  N..P..N..P..N..P
1220: 12 01 4E 01 BB 50 12 01  4E 01 BC 50 12 01 4E 01  ..N..P..N..P..N.
1230: BD 50 12 01 4E 01 BE 50  12 01 4E 00 AE 50 12 01  .P..N..P..N..P..
1240: 4E 00 AD 50 12 01 80 AE  50 12 01 80 AD 50 12 01  N..P....P....P..
1250: 4E 00 F0 FF FF 7F 6B 69  64 6C 30 F0 FF FF 7F 79  N.....kidl0....y
1260: 00 F0 FF FF 7F AE 50 12  01 1C 21 80 4A AD 50 12  ......P...!.J.P.
1270: 01 F0 FF FF 7F D0 31 80  B2 50 12 01 B2 50 12 01  ......1..P...P..
1280: 68 74 6D 30 01 80 D0 31  80 F8 FF FF 7F F8 FF FF  htm0...1........
1290: 7F 68 6B 79 30 01 80 D0  30 80 AD 50 12 01 AD 50  .hky0...0..P...P
12A0: 12 01 74 61 63 30 01 80  48 A1 80 23 45 24 80 F8  ..tac0..H..#E$..
12B0: FF FF 7F F8 FF FF 7F 73  30 38 35 01 80 1A F4 3D  .......s085....=
12C0: 2B AE 50 12 01 A2 80 1C  26 80 23 52 24 80 F8 FF  +.P.....&.#R$...
12D0: FF 7F F8 FF FF 7F 73 30  38 35 45 24 80 F8 FF FF  ......s085E$....
12E0: 7F F8 FF FF 7F 73 30 38  36 01 80 81 00 AD 50 12  .....s086.....P.
12F0: 01 7C 00 AD 50 12 01 5B  4E 80 AD 50 12 01 AD 50  .|..P..[N..P...P
1300: 12 01 66 66 30 31 2B AD  50 12 01 A3 80 1C 02 80  ..ff01+.P.......
1310: 23 5B 4E 80 AD 50 12 01  AD 50 12 01 66 66 30 30  #[N..P...P..ff00
1320: 52 24 80 F8 FF FF 7F F8  FF FF 7F 73 30 38 36 45  R$.........s086E
1330: 24 80 F8 FF FF 7F F8 FF  FF 7F 73 30 38 37 01 80  $.........s087..
1340: 2B AE 50 12 01 A4 80 1C  26 80 23 1A D3 3D 1C 21  +.P.....&.#..=.!
1350: 80 52 24 80 F8 FF FF 7F  F8 FF FF 7F 73 30 38 37  .R$.........s087
1360: D0 31 80 F8 FF FF 7F F8  FF FF 7F 68 6B 6C 30 01  .1.........hkl0.
1370: 80 D0 31 80 B2 50 12 01  B2 50 12 01 68 6B 6C 74  ..1..P...P..hklt
1380: 01 80 4E 01 AE 50 12 01  4E 01 AD 50 12 01 4E 01  ..N..P..N..P..N.
1390: F0 FF FF 7F 6B 69 64 6C  30 AF 50 12 01 4E 00 AF  ....kidl0.P..N..
13A0: 50 12 01 03 03 10 03 00  03 04 10 04 00 03 05 10  P...............
13B0: 05 00 03 06 10 06 00 03  07 10 07 00 29 05 AF 50  ............)..P
13C0: 12 01 03 BA AF 50 12 01  A5 80 A6 80 A7 80 56 80  .....P........V.
13D0: 80 AF 50 12 01 02 87 7F  29 80 80 F1 13 45 24 80  ..P.....)....E$.
13E0: F8 FF FF 7F F8 FF FF 7F  73 31 31 32 01 80 01 56  ........s112...V
13F0: 14 02 87 7F 83 80 80 0D  14 45 24 80 F8 FF FF 7F  .........E$.....
1400: F8 FF FF 7F 73 31 30 39  01 80 01 56 14 02 87 7F  ....s109...V....
1410: 84 80 80 29 14 45 24 80  F8 FF FF 7F F8 FF FF 7F  ...).E$.........
1420: 73 31 30 39 01 80 01 56  14 02 87 7F 6A 80 80 45  s109...V....j..E
1430: 14 45 24 80 F8 FF FF 7F  F8 FF FF 7F 73 31 31 32  .E$.........s112
1440: 01 80 01 56 14 45 24 80  F8 FF FF 7F F8 FF FF 7F  ...V.E$.........
1450: 73 31 30 33 01 80 1A B2  3D 2B AE 50 12 01 A8 80  s103....=+.P....
1460: 1C 03 80 45 03 80 F0 FF  FF 7F F0 FF FF 7F 6F 76  ...E..........ov
1470: 6C 31 01 80 52 24 80 F8  FF FF 7F F8 FF FF 7F 73  l1..R$.........s
1480: 31 30 33 52 24 80 F8 FF  FF 7F F8 FF FF 7F 73 31  103R$.........s1
1490: 30 39 52 24 80 F8 FF FF  7F F8 FF FF 7F 73 31 31  09R$.........s11
14A0: 32 02 87 7F 00 80 80 CE  14 45 24 80 F8 FF FF 7F  2........E$.....
14B0: F8 FF FF 7F 73 31 30 34  01 80 D5 29 80 AF 50 12  ....s104...)..P.
14C0: 01 AF 50 12 01 6B 61 6D  31 01 80 01 09 16 02 87  ..P..kam1.......
14D0: 7F 29 80 80 FB 14 45 24  80 F8 FF FF 7F F8 FF FF  .)....E$........
14E0: 7F 73 31 31 33 01 80 D5  29 80 AF 50 12 01 AF 50  .s113...)..P...P
14F0: 12 01 6B 61 66 31 01 80  01 09 16 02 87 7F A9 80  ..kaf1..........
1500: 80 28 15 45 24 80 F8 FF  FF 7F F8 FF FF 7F 73 31  .(.E$.........s1
1510: 31 34 01 80 D5 29 80 AF  50 12 01 AF 50 12 01 6B  14...)..P...P..k
1520: 61 76 31 01 80 01 09 16  02 87 7F AA 80 80 55 15  av1...........U.
1530: 45 24 80 F8 FF FF 7F F8  FF FF 7F 73 31 31 36 01  E$.........s116.
1540: 80 D5 29 80 AF 50 12 01  AF 50 12 01 6B 61 76 31  ..)..P...P..kav1
1550: 01 80 01 09 16 02 87 7F  83 80 80 82 15 45 24 80  .............E$.
1560: F8 FF FF 7F F8 FF FF 7F  73 31 31 30 01 80 D5 29  ........s110...)
1570: 80 AF 50 12 01 AF 50 12  01 6B 61 74 31 01 80 01  ..P...P..kat1...
1580: 09 16 02 87 7F 84 80 80  AF 15 45 24 80 F8 FF FF  ..........E$....
1590: 7F F8 FF FF 7F 73 31 31  30 01 80 D5 29 80 AF 50  .....s110...)..P
15A0: 12 01 AF 50 12 01 6B 61  74 31 01 80 01 09 16 02  ...P..kat1......
15B0: 87 7F 6A 80 80 DC 15 45  24 80 F8 FF FF 7F F8 FF  ..j....E$.......
15C0: FF 7F 73 31 31 35 01 80  D5 29 80 AF 50 12 01 AF  ..s115...)..P...
15D0: 50 12 01 6B 61 66 31 01  80 01 09 16 02 87 7F AB  P..kaf1.........
15E0: 80 80 09 16 45 24 80 F8  FF FF 7F F8 FF FF 7F 73  ....E$.........s
15F0: 31 31 31 01 80 D5 29 80  AF 50 12 01 AF 50 12 01  111...)..P...P..
1600: 6B 61 6D 31 01 80 01 09  16 1C 02 80 23 1A D3 3D  kam1........#..=
1610: 1C 21 80 52 24 80 F8 FF  FF 7F F8 FF FF 7F 73 31  .!.R$.........s1
1620: 30 34 52 24 80 F8 FF FF  7F F8 FF FF 7F 73 31 31  04R$.........s11
1630: 30 52 24 80 F8 FF FF 7F  F8 FF FF 7F 73 31 31 31  0R$.........s111
1640: 52 24 80 F8 FF FF 7F F8  FF FF 7F 73 31 31 33 52  R$.........s113R
1650: 24 80 F8 FF FF 7F F8 FF  FF 7F 73 31 31 34 52 24  $.........s114R$
1660: 80 F8 FF FF 7F F8 FF FF  7F 73 31 31 35 52 24 80  .........s115R$.
1670: F8 FF FF 7F F8 FF FF 7F  73 31 31 36 D5 29 80 AF  ........s116.)..
1680: 50 12 01 AF 50 12 01 6B  61 74 32 01 80 27 05 AF  P...P..kat2..'..
1690: 50 12 01 01 4E 01 AF 50  12 01 4E 00 AE 50 12 01  P...N..P..N..P..
16A0: 4E 00 AD 50 12 01 4E 00  F0 FF FF 7F 80 AE 50 12  N..P..N.......P.
16B0: 01 80 AD 50 12 01 80 F0  FF FF 7F 4A AD 50 12 01  ...P.......J.P..
16C0: AE 50 12 01 1C 21 80 D0  31 80 B2 50 12 01 B2 50  .P...!..1..P...P
16D0: 12 01 68 74 6D 30 01 80  D0 31 80 F8 FF FF 7F F8  ..htm0...1......
16E0: FF FF 7F 68 6B 79 30 01  80 D0 30 80 AD 50 12 01  ...hky0...0..P..
16F0: AD 50 12 01 74 61 63 30  01 80 1C 21 80 45 24 80  .P..tac0...!.E$.
1700: F8 FF FF 7F F8 FF FF 7F  73 30 38 34 01 80 1A B2  ........s084....
1710: 3D 5B 63 80 AD 50 12 01  AD 50 12 01 62 69 6B 30  =[c..P...P..bik0
1720: 2B AD 50 12 01 AC 80 1C  26 80 2B AD 50 12 01 AD  +.P.....&.+.P...
1730: 80 1C 26 80 23 52 24 80  F8 FF FF 7F F8 FF FF 7F  ..&.#R$.........
1740: 73 30 38 34 45 24 80 F8  FF FF 7F F8 FF FF 7F 73  s084E$.........s
1750: 30 38 39 01 80 2B AE 50  12 01 AE 80 1C 26 80 23  089..+.P.....&.#
1760: 2B AE 50 12 01 AF 80 1C  26 80 23 1A D3 3D 1C 21  +.P.....&.#..=.!
1770: 80 52 24 80 F8 FF FF 7F  F8 FF FF 7F 73 30 38 39  .R$.........s089
1780: D0 31 80 F8 FF FF 7F F8  FF FF 7F 68 6B 6C 30 01  .1.........hkl0.
1790: 80 D0 31 80 B2 50 12 01  B2 50 12 01 68 6B 6C 74  ..1..P...P..hklt
17A0: 01 80 81 01 AD 50 12 01  7C 01 AD 50 12 01 D3 00  .....P..|..P....
17B0: AD 50 12 01 6B 69 64 6C  30 AD 50 12 01 6B 69 64  .P..kidl0.P..kid
17C0: 6C 30 AE 50 12 01 1C 00  80 34 B0 80 77 28 80 00  l0.P.....4..w(..
17D0: 80 1C 00 80 29 05 AE 50  12 01 05 BA AE 50 12 01  ....)..P.....P..
17E0: B1 80 B2 80 B3 80 B4 80  80 AE 50 12 01 48 A1 80  ..........P..H..
17F0: 23 45 24 80 F8 FF FF 7F  F8 FF FF 7F 73 30 39 30  #E$.........s090
1800: 01 80 1A B2 3D 1C 33 80  2B AE 50 12 01 B5 80 1C  ....=.3.+.P.....
1810: 26 80 23 52 24 80 F8 FF  FF 7F F8 FF FF 7F 73 30  &.#R$.........s0
1820: 39 30 45 24 80 F8 FF FF  7F F8 FF FF 7F 73 30 39  90E$.........s09
1830: 31 01 80 1C 33 80 2B AE  50 12 01 B6 80 1C 26 80  1...3.+.P.....&.
1840: 23 1A D3 3D 1C 21 80 52  24 80 F8 FF FF 7F F8 FF  #..=.!.R$.......
1850: FF 7F 73 30 39 31 35 B7  80 77 28 80 29 80 1C 00  ..s0915..w(.)...
1860: 80 29 05 AE 50 12 01 09  29 05 B2 50 12 01 0B 22  .)..P...)..P..."
1870: 00 33 01 BA AE 50 12 01  09 80 0A 80 0B 80 4A 80  .3...P........J.
1880: 37 B8 80 B9 80 BA 80 56  80 80 AE 50 12 01 80 F8  7......V...P....
1890: FF FF 7F 1C 21 80 81 00  AE 50 12 01 5B 2E 80 AE  ....!....P..[...
18A0: 50 12 01 AE 50 12 01 63  72 79 30 D0 31 80 F8 FF  P...P..cry0.1...
18B0: FF 7F F8 FF FF 7F 68 6B  79 30 01 80 D0 31 80 B2  ......hky0...1..
18C0: 50 12 01 B2 50 12 01 68  74 6D 30 01 80 D0 30 80  P...P..htm0...0.
18D0: AD 50 12 01 AD 50 12 01  74 61 63 30 01 80 1C 21  .P...P..tac0...!
18E0: 80 45 24 80 F8 FF FF 7F  F8 FF FF 7F 73 30 39 32  .E$.........s092
18F0: 01 80 1A B2 3D 2B AD 50  12 01 BB 80 1C 26 80 23  ....=+.P.....&.#
1900: 52 24 80 F8 FF FF 7F F8  FF FF 7F 73 30 39 32 45  R$.........s092E
1910: 24 80 F8 FF FF 7F F8 FF  FF 7F 73 30 39 33 01 80  $.........s093..
1920: 2B AE 50 12 01 BC 80 1C  26 80 23 2B AE 50 12 01  +.P.....&.#+.P..
1930: BD 80 1C 26 80 23 52 24  80 F8 FF FF 7F F8 FF FF  ...&.#R$........
1940: 7F 73 30 39 33 45 24 80  F8 FF FF 7F F8 FF FF 7F  .s093E$.........
1950: 73 30 39 34 01 80 4A AD  50 12 01 F0 FF FF 7F 1C  s094..J.P.......
1960: 21 80 79 00 F0 FF FF 7F  AD 50 12 01 5B 5D 80 AD  !.y......P..[]..
1970: 50 12 01 AD 50 12 01 74  6C 6B 30 2B AD 50 12 01  P...P..tlk0+.P..
1980: BE 80 1C 26 80 23 5B 5D  80 AD 50 12 01 AD 50 12  ...&.#[]..P...P.
1990: 01 74 6C 6B 31 24 BF 80  01 80 01 80 25 02 00 10  .tlk1$......%...
19A0: 01 80 00 A8 19 01 A8 19  6E F0 FF FF 7F 6A 80 99  ........n....j..
19B0: F0 FF FF 7F 1C 26 80 52  24 80 F8 FF FF 7F F8 FF  .....&.R$.......
19C0: FF 7F 73 30 39 34 45 24  80 F8 FF FF 7F F8 FF FF  ..s094E$........
19D0: 7F 73 30 39 35 01 80 79  00 F0 FF FF 7F AE 50 12  .s095..y......P.
19E0: 01 2B AE 50 12 01 C0 80  1C 33 80 62 A9 80 F8 FF  .+.P.....3.b....
19F0: FF 7F F8 FF FF 7F 6D 61  69 6E 01 80 1C 33 80 23  ......main...3.#
1A00: 52 24 80 F8 FF FF 7F F8  FF FF 7F 73 30 39 35 45  R$.........s095E
1A10: 24 80 F8 FF FF 7F F8 FF  FF 7F 73 30 39 36 01 80  $.........s096..
1A20: 5B 63 80 AD 50 12 01 AD  50 12 01 74 6C 63 30 2B  [c..P...P..tlc0+
1A30: AD 50 12 01 C1 80 1C 26  80 23 2B AD 50 12 01 C2  .P.....&.#+.P...
1A40: 80 1C 26 80 23 D0 30 80  AD 50 12 01 AD 50 12 01  ..&.#.0..P...P..
1A50: 74 61 73 74 01 80 5D 01  80 02 80 1A 15 3E 1C 21  tast..]......>.!
1A60: 80 52 24 80 F8 FF FF 7F  F8 FF FF 7F 73 30 39 36  .R$.........s096
1A70: D0 31 80 F8 FF FF 7F F8  FF FF 7F 68 6B 6C 30 01  .1.........hkl0.
1A80: 80 D0 31 80 B2 50 12 01  B2 50 12 01 68 6B 6C 74  ..1..P...P..hklt
1A90: 01 80 78 1C 00 80 27 05  B2 50 12 01 0C 27 05 F0  ..x...'..P...'..
1AA0: FF FF 7F 1E BA F0 FF FF  7F C3 80 C4 80 C5 80 C6  ................
1AB0: 80 80 F0 FF FF 7F 1C 21  80 29 05 F0 FF FF 7F 04  .......!.)......
1AC0: 48 A1 80 23 45 24 80 F8  FF FF 7F F8 FF FF 7F 73  H..#E$.........s
1AD0: 30 39 37 01 80 1A F4 3D  1C 26 80 27 05 F0 FF FF  097....=.&.'....
1AE0: 7F 05 1C 46 80 1A D3 3D  1C 21 80 52 24 80 F8 FF  ...F...=.!.R$...
1AF0: FF 7F F8 FF FF 7F 73 30  39 37 45 24 80 F8 FF FF  ......s097E$....
1B00: 7F F8 FF FF 7F 30 62 6C  66 01 80 5C 00 01 80 5C  .....0blf..\...\
1B10: 01 01 80 9A 46 00 45 03  80 F8 FF FF 7F F8 FF FF  ....F.E.........
1B20: 7F 66 64 69 32 01 80 21  00                       .fdi2..!.       
```

#### Opcodes

```
  0: 0x0001 [0x42] SET_CLI_EVENT_CANCEL_DATA()
  1: 0x0002 [0x03] Work_Zone[1] = 1*
  2: 0x0007 [0x43] SEND_EVENT_UPDATE: Send pending tag to server (packet 0x005B)
  3: 0x0009 [0x43] SEND_EVENT_UPDATE: Check pending flag (skip if not pending)
  4: 0x000B [0x03] ExtData[1]->WorkLocal[3] = Work_Zone[3]
  5: 0x0010 [0x03] ExtData[1]->WorkLocal[4] = Work_Zone[4]
  6: 0x0015 [0x03] ExtData[1]->WorkLocal[5] = Work_Zone[5]
  7: 0x001A [0x03] ExtData[1]->WorkLocal[6] = Work_Zone[6]
  8: 0x001F [0x03] ExtData[1]->WorkLocal[7] = Work_Zone[7]
  9: 0x0024 [0x5D] SET_MUSIC_VOLUME(volume=0*, fade_time=120*)
 10: 0x0029 [0x45] LOAD_SCHEDULED_TASK: Load scheduler "fdo1" with entities [EventEntity, EventEntity], work=[200*, 0*]
 11: 0x003A [0x55] WAIT_LOAD_SCHEDULER: Wait for scheduler "fdo1" with entities [EventEntity, EventEntity], work=200*
 12: 0x0049 [0x46] CAMERA_CONTROL: Disable user control
 13: 0x004B [0x38] SET_CLIENT_EVENT_MODE(mode=27*)
 14: 0x004E [0x2F] Selh'teus (ID: 17977518/0x011250AE)->Render.Flags0 &= ~0x80000 // Bit 19
 15: 0x0054 [0x2F] Iroha (ID: 17977517/0x011250AD)->Render.Flags0 &= ~0x80000 // Bit 19
 16: 0x005A [0x2F] ??? (ID: 17977516/0x011250AC)->Render.Flags0 &= ~0x80000 // Bit 19
 17: 0x0060 [0x2F] Tenzen (ID: 17977520/0x011250B0)->Render.Flags0 &= ~0x80000 // Bit 19
 18: 0x0066 [0x2F] Lion (ID: 17977521/0x011250B1)->Render.Flags0 &= ~0x80000 // Bit 19
 19: 0x006C [0x4E] SET_ENTITY_HIDE_FLAG: Show Iroha (ID: 17977517/0x011250AD)
 20: 0x0072 [0x4E] SET_ENTITY_HIDE_FLAG: Show Selh'teus (ID: 17977518/0x011250AE)
 21: 0x0078 [0x4E] SET_ENTITY_HIDE_FLAG: Show ??? (ID: 17977516/0x011250AC)
 22: 0x007E [0x4E] SET_ENTITY_HIDE_FLAG: Show Tenzen (ID: 17977520/0x011250B0)
 23: 0x0084 [0x4E] SET_ENTITY_HIDE_FLAG: Show Lion (ID: 17977521/0x011250B1)
 24: 0x008A [0x4E] SET_ENTITY_HIDE_FLAG: Show LocalPlayer
 25: 0x0090 [0x22] ENTITY_HIDE_FLAG(enabled=0x00)
 26: 0x0092 [0x92] Selh'teus (ID: 17977518/0x011250AE)->Render.Flags3 ^= 0x01
 27: 0x0098 [0x92] Iroha (ID: 17977517/0x011250AD)->Render.Flags3 ^= 0x01
 28: 0x009E [0x92] ??? (ID: 17977516/0x011250AC)->Render.Flags3 ^= 0x01
 29: 0x00A4 [0x92] Tenzen (ID: 17977520/0x011250B0)->Render.Flags3 ^= 0x01
 30: 0x00AA [0x92] Lion (ID: 17977521/0x011250B1)->Render.Flags3 ^= 0x01
 31: 0x00B0 [0x94] LocalPlayer->Render.Flags3 ^= 0x01
 32: 0x00B6 [0x94] Selh'teus (ID: 17977518/0x011250AE)->Render.Flags3 ^= 0x01
 33: 0x00BC [0x94] Iroha (ID: 17977517/0x011250AD)->Render.Flags3 ^= 0x01
 34: 0x00C2 [0x59] UPDATE_ENTITY_DATA: Selh'teus (ID: 17977518/0x011250AE)->Render.Flags0 |= 0x200000
 35: 0x00C9 [0x59] UPDATE_ENTITY_DATA: Iroha (ID: 17977517/0x011250AD)->Render.Flags0 |= 0x200000
 36: 0x00D0 [0x59] UPDATE_ENTITY_DATA: ??? (ID: 17977516/0x011250AC)->Render.Flags0 |= 0x200000
 37: 0x00D7 [0x59] UPDATE_ENTITY_DATA: Tenzen (ID: 17977520/0x011250B0)->Render.Flags0 |= 0x200000
 38: 0x00DE [0x59] UPDATE_ENTITY_DATA: Lion (ID: 17977521/0x011250B1)->Render.Flags0 |= 0x200000
 39: 0x00E5 [0x33] EventEntity->Render.Flags0 |= 0x200000 // Bit 21 (flag=0x01)
 40: 0x00E7 [0xBA] SET_ENTITY_POSITION(entity_id=LocalPlayer, pos_x=-0.068*, pos_z=10.158*, pos_y=3.749*, direction=271.1*)
 41: 0x00F4 [0xBA] SET_ENTITY_POSITION(entity_id=Selh'teus (ID: 17977518/0x011250AE), pos_x=20.000*, pos_z=500.000*, pos_y=-1.500*, direction=268.7*)
 42: 0x0101 [0xBA] SET_ENTITY_POSITION(entity_id=Iroha (ID: 17977517/0x011250AD), pos_x=10.995*, pos_z=503.509*, pos_y=-0.680*, direction=12.5*)
 43: 0x010E [0x37] UPDATE_EVENT_POSITION_AND_DIR: x=0.241*, z=20.847*, y=2.000*, direction=257.5*
 44: 0x0117 [0xBA] SET_ENTITY_POSITION(entity_id=??? (ID: 17977516/0x011250AC), pos_x=20.686*, pos_z=494.943*, pos_y=-8.000*, direction=148.2*)
 45: 0x0124 [0xBA] SET_ENTITY_POSITION(entity_id=Tenzen (ID: 17977520/0x011250B0), pos_x=16.500*, pos_z=503.991*, pos_y=-1.000*, direction=293.1*)
 46: 0x0131 [0xBA] SET_ENTITY_POSITION(entity_id=Lion (ID: 17977521/0x011250B1), pos_x=26.145*, pos_z=508.745*, pos_y=-4.000*, direction=271.5*)
 47: 0x013E [0x80] LOAD_WAIT(entity=LocalPlayer)
 48: 0x0143 [0x80] LOAD_WAIT(entity=Iroha (ID: 17977517/0x011250AD))
 49: 0x0148 [0x80] LOAD_WAIT(entity=EventEntity)
 50: 0x014D [0x80] LOAD_WAIT(entity=Selh'teus (ID: 17977518/0x011250AE))
 51: 0x0152 [0x80] LOAD_WAIT(entity=??? (ID: 17977516/0x011250AC))
 52: 0x0157 [0x80] LOAD_WAIT(entity=Tenzen (ID: 17977520/0x011250B0))
 53: 0x015C [0x80] LOAD_WAIT(entity=Lion (ID: 17977521/0x011250B1))
 54: 0x0161 [0x27] REQ_SET(priority=0x05, entity_id=LocalPlayer, tag_num=0x1D)
 55: 0x0168 [0x1C] WAIT(30* ticks)
 56: 0x016B [0x81] SET_ENTITY_BLINKING(blink_flag=0x00, entity=??? (ID: 17977516/0x011250AC))
 57: 0x0171 [0x81] SET_ENTITY_BLINKING(blink_flag=0x00, entity=Tenzen (ID: 17977520/0x011250B0))
 58: 0x0177 [0x81] SET_ENTITY_BLINKING(blink_flag=0x00, entity=Lion (ID: 17977521/0x011250B1))
 59: 0x017D [0x7C] ??? (ID: 17977516/0x011250AC)->Render.Flags2 |= 0x00
 60: 0x0183 [0x7C] Tenzen (ID: 17977520/0x011250B0)->Render.Flags2 |= 0x00
 61: 0x0189 [0x7C] Lion (ID: 17977521/0x011250B1)->Render.Flags2 |= 0x00
 62: 0x018F [0x5B] LOAD_EXT_SCHEDULER: Load scheduler "cry0" with entities [Tenzen (ID: 17977520/0x011250B0), Tenzen (ID: 17977520/0x011250B0)], work=3014*
 63: 0x019E [0x5B] LOAD_EXT_SCHEDULER: Load scheduler "cry1" with entities [Lion (ID: 17977521/0x011250B1), Lion (ID: 17977521/0x011250B1)], work=3014*
 64: 0x01AD [0x5B] LOAD_EXT_SCHEDULER: Load scheduler "cry0" with entities [??? (ID: 17977516/0x011250AC), ??? (ID: 17977516/0x011250AC)], work=3364*
 65: 0x01BC [0x1C] WAIT(30* ticks)
 66: 0x01BF [0x45] LOAD_SCHEDULED_TASK: Load scheduler "s048" with entities [EventEntity, EventEntity], work=[797*, 0*]
 67: 0x01D0 [0x1A] CALL_SUBROUTINE(address=0x3DB2)
 68: 0x01D3 [0x2A] GET_REQ_LEVEL(level=5, entity_id=LocalPlayer)
 69: 0x01D9 [0x1C] WAIT(30* ticks)
 70: 0x01DC [0x52] END_LOAD_SCHEDULER: End scheduler "s048" with entities [EventEntity, EventEntity], work=797*
 71: 0x01EB [0x45] LOAD_SCHEDULED_TASK: Load scheduler "s049" with entities [EventEntity, EventEntity], work=[797*, 0*]
 72: 0x01FC [0x2B] Selh'teus (ID: 17977518/0x011250AE) [7757*]:
     "<Player>...<Player>... Can you hear me?"
 73: 0x0203 [0x1C] WAIT(90* ticks)
 74: 0x0206 [0x23] WAIT_FOR_DIALOG_INTERACTION
 75: 0x0207 [0xC5] LOAD_SCHEDULED_TASK_ALT3: Load scheduler 0x80013430 for entities [EventEntity, EventEntity], work=93*, param=12403
 76: 0x0218 [0x45] LOAD_SCHEDULED_TASK: Load scheduler "1058" with entities [EventEntity, EventEntity], work=[200*, 0*]
 77: 0x0229 [0x1C] WAIT(200* ticks)
 78: 0x022C [0x1A] CALL_SUBROUTINE(address=0x3DD3)
 79: 0x022F [0x1C] WAIT(30* ticks)
 80: 0x0232 [0x52] END_LOAD_SCHEDULER: End scheduler "s049" with entities [EventEntity, EventEntity], work=797*
 81: 0x0241 [0xC5] LOAD_SCHEDULED_TASK_ALT3: Load scheduler 0x80013470 for entities [EventEntity, EventEntity], work=93*, param=29811
 82: 0x0252 [0x77] SET_EVENT_TIME_WEATHER(hour=255*, weather=2*)
 83: 0x0257 [0x1C] WAIT(1* ticks)
 84: 0x025A [0x2F] Prishe (ID: 17977522/0x011250B2)->Render.Flags0 &= ~0x80000 // Bit 19
 85: 0x0260 [0x4E] SET_ENTITY_HIDE_FLAG: Show Prishe (ID: 17977522/0x011250B2)
 86: 0x0266 [0x92] Prishe (ID: 17977522/0x011250B2)->Render.Flags3 ^= 0x01
 87: 0x026C [0x59] UPDATE_ENTITY_DATA: LocalPlayer->Render.Flags0 |= 0x200000
 88: 0x0273 [0x59] UPDATE_ENTITY_DATA: Prishe (ID: 17977522/0x011250B2)->Render.Flags0 |= 0x200000
 89: 0x027A [0xBA] SET_ENTITY_POSITION(entity_id=LocalPlayer, pos_x=20.335*, pos_z=504.228*, pos_y=-0.680*, direction=91.7*)
 90: 0x0287 [0x37] UPDATE_EVENT_POSITION_AND_DIR: x=20.000*, z=500.000*, y=-3.500*, direction=268.7*
 91: 0x0290 [0xBA] SET_ENTITY_POSITION(entity_id=Prishe (ID: 17977522/0x011250B2), pos_x=10.995*, pos_z=503.509*, pos_y=-0.680*, direction=12.5*)
 92: 0x029D [0x80] LOAD_WAIT(entity=LocalPlayer)
 93: 0x02A2 [0x80] LOAD_WAIT(entity=EventEntity)
 94: 0x02A7 [0x80] LOAD_WAIT(entity=Prishe (ID: 17977522/0x011250B2))
 95: 0x02AC [0x4A] Selh'teus (ID: 17977518/0x011250AE) looks at LocalPlayer
 96: 0x02B5 [0x4A] LocalPlayer looks at Selh'teus (ID: 17977518/0x011250AE)
 97: 0x02BE [0x7B] Selh'teus (ID: 17977518/0x011250AE) stops talking
 98: 0x02C3 [0x1C] WAIT(30* ticks)
 99: 0x02C6 [0x81] SET_ENTITY_BLINKING(blink_flag=0x00, entity=Iroha (ID: 17977517/0x011250AD))
100: 0x02CC [0x81] SET_ENTITY_BLINKING(blink_flag=0x00, entity=Selh'teus (ID: 17977518/0x011250AE))
101: 0x02D2 [0x7C] Iroha (ID: 17977517/0x011250AD)->Render.Flags2 |= 0x00
102: 0x02D8 [0x5B] LOAD_EXT_SCHEDULER: Load scheduler "cry0" with entities [Selh'teus (ID: 17977518/0x011250AE), Selh'teus (ID: 17977518/0x011250AE)], work=733*
103: 0x02E7 [0x5B] LOAD_EXT_SCHEDULER: Load scheduler "fyu1" with entities [Iroha (ID: 17977517/0x011250AD), Iroha (ID: 17977517/0x011250AD)], work=3910*
104: 0x02F6 [0xD0] LOAD_SCHEDULED_TASK_ALT5: Load scheduler "kai0" with entities [Iroha (ID: 17977517/0x011250AD), Iroha (ID: 17977517/0x011250AD)], work=[178*, 0*]
105: 0x0307 [0xD0] LOAD_SCHEDULED_TASK_ALT5: Load scheduler "hky0" with entities [EventEntity, EventEntity], work=[182*, 0*]
106: 0x0318 [0xD0] LOAD_SCHEDULED_TASK_ALT5: Load scheduler "htm0" with entities [Prishe (ID: 17977522/0x011250B2), Prishe (ID: 17977522/0x011250B2)], work=[182*, 0*]
107: 0x0329 [0xD0] LOAD_SCHEDULED_TASK_ALT5: Load scheduler "gl01" with entities [??? (ID: 17977516/0x011250AC), ??? (ID: 17977516/0x011250AC)], work=[171*, 0*]
108: 0x033A [0xD0] LOAD_SCHEDULED_TASK_ALT5: Load scheduler "gl01" with entities [Tenzen (ID: 17977520/0x011250B0), Tenzen (ID: 17977520/0x011250B0)], work=[171*, 0*]
109: 0x034B [0xD0] LOAD_SCHEDULED_TASK_ALT5: Load scheduler "gl01" with entities [Lion (ID: 17977521/0x011250B1), Lion (ID: 17977521/0x011250B1)], work=[171*, 0*]
110: 0x035C [0x27] REQ_SET(priority=0x05, entity_id=Selh'teus (ID: 17977518/0x011250AE), tag_num=0x01)
111: 0x0363 [0x1C] WAIT(60* ticks)
112: 0x0366 [0x5C] MUSIC_CONTROL: Set Idle (Day) music to song 153*
113: 0x036A [0x5C] MUSIC_CONTROL: Set Idle (Night) music to song 153*
114: 0x036E [0x9A] WAIT_MUSIC_SERVER()
115: 0x036F [0x45] LOAD_SCHEDULED_TASK: Load scheduler "s050" with entities [EventEntity, EventEntity], work=[797*, 0*]
116: 0x0380 [0x1A] CALL_SUBROUTINE(address=0x3DB2)
117: 0x0383 [0x1C] WAIT(150* ticks)
118: 0x0386 [0x52] END_LOAD_SCHEDULER: End scheduler "s050" with entities [EventEntity, EventEntity], work=797*
119: 0x0395 [0x45] LOAD_SCHEDULED_TASK: Load scheduler "s052" with entities [EventEntity, EventEntity], work=[797*, 0*]
120: 0x03A6 [0x1C] WAIT(120* ticks)
121: 0x03A9 [0x52] END_LOAD_SCHEDULER: End scheduler "s052" with entities [EventEntity, EventEntity], work=797*
122: 0x03B8 [0x45] LOAD_SCHEDULED_TASK: Load scheduler "s053" with entities [EventEntity, EventEntity], work=[797*, 0*]
123: 0x03C9 [0xC5] LOAD_SCHEDULED_TASK_ALT3: Load scheduler 0x80013430 for entities [EventEntity, EventEntity], work=93*, param=12403
124: 0x03DA [0x45] LOAD_SCHEDULED_TASK: Load scheduler "1058" with entities [EventEntity, EventEntity], work=[200*, 0*]
125: 0x03EB [0x1C] WAIT(60* ticks)
126: 0x03EE [0x27] REQ_SET(priority=0x10, entity_id=LocalPlayer, tag_num=0x35)
127: 0x03F5 [0x1C] WAIT(120* ticks)
128: 0x03F8 [0x1A] CALL_SUBROUTINE(address=0x3DD3)
129: 0x03FB [0x1C] WAIT(30* ticks)
130: 0x03FE [0x52] END_LOAD_SCHEDULER: End scheduler "s053" with entities [EventEntity, EventEntity], work=797*
131: 0x040D [0xC5] LOAD_SCHEDULED_TASK_ALT3: Load scheduler 0x80013470 for entities [EventEntity, EventEntity], work=93*, param=29811
132: 0x041E [0x27] REQ_SET(priority=0x05, entity_id=Selh'teus (ID: 17977518/0x011250AE), tag_num=0x03)
133: 0x0425 [0xBA] SET_ENTITY_POSITION(entity_id=??? (ID: 17977516/0x011250AC), pos_x=8.628*, pos_z=500.077*, pos_y=-3.301*, direction=227.7*)
134: 0x0432 [0xBA] SET_ENTITY_POSITION(entity_id=Tenzen (ID: 17977520/0x011250B0), pos_x=5.185*, pos_z=506.249*, pos_y=-4.301*, direction=348.7*)
135: 0x043F [0xBA] SET_ENTITY_POSITION(entity_id=Lion (ID: 17977521/0x011250B1), pos_x=13.769*, pos_z=500.914*, pos_y=-1.000*, direction=25.4*)
136: 0x044C [0x37] UPDATE_EVENT_POSITION_AND_DIR: x=10.995*, z=503.509*, y=-0.680*, direction=12.5*
137: 0x0455 [0x1C] WAIT(60* ticks)
138: 0x0458 [0x45] LOAD_SCHEDULED_TASK: Load scheduler "s054" with entities [EventEntity, EventEntity], work=[797*, 0*]
139: 0x0469 [0x1A] CALL_SUBROUTINE(address=0x3DB2)
140: 0x046C [0x27] REQ_SET(priority=0x10, entity_id=LocalPlayer, tag_num=0x36)
141: 0x0473 [0x2B] Selh'teus (ID: 17977518/0x011250AE) [7758*]:
     "I am so pleased that you found your way back to me."
142: 0x047A [0x23] WAIT_FOR_DIALOG_INTERACTION
143: 0x047B [0x2B] Selh'teus (ID: 17977518/0x011250AE) [7759*]:
     "Far be it from me to remind you of how worried she was about you."
144: 0x0482 [0x23] WAIT_FOR_DIALOG_INTERACTION
145: 0x0483 [0x52] END_LOAD_SCHEDULER: End scheduler "s054" with entities [EventEntity, EventEntity], work=797*
146: 0x0492 [0x45] LOAD_SCHEDULED_TASK: Load scheduler "s051" with entities [EventEntity, EventEntity], work=[797*, 0*]
147: 0x04A3 [0x1C] WAIT(80* ticks)
148: 0x04A6 [0x6B] STOP_AND_IDLE: LocalPlayer stops current action and resets to idle (animation="idl0")
149: 0x04AF [0x4A] LocalPlayer looks at Iroha (ID: 17977517/0x011250AD)
150: 0x04B8 [0x1C] WAIT(100* ticks)
151: 0x04BB [0x52] END_LOAD_SCHEDULER: End scheduler "s051" with entities [EventEntity, EventEntity], work=797*
152: 0x04CA [0x45] LOAD_SCHEDULED_TASK: Load scheduler "s055" with entities [EventEntity, EventEntity], work=[797*, 0*]
153: 0x04DB [0x5B] LOAD_EXT_SCHEDULER: Load scheduler "fyu2" with entities [Iroha (ID: 17977517/0x011250AD), Iroha (ID: 17977517/0x011250AD)], work=3910*
154: 0x04EA [0xD0] LOAD_SCHEDULED_TASK_ALT5: Load scheduler "kai1" with entities [Iroha (ID: 17977517/0x011250AD), Iroha (ID: 17977517/0x011250AD)], work=[178*, 0*]
155: 0x04FB [0x1C] WAIT(40* ticks)
156: 0x04FE [0x4E] SET_ENTITY_HIDE_FLAG: Hide ??? (ID: 17977516/0x011250AC)
157: 0x0504 [0x4E] SET_ENTITY_HIDE_FLAG: Hide Tenzen (ID: 17977520/0x011250B0)
158: 0x050A [0x4E] SET_ENTITY_HIDE_FLAG: Hide Lion (ID: 17977521/0x011250B1)
159: 0x0510 [0xD0] LOAD_SCHEDULED_TASK_ALT5: Load scheduler "klgl" with entities [??? (ID: 17977516/0x011250AC), ??? (ID: 17977516/0x011250AC)], work=[171*, 0*]
160: 0x0521 [0xD0] LOAD_SCHEDULED_TASK_ALT5: Load scheduler "klgl" with entities [Tenzen (ID: 17977520/0x011250B0), Tenzen (ID: 17977520/0x011250B0)], work=[171*, 0*]
161: 0x0532 [0xD0] LOAD_SCHEDULED_TASK_ALT5: Load scheduler "klgl" with entities [Lion (ID: 17977521/0x011250B1), Lion (ID: 17977521/0x011250B1)], work=[171*, 0*]
162: 0x0543 [0x1C] WAIT(100* ticks)
163: 0x0546 [0x52] END_LOAD_SCHEDULER: End scheduler "s055" with entities [EventEntity, EventEntity], work=797*
164: 0x0555 [0x45] LOAD_SCHEDULED_TASK: Load scheduler "s056" with entities [EventEntity, EventEntity], work=[797*, 0*]
165: 0x0566 [0x1C] WAIT(180* ticks)
166: 0x0569 [0x52] END_LOAD_SCHEDULER: End scheduler "s056" with entities [EventEntity, EventEntity], work=797*
167: 0x0578 [0x45] LOAD_SCHEDULED_TASK: Load scheduler "s057" with entities [EventEntity, EventEntity], work=[797*, 0*]
168: 0x0589 [0x5B] LOAD_EXT_SCHEDULER: Load scheduler "was1" with entities [Iroha (ID: 17977517/0x011250AD), Iroha (ID: 17977517/0x011250AD)], work=3860*
169: 0x0598 [0xD0] LOAD_SCHEDULED_TASK_ALT5: Load scheduler "kai2" with entities [Iroha (ID: 17977517/0x011250AD), Iroha (ID: 17977517/0x011250AD)], work=[178*, 0*]
170: 0x05A9 [0x1C] WAIT(200* ticks)
171: 0x05AC [0x52] END_LOAD_SCHEDULER: End scheduler "s057" with entities [EventEntity, EventEntity], work=797*
172: 0x05BB [0x45] LOAD_SCHEDULED_TASK: Load scheduler "s058" with entities [EventEntity, EventEntity], work=[797*, 0*]
173: 0x05CC [0x27] REQ_SET(priority=0x05, entity_id=LocalPlayer, tag_num=0x1C)
174: 0x05D3 [0x1C] WAIT(20* ticks)
175: 0x05D6 [0x6B] STOP_AND_IDLE: Iroha (ID: 17977517/0x011250AD) stops current action and resets to idle (animation="idl0")
176: 0x05DF [0x4A] Iroha (ID: 17977517/0x011250AD) looks at LocalPlayer
177: 0x05E8 [0x7B] Iroha (ID: 17977517/0x011250AD) stops talking
178: 0x05ED [0x1C] WAIT(30* ticks)
179: 0x05F0 [0x5B] LOAD_EXT_SCHEDULER: Load scheduler "sha1" with entities [Iroha (ID: 17977517/0x011250AD), Iroha (ID: 17977517/0x011250AD)], work=3862*
180: 0x05FF [0x1C] WAIT(30* ticks)
181: 0x0602 [0x52] END_LOAD_SCHEDULER: End scheduler "s058" with entities [EventEntity, EventEntity], work=797*
182: 0x0611 [0x45] LOAD_SCHEDULED_TASK: Load scheduler "s059" with entities [EventEntity, EventEntity], work=[797*, 0*]
183: 0x0622 [0x1C] WAIT(60* ticks)
184: 0x0625 [0xBA] SET_ENTITY_POSITION(entity_id=Selh'teus (ID: 17977518/0x011250AE), pos_x=20.000*, pos_z=500.000*, pos_y=-1.500*, direction=207.1*)
185: 0x0632 [0x1C] WAIT(60* ticks)
186: 0x0635 [0x52] END_LOAD_SCHEDULER: End scheduler "s059" with entities [EventEntity, EventEntity], work=797*
187: 0x0644 [0x45] LOAD_SCHEDULED_TASK: Load scheduler "s060" with entities [EventEntity, EventEntity], work=[797*, 0*]
188: 0x0655 [0x5B] LOAD_EXT_SCHEDULER: Load scheduler "fj01" with entities [Iroha (ID: 17977517/0x011250AD), Iroha (ID: 17977517/0x011250AD)], work=3911*
189: 0x0664 [0x5B] LOAD_EXT_SCHEDULER: Load scheduler "bat0" with entities [Iroha (ID: 17977517/0x011250AD), Iroha (ID: 17977517/0x011250AD)], work=3911*
190: 0x0673 [0x2B] Iroha (ID: 17977517/0x011250AD) [7760*]:
     "Master, each second passed like hours..."
191: 0x067A [0x1C] WAIT(120* ticks)
192: 0x067D [0x23] WAIT_FOR_DIALOG_INTERACTION
193: 0x067E [0x5B] LOAD_EXT_SCHEDULER: Load scheduler "fj00" with entities [Iroha (ID: 17977517/0x011250AD), Iroha (ID: 17977517/0x011250AD)], work=3911*
194: 0x068D [0x52] END_LOAD_SCHEDULER: End scheduler "s060" with entities [EventEntity, EventEntity], work=797*
195: 0x069C [0x45] LOAD_SCHEDULED_TASK: Load scheduler "s061" with entities [EventEntity, EventEntity], work=[797*, 0*]
196: 0x06AD [0x24] CREATE_DIALOG(message_id=7761*, default_option=0*, option_flags=0*)
     "How do you react? [Are you well?/Don't strain yourself!/Does this mean you're back with us?]"
197: 0x06B4 [0x25] WAIT_DIALOG_SELECT()
198: 0x06B5 [0x02] IF !(Work_Zone[0] == 0*) GOTO 0x0706
199: 0x06BD [0x52] END_LOAD_SCHEDULER: End scheduler "s061" with entities [EventEntity, EventEntity], work=797*
200: 0x06CC [0x45] LOAD_SCHEDULED_TASK: Load scheduler "s062" with entities [EventEntity, EventEntity], work=[797*, 0*]
201: 0x06DD [0x5B] LOAD_EXT_SCHEDULER: Load scheduler "ff01" with entities [Iroha (ID: 17977517/0x011250AD), Iroha (ID: 17977517/0x011250AD)], work=3858*
202: 0x06EC [0x5B] LOAD_EXT_SCHEDULER: Load scheduler "bat1" with entities [Iroha (ID: 17977517/0x011250AD), Iroha (ID: 17977517/0x011250AD)], work=3911*
203: 0x06FB [0x2B] Iroha (ID: 17977517/0x011250AD) [7762*]:
     "...No. I cannot say that I am whole yet."
204: 0x0702 [0x23] WAIT_FOR_DIALOG_INTERACTION
205: 0x0703 [0x01] GOTO 0x07B8
206: 0x0706 [0x02] IF !(Work_Zone[0] == 1*) GOTO 0x075F
207: 0x070E [0x52] END_LOAD_SCHEDULER: End scheduler "s061" with entities [EventEntity, EventEntity], work=797*
208: 0x071D [0x45] LOAD_SCHEDULED_TASK: Load scheduler "s062" with entities [EventEntity, EventEntity], work=[797*, 0*]
209: 0x072E [0x5B] LOAD_EXT_SCHEDULER: Load scheduler "ff01" with entities [Iroha (ID: 17977517/0x011250AD), Iroha (ID: 17977517/0x011250AD)], work=3858*
210: 0x073D [0x5B] LOAD_EXT_SCHEDULER: Load scheduler "bat1" with entities [Iroha (ID: 17977517/0x011250AD), Iroha (ID: 17977517/0x011250AD)], work=3911*
211: 0x074C [0x2B] Iroha (ID: 17977517/0x011250AD) [7763*]:
     "Your concern touches me more than words can express."
212: 0x0753 [0x23] WAIT_FOR_DIALOG_INTERACTION
213: 0x0754 [0x2B] Iroha (ID: 17977517/0x011250AD) [7764*]:
     "Please forgive me, for I am not yet whole."
214: 0x075B [0x23] WAIT_FOR_DIALOG_INTERACTION
215: 0x075C [0x01] GOTO 0x07B8
216: 0x075F [0x02] IF !(Work_Zone[0] == 2*) GOTO 0x07B8
217: 0x0767 [0x52] END_LOAD_SCHEDULER: End scheduler "s061" with entities [EventEntity, EventEntity], work=797*
218: 0x0776 [0x45] LOAD_SCHEDULED_TASK: Load scheduler "s062" with entities [EventEntity, EventEntity], work=[797*, 0*]
219: 0x0787 [0x5B] LOAD_EXT_SCHEDULER: Load scheduler "ff01" with entities [Iroha (ID: 17977517/0x011250AD), Iroha (ID: 17977517/0x011250AD)], work=3858*
220: 0x0796 [0x5B] LOAD_EXT_SCHEDULER: Load scheduler "bat1" with entities [Iroha (ID: 17977517/0x011250AD), Iroha (ID: 17977517/0x011250AD)], work=3911*
221: 0x07A5 [0x2B] Iroha (ID: 17977517/0x011250AD) [7765*]:
     "...No. I still wander the realm of the dead."
222: 0x07AC [0x23] WAIT_FOR_DIALOG_INTERACTION
223: 0x07AD [0x2B] Iroha (ID: 17977517/0x011250AD) [7766*]:
     "Please forgive me for not being there for you in full."
224: 0x07B4 [0x23] WAIT_FOR_DIALOG_INTERACTION
225: 0x07B5 [0x01] GOTO 0x07B8

SUBROUTINE_07B8:
226: 0x07B8 [0xBA] SET_ENTITY_POSITION(entity_id=??? (ID: 17977516/0x011250AC), pos_x=18.683*, pos_z=489.953*, pos_y=-1.000*, direction=37.6*)
227: 0x07C5 [0x4E] SET_ENTITY_HIDE_FLAG: Show ??? (ID: 17977516/0x011250AC)
228: 0x07CB [0x80] LOAD_WAIT(entity=??? (ID: 17977516/0x011250AC))
229: 0x07D0 [0x1C] WAIT(30* ticks)
230: 0x07D3 [0xD0] LOAD_SCHEDULED_TASK_ALT5: Load scheduler "gl01" with entities [??? (ID: 17977516/0x011250AC), ??? (ID: 17977516/0x011250AC)], work=[171*, 0*]
231: 0x07E4 [0x5B] LOAD_EXT_SCHEDULER: Load scheduler "ff00" with entities [Iroha (ID: 17977517/0x011250AD), Iroha (ID: 17977517/0x011250AD)], work=3858*
232: 0x07F3 [0x52] END_LOAD_SCHEDULER: End scheduler "s062" with entities [EventEntity, EventEntity], work=797*
233: 0x0802 [0x45] LOAD_SCHEDULED_TASK: Load scheduler "s063" with entities [EventEntity, EventEntity], work=[797*, 0*]
234: 0x0813 [0x2B] Selh'teus (ID: 17977518/0x011250AE) [7767*]:
     "All people must one day return to the mothercrystal."
235: 0x081A [0x1C] WAIT(30* ticks)
236: 0x081D [0xBA] SET_ENTITY_POSITION(entity_id=LocalPlayer, pos_x=13.970*, pos_z=504.657*, pos_y=-0.680*, direction=168.4*)
237: 0x082A [0x4A] LocalPlayer looks at Selh'teus (ID: 17977518/0x011250AE)
238: 0x0833 [0x1C] WAIT(40* ticks)
239: 0x0836 [0x23] WAIT_FOR_DIALOG_INTERACTION
240: 0x0837 [0x52] END_LOAD_SCHEDULER: End scheduler "s063" with entities [EventEntity, EventEntity], work=797*
241: 0x0846 [0x45] LOAD_SCHEDULED_TASK: Load scheduler "s064" with entities [EventEntity, EventEntity], work=[797*, 0*]
242: 0x0857 [0x2B] Selh'teus (ID: 17977518/0x011250AE) [7768*]:
     "And Iroha herself resides within this one."
243: 0x085E [0x23] WAIT_FOR_DIALOG_INTERACTION
244: 0x085F [0x2B] Selh'teus (ID: 17977518/0x011250AE) [7769*]:
     "Together with her is the same force that has brought her back countless times... Phoenix."
245: 0x0866 [0x23] WAIT_FOR_DIALOG_INTERACTION
246: 0x0867 [0x52] END_LOAD_SCHEDULER: End scheduler "s064" with entities [EventEntity, EventEntity], work=797*
247: 0x0876 [0x45] LOAD_SCHEDULED_TASK: Load scheduler "s065" with entities [EventEntity, EventEntity], work=[797*, 0*]
248: 0x0887 [0x5B] LOAD_EXT_SCHEDULER: Load scheduler "fb01" with entities [Iroha (ID: 17977517/0x011250AD), Iroha (ID: 17977517/0x011250AD)], work=3858*
249: 0x0896 [0x5B] LOAD_EXT_SCHEDULER: Load scheduler "tlk0" with entities [Iroha (ID: 17977517/0x011250AD), Iroha (ID: 17977517/0x011250AD)], work=3861*
250: 0x08A5 [0x2B] Iroha (ID: 17977517/0x011250AD) [7770*]:
     "Countless times has Phoenix deemed fit to revive me, and I fear this time it needs to rest."
251: 0x08AC [0x1C] WAIT(50* ticks)
252: 0x08AF [0x4E] SET_ENTITY_HIDE_FLAG: Hide ??? (ID: 17977516/0x011250AC)
253: 0x08B5 [0xD0] LOAD_SCHEDULED_TASK_ALT5: Load scheduler "klgl" with entities [??? (ID: 17977516/0x011250AC), ??? (ID: 17977516/0x011250AC)], work=[171*, 0*]
254: 0x08C6 [0x1C] WAIT(50* ticks)
255: 0x08C9 [0x23] WAIT_FOR_DIALOG_INTERACTION
256: 0x08CA [0x52] END_LOAD_SCHEDULER: End scheduler "s065" with entities [EventEntity, EventEntity], work=797*
257: 0x08D9 [0x45] LOAD_SCHEDULED_TASK: Load scheduler "s066" with entities [EventEntity, EventEntity], work=[797*, 0*]
258: 0x08EA [0x1C] WAIT(30* ticks)
259: 0x08ED [0x7C] Selh'teus (ID: 17977518/0x011250AE)->Render.Flags2 |= 0x00
260: 0x08F3 [0x2B] Selh'teus (ID: 17977518/0x011250AE) [7771*]:
     "(Phoenix claims that Iroha's spirit may no longer be able to withstand the journey.)"
261: 0x08FA [0x1C] WAIT(30* ticks)
262: 0x08FD [0x6B] STOP_AND_IDLE: Iroha (ID: 17977517/0x011250AD) stops current action and resets to idle (animation="idl0")
263: 0x0906 [0x81] SET_ENTITY_BLINKING(blink_flag=0x01, entity=Iroha (ID: 17977517/0x011250AD))
264: 0x090C [0x7C] Iroha (ID: 17977517/0x011250AD)->Render.Flags2 |= 0x01
265: 0x0912 [0xD3] CLEAR_ENTITY_MOTION_QUEUE(condition_flag=0x00, entity_server_id=0x011250AD)
266: 0x0918 [0x1C] WAIT(30* ticks)
267: 0x091B [0x23] WAIT_FOR_DIALOG_INTERACTION
268: 0x091C [0x7C] Selh'teus (ID: 17977518/0x011250AE)->Render.Flags2 |= 0x01
269: 0x0922 [0x52] END_LOAD_SCHEDULER: End scheduler "s066" with entities [EventEntity, EventEntity], work=797*
270: 0x0931 [0x45] LOAD_SCHEDULED_TASK: Load scheduler "s069" with entities [EventEntity, EventEntity], work=[797*, 0*]
271: 0x0942 [0x27] REQ_SET(priority=0x05, entity_id=Iroha (ID: 17977517/0x011250AD), tag_num=0x06)
272: 0x0949 [0x2B] Iroha (ID: 17977517/0x011250AD) [7772*]:
     "Master, when I fell in Ceizak Battlegrounds and I expired with Balamor looming over me..."
273: 0x0950 [0x1C] WAIT(90* ticks)
274: 0x0953 [0x23] WAIT_FOR_DIALOG_INTERACTION
275: 0x0954 [0x2B] Iroha (ID: 17977517/0x011250AD) [7773*]:
     "...What happened afterwards?"
276: 0x095B [0x1C] WAIT(90* ticks)
277: 0x095E [0x23] WAIT_FOR_DIALOG_INTERACTION
278: 0x095F [0x2A] GET_REQ_LEVEL(level=5, entity_id=Iroha (ID: 17977517/0x011250AD))
279: 0x0965 [0x27] REQ_SET(priority=0x05, entity_id=LocalPlayer, tag_num=0x09)
280: 0x096C [0x1C] WAIT(80* ticks)
281: 0x096F [0x1A] CALL_SUBROUTINE(address=0x3DD3)
282: 0x0972 [0x1C] WAIT(30* ticks)
283: 0x0975 [0x52] END_LOAD_SCHEDULER: End scheduler "s069" with entities [EventEntity, EventEntity], work=797*
284: 0x0984 [0x27] REQ_SET(priority=0x05, entity_id=??? (ID: 17977516/0x011250AC), tag_num=0x11)
285: 0x098B [0x27] REQ_SET(priority=0x05, entity_id=Tenzen (ID: 17977520/0x011250B0), tag_num=0x02)
286: 0x0992 [0x27] REQ_SET(priority=0x05, entity_id=Lion (ID: 17977521/0x011250B1), tag_num=0x05)
287: 0x0999 [0x27] REQ_SET(priority=0x05, entity_id=LocalPlayer, tag_num=0x0A)
288: 0x09A0 [0x1C] WAIT(40* ticks)
289: 0x09A3 [0x4E] SET_ENTITY_HIDE_FLAG: Hide ??? (ID: 17977516/0x011250AC)
290: 0x09A9 [0x4E] SET_ENTITY_HIDE_FLAG: Hide Tenzen (ID: 17977520/0x011250B0)
291: 0x09AF [0x4E] SET_ENTITY_HIDE_FLAG: Hide Lion (ID: 17977521/0x011250B1)
292: 0x09B5 [0x4A] LocalPlayer looks at Selh'teus (ID: 17977518/0x011250AE)
293: 0x09BE [0x1C] WAIT(30* ticks)
294: 0x09C1 [0x45] LOAD_SCHEDULED_TASK: Load scheduler "s070" with entities [EventEntity, EventEntity], work=[797*, 0*]
295: 0x09D2 [0x1A] CALL_SUBROUTINE(address=0x3DB2)
296: 0x09D5 [0x5B] LOAD_EXT_SCHEDULER: Load scheduler "tlc1" with entities [Iroha (ID: 17977517/0x011250AD), Iroha (ID: 17977517/0x011250AD)], work=3863*
297: 0x09E4 [0x2B] Iroha (ID: 17977517/0x011250AD) [7774*]:
     "Then the force that threatens us is no mere Emptiness--it is a Cloud of Darkness?"
298: 0x09EB [0x1C] WAIT(140* ticks)
299: 0x09EE [0x23] WAIT_FOR_DIALOG_INTERACTION
300: 0x09EF [0x53] WAIT_SCHEDULER_TASK: Wait for scheduler "tlc1" with entities [Iroha (ID: 17977517/0x011250AD), Iroha (ID: 17977517/0x011250AD)]
301: 0x09FC [0x7B] Iroha (ID: 17977517/0x011250AD) stops talking
302: 0x0A01 [0x81] SET_ENTITY_BLINKING(blink_flag=0x00, entity=Iroha (ID: 17977517/0x011250AD))
303: 0x0A07 [0x7C] Iroha (ID: 17977517/0x011250AD)->Render.Flags2 |= 0x00
304: 0x0A0D [0x5B] LOAD_EXT_SCHEDULER: Load scheduler "thk0" with entities [Iroha (ID: 17977517/0x011250AD), Iroha (ID: 17977517/0x011250AD)], work=3862*
305: 0x0A1C [0x52] END_LOAD_SCHEDULER: End scheduler "s070" with entities [EventEntity, EventEntity], work=797*
306: 0x0A2B [0x45] LOAD_SCHEDULED_TASK: Load scheduler "s071" with entities [EventEntity, EventEntity], work=[797*, 0*]
307: 0x0A3C [0x2B] Iroha (ID: 17977517/0x011250AD) [7775*]:
     "An ill portent, indeed."
308: 0x0A43 [0x1C] WAIT(90* ticks)
309: 0x0A46 [0x23] WAIT_FOR_DIALOG_INTERACTION
310: 0x0A47 [0x2B] Iroha (ID: 17977517/0x011250AD) [7776*]:
     "I am not the most learned person, so I must confess to never having heard that name before."
311: 0x0A4E [0x1C] WAIT(90* ticks)
312: 0x0A51 [0x23] WAIT_FOR_DIALOG_INTERACTION
313: 0x0A52 [0x2B] Selh'teus (ID: 17977518/0x011250AE) [7777*]:
     "Nor have I. Lady Yve'noile's wisdom stretches eons beyond ours."
314: 0x0A59 [0x23] WAIT_FOR_DIALOG_INTERACTION
315: 0x0A5A [0x52] END_LOAD_SCHEDULER: End scheduler "s071" with entities [EventEntity, EventEntity], work=797*
316: 0x0A69 [0x45] LOAD_SCHEDULED_TASK: Load scheduler "s072" with entities [EventEntity, EventEntity], work=[797*, 0*]
317: 0x0A7A [0x81] SET_ENTITY_BLINKING(blink_flag=0x01, entity=Iroha (ID: 17977517/0x011250AD))
318: 0x0A80 [0x7C] Iroha (ID: 17977517/0x011250AD)->Render.Flags2 |= 0x01
319: 0x0A86 [0x5B] LOAD_EXT_SCHEDULER: Load scheduler "thk1" with entities [Iroha (ID: 17977517/0x011250AD), Iroha (ID: 17977517/0x011250AD)], work=3862*
320: 0x0A95 [0x2B] Selh'teus (ID: 17977518/0x011250AE) [7778*]:
     "<Player>, would it be fair to understand that you are to face this Cloud of Darkness head-on?"
321: 0x0A9C [0x1C] WAIT(150* ticks)
322: 0x0A9F [0x4A] Iroha (ID: 17977517/0x011250AD) looks at Selh'teus (ID: 17977518/0x011250AE)
323: 0x0AA8 [0x23] WAIT_FOR_DIALOG_INTERACTION
324: 0x0AA9 [0x6E] LocalPlayer uses emote 7*
325: 0x0AB0 [0x99] Wait for LocalPlayer animation to complete
326: 0x0AB5 [0x1C] WAIT(90* ticks)
327: 0x0AB8 [0x52] END_LOAD_SCHEDULER: End scheduler "s072" with entities [EventEntity, EventEntity], work=797*
328: 0x0AC7 [0x45] LOAD_SCHEDULED_TASK: Load scheduler "s073" with entities [EventEntity, EventEntity], work=[797*, 0*]
329: 0x0AD8 [0x2B] Selh'teus (ID: 17977518/0x011250AE) [7779*]:
     "...And Yve'noile set you on the path to become a [god/goddess] of light."
330: 0x0ADF [0x1C] WAIT(90* ticks)
331: 0x0AE2 [0x23] WAIT_FOR_DIALOG_INTERACTION
332: 0x0AE3 [0x52] END_LOAD_SCHEDULER: End scheduler "s073" with entities [EventEntity, EventEntity], work=797*
333: 0x0AF2 [0x45] LOAD_SCHEDULED_TASK: Load scheduler "s074" with entities [EventEntity, EventEntity], work=[797*, 0*]
334: 0x0B03 [0x2B] Iroha (ID: 17977517/0x011250AD) [7780*]:
     "Is...is such a thing possible? For a [man to become a god/woman to become a goddess]?"
335: 0x0B0A [0x23] WAIT_FOR_DIALOG_INTERACTION
336: 0x0B0B [0x1C] WAIT(90* ticks)
337: 0x0B0E [0x23] WAIT_FOR_DIALOG_INTERACTION
338: 0x0B0F [0x52] END_LOAD_SCHEDULER: End scheduler "s074" with entities [EventEntity, EventEntity], work=797*
339: 0x0B1E [0x45] LOAD_SCHEDULED_TASK: Load scheduler "s075" with entities [EventEntity, EventEntity], work=[797*, 0*]
340: 0x0B2F [0x1C] WAIT(30* ticks)
341: 0x0B32 [0x2B] Selh'teus (ID: 17977518/0x011250AE) [7781*]:
     "Then the only path left for you is to use the power of this crystal."
342: 0x0B39 [0x23] WAIT_FOR_DIALOG_INTERACTION
343: 0x0B3A [0x1C] WAIT(90* ticks)
344: 0x0B3D [0x23] WAIT_FOR_DIALOG_INTERACTION
345: 0x0B3E [0x52] END_LOAD_SCHEDULER: End scheduler "s075" with entities [EventEntity, EventEntity], work=797*
346: 0x0B4D [0x45] LOAD_SCHEDULED_TASK: Load scheduler "s068" with entities [EventEntity, EventEntity], work=[797*, 0*]
347: 0x0B5E [0x1C] WAIT(60* ticks)
348: 0x0B61 [0x2B] Selh'teus (ID: 17977518/0x011250AE) [7782*]:
     "Which requires us to break it."
349: 0x0B68 [0x23] WAIT_FOR_DIALOG_INTERACTION
350: 0x0B69 [0x1C] WAIT(90* ticks)
351: 0x0B6C [0x23] WAIT_FOR_DIALOG_INTERACTION
352: 0x0B6D [0x5B] LOAD_EXT_SCHEDULER: Load scheduler "tlb0" with entities [Iroha (ID: 17977517/0x011250AD), Iroha (ID: 17977517/0x011250AD)], work=3863*
353: 0x0B7C [0x52] END_LOAD_SCHEDULER: End scheduler "s068" with entities [EventEntity, EventEntity], work=797*
354: 0x0B8B [0x45] LOAD_SCHEDULED_TASK: Load scheduler "s067" with entities [EventEntity, EventEntity], work=[797*, 0*]
355: 0x0B9C [0x2B] Iroha (ID: 17977517/0x011250AD) [7783*]:
     "Break it!?"
356: 0x0BA3 [0x1C] WAIT(60* ticks)
357: 0x0BA6 [0x23] WAIT_FOR_DIALOG_INTERACTION
358: 0x0BA7 [0x5B] LOAD_EXT_SCHEDULER: Load scheduler "tlb1" with entities [Iroha (ID: 17977517/0x011250AD), Iroha (ID: 17977517/0x011250AD)], work=3863*
359: 0x0BB6 [0x52] END_LOAD_SCHEDULER: End scheduler "s067" with entities [EventEntity, EventEntity], work=797*
360: 0x0BC5 [0x45] LOAD_SCHEDULED_TASK: Load scheduler "s076" with entities [EventEntity, EventEntity], work=[797*, 0*]
361: 0x0BD6 [0x2B] Selh'teus (ID: 17977518/0x011250AE) [7784*]:
     "It is but a matter of time before the Emptiness resumes its endless march across the Far East."
362: 0x0BDD [0x1C] WAIT(90* ticks)
363: 0x0BE0 [0x23] WAIT_FOR_DIALOG_INTERACTION
364: 0x0BE1 [0x2B] Selh'teus (ID: 17977518/0x011250AE) [7785*]:
     "And many souls remain in slumber inside the crystals..."
365: 0x0BE8 [0x1C] WAIT(90* ticks)
366: 0x0BEB [0x23] WAIT_FOR_DIALOG_INTERACTION
367: 0x0BEC [0x2B] Selh'teus (ID: 17977518/0x011250AE) [7786*]:
     "They can lend you their power, and as they join you, they will not cease to exist..."
368: 0x0BF3 [0x1C] WAIT(90* ticks)
369: 0x0BF6 [0x23] WAIT_FOR_DIALOG_INTERACTION
370: 0x0BF7 [0x52] END_LOAD_SCHEDULER: End scheduler "s076" with entities [EventEntity, EventEntity], work=797*
371: 0x0C06 [0x45] LOAD_SCHEDULED_TASK: Load scheduler "s077" with entities [EventEntity, EventEntity], work=[797*, 0*]
372: 0x0C17 [0x1C] WAIT(45* ticks)
373: 0x0C1A [0x2B] Selh'teus (ID: 17977518/0x011250AE) [7787*]:
     "...But will rather become one with you. Perhaps that is the key in becoming a [god/goddess] of light."
374: 0x0C21 [0x1C] WAIT(30* ticks)
375: 0x0C24 [0x4A] Iroha (ID: 17977517/0x011250AD) looks at LocalPlayer
376: 0x0C2D [0x1C] WAIT(90* ticks)
377: 0x0C30 [0x23] WAIT_FOR_DIALOG_INTERACTION
378: 0x0C31 [0x52] END_LOAD_SCHEDULER: End scheduler "s077" with entities [EventEntity, EventEntity], work=797*
379: 0x0C40 [0x45] LOAD_SCHEDULED_TASK: Load scheduler "s078" with entities [EventEntity, EventEntity], work=[797*, 0*]
380: 0x0C51 [0x5B] LOAD_EXT_SCHEDULER: Load scheduler "tlc0" with entities [Iroha (ID: 17977517/0x011250AD), Iroha (ID: 17977517/0x011250AD)], work=3863*
381: 0x0C60 [0x2B] Iroha (ID: 17977517/0x011250AD) [7788*]:
     "Master, I..."
382: 0x0C67 [0x1C] WAIT(90* ticks)
383: 0x0C6A [0x23] WAIT_FOR_DIALOG_INTERACTION
384: 0x0C6B [0x2B] Iroha (ID: 17977517/0x011250AD) [7789*]:
     "I wish there was some way to avoid having to pay such a heavy cost."
385: 0x0C72 [0x1C] WAIT(90* ticks)
386: 0x0C75 [0x23] WAIT_FOR_DIALOG_INTERACTION
387: 0x0C76 [0x5B] LOAD_EXT_SCHEDULER: Load scheduler "tlc1" with entities [Iroha (ID: 17977517/0x011250AD), Iroha (ID: 17977517/0x011250AD)], work=3863*
388: 0x0C85 [0x52] END_LOAD_SCHEDULER: End scheduler "s078" with entities [EventEntity, EventEntity], work=797*
389: 0x0C94 [0x45] LOAD_SCHEDULED_TASK: Load scheduler "s079" with entities [EventEntity, EventEntity], work=[797*, 0*]
390: 0x0CA5 [0x2B] Selh'teus (ID: 17977518/0x011250AE) [7790*]:
     "Is this truly the only option?"
391: 0x0CAC [0x1C] WAIT(90* ticks)
392: 0x0CAF [0x23] WAIT_FOR_DIALOG_INTERACTION
393: 0x0CB0 [0x2B] Selh'teus (ID: 17977518/0x011250AE) [7791*]:
     "Will this lead to us stopping the Cloud of Darkness?"
394: 0x0CB7 [0x1C] WAIT(90* ticks)
395: 0x0CBA [0x23] WAIT_FOR_DIALOG_INTERACTION
396: 0x0CBB [0x52] END_LOAD_SCHEDULER: End scheduler "s079" with entities [EventEntity, EventEntity], work=797*
397: 0x0CCA [0x45] LOAD_SCHEDULED_TASK: Load scheduler "s083" with entities [EventEntity, EventEntity], work=[797*, 0*]
398: 0x0CDB [0x24] CREATE_DIALOG(message_id=7792*, default_option=0*, option_flags=0*)
     "Are you destined for godhood? [I'll do what must be done./I'm not cut out for it.]"
399: 0x0CE2 [0x25] WAIT_DIALOG_SELECT()
400: 0x0CE3 [0x02] IF !(Work_Zone[0] == 0*) GOTO 0x0D45
401: 0x0CEB [0x6E] LocalPlayer uses emote 36*
402: 0x0CF2 [0x99] Wait for LocalPlayer animation to complete
403: 0x0CF7 [0x1C] WAIT(90* ticks)
404: 0x0CFA [0x52] END_LOAD_SCHEDULER: End scheduler "s083" with entities [EventEntity, EventEntity], work=797*
405: 0x0D09 [0x45] LOAD_SCHEDULED_TASK: Load scheduler "s082" with entities [EventEntity, EventEntity], work=[797*, 0*]
406: 0x0D1A [0x5F] MULTI_HANDLER_COMPLEX(mode=0x05 - Load ext scheduler with flag (OpCode 0x5B mode 0, flag 1), ref=3862*, entity1=Iroha (ID: 17977517/0x011250AD), entity2=Iroha (ID: 17977517/0x011250AD), string="yes0", extra=130*)
407: 0x0D2C [0x2B] Iroha (ID: 17977517/0x011250AD) [7793*]:
     "Master, if this is your decision, then I shall follow you to the ends of Vana'diel."
408: 0x0D33 [0x1C] WAIT(90* ticks)
409: 0x0D36 [0x23] WAIT_FOR_DIALOG_INTERACTION
410: 0x0D37 [0x2B] Iroha (ID: 17977517/0x011250AD) [7794*]:
     "I shall raise my voice to join the chorus of ten thousand voices singing songs of hope."
411: 0x0D3E [0x1C] WAIT(90* ticks)
412: 0x0D41 [0x23] WAIT_FOR_DIALOG_INTERACTION
413: 0x0D42 [0x01] GOTO 0x0D9C
414: 0x0D45 [0x02] IF !(Work_Zone[0] == 1*) GOTO 0x0D9C
415: 0x0D4D [0x6E] LocalPlayer uses emote 35*
416: 0x0D54 [0x99] Wait for LocalPlayer animation to complete
417: 0x0D59 [0x1C] WAIT(90* ticks)
418: 0x0D5C [0x52] END_LOAD_SCHEDULER: End scheduler "s083" with entities [EventEntity, EventEntity], work=797*
419: 0x0D6B [0x45] LOAD_SCHEDULED_TASK: Load scheduler "s082" with entities [EventEntity, EventEntity], work=[797*, 0*]
420: 0x0D7C [0x5F] MULTI_HANDLER_COMPLEX(mode=0x05 - Load ext scheduler with flag (OpCode 0x5B mode 0, flag 1), ref=3862*, entity1=Iroha (ID: 17977517/0x011250AD), entity2=Iroha (ID: 17977517/0x011250AD), string="yes0", extra=130*)
421: 0x0D8E [0x2B] Iroha (ID: 17977517/0x011250AD) [7795*]:
     "Though time may be of the essence, a decision with such gravity must not be made lightly. Please, take your time to consider which course of action is best."
422: 0x0D95 [0x1C] WAIT(90* ticks)
423: 0x0D98 [0x23] WAIT_FOR_DIALOG_INTERACTION
424: 0x0D99 [0x01] GOTO 0x0D9C

SUBROUTINE_0D9C:
425: 0x0D9C [0x5F] MULTI_HANDLER_COMPLEX(mode=0x07 - Wait scheduler task (OpCode 0x53))
426: 0x0DAA [0x52] END_LOAD_SCHEDULER: End scheduler "s082" with entities [EventEntity, EventEntity], work=797*
427: 0x0DB9 [0x45] LOAD_SCHEDULED_TASK: Load scheduler "s088" with entities [EventEntity, EventEntity], work=[797*, 0*]
428: 0x0DCA [0x2B] Selh'teus (ID: 17977518/0x011250AE) [7796*]:
     "It is not so simple."
429: 0x0DD1 [0x1C] WAIT(20* ticks)
430: 0x0DD4 [0x4A] Iroha (ID: 17977517/0x011250AD) looks at Selh'teus (ID: 17977518/0x011250AE)
431: 0x0DDD [0x1C] WAIT(40* ticks)
432: 0x0DE0 [0x23] WAIT_FOR_DIALOG_INTERACTION
433: 0x0DE1 [0x2B] Selh'teus (ID: 17977518/0x011250AE) [7797*]:
     "<Player> cannot hope to make the journey in [his/her] current state."
434: 0x0DE8 [0x1C] WAIT(90* ticks)
435: 0x0DEB [0x23] WAIT_FOR_DIALOG_INTERACTION
436: 0x0DEC [0x5B] LOAD_EXT_SCHEDULER: Load scheduler "tlc0" with entities [Iroha (ID: 17977517/0x011250AD), Iroha (ID: 17977517/0x011250AD)], work=3863*
437: 0x0DFB [0x2B] Iroha (ID: 17977517/0x011250AD) [7798*]:
     "Then what hope do we have?"
438: 0x0E02 [0x1C] WAIT(90* ticks)
439: 0x0E05 [0x23] WAIT_FOR_DIALOG_INTERACTION
440: 0x0E06 [0x5B] LOAD_EXT_SCHEDULER: Load scheduler "tlc1" with entities [Iroha (ID: 17977517/0x011250AD), Iroha (ID: 17977517/0x011250AD)], work=3863*
441: 0x0E15 [0x52] END_LOAD_SCHEDULER: End scheduler "s088" with entities [EventEntity, EventEntity], work=797*
442: 0x0E24 [0x02] IF !(LocalPlayer->Race == 5*) GOTO 0x0E40
443: 0x0E2C [0x45] LOAD_SCHEDULED_TASK: Load scheduler "s081" with entities [EventEntity, EventEntity], work=[797*, 0*]
444: 0x0E3D [0x01] GOTO 0x0E6D
445: 0x0E40 [0x02] IF !(LocalPlayer->Race == 6*) GOTO 0x0E5C
446: 0x0E48 [0x45] LOAD_SCHEDULED_TASK: Load scheduler "s081" with entities [EventEntity, EventEntity], work=[797*, 0*]
447: 0x0E59 [0x01] GOTO 0x0E6D
448: 0x0E5C [0x45] LOAD_SCHEDULED_TASK: Load scheduler "s080" with entities [EventEntity, EventEntity], work=[797*, 0*]

SUBROUTINE_0E6D:
449: 0x0E6D [0x2B] Selh'teus (ID: 17977518/0x011250AE) [7799*]:
     "<Player>, a swell of darkness clouds your mind and spirit."
450: 0x0E74 [0x23] WAIT_FOR_DIALOG_INTERACTION
451: 0x0E75 [0x1A] CALL_SUBROUTINE(address=0x3F26)
452: 0x0E78 [0x1C] WAIT(15* ticks)
453: 0x0E7B [0x52] END_LOAD_SCHEDULER: End scheduler "s080" with entities [EventEntity, EventEntity], work=797*
454: 0x0E8A [0x52] END_LOAD_SCHEDULER: End scheduler "s081" with entities [EventEntity, EventEntity], work=797*
455: 0x0E99 [0xD0] LOAD_SCHEDULED_TASK_ALT5: Load scheduler "hklt" with entities [Prishe (ID: 17977522/0x011250B2), Prishe (ID: 17977522/0x011250B2)], work=[182*, 0*]
456: 0x0EAA [0xD0] LOAD_SCHEDULED_TASK_ALT5: Load scheduler "hkl0" with entities [EventEntity, EventEntity], work=[182*, 0*]
457: 0x0EBB [0x4E] SET_ENTITY_HIDE_FLAG: Hide Selh'teus (ID: 17977518/0x011250AE)
458: 0x0EC1 [0x4E] SET_ENTITY_HIDE_FLAG: Hide Iroha (ID: 17977517/0x011250AD)
459: 0x0EC7 [0x2F] Disjoined One (ID: 17977519/0x011250AF)->Render.Flags0 &= ~0x80000 // Bit 19
460: 0x0ECD [0x2F] Unnamed NPC (ID: 17977528/0x011250B8)->Render.Flags0 &= ~0x80000 // Bit 19
461: 0x0ED3 [0x2F] Unnamed NPC (ID: 17977529/0x011250B9)->Render.Flags0 &= ~0x80000 // Bit 19
462: 0x0ED9 [0x2F] Unnamed NPC (ID: 17977530/0x011250BA)->Render.Flags0 &= ~0x80000 // Bit 19
463: 0x0EDF [0x2F] Unnamed NPC (ID: 17977531/0x011250BB)->Render.Flags0 &= ~0x80000 // Bit 19
464: 0x0EE5 [0x2F] Unnamed NPC (ID: 17977532/0x011250BC)->Render.Flags0 &= ~0x80000 // Bit 19
465: 0x0EEB [0x2F] Unnamed NPC (ID: 17977533/0x011250BD)->Render.Flags0 &= ~0x80000 // Bit 19
466: 0x0EF1 [0x2F] Unnamed NPC (ID: 17977534/0x011250BE)->Render.Flags0 &= ~0x80000 // Bit 19
467: 0x0EF7 [0x4E] SET_ENTITY_HIDE_FLAG: Show Disjoined One (ID: 17977519/0x011250AF)
468: 0x0EFD [0x4E] SET_ENTITY_HIDE_FLAG: Show Unnamed NPC (ID: 17977528/0x011250B8)
469: 0x0F03 [0x4E] SET_ENTITY_HIDE_FLAG: Show Unnamed NPC (ID: 17977529/0x011250B9)
470: 0x0F09 [0x4E] SET_ENTITY_HIDE_FLAG: Show Unnamed NPC (ID: 17977530/0x011250BA)
471: 0x0F0F [0x4E] SET_ENTITY_HIDE_FLAG: Show Unnamed NPC (ID: 17977531/0x011250BB)
472: 0x0F15 [0x4E] SET_ENTITY_HIDE_FLAG: Show Unnamed NPC (ID: 17977532/0x011250BC)
473: 0x0F1B [0x4E] SET_ENTITY_HIDE_FLAG: Show Unnamed NPC (ID: 17977533/0x011250BD)
474: 0x0F21 [0x4E] SET_ENTITY_HIDE_FLAG: Show Unnamed NPC (ID: 17977534/0x011250BE)
475: 0x0F27 [0x92] Disjoined One (ID: 17977519/0x011250AF)->Render.Flags3 ^= 0x01
476: 0x0F2D [0x94] Disjoined One (ID: 17977519/0x011250AF)->Render.Flags3 ^= 0x01
477: 0x0F33 [0x94] Unnamed NPC (ID: 17977528/0x011250B8)->Render.Flags3 ^= 0x01
478: 0x0F39 [0x94] Unnamed NPC (ID: 17977529/0x011250B9)->Render.Flags3 ^= 0x01
479: 0x0F3F [0x94] Unnamed NPC (ID: 17977530/0x011250BA)->Render.Flags3 ^= 0x01
480: 0x0F45 [0x94] Unnamed NPC (ID: 17977531/0x011250BB)->Render.Flags3 ^= 0x01
481: 0x0F4B [0x94] Unnamed NPC (ID: 17977532/0x011250BC)->Render.Flags3 ^= 0x01
482: 0x0F51 [0x94] Unnamed NPC (ID: 17977533/0x011250BD)->Render.Flags3 ^= 0x01
483: 0x0F57 [0x94] Unnamed NPC (ID: 17977534/0x011250BE)->Render.Flags3 ^= 0x01
484: 0x0F5D [0x59] UPDATE_ENTITY_DATA: Disjoined One (ID: 17977519/0x011250AF)->Render.Flags0 |= 0x200000
485: 0x0F64 [0x59] UPDATE_ENTITY_DATA: Unnamed NPC (ID: 17977528/0x011250B8)->Render.Flags0 |= 0x200000
486: 0x0F6B [0x59] UPDATE_ENTITY_DATA: Unnamed NPC (ID: 17977529/0x011250B9)->Render.Flags0 |= 0x200000
487: 0x0F72 [0x59] UPDATE_ENTITY_DATA: Unnamed NPC (ID: 17977530/0x011250BA)->Render.Flags0 |= 0x200000
488: 0x0F79 [0x59] UPDATE_ENTITY_DATA: Unnamed NPC (ID: 17977531/0x011250BB)->Render.Flags0 |= 0x200000
489: 0x0F80 [0x59] UPDATE_ENTITY_DATA: Unnamed NPC (ID: 17977532/0x011250BC)->Render.Flags0 |= 0x200000
490: 0x0F87 [0x59] UPDATE_ENTITY_DATA: Unnamed NPC (ID: 17977533/0x011250BD)->Render.Flags0 |= 0x200000
491: 0x0F8E [0x59] UPDATE_ENTITY_DATA: Unnamed NPC (ID: 17977534/0x011250BE)->Render.Flags0 |= 0x200000
492: 0x0F95 [0xBA] SET_ENTITY_POSITION(entity_id=Disjoined One (ID: 17977519/0x011250AF), pos_x=16.445*, pos_z=501.796*, pos_y=-1.000*, direction=37.6*)
493: 0x0FA2 [0xBA] SET_ENTITY_POSITION(entity_id=Unnamed NPC (ID: 17977528/0x011250B8), pos_x=10.679*, pos_z=501.623*, pos_y=-1.000*, direction=37.6*)
494: 0x0FAF [0xBA] SET_ENTITY_POSITION(entity_id=Unnamed NPC (ID: 17977529/0x011250B9), pos_x=9.488*, pos_z=504.860*, pos_y=-1.000*, direction=37.6*)
495: 0x0FBC [0xBA] SET_ENTITY_POSITION(entity_id=Unnamed NPC (ID: 17977530/0x011250BA), pos_x=16.976*, pos_z=505.982*, pos_y=-1.000*, direction=37.6*)
496: 0x0FC9 [0xBA] SET_ENTITY_POSITION(entity_id=Unnamed NPC (ID: 17977531/0x011250BB), pos_x=12.819*, pos_z=500.779*, pos_y=-1.000*, direction=37.6*)
497: 0x0FD6 [0xBA] SET_ENTITY_POSITION(entity_id=Unnamed NPC (ID: 17977532/0x011250BC), pos_x=14.042*, pos_z=500.795*, pos_y=-1.000*, direction=37.6*)
498: 0x0FE3 [0xBA] SET_ENTITY_POSITION(entity_id=Unnamed NPC (ID: 17977533/0x011250BD), pos_x=11.796*, pos_z=508.107*, pos_y=-1.000*, direction=37.6*)
499: 0x0FF0 [0xBA] SET_ENTITY_POSITION(entity_id=Unnamed NPC (ID: 17977534/0x011250BE), pos_x=14.748*, pos_z=509.204*, pos_y=-1.000*, direction=37.6*)
500: 0x0FFD [0x80] LOAD_WAIT(entity=Disjoined One (ID: 17977519/0x011250AF))
501: 0x1002 [0x80] LOAD_WAIT(entity=Unnamed NPC (ID: 17977528/0x011250B8))
502: 0x1007 [0x80] LOAD_WAIT(entity=Unnamed NPC (ID: 17977529/0x011250B9))
503: 0x100C [0x80] LOAD_WAIT(entity=Unnamed NPC (ID: 17977530/0x011250BA))
504: 0x1011 [0x80] LOAD_WAIT(entity=Unnamed NPC (ID: 17977531/0x011250BB))
505: 0x1016 [0x80] LOAD_WAIT(entity=Unnamed NPC (ID: 17977532/0x011250BC))
506: 0x101B [0x80] LOAD_WAIT(entity=Unnamed NPC (ID: 17977533/0x011250BD))
507: 0x1020 [0x80] LOAD_WAIT(entity=Unnamed NPC (ID: 17977534/0x011250BE))
508: 0x1025 [0x4A] Disjoined One (ID: 17977519/0x011250AF) looks at LocalPlayer
509: 0x102E [0x4A] Unnamed NPC (ID: 17977528/0x011250B8) looks at LocalPlayer
510: 0x1037 [0x4A] Unnamed NPC (ID: 17977529/0x011250B9) looks at LocalPlayer
511: 0x1040 [0x4A] Unnamed NPC (ID: 17977530/0x011250BA) looks at LocalPlayer
512: 0x1049 [0x4A] Unnamed NPC (ID: 17977531/0x011250BB) looks at LocalPlayer
513: 0x1052 [0x4A] Unnamed NPC (ID: 17977532/0x011250BC) looks at LocalPlayer
514: 0x105B [0x4A] Unnamed NPC (ID: 17977533/0x011250BD) looks at LocalPlayer
515: 0x1064 [0x4A] Unnamed NPC (ID: 17977534/0x011250BE) looks at LocalPlayer
516: 0x106D [0x7B] Disjoined One (ID: 17977519/0x011250AF) stops talking
517: 0x1072 [0x7B] Unnamed NPC (ID: 17977528/0x011250B8) stops talking
518: 0x1077 [0x7B] Unnamed NPC (ID: 17977529/0x011250B9) stops talking
519: 0x107C [0x7B] Unnamed NPC (ID: 17977530/0x011250BA) stops talking
520: 0x1081 [0x7B] Unnamed NPC (ID: 17977531/0x011250BB) stops talking
521: 0x1086 [0x7B] Unnamed NPC (ID: 17977532/0x011250BC) stops talking
522: 0x108B [0x7B] Unnamed NPC (ID: 17977533/0x011250BD) stops talking
523: 0x1090 [0x7B] Unnamed NPC (ID: 17977534/0x011250BE) stops talking
524: 0x1095 [0x7B] LocalPlayer stops talking
525: 0x109A [0x1C] WAIT(30* ticks)
526: 0x109D [0xD0] LOAD_SCHEDULED_TASK_ALT5: Load scheduler "gng0" with entities [Disjoined One (ID: 17977519/0x011250AF), Disjoined One (ID: 17977519/0x011250AF)], work=[183*, 0*]
527: 0x10AE [0xD0] LOAD_SCHEDULED_TASK_ALT5: Load scheduler "gnh1" with entities [Unnamed NPC (ID: 17977528/0x011250B8), Unnamed NPC (ID: 17977528/0x011250B8)], work=[183*, 0*]
528: 0x10BF [0xD0] LOAD_SCHEDULED_TASK_ALT5: Load scheduler "gnh1" with entities [Unnamed NPC (ID: 17977529/0x011250B9), Unnamed NPC (ID: 17977529/0x011250B9)], work=[183*, 0*]
529: 0x10D0 [0xD0] LOAD_SCHEDULED_TASK_ALT5: Load scheduler "gnh1" with entities [Unnamed NPC (ID: 17977530/0x011250BA), Unnamed NPC (ID: 17977530/0x011250BA)], work=[183*, 0*]
530: 0x10E1 [0xD0] LOAD_SCHEDULED_TASK_ALT5: Load scheduler "gnh1" with entities [Unnamed NPC (ID: 17977531/0x011250BB), Unnamed NPC (ID: 17977531/0x011250BB)], work=[183*, 0*]
531: 0x10F2 [0xD0] LOAD_SCHEDULED_TASK_ALT5: Load scheduler "gnh1" with entities [Unnamed NPC (ID: 17977532/0x011250BC), Unnamed NPC (ID: 17977532/0x011250BC)], work=[183*, 0*]
532: 0x1103 [0xD0] LOAD_SCHEDULED_TASK_ALT5: Load scheduler "gnh1" with entities [Unnamed NPC (ID: 17977533/0x011250BD), Unnamed NPC (ID: 17977533/0x011250BD)], work=[183*, 0*]
533: 0x1114 [0xD0] LOAD_SCHEDULED_TASK_ALT5: Load scheduler "gnh1" with entities [Unnamed NPC (ID: 17977534/0x011250BE), Unnamed NPC (ID: 17977534/0x011250BE)], work=[183*, 0*]
534: 0x1125 [0x5B] LOAD_EXT_SCHEDULER: Load scheduler "fyu0" with entities [Disjoined One (ID: 17977519/0x011250AF), Disjoined One (ID: 17977519/0x011250AF)], work=3889*
535: 0x1134 [0x66] LOAD_EXT_SCHEDULER_MAIN: Load scheduler "fyu0" with entities [Unnamed NPC (ID: 17977528/0x011250B8), Unnamed NPC (ID: 17977528/0x011250B8)], work=223*
536: 0x1143 [0x66] LOAD_EXT_SCHEDULER_MAIN: Load scheduler "fyu0" with entities [Unnamed NPC (ID: 17977529/0x011250B9), Unnamed NPC (ID: 17977529/0x011250B9)], work=233*
537: 0x1152 [0x66] LOAD_EXT_SCHEDULER_MAIN: Load scheduler "fyu0" with entities [Unnamed NPC (ID: 17977530/0x011250BA), Unnamed NPC (ID: 17977530/0x011250BA)], work=243*
538: 0x1161 [0x66] LOAD_EXT_SCHEDULER_MAIN: Load scheduler "fyu0" with entities [Unnamed NPC (ID: 17977531/0x011250BB), Unnamed NPC (ID: 17977531/0x011250BB)], work=253*
539: 0x1170 [0x66] LOAD_EXT_SCHEDULER_MAIN: Load scheduler "fyu0" with entities [Unnamed NPC (ID: 17977532/0x011250BC), Unnamed NPC (ID: 17977532/0x011250BC)], work=253*
540: 0x117F [0x66] LOAD_EXT_SCHEDULER_MAIN: Load scheduler "fyu0" with entities [Unnamed NPC (ID: 17977533/0x011250BD), Unnamed NPC (ID: 17977533/0x011250BD)], work=263*
541: 0x118E [0x66] LOAD_EXT_SCHEDULER_MAIN: Load scheduler "fyu0" with entities [Unnamed NPC (ID: 17977534/0x011250BE), Unnamed NPC (ID: 17977534/0x011250BE)], work=273*
542: 0x119D [0x1C] WAIT(30* ticks)
543: 0x11A0 [0x45] LOAD_SCHEDULED_TASK: Load scheduler "s102" with entities [EventEntity, EventEntity], work=[797*, 0*]
544: 0x11B1 [0x1A] CALL_SUBROUTINE(address=0x3DF4)
545: 0x11B4 [0x6E] LocalPlayer uses emote 29*
546: 0x11BB [0x99] Wait for LocalPlayer animation to complete
547: 0x11C0 [0x1C] WAIT(90* ticks)
548: 0x11C3 [0x27] REQ_SET(priority=0x10, entity_id=Unnamed NPC (ID: 17977512/0x011250A8), tag_num=0x06)
549: 0x11CA [0x1C] WAIT(600* ticks)
550: 0x11CD [0x1A] CALL_SUBROUTINE(address=0x3E15)
551: 0x11D0 [0x1C] WAIT(30* ticks)
552: 0x11D3 [0x52] END_LOAD_SCHEDULER: End scheduler "s102" with entities [EventEntity, EventEntity], work=797*
553: 0x11E2 [0x45] LOAD_SCHEDULED_TASK: Load scheduler "0blf" with entities [EventEntity, EventEntity], work=[797*, 0*]
554: 0x11F3 [0xD0] LOAD_SCHEDULED_TASK_ALT5: Load scheduler "sekl" with entities [Disjoined One (ID: 17977519/0x011250AF), Disjoined One (ID: 17977519/0x011250AF)], work=[183*, 0*]
555: 0x1204 [0x4E] SET_ENTITY_HIDE_FLAG: Hide LocalPlayer
556: 0x120A [0x4E] SET_ENTITY_HIDE_FLAG: Hide Disjoined One (ID: 17977519/0x011250AF)
557: 0x1210 [0x4E] SET_ENTITY_HIDE_FLAG: Hide Unnamed NPC (ID: 17977528/0x011250B8)
558: 0x1216 [0x4E] SET_ENTITY_HIDE_FLAG: Hide Unnamed NPC (ID: 17977529/0x011250B9)
559: 0x121C [0x4E] SET_ENTITY_HIDE_FLAG: Hide Unnamed NPC (ID: 17977530/0x011250BA)
560: 0x1222 [0x4E] SET_ENTITY_HIDE_FLAG: Hide Unnamed NPC (ID: 17977531/0x011250BB)
561: 0x1228 [0x4E] SET_ENTITY_HIDE_FLAG: Hide Unnamed NPC (ID: 17977532/0x011250BC)
562: 0x122E [0x4E] SET_ENTITY_HIDE_FLAG: Hide Unnamed NPC (ID: 17977533/0x011250BD)
