# 17977511

## Common Data

| Field            | Value                           |
|------------------|---------------------------------|
| Zone             | Reisenjima Sanctorium (ID: 293) |
| Block Size       | 112 bytes                       |
| Total Events     | 9                               |
| References Count | 3                               |

## List of Events

| Event ID                 | Entrypoint   |   Size |   Instructions |
|--------------------------|--------------|--------|----------------|
| [65535](#event-65535)    | 0x0000       |      1 |              1 |
| [65535.1](#event-655351) | 0x0001       |      4 |              2 |
| [1](#event-1)            | 0x0005       |      1 |              1 |
| [2](#event-2)            | 0x0006       |      1 |              1 |
| [12](#event-12)          | 0x0007       |      1 |              1 |
| [65535.2](#event-655352) | 0x0008       |     10 |              2 |
| [65535.3](#event-655353) | 0x0012       |     10 |              2 |
| [65535.4](#event-655354) | 0x001C       |     10 |              2 |
| [65535.5](#event-655355) | 0x0026       |     10 |              2 |

## DAT References (imed_data)

|   Index | Hex Value   |   Dec Value |
|---------|-------------|-------------|
|       0 | 0x0000      |           0 |
|       1 | 0x0001      |           1 |
|       2 | 0x0080      |         128 |

## Events

### Event 65535

#### Metadata

| Field        | Value   |
|--------------|---------|
| Entrypoint   | 0x0000  |
| Data Size    | 1 bytes |
| Instructions | 1       |

```
      00 01 02 03 04 05 06 07  08 09 0A 0B 0C 0D 0E 0F
      -- -- -- -- -- -- -- --  -- -- -- -- -- -- -- --
0000: 00                                                .               
```

#### Opcodes

```
  0: 0x0000 [0x00] END_REQSTACK()
```

### Event 65535.1

#### Metadata

| Field        | Value   |
|--------------|---------|
| Entrypoint   | 0x0001  |
| Data Size    | 4 bytes |
| Instructions | 2       |

```
      00 01 02 03 04 05 06 07  08 09 0A 0B 0C 0D 0E 0F
      -- -- -- -- -- -- -- --  -- -- -- -- -- -- -- --
0000:    1C 02 10 00                                     ....           
```

#### Opcodes

```
  0: 0x0001 [0x1C] WAIT(Work_Zone[2] ticks)
  1: 0x0004 [0x00] END_REQSTACK()
```

### Event 1

#### Metadata

| Field        | Value   |
|--------------|---------|
| Entrypoint   | 0x0005  |
| Data Size    | 1 bytes |
| Instructions | 1       |

```
      00 01 02 03 04 05 06 07  08 09 0A 0B 0C 0D 0E 0F
      -- -- -- -- -- -- -- --  -- -- -- -- -- -- -- --
0000:                00                                      .          
```

#### Opcodes

```
  0: 0x0005 [0x00] END_REQSTACK()
```

### Event 2

#### Metadata

| Field        | Value   |
|--------------|---------|
| Entrypoint   | 0x0006  |
| Data Size    | 1 bytes |
| Instructions | 1       |

```
      00 01 02 03 04 05 06 07  08 09 0A 0B 0C 0D 0E 0F
      -- -- -- -- -- -- -- --  -- -- -- -- -- -- -- --
0000:                   00                                    .         
```

#### Opcodes

```
  0: 0x0006 [0x00] END_REQSTACK()
```

### Event 12

#### Metadata

| Field        | Value   |
|--------------|---------|
| Entrypoint   | 0x0007  |
| Data Size    | 1 bytes |
| Instructions | 1       |

```
      00 01 02 03 04 05 06 07  08 09 0A 0B 0C 0D 0E 0F
      -- -- -- -- -- -- -- --  -- -- -- -- -- -- -- --
0000:                      00                                  .        
```

#### Opcodes

```
  0: 0x0007 [0x00] END_REQSTACK()
```

### Event 65535.2

#### Metadata

| Field        | Value    |
|--------------|----------|
| Entrypoint   | 0x0008   |
| Data Size    | 10 bytes |
| Instructions | 2        |

```
      00 01 02 03 04 05 06 07  08 09 0A 0B 0C 0D 0E 0F
      -- -- -- -- -- -- -- --  -- -- -- -- -- -- -- --
0000:                          6C B2 50 12 01 00 80 01          l.P.....
0010: 80 00                                             ..              
```

#### Opcodes

```
  0: 0x0008 [0x6C] FADE_ENTITY_COLOR(entity_id=Prishe (ID: 17977522/0x011250B2), end_alpha=0*, fade_time=1*)
  1: 0x0011 [0x00] END_REQSTACK()
```

### Event 65535.3

#### Metadata

| Field        | Value    |
|--------------|----------|
| Entrypoint   | 0x0012   |
| Data Size    | 10 bytes |
| Instructions | 2        |

```
      00 01 02 03 04 05 06 07  08 09 0A 0B 0C 0D 0E 0F
      -- -- -- -- -- -- -- --  -- -- -- -- -- -- -- --
0010:       6C B2 50 12 01 02  80 01 80 00                l.P.......    
```

#### Opcodes

```
  0: 0x0012 [0x6C] FADE_ENTITY_COLOR(entity_id=Prishe (ID: 17977522/0x011250B2), end_alpha=128*, fade_time=1*)
  1: 0x001B [0x00] END_REQSTACK()
```

### Event 65535.4

#### Metadata

| Field        | Value    |
|--------------|----------|
| Entrypoint   | 0x001C   |
| Data Size    | 10 bytes |
| Instructions | 2        |

```
      00 01 02 03 04 05 06 07  08 09 0A 0B 0C 0D 0E 0F
      -- -- -- -- -- -- -- --  -- -- -- -- -- -- -- --
0010:                                      6C AC 50 12              l.P.
0020: 01 00 80 01 80 00                                 ......          
```

#### Opcodes

```
  0: 0x001C [0x6C] FADE_ENTITY_COLOR(entity_id=??? (ID: 17977516/0x011250AC), end_alpha=0*, fade_time=1*)
  1: 0x0025 [0x00] END_REQSTACK()
```

### Event 65535.5

#### Metadata

| Field        | Value    |
|--------------|----------|
| Entrypoint   | 0x0026   |
| Data Size    | 10 bytes |
| Instructions | 2        |

```
      00 01 02 03 04 05 06 07  08 09 0A 0B 0C 0D 0E 0F
      -- -- -- -- -- -- -- --  -- -- -- -- -- -- -- --
0020:                   6C AC  50 12 01 02 80 01 80 00        l.P.......
```

#### Opcodes

```
  0: 0x0026 [0x6C] FADE_ENTITY_COLOR(entity_id=??? (ID: 17977516/0x011250AC), end_alpha=128*, fade_time=1*)
  1: 0x002F [0x00] END_REQSTACK()
```
