# 0x7FFFFFF0 - Zone Events

## Common Data

| Field            | Value                           |
|------------------|---------------------------------|
| Zone             | Reisenjima Sanctorium (ID: 293) |
| Block Size       | 3672 bytes                      |
| Total Events     | 55                              |
| References Count | 68                              |

## List of Events

| Event ID                   | Entrypoint   |   Size |   Instructions |
|----------------------------|--------------|--------|----------------|
| [65535](#event-65535)      | 0x0000       |      1 |              1 |
| [65534](#event-65534)      | 0x0001       |      1 |              1 |
| [65535.1](#event-655351)   | 0x0002       |      6 |              2 |
| [65535.2](#event-655352)   | 0x0008       |      6 |              2 |
| [65535.3](#event-655353)   | 0x000E       |     37 |              5 |
| [65535.4](#event-655354)   | 0x0033       |     37 |              5 |
| [65535.5](#event-655355)   | 0x0058       |      7 |              3 |
| [65535.6](#event-655356)   | 0x005F       |      7 |              3 |
| [65535.7](#event-655357)   | 0x0066       |    155 |             35 |
| [65535.8](#event-655358)   | 0x0101       |     24 |              4 |
| [65535.9](#event-655359)   | 0x0119       |     24 |              4 |
| [65535.10](#event-6553510) | 0x0131       |     38 |              5 |
| [65535.11](#event-6553511) | 0x0157       |     38 |              5 |
| [65535.12](#event-6553512) | 0x017D       |     38 |              5 |
| [65535.13](#event-6553513) | 0x01A3       |     37 |              5 |
| [65535.14](#event-6553514) | 0x01C8       |     37 |              5 |
| [65535.15](#event-6553515) | 0x01ED       |     42 |              6 |
| [65535.16](#event-6553516) | 0x0217       |      5 |              2 |
| [65535.17](#event-6553517) | 0x021C       |      5 |              2 |
| [65535.18](#event-6553518) | 0x0221       |      5 |              2 |
| [65535.19](#event-6553519) | 0x0226       |      5 |              2 |
| [65535.20](#event-6553520) | 0x022B       |     14 |              4 |
| [65535.21](#event-6553521) | 0x0239       |     14 |              4 |
| [65535.22](#event-6553522) | 0x0247       |    246 |             29 |
| [65535.23](#event-6553523) | 0x033D       |    246 |             29 |
| [65535.24](#event-6553524) | 0x0433       |    246 |             29 |
| [65535.25](#event-6553525) | 0x0529       |    246 |             29 |
| [65535.26](#event-6553526) | 0x061F       |    246 |             29 |
| [65535.27](#event-6553527) | 0x0715       |     22 |              6 |
| [65535.28](#event-6553528) | 0x072B       |     14 |              4 |
| [65535.29](#event-6553529) | 0x0739       |     10 |              2 |
| [65535.30](#event-6553530) | 0x0743       |     10 |              2 |
| [65535.31](#event-6553531) | 0x074D       |     14 |              4 |
| [65535.32](#event-6553532) | 0x075B       |     17 |              5 |
| [65535.33](#event-6553533) | 0x076C       |     17 |              5 |
| [65535.34](#event-6553534) | 0x077D       |    345 |             33 |
| [65535.35](#event-6553535) | 0x08D6       |     14 |              4 |
| [65535.36](#event-6553536) | 0x08E4       |     14 |              4 |
| [65535.37](#event-6553537) | 0x08F2       |     14 |              4 |
| [65535.38](#event-6553538) | 0x0900       |     22 |              6 |
| [65535.39](#event-6553539) | 0x0916       |     14 |              4 |
| [65535.40](#event-6553540) | 0x0924       |     29 |              5 |
| [65535.41](#event-6553541) | 0x0941       |    249 |             25 |
| [65535.42](#event-6553542) | 0x0A3A       |    249 |             25 |
| [65535.43](#event-6553543) | 0x0B33       |     14 |              4 |
| [65535.44](#event-6553544) | 0x0B41       |     24 |              4 |
| [65535.45](#event-6553545) | 0x0B59       |     30 |              5 |
| [65535.46](#event-6553546) | 0x0B77       |     30 |              5 |
| [65535.47](#event-6553547) | 0x0B95       |     30 |              5 |
| [65535.48](#event-6553548) | 0x0BB3       |     30 |              5 |
| [65535.49](#event-6553549) | 0x0BD1       |     30 |              5 |
| [65535.50](#event-6553550) | 0x0BEF       |     30 |              5 |
| [65535.51](#event-6553551) | 0x0C0D       |     30 |              5 |
| [65535.52](#event-6553552) | 0x0C2B       |     24 |              4 |
| [65535.53](#event-6553553) | 0x0C43       |     24 |              4 |

## DAT References (imed_data)

|   Index | Hex Value   |   Dec Value |
|---------|-------------|-------------|
|       0 | 0x0001      |           1 |
|       1 | 0x0000      |           0 |
|       2 | 0x0042      |          66 |
|       3 | 0x0005      |           5 |
|       4 | 0x0002      |           2 |
|       5 | 0x000A      |          10 |
|       6 | 0x0009      |           9 |
|       7 | 0x0046      |          70 |
|       8 | 0x008C      |         140 |
|       9 | 0x00D2      |         210 |
|      10 | 0x0008      |           8 |
|      11 | 0x0007      |           7 |
|      12 | 0x0091      |         145 |
|      13 | 0x004F      |          79 |
|      14 | 0x004C      |          76 |
|      15 | 0x00C9      |         201 |
|      16 | 0x0018      |          24 |
|      17 | 0x0020      |          32 |
|      18 | 0x0030      |          48 |
|      19 | 0x0040      |          64 |
|      20 | 0x003C      |          60 |
|      21 | 0x0057      |          87 |
|      22 | 0x005D      |          93 |
|      23 | 0x0060      |          96 |
|      24 | 0x0064      |         100 |
|      25 | 0x0028      |          40 |
|      26 | 0xFFF810B5  |  4294447285 |
|      27 | 0x7D6A5     |      513701 |
|      28 | 0xFFFE2B41  |  4294847297 |
|      29 | 0x000D      |          13 |
|      30 | 0x04B1      |        1201 |
|      31 | 0x3383      |       13187 |
|      32 | 0x0F9F      |        3999 |
|      33 | 0x0F26      |        3878 |
|      34 | 0x0003      |           3 |
|      35 | 0x0004      |           4 |
|      36 | 0x0006      |           6 |
|      37 | 0x3529      |       13609 |
|      38 | 0x7B0ED     |      504045 |
|      39 | 0xFFFFFD58  |  4294966616 |
|      40 | 0x001E      |          30 |
|      41 | 0xFFFFFFF4  |  4294967284 |
|      42 | 0x3F4B      |       16203 |
|      43 | 0x0080      |         128 |
|      44 | 0x04D6      |        1238 |
|      45 | 0x182E      |        6190 |
|      46 | 0x39B4      |       14772 |
|      47 | 0x07F1      |        2033 |
|      48 | 0x27BB      |       10171 |
|      49 | 0x0090      |         144 |
|      50 | 0x009A      |         154 |
|      51 | 0x00A4      |         164 |
|      52 | 0x00AE      |         174 |
|      53 | 0x00B8      |         184 |
|      54 | 0x00C2      |         194 |
|      55 | 0x00CC      |         204 |
|      56 | 0x0427      |        1063 |
|      57 | 0xFFFF957C  |  4294940028 |
|      58 | 0x0FA0      |        4000 |
|      59 | 0x1099      |        4249 |
|      60 | 0x3A7F      |       14975 |
|      61 | 0x79F62     |      499554 |
|      62 | 0xFFF81982  |  4294449538 |
|      63 | 0xFFFF8978  |  4294936952 |
|      64 | 0xFFFFFFF7  |  4294967287 |
|      65 | 0x331F      |       13087 |
|      66 | 0x002B      |          43 |
|      67 | 0x456C      |       17772 |

## Events

### Event 65535

#### Metadata

| Field        | Value   |
|--------------|---------|
| Entrypoint   | 0x0000  |
| Data Size    | 1 bytes |
| Instructions | 1       |

```
      00 01 02 03 04 05 06 07  08 09 0A 0B 0C 0D 0E 0F
      -- -- -- -- -- -- -- --  -- -- -- -- -- -- -- --
0000: 00                                                .               
```

#### Opcodes

```
  0: 0x0000 [0x00] END_REQSTACK()
```

### Event 65534

#### Metadata

| Field        | Value   |
|--------------|---------|
| Entrypoint   | 0x0001  |
| Data Size    | 1 bytes |
| Instructions | 1       |

```
      00 01 02 03 04 05 06 07  08 09 0A 0B 0C 0D 0E 0F
      -- -- -- -- -- -- -- --  -- -- -- -- -- -- -- --
0000:    00                                              .              
```

#### Opcodes

```
  0: 0x0001 [0x00] END_REQSTACK()
```

### Event 65535.1

#### Metadata

| Field        | Value   |
|--------------|---------|
| Entrypoint   | 0x0002  |
| Data Size    | 6 bytes |
| Instructions | 2       |

```
      00 01 02 03 04 05 06 07  08 09 0A 0B 0C 0D 0E 0F
      -- -- -- -- -- -- -- --  -- -- -- -- -- -- -- --
0000:       03 02 10 07 7F 00                             ......        
```

#### Opcodes

```
  0: 0x0002 [0x03] Work_Zone[2] = Entity->Race
  1: 0x0007 [0x00] END_REQSTACK()
```

### Event 65535.2

#### Metadata

| Field        | Value   |
|--------------|---------|
| Entrypoint   | 0x0008  |
| Data Size    | 6 bytes |
| Instructions | 2       |

```
      00 01 02 03 04 05 06 07  08 09 0A 0B 0C 0D 0E 0F
      -- -- -- -- -- -- -- --  -- -- -- -- -- -- -- --
0000:                          03 02 10 0B 7F 00                ......  
```

#### Opcodes

```
  0: 0x0008 [0x03] Work_Zone[2] = (Entity->Render.Flags01 >> 25) & 1
  1: 0x000D [0x00] END_REQSTACK()
```

### Event 65535.3

#### Metadata

| Field        | Value    |
|--------------|----------|
| Entrypoint   | 0x000E   |
| Data Size    | 37 bytes |
| Instructions | 5        |

```
      00 01 02 03 04 05 06 07  08 09 0A 0B 0C 0D 0E 0F
      -- -- -- -- -- -- -- --  -- -- -- -- -- -- -- --
0000:                                            03 00                ..
0010: 00 07 7F 1A 6D 00 66 01  00 F8 FF FF 7F F8 FF FF  ....m.f.........
0020: 7F 73 68 61 30 53 F8 FF  FF 7F F8 FF FF 7F 73 68  .sha0S........sh
0030: 61 30 00                                          a0.             
```

#### Opcodes

```
  0: 0x000E [0x03] ExtData[1]->WorkLocal[0] = Entity->Race
  1: 0x0013 [0x1A] CALL_SUBROUTINE(address=0x006D)
  2: 0x0016 [0x66] LOAD_EXT_SCHEDULER_MAIN: Load scheduler "sha0" with entities [EventEntity, EventEntity], work=ExtData[1]->WorkLocal[1]
  3: 0x0025 [0x53] WAIT_SCHEDULER_TASK: Wait for scheduler "sha0" with entities [EventEntity, EventEntity]
  4: 0x0032 [0x00] END_REQSTACK()
```

### Event 65535.4

#### Metadata

| Field        | Value    |
|--------------|----------|
| Entrypoint   | 0x0033   |
| Data Size    | 37 bytes |
| Instructions | 5        |

```
      00 01 02 03 04 05 06 07  08 09 0A 0B 0C 0D 0E 0F
      -- -- -- -- -- -- -- --  -- -- -- -- -- -- -- --
0030:          03 00 00 07 7F  1A 6D 00 66 01 00 F8 FF     ......m.f....
0040: FF 7F F8 FF FF 7F 73 68  61 31 53 F8 FF FF 7F F8  ......sha1S.....
0050: FF FF 7F 73 68 61 31 00                           ...sha1.        
```

#### Opcodes

```
  0: 0x0033 [0x03] ExtData[1]->WorkLocal[0] = Entity->Race
  1: 0x0038 [0x1A] CALL_SUBROUTINE(address=0x006D)
  2: 0x003B [0x66] LOAD_EXT_SCHEDULER_MAIN: Load scheduler "sha1" with entities [EventEntity, EventEntity], work=ExtData[1]->WorkLocal[1]
  3: 0x004A [0x53] WAIT_SCHEDULER_TASK: Wait for scheduler "sha1" with entities [EventEntity, EventEntity]
  4: 0x0057 [0x00] END_REQSTACK()
```

### Event 65535.5

#### Metadata

| Field        | Value   |
|--------------|---------|
| Entrypoint   | 0x0058  |
| Data Size    | 7 bytes |
| Instructions | 3       |

```
      00 01 02 03 04 05 06 07  08 09 0A 0B 0C 0D 0E 0F
      -- -- -- -- -- -- -- --  -- -- -- -- -- -- -- --
0050:                          AB 03 AC 01 00 80 00             ....... 
```

#### Opcodes

```
  0: 0x0058 [0xAB] EventEntity->Render.Flags0 ^= 0x20000 // Toggle bit 17
  1: 0x005A [0xAC] EventEntity->StatusEvent = 1*
  2: 0x005E [0x00] END_REQSTACK()
```

### Event 65535.6

#### Metadata

| Field        | Value   |
|--------------|---------|
| Entrypoint   | 0x005F  |
| Data Size    | 7 bytes |
| Instructions | 3       |

```
      00 01 02 03 04 05 06 07  08 09 0A 0B 0C 0D 0E 0F
      -- -- -- -- -- -- -- --  -- -- -- -- -- -- -- --
0050:                                               AC                 .
0060: 01 01 80 AB 04 00                                 ......          
```

#### Opcodes

```
  0: 0x005F [0xAC] EventEntity->StatusEvent = 0*
  1: 0x0063 [0xAB] EventEntity->Render.Flags0 |= 0x40000 // Set bit 18
  2: 0x0065 [0x00] END_REQSTACK()
```

### Event 65535.7

#### Metadata

| Field        | Value     |
|--------------|-----------|
| Entrypoint   | 0x0066    |
| Data Size    | 155 bytes |
| Instructions | 3         |

```
      00 01 02 03 04 05 06 07  08 09 0A 0B 0C 0D 0E 0F
      -- -- -- -- -- -- -- --  -- -- -- -- -- -- -- --
0060:                   AB 03  AC 01 02 80 00 03 01 00        ..........
0070: 00 00 02 01 00 03 80 05  82 00 08 01 00 00 80 01  ................
0080: 87 00 08 01 00 04 80 14  01 00 05 80 07 01 00 06  ................
0090: 80 1B 03 01 00 00 00 02  01 00 03 80 05 A7 00 08  ................
00A0: 01 00 00 80 01 AC 00 08  01 00 04 80 14 01 00 05  ................
00B0: 80 07 01 00 07 80 1B 03  01 00 00 00 02 01 00 03  ................
00C0: 80 05 CC 00 08 01 00 00  80 01 D1 00 08 01 00 04  ................
00D0: 80 14 01 00 05 80 07 01  00 08 80 1B 03 01 00 00  ................
00E0: 00 02 01 00 03 80 05 F1  00 08 01 00 00 80 01 F6  ................
00F0: 00 08 01 00 04 80 14 01  00 05 80 07 01 00 09 80  ................
0100: 1B                                                .               
```

#### Opcodes

```
  0: 0x0066 [0xAB] EventEntity->Render.Flags0 ^= 0x20000 // Toggle bit 17
  1: 0x0068 [0xAC] EventEntity->StatusEvent = 66*
  2: 0x006C [0x00] END_REQSTACK()
```

#### Data or dead code:

```
# Dead code (unreachable instructions):
     0x006D [0x03] ExtData[1]->WorkLocal[1] = ExtData[1]->WorkLocal[0]
     0x0072 [0x02] IF !(ExtData[1]->WorkLocal[1] > 5*) GOTO 0x0082
     0x007A [0x08] ExtData[1]->WorkLocal[1] -= 1*
     0x007F [0x01] GOTO 0x0087
     0x0082 [0x08] ExtData[1]->WorkLocal[1] -= 2*
     0x0087 [0x14] ExtData[1]->WorkLocal[1] *= 10*
     0x008C [0x07] ExtData[1]->WorkLocal[1] += 9*
     0x0091 [0x1B] RETURN
     0x0092 [0x03] ExtData[1]->WorkLocal[1] = ExtData[1]->WorkLocal[0]
     0x0097 [0x02] IF !(ExtData[1]->WorkLocal[1] > 5*) GOTO 0x00A7
     0x009F [0x08] ExtData[1]->WorkLocal[1] -= 1*
     0x00A4 [0x01] GOTO 0x00AC
     0x00A7 [0x08] ExtData[1]->WorkLocal[1] -= 2*
     0x00AC [0x14] ExtData[1]->WorkLocal[1] *= 10*
     0x00B1 [0x07] ExtData[1]->WorkLocal[1] += 70*
     0x00B6 [0x1B] RETURN
     0x00B7 [0x03] ExtData[1]->WorkLocal[1] = ExtData[1]->WorkLocal[0]
     0x00BC [0x02] IF !(ExtData[1]->WorkLocal[1] > 5*) GOTO 0x00CC
     0x00C4 [0x08] ExtData[1]->WorkLocal[1] -= 1*
     0x00C9 [0x01] GOTO 0x00D1
     0x00CC [0x08] ExtData[1]->WorkLocal[1] -= 2*
     0x00D1 [0x14] ExtData[1]->WorkLocal[1] *= 10*
     0x00D6 [0x07] ExtData[1]->WorkLocal[1] += 140*
     0x00DB [0x1B] RETURN
     0x00DC [0x03] ExtData[1]->WorkLocal[1] = ExtData[1]->WorkLocal[0]
     0x00E1 [0x02] IF !(ExtData[1]->WorkLocal[1] > 5*) GOTO 0x00F1
     0x00E9 [0x08] ExtData[1]->WorkLocal[1] -= 1*
     0x00EE [0x01] GOTO 0x00F6
     0x00F1 [0x08] ExtData[1]->WorkLocal[1] -= 2*
     0x00F6 [0x14] ExtData[1]->WorkLocal[1] *= 10*
     0x00FB [0x07] ExtData[1]->WorkLocal[1] += 210*
     0x0100 [0x1B] RETURN
```

### Event 65535.8

#### Metadata

| Field        | Value    |
|--------------|----------|
| Entrypoint   | 0x0101   |
| Data Size    | 24 bytes |
| Instructions | 4        |

```
      00 01 02 03 04 05 06 07  08 09 0A 0B 0C 0D 0E 0F
      -- -- -- -- -- -- -- --  -- -- -- -- -- -- -- --
0100:    03 00 00 07 7F 1A 6D  00 66 01 00 F8 FF FF 7F   ......m.f......
0110: F8 FF FF 7F 74 6C 6B 30  00                       ....tlk0.       
```

#### Opcodes

```
  0: 0x0101 [0x03] ExtData[1]->WorkLocal[0] = Entity->Race
  1: 0x0106 [0x1A] CALL_SUBROUTINE(address=0x006D)
  2: 0x0109 [0x66] LOAD_EXT_SCHEDULER_MAIN: Load scheduler "tlk0" with entities [EventEntity, EventEntity], work=ExtData[1]->WorkLocal[1]
  3: 0x0118 [0x00] END_REQSTACK()
```

### Event 65535.9

#### Metadata

| Field        | Value    |
|--------------|----------|
| Entrypoint   | 0x0119   |
| Data Size    | 24 bytes |
| Instructions | 4        |

```
      00 01 02 03 04 05 06 07  08 09 0A 0B 0C 0D 0E 0F
      -- -- -- -- -- -- -- --  -- -- -- -- -- -- -- --
0110:                             03 00 00 07 7F 1A 6D           ......m
0120: 00 66 01 00 F8 FF FF 7F  F8 FF FF 7F 74 6C 6B 31  .f..........tlk1
0130: 00                                                .               
```

#### Opcodes

```
  0: 0x0119 [0x03] ExtData[1]->WorkLocal[0] = Entity->Race
  1: 0x011E [0x1A] CALL_SUBROUTINE(address=0x006D)
  2: 0x0121 [0x66] LOAD_EXT_SCHEDULER_MAIN: Load scheduler "tlk1" with entities [EventEntity, EventEntity], work=ExtData[1]->WorkLocal[1]
  3: 0x0130 [0x00] END_REQSTACK()
```

### Event 65535.10

#### Metadata

| Field        | Value    |
|--------------|----------|
| Entrypoint   | 0x0131   |
| Data Size    | 38 bytes |
| Instructions | 5        |

```
      00 01 02 03 04 05 06 07  08 09 0A 0B 0C 0D 0E 0F
      -- -- -- -- -- -- -- --  -- -- -- -- -- -- -- --
0130:    22 00 2F 00 F8 FF FF  7F B6 0B 0A 80 0B 80 0C   "./............
0140: 80 0D 80 0E 80 0E 80 0E  80 0F 80 10 80 6C F8 FF  .............l..
0150: FF 7F 11 80 00 80 00                              .......         
```

#### Opcodes

```
  0: 0x0131 [0x22] ENTITY_HIDE_FLAG(enabled=0x00)
  1: 0x0133 [0x2F] EventEntity->Render.Flags0 &= ~0x80000 // Bit 19
  2: 0x0139 [0xB6] ENTITY_APPEARANCE_HANDLER(case=Full entity look, race=8*, hair=7*, head=145*, body=79*, hands=76*, legs=76*, feet=76*, main=201*, sub=24*)
  3: 0x014D [0x6C] FADE_ENTITY_COLOR(entity_id=EventEntity, end_alpha=32*, fade_time=1*)
  4: 0x0156 [0x00] END_REQSTACK()
```

### Event 65535.11

#### Metadata

| Field        | Value    |
|--------------|----------|
| Entrypoint   | 0x0157   |
| Data Size    | 38 bytes |
| Instructions | 5        |

```
      00 01 02 03 04 05 06 07  08 09 0A 0B 0C 0D 0E 0F
      -- -- -- -- -- -- -- --  -- -- -- -- -- -- -- --
0150:                      22  00 2F 00 F8 FF FF 7F B6         "./......
0160: 0B 0B 80 0B 80 0C 80 0D  80 0E 80 0E 80 0E 80 0F  ................
0170: 80 10 80 6C F8 FF FF 7F  12 80 00 80 00           ...l.........   
```

#### Opcodes

```
  0: 0x0157 [0x22] ENTITY_HIDE_FLAG(enabled=0x00)
  1: 0x0159 [0x2F] EventEntity->Render.Flags0 &= ~0x80000 // Bit 19
  2: 0x015F [0xB6] ENTITY_APPEARANCE_HANDLER(case=Full entity look, race=7*, hair=7*, head=145*, body=79*, hands=76*, legs=76*, feet=76*, main=201*, sub=24*)
  3: 0x0173 [0x6C] FADE_ENTITY_COLOR(entity_id=EventEntity, end_alpha=48*, fade_time=1*)
  4: 0x017C [0x00] END_REQSTACK()
```

### Event 65535.12

#### Metadata

| Field        | Value    |
|--------------|----------|
| Entrypoint   | 0x017D   |
| Data Size    | 38 bytes |
| Instructions | 5        |

```
      00 01 02 03 04 05 06 07  08 09 0A 0B 0C 0D 0E 0F
      -- -- -- -- -- -- -- --  -- -- -- -- -- -- -- --
0170:                                         22 00 2F               "./
0180: 00 F8 FF FF 7F B6 0B 03  80 0B 80 0C 80 0D 80 0E  ................
0190: 80 0E 80 0E 80 0F 80 10  80 6C F8 FF FF 7F 13 80  .........l......
01A0: 00 80 00                                          ...             
```

#### Opcodes

```
  0: 0x017D [0x22] ENTITY_HIDE_FLAG(enabled=0x00)
  1: 0x017F [0x2F] EventEntity->Render.Flags0 &= ~0x80000 // Bit 19
  2: 0x0185 [0xB6] ENTITY_APPEARANCE_HANDLER(case=Full entity look, race=5*, hair=7*, head=145*, body=79*, hands=76*, legs=76*, feet=76*, main=201*, sub=24*)
  3: 0x0199 [0x6C] FADE_ENTITY_COLOR(entity_id=EventEntity, end_alpha=64*, fade_time=1*)
  4: 0x01A2 [0x00] END_REQSTACK()
```

### Event 65535.13

#### Metadata

| Field        | Value    |
|--------------|----------|
| Entrypoint   | 0x01A3   |
| Data Size    | 37 bytes |
| Instructions | 5        |

```
      00 01 02 03 04 05 06 07  08 09 0A 0B 0C 0D 0E 0F
      -- -- -- -- -- -- -- --  -- -- -- -- -- -- -- --
01A0:          03 00 00 07 7F  1A 6D 00 66 01 00 F8 FF     ......m.f....
01B0: FF 7F F8 FF FF 7F 73 69  74 30 53 F8 FF FF 7F F8  ......sit0S.....
01C0: FF FF 7F 73 69 74 30 00                           ...sit0.        
```

#### Opcodes

```
  0: 0x01A3 [0x03] ExtData[1]->WorkLocal[0] = Entity->Race
  1: 0x01A8 [0x1A] CALL_SUBROUTINE(address=0x006D)
  2: 0x01AB [0x66] LOAD_EXT_SCHEDULER_MAIN: Load scheduler "sit0" with entities [EventEntity, EventEntity], work=ExtData[1]->WorkLocal[1]
  3: 0x01BA [0x53] WAIT_SCHEDULER_TASK: Wait for scheduler "sit0" with entities [EventEntity, EventEntity]
  4: 0x01C7 [0x00] END_REQSTACK()
```

### Event 65535.14

#### Metadata

| Field        | Value    |
|--------------|----------|
| Entrypoint   | 0x01C8   |
| Data Size    | 37 bytes |
| Instructions | 5        |

```
      00 01 02 03 04 05 06 07  08 09 0A 0B 0C 0D 0E 0F
      -- -- -- -- -- -- -- --  -- -- -- -- -- -- -- --
01C0:                          03 00 00 07 7F 1A 6D 00          ......m.
01D0: 66 01 00 F8 FF FF 7F F8  FF FF 7F 73 69 74 31 53  f..........sit1S
01E0: F8 FF FF 7F F8 FF FF 7F  73 69 74 31 00           ........sit1.   
```

#### Opcodes

```
  0: 0x01C8 [0x03] ExtData[1]->WorkLocal[0] = Entity->Race
  1: 0x01CD [0x1A] CALL_SUBROUTINE(address=0x006D)
  2: 0x01D0 [0x66] LOAD_EXT_SCHEDULER_MAIN: Load scheduler "sit1" with entities [EventEntity, EventEntity], work=ExtData[1]->WorkLocal[1]
  3: 0x01DF [0x53] WAIT_SCHEDULER_TASK: Wait for scheduler "sit1" with entities [EventEntity, EventEntity]
  4: 0x01EC [0x00] END_REQSTACK()
```

### Event 65535.15

#### Metadata

| Field        | Value    |
|--------------|----------|
| Entrypoint   | 0x01ED   |
| Data Size    | 42 bytes |
| Instructions | 6        |

```
      00 01 02 03 04 05 06 07  08 09 0A 0B 0C 0D 0E 0F
      -- -- -- -- -- -- -- --  -- -- -- -- -- -- -- --
01E0:                                         03 00 00               ...
01F0: 07 7F 1A 6D 00 66 01 00  F8 FF FF 7F F8 FF FF 7F  ...m.f..........
0200: 74 6C 6B 30 1C 14 80 66  01 00 F8 FF FF 7F F8 FF  tlk0...f........
0210: FF 7F 74 6C 6B 31 00                              ..tlk1.         
```

#### Opcodes

```
  0: 0x01ED [0x03] ExtData[1]->WorkLocal[0] = Entity->Race
  1: 0x01F2 [0x1A] CALL_SUBROUTINE(address=0x006D)
  2: 0x01F5 [0x66] LOAD_EXT_SCHEDULER_MAIN: Load scheduler "tlk0" with entities [EventEntity, EventEntity], work=ExtData[1]->WorkLocal[1]
  3: 0x0204 [0x1C] WAIT(60* ticks)
  4: 0x0207 [0x66] LOAD_EXT_SCHEDULER_MAIN: Load scheduler "tlk1" with entities [EventEntity, EventEntity], work=ExtData[1]->WorkLocal[1]
  5: 0x0216 [0x00] END_REQSTACK()
```

### Event 65535.16

#### Metadata

| Field        | Value   |
|--------------|---------|
| Entrypoint   | 0x0217  |
| Data Size    | 5 bytes |
| Instructions | 2       |

```
      00 01 02 03 04 05 06 07  08 09 0A 0B 0C 0D 0E 0F
      -- -- -- -- -- -- -- --  -- -- -- -- -- -- -- --
0210:                      B6  0F 15 80 00                     .....    
```

#### Opcodes

```
  0: 0x0217 [0xB6] ENTITY_APPEARANCE_HANDLER(case=Model size, value=87*)
  1: 0x021B [0x00] END_REQSTACK()
```

### Event 65535.17

#### Metadata

| Field        | Value   |
|--------------|---------|
| Entrypoint   | 0x021C  |
| Data Size    | 5 bytes |
| Instructions | 2       |

```
      00 01 02 03 04 05 06 07  08 09 0A 0B 0C 0D 0E 0F
      -- -- -- -- -- -- -- --  -- -- -- -- -- -- -- --
0210:                                      B6 0F 16 80              ....
0220: 00                                                .               
```

#### Opcodes

```
  0: 0x021C [0xB6] ENTITY_APPEARANCE_HANDLER(case=Model size, value=93*)
  1: 0x0220 [0x00] END_REQSTACK()
```

### Event 65535.18

#### Metadata

| Field        | Value   |
|--------------|---------|
| Entrypoint   | 0x0221  |
| Data Size    | 5 bytes |
| Instructions | 2       |

```
      00 01 02 03 04 05 06 07  08 09 0A 0B 0C 0D 0E 0F
      -- -- -- -- -- -- -- --  -- -- -- -- -- -- -- --
0220:    B6 0F 17 80 00                                  .....          
```

#### Opcodes

```
  0: 0x0221 [0xB6] ENTITY_APPEARANCE_HANDLER(case=Model size, value=96*)
  1: 0x0225 [0x00] END_REQSTACK()
```

### Event 65535.19

#### Metadata

| Field        | Value   |
|--------------|---------|
| Entrypoint   | 0x0226  |
| Data Size    | 5 bytes |
| Instructions | 2       |

```
      00 01 02 03 04 05 06 07  08 09 0A 0B 0C 0D 0E 0F
      -- -- -- -- -- -- -- --  -- -- -- -- -- -- -- --
0220:                   B6 0F  18 80 00                       .....     
```

#### Opcodes

```
  0: 0x0226 [0xB6] ENTITY_APPEARANCE_HANDLER(case=Model size, value=100*)
  1: 0x022A [0x00] END_REQSTACK()
```

### Event 65535.20

#### Metadata

| Field        | Value    |
|--------------|----------|
| Entrypoint   | 0x022B   |
| Data Size    | 14 bytes |
| Instructions | 4        |

```
      00 01 02 03 04 05 06 07  08 09 0A 0B 0C 0D 0E 0F
      -- -- -- -- -- -- -- --  -- -- -- -- -- -- -- --
0220:                                   32 19 80 1F 00             2....
0230: 1A 80 1B 80 1C 80 1F 01  00                       .........       
```

#### Opcodes

```
  0: 0x022B [0x32] ExtData[1]->MainSpeed = 40* * 0.1
  1: 0x022E [0x1F] MOVE_ENTITY: EventEntity moves to X=-520.011*, Z=513.701*, Y=-119.999*
  2: 0x0236 [0x1F] MOVE_ENTITY: Update entity position (mode=1)
  3: 0x0238 [0x00] END_REQSTACK()
```

### Event 65535.21

#### Metadata

| Field        | Value    |
|--------------|----------|
| Entrypoint   | 0x0239   |
| Data Size    | 14 bytes |
| Instructions | 4        |

```
      00 01 02 03 04 05 06 07  08 09 0A 0B 0C 0D 0E 0F
      -- -- -- -- -- -- -- --  -- -- -- -- -- -- -- --
0230:                             32 1D 80 1F 00 1E 80           2......
0240: 1F 80 20 80 1F 01 00                              .. ....         
```

#### Opcodes

```
  0: 0x0239 [0x32] ExtData[1]->MainSpeed = 13* * 0.1
  1: 0x023C [0x1F] MOVE_ENTITY: EventEntity moves to X=1.201*, Z=13.187*, Y=3.999*
  2: 0x0244 [0x1F] MOVE_ENTITY: Update entity position (mode=1)
  3: 0x0246 [0x00] END_REQSTACK()
```

### Event 65535.22

#### Metadata

| Field        | Value     |
|--------------|-----------|
| Entrypoint   | 0x0247    |
| Data Size    | 246 bytes |
| Instructions | 29        |

```
      00 01 02 03 04 05 06 07  08 09 0A 0B 0C 0D 0E 0F
      -- -- -- -- -- -- -- --  -- -- -- -- -- -- -- --
0240:                      03  00 00 07 7F 1A B7 00 07         .........
0250: 01 00 00 80 5F 04 01 00  F8 FF FF 7F F8 FF FF 7F  ...._...........
0260: 6B 69 7A 30 02 87 7F 00  80 80 7F 02 5F 03 21 80  kiz0........_.!.
0270: AC 50 12 01 AC 50 12 01  68 6D 6D 30 01 3C 03 02  .P...P..hmm0.<..
0280: 87 7F 04 80 80 9A 02 5F  03 21 80 AC 50 12 01 AC  ......._.!..P...
0290: 50 12 01 68 66 6D 30 01  3C 03 02 87 7F 22 80 80  P..hfm0.<...."..
02A0: B5 02 5F 03 21 80 AC 50  12 01 AC 50 12 01 65 6D  .._.!..P...P..em
02B0: 6D 30 01 3C 03 02 87 7F  23 80 80 D0 02 5F 03 21  m0.<....#...._.!
02C0: 80 AC 50 12 01 AC 50 12  01 65 66 6D 30 01 3C 03  ..P...P..efm0.<.
02D0: 02 87 7F 03 80 80 EB 02  5F 03 21 80 AC 50 12 01  ........_.!..P..
02E0: AC 50 12 01 74 6D 61 30  01 3C 03 02 87 7F 24 80  .P..tma0.<....$.
02F0: 80 06 03 5F 03 21 80 AC  50 12 01 AC 50 12 01 74  ..._.!..P...P..t
0300: 6D 61 30 01 3C 03 02 87  7F 0B 80 80 21 03 5F 03  ma0.<.......!._.
0310: 21 80 AC 50 12 01 AC 50  12 01 6D 6D 61 30 01 3C  !..P...P..mma0.<
0320: 03 02 87 7F 0A 80 80 3C  03 5F 03 21 80 AC 50 12  .......<._.!..P.
0330: 01 AC 50 12 01 67 6D 61  30 01 3C 03 00           ..P..gma0.<..   
```

#### Opcodes

```
  0: 0x0247 [0x03] ExtData[1]->WorkLocal[0] = Entity->Race
  1: 0x024C [0x1A] CALL_SUBROUTINE(address=0x00B7)
  2: 0x024F [0x07] ExtData[1]->WorkLocal[1] += 1*
  3: 0x0254 [0x5F] MULTI_HANDLER_COMPLEX(mode=0x04 - Load ext scheduler (OpCode 0x5B mode 1), ref=ExtData[1]->WorkLocal[1], entity1=EventEntity, entity2=EventEntity, string="kiz0")
  4: 0x0264 [0x02] IF !(LocalPlayer->Race == 1*) GOTO 0x027F
  5: 0x026C [0x5F] MULTI_HANDLER_COMPLEX(mode=0x03 - Load ext scheduler (OpCode 0x5B mode 0), ref=3878*, entity1=??? (ID: 17977516/0x011250AC), entity2=??? (ID: 17977516/0x011250AC), string="hmm0")
  6: 0x027C [0x01] GOTO 0x033C
  7: 0x027F [0x02] IF !(LocalPlayer->Race == 2*) GOTO 0x029A
  8: 0x0287 [0x5F] MULTI_HANDLER_COMPLEX(mode=0x03 - Load ext scheduler (OpCode 0x5B mode 0), ref=3878*, entity1=??? (ID: 17977516/0x011250AC), entity2=??? (ID: 17977516/0x011250AC), string="hfm0")
  9: 0x0297 [0x01] GOTO 0x033C
 10: 0x029A [0x02] IF !(LocalPlayer->Race == 3*) GOTO 0x02B5
 11: 0x02A2 [0x5F] MULTI_HANDLER_COMPLEX(mode=0x03 - Load ext scheduler (OpCode 0x5B mode 0), ref=3878*, entity1=??? (ID: 17977516/0x011250AC), entity2=??? (ID: 17977516/0x011250AC), string="emm0")
 12: 0x02B2 [0x01] GOTO 0x033C
 13: 0x02B5 [0x02] IF !(LocalPlayer->Race == 4*) GOTO 0x02D0
 14: 0x02BD [0x5F] MULTI_HANDLER_COMPLEX(mode=0x03 - Load ext scheduler (OpCode 0x5B mode 0), ref=3878*, entity1=??? (ID: 17977516/0x011250AC), entity2=??? (ID: 17977516/0x011250AC), string="efm0")
 15: 0x02CD [0x01] GOTO 0x033C
 16: 0x02D0 [0x02] IF !(LocalPlayer->Race == 5*) GOTO 0x02EB
 17: 0x02D8 [0x5F] MULTI_HANDLER_COMPLEX(mode=0x03 - Load ext scheduler (OpCode 0x5B mode 0), ref=3878*, entity1=??? (ID: 17977516/0x011250AC), entity2=??? (ID: 17977516/0x011250AC), string="tma0")
 18: 0x02E8 [0x01] GOTO 0x033C
 19: 0x02EB [0x02] IF !(LocalPlayer->Race == 6*) GOTO 0x0306
 20: 0x02F3 [0x5F] MULTI_HANDLER_COMPLEX(mode=0x03 - Load ext scheduler (OpCode 0x5B mode 0), ref=3878*, entity1=??? (ID: 17977516/0x011250AC), entity2=??? (ID: 17977516/0x011250AC), string="tma0")
 21: 0x0303 [0x01] GOTO 0x033C
 22: 0x0306 [0x02] IF !(LocalPlayer->Race == 7*) GOTO 0x0321
 23: 0x030E [0x5F] MULTI_HANDLER_COMPLEX(mode=0x03 - Load ext scheduler (OpCode 0x5B mode 0), ref=3878*, entity1=??? (ID: 17977516/0x011250AC), entity2=??? (ID: 17977516/0x011250AC), string="mma0")
 24: 0x031E [0x01] GOTO 0x033C
 25: 0x0321 [0x02] IF !(LocalPlayer->Race == 8*) GOTO 0x033C
 26: 0x0329 [0x5F] MULTI_HANDLER_COMPLEX(mode=0x03 - Load ext scheduler (OpCode 0x5B mode 0), ref=3878*, entity1=??? (ID: 17977516/0x011250AC), entity2=??? (ID: 17977516/0x011250AC), string="gma0")
 27: 0x0339 [0x01] GOTO 0x033C

SUBROUTINE_033C:
 28: 0x033C [0x00] END_REQSTACK()
```

### Event 65535.23

#### Metadata

| Field        | Value     |
|--------------|-----------|
| Entrypoint   | 0x033D    |
| Data Size    | 246 bytes |
| Instructions | 29        |

```
      00 01 02 03 04 05 06 07  08 09 0A 0B 0C 0D 0E 0F
      -- -- -- -- -- -- -- --  -- -- -- -- -- -- -- --
0330:                                         03 00 00               ...
0340: 07 7F 1A B7 00 07 01 00  00 80 5F 04 01 00 F8 FF  .........._.....
0350: FF 7F F8 FF FF 7F 6B 69  7A 6D 02 87 7F 00 80 80  ......kizm......
0360: 75 03 5F 03 21 80 AC 50  12 01 AC 50 12 01 68 6D  u._.!..P...P..hm
0370: 6D 6D 01 32 04 02 87 7F  04 80 80 90 03 5F 03 21  mm.2........._.!
0380: 80 AC 50 12 01 AC 50 12  01 68 66 6D 6D 01 32 04  ..P...P..hfmm.2.
0390: 02 87 7F 22 80 80 AB 03  5F 03 21 80 AC 50 12 01  ..."...._.!..P..
03A0: AC 50 12 01 65 6D 6D 6D  01 32 04 02 87 7F 23 80  .P..emmm.2....#.
03B0: 80 C6 03 5F 03 21 80 AC  50 12 01 AC 50 12 01 65  ..._.!..P...P..e
03C0: 66 6D 6D 01 32 04 02 87  7F 03 80 80 E1 03 5F 03  fmm.2........._.
03D0: 21 80 AC 50 12 01 AC 50  12 01 74 6D 61 6D 01 32  !..P...P..tmam.2
03E0: 04 02 87 7F 24 80 80 FC  03 5F 03 21 80 AC 50 12  ....$...._.!..P.
03F0: 01 AC 50 12 01 74 6D 61  6D 01 32 04 02 87 7F 0B  ..P..tmam.2.....
0400: 80 80 17 04 5F 03 21 80  AC 50 12 01 AC 50 12 01  ...._.!..P...P..
0410: 6D 6D 61 6D 01 32 04 02  87 7F 0A 80 80 32 04 5F  mmam.2.......2._
0420: 03 21 80 AC 50 12 01 AC  50 12 01 67 6D 61 6D 01  .!..P...P..gmam.
0430: 32 04 00                                          2..             
```

#### Opcodes

```
  0: 0x033D [0x03] ExtData[1]->WorkLocal[0] = Entity->Race
  1: 0x0342 [0x1A] CALL_SUBROUTINE(address=0x00B7)
  2: 0x0345 [0x07] ExtData[1]->WorkLocal[1] += 1*
  3: 0x034A [0x5F] MULTI_HANDLER_COMPLEX(mode=0x04 - Load ext scheduler (OpCode 0x5B mode 1), ref=ExtData[1]->WorkLocal[1], entity1=EventEntity, entity2=EventEntity, string="kizm")
  4: 0x035A [0x02] IF !(LocalPlayer->Race == 1*) GOTO 0x0375
  5: 0x0362 [0x5F] MULTI_HANDLER_COMPLEX(mode=0x03 - Load ext scheduler (OpCode 0x5B mode 0), ref=3878*, entity1=??? (ID: 17977516/0x011250AC), entity2=??? (ID: 17977516/0x011250AC), string="hmmm")
  6: 0x0372 [0x01] GOTO 0x0432
  7: 0x0375 [0x02] IF !(LocalPlayer->Race == 2*) GOTO 0x0390
  8: 0x037D [0x5F] MULTI_HANDLER_COMPLEX(mode=0x03 - Load ext scheduler (OpCode 0x5B mode 0), ref=3878*, entity1=??? (ID: 17977516/0x011250AC), entity2=??? (ID: 17977516/0x011250AC), string="hfmm")
  9: 0x038D [0x01] GOTO 0x0432
 10: 0x0390 [0x02] IF !(LocalPlayer->Race == 3*) GOTO 0x03AB
 11: 0x0398 [0x5F] MULTI_HANDLER_COMPLEX(mode=0x03 - Load ext scheduler (OpCode 0x5B mode 0), ref=3878*, entity1=??? (ID: 17977516/0x011250AC), entity2=??? (ID: 17977516/0x011250AC), string="emmm")
 12: 0x03A8 [0x01] GOTO 0x0432
 13: 0x03AB [0x02] IF !(LocalPlayer->Race == 4*) GOTO 0x03C6
 14: 0x03B3 [0x5F] MULTI_HANDLER_COMPLEX(mode=0x03 - Load ext scheduler (OpCode 0x5B mode 0), ref=3878*, entity1=??? (ID: 17977516/0x011250AC), entity2=??? (ID: 17977516/0x011250AC), string="efmm")
 15: 0x03C3 [0x01] GOTO 0x0432
 16: 0x03C6 [0x02] IF !(LocalPlayer->Race == 5*) GOTO 0x03E1
 17: 0x03CE [0x5F] MULTI_HANDLER_COMPLEX(mode=0x03 - Load ext scheduler (OpCode 0x5B mode 0), ref=3878*, entity1=??? (ID: 17977516/0x011250AC), entity2=??? (ID: 17977516/0x011250AC), string="tmam")
 18: 0x03DE [0x01] GOTO 0x0432
 19: 0x03E1 [0x02] IF !(LocalPlayer->Race == 6*) GOTO 0x03FC
 20: 0x03E9 [0x5F] MULTI_HANDLER_COMPLEX(mode=0x03 - Load ext scheduler (OpCode 0x5B mode 0), ref=3878*, entity1=??? (ID: 17977516/0x011250AC), entity2=??? (ID: 17977516/0x011250AC), string="tmam")
 21: 0x03F9 [0x01] GOTO 0x0432
 22: 0x03FC [0x02] IF !(LocalPlayer->Race == 7*) GOTO 0x0417
 23: 0x0404 [0x5F] MULTI_HANDLER_COMPLEX(mode=0x03 - Load ext scheduler (OpCode 0x5B mode 0), ref=3878*, entity1=??? (ID: 17977516/0x011250AC), entity2=??? (ID: 17977516/0x011250AC), string="mmam")
 24: 0x0414 [0x01] GOTO 0x0432
 25: 0x0417 [0x02] IF !(LocalPlayer->Race == 8*) GOTO 0x0432
 26: 0x041F [0x5F] MULTI_HANDLER_COMPLEX(mode=0x03 - Load ext scheduler (OpCode 0x5B mode 0), ref=3878*, entity1=??? (ID: 17977516/0x011250AC), entity2=??? (ID: 17977516/0x011250AC), string="gmam")
 27: 0x042F [0x01] GOTO 0x0432

SUBROUTINE_0432:
 28: 0x0432 [0x00] END_REQSTACK()
```

### Event 65535.24

#### Metadata

| Field        | Value     |
|--------------|-----------|
| Entrypoint   | 0x0433    |
| Data Size    | 246 bytes |
| Instructions | 29        |

```
      00 01 02 03 04 05 06 07  08 09 0A 0B 0C 0D 0E 0F
      -- -- -- -- -- -- -- --  -- -- -- -- -- -- -- --
0430:          03 00 00 07 7F  1A B7 00 07 01 00 00 80     .............
0440: 5F 04 01 00 F8 FF FF 7F  F8 FF FF 7F 6B 69 7A 31  _...........kiz1
0450: 02 87 7F 00 80 80 6B 04  5F 03 21 80 AC 50 12 01  ......k._.!..P..
0460: AC 50 12 01 68 6D 6D 31  01 28 05 02 87 7F 04 80  .P..hmm1.(......
0470: 80 86 04 5F 03 21 80 AC  50 12 01 AC 50 12 01 68  ..._.!..P...P..h
0480: 66 6D 31 01 28 05 02 87  7F 22 80 80 A1 04 5F 03  fm1.(...."...._.
0490: 21 80 AC 50 12 01 AC 50  12 01 65 6D 6D 31 01 28  !..P...P..emm1.(
04A0: 05 02 87 7F 23 80 80 BC  04 5F 03 21 80 AC 50 12  ....#...._.!..P.
04B0: 01 AC 50 12 01 65 66 6D  31 01 28 05 02 87 7F 03  ..P..efm1.(.....
04C0: 80 80 D7 04 5F 03 21 80  AC 50 12 01 AC 50 12 01  ...._.!..P...P..
04D0: 74 6D 61 31 01 28 05 02  87 7F 24 80 80 F2 04 5F  tma1.(....$...._
04E0: 03 21 80 AC 50 12 01 AC  50 12 01 74 6D 61 31 01  .!..P...P..tma1.
04F0: 28 05 02 87 7F 0B 80 80  0D 05 5F 03 21 80 AC 50  (........._.!..P
0500: 12 01 AC 50 12 01 6D 6D  61 31 01 28 05 02 87 7F  ...P..mma1.(....
0510: 0A 80 80 28 05 5F 03 21  80 AC 50 12 01 AC 50 12  ...(._.!..P...P.
0520: 01 67 6D 61 31 01 28 05  00                       .gma1.(..       
```

#### Opcodes

```
  0: 0x0433 [0x03] ExtData[1]->WorkLocal[0] = Entity->Race
  1: 0x0438 [0x1A] CALL_SUBROUTINE(address=0x00B7)
  2: 0x043B [0x07] ExtData[1]->WorkLocal[1] += 1*
  3: 0x0440 [0x5F] MULTI_HANDLER_COMPLEX(mode=0x04 - Load ext scheduler (OpCode 0x5B mode 1), ref=ExtData[1]->WorkLocal[1], entity1=EventEntity, entity2=EventEntity, string="kiz1")
  4: 0x0450 [0x02] IF !(LocalPlayer->Race == 1*) GOTO 0x046B
  5: 0x0458 [0x5F] MULTI_HANDLER_COMPLEX(mode=0x03 - Load ext scheduler (OpCode 0x5B mode 0), ref=3878*, entity1=??? (ID: 17977516/0x011250AC), entity2=??? (ID: 17977516/0x011250AC), string="hmm1")
  6: 0x0468 [0x01] GOTO 0x0528
  7: 0x046B [0x02] IF !(LocalPlayer->Race == 2*) GOTO 0x0486
  8: 0x0473 [0x5F] MULTI_HANDLER_COMPLEX(mode=0x03 - Load ext scheduler (OpCode 0x5B mode 0), ref=3878*, entity1=??? (ID: 17977516/0x011250AC), entity2=??? (ID: 17977516/0x011250AC), string="hfm1")
  9: 0x0483 [0x01] GOTO 0x0528
 10: 0x0486 [0x02] IF !(LocalPlayer->Race == 3*) GOTO 0x04A1
 11: 0x048E [0x5F] MULTI_HANDLER_COMPLEX(mode=0x03 - Load ext scheduler (OpCode 0x5B mode 0), ref=3878*, entity1=??? (ID: 17977516/0x011250AC), entity2=??? (ID: 17977516/0x011250AC), string="emm1")
 12: 0x049E [0x01] GOTO 0x0528
 13: 0x04A1 [0x02] IF !(LocalPlayer->Race == 4*) GOTO 0x04BC
 14: 0x04A9 [0x5F] MULTI_HANDLER_COMPLEX(mode=0x03 - Load ext scheduler (OpCode 0x5B mode 0), ref=3878*, entity1=??? (ID: 17977516/0x011250AC), entity2=??? (ID: 17977516/0x011250AC), string="efm1")
 15: 0x04B9 [0x01] GOTO 0x0528
 16: 0x04BC [0x02] IF !(LocalPlayer->Race == 5*) GOTO 0x04D7
 17: 0x04C4 [0x5F] MULTI_HANDLER_COMPLEX(mode=0x03 - Load ext scheduler (OpCode 0x5B mode 0), ref=3878*, entity1=??? (ID: 17977516/0x011250AC), entity2=??? (ID: 17977516/0x011250AC), string="tma1")
 18: 0x04D4 [0x01] GOTO 0x0528
 19: 0x04D7 [0x02] IF !(LocalPlayer->Race == 6*) GOTO 0x04F2
 20: 0x04DF [0x5F] MULTI_HANDLER_COMPLEX(mode=0x03 - Load ext scheduler (OpCode 0x5B mode 0), ref=3878*, entity1=??? (ID: 17977516/0x011250AC), entity2=??? (ID: 17977516/0x011250AC), string="tma1")
 21: 0x04EF [0x01] GOTO 0x0528
 22: 0x04F2 [0x02] IF !(LocalPlayer->Race == 7*) GOTO 0x050D
 23: 0x04FA [0x5F] MULTI_HANDLER_COMPLEX(mode=0x03 - Load ext scheduler (OpCode 0x5B mode 0), ref=3878*, entity1=??? (ID: 17977516/0x011250AC), entity2=??? (ID: 17977516/0x011250AC), string="mma1")
 24: 0x050A [0x01] GOTO 0x0528
 25: 0x050D [0x02] IF !(LocalPlayer->Race == 8*) GOTO 0x0528
 26: 0x0515 [0x5F] MULTI_HANDLER_COMPLEX(mode=0x03 - Load ext scheduler (OpCode 0x5B mode 0), ref=3878*, entity1=??? (ID: 17977516/0x011250AC), entity2=??? (ID: 17977516/0x011250AC), string="gma1")
 27: 0x0525 [0x01] GOTO 0x0528

SUBROUTINE_0528:
 28: 0x0528 [0x00] END_REQSTACK()
```

### Event 65535.25

#### Metadata

| Field        | Value     |
|--------------|-----------|
| Entrypoint   | 0x0529    |
| Data Size    | 246 bytes |
| Instructions | 29        |

```
      00 01 02 03 04 05 06 07  08 09 0A 0B 0C 0D 0E 0F
      -- -- -- -- -- -- -- --  -- -- -- -- -- -- -- --
0520:                             03 00 00 07 7F 1A B7           .......
0530: 00 07 01 00 00 80 5F 04  01 00 F8 FF FF 7F F8 FF  ......_.........
0540: FF 7F 6B 69 7A 6C 02 87  7F 00 80 80 61 05 5F 03  ..kizl......a._.
0550: 21 80 AC 50 12 01 AC 50  12 01 68 6D 6C 6C 01 1E  !..P...P..hmll..
0560: 06 02 87 7F 04 80 80 7C  05 5F 03 21 80 AC 50 12  .......|._.!..P.
0570: 01 AC 50 12 01 68 66 6C  6C 01 1E 06 02 87 7F 22  ..P..hfll......"
0580: 80 80 97 05 5F 03 21 80  AC 50 12 01 AC 50 12 01  ...._.!..P...P..
0590: 65 6D 6C 6C 01 1E 06 02  87 7F 23 80 80 B2 05 5F  emll......#...._
05A0: 03 21 80 AC 50 12 01 AC  50 12 01 65 66 6C 6C 01  .!..P...P..efll.
05B0: 1E 06 02 87 7F 03 80 80  CD 05 5F 03 21 80 AC 50  .........._.!..P
05C0: 12 01 AC 50 12 01 74 6D  6C 6C 01 1E 06 02 87 7F  ...P..tmll......
05D0: 24 80 80 E8 05 5F 03 21  80 AC 50 12 01 AC 50 12  $...._.!..P...P.
05E0: 01 74 6D 6C 6C 01 1E 06  02 87 7F 0B 80 80 03 06  .tmll...........
05F0: 5F 03 21 80 AC 50 12 01  AC 50 12 01 6D 6D 6C 6C  _.!..P...P..mmll
0600: 01 1E 06 02 87 7F 0A 80  80 1E 06 5F 03 21 80 AC  ..........._.!..
0610: 50 12 01 AC 50 12 01 67  6D 6C 6C 01 1E 06 00     P...P..gmll.... 
```

#### Opcodes

```
  0: 0x0529 [0x03] ExtData[1]->WorkLocal[0] = Entity->Race
  1: 0x052E [0x1A] CALL_SUBROUTINE(address=0x00B7)
  2: 0x0531 [0x07] ExtData[1]->WorkLocal[1] += 1*
  3: 0x0536 [0x5F] MULTI_HANDLER_COMPLEX(mode=0x04 - Load ext scheduler (OpCode 0x5B mode 1), ref=ExtData[1]->WorkLocal[1], entity1=EventEntity, entity2=EventEntity, string="kizl")
  4: 0x0546 [0x02] IF !(LocalPlayer->Race == 1*) GOTO 0x0561
  5: 0x054E [0x5F] MULTI_HANDLER_COMPLEX(mode=0x03 - Load ext scheduler (OpCode 0x5B mode 0), ref=3878*, entity1=??? (ID: 17977516/0x011250AC), entity2=??? (ID: 17977516/0x011250AC), string="hmll")
  6: 0x055E [0x01] GOTO 0x061E
  7: 0x0561 [0x02] IF !(LocalPlayer->Race == 2*) GOTO 0x057C
  8: 0x0569 [0x5F] MULTI_HANDLER_COMPLEX(mode=0x03 - Load ext scheduler (OpCode 0x5B mode 0), ref=3878*, entity1=??? (ID: 17977516/0x011250AC), entity2=??? (ID: 17977516/0x011250AC), string="hfll")
  9: 0x0579 [0x01] GOTO 0x061E
 10: 0x057C [0x02] IF !(LocalPlayer->Race == 3*) GOTO 0x0597
 11: 0x0584 [0x5F] MULTI_HANDLER_COMPLEX(mode=0x03 - Load ext scheduler (OpCode 0x5B mode 0), ref=3878*, entity1=??? (ID: 17977516/0x011250AC), entity2=??? (ID: 17977516/0x011250AC), string="emll")
 12: 0x0594 [0x01] GOTO 0x061E
 13: 0x0597 [0x02] IF !(LocalPlayer->Race == 4*) GOTO 0x05B2
 14: 0x059F [0x5F] MULTI_HANDLER_COMPLEX(mode=0x03 - Load ext scheduler (OpCode 0x5B mode 0), ref=3878*, entity1=??? (ID: 17977516/0x011250AC), entity2=??? (ID: 17977516/0x011250AC), string="efll")
 15: 0x05AF [0x01] GOTO 0x061E
 16: 0x05B2 [0x02] IF !(LocalPlayer->Race == 5*) GOTO 0x05CD
 17: 0x05BA [0x5F] MULTI_HANDLER_COMPLEX(mode=0x03 - Load ext scheduler (OpCode 0x5B mode 0), ref=3878*, entity1=??? (ID: 17977516/0x011250AC), entity2=??? (ID: 17977516/0x011250AC), string="tmll")
 18: 0x05CA [0x01] GOTO 0x061E
 19: 0x05CD [0x02] IF !(LocalPlayer->Race == 6*) GOTO 0x05E8
 20: 0x05D5 [0x5F] MULTI_HANDLER_COMPLEX(mode=0x03 - Load ext scheduler (OpCode 0x5B mode 0), ref=3878*, entity1=??? (ID: 17977516/0x011250AC), entity2=??? (ID: 17977516/0x011250AC), string="tmll")
 21: 0x05E5 [0x01] GOTO 0x061E
 22: 0x05E8 [0x02] IF !(LocalPlayer->Race == 7*) GOTO 0x0603
 23: 0x05F0 [0x5F] MULTI_HANDLER_COMPLEX(mode=0x03 - Load ext scheduler (OpCode 0x5B mode 0), ref=3878*, entity1=??? (ID: 17977516/0x011250AC), entity2=??? (ID: 17977516/0x011250AC), string="mmll")
 24: 0x0600 [0x01] GOTO 0x061E
 25: 0x0603 [0x02] IF !(LocalPlayer->Race == 8*) GOTO 0x061E
 26: 0x060B [0x5F] MULTI_HANDLER_COMPLEX(mode=0x03 - Load ext scheduler (OpCode 0x5B mode 0), ref=3878*, entity1=??? (ID: 17977516/0x011250AC), entity2=??? (ID: 17977516/0x011250AC), string="gmll")
 27: 0x061B [0x01] GOTO 0x061E

SUBROUTINE_061E:
 28: 0x061E [0x00] END_REQSTACK()
```

### Event 65535.26

#### Metadata

| Field        | Value     |
|--------------|-----------|
| Entrypoint   | 0x061F    |
| Data Size    | 246 bytes |
| Instructions | 29        |

```
      00 01 02 03 04 05 06 07  08 09 0A 0B 0C 0D 0E 0F
      -- -- -- -- -- -- -- --  -- -- -- -- -- -- -- --
0610:                                               03                 .
0620: 00 00 07 7F 1A B7 00 07  01 00 00 80 5F 04 01 00  ............_...
0630: F8 FF FF 7F F8 FF FF 7F  6B 69 7A 32 02 87 7F 00  ........kiz2....
0640: 80 80 57 06 5F 03 21 80  AC 50 12 01 AC 50 12 01  ..W._.!..P...P..
0650: 68 6D 6D 32 01 14 07 02  87 7F 04 80 80 72 06 5F  hmm2.........r._
0660: 03 21 80 AC 50 12 01 AC  50 12 01 68 66 6D 32 01  .!..P...P..hfm2.
0670: 14 07 02 87 7F 22 80 80  8D 06 5F 03 21 80 AC 50  ....."...._.!..P
0680: 12 01 AC 50 12 01 65 6D  6D 32 01 14 07 02 87 7F  ...P..emm2......
0690: 23 80 80 A8 06 5F 03 21  80 AC 50 12 01 AC 50 12  #...._.!..P...P.
06A0: 01 65 66 6D 32 01 14 07  02 87 7F 03 80 80 C3 06  .efm2...........
06B0: 5F 03 21 80 AC 50 12 01  AC 50 12 01 74 6D 61 32  _.!..P...P..tma2
06C0: 01 14 07 02 87 7F 24 80  80 DE 06 5F 03 21 80 AC  ......$...._.!..
06D0: 50 12 01 AC 50 12 01 74  6D 61 32 01 14 07 02 87  P...P..tma2.....
06E0: 7F 0B 80 80 F9 06 5F 03  21 80 AC 50 12 01 AC 50  ......_.!..P...P
06F0: 12 01 6D 6D 61 32 01 14  07 02 87 7F 0A 80 80 14  ..mma2..........
0700: 07 5F 03 21 80 AC 50 12  01 AC 50 12 01 67 6D 61  ._.!..P...P..gma
0710: 32 01 14 07 00                                    2....           
```

#### Opcodes

```
  0: 0x061F [0x03] ExtData[1]->WorkLocal[0] = Entity->Race
  1: 0x0624 [0x1A] CALL_SUBROUTINE(address=0x00B7)
  2: 0x0627 [0x07] ExtData[1]->WorkLocal[1] += 1*
  3: 0x062C [0x5F] MULTI_HANDLER_COMPLEX(mode=0x04 - Load ext scheduler (OpCode 0x5B mode 1), ref=ExtData[1]->WorkLocal[1], entity1=EventEntity, entity2=EventEntity, string="kiz2")
  4: 0x063C [0x02] IF !(LocalPlayer->Race == 1*) GOTO 0x0657
  5: 0x0644 [0x5F] MULTI_HANDLER_COMPLEX(mode=0x03 - Load ext scheduler (OpCode 0x5B mode 0), ref=3878*, entity1=??? (ID: 17977516/0x011250AC), entity2=??? (ID: 17977516/0x011250AC), string="hmm2")
  6: 0x0654 [0x01] GOTO 0x0714
  7: 0x0657 [0x02] IF !(LocalPlayer->Race == 2*) GOTO 0x0672
  8: 0x065F [0x5F] MULTI_HANDLER_COMPLEX(mode=0x03 - Load ext scheduler (OpCode 0x5B mode 0), ref=3878*, entity1=??? (ID: 17977516/0x011250AC), entity2=??? (ID: 17977516/0x011250AC), string="hfm2")
  9: 0x066F [0x01] GOTO 0x0714
 10: 0x0672 [0x02] IF !(LocalPlayer->Race == 3*) GOTO 0x068D
 11: 0x067A [0x5F] MULTI_HANDLER_COMPLEX(mode=0x03 - Load ext scheduler (OpCode 0x5B mode 0), ref=3878*, entity1=??? (ID: 17977516/0x011250AC), entity2=??? (ID: 17977516/0x011250AC), string="emm2")
 12: 0x068A [0x01] GOTO 0x0714
 13: 0x068D [0x02] IF !(LocalPlayer->Race == 4*) GOTO 0x06A8
 14: 0x0695 [0x5F] MULTI_HANDLER_COMPLEX(mode=0x03 - Load ext scheduler (OpCode 0x5B mode 0), ref=3878*, entity1=??? (ID: 17977516/0x011250AC), entity2=??? (ID: 17977516/0x011250AC), string="efm2")
 15: 0x06A5 [0x01] GOTO 0x0714
 16: 0x06A8 [0x02] IF !(LocalPlayer->Race == 5*) GOTO 0x06C3
 17: 0x06B0 [0x5F] MULTI_HANDLER_COMPLEX(mode=0x03 - Load ext scheduler (OpCode 0x5B mode 0), ref=3878*, entity1=??? (ID: 17977516/0x011250AC), entity2=??? (ID: 17977516/0x011250AC), string="tma2")
 18: 0x06C0 [0x01] GOTO 0x0714
 19: 0x06C3 [0x02] IF !(LocalPlayer->Race == 6*) GOTO 0x06DE
 20: 0x06CB [0x5F] MULTI_HANDLER_COMPLEX(mode=0x03 - Load ext scheduler (OpCode 0x5B mode 0), ref=3878*, entity1=??? (ID: 17977516/0x011250AC), entity2=??? (ID: 17977516/0x011250AC), string="tma2")
 21: 0x06DB [0x01] GOTO 0x0714
 22: 0x06DE [0x02] IF !(LocalPlayer->Race == 7*) GOTO 0x06F9
 23: 0x06E6 [0x5F] MULTI_HANDLER_COMPLEX(mode=0x03 - Load ext scheduler (OpCode 0x5B mode 0), ref=3878*, entity1=??? (ID: 17977516/0x011250AC), entity2=??? (ID: 17977516/0x011250AC), string="mma2")
 24: 0x06F6 [0x01] GOTO 0x0714
 25: 0x06F9 [0x02] IF !(LocalPlayer->Race == 8*) GOTO 0x0714
 26: 0x0701 [0x5F] MULTI_HANDLER_COMPLEX(mode=0x03 - Load ext scheduler (OpCode 0x5B mode 0), ref=3878*, entity1=??? (ID: 17977516/0x011250AC), entity2=??? (ID: 17977516/0x011250AC), string="gma2")
 27: 0x0711 [0x01] GOTO 0x0714

SUBROUTINE_0714:
 28: 0x0714 [0x00] END_REQSTACK()
```

### Event 65535.27

#### Metadata

| Field        | Value    |
|--------------|----------|
| Entrypoint   | 0x0715   |
| Data Size    | 22 bytes |
| Instructions | 6        |

```
      00 01 02 03 04 05 06 07  08 09 0A 0B 0C 0D 0E 0F
      -- -- -- -- -- -- -- --  -- -- -- -- -- -- -- --
0710:                32 19 80  1F 00 25 80 26 80 27 80       2....%.&.'.
0720: 1F 01 1E AD 50 12 01 1C  28 80 00                 ....P...(..     
```

#### Opcodes

```
  0: 0x0715 [0x32] ExtData[1]->MainSpeed = 40* * 0.1
  1: 0x0718 [0x1F] MOVE_ENTITY: EventEntity moves to X=13.609*, Z=504.045*, Y=-0.680*
  2: 0x0720 [0x1F] MOVE_ENTITY: Update entity position (mode=1)
  3: 0x0722 [0x1E] EventEntity looks at Iroha (ID: 17977517/0x011250AD) and starts talking
  4: 0x0727 [0x1C] WAIT(30* ticks)
  5: 0x072A [0x00] END_REQSTACK()
```

### Event 65535.28

#### Metadata

| Field        | Value    |
|--------------|----------|
| Entrypoint   | 0x072B   |
| Data Size    | 14 bytes |
| Instructions | 4        |

```
      00 01 02 03 04 05 06 07  08 09 0A 0B 0C 0D 0E 0F
      -- -- -- -- -- -- -- --  -- -- -- -- -- -- -- --
0720:                                   32 1D 80 1F 00             2....
0730: 29 80 2A 80 20 80 1F 01  00                       ).*. ....       
```

#### Opcodes

```
  0: 0x072B [0x32] ExtData[1]->MainSpeed = 13* * 0.1
  1: 0x072E [0x1F] MOVE_ENTITY: EventEntity moves to X=-0.012*, Z=16.203*, Y=3.999*
  2: 0x0736 [0x1F] MOVE_ENTITY: Update entity position (mode=1)
  3: 0x0738 [0x00] END_REQSTACK()
```

### Event 65535.29

#### Metadata

| Field        | Value    |
|--------------|----------|
| Entrypoint   | 0x0739   |
| Data Size    | 10 bytes |
| Instructions | 2        |

```
      00 01 02 03 04 05 06 07  08 09 0A 0B 0C 0D 0E 0F
      -- -- -- -- -- -- -- --  -- -- -- -- -- -- -- --
0730:                             6C F8 FF FF 7F 2B 80           l....+.
0740: 00 80 00                                          ...             
```

#### Opcodes

```
  0: 0x0739 [0x6C] FADE_ENTITY_COLOR(entity_id=EventEntity, end_alpha=128*, fade_time=1*)
  1: 0x0742 [0x00] END_REQSTACK()
```

### Event 65535.30

#### Metadata

| Field        | Value    |
|--------------|----------|
| Entrypoint   | 0x0743   |
| Data Size    | 10 bytes |
| Instructions | 2        |

```
      00 01 02 03 04 05 06 07  08 09 0A 0B 0C 0D 0E 0F
      -- -- -- -- -- -- -- --  -- -- -- -- -- -- -- --
0740:          6C F8 FF FF 7F  01 80 00 80 00              l.........   
```

#### Opcodes

```
  0: 0x0743 [0x6C] FADE_ENTITY_COLOR(entity_id=EventEntity, end_alpha=0*, fade_time=1*)
  1: 0x074C [0x00] END_REQSTACK()
```

### Event 65535.31

#### Metadata

| Field        | Value    |
|--------------|----------|
| Entrypoint   | 0x074D   |
| Data Size    | 14 bytes |
| Instructions | 4        |

```
      00 01 02 03 04 05 06 07  08 09 0A 0B 0C 0D 0E 0F
      -- -- -- -- -- -- -- --  -- -- -- -- -- -- -- --
0740:                                         32 1D 80               2..
0750: 1F 00 2C 80 2D 80 20 80  1F 01 00                 ..,.-. ....     
```

#### Opcodes

```
  0: 0x074D [0x32] ExtData[1]->MainSpeed = 13* * 0.1
  1: 0x0750 [0x1F] MOVE_ENTITY: EventEntity moves to X=1.238*, Z=6.190*, Y=3.999*
  2: 0x0758 [0x1F] MOVE_ENTITY: Update entity position (mode=1)
  3: 0x075A [0x00] END_REQSTACK()
```

### Event 65535.32

#### Metadata

| Field        | Value    |
|--------------|----------|
| Entrypoint   | 0x075B   |
| Data Size    | 17 bytes |
| Instructions | 5        |

```
      00 01 02 03 04 05 06 07  08 09 0A 0B 0C 0D 0E 0F
      -- -- -- -- -- -- -- --  -- -- -- -- -- -- -- --
0750:                                   32 1D 80 1F 00             2....
0760: 13 80 2E 80 20 80 1F 01  1C 28 80 00              .... ....(..    
```

#### Opcodes

```
  0: 0x075B [0x32] ExtData[1]->MainSpeed = 13* * 0.1
  1: 0x075E [0x1F] MOVE_ENTITY: EventEntity moves to X=0.064*, Z=14.772*, Y=3.999*
  2: 0x0766 [0x1F] MOVE_ENTITY: Update entity position (mode=1)
  3: 0x0768 [0x1C] WAIT(30* ticks)
  4: 0x076B [0x00] END_REQSTACK()
```

### Event 65535.33

#### Metadata

| Field        | Value    |
|--------------|----------|
| Entrypoint   | 0x076C   |
| Data Size    | 17 bytes |
| Instructions | 5        |

```
      00 01 02 03 04 05 06 07  08 09 0A 0B 0C 0D 0E 0F
      -- -- -- -- -- -- -- --  -- -- -- -- -- -- -- --
0760:                                      32 1D 80 1F              2...
0770: 00 2F 80 30 80 20 80 1F  01 1C 28 80 00           ./.0. ....(..   
```

#### Opcodes

```
  0: 0x076C [0x32] ExtData[1]->MainSpeed = 13* * 0.1
  1: 0x076F [0x1F] MOVE_ENTITY: EventEntity moves to X=2.033*, Z=10.171*, Y=3.999*
  2: 0x0777 [0x1F] MOVE_ENTITY: Update entity position (mode=1)
  3: 0x0779 [0x1C] WAIT(30* ticks)
  4: 0x077C [0x00] END_REQSTACK()
```

### Event 65535.34

#### Metadata

| Field        | Value     |
|--------------|-----------|
| Entrypoint   | 0x077D    |
| Data Size    | 345 bytes |
| Instructions | 33        |

```
      00 01 02 03 04 05 06 07  08 09 0A 0B 0C 0D 0E 0F
      -- -- -- -- -- -- -- --  -- -- -- -- -- -- -- --
0770:                                         02 87 7F               ...
0780: 00 80 80 A8 07 5F 04 31  80 F0 FF FF 7F F0 FF FF  ....._.1........
0790: 7F 6D 61 67 30 5F 03 21  80 AC 50 12 01 AC 50 12  .mag0_.!..P...P.
07A0: 01 68 6D 6D 61 01 D5 08  02 87 7F 04 80 80 D3 07  .hmma...........
07B0: 5F 04 32 80 F0 FF FF 7F  F0 FF FF 7F 6D 61 67 30  _.2.........mag0
07C0: 5F 03 21 80 AC 50 12 01  AC 50 12 01 68 66 6D 61  _.!..P...P..hfma
07D0: 01 D5 08 02 87 7F 22 80  80 FE 07 5F 04 33 80 F0  ......"...._.3..
07E0: FF FF 7F F0 FF FF 7F 6D  61 67 30 5F 03 21 80 AC  .......mag0_.!..
07F0: 50 12 01 AC 50 12 01 65  6D 6D 61 01 D5 08 02 87  P...P..emma.....
0800: 7F 23 80 80 29 08 5F 04  34 80 F0 FF FF 7F F0 FF  .#..)._.4.......
0810: FF 7F 6D 61 67 30 5F 03  21 80 AC 50 12 01 AC 50  ..mag0_.!..P...P
0820: 12 01 65 66 6D 61 01 D5  08 02 87 7F 03 80 80 54  ..efma.........T
0830: 08 5F 04 35 80 F0 FF FF  7F F0 FF FF 7F 6D 61 67  ._.5.........mag
0840: 30 5F 03 21 80 AC 50 12  01 AC 50 12 01 74 72 6D  0_.!..P...P..trm
0850: 61 01 D5 08 02 87 7F 24  80 80 7F 08 5F 04 35 80  a......$...._.5.
0860: F0 FF FF 7F F0 FF FF 7F  6D 61 67 30 5F 03 21 80  ........mag0_.!.
0870: AC 50 12 01 AC 50 12 01  74 72 6D 61 01 D5 08 02  .P...P..trma....
0880: 87 7F 0B 80 80 AA 08 5F  04 36 80 F0 FF FF 7F F0  ......._.6......
0890: FF FF 7F 6D 61 67 30 5F  03 21 80 AC 50 12 01 AC  ...mag0_.!..P...
08A0: 50 12 01 6D 66 6D 61 01  D5 08 02 87 7F 0A 80 80  P..mfma.........
08B0: D5 08 5F 04 37 80 F0 FF  FF 7F F0 FF FF 7F 6D 61  .._.7.........ma
08C0: 67 30 5F 03 21 80 AC 50  12 01 AC 50 12 01 67 6D  g0_.!..P...P..gm
08D0: 6D 61 01 D5 08 00                                 ma....          
```

#### Opcodes

```
  0: 0x077D [0x02] IF !(LocalPlayer->Race == 1*) GOTO 0x07A8
  1: 0x0785 [0x5F] MULTI_HANDLER_COMPLEX(mode=0x04 - Load ext scheduler (OpCode 0x5B mode 1), ref=144*, entity1=LocalPlayer, entity2=LocalPlayer, string="mag0")
  2: 0x0795 [0x5F] MULTI_HANDLER_COMPLEX(mode=0x03 - Load ext scheduler (OpCode 0x5B mode 0), ref=3878*, entity1=??? (ID: 17977516/0x011250AC), entity2=??? (ID: 17977516/0x011250AC), string="hmma")
  3: 0x07A5 [0x01] GOTO 0x08D5
  4: 0x07A8 [0x02] IF !(LocalPlayer->Race == 2*) GOTO 0x07D3
  5: 0x07B0 [0x5F] MULTI_HANDLER_COMPLEX(mode=0x04 - Load ext scheduler (OpCode 0x5B mode 1), ref=154*, entity1=LocalPlayer, entity2=LocalPlayer, string="mag0")
  6: 0x07C0 [0x5F] MULTI_HANDLER_COMPLEX(mode=0x03 - Load ext scheduler (OpCode 0x5B mode 0), ref=3878*, entity1=??? (ID: 17977516/0x011250AC), entity2=??? (ID: 17977516/0x011250AC), string="hfma")
  7: 0x07D0 [0x01] GOTO 0x08D5
  8: 0x07D3 [0x02] IF !(LocalPlayer->Race == 3*) GOTO 0x07FE
  9: 0x07DB [0x5F] MULTI_HANDLER_COMPLEX(mode=0x04 - Load ext scheduler (OpCode 0x5B mode 1), ref=164*, entity1=LocalPlayer, entity2=LocalPlayer, string="mag0")
 10: 0x07EB [0x5F] MULTI_HANDLER_COMPLEX(mode=0x03 - Load ext scheduler (OpCode 0x5B mode 0), ref=3878*, entity1=??? (ID: 17977516/0x011250AC), entity2=??? (ID: 17977516/0x011250AC), string="emma")
 11: 0x07FB [0x01] GOTO 0x08D5
 12: 0x07FE [0x02] IF !(LocalPlayer->Race == 4*) GOTO 0x0829
 13: 0x0806 [0x5F] MULTI_HANDLER_COMPLEX(mode=0x04 - Load ext scheduler (OpCode 0x5B mode 1), ref=174*, entity1=LocalPlayer, entity2=LocalPlayer, string="mag0")
 14: 0x0816 [0x5F] MULTI_HANDLER_COMPLEX(mode=0x03 - Load ext scheduler (OpCode 0x5B mode 0), ref=3878*, entity1=??? (ID: 17977516/0x011250AC), entity2=??? (ID: 17977516/0x011250AC), string="efma")
 15: 0x0826 [0x01] GOTO 0x08D5
 16: 0x0829 [0x02] IF !(LocalPlayer->Race == 5*) GOTO 0x0854
 17: 0x0831 [0x5F] MULTI_HANDLER_COMPLEX(mode=0x04 - Load ext scheduler (OpCode 0x5B mode 1), ref=184*, entity1=LocalPlayer, entity2=LocalPlayer, string="mag0")
 18: 0x0841 [0x5F] MULTI_HANDLER_COMPLEX(mode=0x03 - Load ext scheduler (OpCode 0x5B mode 0), ref=3878*, entity1=??? (ID: 17977516/0x011250AC), entity2=??? (ID: 17977516/0x011250AC), string="trma")
 19: 0x0851 [0x01] GOTO 0x08D5
 20: 0x0854 [0x02] IF !(LocalPlayer->Race == 6*) GOTO 0x087F
 21: 0x085C [0x5F] MULTI_HANDLER_COMPLEX(mode=0x04 - Load ext scheduler (OpCode 0x5B mode 1), ref=184*, entity1=LocalPlayer, entity2=LocalPlayer, string="mag0")
 22: 0x086C [0x5F] MULTI_HANDLER_COMPLEX(mode=0x03 - Load ext scheduler (OpCode 0x5B mode 0), ref=3878*, entity1=??? (ID: 17977516/0x011250AC), entity2=??? (ID: 17977516/0x011250AC), string="trma")
 23: 0x087C [0x01] GOTO 0x08D5
 24: 0x087F [0x02] IF !(LocalPlayer->Race == 7*) GOTO 0x08AA
 25: 0x0887 [0x5F] MULTI_HANDLER_COMPLEX(mode=0x04 - Load ext scheduler (OpCode 0x5B mode 1), ref=194*, entity1=LocalPlayer, entity2=LocalPlayer, string="mag0")
 26: 0x0897 [0x5F] MULTI_HANDLER_COMPLEX(mode=0x03 - Load ext scheduler (OpCode 0x5B mode 0), ref=3878*, entity1=??? (ID: 17977516/0x011250AC), entity2=??? (ID: 17977516/0x011250AC), string="mfma")
 27: 0x08A7 [0x01] GOTO 0x08D5
 28: 0x08AA [0x02] IF !(LocalPlayer->Race == 8*) GOTO 0x08D5
 29: 0x08B2 [0x5F] MULTI_HANDLER_COMPLEX(mode=0x04 - Load ext scheduler (OpCode 0x5B mode 1), ref=204*, entity1=LocalPlayer, entity2=LocalPlayer, string="mag0")
 30: 0x08C2 [0x5F] MULTI_HANDLER_COMPLEX(mode=0x03 - Load ext scheduler (OpCode 0x5B mode 0), ref=3878*, entity1=??? (ID: 17977516/0x011250AC), entity2=??? (ID: 17977516/0x011250AC), string="gmma")
 31: 0x08D2 [0x01] GOTO 0x08D5

SUBROUTINE_08D5:
 32: 0x08D5 [0x00] END_REQSTACK()
```

### Event 65535.35

#### Metadata

| Field        | Value    |
|--------------|----------|
| Entrypoint   | 0x08D6   |
| Data Size    | 14 bytes |
| Instructions | 4        |

```
      00 01 02 03 04 05 06 07  08 09 0A 0B 0C 0D 0E 0F
      -- -- -- -- -- -- -- --  -- -- -- -- -- -- -- --
08D0:                   32 19  80 1F 00 38 80 39 80 3A        2....8.9.:
08E0: 80 1F 01 00                                       ....            
```

#### Opcodes

```
  0: 0x08D6 [0x32] ExtData[1]->MainSpeed = 40* * 0.1
  1: 0x08D9 [0x1F] MOVE_ENTITY: EventEntity moves to X=1.063*, Z=-27.268*, Y=4.000*
  2: 0x08E1 [0x1F] MOVE_ENTITY: Update entity position (mode=1)
  3: 0x08E3 [0x00] END_REQSTACK()
```

### Event 65535.36

#### Metadata

| Field        | Value    |
|--------------|----------|
| Entrypoint   | 0x08E4   |
| Data Size    | 14 bytes |
| Instructions | 4        |

```
      00 01 02 03 04 05 06 07  08 09 0A 0B 0C 0D 0E 0F
      -- -- -- -- -- -- -- --  -- -- -- -- -- -- -- --
08E0:             32 19 80 1F  00 01 80 3B 80 3A 80 1F      2......;.:..
08F0: 01 00                                             ..              
```

#### Opcodes

```
  0: 0x08E4 [0x32] ExtData[1]->MainSpeed = 40* * 0.1
  1: 0x08E7 [0x1F] MOVE_ENTITY: EventEntity moves to X=0.000*, Z=4.249*, Y=4.000*
  2: 0x08EF [0x1F] MOVE_ENTITY: Update entity position (mode=1)
  3: 0x08F1 [0x00] END_REQSTACK()
```

### Event 65535.37

#### Metadata

| Field        | Value    |
|--------------|----------|
| Entrypoint   | 0x08F2   |
| Data Size    | 14 bytes |
| Instructions | 4        |

```
      00 01 02 03 04 05 06 07  08 09 0A 0B 0C 0D 0E 0F
      -- -- -- -- -- -- -- --  -- -- -- -- -- -- -- --
08F0:       32 1D 80 1F 00 01  80 3C 80 3A 80 1F 01 00    2......<.:....
```

#### Opcodes

```
  0: 0x08F2 [0x32] ExtData[1]->MainSpeed = 13* * 0.1
  1: 0x08F5 [0x1F] MOVE_ENTITY: EventEntity moves to X=0.000*, Z=14.975*, Y=4.000*
  2: 0x08FD [0x1F] MOVE_ENTITY: Update entity position (mode=1)
  3: 0x08FF [0x00] END_REQSTACK()
```

### Event 65535.38

#### Metadata

| Field        | Value    |
|--------------|----------|
| Entrypoint   | 0x0900   |
| Data Size    | 22 bytes |
| Instructions | 6        |

```
      00 01 02 03 04 05 06 07  08 09 0A 0B 0C 0D 0E 0F
      -- -- -- -- -- -- -- --  -- -- -- -- -- -- -- --
0900: 32 19 80 1F 00 3D 80 3E  80 3F 80 1F 01 1E AE 50  2....=.>.?.....P
0910: 12 01 1C 28 80 00                                 ...(..          
```

#### Opcodes

```
  0: 0x0900 [0x32] ExtData[1]->MainSpeed = 40* * 0.1
  1: 0x0903 [0x1F] MOVE_ENTITY: EventEntity moves to X=499.554*, Z=-517.758*, Y=-30.344*
  2: 0x090B [0x1F] MOVE_ENTITY: Update entity position (mode=1)
  3: 0x090D [0x1E] EventEntity looks at Selh'teus (ID: 17977518/0x011250AE) and starts talking
  4: 0x0912 [0x1C] WAIT(30* ticks)
  5: 0x0915 [0x00] END_REQSTACK()
```

### Event 65535.39

#### Metadata

| Field        | Value    |
|--------------|----------|
| Entrypoint   | 0x0916   |
| Data Size    | 14 bytes |
| Instructions | 4        |

```
      00 01 02 03 04 05 06 07  08 09 0A 0B 0C 0D 0E 0F
      -- -- -- -- -- -- -- --  -- -- -- -- -- -- -- --
0910:                   32 19  80 1F 00 40 80 41 80 20        2....@.A. 
0920: 80 1F 01 00                                       ....            
```

#### Opcodes

```
  0: 0x0916 [0x32] ExtData[1]->MainSpeed = 40* * 0.1
  1: 0x0919 [0x1F] MOVE_ENTITY: EventEntity moves to X=-0.009*, Z=13.087*, Y=3.999*
  2: 0x0921 [0x1F] MOVE_ENTITY: Update entity position (mode=1)
  3: 0x0923 [0x00] END_REQSTACK()
```

### Event 65535.40

#### Metadata

| Field        | Value    |
|--------------|----------|
| Entrypoint   | 0x0924   |
| Data Size    | 29 bytes |
| Instructions | 5        |

```
      00 01 02 03 04 05 06 07  08 09 0A 0B 0C 0D 0E 0F
      -- -- -- -- -- -- -- --  -- -- -- -- -- -- -- --
0920:             03 00 00 07  7F 1A B7 00 07 01 00 22      ..........."
0930: 80 66 01 00 F8 FF FF 7F  F8 FF FF 7F 64 65 64 30  .f..........ded0
0940: 00                                                .               
```

#### Opcodes

```
  0: 0x0924 [0x03] ExtData[1]->WorkLocal[0] = Entity->Race
  1: 0x0929 [0x1A] CALL_SUBROUTINE(address=0x00B7)
  2: 0x092C [0x07] ExtData[1]->WorkLocal[1] += 3*
  3: 0x0931 [0x66] LOAD_EXT_SCHEDULER_MAIN: Load scheduler "ded0" with entities [EventEntity, EventEntity], work=ExtData[1]->WorkLocal[1]
  4: 0x0940 [0x00] END_REQSTACK()
```

### Event 65535.41

#### Metadata

| Field        | Value     |
|--------------|-----------|
| Entrypoint   | 0x0941    |
| Data Size    | 249 bytes |
| Instructions | 25        |

```
      00 01 02 03 04 05 06 07  08 09 0A 0B 0C 0D 0E 0F
      -- -- -- -- -- -- -- --  -- -- -- -- -- -- -- --
0940:    02 87 7F 00 80 80 60  09 B6 0B 00 80 03 10 08   ......`........
0950: 10 04 10 05 10 06 10 07  10 01 80 01 80 01 39 0A  ..............9.
0960: 02 87 7F 04 80 80 7F 09  B6 0B 04 80 03 10 08 10  ................
0970: 04 10 05 10 06 10 07 10  01 80 01 80 01 39 0A 02  .............9..
0980: 87 7F 22 80 80 9E 09 B6  0B 22 80 03 10 08 10 04  .."......"......
0990: 10 05 10 06 10 07 10 01  80 01 80 01 39 0A 02 87  ............9...
09A0: 7F 23 80 80 BD 09 B6 0B  23 80 03 10 08 10 04 10  .#......#.......
09B0: 05 10 06 10 07 10 01 80  01 80 01 39 0A 02 87 7F  ...........9....
09C0: 03 80 80 DC 09 B6 0B 03  80 03 10 08 10 04 10 05  ................
09D0: 10 06 10 07 10 01 80 01  80 01 39 0A 02 87 7F 24  ..........9....$
09E0: 80 80 FB 09 B6 0B 24 80  03 10 08 10 04 10 05 10  ......$.........
09F0: 06 10 07 10 01 80 01 80  01 39 0A 02 87 7F 0B 80  .........9......
0A00: 80 1A 0A B6 0B 0B 80 03  10 08 10 04 10 05 10 06  ................
0A10: 10 07 10 01 80 01 80 01  39 0A 02 87 7F 0A 80 80  ........9.......
0A20: 39 0A B6 0B 0A 80 03 10  08 10 04 10 05 10 06 10  9...............
0A30: 07 10 01 80 01 80 01 39  0A 00                    .......9..      
```

#### Opcodes

```
  0: 0x0941 [0x02] IF !(LocalPlayer->Race == 1*) GOTO 0x0960
  1: 0x0949 [0xB6] ENTITY_APPEARANCE_HANDLER(case=Full entity look, race=1*, hair=Work_Zone[3], head=Work_Zone[8], body=Work_Zone[4], hands=Work_Zone[5], legs=Work_Zone[6], feet=Work_Zone[7], main=0*, sub=0*)
  2: 0x095D [0x01] GOTO 0x0A39
  3: 0x0960 [0x02] IF !(LocalPlayer->Race == 2*) GOTO 0x097F
  4: 0x0968 [0xB6] ENTITY_APPEARANCE_HANDLER(case=Full entity look, race=2*, hair=Work_Zone[3], head=Work_Zone[8], body=Work_Zone[4], hands=Work_Zone[5], legs=Work_Zone[6], feet=Work_Zone[7], main=0*, sub=0*)
  5: 0x097C [0x01] GOTO 0x0A39
  6: 0x097F [0x02] IF !(LocalPlayer->Race == 3*) GOTO 0x099E
  7: 0x0987 [0xB6] ENTITY_APPEARANCE_HANDLER(case=Full entity look, race=3*, hair=Work_Zone[3], head=Work_Zone[8], body=Work_Zone[4], hands=Work_Zone[5], legs=Work_Zone[6], feet=Work_Zone[7], main=0*, sub=0*)
  8: 0x099B [0x01] GOTO 0x0A39
  9: 0x099E [0x02] IF !(LocalPlayer->Race == 4*) GOTO 0x09BD
 10: 0x09A6 [0xB6] ENTITY_APPEARANCE_HANDLER(case=Full entity look, race=4*, hair=Work_Zone[3], head=Work_Zone[8], body=Work_Zone[4], hands=Work_Zone[5], legs=Work_Zone[6], feet=Work_Zone[7], main=0*, sub=0*)
 11: 0x09BA [0x01] GOTO 0x0A39
 12: 0x09BD [0x02] IF !(LocalPlayer->Race == 5*) GOTO 0x09DC
 13: 0x09C5 [0xB6] ENTITY_APPEARANCE_HANDLER(case=Full entity look, race=5*, hair=Work_Zone[3], head=Work_Zone[8], body=Work_Zone[4], hands=Work_Zone[5], legs=Work_Zone[6], feet=Work_Zone[7], main=0*, sub=0*)
 14: 0x09D9 [0x01] GOTO 0x0A39
 15: 0x09DC [0x02] IF !(LocalPlayer->Race == 6*) GOTO 0x09FB
 16: 0x09E4 [0xB6] ENTITY_APPEARANCE_HANDLER(case=Full entity look, race=6*, hair=Work_Zone[3], head=Work_Zone[8], body=Work_Zone[4], hands=Work_Zone[5], legs=Work_Zone[6], feet=Work_Zone[7], main=0*, sub=0*)
 17: 0x09F8 [0x01] GOTO 0x0A39
 18: 0x09FB [0x02] IF !(LocalPlayer->Race == 7*) GOTO 0x0A1A
 19: 0x0A03 [0xB6] ENTITY_APPEARANCE_HANDLER(case=Full entity look, race=7*, hair=Work_Zone[3], head=Work_Zone[8], body=Work_Zone[4], hands=Work_Zone[5], legs=Work_Zone[6], feet=Work_Zone[7], main=0*, sub=0*)
 20: 0x0A17 [0x01] GOTO 0x0A39
 21: 0x0A1A [0x02] IF !(LocalPlayer->Race == 8*) GOTO 0x0A39
 22: 0x0A22 [0xB6] ENTITY_APPEARANCE_HANDLER(case=Full entity look, race=8*, hair=Work_Zone[3], head=Work_Zone[8], body=Work_Zone[4], hands=Work_Zone[5], legs=Work_Zone[6], feet=Work_Zone[7], main=0*, sub=0*)
 23: 0x0A36 [0x01] GOTO 0x0A39

SUBROUTINE_0A39:
 24: 0x0A39 [0x00] END_REQSTACK()
```

### Event 65535.42

#### Metadata

| Field        | Value     |
|--------------|-----------|
| Entrypoint   | 0x0A3A    |
| Data Size    | 249 bytes |
| Instructions | 25        |

```
      00 01 02 03 04 05 06 07  08 09 0A 0B 0C 0D 0E 0F
      -- -- -- -- -- -- -- --  -- -- -- -- -- -- -- --
0A30:                                02 87 7F 00 80 80            ......
0A40: 59 0A B6 0B 00 80 03 10  08 10 04 10 05 10 06 10  Y...............
0A50: 07 10 09 10 00 17 01 32  0B 02 87 7F 04 80 80 78  .......2.......x
0A60: 0A B6 0B 04 80 03 10 08  10 04 10 05 10 06 10 07  ................
0A70: 10 09 10 00 17 01 32 0B  02 87 7F 22 80 80 97 0A  ......2...."....
0A80: B6 0B 22 80 03 10 08 10  04 10 05 10 06 10 07 10  ..".............
0A90: 09 10 00 17 01 32 0B 02  87 7F 23 80 80 B6 0A B6  .....2....#.....
0AA0: 0B 23 80 03 10 08 10 04  10 05 10 06 10 07 10 09  .#..............
0AB0: 10 00 17 01 32 0B 02 87  7F 03 80 80 D5 0A B6 0B  ....2...........
0AC0: 03 80 03 10 08 10 04 10  05 10 06 10 07 10 09 10  ................
0AD0: 00 17 01 32 0B 02 87 7F  24 80 80 F4 0A B6 0B 24  ...2....$......$
0AE0: 80 03 10 08 10 04 10 05  10 06 10 07 10 09 10 00  ................
0AF0: 17 01 32 0B 02 87 7F 0B  80 80 13 0B B6 0B 0B 80  ..2.............
0B00: 03 10 08 10 04 10 05 10  06 10 07 10 09 10 00 17  ................
0B10: 01 32 0B 02 87 7F 0A 80  80 32 0B B6 0B 0A 80 03  .2.......2......
0B20: 10 08 10 04 10 05 10 06  10 07 10 09 10 00 17 01  ................
0B30: 32 0B 00                                          2..             
```

#### Opcodes

```
  0: 0x0A3A [0x02] IF !(LocalPlayer->Race == 1*) GOTO 0x0A59
  1: 0x0A42 [0xB6] ENTITY_APPEARANCE_HANDLER(case=Full entity look, race=1*, hair=Work_Zone[3], head=Work_Zone[8], body=Work_Zone[4], hands=Work_Zone[5], legs=Work_Zone[6], feet=Work_Zone[7], main=Work_Zone[9], sub=Work_Zone_1700[0])
  2: 0x0A56 [0x01] GOTO 0x0B32
  3: 0x0A59 [0x02] IF !(LocalPlayer->Race == 2*) GOTO 0x0A78
  4: 0x0A61 [0xB6] ENTITY_APPEARANCE_HANDLER(case=Full entity look, race=2*, hair=Work_Zone[3], head=Work_Zone[8], body=Work_Zone[4], hands=Work_Zone[5], legs=Work_Zone[6], feet=Work_Zone[7], main=Work_Zone[9], sub=Work_Zone_1700[0])
  5: 0x0A75 [0x01] GOTO 0x0B32
  6: 0x0A78 [0x02] IF !(LocalPlayer->Race == 3*) GOTO 0x0A97
  7: 0x0A80 [0xB6] ENTITY_APPEARANCE_HANDLER(case=Full entity look, race=3*, hair=Work_Zone[3], head=Work_Zone[8], body=Work_Zone[4], hands=Work_Zone[5], legs=Work_Zone[6], feet=Work_Zone[7], main=Work_Zone[9], sub=Work_Zone_1700[0])
  8: 0x0A94 [0x01] GOTO 0x0B32
  9: 0x0A97 [0x02] IF !(LocalPlayer->Race == 4*) GOTO 0x0AB6
 10: 0x0A9F [0xB6] ENTITY_APPEARANCE_HANDLER(case=Full entity look, race=4*, hair=Work_Zone[3], head=Work_Zone[8], body=Work_Zone[4], hands=Work_Zone[5], legs=Work_Zone[6], feet=Work_Zone[7], main=Work_Zone[9], sub=Work_Zone_1700[0])
 11: 0x0AB3 [0x01] GOTO 0x0B32
 12: 0x0AB6 [0x02] IF !(LocalPlayer->Race == 5*) GOTO 0x0AD5
 13: 0x0ABE [0xB6] ENTITY_APPEARANCE_HANDLER(case=Full entity look, race=5*, hair=Work_Zone[3], head=Work_Zone[8], body=Work_Zone[4], hands=Work_Zone[5], legs=Work_Zone[6], feet=Work_Zone[7], main=Work_Zone[9], sub=Work_Zone_1700[0])
 14: 0x0AD2 [0x01] GOTO 0x0B32
 15: 0x0AD5 [0x02] IF !(LocalPlayer->Race == 6*) GOTO 0x0AF4
 16: 0x0ADD [0xB6] ENTITY_APPEARANCE_HANDLER(case=Full entity look, race=6*, hair=Work_Zone[3], head=Work_Zone[8], body=Work_Zone[4], hands=Work_Zone[5], legs=Work_Zone[6], feet=Work_Zone[7], main=Work_Zone[9], sub=Work_Zone_1700[0])
 17: 0x0AF1 [0x01] GOTO 0x0B32
 18: 0x0AF4 [0x02] IF !(LocalPlayer->Race == 7*) GOTO 0x0B13
 19: 0x0AFC [0xB6] ENTITY_APPEARANCE_HANDLER(case=Full entity look, race=7*, hair=Work_Zone[3], head=Work_Zone[8], body=Work_Zone[4], hands=Work_Zone[5], legs=Work_Zone[6], feet=Work_Zone[7], main=Work_Zone[9], sub=Work_Zone_1700[0])
 20: 0x0B10 [0x01] GOTO 0x0B32
 21: 0x0B13 [0x02] IF !(LocalPlayer->Race == 8*) GOTO 0x0B32
 22: 0x0B1B [0xB6] ENTITY_APPEARANCE_HANDLER(case=Full entity look, race=8*, hair=Work_Zone[3], head=Work_Zone[8], body=Work_Zone[4], hands=Work_Zone[5], legs=Work_Zone[6], feet=Work_Zone[7], main=Work_Zone[9], sub=Work_Zone_1700[0])
 23: 0x0B2F [0x01] GOTO 0x0B32

SUBROUTINE_0B32:
 24: 0x0B32 [0x00] END_REQSTACK()
```

### Event 65535.43

#### Metadata

| Field        | Value    |
|--------------|----------|
| Entrypoint   | 0x0B33   |
| Data Size    | 14 bytes |
| Instructions | 4        |

```
      00 01 02 03 04 05 06 07  08 09 0A 0B 0C 0D 0E 0F
      -- -- -- -- -- -- -- --  -- -- -- -- -- -- -- --
0B30:          32 1D 80 1F 00  42 80 43 80 20 80 1F 01     2....B.C. ...
0B40: 00                                                .               
```

#### Opcodes

```
  0: 0x0B33 [0x32] ExtData[1]->MainSpeed = 13* * 0.1
  1: 0x0B36 [0x1F] MOVE_ENTITY: EventEntity moves to X=0.043*, Z=17.772*, Y=3.999*
  2: 0x0B3E [0x1F] MOVE_ENTITY: Update entity position (mode=1)
  3: 0x0B40 [0x00] END_REQSTACK()
```

### Event 65535.44

#### Metadata

| Field        | Value    |
|--------------|----------|
| Entrypoint   | 0x0B41   |
| Data Size    | 24 bytes |
| Instructions | 4        |

```
      00 01 02 03 04 05 06 07  08 09 0A 0B 0C 0D 0E 0F
      -- -- -- -- -- -- -- --  -- -- -- -- -- -- -- --
0B40:    03 00 00 07 7F 1A B7  00 66 01 00 F8 FF FF 7F   ........f......
0B50: F8 FF FF 7F 6D 61 6C 32  00                       ....mal2.       
```

#### Opcodes

```
  0: 0x0B41 [0x03] ExtData[1]->WorkLocal[0] = Entity->Race
  1: 0x0B46 [0x1A] CALL_SUBROUTINE(address=0x00B7)
  2: 0x0B49 [0x66] LOAD_EXT_SCHEDULER_MAIN: Load scheduler "mal2" with entities [EventEntity, EventEntity], work=ExtData[1]->WorkLocal[1]
  3: 0x0B58 [0x00] END_REQSTACK()
```

### Event 65535.45

#### Metadata

| Field        | Value    |
|--------------|----------|
| Entrypoint   | 0x0B59   |
| Data Size    | 30 bytes |
| Instructions | 5        |

```
      00 01 02 03 04 05 06 07  08 09 0A 0B 0C 0D 0E 0F
      -- -- -- -- -- -- -- --  -- -- -- -- -- -- -- --
0B50:                             03 00 00 07 7F 1A B7           .......
0B60: 00 07 01 00 00 80 5F 04  01 00 F8 FF FF 7F F8 FF  ......_.........
0B70: FF 7F 6B 69 7A 30 00                              ..kiz0.         
```

#### Opcodes

```
  0: 0x0B59 [0x03] ExtData[1]->WorkLocal[0] = Entity->Race
  1: 0x0B5E [0x1A] CALL_SUBROUTINE(address=0x00B7)
  2: 0x0B61 [0x07] ExtData[1]->WorkLocal[1] += 1*
  3: 0x0B66 [0x5F] MULTI_HANDLER_COMPLEX(mode=0x04 - Load ext scheduler (OpCode 0x5B mode 1), ref=ExtData[1]->WorkLocal[1], entity1=EventEntity, entity2=EventEntity, string="kiz0")
  4: 0x0B76 [0x00] END_REQSTACK()
```

### Event 65535.46

#### Metadata

| Field        | Value    |
|--------------|----------|
| Entrypoint   | 0x0B77   |
| Data Size    | 30 bytes |
| Instructions | 5        |

```
      00 01 02 03 04 05 06 07  08 09 0A 0B 0C 0D 0E 0F
      -- -- -- -- -- -- -- --  -- -- -- -- -- -- -- --
0B70:                      03  00 00 07 7F 1A B7 00 07         .........
0B80: 01 00 00 80 5F 04 01 00  F8 FF FF 7F F8 FF FF 7F  ...._...........
0B90: 6B 69 7A 6D 00                                    kizm.           
```

#### Opcodes

```
  0: 0x0B77 [0x03] ExtData[1]->WorkLocal[0] = Entity->Race
  1: 0x0B7C [0x1A] CALL_SUBROUTINE(address=0x00B7)
  2: 0x0B7F [0x07] ExtData[1]->WorkLocal[1] += 1*
  3: 0x0B84 [0x5F] MULTI_HANDLER_COMPLEX(mode=0x04 - Load ext scheduler (OpCode 0x5B mode 1), ref=ExtData[1]->WorkLocal[1], entity1=EventEntity, entity2=EventEntity, string="kizm")
  4: 0x0B94 [0x00] END_REQSTACK()
```

### Event 65535.47

#### Metadata

| Field        | Value    |
|--------------|----------|
| Entrypoint   | 0x0B95   |
| Data Size    | 30 bytes |
| Instructions | 5        |

```
      00 01 02 03 04 05 06 07  08 09 0A 0B 0C 0D 0E 0F
      -- -- -- -- -- -- -- --  -- -- -- -- -- -- -- --
0B90:                03 00 00  07 7F 1A B7 00 07 01 00       ...........
0BA0: 00 80 5F 04 01 00 F8 FF  FF 7F F8 FF FF 7F 6B 69  .._...........ki
0BB0: 7A 31 00                                          z1.             
```

#### Opcodes

```
  0: 0x0B95 [0x03] ExtData[1]->WorkLocal[0] = Entity->Race
  1: 0x0B9A [0x1A] CALL_SUBROUTINE(address=0x00B7)
  2: 0x0B9D [0x07] ExtData[1]->WorkLocal[1] += 1*
  3: 0x0BA2 [0x5F] MULTI_HANDLER_COMPLEX(mode=0x04 - Load ext scheduler (OpCode 0x5B mode 1), ref=ExtData[1]->WorkLocal[1], entity1=EventEntity, entity2=EventEntity, string="kiz1")
  4: 0x0BB2 [0x00] END_REQSTACK()
```

### Event 65535.48

#### Metadata

| Field        | Value    |
|--------------|----------|
| Entrypoint   | 0x0BB3   |
| Data Size    | 30 bytes |
| Instructions | 5        |

```
      00 01 02 03 04 05 06 07  08 09 0A 0B 0C 0D 0E 0F
      -- -- -- -- -- -- -- --  -- -- -- -- -- -- -- --
0BB0:          03 00 00 07 7F  1A B7 00 07 01 00 00 80     .............
0BC0: 5F 04 01 00 F8 FF FF 7F  F8 FF FF 7F 6B 69 7A 6C  _...........kizl
0BD0: 00                                                .               
```

#### Opcodes

```
  0: 0x0BB3 [0x03] ExtData[1]->WorkLocal[0] = Entity->Race
  1: 0x0BB8 [0x1A] CALL_SUBROUTINE(address=0x00B7)
  2: 0x0BBB [0x07] ExtData[1]->WorkLocal[1] += 1*
  3: 0x0BC0 [0x5F] MULTI_HANDLER_COMPLEX(mode=0x04 - Load ext scheduler (OpCode 0x5B mode 1), ref=ExtData[1]->WorkLocal[1], entity1=EventEntity, entity2=EventEntity, string="kizl")
  4: 0x0BD0 [0x00] END_REQSTACK()
```

### Event 65535.49

#### Metadata

| Field        | Value    |
|--------------|----------|
| Entrypoint   | 0x0BD1   |
| Data Size    | 30 bytes |
| Instructions | 5        |

```
      00 01 02 03 04 05 06 07  08 09 0A 0B 0C 0D 0E 0F
      -- -- -- -- -- -- -- --  -- -- -- -- -- -- -- --
0BD0:    03 00 00 07 7F 1A B7  00 07 01 00 00 80 5F 04   ............._.
0BE0: 01 00 F8 FF FF 7F F8 FF  FF 7F 6B 69 7A 32 00     ..........kiz2. 
```

#### Opcodes

```
  0: 0x0BD1 [0x03] ExtData[1]->WorkLocal[0] = Entity->Race
  1: 0x0BD6 [0x1A] CALL_SUBROUTINE(address=0x00B7)
  2: 0x0BD9 [0x07] ExtData[1]->WorkLocal[1] += 1*
  3: 0x0BDE [0x5F] MULTI_HANDLER_COMPLEX(mode=0x04 - Load ext scheduler (OpCode 0x5B mode 1), ref=ExtData[1]->WorkLocal[1], entity1=EventEntity, entity2=EventEntity, string="kiz2")
  4: 0x0BEE [0x00] END_REQSTACK()
```

### Event 65535.50

#### Metadata

| Field        | Value    |
|--------------|----------|
| Entrypoint   | 0x0BEF   |
| Data Size    | 30 bytes |
| Instructions | 5        |

```
      00 01 02 03 04 05 06 07  08 09 0A 0B 0C 0D 0E 0F
      -- -- -- -- -- -- -- --  -- -- -- -- -- -- -- --
0BE0:                                               03                 .
0BF0: 00 00 07 7F 1A B7 00 07  01 00 23 80 5F 04 01 00  ..........#._...
0C00: F8 FF FF 7F F8 FF FF 7F  6D 61 67 30 00           ........mag0.   
```

#### Opcodes

```
  0: 0x0BEF [0x03] ExtData[1]->WorkLocal[0] = Entity->Race
  1: 0x0BF4 [0x1A] CALL_SUBROUTINE(address=0x00B7)
  2: 0x0BF7 [0x07] ExtData[1]->WorkLocal[1] += 4*
  3: 0x0BFC [0x5F] MULTI_HANDLER_COMPLEX(mode=0x04 - Load ext scheduler (OpCode 0x5B mode 1), ref=ExtData[1]->WorkLocal[1], entity1=EventEntity, entity2=EventEntity, string="mag0")
  4: 0x0C0C [0x00] END_REQSTACK()
```

### Event 65535.51

#### Metadata

| Field        | Value    |
|--------------|----------|
| Entrypoint   | 0x0C0D   |
| Data Size    | 30 bytes |
| Instructions | 5        |

```
      00 01 02 03 04 05 06 07  08 09 0A 0B 0C 0D 0E 0F
      -- -- -- -- -- -- -- --  -- -- -- -- -- -- -- --
0C00:                                         03 00 00               ...
0C10: 07 7F 1A B7 00 07 01 00  22 80 5F 04 01 00 F8 FF  ........"._.....
0C20: FF 7F F8 FF FF 7F 77 6E  64 30 00                 ......wnd0.     
```

#### Opcodes

```
  0: 0x0C0D [0x03] ExtData[1]->WorkLocal[0] = Entity->Race
  1: 0x0C12 [0x1A] CALL_SUBROUTINE(address=0x00B7)
  2: 0x0C15 [0x07] ExtData[1]->WorkLocal[1] += 3*
  3: 0x0C1A [0x5F] MULTI_HANDLER_COMPLEX(mode=0x04 - Load ext scheduler (OpCode 0x5B mode 1), ref=ExtData[1]->WorkLocal[1], entity1=EventEntity, entity2=EventEntity, string="wnd0")
  4: 0x0C2A [0x00] END_REQSTACK()
```

### Event 65535.52

#### Metadata

| Field        | Value    |
|--------------|----------|
| Entrypoint   | 0x0C2B   |
| Data Size    | 24 bytes |
| Instructions | 4        |

```
      00 01 02 03 04 05 06 07  08 09 0A 0B 0C 0D 0E 0F
      -- -- -- -- -- -- -- --  -- -- -- -- -- -- -- --
0C20:                                   03 00 00 07 7F             .....
0C30: 1A B7 00 66 01 00 F8 FF  FF 7F F8 FF FF 7F 6D 61  ...f..........ma
0C40: 62 30 00                                          b0.             
```

#### Opcodes

```
  0: 0x0C2B [0x03] ExtData[1]->WorkLocal[0] = Entity->Race
  1: 0x0C30 [0x1A] CALL_SUBROUTINE(address=0x00B7)
  2: 0x0C33 [0x66] LOAD_EXT_SCHEDULER_MAIN: Load scheduler "mab0" with entities [EventEntity, EventEntity], work=ExtData[1]->WorkLocal[1]
  3: 0x0C42 [0x00] END_REQSTACK()
```

### Event 65535.53

#### Metadata

| Field        | Value    |
|--------------|----------|
| Entrypoint   | 0x0C43   |
| Data Size    | 24 bytes |
| Instructions | 4        |

```
      00 01 02 03 04 05 06 07  08 09 0A 0B 0C 0D 0E 0F
      -- -- -- -- -- -- -- --  -- -- -- -- -- -- -- --
0C40:          03 00 00 07 7F  1A B7 00 66 01 00 F8 FF     ........f....
0C50: FF 7F F8 FF FF 7F 6D 61  62 31 00                 ......mab1.     
```

#### Opcodes

```
  0: 0x0C43 [0x03] ExtData[1]->WorkLocal[0] = Entity->Race
  1: 0x0C48 [0x1A] CALL_SUBROUTINE(address=0x00B7)
  2: 0x0C4B [0x66] LOAD_EXT_SCHEDULER_MAIN: Load scheduler "mab1" with entities [EventEntity, EventEntity], work=ExtData[1]->WorkLocal[1]
  3: 0x0C5A [0x00] END_REQSTACK()
```
