# Event 76

## Metadata

| Field           | Value    |
|-----------------|----------|
| Event Index     | 31/124   |
| Offset          | 0x01BF   |
| Data Size       | 43 bytes |
| Calculated Size | 43 bytes |
| Instructions    | 12       |

```
      00 01 02 03 04 05 06 07  08 09 0A 0B 0C 0D 0E 0F
      -- -- -- -- -- -- -- --  -- -- -- -- -- -- -- --
01B0:                                               1E                 .
01C0: F0 FF FF 7F 6F 70 29 08  72 10 0F 01 01 1D 06 80  ....op).r.......
01D0: 23 29 08 72 10 0F 01 02  29 08 72 10 0F 01 03 29  #).r....).r....)
01E0: 08 72 10 0F 01 04 20 00  21 00                    .r.... .!.      
```

## Opcodes

```
  0: 0x01BF [0x1E] EventEntity looks at LocalPlayer and starts talking
  1: 0x01C4 [0x6F] WAIT_FRAME_DELAY: Yield until WaitTime reaches zero
  2: 0x01C5 [0x70] WAIT_ENTITY_RENDER_FLAG: Wait while EventEntity->Render.Flags3 bit 2 is set (cancel turn if not)
  3: 0x01C6 [0x29] REQ_SET_WAIT(priority=0x08, entity_id=Nanaa Mihgo (ID: 17764466/0x010F1072), tag_num=0x01)
  4: 0x01CD [0x1D] PRINT_EVENT_MESSAGE(message_id=7593*)
    → "Can't you see I'm busy now? Give a girl a little brrreathing room, huh?\u007F1\u0000\u0007"
  5: 0x01D0 [0x23] WAIT_FOR_DIALOG_INTERACTION
  6: 0x01D1 [0x29] REQ_SET_WAIT(priority=0x08, entity_id=Nanaa Mihgo (ID: 17764466/0x010F1072), tag_num=0x02)
  7: 0x01D8 [0x29] REQ_SET_WAIT(priority=0x08, entity_id=Nanaa Mihgo (ID: 17764466/0x010F1072), tag_num=0x03)
  8: 0x01DF [0x29] REQ_SET_WAIT(priority=0x08, entity_id=Nanaa Mihgo (ID: 17764466/0x010F1072), tag_num=0x04)
  9: 0x01E6 [0x20] SET_CLI_EVENT_UC_FLAG: Unlock player control
 10: 0x01E8 [0x21] END_EVENT
 11: 0x01E9 [0x00] END_REQSTACK()
```
