# Event 82

## Metadata

| Field           | Value    |
|-----------------|----------|
| Event Index     | 35/124   |
| Offset          | 0x0250   |
| Data Size       | 43 bytes |
| Calculated Size | 43 bytes |
| Instructions    | 12       |

```
      00 01 02 03 04 05 06 07  08 09 0A 0B 0C 0D 0E 0F
      -- -- -- -- -- -- -- --  -- -- -- -- -- -- -- --
0250: 1E F0 FF FF 7F 6F 70 29  08 72 10 0F 01 01 1D 0B  .....op).r......
0260: 80 23 29 08 72 10 0F 01  02 29 08 72 10 0F 01 03  .#).r....).r....
0270: 29 08 72 10 0F 01 04 20  00 21 00                 ).r.... .!.     
```

## Opcodes

```
  0: 0x0250 [0x1E] EventEntity looks at LocalPlayer and starts talking
  1: 0x0255 [0x6F] WAIT_FRAME_DELAY: Yield until WaitTime reaches zero
  2: 0x0256 [0x70] WAIT_ENTITY_RENDER_FLAG: Wait while EventEntity->Render.Flags3 bit 2 is set (cancel turn if not)
  3: 0x0257 [0x29] REQ_SET_WAIT(priority=0x08, entity_id=Nanaa Mihgo (ID: 17764466/0x010F1072), tag_num=0x01)
  4: 0x025E [0x1D] PRINT_EVENT_MESSAGE(message_id=7604*)
    → "Well, if you want to be all chummy with me, you had better bring me a token offerrring firrrst. I'll be waiting... Hah!\u007F1\u0000\u0007"
  5: 0x0261 [0x23] WAIT_FOR_DIALOG_INTERACTION
  6: 0x0262 [0x29] REQ_SET_WAIT(priority=0x08, entity_id=Nanaa Mihgo (ID: 17764466/0x010F1072), tag_num=0x02)
  7: 0x0269 [0x29] REQ_SET_WAIT(priority=0x08, entity_id=Nanaa Mihgo (ID: 17764466/0x010F1072), tag_num=0x03)
  8: 0x0270 [0x29] REQ_SET_WAIT(priority=0x08, entity_id=Nanaa Mihgo (ID: 17764466/0x010F1072), tag_num=0x04)
  9: 0x0277 [0x20] SET_CLI_EVENT_UC_FLAG: Unlock player control
 10: 0x0279 [0x21] END_EVENT
 11: 0x027A [0x00] END_REQSTACK()
```
