# Event 173

## Metadata

| Field           | Value    |
|-----------------|----------|
| Event Index     | 11/25    |
| Offset          | 0x0046   |
| Data Size       | 55 bytes |
| Calculated Size | 55 bytes |
| Instructions    | 11       |

```
      00 01 02 03 04 05 06 07  08 09 0A 0B 0C 0D 0E 0F
      -- -- -- -- -- -- -- --  -- -- -- -- -- -- -- --
0040:                   1E F0  FF FF 7F 6F 70 66 03 80        .....opf..
0050: E7 01 05 01 E7 01 05 01  74 6C 6B 30 2B F8 FF FF  ........tlk0+...
0060: 7F 04 80 23 2B F8 FF FF  7F 05 80 23 66 03 80 E7  ...#+......#f...
0070: 01 05 01 E7 01 05 01 74  6C 6B 31 21 00           .......tlk1!.   
```

## Opcodes

```
  0: 0x0046 [0x1E] EventEntity looks at LocalPlayer and starts talking
  1: 0x004B [0x6F] WAIT_FRAME_DELAY: Yield until WaitTime reaches zero
  2: 0x004C [0x70] WAIT_ENTITY_RENDER_FLAG: Wait while EventEntity->Render.Flags3 bit 2 is set (cancel turn if not)
  3: 0x004D [0x66] LOAD_EXT_SCHEDULER_MAIN: Load scheduler "tlk0" with entities [Mainchelite (ID: 17105383/0x010501E7), Mainchelite (ID: 17105383/0x010501E7)], work=29*
  4: 0x005C [0x2B] EventEntity [14490*]:
    → "I'm afraid the name Lilisette is not familiar to me.\u007F1\u0000\u0007"
  5: 0x0063 [0x23] WAIT_FOR_DIALOG_INTERACTION
  6: 0x0064 [0x2B] EventEntity [14489*]:
    → "I should think I'd remember had a child come calling, wishing to play at war.\u007F1\u0000\u0007"
  7: 0x006B [0x23] WAIT_FOR_DIALOG_INTERACTION
  8: 0x006C [0x66] LOAD_EXT_SCHEDULER_MAIN: Load scheduler "tlk1" with entities [Mainchelite (ID: 17105383/0x010501E7), Mainchelite (ID: 17105383/0x010501E7)], work=29*
  9: 0x007B [0x21] END_EVENT
 10: 0x007C [0x00] END_REQSTACK()
```
