# Event 65535

## Metadata

| Field           | Value    |
|-----------------|----------|
| Event Index     | 9/13     |
| Offset          | 0x1D7B   |
| Data Size       | 39 bytes |
| Calculated Size | 39 bytes |
| Instructions    | 11       |

```
      00 01 02 03 04 05 06 07  08 09 0A 0B 0C 0D 0E 0F
      -- -- -- -- -- -- -- --  -- -- -- -- -- -- -- --
1D70:                                   1E 66 70 0E 01             .fp..
1D80: 6F 70 66 2B 80 F8 FF FF  7F F8 FF FF 7F 74 6C 6B  opf+.........tlk
1D90: 30 1D EC 80 23 1C 2B 80  1D ED 80 23 5E 69 64 6C  0...#.+....#^idl
1DA0: 30 00                                             0.              
```

## Opcodes

```
  0: 0x1D7B [0x1E] EventEntity looks at Anilla (ID: 17723494/0x010E7066) and starts talking
  1: 0x1D80 [0x6F] WAIT_FRAME_DELAY: Yield until WaitTime reaches zero
  2: 0x1D81 [0x70] WAIT_ENTITY_RENDER_FLAG: Wait while EventEntity->Render.Flags3 bit 2 is set (cancel turn if not)
  3: 0x1D82 [0x66] LOAD_EXT_SCHEDULER_MAIN: Load scheduler "tlk0" with entities [EventEntity, EventEntity], work=30*
  4: 0x1D91 [0x1D] PRINT_EVENT_MESSAGE(message_id=11521*)
    → "What, have you not heard? They are recruiting adventurers in droves!\u007F1\u0000\u0007"
  5: 0x1D94 [0x23] WAIT_FOR_DIALOG_INTERACTION
  6: 0x1D95 [0x1C] WAIT(30* ticks)
  7: 0x1D98 [0x1D] PRINT_EVENT_MESSAGE(message_id=11522*)
    → "I hear they're taking any who will come--foreigners, even!\u007F1\u0000\u0007"
  8: 0x1D9B [0x23] WAIT_FOR_DIALOG_INTERACTION
  9: 0x1D9C [0x5E] EventEntity goes idle (kills current action) (animation: "idl0")
 10: 0x1DA1 [0x00] END_REQSTACK()
```
