# Event 5213

## Metadata

| Field           | Value    |
|-----------------|----------|
| Event Index     | 41/48    |
| Offset          | 0x87CA   |
| Data Size       | 45 bytes |
| Calculated Size | 45 bytes |
| Instructions    | 11       |

```
      00 01 02 03 04 05 06 07  08 09 0A 0B 0C 0D 0E 0F
      -- -- -- -- -- -- -- --  -- -- -- -- -- -- -- --
87C0:                                4A C3 10 10 01 F0            J.....
87D0: FF FF 7F 6F 76 C3 10 10  01 4A F0 FF FF 7F C3 10  ...ov....J......
87E0: 10 01 6F 76 F0 FF FF 7F  03 02 10 20 82 2B C3 10  ..ov....... .+..
87F0: 10 01 CA 82 23 21 00                              ....#!.         
```

## Opcodes

```
  0: 0x87CA [0x4A] Roskin (ID: 17830083/0x011010C3) looks at LocalPlayer
  1: 0x87D3 [0x6F] WAIT_FRAME_DELAY: Yield until WaitTime reaches zero
  2: 0x87D4 [0x76] CHECK_ENTITY_RENDER_FLAGS: Wait until Roskin (ID: 17830083/0x011010C3) Render.Flags0 and Render.Flags3 conditions are met
  3: 0x87D9 [0x4A] LocalPlayer looks at Roskin (ID: 17830083/0x011010C3)
  4: 0x87E2 [0x6F] WAIT_FRAME_DELAY: Yield until WaitTime reaches zero
  5: 0x87E3 [0x76] CHECK_ENTITY_RENDER_FLAGS: Wait until LocalPlayer Render.Flags0 and Render.Flags3 conditions are met
  6: 0x87E8 [0x03] Work_Zone[2] = 2614*
  7: 0x87ED [0x2B] Roskin (ID: 17830083/0x011010C3) [11518*]:
    → "Someone at the Inventors' Coalition could spruce up the \u0001\u00053\u0002\u0000\u0000\u0000 for you. In the meantime, I'll be here following some leads.\u007F1\u0000\u0007"
  8: 0x87F4 [0x23] WAIT_FOR_DIALOG_INTERACTION
  9: 0x87F5 [0x21] END_EVENT
 10: 0x87F6 [0x00] END_REQSTACK()
```
