# Event 75

## Metadata

| Field           | Value    |
|-----------------|----------|
| Event Index     | 23/48    |
| Offset          | 0x24A4   |
| Data Size       | 39 bytes |
| Calculated Size | 39 bytes |
| Instructions    | 9        |

```
      00 01 02 03 04 05 06 07  08 09 0A 0B 0C 0D 0E 0F
      -- -- -- -- -- -- -- --  -- -- -- -- -- -- -- --
24A0:             4A 74 10 10  01 F0 FF FF 7F 4A F0 FF      Jt.......J..
24B0: FF 7F 74 10 10 01 6F 76  74 10 10 01 03 02 10 BC  ..t...ovt.......
24C0: 80 2B 74 10 10 01 BD 80  23 21 00                 .+t.....#!.     
```

## Opcodes

```
  0: 0x24A4 [0x4A] Octavien (ID: 17830004/0x01101074) looks at LocalPlayer
  1: 0x24AD [0x4A] LocalPlayer looks at Octavien (ID: 17830004/0x01101074)
  2: 0x24B6 [0x6F] WAIT_FRAME_DELAY: Yield until WaitTime reaches zero
  3: 0x24B7 [0x76] CHECK_ENTITY_RENDER_FLAGS: Wait until Octavien (ID: 17830004/0x01101074) Render.Flags0 and Render.Flags3 conditions are met
  4: 0x24BC [0x03] Work_Zone[2] = 28207*
  5: 0x24C1 [0x2B] Octavien (ID: 17830004/0x01101074) [13355*]:
    → "That \u0001\u0005#\u0002\u0000\u0000\u0000 looks positively splendid on you, \u0008. May it serve you well in battle.\u007F1\u0000\u0007"
  6: 0x24C8 [0x23] WAIT_FOR_DIALOG_INTERACTION
  7: 0x24C9 [0x21] END_EVENT
  8: 0x24CA [0x00] END_REQSTACK()
```
