# Event 79

## Metadata

| Field           | Value    |
|-----------------|----------|
| Event Index     | 27/48    |
| Offset          | 0x2E7D   |
| Data Size       | 47 bytes |
| Calculated Size | 47 bytes |
| Instructions    | 11       |

```
      00 01 02 03 04 05 06 07  08 09 0A 0B 0C 0D 0E 0F
      -- -- -- -- -- -- -- --  -- -- -- -- -- -- -- --
2E70:                                         4A 74 10               Jt.
2E80: 10 01 F0 FF FF 7F 4A F0  FF FF 7F 74 10 10 01 6F  ......J....t...o
2E90: 76 74 10 10 01 03 03 10  D9 80 2B 74 10 10 01 EB  vt........+t....
2EA0: 80 23 2B 74 10 10 01 EC  80 23 21 00              .#+t.....#!.    
```

## Opcodes

```
  0: 0x2E7D [0x4A] Octavien (ID: 17830004/0x01101074) looks at LocalPlayer
  1: 0x2E86 [0x4A] LocalPlayer looks at Octavien (ID: 17830004/0x01101074)
  2: 0x2E8F [0x6F] WAIT_FRAME_DELAY: Yield until WaitTime reaches zero
  3: 0x2E90 [0x76] CHECK_ENTITY_RENDER_FLAGS: Wait until Octavien (ID: 17830004/0x01101074) Render.Flags0 and Render.Flags3 conditions are met
  4: 0x2E95 [0x03] Work_Zone[3] = 262*
  5: 0x2E9A [0x2B] Octavien (ID: 17830004/0x01101074) [13387*]:
    → "Would you please make for \u0001\u00058\u0002\u0001\u0000\u0000 and rid it of Insidio? Do this for the good of the city, for the colonization initiative...\u007F1\u0000\u0007"
  6: 0x2EA1 [0x23] WAIT_FOR_DIALOG_INTERACTION
  7: 0x2EA2 [0x2B] Octavien (ID: 17830004/0x01101074) [13388*]:
    → "And for me.\u0007I have lost scores of friends and fellow countrymen to that fish's lure and wish to see someone finally reel in that atrocity once and for all.\u007F1\u0000\u0007"
  8: 0x2EA9 [0x23] WAIT_FOR_DIALOG_INTERACTION
  9: 0x2EAA [0x21] END_EVENT
 10: 0x2EAB [0x00] END_REQSTACK()
```
