# Event 65535

## Metadata

| Field           | Value    |
|-----------------|----------|
| Event Index     | 6/14     |
| Offset          | 0x0008   |
| Data Size       | 52 bytes |
| Calculated Size | 52 bytes |
| Instructions    | 6        |

```
      00 01 02 03 04 05 06 07  08 09 0A 0B 0C 0D 0E 0F
      -- -- -- -- -- -- -- --  -- -- -- -- -- -- -- --
0000:                          5B 00 80 2D F2 04 01 2D          [..-...-
0010: F2 04 01 73 77 61 30 1C  01 80 5B 00 80 2E F2 04  ...swa0...[.....
0020: 01 2E F2 04 01 73 77 61  30 1C 02 80 5B 00 80 2C  .....swa0...[..,
0030: F2 04 01 2C F2 04 01 73  77 61 30 00              ...,...swa0.    
```

## Opcodes

```
  0: 0x0008 [0x5B] LOAD_EXT_SCHEDULER(work_offset=1021*, entity1=2 (ID: 17101357/0x0104F22D), entity2=2 (ID: 17101357/0x0104F22D), action="swa0")
  1: 0x0017 [0x1C] WAIT(20* ticks)
  2: 0x001A [0x5B] LOAD_EXT_SCHEDULER(work_offset=1021*, entity1=3 (ID: 17101358/0x0104F22E), entity2=3 (ID: 17101358/0x0104F22E), action="swa0")
  3: 0x0029 [0x1C] WAIT(15* ticks)
  4: 0x002C [0x5B] LOAD_EXT_SCHEDULER(work_offset=1021*, entity1=1 (ID: 17101356/0x0104F22C), entity2=1 (ID: 17101356/0x0104F22C), action="swa0")
  5: 0x003B [0x00] END_REQSTACK()
```
