# Event 65535

## Metadata

| Field           | Value    |
|-----------------|----------|
| Event Index     | 7/14     |
| Offset          | 0x003C   |
| Data Size       | 46 bytes |
| Calculated Size | 46 bytes |
| Instructions    | 4        |

```
      00 01 02 03 04 05 06 07  08 09 0A 0B 0C 0D 0E 0F
      -- -- -- -- -- -- -- --  -- -- -- -- -- -- -- --
0030:                                      5B 00 80 2D              [..-
0040: F2 04 01 2D F2 04 01 73  77 61 31 5B 00 80 2E F2  ...-...swa1[....
0050: 04 01 2E F2 04 01 73 77  61 31 5B 00 80 2C F2 04  ......swa1[..,..
0060: 01 2C F2 04 01 73 77 61  31 00                    .,...swa1.      
```

## Opcodes

```
  0: 0x003C [0x5B] LOAD_EXT_SCHEDULER(work_offset=1021*, entity1=2 (ID: 17101357/0x0104F22D), entity2=2 (ID: 17101357/0x0104F22D), action="swa1")
  1: 0x004B [0x5B] LOAD_EXT_SCHEDULER(work_offset=1021*, entity1=3 (ID: 17101358/0x0104F22E), entity2=3 (ID: 17101358/0x0104F22E), action="swa1")
  2: 0x005A [0x5B] LOAD_EXT_SCHEDULER(work_offset=1021*, entity1=1 (ID: 17101356/0x0104F22C), entity2=1 (ID: 17101356/0x0104F22C), action="swa1")
  3: 0x0069 [0x00] END_REQSTACK()
```
