# Event 320

## Metadata

| Field           | Value    |
|-----------------|----------|
| Event Index     | 11/12    |
| Offset          | 0x007B   |
| Data Size       | 33 bytes |
| Calculated Size | 33 bytes |
| Instructions    | 12       |

```
      00 01 02 03 04 05 06 07  08 09 0A 0B 0C 0D 0E 0F
      -- -- -- -- -- -- -- --  -- -- -- -- -- -- -- --
0070:                                   29 0B 53 F0 0E             ).S..
0080: 01 01 1D 03 80 23 1E F0  FF FF 7F 6F 70 1D 04 80  .....#.....op...
0090: 23 29 0B 53 F0 0E 01 08  20 00 21 00              #).S.... .!.    
```

## Opcodes

```
  0: 0x007B [0x29] REQ_SET_WAIT(priority=0x0B, entity_id=Polikal-Ramikal (ID: 17756243/0x010EF053), tag_num=0x01)
  1: 0x0082 [0x1D] PRINT_EVENT_MESSAGE(message_id=7935*)
    → "Hmm... Tsk-tsk... This is more serious-derious than I thought-dought...\u007F1\u0000\u0007"
  2: 0x0085 [0x23] WAIT_FOR_DIALOG_INTERACTION
  3: 0x0086 [0x1E] EventEntity looks at LocalPlayer and starts talking
  4: 0x008B [0x6F] WAIT_FRAME_DELAY: Yield until WaitTime reaches zero
  5: 0x008C [0x70] WAIT_ENTITY_RENDER_FLAG: Wait while EventEntity->Render.Flags3 bit 2 is set (cancel turn if not)
  6: 0x008D [0x1D] PRINT_EVENT_MESSAGE(message_id=7936*)
    → "...Ah? ...Oh! ...Huh?\u0007If you're looking-dooking for the entrance to Heavens Tower, it's on the other side-dide of this poor old star tree that encases it.\u007F1\u0000\u0007"
  7: 0x0090 [0x23] WAIT_FOR_DIALOG_INTERACTION
  8: 0x0091 [0x29] REQ_SET_WAIT(priority=0x0B, entity_id=Polikal-Ramikal (ID: 17756243/0x010EF053), tag_num=0x08)
  9: 0x0098 [0x20] SET_CLI_EVENT_UC_FLAG: Unlock player control
 10: 0x009A [0x21] END_EVENT
 11: 0x009B [0x00] END_REQSTACK()
```
