# 17662589 - Cruor Prospector

## Common Data

| Field            | Value                         |
|------------------|-------------------------------|
| Zone             | Abyssea - Misareaux (ID: 216) |
| Block Size       | 9176 bytes                    |
| Total Events     | 2                             |
| References Count | 142                           |

## List of Events

| Event ID              | Entrypoint   |   Size |   Instructions |
|-----------------------|--------------|--------|----------------|
| [65535](#event-65535) | 0x0000       |      1 |              1 |
| [2002](#event-2002)   | 0x0001       |   8583 |           1662 |

## DAT References (imed_data)

|   Index | Hex Value   |   Dec Value |
|---------|-------------|-------------|
|       0 | 0x0000      |           0 |
|       1 | 0x1CD4      |        7380 |
|       2 | 0x0006      |           6 |
|       3 | 0x0001      |           1 |
|       4 | 0x1CD5      |        7381 |
|       5 | 0x40000000  |  1073741824 |
|       6 | 0x1CD6      |        7382 |
|       7 | 0x1CD7      |        7383 |
|       8 | 0x1CD8      |        7384 |
|       9 | 0x1CD9      |        7385 |
|      10 | 0x1CDA      |        7386 |
|      11 | 0x1CDB      |        7387 |
|      12 | 0x1CDC      |        7388 |
|      13 | 0x1CDD      |        7389 |
|      14 | 0x0002      |           2 |
|      15 | 0x2EEE      |       12014 |
|      16 | 0x1388      |        5000 |
|      17 | 0x2EEF      |       12015 |
|      18 | 0x2EF0      |       12016 |
|      19 | 0x2EF1      |       12017 |
|      20 | 0x2EF2      |       12018 |
|      21 | 0x09BA      |        2490 |
|      22 | 0x01F4      |         500 |
|      23 | 0x2785      |       10117 |
|      24 | 0x190A      |        6410 |
|      25 | 0x1E8480    |     2000000 |
|      26 | 0x000B      |          11 |
|      27 | 0x000A      |          10 |
|      28 | 0x000C      |          12 |
|      29 | 0x0014      |          20 |
|      30 | 0x1CDE      |        7390 |
|      31 | 0x0003      |           3 |
|      32 | 0x0004      |           4 |
|      33 | 0x0005      |           5 |
|      34 | 0x0007      |           7 |
|      35 | 0x0008      |           8 |
|      36 | 0x0009      |           9 |
|      37 | 0x000D      |          13 |
|      38 | 0x000E      |          14 |
|      39 | 0x000F      |          15 |
|      40 | 0x0010      |          16 |
|      41 | 0x0011      |          17 |
|      42 | 0x0012      |          18 |
|      43 | 0x0013      |          19 |
|      44 | 0x0015      |          21 |
|      45 | 0x0016      |          22 |
|      46 | 0x0017      |          23 |
|      47 | 0x0018      |          24 |
|      48 | 0x0019      |          25 |
|      49 | 0x001A      |          26 |
|      50 | 0x001B      |          27 |
|      51 | 0x001C      |          28 |
|      52 | 0x001D      |          29 |
|      53 | 0x001E      |          30 |
|      54 | 0x1CE3      |        7395 |
|      55 | 0x09C4      |        2500 |
|      56 | 0x3A98      |       15000 |
|      57 | 0x0032      |          50 |
|      58 | 0x61A8      |       25000 |
|      59 | 0x1D03      |        7427 |
|      60 | 0x1D04      |        7428 |
|      61 | 0x001F      |          31 |
|      62 | 0x1CF0      |        7408 |
|      63 | 0x1CE5      |        7397 |
|      64 | 0x16C0      |        5824 |
|      65 | 0x0050      |          80 |
|      66 | 0x16C3      |        5827 |
|      67 | 0x106E      |        4206 |
|      68 | 0x1539      |        5433 |
|      69 | 0x0078      |         120 |
|      70 | 0x16CD      |        5837 |
|      71 | 0x16CF      |        5839 |
|      72 | 0x0096      |         150 |
|      73 | 0x16D1      |        5841 |
|      74 | 0x16D3      |        5843 |
|      75 | 0x16C1      |        5825 |
|      76 | 0x00C8      |         200 |
|      77 | 0x16C4      |        5828 |
|      78 | 0x16C6      |        5830 |
|      79 | 0x012C      |         300 |
|      80 | 0x14CA      |        5322 |
|      81 | 0x109F      |        4255 |
|      82 | 0x16CB      |        5835 |
|      83 | 0x153F      |        5439 |
|      84 | 0x16CE      |        5838 |
|      85 | 0x16DD      |        5853 |
|      86 | 0x1CDF      |        7391 |
|      87 | 0x30D40     |      200000 |
|      88 | 0x1CE4      |        7396 |
|      89 | 0x1CE6      |        7398 |
|      90 | 0x0761      |        1889 |
|      91 | 0x1194      |        4500 |
|      92 | 0x056D      |        1389 |
|      93 | 0x1F40      |        8000 |
|      94 | 0x0579      |        1401 |
|      95 | 0x05A0      |        1440 |
|      96 | 0x186A0     |      100000 |
|      97 | 0x061C      |        1564 |
|      98 | 0x1CE0      |        7392 |
|      99 | 0x0563      |        1379 |
|     100 | 0x1CF4      |        7412 |
|     101 | 0x04F7      |        1271 |
|     102 | 0x1CF9      |        7417 |
|     103 | 0x056F      |        1391 |
|     104 | 0x1CF5      |        7413 |
|     105 | 0x0572      |        1394 |
|     106 | 0x1CF6      |        7414 |
|     107 | 0x0575      |        1397 |
|     108 | 0x1CF7      |        7415 |
|     109 | 0x1CFA      |        7418 |
|     110 | 0x0581      |        1409 |
|     111 | 0x1CF8      |        7416 |
|     112 | 0x1CFB      |        7419 |
|     113 | 0x075D      |        1885 |
|     114 | 0x1CFC      |        7420 |
|     115 | 0x075E      |        1886 |
|     116 | 0x1CFD      |        7421 |
|     117 | 0x075F      |        1887 |
|     118 | 0x1CFE      |        7422 |
|     119 | 0x0760      |        1888 |
|     120 | 0x1CFF      |        7423 |
|     121 | 0x1D00      |        7424 |
|     122 | 0x0762      |        1890 |
|     123 | 0x1D01      |        7425 |
|     124 | 0x1D02      |        7426 |
|     125 | 0x1CE7      |        7399 |
|     126 | 0x0064      |         100 |
|     127 | 0x01D6      |         470 |
|     128 | 0x1CE1      |        7393 |
|     129 | 0x1CE8      |        7400 |
|     130 | 0x061D      |        1565 |
|     131 | 0x061E      |        1566 |
|     132 | 0x061F      |        1567 |
|     133 | 0x0620      |        1568 |
|     134 | 0x0671      |        1649 |
|     135 | 0x0672      |        1650 |
|     136 | 0x0673      |        1651 |
|     137 | 0x0674      |        1652 |
|     138 | 0x0675      |        1653 |
|     139 | 0x0676      |        1654 |
|     140 | 0x1CE2      |        7394 |
|     141 | 0x1CE9      |        7401 |

## String References

- **7380**: Greetings, traveler. I am a resistance officer whose charge is the procurement of cruor. If you would be willing to part with any cruor you possess, I will issue you with helpful items in return.
- **7381**: What will you do? (Cruor balance: $0) [Nothing./Learn about cruor./Exchange for items./Exchange for temporary items./Exchange for key items./Exchange for enhancement effects./Dispose of abyssite.]
- **7382**: Cruor is a naturally occurring mineral found as deposits on creatures native to Abyssea.
- **7383**: Known by some as "blood gold," these red granules are highly prized and see use as both energy source and construction material.
- **7384**: It would be no exaggeration to say that cruor is the lifeblood of the resistance effort. As a matter of fact, the bulk of items I have in stock are cruor-based.
- **7385**: Chief among them being "ancient abyssite," a highly concentrated, doubly valuable form of the stone boasting diverse benefits.
- **7386**: Ancient abyssite has been observed to improve the fortunes and vitality of their possessors, not unlike a good luck talisman.
- **7387**: The most popular varieties offer extended visitant status time, accelerated growth, and myriad enhancement effects. Some are even said to improve luck, but such benefits can be troublesome to measure.
- **7388**: I am limited in the types of ancient abyssite I can issue. The opportunity to acquire rarer varieties, however, will surely visit you during your time in Abyssea.
- **7389**: Besides the issuance of items, I am also authorized to imbue you with enhancement effects.
- **7390**: Select item. (Cruor: $0) [Nothing right now./$1: $2./$3: $4./$5: $6./$7: $8./$9: $10./$11: $12./$13: $14./$15: $16./$17: $18./$19: $20./Previous page./Next page.]
- **7391**: Select item. (Cruor: $0) [Nothing right now./$1: $2./$3: $4./$5: $6./$7: $8./$9: $10./$11: $12./$13: $14./$15: $16./$17: $18./$19: $20./Previous page./Next page.]
- **7392**: Select key item. (Cruor: $0) [Nothing right now./$6: $2./$6: $4./$6: $6./$6: $8./$6: $10./$6: $12./$6: $14./$6: $16./$6: $18./$6: $20./Previous page./Next page.]
- **7393**: Select enhancement. (Cruor: $0) [Nothing for now./Reraise: $1./Protect: $2./Shell: $3./Regen: $4./Refresh: $5./HP boost: $6./MP boost: $7./STR-DEX boost: $8./VIT-AGI boost: $9./INT-MND-CHR boost: $10./All enhancements: $11.]
- **7394**: Discard which one? [None for now./6./$6./$6./$6./$6./$6./$6./$6./$6./$6./$6.]
- **7395**: Trade for $0?
- **7396**: Trade for $0?
- **7397**: Trade for $0? [Yes./No.]
- **7398**: Trade for $0? [Yes./No.]
- **7399**: Trade for $6? [Yes./No.]
- **7400**: [/$3$3C$3Y/$3v$3$3e$3X/$3V$3F$3 [/$3$3W$3F$3l/$3$3t$3V$3$5/HP$3A$3b$3v/MP$3A$3b$3v/STRFDEX$3A$3b$3v/VITFAGI$3A$3b$3v/INTFMNDFCHR$3A$3b$3v/7WD]Lx%JFp$77iH/Trade for [/Reraise/Protect/Shell/Regen/Refresh/HP boost/MP boost/STR-DEX boost/VIT-AGI boost/INT-MND-CHR boost/all enhancements]?/ [Yes./No.]
- **7401**: Discard the $3? [Yes./No.]
- **7408**: You do not have enough cruor.
- **7412**: This ancient abyssite helps to stabilize your existential phase, allowing you to remain in Abyssea for longer durations.
- **7413**: This ancient abyssite facilitates energy release, making travel through Veridical Confluxes possible with fewer cruor.
- **7414**: This ancient abyssite mitigates mechanical wear, reducing the cool-off duration when using martellos.
- **7415**: This ancient abyssite resonates with treasure, increasing your likelihood of finding spoils after battle.
- **7416**: This ancient abyssite heightens your senses, allowing you to unlock treasure chests with greater ease.
- **7417**: This ancient abyssite resonates with the ground beneath you, allowing you to obtain more $5.
- **7418**: This ancient abyssite resonates with treasure, increasing your likelihood of encountering blue pyxides.
- **7419**: This ancient abyssite imbues your soul with great strength, allowing you to infuse an additional atma for each piece possessed.
- **7420**: This is a map of Abyssea - La Theine. Don't leave home without it!
- **7421**: This is a map of Abyssea - Konschtat. Don't leave home without it!
- **7422**: This is a map of Abyssea - Tahrongi. Don't leave home without it!
- **7423**: This is a map of Abyssea - Attohwa. Don't leave home without it!
- **7424**: This is a map of Abyssea - Misareaux. Don't leave home without it!
- **7425**: This is a map of Abyssea - Vunkerl. Don't leave home without it!
- **7426**: Certain monsters in Abyssea loath contact with people, concealing themselves from detection. Only with this abyssite will you be able to uncloak and confront them. Go into a crouch with it in your possession, and the way will be revealed to you.
- **7427**: Trade for how many? (Cruor balance: $0) [None for now./$1 ($2 cruor)./$3 ($4 cruor)./$5i$6 cruor)./$7i$8 cruor)./$9 ($10 cruor).]
- **7428**: Trade for $1 of the item? [Yes./No.]

## Events

### Event 65535

#### Metadata

| Field        | Value   |
|--------------|---------|
| Entrypoint   | 0x0000  |
| Data Size    | 1 bytes |
| Instructions | 1       |

```
      00 01 02 03 04 05 06 07  08 09 0A 0B 0C 0D 0E 0F
      -- -- -- -- -- -- -- --  -- -- -- -- -- -- -- --
0000: 00                                                .               
```

#### Opcodes

```
  0: 0x0000 [0x00] END_REQSTACK()
```

### Event 2002

#### Metadata

| Field        | Value      |
|--------------|------------|
| Entrypoint   | 0x0001     |
| Data Size    | 8583 bytes |
| Instructions | 1662       |

```
      00 01 02 03 04 05 06 07  08 09 0A 0B 0C 0D 0E 0F
      -- -- -- -- -- -- -- --  -- -- -- -- -- -- -- --
0000:    20 01 03 00 00 00 80  03 01 00 00 80 03 02 00    ..............
0010: 00 80 03 03 00 00 80 03  04 00 00 80 03 05 00 00  ................
0020: 80 03 07 00 00 80 03 09  00 00 80 03 0A 00 00 80  ................
0030: 03 0B 00 00 80 03 0C 00  00 80 03 0D 00 00 80 03  ................
0040: 0E 00 00 80 03 0F 00 00  80 03 00 00 02 10 03 01  ................
0050: 00 03 10 03 0D 00 04 10  03 0F 00 05 10 03 11 00  ................
0060: 06 10 1D 01 80 23 05 0A  00 02 0A 00 00 80 02 83  .....#..........
0070: 19 03 02 00 00 80 03 03  00 00 80 03 04 00 00 80  ................
0080: 03 07 00 00 80 03 02 10  00 00 02 01 00 00 80 00  ................
0090: 99 00 3C 08 00 02 80 03  80 24 04 80 00 80 08 00  ..<......$......
00A0: 25 02 00 10 00 80 00 B4  00 03 01 10 05 80 06 0A  %...............
00B0: 00 01 80 19 02 00 10 03  80 00 DF 00 1D 06 80 23  ...............#
00C0: 1D 07 80 23 1D 08 80 23  1D 09 80 23 1D 0A 80 23  ...#...#...#...#
00D0: 1D 0B 80 23 1D 0C 80 23  1D 0D 80 23 01 80 19 02  ...#...#...#....
00E0: 00 10 0E 80 00 DE 07 1A  86 19 05 0B 00 02 0B 00  ................
00F0: 00 80 02 DB 07 03 03 00  00 80 03 04 00 00 80 03  ................
0100: 07 00 00 80 03 09 00 00  80 03 02 10 00 00 02 02  ................
0110: 00 00 80 80 A3 01 03 03  10 0F 80 03 04 10 10 80  ................
0120: 03 05 10 11 80 03 06 10  10 80 03 07 10 12 80 03  ................
0130: 08 10 10 80 03 09 10 13  80 03 00 17 10 80 03 01  ................
0140: 17 14 80 03 02 17 10 80  03 03 17 15 80 03 04 17  ................
0150: 16 80 03 05 17 17 80 03  06 17 10 80 03 07 17 18  ................
0160: 80 03 08 17 19 80 03 09  17 00 80 03 0A 17 00 80  ................
0170: 03 0B 17 00 80 03 0C 17  00 80 02 11 00 00 80 00  ................
0180: 87 01 03 05 17 00 80 1A  92 1F 3C 09 00 1A 80 03  ..........<.....
0190: 80 02 05 00 1B 80 05 A0  01 3C 09 00 1C 80 03 80  .........<......
01A0: 01 9D 02 02 02 00 03 80  80 24 02 03 03 10 00 80  .........$......
01B0: 03 04 10 00 80 03 05 10  00 80 03 06 10 00 80 03  ................
01C0: 07 10 00 80 03 08 10 00  80 03 09 10 00 80 03 00  ................
01D0: 17 00 80 03 01 17 00 80  03 02 17 00 80 03 03 17  ................
01E0: 00 80 03 04 17 00 80 03  05 17 00 80 03 06 17 00  ................
01F0: 80 03 07 17 00 80 03 08  17 00 80 03 09 17 00 80  ................
0200: 03 0A 17 00 80 03 0B 17  00 80 03 0C 17 00 80 1A  ................
0210: 92 1F 02 05 00 1D 80 05  21 02 3C 09 00 1C 80 03  ........!.<.....
0220: 80 01 9D 02 02 02 00 0E  80 80 9D 02 03 03 10 00  ................
0230: 80 03 04 10 00 80 03 05  10 00 80 03 06 10 00 80  ................
0240: 03 07 10 00 80 03 08 10  00 80 03 09 10 00 80 03  ................
0250: 00 17 00 80 03 01 17 00  80 03 02 17 00 80 03 03  ................
0260: 17 00 80 03 04 17 00 80  03 05 17 00 80 03 06 17  ................
0270: 00 80 03 07 17 00 80 03  08 17 00 80 03 09 17 00  ................
0280: 80 03 0A 17 00 80 03 0B  17 00 80 03 0C 17 00 80  ................
0290: 1A 92 1F 3C 09 00 1C 80  03 80 01 9D 02 24 1E 80  ...<.........$..
02A0: 00 80 09 00 25 02 00 10  00 80 00 B3 02 06 0B 00  ....%...........
02B0: 01 1F 03 02 00 10 1A 80  00 E9 02 02 02 00 00 80  ................
02C0: 80 C6 02 01 E6 02 02 02  00 03 80 80 D6 02 03 02  ................
02D0: 00 00 80 01 E6 02 02 02  00 0E 80 80 E6 02 03 02  ................
02E0: 00 03 80 01 E6 02 01 1F  03 02 00 10 1C 80 00 1F  ................
02F0: 03 02 02 00 00 80 80 01  03 03 02 00 03 80 01 1C  ................
0300: 03 02 02 00 03 80 80 11  03 03 02 00 0E 80 01 1C  ................
0310: 03 02 02 00 0E 80 80 1C  03 01 1C 03 01 1F 03 02  ................
0320: 00 10 03 80 04 D8 07 02  00 10 1B 80 05 D8 07 02  ................
0330: 02 00 00 80 80 3E 04 02  00 10 03 80 80 51 03 03  .....>.......Q..
0340: 03 00 0F 80 03 04 00 10  80 03 07 00 03 80 01 3B  ...............;
0350: 04 02 00 10 0E 80 80 6B  03 03 03 00 11 80 03 04  .......k........
0360: 00 10 80 03 07 00 0E 80  01 3B 04 02 00 10 1F 80  .........;......
0370: 80 85 03 03 03 00 12 80  03 04 00 10 80 03 07 00  ................
0380: 1F 80 01 3B 04 02 00 10  20 80 80 9F 03 03 03 00  ...;.... .......
0390: 13 80 03 04 00 10 80 03  07 00 20 80 01 3B 04 02  .......... ..;..
03A0: 00 10 21 80 80 B9 03 03  03 00 14 80 03 04 00 10  ..!.............
03B0: 80 03 07 00 21 80 01 3B  04 02 00 10 02 80 80 D3  ....!..;........
03C0: 03 03 03 00 15 80 03 04  00 16 80 03 07 00 02 80  ................
03D0: 01 3B 04 02 00 10 22 80  80 ED 03 03 03 00 17 80  .;....".........
03E0: 03 04 00 10 80 03 07 00  22 80 01 3B 04 02 00 10  ........"..;....
03F0: 23 80 80 07 04 03 03 00  18 80 03 04 00 19 80 03  #...............
0400: 07 00 23 80 01 3B 04 02  00 10 24 80 80 21 04 03  ..#..;....$..!..
0410: 03 00 00 80 03 04 00 00  80 03 07 00 24 80 01 3B  ............$..;
0420: 04 02 00 10 1B 80 80 3B  04 03 03 00 00 80 03 04  .......;........
0430: 00 00 80 03 07 00 1B 80  01 3B 04 01 5C 06 02 02  .........;..\...
0440: 00 03 80 80 4D 05 02 00  10 03 80 80 60 04 03 03  ....M.......`...
0450: 00 00 80 03 04 00 00 80  03 07 00 1A 80 01 4A 05  ..............J.
0460: 02 00 10 0E 80 80 7A 04  03 03 00 00 80 03 04 00  ......z.........
0470: 00 80 03 07 00 1C 80 01  4A 05 02 00 10 1F 80 80  ........J.......
0480: 94 04 03 03 00 00 80 03  04 00 00 80 03 07 00 25  ...............%
0490: 80 01 4A 05 02 00 10 20  80 80 AE 04 03 03 00 00  ..J.... ........
04A0: 80 03 04 00 00 80 03 07  00 26 80 01 4A 05 02 00  .........&..J...
04B0: 10 21 80 80 C8 04 03 03  00 00 80 03 04 00 00 80  .!..............
04C0: 03 07 00 27 80 01 4A 05  02 00 10 02 80 80 E2 04  ...'..J.........
04D0: 03 03 00 00 80 03 04 00  00 80 03 07 00 28 80 01  .............(..
04E0: 4A 05 02 00 10 22 80 80  FC 04 03 03 00 00 80 03  J...."..........
04F0: 04 00 00 80 03 07 00 29  80 01 4A 05 02 00 10 23  .......)..J....#
0500: 80 80 16 05 03 03 00 00  80 03 04 00 00 80 03 07  ................
0510: 00 2A 80 01 4A 05 02 00  10 24 80 80 30 05 03 03  .*..J....$..0...
0520: 00 00 80 03 04 00 00 80  03 07 00 2B 80 01 4A 05  ...........+..J.
0530: 02 00 10 1B 80 80 4A 05  03 03 00 00 80 03 04 00  ......J.........
0540: 00 80 03 07 00 1D 80 01  4A 05 01 5C 06 02 02 00  ........J..\....
0550: 0E 80 80 5C 06 02 00 10  03 80 80 6F 05 03 03 00  ...\.......o....
0560: 00 80 03 04 00 00 80 03  07 00 2C 80 01 59 06 02  ..........,..Y..
0570: 00 10 0E 80 80 89 05 03  03 00 00 80 03 04 00 00  ................
0580: 80 03 07 00 2D 80 01 59  06 02 00 10 1F 80 80 A3  ....-..Y........
0590: 05 03 03 00 00 80 03 04  00 00 80 03 07 00 2E 80  ................
05A0: 01 59 06 02 00 10 20 80  80 BD 05 03 03 00 00 80  .Y.... .........
05B0: 03 04 00 00 80 03 07 00  2F 80 01 59 06 02 00 10  ......../..Y....
05C0: 21 80 80 D7 05 03 03 00  00 80 03 04 00 00 80 03  !...............
05D0: 07 00 30 80 01 59 06 02  00 10 02 80 80 F1 05 03  ..0..Y..........
05E0: 03 00 00 80 03 04 00 00  80 03 07 00 31 80 01 59  ............1..Y
05F0: 06 02 00 10 22 80 80 0B  06 03 03 00 00 80 03 04  ...."...........
0600: 00 00 80 03 07 00 32 80  01 59 06 02 00 10 23 80  ......2..Y....#.
0610: 80 25 06 03 03 00 00 80  03 04 00 00 80 03 07 00  .%..............
0620: 33 80 01 59 06 02 00 10  24 80 80 3F 06 03 03 00  3..Y....$..?....
0630: 00 80 03 04 00 00 80 03  07 00 34 80 01 59 06 02  ..........4..Y..
0640: 00 10 1B 80 80 59 06 03  03 00 00 80 03 04 00 00  .....Y..........
0650: 80 03 07 00 35 80 01 59  06 01 5C 06 93 03 00 03  ....5..Y..\.....
0660: 02 10 03 00 48 36 80 23  93 00 80 02 03 00 15 80  ....H6.#........
0670: 00 8E 07 03 0E 00 00 80  03 02 10 00 00 03 03 10  ................
0680: 03 80 03 04 10 16 80 03  05 10 21 80 03 06 10 37  ..........!....7
0690: 80 03 07 10 1B 80 03 08  10 10 80 03 09 10 35 80  ..............5.
06A0: 03 00 17 38 80 03 01 17  39 80 03 02 17 3A 80 24  ...8....9....:.$
06B0: 3B 80 00 80 00 80 25 02  00 10 00 80 00 C2 06 01  ;.....%.........
06C0: 2B 07 02 00 10 03 80 00  D7 06 03 0E 00 03 80 03  +...............
06D0: 04 00 16 80 01 2B 07 02  00 10 0E 80 00 EC 06 03  .....+..........
06E0: 0E 00 21 80 03 04 00 37  80 01 2B 07 02 00 10 1F  ..!....7..+.....
06F0: 80 00 01 07 03 0E 00 1B  80 03 04 00 10 80 01 2B  ...............+
0700: 07 02 00 10 20 80 00 16  07 03 0E 00 35 80 03 04  .... .......5...
0710: 00 38 80 01 2B 07 02 00  10 21 80 00 2B 07 03 0E  .8..+....!..+...
0720: 00 39 80 03 04 00 3A 80  01 2B 07 02 0E 00 00 80  .9....:..+......
0730: 02 8B 07 03 02 10 15 80  03 03 10 0E 00 24 3C 80  .............$<.
0740: 03 80 00 80 25 02 00 10  00 80 00 80 07 02 00 00  ....%...........
0750: 04 00 04 79 07 40 00 80  27 80 01 10 03 80 40 28  ...y.@..'.....@(
0760: 80 2E 80 01 10 07 00 40  2F 80 3D 80 01 10 0E 00  .......@/.=.....
0770: 06 0B 00 06 0A 00 01 7D  07 1D 3E 80 23 01 8B 07  .......}..>.#...
0780: 02 00 10 03 80 00 8B 07  01 8B 07 01 D8 07 03 02  ................
0790: 10 03 00 24 3F 80 03 80  00 80 25 02 00 10 00 80  ...$?.....%.....
07A0: 00 CD 07 02 00 00 04 00  04 C6 07 40 00 80 27 80  ...........@..'.
07B0: 01 10 03 80 40 28 80 2E  80 01 10 07 00 06 0B 00  ....@(..........
07C0: 06 0A 00 01 CA 07 1D 3E  80 23 01 D8 07 02 00 10  .......>.#......
07D0: 03 80 00 D8 07 01 D8 07  01 ED 00 01 80 19 02 00  ................
07E0: 10 1F 80 00 DD 0D 1A 8A  1B 05 0B 00 02 0B 00 00  ................
07F0: 80 02 DA 0D 03 03 00 00  80 03 04 00 00 80 03 07  ................
0800: 00 00 80 03 09 00 00 80  03 02 10 00 00 02 02 00  ................
0810: 00 80 80 95 08 03 03 10  40 80 03 04 10 41 80 03  ........@....A..
0820: 05 10 42 80 03 06 10 41  80 03 07 10 43 80 03 08  ..B....A....C...
0830: 10 41 80 03 09 10 44 80  03 00 17 45 80 03 01 17  .A....D....E....
0840: 46 80 03 02 17 45 80 03  03 17 47 80 03 04 17 48  F....E....G....H
0850: 80 03 05 17 49 80 03 06  17 48 80 03 07 17 4A 80  ....I....H....J.
0860: 03 08 17 48 80 03 09 17  4B 80 03 0A 17 4C 80 03  ...H....K....L..
0870: 0B 17 4D 80 03 0C 17 4C  80 1A 92 1F 3C 09 00 1A  ..M....L....<...
0880: 80 03 80 02 05 00 1B 80  05 92 08 3C 09 00 1C 80  ...........<....
0890: 03 80 01 8F 09 02 02 00  03 80 80 16 09 03 03 10  ................
08A0: 4E 80 03 04 10 4F 80 03  05 10 50 80 03 06 10 4F  N....O....P....O
08B0: 80 03 07 10 51 80 03 08  10 4F 80 03 09 10 52 80  ....Q....O....R.
08C0: 03 00 17 4F 80 03 01 17  53 80 03 02 17 4F 80 03  ...O....S....O..
08D0: 03 17 54 80 03 04 17 4F  80 03 05 17 55 80 03 06  ..T....O....U...
08E0: 17 19 80 03 07 17 00 80  03 08 17 00 80 03 09 17  ................
08F0: 00 80 03 0A 17 00 80 03  0B 17 00 80 03 0C 17 00  ................
0900: 80 1A 92 1F 02 05 00 1D  80 05 13 09 3C 09 00 1C  ............<...
0910: 80 03 80 01 8F 09 02 02  00 0E 80 80 8F 09 03 03  ................
0920: 10 00 80 03 04 10 00 80  03 05 10 00 80 03 06 10  ................
0930: 00 80 03 07 10 00 80 03  08 10 00 80 03 09 10 00  ................
0940: 80 03 00 17 00 80 03 01  17 00 80 03 02 17 00 80  ................
0950: 03 03 17 00 80 03 04 17  00 80 03 05 17 00 80 03  ................
0960: 06 17 00 80 03 07 17 00  80 03 08 17 00 80 03 09  ................
0970: 17 00 80 03 0A 17 00 80  03 0B 17 00 80 03 0C 17  ................
0980: 00 80 1A 92 1F 3C 09 00  1C 80 03 80 01 8F 09 02  .....<..........
0990: 0F 00 03 80 00 9A 09 1A  29 20 24 56 80 00 80 09  ........) $V....
09A0: 00 25 02 00 10 00 80 00  B0 09 06 0B 00 01 1C 0A  .%..............
09B0: 02 00 10 1A 80 00 E6 09  02 02 00 00 80 80 C3 09  ................
09C0: 01 E3 09 02 02 00 03 80  80 D3 09 03 02 00 00 80  ................
09D0: 01 E3 09 02 02 00 0E 80  80 E3 09 03 02 00 03 80  ................
09E0: 01 E3 09 01 1C 0A 02 00  10 1C 80 00 1C 0A 02 02  ................
09F0: 00 00 80 80 FE 09 03 02  00 03 80 01 19 0A 02 02  ................
0A00: 00 03 80 80 0E 0A 03 02  00 0E 80 01 19 0A 02 02  ................
0A10: 00 0E 80 80 19 0A 01 19  0A 01 1C 0A 02 00 10 03  ................
0A20: 80 04 D7 0D 02 00 10 1B  80 05 D7 0D 02 02 00 00  ................
0A30: 80 80 3B 0B 02 00 10 03  80 80 4E 0A 03 03 00 40  ..;.......N....@
0A40: 80 03 04 00 41 80 03 07  00 03 80 01 38 0B 02 00  ....A.......8...
0A50: 10 0E 80 80 68 0A 03 03  00 42 80 03 04 00 41 80  ....h....B....A.
0A60: 03 07 00 0E 80 01 38 0B  02 00 10 1F 80 80 82 0A  ......8.........
0A70: 03 03 00 43 80 03 04 00  41 80 03 07 00 1F 80 01  ...C....A.......
0A80: 38 0B 02 00 10 20 80 80  9C 0A 03 03 00 44 80 03  8.... .......D..
0A90: 04 00 45 80 03 07 00 20  80 01 38 0B 02 00 10 21  ..E.... ..8....!
0AA0: 80 80 B6 0A 03 03 00 46  80 03 04 00 45 80 03 07  .......F....E...
0AB0: 00 21 80 01 38 0B 02 00  10 02 80 80 D0 0A 03 03  .!..8...........
0AC0: 00 47 80 03 04 00 48 80  03 07 00 02 80 01 38 0B  .G....H.......8.
0AD0: 02 00 10 22 80 80 EA 0A  03 03 00 49 80 03 04 00  ...".......I....
0AE0: 48 80 03 07 00 22 80 01  38 0B 02 00 10 23 80 80  H...."..8....#..
0AF0: 04 0B 03 03 00 4A 80 03  04 00 48 80 03 07 00 23  .....J....H....#
0B00: 80 01 38 0B 02 00 10 24  80 80 1E 0B 03 03 00 4B  ..8....$.......K
0B10: 80 03 04 00 4C 80 03 07  00 24 80 01 38 0B 02 00  ....L....$..8...
0B20: 10 1B 80 80 38 0B 03 03  00 4D 80 03 04 00 4C 80  ....8....M....L.
0B30: 03 07 00 1B 80 01 38 0B  01 69 0D 02 02 00 03 80  ......8..i......
0B40: 80 5A 0C 02 00 10 03 80  80 5D 0B 03 03 00 4E 80  .Z.......]....N.
0B50: 03 04 00 4F 80 03 07 00  1A 80 01 57 0C 02 00 10  ...O.......W....
0B60: 0E 80 80 77 0B 03 03 00  50 80 03 04 00 4F 80 03  ...w....P....O..
0B70: 07 00 1C 80 01 57 0C 02  00 10 1F 80 80 91 0B 03  .....W..........
0B80: 03 00 51 80 03 04 00 4F  80 03 07 00 25 80 01 57  ..Q....O....%..W
0B90: 0C 02 00 10 20 80 80 AB  0B 03 03 00 52 80 03 04  .... .......R...
0BA0: 00 4F 80 03 07 00 26 80  01 57 0C 02 00 10 21 80  .O....&..W....!.
0BB0: 80 C5 0B 03 03 00 53 80  03 04 00 4F 80 03 07 00  ......S....O....
0BC0: 27 80 01 57 0C 02 00 10  02 80 80 DF 0B 03 03 00  '..W............
0BD0: 54 80 03 04 00 4F 80 03  07 00 28 80 01 57 0C 02  T....O....(..W..
0BE0: 00 10 22 80 80 09 0C 03  03 00 55 80 02 0F 00 00  ..".......U.....
0BF0: 80 00 FC 0B 03 04 00 19  80 01 01 0C 03 04 00 57  ...............W
0C00: 80 03 07 00 29 80 01 57  0C 02 00 10 23 80 80 23  ....)..W....#..#
0C10: 0C 03 03 00 00 80 03 04  00 00 80 03 07 00 2A 80  ..............*.
0C20: 01 57 0C 02 00 10 24 80  80 3D 0C 03 03 00 00 80  .W....$..=......
0C30: 03 04 00 00 80 03 07 00  2B 80 01 57 0C 02 00 10  ........+..W....
0C40: 1B 80 80 57 0C 03 03 00  00 80 03 04 00 00 80 03  ...W............
0C50: 07 00 1D 80 01 57 0C 01  69 0D 02 02 00 0E 80 80  .....W..i.......
0C60: 69 0D 02 00 10 03 80 80  7C 0C 03 03 00 00 80 03  i.......|.......
0C70: 04 00 00 80 03 07 00 2C  80 01 66 0D 02 00 10 0E  .......,..f.....
0C80: 80 80 96 0C 03 03 00 00  80 03 04 00 00 80 03 07  ................
0C90: 00 2D 80 01 66 0D 02 00  10 1F 80 80 B0 0C 03 03  .-..f...........
0CA0: 00 00 80 03 04 00 00 80  03 07 00 2E 80 01 66 0D  ..............f.
0CB0: 02 00 10 20 80 80 CA 0C  03 03 00 00 80 03 04 00  ... ............
0CC0: 00 80 03 07 00 2F 80 01  66 0D 02 00 10 21 80 80  ...../..f....!..
0CD0: E4 0C 03 03 00 00 80 03  04 00 00 80 03 07 00 30  ...............0
0CE0: 80 01 66 0D 02 00 10 02  80 80 FE 0C 03 03 00 00  ..f.............
0CF0: 80 03 04 00 00 80 03 07  00 31 80 01 66 0D 02 00  .........1..f...
0D00: 10 22 80 80 18 0D 03 03  00 00 80 03 04 00 00 80  ."..............
0D10: 03 07 00 32 80 01 66 0D  02 00 10 23 80 80 32 0D  ...2..f....#..2.
0D20: 03 03 00 00 80 03 04 00  00 80 03 07 00 33 80 01  .............3..
0D30: 66 0D 02 00 10 24 80 80  4C 0D 03 03 00 00 80 03  f....$..L.......
0D40: 04 00 00 80 03 07 00 34  80 01 66 0D 02 00 10 1B  .......4..f.....
0D50: 80 80 66 0D 03 03 00 00  80 03 04 00 00 80 03 07  ..f.............
0D60: 00 35 80 01 66 0D 01 69  0D 02 03 00 55 80 00 7E  .5..f..i....U..~
0D70: 0D 02 0F 00 03 80 00 7E  0D 03 04 00 57 80 93 03  .......~....W...
0D80: 00 03 02 10 03 00 48 58  80 23 93 00 80 03 02 10  ......HX.#......
0D90: 03 00 24 59 80 03 80 00  80 25 02 00 10 00 80 00  ..$Y.....%......
0DA0: CC 0D 02 00 00 04 00 04  C5 0D 40 00 80 27 80 01  ..........@..'..
0DB0: 10 0E 80 40 28 80 2E 80  01 10 07 00 06 0B 00 06  ...@(...........
0DC0: 0A 00 01 C9 0D 1D 3E 80  23 01 D7 0D 02 00 10 03  ......>.#.......
0DD0: 80 00 D7 0D 01 D7 0D 01  EC 07 01 80 19 02 00 10  ................
0DE0: 20 80 00 83 14 1A 8E 1D  05 0B 00 02 0B 00 00 80   ...............
0DF0: 02 80 14 03 03 00 00 80  03 04 00 00 80 03 07 00  ................
0E00: 00 80 03 09 00 00 80 03  02 10 00 00 02 02 00 00  ................
0E10: 80 80 94 0E 03 03 10 5A  80 03 04 10 5B 80 03 05  .......Z....[...
0E20: 10 5C 80 03 06 10 5D 80  03 07 10 5E 80 03 08 10  .\....]....^....
0E30: 10 80 03 09 10 5F 80 03  00 17 60 80 03 01 17 61  ....._....`....a
0E40: 80 03 02 17 4F 80 03 03  17 00 80 03 04 17 00 80  ....O...........
0E50: 03 05 17 00 80 03 06 17  00 80 03 07 17 00 80 03  ................
0E60: 08 17 00 80 03 09 17 00  80 03 0A 17 00 80 03 0B  ................
0E70: 17 00 80 03 0C 17 00 80  1A 92 1F 3C 09 00 1A 80  ...........<....
0E80: 03 80 02 05 00 1B 80 05  91 0E 3C 09 00 1C 80 03  ..........<.....
0E90: 80 01 8E 0F 02 02 00 03  80 80 15 0F 03 03 10 00  ................
0EA0: 80 03 04 10 00 80 03 05  10 00 80 03 06 10 00 80  ................
0EB0: 03 07 10 00 80 03 08 10  00 80 03 09 10 00 80 03  ................
0EC0: 00 17 00 80 03 01 17 00  80 03 02 17 00 80 03 03  ................
0ED0: 17 00 80 03 04 17 00 80  03 05 17 00 80 03 06 17  ................
0EE0: 00 80 03 07 17 00 80 03  08 17 00 80 03 09 17 00  ................
0EF0: 80 03 0A 17 00 80 03 0B  17 00 80 03 0C 17 00 80  ................
0F00: 1A 92 1F 02 05 00 1D 80  05 12 0F 3C 09 00 1C 80  ...........<....
0F10: 03 80 01 8E 0F 02 02 00  0E 80 80 8E 0F 03 03 10  ................
0F20: 00 80 03 04 10 00 80 03  05 10 00 80 03 06 10 00  ................
0F30: 80 03 07 10 00 80 03 08  10 00 80 03 09 10 00 80  ................
0F40: 03 00 17 00 80 03 01 17  00 80 03 02 17 00 80 03  ................
0F50: 03 17 00 80 03 04 17 00  80 03 05 17 00 80 03 06  ................
0F60: 17 00 80 03 07 17 00 80  03 08 17 00 80 03 09 17  ................
0F70: 00 80 03 0A 17 00 80 03  0B 17 00 80 03 0C 17 00  ................
0F80: 80 1A 92 1F 3C 09 00 1C  80 03 80 01 8E 0F 24 62  ....<.........$b
0F90: 80 00 80 09 00 25 02 00  10 00 80 00 A4 0F 06 0B  .....%..........
0FA0: 00 01 10 10 02 00 10 1A  80 00 DA 0F 02 02 00 00  ................
0FB0: 80 80 B7 0F 01 D7 0F 02  02 00 03 80 80 C7 0F 03  ................
0FC0: 02 00 00 80 01 D7 0F 02  02 00 0E 80 80 D7 0F 03  ................
0FD0: 02 00 03 80 01 D7 0F 01  10 10 02 00 10 1C 80 00  ................
0FE0: 10 10 02 02 00 00 80 80  F2 0F 03 02 00 03 80 01  ................
0FF0: 0D 10 02 02 00 03 80 80  02 10 03 02 00 0E 80 01  ................
1000: 0D 10 02 02 00 0E 80 80  0D 10 01 0D 10 01 10 10  ................
1010: 02 00 10 03 80 04 7D 14  02 00 10 1B 80 05 7D 14  ......}.......}.
1020: 02 02 00 00 80 80 2F 11  02 00 10 03 80 80 42 10  ....../.......B.
1030: 03 03 00 5A 80 03 04 00  5B 80 03 07 00 03 80 01  ...Z....[.......
1040: 2C 11 02 00 10 0E 80 80  5C 10 03 03 00 5C 80 03  ,.......\....\..
1050: 04 00 5D 80 03 07 00 0E  80 01 2C 11 02 00 10 1F  ..].......,.....
1060: 80 80 76 10 03 03 00 5E  80 03 04 00 10 80 03 07  ..v....^........
1070: 00 1F 80 01 2C 11 02 00  10 20 80 80 90 10 03 03  ....,.... ......
1080: 00 5F 80 03 04 00 60 80  03 07 00 20 80 01 2C 11  ._....`.... ..,.
1090: 02 00 10 21 80 80 AA 10  03 03 00 61 80 03 04 00  ...!.......a....
10A0: 4F 80 03 07 00 21 80 01  2C 11 02 00 10 02 80 80  O....!..,.......
10B0: C4 10 03 03 00 00 80 03  04 00 00 80 03 07 00 02  ................
10C0: 80 01 2C 11 02 00 10 22  80 80 DE 10 03 03 00 00  ..,...."........
10D0: 80 03 04 00 00 80 03 07  00 22 80 01 2C 11 02 00  ........."..,...
10E0: 10 23 80 80 F8 10 03 03  00 00 80 03 04 00 00 80  .#..............
10F0: 03 07 00 23 80 01 2C 11  02 00 10 24 80 80 12 11  ...#..,....$....
1100: 03 03 00 00 80 03 04 00  00 80 03 07 00 24 80 01  .............$..
1110: 2C 11 02 00 10 1B 80 80  2C 11 03 03 00 00 80 03  ,.......,.......
1120: 04 00 00 80 03 07 00 1B  80 01 2C 11 01 4D 13 02  ..........,..M..
1130: 02 00 03 80 80 3E 12 02  00 10 03 80 80 51 11 03  .....>.......Q..
1140: 03 00 00 80 03 04 00 00  80 03 07 00 1A 80 01 3B  ...............;
1150: 12 02 00 10 0E 80 80 6B  11 03 03 00 00 80 03 04  .......k........
1160: 00 00 80 03 07 00 1C 80  01 3B 12 02 00 10 1F 80  .........;......
1170: 80 85 11 03 03 00 00 80  03 04 00 00 80 03 07 00  ................
1180: 25 80 01 3B 12 02 00 10  20 80 80 9F 11 03 03 00  %..;.... .......
1190: 00 80 03 04 00 00 80 03  07 00 26 80 01 3B 12 02  ..........&..;..
11A0: 00 10 21 80 80 B9 11 03  03 00 00 80 03 04 00 00  ..!.............
11B0: 80 03 07 00 27 80 01 3B  12 02 00 10 02 80 80 D3  ....'..;........
11C0: 11 03 03 00 00 80 03 04  00 00 80 03 07 00 28 80  ..............(.
11D0: 01 3B 12 02 00 10 22 80  80 ED 11 03 03 00 00 80  .;....".........
11E0: 03 04 00 00 80 03 07 00  29 80 01 3B 12 02 00 10  ........)..;....
11F0: 23 80 80 07 12 03 03 00  00 80 03 04 00 00 80 03  #...............
1200: 07 00 2A 80 01 3B 12 02  00 10 24 80 80 21 12 03  ..*..;....$..!..
1210: 03 00 00 80 03 04 00 00  80 03 07 00 2B 80 01 3B  ............+..;
1220: 12 02 00 10 1B 80 80 3B  12 03 03 00 00 80 03 04  .......;........
1230: 00 00 80 03 07 00 1D 80  01 3B 12 01 4D 13 02 02  .........;..M...
1240: 00 0E 80 80 4D 13 02 00  10 03 80 80 60 12 03 03  ....M.......`...
1250: 00 00 80 03 04 00 00 80  03 07 00 2C 80 01 4A 13  ...........,..J.
1260: 02 00 10 0E 80 80 7A 12  03 03 00 00 80 03 04 00  ......z.........
1270: 00 80 03 07 00 2D 80 01  4A 13 02 00 10 1F 80 80  .....-..J.......
1280: 94 12 03 03 00 00 80 03  04 00 00 80 03 07 00 2E  ................
1290: 80 01 4A 13 02 00 10 20  80 80 AE 12 03 03 00 00  ..J.... ........
12A0: 80 03 04 00 00 80 03 07  00 2F 80 01 4A 13 02 00  ........./..J...
12B0: 10 21 80 80 C8 12 03 03  00 00 80 03 04 00 00 80  .!..............
12C0: 03 07 00 30 80 01 4A 13  02 00 10 02 80 80 E2 12  ...0..J.........
12D0: 03 03 00 00 80 03 04 00  00 80 03 07 00 31 80 01  .............1..
12E0: 4A 13 02 00 10 22 80 80  FC 12 03 03 00 00 80 03  J...."..........
12F0: 04 00 00 80 03 07 00 32  80 01 4A 13 02 00 10 23  .......2..J....#
1300: 80 80 16 13 03 03 00 00  80 03 04 00 00 80 03 07  ................
1310: 00 33 80 01 4A 13 02 00  10 24 80 80 30 13 03 03  .3..J....$..0...
1320: 00 00 80 03 04 00 00 80  03 07 00 34 80 01 4A 13  ...........4..J.
1330: 02 00 10 1B 80 80 4A 13  03 03 00 00 80 03 04 00  ......J.........
1340: 00 80 03 07 00 35 80 01  4A 13 01 4D 13 02 03 00  .....5..J..M....
1350: 63 80 80 5C 13 1D 64 80  23 01 33 14 02 03 00 5C  c..\..d.#.3....\
1360: 80 80 70 13 03 02 10 65  80 1D 66 80 23 01 33 14  ..p....e..f.#.3.
1370: 02 03 00 67 80 80 7F 13  1D 68 80 23 01 33 14 02  ...g.....h.#.3..
1380: 03 00 69 80 80 8E 13 1D  6A 80 23 01 33 14 02 03  ..i.....j.#.3...
1390: 00 6B 80 80 9D 13 1D 6C  80 23 01 33 14 02 03 00  .k.....l.#.3....
13A0: 5E 80 80 AC 13 1D 6D 80  23 01 33 14 02 03 00 6E  ^.....m.#.3....n
13B0: 80 80 BB 13 1D 6F 80 23  01 33 14 02 03 00 5F 80  .....o.#.3...._.
13C0: 80 CA 13 1D 70 80 23 01  33 14 02 03 00 71 80 80  ....p.#.3....q..
13D0: D9 13 1D 72 80 23 01 33  14 02 03 00 73 80 80 E8  ...r.#.3....s...
13E0: 13 1D 74 80 23 01 33 14  02 03 00 75 80 80 F7 13  ..t.#.3....u....
13F0: 1D 76 80 23 01 33 14 02  03 00 77 80 80 06 14 1D  .v.#.3....w.....
1400: 78 80 23 01 33 14 02 03  00 5A 80 80 15 14 1D 79  x.#.3....Z.....y
1410: 80 23 01 33 14 02 03 00  7A 80 80 24 14 1D 7B 80  .#.3....z..$..{.
1420: 23 01 33 14 02 03 00 61  80 80 33 14 1D 7C 80 23  #.3....a..3..|.#
1430: 01 33 14 03 02 10 03 00  24 7D 80 03 80 00 80 25  .3......$}.....%
1440: 02 00 10 00 80 00 72 14  02 00 00 04 00 04 6B 14  ......r.......k.
1450: 40 00 80 27 80 01 10 1F  80 40 28 80 2E 80 01 10  @..'.....@(.....
1460: 07 00 06 0B 00 06 0A 00  01 6F 14 1D 3E 80 23 01  .........o..>.#.
1470: 7D 14 02 00 10 03 80 00  7D 14 01 7D 14 01 EB 0D  }.......}..}....
1480: 01 80 19 02 00 10 21 80  00 2B 17 05 0B 00 02 0B  ......!..+......
1490: 00 00 80 02 28 17 03 07  00 00 80 03 09 00 00 80  ....(...........
14A0: 3E 0D 00 00 80 B5 14 3C  09 00 03 80 03 80 3C 09  >......<......<.
14B0: 00 1A 80 03 80 3E 0D 00  03 80 CA 14 3C 09 00 0E  .....>......<...
14C0: 80 03 80 3C 09 00 1A 80  03 80 3E 0D 00 0E 80 DF  ...<......>.....
14D0: 14 3C 09 00 1F 80 03 80  3C 09 00 1A 80 03 80 3E  .<......<......>
14E0: 0D 00 1F 80 F4 14 3C 09  00 20 80 03 80 3C 09 00  ......<.. ...<..
14F0: 1A 80 03 80 3E 0D 00 20  80 09 15 3C 09 00 21 80  ....>.. ...<..!.
1500: 03 80 3C 09 00 1A 80 03  80 3E 0D 00 21 80 1E 15  ..<......>..!...
1510: 3C 09 00 02 80 03 80 3C  09 00 1A 80 03 80 3E 0D  <......<......>.
1520: 00 02 80 33 15 3C 09 00  22 80 03 80 3C 09 00 1A  ...3.<.."...<...
1530: 80 03 80 3E 0D 00 22 80  48 15 3C 09 00 23 80 03  ...>..".H.<..#..
1540: 80 3C 09 00 1A 80 03 80  3E 0D 00 23 80 5D 15 3C  .<......>..#.].<
1550: 09 00 24 80 03 80 3C 09  00 1A 80 03 80 3E 0D 00  ..$...<......>..
1560: 24 80 72 15 3C 09 00 1B  80 03 80 3C 09 00 1A 80  $.r.<......<....
1570: 03 80 3C 09 00 03 80 03  80 3C 09 00 0E 80 03 80  ..<......<......
1580: 3C 09 00 1F 80 03 80 3C  09 00 20 80 03 80 3C 09  <......<.. ...<.
1590: 00 21 80 03 80 03 04 00  00 80 03 02 10 00 00 03  .!..............
15A0: 03 10 39 80 03 04 10 39  80 03 05 10 39 80 03 06  ..9....9....9...
15B0: 10 39 80 03 07 10 39 80  03 08 10 39 80 03 09 10  .9....9....9....
15C0: 45 80 03 00 17 7E 80 03  01 17 7E 80 03 02 17 7E  E....~....~....~
15D0: 80 03 03 17 7F 80 24 80  80 00 80 09 00 25 02 00  ......$......%..
15E0: 10 00 80 00 EC 15 06 0B  00 01 D3 16 02 00 10 03  ................
15F0: 80 00 01 16 03 07 00 03  80 03 04 00 39 80 01 D3  ............9...
1600: 16 02 00 10 0E 80 00 16  16 03 07 00 0E 80 03 04  ................
1610: 00 39 80 01 D3 16 02 00  10 1F 80 00 2B 16 03 07  .9..........+...
1620: 00 1F 80 03 04 00 39 80  01 D3 16 02 00 10 20 80  ......9....... .
1630: 00 40 16 03 07 00 20 80  03 04 00 39 80 01 D3 16  .@.... ....9....
1640: 02 00 10 21 80 00 55 16  03 07 00 21 80 03 04 00  ...!..U....!....
1650: 39 80 01 D3 16 02 00 10  02 80 00 6A 16 03 07 00  9..........j....
1660: 02 80 03 04 00 39 80 01  D3 16 02 00 10 22 80 00  .....9......."..
1670: 7F 16 03 07 00 22 80 03  04 00 45 80 01 D3 16 02  ....."....E.....
1680: 00 10 23 80 00 94 16 03  07 00 23 80 03 04 00 7E  ..#.......#....~
1690: 80 01 D3 16 02 00 10 24  80 00 A9 16 03 07 00 24  .......$.......$
16A0: 80 03 04 00 7E 80 01 D3  16 02 00 10 1B 80 00 BE  ....~...........
16B0: 16 03 07 00 1B 80 03 04  00 7E 80 01 D3 16 02 00  .........~......
16C0: 10 1A 80 00 D3 16 03 07  00 1A 80 03 04 00 7F 80  ................
16D0: 01 D3 16 02 07 00 00 80  02 25 17 03 02 10 07 00  .........%......
16E0: 24 81 80 03 80 00 80 25  02 00 10 00 80 00 1A 17  $......%........
16F0: 02 00 00 04 00 04 13 17  40 00 80 27 80 01 10 20  ........@..'... 
1700: 80 40 28 80 2E 80 01 10  07 00 06 0B 00 06 0A 00  .@(.............
1710: 01 17 17 1D 3E 80 23 01  25 17 02 00 10 03 80 00  ....>.#.%.......
1720: 25 17 01 25 17 01 8E 14  01 80 19 02 00 10 02 80  %..%............
1730: 00 80 19 05 0B 00 02 0B  00 00 80 02 7D 19 03 09  ............}...
1740: 00 00 80 03 07 00 00 80  3E 01 00 00 80 52 17 01  ........>....R..
1750: 59 17 3C 09 00 03 80 03  80 3E 01 00 03 80 63 17  Y.<......>....c.
1760: 01 6A 17 3C 09 00 0E 80  03 80 3E 01 00 0E 80 74  .j.<......>....t
1770: 17 01 7B 17 3C 09 00 1F  80 03 80 3E 01 00 1F 80  ..{.<......>....
1780: 85 17 01 8C 17 3C 09 00  20 80 03 80 3E 01 00 20  .....<.. ...>.. 
1790: 80 96 17 01 9D 17 3C 09  00 21 80 03 80 3E 01 00  ......<..!...>..
17A0: 21 80 A7 17 01 AE 17 3C  09 00 02 80 03 80 3E 01  !......<......>.
17B0: 00 02 80 B8 17 01 BF 17  3C 09 00 22 80 03 80 3E  ........<.."...>
17C0: 01 00 22 80 C9 17 01 D0  17 3C 09 00 23 80 03 80  .."......<..#...
17D0: 3E 01 00 23 80 DA 17 01  E1 17 3C 09 00 24 80 03  >..#......<..$..
17E0: 80 3E 01 00 24 80 EB 17  01 F2 17 3C 09 00 1B 80  .>..$......<....
17F0: 03 80 3E 01 00 1B 80 FC  17 01 03 18 3C 09 00 1A  ..>.........<...
1800: 80 03 80 03 02 10 61 80  03 03 10 82 80 03 04 10  ......a.........
1810: 83 80 03 05 10 84 80 03  06 10 85 80 03 07 10 86  ................
1820: 80 03 08 10 87 80 03 09  10 88 80 03 00 17 89 80  ................
1830: 03 01 17 8A 80 03 02 17  8B 80 24 8C 80 00 80 09  ..........$.....
1840: 00 25 02 00 10 00 80 00  50 18 06 0B 00 01 37 19  .%......P.....7.
1850: 02 00 10 03 80 00 65 18  03 07 00 03 80 03 03 00  ......e.........
1860: 61 80 01 37 19 02 00 10  0E 80 00 7A 18 03 07 00  a..7.......z....
1870: 0E 80 03 03 00 82 80 01  37 19 02 00 10 1F 80 00  ........7.......
1880: 8F 18 03 07 00 1F 80 03  03 00 83 80 01 37 19 02  .............7..
1890: 00 10 20 80 00 A4 18 03  07 00 20 80 03 03 00 84  .. ....... .....
18A0: 80 01 37 19 02 00 10 21  80 00 B9 18 03 07 00 21  ..7....!.......!
18B0: 80 03 03 00 85 80 01 37  19 02 00 10 02 80 00 CE  .......7........
18C0: 18 03 07 00 02 80 03 03  00 86 80 01 37 19 02 00  ............7...
18D0: 10 22 80 00 E3 18 03 07  00 22 80 03 03 00 87 80  ."......."......
18E0: 01 37 19 02 00 10 23 80  00 F8 18 03 07 00 23 80  .7....#.......#.
18F0: 03 03 00 88 80 01 37 19  02 00 10 24 80 00 0D 19  ......7....$....
1900: 03 07 00 24 80 03 03 00  89 80 01 37 19 02 00 10  ...$.......7....
1910: 1B 80 00 22 19 03 07 00  1B 80 03 03 00 8A 80 01  ..."............
1920: 37 19 02 00 10 1A 80 00  37 19 03 07 00 1A 80 03  7.......7.......
1930: 03 00 8B 80 01 37 19 02  07 00 00 80 02 7A 19 03  .....7.......z..
1940: 02 10 03 00 24 8D 80 03  80 00 80 25 02 00 10 00  ....$......%....
1950: 80 00 6F 19 40 00 80 27  80 01 10 21 80 40 28 80  ..o.@..'...!.@(.
1960: 2E 80 01 10 07 00 06 0B  00 06 0A 00 01 7A 19 02  .............z..
1970: 00 10 03 80 00 7A 19 01  7A 19 01 36 17 01 80 19  .....z..z..6....
1980: 01 69 00 42 21 00 03 05  00 00 80 03 12 00 00 80  .i.B!...........
1990: 02 12 00 35 80 03 89 1B  02 12 00 00 80 80 A8 19  ...5............
19A0: 03 10 00 0F 80 01 78 1B  02 12 00 03 80 80 B8 19  ......x.........
19B0: 03 10 00 11 80 01 78 1B  02 12 00 0E 80 80 C8 19  ......x.........
19C0: 03 10 00 12 80 01 78 1B  02 12 00 1F 80 80 D8 19  ......x.........
19D0: 03 10 00 13 80 01 78 1B  02 12 00 20 80 80 E8 19  ......x.... ....
19E0: 03 10 00 14 80 01 78 1B  02 12 00 21 80 80 F8 19  ......x....!....
19F0: 03 10 00 15 80 01 78 1B  02 12 00 02 80 80 08 1A  ......x.........
1A00: 03 10 00 17 80 01 78 1B  02 12 00 22 80 80 18 1A  ......x...."....
1A10: 03 10 00 18 80 01 78 1B  02 12 00 23 80 80 28 1A  ......x....#..(.
1A20: 03 10 00 00 80 01 78 1B  02 12 00 24 80 80 38 1A  ......x....$..8.
1A30: 03 10 00 00 80 01 78 1B  02 12 00 1B 80 80 48 1A  ......x.......H.
1A40: 03 10 00 00 80 01 78 1B  02 12 00 1A 80 80 58 1A  ......x.......X.
1A50: 03 10 00 00 80 01 78 1B  02 12 00 1C 80 80 68 1A  ......x.......h.
1A60: 03 10 00 00 80 01 78 1B  02 12 00 25 80 80 78 1A  ......x....%..x.
1A70: 03 10 00 00 80 01 78 1B  02 12 00 26 80 80 88 1A  ......x....&....
1A80: 03 10 00 00 80 01 78 1B  02 12 00 27 80 80 98 1A  ......x....'....
1A90: 03 10 00 00 80 01 78 1B  02 12 00 28 80 80 A8 1A  ......x....(....
1AA0: 03 10 00 00 80 01 78 1B  02 12 00 29 80 80 B8 1A  ......x....)....
1AB0: 03 10 00 00 80 01 78 1B  02 12 00 2A 80 80 C8 1A  ......x....*....
1AC0: 03 10 00 00 80 01 78 1B  02 12 00 2B 80 80 D8 1A  ......x....+....
1AD0: 03 10 00 00 80 01 78 1B  02 12 00 1D 80 80 E8 1A  ......x.........
1AE0: 03 10 00 00 80 01 78 1B  02 12 00 2C 80 80 F8 1A  ......x....,....
1AF0: 03 10 00 00 80 01 78 1B  02 12 00 2D 80 80 08 1B  ......x....-....
1B00: 03 10 00 00 80 01 78 1B  02 12 00 2E 80 80 18 1B  ......x.........
1B10: 03 10 00 00 80 01 78 1B  02 12 00 2F 80 80 28 1B  ......x..../..(.
1B20: 03 10 00 00 80 01 78 1B  02 12 00 30 80 80 38 1B  ......x....0..8.
1B30: 03 10 00 00 80 01 78 1B  02 12 00 31 80 80 48 1B  ......x....1..H.
1B40: 03 10 00 00 80 01 78 1B  02 12 00 32 80 80 58 1B  ......x....2..X.
1B50: 03 10 00 00 80 01 78 1B  02 12 00 33 80 80 68 1B  ......x....3..h.
1B60: 03 10 00 00 80 01 78 1B  02 12 00 34 80 80 78 1B  ......x....4..x.
1B70: 03 10 00 00 80 01 78 1B  02 10 00 00 80 01 83 1B  ......x.........
1B80: 0B 05 00 0B 12 00 01 90  19 1B 03 05 00 00 80 03  ................
1B90: 12 00 00 80 02 12 00 35  80 03 8D 1D 02 12 00 00  .......5........
1BA0: 80 80 AC 1B 03 10 00 40  80 01 7C 1D 02 12 00 03  .......@..|.....
1BB0: 80 80 BC 1B 03 10 00 42  80 01 7C 1D 02 12 00 0E  .......B..|.....
1BC0: 80 80 CC 1B 03 10 00 43  80 01 7C 1D 02 12 00 1F  .......C..|.....
1BD0: 80 80 DC 1B 03 10 00 44  80 01 7C 1D 02 12 00 20  .......D..|.... 
1BE0: 80 80 EC 1B 03 10 00 46  80 01 7C 1D 02 12 00 21  .......F..|....!
1BF0: 80 80 FC 1B 03 10 00 47  80 01 7C 1D 02 12 00 02  .......G..|.....
1C00: 80 80 0C 1C 03 10 00 49  80 01 7C 1D 02 12 00 22  .......I..|...."
1C10: 80 80 1C 1C 03 10 00 4A  80 01 7C 1D 02 12 00 23  .......J..|....#
1C20: 80 80 2C 1C 03 10 00 4B  80 01 7C 1D 02 12 00 24  ..,....K..|....$
1C30: 80 80 3C 1C 03 10 00 4D  80 01 7C 1D 02 12 00 1B  ..<....M..|.....
1C40: 80 80 4C 1C 03 10 00 4E  80 01 7C 1D 02 12 00 1A  ..L....N..|.....
1C50: 80 80 5C 1C 03 10 00 50  80 01 7C 1D 02 12 00 1C  ..\....P..|.....
1C60: 80 80 6C 1C 03 10 00 51  80 01 7C 1D 02 12 00 25  ..l....Q..|....%
1C70: 80 80 7C 1C 03 10 00 52  80 01 7C 1D 02 12 00 26  ..|....R..|....&
1C80: 80 80 8C 1C 03 10 00 53  80 01 7C 1D 02 12 00 27  .......S..|....'
1C90: 80 80 9C 1C 03 10 00 54  80 01 7C 1D 02 12 00 28  .......T..|....(
1CA0: 80 80 AC 1C 03 10 00 55  80 01 7C 1D 02 12 00 29  .......U..|....)
1CB0: 80 80 BC 1C 03 10 00 00  80 01 7C 1D 02 12 00 2A  ..........|....*
1CC0: 80 80 CC 1C 03 10 00 00  80 01 7C 1D 02 12 00 2B  ..........|....+
1CD0: 80 80 DC 1C 03 10 00 00  80 01 7C 1D 02 12 00 1D  ..........|.....
1CE0: 80 80 EC 1C 03 10 00 00  80 01 7C 1D 02 12 00 2C  ..........|....,
1CF0: 80 80 FC 1C 03 10 00 00  80 01 7C 1D 02 12 00 2D  ..........|....-
1D00: 80 80 0C 1D 03 10 00 00  80 01 7C 1D 02 12 00 2E  ..........|.....
1D10: 80 80 1C 1D 03 10 00 00  80 01 7C 1D 02 12 00 2F  ..........|..../
1D20: 80 80 2C 1D 03 10 00 00  80 01 7C 1D 02 12 00 30  ..,.......|....0
1D30: 80 80 3C 1D 03 10 00 00  80 01 7C 1D 02 12 00 31  ..<.......|....1
1D40: 80 80 4C 1D 03 10 00 00  80 01 7C 1D 02 12 00 32  ..L.......|....2
1D50: 80 80 5C 1D 03 10 00 00  80 01 7C 1D 02 12 00 33  ..\.......|....3
1D60: 80 80 6C 1D 03 10 00 00  80 01 7C 1D 02 12 00 34  ..l.......|....4
1D70: 80 80 7C 1D 03 10 00 00  80 01 7C 1D 02 10 00 00  ..|.......|.....
1D80: 80 01 87 1D 0B 05 00 0B  12 00 01 94 1B 1B 03 05  ................
1D90: 00 00 80 03 12 00 00 80  02 12 00 35 80 03 91 1F  ...........5....
1DA0: 02 12 00 00 80 80 B0 1D  03 10 00 5A 80 01 80 1F  ...........Z....
1DB0: 02 12 00 03 80 80 C0 1D  03 10 00 5C 80 01 80 1F  ...........\....
1DC0: 02 12 00 0E 80 80 D0 1D  03 10 00 5E 80 01 80 1F  ...........^....
1DD0: 02 12 00 1F 80 80 E0 1D  03 10 00 5F 80 01 80 1F  ..........._....
1DE0: 02 12 00 20 80 80 F0 1D  03 10 00 61 80 01 80 1F  ... .......a....
1DF0: 02 12 00 21 80 80 00 1E  03 10 00 00 80 01 80 1F  ...!............
1E00: 02 12 00 02 80 80 10 1E  03 10 00 00 80 01 80 1F  ................
1E10: 02 12 00 22 80 80 20 1E  03 10 00 00 80 01 80 1F  ...".. .........
1E20: 02 12 00 23 80 80 30 1E  03 10 00 00 80 01 80 1F  ...#..0.........
1E30: 02 12 00 24 80 80 40 1E  03 10 00 00 80 01 80 1F  ...$..@.........
1E40: 02 12 00 1B 80 80 50 1E  03 10 00 00 80 01 80 1F  ......P.........
1E50: 02 12 00 1A 80 80 60 1E  03 10 00 00 80 01 80 1F  ......`.........
1E60: 02 12 00 1C 80 80 70 1E  03 10 00 00 80 01 80 1F  ......p.........
1E70: 02 12 00 25 80 80 80 1E  03 10 00 00 80 01 80 1F  ...%............
1E80: 02 12 00 26 80 80 90 1E  03 10 00 00 80 01 80 1F  ...&............
1E90: 02 12 00 27 80 80 A0 1E  03 10 00 00 80 01 80 1F  ...'............
1EA0: 02 12 00 28 80 80 B0 1E  03 10 00 00 80 01 80 1F  ...(............
1EB0: 02 12 00 29 80 80 C0 1E  03 10 00 00 80 01 80 1F  ...)............
1EC0: 02 12 00 2A 80 80 D0 1E  03 10 00 00 80 01 80 1F  ...*............
1ED0: 02 12 00 2B 80 80 E0 1E  03 10 00 00 80 01 80 1F  ...+............
1EE0: 02 12 00 1D 80 80 F0 1E  03 10 00 00 80 01 80 1F  ................
1EF0: 02 12 00 2C 80 80 00 1F  03 10 00 00 80 01 80 1F  ...,............
1F00: 02 12 00 2D 80 80 10 1F  03 10 00 00 80 01 80 1F  ...-............
1F10: 02 12 00 2E 80 80 20 1F  03 10 00 00 80 01 80 1F  ...... .........
1F20: 02 12 00 2F 80 80 30 1F  03 10 00 00 80 01 80 1F  .../..0.........
1F30: 02 12 00 30 80 80 40 1F  03 10 00 00 80 01 80 1F  ...0..@.........
1F40: 02 12 00 31 80 80 50 1F  03 10 00 00 80 01 80 1F  ...1..P.........
1F50: 02 12 00 32 80 80 60 1F  03 10 00 00 80 01 80 1F  ...2..`.........
1F60: 02 12 00 33 80 80 70 1F  03 10 00 00 80 01 80 1F  ...3..p.........
1F70: 02 12 00 34 80 80 80 1F  03 10 00 00 80 01 80 1F  ...4............
1F80: 02 10 00 00 80 01 8B 1F  0B 05 00 0B 12 00 01 98  ................
1F90: 1D 1B 02 03 10 00 80 00  A1 1F 3C 09 00 03 80 03  ..........<.....
1FA0: 80 02 05 10 00 80 00 B0  1F 3C 09 00 0E 80 03 80  .........<......
1FB0: 02 07 10 00 80 00 BF 1F  3C 09 00 1F 80 03 80 02  ........<.......
1FC0: 09 10 00 80 00 CE 1F 3C  09 00 20 80 03 80 02 01  .......<.. .....
1FD0: 17 00 80 00 DD 1F 3C 09  00 21 80 03 80 02 03 17  ......<..!......
1FE0: 00 80 00 EC 1F 3C 09 00  02 80 03 80 02 05 17 00  .....<..........
1FF0: 80 00 FB 1F 3C 09 00 22  80 03 80 02 07 17 00 80  ....<.."........
2000: 00 0A 20 3C 09 00 23 80  03 80 02 09 17 00 80 00  .. <..#.........
2010: 19 20 3C 09 00 24 80 03  80 02 0B 17 00 80 00 28  . <..$.........(
2020: 20 3C 09 00 1B 80 03 80  1B 06 13 00 02 13 00 1B   <..............
2030: 80 03 87 21 02 13 00 00  80 80 44 20 03 14 00 03  ...!......D ....
2040: 10 01 D4 20 02 13 00 03  80 80 54 20 03 14 00 05  ... ......T ....
2050: 10 01 D4 20 02 13 00 0E  80 80 64 20 03 14 00 07  ... ......d ....
2060: 10 01 D4 20 02 13 00 1F  80 80 74 20 03 14 00 09  ... ......t ....
2070: 10 01 D4 20 02 13 00 20  80 80 84 20 03 14 00 01  ... ... ... ....
2080: 17 01 D4 20 02 13 00 21  80 80 94 20 03 14 00 03  ... ...!... ....
2090: 17 01 D4 20 02 13 00 02  80 80 A4 20 03 14 00 05  ... ....... ....
20A0: 17 01 D4 20 02 13 00 22  80 80 B4 20 03 14 00 07  ... ..."... ....
20B0: 17 01 D4 20 02 13 00 23  80 80 C4 20 03 14 00 09  ... ...#... ....
20C0: 17 01 D4 20 02 13 00 24  80 80 D4 20 03 14 00 0B  ... ...$... ....
20D0: 17 01 D4 20 02 14 00 55  80 00 81 21 02 13 00 00  ... ...U...!....
20E0: 80 80 EC 20 03 04 10 57  80 01 7C 21 02 13 00 03  ... ...W..|!....
20F0: 80 80 FC 20 03 06 10 57  80 01 7C 21 02 13 00 0E  ... ...W..|!....
2100: 80 80 0C 21 03 08 10 57  80 01 7C 21 02 13 00 1F  ...!...W..|!....
2110: 80 80 1C 21 03 00 17 57  80 01 7C 21 02 13 00 20  ...!...W..|!... 
2120: 80 80 2C 21 03 02 17 57  80 01 7C 21 02 13 00 21  ..,!...W..|!...!
2130: 80 80 3C 21 03 04 17 57  80 01 7C 21 02 13 00 02  ..<!...W..|!....
2140: 80 80 4C 21 03 06 17 57  80 01 7C 21 02 13 00 22  ..L!...W..|!..."
2150: 80 80 5C 21 03 08 17 57  80 01 7C 21 02 13 00 23  ..\!...W..|!...#
2160: 80 80 6C 21 03 0A 17 57  80 01 7C 21 02 13 00 24  ..l!...W..|!...$
2170: 80 80 7C 21 03 0C 17 57  80 01 7C 21 03 13 00 1B  ..|!...W..|!....
2180: 80 0B 13 00 01 2C 20 1B                           ....., .        
```

#### Opcodes

```
  0: 0x0001 [0x20] SET_CLI_EVENT_UC_FLAG: Lock player control
  1: 0x0003 [0x03] ExtData[1]->WorkLocal[0] = 0*
  2: 0x0008 [0x03] ExtData[1]->WorkLocal[1] = 0*
  3: 0x000D [0x03] ExtData[1]->WorkLocal[2] = 0*
  4: 0x0012 [0x03] ExtData[1]->WorkLocal[3] = 0*
  5: 0x0017 [0x03] ExtData[1]->WorkLocal[4] = 0*
  6: 0x001C [0x03] ExtData[1]->WorkLocal[5] = 0*
  7: 0x0021 [0x03] ExtData[1]->WorkLocal[7] = 0*
  8: 0x0026 [0x03] ExtData[1]->WorkLocal[9] = 0*
  9: 0x002B [0x03] ExtData[1]->WorkLocal[10] = 0*
 10: 0x0030 [0x03] ExtData[1]->WorkLocal[11] = 0*
 11: 0x0035 [0x03] ExtData[1]->WorkLocal[12] = 0*
 12: 0x003A [0x03] ExtData[1]->WorkLocal[13] = 0*
 13: 0x003F [0x03] ExtData[1]->WorkLocal[14] = 0*
 14: 0x0044 [0x03] ExtData[1]->WorkLocal[15] = 0*
 15: 0x0049 [0x03] ExtData[1]->WorkLocal[0] = Work_Zone[2]
 16: 0x004E [0x03] ExtData[1]->WorkLocal[1] = Work_Zone[3]
 17: 0x0053 [0x03] ExtData[1]->WorkLocal[13] = Work_Zone[4]
 18: 0x0058 [0x03] ExtData[1]->WorkLocal[15] = Work_Zone[5]
 19: 0x005D [0x03] ExtData[1]->WorkLocal[17] = Work_Zone[6]
 20: 0x0062 [0x1D] PRINT_EVENT_MESSAGE(message_id=7380*)
     "Greetings, traveler. I am a resistance officer whose charge is the procurement of cruor. If you would be willing to part with any cruor you possess, I will issue you with helpful items in return."
 21: 0x0065 [0x23] WAIT_FOR_DIALOG_INTERACTION
 22: 0x0066 [0x05] ExtData[1]->WorkLocal[10] = 1
 23: 0x0069 [0x02] IF !(ExtData[1]->WorkLocal[10] <= 0*) GOTO 0x1983
 24: 0x0071 [0x03] ExtData[1]->WorkLocal[2] = 0*
 25: 0x0076 [0x03] ExtData[1]->WorkLocal[3] = 0*
 26: 0x007B [0x03] ExtData[1]->WorkLocal[4] = 0*
 27: 0x0080 [0x03] ExtData[1]->WorkLocal[7] = 0*
 28: 0x0085 [0x03] Work_Zone[2] = ExtData[1]->WorkLocal[0]
 29: 0x008A [0x02] IF !(ExtData[1]->WorkLocal[1] == 0*) GOTO 0x0099
 30: 0x0092 [0x3C] SET_BIT_FLAG_CONDITIONAL(target_work_offset=ExtData[1]->WorkLocal[8], bit_index_work_offset=6*, condition_work_offset=1*)
 31: 0x0099 [0x24] CREATE_DIALOG(message_id=7381*, default_option=0*, option_flags=ExtData[1]->WorkLocal[8])
     "What will you do? (Cruor balance: $0) [Nothing./Learn about cruor./Exchange for items./Exchange for temporary items./Exchange for key items./Exchange for enhancement effects./Dispose of abyssite.]"
 32: 0x00A0 [0x25] WAIT_DIALOG_SELECT()
 33: 0x00A1 [0x02] IF !(Work_Zone[0] == 0*) GOTO 0x00B4
 34: 0x00A9 [0x03] Work_Zone[1] = 1073741824*
 35: 0x00AE [0x06] ExtData[1]->WorkLocal[10] = 0
 36: 0x00B1 [0x01] GOTO 0x1980
 37: 0x00B4 [0x02] IF !(Work_Zone[0] == 1*) GOTO 0x00DF
 38: 0x00BC [0x1D] PRINT_EVENT_MESSAGE(message_id=7382*)
     "Cruor is a naturally occurring mineral found as deposits on creatures native to Abyssea."
 39: 0x00BF [0x23] WAIT_FOR_DIALOG_INTERACTION
 40: 0x00C0 [0x1D] PRINT_EVENT_MESSAGE(message_id=7383*)
     "Known by some as "blood gold," these red granules are highly prized and see use as both energy source and construction material."
 41: 0x00C3 [0x23] WAIT_FOR_DIALOG_INTERACTION
 42: 0x00C4 [0x1D] PRINT_EVENT_MESSAGE(message_id=7384*)
     "It would be no exaggeration to say that cruor is the lifeblood of the resistance effort. As a matter of fact, the bulk of items I have in stock are cruor-based."
 43: 0x00C7 [0x23] WAIT_FOR_DIALOG_INTERACTION
 44: 0x00C8 [0x1D] PRINT_EVENT_MESSAGE(message_id=7385*)
     "Chief among them being "ancient abyssite," a highly concentrated, doubly valuable form of the stone boasting diverse benefits."
 45: 0x00CB [0x23] WAIT_FOR_DIALOG_INTERACTION
 46: 0x00CC [0x1D] PRINT_EVENT_MESSAGE(message_id=7386*)
     "Ancient abyssite has been observed to improve the fortunes and vitality of their possessors, not unlike a good luck talisman."
 47: 0x00CF [0x23] WAIT_FOR_DIALOG_INTERACTION
 48: 0x00D0 [0x1D] PRINT_EVENT_MESSAGE(message_id=7387*)
     "The most popular varieties offer extended visitant status time, accelerated growth, and myriad enhancement effects. Some are even said to improve luck, but such benefits can be troublesome to measure."
 49: 0x00D3 [0x23] WAIT_FOR_DIALOG_INTERACTION
 50: 0x00D4 [0x1D] PRINT_EVENT_MESSAGE(message_id=7388*)
     "I am limited in the types of ancient abyssite I can issue. The opportunity to acquire rarer varieties, however, will surely visit you during your time in Abyssea."
 51: 0x00D7 [0x23] WAIT_FOR_DIALOG_INTERACTION
 52: 0x00D8 [0x1D] PRINT_EVENT_MESSAGE(message_id=7389*)
     "Besides the issuance of items, I am also authorized to imbue you with enhancement effects."
 53: 0x00DB [0x23] WAIT_FOR_DIALOG_INTERACTION
 54: 0x00DC [0x01] GOTO 0x1980
 55: 0x00DF [0x02] IF !(Work_Zone[0] == 2*) GOTO 0x07DE
 56: 0x00E7 [0x1A] CALL_SUBROUTINE(address=0x1986)
 57: 0x00EA [0x05] ExtData[1]->WorkLocal[11] = 1

SUBROUTINE_00ED:
 58: 0x00ED [0x02] IF !(ExtData[1]->WorkLocal[11] <= 0*) GOTO 0x07DB
 59: 0x00F5 [0x03] ExtData[1]->WorkLocal[3] = 0*
 60: 0x00FA [0x03] ExtData[1]->WorkLocal[4] = 0*
 61: 0x00FF [0x03] ExtData[1]->WorkLocal[7] = 0*
 62: 0x0104 [0x03] ExtData[1]->WorkLocal[9] = 0*
 63: 0x0109 [0x03] Work_Zone[2] = ExtData[1]->WorkLocal[0]
 64: 0x010E [0x02] IF !(ExtData[1]->WorkLocal[2] == 0*) GOTO 0x01A3
 65: 0x0116 [0x03] Work_Zone[3] = 12014*
 66: 0x011B [0x03] Work_Zone[4] = 5000*
 67: 0x0120 [0x03] Work_Zone[5] = 12015*
 68: 0x0125 [0x03] Work_Zone[6] = 5000*
 69: 0x012A [0x03] Work_Zone[7] = 12016*
 70: 0x012F [0x03] Work_Zone[8] = 5000*
 71: 0x0134 [0x03] Work_Zone[9] = 12017*
 72: 0x0139 [0x03] Work_Zone_1700[0] = 5000*
 73: 0x013E [0x03] Work_Zone_1700[1] = 12018*
 74: 0x0143 [0x03] Work_Zone_1700[2] = 5000*
 75: 0x0148 [0x03] Work_Zone_1700[3] = 2490*
 76: 0x014D [0x03] Work_Zone_1700[4] = 500*
 77: 0x0152 [0x03] Work_Zone_1700[5] = 10117*
 78: 0x0157 [0x03] Work_Zone_1700[6] = 5000*
 79: 0x015C [0x03] Work_Zone_1700[7] = 6410*
 80: 0x0161 [0x03] Work_Zone_1700[8] = 2000000*
 81: 0x0166 [0x03] Work_Zone_1700[9] = 0*
 82: 0x016B [0x03] Work_Zone_1700[10] = 0*
 83: 0x0170 [0x03] Work_Zone_1700[11] = 0*
 84: 0x0175 [0x03] Work_Zone_1700[12] = 0*
 85: 0x017A [0x02] IF !(ExtData[1]->WorkLocal[17] == 0*) GOTO 0x0187
 86: 0x0182 [0x03] Work_Zone_1700[5] = 0*
 87: 0x0187 [0x1A] CALL_SUBROUTINE(address=0x1F92)
 88: 0x018A [0x3C] SET_BIT_FLAG_CONDITIONAL(target_work_offset=ExtData[1]->WorkLocal[9], bit_index_work_offset=11*, condition_work_offset=1*)
 89: 0x0191 [0x02] IF !(ExtData[1]->WorkLocal[5] > 10*) GOTO 0x01A0
 90: 0x0199 [0x3C] SET_BIT_FLAG_CONDITIONAL(target_work_offset=ExtData[1]->WorkLocal[9], bit_index_work_offset=12*, condition_work_offset=1*)
 91: 0x01A0 [0x01] GOTO 0x029D
 92: 0x01A3 [0x02] IF !(ExtData[1]->WorkLocal[2] == 1*) GOTO 0x0224
 93: 0x01AB [0x03] Work_Zone[3] = 0*
 94: 0x01B0 [0x03] Work_Zone[4] = 0*
 95: 0x01B5 [0x03] Work_Zone[5] = 0*
 96: 0x01BA [0x03] Work_Zone[6] = 0*
 97: 0x01BF [0x03] Work_Zone[7] = 0*
 98: 0x01C4 [0x03] Work_Zone[8] = 0*
 99: 0x01C9 [0x03] Work_Zone[9] = 0*
100: 0x01CE [0x03] Work_Zone_1700[0] = 0*
101: 0x01D3 [0x03] Work_Zone_1700[1] = 0*
102: 0x01D8 [0x03] Work_Zone_1700[2] = 0*
103: 0x01DD [0x03] Work_Zone_1700[3] = 0*
104: 0x01E2 [0x03] Work_Zone_1700[4] = 0*
105: 0x01E7 [0x03] Work_Zone_1700[5] = 0*
106: 0x01EC [0x03] Work_Zone_1700[6] = 0*
107: 0x01F1 [0x03] Work_Zone_1700[7] = 0*
108: 0x01F6 [0x03] Work_Zone_1700[8] = 0*
109: 0x01FB [0x03] Work_Zone_1700[9] = 0*
110: 0x0200 [0x03] Work_Zone_1700[10] = 0*
111: 0x0205 [0x03] Work_Zone_1700[11] = 0*
112: 0x020A [0x03] Work_Zone_1700[12] = 0*
113: 0x020F [0x1A] CALL_SUBROUTINE(address=0x1F92)
114: 0x0212 [0x02] IF !(ExtData[1]->WorkLocal[5] > 20*) GOTO 0x0221
115: 0x021A [0x3C] SET_BIT_FLAG_CONDITIONAL(target_work_offset=ExtData[1]->WorkLocal[9], bit_index_work_offset=12*, condition_work_offset=1*)
116: 0x0221 [0x01] GOTO 0x029D
117: 0x0224 [0x02] IF !(ExtData[1]->WorkLocal[2] == 2*) GOTO 0x029D
118: 0x022C [0x03] Work_Zone[3] = 0*
119: 0x0231 [0x03] Work_Zone[4] = 0*
120: 0x0236 [0x03] Work_Zone[5] = 0*
121: 0x023B [0x03] Work_Zone[6] = 0*
122: 0x0240 [0x03] Work_Zone[7] = 0*
123: 0x0245 [0x03] Work_Zone[8] = 0*
124: 0x024A [0x03] Work_Zone[9] = 0*
125: 0x024F [0x03] Work_Zone_1700[0] = 0*
126: 0x0254 [0x03] Work_Zone_1700[1] = 0*
127: 0x0259 [0x03] Work_Zone_1700[2] = 0*
128: 0x025E [0x03] Work_Zone_1700[3] = 0*
129: 0x0263 [0x03] Work_Zone_1700[4] = 0*
130: 0x0268 [0x03] Work_Zone_1700[5] = 0*
131: 0x026D [0x03] Work_Zone_1700[6] = 0*
132: 0x0272 [0x03] Work_Zone_1700[7] = 0*
133: 0x0277 [0x03] Work_Zone_1700[8] = 0*
134: 0x027C [0x03] Work_Zone_1700[9] = 0*
135: 0x0281 [0x03] Work_Zone_1700[10] = 0*
136: 0x0286 [0x03] Work_Zone_1700[11] = 0*
137: 0x028B [0x03] Work_Zone_1700[12] = 0*
138: 0x0290 [0x1A] CALL_SUBROUTINE(address=0x1F92)
139: 0x0293 [0x3C] SET_BIT_FLAG_CONDITIONAL(target_work_offset=ExtData[1]->WorkLocal[9], bit_index_work_offset=12*, condition_work_offset=1*)
140: 0x029A [0x01] GOTO 0x029D

SUBROUTINE_029D:
141: 0x029D [0x24] CREATE_DIALOG(message_id=7390*, default_option=0*, option_flags=ExtData[1]->WorkLocal[9])
     "Select item. (Cruor: $0) [Nothing right now./$1: $2./$3: $4./$5: $6./$7: $8./$9: $10./$11: $12./$13: $14./$15: $16./$17: $18./$19: $20./Previous page./Next page.]"
142: 0x02A4 [0x25] WAIT_DIALOG_SELECT()
143: 0x02A5 [0x02] IF !(Work_Zone[0] == 0*) GOTO 0x02B3
144: 0x02AD [0x06] ExtData[1]->WorkLocal[11] = 0
145: 0x02B0 [0x01] GOTO 0x031F
146: 0x02B3 [0x02] IF !(Work_Zone[0] == 11*) GOTO 0x02E9
147: 0x02BB [0x02] IF !(ExtData[1]->WorkLocal[2] == 0*) GOTO 0x02C6
148: 0x02C3 [0x01] GOTO 0x02E6
149: 0x02C6 [0x02] IF !(ExtData[1]->WorkLocal[2] == 1*) GOTO 0x02D6
150: 0x02CE [0x03] ExtData[1]->WorkLocal[2] = 0*
151: 0x02D3 [0x01] GOTO 0x02E6
152: 0x02D6 [0x02] IF !(ExtData[1]->WorkLocal[2] == 2*) GOTO 0x02E6
153: 0x02DE [0x03] ExtData[1]->WorkLocal[2] = 1*
154: 0x02E3 [0x01] GOTO 0x02E6

SUBROUTINE_02E6:
155: 0x02E6 [0x01] GOTO 0x031F
156: 0x02E9 [0x02] IF !(Work_Zone[0] == 12*) GOTO 0x031F
157: 0x02F1 [0x02] IF !(ExtData[1]->WorkLocal[2] == 0*) GOTO 0x0301
158: 0x02F9 [0x03] ExtData[1]->WorkLocal[2] = 1*
159: 0x02FE [0x01] GOTO 0x031C
160: 0x0301 [0x02] IF !(ExtData[1]->WorkLocal[2] == 1*) GOTO 0x0311
161: 0x0309 [0x03] ExtData[1]->WorkLocal[2] = 2*
162: 0x030E [0x01] GOTO 0x031C
163: 0x0311 [0x02] IF !(ExtData[1]->WorkLocal[2] == 2*) GOTO 0x031C
164: 0x0319 [0x01] GOTO 0x031C

SUBROUTINE_031C:
165: 0x031C [0x01] GOTO 0x031F

SUBROUTINE_031F:
166: 0x031F [0x02] IF !(Work_Zone[0] < 1*) GOTO 0x07D8
167: 0x0327 [0x02] IF !(Work_Zone[0] > 10*) GOTO 0x07D8
168: 0x032F [0x02] IF !(ExtData[1]->WorkLocal[2] == 0*) GOTO 0x043E
169: 0x0337 [0x02] IF !(Work_Zone[0] == 1*) GOTO 0x0351
170: 0x033F [0x03] ExtData[1]->WorkLocal[3] = 12014*
171: 0x0344 [0x03] ExtData[1]->WorkLocal[4] = 5000*
172: 0x0349 [0x03] ExtData[1]->WorkLocal[7] = 1*
173: 0x034E [0x01] GOTO 0x043B
174: 0x0351 [0x02] IF !(Work_Zone[0] == 2*) GOTO 0x036B
175: 0x0359 [0x03] ExtData[1]->WorkLocal[3] = 12015*
176: 0x035E [0x03] ExtData[1]->WorkLocal[4] = 5000*
177: 0x0363 [0x03] ExtData[1]->WorkLocal[7] = 2*
178: 0x0368 [0x01] GOTO 0x043B
179: 0x036B [0x02] IF !(Work_Zone[0] == 3*) GOTO 0x0385
180: 0x0373 [0x03] ExtData[1]->WorkLocal[3] = 12016*
181: 0x0378 [0x03] ExtData[1]->WorkLocal[4] = 5000*
182: 0x037D [0x03] ExtData[1]->WorkLocal[7] = 3*
183: 0x0382 [0x01] GOTO 0x043B
184: 0x0385 [0x02] IF !(Work_Zone[0] == 4*) GOTO 0x039F
185: 0x038D [0x03] ExtData[1]->WorkLocal[3] = 12017*
186: 0x0392 [0x03] ExtData[1]->WorkLocal[4] = 5000*
187: 0x0397 [0x03] ExtData[1]->WorkLocal[7] = 4*
188: 0x039C [0x01] GOTO 0x043B
189: 0x039F [0x02] IF !(Work_Zone[0] == 5*) GOTO 0x03B9
190: 0x03A7 [0x03] ExtData[1]->WorkLocal[3] = 12018*
191: 0x03AC [0x03] ExtData[1]->WorkLocal[4] = 5000*
192: 0x03B1 [0x03] ExtData[1]->WorkLocal[7] = 5*
193: 0x03B6 [0x01] GOTO 0x043B
194: 0x03B9 [0x02] IF !(Work_Zone[0] == 6*) GOTO 0x03D3
195: 0x03C1 [0x03] ExtData[1]->WorkLocal[3] = 2490*
196: 0x03C6 [0x03] ExtData[1]->WorkLocal[4] = 500*
197: 0x03CB [0x03] ExtData[1]->WorkLocal[7] = 6*
198: 0x03D0 [0x01] GOTO 0x043B
199: 0x03D3 [0x02] IF !(Work_Zone[0] == 7*) GOTO 0x03ED
200: 0x03DB [0x03] ExtData[1]->WorkLocal[3] = 10117*
201: 0x03E0 [0x03] ExtData[1]->WorkLocal[4] = 5000*
202: 0x03E5 [0x03] ExtData[1]->WorkLocal[7] = 7*
203: 0x03EA [0x01] GOTO 0x043B
204: 0x03ED [0x02] IF !(Work_Zone[0] == 8*) GOTO 0x0407
205: 0x03F5 [0x03] ExtData[1]->WorkLocal[3] = 6410*
206: 0x03FA [0x03] ExtData[1]->WorkLocal[4] = 2000000*
207: 0x03FF [0x03] ExtData[1]->WorkLocal[7] = 8*
208: 0x0404 [0x01] GOTO 0x043B
209: 0x0407 [0x02] IF !(Work_Zone[0] == 9*) GOTO 0x0421
210: 0x040F [0x03] ExtData[1]->WorkLocal[3] = 0*
211: 0x0414 [0x03] ExtData[1]->WorkLocal[4] = 0*
212: 0x0419 [0x03] ExtData[1]->WorkLocal[7] = 9*
213: 0x041E [0x01] GOTO 0x043B
214: 0x0421 [0x02] IF !(Work_Zone[0] == 10*) GOTO 0x043B
215: 0x0429 [0x03] ExtData[1]->WorkLocal[3] = 0*
216: 0x042E [0x03] ExtData[1]->WorkLocal[4] = 0*
217: 0x0433 [0x03] ExtData[1]->WorkLocal[7] = 10*
218: 0x0438 [0x01] GOTO 0x043B

SUBROUTINE_043B:
219: 0x043B [0x01] GOTO 0x065C
220: 0x043E [0x02] IF !(ExtData[1]->WorkLocal[2] == 1*) GOTO 0x054D
221: 0x0446 [0x02] IF !(Work_Zone[0] == 1*) GOTO 0x0460
222: 0x044E [0x03] ExtData[1]->WorkLocal[3] = 0*
223: 0x0453 [0x03] ExtData[1]->WorkLocal[4] = 0*
224: 0x0458 [0x03] ExtData[1]->WorkLocal[7] = 11*
225: 0x045D [0x01] GOTO 0x054A
226: 0x0460 [0x02] IF !(Work_Zone[0] == 2*) GOTO 0x047A
227: 0x0468 [0x03] ExtData[1]->WorkLocal[3] = 0*
228: 0x046D [0x03] ExtData[1]->WorkLocal[4] = 0*
229: 0x0472 [0x03] ExtData[1]->WorkLocal[7] = 12*
230: 0x0477 [0x01] GOTO 0x054A
231: 0x047A [0x02] IF !(Work_Zone[0] == 3*) GOTO 0x0494
232: 0x0482 [0x03] ExtData[1]->WorkLocal[3] = 0*
233: 0x0487 [0x03] ExtData[1]->WorkLocal[4] = 0*
234: 0x048C [0x03] ExtData[1]->WorkLocal[7] = 13*
235: 0x0491 [0x01] GOTO 0x054A
236: 0x0494 [0x02] IF !(Work_Zone[0] == 4*) GOTO 0x04AE
237: 0x049C [0x03] ExtData[1]->WorkLocal[3] = 0*
238: 0x04A1 [0x03] ExtData[1]->WorkLocal[4] = 0*
239: 0x04A6 [0x03] ExtData[1]->WorkLocal[7] = 14*
240: 0x04AB [0x01] GOTO 0x054A
241: 0x04AE [0x02] IF !(Work_Zone[0] == 5*) GOTO 0x04C8
242: 0x04B6 [0x03] ExtData[1]->WorkLocal[3] = 0*
243: 0x04BB [0x03] ExtData[1]->WorkLocal[4] = 0*
244: 0x04C0 [0x03] ExtData[1]->WorkLocal[7] = 15*
245: 0x04C5 [0x01] GOTO 0x054A
246: 0x04C8 [0x02] IF !(Work_Zone[0] == 6*) GOTO 0x04E2
247: 0x04D0 [0x03] ExtData[1]->WorkLocal[3] = 0*
248: 0x04D5 [0x03] ExtData[1]->WorkLocal[4] = 0*
249: 0x04DA [0x03] ExtData[1]->WorkLocal[7] = 16*
250: 0x04DF [0x01] GOTO 0x054A
251: 0x04E2 [0x02] IF !(Work_Zone[0] == 7*) GOTO 0x04FC
252: 0x04EA [0x03] ExtData[1]->WorkLocal[3] = 0*
253: 0x04EF [0x03] ExtData[1]->WorkLocal[4] = 0*
254: 0x04F4 [0x03] ExtData[1]->WorkLocal[7] = 17*
255: 0x04F9 [0x01] GOTO 0x054A
256: 0x04FC [0x02] IF !(Work_Zone[0] == 8*) GOTO 0x0516
257: 0x0504 [0x03] ExtData[1]->WorkLocal[3] = 0*
258: 0x0509 [0x03] ExtData[1]->WorkLocal[4] = 0*
259: 0x050E [0x03] ExtData[1]->WorkLocal[7] = 18*
260: 0x0513 [0x01] GOTO 0x054A
261: 0x0516 [0x02] IF !(Work_Zone[0] == 9*) GOTO 0x0530
262: 0x051E [0x03] ExtData[1]->WorkLocal[3] = 0*
263: 0x0523 [0x03] ExtData[1]->WorkLocal[4] = 0*
264: 0x0528 [0x03] ExtData[1]->WorkLocal[7] = 19*
265: 0x052D [0x01] GOTO 0x054A
266: 0x0530 [0x02] IF !(Work_Zone[0] == 10*) GOTO 0x054A
267: 0x0538 [0x03] ExtData[1]->WorkLocal[3] = 0*
268: 0x053D [0x03] ExtData[1]->WorkLocal[4] = 0*
269: 0x0542 [0x03] ExtData[1]->WorkLocal[7] = 20*
270: 0x0547 [0x01] GOTO 0x054A

SUBROUTINE_054A:
271: 0x054A [0x01] GOTO 0x065C
272: 0x054D [0x02] IF !(ExtData[1]->WorkLocal[2] == 2*) GOTO 0x065C
273: 0x0555 [0x02] IF !(Work_Zone[0] == 1*) GOTO 0x056F
274: 0x055D [0x03] ExtData[1]->WorkLocal[3] = 0*
275: 0x0562 [0x03] ExtData[1]->WorkLocal[4] = 0*
276: 0x0567 [0x03] ExtData[1]->WorkLocal[7] = 21*
277: 0x056C [0x01] GOTO 0x0659
278: 0x056F [0x02] IF !(Work_Zone[0] == 2*) GOTO 0x0589
279: 0x0577 [0x03] ExtData[1]->WorkLocal[3] = 0*
280: 0x057C [0x03] ExtData[1]->WorkLocal[4] = 0*
281: 0x0581 [0x03] ExtData[1]->WorkLocal[7] = 22*
282: 0x0586 [0x01] GOTO 0x0659
283: 0x0589 [0x02] IF !(Work_Zone[0] == 3*) GOTO 0x05A3
284: 0x0591 [0x03] ExtData[1]->WorkLocal[3] = 0*
285: 0x0596 [0x03] ExtData[1]->WorkLocal[4] = 0*
286: 0x059B [0x03] ExtData[1]->WorkLocal[7] = 23*
287: 0x05A0 [0x01] GOTO 0x0659
288: 0x05A3 [0x02] IF !(Work_Zone[0] == 4*) GOTO 0x05BD
289: 0x05AB [0x03] ExtData[1]->WorkLocal[3] = 0*
290: 0x05B0 [0x03] ExtData[1]->WorkLocal[4] = 0*
291: 0x05B5 [0x03] ExtData[1]->WorkLocal[7] = 24*
292: 0x05BA [0x01] GOTO 0x0659
293: 0x05BD [0x02] IF !(Work_Zone[0] == 5*) GOTO 0x05D7
294: 0x05C5 [0x03] ExtData[1]->WorkLocal[3] = 0*
295: 0x05CA [0x03] ExtData[1]->WorkLocal[4] = 0*
296: 0x05CF [0x03] ExtData[1]->WorkLocal[7] = 25*
297: 0x05D4 [0x01] GOTO 0x0659
298: 0x05D7 [0x02] IF !(Work_Zone[0] == 6*) GOTO 0x05F1
299: 0x05DF [0x03] ExtData[1]->WorkLocal[3] = 0*
300: 0x05E4 [0x03] ExtData[1]->WorkLocal[4] = 0*
301: 0x05E9 [0x03] ExtData[1]->WorkLocal[7] = 26*
302: 0x05EE [0x01] GOTO 0x0659
303: 0x05F1 [0x02] IF !(Work_Zone[0] == 7*) GOTO 0x060B
304: 0x05F9 [0x03] ExtData[1]->WorkLocal[3] = 0*
305: 0x05FE [0x03] ExtData[1]->WorkLocal[4] = 0*
306: 0x0603 [0x03] ExtData[1]->WorkLocal[7] = 27*
307: 0x0608 [0x01] GOTO 0x0659
308: 0x060B [0x02] IF !(Work_Zone[0] == 8*) GOTO 0x0625
309: 0x0613 [0x03] ExtData[1]->WorkLocal[3] = 0*
310: 0x0618 [0x03] ExtData[1]->WorkLocal[4] = 0*
311: 0x061D [0x03] ExtData[1]->WorkLocal[7] = 28*
312: 0x0622 [0x01] GOTO 0x0659
313: 0x0625 [0x02] IF !(Work_Zone[0] == 9*) GOTO 0x063F
314: 0x062D [0x03] ExtData[1]->WorkLocal[3] = 0*
315: 0x0632 [0x03] ExtData[1]->WorkLocal[4] = 0*
316: 0x0637 [0x03] ExtData[1]->WorkLocal[7] = 29*
317: 0x063C [0x01] GOTO 0x0659
318: 0x063F [0x02] IF !(Work_Zone[0] == 10*) GOTO 0x0659
319: 0x0647 [0x03] ExtData[1]->WorkLocal[3] = 0*
320: 0x064C [0x03] ExtData[1]->WorkLocal[4] = 0*
321: 0x0651 [0x03] ExtData[1]->WorkLocal[7] = 30*
322: 0x0656 [0x01] GOTO 0x0659

SUBROUTINE_0659:
323: 0x0659 [0x01] GOTO 0x065C

SUBROUTINE_065C:
324: 0x065C [0x93] DISPLAY_ITEM_INFO(item_id=ExtData[1]->WorkLocal[3])
325: 0x065F [0x03] Work_Zone[2] = ExtData[1]->WorkLocal[3]
326: 0x0664 [0x48] [System] [7395*]:
     "Trade for $0?"
327: 0x0667 [0x23] WAIT_FOR_DIALOG_INTERACTION
328: 0x0668 [0x93] DISPLAY_ITEM_INFO(item_id=0*)
329: 0x066B [0x02] IF !(ExtData[1]->WorkLocal[3] == 2490*) GOTO 0x078E
330: 0x0673 [0x03] ExtData[1]->WorkLocal[14] = 0*
331: 0x0678 [0x03] Work_Zone[2] = ExtData[1]->WorkLocal[0]
332: 0x067D [0x03] Work_Zone[3] = 1*
333: 0x0682 [0x03] Work_Zone[4] = 500*
334: 0x0687 [0x03] Work_Zone[5] = 5*
335: 0x068C [0x03] Work_Zone[6] = 2500*
336: 0x0691 [0x03] Work_Zone[7] = 10*
337: 0x0696 [0x03] Work_Zone[8] = 5000*
338: 0x069B [0x03] Work_Zone[9] = 30*
339: 0x06A0 [0x03] Work_Zone_1700[0] = 15000*
340: 0x06A5 [0x03] Work_Zone_1700[1] = 50*
341: 0x06AA [0x03] Work_Zone_1700[2] = 25000*
342: 0x06AF [0x24] CREATE_DIALOG(message_id=7427*, default_option=0*, option_flags=0*)
     "Trade for how many? (Cruor balance: $0) [None for now./$1 ($2 cruor)./$3 ($4 cruor)./$5i$6 cruor)./$7i$8 cruor)./$9 ($10 cruor).]"
343: 0x06B6 [0x25] WAIT_DIALOG_SELECT()
344: 0x06B7 [0x02] IF !(Work_Zone[0] == 0*) GOTO 0x06C2
345: 0x06BF [0x01] GOTO 0x072B
346: 0x06C2 [0x02] IF !(Work_Zone[0] == 1*) GOTO 0x06D7
347: 0x06CA [0x03] ExtData[1]->WorkLocal[14] = 1*
348: 0x06CF [0x03] ExtData[1]->WorkLocal[4] = 500*
349: 0x06D4 [0x01] GOTO 0x072B
350: 0x06D7 [0x02] IF !(Work_Zone[0] == 2*) GOTO 0x06EC
351: 0x06DF [0x03] ExtData[1]->WorkLocal[14] = 5*
352: 0x06E4 [0x03] ExtData[1]->WorkLocal[4] = 2500*
353: 0x06E9 [0x01] GOTO 0x072B
354: 0x06EC [0x02] IF !(Work_Zone[0] == 3*) GOTO 0x0701
355: 0x06F4 [0x03] ExtData[1]->WorkLocal[14] = 10*
356: 0x06F9 [0x03] ExtData[1]->WorkLocal[4] = 5000*
357: 0x06FE [0x01] GOTO 0x072B
358: 0x0701 [0x02] IF !(Work_Zone[0] == 4*) GOTO 0x0716
359: 0x0709 [0x03] ExtData[1]->WorkLocal[14] = 30*
360: 0x070E [0x03] ExtData[1]->WorkLocal[4] = 15000*
361: 0x0713 [0x01] GOTO 0x072B
362: 0x0716 [0x02] IF !(Work_Zone[0] == 5*) GOTO 0x072B
363: 0x071E [0x03] ExtData[1]->WorkLocal[14] = 50*
364: 0x0723 [0x03] ExtData[1]->WorkLocal[4] = 25000*
365: 0x0728 [0x01] GOTO 0x072B

SUBROUTINE_072B:
366: 0x072B [0x02] IF !(ExtData[1]->WorkLocal[14] <= 0*) GOTO 0x078B
367: 0x0733 [0x03] Work_Zone[2] = 2490*
368: 0x0738 [0x03] Work_Zone[3] = ExtData[1]->WorkLocal[14]
369: 0x073D [0x24] CREATE_DIALOG(message_id=7428*, default_option=1*, option_flags=0*)
     "Trade for $1 of the item? [Yes./No.]"
370: 0x0744 [0x25] WAIT_DIALOG_SELECT()
371: 0x0745 [0x02] IF !(Work_Zone[0] == 0*) GOTO 0x0780
372: 0x074D [0x02] IF !(ExtData[1]->WorkLocal[0] < ExtData[1]->WorkLocal[4]) GOTO 0x0779
373: 0x0755 [0x40] SET_BIT_WORK_RANGE(start_bit=0*, end_bit=15*, target=Work_Zone[1], source=1*)
374: 0x075E [0x40] SET_BIT_WORK_RANGE(start_bit=16*, end_bit=23*, target=Work_Zone[1], source=ExtData[1]->WorkLocal[7])
375: 0x0767 [0x40] SET_BIT_WORK_RANGE(start_bit=24*, end_bit=31*, target=Work_Zone[1], source=ExtData[1]->WorkLocal[14])
376: 0x0770 [0x06] ExtData[1]->WorkLocal[11] = 0
377: 0x0773 [0x06] ExtData[1]->WorkLocal[10] = 0
378: 0x0776 [0x01] GOTO 0x077D
379: 0x0779 [0x1D] PRINT_EVENT_MESSAGE(message_id=7408*)
     "You do not have enough cruor."
380: 0x077C [0x23] WAIT_FOR_DIALOG_INTERACTION

SUBROUTINE_077D:
381: 0x077D [0x01] GOTO 0x078B
382: 0x0780 [0x02] IF !(Work_Zone[0] == 1*) GOTO 0x078B
383: 0x0788 [0x01] GOTO 0x078B

SUBROUTINE_078B:
384: 0x078B [0x01] GOTO 0x07D8
385: 0x078E [0x03] Work_Zone[2] = ExtData[1]->WorkLocal[3]
386: 0x0793 [0x24] CREATE_DIALOG(message_id=7397*, default_option=1*, option_flags=0*)
     "Trade for $0? [Yes./No.]"
387: 0x079A [0x25] WAIT_DIALOG_SELECT()
388: 0x079B [0x02] IF !(Work_Zone[0] == 0*) GOTO 0x07CD
389: 0x07A3 [0x02] IF !(ExtData[1]->WorkLocal[0] < ExtData[1]->WorkLocal[4]) GOTO 0x07C6
390: 0x07AB [0x40] SET_BIT_WORK_RANGE(start_bit=0*, end_bit=15*, target=Work_Zone[1], source=1*)
391: 0x07B4 [0x40] SET_BIT_WORK_RANGE(start_bit=16*, end_bit=23*, target=Work_Zone[1], source=ExtData[1]->WorkLocal[7])
392: 0x07BD [0x06] ExtData[1]->WorkLocal[11] = 0
393: 0x07C0 [0x06] ExtData[1]->WorkLocal[10] = 0
394: 0x07C3 [0x01] GOTO 0x07CA
395: 0x07C6 [0x1D] PRINT_EVENT_MESSAGE(message_id=7408*)
     "You do not have enough cruor."
396: 0x07C9 [0x23] WAIT_FOR_DIALOG_INTERACTION

SUBROUTINE_07CA:
397: 0x07CA [0x01] GOTO 0x07D8
398: 0x07CD [0x02] IF !(Work_Zone[0] == 1*) GOTO 0x07D8
399: 0x07D5 [0x01] GOTO 0x07D8

SUBROUTINE_07D8:
400: 0x07D8 [0x01] GOTO 0x00ED
401: 0x07DB [0x01] GOTO 0x1980
402: 0x07DE [0x02] IF !(Work_Zone[0] == 3*) GOTO 0x0DDD
403: 0x07E6 [0x1A] CALL_SUBROUTINE(address=0x1B8A)
404: 0x07E9 [0x05] ExtData[1]->WorkLocal[11] = 1

SUBROUTINE_07EC:
405: 0x07EC [0x02] IF !(ExtData[1]->WorkLocal[11] <= 0*) GOTO 0x0DDA
406: 0x07F4 [0x03] ExtData[1]->WorkLocal[3] = 0*
407: 0x07F9 [0x03] ExtData[1]->WorkLocal[4] = 0*
408: 0x07FE [0x03] ExtData[1]->WorkLocal[7] = 0*
409: 0x0803 [0x03] ExtData[1]->WorkLocal[9] = 0*
410: 0x0808 [0x03] Work_Zone[2] = ExtData[1]->WorkLocal[0]
411: 0x080D [0x02] IF !(ExtData[1]->WorkLocal[2] == 0*) GOTO 0x0895
412: 0x0815 [0x03] Work_Zone[3] = 5824*
413: 0x081A [0x03] Work_Zone[4] = 80*
414: 0x081F [0x03] Work_Zone[5] = 5827*
415: 0x0824 [0x03] Work_Zone[6] = 80*
416: 0x0829 [0x03] Work_Zone[7] = 4206*
417: 0x082E [0x03] Work_Zone[8] = 80*
418: 0x0833 [0x03] Work_Zone[9] = 5433*
419: 0x0838 [0x03] Work_Zone_1700[0] = 120*
420: 0x083D [0x03] Work_Zone_1700[1] = 5837*
421: 0x0842 [0x03] Work_Zone_1700[2] = 120*
422: 0x0847 [0x03] Work_Zone_1700[3] = 5839*
423: 0x084C [0x03] Work_Zone_1700[4] = 150*
424: 0x0851 [0x03] Work_Zone_1700[5] = 5841*
425: 0x0856 [0x03] Work_Zone_1700[6] = 150*
426: 0x085B [0x03] Work_Zone_1700[7] = 5843*
427: 0x0860 [0x03] Work_Zone_1700[8] = 150*
428: 0x0865 [0x03] Work_Zone_1700[9] = 5825*
429: 0x086A [0x03] Work_Zone_1700[10] = 200*
430: 0x086F [0x03] Work_Zone_1700[11] = 5828*
431: 0x0874 [0x03] Work_Zone_1700[12] = 200*
432: 0x0879 [0x1A] CALL_SUBROUTINE(address=0x1F92)
433: 0x087C [0x3C] SET_BIT_FLAG_CONDITIONAL(target_work_offset=ExtData[1]->WorkLocal[9], bit_index_work_offset=11*, condition_work_offset=1*)
434: 0x0883 [0x02] IF !(ExtData[1]->WorkLocal[5] > 10*) GOTO 0x0892
435: 0x088B [0x3C] SET_BIT_FLAG_CONDITIONAL(target_work_offset=ExtData[1]->WorkLocal[9], bit_index_work_offset=12*, condition_work_offset=1*)
436: 0x0892 [0x01] GOTO 0x098F
437: 0x0895 [0x02] IF !(ExtData[1]->WorkLocal[2] == 1*) GOTO 0x0916
438: 0x089D [0x03] Work_Zone[3] = 5830*
439: 0x08A2 [0x03] Work_Zone[4] = 300*
440: 0x08A7 [0x03] Work_Zone[5] = 5322*
441: 0x08AC [0x03] Work_Zone[6] = 300*
442: 0x08B1 [0x03] Work_Zone[7] = 4255*
443: 0x08B6 [0x03] Work_Zone[8] = 300*
444: 0x08BB [0x03] Work_Zone[9] = 5835*
445: 0x08C0 [0x03] Work_Zone_1700[0] = 300*
446: 0x08C5 [0x03] Work_Zone_1700[1] = 5439*
447: 0x08CA [0x03] Work_Zone_1700[2] = 300*
448: 0x08CF [0x03] Work_Zone_1700[3] = 5838*
449: 0x08D4 [0x03] Work_Zone_1700[4] = 300*
450: 0x08D9 [0x03] Work_Zone_1700[5] = 5853*
451: 0x08DE [0x03] Work_Zone_1700[6] = 2000000*
452: 0x08E3 [0x03] Work_Zone_1700[7] = 0*
453: 0x08E8 [0x03] Work_Zone_1700[8] = 0*
454: 0x08ED [0x03] Work_Zone_1700[9] = 0*
455: 0x08F2 [0x03] Work_Zone_1700[10] = 0*
456: 0x08F7 [0x03] Work_Zone_1700[11] = 0*
457: 0x08FC [0x03] Work_Zone_1700[12] = 0*
458: 0x0901 [0x1A] CALL_SUBROUTINE(address=0x1F92)
459: 0x0904 [0x02] IF !(ExtData[1]->WorkLocal[5] > 20*) GOTO 0x0913
460: 0x090C [0x3C] SET_BIT_FLAG_CONDITIONAL(target_work_offset=ExtData[1]->WorkLocal[9], bit_index_work_offset=12*, condition_work_offset=1*)
461: 0x0913 [0x01] GOTO 0x098F
462: 0x0916 [0x02] IF !(ExtData[1]->WorkLocal[2] == 2*) GOTO 0x098F
463: 0x091E [0x03] Work_Zone[3] = 0*
464: 0x0923 [0x03] Work_Zone[4] = 0*
465: 0x0928 [0x03] Work_Zone[5] = 0*
466: 0x092D [0x03] Work_Zone[6] = 0*
467: 0x0932 [0x03] Work_Zone[7] = 0*
468: 0x0937 [0x03] Work_Zone[8] = 0*
469: 0x093C [0x03] Work_Zone[9] = 0*
470: 0x0941 [0x03] Work_Zone_1700[0] = 0*
471: 0x0946 [0x03] Work_Zone_1700[1] = 0*
472: 0x094B [0x03] Work_Zone_1700[2] = 0*
473: 0x0950 [0x03] Work_Zone_1700[3] = 0*
474: 0x0955 [0x03] Work_Zone_1700[4] = 0*
475: 0x095A [0x03] Work_Zone_1700[5] = 0*
476: 0x095F [0x03] Work_Zone_1700[6] = 0*
477: 0x0964 [0x03] Work_Zone_1700[7] = 0*
478: 0x0969 [0x03] Work_Zone_1700[8] = 0*
479: 0x096E [0x03] Work_Zone_1700[9] = 0*
480: 0x0973 [0x03] Work_Zone_1700[10] = 0*
481: 0x0978 [0x03] Work_Zone_1700[11] = 0*
482: 0x097D [0x03] Work_Zone_1700[12] = 0*
483: 0x0982 [0x1A] CALL_SUBROUTINE(address=0x1F92)
484: 0x0985 [0x3C] SET_BIT_FLAG_CONDITIONAL(target_work_offset=ExtData[1]->WorkLocal[9], bit_index_work_offset=12*, condition_work_offset=1*)
485: 0x098C [0x01] GOTO 0x098F

SUBROUTINE_098F:
486: 0x098F [0x02] IF !(ExtData[1]->WorkLocal[15] == 1*) GOTO 0x099A
487: 0x0997 [0x1A] CALL_SUBROUTINE(address=0x2029)
488: 0x099A [0x24] CREATE_DIALOG(message_id=7391*, default_option=0*, option_flags=ExtData[1]->WorkLocal[9])
     "Select item. (Cruor: $0) [Nothing right now./$1: $2./$3: $4./$5: $6./$7: $8./$9: $10./$11: $12./$13: $14./$15: $16./$17: $18./$19: $20./Previous page./Next page.]"
489: 0x09A1 [0x25] WAIT_DIALOG_SELECT()
490: 0x09A2 [0x02] IF !(Work_Zone[0] == 0*) GOTO 0x09B0
491: 0x09AA [0x06] ExtData[1]->WorkLocal[11] = 0
492: 0x09AD [0x01] GOTO 0x0A1C
493: 0x09B0 [0x02] IF !(Work_Zone[0] == 11*) GOTO 0x09E6
494: 0x09B8 [0x02] IF !(ExtData[1]->WorkLocal[2] == 0*) GOTO 0x09C3
495: 0x09C0 [0x01] GOTO 0x09E3
496: 0x09C3 [0x02] IF !(ExtData[1]->WorkLocal[2] == 1*) GOTO 0x09D3
497: 0x09CB [0x03] ExtData[1]->WorkLocal[2] = 0*
498: 0x09D0 [0x01] GOTO 0x09E3
499: 0x09D3 [0x02] IF !(ExtData[1]->WorkLocal[2] == 2*) GOTO 0x09E3
500: 0x09DB [0x03] ExtData[1]->WorkLocal[2] = 1*
501: 0x09E0 [0x01] GOTO 0x09E3

SUBROUTINE_09E3:
502: 0x09E3 [0x01] GOTO 0x0A1C
503: 0x09E6 [0x02] IF !(Work_Zone[0] == 12*) GOTO 0x0A1C
504: 0x09EE [0x02] IF !(ExtData[1]->WorkLocal[2] == 0*) GOTO 0x09FE
505: 0x09F6 [0x03] ExtData[1]->WorkLocal[2] = 1*
506: 0x09FB [0x01] GOTO 0x0A19
507: 0x09FE [0x02] IF !(ExtData[1]->WorkLocal[2] == 1*) GOTO 0x0A0E
508: 0x0A06 [0x03] ExtData[1]->WorkLocal[2] = 2*
509: 0x0A0B [0x01] GOTO 0x0A19
510: 0x0A0E [0x02] IF !(ExtData[1]->WorkLocal[2] == 2*) GOTO 0x0A19
511: 0x0A16 [0x01] GOTO 0x0A19

SUBROUTINE_0A19:
512: 0x0A19 [0x01] GOTO 0x0A1C

SUBROUTINE_0A1C:
513: 0x0A1C [0x02] IF !(Work_Zone[0] < 1*) GOTO 0x0DD7
514: 0x0A24 [0x02] IF !(Work_Zone[0] > 10*) GOTO 0x0DD7
515: 0x0A2C [0x02] IF !(ExtData[1]->WorkLocal[2] == 0*) GOTO 0x0B3B
516: 0x0A34 [0x02] IF !(Work_Zone[0] == 1*) GOTO 0x0A4E
517: 0x0A3C [0x03] ExtData[1]->WorkLocal[3] = 5824*
518: 0x0A41 [0x03] ExtData[1]->WorkLocal[4] = 80*
519: 0x0A46 [0x03] ExtData[1]->WorkLocal[7] = 1*
520: 0x0A4B [0x01] GOTO 0x0B38
521: 0x0A4E [0x02] IF !(Work_Zone[0] == 2*) GOTO 0x0A68
522: 0x0A56 [0x03] ExtData[1]->WorkLocal[3] = 5827*
523: 0x0A5B [0x03] ExtData[1]->WorkLocal[4] = 80*
524: 0x0A60 [0x03] ExtData[1]->WorkLocal[7] = 2*
525: 0x0A65 [0x01] GOTO 0x0B38
526: 0x0A68 [0x02] IF !(Work_Zone[0] == 3*) GOTO 0x0A82
527: 0x0A70 [0x03] ExtData[1]->WorkLocal[3] = 4206*
528: 0x0A75 [0x03] ExtData[1]->WorkLocal[4] = 80*
529: 0x0A7A [0x03] ExtData[1]->WorkLocal[7] = 3*
530: 0x0A7F [0x01] GOTO 0x0B38
531: 0x0A82 [0x02] IF !(Work_Zone[0] == 4*) GOTO 0x0A9C
532: 0x0A8A [0x03] ExtData[1]->WorkLocal[3] = 5433*
533: 0x0A8F [0x03] ExtData[1]->WorkLocal[4] = 120*
534: 0x0A94 [0x03] ExtData[1]->WorkLocal[7] = 4*
535: 0x0A99 [0x01] GOTO 0x0B38
536: 0x0A9C [0x02] IF !(Work_Zone[0] == 5*) GOTO 0x0AB6
537: 0x0AA4 [0x03] ExtData[1]->WorkLocal[3] = 5837*
538: 0x0AA9 [0x03] ExtData[1]->WorkLocal[4] = 120*
539: 0x0AAE [0x03] ExtData[1]->WorkLocal[7] = 5*
540: 0x0AB3 [0x01] GOTO 0x0B38
541: 0x0AB6 [0x02] IF !(Work_Zone[0] == 6*) GOTO 0x0AD0
542: 0x0ABE [0x03] ExtData[1]->WorkLocal[3] = 5839*
543: 0x0AC3 [0x03] ExtData[1]->WorkLocal[4] = 150*
544: 0x0AC8 [0x03] ExtData[1]->WorkLocal[7] = 6*
545: 0x0ACD [0x01] GOTO 0x0B38
546: 0x0AD0 [0x02] IF !(Work_Zone[0] == 7*) GOTO 0x0AEA
547: 0x0AD8 [0x03] ExtData[1]->WorkLocal[3] = 5841*
548: 0x0ADD [0x03] ExtData[1]->WorkLocal[4] = 150*
549: 0x0AE2 [0x03] ExtData[1]->WorkLocal[7] = 7*
550: 0x0AE7 [0x01] GOTO 0x0B38
551: 0x0AEA [0x02] IF !(Work_Zone[0] == 8*) GOTO 0x0B04
552: 0x0AF2 [0x03] ExtData[1]->WorkLocal[3] = 5843*
553: 0x0AF7 [0x03] ExtData[1]->WorkLocal[4] = 150*
554: 0x0AFC [0x03] ExtData[1]->WorkLocal[7] = 8*
555: 0x0B01 [0x01] GOTO 0x0B38
556: 0x0B04 [0x02] IF !(Work_Zone[0] == 9*) GOTO 0x0B1E
557: 0x0B0C [0x03] ExtData[1]->WorkLocal[3] = 5825*
558: 0x0B11 [0x03] ExtData[1]->WorkLocal[4] = 200*
559: 0x0B16 [0x03] ExtData[1]->WorkLocal[7] = 9*
560: 0x0B1B [0x01] GOTO 0x0B38
561: 0x0B1E [0x02] IF !(Work_Zone[0] == 10*) GOTO 0x0B38
562: 0x0B26 [0x03] ExtData[1]->WorkLocal[3] = 5828*
563: 0x0B2B [0x03] ExtData[1]->WorkLocal[4] = 200*
564: 0x0B30 [0x03] ExtData[1]->WorkLocal[7] = 10*
565: 0x0B35 [0x01] GOTO 0x0B38

SUBROUTINE_0B38:
566: 0x0B38 [0x01] GOTO 0x0D69
567: 0x0B3B [0x02] IF !(ExtData[1]->WorkLocal[2] == 1*) GOTO 0x0C5A
568: 0x0B43 [0x02] IF !(Work_Zone[0] == 1*) GOTO 0x0B5D
569: 0x0B4B [0x03] ExtData[1]->WorkLocal[3] = 5830*
570: 0x0B50 [0x03] ExtData[1]->WorkLocal[4] = 300*
571: 0x0B55 [0x03] ExtData[1]->WorkLocal[7] = 11*
572: 0x0B5A [0x01] GOTO 0x0C57
573: 0x0B5D [0x02] IF !(Work_Zone[0] == 2*) GOTO 0x0B77
574: 0x0B65 [0x03] ExtData[1]->WorkLocal[3] = 5322*
575: 0x0B6A [0x03] ExtData[1]->WorkLocal[4] = 300*
576: 0x0B6F [0x03] ExtData[1]->WorkLocal[7] = 12*
577: 0x0B74 [0x01] GOTO 0x0C57
578: 0x0B77 [0x02] IF !(Work_Zone[0] == 3*) GOTO 0x0B91
579: 0x0B7F [0x03] ExtData[1]->WorkLocal[3] = 4255*
580: 0x0B84 [0x03] ExtData[1]->WorkLocal[4] = 300*
581: 0x0B89 [0x03] ExtData[1]->WorkLocal[7] = 13*
582: 0x0B8E [0x01] GOTO 0x0C57
583: 0x0B91 [0x02] IF !(Work_Zone[0] == 4*) GOTO 0x0BAB
584: 0x0B99 [0x03] ExtData[1]->WorkLocal[3] = 5835*
585: 0x0B9E [0x03] ExtData[1]->WorkLocal[4] = 300*
586: 0x0BA3 [0x03] ExtData[1]->WorkLocal[7] = 14*
587: 0x0BA8 [0x01] GOTO 0x0C57
588: 0x0BAB [0x02] IF !(Work_Zone[0] == 5*) GOTO 0x0BC5
589: 0x0BB3 [0x03] ExtData[1]->WorkLocal[3] = 5439*
590: 0x0BB8 [0x03] ExtData[1]->WorkLocal[4] = 300*
591: 0x0BBD [0x03] ExtData[1]->WorkLocal[7] = 15*
592: 0x0BC2 [0x01] GOTO 0x0C57
593: 0x0BC5 [0x02] IF !(Work_Zone[0] == 6*) GOTO 0x0BDF
594: 0x0BCD [0x03] ExtData[1]->WorkLocal[3] = 5838*
595: 0x0BD2 [0x03] ExtData[1]->WorkLocal[4] = 300*
596: 0x0BD7 [0x03] ExtData[1]->WorkLocal[7] = 16*
597: 0x0BDC [0x01] GOTO 0x0C57
598: 0x0BDF [0x02] IF !(Work_Zone[0] == 7*) GOTO 0x0C09
599: 0x0BE7 [0x03] ExtData[1]->WorkLocal[3] = 5853*
600: 0x0BEC [0x02] IF !(ExtData[1]->WorkLocal[15] == 0*) GOTO 0x0BFC
601: 0x0BF4 [0x03] ExtData[1]->WorkLocal[4] = 2000000*
602: 0x0BF9 [0x01] GOTO 0x0C01
603: 0x0BFC [0x03] ExtData[1]->WorkLocal[4] = 200000*

SUBROUTINE_0C01:
604: 0x0C01 [0x03] ExtData[1]->WorkLocal[7] = 17*
605: 0x0C06 [0x01] GOTO 0x0C57
606: 0x0C09 [0x02] IF !(Work_Zone[0] == 8*) GOTO 0x0C23
607: 0x0C11 [0x03] ExtData[1]->WorkLocal[3] = 0*
608: 0x0C16 [0x03] ExtData[1]->WorkLocal[4] = 0*
609: 0x0C1B [0x03] ExtData[1]->WorkLocal[7] = 18*
610: 0x0C20 [0x01] GOTO 0x0C57
611: 0x0C23 [0x02] IF !(Work_Zone[0] == 9*) GOTO 0x0C3D
612: 0x0C2B [0x03] ExtData[1]->WorkLocal[3] = 0*
613: 0x0C30 [0x03] ExtData[1]->WorkLocal[4] = 0*
614: 0x0C35 [0x03] ExtData[1]->WorkLocal[7] = 19*
615: 0x0C3A [0x01] GOTO 0x0C57
616: 0x0C3D [0x02] IF !(Work_Zone[0] == 10*) GOTO 0x0C57
617: 0x0C45 [0x03] ExtData[1]->WorkLocal[3] = 0*
618: 0x0C4A [0x03] ExtData[1]->WorkLocal[4] = 0*
619: 0x0C4F [0x03] ExtData[1]->WorkLocal[7] = 20*
620: 0x0C54 [0x01] GOTO 0x0C57

SUBROUTINE_0C57:
621: 0x0C57 [0x01] GOTO 0x0D69
622: 0x0C5A [0x02] IF !(ExtData[1]->WorkLocal[2] == 2*) GOTO 0x0D69
623: 0x0C62 [0x02] IF !(Work_Zone[0] == 1*) GOTO 0x0C7C
624: 0x0C6A [0x03] ExtData[1]->WorkLocal[3] = 0*
625: 0x0C6F [0x03] ExtData[1]->WorkLocal[4] = 0*
626: 0x0C74 [0x03] ExtData[1]->WorkLocal[7] = 21*
627: 0x0C79 [0x01] GOTO 0x0D66
628: 0x0C7C [0x02] IF !(Work_Zone[0] == 2*) GOTO 0x0C96
629: 0x0C84 [0x03] ExtData[1]->WorkLocal[3] = 0*
630: 0x0C89 [0x03] ExtData[1]->WorkLocal[4] = 0*
631: 0x0C8E [0x03] ExtData[1]->WorkLocal[7] = 22*
632: 0x0C93 [0x01] GOTO 0x0D66
633: 0x0C96 [0x02] IF !(Work_Zone[0] == 3*) GOTO 0x0CB0
634: 0x0C9E [0x03] ExtData[1]->WorkLocal[3] = 0*
635: 0x0CA3 [0x03] ExtData[1]->WorkLocal[4] = 0*
636: 0x0CA8 [0x03] ExtData[1]->WorkLocal[7] = 23*
637: 0x0CAD [0x01] GOTO 0x0D66
638: 0x0CB0 [0x02] IF !(Work_Zone[0] == 4*) GOTO 0x0CCA
639: 0x0CB8 [0x03] ExtData[1]->WorkLocal[3] = 0*
640: 0x0CBD [0x03] ExtData[1]->WorkLocal[4] = 0*
641: 0x0CC2 [0x03] ExtData[1]->WorkLocal[7] = 24*
642: 0x0CC7 [0x01] GOTO 0x0D66
643: 0x0CCA [0x02] IF !(Work_Zone[0] == 5*) GOTO 0x0CE4
644: 0x0CD2 [0x03] ExtData[1]->WorkLocal[3] = 0*
645: 0x0CD7 [0x03] ExtData[1]->WorkLocal[4] = 0*
646: 0x0CDC [0x03] ExtData[1]->WorkLocal[7] = 25*
647: 0x0CE1 [0x01] GOTO 0x0D66
648: 0x0CE4 [0x02] IF !(Work_Zone[0] == 6*) GOTO 0x0CFE
649: 0x0CEC [0x03] ExtData[1]->WorkLocal[3] = 0*
650: 0x0CF1 [0x03] ExtData[1]->WorkLocal[4] = 0*
651: 0x0CF6 [0x03] ExtData[1]->WorkLocal[7] = 26*
652: 0x0CFB [0x01] GOTO 0x0D66
653: 0x0CFE [0x02] IF !(Work_Zone[0] == 7*) GOTO 0x0D18
654: 0x0D06 [0x03] ExtData[1]->WorkLocal[3] = 0*
655: 0x0D0B [0x03] ExtData[1]->WorkLocal[4] = 0*
656: 0x0D10 [0x03] ExtData[1]->WorkLocal[7] = 27*
657: 0x0D15 [0x01] GOTO 0x0D66
658: 0x0D18 [0x02] IF !(Work_Zone[0] == 8*) GOTO 0x0D32
659: 0x0D20 [0x03] ExtData[1]->WorkLocal[3] = 0*
660: 0x0D25 [0x03] ExtData[1]->WorkLocal[4] = 0*
661: 0x0D2A [0x03] ExtData[1]->WorkLocal[7] = 28*
662: 0x0D2F [0x01] GOTO 0x0D66
663: 0x0D32 [0x02] IF !(Work_Zone[0] == 9*) GOTO 0x0D4C
664: 0x0D3A [0x03] ExtData[1]->WorkLocal[3] = 0*
665: 0x0D3F [0x03] ExtData[1]->WorkLocal[4] = 0*
666: 0x0D44 [0x03] ExtData[1]->WorkLocal[7] = 29*
667: 0x0D49 [0x01] GOTO 0x0D66
668: 0x0D4C [0x02] IF !(Work_Zone[0] == 10*) GOTO 0x0D66
669: 0x0D54 [0x03] ExtData[1]->WorkLocal[3] = 0*
670: 0x0D59 [0x03] ExtData[1]->WorkLocal[4] = 0*
671: 0x0D5E [0x03] ExtData[1]->WorkLocal[7] = 30*
672: 0x0D63 [0x01] GOTO 0x0D66

SUBROUTINE_0D66:
673: 0x0D66 [0x01] GOTO 0x0D69

SUBROUTINE_0D69:
674: 0x0D69 [0x02] IF !(ExtData[1]->WorkLocal[3] == 5853*) GOTO 0x0D7E
675: 0x0D71 [0x02] IF !(ExtData[1]->WorkLocal[15] == 1*) GOTO 0x0D7E
676: 0x0D79 [0x03] ExtData[1]->WorkLocal[4] = 200000*
677: 0x0D7E [0x93] DISPLAY_ITEM_INFO(item_id=ExtData[1]->WorkLocal[3])
678: 0x0D81 [0x03] Work_Zone[2] = ExtData[1]->WorkLocal[3]
679: 0x0D86 [0x48] [System] [7396*]:
     "Trade for $0?"
680: 0x0D89 [0x23] WAIT_FOR_DIALOG_INTERACTION
681: 0x0D8A [0x93] DISPLAY_ITEM_INFO(item_id=0*)
682: 0x0D8D [0x03] Work_Zone[2] = ExtData[1]->WorkLocal[3]
683: 0x0D92 [0x24] CREATE_DIALOG(message_id=7398*, default_option=1*, option_flags=0*)
     "Trade for $0? [Yes./No.]"
684: 0x0D99 [0x25] WAIT_DIALOG_SELECT()
685: 0x0D9A [0x02] IF !(Work_Zone[0] == 0*) GOTO 0x0DCC
686: 0x0DA2 [0x02] IF !(ExtData[1]->WorkLocal[0] < ExtData[1]->WorkLocal[4]) GOTO 0x0DC5
687: 0x0DAA [0x40] SET_BIT_WORK_RANGE(start_bit=0*, end_bit=15*, target=Work_Zone[1], source=2*)
688: 0x0DB3 [0x40] SET_BIT_WORK_RANGE(start_bit=16*, end_bit=23*, target=Work_Zone[1], source=ExtData[1]->WorkLocal[7])
689: 0x0DBC [0x06] ExtData[1]->WorkLocal[11] = 0
690: 0x0DBF [0x06] ExtData[1]->WorkLocal[10] = 0
691: 0x0DC2 [0x01] GOTO 0x0DC9
692: 0x0DC5 [0x1D] PRINT_EVENT_MESSAGE(message_id=7408*)
     "You do not have enough cruor."
693: 0x0DC8 [0x23] WAIT_FOR_DIALOG_INTERACTION

SUBROUTINE_0DC9:
694: 0x0DC9 [0x01] GOTO 0x0DD7
695: 0x0DCC [0x02] IF !(Work_Zone[0] == 1*) GOTO 0x0DD7
696: 0x0DD4 [0x01] GOTO 0x0DD7

SUBROUTINE_0DD7:
697: 0x0DD7 [0x01] GOTO 0x07EC
698: 0x0DDA [0x01] GOTO 0x1980
699: 0x0DDD [0x02] IF !(Work_Zone[0] == 4*) GOTO 0x1483
700: 0x0DE5 [0x1A] CALL_SUBROUTINE(address=0x1D8E)
701: 0x0DE8 [0x05] ExtData[1]->WorkLocal[11] = 1

SUBROUTINE_0DEB:
702: 0x0DEB [0x02] IF !(ExtData[1]->WorkLocal[11] <= 0*) GOTO 0x1480
703: 0x0DF3 [0x03] ExtData[1]->WorkLocal[3] = 0*
704: 0x0DF8 [0x03] ExtData[1]->WorkLocal[4] = 0*
705: 0x0DFD [0x03] ExtData[1]->WorkLocal[7] = 0*
706: 0x0E02 [0x03] ExtData[1]->WorkLocal[9] = 0*
707: 0x0E07 [0x03] Work_Zone[2] = ExtData[1]->WorkLocal[0]
708: 0x0E0C [0x02] IF !(ExtData[1]->WorkLocal[2] == 0*) GOTO 0x0E94
709: 0x0E14 [0x03] Work_Zone[3] = 1889*
710: 0x0E19 [0x03] Work_Zone[4] = 4500*
711: 0x0E1E [0x03] Work_Zone[5] = 1389*
712: 0x0E23 [0x03] Work_Zone[6] = 8000*
713: 0x0E28 [0x03] Work_Zone[7] = 1401*
714: 0x0E2D [0x03] Work_Zone[8] = 5000*
715: 0x0E32 [0x03] Work_Zone[9] = 1440*
716: 0x0E37 [0x03] Work_Zone_1700[0] = 100000*
717: 0x0E3C [0x03] Work_Zone_1700[1] = 1564*
718: 0x0E41 [0x03] Work_Zone_1700[2] = 300*
719: 0x0E46 [0x03] Work_Zone_1700[3] = 0*
720: 0x0E4B [0x03] Work_Zone_1700[4] = 0*
721: 0x0E50 [0x03] Work_Zone_1700[5] = 0*
722: 0x0E55 [0x03] Work_Zone_1700[6] = 0*
723: 0x0E5A [0x03] Work_Zone_1700[7] = 0*
724: 0x0E5F [0x03] Work_Zone_1700[8] = 0*
725: 0x0E64 [0x03] Work_Zone_1700[9] = 0*
726: 0x0E69 [0x03] Work_Zone_1700[10] = 0*
727: 0x0E6E [0x03] Work_Zone_1700[11] = 0*
728: 0x0E73 [0x03] Work_Zone_1700[12] = 0*
729: 0x0E78 [0x1A] CALL_SUBROUTINE(address=0x1F92)
730: 0x0E7B [0x3C] SET_BIT_FLAG_CONDITIONAL(target_work_offset=ExtData[1]->WorkLocal[9], bit_index_work_offset=11*, condition_work_offset=1*)
731: 0x0E82 [0x02] IF !(ExtData[1]->WorkLocal[5] > 10*) GOTO 0x0E91
732: 0x0E8A [0x3C] SET_BIT_FLAG_CONDITIONAL(target_work_offset=ExtData[1]->WorkLocal[9], bit_index_work_offset=12*, condition_work_offset=1*)
733: 0x0E91 [0x01] GOTO 0x0F8E
734: 0x0E94 [0x02] IF !(ExtData[1]->WorkLocal[2] == 1*) GOTO 0x0F15
735: 0x0E9C [0x03] Work_Zone[3] = 0*
736: 0x0EA1 [0x03] Work_Zone[4] = 0*
737: 0x0EA6 [0x03] Work_Zone[5] = 0*
738: 0x0EAB [0x03] Work_Zone[6] = 0*
739: 0x0EB0 [0x03] Work_Zone[7] = 0*
740: 0x0EB5 [0x03] Work_Zone[8] = 0*
741: 0x0EBA [0x03] Work_Zone[9] = 0*
742: 0x0EBF [0x03] Work_Zone_1700[0] = 0*
743: 0x0EC4 [0x03] Work_Zone_1700[1] = 0*
744: 0x0EC9 [0x03] Work_Zone_1700[2] = 0*
745: 0x0ECE [0x03] Work_Zone_1700[3] = 0*
746: 0x0ED3 [0x03] Work_Zone_1700[4] = 0*
747: 0x0ED8 [0x03] Work_Zone_1700[5] = 0*
748: 0x0EDD [0x03] Work_Zone_1700[6] = 0*
749: 0x0EE2 [0x03] Work_Zone_1700[7] = 0*
750: 0x0EE7 [0x03] Work_Zone_1700[8] = 0*
751: 0x0EEC [0x03] Work_Zone_1700[9] = 0*
752: 0x0EF1 [0x03] Work_Zone_1700[10] = 0*
753: 0x0EF6 [0x03] Work_Zone_1700[11] = 0*
754: 0x0EFB [0x03] Work_Zone_1700[12] = 0*
755: 0x0F00 [0x1A] CALL_SUBROUTINE(address=0x1F92)
756: 0x0F03 [0x02] IF !(ExtData[1]->WorkLocal[5] > 20*) GOTO 0x0F12
757: 0x0F0B [0x3C] SET_BIT_FLAG_CONDITIONAL(target_work_offset=ExtData[1]->WorkLocal[9], bit_index_work_offset=12*, condition_work_offset=1*)
758: 0x0F12 [0x01] GOTO 0x0F8E
759: 0x0F15 [0x02] IF !(ExtData[1]->WorkLocal[2] == 2*) GOTO 0x0F8E
760: 0x0F1D [0x03] Work_Zone[3] = 0*
761: 0x0F22 [0x03] Work_Zone[4] = 0*
762: 0x0F27 [0x03] Work_Zone[5] = 0*
763: 0x0F2C [0x03] Work_Zone[6] = 0*
764: 0x0F31 [0x03] Work_Zone[7] = 0*
765: 0x0F36 [0x03] Work_Zone[8] = 0*
766: 0x0F3B [0x03] Work_Zone[9] = 0*
767: 0x0F40 [0x03] Work_Zone_1700[0] = 0*
768: 0x0F45 [0x03] Work_Zone_1700[1] = 0*
769: 0x0F4A [0x03] Work_Zone_1700[2] = 0*
770: 0x0F4F [0x03] Work_Zone_1700[3] = 0*
771: 0x0F54 [0x03] Work_Zone_1700[4] = 0*
772: 0x0F59 [0x03] Work_Zone_1700[5] = 0*
773: 0x0F5E [0x03] Work_Zone_1700[6] = 0*
774: 0x0F63 [0x03] Work_Zone_1700[7] = 0*
775: 0x0F68 [0x03] Work_Zone_1700[8] = 0*
776: 0x0F6D [0x03] Work_Zone_1700[9] = 0*
777: 0x0F72 [0x03] Work_Zone_1700[10] = 0*
778: 0x0F77 [0x03] Work_Zone_1700[11] = 0*
779: 0x0F7C [0x03] Work_Zone_1700[12] = 0*
780: 0x0F81 [0x1A] CALL_SUBROUTINE(address=0x1F92)
781: 0x0F84 [0x3C] SET_BIT_FLAG_CONDITIONAL(target_work_offset=ExtData[1]->WorkLocal[9], bit_index_work_offset=12*, condition_work_offset=1*)
782: 0x0F8B [0x01] GOTO 0x0F8E

SUBROUTINE_0F8E:
783: 0x0F8E [0x24] CREATE_DIALOG(message_id=7392*, default_option=0*, option_flags=ExtData[1]->WorkLocal[9])
     "Select key item. (Cruor: $0) [Nothing right now./$6: $2./$6: $4./$6: $6./$6: $8./$6: $10./$6: $12./$6: $14./$6: $16./$6: $18./$6: $20./Previous page./Next page.]"
784: 0x0F95 [0x25] WAIT_DIALOG_SELECT()
785: 0x0F96 [0x02] IF !(Work_Zone[0] == 0*) GOTO 0x0FA4
786: 0x0F9E [0x06] ExtData[1]->WorkLocal[11] = 0
787: 0x0FA1 [0x01] GOTO 0x1010
788: 0x0FA4 [0x02] IF !(Work_Zone[0] == 11*) GOTO 0x0FDA
789: 0x0FAC [0x02] IF !(ExtData[1]->WorkLocal[2] == 0*) GOTO 0x0FB7
790: 0x0FB4 [0x01] GOTO 0x0FD7
791: 0x0FB7 [0x02] IF !(ExtData[1]->WorkLocal[2] == 1*) GOTO 0x0FC7
792: 0x0FBF [0x03] ExtData[1]->WorkLocal[2] = 0*
793: 0x0FC4 [0x01] GOTO 0x0FD7
794: 0x0FC7 [0x02] IF !(ExtData[1]->WorkLocal[2] == 2*) GOTO 0x0FD7
795: 0x0FCF [0x03] ExtData[1]->WorkLocal[2] = 1*
796: 0x0FD4 [0x01] GOTO 0x0FD7

SUBROUTINE_0FD7:
797: 0x0FD7 [0x01] GOTO 0x1010
798: 0x0FDA [0x02] IF !(Work_Zone[0] == 12*) GOTO 0x1010
799: 0x0FE2 [0x02] IF !(ExtData[1]->WorkLocal[2] == 0*) GOTO 0x0FF2
800: 0x0FEA [0x03] ExtData[1]->WorkLocal[2] = 1*
801: 0x0FEF [0x01] GOTO 0x100D
802: 0x0FF2 [0x02] IF !(ExtData[1]->WorkLocal[2] == 1*) GOTO 0x1002
803: 0x0FFA [0x03] ExtData[1]->WorkLocal[2] = 2*
804: 0x0FFF [0x01] GOTO 0x100D
805: 0x1002 [0x02] IF !(ExtData[1]->WorkLocal[2] == 2*) GOTO 0x100D
806: 0x100A [0x01] GOTO 0x100D

SUBROUTINE_100D:
807: 0x100D [0x01] GOTO 0x1010

SUBROUTINE_1010:
808: 0x1010 [0x02] IF !(Work_Zone[0] < 1*) GOTO 0x147D
809: 0x1018 [0x02] IF !(Work_Zone[0] > 10*) GOTO 0x147D
810: 0x1020 [0x02] IF !(ExtData[1]->WorkLocal[2] == 0*) GOTO 0x112F
811: 0x1028 [0x02] IF !(Work_Zone[0] == 1*) GOTO 0x1042
812: 0x1030 [0x03] ExtData[1]->WorkLocal[3] = 1889*
813: 0x1035 [0x03] ExtData[1]->WorkLocal[4] = 4500*
814: 0x103A [0x03] ExtData[1]->WorkLocal[7] = 1*
815: 0x103F [0x01] GOTO 0x112C
816: 0x1042 [0x02] IF !(Work_Zone[0] == 2*) GOTO 0x105C
817: 0x104A [0x03] ExtData[1]->WorkLocal[3] = 1389*
818: 0x104F [0x03] ExtData[1]->WorkLocal[4] = 8000*
819: 0x1054 [0x03] ExtData[1]->WorkLocal[7] = 2*
820: 0x1059 [0x01] GOTO 0x112C
821: 0x105C [0x02] IF !(Work_Zone[0] == 3*) GOTO 0x1076
822: 0x1064 [0x03] ExtData[1]->WorkLocal[3] = 1401*
823: 0x1069 [0x03] ExtData[1]->WorkLocal[4] = 5000*
824: 0x106E [0x03] ExtData[1]->WorkLocal[7] = 3*
825: 0x1073 [0x01] GOTO 0x112C
826: 0x1076 [0x02] IF !(Work_Zone[0] == 4*) GOTO 0x1090
827: 0x107E [0x03] ExtData[1]->WorkLocal[3] = 1440*
828: 0x1083 [0x03] ExtData[1]->WorkLocal[4] = 100000*
829: 0x1088 [0x03] ExtData[1]->WorkLocal[7] = 4*
830: 0x108D [0x01] GOTO 0x112C
831: 0x1090 [0x02] IF !(Work_Zone[0] == 5*) GOTO 0x10AA
832: 0x1098 [0x03] ExtData[1]->WorkLocal[3] = 1564*
833: 0x109D [0x03] ExtData[1]->WorkLocal[4] = 300*
834: 0x10A2 [0x03] ExtData[1]->WorkLocal[7] = 5*
835: 0x10A7 [0x01] GOTO 0x112C
836: 0x10AA [0x02] IF !(Work_Zone[0] == 6*) GOTO 0x10C4
837: 0x10B2 [0x03] ExtData[1]->WorkLocal[3] = 0*
838: 0x10B7 [0x03] ExtData[1]->WorkLocal[4] = 0*
839: 0x10BC [0x03] ExtData[1]->WorkLocal[7] = 6*
840: 0x10C1 [0x01] GOTO 0x112C
841: 0x10C4 [0x02] IF !(Work_Zone[0] == 7*) GOTO 0x10DE
842: 0x10CC [0x03] ExtData[1]->WorkLocal[3] = 0*
843: 0x10D1 [0x03] ExtData[1]->WorkLocal[4] = 0*
844: 0x10D6 [0x03] ExtData[1]->WorkLocal[7] = 7*
845: 0x10DB [0x01] GOTO 0x112C
846: 0x10DE [0x02] IF !(Work_Zone[0] == 8*) GOTO 0x10F8
847: 0x10E6 [0x03] ExtData[1]->WorkLocal[3] = 0*
848: 0x10EB [0x03] ExtData[1]->WorkLocal[4] = 0*
849: 0x10F0 [0x03] ExtData[1]->WorkLocal[7] = 8*
850: 0x10F5 [0x01] GOTO 0x112C
851: 0x10F8 [0x02] IF !(Work_Zone[0] == 9*) GOTO 0x1112
852: 0x1100 [0x03] ExtData[1]->WorkLocal[3] = 0*
853: 0x1105 [0x03] ExtData[1]->WorkLocal[4] = 0*
854: 0x110A [0x03] ExtData[1]->WorkLocal[7] = 9*
855: 0x110F [0x01] GOTO 0x112C
856: 0x1112 [0x02] IF !(Work_Zone[0] == 10*) GOTO 0x112C
857: 0x111A [0x03] ExtData[1]->WorkLocal[3] = 0*
858: 0x111F [0x03] ExtData[1]->WorkLocal[4] = 0*
859: 0x1124 [0x03] ExtData[1]->WorkLocal[7] = 10*
860: 0x1129 [0x01] GOTO 0x112C

SUBROUTINE_112C:
861: 0x112C [0x01] GOTO 0x134D
862: 0x112F [0x02] IF !(ExtData[1]->WorkLocal[2] == 1*) GOTO 0x123E
863: 0x1137 [0x02] IF !(Work_Zone[0] == 1*) GOTO 0x1151
864: 0x113F [0x03] ExtData[1]->WorkLocal[3] = 0*
865: 0x1144 [0x03] ExtData[1]->WorkLocal[4] = 0*
866: 0x1149 [0x03] ExtData[1]->WorkLocal[7] = 11*
867: 0x114E [0x01] GOTO 0x123B
868: 0x1151 [0x02] IF !(Work_Zone[0] == 2*) GOTO 0x116B
869: 0x1159 [0x03] ExtData[1]->WorkLocal[3] = 0*
870: 0x115E [0x03] ExtData[1]->WorkLocal[4] = 0*
871: 0x1163 [0x03] ExtData[1]->WorkLocal[7] = 12*
872: 0x1168 [0x01] GOTO 0x123B
873: 0x116B [0x02] IF !(Work_Zone[0] == 3*) GOTO 0x1185
874: 0x1173 [0x03] ExtData[1]->WorkLocal[3] = 0*
875: 0x1178 [0x03] ExtData[1]->WorkLocal[4] = 0*
876: 0x117D [0x03] ExtData[1]->WorkLocal[7] = 13*
877: 0x1182 [0x01] GOTO 0x123B
878: 0x1185 [0x02] IF !(Work_Zone[0] == 4*) GOTO 0x119F
879: 0x118D [0x03] ExtData[1]->WorkLocal[3] = 0*
880: 0x1192 [0x03] ExtData[1]->WorkLocal[4] = 0*
881: 0x1197 [0x03] ExtData[1]->WorkLocal[7] = 14*
882: 0x119C [0x01] GOTO 0x123B
883: 0x119F [0x02] IF !(Work_Zone[0] == 5*) GOTO 0x11B9
884: 0x11A7 [0x03] ExtData[1]->WorkLocal[3] = 0*
885: 0x11AC [0x03] ExtData[1]->WorkLocal[4] = 0*
886: 0x11B1 [0x03] ExtData[1]->WorkLocal[7] = 15*
887: 0x11B6 [0x01] GOTO 0x123B
888: 0x11B9 [0x02] IF !(Work_Zone[0] == 6*) GOTO 0x11D3
889: 0x11C1 [0x03] ExtData[1]->WorkLocal[3] = 0*
890: 0x11C6 [0x03] ExtData[1]->WorkLocal[4] = 0*
891: 0x11CB [0x03] ExtData[1]->WorkLocal[7] = 16*
892: 0x11D0 [0x01] GOTO 0x123B
893: 0x11D3 [0x02] IF !(Work_Zone[0] == 7*) GOTO 0x11ED
894: 0x11DB [0x03] ExtData[1]->WorkLocal[3] = 0*
895: 0x11E0 [0x03] ExtData[1]->WorkLocal[4] = 0*
896: 0x11E5 [0x03] ExtData[1]->WorkLocal[7] = 17*
897: 0x11EA [0x01] GOTO 0x123B
898: 0x11ED [0x02] IF !(Work_Zone[0] == 8*) GOTO 0x1207
899: 0x11F5 [0x03] ExtData[1]->WorkLocal[3] = 0*
900: 0x11FA [0x03] ExtData[1]->WorkLocal[4] = 0*
901: 0x11FF [0x03] ExtData[1]->WorkLocal[7] = 18*
902: 0x1204 [0x01] GOTO 0x123B
903: 0x1207 [0x02] IF !(Work_Zone[0] == 9*) GOTO 0x1221
904: 0x120F [0x03] ExtData[1]->WorkLocal[3] = 0*
905: 0x1214 [0x03] ExtData[1]->WorkLocal[4] = 0*
906: 0x1219 [0x03] ExtData[1]->WorkLocal[7] = 19*
907: 0x121E [0x01] GOTO 0x123B
908: 0x1221 [0x02] IF !(Work_Zone[0] == 10*) GOTO 0x123B
909: 0x1229 [0x03] ExtData[1]->WorkLocal[3] = 0*
910: 0x122E [0x03] ExtData[1]->WorkLocal[4] = 0*
911: 0x1233 [0x03] ExtData[1]->WorkLocal[7] = 20*
912: 0x1238 [0x01] GOTO 0x123B

SUBROUTINE_123B:
913: 0x123B [0x01] GOTO 0x134D
914: 0x123E [0x02] IF !(ExtData[1]->WorkLocal[2] == 2*) GOTO 0x134D
915: 0x1246 [0x02] IF !(Work_Zone[0] == 1*) GOTO 0x1260
916: 0x124E [0x03] ExtData[1]->WorkLocal[3] = 0*
917: 0x1253 [0x03] ExtData[1]->WorkLocal[4] = 0*
918: 0x1258 [0x03] ExtData[1]->WorkLocal[7] = 21*
919: 0x125D [0x01] GOTO 0x134A
920: 0x1260 [0x02] IF !(Work_Zone[0] == 2*) GOTO 0x127A
921: 0x1268 [0x03] ExtData[1]->WorkLocal[3] = 0*
922: 0x126D [0x03] ExtData[1]->WorkLocal[4] = 0*
923: 0x1272 [0x03] ExtData[1]->WorkLocal[7] = 22*
