# 17662724

## Common Data

| Field            | Value                         |
|------------------|-------------------------------|
| Zone             | Abyssea - Misareaux (ID: 216) |
| Block Size       | 11484 bytes                   |
| Total Events     | 91                            |
| References Count | 399                           |

## List of Events

| Event ID              | Entrypoint   |   Size |   Instructions |
|-----------------------|--------------|--------|----------------|
| [65535](#event-65535) | 0x0000       |    658 |             62 |
| [151](#event-151)     | 0x0292       |    274 |             50 |
| [152](#event-152)     | 0x03A4       |     63 |             11 |
| [153](#event-153)     | 0x03E3       |     91 |             17 |
| [156](#event-156)     | 0x043E       |    132 |             28 |
| [159](#event-159)     | 0x04C2       |     63 |             11 |
| [154](#event-154)     | 0x0501       |     73 |             17 |
| [157](#event-157)     | 0x054A       |    128 |             26 |
| [160](#event-160)     | 0x05CA       |     63 |             11 |
| [155](#event-155)     | 0x0609       |     61 |             15 |
| [158](#event-158)     | 0x0646       |    116 |             24 |
| [161](#event-161)     | 0x06BA       |     71 |             13 |
| [162](#event-162)     | 0x0701       |    128 |             22 |
| [163](#event-163)     | 0x0781       |     25 |              7 |
| [168](#event-168)     | 0x079A       |     96 |             20 |
| [178](#event-178)     | 0x07FA       |     63 |             11 |
| [173](#event-173)     | 0x0839       |     77 |             15 |
| [174](#event-174)     | 0x0886       |     68 |             12 |
| [169](#event-169)     | 0x08CA       |      8 |              6 |
| [172](#event-172)     | 0x08D2       |     52 |             16 |
| [175](#event-175)     | 0x0906       |     11 |              5 |
| [179](#event-179)     | 0x0911       |     89 |             15 |
| [180](#event-180)     | 0x096A       |     63 |             11 |
| [164](#event-164)     | 0x09A9       |    244 |             48 |
| [165](#event-165)     | 0x0A9D       |     71 |             13 |
| [166](#event-166)     | 0x0AE4       |     79 |             15 |
| [167](#event-167)     | 0x0B33       |     37 |              9 |
| [176](#event-176)     | 0x0B58       |     30 |              8 |
| [177](#event-177)     | 0x0B76       |     11 |              5 |
| [229](#event-229)     | 0x0B81       |    104 |             22 |
| [230](#event-230)     | 0x0BE9       |     71 |             13 |
| [231](#event-231)     | 0x0C30       |    172 |             34 |
| [232](#event-232)     | 0x0CDC       |     92 |             18 |
| [233](#event-233)     | 0x0D38       |    102 |             20 |
| [234](#event-234)     | 0x0D9E       |     63 |             11 |
| [235](#event-235)     | 0x0DDD       |     64 |             12 |
| [210](#event-210)     | 0x0E1D       |    104 |             22 |
| [211](#event-211)     | 0x0E85       |     79 |             15 |
| [212](#event-212)     | 0x0ED4       |     94 |             16 |
| [213](#event-213)     | 0x0F32       |     55 |              9 |
| [214](#event-214)     | 0x0F69       |     56 |             10 |
| [215](#event-215)     | 0x0FA1       |    201 |             41 |
| [216](#event-216)     | 0x106A       |     79 |             15 |
| [218](#event-218)     | 0x10B9       |    329 |             89 |
| [217](#event-217)     | 0x1202       |    276 |             44 |
| [221](#event-221)     | 0x1316       |     46 |             12 |
| [222](#event-222)     | 0x1344       |     55 |              9 |
| [223](#event-223)     | 0x137B       |    201 |             41 |
| [186](#event-186)     | 0x1444       |     25 |              7 |
| [187](#event-187)     | 0x145D       |    148 |             30 |
| [189](#event-189)     | 0x14F1       |     76 |             14 |
| [190](#event-190)     | 0x153D       |     53 |             16 |
| [191](#event-191)     | 0x1572       |    358 |             66 |
| [192](#event-192)     | 0x16D8       |     55 |              9 |
| [193](#event-193)     | 0x170F       |     41 |             13 |
| [195](#event-195)     | 0x1738       |     89 |             15 |
| [196](#event-196)     | 0x1791       |     54 |             14 |
| [197](#event-197)     | 0x17C7       |     25 |              7 |
| [198](#event-198)     | 0x17E0       |     26 |              8 |
| [199](#event-199)     | 0x17FA       |    125 |             27 |
| [261](#event-261)     | 0x1877       |     53 |             13 |
| [181](#event-181)     | 0x18AC       |    211 |             41 |
| [182](#event-182)     | 0x197F       |     79 |             15 |
| [183](#event-183)     | 0x19CE       |    134 |             25 |
| [184](#event-184)     | 0x1A54       |     25 |              7 |
| [185](#event-185)     | 0x1A6D       |     64 |             12 |
| [260](#event-260)     | 0x1AAD       |     25 |              7 |
| [224](#event-224)     | 0x1AC6       |    244 |             48 |
| [225](#event-225)     | 0x1BBA       |     63 |             11 |
| [226](#event-226)     | 0x1BF9       |     97 |             17 |
| [227](#event-227)     | 0x1C5A       |     63 |             11 |
| [228](#event-228)     | 0x1C99       |    149 |             31 |
| [236](#event-236)     | 0x1D2E       |     71 |             13 |
| [237](#event-237)     | 0x1D75       |     25 |              7 |
| [238](#event-238)     | 0x1D8E       |     45 |             11 |
| [239](#event-239)     | 0x1DBB       |     25 |              7 |
| [240](#event-240)     | 0x1DD4       |     71 |             13 |
| [241](#event-241)     | 0x1E1B       |     63 |             11 |
| [242](#event-242)     | 0x1E5A       |     63 |             11 |
| [243](#event-243)     | 0x1E99       |     79 |             15 |
| [244](#event-244)     | 0x1EE8       |     63 |             11 |
| [245](#event-245)     | 0x1F27       |     79 |             15 |
| [246](#event-246)     | 0x1F76       |     87 |             17 |
| [247](#event-247)     | 0x1FCD       |    264 |             48 |
| [248](#event-248)     | 0x20D5       |    549 |            106 |
| [249](#event-249)     | 0x22FA       |     36 |             10 |
| [254](#event-254)     | 0x231E       |    122 |             25 |
| [250](#event-250)     | 0x2398       |     87 |             17 |
| [251](#event-251)     | 0x23EF       |    115 |             23 |
| [252](#event-252)     | 0x2462       |     87 |             17 |
| [253](#event-253)     | 0x24B9       |    107 |             21 |

## DAT References (imed_data)

|   Index | Hex Value   |   Dec Value |
|---------|-------------|-------------|
|       0 | 0x00C8      |         200 |
|       1 | 0x0000      |           0 |
|       2 | 0x00C9      |         201 |
|       3 | 0x0001      |           1 |
|       4 | 0x002D      |          45 |
|       5 | 0x0002      |           2 |
|       6 | 0x001E      |          30 |
|       7 | 0x00D7      |         215 |
|       8 | 0x1FC7      |        8135 |
|       9 | 0x1FC8      |        8136 |
|      10 | 0x0045      |          69 |
|      11 | 0x1FC9      |        8137 |
|      12 | 0x1FCA      |        8138 |
|      13 | 0x1FCB      |        8139 |
|      14 | 0x1FCC      |        8140 |
|      15 | 0x1FCD      |        8141 |
|      16 | 0x0007      |           7 |
|      17 | 0x1FCE      |        8142 |
|      18 | 0x1FCF      |        8143 |
|      19 | 0x1FD0      |        8144 |
|      20 | 0x1FD1      |        8145 |
|      21 | 0x0078      |         120 |
|      22 | 0x1FD2      |        8146 |
|      23 | 0x1FD3      |        8147 |
|      24 | 0x1FD4      |        8148 |
|      25 | 0x1FD5      |        8149 |
|      26 | 0x1FD6      |        8150 |
|      27 | 0x0015      |          21 |
|      28 | 0x1FD7      |        8151 |
|      29 | 0x1FD8      |        8152 |
|      30 | 0x0009      |           9 |
|      31 | 0x1FD9      |        8153 |
|      32 | 0x1FDA      |        8154 |
|      33 | 0x1FDB      |        8155 |
|      34 | 0x1FDC      |        8156 |
|      35 | 0x000B      |          11 |
|      36 | 0x1FDD      |        8157 |
|      37 | 0x1FDE      |        8158 |
|      38 | 0x1FDF      |        8159 |
|      39 | 0x1FE0      |        8160 |
|      40 | 0x1FE1      |        8161 |
|      41 | 0x1FE2      |        8162 |
|      42 | 0x1FE3      |        8163 |
|      43 | 0x0026      |          38 |
|      44 | 0x1FE4      |        8164 |
|      45 | 0x1FE5      |        8165 |
|      46 | 0x1FE6      |        8166 |
|      47 | 0x0013      |          19 |
|      48 | 0x1FE7      |        8167 |
|      49 | 0x1FE8      |        8168 |
|      50 | 0x0024      |          36 |
|      51 | 0x1FE9      |        8169 |
|      52 | 0x1FEA      |        8170 |
|      53 | 0x1FEB      |        8171 |
|      54 | 0x1FEC      |        8172 |
|      55 | 0x1FED      |        8173 |
|      56 | 0x0006      |           6 |
|      57 | 0x1FEE      |        8174 |
|      58 | 0x1FEF      |        8175 |
|      59 | 0x1FF0      |        8176 |
|      60 | 0x1FF1      |        8177 |
|      61 | 0x1FF2      |        8178 |
|      62 | 0x1FF3      |        8179 |
|      63 | 0x1FF4      |        8180 |
|      64 | 0x1FF5      |        8181 |
|      65 | 0x1FF6      |        8182 |
|      66 | 0x1FF7      |        8183 |
|      67 | 0x1FF8      |        8184 |
|      68 | 0x1FF9      |        8185 |
|      69 | 0x1FFA      |        8186 |
|      70 | 0x1FFB      |        8187 |
|      71 | 0x0083      |         131 |
|      72 | 0x1FFC      |        8188 |
|      73 | 0x1FFD      |        8189 |
|      74 | 0x1FFE      |        8190 |
|      75 | 0x1FFF      |        8191 |
|      76 | 0x2000      |        8192 |
|      77 | 0x2001      |        8193 |
|      78 | 0x2002      |        8194 |
|      79 | 0x2003      |        8195 |
|      80 | 0x2004      |        8196 |
|      81 | 0x03BC      |         956 |
|      82 | 0x2005      |        8197 |
|      83 | 0x2006      |        8198 |
|      84 | 0x2007      |        8199 |
|      85 | 0x2008      |        8200 |
|      86 | 0x2009      |        8201 |
|      87 | 0x200A      |        8202 |
|      88 | 0x200B      |        8203 |
|      89 | 0x200C      |        8204 |
|      90 | 0x200D      |        8205 |
|      91 | 0x200E      |        8206 |
|      92 | 0x200F      |        8207 |
|      93 | 0x2010      |        8208 |
|      94 | 0x2011      |        8209 |
|      95 | 0x003C      |          60 |
|      96 | 0x2012      |        8210 |
|      97 | 0x2013      |        8211 |
|      98 | 0x2014      |        8212 |
|      99 | 0x2015      |        8213 |
|     100 | 0x2016      |        8214 |
|     101 | 0x2017      |        8215 |
|     102 | 0x2018      |        8216 |
|     103 | 0x201B      |        8219 |
|     104 | 0x2019      |        8217 |
|     105 | 0x201A      |        8218 |
|     106 | 0x201C      |        8220 |
|     107 | 0x201D      |        8221 |
|     108 | 0x201E      |        8222 |
|     109 | 0x0B91      |        2961 |
|     110 | 0x201F      |        8223 |
|     111 | 0x2020      |        8224 |
|     112 | 0x2021      |        8225 |
|     113 | 0x2022      |        8226 |
|     114 | 0x2023      |        8227 |
|     115 | 0x2024      |        8228 |
|     116 | 0x2025      |        8229 |
|     117 | 0x2026      |        8230 |
|     118 | 0x2027      |        8231 |
|     119 | 0x2028      |        8232 |
|     120 | 0x2029      |        8233 |
|     121 | 0x202A      |        8234 |
|     122 | 0x202B      |        8235 |
|     123 | 0x202C      |        8236 |
|     124 | 0x202D      |        8237 |
|     125 | 0x0A50      |        2640 |
|     126 | 0x113D      |        4413 |
|     127 | 0x202E      |        8238 |
|     128 | 0x10E0      |        4320 |
|     129 | 0x202F      |        8239 |
|     130 | 0x2030      |        8240 |
|     131 | 0x2031      |        8241 |
|     132 | 0x2032      |        8242 |
|     133 | 0x2033      |        8243 |
|     134 | 0x2034      |        8244 |
|     135 | 0x2035      |        8245 |
|     136 | 0x2036      |        8246 |
|     137 | 0x2037      |        8247 |
|     138 | 0x2038      |        8248 |
|     139 | 0x2039      |        8249 |
|     140 | 0x203A      |        8250 |
|     141 | 0x203B      |        8251 |
|     142 | 0x0051      |          81 |
|     143 | 0x203C      |        8252 |
|     144 | 0x203D      |        8253 |
|     145 | 0x203E      |        8254 |
|     146 | 0x203F      |        8255 |
|     147 | 0x2040      |        8256 |
|     148 | 0x0046      |          70 |
|     149 | 0x2041      |        8257 |
|     150 | 0x2042      |        8258 |
|     151 | 0x2043      |        8259 |
|     152 | 0x2044      |        8260 |
|     153 | 0x2045      |        8261 |
|     154 | 0x2046      |        8262 |
|     155 | 0x2047      |        8263 |
|     156 | 0x0649      |        1609 |
|     157 | 0x2048      |        8264 |
|     158 | 0x2049      |        8265 |
|     159 | 0x204A      |        8266 |
|     160 | 0x204B      |        8267 |
|     161 | 0x204C      |        8268 |
|     162 | 0x204D      |        8269 |
|     163 | 0x204E      |        8270 |
|     164 | 0x204F      |        8271 |
|     165 | 0x2050      |        8272 |
|     166 | 0x2051      |        8273 |
|     167 | 0x1114      |        4372 |
|     168 | 0x2052      |        8274 |
|     169 | 0x2053      |        8275 |
|     170 | 0x2054      |        8276 |
|     171 | 0x2055      |        8277 |
|     172 | 0x2056      |        8278 |
|     173 | 0x2057      |        8279 |
|     174 | 0x211F      |        8479 |
|     175 | 0x0031      |          49 |
|     176 | 0x003B      |          59 |
|     177 | 0x004A      |          74 |
|     178 | 0x0003      |           3 |
|     179 | 0x004B      |          75 |
|     180 | 0x2120      |        8480 |
|     181 | 0x2058      |        8280 |
|     182 | 0x2059      |        8281 |
|     183 | 0x205A      |        8282 |
|     184 | 0x0032      |          50 |
|     185 | 0x205C      |        8284 |
|     186 | 0x0005      |           5 |
|     187 | 0x205B      |        8283 |
|     188 | 0x112B      |        4395 |
|     189 | 0x205D      |        8285 |
|     190 | 0x205E      |        8286 |
|     191 | 0x205F      |        8287 |
|     192 | 0x16E3      |        5859 |
|     193 | 0x2060      |        8288 |
|     194 | 0x2061      |        8289 |
|     195 | 0x16E5      |        5861 |
|     196 | 0x0004      |           4 |
|     197 | 0x2062      |        8290 |
|     198 | 0x2064      |        8292 |
|     199 | 0x2063      |        8291 |
|     200 | 0x16E4      |        5860 |
|     201 | 0x2065      |        8293 |
|     202 | 0x206C      |        8300 |
|     203 | 0x2066      |        8294 |
|     204 | 0x2067      |        8295 |
|     205 | 0x2068      |        8296 |
|     206 | 0x2069      |        8297 |
|     207 | 0x001A      |          26 |
|     208 | 0x206A      |        8298 |
|     209 | 0x206B      |        8299 |
|     210 | 0x206D      |        8301 |
|     211 | 0x206E      |        8302 |
|     212 | 0x064A      |        1610 |
|     213 | 0x206F      |        8303 |
|     214 | 0x2070      |        8304 |
|     215 | 0x2071      |        8305 |
|     216 | 0x2072      |        8306 |
|     217 | 0x2073      |        8307 |
|     218 | 0x2074      |        8308 |
|     219 | 0x2075      |        8309 |
|     220 | 0x2076      |        8310 |
|     221 | 0x2077      |        8311 |
|     222 | 0x2078      |        8312 |
|     223 | 0x2079      |        8313 |
|     224 | 0x207A      |        8314 |
|     225 | 0x207B      |        8315 |
|     226 | 0x207C      |        8316 |
|     227 | 0x207D      |        8317 |
|     228 | 0x207F      |        8319 |
|     229 | 0x207E      |        8318 |
|     230 | 0x2080      |        8320 |
|     231 | 0x2081      |        8321 |
|     232 | 0x2085      |        8325 |
|     233 | 0x2082      |        8322 |
|     234 | 0x2083      |        8323 |
|     235 | 0x2084      |        8324 |
|     236 | 0x2086      |        8326 |
|     237 | 0x2087      |        8327 |
|     238 | 0x2088      |        8328 |
|     239 | 0x2089      |        8329 |
|     240 | 0x208A      |        8330 |
|     241 | 0x208B      |        8331 |
|     242 | 0x208F      |        8335 |
|     243 | 0x208C      |        8332 |
|     244 | 0x208D      |        8333 |
|     245 | 0x208E      |        8334 |
|     246 | 0x2090      |        8336 |
|     247 | 0x2091      |        8337 |
|     248 | 0x2092      |        8338 |
|     249 | 0x2094      |        8340 |
|     250 | 0x2093      |        8339 |
|     251 | 0x2098      |        8344 |
|     252 | 0x2099      |        8345 |
|     253 | 0x209A      |        8346 |
|     254 | 0x2095      |        8341 |
|     255 | 0x0021      |          33 |
|     256 | 0x2096      |        8342 |
|     257 | 0x2097      |        8343 |
|     258 | 0x209B      |        8347 |
|     259 | 0x209C      |        8348 |
|     260 | 0x209D      |        8349 |
|     261 | 0x209E      |        8350 |
|     262 | 0x209F      |        8351 |
|     263 | 0x20A0      |        8352 |
|     264 | 0x20A1      |        8353 |
|     265 | 0x20A2      |        8354 |
|     266 | 0x20A3      |        8355 |
|     267 | 0x20A4      |        8356 |
|     268 | 0x20A5      |        8357 |
|     269 | 0x20A6      |        8358 |
|     270 | 0x20A7      |        8359 |
|     271 | 0x20A8      |        8360 |
|     272 | 0x20A9      |        8361 |
|     273 | 0x20AA      |        8362 |
|     274 | 0x20AC      |        8364 |
|     275 | 0x20AD      |        8365 |
|     276 | 0x20AE      |        8366 |
|     277 | 0x20AB      |        8363 |
|     278 | 0x20AF      |        8367 |
|     279 | 0x20B0      |        8368 |
|     280 | 0x20B1      |        8369 |
|     281 | 0x20B2      |        8370 |
|     282 | 0x20B3      |        8371 |
|     283 | 0x20B4      |        8372 |
|     284 | 0x20B5      |        8373 |
|     285 | 0x20B6      |        8374 |
|     286 | 0x20B7      |        8375 |
|     287 | 0x20B8      |        8376 |
|     288 | 0x20B9      |        8377 |
|     289 | 0x20BA      |        8378 |
|     290 | 0x20BB      |        8379 |
|     291 | 0x20BC      |        8380 |
|     292 | 0x20BD      |        8381 |
|     293 | 0x20BE      |        8382 |
|     294 | 0x20BF      |        8383 |
|     295 | 0x20C0      |        8384 |
|     296 | 0x20C1      |        8385 |
|     297 | 0x20C2      |        8386 |
|     298 | 0x20C3      |        8387 |
|     299 | 0x20C4      |        8388 |
|     300 | 0x20C5      |        8389 |
|     301 | 0x20C6      |        8390 |
|     302 | 0x20C7      |        8391 |
|     303 | 0x20C8      |        8392 |
|     304 | 0x20C9      |        8393 |
|     305 | 0x20CA      |        8394 |
|     306 | 0x20CB      |        8395 |
|     307 | 0x20CC      |        8396 |
|     308 | 0x20CD      |        8397 |
|     309 | 0x20CE      |        8398 |
|     310 | 0x20CF      |        8399 |
|     311 | 0x20DA      |        8410 |
|     312 | 0x20DB      |        8411 |
|     313 | 0x20DC      |        8412 |
|     314 | 0x20D0      |        8400 |
|     315 | 0x20D1      |        8401 |
|     316 | 0x20D2      |        8402 |
|     317 | 0x20D3      |        8403 |
|     318 | 0x20D4      |        8404 |
|     319 | 0x20D5      |        8405 |
|     320 | 0x20D6      |        8406 |
|     321 | 0x20D7      |        8407 |
|     322 | 0x20D8      |        8408 |
|     323 | 0x20D9      |        8409 |
|     324 | 0x20DD      |        8413 |
|     325 | 0x20DE      |        8414 |
|     326 | 0x20DF      |        8415 |
|     327 | 0x20E0      |        8416 |
|     328 | 0x001D      |          29 |
|     329 | 0x20E1      |        8417 |
|     330 | 0x20E2      |        8418 |
|     331 | 0x20E3      |        8419 |
|     332 | 0x20E4      |        8420 |
|     333 | 0x20E5      |        8421 |
|     334 | 0x20E6      |        8422 |
|     335 | 0x20E7      |        8423 |
|     336 | 0x20E8      |        8424 |
|     337 | 0x20E9      |        8425 |
|     338 | 0x20EA      |        8426 |
|     339 | 0x20EB      |        8427 |
|     340 | 0x20EC      |        8428 |
|     341 | 0x20ED      |        8429 |
|     342 | 0x20EE      |        8430 |
|     343 | 0x20EF      |        8431 |
|     344 | 0x20F0      |        8432 |
|     345 | 0x20FE      |        8446 |
|     346 | 0x20FF      |        8447 |
|     347 | 0x2100      |        8448 |
|     348 | 0x0028      |          40 |
|     349 | 0x20FC      |        8444 |
|     350 | 0x20FD      |        8445 |
|     351 | 0x20F9      |        8441 |
|     352 | 0x20FA      |        8442 |
|     353 | 0x20FB      |        8443 |
|     354 | 0x0014      |          20 |
|     355 | 0x20F6      |        8438 |
|     356 | 0x20F7      |        8439 |
|     357 | 0x20F8      |        8440 |
|     358 | 0x000A      |          10 |
|     359 | 0x20F4      |        8436 |
|     360 | 0x20F5      |        8437 |
|     361 | 0x20F1      |        8433 |
|     362 | 0x20F2      |        8434 |
|     363 | 0x20F3      |        8435 |
|     364 | 0x00FE      |         254 |
|     365 | 0x1F8E      |        8078 |
|     366 | 0x1F8F      |        8079 |
|     367 | 0x0008      |           8 |
|     368 | 0x1F90      |        8080 |
|     369 | 0x1F91      |        8081 |
|     370 | 0x2101      |        8449 |
|     371 | 0x2105      |        8453 |
|     372 | 0x000E      |          14 |
|     373 | 0x2102      |        8450 |
|     374 | 0x2103      |        8451 |
|     375 | 0x2104      |        8452 |
|     376 | 0x2106      |        8454 |
|     377 | 0x2107      |        8455 |
|     378 | 0x2108      |        8456 |
|     379 | 0x2109      |        8457 |
|     380 | 0x210A      |        8458 |
|     381 | 0x210B      |        8459 |
|     382 | 0x210C      |        8460 |
|     383 | 0x210D      |        8461 |
|     384 | 0x210E      |        8462 |
|     385 | 0x210F      |        8463 |
|     386 | 0x2110      |        8464 |
|     387 | 0x2111      |        8465 |
|     388 | 0x2112      |        8466 |
|     389 | 0x2113      |        8467 |
|     390 | 0x2114      |        8468 |
|     391 | 0x2115      |        8469 |
|     392 | 0x2116      |        8470 |
|     393 | 0x2117      |        8471 |
|     394 | 0x2118      |        8472 |
|     395 | 0x2119      |        8473 |
|     396 | 0x211A      |        8474 |
|     397 | 0x211B      |        8475 |
|     398 | 0x211C      |        8476 |

## String References

- **8078**: Current progress: [Ancient abyssite obtained: $0/$1/Atma obtained: $2/$3/Quests completed: $4/$5/Return.]
- **8079**: [Requirement/Objective completed]: Obtain all ancient abyssite found in this area.
- **8080**: [Requirement/Objective completed]: Obtain all atma found in this area.
- **8081**: [Requirement/Objective completed]: Complete all quests issued in this area.
- **8141**: Help find the stranded soldiers? [Just leave it to me!/I'm not in a charitable mood.]
- **8200**: This grassy mound appears to serve as a makeshift grave.
- **8201**: Offer the $1? [Yes./No.]
- **8202**: <Player> places the $1 upon the grave.
- **8203**: This grassy mound appears to serve as a makeshift grave. $1 has been placed upon it.
- **8216**: Embrace your destiny? [Wholeheartedly!/Cast it aside.]
- **8227**: $1 adorns the grave, thickening the air with the ripe stench of death.
- **8271**: Help him out? [But of course!/He can get his own spring.]
- **8280**: You put $1 in the fire.
- **8281**: The meat appears to be nearly done.
- **8282**: Continue roasting? [Keep going./Remove from the fire.]
- **8283**: You have burnt the meat.
- **8284**: A mouthwatering aroma permeates the air!
- **8285**: You successfully roasted a Galkan sausage!
- **8286**: Continue roasting? [Keep going./Remove from the fire.]
- **8287**: A burnt smell pervades the air.
- **8288**: A succulent Galkan sausage emerges steaming from within the charred embers!
- **8289**: Continue roasting? [Keep going./Remove from the fire.]
- **8290**: An overpowering burnt smell pervades the air.
- **8291**: The meat has been reduced to a charred black mass.
- **8292**: However, an especially succulent Galkan sausage emerges steaming from within the charred husk!
- **8316**: <Player> thrusts the $3 into the earth.
- **8317**: The $3 begins emitting an angry red light.
- **8318**: The $3 begins emitting a radiant blue light.
- **8319**: The $3 begins emitting a homely yellow light.
- **8330**: Volunteer to administer the fertilizer? [I'm your [man/woman]!/Now isn't a good time.]
- **8338**: You inject the fertilizer into the soil.
- **8339**: The soil in the area begins giving off a rich, earthy aroma.
- **8340**: Nothing happened...
- **8355**: Help retrieve the gunpowder? [Sure, it'll be a blast!/Nah, I've got better things to do.]
- **8374**: Will you be helping? [I will be helping./I will be taking my leave.]
- **8423**: Ask about... [Weaknesses./Reinforcements./Killing blows./Nothing for now.]
- **8479**: Select point range. [NQ: 0-49./HQ1: 51|59./HQ2: 60|74./HQ3: 75+.]
- **8480**: $0$672001$3 $4A$5A$6A$7

## Events

### Event 65535

#### Metadata

| Field        | Value     |
|--------------|-----------|
| Entrypoint   | 0x0000    |
| Data Size    | 658 bytes |
| Instructions | 1         |

```
      00 01 02 03 04 05 06 07  08 09 0A 0B 0C 0D 0E 0F
      -- -- -- -- -- -- -- --  -- -- -- -- -- -- -- --
0000: 00 45 00 80 F0 FF FF 7F  F0 FF FF 7F 66 64 69 30  .E..........fdi0
0010: 01 80 55 00 80 F0 FF FF  7F F0 FF FF 7F 66 64 69  ..U..........fdi
0020: 30 1B 45 00 80 F0 FF FF  7F F0 FF FF 7F 66 64 6F  0.E..........fdo
0030: 30 01 80 55 00 80 F0 FF  FF 7F F0 FF FF 7F 66 64  0..U..........fd
0040: 6F 30 1B 45 00 80 F0 FF  FF 7F F0 FF FF 7F 66 64  o0.E..........fd
0050: 69 31 01 80 55 00 80 F0  FF FF 7F F0 FF FF 7F 66  i1..U..........f
0060: 64 69 31 1B 45 00 80 F0  FF FF 7F F0 FF FF 7F 66  di1.E..........f
0070: 64 6F 31 01 80 55 00 80  F0 FF FF 7F F0 FF FF 7F  do1..U..........
0080: 66 64 6F 31 1B 45 02 80  F0 FF FF 7F F0 FF FF 7F  fdo1.E..........
0090: 77 68 69 31 01 80 55 02  80 F0 FF FF 7F F0 FF FF  whi1..U.........
00A0: 7F 77 68 69 31 1B 45 02  80 F0 FF FF 7F F0 FF FF  .whi1.E.........
00B0: 7F 77 68 6F 31 01 80 55  02 80 F0 FF FF 7F F0 FF  .who1..U........
00C0: FF 7F 77 68 6F 31 1B 45  02 80 F0 FF FF 7F F0 FF  ..who1.E........
00D0: FF 7F 77 68 6F 32 01 80  55 02 80 F0 FF FF 7F F0  ..who2..U.......
00E0: FF FF 7F 77 68 6F 32 1B  45 02 80 F0 FF FF 7F F0  ...who2.E.......
00F0: FF FF 7F 77 68 6F 33 01  80 55 02 80 F0 FF FF 7F  ...who3..U......
0100: F0 FF FF 7F 77 68 6F 33  1B 62 03 80 F0 FF FF 7F  ....who3.b......
0110: F0 FF FF 7F 6D 61 69 6E  01 80 1C 04 80 45 00 80  ....main.....E..
0120: F0 FF FF 7F F0 FF FF 7F  66 64 6F 31 01 80 55 00  ........fdo1..U.
0130: 80 F0 FF FF 7F F0 FF FF  7F 66 64 6F 31 1B 45 00  .........fdo1.E.
0140: 80 F0 FF FF 7F F0 FF FF  7F 66 64 69 31 01 80 62  .........fdi1..b
0150: 05 80 F0 FF FF 7F F0 FF  FF 7F 6D 61 69 6E 01 80  ..........main..
0160: 1C 06 80 55 00 80 F0 FF  FF 7F F0 FF FF 7F 66 64  ...U..........fd
0170: 69 31 1B 45 00 80 F0 FF  FF 7F F0 FF FF 7F 62 6C  i1.E..........bl
0180: 6F 6E 01 80 45 02 80 F0  FF FF 7F F0 FF FF 7F 62  on..E..........b
0190: 6C 6F 6E 01 80 1B 45 02  80 F0 FF FF 7F F0 FF FF  lon...E.........
01A0: 7F 77 68 69 30 01 80 55  02 80 F0 FF FF 7F F0 FF  .whi0..U........
01B0: FF 7F 77 68 69 30 1B 45  02 80 F0 FF FF 7F F0 FF  ..whi0.E........
01C0: FF 7F 77 68 6F 30 01 80  55 02 80 F0 FF FF 7F F0  ..who0..U.......
01D0: FF FF 7F 77 68 6F 30 1B  45 07 80 F0 FF FF 7F F0  ...who0.E.......
01E0: FF FF 7F 65 66 6F 6E 01  80 55 07 80 F0 FF FF 7F  ...efon..U......
01F0: F0 FF FF 7F 65 66 6F 6E  1B 45 00 80 F0 FF FF 7F  ....efon.E......
0200: F0 FF FF 7F 66 64 69 73  01 80 1B 45 00 80 F0 FF  ....fdis...E....
0210: FF 7F F0 FF FF 7F 66 64  6F 73 01 80 55 00 80 F0  ......fdos..U...
0220: FF FF 7F F0 FF FF 7F 66  64 6F 73 1B 45 00 80 F0  .......fdos.E...
0230: FF FF 7F F0 FF FF 7F 66  64 69 66 01 80 1B 45 00  .......fdif...E.
0240: 80 F0 FF FF 7F F0 FF FF  7F 66 64 6F 66 01 80 55  .........fdof..U
0250: 00 80 F0 FF FF 7F F0 FF  FF 7F 66 64 6F 66 1B 45  ..........fdof.E
0260: 00 80 F0 FF FF 7F F0 FF  FF 7F 66 64 69 70 01 80  ..........fdip..
0270: 1B 45 00 80 F0 FF FF 7F  F0 FF FF 7F 66 64 6F 70  .E..........fdop
0280: 01 80 55 00 80 F0 FF FF  7F F0 FF FF 7F 66 64 6F  ..U..........fdo
0290: 70 1B                                             p.              
```

#### Opcodes

```
  0: 0x0000 [0x00] END_REQSTACK()
```

#### Data or dead code:

```
# Dead code (unreachable instructions):
     0x0001 [0x45] LOAD_SCHEDULED_TASK: Load scheduler "fdi0" with entities [LocalPlayer, LocalPlayer], work=[200*, 0*]
     0x0012 [0x55] WAIT_LOAD_SCHEDULER: Wait for scheduler "fdi0" with entities [LocalPlayer, LocalPlayer], work=200*
     0x0021 [0x1B] RETURN
     0x0022 [0x45] LOAD_SCHEDULED_TASK: Load scheduler "fdo0" with entities [LocalPlayer, LocalPlayer], work=[200*, 0*]
     0x0033 [0x55] WAIT_LOAD_SCHEDULER: Wait for scheduler "fdo0" with entities [LocalPlayer, LocalPlayer], work=200*
     0x0042 [0x1B] RETURN
     0x0043 [0x45] LOAD_SCHEDULED_TASK: Load scheduler "fdi1" with entities [LocalPlayer, LocalPlayer], work=[200*, 0*]
     0x0054 [0x55] WAIT_LOAD_SCHEDULER: Wait for scheduler "fdi1" with entities [LocalPlayer, LocalPlayer], work=200*
     0x0063 [0x1B] RETURN
     0x0064 [0x45] LOAD_SCHEDULED_TASK: Load scheduler "fdo1" with entities [LocalPlayer, LocalPlayer], work=[200*, 0*]
     0x0075 [0x55] WAIT_LOAD_SCHEDULER: Wait for scheduler "fdo1" with entities [LocalPlayer, LocalPlayer], work=200*
     0x0084 [0x1B] RETURN
     0x0085 [0x45] LOAD_SCHEDULED_TASK: Load scheduler "whi1" with entities [LocalPlayer, LocalPlayer], work=[201*, 0*]
     0x0096 [0x55] WAIT_LOAD_SCHEDULER: Wait for scheduler "whi1" with entities [LocalPlayer, LocalPlayer], work=201*
     0x00A5 [0x1B] RETURN
     0x00A6 [0x45] LOAD_SCHEDULED_TASK: Load scheduler "who1" with entities [LocalPlayer, LocalPlayer], work=[201*, 0*]
     0x00B7 [0x55] WAIT_LOAD_SCHEDULER: Wait for scheduler "who1" with entities [LocalPlayer, LocalPlayer], work=201*
     0x00C6 [0x1B] RETURN
     0x00C7 [0x45] LOAD_SCHEDULED_TASK: Load scheduler "who2" with entities [LocalPlayer, LocalPlayer], work=[201*, 0*]
     0x00D8 [0x55] WAIT_LOAD_SCHEDULER: Wait for scheduler "who2" with entities [LocalPlayer, LocalPlayer], work=201*
     0x00E7 [0x1B] RETURN
     0x00E8 [0x45] LOAD_SCHEDULED_TASK: Load scheduler "who3" with entities [LocalPlayer, LocalPlayer], work=[201*, 0*]
     0x00F9 [0x55] WAIT_LOAD_SCHEDULER: Wait for scheduler "who3" with entities [LocalPlayer, LocalPlayer], work=201*
     0x0108 [0x1B] RETURN
     0x0109 [0x62] LOAD_EVENT_SCHEDULER: Load scheduler "main" with entities [LocalPlayer, LocalPlayer], work=[1*, 0*]
     0x011A [0x1C] WAIT(45* ticks)
     0x011D [0x45] LOAD_SCHEDULED_TASK: Load scheduler "fdo1" with entities [LocalPlayer, LocalPlayer], work=[200*, 0*]
     0x012E [0x55] WAIT_LOAD_SCHEDULER: Wait for scheduler "fdo1" with entities [LocalPlayer, LocalPlayer], work=200*
     0x013D [0x1B] RETURN
     0x013E [0x45] LOAD_SCHEDULED_TASK: Load scheduler "fdi1" with entities [LocalPlayer, LocalPlayer], work=[200*, 0*]
     0x014F [0x62] LOAD_EVENT_SCHEDULER: Load scheduler "main" with entities [LocalPlayer, LocalPlayer], work=[2*, 0*]
     0x0160 [0x1C] WAIT(30* ticks)
     0x0163 [0x55] WAIT_LOAD_SCHEDULER: Wait for scheduler "fdi1" with entities [LocalPlayer, LocalPlayer], work=200*
     0x0172 [0x1B] RETURN
     0x0173 [0x45] LOAD_SCHEDULED_TASK: Load scheduler "blon" with entities [LocalPlayer, LocalPlayer], work=[200*, 0*]
     0x0184 [0x45] LOAD_SCHEDULED_TASK: Load scheduler "blon" with entities [LocalPlayer, LocalPlayer], work=[201*, 0*]
     0x0195 [0x1B] RETURN
     0x0196 [0x45] LOAD_SCHEDULED_TASK: Load scheduler "whi0" with entities [LocalPlayer, LocalPlayer], work=[201*, 0*]
     0x01A7 [0x55] WAIT_LOAD_SCHEDULER: Wait for scheduler "whi0" with entities [LocalPlayer, LocalPlayer], work=201*
     0x01B6 [0x1B] RETURN
     0x01B7 [0x45] LOAD_SCHEDULED_TASK: Load scheduler "who0" with entities [LocalPlayer, LocalPlayer], work=[201*, 0*]
     0x01C8 [0x55] WAIT_LOAD_SCHEDULER: Wait for scheduler "who0" with entities [LocalPlayer, LocalPlayer], work=201*
     0x01D7 [0x1B] RETURN
     0x01D8 [0x45] LOAD_SCHEDULED_TASK: Load scheduler "efon" with entities [LocalPlayer, LocalPlayer], work=[215*, 0*]
     0x01E9 [0x55] WAIT_LOAD_SCHEDULER: Wait for scheduler "efon" with entities [LocalPlayer, LocalPlayer], work=215*
     0x01F8 [0x1B] RETURN
     0x01F9 [0x45] LOAD_SCHEDULED_TASK: Load scheduler "fdis" with entities [LocalPlayer, LocalPlayer], work=[200*, 0*]
     0x020A [0x1B] RETURN
     0x020B [0x45] LOAD_SCHEDULED_TASK: Load scheduler "fdos" with entities [LocalPlayer, LocalPlayer], work=[200*, 0*]
     0x021C [0x55] WAIT_LOAD_SCHEDULER: Wait for scheduler "fdos" with entities [LocalPlayer, LocalPlayer], work=200*
     0x022B [0x1B] RETURN
     0x022C [0x45] LOAD_SCHEDULED_TASK: Load scheduler "fdif" with entities [LocalPlayer, LocalPlayer], work=[200*, 0*]
     0x023D [0x1B] RETURN
     0x023E [0x45] LOAD_SCHEDULED_TASK: Load scheduler "fdof" with entities [LocalPlayer, LocalPlayer], work=[200*, 0*]
     0x024F [0x55] WAIT_LOAD_SCHEDULER: Wait for scheduler "fdof" with entities [LocalPlayer, LocalPlayer], work=200*
     0x025E [0x1B] RETURN
     0x025F [0x45] LOAD_SCHEDULED_TASK: Load scheduler "fdip" with entities [LocalPlayer, LocalPlayer], work=[200*, 0*]
     0x0270 [0x1B] RETURN
     0x0271 [0x45] LOAD_SCHEDULED_TASK: Load scheduler "fdop" with entities [LocalPlayer, LocalPlayer], work=[200*, 0*]
     0x0282 [0x55] WAIT_LOAD_SCHEDULER: Wait for scheduler "fdop" with entities [LocalPlayer, LocalPlayer], work=200*
     0x0291 [0x1B] RETURN
```

### Event 151

#### Metadata

| Field        | Value     |
|--------------|-----------|
| Entrypoint   | 0x0292    |
| Data Size    | 274 bytes |
| Instructions | 49        |

```
      00 01 02 03 04 05 06 07  08 09 0A 0B 0C 0D 0E 0F
      -- -- -- -- -- -- -- --  -- -- -- -- -- -- -- --
0290:       42 4A 05 83 0D 01  F0 FF FF 7F 6F 76 05 83    BJ........ov..
02A0: 0D 01 2B 05 83 0D 01 08  80 23 2B 05 83 0D 01 09  ..+......#+.....
02B0: 80 23 66 0A 80 05 83 0D  01 05 83 0D 01 74 6C 6B  .#f..........tlk
02C0: 30 2B 05 83 0D 01 0B 80  23 2B 05 83 0D 01 0C 80  0+......#+......
02D0: 23 2B 05 83 0D 01 0D 80  23 66 0A 80 05 83 0D 01  #+......#f......
02E0: 05 83 0D 01 74 6C 6B 31  2B 05 83 0D 01 0E 80 23  ....tlk1+......#
02F0: 24 0F 80 01 80 01 80 25  02 00 10 01 80 00 17 03  $......%........
0300: 6E 05 83 0D 01 10 80 99  05 83 0D 01 2B 05 83 0D  n...........+...
0310: 01 11 80 23 01 53 03 02  00 10 03 80 00 53 03 66  ...#.S.......S.f
0320: 0A 80 05 83 0D 01 05 83  0D 01 74 6C 6B 30 2B 05  ..........tlk0+.
0330: 83 0D 01 12 80 23 2B 05  83 0D 01 13 80 23 66 0A  .....#+......#f.
0340: 80 05 83 0D 01 05 83 0D  01 74 6C 6B 31 01 F0 02  .........tlk1...
0350: 01 53 03 2B 05 83 0D 01  14 80 23 27 10 F0 FF FF  .S.+......#'....
0360: 7F 09 1C 15 80 27 10 F0  FF FF 7F 0A 66 0A 80 05  .....'......f...
0370: 83 0D 01 05 83 0D 01 74  6C 6B 30 2B 05 83 0D 01  .......tlk0+....
0380: 16 80 23 2B 05 83 0D 01  17 80 23 2B 05 83 0D 01  ..#+......#+....
0390: 18 80 23 66 0A 80 05 83  0D 01 05 83 0D 01 74 6C  ..#f..........tl
03A0: 6B 31 21 00                                       k1!.            
```

#### Opcodes

```
  0: 0x0292 [0x42] SET_CLI_EVENT_CANCEL_DATA()
  1: 0x0293 [0x4A] Iron Eater (ID: 17662725/0x010D8305) looks at LocalPlayer
  2: 0x029C [0x6F] WAIT_FRAME_DELAY: Yield until WaitTime reaches zero
  3: 0x029D [0x76] CHECK_ENTITY_RENDER_FLAGS: Wait until Iron Eater (ID: 17662725/0x010D8305) Render.Flags0 and Render.Flags3 conditions are met
  4: 0x02A2 [0x2B] Iron Eater (ID: 17662725/0x010D8305) [8135*]:
    → "Hm? I don't believe I've seen you before."
  5: 0x02A9 [0x23] WAIT_FOR_DIALOG_INTERACTION
  6: 0x02AA [0x2B] Iron Eater (ID: 17662725/0x010D8305) [8136*]:
    → "But who you are or where you've come from makes no difference. These are dark times we're living in, and every single sword arm must be put to good use if we wish to survive."
  7: 0x02B1 [0x23] WAIT_FOR_DIALOG_INTERACTION
  8: 0x02B2 [0x66] LOAD_EXT_SCHEDULER_MAIN: Load scheduler "tlk0" with entities [Iron Eater (ID: 17662725/0x010D8305), Iron Eater (ID: 17662725/0x010D8305)], work=69*
  9: 0x02C1 [0x2B] Iron Eater (ID: 17662725/0x010D8305) [8137*]:
    → "When the cataclysm befell us, my people and I managed to evacuate to the relative safety of this position. However, our journey here wasn't entirely incident-free."
 10: 0x02C8 [0x23] WAIT_FOR_DIALOG_INTERACTION
 11: 0x02C9 [0x2B] Iron Eater (ID: 17662725/0x010D8305) [8138*]:
    → "We were set upon by monsters, and during the skirmish some of our soldiers became separated from the main caravan. To compound matters, the regiment linkshell took irreparable damage in battle, preventing us from regaining contact."
 12: 0x02D0 [0x23] WAIT_FOR_DIALOG_INTERACTION
 13: 0x02D1 [0x2B] Iron Eater (ID: 17662725/0x010D8305) [8139*]:
    → "I wanted nothing more than to dispatch a search party, but we simply can't afford the manpower. Having said that, my conscience won't allow me to leave our own to wander this savage wilderness indefinitely."
 14: 0x02D8 [0x23] WAIT_FOR_DIALOG_INTERACTION
 15: 0x02D9 [0x66] LOAD_EXT_SCHEDULER_MAIN: Load scheduler "tlk1" with entities [Iron Eater (ID: 17662725/0x010D8305), Iron Eater (ID: 17662725/0x010D8305)], work=69*
 16: 0x02E8 [0x2B] Iron Eater (ID: 17662725/0x010D8305) [8140*]:
    → "I was hoping that you could go out there and locate the stranded soldiers in our stead. This isn't something I would ordinarily ask of a newcomer, but we're out of options. Will you do this for us?"
 17: 0x02EF [0x23] WAIT_FOR_DIALOG_INTERACTION
 18: 0x02F0 [0x24] CREATE_DIALOG(message_id=8141*, default_option=0*, option_flags=0*)
    → "Help find the stranded soldiers? [Just leave it to me!/I'm not in a charitable mood.]"
 19: 0x02F7 [0x25] WAIT_DIALOG_SELECT()
 20: 0x02F8 [0x02] IF !(Work_Zone[0] == 0*) GOTO 0x0317
 21: 0x0300 [0x6E] Iron Eater (ID: 17662725/0x010D8305) uses emote 7*
 22: 0x0307 [0x99] Wait for Iron Eater (ID: 17662725/0x010D8305) animation to complete
 23: 0x030C [0x2B] Iron Eater (ID: 17662725/0x010D8305) [8142*]:
    → "You've relieved me of a great burden. Thank you."
 24: 0x0313 [0x23] WAIT_FOR_DIALOG_INTERACTION
 25: 0x0314 [0x01] GOTO 0x0353
 26: 0x0317 [0x02] IF !(Work_Zone[0] == 1*) GOTO 0x0353
 27: 0x031F [0x66] LOAD_EXT_SCHEDULER_MAIN: Load scheduler "tlk0" with entities [Iron Eater (ID: 17662725/0x010D8305), Iron Eater (ID: 17662725/0x010D8305)], work=69*
 28: 0x032E [0x2B] Iron Eater (ID: 17662725/0x010D8305) [8143*]:
    → "I understand this is no small request I make. But as the situation stands, we have no choice but to ask for your help."
 29: 0x0335 [0x23] WAIT_FOR_DIALOG_INTERACTION
 30: 0x0336 [0x2B] Iron Eater (ID: 17662725/0x010D8305) [8144*]:
    → "I beg you, please reconsider!"
 31: 0x033D [0x23] WAIT_FOR_DIALOG_INTERACTION
 32: 0x033E [0x66] LOAD_EXT_SCHEDULER_MAIN: Load scheduler "tlk1" with entities [Iron Eater (ID: 17662725/0x010D8305), Iron Eater (ID: 17662725/0x010D8305)], work=69*
 33: 0x034D [0x01] GOTO 0x02F0

SUBROUTINE_0353:
 34: 0x0353 [0x2B] Iron Eater (ID: 17662725/0x010D8305) [8145*]:
    → "Before I continue, let me introduce myself. I'm Iron Eater, a musketeer of the old Republic. What may I call you, friend?"
 35: 0x035A [0x23] WAIT_FOR_DIALOG_INTERACTION
 36: 0x035B [0x27] REQ_SET(priority=0x10, entity_id=LocalPlayer, tag_num=0x09)
 37: 0x0362 [0x1C] WAIT(120* ticks)
 38: 0x0365 [0x27] REQ_SET(priority=0x10, entity_id=LocalPlayer, tag_num=0x0A)
 39: 0x036C [0x66] LOAD_EXT_SCHEDULER_MAIN: Load scheduler "tlk0" with entities [Iron Eater (ID: 17662725/0x010D8305), Iron Eater (ID: 17662725/0x010D8305)], work=69*
 40: 0x037B [0x2B] Iron Eater (ID: 17662725/0x010D8305) [8146*]:
    → "<Player>... That's a name I won't soon forget. Without further ado, I entrust to you my personal pearlsack. With the regiment linkshell out of commission, this is the only way we can regain contact with the stranded."
 41: 0x0382 [0x23] WAIT_FOR_DIALOG_INTERACTION
 42: 0x0383 [0x2B] Iron Eater (ID: 17662725/0x010D8305) [8147*]:
    → "I've already taken a linkpearl for myself. If you give one to each group of my people you find afield, they will be able to reach me at will."
 43: 0x038A [0x23] WAIT_FOR_DIALOG_INTERACTION
 44: 0x038B [0x2B] Iron Eater (ID: 17662725/0x010D8305) [8148*]:
    → "Go with speed, friend!"
 45: 0x0392 [0x23] WAIT_FOR_DIALOG_INTERACTION
 46: 0x0393 [0x66] LOAD_EXT_SCHEDULER_MAIN: Load scheduler "tlk1" with entities [Iron Eater (ID: 17662725/0x010D8305), Iron Eater (ID: 17662725/0x010D8305)], work=69*
 47: 0x03A2 [0x21] END_EVENT
 48: 0x03A3 [0x00] END_REQSTACK()
```

#### Data or dead code:

```
# Dead code (unreachable instructions):
     0x0350 [0x01] GOTO 0x0353
```

### Event 152

#### Metadata

| Field        | Value    |
|--------------|----------|
| Entrypoint   | 0x03A4   |
| Data Size    | 63 bytes |
| Instructions | 11       |

```
      00 01 02 03 04 05 06 07  08 09 0A 0B 0C 0D 0E 0F
      -- -- -- -- -- -- -- --  -- -- -- -- -- -- -- --
03A0:             4A 05 83 0D  01 F0 FF FF 7F 6F 76 05      J........ov.
03B0: 83 0D 01 66 0A 80 05 83  0D 01 05 83 0D 01 74 6C  ...f..........tl
03C0: 6B 30 2B 05 83 0D 01 19  80 23 2B 05 83 0D 01 1A  k0+......#+.....
03D0: 80 23 66 0A 80 05 83 0D  01 05 83 0D 01 74 6C 6B  .#f..........tlk
03E0: 31 21 00                                          1!.             
```

#### Opcodes

```
  0: 0x03A4 [0x4A] Iron Eater (ID: 17662725/0x010D8305) looks at LocalPlayer
  1: 0x03AD [0x6F] WAIT_FRAME_DELAY: Yield until WaitTime reaches zero
  2: 0x03AE [0x76] CHECK_ENTITY_RENDER_FLAGS: Wait until Iron Eater (ID: 17662725/0x010D8305) Render.Flags0 and Render.Flags3 conditions are met
  3: 0x03B3 [0x66] LOAD_EXT_SCHEDULER_MAIN: Load scheduler "tlk0" with entities [Iron Eater (ID: 17662725/0x010D8305), Iron Eater (ID: 17662725/0x010D8305)], work=69*
  4: 0x03C2 [0x2B] Iron Eater (ID: 17662725/0x010D8305) [8149*]:
    → "Take my pearlsack and give one linkpearl to each group of my people you find afield. This will allow us to regain contact with one another."
  5: 0x03C9 [0x23] WAIT_FOR_DIALOG_INTERACTION
  6: 0x03CA [0x2B] Iron Eater (ID: 17662725/0x010D8305) [8150*]:
    → "Go with speed, <Player>!"
  7: 0x03D1 [0x23] WAIT_FOR_DIALOG_INTERACTION
  8: 0x03D2 [0x66] LOAD_EXT_SCHEDULER_MAIN: Load scheduler "tlk1" with entities [Iron Eater (ID: 17662725/0x010D8305), Iron Eater (ID: 17662725/0x010D8305)], work=69*
  9: 0x03E1 [0x21] END_EVENT
 10: 0x03E2 [0x00] END_REQSTACK()
```

### Event 153

#### Metadata

| Field        | Value    |
|--------------|----------|
| Entrypoint   | 0x03E3   |
| Data Size    | 91 bytes |
| Instructions | 17       |

```
      00 01 02 03 04 05 06 07  08 09 0A 0B 0C 0D 0E 0F
      -- -- -- -- -- -- -- --  -- -- -- -- -- -- -- --
03E0:          4A 06 83 0D 01  F0 FF FF 7F 6F 76 06 83     J........ov..
03F0: 0D 01 6E 06 83 0D 01 1B  80 99 06 83 0D 01 2B 06  ..n...........+.
0400: 83 0D 01 1C 80 23 2B 06  83 0D 01 1D 80 23 66 1E  .....#+......#f.
0410: 80 06 83 0D 01 06 83 0D  01 74 6C 6B 30 2B 06 83  .........tlk0+..
0420: 0D 01 1F 80 23 2B 06 83  0D 01 20 80 23 66 1E 80  ....#+.... .#f..
0430: 06 83 0D 01 06 83 0D 01  74 6C 6B 31 21 00        ........tlk1!.  
```

#### Opcodes

```
  0: 0x03E3 [0x4A] Fariel (ID: 17662726/0x010D8306) looks at LocalPlayer
  1: 0x03EC [0x6F] WAIT_FRAME_DELAY: Yield until WaitTime reaches zero
  2: 0x03ED [0x76] CHECK_ENTITY_RENDER_FLAGS: Wait until Fariel (ID: 17662726/0x010D8306) Render.Flags0 and Render.Flags3 conditions are met
  3: 0x03F2 [0x6E] Fariel (ID: 17662726/0x010D8306) uses emote 21*
  4: 0x03F9 [0x99] Wait for Fariel (ID: 17662726/0x010D8306) animation to complete
  5: 0x03FE [0x2B] Fariel (ID: 17662726/0x010D8306) [8151*]:
    → "Hm? You're not of the regiment, I gather. That you've managed to survive this long is a miracle. Consider yourself fortunate."
  6: 0x0405 [0x23] WAIT_FOR_DIALOG_INTERACTION
  7: 0x0406 [0x2B] Fariel (ID: 17662726/0x010D8306) [8152*]:
    → "We were evacuating to safety when the Abyssean hordes set upon us, you see. After the dust settled, we found ourselves separated from the others."
  8: 0x040D [0x23] WAIT_FOR_DIALOG_INTERACTION
  9: 0x040E [0x66] LOAD_EXT_SCHEDULER_MAIN: Load scheduler "tlk0" with entities [Fariel (ID: 17662726/0x010D8306), Fariel (ID: 17662726/0x010D8306)], work=9*
 10: 0x041D [0x2B] Fariel (ID: 17662726/0x010D8306) [8153*]:
    → "I've tried half a hundred times to regain contact with the regiment, but the signal won't go through."
 11: 0x0424 [0x23] WAIT_FOR_DIALOG_INTERACTION
 12: 0x0425 [0x2B] Fariel (ID: 17662726/0x010D8306) [8154*]:
    → "I hate to admit this, but our situation is grim. We don't have the numbers to hold out here for long. If you value your life, I suggest you run for the hills."
 13: 0x042C [0x23] WAIT_FOR_DIALOG_INTERACTION
 14: 0x042D [0x66] LOAD_EXT_SCHEDULER_MAIN: Load scheduler "tlk1" with entities [Fariel (ID: 17662726/0x010D8306), Fariel (ID: 17662726/0x010D8306)], work=9*
 15: 0x043C [0x21] END_EVENT
 16: 0x043D [0x00] END_REQSTACK()
```

### Event 156

#### Metadata

| Field        | Value     |
|--------------|-----------|
| Entrypoint   | 0x043E    |
| Data Size    | 132 bytes |
| Instructions | 28        |

```
      00 01 02 03 04 05 06 07  08 09 0A 0B 0C 0D 0E 0F
      -- -- -- -- -- -- -- --  -- -- -- -- -- -- -- --
0430:                                            42 4A                BJ
0440: 06 83 0D 01 F0 FF FF 7F  6F 76 06 83 0D 01 2B 06  ........ov....+.
0450: 83 0D 01 21 80 23 2B 06  83 0D 01 22 80 23 6E 06  ...!.#+....".#n.
0460: 83 0D 01 23 80 99 06 83  0D 01 2B 06 83 0D 01 24  ...#......+....$
0470: 80 23 2B 06 83 0D 01 25  80 23 2B 06 83 0D 01 26  .#+....%.#+....&
0480: 80 23 66 1E 80 06 83 0D  01 06 83 0D 01 74 6C 6B  .#f..........tlk
0490: 30 2B 06 83 0D 01 27 80  23 2B 06 83 0D 01 28 80  0+....'.#+....(.
04A0: 23 2B 06 83 0D 01 29 80  23 2B 06 83 0D 01 2A 80  #+....).#+....*.
04B0: 23 66 1E 80 06 83 0D 01  06 83 0D 01 74 6C 6B 31  #f..........tlk1
04C0: 21 00                                             !.              
```

#### Opcodes

```
  0: 0x043E [0x42] SET_CLI_EVENT_CANCEL_DATA()
  1: 0x043F [0x4A] Fariel (ID: 17662726/0x010D8306) looks at LocalPlayer
  2: 0x0448 [0x6F] WAIT_FRAME_DELAY: Yield until WaitTime reaches zero
  3: 0x0449 [0x76] CHECK_ENTITY_RENDER_FLAGS: Wait until Fariel (ID: 17662726/0x010D8306) Render.Flags0 and Render.Flags3 conditions are met
  4: 0x044E [0x2B] Fariel (ID: 17662726/0x010D8306) [8155*]:
    → "Who goes there!?"
  5: 0x0455 [0x23] WAIT_FOR_DIALOG_INTERACTION
  6: 0x0456 [0x2B] Fariel (ID: 17662726/0x010D8306) [8156*]:
    → "What? Iron Eater sent you to look for us?"
  7: 0x045D [0x23] WAIT_FOR_DIALOG_INTERACTION
  8: 0x045E [0x6E] Fariel (ID: 17662726/0x010D8306) uses emote 11*
  9: 0x0465 [0x99] Wait for Fariel (ID: 17662726/0x010D8306) animation to complete
 10: 0x046A [0x2B] Fariel (ID: 17662726/0x010D8306) [8157*]:
    → "So the caravan managed to reach safer ground. That's the best tidings I've heard in a while."
 11: 0x0471 [0x23] WAIT_FOR_DIALOG_INTERACTION
 12: 0x0472 [0x2B] Fariel (ID: 17662726/0x010D8306) [8158*]:
    → "You probably already know this, but we were evacuating to safety when the Abyssean hordes attacked. A handful of us found ourselves separated from the main caravan when the dust settled."
 13: 0x0479 [0x23] WAIT_FOR_DIALOG_INTERACTION
 14: 0x047A [0x2B] Fariel (ID: 17662726/0x010D8306) [8159*]:
    → "That the regiment linkshell took damage explains why I couldn't get through to the others."
 15: 0x0481 [0x23] WAIT_FOR_DIALOG_INTERACTION
 16: 0x0482 [0x66] LOAD_EXT_SCHEDULER_MAIN: Load scheduler "tlk0" with entities [Fariel (ID: 17662726/0x010D8306), Fariel (ID: 17662726/0x010D8306)], work=9*
 17: 0x0491 [0x2B] Fariel (ID: 17662726/0x010D8306) [8160*]:
    → "What's this? A linkpearl from Iron Eater's personal pearlsack? Marvelous! Now we'll be able to rejoin the others!"
 18: 0x0498 [0x23] WAIT_FOR_DIALOG_INTERACTION
 19: 0x0499 [0x2B] Fariel (ID: 17662726/0x010D8306) [8161*]:
    → "Ah, before you go..."
 20: 0x04A0 [0x23] WAIT_FOR_DIALOG_INTERACTION
 21: 0x04A1 [0x2B] Fariel (ID: 17662726/0x010D8306) [8162*]:
    → "There might be others isolated like us still out in the field."
 22: 0x04A8 [0x23] WAIT_FOR_DIALOG_INTERACTION
 23: 0x04A9 [0x2B] Fariel (ID: 17662726/0x010D8306) [8163*]:
    → "If they've managed to stay alive so far, it's most likely they've headed west of here."
 24: 0x04B0 [0x23] WAIT_FOR_DIALOG_INTERACTION
 25: 0x04B1 [0x66] LOAD_EXT_SCHEDULER_MAIN: Load scheduler "tlk1" with entities [Fariel (ID: 17662726/0x010D8306), Fariel (ID: 17662726/0x010D8306)], work=9*
 26: 0x04C0 [0x21] END_EVENT
 27: 0x04C1 [0x00] END_REQSTACK()
```

### Event 159

#### Metadata

| Field        | Value    |
|--------------|----------|
| Entrypoint   | 0x04C2   |
| Data Size    | 63 bytes |
| Instructions | 11       |

```
      00 01 02 03 04 05 06 07  08 09 0A 0B 0C 0D 0E 0F
      -- -- -- -- -- -- -- --  -- -- -- -- -- -- -- --
04C0:       4A 06 83 0D 01 F0  FF FF 7F 6F 76 06 83 0D    J........ov...
04D0: 01 66 1E 80 06 83 0D 01  06 83 0D 01 74 6C 6B 30  .f..........tlk0
04E0: 2B 06 83 0D 01 29 80 23  2B 06 83 0D 01 2A 80 23  +....).#+....*.#
04F0: 66 1E 80 06 83 0D 01 06  83 0D 01 74 6C 6B 31 21  f..........tlk1!
0500: 00                                                .               
```

#### Opcodes

```
  0: 0x04C2 [0x4A] Fariel (ID: 17662726/0x010D8306) looks at LocalPlayer
  1: 0x04CB [0x6F] WAIT_FRAME_DELAY: Yield until WaitTime reaches zero
  2: 0x04CC [0x76] CHECK_ENTITY_RENDER_FLAGS: Wait until Fariel (ID: 17662726/0x010D8306) Render.Flags0 and Render.Flags3 conditions are met
  3: 0x04D1 [0x66] LOAD_EXT_SCHEDULER_MAIN: Load scheduler "tlk0" with entities [Fariel (ID: 17662726/0x010D8306), Fariel (ID: 17662726/0x010D8306)], work=9*
  4: 0x04E0 [0x2B] Fariel (ID: 17662726/0x010D8306) [8162*]:
    → "There might be others isolated like us still out in the field."
  5: 0x04E7 [0x23] WAIT_FOR_DIALOG_INTERACTION
  6: 0x04E8 [0x2B] Fariel (ID: 17662726/0x010D8306) [8163*]:
    → "If they've managed to stay alive so far, it's most likely they've headed west of here."
  7: 0x04EF [0x23] WAIT_FOR_DIALOG_INTERACTION
  8: 0x04F0 [0x66] LOAD_EXT_SCHEDULER_MAIN: Load scheduler "tlk1" with entities [Fariel (ID: 17662726/0x010D8306), Fariel (ID: 17662726/0x010D8306)], work=9*
  9: 0x04FF [0x21] END_EVENT
 10: 0x0500 [0x00] END_REQSTACK()
```

### Event 154

#### Metadata

| Field        | Value    |
|--------------|----------|
| Entrypoint   | 0x0501   |
| Data Size    | 73 bytes |
| Instructions | 17       |

```
      00 01 02 03 04 05 06 07  08 09 0A 0B 0C 0D 0E 0F
      -- -- -- -- -- -- -- --  -- -- -- -- -- -- -- --
0500:    4A 07 83 0D 01 F0 FF  FF 7F 6F 76 07 83 0D 01   J........ov....
0510: 6E 07 83 0D 01 2B 80 99  07 83 0D 01 2B 07 83 0D  n....+......+...
0520: 01 2C 80 23 2B 07 83 0D  01 2D 80 23 2B 07 83 0D  .,.#+....-.#+...
0530: 01 2E 80 23 6E 07 83 0D  01 2F 80 99 07 83 0D 01  ...#n..../......
0540: 2B 07 83 0D 01 30 80 23  21 00                    +....0.#!.      
```

#### Opcodes

```
  0: 0x0501 [0x4A] Mathurin (ID: 17662727/0x010D8307) looks at LocalPlayer
  1: 0x050A [0x6F] WAIT_FRAME_DELAY: Yield until WaitTime reaches zero
  2: 0x050B [0x76] CHECK_ENTITY_RENDER_FLAGS: Wait until Mathurin (ID: 17662727/0x010D8307) Render.Flags0 and Render.Flags3 conditions are met
  3: 0x0510 [0x6E] Mathurin (ID: 17662727/0x010D8307) uses emote 38*
  4: 0x0517 [0x99] Wait for Mathurin (ID: 17662727/0x010D8307) animation to complete
  5: 0x051C [0x2B] Mathurin (ID: 17662727/0x010D8307) [8164*]:
    → "Hail, stranger. I must say, I'm amazed to see other survivors roaming these parts."
  6: 0x0523 [0x23] WAIT_FOR_DIALOG_INTERACTION
  7: 0x0524 [0x2B] Mathurin (ID: 17662727/0x010D8307) [8165*]:
    → "I'm part of a regiment that had been evacuating civilians to safety. Halfway through the journey, however, we were attacked by monsters and ended up separated from the others."
  8: 0x052B [0x23] WAIT_FOR_DIALOG_INTERACTION
  9: 0x052C [0x2B] Mathurin (ID: 17662727/0x010D8307) [8166*]:
    → "I've tried to regain contact with my unit, but none of the communication's getting through. I suspect the regiment linkshell took damage during the skirmish."
 10: 0x0533 [0x23] WAIT_FOR_DIALOG_INTERACTION
 11: 0x0534 [0x6E] Mathurin (ID: 17662727/0x010D8307) uses emote 19*
 12: 0x053B [0x99] Wait for Mathurin (ID: 17662727/0x010D8307) animation to complete
 13: 0x0540 [0x2B] Mathurin (ID: 17662727/0x010D8307) [8167*]:
    → "This place is rife with danger. If I were you, I'd find myself a nice big rock to hide under."
 14: 0x0547 [0x23] WAIT_FOR_DIALOG_INTERACTION
 15: 0x0548 [0x21] END_EVENT
 16: 0x0549 [0x00] END_REQSTACK()
```

### Event 157

#### Metadata

| Field        | Value     |
|--------------|-----------|
| Entrypoint   | 0x054A    |
| Data Size    | 128 bytes |
| Instructions | 26        |

```
      00 01 02 03 04 05 06 07  08 09 0A 0B 0C 0D 0E 0F
      -- -- -- -- -- -- -- --  -- -- -- -- -- -- -- --
0540:                                42 4A 07 83 0D 01            BJ....
0550: F0 FF FF 7F 6F 76 07 83  0D 01 6E 07 83 0D 01 2B  ....ov....n....+
0560: 80 99 07 83 0D 01 2B 07  83 0D 01 2C 80 23 2B 07  ......+....,.#+.
0570: 83 0D 01 31 80 23 6E 07  83 0D 01 32 80 99 07 83  ...1.#n....2....
0580: 0D 01 2B 07 83 0D 01 33  80 23 2B 07 83 0D 01 34  ..+....3.#+....4
0590: 80 23 66 1E 80 07 83 0D  01 07 83 0D 01 74 6C 6B  .#f..........tlk
05A0: 30 2B 07 83 0D 01 35 80  23 2B 07 83 0D 01 36 80  0+....5.#+....6.
05B0: 23 2B 07 83 0D 01 37 80  23 66 1E 80 07 83 0D 01  #+....7.#f......
05C0: 07 83 0D 01 74 6C 6B 31  21 00                    ....tlk1!.      
```

#### Opcodes

```
  0: 0x054A [0x42] SET_CLI_EVENT_CANCEL_DATA()
  1: 0x054B [0x4A] Mathurin (ID: 17662727/0x010D8307) looks at LocalPlayer
  2: 0x0554 [0x6F] WAIT_FRAME_DELAY: Yield until WaitTime reaches zero
  3: 0x0555 [0x76] CHECK_ENTITY_RENDER_FLAGS: Wait until Mathurin (ID: 17662727/0x010D8307) Render.Flags0 and Render.Flags3 conditions are met
  4: 0x055A [0x6E] Mathurin (ID: 17662727/0x010D8307) uses emote 38*
  5: 0x0561 [0x99] Wait for Mathurin (ID: 17662727/0x010D8307) animation to complete
  6: 0x0566 [0x2B] Mathurin (ID: 17662727/0x010D8307) [8164*]:
    → "Hail, stranger. I must say, I'm amazed to see other survivors roaming these parts."
  7: 0x056D [0x23] WAIT_FOR_DIALOG_INTERACTION
  8: 0x056E [0x2B] Mathurin (ID: 17662727/0x010D8307) [8168*]:
    → "What? Iron Eater sent you, you say?"
  9: 0x0575 [0x23] WAIT_FOR_DIALOG_INTERACTION
 10: 0x0576 [0x6E] Mathurin (ID: 17662727/0x010D8307) uses emote 36*
 11: 0x057D [0x99] Wait for Mathurin (ID: 17662727/0x010D8307) animation to complete
 12: 0x0582 [0x2B] Mathurin (ID: 17662727/0x010D8307) [8169*]:
    → "Why, this is a linkpearl! Thank the heavens!"
 13: 0x0589 [0x23] WAIT_FOR_DIALOG_INTERACTION
 14: 0x058A [0x2B] Mathurin (ID: 17662727/0x010D8307) [8170*]:
    → "No doubt, the commander has already told you of how we came to be separated from the main caravan."
 15: 0x0591 [0x23] WAIT_FOR_DIALOG_INTERACTION
 16: 0x0592 [0x66] LOAD_EXT_SCHEDULER_MAIN: Load scheduler "tlk0" with entities [Mathurin (ID: 17662727/0x010D8307), Mathurin (ID: 17662727/0x010D8307)], work=9*
 17: 0x05A1 [0x2B] Mathurin (ID: 17662727/0x010D8307) [8171*]:
    → "Ah, as I thought, damage to the linkshell was the culprit confounding our communications. I'm glad there was no worse cause."
 18: 0x05A8 [0x23] WAIT_FOR_DIALOG_INTERACTION
 19: 0x05A9 [0x2B] Mathurin (ID: 17662727/0x010D8307) [8172*]:
    → "You should know that there're others still who've become stranded."
 20: 0x05B0 [0x23] WAIT_FOR_DIALOG_INTERACTION
 21: 0x05B1 [0x2B] Mathurin (ID: 17662727/0x010D8307) [8173*]:
    → "Indeed, there was another group from the regiment that had fled beside us as far as the eastern area."
 22: 0x05B8 [0x23] WAIT_FOR_DIALOG_INTERACTION
 23: 0x05B9 [0x66] LOAD_EXT_SCHEDULER_MAIN: Load scheduler "tlk1" with entities [Mathurin (ID: 17662727/0x010D8307), Mathurin (ID: 17662727/0x010D8307)], work=9*
 24: 0x05C8 [0x21] END_EVENT
 25: 0x05C9 [0x00] END_REQSTACK()
```

### Event 160

#### Metadata

| Field        | Value    |
|--------------|----------|
| Entrypoint   | 0x05CA   |
| Data Size    | 63 bytes |
| Instructions | 11       |

```
      00 01 02 03 04 05 06 07  08 09 0A 0B 0C 0D 0E 0F
      -- -- -- -- -- -- -- --  -- -- -- -- -- -- -- --
05C0:                                4A 07 83 0D 01 F0            J.....
05D0: FF FF 7F 6F 76 07 83 0D  01 66 1E 80 07 83 0D 01  ...ov....f......
05E0: 07 83 0D 01 74 6C 6B 30  2B 07 83 0D 01 36 80 23  ....tlk0+....6.#
05F0: 2B 07 83 0D 01 37 80 23  66 1E 80 07 83 0D 01 07  +....7.#f.......
0600: 83 0D 01 74 6C 6B 31 21  00                       ...tlk1!.       
```

#### Opcodes

```
  0: 0x05CA [0x4A] Mathurin (ID: 17662727/0x010D8307) looks at LocalPlayer
  1: 0x05D3 [0x6F] WAIT_FRAME_DELAY: Yield until WaitTime reaches zero
  2: 0x05D4 [0x76] CHECK_ENTITY_RENDER_FLAGS: Wait until Mathurin (ID: 17662727/0x010D8307) Render.Flags0 and Render.Flags3 conditions are met
  3: 0x05D9 [0x66] LOAD_EXT_SCHEDULER_MAIN: Load scheduler "tlk0" with entities [Mathurin (ID: 17662727/0x010D8307), Mathurin (ID: 17662727/0x010D8307)], work=9*
  4: 0x05E8 [0x2B] Mathurin (ID: 17662727/0x010D8307) [8172*]:
    → "You should know that there're others still who've become stranded."
  5: 0x05EF [0x23] WAIT_FOR_DIALOG_INTERACTION
  6: 0x05F0 [0x2B] Mathurin (ID: 17662727/0x010D8307) [8173*]:
    → "Indeed, there was another group from the regiment that had fled beside us as far as the eastern area."
  7: 0x05F7 [0x23] WAIT_FOR_DIALOG_INTERACTION
  8: 0x05F8 [0x66] LOAD_EXT_SCHEDULER_MAIN: Load scheduler "tlk1" with entities [Mathurin (ID: 17662727/0x010D8307), Mathurin (ID: 17662727/0x010D8307)], work=9*
  9: 0x0607 [0x21] END_EVENT
 10: 0x0608 [0x00] END_REQSTACK()
```

### Event 155

#### Metadata

| Field        | Value    |
|--------------|----------|
| Entrypoint   | 0x0609   |
| Data Size    | 61 bytes |
| Instructions | 15       |

```
      00 01 02 03 04 05 06 07  08 09 0A 0B 0C 0D 0E 0F
      -- -- -- -- -- -- -- --  -- -- -- -- -- -- -- --
0600:                             4A 08 83 0D 01 F0 FF           J......
0610: FF 7F 6F 76 08 83 0D 01  6E 08 83 0D 01 38 80 99  ..ov....n....8..
0620: 08 83 0D 01 2B 08 83 0D  01 39 80 23 2B 08 83 0D  ....+....9.#+...
0630: 01 3A 80 23 2B 08 83 0D  01 3B 80 23 2B 08 83 0D  .:.#+....;.#+...
0640: 01 3C 80 23 21 00                                 .<.#!.          
```

#### Opcodes

```
  0: 0x0609 [0x4A] Quasim (ID: 17662728/0x010D8308) looks at LocalPlayer
  1: 0x0612 [0x6F] WAIT_FRAME_DELAY: Yield until WaitTime reaches zero
  2: 0x0613 [0x76] CHECK_ENTITY_RENDER_FLAGS: Wait until Quasim (ID: 17662728/0x010D8308) Render.Flags0 and Render.Flags3 conditions are met
  3: 0x0618 [0x6E] Quasim (ID: 17662728/0x010D8308) uses emote 6*
  4: 0x061F [0x99] Wait for Quasim (ID: 17662728/0x010D8308) animation to complete
  5: 0x0624 [0x2B] Quasim (ID: 17662728/0x010D8308) [8174*]:
    → "I don't know who you are, but this area is fraught with peril. You'd do well to get as far away from here as possible."
  6: 0x062B [0x23] WAIT_FOR_DIALOG_INTERACTION
  7: 0x062C [0x2B] Quasim (ID: 17662728/0x010D8308) [8175*]:
    → "My regiment had been evacuating civilians to safety when fiends attacked, causing a small group to become separated. All attempts to contact other unit members via linkpearl have failed. I fear for the worst."
  8: 0x0633 [0x23] WAIT_FOR_DIALOG_INTERACTION
  9: 0x0634 [0x2B] Quasim (ID: 17662728/0x010D8308) [8176*]:
    → "We've entrenched ourselves here, and thus far have managed to keep the Abyssean hordes at bay, but it's only a matter of time before we're overwhelmed."
 10: 0x063B [0x23] WAIT_FOR_DIALOG_INTERACTION
 11: 0x063C [0x2B] Quasim (ID: 17662728/0x010D8308) [8177*]:
    → "You had best take leave of us while you still can. Go find somewhere safe to hide...if such a place exists."
 12: 0x0643 [0x23] WAIT_FOR_DIALOG_INTERACTION
 13: 0x0644 [0x21] END_EVENT
 14: 0x0645 [0x00] END_REQSTACK()
```

### Event 158

#### Metadata

| Field        | Value     |
|--------------|-----------|
| Entrypoint   | 0x0646    |
| Data Size    | 116 bytes |
| Instructions | 24        |

```
      00 01 02 03 04 05 06 07  08 09 0A 0B 0C 0D 0E 0F
      -- -- -- -- -- -- -- --  -- -- -- -- -- -- -- --
0640:                   42 4A  08 83 0D 01 F0 FF FF 7F        BJ........
0650: 6F 76 08 83 0D 01 2B 08  83 0D 01 39 80 23 2B 08  ov....+....9.#+.
0660: 83 0D 01 3D 80 23 2B 08  83 0D 01 3E 80 23 6E 08  ...=.#+....>.#n.
0670: 83 0D 01 32 80 99 08 83  0D 01 2B 08 83 0D 01 3F  ...2......+....?
0680: 80 23 2B 08 83 0D 01 40  80 23 66 1E 80 08 83 0D  .#+....@.#f.....
0690: 01 08 83 0D 01 74 6C 6B  30 2B 08 83 0D 01 41 80  .....tlk0+....A.
06A0: 23 2B 08 83 0D 01 42 80  23 66 1E 80 08 83 0D 01  #+....B.#f......
06B0: 08 83 0D 01 74 6C 6B 31  21 00                    ....tlk1!.      
```

#### Opcodes

```
  0: 0x0646 [0x42] SET_CLI_EVENT_CANCEL_DATA()
  1: 0x0647 [0x4A] Quasim (ID: 17662728/0x010D8308) looks at LocalPlayer
  2: 0x0650 [0x6F] WAIT_FRAME_DELAY: Yield until WaitTime reaches zero
  3: 0x0651 [0x76] CHECK_ENTITY_RENDER_FLAGS: Wait until Quasim (ID: 17662728/0x010D8308) Render.Flags0 and Render.Flags3 conditions are met
  4: 0x0656 [0x2B] Quasim (ID: 17662728/0x010D8308) [8174*]:
    → "I don't know who you are, but this area is fraught with peril. You'd do well to get as far away from here as possible."
  5: 0x065D [0x23] WAIT_FOR_DIALOG_INTERACTION
  6: 0x065E [0x2B] Quasim (ID: 17662728/0x010D8308) [8178*]:
    → "My regiment had been evacuating--what? Iron Eater sent you to find us?"
  7: 0x0665 [0x23] WAIT_FOR_DIALOG_INTERACTION
  8: 0x0666 [0x2B] Quasim (ID: 17662728/0x010D8308) [8179*]:
    → "And if this isn't a pretty new linkpearl, straight from the man's own pearlsack!"
  9: 0x066D [0x23] WAIT_FOR_DIALOG_INTERACTION
 10: 0x066E [0x6E] Quasim (ID: 17662728/0x010D8308) uses emote 36*
 11: 0x0675 [0x99] Wait for Quasim (ID: 17662728/0x010D8308) animation to complete
 12: 0x067A [0x2B] Quasim (ID: 17662728/0x010D8308) [8180*]:
    → "So the regiment yet lives, and the damnable silence naught more than a damaged linkshell. You lighten my heart, friend!"
 13: 0x0681 [0x23] WAIT_FOR_DIALOG_INTERACTION
 14: 0x0682 [0x2B] Quasim (ID: 17662728/0x010D8308) [8181*]:
    → "Another squad that had fled the battle came with us as far as the southern area."
 15: 0x0689 [0x23] WAIT_FOR_DIALOG_INTERACTION
 16: 0x068A [0x66] LOAD_EXT_SCHEDULER_MAIN: Load scheduler "tlk0" with entities [Quasim (ID: 17662728/0x010D8308), Quasim (ID: 17662728/0x010D8308)], work=9*
 17: 0x0699 [0x2B] Quasim (ID: 17662728/0x010D8308) [8182*]:
    → "We must regroup with them, but on no account can the martello here be left undefended."
 18: 0x06A0 [0x23] WAIT_FOR_DIALOG_INTERACTION
 19: 0x06A1 [0x2B] Quasim (ID: 17662728/0x010D8308) [8183*]:
    → "Without these marvels of engineering to bolster the war effort, our fight is as good as lost."
 20: 0x06A8 [0x23] WAIT_FOR_DIALOG_INTERACTION
 21: 0x06A9 [0x66] LOAD_EXT_SCHEDULER_MAIN: Load scheduler "tlk1" with entities [Quasim (ID: 17662728/0x010D8308), Quasim (ID: 17662728/0x010D8308)], work=9*
 22: 0x06B8 [0x21] END_EVENT
 23: 0x06B9 [0x00] END_REQSTACK()
```

### Event 161

#### Metadata

| Field        | Value    |
|--------------|----------|
| Entrypoint   | 0x06BA   |
| Data Size    | 71 bytes |
| Instructions | 13       |

```
      00 01 02 03 04 05 06 07  08 09 0A 0B 0C 0D 0E 0F
      -- -- -- -- -- -- -- --  -- -- -- -- -- -- -- --
06B0:                                4A 08 83 0D 01 F0            J.....
06C0: FF FF 7F 6F 76 08 83 0D  01 66 1E 80 08 83 0D 01  ...ov....f......
06D0: 08 83 0D 01 74 6C 6B 30  2B 08 83 0D 01 40 80 23  ....tlk0+....@.#
06E0: 2B 08 83 0D 01 41 80 23  2B 08 83 0D 01 42 80 23  +....A.#+....B.#
06F0: 66 1E 80 08 83 0D 01 08  83 0D 01 74 6C 6B 31 21  f..........tlk1!
0700: 00                                                .               
```

#### Opcodes

```
  0: 0x06BA [0x4A] Quasim (ID: 17662728/0x010D8308) looks at LocalPlayer
  1: 0x06C3 [0x6F] WAIT_FRAME_DELAY: Yield until WaitTime reaches zero
  2: 0x06C4 [0x76] CHECK_ENTITY_RENDER_FLAGS: Wait until Quasim (ID: 17662728/0x010D8308) Render.Flags0 and Render.Flags3 conditions are met
  3: 0x06C9 [0x66] LOAD_EXT_SCHEDULER_MAIN: Load scheduler "tlk0" with entities [Quasim (ID: 17662728/0x010D8308), Quasim (ID: 17662728/0x010D8308)], work=9*
  4: 0x06D8 [0x2B] Quasim (ID: 17662728/0x010D8308) [8181*]:
    → "Another squad that had fled the battle came with us as far as the southern area."
  5: 0x06DF [0x23] WAIT_FOR_DIALOG_INTERACTION
  6: 0x06E0 [0x2B] Quasim (ID: 17662728/0x010D8308) [8182*]:
    → "We must regroup with them, but on no account can the martello here be left undefended."
  7: 0x06E7 [0x23] WAIT_FOR_DIALOG_INTERACTION
  8: 0x06E8 [0x2B] Quasim (ID: 17662728/0x010D8308) [8183*]:
    → "Without these marvels of engineering to bolster the war effort, our fight is as good as lost."
  9: 0x06EF [0x23] WAIT_FOR_DIALOG_INTERACTION
 10: 0x06F0 [0x66] LOAD_EXT_SCHEDULER_MAIN: Load scheduler "tlk1" with entities [Quasim (ID: 17662728/0x010D8308), Quasim (ID: 17662728/0x010D8308)], work=9*
 11: 0x06FF [0x21] END_EVENT
 12: 0x0700 [0x00] END_REQSTACK()
```

### Event 162

#### Metadata

| Field        | Value     |
|--------------|-----------|
| Entrypoint   | 0x0701    |
| Data Size    | 128 bytes |
| Instructions | 22        |

```
      00 01 02 03 04 05 06 07  08 09 0A 0B 0C 0D 0E 0F
      -- -- -- -- -- -- -- --  -- -- -- -- -- -- -- --
0700:    42 4A 05 83 0D 01 F0  FF FF 7F 6F 76 05 83 0D   BJ........ov...
0710: 01 2B 05 83 0D 01 43 80  23 66 0A 80 05 83 0D 01  .+....C.#f......
0720: 05 83 0D 01 74 6C 6B 30  2B 05 83 0D 01 44 80 23  ....tlk0+....D.#
0730: 2B 05 83 0D 01 45 80 23  66 0A 80 05 83 0D 01 05  +....E.#f.......
0740: 83 0D 01 74 6C 6B 31 2B  05 83 0D 01 46 80 23 66  ...tlk1+....F.#f
0750: 47 80 05 83 0D 01 05 83  0D 01 70 61 73 30 2B 05  G.........pas0+.
0760: 83 0D 01 48 80 23 2B 05  83 0D 01 49 80 23 45 02  ...H.#+....I.#E.
0770: 80 F0 FF FF 7F F0 FF FF  7F 71 73 74 63 01 80 21  .........qstc..!
0780: 00                                                .               
```

#### Opcodes

```
  0: 0x0701 [0x42] SET_CLI_EVENT_CANCEL_DATA()
  1: 0x0702 [0x4A] Iron Eater (ID: 17662725/0x010D8305) looks at LocalPlayer
  2: 0x070B [0x6F] WAIT_FRAME_DELAY: Yield until WaitTime reaches zero
  3: 0x070C [0x76] CHECK_ENTITY_RENDER_FLAGS: Wait until Iron Eater (ID: 17662725/0x010D8305) Render.Flags0 and Render.Flags3 conditions are met
  4: 0x0711 [0x2B] Iron Eater (ID: 17662725/0x010D8305) [8184*]:
    → "...Understood. The requested provisions will be dispatched immediately. Over and out."
  5: 0x0718 [0x23] WAIT_FOR_DIALOG_INTERACTION
  6: 0x0719 [0x66] LOAD_EXT_SCHEDULER_MAIN: Load scheduler "tlk0" with entities [Iron Eater (ID: 17662725/0x010D8305), Iron Eater (ID: 17662725/0x010D8305)], work=69*
  7: 0x0728 [0x2B] Iron Eater (ID: 17662725/0x010D8305) [8185*]:
    → "Ah, you've finally returned, <Player>. Thanks to your invaluable aid, we were able to regain contact with the stranded soldiers."
  8: 0x072F [0x23] WAIT_FOR_DIALOG_INTERACTION
  9: 0x0730 [0x2B] Iron Eater (ID: 17662725/0x010D8305) [8186*]:
    → "I was just receiving a status report from the last of them when you arrived."
 10: 0x0737 [0x23] WAIT_FOR_DIALOG_INTERACTION
 11: 0x0738 [0x66] LOAD_EXT_SCHEDULER_MAIN: Load scheduler "tlk1" with entities [Iron Eater (ID: 17662725/0x010D8305), Iron Eater (ID: 17662725/0x010D8305)], work=69*
 12: 0x0747 [0x2B] Iron Eater (ID: 17662725/0x010D8305) [8187*]:
    → "With all our people accounted for, we no longer need to remain on the back foot in our struggle against the Abyssean hordes."
 13: 0x074E [0x23] WAIT_FOR_DIALOG_INTERACTION
 14: 0x074F [0x66] LOAD_EXT_SCHEDULER_MAIN: Load scheduler "pas0" with entities [Iron Eater (ID: 17662725/0x010D8305), Iron Eater (ID: 17662725/0x010D8305)], work=131*
 15: 0x075E [0x2B] Iron Eater (ID: 17662725/0x010D8305) [8188*]:
    → "This isn't much, but please accept it as a token of my appreciation."
 16: 0x0765 [0x23] WAIT_FOR_DIALOG_INTERACTION
 17: 0x0766 [0x2B] Iron Eater (ID: 17662725/0x010D8305) [8189*]:
    → "On behalf of both the soldiers and civilians, thank you."
 18: 0x076D [0x23] WAIT_FOR_DIALOG_INTERACTION
 19: 0x076E [0x45] LOAD_SCHEDULED_TASK: Load scheduler "qstc" with entities [LocalPlayer, LocalPlayer], work=[201*, 0*]
 20: 0x077F [0x21] END_EVENT
 21: 0x0780 [0x00] END_REQSTACK()
```

### Event 163

#### Metadata

| Field        | Value    |
|--------------|----------|
| Entrypoint   | 0x0781   |
| Data Size    | 25 bytes |
| Instructions | 7        |

```
      00 01 02 03 04 05 06 07  08 09 0A 0B 0C 0D 0E 0F
      -- -- -- -- -- -- -- --  -- -- -- -- -- -- -- --
0780:    4A 05 83 0D 01 F0 FF  FF 7F 6F 76 05 83 0D 01   J........ov....
0790: 2B 05 83 0D 01 4A 80 23  21 00                    +....J.#!.      
```

#### Opcodes

```
  0: 0x0781 [0x4A] Iron Eater (ID: 17662725/0x010D8305) looks at LocalPlayer
  1: 0x078A [0x6F] WAIT_FRAME_DELAY: Yield until WaitTime reaches zero
  2: 0x078B [0x76] CHECK_ENTITY_RENDER_FLAGS: Wait until Iron Eater (ID: 17662725/0x010D8305) Render.Flags0 and Render.Flags3 conditions are met
  3: 0x0790 [0x2B] Iron Eater (ID: 17662725/0x010D8305) [8190*]:
    → "Thanks to your invaluable aid, we were able to regain contact with the stranded soldiers. On behalf of both the soldiers and civilians, thank you."
  4: 0x0797 [0x23] WAIT_FOR_DIALOG_INTERACTION
  5: 0x0798 [0x21] END_EVENT
  6: 0x0799 [0x00] END_REQSTACK()
```

### Event 168

#### Metadata

| Field        | Value    |
|--------------|----------|
| Entrypoint   | 0x079A   |
| Data Size    | 96 bytes |
| Instructions | 20       |

```
      00 01 02 03 04 05 06 07  08 09 0A 0B 0C 0D 0E 0F
      -- -- -- -- -- -- -- --  -- -- -- -- -- -- -- --
0790:                                42 4A 09 83 0D 01            BJ....
07A0: F0 FF FF 7F 6F 76 09 83  0D 01 2B 09 83 0D 01 4B  ....ov....+....K
07B0: 80 23 2B 09 83 0D 01 4C  80 23 2B 09 83 0D 01 4D  .#+....L.#+....M
07C0: 80 23 66 0A 80 09 83 0D  01 09 83 0D 01 74 68 6B  .#f..........thk
07D0: 31 2B 09 83 0D 01 4E 80  23 2B 09 83 0D 01 4F 80  1+....N.#+....O.
07E0: 23 2B 09 83 0D 01 50 80  23 66 0A 80 09 83 0D 01  #+....P.#f......
07F0: 09 83 0D 01 74 68 6B 32  21 00                    ....thk2!.      
```

#### Opcodes

```
  0: 0x079A [0x42] SET_CLI_EVENT_CANCEL_DATA()
  1: 0x079B [0x4A] Goraow (ID: 17662729/0x010D8309) looks at LocalPlayer
  2: 0x07A4 [0x6F] WAIT_FRAME_DELAY: Yield until WaitTime reaches zero
  3: 0x07A5 [0x76] CHECK_ENTITY_RENDER_FLAGS: Wait until Goraow (ID: 17662729/0x010D8309) Render.Flags0 and Render.Flags3 conditions are met
  4: 0x07AA [0x2B] Goraow (ID: 17662729/0x010D8309) [8191*]:
    → "Countless mine workers--my brethren--were slain by the Abyssean hordes. Many a hot-headed adventurer struck out to seek bloody revenge, but they, too, were served their deaths."
  5: 0x07B1 [0x23] WAIT_FOR_DIALOG_INTERACTION
  6: 0x07B2 [0x2B] Goraow (ID: 17662729/0x010D8309) [8192*]:
    → "There was a time when I dreamed of becoming a mercenary. But then the monsters came, and I was made to keenly realize the folly of that ambition."
  7: 0x07B9 [0x23] WAIT_FOR_DIALOG_INTERACTION
  8: 0x07BA [0x2B] Goraow (ID: 17662729/0x010D8309) [8193*]:
    → "When those vile fiends overran the Republic, I found myself fleeing for dear life like all and sundry. I'd never had the stomach for battle, and I guess I never will."
  9: 0x07C1 [0x23] WAIT_FOR_DIALOG_INTERACTION
 10: 0x07C2 [0x66] LOAD_EXT_SCHEDULER_MAIN: Load scheduler "thk1" with entities [Goraow (ID: 17662729/0x010D8309), Goraow (ID: 17662729/0x010D8309)], work=69*
 11: 0x07D1 [0x2B] Goraow (ID: 17662729/0x010D8309) [8194*]:
    → "It would seem we Galka are fated to have any place we dare to call home taken from us."
 12: 0x07D8 [0x23] WAIT_FOR_DIALOG_INTERACTION
 13: 0x07D9 [0x2B] Goraow (ID: 17662729/0x010D8309) [8195*]:
    → "A weakling like me doesn't have much of a role to play in this dark age. Tending the graves of fallen comrades is about all I can do, but I can't even find the flowers to give as offerings."
 14: 0x07E0 [0x23] WAIT_FOR_DIALOG_INTERACTION
 15: 0x07E1 [0x2B] Goraow (ID: 17662729/0x010D8309) [8196*]:
    → "If only I could get my hands on some flowers..."
 16: 0x07E8 [0x23] WAIT_FOR_DIALOG_INTERACTION
 17: 0x07E9 [0x66] LOAD_EXT_SCHEDULER_MAIN: Load scheduler "thk2" with entities [Goraow (ID: 17662729/0x010D8309), Goraow (ID: 17662729/0x010D8309)], work=69*
 18: 0x07F8 [0x21] END_EVENT
 19: 0x07F9 [0x00] END_REQSTACK()
```

### Event 178

#### Metadata

| Field        | Value    |
|--------------|----------|
| Entrypoint   | 0x07FA   |
| Data Size    | 63 bytes |
| Instructions | 11       |

```
      00 01 02 03 04 05 06 07  08 09 0A 0B 0C 0D 0E 0F
      -- -- -- -- -- -- -- --  -- -- -- -- -- -- -- --
07F0:                                4A 09 83 0D 01 F0            J.....
0800: FF FF 7F 6F 76 09 83 0D  01 66 0A 80 09 83 0D 01  ...ov....f......
0810: 09 83 0D 01 74 6C 6B 30  2B 09 83 0D 01 4F 80 23  ....tlk0+....O.#
0820: 2B 09 83 0D 01 50 80 23  66 0A 80 09 83 0D 01 09  +....P.#f.......
0830: 83 0D 01 74 6C 6B 31 21  00                       ...tlk1!.       
```

#### Opcodes

```
  0: 0x07FA [0x4A] Goraow (ID: 17662729/0x010D8309) looks at LocalPlayer
  1: 0x0803 [0x6F] WAIT_FRAME_DELAY: Yield until WaitTime reaches zero
  2: 0x0804 [0x76] CHECK_ENTITY_RENDER_FLAGS: Wait until Goraow (ID: 17662729/0x010D8309) Render.Flags0 and Render.Flags3 conditions are met
  3: 0x0809 [0x66] LOAD_EXT_SCHEDULER_MAIN: Load scheduler "tlk0" with entities [Goraow (ID: 17662729/0x010D8309), Goraow (ID: 17662729/0x010D8309)], work=69*
  4: 0x0818 [0x2B] Goraow (ID: 17662729/0x010D8309) [8195*]:
    → "A weakling like me doesn't have much of a role to play in this dark age. Tending the graves of fallen comrades is about all I can do, but I can't even find the flowers to give as offerings."
  5: 0x081F [0x23] WAIT_FOR_DIALOG_INTERACTION
  6: 0x0820 [0x2B] Goraow (ID: 17662729/0x010D8309) [8196*]:
    → "If only I could get my hands on some flowers..."
  7: 0x0827 [0x23] WAIT_FOR_DIALOG_INTERACTION
  8: 0x0828 [0x66] LOAD_EXT_SCHEDULER_MAIN: Load scheduler "tlk1" with entities [Goraow (ID: 17662729/0x010D8309), Goraow (ID: 17662729/0x010D8309)], work=69*
  9: 0x0837 [0x21] END_EVENT
 10: 0x0838 [0x00] END_REQSTACK()
```

### Event 173

#### Metadata

| Field        | Value    |
|--------------|----------|
| Entrypoint   | 0x0839   |
| Data Size    | 77 bytes |
| Instructions | 15       |

```
      00 01 02 03 04 05 06 07  08 09 0A 0B 0C 0D 0E 0F
      -- -- -- -- -- -- -- --  -- -- -- -- -- -- -- --
0830:                             42 4A 09 83 0D 01 F0           BJ.....
0840: FF FF 7F 6F 76 09 83 0D  01 03 03 10 51 80 66 0A  ...ov.......Q.f.
0850: 80 09 83 0D 01 09 83 0D  01 74 6C 6B 30 2B 09 83  .........tlk0+..
0860: 0D 01 52 80 23 2B 09 83  0D 01 53 80 23 2B 09 83  ..R.#+....S.#+..
0870: 0D 01 54 80 23 66 0A 80  09 83 0D 01 09 83 0D 01  ..T.#f..........
0880: 74 6C 6B 31 21 00                                 tlk1!.          
```

#### Opcodes

```
  0: 0x0839 [0x42] SET_CLI_EVENT_CANCEL_DATA()
  1: 0x083A [0x4A] Goraow (ID: 17662729/0x010D8309) looks at LocalPlayer
  2: 0x0843 [0x6F] WAIT_FRAME_DELAY: Yield until WaitTime reaches zero
  3: 0x0844 [0x76] CHECK_ENTITY_RENDER_FLAGS: Wait until Goraow (ID: 17662729/0x010D8309) Render.Flags0 and Render.Flags3 conditions are met
  4: 0x0849 [0x03] Work_Zone[3] = 956*
  5: 0x084E [0x66] LOAD_EXT_SCHEDULER_MAIN: Load scheduler "tlk0" with entities [Goraow (ID: 17662729/0x010D8309), Goraow (ID: 17662729/0x010D8309)], work=69*
  6: 0x085D [0x2B] Goraow (ID: 17662729/0x010D8309) [8197*]:
    → "Why, if it isn't $1! To think that there're still some to be had!"
  7: 0x0864 [0x23] WAIT_FOR_DIALOG_INTERACTION
  8: 0x0865 [0x2B] Goraow (ID: 17662729/0x010D8309) [8198*]:
    → "If it's not too much trouble, could I ask you to offer it at the burial ground?"
  9: 0x086C [0x23] WAIT_FOR_DIALOG_INTERACTION
 10: 0x086D [0x2B] Goraow (ID: 17662729/0x010D8309) [8199*]:
    → "Head south by east of here and you'll find it."
 11: 0x0874 [0x23] WAIT_FOR_DIALOG_INTERACTION
 12: 0x0875 [0x66] LOAD_EXT_SCHEDULER_MAIN: Load scheduler "tlk1" with entities [Goraow (ID: 17662729/0x010D8309), Goraow (ID: 17662729/0x010D8309)], work=69*
 13: 0x0884 [0x21] END_EVENT
 14: 0x0885 [0x00] END_REQSTACK()
```

### Event 174

#### Metadata

| Field        | Value    |
|--------------|----------|
| Entrypoint   | 0x0886   |
| Data Size    | 68 bytes |
| Instructions | 12       |

```
      00 01 02 03 04 05 06 07  08 09 0A 0B 0C 0D 0E 0F
      -- -- -- -- -- -- -- --  -- -- -- -- -- -- -- --
0880:                   4A 09  83 0D 01 F0 FF FF 7F 6F        J........o
0890: 76 09 83 0D 01 03 03 10  51 80 66 0A 80 09 83 0D  v.......Q.f.....
08A0: 01 09 83 0D 01 74 6C 6B  30 2B 09 83 0D 01 53 80  .....tlk0+....S.
08B0: 23 2B 09 83 0D 01 54 80  23 66 0A 80 09 83 0D 01  #+....T.#f......
08C0: 09 83 0D 01 74 6C 6B 31  21 00                    ....tlk1!.      
```

#### Opcodes

```
  0: 0x0886 [0x4A] Goraow (ID: 17662729/0x010D8309) looks at LocalPlayer
  1: 0x088F [0x6F] WAIT_FRAME_DELAY: Yield until WaitTime reaches zero
  2: 0x0890 [0x76] CHECK_ENTITY_RENDER_FLAGS: Wait until Goraow (ID: 17662729/0x010D8309) Render.Flags0 and Render.Flags3 conditions are met
  3: 0x0895 [0x03] Work_Zone[3] = 956*
  4: 0x089A [0x66] LOAD_EXT_SCHEDULER_MAIN: Load scheduler "tlk0" with entities [Goraow (ID: 17662729/0x010D8309), Goraow (ID: 17662729/0x010D8309)], work=69*
  5: 0x08A9 [0x2B] Goraow (ID: 17662729/0x010D8309) [8198*]:
    → "If it's not too much trouble, could I ask you to offer it at the burial ground?"
  6: 0x08B0 [0x23] WAIT_FOR_DIALOG_INTERACTION
  7: 0x08B1 [0x2B] Goraow (ID: 17662729/0x010D8309) [8199*]:
    → "Head south by east of here and you'll find it."
  8: 0x08B8 [0x23] WAIT_FOR_DIALOG_INTERACTION
  9: 0x08B9 [0x66] LOAD_EXT_SCHEDULER_MAIN: Load scheduler "tlk1" with entities [Goraow (ID: 17662729/0x010D8309), Goraow (ID: 17662729/0x010D8309)], work=69*
 10: 0x08C8 [0x21] END_EVENT
 11: 0x08C9 [0x00] END_REQSTACK()
```

### Event 169

#### Metadata

| Field        | Value   |
|--------------|---------|
| Entrypoint   | 0x08CA  |
| Data Size    | 8 bytes |
| Instructions | 6       |

```
      00 01 02 03 04 05 06 07  08 09 0A 0B 0C 0D 0E 0F
      -- -- -- -- -- -- -- --  -- -- -- -- -- -- -- --
08C0:                                6F 70 48 55 80 23            opHU.#
08D0: 21 00                                             !.              
```

#### Opcodes

```
  0: 0x08CA [0x6F] WAIT_FRAME_DELAY: Yield until WaitTime reaches zero
  1: 0x08CB [0x70] WAIT_ENTITY_RENDER_FLAG: Wait while EventEntity->Render.Flags3 bit 2 is set (cancel turn if not)
  2: 0x08CC [0x48] [System] [8200*]:
    → "This grassy mound appears to serve as a makeshift grave."
  3: 0x08CF [0x23] WAIT_FOR_DIALOG_INTERACTION
  4: 0x08D0 [0x21] END_EVENT
  5: 0x08D1 [0x00] END_REQSTACK()
```

### Event 172

#### Metadata

| Field        | Value    |
|--------------|----------|
| Entrypoint   | 0x08D2   |
| Data Size    | 52 bytes |
| Instructions | 16       |

```
      00 01 02 03 04 05 06 07  08 09 0A 0B 0C 0D 0E 0F
      -- -- -- -- -- -- -- --  -- -- -- -- -- -- -- --
08D0:       42 6F 70 03 03 10  51 80 48 55 80 23 24 56    Bop...Q.HU.#$V
08E0: 80 01 80 01 80 25 02 00  10 01 80 00 F9 08 48 57  .....%........HW
08F0: 80 03 01 10 03 80 01 04  09 02 00 10 03 80 00 04  ................
0900: 09 01 04 09 21 00                                 ....!.          
```

#### Opcodes

```
  0: 0x08D2 [0x42] SET_CLI_EVENT_CANCEL_DATA()
  1: 0x08D3 [0x6F] WAIT_FRAME_DELAY: Yield until WaitTime reaches zero
  2: 0x08D4 [0x70] WAIT_ENTITY_RENDER_FLAG: Wait while EventEntity->Render.Flags3 bit 2 is set (cancel turn if not)
  3: 0x08D5 [0x03] Work_Zone[3] = 956*
  4: 0x08DA [0x48] [System] [8200*]:
    → "This grassy mound appears to serve as a makeshift grave."
  5: 0x08DD [0x23] WAIT_FOR_DIALOG_INTERACTION
  6: 0x08DE [0x24] CREATE_DIALOG(message_id=8201*, default_option=0*, option_flags=0*)
    → "Offer the $1? [Yes./No.]"
  7: 0x08E5 [0x25] WAIT_DIALOG_SELECT()
  8: 0x08E6 [0x02] IF !(Work_Zone[0] == 0*) GOTO 0x08F9
  9: 0x08EE [0x48] [System] [8202*]:
    → "<Player> places the $1 upon the grave."
 10: 0x08F1 [0x03] Work_Zone[1] = 1*
 11: 0x08F6 [0x01] GOTO 0x0904
 12: 0x08F9 [0x02] IF !(Work_Zone[0] == 1*) GOTO 0x0904
 13: 0x0901 [0x01] GOTO 0x0904

SUBROUTINE_0904:
 14: 0x0904 [0x21] END_EVENT
 15: 0x0905 [0x00] END_REQSTACK()
```

### Event 175

#### Metadata

| Field        | Value    |
|--------------|----------|
| Entrypoint   | 0x0906   |
| Data Size    | 11 bytes |
| Instructions | 5        |

```
      00 01 02 03 04 05 06 07  08 09 0A 0B 0C 0D 0E 0F
      -- -- -- -- -- -- -- --  -- -- -- -- -- -- -- --
0900:                   03 03  10 51 80 48 58 80 23 21        ...Q.HX.#!
0910: 00                                                .               
```

#### Opcodes

```
  0: 0x0906 [0x03] Work_Zone[3] = 956*
  1: 0x090B [0x48] [System] [8203*]:
    → "This grassy mound appears to serve as a makeshift grave. $1 has been placed upon it."
  2: 0x090E [0x23] WAIT_FOR_DIALOG_INTERACTION
  3: 0x090F [0x21] END_EVENT
  4: 0x0910 [0x00] END_REQSTACK()
```

### Event 179

#### Metadata

| Field        | Value    |
|--------------|----------|
| Entrypoint   | 0x0911   |
| Data Size    | 89 bytes |
| Instructions | 15       |

```
      00 01 02 03 04 05 06 07  08 09 0A 0B 0C 0D 0E 0F
      -- -- -- -- -- -- -- --  -- -- -- -- -- -- -- --
0910:    42 4A 09 83 0D 01 F0  FF FF 7F 6F 76 09 83 0D   BJ........ov...
0920: 01 66 0A 80 09 83 0D 01  09 83 0D 01 74 6C 6B 30  .f..........tlk0
0930: 2B 09 83 0D 01 59 80 23  2B 09 83 0D 01 5A 80 23  +....Y.#+....Z.#
0940: 2B 09 83 0D 01 5B 80 23  66 0A 80 09 83 0D 01 09  +....[.#f.......
0950: 83 0D 01 74 6C 6B 31 45  02 80 F0 FF FF 7F F0 FF  ...tlk1E........
0960: FF 7F 71 73 74 63 01 80  21 00                    ..qstc..!.      
```

#### Opcodes

```
  0: 0x0911 [0x42] SET_CLI_EVENT_CANCEL_DATA()
  1: 0x0912 [0x4A] Goraow (ID: 17662729/0x010D8309) looks at LocalPlayer
  2: 0x091B [0x6F] WAIT_FRAME_DELAY: Yield until WaitTime reaches zero
  3: 0x091C [0x76] CHECK_ENTITY_RENDER_FLAGS: Wait until Goraow (ID: 17662729/0x010D8309) Render.Flags0 and Render.Flags3 conditions are met
  4: 0x0921 [0x66] LOAD_EXT_SCHEDULER_MAIN: Load scheduler "tlk0" with entities [Goraow (ID: 17662729/0x010D8309), Goraow (ID: 17662729/0x010D8309)], work=69*
  5: 0x0930 [0x2B] Goraow (ID: 17662729/0x010D8309) [8204*]:
    → "You have my gratitude. It would've been nice to offer the flower myself, but it wasn't mine to give."
  6: 0x0937 [0x23] WAIT_FOR_DIALOG_INTERACTION
  7: 0x0938 [0x2B] Goraow (ID: 17662729/0x010D8309) [8205*]:
    → "Although little love survives between Galka and Humes, I for one believe the rivalry between our two races made life in Bastok a shade more interesting."
  8: 0x093F [0x23] WAIT_FOR_DIALOG_INTERACTION
  9: 0x0940 [0x2B] Goraow (ID: 17662729/0x010D8309) [8206*]:
    → "You've done my brethren and I a great kindness. Please take this as a small token of my thanks."
 10: 0x0947 [0x23] WAIT_FOR_DIALOG_INTERACTION
 11: 0x0948 [0x66] LOAD_EXT_SCHEDULER_MAIN: Load scheduler "tlk1" with entities [Goraow (ID: 17662729/0x010D8309), Goraow (ID: 17662729/0x010D8309)], work=69*
 12: 0x0957 [0x45] LOAD_SCHEDULED_TASK: Load scheduler "qstc" with entities [LocalPlayer, LocalPlayer], work=[201*, 0*]
 13: 0x0968 [0x21] END_EVENT
 14: 0x0969 [0x00] END_REQSTACK()
```

### Event 180

#### Metadata

| Field        | Value    |
|--------------|----------|
| Entrypoint   | 0x096A   |
| Data Size    | 63 bytes |
| Instructions | 11       |

```
      00 01 02 03 04 05 06 07  08 09 0A 0B 0C 0D 0E 0F
      -- -- -- -- -- -- -- --  -- -- -- -- -- -- -- --
0960:                                4A 09 83 0D 01 F0            J.....
0970: FF FF 7F 6F 76 09 83 0D  01 66 0A 80 09 83 0D 01  ...ov....f......
0980: 09 83 0D 01 74 6C 6B 30  2B 09 83 0D 01 5C 80 23  ....tlk0+....\.#
0990: 2B 09 83 0D 01 5D 80 23  66 0A 80 09 83 0D 01 09  +....].#f.......
09A0: 83 0D 01 74 6C 6B 31 21  00                       ...tlk1!.       
```

#### Opcodes

```
  0: 0x096A [0x4A] Goraow (ID: 17662729/0x010D8309) looks at LocalPlayer
  1: 0x0973 [0x6F] WAIT_FRAME_DELAY: Yield until WaitTime reaches zero
  2: 0x0974 [0x76] CHECK_ENTITY_RENDER_FLAGS: Wait until Goraow (ID: 17662729/0x010D8309) Render.Flags0 and Render.Flags3 conditions are met
  3: 0x0979 [0x66] LOAD_EXT_SCHEDULER_MAIN: Load scheduler "tlk0" with entities [Goraow (ID: 17662729/0x010D8309), Goraow (ID: 17662729/0x010D8309)], work=69*
  4: 0x0988 [0x2B] Goraow (ID: 17662729/0x010D8309) [8207*]:
    → "Thanks to you, the souls of my brethren may now rest easier."
  5: 0x098F [0x23] WAIT_FOR_DIALOG_INTERACTION
  6: 0x0990 [0x2B] Goraow (ID: 17662729/0x010D8309) [8208*]:
    → "I would've liked to make the offering myself, but you were the one who brought the flower, after all."
  7: 0x0997 [0x23] WAIT_FOR_DIALOG_INTERACTION
  8: 0x0998 [0x66] LOAD_EXT_SCHEDULER_MAIN: Load scheduler "tlk1" with entities [Goraow (ID: 17662729/0x010D8309), Goraow (ID: 17662729/0x010D8309)], work=69*
  9: 0x09A7 [0x21] END_EVENT
 10: 0x09A8 [0x00] END_REQSTACK()
```

### Event 164

#### Metadata

| Field        | Value     |
|--------------|-----------|
| Entrypoint   | 0x09A9    |
| Data Size    | 244 bytes |
| Instructions | 47        |

```
      00 01 02 03 04 05 06 07  08 09 0A 0B 0C 0D 0E 0F
      -- -- -- -- -- -- -- --  -- -- -- -- -- -- -- --
09A0:                             42 4A 09 83 0D 01 F0           BJ.....
09B0: FF FF 7F 6F 76 09 83 0D  01 2B 09 83 0D 01 5E 80  ...ov....+....^.
09C0: 23 27 10 F0 FF FF 7F 09  1C 5F 80 27 10 F0 FF FF  #'......._.'....
09D0: 7F 0A 66 0A 80 09 83 0D  01 09 83 0D 01 74 6C 6B  ..f..........tlk
09E0: 30 2B 09 83 0D 01 60 80  23 2B 09 83 0D 01 61 80  0+....`.#+....a.
09F0: 23 2B 09 83 0D 01 62 80  23 2B 09 83 0D 01 63 80  #+....b.#+....c.
0A00: 23 2B 09 83 0D 01 64 80  23 66 0A 80 09 83 0D 01  #+....d.#f......
0A10: 09 83 0D 01 74 6C 6B 31  2B 09 83 0D 01 65 80 23  ....tlk1+....e.#
0A20: 24 66 80 01 80 01 80 25  02 00 10 01 80 00 3B 0A  $f.....%......;.
0A30: 2B 09 83 0D 01 67 80 23  01 65 0A 02 00 10 03 80  +....g.#.e......
0A40: 00 65 0A 6E 09 83 0D 01  38 80 99 09 83 0D 01 2B  .e.n....8......+
0A50: 09 83 0D 01 68 80 23 2B  09 83 0D 01 69 80 23 01  ....h.#+....i.#.
0A60: 20 0A 01 65 0A 66 0A 80  09 83 0D 01 09 83 0D 01   ..e.f..........
0A70: 74 6C 6B 30 2B 09 83 0D  01 6A 80 23 2B 09 83 0D  tlk0+....j.#+...
0A80: 01 6B 80 23 2B 09 83 0D  01 6C 80 23 66 0A 80 09  .k.#+....l.#f...
0A90: 83 0D 01 09 83 0D 01 74  6C 6B 31 21 00           .......tlk1!.   
```

#### Opcodes

```
  0: 0x09A9 [0x42] SET_CLI_EVENT_CANCEL_DATA()
  1: 0x09AA [0x4A] Goraow (ID: 17662729/0x010D8309) looks at LocalPlayer
  2: 0x09B3 [0x6F] WAIT_FRAME_DELAY: Yield until WaitTime reaches zero
  3: 0x09B4 [0x76] CHECK_ENTITY_RENDER_FLAGS: Wait until Goraow (ID: 17662729/0x010D8309) Render.Flags0 and Render.Flags3 conditions are met
  4: 0x09B9 [0x2B] Goraow (ID: 17662729/0x010D8309) [8209*]:
    → "Ah, it's you again. I trust you've been keeping well."
  5: 0x09C0 [0x23] WAIT_FOR_DIALOG_INTERACTION
  6: 0x09C1 [0x27] REQ_SET(priority=0x10, entity_id=LocalPlayer, tag_num=0x09)
  7: 0x09C8 [0x1C] WAIT(60* ticks)
  8: 0x09CB [0x27] REQ_SET(priority=0x10, entity_id=LocalPlayer, tag_num=0x0A)
  9: 0x09D2 [0x66] LOAD_EXT_SCHEDULER_MAIN: Load scheduler "tlk0" with entities [Goraow (ID: 17662729/0x010D8309), Goraow (ID: 17662729/0x010D8309)], work=69*
 10: 0x09E1 [0x2B] Goraow (ID: 17662729/0x010D8309) [8210*]:
    → "What's that? Why do I look so blatantly despondent, you ask? Since you've been kind enough to inquire, I will tell you what ails me."
 11: 0x09E8 [0x23] WAIT_FOR_DIALOG_INTERACTION
 12: 0x09E9 [0x2B] Goraow (ID: 17662729/0x010D8309) [8211*]:
    → "You see, I've recently learned the identity of the savage beast that slew my friends, and many a defenseless Bastoker besides."
 13: 0x09F0 [0x23] WAIT_FOR_DIALOG_INTERACTION
 14: 0x09F1 [0x2B] Goraow (ID: 17662729/0x010D8309) [8212*]:
    → "It is a remorseless killing machine, a fearsome peiste known far and wide as Gukumatz. The mention of its name alone is enough to strike fear into the hearts of we survivors."
 15: 0x09F8 [0x23] WAIT_FOR_DIALOG_INTERACTION
 16: 0x09F9 [0x2B] Goraow (ID: 17662729/0x010D8309) [8213*]:
    → "Upon learning of the monster, I knew at once that it was my destiny to avenge my fallen brethren. Alas, not a few minutes after I struck out to fulfill this mission, I was beset by an acute case of gout. Racked with pain, I had no choice but to turn back, defeated before my journey had even begun. Never before had I known such disappointment."
 17: 0x0A00 [0x23] WAIT_FOR_DIALOG_INTERACTION
 18: 0x0A01 [0x2B] Goraow (ID: 17662729/0x010D8309) [8214*]:
    → "As long as that maniacal creature prowls the land, the souls of my comrades will never know peace. But my untimely affliction--damn it to the bowels of hell--keeps me from my predestined showdown. I was beside myself with bitterness when you--"
 19: 0x0A08 [0x23] WAIT_FOR_DIALOG_INTERACTION
 20: 0x0A09 [0x66] LOAD_EXT_SCHEDULER_MAIN: Load scheduler "tlk1" with entities [Goraow (ID: 17662729/0x010D8309), Goraow (ID: 17662729/0x010D8309)], work=69*
 21: 0x0A18 [0x2B] Goraow (ID: 17662729/0x010D8309) [8215*]:
    → "<Gasp>! I...I believe I understand now! All at once...it's become crystal clear! You are [he/she] who is meant to slay the creature! It's your destiny--not mine--to take up the blade of retribution!"
 22: 0x0A1F [0x23] WAIT_FOR_DIALOG_INTERACTION
 23: 0x0A20 [0x24] CREATE_DIALOG(message_id=8216*, default_option=0*, option_flags=0*)
    → "Embrace your destiny? [Wholeheartedly!/Cast it aside.]"
 24: 0x0A27 [0x25] WAIT_DIALOG_SELECT()
 25: 0x0A28 [0x02] IF !(Work_Zone[0] == 0*) GOTO 0x0A3B
 26: 0x0A30 [0x2B] Goraow (ID: 17662729/0x010D8309) [8219*]:
    → "I'm forever in your debt, brave adventurer. Now, I have one further request for when you've fulfilled the deed."
 27: 0x0A37 [0x23] WAIT_FOR_DIALOG_INTERACTION
 28: 0x0A38 [0x01] GOTO 0x0A65
 29: 0x0A3B [0x02] IF !(Work_Zone[0] == 1*) GOTO 0x0A65
 30: 0x0A43 [0x6E] Goraow (ID: 17662729/0x010D8309) uses emote 6*
 31: 0x0A4A [0x99] Wait for Goraow (ID: 17662729/0x010D8309) animation to complete
 32: 0x0A4F [0x2B] Goraow (ID: 17662729/0x010D8309) [8217*]:
    → "B-but if you don't fulfill your destiny, then who will!?"
 33: 0x0A56 [0x23] WAIT_FOR_DIALOG_INTERACTION
 34: 0x0A57 [0x2B] Goraow (ID: 17662729/0x010D8309) [8218*]:
    → "You must understand! Only you can end Gukumatz's reign of terror!"
 35: 0x0A5E [0x23] WAIT_FOR_DIALOG_INTERACTION
 36: 0x0A5F [0x01] GOTO 0x0A20

SUBROUTINE_0A65:
 37: 0x0A65 [0x66] LOAD_EXT_SCHEDULER_MAIN: Load scheduler "tlk0" with entities [Goraow (ID: 17662729/0x010D8309), Goraow (ID: 17662729/0x010D8309)], work=69*
 38: 0x0A74 [0x2B] Goraow (ID: 17662729/0x010D8309) [8220*]:
    → "This may sound...morbid, but I need you to bring back a trophy--some part of Gukumatz's carcass."
 39: 0x0A7B [0x23] WAIT_FOR_DIALOG_INTERACTION
 40: 0x0A7C [0x2B] Goraow (ID: 17662729/0x010D8309) [8221*]:
    → "I'd like to give it as an offering to my departed brethren. After all, nothing says "I care" quite like a blood-drenched body part decaying before the grave."
 41: 0x0A83 [0x23] WAIT_FOR_DIALOG_INTERACTION
 42: 0x0A84 [0x2B] Goraow (ID: 17662729/0x010D8309) [8222*]:
    → "Luck ride with you!"
 43: 0x0A8B [0x23] WAIT_FOR_DIALOG_INTERACTION
 44: 0x0A8C [0x66] LOAD_EXT_SCHEDULER_MAIN: Load scheduler "tlk1" with entities [Goraow (ID: 17662729/0x010D8309), Goraow (ID: 17662729/0x010D8309)], work=69*
 45: 0x0A9B [0x21] END_EVENT
 46: 0x0A9C [0x00] END_REQSTACK()
```

#### Data or dead code:

```
# Dead code (unreachable instructions):
     0x0A62 [0x01] GOTO 0x0A65
```

### Event 165

#### Metadata

| Field        | Value    |
|--------------|----------|
| Entrypoint   | 0x0A9D   |
| Data Size    | 71 bytes |
| Instructions | 13       |

```
      00 01 02 03 04 05 06 07  08 09 0A 0B 0C 0D 0E 0F
      -- -- -- -- -- -- -- --  -- -- -- -- -- -- -- --
0A90:                                         4A 09 83               J..
0AA0: 0D 01 F0 FF FF 7F 6F 76  09 83 0D 01 66 0A 80 09  ......ov....f...
0AB0: 83 0D 01 09 83 0D 01 74  6C 6B 30 2B 09 83 0D 01  .......tlk0+....
0AC0: 6A 80 23 2B 09 83 0D 01  6B 80 23 2B 09 83 0D 01  j.#+....k.#+....
0AD0: 6C 80 23 66 0A 80 09 83  0D 01 09 83 0D 01 74 6C  l.#f..........tl
0AE0: 6B 31 21 00                                       k1!.            
```

#### Opcodes

```
  0: 0x0A9D [0x4A] Goraow (ID: 17662729/0x010D8309) looks at LocalPlayer
  1: 0x0AA6 [0x6F] WAIT_FRAME_DELAY: Yield until WaitTime reaches zero
  2: 0x0AA7 [0x76] CHECK_ENTITY_RENDER_FLAGS: Wait until Goraow (ID: 17662729/0x010D8309) Render.Flags0 and Render.Flags3 conditions are met
  3: 0x0AAC [0x66] LOAD_EXT_SCHEDULER_MAIN: Load scheduler "tlk0" with entities [Goraow (ID: 17662729/0x010D8309), Goraow (ID: 17662729/0x010D8309)], work=69*
  4: 0x0ABB [0x2B] Goraow (ID: 17662729/0x010D8309) [8220*]:
    → "This may sound...morbid, but I need you to bring back a trophy--some part of Gukumatz's carcass."
  5: 0x0AC2 [0x23] WAIT_FOR_DIALOG_INTERACTION
  6: 0x0AC3 [0x2B] Goraow (ID: 17662729/0x010D8309) [8221*]:
    → "I'd like to give it as an offering to my departed brethren. After all, nothing says "I care" quite like a blood-drenched body part decaying before the grave."
  7: 0x0ACA [0x23] WAIT_FOR_DIALOG_INTERACTION
  8: 0x0ACB [0x2B] Goraow (ID: 17662729/0x010D8309) [8222*]:
    → "Luck ride with you!"
  9: 0x0AD2 [0x23] WAIT_FOR_DIALOG_INTERACTION
 10: 0x0AD3 [0x66] LOAD_EXT_SCHEDULER_MAIN: Load scheduler "tlk1" with entities [Goraow (ID: 17662729/0x010D8309), Goraow (ID: 17662729/0x010D8309)], work=69*
 11: 0x0AE2 [0x21] END_EVENT
 12: 0x0AE3 [0x00] END_REQSTACK()
```

### Event 166

#### Metadata

| Field        | Value    |
|--------------|----------|
| Entrypoint   | 0x0AE4   |
| Data Size    | 79 bytes |
| Instructions | 15       |

```
      00 01 02 03 04 05 06 07  08 09 0A 0B 0C 0D 0E 0F
      -- -- -- -- -- -- -- --  -- -- -- -- -- -- -- --
0AE0:             42 4A 09 83  0D 01 F0 FF FF 7F 6F 76      BJ........ov
0AF0: 09 83 0D 01 03 03 10 6D  80 2B 09 83 0D 01 6E 80  .......m.+....n.
0B00: 23 2B 09 83 0D 01 6F 80  23 66 47 80 09 83 0D 01  #+....o.#fG.....
0B10: 09 83 0D 01 70 61 73 30  2B 09 83 0D 01 70 80 23  ....pas0+....p.#
0B20: 45 02 80 F0 FF FF 7F F0  FF FF 7F 71 73 74 63 01  E..........qstc.
0B30: 80 21 00                                          .!.             
```

#### Opcodes

```
  0: 0x0AE4 [0x42] SET_CLI_EVENT_CANCEL_DATA()
  1: 0x0AE5 [0x4A] Goraow (ID: 17662729/0x010D8309) looks at LocalPlayer
  2: 0x0AEE [0x6F] WAIT_FRAME_DELAY: Yield until WaitTime reaches zero
  3: 0x0AEF [0x76] CHECK_ENTITY_RENDER_FLAGS: Wait until Goraow (ID: 17662729/0x010D8309) Render.Flags0 and Render.Flags3 conditions are met
  4: 0x0AF4 [0x03] Work_Zone[3] = 2961*
  5: 0x0AF9 [0x2B] Goraow (ID: 17662729/0x010D8309) [8223*]:
    → "<Gasp>! If it isn't the $1 of Gukumatz! And nice and bloody, too, just the way I like it."
  6: 0x0B00 [0x23] WAIT_FOR_DIALOG_INTERACTION
  7: 0x0B01 [0x2B] Goraow (ID: 17662729/0x010D8309) [8224*]:
    → "Once again you've done me a great service. My fallen brethren may now rest in peace with the knowledge that their deaths have been avenged."
  8: 0x0B08 [0x23] WAIT_FOR_DIALOG_INTERACTION
  9: 0x0B09 [0x66] LOAD_EXT_SCHEDULER_MAIN: Load scheduler "pas0" with entities [Goraow (ID: 17662729/0x010D8309), Goraow (ID: 17662729/0x010D8309)], work=131*
 10: 0x0B18 [0x2B] Goraow (ID: 17662729/0x010D8309) [8225*]:
    → "I can't recall a more glorious day in my life. Why, even the gout that ailed me most doggedly but a moment ago has miraculously subsided! By way of thanks, I want you to have this. It isn't much, but it should prove useful."
 11: 0x0B1F [0x23] WAIT_FOR_DIALOG_INTERACTION
 12: 0x0B20 [0x45] LOAD_SCHEDULED_TASK: Load scheduler "qstc" with entities [LocalPlayer, LocalPlayer], work=[201*, 0*]
 13: 0x0B31 [0x21] END_EVENT
 14: 0x0B32 [0x00] END_REQSTACK()
```

### Event 167

#### Metadata

| Field        | Value    |
|--------------|----------|
| Entrypoint   | 0x0B33   |
| Data Size    | 37 bytes |
| Instructions | 9        |

```
      00 01 02 03 04 05 06 07  08 09 0A 0B 0C 0D 0E 0F
      -- -- -- -- -- -- -- --  -- -- -- -- -- -- -- --
0B30:          4A 09 83 0D 01  F0 FF FF 7F 6F 76 09 83     J........ov..
0B40: 0D 01 6E 09 83 0D 01 10  80 99 09 83 0D 01 2B 09  ..n...........+.
0B50: 83 0D 01 6F 80 23 21 00                           ...o.#!.        
```

#### Opcodes

```
  0: 0x0B33 [0x4A] Goraow (ID: 17662729/0x010D8309) looks at LocalPlayer
  1: 0x0B3C [0x6F] WAIT_FRAME_DELAY: Yield until WaitTime reaches zero
  2: 0x0B3D [0x76] CHECK_ENTITY_RENDER_FLAGS: Wait until Goraow (ID: 17662729/0x010D8309) Render.Flags0 and Render.Flags3 conditions are met
  3: 0x0B42 [0x6E] Goraow (ID: 17662729/0x010D8309) uses emote 7*
  4: 0x0B49 [0x99] Wait for Goraow (ID: 17662729/0x010D8309) animation to complete
  5: 0x0B4E [0x2B] Goraow (ID: 17662729/0x010D8309) [8224*]:
    → "Once again you've done me a great service. My fallen brethren may now rest in peace with the knowledge that their deaths have been avenged."
  6: 0x0B55 [0x23] WAIT_FOR_DIALOG_INTERACTION
  7: 0x0B56 [0x21] END_EVENT
  8: 0x0B57 [0x00] END_REQSTACK()
```

### Event 176

#### Metadata

| Field        | Value    |
|--------------|----------|
| Entrypoint   | 0x0B58   |
| Data Size    | 30 bytes |
| Instructions | 8        |

```
      00 01 02 03 04 05 06 07  08 09 0A 0B 0C 0D 0E 0F
      -- -- -- -- -- -- -- --  -- -- -- -- -- -- -- --
0B50:                          4A 09 83 0D 01 F0 FF FF          J.......
0B60: 7F 6F 76 09 83 0D 01 03  03 10 6D 80 2B 09 83 0D  .ov.......m.+...
0B70: 01 71 80 23 21 00                                 .q.#!.          
```

#### Opcodes

```
  0: 0x0B58 [0x4A] Goraow (ID: 17662729/0x010D8309) looks at LocalPlayer
  1: 0x0B61 [0x6F] WAIT_FRAME_DELAY: Yield until WaitTime reaches zero
  2: 0x0B62 [0x76] CHECK_ENTITY_RENDER_FLAGS: Wait until Goraow (ID: 17662729/0x010D8309) Render.Flags0 and Render.Flags3 conditions are met
  3: 0x0B67 [0x03] Work_Zone[3] = 2961*
  4: 0x0B6C [0x2B] Goraow (ID: 17662729/0x010D8309) [8226*]:
    → "The $1 you so valiantly acquired now adorns the grave of my fallen comrades. With the body part of their killer decomposing before them, their souls may now know peace."
  5: 0x0B73 [0x23] WAIT_FOR_DIALOG_INTERACTION
  6: 0x0B74 [0x21] END_EVENT
  7: 0x0B75 [0x00] END_REQSTACK()
```

### Event 177

#### Metadata

| Field        | Value    |
|--------------|----------|
| Entrypoint   | 0x0B76   |
| Data Size    | 11 bytes |
| Instructions | 5        |

```
      00 01 02 03 04 05 06 07  08 09 0A 0B 0C 0D 0E 0F
      -- -- -- -- -- -- -- --  -- -- -- -- -- -- -- --
0B70:                   03 03  10 6D 80 48 72 80 23 21        ...m.Hr.#!
0B80: 00                                                .               
```

#### Opcodes

```
