# 17662567

## Common Data

| Field            | Value                         |
|------------------|-------------------------------|
| Zone             | Abyssea - Misareaux (ID: 216) |
| Block Size       | 236 bytes                     |
| Total Events     | 2                             |
| References Count | 5                             |

## List of Events

| Event ID              | Entrypoint   |   Size |   Instructions |
|-----------------------|--------------|--------|----------------|
| [65535](#event-65535) | 0x0000       |      1 |              1 |
| [1012](#event-1012)   | 0x0001       |    191 |             50 |

## DAT References (imed_data)

|   Index | Hex Value   |   Dec Value |
|---------|-------------|-------------|
|       0 | 0x0000      |           0 |
|       1 | 0x1DA7      |        7591 |
|       2 | 0x1DA9      |        7593 |
|       3 | 0x0001      |           1 |
|       4 | 0x1DA8      |        7592 |

## String References

- **7591**: You sense an aura of boundless rage...
- **7592**: Your keen senses tell you that something may happen if only you had [this item/these items].
- **7593**: $0...

## Events

### Event 65535

#### Metadata

| Field        | Value   |
|--------------|---------|
| Entrypoint   | 0x0000  |
| Data Size    | 1 bytes |
| Instructions | 1       |

```
      00 01 02 03 04 05 06 07  08 09 0A 0B 0C 0D 0E 0F
      -- -- -- -- -- -- -- --  -- -- -- -- -- -- -- --
0000: 00                                                .               
```

#### Opcodes

```
  0: 0x0000 [0x00] END_REQSTACK()
```

### Event 1012

#### Metadata

| Field        | Value     |
|--------------|-----------|
| Entrypoint   | 0x0001    |
| Data Size    | 191 bytes |
| Instructions | 50        |

```
      00 01 02 03 04 05 06 07  08 09 0A 0B 0C 0D 0E 0F
      -- -- -- -- -- -- -- --  -- -- -- -- -- -- -- --
0000:    03 00 00 00 80 48 01  80 23 02 02 10 00 80 01   .....H..#......
0010: 19 00 48 02 80 23 0B 00  00 02 03 10 00 80 01 2D  ..H..#.........-
0020: 00 03 02 10 03 10 48 02  80 23 0B 00 00 02 04 10  ......H..#......
0030: 00 80 01 41 00 03 02 10  04 10 48 02 80 23 0B 00  ...A......H..#..
0040: 00 02 05 10 00 80 01 55  00 03 02 10 05 10 48 02  .......U......H.
0050: 80 23 0B 00 00 02 06 10  00 80 01 69 00 03 02 10  .#.........i....
0060: 06 10 48 02 80 23 0B 00  00 02 07 10 00 80 01 7D  ..H..#.........}
0070: 00 03 02 10 07 10 48 02  80 23 0B 00 00 02 08 10  ......H..#......
0080: 00 80 01 91 00 03 02 10  08 10 48 02 80 23 0B 00  ..........H..#..
0090: 00 02 09 10 00 80 01 A5  00 03 02 10 09 10 48 02  ..............H.
00A0: 80 23 0B 00 00 02 00 00  03 80 05 B5 00 03 02 10  .#..............
00B0: 00 80 01 BA 00 03 02 10  03 80 48 04 80 23 21 00  ..........H..#!.
```

#### Opcodes

```
  0: 0x0001 [0x03] ExtData[1]->WorkLocal[0] = 0*
  1: 0x0006 [0x48] [System] [7591*]:
    → "You sense an aura of boundless rage..."
  2: 0x0009 [0x23] WAIT_FOR_DIALOG_INTERACTION
  3: 0x000A [0x02] IF !(Work_Zone[2] == 0*) GOTO 0x0019
  4: 0x0012 [0x48] [System] [7593*]:
    → "$0..."
  5: 0x0015 [0x23] WAIT_FOR_DIALOG_INTERACTION
  6: 0x0016 [0x0B] ExtData[1]->WorkLocal[0]++
  7: 0x0019 [0x02] IF !(Work_Zone[3] == 0*) GOTO 0x002D
  8: 0x0021 [0x03] Work_Zone[2] = Work_Zone[3]
  9: 0x0026 [0x48] [System] [7593*]:
    → "$0..."
 10: 0x0029 [0x23] WAIT_FOR_DIALOG_INTERACTION
 11: 0x002A [0x0B] ExtData[1]->WorkLocal[0]++
 12: 0x002D [0x02] IF !(Work_Zone[4] == 0*) GOTO 0x0041
 13: 0x0035 [0x03] Work_Zone[2] = Work_Zone[4]
 14: 0x003A [0x48] [System] [7593*]:
    → "$0..."
 15: 0x003D [0x23] WAIT_FOR_DIALOG_INTERACTION
 16: 0x003E [0x0B] ExtData[1]->WorkLocal[0]++
 17: 0x0041 [0x02] IF !(Work_Zone[5] == 0*) GOTO 0x0055
 18: 0x0049 [0x03] Work_Zone[2] = Work_Zone[5]
 19: 0x004E [0x48] [System] [7593*]:
    → "$0..."
 20: 0x0051 [0x23] WAIT_FOR_DIALOG_INTERACTION
 21: 0x0052 [0x0B] ExtData[1]->WorkLocal[0]++
 22: 0x0055 [0x02] IF !(Work_Zone[6] == 0*) GOTO 0x0069
 23: 0x005D [0x03] Work_Zone[2] = Work_Zone[6]
 24: 0x0062 [0x48] [System] [7593*]:
    → "$0..."
 25: 0x0065 [0x23] WAIT_FOR_DIALOG_INTERACTION
 26: 0x0066 [0x0B] ExtData[1]->WorkLocal[0]++
 27: 0x0069 [0x02] IF !(Work_Zone[7] == 0*) GOTO 0x007D
 28: 0x0071 [0x03] Work_Zone[2] = Work_Zone[7]
 29: 0x0076 [0x48] [System] [7593*]:
    → "$0..."
 30: 0x0079 [0x23] WAIT_FOR_DIALOG_INTERACTION
 31: 0x007A [0x0B] ExtData[1]->WorkLocal[0]++
 32: 0x007D [0x02] IF !(Work_Zone[8] == 0*) GOTO 0x0091
 33: 0x0085 [0x03] Work_Zone[2] = Work_Zone[8]
 34: 0x008A [0x48] [System] [7593*]:
    → "$0..."
 35: 0x008D [0x23] WAIT_FOR_DIALOG_INTERACTION
 36: 0x008E [0x0B] ExtData[1]->WorkLocal[0]++
 37: 0x0091 [0x02] IF !(Work_Zone[9] == 0*) GOTO 0x00A5
 38: 0x0099 [0x03] Work_Zone[2] = Work_Zone[9]
 39: 0x009E [0x48] [System] [7593*]:
    → "$0..."
 40: 0x00A1 [0x23] WAIT_FOR_DIALOG_INTERACTION
 41: 0x00A2 [0x0B] ExtData[1]->WorkLocal[0]++
 42: 0x00A5 [0x02] IF !(ExtData[1]->WorkLocal[0] > 1*) GOTO 0x00B5
 43: 0x00AD [0x03] Work_Zone[2] = 0*
 44: 0x00B2 [0x01] GOTO 0x00BA
 45: 0x00B5 [0x03] Work_Zone[2] = 1*

SUBROUTINE_00BA:
 46: 0x00BA [0x48] [System] [7592*]:
    → "Your keen senses tell you that something may happen if only you had [this item/these items]."
 47: 0x00BD [0x23] WAIT_FOR_DIALOG_INTERACTION
 48: 0x00BE [0x21] END_EVENT
 49: 0x00BF [0x00] END_REQSTACK()
```
