# 17662573

## Common Data

| Field            | Value                         |
|------------------|-------------------------------|
| Zone             | Abyssea - Misareaux (ID: 216) |
| Block Size       | 472 bytes                     |
| Total Events     | 3                             |
| References Count | 6                             |

## List of Events

| Event ID              | Entrypoint   |   Size |   Instructions |
|-----------------------|--------------|--------|----------------|
| [65535](#event-65535) | 0x0000       |      1 |              1 |
| [1022](#event-1022)   | 0x0001       |    226 |             57 |
| [1026](#event-1026)   | 0x00E3       |    191 |             50 |

## DAT References (imed_data)

|   Index | Hex Value   |   Dec Value |
|---------|-------------|-------------|
|       0 | 0x0000      |           0 |
|       1 | 0x1DA7      |        7591 |
|       2 | 0x1DAA      |        7594 |
|       3 | 0x0001      |           1 |
|       4 | 0x1DA8      |        7592 |
|       5 | 0x1DAB      |        7595 |

## String References

- **7591**: You sense an aura of boundless rage...
- **7592**: Your keen senses tell you that something may happen if only you had [this item/these items].
- **7594**: 6...
- **7595**: Use the [key item/key items]? [Yes./No.]

## Events

### Event 65535

#### Metadata

| Field        | Value   |
|--------------|---------|
| Entrypoint   | 0x0000  |
| Data Size    | 1 bytes |
| Instructions | 1       |

```
      00 01 02 03 04 05 06 07  08 09 0A 0B 0C 0D 0E 0F
      -- -- -- -- -- -- -- --  -- -- -- -- -- -- -- --
0000: 00                                                .               
```

#### Opcodes

```
  0: 0x0000 [0x00] END_REQSTACK()
```

### Event 1022

#### Metadata

| Field        | Value     |
|--------------|-----------|
| Entrypoint   | 0x0001    |
| Data Size    | 226 bytes |
| Instructions | 57        |

```
      00 01 02 03 04 05 06 07  08 09 0A 0B 0C 0D 0E 0F
      -- -- -- -- -- -- -- --  -- -- -- -- -- -- -- --
0000:    03 00 00 00 80 48 01  80 23 02 02 10 00 80 01   .....H..#......
0010: 19 00 48 02 80 23 0B 00  00 02 03 10 00 80 01 2D  ..H..#.........-
0020: 00 03 02 10 03 10 48 02  80 23 0B 00 00 02 04 10  ......H..#......
0030: 00 80 01 41 00 03 02 10  04 10 48 02 80 23 0B 00  ...A......H..#..
0040: 00 02 05 10 00 80 01 55  00 03 02 10 05 10 48 02  .......U......H.
0050: 80 23 0B 00 00 02 06 10  00 80 01 69 00 03 02 10  .#.........i....
0060: 06 10 48 02 80 23 0B 00  00 02 07 10 00 80 01 7D  ..H..#.........}
0070: 00 03 02 10 07 10 48 02  80 23 0B 00 00 02 08 10  ......H..#......
0080: 00 80 01 91 00 03 02 10  08 10 48 02 80 23 0B 00  ..........H..#..
0090: 00 02 09 10 00 80 01 A5  00 03 02 10 09 10 48 02  ..............H.
00A0: 80 23 0B 00 00 02 00 00  03 80 05 B5 00 03 02 10  .#..............
00B0: 00 80 01 BA 00 03 02 10  03 80 48 04 80 23 24 05  ..........H..#$.
00C0: 80 03 80 00 80 25 02 00  10 00 80 00 D6 00 03 01  .....%..........
00D0: 10 03 80 01 E1 00 02 00  10 03 80 00 E1 00 01 E1  ................
00E0: 00 21 00                                          .!.             
```

#### Opcodes

```
  0: 0x0001 [0x03] ExtData[1]->WorkLocal[0] = 0*
  1: 0x0006 [0x48] [System] [7591*]:
    → "You sense an aura of boundless rage..."
  2: 0x0009 [0x23] WAIT_FOR_DIALOG_INTERACTION
  3: 0x000A [0x02] IF !(Work_Zone[2] == 0*) GOTO 0x0019
  4: 0x0012 [0x48] [System] [7594*]:
    → "6..."
  5: 0x0015 [0x23] WAIT_FOR_DIALOG_INTERACTION
  6: 0x0016 [0x0B] ExtData[1]->WorkLocal[0]++
  7: 0x0019 [0x02] IF !(Work_Zone[3] == 0*) GOTO 0x002D
  8: 0x0021 [0x03] Work_Zone[2] = Work_Zone[3]
  9: 0x0026 [0x48] [System] [7594*]:
    → "6..."
 10: 0x0029 [0x23] WAIT_FOR_DIALOG_INTERACTION
 11: 0x002A [0x0B] ExtData[1]->WorkLocal[0]++
 12: 0x002D [0x02] IF !(Work_Zone[4] == 0*) GOTO 0x0041
 13: 0x0035 [0x03] Work_Zone[2] = Work_Zone[4]
 14: 0x003A [0x48] [System] [7594*]:
    → "6..."
 15: 0x003D [0x23] WAIT_FOR_DIALOG_INTERACTION
 16: 0x003E [0x0B] ExtData[1]->WorkLocal[0]++
 17: 0x0041 [0x02] IF !(Work_Zone[5] == 0*) GOTO 0x0055
 18: 0x0049 [0x03] Work_Zone[2] = Work_Zone[5]
 19: 0x004E [0x48] [System] [7594*]:
    → "6..."
 20: 0x0051 [0x23] WAIT_FOR_DIALOG_INTERACTION
 21: 0x0052 [0x0B] ExtData[1]->WorkLocal[0]++
 22: 0x0055 [0x02] IF !(Work_Zone[6] == 0*) GOTO 0x0069
 23: 0x005D [0x03] Work_Zone[2] = Work_Zone[6]
 24: 0x0062 [0x48] [System] [7594*]:
    → "6..."
 25: 0x0065 [0x23] WAIT_FOR_DIALOG_INTERACTION
 26: 0x0066 [0x0B] ExtData[1]->WorkLocal[0]++
 27: 0x0069 [0x02] IF !(Work_Zone[7] == 0*) GOTO 0x007D
 28: 0x0071 [0x03] Work_Zone[2] = Work_Zone[7]
 29: 0x0076 [0x48] [System] [7594*]:
    → "6..."
 30: 0x0079 [0x23] WAIT_FOR_DIALOG_INTERACTION
 31: 0x007A [0x0B] ExtData[1]->WorkLocal[0]++
 32: 0x007D [0x02] IF !(Work_Zone[8] == 0*) GOTO 0x0091
 33: 0x0085 [0x03] Work_Zone[2] = Work_Zone[8]
 34: 0x008A [0x48] [System] [7594*]:
    → "6..."
 35: 0x008D [0x23] WAIT_FOR_DIALOG_INTERACTION
 36: 0x008E [0x0B] ExtData[1]->WorkLocal[0]++
 37: 0x0091 [0x02] IF !(Work_Zone[9] == 0*) GOTO 0x00A5
 38: 0x0099 [0x03] Work_Zone[2] = Work_Zone[9]
 39: 0x009E [0x48] [System] [7594*]:
    → "6..."
 40: 0x00A1 [0x23] WAIT_FOR_DIALOG_INTERACTION
 41: 0x00A2 [0x0B] ExtData[1]->WorkLocal[0]++
 42: 0x00A5 [0x02] IF !(ExtData[1]->WorkLocal[0] > 1*) GOTO 0x00B5
 43: 0x00AD [0x03] Work_Zone[2] = 0*
 44: 0x00B2 [0x01] GOTO 0x00BA
 45: 0x00B5 [0x03] Work_Zone[2] = 1*

SUBROUTINE_00BA:
 46: 0x00BA [0x48] [System] [7592*]:
    → "Your keen senses tell you that something may happen if only you had [this item/these items]."
 47: 0x00BD [0x23] WAIT_FOR_DIALOG_INTERACTION
 48: 0x00BE [0x24] CREATE_DIALOG(message_id=7595*, default_option=1*, option_flags=0*)
    → "Use the [key item/key items]? [Yes./No.]"
 49: 0x00C5 [0x25] WAIT_DIALOG_SELECT()
 50: 0x00C6 [0x02] IF !(Work_Zone[0] == 0*) GOTO 0x00D6
 51: 0x00CE [0x03] Work_Zone[1] = 1*
 52: 0x00D3 [0x01] GOTO 0x00E1
 53: 0x00D6 [0x02] IF !(Work_Zone[0] == 1*) GOTO 0x00E1
 54: 0x00DE [0x01] GOTO 0x00E1

SUBROUTINE_00E1:
 55: 0x00E1 [0x21] END_EVENT
 56: 0x00E2 [0x00] END_REQSTACK()
```

### Event 1026

#### Metadata

| Field        | Value     |
|--------------|-----------|
| Entrypoint   | 0x00E3    |
| Data Size    | 191 bytes |
| Instructions | 50        |

```
      00 01 02 03 04 05 06 07  08 09 0A 0B 0C 0D 0E 0F
      -- -- -- -- -- -- -- --  -- -- -- -- -- -- -- --
00E0:          03 00 00 00 80  48 01 80 23 02 02 10 00     .....H..#....
00F0: 80 01 FB 00 48 02 80 23  0B 00 00 02 03 10 00 80  ....H..#........
0100: 01 0F 01 03 02 10 03 10  48 02 80 23 0B 00 00 02  ........H..#....
0110: 04 10 00 80 01 23 01 03  02 10 04 10 48 02 80 23  .....#......H..#
0120: 0B 00 00 02 05 10 00 80  01 37 01 03 02 10 05 10  .........7......
0130: 48 02 80 23 0B 00 00 02  06 10 00 80 01 4B 01 03  H..#.........K..
0140: 02 10 06 10 48 02 80 23  0B 00 00 02 07 10 00 80  ....H..#........
0150: 01 5F 01 03 02 10 07 10  48 02 80 23 0B 00 00 02  ._......H..#....
0160: 08 10 00 80 01 73 01 03  02 10 08 10 48 02 80 23  .....s......H..#
0170: 0B 00 00 02 09 10 00 80  01 87 01 03 02 10 09 10  ................
0180: 48 02 80 23 0B 00 00 02  00 00 03 80 05 97 01 03  H..#............
0190: 02 10 00 80 01 9C 01 03  02 10 03 80 48 04 80 23  ............H..#
01A0: 21 00                                             !.              
```

#### Opcodes

```
  0: 0x00E3 [0x03] ExtData[1]->WorkLocal[0] = 0*
  1: 0x00E8 [0x48] [System] [7591*]:
    → "You sense an aura of boundless rage..."
  2: 0x00EB [0x23] WAIT_FOR_DIALOG_INTERACTION
  3: 0x00EC [0x02] IF !(Work_Zone[2] == 0*) GOTO 0x00FB
  4: 0x00F4 [0x48] [System] [7594*]:
    → "6..."
  5: 0x00F7 [0x23] WAIT_FOR_DIALOG_INTERACTION
  6: 0x00F8 [0x0B] ExtData[1]->WorkLocal[0]++
  7: 0x00FB [0x02] IF !(Work_Zone[3] == 0*) GOTO 0x010F
  8: 0x0103 [0x03] Work_Zone[2] = Work_Zone[3]
  9: 0x0108 [0x48] [System] [7594*]:
    → "6..."
 10: 0x010B [0x23] WAIT_FOR_DIALOG_INTERACTION
 11: 0x010C [0x0B] ExtData[1]->WorkLocal[0]++
 12: 0x010F [0x02] IF !(Work_Zone[4] == 0*) GOTO 0x0123
 13: 0x0117 [0x03] Work_Zone[2] = Work_Zone[4]
 14: 0x011C [0x48] [System] [7594*]:
    → "6..."
 15: 0x011F [0x23] WAIT_FOR_DIALOG_INTERACTION
 16: 0x0120 [0x0B] ExtData[1]->WorkLocal[0]++
 17: 0x0123 [0x02] IF !(Work_Zone[5] == 0*) GOTO 0x0137
 18: 0x012B [0x03] Work_Zone[2] = Work_Zone[5]
 19: 0x0130 [0x48] [System] [7594*]:
    → "6..."
 20: 0x0133 [0x23] WAIT_FOR_DIALOG_INTERACTION
 21: 0x0134 [0x0B] ExtData[1]->WorkLocal[0]++
 22: 0x0137 [0x02] IF !(Work_Zone[6] == 0*) GOTO 0x014B
 23: 0x013F [0x03] Work_Zone[2] = Work_Zone[6]
 24: 0x0144 [0x48] [System] [7594*]:
    → "6..."
 25: 0x0147 [0x23] WAIT_FOR_DIALOG_INTERACTION
 26: 0x0148 [0x0B] ExtData[1]->WorkLocal[0]++
 27: 0x014B [0x02] IF !(Work_Zone[7] == 0*) GOTO 0x015F
 28: 0x0153 [0x03] Work_Zone[2] = Work_Zone[7]
 29: 0x0158 [0x48] [System] [7594*]:
    → "6..."
 30: 0x015B [0x23] WAIT_FOR_DIALOG_INTERACTION
 31: 0x015C [0x0B] ExtData[1]->WorkLocal[0]++
 32: 0x015F [0x02] IF !(Work_Zone[8] == 0*) GOTO 0x0173
 33: 0x0167 [0x03] Work_Zone[2] = Work_Zone[8]
 34: 0x016C [0x48] [System] [7594*]:
    → "6..."
 35: 0x016F [0x23] WAIT_FOR_DIALOG_INTERACTION
 36: 0x0170 [0x0B] ExtData[1]->WorkLocal[0]++
 37: 0x0173 [0x02] IF !(Work_Zone[9] == 0*) GOTO 0x0187
 38: 0x017B [0x03] Work_Zone[2] = Work_Zone[9]
 39: 0x0180 [0x48] [System] [7594*]:
    → "6..."
 40: 0x0183 [0x23] WAIT_FOR_DIALOG_INTERACTION
 41: 0x0184 [0x0B] ExtData[1]->WorkLocal[0]++
 42: 0x0187 [0x02] IF !(ExtData[1]->WorkLocal[0] > 1*) GOTO 0x0197
 43: 0x018F [0x03] Work_Zone[2] = 0*
 44: 0x0194 [0x01] GOTO 0x019C
 45: 0x0197 [0x03] Work_Zone[2] = 1*

SUBROUTINE_019C:
 46: 0x019C [0x48] [System] [7592*]:
    → "Your keen senses tell you that something may happen if only you had [this item/these items]."
 47: 0x019F [0x23] WAIT_FOR_DIALOG_INTERACTION
 48: 0x01A0 [0x21] END_EVENT
 49: 0x01A1 [0x00] END_REQSTACK()
```
