# 17662782 - Chocobo Tamer

## Common Data

| Field            | Value                         |
|------------------|-------------------------------|
| Zone             | Abyssea - Misareaux (ID: 216) |
| Block Size       | 936 bytes                     |
| Total Events     | 5                             |
| References Count | 53                            |

## List of Events

| Event ID              | Entrypoint   |   Size |   Instructions |
|-----------------------|--------------|--------|----------------|
| [65535](#event-65535) | 0x0000       |      1 |              1 |
| [1514](#event-1514)   | 0x0001       |     15 |              7 |
| [1515](#event-1515)   | 0x0010       |     46 |             17 |
| [1516](#event-1516)   | 0x003E       |     38 |             15 |
| [1517](#event-1517)   | 0x0064       |    587 |            139 |

## DAT References (imed_data)

|   Index | Hex Value   |   Dec Value |
|---------|-------------|-------------|
|       0 | 0x2125      |        8485 |
|       1 | 0x2126      |        8486 |
|       2 | 0x2127      |        8487 |
|       3 | 0x0000      |           0 |
|       4 | 0x2128      |        8488 |
|       5 | 0x2129      |        8489 |
|       6 | 0x212A      |        8490 |
|       7 | 0x2143      |        8515 |
|       8 | 0x2144      |        8516 |
|       9 | 0x2145      |        8517 |
|      10 | 0x2146      |        8518 |
|      11 | 0x2147      |        8519 |
|      12 | 0x0001      |           1 |
|      13 | 0x212B      |        8491 |
|      14 | 0x0004      |           4 |
|      15 | 0x0003      |           3 |
|      16 | 0x2139      |        8505 |
|      17 | 0x213A      |        8506 |
|      18 | 0x213B      |        8507 |
|      19 | 0x213C      |        8508 |
|      20 | 0x213D      |        8509 |
|      21 | 0x213E      |        8510 |
|      22 | 0x213F      |        8511 |
|      23 | 0x2140      |        8512 |
|      24 | 0x2141      |        8513 |
|      25 | 0x2142      |        8514 |
|      26 | 0x0002      |           2 |
|      27 | 0x212F      |        8495 |
|      28 | 0x40000000  |  1073741824 |
|      29 | 0x11C1      |        4545 |
|      30 | 0x0032      |          50 |
|      31 | 0x15E6      |        5606 |
|      32 | 0x012C      |         300 |
|      33 | 0x0955      |        2389 |
|      34 | 0x0064      |         100 |
|      35 | 0x0956      |        2390 |
|      36 | 0x0096      |         150 |
|      37 | 0x095F      |        2399 |
|      38 | 0x00C8      |         200 |
|      39 | 0x2130      |        8496 |
|      40 | 0x2131      |        8497 |
|      41 | 0x2132      |        8498 |
|      42 | 0x2133      |        8499 |
|      43 | 0x2134      |        8500 |
|      44 | 0x2135      |        8501 |
|      45 | 0x0005      |           5 |
|      46 | 0x2136      |        8502 |
|      47 | 0x000C      |          12 |
|      48 | 0x2137      |        8503 |
|      49 | 0x2138      |        8504 |
|      50 | 0x0007      |           7 |
|      51 | 0x0008      |           8 |
|      52 | 0x000B      |          11 |

## String References

- **8485**: Well met, friend. I am charged with assisting those who have volunteered to transport supplies to the battlefront by way of pack chocobo.
- **8486**: If you would aid the resistance effort in this area, please speak with the resistance sapper.
- **8487**: Well met, friend. I had received word that you would be coming.
- **8488**: Oh, dear. I'm afraid all our pack chocobos are presently afield.
- **8489**: One of the animals should be available again soon, though, so please check back in a short while.
- **8490**: How might I assist you?
- **8491**: What will you do? [Commence operation./Ask about pack chocobos./Exchange cruor for items./Nothing right now.]
- **8495**: I can offer you a range of helpful pack chocobo goods in exchange for cruor.
- **8496**: Select an item. (Cruor balance: $0) [$1: $2/$3: $4/$5: $6/$7: $8/$9: $10/Never mind.]
- **8497**: This item slightly recovers the pack chocobo's health.
- **8498**: This item moderately recovers the pack chocobo's health.
- **8499**: This item temporarily increases the pack chocobo's movement speed.
- **8500**: This item temporarily improves the pack chocobo's hardiness.
- **8501**: This item temporarily dampens the pack chocobo's sense of smell.
- **8502**: Please choose a quantity from one to twelve.
- **8503**: $30 $0 ... The total comes to $31 cruor. Will this be all right?
- **8504**: Proceed with exchange? [Yes./No.]
- **8505**: It would be my pleasure to tell you all I know of these trusty creatures.
- **8506**: Pack chocobos are bred especially for tractability, and will faithfully follow you at a single command. To minimize the risk of both animal and baggage being lost, they are also trained to stay put should they lose sight of their caretaker.
- **8507**: As to be expected, the chocobo's stamina gradually deteriorates over the course of labor. You would be doing it a kindness by taking no longer than necessary to complete your task.
- **8508**: For the operation, you must first lead the chocobo to the stockpile, and thence load it up with as many supplies as manageable.
- **8509**: The creature's stamina will continue to deteriorate even during loading.
- **8510**: It is your responsibility to make absolutely certain that it has sufficient energy remaining to make the return trip.
- **8511**: Lastly, these hostile environs have caused the chocobos to revert to their natural instincts for self-preservation.
- **8512**: The creatures have become highly skittish, and will startle and bolt should they catch scent of a monster.
- **8513**: In attempting to flee, the chocobo will tire rapidly. There is also a chance that it will drop its burden. Should this happen, waste no time in securing and calming down the poor creature.
- **8514**: Our avian allies play a crucial role in keeping the outpost well-provisioned. We do our utmost to keep them content and in fine feather, and would appreciate your cooperation in this regard.
- **8515**: Ah, welcome back!
- **8516**: I shall take over from here. You have our gratitude.
- **8517**: Oh, and do not forget to report the completion of your task to the resistance sapper.
- **8518**: What!? You allowed the pack chocobo to run off!? Oh, gods preserve the poor creature...
- **8519**: The loss of a pack chocobo will sorely be felt by the resistance effort. You must report this disaster to the resistance sapper at once.

## Events

### Event 65535

#### Metadata

| Field        | Value   |
|--------------|---------|
| Entrypoint   | 0x0000  |
| Data Size    | 1 bytes |
| Instructions | 1       |

```
      00 01 02 03 04 05 06 07  08 09 0A 0B 0C 0D 0E 0F
      -- -- -- -- -- -- -- --  -- -- -- -- -- -- -- --
0000: 00                                                .               
```

#### Opcodes

```
  0: 0x0000 [0x00] END_REQSTACK()
```

### Event 1514

#### Metadata

| Field        | Value    |
|--------------|----------|
| Entrypoint   | 0x0001   |
| Data Size    | 15 bytes |
| Instructions | 7        |

```
      00 01 02 03 04 05 06 07  08 09 0A 0B 0C 0D 0E 0F
      -- -- -- -- -- -- -- --  -- -- -- -- -- -- -- --
0000:    1E F0 FF FF 7F 1D 00  80 23 1D 01 80 23 21 00   ........#...#!.
```

#### Opcodes

```
  0: 0x0001 [0x1E] EventEntity looks at LocalPlayer and starts talking
  1: 0x0006 [0x1D] PRINT_EVENT_MESSAGE(message_id=8485*)
    → "Well met, friend. I am charged with assisting those who have volunteered to transport supplies to the battlefront by way of pack chocobo."
  2: 0x0009 [0x23] WAIT_FOR_DIALOG_INTERACTION
  3: 0x000A [0x1D] PRINT_EVENT_MESSAGE(message_id=8486*)
    → "If you would aid the resistance effort in this area, please speak with the resistance sapper."
  4: 0x000D [0x23] WAIT_FOR_DIALOG_INTERACTION
  5: 0x000E [0x21] END_EVENT
  6: 0x000F [0x00] END_REQSTACK()
```

### Event 1515

#### Metadata

| Field        | Value    |
|--------------|----------|
| Entrypoint   | 0x0010   |
| Data Size    | 46 bytes |
| Instructions | 17       |

```
      00 01 02 03 04 05 06 07  08 09 0A 0B 0C 0D 0E 0F
      -- -- -- -- -- -- -- --  -- -- -- -- -- -- -- --
0010: 03 02 00 03 10 03 07 00  04 10 1E F0 FF FF 7F 1D  ................
0020: 02 80 23 02 02 10 03 80  01 35 00 1D 04 80 23 1D  ..#......5....#.
0030: 05 80 23 21 00 1D 06 80  23 1A 73 00 21 00        ..#!....#.s.!.  
```

#### Opcodes

```
  0: 0x0010 [0x03] ExtData[1]->WorkLocal[2] = Work_Zone[3]
  1: 0x0015 [0x03] ExtData[1]->WorkLocal[7] = Work_Zone[4]
  2: 0x001A [0x1E] EventEntity looks at LocalPlayer and starts talking
  3: 0x001F [0x1D] PRINT_EVENT_MESSAGE(message_id=8487*)
    → "Well met, friend. I had received word that you would be coming."
  4: 0x0022 [0x23] WAIT_FOR_DIALOG_INTERACTION
  5: 0x0023 [0x02] IF !(Work_Zone[2] == 0*) GOTO 0x0035
  6: 0x002B [0x1D] PRINT_EVENT_MESSAGE(message_id=8488*)
    → "Oh, dear. I'm afraid all our pack chocobos are presently afield."
  7: 0x002E [0x23] WAIT_FOR_DIALOG_INTERACTION
  8: 0x002F [0x1D] PRINT_EVENT_MESSAGE(message_id=8489*)
    → "One of the animals should be available again soon, though, so please check back in a short while."
  9: 0x0032 [0x23] WAIT_FOR_DIALOG_INTERACTION
 10: 0x0033 [0x21] END_EVENT
 11: 0x0034 [0x00] END_REQSTACK()
 12: 0x0035 [0x1D] PRINT_EVENT_MESSAGE(message_id=8490*)
    → "How might I assist you?"
 13: 0x0038 [0x23] WAIT_FOR_DIALOG_INTERACTION
 14: 0x0039 [0x1A] CALL_SUBROUTINE(address=0x0073)
 15: 0x003C [0x21] END_EVENT
 16: 0x003D [0x00] END_REQSTACK()
```

### Event 1516

#### Metadata

| Field        | Value    |
|--------------|----------|
| Entrypoint   | 0x003E   |
| Data Size    | 38 bytes |
| Instructions | 15       |

```
      00 01 02 03 04 05 06 07  08 09 0A 0B 0C 0D 0E 0F
      -- -- -- -- -- -- -- --  -- -- -- -- -- -- -- --
0030:                                            1E F0                ..
0040: FF FF 7F 02 03 10 03 80  00 5A 00 1D 07 80 23 1D  .........Z....#.
0050: 08 80 23 1D 09 80 23 01  62 00 1D 0A 80 23 1D 0B  ..#...#.b....#..
0060: 80 23 21 00                                       .#!.            
```

#### Opcodes

```
  0: 0x003E [0x1E] EventEntity looks at LocalPlayer and starts talking
  1: 0x0043 [0x02] IF !(Work_Zone[3] == 0*) GOTO 0x005A
  2: 0x004B [0x1D] PRINT_EVENT_MESSAGE(message_id=8515*)
    → "Ah, welcome back!"
  3: 0x004E [0x23] WAIT_FOR_DIALOG_INTERACTION
  4: 0x004F [0x1D] PRINT_EVENT_MESSAGE(message_id=8516*)
    → "I shall take over from here. You have our gratitude."
  5: 0x0052 [0x23] WAIT_FOR_DIALOG_INTERACTION
  6: 0x0053 [0x1D] PRINT_EVENT_MESSAGE(message_id=8517*)
    → "Oh, and do not forget to report the completion of your task to the resistance sapper."
  7: 0x0056 [0x23] WAIT_FOR_DIALOG_INTERACTION
  8: 0x0057 [0x01] GOTO 0x0062
  9: 0x005A [0x1D] PRINT_EVENT_MESSAGE(message_id=8518*)
    → "What!? You allowed the pack chocobo to run off!? Oh, gods preserve the poor creature..."
 10: 0x005D [0x23] WAIT_FOR_DIALOG_INTERACTION
 11: 0x005E [0x1D] PRINT_EVENT_MESSAGE(message_id=8519*)
    → "The loss of a pack chocobo will sorely be felt by the resistance effort. You must report this disaster to the resistance sapper at once."
 12: 0x0061 [0x23] WAIT_FOR_DIALOG_INTERACTION

SUBROUTINE_0062:
 13: 0x0062 [0x21] END_EVENT
 14: 0x0063 [0x00] END_REQSTACK()
```

### Event 1517

#### Metadata

| Field        | Value     |
|--------------|-----------|
| Entrypoint   | 0x0064    |
| Data Size    | 587 bytes |
| Instructions | 7         |

```
      00 01 02 03 04 05 06 07  08 09 0A 0B 0C 0D 0E 0F
      -- -- -- -- -- -- -- --  -- -- -- -- -- -- -- --
0060:             1E F0 FF FF  7F 1D 07 80 23 1D 09 80      ........#...
0070: 23 21 00 05 00 00 02 00  00 0C 80 00 FD 00 03 01  #!..............
0080: 10 03 80 24 0D 80 0E 80  07 00 25 02 00 10 03 80  ...$......%.....
0090: 00 A2 00 40 03 80 0F 80  01 10 0C 80 06 00 00 01  ...@............
00A0: FA 00 02 00 10 0C 80 00  D5 00 1D 10 80 23 1D 11  .............#..
00B0: 80 23 1D 12 80 23 1D 13  80 23 1D 14 80 23 1D 15  .#...#...#...#..
00C0: 80 23 1D 16 80 23 1D 17  80 23 1D 18 80 23 1D 19  .#...#...#...#..
00D0: 80 23 01 FA 00 02 00 10  1A 80 00 E7 00 1D 1B 80  .#..............
00E0: 23 1A FE 00 01 FA 00 02  00 10 0F 80 00 FA 00 03  #...............
00F0: 01 10 1C 80 06 00 00 01  FA 00 01 76 00 1B 05 01  ...........v....
0100: 00 02 01 00 0C 80 00 AE  02 03 02 10 02 00 03 03  ................
0110: 10 1D 80 03 04 10 1E 80  03 05 10 1F 80 03 06 10  ................
0120: 20 80 03 07 10 21 80 03  08 10 22 80 03 09 10 23   ....!...."....#
0130: 80 03 00 17 24 80 03 01  17 25 80 03 02 17 26 80  ....$....%....&.
0140: 24 27 80 03 80 03 80 25  02 00 10 03 80 00 5C 01  $'.....%......\.
0150: 1D 28 80 23 03 06 00 03  80 01 BA 01 02 00 10 0C  .(.#............
0160: 80 00 70 01 1D 29 80 23  03 06 00 0C 80 01 BA 01  ..p..).#........
0170: 02 00 10 1A 80 00 84 01  1D 2A 80 23 03 06 00 1A  .........*.#....
0180: 80 01 BA 01 02 00 10 0F  80 00 98 01 1D 2B 80 23  .............+.#
0190: 03 06 00 0F 80 01 BA 01  02 00 10 0E 80 00 AC 01  ................
01A0: 1D 2C 80 23 03 06 00 0E  80 01 BA 01 02 00 10 2D  .,.#...........-
01B0: 80 00 BA 01 06 01 00 01  BA 01 02 01 00 03 80 01  ................
01C0: AB 02 03 01 10 03 80 48  2E 80 40 03 80 0F 80 01  .......H..@.....
01D0: 10 1A 80 71 12 0C 80 1A  80 71 13 03 00 02 03 00  ...q.....q......
01E0: 03 80 02 AB 02 02 03 00  2F 80 05 AB 02 03 04 00  ......../.......
01F0: 03 00 02 06 00 03 80 80  07 02 14 04 00 1E 80 03  ................
0200: 15 17 1D 80 01 5B 02 02  06 00 0C 80 80 1C 02 14  .....[..........
0210: 04 00 20 80 03 15 17 1F  80 01 5B 02 02 06 00 1A  .. .......[.....
0220: 80 80 31 02 14 04 00 22  80 03 15 17 21 80 01 5B  ..1...."....!..[
0230: 02 02 06 00 0F 80 80 46  02 14 04 00 24 80 03 15  .......F....$...
0240: 17 23 80 01 5B 02 02 06  00 0E 80 80 5B 02 14 04  .#..[.......[...
0250: 00 26 80 03 15 17 25 80  01 5B 02 03 16 17 03 00  .&....%..[......
0260: 03 17 17 04 00 1D 30 80  23 24 31 80 0C 80 03 80  ......0.#$1.....
0270: 25 02 00 10 03 80 00 A0  02 40 03 80 0F 80 01 10  %........@......
0280: 0F 80 40 0E 80 32 80 01  10 06 00 40 33 80 34 80  ..@..2.....@3.4.
0290: 01 10 03 00 43 00 43 01  03 02 00 02 10 01 AB 02  ....C.C.........
02A0: 02 00 10 0C 80 00 AB 02  01 AB 02 01 01 01 1B     ............... 
```

#### Opcodes

```
  0: 0x0064 [0x1E] EventEntity looks at LocalPlayer and starts talking
  1: 0x0069 [0x1D] PRINT_EVENT_MESSAGE(message_id=8515*)
    → "Ah, welcome back!"
  2: 0x006C [0x23] WAIT_FOR_DIALOG_INTERACTION
  3: 0x006D [0x1D] PRINT_EVENT_MESSAGE(message_id=8517*)
    → "Oh, and do not forget to report the completion of your task to the resistance sapper."
  4: 0x0070 [0x23] WAIT_FOR_DIALOG_INTERACTION
  5: 0x0071 [0x21] END_EVENT
  6: 0x0072 [0x00] END_REQSTACK()
```

#### Data or dead code:

```
# Dead code (unreachable instructions):
     0x0073 [0x05] ExtData[1]->WorkLocal[0] = 1
     0x0076 [0x02] IF !(ExtData[1]->WorkLocal[0] == 1*) GOTO 0x00FD
     0x007E [0x03] Work_Zone[1] = 0*
     0x0083 [0x24] CREATE_DIALOG(message_id=8491*, default_option=4*, option_flags=ExtData[1]->WorkLocal[7])
    → "What will you do? [Commence operation./Ask about pack chocobos./Exchange cruor for items./Nothing right now.]"
     0x008A [0x25] WAIT_DIALOG_SELECT()
     0x008B [0x02] IF !(Work_Zone[0] == 0*) GOTO 0x00A2
     0x0093 [0x40] SET_BIT_WORK_RANGE(start_bit=0*, end_bit=3*, target=Work_Zone[1], source=1*)
     0x009C [0x06] ExtData[1]->WorkLocal[0] = 0
     0x009F [0x01] GOTO 0x00FA
     0x00A2 [0x02] IF !(Work_Zone[0] == 1*) GOTO 0x00D5
     0x00AA [0x1D] PRINT_EVENT_MESSAGE(message_id=8505*)
    → "It would be my pleasure to tell you all I know of these trusty creatures."
     0x00AD [0x23] WAIT_FOR_DIALOG_INTERACTION
     0x00AE [0x1D] PRINT_EVENT_MESSAGE(message_id=8506*)
    → "Pack chocobos are bred especially for tractability, and will faithfully follow you at a single command. To minimize the risk of both animal and baggage being lost, they are also trained to stay put should they lose sight of their caretaker."
     0x00B1 [0x23] WAIT_FOR_DIALOG_INTERACTION
     0x00B2 [0x1D] PRINT_EVENT_MESSAGE(message_id=8507*)
    → "As to be expected, the chocobo's stamina gradually deteriorates over the course of labor. You would be doing it a kindness by taking no longer than necessary to complete your task."
     0x00B5 [0x23] WAIT_FOR_DIALOG_INTERACTION
     0x00B6 [0x1D] PRINT_EVENT_MESSAGE(message_id=8508*)
    → "For the operation, you must first lead the chocobo to the stockpile, and thence load it up with as many supplies as manageable."
     0x00B9 [0x23] WAIT_FOR_DIALOG_INTERACTION
     0x00BA [0x1D] PRINT_EVENT_MESSAGE(message_id=8509*)
    → "The creature's stamina will continue to deteriorate even during loading."
     0x00BD [0x23] WAIT_FOR_DIALOG_INTERACTION
     0x00BE [0x1D] PRINT_EVENT_MESSAGE(message_id=8510*)
    → "It is your responsibility to make absolutely certain that it has sufficient energy remaining to make the return trip."
     0x00C1 [0x23] WAIT_FOR_DIALOG_INTERACTION
     0x00C2 [0x1D] PRINT_EVENT_MESSAGE(message_id=8511*)
    → "Lastly, these hostile environs have caused the chocobos to revert to their natural instincts for self-preservation."
     0x00C5 [0x23] WAIT_FOR_DIALOG_INTERACTION
     0x00C6 [0x1D] PRINT_EVENT_MESSAGE(message_id=8512*)
    → "The creatures have become highly skittish, and will startle and bolt should they catch scent of a monster."
     0x00C9 [0x23] WAIT_FOR_DIALOG_INTERACTION
     0x00CA [0x1D] PRINT_EVENT_MESSAGE(message_id=8513*)
    → "In attempting to flee, the chocobo will tire rapidly. There is also a chance that it will drop its burden. Should this happen, waste no time in securing and calming down the poor creature."
     0x00CD [0x23] WAIT_FOR_DIALOG_INTERACTION
     0x00CE [0x1D] PRINT_EVENT_MESSAGE(message_id=8514*)
    → "Our avian allies play a crucial role in keeping the outpost well-provisioned. We do our utmost to keep them content and in fine feather, and would appreciate your cooperation in this regard."
     0x00D1 [0x23] WAIT_FOR_DIALOG_INTERACTION
     0x00D2 [0x01] GOTO 0x00FA
     0x00D5 [0x02] IF !(Work_Zone[0] == 2*) GOTO 0x00E7
     0x00DD [0x1D] PRINT_EVENT_MESSAGE(message_id=8495*)
    → "I can offer you a range of helpful pack chocobo goods in exchange for cruor."
     0x00E0 [0x23] WAIT_FOR_DIALOG_INTERACTION
     0x00E1 [0x1A] CALL_SUBROUTINE(address=0x00FE)
     0x00E4 [0x01] GOTO 0x00FA
     0x00E7 [0x02] IF !(Work_Zone[0] == 3*) GOTO 0x00FA
     0x00EF [0x03] Work_Zone[1] = 1073741824*
     0x00F4 [0x06] ExtData[1]->WorkLocal[0] = 0
     0x00F7 [0x01] GOTO 0x00FA
     0x00FA [0x01] GOTO 0x0076
     0x00FD [0x1B] RETURN
     0x00FE [0x05] ExtData[1]->WorkLocal[1] = 1
     0x0101 [0x02] IF !(ExtData[1]->WorkLocal[1] == 1*) GOTO 0x02AE
     0x0109 [0x03] Work_Zone[2] = ExtData[1]->WorkLocal[2]
     0x010E [0x03] Work_Zone[3] = 4545*
     0x0113 [0x03] Work_Zone[4] = 50*
     0x0118 [0x03] Work_Zone[5] = 5606*
     0x011D [0x03] Work_Zone[6] = 300*
     0x0122 [0x03] Work_Zone[7] = 2389*
     0x0127 [0x03] Work_Zone[8] = 100*
     0x012C [0x03] Work_Zone[9] = 2390*
     0x0131 [0x03] Work_Zone_1700[0] = 150*
     0x0136 [0x03] Work_Zone_1700[1] = 2399*
     0x013B [0x03] Work_Zone_1700[2] = 200*
     0x0140 [0x24] CREATE_DIALOG(message_id=8496*, default_option=0*, option_flags=0*)
    → "Select an item. (Cruor balance: $0) [$1: $2/$3: $4/$5: $6/$7: $8/$9: $10/Never mind.]"
     0x0147 [0x25] WAIT_DIALOG_SELECT()
     0x0148 [0x02] IF !(Work_Zone[0] == 0*) GOTO 0x015C
     0x0150 [0x1D] PRINT_EVENT_MESSAGE(message_id=8497*)
    → "This item slightly recovers the pack chocobo's health."
     0x0153 [0x23] WAIT_FOR_DIALOG_INTERACTION
     0x0154 [0x03] ExtData[1]->WorkLocal[6] = 0*
     0x0159 [0x01] GOTO 0x01BA
     0x015C [0x02] IF !(Work_Zone[0] == 1*) GOTO 0x0170
     0x0164 [0x1D] PRINT_EVENT_MESSAGE(message_id=8498*)
    → "This item moderately recovers the pack chocobo's health."
     0x0167 [0x23] WAIT_FOR_DIALOG_INTERACTION
     0x0168 [0x03] ExtData[1]->WorkLocal[6] = 1*
     0x016D [0x01] GOTO 0x01BA
     0x0170 [0x02] IF !(Work_Zone[0] == 2*) GOTO 0x0184
     0x0178 [0x1D] PRINT_EVENT_MESSAGE(message_id=8499*)
    → "This item temporarily increases the pack chocobo's movement speed."
     0x017B [0x23] WAIT_FOR_DIALOG_INTERACTION
     0x017C [0x03] ExtData[1]->WorkLocal[6] = 2*
     0x0181 [0x01] GOTO 0x01BA
     0x0184 [0x02] IF !(Work_Zone[0] == 3*) GOTO 0x0198
     0x018C [0x1D] PRINT_EVENT_MESSAGE(message_id=8500*)
    → "This item temporarily improves the pack chocobo's hardiness."
     0x018F [0x23] WAIT_FOR_DIALOG_INTERACTION
     0x0190 [0x03] ExtData[1]->WorkLocal[6] = 3*
     0x0195 [0x01] GOTO 0x01BA
     0x0198 [0x02] IF !(Work_Zone[0] == 4*) GOTO 0x01AC
     0x01A0 [0x1D] PRINT_EVENT_MESSAGE(message_id=8501*)
    → "This item temporarily dampens the pack chocobo's sense of smell."
     0x01A3 [0x23] WAIT_FOR_DIALOG_INTERACTION
     0x01A4 [0x03] ExtData[1]->WorkLocal[6] = 4*
     0x01A9 [0x01] GOTO 0x01BA
     0x01AC [0x02] IF !(Work_Zone[0] == 5*) GOTO 0x01BA
     0x01B4 [0x06] ExtData[1]->WorkLocal[1] = 0
     0x01B7 [0x01] GOTO 0x01BA
     0x01BA [0x02] IF !(ExtData[1]->WorkLocal[1] == 0*) GOTO 0x02AB
     0x01C2 [0x03] Work_Zone[1] = 0*
     0x01C7 [0x48] [System] [8502*]:
    → "Please choose a quantity from one to twelve."
     0x01CA [0x40] SET_BIT_WORK_RANGE(start_bit=0*, end_bit=3*, target=Work_Zone[1], source=2*)
     0x01D3 [0x71] USER_INPUT_HANDLER: Open numerical input with params (work=[1*, 2*])
     0x01D9 [0x71] USER_INPUT_HANDLER: Process numerical input B (work=ExtData[1]->WorkLocal[3])
     0x01DD [0x02] IF !(ExtData[1]->WorkLocal[3] <= 0*) GOTO 0x02AB
     0x01E5 [0x02] IF !(ExtData[1]->WorkLocal[3] > 12*) GOTO 0x02AB
     0x01ED [0x03] ExtData[1]->WorkLocal[4] = ExtData[1]->WorkLocal[3]
     0x01F2 [0x02] IF !(ExtData[1]->WorkLocal[6] == 0*) GOTO 0x0207
     0x01FA [0x14] ExtData[1]->WorkLocal[4] *= 50*
     0x01FF [0x03] Work_Zone_1700[21] = 4545*
     0x0204 [0x01] GOTO 0x025B
     0x0207 [0x02] IF !(ExtData[1]->WorkLocal[6] == 1*) GOTO 0x021C
     0x020F [0x14] ExtData[1]->WorkLocal[4] *= 300*
     0x0214 [0x03] Work_Zone_1700[21] = 5606*
     0x0219 [0x01] GOTO 0x025B
     0x021C [0x02] IF !(ExtData[1]->WorkLocal[6] == 2*) GOTO 0x0231
     0x0224 [0x14] ExtData[1]->WorkLocal[4] *= 100*
     0x0229 [0x03] Work_Zone_1700[21] = 2389*
     0x022E [0x01] GOTO 0x025B
     0x0231 [0x02] IF !(ExtData[1]->WorkLocal[6] == 3*) GOTO 0x0246
     0x0239 [0x14] ExtData[1]->WorkLocal[4] *= 150*
     0x023E [0x03] Work_Zone_1700[21] = 2390*
     0x0243 [0x01] GOTO 0x025B
     0x0246 [0x02] IF !(ExtData[1]->WorkLocal[6] == 4*) GOTO 0x025B
     0x024E [0x14] ExtData[1]->WorkLocal[4] *= 200*
     0x0253 [0x03] Work_Zone_1700[21] = 2399*
     0x0258 [0x01] GOTO 0x025B
     0x025B [0x03] Work_Zone_1700[22] = ExtData[1]->WorkLocal[3]
     0x0260 [0x03] Work_Zone_1700[23] = ExtData[1]->WorkLocal[4]
     0x0265 [0x1D] PRINT_EVENT_MESSAGE(message_id=8503*)
    → "$30 $0 ... The total comes to $31 cruor. Will this be all right?"
     0x0268 [0x23] WAIT_FOR_DIALOG_INTERACTION
     0x0269 [0x24] CREATE_DIALOG(message_id=8504*, default_option=1*, option_flags=0*)
    → "Proceed with exchange? [Yes./No.]"
     0x0270 [0x25] WAIT_DIALOG_SELECT()
     0x0271 [0x02] IF !(Work_Zone[0] == 0*) GOTO 0x02A0
     0x0279 [0x40] SET_BIT_WORK_RANGE(start_bit=0*, end_bit=3*, target=Work_Zone[1], source=3*)
     0x0282 [0x40] SET_BIT_WORK_RANGE(start_bit=4*, end_bit=7*, target=Work_Zone[1], source=ExtData[1]->WorkLocal[6])
     0x028B [0x40] SET_BIT_WORK_RANGE(start_bit=8*, end_bit=11*, target=Work_Zone[1], source=ExtData[1]->WorkLocal[3])
     0x0294 [0x43] SEND_EVENT_UPDATE: Send pending tag to server (packet 0x005B)
     0x0296 [0x43] SEND_EVENT_UPDATE: Check pending flag (skip if not pending)
     0x0298 [0x03] ExtData[1]->WorkLocal[2] = Work_Zone[2]
     0x029D [0x01] GOTO 0x02AB
     0x02A0 [0x02] IF !(Work_Zone[0] == 1*) GOTO 0x02AB
     0x02A8 [0x01] GOTO 0x02AB
     0x02AB [0x01] GOTO 0x0101
     0x02AE [0x1B] RETURN
```
