# Event 65535

## Metadata

| Field           | Value    |
|-----------------|----------|
| Event Index     | 19/28    |
| Offset          | 0x0500   |
| Data Size       | 76 bytes |
| Calculated Size | 76 bytes |
| Instructions    | 8        |

```
      00 01 02 03 04 05 06 07  08 09 0A 0B 0C 0D 0E 0F
      -- -- -- -- -- -- -- --  -- -- -- -- -- -- -- --
0500: 06 08 10 55 75 80 F0 FF  FF 7F F0 FF FF 7F 79 30  ...Uu.........y0
0510: 35 32 52 75 80 F0 FF FF  7F F0 FF FF 7F 79 30 35  52Ru.........y05
0520: 32 27 10 1F E2 05 01 09  45 75 80 F0 FF FF 7F F0  2'......Eu......
0530: FF FF 7F 79 30 35 34 00  80 05 08 10 55 75 80 F0  ...y054.....Uu..
0540: FF FF 7F F0 FF FF 7F 79  30 35 34 00              .......y054.    
```

## Opcodes

```
  0: 0x0500 [0x06] Work_Zone[8] = 0
  1: 0x0503 [0x55] WAIT_LOAD_SCHEDULER(work_offset=533*, entity1=LocalPlayer, entity2=LocalPlayer, scheduler_id="y052")
  2: 0x0512 [0x52] END_LOAD_SCHEDULER: End scheduler "y052" with entities [LocalPlayer, LocalPlayer], work=533*
  3: 0x0521 [0x27] REQ_SET(priority=0x10, entity_id=03 (ID: 17162783/0x0105E21F), tag_num=0x09)
  4: 0x0528 [0x45] LOAD_SCHEDULED_TASK(work_offset1=533*, entity1=LocalPlayer, entity2=LocalPlayer, scheduler_id="y054", work_offset2=0*)
  5: 0x0539 [0x05] Work_Zone[8] = 1
  6: 0x053C [0x55] WAIT_LOAD_SCHEDULER(work_offset=533*, entity1=LocalPlayer, entity2=LocalPlayer, scheduler_id="y054")
  7: 0x054B [0x00] END_REQSTACK()
```
