# Event 65535

## Metadata

| Field           | Value    |
|-----------------|----------|
| Event Index     | 153/153  |
| Offset          | 0x09A8   |
| Data Size       | 53 bytes |
| Calculated Size | 53 bytes |
| Instructions    | 11       |

```
      00 01 02 03 04 05 06 07  08 09 0A 0B 0C 0D 0E 0F
      -- -- -- -- -- -- -- --  -- -- -- -- -- -- -- --
09A0:                          32 14 80 1F 00 2B 80 2C          2....+.,
09B0: 80 2D 80 1F 01 37 2E 80  2F 80 30 80 31 80 1F 00  .-...7../.0.1...
09C0: 32 80 33 80 2D 80 1F 01  1F 00 34 80 35 80 2D 80  2.3.-.....4.5.-.
09D0: 1F 01 1F 00 36 80 37 80  2D 80 1F 01 00           ....6.7.-....   
```

## Opcodes

```
  0: 0x09A8 [0x32] ExtData[1]->MainSpeed = 40* * 0.1
  1: 0x09AB [0x1F] MOVE_ENTITY: EventEntity moves to X=28.164*, Z=67.879*, Y=1.995*
  2: 0x09B3 [0x1F] MOVE_ENTITY: Update entity position (mode=1)
  3: 0x09B5 [0x37] UPDATE_EVENT_POSITION_AND_DIR: x=34.750*, z=67.097*, y=1.991*, direction=85.9°*
  4: 0x09BE [0x1F] MOVE_ENTITY: EventEntity moves to X=34.097*, Z=59.554*, Y=1.995*
  5: 0x09C6 [0x1F] MOVE_ENTITY: Update entity position (mode=1)
  6: 0x09C8 [0x1F] MOVE_ENTITY: EventEntity moves to X=29.081*, Z=59.800*, Y=1.995*
  7: 0x09D0 [0x1F] MOVE_ENTITY: Update entity position (mode=1)
  8: 0x09D2 [0x1F] MOVE_ENTITY: EventEntity moves to X=25.762*, Z=63.453*, Y=1.995*
  9: 0x09DA [0x1F] MOVE_ENTITY: Update entity position (mode=1)
 10: 0x09DC [0x00] END_REQSTACK()
```
