# Event 65535

## Metadata

| Field           | Value    |
|-----------------|----------|
| Event Index     | 152/153  |
| Offset          | 0x0960   |
| Data Size       | 72 bytes |
| Calculated Size | 72 bytes |
| Instructions    | 12       |

```
      00 01 02 03 04 05 06 07  08 09 0A 0B 0C 0D 0E 0F
      -- -- -- -- -- -- -- --  -- -- -- -- -- -- -- --
0960: 1C 23 80 32 14 80 1F 00  24 80 25 80 21 80 1F 01  .#.2....$.%.!...
0970: 1F 00 26 80 27 80 0B 80  1F 01 4B F8 FF FF 7F 28  ..&.'.....K....(
0980: 80 6F 76 F8 FF FF 7F 5B  1B 80 F8 FF FF 7F F8 FF  .ov....[........
0990: FF 7F 64 66 63 30 CD 29  80 F8 FF FF 7F F8 FF FF  ..dfc0.)........
09A0: 7F 6D 61 69 6E 2A 80 00                           .main*..        
```

## Opcodes

```
  0: 0x0960 [0x1C] WAIT(60* ticks)
  1: 0x0963 [0x32] ExtData[1]->MainSpeed = 40* * 0.1
  2: 0x0966 [0x1F] MOVE_ENTITY: EventEntity moves to X=12.801*, Z=70.446*, Y=1.999*
  3: 0x096E [0x1F] MOVE_ENTITY: Update entity position (mode=1)
  4: 0x0970 [0x1F] MOVE_ENTITY: EventEntity moves to X=14.875*, Z=66.764*, Y=2.000*
  5: 0x0978 [0x1F] MOVE_ENTITY: Update entity position (mode=1)
  6: 0x097A [0x4B] UPDATE_ENTITY_YAW(entity=EventEntity, yaw=22.47°*)
  7: 0x0981 [0x6F] WAIT_FRAME_DELAY: Yield until WaitTime reaches zero
  8: 0x0982 [0x76] CHECK_ENTITY_RENDER_FLAGS: Wait until EventEntity Render.Flags0 and Render.Flags3 conditions are met
  9: 0x0987 [0x5B] LOAD_EXT_SCHEDULER: Load scheduler "dfc0" with entities [EventEntity, EventEntity], work=431*
 10: 0x0996 [0xCD] LOAD_SCHEDULED_TASK_ALT4: Load scheduler "main" with entities [EventEntity, EventEntity], work=[178*, 0*]
 11: 0x09A7 [0x00] END_REQSTACK()
```
