# Event 65535

## Metadata

| Field           | Value    |
|-----------------|----------|
| Event Index     | 4/5      |
| Offset          | 0x000F   |
| Data Size       | 40 bytes |
| Calculated Size | 40 bytes |
| Instructions    | 10       |

```
      00 01 02 03 04 05 06 07  08 09 0A 0B 0C 0D 0E 0F
      -- -- -- -- -- -- -- --  -- -- -- -- -- -- -- --
0000:                                               32                 2
0010: 01 80 1F 00 02 80 03 80  04 80 1F 01 32 05 80 1F  ............2...
0020: 00 06 80 07 80 08 80 1F  01 6F 6E 27 C3 05 01 09  .........on'....
0030: 80 99 27 C3 05 01 00                              ..'....         
```

## Opcodes

```
  0: 0x000F [0x32] ExtData[1]->MainSpeed = 43* * 0.1
  1: 0x0012 [0x1F] MOVE_ENTITY: EventEntity moves to X=-212.366*, Z=64.753*, Y=1.000*
  2: 0x001A [0x1F] MOVE_ENTITY: Update entity position (mode=1)
  3: 0x001C [0x32] ExtData[1]->MainSpeed = 15* * 0.1
  4: 0x001F [0x1F] MOVE_ENTITY: EventEntity moves to X=-214.167*, Z=63.610*, Y=1.001*
  5: 0x0027 [0x1F] MOVE_ENTITY: Update entity position (mode=1)
  6: 0x0029 [0x6F] WAIT_FRAME_DELAY: Yield until WaitTime reaches zero
  7: 0x002A [0x6E] HeishiB (ID: 17154855/0x0105C327) uses emote 258*
  8: 0x0031 [0x99] Wait for HeishiB (ID: 17154855/0x0105C327) animation to complete
  9: 0x0036 [0x00] END_REQSTACK()
```
