# Event 65535

## Metadata

| Field           | Value    |
|-----------------|----------|
| Event Index     | 9/10     |
| Offset          | 0x00CB   |
| Data Size       | 90 bytes |
| Calculated Size | 90 bytes |
| Instructions    | 8        |

```
      00 01 02 03 04 05 06 07  08 09 0A 0B 0C 0D 0E 0F
      -- -- -- -- -- -- -- --  -- -- -- -- -- -- -- --
00C0:                                   45 04 80 F0 FF             E....
00D0: FF 7F F0 FF FF 7F 73 30  33 30 05 80 45 0B 80 F0  ......s030..E...
00E0: FF FF 7F F0 FF FF 7F 77  68 69 31 05 80 1C 0C 80  .......whi1.....
00F0: 52 04 80 F0 FF FF 7F F0  FF FF 7F 73 30 33 30 45  R..........s030E
0100: 07 80 F0 FF FF 7F F0 FF  FF 7F 6F 76 6C 31 05 80  ..........ovl1..
0110: 45 04 80 F0 FF FF 7F F0  FF FF 7F 73 30 34 35 05  E..........s045.
0120: 80 1C 09 80 00                                    .....           
```

## Opcodes

```
  0: 0x00CB [0x45] LOAD_SCHEDULED_TASK: Load scheduler "s030" with entities [LocalPlayer, LocalPlayer], work=[70*, 0*]
  1: 0x00DC [0x45] LOAD_SCHEDULED_TASK: Load scheduler "whi1" with entities [LocalPlayer, LocalPlayer], work=[201*, 0*]
  2: 0x00ED [0x1C] WAIT(150* ticks)
  3: 0x00F0 [0x52] END_LOAD_SCHEDULER: End scheduler "s030" with entities [LocalPlayer, LocalPlayer], work=70*
  4: 0x00FF [0x45] LOAD_SCHEDULED_TASK: Load scheduler "ovl1" with entities [LocalPlayer, LocalPlayer], work=[200*, 0*]
  5: 0x0110 [0x45] LOAD_SCHEDULED_TASK: Load scheduler "s045" with entities [LocalPlayer, LocalPlayer], work=[70*, 0*]
  6: 0x0121 [0x1C] WAIT(60* ticks)
  7: 0x0124 [0x00] END_REQSTACK()
```
