# Event 65535

## Metadata

| Field           | Value    |
|-----------------|----------|
| Event Index     | 7/10     |
| Offset          | 0x0059   |
| Data Size       | 73 bytes |
| Calculated Size | 73 bytes |
| Instructions    | 7        |

```
      00 01 02 03 04 05 06 07  08 09 0A 0B 0C 0D 0E 0F
      -- -- -- -- -- -- -- --  -- -- -- -- -- -- -- --
0050:                             45 04 80 F0 FF FF 7F           E......
0060: F0 FF FF 7F 73 30 33 36  05 80 1C 07 80 52 04 80  ....s036.....R..
0070: F0 FF FF 7F F0 FF FF 7F  73 30 33 36 45 07 80 F0  ........s036E...
0080: FF FF 7F F0 FF FF 7F 6F  76 6C 31 05 80 45 04 80  .......ovl1..E..
0090: F0 FF FF 7F F0 FF FF 7F  73 30 33 37 05 80 1C 09  ........s037....
00A0: 80 00                                             ..              
```

## Opcodes

```
  0: 0x0059 [0x45] LOAD_SCHEDULED_TASK(work_offset1=70*, entity1=LocalPlayer, entity2=LocalPlayer, scheduler_id="s036", work_offset2=0*)
  1: 0x006A [0x1C] WAIT(200* ticks)
  2: 0x006D [0x52] END_LOAD_SCHEDULER: End scheduler "s036" with entities [LocalPlayer, LocalPlayer], work=70*
  3: 0x007C [0x45] LOAD_SCHEDULED_TASK(work_offset1=200*, entity1=LocalPlayer, entity2=LocalPlayer, scheduler_id="ovl1", work_offset2=0*)
  4: 0x008D [0x45] LOAD_SCHEDULED_TASK(work_offset1=70*, entity1=LocalPlayer, entity2=LocalPlayer, scheduler_id="s037", work_offset2=0*)
  5: 0x009E [0x1C] WAIT(60* ticks)
  6: 0x00A1 [0x00] END_REQSTACK()
```
