# Event 161

## Metadata

| Field           | Value    |
|-----------------|----------|
| Event Index     | 4/77     |
| Offset          | 0x001F   |
| Data Size       | 42 bytes |
| Calculated Size | 42 bytes |
| Instructions    | 12       |

```
      00 01 02 03 04 05 06 07  08 09 0A 0B 0C 0D 0E 0F
      -- -- -- -- -- -- -- --  -- -- -- -- -- -- -- --
0010:                                               6E                 n
0020: D7 71 05 01 03 80 99 D7  71 05 01 1D 04 80 23 1E  .q......q.....#.
0030: F0 FF FF 7F 1C 00 80 6E  D7 71 05 01 05 80 99 D7  .......n.q......
0040: 71 05 01 1D 06 80 23 21  00                       q.....#!.       
```

## Opcodes

```
  0: 0x001F [0x6E] Gentle Tiger (ID: 17134039/0x010571D7) uses emote 19*
  1: 0x0026 [0x99] Wait for Gentle Tiger (ID: 17134039/0x010571D7) animation to complete
  2: 0x002B [0x1D] PRINT_EVENT_MESSAGE(message_id=11999*)
    → "They're going to do more than cut my pay for letting that informant slip through a security lockdown...\u007F1\u0000\u0007"
  3: 0x002E [0x23] WAIT_FOR_DIALOG_INTERACTION
  4: 0x002F [0x1E] EventEntity looks at LocalPlayer and starts talking
  5: 0x0034 [0x1C] WAIT(30* ticks)
  6: 0x0037 [0x6E] Gentle Tiger (ID: 17134039/0x010571D7) uses emote 0*
  7: 0x003E [0x99] Wait for Gentle Tiger (ID: 17134039/0x010571D7) animation to complete
  8: 0x0043 [0x1D] PRINT_EVENT_MESSAGE(message_id=12000*)
    → "You!\u0007Don't think you'll pass by me twice!\u007F1\u0000\u0007"
  9: 0x0046 [0x23] WAIT_FOR_DIALOG_INTERACTION
 10: 0x0047 [0x21] END_EVENT
 11: 0x0048 [0x00] END_REQSTACK()
```
