# Event 357

## Metadata

| Field           | Value    |
|-----------------|----------|
| Event Index     | 41/77    |
| Offset          | 0x0328   |
| Data Size       | 39 bytes |
| Calculated Size | 39 bytes |
| Instructions    | 11       |

```
      00 01 02 03 04 05 06 07  08 09 0A 0B 0C 0D 0E 0F
      -- -- -- -- -- -- -- --  -- -- -- -- -- -- -- --
0320:                          42 1E F0 FF FF 7F 1C 00          B.......
0330: 80 66 01 80 F8 FF FF 7F  F8 FF FF 7F 74 6C 6B 30  .f..........tlk0
0340: 03 02 10 26 80 1D 27 80  23 1D 28 80 23 21 00     ...&..'.#.(.#!. 
```

## Opcodes

```
  0: 0x0328 [0x42] SET_CLI_EVENT_CANCEL_DATA()
  1: 0x0329 [0x1E] EventEntity looks at LocalPlayer and starts talking
  2: 0x032E [0x1C] WAIT(30* ticks)
  3: 0x0331 [0x66] LOAD_EXT_SCHEDULER_MAIN: Load scheduler "tlk0" with entities [EventEntity, EventEntity], work=69*
  4: 0x0340 [0x03] Work_Zone[2] = 1172*
  5: 0x0345 [0x1D] PRINT_EVENT_MESSAGE(message_id=13509*)
    → "What!? You've lost your \u0001\u00053\u0002\u0000\u0000\u0000?\u0007I'd expected better of you, \u0008!\u007F1\u0000\u0007"
  6: 0x0348 [0x23] WAIT_FOR_DIALOG_INTERACTION
  7: 0x0349 [0x1D] PRINT_EVENT_MESSAGE(message_id=13510*)
    → "If it were me, sure, I'm dropping and fumbling things all the time--why do you think I'm still a doorman after all these years?--but you...\u0007Anyway, here's a spare copy for you. Try to hold on to this one!\u007F1\u0000\u0007"
  8: 0x034C [0x23] WAIT_FOR_DIALOG_INTERACTION
  9: 0x034D [0x21] END_EVENT
 10: 0x034E [0x00] END_REQSTACK()
```
