# Event 606

## Metadata

| Field           | Value    |
|-----------------|----------|
| Event Index     | 74/77    |
| Offset          | 0x053B   |
| Data Size       | 34 bytes |
| Calculated Size | 34 bytes |
| Instructions    | 8        |

```
      00 01 02 03 04 05 06 07  08 09 0A 0B 0C 0D 0E 0F
      -- -- -- -- -- -- -- --  -- -- -- -- -- -- -- --
0530:                                   1E F0 FF FF 7F             .....
0540: 1C 00 80 03 03 10 39 80  66 01 80 F8 FF FF 7F F8  ......9.f.......
0550: FF FF 7F 74 6C 6B 30 1D  3A 80 23 21 00           ...tlk0.:.#!.   
```

## Opcodes

```
  0: 0x053B [0x1E] EventEntity looks at LocalPlayer and starts talking
  1: 0x0540 [0x1C] WAIT(30* ticks)
  2: 0x0543 [0x03] Work_Zone[3] = 2510*
  3: 0x0548 [0x66] LOAD_EXT_SCHEDULER_MAIN(work_offset=69*, entity1=EventEntity, entity2=EventEntity, action="tlk0")
  4: 0x0557 [0x1D] PRINT_EVENT_MESSAGE(message_id=14768*)
    → "What's that little bundle you've got there?\u007F6\u0001\u0007\u007F\u0000\u0001\u0001\u00056\u0002\u0001\u0000\u0000? Never heard of it. Don't know, don't care.\u007F1\u0000\u0007"
  5: 0x055A [0x23] WAIT_FOR_DIALOG_INTERACTION
  6: 0x055B [0x21] END_EVENT
  7: 0x055C [0x00] END_REQSTACK()
```
