# 17588762 - Imutira

## Common Data

| Field            | Value                       |
|------------------|-----------------------------|
| Zone             | Maze of Shakhrami (ID: 198) |
| Block Size       | 1716 bytes                  |
| Total Events     | 6                           |
| References Count | 62                          |

## List of Events

| Event ID                 | Entrypoint   |   Size |   Instructions |
|--------------------------|--------------|--------|----------------|
| [65535](#event-65535)    | 0x0000       |      1 |              1 |
| [66](#event-66)          | 0x0001       |   1369 |            196 |
| [65535.1](#event-655351) | 0x055A       |     10 |              2 |
| [65535.2](#event-655352) | 0x0564       |     19 |              5 |
| [65535.3](#event-655353) | 0x0577       |     14 |              4 |
| [65535.4](#event-655354) | 0x0585       |     14 |              4 |

## DAT References (imed_data)

|   Index | Hex Value   |   Dec Value |
|---------|-------------|-------------|
|       0 | 0x00C8      |         200 |
|       1 | 0x0000      |           0 |
|       2 | 0x0013      |          19 |
|       3 | 0x0351      |         849 |
|       4 | 0x00AC      |         172 |
|       5 | 0x001E      |          30 |
|       6 | 0x011B      |         283 |
|       7 | 0x012C      |         300 |
|       8 | 0x0190      |         400 |
|       9 | 0x1C9B      |        7323 |
|      10 | 0x003C      |          60 |
|      11 | 0x1C9C      |        7324 |
|      12 | 0x1C9D      |        7325 |
|      13 | 0x1C9E      |        7326 |
|      14 | 0x1C9F      |        7327 |
|      15 | 0x1CA0      |        7328 |
|      16 | 0x1CA1      |        7329 |
|      17 | 0x1CA2      |        7330 |
|      18 | 0x0001      |           1 |
|      19 | 0x1CA3      |        7331 |
|      20 | 0x002D      |          45 |
|      21 | 0x1CA4      |        7332 |
|      22 | 0x1CA5      |        7333 |
|      23 | 0x1CA6      |        7334 |
|      24 | 0x1CA7      |        7335 |
|      25 | 0x1CA8      |        7336 |
|      26 | 0x1CA9      |        7337 |
|      27 | 0x1CAA      |        7338 |
|      28 | 0x1CAB      |        7339 |
|      29 | 0x1CAC      |        7340 |
|      30 | 0x1CAD      |        7341 |
|      31 | 0x1CAF      |        7343 |
|      32 | 0x00B4      |         180 |
|      33 | 0x1CAE      |        7342 |
|      34 | 0x1CB0      |        7344 |
|      35 | 0x1CB1      |        7345 |
|      36 | 0x1CB2      |        7346 |
|      37 | 0x1CB3      |        7347 |
|      38 | 0x1CB4      |        7348 |
|      39 | 0x1CB5      |        7349 |
|      40 | 0x1CB6      |        7350 |
|      41 | 0x1CB7      |        7351 |
|      42 | 0x1CB8      |        7352 |
|      43 | 0x0078      |         120 |
|      44 | 0x1CB9      |        7353 |
|      45 | 0x005A      |          90 |
|      46 | 0x1CBA      |        7354 |
|      47 | 0x007F      |         127 |
|      48 | 0x3E0B1     |      254129 |
|      49 | 0xFFFDCF99  |  4294823833 |
|      50 | 0x4E17      |       19991 |
|      51 | 0x0E93      |        3731 |
|      52 | 0x000D      |          13 |
|      53 | 0x3F4CD     |      259277 |
|      54 | 0xFFFDD2C5  |  4294824645 |
|      55 | 0x4E4C      |       20044 |
|      56 | 0x402B4     |      262836 |
|      57 | 0xFFFDD865  |  4294826085 |
|      58 | 0x4C92      |       19602 |
|      59 | 0x3F296     |      258710 |
|      60 | 0xFFFDD20B  |  4294824459 |
|      61 | 0x4E46      |       20038 |

## String References

- **7330**: Tell her you're a... [Member of the Seagull Phratrie./Regular adventurer.]
- **7341**: Agree to tell Qultada? [I promise to tell him./What a pain...]

## Events

### Event 65535

#### Metadata

| Field        | Value   |
|--------------|---------|
| Entrypoint   | 0x0000  |
| Data Size    | 1 bytes |
| Instructions | 1       |

```
      00 01 02 03 04 05 06 07  08 09 0A 0B 0C 0D 0E 0F
      -- -- -- -- -- -- -- --  -- -- -- -- -- -- -- --
0000: 00                                                .               
```

#### Opcodes

```
  0: 0x0000 [0x00] END_REQSTACK()
```

### Event 66

#### Metadata

| Field        | Value      |
|--------------|------------|
| Entrypoint   | 0x0001     |
| Data Size    | 1369 bytes |
| Instructions | 194        |

```
      00 01 02 03 04 05 06 07  08 09 0A 0B 0C 0D 0E 0F
      -- -- -- -- -- -- -- --  -- -- -- -- -- -- -- --
0000:    42 45 00 80 F8 FF FF  7F F8 FF FF 7F 66 64 6F   BE..........fdo
0010: 31 01 80 55 00 80 F8 FF  FF 7F F8 FF FF 7F 66 64  1..U..........fd
0020: 6F 31 46 01 38 02 80 29  10 1A 62 0C 01 02 29 10  o1F.8..)..b...).
0030: 1B 62 0C 01 02 29 10 1C  62 0C 01 02 29 10 F0 FF  .b...)..b...)...
0040: FF 7F 0E 92 01 1A 62 0C  01 92 01 1B 62 0C 01 92  ......b.....b...
0050: 01 1C 62 0C 01 2F 00 1B  62 0C 01 2F 00 1C 62 0C  ..b../..b../..b.
0060: 01 2F 00 1A 62 0C 01 80  F0 FF FF 7F 80 1A 62 0C  ./..b.........b.
0070: 01 80 1B 62 0C 01 80 1C  62 0C 01 29 10 F0 FF FF  ...b....b..)....
0080: 7F 12 03 03 10 03 80 5C  00 04 80 5C 01 04 80 9A  .......\...\....
0090: 1C 05 80 45 06 80 F0 FF  FF 7F F0 FF FF 7F 79 30  ...E..........y0
00A0: 30 30 01 80 45 00 80 F8  FF FF 7F F8 FF FF 7F 66  00..E..........f
00B0: 64 69 31 01 80 27 10 F0  FF FF 7F 0F 1C 07 80 52  di1..'.........R
00C0: 06 80 F0 FF FF 7F F0 FF  FF 7F 79 30 30 30 4E 00  ..........y000N.
00D0: 1A 62 0C 01 45 06 80 F0  FF FF 7F F0 FF FF 7F 79  .b..E..........y
00E0: 30 30 31 01 80 1C 08 80  27 10 1A 62 0C 01 03 2B  001.....'..b...+
00F0: 1A 62 0C 01 09 80 23 1C  05 80 4A F0 FF FF 7F 1A  .b....#...J.....
0100: 62 0C 01 1C 0A 80 52 06  80 F0 FF FF 7F F0 FF FF  b.....R.........
0110: 7F 79 30 30 31 45 06 80  F0 FF FF 7F F0 FF FF 7F  .y001E..........
0120: 79 30 30 32 01 80 66 02  80 F8 FF FF 7F F8 FF FF  y002..f.........
0130: 7F 74 6C 6B 30 2B 1A 62  0C 01 0B 80 23 1C 0A 80  .tlk0+.b....#...
0140: 2B 1A 62 0C 01 0C 80 23  66 02 80 F8 FF FF 7F F8  +.b....#f.......
0150: FF FF 7F 74 6C 6B 31 1C  05 80 52 06 80 F0 FF FF  ...tlk1...R.....
0160: 7F F0 FF FF 7F 79 30 30  32 45 06 80 F0 FF FF 7F  .....y002E......
0170: F0 FF FF 7F 79 30 30 33  01 80 2B 1A 62 0C 01 0D  ....y003..+.b...
0180: 80 23 1C 0A 80 2B 1A 62  0C 01 0E 80 23 52 06 80  .#...+.b....#R..
0190: F0 FF FF 7F F0 FF FF 7F  79 30 30 33 45 06 80 F0  ........y003E...
01A0: FF FF 7F F0 FF FF 7F 79  30 30 34 01 80 1C 0A 80  .......y004.....
01B0: 2B 1A 62 0C 01 0F 80 23  1C 0A 80 2B 1A 62 0C 01  +.b....#...+.b..
01C0: 10 80 23 24 11 80 01 80  01 80 25 02 00 10 01 80  ..#$......%.....
01D0: 00 D9 01 1C 05 80 01 EF  01 02 00 10 12 80 00 EF  ................
01E0: 01 2B 1A 62 0C 01 13 80  23 01 C3 01 01 EF 01 45  .+.b....#......E
01F0: 00 80 F8 FF FF 7F F8 FF  FF 7F 6F 76 6C 32 01 80  ..........ovl2..
0200: 52 06 80 F0 FF FF 7F F0  FF FF 7F 79 30 30 34 45  R..........y004E
0210: 06 80 F0 FF FF 7F F0 FF  FF 7F 79 30 30 35 01 80  ..........y005..
0220: 1C 14 80 2B 1A 62 0C 01  15 80 23 27 10 F0 FF FF  ...+.b....#'....
0230: 7F 10 1C 05 80 2B 1A 62  0C 01 16 80 23 2B 1A 62  .....+.b....#+.b
0240: 0C 01 17 80 23 1C 14 80  2B 1A 62 0C 01 18 80 23  ....#...+.b....#
0250: 1C 05 80 52 06 80 F0 FF  FF 7F F0 FF FF 7F 79 30  ...R..........y0
0260: 30 35 45 06 80 F0 FF FF  7F F0 FF FF 7F 79 30 30  05E..........y00
0270: 36 01 80 1C 05 80 2B 1A  62 0C 01 19 80 23 27 10  6.....+.b....#'.
0280: 1A 62 0C 01 04 1C 0A 80  2B 1A 62 0C 01 1A 80 23  .b......+.b....#
0290: 2B 1A 62 0C 01 1B 80 23  1C 0A 80 4A 1A 62 0C 01  +.b....#...J.b..
02A0: F0 FF FF 7F 2B 1A 62 0C  01 1C 80 23 52 06 80 F0  ....+.b....#R...
02B0: FF FF 7F F0 FF FF 7F 79  30 30 36 45 06 80 F0 FF  .......y006E....
02C0: FF 7F F0 FF FF 7F 79 30  30 37 01 80 4A F0 FF FF  ......y007..J...
02D0: 7F 1A 62 0C 01 66 02 80  F8 FF FF 7F F8 FF FF 7F  ..b..f..........
02E0: 74 6C 6B 30 2B 1A 62 0C  01 1D 80 23 66 02 80 F8  tlk0+.b....#f...
02F0: FF FF 7F F8 FF FF 7F 74  6C 6B 31 24 1E 80 01 80  .......tlk1$....
0300: 01 80 25 02 00 10 01 80  00 72 03 52 06 80 F0 FF  ..%......r.R....
0310: FF 7F F0 FF FF 7F 79 30  30 37 45 06 80 F0 FF FF  ......y007E.....
0320: 7F F0 FF FF 7F 79 30 30  38 01 80 1C 0A 80 2B 1A  .....y008.....+.
0330: 62 0C 01 1F 80 23 27 10  F0 FF FF 7F 11 1C 20 80  b....#'....... .
0340: 45 00 80 F8 FF FF 7F F8  FF FF 7F 66 64 6F 31 01  E..........fdo1.
0350: 80 55 00 80 F8 FF FF 7F  F8 FF FF 7F 66 64 6F 31  .U..........fdo1
0360: 52 06 80 F0 FF FF 7F F0  FF FF 7F 79 30 30 38 01  R..........y008.
0370: 88 03 02 00 10 12 80 00  88 03 2B 1A 62 0C 01 21  ..........+.b..!
0380: 80 23 01 FB 02 01 88 03  4E 00 1B 62 0C 01 4E 00  .#......N..b..N.
0390: 1C 62 0C 01 45 06 80 F0  FF FF 7F F0 FF FF 7F 79  .b..E..........y
03A0: 30 30 39 01 80 45 00 80  F8 FF FF 7F F8 FF FF 7F  009..E..........
03B0: 66 64 69 31 01 80 1C 0A  80 2B 1B 62 0C 01 22 80  fdi1.....+.b..".
03C0: 23 27 10 1A 62 0C 01 05  2B 1A 62 0C 01 23 80 23  #'..b...+.b..#.#
03D0: 27 10 1B 62 0C 01 03 2B  1B 62 0C 01 24 80 23 1C  '..b...+.b..$.#.
03E0: 0A 80 52 06 80 F0 FF FF  7F F0 FF FF 7F 79 30 30  ..R..........y00
03F0: 39 45 06 80 F0 FF FF 7F  F0 FF FF 7F 79 30 31 30  9E..........y010
0400: 01 80 1C 0A 80 2B 1A 62  0C 01 25 80 23 1C 0A 80  .....+.b..%.#...
0410: 2B 1B 62 0C 01 26 80 23  1C 05 80 2B 1A 62 0C 01  +.b..&.#...+.b..
0420: 27 80 23 1C 05 80 52 06  80 F0 FF FF 7F F0 FF FF  '.#...R.........
0430: 7F 79 30 31 30 45 06 80  F0 FF FF 7F F0 FF FF 7F  .y010E..........
0440: 79 30 31 31 01 80 1C 0A  80 2B 1B 62 0C 01 28 80  y011.....+.b..(.
0450: 23 52 06 80 F0 FF FF 7F  F0 FF FF 7F 79 30 31 31  #R..........y011
0460: 45 06 80 F0 FF FF 7F F0  FF FF 7F 79 30 31 32 01  E..........y012.
0470: 80 2B 1A 62 0C 01 29 80  23 2B 1B 62 0C 01 2A 80  .+.b..).#+.b..*.
0480: 23 4A 1B 62 0C 01 1C 62  0C 01 1C 0A 80 45 00 80  #J.b...b.....E..
0490: F8 FF FF 7F F8 FF FF 7F  6F 76 6C 32 01 80 52 06  ........ovl2..R.
04A0: 80 F0 FF FF 7F F0 FF FF  7F 79 30 31 32 45 06 80  .........y012E..
04B0: F0 FF FF 7F F0 FF FF 7F  79 30 31 34 01 80 1C 2B  ........y014...+
04C0: 80 52 06 80 F0 FF FF 7F  F0 FF FF 7F 79 30 31 34  .R..........y014
04D0: 45 06 80 F0 FF FF 7F F0  FF FF 7F 79 30 31 33 01  E..........y013.
04E0: 80 1C 0A 80 2B 1B 62 0C  01 2C 80 23 27 10 1B 62  ....+.b..,.#'..b
04F0: 0C 01 04 1C 2D 80 2B 1A  62 0C 01 2E 80 5D 01 80  ....-.+.b....]..
0500: 2B 80 1C 2B 80 45 00 80  F8 FF FF 7F F8 FF FF 7F  +..+.E..........
0510: 66 64 6F 31 01 80 55 00  80 F8 FF FF 7F F8 FF FF  fdo1..U.........
0520: 7F 66 64 6F 31 1C 05 80  5C 00 01 80 5C 01 01 80  .fdo1...\...\...
0530: 9A 5D 01 80 2F 80 52 06  80 F0 FF FF 7F F0 FF FF  .]../.R.........
0540: 7F 79 30 31 33 46 00 45  00 80 F8 FF FF 7F F8 FF  .y013F.E........
0550: FF 7F 66 64 69 31 01 80  21 00                    ..fdi1..!.      
```

#### Opcodes

```
  0: 0x0001 [0x42] SET_CLI_EVENT_CANCEL_DATA()
  1: 0x0002 [0x45] LOAD_SCHEDULED_TASK: Load scheduler "fdo1" with entities [EventEntity, EventEntity], work=[200*, 0*]
  2: 0x0013 [0x55] WAIT_LOAD_SCHEDULER: Wait for scheduler "fdo1" with entities [EventEntity, EventEntity], work=200*
  3: 0x0022 [0x46] CAMERA_CONTROL: Disable user control
  4: 0x0024 [0x38] SET_CLIENT_EVENT_MODE(mode=19*)
  5: 0x0027 [0x29] REQ_SET_WAIT(priority=0x10, entity_id=Imutira (ID: 17588762/0x010C621A), tag_num=0x02)
  6: 0x002E [0x29] REQ_SET_WAIT(priority=0x10, entity_id=Yazquhl (ID: 17588763/0x010C621B), tag_num=0x02)
  7: 0x0035 [0x29] REQ_SET_WAIT(priority=0x10, entity_id=Gowam (ID: 17588764/0x010C621C), tag_num=0x02)
  8: 0x003C [0x29] REQ_SET_WAIT(priority=0x10, entity_id=LocalPlayer, tag_num=0x0E)
  9: 0x0043 [0x92] Imutira (ID: 17588762/0x010C621A)->Render.Flags3 ^= 0x01
 10: 0x0049 [0x92] Yazquhl (ID: 17588763/0x010C621B)->Render.Flags3 ^= 0x01
 11: 0x004F [0x92] Gowam (ID: 17588764/0x010C621C)->Render.Flags3 ^= 0x01
 12: 0x0055 [0x2F] Yazquhl (ID: 17588763/0x010C621B)->Render.Flags0 &= ~0x80000 // Bit 19
 13: 0x005B [0x2F] Gowam (ID: 17588764/0x010C621C)->Render.Flags0 &= ~0x80000 // Bit 19
 14: 0x0061 [0x2F] Imutira (ID: 17588762/0x010C621A)->Render.Flags0 &= ~0x80000 // Bit 19
 15: 0x0067 [0x80] LOAD_WAIT(entity=LocalPlayer)
 16: 0x006C [0x80] LOAD_WAIT(entity=Imutira (ID: 17588762/0x010C621A))
 17: 0x0071 [0x80] LOAD_WAIT(entity=Yazquhl (ID: 17588763/0x010C621B))
 18: 0x0076 [0x80] LOAD_WAIT(entity=Gowam (ID: 17588764/0x010C621C))
 19: 0x007B [0x29] REQ_SET_WAIT(priority=0x10, entity_id=LocalPlayer, tag_num=0x12)
 20: 0x0082 [0x03] Work_Zone[3] = 849*
 21: 0x0087 [0x5C] MUSIC_CONTROL: Set Idle (Day) music to song 172*
 22: 0x008B [0x5C] MUSIC_CONTROL: Set Idle (Night) music to song 172*
 23: 0x008F [0x9A] WAIT_MUSIC_SERVER()
 24: 0x0090 [0x1C] WAIT(30* ticks)
 25: 0x0093 [0x45] LOAD_SCHEDULED_TASK: Load scheduler "y000" with entities [LocalPlayer, LocalPlayer], work=[283*, 0*]
 26: 0x00A4 [0x45] LOAD_SCHEDULED_TASK: Load scheduler "fdi1" with entities [EventEntity, EventEntity], work=[200*, 0*]
 27: 0x00B5 [0x27] REQ_SET(priority=0x10, entity_id=LocalPlayer, tag_num=0x0F)
 28: 0x00BC [0x1C] WAIT(300* ticks)
 29: 0x00BF [0x52] END_LOAD_SCHEDULER: End scheduler "y000" with entities [LocalPlayer, LocalPlayer], work=283*
 30: 0x00CE [0x4E] SET_ENTITY_HIDE_FLAG: Show Imutira (ID: 17588762/0x010C621A)
 31: 0x00D4 [0x45] LOAD_SCHEDULED_TASK: Load scheduler "y001" with entities [LocalPlayer, LocalPlayer], work=[283*, 0*]
 32: 0x00E5 [0x1C] WAIT(400* ticks)
 33: 0x00E8 [0x27] REQ_SET(priority=0x10, entity_id=Imutira (ID: 17588762/0x010C621A), tag_num=0x03)
 34: 0x00EF [0x2B] Imutira (ID: 17588762/0x010C621A) [7323*]:
    → "Amazing..."
 35: 0x00F6 [0x23] WAIT_FOR_DIALOG_INTERACTION
 36: 0x00F7 [0x1C] WAIT(30* ticks)
 37: 0x00FA [0x4A] LocalPlayer looks at Imutira (ID: 17588762/0x010C621A)
 38: 0x0103 [0x1C] WAIT(60* ticks)
 39: 0x0106 [0x52] END_LOAD_SCHEDULER: End scheduler "y001" with entities [LocalPlayer, LocalPlayer], work=283*
 40: 0x0115 [0x45] LOAD_SCHEDULED_TASK: Load scheduler "y002" with entities [LocalPlayer, LocalPlayer], work=[283*, 0*]
 41: 0x0126 [0x66] LOAD_EXT_SCHEDULER_MAIN: Load scheduler "tlk0" with entities [EventEntity, EventEntity], work=19*
 42: 0x0135 [0x2B] Imutira (ID: 17588762/0x010C621A) [7324*]:
    → "I couldn't keep my eyes off the fight. You were incredible!"
 43: 0x013C [0x23] WAIT_FOR_DIALOG_INTERACTION
 44: 0x013D [0x1C] WAIT(60* ticks)
 45: 0x0140 [0x2B] Imutira (ID: 17588762/0x010C621A) [7325*]:
    → "That monster was keeping me from going home, but you solved that problem for me."
 46: 0x0147 [0x23] WAIT_FOR_DIALOG_INTERACTION
 47: 0x0148 [0x66] LOAD_EXT_SCHEDULER_MAIN: Load scheduler "tlk1" with entities [EventEntity, EventEntity], work=19*
 48: 0x0157 [0x1C] WAIT(30* ticks)
 49: 0x015A [0x52] END_LOAD_SCHEDULER: End scheduler "y002" with entities [LocalPlayer, LocalPlayer], work=283*
 50: 0x0169 [0x45] LOAD_SCHEDULED_TASK: Load scheduler "y003" with entities [LocalPlayer, LocalPlayer], work=[283*, 0*]
 51: 0x017A [0x2B] Imutira (ID: 17588762/0x010C621A) [7326*]:
    → "Anyway, what are you here for?"
 52: 0x0181 [0x23] WAIT_FOR_DIALOG_INTERACTION
 53: 0x0182 [0x1C] WAIT(60* ticks)
 54: 0x0185 [0x2B] Imutira (ID: 17588762/0x010C621A) [7327*]:
    → "You're searching for $6?"
 55: 0x018C [0x23] WAIT_FOR_DIALOG_INTERACTION
 56: 0x018D [0x52] END_LOAD_SCHEDULER: End scheduler "y003" with entities [LocalPlayer, LocalPlayer], work=283*
 57: 0x019C [0x45] LOAD_SCHEDULED_TASK: Load scheduler "y004" with entities [LocalPlayer, LocalPlayer], work=[283*, 0*]
 58: 0x01AD [0x1C] WAIT(60* ticks)
 59: 0x01B0 [0x2B] Imutira (ID: 17588762/0x010C621A) [7328*]:
    → "Oh... I've already..."
 60: 0x01B7 [0x23] WAIT_FOR_DIALOG_INTERACTION
 61: 0x01B8 [0x1C] WAIT(60* ticks)
 62: 0x01BB [0x2B] Imutira (ID: 17588762/0x010C621A) [7329*]:
    → "But wait... That's odd. To be looking for such an item, you must be..."
 63: 0x01C2 [0x23] WAIT_FOR_DIALOG_INTERACTION
 64: 0x01C3 [0x24] CREATE_DIALOG(message_id=7330*, default_option=0*, option_flags=0*)
    → "Tell her you're a... [Member of the Seagull Phratrie./Regular adventurer.]"
 65: 0x01CA [0x25] WAIT_DIALOG_SELECT()
 66: 0x01CB [0x02] IF !(Work_Zone[0] == 0*) GOTO 0x01D9
 67: 0x01D3 [0x1C] WAIT(30* ticks)
 68: 0x01D6 [0x01] GOTO 0x01EF
 69: 0x01D9 [0x02] IF !(Work_Zone[0] == 1*) GOTO 0x01EF
 70: 0x01E1 [0x2B] Imutira (ID: 17588762/0x010C621A) [7331*]:
    → "Oh really? Nice try, but you can't fool me that easily."
 71: 0x01E8 [0x23] WAIT_FOR_DIALOG_INTERACTION
 72: 0x01E9 [0x01] GOTO 0x01C3

SUBROUTINE_01EF:
 73: 0x01EF [0x45] LOAD_SCHEDULED_TASK: Load scheduler "ovl2" with entities [EventEntity, EventEntity], work=[200*, 0*]
 74: 0x0200 [0x52] END_LOAD_SCHEDULER: End scheduler "y004" with entities [LocalPlayer, LocalPlayer], work=283*
 75: 0x020F [0x45] LOAD_SCHEDULED_TASK: Load scheduler "y005" with entities [LocalPlayer, LocalPlayer], work=[283*, 0*]
 76: 0x0220 [0x1C] WAIT(45* ticks)
 77: 0x0223 [0x2B] Imutira (ID: 17588762/0x010C621A) [7332*]:
    → "I knew it."
 78: 0x022A [0x23] WAIT_FOR_DIALOG_INTERACTION
 79: 0x022B [0x27] REQ_SET(priority=0x10, entity_id=LocalPlayer, tag_num=0x10)
 80: 0x0232 [0x1C] WAIT(30* ticks)
 81: 0x0235 [0x2B] Imutira (ID: 17588762/0x010C621A) [7333*]:
    → "For you to come all this way for such a thing, you'd have to either be part of the Seagull Phratrie or more adventurous than anyone I've ever met."
 82: 0x023C [0x23] WAIT_FOR_DIALOG_INTERACTION
 83: 0x023D [0x2B] Imutira (ID: 17588762/0x010C621A) [7334*]:
    → "Actually... I've been hiding something myself."
 84: 0x0244 [0x23] WAIT_FOR_DIALOG_INTERACTION
 85: 0x0245 [0x1C] WAIT(45* ticks)
 86: 0x0248 [0x2B] Imutira (ID: 17588762/0x010C621A) [7335*]:
    → "I never imagined I would meet a member of the Seagull Phratrie here in the West..."
 87: 0x024F [0x23] WAIT_FOR_DIALOG_INTERACTION
 88: 0x0250 [0x1C] WAIT(30* ticks)
 89: 0x0253 [0x52] END_LOAD_SCHEDULER: End scheduler "y005" with entities [LocalPlayer, LocalPlayer], work=283*
 90: 0x0262 [0x45] LOAD_SCHEDULED_TASK: Load scheduler "y006" with entities [LocalPlayer, LocalPlayer], work=[283*, 0*]
 91: 0x0273 [0x1C] WAIT(30* ticks)
 92: 0x0276 [0x2B] Imutira (ID: 17588762/0x010C621A) [7336*]:
    → "How is everyone doing...Captain Qultada, Zweeha, and the rest of the crew?"
 93: 0x027D [0x23] WAIT_FOR_DIALOG_INTERACTION
 94: 0x027E [0x27] REQ_SET(priority=0x10, entity_id=Imutira (ID: 17588762/0x010C621A), tag_num=0x04)
 95: 0x0285 [0x1C] WAIT(60* ticks)
 96: 0x0288 [0x2B] Imutira (ID: 17588762/0x010C621A) [7337*]:
    → "You want to know why I know so much about the Phratrie, do you? Heh, I have my ways."
 97: 0x028F [0x23] WAIT_FOR_DIALOG_INTERACTION
 98: 0x0290 [0x2B] Imutira (ID: 17588762/0x010C621A) [7338*]:
    → "Anyway, this must mean that they've resumed activities..."
 99: 0x0297 [0x23] WAIT_FOR_DIALOG_INTERACTION
100: 0x0298 [0x1C] WAIT(60* ticks)
101: 0x029B [0x4A] Imutira (ID: 17588762/0x010C621A) looks at LocalPlayer
102: 0x02A4 [0x2B] Imutira (ID: 17588762/0x010C621A) [7339*]:
    → "Oh yes... I went through a lot to find this $3, but I'll give it to you as thanks for helping me get out of here. Besides, the Seagull Phratrie and I go back quite a ways..."
103: 0x02AB [0x23] WAIT_FOR_DIALOG_INTERACTION
104: 0x02AC [0x52] END_LOAD_SCHEDULER: End scheduler "y006" with entities [LocalPlayer, LocalPlayer], work=283*
105: 0x02BB [0x45] LOAD_SCHEDULED_TASK: Load scheduler "y007" with entities [LocalPlayer, LocalPlayer], work=[283*, 0*]
106: 0x02CC [0x4A] LocalPlayer looks at Imutira (ID: 17588762/0x010C621A)
107: 0x02D5 [0x66] LOAD_EXT_SCHEDULER_MAIN: Load scheduler "tlk0" with entities [EventEntity, EventEntity], work=19*
108: 0x02E4 [0x2B] Imutira (ID: 17588762/0x010C621A) [7340*]:
    → "When you go back, could you tell Captain Qultada that his friend Imutira said hi?"
109: 0x02EB [0x23] WAIT_FOR_DIALOG_INTERACTION
110: 0x02EC [0x66] LOAD_EXT_SCHEDULER_MAIN: Load scheduler "tlk1" with entities [EventEntity, EventEntity], work=19*

SUBROUTINE_02FB:
111: 0x02FB [0x24] CREATE_DIALOG(message_id=7341*, default_option=0*, option_flags=0*)
    → "Agree to tell Qultada? [I promise to tell him./What a pain...]"
112: 0x0302 [0x25] WAIT_DIALOG_SELECT()
113: 0x0303 [0x02] IF !(Work_Zone[0] == 0*) GOTO 0x0372
114: 0x030B [0x52] END_LOAD_SCHEDULER: End scheduler "y007" with entities [LocalPlayer, LocalPlayer], work=283*
115: 0x031A [0x45] LOAD_SCHEDULED_TASK: Load scheduler "y008" with entities [LocalPlayer, LocalPlayer], work=[283*, 0*]
116: 0x032B [0x1C] WAIT(60* ticks)
117: 0x032E [0x2B] Imutira (ID: 17588762/0x010C621A) [7343*]:
    → "Thank you. Perhaps the tides of fate will bring us together again...so until then."
118: 0x0335 [0x23] WAIT_FOR_DIALOG_INTERACTION
119: 0x0336 [0x27] REQ_SET(priority=0x10, entity_id=LocalPlayer, tag_num=0x11)
120: 0x033D [0x1C] WAIT(180* ticks)
121: 0x0340 [0x45] LOAD_SCHEDULED_TASK: Load scheduler "fdo1" with entities [EventEntity, EventEntity], work=[200*, 0*]
122: 0x0351 [0x55] WAIT_LOAD_SCHEDULER: Wait for scheduler "fdo1" with entities [EventEntity, EventEntity], work=200*
123: 0x0360 [0x52] END_LOAD_SCHEDULER: End scheduler "y008" with entities [LocalPlayer, LocalPlayer], work=283*
124: 0x036F [0x01] GOTO 0x0388
125: 0x0372 [0x02] IF !(Work_Zone[0] == 1*) GOTO 0x0388
126: 0x037A [0x2B] Imutira (ID: 17588762/0x010C621A) [7342*]:
    → "Don't say that... I'm just asking a small favor!"
127: 0x0381 [0x23] WAIT_FOR_DIALOG_INTERACTION
128: 0x0382 [0x01] GOTO 0x02FB

SUBROUTINE_0388:
129: 0x0388 [0x4E] SET_ENTITY_HIDE_FLAG: Show Yazquhl (ID: 17588763/0x010C621B)
130: 0x038E [0x4E] SET_ENTITY_HIDE_FLAG: Show Gowam (ID: 17588764/0x010C621C)
131: 0x0394 [0x45] LOAD_SCHEDULED_TASK: Load scheduler "y009" with entities [LocalPlayer, LocalPlayer], work=[283*, 0*]
132: 0x03A5 [0x45] LOAD_SCHEDULED_TASK: Load scheduler "fdi1" with entities [EventEntity, EventEntity], work=[200*, 0*]
133: 0x03B6 [0x1C] WAIT(60* ticks)
134: 0x03B9 [0x2B] Yazquhl (ID: 17588763/0x010C621B) [7344*]:
    → "Homesick?"
135: 0x03C0 [0x23] WAIT_FOR_DIALOG_INTERACTION
136: 0x03C1 [0x27] REQ_SET(priority=0x10, entity_id=Imutira (ID: 17588762/0x010C621A), tag_num=0x05)
137: 0x03C8 [0x2B] Imutira (ID: 17588762/0x010C621A) [7345*]:
    → "Spare me. I may have a decent lead, though."
138: 0x03CF [0x23] WAIT_FOR_DIALOG_INTERACTION
139: 0x03D0 [0x27] REQ_SET(priority=0x10, entity_id=Yazquhl (ID: 17588763/0x010C621B), tag_num=0x03)
140: 0x03D7 [0x2B] Yazquhl (ID: 17588763/0x010C621B) [7346*]:
    → "Well, well..."
141: 0x03DE [0x23] WAIT_FOR_DIALOG_INTERACTION
142: 0x03DF [0x1C] WAIT(60* ticks)
143: 0x03E2 [0x52] END_LOAD_SCHEDULER: End scheduler "y009" with entities [LocalPlayer, LocalPlayer], work=283*
144: 0x03F1 [0x45] LOAD_SCHEDULED_TASK: Load scheduler "y010" with entities [LocalPlayer, LocalPlayer], work=[283*, 0*]
145: 0x0402 [0x1C] WAIT(60* ticks)
146: 0x0405 [0x2B] Imutira (ID: 17588762/0x010C621A) [7347*]:
    → "Follow one of the workers, and eventually you'll end up at the queen bee. After that...it should be child's play."
147: 0x040C [0x23] WAIT_FOR_DIALOG_INTERACTION
148: 0x040D [0x1C] WAIT(60* ticks)
149: 0x0410 [0x2B] Yazquhl (ID: 17588763/0x010C621B) [7348*]:
    → "You think so, do you? Only the most callous of women could betray her old friends... In that, you fit the bill."
150: 0x0417 [0x23] WAIT_FOR_DIALOG_INTERACTION
151: 0x0418 [0x1C] WAIT(30* ticks)
152: 0x041B [0x2B] Imutira (ID: 17588762/0x010C621A) [7349*]:
    → "Oh, stop being so petty."
153: 0x0422 [0x23] WAIT_FOR_DIALOG_INTERACTION
154: 0x0423 [0x1C] WAIT(30* ticks)
155: 0x0426 [0x52] END_LOAD_SCHEDULER: End scheduler "y010" with entities [LocalPlayer, LocalPlayer], work=283*
156: 0x0435 [0x45] LOAD_SCHEDULED_TASK: Load scheduler "y011" with entities [LocalPlayer, LocalPlayer], work=[283*, 0*]
157: 0x0446 [0x1C] WAIT(60* ticks)
158: 0x0449 [0x2B] Yazquhl (ID: 17588763/0x010C621B) [7350*]:
    → "I've seen that [man/woman] somewhere before... Could [he/she] be the one who was at Talacca Cove?"
159: 0x0450 [0x23] WAIT_FOR_DIALOG_INTERACTION
160: 0x0451 [0x52] END_LOAD_SCHEDULER: End scheduler "y011" with entities [LocalPlayer, LocalPlayer], work=283*
161: 0x0460 [0x45] LOAD_SCHEDULED_TASK: Load scheduler "y012" with entities [LocalPlayer, LocalPlayer], work=[283*, 0*]
162: 0x0471 [0x2B] Imutira (ID: 17588762/0x010C621A) [7351*]:
    → "You've met [him/her] before?"
163: 0x0478 [0x23] WAIT_FOR_DIALOG_INTERACTION
164: 0x0479 [0x2B] Yazquhl (ID: 17588763/0x010C621B) [7352*]:
    → "Maybe... You remember, right, Gowam?"
165: 0x0480 [0x23] WAIT_FOR_DIALOG_INTERACTION
166: 0x0481 [0x4A] Yazquhl (ID: 17588763/0x010C621B) looks at Gowam (ID: 17588764/0x010C621C)
167: 0x048A [0x1C] WAIT(60* ticks)
168: 0x048D [0x45] LOAD_SCHEDULED_TASK: Load scheduler "ovl2" with entities [EventEntity, EventEntity], work=[200*, 0*]
169: 0x049E [0x52] END_LOAD_SCHEDULER: End scheduler "y012" with entities [LocalPlayer, LocalPlayer], work=283*
170: 0x04AD [0x45] LOAD_SCHEDULED_TASK: Load scheduler "y014" with entities [LocalPlayer, LocalPlayer], work=[283*, 0*]
171: 0x04BE [0x1C] WAIT(120* ticks)
172: 0x04C1 [0x52] END_LOAD_SCHEDULER: End scheduler "y014" with entities [LocalPlayer, LocalPlayer], work=283*
173: 0x04D0 [0x45] LOAD_SCHEDULED_TASK: Load scheduler "y013" with entities [LocalPlayer, LocalPlayer], work=[283*, 0*]
174: 0x04E1 [0x1C] WAIT(60* ticks)
175: 0x04E4 [0x2B] Yazquhl (ID: 17588763/0x010C621B) [7353*]:
    → "Hmph. Corsair dogs..."
176: 0x04EB [0x23] WAIT_FOR_DIALOG_INTERACTION
177: 0x04EC [0x27] REQ_SET(priority=0x10, entity_id=Yazquhl (ID: 17588763/0x010C621B), tag_num=0x04)
178: 0x04F3 [0x1C] WAIT(90* ticks)
179: 0x04F6 [0x2B] Imutira (ID: 17588762/0x010C621A) [7354*]:
    → "Pathetic..."
180: 0x04FD [0x5D] SET_MUSIC_VOLUME(volume=0*, fade_time=120*)
181: 0x0502 [0x1C] WAIT(120* ticks)
182: 0x0505 [0x45] LOAD_SCHEDULED_TASK: Load scheduler "fdo1" with entities [EventEntity, EventEntity], work=[200*, 0*]
183: 0x0516 [0x55] WAIT_LOAD_SCHEDULER: Wait for scheduler "fdo1" with entities [EventEntity, EventEntity], work=200*
184: 0x0525 [0x1C] WAIT(30* ticks)
185: 0x0528 [0x5C] MUSIC_CONTROL: Set Idle (Day) music to song 0*
186: 0x052C [0x5C] MUSIC_CONTROL: Set Idle (Night) music to song 0*
187: 0x0530 [0x9A] WAIT_MUSIC_SERVER()
188: 0x0531 [0x5D] SET_MUSIC_VOLUME(volume=0*, fade_time=127*)
189: 0x0536 [0x52] END_LOAD_SCHEDULER: End scheduler "y013" with entities [LocalPlayer, LocalPlayer], work=283*
190: 0x0545 [0x46] CAMERA_CONTROL: Restore default settings
191: 0x0547 [0x45] LOAD_SCHEDULED_TASK: Load scheduler "fdi1" with entities [EventEntity, EventEntity], work=[200*, 0*]
192: 0x0558 [0x21] END_EVENT
193: 0x0559 [0x00] END_REQSTACK()
```

#### Data or dead code:

```
# Dead code (unreachable instructions):
     0x01EC [0x01] GOTO 0x01EF
# Dead code (unreachable instructions):
     0x0385 [0x01] GOTO 0x0388
```

### Event 65535.1

#### Metadata

| Field        | Value    |
|--------------|----------|
| Entrypoint   | 0x055A   |
| Data Size    | 10 bytes |
| Instructions | 2        |

```
      00 01 02 03 04 05 06 07  08 09 0A 0B 0C 0D 0E 0F
      -- -- -- -- -- -- -- --  -- -- -- -- -- -- -- --
0550:                                37 30 80 31 80 32            70.1.2
0560: 80 33 80 00                                       .3..            
```

#### Opcodes

```
  0: 0x055A [0x37] UPDATE_EVENT_POSITION_AND_DIR: x=254.129*, z=-143.463*, y=19.991*, direction=327.9°*
  1: 0x0563 [0x00] END_REQSTACK()
```

### Event 65535.2

#### Metadata

| Field        | Value    |
|--------------|----------|
| Entrypoint   | 0x0564   |
| Data Size    | 19 bytes |
| Instructions | 5        |

```
      00 01 02 03 04 05 06 07  08 09 0A 0B 0C 0D 0E 0F
      -- -- -- -- -- -- -- --  -- -- -- -- -- -- -- --
0560:             1E F0 FF FF  7F 32 34 80 1F 00 35 80      .....24...5.
0570: 36 80 37 80 1F 01 00                              6.7....         
```

#### Opcodes

```
  0: 0x0564 [0x1E] EventEntity looks at LocalPlayer and starts talking
  1: 0x0569 [0x32] ExtData[1]->MainSpeed = 13* * 0.1
  2: 0x056C [0x1F] MOVE_ENTITY: EventEntity moves to X=259.277*, Z=-142.651*, Y=20.044*
  3: 0x0574 [0x1F] MOVE_ENTITY: Update entity position (mode=1)
  4: 0x0576 [0x00] END_REQSTACK()
```

### Event 65535.3

#### Metadata

| Field        | Value    |
|--------------|----------|
| Entrypoint   | 0x0577   |
| Data Size    | 14 bytes |
| Instructions | 4        |

```
      00 01 02 03 04 05 06 07  08 09 0A 0B 0C 0D 0E 0F
      -- -- -- -- -- -- -- --  -- -- -- -- -- -- -- --
0570:                      32  34 80 1F 00 38 80 39 80         24...8.9.
0580: 3A 80 1F 01 00                                    :....           
```

#### Opcodes

```
  0: 0x0577 [0x32] ExtData[1]->MainSpeed = 13* * 0.1
  1: 0x057A [0x1F] MOVE_ENTITY: EventEntity moves to X=262.836*, Z=-141.211*, Y=19.602*
  2: 0x0582 [0x1F] MOVE_ENTITY: Update entity position (mode=1)
  3: 0x0584 [0x00] END_REQSTACK()
```

### Event 65535.4

#### Metadata

| Field        | Value    |
|--------------|----------|
| Entrypoint   | 0x0585   |
| Data Size    | 14 bytes |
| Instructions | 4        |

```
      00 01 02 03 04 05 06 07  08 09 0A 0B 0C 0D 0E 0F
      -- -- -- -- -- -- -- --  -- -- -- -- -- -- -- --
0580:                32 34 80  5A 00 3B 80 3C 80 3D 80       24.Z.;.<.=.
0590: 5A 01 00                                          Z..             
```

#### Opcodes

```
  0: 0x0585 [0x32] ExtData[1]->MainSpeed = 13* * 0.1
  1: 0x0588 [0x5A] UPDATE_EVENT_POSITION: Set EventEntity MovePosition to X=258.710*, Z=-142.837*, Y=20.038*
  2: 0x0590 [0x5A] UPDATE_EVENT_POSITION: Move EventEntity incrementally towards MovePosition
  3: 0x0592 [0x00] END_REQSTACK()
```
