# 17588737 - DIRECTOR

## Common Data

| Field            | Value                       |
|------------------|-----------------------------|
| Zone             | Maze of Shakhrami (ID: 198) |
| Block Size       | 324 bytes                   |
| Total Events     | 7                           |
| References Count | 12                          |

## List of Events

| Event ID                 | Entrypoint   |   Size |   Instructions |
|--------------------------|--------------|--------|----------------|
| [65535](#event-65535)    | 0x0000       |      1 |              1 |
| [2](#event-2)            | 0x0001       |      1 |              1 |
| [1](#event-1)            | 0x0002       |     66 |             14 |
| [65535.1](#event-655351) | 0x0044       |     48 |             11 |
| [65535.2](#event-655352) | 0x0074       |     35 |              9 |
| [65535.3](#event-655353) | 0x0097       |     30 |              8 |
| [65535.4](#event-655354) | 0x00B5       |     51 |             12 |

## DAT References (imed_data)

|   Index | Hex Value   |   Dec Value |
|---------|-------------|-------------|
|       0 | 0x1C83      |        7299 |
|       1 | 0x0000      |           0 |
|       2 | 0x0001      |           1 |
|       3 | 0x0002      |           2 |
|       4 | 0x0003      |           3 |
|       5 | 0x1C87      |        7303 |
|       6 | 0x1C86      |        7302 |
|       7 | 0x012C      |         300 |
|       8 | 0x1C84      |        7300 |
|       9 | 0x1C85      |        7301 |
|      10 | 0x000C      |          12 |
|      11 | 0x0064      |         100 |

## String References

- **7299**: $3605028iB\`hH [i [sj/$3C$3x$3$3g/$3A$3C$3e$3 /$3$1[$3v/<Player>j$P13x$6750761$o=/$3N$3G$3X$3gFLAGL]reset]
- **7300**: $4391756$3x$3$3gH [ums201:$18+$17$6948976$P13xE\`$o=1FI7i/$3N$3G$3X$3gFLAGL]reset]
- **7301**: $3342916D$6688368hI%%2= $3N$3G$3X$3gFLAGL]reset
- **7302**: @$3A$3C$3e$3 pbk$B [$3R$3C$3$P13]
- **7303**: $5636657$3$1[$3vHL6a[H [$3~$3X$3$2L%Bj%F/\`f\`_]

## Events

### Event 65535

#### Metadata

| Field        | Value   |
|--------------|---------|
| Entrypoint   | 0x0000  |
| Data Size    | 1 bytes |
| Instructions | 1       |

```
      00 01 02 03 04 05 06 07  08 09 0A 0B 0C 0D 0E 0F
      -- -- -- -- -- -- -- --  -- -- -- -- -- -- -- --
0000: 00                                                .               
```

#### Opcodes

```
  0: 0x0000 [0x00] END_REQSTACK()
```

### Event 2

#### Metadata

| Field        | Value   |
|--------------|---------|
| Entrypoint   | 0x0001  |
| Data Size    | 1 bytes |
| Instructions | 1       |

```
      00 01 02 03 04 05 06 07  08 09 0A 0B 0C 0D 0E 0F
      -- -- -- -- -- -- -- --  -- -- -- -- -- -- -- --
0000:    00                                              .              
```

#### Opcodes

```
  0: 0x0001 [0x00] END_REQSTACK()
```

### Event 1

#### Metadata

| Field        | Value    |
|--------------|----------|
| Entrypoint   | 0x0002   |
| Data Size    | 66 bytes |
| Instructions | 14       |

```
      00 01 02 03 04 05 06 07  08 09 0A 0B 0C 0D 0E 0F
      -- -- -- -- -- -- -- --  -- -- -- -- -- -- -- --
0000:       24 00 80 01 80 01  80 25 02 00 10 02 80 00    $......%......
0010: 1C 00 29 0D 01 62 0C 01  05 01 40 00 02 00 10 03  ..)..b....@.....
0020: 80 00 2E 00 29 0D 01 62  0C 01 04 01 40 00 02 00  ....)..b....@...
0030: 10 04 80 00 40 00 29 0D  01 62 0C 01 03 01 40 00  ....@.)..b....@.
0040: 20 00 21 00                                        .!.            
```

#### Opcodes

```
  0: 0x0002 [0x24] CREATE_DIALOG(message_id=7299*, default_option=0*, option_flags=0*)
    → "$3605028iB`hH [i [sj/$3C$3x$3$3g/$3A$3C$3e$3 /$3$1[$3v/<Player>j$P13x$6750761$o=/$3N$3G$3X$3gFLAGL]reset]"
  1: 0x0009 [0x25] WAIT_DIALOG_SELECT()
  2: 0x000A [0x02] IF !(Work_Zone[0] == 1*) GOTO 0x001C
  3: 0x0012 [0x29] REQ_SET_WAIT(priority=0x0D, entity_id=DIRECTOR (ID: 17588737/0x010C6201), tag_num=0x05)
  4: 0x0019 [0x01] GOTO 0x0040
  5: 0x001C [0x02] IF !(Work_Zone[0] == 2*) GOTO 0x002E
  6: 0x0024 [0x29] REQ_SET_WAIT(priority=0x0D, entity_id=DIRECTOR (ID: 17588737/0x010C6201), tag_num=0x04)
  7: 0x002B [0x01] GOTO 0x0040
  8: 0x002E [0x02] IF !(Work_Zone[0] == 3*) GOTO 0x0040
  9: 0x0036 [0x29] REQ_SET_WAIT(priority=0x0D, entity_id=DIRECTOR (ID: 17588737/0x010C6201), tag_num=0x03)
 10: 0x003D [0x01] GOTO 0x0040

SUBROUTINE_0040:
 11: 0x0040 [0x20] SET_CLI_EVENT_UC_FLAG: Unlock player control
 12: 0x0042 [0x21] END_EVENT
 13: 0x0043 [0x00] END_REQSTACK()
```

### Event 65535.1

#### Metadata

| Field        | Value    |
|--------------|----------|
| Entrypoint   | 0x0044   |
| Data Size    | 48 bytes |
| Instructions | 11       |

```
      00 01 02 03 04 05 06 07  08 09 0A 0B 0C 0D 0E 0F
      -- -- -- -- -- -- -- --  -- -- -- -- -- -- -- --
0040:             24 05 80 01  80 01 80 25 02 00 10 01      $......%....
0050: 80 00 5E 00 29 09 F0 FF  FF 7F 04 01 70 00 02 00  ..^.).......p...
0060: 10 02 80 00 70 00 29 09  F0 FF FF 7F 06 01 70 00  ....p.).......p.
0070: 20 00 21 00                                        .!.            
```

#### Opcodes

```
  0: 0x0044 [0x24] CREATE_DIALOG(message_id=7303*, default_option=0*, option_flags=0*)
    → "$5636657$3$1[$3vHL6a[H [$3~$3X$3$2L%Bj%F/`f`_]"
  1: 0x004B [0x25] WAIT_DIALOG_SELECT()
  2: 0x004C [0x02] IF !(Work_Zone[0] == 0*) GOTO 0x005E
  3: 0x0054 [0x29] REQ_SET_WAIT(priority=0x09, entity_id=LocalPlayer, tag_num=0x04)
  4: 0x005B [0x01] GOTO 0x0070
  5: 0x005E [0x02] IF !(Work_Zone[0] == 1*) GOTO 0x0070
  6: 0x0066 [0x29] REQ_SET_WAIT(priority=0x09, entity_id=LocalPlayer, tag_num=0x06)
  7: 0x006D [0x01] GOTO 0x0070

SUBROUTINE_0070:
  8: 0x0070 [0x20] SET_CLI_EVENT_UC_FLAG: Unlock player control
  9: 0x0072 [0x21] END_EVENT
 10: 0x0073 [0x00] END_REQSTACK()
```

### Event 65535.2

#### Metadata

| Field        | Value    |
|--------------|----------|
| Entrypoint   | 0x0074   |
| Data Size    | 35 bytes |
| Instructions | 9        |

```
      00 01 02 03 04 05 06 07  08 09 0A 0B 0C 0D 0E 0F
      -- -- -- -- -- -- -- --  -- -- -- -- -- -- -- --
0070:             24 06 80 01  80 01 80 25 02 00 10 01      $......%....
0080: 80 00 93 00 29 09 F0 FF  FF 7F 04 03 01 10 07 80  ....)...........
0090: 01 93 00 20 00 21 00                              ... .!.         
```

#### Opcodes

```
  0: 0x0074 [0x24] CREATE_DIALOG(message_id=7302*, default_option=0*, option_flags=0*)
    → "@$3A$3C$3e$3 pbk$B [$3R$3C$3$P13]"
  1: 0x007B [0x25] WAIT_DIALOG_SELECT()
  2: 0x007C [0x02] IF !(Work_Zone[0] == 0*) GOTO 0x0093
  3: 0x0084 [0x29] REQ_SET_WAIT(priority=0x09, entity_id=LocalPlayer, tag_num=0x04)
  4: 0x008B [0x03] Work_Zone[1] = 300*
  5: 0x0090 [0x01] GOTO 0x0093

SUBROUTINE_0093:
  6: 0x0093 [0x20] SET_CLI_EVENT_UC_FLAG: Unlock player control
  7: 0x0095 [0x21] END_EVENT
  8: 0x0096 [0x00] END_REQSTACK()
```

### Event 65535.3

#### Metadata

| Field        | Value    |
|--------------|----------|
| Entrypoint   | 0x0097   |
| Data Size    | 30 bytes |
| Instructions | 8        |

```
      00 01 02 03 04 05 06 07  08 09 0A 0B 0C 0D 0E 0F
      -- -- -- -- -- -- -- --  -- -- -- -- -- -- -- --
0090:                      24  08 80 01 80 01 80 25 02         $......%.
00A0: 00 10 01 80 00 B1 00 29  0B 01 62 0C 01 06 01 B1  .......)..b.....
00B0: 00 20 00 21 00                                    . .!.           
```

#### Opcodes

```
  0: 0x0097 [0x24] CREATE_DIALOG(message_id=7300*, default_option=0*, option_flags=0*)
    → "$4391756$3x$3$3gH [ums201:$18+$17$6948976$P13xE`$o=1FI7i/$3N$3G$3X$3gFLAGL]reset]"
  1: 0x009E [0x25] WAIT_DIALOG_SELECT()
  2: 0x009F [0x02] IF !(Work_Zone[0] == 0*) GOTO 0x00B1
  3: 0x00A7 [0x29] REQ_SET_WAIT(priority=0x0B, entity_id=DIRECTOR (ID: 17588737/0x010C6201), tag_num=0x06)
  4: 0x00AE [0x01] GOTO 0x00B1

SUBROUTINE_00B1:
  5: 0x00B1 [0x20] SET_CLI_EVENT_UC_FLAG: Unlock player control
  6: 0x00B3 [0x21] END_EVENT
  7: 0x00B4 [0x00] END_REQSTACK()
```

### Event 65535.4

#### Metadata

| Field        | Value    |
|--------------|----------|
| Entrypoint   | 0x00B5   |
| Data Size    | 51 bytes |
| Instructions | 12       |

```
      00 01 02 03 04 05 06 07  08 09 0A 0B 0C 0D 0E 0F
      -- -- -- -- -- -- -- --  -- -- -- -- -- -- -- --
00B0:                24 09 80  01 80 01 80 25 02 00 10       $......%...
00C0: 01 80 00 D4 00 29 09 F0  FF FF 7F 06 03 01 10 0A  .....)..........
00D0: 80 01 E4 00 02 00 10 02  80 00 E4 00 03 01 10 0B  ................
00E0: 80 01 E4 00 20 00 21 00                           .... .!.        
```

#### Opcodes

```
  0: 0x00B5 [0x24] CREATE_DIALOG(message_id=7301*, default_option=0*, option_flags=0*)
    → "$3342916D$6688368hI%%2= $3N$3G$3X$3gFLAGL]reset"
  1: 0x00BC [0x25] WAIT_DIALOG_SELECT()
  2: 0x00BD [0x02] IF !(Work_Zone[0] == 0*) GOTO 0x00D4
  3: 0x00C5 [0x29] REQ_SET_WAIT(priority=0x09, entity_id=LocalPlayer, tag_num=0x06)
  4: 0x00CC [0x03] Work_Zone[1] = 12*
  5: 0x00D1 [0x01] GOTO 0x00E4
  6: 0x00D4 [0x02] IF !(Work_Zone[0] == 1*) GOTO 0x00E4
  7: 0x00DC [0x03] Work_Zone[1] = 100*
  8: 0x00E1 [0x01] GOTO 0x00E4

SUBROUTINE_00E4:
  9: 0x00E4 [0x20] SET_CLI_EVENT_UC_FLAG: Unlock player control
 10: 0x00E6 [0x21] END_EVENT
 11: 0x00E7 [0x00] END_REQSTACK()
```
