# 17588759 - Iron Door

## Common Data

| Field            | Value                       |
|------------------|-----------------------------|
| Zone             | Maze of Shakhrami (ID: 198) |
| Block Size       | 264 bytes                   |
| Total Events     | 3                           |
| References Count | 8                           |

## List of Events

| Event ID              | Entrypoint   |   Size |   Instructions |
|-----------------------|--------------|--------|----------------|
| [65535](#event-65535) | 0x0000       |      1 |              1 |
| [41](#event-41)       | 0x0001       |    108 |             19 |
| [42](#event-42)       | 0x006D       |     95 |             20 |

## DAT References (imed_data)

|   Index | Hex Value   |   Dec Value |
|---------|-------------|-------------|
|       0 | 0x00C8      |         200 |
|       1 | 0x0000      |           0 |
|       2 | 0x003C      |          60 |
|       3 | 0x0013      |          19 |
|       4 | 0x0062      |          98 |
|       5 | 0x1C78      |        7288 |
|       6 | 0x0001      |           1 |
|       7 | 0x0078      |         120 |

## String References

- **7288**: Leave the room? [Yes./No.]

## Events

### Event 65535

#### Metadata

| Field        | Value   |
|--------------|---------|
| Entrypoint   | 0x0000  |
| Data Size    | 1 bytes |
| Instructions | 1       |

```
      00 01 02 03 04 05 06 07  08 09 0A 0B 0C 0D 0E 0F
      -- -- -- -- -- -- -- --  -- -- -- -- -- -- -- --
0000: 00                                                .               
```

#### Opcodes

```
  0: 0x0000 [0x00] END_REQSTACK()
```

### Event 41

#### Metadata

| Field        | Value     |
|--------------|-----------|
| Entrypoint   | 0x0001    |
| Data Size    | 108 bytes |
| Instructions | 19        |

```
      00 01 02 03 04 05 06 07  08 09 0A 0B 0C 0D 0E 0F
      -- -- -- -- -- -- -- --  -- -- -- -- -- -- -- --
0000:    20 01 46 01 42 45 00  80 F8 FF FF 7F F8 FF FF    .F.BE.........
0010: 7F 66 64 6F 31 01 80 4C  1C 02 80 29 0B F0 FF FF  .fdo1..L...)....
0020: 7F 07 38 03 80 27 0B F0  FF FF 7F 09 1C 02 80 4D  ..8..'.........M
0030: 45 04 80 F0 FF FF 7F F0  FF FF 7F 73 30 30 30 01  E..........s000.
0040: 80 45 00 80 F8 FF FF 7F  F8 FF FF 7F 66 64 69 31  .E..........fdi1
0050: 01 80 2A 0B F0 FF FF 7F  55 04 80 F0 FF FF 7F F0  ..*.....U.......
0060: FF FF 7F 73 30 30 30 46  00 20 00 21 00           ...s000F. .!.   
```

#### Opcodes

```
  0: 0x0001 [0x20] SET_CLI_EVENT_UC_FLAG: Lock player control
  1: 0x0003 [0x46] CAMERA_CONTROL: Disable user control
  2: 0x0005 [0x42] SET_CLI_EVENT_CANCEL_DATA()
  3: 0x0006 [0x45] LOAD_SCHEDULED_TASK: Load scheduler "fdo1" with entities [EventEntity, EventEntity], work=[200*, 0*]
  4: 0x0017 [0x4C] EventEntity->StatusEvent = 8 // Open door
  5: 0x0018 [0x1C] WAIT(60* ticks)
  6: 0x001B [0x29] REQ_SET_WAIT(priority=0x0B, entity_id=LocalPlayer, tag_num=0x07)
  7: 0x0022 [0x38] SET_CLIENT_EVENT_MODE(mode=19*)
  8: 0x0025 [0x27] REQ_SET(priority=0x0B, entity_id=LocalPlayer, tag_num=0x09)
  9: 0x002C [0x1C] WAIT(60* ticks)
 10: 0x002F [0x4D] EventEntity->StatusEvent = 9 // Close door
 11: 0x0030 [0x45] LOAD_SCHEDULED_TASK: Load scheduler "s000" with entities [LocalPlayer, LocalPlayer], work=[98*, 0*]
 12: 0x0041 [0x45] LOAD_SCHEDULED_TASK: Load scheduler "fdi1" with entities [EventEntity, EventEntity], work=[200*, 0*]
 13: 0x0052 [0x2A] GET_REQ_LEVEL(level=11, entity_id=LocalPlayer)
 14: 0x0058 [0x55] WAIT_LOAD_SCHEDULER: Wait for scheduler "s000" with entities [LocalPlayer, LocalPlayer], work=98*
 15: 0x0067 [0x46] CAMERA_CONTROL: Restore default settings
 16: 0x0069 [0x20] SET_CLI_EVENT_UC_FLAG: Unlock player control
 17: 0x006B [0x21] END_EVENT
 18: 0x006C [0x00] END_REQSTACK()
```

### Event 42

#### Metadata

| Field        | Value    |
|--------------|----------|
| Entrypoint   | 0x006D   |
| Data Size    | 95 bytes |
| Instructions | 20       |

```
      00 01 02 03 04 05 06 07  08 09 0A 0B 0C 0D 0E 0F
      -- -- -- -- -- -- -- --  -- -- -- -- -- -- -- --
0060:                                         24 05 80               $..
0070: 06 80 01 80 25 02 00 10  01 80 00 BD 00 43 00 43  ....%........C.C
0080: 01 03 01 10 06 80 45 00  80 F8 FF FF 7F F8 FF FF  ......E.........
0090: 7F 66 64 6F 31 01 80 4C  1C 02 80 29 0B F0 FF FF  .fdo1..L...)....
00A0: 7F 08 1C 02 80 4D 1C 07  80 45 00 80 F8 FF FF 7F  .....M...E......
00B0: F8 FF FF 7F 66 64 69 31  01 80 01 C8 00 02 00 10  ....fdi1........
00C0: 06 80 00 C8 00 01 C8 00  20 00 21 00              ........ .!.    
```

#### Opcodes

```
  0: 0x006D [0x24] CREATE_DIALOG(message_id=7288*, default_option=1*, option_flags=0*)
    → "Leave the room? [Yes./No.]"
  1: 0x0074 [0x25] WAIT_DIALOG_SELECT()
  2: 0x0075 [0x02] IF !(Work_Zone[0] == 0*) GOTO 0x00BD
  3: 0x007D [0x43] SEND_EVENT_UPDATE: Send pending tag to server (packet 0x005B)
  4: 0x007F [0x43] SEND_EVENT_UPDATE: Check pending flag (skip if not pending)
  5: 0x0081 [0x03] Work_Zone[1] = 1*
  6: 0x0086 [0x45] LOAD_SCHEDULED_TASK: Load scheduler "fdo1" with entities [EventEntity, EventEntity], work=[200*, 0*]
  7: 0x0097 [0x4C] EventEntity->StatusEvent = 8 // Open door
  8: 0x0098 [0x1C] WAIT(60* ticks)
  9: 0x009B [0x29] REQ_SET_WAIT(priority=0x0B, entity_id=LocalPlayer, tag_num=0x08)
 10: 0x00A2 [0x1C] WAIT(60* ticks)
 11: 0x00A5 [0x4D] EventEntity->StatusEvent = 9 // Close door
 12: 0x00A6 [0x1C] WAIT(120* ticks)
 13: 0x00A9 [0x45] LOAD_SCHEDULED_TASK: Load scheduler "fdi1" with entities [EventEntity, EventEntity], work=[200*, 0*]
 14: 0x00BA [0x01] GOTO 0x00C8
 15: 0x00BD [0x02] IF !(Work_Zone[0] == 1*) GOTO 0x00C8
 16: 0x00C5 [0x01] GOTO 0x00C8

SUBROUTINE_00C8:
 17: 0x00C8 [0x20] SET_CLI_EVENT_UC_FLAG: Unlock player control
 18: 0x00CA [0x21] END_EVENT
 19: 0x00CB [0x00] END_REQSTACK()
```
