# Event 278

## Metadata

| Field           | Value    |
|-----------------|----------|
| Event Index     | 10/23    |
| Offset          | 0x0079   |
| Data Size       | 15 bytes |
| Calculated Size | 15 bytes |
| Instructions    | 8        |

```
      00 01 02 03 04 05 06 07  08 09 0A 0B 0C 0D 0E 0F
      -- -- -- -- -- -- -- --  -- -- -- -- -- -- -- --
0070:                             1E F0 FF FF 7F 6F 70           .....op
0080: 1D 01 80 23 20 00 21 00                           ...# .!.        
```

## Opcodes

```
  0: 0x0079 [0x1E] EventEntity looks at LocalPlayer and starts talking
  1: 0x007E [0x6F] WAIT_FRAME_DELAY: Yield until WaitTime reaches zero
  2: 0x007F [0x70] WAIT_ENTITY_RENDER_FLAG: Wait while EventEntity->Render.Flags3 bit 2 is set (cancel turn if not)
  3: 0x0080 [0x1D] PRINT_EVENT_MESSAGE(message_id=8057*)
    → "ONE'S\u0001\u001AGREE-TING\u0001\u001AIS...\u0007\u0001\u001AH\u0001\u001AE\u0001\u001AL\u0001\u001AL\u0001\u001AO\u0001\u001A!?\u007F1\u0000\u0007"
  4: 0x0083 [0x23] WAIT_FOR_DIALOG_INTERACTION
  5: 0x0084 [0x20] SET_CLI_EVENT_UC_FLAG: Unlock player control
  6: 0x0086 [0x21] END_EVENT
  7: 0x0087 [0x00] END_REQSTACK()
```
