# Event 118

## Metadata

| Field           | Value    |
|-----------------|----------|
| Event Index     | 6/6      |
| Offset          | 0x31DD   |
| Data Size       | 44 bytes |
| Calculated Size | 44 bytes |
| Instructions    | 12       |

```
      00 01 02 03 04 05 06 07  08 09 0A 0B 0C 0D 0E 0F
      -- -- -- -- -- -- -- --  -- -- -- -- -- -- -- --
31D0:                                         42 03 02               B..
31E0: 10 56 81 24 57 81 01 80  01 80 25 02 00 10 01 80  .V.$W.....%.....
31F0: 00 F9 31 05 01 10 01 07  32 02 00 10 03 80 00 07  ..1.....2.......
3200: 32 06 01 10 01 07 32 21  00                       2.....2!.       
```

## Opcodes

```
  0: 0x31DD [0x42] SET_CLI_EVENT_CANCEL_DATA()
  1: 0x31DE [0x03] Work_Zone[2] = 15856*
  2: 0x31E3 [0x24] CREATE_DIALOG(message_id=8259*, default_option=0*, option_flags=0*)
    → "You see \u0001\u0001\u0001 \u0001\u0005$\u0002\u0000\u0000\u0000.\u0007\u000BTake it.\u0007Leave it.\u007F1\u0000\u0007"
  3: 0x31EA [0x25] WAIT_DIALOG_SELECT()
  4: 0x31EB [0x02] IF !(Work_Zone[0] == 0*) GOTO 0x31F9
  5: 0x31F3 [0x05] Work_Zone[1] = 1
  6: 0x31F6 [0x01] GOTO 0x3207
  7: 0x31F9 [0x02] IF !(Work_Zone[0] == 1*) GOTO 0x3207
  8: 0x3201 [0x06] Work_Zone[1] = 0
  9: 0x3204 [0x01] GOTO 0x3207

SUBROUTINE_3207:
 10: 0x3207 [0x21] END_EVENT
 11: 0x3208 [0x00] END_REQSTACK()
```
