# Event 320

## Metadata

| Field           | Value    |
|-----------------|----------|
| Event Index     | 15/48    |
| Offset          | 0x00C3   |
| Data Size       | 53 bytes |
| Calculated Size | 53 bytes |
| Instructions    | 11       |

```
      00 01 02 03 04 05 06 07  08 09 0A 0B 0C 0D 0E 0F
      -- -- -- -- -- -- -- --  -- -- -- -- -- -- -- --
00C0:          1E F0 FF FF 7F  1D 17 80 23 7B F8 FF FF     ........#{...
00D0: 7F 66 18 80 7D C0 0E 01  7D C0 0E 01 74 68 6B 31  .f..}...}...thk1
00E0: 1D 19 80 23 66 18 80 7D  C0 0E 01 7D C0 0E 01 74  ...#f..}...}...t
00F0: 68 6B 32 1C 1A 80 21 00                           hk2...!.        
```

## Opcodes

```
  0: 0x00C3 [0x1E] EventEntity looks at LocalPlayer and starts talking
  1: 0x00C8 [0x1D] PRINT_EVENT_MESSAGE(message_id=9159*)
    → "Those strange Goblinlike beasts... When I was still young, I remember my master telling me stories of a strange tribe of beastmen who lived underground in a city known as \u00072Movalpolos.\u00073\u007F1\u0000\u0007"
  2: 0x00CB [0x23] WAIT_FOR_DIALOG_INTERACTION
  3: 0x00CC [0x7B] EventEntity stops talking
  4: 0x00D1 [0x66] LOAD_EXT_SCHEDULER_MAIN: Load scheduler "thk1" with entities [Oggbi (ID: 17743997/0x010EC07D), Oggbi (ID: 17743997/0x010EC07D)], work=60*
  5: 0x00E0 [0x1D] PRINT_EVENT_MESSAGE(message_id=9160*)
    → "And that man they took away... He looked awfully familiar...\u007F1\u0000\u0007"
  6: 0x00E3 [0x23] WAIT_FOR_DIALOG_INTERACTION
  7: 0x00E4 [0x66] LOAD_EXT_SCHEDULER_MAIN: Load scheduler "thk2" with entities [Oggbi (ID: 17743997/0x010EC07D), Oggbi (ID: 17743997/0x010EC07D)], work=60*
  8: 0x00F3 [0x1C] WAIT(30* ticks)
  9: 0x00F6 [0x21] END_EVENT
 10: 0x00F7 [0x00] END_REQSTACK()
```
