# Event 296

## Metadata

| Field           | Value    |
|-----------------|----------|
| Event Index     | 4/9      |
| Offset          | 0x0017   |
| Data Size       | 29 bytes |
| Calculated Size | 29 bytes |
| Instructions    | 10       |

```
      00 01 02 03 04 05 06 07  08 09 0A 0B 0C 0D 0E 0F
      -- -- -- -- -- -- -- --  -- -- -- -- -- -- -- --
0010:                      1E  F0 FF FF 7F 6F 70 29 0B         .....op).
0020: 35 F0 0E 01 01 1D 01 80  23 29 0B 35 F0 0E 01 02  5.......#).5....
0030: 20 00 21 00                                        .!.            
```

## Opcodes

```
  0: 0x0017 [0x1E] EventEntity looks at LocalPlayer and starts talking
  1: 0x001C [0x6F] WAIT_FRAME_DELAY: Yield until WaitTime reaches zero
  2: 0x001D [0x70] WAIT_ENTITY_RENDER_FLAG: Wait while EventEntity->Render.Flags3 bit 2 is set (cancel turn if not)
  3: 0x001E [0x29] REQ_SET_WAIT(priority=0x0B, entity_id=Raamimi (ID: 17756213/0x010EF035), tag_num=0x01)
  4: 0x0025 [0x1D] PRINT_EVENT_MESSAGE(message_id=7894*)
    → "Oh, no! That old gent those groupies call the \u00072Great Teacher\u00073 has started up his speech again. I swear, my ears are suffering from repetitive strain injury from listening to him repeat the same old thing every time I have the misfortune of passing by here.\u007F1\u0000\u0007"
  5: 0x0028 [0x23] WAIT_FOR_DIALOG_INTERACTION
  6: 0x0029 [0x29] REQ_SET_WAIT(priority=0x0B, entity_id=Raamimi (ID: 17756213/0x010EF035), tag_num=0x02)
  7: 0x0030 [0x20] SET_CLI_EVENT_UC_FLAG: Unlock player control
  8: 0x0032 [0x21] END_EVENT
  9: 0x0033 [0x00] END_REQSTACK()
```
