# Event 67

## Metadata

| Field           | Value    |
|-----------------|----------|
| Event Index     | 6/9      |
| Offset          | 0x0035   |
| Data Size       | 33 bytes |
| Calculated Size | 33 bytes |
| Instructions    | 12       |

```
      00 01 02 03 04 05 06 07  08 09 0A 0B 0C 0D 0E 0F
      -- -- -- -- -- -- -- --  -- -- -- -- -- -- -- --
0030:                1E F0 FF  FF 7F 6F 70 29 0B 35 F0       .....op).5.
0040: 0E 01 01 1D 02 80 23 1D  03 80 23 29 0B 35 F0 0E  ......#...#).5..
0050: 01 02 20 00 21 00                                 .. .!.          
```

## Opcodes

```
  0: 0x0035 [0x1E] EventEntity looks at LocalPlayer and starts talking
  1: 0x003A [0x6F] WAIT_FRAME_DELAY: Yield until WaitTime reaches zero
  2: 0x003B [0x70] WAIT_ENTITY_RENDER_FLAG: Wait while EventEntity->Render.Flags3 bit 2 is set (cancel turn if not)
  3: 0x003C [0x29] REQ_SET_WAIT(priority=0x0B, entity_id=Raamimi (ID: 17756213/0x010EF035), tag_num=0x01)
  4: 0x0043 [0x1D] PRINT_EVENT_MESSAGE(message_id=7249*)
    → "Oh, goodness-gracious me...\u0007I thought his audience's reaction was livelier than usual, but it seems that the old public speaker has gone and lost his voice.\u007F1\u0000\u0007"
  5: 0x0046 [0x23] WAIT_FOR_DIALOG_INTERACTION
  6: 0x0047 [0x1D] PRINT_EVENT_MESSAGE(message_id=7250*)
    → "Let me see... I guess this will have to make do. I was hoping to save it to make a nice drink out of, but that can wait. Here, give the old gent this and see if it helps...\u007F1\u0000\u0007"
  7: 0x004A [0x23] WAIT_FOR_DIALOG_INTERACTION
  8: 0x004B [0x29] REQ_SET_WAIT(priority=0x0B, entity_id=Raamimi (ID: 17756213/0x010EF035), tag_num=0x02)
  9: 0x0052 [0x20] SET_CLI_EVENT_UC_FLAG: Unlock player control
 10: 0x0054 [0x21] END_EVENT
 11: 0x0055 [0x00] END_REQSTACK()
```
