# 17658613 - Ponono

## Common Data

| Field            | Value                       |
|------------------|-----------------------------|
| Zone             | Abyssea - Attohwa (ID: 215) |
| Block Size       | 204 bytes                   |
| Total Events     | 6                           |
| References Count | 11                          |

## List of Events

| Event ID              | Entrypoint   |   Size |   Instructions |
|-----------------------|--------------|--------|----------------|
| [65535](#event-65535) | 0x0000       |      1 |              1 |
| [338](#event-338)     | 0x0001       |      2 |              2 |
| [339](#event-339)     | 0x0003       |     59 |             17 |
| [340](#event-340)     | 0x003E       |     11 |              5 |
| [341](#event-341)     | 0x0049       |     31 |              9 |
| [342](#event-342)     | 0x0068       |     15 |              7 |

## DAT References (imed_data)

|   Index | Hex Value   |   Dec Value |
|---------|-------------|-------------|
|       0 | 0x1FC3      |        8131 |
|       1 | 0x0028      |          40 |
|       2 | 0x1FC4      |        8132 |
|       3 | 0x1FC5      |        8133 |
|       4 | 0x1FC6      |        8134 |
|       5 | 0x1FC7      |        8135 |
|       6 | 0x1FC8      |        8136 |
|       7 | 0x00C9      |         201 |
|       8 | 0x0000      |           0 |
|       9 | 0x1FC9      |        8137 |
|      10 | 0x1FCA      |        8138 |

## String References

- **8131**: Why, hello. Could you lend me your ear for a moment? Oh, pretty pretty please?
- **8132**: I'm trying to do something for all the brave soldiers who protectaru us night and day...though I guess you can't really call it "day," huh?
- **8133**: Anyhow, I mean to patch up their garments! Isn't that sweet of me? But I seem to have hit an unfortunate snag, as I lack for the very-wery materials this task requires...
- **8134**: Fortunately, I have my sightarus set on a suitable replacement. %! Yes, my keen clothcrafter's sense tells me that these will most certainly-wertainly do the trick.
- **8135**: I would be ever so grateful if you could bring me $1 of these $0 . I'll even give you a positively delightful treat for your efforts.
- **8136**: Oh, they're absolutely beautiful! I can't thank you enough! If you ever happen-wappen to come across $1 more $0 , I would be forever grateful if you could bring them to me.
- **8137**: I used to care about cute and stylish designs above all else. But in these bleak times, I can'taru afford to worry about luxuries.
- **8138**: I must make the most I can out of limited supplies. Yes, even a humble-wumble clothcrafter must do what she can to serve the Resistance.

## Events

### Event 65535

#### Metadata

| Field        | Value   |
|--------------|---------|
| Entrypoint   | 0x0000  |
| Data Size    | 1 bytes |
| Instructions | 1       |

```
      00 01 02 03 04 05 06 07  08 09 0A 0B 0C 0D 0E 0F
      -- -- -- -- -- -- -- --  -- -- -- -- -- -- -- --
0000: 00                                                .               
```

#### Opcodes

```
  0: 0x0000 [0x00] END_REQSTACK()
```

### Event 338

#### Metadata

| Field        | Value   |
|--------------|---------|
| Entrypoint   | 0x0001  |
| Data Size    | 2 bytes |
| Instructions | 2       |

```
      00 01 02 03 04 05 06 07  08 09 0A 0B 0C 0D 0E 0F
      -- -- -- -- -- -- -- --  -- -- -- -- -- -- -- --
0000:    21 00                                           !.             
```

#### Opcodes

```
  0: 0x0001 [0x21] END_EVENT
  1: 0x0002 [0x00] END_REQSTACK()
```

### Event 339

#### Metadata

| Field        | Value    |
|--------------|----------|
| Entrypoint   | 0x0003   |
| Data Size    | 59 bytes |
| Instructions | 17       |

```
      00 01 02 03 04 05 06 07  08 09 0A 0B 0C 0D 0E 0F
      -- -- -- -- -- -- -- --  -- -- -- -- -- -- -- --
0000:          1E F0 FF FF 7F  6F 70 1D 00 80 23 66 01     .....op...#f.
0010: 80 F8 FF FF 7F F8 FF FF  7F 74 6C 6B 30 1D 02 80  .........tlk0...
0020: 23 1D 03 80 23 1D 04 80  23 1D 05 80 23 66 01 80  #...#...#...#f..
0030: F8 FF FF 7F F8 FF FF 7F  74 6C 6B 31 21 00        ........tlk1!.  
```

#### Opcodes

```
  0: 0x0003 [0x1E] EventEntity looks at LocalPlayer and starts talking
  1: 0x0008 [0x6F] WAIT_FRAME_DELAY: Yield until WaitTime reaches zero
  2: 0x0009 [0x70] WAIT_ENTITY_RENDER_FLAG: Wait while EventEntity->Render.Flags3 bit 2 is set (cancel turn if not)
  3: 0x000A [0x1D] PRINT_EVENT_MESSAGE(message_id=8131*)
    → "Why, hello. Could you lend me your ear for a moment? Oh, pretty pretty please?"
  4: 0x000D [0x23] WAIT_FOR_DIALOG_INTERACTION
  5: 0x000E [0x66] LOAD_EXT_SCHEDULER_MAIN: Load scheduler "tlk0" with entities [EventEntity, EventEntity], work=40*
  6: 0x001D [0x1D] PRINT_EVENT_MESSAGE(message_id=8132*)
    → "I'm trying to do something for all the brave soldiers who protectaru us night and day...though I guess you can't really call it "day," huh?"
  7: 0x0020 [0x23] WAIT_FOR_DIALOG_INTERACTION
  8: 0x0021 [0x1D] PRINT_EVENT_MESSAGE(message_id=8133*)
    → "Anyhow, I mean to patch up their garments! Isn't that sweet of me? But I seem to have hit an unfortunate snag, as I lack for the very-wery materials this task requires..."
  9: 0x0024 [0x23] WAIT_FOR_DIALOG_INTERACTION
 10: 0x0025 [0x1D] PRINT_EVENT_MESSAGE(message_id=8134*)
    → "Fortunately, I have my sightarus set on a suitable replacement. %! Yes, my keen clothcrafter's sense tells me that these will most certainly-wertainly do the trick."
 11: 0x0028 [0x23] WAIT_FOR_DIALOG_INTERACTION
 12: 0x0029 [0x1D] PRINT_EVENT_MESSAGE(message_id=8135*)
    → "I would be ever so grateful if you could bring me $1 of these $0 . I'll even give you a positively delightful treat for your efforts."
 13: 0x002C [0x23] WAIT_FOR_DIALOG_INTERACTION
 14: 0x002D [0x66] LOAD_EXT_SCHEDULER_MAIN: Load scheduler "tlk1" with entities [EventEntity, EventEntity], work=40*
 15: 0x003C [0x21] END_EVENT
 16: 0x003D [0x00] END_REQSTACK()
```

### Event 340

#### Metadata

| Field        | Value    |
|--------------|----------|
| Entrypoint   | 0x003E   |
| Data Size    | 11 bytes |
| Instructions | 5        |

```
      00 01 02 03 04 05 06 07  08 09 0A 0B 0C 0D 0E 0F
      -- -- -- -- -- -- -- --  -- -- -- -- -- -- -- --
0030:                                            1E F0                ..
0040: FF FF 7F 1D 05 80 23 21  00                       ......#!.       
```

#### Opcodes

```
  0: 0x003E [0x1E] EventEntity looks at LocalPlayer and starts talking
  1: 0x0043 [0x1D] PRINT_EVENT_MESSAGE(message_id=8135*)
    → "I would be ever so grateful if you could bring me $1 of these $0 . I'll even give you a positively delightful treat for your efforts."
  2: 0x0046 [0x23] WAIT_FOR_DIALOG_INTERACTION
  3: 0x0047 [0x21] END_EVENT
  4: 0x0048 [0x00] END_REQSTACK()
```

### Event 341

#### Metadata

| Field        | Value    |
|--------------|----------|
| Entrypoint   | 0x0049   |
| Data Size    | 31 bytes |
| Instructions | 9        |

```
      00 01 02 03 04 05 06 07  08 09 0A 0B 0C 0D 0E 0F
      -- -- -- -- -- -- -- --  -- -- -- -- -- -- -- --
0040:                             42 1E F0 FF FF 7F 6F           B.....o
0050: 70 1D 06 80 23 45 07 80  F0 FF FF 7F F0 FF FF 7F  p...#E..........
0060: 71 73 74 63 08 80 21 00                           qstc..!.        
```

#### Opcodes

```
  0: 0x0049 [0x42] SET_CLI_EVENT_CANCEL_DATA()
  1: 0x004A [0x1E] EventEntity looks at LocalPlayer and starts talking
  2: 0x004F [0x6F] WAIT_FRAME_DELAY: Yield until WaitTime reaches zero
  3: 0x0050 [0x70] WAIT_ENTITY_RENDER_FLAG: Wait while EventEntity->Render.Flags3 bit 2 is set (cancel turn if not)
  4: 0x0051 [0x1D] PRINT_EVENT_MESSAGE(message_id=8136*)
    → "Oh, they're absolutely beautiful! I can't thank you enough! If you ever happen-wappen to come across $1 more $0 , I would be forever grateful if you could bring them to me."
  5: 0x0054 [0x23] WAIT_FOR_DIALOG_INTERACTION
  6: 0x0055 [0x45] LOAD_SCHEDULED_TASK: Load scheduler "qstc" with entities [LocalPlayer, LocalPlayer], work=[201*, 0*]
  7: 0x0066 [0x21] END_EVENT
  8: 0x0067 [0x00] END_REQSTACK()
```

### Event 342

#### Metadata

| Field        | Value    |
|--------------|----------|
| Entrypoint   | 0x0068   |
| Data Size    | 15 bytes |
| Instructions | 7        |

```
      00 01 02 03 04 05 06 07  08 09 0A 0B 0C 0D 0E 0F
      -- -- -- -- -- -- -- --  -- -- -- -- -- -- -- --
0060:                          1E F0 FF FF 7F 1D 09 80          ........
0070: 23 1D 0A 80 23 21 00                              #...#!.         
```

#### Opcodes

```
  0: 0x0068 [0x1E] EventEntity looks at LocalPlayer and starts talking
  1: 0x006D [0x1D] PRINT_EVENT_MESSAGE(message_id=8137*)
    → "I used to care about cute and stylish designs above all else. But in these bleak times, I can'taru afford to worry about luxuries."
  2: 0x0070 [0x23] WAIT_FOR_DIALOG_INTERACTION
  3: 0x0071 [0x1D] PRINT_EVENT_MESSAGE(message_id=8138*)
    → "I must make the most I can out of limited supplies. Yes, even a humble-wumble clothcrafter must do what she can to serve the Resistance."
  4: 0x0074 [0x23] WAIT_FOR_DIALOG_INTERACTION
  5: 0x0075 [0x21] END_EVENT
  6: 0x0076 [0x00] END_REQSTACK()
```
