# 17658636 - Akta

## Common Data

| Field            | Value                       |
|------------------|-----------------------------|
| Zone             | Abyssea - Attohwa (ID: 215) |
| Block Size       | 220 bytes                   |
| Total Events     | 2                           |
| References Count | 13                          |

## List of Events

| Event ID              | Entrypoint   |   Size |   Instructions |
|-----------------------|--------------|--------|----------------|
| [65535](#event-65535) | 0x0000       |      1 |              1 |
| [391](#event-391)     | 0x0001       |    143 |             35 |

## DAT References (imed_data)

|   Index | Hex Value   |   Dec Value |
|---------|-------------|-------------|
|       0 | 0x0003      |           3 |
|       1 | 0x0001      |           1 |
|       2 | 0x0006      |           6 |
|       3 | 0x0000      |           0 |
|       4 | 0x2089      |        8329 |
|       5 | 0x208A      |        8330 |
|       6 | 0x208B      |        8331 |
|       7 | 0x208C      |        8332 |
|       8 | 0x003C      |          60 |
|       9 | 0x208D      |        8333 |
|      10 | 0x208E      |        8334 |
|      11 | 0x208F      |        8335 |
|      12 | 0x2090      |        8336 |

## String References

- **8329**: <Wheeze>...<hack>...
- **8330**: Forgive me, young'un. This old man's health just isn't what it once was.
- **8331**: ...An' sad to say, the wife's not doin' much better. We were lucky to escape the Duchy b'fore it fell, but it looks like this may be the end o' the line for us...
- **8332**: The wife is holdin' up better than I. I wish I knew where she...<wheeze>...gets 'er strength from.
- **8333**: What with the air clearin' up, I'm feelin' better than I have in years. I'm even walkin' about to get meself some exercise.
- **8334**: ...Just around this here cave, o' course.
- **8335**: What can I say, the ol' wife takes good care o' me. If she hadn't been with me, I'd be long gone.
- **8336**: You take care o' yourself too, young'un, and someday you'll live t' be my age.

## Events

### Event 65535

#### Metadata

| Field        | Value   |
|--------------|---------|
| Entrypoint   | 0x0000  |
| Data Size    | 1 bytes |
| Instructions | 1       |

```
      00 01 02 03 04 05 06 07  08 09 0A 0B 0C 0D 0E 0F
      -- -- -- -- -- -- -- --  -- -- -- -- -- -- -- --
0000: 00                                                .               
```

#### Opcodes

```
  0: 0x0000 [0x00] END_REQSTACK()
```

### Event 391

#### Metadata

| Field        | Value     |
|--------------|-----------|
| Entrypoint   | 0x0001    |
| Data Size    | 143 bytes |
| Instructions | 35        |

```
      00 01 02 03 04 05 06 07  08 09 0A 0B 0C 0D 0E 0F
      -- -- -- -- -- -- -- --  -- -- -- -- -- -- -- --
0000:    02 02 10 00 80 03 16  00 03 00 00 01 80 03 01   ...............
0010: 00 01 80 01 35 00 02 02  10 02 80 03 2B 00 03 00  ....5.......+...
0020: 00 03 80 03 01 00 01 80  01 35 00 03 00 00 03 80  .........5......
0030: 03 01 00 03 80 1E F0 FF  FF 7F 02 01 00 01 80 00  ................
0040: 60 00 1D 04 80 23 1D 05  80 23 02 00 00 01 80 00  `....#...#......
0050: 59 00 1D 06 80 23 01 5D  00 1D 07 80 23 01 8E 00  Y....#.]....#...
0060: 5B 08 80 F8 FF FF 7F F8  FF FF 7F 74 6C 6B 30 1D  [..........tlk0.
0070: 09 80 23 1D 0A 80 23 1D  0B 80 23 1D 0C 80 23 5B  ..#...#...#...#[
0080: 08 80 F8 FF FF 7F F8 FF  FF 7F 74 6C 6B 31 21 00  ..........tlk1!.
```

#### Opcodes

```
  0: 0x0001 [0x02] IF !(Work_Zone[2] >= 3*) GOTO 0x0016
  1: 0x0009 [0x03] ExtData[1]->WorkLocal[0] = 1*
  2: 0x000E [0x03] ExtData[1]->WorkLocal[1] = 1*
  3: 0x0013 [0x01] GOTO 0x0035
  4: 0x0016 [0x02] IF !(Work_Zone[2] >= 6*) GOTO 0x002B
  5: 0x001E [0x03] ExtData[1]->WorkLocal[0] = 0*
  6: 0x0023 [0x03] ExtData[1]->WorkLocal[1] = 1*
  7: 0x0028 [0x01] GOTO 0x0035
  8: 0x002B [0x03] ExtData[1]->WorkLocal[0] = 0*
  9: 0x0030 [0x03] ExtData[1]->WorkLocal[1] = 0*

SUBROUTINE_0035:
 10: 0x0035 [0x1E] EventEntity looks at LocalPlayer and starts talking
 11: 0x003A [0x02] IF !(ExtData[1]->WorkLocal[1] == 1*) GOTO 0x0060
 12: 0x0042 [0x1D] PRINT_EVENT_MESSAGE(message_id=8329*)
    → "<Wheeze>...<hack>..."
 13: 0x0045 [0x23] WAIT_FOR_DIALOG_INTERACTION
 14: 0x0046 [0x1D] PRINT_EVENT_MESSAGE(message_id=8330*)
    → "Forgive me, young'un. This old man's health just isn't what it once was."
 15: 0x0049 [0x23] WAIT_FOR_DIALOG_INTERACTION
 16: 0x004A [0x02] IF !(ExtData[1]->WorkLocal[0] == 1*) GOTO 0x0059
 17: 0x0052 [0x1D] PRINT_EVENT_MESSAGE(message_id=8331*)
    → "...An' sad to say, the wife's not doin' much better. We were lucky to escape the Duchy b'fore it fell, but it looks like this may be the end o' the line for us..."
 18: 0x0055 [0x23] WAIT_FOR_DIALOG_INTERACTION
 19: 0x0056 [0x01] GOTO 0x005D
 20: 0x0059 [0x1D] PRINT_EVENT_MESSAGE(message_id=8332*)
    → "The wife is holdin' up better than I. I wish I knew where she...<wheeze>...gets 'er strength from."
 21: 0x005C [0x23] WAIT_FOR_DIALOG_INTERACTION

SUBROUTINE_005D:
 22: 0x005D [0x01] GOTO 0x008E
 23: 0x0060 [0x5B] LOAD_EXT_SCHEDULER: Load scheduler "tlk0" with entities [EventEntity, EventEntity], work=60*
 24: 0x006F [0x1D] PRINT_EVENT_MESSAGE(message_id=8333*)
    → "What with the air clearin' up, I'm feelin' better than I have in years. I'm even walkin' about to get meself some exercise."
 25: 0x0072 [0x23] WAIT_FOR_DIALOG_INTERACTION
 26: 0x0073 [0x1D] PRINT_EVENT_MESSAGE(message_id=8334*)
    → "...Just around this here cave, o' course."
 27: 0x0076 [0x23] WAIT_FOR_DIALOG_INTERACTION
 28: 0x0077 [0x1D] PRINT_EVENT_MESSAGE(message_id=8335*)
    → "What can I say, the ol' wife takes good care o' me. If she hadn't been with me, I'd be long gone."
 29: 0x007A [0x23] WAIT_FOR_DIALOG_INTERACTION
 30: 0x007B [0x1D] PRINT_EVENT_MESSAGE(message_id=8336*)
    → "You take care o' yourself too, young'un, and someday you'll live t' be my age."
 31: 0x007E [0x23] WAIT_FOR_DIALOG_INTERACTION
 32: 0x007F [0x5B] LOAD_EXT_SCHEDULER: Load scheduler "tlk1" with entities [EventEntity, EventEntity], work=60*

SUBROUTINE_008E:
 33: 0x008E [0x21] END_EVENT
 34: 0x008F [0x00] END_REQSTACK()
```
