# 17658632 - Gurdern

## Common Data

| Field            | Value                       |
|------------------|-----------------------------|
| Zone             | Abyssea - Attohwa (ID: 215) |
| Block Size       | 156 bytes                   |
| Total Events     | 2                           |
| References Count | 7                           |

## List of Events

| Event ID              | Entrypoint   |   Size |   Instructions |
|-----------------------|--------------|--------|----------------|
| [65535](#event-65535) | 0x0000       |      1 |              1 |
| [390](#event-390)     | 0x0001       |    100 |             21 |

## DAT References (imed_data)

|   Index | Hex Value   |   Dec Value |
|---------|-------------|-------------|
|       0 | 0x0000      |           0 |
|       1 | 0x2097      |        8343 |
|       2 | 0x0045      |          69 |
|       3 | 0x2098      |        8344 |
|       4 | 0x2099      |        8345 |
|       5 | 0x209A      |        8346 |
|       6 | 0x209B      |        8347 |

## String References

- **8343**: See the chocobos over there? We lower them down from here when we need 'em.
- **8344**: I hardly have t' tell ya, but this is quite the task. Brutus gives us the orders, and still it takes a few of our strongest men to do the job.
- **8345**: It's a hassle, but it's the only way we can keep 'em from runnin' off, y'see.
- **8346**: Brutus is somethin' else though, ain't he? A Galka like me, that's one thing, but I'd never figure a Hume to be able t' pull it off.
- **8347**: He says it's 'is love for the birds that gives 'im strength. Pretty touching, don't ya think?

## Events

### Event 65535

#### Metadata

| Field        | Value   |
|--------------|---------|
| Entrypoint   | 0x0000  |
| Data Size    | 1 bytes |
| Instructions | 1       |

```
      00 01 02 03 04 05 06 07  08 09 0A 0B 0C 0D 0E 0F
      -- -- -- -- -- -- -- --  -- -- -- -- -- -- -- --
0000: 00                                                .               
```

#### Opcodes

```
  0: 0x0000 [0x00] END_REQSTACK()
```

### Event 390

#### Metadata

| Field        | Value     |
|--------------|-----------|
| Entrypoint   | 0x0001    |
| Data Size    | 100 bytes |
| Instructions | 21        |

```
      00 01 02 03 04 05 06 07  08 09 0A 0B 0C 0D 0E 0F
      -- -- -- -- -- -- -- --  -- -- -- -- -- -- -- --
0000:    1E F0 FF FF 7F 6F 70  02 02 10 00 80 00 3D 00   .....op......=.
0010: 1D 01 80 23 66 02 80 F8  FF FF 7F F8 FF FF 7F 74  ...#f..........t
0020: 77 61 30 1D 03 80 23 1D  04 80 23 66 02 80 F8 FF  wa0...#...#f....
0030: FF 7F F8 FF FF 7F 74 77  61 31 01 63 00 66 02 80  ......twa1.c.f..
0040: F8 FF FF 7F F8 FF FF 7F  74 77 61 30 1D 05 80 23  ........twa0...#
0050: 1D 06 80 23 66 02 80 F8  FF FF 7F F8 FF FF 7F 74  ...#f..........t
0060: 77 61 31 21 00                                    wa1!.           
```

#### Opcodes

```
  0: 0x0001 [0x1E] EventEntity looks at LocalPlayer and starts talking
  1: 0x0006 [0x6F] WAIT_FRAME_DELAY: Yield until WaitTime reaches zero
  2: 0x0007 [0x70] WAIT_ENTITY_RENDER_FLAG: Wait while EventEntity->Render.Flags3 bit 2 is set (cancel turn if not)
  3: 0x0008 [0x02] IF !(Work_Zone[2] == 0*) GOTO 0x003D
  4: 0x0010 [0x1D] PRINT_EVENT_MESSAGE(message_id=8343*)
    → "See the chocobos over there? We lower them down from here when we need 'em."
  5: 0x0013 [0x23] WAIT_FOR_DIALOG_INTERACTION
  6: 0x0014 [0x66] LOAD_EXT_SCHEDULER_MAIN: Load scheduler "twa0" with entities [EventEntity, EventEntity], work=69*
  7: 0x0023 [0x1D] PRINT_EVENT_MESSAGE(message_id=8344*)
    → "I hardly have t' tell ya, but this is quite the task. Brutus gives us the orders, and still it takes a few of our strongest men to do the job."
  8: 0x0026 [0x23] WAIT_FOR_DIALOG_INTERACTION
  9: 0x0027 [0x1D] PRINT_EVENT_MESSAGE(message_id=8345*)
    → "It's a hassle, but it's the only way we can keep 'em from runnin' off, y'see."
 10: 0x002A [0x23] WAIT_FOR_DIALOG_INTERACTION
 11: 0x002B [0x66] LOAD_EXT_SCHEDULER_MAIN: Load scheduler "twa1" with entities [EventEntity, EventEntity], work=69*
 12: 0x003A [0x01] GOTO 0x0063
 13: 0x003D [0x66] LOAD_EXT_SCHEDULER_MAIN: Load scheduler "twa0" with entities [EventEntity, EventEntity], work=69*
 14: 0x004C [0x1D] PRINT_EVENT_MESSAGE(message_id=8346*)
    → "Brutus is somethin' else though, ain't he? A Galka like me, that's one thing, but I'd never figure a Hume to be able t' pull it off."
 15: 0x004F [0x23] WAIT_FOR_DIALOG_INTERACTION
 16: 0x0050 [0x1D] PRINT_EVENT_MESSAGE(message_id=8347*)
    → "He says it's 'is love for the birds that gives 'im strength. Pretty touching, don't ya think?"
 17: 0x0053 [0x23] WAIT_FOR_DIALOG_INTERACTION
 18: 0x0054 [0x66] LOAD_EXT_SCHEDULER_MAIN: Load scheduler "twa1" with entities [EventEntity, EventEntity], work=69*

SUBROUTINE_0063:
 19: 0x0063 [0x21] END_EVENT
 20: 0x0064 [0x00] END_REQSTACK()
```
