# 17658640 - Rainhard

## Common Data

| Field            | Value                       |
|------------------|-----------------------------|
| Zone             | Abyssea - Attohwa (ID: 215) |
| Block Size       | 84 bytes                    |
| Total Events     | 2                           |
| References Count | 4                           |

## List of Events

| Event ID              | Entrypoint   |   Size |   Instructions |
|-----------------------|--------------|--------|----------------|
| [65535](#event-65535) | 0x0000       |      1 |              1 |
| [393](#event-393)     | 0x0001       |     43 |             17 |

## DAT References (imed_data)

|   Index | Hex Value   |   Dec Value |
|---------|-------------|-------------|
|       0 | 0x0000      |           0 |
|       1 | 0x209C      |        8348 |
|       2 | 0x209D      |        8349 |
|       3 | 0x209E      |        8350 |

## String References

- **8348**: Cross this footbridge to the other side of the chasm, make your way through the cave, and eventually you'll come to Parradamo Tor. Or are you headed for the outpost, by any chance? Then you'll want to follow this narrow path along the cliff face before me.
- **8349**: Wherever you're headed, I recommend you activate any veridical confluxes you encounter.
- **8350**: It'll cost you cruor, of course, but it'll make future travel that much easier.

## Events

### Event 65535

#### Metadata

| Field        | Value   |
|--------------|---------|
| Entrypoint   | 0x0000  |
| Data Size    | 1 bytes |
| Instructions | 1       |

```
      00 01 02 03 04 05 06 07  08 09 0A 0B 0C 0D 0E 0F
      -- -- -- -- -- -- -- --  -- -- -- -- -- -- -- --
0000: 00                                                .               
```

#### Opcodes

```
  0: 0x0000 [0x00] END_REQSTACK()
```

### Event 393

#### Metadata

| Field        | Value    |
|--------------|----------|
| Entrypoint   | 0x0001   |
| Data Size    | 43 bytes |
| Instructions | 17       |

```
      00 01 02 03 04 05 06 07  08 09 0A 0B 0C 0D 0E 0F
      -- -- -- -- -- -- -- --  -- -- -- -- -- -- -- --
0000:    39 00 80 6F 70 6E F8  FF FF 7F 00 80 99 F8 FF   9..opn.........
0010: FF 7F 1D 01 80 23 5E 69  64 6C 30 1E F0 FF FF 7F  .....#^idl0.....
0020: 6F 70 1D 02 80 23 1D 03  80 23 21 00              op...#...#!.    
```

#### Opcodes

```
  0: 0x0001 [0x39] SET_ENTITY_DIRECTION(direction=0.0°*)
  1: 0x0004 [0x6F] WAIT_FRAME_DELAY: Yield until WaitTime reaches zero
  2: 0x0005 [0x70] WAIT_ENTITY_RENDER_FLAG: Wait while EventEntity->Render.Flags3 bit 2 is set (cancel turn if not)
  3: 0x0006 [0x6E] EventEntity uses emote 0*
  4: 0x000D [0x99] Wait for EventEntity animation to complete
  5: 0x0012 [0x1D] PRINT_EVENT_MESSAGE(message_id=8348*)
    → "Cross this footbridge to the other side of the chasm, make your way through the cave, and eventually you'll come to Parradamo Tor. Or are you headed for the outpost, by any chance? Then you'll want to follow this narrow path along the cliff face before me."
  6: 0x0015 [0x23] WAIT_FOR_DIALOG_INTERACTION
  7: 0x0016 [0x5E] EventEntity goes idle (kills current action) (animation: "idl0")
  8: 0x001B [0x1E] EventEntity looks at LocalPlayer and starts talking
  9: 0x0020 [0x6F] WAIT_FRAME_DELAY: Yield until WaitTime reaches zero
 10: 0x0021 [0x70] WAIT_ENTITY_RENDER_FLAG: Wait while EventEntity->Render.Flags3 bit 2 is set (cancel turn if not)
 11: 0x0022 [0x1D] PRINT_EVENT_MESSAGE(message_id=8349*)
    → "Wherever you're headed, I recommend you activate any veridical confluxes you encounter."
 12: 0x0025 [0x23] WAIT_FOR_DIALOG_INTERACTION
 13: 0x0026 [0x1D] PRINT_EVENT_MESSAGE(message_id=8350*)
    → "It'll cost you cruor, of course, but it'll make future travel that much easier."
 14: 0x0029 [0x23] WAIT_FOR_DIALOG_INTERACTION
 15: 0x002A [0x21] END_EVENT
 16: 0x002B [0x00] END_REQSTACK()
```
