# 17658489 - Resistance Sergeant

## Common Data

| Field            | Value                       |
|------------------|-----------------------------|
| Zone             | Abyssea - Attohwa (ID: 215) |
| Block Size       | 1324 bytes                  |
| Total Events     | 2                           |
| References Count | 50                          |

## List of Events

| Event ID              | Entrypoint   |   Size |   Instructions |
|-----------------------|--------------|--------|----------------|
| [65535](#event-65535) | 0x0000       |      1 |              1 |
| [121](#event-121)     | 0x0001       |   1096 |            243 |

## DAT References (imed_data)

|   Index | Hex Value   |   Dec Value |
|---------|-------------|-------------|
|       0 | 0x0000      |           0 |
|       1 | 0x0001      |           1 |
|       2 | 0x0007      |           7 |
|       3 | 0x0008      |           8 |
|       4 | 0x000A      |          10 |
|       5 | 0x000B      |          11 |
|       6 | 0x000D      |          13 |
|       7 | 0x000E      |          14 |
|       8 | 0x0010      |          16 |
|       9 | 0x0011      |          17 |
|      10 | 0x0013      |          19 |
|      11 | 0x0014      |          20 |
|      12 | 0x0016      |          22 |
|      13 | 0x0002      |           2 |
|      14 | 0x0003      |           3 |
|      15 | 0x0005      |           5 |
|      16 | 0x0006      |           6 |
|      17 | 0x0009      |           9 |
|      18 | 0x000C      |          12 |
|      19 | 0x000F      |          15 |
|      20 | 0x0012      |          18 |
|      21 | 0x0015      |          21 |
|      22 | 0x0018      |          24 |
|      23 | 0x1E59      |        7769 |
|      24 | 0x1E24      |        7716 |
|      25 | 0x1E25      |        7717 |
|      26 | 0x1E26      |        7718 |
|      27 | 0x1E27      |        7719 |
|      28 | 0x1E28      |        7720 |
|      29 | 0x1E29      |        7721 |
|      30 | 0x06A6      |        1702 |
|      31 | 0x06A7      |        1703 |
|      32 | 0x06A8      |        1704 |
|      33 | 0x06A9      |        1705 |
|      34 | 0x06AA      |        1706 |
|      35 | 0x06AB      |        1707 |
|      36 | 0x06AC      |        1708 |
|      37 | 0x1E2A      |        7722 |
|      38 | 0x1E2B      |        7723 |
|      39 | 0x1E2C      |        7724 |
|      40 | 0x1E2D      |        7725 |
|      41 | 0x1E2E      |        7726 |
|      42 | 0x0004      |           4 |
|      43 | 0x1E2F      |        7727 |
|      44 | 0x1E30      |        7728 |
|      45 | 0x1E31      |        7729 |
|      46 | 0x1E32      |        7730 |
|      47 | 0x1E33      |        7731 |
|      48 | 0x1E34      |        7732 |
|      49 | 0x1E35      |        7733 |

## String References

- **7716**: Learn about the status of... [Nothing right now./The outpost./The martello cores./The [eastern/southeastern/southern/southwestern/western/northwestern/northern/northeastern] verge./The [eastern/southeastern/southern/southwestern/western/northwestern/northern/northeastern] verge./The [eastern/southeastern/southern/southwestern/western/northwestern/northern/northeastern] verge.]
- **7717**: Currently, the status of the outpost is as follows:
- **7718**: Condition: $0% Durability: [$26/$26$26/$26$26$26/$26$26$26$26/$26$26$26$26$26]
- **7719**: Currently, the status of the garrison is as follows:
- **7720**: Attack: [$26/$26$26/$26$26$26/$26$26$26$26/$26$26$26$26$26] Delay: [$26/$26$26/$26$26$26/$26$26$26$26/$26$26$26$26$26] Skill: [$26/$26$26/$26$26$26/$26$26$26$26/$26$26$26$26$26] Recovery: [$26/$26$26/$26$26$26/$26$26$26$26/$26$26$26$26$26]
- **7721**: The following cores are currently installed:
- **7722**: Choose a core to examine. [None./3 (Level: $1)/$3 (Level: $3)/$3 (Level: $5)/$3 (Level: $7)/$3 (Level: $9)/$3 (Level: $11)/$3 (Level: $13)]
- **7723**: Let's see... The energy output level for the $3 is currently $1.
- **7724**: Martello recast time in the area is [unimproved/very slightly reduced/slightly reduced/moderately reduced/greatly reduced/drastically reduced].
- **7725**: Veridical conflux operating cost in the area is [unimproved/very slightly reduced/slightly reduced/moderately reduced/greatly reduced/drastically reduced].
- **7726**: Support effect potency in the area is [unimproved/very slightly enhanced/slightly enhanced/moderately enhanced/greatly enhanced/drastically enhanced].
- **7727**: Experience yield in the area is [unimproved/very slightly increased/slightly increased/moderately increased/greatly increased/drastically increased].
- **7728**: Cruor yield in the area is [unimproved/very slightly increased/slightly increased/moderately increased/greatly increased/drastically increased].
- **7729**: Pyxis manifestation rate in the area is [unimproved/very slightly increased/slightly increased/moderately increased/greatly increased/drastically increased].
- **7730**: Treasure yield in the area is [unimproved/very slightly increased/slightly increased/moderately increased/greatly increased/drastically increased].
- **7731**: Intel estimates a $1 percent chance that the enemy will attack from the [eastern/southeastern/southern/southern/western/northwestern/northern/northeastern] verge. [There is time still to shore up our defenses./We had best step up our preparations./I pray that the traps will have the desired effect./They will be upon us at any moment now./They come even as we speak!]
- **7732**: The fore trap's current energy store is [paltry/low/moderate/high/brimming]. We expect that it will weaken the enemy's attack [only very slightly/only slightly/moderately/considerably/drastically].
- **7733**: The rear trap's current energy store is [paltry/low/moderate/high/brimming]. We expect that it will afflict the enemy with [only a very brief/only a brief/a moderate/an extended/a greatly extended] duration of paralysis.
- **7769**: Greetings, friend. I am the resistance sergeant for this area. I can apprise you of the current situation, if you wish.

## Events

### Event 65535

#### Metadata

| Field        | Value   |
|--------------|---------|
| Entrypoint   | 0x0000  |
| Data Size    | 1 bytes |
| Instructions | 1       |

```
      00 01 02 03 04 05 06 07  08 09 0A 0B 0C 0D 0E 0F
      -- -- -- -- -- -- -- --  -- -- -- -- -- -- -- --
0000: 00                                                .               
```

#### Opcodes

```
  0: 0x0000 [0x00] END_REQSTACK()
```

### Event 121

#### Metadata

| Field        | Value      |
|--------------|------------|
| Entrypoint   | 0x0001     |
| Data Size    | 1096 bytes |
| Instructions | 243        |

```
      00 01 02 03 04 05 06 07  08 09 0A 0B 0C 0D 0E 0F
      -- -- -- -- -- -- -- --  -- -- -- -- -- -- -- --
0000:    06 01 00 06 02 00 06  03 00 06 04 00 06 05 00   ...............
0010: 06 06 00 06 07 00 06 08  00 06 09 00 06 0A 00 06  ................
0020: 0B 00 06 0C 00 06 0D 00  06 0E 00 06 0F 00 06 10  ................
0030: 00 06 11 00 06 12 00 06  13 00 06 14 00 06 15 00  ................
0040: 06 16 00 06 17 00 06 18  00 06 19 00 06 1A 00 06  ................
0050: 1B 00 06 1C 00 06 1D 00  06 1E 00 06 1F 00 06 20  ............... 
0060: 00 06 21 00 06 22 00 06  23 00 06 24 00 06 25 00  ..!.."..#..$..%.
0070: 06 26 00 06 27 00 03 01  00 02 10 41 00 80 00 80  .&..'......A....
0080: 03 10 02 00 41 01 80 02  80 03 10 03 00 41 03 80  ....A........A..
0090: 04 80 03 10 04 00 41 05  80 06 80 03 10 05 00 41  ......A........A
00A0: 07 80 08 80 03 10 06 00  41 09 80 0A 80 03 10 07  ........A.......
00B0: 00 41 0B 80 0C 80 03 10  08 00 41 00 80 0D 80 04  .A........A.....
00C0: 10 09 00 41 0E 80 0F 80  04 10 0A 00 41 10 80 03  ...A........A...
00D0: 80 04 10 0B 00 41 11 80  05 80 04 10 0C 00 41 12  .....A........A.
00E0: 80 07 80 04 10 0D 00 41  13 80 09 80 04 10 0E 00  .......A........
00F0: 41 14 80 0B 80 04 10 0F  00 41 00 80 0D 80 05 10  A........A......
0100: 10 00 41 0E 80 11 80 05  10 11 00 41 04 80 12 80  ..A........A....
0110: 05 10 12 00 41 06 80 13  80 05 10 13 00 41 08 80  ....A........A..
0120: 14 80 05 10 14 00 41 0A  80 15 80 05 10 15 00 41  ......A........A
0130: 0C 80 16 80 05 10 16 00  41 00 80 0D 80 06 10 17  ........A.......
0140: 00 41 0E 80 11 80 06 10  18 00 41 04 80 12 80 06  .A........A.....
0150: 10 19 00 41 06 80 13 80  06 10 1A 00 41 08 80 14  ...A........A...
0160: 80 06 10 1B 00 41 0A 80  15 80 06 10 1C 00 41 0C  .....A........A.
0170: 80 16 80 06 10 1D 00 41  00 80 0D 80 07 10 1E 00  .......A........
0180: 41 0E 80 11 80 07 10 1F  00 41 04 80 12 80 07 10  A........A......
0190: 20 00 41 06 80 13 80 07  10 21 00 41 08 80 14 80   .A......!.A....
01A0: 07 10 22 00 41 0A 80 15  80 07 10 23 00 41 0C 80  ..".A......#.A..
01B0: 16 80 07 10 24 00 03 25  00 08 10 20 01 1E F0 FF  ....$..%... ....
01C0: FF 7F 1D 17 80 23 05 26  00 02 26 00 00 80 02 47  .....#.&..&....G
01D0: 04 03 02 10 10 00 03 03  10 17 00 03 04 10 1E 00  ................
01E0: 24 18 80 00 80 00 80 25  02 00 10 00 80 00 F6 01  $......%........
01F0: 06 26 00 01 44 04 02 00  10 01 80 00 2F 02 1D 19  .&..D......./...
0200: 80 23 03 02 10 03 00 03  03 10 04 00 48 1A 80 23  .#..........H..#
0210: 1D 1B 80 23 03 02 10 05  00 03 03 10 06 00 03 04  ...#............
0220: 10 07 00 03 05 10 08 00  48 1C 80 23 01 44 04 02  ........H..#.D..
0230: 00 10 0D 80 00 96 03 1D  1D 80 23 05 27 00 02 27  ..........#.'..'
0240: 00 00 80 02 93 03 03 02  10 1E 80 03 03 10 09 00  ................
0250: 03 04 10 1F 80 03 05 10  0A 00 03 06 10 20 80 03  ............. ..
0260: 07 10 0B 00 03 08 10 21  80 03 09 10 0C 00 03 00  .......!........
0270: 17 22 80 03 01 17 0D 00  03 02 17 23 80 03 03 17  .".........#....
0280: 0E 00 03 04 17 24 80 03  05 17 0F 00 24 25 80 00  .....$......$%..
0290: 80 00 80 25 02 00 10 00  80 00 A2 02 06 27 00 01  ...%.........'..
02A0: 90 03 02 00 10 01 80 00  C4 02 03 02 10 1E 80 03  ................
02B0: 03 10 09 00 1D 26 80 23  03 02 10 09 00 1D 27 80  .....&.#......'.
02C0: 23 01 90 03 02 00 10 0D  80 00 E6 02 03 02 10 1F  #...............
02D0: 80 03 03 10 0A 00 1D 26  80 23 03 02 10 0A 00 1D  .......&.#......
02E0: 28 80 23 01 90 03 02 00  10 0E 80 00 08 03 03 02  (.#.............
02F0: 10 20 80 03 03 10 0B 00  1D 26 80 23 03 02 10 0B  . .......&.#....
0300: 00 1D 29 80 23 01 90 03  02 00 10 2A 80 00 2A 03  ..).#......*..*.
0310: 03 02 10 21 80 03 03 10  0C 00 1D 26 80 23 03 02  ...!.......&.#..
0320: 10 0C 00 1D 2B 80 23 01  90 03 02 00 10 0F 80 00  ....+.#.........
0330: 4C 03 03 02 10 22 80 03  03 10 0D 00 1D 26 80 23  L....".......&.#
0340: 03 02 10 0D 00 1D 2C 80  23 01 90 03 02 00 10 10  ......,.#.......
0350: 80 00 6E 03 03 02 10 23  80 03 03 10 0E 00 1D 26  ..n....#.......&
0360: 80 23 03 02 10 0E 00 1D  2D 80 23 01 90 03 02 00  .#......-.#.....
0370: 10 02 80 00 90 03 03 02  10 24 80 03 03 10 0F 00  .........$......
0380: 1D 26 80 23 03 02 10 0F  00 1D 2E 80 23 01 90 03  .&.#........#...
0390: 01 3E 02 01 44 04 02 00  10 0E 80 00 D0 03 03 02  .>..D...........
03A0: 10 10 00 03 03 10 11 00  03 04 10 12 00 1D 2F 80  ............../.
03B0: 23 03 02 10 13 00 03 03  10 14 00 1D 30 80 23 03  #...........0.#.
03C0: 02 10 15 00 03 03 10 16  00 1D 31 80 23 01 44 04  ..........1.#.D.
03D0: 02 00 10 2A 80 00 0A 04  03 02 10 17 00 03 03 10  ...*............
03E0: 18 00 03 04 10 19 00 1D  2F 80 23 03 02 10 1A 00  ......../.#.....
03F0: 03 03 10 1B 00 1D 30 80  23 03 02 10 1C 00 03 03  ......0.#.......
0400: 10 1D 00 1D 31 80 23 01  44 04 02 00 10 0F 80 00  ....1.#.D.......
0410: 44 04 03 02 10 1E 00 03  03 10 1F 00 03 04 10 20  D.............. 
0420: 00 1D 2F 80 23 03 02 10  21 00 03 03 10 22 00 1D  ../.#...!...."..
0430: 30 80 23 03 02 10 23 00  03 03 10 24 00 1D 31 80  0.#...#....$..1.
0440: 23 01 44 04 01 C9 01 21  00                       #.D....!.       
```

#### Opcodes

```
  0: 0x0001 [0x06] ExtData[1]->WorkLocal[1] = 0
  1: 0x0004 [0x06] ExtData[1]->WorkLocal[2] = 0
  2: 0x0007 [0x06] ExtData[1]->WorkLocal[3] = 0
  3: 0x000A [0x06] ExtData[1]->WorkLocal[4] = 0
  4: 0x000D [0x06] ExtData[1]->WorkLocal[5] = 0
  5: 0x0010 [0x06] ExtData[1]->WorkLocal[6] = 0
  6: 0x0013 [0x06] ExtData[1]->WorkLocal[7] = 0
  7: 0x0016 [0x06] ExtData[1]->WorkLocal[8] = 0
  8: 0x0019 [0x06] ExtData[1]->WorkLocal[9] = 0
  9: 0x001C [0x06] ExtData[1]->WorkLocal[10] = 0
 10: 0x001F [0x06] ExtData[1]->WorkLocal[11] = 0
 11: 0x0022 [0x06] ExtData[1]->WorkLocal[12] = 0
 12: 0x0025 [0x06] ExtData[1]->WorkLocal[13] = 0
 13: 0x0028 [0x06] ExtData[1]->WorkLocal[14] = 0
 14: 0x002B [0x06] ExtData[1]->WorkLocal[15] = 0
 15: 0x002E [0x06] ExtData[1]->WorkLocal[16] = 0
 16: 0x0031 [0x06] ExtData[1]->WorkLocal[17] = 0
 17: 0x0034 [0x06] ExtData[1]->WorkLocal[18] = 0
 18: 0x0037 [0x06] ExtData[1]->WorkLocal[19] = 0
 19: 0x003A [0x06] ExtData[1]->WorkLocal[20] = 0
 20: 0x003D [0x06] ExtData[1]->WorkLocal[21] = 0
 21: 0x0040 [0x06] ExtData[1]->WorkLocal[22] = 0
 22: 0x0043 [0x06] ExtData[1]->WorkLocal[23] = 0
 23: 0x0046 [0x06] ExtData[1]->WorkLocal[24] = 0
 24: 0x0049 [0x06] ExtData[1]->WorkLocal[25] = 0
 25: 0x004C [0x06] ExtData[1]->WorkLocal[26] = 0
 26: 0x004F [0x06] ExtData[1]->WorkLocal[27] = 0
 27: 0x0052 [0x06] ExtData[1]->WorkLocal[28] = 0
 28: 0x0055 [0x06] ExtData[1]->WorkLocal[29] = 0
 29: 0x0058 [0x06] ExtData[1]->WorkLocal[30] = 0
 30: 0x005B [0x06] ExtData[1]->WorkLocal[31] = 0
 31: 0x005E [0x06] ExtData[1]->WorkLocal[32] = 0
 32: 0x0061 [0x06] ExtData[1]->WorkLocal[33] = 0
 33: 0x0064 [0x06] ExtData[1]->WorkLocal[34] = 0
 34: 0x0067 [0x06] ExtData[1]->WorkLocal[35] = 0
 35: 0x006A [0x06] ExtData[1]->WorkLocal[36] = 0
 36: 0x006D [0x06] ExtData[1]->WorkLocal[37] = 0
 37: 0x0070 [0x06] ExtData[1]->WorkLocal[38] = 0
 38: 0x0073 [0x06] ExtData[1]->WorkLocal[39] = 0
 39: 0x0076 [0x03] ExtData[1]->WorkLocal[1] = Work_Zone[2]
 40: 0x007B [0x41] ExtData[1]->WorkLocal[2] = Work_Zone[3] (bits 0*-0*)
 41: 0x0084 [0x41] ExtData[1]->WorkLocal[3] = Work_Zone[3] (bits 1*-7*)
 42: 0x008D [0x41] ExtData[1]->WorkLocal[4] = Work_Zone[3] (bits 8*-10*)
 43: 0x0096 [0x41] ExtData[1]->WorkLocal[5] = Work_Zone[3] (bits 11*-13*)
 44: 0x009F [0x41] ExtData[1]->WorkLocal[6] = Work_Zone[3] (bits 14*-16*)
 45: 0x00A8 [0x41] ExtData[1]->WorkLocal[7] = Work_Zone[3] (bits 17*-19*)
 46: 0x00B1 [0x41] ExtData[1]->WorkLocal[8] = Work_Zone[3] (bits 20*-22*)
 47: 0x00BA [0x41] ExtData[1]->WorkLocal[9] = Work_Zone[4] (bits 0*-2*)
 48: 0x00C3 [0x41] ExtData[1]->WorkLocal[10] = Work_Zone[4] (bits 3*-5*)
 49: 0x00CC [0x41] ExtData[1]->WorkLocal[11] = Work_Zone[4] (bits 6*-8*)
 50: 0x00D5 [0x41] ExtData[1]->WorkLocal[12] = Work_Zone[4] (bits 9*-11*)
 51: 0x00DE [0x41] ExtData[1]->WorkLocal[13] = Work_Zone[4] (bits 12*-14*)
 52: 0x00E7 [0x41] ExtData[1]->WorkLocal[14] = Work_Zone[4] (bits 15*-17*)
 53: 0x00F0 [0x41] ExtData[1]->WorkLocal[15] = Work_Zone[4] (bits 18*-20*)
 54: 0x00F9 [0x41] ExtData[1]->WorkLocal[16] = Work_Zone[5] (bits 0*-2*)
 55: 0x0102 [0x41] ExtData[1]->WorkLocal[17] = Work_Zone[5] (bits 3*-9*)
 56: 0x010B [0x41] ExtData[1]->WorkLocal[18] = Work_Zone[5] (bits 10*-12*)
 57: 0x0114 [0x41] ExtData[1]->WorkLocal[19] = Work_Zone[5] (bits 13*-15*)
 58: 0x011D [0x41] ExtData[1]->WorkLocal[20] = Work_Zone[5] (bits 16*-18*)
 59: 0x0126 [0x41] ExtData[1]->WorkLocal[21] = Work_Zone[5] (bits 19*-21*)
 60: 0x012F [0x41] ExtData[1]->WorkLocal[22] = Work_Zone[5] (bits 22*-24*)
 61: 0x0138 [0x41] ExtData[1]->WorkLocal[23] = Work_Zone[6] (bits 0*-2*)
 62: 0x0141 [0x41] ExtData[1]->WorkLocal[24] = Work_Zone[6] (bits 3*-9*)
 63: 0x014A [0x41] ExtData[1]->WorkLocal[25] = Work_Zone[6] (bits 10*-12*)
 64: 0x0153 [0x41] ExtData[1]->WorkLocal[26] = Work_Zone[6] (bits 13*-15*)
 65: 0x015C [0x41] ExtData[1]->WorkLocal[27] = Work_Zone[6] (bits 16*-18*)
 66: 0x0165 [0x41] ExtData[1]->WorkLocal[28] = Work_Zone[6] (bits 19*-21*)
 67: 0x016E [0x41] ExtData[1]->WorkLocal[29] = Work_Zone[6] (bits 22*-24*)
 68: 0x0177 [0x41] ExtData[1]->WorkLocal[30] = Work_Zone[7] (bits 0*-2*)
 69: 0x0180 [0x41] ExtData[1]->WorkLocal[31] = Work_Zone[7] (bits 3*-9*)
 70: 0x0189 [0x41] ExtData[1]->WorkLocal[32] = Work_Zone[7] (bits 10*-12*)
 71: 0x0192 [0x41] ExtData[1]->WorkLocal[33] = Work_Zone[7] (bits 13*-15*)
 72: 0x019B [0x41] ExtData[1]->WorkLocal[34] = Work_Zone[7] (bits 16*-18*)
 73: 0x01A4 [0x41] ExtData[1]->WorkLocal[35] = Work_Zone[7] (bits 19*-21*)
 74: 0x01AD [0x41] ExtData[1]->WorkLocal[36] = Work_Zone[7] (bits 22*-24*)
 75: 0x01B6 [0x03] ExtData[1]->WorkLocal[37] = Work_Zone[8]
 76: 0x01BB [0x20] SET_CLI_EVENT_UC_FLAG: Lock player control
 77: 0x01BD [0x1E] EventEntity looks at LocalPlayer and starts talking
 78: 0x01C2 [0x1D] PRINT_EVENT_MESSAGE(message_id=7769*)
    → "Greetings, friend. I am the resistance sergeant for this area. I can apprise you of the current situation, if you wish."
 79: 0x01C5 [0x23] WAIT_FOR_DIALOG_INTERACTION
 80: 0x01C6 [0x05] ExtData[1]->WorkLocal[38] = 1
 81: 0x01C9 [0x02] IF !(ExtData[1]->WorkLocal[38] <= 0*) GOTO 0x0447
 82: 0x01D1 [0x03] Work_Zone[2] = ExtData[1]->WorkLocal[16]
 83: 0x01D6 [0x03] Work_Zone[3] = ExtData[1]->WorkLocal[23]
 84: 0x01DB [0x03] Work_Zone[4] = ExtData[1]->WorkLocal[30]
 85: 0x01E0 [0x24] CREATE_DIALOG(message_id=7716*, default_option=0*, option_flags=0*)
    → "Learn about the status of... [Nothing right now./The outpost./The martello cores./The [eastern/southeastern/southern/southwestern/western/northwestern/northern/northeastern] verge./The [eastern/southeastern/southern/southwestern/western/northwestern/northern/northeastern] verge./The [eastern/southeastern/southern/southwestern/western/northwestern/northern/northeastern] verge.]"
 86: 0x01E7 [0x25] WAIT_DIALOG_SELECT()
 87: 0x01E8 [0x02] IF !(Work_Zone[0] == 0*) GOTO 0x01F6
 88: 0x01F0 [0x06] ExtData[1]->WorkLocal[38] = 0
 89: 0x01F3 [0x01] GOTO 0x0444
 90: 0x01F6 [0x02] IF !(Work_Zone[0] == 1*) GOTO 0x022F
 91: 0x01FE [0x1D] PRINT_EVENT_MESSAGE(message_id=7717*)
    → "Currently, the status of the outpost is as follows:"
 92: 0x0201 [0x23] WAIT_FOR_DIALOG_INTERACTION
 93: 0x0202 [0x03] Work_Zone[2] = ExtData[1]->WorkLocal[3]
 94: 0x0207 [0x03] Work_Zone[3] = ExtData[1]->WorkLocal[4]
 95: 0x020C [0x48] [System] [7718*]:
    → "Condition: $0% Durability: [$26/$26$26/$26$26$26/$26$26$26$26/$26$26$26$26$26]"
 96: 0x020F [0x23] WAIT_FOR_DIALOG_INTERACTION
 97: 0x0210 [0x1D] PRINT_EVENT_MESSAGE(message_id=7719*)
    → "Currently, the status of the garrison is as follows:"
 98: 0x0213 [0x23] WAIT_FOR_DIALOG_INTERACTION
 99: 0x0214 [0x03] Work_Zone[2] = ExtData[1]->WorkLocal[5]
100: 0x0219 [0x03] Work_Zone[3] = ExtData[1]->WorkLocal[6]
101: 0x021E [0x03] Work_Zone[4] = ExtData[1]->WorkLocal[7]
102: 0x0223 [0x03] Work_Zone[5] = ExtData[1]->WorkLocal[8]
103: 0x0228 [0x48] [System] [7720*]:
    → "Attack: [$26/$26$26/$26$26$26/$26$26$26$26/$26$26$26$26$26] Delay: [$26/$26$26/$26$26$26/$26$26$26$26/$26$26$26$26$26] Skill: [$26/$26$26/$26$26$26/$26$26$26$26/$26$26$26$26$26] Recovery: [$26/$26$26/$26$26$26/$26$26$26$26/$26$26$26$26$26]"
104: 0x022B [0x23] WAIT_FOR_DIALOG_INTERACTION
105: 0x022C [0x01] GOTO 0x0444
106: 0x022F [0x02] IF !(Work_Zone[0] == 2*) GOTO 0x0396
107: 0x0237 [0x1D] PRINT_EVENT_MESSAGE(message_id=7721*)
    → "The following cores are currently installed:"
108: 0x023A [0x23] WAIT_FOR_DIALOG_INTERACTION
109: 0x023B [0x05] ExtData[1]->WorkLocal[39] = 1

SUBROUTINE_023E:
110: 0x023E [0x02] IF !(ExtData[1]->WorkLocal[39] <= 0*) GOTO 0x0393
111: 0x0246 [0x03] Work_Zone[2] = 1702*
112: 0x024B [0x03] Work_Zone[3] = ExtData[1]->WorkLocal[9]
113: 0x0250 [0x03] Work_Zone[4] = 1703*
114: 0x0255 [0x03] Work_Zone[5] = ExtData[1]->WorkLocal[10]
115: 0x025A [0x03] Work_Zone[6] = 1704*
116: 0x025F [0x03] Work_Zone[7] = ExtData[1]->WorkLocal[11]
117: 0x0264 [0x03] Work_Zone[8] = 1705*
118: 0x0269 [0x03] Work_Zone[9] = ExtData[1]->WorkLocal[12]
119: 0x026E [0x03] Work_Zone_1700[0] = 1706*
120: 0x0273 [0x03] Work_Zone_1700[1] = ExtData[1]->WorkLocal[13]
121: 0x0278 [0x03] Work_Zone_1700[2] = 1707*
122: 0x027D [0x03] Work_Zone_1700[3] = ExtData[1]->WorkLocal[14]
123: 0x0282 [0x03] Work_Zone_1700[4] = 1708*
124: 0x0287 [0x03] Work_Zone_1700[5] = ExtData[1]->WorkLocal[15]
125: 0x028C [0x24] CREATE_DIALOG(message_id=7722*, default_option=0*, option_flags=0*)
    → "Choose a core to examine. [None./3 (Level: $1)/$3 (Level: $3)/$3 (Level: $5)/$3 (Level: $7)/$3 (Level: $9)/$3 (Level: $11)/$3 (Level: $13)]"
126: 0x0293 [0x25] WAIT_DIALOG_SELECT()
127: 0x0294 [0x02] IF !(Work_Zone[0] == 0*) GOTO 0x02A2
128: 0x029C [0x06] ExtData[1]->WorkLocal[39] = 0
129: 0x029F [0x01] GOTO 0x0390
130: 0x02A2 [0x02] IF !(Work_Zone[0] == 1*) GOTO 0x02C4
131: 0x02AA [0x03] Work_Zone[2] = 1702*
132: 0x02AF [0x03] Work_Zone[3] = ExtData[1]->WorkLocal[9]
133: 0x02B4 [0x1D] PRINT_EVENT_MESSAGE(message_id=7723*)
    → "Let's see... The energy output level for the $3 is currently $1."
134: 0x02B7 [0x23] WAIT_FOR_DIALOG_INTERACTION
135: 0x02B8 [0x03] Work_Zone[2] = ExtData[1]->WorkLocal[9]
136: 0x02BD [0x1D] PRINT_EVENT_MESSAGE(message_id=7724*)
    → "Martello recast time in the area is [unimproved/very slightly reduced/slightly reduced/moderately reduced/greatly reduced/drastically reduced]."
137: 0x02C0 [0x23] WAIT_FOR_DIALOG_INTERACTION
138: 0x02C1 [0x01] GOTO 0x0390
139: 0x02C4 [0x02] IF !(Work_Zone[0] == 2*) GOTO 0x02E6
140: 0x02CC [0x03] Work_Zone[2] = 1703*
141: 0x02D1 [0x03] Work_Zone[3] = ExtData[1]->WorkLocal[10]
142: 0x02D6 [0x1D] PRINT_EVENT_MESSAGE(message_id=7723*)
    → "Let's see... The energy output level for the $3 is currently $1."
143: 0x02D9 [0x23] WAIT_FOR_DIALOG_INTERACTION
144: 0x02DA [0x03] Work_Zone[2] = ExtData[1]->WorkLocal[10]
145: 0x02DF [0x1D] PRINT_EVENT_MESSAGE(message_id=7725*)
    → "Veridical conflux operating cost in the area is [unimproved/very slightly reduced/slightly reduced/moderately reduced/greatly reduced/drastically reduced]."
146: 0x02E2 [0x23] WAIT_FOR_DIALOG_INTERACTION
147: 0x02E3 [0x01] GOTO 0x0390
148: 0x02E6 [0x02] IF !(Work_Zone[0] == 3*) GOTO 0x0308
149: 0x02EE [0x03] Work_Zone[2] = 1704*
150: 0x02F3 [0x03] Work_Zone[3] = ExtData[1]->WorkLocal[11]
151: 0x02F8 [0x1D] PRINT_EVENT_MESSAGE(message_id=7723*)
    → "Let's see... The energy output level for the $3 is currently $1."
152: 0x02FB [0x23] WAIT_FOR_DIALOG_INTERACTION
153: 0x02FC [0x03] Work_Zone[2] = ExtData[1]->WorkLocal[11]
154: 0x0301 [0x1D] PRINT_EVENT_MESSAGE(message_id=7726*)
    → "Support effect potency in the area is [unimproved/very slightly enhanced/slightly enhanced/moderately enhanced/greatly enhanced/drastically enhanced]."
155: 0x0304 [0x23] WAIT_FOR_DIALOG_INTERACTION
156: 0x0305 [0x01] GOTO 0x0390
157: 0x0308 [0x02] IF !(Work_Zone[0] == 4*) GOTO 0x032A
158: 0x0310 [0x03] Work_Zone[2] = 1705*
159: 0x0315 [0x03] Work_Zone[3] = ExtData[1]->WorkLocal[12]
160: 0x031A [0x1D] PRINT_EVENT_MESSAGE(message_id=7723*)
    → "Let's see... The energy output level for the $3 is currently $1."
161: 0x031D [0x23] WAIT_FOR_DIALOG_INTERACTION
162: 0x031E [0x03] Work_Zone[2] = ExtData[1]->WorkLocal[12]
163: 0x0323 [0x1D] PRINT_EVENT_MESSAGE(message_id=7727*)
    → "Experience yield in the area is [unimproved/very slightly increased/slightly increased/moderately increased/greatly increased/drastically increased]."
164: 0x0326 [0x23] WAIT_FOR_DIALOG_INTERACTION
165: 0x0327 [0x01] GOTO 0x0390
166: 0x032A [0x02] IF !(Work_Zone[0] == 5*) GOTO 0x034C
167: 0x0332 [0x03] Work_Zone[2] = 1706*
168: 0x0337 [0x03] Work_Zone[3] = ExtData[1]->WorkLocal[13]
169: 0x033C [0x1D] PRINT_EVENT_MESSAGE(message_id=7723*)
    → "Let's see... The energy output level for the $3 is currently $1."
170: 0x033F [0x23] WAIT_FOR_DIALOG_INTERACTION
171: 0x0340 [0x03] Work_Zone[2] = ExtData[1]->WorkLocal[13]
172: 0x0345 [0x1D] PRINT_EVENT_MESSAGE(message_id=7728*)
    → "Cruor yield in the area is [unimproved/very slightly increased/slightly increased/moderately increased/greatly increased/drastically increased]."
173: 0x0348 [0x23] WAIT_FOR_DIALOG_INTERACTION
174: 0x0349 [0x01] GOTO 0x0390
175: 0x034C [0x02] IF !(Work_Zone[0] == 6*) GOTO 0x036E
176: 0x0354 [0x03] Work_Zone[2] = 1707*
177: 0x0359 [0x03] Work_Zone[3] = ExtData[1]->WorkLocal[14]
178: 0x035E [0x1D] PRINT_EVENT_MESSAGE(message_id=7723*)
    → "Let's see... The energy output level for the $3 is currently $1."
179: 0x0361 [0x23] WAIT_FOR_DIALOG_INTERACTION
180: 0x0362 [0x03] Work_Zone[2] = ExtData[1]->WorkLocal[14]
181: 0x0367 [0x1D] PRINT_EVENT_MESSAGE(message_id=7729*)
    → "Pyxis manifestation rate in the area is [unimproved/very slightly increased/slightly increased/moderately increased/greatly increased/drastically increased]."
182: 0x036A [0x23] WAIT_FOR_DIALOG_INTERACTION
183: 0x036B [0x01] GOTO 0x0390
184: 0x036E [0x02] IF !(Work_Zone[0] == 7*) GOTO 0x0390
185: 0x0376 [0x03] Work_Zone[2] = 1708*
186: 0x037B [0x03] Work_Zone[3] = ExtData[1]->WorkLocal[15]
187: 0x0380 [0x1D] PRINT_EVENT_MESSAGE(message_id=7723*)
    → "Let's see... The energy output level for the $3 is currently $1."
188: 0x0383 [0x23] WAIT_FOR_DIALOG_INTERACTION
189: 0x0384 [0x03] Work_Zone[2] = ExtData[1]->WorkLocal[15]
190: 0x0389 [0x1D] PRINT_EVENT_MESSAGE(message_id=7730*)
    → "Treasure yield in the area is [unimproved/very slightly increased/slightly increased/moderately increased/greatly increased/drastically increased]."
191: 0x038C [0x23] WAIT_FOR_DIALOG_INTERACTION
192: 0x038D [0x01] GOTO 0x0390

SUBROUTINE_0390:
193: 0x0390 [0x01] GOTO 0x023E
194: 0x0393 [0x01] GOTO 0x0444
195: 0x0396 [0x02] IF !(Work_Zone[0] == 3*) GOTO 0x03D0
196: 0x039E [0x03] Work_Zone[2] = ExtData[1]->WorkLocal[16]
197: 0x03A3 [0x03] Work_Zone[3] = ExtData[1]->WorkLocal[17]
198: 0x03A8 [0x03] Work_Zone[4] = ExtData[1]->WorkLocal[18]
199: 0x03AD [0x1D] PRINT_EVENT_MESSAGE(message_id=7731*)
    → "Intel estimates a $1 percent chance that the enemy will attack from the [eastern/southeastern/southern/southern/western/northwestern/northern/northeastern] verge. [There is time still to shore up our defenses./We had best step up our preparations./I pray that the traps will have the desired effect./They will be upon us at any moment now./They come even as we speak!]"
200: 0x03B0 [0x23] WAIT_FOR_DIALOG_INTERACTION
201: 0x03B1 [0x03] Work_Zone[2] = ExtData[1]->WorkLocal[19]
202: 0x03B6 [0x03] Work_Zone[3] = ExtData[1]->WorkLocal[20]
203: 0x03BB [0x1D] PRINT_EVENT_MESSAGE(message_id=7732*)
    → "The fore trap's current energy store is [paltry/low/moderate/high/brimming]. We expect that it will weaken the enemy's attack [only very slightly/only slightly/moderately/considerably/drastically]."
204: 0x03BE [0x23] WAIT_FOR_DIALOG_INTERACTION
205: 0x03BF [0x03] Work_Zone[2] = ExtData[1]->WorkLocal[21]
206: 0x03C4 [0x03] Work_Zone[3] = ExtData[1]->WorkLocal[22]
207: 0x03C9 [0x1D] PRINT_EVENT_MESSAGE(message_id=7733*)
    → "The rear trap's current energy store is [paltry/low/moderate/high/brimming]. We expect that it will afflict the enemy with [only a very brief/only a brief/a moderate/an extended/a greatly extended] duration of paralysis."
208: 0x03CC [0x23] WAIT_FOR_DIALOG_INTERACTION
209: 0x03CD [0x01] GOTO 0x0444
210: 0x03D0 [0x02] IF !(Work_Zone[0] == 4*) GOTO 0x040A
211: 0x03D8 [0x03] Work_Zone[2] = ExtData[1]->WorkLocal[23]
212: 0x03DD [0x03] Work_Zone[3] = ExtData[1]->WorkLocal[24]
213: 0x03E2 [0x03] Work_Zone[4] = ExtData[1]->WorkLocal[25]
214: 0x03E7 [0x1D] PRINT_EVENT_MESSAGE(message_id=7731*)
    → "Intel estimates a $1 percent chance that the enemy will attack from the [eastern/southeastern/southern/southern/western/northwestern/northern/northeastern] verge. [There is time still to shore up our defenses./We had best step up our preparations./I pray that the traps will have the desired effect./They will be upon us at any moment now./They come even as we speak!]"
215: 0x03EA [0x23] WAIT_FOR_DIALOG_INTERACTION
216: 0x03EB [0x03] Work_Zone[2] = ExtData[1]->WorkLocal[26]
217: 0x03F0 [0x03] Work_Zone[3] = ExtData[1]->WorkLocal[27]
218: 0x03F5 [0x1D] PRINT_EVENT_MESSAGE(message_id=7732*)
    → "The fore trap's current energy store is [paltry/low/moderate/high/brimming]. We expect that it will weaken the enemy's attack [only very slightly/only slightly/moderately/considerably/drastically]."
219: 0x03F8 [0x23] WAIT_FOR_DIALOG_INTERACTION
220: 0x03F9 [0x03] Work_Zone[2] = ExtData[1]->WorkLocal[28]
221: 0x03FE [0x03] Work_Zone[3] = ExtData[1]->WorkLocal[29]
222: 0x0403 [0x1D] PRINT_EVENT_MESSAGE(message_id=7733*)
    → "The rear trap's current energy store is [paltry/low/moderate/high/brimming]. We expect that it will afflict the enemy with [only a very brief/only a brief/a moderate/an extended/a greatly extended] duration of paralysis."
223: 0x0406 [0x23] WAIT_FOR_DIALOG_INTERACTION
224: 0x0407 [0x01] GOTO 0x0444
225: 0x040A [0x02] IF !(Work_Zone[0] == 5*) GOTO 0x0444
226: 0x0412 [0x03] Work_Zone[2] = ExtData[1]->WorkLocal[30]
227: 0x0417 [0x03] Work_Zone[3] = ExtData[1]->WorkLocal[31]
228: 0x041C [0x03] Work_Zone[4] = ExtData[1]->WorkLocal[32]
229: 0x0421 [0x1D] PRINT_EVENT_MESSAGE(message_id=7731*)
    → "Intel estimates a $1 percent chance that the enemy will attack from the [eastern/southeastern/southern/southern/western/northwestern/northern/northeastern] verge. [There is time still to shore up our defenses./We had best step up our preparations./I pray that the traps will have the desired effect./They will be upon us at any moment now./They come even as we speak!]"
230: 0x0424 [0x23] WAIT_FOR_DIALOG_INTERACTION
231: 0x0425 [0x03] Work_Zone[2] = ExtData[1]->WorkLocal[33]
232: 0x042A [0x03] Work_Zone[3] = ExtData[1]->WorkLocal[34]
233: 0x042F [0x1D] PRINT_EVENT_MESSAGE(message_id=7732*)
    → "The fore trap's current energy store is [paltry/low/moderate/high/brimming]. We expect that it will weaken the enemy's attack [only very slightly/only slightly/moderately/considerably/drastically]."
234: 0x0432 [0x23] WAIT_FOR_DIALOG_INTERACTION
235: 0x0433 [0x03] Work_Zone[2] = ExtData[1]->WorkLocal[35]
236: 0x0438 [0x03] Work_Zone[3] = ExtData[1]->WorkLocal[36]
237: 0x043D [0x1D] PRINT_EVENT_MESSAGE(message_id=7733*)
    → "The rear trap's current energy store is [paltry/low/moderate/high/brimming]. We expect that it will afflict the enemy with [only a very brief/only a brief/a moderate/an extended/a greatly extended] duration of paralysis."
238: 0x0440 [0x23] WAIT_FOR_DIALOG_INTERACTION
239: 0x0441 [0x01] GOTO 0x0444

SUBROUTINE_0444:
240: 0x0444 [0x01] GOTO 0x01C9
241: 0x0447 [0x21] END_EVENT
242: 0x0448 [0x00] END_REQSTACK()
```
