# 17658615 - Yoran-Oran

## Common Data

| Field            | Value                       |
|------------------|-----------------------------|
| Zone             | Abyssea - Attohwa (ID: 215) |
| Block Size       | 1436 bytes                  |
| Total Events     | 13                          |
| References Count | 57                          |

## List of Events

| Event ID              | Entrypoint   |   Size |   Instructions |
|-----------------------|--------------|--------|----------------|
| [65535](#event-65535) | 0x0000       |      1 |              1 |
| [348](#event-348)     | 0x0001       |    270 |             58 |
| [349](#event-349)     | 0x010F       |     32 |             10 |
| [350](#event-350)     | 0x012F       |    225 |             41 |
| [351](#event-351)     | 0x0210       |     62 |             12 |
| [352](#event-352)     | 0x024E       |    174 |             36 |
| [353](#event-353)     | 0x02FC       |     51 |             13 |
| [355](#event-355)     | 0x032F       |    125 |             27 |
| [354](#event-354)     | 0x03AC       |     43 |              9 |
| [356](#event-356)     | 0x03D7       |     73 |             17 |
| [357](#event-357)     | 0x0420       |     17 |              9 |
| [358](#event-358)     | 0x0431       |     21 |             11 |
| [396](#event-396)     | 0x0446       |     44 |             15 |

## DAT References (imed_data)

|   Index | Hex Value   |   Dec Value |
|---------|-------------|-------------|
|       0 | 0x1FD8      |        8152 |
|       1 | 0x0028      |          40 |
|       2 | 0x1FD9      |        8153 |
|       3 | 0x1FDA      |        8154 |
|       4 | 0x1FDB      |        8155 |
|       5 | 0x1FDC      |        8156 |
|       6 | 0x1FDD      |        8157 |
|       7 | 0x1FDE      |        8158 |
|       8 | 0x1FDF      |        8159 |
|       9 | 0x1FE0      |        8160 |
|      10 | 0x1FE1      |        8161 |
|      11 | 0x1FE2      |        8162 |
|      12 | 0x1FE3      |        8163 |
|      13 | 0x1FE4      |        8164 |
|      14 | 0x1FE5      |        8165 |
|      15 | 0x0000      |           0 |
|      16 | 0x0007      |           7 |
|      17 | 0x1FE6      |        8166 |
|      18 | 0x0001      |           1 |
|      19 | 0x1FE7      |        8167 |
|      20 | 0x1FE8      |        8168 |
|      21 | 0x1FE9      |        8169 |
|      22 | 0x1FEC      |        8172 |
|      23 | 0x0029      |          41 |
|      24 | 0x1FED      |        8173 |
|      25 | 0x1FEE      |        8174 |
|      26 | 0x1FEF      |        8175 |
|      27 | 0x1FF0      |        8176 |
|      28 | 0x1FF1      |        8177 |
|      29 | 0x1FF2      |        8178 |
|      30 | 0x1FF3      |        8179 |
|      31 | 0x00C9      |         201 |
|      32 | 0x1FF4      |        8180 |
|      33 | 0x1FF5      |        8181 |
|      34 | 0x1FF6      |        8182 |
|      35 | 0x1FF7      |        8183 |
|      36 | 0x1FF8      |        8184 |
|      37 | 0x1FF9      |        8185 |
|      38 | 0x1FFA      |        8186 |
|      39 | 0x1FFB      |        8187 |
|      40 | 0x1FFC      |        8188 |
|      41 | 0x1FFD      |        8189 |
|      42 | 0x1FFE      |        8190 |
|      43 | 0x2006      |        8198 |
|      44 | 0x2007      |        8199 |
|      45 | 0x2008      |        8200 |
|      46 | 0x2009      |        8201 |
|      47 | 0x200A      |        8202 |
|      48 | 0x200D      |        8205 |
|      49 | 0x200E      |        8206 |
|      50 | 0x200F      |        8207 |
|      51 | 0x2010      |        8208 |
|      52 | 0x2011      |        8209 |
|      53 | 0x2012      |        8210 |
|      54 | 0x2013      |        8211 |
|      55 | 0x0800      |        2048 |
|      56 | 0x1000      |        4096 |

## String References

- **8152**: Have you spoken with the survivors here, by any chance-ethy?
- **8153**: If so, you've probably observed that they suffer-ethy from some most curious symptoms. At first I thought it was simply the stress of this harsh lifestyle that we are all forced to live-ethy...
- **8154**: ...Yet somehow it seems to be more complex than that. We are fortunate indeed-ethy to have a physician from Jeuno among our ranks, but there is only so much one man can do--however talented-ethy he may be.
- **8155**: And so I have been researching the cause-ethy of this plague. Would you care-ethy to hear my hypothesis?
- **8156**: I have considered all the possibility-ethies, and one stands out as the most likely. I believe that the very air we breathe-ethy has been contaminated!
- **8157**: It is the only explanation for a plague of this scale-ethy and proportion! And yet, there remains one hole in my theory...
- **8158**: I have yet to identify the source-ethy of the contaminant. Without this knowledge, there is precious little-ethy that I can do for our people.
- **8159**: Fortunately, I have just come upon-ethy a most promising discovery!
- **8160**: By speaking extensively with the patients, I have learned-ethy that many of them began experiencing their symptoms on the same day. A day when the wind gust-ethied in from the west...
- **8161**: Surely you can understand-ethy the implications!
- **8162**: Yes-ethy! Something to the west of here is spewing vile poison-ethy into the air!
- **8163**: I know not-ethy if it is a fiend or some other foul thing, but whatever it is, we must put an end-ethy to it before any more lives are claimed-ethy!
- **8164**: Oh, dear-ethy me. I seem to have gotten a bit carried away. Do you follow me so far?
- **8165**: Got it? [Yep-ethy./Not exactly-ethy.]
- **8166**: Excellent. Then let's get down-ethy to brass tacks.
- **8167**: <Sigh>... And here I took care to explain-ethy it as clearly and concisely as possible.
- **8168**: The heart of the matter is thus: you must go west-ethy, young [man/woman], and investigate the source of the contamination. No, not merely investigate...we need-ethy concrete scientific evidence-ethy!
- **8169**: Take heart-ethy! If you can follow-ethy my ramblings this far, you can do anything! For the sake of all the survivors who suffer, you must-ethy!
- **8172**: You're back! Well? What did you find-ethy?
- **8173**: Why, this is...!
- **8174**: Are you out of your mind-ethy!? Do you realize how poisonous that is? Who asked you to bring-ethy such a dangerous thing back here, anyway!?
- **8175**: Er, I suppose-ethy I did, didn't I? Anyhow, we must seal it up before its fumes contaminate the whole cave-ethy!
- **8176**: ...Yes. This is indubitably-ethy the cause of the poison. And with this prime specimen you've brought me, I have the utmost confidence in my ability to develop-ethy a cure.
- **8177**: You have my thanks. Take this-ethy for your troubles!
- **8178**: I will find a cure-ethy! I shall! I must-ethy!
- **8179**: <Sniff>... Ahhh-choo!!! Aye yai yai! The fumes! I must be more careful-ethy!
- **8180**: What remarkable timing!
- **8181**: Would you believe-ethy that I just completed my analysis of the $3 you acquired for me?
- **8182**: I have some bad news-ethy and some good news-ethy.
- **8183**: The bad-ethy is that the poison is far too potent to be neutralized directly; no doubt the bizarre changes in the environment have caused the gasponia to mutate and grow in strength.
- **8184**: The good news-ethy is that I've already formulated a backup plan. Whoever said that this former minister was past his prime-ethy!?
- **8185**: By introducing a counteragent directly into the source--the gasponia itself--I believe we can trigger-ethy a reverse mutation. If successful, its noxious fumes will abate-ethy, and its poison turn benign!
- **8186**: As a scientist, I would not normally approve-ethy of tampering with our natural environment... But this time, lives are at stake-ethy!
- **8187**: There is, however, one rub-ethy. I lack for the key ingredient to concoct the counteragent.
- **8188**: $6... They're said to be found-ethy here in the chasm, but where-ethy?
- **8189**: Sad-ethy to say, my research affords me little time for exploration. My knowledge of the local terrain is pitifully lacking.
- **8190**: There must be someone in the area-ethy who could enlighten us...but who-ethy?
- **8198**: 6! Oh, thank you! I imagine-ethy it was not easily found!
- **8199**: I've already seen to the rest of the preparations. Just hold tight-ethy!
- **8200**: Shhh now...this is a precision operation. I must ensure-ethy the proper ratio, timing, and...egads! No, Yoran-Oran! Watch out-ethy...!
- **8201**: Phew! That was a close call-ethy. Behold! The elusive counteragent!
- **8202**: Now, all you need do is return to the gasponia and inject it! A dangerous job-ethy, of course, but you've done it once. You can do it again!
- **8205**: Incredible! A resounding success-ethy! The patients are already showing signs of improvement.
- **8206**: However, I fear-ethy this solution will not be a permanent one.
- **8207**: If we do not administer the $3 on a regular basis, the plant will soon revert-ethy to its malignant state.
- **8208**: When you think about it, its innate proclivity for self-preservation is not so unlike-ethy you and I.
- **8209**: Ahhh-choooooo! Yes, there's definitely something funny in the air-ethy. It's high time to administer another dose of $3, methink-ethies.
- **8210**: Could I trouble you to find another $3-ethy for me?
- **8211**: We're counting on you!

## Events

### Event 65535

#### Metadata

| Field        | Value   |
|--------------|---------|
| Entrypoint   | 0x0000  |
| Data Size    | 1 bytes |
| Instructions | 1       |

```
      00 01 02 03 04 05 06 07  08 09 0A 0B 0C 0D 0E 0F
      -- -- -- -- -- -- -- --  -- -- -- -- -- -- -- --
0000: 00                                                .               
```

#### Opcodes

```
  0: 0x0000 [0x00] END_REQSTACK()
```

### Event 348

#### Metadata

| Field        | Value     |
|--------------|-----------|
| Entrypoint   | 0x0001    |
| Data Size    | 270 bytes |
| Instructions | 58        |

```
      00 01 02 03 04 05 06 07  08 09 0A 0B 0C 0D 0E 0F
      -- -- -- -- -- -- -- --  -- -- -- -- -- -- -- --
0000:    42 1E F0 FF FF 7F 6F  70 1D 00 80 23 66 01 80   B.....op...#f..
0010: F8 FF FF 7F F8 FF FF 7F  74 68 6B 31 1D 02 80 23  ........thk1...#
0020: 66 01 80 F8 FF FF 7F F8  FF FF 7F 74 68 6B 32 1D  f..........thk2.
0030: 03 80 23 66 01 80 F8 FF  FF 7F F8 FF FF 7F 74 6C  ..#f..........tl
0040: 6B 30 1D 04 80 23 66 01  80 F8 FF FF 7F F8 FF FF  k0...#f.........
0050: 7F 74 6C 6B 31 1D 05 80  23 1D 06 80 23 66 01 80  .tlk1...#...#f..
0060: F8 FF FF 7F F8 FF FF 7F  74 6C 6B 30 1D 07 80 23  ........tlk0...#
0070: 66 01 80 F8 FF FF 7F F8  FF FF 7F 74 6C 6B 31 1D  f..........tlk1.
0080: 08 80 23 1D 09 80 23 66  01 80 F8 FF FF 7F F8 FF  ..#...#f........
0090: FF 7F 69 72 6F 30 1D 0A  80 23 1D 0B 80 23 1D 0C  ..iro0...#...#..
00A0: 80 23 66 01 80 F8 FF FF  7F F8 FF FF 7F 70 6F 69  .#f..........poi
00B0: 30 1D 0D 80 23 24 0E 80  0F 80 0F 80 25 02 00 10  0...#$......%...
00C0: 0F 80 00 D8 00 6E F8 FF  FF 7F 10 80 99 F8 FF FF  .....n..........
00D0: 7F 1D 11 80 23 01 F6 00  02 00 10 12 80 00 F6 00  ....#...........
00E0: 66 01 80 F8 FF FF 7F F8  FF FF 7F 70 6F 69 30 1D  f..........poi0.
00F0: 13 80 23 01 F6 00 1D 14  80 23 66 01 80 F8 FF FF  ..#......#f.....
0100: 7F F8 FF FF 7F 73 79 75  30 1D 15 80 23 21 00     .....syu0...#!. 
```

#### Opcodes

```
  0: 0x0001 [0x42] SET_CLI_EVENT_CANCEL_DATA()
  1: 0x0002 [0x1E] EventEntity looks at LocalPlayer and starts talking
  2: 0x0007 [0x6F] WAIT_FRAME_DELAY: Yield until WaitTime reaches zero
  3: 0x0008 [0x70] WAIT_ENTITY_RENDER_FLAG: Wait while EventEntity->Render.Flags3 bit 2 is set (cancel turn if not)
  4: 0x0009 [0x1D] PRINT_EVENT_MESSAGE(message_id=8152*)
    → "Have you spoken with the survivors here, by any chance-ethy?"
  5: 0x000C [0x23] WAIT_FOR_DIALOG_INTERACTION
  6: 0x000D [0x66] LOAD_EXT_SCHEDULER_MAIN: Load scheduler "thk1" with entities [EventEntity, EventEntity], work=40*
  7: 0x001C [0x1D] PRINT_EVENT_MESSAGE(message_id=8153*)
    → "If so, you've probably observed that they suffer-ethy from some most curious symptoms. At first I thought it was simply the stress of this harsh lifestyle that we are all forced to live-ethy..."
  8: 0x001F [0x23] WAIT_FOR_DIALOG_INTERACTION
  9: 0x0020 [0x66] LOAD_EXT_SCHEDULER_MAIN: Load scheduler "thk2" with entities [EventEntity, EventEntity], work=40*
 10: 0x002F [0x1D] PRINT_EVENT_MESSAGE(message_id=8154*)
    → "...Yet somehow it seems to be more complex than that. We are fortunate indeed-ethy to have a physician from Jeuno among our ranks, but there is only so much one man can do--however talented-ethy he may be."
 11: 0x0032 [0x23] WAIT_FOR_DIALOG_INTERACTION
 12: 0x0033 [0x66] LOAD_EXT_SCHEDULER_MAIN: Load scheduler "tlk0" with entities [EventEntity, EventEntity], work=40*
 13: 0x0042 [0x1D] PRINT_EVENT_MESSAGE(message_id=8155*)
    → "And so I have been researching the cause-ethy of this plague. Would you care-ethy to hear my hypothesis?"
 14: 0x0045 [0x23] WAIT_FOR_DIALOG_INTERACTION
 15: 0x0046 [0x66] LOAD_EXT_SCHEDULER_MAIN: Load scheduler "tlk1" with entities [EventEntity, EventEntity], work=40*
 16: 0x0055 [0x1D] PRINT_EVENT_MESSAGE(message_id=8156*)
    → "I have considered all the possibility-ethies, and one stands out as the most likely. I believe that the very air we breathe-ethy has been contaminated!"
 17: 0x0058 [0x23] WAIT_FOR_DIALOG_INTERACTION
 18: 0x0059 [0x1D] PRINT_EVENT_MESSAGE(message_id=8157*)
    → "It is the only explanation for a plague of this scale-ethy and proportion! And yet, there remains one hole in my theory..."
 19: 0x005C [0x23] WAIT_FOR_DIALOG_INTERACTION
 20: 0x005D [0x66] LOAD_EXT_SCHEDULER_MAIN: Load scheduler "tlk0" with entities [EventEntity, EventEntity], work=40*
 21: 0x006C [0x1D] PRINT_EVENT_MESSAGE(message_id=8158*)
    → "I have yet to identify the source-ethy of the contaminant. Without this knowledge, there is precious little-ethy that I can do for our people."
 22: 0x006F [0x23] WAIT_FOR_DIALOG_INTERACTION
 23: 0x0070 [0x66] LOAD_EXT_SCHEDULER_MAIN: Load scheduler "tlk1" with entities [EventEntity, EventEntity], work=40*
 24: 0x007F [0x1D] PRINT_EVENT_MESSAGE(message_id=8159*)
    → "Fortunately, I have just come upon-ethy a most promising discovery!"
 25: 0x0082 [0x23] WAIT_FOR_DIALOG_INTERACTION
 26: 0x0083 [0x1D] PRINT_EVENT_MESSAGE(message_id=8160*)
    → "By speaking extensively with the patients, I have learned-ethy that many of them began experiencing their symptoms on the same day. A day when the wind gust-ethied in from the west..."
 27: 0x0086 [0x23] WAIT_FOR_DIALOG_INTERACTION
 28: 0x0087 [0x66] LOAD_EXT_SCHEDULER_MAIN: Load scheduler "iro0" with entities [EventEntity, EventEntity], work=40*
 29: 0x0096 [0x1D] PRINT_EVENT_MESSAGE(message_id=8161*)
    → "Surely you can understand-ethy the implications!"
 30: 0x0099 [0x23] WAIT_FOR_DIALOG_INTERACTION
 31: 0x009A [0x1D] PRINT_EVENT_MESSAGE(message_id=8162*)
    → "Yes-ethy! Something to the west of here is spewing vile poison-ethy into the air!"
 32: 0x009D [0x23] WAIT_FOR_DIALOG_INTERACTION
 33: 0x009E [0x1D] PRINT_EVENT_MESSAGE(message_id=8163*)
    → "I know not-ethy if it is a fiend or some other foul thing, but whatever it is, we must put an end-ethy to it before any more lives are claimed-ethy!"
 34: 0x00A1 [0x23] WAIT_FOR_DIALOG_INTERACTION
 35: 0x00A2 [0x66] LOAD_EXT_SCHEDULER_MAIN: Load scheduler "poi0" with entities [EventEntity, EventEntity], work=40*
 36: 0x00B1 [0x1D] PRINT_EVENT_MESSAGE(message_id=8164*)
    → "Oh, dear-ethy me. I seem to have gotten a bit carried away. Do you follow me so far?"
 37: 0x00B4 [0x23] WAIT_FOR_DIALOG_INTERACTION
 38: 0x00B5 [0x24] CREATE_DIALOG(message_id=8165*, default_option=0*, option_flags=0*)
    → "Got it? [Yep-ethy./Not exactly-ethy.]"
 39: 0x00BC [0x25] WAIT_DIALOG_SELECT()
 40: 0x00BD [0x02] IF !(Work_Zone[0] == 0*) GOTO 0x00D8
 41: 0x00C5 [0x6E] EventEntity uses emote 7*
 42: 0x00CC [0x99] Wait for EventEntity animation to complete
 43: 0x00D1 [0x1D] PRINT_EVENT_MESSAGE(message_id=8166*)
    → "Excellent. Then let's get down-ethy to brass tacks."
 44: 0x00D4 [0x23] WAIT_FOR_DIALOG_INTERACTION
 45: 0x00D5 [0x01] GOTO 0x00F6
 46: 0x00D8 [0x02] IF !(Work_Zone[0] == 1*) GOTO 0x00F6
 47: 0x00E0 [0x66] LOAD_EXT_SCHEDULER_MAIN: Load scheduler "poi0" with entities [EventEntity, EventEntity], work=40*
 48: 0x00EF [0x1D] PRINT_EVENT_MESSAGE(message_id=8167*)
    → "<Sigh>... And here I took care to explain-ethy it as clearly and concisely as possible."
 49: 0x00F2 [0x23] WAIT_FOR_DIALOG_INTERACTION
 50: 0x00F3 [0x01] GOTO 0x00F6

SUBROUTINE_00F6:
 51: 0x00F6 [0x1D] PRINT_EVENT_MESSAGE(message_id=8168*)
    → "The heart of the matter is thus: you must go west-ethy, young [man/woman], and investigate the source of the contamination. No, not merely investigate...we need-ethy concrete scientific evidence-ethy!"
 52: 0x00F9 [0x23] WAIT_FOR_DIALOG_INTERACTION
 53: 0x00FA [0x66] LOAD_EXT_SCHEDULER_MAIN: Load scheduler "syu0" with entities [EventEntity, EventEntity], work=40*
 54: 0x0109 [0x1D] PRINT_EVENT_MESSAGE(message_id=8169*)
    → "Take heart-ethy! If you can follow-ethy my ramblings this far, you can do anything! For the sake of all the survivors who suffer, you must-ethy!"
 55: 0x010C [0x23] WAIT_FOR_DIALOG_INTERACTION
 56: 0x010D [0x21] END_EVENT
 57: 0x010E [0x00] END_REQSTACK()
```

### Event 349

#### Metadata

| Field        | Value    |
|--------------|----------|
| Entrypoint   | 0x010F   |
| Data Size    | 32 bytes |
| Instructions | 10       |

```
      00 01 02 03 04 05 06 07  08 09 0A 0B 0C 0D 0E 0F
      -- -- -- -- -- -- -- --  -- -- -- -- -- -- -- --
0100:                                               1E                 .
0110: F0 FF FF 7F 6F 70 1D 14  80 23 66 01 80 F8 FF FF  ....op...#f.....
0120: 7F F8 FF FF 7F 73 79 75  30 1D 15 80 23 21 00     .....syu0...#!. 
```

#### Opcodes

```
  0: 0x010F [0x1E] EventEntity looks at LocalPlayer and starts talking
  1: 0x0114 [0x6F] WAIT_FRAME_DELAY: Yield until WaitTime reaches zero
  2: 0x0115 [0x70] WAIT_ENTITY_RENDER_FLAG: Wait while EventEntity->Render.Flags3 bit 2 is set (cancel turn if not)
  3: 0x0116 [0x1D] PRINT_EVENT_MESSAGE(message_id=8168*)
    → "The heart of the matter is thus: you must go west-ethy, young [man/woman], and investigate the source of the contamination. No, not merely investigate...we need-ethy concrete scientific evidence-ethy!"
  4: 0x0119 [0x23] WAIT_FOR_DIALOG_INTERACTION
  5: 0x011A [0x66] LOAD_EXT_SCHEDULER_MAIN: Load scheduler "syu0" with entities [EventEntity, EventEntity], work=40*
  6: 0x0129 [0x1D] PRINT_EVENT_MESSAGE(message_id=8169*)
    → "Take heart-ethy! If you can follow-ethy my ramblings this far, you can do anything! For the sake of all the survivors who suffer, you must-ethy!"
  7: 0x012C [0x23] WAIT_FOR_DIALOG_INTERACTION
  8: 0x012D [0x21] END_EVENT
  9: 0x012E [0x00] END_REQSTACK()
```

### Event 350

#### Metadata

| Field        | Value     |
|--------------|-----------|
| Entrypoint   | 0x012F    |
| Data Size    | 225 bytes |
| Instructions | 41        |

```
      00 01 02 03 04 05 06 07  08 09 0A 0B 0C 0D 0E 0F
      -- -- -- -- -- -- -- --  -- -- -- -- -- -- -- --
0120:                                               42                 B
0130: 1E F0 FF FF 7F 6F 70 66  01 80 F8 FF FF 7F F8 FF  .....opf........
0140: FF 7F 70 6F 69 30 1D 16  80 23 53 F8 FF FF 7F F8  ..poi0...#S.....
0150: FF FF 7F 70 6F 69 30 66  17 80 F8 FF FF 7F F8 FF  ...poi0f........
0160: FF 7F 73 68 6B 30 1D 18  80 23 53 F8 FF FF 7F F8  ..shk0...#S.....
0170: FF FF 7F 73 68 6B 30 1A  57 04 6F 70 66 01 80 F8  ...shk0.W.opf...
0180: FF FF 7F F8 FF FF 7F 69  72 6F 30 1D 19 80 23 53  .......iro0...#S
0190: F8 FF FF 7F F8 FF FF 7F  69 72 6F 30 1A 57 04 6F  ........iro0.W.o
01A0: 70 6E F8 FF FF 7F 10 80  99 F8 FF FF 7F 1D 1A 80  pn..............
01B0: 23 1D 1B 80 23 66 01 80  F8 FF FF 7F F8 FF FF 7F  #...#f..........
01C0: 70 61 73 30 1D 1C 80 23  66 01 80 F8 FF FF 7F F8  pas0...#f.......
01D0: FF FF 7F 73 79 75 30 1D  1D 80 23 66 01 80 F8 FF  ...syu0...#f....
01E0: FF 7F F8 FF FF 7F 74 68  6B 31 1D 1E 80 23 66 01  ......thk1...#f.
01F0: 80 F8 FF FF 7F F8 FF FF  7F 74 68 6B 32 45 1F 80  .........thk2E..
0200: F0 FF FF 7F F0 FF FF 7F  71 73 74 63 0F 80 21 00  ........qstc..!.
```

#### Opcodes

```
  0: 0x012F [0x42] SET_CLI_EVENT_CANCEL_DATA()
  1: 0x0130 [0x1E] EventEntity looks at LocalPlayer and starts talking
  2: 0x0135 [0x6F] WAIT_FRAME_DELAY: Yield until WaitTime reaches zero
  3: 0x0136 [0x70] WAIT_ENTITY_RENDER_FLAG: Wait while EventEntity->Render.Flags3 bit 2 is set (cancel turn if not)
  4: 0x0137 [0x66] LOAD_EXT_SCHEDULER_MAIN: Load scheduler "poi0" with entities [EventEntity, EventEntity], work=40*
  5: 0x0146 [0x1D] PRINT_EVENT_MESSAGE(message_id=8172*)
    → "You're back! Well? What did you find-ethy?"
  6: 0x0149 [0x23] WAIT_FOR_DIALOG_INTERACTION
  7: 0x014A [0x53] WAIT_SCHEDULER_TASK: Wait for scheduler "poi0" with entities [EventEntity, EventEntity]
  8: 0x0157 [0x66] LOAD_EXT_SCHEDULER_MAIN: Load scheduler "shk0" with entities [EventEntity, EventEntity], work=41*
  9: 0x0166 [0x1D] PRINT_EVENT_MESSAGE(message_id=8173*)
    → "Why, this is...!"
 10: 0x0169 [0x23] WAIT_FOR_DIALOG_INTERACTION
 11: 0x016A [0x53] WAIT_SCHEDULER_TASK: Wait for scheduler "shk0" with entities [EventEntity, EventEntity]
 12: 0x0177 [0x1A] CALL_SUBROUTINE(address=0x0457)
 13: 0x017A [0x6F] WAIT_FRAME_DELAY: Yield until WaitTime reaches zero
 14: 0x017B [0x70] WAIT_ENTITY_RENDER_FLAG: Wait while EventEntity->Render.Flags3 bit 2 is set (cancel turn if not)
 15: 0x017C [0x66] LOAD_EXT_SCHEDULER_MAIN: Load scheduler "iro0" with entities [EventEntity, EventEntity], work=40*
 16: 0x018B [0x1D] PRINT_EVENT_MESSAGE(message_id=8174*)
    → "Are you out of your mind-ethy!? Do you realize how poisonous that is? Who asked you to bring-ethy such a dangerous thing back here, anyway!?"
 17: 0x018E [0x23] WAIT_FOR_DIALOG_INTERACTION
 18: 0x018F [0x53] WAIT_SCHEDULER_TASK: Wait for scheduler "iro0" with entities [EventEntity, EventEntity]
 19: 0x019C [0x1A] CALL_SUBROUTINE(address=0x0457)
 20: 0x019F [0x6F] WAIT_FRAME_DELAY: Yield until WaitTime reaches zero
 21: 0x01A0 [0x70] WAIT_ENTITY_RENDER_FLAG: Wait while EventEntity->Render.Flags3 bit 2 is set (cancel turn if not)
 22: 0x01A1 [0x6E] EventEntity uses emote 7*
 23: 0x01A8 [0x99] Wait for EventEntity animation to complete
 24: 0x01AD [0x1D] PRINT_EVENT_MESSAGE(message_id=8175*)
    → "Er, I suppose-ethy I did, didn't I? Anyhow, we must seal it up before its fumes contaminate the whole cave-ethy!"
 25: 0x01B0 [0x23] WAIT_FOR_DIALOG_INTERACTION
 26: 0x01B1 [0x1D] PRINT_EVENT_MESSAGE(message_id=8176*)
    → "...Yes. This is indubitably-ethy the cause of the poison. And with this prime specimen you've brought me, I have the utmost confidence in my ability to develop-ethy a cure."
 27: 0x01B4 [0x23] WAIT_FOR_DIALOG_INTERACTION
 28: 0x01B5 [0x66] LOAD_EXT_SCHEDULER_MAIN: Load scheduler "pas0" with entities [EventEntity, EventEntity], work=40*
 29: 0x01C4 [0x1D] PRINT_EVENT_MESSAGE(message_id=8177*)
    → "You have my thanks. Take this-ethy for your troubles!"
 30: 0x01C7 [0x23] WAIT_FOR_DIALOG_INTERACTION
 31: 0x01C8 [0x66] LOAD_EXT_SCHEDULER_MAIN: Load scheduler "syu0" with entities [EventEntity, EventEntity], work=40*
 32: 0x01D7 [0x1D] PRINT_EVENT_MESSAGE(message_id=8178*)
    → "I will find a cure-ethy! I shall! I must-ethy!"
 33: 0x01DA [0x23] WAIT_FOR_DIALOG_INTERACTION
 34: 0x01DB [0x66] LOAD_EXT_SCHEDULER_MAIN: Load scheduler "thk1" with entities [EventEntity, EventEntity], work=40*
 35: 0x01EA [0x1D] PRINT_EVENT_MESSAGE(message_id=8179*)
    → "<Sniff>... Ahhh-choo!!! Aye yai yai! The fumes! I must be more careful-ethy!"
 36: 0x01ED [0x23] WAIT_FOR_DIALOG_INTERACTION
 37: 0x01EE [0x66] LOAD_EXT_SCHEDULER_MAIN: Load scheduler "thk2" with entities [EventEntity, EventEntity], work=40*
 38: 0x01FD [0x45] LOAD_SCHEDULED_TASK: Load scheduler "qstc" with entities [LocalPlayer, LocalPlayer], work=[201*, 0*]
 39: 0x020E [0x21] END_EVENT
 40: 0x020F [0x00] END_REQSTACK()
```

### Event 351

#### Metadata

| Field        | Value    |
|--------------|----------|
| Entrypoint   | 0x0210   |
| Data Size    | 62 bytes |
| Instructions | 12       |

```
      00 01 02 03 04 05 06 07  08 09 0A 0B 0C 0D 0E 0F
      -- -- -- -- -- -- -- --  -- -- -- -- -- -- -- --
0210: 1E F0 FF FF 7F 6F 70 66  01 80 F8 FF FF 7F F8 FF  .....opf........
0220: FF 7F 73 79 75 30 1D 1D  80 23 66 01 80 F8 FF FF  ..syu0...#f.....
0230: 7F F8 FF FF 7F 74 68 6B  31 1D 1E 80 23 66 01 80  .....thk1...#f..
0240: F8 FF FF 7F F8 FF FF 7F  74 68 6B 32 21 00        ........thk2!.  
```

#### Opcodes

```
  0: 0x0210 [0x1E] EventEntity looks at LocalPlayer and starts talking
  1: 0x0215 [0x6F] WAIT_FRAME_DELAY: Yield until WaitTime reaches zero
  2: 0x0216 [0x70] WAIT_ENTITY_RENDER_FLAG: Wait while EventEntity->Render.Flags3 bit 2 is set (cancel turn if not)
  3: 0x0217 [0x66] LOAD_EXT_SCHEDULER_MAIN: Load scheduler "syu0" with entities [EventEntity, EventEntity], work=40*
  4: 0x0226 [0x1D] PRINT_EVENT_MESSAGE(message_id=8178*)
    → "I will find a cure-ethy! I shall! I must-ethy!"
  5: 0x0229 [0x23] WAIT_FOR_DIALOG_INTERACTION
  6: 0x022A [0x66] LOAD_EXT_SCHEDULER_MAIN: Load scheduler "thk1" with entities [EventEntity, EventEntity], work=40*
  7: 0x0239 [0x1D] PRINT_EVENT_MESSAGE(message_id=8179*)
    → "<Sniff>... Ahhh-choo!!! Aye yai yai! The fumes! I must be more careful-ethy!"
  8: 0x023C [0x23] WAIT_FOR_DIALOG_INTERACTION
  9: 0x023D [0x66] LOAD_EXT_SCHEDULER_MAIN: Load scheduler "thk2" with entities [EventEntity, EventEntity], work=40*
 10: 0x024C [0x21] END_EVENT
 11: 0x024D [0x00] END_REQSTACK()
```

### Event 352

#### Metadata

| Field        | Value     |
|--------------|-----------|
| Entrypoint   | 0x024E    |
| Data Size    | 174 bytes |
| Instructions | 36        |

```
      00 01 02 03 04 05 06 07  08 09 0A 0B 0C 0D 0E 0F
      -- -- -- -- -- -- -- --  -- -- -- -- -- -- -- --
0240:                                            42 1E                B.
0250: F0 FF FF 7F 6F 70 1D 20  80 23 1D 21 80 23 66 01  ....op. .#.!.#f.
0260: 80 F8 FF FF 7F F8 FF FF  7F 74 6C 6B 30 1D 22 80  .........tlk0.".
0270: 23 1D 23 80 23 66 01 80  F8 FF FF 7F F8 FF FF 7F  #.#.#f..........
0280: 74 6C 6B 31 1D 24 80 23  66 01 80 F8 FF FF 7F F8  tlk1.$.#f.......
0290: FF FF 7F 74 6C 6B 30 1D  25 80 23 1D 26 80 23 66  ...tlk0.%.#.&.#f
02A0: 01 80 F8 FF FF 7F F8 FF  FF 7F 74 6C 6B 31 1D 27  ..........tlk1.'
02B0: 80 23 66 01 80 F8 FF FF  7F F8 FF FF 7F 74 6C 6B  .#f..........tlk
02C0: 30 1D 28 80 23 1D 29 80  23 66 01 80 F8 FF FF 7F  0.(.#.).#f......
02D0: F8 FF FF 7F 74 6C 6B 31  66 01 80 F8 FF FF 7F F8  ....tlk1f.......
02E0: FF FF 7F 74 68 6B 31 1D  2A 80 23 66 01 80 F8 FF  ...thk1.*.#f....
02F0: FF 7F F8 FF FF 7F 74 68  6B 32 21 00              ......thk2!.    
```

#### Opcodes

```
  0: 0x024E [0x42] SET_CLI_EVENT_CANCEL_DATA()
  1: 0x024F [0x1E] EventEntity looks at LocalPlayer and starts talking
  2: 0x0254 [0x6F] WAIT_FRAME_DELAY: Yield until WaitTime reaches zero
  3: 0x0255 [0x70] WAIT_ENTITY_RENDER_FLAG: Wait while EventEntity->Render.Flags3 bit 2 is set (cancel turn if not)
  4: 0x0256 [0x1D] PRINT_EVENT_MESSAGE(message_id=8180*)
    → "What remarkable timing!"
  5: 0x0259 [0x23] WAIT_FOR_DIALOG_INTERACTION
  6: 0x025A [0x1D] PRINT_EVENT_MESSAGE(message_id=8181*)
    → "Would you believe-ethy that I just completed my analysis of the $3 you acquired for me?"
  7: 0x025D [0x23] WAIT_FOR_DIALOG_INTERACTION
  8: 0x025E [0x66] LOAD_EXT_SCHEDULER_MAIN: Load scheduler "tlk0" with entities [EventEntity, EventEntity], work=40*
  9: 0x026D [0x1D] PRINT_EVENT_MESSAGE(message_id=8182*)
    → "I have some bad news-ethy and some good news-ethy."
 10: 0x0270 [0x23] WAIT_FOR_DIALOG_INTERACTION
 11: 0x0271 [0x1D] PRINT_EVENT_MESSAGE(message_id=8183*)
    → "The bad-ethy is that the poison is far too potent to be neutralized directly; no doubt the bizarre changes in the environment have caused the gasponia to mutate and grow in strength."
 12: 0x0274 [0x23] WAIT_FOR_DIALOG_INTERACTION
 13: 0x0275 [0x66] LOAD_EXT_SCHEDULER_MAIN: Load scheduler "tlk1" with entities [EventEntity, EventEntity], work=40*
 14: 0x0284 [0x1D] PRINT_EVENT_MESSAGE(message_id=8184*)
    → "The good news-ethy is that I've already formulated a backup plan. Whoever said that this former minister was past his prime-ethy!?"
 15: 0x0287 [0x23] WAIT_FOR_DIALOG_INTERACTION
 16: 0x0288 [0x66] LOAD_EXT_SCHEDULER_MAIN: Load scheduler "tlk0" with entities [EventEntity, EventEntity], work=40*
 17: 0x0297 [0x1D] PRINT_EVENT_MESSAGE(message_id=8185*)
    → "By introducing a counteragent directly into the source--the gasponia itself--I believe we can trigger-ethy a reverse mutation. If successful, its noxious fumes will abate-ethy, and its poison turn benign!"
 18: 0x029A [0x23] WAIT_FOR_DIALOG_INTERACTION
 19: 0x029B [0x1D] PRINT_EVENT_MESSAGE(message_id=8186*)
    → "As a scientist, I would not normally approve-ethy of tampering with our natural environment... But this time, lives are at stake-ethy!"
 20: 0x029E [0x23] WAIT_FOR_DIALOG_INTERACTION
 21: 0x029F [0x66] LOAD_EXT_SCHEDULER_MAIN: Load scheduler "tlk1" with entities [EventEntity, EventEntity], work=40*
 22: 0x02AE [0x1D] PRINT_EVENT_MESSAGE(message_id=8187*)
    → "There is, however, one rub-ethy. I lack for the key ingredient to concoct the counteragent."
 23: 0x02B1 [0x23] WAIT_FOR_DIALOG_INTERACTION
 24: 0x02B2 [0x66] LOAD_EXT_SCHEDULER_MAIN: Load scheduler "tlk0" with entities [EventEntity, EventEntity], work=40*
 25: 0x02C1 [0x1D] PRINT_EVENT_MESSAGE(message_id=8188*)
    → "$6... They're said to be found-ethy here in the chasm, but where-ethy?"
 26: 0x02C4 [0x23] WAIT_FOR_DIALOG_INTERACTION
 27: 0x02C5 [0x1D] PRINT_EVENT_MESSAGE(message_id=8189*)
    → "Sad-ethy to say, my research affords me little time for exploration. My knowledge of the local terrain is pitifully lacking."
 28: 0x02C8 [0x23] WAIT_FOR_DIALOG_INTERACTION
 29: 0x02C9 [0x66] LOAD_EXT_SCHEDULER_MAIN: Load scheduler "tlk1" with entities [EventEntity, EventEntity], work=40*
 30: 0x02D8 [0x66] LOAD_EXT_SCHEDULER_MAIN: Load scheduler "thk1" with entities [EventEntity, EventEntity], work=40*
 31: 0x02E7 [0x1D] PRINT_EVENT_MESSAGE(message_id=8190*)
    → "There must be someone in the area-ethy who could enlighten us...but who-ethy?"
 32: 0x02EA [0x23] WAIT_FOR_DIALOG_INTERACTION
 33: 0x02EB [0x66] LOAD_EXT_SCHEDULER_MAIN: Load scheduler "thk2" with entities [EventEntity, EventEntity], work=40*
 34: 0x02FA [0x21] END_EVENT
 35: 0x02FB [0x00] END_REQSTACK()
```

### Event 353

#### Metadata

| Field        | Value    |
|--------------|----------|
| Entrypoint   | 0x02FC   |
| Data Size    | 51 bytes |
| Instructions | 13       |

```
      00 01 02 03 04 05 06 07  08 09 0A 0B 0C 0D 0E 0F
      -- -- -- -- -- -- -- --  -- -- -- -- -- -- -- --
02F0:                                      1E F0 FF FF              ....
0300: 7F 6F 70 1D 28 80 23 1D  29 80 23 66 01 80 F8 FF  .op.(.#.).#f....
0310: FF 7F F8 FF FF 7F 74 68  6B 31 1D 2A 80 23 66 01  ......thk1.*.#f.
0320: 80 F8 FF FF 7F F8 FF FF  7F 74 68 6B 32 21 00     .........thk2!. 
```

#### Opcodes

```
  0: 0x02FC [0x1E] EventEntity looks at LocalPlayer and starts talking
  1: 0x0301 [0x6F] WAIT_FRAME_DELAY: Yield until WaitTime reaches zero
  2: 0x0302 [0x70] WAIT_ENTITY_RENDER_FLAG: Wait while EventEntity->Render.Flags3 bit 2 is set (cancel turn if not)
  3: 0x0303 [0x1D] PRINT_EVENT_MESSAGE(message_id=8188*)
    → "$6... They're said to be found-ethy here in the chasm, but where-ethy?"
  4: 0x0306 [0x23] WAIT_FOR_DIALOG_INTERACTION
  5: 0x0307 [0x1D] PRINT_EVENT_MESSAGE(message_id=8189*)
    → "Sad-ethy to say, my research affords me little time for exploration. My knowledge of the local terrain is pitifully lacking."
  6: 0x030A [0x23] WAIT_FOR_DIALOG_INTERACTION
  7: 0x030B [0x66] LOAD_EXT_SCHEDULER_MAIN: Load scheduler "thk1" with entities [EventEntity, EventEntity], work=40*
  8: 0x031A [0x1D] PRINT_EVENT_MESSAGE(message_id=8190*)
    → "There must be someone in the area-ethy who could enlighten us...but who-ethy?"
  9: 0x031D [0x23] WAIT_FOR_DIALOG_INTERACTION
 10: 0x031E [0x66] LOAD_EXT_SCHEDULER_MAIN: Load scheduler "thk2" with entities [EventEntity, EventEntity], work=40*
 11: 0x032D [0x21] END_EVENT
 12: 0x032E [0x00] END_REQSTACK()
```

### Event 355

#### Metadata

| Field        | Value     |
|--------------|-----------|
| Entrypoint   | 0x032F    |
| Data Size    | 125 bytes |
| Instructions | 27        |

```
      00 01 02 03 04 05 06 07  08 09 0A 0B 0C 0D 0E 0F
      -- -- -- -- -- -- -- --  -- -- -- -- -- -- -- --
0320:                                               1E                 .
0330: F0 FF FF 7F 6F 70 1D 2B  80 23 1D 2C 80 23 1A 57  ....op.+.#.,.#.W
0340: 04 6F 70 66 01 80 F8 FF  FF 7F F8 FF FF 7F 69 72  .opf..........ir
0350: 6F 30 1D 2D 80 23 53 F8  FF FF 7F F8 FF FF 7F 69  o0.-.#S........i
0360: 72 6F 30 1A 57 04 6F 70  66 01 80 F8 FF FF 7F F8  ro0.W.opf.......
0370: FF FF 7F 70 61 73 30 1D  2E 80 23 53 F8 FF FF 7F  ...pas0...#S....
0380: F8 FF FF 7F 70 61 73 30  66 01 80 F8 FF FF 7F F8  ....pas0f.......
0390: FF FF 7F 74 6C 6B 30 1D  2F 80 23 66 01 80 F8 FF  ...tlk0./.#f....
03A0: FF 7F F8 FF FF 7F 74 6C  6B 31 21 00              ......tlk1!.    
```

#### Opcodes

```
  0: 0x032F [0x1E] EventEntity looks at LocalPlayer and starts talking
  1: 0x0334 [0x6F] WAIT_FRAME_DELAY: Yield until WaitTime reaches zero
  2: 0x0335 [0x70] WAIT_ENTITY_RENDER_FLAG: Wait while EventEntity->Render.Flags3 bit 2 is set (cancel turn if not)
  3: 0x0336 [0x1D] PRINT_EVENT_MESSAGE(message_id=8198*)
    → "6! Oh, thank you! I imagine-ethy it was not easily found!"
  4: 0x0339 [0x23] WAIT_FOR_DIALOG_INTERACTION
  5: 0x033A [0x1D] PRINT_EVENT_MESSAGE(message_id=8199*)
    → "I've already seen to the rest of the preparations. Just hold tight-ethy!"
  6: 0x033D [0x23] WAIT_FOR_DIALOG_INTERACTION
  7: 0x033E [0x1A] CALL_SUBROUTINE(address=0x0457)
  8: 0x0341 [0x6F] WAIT_FRAME_DELAY: Yield until WaitTime reaches zero
  9: 0x0342 [0x70] WAIT_ENTITY_RENDER_FLAG: Wait while EventEntity->Render.Flags3 bit 2 is set (cancel turn if not)
 10: 0x0343 [0x66] LOAD_EXT_SCHEDULER_MAIN: Load scheduler "iro0" with entities [EventEntity, EventEntity], work=40*
 11: 0x0352 [0x1D] PRINT_EVENT_MESSAGE(message_id=8200*)
    → "Shhh now...this is a precision operation. I must ensure-ethy the proper ratio, timing, and...egads! No, Yoran-Oran! Watch out-ethy...!"
 12: 0x0355 [0x23] WAIT_FOR_DIALOG_INTERACTION
 13: 0x0356 [0x53] WAIT_SCHEDULER_TASK: Wait for scheduler "iro0" with entities [EventEntity, EventEntity]
 14: 0x0363 [0x1A] CALL_SUBROUTINE(address=0x0457)
 15: 0x0366 [0x6F] WAIT_FRAME_DELAY: Yield until WaitTime reaches zero
 16: 0x0367 [0x70] WAIT_ENTITY_RENDER_FLAG: Wait while EventEntity->Render.Flags3 bit 2 is set (cancel turn if not)
 17: 0x0368 [0x66] LOAD_EXT_SCHEDULER_MAIN: Load scheduler "pas0" with entities [EventEntity, EventEntity], work=40*
 18: 0x0377 [0x1D] PRINT_EVENT_MESSAGE(message_id=8201*)
    → "Phew! That was a close call-ethy. Behold! The elusive counteragent!"
 19: 0x037A [0x23] WAIT_FOR_DIALOG_INTERACTION
 20: 0x037B [0x53] WAIT_SCHEDULER_TASK: Wait for scheduler "pas0" with entities [EventEntity, EventEntity]
 21: 0x0388 [0x66] LOAD_EXT_SCHEDULER_MAIN: Load scheduler "tlk0" with entities [EventEntity, EventEntity], work=40*
 22: 0x0397 [0x1D] PRINT_EVENT_MESSAGE(message_id=8202*)
    → "Now, all you need do is return to the gasponia and inject it! A dangerous job-ethy, of course, but you've done it once. You can do it again!"
 23: 0x039A [0x23] WAIT_FOR_DIALOG_INTERACTION
 24: 0x039B [0x66] LOAD_EXT_SCHEDULER_MAIN: Load scheduler "tlk1" with entities [EventEntity, EventEntity], work=40*
 25: 0x03AA [0x21] END_EVENT
 26: 0x03AB [0x00] END_REQSTACK()
```

### Event 354

#### Metadata

| Field        | Value    |
|--------------|----------|
| Entrypoint   | 0x03AC   |
| Data Size    | 43 bytes |
| Instructions | 9        |

```
      00 01 02 03 04 05 06 07  08 09 0A 0B 0C 0D 0E 0F
      -- -- -- -- -- -- -- --  -- -- -- -- -- -- -- --
03A0:                                      1E F0 FF FF              ....
03B0: 7F 6F 70 66 01 80 F8 FF  FF 7F F8 FF FF 7F 74 6C  .opf..........tl
03C0: 6B 30 1D 2F 80 23 66 01  80 F8 FF FF 7F F8 FF FF  k0./.#f.........
03D0: 7F 74 6C 6B 31 21 00                              .tlk1!.         
```

#### Opcodes

```
  0: 0x03AC [0x1E] EventEntity looks at LocalPlayer and starts talking
  1: 0x03B1 [0x6F] WAIT_FRAME_DELAY: Yield until WaitTime reaches zero
  2: 0x03B2 [0x70] WAIT_ENTITY_RENDER_FLAG: Wait while EventEntity->Render.Flags3 bit 2 is set (cancel turn if not)
  3: 0x03B3 [0x66] LOAD_EXT_SCHEDULER_MAIN: Load scheduler "tlk0" with entities [EventEntity, EventEntity], work=40*
  4: 0x03C2 [0x1D] PRINT_EVENT_MESSAGE(message_id=8202*)
    → "Now, all you need do is return to the gasponia and inject it! A dangerous job-ethy, of course, but you've done it once. You can do it again!"
  5: 0x03C5 [0x23] WAIT_FOR_DIALOG_INTERACTION
  6: 0x03C6 [0x66] LOAD_EXT_SCHEDULER_MAIN: Load scheduler "tlk1" with entities [EventEntity, EventEntity], work=40*
  7: 0x03D5 [0x21] END_EVENT
  8: 0x03D6 [0x00] END_REQSTACK()
```

### Event 356

#### Metadata

| Field        | Value    |
|--------------|----------|
| Entrypoint   | 0x03D7   |
| Data Size    | 73 bytes |
| Instructions | 17       |

```
      00 01 02 03 04 05 06 07  08 09 0A 0B 0C 0D 0E 0F
      -- -- -- -- -- -- -- --  -- -- -- -- -- -- -- --
03D0:                      42  1E F0 FF FF 7F 6F 70 1D         B.....op.
03E0: 30 80 23 66 01 80 F8 FF  FF 7F F8 FF FF 7F 74 6C  0.#f..........tl
03F0: 6B 30 1D 31 80 23 1D 32  80 23 1D 33 80 23 66 01  k0.1.#.2.#.3.#f.
0400: 80 F8 FF FF 7F F8 FF FF  7F 74 6C 6B 31 45 1F 80  .........tlk1E..
0410: F0 FF FF 7F F0 FF FF 7F  71 73 74 63 0F 80 21 00  ........qstc..!.
```

#### Opcodes

```
  0: 0x03D7 [0x42] SET_CLI_EVENT_CANCEL_DATA()
  1: 0x03D8 [0x1E] EventEntity looks at LocalPlayer and starts talking
  2: 0x03DD [0x6F] WAIT_FRAME_DELAY: Yield until WaitTime reaches zero
  3: 0x03DE [0x70] WAIT_ENTITY_RENDER_FLAG: Wait while EventEntity->Render.Flags3 bit 2 is set (cancel turn if not)
  4: 0x03DF [0x1D] PRINT_EVENT_MESSAGE(message_id=8205*)
    → "Incredible! A resounding success-ethy! The patients are already showing signs of improvement."
  5: 0x03E2 [0x23] WAIT_FOR_DIALOG_INTERACTION
  6: 0x03E3 [0x66] LOAD_EXT_SCHEDULER_MAIN: Load scheduler "tlk0" with entities [EventEntity, EventEntity], work=40*
  7: 0x03F2 [0x1D] PRINT_EVENT_MESSAGE(message_id=8206*)
    → "However, I fear-ethy this solution will not be a permanent one."
  8: 0x03F5 [0x23] WAIT_FOR_DIALOG_INTERACTION
  9: 0x03F6 [0x1D] PRINT_EVENT_MESSAGE(message_id=8207*)
    → "If we do not administer the $3 on a regular basis, the plant will soon revert-ethy to its malignant state."
 10: 0x03F9 [0x23] WAIT_FOR_DIALOG_INTERACTION
 11: 0x03FA [0x1D] PRINT_EVENT_MESSAGE(message_id=8208*)
    → "When you think about it, its innate proclivity for self-preservation is not so unlike-ethy you and I."
 12: 0x03FD [0x23] WAIT_FOR_DIALOG_INTERACTION
 13: 0x03FE [0x66] LOAD_EXT_SCHEDULER_MAIN: Load scheduler "tlk1" with entities [EventEntity, EventEntity], work=40*
 14: 0x040D [0x45] LOAD_SCHEDULED_TASK: Load scheduler "qstc" with entities [LocalPlayer, LocalPlayer], work=[201*, 0*]
 15: 0x041E [0x21] END_EVENT
 16: 0x041F [0x00] END_REQSTACK()
```

### Event 357

#### Metadata

| Field        | Value    |
|--------------|----------|
| Entrypoint   | 0x0420   |
| Data Size    | 17 bytes |
| Instructions | 9        |

```
      00 01 02 03 04 05 06 07  08 09 0A 0B 0C 0D 0E 0F
      -- -- -- -- -- -- -- --  -- -- -- -- -- -- -- --
0420: 1E F0 FF FF 7F 6F 70 1D  32 80 23 1D 33 80 23 21  .....op.2.#.3.#!
0430: 00                                                .               
```

#### Opcodes

```
  0: 0x0420 [0x1E] EventEntity looks at LocalPlayer and starts talking
  1: 0x0425 [0x6F] WAIT_FRAME_DELAY: Yield until WaitTime reaches zero
  2: 0x0426 [0x70] WAIT_ENTITY_RENDER_FLAG: Wait while EventEntity->Render.Flags3 bit 2 is set (cancel turn if not)
  3: 0x0427 [0x1D] PRINT_EVENT_MESSAGE(message_id=8207*)
    → "If we do not administer the $3 on a regular basis, the plant will soon revert-ethy to its malignant state."
  4: 0x042A [0x23] WAIT_FOR_DIALOG_INTERACTION
  5: 0x042B [0x1D] PRINT_EVENT_MESSAGE(message_id=8208*)
    → "When you think about it, its innate proclivity for self-preservation is not so unlike-ethy you and I."
  6: 0x042E [0x23] WAIT_FOR_DIALOG_INTERACTION
  7: 0x042F [0x21] END_EVENT
  8: 0x0430 [0x00] END_REQSTACK()
```

### Event 358

#### Metadata

| Field        | Value    |
|--------------|----------|
| Entrypoint   | 0x0431   |
| Data Size    | 21 bytes |
| Instructions | 11       |

```
      00 01 02 03 04 05 06 07  08 09 0A 0B 0C 0D 0E 0F
      -- -- -- -- -- -- -- --  -- -- -- -- -- -- -- --
0430:    1E F0 FF FF 7F 6F 70  1D 34 80 23 1D 35 80 23   .....op.4.#.5.#
0440: 1D 36 80 23 21 00                                 .6.#!.          
```

#### Opcodes

```
  0: 0x0431 [0x1E] EventEntity looks at LocalPlayer and starts talking
  1: 0x0436 [0x6F] WAIT_FRAME_DELAY: Yield until WaitTime reaches zero
  2: 0x0437 [0x70] WAIT_ENTITY_RENDER_FLAG: Wait while EventEntity->Render.Flags3 bit 2 is set (cancel turn if not)
  3: 0x0438 [0x1D] PRINT_EVENT_MESSAGE(message_id=8209*)
    → "Ahhh-choooooo! Yes, there's definitely something funny in the air-ethy. It's high time to administer another dose of $3, methink-ethies."
  4: 0x043B [0x23] WAIT_FOR_DIALOG_INTERACTION
  5: 0x043C [0x1D] PRINT_EVENT_MESSAGE(message_id=8210*)
    → "Could I trouble you to find another $3-ethy for me?"
  6: 0x043F [0x23] WAIT_FOR_DIALOG_INTERACTION
  7: 0x0440 [0x1D] PRINT_EVENT_MESSAGE(message_id=8211*)
    → "We're counting on you!"
  8: 0x0443 [0x23] WAIT_FOR_DIALOG_INTERACTION
  9: 0x0444 [0x21] END_EVENT
 10: 0x0445 [0x00] END_REQSTACK()
```

### Event 396

#### Metadata

| Field        | Value    |
|--------------|----------|
| Entrypoint   | 0x0446   |
| Data Size    | 44 bytes |
| Instructions | 9        |

```
      00 01 02 03 04 05 06 07  08 09 0A 0B 0C 0D 0E 0F
      -- -- -- -- -- -- -- --  -- -- -- -- -- -- -- --
0440:                   1E F0  FF FF 7F 6F 70 1D 35 80        .....op.5.
0450: 23 1D 36 80 23 21 00 03  00 00 03 7F 07 00 00 37  #.6.#!.........7
0460: 80 02 00 00 38 80 02 6E  04 08 00 00 38 80 39 00  ....8..n....8.9.
0470: 00 1B                                             ..              
```

#### Opcodes

```
  0: 0x0446 [0x1E] EventEntity looks at LocalPlayer and starts talking
  1: 0x044B [0x6F] WAIT_FRAME_DELAY: Yield until WaitTime reaches zero
  2: 0x044C [0x70] WAIT_ENTITY_RENDER_FLAG: Wait while EventEntity->Render.Flags3 bit 2 is set (cancel turn if not)
  3: 0x044D [0x1D] PRINT_EVENT_MESSAGE(message_id=8210*)
    → "Could I trouble you to find another $3-ethy for me?"
  4: 0x0450 [0x23] WAIT_FOR_DIALOG_INTERACTION
  5: 0x0451 [0x1D] PRINT_EVENT_MESSAGE(message_id=8211*)
    → "We're counting on you!"
  6: 0x0454 [0x23] WAIT_FOR_DIALOG_INTERACTION
  7: 0x0455 [0x21] END_EVENT
  8: 0x0456 [0x00] END_REQSTACK()
```

#### Data or dead code:

```
# Dead code (unreachable instructions):
     0x0457 [0x03] ExtData[1]->WorkLocal[0] = enDirCli(ExtData[1]->EventDir[1]) * 4096.0 * 0.15915963
     0x045C [0x07] ExtData[1]->WorkLocal[0] += 2048*
     0x0461 [0x02] IF !(ExtData[1]->WorkLocal[0] <= 4096*) GOTO 0x046E
     0x0469 [0x08] ExtData[1]->WorkLocal[0] -= 4096*
     0x046E [0x39] SET_ENTITY_DIRECTION(direction=ExtData[1]->WorkLocal[0])
     0x0471 [0x1B] RETURN
```
