# 17658627 - Soni-Muni

## Common Data

| Field            | Value                       |
|------------------|-----------------------------|
| Zone             | Abyssea - Attohwa (ID: 215) |
| Block Size       | 120 bytes                   |
| Total Events     | 2                           |
| References Count | 9                           |

## List of Events

| Event ID              | Entrypoint   |   Size |   Instructions |
|-----------------------|--------------|--------|----------------|
| [65535](#event-65535) | 0x0000       |      1 |              1 |
| [384](#event-384)     | 0x0001       |     57 |             20 |

## DAT References (imed_data)

|   Index | Hex Value   |   Dec Value |
|---------|-------------|-------------|
|       0 | 0x0003      |           3 |
|       1 | 0x0000      |           0 |
|       2 | 0x0001      |           1 |
|       3 | 0x2062      |        8290 |
|       4 | 0x2063      |        8291 |
|       5 | 0x2064      |        8292 |
|       6 | 0x2065      |        8293 |
|       7 | 0x2066      |        8294 |
|       8 | 0x2067      |        8295 |

## String References

- **8290**: They sent the lot o' us here from Heavens Tower usin' some barmy mass-teleport magic. That was the idea, 't least. When I came to me senses, there weren't nobody else in sightaru.
- **8291**: I was right lucky to meet up with me mate Gottah here after a bit o' wandering.
- **8292**: Wherever could the others've gone off to? I do hope they didn't meet a foul end...
- **8293**: Wait a bleedin' minute here...
- **8294**: Oi, Gottah! [This is no time to be arsin'-warsin' about!/We got ourselves a bloody-wuddy emergency on our hands!]
- **8295**: Veteran adventurers like ourselves are one thing, but rookies-wookies won't stand a chance out there alone. We're jus' doin' our part to save who we can.

## Events

### Event 65535

#### Metadata

| Field        | Value   |
|--------------|---------|
| Entrypoint   | 0x0000  |
| Data Size    | 1 bytes |
| Instructions | 1       |

```
      00 01 02 03 04 05 06 07  08 09 0A 0B 0C 0D 0E 0F
      -- -- -- -- -- -- -- --  -- -- -- -- -- -- -- --
0000: 00                                                .               
```

#### Opcodes

```
  0: 0x0000 [0x00] END_REQSTACK()
```

### Event 384

#### Metadata

| Field        | Value    |
|--------------|----------|
| Entrypoint   | 0x0001   |
| Data Size    | 57 bytes |
| Instructions | 20       |

```
      00 01 02 03 04 05 06 07  08 09 0A 0B 0C 0D 0E 0F
      -- -- -- -- -- -- -- --  -- -- -- -- -- -- -- --
0000:    1E F0 FF FF 7F 02 02  10 00 80 03 16 00 03 02   ...............
0010: 10 01 80 01 1B 00 03 02  10 02 80 1D 03 80 23 1D  ..............#.
0020: 04 80 23 1D 05 80 23 1D  06 80 23 1E 02 73 0D 01  ..#...#...#..s..
0030: 1D 07 80 23 1D 08 80 23  21 00                    ...#...#!.      
```

#### Opcodes

```
  0: 0x0001 [0x1E] EventEntity looks at LocalPlayer and starts talking
  1: 0x0006 [0x02] IF !(Work_Zone[2] >= 3*) GOTO 0x0016
  2: 0x000E [0x03] Work_Zone[2] = 0*
  3: 0x0013 [0x01] GOTO 0x001B
  4: 0x0016 [0x03] Work_Zone[2] = 1*

SUBROUTINE_001B:
  5: 0x001B [0x1D] PRINT_EVENT_MESSAGE(message_id=8290*)
    → "They sent the lot o' us here from Heavens Tower usin' some barmy mass-teleport magic. That was the idea, 't least. When I came to me senses, there weren't nobody else in sightaru."
  6: 0x001E [0x23] WAIT_FOR_DIALOG_INTERACTION
  7: 0x001F [0x1D] PRINT_EVENT_MESSAGE(message_id=8291*)
    → "I was right lucky to meet up with me mate Gottah here after a bit o' wandering."
  8: 0x0022 [0x23] WAIT_FOR_DIALOG_INTERACTION
  9: 0x0023 [0x1D] PRINT_EVENT_MESSAGE(message_id=8292*)
    → "Wherever could the others've gone off to? I do hope they didn't meet a foul end..."
 10: 0x0026 [0x23] WAIT_FOR_DIALOG_INTERACTION
 11: 0x0027 [0x1D] PRINT_EVENT_MESSAGE(message_id=8293*)
    → "Wait a bleedin' minute here..."
 12: 0x002A [0x23] WAIT_FOR_DIALOG_INTERACTION
 13: 0x002B [0x1E] EventEntity looks at Gottah Maporushanoh (ID: 17658626/0x010D7302) and starts talking
 14: 0x0030 [0x1D] PRINT_EVENT_MESSAGE(message_id=8294*)
    → "Oi, Gottah! [This is no time to be arsin'-warsin' about!/We got ourselves a bloody-wuddy emergency on our hands!]"
 15: 0x0033 [0x23] WAIT_FOR_DIALOG_INTERACTION
 16: 0x0034 [0x1D] PRINT_EVENT_MESSAGE(message_id=8295*)
    → "Veteran adventurers like ourselves are one thing, but rookies-wookies won't stand a chance out there alone. We're jus' doin' our part to save who we can."
 17: 0x0037 [0x23] WAIT_FOR_DIALOG_INTERACTION
 18: 0x0038 [0x21] END_EVENT
 19: 0x0039 [0x00] END_REQSTACK()
```
