# 17658635 - Tsugumi

## Common Data

| Field            | Value                       |
|------------------|-----------------------------|
| Zone             | Abyssea - Attohwa (ID: 215) |
| Block Size       | 176 bytes                   |
| Total Events     | 2                           |
| References Count | 10                          |

## List of Events

| Event ID              | Entrypoint   |   Size |   Instructions |
|-----------------------|--------------|--------|----------------|
| [65535](#event-65535) | 0x0000       |      1 |              1 |
| [392](#event-392)     | 0x0001       |    110 |             30 |

## DAT References (imed_data)

|   Index | Hex Value   |   Dec Value |
|---------|-------------|-------------|
|       0 | 0x0003      |           3 |
|       1 | 0x0001      |           1 |
|       2 | 0x0006      |           6 |
|       3 | 0x0000      |           0 |
|       4 | 0x2091      |        8337 |
|       5 | 0x2092      |        8338 |
|       6 | 0x2093      |        8339 |
|       7 | 0x2094      |        8340 |
|       8 | 0x2095      |        8341 |
|       9 | 0x2096      |        8342 |

## String References

- **8337**: Hello...<cough>...dearie. My husband and I escaped from Jeuno, but ever since we got here...<sniff>...we just haven't been feelin' the same.
- **8338**: We were always...<cough>...healthy for our age. Whatever could be the...<wheeze>...problem?
- **8339**: Thank ye, dearie. I'm feelin' better, but my poor husband's in rough shape.
- **8340**: Do y'hear me, dear? You have to think happy thoughts. It's like you always used to say...mind over matter!
- **8341**: Sweet o' you to show your concern, dearie. M' husband and I are feelin' much better, thank ye.
- **8342**: We were even going to go for a walk together, but a guard stopped us. Ah well. Can't blame them for bein' careful, can I?

## Events

### Event 65535

#### Metadata

| Field        | Value   |
|--------------|---------|
| Entrypoint   | 0x0000  |
| Data Size    | 1 bytes |
| Instructions | 1       |

```
      00 01 02 03 04 05 06 07  08 09 0A 0B 0C 0D 0E 0F
      -- -- -- -- -- -- -- --  -- -- -- -- -- -- -- --
0000: 00                                                .               
```

#### Opcodes

```
  0: 0x0000 [0x00] END_REQSTACK()
```

### Event 392

#### Metadata

| Field        | Value     |
|--------------|-----------|
| Entrypoint   | 0x0001    |
| Data Size    | 110 bytes |
| Instructions | 30        |

```
      00 01 02 03 04 05 06 07  08 09 0A 0B 0C 0D 0E 0F
      -- -- -- -- -- -- -- --  -- -- -- -- -- -- -- --
0000:    02 02 10 00 80 03 16  00 03 00 00 01 80 03 01   ...............
0010: 00 01 80 01 35 00 02 02  10 02 80 03 2B 00 03 00  ....5.......+...
0020: 00 03 80 03 01 00 01 80  01 35 00 03 00 00 03 80  .........5......
0030: 03 01 00 03 80 1E F0 FF  FF 7F 02 00 00 01 80 00  ................
0040: 4D 00 1D 04 80 23 1D 05  80 23 01 6D 00 02 01 00  M....#...#.m....
0050: 01 80 00 65 00 1D 06 80  23 1E 0C 73 0D 01 1D 07  ...e....#..s....
0060: 80 23 01 6D 00 1D 08 80  23 1D 09 80 23 21 00     .#.m....#...#!. 
```

#### Opcodes

```
  0: 0x0001 [0x02] IF !(Work_Zone[2] >= 3*) GOTO 0x0016
  1: 0x0009 [0x03] ExtData[1]->WorkLocal[0] = 1*
  2: 0x000E [0x03] ExtData[1]->WorkLocal[1] = 1*
  3: 0x0013 [0x01] GOTO 0x0035
  4: 0x0016 [0x02] IF !(Work_Zone[2] >= 6*) GOTO 0x002B
  5: 0x001E [0x03] ExtData[1]->WorkLocal[0] = 0*
  6: 0x0023 [0x03] ExtData[1]->WorkLocal[1] = 1*
  7: 0x0028 [0x01] GOTO 0x0035
  8: 0x002B [0x03] ExtData[1]->WorkLocal[0] = 0*
  9: 0x0030 [0x03] ExtData[1]->WorkLocal[1] = 0*

SUBROUTINE_0035:
 10: 0x0035 [0x1E] EventEntity looks at LocalPlayer and starts talking
 11: 0x003A [0x02] IF !(ExtData[1]->WorkLocal[0] == 1*) GOTO 0x004D
 12: 0x0042 [0x1D] PRINT_EVENT_MESSAGE(message_id=8337*)
    → "Hello...<cough>...dearie. My husband and I escaped from Jeuno, but ever since we got here...<sniff>...we just haven't been feelin' the same."
 13: 0x0045 [0x23] WAIT_FOR_DIALOG_INTERACTION
 14: 0x0046 [0x1D] PRINT_EVENT_MESSAGE(message_id=8338*)
    → "We were always...<cough>...healthy for our age. Whatever could be the...<wheeze>...problem?"
 15: 0x0049 [0x23] WAIT_FOR_DIALOG_INTERACTION
 16: 0x004A [0x01] GOTO 0x006D
 17: 0x004D [0x02] IF !(ExtData[1]->WorkLocal[1] == 1*) GOTO 0x0065
 18: 0x0055 [0x1D] PRINT_EVENT_MESSAGE(message_id=8339*)
    → "Thank ye, dearie. I'm feelin' better, but my poor husband's in rough shape."
 19: 0x0058 [0x23] WAIT_FOR_DIALOG_INTERACTION
 20: 0x0059 [0x1E] EventEntity looks at Akta (ID: 17658636/0x010D730C) and starts talking
 21: 0x005E [0x1D] PRINT_EVENT_MESSAGE(message_id=8340*)
    → "Do y'hear me, dear? You have to think happy thoughts. It's like you always used to say...mind over matter!"
 22: 0x0061 [0x23] WAIT_FOR_DIALOG_INTERACTION
 23: 0x0062 [0x01] GOTO 0x006D
 24: 0x0065 [0x1D] PRINT_EVENT_MESSAGE(message_id=8341*)
    → "Sweet o' you to show your concern, dearie. M' husband and I are feelin' much better, thank ye."
 25: 0x0068 [0x23] WAIT_FOR_DIALOG_INTERACTION
 26: 0x0069 [0x1D] PRINT_EVENT_MESSAGE(message_id=8342*)
    → "We were even going to go for a walk together, but a guard stopped us. Ah well. Can't blame them for bein' careful, can I?"
 27: 0x006C [0x23] WAIT_FOR_DIALOG_INTERACTION

SUBROUTINE_006D:
 28: 0x006D [0x21] END_EVENT
 29: 0x006E [0x00] END_REQSTACK()
```
