# Event 18

## Metadata

| Field           | Value    |
|-----------------|----------|
| Event Index     | 5/7      |
| Offset          | 0x00D2   |
| Data Size       | 46 bytes |
| Calculated Size | 46 bytes |
| Instructions    | 10       |

```
      00 01 02 03 04 05 06 07  08 09 0A 0B 0C 0D 0E 0F
      -- -- -- -- -- -- -- --  -- -- -- -- -- -- -- --
00D0:       42 1A 46 01 1D 10  80 23 5B 05 80 F8 FF FF    B.F....#[.....
00E0: 7F F8 FF FF 7F 70 61 73  30 1D 11 80 23 45 12 80  .....pas0...#E..
00F0: F0 FF FF 7F F0 FF FF 7F  71 73 74 63 03 80 21 00  ........qstc..!.
```

## Opcodes

```
  0: 0x00D2 [0x42] SET_CLI_EVENT_CANCEL_DATA()
  1: 0x00D3 [0x1A] CALL_SUBROUTINE(address=0x0146)
  2: 0x00D6 [0x1D] PRINT_EVENT_MESSAGE(message_id=10167*)
    → "Gnyah-hoh-hoh! If it isn't a set of \u0001\u0005%\u0002\u0001\u0000\u0000! Here's the payment I promised you.\u007F1\u0000\u0007"
  3: 0x00D9 [0x23] WAIT_FOR_DIALOG_INTERACTION
  4: 0x00DA [0x5B] LOAD_EXT_SCHEDULER(work_offset=238*, entity1=EventEntity, entity2=EventEntity, action="pas0")
  5: 0x00E9 [0x1D] PRINT_EVENT_MESSAGE(message_id=10168*)
    → "If you ever come across any more, bring them to me, 'cause I'll be happy to take them off your hands for you. Like they say, \u00072You scratch my back, I'll scratch yours.\u00073\u007F1\u0000\u0007"
  6: 0x00EC [0x23] WAIT_FOR_DIALOG_INTERACTION
  7: 0x00ED [0x45] LOAD_SCHEDULED_TASK(work_offset1=201*, entity1=LocalPlayer, entity2=LocalPlayer, scheduler_id="qstc", work_offset2=0*)
  8: 0x00FE [0x21] END_EVENT
  9: 0x00FF [0x00] END_REQSTACK()
```
