# Event 842

## Metadata

| Field           | Value    |
|-----------------|----------|
| Event Index     | 17/26    |
| Offset          | 0x0104   |
| Data Size       | 46 bytes |
| Calculated Size | 46 bytes |
| Instructions    | 10       |

```
      00 01 02 03 04 05 06 07  08 09 0A 0B 0C 0D 0E 0F
      -- -- -- -- -- -- -- --  -- -- -- -- -- -- -- --
0100:             1E F0 FF FF  7F 1C 00 80 66 14 80 F8      ........f...
0110: FF FF 7F F8 FF FF 7F 64  69 73 30 1D 15 80 23 53  .......dis0...#S
0120: F8 FF FF 7F F8 FF FF 7F  64 69 73 30 1D 16 80 23  ........dis0...#
0130: 21 00                                             !.              
```

## Opcodes

```
  0: 0x0104 [0x1E] EventEntity looks at LocalPlayer and starts talking
  1: 0x0109 [0x1C] WAIT(30* ticks)
  2: 0x010C [0x66] LOAD_EXT_SCHEDULER_MAIN(work_offset=52*, entity1=EventEntity, entity2=EventEntity, action="dis0")
  3: 0x011B [0x1D] PRINT_EVENT_MESSAGE(message_id=7175*)
    → "Foudeel is still at the Shararat Teahouse? Wow... Whateverrr has him down must be really serious.\u007F1\u0000\u0007"
  4: 0x011E [0x23] WAIT_FOR_DIALOG_INTERACTION
  5: 0x011F [0x53] WAIT_SCHEDULER_TASK(entity1=EventEntity, entity2=EventEntity, action_id="dis0")
  6: 0x012C [0x1D] PRINT_EVENT_MESSAGE(message_id=7176*)
    → "Hm? Have I been over therrre to check up on him? Hah! I haven't moved a muscle since we last talked. Just ask anybody.\u007F1\u0000\u0007"
  7: 0x012F [0x23] WAIT_FOR_DIALOG_INTERACTION
  8: 0x0130 [0x21] END_EVENT
  9: 0x0131 [0x00] END_REQSTACK()
```
