# 17469797 - Star Sibyl

## Common Data

| Field            | Value                      |
|------------------|----------------------------|
| Zone             | Toraimarai Canal (ID: 169) |
| Block Size       | 884 bytes                  |
| Total Events     | 41                         |
| References Count | 37                         |

## List of Events

| Event ID                   | Entrypoint   |   Size |   Instructions |
|----------------------------|--------------|--------|----------------|
| [65535](#event-65535)      | 0x0000       |      1 |              1 |
| [41](#event-41)            | 0x0001       |      1 |              1 |
| [65535.1](#event-655351)   | 0x0002       |     14 |              4 |
| [65535.2](#event-655352)   | 0x0010       |      5 |              3 |
| [65535.3](#event-655353)   | 0x0015       |      5 |              3 |
| [65535.4](#event-655354)   | 0x001A       |      5 |              3 |
| [65535.5](#event-655355)   | 0x001F       |      5 |              3 |
| [65535.6](#event-655356)   | 0x0024       |      5 |              3 |
| [65535.7](#event-655357)   | 0x0029       |     16 |              2 |
| [65535.8](#event-655358)   | 0x0039       |     42 |              4 |
| [65535.9](#event-655359)   | 0x0063       |     16 |              2 |
| [65535.10](#event-6553510) | 0x0073       |     14 |              2 |
| [65535.11](#event-6553511) | 0x0081       |     16 |              2 |
| [65535.12](#event-6553512) | 0x0091       |     22 |              4 |
| [65535.13](#event-6553513) | 0x00A7       |     16 |              2 |
| [65535.14](#event-6553514) | 0x00B7       |     22 |              4 |
| [65535.15](#event-6553515) | 0x00CD       |     16 |              2 |
| [65535.16](#event-6553516) | 0x00DD       |     14 |              2 |
| [65535.17](#event-6553517) | 0x00EB       |     16 |              2 |
| [65535.18](#event-6553518) | 0x00FB       |     14 |              2 |
| [65535.19](#event-6553519) | 0x0109       |     16 |              2 |
| [65535.20](#event-6553520) | 0x0119       |     14 |              2 |
| [65535.21](#event-6553521) | 0x0127       |     16 |              2 |
| [65535.22](#event-6553522) | 0x0137       |     14 |              2 |
| [65535.23](#event-6553523) | 0x0145       |      9 |              3 |
| [69](#event-69)            | 0x014E       |     10 |              2 |
| [65535.24](#event-6553524) | 0x0158       |     14 |              4 |
| [65535.25](#event-6553525) | 0x0166       |     30 |              8 |
| [65535.26](#event-6553526) | 0x0184       |     14 |              4 |
| [65535.27](#event-6553527) | 0x0192       |     27 |              7 |
| [65535.28](#event-6553528) | 0x01AD       |      5 |              3 |
| [65535.29](#event-6553529) | 0x01B2       |      5 |              3 |
| [65535.30](#event-6553530) | 0x01B7       |      5 |              3 |
| [65535.31](#event-6553531) | 0x01BC       |     19 |              5 |
| [65535.32](#event-6553532) | 0x01CF       |     12 |              4 |
| [65535.33](#event-6553533) | 0x01DB       |     26 |              6 |
| [65535.34](#event-6553534) | 0x01F5       |      5 |              3 |
| [65535.35](#event-6553535) | 0x01FA       |      5 |              3 |
| [65535.36](#event-6553536) | 0x01FF       |      5 |              3 |
| [65535.37](#event-6553537) | 0x0204       |     19 |              5 |
| [65535.38](#event-6553538) | 0x0217       |     19 |              5 |

## DAT References (imed_data)

|   Index | Hex Value   |   Dec Value |
|---------|-------------|-------------|
|       0 | 0x000D      |          13 |
|       1 | 0x22BB5     |      142261 |
|       2 | 0xFFFFB0DB  |  4294947035 |
|       3 | 0x32C7      |       12999 |
|       4 | 0x1D0E      |        7438 |
|       5 | 0x1D12      |        7442 |
|       6 | 0x1D14      |        7444 |
|       7 | 0x1D15      |        7445 |
|       8 | 0x1D16      |        7446 |
|       9 | 0x00AA      |         170 |
|      10 | 0x001E      |          30 |
|      11 | 0x24344     |      148292 |
|      12 | 0xFFFFBDB9  |  4294950329 |
|      13 | 0x2710      |       10000 |
|      14 | 0x0807      |        2055 |
|      15 | 0x0007      |           7 |
|      16 | 0x23CDF     |      146655 |
|      17 | 0xFFFFC1C4  |  4294951364 |
|      18 | 0x270F      |        9999 |
|      19 | 0x23036     |      143414 |
|      20 | 0xFFFFA7F8  |  4294944760 |
|      21 | 0x0BA4      |        2980 |
|      22 | 0x22E0D     |      142861 |
|      23 | 0xFFFFB16F  |  4294947183 |
|      24 | 0x235A3     |      144803 |
|      25 | 0x0BA0      |        2976 |
|      26 | 0x1D2F      |        7471 |
|      27 | 0x1D30      |        7472 |
|      28 | 0x1D31      |        7473 |
|      29 | 0x1D33      |        7475 |
|      30 | 0x1D35      |        7477 |
|      31 | 0x1D37      |        7479 |
|      32 | 0x1D39      |        7481 |
|      33 | 0x1D3B      |        7483 |
|      34 | 0x1D3C      |        7484 |
|      35 | 0x1D3D      |        7485 |
|      36 | 0x1D3F      |        7487 |

## String References

- **7438**: Summoning, you say?
- **7442**: Hmm...
- **7444**: Yes... Very.
- **7445**: Time is of the essence. The lines of battle are at Tahrongi Canyon, and draw close to Sarutabaruta.
- **7446**: The attack on Oztroja shall fail, and many flames of life will go out, like the Star Reading long ago.
- **7471**: You mustn't touch that!
- **7472**: That book is forbidden. As an experienced adventurer, you should be able to sense the danger. The ominous power that lurks within...
- **7473**: How did you come to be here? No one can enter this room except through my private chambers in Heavens Tower.
- **7475**: ...Is it possible you have...? Have you found Karaha-Baruha's ring? The one that was lost all those years ago?
- **7477**: Well, then. I should explain about this place.
- **7479**: This is the Animastery. It is the hidden sixth ministry, and was built almost twenty-five years ago.
- **7481**: He formulated a theory for drawing magical power from living beings, as opposed to nature. This magic would manifest the same amount of power as the creature it was drawn from.
- **7483**: However, we were in need of power. The power that could be gained from normal creatures was insufficient. We needed the near limitless energy that could be harnessed from a truly awesome entity...
- **7484**: Windurst was delivered from obliteration by that very power. But the price we paid for it... I'm sure you are aware of what we lost...
- **7485**: Please take the time to read the books here before you leave. If it was Karaha-Baruha's star that led you to this place, then I will not hold this trespass against you.
- **7487**: I see it now, <Player>... You have a star to guide you.

## Events

### Event 65535

#### Metadata

| Field        | Value   |
|--------------|---------|
| Entrypoint   | 0x0000  |
| Data Size    | 1 bytes |
| Instructions | 1       |

```
      00 01 02 03 04 05 06 07  08 09 0A 0B 0C 0D 0E 0F
      -- -- -- -- -- -- -- --  -- -- -- -- -- -- -- --
0000: 00                                                .               
```

#### Opcodes

```
  0: 0x0000 [0x00] END_REQSTACK()
```

### Event 41

#### Metadata

| Field        | Value   |
|--------------|---------|
| Entrypoint   | 0x0001  |
| Data Size    | 1 bytes |
| Instructions | 1       |

```
      00 01 02 03 04 05 06 07  08 09 0A 0B 0C 0D 0E 0F
      -- -- -- -- -- -- -- --  -- -- -- -- -- -- -- --
0000:    00                                              .              
```

#### Opcodes

```
  0: 0x0001 [0x00] END_REQSTACK()
```

### Event 65535.1

#### Metadata

| Field        | Value    |
|--------------|----------|
| Entrypoint   | 0x0002   |
| Data Size    | 14 bytes |
| Instructions | 4        |

```
      00 01 02 03 04 05 06 07  08 09 0A 0B 0C 0D 0E 0F
      -- -- -- -- -- -- -- --  -- -- -- -- -- -- -- --
0000:       32 00 80 1F 00 01  80 02 80 03 80 1F 01 00    2.............
```

#### Opcodes

```
  0: 0x0002 [0x32] ExtData[1]->MainSpeed = 13* * 0.1
  1: 0x0005 [0x1F] MOVE_ENTITY: EventEntity moves to X=142.261*, Z=-20.261*, Y=12.999*
  2: 0x000D [0x1F] MOVE_ENTITY: Update entity position (mode=1)
  3: 0x000F [0x00] END_REQSTACK()
```

### Event 65535.2

#### Metadata

| Field        | Value   |
|--------------|---------|
| Entrypoint   | 0x0010  |
| Data Size    | 5 bytes |
| Instructions | 3       |

```
      00 01 02 03 04 05 06 07  08 09 0A 0B 0C 0D 0E 0F
      -- -- -- -- -- -- -- --  -- -- -- -- -- -- -- --
0010: 1D 04 80 23 00                                    ...#.           
```

#### Opcodes

```
  0: 0x0010 [0x1D] PRINT_EVENT_MESSAGE(message_id=7438*)
    → "Summoning, you say?"
  1: 0x0013 [0x23] WAIT_FOR_DIALOG_INTERACTION
  2: 0x0014 [0x00] END_REQSTACK()
```

### Event 65535.3

#### Metadata

| Field        | Value   |
|--------------|---------|
| Entrypoint   | 0x0015  |
| Data Size    | 5 bytes |
| Instructions | 3       |

```
      00 01 02 03 04 05 06 07  08 09 0A 0B 0C 0D 0E 0F
      -- -- -- -- -- -- -- --  -- -- -- -- -- -- -- --
0010:                1D 05 80  23 00                         ...#.      
```

#### Opcodes

```
  0: 0x0015 [0x1D] PRINT_EVENT_MESSAGE(message_id=7442*)
    → "Hmm..."
  1: 0x0018 [0x23] WAIT_FOR_DIALOG_INTERACTION
  2: 0x0019 [0x00] END_REQSTACK()
```

### Event 65535.4

#### Metadata

| Field        | Value   |
|--------------|---------|
| Entrypoint   | 0x001A  |
| Data Size    | 5 bytes |
| Instructions | 3       |

```
      00 01 02 03 04 05 06 07  08 09 0A 0B 0C 0D 0E 0F
      -- -- -- -- -- -- -- --  -- -- -- -- -- -- -- --
0010:                                1D 06 80 23 00               ...#. 
```

#### Opcodes

```
  0: 0x001A [0x1D] PRINT_EVENT_MESSAGE(message_id=7444*)
    → "Yes... Very."
  1: 0x001D [0x23] WAIT_FOR_DIALOG_INTERACTION
  2: 0x001E [0x00] END_REQSTACK()
```

### Event 65535.5

#### Metadata

| Field        | Value   |
|--------------|---------|
| Entrypoint   | 0x001F  |
| Data Size    | 5 bytes |
| Instructions | 3       |

```
      00 01 02 03 04 05 06 07  08 09 0A 0B 0C 0D 0E 0F
      -- -- -- -- -- -- -- --  -- -- -- -- -- -- -- --
0010:                                               1D                 .
0020: 07 80 23 00                                       ..#.            
```

#### Opcodes

```
  0: 0x001F [0x1D] PRINT_EVENT_MESSAGE(message_id=7445*)
    → "Time is of the essence. The lines of battle are at Tahrongi Canyon, and draw close to Sarutabaruta."
  1: 0x0022 [0x23] WAIT_FOR_DIALOG_INTERACTION
  2: 0x0023 [0x00] END_REQSTACK()
```

### Event 65535.6

#### Metadata

| Field        | Value   |
|--------------|---------|
| Entrypoint   | 0x0024  |
| Data Size    | 5 bytes |
| Instructions | 3       |

```
      00 01 02 03 04 05 06 07  08 09 0A 0B 0C 0D 0E 0F
      -- -- -- -- -- -- -- --  -- -- -- -- -- -- -- --
0020:             1D 08 80 23  00                           ...#.       
```

#### Opcodes

```
  0: 0x0024 [0x1D] PRINT_EVENT_MESSAGE(message_id=7446*)
    → "The attack on Oztroja shall fail, and many flames of life will go out, like the Star Reading long ago."
  1: 0x0027 [0x23] WAIT_FOR_DIALOG_INTERACTION
  2: 0x0028 [0x00] END_REQSTACK()
```

### Event 65535.7

#### Metadata

| Field        | Value    |
|--------------|----------|
| Entrypoint   | 0x0029   |
| Data Size    | 16 bytes |
| Instructions | 2        |

```
      00 01 02 03 04 05 06 07  08 09 0A 0B 0C 0D 0E 0F
      -- -- -- -- -- -- -- --  -- -- -- -- -- -- -- --
0020:                             5B 09 80 F8 FF FF 7F           [......
0030: F8 FF FF 7F 74 6C 61 30  00                       ....tla0.       
```

#### Opcodes

```
  0: 0x0029 [0x5B] LOAD_EXT_SCHEDULER: Load scheduler "tla0" with entities [EventEntity, EventEntity], work=170*
  1: 0x0038 [0x00] END_REQSTACK()
```

### Event 65535.8

#### Metadata

| Field        | Value    |
|--------------|----------|
| Entrypoint   | 0x0039   |
| Data Size    | 42 bytes |
| Instructions | 4        |

```
      00 01 02 03 04 05 06 07  08 09 0A 0B 0C 0D 0E 0F
      -- -- -- -- -- -- -- --  -- -- -- -- -- -- -- --
0030:                             53 F8 FF FF 7F F8 FF           S......
0040: FF 7F 74 6C 61 30 5B 09  80 F8 FF FF 7F F8 FF FF  ..tla0[.........
0050: 7F 74 6C 61 31 53 F8 FF  FF 7F F8 FF FF 7F 74 6C  .tla1S........tl
0060: 61 31 00                                          a1.             
```

#### Opcodes

```
  0: 0x0039 [0x53] WAIT_SCHEDULER_TASK: Wait for scheduler "tla0" with entities [EventEntity, EventEntity]
  1: 0x0046 [0x5B] LOAD_EXT_SCHEDULER: Load scheduler "tla1" with entities [EventEntity, EventEntity], work=170*
  2: 0x0055 [0x53] WAIT_SCHEDULER_TASK: Wait for scheduler "tla1" with entities [EventEntity, EventEntity]
  3: 0x0062 [0x00] END_REQSTACK()
```

### Event 65535.9

#### Metadata

| Field        | Value    |
|--------------|----------|
| Entrypoint   | 0x0063   |
| Data Size    | 16 bytes |
| Instructions | 2        |

```
      00 01 02 03 04 05 06 07  08 09 0A 0B 0C 0D 0E 0F
      -- -- -- -- -- -- -- --  -- -- -- -- -- -- -- --
0060:          5B 09 80 F8 FF  FF 7F F8 FF FF 7F 74 6C     [..........tl
0070: 62 30 00                                          b0.             
```

#### Opcodes

```
  0: 0x0063 [0x5B] LOAD_EXT_SCHEDULER: Load scheduler "tlb0" with entities [EventEntity, EventEntity], work=170*
  1: 0x0072 [0x00] END_REQSTACK()
```

### Event 65535.10

#### Metadata

| Field        | Value    |
|--------------|----------|
| Entrypoint   | 0x0073   |
| Data Size    | 14 bytes |
| Instructions | 2        |

```
      00 01 02 03 04 05 06 07  08 09 0A 0B 0C 0D 0E 0F
      -- -- -- -- -- -- -- --  -- -- -- -- -- -- -- --
0070:          53 F8 FF FF 7F  F8 FF FF 7F 74 6C 62 30     S........tlb0
0080: 00                                                .               
```

#### Opcodes

```
  0: 0x0073 [0x53] WAIT_SCHEDULER_TASK: Wait for scheduler "tlb0" with entities [EventEntity, EventEntity]
  1: 0x0080 [0x00] END_REQSTACK()
```

### Event 65535.11

#### Metadata

| Field        | Value    |
|--------------|----------|
| Entrypoint   | 0x0081   |
| Data Size    | 16 bytes |
| Instructions | 2        |

```
      00 01 02 03 04 05 06 07  08 09 0A 0B 0C 0D 0E 0F
      -- -- -- -- -- -- -- --  -- -- -- -- -- -- -- --
0080:    5B 09 80 F8 FF FF 7F  F8 FF FF 7F 74 6C 63 30   [..........tlc0
0090: 00                                                .               
```

#### Opcodes

```
  0: 0x0081 [0x5B] LOAD_EXT_SCHEDULER: Load scheduler "tlc0" with entities [EventEntity, EventEntity], work=170*
  1: 0x0090 [0x00] END_REQSTACK()
```

### Event 65535.12

#### Metadata

| Field        | Value    |
|--------------|----------|
| Entrypoint   | 0x0091   |
| Data Size    | 22 bytes |
| Instructions | 4        |

```
      00 01 02 03 04 05 06 07  08 09 0A 0B 0C 0D 0E 0F
      -- -- -- -- -- -- -- --  -- -- -- -- -- -- -- --
0090:    53 F8 FF FF 7F F8 FF  FF 7F 74 6C 63 30 5E 69   S........tlc0^i
00A0: 64 6C 30 1C 0A 80 00                              dl0....         
```

#### Opcodes

```
  0: 0x0091 [0x53] WAIT_SCHEDULER_TASK: Wait for scheduler "tlc0" with entities [EventEntity, EventEntity]
  1: 0x009E [0x5E] EventEntity goes idle (kills current action) (animation: "idl0")
  2: 0x00A3 [0x1C] WAIT(30* ticks)
  3: 0x00A6 [0x00] END_REQSTACK()
```

### Event 65535.13

#### Metadata

| Field        | Value    |
|--------------|----------|
| Entrypoint   | 0x00A7   |
| Data Size    | 16 bytes |
| Instructions | 2        |

```
      00 01 02 03 04 05 06 07  08 09 0A 0B 0C 0D 0E 0F
      -- -- -- -- -- -- -- --  -- -- -- -- -- -- -- --
00A0:                      5B  09 80 F8 FF FF 7F F8 FF         [........
00B0: FF 7F 74 6C 64 30 00                              ..tld0.         
```

#### Opcodes

```
  0: 0x00A7 [0x5B] LOAD_EXT_SCHEDULER: Load scheduler "tld0" with entities [EventEntity, EventEntity], work=170*
  1: 0x00B6 [0x00] END_REQSTACK()
```

### Event 65535.14

#### Metadata

| Field        | Value    |
|--------------|----------|
| Entrypoint   | 0x00B7   |
| Data Size    | 22 bytes |
| Instructions | 4        |

```
      00 01 02 03 04 05 06 07  08 09 0A 0B 0C 0D 0E 0F
      -- -- -- -- -- -- -- --  -- -- -- -- -- -- -- --
00B0:                      53  F8 FF FF 7F F8 FF FF 7F         S........
00C0: 74 6C 64 30 5E 69 64 6C  30 1C 0A 80 00           tld0^idl0....   
```

#### Opcodes

```
  0: 0x00B7 [0x53] WAIT_SCHEDULER_TASK: Wait for scheduler "tld0" with entities [EventEntity, EventEntity]
  1: 0x00C4 [0x5E] EventEntity goes idle (kills current action) (animation: "idl0")
  2: 0x00C9 [0x1C] WAIT(30* ticks)
  3: 0x00CC [0x00] END_REQSTACK()
```

### Event 65535.15

#### Metadata

| Field        | Value    |
|--------------|----------|
| Entrypoint   | 0x00CD   |
| Data Size    | 16 bytes |
| Instructions | 2        |

```
      00 01 02 03 04 05 06 07  08 09 0A 0B 0C 0D 0E 0F
      -- -- -- -- -- -- -- --  -- -- -- -- -- -- -- --
00C0:                                         5B 09 80               [..
00D0: F8 FF FF 7F F8 FF FF 7F  74 6C 64 31 00           ........tld1.   
```

#### Opcodes

```
  0: 0x00CD [0x5B] LOAD_EXT_SCHEDULER: Load scheduler "tld1" with entities [EventEntity, EventEntity], work=170*
  1: 0x00DC [0x00] END_REQSTACK()
```

### Event 65535.16

#### Metadata

| Field        | Value    |
|--------------|----------|
| Entrypoint   | 0x00DD   |
| Data Size    | 14 bytes |
| Instructions | 2        |

```
      00 01 02 03 04 05 06 07  08 09 0A 0B 0C 0D 0E 0F
      -- -- -- -- -- -- -- --  -- -- -- -- -- -- -- --
00D0:                                         53 F8 FF               S..
00E0: FF 7F F8 FF FF 7F 74 6C  64 31 00                 ......tld1.     
```

#### Opcodes

```
  0: 0x00DD [0x53] WAIT_SCHEDULER_TASK: Wait for scheduler "tld1" with entities [EventEntity, EventEntity]
  1: 0x00EA [0x00] END_REQSTACK()
```

### Event 65535.17

#### Metadata

| Field        | Value    |
|--------------|----------|
| Entrypoint   | 0x00EB   |
| Data Size    | 16 bytes |
| Instructions | 2        |

```
      00 01 02 03 04 05 06 07  08 09 0A 0B 0C 0D 0E 0F
      -- -- -- -- -- -- -- --  -- -- -- -- -- -- -- --
00E0:                                   5B 09 80 F8 FF             [....
00F0: FF 7F F8 FF FF 7F 74 68  6B 31 00                 ......thk1.     
```

#### Opcodes

```
  0: 0x00EB [0x5B] LOAD_EXT_SCHEDULER: Load scheduler "thk1" with entities [EventEntity, EventEntity], work=170*
  1: 0x00FA [0x00] END_REQSTACK()
```

### Event 65535.18

#### Metadata

| Field        | Value    |
|--------------|----------|
| Entrypoint   | 0x00FB   |
| Data Size    | 14 bytes |
| Instructions | 2        |

```
      00 01 02 03 04 05 06 07  08 09 0A 0B 0C 0D 0E 0F
      -- -- -- -- -- -- -- --  -- -- -- -- -- -- -- --
00F0:                                   53 F8 FF FF 7F             S....
0100: F8 FF FF 7F 74 68 6B 31  00                       ....thk1.       
```

#### Opcodes

```
  0: 0x00FB [0x53] WAIT_SCHEDULER_TASK: Wait for scheduler "thk1" with entities [EventEntity, EventEntity]
  1: 0x0108 [0x00] END_REQSTACK()
```

### Event 65535.19

#### Metadata

| Field        | Value    |
|--------------|----------|
| Entrypoint   | 0x0109   |
| Data Size    | 16 bytes |
| Instructions | 2        |

```
      00 01 02 03 04 05 06 07  08 09 0A 0B 0C 0D 0E 0F
      -- -- -- -- -- -- -- --  -- -- -- -- -- -- -- --
0100:                             5B 09 80 F8 FF FF 7F           [......
0110: F8 FF FF 7F 74 68 6B 32  00                       ....thk2.       
```

#### Opcodes

```
  0: 0x0109 [0x5B] LOAD_EXT_SCHEDULER: Load scheduler "thk2" with entities [EventEntity, EventEntity], work=170*
  1: 0x0118 [0x00] END_REQSTACK()
```

### Event 65535.20

#### Metadata

| Field        | Value    |
|--------------|----------|
| Entrypoint   | 0x0119   |
| Data Size    | 14 bytes |
| Instructions | 2        |

```
      00 01 02 03 04 05 06 07  08 09 0A 0B 0C 0D 0E 0F
      -- -- -- -- -- -- -- --  -- -- -- -- -- -- -- --
0110:                             53 F8 FF FF 7F F8 FF           S......
0120: FF 7F 74 68 6B 32 00                              ..thk2.         
```

#### Opcodes

```
  0: 0x0119 [0x53] WAIT_SCHEDULER_TASK: Wait for scheduler "thk2" with entities [EventEntity, EventEntity]
  1: 0x0126 [0x00] END_REQSTACK()
```

### Event 65535.21

#### Metadata

| Field        | Value    |
|--------------|----------|
| Entrypoint   | 0x0127   |
| Data Size    | 16 bytes |
| Instructions | 2        |

```
      00 01 02 03 04 05 06 07  08 09 0A 0B 0C 0D 0E 0F
      -- -- -- -- -- -- -- --  -- -- -- -- -- -- -- --
0120:                      5B  09 80 F8 FF FF 7F F8 FF         [........
0130: FF 7F 7A 65 74 30 00                              ..zet0.         
```

#### Opcodes

```
  0: 0x0127 [0x5B] LOAD_EXT_SCHEDULER: Load scheduler "zet0" with entities [EventEntity, EventEntity], work=170*
  1: 0x0136 [0x00] END_REQSTACK()
```

### Event 65535.22

#### Metadata

| Field        | Value    |
|--------------|----------|
| Entrypoint   | 0x0137   |
| Data Size    | 14 bytes |
| Instructions | 2        |

```
      00 01 02 03 04 05 06 07  08 09 0A 0B 0C 0D 0E 0F
      -- -- -- -- -- -- -- --  -- -- -- -- -- -- -- --
0130:                      53  F8 FF FF 7F F8 FF FF 7F         S........
0140: 7A 65 74 30 00                                    zet0.           
```

#### Opcodes

```
  0: 0x0137 [0x53] WAIT_SCHEDULER_TASK: Wait for scheduler "zet0" with entities [EventEntity, EventEntity]
  1: 0x0144 [0x00] END_REQSTACK()
```

### Event 65535.23

#### Metadata

| Field        | Value   |
|--------------|---------|
| Entrypoint   | 0x0145  |
| Data Size    | 9 bytes |
| Instructions | 3       |

```
      00 01 02 03 04 05 06 07  08 09 0A 0B 0C 0D 0E 0F
      -- -- -- -- -- -- -- --  -- -- -- -- -- -- -- --
0140:                5E 69 64  6C 30 1C 0A 80 00             ^idl0....  
```

#### Opcodes

```
  0: 0x0145 [0x5E] EventEntity goes idle (kills current action) (animation: "idl0")
  1: 0x014A [0x1C] WAIT(30* ticks)
  2: 0x014D [0x00] END_REQSTACK()
```

### Event 69

#### Metadata

| Field        | Value    |
|--------------|----------|
| Entrypoint   | 0x014E   |
| Data Size    | 10 bytes |
| Instructions | 2        |

```
      00 01 02 03 04 05 06 07  08 09 0A 0B 0C 0D 0E 0F
      -- -- -- -- -- -- -- --  -- -- -- -- -- -- -- --
0140:                                            37 0B                7.
0150: 80 0C 80 0D 80 0E 80 00                           ........        
```

#### Opcodes

```
  0: 0x014E [0x37] UPDATE_EVENT_POSITION_AND_DIR: x=148.292*, z=-16.967*, y=10.000*, direction=180.6°*
  1: 0x0157 [0x00] END_REQSTACK()
```

### Event 65535.24

#### Metadata

| Field        | Value    |
|--------------|----------|
| Entrypoint   | 0x0158   |
| Data Size    | 14 bytes |
| Instructions | 4        |

```
      00 01 02 03 04 05 06 07  08 09 0A 0B 0C 0D 0E 0F
      -- -- -- -- -- -- -- --  -- -- -- -- -- -- -- --
0150:                          32 0F 80 1F 00 10 80 11          2.......
0160: 80 12 80 1F 01 00                                 ......          
```

#### Opcodes

```
  0: 0x0158 [0x32] ExtData[1]->MainSpeed = 7* * 0.1
  1: 0x015B [0x1F] MOVE_ENTITY: EventEntity moves to X=146.655*, Z=-15.932*, Y=9.999*
  2: 0x0163 [0x1F] MOVE_ENTITY: Update entity position (mode=1)
  3: 0x0165 [0x00] END_REQSTACK()
```

### Event 65535.25

#### Metadata

| Field        | Value    |
|--------------|----------|
| Entrypoint   | 0x0166   |
| Data Size    | 30 bytes |
| Instructions | 8        |

```
      00 01 02 03 04 05 06 07  08 09 0A 0B 0C 0D 0E 0F
      -- -- -- -- -- -- -- --  -- -- -- -- -- -- -- --
0160:                   32 0F  80 37 13 80 14 80 03 80        2..7......
0170: 15 80 1F 00 16 80 17 80  03 80 1F 01 1E F0 FF FF  ................
0180: 7F 6F 70 00                                       .op.            
```

#### Opcodes

```
  0: 0x0166 [0x32] ExtData[1]->MainSpeed = 7* * 0.1
  1: 0x0169 [0x37] UPDATE_EVENT_POSITION_AND_DIR: x=143.414*, z=-22.536*, y=12.999*, direction=261.9°*
  2: 0x0172 [0x1F] MOVE_ENTITY: EventEntity moves to X=142.861*, Z=-20.113*, Y=12.999*
  3: 0x017A [0x1F] MOVE_ENTITY: Update entity position (mode=1)
  4: 0x017C [0x1E] EventEntity looks at LocalPlayer and starts talking
  5: 0x0181 [0x6F] WAIT_FRAME_DELAY: Yield until WaitTime reaches zero
  6: 0x0182 [0x70] WAIT_ENTITY_RENDER_FLAG: Wait while EventEntity->Render.Flags3 bit 2 is set (cancel turn if not)
  7: 0x0183 [0x00] END_REQSTACK()
```

### Event 65535.26

#### Metadata

| Field        | Value    |
|--------------|----------|
| Entrypoint   | 0x0184   |
| Data Size    | 14 bytes |
| Instructions | 4        |

```
      00 01 02 03 04 05 06 07  08 09 0A 0B 0C 0D 0E 0F
      -- -- -- -- -- -- -- --  -- -- -- -- -- -- -- --
0180:             32 0F 80 1F  00 18 80 17 80 03 80 1F      2...........
0190: 01 00                                             ..              
```

#### Opcodes

```
  0: 0x0184 [0x32] ExtData[1]->MainSpeed = 7* * 0.1
  1: 0x0187 [0x1F] MOVE_ENTITY: EventEntity moves to X=144.803*, Z=-20.113*, Y=12.999*
  2: 0x018F [0x1F] MOVE_ENTITY: Update entity position (mode=1)
  3: 0x0191 [0x00] END_REQSTACK()
```

### Event 65535.27

#### Metadata

| Field        | Value    |
|--------------|----------|
| Entrypoint   | 0x0192   |
| Data Size    | 27 bytes |
| Instructions | 7        |

```
      00 01 02 03 04 05 06 07  08 09 0A 0B 0C 0D 0E 0F
      -- -- -- -- -- -- -- --  -- -- -- -- -- -- -- --
0190:       32 0F 80 1F 00 16  80 17 80 03 80 1F 01 4B    2............K
01A0: 65 91 0A 01 19 80 6F 76  65 91 0A 01 00           e.....ove....   
```

#### Opcodes

```
  0: 0x0192 [0x32] ExtData[1]->MainSpeed = 7* * 0.1
  1: 0x0195 [0x1F] MOVE_ENTITY: EventEntity moves to X=142.861*, Z=-20.113*, Y=12.999*
  2: 0x019D [0x1F] MOVE_ENTITY: Update entity position (mode=1)
  3: 0x019F [0x4B] UPDATE_ENTITY_YAW(entity=Star Sibyl (ID: 17469797/0x010A9165), yaw=16.3°*)
  4: 0x01A6 [0x6F] WAIT_FRAME_DELAY: Yield until WaitTime reaches zero
  5: 0x01A7 [0x76] CHECK_ENTITY_RENDER_FLAGS: Wait until Star Sibyl (ID: 17469797/0x010A9165) Render.Flags0 and Render.Flags3 conditions are met
  6: 0x01AC [0x00] END_REQSTACK()
```

### Event 65535.28

#### Metadata

| Field        | Value   |
|--------------|---------|
| Entrypoint   | 0x01AD  |
| Data Size    | 5 bytes |
| Instructions | 3       |

```
      00 01 02 03 04 05 06 07  08 09 0A 0B 0C 0D 0E 0F
      -- -- -- -- -- -- -- --  -- -- -- -- -- -- -- --
01A0:                                         1D 1A 80               ...
01B0: 23 00                                             #.              
```

#### Opcodes

```
  0: 0x01AD [0x1D] PRINT_EVENT_MESSAGE(message_id=7471*)
    → "You mustn't touch that!"
  1: 0x01B0 [0x23] WAIT_FOR_DIALOG_INTERACTION
  2: 0x01B1 [0x00] END_REQSTACK()
```

### Event 65535.29

#### Metadata

| Field        | Value   |
|--------------|---------|
| Entrypoint   | 0x01B2  |
| Data Size    | 5 bytes |
| Instructions | 3       |

```
      00 01 02 03 04 05 06 07  08 09 0A 0B 0C 0D 0E 0F
      -- -- -- -- -- -- -- --  -- -- -- -- -- -- -- --
01B0:       1D 1B 80 23 00                                ...#.         
```

#### Opcodes

```
  0: 0x01B2 [0x1D] PRINT_EVENT_MESSAGE(message_id=7472*)
    → "That book is forbidden. As an experienced adventurer, you should be able to sense the danger. The ominous power that lurks within..."
  1: 0x01B5 [0x23] WAIT_FOR_DIALOG_INTERACTION
  2: 0x01B6 [0x00] END_REQSTACK()
```

### Event 65535.30

#### Metadata

| Field        | Value   |
|--------------|---------|
| Entrypoint   | 0x01B7  |
| Data Size    | 5 bytes |
| Instructions | 3       |

```
      00 01 02 03 04 05 06 07  08 09 0A 0B 0C 0D 0E 0F
      -- -- -- -- -- -- -- --  -- -- -- -- -- -- -- --
01B0:                      1D  1C 80 23 00                     ...#.    
```

#### Opcodes

```
  0: 0x01B7 [0x1D] PRINT_EVENT_MESSAGE(message_id=7473*)
    → "How did you come to be here? No one can enter this room except through my private chambers in Heavens Tower."
  1: 0x01BA [0x23] WAIT_FOR_DIALOG_INTERACTION
  2: 0x01BB [0x00] END_REQSTACK()
```

### Event 65535.31

#### Metadata

| Field        | Value    |
|--------------|----------|
| Entrypoint   | 0x01BC   |
| Data Size    | 19 bytes |
| Instructions | 5        |

```
      00 01 02 03 04 05 06 07  08 09 0A 0B 0C 0D 0E 0F
      -- -- -- -- -- -- -- --  -- -- -- -- -- -- -- --
01B0:                                      29 08 65 91              ).e.
01C0: 0A 01 08 1D 1D 80 23 29  08 65 91 0A 01 09 00     ......#).e..... 
```

#### Opcodes

```
  0: 0x01BC [0x29] REQ_SET_WAIT(priority=0x08, entity_id=Star Sibyl (ID: 17469797/0x010A9165), tag_num=0x08)
  1: 0x01C3 [0x1D] PRINT_EVENT_MESSAGE(message_id=7475*)
    → "...Is it possible you have...? Have you found Karaha-Baruha's ring? The one that was lost all those years ago?"
  2: 0x01C6 [0x23] WAIT_FOR_DIALOG_INTERACTION
  3: 0x01C7 [0x29] REQ_SET_WAIT(priority=0x08, entity_id=Star Sibyl (ID: 17469797/0x010A9165), tag_num=0x09)
  4: 0x01CE [0x00] END_REQSTACK()
```

### Event 65535.32

#### Metadata

| Field        | Value    |
|--------------|----------|
| Entrypoint   | 0x01CF   |
| Data Size    | 12 bytes |
| Instructions | 4        |

```
      00 01 02 03 04 05 06 07  08 09 0A 0B 0C 0D 0E 0F
      -- -- -- -- -- -- -- --  -- -- -- -- -- -- -- --
01C0:                                               29                 )
01D0: 08 65 91 0A 01 0C 1D 1E  80 23 00                 .e.......#.     
```

#### Opcodes

```
  0: 0x01CF [0x29] REQ_SET_WAIT(priority=0x08, entity_id=Star Sibyl (ID: 17469797/0x010A9165), tag_num=0x0C)
  1: 0x01D6 [0x1D] PRINT_EVENT_MESSAGE(message_id=7477*)
    → "Well, then. I should explain about this place."
  2: 0x01D9 [0x23] WAIT_FOR_DIALOG_INTERACTION
  3: 0x01DA [0x00] END_REQSTACK()
```

### Event 65535.33

#### Metadata

| Field        | Value    |
|--------------|----------|
| Entrypoint   | 0x01DB   |
| Data Size    | 26 bytes |
| Instructions | 6        |

```
      00 01 02 03 04 05 06 07  08 09 0A 0B 0C 0D 0E 0F
      -- -- -- -- -- -- -- --  -- -- -- -- -- -- -- --
01D0:                                   29 08 65 91 0A             ).e..
01E0: 01 0D 29 08 65 91 0A 01  08 1D 1F 80 23 29 08 65  ..).e.......#).e
01F0: 91 0A 01 09 00                                    .....           
```

#### Opcodes

```
  0: 0x01DB [0x29] REQ_SET_WAIT(priority=0x08, entity_id=Star Sibyl (ID: 17469797/0x010A9165), tag_num=0x0D)
  1: 0x01E2 [0x29] REQ_SET_WAIT(priority=0x08, entity_id=Star Sibyl (ID: 17469797/0x010A9165), tag_num=0x08)
  2: 0x01E9 [0x1D] PRINT_EVENT_MESSAGE(message_id=7479*)
    → "This is the Animastery. It is the hidden sixth ministry, and was built almost twenty-five years ago."
  3: 0x01EC [0x23] WAIT_FOR_DIALOG_INTERACTION
  4: 0x01ED [0x29] REQ_SET_WAIT(priority=0x08, entity_id=Star Sibyl (ID: 17469797/0x010A9165), tag_num=0x09)
  5: 0x01F4 [0x00] END_REQSTACK()
```

### Event 65535.34

#### Metadata

| Field        | Value   |
|--------------|---------|
| Entrypoint   | 0x01F5  |
| Data Size    | 5 bytes |
| Instructions | 3       |

```
      00 01 02 03 04 05 06 07  08 09 0A 0B 0C 0D 0E 0F
      -- -- -- -- -- -- -- --  -- -- -- -- -- -- -- --
01F0:                1D 20 80  23 00                         . .#.      
```

#### Opcodes

```
  0: 0x01F5 [0x1D] PRINT_EVENT_MESSAGE(message_id=7481*)
    → "He formulated a theory for drawing magical power from living beings, as opposed to nature. This magic would manifest the same amount of power as the creature it was drawn from."
  1: 0x01F8 [0x23] WAIT_FOR_DIALOG_INTERACTION
  2: 0x01F9 [0x00] END_REQSTACK()
```

### Event 65535.35

#### Metadata

| Field        | Value   |
|--------------|---------|
| Entrypoint   | 0x01FA  |
| Data Size    | 5 bytes |
| Instructions | 3       |

```
      00 01 02 03 04 05 06 07  08 09 0A 0B 0C 0D 0E 0F
      -- -- -- -- -- -- -- --  -- -- -- -- -- -- -- --
01F0:                                1D 21 80 23 00               .!.#. 
```

#### Opcodes

```
  0: 0x01FA [0x1D] PRINT_EVENT_MESSAGE(message_id=7483*)
    → "However, we were in need of power. The power that could be gained from normal creatures was insufficient. We needed the near limitless energy that could be harnessed from a truly awesome entity..."
  1: 0x01FD [0x23] WAIT_FOR_DIALOG_INTERACTION
  2: 0x01FE [0x00] END_REQSTACK()
```

### Event 65535.36

#### Metadata

| Field        | Value   |
|--------------|---------|
| Entrypoint   | 0x01FF  |
| Data Size    | 5 bytes |
| Instructions | 3       |

```
      00 01 02 03 04 05 06 07  08 09 0A 0B 0C 0D 0E 0F
      -- -- -- -- -- -- -- --  -- -- -- -- -- -- -- --
01F0:                                               1D                 .
0200: 22 80 23 00                                       ".#.            
```

#### Opcodes

```
  0: 0x01FF [0x1D] PRINT_EVENT_MESSAGE(message_id=7484*)
    → "Windurst was delivered from obliteration by that very power. But the price we paid for it... I'm sure you are aware of what we lost..."
  1: 0x0202 [0x23] WAIT_FOR_DIALOG_INTERACTION
  2: 0x0203 [0x00] END_REQSTACK()
```

### Event 65535.37

#### Metadata

| Field        | Value    |
|--------------|----------|
| Entrypoint   | 0x0204   |
| Data Size    | 19 bytes |
| Instructions | 5        |

```
      00 01 02 03 04 05 06 07  08 09 0A 0B 0C 0D 0E 0F
      -- -- -- -- -- -- -- --  -- -- -- -- -- -- -- --
0200:             29 08 65 91  0A 01 0C 1D 23 80 23 29      ).e.....#.#)
0210: 08 65 91 0A 01 0D 00                              .e.....         
```

#### Opcodes

```
  0: 0x0204 [0x29] REQ_SET_WAIT(priority=0x08, entity_id=Star Sibyl (ID: 17469797/0x010A9165), tag_num=0x0C)
  1: 0x020B [0x1D] PRINT_EVENT_MESSAGE(message_id=7485*)
    → "Please take the time to read the books here before you leave. If it was Karaha-Baruha's star that led you to this place, then I will not hold this trespass against you."
  2: 0x020E [0x23] WAIT_FOR_DIALOG_INTERACTION
  3: 0x020F [0x29] REQ_SET_WAIT(priority=0x08, entity_id=Star Sibyl (ID: 17469797/0x010A9165), tag_num=0x0D)
  4: 0x0216 [0x00] END_REQSTACK()
```

### Event 65535.38

#### Metadata

| Field        | Value    |
|--------------|----------|
| Entrypoint   | 0x0217   |
| Data Size    | 19 bytes |
| Instructions | 5        |

```
      00 01 02 03 04 05 06 07  08 09 0A 0B 0C 0D 0E 0F
      -- -- -- -- -- -- -- --  -- -- -- -- -- -- -- --
0210:                      29  08 65 91 0A 01 0A 1D 24         ).e.....$
0220: 80 23 29 08 65 91 0A 01  0B 00                    .#).e.....      
```

#### Opcodes

```
  0: 0x0217 [0x29] REQ_SET_WAIT(priority=0x08, entity_id=Star Sibyl (ID: 17469797/0x010A9165), tag_num=0x0A)
  1: 0x021E [0x1D] PRINT_EVENT_MESSAGE(message_id=7487*)
    → "I see it now, <Player>... You have a star to guide you."
  2: 0x0221 [0x23] WAIT_FOR_DIALOG_INTERACTION
  3: 0x0222 [0x29] REQ_SET_WAIT(priority=0x08, entity_id=Star Sibyl (ID: 17469797/0x010A9165), tag_num=0x0B)
  4: 0x0229 [0x00] END_REQSTACK()
```
