# 17469818

## Common Data

| Field            | Value                      |
|------------------|----------------------------|
| Zone             | Toraimarai Canal (ID: 169) |
| Block Size       | 676 bytes                  |
| Total Events     | 3                          |
| References Count | 18                         |

## List of Events

| Event ID              | Entrypoint   |   Size |   Instructions |
|-----------------------|--------------|--------|----------------|
| [65535](#event-65535) | 0x0000       |      1 |              1 |
| [48](#event-48)       | 0x0001       |    393 |             54 |
| [55](#event-55)       | 0x018A       |    181 |             32 |

## DAT References (imed_data)

|   Index | Hex Value   |   Dec Value |
|---------|-------------|-------------|
|       0 | 0x0012      |          18 |
|       1 | 0x0000      |           0 |
|       2 | 0x00C8      |         200 |
|       3 | 0x003C      |          60 |
|       4 | 0x0013      |          19 |
|       5 | 0x005E      |          94 |
|       6 | 0x0023      |          35 |
|       7 | 0x0024      |          36 |
|       8 | 0x005A      |          90 |
|       9 | 0x0025      |          37 |
|      10 | 0x00F0      |         240 |
|      11 | 0x00C9      |         201 |
|      12 | 0x0026      |          38 |
|      13 | 0x0001      |           1 |
|      14 | 0x0019      |          25 |
|      15 | 0x001A      |          26 |
|      16 | 0x0027      |          39 |
|      17 | 0x0028      |          40 |

## String References

- **18**: Investigate? [Yes./No.]

## Events

### Event 65535

#### Metadata

| Field        | Value   |
|--------------|---------|
| Entrypoint   | 0x0000  |
| Data Size    | 1 bytes |
| Instructions | 1       |

```
      00 01 02 03 04 05 06 07  08 09 0A 0B 0C 0D 0E 0F
      -- -- -- -- -- -- -- --  -- -- -- -- -- -- -- --
0000: 00                                                .               
```

#### Opcodes

```
  0: 0x0000 [0x00] END_REQSTACK()
```

### Event 48

#### Metadata

| Field        | Value     |
|--------------|-----------|
| Entrypoint   | 0x0001    |
| Data Size    | 393 bytes |
| Instructions | 54        |

```
      00 01 02 03 04 05 06 07  08 09 0A 0B 0C 0D 0E 0F
      -- -- -- -- -- -- -- --  -- -- -- -- -- -- -- --
0000:    20 01 42 92 01 77 91  0A 01 24 00 80 01 80 01    .B..w...$.....
0010: 80 25 02 00 10 01 80 00  7B 01 43 00 43 01 46 01  .%......{.C.C.F.
0020: 45 02 80 F0 FF FF 7F F0  FF FF 7F 66 64 6F 31 01  E..........fdo1.
0030: 80 1C 03 80 38 04 80 29  01 F0 FF FF 7F 06 29 01  ....8..)......).
0040: 77 91 0A 01 0B 45 05 80  F0 FF FF 7F F0 FF FF 7F  w....E..........
0050: 62 6C 6D 31 01 80 45 02  80 F0 FF FF 7F F0 FF FF  blm1..E.........
0060: 7F 66 64 69 31 01 80 1C  03 80 2B 77 91 0A 01 06  .fdi1.....+w....
0070: 80 1C 03 80 2B 77 91 0A  01 06 80 1C 03 80 2B 77  ....+w........+w
0080: 91 0A 01 06 80 1C 03 80  2B 77 91 0A 01 07 80 1C  ........+w......
0090: 08 80 2B 77 91 0A 01 09  80 1C 0A 80 2B 77 91 0A  ..+w........+w..
00A0: 01 07 80 45 02 80 F0 FF  FF 7F F0 FF FF 7F 66 64  ...E..........fd
00B0: 6F 31 01 80 1C 08 80 45  05 80 F0 FF FF 7F F0 FF  o1.....E........
00C0: FF 7F 62 6C 6D 32 01 80  45 0B 80 F0 FF FF 7F F0  ..blm2..E.......
00D0: FF FF 7F 62 6C 6F 6E 01  80 45 02 80 F0 FF FF 7F  ...blon..E......
00E0: F0 FF FF 7F 66 64 69 31  01 80 2B 77 91 0A 01 0C  ....fdi1..+w....
00F0: 80 1C 03 80 2B 77 91 0A  01 0C 80 45 05 80 F0 FF  ....+w.....E....
0100: FF 7F F0 FF FF 7F 62 6C  6D 33 01 80 45 0B 80 F0  ......blm3..E...
0110: FF FF 7F F0 FF FF 7F 62  6C 6F 6E 01 80 1C 03 80  .......blon.....
0120: 2B 77 91 0A 01 0C 80 45  05 80 F0 FF FF 7F F0 FF  +w.....E........
0130: FF 7F 62 6C 6D 34 01 80  45 0B 80 F0 FF FF 7F F0  ..blm4..E.......
0140: FF FF 7F 62 6C 6F 6E 01  80 1C 08 80 03 01 10 0D  ...blon.........
0150: 80 45 02 80 F0 FF FF 7F  F0 FF FF 7F 66 64 6F 31  .E..........fdo1
0160: 01 80 1C 03 80 46 00 45  02 80 F0 FF FF 7F F0 FF  .....F.E........
0170: FF 7F 66 64 69 31 01 80  01 86 01 02 00 10 0D 80  ..fdi1..........
0180: 00 86 01 01 86 01 20 00  21 00                    ...... .!.      
```

#### Opcodes

```
  0: 0x0001 [0x20] SET_CLI_EVENT_UC_FLAG: Lock player control
  1: 0x0003 [0x42] SET_CLI_EVENT_CANCEL_DATA()
  2: 0x0004 [0x92] Talking Doll (ID: 17469815/0x010A9177)->Render.Flags3 ^= 0x01
  3: 0x000A [0x24] CREATE_DIALOG(message_id=18*, default_option=0*, option_flags=0*)
    → "Investigate? [Yes./No.]"
  4: 0x0011 [0x25] WAIT_DIALOG_SELECT()
  5: 0x0012 [0x02] IF !(Work_Zone[0] == 0*) GOTO 0x017B
  6: 0x001A [0x43] SEND_EVENT_UPDATE: Send pending tag to server (packet 0x005B)
  7: 0x001C [0x43] SEND_EVENT_UPDATE: Check pending flag (skip if not pending)
  8: 0x001E [0x46] CAMERA_CONTROL: Disable user control
  9: 0x0020 [0x45] LOAD_SCHEDULED_TASK: Load scheduler "fdo1" with entities [LocalPlayer, LocalPlayer], work=[200*, 0*]
 10: 0x0031 [0x1C] WAIT(60* ticks)
 11: 0x0034 [0x38] SET_CLIENT_EVENT_MODE(mode=19*)
 12: 0x0037 [0x29] REQ_SET_WAIT(priority=0x01, entity_id=LocalPlayer, tag_num=0x06)
 13: 0x003E [0x29] REQ_SET_WAIT(priority=0x01, entity_id=Talking Doll (ID: 17469815/0x010A9177), tag_num=0x0B)
 14: 0x0045 [0x45] LOAD_SCHEDULED_TASK: Load scheduler "blm1" with entities [LocalPlayer, LocalPlayer], work=[94*, 0*]
 15: 0x0056 [0x45] LOAD_SCHEDULED_TASK: Load scheduler "fdi1" with entities [LocalPlayer, LocalPlayer], work=[200*, 0*]
 16: 0x0067 [0x1C] WAIT(60* ticks)
 17: 0x006A [0x2B] Talking Doll (ID: 17469815/0x010A9177) [35*]:
    → "...Beep..."
 18: 0x0071 [0x1C] WAIT(60* ticks)
 19: 0x0074 [0x2B] Talking Doll (ID: 17469815/0x010A9177) [35*]:
    → "...Beep..."
 20: 0x007B [0x1C] WAIT(60* ticks)
 21: 0x007E [0x2B] Talking Doll (ID: 17469815/0x010A9177) [35*]:
    → "...Beep..."
 22: 0x0085 [0x1C] WAIT(60* ticks)
 23: 0x0088 [0x2B] Talking Doll (ID: 17469815/0x010A9177) [36*]:
    → "...Shhhhh...Shh..."
 24: 0x008F [0x1C] WAIT(90* ticks)
 25: 0x0092 [0x2B] Talking Doll (ID: 17469815/0x010A9177) [37*]:
    → "AN EXTREME LEVEL OF STAGNATION HAS BEGUN TO GATHER."
 26: 0x0099 [0x1C] WAIT(240* ticks)
 27: 0x009C [0x2B] Talking Doll (ID: 17469815/0x010A9177) [36*]:
    → "...Shhhhh...Shh..."
 28: 0x00A3 [0x45] LOAD_SCHEDULED_TASK: Load scheduler "fdo1" with entities [LocalPlayer, LocalPlayer], work=[200*, 0*]
 29: 0x00B4 [0x1C] WAIT(90* ticks)
 30: 0x00B7 [0x45] LOAD_SCHEDULED_TASK: Load scheduler "blm2" with entities [LocalPlayer, LocalPlayer], work=[94*, 0*]
 31: 0x00C8 [0x45] LOAD_SCHEDULED_TASK: Load scheduler "blon" with entities [LocalPlayer, LocalPlayer], work=[201*, 0*]
 32: 0x00D9 [0x45] LOAD_SCHEDULED_TASK: Load scheduler "fdi1" with entities [LocalPlayer, LocalPlayer], work=[200*, 0*]
 33: 0x00EA [0x2B] Talking Doll (ID: 17469815/0x010A9177) [38*]:
    → "DANGER! DANGER!"
 34: 0x00F1 [0x1C] WAIT(60* ticks)
 35: 0x00F4 [0x2B] Talking Doll (ID: 17469815/0x010A9177) [38*]:
    → "DANGER! DANGER!"
 36: 0x00FB [0x45] LOAD_SCHEDULED_TASK: Load scheduler "blm3" with entities [LocalPlayer, LocalPlayer], work=[94*, 0*]
 37: 0x010C [0x45] LOAD_SCHEDULED_TASK: Load scheduler "blon" with entities [LocalPlayer, LocalPlayer], work=[201*, 0*]
 38: 0x011D [0x1C] WAIT(60* ticks)
 39: 0x0120 [0x2B] Talking Doll (ID: 17469815/0x010A9177) [38*]:
    → "DANGER! DANGER!"
 40: 0x0127 [0x45] LOAD_SCHEDULED_TASK: Load scheduler "blm4" with entities [LocalPlayer, LocalPlayer], work=[94*, 0*]
 41: 0x0138 [0x45] LOAD_SCHEDULED_TASK: Load scheduler "blon" with entities [LocalPlayer, LocalPlayer], work=[201*, 0*]
 42: 0x0149 [0x1C] WAIT(90* ticks)
 43: 0x014C [0x03] Work_Zone[1] = 1*
 44: 0x0151 [0x45] LOAD_SCHEDULED_TASK: Load scheduler "fdo1" with entities [LocalPlayer, LocalPlayer], work=[200*, 0*]
 45: 0x0162 [0x1C] WAIT(60* ticks)
 46: 0x0165 [0x46] CAMERA_CONTROL: Restore default settings
 47: 0x0167 [0x45] LOAD_SCHEDULED_TASK: Load scheduler "fdi1" with entities [LocalPlayer, LocalPlayer], work=[200*, 0*]
 48: 0x0178 [0x01] GOTO 0x0186
 49: 0x017B [0x02] IF !(Work_Zone[0] == 1*) GOTO 0x0186
 50: 0x0183 [0x01] GOTO 0x0186

SUBROUTINE_0186:
 51: 0x0186 [0x20] SET_CLI_EVENT_UC_FLAG: Unlock player control
 52: 0x0188 [0x21] END_EVENT
 53: 0x0189 [0x00] END_REQSTACK()
```

### Event 55

#### Metadata

| Field        | Value     |
|--------------|-----------|
| Entrypoint   | 0x018A    |
| Data Size    | 181 bytes |
| Instructions | 32        |

```
      00 01 02 03 04 05 06 07  08 09 0A 0B 0C 0D 0E 0F
      -- -- -- -- -- -- -- --  -- -- -- -- -- -- -- --
0180:                                20 01 42 92 01 77             .B..w
0190: 91 0A 01 46 01 45 02 80  F0 FF FF 7F F0 FF FF 7F  ...F.E..........
01A0: 66 64 6F 31 01 80 1C 03  80 38 04 80 29 01 F0 FF  fdo1.....8..)...
01B0: FF 7F 06 29 01 77 91 0A  01 0B 45 05 80 F0 FF FF  ...).w....E.....
01C0: 7F F0 FF FF 7F 62 6C 6D  63 01 80 45 02 80 F0 FF  .....blmc..E....
01D0: FF 7F F0 FF FF 7F 66 64  69 31 01 80 1C 03 80 2B  ......fdi1.....+
01E0: 77 91 0A 01 0E 80 23 2B  77 91 0A 01 0E 80 23 2B  w.....#+w.....#+
01F0: 77 91 0A 01 0E 80 23 2B  77 91 0A 01 0F 80 23 2B  w.....#+w.....#+
0200: 77 91 0A 01 10 80 23 2B  77 91 0A 01 11 80 23 03  w.....#+w.....#.
0210: 01 10 0D 80 45 02 80 F0  FF FF 7F F0 FF FF 7F 66  ....E..........f
0220: 64 6F 31 01 80 1C 03 80  46 00 45 02 80 F0 FF FF  do1.....F.E.....
0230: 7F F0 FF FF 7F 66 64 69  31 01 80 20 00 21 00     .....fdi1.. .!. 
```

#### Opcodes

```
  0: 0x018A [0x20] SET_CLI_EVENT_UC_FLAG: Lock player control
  1: 0x018C [0x42] SET_CLI_EVENT_CANCEL_DATA()
  2: 0x018D [0x92] Talking Doll (ID: 17469815/0x010A9177)->Render.Flags3 ^= 0x01
  3: 0x0193 [0x46] CAMERA_CONTROL: Disable user control
  4: 0x0195 [0x45] LOAD_SCHEDULED_TASK: Load scheduler "fdo1" with entities [LocalPlayer, LocalPlayer], work=[200*, 0*]
  5: 0x01A6 [0x1C] WAIT(60* ticks)
  6: 0x01A9 [0x38] SET_CLIENT_EVENT_MODE(mode=19*)
  7: 0x01AC [0x29] REQ_SET_WAIT(priority=0x01, entity_id=LocalPlayer, tag_num=0x06)
  8: 0x01B3 [0x29] REQ_SET_WAIT(priority=0x01, entity_id=Talking Doll (ID: 17469815/0x010A9177), tag_num=0x0B)
  9: 0x01BA [0x45] LOAD_SCHEDULED_TASK: Load scheduler "blmc" with entities [LocalPlayer, LocalPlayer], work=[94*, 0*]
 10: 0x01CB [0x45] LOAD_SCHEDULED_TASK: Load scheduler "fdi1" with entities [LocalPlayer, LocalPlayer], work=[200*, 0*]
 11: 0x01DC [0x1C] WAIT(60* ticks)
 12: 0x01DF [0x2B] Talking Doll (ID: 17469815/0x010A9177) [25*]:
    → "...Beep..."
 13: 0x01E6 [0x23] WAIT_FOR_DIALOG_INTERACTION
 14: 0x01E7 [0x2B] Talking Doll (ID: 17469815/0x010A9177) [25*]:
    → "...Beep..."
 15: 0x01EE [0x23] WAIT_FOR_DIALOG_INTERACTION
 16: 0x01EF [0x2B] Talking Doll (ID: 17469815/0x010A9177) [25*]:
    → "...Beep..."
 17: 0x01F6 [0x23] WAIT_FOR_DIALOG_INTERACTION
 18: 0x01F7 [0x2B] Talking Doll (ID: 17469815/0x010A9177) [26*]:
    → "...Beeeeeeep!"
 19: 0x01FE [0x23] WAIT_FOR_DIALOG_INTERACTION
 20: 0x01FF [0x2B] Talking Doll (ID: 17469815/0x010A9177) [39*]:
    → "MAGIC STAGNATION HAS BEEN ERADICATED."
 21: 0x0206 [0x23] WAIT_FOR_DIALOG_INTERACTION
 22: 0x0207 [0x2B] Talking Doll (ID: 17469815/0x010A9177) [40*]:
    → "HOWEVER...IT IS NOT YET...COMPLETE...RETURN TO...WINDURST...TO...RE...PORT..."
 23: 0x020E [0x23] WAIT_FOR_DIALOG_INTERACTION
 24: 0x020F [0x03] Work_Zone[1] = 1*
 25: 0x0214 [0x45] LOAD_SCHEDULED_TASK: Load scheduler "fdo1" with entities [LocalPlayer, LocalPlayer], work=[200*, 0*]
 26: 0x0225 [0x1C] WAIT(60* ticks)
 27: 0x0228 [0x46] CAMERA_CONTROL: Restore default settings
 28: 0x022A [0x45] LOAD_SCHEDULED_TASK: Load scheduler "fdi1" with entities [LocalPlayer, LocalPlayer], work=[200*, 0*]
 29: 0x023B [0x20] SET_CLI_EVENT_UC_FLAG: Unlock player control
 30: 0x023D [0x21] END_EVENT
 31: 0x023E [0x00] END_REQSTACK()
```
