# 17469796 - DIRECTOR

## Common Data

| Field            | Value                      |
|------------------|----------------------------|
| Zone             | Toraimarai Canal (ID: 169) |
| Block Size       | 328 bytes                  |
| Total Events     | 8                          |
| References Count | 14                         |

## List of Events

| Event ID                 | Entrypoint   |   Size |   Instructions |
|--------------------------|--------------|--------|----------------|
| [65535](#event-65535)    | 0x0000       |      1 |              1 |
| [2](#event-2)            | 0x0001       |      1 |              1 |
| [1](#event-1)            | 0x0002       |     66 |             14 |
| [65535.1](#event-655351) | 0x0044       |     60 |             14 |
| [65535.2](#event-655352) | 0x0080       |     30 |              8 |
| [65535.3](#event-655353) | 0x009E       |     28 |              8 |
| [65535.4](#event-655354) | 0x00BA       |     28 |              8 |
| [65535.5](#event-655355) | 0x00D6       |      9 |              4 |

## DAT References (imed_data)

|   Index | Hex Value   |   Dec Value |
|---------|-------------|-------------|
|       0 | 0x1CE7      |        7399 |
|       1 | 0x0000      |           0 |
|       2 | 0x0001      |           1 |
|       3 | 0x0002      |           2 |
|       4 | 0x0003      |           3 |
|       5 | 0x1CE8      |        7400 |
|       6 | 0x0066      |         102 |
|       7 | 0x0067      |         103 |
|       8 | 0x0068      |         104 |
|       9 | 0x1CEA      |        7402 |
|      10 | 0x1CE9      |        7401 |
|      11 | 0x000B      |          11 |
|      12 | 0x012C      |         300 |
|      13 | 0x0064      |         100 |

## String References

- **7399**: $3605028iB\`hH [i [sj/$3C$3x$3$3g/$17*&/$3$1[$3v/<Player>j$P13x$6750761$o=/$3N$3G$3X$3gFLAGL]reset]
- **7400**: $1117516V<Player>Z$P10PH [$3T$3$3h$3$3A/$3o$3X$3g$3D[$3N/$3E$3B$3$3_$3X]
- **7401**: $4391756$3x$3$3gH [ufs001:$3t$3$3b$3V$3$5$3o$3b$3NP$6948976$P13xE\`$o=1FI7i/$3N$3G$3X$3gFLAGL]reset]
- **7402**: $5636657$3$1[$3vHL6a[H [$ [$6$:]

## Events

### Event 65535

#### Metadata

| Field        | Value   |
|--------------|---------|
| Entrypoint   | 0x0000  |
| Data Size    | 1 bytes |
| Instructions | 1       |

```
      00 01 02 03 04 05 06 07  08 09 0A 0B 0C 0D 0E 0F
      -- -- -- -- -- -- -- --  -- -- -- -- -- -- -- --
0000: 00                                                .               
```

#### Opcodes

```
  0: 0x0000 [0x00] END_REQSTACK()
```

### Event 2

#### Metadata

| Field        | Value   |
|--------------|---------|
| Entrypoint   | 0x0001  |
| Data Size    | 1 bytes |
| Instructions | 1       |

```
      00 01 02 03 04 05 06 07  08 09 0A 0B 0C 0D 0E 0F
      -- -- -- -- -- -- -- --  -- -- -- -- -- -- -- --
0000:    00                                              .              
```

#### Opcodes

```
  0: 0x0001 [0x00] END_REQSTACK()
```

### Event 1

#### Metadata

| Field        | Value    |
|--------------|----------|
| Entrypoint   | 0x0002   |
| Data Size    | 66 bytes |
| Instructions | 14       |

```
      00 01 02 03 04 05 06 07  08 09 0A 0B 0C 0D 0E 0F
      -- -- -- -- -- -- -- --  -- -- -- -- -- -- -- --
0000:       24 00 80 01 80 01  80 25 02 00 10 02 80 00    $......%......
0010: 1C 00 29 0D 64 91 0A 01  05 01 40 00 02 00 10 03  ..).d.....@.....
0020: 80 00 2E 00 29 0D 64 91  0A 01 03 01 40 00 02 00  ....).d.....@...
0030: 10 04 80 00 40 00 29 0D  64 91 0A 01 04 01 40 00  ....@.).d.....@.
0040: 20 00 21 00                                        .!.            
```

#### Opcodes

```
  0: 0x0002 [0x24] CREATE_DIALOG(message_id=7399*, default_option=0*, option_flags=0*)
    → "$3605028iB`hH [i [sj/$3C$3x$3$3g/$17*&/$3$1[$3v/<Player>j$P13x$6750761$o=/$3N$3G$3X$3gFLAGL]reset]"
  1: 0x0009 [0x25] WAIT_DIALOG_SELECT()
  2: 0x000A [0x02] IF !(Work_Zone[0] == 1*) GOTO 0x001C
  3: 0x0012 [0x29] REQ_SET_WAIT(priority=0x0D, entity_id=DIRECTOR (ID: 17469796/0x010A9164), tag_num=0x05)
  4: 0x0019 [0x01] GOTO 0x0040
  5: 0x001C [0x02] IF !(Work_Zone[0] == 2*) GOTO 0x002E
  6: 0x0024 [0x29] REQ_SET_WAIT(priority=0x0D, entity_id=DIRECTOR (ID: 17469796/0x010A9164), tag_num=0x03)
  7: 0x002B [0x01] GOTO 0x0040
  8: 0x002E [0x02] IF !(Work_Zone[0] == 3*) GOTO 0x0040
  9: 0x0036 [0x29] REQ_SET_WAIT(priority=0x0D, entity_id=DIRECTOR (ID: 17469796/0x010A9164), tag_num=0x04)
 10: 0x003D [0x01] GOTO 0x0040

SUBROUTINE_0040:
 11: 0x0040 [0x20] SET_CLI_EVENT_UC_FLAG: Unlock player control
 12: 0x0042 [0x21] END_EVENT
 13: 0x0043 [0x00] END_REQSTACK()
```

### Event 65535.1

#### Metadata

| Field        | Value    |
|--------------|----------|
| Entrypoint   | 0x0044   |
| Data Size    | 60 bytes |
| Instructions | 14       |

```
      00 01 02 03 04 05 06 07  08 09 0A 0B 0C 0D 0E 0F
      -- -- -- -- -- -- -- --  -- -- -- -- -- -- -- --
0040:             24 05 80 01  80 01 80 25 02 00 10 01      $......%....
0050: 80 00 5C 00 03 01 10 06  80 01 7C 00 02 00 10 02  ..\.......|.....
0060: 80 00 6C 00 03 01 10 07  80 01 7C 00 02 00 10 03  ..l.......|.....
0070: 80 00 7C 00 03 01 10 08  80 01 7C 00 20 00 21 00  ..|.......|. .!.
```

#### Opcodes

```
  0: 0x0044 [0x24] CREATE_DIALOG(message_id=7400*, default_option=0*, option_flags=0*)
    → "$1117516V<Player>Z$P10PH [$3T$3$3h$3$3A/$3o$3X$3g$3D[$3N/$3E$3B$3$3_$3X]"
  1: 0x004B [0x25] WAIT_DIALOG_SELECT()
  2: 0x004C [0x02] IF !(Work_Zone[0] == 0*) GOTO 0x005C
  3: 0x0054 [0x03] Work_Zone[1] = 102*
  4: 0x0059 [0x01] GOTO 0x007C
  5: 0x005C [0x02] IF !(Work_Zone[0] == 1*) GOTO 0x006C
  6: 0x0064 [0x03] Work_Zone[1] = 103*
  7: 0x0069 [0x01] GOTO 0x007C
  8: 0x006C [0x02] IF !(Work_Zone[0] == 2*) GOTO 0x007C
  9: 0x0074 [0x03] Work_Zone[1] = 104*
 10: 0x0079 [0x01] GOTO 0x007C

SUBROUTINE_007C:
 11: 0x007C [0x20] SET_CLI_EVENT_UC_FLAG: Unlock player control
 12: 0x007E [0x21] END_EVENT
 13: 0x007F [0x00] END_REQSTACK()
```

### Event 65535.2

#### Metadata

| Field        | Value    |
|--------------|----------|
| Entrypoint   | 0x0080   |
| Data Size    | 30 bytes |
| Instructions | 8        |

```
      00 01 02 03 04 05 06 07  08 09 0A 0B 0C 0D 0E 0F
      -- -- -- -- -- -- -- --  -- -- -- -- -- -- -- --
0080: 24 09 80 01 80 01 80 25  02 00 10 01 80 00 9A 00  $......%........
0090: 29 09 F0 FF FF 7F 02 01  9A 00 20 00 21 00        )......... .!.  
```

#### Opcodes

```
  0: 0x0080 [0x24] CREATE_DIALOG(message_id=7402*, default_option=0*, option_flags=0*)
    → "$5636657$3$1[$3vHL6a[H [$ [$6$:]"
  1: 0x0087 [0x25] WAIT_DIALOG_SELECT()
  2: 0x0088 [0x02] IF !(Work_Zone[0] == 0*) GOTO 0x009A
  3: 0x0090 [0x29] REQ_SET_WAIT(priority=0x09, entity_id=LocalPlayer, tag_num=0x02)
  4: 0x0097 [0x01] GOTO 0x009A

SUBROUTINE_009A:
  5: 0x009A [0x20] SET_CLI_EVENT_UC_FLAG: Unlock player control
  6: 0x009C [0x21] END_EVENT
  7: 0x009D [0x00] END_REQSTACK()
```

### Event 65535.3

#### Metadata

| Field        | Value    |
|--------------|----------|
| Entrypoint   | 0x009E   |
| Data Size    | 28 bytes |
| Instructions | 8        |

```
      00 01 02 03 04 05 06 07  08 09 0A 0B 0C 0D 0E 0F
      -- -- -- -- -- -- -- --  -- -- -- -- -- -- -- --
0090:                                            24 0A                $.
00A0: 80 01 80 01 80 25 02 00  10 01 80 00 B6 00 03 01  .....%..........
00B0: 10 0B 80 01 B6 00 20 00  21 00                    ...... .!.      
```

#### Opcodes

```
  0: 0x009E [0x24] CREATE_DIALOG(message_id=7401*, default_option=0*, option_flags=0*)
    → "$4391756$3x$3$3gH [ufs001:$3t$3$3b$3V$3$5$3o$3b$3NP$6948976$P13xE`$o=1FI7i/$3N$3G$3X$3gFLAGL]reset]"
  1: 0x00A5 [0x25] WAIT_DIALOG_SELECT()
  2: 0x00A6 [0x02] IF !(Work_Zone[0] == 0*) GOTO 0x00B6
  3: 0x00AE [0x03] Work_Zone[1] = 11*
  4: 0x00B3 [0x01] GOTO 0x00B6

SUBROUTINE_00B6:
  5: 0x00B6 [0x20] SET_CLI_EVENT_UC_FLAG: Unlock player control
  6: 0x00B8 [0x21] END_EVENT
  7: 0x00B9 [0x00] END_REQSTACK()
```

### Event 65535.4

#### Metadata

| Field        | Value    |
|--------------|----------|
| Entrypoint   | 0x00BA   |
| Data Size    | 28 bytes |
| Instructions | 8        |

```
      00 01 02 03 04 05 06 07  08 09 0A 0B 0C 0D 0E 0F
      -- -- -- -- -- -- -- --  -- -- -- -- -- -- -- --
00B0:                                24 0A 80 01 80 01            $.....
00C0: 80 25 02 00 10 01 80 00  D2 00 03 01 10 0C 80 01  .%..............
00D0: D2 00 20 00 21 00                                 .. .!.          
```

#### Opcodes

```
  0: 0x00BA [0x24] CREATE_DIALOG(message_id=7401*, default_option=0*, option_flags=0*)
    → "$4391756$3x$3$3gH [ufs001:$3t$3$3b$3V$3$5$3o$3b$3NP$6948976$P13xE`$o=1FI7i/$3N$3G$3X$3gFLAGL]reset]"
  1: 0x00C1 [0x25] WAIT_DIALOG_SELECT()
  2: 0x00C2 [0x02] IF !(Work_Zone[0] == 0*) GOTO 0x00D2
  3: 0x00CA [0x03] Work_Zone[1] = 300*
  4: 0x00CF [0x01] GOTO 0x00D2

SUBROUTINE_00D2:
  5: 0x00D2 [0x20] SET_CLI_EVENT_UC_FLAG: Unlock player control
  6: 0x00D4 [0x21] END_EVENT
  7: 0x00D5 [0x00] END_REQSTACK()
```

### Event 65535.5

#### Metadata

| Field        | Value   |
|--------------|---------|
| Entrypoint   | 0x00D6  |
| Data Size    | 9 bytes |
| Instructions | 4       |

```
      00 01 02 03 04 05 06 07  08 09 0A 0B 0C 0D 0E 0F
      -- -- -- -- -- -- -- --  -- -- -- -- -- -- -- --
00D0:                   03 01  10 0D 80 20 00 21 00           ..... .!. 
```

#### Opcodes

```
  0: 0x00D6 [0x03] Work_Zone[1] = 100*
  1: 0x00DB [0x20] SET_CLI_EVENT_UC_FLAG: Unlock player control
  2: 0x00DD [0x21] END_EVENT
  3: 0x00DE [0x00] END_REQSTACK()
```
