# Event 65535

## Metadata

| Field           | Value    |
|-----------------|----------|
| Event Index     | 9/9      |
| Offset          | 0x0056   |
| Data Size       | 82 bytes |
| Calculated Size | 82 bytes |
| Instructions    | 12       |

```
      00 01 02 03 04 05 06 07  08 09 0A 0B 0C 0D 0E 0F
      -- -- -- -- -- -- -- --  -- -- -- -- -- -- -- --
0050:                   1C 08  80 6E B2 21 02 01 09 80        ...n.!....
0060: 99 B2 21 02 01 1C 04 80  5B 0A 80 B4 21 02 01 B4  ..!.....[...!...
0070: 21 02 01 73 69 6E 30 6E  B3 21 02 01 09 80 99 B3  !..sin0n.!......
0080: 21 02 01 1C 07 80 5B 0B  80 B6 21 02 01 B6 21 02  !.....[...!...!.
0090: 01 64 66 6D 30 1C 04 80  5B 0B 80 B7 21 02 01 B7  .dfm0...[...!...
00A0: 21 02 01 64 66 6B 30 00                           !..dfk0.        
```

## Opcodes

```
  0: 0x0056 [0x1C] WAIT(60* ticks)
  1: 0x0059 [0x6E] Jabbos (ID: 16916914/0x010221B2) uses emote 11*
  2: 0x0060 [0x99] Wait for Jabbos (ID: 16916914/0x010221B2) animation to complete
  3: 0x0065 [0x1C] WAIT(15* ticks)
  4: 0x0068 [0x5B] LOAD_EXT_SCHEDULER(work_offset=417*, entity1=Louverance (ID: 16916916/0x010221B4), entity2=Louverance (ID: 16916916/0x010221B4), action="sin0")
  5: 0x0077 [0x6E] Shikaree Z (ID: 16916915/0x010221B3) uses emote 11*
  6: 0x007E [0x99] Wait for Shikaree Z (ID: 16916915/0x010221B3) animation to complete
  7: 0x0083 [0x1C] WAIT(30* ticks)
  8: 0x0086 [0x5B] LOAD_EXT_SCHEDULER(work_offset=441*, entity1=Makki-Chebukki (ID: 16916918/0x010221B6), entity2=Makki-Chebukki (ID: 16916918/0x010221B6), action="dfm0")
  9: 0x0095 [0x1C] WAIT(15* ticks)
 10: 0x0098 [0x5B] LOAD_EXT_SCHEDULER(work_offset=441*, entity1=Kukki-Chebukki (ID: 16916919/0x010221B7), entity2=Kukki-Chebukki (ID: 16916919/0x010221B7), action="dfk0")
 11: 0x00A7 [0x00] END_REQSTACK()
```
