# Event 2

## Metadata

| Field           | Value    |
|-----------------|----------|
| Event Index     | 5/35     |
| Offset          | 0x0078   |
| Data Size       | 59 bytes |
| Calculated Size | 59 bytes |
| Instructions    | 11       |

```
      00 01 02 03 04 05 06 07  08 09 0A 0B 0C 0D 0E 0F
      -- -- -- -- -- -- -- --  -- -- -- -- -- -- -- --
0070:                          20 01 42 62 00 80 F8 FF           .Bb....
0080: FF 7F F8 FF FF 7F 6D 61  69 6E 01 80 1C 02 80 47  ......main.....G
0090: 00 0B 80 0C 80 0D 80 0E  80 47 01 62 07 80 F8 FF  .........G.b....
00A0: FF 7F F8 FF FF 7F 6D 61  69 6E 01 80 1C 02 80 20  ......main..... 
00B0: 00 21 00                                          .!.             
```

## Opcodes

```
  0: 0x0078 [0x20] SET_CLI_EVENT_UC_FLAG: Lock player control
  1: 0x007A [0x42] SET_CLI_EVENT_CANCEL_DATA()
  2: 0x007B [0x62] LOAD_EVENT_SCHEDULER (arg=5012): Load scheduler "main" with entities [EventEntity, EventEntity], work=[1*, 0*]
  3: 0x008C [0x1C] WAIT(180* ticks)
  4: 0x008F [0x47] UPDATE_PLAYER_POS(-199.968*, -83.542*, -51.999*, yaw=273.0°*)
  5: 0x0099 [0x47] WAIT_PLAYER_POS_UPDATE
  6: 0x009B [0x62] LOAD_EVENT_SCHEDULER (arg=5012): Load scheduler "main" with entities [EventEntity, EventEntity], work=[2*, 0*]
  7: 0x00AC [0x1C] WAIT(180* ticks)
  8: 0x00AF [0x20] SET_CLI_EVENT_UC_FLAG: Unlock player control
  9: 0x00B1 [0x21] END_EVENT
 10: 0x00B2 [0x00] END_REQSTACK()
```
