# Event 5

## Metadata

| Field           | Value    |
|-----------------|----------|
| Event Index     | 8/35     |
| Offset          | 0x0129   |
| Data Size       | 87 bytes |
| Calculated Size | 87 bytes |
| Instructions    | 16       |

```
      00 01 02 03 04 05 06 07  08 09 0A 0B 0C 0D 0E 0F
      -- -- -- -- -- -- -- --  -- -- -- -- -- -- -- --
0120:                             20 01 42 62 00 80 F8            .Bb...
0130: FF FF 7F F8 FF FF 7F 6D  61 69 6E 01 80 1C 02 80  .......main.....
0140: 13 00 00 00 80 02 00 00  01 80 00 5C 01 47 00 13  ...........\.G..
0150: 80 14 80 15 80 16 80 47  01 01 68 01 47 00 17 80  .......G..h.G...
0160: 18 80 15 80 19 80 47 01  62 07 80 F8 FF FF 7F F8  ......G.b.......
0170: FF FF 7F 6D 61 69 6E 01  80 1C 02 80 20 00 21 00  ...main..... .!.
```

## Opcodes

```
  0: 0x0129 [0x20] SET_CLI_EVENT_UC_FLAG: Lock player control
  1: 0x012B [0x42] SET_CLI_EVENT_CANCEL_DATA()
  2: 0x012C [0x62] LOAD_EVENT_SCHEDULER (arg=5012): Load scheduler "main" with entities [EventEntity, EventEntity], work=[1*, 0*]
  3: 0x013D [0x1C] WAIT(180* ticks)
  4: 0x0140 [0x13] ExtData[1]->WorkLocal[0] = rand() % 1*
  5: 0x0145 [0x02] IF !(ExtData[1]->WorkLocal[0] == 0*) GOTO 0x015C
  6: 0x014D [0x47] UPDATE_PLAYER_POS(-515.651*, 76.490*, -72.000*, yaw=179.0°*)
  7: 0x0157 [0x47] WAIT_PLAYER_POS_UPDATE
  8: 0x0159 [0x01] GOTO 0x0168

SUBROUTINE_015C:
  9: 0x015C [0x47] UPDATE_PLAYER_POS(-514.713*, 44.206*, -72.000*, yaw=169.1°*)
 10: 0x0166 [0x47] WAIT_PLAYER_POS_UPDATE
 11: 0x0168 [0x62] LOAD_EVENT_SCHEDULER (arg=5012): Load scheduler "main" with entities [EventEntity, EventEntity], work=[2*, 0*]
 12: 0x0179 [0x1C] WAIT(180* ticks)
 13: 0x017C [0x20] SET_CLI_EVENT_UC_FLAG: Unlock player control
 14: 0x017E [0x21] END_EVENT
 15: 0x017F [0x00] END_REQSTACK()
```
