# Event 65535

## Metadata

| Field           | Value    |
|-----------------|----------|
| Event Index     | 34/35    |
| Offset          | 0x056E   |
| Data Size       | 70 bytes |
| Calculated Size | 70 bytes |
| Instructions    | 15       |

```
      00 01 02 03 04 05 06 07  08 09 0A 0B 0C 0D 0E 0F
      -- -- -- -- -- -- -- --  -- -- -- -- -- -- -- --
0560:                                            32 5A                2Z
0570: 80 1F 00 62 80 63 80 0D  80 1F 01 6F 1C 30 80 79  ...b.c.....o.0.y
0580: 00 F0 FF FF 7F C1 B2 09  01 1C 64 80 BA C1 B2 09  ..........d.....
0590: 01 65 80 66 80 05 80 01  80 1C 64 80 7B F0 FF FF  .e.f......d.{...
05A0: 7F 1C 5D 80 6E F0 FF FF  7F 67 80 99 F0 FF FF 7F  ..].n....g......
05B0: 1C 5D 80 00                                       .]..            
```

## Opcodes

```
  0: 0x056E [0x32] ExtData[1]->MainSpeed = 13* * 0.1
  1: 0x0571 [0x1F] MOVE_ENTITY: EventEntity moves to X=-369.877*, Z=-102.109*, Y=-51.999*
  2: 0x0579 [0x1F] MOVE_ENTITY: Update entity position (mode=1)
  3: 0x057B [0x6F] WAIT_FRAME_DELAY: Yield until WaitTime reaches zero
  4: 0x057C [0x1C] WAIT(60* ticks)
  5: 0x057F [0x79] LocalPlayer looks at noname (ID: 17412801/0x0109B2C1) (Basic look)
  6: 0x0589 [0x1C] WAIT(120* ticks)
  7: 0x058C [0xBA] SET_ENTITY_POSITION(entity_id=noname (ID: 17412801/0x0109B2C1), pos_x=-373.293*, pos_z=-105.588*, pos_y=-52.000*, direction=0.0°*)
  8: 0x0599 [0x1C] WAIT(120* ticks)
  9: 0x059C [0x7B] LocalPlayer stops talking
 10: 0x05A1 [0x1C] WAIT(90* ticks)
 11: 0x05A4 [0x6E] LocalPlayer uses emote 32*
 12: 0x05AB [0x99] Wait for LocalPlayer animation to complete
 13: 0x05B0 [0x1C] WAIT(90* ticks)
 14: 0x05B3 [0x00] END_REQSTACK()
```
