# 16986680 - Yashtra

## Common Data

| Field            | Value                     |
|------------------|---------------------------|
| Zone             | Wajaom Woodlands (ID: 51) |
| Block Size       | 272 bytes                 |
| Total Events     | 8                         |
| References Count | 26                        |

## List of Events

| Event ID                 | Entrypoint   |   Size |   Instructions |
|--------------------------|--------------|--------|----------------|
| [65535](#event-65535)    | 0x0000       |      1 |              1 |
| [512](#event-512)        | 0x0001       |      1 |              1 |
| [65535.1](#event-655351) | 0x0002       |     12 |              3 |
| [65535.2](#event-655352) | 0x000E       |     31 |              8 |
| [65535.3](#event-655353) | 0x002D       |     24 |              6 |
| [65535.4](#event-655354) | 0x0045       |     20 |              6 |
| [65535.5](#event-655355) | 0x0059       |     24 |              6 |
| [65535.6](#event-655356) | 0x0071       |      4 |              2 |

## DAT References (imed_data)

|   Index | Hex Value   |   Dec Value |
|---------|-------------|-------------|
|       0 | 0xFFFAEE1F  |  4294635039 |
|       1 | 0xA0B43     |      658243 |
|       2 | 0xFFFF4CD2  |  4294921426 |
|       3 | 0x044C      |        1100 |
|       4 | 0xFFFAD6DE  |  4294629086 |
|       5 | 0x9C519     |      640281 |
|       6 | 0xFFFF84F4  |  4294935796 |
|       7 | 0x0C4F      |        3151 |
|       8 | 0x0028      |          40 |
|       9 | 0xFFFADE17  |  4294630935 |
|      10 | 0x9B361     |      635745 |
|      11 | 0xFFFF84F5  |  4294935797 |
|      12 | 0x9EFEB     |      651243 |
|      13 | 0xFFFF4D04  |  4294921476 |
|      14 | 0x000D      |          13 |
|      15 | 0x9EC03     |      650243 |
|      16 | 0x0012      |          18 |
|      17 | 0xFFFAE176  |  4294631798 |
|      18 | 0x9AF70     |      634736 |
|      19 | 0xFFFF856B  |  4294935915 |
|      20 | 0x03F6      |        1014 |
|      21 | 0xFFFF7183  |  4294930819 |
|      22 | 0x0000      |           0 |
|      23 | 0x0417      |        1047 |
|      24 | 0x03E7      |         999 |
|      25 | 0xFFFF2DF3  |  4294913523 |

## Events

### Event 65535

#### Metadata

| Field        | Value   |
|--------------|---------|
| Entrypoint   | 0x0000  |
| Data Size    | 1 bytes |
| Instructions | 1       |

```
      00 01 02 03 04 05 06 07  08 09 0A 0B 0C 0D 0E 0F
      -- -- -- -- -- -- -- --  -- -- -- -- -- -- -- --
0000: 00                                                .               
```

#### Opcodes

```
  0: 0x0000 [0x00] END_REQSTACK()
```

### Event 512

#### Metadata

| Field        | Value   |
|--------------|---------|
| Entrypoint   | 0x0001  |
| Data Size    | 1 bytes |
| Instructions | 1       |

```
      00 01 02 03 04 05 06 07  08 09 0A 0B 0C 0D 0E 0F
      -- -- -- -- -- -- -- --  -- -- -- -- -- -- -- --
0000:    00                                              .              
```

#### Opcodes

```
  0: 0x0001 [0x00] END_REQSTACK()
```

### Event 65535.1

#### Metadata

| Field        | Value    |
|--------------|----------|
| Entrypoint   | 0x0002   |
| Data Size    | 12 bytes |
| Instructions | 3        |

```
      00 01 02 03 04 05 06 07  08 09 0A 0B 0C 0D 0E 0F
      -- -- -- -- -- -- -- --  -- -- -- -- -- -- -- --
0000:       33 01 37 00 80 01  80 02 80 03 80 00          3.7.........  
```

#### Opcodes

```
  0: 0x0002 [0x33] EventEntity->Render.Flags0 |= 0x200000 // Bit 21 (flag=0x01)
  1: 0x0004 [0x37] UPDATE_EVENT_POSITION_AND_DIR: x=-332.257*, z=658.243*, y=-45.870*, direction=96.7°*
  2: 0x000D [0x00] END_REQSTACK()
```

### Event 65535.2

#### Metadata

| Field        | Value    |
|--------------|----------|
| Entrypoint   | 0x000E   |
| Data Size    | 31 bytes |
| Instructions | 8        |

```
      00 01 02 03 04 05 06 07  08 09 0A 0B 0C 0D 0E 0F
      -- -- -- -- -- -- -- --  -- -- -- -- -- -- -- --
0000:                                            33 00                3.
0010: 37 04 80 05 80 06 80 07  80 1E 2E 32 03 01 32 08  7..........2..2.
0020: 80 1F 00 09 80 0A 80 0B  80 1F 01 6F 00           ...........o.   
```

#### Opcodes

```
  0: 0x000E [0x33] EventEntity->Render.Flags0 &= ~ 0x200000 // Bit 21 (flag=0x00)
  1: 0x0010 [0x37] UPDATE_EVENT_POSITION_AND_DIR: x=-338.210*, z=640.281*, y=-31.500*, direction=276.9°*
  2: 0x0019 [0x1E] EventEntity looks at Najelith (ID: 16986670/0x0103322E) and starts talking
  3: 0x001E [0x32] ExtData[1]->MainSpeed = 40* * 0.1
  4: 0x0021 [0x1F] MOVE_ENTITY: EventEntity moves to X=-336.361*, Z=635.745*, Y=-31.499*
  5: 0x0029 [0x1F] MOVE_ENTITY: Update entity position (mode=1)
  6: 0x002B [0x6F] WAIT_FRAME_DELAY: Yield until WaitTime reaches zero
  7: 0x002C [0x00] END_REQSTACK()
```

### Event 65535.3

#### Metadata

| Field        | Value    |
|--------------|----------|
| Entrypoint   | 0x002D   |
| Data Size    | 24 bytes |
| Instructions | 6        |

```
      00 01 02 03 04 05 06 07  08 09 0A 0B 0C 0D 0E 0F
      -- -- -- -- -- -- -- --  -- -- -- -- -- -- -- --
0020:                                         37 00 80               7..
0030: 0C 80 0D 80 03 80 32 0E  80 1F 00 00 80 0F 80 02  ......2.........
0040: 80 1F 01 6F 00                                    ...o.           
```

#### Opcodes

```
  0: 0x002D [0x37] UPDATE_EVENT_POSITION_AND_DIR: x=-332.257*, z=651.243*, y=-45.820*, direction=96.7°*
  1: 0x0036 [0x32] ExtData[1]->MainSpeed = 13* * 0.1
  2: 0x0039 [0x1F] MOVE_ENTITY: EventEntity moves to X=-332.257*, Z=650.243*, Y=-45.870*
  3: 0x0041 [0x1F] MOVE_ENTITY: Update entity position (mode=1)
  4: 0x0043 [0x6F] WAIT_FRAME_DELAY: Yield until WaitTime reaches zero
  5: 0x0044 [0x00] END_REQSTACK()
```

### Event 65535.4

#### Metadata

| Field        | Value    |
|--------------|----------|
| Entrypoint   | 0x0045   |
| Data Size    | 20 bytes |
| Instructions | 6        |

```
      00 01 02 03 04 05 06 07  08 09 0A 0B 0C 0D 0E 0F
      -- -- -- -- -- -- -- --  -- -- -- -- -- -- -- --
0040:                32 10 80  1F 00 11 80 12 80 13 80       2..........
0050: 1F 01 6F 1E 2E 32 03 01  00                       ..o..2...       
```

#### Opcodes

```
  0: 0x0045 [0x32] ExtData[1]->MainSpeed = 18* * 0.1
  1: 0x0048 [0x1F] MOVE_ENTITY: EventEntity moves to X=-335.498*, Z=634.736*, Y=-31.381*
  2: 0x0050 [0x1F] MOVE_ENTITY: Update entity position (mode=1)
  3: 0x0052 [0x6F] WAIT_FRAME_DELAY: Yield until WaitTime reaches zero
  4: 0x0053 [0x1E] EventEntity looks at Najelith (ID: 16986670/0x0103322E) and starts talking
  5: 0x0058 [0x00] END_REQSTACK()
```

### Event 65535.5

#### Metadata

| Field        | Value    |
|--------------|----------|
| Entrypoint   | 0x0059   |
| Data Size    | 24 bytes |
| Instructions | 6        |

```
      00 01 02 03 04 05 06 07  08 09 0A 0B 0C 0D 0E 0F
      -- -- -- -- -- -- -- --  -- -- -- -- -- -- -- --
0050:                             37 14 80 15 80 16 80           7......
0060: 17 80 32 0E 80 1F 00 18  80 19 80 16 80 1F 01 6F  ..2............o
0070: 00                                                .               
```

#### Opcodes

```
  0: 0x0059 [0x37] UPDATE_EVENT_POSITION_AND_DIR: x=1.014*, z=-36.477*, y=0.000*, direction=92.0°*
  1: 0x0062 [0x32] ExtData[1]->MainSpeed = 13* * 0.1
  2: 0x0065 [0x1F] MOVE_ENTITY: EventEntity moves to X=0.999*, Z=-53.773*, Y=0.000*
  3: 0x006D [0x1F] MOVE_ENTITY: Update entity position (mode=1)
  4: 0x006F [0x6F] WAIT_FRAME_DELAY: Yield until WaitTime reaches zero
  5: 0x0070 [0x00] END_REQSTACK()
```

### Event 65535.6

#### Metadata

| Field        | Value   |
|--------------|---------|
| Entrypoint   | 0x0071  |
| Data Size    | 4 bytes |
| Instructions | 2       |

```
      00 01 02 03 04 05 06 07  08 09 0A 0B 0C 0D 0E 0F
      -- -- -- -- -- -- -- --  -- -- -- -- -- -- -- --
0070:    39 03 80 00                                     9...           
```

#### Opcodes

```
  0: 0x0071 [0x39] SET_ENTITY_DIRECTION(direction=6.0°*)
  1: 0x0074 [0x00] END_REQSTACK()
```
