# 16986809

## Common Data

| Field            | Value                     |
|------------------|---------------------------|
| Zone             | Wajaom Woodlands (ID: 51) |
| Block Size       | 13612 bytes               |
| Total Events     | 5                         |
| References Count | 262                       |

## List of Events

| Event ID              | Entrypoint   |   Size |   Instructions |
|-----------------------|--------------|--------|----------------|
| [65535](#event-65535) | 0x0000       |      1 |              1 |
| [16](#event-16)       | 0x0001       |   3551 |            429 |
| [17](#event-17)       | 0x0DE0       |   3748 |            445 |
| [18](#event-18)       | 0x1C84       |   2916 |            354 |
| [19](#event-19)       | 0x27E8       |   2310 |            273 |

## DAT References (imed_data)

|   Index | Hex Value   |   Dec Value |
|---------|-------------|-------------|
|       0 | 0x00C8      |         200 |
|       1 | 0x0000      |           0 |
|       2 | 0x0013      |          19 |
|       3 | 0x0032      |          50 |
|       4 | 0x00FF      |         255 |
|       5 | 0x0001      |           1 |
|       6 | 0x0235      |         565 |
|       7 | 0x13BEE     |       80878 |
|       8 | 0xFFFDF9C2  |  4294834626 |
|       9 | 0xFFFFE890  |  4294961296 |
|      10 | 0x04E1      |        1249 |
|      11 | 0x13EFA     |       81658 |
|      12 | 0xFFFE022F  |  4294836783 |
|      13 | 0x04E0      |        1248 |
|      14 | 0x1380A     |       79882 |
|      15 | 0xFFFDEAE2  |  4294830818 |
|      16 | 0x0C02      |        3074 |
|      17 | 0x12DE7     |       77287 |
|      18 | 0xFFFE1A00  |  4294842880 |
|      19 | 0x066A      |        1642 |
|      20 | 0x10CF7     |       68855 |
|      21 | 0xFFFE0CC6  |  4294839494 |
|      22 | 0xFFFFE69D  |  4294960797 |
|      23 | 0x1086D     |       67693 |
|      24 | 0xFFFE0FAC  |  4294840236 |
|      25 | 0x107ED     |       67565 |
|      26 | 0xFFFE0944  |  4294838596 |
|      27 | 0x115F8     |       71160 |
|      28 | 0xFFFDFFDA  |  4294836186 |
|      29 | 0x0960      |        2400 |
|      30 | 0x11A52     |       72274 |
|      31 | 0xFFFE0431  |  4294837297 |
|      32 | 0x08FC      |        2300 |
|      33 | 0x11C55     |       72789 |
|      34 | 0xFFFE0A79  |  4294838905 |
|      35 | 0x0800      |        2048 |
|      36 | 0x11CB8     |       72888 |
|      37 | 0xFFFE1123  |  4294840611 |
|      38 | 0x0738      |        1848 |
|      39 | 0x003C      |          60 |
|      40 | 0x01BF      |         447 |
|      41 | 0x00A3      |         163 |
|      42 | 0x00D2      |         210 |
|      43 | 0x001E      |          30 |
|      44 | 0x21E2      |        8674 |
|      45 | 0x0031      |          49 |
|      46 | 0x21E3      |        8675 |
|      47 | 0x21E4      |        8676 |
|      48 | 0x0028      |          40 |
|      49 | 0x21E5      |        8677 |
|      50 | 0x21E6      |        8678 |
|      51 | 0x21E7      |        8679 |
|      52 | 0x005A      |          90 |
|      53 | 0x0041      |          65 |
|      54 | 0x0096      |         150 |
|      55 | 0x0050      |          80 |
|      56 | 0x000B      |          11 |
|      57 | 0x0530      |        1328 |
|      58 | 0x0078      |         120 |
|      59 | 0x000A      |          10 |
|      60 | 0x0008      |           8 |
|      61 | 0x1355F     |       79199 |
|      62 | 0xFFFDF0D2  |  4294832338 |
|      63 | 0x0064      |         100 |
|      64 | 0x1195D     |       72029 |
|      65 | 0xFFFE02C3  |  4294836931 |
|      66 | 0x21E8      |        8680 |
|      67 | 0x0019      |          25 |
|      68 | 0x21E9      |        8681 |
|      69 | 0x10B85     |       68485 |
|      70 | 0xFFFE0E4B  |  4294839883 |
|      71 | 0xFFFFE69C  |  4294960796 |
|      72 | 0x10A47     |       68167 |
|      73 | 0xFFFE0B8B  |  4294839179 |
|      74 | 0x000F      |          15 |
|      75 | 0x21EA      |        8682 |
|      76 | 0x000D      |          13 |
|      77 | 0x0014      |          20 |
|      78 | 0x00B2      |         178 |
|      79 | 0x21EB      |        8683 |
|      80 | 0x0005      |           5 |
|      81 | 0x21EC      |        8684 |
|      82 | 0x21ED      |        8685 |
|      83 | 0x21EE      |        8686 |
|      84 | 0x21EF      |        8687 |
|      85 | 0x0009      |           9 |
|      86 | 0x21F0      |        8688 |
|      87 | 0x0560      |        1376 |
|      88 | 0x21F1      |        8689 |
|      89 | 0x0022      |          34 |
|      90 | 0x21F2      |        8690 |
|      91 | 0x21F3      |        8691 |
|      92 | 0x0026      |          38 |
|      93 | 0x21F4      |        8692 |
|      94 | 0x21F5      |        8693 |
|      95 | 0x21F6      |        8694 |
|      96 | 0x0030      |          48 |
|      97 | 0x0011      |          17 |
|      98 | 0xFFFE6205  |  4294861317 |
|      99 | 0x9B0C      |       39692 |
|     100 | 0x0D79      |        3449 |
|     101 | 0xFFFE60B4  |  4294860980 |
|     102 | 0x9045      |       36933 |
|     103 | 0x0C7D      |        3197 |
|     104 | 0x00D7      |         215 |
|     105 | 0x008E      |         142 |
|     106 | 0x00AA      |         170 |
|     107 | 0x00A0      |         160 |
|     108 | 0x001D      |          29 |
|     109 | 0x0082      |         130 |
|     110 | 0x0046      |          70 |
|     111 | 0x00B0      |         176 |
|     112 | 0x002D      |          45 |
|     113 | 0x00E6      |         230 |
|     114 | 0x0033      |          51 |
|     115 | 0x0095      |         149 |
|     116 | 0x13D8B     |       81291 |
|     117 | 0xFFFDEED5  |  4294831829 |
|     118 | 0x082C      |        2092 |
|     119 | 0x13359     |       78681 |
|     120 | 0xFFFDFA56  |  4294834774 |
|     121 | 0x125D9     |       75225 |
|     122 | 0xFFFDE80D  |  4294830093 |
|     123 | 0x0D3F      |        3391 |
|     124 | 0x13DA9     |       81321 |
|     125 | 0xFFFDDC7E  |  4294827134 |
|     126 | 0x0BEB      |        3051 |
|     127 | 0x12C59     |       76889 |
|     128 | 0xFFFDDBA5  |  4294826917 |
|     129 | 0x0BEC      |        3052 |
|     130 | 0x14422     |       82978 |
|     131 | 0xFFFDE567  |  4294829415 |
|     132 | 0x0379      |         889 |
|     133 | 0x14F77     |       85879 |
|     134 | 0xFFFDE597  |  4294829463 |
|     135 | 0x03FA      |        1018 |
|     136 | 0x21F7      |        8695 |
|     137 | 0x21F8      |        8696 |
|     138 | 0x21F9      |        8697 |
|     139 | 0x0004      |           4 |
|     140 | 0x21FA      |        8698 |
|     141 | 0x0006      |           6 |
|     142 | 0x21FB      |        8699 |
|     143 | 0x21FC      |        8700 |
|     144 | 0x21FD      |        8701 |
|     145 | 0x0007      |           7 |
|     146 | 0x21FE      |        8702 |
|     147 | 0x21FF      |        8703 |
|     148 | 0x2200      |        8704 |
|     149 | 0x2201      |        8705 |
|     150 | 0x2202      |        8706 |
|     151 | 0x2203      |        8707 |
|     152 | 0x007B      |         123 |
|     153 | 0x2204      |        8708 |
|     154 | 0x2205      |        8709 |
|     155 | 0x2206      |        8710 |
|     156 | 0x2207      |        8711 |
|     157 | 0x2208      |        8712 |
|     158 | 0x0016      |          22 |
|     159 | 0x2209      |        8713 |
|     160 | 0x220A      |        8714 |
|     161 | 0x220B      |        8715 |
|     162 | 0x0024      |          36 |
|     163 | 0x220C      |        8716 |
|     164 | 0x220D      |        8717 |
|     165 | 0x0002      |           2 |
|     166 | 0x0003      |           3 |
|     167 | 0x220E      |        8718 |
|     168 | 0x220F      |        8719 |
|     169 | 0x2210      |        8720 |
|     170 | 0x2211      |        8721 |
|     171 | 0x2212      |        8722 |
|     172 | 0x2213      |        8723 |
|     173 | 0x0020      |          32 |
|     174 | 0x2214      |        8724 |
|     175 | 0x2215      |        8725 |
|     176 | 0x2216      |        8726 |
|     177 | 0x2217      |        8727 |
|     178 | 0x2218      |        8728 |
|     179 | 0x2219      |        8729 |
|     180 | 0x221A      |        8730 |
|     181 | 0x221B      |        8731 |
|     182 | 0x221C      |        8732 |
|     183 | 0x013A      |         314 |
|     184 | 0x1340C     |       78860 |
|     185 | 0xFFFE2CFC  |  4294847740 |
|     186 | 0x04A6      |        1190 |
|     187 | 0x221D      |        8733 |
|     188 | 0x221E      |        8734 |
|     189 | 0x221F      |        8735 |
|     190 | 0x2220      |        8736 |
|     191 | 0x2221      |        8737 |
|     192 | 0x022F      |         559 |
|     193 | 0x0723      |        1827 |
|     194 | 0xFFFF956E  |  4294940014 |
|     195 | 0x07D0      |        2000 |
|     196 | 0x0422      |        1058 |
|     197 | 0xFFFF9CF9  |  4294941945 |
|     198 | 0xFFFFF67A  |  4294964858 |
|     199 | 0xFFFF94DE  |  4294939870 |
|     200 | 0xFFFFE976  |  4294961526 |
|     201 | 0xFFFF62F2  |  4294927090 |
|     202 | 0x0C88      |        3208 |
|     203 | 0x0190      |         400 |
|     204 | 0xFFFF8815  |  4294936597 |
|     205 | 0x0C87      |        3207 |
|     206 | 0xFFFFF5D8  |  4294964696 |
|     207 | 0xFFFFA434  |  4294943796 |
|     208 | 0x03E8      |        1000 |
|     209 | 0x0345      |         837 |
|     210 | 0x035F      |         863 |
|     211 | 0x00B9      |         185 |
|     212 | 0x2222      |        8738 |
|     213 | 0x2223      |        8739 |
|     214 | 0x2224      |        8740 |
|     215 | 0x2225      |        8741 |
|     216 | 0x2226      |        8742 |
|     217 | 0x2227      |        8743 |
|     218 | 0x2228      |        8744 |
|     219 | 0x2229      |        8745 |
|     220 | 0x222A      |        8746 |
|     221 | 0x222B      |        8747 |
|     222 | 0x222C      |        8748 |
|     223 | 0x222D      |        8749 |
|     224 | 0x222E      |        8750 |
|     225 | 0x222F      |        8751 |
|     226 | 0x2231      |        8753 |
|     227 | 0x2233      |        8755 |
|     228 | 0x2235      |        8757 |
|     229 | 0x2236      |        8758 |
|     230 | 0x2237      |        8759 |
|     231 | 0x2238      |        8760 |
|     232 | 0x2239      |        8761 |
|     233 | 0x223A      |        8762 |
|     234 | 0x223B      |        8763 |
|     235 | 0x223C      |        8764 |
|     236 | 0x223D      |        8765 |
|     237 | 0x223E      |        8766 |
|     238 | 0x223F      |        8767 |
|     239 | 0x2240      |        8768 |
|     240 | 0x2241      |        8769 |
|     241 | 0x2242      |        8770 |
|     242 | 0x2243      |        8771 |
|     243 | 0x2244      |        8772 |
|     244 | 0x2246      |        8774 |
|     245 | 0x007F      |         127 |
|     246 | 0x2247      |        8775 |
|     247 | 0x2248      |        8776 |
|     248 | 0x2249      |        8777 |
|     249 | 0x224A      |        8778 |
|     250 | 0x224B      |        8779 |
|     251 | 0x224D      |        8781 |
|     252 | 0x224E      |        8782 |
|     253 | 0x0AA9      |        2729 |
|     254 | 0x224F      |        8783 |
|     255 | 0x2250      |        8784 |
|     256 | 0x2251      |        8785 |
|     257 | 0x2252      |        8786 |
|     258 | 0x2253      |        8787 |
|     259 | 0x2255      |        8789 |
|     260 | 0x2256      |        8790 |
|     261 | 0x2257      |        8791 |

## Events

### Event 65535

#### Metadata

| Field        | Value   |
|--------------|---------|
| Entrypoint   | 0x0000  |
| Data Size    | 1 bytes |
| Instructions | 1       |

```
      00 01 02 03 04 05 06 07  08 09 0A 0B 0C 0D 0E 0F
      -- -- -- -- -- -- -- --  -- -- -- -- -- -- -- --
0000: 00                                                .               
```

#### Opcodes

```
  0: 0x0000 [0x00] END_REQSTACK()
```

### Event 16

#### Metadata

| Field        | Value      |
|--------------|------------|
| Entrypoint   | 0x0001     |
| Data Size    | 3551 bytes |
| Instructions | 429        |

```
      00 01 02 03 04 05 06 07  08 09 0A 0B 0C 0D 0E 0F
      -- -- -- -- -- -- -- --  -- -- -- -- -- -- -- --
0000:    42 43 00 43 01 03 00  00 09 10 45 00 80 F8 FF   BC.C......E....
0010: FF 7F F8 FF FF 7F 66 64  6F 31 01 80 55 00 80 F8  ......fdo1..U...
0020: FF FF 7F F8 FF FF 7F 66  64 6F 31 46 01 38 02 80  .......fdo1F.8..
0030: 4E 00 F0 FF FF 7F 34 03  80 77 04 80 05 80 1C 05  N.....4..w......
0040: 80 AB 09 75 00 06 80 75  01 4E 00 B4 32 03 01 4E  ...u...u.N..2..N
0050: 00 B3 32 03 01 4E 00 62  32 03 01 4E 00 63 32 03  ..2..N.b2..N.c2.
0060: 01 4E 00 BA 32 03 01 4E  00 C5 32 03 01 4E 00 B8  .N..2..N..2..N..
0070: 32 03 01 4E 00 9E 32 03  01 4E 00 BD 32 03 01 4E  2..N..2..N..2..N
0080: 00 BE 32 03 01 4E 00 BF  32 03 01 4E 00 C2 32 03  ..2..N..2..N..2.
0090: 01 4E 00 C3 32 03 01 4E  00 C0 32 03 01 4E 00 C1  .N..2..N..2..N..
00A0: 32 03 01 4E 00 C4 32 03  01 29 10 B8 32 03 01 05  2..N..2..)..2...
00B0: BA F0 FF FF 7F 07 80 08  80 09 80 0A 80 BA B8 32  ...............2
00C0: 03 01 07 80 08 80 09 80  0A 80 BA F0 FF FF 7F 0B  ................
00D0: 80 0C 80 09 80 0D 80 BA  B8 32 03 01 0B 80 0C 80  .........2......
00E0: 09 80 0D 80 BA 9E 32 03  01 0E 80 0F 80 09 80 10  ......2.........
00F0: 80 BA C5 32 03 01 11 80  12 80 09 80 13 80 BA BD  ...2............
0100: 32 03 01 14 80 15 80 16  80 01 80 BA BE 32 03 01  2............2..
0110: 17 80 18 80 16 80 01 80  BA BF 32 03 01 19 80 1A  ..........2.....
0120: 80 16 80 01 80 BA C2 32  03 01 1B 80 1C 80 09 80  .......2........
0130: 1D 80 BA C3 32 03 01 1E  80 1F 80 09 80 20 80 BA  ....2........ ..
0140: C0 32 03 01 21 80 22 80  09 80 23 80 BA C1 32 03  .2..!."...#...2.
0150: 01 24 80 25 80 09 80 26  80 80 F0 FF FF 7F 80 B8  .$.%...&........
0160: 32 03 01 80 9E 32 03 01  80 BD 32 03 01 80 BE 32  2....2....2....2
0170: 03 01 80 BF 32 03 01 80  C5 32 03 01 80 C2 32 03  ....2....2....2.
0180: 01 80 C3 32 03 01 80 C0  32 03 01 80 C1 32 03 01  ...2....2....2..
0190: 94 01 B8 32 03 01 94 01  9E 32 03 01 94 01 BD 32  ...2.....2.....2
01A0: 03 01 94 01 BE 32 03 01  94 01 BF 32 03 01 94 01  .....2.....2....
01B0: C5 32 03 01 94 01 C2 32  03 01 94 01 C3 32 03 01  .2.....2.....2..
01C0: 94 01 C0 32 03 01 94 01  C1 32 03 01 92 01 9E 32  ...2.....2.....2
01D0: 03 01 92 01 BD 32 03 01  92 01 BE 32 03 01 92 01  .....2.....2....
01E0: BF 32 03 01 92 01 C5 32  03 01 92 01 C2 32 03 01  .2.....2.....2..
01F0: 92 01 C3 32 03 01 92 01  C0 32 03 01 92 01 C1 32  ...2.....2.....2
0200: 03 01 92 01 9E 32 03 01  92 01 C5 32 03 01 92 01  .....2.....2....
0210: B4 32 03 01 92 01 B3 32  03 01 92 01 62 32 03 01  .2.....2....b2..
0220: 92 01 63 32 03 01 92 01  BA 32 03 01 4E 01 C5 32  ..c2.....2..N..2
0230: 03 01 5D 01 80 00 80 1C  27 80 45 28 80 F0 FF FF  ..].....'.E(....
0240: 7F F0 FF FF 7F 73 31 36  38 01 80 45 00 80 F0 FF  .....s168..E....
0250: FF 7F F0 FF FF 7F 66 64  69 31 01 80 27 10 B8 32  ......fdi1..'..2
0260: 03 01 0A 5C 00 29 80 5C  01 29 80 1C 2A 80 52 28  ...\.).\.)..*.R(
0270: 80 F0 FF FF 7F F0 FF FF  7F 73 31 36 38 45 28 80  .........s168E(.
0280: F0 FF FF 7F F0 FF FF 7F  73 31 30 31 01 80 6E 9E  ........s101..n.
0290: 32 03 01 02 80 99 9E 32  03 01 1C 2B 80 2B 9E 32  2......2...+.+.2
02A0: 03 01 2C 80 23 52 28 80  F0 FF FF 7F F0 FF FF 7F  ..,.#R(.........
02B0: 73 31 30 31 45 28 80 F0  FF FF 7F F0 FF FF 7F 73  s101E(.........s
02C0: 31 30 32 01 80 4A 9E 32  03 01 F0 FF FF 7F 6F 76  102..J.2......ov
02D0: 9E 32 03 01 66 2D 80 9E  32 03 01 9E 32 03 01 74  .2..f-..2...2..t
02E0: 6C 6B 30 2B 9E 32 03 01  2E 80 23 52 28 80 F0 FF  lk0+.2....#R(...
02F0: FF 7F F0 FF FF 7F 73 31  30 32 45 28 80 F0 FF FF  ......s102E(....
0300: 7F F0 FF FF 7F 73 31 30  33 01 80 2B 9E 32 03 01  .....s103..+.2..
0310: 2F 80 23 66 2D 80 9E 32  03 01 9E 32 03 01 74 6C  /.#f-..2...2..tl
0320: 6B 31 1C 2B 80 52 28 80  F0 FF FF 7F F0 FF FF 7F  k1.+.R(.........
0330: 73 31 30 33 45 28 80 F0  FF FF 7F F0 FF FF 7F 73  s103E(.........s
0340: 31 30 34 01 80 66 30 80  9E 32 03 01 9E 32 03 01  104..f0..2...2..
0350: 74 68 6B 31 2B 9E 32 03  01 31 80 23 2B 9E 32 03  thk1+.2..1.#+.2.
0360: 01 32 80 23 52 28 80 F0  FF FF 7F F0 FF FF 7F 73  .2.#R(.........s
0370: 31 30 34 45 28 80 F0 FF  FF 7F F0 FF FF 7F 73 31  104E(.........s1
0380: 30 35 01 80 2C BE 32 03  01 BE 32 03 01 63 61 73  05..,.2...2..cas
0390: 6F 2C BF 32 03 01 BF 32  03 01 63 61 73 6F 2B 9E  o,.2...2..caso+.
03A0: 32 03 01 33 80 23 66 30  80 9E 32 03 01 9E 32 03  2..3.#f0..2...2.
03B0: 01 74 68 6B 32 53 9E 32  03 01 9E 32 03 01 74 68  .thk2S.2...2..th
03C0: 6B 32 79 00 9E 32 03 01  BD 32 03 01 1C 34 80 52  k2y..2...2...4.R
03D0: 28 80 F0 FF FF 7F F0 FF  FF 7F 73 31 30 35 45 28  (.........s105E(
03E0: 80 F0 FF FF 7F F0 FF FF  7F 73 31 37 36 01 80 4A  .........s176..J
03F0: F0 FF FF 7F BD 32 03 01  6F 76 F0 FF FF 7F 6E BD  .....2..ov....n.
0400: 32 03 01 35 80 99 BD 32  03 01 52 28 80 F0 FF FF  2..5...2..R(....
0410: 7F F0 FF FF 7F 73 31 37  36 45 28 80 F0 FF FF 7F  .....s176E(.....
0420: F0 FF FF 7F 73 31 30 36  01 80 27 10 C4 32 03 01  ....s106..'..2..
0430: 03 1C 36 80 2C BE 32 03  01 BE 32 03 01 73 68 73  ..6.,.2...2..shs
0440: 6F 2C BF 32 03 01 BF 32  03 01 73 68 73 6F 52 28  o,.2...2..shsoR(
0450: 80 F0 FF FF 7F F0 FF FF  7F 73 31 30 36 45 28 80  .........s106E(.
0460: F0 FF FF 7F F0 FF FF 7F  73 31 30 37 01 80 1C 37  ........s107...7
0470: 80 52 28 80 F0 FF FF 7F  F0 FF FF 7F 73 31 30 37  .R(.........s107
0480: 45 28 80 F0 FF FF 7F F0  FF FF 7F 73 31 30 38 01  E(.........s108.
0490: 80 6E C0 32 03 01 38 80  99 C0 32 03 01 5B 39 80  .n.2..8...2..[9.
04A0: C1 32 03 01 C1 32 03 01  69 72 6F 30 27 10 BF 32  .2...2..iro0'..2
04B0: 03 01 09 27 10 BE 32 03  01 0B 1C 3A 80 52 28 80  ...'..2....:.R(.
04C0: F0 FF FF 7F F0 FF FF 7F  73 31 30 38 45 28 80 F0  ........s108E(..
04D0: FF FF 7F F0 FF FF 7F 73  31 36 31 01 80 27 10 C4  .......s161..'..
04E0: 32 03 01 03 6E BD 32 03  01 3B 80 99 BD 32 03 01  2...n.2..;...2..
04F0: 6E BE 32 03 01 3C 80 99  BE 32 03 01 6E BF 32 03  n.2..<...2..n.2.
0500: 01 05 80 99 BF 32 03 01  BA 9E 32 03 01 3D 80 3E  .....2....2..=.>
0510: 80 09 80 10 80 1C 3F 80  52 28 80 F0 FF FF 7F F0  ......?.R(......
0520: FF FF 7F 73 31 36 31 BA  C3 32 03 01 40 80 41 80  ...s161..2..@.A.
0530: 09 80 20 80 45 28 80 F0  FF FF 7F F0 FF FF 7F 73  .. .E(.........s
0540: 31 30 39 01 80 7B 9E 32  03 01 1C 2B 80 2B 9E 32  109..{.2...+.+.2
0550: 03 01 42 80 23 52 28 80  F0 FF FF 7F F0 FF FF 7F  ..B.#R(.........
0560: 73 31 30 39 45 28 80 F0  FF FF 7F F0 FF FF 7F 74  s109E(.........t
0570: 6B 30 30 01 80 7B 9E 32  03 01 6E 9E 32 03 01 43  k00..{.2..n.2..C
0580: 80 99 9E 32 03 01 2B 9E  32 03 01 44 80 23 BA BE  ...2..+.2..D.#..
0590: 32 03 01 45 80 46 80 47  80 01 80 BA BF 32 03 01  2..E.F.G.....2..
05A0: 48 80 49 80 16 80 01 80  1C 4A 80 52 28 80 F0 FF  H.I......J.R(...
05B0: FF 7F F0 FF FF 7F 74 6B  30 30 45 28 80 F0 FF FF  ......tk00E(....
05C0: 7F F0 FF FF 7F 73 31 31  30 01 80 BA C3 32 03 01  .....s110....2..
05D0: 1E 80 1F 80 09 80 20 80  BA 9E 32 03 01 0E 80 0F  ...... ...2.....
05E0: 80 09 80 10 80 53 9E 32  03 01 9E 32 03 01 74 68  .....S.2...2..th
05F0: 6B 31 6E BD 32 03 01 3C  80 99 BD 32 03 01 1C 2B  k1n.2..<...2...+
0600: 80 2B 9E 32 03 01 4B 80  23 7B 9E 32 03 01 59 04  .+.2..K.#{.2..Y.
0610: B8 32 03 01 4C 80 27 10  B8 32 03 01 09 1C 2B 80  .2..L.'..2....+.
0620: 52 28 80 F0 FF FF 7F F0  FF FF 7F 73 31 31 30 45  R(.........s110E
0630: 28 80 F0 FF FF 7F F0 FF  FF 7F 73 31 37 39 01 80  (.........s179..
0640: 66 30 80 9E 32 03 01 9E  32 03 01 67 6B 72 30 5D  f0..2...2..gkr0]
0650: 01 80 00 80 27 10 BF 32  03 01 08 27 10 BE 32 03  ....'..2...'..2.
0660: 01 0A BA BD 32 03 01 14  80 15 80 16 80 01 80 BA  ....2...........
0670: BE 32 03 01 17 80 18 80  16 80 01 80 BA BF 32 03  .2............2.
0680: 01 19 80 1A 80 16 80 01  80 2A 10 B8 32 03 01 6E  .........*..2..n
0690: F0 FF FF 7F 4D 80 99 F0  FF FF 7F 1C 27 80 4E 00  ....M.......'.N.
06A0: C5 32 03 01 52 28 80 F0  FF FF 7F F0 FF FF 7F 73  .2..R(.........s
06B0: 31 37 39 45 28 80 F0 FF  FF 7F F0 FF FF 7F 73 31  179E(.........s1
06C0: 31 31 01 80 5C 00 4E 80  5C 01 4E 80 6B 69 64 6C  11..\.N.\.N.kidl
06D0: 30 9E 32 03 01 59 04 C5  32 03 01 4C 80 27 10 C5  0.2..Y..2..L.'..
06E0: 32 03 01 0E 1C 36 80 52  28 80 F0 FF FF 7F F0 FF  2....6.R(.......
06F0: FF 7F 73 31 31 31 45 28  80 F0 FF FF 7F F0 FF FF  ..s111E(........
0700: 7F 73 31 31 32 01 80 1C  00 80 52 28 80 F0 FF FF  .s112.....R(....
0710: 7F F0 FF FF 7F 73 31 31  32 45 28 80 F0 FF FF 7F  .....s112E(.....
0720: F0 FF FF 7F 73 31 37 37  01 80 2B C5 32 03 01 4F  ....s177..+.2..O
0730: 80 23 1C 4A 80 52 28 80  F0 FF FF 7F F0 FF FF 7F  .#.J.R(.........
0740: 73 31 37 37 45 28 80 F0  FF FF 7F F0 FF FF 7F 73  s177E(.........s
0750: 31 31 33 01 80 4A C5 32  03 01 9E 32 03 01 6E 9E  113..J.2...2..n.
0760: 32 03 01 50 80 99 9E 32  03 01 2B 9E 32 03 01 51  2..P...2..+.2..Q
0770: 80 23 6F 76 C5 32 03 01  52 28 80 F0 FF FF 7F F0  .#ov.2..R(......
0780: FF FF 7F 73 31 31 33 45  28 80 F0 FF FF 7F F0 FF  ...s113E(.......
0790: FF 7F 73 31 38 30 01 80  4A 9E 32 03 01 C5 32 03  ..s180..J.2...2.
07A0: 01 2B C5 32 03 01 52 80  23 1C 4A 80 52 28 80 F0  .+.2..R.#.J.R(..
07B0: FF FF 7F F0 FF FF 7F 73  31 38 30 45 28 80 F0 FF  .......s180E(...
07C0: FF 7F F0 FF FF 7F 73 31  31 34 01 80 4A C5 32 03  ......s114..J.2.
07D0: 01 F0 FF FF 7F 4A B8 32  03 01 C5 32 03 01 4A F0  .....J.2...2..J.
07E0: FF FF 7F C5 32 03 01 2B  C5 32 03 01 53 80 23 52  ....2..+.2..S.#R
07F0: 28 80 F0 FF FF 7F F0 FF  FF 7F 73 31 31 34 29 10  (.........s114).
0800: F0 FF FF 7F 37 45 28 80  F0 FF FF 7F F0 FF FF 7F  ....7E(.........
0810: 73 31 31 35 01 80 6F 76  9E 32 03 01 79 00 F0 FF  s115..ov.2..y...
0820: FF 7F C5 32 03 01 6E 9E  32 03 01 01 80 99 9E 32  ...2..n.2......2
0830: 03 01 2B 9E 32 03 01 54  80 23 1C 4A 80 52 28 80  ..+.2..T.#.J.R(.
0840: F0 FF FF 7F F0 FF FF 7F  73 31 31 35 45 28 80 F0  ........s115E(..
0850: FF FF 7F F0 FF FF 7F 73  31 31 36 01 80 66 55 80  .......s116..fU.
0860: C5 32 03 01 C5 32 03 01  74 6C 6B 30 2B C5 32 03  .2...2..tlk0+.2.
0870: 01 56 80 23 5B 57 80 9E  32 03 01 9E 32 03 01 68  .V.#[W..2...2..h
0880: 6E 65 30 52 28 80 F0 FF  FF 7F F0 FF FF 7F 73 31  ne0R(.........s1
0890: 31 36 45 28 80 F0 FF FF  7F F0 FF FF 7F 73 31 31  16E(.........s11
08A0: 37 01 80 6B 69 64 6C 30  C5 32 03 01 2B 9E 32 03  7..kidl0.2..+.2.
08B0: 01 58 80 23 1C 4A 80 52  28 80 F0 FF FF 7F F0 FF  .X.#.J.R(.......
08C0: FF 7F 73 31 31 37 45 28  80 F0 FF FF 7F F0 FF FF  ..s117E(........
08D0: 7F 73 31 31 38 01 80 6E  9E 32 03 01 59 80 99 9E  .s118..n.2..Y...
08E0: 32 03 01 2B 9E 32 03 01  5A 80 23 4A C5 32 03 01  2..+.2..Z.#J.2..
08F0: F0 FF FF 7F 52 28 80 F0  FF FF 7F F0 FF FF 7F 73  ....R(.........s
0900: 31 31 38 45 28 80 F0 FF  FF 7F F0 FF FF 7F 73 31  118E(.........s1
0910: 36 32 01 80 27 10 B8 32  03 01 08 6B 69 64 6C 30  62..'..2...kidl0
0920: 9E 32 03 01 66 55 80 C5  32 03 01 C5 32 03 01 74  .2..fU..2...2..t
0930: 6C 6B 30 1C 4A 80 2B C5  32 03 01 5B 80 23 66 55  lk0.J.+.2..[.#fU
0940: 80 C5 32 03 01 C5 32 03  01 74 6C 6B 31 52 28 80  ..2...2..tlk1R(.
0950: F0 FF FF 7F F0 FF FF 7F  73 31 36 32 45 28 80 F0  ........s162E(..
0960: FF FF 7F F0 FF FF 7F 73  31 32 30 01 80 BA BD 32  .......s120....2
0970: 03 01 14 80 15 80 16 80  01 80 BA BE 32 03 01 17  ............2...
0980: 80 18 80 16 80 01 80 BA  BF 32 03 01 19 80 1A 80  .........2......
0990: 16 80 01 80 2C BD 32 03  01 BD 32 03 01 63 61 73  ....,.2...2..cas
09A0: 6F 2C BE 32 03 01 BE 32  03 01 63 61 73 6F 2C BF  o,.2...2..caso,.
09B0: 32 03 01 BF 32 03 01 63  61 73 6F 6E 9E 32 03 01  2...2..cason.2..
09C0: 5C 80 99 9E 32 03 01 1C  2B 80 2B 9E 32 03 01 5D  \...2...+.+.2..]
09D0: 80 23 79 00 C5 32 03 01  9E 32 03 01 4A C5 32 03  .#y..2...2..J.2.
09E0: 01 9E 32 03 01 6F 76 C5  32 03 01 52 28 80 F0 FF  ..2..ov.2..R(...
09F0: FF 7F F0 FF FF 7F 73 31  32 30 45 28 80 F0 FF FF  ......s120E(....
0A00: 7F F0 FF FF 7F 73 31 32  31 01 80 27 10 C4 32 03  .....s121..'..2.
0A10: 01 03 66 55 80 C5 32 03  01 C5 32 03 01 74 68 6B  ..fU..2...2..thk
0A20: 31 2B C5 32 03 01 5E 80  23 1C 4A 80 52 28 80 F0  1+.2..^.#.J.R(..
0A30: FF FF 7F F0 FF FF 7F 73  31 32 31 45 28 80 F0 FF  .......s121E(...
0A40: FF 7F F0 FF FF 7F 73 31  32 32 01 80 6E 9E 32 03  ......s122..n.2.
0A50: 01 43 80 99 9E 32 03 01  1C 4A 80 2B 9E 32 03 01  .C...2...J.+.2..
0A60: 5F 80 23 1C 2B 80 5D 01  80 00 80 45 00 80 F0 FF  _.#.+.]....E....
0A70: FF 7F F0 FF FF 7F 66 64  6F 32 01 80 55 00 80 F0  ......fdo2..U...
0A80: FF FF 7F F0 FF FF 7F 66  64 6F 32 52 28 80 F0 FF  .......fdo2R(...
0A90: FF 7F F0 FF FF 7F 73 31  32 32 1C 4A 80 34 60 80  ......s122.J.4`.
0AA0: 77 61 80 05 80 AB 09 1C  2B 80 1C 3B 80 4E 00 BC  wa......+..;.N..
0AB0: 32 03 01 BA BC 32 03 01  62 80 63 80 09 80 64 80  2....2..b.c...d.
0AC0: BA 9E 32 03 01 65 80 66  80 09 80 67 80 80 BC 32  ..2..e.f...g...2
0AD0: 03 01 80 9E 32 03 01 2F  00 BC 32 03 01 2F 00 9E  ....2../..2../..
0AE0: 32 03 01 92 01 BC 32 03  01 4E 01 C0 32 03 01 4E  2.....2..N..2..N
0AF0: 01 C1 32 03 01 4E 01 C2  32 03 01 4E 01 C3 32 03  ..2..N..2..N..2.
0B00: 01 4E 01 C5 32 03 01 4E  01 BA 32 03 01 4E 01 62  .N..2..N..2..N.b
0B10: 32 03 01 4E 01 63 32 03  01 4E 01 B4 32 03 01 4E  2..N.c2..N..2..N
0B20: 01 B3 32 03 01 4E 01 BD  32 03 01 4E 01 BE 32 03  ..2..N..2..N..2.
0B30: 01 4E 01 BF 32 03 01 4A  BC 32 03 01 9E 32 03 01  .N..2..J.2...2..
0B40: 4A 9E 32 03 01 BC 32 03  01 6F 76 BC 32 03 01 6F  J.2...2..ov.2..o
0B50: 76 9E 32 03 01 79 00 9E  32 03 01 BC 32 03 01 1C  v.2..y..2...2...
0B60: 2B 80 45 28 80 F0 FF FF  7F F0 FF FF 7F 73 31 35  +.E(.........s15
0B70: 37 01 80 45 68 80 F0 FF  FF 7F F0 FF FF 7F 65 66  7..Eh.........ef
0B80: 6F 6E 01 80 55 68 80 F0  FF FF 7F F0 FF FF 7F 65  on..Uh.........e
0B90: 66 6F 6E 5C 00 69 80 5C  01 69 80 9A 1C 6A 80 52  fon\.i.\.i...j.R
0BA0: 28 80 F0 FF FF 7F F0 FF  FF 7F 73 31 35 37 45 28  (.........s157E(
0BB0: 80 F0 FF FF 7F F0 FF FF  7F 73 31 36 39 01 80 1C  .........s169...
0BC0: 4A 80 66 2D 80 9E 32 03  01 9E 32 03 01 74 6C 6B  J.f-..2...2..tlk
0BD0: 30 1C 3A 80 66 2D 80 9E  32 03 01 9E 32 03 01 74  0.:.f-..2...2..t
0BE0: 6C 6B 31 53 9E 32 03 01  9E 32 03 01 74 6C 6B 31  lk1S.2...2..tlk1
0BF0: 1C 2B 80 52 28 80 F0 FF  FF 7F F0 FF FF 7F 73 31  .+.R(.........s1
0C00: 36 39 45 28 80 F0 FF FF  7F F0 FF FF 7F 73 31 37  69E(.........s17
0C10: 30 01 80 1C 6B 80 52 28  80 F0 FF FF 7F F0 FF FF  0...k.R(........
0C20: 7F 73 31 37 30 45 28 80  F0 FF FF 7F F0 FF FF 7F  .s170E(.........
0C30: 73 31 37 33 01 80 6E 9E  32 03 01 6C 80 99 9E 32  s173..n.2..l...2
0C40: 03 01 1C 6D 80 52 28 80  F0 FF FF 7F F0 FF FF 7F  ...m.R(.........
0C50: 73 31 37 33 45 28 80 F0  FF FF 7F F0 FF FF 7F 73  s173E(.........s
0C60: 31 37 34 01 80 2C BC 32  03 01 BC 32 03 01 63 61  174..,.2...2..ca
0C70: 62 6B 1C 3A 80 52 28 80  F0 FF FF 7F F0 FF FF 7F  bk.:.R(.........
0C80: 73 31 37 34 45 28 80 F0  FF FF 7F F0 FF FF 7F 73  s174E(.........s
0C90: 31 37 35 01 80 6E 9E 32  03 01 5C 80 99 9E 32 03  175..n.2..\...2.
0CA0: 01 1C 6E 80 52 28 80 F0  FF FF 7F F0 FF FF 7F 73  ..n.R(.........s
0CB0: 31 37 35 45 28 80 F0 FF  FF 7F F0 FF FF 7F 73 31  175E(.........s1
0CC0: 35 38 01 80 7B 9E 32 03  01 2C BC 32 03 01 BC 32  58..{.2..,.2...2
0CD0: 03 01 73 68 62 6B 73 6F  80 9E 32 03 01 9E 32 03  ..shbkso..2...2.
0CE0: 01 1C 70 80 52 28 80 F0  FF FF 7F F0 FF FF 7F 73  ..p.R(.........s
0CF0: 31 35 38 45 28 80 F0 FF  FF 7F F0 FF FF 7F 73 31  158E(.........s1
0D00: 36 36 01 80 27 10 9E 32  03 01 16 1C 6E 80 52 28  66..'..2....n.R(
0D10: 80 F0 FF FF 7F F0 FF FF  7F 73 31 36 36 45 28 80  .........s166E(.
0D20: F0 FF FF 7F F0 FF FF 7F  73 31 36 35 01 80 1C 3F  ........s165...?
0D30: 80 52 28 80 F0 FF FF 7F  F0 FF FF 7F 73 31 36 35  .R(.........s165
0D40: 45 28 80 F0 FF FF 7F F0  FF FF 7F 73 31 35 39 01  E(.........s159.
0D50: 80 2C 9E 32 03 01 9E 32  03 01 64 65 61 64 1C 71  .,.2...2..dead.q
0D60: 80 5D 01 80 00 80 45 00  80 F0 FF FF 7F F0 FF FF  .]....E.........
0D70: 7F 66 64 6F 32 01 80 55  00 80 F0 FF FF 7F F0 FF  .fdo2..U........
0D80: FF 7F 66 64 6F 32 52 68  80 F0 FF FF 7F F0 FF FF  ..fdo2Rh........
0D90: 7F 65 66 6F 6E 52 28 80  F0 FF FF 7F F0 FF FF 7F  .efonR(.........
0DA0: 73 31 35 39 1C 4A 80 AB  11 01 80 1C 05 80 35 72  s159.J........5r
0DB0: 80 78 1C 4A 80 AB 0A 02  00 00 01 80 00 C2 0D 30  .x.J...........0
0DC0: 21 00 5C 00 73 80 5C 01  73 80 9A 46 00 45 00 80  !.\.s.\.s..F.E..
0DD0: F0 FF FF 7F F0 FF FF 7F  66 64 69 32 01 80 21 00  ........fdi2..!.
```

#### Opcodes

```
  0: 0x0001 [0x42] SET_CLI_EVENT_CANCEL_DATA()
  1: 0x0002 [0x43] SEND_EVENT_UPDATE: Send pending tag to server (packet 0x005B)
  2: 0x0004 [0x43] SEND_EVENT_UPDATE: Check pending flag (skip if not pending)
  3: 0x0006 [0x03] ExtData[1]->WorkLocal[0] = Work_Zone[9]
  4: 0x000B [0x45] LOAD_SCHEDULED_TASK: Load scheduler "fdo1" with entities [EventEntity, EventEntity], work=[200*, 0*]
  5: 0x001C [0x55] WAIT_LOAD_SCHEDULER: Wait for scheduler "fdo1" with entities [EventEntity, EventEntity], work=200*
  6: 0x002B [0x46] CAMERA_CONTROL: Disable user control
  7: 0x002D [0x38] SET_CLIENT_EVENT_MODE(mode=19*)
  8: 0x0030 [0x4E] SET_ENTITY_HIDE_FLAG: Show LocalPlayer
  9: 0x0036 [0x34] LOAD_UNLOAD_ZONE(zone_id=50*)
 10: 0x0039 [0x77] SET_EVENT_TIME_WEATHER(hour=255*, weather=1*)
 11: 0x003E [0x1C] WAIT(1* ticks)
 12: 0x0041 [0xAB] EventEntity->UnknownFlag = 1 // Enable unknown flag
 13: 0x0043 [0x75] LOAD_ROOM(Load indoor room, room=565*)
 14: 0x0047 [0x75] LOAD_ROOM(No action)
 15: 0x0049 [0x4E] SET_ENTITY_HIDE_FLAG: Show Zubyahn (ID: 16986804/0x010332B4)
 16: 0x004F [0x4E] SET_ENTITY_HIDE_FLAG: Show Halbeeya (ID: 16986803/0x010332B3)
 17: 0x0055 [0x4E] SET_ENTITY_HIDE_FLAG: Show Unnamed NPC (ID: 16986722/0x01033262)
 18: 0x005B [0x4E] SET_ENTITY_HIDE_FLAG: Show Unnamed NPC (ID: 16986723/0x01033263)
 19: 0x0061 [0x4E] SET_ENTITY_HIDE_FLAG: Show Ratihb (ID: 16986810/0x010332BA)
 20: 0x0067 [0x4E] SET_ENTITY_HIDE_FLAG: Show Shayadar (ID: 16986821/0x010332C5)
 21: 0x006D [0x4E] SET_ENTITY_HIDE_FLAG: Show Unnamed NPC (ID: 16986808/0x010332B8)
 22: 0x0073 [0x4E] SET_ENTITY_HIDE_FLAG: Show Fari-Wari (ID: 16986782/0x0103329E)
 23: 0x0079 [0x4E] SET_ENTITY_HIDE_FLAG: Show Wajran (ID: 16986813/0x010332BD)
 24: 0x007F [0x4E] SET_ENTITY_HIDE_FLAG: Show PAKU02 (ID: 16986814/0x010332BE)
 25: 0x0085 [0x4E] SET_ENTITY_HIDE_FLAG: Show PAKU03 (ID: 16986815/0x010332BF)
 26: 0x008B [0x4E] SET_ENTITY_HIDE_FLAG: Show FAN7 (ID: 16986818/0x010332C2)
 27: 0x0091 [0x4E] SET_ENTITY_HIDE_FLAG: Show FAN8 (ID: 16986819/0x010332C3)
 28: 0x0097 [0x4E] SET_ENTITY_HIDE_FLAG: Show FAN3 (ID: 16986816/0x010332C0)
 29: 0x009D [0x4E] SET_ENTITY_HIDE_FLAG: Show FAN4 (ID: 16986817/0x010332C1)
 30: 0x00A3 [0x4E] SET_ENTITY_HIDE_FLAG: Show Unnamed NPC (ID: 16986820/0x010332C4)
 31: 0x00A9 [0x29] REQ_SET_WAIT(priority=0x10, entity_id=Unnamed NPC (ID: 16986808/0x010332B8), tag_num=0x05)
 32: 0x00B0 [0xBA] SET_ENTITY_POSITION(entity_id=LocalPlayer, pos_x=80.878*, pos_z=-132.670*, pos_y=-6.000*, direction=109.8°*)
 33: 0x00BD [0xBA] SET_ENTITY_POSITION(entity_id=Unnamed NPC (ID: 16986808/0x010332B8), pos_x=80.878*, pos_z=-132.670*, pos_y=-6.000*, direction=109.8°*)
 34: 0x00CA [0xBA] SET_ENTITY_POSITION(entity_id=LocalPlayer, pos_x=81.658*, pos_z=-130.513*, pos_y=-6.000*, direction=109.7°*)
 35: 0x00D7 [0xBA] SET_ENTITY_POSITION(entity_id=Unnamed NPC (ID: 16986808/0x010332B8), pos_x=81.658*, pos_z=-130.513*, pos_y=-6.000*, direction=109.7°*)
 36: 0x00E4 [0xBA] SET_ENTITY_POSITION(entity_id=Fari-Wari (ID: 16986782/0x0103329E), pos_x=79.882*, pos_z=-136.478*, pos_y=-6.000*, direction=270.2°*)
 37: 0x00F1 [0xBA] SET_ENTITY_POSITION(entity_id=Shayadar (ID: 16986821/0x010332C5), pos_x=77.287*, pos_z=-124.416*, pos_y=-6.000*, direction=144.3°*)
 38: 0x00FE [0xBA] SET_ENTITY_POSITION(entity_id=Wajran (ID: 16986813/0x010332BD), pos_x=68.855*, pos_z=-127.802*, pos_y=-6.499*, direction=0.0°*)
 39: 0x010B [0xBA] SET_ENTITY_POSITION(entity_id=PAKU02 (ID: 16986814/0x010332BE), pos_x=67.693*, pos_z=-127.060*, pos_y=-6.499*, direction=0.0°*)
 40: 0x0118 [0xBA] SET_ENTITY_POSITION(entity_id=PAKU03 (ID: 16986815/0x010332BF), pos_x=67.565*, pos_z=-128.700*, pos_y=-6.499*, direction=0.0°*)
 41: 0x0125 [0xBA] SET_ENTITY_POSITION(entity_id=FAN7 (ID: 16986818/0x010332C2), pos_x=71.160*, pos_z=-131.110*, pos_y=-6.000*, direction=210.9°*)
 42: 0x0132 [0xBA] SET_ENTITY_POSITION(entity_id=FAN8 (ID: 16986819/0x010332C3), pos_x=72.274*, pos_z=-129.999*, pos_y=-6.000*, direction=202.1°*)
 43: 0x013F [0xBA] SET_ENTITY_POSITION(entity_id=FAN3 (ID: 16986816/0x010332C0), pos_x=72.789*, pos_z=-128.391*, pos_y=-6.000*, direction=180.0°*)
 44: 0x014C [0xBA] SET_ENTITY_POSITION(entity_id=FAN4 (ID: 16986817/0x010332C1), pos_x=72.888*, pos_z=-126.685*, pos_y=-6.000*, direction=162.4°*)
 45: 0x0159 [0x80] LOAD_WAIT(entity=LocalPlayer)
 46: 0x015E [0x80] LOAD_WAIT(entity=Unnamed NPC (ID: 16986808/0x010332B8))
 47: 0x0163 [0x80] LOAD_WAIT(entity=Fari-Wari (ID: 16986782/0x0103329E))
 48: 0x0168 [0x80] LOAD_WAIT(entity=Wajran (ID: 16986813/0x010332BD))
 49: 0x016D [0x80] LOAD_WAIT(entity=PAKU02 (ID: 16986814/0x010332BE))
 50: 0x0172 [0x80] LOAD_WAIT(entity=PAKU03 (ID: 16986815/0x010332BF))
 51: 0x0177 [0x80] LOAD_WAIT(entity=Shayadar (ID: 16986821/0x010332C5))
 52: 0x017C [0x80] LOAD_WAIT(entity=FAN7 (ID: 16986818/0x010332C2))
 53: 0x0181 [0x80] LOAD_WAIT(entity=FAN8 (ID: 16986819/0x010332C3))
 54: 0x0186 [0x80] LOAD_WAIT(entity=FAN3 (ID: 16986816/0x010332C0))
 55: 0x018B [0x80] LOAD_WAIT(entity=FAN4 (ID: 16986817/0x010332C1))
 56: 0x0190 [0x94] Unnamed NPC (ID: 16986808/0x010332B8)->Render.Flags3 ^= 0x01
 57: 0x0196 [0x94] Fari-Wari (ID: 16986782/0x0103329E)->Render.Flags3 ^= 0x01
 58: 0x019C [0x94] Wajran (ID: 16986813/0x010332BD)->Render.Flags3 ^= 0x01
 59: 0x01A2 [0x94] PAKU02 (ID: 16986814/0x010332BE)->Render.Flags3 ^= 0x01
 60: 0x01A8 [0x94] PAKU03 (ID: 16986815/0x010332BF)->Render.Flags3 ^= 0x01
 61: 0x01AE [0x94] Shayadar (ID: 16986821/0x010332C5)->Render.Flags3 ^= 0x01
 62: 0x01B4 [0x94] FAN7 (ID: 16986818/0x010332C2)->Render.Flags3 ^= 0x01
 63: 0x01BA [0x94] FAN8 (ID: 16986819/0x010332C3)->Render.Flags3 ^= 0x01
 64: 0x01C0 [0x94] FAN3 (ID: 16986816/0x010332C0)->Render.Flags3 ^= 0x01
 65: 0x01C6 [0x94] FAN4 (ID: 16986817/0x010332C1)->Render.Flags3 ^= 0x01
 66: 0x01CC [0x92] Fari-Wari (ID: 16986782/0x0103329E)->Render.Flags3 ^= 0x01
 67: 0x01D2 [0x92] Wajran (ID: 16986813/0x010332BD)->Render.Flags3 ^= 0x01
 68: 0x01D8 [0x92] PAKU02 (ID: 16986814/0x010332BE)->Render.Flags3 ^= 0x01
 69: 0x01DE [0x92] PAKU03 (ID: 16986815/0x010332BF)->Render.Flags3 ^= 0x01
 70: 0x01E4 [0x92] Shayadar (ID: 16986821/0x010332C5)->Render.Flags3 ^= 0x01
 71: 0x01EA [0x92] FAN7 (ID: 16986818/0x010332C2)->Render.Flags3 ^= 0x01
 72: 0x01F0 [0x92] FAN8 (ID: 16986819/0x010332C3)->Render.Flags3 ^= 0x01
 73: 0x01F6 [0x92] FAN3 (ID: 16986816/0x010332C0)->Render.Flags3 ^= 0x01
 74: 0x01FC [0x92] FAN4 (ID: 16986817/0x010332C1)->Render.Flags3 ^= 0x01
 75: 0x0202 [0x92] Fari-Wari (ID: 16986782/0x0103329E)->Render.Flags3 ^= 0x01
 76: 0x0208 [0x92] Shayadar (ID: 16986821/0x010332C5)->Render.Flags3 ^= 0x01
 77: 0x020E [0x92] Zubyahn (ID: 16986804/0x010332B4)->Render.Flags3 ^= 0x01
 78: 0x0214 [0x92] Halbeeya (ID: 16986803/0x010332B3)->Render.Flags3 ^= 0x01
 79: 0x021A [0x92] Unnamed NPC (ID: 16986722/0x01033262)->Render.Flags3 ^= 0x01
 80: 0x0220 [0x92] Unnamed NPC (ID: 16986723/0x01033263)->Render.Flags3 ^= 0x01
 81: 0x0226 [0x92] Ratihb (ID: 16986810/0x010332BA)->Render.Flags3 ^= 0x01
 82: 0x022C [0x4E] SET_ENTITY_HIDE_FLAG: Hide Shayadar (ID: 16986821/0x010332C5)
 83: 0x0232 [0x5D] SET_MUSIC_VOLUME(volume=0*, fade_time=200*)
 84: 0x0237 [0x1C] WAIT(60* ticks)
 85: 0x023A [0x45] LOAD_SCHEDULED_TASK: Load scheduler "s168" with entities [LocalPlayer, LocalPlayer], work=[447*, 0*]
 86: 0x024B [0x45] LOAD_SCHEDULED_TASK: Load scheduler "fdi1" with entities [LocalPlayer, LocalPlayer], work=[200*, 0*]
 87: 0x025C [0x27] REQ_SET(priority=0x10, entity_id=Unnamed NPC (ID: 16986808/0x010332B8), tag_num=0x0A)
 88: 0x0263 [0x5C] MUSIC_CONTROL: Set Idle (Day) music to song 163*
 89: 0x0267 [0x5C] MUSIC_CONTROL: Set Idle (Night) music to song 163*
 90: 0x026B [0x1C] WAIT(210* ticks)
 91: 0x026E [0x52] END_LOAD_SCHEDULER: End scheduler "s168" with entities [LocalPlayer, LocalPlayer], work=447*
 92: 0x027D [0x45] LOAD_SCHEDULED_TASK: Load scheduler "s101" with entities [LocalPlayer, LocalPlayer], work=[447*, 0*]
 93: 0x028E [0x6E] Fari-Wari (ID: 16986782/0x0103329E) uses emote 19*
 94: 0x0295 [0x99] Wait for Fari-Wari (ID: 16986782/0x0103329E) animation to complete
 95: 0x029A [0x1C] WAIT(30* ticks)
 96: 0x029D [0x2B] Fari-Wari (ID: 16986782/0x0103329E) [8674*]:
    → "Oh, woe is me! Oh, gloom and misery!"
 97: 0x02A4 [0x23] WAIT_FOR_DIALOG_INTERACTION
 98: 0x02A5 [0x52] END_LOAD_SCHEDULER: End scheduler "s101" with entities [LocalPlayer, LocalPlayer], work=447*
 99: 0x02B4 [0x45] LOAD_SCHEDULED_TASK: Load scheduler "s102" with entities [LocalPlayer, LocalPlayer], work=[447*, 0*]
100: 0x02C5 [0x4A] Fari-Wari (ID: 16986782/0x0103329E) looks at LocalPlayer
101: 0x02CE [0x6F] WAIT_FRAME_DELAY: Yield until WaitTime reaches zero
102: 0x02CF [0x76] CHECK_ENTITY_RENDER_FLAGS: Wait until Fari-Wari (ID: 16986782/0x0103329E) Render.Flags0 and Render.Flags3 conditions are met
103: 0x02D4 [0x66] LOAD_EXT_SCHEDULER_MAIN: Load scheduler "tlk0" with entities [Fari-Wari (ID: 16986782/0x0103329E), Fari-Wari (ID: 16986782/0x0103329E)], work=49*
104: 0x02E3 [0x2B] Fari-Wari (ID: 16986782/0x0103329E) [8675*]:
    → "Oh, hullo there. If it isn't my erstwhile attendant. Well met..."
105: 0x02EA [0x23] WAIT_FOR_DIALOG_INTERACTION
106: 0x02EB [0x52] END_LOAD_SCHEDULER: End scheduler "s102" with entities [LocalPlayer, LocalPlayer], work=447*
107: 0x02FA [0x45] LOAD_SCHEDULED_TASK: Load scheduler "s103" with entities [LocalPlayer, LocalPlayer], work=[447*, 0*]
108: 0x030B [0x2B] Fari-Wari (ID: 16986782/0x0103329E) [8676*]:
    → "Come to have a jest, have you? To jape and jeer at Fari-Wari the Pitiful?"
109: 0x0312 [0x23] WAIT_FOR_DIALOG_INTERACTION
110: 0x0313 [0x66] LOAD_EXT_SCHEDULER_MAIN: Load scheduler "tlk1" with entities [Fari-Wari (ID: 16986782/0x0103329E), Fari-Wari (ID: 16986782/0x0103329E)], work=49*
111: 0x0322 [0x1C] WAIT(30* ticks)
112: 0x0325 [0x52] END_LOAD_SCHEDULER: End scheduler "s103" with entities [LocalPlayer, LocalPlayer], work=447*
113: 0x0334 [0x45] LOAD_SCHEDULED_TASK: Load scheduler "s104" with entities [LocalPlayer, LocalPlayer], work=[447*, 0*]
114: 0x0345 [0x66] LOAD_EXT_SCHEDULER_MAIN: Load scheduler "thk1" with entities [Fari-Wari (ID: 16986782/0x0103329E), Fari-Wari (ID: 16986782/0x0103329E)], work=40*
115: 0x0354 [0x2B] Fari-Wari (ID: 16986782/0x0103329E) [8677*]:
    → "Once the acclaimed balladeer of the Serpent Generals five--or was it four? Bah, 'tis no matter."
116: 0x035B [0x23] WAIT_FOR_DIALOG_INTERACTION
117: 0x035C [0x2B] Fari-Wari (ID: 16986782/0x0103329E) [8678*]:
    → "A minstrel of such repute that other bards would sing my praises! My adoring fans lined up on every corner to catch a passing strain of my latest magnum opus!"
118: 0x0363 [0x23] WAIT_FOR_DIALOG_INTERACTION
119: 0x0364 [0x52] END_LOAD_SCHEDULER: End scheduler "s104" with entities [LocalPlayer, LocalPlayer], work=447*
120: 0x0373 [0x45] LOAD_SCHEDULED_TASK: Load scheduler "s105" with entities [LocalPlayer, LocalPlayer], work=[447*, 0*]
121: 0x0384 [0x2C] CREATE_SCHEDULER_TASK: Create scheduler "caso" with entities [PAKU02 (ID: 16986814/0x010332BE), PAKU02 (ID: 16986814/0x010332BE)]
122: 0x0391 [0x2C] CREATE_SCHEDULER_TASK: Create scheduler "caso" with entities [PAKU03 (ID: 16986815/0x010332BF), PAKU03 (ID: 16986815/0x010332BF)]
123: 0x039E [0x2B] Fari-Wari (ID: 16986782/0x0103329E) [8679*]:
    → "What's the matter, you say!? See for yourself!"
124: 0x03A5 [0x23] WAIT_FOR_DIALOG_INTERACTION
125: 0x03A6 [0x66] LOAD_EXT_SCHEDULER_MAIN: Load scheduler "thk2" with entities [Fari-Wari (ID: 16986782/0x0103329E), Fari-Wari (ID: 16986782/0x0103329E)], work=40*
126: 0x03B5 [0x53] WAIT_SCHEDULER_TASK: Wait for scheduler "thk2" with entities [Fari-Wari (ID: 16986782/0x0103329E), Fari-Wari (ID: 16986782/0x0103329E)]
127: 0x03C2 [0x79] Fari-Wari (ID: 16986782/0x0103329E) looks at Wajran (ID: 16986813/0x010332BD) (Basic look)
128: 0x03CC [0x1C] WAIT(90* ticks)
129: 0x03CF [0x52] END_LOAD_SCHEDULER: End scheduler "s105" with entities [LocalPlayer, LocalPlayer], work=447*
130: 0x03DE [0x45] LOAD_SCHEDULED_TASK: Load scheduler "s176" with entities [LocalPlayer, LocalPlayer], work=[447*, 0*]
131: 0x03EF [0x4A] LocalPlayer looks at Wajran (ID: 16986813/0x010332BD)
132: 0x03F8 [0x6F] WAIT_FRAME_DELAY: Yield until WaitTime reaches zero
133: 0x03F9 [0x76] CHECK_ENTITY_RENDER_FLAGS: Wait until LocalPlayer Render.Flags0 and Render.Flags3 conditions are met
134: 0x03FE [0x6E] Wajran (ID: 16986813/0x010332BD) uses emote 65*
135: 0x0405 [0x99] Wait for Wajran (ID: 16986813/0x010332BD) animation to complete
136: 0x040A [0x52] END_LOAD_SCHEDULER: End scheduler "s176" with entities [LocalPlayer, LocalPlayer], work=447*
137: 0x0419 [0x45] LOAD_SCHEDULED_TASK: Load scheduler "s106" with entities [LocalPlayer, LocalPlayer], work=[447*, 0*]
138: 0x042A [0x27] REQ_SET(priority=0x10, entity_id=Unnamed NPC (ID: 16986820/0x010332C4), tag_num=0x03)
139: 0x0431 [0x1C] WAIT(150* ticks)
140: 0x0434 [0x2C] CREATE_SCHEDULER_TASK: Create scheduler "shso" with entities [PAKU02 (ID: 16986814/0x010332BE), PAKU02 (ID: 16986814/0x010332BE)]
141: 0x0441 [0x2C] CREATE_SCHEDULER_TASK: Create scheduler "shso" with entities [PAKU03 (ID: 16986815/0x010332BF), PAKU03 (ID: 16986815/0x010332BF)]
142: 0x044E [0x52] END_LOAD_SCHEDULER: End scheduler "s106" with entities [LocalPlayer, LocalPlayer], work=447*
143: 0x045D [0x45] LOAD_SCHEDULED_TASK: Load scheduler "s107" with entities [LocalPlayer, LocalPlayer], work=[447*, 0*]
144: 0x046E [0x1C] WAIT(80* ticks)
145: 0x0471 [0x52] END_LOAD_SCHEDULER: End scheduler "s107" with entities [LocalPlayer, LocalPlayer], work=447*
146: 0x0480 [0x45] LOAD_SCHEDULED_TASK: Load scheduler "s108" with entities [LocalPlayer, LocalPlayer], work=[447*, 0*]
147: 0x0491 [0x6E] FAN3 (ID: 16986816/0x010332C0) uses emote 11*
148: 0x0498 [0x99] Wait for FAN3 (ID: 16986816/0x010332C0) animation to complete
149: 0x049D [0x5B] LOAD_EXT_SCHEDULER: Load scheduler "iro0" with entities [FAN4 (ID: 16986817/0x010332C1), FAN4 (ID: 16986817/0x010332C1)], work=1328*
150: 0x04AC [0x27] REQ_SET(priority=0x10, entity_id=PAKU03 (ID: 16986815/0x010332BF), tag_num=0x09)
151: 0x04B3 [0x27] REQ_SET(priority=0x10, entity_id=PAKU02 (ID: 16986814/0x010332BE), tag_num=0x0B)
152: 0x04BA [0x1C] WAIT(120* ticks)
153: 0x04BD [0x52] END_LOAD_SCHEDULER: End scheduler "s108" with entities [LocalPlayer, LocalPlayer], work=447*
154: 0x04CC [0x45] LOAD_SCHEDULED_TASK: Load scheduler "s161" with entities [LocalPlayer, LocalPlayer], work=[447*, 0*]
155: 0x04DD [0x27] REQ_SET(priority=0x10, entity_id=Unnamed NPC (ID: 16986820/0x010332C4), tag_num=0x03)
156: 0x04E4 [0x6E] Wajran (ID: 16986813/0x010332BD) uses emote 10*
157: 0x04EB [0x99] Wait for Wajran (ID: 16986813/0x010332BD) animation to complete
158: 0x04F0 [0x6E] PAKU02 (ID: 16986814/0x010332BE) uses emote 8*
159: 0x04F7 [0x99] Wait for PAKU02 (ID: 16986814/0x010332BE) animation to complete
160: 0x04FC [0x6E] PAKU03 (ID: 16986815/0x010332BF) uses emote 1*
161: 0x0503 [0x99] Wait for PAKU03 (ID: 16986815/0x010332BF) animation to complete
162: 0x0508 [0xBA] SET_ENTITY_POSITION(entity_id=Fari-Wari (ID: 16986782/0x0103329E), pos_x=79.199*, pos_z=-134.958*, pos_y=-6.000*, direction=270.2°*)
163: 0x0515 [0x1C] WAIT(100* ticks)
164: 0x0518 [0x52] END_LOAD_SCHEDULER: End scheduler "s161" with entities [LocalPlayer, LocalPlayer], work=447*
165: 0x0527 [0xBA] SET_ENTITY_POSITION(entity_id=FAN8 (ID: 16986819/0x010332C3), pos_x=72.029*, pos_z=-130.365*, pos_y=-6.000*, direction=202.1°*)
166: 0x0534 [0x45] LOAD_SCHEDULED_TASK: Load scheduler "s109" with entities [LocalPlayer, LocalPlayer], work=[447*, 0*]
167: 0x0545 [0x7B] Fari-Wari (ID: 16986782/0x0103329E) stops talking
168: 0x054A [0x1C] WAIT(30* ticks)
169: 0x054D [0x2B] Fari-Wari (ID: 16986782/0x0103329E) [8680*]:
    → "Imitation is the sincerest form of flattery? Hogwash, I say!"
170: 0x0554 [0x23] WAIT_FOR_DIALOG_INTERACTION
171: 0x0555 [0x52] END_LOAD_SCHEDULER: End scheduler "s109" with entities [LocalPlayer, LocalPlayer], work=447*
172: 0x0564 [0x45] LOAD_SCHEDULED_TASK: Load scheduler "tk00" with entities [LocalPlayer, LocalPlayer], work=[447*, 0*]
173: 0x0575 [0x7B] Fari-Wari (ID: 16986782/0x0103329E) stops talking
174: 0x057A [0x6E] Fari-Wari (ID: 16986782/0x0103329E) uses emote 25*
175: 0x0581 [0x99] Wait for Fari-Wari (ID: 16986782/0x0103329E) animation to complete
176: 0x0586 [0x2B] Fari-Wari (ID: 16986782/0x0103329E) [8681*]:
    → "Those hacks, those poseurs! They pilfer my melodies and claim them as their own! And do you know the worst of it, my dear attendant?"
177: 0x058D [0x23] WAIT_FOR_DIALOG_INTERACTION
178: 0x058E [0xBA] SET_ENTITY_POSITION(entity_id=PAKU02 (ID: 16986814/0x010332BE), pos_x=68.485*, pos_z=-127.413*, pos_y=-6.500*, direction=0.0°*)
179: 0x059B [0xBA] SET_ENTITY_POSITION(entity_id=PAKU03 (ID: 16986815/0x010332BF), pos_x=68.167*, pos_z=-128.117*, pos_y=-6.499*, direction=0.0°*)
180: 0x05A8 [0x1C] WAIT(15* ticks)
181: 0x05AB [0x52] END_LOAD_SCHEDULER: End scheduler "tk00" with entities [LocalPlayer, LocalPlayer], work=447*
182: 0x05BA [0x45] LOAD_SCHEDULED_TASK: Load scheduler "s110" with entities [LocalPlayer, LocalPlayer], work=[447*, 0*]
183: 0x05CB [0xBA] SET_ENTITY_POSITION(entity_id=FAN8 (ID: 16986819/0x010332C3), pos_x=72.274*, pos_z=-129.999*, pos_y=-6.000*, direction=202.1°*)
184: 0x05D8 [0xBA] SET_ENTITY_POSITION(entity_id=Fari-Wari (ID: 16986782/0x0103329E), pos_x=79.882*, pos_z=-136.478*, pos_y=-6.000*, direction=270.2°*)
185: 0x05E5 [0x53] WAIT_SCHEDULER_TASK: Wait for scheduler "thk1" with entities [Fari-Wari (ID: 16986782/0x0103329E), Fari-Wari (ID: 16986782/0x0103329E)]
186: 0x05F2 [0x6E] Wajran (ID: 16986813/0x010332BD) uses emote 8*
187: 0x05F9 [0x99] Wait for Wajran (ID: 16986813/0x010332BD) animation to complete
188: 0x05FE [0x1C] WAIT(30* ticks)
189: 0x0601 [0x2B] Fari-Wari (ID: 16986782/0x0103329E) [8682*]:
    → "The uncultured hoi polloi--they pay no heed to this artistic travesty! They suck up this swill like so many swine!"
190: 0x0608 [0x23] WAIT_FOR_DIALOG_INTERACTION
191: 0x0609 [0x7B] Fari-Wari (ID: 16986782/0x0103329E) stops talking
192: 0x060E [0x59] UPDATE_ENTITY_DATA: Set Unnamed NPC (ID: 16986808/0x010332B8) main speed = 13* * 0.1
193: 0x0616 [0x27] REQ_SET(priority=0x10, entity_id=Unnamed NPC (ID: 16986808/0x010332B8), tag_num=0x09)
194: 0x061D [0x1C] WAIT(30* ticks)
195: 0x0620 [0x52] END_LOAD_SCHEDULER: End scheduler "s110" with entities [LocalPlayer, LocalPlayer], work=447*
196: 0x062F [0x45] LOAD_SCHEDULED_TASK: Load scheduler "s179" with entities [LocalPlayer, LocalPlayer], work=[447*, 0*]
197: 0x0640 [0x66] LOAD_EXT_SCHEDULER_MAIN: Load scheduler "gkr0" with entities [Fari-Wari (ID: 16986782/0x0103329E), Fari-Wari (ID: 16986782/0x0103329E)], work=40*
198: 0x064F [0x5D] SET_MUSIC_VOLUME(volume=0*, fade_time=200*)
199: 0x0654 [0x27] REQ_SET(priority=0x10, entity_id=PAKU03 (ID: 16986815/0x010332BF), tag_num=0x08)
200: 0x065B [0x27] REQ_SET(priority=0x10, entity_id=PAKU02 (ID: 16986814/0x010332BE), tag_num=0x0A)
201: 0x0662 [0xBA] SET_ENTITY_POSITION(entity_id=Wajran (ID: 16986813/0x010332BD), pos_x=68.855*, pos_z=-127.802*, pos_y=-6.499*, direction=0.0°*)
202: 0x066F [0xBA] SET_ENTITY_POSITION(entity_id=PAKU02 (ID: 16986814/0x010332BE), pos_x=67.693*, pos_z=-127.060*, pos_y=-6.499*, direction=0.0°*)
203: 0x067C [0xBA] SET_ENTITY_POSITION(entity_id=PAKU03 (ID: 16986815/0x010332BF), pos_x=67.565*, pos_z=-128.700*, pos_y=-6.499*, direction=0.0°*)
204: 0x0689 [0x2A] GET_REQ_LEVEL(level=16, entity_id=Unnamed NPC (ID: 16986808/0x010332B8))
205: 0x068F [0x6E] LocalPlayer uses emote 20*
206: 0x0696 [0x99] Wait for LocalPlayer animation to complete
207: 0x069B [0x1C] WAIT(60* ticks)
208: 0x069E [0x4E] SET_ENTITY_HIDE_FLAG: Show Shayadar (ID: 16986821/0x010332C5)
209: 0x06A4 [0x52] END_LOAD_SCHEDULER: End scheduler "s179" with entities [LocalPlayer, LocalPlayer], work=447*
210: 0x06B3 [0x45] LOAD_SCHEDULED_TASK: Load scheduler "s111" with entities [LocalPlayer, LocalPlayer], work=[447*, 0*]
211: 0x06C4 [0x5C] MUSIC_CONTROL: Set Idle (Day) music to song 178*
212: 0x06C8 [0x5C] MUSIC_CONTROL: Set Idle (Night) music to song 178*
213: 0x06CC [0x6B] STOP_AND_IDLE: Fari-Wari (ID: 16986782/0x0103329E) stops current action and resets to idle (animation="idl0")
214: 0x06D5 [0x59] UPDATE_ENTITY_DATA: Set Shayadar (ID: 16986821/0x010332C5) main speed = 13* * 0.1
215: 0x06DD [0x27] REQ_SET(priority=0x10, entity_id=Shayadar (ID: 16986821/0x010332C5), tag_num=0x0E)
216: 0x06E4 [0x1C] WAIT(150* ticks)
217: 0x06E7 [0x52] END_LOAD_SCHEDULER: End scheduler "s111" with entities [LocalPlayer, LocalPlayer], work=447*
218: 0x06F6 [0x45] LOAD_SCHEDULED_TASK: Load scheduler "s112" with entities [LocalPlayer, LocalPlayer], work=[447*, 0*]
219: 0x0707 [0x1C] WAIT(200* ticks)
220: 0x070A [0x52] END_LOAD_SCHEDULER: End scheduler "s112" with entities [LocalPlayer, LocalPlayer], work=447*
221: 0x0719 [0x45] LOAD_SCHEDULED_TASK: Load scheduler "s177" with entities [LocalPlayer, LocalPlayer], work=[447*, 0*]
222: 0x072A [0x2B] Shayadar (ID: 16986821/0x010332C5) [8683*]:
    → "<Ahem> Pardon me..."
223: 0x0731 [0x23] WAIT_FOR_DIALOG_INTERACTION
224: 0x0732 [0x1C] WAIT(15* ticks)
225: 0x0735 [0x52] END_LOAD_SCHEDULER: End scheduler "s177" with entities [LocalPlayer, LocalPlayer], work=447*
226: 0x0744 [0x45] LOAD_SCHEDULED_TASK: Load scheduler "s113" with entities [LocalPlayer, LocalPlayer], work=[447*, 0*]
227: 0x0755 [0x4A] Shayadar (ID: 16986821/0x010332C5) looks at Fari-Wari (ID: 16986782/0x0103329E)
228: 0x075E [0x6E] Fari-Wari (ID: 16986782/0x0103329E) uses emote 5*
229: 0x0765 [0x99] Wait for Fari-Wari (ID: 16986782/0x0103329E) animation to complete
230: 0x076A [0x2B] Fari-Wari (ID: 16986782/0x0103329E) [8684*]:
    → "Oh, woe! Is there no one in this boorish world who can appreciate true genius!? Is this how the ballad of Fari-Wari is destined to close? A melancholy coda to a once-glorious career? The tragedy! The horror!"
231: 0x0771 [0x23] WAIT_FOR_DIALOG_INTERACTION
232: 0x0772 [0x6F] WAIT_FRAME_DELAY: Yield until WaitTime reaches zero
233: 0x0773 [0x76] CHECK_ENTITY_RENDER_FLAGS: Wait until Shayadar (ID: 16986821/0x010332C5) Render.Flags0 and Render.Flags3 conditions are met
234: 0x0778 [0x52] END_LOAD_SCHEDULER: End scheduler "s113" with entities [LocalPlayer, LocalPlayer], work=447*
235: 0x0787 [0x45] LOAD_SCHEDULED_TASK: Load scheduler "s180" with entities [LocalPlayer, LocalPlayer], work=[447*, 0*]
236: 0x0798 [0x4A] Fari-Wari (ID: 16986782/0x0103329E) looks at Shayadar (ID: 16986821/0x010332C5)
237: 0x07A1 [0x2B] Shayadar (ID: 16986821/0x010332C5) [8685*]:
    → "Ah, so you're Fari-Wari. Your reputation for bombast precedes you."
238: 0x07A8 [0x23] WAIT_FOR_DIALOG_INTERACTION
239: 0x07A9 [0x1C] WAIT(15* ticks)
240: 0x07AC [0x52] END_LOAD_SCHEDULER: End scheduler "s180" with entities [LocalPlayer, LocalPlayer], work=447*
241: 0x07BB [0x45] LOAD_SCHEDULED_TASK: Load scheduler "s114" with entities [LocalPlayer, LocalPlayer], work=[447*, 0*]
242: 0x07CC [0x4A] Shayadar (ID: 16986821/0x010332C5) looks at LocalPlayer
243: 0x07D5 [0x4A] Unnamed NPC (ID: 16986808/0x010332B8) looks at Shayadar (ID: 16986821/0x010332C5)
244: 0x07DE [0x4A] LocalPlayer looks at Shayadar (ID: 16986821/0x010332C5)
245: 0x07E7 [0x2B] Shayadar (ID: 16986821/0x010332C5) [8686*]:
    → "That would make you <Player>, correct?"
246: 0x07EE [0x23] WAIT_FOR_DIALOG_INTERACTION
247: 0x07EF [0x52] END_LOAD_SCHEDULER: End scheduler "s114" with entities [LocalPlayer, LocalPlayer], work=447*
248: 0x07FE [0x29] REQ_SET_WAIT(priority=0x10, entity_id=LocalPlayer, tag_num=0x37)
249: 0x0805 [0x45] LOAD_SCHEDULED_TASK: Load scheduler "s115" with entities [LocalPlayer, LocalPlayer], work=[447*, 0*]
250: 0x0816 [0x6F] WAIT_FRAME_DELAY: Yield until WaitTime reaches zero
251: 0x0817 [0x76] CHECK_ENTITY_RENDER_FLAGS: Wait until Fari-Wari (ID: 16986782/0x0103329E) Render.Flags0 and Render.Flags3 conditions are met
252: 0x081C [0x79] LocalPlayer looks at Shayadar (ID: 16986821/0x010332C5) (Basic look)
253: 0x0826 [0x6E] Fari-Wari (ID: 16986782/0x0103329E) uses emote 0*
254: 0x082D [0x99] Wait for Fari-Wari (ID: 16986782/0x0103329E) animation to complete
255: 0x0832 [0x2B] Fari-Wari (ID: 16986782/0x0103329E) [8687*]:
    → "Yes, yes...my hapless attendant. Should you have business with us, please direct your inquiries to the management--namely, me."
256: 0x0839 [0x23] WAIT_FOR_DIALOG_INTERACTION
257: 0x083A [0x1C] WAIT(15* ticks)
258: 0x083D [0x52] END_LOAD_SCHEDULER: End scheduler "s115" with entities [LocalPlayer, LocalPlayer], work=447*
259: 0x084C [0x45] LOAD_SCHEDULED_TASK: Load scheduler "s116" with entities [LocalPlayer, LocalPlayer], work=[447*, 0*]
260: 0x085D [0x66] LOAD_EXT_SCHEDULER_MAIN: Load scheduler "tlk0" with entities [Shayadar (ID: 16986821/0x010332C5), Shayadar (ID: 16986821/0x010332C5)], work=9*
261: 0x086C [0x2B] Shayadar (ID: 16986821/0x010332C5) [8688*]:
    → "I see. As a matter of fact, I was hoping to obtain your counsel--"
262: 0x0873 [0x23] WAIT_FOR_DIALOG_INTERACTION
263: 0x0874 [0x5B] LOAD_EXT_SCHEDULER: Load scheduler "hne0" with entities [Fari-Wari (ID: 16986782/0x0103329E), Fari-Wari (ID: 16986782/0x0103329E)], work=1376*
264: 0x0883 [0x52] END_LOAD_SCHEDULER: End scheduler "s116" with entities [LocalPlayer, LocalPlayer], work=447*
265: 0x0892 [0x45] LOAD_SCHEDULED_TASK: Load scheduler "s117" with entities [LocalPlayer, LocalPlayer], work=[447*, 0*]
266: 0x08A3 [0x6B] STOP_AND_IDLE: Shayadar (ID: 16986821/0x010332C5) stops current action and resets to idle (animation="idl0")
267: 0x08AC [0x2B] Fari-Wari (ID: 16986782/0x0103329E) [8689*]:
    → "Denied!"
268: 0x08B3 [0x23] WAIT_FOR_DIALOG_INTERACTION
269: 0x08B4 [0x1C] WAIT(15* ticks)
270: 0x08B7 [0x52] END_LOAD_SCHEDULER: End scheduler "s117" with entities [LocalPlayer, LocalPlayer], work=447*
271: 0x08C6 [0x45] LOAD_SCHEDULED_TASK: Load scheduler "s118" with entities [LocalPlayer, LocalPlayer], work=[447*, 0*]
272: 0x08D7 [0x6E] Fari-Wari (ID: 16986782/0x0103329E) uses emote 34*
273: 0x08DE [0x99] Wait for Fari-Wari (ID: 16986782/0x0103329E) animation to complete
274: 0x08E3 [0x2B] Fari-Wari (ID: 16986782/0x0103329E) [8690*]:
    → "If you could not discern from my dapper attire and most mellifluous voice, I am a bard, you see? I have neither the time nor the inclination to entertain the trifling sob stories of every wastrel in town. If an ear for your bellyaching is all you seek, I suggest you order yourself a chai and chat up the proprietor of this establishment!"
275: 0x08EA [0x23] WAIT_FOR_DIALOG_INTERACTION
276: 0x08EB [0x4A] Shayadar (ID: 16986821/0x010332C5) looks at LocalPlayer
277: 0x08F4 [0x52] END_LOAD_SCHEDULER: End scheduler "s118" with entities [LocalPlayer, LocalPlayer], work=447*
278: 0x0903 [0x45] LOAD_SCHEDULED_TASK: Load scheduler "s162" with entities [LocalPlayer, LocalPlayer], work=[447*, 0*]
279: 0x0914 [0x27] REQ_SET(priority=0x10, entity_id=Unnamed NPC (ID: 16986808/0x010332B8), tag_num=0x08)
280: 0x091B [0x6B] STOP_AND_IDLE: Fari-Wari (ID: 16986782/0x0103329E) stops current action and resets to idle (animation="idl0")
281: 0x0924 [0x66] LOAD_EXT_SCHEDULER_MAIN: Load scheduler "tlk0" with entities [Shayadar (ID: 16986821/0x010332C5), Shayadar (ID: 16986821/0x010332C5)], work=9*
282: 0x0933 [0x1C] WAIT(15* ticks)
283: 0x0936 [0x2B] Shayadar (ID: 16986821/0x010332C5) [8691*]:
    → "As you wish, Master Fari-Wari. I shall find another ear for the matter of General Gadalar."
284: 0x093D [0x23] WAIT_FOR_DIALOG_INTERACTION
285: 0x093E [0x66] LOAD_EXT_SCHEDULER_MAIN: Load scheduler "tlk1" with entities [Shayadar (ID: 16986821/0x010332C5), Shayadar (ID: 16986821/0x010332C5)], work=9*
286: 0x094D [0x52] END_LOAD_SCHEDULER: End scheduler "s162" with entities [LocalPlayer, LocalPlayer], work=447*
287: 0x095C [0x45] LOAD_SCHEDULED_TASK: Load scheduler "s120" with entities [LocalPlayer, LocalPlayer], work=[447*, 0*]
288: 0x096D [0xBA] SET_ENTITY_POSITION(entity_id=Wajran (ID: 16986813/0x010332BD), pos_x=68.855*, pos_z=-127.802*, pos_y=-6.499*, direction=0.0°*)
289: 0x097A [0xBA] SET_ENTITY_POSITION(entity_id=PAKU02 (ID: 16986814/0x010332BE), pos_x=67.693*, pos_z=-127.060*, pos_y=-6.499*, direction=0.0°*)
290: 0x0987 [0xBA] SET_ENTITY_POSITION(entity_id=PAKU03 (ID: 16986815/0x010332BF), pos_x=67.565*, pos_z=-128.700*, pos_y=-6.499*, direction=0.0°*)
291: 0x0994 [0x2C] CREATE_SCHEDULER_TASK: Create scheduler "caso" with entities [Wajran (ID: 16986813/0x010332BD), Wajran (ID: 16986813/0x010332BD)]
292: 0x09A1 [0x2C] CREATE_SCHEDULER_TASK: Create scheduler "caso" with entities [PAKU02 (ID: 16986814/0x010332BE), PAKU02 (ID: 16986814/0x010332BE)]
293: 0x09AE [0x2C] CREATE_SCHEDULER_TASK: Create scheduler "caso" with entities [PAKU03 (ID: 16986815/0x010332BF), PAKU03 (ID: 16986815/0x010332BF)]
294: 0x09BB [0x6E] Fari-Wari (ID: 16986782/0x0103329E) uses emote 38*
295: 0x09C2 [0x99] Wait for Fari-Wari (ID: 16986782/0x0103329E) animation to complete
296: 0x09C7 [0x1C] WAIT(30* ticks)
297: 0x09CA [0x2B] Fari-Wari (ID: 16986782/0x0103329E) [8692*]:
    → "Yes yes, away with you--ah. Begging your pardon, my good man, but did you say General Gadalar? You speak of the Flameserpent General?"
298: 0x09D1 [0x23] WAIT_FOR_DIALOG_INTERACTION
299: 0x09D2 [0x79] Shayadar (ID: 16986821/0x010332C5) looks at Fari-Wari (ID: 16986782/0x0103329E) (Basic look)
300: 0x09DC [0x4A] Shayadar (ID: 16986821/0x010332C5) looks at Fari-Wari (ID: 16986782/0x0103329E)
301: 0x09E5 [0x6F] WAIT_FRAME_DELAY: Yield until WaitTime reaches zero
302: 0x09E6 [0x76] CHECK_ENTITY_RENDER_FLAGS: Wait until Shayadar (ID: 16986821/0x010332C5) Render.Flags0 and Render.Flags3 conditions are met
303: 0x09EB [0x52] END_LOAD_SCHEDULER: End scheduler "s120" with entities [LocalPlayer, LocalPlayer], work=447*
304: 0x09FA [0x45] LOAD_SCHEDULED_TASK: Load scheduler "s121" with entities [LocalPlayer, LocalPlayer], work=[447*, 0*]
305: 0x0A0B [0x27] REQ_SET(priority=0x10, entity_id=Unnamed NPC (ID: 16986820/0x010332C4), tag_num=0x03)
306: 0x0A12 [0x66] LOAD_EXT_SCHEDULER_MAIN: Load scheduler "thk1" with entities [Shayadar (ID: 16986821/0x010332C5), Shayadar (ID: 16986821/0x010332C5)], work=9*
307: 0x0A21 [0x2B] Shayadar (ID: 16986821/0x010332C5) [8693*]:
    → "The very same. As you might know, General Gadalar is...how shall I put it? A tad...impulsive? Volatile, if you will?"
308: 0x0A28 [0x23] WAIT_FOR_DIALOG_INTERACTION
309: 0x0A29 [0x1C] WAIT(15* ticks)
310: 0x0A2C [0x52] END_LOAD_SCHEDULER: End scheduler "s121" with entities [LocalPlayer, LocalPlayer], work=447*
311: 0x0A3B [0x45] LOAD_SCHEDULED_TASK: Load scheduler "s122" with entities [LocalPlayer, LocalPlayer], work=[447*, 0*]
312: 0x0A4C [0x6E] Fari-Wari (ID: 16986782/0x0103329E) uses emote 25*
313: 0x0A53 [0x99] Wait for Fari-Wari (ID: 16986782/0x0103329E) animation to complete
314: 0x0A58 [0x1C] WAIT(15* ticks)
315: 0x0A5B [0x2B] Fari-Wari (ID: 16986782/0x0103329E) [8694*]:
    → "No explanation needed, my friend! I'm still smoldering from the time he unleashed a Firaga spell on my delicate derriere...the rogue!"
316: 0x0A62 [0x23] WAIT_FOR_DIALOG_INTERACTION
317: 0x0A63 [0x1C] WAIT(30* ticks)
318: 0x0A66 [0x5D] SET_MUSIC_VOLUME(volume=0*, fade_time=200*)
319: 0x0A6B [0x45] LOAD_SCHEDULED_TASK: Load scheduler "fdo2" with entities [LocalPlayer, LocalPlayer], work=[200*, 0*]
320: 0x0A7C [0x55] WAIT_LOAD_SCHEDULER: Wait for scheduler "fdo2" with entities [LocalPlayer, LocalPlayer], work=200*
321: 0x0A8B [0x52] END_LOAD_SCHEDULER: End scheduler "s122" with entities [LocalPlayer, LocalPlayer], work=447*
322: 0x0A9A [0x1C] WAIT(15* ticks)
323: 0x0A9D [0x34] LOAD_UNLOAD_ZONE(zone_id=48*)
324: 0x0AA0 [0x77] SET_EVENT_TIME_WEATHER(hour=17*, weather=1*)
325: 0x0AA5 [0xAB] EventEntity->UnknownFlag = 1 // Enable unknown flag
326: 0x0AA7 [0x1C] WAIT(30* ticks)
327: 0x0AAA [0x1C] WAIT(10* ticks)
328: 0x0AAD [0x4E] SET_ENTITY_HIDE_FLAG: Show Gadalar (ID: 16986812/0x010332BC)
329: 0x0AB3 [0xBA] SET_ENTITY_POSITION(entity_id=Gadalar (ID: 16986812/0x010332BC), pos_x=-105.979*, pos_z=39.692*, pos_y=-6.000*, direction=303.1°*)
330: 0x0AC0 [0xBA] SET_ENTITY_POSITION(entity_id=Fari-Wari (ID: 16986782/0x0103329E), pos_x=-106.316*, pos_z=36.933*, pos_y=-6.000*, direction=281.0°*)
331: 0x0ACD [0x80] LOAD_WAIT(entity=Gadalar (ID: 16986812/0x010332BC))
332: 0x0AD2 [0x80] LOAD_WAIT(entity=Fari-Wari (ID: 16986782/0x0103329E))
333: 0x0AD7 [0x2F] Gadalar (ID: 16986812/0x010332BC)->Render.Flags0 &= ~0x80000 // Bit 19
334: 0x0ADD [0x2F] Fari-Wari (ID: 16986782/0x0103329E)->Render.Flags0 &= ~0x80000 // Bit 19
335: 0x0AE3 [0x92] Gadalar (ID: 16986812/0x010332BC)->Render.Flags3 ^= 0x01
336: 0x0AE9 [0x4E] SET_ENTITY_HIDE_FLAG: Hide FAN3 (ID: 16986816/0x010332C0)
337: 0x0AEF [0x4E] SET_ENTITY_HIDE_FLAG: Hide FAN4 (ID: 16986817/0x010332C1)
338: 0x0AF5 [0x4E] SET_ENTITY_HIDE_FLAG: Hide FAN7 (ID: 16986818/0x010332C2)
339: 0x0AFB [0x4E] SET_ENTITY_HIDE_FLAG: Hide FAN8 (ID: 16986819/0x010332C3)
340: 0x0B01 [0x4E] SET_ENTITY_HIDE_FLAG: Hide Shayadar (ID: 16986821/0x010332C5)
341: 0x0B07 [0x4E] SET_ENTITY_HIDE_FLAG: Hide Ratihb (ID: 16986810/0x010332BA)
342: 0x0B0D [0x4E] SET_ENTITY_HIDE_FLAG: Hide Unnamed NPC (ID: 16986722/0x01033262)
343: 0x0B13 [0x4E] SET_ENTITY_HIDE_FLAG: Hide Unnamed NPC (ID: 16986723/0x01033263)
344: 0x0B19 [0x4E] SET_ENTITY_HIDE_FLAG: Hide Zubyahn (ID: 16986804/0x010332B4)
345: 0x0B1F [0x4E] SET_ENTITY_HIDE_FLAG: Hide Halbeeya (ID: 16986803/0x010332B3)
346: 0x0B25 [0x4E] SET_ENTITY_HIDE_FLAG: Hide Wajran (ID: 16986813/0x010332BD)
347: 0x0B2B [0x4E] SET_ENTITY_HIDE_FLAG: Hide PAKU02 (ID: 16986814/0x010332BE)
348: 0x0B31 [0x4E] SET_ENTITY_HIDE_FLAG: Hide PAKU03 (ID: 16986815/0x010332BF)
349: 0x0B37 [0x4A] Gadalar (ID: 16986812/0x010332BC) looks at Fari-Wari (ID: 16986782/0x0103329E)
350: 0x0B40 [0x4A] Fari-Wari (ID: 16986782/0x0103329E) looks at Gadalar (ID: 16986812/0x010332BC)
351: 0x0B49 [0x6F] WAIT_FRAME_DELAY: Yield until WaitTime reaches zero
352: 0x0B4A [0x76] CHECK_ENTITY_RENDER_FLAGS: Wait until Gadalar (ID: 16986812/0x010332BC) Render.Flags0 and Render.Flags3 conditions are met
353: 0x0B4F [0x6F] WAIT_FRAME_DELAY: Yield until WaitTime reaches zero
354: 0x0B50 [0x76] CHECK_ENTITY_RENDER_FLAGS: Wait until Fari-Wari (ID: 16986782/0x0103329E) Render.Flags0 and Render.Flags3 conditions are met
355: 0x0B55 [0x79] Fari-Wari (ID: 16986782/0x0103329E) looks at Gadalar (ID: 16986812/0x010332BC) (Basic look)
356: 0x0B5F [0x1C] WAIT(30* ticks)
357: 0x0B62 [0x45] LOAD_SCHEDULED_TASK: Load scheduler "s157" with entities [LocalPlayer, LocalPlayer], work=[447*, 0*]
358: 0x0B73 [0x45] LOAD_SCHEDULED_TASK: Load scheduler "efon" with entities [LocalPlayer, LocalPlayer], work=[215*, 0*]
359: 0x0B84 [0x55] WAIT_LOAD_SCHEDULER: Wait for scheduler "efon" with entities [LocalPlayer, LocalPlayer], work=215*
360: 0x0B93 [0x5C] MUSIC_CONTROL: Set Idle (Day) music to song 142*
361: 0x0B97 [0x5C] MUSIC_CONTROL: Set Idle (Night) music to song 142*
362: 0x0B9B [0x9A] WAIT_MUSIC_SERVER()
363: 0x0B9C [0x1C] WAIT(170* ticks)
364: 0x0B9F [0x52] END_LOAD_SCHEDULER: End scheduler "s157" with entities [LocalPlayer, LocalPlayer], work=447*
365: 0x0BAE [0x45] LOAD_SCHEDULED_TASK: Load scheduler "s169" with entities [LocalPlayer, LocalPlayer], work=[447*, 0*]
366: 0x0BBF [0x1C] WAIT(15* ticks)
367: 0x0BC2 [0x66] LOAD_EXT_SCHEDULER_MAIN: Load scheduler "tlk0" with entities [Fari-Wari (ID: 16986782/0x0103329E), Fari-Wari (ID: 16986782/0x0103329E)], work=49*
368: 0x0BD1 [0x1C] WAIT(120* ticks)
369: 0x0BD4 [0x66] LOAD_EXT_SCHEDULER_MAIN: Load scheduler "tlk1" with entities [Fari-Wari (ID: 16986782/0x0103329E), Fari-Wari (ID: 16986782/0x0103329E)], work=49*
370: 0x0BE3 [0x53] WAIT_SCHEDULER_TASK: Wait for scheduler "tlk1" with entities [Fari-Wari (ID: 16986782/0x0103329E), Fari-Wari (ID: 16986782/0x0103329E)]
371: 0x0BF0 [0x1C] WAIT(30* ticks)
372: 0x0BF3 [0x52] END_LOAD_SCHEDULER: End scheduler "s169" with entities [LocalPlayer, LocalPlayer], work=447*
373: 0x0C02 [0x45] LOAD_SCHEDULED_TASK: Load scheduler "s170" with entities [LocalPlayer, LocalPlayer], work=[447*, 0*]
374: 0x0C13 [0x1C] WAIT(160* ticks)
375: 0x0C16 [0x52] END_LOAD_SCHEDULER: End scheduler "s170" with entities [LocalPlayer, LocalPlayer], work=447*
376: 0x0C25 [0x45] LOAD_SCHEDULED_TASK: Load scheduler "s173" with entities [LocalPlayer, LocalPlayer], work=[447*, 0*]
377: 0x0C36 [0x6E] Fari-Wari (ID: 16986782/0x0103329E) uses emote 29*
378: 0x0C3D [0x99] Wait for Fari-Wari (ID: 16986782/0x0103329E) animation to complete
379: 0x0C42 [0x1C] WAIT(130* ticks)
380: 0x0C45 [0x52] END_LOAD_SCHEDULER: End scheduler "s173" with entities [LocalPlayer, LocalPlayer], work=447*
381: 0x0C54 [0x45] LOAD_SCHEDULED_TASK: Load scheduler "s174" with entities [LocalPlayer, LocalPlayer], work=[447*, 0*]
382: 0x0C65 [0x2C] CREATE_SCHEDULER_TASK: Create scheduler "cabk" with entities [Gadalar (ID: 16986812/0x010332BC), Gadalar (ID: 16986812/0x010332BC)]
383: 0x0C72 [0x1C] WAIT(120* ticks)
384: 0x0C75 [0x52] END_LOAD_SCHEDULER: End scheduler "s174" with entities [LocalPlayer, LocalPlayer], work=447*
385: 0x0C84 [0x45] LOAD_SCHEDULED_TASK: Load scheduler "s175" with entities [LocalPlayer, LocalPlayer], work=[447*, 0*]
386: 0x0C95 [0x6E] Fari-Wari (ID: 16986782/0x0103329E) uses emote 38*
387: 0x0C9C [0x99] Wait for Fari-Wari (ID: 16986782/0x0103329E) animation to complete
388: 0x0CA1 [0x1C] WAIT(70* ticks)
389: 0x0CA4 [0x52] END_LOAD_SCHEDULER: End scheduler "s175" with entities [LocalPlayer, LocalPlayer], work=447*
390: 0x0CB3 [0x45] LOAD_SCHEDULED_TASK: Load scheduler "s158" with entities [LocalPlayer, LocalPlayer], work=[447*, 0*]
391: 0x0CC4 [0x7B] Fari-Wari (ID: 16986782/0x0103329E) stops talking
392: 0x0CC9 [0x2C] CREATE_SCHEDULER_TASK: Create scheduler "shbk" with entities [Gadalar (ID: 16986812/0x010332BC), Gadalar (ID: 16986812/0x010332BC)]
393: 0x0CD6 [0x73] Fari-Wari (ID: 16986782/0x0103329E) casts magic 176* on Fari-Wari (ID: 16986782/0x0103329E)
394: 0x0CE1 [0x1C] WAIT(45* ticks)
395: 0x0CE4 [0x52] END_LOAD_SCHEDULER: End scheduler "s158" with entities [LocalPlayer, LocalPlayer], work=447*
396: 0x0CF3 [0x45] LOAD_SCHEDULED_TASK: Load scheduler "s166" with entities [LocalPlayer, LocalPlayer], work=[447*, 0*]
397: 0x0D04 [0x27] REQ_SET(priority=0x10, entity_id=Fari-Wari (ID: 16986782/0x0103329E), tag_num=0x16)
398: 0x0D0B [0x1C] WAIT(70* ticks)
399: 0x0D0E [0x52] END_LOAD_SCHEDULER: End scheduler "s166" with entities [LocalPlayer, LocalPlayer], work=447*
400: 0x0D1D [0x45] LOAD_SCHEDULED_TASK: Load scheduler "s165" with entities [LocalPlayer, LocalPlayer], work=[447*, 0*]
401: 0x0D2E [0x1C] WAIT(100* ticks)
402: 0x0D31 [0x52] END_LOAD_SCHEDULER: End scheduler "s165" with entities [LocalPlayer, LocalPlayer], work=447*
403: 0x0D40 [0x45] LOAD_SCHEDULED_TASK: Load scheduler "s159" with entities [LocalPlayer, LocalPlayer], work=[447*, 0*]
404: 0x0D51 [0x2C] CREATE_SCHEDULER_TASK: Create scheduler "dead" with entities [Fari-Wari (ID: 16986782/0x0103329E), Fari-Wari (ID: 16986782/0x0103329E)]
405: 0x0D5E [0x1C] WAIT(230* ticks)
406: 0x0D61 [0x5D] SET_MUSIC_VOLUME(volume=0*, fade_time=200*)
407: 0x0D66 [0x45] LOAD_SCHEDULED_TASK: Load scheduler "fdo2" with entities [LocalPlayer, LocalPlayer], work=[200*, 0*]
408: 0x0D77 [0x55] WAIT_LOAD_SCHEDULER: Wait for scheduler "fdo2" with entities [LocalPlayer, LocalPlayer], work=200*
409: 0x0D86 [0x52] END_LOAD_SCHEDULER: End scheduler "efon" with entities [LocalPlayer, LocalPlayer], work=215*
410: 0x0D95 [0x52] END_LOAD_SCHEDULER: End scheduler "s159" with entities [LocalPlayer, LocalPlayer], work=447*
411: 0x0DA4 [0x1C] WAIT(15* ticks)
412: 0x0DA7 [0xAB] EventEntity->DespawnValue = 0* // Set despawn value
413: 0x0DAB [0x1C] WAIT(1* ticks)
414: 0x0DAE [0x35] LOAD_ZONE_NO_CLOSE(zone_id=51*)
415: 0x0DB1 [0x78] ENABLE_GAME_TIMER_RESET_WEATHER()
416: 0x0DB2 [0x1C] WAIT(15* ticks)
417: 0x0DB5 [0xAB] EventEntity->UnknownFlag = 0 // Disable unknown flag
418: 0x0DB7 [0x02] IF !(ExtData[1]->WorkLocal[0] == 0*) GOTO 0x0DC2
419: 0x0DBF [0x30] SET_UCOFF_CONTINUE_ZERO()
420: 0x0DC0 [0x21] END_EVENT
421: 0x0DC1 [0x00] END_REQSTACK()
422: 0x0DC2 [0x5C] MUSIC_CONTROL: Set Idle (Day) music to song 149*
423: 0x0DC6 [0x5C] MUSIC_CONTROL: Set Idle (Night) music to song 149*
424: 0x0DCA [0x9A] WAIT_MUSIC_SERVER()
425: 0x0DCB [0x46] CAMERA_CONTROL: Restore default settings
426: 0x0DCD [0x45] LOAD_SCHEDULED_TASK: Load scheduler "fdi2" with entities [LocalPlayer, LocalPlayer], work=[200*, 0*]
427: 0x0DDE [0x21] END_EVENT
428: 0x0DDF [0x00] END_REQSTACK()
```

### Event 17

#### Metadata

| Field        | Value      |
|--------------|------------|
| Entrypoint   | 0x0DE0     |
| Data Size    | 3748 bytes |
| Instructions | 445        |

```
      00 01 02 03 04 05 06 07  08 09 0A 0B 0C 0D 0E 0F
      -- -- -- -- -- -- -- --  -- -- -- -- -- -- -- --
0DE0: 42 43 00 43 01 03 00 00  09 10 45 00 80 F8 FF FF  BC.C......E.....
0DF0: 7F F8 FF FF 7F 66 64 6F  31 01 80 55 00 80 F8 FF  .....fdo1..U....
0E00: FF 7F F8 FF FF 7F 66 64  6F 31 46 01 38 02 80 4E  ......fdo1F.8..N
0E10: 00 F0 FF FF 7F 34 03 80  77 04 80 05 80 1C 05 80  .....4..w.......
0E20: AB 09 75 00 06 80 75 01  4E 00 B4 32 03 01 4E 00  ..u...u.N..2..N.
0E30: B3 32 03 01 4E 00 62 32  03 01 4E 00 63 32 03 01  .2..N.b2..N.c2..
0E40: 4E 00 BA 32 03 01 4E 00  C5 32 03 01 4E 00 B8 32  N..2..N..2..N..2
0E50: 03 01 4E 00 9E 32 03 01  4E 00 BD 32 03 01 4E 00  ..N..2..N..2..N.
0E60: BE 32 03 01 4E 00 BF 32  03 01 4E 00 C2 32 03 01  .2..N..2..N..2..
0E70: 4E 00 C3 32 03 01 4E 00  C0 32 03 01 4E 00 C1 32  N..2..N..2..N..2
0E80: 03 01 4E 00 C4 32 03 01  29 10 B8 32 03 01 05 94  ..N..2..)..2....
0E90: 01 B8 32 03 01 94 01 9E  32 03 01 94 01 BD 32 03  ..2.....2.....2.
0EA0: 01 94 01 BE 32 03 01 94  01 BF 32 03 01 94 01 C5  ....2.....2.....
0EB0: 32 03 01 94 01 C2 32 03  01 94 01 C3 32 03 01 94  2.....2.....2...
0EC0: 01 C0 32 03 01 94 01 C1  32 03 01 92 01 9E 32 03  ..2.....2.....2.
0ED0: 01 92 01 BD 32 03 01 92  01 BE 32 03 01 92 01 BF  ....2.....2.....
0EE0: 32 03 01 92 01 C5 32 03  01 92 01 C2 32 03 01 92  2.....2.....2...
0EF0: 01 C3 32 03 01 92 01 C0  32 03 01 92 01 C1 32 03  ..2.....2.....2.
0F00: 01 92 01 9E 32 03 01 92  01 C5 32 03 01 92 01 B4  ....2.....2.....
0F10: 32 03 01 92 01 B3 32 03  01 92 01 62 32 03 01 92  2.....2....b2...
0F20: 01 63 32 03 01 92 01 BA  32 03 01 BA B8 32 03 01  .c2.....2....2..
0F30: 74 80 75 80 09 80 76 80  BA F0 FF FF 7F 74 80 75  t.u...v......t.u
0F40: 80 09 80 76 80 BA 9E 32  03 01 0E 80 0F 80 09 80  ...v...2........
0F50: 10 80 BA C5 32 03 01 77  80 78 80 09 80 0A 80 BA  ....2..w.x......
0F60: BA 32 03 01 79 80 7A 80  09 80 7B 80 BA 62 32 03  .2..y.z...{..b2.
0F70: 01 7C 80 7D 80 09 80 7E  80 BA 63 32 03 01 7F 80  .|.}...~..c2....
0F80: 80 80 09 80 81 80 BA B4  32 03 01 82 80 83 80 09  ........2.......
0F90: 80 84 80 BA B3 32 03 01  85 80 86 80 09 80 87 80  .....2..........
0FA0: BA BD 32 03 01 14 80 15  80 16 80 01 80 BA BE 32  ..2............2
0FB0: 03 01 17 80 18 80 16 80  01 80 BA BF 32 03 01 19  ............2...
0FC0: 80 1A 80 16 80 01 80 BA  C2 32 03 01 1B 80 1C 80  .........2......
0FD0: 09 80 1D 80 BA C3 32 03  01 1E 80 1F 80 09 80 20  ......2........ 
0FE0: 80 BA C0 32 03 01 21 80  22 80 09 80 23 80 BA C1  ...2..!."...#...
0FF0: 32 03 01 24 80 25 80 09  80 26 80 80 9E 32 03 01  2..$.%...&...2..
1000: 80 BD 32 03 01 80 BE 32  03 01 80 BF 32 03 01 80  ..2....2....2...
1010: C5 32 03 01 80 C2 32 03  01 80 C3 32 03 01 80 C0  .2....2....2....
1020: 32 03 01 80 C1 32 03 01  80 9E 32 03 01 80 C5 32  2....2....2....2
1030: 03 01 80 B4 32 03 01 80  B3 32 03 01 80 62 32 03  ....2....2...b2.
1040: 01 80 63 32 03 01 80 BA  32 03 01 1C 2B 80 4A F0  ..c2....2...+.J.
1050: FF FF 7F C5 32 03 01 4A  9E 32 03 01 C5 32 03 01  ....2..J.2...2..
1060: 4A C5 32 03 01 9E 32 03  01 5C 00 4E 80 5C 01 4E  J.2...2..\.N.\.N
1070: 80 9A 45 28 80 F0 FF FF  7F F0 FF FF 7F 73 31 36  ..E(.........s16
1080: 30 01 80 45 00 80 F0 FF  FF 7F F0 FF FF 7F 66 64  0..E..........fd
1090: 69 32 01 80 55 00 80 F0  FF FF 7F F0 FF FF 7F 66  i2..U..........f
10A0: 64 69 32 1C 2B 80 6E 9E  32 03 01 02 80 99 9E 32  di2.+.n.2......2
10B0: 03 01 7B C5 32 03 01 1C  3A 80 52 28 80 F0 FF FF  ..{.2...:.R(....
10C0: 7F F0 FF FF 7F 73 31 36  30 45 28 80 F0 FF FF 7F  .....s160E(.....
10D0: F0 FF FF 7F 73 31 32 33  01 80 2B C5 32 03 01 88  ....s123..+.2...
10E0: 80 23 66 55 80 C5 32 03  01 C5 32 03 01 74 68 6B  .#fU..2...2..thk
10F0: 31 2B C5 32 03 01 89 80  23 52 28 80 F0 FF FF 7F  1+.2....#R(.....
1100: F0 FF FF 7F 73 31 32 33  45 28 80 F0 FF FF 7F F0  ....s123E(......
1110: FF FF 7F 73 31 32 34 01  80 66 55 80 C5 32 03 01  ...s124..fU..2..
1120: C5 32 03 01 74 68 6B 32  2B C5 32 03 01 8A 80 23  .2..thk2+.2....#
1130: 52 28 80 F0 FF FF 7F F0  FF FF 7F 73 31 32 34 45  R(.........s124E
1140: 28 80 F0 FF FF 7F F0 FF  FF 7F 73 31 32 36 01 80  (.........s126..
1150: 6E 9E 32 03 01 8B 80 99  9E 32 03 01 1C 2B 80 2B  n.2......2...+.+
1160: 9E 32 03 01 8C 80 23 52  28 80 F0 FF FF 7F F0 FF  .2....#R(.......
1170: FF 7F 73 31 32 36 45 28  80 F0 FF FF 7F F0 FF FF  ..s126E(........
1180: 7F 73 31 32 37 01 80 79  00 C5 32 03 01 9E 32 03  .s127..y..2...2.
1190: 01 6E C5 32 03 01 8D 80  99 C5 32 03 01 2B C5 32  .n.2......2..+.2
11A0: 03 01 8E 80 23 2B C5 32  03 01 8F 80 23 52 28 80  ....#+.2....#R(.
11B0: F0 FF FF 7F F0 FF FF 7F  73 31 32 37 45 28 80 F0  ........s127E(..
11C0: FF FF 7F F0 FF FF 7F 73  31 32 39 01 80 66 30 80  .......s129..f0.
11D0: 9E 32 03 01 9E 32 03 01  74 68 6B 31 2C BF 32 03  .2...2..thk1,.2.
11E0: 01 BF 32 03 01 63 61 73  6F 27 10 C4 32 03 01 04  ..2..caso'..2...
11F0: 2B 9E 32 03 01 90 80 23  6E C5 32 03 01 91 80 99  +.2....#n.2.....
1200: C5 32 03 01 1C 2B 80 52  28 80 F0 FF FF 7F F0 FF  .2...+.R(.......
1210: FF 7F 73 31 32 39 45 28  80 F0 FF FF 7F F0 FF FF  ..s129E(........
1220: 7F 73 31 33 30 01 80 1C  4A 80 2B C5 32 03 01 92  .s130...J.+.2...
1230: 80 23 66 30 80 9E 32 03  01 9E 32 03 01 74 68 6B  .#f0..2...2..thk
1240: 32 66 55 80 C5 32 03 01  C5 32 03 01 74 6C 6B 30  2fU..2...2..tlk0
1250: 2B C5 32 03 01 93 80 23  66 55 80 C5 32 03 01 C5  +.2....#fU..2...
1260: 32 03 01 74 6C 6B 31 52  28 80 F0 FF FF 7F F0 FF  2..tlk1R(.......
1270: FF 7F 73 31 33 30 45 28  80 F0 FF FF 7F F0 FF FF  ..s130E(........
1280: 7F 73 31 33 32 01 80 2C  BF 32 03 01 BF 32 03 01  .s132..,.2...2..
1290: 73 68 73 6F 27 10 9E 32  03 01 1E 2B 9E 32 03 01  shso'..2...+.2..
12A0: 94 80 23 1C 3B 80 52 28  80 F0 FF FF 7F F0 FF FF  ..#.;.R(........
12B0: 7F 73 31 33 32 45 28 80  F0 FF FF 7F F0 FF FF 7F  .s132E(.........
12C0: 73 31 33 33 01 80 6E C5  32 03 01 8D 80 99 C5 32  s133..n.2......2
12D0: 03 01 6B 69 64 6C 30 9E  32 03 01 2B C5 32 03 01  ..kidl0.2..+.2..
12E0: 95 80 23 1C 2B 80 52 28  80 F0 FF FF 7F F0 FF FF  ..#.+.R(........
12F0: 7F 73 31 33 33 45 28 80  F0 FF FF 7F F0 FF FF 7F  .s133E(.........
1300: 74 6F 68 6F 01 80 79 00  C5 32 03 01 9E 32 03 01  toho..y..2...2..
1310: 1C 2B 80 5D 01 80 00 80  2B C5 32 03 01 96 80 23  .+.]....+.2....#
1320: 1C 2B 80 52 28 80 F0 FF  FF 7F F0 FF FF 7F 74 6F  .+.R(.........to
1330: 68 6F 45 28 80 F0 FF FF  7F F0 FF FF 7F 73 31 33  hoE(.........s13
1340: 34 01 80 1C 2B 80 66 2D  80 9E 32 03 01 9E 32 03  4...+.f-..2...2.
1350: 01 74 68 6B 31 2B 9E 32  03 01 97 80 23 66 2D 80  .thk1+.2....#f-.
1360: 9E 32 03 01 9E 32 03 01  74 68 6B 32 52 28 80 F0  .2...2..thk2R(..
1370: FF FF 7F F0 FF FF 7F 73  31 33 34 45 28 80 F0 FF  .......s134E(...
1380: FF 7F F0 FF FF 7F 73 31  33 35 01 80 5C 00 98 80  ......s135..\...
1390: 5C 01 98 80 66 55 80 C5  32 03 01 C5 32 03 01 74  \...fU..2...2..t
13A0: 6C 6B 30 2C BD 32 03 01  BE 32 03 01 73 68 73 6F  lk0,.2...2..shso
13B0: 2C BE 32 03 01 BE 32 03  01 73 68 73 6F 2C BF 32  ,.2...2..shso,.2
13C0: 03 01 BF 32 03 01 73 68  73 6F 27 10 C4 32 03 01  ...2..shso'..2..
13D0: 03 2B C5 32 03 01 99 80  23 52 28 80 F0 FF FF 7F  .+.2....#R(.....
13E0: F0 FF FF 7F 73 31 33 35  45 28 80 F0 FF FF 7F F0  ....s135E(......
13F0: FF FF 7F 73 31 33 36 01  80 2B C5 32 03 01 9A 80  ...s136..+.2....
1400: 23 2B C5 32 03 01 9B 80  23 66 55 80 C5 32 03 01  #+.2....#fU..2..
1410: C5 32 03 01 74 6C 6B 31  52 28 80 F0 FF FF 7F F0  .2..tlk1R(......
1420: FF FF 7F 73 31 33 36 45  28 80 F0 FF FF 7F F0 FF  ...s136E(.......
1430: FF 7F 74 6B 30 32 01 80  6E 9E 32 03 01 91 80 99  ..tk02..n.2.....
1440: 9E 32 03 01 2B 9E 32 03  01 9C 80 23 2B 9E 32 03  .2..+.2....#+.2.
1450: 01 9D 80 23 27 10 C4 32  03 01 06 52 28 80 F0 FF  ...#'..2...R(...
1460: FF 7F F0 FF FF 7F 74 6B  30 32 45 28 80 F0 FF FF  ......tk02E(....
1470: 7F F0 FF FF 7F 73 31 33  39 01 80 6E C5 32 03 01  .....s139..n.2..
1480: 9E 80 99 C5 32 03 01 2B  C5 32 03 01 9F 80 23 2C  ....2..+.2....#,
1490: BD 32 03 01 BD 32 03 01  63 61 73 6F 2C BE 32 03  .2...2..caso,.2.
14A0: 01 BE 32 03 01 63 61 73  6F 2C BF 32 03 01 BF 32  ..2..caso,.2...2
14B0: 03 01 63 61 73 6F 2B C5  32 03 01 A0 80 23 52 28  ..caso+.2....#R(
14C0: 80 F0 FF FF 7F F0 FF FF  7F 73 31 33 39 45 28 80  .........s139E(.
14D0: F0 FF FF 7F F0 FF FF 7F  73 31 34 32 01 80 27 10  ........s142..'.
14E0: C4 32 03 01 04 79 00 C5  32 03 01 9E 32 03 01 2B  .2...y..2...2..+
14F0: C5 32 03 01 A1 80 23 52  28 80 F0 FF FF 7F F0 FF  .2....#R(.......
1500: FF 7F 73 31 34 32 45 28  80 F0 FF FF 7F F0 FF FF  ..s142E(........
1510: 7F 67 75 74 73 01 80 6E  C5 32 03 01 A2 80 99 C5  .guts..n.2......
1520: 32 03 01 2B C5 32 03 01  A3 80 23 1C 2B 80 52 28  2..+.2....#.+.R(
1530: 80 F0 FF FF 7F F0 FF FF  7F 67 75 74 73 45 28 80  .........gutsE(.
1540: F0 FF FF 7F F0 FF FF 7F  74 6B 30 33 01 80 6E 9E  ........tk03..n.
1550: 32 03 01 4C 80 99 9E 32  03 01 2B 9E 32 03 01 A4  2..L...2..+.2...
1560: 80 23 79 00 C5 32 03 01  F0 FF FF 7F 52 28 80 F0  .#y..2......R(..
1570: FF FF 7F F0 FF FF 7F 74  6B 30 33 29 10 F0 FF FF  .......tk03)....
1580: 7F 25 02 02 10 05 80 80  AD 15 52 28 80 F0 FF FF  .%........R(....
1590: 7F F0 FF FF 7F 73 31 34  32 45 28 80 F0 FF FF 7F  .....s142E(.....
15A0: F0 FF FF 7F 77 68 6D 32  01 80 01 DA 16 02 02 10  ....whm2........
15B0: A5 80 80 D8 15 52 28 80  F0 FF FF 7F F0 FF FF 7F  .....R(.........
15C0: 73 31 34 32 45 28 80 F0  FF FF 7F F0 FF FF 7F 77  s142E(.........w
15D0: 68 6D 32 01 80 01 DA 16  02 02 10 A6 80 80 03 16  hm2.............
15E0: 52 28 80 F0 FF FF 7F F0  FF FF 7F 73 31 34 32 45  R(.........s142E
15F0: 28 80 F0 FF FF 7F F0 FF  FF 7F 77 65 6D 32 01 80  (.........wem2..
1600: 01 DA 16 02 02 10 8B 80  80 2E 16 52 28 80 F0 FF  ...........R(...
1610: FF 7F F0 FF FF 7F 73 31  34 32 45 28 80 F0 FF FF  ......s142E(....
1620: 7F F0 FF FF 7F 77 65 6D  32 01 80 01 DA 16 02 02  .....wem2.......
1630: 10 50 80 80 59 16 52 28  80 F0 FF FF 7F F0 FF FF  .P..Y.R(........
1640: 7F 73 31 34 32 45 28 80  F0 FF FF 7F F0 FF FF 7F  .s142E(.........
1650: 77 74 72 32 01 80 01 DA  16 02 02 10 8D 80 80 84  wtr2............
1660: 16 52 28 80 F0 FF FF 7F  F0 FF FF 7F 73 31 34 32  .R(.........s142
1670: 45 28 80 F0 FF FF 7F F0  FF FF 7F 77 74 72 32 01  E(.........wtr2.
1680: 80 01 DA 16 02 02 10 91  80 80 AF 16 52 28 80 F0  ............R(..
1690: FF FF 7F F0 FF FF 7F 73  31 34 32 45 28 80 F0 FF  .......s142E(...
16A0: FF 7F F0 FF FF 7F 77 6D  74 32 01 80 01 DA 16 02  ......wmt2......
16B0: 02 10 3C 80 80 DA 16 52  28 80 F0 FF FF 7F F0 FF  ..<....R(.......
16C0: FF 7F 73 31 34 32 45 28  80 F0 FF FF 7F F0 FF FF  ..s142E(........
16D0: 7F 77 67 6C 32 01 80 01  DA 16 66 55 80 C5 32 03  .wgl2.....fU..2.
16E0: 01 C5 32 03 01 74 6C 6B  30 2B C5 32 03 01 A7 80  ..2..tlk0+.2....
16F0: 23 52 28 80 F0 FF FF 7F  F0 FF FF 7F 77 68 6D 32  #R(.........whm2
1700: 52 28 80 F0 FF FF 7F F0  FF FF 7F 77 68 6D 32 52  R(.........whm2R
1710: 28 80 F0 FF FF 7F F0 FF  FF 7F 77 65 6D 32 52 28  (.........wem2R(
1720: 80 F0 FF FF 7F F0 FF FF  7F 77 65 6D 32 52 28 80  .........wem2R(.
1730: F0 FF FF 7F F0 FF FF 7F  77 74 72 32 52 28 80 F0  ........wtr2R(..
1740: FF FF 7F F0 FF FF 7F 77  6D 74 32 52 28 80 F0 FF  .......wmt2R(...
1750: FF 7F F0 FF FF 7F 77 67  6C 32 45 28 80 F0 FF FF  ......wgl2E(....
1760: 7F F0 FF FF 7F 73 31 34  34 01 80 79 00 C5 32 03  .....s144..y..2.
1770: 01 9E 32 03 01 66 30 80  9E 32 03 01 9E 32 03 01  ..2..f0..2...2..
1780: 74 68 6B 31 2B C5 32 03  01 A8 80 23 66 55 80 C5  thk1+.2....#fU..
1790: 32 03 01 C5 32 03 01 74  6C 6B 31 5D 01 80 36 80  2...2..tlk1]..6.
17A0: 1C 27 80 52 28 80 F0 FF  FF 7F F0 FF FF 7F 73 31  .'.R(.........s1
17B0: 34 34 45 28 80 F0 FF FF  7F F0 FF FF 7F 73 31 34  44E(.........s14
17C0: 36 01 80 2B 9E 32 03 01  A9 80 23 66 30 80 9E 32  6..+.2....#f0..2
17D0: 03 01 9E 32 03 01 74 68  6B 32 53 9E 32 03 01 9E  ...2..thk2S.2...
17E0: 32 03 01 74 68 6B 32 5C  00 4E 80 5C 01 4E 80 1C  2..thk2\.N.\.N..
17F0: 2B 80 6E 9E 32 03 01 91  80 99 9E 32 03 01 1C 27  +.n.2......2...'
1800: 80 2B 9E 32 03 01 AA 80  23 52 28 80 F0 FF FF 7F  .+.2....#R(.....
1810: F0 FF FF 7F 73 31 34 36  45 28 80 F0 FF FF 7F F0  ....s146E(......
1820: FF FF 7F 73 31 34 37 01  80 6E C5 32 03 01 A2 80  ...s147..n.2....
1830: 99 C5 32 03 01 2B C5 32  03 01 AB 80 23 52 28 80  ..2..+.2....#R(.
1840: F0 FF FF 7F F0 FF FF 7F  73 31 34 37 45 28 80 F0  ........s147E(..
1850: FF FF 7F F0 FF FF 7F 73  31 34 38 01 80 2B C5 32  .......s148..+.2
1860: 03 01 AC 80 23 52 28 80  F0 FF FF 7F F0 FF FF 7F  ....#R(.........
1870: 73 31 34 38 45 28 80 F0  FF FF 7F F0 FF FF 7F 73  s148E(.........s
1880: 31 34 39 01 80 6E 9E 32  03 01 AD 80 99 9E 32 03  149..n.2......2.
1890: 01 2B 9E 32 03 01 AE 80  23 4A 9E 32 03 01 F0 FF  .+.2....#J.2....
18A0: FF 7F 6B 69 64 6C 30 9E  32 03 01 6F 76 9E 32 03  ..kidl0.2..ov.2.
18B0: 01 2B 9E 32 03 01 AF 80  23 29 10 F0 FF FF 7F 25  .+.2....#).....%
18C0: 02 02 10 05 80 80 EB 18  52 28 80 F0 FF FF 7F F0  ........R(......
18D0: FF FF 7F 73 31 34 39 45  28 80 F0 FF FF 7F F0 FF  ...s149E(.......
18E0: FF 7F 77 68 6D 33 01 80  01 18 1A 02 02 10 A5 80  ..whm3..........
18F0: 80 16 19 52 28 80 F0 FF  FF 7F F0 FF FF 7F 73 31  ...R(.........s1
1900: 34 39 45 28 80 F0 FF FF  7F F0 FF FF 7F 77 68 6D  49E(.........whm
1910: 33 01 80 01 18 1A 02 02  10 A6 80 80 41 19 52 28  3...........A.R(
1920: 80 F0 FF FF 7F F0 FF FF  7F 73 31 34 39 45 28 80  .........s149E(.
1930: F0 FF FF 7F F0 FF FF 7F  77 65 6D 33 01 80 01 18  ........wem3....
1940: 1A 02 02 10 8B 80 80 6C  19 52 28 80 F0 FF FF 7F  .......l.R(.....
1950: F0 FF FF 7F 73 31 34 39  45 28 80 F0 FF FF 7F F0  ....s149E(......
1960: FF FF 7F 77 65 6D 33 01  80 01 18 1A 02 02 10 50  ...wem3........P
1970: 80 80 97 19 52 28 80 F0  FF FF 7F F0 FF FF 7F 73  ....R(.........s
1980: 31 34 39 45 28 80 F0 FF  FF 7F F0 FF FF 7F 77 74  149E(.........wt
1990: 72 33 01 80 01 18 1A 02  02 10 8D 80 80 C2 19 52  r3.............R
19A0: 28 80 F0 FF FF 7F F0 FF  FF 7F 73 31 34 39 45 28  (.........s149E(
19B0: 80 F0 FF FF 7F F0 FF FF  7F 77 74 72 33 01 80 01  .........wtr3...
19C0: 18 1A 02 02 10 91 80 80  ED 19 52 28 80 F0 FF FF  ..........R(....
19D0: 7F F0 FF FF 7F 73 31 34  39 45 28 80 F0 FF FF 7F  .....s149E(.....
19E0: F0 FF FF 7F 77 6D 74 33  01 80 01 18 1A 02 02 10  ....wmt3........
19F0: 3C 80 80 18 1A 52 28 80  F0 FF FF 7F F0 FF FF 7F  <....R(.........
1A00: 73 31 34 39 45 28 80 F0  FF FF 7F F0 FF FF 7F 77  s149E(.........w
1A10: 67 6C 33 01 80 01 18 1A  4A F0 FF FF 7F 9E 32 03  gl3.....J.....2.
1A20: 01 6F 76 F0 FF FF 7F 6E  F0 FF FF 7F 02 80 99 F0  .ov....n........
1A30: FF FF 7F 1C 3A 80 52 28  80 F0 FF FF 7F F0 FF FF  ....:.R(........
1A40: 7F 77 68 6D 33 52 28 80  F0 FF FF 7F F0 FF FF 7F  .whm3R(.........
1A50: 77 68 6D 33 52 28 80 F0  FF FF 7F F0 FF FF 7F 77  whm3R(.........w
1A60: 65 6D 33 52 28 80 F0 FF  FF 7F F0 FF FF 7F 77 65  em3R(.........we
1A70: 6D 33 52 28 80 F0 FF FF  7F F0 FF FF 7F 77 74 72  m3R(.........wtr
1A80: 33 52 28 80 F0 FF FF 7F  F0 FF FF 7F 77 6D 74 33  3R(.........wmt3
1A90: 52 28 80 F0 FF FF 7F F0  FF FF 7F 77 67 6C 33 45  R(.........wgl3E
1AA0: 28 80 F0 FF FF 7F F0 FF  FF 7F 73 31 35 31 01 80  (.........s151..
1AB0: 6E 9E 32 03 01 3B 80 99  9E 32 03 01 2B 9E 32 03  n.2..;...2..+.2.
1AC0: 01 B0 80 23 1C 4A 80 52  28 80 F0 FF FF 7F F0 FF  ...#.J.R(.......
1AD0: FF 7F 73 31 35 31 45 28  80 F0 FF FF 7F F0 FF FF  ..s151E(........
1AE0: 7F 73 31 35 32 01 80 7B  9E 32 03 01 2B 9E 32 03  .s152..{.2..+.2.
1AF0: 01 B1 80 23 52 28 80 F0  FF FF 7F F0 FF FF 7F 73  ...#R(.........s
1B00: 31 35 32 45 28 80 F0 FF  FF 7F F0 FF FF 7F 73 31  152E(.........s1
1B10: 35 33 01 80 6E 9E 32 03  01 8B 80 99 9E 32 03 01  53..n.2......2..
1B20: 1C 2B 80 2B 9E 32 03 01  B2 80 23 52 28 80 F0 FF  .+.+.2....#R(...
1B30: FF 7F F0 FF FF 7F 73 31  35 33 45 28 80 F0 FF FF  ......s153E(....
1B40: 7F F0 FF FF 7F 73 31 35  34 01 80 27 10 C4 32 03  .....s154..'..2.
1B50: 01 05 27 10 C4 32 03 01  04 4A 9E 32 03 01 C5 32  ..'..2...J.2...2
1B60: 03 01 2B C5 32 03 01 B3  80 23 7B C5 32 03 01 27  ..+.2....#{.2..'
1B70: 10 C5 32 03 01 0F 1C 30  80 52 28 80 F0 FF FF 7F  ..2....0.R(.....
1B80: F0 FF FF 7F 73 31 35 34  45 28 80 F0 FF FF 7F F0  ....s154E(......
1B90: FF FF 7F 73 31 36 33 01  80 6E 9E 32 03 01 55 80  ...s163..n.2..U.
1BA0: 99 9E 32 03 01 2B 9E 32  03 01 B4 80 1C 36 80 52  ..2..+.2.....6.R
1BB0: 28 80 F0 FF FF 7F F0 FF  FF 7F 73 31 36 33 45 28  (.........s163E(
1BC0: 80 F0 FF FF 7F F0 FF FF  7F 73 31 36 34 01 80 4A  .........s164..J
1BD0: 9E 32 03 01 F0 FF FF 7F  6F 76 9E 32 03 01 2B 9E  .2......ov.2..+.
1BE0: 32 03 01 B5 80 23 6E 9E  32 03 01 A2 80 99 9E 32  2....#n.2......2
1BF0: 03 01 2B 9E 32 03 01 B6  80 23 1C 27 80 4E 01 C5  ..+.2....#.'.N..
1C00: 32 03 01 45 00 80 F8 FF  FF 7F F8 FF FF 7F 66 64  2..E..........fd
1C10: 6F 31 01 80 55 00 80 F8  FF FF 7F F8 FF FF 7F 66  o1..U..........f
1C20: 64 6F 31 52 28 80 F0 FF  FF 7F F0 FF FF 7F 73 31  do1R(.........s1
1C30: 36 34 52 B7 80 F0 FF FF  7F F0 FF FF 7F 61 61 61  64R..........aaa
1C40: 6E 29 10 B8 32 03 01 06  1C 4A 80 AB 11 01 80 1C  n)..2....J......
1C50: 05 80 35 72 80 78 1C 4A  80 AB 0A 02 00 00 01 80  ..5r.x.J........
1C60: 00 66 1C 30 21 00 5C 00  73 80 5C 01 73 80 9A 46  .f.0!.\.s.\.s..F
1C70: 00 45 00 80 F0 FF FF 7F  F0 FF FF 7F 66 64 69 32  .E..........fdi2
1C80: 01 80 21 00                                       ..!.            
```

#### Opcodes

```
  0: 0x0DE0 [0x42] SET_CLI_EVENT_CANCEL_DATA()
  1: 0x0DE1 [0x43] SEND_EVENT_UPDATE: Send pending tag to server (packet 0x005B)
  2: 0x0DE3 [0x43] SEND_EVENT_UPDATE: Check pending flag (skip if not pending)
  3: 0x0DE5 [0x03] ExtData[1]->WorkLocal[0] = Work_Zone[9]
  4: 0x0DEA [0x45] LOAD_SCHEDULED_TASK: Load scheduler "fdo1" with entities [EventEntity, EventEntity], work=[200*, 0*]
  5: 0x0DFB [0x55] WAIT_LOAD_SCHEDULER: Wait for scheduler "fdo1" with entities [EventEntity, EventEntity], work=200*
  6: 0x0E0A [0x46] CAMERA_CONTROL: Disable user control
  7: 0x0E0C [0x38] SET_CLIENT_EVENT_MODE(mode=19*)
  8: 0x0E0F [0x4E] SET_ENTITY_HIDE_FLAG: Show LocalPlayer
  9: 0x0E15 [0x34] LOAD_UNLOAD_ZONE(zone_id=50*)
 10: 0x0E18 [0x77] SET_EVENT_TIME_WEATHER(hour=255*, weather=1*)
 11: 0x0E1D [0x1C] WAIT(1* ticks)
 12: 0x0E20 [0xAB] EventEntity->UnknownFlag = 1 // Enable unknown flag
 13: 0x0E22 [0x75] LOAD_ROOM(Load indoor room, room=565*)
 14: 0x0E26 [0x75] LOAD_ROOM(No action)
 15: 0x0E28 [0x4E] SET_ENTITY_HIDE_FLAG: Show Zubyahn (ID: 16986804/0x010332B4)
 16: 0x0E2E [0x4E] SET_ENTITY_HIDE_FLAG: Show Halbeeya (ID: 16986803/0x010332B3)
 17: 0x0E34 [0x4E] SET_ENTITY_HIDE_FLAG: Show Unnamed NPC (ID: 16986722/0x01033262)
 18: 0x0E3A [0x4E] SET_ENTITY_HIDE_FLAG: Show Unnamed NPC (ID: 16986723/0x01033263)
 19: 0x0E40 [0x4E] SET_ENTITY_HIDE_FLAG: Show Ratihb (ID: 16986810/0x010332BA)
 20: 0x0E46 [0x4E] SET_ENTITY_HIDE_FLAG: Show Shayadar (ID: 16986821/0x010332C5)
 21: 0x0E4C [0x4E] SET_ENTITY_HIDE_FLAG: Show Unnamed NPC (ID: 16986808/0x010332B8)
 22: 0x0E52 [0x4E] SET_ENTITY_HIDE_FLAG: Show Fari-Wari (ID: 16986782/0x0103329E)
 23: 0x0E58 [0x4E] SET_ENTITY_HIDE_FLAG: Show Wajran (ID: 16986813/0x010332BD)
 24: 0x0E5E [0x4E] SET_ENTITY_HIDE_FLAG: Show PAKU02 (ID: 16986814/0x010332BE)
 25: 0x0E64 [0x4E] SET_ENTITY_HIDE_FLAG: Show PAKU03 (ID: 16986815/0x010332BF)
 26: 0x0E6A [0x4E] SET_ENTITY_HIDE_FLAG: Show FAN7 (ID: 16986818/0x010332C2)
 27: 0x0E70 [0x4E] SET_ENTITY_HIDE_FLAG: Show FAN8 (ID: 16986819/0x010332C3)
 28: 0x0E76 [0x4E] SET_ENTITY_HIDE_FLAG: Show FAN3 (ID: 16986816/0x010332C0)
 29: 0x0E7C [0x4E] SET_ENTITY_HIDE_FLAG: Show FAN4 (ID: 16986817/0x010332C1)
 30: 0x0E82 [0x4E] SET_ENTITY_HIDE_FLAG: Show Unnamed NPC (ID: 16986820/0x010332C4)
 31: 0x0E88 [0x29] REQ_SET_WAIT(priority=0x10, entity_id=Unnamed NPC (ID: 16986808/0x010332B8), tag_num=0x05)
 32: 0x0E8F [0x94] Unnamed NPC (ID: 16986808/0x010332B8)->Render.Flags3 ^= 0x01
 33: 0x0E95 [0x94] Fari-Wari (ID: 16986782/0x0103329E)->Render.Flags3 ^= 0x01
 34: 0x0E9B [0x94] Wajran (ID: 16986813/0x010332BD)->Render.Flags3 ^= 0x01
 35: 0x0EA1 [0x94] PAKU02 (ID: 16986814/0x010332BE)->Render.Flags3 ^= 0x01
 36: 0x0EA7 [0x94] PAKU03 (ID: 16986815/0x010332BF)->Render.Flags3 ^= 0x01
 37: 0x0EAD [0x94] Shayadar (ID: 16986821/0x010332C5)->Render.Flags3 ^= 0x01
 38: 0x0EB3 [0x94] FAN7 (ID: 16986818/0x010332C2)->Render.Flags3 ^= 0x01
 39: 0x0EB9 [0x94] FAN8 (ID: 16986819/0x010332C3)->Render.Flags3 ^= 0x01
 40: 0x0EBF [0x94] FAN3 (ID: 16986816/0x010332C0)->Render.Flags3 ^= 0x01
 41: 0x0EC5 [0x94] FAN4 (ID: 16986817/0x010332C1)->Render.Flags3 ^= 0x01
 42: 0x0ECB [0x92] Fari-Wari (ID: 16986782/0x0103329E)->Render.Flags3 ^= 0x01
 43: 0x0ED1 [0x92] Wajran (ID: 16986813/0x010332BD)->Render.Flags3 ^= 0x01
 44: 0x0ED7 [0x92] PAKU02 (ID: 16986814/0x010332BE)->Render.Flags3 ^= 0x01
 45: 0x0EDD [0x92] PAKU03 (ID: 16986815/0x010332BF)->Render.Flags3 ^= 0x01
 46: 0x0EE3 [0x92] Shayadar (ID: 16986821/0x010332C5)->Render.Flags3 ^= 0x01
 47: 0x0EE9 [0x92] FAN7 (ID: 16986818/0x010332C2)->Render.Flags3 ^= 0x01
 48: 0x0EEF [0x92] FAN8 (ID: 16986819/0x010332C3)->Render.Flags3 ^= 0x01
 49: 0x0EF5 [0x92] FAN3 (ID: 16986816/0x010332C0)->Render.Flags3 ^= 0x01
 50: 0x0EFB [0x92] FAN4 (ID: 16986817/0x010332C1)->Render.Flags3 ^= 0x01
 51: 0x0F01 [0x92] Fari-Wari (ID: 16986782/0x0103329E)->Render.Flags3 ^= 0x01
 52: 0x0F07 [0x92] Shayadar (ID: 16986821/0x010332C5)->Render.Flags3 ^= 0x01
 53: 0x0F0D [0x92] Zubyahn (ID: 16986804/0x010332B4)->Render.Flags3 ^= 0x01
 54: 0x0F13 [0x92] Halbeeya (ID: 16986803/0x010332B3)->Render.Flags3 ^= 0x01
 55: 0x0F19 [0x92] Unnamed NPC (ID: 16986722/0x01033262)->Render.Flags3 ^= 0x01
 56: 0x0F1F [0x92] Unnamed NPC (ID: 16986723/0x01033263)->Render.Flags3 ^= 0x01
 57: 0x0F25 [0x92] Ratihb (ID: 16986810/0x010332BA)->Render.Flags3 ^= 0x01
 58: 0x0F2B [0xBA] SET_ENTITY_POSITION(entity_id=Unnamed NPC (ID: 16986808/0x010332B8), pos_x=81.291*, pos_z=-135.467*, pos_y=-6.000*, direction=183.9°*)
 59: 0x0F38 [0xBA] SET_ENTITY_POSITION(entity_id=LocalPlayer, pos_x=81.291*, pos_z=-135.467*, pos_y=-6.000*, direction=183.9°*)
 60: 0x0F45 [0xBA] SET_ENTITY_POSITION(entity_id=Fari-Wari (ID: 16986782/0x0103329E), pos_x=79.882*, pos_z=-136.478*, pos_y=-6.000*, direction=270.2°*)
 61: 0x0F52 [0xBA] SET_ENTITY_POSITION(entity_id=Shayadar (ID: 16986821/0x010332C5), pos_x=78.681*, pos_z=-132.522*, pos_y=-6.000*, direction=109.8°*)
 62: 0x0F5F [0xBA] SET_ENTITY_POSITION(entity_id=Ratihb (ID: 16986810/0x010332BA), pos_x=75.225*, pos_z=-137.203*, pos_y=-6.000*, direction=298.0°*)
 63: 0x0F6C [0xBA] SET_ENTITY_POSITION(entity_id=Unnamed NPC (ID: 16986722/0x01033262), pos_x=81.321*, pos_z=-140.162*, pos_y=-6.000*, direction=268.1°*)
 64: 0x0F79 [0xBA] SET_ENTITY_POSITION(entity_id=Unnamed NPC (ID: 16986723/0x01033263), pos_x=76.889*, pos_z=-140.379*, pos_y=-6.000*, direction=268.2°*)
 65: 0x0F86 [0xBA] SET_ENTITY_POSITION(entity_id=Zubyahn (ID: 16986804/0x010332B4), pos_x=82.978*, pos_z=-137.881*, pos_y=-6.000*, direction=78.1°*)
 66: 0x0F93 [0xBA] SET_ENTITY_POSITION(entity_id=Halbeeya (ID: 16986803/0x010332B3), pos_x=85.879*, pos_z=-137.833*, pos_y=-6.000*, direction=89.5°*)
 67: 0x0FA0 [0xBA] SET_ENTITY_POSITION(entity_id=Wajran (ID: 16986813/0x010332BD), pos_x=68.855*, pos_z=-127.802*, pos_y=-6.499*, direction=0.0°*)
 68: 0x0FAD [0xBA] SET_ENTITY_POSITION(entity_id=PAKU02 (ID: 16986814/0x010332BE), pos_x=67.693*, pos_z=-127.060*, pos_y=-6.499*, direction=0.0°*)
 69: 0x0FBA [0xBA] SET_ENTITY_POSITION(entity_id=PAKU03 (ID: 16986815/0x010332BF), pos_x=67.565*, pos_z=-128.700*, pos_y=-6.499*, direction=0.0°*)
 70: 0x0FC7 [0xBA] SET_ENTITY_POSITION(entity_id=FAN7 (ID: 16986818/0x010332C2), pos_x=71.160*, pos_z=-131.110*, pos_y=-6.000*, direction=210.9°*)
 71: 0x0FD4 [0xBA] SET_ENTITY_POSITION(entity_id=FAN8 (ID: 16986819/0x010332C3), pos_x=72.274*, pos_z=-129.999*, pos_y=-6.000*, direction=202.1°*)
 72: 0x0FE1 [0xBA] SET_ENTITY_POSITION(entity_id=FAN3 (ID: 16986816/0x010332C0), pos_x=72.789*, pos_z=-128.391*, pos_y=-6.000*, direction=180.0°*)
 73: 0x0FEE [0xBA] SET_ENTITY_POSITION(entity_id=FAN4 (ID: 16986817/0x010332C1), pos_x=72.888*, pos_z=-126.685*, pos_y=-6.000*, direction=162.4°*)
 74: 0x0FFB [0x80] LOAD_WAIT(entity=Fari-Wari (ID: 16986782/0x0103329E))
 75: 0x1000 [0x80] LOAD_WAIT(entity=Wajran (ID: 16986813/0x010332BD))
 76: 0x1005 [0x80] LOAD_WAIT(entity=PAKU02 (ID: 16986814/0x010332BE))
 77: 0x100A [0x80] LOAD_WAIT(entity=PAKU03 (ID: 16986815/0x010332BF))
 78: 0x100F [0x80] LOAD_WAIT(entity=Shayadar (ID: 16986821/0x010332C5))
 79: 0x1014 [0x80] LOAD_WAIT(entity=FAN7 (ID: 16986818/0x010332C2))
 80: 0x1019 [0x80] LOAD_WAIT(entity=FAN8 (ID: 16986819/0x010332C3))
 81: 0x101E [0x80] LOAD_WAIT(entity=FAN3 (ID: 16986816/0x010332C0))
 82: 0x1023 [0x80] LOAD_WAIT(entity=FAN4 (ID: 16986817/0x010332C1))
 83: 0x1028 [0x80] LOAD_WAIT(entity=Fari-Wari (ID: 16986782/0x0103329E))
 84: 0x102D [0x80] LOAD_WAIT(entity=Shayadar (ID: 16986821/0x010332C5))
 85: 0x1032 [0x80] LOAD_WAIT(entity=Zubyahn (ID: 16986804/0x010332B4))
 86: 0x1037 [0x80] LOAD_WAIT(entity=Halbeeya (ID: 16986803/0x010332B3))
 87: 0x103C [0x80] LOAD_WAIT(entity=Unnamed NPC (ID: 16986722/0x01033262))
 88: 0x1041 [0x80] LOAD_WAIT(entity=Unnamed NPC (ID: 16986723/0x01033263))
 89: 0x1046 [0x80] LOAD_WAIT(entity=Ratihb (ID: 16986810/0x010332BA))
 90: 0x104B [0x1C] WAIT(30* ticks)
 91: 0x104E [0x4A] LocalPlayer looks at Shayadar (ID: 16986821/0x010332C5)
 92: 0x1057 [0x4A] Fari-Wari (ID: 16986782/0x0103329E) looks at Shayadar (ID: 16986821/0x010332C5)
 93: 0x1060 [0x4A] Shayadar (ID: 16986821/0x010332C5) looks at Fari-Wari (ID: 16986782/0x0103329E)
 94: 0x1069 [0x5C] MUSIC_CONTROL: Set Idle (Day) music to song 178*
 95: 0x106D [0x5C] MUSIC_CONTROL: Set Idle (Night) music to song 178*
 96: 0x1071 [0x9A] WAIT_MUSIC_SERVER()
 97: 0x1072 [0x45] LOAD_SCHEDULED_TASK: Load scheduler "s160" with entities [LocalPlayer, LocalPlayer], work=[447*, 0*]
 98: 0x1083 [0x45] LOAD_SCHEDULED_TASK: Load scheduler "fdi2" with entities [LocalPlayer, LocalPlayer], work=[200*, 0*]
 99: 0x1094 [0x55] WAIT_LOAD_SCHEDULER: Wait for scheduler "fdi2" with entities [LocalPlayer, LocalPlayer], work=200*
100: 0x10A3 [0x1C] WAIT(30* ticks)
101: 0x10A6 [0x6E] Fari-Wari (ID: 16986782/0x0103329E) uses emote 19*
102: 0x10AD [0x99] Wait for Fari-Wari (ID: 16986782/0x0103329E) animation to complete
103: 0x10B2 [0x7B] Shayadar (ID: 16986821/0x010332C5) stops talking
104: 0x10B7 [0x1C] WAIT(120* ticks)
105: 0x10BA [0x52] END_LOAD_SCHEDULER: End scheduler "s160" with entities [LocalPlayer, LocalPlayer], work=447*
106: 0x10C9 [0x45] LOAD_SCHEDULED_TASK: Load scheduler "s123" with entities [LocalPlayer, LocalPlayer], work=[447*, 0*]
107: 0x10DA [0x2B] Shayadar (ID: 16986821/0x010332C5) [8695*]:
    → "Oh my, that does sound most harrowing. Now, if I may continue... Needless to say, the Flameserpent General's...contentious...behavior has not gone unnoticed by high command."
108: 0x10E1 [0x23] WAIT_FOR_DIALOG_INTERACTION
109: 0x10E2 [0x66] LOAD_EXT_SCHEDULER_MAIN: Load scheduler "thk1" with entities [Shayadar (ID: 16986821/0x010332C5), Shayadar (ID: 16986821/0x010332C5)], work=9*
110: 0x10F1 [0x2B] Shayadar (ID: 16986821/0x010332C5) [8696*]:
    → "To this point, his undeniable prowess in battle and the personal good graces of the Skyserpent General have shielded him from being seriously punished for his indiscretions."
111: 0x10F8 [0x23] WAIT_FOR_DIALOG_INTERACTION
112: 0x10F9 [0x52] END_LOAD_SCHEDULER: End scheduler "s123" with entities [LocalPlayer, LocalPlayer], work=447*
113: 0x1108 [0x45] LOAD_SCHEDULED_TASK: Load scheduler "s124" with entities [LocalPlayer, LocalPlayer], work=[447*, 0*]
114: 0x1119 [0x66] LOAD_EXT_SCHEDULER_MAIN: Load scheduler "thk2" with entities [Shayadar (ID: 16986821/0x010332C5), Shayadar (ID: 16986821/0x010332C5)], work=9*
115: 0x1128 [0x2B] Shayadar (ID: 16986821/0x010332C5) [8697*]:
    → "This time, however, the powers that be have lost their patience and decided to court-martial him for his actions! I fear that there may be no saving him."
116: 0x112F [0x23] WAIT_FOR_DIALOG_INTERACTION
117: 0x1130 [0x52] END_LOAD_SCHEDULER: End scheduler "s124" with entities [LocalPlayer, LocalPlayer], work=447*
118: 0x113F [0x45] LOAD_SCHEDULED_TASK: Load scheduler "s126" with entities [LocalPlayer, LocalPlayer], work=[447*, 0*]
119: 0x1150 [0x6E] Fari-Wari (ID: 16986782/0x0103329E) uses emote 4*
120: 0x1157 [0x99] Wait for Fari-Wari (ID: 16986782/0x0103329E) animation to complete
121: 0x115C [0x1C] WAIT(30* ticks)
122: 0x115F [0x2B] Fari-Wari (ID: 16986782/0x0103329E) [8698*]:
    → "How terribly unfortunate. Couldn't have happened to a nicer chap, I say!"
123: 0x1166 [0x23] WAIT_FOR_DIALOG_INTERACTION
124: 0x1167 [0x52] END_LOAD_SCHEDULER: End scheduler "s126" with entities [LocalPlayer, LocalPlayer], work=447*
125: 0x1176 [0x45] LOAD_SCHEDULED_TASK: Load scheduler "s127" with entities [LocalPlayer, LocalPlayer], work=[447*, 0*]
126: 0x1187 [0x79] Shayadar (ID: 16986821/0x010332C5) looks at Fari-Wari (ID: 16986782/0x0103329E) (Basic look)
127: 0x1191 [0x6E] Shayadar (ID: 16986821/0x010332C5) uses emote 6*
128: 0x1198 [0x99] Wait for Shayadar (ID: 16986821/0x010332C5) animation to complete
129: 0x119D [0x2B] Shayadar (ID: 16986821/0x010332C5) [8699*]:
    → "'Tis true that General Gadalar's prickly demeanor has not endeared him to his superiors. Even in the halls of the Imperial Court, few are willing to step forward in his defense."
130: 0x11A4 [0x23] WAIT_FOR_DIALOG_INTERACTION
131: 0x11A5 [0x2B] Shayadar (ID: 16986821/0x010332C5) [8700*]:
    → "His fellow Serpent Generals are exerting their best efforts on his behalf, but..."
132: 0x11AC [0x23] WAIT_FOR_DIALOG_INTERACTION
133: 0x11AD [0x52] END_LOAD_SCHEDULER: End scheduler "s127" with entities [LocalPlayer, LocalPlayer], work=447*
134: 0x11BC [0x45] LOAD_SCHEDULED_TASK: Load scheduler "s129" with entities [LocalPlayer, LocalPlayer], work=[447*, 0*]
135: 0x11CD [0x66] LOAD_EXT_SCHEDULER_MAIN: Load scheduler "thk1" with entities [Fari-Wari (ID: 16986782/0x0103329E), Fari-Wari (ID: 16986782/0x0103329E)], work=40*
136: 0x11DC [0x2C] CREATE_SCHEDULER_TASK: Create scheduler "caso" with entities [PAKU03 (ID: 16986815/0x010332BF), PAKU03 (ID: 16986815/0x010332BF)]
137: 0x11E9 [0x27] REQ_SET(priority=0x10, entity_id=Unnamed NPC (ID: 16986820/0x010332C4), tag_num=0x04)
138: 0x11F0 [0x2B] Fari-Wari (ID: 16986782/0x0103329E) [8701*]:
    → "To no avail?"
139: 0x11F7 [0x23] WAIT_FOR_DIALOG_INTERACTION
140: 0x11F8 [0x6E] Shayadar (ID: 16986821/0x010332C5) uses emote 7*
141: 0x11FF [0x99] Wait for Shayadar (ID: 16986821/0x010332C5) animation to complete
142: 0x1204 [0x1C] WAIT(30* ticks)
143: 0x1207 [0x52] END_LOAD_SCHEDULER: End scheduler "s129" with entities [LocalPlayer, LocalPlayer], work=447*
144: 0x1216 [0x45] LOAD_SCHEDULED_TASK: Load scheduler "s130" with entities [LocalPlayer, LocalPlayer], work=[447*, 0*]
145: 0x1227 [0x1C] WAIT(15* ticks)
146: 0x122A [0x2B] Shayadar (ID: 16986821/0x010332C5) [8702*]:
    → "Sadly, no. And General Gadalar's refusal to exercise even a modicum of self-restraint has served only to fan the flames."
147: 0x1231 [0x23] WAIT_FOR_DIALOG_INTERACTION
