# 16986710

## Common Data

| Field            | Value                     |
|------------------|---------------------------|
| Zone             | Wajaom Woodlands (ID: 51) |
| Block Size       | 108 bytes                 |
| Total Events     | 3                         |
| References Count | 9                         |

## List of Events

| Event ID                 | Entrypoint   |   Size |   Instructions |
|--------------------------|--------------|--------|----------------|
| [65535](#event-65535)    | 0x0000       |      1 |              1 |
| [511](#event-511)        | 0x0001       |      1 |              1 |
| [65535.1](#event-655351) | 0x0002       |     42 |              8 |

## DAT References (imed_data)

|   Index | Hex Value   |   Dec Value |
|---------|-------------|-------------|
|       0 | 0xFFFEF8F0  |  4294899952 |
|       1 | 0x19C5B     |      105563 |
|       2 | 0x07CF      |        1999 |
|       3 | 0x0DEC      |        3564 |
|       4 | 0x002D      |          45 |
|       5 | 0xFFFEF74B  |  4294899531 |
|       6 | 0x184EA     |       99562 |
|       7 | 0x000A      |          10 |
|       8 | 0x033B      |         827 |

## Events

### Event 65535

#### Metadata

| Field        | Value   |
|--------------|---------|
| Entrypoint   | 0x0000  |
| Data Size    | 1 bytes |
| Instructions | 1       |

```
      00 01 02 03 04 05 06 07  08 09 0A 0B 0C 0D 0E 0F
      -- -- -- -- -- -- -- --  -- -- -- -- -- -- -- --
0000: 00                                                .               
```

#### Opcodes

```
  0: 0x0000 [0x00] END_REQSTACK()
```

### Event 511

#### Metadata

| Field        | Value   |
|--------------|---------|
| Entrypoint   | 0x0001  |
| Data Size    | 1 bytes |
| Instructions | 1       |

```
      00 01 02 03 04 05 06 07  08 09 0A 0B 0C 0D 0E 0F
      -- -- -- -- -- -- -- --  -- -- -- -- -- -- -- --
0000:    00                                              .              
```

#### Opcodes

```
  0: 0x0001 [0x00] END_REQSTACK()
```

### Event 65535.1

#### Metadata

| Field        | Value    |
|--------------|----------|
| Entrypoint   | 0x0002   |
| Data Size    | 42 bytes |
| Instructions | 8        |

```
      00 01 02 03 04 05 06 07  08 09 0A 0B 0C 0D 0E 0F
      -- -- -- -- -- -- -- --  -- -- -- -- -- -- -- --
0000:       37 00 80 01 80 02  80 03 80 32 04 80 1F 00    7........2....
0010: 05 80 06 80 02 80 1F 01  6F 1C 07 80 5B 08 80 56  ........o...[..V
0020: 32 03 01 56 32 03 01 77  61 72 30 00              2..V2..war0.    
```

#### Opcodes

```
  0: 0x0002 [0x37] UPDATE_EVENT_POSITION_AND_DIR: x=-67.344*, z=105.563*, y=1.999*, direction=313.2°*
  1: 0x000B [0x32] ExtData[1]->MainSpeed = 45* * 0.1
  2: 0x000E [0x1F] MOVE_ENTITY: EventEntity moves to X=-67.765*, Z=99.562*, Y=1.999*
  3: 0x0016 [0x1F] MOVE_ENTITY: Update entity position (mode=1)
  4: 0x0018 [0x6F] WAIT_FRAME_DELAY: Yield until WaitTime reaches zero
  5: 0x0019 [0x1C] WAIT(10* ticks)
  6: 0x001C [0x5B] LOAD_EXT_SCHEDULER: Load scheduler "war0" with entities [Unnamed NPC (ID: 16986710/0x01033256), Unnamed NPC (ID: 16986710/0x01033256)], work=827*
  7: 0x002B [0x00] END_REQSTACK()
```
