# 16986668

## Common Data

| Field            | Value                     |
|------------------|---------------------------|
| Zone             | Wajaom Woodlands (ID: 51) |
| Block Size       | 36588 bytes               |
| Total Events     | 9                         |
| References Count | 1063                      |

## List of Events

| Event ID                 | Entrypoint   |   Size |   Instructions |
|--------------------------|--------------|--------|----------------|
| [65535](#event-65535)    | 0x0000       |      1 |              1 |
| [2](#event-2)            | 0x0001       |      1 |              1 |
| [3](#event-3)            | 0x0002       |      1 |              1 |
| [65535.1](#event-655351) | 0x0003       |     12 |              3 |
| [511](#event-511)        | 0x000F       |  12790 |           1641 |
| [512](#event-512)        | 0x3205       |  15837 |           2014 |
| [11](#event-11)          | 0x6FE2       |    457 |             70 |
| [21](#event-21)          | 0x71AB       |   1990 |            241 |
| [22](#event-22)          | 0x7971       |   1195 |            142 |

## DAT References (imed_data)

|   Index | Hex Value   |   Dec Value |
|---------|-------------|-------------|
|       0 | 0xFFFCF29C  |  4294767260 |
|       1 | 0x1384C     |       79948 |
|       2 | 0xFFFFD8F0  |  4294957296 |
|       3 | 0x0FEC      |        4076 |
|       4 | 0x00C8      |         200 |
|       5 | 0x0000      |           0 |
|       6 | 0x0013      |          19 |
|       7 | 0xFFFCDA39  |  4294761017 |
|       8 | 0x159C3     |       88515 |
|       9 | 0xFFFFDD3A  |  4294958394 |
|      10 | 0x0D48      |        3400 |
|      11 | 0xFFFCB5C0  |  4294751680 |
|      12 | 0x15042     |       86082 |
|      13 | 0xFFFFD67A  |  4294956666 |
|      14 | 0x002D      |          45 |
|      15 | 0x003C      |          60 |
|      16 | 0x0137      |         311 |
|      17 | 0x1E63      |        7779 |
|      18 | 0x001E      |          30 |
|      19 | 0x001A      |          26 |
|      20 | 0x1E64      |        7780 |
|      21 | 0x1E65      |        7781 |
|      22 | 0x1E66      |        7782 |
|      23 | 0x099D      |        2461 |
|      24 | 0x0045      |          69 |
|      25 | 0x1E67      |        7783 |
|      26 | 0x0135      |         309 |
|      27 | 0x1E68      |        7784 |
|      28 | 0x1E69      |        7785 |
|      29 | 0x1E6A      |        7786 |
|      30 | 0x1E6B      |        7787 |
|      31 | 0x1E6C      |        7788 |
|      32 | 0x1E6D      |        7789 |
|      33 | 0x0004      |           4 |
|      34 | 0x1E6E      |        7790 |
|      35 | 0x1E6F      |        7791 |
|      36 | 0x1E70      |        7792 |
|      37 | 0x1E71      |        7793 |
|      38 | 0x1E72      |        7794 |
|      39 | 0x005A      |          90 |
|      40 | 0x0078      |         120 |
|      41 | 0x0032      |          50 |
|      42 | 0x000C      |          12 |
|      43 | 0x0001      |           1 |
|      44 | 0x0003      |           3 |
|      45 | 0x0110      |         272 |
|      46 | 0x03E7      |         999 |
|      47 | 0x000F      |          15 |
|      48 | 0x000A      |          10 |
|      49 | 0xFFFE8140  |  4294869312 |
|      50 | 0xFFFFEF9C  |  4294963100 |
|      51 | 0x0FBE      |        4030 |
|      52 | 0xFFFEAD21  |  4294880545 |
|      53 | 0xFFFFE874  |  4294961268 |
|      54 | 0x0B29      |        2857 |
|      55 | 0xFFFEE0B3  |  4294893747 |
|      56 | 0xFFFFFC49  |  4294966345 |
|      57 | 0x07C3      |        1987 |
|      58 | 0x00B2      |         178 |
|      59 | 0x1E73      |        7795 |
|      60 | 0x1E74      |        7796 |
|      61 | 0x0024      |          36 |
|      62 | 0x1E75      |        7797 |
|      63 | 0x03BE      |         958 |
|      64 | 0x1E76      |        7798 |
|      65 | 0x1E77      |        7799 |
|      66 | 0x1E78      |        7800 |
|      67 | 0x0016      |          22 |
|      68 | 0x1E79      |        7801 |
|      69 | 0x000D      |          13 |
|      70 | 0x1E7A      |        7802 |
|      71 | 0x1E7B      |        7803 |
|      72 | 0x1E7C      |        7804 |
|      73 | 0x0009      |           9 |
|      74 | 0x1E7D      |        7805 |
|      75 | 0x1E7E      |        7806 |
|      76 | 0x0014      |          20 |
|      77 | 0x0020      |          32 |
|      78 | 0x1E7F      |        7807 |
|      79 | 0x1E80      |        7808 |
|      80 | 0x1E81      |        7809 |
|      81 | 0x1E82      |        7810 |
|      82 | 0x1E83      |        7811 |
|      83 | 0x1E84      |        7812 |
|      84 | 0x34BF      |       13503 |
|      85 | 0xFFFE7630  |  4294866480 |
|      86 | 0x07CF      |        1999 |
|      87 | 0x0AA4      |        2724 |
|      88 | 0x36D1      |       14033 |
|      89 | 0xFFFE7B1F  |  4294867743 |
|      90 | 0x0A0A      |        2570 |
|      91 | 0x3B77      |       15223 |
|      92 | 0xFFFE7755  |  4294866773 |
|      93 | 0x09B8      |        2488 |
|      94 | 0x3BAD      |       15277 |
|      95 | 0xFFFE7AE0  |  4294867680 |
|      96 | 0x09B9      |        2489 |
|      97 | 0x3D89      |       15753 |
|      98 | 0xFFFE74EB  |  4294866155 |
|      99 | 0x09B7      |        2487 |
|     100 | 0x2334      |        9012 |
|     101 | 0xFFFE7DDB  |  4294868443 |
|     102 | 0x0F6B      |        3947 |
|     103 | 0x0050      |          80 |
|     104 | 0x1E85      |        7813 |
|     105 | 0x0098      |         152 |
|     106 | 0x1E86      |        7814 |
|     107 | 0x1E87      |        7815 |
|     108 | 0x1E88      |        7816 |
|     109 | 0x1E89      |        7817 |
|     110 | 0x0021      |          33 |
|     111 | 0x0006      |           6 |
|     112 | 0x1E8A      |        7818 |
|     113 | 0x1E8B      |        7819 |
|     114 | 0x000B      |          11 |
|     115 | 0x1E8C      |        7820 |
|     116 | 0x0005      |           5 |
|     117 | 0x1E8D      |        7821 |
|     118 | 0x1E8E      |        7822 |
|     119 | 0x1E8F      |        7823 |
|     120 | 0x1E90      |        7824 |
|     121 | 0x1E91      |        7825 |
|     122 | 0x1E92      |        7826 |
|     123 | 0x1E93      |        7827 |
|     124 | 0x2F32      |       12082 |
|     125 | 0xFFFE7FF8  |  4294868984 |
|     126 | 0x1130      |        4400 |
|     127 | 0x1E94      |        7828 |
|     128 | 0x1E95      |        7829 |
|     129 | 0x1E96      |        7830 |
|     130 | 0x1E97      |        7831 |
|     131 | 0x1E98      |        7832 |
|     132 | 0x1E99      |        7833 |
|     133 | 0x1E9A      |        7834 |
|     134 | 0x1E9B      |        7835 |
|     135 | 0x1E9C      |        7836 |
|     136 | 0x1E9D      |        7837 |
|     137 | 0x21D78     |      138616 |
|     138 | 0xFFFFFD66  |  4294966630 |
|     139 | 0xFFFFF831  |  4294965297 |
|     140 | 0x07F4      |        2036 |
|     141 | 0x22F61     |      143201 |
|     142 | 0xFFFFF6F5  |  4294964981 |
|     143 | 0x0832      |        2098 |
|     144 | 0x0094      |         148 |
|     145 | 0x1E9E      |        7838 |
|     146 | 0x1E9F      |        7839 |
|     147 | 0x1EA0      |        7840 |
|     148 | 0x1EA1      |        7841 |
|     149 | 0x1EA2      |        7842 |
|     150 | 0x1EA3      |        7843 |
|     151 | 0x1EA4      |        7844 |
|     152 | 0x1EA5      |        7845 |
|     153 | 0x1EA6      |        7846 |
|     154 | 0x0FA0      |        4000 |
|     155 | 0x5665      |       22117 |
|     156 | 0xFFFE912E  |  4294873390 |
|     157 | 0x06A4      |        1700 |
|     158 | 0x5647      |       22087 |
|     159 | 0xFFFE974E  |  4294874958 |
|     160 | 0x1EA7      |        7847 |
|     161 | 0x1EA8      |        7848 |
|     162 | 0x1EA9      |        7849 |
|     163 | 0x1EAA      |        7850 |
|     164 | 0x1EAB      |        7851 |
|     165 | 0x2874      |       10356 |
|     166 | 0xFFFEAEF9  |  4294881017 |
|     167 | 0x22E1      |        8929 |
|     168 | 0xFFFEAA24  |  4294879780 |
|     169 | 0x024E      |         590 |
|     170 | 0x1EAC      |        7852 |
|     171 | 0x1EAD      |        7853 |
|     172 | 0x1EAE      |        7854 |
|     173 | 0x1EAF      |        7855 |
|     174 | 0x1EB0      |        7856 |
|     175 | 0x1EB1      |        7857 |
|     176 | 0x0022      |          34 |
|     177 | 0x1EB2      |        7858 |
|     178 | 0x1EB3      |        7859 |
|     179 | 0x1EB4      |        7860 |
|     180 | 0x008E      |         142 |
|     181 | 0x1EB5      |        7861 |
|     182 | 0x0026      |          38 |
|     183 | 0x1EB6      |        7862 |
|     184 | 0x1EB7      |        7863 |
|     185 | 0x1EB8      |        7864 |
|     186 | 0x0019      |          25 |
|     187 | 0x1EB9      |        7865 |
|     188 | 0x1EBA      |        7866 |
|     189 | 0x1EBB      |        7867 |
|     190 | 0x1EBC      |        7868 |
|     191 | 0x1EBD      |        7869 |
|     192 | 0x1EBE      |        7870 |
|     193 | 0x0007      |           7 |
|     194 | 0x1EBF      |        7871 |
|     195 | 0x386C      |       14444 |
|     196 | 0xFFFEC57C  |  4294886780 |
|     197 | 0x0442      |        1090 |
|     198 | 0x1EC0      |        7872 |
|     199 | 0x1EC1      |        7873 |
|     200 | 0x1EC2      |        7874 |
|     201 | 0x1EC3      |        7875 |
|     202 | 0x1EC4      |        7876 |
|     203 | 0x1EC5      |        7877 |
|     204 | 0x0023      |          35 |
|     205 | 0x1EC6      |        7878 |
|     206 | 0x0030      |          48 |
|     207 | 0xFFFEB9DD  |  4294883805 |
|     208 | 0x15495     |       87189 |
|     209 | 0xFFFFE890  |  4294961296 |
|     210 | 0x0DED      |        3565 |
|     211 | 0xFFFEB71C  |  4294883100 |
|     212 | 0x159D9     |       88537 |
|     213 | 0x0DEC      |        3564 |
|     214 | 0xFFFEF552  |  4294899026 |
|     215 | 0x1B141     |      110913 |
|     216 | 0x0445      |        1093 |
|     217 | 0x007F      |         127 |
|     218 | 0x0113      |         275 |
|     219 | 0xFFFEFB68  |  4294900584 |
|     220 | 0x1AAFA     |      109306 |
|     221 | 0x0431      |        1073 |
|     222 | 0xFFFEF1C9  |  4294898121 |
|     223 | 0x1B84A     |      112714 |
|     224 | 0x0411      |        1041 |
|     225 | 0xFFFEF0F2  |  4294897906 |
|     226 | 0x1AE11     |      110097 |
|     227 | 0x038B      |         907 |
|     228 | 0x033B      |         827 |
|     229 | 0x01CC      |         460 |
|     230 | 0x1EC7      |        7879 |
|     231 | 0x1EC8      |        7880 |
|     232 | 0x1EC9      |        7881 |
|     233 | 0x1ECA      |        7882 |
|     234 | 0x1ECB      |        7883 |
|     235 | 0x1ECC      |        7884 |
|     236 | 0x1ECD      |        7885 |
|     237 | 0x1ECE      |        7886 |
|     238 | 0x1ECF      |        7887 |
|     239 | 0xFFFEB4D4  |  4294882516 |
|     240 | 0x1510D     |       86285 |
|     241 | 0x0191      |         401 |
|     242 | 0xFFFEB3FC  |  4294882300 |
|     243 | 0x14DE6     |       85478 |
|     244 | 0x0190      |         400 |
|     245 | 0xFFFE9AC4  |  4294875844 |
|     246 | 0x1668F     |       91791 |
|     247 | 0x0270      |         624 |
|     248 | 0xFFFE9C43  |  4294876227 |
|     249 | 0x15C9A     |       89242 |
|     250 | 0x0051      |          81 |
|     251 | 0xFFFEA9AA  |  4294879658 |
|     252 | 0x15BAE     |       89006 |
|     253 | 0x0111      |         273 |
|     254 | 0x1ED0      |        7888 |
|     255 | 0x1ED1      |        7889 |
|     256 | 0x1ED2      |        7890 |
|     257 | 0x1ED3      |        7891 |
|     258 | 0x1ED4      |        7892 |
|     259 | 0x1ED5      |        7893 |
|     260 | 0x0478      |        1144 |
|     261 | 0x1ED6      |        7894 |
|     262 | 0x0002      |           2 |
|     263 | 0x1ED7      |        7895 |
|     264 | 0x1ED8      |        7896 |
|     265 | 0x0059      |          89 |
|     266 | 0x0041      |          65 |
|     267 | 0x0394      |         916 |
|     268 | 0xFFFEE610  |  4294895120 |
|     269 | 0x1541D     |       87069 |
|     270 | 0x017C      |         380 |
|     271 | 0x0064      |         100 |
|     272 | 0x03BF      |         959 |
|     273 | 0x1ED9      |        7897 |
|     274 | 0x00C9      |         201 |
|     275 | 0x0047      |          71 |
|     276 | 0xFFF7450C  |  4294395148 |
|     277 | 0xA007      |       40967 |
|     278 | 0x0D22      |        3362 |
|     279 | 0xFFF73FE7  |  4294393831 |
|     280 | 0x9623      |       38435 |
|     281 | 0x0FAA      |        4010 |
|     282 | 0x8CA7      |       36007 |
|     283 | 0x0ECD      |        3789 |
|     284 | 0xFFF73C89  |  4294392969 |
|     285 | 0x9ED0      |       40656 |
|     286 | 0xFFF73D34  |  4294393140 |
|     287 | 0xA6CC      |       42700 |
|     288 | 0xFFF73CE3  |  4294393059 |
|     289 | 0xB060      |       45152 |
|     290 | 0xFFF75594  |  4294399380 |
|     291 | 0xF40F      |       62479 |
|     292 | 0x038C      |         908 |
|     293 | 0xFFF75147  |  4294398279 |
|     294 | 0xF799      |       63385 |
|     295 | 0x00B9      |         185 |
|     296 | 0x01E0      |         480 |
|     297 | 0x0082      |         130 |
|     298 | 0x0345      |         837 |
|     299 | 0x1EDB      |        7899 |
|     300 | 0x1EDC      |        7900 |
|     301 | 0x1EDD      |        7901 |
|     302 | 0x1EDE      |        7902 |
|     303 | 0x1EDF      |        7903 |
|     304 | 0x1EE0      |        7904 |
|     305 | 0x1EE1      |        7905 |
|     306 | 0x1EE2      |        7906 |
|     307 | 0x1EE3      |        7907 |
|     308 | 0x1EE4      |        7908 |
|     309 | 0x1EE5      |        7909 |
|     310 | 0x1EE6      |        7910 |
|     311 | 0x1EE7      |        7911 |
|     312 | 0x1EE8      |        7912 |
|     313 | 0x1EE9      |        7913 |
|     314 | 0x1EEA      |        7914 |
|     315 | 0x1EEB      |        7915 |
|     316 | 0x1EEC      |        7916 |
|     317 | 0x007C      |         124 |
|     318 | 0x1EED      |        7917 |
|     319 | 0x1EEE      |        7918 |
|     320 | 0xFFF7469A  |  4294395546 |
|     321 | 0x8AC2      |       35522 |
|     322 | 0x07D0      |        2000 |
|     323 | 0x0441      |        1089 |
|     324 | 0x1EEF      |        7919 |
|     325 | 0x1EF0      |        7920 |
|     326 | 0x1EF1      |        7921 |
|     327 | 0x1EF2      |        7922 |
|     328 | 0x1EF3      |        7923 |
|     329 | 0x1EF4      |        7924 |
|     330 | 0x1EF5      |        7925 |
|     331 | 0x03C0      |         960 |
|     332 | 0x019A      |         410 |
|     333 | 0x0104      |         260 |
|     334 | 0xFFF73B02  |  4294392578 |
|     335 | 0x9717      |       38679 |
|     336 | 0x0D23      |        3363 |
|     337 | 0x1EF6      |        7926 |
|     338 | 0x1EF7      |        7927 |
|     339 | 0x1EF8      |        7928 |
|     340 | 0x1EF9      |        7929 |
|     341 | 0x1EFA      |        7930 |
|     342 | 0x1EFB      |        7931 |
|     343 | 0x1EFC      |        7932 |
|     344 | 0x1EFD      |        7933 |
|     345 | 0x1EFE      |        7934 |
|     346 | 0x1EFF      |        7935 |
|     347 | 0x1F00      |        7936 |
|     348 | 0x1F01      |        7937 |
|     349 | 0x1F02      |        7938 |
|     350 | 0x1F03      |        7939 |
|     351 | 0x1F04      |        7940 |
|     352 | 0x0011      |          17 |
|     353 | 0xFFFEF641  |  4294899265 |
|     354 | 0xFFFF0FA8  |  4294905768 |
|     355 | 0xFFFFE69C  |  4294960796 |
|     356 | 0x041A      |        1050 |
|     357 | 0xFFFEF1BF  |  4294898111 |
|     358 | 0xFFFEFE88  |  4294901384 |
|     359 | 0x0BA2      |        2978 |
|     360 | 0xFFFEF67F  |  4294899327 |
|     361 | 0xFFFEFCF8  |  4294900984 |
|     362 | 0xFFFEF003  |  4294897667 |
|     363 | 0xFFFEFAF1  |  4294900465 |
|     364 | 0x0B54      |        2900 |
|     365 | 0xFFFEED71  |  4294897009 |
|     366 | 0xFFFEFEA5  |  4294901413 |
|     367 | 0xFFFEDD36  |  4294892854 |
|     368 | 0xFFFEF086  |  4294897798 |
|     369 | 0x1F05      |        7941 |
|     370 | 0x1F06      |        7942 |
|     371 | 0x1F07      |        7943 |
|     372 | 0x1F08      |        7944 |
|     373 | 0x1F0A      |        7946 |
|     374 | 0x1F0B      |        7947 |
|     375 | 0x1F0C      |        7948 |
|     376 | 0x012C      |         300 |
|     377 | 0x006E      |         110 |
|     378 | 0x1F0D      |        7949 |
|     379 | 0x1F0E      |        7950 |
|     380 | 0x0096      |         150 |
|     381 | 0x1F0F      |        7951 |
|     382 | 0x0479      |        1145 |
|     383 | 0x009A      |         154 |
|     384 | 0x1F10      |        7952 |
|     385 | 0x1F11      |        7953 |
|     386 | 0x1F12      |        7954 |
|     387 | 0x1F13      |        7955 |
|     388 | 0x1F14      |        7956 |
|     389 | 0x1F15      |        7957 |
|     390 | 0x0015      |          21 |
|     391 | 0x1F16      |        7958 |
|     392 | 0x1F17      |        7959 |
|     393 | 0x1F18      |        7960 |
|     394 | 0x1F19      |        7961 |
|     395 | 0x1F1A      |        7962 |
|     396 | 0x1F1B      |        7963 |
|     397 | 0x1F1C      |        7964 |
|     398 | 0x1F1D      |        7965 |
|     399 | 0x1F1E      |        7966 |
|     400 | 0xFFFEF018  |  4294897688 |
|     401 | 0xFFFEF7A9  |  4294899625 |
|     402 | 0xFFFFE891  |  4294961297 |
|     403 | 0x0C80      |        3200 |
|     404 | 0xFFFEEB7B  |  4294896507 |
|     405 | 0xFFFEF401  |  4294898689 |
|     406 | 0xFFFEF127  |  4294897959 |
|     407 | 0xFFFEECED  |  4294896877 |
|     408 | 0xFFFEF5AF  |  4294899119 |
|     409 | 0xFFFEED50  |  4294896976 |
|     410 | 0x1F1F      |        7967 |
|     411 | 0x1F20      |        7968 |
|     412 | 0x1F21      |        7969 |
|     413 | 0x1F22      |        7970 |
|     414 | 0x1F23      |        7971 |
|     415 | 0x010A      |         266 |
|     416 | 0x1F24      |        7972 |
|     417 | 0x00FA      |         250 |
|     418 | 0x022F      |         559 |
|     419 | 0xFFFFFFF7  |  4294967287 |
|     420 | 0xB83C      |       47164 |
|     421 | 0x0BEA      |        3050 |
|     422 | 0xC3F1      |       50161 |
|     423 | 0x0419      |        1049 |
|     424 | 0x1F25      |        7973 |
|     425 | 0x1F26      |        7974 |
|     426 | 0x1F27      |        7975 |
|     427 | 0x045D      |        1117 |
|     428 | 0x1F28      |        7976 |
|     429 | 0x1F29      |        7977 |
|     430 | 0x1F2A      |        7978 |
|     431 | 0x1F2B      |        7979 |
|     432 | 0x1F2C      |        7980 |
|     433 | 0x1F2D      |        7981 |
|     434 | 0x1F2E      |        7982 |
|     435 | 0x1F2F      |        7983 |
|     436 | 0x1F30      |        7984 |
|     437 | 0x1F31      |        7985 |
|     438 | 0x1F32      |        7986 |
|     439 | 0x1F33      |        7987 |
|     440 | 0x1F34      |        7988 |
|     441 | 0x1F35      |        7989 |
|     442 | 0x1F36      |        7990 |
|     443 | 0x1F37      |        7991 |
|     444 | 0x1F38      |        7992 |
|     445 | 0x0033      |          51 |
|     446 | 0xFFFCD610  |  4294759952 |
|     447 | 0x141C4     |       82372 |
|     448 | 0xFFFFDF0F  |  4294958863 |
|     449 | 0x01F9      |         505 |
|     450 | 0x0095      |         149 |
|     451 | 0x1F39      |        7993 |
|     452 | 0x1F3A      |        7994 |
|     453 | 0x1F3B      |        7995 |
|     454 | 0x1F3C      |        7996 |
|     455 | 0x1F3D      |        7997 |
|     456 | 0x1F3E      |        7998 |
|     457 | 0x1F3F      |        7999 |
|     458 | 0x1F40      |        8000 |
|     459 | 0x1F41      |        8001 |
|     460 | 0x1F42      |        8002 |
|     461 | 0xFFFAD125  |  4294627621 |
|     462 | 0x9E9E6     |      649702 |
|     463 | 0xFFFF7940  |  4294932800 |
|     464 | 0x0C4E      |        3150 |
|     465 | 0xFFFAD309  |  4294628105 |
|     466 | 0x9A2E6     |      631526 |
|     467 | 0xFFFF86E8  |  4294936296 |
|     468 | 0x0C5C      |        3164 |
|     469 | 0x1D40      |        7488 |
|     470 | 0x1D41      |        7489 |
|     471 | 0x1D42      |        7490 |
|     472 | 0x1D43      |        7491 |
|     473 | 0x1D44      |        7492 |
|     474 | 0x1D45      |        7493 |
|     475 | 0x1D46      |        7494 |
|     476 | 0x099E      |        2462 |
|     477 | 0x1D47      |        7495 |
|     478 | 0x1D48      |        7496 |
|     479 | 0x1D49      |        7497 |
|     480 | 0x1D4A      |        7498 |
|     481 | 0x1D4B      |        7499 |
|     482 | 0x1D4C      |        7500 |
|     483 | 0x1D4D      |        7501 |
|     484 | 0x1D4E      |        7502 |
|     485 | 0x1D4F      |        7503 |
|     486 | 0x1D50      |        7504 |
|     487 | 0x1D51      |        7505 |
|     488 | 0x1D52      |        7506 |
|     489 | 0x1D53      |        7507 |
|     490 | 0xFFFFEF39  |  4294963001 |
|     491 | 0xFFFF9BF1  |  4294941681 |
|     492 | 0x08C9      |        2249 |
|     493 | 0xFFFFE4D2  |  4294960338 |
|     494 | 0xFFFF9488  |  4294939784 |
|     495 | 0x0E51      |        3665 |
|     496 | 0x1046      |        4166 |
|     497 | 0xFFFFED0F  |  4294962447 |
|     498 | 0x0514      |        1300 |
|     499 | 0x0A2E      |        2606 |
|     500 | 0xFFFFECF5  |  4294962421 |
|     501 | 0x0384      |         900 |
|     502 | 0x0D25      |        3365 |
|     503 | 0xFFFFE4BA  |  4294960314 |
|     504 | 0x0910      |        2320 |
|     505 | 0x00A3      |         163 |
|     506 | 0x0028      |          40 |
|     507 | 0x1D54      |        7508 |
|     508 | 0x1D55      |        7509 |
|     509 | 0x1D56      |        7510 |
|     510 | 0x1D57      |        7511 |
|     511 | 0x1D58      |        7512 |
|     512 | 0x1D59      |        7513 |
|     513 | 0x1D5A      |        7514 |
|     514 | 0x1D5B      |        7515 |
|     515 | 0x1D5C      |        7516 |
|     516 | 0x1D5D      |        7517 |
|     517 | 0x1D5E      |        7518 |
|     518 | 0x1D5F      |        7519 |
|     519 | 0xFFFFF55F  |  4294964575 |
|     520 | 0xFFFFB168  |  4294947176 |
|     521 | 0xFFFFEB91  |  4294962065 |
|     522 | 0xFFFFA42D  |  4294943789 |
|     523 | 0x08CA      |        2250 |
|     524 | 0x1D60      |        7520 |
|     525 | 0x1D61      |        7521 |
|     526 | 0x1D62      |        7522 |
|     527 | 0x1D63      |        7523 |
|     528 | 0x1D64      |        7524 |
|     529 | 0x1D65      |        7525 |
|     530 | 0x1D66      |        7526 |
|     531 | 0x1D67      |        7527 |
|     532 | 0x1D68      |        7528 |
|     533 | 0x1D69      |        7529 |
|     534 | 0x1D6A      |        7530 |
|     535 | 0x1D6B      |        7531 |
|     536 | 0x1D6C      |        7532 |
|     537 | 0x1D6D      |        7533 |
|     538 | 0x1D6E      |        7534 |
|     539 | 0x1D6F      |        7535 |
|     540 | 0x1D70      |        7536 |
|     541 | 0x1D71      |        7537 |
|     542 | 0x1D72      |        7538 |
|     543 | 0x0235      |         565 |
|     544 | 0x139E1     |       80353 |
|     545 | 0xFFFDEBF0  |  4294831088 |
|     546 | 0x0418      |        1048 |
|     547 | 0x12AF0     |       76528 |
|     548 | 0xFFFE1A42  |  4294842946 |
|     549 | 0x1D73      |        7539 |
|     550 | 0x1D74      |        7540 |
|     551 | 0x1D75      |        7541 |
|     552 | 0x1D76      |        7542 |
|     553 | 0x1D77      |        7543 |
|     554 | 0x1D78      |        7544 |
|     555 | 0x1D79      |        7545 |
|     556 | 0x1D7A      |        7546 |
|     557 | 0x1D7B      |        7547 |
|     558 | 0x1D7C      |        7548 |
|     559 | 0x1D7D      |        7549 |
|     560 | 0x1D7E      |        7550 |
|     561 | 0x1D7F      |        7551 |
|     562 | 0x1D80      |        7552 |
|     563 | 0x1D81      |        7553 |
|     564 | 0x1D82      |        7554 |
|     565 | 0x1D83      |        7555 |
|     566 | 0x1D84      |        7556 |
|     567 | 0x1D85      |        7557 |
|     568 | 0x1D86      |        7558 |
|     569 | 0x1D87      |        7559 |
|     570 | 0x1D88      |        7560 |
|     571 | 0x1D89      |        7561 |
|     572 | 0x1D8A      |        7562 |
|     573 | 0x1D8B      |        7563 |
|     574 | 0x1D8C      |        7564 |
|     575 | 0x1D8D      |        7565 |
|     576 | 0x1D8E      |        7566 |
|     577 | 0x1D8F      |        7567 |
|     578 | 0x1D90      |        7568 |
|     579 | 0x1D91      |        7569 |
|     580 | 0x1D92      |        7570 |
|     581 | 0x1D93      |        7571 |
|     582 | 0x1D94      |        7572 |
|     583 | 0x12B4F     |       76623 |
|     584 | 0xFFFE1D2B  |  4294843691 |
|     585 | 0x0417      |        1047 |
|     586 | 0x1D95      |        7573 |
|     587 | 0x1D96      |        7574 |
|     588 | 0x1D97      |        7575 |
|     589 | 0x1D98      |        7576 |
|     590 | 0x1D99      |        7577 |
|     591 | 0x1D9A      |        7578 |
|     592 | 0x1D9B      |        7579 |
|     593 | 0x1D9C      |        7580 |
|     594 | 0x1D9D      |        7581 |
|     595 | 0x1D9E      |        7582 |
|     596 | 0x1D9F      |        7583 |
|     597 | 0x1DA0      |        7584 |
|     598 | 0x1DA1      |        7585 |
|     599 | 0x1DA2      |        7586 |
|     600 | 0x1DA3      |        7587 |
|     601 | 0xFFFFEAFA  |  4294961914 |
|     602 | 0x0C1C      |        3100 |
|     603 | 0xFFFFF3D4  |  4294964180 |
|     604 | 0x08D2      |        2258 |
|     605 | 0xFFFFEE71  |  4294962801 |
|     606 | 0x0807      |        2055 |
|     607 | 0xFFFFFB0E  |  4294966030 |
|     608 | 0xFFFFF3CA  |  4294964170 |
|     609 | 0x02EE      |         750 |
|     610 | 0x0808      |        2056 |
|     611 | 0xFFFFE72A  |  4294960938 |
|     612 | 0xFFFFF70B  |  4294965003 |
|     613 | 0xFFFFEC11  |  4294962193 |
|     614 | 0x0116      |         278 |
|     615 | 0xFFFFF6C2  |  4294964930 |
|     616 | 0xFFFFE7CA  |  4294961098 |
|     617 | 0x0673      |        1651 |
|     618 | 0xFFFFF36F  |  4294964079 |
|     619 | 0xFFFFF722  |  4294965026 |
|     620 | 0xFFFFEEA0  |  4294962848 |
|     621 | 0x010E      |         270 |
|     622 | 0x00AC      |         172 |
|     623 | 0x1DA4      |        7588 |
|     624 | 0x1DA5      |        7589 |
|     625 | 0x1DA6      |        7590 |
|     626 | 0x1DA7      |        7591 |
|     627 | 0x1DA8      |        7592 |
|     628 | 0x1DA9      |        7593 |
|     629 | 0x1DAB      |        7595 |
|     630 | 0x1DAC      |        7596 |
|     631 | 0x1DAD      |        7597 |
|     632 | 0x1DAE      |        7598 |
|     633 | 0x1DAF      |        7599 |
|     634 | 0x1DB0      |        7600 |
|     635 | 0x1DB1      |        7601 |
|     636 | 0x1DB2      |        7602 |
|     637 | 0x1DB3      |        7603 |
|     638 | 0x1DB4      |        7604 |
|     639 | 0x1DB5      |        7605 |
|     640 | 0x1DB6      |        7606 |
|     641 | 0x1DB7      |        7607 |
|     642 | 0x1DB8      |        7608 |
|     643 | 0x1DB9      |        7609 |
|     644 | 0x1DBA      |        7610 |
|     645 | 0x1DBB      |        7611 |
|     646 | 0x1DBC      |        7612 |
|     647 | 0x1DBD      |        7613 |
|     648 | 0x1DBE      |        7614 |
|     649 | 0x1DBF      |        7615 |
|     650 | 0x1DC0      |        7616 |
|     651 | 0x1DC1      |        7617 |
|     652 | 0x1DC2      |        7618 |
|     653 | 0x1DC3      |        7619 |
|     654 | 0x1DC4      |        7620 |
|     655 | 0x1DC5      |        7621 |
|     656 | 0x1DC6      |        7622 |
|     657 | 0x1DC7      |        7623 |
|     658 | 0x1DC8      |        7624 |
|     659 | 0x09C3      |        2499 |
|     660 | 0xFFFFEA9D  |  4294961821 |
|     661 | 0x1DC9      |        7625 |
|     662 | 0x1DCA      |        7626 |
|     663 | 0x090E      |        2318 |
|     664 | 0xFFFFE8CC  |  4294961356 |
|     665 | 0x1DCB      |        7627 |
|     666 | 0x1DCC      |        7628 |
|     667 | 0x1DCD      |        7629 |
|     668 | 0x0010      |          16 |
|     669 | 0xFFFBF986  |  4294703494 |
|     670 | 0x6E968     |      452968 |
|     671 | 0xFFFF96DB  |  4294940379 |
|     672 | 0x04A5      |        1189 |
|     673 | 0xFFFBF4A8  |  4294702248 |
|     674 | 0x72601     |      468481 |
|     675 | 0xFFFF97B5  |  4294940597 |
|     676 | 0x0BCB      |        3019 |
|     677 | 0xFFFC0436  |  4294706230 |
|     678 | 0x701FB     |      459259 |
|     679 | 0xFFFF99AB  |  4294941099 |
|     680 | 0x0A65      |        2661 |
|     681 | 0xFFFBF968  |  4294703464 |
|     682 | 0x71054     |      462932 |
|     683 | 0xFFFF96B6  |  4294940342 |
|     684 | 0x0C4F      |        3151 |
|     685 | 0xFFFC0361  |  4294706017 |
|     686 | 0x70655     |      460373 |
|     687 | 0xFFFF9985  |  4294941061 |
|     688 | 0x0EF3      |        3827 |
|     689 | 0xFFFBF229  |  4294701609 |
|     690 | 0x6F4D4     |      455892 |
|     691 | 0xFFFF97AB  |  4294940587 |
|     692 | 0x0C50      |        3152 |
|     693 | 0x0382      |         898 |
|     694 | 0x0168      |         360 |
|     695 | 0x1DCE      |        7630 |
|     696 | 0x1DCF      |        7631 |
|     697 | 0x1DD0      |        7632 |
|     698 | 0x1DD1      |        7633 |
|     699 | 0x1DD2      |        7634 |
|     700 | 0x001D      |          29 |
|     701 | 0x1DD3      |        7635 |
|     702 | 0x1DD4      |        7636 |
|     703 | 0x1DD5      |        7637 |
|     704 | 0xFFFAEE1F  |  4294635039 |
|     705 | 0x9EC03     |      650243 |
|     706 | 0xFFFF4CD2  |  4294921426 |
|     707 | 0x02BC      |         700 |
|     708 | 0x00B4      |         180 |
|     709 | 0x1DD6      |        7638 |
|     710 | 0x1DD7      |        7639 |
|     711 | 0x1DD8      |        7640 |
|     712 | 0x1DD9      |        7641 |
|     713 | 0x1DDA      |        7642 |
|     714 | 0x1DDB      |        7643 |
|     715 | 0x1DDC      |        7644 |
|     716 | 0x1DDD      |        7645 |
|     717 | 0xFFFBE456  |  4294698070 |
|     718 | 0x67ECD     |      425677 |
|     719 | 0xFFFF9538  |  4294939960 |
|     720 | 0x1DDE      |        7646 |
|     721 | 0x1DDF      |        7647 |
|     722 | 0x1DE0      |        7648 |
|     723 | 0x1DE1      |        7649 |
|     724 | 0x1DE2      |        7650 |
|     725 | 0x1DE3      |        7651 |
|     726 | 0x1DE4      |        7652 |
|     727 | 0x1DE5      |        7653 |
|     728 | 0x03C6      |         966 |
|     729 | 0x1DE6      |        7654 |
|     730 | 0x1DE7      |        7655 |
|     731 | 0x1DE8      |        7656 |
|     732 | 0x1DE9      |        7657 |
|     733 | 0x1DEA      |        7658 |
|     734 | 0x1DEB      |        7659 |
|     735 | 0x1DEC      |        7660 |
|     736 | 0x1DED      |        7661 |
|     737 | 0x1DEE      |        7662 |
|     738 | 0x1DEF      |        7663 |
|     739 | 0x1DF0      |        7664 |
|     740 | 0x1DF1      |        7665 |
|     741 | 0x1DF2      |        7666 |
|     742 | 0x1DF3      |        7667 |
|     743 | 0x1DF4      |        7668 |
|     744 | 0x1DF5      |        7669 |
|     745 | 0xFFFBD793  |  4294694803 |
|     746 | 0x6905A     |      430170 |
|     747 | 0xFFFF90E5  |  4294938853 |
|     748 | 0xFFFBFBFC  |  4294704124 |
|     749 | 0x6895D     |      428381 |
|     750 | 0xFFFF976A  |  4294940522 |
|     751 | 0x1DF6      |        7670 |
|     752 | 0x0461      |        1121 |
|     753 | 0x1DF7      |        7671 |
|     754 | 0x1DF8      |        7672 |
|     755 | 0x1DF9      |        7673 |
|     756 | 0x1DFA      |        7674 |
|     757 | 0x1DFB      |        7675 |
|     758 | 0x1DFC      |        7676 |
|     759 | 0x1DFD      |        7677 |
|     760 | 0x00DC      |         220 |
|     761 | 0xC4A7      |       50343 |
|     762 | 0x1C1AC     |      115116 |
|     763 | 0x0952      |        2386 |
|     764 | 0xACC8      |       44232 |
|     765 | 0x1FDB6     |      130486 |
|     766 | 0xFFFFFE72  |  4294966898 |
|     767 | 0x0E49      |        3657 |
|     768 | 0x100EC     |       65772 |
|     769 | 0x8B7A      |       35706 |
|     770 | 0x071D      |        1821 |
|     771 | 0x1268A     |       75402 |
|     772 | 0xAF1F      |       44831 |
|     773 | 0x07C6      |        1990 |
|     774 | 0xD718      |       55064 |
|     775 | 0x1C155     |      115029 |
|     776 | 0x0951      |        2385 |
|     777 | 0xA29B      |       41627 |
|     778 | 0x1B262     |      111202 |
|     779 | 0xFFFFFF36  |  4294967094 |
|     780 | 0x02ED      |         749 |
|     781 | 0x69D8      |       27096 |
|     782 | 0x1AE51     |      110161 |
|     783 | 0x0296      |         662 |
|     784 | 0x7FEF      |       32751 |
|     785 | 0x21DB9     |      138681 |
|     786 | 0x0839      |        2105 |
|     787 | 0x58E4      |       22756 |
|     788 | 0x1D2C1     |      119489 |
|     789 | 0x00C7      |         199 |
|     790 | 0x0970      |        2416 |
|     791 | 0x9D4C      |       40268 |
|     792 | 0x2378C     |      145292 |
|     793 | 0x0804      |        2052 |
|     794 | 0x15D3A     |       89402 |
|     795 | 0x9EEC      |       40684 |
|     796 | 0xFFFFFE8A  |  4294966922 |
|     797 | 0x07C7      |        1991 |
|     798 | 0x1465B     |       83547 |
|     799 | 0xA4CA      |       42186 |
|     800 | 0xD39B      |       54171 |
|     801 | 0x8792      |       34706 |
|     802 | 0x0FE7      |        4071 |
|     803 | 0x110B0     |       69808 |
|     804 | 0x6051      |       24657 |
|     805 | 0x8AF0      |       35568 |
|     806 | 0x72FD      |       29437 |
|     807 | 0x3033      |       12339 |
|     808 | 0xB220      |       45600 |
|     809 | 0xFFFFC73F  |  4294952767 |
|     810 | 0xA117      |       41239 |
|     811 | 0xDFE1      |       57313 |
|     812 | 0x17191     |       94609 |
|     813 | 0xB4F4      |       46324 |
|     814 | 0xFFFFF977  |  4294965623 |
|     815 | 0x812F      |       33071 |
|     816 | 0xA843      |       43075 |
|     817 | 0x0A78      |        2680 |
|     818 | 0x10CE4     |       68836 |
|     819 | 0xB677      |       46711 |
|     820 | 0x13AC4     |       80580 |
|     821 | 0x7A58      |       31320 |
|     822 | 0x0CCE      |        3278 |
|     823 | 0x1DFE      |        7678 |
|     824 | 0x1DFF      |        7679 |
|     825 | 0x1E00      |        7680 |
|     826 | 0x1E01      |        7681 |
|     827 | 0x1E02      |        7682 |
|     828 | 0x1E03      |        7683 |
|     829 | 0x14A5A     |       84570 |
|     830 | 0xA3C1      |       41921 |
|     831 | 0x1E04      |        7684 |
|     832 | 0x1E05      |        7685 |
|     833 | 0x1E06      |        7686 |
|     834 | 0x0462      |        1122 |
|     835 | 0x029D      |         669 |
|     836 | 0xFFFF41B6  |  4294918582 |
|     837 | 0x0BE4      |        3044 |
|     838 | 0xFFFFFF64  |  4294967140 |
|     839 | 0xFFFF4734  |  4294919988 |
|     840 | 0x0BE2      |        3042 |
|     841 | 0x0E2B      |        3627 |
|     842 | 0xFFFFE4BB  |  4294960315 |
|     843 | 0x09C4      |        2500 |
|     844 | 0x007B      |         123 |
|     845 | 0x1E07      |        7687 |
|     846 | 0x1E08      |        7688 |
|     847 | 0x1E09      |        7689 |
|     848 | 0x1E0A      |        7690 |
|     849 | 0x1E0B      |        7691 |
|     850 | 0x1E0C      |        7692 |
|     851 | 0x1E0D      |        7693 |
|     852 | 0x1E0E      |        7694 |
|     853 | 0x1E0F      |        7695 |
|     854 | 0x1E10      |        7696 |
|     855 | 0x1E11      |        7697 |
|     856 | 0x1E12      |        7698 |
|     857 | 0x1E13      |        7699 |
|     858 | 0x1E14      |        7700 |
|     859 | 0x1E15      |        7701 |
|     860 | 0x1E16      |        7702 |
|     861 | 0x1E17      |        7703 |
|     862 | 0x1E18      |        7704 |
|     863 | 0x1E19      |        7705 |
|     864 | 0x1E1A      |        7706 |
|     865 | 0xFFFFFFDE  |  4294967262 |
|     866 | 0xB256      |       45654 |
|     867 | 0x03C4      |         964 |
|     868 | 0x1E1B      |        7707 |
|     869 | 0x1E1C      |        7708 |
|     870 | 0x1E1D      |        7709 |
|     871 | 0x1E1E      |        7710 |
|     872 | 0x1E1F      |        7711 |
|     873 | 0x1E20      |        7712 |
|     874 | 0x1E21      |        7713 |
|     875 | 0x1E22      |        7714 |
|     876 | 0x03BA      |         954 |
|     877 | 0x1E23      |        7715 |
|     878 | 0x1E24      |        7716 |
|     879 | 0x1E25      |        7717 |
|     880 | 0x1E26      |        7718 |
|     881 | 0x1E27      |        7719 |
|     882 | 0x1E28      |        7720 |
|     883 | 0x1E29      |        7721 |
|     884 | 0x1E2A      |        7722 |
|     885 | 0x1E2B      |        7723 |
|     886 | 0x1E2C      |        7724 |
|     887 | 0x1E2D      |        7725 |
|     888 | 0x1E2E      |        7726 |
|     889 | 0x00AE      |         174 |
|     890 | 0x1E2F      |        7727 |
|     891 | 0x1E30      |        7728 |
|     892 | 0x1E31      |        7729 |
|     893 | 0x1E32      |        7730 |
|     894 | 0x1E33      |        7731 |
|     895 | 0x1E34      |        7732 |
|     896 | 0x1E35      |        7733 |
|     897 | 0x1E36      |        7734 |
|     898 | 0x1E37      |        7735 |
|     899 | 0x1E38      |        7736 |
|     900 | 0x1E39      |        7737 |
|     901 | 0x1E3A      |        7738 |
|     902 | 0x1E3B      |        7739 |
|     903 | 0x1E3C      |        7740 |
|     904 | 0x1E3D      |        7741 |
|     905 | 0x1E3E      |        7742 |
|     906 | 0x1E3F      |        7743 |
|     907 | 0x1E40      |        7744 |
|     908 | 0x03C5      |         965 |
|     909 | 0x1E41      |        7745 |
|     910 | 0x0037      |          55 |
|     911 | 0xFFFFFFA4  |  4294967204 |
|     912 | 0xC21E      |       49694 |
|     913 | 0xFFFFFFC8  |  4294967240 |
|     914 | 0xB34C      |       45900 |
|     915 | 0x0BB8      |        3000 |
|     916 | 0x1E42      |        7746 |
|     917 | 0x008C      |         140 |
|     918 | 0x1E43      |        7747 |
|     919 | 0x1E44      |        7748 |
|     920 | 0x1E45      |        7749 |
|     921 | 0x1E46      |        7750 |
|     922 | 0x1E47      |        7751 |
|     923 | 0x1E48      |        7752 |
|     924 | 0x1E49      |        7753 |
|     925 | 0x1E4A      |        7754 |
|     926 | 0x1E4B      |        7755 |
|     927 | 0x1E4C      |        7756 |
|     928 | 0x1E4D      |        7757 |
|     929 | 0x1E4E      |        7758 |
|     930 | 0x1E4F      |        7759 |
|     931 | 0x1E50      |        7760 |
|     932 | 0x1E51      |        7761 |
|     933 | 0x1E52      |        7762 |
|     934 | 0x1E53      |        7763 |
|     935 | 0xFFFAE5B2  |  4294632882 |
|     936 | 0x9BF56     |      638806 |
|     937 | 0xFFFF8490  |  4294935696 |
|     938 | 0xFFFAD8E8  |  4294629608 |
|     939 | 0x9C43B     |      640059 |
|     940 | 0xFFFF84F4  |  4294935796 |
|     941 | 0x0C05      |        3077 |
|     942 | 0x1E54      |        7764 |
|     943 | 0x1E55      |        7765 |
|     944 | 0x1E56      |        7766 |
|     945 | 0x1E57      |        7767 |
|     946 | 0x1E58      |        7768 |
|     947 | 0x1E59      |        7769 |
|     948 | 0x1E5A      |        7770 |
|     949 | 0x1E5B      |        7771 |
|     950 | 0x1E5C      |        7772 |
|     951 | 0x1E5D      |        7773 |
|     952 | 0x1E5E      |        7774 |
|     953 | 0x1E5F      |        7775 |
|     954 | 0x1E60      |        7776 |
|     955 | 0x1E61      |        7777 |
|     956 | 0x1E62      |        7778 |
|     957 | 0x003A      |          58 |
|     958 | 0x0138      |         312 |
|     959 | 0x0136      |         310 |
|     960 | 0x376B      |       14187 |
|     961 | 0xA792      |       42898 |
|     962 | 0xFFFFC302  |  4294951682 |
|     963 | 0x0834      |        2100 |
|     964 | 0x52C7      |       21191 |
|     965 | 0xAA49      |       43593 |
|     966 | 0xFFFFC374  |  4294951796 |
|     967 | 0x0C1E      |        3102 |
|     968 | 0x1A37      |        6711 |
|     969 | 0x9086      |       36998 |
|     970 | 0xFFFFC228  |  4294951464 |
|     971 | 0x005E      |          94 |
|     972 | 0x014A      |         330 |
|     973 | 0x004D      |          77 |
|     974 | 0xFFF81AB8  |  4294449848 |
|     975 | 0x6AC5E     |      437342 |
|     976 | 0x01F3      |         499 |
|     977 | 0xFFF81374  |  4294447988 |
|     978 | 0x6B179     |      438649 |
|     979 | 0xFFF817B2  |  4294449074 |
|     980 | 0x6C48F     |      443535 |
|     981 | 0x04A4      |        1188 |
|     982 | 0x042F      |        1071 |
|     983 | 0x0495      |        1173 |
|     984 | 0x0066      |         102 |
|     985 | 0x0499      |        1177 |
|     986 | 0x0087      |         135 |
|     987 | 0x0122      |         290 |
|     988 | 0xFFF80761  |  4294444897 |
|     989 | 0x6B86B     |      440427 |
|     990 | 0x05DC      |        1500 |
|     991 | 0x210F      |        8463 |
|     992 | 0x2110      |        8464 |
|     993 | 0x2111      |        8465 |
|     994 | 0x2112      |        8466 |
|     995 | 0x2113      |        8467 |
|     996 | 0x2114      |        8468 |
|     997 | 0x2115      |        8469 |
|     998 | 0x2116      |        8470 |
|     999 | 0xFFF801E7  |  4294443495 |
|    1000 | 0x6B788     |      440200 |
|    1001 | 0x2117      |        8471 |
|    1002 | 0x2118      |        8472 |
|    1003 | 0x2119      |        8473 |
|    1004 | 0x211A      |        8474 |
|    1005 | 0x211B      |        8475 |
|    1006 | 0x211C      |        8476 |
|    1007 | 0x211D      |        8477 |
|    1008 | 0x211E      |        8478 |
|    1009 | 0x211F      |        8479 |
|    1010 | 0x2120      |        8480 |
|    1011 | 0x0347      |         839 |
|    1012 | 0x2121      |        8481 |
|    1013 | 0x2122      |        8482 |
|    1014 | 0xFFF804A1  |  4294444193 |
|    1015 | 0x6AE27     |      437799 |
|    1016 | 0x035F      |         863 |
|    1017 | 0x2123      |        8483 |
|    1018 | 0x2124      |        8484 |
|    1019 | 0x2125      |        8485 |
|    1020 | 0x2126      |        8486 |
|    1021 | 0x2127      |        8487 |
|    1022 | 0x2128      |        8488 |
|    1023 | 0x2129      |        8489 |
|    1024 | 0x212A      |        8490 |
|    1025 | 0x212B      |        8491 |
|    1026 | 0x042E      |        1070 |
|    1027 | 0x212C      |        8492 |
|    1028 | 0x00E9      |         233 |
|    1029 | 0xFFFD6408  |  4294796296 |
|    1030 | 0x20B70     |      134000 |
|    1031 | 0xFFFFB5C8  |  4294948296 |
|    1032 | 0xFFFCB54F  |  4294751567 |
|    1033 | 0x1403A     |       81978 |
|    1034 | 0xFFFCFCA3  |  4294769827 |
|    1035 | 0x15F9A     |       90010 |
|    1036 | 0xFFFFDBA4  |  4294957988 |
|    1037 | 0x06ED      |        1773 |
|    1038 | 0xFFFCB955  |  4294752597 |
|    1039 | 0x14953     |       84307 |
|    1040 | 0xFFFFD8AA  |  4294957226 |
|    1041 | 0x0FAB      |        4011 |
|    1042 | 0x215B      |        8539 |
|    1043 | 0x0060      |          96 |
|    1044 | 0x00DB      |         219 |
|    1045 | 0xFFFCBE89  |  4294753929 |
|    1046 | 0x14171     |       82289 |
|    1047 | 0x0859      |        2137 |
|    1048 | 0x212D      |        8493 |
|    1049 | 0x212E      |        8494 |
|    1050 | 0x212F      |        8495 |
|    1051 | 0x2130      |        8496 |
|    1052 | 0x2131      |        8497 |
|    1053 | 0x2132      |        8498 |
|    1054 | 0x2133      |        8499 |
|    1055 | 0x2134      |        8500 |
|    1056 | 0x2135      |        8501 |
|    1057 | 0x2136      |        8502 |
|    1058 | 0x2137      |        8503 |
|    1059 | 0x2138      |        8504 |
|    1060 | 0x2139      |        8505 |
|    1061 | 0x00B6      |         182 |
|    1062 | 0x213A      |        8506 |

## String References

- **7861**: Al Zahbi is under attack!
- **7862**: The Mamool Ja Savages have breached the Balrahn Defense Line!
- **7863**: They are advancing on the Imperial capital!
- **7864**: Martial law has been declared in Al Zahbi! Repeating... Martial law has been declared in Al Zahbi!
- **8539**: 

## Events

### Event 65535

#### Metadata

| Field        | Value   |
|--------------|---------|
| Entrypoint   | 0x0000  |
| Data Size    | 1 bytes |
| Instructions | 1       |

```
      00 01 02 03 04 05 06 07  08 09 0A 0B 0C 0D 0E 0F
      -- -- -- -- -- -- -- --  -- -- -- -- -- -- -- --
0000: 00                                                .               
```

#### Opcodes

```
  0: 0x0000 [0x00] END_REQSTACK()
```

### Event 2

#### Metadata

| Field        | Value   |
|--------------|---------|
| Entrypoint   | 0x0001  |
| Data Size    | 1 bytes |
| Instructions | 1       |

```
      00 01 02 03 04 05 06 07  08 09 0A 0B 0C 0D 0E 0F
      -- -- -- -- -- -- -- --  -- -- -- -- -- -- -- --
0000:    00                                              .              
```

#### Opcodes

```
  0: 0x0001 [0x00] END_REQSTACK()
```

### Event 3

#### Metadata

| Field        | Value   |
|--------------|---------|
| Entrypoint   | 0x0002  |
| Data Size    | 1 bytes |
| Instructions | 1       |

```
      00 01 02 03 04 05 06 07  08 09 0A 0B 0C 0D 0E 0F
      -- -- -- -- -- -- -- --  -- -- -- -- -- -- -- --
0000:       00                                            .             
```

#### Opcodes

```
  0: 0x0002 [0x00] END_REQSTACK()
```

### Event 65535.1

#### Metadata

| Field        | Value    |
|--------------|----------|
| Entrypoint   | 0x0003   |
| Data Size    | 12 bytes |
| Instructions | 3        |

```
      00 01 02 03 04 05 06 07  08 09 0A 0B 0C 0D 0E 0F
      -- -- -- -- -- -- -- --  -- -- -- -- -- -- -- --
0000:          22 00 37 00 80  01 80 02 80 03 80 00        ".7......... 
```

#### Opcodes

```
  0: 0x0003 [0x22] ENTITY_HIDE_FLAG(enabled=0x00)
  1: 0x0005 [0x37] UPDATE_EVENT_POSITION_AND_DIR: x=-200.036*, z=79.948*, y=-10.000*, direction=358.2°*
  2: 0x000E [0x00] END_REQSTACK()
```

### Event 511

#### Metadata

| Field        | Value       |
|--------------|-------------|
| Entrypoint   | 0x000F      |
| Data Size    | 12790 bytes |
| Instructions | 1641        |

```
      00 01 02 03 04 05 06 07  08 09 0A 0B 0C 0D 0E 0F
      -- -- -- -- -- -- -- --  -- -- -- -- -- -- -- --
0000:                                               42                 B
0010: 45 04 80 F8 FF FF 7F F8  FF FF 7F 66 64 6F 31 05  E..........fdo1.
0020: 80 55 04 80 F8 FF FF 7F  F8 FF FF 7F 66 64 6F 31  .U..........fdo1
0030: 46 01 38 06 80 BA F0 FF  FF 7F 07 80 08 80 09 80  F.8.............
0040: 0A 80 BA 2F 32 03 01 0B  80 0C 80 0D 80 0E 80 4E  .../2..........N
0050: 00 2F 32 03 01 80 2F 32  03 01 2F 00 2F 32 03 01  ./2.../2.././2..
0060: 94 01 F0 FF FF 7F 94 01  2F 32 03 01 80 F0 FF FF  ......../2......
0070: 7F 92 01 2F 32 03 01 92  01 30 32 03 01 92 01 31  .../2....02....1
0080: 32 03 01 92 01 4A 32 03  01 92 01 4B 32 03 01 92  2....J2....K2...
0090: 01 4C 32 03 01 92 01 4D  32 03 01 92 01 4E 32 03  .L2....M2....N2.
00A0: 01 92 01 54 32 03 01 92  01 53 32 03 01 92 01 52  ...T2....S2....R
00B0: 32 03 01 92 01 51 32 03  01 92 01 3B 32 03 01 92  2....Q2....;2...
00C0: 01 4F 32 03 01 92 01 50  32 03 01 1C 0F 80 45 10  .O2....P2.....E.
00D0: 80 F0 FF FF 7F F0 FF FF  7F 7A 7A 7A 7A 05 80 45  .........zzzz..E
00E0: 04 80 F8 FF FF 7F F8 FF  FF 7F 66 64 69 31 05 80  ..........fdi1..
00F0: 1C 04 80 52 10 80 F0 FF  FF 7F F0 FF FF 7F 7A 7A  ...R..........zz
0100: 7A 7A 27 10 2F 32 03 01  02 45 10 80 F0 FF FF 7F  zz'./2...E......
0110: F0 FF FF 7F 7A 30 30 30  05 80 1C 0F 80 2B 2F 32  ....z000.....+/2
0120: 03 01 11 80 23 4A F0 FF  FF 7F 2F 32 03 01 1C 0F  ....#J..../2....
0130: 80 52 10 80 F0 FF FF 7F  F0 FF FF 7F 7A 30 30 30  .R..........z000
0140: 45 10 80 F0 FF FF 7F F0  FF FF 7F 7A 30 30 31 05  E..........z001.
0150: 80 2A 10 2F 32 03 01 1C  12 80 6E 2F 32 03 01 13  .*./2.....n/2...
0160: 80 99 2F 32 03 01 2B 2F  32 03 01 14 80 23 2B 2F  ../2..+/2....#+/
0170: 32 03 01 15 80 23 99 2F  32 03 01 52 10 80 F0 FF  2....#./2..R....
0180: FF 7F F0 FF FF 7F 7A 30  30 31 45 10 80 F0 FF FF  ......z001E.....
0190: 7F F0 FF FF 7F 7A 30 30  32 05 80 1C 0E 80 2B 2F  .....z002.....+/
01A0: 32 03 01 16 80 23 52 10  80 F0 FF FF 7F F0 FF FF  2....#R.........
01B0: 7F 7A 30 30 32 45 10 80  F0 FF FF 7F F0 FF FF 7F  .z002E..........
01C0: 7A 30 30 33 05 80 03 02  10 17 80 66 18 80 2F 32  z003.......f../2
01D0: 03 01 2F 32 03 01 74 77  61 30 2B 2F 32 03 01 19  ../2..twa0+/2...
01E0: 80 23 52 10 80 F0 FF FF  7F F0 FF FF 7F 7A 30 30  .#R..........z00
01F0: 33 45 1A 80 F0 FF FF 7F  F0 FF FF 7F 74 69 67 65  3E..........tige
0200: 05 80 1C 0F 80 66 18 80  2F 32 03 01 2F 32 03 01  .....f../2../2..
0210: 74 77 61 31 2B 2F 32 03  01 1B 80 23 1C 12 80 52  twa1+/2....#...R
0220: 1A 80 F0 FF FF 7F F0 FF  FF 7F 74 69 67 65 45 10  ..........tigeE.
0230: 80 F0 FF FF 7F F0 FF FF  7F 7A 30 30 34 05 80 1C  .........z004...
0240: 0F 80 2B 2F 32 03 01 1C  80 23 27 10 2F 32 03 01  ..+/2....#'./2..
0250: 03 1C 0F 80 52 10 80 F0  FF FF 7F F0 FF FF 7F 7A  ....R..........z
0260: 30 30 34 4A F0 FF FF 7F  2F 32 03 01 45 1A 80 F0  004J..../2..E...
0270: FF FF 7F F0 FF FF 7F 6B  69 6B 65 05 80 1C 12 80  .......kike.....
0280: 2B 2F 32 03 01 1D 80 23  2B 2F 32 03 01 1E 80 23  +/2....#+/2....#
0290: 2A 10 2F 32 03 01 52 1A  80 F0 FF FF 7F F0 FF FF  *./2..R.........
02A0: 7F 6B 69 6B 65 45 10 80  F0 FF FF 7F F0 FF FF 7F  .kikeE..........
02B0: 7A 30 30 35 05 80 4A 2F  32 03 01 F0 FF FF 7F 2B  z005..J/2......+
02C0: 2F 32 03 01 1F 80 23 2B  2F 32 03 01 20 80 23 52  /2....#+/2.. .#R
02D0: 10 80 F0 FF FF 7F F0 FF  FF 7F 7A 30 30 35 45 1A  ..........z005E.
02E0: 80 F0 FF FF 7F F0 FF FF  7F 67 61 68 61 05 80 1C  .........gaha...
02F0: 12 80 6E 2F 32 03 01 21  80 99 2F 32 03 01 2B 2F  ..n/2..!../2..+/
0300: 32 03 01 22 80 23 52 1A  80 F0 FF FF 7F F0 FF FF  2..".#R.........
0310: 7F 67 61 68 61 45 10 80  F0 FF FF 7F F0 FF FF 7F  .gahaE..........
0320: 7A 30 30 36 05 80 2B 2F  32 03 01 23 80 23 2B 2F  z006..+/2..#.#+/
0330: 32 03 01 24 80 23 2B 2F  32 03 01 25 80 23 52 10  2..$.#+/2..%.#R.
0340: 80 F0 FF FF 7F F0 FF FF  7F 7A 30 30 36 45 10 80  .........z006E..
0350: F0 FF FF 7F F0 FF FF 7F  7A 30 30 37 05 80 1C 12  ........z007....
0360: 80 2B 2F 32 03 01 26 80  23 1C 27 80 5D 05 80 28  .+/2..&.#.'.]..(
0370: 80 45 04 80 F8 FF FF 7F  F8 FF FF 7F 66 64 6F 31  .E..........fdo1
0380: 05 80 55 04 80 F8 FF FF  7F F8 FF FF 7F 66 64 6F  ..U..........fdo
0390: 31 52 10 80 F0 FF FF 7F  F0 FF FF 7F 7A 30 30 37  1R..........z007
03A0: 4E 01 2F 32 03 01 4E 01  F0 FF FF 7F 34 29 80 77  N./2..N.....4).w
03B0: 2A 80 2B 80 1C 2C 80 45  2D 80 F0 FF FF 7F F0 FF  *.+..,.E-.......
03C0: FF 7F 6E 6F 73 65 05 80  55 2D 80 F0 FF FF 7F F0  ..nose..U-......
03D0: FF FF 7F 6E 6F 73 65 6A  2E 80 0F 80 2F 80 AB 09  ...nosej..../...
03E0: 1C 30 80 4E 00 30 32 03  01 4E 00 54 32 03 01 4E  .0.N.02..N.T2..N
03F0: 00 53 32 03 01 4E 00 5E  32 03 01 4E 00 5F 32 03  .S2..N.^2..N._2.
0400: 01 4E 00 60 32 03 01 4E  00 61 32 03 01 92 01 30  .N.`2..N.a2....0
0410: 32 03 01 92 01 54 32 03  01 92 01 53 32 03 01 BA  2....T2....S2...
0420: 30 32 03 01 31 80 32 80  05 80 33 80 BA 54 32 03  02..1.2...3..T2.
0430: 01 34 80 35 80 05 80 36  80 BA 53 32 03 01 37 80  .4.5...6..S2..7.
0440: 38 80 05 80 39 80 80 30  32 03 01 80 54 32 03 01  8...9..02...T2..
0450: 80 53 32 03 01 80 5E 32  03 01 80 5F 32 03 01 80  .S2...^2..._2...
0460: 60 32 03 01 80 61 32 03  01 94 01 30 32 03 01 94  `2...a2....02...
0470: 01 54 32 03 01 94 01 53  32 03 01 1C 0F 80 5C 00  .T2....S2.....\.
0480: 3A 80 5C 01 3A 80 9A 27  10 30 32 03 01 09 4A 54  :.\.:..'.02...JT
0490: 32 03 01 30 32 03 01 45  10 80 F0 FF FF 7F F0 FF  2..02..E........
04A0: FF 7F 79 30 30 30 05 80  45 04 80 F8 FF FF 7F F8  ..y000..E.......
04B0: FF FF 7F 66 64 69 31 05  80 1C 27 80 2B 54 32 03  ...fdi1...'.+T2.
04C0: 01 3B 80 23 52 10 80 F0  FF FF 7F F0 FF FF 7F 79  .;.#R..........y
04D0: 30 30 30 45 10 80 F0 FF  FF 7F F0 FF FF 7F 79 6F  000E..........yo
04E0: 75 75 05 80 1C 30 80 2A  10 30 32 03 01 4A 30 32  uu...0.*.02..J02
04F0: 03 01 54 32 03 01 2B 30  32 03 01 3C 80 23 27 10  ..T2..+02..<.#'.
0500: 54 32 03 01 03 1C 30 80  52 10 80 F0 FF FF 7F F0  T2....0.R.......
0510: FF FF 7F 79 30 30 30 45  10 80 F0 FF FF 7F F0 FF  ...y000E........
0520: FF 7F 79 30 30 31 05 80  2A 10 54 32 03 01 6E 54  ..y001..*.T2..nT
0530: 32 03 01 3D 80 99 54 32  03 01 2B 54 32 03 01 3E  2..=..T2..+T2..>
0540: 80 23 5B 3F 80 30 32 03  01 30 32 03 01 75 64 65  .#[?.02..02..ude
0550: 30 2B 30 32 03 01 40 80  23 99 54 32 03 01 2B 54  0+02..@.#.T2..+T
0560: 32 03 01 41 80 23 99 54  32 03 01 52 10 80 F0 FF  2..A.#.T2..R....
0570: FF 7F F0 FF FF 7F 79 30  30 31 45 10 80 F0 FF FF  ......y001E.....
0580: 7F F0 FF FF 7F 79 30 30  32 05 80 5B 3F 80 30 32  .....y002..[?.02
0590: 03 01 30 32 03 01 75 64  65 31 2B 30 32 03 01 42  ..02..ude1+02..B
05A0: 80 23 6E 54 32 03 01 43  80 99 54 32 03 01 2B 54  .#nT2..C..T2..+T
05B0: 32 03 01 44 80 23 1C 30  80 53 30 32 03 01 30 32  2..D.#.0.S02..02
05C0: 03 01 75 64 65 31 6E 30  32 03 01 45 80 99 30 32  ..ude1n02..E..02
05D0: 03 01 2B 30 32 03 01 46  80 23 99 30 32 03 01 1C  ..+02..F.#.02...
05E0: 12 80 52 10 80 F0 FF FF  7F F0 FF FF 7F 79 30 30  ..R..........y00
05F0: 32 27 10 53 32 03 01 02  45 10 80 F0 FF FF 7F F0  2'.S2...E.......
0600: FF FF 7F 79 30 30 33 05  80 1C 27 80 2B 53 32 03  ...y003...'.+S2.
0610: 01 47 80 23 79 00 30 32  03 01 53 32 03 01 4A 54  .G.#y.02..S2..JT
0620: 32 03 01 53 32 03 01 2B  30 32 03 01 48 80 23 52  2..S2..+02..H.#R
0630: 10 80 F0 FF FF 7F F0 FF  FF 7F 79 30 30 33 45 10  ..........y003E.
0640: 80 F0 FF FF 7F F0 FF FF  7F 79 30 30 34 05 80 2A  .........y004..*
0650: 10 53 32 03 01 66 49 80  53 32 03 01 53 32 03 01  .S2..fI.S2..S2..
0660: 74 6C 6B 30 2B 53 32 03  01 4A 80 23 66 49 80 53  tlk0+S2..J.#fI.S
0670: 32 03 01 53 32 03 01 74  6C 6B 31 1C 30 80 52 10  2..S2..tlk1.0.R.
0680: 80 F0 FF FF 7F F0 FF FF  7F 79 30 30 34 45 10 80  .........y004E..
0690: F0 FF FF 7F F0 FF FF 7F  79 30 30 35 05 80 1C 2F  ........y005.../
06A0: 80 66 18 80 30 32 03 01  30 32 03 01 74 77 62 30  .f..02..02..twb0
06B0: 2B 30 32 03 01 4B 80 23  1C 2F 80 66 18 80 30 32  +02..K.#./.f..02
06C0: 03 01 30 32 03 01 74 77  62 31 1C 2F 80 52 10 80  ..02..twb1./.R..
06D0: F0 FF FF 7F F0 FF FF 7F  79 30 30 35 45 10 80 F0  ........y005E...
06E0: FF FF 7F F0 FF FF 7F 79  30 30 36 05 80 1C 4C 80  .......y006...L.
06F0: 6E 53 32 03 01 4D 80 99  53 32 03 01 2B 53 32 03  nS2..M..S2..+S2.
0700: 01 4E 80 23 52 10 80 F0  FF FF 7F F0 FF FF 7F 79  .N.#R..........y
0710: 30 30 36 45 10 80 F0 FF  FF 7F F0 FF FF 7F 79 30  006E..........y0
0720: 30 37 05 80 1C 12 80 2B  30 32 03 01 4F 80 23 52  07.....+02..O.#R
0730: 10 80 F0 FF FF 7F F0 FF  FF 7F 79 30 30 37 45 10  ..........y007E.
0740: 80 F0 FF FF 7F F0 FF FF  7F 79 30 30 38 05 80 2B  .........y008..+
0750: 53 32 03 01 50 80 23 2B  53 32 03 01 51 80 23 1C  S2..P.#+S2..Q.#.
0760: 30 80 2B 30 32 03 01 52  80 23 79 00 30 32 03 01  0.+02..R.#y.02..
0770: 54 32 03 01 79 00 54 32  03 01 53 32 03 01 2B 30  T2..y.T2..S2..+0
0780: 32 03 01 53 80 23 7B 30  32 03 01 27 10 30 32 03  2..S.#{02..'.02.
0790: 01 0A 1C 0F 80 5D 05 80  28 80 45 04 80 F8 FF FF  .....]..(.E.....
07A0: 7F F8 FF FF 7F 66 64 6F  31 05 80 55 04 80 F8 FF  .....fdo1..U....
07B0: FF 7F F8 FF FF 7F 66 64  6F 31 52 10 80 F0 FF FF  ......fdo1R.....
07C0: 7F F0 FF FF 7F 79 30 30  38 2A 10 30 32 03 01 1C  .....y008*.02...
07D0: 30 80 4E 01 5E 32 03 01  4E 01 5F 32 03 01 4E 01  0.N.^2..N._2..N.
07E0: 60 32 03 01 4E 01 61 32  03 01 4E 00 4A 32 03 01  `2..N.a2..N.J2..
07F0: 4E 00 4B 32 03 01 4E 00  4C 32 03 01 4E 00 4D 32  N.K2..N.L2..N.M2
0800: 03 01 4E 00 4E 32 03 01  4E 00 52 32 03 01 BA 4A  ..N.N2..N.R2...J
0810: 32 03 01 54 80 55 80 56  80 57 80 BA 4B 32 03 01  2..T.U.V.W..K2..
0820: 58 80 59 80 56 80 5A 80  BA 4C 32 03 01 5B 80 5C  X.Y.V.Z..L2..[.\
0830: 80 56 80 5D 80 BA 4D 32  03 01 5E 80 5F 80 56 80  .V.]..M2..^._.V.
0840: 60 80 BA 4E 32 03 01 61  80 62 80 56 80 63 80 BA  `..N2..a.b.V.c..
0850: 52 32 03 01 64 80 65 80  56 80 66 80 80 4A 32 03  R2..d.e.V.f..J2.
0860: 01 80 4B 32 03 01 80 4C  32 03 01 80 4D 32 03 01  ..K2...L2...M2..
0870: 80 4E 32 03 01 80 52 32  03 01 94 01 4B 32 03 01  .N2...R2....K2..
0880: 94 01 4A 32 03 01 94 01  4C 32 03 01 94 01 4D 32  ..J2....L2....M2
0890: 03 01 94 01 4E 32 03 01  94 01 52 32 03 01 94 01  ....N2....R2....
08A0: 53 32 03 01 94 01 54 32  03 01 94 01 51 32 03 01  S2....T2....Q2..
08B0: 4A 4A 32 03 01 52 32 03  01 4A 4B 32 03 01 52 32  JJ2..R2..JK2..R2
08C0: 03 01 4A 4C 32 03 01 52  32 03 01 4A 4D 32 03 01  ..JL2..R2..JM2..
08D0: 52 32 03 01 4A 4E 32 03  01 52 32 03 01 66 49 80  R2..JN2..R2..fI.
08E0: 4D 32 03 01 4D 32 03 01  74 68 6B 31 1C 67 80 45  M2..M2..thk1.g.E
08F0: 10 80 F0 FF FF 7F F0 FF  FF 7F 78 30 30 30 05 80  ..........x000..
0900: 45 04 80 F8 FF FF 7F F8  FF FF 7F 66 64 69 31 05  E..........fdi1.
0910: 80 1C 0F 80 66 49 80 4B  32 03 01 4B 32 03 01 74  ....fI.K2..K2..t
0920: 77 62 30 2B 4B 32 03 01  68 80 23 52 10 80 F0 FF  wb0+K2..h.#R....
0930: FF 7F F0 FF FF 7F 78 30  30 30 45 10 80 F0 FF FF  ......x000E.....
0940: 7F F0 FF FF 7F 78 30 30  32 05 80 5C 00 69 80 5C  .....x002..\.i.\
0950: 01 69 80 9A 6E 4A 32 03  01 43 80 99 4A 32 03 01  .i..nJ2..C..J2..
0960: 1C 12 80 2B 4B 32 03 01  6A 80 23 66 49 80 4B 32  ...+K2..j.#fI.K2
0970: 03 01 4B 32 03 01 74 77  62 31 99 4A 32 03 01 52  ..K2..twb1.J2..R
0980: 10 80 F0 FF FF 7F F0 FF  FF 7F 78 30 30 32 45 10  ..........x002E.
0990: 80 F0 FF FF 7F F0 FF FF  7F 78 30 30 33 05 80 2B  .........x003..+
09A0: 52 32 03 01 6B 80 23 6E  4C 32 03 01 13 80 99 4C  R2..k.#nL2.....L
09B0: 32 03 01 1C 2F 80 66 49  80 4B 32 03 01 4B 32 03  2.../.fI.K2..K2.
09C0: 01 74 77 62 30 2B 4A 32  03 01 6C 80 23 1C 30 80  .twb0+J2..l.#.0.
09D0: 66 49 80 4B 32 03 01 4B  32 03 01 74 77 62 31 1C  fI.K2..K2..twb1.
09E0: 30 80 52 10 80 F0 FF FF  7F F0 FF FF 7F 78 30 30  0.R..........x00
09F0: 33 45 10 80 F0 FF FF 7F  F0 FF FF 7F 78 30 30 31  3E..........x001
0A00: 05 80 2B 52 32 03 01 6D  80 23 1C 2F 80 6E 4A 32  ..+R2..m.#./.nJ2
0A10: 03 01 6E 80 99 4A 32 03  01 6E 4D 32 03 01 6F 80  ..n..J2..nM2..o.
0A20: 99 4D 32 03 01 2B 4A 32  03 01 70 80 23 66 49 80  .M2..+J2..p.#fI.
0A30: 4D 32 03 01 4D 32 03 01  74 68 6B 32 52 10 80 F0  M2..M2..thk2R...
0A40: FF FF 7F F0 FF FF 7F 78  30 30 31 27 10 30 32 03  .......x001'.02.
0A50: 01 0B 45 10 80 F0 FF FF  7F F0 FF FF 7F 78 30 30  ..E..........x00
0A60: 34 05 80 1C 0F 80 2B 30  32 03 01 71 80 23 4A 4B  4.....+02..q.#JK
0A70: 32 03 01 30 32 03 01 1C  2F 80 4A 4A 32 03 01 30  2..02.../.JJ2..0
0A80: 32 03 01 4A 4E 32 03 01  30 32 03 01 1C 30 80 4A  2..JN2..02...0.J
0A90: 4D 32 03 01 30 32 03 01  4A 4C 32 03 01 30 32 03  M2..02..JL2..02.
0AA0: 01 6F 70 6E 4A 32 03 01  72 80 99 4A 32 03 01 2B  .opnJ2..r..J2..+
0AB0: 4A 32 03 01 73 80 23 99  4A 32 03 01 1C 2F 80 52  J2..s.#.J2.../.R
0AC0: 10 80 F0 FF FF 7F F0 FF  FF 7F 78 30 30 34 45 10  ..........x004E.
0AD0: 80 F0 FF FF 7F F0 FF FF  7F 78 30 30 35 05 80 1C  .........x005...
0AE0: 2F 80 6E 4B 32 03 01 74  80 99 4B 32 03 01 6E 4A  /.nK2..t..K2..nJ
0AF0: 32 03 01 2A 80 99 4A 32  03 01 2B 4B 32 03 01 75  2..*..J2..+K2..u
0B00: 80 23 1C 2F 80 52 10 80  F0 FF FF 7F F0 FF FF 7F  .#./.R..........
0B10: 78 30 30 35 45 10 80 F0  FF FF 7F F0 FF FF 7F 78  x005E..........x
0B20: 30 30 36 05 80 27 10 30  32 03 01 0C 2B 30 32 03  006..'.02...+02.
0B30: 01 76 80 23 1C 2F 80 27  10 52 32 03 01 07 6E 4A  .v.#./.'.R2...nJ
0B40: 32 03 01 30 80 99 4A 32  03 01 2B 52 32 03 01 77  2..0..J2..+R2..w
0B50: 80 23 79 00 30 32 03 01  52 32 03 01 2B 30 32 03  .#y.02..R2..+02.
0B60: 01 78 80 23 2A 10 52 32  03 01 2A 10 30 32 03 01  .x.#*.R2..*.02..
0B70: 52 10 80 F0 FF FF 7F F0  FF FF 7F 78 30 30 36 4A  R..........x006J
0B80: 52 32 03 01 30 32 03 01  45 10 80 F0 FF FF 7F F0  R2..02..E.......
0B90: FF FF 7F 78 30 30 37 05  80 1C 2F 80 2B 52 32 03  ...x007.../.+R2.
0BA0: 01 79 80 23 6E 52 32 03  01 6F 80 99 52 32 03 01  .y.#nR2..o..R2..
0BB0: 2B 52 32 03 01 7A 80 23  52 10 80 F0 FF FF 7F F0  +R2..z.#R.......
0BC0: FF FF 7F 78 30 30 37 45  10 80 F0 FF FF 7F F0 FF  ...x007E........
0BD0: FF 7F 78 30 30 38 05 80  7B 30 32 03 01 2B 30 32  ..x008..{02..+02
0BE0: 03 01 7B 80 23 99 52 32  03 01 27 10 52 32 03 01  ..{.#.R2..'.R2..
0BF0: 02 1C 27 80 5D 05 80 28  80 45 04 80 F8 FF FF 7F  ..'.]..(.E......
0C00: F8 FF FF 7F 66 64 6F 31  05 80 55 04 80 F8 FF FF  ....fdo1..U.....
0C10: 7F F8 FF FF 7F 66 64 6F  31 52 10 80 F0 FF FF 7F  .....fdo1R......
0C20: F0 FF FF 7F 78 30 30 38  4E 01 52 32 03 01 BA 30  ....x008N.R2...0
0C30: 32 03 01 7C 80 7D 80 56  80 7E 80 1C 27 80 45 10  2..|.}.V.~..'.E.
0C40: 80 F0 FF FF 7F F0 FF FF  7F 78 30 30 39 05 80 45  .........x009..E
0C50: 04 80 F8 FF FF 7F F8 FF  FF 7F 66 64 69 31 05 80  ..........fdi1..
0C60: 1C 0F 80 5C 00 3A 80 5C  01 3A 80 9A 5B 3F 80 30  ...\.:.\.:..[?.0
0C70: 32 03 01 30 32 03 01 75  64 65 30 2B 30 32 03 01  2..02..ude0+02..
0C80: 7F 80 23 52 10 80 F0 FF  FF 7F F0 FF FF 7F 78 30  ..#R..........x0
0C90: 30 39 45 10 80 F0 FF FF  7F F0 FF FF 7F 78 30 31  09E..........x01
0CA0: 31 05 80 66 49 80 4B 32  03 01 4B 32 03 01 74 6C  1..fI.K2..K2..tl
0CB0: 6B 30 2B 4B 32 03 01 80  80 23 66 49 80 4B 32 03  k0+K2....#fI.K2.
0CC0: 01 4B 32 03 01 74 6C 6B  31 6E 4A 32 03 01 06 80  .K2..tlk1nJ2....
0CD0: 99 4A 32 03 01 2B 4A 32  03 01 81 80 23 99 4A 32  .J2..+J2....#.J2
0CE0: 03 01 52 10 80 F0 FF FF  7F F0 FF FF 7F 78 30 31  ..R..........x01
0CF0: 31 4A 30 32 03 01 4E 32  03 01 45 10 80 F0 FF FF  1J02..N2..E.....
0D00: 7F F0 FF FF 7F 78 30 31  30 05 80 6E 4B 32 03 01  .....x010..nK2..
0D10: 3D 80 99 4B 32 03 01 2B  4B 32 03 01 82 80 23 6E  =..K2..+K2....#n
0D20: 4A 32 03 01 72 80 99 4A  32 03 01 6E 4C 32 03 01  J2..r..J2..nL2..
0D30: 72 80 99 4C 32 03 01 2B  4A 32 03 01 83 80 23 52  r..L2..+J2....#R
0D40: 10 80 F0 FF FF 7F F0 FF  FF 7F 78 30 31 30 45 10  ..........x010E.
0D50: 80 F0 FF FF 7F F0 FF FF  7F 78 30 31 32 05 80 1C  .........x012...
0D60: 0E 80 2B 30 32 03 01 84  80 23 52 10 80 F0 FF FF  ..+02....#R.....
0D70: 7F F0 FF FF 7F 78 30 31  32 45 10 80 F0 FF FF 7F  .....x012E......
0D80: F0 FF FF 7F 77 61 73 75  05 80 1C 30 80 5B 3F 80  ....wasu...0.[?.
0D90: 30 32 03 01 30 32 03 01  75 64 65 31 2B 30 32 03  02..02..ude1+02.
0DA0: 01 85 80 23 52 10 80 F0  FF FF 7F F0 FF FF 7F 77  ...#R..........w
0DB0: 61 73 75 45 10 80 F0 FF  FF 7F F0 FF FF 7F 78 30  asuE..........x0
0DC0: 31 33 05 80 6E 4B 32 03  01 6F 80 99 4B 32 03 01  13..nK2..o..K2..
0DD0: 2B 4B 32 03 01 86 80 23  2B 30 32 03 01 87 80 23  +K2....#+02....#
0DE0: 6E 4D 32 03 01 74 80 99  4D 32 03 01 2B 4A 32 03  nM2..t..M2..+J2.
0DF0: 01 88 80 23 1C 0F 80 5D  05 80 28 80 45 04 80 F8  ...#...]..(.E...
0E00: FF FF 7F F8 FF FF 7F 66  64 6F 31 05 80 55 04 80  .......fdo1..U..
0E10: F8 FF FF 7F F8 FF FF 7F  66 64 6F 31 52 10 80 F0  ........fdo1R...
0E20: FF FF 7F F0 FF FF 7F 78  30 31 33 1C 30 80 4E 00  .......x013.0.N.
0E30: 52 32 03 01 4E 00 51 32  03 01 BA 51 32 03 01 89  R2..N.Q2...Q2...
0E40: 80 8A 80 8B 80 8C 80 BA  52 32 03 01 8D 80 8E 80  ........R2......
0E50: 8B 80 8F 80 80 52 32 03  01 80 51 32 03 01 94 01  .....R2...Q2....
0E60: 51 32 03 01 94 01 52 32  03 01 1C 0F 80 5C 00 90  Q2....R2.....\..
0E70: 80 5C 01 90 80 9A 27 10  51 32 03 01 03 27 10 52  .\....'.Q2...'.R
0E80: 32 03 01 03 4A 52 32 03  01 51 32 03 01 45 10 80  2...JR2..Q2..E..
0E90: F0 FF FF 7F F0 FF FF 7F  77 30 30 30 05 80 45 04  ........w000..E.
0EA0: 80 F8 FF FF 7F F8 FF FF  7F 66 64 69 31 05 80 1C  .........fdi1...
0EB0: 28 80 2B 51 32 03 01 91  80 23 1C 12 80 2B 52 32  (.+Q2....#...+R2
0EC0: 03 01 92 80 23 2B 51 32  03 01 93 80 23 2B 52 32  ....#+Q2....#+R2
0ED0: 03 01 94 80 23 2B 51 32  03 01 95 80 23 2A 10 51  ....#+Q2....#*.Q
0EE0: 32 03 01 52 10 80 F0 FF  FF 7F F0 FF FF 7F 77 30  2..R..........w0
0EF0: 30 30 45 10 80 F0 FF FF  7F F0 FF FF 7F 77 30 30  00E..........w00
0F00: 31 05 80 1C 12 80 2B 52  32 03 01 96 80 23 6E 51  1.....+R2....#nQ
0F10: 32 03 01 4D 80 99 51 32  03 01 2B 51 32 03 01 97  2..M..Q2..+Q2...
0F20: 80 23 99 51 32 03 01 52  10 80 F0 FF FF 7F F0 FF  .#.Q2..R........
0F30: FF 7F 77 30 30 31 45 10  80 F0 FF FF 7F F0 FF FF  ..w001E.........
0F40: 7F 68 6F 65 64 05 80 1C  2F 80 2A 10 52 32 03 01  .hoed.../.*.R2..
0F50: 66 74 80 52 32 03 01 52  32 03 01 61 6B 61 30 2B  ft.R2..R2..aka0+
0F60: 52 32 03 01 98 80 23 52  10 80 F0 FF FF 7F F0 FF  R2....#R........
0F70: FF 7F 68 6F 65 64 45 10  80 F0 FF FF 7F F0 FF FF  ..hoedE.........
0F80: 7F 77 30 30 32 05 80 1C  0F 80 6E 51 32 03 01 21  .w002.....nQ2..!
0F90: 80 99 51 32 03 01 2B 51  32 03 01 99 80 23 1C 0F  ..Q2..+Q2....#..
0FA0: 80 5D 05 80 28 80 45 04  80 F8 FF FF 7F F8 FF FF  .]..(.E.........
0FB0: 7F 66 64 6F 31 05 80 55  04 80 F8 FF FF 7F F8 FF  .fdo1..U........
0FC0: FF 7F 66 64 6F 31 52 10  80 F0 FF FF 7F F0 FF FF  ..fdo1R.........
0FD0: 7F 77 30 30 32 4E 00 51  32 03 01 4E 00 52 32 03  .w002N.Q2..N.R2.
0FE0: 01 4E 00 30 32 03 01 80  52 32 03 01 80 51 32 03  .N.02...R2...Q2.
0FF0: 01 BA 30 32 03 01 7C 80  7D 80 56 80 9A 80 BA 51  ..02..|.}.V....Q
1000: 32 03 01 9B 80 9C 80 05  80 9D 80 BA 52 32 03 01  2...........R2..
1010: 9E 80 9F 80 05 80 9D 80  4A 52 32 03 01 30 32 03  ........JR2..02.
1020: 01 5B 3F 80 30 32 03 01  30 32 03 01 75 64 65 30  .[?.02..02..ude0
1030: 1C 27 80 45 10 80 F0 FF  FF 7F F0 FF FF 7F 77 30  .'.E..........w0
1040: 30 33 05 80 45 04 80 F8  FF FF 7F F8 FF FF 7F 66  03..E..........f
1050: 64 69 31 05 80 1C 0F 80  5C 00 3A 80 5C 01 3A 80  di1.....\.:.\.:.
1060: 9A 2B 30 32 03 01 A0 80  23 52 10 80 F0 FF FF 7F  .+02....#R......
1070: F0 FF FF 7F 77 30 30 33  45 10 80 F0 FF FF 7F F0  ....w003E.......
1080: FF FF 7F 77 30 30 34 05  80 2B 30 32 03 01 A1 80  ...w004..+02....
1090: 23 6E 4B 32 03 01 6E 80  99 4B 32 03 01 6E 4D 32  #nK2..n..K2..nM2
10A0: 03 01 74 80 99 4D 32 03  01 2B 4B 32 03 01 A2 80  ..t..M2..+K2....
10B0: 23 52 10 80 F0 FF FF 7F  F0 FF FF 7F 77 30 30 34  #R..........w004
10C0: 27 10 51 32 03 01 04 27  10 52 32 03 01 05 45 10  '.Q2...'.R2...E.
10D0: 80 F0 FF FF 7F F0 FF FF  7F 77 30 30 35 05 80 1C  .........w005...
10E0: 0F 80 2B 52 32 03 01 A3  80 23 5B 3F 80 30 32 03  ..+R2....#[?.02.
10F0: 01 30 32 03 01 75 64 65  31 2B 30 32 03 01 A4 80  .02..ude1+02....
1100: 23 2A 10 51 32 03 01 52  10 80 F0 FF FF 7F F0 FF  #*.Q2..R........
1110: FF 7F 77 30 30 35 45 10  80 F0 FF FF 7F F0 FF FF  ..w005E.........
1120: 7F 64 6F 6B 6F 05 80 4E  00 53 32 03 01 4E 00 54  .doko..N.S2..N.T
1130: 32 03 01 BA 53 32 03 01  A5 80 A6 80 56 80 9A 80  2...S2......V...
1140: BA 54 32 03 01 A7 80 A8  80 56 80 A9 80 1C 12 80  .T2......V......
1150: 2B 51 32 03 01 AA 80 23  52 10 80 F0 FF FF 7F F0  +Q2....#R.......
1160: FF FF 7F 64 6F 6B 6F 45  10 80 F0 FF FF 7F F0 FF  ...dokoE........
1170: FF 7F 77 30 30 36 05 80  27 10 53 32 03 01 03 27  ..w006..'.S2...'
1180: 10 54 32 03 01 02 1C 0F  80 2B 53 32 03 01 AB 80  .T2......+S2....
1190: 23 52 10 80 F0 FF FF 7F  F0 FF FF 7F 77 30 30 36  #R..........w006
11A0: 45 10 80 F0 FF FF 7F F0  FF FF 7F 64 6F 6E 61 05  E..........dona.
11B0: 80 79 00 52 32 03 01 53  32 03 01 2B 52 32 03 01  .y.R2..S2..+R2..
11C0: AC 80 23 4A 53 32 03 01  52 32 03 01 4A 54 32 03  ..#JS2..R2..JT2.
11D0: 01 52 32 03 01 2B 54 32  03 01 AD 80 23 52 10 80  .R2..+T2....#R..
11E0: F0 FF FF 7F F0 FF FF 7F  64 6F 6E 61 4A 53 32 03  ........donaJS2.
11F0: 01 52 32 03 01 4A 54 32  03 01 52 32 03 01 45 10  .R2..JT2..R2..E.
1200: 80 F0 FF FF 7F F0 FF FF  7F 77 30 30 37 05 80 6E  .........w007..n
1210: 53 32 03 01 3D 80 99 53  32 03 01 2B 53 32 03 01  S2..=..S2..+S2..
1220: AE 80 23 6E 52 32 03 01  05 80 99 52 32 03 01 2B  ..#nR2.....R2..+
1230: 52 32 03 01 AF 80 23 99  53 32 03 01 1C 30 80 6E  R2....#.S2...0.n
1240: 53 32 03 01 B0 80 99 53  32 03 01 6E 54 32 03 01  S2.....S2..nT2..
1250: 3D 80 99 54 32 03 01 2B  53 32 03 01 B1 80 23 52  =..T2..+S2....#R
1260: 10 80 F0 FF FF 7F F0 FF  FF 7F 77 30 30 37 45 10  ..........w007E.
1270: 80 F0 FF FF 7F F0 FF FF  7F 77 30 30 38 05 80 27  .........w008..'
1280: 10 30 32 03 01 0D 2B 30  32 03 01 B2 80 23 2A 10  .02...+02....#*.
1290: 30 32 03 01 6E 30 32 03  01 13 80 99 30 32 03 01  02..n02.....02..
12A0: 1C 0E 80 2B 4B 32 03 01  B3 80 23 52 10 80 F0 FF  ...+K2....#R....
12B0: FF 7F F0 FF FF 7F 77 30  30 38 45 10 80 F0 FF FF  ......w008E.....
12C0: 7F F0 FF FF 7F 77 30 30  39 05 80 5D 05 80 67 80  .....w009..]..g.
12D0: 1C 0F 80 5C 00 B4 80 5C  01 B4 80 9A 48 B5 80 23  ...\...\....H..#
12E0: 6E 30 32 03 01 B6 80 99  30 32 03 01 1C 30 80 6E  n02.....02...0.n
12F0: 4A 32 03 01 B6 80 99 4A  32 03 01 52 10 80 F0 FF  J2.....J2..R....
1300: FF 7F F0 FF FF 7F 77 30  30 39 45 10 80 F0 FF FF  ......w009E.....
1310: 7F F0 FF FF 7F 77 30 31  30 05 80 48 B7 80 23 48  .....w010..H..#H
1320: B8 80 23 48 B9 80 23 52  10 80 F0 FF FF 7F F0 FF  ..#H..#R........
1330: FF 7F 77 30 31 30 45 10  80 F0 FF FF 7F F0 FF FF  ..w010E.........
1340: 7F 77 30 31 31 05 80 1C  2F 80 6E 52 32 03 01 BA  .w011.../.nR2...
1350: 80 99 52 32 03 01 6E 51  32 03 01 6E 80 99 51 32  ..R2..nQ2..n..Q2
1360: 03 01 2B 52 32 03 01 BB  80 23 52 10 80 F0 FF FF  ..+R2....#R.....
1370: 7F F0 FF FF 7F 77 30 31  31 4A 30 32 03 01 51 32  .....w011J02..Q2
1380: 03 01 45 10 80 F0 FF FF  7F F0 FF FF 7F 77 30 31  ..E..........w01
1390: 32 05 80 2B 30 32 03 01  BC 80 23 2B 30 32 03 01  2..+02....#+02..
13A0: BD 80 23 2B 52 32 03 01  BE 80 23 27 10 51 32 03  ..#+R2....#'.Q2.
13B0: 01 05 1C 12 80 27 10 52  32 03 01 06 1C 0F 80 52  .....'.R2......R
13C0: 10 80 F0 FF FF 7F F0 FF  FF 7F 77 30 31 32 45 10  ..........w012E.
13D0: 80 F0 FF FF 7F F0 FF FF  7F 77 30 31 33 05 80 4A  .........w013..J
13E0: 53 32 03 01 30 32 03 01  4A 54 32 03 01 30 32 03  S2..02..JT2..02.
13F0: 01 4A 30 32 03 01 53 32  03 01 2B 30 32 03 01 BF  .J02..S2..+02...
1400: 80 23 2B 30 32 03 01 C0  80 23 6E 53 32 03 01 C1  .#+02....#nS2...
1410: 80 99 53 32 03 01 6E 54  32 03 01 3D 80 99 54 32  ..S2..nT2..=..T2
1420: 03 01 2B 53 32 03 01 C2  80 23 52 10 80 F0 FF FF  ..+S2....#R.....
1430: 7F F0 FF FF 7F 77 30 31  33 45 10 80 F0 FF FF 7F  .....w013E......
1440: F0 FF FF 7F 77 30 31 34  05 80 4E 00 3B 32 03 01  ....w014..N.;2..
1450: 80 3B 32 03 01 BA 3B 32  03 01 C3 80 C4 80 05 80  .;2...;2........
1460: C5 80 66 49 80 4B 32 03  01 4B 32 03 01 74 6C 6B  ..fI.K2..K2..tlk
1470: 30 2B 4B 32 03 01 C6 80  23 66 49 80 4B 32 03 01  0+K2....#fI.K2..
1480: 4B 32 03 01 74 6C 6B 31  2B 30 32 03 01 C7 80 23  K2..tlk1+02....#
1490: 52 10 80 F0 FF FF 7F F0  FF FF 7F 77 30 31 34 45  R..........w014E
14A0: 10 80 F0 FF FF 7F F0 FF  FF 7F 73 30 30 30 05 80  ..........s000..
14B0: 4E 01 54 32 03 01 4E 01  53 32 03 01 6E 4B 32 03  N.T2..N.S2..nK2.
14C0: 01 3D 80 99 4B 32 03 01  6E 4D 32 03 01 72 80 99  .=..K2..nM2..r..
14D0: 4D 32 03 01 2B 4B 32 03  01 C8 80 23 52 10 80 F0  M2..+K2....#R...
14E0: FF FF 7F F0 FF FF 7F 73  30 30 30 27 10 3B 32 03  .......s000'.;2.
14F0: 01 07 45 10 80 F0 FF FF  7F F0 FF FF 7F 77 30 31  ..E..........w01
1500: 35 05 80 1C 0E 80 2B 3B  32 03 01 C9 80 23 2B 30  5.....+;2....#+0
1510: 32 03 01 CA 80 23 2A 10  3B 32 03 01 52 10 80 F0  2....#*.;2..R...
1520: FF FF 7F F0 FF FF 7F 77  30 31 35 45 10 80 F0 FF  .......w015E....
1530: FF 7F F0 FF FF 7F 77 30  31 36 05 80 4A 30 32 03  ......w016..J02.
1540: 01 4A 32 03 01 2B 30 32  03 01 CB 80 23 1C 2F 80  .J2..+02....#./.
1550: 6E 4B 32 03 01 06 80 99  4B 32 03 01 1C 2F 80 6E  nK2.....K2.../.n
1560: 4D 32 03 01 6F 80 99 4D  32 03 01 6E 4A 32 03 01  M2..o..M2..nJ2..
1570: CC 80 99 4A 32 03 01 2B  4B 32 03 01 CD 80 23 1C  ...J2..+K2....#.
1580: 0F 80 45 04 80 F8 FF FF  7F F8 FF FF 7F 66 64 6F  ..E..........fdo
1590: 31 05 80 55 04 80 F8 FF  FF 7F F8 FF FF 7F 66 64  1..U..........fd
15A0: 6F 31 52 10 80 F0 FF FF  7F F0 FF FF 7F 77 30 31  o1R..........w01
15B0: 36 1C 2F 80 34 CE 80 77  2F 80 05 80 AB 09 1C 12  6./.4..w/.......
15C0: 80 1C 30 80 4E 00 3B 32  03 01 4E 00 30 32 03 01  ..0.N.;2..N.02..
15D0: 4E 00 31 32 03 01 4E 00  4A 32 03 01 4E 00 4B 32  N.12..N.J2..N.K2
15E0: 03 01 4E 00 4C 32 03 01  4E 00 4D 32 03 01 4E 00  ..N.L2..N.M2..N.
15F0: 4E 32 03 01 BA 30 32 03  01 CF 80 D0 80 D1 80 D2  N2...02.........
1600: 80 BA 3B 32 03 01 D3 80  D4 80 D1 80 D5 80 80 30  ..;2...........0
1610: 32 03 01 80 31 32 03 01  80 3B 32 03 01 80 4A 32  2...12...;2...J2
1620: 03 01 80 4B 32 03 01 80  4C 32 03 01 80 4D 32 03  ...K2...L2...M2.
1630: 01 80 4E 32 03 01 94 01  3B 32 03 01 94 01 30 32  ..N2....;2....02
1640: 03 01 94 01 31 32 03 01  94 01 4A 32 03 01 94 01  ....12....J2....
1650: 4B 32 03 01 94 01 4C 32  03 01 94 01 4D 32 03 01  K2....L2....M2..
1660: 94 01 4E 32 03 01 4E 00  55 32 03 01 4E 00 56 32  ..N2..N.U2..N.V2
1670: 03 01 4E 00 57 32 03 01  4E 00 58 32 03 01 4E 00  ..N.W2..N.X2..N.
1680: 59 32 03 01 4E 00 5A 32  03 01 4E 00 5B 32 03 01  Y2..N.Z2..N.[2..
1690: 4E 00 5C 32 03 01 4E 00  5D 32 03 01 80 5D 32 03  N.\2..N.]2...]2.
16A0: 01 80 55 32 03 01 80 56  32 03 01 80 57 32 03 01  ..U2...V2...W2..
16B0: 80 58 32 03 01 80 59 32  03 01 80 5A 32 03 01 2F  .X2...Y2...Z2../
16C0: 00 55 32 03 01 2F 00 56  32 03 01 2F 00 57 32 03  .U2../.V2../.W2.
16D0: 01 2F 00 58 32 03 01 2F  00 59 32 03 01 2F 00 5A  ./.X2../.Y2../.Z
16E0: 32 03 01 94 01 55 32 03  01 94 01 56 32 03 01 94  2....U2....V2...
16F0: 01 57 32 03 01 94 01 58  32 03 01 94 01 59 32 03  .W2....X2....Y2.
1700: 01 94 01 5A 32 03 01 5B  3F 80 30 32 03 01 30 32  ...Z2..[?.02..02
1710: 03 01 75 64 65 30 1C 0F  80 45 10 80 F0 FF FF 7F  ..ude0...E......
1720: F0 FF FF 7F 61 30 30 30  05 80 45 04 80 F8 FF FF  ....a000..E.....
1730: 7F F8 FF FF 7F 66 64 69  31 05 80 1C 04 80 BA 5D  .....fdi1......]
1740: 32 03 01 D6 80 D7 80 56  80 D8 80 52 10 80 F0 FF  2......V...R....
1750: FF 7F F0 FF FF 7F 61 30  30 30 27 10 55 32 03 01  ......a000'.U2..
1760: 02 27 10 56 32 03 01 02  27 10 5B 32 03 01 02 27  .'.V2...'.[2...'
1770: 10 5C 32 03 01 02 1C 30  80 9F D9 80 F8 FF FF 7F  .\2....0........
1780: F8 FF FF 7F 73 74 72 30  05 80 45 10 80 F0 FF FF  ....str0..E.....
1790: 7F F0 FF FF 7F 6D 61 6D  75 05 80 45 10 80 F0 FF  .....mamu..E....
17A0: FF 7F F0 FF FF 7F 61 61  61 61 05 80 1C DA 80 27  ......aaaa.....'
17B0: 10 5D 32 03 01 02 1C 2F  80 52 10 80 F0 FF FF 7F  .]2..../.R......
17C0: F0 FF FF 7F 61 61 61 61  BA 57 32 03 01 DB 80 DC  ....aaaa.W2.....
17D0: 80 56 80 DD 80 BA 58 32  03 01 DE 80 DF 80 56 80  .V....X2......V.
17E0: E0 80 BA 5A 32 03 01 E1  80 E2 80 56 80 E3 80 45  ...Z2......V...E
17F0: 10 80 F0 FF FF 7F F0 FF  FF 7F 61 61 61 62 05 80  ..........aaab..
1800: 27 10 57 32 03 01 02 27  10 5A 32 03 01 02 1C 2F  '.W2...'.Z2..../
1810: 80 1C 30 80 5B E4 80 58  32 03 01 58 32 03 01 77  ..0.[..X2..X2..w
1820: 61 72 30 1C E5 80 52 10  80 F0 FF FF 7F F0 FF FF  ar0...R.........
1830: 7F 61 61 61 62 9F D9 80  F8 FF FF 7F F8 FF FF 7F  .aaab...........
1840: 6B 69 6C 6C 05 80 45 10  80 F0 FF FF 7F F0 FF FF  kill..E.........
1850: 7F 61 31 30 30 05 80 1C  0F 80 2B 3B 32 03 01 E6  .a100.....+;2...
1860: 80 23 2B 30 32 03 01 E7  80 23 52 10 80 F0 FF FF  .#+02....#R.....
1870: 7F F0 FF FF 7F 61 31 30  30 45 10 80 F0 FF FF 7F  .....a100E......
1880: F0 FF FF 7F 61 30 31 30  05 80 2B 30 32 03 01 E8  ....a010..+02...
1890: 80 23 5B 3F 80 30 32 03  01 30 32 03 01 75 64 65  .#[?.02..02..ude
18A0: 31 1C 30 80 2B 30 32 03  01 E9 80 23 52 10 80 F0  1.0.+02....#R...
18B0: FF FF 7F F0 FF FF 7F 61  30 31 30 45 10 80 F0 FF  .......a010E....
18C0: FF 7F F0 FF FF 7F 61 30  31 31 05 80 4A 3B 32 03  ......a011..J;2.
18D0: 01 30 32 03 01 2B 3B 32  03 01 EA 80 23 2B 3B 32  .02..+;2....#+;2
18E0: 03 01 EB 80 23 52 10 80  F0 FF FF 7F F0 FF FF 7F  ....#R..........
18F0: 61 30 31 31 45 10 80 F0  FF FF 7F F0 FF FF 7F 61  a011E..........a
1900: 30 31 32 05 80 79 00 30  32 03 01 3B 32 03 01 2B  012..y.02..;2..+
1910: 30 32 03 01 EC 80 23 2B  3B 32 03 01 ED 80 23 7B  02....#+;2....#{
1920: 30 32 03 01 27 10 30 32  03 01 02 1C 12 80 2B 3B  02..'.02......+;
1930: 32 03 01 EE 80 23 52 10  80 F0 FF FF 7F F0 FF FF  2....#R.........
1940: 7F 61 30 31 32 BA 4A 32  03 01 EF 80 F0 80 D1 80  .a012.J2........
1950: F1 80 BA 4B 32 03 01 F2  80 F3 80 D1 80 F4 80 BA  ...K2...........
1960: 4C 32 03 01 F5 80 F6 80  D1 80 F7 80 BA 4D 32 03  L2...........M2.
1970: 01 F8 80 F9 80 D1 80 FA  80 BA 4E 32 03 01 FB 80  ..........N2....
1980: FC 80 D1 80 FD 80 45 10  80 F0 FF FF 7F F0 FF FF  ......E.........
1990: 7F 61 30 30 33 05 80 1C  12 80 2B 30 32 03 01 FE  .a003.....+02...
19A0: 80 23 2A 10 30 32 03 01  2B 4B 32 03 01 FF 80 23  .#*.02..+K2....#
19B0: 52 10 80 F0 FF FF 7F F0  FF FF 7F 61 30 30 33 27  R..........a003'
19C0: 10 4A 32 03 01 04 27 10  4B 32 03 01 05 27 10 4C  .J2...'.K2...'.L
19D0: 32 03 01 03 27 10 4D 32  03 01 03 27 10 4E 32 03  2...'.M2...'.N2.
19E0: 01 04 1C 74 80 45 10 80  F0 FF FF 7F F0 FF FF 7F  ...t.E..........
19F0: 61 30 30 39 05 80 4A 30  32 03 01 4A 32 03 01 1C  a009..J02..J2...
1A00: 12 80 2B 30 32 03 01 00  81 23 2B 3B 32 03 01 01  ..+02....#+;2...
1A10: 81 23 52 10 80 F0 FF FF  7F F0 FF FF 7F 61 30 30  .#R..........a00
1A20: 39 45 10 80 F0 FF FF 7F  F0 FF FF 7F 61 30 31 33  9E..........a013
1A30: 05 80 1C 2F 80 2B 4B 32  03 01 02 81 23 2A 10 4A  .../.+K2....#*.J
1A40: 32 03 01 52 10 80 F0 FF  FF 7F F0 FF FF 7F 61 30  2..R..........a0
1A50: 31 33 45 10 80 F0 FF FF  7F F0 FF FF 7F 61 30 31  13E..........a01
1A60: 34 05 80 1C 2F 80 2B 30  32 03 01 03 81 23 5B 04  4.../.+02....#[.
1A70: 81 30 32 03 01 30 32 03  01 67 61 68 30 29 10 3B  .02..02..gah0).;
1A80: 32 03 01 08 2B 30 32 03  01 05 81 23 52 10 80 F0  2...+02....#R...
1A90: FF FF 7F F0 FF FF 7F 61  30 31 34 45 10 80 F0 FF  .......a014E....
1AA0: FF 7F F0 FF FF 7F 61 30  31 35 05 80 66 06 81 4A  ......a015..f..J
1AB0: 32 03 01 4A 32 03 01 6B  62 61 30 66 06 81 4B 32  2..J2..kba0f..K2
1AC0: 03 01 4B 32 03 01 6B 62  61 30 66 06 81 4C 32 03  ..K2..kba0f..L2.
1AD0: 01 4C 32 03 01 6B 62 61  30 66 06 81 4D 32 03 01  .L2..kba0f..M2..
1AE0: 4D 32 03 01 6B 62 61 30  66 06 81 4E 32 03 01 4E  M2..kba0f..N2..N
1AF0: 32 03 01 6B 62 61 30 2B  4A 32 03 01 07 81 23 6B  2..kba0+J2....#k
1B00: 69 64 6C 30 30 32 03 01  29 10 30 32 03 01 03 2B  idl002..).02...+
1B10: 4B 32 03 01 08 81 23 52  10 80 F0 FF FF 7F F0 FF  K2....#R........
1B20: FF 7F 61 30 31 35 45 10  80 F0 FF FF 7F F0 FF FF  ..a015E.........
1B30: 7F 61 30 30 31 05 80 BB  09 81 30 32 03 01 30 32  .a001.....02..02
1B40: 03 01 73 30 30 30 05 80  5B 04 81 30 32 03 01 30  ..s000..[..02..0
1B50: 32 03 01 6A 6D 70 30 1C  0A 81 5B 0B 81 3B 32 03  2..jmp0...[..;2.
1B60: 01 3B 32 03 01 6F 64 6F  30 1C 4C 80 52 10 80 F0  .;2..odo0.L.R...
1B70: FF FF 7F F0 FF FF 7F 61  30 30 31 45 10 80 F0 FF  .......a001E....
1B80: FF 7F F0 FF FF 7F 61 30  30 34 05 80 1C 0E 80 52  ......a004.....R
1B90: 10 80 F0 FF FF 7F F0 FF  FF 7F 61 30 30 34 4E 01  ..........a004N.
1BA0: 30 32 03 01 BA 31 32 03  01 0C 81 0D 81 56 80 D2  02...12......V..
1BB0: 80 BB 09 81 31 32 03 01  31 32 03 01 73 30 30 31  ....12..12..s001
1BC0: 05 80 5B 04 81 31 32 03  01 31 32 03 01 6A 6D 70  ..[..12..12..jmp
1BD0: 31 1C 30 80 45 10 80 F0  FF FF 7F F0 FF FF 7F 61  1.0.E..........a
1BE0: 30 30 32 05 80 1C 0E 81  27 10 4A 32 03 01 02 27  002.....'.J2...'
1BF0: 10 4B 32 03 01 02 27 10  4C 32 03 01 02 27 10 4D  .K2...'.L2...'.M
1C00: 32 03 01 02 27 10 4E 32  03 01 02 1C 74 80 52 10  2...'.N2....t.R.
1C10: 80 F0 FF FF 7F F0 FF FF  7F 61 30 30 32 45 10 80  .........a002E..
1C20: F0 FF FF 7F F0 FF FF 7F  61 30 30 35 05 80 1C 0F  ........a005....
1C30: 81 52 10 80 F0 FF FF 7F  F0 FF FF 7F 61 30 30 35  .R..........a005
1C40: 45 10 80 F0 FF FF 7F F0  FF FF 7F 61 30 30 36 05  E..........a006.
1C50: 80 2A 10 4A 32 03 01 2A  10 4B 32 03 01 66 2B 80  .*.J2..*.K2..f+.
1C60: 4A 32 03 01 4A 32 03 01  69 6E 30 30 66 2B 80 4B  J2..J2..in00f+.K
1C70: 32 03 01 4B 32 03 01 69  6E 30 30 1C 30 80 2A 10  2..K2..in00.0.*.
1C80: 4C 32 03 01 2A 10 4D 32  03 01 66 2B 80 4C 32 03  L2..*.M2..f+.L2.
1C90: 01 4C 32 03 01 69 6E 30  30 66 2B 80 4D 32 03 01  .L2..in00f+.M2..
1CA0: 4D 32 03 01 6B 65 6E 30  2A 10 4E 32 03 01 66 2B  M2..ken0*.N2..f+
1CB0: 80 4E 32 03 01 4E 32 03  01 69 6E 30 30 1C 67 80  .N2..N2..in00.g.
1CC0: 52 10 80 F0 FF FF 7F F0  FF FF 7F 61 30 30 36 9F  R..........a006.
1CD0: D9 80 F8 FF FF 7F F8 FF  FF 7F 73 74 72 30 05 80  ..........str0..
1CE0: 45 10 80 F0 FF FF 7F F0  FF FF 7F 61 30 30 37 05  E..........a007.
1CF0: 80 5B 10 81 31 32 03 01  31 32 03 01 66 69 67 31  .[..12..12..fig1
1D00: 2B 30 32 03 01 11 81 23  52 10 80 F0 FF FF 7F F0  +02....#R.......
1D10: FF FF 7F 61 30 30 37 9F  D9 80 F8 FF FF 7F F8 FF  ...a007.........
1D20: FF 7F 6B 69 6C 6C 05 80  45 10 80 F0 FF FF 7F F0  ..kill..E.......
1D30: FF FF 7F 61 30 30 38 05  80 1C 29 80 45 12 81 F0  ...a008...).E...
1D40: FF FF 7F F0 FF FF 7F 77  68 6F 31 05 80 55 12 81  .......who1..U..
1D50: F0 FF FF 7F F0 FF FF 7F  77 68 6F 31 1C 0F 80 45  ........who1...E
1D60: 04 80 F8 FF FF 7F F8 FF  FF 7F 66 64 6F 31 05 80  ..........fdo1..
1D70: 55 04 80 F8 FF FF 7F F8  FF FF 7F 66 64 6F 31 52  U..........fdo1R
1D80: 10 80 F0 FF FF 7F F0 FF  FF 7F 61 30 30 38 4E 01  ..........a008N.
1D90: 31 32 03 01 1C 0F 80 5D  05 80 27 80 45 12 81 F0  12.....]..'.E...
1DA0: FF FF 7F F0 FF FF 7F 77  68 69 31 05 80 55 12 81  .......whi1..U..
1DB0: F0 FF FF 7F F0 FF FF 7F  77 68 69 31 4E 01 55 32  ........whi1N.U2
1DC0: 03 01 4E 01 56 32 03 01  4E 01 57 32 03 01 4E 01  ..N.V2..N.W2..N.
1DD0: 58 32 03 01 4E 01 59 32  03 01 4E 01 5A 32 03 01  X2..N.Y2..N.Z2..
1DE0: 4E 01 5B 32 03 01 4E 01  5C 32 03 01 4E 01 5D 32  N.[2..N.\2..N.]2
1DF0: 03 01 1C 30 80 34 13 81  77 05 80 2B 80 1C 12 80  ...0.4..w..+....
1E00: AB 09 4E 00 4F 32 03 01  4E 00 30 32 03 01 4E 00  ..N.O2..N.02..N.
1E10: 3B 32 03 01 4E 00 4A 32  03 01 4E 00 4B 32 03 01  ;2..N.J2..N.K2..
1E20: 4E 00 4C 32 03 01 4E 00  4D 32 03 01 4E 00 4E 32  N.L2..N.M2..N.N2
1E30: 03 01 BA 30 32 03 01 14  81 15 81 56 80 16 81 BA  ...02......V....
1E40: 4A 32 03 01 17 81 18 81  56 80 19 81 BA 4B 32 03  J2......V....K2.
1E50: 01 17 81 1A 81 56 80 1B  81 BA 4C 32 03 01 1C 81  .....V....L2....
1E60: 1D 81 56 80 19 81 BA 4D  32 03 01 1E 81 1F 81 56  ..V....M2......V
1E70: 80 19 81 BA 4E 32 03 01  20 81 21 81 56 80 19 81  ....N2.. .!.V...
1E80: BA 4F 32 03 01 22 81 23  81 05 80 24 81 BA 3B 32  .O2..".#...$..;2
1E90: 03 01 25 81 26 81 05 80  24 81 2F 00 30 32 03 01  ..%.&...$./.02..
1EA0: 2F 00 3B 32 03 01 2F 00  4F 32 03 01 2F 00 4A 32  /.;2../.O2../.J2
1EB0: 03 01 2F 00 4B 32 03 01  80 4F 32 03 01 80 30 32  ../.K2...O2...02
1EC0: 03 01 80 3B 32 03 01 80  4A 32 03 01 80 4B 32 03  ...;2...J2...K2.
1ED0: 01 80 4C 32 03 01 80 4D  32 03 01 80 4E 32 03 01  ..L2...M2...N2..
1EE0: 94 01 4F 32 03 01 94 01  3B 32 03 01 94 01 4A 32  ..O2....;2....J2
1EF0: 03 01 94 01 4B 32 03 01  94 01 4C 32 03 01 94 01  ....K2....L2....
1F00: 4D 32 03 01 94 01 4E 32  03 01 66 49 80 4A 32 03  M2....N2..fI.J2.
1F10: 01 4A 32 03 01 73 68 61  30 66 49 80 4B 32 03 01  .J2..sha0fI.K2..
1F20: 4B 32 03 01 73 68 61 30  66 49 80 4C 32 03 01 4C  K2..sha0fI.L2..L
1F30: 32 03 01 73 68 61 30 66  49 80 4D 32 03 01 4D 32  2..sha0fI.M2..M2
1F40: 03 01 73 68 61 30 66 49  80 4E 32 03 01 4E 32 03  ..sha0fI.N2..N2.
1F50: 01 73 68 61 30 66 18 80  30 32 03 01 30 32 03 01  .sha0f..02..02..
1F60: 73 68 61 30 7B 4A 32 03  01 7B 4B 32 03 01 7B 4C  sha0{J2..{K2..{L
1F70: 32 03 01 7B 4D 32 03 01  1C 28 80 5C 00 27 81 5C  2..{M2...(.\.'.\
1F80: 01 27 81 9A 27 10 4F 32  03 01 02 27 10 3B 32 03  .'..'.O2...'.;2.
1F90: 01 06 45 10 80 F0 FF FF  7F F0 FF FF 7F 63 30 30  ..E..........c00
1FA0: 30 05 80 45 04 80 F8 FF  FF 7F F8 FF FF 7F 66 64  0..E..........fd
1FB0: 69 31 05 80 1C 28 81 52  10 80 F0 FF FF 7F F0 FF  i1...(.R........
1FC0: FF 7F 63 30 30 30 45 10  80 F0 FF FF 7F F0 FF FF  ..c000E.........
1FD0: 7F 63 30 32 30 05 80 1C  29 81 52 10 80 F0 FF FF  .c020...).R.....
1FE0: 7F F0 FF FF 7F 63 30 32  30 45 10 80 F0 FF FF 7F  .....c020E......
1FF0: F0 FF FF 7F 63 30 30 31  05 80 2A 10 4F 32 03 01  ....c001..*.O2..
2000: 1C 2F 80 5B 2A 81 4F 32  03 01 4F 32 03 01 73 74  ./.[*.O2..O2..st
2010: 61 30 2B 4F 32 03 01 2B  81 23 2B 4F 32 03 01 2C  a0+O2..+.#+O2..,
2020: 81 23 52 10 80 F0 FF FF  7F F0 FF FF 7F 63 30 30  .#R..........c00
2030: 31 45 10 80 F0 FF FF 7F  F0 FF FF 7F 63 30 30 32  1E..........c002
2040: 05 80 1C 12 80 2B 4F 32  03 01 2D 81 23 4A 30 32  .....+O2..-.#J02
2050: 03 01 4F 32 03 01 4A 4B  32 03 01 4F 32 03 01 4A  ..O2..JK2..O2..J
2060: 4C 32 03 01 4F 32 03 01  4A 4D 32 03 01 4F 32 03  L2..O2..JM2..O2.
2070: 01 4A 4E 32 03 01 4F 32  03 01 4A 4A 32 03 01 4F  .JN2..O2..JJ2..O
2080: 32 03 01 2B 4F 32 03 01  2E 81 23 52 10 80 F0 FF  2..+O2....#R....
2090: FF 7F F0 FF FF 7F 63 30  30 32 45 10 80 F0 FF FF  ......c002E.....
20A0: 7F F0 FF FF 7F 63 30 30  33 05 80 2B 4F 32 03 01  .....c003..+O2..
20B0: 2F 81 23 2B 30 32 03 01  30 81 23 2B 4F 32 03 01  /.#+02..0.#+O2..
20C0: 31 81 23 52 10 80 F0 FF  FF 7F F0 FF FF 7F 63 30  1.#R..........c0
20D0: 30 33 45 10 80 F0 FF FF  7F F0 FF FF 7F 63 30 32  03E..........c02
20E0: 31 05 80 66 49 80 4B 32  03 01 4B 32 03 01 73 68  1..fI.K2..K2..sh
20F0: 61 31 27 10 4A 32 03 01  05 27 10 4C 32 03 01 04  a1'.J2...'.L2...
2100: 27 10 4D 32 03 01 04 27  10 4E 32 03 01 03 2B 4B  '.M2...'.N2...+K
2110: 32 03 01 32 81 23 5B 2A  81 4F 32 03 01 4F 32 03  2..2.#[*.O2..O2.
2120: 01 73 74 61 31 1C 0F 80  52 10 80 F0 FF FF 7F F0  .sta1...R.......
2130: FF FF 7F 63 30 32 31 45  10 80 F0 FF FF 7F F0 FF  ...c021E........
2140: FF 7F 63 30 30 32 05 80  2B 4F 32 03 01 33 81 23  ..c002..+O2..3.#
2150: 5B 2A 81 4F 32 03 01 4F  32 03 01 73 74 62 30 2B  [*.O2..O2..stb0+
2160: 4F 32 03 01 34 81 23 2B  4F 32 03 01 35 81 23 52  O2..4.#+O2..5.#R
2170: 10 80 F0 FF FF 7F F0 FF  FF 7F 63 30 30 32 45 10  ..........c002E.
2180: 80 F0 FF FF 7F F0 FF FF  7F 63 30 31 32 05 80 2B  .........c012..+
2190: 30 32 03 01 36 81 23 2B  4F 32 03 01 37 81 23 52  02..6.#+O2..7.#R
21A0: 10 80 F0 FF FF 7F F0 FF  FF 7F 63 30 31 32 45 10  ..........c012E.
21B0: 80 F0 FF FF 7F F0 FF FF  7F 63 30 31 33 05 80 2B  .........c013..+
21C0: 4F 32 03 01 38 81 23 2B  4F 32 03 01 39 81 23 2B  O2..8.#+O2..9.#+
21D0: 3B 32 03 01 3A 81 23 52  10 80 F0 FF FF 7F F0 FF  ;2..:.#R........
21E0: FF 7F 63 30 31 33 45 10  80 F0 FF FF 7F F0 FF FF  ..c013E.........
21F0: 7F 63 30 31 34 05 80 5D  05 80 28 80 1C 12 80 2B  .c014..]..(....+
2200: 30 32 03 01 3B 81 23 5B  2A 81 4F 32 03 01 4F 32  02..;.#[*.O2..O2
2210: 03 01 73 74 62 31 2B 4F  32 03 01 3C 81 23 52 10  ..stb1+O2..<.#R.
2220: 80 F0 FF FF 7F F0 FF FF  7F 63 30 31 34 45 10 80  .........c014E..
2230: F0 FF FF 7F F0 FF FF 7F  68 61 73 69 05 80 1C 12  ........hasi....
2240: 80 66 18 80 30 32 03 01  30 32 03 01 73 68 61 31  .f..02..02..sha1
2250: 5C 00 3D 81 5C 01 3D 81  9A 2B 30 32 03 01 3E 81  \.=.\.=..+02..>.
2260: 23 52 10 80 F0 FF FF 7F  F0 FF FF 7F 63 30 31 34  #R..........c014
2270: 45 10 80 F0 FF FF 7F F0  FF FF 7F 63 30 31 35 05  E..........c015.
2280: 80 2B 30 32 03 01 3F 81  23 BA 4B 32 03 01 40 81  .+02..?.#.K2..@.
2290: 41 81 56 80 42 81 5B 43  81 4B 32 03 01 4B 32 03  A.V.B.[C.K2..K2.
22A0: 01 66 73 74 6C 2B 30 32  03 01 44 81 23 52 10 80  .fstl+02..D.#R..
22B0: F0 FF FF 7F F0 FF FF 7F  63 30 31 35 45 10 80 F0  ........c015E...
22C0: FF FF 7F F0 FF FF 7F 63  30 31 36 05 80 6E 4A 32  .......c016..nJ2
22D0: 03 01 6F 80 99 4A 32 03  01 2B 4A 32 03 01 45 81  ..o..J2..+J2..E.
22E0: 23 2B 30 32 03 01 46 81  23 52 10 80 F0 FF FF 7F  #+02..F.#R......
22F0: F0 FF FF 7F 63 30 31 36  45 10 80 F0 FF FF 7F F0  ....c016E.......
2300: FF FF 7F 63 30 30 34 05  80 1C 2F 80 27 10 30 32  ...c004.../.'.02
2310: 03 01 04 2B 30 32 03 01  47 81 23 2B 30 32 03 01  ...+02..G.#+02..
2320: 48 81 23 1C 12 80 2B 30  32 03 01 49 81 23 52 10  H.#...+02..I.#R.
2330: 80 F0 FF FF 7F F0 FF FF  7F 63 30 30 34 45 10 80  .........c004E..
2340: F0 FF FF 7F F0 FF FF 7F  63 30 32 32 05 80 1C 12  ........c022....
2350: 80 2B 30 32 03 01 4A 81  23 2A 10 30 32 03 01 52  .+02..J.#*.02..R
2360: 10 80 F0 FF FF 7F F0 FF  FF 7F 63 30 32 32 7B 30  ..........c022{0
2370: 32 03 01 45 10 80 F0 FF  FF 7F F0 FF FF 7F 63 30  2..E..........c0
2380: 30 35 05 80 5B 4B 81 30  32 03 01 30 32 03 01 66  05..[K.02..02..f
2390: 73 74 30 5B 43 81 4B 32  03 01 4B 32 03 01 66 73  st0[C.K2..K2..fs
23A0: 74 30 1C 4C 81 52 10 80  F0 FF FF 7F F0 FF FF 7F  t0.L.R..........
23B0: 63 30 30 35 45 10 80 F0  FF FF 7F F0 FF FF 7F 63  c005E..........c
23C0: 30 30 36 05 80 1C 12 80  53 30 32 03 01 30 32 03  006.....S02..02.
23D0: 01 66 73 74 30 5B 4B 81  30 32 03 01 30 32 03 01  .fst0[K.02..02..
23E0: 66 73 74 31 1C 4D 81 52  10 80 F0 FF FF 7F F0 FF  fst1.M.R........
23F0: FF 7F 63 30 30 36 BA 4A  32 03 01 4E 81 4F 81 56  ..c006.J2..N.O.V
2400: 80 50 81 4A 4A 32 03 01  30 32 03 01 4A 4C 32 03  .P.JJ2..02..JL2.
2410: 01 30 32 03 01 4A 4D 32  03 01 30 32 03 01 45 10  .02..JM2..02..E.
2420: 80 F0 FF FF 7F F0 FF FF  7F 63 30 30 37 05 80 1C  .........c007...
2430: 12 80 5B 2A 81 4F 32 03  01 4F 32 03 01 74 68 6B  ..[*.O2..O2..thk
2440: 30 2B 4F 32 03 01 51 81  23 2B 4F 32 03 01 52 81  0+O2..Q.#+O2..R.
2450: 23 1C 12 80 2B 30 32 03  01 53 81 23 52 10 80 F0  #...+02..S.#R...
2460: FF FF 7F F0 FF FF 7F 63  30 30 37 45 10 80 F0 FF  .......c007E....
2470: FF 7F F0 FF FF 7F 63 30  30 38 05 80 2B 4B 32 03  ......c008..+K2.
2480: 01 54 81 23 2B 30 32 03  01 55 81 23 52 10 80 F0  .T.#+02..U.#R...
2490: FF FF 7F F0 FF FF 7F 63  30 30 38 45 10 80 F0 FF  .......c008E....
24A0: FF 7F F0 FF FF 7F 63 30  31 38 05 80 6E 4A 32 03  ......c018..nJ2.
24B0: 01 6F 80 99 4A 32 03 01  1C 2F 80 6E 4D 32 03 01  .o..J2.../.nM2..
24C0: 6F 80 99 4D 32 03 01 2B  4A 32 03 01 56 81 23 52  o..M2..+J2..V.#R
24D0: 10 80 F0 FF FF 7F F0 FF  FF 7F 63 30 31 38 45 10  ..........c018E.
24E0: 80 F0 FF FF 7F F0 FF FF  7F 63 30 31 39 05 80 5B  .........c019..[
24F0: 4B 81 30 32 03 01 30 32  03 01 66 73 74 32 2B 30  K.02..02..fst2+0
2500: 32 03 01 57 81 23 52 10  80 F0 FF FF 7F F0 FF FF  2..W.#R.........
2510: 7F 63 30 31 39 45 10 80  F0 FF FF 7F F0 FF FF 7F  .c019E..........
2520: 63 30 30 39 05 80 1C 27  80 4A 30 32 03 01 4F 32  c009...'.J02..O2
2530: 03 01 7C 00 4F 32 03 01  2B 4F 32 03 01 58 81 23  ..|.O2..+O2..X.#
2540: 7C 01 4F 32 03 01 5B 2A  81 4F 32 03 01 4F 32 03  |.O2..[*.O2..O2.
2550: 01 74 68 6B 31 2B 4F 32  03 01 59 81 23 2B 4F 32  .thk1+O2..Y.#+O2
2560: 03 01 5A 81 23 52 10 80  F0 FF FF 7F F0 FF FF 7F  ..Z.#R..........
2570: 63 30 30 39 45 10 80 F0  FF FF 7F F0 FF FF 7F 63  c009E..........c
2580: 30 31 30 05 80 1C 12 80  2B 30 32 03 01 5B 81 23  010.....+02..[.#
2590: 52 10 80 F0 FF FF 7F F0  FF FF 7F 63 30 31 30 45  R..........c010E
25A0: 10 80 F0 FF FF 7F F0 FF  FF 7F 72 75 67 61 05 80  ..........ruga..
25B0: 1C 30 80 2B 4F 32 03 01  5C 81 23 4E 01 4B 32 03  .0.+O2..\.#N.K2.
25C0: 01 2B 3B 32 03 01 5D 81  23 52 10 80 F0 FF FF 7F  .+;2..].#R......
25D0: F0 FF FF 7F 72 75 67 61  45 10 80 F0 FF FF 7F F0  ....rugaE.......
25E0: FF FF 7F 63 30 31 31 05  80 2B 4F 32 03 01 5E 81  ...c011..+O2..^.
25F0: 23 27 10 4F 32 03 01 03  1C 27 80 2B 30 32 03 01  #'.O2....'.+02..
2600: 5F 81 1C 0F 80 5D 05 80  28 80 45 04 80 F8 FF FF  _....]..(.E.....
2610: 7F F8 FF FF 7F 66 64 6F  31 05 80 55 04 80 F8 FF  .....fdo1..U....
2620: FF 7F F8 FF FF 7F 66 64  6F 31 52 10 80 F0 FF FF  ......fdo1R.....
2630: 7F F0 FF FF 7F 63 30 31  31 34 29 80 77 60 81 05  .....c0114).w`..
2640: 80 1C 2B 80 22 00 45 2D  80 F0 FF FF 7F F0 FF FF  ..+.".E-........
2650: 7F 6E 6F 73 65 05 80 55  2D 80 F0 FF FF 7F F0 FF  .nose..U-.......
2660: FF 7F 6E 6F 73 65 6A 2E  80 0F 80 2F 80 AB 0A 2D  ..nosej..../...-
2670: F0 FF FF 7F F0 FF FF 7F  31 70 62 31 4E 00 50 32  ........1pb1N.P2
2680: 03 01 4E 00 4B 32 03 01  BA 30 32 03 01 61 81 62  ..N.K2...02..a.b
2690: 81 63 81 64 81 BA 4A 32  03 01 65 81 66 81 D1 80  .c.d..J2..e.f...
26A0: 67 81 BA 4B 32 03 01 68  81 69 81 D1 80 67 81 BA  g..K2..h.i...g..
26B0: 4C 32 03 01 6A 81 6B 81  D1 80 6C 81 BA 4D 32 03  L2..j.k...l..M2.
26C0: 01 6D 81 6E 81 D1 80 6C  81 BA 50 32 03 01 6F 81  .m.n...l..P2..o.
26D0: 70 81 D1 80 67 81 7B 4A  32 03 01 7B 4B 32 03 01  p...g.{J2..{K2..
26E0: 80 50 32 03 01 80 30 32  03 01 80 4A 32 03 01 80  .P2...02...J2...
26F0: 4B 32 03 01 2F 00 50 32  03 01 5C 00 3A 80 5C 01  K2../.P2..\.:.\.
2700: 3A 80 9A 1C 27 80 45 10  80 F0 FF FF 7F F0 FF FF  :...'.E.........
2710: 7F 76 30 30 30 05 80 45  04 80 F8 FF FF 7F F8 FF  .v000..E........
2720: FF 7F 66 64 69 31 05 80  1C 0F 80 2B 4B 32 03 01  ..fdi1.....+K2..
2730: 71 81 23 2B 30 32 03 01  72 81 23 52 10 80 F0 FF  q.#+02..r.#R....
2740: FF 7F F0 FF FF 7F 76 30  30 30 45 10 80 F0 FF FF  ......v000E.....
2750: 7F F0 FF FF 7F 70 30 30  31 05 80 2B 30 32 03 01  .....p001..+02..
2760: 73 81 23 6E 30 32 03 01  21 80 99 30 32 03 01 2B  s.#n02..!..02..+
2770: 30 32 03 01 74 81 23 52  10 80 F0 FF FF 7F F0 FF  02..t.#R........
2780: FF 7F 70 30 30 31 45 10  80 F0 FF FF 7F F0 FF FF  ..p001E.........
2790: 7F 70 30 30 32 05 80 6E  4A 32 03 01 C1 80 99 4A  .p002..nJ2.....J
27A0: 32 03 01 2B 4A 32 03 01  75 81 23 6B 69 64 6C 30  2..+J2..u.#kidl0
27B0: 30 32 03 01 2B 4A 32 03  01 76 81 23 52 10 80 F0  02..+J2..v.#R...
27C0: FF FF 7F F0 FF FF 7F 70  30 30 32 4E 01 4C 32 03  .......p002N.L2.
27D0: 01 4E 01 4D 32 03 01 4E  01 4E 32 03 01 45 10 80  .N.M2..N.N2..E..
27E0: F0 FF FF 7F F0 FF FF 7F  70 30 30 33 05 80 2B 30  ........p003..+0
27F0: 32 03 01 77 81 23 5D 05  80 78 81 27 10 4A 32 03  2..w.#]..x.'.J2.
2800: 01 03 1C 79 81 27 10 4B  32 03 01 03 52 10 80 F0  ...y.'.K2...R...
2810: FF FF 7F F0 FF FF 7F 70  30 30 33 45 10 80 F0 FF  .......p003E....
2820: FF 7F F0 FF FF 7F 70 30  30 34 05 80 2A 10 4B 32  ......p004..*.K2
2830: 03 01 2B 4B 32 03 01 7A  81 23 79 00 30 32 03 01  ..+K2..z.#y.02..
2840: 4B 32 03 01 2B 30 32 03  01 7B 81 23 52 10 80 F0  K2..+02..{.#R...
2850: FF FF 7F F0 FF FF 7F 70  30 30 34 45 10 80 F0 FF  .......p004E....
2860: FF 7F F0 FF FF 7F 70 30  30 35 05 80 1C 2F 80 27  ......p005.../.'
2870: 10 4B 32 03 01 04 1C 7C  81 52 10 80 F0 FF FF 7F  .K2....|.R......
2880: F0 FF FF 7F 70 30 30 35  45 10 80 F0 FF FF 7F F0  ....p005E.......
2890: FF FF 7F 70 70 70 70 05  80 1C 12 80 7B 30 32 03  ...pppp.....{02.
28A0: 01 66 49 80 4B 32 03 01  4B 32 03 01 74 6C 6B 30  .fI.K2..K2..tlk0
28B0: 2B 4B 32 03 01 7D 81 23  66 49 80 4B 32 03 01 4B  +K2..}.#fI.K2..K
28C0: 32 03 01 74 6C 6B 31 1C  12 80 52 10 80 F0 FF FF  2..tlk1...R.....
28D0: 7F F0 FF FF 7F 70 70 70  70 45 10 80 F0 FF FF 7F  .....ppppE......
28E0: F0 FF FF 7F 70 30 30 36  05 80 5B 7E 81 30 32 03  ....p006..[~.02.
28F0: 01 30 32 03 01 67 65 74  30 1C 0F 80 5C 00 7F 81  .02..get0...\...
2900: 5C 01 7F 81 9A 2B 30 32  03 01 80 81 23 2B 30 32  \....+02....#+02
2910: 03 01 81 81 23 52 10 80  F0 FF FF 7F F0 FF FF 7F  ....#R..........
2920: 70 30 30 36 45 10 80 F0  FF FF 7F F0 FF FF 7F 70  p006E..........p
2930: 30 31 30 05 80 2B 4B 32  03 01 82 81 23 2B 30 32  010..+K2....#+02
2940: 03 01 83 81 23 52 10 80  F0 FF FF 7F F0 FF FF 7F  ....#R..........
2950: 70 30 31 30 45 10 80 F0  FF FF 7F F0 FF FF 7F 70  p010E..........p
2960: 30 31 31 05 80 1C 12 80  66 49 80 4B 32 03 01 4B  011.....fI.K2..K
2970: 32 03 01 74 6C 6B 30 2B  4B 32 03 01 84 81 23 6B  2..tlk0+K2....#k
2980: 69 64 6C 30 30 32 03 01  1C 12 80 2B 4B 32 03 01  idl002.....+K2..
2990: 85 81 23 66 49 80 4B 32  03 01 4B 32 03 01 74 6C  ..#fI.K2..K2..tl
29A0: 6B 31 52 10 80 F0 FF FF  7F F0 FF FF 7F 70 30 31  k1R..........p01
29B0: 31 45 10 80 F0 FF FF 7F  F0 FF FF 7F 70 30 31 32  1E..........p012
29C0: 05 80 6E 30 32 03 01 86  81 99 30 32 03 01 2B 30  ..n02.....02..+0
29D0: 32 03 01 87 81 23 1C 2F  80 52 10 80 F0 FF FF 7F  2....#./.R......
29E0: F0 FF FF 7F 70 30 31 32  45 10 80 F0 FF FF 7F F0  ....p012E.......
29F0: FF FF 7F 70 30 31 33 05  80 1C 2F 80 2B 4B 32 03  ...p013.../.+K2.
2A00: 01 88 81 23 2B 30 32 03  01 89 81 23 52 10 80 F0  ...#+02....#R...
2A10: FF FF 7F F0 FF FF 7F 70  30 31 33 45 10 80 F0 FF  .......p013E....
2A20: FF 7F F0 FF FF 7F 70 30  31 34 05 80 1C 12 80 6E  ......p014.....n
2A30: 4B 32 03 01 C1 80 99 4B  32 03 01 2B 4B 32 03 01  K2.....K2..+K2..
2A40: 8A 81 23 1C 0F 80 52 10  80 F0 FF FF 7F F0 FF FF  ..#...R.........
2A50: 7F 70 30 31 34 45 10 80  F0 FF FF 7F F0 FF FF 7F  .p014E..........
2A60: 70 30 31 35 05 80 1C 0F  80 2B 30 32 03 01 CA 80  p015.....+02....
2A70: 23 52 10 80 F0 FF FF 7F  F0 FF FF 7F 70 30 31 35  #R..........p015
2A80: 45 10 80 F0 FF FF 7F F0  FF FF 7F 70 30 31 36 05  E..........p016.
2A90: 80 1C 12 80 5B 04 81 30  32 03 01 30 32 03 01 67  ....[..02..02..g
2AA0: 61 68 30 2B 30 32 03 01  8B 81 23 2B 30 32 03 01  ah0+02....#+02..
2AB0: 8C 81 23 52 10 80 F0 FF  FF 7F F0 FF FF 7F 70 30  ..#R..........p0
2AC0: 31 36 45 10 80 F0 FF FF  7F F0 FF FF 7F 70 30 31  16E..........p01
2AD0: 37 05 80 2B 30 32 03 01  8D 81 23 2B 30 32 03 01  7..+02....#+02..
2AE0: 8E 81 23 52 10 80 F0 FF  FF 7F F0 FF FF 7F 70 30  ..#R..........p0
2AF0: 31 37 45 10 80 F0 FF FF  7F F0 FF FF 7F 70 30 31  17E..........p01
2B00: 38 05 80 1C 30 80 6B 69  64 6C 30 30 32 03 01 6E  8...0.kidl002..n
2B10: 4B 32 03 01 3D 80 99 4B  32 03 01 2B 4B 32 03 01  K2..=..K2..+K2..
2B20: 8F 81 23 1C 12 80 52 10  80 F0 FF FF 7F F0 FF FF  ..#...R.........
2B30: 7F 70 30 31 38 4E 00 4C  32 03 01 4E 00 4D 32 03  .p018N.L2..N.M2.
2B40: 01 4E 00 4E 32 03 01 BA  4A 32 03 01 90 81 91 81  .N.N2...J2......
2B50: 92 81 93 81 BA 4C 32 03  01 94 81 95 81 92 81 93  .....L2.........
2B60: 81 BA 4D 32 03 01 96 81  97 81 92 81 93 81 BA 4E  ..M2...........N
2B70: 32 03 01 98 81 99 81 92  81 93 81 27 10 50 32 03  2..........'.P2.
2B80: 01 02 1C 30 80 45 10 80  F0 FF FF 7F F0 FF FF 7F  ...0.E..........
2B90: 70 30 30 37 05 80 1C 0E  80 2B 50 32 03 01 9A 81  p007.....+P2....
2BA0: 23 2B 30 32 03 01 9B 81  23 2B 50 32 03 01 9C 81  #+02....#+P2....
2BB0: 23 2A 10 50 32 03 01 52  10 80 F0 FF FF 7F F0 FF  #*.P2..R........
2BC0: FF 7F 70 30 30 37 45 10  80 F0 FF FF 7F F0 FF FF  ..p007E.........
2BD0: 7F 70 30 30 38 05 80 2B  30 32 03 01 9D 81 23 2B  .p008..+02....#+
2BE0: 4A 32 03 01 9E 81 23 73  9F 81 50 32 03 01 4A 32  J2....#s..P2..J2
2BF0: 03 01 1C 30 80 BB 6F 80  4C 32 03 01 4C 32 03 01  ...0..o.L2..L2..
2C00: 6D 61 69 6E 05 80 BB 6F  80 4D 32 03 01 4D 32 03  main...o.M2..M2.
2C10: 01 6D 61 69 6E 05 80 1C  12 80 BB 6F 80 4E 32 03  .main......o.N2.
2C20: 01 4E 32 03 01 6D 61 69  6E 05 80 1C 12 80 66 06  .N2..main.....f.
2C30: 81 4B 32 03 01 4B 32 03  01 6B 62 61 30 1C 2F 80  .K2..K2..kba0./.
2C40: BB 6F 80 4B 32 03 01 4B  32 03 01 6D 61 69 6E 05  .o.K2..K2..main.
2C50: 80 2B 4B 32 03 01 A0 81  23 1C 28 80 6E 50 32 03  .+K2....#.(.nP2.
2C60: 01 3D 80 99 50 32 03 01  52 10 80 F0 FF FF 7F F0  .=..P2..R.......
2C70: FF FF 7F 70 30 30 38 45  10 80 F0 FF FF 7F F0 FF  ...p008E........
2C80: FF 7F 70 30 30 39 05 80  1C A1 81 5D 05 80 7C 81  ..p009.....]..|.
2C90: 45 04 80 F8 FF FF 7F F8  FF FF 7F 66 64 6F 31 05  E..........fdo1.
2CA0: 80 55 04 80 F8 FF FF 7F  F8 FF FF 7F 66 64 6F 31  .U..........fdo1
2CB0: 34 A2 81 77 05 80 2B 80  1C 12 80 AB 09 1C 74 80  4..w..+.......t.
2CC0: 4E 00 30 32 03 01 4E 00  3B 32 03 01 80 3B 32 03  N.02..N.;2...;2.
2CD0: 01 1C 74 80 29 10 30 32  03 01 08 80 30 32 03 01  ..t.).02....02..
2CE0: BA 30 32 03 01 A3 81 A4  81 05 80 A5 81 BA 3B 32  .02...........;2
2CF0: 03 01 72 80 A6 81 05 80  A7 81 1C 4C 80 7B 30 32  ..r........L.{02
2D00: 03 01 5B 10 81 30 32 03  01 30 32 03 01 68 69 7A  ..[..02..02..hiz
2D10: 30 53 30 32 03 01 30 32  03 01 68 69 7A 30 5C 00  0S02..02..hiz0\.
2D20: 3A 80 5C 01 3A 80 9A 1C  0F 80 45 10 80 F0 FF FF  :.\.:.....E.....
2D30: 7F F0 FF FF 7F 6F 30 30  30 05 80 45 04 80 F8 FF  .....o000..E....
2D40: FF 7F F8 FF FF 7F 66 64  69 31 05 80 1C 27 80 2B  ......fdi1...'.+
2D50: 3B 32 03 01 A8 81 23 52  10 80 F0 FF FF 7F F0 FF  ;2....#R........
2D60: FF 7F 6F 30 30 30 45 10  80 F0 FF FF 7F F0 FF FF  ..o000E.........
2D70: 7F 6F 30 30 31 05 80 1C  0F 80 2B 30 32 03 01 A9  .o001.....+02...
2D80: 81 23 2B 3B 32 03 01 AA  81 23 52 10 80 F0 FF FF  .#+;2....#R.....
2D90: 7F F0 FF FF 7F 6F 30 30  31 45 10 80 F0 FF FF 7F  .....o001E......
2DA0: F0 FF FF 7F 68 75 68 75  05 80 5B AB 81 3B 32 03  ....huhu..[..;2.
2DB0: 01 3B 32 03 01 68 61 68  61 2B 3B 32 03 01 AC 81  .;2..haha+;2....
2DC0: 23 52 10 80 F0 FF FF 7F  F0 FF FF 7F 68 75 68 75  #R..........huhu
2DD0: 5B 10 81 30 32 03 01 30  32 03 01 68 69 7A 33 45  [..02..02..hiz3E
2DE0: 10 80 F0 FF FF 7F F0 FF  FF 7F 68 65 68 65 05 80  ..........hehe..
2DF0: 1C 12 80 2B 30 32 03 01  AD 81 23 52 10 80 F0 FF  ...+02....#R....
2E00: FF 7F F0 FF FF 7F 68 65  68 65 45 10 80 F0 FF FF  ......heheE.....
