# 16986831

## Common Data

| Field            | Value                     |
|------------------|---------------------------|
| Zone             | Wajaom Woodlands (ID: 51) |
| Block Size       | 176 bytes                 |
| Total Events     | 5                         |
| References Count | 17                        |

## List of Events

| Event ID                 | Entrypoint   |   Size |   Instructions |
|--------------------------|--------------|--------|----------------|
| [65535](#event-65535)    | 0x0000       |      1 |              1 |
| [629](#event-629)        | 0x0001       |      1 |              1 |
| [65535.1](#event-655351) | 0x0002       |     14 |              4 |
| [65535.2](#event-655352) | 0x0010       |     22 |              6 |
| [65535.3](#event-655353) | 0x0026       |     34 |              8 |

## DAT References (imed_data)

|   Index | Hex Value   |   Dec Value |
|---------|-------------|-------------|
|       0 | 0x000D      |          13 |
|       1 | 0xA4972     |      674162 |
|       2 | 0x33A38     |      211512 |
|       3 | 0xFFFFC10D  |  4294951181 |
|       4 | 0xA4D9B     |      675227 |
|       5 | 0x3757E     |      226686 |
|       6 | 0xFFFFC16D  |  4294951277 |
|       7 | 0x001E      |          30 |
|       8 | 0xA57C2     |      677826 |
|       9 | 0x35C2D     |      220205 |
|      10 | 0xFFFFC374  |  4294951796 |
|      11 | 0xA6400     |      680960 |
|      12 | 0x356CE     |      218830 |
|      13 | 0xFFFFC33B  |  4294951739 |
|      14 | 0xA7F56     |      687958 |
|      15 | 0x35716     |      218902 |
|      16 | 0xFFFFB7C0  |  4294948800 |

## Events

### Event 65535

#### Metadata

| Field        | Value   |
|--------------|---------|
| Entrypoint   | 0x0000  |
| Data Size    | 1 bytes |
| Instructions | 1       |

```
      00 01 02 03 04 05 06 07  08 09 0A 0B 0C 0D 0E 0F
      -- -- -- -- -- -- -- --  -- -- -- -- -- -- -- --
0000: 00                                                .               
```

#### Opcodes

```
  0: 0x0000 [0x00] END_REQSTACK()
```

### Event 629

#### Metadata

| Field        | Value   |
|--------------|---------|
| Entrypoint   | 0x0001  |
| Data Size    | 1 bytes |
| Instructions | 1       |

```
      00 01 02 03 04 05 06 07  08 09 0A 0B 0C 0D 0E 0F
      -- -- -- -- -- -- -- --  -- -- -- -- -- -- -- --
0000:    00                                              .              
```

#### Opcodes

```
  0: 0x0001 [0x00] END_REQSTACK()
```

### Event 65535.1

#### Metadata

| Field        | Value    |
|--------------|----------|
| Entrypoint   | 0x0002   |
| Data Size    | 14 bytes |
| Instructions | 4        |

```
      00 01 02 03 04 05 06 07  08 09 0A 0B 0C 0D 0E 0F
      -- -- -- -- -- -- -- --  -- -- -- -- -- -- -- --
0000:       32 00 80 1F 00 01  80 02 80 03 80 1F 01 00    2.............
```

#### Opcodes

```
  0: 0x0002 [0x32] ExtData[1]->MainSpeed = 13* * 0.1
  1: 0x0005 [0x1F] MOVE_ENTITY: EventEntity moves to X=674.162*, Z=211.512*, Y=-16.115*
  2: 0x000D [0x1F] MOVE_ENTITY: Update entity position (mode=1)
  3: 0x000F [0x00] END_REQSTACK()
```

### Event 65535.2

#### Metadata

| Field        | Value    |
|--------------|----------|
| Entrypoint   | 0x0010   |
| Data Size    | 22 bytes |
| Instructions | 6        |

```
      00 01 02 03 04 05 06 07  08 09 0A 0B 0C 0D 0E 0F
      -- -- -- -- -- -- -- --  -- -- -- -- -- -- -- --
0010: 32 00 80 1F 00 04 80 05  80 06 80 1F 01 1E CD 32  2..............2
0020: 03 01 1C 07 80 00                                 ......          
```

#### Opcodes

```
  0: 0x0010 [0x32] ExtData[1]->MainSpeed = 13* * 0.1
  1: 0x0013 [0x1F] MOVE_ENTITY: EventEntity moves to X=675.227*, Z=226.686*, Y=-16.019*
  2: 0x001B [0x1F] MOVE_ENTITY: Update entity position (mode=1)
  3: 0x001D [0x1E] EventEntity looks at Camille (ID: 16986829/0x010332CD) and starts talking
  4: 0x0022 [0x1C] WAIT(30* ticks)
  5: 0x0025 [0x00] END_REQSTACK()
```

### Event 65535.3

#### Metadata

| Field        | Value    |
|--------------|----------|
| Entrypoint   | 0x0026   |
| Data Size    | 34 bytes |
| Instructions | 8        |

```
      00 01 02 03 04 05 06 07  08 09 0A 0B 0C 0D 0E 0F
      -- -- -- -- -- -- -- --  -- -- -- -- -- -- -- --
0020:                   32 00  80 1F 00 08 80 09 80 0A        2.........
0030: 80 1F 01 1F 00 0B 80 0C  80 0D 80 1F 01 1F 00 0E  ................
0040: 80 0F 80 10 80 1F 01 00                           ........        
```

#### Opcodes

```
  0: 0x0026 [0x32] ExtData[1]->MainSpeed = 13* * 0.1
  1: 0x0029 [0x1F] MOVE_ENTITY: EventEntity moves to X=677.826*, Z=220.205*, Y=-15.500*
  2: 0x0031 [0x1F] MOVE_ENTITY: Update entity position (mode=1)
  3: 0x0033 [0x1F] MOVE_ENTITY: EventEntity moves to X=680.960*, Z=218.830*, Y=-15.557*
  4: 0x003B [0x1F] MOVE_ENTITY: Update entity position (mode=1)
  5: 0x003D [0x1F] MOVE_ENTITY: EventEntity moves to X=687.958*, Z=218.902*, Y=-18.496*
  6: 0x0045 [0x1F] MOVE_ENTITY: Update entity position (mode=1)
  7: 0x0047 [0x00] END_REQSTACK()
```
