# 16986648

## Common Data

| Field            | Value                     |
|------------------|---------------------------|
| Zone             | Wajaom Woodlands (ID: 51) |
| Block Size       | 4144 bytes                |
| Total Events     | 3                         |
| References Count | 132                       |

## List of Events

| Event ID              | Entrypoint   |   Size |   Instructions |
|-----------------------|--------------|--------|----------------|
| [65535](#event-65535) | 0x0000       |      1 |              1 |
| [504](#event-504)     | 0x0001       |   1159 |            153 |
| [510](#event-510)     | 0x0488       |   2427 |            292 |

## DAT References (imed_data)

|   Index | Hex Value   |   Dec Value |
|---------|-------------|-------------|
|       0 | 0x0000      |           0 |
|       1 | 0x0078      |         120 |
|       2 | 0x00C8      |         200 |
|       3 | 0x0013      |          19 |
|       4 | 0x0104      |         260 |
|       5 | 0x012C      |         300 |
|       6 | 0x00F0      |         240 |
|       7 | 0x003C      |          60 |
|       8 | 0x06DD      |        1757 |
|       9 | 0x001E      |          30 |
|      10 | 0x1CB2      |        7346 |
|      11 | 0x0588      |        1416 |
|      12 | 0x007F      |         127 |
|      13 | 0x00B4      |         180 |
|      14 | 0x0006      |           6 |
|      15 | 0x0025      |          37 |
|      16 | 0x1CB3      |        7347 |
|      17 | 0x005A      |          90 |
|      18 | 0x032F      |         815 |
|      19 | 0x1CB4      |        7348 |
|      20 | 0x0022      |          34 |
|      21 | 0x1CB5      |        7349 |
|      22 | 0x1CB6      |        7350 |
|      23 | 0x001A      |          26 |
|      24 | 0x0B14      |        2836 |
|      25 | 0x1CB7      |        7351 |
|      26 | 0x1CB8      |        7352 |
|      27 | 0x001D      |          29 |
|      28 | 0x0009      |           9 |
|      29 | 0x1CB9      |        7353 |
|      30 | 0x004B      |          75 |
|      31 | 0x1CBB      |        7355 |
|      32 | 0x00FF      |         255 |
|      33 | 0x1CBC      |        7356 |
|      34 | 0x0095      |         149 |
|      35 | 0x001B      |          27 |
|      36 | 0xA58FB     |      678139 |
|      37 | 0x3527F     |      217727 |
|      38 | 0xFFFFC374  |  4294951796 |
|      39 | 0x0802      |        2050 |
|      40 | 0xA7271     |      684657 |
|      41 | 0x35C6A     |      220266 |
|      42 | 0xFFFFBD77  |  4294950263 |
|      43 | 0x0856      |        2134 |
|      44 | 0x95BE8     |      613352 |
|      45 | 0x2B884     |      178308 |
|      46 | 0xFFFFBADF  |  4294949599 |
|      47 | 0x0E7D      |        3709 |
|      48 | 0x2A37B     |      172923 |
|      49 | 0x44469     |      279657 |
|      50 | 0xFFFFA38B  |  4294943627 |
|      51 | 0x0EFA      |        3834 |
|      52 | 0x2A455     |      173141 |
|      53 | 0x43E2A     |      278058 |
|      54 | 0xFFFFA453  |  4294943827 |
|      55 | 0x0E6C      |        3692 |
|      56 | 0x261A8     |      156072 |
|      57 | 0x46DAB     |      290219 |
|      58 | 0xFFFFA33A  |  4294943546 |
|      59 | 0x0CD4      |        3284 |
|      60 | 0x25F93     |      155539 |
|      61 | 0x475C9     |      292297 |
|      62 | 0xFFFFA2A8  |  4294943400 |
|      63 | 0x01D2      |         466 |
|      64 | 0x2691F     |      157983 |
|      65 | 0x46C25     |      289829 |
|      66 | 0x0D7F      |        3455 |
|      67 | 0x00C1      |         193 |
|      68 | 0x1D30      |        7472 |
|      69 | 0x98E9B     |      626331 |
|      70 | 0x2C47F     |      181375 |
|      71 | 0xFFFFBA17  |  4294949399 |
|      72 | 0x0763      |        1891 |
|      73 | 0x99564     |      628068 |
|      74 | 0x2C5CC     |      181708 |
|      75 | 0xFFFFB9AB  |  4294949291 |
|      76 | 0x079D      |        1949 |
|      77 | 0x1D31      |        7473 |
|      78 | 0x0015      |          21 |
|      79 | 0x00C9      |         201 |
|      80 | 0x2DF31     |      188209 |
|      81 | 0x43C80     |      277632 |
|      82 | 0xFFFFA32C  |  4294943532 |
|      83 | 0x0746      |        1862 |
|      84 | 0x2E308     |      189192 |
|      85 | 0x43AF3     |      277235 |
|      86 | 0x07EF      |        2031 |
|      87 | 0x1D32      |        7474 |
|      88 | 0x28C19     |      166937 |
|      89 | 0x46FC1     |      290753 |
|      90 | 0xFFFFA33B  |  4294943547 |
|      91 | 0x00CB      |         203 |
|      92 | 0x29106     |      168198 |
|      93 | 0x46FC6     |      290758 |
|      94 | 0x0028      |          40 |
|      95 | 0x1D33      |        7475 |
|      96 | 0x000F      |          15 |
|      97 | 0x26DF2     |      159218 |
|      98 | 0x5612F     |      352559 |
|      99 | 0xFFFFBFCC  |  4294950860 |
|     100 | 0x09D3      |        2515 |
|     101 | 0x2649C     |      156828 |
|     102 | 0x5643F     |      353343 |
|     103 | 0xFFFFC02E  |  4294950958 |
|     104 | 0x0E9E      |        3742 |
|     105 | 0x26AAB     |      158379 |
|     106 | 0x57F7F     |      360319 |
|     107 | 0xFFFFC180  |  4294951296 |
|     108 | 0x056F      |        1391 |
|     109 | 0x0001      |           1 |
|     110 | 0x1D34      |        7476 |
|     111 | 0x1D35      |        7477 |
|     112 | 0x1D36      |        7478 |
|     113 | 0x263E3     |      156643 |
|     114 | 0x4E9E8     |      322024 |
|     115 | 0xFFFFA241  |  4294943297 |
|     116 | 0x0BB0      |        2992 |
|     117 | 0x1D37      |        7479 |
|     118 | 0x1D38      |        7480 |
|     119 | 0x1D39      |        7481 |
|     120 | 0x0DBE      |        3518 |
|     121 | 0x1D3A      |        7482 |
|     122 | 0x26B46     |      158534 |
|     123 | 0x4E405     |      320517 |
|     124 | 0x0A7D      |        2685 |
|     125 | 0x1D3B      |        7483 |
|     126 | 0x1D3C      |        7484 |
|     127 | 0x0016      |          22 |
|     128 | 0x1D3D      |        7485 |
|     129 | 0x1D3E      |        7486 |
|     130 | 0x0007      |           7 |
|     131 | 0x1D3F      |        7487 |

## String References

- **7346**: You hear voices raised in argument...

## Events

### Event 65535

#### Metadata

| Field        | Value   |
|--------------|---------|
| Entrypoint   | 0x0000  |
| Data Size    | 1 bytes |
| Instructions | 1       |

```
      00 01 02 03 04 05 06 07  08 09 0A 0B 0C 0D 0E 0F
      -- -- -- -- -- -- -- --  -- -- -- -- -- -- -- --
0000: 00                                                .               
```

#### Opcodes

```
  0: 0x0000 [0x00] END_REQSTACK()
```

### Event 504

#### Metadata

| Field        | Value      |
|--------------|------------|
| Entrypoint   | 0x0001     |
| Data Size    | 1159 bytes |
| Instructions | 153        |

```
      00 01 02 03 04 05 06 07  08 09 0A 0B 0C 0D 0E 0F
      -- -- -- -- -- -- -- --  -- -- -- -- -- -- -- --
0000:    42 5D 00 80 01 80 45  02 80 F0 FF FF 7F F0 FF   B]....E........
0010: FF 7F 66 64 6F 31 00 80  55 02 80 F0 FF FF 7F F0  ..fdo1..U.......
0020: FF FF 7F 66 64 6F 31 46  01 38 03 80 29 05 F0 FF  ...fdo1F.8..)...
0030: FF 7F 0A 4E 00 19 32 03  01 4E 00 1A 32 03 01 4E  ...N..2..N..2..N
0040: 00 1B 32 03 01 92 01 19  32 03 01 92 01 1A 32 03  ..2.....2.....2.
0050: 01 92 01 1B 32 03 01 79  00 19 32 03 01 1A 32 03  ....2..y..2...2.
0060: 01 29 05 19 32 03 01 02  29 05 1A 32 03 01 02 29  .)..2...)..2...)
0070: 05 1B 32 03 01 02 1C 01  80 45 04 80 F8 FF FF 7F  ..2......E......
0080: F8 FF FF 7F 73 30 31 30  00 80 45 02 80 F0 FF FF  ....s010..E.....
0090: 7F F0 FF FF 7F 66 64 69  31 00 80 55 02 80 F0 FF  .....fdi1..U....
00A0: FF 7F F0 FF FF 7F 66 64  69 31 1C 05 80 27 05 F0  ......fdi1...'..
00B0: FF FF 7F 0B 45 02 80 F0  FF FF 7F F0 FF FF 7F 6F  ....E..........o
00C0: 76 6C 32 00 80 52 04 80  F8 FF FF 7F F8 FF FF 7F  vl2..R..........
00D0: 73 30 31 30 45 04 80 F8  FF FF 7F F8 FF FF 7F 73  s010E..........s
00E0: 30 31 31 00 80 1C 06 80  45 02 80 F0 FF FF 7F F0  011.....E.......
00F0: FF FF 7F 6F 76 6C 32 00  80 52 04 80 F8 FF FF 7F  ...ovl2..R......
0100: F8 FF FF 7F 73 30 31 31  45 04 80 F8 FF FF 7F F8  ....s011E.......
0110: FF FF 7F 73 30 31 32 00  80 2A 05 F0 FF FF 7F 1C  ...s012..*......
0120: 07 80 4B F0 FF FF 7F 08  80 1C 09 80 48 0A 80 23  ..K.........H..#
0130: 27 05 F0 FF FF 7F 0C 52  04 80 F8 FF FF 7F F8 FF  '......R........
0140: FF 7F 73 30 31 32 45 04  80 F8 FF FF 7F F8 FF FF  ..s012E.........
0150: 7F 73 30 31 33 00 80 2A  05 F0 FF FF 7F 4B F0 FF  .s013..*.....K..
0160: FF 7F 0B 80 1C 07 80 27  05 F0 FF FF 7F 13 5C 00  .......'......\.
0170: 0C 80 5C 01 0C 80 1C 0D  80 52 04 80 F8 FF FF 7F  ..\......R......
0180: F8 FF FF 7F 73 30 31 33  45 04 80 F8 FF FF 7F F8  ....s013E.......
0190: FF FF 7F 73 30 31 34 00  80 1C 01 80 6E 19 32 03  ...s014.....n.2.
01A0: 01 0E 80 99 19 32 03 01  99 19 32 03 01 1C 01 80  .....2....2.....
01B0: 52 04 80 F8 FF FF 7F F8  FF FF 7F 73 30 31 34 45  R..........s014E
01C0: 04 80 F8 FF FF 7F F8 FF  FF 7F 73 30 31 35 00 80  ..........s015..
01D0: 6E 19 32 03 01 0F 80 99  19 32 03 01 2B 19 32 03  n.2......2..+.2.
01E0: 01 10 80 23 99 19 32 03  01 1C 01 80 52 04 80 F8  ...#..2.....R...
01F0: FF FF 7F F8 FF FF 7F 73  30 31 35 45 04 80 F8 FF  .......s015E....
0200: FF 7F F8 FF FF 7F 73 30  31 36 00 80 1C 09 80 29  ......s016.....)
0210: 05 1A 32 03 01 03 1C 11  80 5B 12 80 1A 32 03 01  ..2......[...2..
0220: 1A 32 03 01 74 6C 6B 30  2B 1A 32 03 01 13 80 23  .2..tlk0+.2....#
0230: 5B 12 80 1A 32 03 01 1A  32 03 01 74 6C 6B 31 1C  [...2...2..tlk1.
0240: 07 80 29 05 19 32 03 01  03 1C 09 80 6E 19 32 03  ..)..2......n.2.
0250: 01 14 80 99 19 32 03 01  2B 19 32 03 01 15 80 23  .....2..+.2....#
0260: 99 19 32 03 01 1C 11 80  2B 1A 32 03 01 16 80 23  ..2.....+.2....#
0270: 6E 19 32 03 01 17 80 99  19 32 03 01 99 19 32 03  n.2......2....2.
0280: 01 1C 0D 80 52 04 80 F8  FF FF 7F F8 FF FF 7F 73  ....R..........s
0290: 30 31 36 45 04 80 F8 FF  FF 7F F8 FF FF 7F 73 30  016E..........s0
02A0: 31 37 00 80 27 05 1B 32  03 01 03 1C 0D 80 52 04  17..'..2......R.
02B0: 80 F8 FF FF 7F F8 FF FF  7F 73 30 31 37 45 04 80  .........s017E..
02C0: F8 FF FF 7F F8 FF FF 7F  73 30 31 38 00 80 4B 1A  ........s018..K.
02D0: 32 03 01 18 80 2B 1A 32  03 01 19 80 23 1C 07 80  2....+.2....#...
02E0: 4A 1A 32 03 01 19 32 03  01 5B 12 80 1A 32 03 01  J.2...2..[...2..
02F0: 1A 32 03 01 74 6C 6B 30  2B 1A 32 03 01 1A 80 23  .2..tlk0+.2....#
0300: 5B 12 80 1A 32 03 01 1A  32 03 01 74 6C 6B 31 6E  [...2...2..tlk1n
0310: 19 32 03 01 1B 80 99 19  32 03 01 99 19 32 03 01  .2......2....2..
0320: 1C 01 80 29 05 19 32 03  01 04 66 1C 80 19 32 03  ...)..2...f...2.
0330: 01 19 32 03 01 74 77 61  30 2B 19 32 03 01 1D 80  ..2..twa0+.2....
0340: 23 66 1C 80 19 32 03 01  19 32 03 01 74 77 61 31  #f...2...2..twa1
0350: 4B 1A 32 03 01 18 80 1C  07 80 2B 1A 32 03 01 16  K.2.......+.2...
0360: 80 23 27 05 1A 32 03 01  04 1C 1E 80 29 05 19 32  .#'..2......)..2
0370: 03 01 05 1C 09 80 66 1C  80 19 32 03 01 19 32 03  ......f...2...2.
0380: 01 74 6C 6B 30 2B 19 32  03 01 1F 80 23 66 1C 80  .tlk0+.2....#f..
0390: 19 32 03 01 19 32 03 01  74 6C 6B 31 2A 05 1A 32  .2...2..tlk1*..2
03A0: 03 01 27 05 1A 32 03 01  05 52 04 80 F8 FF FF 7F  ..'..2...R......
03B0: F8 FF FF 7F 73 30 31 38  45 04 80 F8 FF FF 7F F8  ....s018E.......
03C0: FF FF 7F 73 31 31 36 00  80 2A 05 1A 32 03 01 1C  ...s116..*..2...
03D0: 11 80 52 04 80 F8 FF FF  7F F8 FF FF 7F 73 31 31  ..R..........s11
03E0: 36 45 20 80 F8 FF FF 7F  F8 FF FF 7F 73 30 39 33  6E .........s093
03F0: 00 80 1C 11 80 52 20 80  F8 FF FF 7F F8 FF FF 7F  .....R .........
0400: 73 30 39 33 27 05 1A 32  03 01 06 1C 07 80 6E 19  s093'..2......n.
0410: 32 03 01 0E 80 99 19 32  03 01 2B 19 32 03 01 21  2......2..+.2..!
0420: 80 23 99 19 32 03 01 1C  11 80 27 05 19 32 03 01  .#..2.....'..2..
0430: 06 1C 09 80 5D 00 80 01  80 45 02 80 F0 FF FF 7F  ....]....E......
0440: F0 FF FF 7F 66 64 6F 32  00 80 55 02 80 F0 FF FF  ....fdo2..U.....
0450: 7F F0 FF FF 7F 66 64 6F  32 5C 00 22 80 5C 01 22  .....fdo2\.".\."
0460: 80 4E 01 1A 32 03 01 4E  01 19 32 03 01 4E 01 1B  .N..2..N..2..N..
0470: 32 03 01 46 00 45 02 80  F0 FF FF 7F F0 FF FF 7F  2..F.E..........
0480: 66 64 69 32 00 80 21 00                           fdi2..!.        
```

#### Opcodes

```
  0: 0x0001 [0x42] SET_CLI_EVENT_CANCEL_DATA()
  1: 0x0002 [0x5D] SET_MUSIC_VOLUME(volume=0*, fade_time=120*)
  2: 0x0007 [0x45] LOAD_SCHEDULED_TASK: Load scheduler "fdo1" with entities [LocalPlayer, LocalPlayer], work=[200*, 0*]
  3: 0x0018 [0x55] WAIT_LOAD_SCHEDULER: Wait for scheduler "fdo1" with entities [LocalPlayer, LocalPlayer], work=200*
  4: 0x0027 [0x46] CAMERA_CONTROL: Disable user control
  5: 0x0029 [0x38] SET_CLIENT_EVENT_MODE(mode=19*)
  6: 0x002C [0x29] REQ_SET_WAIT(priority=0x05, entity_id=LocalPlayer, tag_num=0x0A)
  7: 0x0033 [0x4E] SET_ENTITY_HIDE_FLAG: Show Isween (ID: 16986649/0x01033219)
  8: 0x0039 [0x4E] SET_ENTITY_HIDE_FLAG: Show Gukool Ja (ID: 16986650/0x0103321A)
  9: 0x003F [0x4E] SET_ENTITY_HIDE_FLAG: Show Golaal Ja (ID: 16986651/0x0103321B)
 10: 0x0045 [0x92] Isween (ID: 16986649/0x01033219)->Render.Flags3 ^= 0x01
 11: 0x004B [0x92] Gukool Ja (ID: 16986650/0x0103321A)->Render.Flags3 ^= 0x01
 12: 0x0051 [0x92] Golaal Ja (ID: 16986651/0x0103321B)->Render.Flags3 ^= 0x01
 13: 0x0057 [0x79] Isween (ID: 16986649/0x01033219) looks at Gukool Ja (ID: 16986650/0x0103321A) (Basic look)
 14: 0x0061 [0x29] REQ_SET_WAIT(priority=0x05, entity_id=Isween (ID: 16986649/0x01033219), tag_num=0x02)
 15: 0x0068 [0x29] REQ_SET_WAIT(priority=0x05, entity_id=Gukool Ja (ID: 16986650/0x0103321A), tag_num=0x02)
 16: 0x006F [0x29] REQ_SET_WAIT(priority=0x05, entity_id=Golaal Ja (ID: 16986651/0x0103321B), tag_num=0x02)
 17: 0x0076 [0x1C] WAIT(120* ticks)
 18: 0x0079 [0x45] LOAD_SCHEDULED_TASK: Load scheduler "s010" with entities [EventEntity, EventEntity], work=[260*, 0*]
 19: 0x008A [0x45] LOAD_SCHEDULED_TASK: Load scheduler "fdi1" with entities [LocalPlayer, LocalPlayer], work=[200*, 0*]
 20: 0x009B [0x55] WAIT_LOAD_SCHEDULER: Wait for scheduler "fdi1" with entities [LocalPlayer, LocalPlayer], work=200*
 21: 0x00AA [0x1C] WAIT(300* ticks)
 22: 0x00AD [0x27] REQ_SET(priority=0x05, entity_id=LocalPlayer, tag_num=0x0B)
 23: 0x00B4 [0x45] LOAD_SCHEDULED_TASK: Load scheduler "ovl2" with entities [LocalPlayer, LocalPlayer], work=[200*, 0*]
 24: 0x00C5 [0x52] END_LOAD_SCHEDULER: End scheduler "s010" with entities [EventEntity, EventEntity], work=260*
 25: 0x00D4 [0x45] LOAD_SCHEDULED_TASK: Load scheduler "s011" with entities [EventEntity, EventEntity], work=[260*, 0*]
 26: 0x00E5 [0x1C] WAIT(240* ticks)
 27: 0x00E8 [0x45] LOAD_SCHEDULED_TASK: Load scheduler "ovl2" with entities [LocalPlayer, LocalPlayer], work=[200*, 0*]
 28: 0x00F9 [0x52] END_LOAD_SCHEDULER: End scheduler "s011" with entities [EventEntity, EventEntity], work=260*
 29: 0x0108 [0x45] LOAD_SCHEDULED_TASK: Load scheduler "s012" with entities [EventEntity, EventEntity], work=[260*, 0*]
 30: 0x0119 [0x2A] GET_REQ_LEVEL(level=5, entity_id=LocalPlayer)
 31: 0x011F [0x1C] WAIT(60* ticks)
 32: 0x0122 [0x4B] UPDATE_ENTITY_YAW(entity=LocalPlayer, yaw=9.7°*)
 33: 0x0129 [0x1C] WAIT(30* ticks)
 34: 0x012C [0x48] [System] [7346*]:
    → "You hear voices raised in argument..."
 35: 0x012F [0x23] WAIT_FOR_DIALOG_INTERACTION
 36: 0x0130 [0x27] REQ_SET(priority=0x05, entity_id=LocalPlayer, tag_num=0x0C)
 37: 0x0137 [0x52] END_LOAD_SCHEDULER: End scheduler "s012" with entities [EventEntity, EventEntity], work=260*
 38: 0x0146 [0x45] LOAD_SCHEDULED_TASK: Load scheduler "s013" with entities [EventEntity, EventEntity], work=[260*, 0*]
 39: 0x0157 [0x2A] GET_REQ_LEVEL(level=5, entity_id=LocalPlayer)
 40: 0x015D [0x4B] UPDATE_ENTITY_YAW(entity=LocalPlayer, yaw=7.8°*)
 41: 0x0164 [0x1C] WAIT(60* ticks)
 42: 0x0167 [0x27] REQ_SET(priority=0x05, entity_id=LocalPlayer, tag_num=0x13)
 43: 0x016E [0x5C] MUSIC_CONTROL: Set Idle (Day) music to song 127*
 44: 0x0172 [0x5C] MUSIC_CONTROL: Set Idle (Night) music to song 127*
 45: 0x0176 [0x1C] WAIT(180* ticks)
 46: 0x0179 [0x52] END_LOAD_SCHEDULER: End scheduler "s013" with entities [EventEntity, EventEntity], work=260*
 47: 0x0188 [0x45] LOAD_SCHEDULED_TASK: Load scheduler "s014" with entities [EventEntity, EventEntity], work=[260*, 0*]
 48: 0x0199 [0x1C] WAIT(120* ticks)
 49: 0x019C [0x6E] Isween (ID: 16986649/0x01033219) uses emote 6*
 50: 0x01A3 [0x99] Wait for Isween (ID: 16986649/0x01033219) animation to complete
 51: 0x01A8 [0x99] Wait for Isween (ID: 16986649/0x01033219) animation to complete
 52: 0x01AD [0x1C] WAIT(120* ticks)
 53: 0x01B0 [0x52] END_LOAD_SCHEDULER: End scheduler "s014" with entities [EventEntity, EventEntity], work=260*
 54: 0x01BF [0x45] LOAD_SCHEDULED_TASK: Load scheduler "s015" with entities [EventEntity, EventEntity], work=[260*, 0*]
 55: 0x01D0 [0x6E] Isween (ID: 16986649/0x01033219) uses emote 37*
 56: 0x01D7 [0x99] Wait for Isween (ID: 16986649/0x01033219) animation to complete
 57: 0x01DC [0x2B] Isween (ID: 16986649/0x01033219) [7347*]:
    → "What do you mean? You have to explain why."
 58: 0x01E3 [0x23] WAIT_FOR_DIALOG_INTERACTION
 59: 0x01E4 [0x99] Wait for Isween (ID: 16986649/0x01033219) animation to complete
 60: 0x01E9 [0x1C] WAIT(120* ticks)
 61: 0x01EC [0x52] END_LOAD_SCHEDULER: End scheduler "s015" with entities [EventEntity, EventEntity], work=260*
 62: 0x01FB [0x45] LOAD_SCHEDULED_TASK: Load scheduler "s016" with entities [EventEntity, EventEntity], work=[260*, 0*]
 63: 0x020C [0x1C] WAIT(30* ticks)
 64: 0x020F [0x29] REQ_SET_WAIT(priority=0x05, entity_id=Gukool Ja (ID: 16986650/0x0103321A), tag_num=0x03)
 65: 0x0216 [0x1C] WAIT(90* ticks)
 66: 0x0219 [0x5B] LOAD_EXT_SCHEDULER: Load scheduler "tlk0" with entities [Gukool Ja (ID: 16986650/0x0103321A), Gukool Ja (ID: 16986650/0x0103321A)], work=815*
 67: 0x0228 [0x2B] Gukool Ja (ID: 16986650/0x0103321A) [7348*]:
    → "No more, can we meet. That is all. No reason, there is."
 68: 0x022F [0x23] WAIT_FOR_DIALOG_INTERACTION
 69: 0x0230 [0x5B] LOAD_EXT_SCHEDULER: Load scheduler "tlk1" with entities [Gukool Ja (ID: 16986650/0x0103321A), Gukool Ja (ID: 16986650/0x0103321A)], work=815*
 70: 0x023F [0x1C] WAIT(60* ticks)
 71: 0x0242 [0x29] REQ_SET_WAIT(priority=0x05, entity_id=Isween (ID: 16986649/0x01033219), tag_num=0x03)
 72: 0x0249 [0x1C] WAIT(30* ticks)
 73: 0x024C [0x6E] Isween (ID: 16986649/0x01033219) uses emote 34*
 74: 0x0253 [0x99] Wait for Isween (ID: 16986649/0x01033219) animation to complete
 75: 0x0258 [0x2B] Isween (ID: 16986649/0x01033219) [7349*]:
    → "But we were going to stop the fighting together! Was that all just a lie!?"
 76: 0x025F [0x23] WAIT_FOR_DIALOG_INTERACTION
 77: 0x0260 [0x99] Wait for Isween (ID: 16986649/0x01033219) animation to complete
 78: 0x0265 [0x1C] WAIT(90* ticks)
 79: 0x0268 [0x2B] Gukool Ja (ID: 16986650/0x0103321A) [7350*]:
    → "..."
 80: 0x026F [0x23] WAIT_FOR_DIALOG_INTERACTION
 81: 0x0270 [0x6E] Isween (ID: 16986649/0x01033219) uses emote 26*
 82: 0x0277 [0x99] Wait for Isween (ID: 16986649/0x01033219) animation to complete
 83: 0x027C [0x99] Wait for Isween (ID: 16986649/0x01033219) animation to complete
 84: 0x0281 [0x1C] WAIT(180* ticks)
 85: 0x0284 [0x52] END_LOAD_SCHEDULER: End scheduler "s016" with entities [EventEntity, EventEntity], work=260*
 86: 0x0293 [0x45] LOAD_SCHEDULED_TASK: Load scheduler "s017" with entities [EventEntity, EventEntity], work=[260*, 0*]
 87: 0x02A4 [0x27] REQ_SET(priority=0x05, entity_id=Golaal Ja (ID: 16986651/0x0103321B), tag_num=0x03)
 88: 0x02AB [0x1C] WAIT(180* ticks)
 89: 0x02AE [0x52] END_LOAD_SCHEDULER: End scheduler "s017" with entities [EventEntity, EventEntity], work=260*
 90: 0x02BD [0x45] LOAD_SCHEDULED_TASK: Load scheduler "s018" with entities [EventEntity, EventEntity], work=[260*, 0*]
 91: 0x02CE [0x4B] UPDATE_ENTITY_YAW(entity=Gukool Ja (ID: 16986650/0x0103321A), yaw=15.6°*)
 92: 0x02D5 [0x2B] Gukool Ja (ID: 16986650/0x0103321A) [7351*]:
    → "!!!"
 93: 0x02DC [0x23] WAIT_FOR_DIALOG_INTERACTION
 94: 0x02DD [0x1C] WAIT(60* ticks)
 95: 0x02E0 [0x4A] Gukool Ja (ID: 16986650/0x0103321A) looks at Isween (ID: 16986649/0x01033219)
 96: 0x02E9 [0x5B] LOAD_EXT_SCHEDULER: Load scheduler "tlk0" with entities [Gukool Ja (ID: 16986650/0x0103321A), Gukool Ja (ID: 16986650/0x0103321A)], work=815*
 97: 0x02F8 [0x2B] Gukool Ja (ID: 16986650/0x0103321A) [7352*]:
    → "(My brothers are here. You go now. Safe, it is not.)"
 98: 0x02FF [0x23] WAIT_FOR_DIALOG_INTERACTION
 99: 0x0300 [0x5B] LOAD_EXT_SCHEDULER: Load scheduler "tlk1" with entities [Gukool Ja (ID: 16986650/0x0103321A), Gukool Ja (ID: 16986650/0x0103321A)], work=815*
100: 0x030F [0x6E] Isween (ID: 16986649/0x01033219) uses emote 29*
101: 0x0316 [0x99] Wait for Isween (ID: 16986649/0x01033219) animation to complete
102: 0x031B [0x99] Wait for Isween (ID: 16986649/0x01033219) animation to complete
103: 0x0320 [0x1C] WAIT(120* ticks)
104: 0x0323 [0x29] REQ_SET_WAIT(priority=0x05, entity_id=Isween (ID: 16986649/0x01033219), tag_num=0x04)
105: 0x032A [0x66] LOAD_EXT_SCHEDULER_MAIN: Load scheduler "twa0" with entities [Isween (ID: 16986649/0x01033219), Isween (ID: 16986649/0x01033219)], work=9*
106: 0x0339 [0x2B] Isween (ID: 16986649/0x01033219) [7353*]:
    → "(What! How did they know where you were?)"
107: 0x0340 [0x23] WAIT_FOR_DIALOG_INTERACTION
108: 0x0341 [0x66] LOAD_EXT_SCHEDULER_MAIN: Load scheduler "twa1" with entities [Isween (ID: 16986649/0x01033219), Isween (ID: 16986649/0x01033219)], work=9*
109: 0x0350 [0x4B] UPDATE_ENTITY_YAW(entity=Gukool Ja (ID: 16986650/0x0103321A), yaw=15.6°*)
110: 0x0357 [0x1C] WAIT(60* ticks)
111: 0x035A [0x2B] Gukool Ja (ID: 16986650/0x0103321A) [7350*]:
    → "..."
112: 0x0361 [0x23] WAIT_FOR_DIALOG_INTERACTION
113: 0x0362 [0x27] REQ_SET(priority=0x05, entity_id=Gukool Ja (ID: 16986650/0x0103321A), tag_num=0x04)
114: 0x0369 [0x1C] WAIT(75* ticks)
115: 0x036C [0x29] REQ_SET_WAIT(priority=0x05, entity_id=Isween (ID: 16986649/0x01033219), tag_num=0x05)
116: 0x0373 [0x1C] WAIT(30* ticks)
117: 0x0376 [0x66] LOAD_EXT_SCHEDULER_MAIN: Load scheduler "tlk0" with entities [Isween (ID: 16986649/0x01033219), Isween (ID: 16986649/0x01033219)], work=9*
118: 0x0385 [0x2B] Isween (ID: 16986649/0x01033219) [7355*]:
    → "(Hey! We'll meet again, yes? Gukool Ja! Answer me!)"
119: 0x038C [0x23] WAIT_FOR_DIALOG_INTERACTION
120: 0x038D [0x66] LOAD_EXT_SCHEDULER_MAIN: Load scheduler "tlk1" with entities [Isween (ID: 16986649/0x01033219), Isween (ID: 16986649/0x01033219)], work=9*
121: 0x039C [0x2A] GET_REQ_LEVEL(level=5, entity_id=Gukool Ja (ID: 16986650/0x0103321A))
122: 0x03A2 [0x27] REQ_SET(priority=0x05, entity_id=Gukool Ja (ID: 16986650/0x0103321A), tag_num=0x05)
123: 0x03A9 [0x52] END_LOAD_SCHEDULER: End scheduler "s018" with entities [EventEntity, EventEntity], work=260*
124: 0x03B8 [0x45] LOAD_SCHEDULED_TASK: Load scheduler "s116" with entities [EventEntity, EventEntity], work=[260*, 0*]
125: 0x03C9 [0x2A] GET_REQ_LEVEL(level=5, entity_id=Gukool Ja (ID: 16986650/0x0103321A))
126: 0x03CF [0x1C] WAIT(90* ticks)
127: 0x03D2 [0x52] END_LOAD_SCHEDULER: End scheduler "s116" with entities [EventEntity, EventEntity], work=260*
128: 0x03E1 [0x45] LOAD_SCHEDULED_TASK: Load scheduler "s093" with entities [EventEntity, EventEntity], work=[255*, 0*]
129: 0x03F2 [0x1C] WAIT(90* ticks)
130: 0x03F5 [0x52] END_LOAD_SCHEDULER: End scheduler "s093" with entities [EventEntity, EventEntity], work=255*
131: 0x0404 [0x27] REQ_SET(priority=0x05, entity_id=Gukool Ja (ID: 16986650/0x0103321A), tag_num=0x06)
132: 0x040B [0x1C] WAIT(60* ticks)
133: 0x040E [0x6E] Isween (ID: 16986649/0x01033219) uses emote 6*
134: 0x0415 [0x99] Wait for Isween (ID: 16986649/0x01033219) animation to complete
135: 0x041A [0x2B] Isween (ID: 16986649/0x01033219) [7356*]:
    → "Gukool Ja..."
136: 0x0421 [0x23] WAIT_FOR_DIALOG_INTERACTION
137: 0x0422 [0x99] Wait for Isween (ID: 16986649/0x01033219) animation to complete
138: 0x0427 [0x1C] WAIT(90* ticks)
139: 0x042A [0x27] REQ_SET(priority=0x05, entity_id=Isween (ID: 16986649/0x01033219), tag_num=0x06)
140: 0x0431 [0x1C] WAIT(30* ticks)
141: 0x0434 [0x5D] SET_MUSIC_VOLUME(volume=0*, fade_time=120*)
142: 0x0439 [0x45] LOAD_SCHEDULED_TASK: Load scheduler "fdo2" with entities [LocalPlayer, LocalPlayer], work=[200*, 0*]
143: 0x044A [0x55] WAIT_LOAD_SCHEDULER: Wait for scheduler "fdo2" with entities [LocalPlayer, LocalPlayer], work=200*
144: 0x0459 [0x5C] MUSIC_CONTROL: Set Idle (Day) music to song 149*
145: 0x045D [0x5C] MUSIC_CONTROL: Set Idle (Night) music to song 149*
146: 0x0461 [0x4E] SET_ENTITY_HIDE_FLAG: Hide Gukool Ja (ID: 16986650/0x0103321A)
147: 0x0467 [0x4E] SET_ENTITY_HIDE_FLAG: Hide Isween (ID: 16986649/0x01033219)
148: 0x046D [0x4E] SET_ENTITY_HIDE_FLAG: Hide Golaal Ja (ID: 16986651/0x0103321B)
149: 0x0473 [0x46] CAMERA_CONTROL: Restore default settings
150: 0x0475 [0x45] LOAD_SCHEDULED_TASK: Load scheduler "fdi2" with entities [LocalPlayer, LocalPlayer], work=[200*, 0*]
151: 0x0486 [0x21] END_EVENT
152: 0x0487 [0x00] END_REQSTACK()
```

### Event 510

#### Metadata

| Field        | Value      |
|--------------|------------|
| Entrypoint   | 0x0488     |
| Data Size    | 2427 bytes |
| Instructions | 292        |

```
      00 01 02 03 04 05 06 07  08 09 0A 0B 0C 0D 0E 0F
      -- -- -- -- -- -- -- --  -- -- -- -- -- -- -- --
0480:                          42 45 02 80 F8 FF FF 7F          BE......
0490: F8 FF FF 7F 66 64 6F 31  00 80 55 02 80 F8 FF FF  ....fdo1..U.....
04A0: 7F F8 FF FF 7F 66 64 6F  31 46 01 38 23 80 4E 00  .....fdo1F.8#.N.
04B0: F0 FF FF 7F 2F 00 1D 32  03 01 4E 00 1D 32 03 01  ..../..2..N..2..
04C0: 2F 00 1F 32 03 01 4E 00  1F 32 03 01 2F 00 1E 32  /..2..N..2../..2
04D0: 03 01 4E 00 1E 32 03 01  2F 00 7D 32 03 01 4E 00  ..N..2../.}2..N.
04E0: 7D 32 03 01 2F 00 7E 32  03 01 4E 00 7E 32 03 01  }2../.~2..N.~2..
04F0: 2F 00 7F 32 03 01 4E 00  7F 32 03 01 2F 00 80 32  /..2..N..2../..2
0500: 03 01 4E 00 80 32 03 01  2F 00 81 32 03 01 4E 00  ..N..2../..2..N.
0510: 81 32 03 01 2F 00 82 32  03 01 4E 00 82 32 03 01  .2../..2..N..2..
0520: 2F 00 83 32 03 01 4E 00  83 32 03 01 92 01 1D 32  /..2..N..2.....2
0530: 03 01 92 01 1F 32 03 01  92 01 1E 32 03 01 BA F0  .....2.....2....
0540: FF FF 7F 24 80 25 80 26  80 27 80 80 F0 FF FF 7F  ...$.%.&.'......
0550: BA 1E 32 03 01 28 80 29  80 2A 80 2B 80 80 1E 32  ..2..(.).*.+...2
0560: 03 01 BA 7D 32 03 01 2C  80 2D 80 2E 80 2F 80 80  ...}2..,.-.../..
0570: 7D 32 03 01 BA 7E 32 03  01 30 80 31 80 32 80 33  }2...~2..0.1.2.3
0580: 80 80 7E 32 03 01 BA 7F  32 03 01 34 80 35 80 36  ..~2....2..4.5.6
0590: 80 37 80 80 7F 32 03 01  BA 80 32 03 01 38 80 39  .7...2....2..8.9
05A0: 80 3A 80 3B 80 80 80 32  03 01 BA 81 32 03 01 3C  .:.;...2....2..<
05B0: 80 3D 80 3E 80 3F 80 80  81 32 03 01 BA 82 32 03  .=.>.?...2....2.
05C0: 01 40 80 41 80 3A 80 42  80 80 82 32 03 01 27 05  .@.A.:.B...2..'.
05D0: 1E 32 03 01 07 45 43 80  F8 FF FF 7F F8 FF FF 7F  .2...EC.........
05E0: 73 30 38 35 00 80 1C 09  80 45 02 80 F8 FF FF 7F  s085.....E......
05F0: F8 FF FF 7F 66 64 69 31  00 80 1C 11 80 4A F0 FF  ....fdi1.....J..
0600: FF 7F 1E 32 03 01 2A 05  1E 32 03 01 4A 1E 32 03  ...2..*..2..J.2.
0610: 01 F0 FF FF 7F 1C 09 80  2B 1E 32 03 01 44 80 23  ........+.2..D.#
0620: 27 05 1E 32 03 01 08 1C  07 80 27 05 F0 FF FF 7F  '..2......'.....
0630: 2B 1C 11 80 45 02 80 F8  FF FF 7F F8 FF FF 7F 66  +...E..........f
0640: 64 6F 31 00 80 55 02 80  F8 FF FF 7F F8 FF FF 7F  do1..U..........
0650: 66 64 6F 31 52 43 80 F8  FF FF 7F F8 FF FF 7F 73  fdo1RC.........s
0660: 30 38 35 2A 05 F0 FF FF  7F 2A 05 1E 32 03 01 BA  085*.....*..2...
0670: F0 FF FF 7F 45 80 46 80  47 80 48 80 80 F0 FF FF  ....E.F.G.H.....
0680: 7F BA 1E 32 03 01 49 80  4A 80 4B 80 4C 80 80 1E  ...2..I.J.K.L...
0690: 32 03 01 27 05 F0 FF FF  7F 2C 27 05 1E 32 03 01  2..'.....,'..2..
06A0: 09 45 43 80 F8 FF FF 7F  F8 FF FF 7F 73 30 38 36  .EC.........s086
06B0: 00 80 1C 09 80 45 02 80  F8 FF FF 7F F8 FF FF 7F  .....E..........
06C0: 66 64 69 31 00 80 1C 07  80 2B 1E 32 03 01 4D 80  fdi1.....+.2..M.
06D0: 23 2A 05 F0 FF FF 7F 2A  05 1E 32 03 01 52 43 80  #*.....*..2..RC.
06E0: F8 FF FF 7F F8 FF FF 7F  73 30 38 36 45 43 80 F8  ........s086EC..
06F0: FF FF 7F F8 FF FF 7F 73  30 38 37 00 80 1C 09 80  .......s087.....
0700: 6E 1E 32 03 01 4E 80 99  1E 32 03 01 4A 7D 32 03  n.2..N...2..J}2.
0710: 01 F0 FF FF 7F 1C 07 80  45 4F 80 F0 FF FF 7F F0  ........EO......
0720: FF FF 7F 77 68 6F 31 00  80 55 4F 80 F0 FF FF 7F  ...who1..UO.....
0730: F0 FF FF 7F 77 68 6F 31  52 43 80 F8 FF FF 7F F8  ....who1RC......
0740: FF FF 7F 73 30 38 37 2C  7D 32 03 01 7D 32 03 01  ...s087,}2..}2..
0750: 64 65 61 64 1C 09 80 45  43 80 F8 FF FF 7F F8 FF  dead...EC.......
0760: FF 7F 73 30 38 38 00 80  1C 09 80 45 4F 80 F0 FF  ..s088.....EO...
0770: FF 7F F0 FF FF 7F 77 68  69 31 00 80 1C 0D 80 27  ......whi1.....'
0780: 05 F0 FF FF 7F 2D 1C 09  80 27 05 1E 32 03 01 0A  .....-...'..2...
0790: 2A 05 F0 FF FF 7F 2A 05  1E 32 03 01 45 02 80 F0  *.....*..2..E...
07A0: FF FF 7F F0 FF FF 7F 6F  76 6C 31 00 80 52 43 80  .......ovl1..RC.
07B0: F8 FF FF 7F F8 FF FF 7F  73 30 38 38 BA F0 FF FF  ........s088....
07C0: 7F 50 80 51 80 52 80 53  80 80 F0 FF FF 7F BA 1E  .P.Q.R.S........
07D0: 32 03 01 54 80 55 80 3A  80 56 80 80 1E 32 03 01  2..T.U.:.V...2..
07E0: 27 05 F0 FF FF 7F 2E 27  05 1E 32 03 01 0B 45 43  '......'..2...EC
07F0: 80 F8 FF FF 7F F8 FF FF  7F 73 30 38 39 00 80 1C  .........s089...
0800: 11 80 2B 1E 32 03 01 57  80 23 2A 05 F0 FF FF 7F  ..+.2..W.#*.....
0810: 2A 05 1E 32 03 01 52 43  80 F8 FF FF 7F F8 FF FF  *..2..RC........
0820: 7F 73 30 38 39 45 43 80  F8 FF FF 7F F8 FF FF 7F  .s089EC.........
0830: 73 30 39 30 00 80 4A 7E  32 03 01 F0 FF FF 7F 1C  s090..J~2.......
0840: 09 80 6E 1E 32 03 01 4E  80 99 1E 32 03 01 4A 7F  ..n.2..N...2..J.
0850: 32 03 01 F0 FF FF 7F 1C  07 80 45 4F 80 F0 FF FF  2.........EO....
0860: 7F F0 FF FF 7F 77 68 6F  31 00 80 55 4F 80 F0 FF  .....who1..UO...
0870: FF 7F F0 FF FF 7F 77 68  6F 31 52 43 80 F8 FF FF  ......who1RC....
0880: 7F F8 FF FF 7F 73 30 39  30 2C 7E 32 03 01 7E 32  .....s090,~2..~2
0890: 03 01 64 65 61 64 2C 7F  32 03 01 7F 32 03 01 64  ..dead,.2...2..d
08A0: 65 61 64 1C 09 80 45 43  80 F8 FF FF 7F F8 FF FF  ead...EC........
08B0: 7F 73 30 39 31 00 80 1C  09 80 45 4F 80 F0 FF FF  .s091.....EO....
08C0: 7F F0 FF FF 7F 77 68 69  31 00 80 1C 0D 80 27 05  .....whi1.....'.
08D0: F0 FF FF 7F 2F 1C 09 80  27 05 1E 32 03 01 0C 1C  ..../...'..2....
08E0: 01 80 45 02 80 F0 FF FF  7F F0 FF FF 7F 6F 76 6C  ..E..........ovl
08F0: 31 00 80 52 43 80 F8 FF  FF 7F F8 FF FF 7F 73 30  1..RC.........s0
0900: 39 31 2A 05 F0 FF FF 7F  2A 05 1E 32 03 01 BA F0  91*.....*..2....
0910: FF FF 7F 58 80 59 80 5A  80 5B 80 80 F0 FF FF 7F  ...X.Y.Z.[......
0920: BA 1E 32 03 01 5C 80 5D  80 5A 80 5E 80 80 1E 32  ..2..\.].Z.^...2
0930: 03 01 27 05 F0 FF FF 7F  30 27 05 1E 32 03 01 0D  ..'.....0'..2...
0940: 45 43 80 F8 FF FF 7F F8  FF FF 7F 73 30 39 32 00  EC.........s092.
0950: 80 1C 11 80 2B 1E 32 03  01 5F 80 23 2A 05 F0 FF  ....+.2.._.#*...
0960: FF 7F 2A 05 1E 32 03 01  52 43 80 F8 FF FF 7F F8  ..*..2..RC......
0970: FF FF 7F 73 30 39 32 45  43 80 F8 FF FF 7F F8 FF  ...s092EC.......
0980: FF 7F 73 30 39 33 00 80  4A 80 32 03 01 F0 FF FF  ..s093..J.2.....
0990: 7F 1C 60 80 4A 81 32 03  01 F0 FF FF 7F 1C 60 80  ..`.J.2.......`.
09A0: 6E 1E 32 03 01 4E 80 99  1E 32 03 01 4A 82 32 03  n.2..N...2..J.2.
09B0: 01 F0 FF FF 7F 1C 07 80  45 4F 80 F0 FF FF 7F F0  ........EO......
09C0: FF FF 7F 77 68 6F 31 00  80 55 4F 80 F0 FF FF 7F  ...who1..UO.....
09D0: F0 FF FF 7F 77 68 6F 31  52 43 80 F8 FF FF 7F F8  ....who1RC......
09E0: FF FF 7F 73 30 39 33 2C  80 32 03 01 80 32 03 01  ...s093,.2...2..
09F0: 64 65 61 64 2C 81 32 03  01 81 32 03 01 64 65 61  dead,.2...2..dea
0A00: 64 2C 82 32 03 01 82 32  03 01 64 65 61 64 4E 01  d,.2...2..deadN.
0A10: 7E 32 03 01 2F 01 7E 32  03 01 4E 01 7F 32 03 01  ~2../.~2..N..2..
0A20: 2F 01 7F 32 03 01 BA 1D  32 03 01 61 80 62 80 63  /..2....2..a.b.c
0A30: 80 64 80 80 1D 32 03 01  BA 1F 32 03 01 65 80 66  .d...2....2..e.f
0A40: 80 67 80 68 80 80 1F 32  03 01 BA 83 32 03 01 69  .g.h...2....2..i
0A50: 80 6A 80 6B 80 6C 80 80  83 32 03 01 2C 83 32 03  .j.k.l...2..,.2.
0A60: 01 83 32 03 01 64 65 61  64 4A 1F 32 03 01 83 32  ..2..deadJ.2...2
0A70: 03 01 1C 09 80 66 6D 80  1F 32 03 01 1F 32 03 01  .....fm..2...2..
0A80: 6B 65 6E 30 45 43 80 F8  FF FF 7F F8 FF FF 7F 73  ken0EC.........s
0A90: 30 39 34 00 80 1C 09 80  45 4F 80 F0 FF FF 7F F0  094.....EO......
0AA0: FF FF 7F 77 68 69 31 00  80 1C 07 80 79 00 1E 32  ...whi1.....y..2
0AB0: 03 01 F0 FF FF 7F 1C 09  80 2B 1E 32 03 01 6E 80  .........+.2..n.
0AC0: 23 52 43 80 F8 FF FF 7F  F8 FF FF 7F 73 30 39 34  #RC.........s094
0AD0: 45 43 80 F8 FF FF 7F F8  FF FF 7F 73 30 39 35 00  EC.........s095.
0AE0: 80 2B 1D 32 03 01 6F 80  23 6E 1E 32 03 01 1B 80  .+.2..o.#n.2....
0AF0: 99 1E 32 03 01 2B 1E 32  03 01 70 80 23 52 43 80  ..2..+.2..p.#RC.
0B00: F8 FF FF 7F F8 FF FF 7F  73 30 39 35 45 43 80 F8  ........s095EC..
0B10: FF FF 7F F8 FF FF 7F 73  30 39 36 00 80 BA 1E 32  .......s096....2
0B20: 03 01 71 80 72 80 73 80  74 80 80 1E 32 03 01 29  ..q.r.s.t...2..)
0B30: 05 1E 32 03 01 0E 66 1C  80 1E 32 03 01 1E 32 03  ..2...f...2...2.
0B40: 01 73 68 61 30 53 1E 32  03 01 1E 32 03 01 73 68  .sha0S.2...2..sh
0B50: 61 30 52 43 80 F8 FF FF  7F F8 FF FF 7F 73 30 39  a0RC.........s09
0B60: 36 45 43 80 F8 FF FF 7F  F8 FF FF 7F 73 30 39 37  6EC.........s097
0B70: 00 80 66 6D 80 1F 32 03  01 1F 32 03 01 6F 75 74  ..fm..2...2..out
0B80: 30 53 1F 32 03 01 1F 32  03 01 6F 75 74 30 4A 1F  0S.2...2..out0J.
0B90: 32 03 01 1D 32 03 01 1C  09 80 2B 1F 32 03 01 75  2...2.....+.2..u
0BA0: 80 23 2B 1D 32 03 01 76  80 23 52 43 80 F8 FF FF  .#+.2..v.#RC....
0BB0: 7F F8 FF FF 7F 73 30 39  37 45 43 80 F8 FF FF 7F  .....s097EC.....
0BC0: F8 FF FF 7F 73 30 39 38  00 80 6E 1F 32 03 01 17  ....s098..n.2...
0BD0: 80 99 1F 32 03 01 2B 1F  32 03 01 77 80 23 1C 09  ...2..+.2..w.#..
0BE0: 80 4B 1D 32 03 01 78 80  1C 09 80 2B 1D 32 03 01  .K.2..x....+.2..
0BF0: 79 80 23 BA F0 FF FF 7F  7A 80 7B 80 73 80 7C 80  y.#.....z.{.s.|.
0C00: 80 F0 FF FF 7F 52 43 80  F8 FF FF 7F F8 FF FF 7F  .....RC.........
0C10: 73 30 39 38 45 43 80 F8  FF FF 7F F8 FF FF 7F 73  s098EC.........s
0C20: 30 39 39 00 80 2B 1E 32  03 01 7D 80 23 27 05 F0  099..+.2..}.#'..
0C30: FF FF 7F 31 1C 09 80 52  43 80 F8 FF FF 7F F8 FF  ...1...RC.......
0C40: FF 7F 73 30 39 39 45 43  80 F8 FF FF 7F F8 FF FF  ..s099EC........
0C50: 7F 73 31 30 30 00 80 1C  07 80 66 1C 80 1E 32 03  .s100.....f...2.
0C60: 01 1E 32 03 01 73 68 61  31 53 1E 32 03 01 1E 32  ..2..sha1S.2...2
0C70: 03 01 73 68 61 31 2A 05  F0 FF FF 7F 4A 1E 32 03  ..sha1*.....J.2.
0C80: 01 F0 FF FF 7F 1C 09 80  2B 1E 32 03 01 7E 80 23  ........+.2..~.#
0C90: 52 43 80 F8 FF FF 7F F8  FF FF 7F 73 31 30 30 45  RC.........s100E
0CA0: 43 80 F8 FF FF 7F F8 FF  FF 7F 73 31 30 34 00 80  C.........s104..
0CB0: 27 05 1E 32 03 01 0F 1C  06 80 52 43 80 F8 FF FF  '..2......RC....
0CC0: 7F F8 FF FF 7F 73 31 30  34 45 43 80 F8 FF FF 7F  .....s104EC.....
0CD0: F8 FF FF 7F 73 31 30 31  00 80 1C 06 80 52 43 80  ....s101.....RC.
0CE0: F8 FF FF 7F F8 FF FF 7F  73 31 30 31 45 43 80 F8  ........s101EC..
0CF0: FF FF 7F F8 FF FF 7F 73  31 30 32 00 80 6E 1F 32  .......s102..n.2
0D00: 03 01 7F 80 99 1F 32 03  01 2B 1F 32 03 01 80 80  ......2..+.2....
0D10: 23 1C 09 80 4A 1D 32 03  01 1F 32 03 01 1C 09 80  #...J.2...2.....
0D20: 2B 1D 32 03 01 81 80 23  52 43 80 F8 FF FF 7F F8  +.2....#RC......
0D30: FF FF 7F 73 31 30 32 45  43 80 F8 FF FF 7F F8 FF  ...s102EC.......
0D40: FF 7F 73 31 30 33 00 80  6E 1F 32 03 01 82 80 99  ..s103..n.2.....
0D50: 1F 32 03 01 2B 1F 32 03  01 83 80 23 45 02 80 F8  .2..+.2....#E...
0D60: FF FF 7F F8 FF FF 7F 66  64 6F 31 00 80 55 02 80  .......fdo1..U..
0D70: F8 FF FF 7F F8 FF FF 7F  66 64 6F 31 52 43 80 F8  ........fdo1RC..
0D80: FF FF 7F F8 FF FF 7F 73  31 30 33 4E 01 1D 32 03  .......s103N..2.
0D90: 01 2F 01 1D 32 03 01 4E  01 1F 32 03 01 2F 01 1F  ./..2..N..2../..
0DA0: 32 03 01 4E 01 1E 32 03  01 2F 01 1E 32 03 01 4E  2..N..2../..2..N
0DB0: 01 7D 32 03 01 2F 01 7D  32 03 01 4E 01 80 32 03  .}2../.}2..N..2.
0DC0: 01 2F 01 80 32 03 01 4E  01 81 32 03 01 2F 01 81  ./..2..N..2../..
0DD0: 32 03 01 4E 01 82 32 03  01 2F 01 82 32 03 01 4E  2..N..2../..2..N
0DE0: 01 83 32 03 01 2F 01 83  32 03 01 46 00 1C 07 80  ..2../..2..F....
0DF0: 45 02 80 F8 FF FF 7F F8  FF FF 7F 66 64 69 31 00  E..........fdi1.
0E00: 80 21 00                                          .!.             
```

#### Opcodes

```
  0: 0x0488 [0x42] SET_CLI_EVENT_CANCEL_DATA()
  1: 0x0489 [0x45] LOAD_SCHEDULED_TASK: Load scheduler "fdo1" with entities [EventEntity, EventEntity], work=[200*, 0*]
  2: 0x049A [0x55] WAIT_LOAD_SCHEDULER: Wait for scheduler "fdo1" with entities [EventEntity, EventEntity], work=200*
  3: 0x04A9 [0x46] CAMERA_CONTROL: Disable user control
  4: 0x04AB [0x38] SET_CLIENT_EVENT_MODE(mode=27*)
  5: 0x04AE [0x4E] SET_ENTITY_HIDE_FLAG: Show LocalPlayer
  6: 0x04B4 [0x2F] Bashraf (ID: 16986653/0x0103321D)->Render.Flags0 &= ~0x80000 // Bit 19
  7: 0x04BA [0x4E] SET_ENTITY_HIDE_FLAG: Show Bashraf (ID: 16986653/0x0103321D)
  8: 0x04C0 [0x2F] Wahboud (ID: 16986655/0x0103321F)->Render.Flags0 &= ~0x80000 // Bit 19
  9: 0x04C6 [0x4E] SET_ENTITY_HIDE_FLAG: Show Wahboud (ID: 16986655/0x0103321F)
 10: 0x04CC [0x2F] Foudeel (ID: 16986654/0x0103321E)->Render.Flags0 &= ~0x80000 // Bit 19
 11: 0x04D2 [0x4E] SET_ENTITY_HIDE_FLAG: Show Foudeel (ID: 16986654/0x0103321E)
 12: 0x04D8 [0x2F] Unnamed NPC (ID: 16986749/0x0103327D)->Render.Flags0 &= ~0x80000 // Bit 19
 13: 0x04DE [0x4E] SET_ENTITY_HIDE_FLAG: Show Unnamed NPC (ID: 16986749/0x0103327D)
 14: 0x04E4 [0x2F] Unnamed NPC (ID: 16986750/0x0103327E)->Render.Flags0 &= ~0x80000 // Bit 19
 15: 0x04EA [0x4E] SET_ENTITY_HIDE_FLAG: Show Unnamed NPC (ID: 16986750/0x0103327E)
 16: 0x04F0 [0x2F] Unnamed NPC (ID: 16986751/0x0103327F)->Render.Flags0 &= ~0x80000 // Bit 19
 17: 0x04F6 [0x4E] SET_ENTITY_HIDE_FLAG: Show Unnamed NPC (ID: 16986751/0x0103327F)
 18: 0x04FC [0x2F] Unnamed NPC (ID: 16986752/0x01033280)->Render.Flags0 &= ~0x80000 // Bit 19
 19: 0x0502 [0x4E] SET_ENTITY_HIDE_FLAG: Show Unnamed NPC (ID: 16986752/0x01033280)
 20: 0x0508 [0x2F] Unnamed NPC (ID: 16986753/0x01033281)->Render.Flags0 &= ~0x80000 // Bit 19
 21: 0x050E [0x4E] SET_ENTITY_HIDE_FLAG: Show Unnamed NPC (ID: 16986753/0x01033281)
 22: 0x0514 [0x2F] Unnamed NPC (ID: 16986754/0x01033282)->Render.Flags0 &= ~0x80000 // Bit 19
 23: 0x051A [0x4E] SET_ENTITY_HIDE_FLAG: Show Unnamed NPC (ID: 16986754/0x01033282)
 24: 0x0520 [0x2F] Unnamed NPC (ID: 16986755/0x01033283)->Render.Flags0 &= ~0x80000 // Bit 19
 25: 0x0526 [0x4E] SET_ENTITY_HIDE_FLAG: Show Unnamed NPC (ID: 16986755/0x01033283)
 26: 0x052C [0x92] Bashraf (ID: 16986653/0x0103321D)->Render.Flags3 ^= 0x01
 27: 0x0532 [0x92] Wahboud (ID: 16986655/0x0103321F)->Render.Flags3 ^= 0x01
 28: 0x0538 [0x92] Foudeel (ID: 16986654/0x0103321E)->Render.Flags3 ^= 0x01
 29: 0x053E [0xBA] SET_ENTITY_POSITION(entity_id=LocalPlayer, pos_x=678.139*, pos_z=217.727*, pos_y=-15.500*, direction=180.2°*)
 30: 0x054B [0x80] LOAD_WAIT(entity=LocalPlayer)
 31: 0x0550 [0xBA] SET_ENTITY_POSITION(entity_id=Foudeel (ID: 16986654/0x0103321E), pos_x=684.657*, pos_z=220.266*, pos_y=-17.033*, direction=187.6°*)
 32: 0x055D [0x80] LOAD_WAIT(entity=Foudeel (ID: 16986654/0x0103321E))
 33: 0x0562 [0xBA] SET_ENTITY_POSITION(entity_id=Unnamed NPC (ID: 16986749/0x0103327D), pos_x=613.352*, pos_z=178.308*, pos_y=-17.697*, direction=326.0°*)
 34: 0x056F [0x80] LOAD_WAIT(entity=Unnamed NPC (ID: 16986749/0x0103327D))
 35: 0x0574 [0xBA] SET_ENTITY_POSITION(entity_id=Unnamed NPC (ID: 16986750/0x0103327E), pos_x=172.923*, pos_z=279.657*, pos_y=-23.669*, direction=337.0°*)
 36: 0x0581 [0x80] LOAD_WAIT(entity=Unnamed NPC (ID: 16986750/0x0103327E))
 37: 0x0586 [0xBA] SET_ENTITY_POSITION(entity_id=Unnamed NPC (ID: 16986751/0x0103327F), pos_x=173.141*, pos_z=278.058*, pos_y=-23.469*, direction=324.5°*)
 38: 0x0593 [0x80] LOAD_WAIT(entity=Unnamed NPC (ID: 16986751/0x0103327F))
 39: 0x0598 [0xBA] SET_ENTITY_POSITION(entity_id=Unnamed NPC (ID: 16986752/0x01033280), pos_x=156.072*, pos_z=290.219*, pos_y=-23.750*, direction=288.6°*)
 40: 0x05A5 [0x80] LOAD_WAIT(entity=Unnamed NPC (ID: 16986752/0x01033280))
 41: 0x05AA [0xBA] SET_ENTITY_POSITION(entity_id=Unnamed NPC (ID: 16986753/0x01033281), pos_x=155.539*, pos_z=292.297*, pos_y=-23.896*, direction=41.0°*)
 42: 0x05B7 [0x80] LOAD_WAIT(entity=Unnamed NPC (ID: 16986753/0x01033281))
 43: 0x05BC [0xBA] SET_ENTITY_POSITION(entity_id=Unnamed NPC (ID: 16986754/0x01033282), pos_x=157.983*, pos_z=289.829*, pos_y=-23.750*, direction=303.7°*)
 44: 0x05C9 [0x80] LOAD_WAIT(entity=Unnamed NPC (ID: 16986754/0x01033282))
 45: 0x05CE [0x27] REQ_SET(priority=0x05, entity_id=Foudeel (ID: 16986654/0x0103321E), tag_num=0x07)
 46: 0x05D5 [0x45] LOAD_SCHEDULED_TASK: Load scheduler "s085" with entities [EventEntity, EventEntity], work=[193*, 0*]
 47: 0x05E6 [0x1C] WAIT(30* ticks)
 48: 0x05E9 [0x45] LOAD_SCHEDULED_TASK: Load scheduler "fdi1" with entities [EventEntity, EventEntity], work=[200*, 0*]
 49: 0x05FA [0x1C] WAIT(90* ticks)
 50: 0x05FD [0x4A] LocalPlayer looks at Foudeel (ID: 16986654/0x0103321E)
 51: 0x0606 [0x2A] GET_REQ_LEVEL(level=5, entity_id=Foudeel (ID: 16986654/0x0103321E))
 52: 0x060C [0x4A] Foudeel (ID: 16986654/0x0103321E) looks at LocalPlayer
 53: 0x0615 [0x1C] WAIT(30* ticks)
 54: 0x0618 [0x2B] Foudeel (ID: 16986654/0x0103321E) [7472*]:
    → "I was wondering whether you would have the nerve to show up."
 55: 0x061F [0x23] WAIT_FOR_DIALOG_INTERACTION
 56: 0x0620 [0x27] REQ_SET(priority=0x05, entity_id=Foudeel (ID: 16986654/0x0103321E), tag_num=0x08)
 57: 0x0627 [0x1C] WAIT(60* ticks)
 58: 0x062A [0x27] REQ_SET(priority=0x05, entity_id=LocalPlayer, tag_num=0x2B)
 59: 0x0631 [0x1C] WAIT(90* ticks)
 60: 0x0634 [0x45] LOAD_SCHEDULED_TASK: Load scheduler "fdo1" with entities [EventEntity, EventEntity], work=[200*, 0*]
 61: 0x0645 [0x55] WAIT_LOAD_SCHEDULER: Wait for scheduler "fdo1" with entities [EventEntity, EventEntity], work=200*
 62: 0x0654 [0x52] END_LOAD_SCHEDULER: End scheduler "s085" with entities [EventEntity, EventEntity], work=193*
 63: 0x0663 [0x2A] GET_REQ_LEVEL(level=5, entity_id=LocalPlayer)
 64: 0x0669 [0x2A] GET_REQ_LEVEL(level=5, entity_id=Foudeel (ID: 16986654/0x0103321E))
 65: 0x066F [0xBA] SET_ENTITY_POSITION(entity_id=LocalPlayer, pos_x=626.331*, pos_z=181.375*, pos_y=-17.897*, direction=166.2°*)
 66: 0x067C [0x80] LOAD_WAIT(entity=LocalPlayer)
 67: 0x0681 [0xBA] SET_ENTITY_POSITION(entity_id=Foudeel (ID: 16986654/0x0103321E), pos_x=628.068*, pos_z=181.708*, pos_y=-18.005*, direction=171.3°*)
 68: 0x068E [0x80] LOAD_WAIT(entity=Foudeel (ID: 16986654/0x0103321E))
 69: 0x0693 [0x27] REQ_SET(priority=0x05, entity_id=LocalPlayer, tag_num=0x2C)
 70: 0x069A [0x27] REQ_SET(priority=0x05, entity_id=Foudeel (ID: 16986654/0x0103321E), tag_num=0x09)
 71: 0x06A1 [0x45] LOAD_SCHEDULED_TASK: Load scheduler "s086" with entities [EventEntity, EventEntity], work=[193*, 0*]
 72: 0x06B2 [0x1C] WAIT(30* ticks)
 73: 0x06B5 [0x45] LOAD_SCHEDULED_TASK: Load scheduler "fdi1" with entities [EventEntity, EventEntity], work=[200*, 0*]
 74: 0x06C6 [0x1C] WAIT(60* ticks)
 75: 0x06C9 [0x2B] Foudeel (ID: 16986654/0x0103321E) [7473*]:
    → "(It has been quite long since I last engaged the enemy with someone other than Bashraf or Wahboud.)"
 76: 0x06D0 [0x23] WAIT_FOR_DIALOG_INTERACTION
 77: 0x06D1 [0x2A] GET_REQ_LEVEL(level=5, entity_id=LocalPlayer)
 78: 0x06D7 [0x2A] GET_REQ_LEVEL(level=5, entity_id=Foudeel (ID: 16986654/0x0103321E))
 79: 0x06DD [0x52] END_LOAD_SCHEDULER: End scheduler "s086" with entities [EventEntity, EventEntity], work=193*
 80: 0x06EC [0x45] LOAD_SCHEDULED_TASK: Load scheduler "s087" with entities [EventEntity, EventEntity], work=[193*, 0*]
 81: 0x06FD [0x1C] WAIT(30* ticks)
 82: 0x0700 [0x6E] Foudeel (ID: 16986654/0x0103321E) uses emote 21*
 83: 0x0707 [0x99] Wait for Foudeel (ID: 16986654/0x0103321E) animation to complete
 84: 0x070C [0x4A] Unnamed NPC (ID: 16986749/0x0103327D) looks at LocalPlayer
 85: 0x0715 [0x1C] WAIT(60* ticks)
 86: 0x0718 [0x45] LOAD_SCHEDULED_TASK: Load scheduler "who1" with entities [LocalPlayer, LocalPlayer], work=[201*, 0*]
 87: 0x0729 [0x55] WAIT_LOAD_SCHEDULER: Wait for scheduler "who1" with entities [LocalPlayer, LocalPlayer], work=201*
 88: 0x0738 [0x52] END_LOAD_SCHEDULER: End scheduler "s087" with entities [EventEntity, EventEntity], work=193*
 89: 0x0747 [0x2C] CREATE_SCHEDULER_TASK: Create scheduler "dead" with entities [Unnamed NPC (ID: 16986749/0x0103327D), Unnamed NPC (ID: 16986749/0x0103327D)]
 90: 0x0754 [0x1C] WAIT(30* ticks)
 91: 0x0757 [0x45] LOAD_SCHEDULED_TASK: Load scheduler "s088" with entities [EventEntity, EventEntity], work=[193*, 0*]
 92: 0x0768 [0x1C] WAIT(30* ticks)
 93: 0x076B [0x45] LOAD_SCHEDULED_TASK: Load scheduler "whi1" with entities [LocalPlayer, LocalPlayer], work=[201*, 0*]
 94: 0x077C [0x1C] WAIT(180* ticks)
 95: 0x077F [0x27] REQ_SET(priority=0x05, entity_id=LocalPlayer, tag_num=0x2D)
 96: 0x0786 [0x1C] WAIT(30* ticks)
 97: 0x0789 [0x27] REQ_SET(priority=0x05, entity_id=Foudeel (ID: 16986654/0x0103321E), tag_num=0x0A)
 98: 0x0790 [0x2A] GET_REQ_LEVEL(level=5, entity_id=LocalPlayer)
 99: 0x0796 [0x2A] GET_REQ_LEVEL(level=5, entity_id=Foudeel (ID: 16986654/0x0103321E))
100: 0x079C [0x45] LOAD_SCHEDULED_TASK: Load scheduler "ovl1" with entities [LocalPlayer, LocalPlayer], work=[200*, 0*]
101: 0x07AD [0x52] END_LOAD_SCHEDULER: End scheduler "s088" with entities [EventEntity, EventEntity], work=193*
102: 0x07BC [0xBA] SET_ENTITY_POSITION(entity_id=LocalPlayer, pos_x=188.209*, pos_z=277.632*, pos_y=-23.764*, direction=163.6°*)
103: 0x07C9 [0x80] LOAD_WAIT(entity=LocalPlayer)
104: 0x07CE [0xBA] SET_ENTITY_POSITION(entity_id=Foudeel (ID: 16986654/0x0103321E), pos_x=189.192*, pos_z=277.235*, pos_y=-23.750*, direction=178.5°*)
105: 0x07DB [0x80] LOAD_WAIT(entity=Foudeel (ID: 16986654/0x0103321E))
106: 0x07E0 [0x27] REQ_SET(priority=0x05, entity_id=LocalPlayer, tag_num=0x2E)
107: 0x07E7 [0x27] REQ_SET(priority=0x05, entity_id=Foudeel (ID: 16986654/0x0103321E), tag_num=0x0B)
108: 0x07EE [0x45] LOAD_SCHEDULED_TASK: Load scheduler "s089" with entities [EventEntity, EventEntity], work=[193*, 0*]
109: 0x07FF [0x1C] WAIT(90* ticks)
110: 0x0802 [0x2B] Foudeel (ID: 16986654/0x0103321E) [7474*]:
    → "(Ever since our first assignment as mercenaries, where one has gone the others have followed--from the pubs where we drank our ales, to the inns where we rested our weary bones after a foray on a heathen camp.)"
111: 0x0809 [0x23] WAIT_FOR_DIALOG_INTERACTION
112: 0x080A [0x2A] GET_REQ_LEVEL(level=5, entity_id=LocalPlayer)
113: 0x0810 [0x2A] GET_REQ_LEVEL(level=5, entity_id=Foudeel (ID: 16986654/0x0103321E))
114: 0x0816 [0x52] END_LOAD_SCHEDULER: End scheduler "s089" with entities [EventEntity, EventEntity], work=193*
115: 0x0825 [0x45] LOAD_SCHEDULED_TASK: Load scheduler "s090" with entities [EventEntity, EventEntity], work=[193*, 0*]
116: 0x0836 [0x4A] Unnamed NPC (ID: 16986750/0x0103327E) looks at LocalPlayer
117: 0x083F [0x1C] WAIT(30* ticks)
118: 0x0842 [0x6E] Foudeel (ID: 16986654/0x0103321E) uses emote 21*
119: 0x0849 [0x99] Wait for Foudeel (ID: 16986654/0x0103321E) animation to complete
120: 0x084E [0x4A] Unnamed NPC (ID: 16986751/0x0103327F) looks at LocalPlayer
121: 0x0857 [0x1C] WAIT(60* ticks)
122: 0x085A [0x45] LOAD_SCHEDULED_TASK: Load scheduler "who1" with entities [LocalPlayer, LocalPlayer], work=[201*, 0*]
123: 0x086B [0x55] WAIT_LOAD_SCHEDULER: Wait for scheduler "who1" with entities [LocalPlayer, LocalPlayer], work=201*
124: 0x087A [0x52] END_LOAD_SCHEDULER: End scheduler "s090" with entities [EventEntity, EventEntity], work=193*
125: 0x0889 [0x2C] CREATE_SCHEDULER_TASK: Create scheduler "dead" with entities [Unnamed NPC (ID: 16986750/0x0103327E), Unnamed NPC (ID: 16986750/0x0103327E)]
126: 0x0896 [0x2C] CREATE_SCHEDULER_TASK: Create scheduler "dead" with entities [Unnamed NPC (ID: 16986751/0x0103327F), Unnamed NPC (ID: 16986751/0x0103327F)]
127: 0x08A3 [0x1C] WAIT(30* ticks)
128: 0x08A6 [0x45] LOAD_SCHEDULED_TASK: Load scheduler "s091" with entities [EventEntity, EventEntity], work=[193*, 0*]
129: 0x08B7 [0x1C] WAIT(30* ticks)
130: 0x08BA [0x45] LOAD_SCHEDULED_TASK: Load scheduler "whi1" with entities [LocalPlayer, LocalPlayer], work=[201*, 0*]
131: 0x08CB [0x1C] WAIT(180* ticks)
132: 0x08CE [0x27] REQ_SET(priority=0x05, entity_id=LocalPlayer, tag_num=0x2F)
133: 0x08D5 [0x1C] WAIT(30* ticks)
134: 0x08D8 [0x27] REQ_SET(priority=0x05, entity_id=Foudeel (ID: 16986654/0x0103321E), tag_num=0x0C)
135: 0x08DF [0x1C] WAIT(120* ticks)
136: 0x08E2 [0x45] LOAD_SCHEDULED_TASK: Load scheduler "ovl1" with entities [LocalPlayer, LocalPlayer], work=[200*, 0*]
137: 0x08F3 [0x52] END_LOAD_SCHEDULER: End scheduler "s091" with entities [EventEntity, EventEntity], work=193*
138: 0x0902 [0x2A] GET_REQ_LEVEL(level=5, entity_id=LocalPlayer)
139: 0x0908 [0x2A] GET_REQ_LEVEL(level=5, entity_id=Foudeel (ID: 16986654/0x0103321E))
140: 0x090E [0xBA] SET_ENTITY_POSITION(entity_id=LocalPlayer, pos_x=166.937*, pos_z=290.753*, pos_y=-23.749*, direction=17.8°*)
141: 0x091B [0x80] LOAD_WAIT(entity=LocalPlayer)
142: 0x0920 [0xBA] SET_ENTITY_POSITION(entity_id=Foudeel (ID: 16986654/0x0103321E), pos_x=168.198*, pos_z=290.758*, pos_y=-23.749*, direction=3.5°*)
143: 0x092D [0x80] LOAD_WAIT(entity=Foudeel (ID: 16986654/0x0103321E))
144: 0x0932 [0x27] REQ_SET(priority=0x05, entity_id=LocalPlayer, tag_num=0x30)
145: 0x0939 [0x27] REQ_SET(priority=0x05, entity_id=Foudeel (ID: 16986654/0x0103321E), tag_num=0x0D)
146: 0x0940 [0x45] LOAD_SCHEDULED_TASK: Load scheduler "s092" with entities [EventEntity, EventEntity], work=[193*, 0*]
147: 0x0951 [0x1C] WAIT(90* ticks)
148: 0x0954 [0x2B] Foudeel (ID: 16986654/0x0103321E) [7475*]:
    → "(Even Lady Naja made it a point to ensure we worked together.)"
149: 0x095B [0x23] WAIT_FOR_DIALOG_INTERACTION
150: 0x095C [0x2A] GET_REQ_LEVEL(level=5, entity_id=LocalPlayer)
151: 0x0962 [0x2A] GET_REQ_LEVEL(level=5, entity_id=Foudeel (ID: 16986654/0x0103321E))
152: 0x0968 [0x52] END_LOAD_SCHEDULER: End scheduler "s092" with entities [EventEntity, EventEntity], work=193*
153: 0x0977 [0x45] LOAD_SCHEDULED_TASK: Load scheduler "s093" with entities [EventEntity, EventEntity], work=[193*, 0*]
154: 0x0988 [0x4A] Unnamed NPC (ID: 16986752/0x01033280) looks at LocalPlayer
155: 0x0991 [0x1C] WAIT(15* ticks)
156: 0x0994 [0x4A] Unnamed NPC (ID: 16986753/0x01033281) looks at LocalPlayer
157: 0x099D [0x1C] WAIT(15* ticks)
158: 0x09A0 [0x6E] Foudeel (ID: 16986654/0x0103321E) uses emote 21*
159: 0x09A7 [0x99] Wait for Foudeel (ID: 16986654/0x0103321E) animation to complete
160: 0x09AC [0x4A] Unnamed NPC (ID: 16986754/0x01033282) looks at LocalPlayer
161: 0x09B5 [0x1C] WAIT(60* ticks)
162: 0x09B8 [0x45] LOAD_SCHEDULED_TASK: Load scheduler "who1" with entities [LocalPlayer, LocalPlayer], work=[201*, 0*]
163: 0x09C9 [0x55] WAIT_LOAD_SCHEDULER: Wait for scheduler "who1" with entities [LocalPlayer, LocalPlayer], work=201*
164: 0x09D8 [0x52] END_LOAD_SCHEDULER: End scheduler "s093" with entities [EventEntity, EventEntity], work=193*
165: 0x09E7 [0x2C] CREATE_SCHEDULER_TASK: Create scheduler "dead" with entities [Unnamed NPC (ID: 16986752/0x01033280), Unnamed NPC (ID: 16986752/0x01033280)]
166: 0x09F4 [0x2C] CREATE_SCHEDULER_TASK: Create scheduler "dead" with entities [Unnamed NPC (ID: 16986753/0x01033281), Unnamed NPC (ID: 16986753/0x01033281)]
167: 0x0A01 [0x2C] CREATE_SCHEDULER_TASK: Create scheduler "dead" with entities [Unnamed NPC (ID: 16986754/0x01033282), Unnamed NPC (ID: 16986754/0x01033282)]
168: 0x0A0E [0x4E] SET_ENTITY_HIDE_FLAG: Hide Unnamed NPC (ID: 16986750/0x0103327E)
169: 0x0A14 [0x2F] Unnamed NPC (ID: 16986750/0x0103327E)->Render.Flags0 |= 0x80000 // Bit 19
170: 0x0A1A [0x4E] SET_ENTITY_HIDE_FLAG: Hide Unnamed NPC (ID: 16986751/0x0103327F)
171: 0x0A20 [0x2F] Unnamed NPC (ID: 16986751/0x0103327F)->Render.Flags0 |= 0x80000 // Bit 19
172: 0x0A26 [0xBA] SET_ENTITY_POSITION(entity_id=Bashraf (ID: 16986653/0x0103321D), pos_x=159.218*, pos_z=352.559*, pos_y=-16.436*, direction=221.0°*)
173: 0x0A33 [0x80] LOAD_WAIT(entity=Bashraf (ID: 16986653/0x0103321D))
174: 0x0A38 [0xBA] SET_ENTITY_POSITION(entity_id=Wahboud (ID: 16986655/0x0103321F), pos_x=156.828*, pos_z=353.343*, pos_y=-16.338*, direction=328.9°*)
175: 0x0A45 [0x80] LOAD_WAIT(entity=Wahboud (ID: 16986655/0x0103321F))
176: 0x0A4A [0xBA] SET_ENTITY_POSITION(entity_id=Unnamed NPC (ID: 16986755/0x01033283), pos_x=158.379*, pos_z=360.319*, pos_y=-16.000*, direction=122.3°*)
177: 0x0A57 [0x80] LOAD_WAIT(entity=Unnamed NPC (ID: 16986755/0x01033283))
178: 0x0A5C [0x2C] CREATE_SCHEDULER_TASK: Create scheduler "dead" with entities [Unnamed NPC (ID: 16986755/0x01033283), Unnamed NPC (ID: 16986755/0x01033283)]
179: 0x0A69 [0x4A] Wahboud (ID: 16986655/0x0103321F) looks at Unnamed NPC (ID: 16986755/0x01033283)
180: 0x0A72 [0x1C] WAIT(30* ticks)
181: 0x0A75 [0x66] LOAD_EXT_SCHEDULER_MAIN: Load scheduler "ken0" with entities [Wahboud (ID: 16986655/0x0103321F), Wahboud (ID: 16986655/0x0103321F)], work=1*
182: 0x0A84 [0x45] LOAD_SCHEDULED_TASK: Load scheduler "s094" with entities [EventEntity, EventEntity], work=[193*, 0*]
183: 0x0A95 [0x1C] WAIT(30* ticks)
184: 0x0A98 [0x45] LOAD_SCHEDULED_TASK: Load scheduler "whi1" with entities [LocalPlayer, LocalPlayer], work=[201*, 0*]
185: 0x0AA9 [0x1C] WAIT(60* ticks)
186: 0x0AAC [0x79] Foudeel (ID: 16986654/0x0103321E) looks at LocalPlayer (Basic look)
187: 0x0AB6 [0x1C] WAIT(30* ticks)
188: 0x0AB9 [0x2B] Foudeel (ID: 16986654/0x0103321E) [7476*]:
    → "(Quite impressive...for a common adventurer. Though, [he/she] allows me absolutely no opportunity to exhibit my talents.)"
189: 0x0AC0 [0x23] WAIT_FOR_DIALOG_INTERACTION
190: 0x0AC1 [0x52] END_LOAD_SCHEDULER: End scheduler "s094" with entities [EventEntity, EventEntity], work=193*
191: 0x0AD0 [0x45] LOAD_SCHEDULED_TASK: Load scheduler "s095" with entities [EventEntity, EventEntity], work=[193*, 0*]
192: 0x0AE1 [0x2B] Bashraf (ID: 16986653/0x0103321D) [7477*]:
    → "Wow, Wahboud! That's the most amazing thing I've seen in my life! You're the greatest fighter ever!"
193: 0x0AE8 [0x23] WAIT_FOR_DIALOG_INTERACTION
194: 0x0AE9 [0x6E] Foudeel (ID: 16986654/0x0103321E) uses emote 29*
195: 0x0AF0 [0x99] Wait for Foudeel (ID: 16986654/0x0103321E) animation to complete
196: 0x0AF5 [0x2B] Foudeel (ID: 16986654/0x0103321E) [7478*]:
    → "(Could that be...Bashraf?)"
197: 0x0AFC [0x23] WAIT_FOR_DIALOG_INTERACTION
198: 0x0AFD [0x52] END_LOAD_SCHEDULER: End scheduler "s095" with entities [EventEntity, EventEntity], work=193*
199: 0x0B0C [0x45] LOAD_SCHEDULED_TASK: Load scheduler "s096" with entities [EventEntity, EventEntity], work=[193*, 0*]
200: 0x0B1D [0xBA] SET_ENTITY_POSITION(entity_id=Foudeel (ID: 16986654/0x0103321E), pos_x=156.643*, pos_z=322.024*, pos_y=-23.999*, direction=263.0°*)
201: 0x0B2A [0x80] LOAD_WAIT(entity=Foudeel (ID: 16986654/0x0103321E))
202: 0x0B2F [0x29] REQ_SET_WAIT(priority=0x05, entity_id=Foudeel (ID: 16986654/0x0103321E), tag_num=0x0E)
203: 0x0B36 [0x66] LOAD_EXT_SCHEDULER_MAIN: Load scheduler "sha0" with entities [Foudeel (ID: 16986654/0x0103321E), Foudeel (ID: 16986654/0x0103321E)], work=9*
204: 0x0B45 [0x53] WAIT_SCHEDULER_TASK: Wait for scheduler "sha0" with entities [Foudeel (ID: 16986654/0x0103321E), Foudeel (ID: 16986654/0x0103321E)]
205: 0x0B52 [0x52] END_LOAD_SCHEDULER: End scheduler "s096" with entities [EventEntity, EventEntity], work=193*
206: 0x0B61 [0x45] LOAD_SCHEDULED_TASK: Load scheduler "s097" with entities [EventEntity, EventEntity], work=[193*, 0*]
207: 0x0B72 [0x66] LOAD_EXT_SCHEDULER_MAIN: Load scheduler "out0" with entities [Wahboud (ID: 16986655/0x0103321F), Wahboud (ID: 16986655/0x0103321F)], work=1*
208: 0x0B81 [0x53] WAIT_SCHEDULER_TASK: Wait for scheduler "out0" with entities [Wahboud (ID: 16986655/0x0103321F), Wahboud (ID: 16986655/0x0103321F)]
209: 0x0B8E [0x4A] Wahboud (ID: 16986655/0x0103321F) looks at Bashraf (ID: 16986653/0x0103321D)
210: 0x0B97 [0x1C] WAIT(30* ticks)
211: 0x0B9A [0x2B] Wahboud (ID: 16986655/0x0103321F) [7479*]:
    → "You know, this is great and all, but don't you think we should call Foudeel?"
212: 0x0BA1 [0x23] WAIT_FOR_DIALOG_INTERACTION
213: 0x0BA2 [0x2B] Bashraf (ID: 16986653/0x0103321D) [7480*]:
    → "But..."
214: 0x0BA9 [0x23] WAIT_FOR_DIALOG_INTERACTION
215: 0x0BAA [0x52] END_LOAD_SCHEDULER: End scheduler "s097" with entities [EventEntity, EventEntity], work=193*
216: 0x0BB9 [0x45] LOAD_SCHEDULED_TASK: Load scheduler "s098" with entities [EventEntity, EventEntity], work=[193*, 0*]
217: 0x0BCA [0x6E] Wahboud (ID: 16986655/0x0103321F) uses emote 26*
218: 0x0BD1 [0x99] Wait for Wahboud (ID: 16986655/0x0103321F) animation to complete
219: 0x0BD6 [0x2B] Wahboud (ID: 16986655/0x0103321F) [7481*]:
    → "He can't be too busy, right?"
220: 0x0BDD [0x23] WAIT_FOR_DIALOG_INTERACTION
221: 0x0BDE [0x1C] WAIT(30* ticks)
222: 0x0BE1 [0x4B] UPDATE_ENTITY_YAW(entity=Bashraf (ID: 16986653/0x0103321D), yaw=19.3°*)
223: 0x0BE8 [0x1C] WAIT(30* ticks)
224: 0x0BEB [0x2B] Bashraf (ID: 16986653/0x0103321D) [7482*]:
    → "But... We were having so much fun with just the two of us. We can make it if we try!"
225: 0x0BF2 [0x23] WAIT_FOR_DIALOG_INTERACTION
226: 0x0BF3 [0xBA] SET_ENTITY_POSITION(entity_id=LocalPlayer, pos_x=158.534*, pos_z=320.517*, pos_y=-23.999*, direction=236.0°*)
227: 0x0C00 [0x80] LOAD_WAIT(entity=LocalPlayer)
228: 0x0C05 [0x52] END_LOAD_SCHEDULER: End scheduler "s098" with entities [EventEntity, EventEntity], work=193*
229: 0x0C14 [0x45] LOAD_SCHEDULED_TASK: Load scheduler "s099" with entities [EventEntity, EventEntity], work=[193*, 0*]
230: 0x0C25 [0x2B] Foudeel (ID: 16986654/0x0103321E) [7483*]:
    → "("Just the two of us?")"
231: 0x0C2C [0x23] WAIT_FOR_DIALOG_INTERACTION
232: 0x0C2D [0x27] REQ_SET(priority=0x05, entity_id=LocalPlayer, tag_num=0x31)
233: 0x0C34 [0x1C] WAIT(30* ticks)
234: 0x0C37 [0x52] END_LOAD_SCHEDULER: End scheduler "s099" with entities [EventEntity, EventEntity], work=193*
235: 0x0C46 [0x45] LOAD_SCHEDULED_TASK: Load scheduler "s100" with entities [EventEntity, EventEntity], work=[193*, 0*]
236: 0x0C57 [0x1C] WAIT(60* ticks)
237: 0x0C5A [0x66] LOAD_EXT_SCHEDULER_MAIN: Load scheduler "sha1" with entities [Foudeel (ID: 16986654/0x0103321E), Foudeel (ID: 16986654/0x0103321E)], work=9*
238: 0x0C69 [0x53] WAIT_SCHEDULER_TASK: Wait for scheduler "sha1" with entities [Foudeel (ID: 16986654/0x0103321E), Foudeel (ID: 16986654/0x0103321E)]
239: 0x0C76 [0x2A] GET_REQ_LEVEL(level=5, entity_id=LocalPlayer)
240: 0x0C7C [0x4A] Foudeel (ID: 16986654/0x0103321E) looks at LocalPlayer
241: 0x0C85 [0x1C] WAIT(30* ticks)
242: 0x0C88 [0x2B] Foudeel (ID: 16986654/0x0103321E) [7484*]:
    → "I apologize, <Player>. Our little banter in the bushes has left me quite fatigued. I feel I should take my leave now."
243: 0x0C8F [0x23] WAIT_FOR_DIALOG_INTERACTION
244: 0x0C90 [0x52] END_LOAD_SCHEDULER: End scheduler "s100" with entities [EventEntity, EventEntity], work=193*
245: 0x0C9F [0x45] LOAD_SCHEDULED_TASK: Load scheduler "s104" with entities [EventEntity, EventEntity], work=[193*, 0*]
246: 0x0CB0 [0x27] REQ_SET(priority=0x05, entity_id=Foudeel (ID: 16986654/0x0103321E), tag_num=0x0F)
247: 0x0CB7 [0x1C] WAIT(240* ticks)
248: 0x0CBA [0x52] END_LOAD_SCHEDULER: End scheduler "s104" with entities [EventEntity, EventEntity], work=193*
249: 0x0CC9 [0x45] LOAD_SCHEDULED_TASK: Load scheduler "s101" with entities [EventEntity, EventEntity], work=[193*, 0*]
250: 0x0CDA [0x1C] WAIT(240* ticks)
251: 0x0CDD [0x52] END_LOAD_SCHEDULER: End scheduler "s101" with entities [EventEntity, EventEntity], work=193*
252: 0x0CEC [0x45] LOAD_SCHEDULED_TASK: Load scheduler "s102" with entities [EventEntity, EventEntity], work=[193*, 0*]
253: 0x0CFD [0x6E] Wahboud (ID: 16986655/0x0103321F) uses emote 22*
254: 0x0D04 [0x99] Wait for Wahboud (ID: 16986655/0x0103321F) animation to complete
255: 0x0D09 [0x2B] Wahboud (ID: 16986655/0x0103321F) [7485*]:
    → "What are you talking about? You know the saying: Three's company, two's...two's...two's not! If we're not a company, then what are we, Bash?"
256: 0x0D10 [0x23] WAIT_FOR_DIALOG_INTERACTION
257: 0x0D11 [0x1C] WAIT(30* ticks)
258: 0x0D14 [0x4A] Bashraf (ID: 16986653/0x0103321D) looks at Wahboud (ID: 16986655/0x0103321F)
259: 0x0D1D [0x1C] WAIT(30* ticks)
260: 0x0D20 [0x2B] Bashraf (ID: 16986653/0x0103321D) [7486*]:
    → "I'm sorry... You're right, Wahboud..."
261: 0x0D27 [0x23] WAIT_FOR_DIALOG_INTERACTION
262: 0x0D28 [0x52] END_LOAD_SCHEDULER: End scheduler "s102" with entities [EventEntity, EventEntity], work=193*
263: 0x0D37 [0x45] LOAD_SCHEDULED_TASK: Load scheduler "s103" with entities [EventEntity, EventEntity], work=[193*, 0*]
264: 0x0D48 [0x6E] Wahboud (ID: 16986655/0x0103321F) uses emote 7*
265: 0x0D4F [0x99] Wait for Wahboud (ID: 16986655/0x0103321F) animation to complete
266: 0x0D54 [0x2B] Wahboud (ID: 16986655/0x0103321F) [7487*]:
    → "You know I am! When have I ever been wrong? Now let's go back and find Foudeel!"
267: 0x0D5B [0x23] WAIT_FOR_DIALOG_INTERACTION
268: 0x0D5C [0x45] LOAD_SCHEDULED_TASK: Load scheduler "fdo1" with entities [EventEntity, EventEntity], work=[200*, 0*]
269: 0x0D6D [0x55] WAIT_LOAD_SCHEDULER: Wait for scheduler "fdo1" with entities [EventEntity, EventEntity], work=200*
270: 0x0D7C [0x52] END_LOAD_SCHEDULER: End scheduler "s103" with entities [EventEntity, EventEntity], work=193*
271: 0x0D8B [0x4E] SET_ENTITY_HIDE_FLAG: Hide Bashraf (ID: 16986653/0x0103321D)
272: 0x0D91 [0x2F] Bashraf (ID: 16986653/0x0103321D)->Render.Flags0 |= 0x80000 // Bit 19
273: 0x0D97 [0x4E] SET_ENTITY_HIDE_FLAG: Hide Wahboud (ID: 16986655/0x0103321F)
274: 0x0D9D [0x2F] Wahboud (ID: 16986655/0x0103321F)->Render.Flags0 |= 0x80000 // Bit 19
275: 0x0DA3 [0x4E] SET_ENTITY_HIDE_FLAG: Hide Foudeel (ID: 16986654/0x0103321E)
276: 0x0DA9 [0x2F] Foudeel (ID: 16986654/0x0103321E)->Render.Flags0 |= 0x80000 // Bit 19
277: 0x0DAF [0x4E] SET_ENTITY_HIDE_FLAG: Hide Unnamed NPC (ID: 16986749/0x0103327D)
278: 0x0DB5 [0x2F] Unnamed NPC (ID: 16986749/0x0103327D)->Render.Flags0 |= 0x80000 // Bit 19
279: 0x0DBB [0x4E] SET_ENTITY_HIDE_FLAG: Hide Unnamed NPC (ID: 16986752/0x01033280)
280: 0x0DC1 [0x2F] Unnamed NPC (ID: 16986752/0x01033280)->Render.Flags0 |= 0x80000 // Bit 19
281: 0x0DC7 [0x4E] SET_ENTITY_HIDE_FLAG: Hide Unnamed NPC (ID: 16986753/0x01033281)
282: 0x0DCD [0x2F] Unnamed NPC (ID: 16986753/0x01033281)->Render.Flags0 |= 0x80000 // Bit 19
283: 0x0DD3 [0x4E] SET_ENTITY_HIDE_FLAG: Hide Unnamed NPC (ID: 16986754/0x01033282)
284: 0x0DD9 [0x2F] Unnamed NPC (ID: 16986754/0x01033282)->Render.Flags0 |= 0x80000 // Bit 19
285: 0x0DDF [0x4E] SET_ENTITY_HIDE_FLAG: Hide Unnamed NPC (ID: 16986755/0x01033283)
286: 0x0DE5 [0x2F] Unnamed NPC (ID: 16986755/0x01033283)->Render.Flags0 |= 0x80000 // Bit 19
287: 0x0DEB [0x46] CAMERA_CONTROL: Restore default settings
288: 0x0DED [0x1C] WAIT(60* ticks)
289: 0x0DF0 [0x45] LOAD_SCHEDULED_TASK: Load scheduler "fdi1" with entities [EventEntity, EventEntity], work=[200*, 0*]
290: 0x0E01 [0x21] END_EVENT
291: 0x0E02 [0x00] END_REQSTACK()
```
