# 16986783 - Biyaada

## Common Data

| Field            | Value                     |
|------------------|---------------------------|
| Zone             | Wajaom Woodlands (ID: 51) |
| Block Size       | 172 bytes                 |
| Total Events     | 6                         |
| References Count | 15                        |

## List of Events

| Event ID                 | Entrypoint   |   Size |   Instructions |
|--------------------------|--------------|--------|----------------|
| [65535](#event-65535)    | 0x0000       |      1 |              1 |
| [12](#event-12)          | 0x0001       |      1 |              1 |
| [13](#event-13)          | 0x0002       |      1 |              1 |
| [65535.1](#event-655351) | 0x0003       |     38 |              8 |
| [65535.2](#event-655352) | 0x0029       |     26 |              8 |
| [65535.3](#event-655353) | 0x0043       |      4 |              2 |

## DAT References (imed_data)

|   Index | Hex Value   |   Dec Value |
|---------|-------------|-------------|
|       0 | 0x14C2E     |       85038 |
|       1 | 0xFFFE0181  |  4294836609 |
|       2 | 0xFFFFE891  |  4294961297 |
|       3 | 0x0417      |        1047 |
|       4 | 0x0028      |          40 |
|       5 | 0x14D9A     |       85402 |
|       6 | 0xFFFDF028  |  4294832168 |
|       7 | 0x13F1F     |       81695 |
|       8 | 0xFFFDED31  |  4294831409 |
|       9 | 0x14909     |       84233 |
|      10 | 0xFFFDF1BF  |  4294832575 |
|      11 | 0xFFFFE890  |  4294961296 |
|      12 | 0x147AE     |       83886 |
|      13 | 0xFFFDFF5B  |  4294836059 |
|      14 | 0x0726      |        1830 |

## Events

### Event 65535

#### Metadata

| Field        | Value   |
|--------------|---------|
| Entrypoint   | 0x0000  |
| Data Size    | 1 bytes |
| Instructions | 1       |

```
      00 01 02 03 04 05 06 07  08 09 0A 0B 0C 0D 0E 0F
      -- -- -- -- -- -- -- --  -- -- -- -- -- -- -- --
0000: 00                                                .               
```

#### Opcodes

```
  0: 0x0000 [0x00] END_REQSTACK()
```

### Event 12

#### Metadata

| Field        | Value   |
|--------------|---------|
| Entrypoint   | 0x0001  |
| Data Size    | 1 bytes |
| Instructions | 1       |

```
      00 01 02 03 04 05 06 07  08 09 0A 0B 0C 0D 0E 0F
      -- -- -- -- -- -- -- --  -- -- -- -- -- -- -- --
0000:    00                                              .              
```

#### Opcodes

```
  0: 0x0001 [0x00] END_REQSTACK()
```

### Event 13

#### Metadata

| Field        | Value   |
|--------------|---------|
| Entrypoint   | 0x0002  |
| Data Size    | 1 bytes |
| Instructions | 1       |

```
      00 01 02 03 04 05 06 07  08 09 0A 0B 0C 0D 0E 0F
      -- -- -- -- -- -- -- --  -- -- -- -- -- -- -- --
0000:       00                                            .             
```

#### Opcodes

```
  0: 0x0002 [0x00] END_REQSTACK()
```

### Event 65535.1

#### Metadata

| Field        | Value    |
|--------------|----------|
| Entrypoint   | 0x0003   |
| Data Size    | 38 bytes |
| Instructions | 8        |

```
      00 01 02 03 04 05 06 07  08 09 0A 0B 0C 0D 0E 0F
      -- -- -- -- -- -- -- --  -- -- -- -- -- -- -- --
0000:          37 00 80 01 80  02 80 03 80 32 04 80 1F     7........2...
0010: 00 05 80 06 80 02 80 1F  01 1F 00 07 80 08 80 02  ................
0020: 80 1F 01 1E 9E 32 03 01  00                       .....2...       
```

#### Opcodes

```
  0: 0x0003 [0x37] UPDATE_EVENT_POSITION_AND_DIR: x=85.038*, z=-130.687*, y=-5.999*, direction=92.0°*
  1: 0x000C [0x32] ExtData[1]->MainSpeed = 40* * 0.1
  2: 0x000F [0x1F] MOVE_ENTITY: EventEntity moves to X=85.402*, Z=-135.128*, Y=-5.999*
  3: 0x0017 [0x1F] MOVE_ENTITY: Update entity position (mode=1)
  4: 0x0019 [0x1F] MOVE_ENTITY: EventEntity moves to X=81.695*, Z=-135.887*, Y=-5.999*
  5: 0x0021 [0x1F] MOVE_ENTITY: Update entity position (mode=1)
  6: 0x0023 [0x1E] EventEntity looks at Fari-Wari (ID: 16986782/0x0103329E) and starts talking
  7: 0x0028 [0x00] END_REQSTACK()
```

### Event 65535.2

#### Metadata

| Field        | Value    |
|--------------|----------|
| Entrypoint   | 0x0029   |
| Data Size    | 26 bytes |
| Instructions | 8        |

```
      00 01 02 03 04 05 06 07  08 09 0A 0B 0C 0D 0E 0F
      -- -- -- -- -- -- -- --  -- -- -- -- -- -- -- --
0020:                             32 04 80 1F 00 09 80           2......
0030: 0A 80 0B 80 1F 01 6F 1F  00 0C 80 0D 80 0B 80 1F  ......o.........
0040: 01 6F 00                                          .o.             
```

#### Opcodes

```
  0: 0x0029 [0x32] ExtData[1]->MainSpeed = 40* * 0.1
  1: 0x002C [0x1F] MOVE_ENTITY: EventEntity moves to X=84.233*, Z=-134.721*, Y=-6.000*
  2: 0x0034 [0x1F] MOVE_ENTITY: Update entity position (mode=1)
  3: 0x0036 [0x6F] WAIT_FRAME_DELAY: Yield until WaitTime reaches zero
  4: 0x0037 [0x1F] MOVE_ENTITY: EventEntity moves to X=83.886*, Z=-131.237*, Y=-6.000*
  5: 0x003F [0x1F] MOVE_ENTITY: Update entity position (mode=1)
  6: 0x0041 [0x6F] WAIT_FRAME_DELAY: Yield until WaitTime reaches zero
  7: 0x0042 [0x00] END_REQSTACK()
```

### Event 65535.3

#### Metadata

| Field        | Value   |
|--------------|---------|
| Entrypoint   | 0x0043  |
| Data Size    | 4 bytes |
| Instructions | 2       |

```
      00 01 02 03 04 05 06 07  08 09 0A 0B 0C 0D 0E 0F
      -- -- -- -- -- -- -- --  -- -- -- -- -- -- -- --
0040:          39 0E 80 00                                 9...         
```

#### Opcodes

```
  0: 0x0043 [0x39] SET_ENTITY_DIRECTION(direction=10.1°*)
  1: 0x0046 [0x00] END_REQSTACK()
```
