# 16986808

## Common Data

| Field            | Value                     |
|------------------|---------------------------|
| Zone             | Wajaom Woodlands (ID: 51) |
| Block Size       | 252 bytes                 |
| Total Events     | 12                        |
| References Count | 10                        |

## List of Events

| Event ID                 | Entrypoint   |   Size |   Instructions |
|--------------------------|--------------|--------|----------------|
| [65535](#event-65535)    | 0x0000       |      1 |              1 |
| [16](#event-16)          | 0x0001       |      7 |              2 |
| [17](#event-17)          | 0x0008       |      7 |              2 |
| [18](#event-18)          | 0x000F       |      7 |              2 |
| [19](#event-19)          | 0x0016       |      7 |              2 |
| [65535.1](#event-655351) | 0x001D       |      7 |              2 |
| [65535.2](#event-655352) | 0x0024       |      3 |              2 |
| [65535.3](#event-655353) | 0x0027       |     27 |              7 |
| [65535.4](#event-655354) | 0x0042       |     13 |              3 |
| [65535.5](#event-655355) | 0x004F       |     27 |              7 |
| [65535.6](#event-655356) | 0x006A       |     20 |              6 |
| [65535.7](#event-655357) | 0x007E       |     20 |              6 |

## DAT References (imed_data)

|   Index | Hex Value   |   Dec Value |
|---------|-------------|-------------|
|       0 | 0x13BEE     |       80878 |
|       1 | 0xFFFDF9C2  |  4294834626 |
|       2 | 0xFFFFE890  |  4294961296 |
|       3 | 0x003C      |          60 |
|       4 | 0x13D8B     |       81291 |
|       5 | 0xFFFDEED5  |  4294831829 |
|       6 | 0x000D      |          13 |
|       7 | 0x13B5A     |       80730 |
|       8 | 0xFFFDEFE0  |  4294832096 |
|       9 | 0xFFFFE891  |  4294961297 |

## Events

### Event 65535

#### Metadata

| Field        | Value   |
|--------------|---------|
| Entrypoint   | 0x0000  |
| Data Size    | 1 bytes |
| Instructions | 1       |

```
      00 01 02 03 04 05 06 07  08 09 0A 0B 0C 0D 0E 0F
      -- -- -- -- -- -- -- --  -- -- -- -- -- -- -- --
0000: 00                                                .               
```

#### Opcodes

```
  0: 0x0000 [0x00] END_REQSTACK()
```

### Event 16

#### Metadata

| Field        | Value   |
|--------------|---------|
| Entrypoint   | 0x0001  |
| Data Size    | 7 bytes |
| Instructions | 2       |

```
      00 01 02 03 04 05 06 07  08 09 0A 0B 0C 0D 0E 0F
      -- -- -- -- -- -- -- --  -- -- -- -- -- -- -- --
0000:    7A 02 F0 FF FF 7F 00                            z......        
```

#### Opcodes

```
  0: 0x0001 [0x7A] VM_CONTROL: Share ExtData with LocalPlayer
  1: 0x0007 [0x00] END_REQSTACK()
```

### Event 17

#### Metadata

| Field        | Value   |
|--------------|---------|
| Entrypoint   | 0x0008  |
| Data Size    | 7 bytes |
| Instructions | 2       |

```
      00 01 02 03 04 05 06 07  08 09 0A 0B 0C 0D 0E 0F
      -- -- -- -- -- -- -- --  -- -- -- -- -- -- -- --
0000:                          7A 02 F0 FF FF 7F 00             z...... 
```

#### Opcodes

```
  0: 0x0008 [0x7A] VM_CONTROL: Share ExtData with LocalPlayer
  1: 0x000E [0x00] END_REQSTACK()
```

### Event 18

#### Metadata

| Field        | Value   |
|--------------|---------|
| Entrypoint   | 0x000F  |
| Data Size    | 7 bytes |
| Instructions | 2       |

```
      00 01 02 03 04 05 06 07  08 09 0A 0B 0C 0D 0E 0F
      -- -- -- -- -- -- -- --  -- -- -- -- -- -- -- --
0000:                                               7A                 z
0010: 02 F0 FF FF 7F 00                                 ......          
```

#### Opcodes

```
  0: 0x000F [0x7A] VM_CONTROL: Share ExtData with LocalPlayer
  1: 0x0015 [0x00] END_REQSTACK()
```

### Event 19

#### Metadata

| Field        | Value   |
|--------------|---------|
| Entrypoint   | 0x0016  |
| Data Size    | 7 bytes |
| Instructions | 2       |

```
      00 01 02 03 04 05 06 07  08 09 0A 0B 0C 0D 0E 0F
      -- -- -- -- -- -- -- --  -- -- -- -- -- -- -- --
0010:                   7A 02  F0 FF FF 7F 00                 z......   
```

#### Opcodes

```
  0: 0x0016 [0x7A] VM_CONTROL: Share ExtData with LocalPlayer
  1: 0x001C [0x00] END_REQSTACK()
```

### Event 65535.1

#### Metadata

| Field        | Value   |
|--------------|---------|
| Entrypoint   | 0x001D  |
| Data Size    | 7 bytes |
| Instructions | 2       |

```
      00 01 02 03 04 05 06 07  08 09 0A 0B 0C 0D 0E 0F
      -- -- -- -- -- -- -- --  -- -- -- -- -- -- -- --
0010:                                         7A 02 F0               z..
0020: FF FF 7F 00                                       ....            
```

#### Opcodes

```
  0: 0x001D [0x7A] VM_CONTROL: Share ExtData with LocalPlayer
  1: 0x0023 [0x00] END_REQSTACK()
```

### Event 65535.2

#### Metadata

| Field        | Value   |
|--------------|---------|
| Entrypoint   | 0x0024  |
| Data Size    | 3 bytes |
| Instructions | 2       |

```
      00 01 02 03 04 05 06 07  08 09 0A 0B 0C 0D 0E 0F
      -- -- -- -- -- -- -- --  -- -- -- -- -- -- -- --
0020:             7A 03 00                                  z..         
```

#### Opcodes

```
  0: 0x0024 [0x7A] VM_CONTROL: Unshare ExtData (restore original)
  1: 0x0026 [0x00] END_REQSTACK()
```

### Event 65535.3

#### Metadata

| Field        | Value    |
|--------------|----------|
| Entrypoint   | 0x0027   |
| Data Size    | 27 bytes |
| Instructions | 7        |

```
      00 01 02 03 04 05 06 07  08 09 0A 0B 0C 0D 0E 0F
      -- -- -- -- -- -- -- --  -- -- -- -- -- -- -- --
0020:                      1F  00 00 80 01 80 02 80 1F         .........
0030: 01 6F 4A F0 FF FF 7F 9E  32 03 01 6F 76 F0 FF FF  .oJ.....2..ov...
0040: 7F 00                                             ..              
```

#### Opcodes

```
  0: 0x0027 [0x1F] MOVE_ENTITY: EventEntity moves to X=80.878*, Z=-132.670*, Y=-6.000*
  1: 0x002F [0x1F] MOVE_ENTITY: Update entity position (mode=1)
  2: 0x0031 [0x6F] WAIT_FRAME_DELAY: Yield until WaitTime reaches zero
  3: 0x0032 [0x4A] LocalPlayer looks at Fari-Wari (ID: 16986782/0x0103329E)
  4: 0x003B [0x6F] WAIT_FRAME_DELAY: Yield until WaitTime reaches zero
  5: 0x003C [0x76] CHECK_ENTITY_RENDER_FLAGS: Wait until LocalPlayer Render.Flags0 and Render.Flags3 conditions are met
  6: 0x0041 [0x00] END_REQSTACK()
```

### Event 65535.4

#### Metadata

| Field        | Value    |
|--------------|----------|
| Entrypoint   | 0x0042   |
| Data Size    | 13 bytes |
| Instructions | 3        |

```
      00 01 02 03 04 05 06 07  08 09 0A 0B 0C 0D 0E 0F
      -- -- -- -- -- -- -- --  -- -- -- -- -- -- -- --
0040:       1C 03 80 4A F0 FF  FF 7F C5 32 03 01 00       ...J.....2... 
```

#### Opcodes

```
  0: 0x0042 [0x1C] WAIT(60* ticks)
  1: 0x0045 [0x4A] LocalPlayer looks at Shayadar (ID: 16986821/0x010332C5)
  2: 0x004E [0x00] END_REQSTACK()
```

### Event 65535.5

#### Metadata

| Field        | Value    |
|--------------|----------|
| Entrypoint   | 0x004F   |
| Data Size    | 27 bytes |
| Instructions | 7        |

```
      00 01 02 03 04 05 06 07  08 09 0A 0B 0C 0D 0E 0F
      -- -- -- -- -- -- -- --  -- -- -- -- -- -- -- --
0040:                                               1F                 .
0050: 00 04 80 05 80 02 80 1F  01 6F 4A F0 FF FF 7F 9E  .........oJ.....
0060: 32 03 01 6F 76 F0 FF FF  7F 00                    2..ov.....      
```

#### Opcodes

```
  0: 0x004F [0x1F] MOVE_ENTITY: EventEntity moves to X=81.291*, Z=-135.467*, Y=-6.000*
  1: 0x0057 [0x1F] MOVE_ENTITY: Update entity position (mode=1)
  2: 0x0059 [0x6F] WAIT_FRAME_DELAY: Yield until WaitTime reaches zero
  3: 0x005A [0x4A] LocalPlayer looks at Fari-Wari (ID: 16986782/0x0103329E)
  4: 0x0063 [0x6F] WAIT_FRAME_DELAY: Yield until WaitTime reaches zero
  5: 0x0064 [0x76] CHECK_ENTITY_RENDER_FLAGS: Wait until LocalPlayer Render.Flags0 and Render.Flags3 conditions are met
  6: 0x0069 [0x00] END_REQSTACK()
```

### Event 65535.6

#### Metadata

| Field        | Value    |
|--------------|----------|
| Entrypoint   | 0x006A   |
| Data Size    | 20 bytes |
| Instructions | 6        |

```
      00 01 02 03 04 05 06 07  08 09 0A 0B 0C 0D 0E 0F
      -- -- -- -- -- -- -- --  -- -- -- -- -- -- -- --
0060:                                32 06 80 1F 00 00            2.....
0070: 80 01 80 02 80 1F 01 6F  1E 9E 32 03 01 00        .......o..2...  
```

#### Opcodes

```
  0: 0x006A [0x32] ExtData[1]->MainSpeed = 13* * 0.1
  1: 0x006D [0x1F] MOVE_ENTITY: EventEntity moves to X=80.878*, Z=-132.670*, Y=-6.000*
  2: 0x0075 [0x1F] MOVE_ENTITY: Update entity position (mode=1)
  3: 0x0077 [0x6F] WAIT_FRAME_DELAY: Yield until WaitTime reaches zero
  4: 0x0078 [0x1E] EventEntity looks at Fari-Wari (ID: 16986782/0x0103329E) and starts talking
  5: 0x007D [0x00] END_REQSTACK()
```

### Event 65535.7

#### Metadata

| Field        | Value    |
|--------------|----------|
| Entrypoint   | 0x007E   |
| Data Size    | 20 bytes |
| Instructions | 6        |

```
      00 01 02 03 04 05 06 07  08 09 0A 0B 0C 0D 0E 0F
      -- -- -- -- -- -- -- --  -- -- -- -- -- -- -- --
0070:                                            32 06                2.
0080: 80 1F 00 07 80 08 80 09  80 1F 01 6F 1E 9E 32 03  ...........o..2.
0090: 01 00                                             ..              
```

#### Opcodes

```
  0: 0x007E [0x32] ExtData[1]->MainSpeed = 13* * 0.1
  1: 0x0081 [0x1F] MOVE_ENTITY: EventEntity moves to X=80.730*, Z=-135.200*, Y=-5.999*
  2: 0x0089 [0x1F] MOVE_ENTITY: Update entity position (mode=1)
  3: 0x008B [0x6F] WAIT_FRAME_DELAY: Yield until WaitTime reaches zero
  4: 0x008C [0x1E] EventEntity looks at Fari-Wari (ID: 16986782/0x0103329E) and starts talking
  5: 0x0091 [0x00] END_REQSTACK()
```
