# 16986774 - Raubahn

## Common Data

| Field            | Value                     |
|------------------|---------------------------|
| Zone             | Wajaom Woodlands (ID: 51) |
| Block Size       | 1404 bytes                |
| Total Events     | 68                        |
| References Count | 32                        |

## List of Events

| Event ID                   | Entrypoint   |   Size |   Instructions |
|----------------------------|--------------|--------|----------------|
| [65535](#event-65535)      | 0x0000       |      1 |              1 |
| [21](#event-21)            | 0x0001       |      1 |              1 |
| [65535.1](#event-655351)   | 0x0002       |     10 |              2 |
| [65535.2](#event-655352)   | 0x000C       |     10 |              2 |
| [629](#event-629)          | 0x0016       |      1 |              1 |
| [65535.3](#event-655353)   | 0x0017       |     14 |              4 |
| [65535.4](#event-655354)   | 0x0025       |     22 |              6 |
| [65535.5](#event-655355)   | 0x003B       |     34 |              8 |
| [519](#event-519)          | 0x005D       |      7 |              2 |
| [65535.6](#event-655356)   | 0x0064       |     16 |              2 |
| [65535.7](#event-655357)   | 0x0074       |     14 |              2 |
| [65535.8](#event-655358)   | 0x0082       |     16 |              2 |
| [65535.9](#event-655359)   | 0x0092       |     14 |              2 |
| [65535.10](#event-6553510) | 0x00A0       |     16 |              2 |
| [65535.11](#event-6553511) | 0x00B0       |     14 |              2 |
| [65535.12](#event-6553512) | 0x00BE       |     16 |              2 |
| [65535.13](#event-6553513) | 0x00CE       |     14 |              2 |
| [65535.14](#event-6553514) | 0x00DC       |     16 |              2 |
| [65535.15](#event-6553515) | 0x00EC       |     14 |              2 |
| [65535.16](#event-6553516) | 0x00FA       |     16 |              2 |
| [65535.17](#event-6553517) | 0x010A       |     14 |              2 |
| [65535.18](#event-6553518) | 0x0118       |     16 |              2 |
| [65535.19](#event-6553519) | 0x0128       |     14 |              2 |
| [65535.20](#event-6553520) | 0x0136       |     16 |              2 |
| [65535.21](#event-6553521) | 0x0146       |     14 |              2 |
| [65535.22](#event-6553522) | 0x0154       |     16 |              2 |
| [65535.23](#event-6553523) | 0x0164       |     14 |              2 |
| [65535.24](#event-6553524) | 0x0172       |     16 |              2 |
| [65535.25](#event-6553525) | 0x0182       |     14 |              2 |
| [65535.26](#event-6553526) | 0x0190       |     16 |              2 |
| [65535.27](#event-6553527) | 0x01A0       |     14 |              2 |
| [65535.28](#event-6553528) | 0x01AE       |     16 |              2 |
| [65535.29](#event-6553529) | 0x01BE       |     14 |              2 |
| [65535.30](#event-6553530) | 0x01CC       |     16 |              2 |
| [65535.31](#event-6553531) | 0x01DC       |     14 |              2 |
| [65535.32](#event-6553532) | 0x01EA       |     16 |              2 |
| [65535.33](#event-6553533) | 0x01FA       |     14 |              2 |
| [65535.34](#event-6553534) | 0x0208       |     16 |              2 |
| [65535.35](#event-6553535) | 0x0218       |     14 |              2 |
| [65535.36](#event-6553536) | 0x0226       |     16 |              2 |
| [65535.37](#event-6553537) | 0x0236       |     14 |              2 |
| [65535.38](#event-6553538) | 0x0244       |     16 |              2 |
| [65535.39](#event-6553539) | 0x0254       |     14 |              2 |
| [65535.40](#event-6553540) | 0x0262       |     16 |              2 |
| [65535.41](#event-6553541) | 0x0272       |     14 |              2 |
| [65535.42](#event-6553542) | 0x0280       |     16 |              2 |
| [65535.43](#event-6553543) | 0x0290       |     14 |              2 |
| [65535.44](#event-6553544) | 0x029E       |     16 |              2 |
| [65535.45](#event-6553545) | 0x02AE       |     14 |              2 |
| [65535.46](#event-6553546) | 0x02BC       |     16 |              2 |
| [65535.47](#event-6553547) | 0x02CC       |     14 |              2 |
| [65535.48](#event-6553548) | 0x02DA       |     16 |              2 |
| [65535.49](#event-6553549) | 0x02EA       |     14 |              2 |
| [65535.50](#event-6553550) | 0x02F8       |     16 |              2 |
| [65535.51](#event-6553551) | 0x0308       |     14 |              2 |
| [65535.52](#event-6553552) | 0x0316       |     16 |              2 |
| [65535.53](#event-6553553) | 0x0326       |     14 |              2 |
| [65535.54](#event-6553554) | 0x0334       |     16 |              2 |
| [65535.55](#event-6553555) | 0x0344       |     14 |              2 |
| [65535.56](#event-6553556) | 0x0352       |     16 |              2 |
| [65535.57](#event-6553557) | 0x0362       |     14 |              2 |
| [65535.58](#event-6553558) | 0x0370       |     16 |              2 |
| [65535.59](#event-6553559) | 0x0380       |     14 |              2 |
| [65535.60](#event-6553560) | 0x038E       |     16 |              2 |
| [65535.61](#event-6553561) | 0x039E       |     14 |              2 |
| [65535.62](#event-6553562) | 0x03AC       |     16 |              2 |
| [65535.63](#event-6553563) | 0x03BC       |     14 |              2 |
| [65535.64](#event-6553564) | 0x03CA       |     15 |              5 |

## DAT References (imed_data)

|   Index | Hex Value   |   Dec Value |
|---------|-------------|-------------|
|       0 | 0x0000      |           0 |
|       1 | 0x0001      |           1 |
|       2 | 0x007F      |         127 |
|       3 | 0x0078      |         120 |
|       4 | 0x000D      |          13 |
|       5 | 0xA4E21     |      675361 |
|       6 | 0x33AC5     |      211653 |
|       7 | 0xFFFFC1F2  |  4294951410 |
|       8 | 0xA542E     |      676910 |
|       9 | 0x375B9     |      226745 |
|      10 | 0xFFFFC2C7  |  4294951623 |
|      11 | 0x001E      |          30 |
|      12 | 0xA5D92     |      679314 |
|      13 | 0x36756     |      223062 |
|      14 | 0xFFFFC374  |  4294951796 |
|      15 | 0xA6476     |      681078 |
|      16 | 0x3613A     |      221498 |
|      17 | 0xFFFFC30A  |  4294951690 |
|      18 | 0xA7F0D     |      687885 |
|      19 | 0x35FDB     |      221147 |
|      20 | 0xFFFFB7C0  |  4294948800 |
|      21 | 0x034C      |         844 |
|      22 | 0x034D      |         845 |
|      23 | 0x034F      |         847 |
|      24 | 0x035D      |         861 |
|      25 | 0x035F      |         863 |
|      26 | 0x03D4      |         980 |
|      27 | 0x03D5      |         981 |
|      28 | 0x0445      |        1093 |
|      29 | 0xFFFF254A  |  4294911306 |
|      30 | 0xFFF6269F  |  4294321823 |
|      31 | 0xFFFFD016  |  4294955030 |

## Events

### Event 65535

#### Metadata

| Field        | Value   |
|--------------|---------|
| Entrypoint   | 0x0000  |
| Data Size    | 1 bytes |
| Instructions | 1       |

```
      00 01 02 03 04 05 06 07  08 09 0A 0B 0C 0D 0E 0F
      -- -- -- -- -- -- -- --  -- -- -- -- -- -- -- --
0000: 00                                                .               
```

#### Opcodes

```
  0: 0x0000 [0x00] END_REQSTACK()
```

### Event 21

#### Metadata

| Field        | Value   |
|--------------|---------|
| Entrypoint   | 0x0001  |
| Data Size    | 1 bytes |
| Instructions | 1       |

```
      00 01 02 03 04 05 06 07  08 09 0A 0B 0C 0D 0E 0F
      -- -- -- -- -- -- -- --  -- -- -- -- -- -- -- --
0000:    00                                              .              
```

#### Opcodes

```
  0: 0x0001 [0x00] END_REQSTACK()
```

### Event 65535.1

#### Metadata

| Field        | Value    |
|--------------|----------|
| Entrypoint   | 0x0002   |
| Data Size    | 10 bytes |
| Instructions | 2        |

```
      00 01 02 03 04 05 06 07  08 09 0A 0B 0C 0D 0E 0F
      -- -- -- -- -- -- -- --  -- -- -- -- -- -- -- --
0000:       6C F8 FF FF 7F 00  80 01 80 00                l.........    
```

#### Opcodes

```
  0: 0x0002 [0x6C] FADE_ENTITY_COLOR(entity_id=EventEntity, end_alpha=0*, fade_time=1*)
  1: 0x000B [0x00] END_REQSTACK()
```

### Event 65535.2

#### Metadata

| Field        | Value    |
|--------------|----------|
| Entrypoint   | 0x000C   |
| Data Size    | 10 bytes |
| Instructions | 2        |

```
      00 01 02 03 04 05 06 07  08 09 0A 0B 0C 0D 0E 0F
      -- -- -- -- -- -- -- --  -- -- -- -- -- -- -- --
0000:                                      6C F8 FF FF              l...
0010: 7F 02 80 03 80 00                                 ......          
```

#### Opcodes

```
  0: 0x000C [0x6C] FADE_ENTITY_COLOR(entity_id=EventEntity, end_alpha=127*, fade_time=120*)
  1: 0x0015 [0x00] END_REQSTACK()
```

### Event 629

#### Metadata

| Field        | Value   |
|--------------|---------|
| Entrypoint   | 0x0016  |
| Data Size    | 1 bytes |
| Instructions | 1       |

```
      00 01 02 03 04 05 06 07  08 09 0A 0B 0C 0D 0E 0F
      -- -- -- -- -- -- -- --  -- -- -- -- -- -- -- --
0010:                   00                                    .         
```

#### Opcodes

```
  0: 0x0016 [0x00] END_REQSTACK()
```

### Event 65535.3

#### Metadata

| Field        | Value    |
|--------------|----------|
| Entrypoint   | 0x0017   |
| Data Size    | 14 bytes |
| Instructions | 4        |

```
      00 01 02 03 04 05 06 07  08 09 0A 0B 0C 0D 0E 0F
      -- -- -- -- -- -- -- --  -- -- -- -- -- -- -- --
0010:                      32  04 80 1F 00 05 80 06 80         2........
0020: 07 80 1F 01 00                                    .....           
```

#### Opcodes

```
  0: 0x0017 [0x32] ExtData[1]->MainSpeed = 13* * 0.1
  1: 0x001A [0x1F] MOVE_ENTITY: EventEntity moves to X=675.361*, Z=211.653*, Y=-15.886*
  2: 0x0022 [0x1F] MOVE_ENTITY: Update entity position (mode=1)
  3: 0x0024 [0x00] END_REQSTACK()
```

### Event 65535.4

#### Metadata

| Field        | Value    |
|--------------|----------|
| Entrypoint   | 0x0025   |
| Data Size    | 22 bytes |
| Instructions | 6        |

```
      00 01 02 03 04 05 06 07  08 09 0A 0B 0C 0D 0E 0F
      -- -- -- -- -- -- -- --  -- -- -- -- -- -- -- --
0020:                32 04 80  1F 00 08 80 09 80 0A 80       2..........
0030: 1F 01 1E CD 32 03 01 1C  0B 80 00                 ....2......     
```

#### Opcodes

```
  0: 0x0025 [0x32] ExtData[1]->MainSpeed = 13* * 0.1
  1: 0x0028 [0x1F] MOVE_ENTITY: EventEntity moves to X=676.910*, Z=226.745*, Y=-15.673*
  2: 0x0030 [0x1F] MOVE_ENTITY: Update entity position (mode=1)
  3: 0x0032 [0x1E] EventEntity looks at Camille (ID: 16986829/0x010332CD) and starts talking
  4: 0x0037 [0x1C] WAIT(30* ticks)
  5: 0x003A [0x00] END_REQSTACK()
```

### Event 65535.5

#### Metadata

| Field        | Value    |
|--------------|----------|
| Entrypoint   | 0x003B   |
| Data Size    | 34 bytes |
| Instructions | 8        |

```
      00 01 02 03 04 05 06 07  08 09 0A 0B 0C 0D 0E 0F
      -- -- -- -- -- -- -- --  -- -- -- -- -- -- -- --
0030:                                   32 04 80 1F 00             2....
0040: 0C 80 0D 80 0E 80 1F 01  1F 00 0F 80 10 80 11 80  ................
0050: 1F 01 1F 00 12 80 13 80  14 80 1F 01 00           .............   
```

#### Opcodes

```
  0: 0x003B [0x32] ExtData[1]->MainSpeed = 13* * 0.1
  1: 0x003E [0x1F] MOVE_ENTITY: EventEntity moves to X=679.314*, Z=223.062*, Y=-15.500*
  2: 0x0046 [0x1F] MOVE_ENTITY: Update entity position (mode=1)
  3: 0x0048 [0x1F] MOVE_ENTITY: EventEntity moves to X=681.078*, Z=221.498*, Y=-15.606*
  4: 0x0050 [0x1F] MOVE_ENTITY: Update entity position (mode=1)
  5: 0x0052 [0x1F] MOVE_ENTITY: EventEntity moves to X=687.885*, Z=221.147*, Y=-18.496*
  6: 0x005A [0x1F] MOVE_ENTITY: Update entity position (mode=1)
  7: 0x005C [0x00] END_REQSTACK()
```

### Event 519

#### Metadata

| Field        | Value   |
|--------------|---------|
| Entrypoint   | 0x005D  |
| Data Size    | 7 bytes |
| Instructions | 2       |

```
      00 01 02 03 04 05 06 07  08 09 0A 0B 0C 0D 0E 0F
      -- -- -- -- -- -- -- --  -- -- -- -- -- -- -- --
0050:                                         92 01 F8               ...
0060: FF FF 7F 00                                       ....            
```

#### Opcodes

```
  0: 0x005D [0x92] EventEntity->Render.Flags3 ^= 0x01
  1: 0x0063 [0x00] END_REQSTACK()
```

### Event 65535.6

#### Metadata

| Field        | Value    |
|--------------|----------|
| Entrypoint   | 0x0064   |
| Data Size    | 16 bytes |
| Instructions | 2        |

```
      00 01 02 03 04 05 06 07  08 09 0A 0B 0C 0D 0E 0F
      -- -- -- -- -- -- -- --  -- -- -- -- -- -- -- --
0060:             5B 15 80 F8  FF FF 7F F8 FF FF 7F 61      [..........a
0070: 6F 30 30 00                                       o00.            
```

#### Opcodes

```
  0: 0x0064 [0x5B] LOAD_EXT_SCHEDULER: Load scheduler "ao00" with entities [EventEntity, EventEntity], work=844*
  1: 0x0073 [0x00] END_REQSTACK()
```

### Event 65535.7

#### Metadata

| Field        | Value    |
|--------------|----------|
| Entrypoint   | 0x0074   |
| Data Size    | 14 bytes |
| Instructions | 2        |

```
      00 01 02 03 04 05 06 07  08 09 0A 0B 0C 0D 0E 0F
      -- -- -- -- -- -- -- --  -- -- -- -- -- -- -- --
0070:             53 F8 FF FF  7F F8 FF FF 7F 61 6F 30      S........ao0
0080: 30 00                                             0.              
```

#### Opcodes

```
  0: 0x0074 [0x53] WAIT_SCHEDULER_TASK: Wait for scheduler "ao00" with entities [EventEntity, EventEntity]
  1: 0x0081 [0x00] END_REQSTACK()
```

### Event 65535.8

#### Metadata

| Field        | Value    |
|--------------|----------|
| Entrypoint   | 0x0082   |
| Data Size    | 16 bytes |
| Instructions | 2        |

```
      00 01 02 03 04 05 06 07  08 09 0A 0B 0C 0D 0E 0F
      -- -- -- -- -- -- -- --  -- -- -- -- -- -- -- --
0080:       5B 15 80 F8 FF FF  7F F8 FF FF 7F 61 6F 30    [..........ao0
0090: 31 00                                             1.              
```

#### Opcodes

```
  0: 0x0082 [0x5B] LOAD_EXT_SCHEDULER: Load scheduler "ao01" with entities [EventEntity, EventEntity], work=844*
  1: 0x0091 [0x00] END_REQSTACK()
```

### Event 65535.9

#### Metadata

| Field        | Value    |
|--------------|----------|
| Entrypoint   | 0x0092   |
| Data Size    | 14 bytes |
| Instructions | 2        |

```
      00 01 02 03 04 05 06 07  08 09 0A 0B 0C 0D 0E 0F
      -- -- -- -- -- -- -- --  -- -- -- -- -- -- -- --
0090:       53 F8 FF FF 7F F8  FF FF 7F 61 6F 30 31 00    S........ao01.
```

#### Opcodes

```
  0: 0x0092 [0x53] WAIT_SCHEDULER_TASK: Wait for scheduler "ao01" with entities [EventEntity, EventEntity]
  1: 0x009F [0x00] END_REQSTACK()
```

### Event 65535.10

#### Metadata

| Field        | Value    |
|--------------|----------|
| Entrypoint   | 0x00A0   |
| Data Size    | 16 bytes |
| Instructions | 2        |

```
      00 01 02 03 04 05 06 07  08 09 0A 0B 0C 0D 0E 0F
      -- -- -- -- -- -- -- --  -- -- -- -- -- -- -- --
00A0: 5B 15 80 F8 FF FF 7F F8  FF FF 7F 61 6F 30 32 00  [..........ao02.
```

#### Opcodes

```
  0: 0x00A0 [0x5B] LOAD_EXT_SCHEDULER: Load scheduler "ao02" with entities [EventEntity, EventEntity], work=844*
  1: 0x00AF [0x00] END_REQSTACK()
```

### Event 65535.11

#### Metadata

| Field        | Value    |
|--------------|----------|
| Entrypoint   | 0x00B0   |
| Data Size    | 14 bytes |
| Instructions | 2        |

```
      00 01 02 03 04 05 06 07  08 09 0A 0B 0C 0D 0E 0F
      -- -- -- -- -- -- -- --  -- -- -- -- -- -- -- --
00B0: 53 F8 FF FF 7F F8 FF FF  7F 61 6F 30 32 00        S........ao02.  
```

#### Opcodes

```
  0: 0x00B0 [0x53] WAIT_SCHEDULER_TASK: Wait for scheduler "ao02" with entities [EventEntity, EventEntity]
  1: 0x00BD [0x00] END_REQSTACK()
```

### Event 65535.12

#### Metadata

| Field        | Value    |
|--------------|----------|
| Entrypoint   | 0x00BE   |
| Data Size    | 16 bytes |
| Instructions | 2        |

```
      00 01 02 03 04 05 06 07  08 09 0A 0B 0C 0D 0E 0F
      -- -- -- -- -- -- -- --  -- -- -- -- -- -- -- --
00B0:                                            5B 16                [.
00C0: 80 F8 FF FF 7F F8 FF FF  7F 61 6F 30 33 00        .........ao03.  
```

#### Opcodes

```
  0: 0x00BE [0x5B] LOAD_EXT_SCHEDULER: Load scheduler "ao03" with entities [EventEntity, EventEntity], work=845*
  1: 0x00CD [0x00] END_REQSTACK()
```

### Event 65535.13

#### Metadata

| Field        | Value    |
|--------------|----------|
| Entrypoint   | 0x00CE   |
| Data Size    | 14 bytes |
| Instructions | 2        |

```
      00 01 02 03 04 05 06 07  08 09 0A 0B 0C 0D 0E 0F
      -- -- -- -- -- -- -- --  -- -- -- -- -- -- -- --
00C0:                                            53 F8                S.
00D0: FF FF 7F F8 FF FF 7F 61  6F 30 33 00              .......ao03.    
```

#### Opcodes

```
  0: 0x00CE [0x53] WAIT_SCHEDULER_TASK: Wait for scheduler "ao03" with entities [EventEntity, EventEntity]
  1: 0x00DB [0x00] END_REQSTACK()
```

### Event 65535.14

#### Metadata

| Field        | Value    |
|--------------|----------|
| Entrypoint   | 0x00DC   |
| Data Size    | 16 bytes |
| Instructions | 2        |

```
      00 01 02 03 04 05 06 07  08 09 0A 0B 0C 0D 0E 0F
      -- -- -- -- -- -- -- --  -- -- -- -- -- -- -- --
00D0:                                      5B 16 80 F8              [...
00E0: FF FF 7F F8 FF FF 7F 61  6F 30 34 00              .......ao04.    
```

#### Opcodes

```
  0: 0x00DC [0x5B] LOAD_EXT_SCHEDULER: Load scheduler "ao04" with entities [EventEntity, EventEntity], work=845*
  1: 0x00EB [0x00] END_REQSTACK()
```

### Event 65535.15

#### Metadata

| Field        | Value    |
|--------------|----------|
| Entrypoint   | 0x00EC   |
| Data Size    | 14 bytes |
| Instructions | 2        |

```
      00 01 02 03 04 05 06 07  08 09 0A 0B 0C 0D 0E 0F
      -- -- -- -- -- -- -- --  -- -- -- -- -- -- -- --
00E0:                                      53 F8 FF FF              S...
00F0: 7F F8 FF FF 7F 61 6F 30  34 00                    .....ao04.      
```

#### Opcodes

```
  0: 0x00EC [0x53] WAIT_SCHEDULER_TASK: Wait for scheduler "ao04" with entities [EventEntity, EventEntity]
  1: 0x00F9 [0x00] END_REQSTACK()
```

### Event 65535.16

#### Metadata

| Field        | Value    |
|--------------|----------|
| Entrypoint   | 0x00FA   |
| Data Size    | 16 bytes |
| Instructions | 2        |

```
      00 01 02 03 04 05 06 07  08 09 0A 0B 0C 0D 0E 0F
      -- -- -- -- -- -- -- --  -- -- -- -- -- -- -- --
00F0:                                5B 16 80 F8 FF FF            [.....
0100: 7F F8 FF FF 7F 61 6F 30  35 00                    .....ao05.      
```

#### Opcodes

```
  0: 0x00FA [0x5B] LOAD_EXT_SCHEDULER: Load scheduler "ao05" with entities [EventEntity, EventEntity], work=845*
  1: 0x0109 [0x00] END_REQSTACK()
```

### Event 65535.17

#### Metadata

| Field        | Value    |
|--------------|----------|
| Entrypoint   | 0x010A   |
| Data Size    | 14 bytes |
| Instructions | 2        |

```
      00 01 02 03 04 05 06 07  08 09 0A 0B 0C 0D 0E 0F
      -- -- -- -- -- -- -- --  -- -- -- -- -- -- -- --
0100:                                53 F8 FF FF 7F F8            S.....
0110: FF FF 7F 61 6F 30 35 00                           ...ao05.        
```

#### Opcodes

```
  0: 0x010A [0x53] WAIT_SCHEDULER_TASK: Wait for scheduler "ao05" with entities [EventEntity, EventEntity]
  1: 0x0117 [0x00] END_REQSTACK()
```

### Event 65535.18

#### Metadata

| Field        | Value    |
|--------------|----------|
| Entrypoint   | 0x0118   |
| Data Size    | 16 bytes |
| Instructions | 2        |

```
      00 01 02 03 04 05 06 07  08 09 0A 0B 0C 0D 0E 0F
      -- -- -- -- -- -- -- --  -- -- -- -- -- -- -- --
0110:                          5B 16 80 F8 FF FF 7F F8          [.......
0120: FF FF 7F 61 6F 30 36 00                           ...ao06.        
```

#### Opcodes

```
  0: 0x0118 [0x5B] LOAD_EXT_SCHEDULER: Load scheduler "ao06" with entities [EventEntity, EventEntity], work=845*
  1: 0x0127 [0x00] END_REQSTACK()
```

### Event 65535.19

#### Metadata

| Field        | Value    |
|--------------|----------|
| Entrypoint   | 0x0128   |
| Data Size    | 14 bytes |
| Instructions | 2        |

```
      00 01 02 03 04 05 06 07  08 09 0A 0B 0C 0D 0E 0F
      -- -- -- -- -- -- -- --  -- -- -- -- -- -- -- --
0120:                          53 F8 FF FF 7F F8 FF FF          S.......
0130: 7F 61 6F 30 36 00                                 .ao06.          
```

#### Opcodes

```
  0: 0x0128 [0x53] WAIT_SCHEDULER_TASK: Wait for scheduler "ao06" with entities [EventEntity, EventEntity]
  1: 0x0135 [0x00] END_REQSTACK()
```

### Event 65535.20

#### Metadata

| Field        | Value    |
|--------------|----------|
| Entrypoint   | 0x0136   |
| Data Size    | 16 bytes |
| Instructions | 2        |

```
      00 01 02 03 04 05 06 07  08 09 0A 0B 0C 0D 0E 0F
      -- -- -- -- -- -- -- --  -- -- -- -- -- -- -- --
0130:                   5B 16  80 F8 FF FF 7F F8 FF FF        [.........
0140: 7F 61 6F 30 37 00                                 .ao07.          
```

#### Opcodes

```
  0: 0x0136 [0x5B] LOAD_EXT_SCHEDULER: Load scheduler "ao07" with entities [EventEntity, EventEntity], work=845*
  1: 0x0145 [0x00] END_REQSTACK()
```

### Event 65535.21

#### Metadata

| Field        | Value    |
|--------------|----------|
| Entrypoint   | 0x0146   |
| Data Size    | 14 bytes |
| Instructions | 2        |

```
      00 01 02 03 04 05 06 07  08 09 0A 0B 0C 0D 0E 0F
      -- -- -- -- -- -- -- --  -- -- -- -- -- -- -- --
0140:                   53 F8  FF FF 7F F8 FF FF 7F 61        S........a
0150: 6F 30 37 00                                       o07.            
```

#### Opcodes

```
  0: 0x0146 [0x53] WAIT_SCHEDULER_TASK: Wait for scheduler "ao07" with entities [EventEntity, EventEntity]
  1: 0x0153 [0x00] END_REQSTACK()
```

### Event 65535.22

#### Metadata

| Field        | Value    |
|--------------|----------|
| Entrypoint   | 0x0154   |
| Data Size    | 16 bytes |
| Instructions | 2        |

```
      00 01 02 03 04 05 06 07  08 09 0A 0B 0C 0D 0E 0F
      -- -- -- -- -- -- -- --  -- -- -- -- -- -- -- --
0150:             5B 17 80 F8  FF FF 7F F8 FF FF 7F 61      [..........a
0160: 61 30 30 00                                       a00.            
```

#### Opcodes

```
  0: 0x0154 [0x5B] LOAD_EXT_SCHEDULER: Load scheduler "aa00" with entities [EventEntity, EventEntity], work=847*
  1: 0x0163 [0x00] END_REQSTACK()
```

### Event 65535.23

#### Metadata

| Field        | Value    |
|--------------|----------|
| Entrypoint   | 0x0164   |
| Data Size    | 14 bytes |
| Instructions | 2        |

```
      00 01 02 03 04 05 06 07  08 09 0A 0B 0C 0D 0E 0F
      -- -- -- -- -- -- -- --  -- -- -- -- -- -- -- --
0160:             53 F8 FF FF  7F F8 FF FF 7F 61 61 30      S........aa0
0170: 30 00                                             0.              
```

#### Opcodes

```
  0: 0x0164 [0x53] WAIT_SCHEDULER_TASK: Wait for scheduler "aa00" with entities [EventEntity, EventEntity]
  1: 0x0171 [0x00] END_REQSTACK()
```

### Event 65535.24

#### Metadata

| Field        | Value    |
|--------------|----------|
| Entrypoint   | 0x0172   |
| Data Size    | 16 bytes |
| Instructions | 2        |

```
      00 01 02 03 04 05 06 07  08 09 0A 0B 0C 0D 0E 0F
      -- -- -- -- -- -- -- --  -- -- -- -- -- -- -- --
0170:       5B 17 80 F8 FF FF  7F F8 FF FF 7F 61 61 30    [..........aa0
0180: 31 00                                             1.              
```

#### Opcodes

```
  0: 0x0172 [0x5B] LOAD_EXT_SCHEDULER: Load scheduler "aa01" with entities [EventEntity, EventEntity], work=847*
  1: 0x0181 [0x00] END_REQSTACK()
```

### Event 65535.25

#### Metadata

| Field        | Value    |
|--------------|----------|
| Entrypoint   | 0x0182   |
| Data Size    | 14 bytes |
| Instructions | 2        |

```
      00 01 02 03 04 05 06 07  08 09 0A 0B 0C 0D 0E 0F
      -- -- -- -- -- -- -- --  -- -- -- -- -- -- -- --
0180:       53 F8 FF FF 7F F8  FF FF 7F 61 61 30 31 00    S........aa01.
```

#### Opcodes

```
  0: 0x0182 [0x53] WAIT_SCHEDULER_TASK: Wait for scheduler "aa01" with entities [EventEntity, EventEntity]
  1: 0x018F [0x00] END_REQSTACK()
```

### Event 65535.26

#### Metadata

| Field        | Value    |
|--------------|----------|
| Entrypoint   | 0x0190   |
| Data Size    | 16 bytes |
| Instructions | 2        |

```
      00 01 02 03 04 05 06 07  08 09 0A 0B 0C 0D 0E 0F
      -- -- -- -- -- -- -- --  -- -- -- -- -- -- -- --
0190: 5B 18 80 F8 FF FF 7F F8  FF FF 7F 61 62 30 30 00  [..........ab00.
```

#### Opcodes

```
  0: 0x0190 [0x5B] LOAD_EXT_SCHEDULER: Load scheduler "ab00" with entities [EventEntity, EventEntity], work=861*
  1: 0x019F [0x00] END_REQSTACK()
```

### Event 65535.27

#### Metadata

| Field        | Value    |
|--------------|----------|
| Entrypoint   | 0x01A0   |
| Data Size    | 14 bytes |
| Instructions | 2        |

```
      00 01 02 03 04 05 06 07  08 09 0A 0B 0C 0D 0E 0F
      -- -- -- -- -- -- -- --  -- -- -- -- -- -- -- --
01A0: 53 F8 FF FF 7F F8 FF FF  7F 61 62 30 30 00        S........ab00.  
```

#### Opcodes

```
  0: 0x01A0 [0x53] WAIT_SCHEDULER_TASK: Wait for scheduler "ab00" with entities [EventEntity, EventEntity]
  1: 0x01AD [0x00] END_REQSTACK()
```

### Event 65535.28

#### Metadata

| Field        | Value    |
|--------------|----------|
| Entrypoint   | 0x01AE   |
| Data Size    | 16 bytes |
| Instructions | 2        |

```
      00 01 02 03 04 05 06 07  08 09 0A 0B 0C 0D 0E 0F
      -- -- -- -- -- -- -- --  -- -- -- -- -- -- -- --
01A0:                                            5B 18                [.
01B0: 80 F8 FF FF 7F F8 FF FF  7F 61 62 30 31 00        .........ab01.  
```

#### Opcodes

```
  0: 0x01AE [0x5B] LOAD_EXT_SCHEDULER: Load scheduler "ab01" with entities [EventEntity, EventEntity], work=861*
  1: 0x01BD [0x00] END_REQSTACK()
```

### Event 65535.29

#### Metadata

| Field        | Value    |
|--------------|----------|
| Entrypoint   | 0x01BE   |
| Data Size    | 14 bytes |
| Instructions | 2        |

```
      00 01 02 03 04 05 06 07  08 09 0A 0B 0C 0D 0E 0F
      -- -- -- -- -- -- -- --  -- -- -- -- -- -- -- --
01B0:                                            53 F8                S.
01C0: FF FF 7F F8 FF FF 7F 61  62 30 31 00              .......ab01.    
```

#### Opcodes

```
  0: 0x01BE [0x53] WAIT_SCHEDULER_TASK: Wait for scheduler "ab01" with entities [EventEntity, EventEntity]
  1: 0x01CB [0x00] END_REQSTACK()
```

### Event 65535.30

#### Metadata

| Field        | Value    |
|--------------|----------|
| Entrypoint   | 0x01CC   |
| Data Size    | 16 bytes |
| Instructions | 2        |

```
      00 01 02 03 04 05 06 07  08 09 0A 0B 0C 0D 0E 0F
      -- -- -- -- -- -- -- --  -- -- -- -- -- -- -- --
01C0:                                      5B 18 80 F8              [...
01D0: FF FF 7F F8 FF FF 7F 61  62 30 32 00              .......ab02.    
```

#### Opcodes

```
  0: 0x01CC [0x5B] LOAD_EXT_SCHEDULER: Load scheduler "ab02" with entities [EventEntity, EventEntity], work=861*
  1: 0x01DB [0x00] END_REQSTACK()
```

### Event 65535.31

#### Metadata

| Field        | Value    |
|--------------|----------|
| Entrypoint   | 0x01DC   |
| Data Size    | 14 bytes |
| Instructions | 2        |

```
      00 01 02 03 04 05 06 07  08 09 0A 0B 0C 0D 0E 0F
      -- -- -- -- -- -- -- --  -- -- -- -- -- -- -- --
01D0:                                      53 F8 FF FF              S...
01E0: 7F F8 FF FF 7F 61 62 30  32 00                    .....ab02.      
```

#### Opcodes

```
  0: 0x01DC [0x53] WAIT_SCHEDULER_TASK: Wait for scheduler "ab02" with entities [EventEntity, EventEntity]
  1: 0x01E9 [0x00] END_REQSTACK()
```

### Event 65535.32

#### Metadata

| Field        | Value    |
|--------------|----------|
| Entrypoint   | 0x01EA   |
| Data Size    | 16 bytes |
| Instructions | 2        |

```
      00 01 02 03 04 05 06 07  08 09 0A 0B 0C 0D 0E 0F
      -- -- -- -- -- -- -- --  -- -- -- -- -- -- -- --
01E0:                                5B 19 80 F8 FF FF            [.....
01F0: 7F F8 FF FF 7F 61 73 74  30 00                    .....ast0.      
```

#### Opcodes

```
  0: 0x01EA [0x5B] LOAD_EXT_SCHEDULER: Load scheduler "ast0" with entities [EventEntity, EventEntity], work=863*
  1: 0x01F9 [0x00] END_REQSTACK()
```

### Event 65535.33

#### Metadata

| Field        | Value    |
|--------------|----------|
| Entrypoint   | 0x01FA   |
| Data Size    | 14 bytes |
| Instructions | 2        |

```
      00 01 02 03 04 05 06 07  08 09 0A 0B 0C 0D 0E 0F
      -- -- -- -- -- -- -- --  -- -- -- -- -- -- -- --
01F0:                                53 F8 FF FF 7F F8            S.....
0200: FF FF 7F 61 73 74 30 00                           ...ast0.        
```

#### Opcodes

```
  0: 0x01FA [0x53] WAIT_SCHEDULER_TASK: Wait for scheduler "ast0" with entities [EventEntity, EventEntity]
  1: 0x0207 [0x00] END_REQSTACK()
```

### Event 65535.34

#### Metadata

| Field        | Value    |
|--------------|----------|
| Entrypoint   | 0x0208   |
| Data Size    | 16 bytes |
| Instructions | 2        |

```
      00 01 02 03 04 05 06 07  08 09 0A 0B 0C 0D 0E 0F
      -- -- -- -- -- -- -- --  -- -- -- -- -- -- -- --
0200:                          5B 19 80 F8 FF FF 7F F8          [.......
0210: FF FF 7F 61 73 74 31 00                           ...ast1.        
```

#### Opcodes

```
  0: 0x0208 [0x5B] LOAD_EXT_SCHEDULER: Load scheduler "ast1" with entities [EventEntity, EventEntity], work=863*
  1: 0x0217 [0x00] END_REQSTACK()
```

### Event 65535.35

#### Metadata

| Field        | Value    |
|--------------|----------|
| Entrypoint   | 0x0218   |
| Data Size    | 14 bytes |
| Instructions | 2        |

```
      00 01 02 03 04 05 06 07  08 09 0A 0B 0C 0D 0E 0F
      -- -- -- -- -- -- -- --  -- -- -- -- -- -- -- --
0210:                          53 F8 FF FF 7F F8 FF FF          S.......
0220: 7F 61 73 74 31 00                                 .ast1.          
```

#### Opcodes

```
  0: 0x0218 [0x53] WAIT_SCHEDULER_TASK: Wait for scheduler "ast1" with entities [EventEntity, EventEntity]
  1: 0x0225 [0x00] END_REQSTACK()
```

### Event 65535.36

#### Metadata

| Field        | Value    |
|--------------|----------|
| Entrypoint   | 0x0226   |
| Data Size    | 16 bytes |
| Instructions | 2        |

```
      00 01 02 03 04 05 06 07  08 09 0A 0B 0C 0D 0E 0F
      -- -- -- -- -- -- -- --  -- -- -- -- -- -- -- --
0220:                   5B 19  80 F8 FF FF 7F F8 FF FF        [.........
0230: 7F 61 73 74 6C 00                                 .astl.          
```

#### Opcodes

```
  0: 0x0226 [0x5B] LOAD_EXT_SCHEDULER: Load scheduler "astl" with entities [EventEntity, EventEntity], work=863*
  1: 0x0235 [0x00] END_REQSTACK()
```

### Event 65535.37

#### Metadata

| Field        | Value    |
|--------------|----------|
| Entrypoint   | 0x0236   |
| Data Size    | 14 bytes |
| Instructions | 2        |

```
      00 01 02 03 04 05 06 07  08 09 0A 0B 0C 0D 0E 0F
      -- -- -- -- -- -- -- --  -- -- -- -- -- -- -- --
0230:                   53 F8  FF FF 7F F8 FF FF 7F 61        S........a
0240: 73 74 6C 00                                       stl.            
```

#### Opcodes

```
  0: 0x0236 [0x53] WAIT_SCHEDULER_TASK: Wait for scheduler "astl" with entities [EventEntity, EventEntity]
  1: 0x0243 [0x00] END_REQSTACK()
```

### Event 65535.38

#### Metadata

| Field        | Value    |
|--------------|----------|
| Entrypoint   | 0x0244   |
| Data Size    | 16 bytes |
| Instructions | 2        |

```
      00 01 02 03 04 05 06 07  08 09 0A 0B 0C 0D 0E 0F
      -- -- -- -- -- -- -- --  -- -- -- -- -- -- -- --
0240:             5B 19 80 F8  FF FF 7F F8 FF FF 7F 79      [..........y
0250: 72 65 30 00                                       re0.            
```

#### Opcodes

```
  0: 0x0244 [0x5B] LOAD_EXT_SCHEDULER: Load scheduler "yre0" with entities [EventEntity, EventEntity], work=863*
  1: 0x0253 [0x00] END_REQSTACK()
```

### Event 65535.39

#### Metadata

| Field        | Value    |
|--------------|----------|
| Entrypoint   | 0x0254   |
| Data Size    | 14 bytes |
| Instructions | 2        |

```
      00 01 02 03 04 05 06 07  08 09 0A 0B 0C 0D 0E 0F
      -- -- -- -- -- -- -- --  -- -- -- -- -- -- -- --
0250:             53 F8 FF FF  7F F8 FF FF 7F 79 72 65      S........yre
0260: 30 00                                             0.              
```

#### Opcodes

```
  0: 0x0254 [0x53] WAIT_SCHEDULER_TASK: Wait for scheduler "yre0" with entities [EventEntity, EventEntity]
  1: 0x0261 [0x00] END_REQSTACK()
```

### Event 65535.40

#### Metadata

| Field        | Value    |
|--------------|----------|
| Entrypoint   | 0x0262   |
| Data Size    | 16 bytes |
| Instructions | 2        |

```
      00 01 02 03 04 05 06 07  08 09 0A 0B 0C 0D 0E 0F
      -- -- -- -- -- -- -- --  -- -- -- -- -- -- -- --
0260:       5B 19 80 F8 FF FF  7F F8 FF FF 7F 74 69 72    [..........tir
0270: 30 00                                             0.              
```

#### Opcodes

```
  0: 0x0262 [0x5B] LOAD_EXT_SCHEDULER: Load scheduler "tir0" with entities [EventEntity, EventEntity], work=863*
  1: 0x0271 [0x00] END_REQSTACK()
```

### Event 65535.41

#### Metadata

| Field        | Value    |
|--------------|----------|
| Entrypoint   | 0x0272   |
| Data Size    | 14 bytes |
| Instructions | 2        |

```
      00 01 02 03 04 05 06 07  08 09 0A 0B 0C 0D 0E 0F
      -- -- -- -- -- -- -- --  -- -- -- -- -- -- -- --
0270:       53 F8 FF FF 7F F8  FF FF 7F 74 69 72 30 00    S........tir0.
```

#### Opcodes

```
  0: 0x0272 [0x53] WAIT_SCHEDULER_TASK: Wait for scheduler "tir0" with entities [EventEntity, EventEntity]
  1: 0x027F [0x00] END_REQSTACK()
```

### Event 65535.42

#### Metadata

| Field        | Value    |
|--------------|----------|
| Entrypoint   | 0x0280   |
| Data Size    | 16 bytes |
| Instructions | 2        |

```
      00 01 02 03 04 05 06 07  08 09 0A 0B 0C 0D 0E 0F
      -- -- -- -- -- -- -- --  -- -- -- -- -- -- -- --
0280: 5B 19 80 F8 FF FF 7F F8  FF FF 7F 74 69 72 31 00  [..........tir1.
```

#### Opcodes

```
  0: 0x0280 [0x5B] LOAD_EXT_SCHEDULER: Load scheduler "tir1" with entities [EventEntity, EventEntity], work=863*
  1: 0x028F [0x00] END_REQSTACK()
```

### Event 65535.43

#### Metadata

| Field        | Value    |
|--------------|----------|
| Entrypoint   | 0x0290   |
| Data Size    | 14 bytes |
| Instructions | 2        |

```
      00 01 02 03 04 05 06 07  08 09 0A 0B 0C 0D 0E 0F
      -- -- -- -- -- -- -- --  -- -- -- -- -- -- -- --
0290: 53 F8 FF FF 7F F8 FF FF  7F 74 69 72 31 00        S........tir1.  
```

#### Opcodes

```
  0: 0x0290 [0x53] WAIT_SCHEDULER_TASK: Wait for scheduler "tir1" with entities [EventEntity, EventEntity]
  1: 0x029D [0x00] END_REQSTACK()
```

### Event 65535.44

#### Metadata

| Field        | Value    |
|--------------|----------|
| Entrypoint   | 0x029E   |
| Data Size    | 16 bytes |
| Instructions | 2        |

```
      00 01 02 03 04 05 06 07  08 09 0A 0B 0C 0D 0E 0F
      -- -- -- -- -- -- -- --  -- -- -- -- -- -- -- --
0290:                                            5B 1A                [.
02A0: 80 F8 FF FF 7F F8 FF FF  7F 72 6C 73 30 00        .........rls0.  
```

#### Opcodes

```
  0: 0x029E [0x5B] LOAD_EXT_SCHEDULER: Load scheduler "rls0" with entities [EventEntity, EventEntity], work=980*
  1: 0x02AD [0x00] END_REQSTACK()
```

### Event 65535.45

#### Metadata

| Field        | Value    |
|--------------|----------|
| Entrypoint   | 0x02AE   |
| Data Size    | 14 bytes |
| Instructions | 2        |

```
      00 01 02 03 04 05 06 07  08 09 0A 0B 0C 0D 0E 0F
      -- -- -- -- -- -- -- --  -- -- -- -- -- -- -- --
02A0:                                            53 F8                S.
02B0: FF FF 7F F8 FF FF 7F 72  6C 73 30 00              .......rls0.    
```

#### Opcodes

```
  0: 0x02AE [0x53] WAIT_SCHEDULER_TASK: Wait for scheduler "rls0" with entities [EventEntity, EventEntity]
  1: 0x02BB [0x00] END_REQSTACK()
```

### Event 65535.46

#### Metadata

| Field        | Value    |
|--------------|----------|
| Entrypoint   | 0x02BC   |
| Data Size    | 16 bytes |
| Instructions | 2        |

```
      00 01 02 03 04 05 06 07  08 09 0A 0B 0C 0D 0E 0F
      -- -- -- -- -- -- -- --  -- -- -- -- -- -- -- --
02B0:                                      5B 1A 80 F8              [...
02C0: FF FF 7F F8 FF FF 7F 72  6C 73 31 00              .......rls1.    
```

#### Opcodes

```
  0: 0x02BC [0x5B] LOAD_EXT_SCHEDULER: Load scheduler "rls1" with entities [EventEntity, EventEntity], work=980*
  1: 0x02CB [0x00] END_REQSTACK()
```

### Event 65535.47

#### Metadata

| Field        | Value    |
|--------------|----------|
| Entrypoint   | 0x02CC   |
| Data Size    | 14 bytes |
| Instructions | 2        |

```
      00 01 02 03 04 05 06 07  08 09 0A 0B 0C 0D 0E 0F
      -- -- -- -- -- -- -- --  -- -- -- -- -- -- -- --
02C0:                                      53 F8 FF FF              S...
02D0: 7F F8 FF FF 7F 72 6C 73  31 00                    .....rls1.      
```

#### Opcodes

```
  0: 0x02CC [0x53] WAIT_SCHEDULER_TASK: Wait for scheduler "rls1" with entities [EventEntity, EventEntity]
  1: 0x02D9 [0x00] END_REQSTACK()
```

### Event 65535.48

#### Metadata

| Field        | Value    |
|--------------|----------|
| Entrypoint   | 0x02DA   |
| Data Size    | 16 bytes |
| Instructions | 2        |

```
      00 01 02 03 04 05 06 07  08 09 0A 0B 0C 0D 0E 0F
      -- -- -- -- -- -- -- --  -- -- -- -- -- -- -- --
02D0:                                5B 1B 80 F8 FF FF            [.....
02E0: 7F F8 FF FF 7F 72 6C 73  32 00                    .....rls2.      
```

#### Opcodes

```
  0: 0x02DA [0x5B] LOAD_EXT_SCHEDULER: Load scheduler "rls2" with entities [EventEntity, EventEntity], work=981*
  1: 0x02E9 [0x00] END_REQSTACK()
```

### Event 65535.49

#### Metadata

| Field        | Value    |
|--------------|----------|
| Entrypoint   | 0x02EA   |
| Data Size    | 14 bytes |
| Instructions | 2        |

```
      00 01 02 03 04 05 06 07  08 09 0A 0B 0C 0D 0E 0F
      -- -- -- -- -- -- -- --  -- -- -- -- -- -- -- --
02E0:                                53 F8 FF FF 7F F8            S.....
02F0: FF FF 7F 72 6C 73 32 00                           ...rls2.        
```

#### Opcodes

```
  0: 0x02EA [0x53] WAIT_SCHEDULER_TASK: Wait for scheduler "rls2" with entities [EventEntity, EventEntity]
  1: 0x02F7 [0x00] END_REQSTACK()
```

### Event 65535.50

#### Metadata

| Field        | Value    |
|--------------|----------|
| Entrypoint   | 0x02F8   |
| Data Size    | 16 bytes |
| Instructions | 2        |

```
      00 01 02 03 04 05 06 07  08 09 0A 0B 0C 0D 0E 0F
      -- -- -- -- -- -- -- --  -- -- -- -- -- -- -- --
02F0:                          5B 1B 80 F8 FF FF 7F F8          [.......
0300: FF FF 7F 72 6C 73 33 00                           ...rls3.        
```

#### Opcodes

```
  0: 0x02F8 [0x5B] LOAD_EXT_SCHEDULER: Load scheduler "rls3" with entities [EventEntity, EventEntity], work=981*
  1: 0x0307 [0x00] END_REQSTACK()
```

### Event 65535.51

#### Metadata

| Field        | Value    |
|--------------|----------|
| Entrypoint   | 0x0308   |
| Data Size    | 14 bytes |
| Instructions | 2        |

```
      00 01 02 03 04 05 06 07  08 09 0A 0B 0C 0D 0E 0F
      -- -- -- -- -- -- -- --  -- -- -- -- -- -- -- --
0300:                          53 F8 FF FF 7F F8 FF FF          S.......
0310: 7F 72 6C 73 33 00                                 .rls3.          
```

#### Opcodes

```
  0: 0x0308 [0x53] WAIT_SCHEDULER_TASK: Wait for scheduler "rls3" with entities [EventEntity, EventEntity]
  1: 0x0315 [0x00] END_REQSTACK()
```

### Event 65535.52

#### Metadata

| Field        | Value    |
|--------------|----------|
| Entrypoint   | 0x0316   |
| Data Size    | 16 bytes |
| Instructions | 2        |

```
      00 01 02 03 04 05 06 07  08 09 0A 0B 0C 0D 0E 0F
      -- -- -- -- -- -- -- --  -- -- -- -- -- -- -- --
0310:                   5B 1C  80 F8 FF FF 7F F8 FF FF        [.........
0320: 7F 74 68 6B 31 00                                 .thk1.          
```

#### Opcodes

```
  0: 0x0316 [0x5B] LOAD_EXT_SCHEDULER: Load scheduler "thk1" with entities [EventEntity, EventEntity], work=1093*
  1: 0x0325 [0x00] END_REQSTACK()
```

### Event 65535.53

#### Metadata

| Field        | Value    |
|--------------|----------|
| Entrypoint   | 0x0326   |
| Data Size    | 14 bytes |
| Instructions | 2        |

```
      00 01 02 03 04 05 06 07  08 09 0A 0B 0C 0D 0E 0F
      -- -- -- -- -- -- -- --  -- -- -- -- -- -- -- --
0320:                   53 F8  FF FF 7F F8 FF FF 7F 74        S........t
0330: 68 6B 31 00                                       hk1.            
```

#### Opcodes

```
  0: 0x0326 [0x53] WAIT_SCHEDULER_TASK: Wait for scheduler "thk1" with entities [EventEntity, EventEntity]
  1: 0x0333 [0x00] END_REQSTACK()
```

### Event 65535.54

#### Metadata

| Field        | Value    |
|--------------|----------|
| Entrypoint   | 0x0334   |
| Data Size    | 16 bytes |
| Instructions | 2        |

```
      00 01 02 03 04 05 06 07  08 09 0A 0B 0C 0D 0E 0F
      -- -- -- -- -- -- -- --  -- -- -- -- -- -- -- --
0330:             5B 1C 80 F8  FF FF 7F F8 FF FF 7F 74      [..........t
0340: 68 6B 32 00                                       hk2.            
```

#### Opcodes

```
  0: 0x0334 [0x5B] LOAD_EXT_SCHEDULER: Load scheduler "thk2" with entities [EventEntity, EventEntity], work=1093*
  1: 0x0343 [0x00] END_REQSTACK()
```

### Event 65535.55

#### Metadata

| Field        | Value    |
|--------------|----------|
| Entrypoint   | 0x0344   |
| Data Size    | 14 bytes |
| Instructions | 2        |

```
      00 01 02 03 04 05 06 07  08 09 0A 0B 0C 0D 0E 0F
      -- -- -- -- -- -- -- --  -- -- -- -- -- -- -- --
0340:             53 F8 FF FF  7F F8 FF FF 7F 74 68 6B      S........thk
0350: 32 00                                             2.              
```

#### Opcodes

```
  0: 0x0344 [0x53] WAIT_SCHEDULER_TASK: Wait for scheduler "thk2" with entities [EventEntity, EventEntity]
  1: 0x0351 [0x00] END_REQSTACK()
```

### Event 65535.56

#### Metadata

| Field        | Value    |
|--------------|----------|
| Entrypoint   | 0x0352   |
| Data Size    | 16 bytes |
| Instructions | 2        |

```
      00 01 02 03 04 05 06 07  08 09 0A 0B 0C 0D 0E 0F
      -- -- -- -- -- -- -- --  -- -- -- -- -- -- -- --
0350:       5B 1C 80 F8 FF FF  7F F8 FF FF 7F 73 68 61    [..........sha
0360: 30 00                                             0.              
```

#### Opcodes

```
  0: 0x0352 [0x5B] LOAD_EXT_SCHEDULER: Load scheduler "sha0" with entities [EventEntity, EventEntity], work=1093*
  1: 0x0361 [0x00] END_REQSTACK()
```

### Event 65535.57

#### Metadata

| Field        | Value    |
|--------------|----------|
| Entrypoint   | 0x0362   |
| Data Size    | 14 bytes |
| Instructions | 2        |

```
      00 01 02 03 04 05 06 07  08 09 0A 0B 0C 0D 0E 0F
      -- -- -- -- -- -- -- --  -- -- -- -- -- -- -- --
0360:       53 F8 FF FF 7F F8  FF FF 7F 73 68 61 30 00    S........sha0.
```

#### Opcodes

```
  0: 0x0362 [0x53] WAIT_SCHEDULER_TASK: Wait for scheduler "sha0" with entities [EventEntity, EventEntity]
  1: 0x036F [0x00] END_REQSTACK()
```

### Event 65535.58

#### Metadata

| Field        | Value    |
|--------------|----------|
| Entrypoint   | 0x0370   |
| Data Size    | 16 bytes |
| Instructions | 2        |

```
      00 01 02 03 04 05 06 07  08 09 0A 0B 0C 0D 0E 0F
      -- -- -- -- -- -- -- --  -- -- -- -- -- -- -- --
0370: 5B 1C 80 F8 FF FF 7F F8  FF FF 7F 73 68 61 31 00  [..........sha1.
```

#### Opcodes

```
  0: 0x0370 [0x5B] LOAD_EXT_SCHEDULER: Load scheduler "sha1" with entities [EventEntity, EventEntity], work=1093*
  1: 0x037F [0x00] END_REQSTACK()
```

### Event 65535.59

#### Metadata

| Field        | Value    |
|--------------|----------|
| Entrypoint   | 0x0380   |
| Data Size    | 14 bytes |
| Instructions | 2        |

```
      00 01 02 03 04 05 06 07  08 09 0A 0B 0C 0D 0E 0F
      -- -- -- -- -- -- -- --  -- -- -- -- -- -- -- --
0380: 53 F8 FF FF 7F F8 FF FF  7F 73 68 61 31 00        S........sha1.  
```

#### Opcodes

```
  0: 0x0380 [0x53] WAIT_SCHEDULER_TASK: Wait for scheduler "sha1" with entities [EventEntity, EventEntity]
  1: 0x038D [0x00] END_REQSTACK()
```

### Event 65535.60

#### Metadata

| Field        | Value    |
|--------------|----------|
| Entrypoint   | 0x038E   |
| Data Size    | 16 bytes |
| Instructions | 2        |

```
      00 01 02 03 04 05 06 07  08 09 0A 0B 0C 0D 0E 0F
      -- -- -- -- -- -- -- --  -- -- -- -- -- -- -- --
0380:                                            5B 1C                [.
0390: 80 F8 FF FF 7F F8 FF FF  7F 74 6C 6B 30 00        .........tlk0.  
```

#### Opcodes

```
  0: 0x038E [0x5B] LOAD_EXT_SCHEDULER: Load scheduler "tlk0" with entities [EventEntity, EventEntity], work=1093*
  1: 0x039D [0x00] END_REQSTACK()
```

### Event 65535.61

#### Metadata

| Field        | Value    |
|--------------|----------|
| Entrypoint   | 0x039E   |
| Data Size    | 14 bytes |
| Instructions | 2        |

```
      00 01 02 03 04 05 06 07  08 09 0A 0B 0C 0D 0E 0F
      -- -- -- -- -- -- -- --  -- -- -- -- -- -- -- --
0390:                                            53 F8                S.
03A0: FF FF 7F F8 FF FF 7F 74  6C 6B 30 00              .......tlk0.    
```

#### Opcodes

```
  0: 0x039E [0x53] WAIT_SCHEDULER_TASK: Wait for scheduler "tlk0" with entities [EventEntity, EventEntity]
  1: 0x03AB [0x00] END_REQSTACK()
```

### Event 65535.62

#### Metadata

| Field        | Value    |
|--------------|----------|
| Entrypoint   | 0x03AC   |
| Data Size    | 16 bytes |
| Instructions | 2        |

```
      00 01 02 03 04 05 06 07  08 09 0A 0B 0C 0D 0E 0F
      -- -- -- -- -- -- -- --  -- -- -- -- -- -- -- --
03A0:                                      5B 1C 80 F8              [...
03B0: FF FF 7F F8 FF FF 7F 74  6C 6B 31 00              .......tlk1.    
```

#### Opcodes

```
  0: 0x03AC [0x5B] LOAD_EXT_SCHEDULER: Load scheduler "tlk1" with entities [EventEntity, EventEntity], work=1093*
  1: 0x03BB [0x00] END_REQSTACK()
```

### Event 65535.63

#### Metadata

| Field        | Value    |
|--------------|----------|
| Entrypoint   | 0x03BC   |
| Data Size    | 14 bytes |
| Instructions | 2        |

```
      00 01 02 03 04 05 06 07  08 09 0A 0B 0C 0D 0E 0F
      -- -- -- -- -- -- -- --  -- -- -- -- -- -- -- --
03B0:                                      53 F8 FF FF              S...
03C0: 7F F8 FF FF 7F 74 6C 6B  31 00                    .....tlk1.      
```

#### Opcodes

```
  0: 0x03BC [0x53] WAIT_SCHEDULER_TASK: Wait for scheduler "tlk1" with entities [EventEntity, EventEntity]
  1: 0x03C9 [0x00] END_REQSTACK()
```

### Event 65535.64

#### Metadata

| Field        | Value    |
|--------------|----------|
| Entrypoint   | 0x03CA   |
| Data Size    | 15 bytes |
| Instructions | 5        |

```
      00 01 02 03 04 05 06 07  08 09 0A 0B 0C 0D 0E 0F
      -- -- -- -- -- -- -- --  -- -- -- -- -- -- -- --
03C0:                                32 04 80 1F 00 1D            2.....
03D0: 80 1E 80 1F 80 1F 01 6F  00                       .......o.       
```

#### Opcodes

```
  0: 0x03CA [0x32] ExtData[1]->MainSpeed = 13* * 0.1
  1: 0x03CD [0x1F] MOVE_ENTITY: EventEntity moves to X=-55.990*, Z=-645.473*, Y=-12.266*
  2: 0x03D5 [0x1F] MOVE_ENTITY: Update entity position (mode=1)
  3: 0x03D7 [0x6F] WAIT_FRAME_DELAY: Yield until WaitTime reaches zero
  4: 0x03D8 [0x00] END_REQSTACK()
```
