# 16986821 - Shayadar

## Common Data

| Field            | Value                     |
|------------------|---------------------------|
| Zone             | Wajaom Woodlands (ID: 51) |
| Block Size       | 908 bytes                 |
| Total Events     | 30                        |
| References Count | 54                        |

## List of Events

| Event ID                   | Entrypoint   |   Size |   Instructions |
|----------------------------|--------------|--------|----------------|
| [65535](#event-65535)      | 0x0000       |      1 |              1 |
| [16](#event-16)            | 0x0001       |      1 |              1 |
| [17](#event-17)            | 0x0002       |      1 |              1 |
| [18](#event-18)            | 0x0003       |      1 |              1 |
| [19](#event-19)            | 0x0004       |      1 |              1 |
| [65535.1](#event-655351)   | 0x0005       |     19 |              4 |
| [65535.2](#event-655352)   | 0x0018       |     19 |              4 |
| [65535.3](#event-655353)   | 0x002B       |     19 |              4 |
| [65535.4](#event-655354)   | 0x003E       |     19 |              4 |
| [65535.5](#event-655355)   | 0x0051       |     19 |              4 |
| [65535.6](#event-655356)   | 0x0064       |     13 |              3 |
| [65535.7](#event-655357)   | 0x0071       |     19 |              4 |
| [65535.8](#event-655358)   | 0x0084       |     19 |              4 |
| [65535.9](#event-655359)   | 0x0097       |     19 |              4 |
| [65535.10](#event-6553510) | 0x00AA       |     28 |              7 |
| [65535.11](#event-6553511) | 0x00C6       |     11 |              3 |
| [65535.12](#event-6553512) | 0x00D1       |     34 |              8 |
| [65535.13](#event-6553513) | 0x00F3       |     67 |             13 |
| [65535.14](#event-6553514) | 0x0136       |     37 |              7 |
| [65535.15](#event-6553515) | 0x015B       |     37 |              7 |
| [65535.16](#event-6553516) | 0x0180       |     15 |              5 |
| [65535.17](#event-6553517) | 0x018F       |      5 |              2 |
| [65535.18](#event-6553518) | 0x0194       |      5 |              2 |
| [65535.19](#event-6553519) | 0x0199       |      5 |              2 |
| [65535.20](#event-6553520) | 0x019E       |      5 |              2 |
| [65535.21](#event-6553521) | 0x01A3       |     27 |              7 |
| [65535.22](#event-6553522) | 0x01BE       |     27 |              7 |
| [65535.23](#event-6553523) | 0x01D9       |     40 |              6 |
| [65535.24](#event-6553524) | 0x0201       |     19 |              3 |
| [65535.25](#event-6553525) | 0x0214       |     24 |              6 |

## DAT References (imed_data)

|   Index | Hex Value   |   Dec Value |
|---------|-------------|-------------|
|       0 | 0x0027      |          39 |
|       1 | 0x138CF     |       80079 |
|       2 | 0xFFFDF22F  |  4294832687 |
|       3 | 0xFFFFE890  |  4294961296 |
|       4 | 0x000D      |          13 |
|       5 | 0x14661     |       83553 |
|       6 | 0xFFFE030D  |  4294837005 |
|       7 | 0x0025      |          37 |
|       8 | 0x148F7     |       84215 |
|       9 | 0xFFFE0A93  |  4294838931 |
|      10 | 0x13583     |       79235 |
|      11 | 0xFFFDEB63  |  4294830947 |
|      12 | 0x13A07     |       80391 |
|      13 | 0xFFFDE965  |  4294830437 |
|      14 | 0x0026      |          38 |
|      15 | 0x000F      |          15 |
|      16 | 0x13A8E     |       80526 |
|      17 | 0xFFFDF578  |  4294833528 |
|      18 | 0x000B      |          11 |
|      19 | 0x13B2A     |       80682 |
|      20 | 0xFFFE06AB  |  4294837931 |
|      21 | 0xFFFE2203  |  4294844931 |
|      22 | 0x13359     |       78681 |
|      23 | 0xFFFDFA56  |  4294834774 |
|      24 | 0x001E      |          30 |
|      25 | 0x02A8      |         680 |
|      26 | 0x13332     |       78642 |
|      27 | 0xFFFE2D9D  |  4294847901 |
|      28 | 0x0003      |           3 |
|      29 | 0x0002      |           2 |
|      30 | 0x0005      |           5 |
|      31 | 0x0530      |        1328 |
|      32 | 0x0004      |           4 |
|      33 | 0x0008      |           8 |
|      34 | 0x0001      |           1 |
|      35 | 0x000A      |          10 |
|      36 | 0x0041      |          65 |
|      37 | 0x0028      |          40 |
|      38 | 0xFFFE615D  |  4294861149 |
|      39 | 0x8576      |       34166 |
|      40 | 0xFFFFE891  |  4294961297 |
|      41 | 0x0000      |           0 |
|      42 | 0x004B      |          75 |
|      43 | 0xFFFFE9BC  |  4294961596 |
|      44 | 0xFFFF9148  |  4294938952 |
|      45 | 0xFFFFF154  |  4294963540 |
|      46 | 0xFFFF934E  |  4294939470 |
|      47 | 0xFFFFF67A  |  4294964858 |
|      48 | 0xFFFF94DE  |  4294939870 |
|      49 | 0x001D      |          29 |
|      50 | 0x002D      |          45 |
|      51 | 0x002A      |          42 |
|      52 | 0x151E7     |       86503 |
|      53 | 0xFFFE0500  |  4294837504 |

## Events

### Event 65535

#### Metadata

| Field        | Value   |
|--------------|---------|
| Entrypoint   | 0x0000  |
| Data Size    | 1 bytes |
| Instructions | 1       |

```
      00 01 02 03 04 05 06 07  08 09 0A 0B 0C 0D 0E 0F
      -- -- -- -- -- -- -- --  -- -- -- -- -- -- -- --
0000: 00                                                .               
```

#### Opcodes

```
  0: 0x0000 [0x00] END_REQSTACK()
```

### Event 16

#### Metadata

| Field        | Value   |
|--------------|---------|
| Entrypoint   | 0x0001  |
| Data Size    | 1 bytes |
| Instructions | 1       |

```
      00 01 02 03 04 05 06 07  08 09 0A 0B 0C 0D 0E 0F
      -- -- -- -- -- -- -- --  -- -- -- -- -- -- -- --
0000:    00                                              .              
```

#### Opcodes

```
  0: 0x0001 [0x00] END_REQSTACK()
```

### Event 17

#### Metadata

| Field        | Value   |
|--------------|---------|
| Entrypoint   | 0x0002  |
| Data Size    | 1 bytes |
| Instructions | 1       |

```
      00 01 02 03 04 05 06 07  08 09 0A 0B 0C 0D 0E 0F
      -- -- -- -- -- -- -- --  -- -- -- -- -- -- -- --
0000:       00                                            .             
```

#### Opcodes

```
  0: 0x0002 [0x00] END_REQSTACK()
```

### Event 18

#### Metadata

| Field        | Value   |
|--------------|---------|
| Entrypoint   | 0x0003  |
| Data Size    | 1 bytes |
| Instructions | 1       |

```
      00 01 02 03 04 05 06 07  08 09 0A 0B 0C 0D 0E 0F
      -- -- -- -- -- -- -- --  -- -- -- -- -- -- -- --
0000:          00                                          .            
```

#### Opcodes

```
  0: 0x0003 [0x00] END_REQSTACK()
```

### Event 19

#### Metadata

| Field        | Value   |
|--------------|---------|
| Entrypoint   | 0x0004  |
| Data Size    | 1 bytes |
| Instructions | 1       |

```
      00 01 02 03 04 05 06 07  08 09 0A 0B 0C 0D 0E 0F
      -- -- -- -- -- -- -- --  -- -- -- -- -- -- -- --
0000:             00                                        .           
```

#### Opcodes

```
  0: 0x0004 [0x00] END_REQSTACK()
```

### Event 65535.1

#### Metadata

| Field        | Value    |
|--------------|----------|
| Entrypoint   | 0x0005   |
| Data Size    | 19 bytes |
| Instructions | 4        |

```
      00 01 02 03 04 05 06 07  08 09 0A 0B 0C 0D 0E 0F
      -- -- -- -- -- -- -- --  -- -- -- -- -- -- -- --
0000:                59 04 C5  32 03 01 00 80 1F 00 01       Y..2.......
0010: 80 02 80 03 80 1F 01 00                           ........        
```

#### Opcodes

```
  0: 0x0005 [0x59] UPDATE_ENTITY_DATA: Set Shayadar (ID: 16986821/0x010332C5) main speed = 39* * 0.1
  1: 0x000D [0x1F] MOVE_ENTITY: EventEntity moves to X=80.079*, Z=-134.609*, Y=-6.000*
  2: 0x0015 [0x1F] MOVE_ENTITY: Update entity position (mode=1)
  3: 0x0017 [0x00] END_REQSTACK()
```

### Event 65535.2

#### Metadata

| Field        | Value    |
|--------------|----------|
| Entrypoint   | 0x0018   |
| Data Size    | 19 bytes |
| Instructions | 4        |

```
      00 01 02 03 04 05 06 07  08 09 0A 0B 0C 0D 0E 0F
      -- -- -- -- -- -- -- --  -- -- -- -- -- -- -- --
0010:                          59 04 C5 32 03 01 04 80          Y..2....
0020: 1F 00 05 80 06 80 03 80  1F 01 00                 ...........     
```

#### Opcodes

```
  0: 0x0018 [0x59] UPDATE_ENTITY_DATA: Set Shayadar (ID: 16986821/0x010332C5) main speed = 13* * 0.1
  1: 0x0020 [0x1F] MOVE_ENTITY: EventEntity moves to X=83.553*, Z=-130.291*, Y=-6.000*
  2: 0x0028 [0x1F] MOVE_ENTITY: Update entity position (mode=1)
  3: 0x002A [0x00] END_REQSTACK()
```

### Event 65535.3

#### Metadata

| Field        | Value    |
|--------------|----------|
| Entrypoint   | 0x002B   |
| Data Size    | 19 bytes |
| Instructions | 4        |

```
      00 01 02 03 04 05 06 07  08 09 0A 0B 0C 0D 0E 0F
      -- -- -- -- -- -- -- --  -- -- -- -- -- -- -- --
0020:                                   59 04 9E 32 03             Y..2.
0030: 01 07 80 1F 00 08 80 09  80 03 80 1F 01 00        ..............  
```

#### Opcodes

```
  0: 0x002B [0x59] UPDATE_ENTITY_DATA: Set Fari-Wari (ID: 16986782/0x0103329E) main speed = 37* * 0.1
  1: 0x0033 [0x1F] MOVE_ENTITY: EventEntity moves to X=84.215*, Z=-128.365*, Y=-6.000*
  2: 0x003B [0x1F] MOVE_ENTITY: Update entity position (mode=1)
  3: 0x003D [0x00] END_REQSTACK()
```

### Event 65535.4

#### Metadata

| Field        | Value    |
|--------------|----------|
| Entrypoint   | 0x003E   |
| Data Size    | 19 bytes |
| Instructions | 4        |

```
      00 01 02 03 04 05 06 07  08 09 0A 0B 0C 0D 0E 0F
      -- -- -- -- -- -- -- --  -- -- -- -- -- -- -- --
0030:                                            59 04                Y.
0040: 9E 32 03 01 04 80 1F 00  0A 80 0B 80 03 80 1F 01  .2..............
0050: 00                                                .               
```

#### Opcodes

```
  0: 0x003E [0x59] UPDATE_ENTITY_DATA: Set Fari-Wari (ID: 16986782/0x0103329E) main speed = 13* * 0.1
  1: 0x0046 [0x1F] MOVE_ENTITY: EventEntity moves to X=79.235*, Z=-136.349*, Y=-6.000*
  2: 0x004E [0x1F] MOVE_ENTITY: Update entity position (mode=1)
  3: 0x0050 [0x00] END_REQSTACK()
```

### Event 65535.5

#### Metadata

| Field        | Value    |
|--------------|----------|
| Entrypoint   | 0x0051   |
| Data Size    | 19 bytes |
| Instructions | 4        |

```
      00 01 02 03 04 05 06 07  08 09 0A 0B 0C 0D 0E 0F
      -- -- -- -- -- -- -- --  -- -- -- -- -- -- -- --
0050:    59 04 9E 32 03 01 04  80 1F 00 0C 80 0D 80 03   Y..2...........
0060: 80 1F 01 00                                       ....            
```

#### Opcodes

```
  0: 0x0051 [0x59] UPDATE_ENTITY_DATA: Set Fari-Wari (ID: 16986782/0x0103329E) main speed = 13* * 0.1
  1: 0x0059 [0x1F] MOVE_ENTITY: EventEntity moves to X=80.391*, Z=-136.859*, Y=-6.000*
  2: 0x0061 [0x1F] MOVE_ENTITY: Update entity position (mode=1)
  3: 0x0063 [0x00] END_REQSTACK()
```

### Event 65535.6

#### Metadata

| Field        | Value    |
|--------------|----------|
| Entrypoint   | 0x0064   |
| Data Size    | 13 bytes |
| Instructions | 3        |

```
      00 01 02 03 04 05 06 07  08 09 0A 0B 0C 0D 0E 0F
      -- -- -- -- -- -- -- --  -- -- -- -- -- -- -- --
0060:             6E 9E 32 03  01 0E 80 99 9E 32 03 01      n.2......2..
0070: 00                                                .               
```

#### Opcodes

```
  0: 0x0064 [0x6E] Fari-Wari (ID: 16986782/0x0103329E) uses emote 38*
  1: 0x006B [0x99] Wait for Fari-Wari (ID: 16986782/0x0103329E) animation to complete
  2: 0x0070 [0x00] END_REQSTACK()
```

### Event 65535.7

#### Metadata

| Field        | Value    |
|--------------|----------|
| Entrypoint   | 0x0071   |
| Data Size    | 19 bytes |
| Instructions | 4        |

```
      00 01 02 03 04 05 06 07  08 09 0A 0B 0C 0D 0E 0F
      -- -- -- -- -- -- -- --  -- -- -- -- -- -- -- --
0070:    59 04 BC 32 03 01 0F  80 1F 00 10 80 11 80 03   Y..2...........
0080: 80 1F 01 00                                       ....            
```

#### Opcodes

```
  0: 0x0071 [0x59] UPDATE_ENTITY_DATA: Set Gadalar (ID: 16986812/0x010332BC) main speed = 15* * 0.1
  1: 0x0079 [0x1F] MOVE_ENTITY: EventEntity moves to X=80.526*, Z=-133.768*, Y=-6.000*
  2: 0x0081 [0x1F] MOVE_ENTITY: Update entity position (mode=1)
  3: 0x0083 [0x00] END_REQSTACK()
```

### Event 65535.8

#### Metadata

| Field        | Value    |
|--------------|----------|
| Entrypoint   | 0x0084   |
| Data Size    | 19 bytes |
| Instructions | 4        |

```
      00 01 02 03 04 05 06 07  08 09 0A 0B 0C 0D 0E 0F
      -- -- -- -- -- -- -- --  -- -- -- -- -- -- -- --
0080:             59 04 BC 32  03 01 12 80 1F 00 13 80      Y..2........
0090: 14 80 03 80 1F 01 00                              .......         
```

#### Opcodes

```
  0: 0x0084 [0x59] UPDATE_ENTITY_DATA: Set Gadalar (ID: 16986812/0x010332BC) main speed = 11* * 0.1
  1: 0x008C [0x1F] MOVE_ENTITY: EventEntity moves to X=80.682*, Z=-129.365*, Y=-6.000*
  2: 0x0094 [0x1F] MOVE_ENTITY: Update entity position (mode=1)
  3: 0x0096 [0x00] END_REQSTACK()
```

### Event 65535.9

#### Metadata

| Field        | Value    |
|--------------|----------|
| Entrypoint   | 0x0097   |
| Data Size    | 19 bytes |
| Instructions | 4        |

```
      00 01 02 03 04 05 06 07  08 09 0A 0B 0C 0D 0E 0F
      -- -- -- -- -- -- -- --  -- -- -- -- -- -- -- --
0090:                      59  04 BC 32 03 01 12 80 1F         Y..2.....
00A0: 00 13 80 15 80 03 80 1F  01 00                    ..........      
```

#### Opcodes

```
  0: 0x0097 [0x59] UPDATE_ENTITY_DATA: Set Gadalar (ID: 16986812/0x010332BC) main speed = 11* * 0.1
  1: 0x009F [0x1F] MOVE_ENTITY: EventEntity moves to X=80.682*, Z=-122.365*, Y=-6.000*
  2: 0x00A7 [0x1F] MOVE_ENTITY: Update entity position (mode=1)
  3: 0x00A9 [0x00] END_REQSTACK()
```

### Event 65535.10

#### Metadata

| Field        | Value    |
|--------------|----------|
| Entrypoint   | 0x00AA   |
| Data Size    | 28 bytes |
| Instructions | 7        |

```
      00 01 02 03 04 05 06 07  08 09 0A 0B 0C 0D 0E 0F
      -- -- -- -- -- -- -- --  -- -- -- -- -- -- -- --
00A0:                                1F 00 16 80 17 80            ......
00B0: 03 80 1F 01 6F 79 00 C5  32 03 01 9E 32 03 01 1C  ....oy..2...2...
00C0: 18 80 39 19 80 00                                 ..9...          
```

#### Opcodes

```
  0: 0x00AA [0x1F] MOVE_ENTITY: EventEntity moves to X=78.681*, Z=-132.522*, Y=-6.000*
  1: 0x00B2 [0x1F] MOVE_ENTITY: Update entity position (mode=1)
  2: 0x00B4 [0x6F] WAIT_FRAME_DELAY: Yield until WaitTime reaches zero
  3: 0x00B5 [0x79] Shayadar (ID: 16986821/0x010332C5) looks at Fari-Wari (ID: 16986782/0x0103329E) (Basic look)
  4: 0x00BF [0x1C] WAIT(30* ticks)
  5: 0x00C2 [0x39] SET_ENTITY_DIRECTION(direction=3.7°*)
  6: 0x00C5 [0x00] END_REQSTACK()
```

### Event 65535.11

#### Metadata

| Field        | Value    |
|--------------|----------|
| Entrypoint   | 0x00C6   |
| Data Size    | 11 bytes |
| Instructions | 3        |

```
      00 01 02 03 04 05 06 07  08 09 0A 0B 0C 0D 0E 0F
      -- -- -- -- -- -- -- --  -- -- -- -- -- -- -- --
00C0:                   1F 00  1A 80 1B 80 03 80 1F 01        ..........
00D0: 00                                                .               
```

#### Opcodes

```
  0: 0x00C6 [0x1F] MOVE_ENTITY: EventEntity moves to X=78.642*, Z=-119.395*, Y=-6.000*
  1: 0x00CE [0x1F] MOVE_ENTITY: Update entity position (mode=1)
  2: 0x00D0 [0x00] END_REQSTACK()
```

### Event 65535.12

#### Metadata

| Field        | Value    |
|--------------|----------|
| Entrypoint   | 0x00D1   |
| Data Size    | 34 bytes |
| Instructions | 8        |

```
      00 01 02 03 04 05 06 07  08 09 0A 0B 0C 0D 0E 0F
      -- -- -- -- -- -- -- --  -- -- -- -- -- -- -- --
00D0:    1C 1C 80 1C 1D 80 6E  C2 32 03 01 12 80 99 C2   ......n.2......
00E0: 32 03 01 1C 1E 80 6E C3  32 03 01 04 80 99 C3 32  2.....n.2......2
00F0: 03 01 00                                          ...             
```

#### Opcodes

```
  0: 0x00D1 [0x1C] WAIT(3* ticks)
  1: 0x00D4 [0x1C] WAIT(2* ticks)
  2: 0x00D7 [0x6E] FAN7 (ID: 16986818/0x010332C2) uses emote 11*
  3: 0x00DE [0x99] Wait for FAN7 (ID: 16986818/0x010332C2) animation to complete
  4: 0x00E3 [0x1C] WAIT(5* ticks)
  5: 0x00E6 [0x6E] FAN8 (ID: 16986819/0x010332C3) uses emote 13*
  6: 0x00ED [0x99] Wait for FAN8 (ID: 16986819/0x010332C3) animation to complete
  7: 0x00F2 [0x00] END_REQSTACK()
```

### Event 65535.13

#### Metadata

| Field        | Value    |
|--------------|----------|
| Entrypoint   | 0x00F3   |
| Data Size    | 67 bytes |
| Instructions | 13       |

```
      00 01 02 03 04 05 06 07  08 09 0A 0B 0C 0D 0E 0F
      -- -- -- -- -- -- -- --  -- -- -- -- -- -- -- --
00F0:          6E C0 32 03 01  12 80 99 C0 32 03 01 1C     n.2......2...
0100: 1C 80 5B 1F 80 C1 32 03  01 C1 32 03 01 69 72 6F  ..[...2...2..iro
0110: 30 1C 20 80 1C 1C 80 1C  1D 80 6E C2 32 03 01 21  0. .......n.2..!
0120: 80 99 C2 32 03 01 1C 1E  80 6E C3 32 03 01 12 80  ...2.....n.2....
0130: 99 C3 32 03 01 00                                 ..2...          
```

#### Opcodes

```
  0: 0x00F3 [0x6E] FAN3 (ID: 16986816/0x010332C0) uses emote 11*
  1: 0x00FA [0x99] Wait for FAN3 (ID: 16986816/0x010332C0) animation to complete
  2: 0x00FF [0x1C] WAIT(3* ticks)
  3: 0x0102 [0x5B] LOAD_EXT_SCHEDULER: Load scheduler "iro0" with entities [FAN4 (ID: 16986817/0x010332C1), FAN4 (ID: 16986817/0x010332C1)], work=1328*
  4: 0x0111 [0x1C] WAIT(4* ticks)
  5: 0x0114 [0x1C] WAIT(3* ticks)
  6: 0x0117 [0x1C] WAIT(2* ticks)
  7: 0x011A [0x6E] FAN7 (ID: 16986818/0x010332C2) uses emote 8*
  8: 0x0121 [0x99] Wait for FAN7 (ID: 16986818/0x010332C2) animation to complete
  9: 0x0126 [0x1C] WAIT(5* ticks)
 10: 0x0129 [0x6E] FAN8 (ID: 16986819/0x010332C3) uses emote 11*
 11: 0x0130 [0x99] Wait for FAN8 (ID: 16986819/0x010332C3) animation to complete
 12: 0x0135 [0x00] END_REQSTACK()
```

### Event 65535.14

#### Metadata

| Field        | Value    |
|--------------|----------|
| Entrypoint   | 0x0136   |
| Data Size    | 37 bytes |
| Instructions | 7        |

```
      00 01 02 03 04 05 06 07  08 09 0A 0B 0C 0D 0E 0F
      -- -- -- -- -- -- -- --  -- -- -- -- -- -- -- --
0130:                   6E BD  32 03 01 22 80 99 BD 32        n.2.."...2
0140: 03 01 6E BE 32 03 01 21  80 99 BE 32 03 01 6E BF  ..n.2..!...2..n.
0150: 32 03 01 23 80 99 BF 32  03 01 00                 2..#...2...     
```

#### Opcodes

```
  0: 0x0136 [0x6E] Wajran (ID: 16986813/0x010332BD) uses emote 1*
  1: 0x013D [0x99] Wait for Wajran (ID: 16986813/0x010332BD) animation to complete
  2: 0x0142 [0x6E] PAKU02 (ID: 16986814/0x010332BE) uses emote 8*
  3: 0x0149 [0x99] Wait for PAKU02 (ID: 16986814/0x010332BE) animation to complete
  4: 0x014E [0x6E] PAKU03 (ID: 16986815/0x010332BF) uses emote 10*
  5: 0x0155 [0x99] Wait for PAKU03 (ID: 16986815/0x010332BF) animation to complete
  6: 0x015A [0x00] END_REQSTACK()
```

### Event 65535.15

#### Metadata

| Field        | Value    |
|--------------|----------|
| Entrypoint   | 0x015B   |
| Data Size    | 37 bytes |
| Instructions | 7        |

```
      00 01 02 03 04 05 06 07  08 09 0A 0B 0C 0D 0E 0F
      -- -- -- -- -- -- -- --  -- -- -- -- -- -- -- --
0150:                                   6E BD 32 03 01             n.2..
0160: 24 80 99 BD 32 03 01 6E  BE 32 03 01 24 80 99 BE  $...2..n.2..$...
0170: 32 03 01 6E BF 32 03 01  24 80 99 BF 32 03 01 00  2..n.2..$...2...
```

#### Opcodes

```
  0: 0x015B [0x6E] Wajran (ID: 16986813/0x010332BD) uses emote 65*
  1: 0x0162 [0x99] Wait for Wajran (ID: 16986813/0x010332BD) animation to complete
  2: 0x0167 [0x6E] PAKU02 (ID: 16986814/0x010332BE) uses emote 65*
  3: 0x016E [0x99] Wait for PAKU02 (ID: 16986814/0x010332BE) animation to complete
  4: 0x0173 [0x6E] PAKU03 (ID: 16986815/0x010332BF) uses emote 65*
  5: 0x017A [0x99] Wait for PAKU03 (ID: 16986815/0x010332BF) animation to complete
  6: 0x017F [0x00] END_REQSTACK()
```

### Event 65535.16

#### Metadata

| Field        | Value    |
|--------------|----------|
| Entrypoint   | 0x0180   |
| Data Size    | 15 bytes |
| Instructions | 5        |

```
      00 01 02 03 04 05 06 07  08 09 0A 0B 0C 0D 0E 0F
      -- -- -- -- -- -- -- --  -- -- -- -- -- -- -- --
0180: 32 25 80 1F 00 26 80 27  80 28 80 1F 01 6F 00     2%...&.'.(...o. 
```

#### Opcodes

```
  0: 0x0180 [0x32] ExtData[1]->MainSpeed = 40* * 0.1
  1: 0x0183 [0x1F] MOVE_ENTITY: EventEntity moves to X=-106.147*, Z=34.166*, Y=-5.999*
  2: 0x018B [0x1F] MOVE_ENTITY: Update entity position (mode=1)
  3: 0x018D [0x6F] WAIT_FRAME_DELAY: Yield until WaitTime reaches zero
  4: 0x018E [0x00] END_REQSTACK()
```

### Event 65535.17

#### Metadata

| Field        | Value   |
|--------------|---------|
| Entrypoint   | 0x018F  |
| Data Size    | 5 bytes |
| Instructions | 2       |

```
      00 01 02 03 04 05 06 07  08 09 0A 0B 0C 0D 0E 0F
      -- -- -- -- -- -- -- --  -- -- -- -- -- -- -- --
0180:                                               B6                 .
0190: 0A 24 80 00                                       .$..            
```

#### Opcodes

```
  0: 0x018F [0xB6] ENTITY_APPEARANCE_HANDLER(case=Ranged, value=65*)
  1: 0x0193 [0x00] END_REQSTACK()
```

### Event 65535.18

#### Metadata

| Field        | Value   |
|--------------|---------|
| Entrypoint   | 0x0194  |
| Data Size    | 5 bytes |
| Instructions | 2       |

```
      00 01 02 03 04 05 06 07  08 09 0A 0B 0C 0D 0E 0F
      -- -- -- -- -- -- -- --  -- -- -- -- -- -- -- --
0190:             B6 0A 29 80  00                           ..)..       
```

#### Opcodes

```
  0: 0x0194 [0xB6] ENTITY_APPEARANCE_HANDLER(case=Ranged, value=0*)
  1: 0x0198 [0x00] END_REQSTACK()
```

### Event 65535.19

#### Metadata

| Field        | Value   |
|--------------|---------|
| Entrypoint   | 0x0199  |
| Data Size    | 5 bytes |
| Instructions | 2       |

```
      00 01 02 03 04 05 06 07  08 09 0A 0B 0C 0D 0E 0F
      -- -- -- -- -- -- -- --  -- -- -- -- -- -- -- --
0190:                             B6 0A 2A 80 00                 ..*..  
```

#### Opcodes

```
  0: 0x0199 [0xB6] ENTITY_APPEARANCE_HANDLER(case=Ranged, value=75*)
  1: 0x019D [0x00] END_REQSTACK()
```

### Event 65535.20

#### Metadata

| Field        | Value   |
|--------------|---------|
| Entrypoint   | 0x019E  |
| Data Size    | 5 bytes |
| Instructions | 2       |

```
      00 01 02 03 04 05 06 07  08 09 0A 0B 0C 0D 0E 0F
      -- -- -- -- -- -- -- --  -- -- -- -- -- -- -- --
0190:                                            B6 0A                ..
01A0: 29 80 00                                          )..             
```

#### Opcodes

```
  0: 0x019E [0xB6] ENTITY_APPEARANCE_HANDLER(case=Ranged, value=0*)
  1: 0x01A2 [0x00] END_REQSTACK()
```

### Event 65535.21

#### Metadata

| Field        | Value    |
|--------------|----------|
| Entrypoint   | 0x01A3   |
| Data Size    | 27 bytes |
| Instructions | 7        |

```
      00 01 02 03 04 05 06 07  08 09 0A 0B 0C 0D 0E 0F
      -- -- -- -- -- -- -- --  -- -- -- -- -- -- -- --
01A0:          1F 00 2B 80 2C  80 29 80 1F 01 6F 4A BB     ..+.,.)...oJ.
01B0: 32 03 01 3B 32 03 01 6F  76 BB 32 03 01 00        2..;2..ov.2...  
```

#### Opcodes

```
  0: 0x01A3 [0x1F] MOVE_ENTITY: EventEntity moves to X=-5.700*, Z=-28.344*, Y=0.000*
  1: 0x01AB [0x1F] MOVE_ENTITY: Update entity position (mode=1)
  2: 0x01AD [0x6F] WAIT_FRAME_DELAY: Yield until WaitTime reaches zero
  3: 0x01AE [0x4A] Najelith (ID: 16986811/0x010332BB) looks at Rughadjeen (ID: 16986683/0x0103323B)
  4: 0x01B7 [0x6F] WAIT_FRAME_DELAY: Yield until WaitTime reaches zero
  5: 0x01B8 [0x76] CHECK_ENTITY_RENDER_FLAGS: Wait until Najelith (ID: 16986811/0x010332BB) Render.Flags0 and Render.Flags3 conditions are met
  6: 0x01BD [0x00] END_REQSTACK()
```

### Event 65535.22

#### Metadata

| Field        | Value    |
|--------------|----------|
| Entrypoint   | 0x01BE   |
| Data Size    | 27 bytes |
| Instructions | 7        |

```
      00 01 02 03 04 05 06 07  08 09 0A 0B 0C 0D 0E 0F
      -- -- -- -- -- -- -- --  -- -- -- -- -- -- -- --
01B0:                                            1F 00                ..
01C0: 2D 80 2E 80 29 80 1F 01  6F 4A 3B 32 03 01 BB 32  -...)...oJ;2...2
01D0: 03 01 6F 76 3B 32 03 01  00                       ..ov;2...       
```

#### Opcodes

```
  0: 0x01BE [0x1F] MOVE_ENTITY: EventEntity moves to X=-3.756*, Z=-27.826*, Y=0.000*
  1: 0x01C6 [0x1F] MOVE_ENTITY: Update entity position (mode=1)
  2: 0x01C8 [0x6F] WAIT_FRAME_DELAY: Yield until WaitTime reaches zero
  3: 0x01C9 [0x4A] Rughadjeen (ID: 16986683/0x0103323B) looks at Najelith (ID: 16986811/0x010332BB)
  4: 0x01D2 [0x6F] WAIT_FRAME_DELAY: Yield until WaitTime reaches zero
  5: 0x01D3 [0x76] CHECK_ENTITY_RENDER_FLAGS: Wait until Rughadjeen (ID: 16986683/0x0103323B) Render.Flags0 and Render.Flags3 conditions are met
  6: 0x01D8 [0x00] END_REQSTACK()
```

### Event 65535.23

#### Metadata

| Field        | Value    |
|--------------|----------|
| Entrypoint   | 0x01D9   |
| Data Size    | 40 bytes |
| Instructions | 6        |

```
      00 01 02 03 04 05 06 07  08 09 0A 0B 0C 0D 0E 0F
      -- -- -- -- -- -- -- --  -- -- -- -- -- -- -- --
01D0:                             1F 00 2F 80 30 80 29           ../.0.)
01E0: 80 1F 01 6F 66 31 80 3B  32 03 01 3B 32 03 01 73  ...of1.;2..;2..s
01F0: 68 61 30 53 3B 32 03 01  3B 32 03 01 73 68 61 30  ha0S;2..;2..sha0
0200: 00                                                .               
```

#### Opcodes

```
  0: 0x01D9 [0x1F] MOVE_ENTITY: EventEntity moves to X=-2.438*, Z=-27.426*, Y=0.000*
  1: 0x01E1 [0x1F] MOVE_ENTITY: Update entity position (mode=1)
  2: 0x01E3 [0x6F] WAIT_FRAME_DELAY: Yield until WaitTime reaches zero
  3: 0x01E4 [0x66] LOAD_EXT_SCHEDULER_MAIN: Load scheduler "sha0" with entities [Rughadjeen (ID: 16986683/0x0103323B), Rughadjeen (ID: 16986683/0x0103323B)], work=29*
  4: 0x01F3 [0x53] WAIT_SCHEDULER_TASK: Wait for scheduler "sha0" with entities [Rughadjeen (ID: 16986683/0x0103323B), Rughadjeen (ID: 16986683/0x0103323B)]
  5: 0x0200 [0x00] END_REQSTACK()
```

### Event 65535.24

#### Metadata

| Field        | Value    |
|--------------|----------|
| Entrypoint   | 0x0201   |
| Data Size    | 19 bytes |
| Instructions | 3        |

```
      00 01 02 03 04 05 06 07  08 09 0A 0B 0C 0D 0E 0F
      -- -- -- -- -- -- -- --  -- -- -- -- -- -- -- --
0200:    1C 32 80 66 33 80 9E  32 03 01 9E 32 03 01 62   .2.f3..2...2..b
0210: 73 6B 30 00                                       sk0.            
```

#### Opcodes

```
  0: 0x0201 [0x1C] WAIT(45* ticks)
  1: 0x0204 [0x66] LOAD_EXT_SCHEDULER_MAIN: Load scheduler "bsk0" with entities [Fari-Wari (ID: 16986782/0x0103329E), Fari-Wari (ID: 16986782/0x0103329E)], work=42*
  2: 0x0213 [0x00] END_REQSTACK()
```

### Event 65535.25

#### Metadata

| Field        | Value    |
|--------------|----------|
| Entrypoint   | 0x0214   |
| Data Size    | 24 bytes |
| Instructions | 6        |

```
      00 01 02 03 04 05 06 07  08 09 0A 0B 0C 0D 0E 0F
      -- -- -- -- -- -- -- --  -- -- -- -- -- -- -- --
0210:             32 25 80 1F  00 34 80 35 80 28 80 1F      2%...4.5.(..
0220: 01 6F 4A 9E 32 03 01 CC  32 03 01 00              .oJ.2...2...    
```

#### Opcodes

```
  0: 0x0214 [0x32] ExtData[1]->MainSpeed = 40* * 0.1
  1: 0x0217 [0x1F] MOVE_ENTITY: EventEntity moves to X=86.503*, Z=-129.792*, Y=-5.999*
  2: 0x021F [0x1F] MOVE_ENTITY: Update entity position (mode=1)
  3: 0x0221 [0x6F] WAIT_FRAME_DELAY: Yield until WaitTime reaches zero
  4: 0x0222 [0x4A] Fari-Wari (ID: 16986782/0x0103329E) looks at Wajran (ID: 16986828/0x010332CC)
  5: 0x022B [0x00] END_REQSTACK()
```
