# 16986683 - Rughadjeen

## Common Data

| Field            | Value                     |
|------------------|---------------------------|
| Zone             | Wajaom Woodlands (ID: 51) |
| Block Size       | 1088 bytes                |
| Total Events     | 37                        |
| References Count | 66                        |

## List of Events

| Event ID                   | Entrypoint   |   Size |   Instructions |
|----------------------------|--------------|--------|----------------|
| [65535](#event-65535)      | 0x0000       |      1 |              1 |
| [512](#event-512)          | 0x0001       |      1 |              1 |
| [65535.1](#event-655351)   | 0x0002       |     14 |              3 |
| [65535.2](#event-655352)   | 0x0010       |     29 |              7 |
| [65535.3](#event-655353)   | 0x002D       |     14 |              3 |
| [511](#event-511)          | 0x003B       |      1 |              1 |
| [65535.4](#event-655354)   | 0x003C       |     20 |              6 |
| [65535.5](#event-655355)   | 0x0050       |     20 |              6 |
| [65535.6](#event-655356)   | 0x0064       |      4 |              2 |
| [12](#event-12)            | 0x0068       |      1 |              1 |
| [13](#event-13)            | 0x0069       |      1 |              1 |
| [18](#event-18)            | 0x006A       |      1 |              1 |
| [65535.7](#event-655357)   | 0x006B       |     19 |              4 |
| [65535.8](#event-655358)   | 0x007E       |     19 |              4 |
| [65535.9](#event-655359)   | 0x0091       |     19 |              4 |
| [65535.10](#event-6553510) | 0x00A4       |     19 |              4 |
| [65535.11](#event-6553511) | 0x00B7       |     19 |              4 |
| [65535.12](#event-6553512) | 0x00CA       |     13 |              3 |
| [65535.13](#event-6553513) | 0x00D7       |     19 |              4 |
| [65535.14](#event-6553514) | 0x00EA       |     19 |              4 |
| [65535.15](#event-6553515) | 0x00FD       |     19 |              4 |
| [65535.16](#event-6553516) | 0x0110       |     28 |              7 |
| [65535.17](#event-6553517) | 0x012C       |     11 |              3 |
| [65535.18](#event-6553518) | 0x0137       |     34 |              8 |
| [65535.19](#event-6553519) | 0x0159       |     67 |             13 |
| [65535.20](#event-6553520) | 0x019C       |     37 |              7 |
| [65535.21](#event-6553521) | 0x01C1       |     37 |              7 |
| [65535.22](#event-6553522) | 0x01E6       |     15 |              5 |
| [65535.23](#event-6553523) | 0x01F5       |      5 |              2 |
| [65535.24](#event-6553524) | 0x01FA       |      5 |              2 |
| [65535.25](#event-6553525) | 0x01FF       |      5 |              2 |
| [65535.26](#event-6553526) | 0x0204       |      5 |              2 |
| [65535.27](#event-6553527) | 0x0209       |     27 |              7 |
| [65535.28](#event-6553528) | 0x0224       |     27 |              7 |
| [65535.29](#event-6553529) | 0x023F       |     40 |              6 |
| [65535.30](#event-6553530) | 0x0267       |     19 |              3 |
| [65535.31](#event-6553531) | 0x027A       |     24 |              6 |

## DAT References (imed_data)

|   Index | Hex Value   |   Dec Value |
|---------|-------------|-------------|
|       0 | 0x0000      |           0 |
|       1 | 0xBA41      |       47681 |
|       2 | 0x0417      |        1047 |
|       3 | 0x001F      |          31 |
|       4 | 0x1062      |        4194 |
|       5 | 0xBCA7      |       48295 |
|       6 | 0x000D      |          13 |
|       7 | 0xBF28      |       48936 |
|       8 | 0xFFF750D4  |  4294398164 |
|       9 | 0xB9D1      |       47569 |
|      10 | 0x07CF      |        1999 |
|      11 | 0x0028      |          40 |
|      12 | 0x365A      |       13914 |
|      13 | 0xFFFE9B47  |  4294875975 |
|      14 | 0x0DEC      |        3564 |
|      15 | 0x0027      |          39 |
|      16 | 0x138CF     |       80079 |
|      17 | 0xFFFDF22F  |  4294832687 |
|      18 | 0xFFFFE890  |  4294961296 |
|      19 | 0x14661     |       83553 |
|      20 | 0xFFFE030D  |  4294837005 |
|      21 | 0x0025      |          37 |
|      22 | 0x148F7     |       84215 |
|      23 | 0xFFFE0A93  |  4294838931 |
|      24 | 0x13583     |       79235 |
|      25 | 0xFFFDEB63  |  4294830947 |
|      26 | 0x13A07     |       80391 |
|      27 | 0xFFFDE965  |  4294830437 |
|      28 | 0x0026      |          38 |
|      29 | 0x000F      |          15 |
|      30 | 0x13A8E     |       80526 |
|      31 | 0xFFFDF578  |  4294833528 |
|      32 | 0x000B      |          11 |
|      33 | 0x13B2A     |       80682 |
|      34 | 0xFFFE06AB  |  4294837931 |
|      35 | 0xFFFE2203  |  4294844931 |
|      36 | 0x13359     |       78681 |
|      37 | 0xFFFDFA56  |  4294834774 |
|      38 | 0x001E      |          30 |
|      39 | 0x02A8      |         680 |
|      40 | 0x13332     |       78642 |
|      41 | 0xFFFE2D9D  |  4294847901 |
|      42 | 0x0003      |           3 |
|      43 | 0x0002      |           2 |
|      44 | 0x0005      |           5 |
|      45 | 0x0530      |        1328 |
|      46 | 0x0004      |           4 |
|      47 | 0x0008      |           8 |
|      48 | 0x0001      |           1 |
|      49 | 0x000A      |          10 |
|      50 | 0x0041      |          65 |
|      51 | 0xFFFE615D  |  4294861149 |
|      52 | 0x8576      |       34166 |
|      53 | 0xFFFFE891  |  4294961297 |
|      54 | 0x004B      |          75 |
|      55 | 0xFFFFE9BC  |  4294961596 |
|      56 | 0xFFFF9148  |  4294938952 |
|      57 | 0xFFFFF154  |  4294963540 |
|      58 | 0xFFFF934E  |  4294939470 |
|      59 | 0xFFFFF67A  |  4294964858 |
|      60 | 0xFFFF94DE  |  4294939870 |
|      61 | 0x001D      |          29 |
|      62 | 0x002D      |          45 |
|      63 | 0x002A      |          42 |
|      64 | 0x151E7     |       86503 |
|      65 | 0xFFFE0500  |  4294837504 |

## Events

### Event 65535

#### Metadata

| Field        | Value   |
|--------------|---------|
| Entrypoint   | 0x0000  |
| Data Size    | 1 bytes |
| Instructions | 1       |

```
      00 01 02 03 04 05 06 07  08 09 0A 0B 0C 0D 0E 0F
      -- -- -- -- -- -- -- --  -- -- -- -- -- -- -- --
0000: 00                                                .               
```

#### Opcodes

```
  0: 0x0000 [0x00] END_REQSTACK()
```

### Event 512

#### Metadata

| Field        | Value   |
|--------------|---------|
| Entrypoint   | 0x0001  |
| Data Size    | 1 bytes |
| Instructions | 1       |

```
      00 01 02 03 04 05 06 07  08 09 0A 0B 0C 0D 0E 0F
      -- -- -- -- -- -- -- --  -- -- -- -- -- -- -- --
0000:    00                                              .              
```

#### Opcodes

```
  0: 0x0001 [0x00] END_REQSTACK()
```

### Event 65535.1

#### Metadata

| Field        | Value    |
|--------------|----------|
| Entrypoint   | 0x0002   |
| Data Size    | 14 bytes |
| Instructions | 3        |

```
      00 01 02 03 04 05 06 07  08 09 0A 0B 0C 0D 0E 0F
      -- -- -- -- -- -- -- --  -- -- -- -- -- -- -- --
0000:       37 00 80 01 80 00  80 02 80 B6 0A 03 80 00    7.............
```

#### Opcodes

```
  0: 0x0002 [0x37] UPDATE_EVENT_POSITION_AND_DIR: x=0.000*, z=47.681*, y=0.000*, direction=92.0°*
  1: 0x000B [0xB6] ENTITY_APPEARANCE_HANDLER(case=Ranged, value=31*)
  2: 0x000F [0x00] END_REQSTACK()
```

### Event 65535.2

#### Metadata

| Field        | Value    |
|--------------|----------|
| Entrypoint   | 0x0010   |
| Data Size    | 29 bytes |
| Instructions | 7        |

```
      00 01 02 03 04 05 06 07  08 09 0A 0B 0C 0D 0E 0F
      -- -- -- -- -- -- -- --  -- -- -- -- -- -- -- --
0010: 37 04 80 05 80 00 80 02  80 32 06 80 1F 00 00 80  7........2......
0020: 01 80 00 80 1F 01 6F 1E  2E 32 03 01 00           ......o..2...   
```

#### Opcodes

```
  0: 0x0010 [0x37] UPDATE_EVENT_POSITION_AND_DIR: x=4.194*, z=48.295*, y=0.000*, direction=92.0°*
  1: 0x0019 [0x32] ExtData[1]->MainSpeed = 13* * 0.1
  2: 0x001C [0x1F] MOVE_ENTITY: EventEntity moves to X=0.000*, Z=47.681*, Y=0.000*
  3: 0x0024 [0x1F] MOVE_ENTITY: Update entity position (mode=1)
  4: 0x0026 [0x6F] WAIT_FRAME_DELAY: Yield until WaitTime reaches zero
  5: 0x0027 [0x1E] EventEntity looks at Najelith (ID: 16986670/0x0103322E) and starts talking
  6: 0x002C [0x00] END_REQSTACK()
```

### Event 65535.3

#### Metadata

| Field        | Value    |
|--------------|----------|
| Entrypoint   | 0x002D   |
| Data Size    | 14 bytes |
| Instructions | 3        |

```
      00 01 02 03 04 05 06 07  08 09 0A 0B 0C 0D 0E 0F
      -- -- -- -- -- -- -- --  -- -- -- -- -- -- -- --
0020:                                         37 00 80               7..
0030: 07 80 00 80 02 80 B6 0A  03 80 00                 ...........     
```

#### Opcodes

```
  0: 0x002D [0x37] UPDATE_EVENT_POSITION_AND_DIR: x=0.000*, z=48.936*, y=0.000*, direction=92.0°*
  1: 0x0036 [0xB6] ENTITY_APPEARANCE_HANDLER(case=Ranged, value=31*)
  2: 0x003A [0x00] END_REQSTACK()
```

### Event 511

#### Metadata

| Field        | Value   |
|--------------|---------|
| Entrypoint   | 0x003B  |
| Data Size    | 1 bytes |
| Instructions | 1       |

```
      00 01 02 03 04 05 06 07  08 09 0A 0B 0C 0D 0E 0F
      -- -- -- -- -- -- -- --  -- -- -- -- -- -- -- --
0030:                                   00                         .    
```

#### Opcodes

```
  0: 0x003B [0x00] END_REQSTACK()
```

### Event 65535.4

#### Metadata

| Field        | Value    |
|--------------|----------|
| Entrypoint   | 0x003C   |
| Data Size    | 20 bytes |
| Instructions | 6        |

```
      00 01 02 03 04 05 06 07  08 09 0A 0B 0C 0D 0E 0F
      -- -- -- -- -- -- -- --  -- -- -- -- -- -- -- --
0030:                                      32 06 80 1F              2...
0040: 00 08 80 09 80 0A 80 1F  01 6F 1E 30 32 03 01 00  .........o.02...
```

#### Opcodes

```
  0: 0x003C [0x32] ExtData[1]->MainSpeed = 13* * 0.1
  1: 0x003F [0x1F] MOVE_ENTITY: EventEntity moves to X=-569.132*, Z=47.569*, Y=1.999*
  2: 0x0047 [0x1F] MOVE_ENTITY: Update entity position (mode=1)
  3: 0x0049 [0x6F] WAIT_FRAME_DELAY: Yield until WaitTime reaches zero
  4: 0x004A [0x1E] EventEntity looks at Zazarg (ID: 16986672/0x01033230) and starts talking
  5: 0x004F [0x00] END_REQSTACK()
```

### Event 65535.5

#### Metadata

| Field        | Value    |
|--------------|----------|
| Entrypoint   | 0x0050   |
| Data Size    | 20 bytes |
| Instructions | 6        |

```
      00 01 02 03 04 05 06 07  08 09 0A 0B 0C 0D 0E 0F
      -- -- -- -- -- -- -- --  -- -- -- -- -- -- -- --
0050: 32 0B 80 1F 00 0C 80 0D  80 00 80 1F 01 6F 1E 30  2............o.0
0060: 32 03 01 00                                       2...            
```

#### Opcodes

```
  0: 0x0050 [0x32] ExtData[1]->MainSpeed = 40* * 0.1
  1: 0x0053 [0x1F] MOVE_ENTITY: EventEntity moves to X=13.914*, Z=-91.321*, Y=0.000*
  2: 0x005B [0x1F] MOVE_ENTITY: Update entity position (mode=1)
  3: 0x005D [0x6F] WAIT_FRAME_DELAY: Yield until WaitTime reaches zero
  4: 0x005E [0x1E] EventEntity looks at Zazarg (ID: 16986672/0x01033230) and starts talking
  5: 0x0063 [0x00] END_REQSTACK()
```

### Event 65535.6

#### Metadata

| Field        | Value   |
|--------------|---------|
| Entrypoint   | 0x0064  |
| Data Size    | 4 bytes |
| Instructions | 2       |

```
      00 01 02 03 04 05 06 07  08 09 0A 0B 0C 0D 0E 0F
      -- -- -- -- -- -- -- --  -- -- -- -- -- -- -- --
0060:             39 0E 80 00                               9...        
```

#### Opcodes

```
  0: 0x0064 [0x39] SET_ENTITY_DIRECTION(direction=19.6°*)
  1: 0x0067 [0x00] END_REQSTACK()
```

### Event 12

#### Metadata

| Field        | Value   |
|--------------|---------|
| Entrypoint   | 0x0068  |
| Data Size    | 1 bytes |
| Instructions | 1       |

```
      00 01 02 03 04 05 06 07  08 09 0A 0B 0C 0D 0E 0F
      -- -- -- -- -- -- -- --  -- -- -- -- -- -- -- --
0060:                          00                               .       
```

#### Opcodes

```
  0: 0x0068 [0x00] END_REQSTACK()
```

### Event 13

#### Metadata

| Field        | Value   |
|--------------|---------|
| Entrypoint   | 0x0069  |
| Data Size    | 1 bytes |
| Instructions | 1       |

```
      00 01 02 03 04 05 06 07  08 09 0A 0B 0C 0D 0E 0F
      -- -- -- -- -- -- -- --  -- -- -- -- -- -- -- --
0060:                             00                             .      
```

#### Opcodes

```
  0: 0x0069 [0x00] END_REQSTACK()
```

### Event 18

#### Metadata

| Field        | Value   |
|--------------|---------|
| Entrypoint   | 0x006A  |
| Data Size    | 1 bytes |
| Instructions | 1       |

```
      00 01 02 03 04 05 06 07  08 09 0A 0B 0C 0D 0E 0F
      -- -- -- -- -- -- -- --  -- -- -- -- -- -- -- --
0060:                                00                           .     
```

#### Opcodes

```
  0: 0x006A [0x00] END_REQSTACK()
```

### Event 65535.7

#### Metadata

| Field        | Value    |
|--------------|----------|
| Entrypoint   | 0x006B   |
| Data Size    | 19 bytes |
| Instructions | 4        |

```
      00 01 02 03 04 05 06 07  08 09 0A 0B 0C 0D 0E 0F
      -- -- -- -- -- -- -- --  -- -- -- -- -- -- -- --
0060:                                   59 04 C5 32 03             Y..2.
0070: 01 0F 80 1F 00 10 80 11  80 12 80 1F 01 00        ..............  
```

#### Opcodes

```
  0: 0x006B [0x59] UPDATE_ENTITY_DATA: Set Shayadar (ID: 16986821/0x010332C5) main speed = 39* * 0.1
  1: 0x0073 [0x1F] MOVE_ENTITY: EventEntity moves to X=80.079*, Z=-134.609*, Y=-6.000*
  2: 0x007B [0x1F] MOVE_ENTITY: Update entity position (mode=1)
  3: 0x007D [0x00] END_REQSTACK()
```

### Event 65535.8

#### Metadata

| Field        | Value    |
|--------------|----------|
| Entrypoint   | 0x007E   |
| Data Size    | 19 bytes |
| Instructions | 4        |

```
      00 01 02 03 04 05 06 07  08 09 0A 0B 0C 0D 0E 0F
      -- -- -- -- -- -- -- --  -- -- -- -- -- -- -- --
0070:                                            59 04                Y.
0080: C5 32 03 01 06 80 1F 00  13 80 14 80 12 80 1F 01  .2..............
0090: 00                                                .               
```

#### Opcodes

```
  0: 0x007E [0x59] UPDATE_ENTITY_DATA: Set Shayadar (ID: 16986821/0x010332C5) main speed = 13* * 0.1
  1: 0x0086 [0x1F] MOVE_ENTITY: EventEntity moves to X=83.553*, Z=-130.291*, Y=-6.000*
  2: 0x008E [0x1F] MOVE_ENTITY: Update entity position (mode=1)
  3: 0x0090 [0x00] END_REQSTACK()
```

### Event 65535.9

#### Metadata

| Field        | Value    |
|--------------|----------|
| Entrypoint   | 0x0091   |
| Data Size    | 19 bytes |
| Instructions | 4        |

```
      00 01 02 03 04 05 06 07  08 09 0A 0B 0C 0D 0E 0F
      -- -- -- -- -- -- -- --  -- -- -- -- -- -- -- --
0090:    59 04 9E 32 03 01 15  80 1F 00 16 80 17 80 12   Y..2...........
00A0: 80 1F 01 00                                       ....            
```

#### Opcodes

```
  0: 0x0091 [0x59] UPDATE_ENTITY_DATA: Set Fari-Wari (ID: 16986782/0x0103329E) main speed = 37* * 0.1
  1: 0x0099 [0x1F] MOVE_ENTITY: EventEntity moves to X=84.215*, Z=-128.365*, Y=-6.000*
  2: 0x00A1 [0x1F] MOVE_ENTITY: Update entity position (mode=1)
  3: 0x00A3 [0x00] END_REQSTACK()
```

### Event 65535.10

#### Metadata

| Field        | Value    |
|--------------|----------|
| Entrypoint   | 0x00A4   |
| Data Size    | 19 bytes |
| Instructions | 4        |

```
      00 01 02 03 04 05 06 07  08 09 0A 0B 0C 0D 0E 0F
      -- -- -- -- -- -- -- --  -- -- -- -- -- -- -- --
00A0:             59 04 9E 32  03 01 06 80 1F 00 18 80      Y..2........
00B0: 19 80 12 80 1F 01 00                              .......         
```

#### Opcodes

```
  0: 0x00A4 [0x59] UPDATE_ENTITY_DATA: Set Fari-Wari (ID: 16986782/0x0103329E) main speed = 13* * 0.1
  1: 0x00AC [0x1F] MOVE_ENTITY: EventEntity moves to X=79.235*, Z=-136.349*, Y=-6.000*
  2: 0x00B4 [0x1F] MOVE_ENTITY: Update entity position (mode=1)
  3: 0x00B6 [0x00] END_REQSTACK()
```

### Event 65535.11

#### Metadata

| Field        | Value    |
|--------------|----------|
| Entrypoint   | 0x00B7   |
| Data Size    | 19 bytes |
| Instructions | 4        |

```
      00 01 02 03 04 05 06 07  08 09 0A 0B 0C 0D 0E 0F
      -- -- -- -- -- -- -- --  -- -- -- -- -- -- -- --
00B0:                      59  04 9E 32 03 01 06 80 1F         Y..2.....
00C0: 00 1A 80 1B 80 12 80 1F  01 00                    ..........      
```

#### Opcodes

```
  0: 0x00B7 [0x59] UPDATE_ENTITY_DATA: Set Fari-Wari (ID: 16986782/0x0103329E) main speed = 13* * 0.1
  1: 0x00BF [0x1F] MOVE_ENTITY: EventEntity moves to X=80.391*, Z=-136.859*, Y=-6.000*
  2: 0x00C7 [0x1F] MOVE_ENTITY: Update entity position (mode=1)
  3: 0x00C9 [0x00] END_REQSTACK()
```

### Event 65535.12

#### Metadata

| Field        | Value    |
|--------------|----------|
| Entrypoint   | 0x00CA   |
| Data Size    | 13 bytes |
| Instructions | 3        |

```
      00 01 02 03 04 05 06 07  08 09 0A 0B 0C 0D 0E 0F
      -- -- -- -- -- -- -- --  -- -- -- -- -- -- -- --
00C0:                                6E 9E 32 03 01 1C            n.2...
00D0: 80 99 9E 32 03 01 00                              ...2...         
```

#### Opcodes

```
  0: 0x00CA [0x6E] Fari-Wari (ID: 16986782/0x0103329E) uses emote 38*
  1: 0x00D1 [0x99] Wait for Fari-Wari (ID: 16986782/0x0103329E) animation to complete
  2: 0x00D6 [0x00] END_REQSTACK()
```

### Event 65535.13

#### Metadata

| Field        | Value    |
|--------------|----------|
| Entrypoint   | 0x00D7   |
| Data Size    | 19 bytes |
| Instructions | 4        |

```
      00 01 02 03 04 05 06 07  08 09 0A 0B 0C 0D 0E 0F
      -- -- -- -- -- -- -- --  -- -- -- -- -- -- -- --
00D0:                      59  04 BC 32 03 01 1D 80 1F         Y..2.....
00E0: 00 1E 80 1F 80 12 80 1F  01 00                    ..........      
```

#### Opcodes

```
  0: 0x00D7 [0x59] UPDATE_ENTITY_DATA: Set Gadalar (ID: 16986812/0x010332BC) main speed = 15* * 0.1
  1: 0x00DF [0x1F] MOVE_ENTITY: EventEntity moves to X=80.526*, Z=-133.768*, Y=-6.000*
  2: 0x00E7 [0x1F] MOVE_ENTITY: Update entity position (mode=1)
  3: 0x00E9 [0x00] END_REQSTACK()
```

### Event 65535.14

#### Metadata

| Field        | Value    |
|--------------|----------|
| Entrypoint   | 0x00EA   |
| Data Size    | 19 bytes |
| Instructions | 4        |

```
      00 01 02 03 04 05 06 07  08 09 0A 0B 0C 0D 0E 0F
      -- -- -- -- -- -- -- --  -- -- -- -- -- -- -- --
00E0:                                59 04 BC 32 03 01            Y..2..
00F0: 20 80 1F 00 21 80 22 80  12 80 1F 01 00            ...!."......   
```

#### Opcodes

```
  0: 0x00EA [0x59] UPDATE_ENTITY_DATA: Set Gadalar (ID: 16986812/0x010332BC) main speed = 11* * 0.1
  1: 0x00F2 [0x1F] MOVE_ENTITY: EventEntity moves to X=80.682*, Z=-129.365*, Y=-6.000*
  2: 0x00FA [0x1F] MOVE_ENTITY: Update entity position (mode=1)
  3: 0x00FC [0x00] END_REQSTACK()
```

### Event 65535.15

#### Metadata

| Field        | Value    |
|--------------|----------|
| Entrypoint   | 0x00FD   |
| Data Size    | 19 bytes |
| Instructions | 4        |

```
      00 01 02 03 04 05 06 07  08 09 0A 0B 0C 0D 0E 0F
      -- -- -- -- -- -- -- --  -- -- -- -- -- -- -- --
00F0:                                         59 04 BC               Y..
0100: 32 03 01 20 80 1F 00 21  80 23 80 12 80 1F 01 00  2.. ...!.#......
```

#### Opcodes

```
  0: 0x00FD [0x59] UPDATE_ENTITY_DATA: Set Gadalar (ID: 16986812/0x010332BC) main speed = 11* * 0.1
  1: 0x0105 [0x1F] MOVE_ENTITY: EventEntity moves to X=80.682*, Z=-122.365*, Y=-6.000*
  2: 0x010D [0x1F] MOVE_ENTITY: Update entity position (mode=1)
  3: 0x010F [0x00] END_REQSTACK()
```

### Event 65535.16

#### Metadata

| Field        | Value    |
|--------------|----------|
| Entrypoint   | 0x0110   |
| Data Size    | 28 bytes |
| Instructions | 7        |

```
      00 01 02 03 04 05 06 07  08 09 0A 0B 0C 0D 0E 0F
      -- -- -- -- -- -- -- --  -- -- -- -- -- -- -- --
0110: 1F 00 24 80 25 80 12 80  1F 01 6F 79 00 C5 32 03  ..$.%.....oy..2.
0120: 01 9E 32 03 01 1C 26 80  39 27 80 00              ..2...&.9'..    
```

#### Opcodes

```
  0: 0x0110 [0x1F] MOVE_ENTITY: EventEntity moves to X=78.681*, Z=-132.522*, Y=-6.000*
  1: 0x0118 [0x1F] MOVE_ENTITY: Update entity position (mode=1)
  2: 0x011A [0x6F] WAIT_FRAME_DELAY: Yield until WaitTime reaches zero
  3: 0x011B [0x79] Shayadar (ID: 16986821/0x010332C5) looks at Fari-Wari (ID: 16986782/0x0103329E) (Basic look)
  4: 0x0125 [0x1C] WAIT(30* ticks)
  5: 0x0128 [0x39] SET_ENTITY_DIRECTION(direction=3.7°*)
  6: 0x012B [0x00] END_REQSTACK()
```

### Event 65535.17

#### Metadata

| Field        | Value    |
|--------------|----------|
| Entrypoint   | 0x012C   |
| Data Size    | 11 bytes |
| Instructions | 3        |

```
      00 01 02 03 04 05 06 07  08 09 0A 0B 0C 0D 0E 0F
      -- -- -- -- -- -- -- --  -- -- -- -- -- -- -- --
0120:                                      1F 00 28 80              ..(.
0130: 29 80 12 80 1F 01 00                              )......         
```

#### Opcodes

```
  0: 0x012C [0x1F] MOVE_ENTITY: EventEntity moves to X=78.642*, Z=-119.395*, Y=-6.000*
  1: 0x0134 [0x1F] MOVE_ENTITY: Update entity position (mode=1)
  2: 0x0136 [0x00] END_REQSTACK()
```

### Event 65535.18

#### Metadata

| Field        | Value    |
|--------------|----------|
| Entrypoint   | 0x0137   |
| Data Size    | 34 bytes |
| Instructions | 8        |

```
      00 01 02 03 04 05 06 07  08 09 0A 0B 0C 0D 0E 0F
      -- -- -- -- -- -- -- --  -- -- -- -- -- -- -- --
0130:                      1C  2A 80 1C 2B 80 6E C2 32         .*..+.n.2
0140: 03 01 20 80 99 C2 32 03  01 1C 2C 80 6E C3 32 03  .. ...2...,.n.2.
0150: 01 06 80 99 C3 32 03 01  00                       .....2...       
```

#### Opcodes

```
  0: 0x0137 [0x1C] WAIT(3* ticks)
  1: 0x013A [0x1C] WAIT(2* ticks)
  2: 0x013D [0x6E] FAN7 (ID: 16986818/0x010332C2) uses emote 11*
  3: 0x0144 [0x99] Wait for FAN7 (ID: 16986818/0x010332C2) animation to complete
  4: 0x0149 [0x1C] WAIT(5* ticks)
  5: 0x014C [0x6E] FAN8 (ID: 16986819/0x010332C3) uses emote 13*
  6: 0x0153 [0x99] Wait for FAN8 (ID: 16986819/0x010332C3) animation to complete
  7: 0x0158 [0x00] END_REQSTACK()
```

### Event 65535.19

#### Metadata

| Field        | Value    |
|--------------|----------|
| Entrypoint   | 0x0159   |
| Data Size    | 67 bytes |
| Instructions | 13       |

```
      00 01 02 03 04 05 06 07  08 09 0A 0B 0C 0D 0E 0F
      -- -- -- -- -- -- -- --  -- -- -- -- -- -- -- --
0150:                             6E C0 32 03 01 20 80           n.2.. .
0160: 99 C0 32 03 01 1C 2A 80  5B 2D 80 C1 32 03 01 C1  ..2...*.[-..2...
0170: 32 03 01 69 72 6F 30 1C  2E 80 1C 2A 80 1C 2B 80  2..iro0....*..+.
0180: 6E C2 32 03 01 2F 80 99  C2 32 03 01 1C 2C 80 6E  n.2../...2...,.n
0190: C3 32 03 01 20 80 99 C3  32 03 01 00              .2.. ...2...    
```

#### Opcodes

```
  0: 0x0159 [0x6E] FAN3 (ID: 16986816/0x010332C0) uses emote 11*
  1: 0x0160 [0x99] Wait for FAN3 (ID: 16986816/0x010332C0) animation to complete
  2: 0x0165 [0x1C] WAIT(3* ticks)
  3: 0x0168 [0x5B] LOAD_EXT_SCHEDULER: Load scheduler "iro0" with entities [FAN4 (ID: 16986817/0x010332C1), FAN4 (ID: 16986817/0x010332C1)], work=1328*
  4: 0x0177 [0x1C] WAIT(4* ticks)
  5: 0x017A [0x1C] WAIT(3* ticks)
  6: 0x017D [0x1C] WAIT(2* ticks)
  7: 0x0180 [0x6E] FAN7 (ID: 16986818/0x010332C2) uses emote 8*
  8: 0x0187 [0x99] Wait for FAN7 (ID: 16986818/0x010332C2) animation to complete
  9: 0x018C [0x1C] WAIT(5* ticks)
 10: 0x018F [0x6E] FAN8 (ID: 16986819/0x010332C3) uses emote 11*
 11: 0x0196 [0x99] Wait for FAN8 (ID: 16986819/0x010332C3) animation to complete
 12: 0x019B [0x00] END_REQSTACK()
```

### Event 65535.20

#### Metadata

| Field        | Value    |
|--------------|----------|
| Entrypoint   | 0x019C   |
| Data Size    | 37 bytes |
| Instructions | 7        |

```
      00 01 02 03 04 05 06 07  08 09 0A 0B 0C 0D 0E 0F
      -- -- -- -- -- -- -- --  -- -- -- -- -- -- -- --
0190:                                      6E BD 32 03              n.2.
01A0: 01 30 80 99 BD 32 03 01  6E BE 32 03 01 2F 80 99  .0...2..n.2../..
01B0: BE 32 03 01 6E BF 32 03  01 31 80 99 BF 32 03 01  .2..n.2..1...2..
01C0: 00                                                .               
```

#### Opcodes

```
  0: 0x019C [0x6E] Wajran (ID: 16986813/0x010332BD) uses emote 1*
  1: 0x01A3 [0x99] Wait for Wajran (ID: 16986813/0x010332BD) animation to complete
  2: 0x01A8 [0x6E] PAKU02 (ID: 16986814/0x010332BE) uses emote 8*
  3: 0x01AF [0x99] Wait for PAKU02 (ID: 16986814/0x010332BE) animation to complete
  4: 0x01B4 [0x6E] PAKU03 (ID: 16986815/0x010332BF) uses emote 10*
  5: 0x01BB [0x99] Wait for PAKU03 (ID: 16986815/0x010332BF) animation to complete
  6: 0x01C0 [0x00] END_REQSTACK()
```

### Event 65535.21

#### Metadata

| Field        | Value    |
|--------------|----------|
| Entrypoint   | 0x01C1   |
| Data Size    | 37 bytes |
| Instructions | 7        |

```
      00 01 02 03 04 05 06 07  08 09 0A 0B 0C 0D 0E 0F
      -- -- -- -- -- -- -- --  -- -- -- -- -- -- -- --
01C0:    6E BD 32 03 01 32 80  99 BD 32 03 01 6E BE 32   n.2..2...2..n.2
01D0: 03 01 32 80 99 BE 32 03  01 6E BF 32 03 01 32 80  ..2...2..n.2..2.
01E0: 99 BF 32 03 01 00                                 ..2...          
```

#### Opcodes

```
  0: 0x01C1 [0x6E] Wajran (ID: 16986813/0x010332BD) uses emote 65*
  1: 0x01C8 [0x99] Wait for Wajran (ID: 16986813/0x010332BD) animation to complete
  2: 0x01CD [0x6E] PAKU02 (ID: 16986814/0x010332BE) uses emote 65*
  3: 0x01D4 [0x99] Wait for PAKU02 (ID: 16986814/0x010332BE) animation to complete
  4: 0x01D9 [0x6E] PAKU03 (ID: 16986815/0x010332BF) uses emote 65*
  5: 0x01E0 [0x99] Wait for PAKU03 (ID: 16986815/0x010332BF) animation to complete
  6: 0x01E5 [0x00] END_REQSTACK()
```

### Event 65535.22

#### Metadata

| Field        | Value    |
|--------------|----------|
| Entrypoint   | 0x01E6   |
| Data Size    | 15 bytes |
| Instructions | 5        |

```
      00 01 02 03 04 05 06 07  08 09 0A 0B 0C 0D 0E 0F
      -- -- -- -- -- -- -- --  -- -- -- -- -- -- -- --
01E0:                   32 0B  80 1F 00 33 80 34 80 35        2....3.4.5
01F0: 80 1F 01 6F 00                                    ...o.           
```

#### Opcodes

```
  0: 0x01E6 [0x32] ExtData[1]->MainSpeed = 40* * 0.1
  1: 0x01E9 [0x1F] MOVE_ENTITY: EventEntity moves to X=-106.147*, Z=34.166*, Y=-5.999*
  2: 0x01F1 [0x1F] MOVE_ENTITY: Update entity position (mode=1)
  3: 0x01F3 [0x6F] WAIT_FRAME_DELAY: Yield until WaitTime reaches zero
  4: 0x01F4 [0x00] END_REQSTACK()
```

### Event 65535.23

#### Metadata

| Field        | Value   |
|--------------|---------|
| Entrypoint   | 0x01F5  |
| Data Size    | 5 bytes |
| Instructions | 2       |

```
      00 01 02 03 04 05 06 07  08 09 0A 0B 0C 0D 0E 0F
      -- -- -- -- -- -- -- --  -- -- -- -- -- -- -- --
01F0:                B6 0A 32  80 00                         ..2..      
```

#### Opcodes

```
  0: 0x01F5 [0xB6] ENTITY_APPEARANCE_HANDLER(case=Ranged, value=65*)
  1: 0x01F9 [0x00] END_REQSTACK()
```

### Event 65535.24

#### Metadata

| Field        | Value   |
|--------------|---------|
| Entrypoint   | 0x01FA  |
| Data Size    | 5 bytes |
| Instructions | 2       |

```
      00 01 02 03 04 05 06 07  08 09 0A 0B 0C 0D 0E 0F
      -- -- -- -- -- -- -- --  -- -- -- -- -- -- -- --
01F0:                                B6 0A 00 80 00               ..... 
```

#### Opcodes

```
  0: 0x01FA [0xB6] ENTITY_APPEARANCE_HANDLER(case=Ranged, value=0*)
  1: 0x01FE [0x00] END_REQSTACK()
```

### Event 65535.25

#### Metadata

| Field        | Value   |
|--------------|---------|
| Entrypoint   | 0x01FF  |
| Data Size    | 5 bytes |
| Instructions | 2       |

```
      00 01 02 03 04 05 06 07  08 09 0A 0B 0C 0D 0E 0F
      -- -- -- -- -- -- -- --  -- -- -- -- -- -- -- --
01F0:                                               B6                 .
0200: 0A 36 80 00                                       .6..            
```

#### Opcodes

```
  0: 0x01FF [0xB6] ENTITY_APPEARANCE_HANDLER(case=Ranged, value=75*)
  1: 0x0203 [0x00] END_REQSTACK()
```

### Event 65535.26

#### Metadata

| Field        | Value   |
|--------------|---------|
| Entrypoint   | 0x0204  |
| Data Size    | 5 bytes |
| Instructions | 2       |

```
      00 01 02 03 04 05 06 07  08 09 0A 0B 0C 0D 0E 0F
      -- -- -- -- -- -- -- --  -- -- -- -- -- -- -- --
0200:             B6 0A 00 80  00                           .....       
```

#### Opcodes

```
  0: 0x0204 [0xB6] ENTITY_APPEARANCE_HANDLER(case=Ranged, value=0*)
  1: 0x0208 [0x00] END_REQSTACK()
```

### Event 65535.27

#### Metadata

| Field        | Value    |
|--------------|----------|
| Entrypoint   | 0x0209   |
| Data Size    | 27 bytes |
| Instructions | 7        |

```
      00 01 02 03 04 05 06 07  08 09 0A 0B 0C 0D 0E 0F
      -- -- -- -- -- -- -- --  -- -- -- -- -- -- -- --
0200:                             1F 00 37 80 38 80 00           ..7.8..
0210: 80 1F 01 6F 4A BB 32 03  01 3B 32 03 01 6F 76 BB  ...oJ.2..;2..ov.
0220: 32 03 01 00                                       2...            
```

#### Opcodes

```
  0: 0x0209 [0x1F] MOVE_ENTITY: EventEntity moves to X=-5.700*, Z=-28.344*, Y=0.000*
  1: 0x0211 [0x1F] MOVE_ENTITY: Update entity position (mode=1)
  2: 0x0213 [0x6F] WAIT_FRAME_DELAY: Yield until WaitTime reaches zero
  3: 0x0214 [0x4A] Najelith (ID: 16986811/0x010332BB) looks at Rughadjeen (ID: 16986683/0x0103323B)
  4: 0x021D [0x6F] WAIT_FRAME_DELAY: Yield until WaitTime reaches zero
  5: 0x021E [0x76] CHECK_ENTITY_RENDER_FLAGS: Wait until Najelith (ID: 16986811/0x010332BB) Render.Flags0 and Render.Flags3 conditions are met
  6: 0x0223 [0x00] END_REQSTACK()
```

### Event 65535.28

#### Metadata

| Field        | Value    |
|--------------|----------|
| Entrypoint   | 0x0224   |
| Data Size    | 27 bytes |
| Instructions | 7        |

```
      00 01 02 03 04 05 06 07  08 09 0A 0B 0C 0D 0E 0F
      -- -- -- -- -- -- -- --  -- -- -- -- -- -- -- --
0220:             1F 00 39 80  3A 80 00 80 1F 01 6F 4A      ..9.:.....oJ
0230: 3B 32 03 01 BB 32 03 01  6F 76 3B 32 03 01 00     ;2...2..ov;2... 
```

#### Opcodes

```
  0: 0x0224 [0x1F] MOVE_ENTITY: EventEntity moves to X=-3.756*, Z=-27.826*, Y=0.000*
  1: 0x022C [0x1F] MOVE_ENTITY: Update entity position (mode=1)
  2: 0x022E [0x6F] WAIT_FRAME_DELAY: Yield until WaitTime reaches zero
  3: 0x022F [0x4A] Rughadjeen (ID: 16986683/0x0103323B) looks at Najelith (ID: 16986811/0x010332BB)
  4: 0x0238 [0x6F] WAIT_FRAME_DELAY: Yield until WaitTime reaches zero
  5: 0x0239 [0x76] CHECK_ENTITY_RENDER_FLAGS: Wait until Rughadjeen (ID: 16986683/0x0103323B) Render.Flags0 and Render.Flags3 conditions are met
  6: 0x023E [0x00] END_REQSTACK()
```

### Event 65535.29

#### Metadata

| Field        | Value    |
|--------------|----------|
| Entrypoint   | 0x023F   |
| Data Size    | 40 bytes |
| Instructions | 6        |

```
      00 01 02 03 04 05 06 07  08 09 0A 0B 0C 0D 0E 0F
      -- -- -- -- -- -- -- --  -- -- -- -- -- -- -- --
0230:                                               1F                 .
0240: 00 3B 80 3C 80 00 80 1F  01 6F 66 3D 80 3B 32 03  .;.<.....of=.;2.
0250: 01 3B 32 03 01 73 68 61  30 53 3B 32 03 01 3B 32  .;2..sha0S;2..;2
0260: 03 01 73 68 61 30 00                              ..sha0.         
```

#### Opcodes

```
  0: 0x023F [0x1F] MOVE_ENTITY: EventEntity moves to X=-2.438*, Z=-27.426*, Y=0.000*
  1: 0x0247 [0x1F] MOVE_ENTITY: Update entity position (mode=1)
  2: 0x0249 [0x6F] WAIT_FRAME_DELAY: Yield until WaitTime reaches zero
  3: 0x024A [0x66] LOAD_EXT_SCHEDULER_MAIN: Load scheduler "sha0" with entities [Rughadjeen (ID: 16986683/0x0103323B), Rughadjeen (ID: 16986683/0x0103323B)], work=29*
  4: 0x0259 [0x53] WAIT_SCHEDULER_TASK: Wait for scheduler "sha0" with entities [Rughadjeen (ID: 16986683/0x0103323B), Rughadjeen (ID: 16986683/0x0103323B)]
  5: 0x0266 [0x00] END_REQSTACK()
```

### Event 65535.30

#### Metadata

| Field        | Value    |
|--------------|----------|
| Entrypoint   | 0x0267   |
| Data Size    | 19 bytes |
| Instructions | 3        |

```
      00 01 02 03 04 05 06 07  08 09 0A 0B 0C 0D 0E 0F
      -- -- -- -- -- -- -- --  -- -- -- -- -- -- -- --
0260:                      1C  3E 80 66 3F 80 9E 32 03         .>.f?..2.
0270: 01 9E 32 03 01 62 73 6B  30 00                    ..2..bsk0.      
```

#### Opcodes

```
  0: 0x0267 [0x1C] WAIT(45* ticks)
  1: 0x026A [0x66] LOAD_EXT_SCHEDULER_MAIN: Load scheduler "bsk0" with entities [Fari-Wari (ID: 16986782/0x0103329E), Fari-Wari (ID: 16986782/0x0103329E)], work=42*
  2: 0x0279 [0x00] END_REQSTACK()
```

### Event 65535.31

#### Metadata

| Field        | Value    |
|--------------|----------|
| Entrypoint   | 0x027A   |
| Data Size    | 24 bytes |
| Instructions | 6        |

```
      00 01 02 03 04 05 06 07  08 09 0A 0B 0C 0D 0E 0F
      -- -- -- -- -- -- -- --  -- -- -- -- -- -- -- --
0270:                                32 0B 80 1F 00 40            2....@
0280: 80 41 80 35 80 1F 01 6F  4A 9E 32 03 01 CC 32 03  .A.5...oJ.2...2.
0290: 01 00                                             ..              
```

#### Opcodes

```
  0: 0x027A [0x32] ExtData[1]->MainSpeed = 40* * 0.1
  1: 0x027D [0x1F] MOVE_ENTITY: EventEntity moves to X=86.503*, Z=-129.792*, Y=-5.999*
  2: 0x0285 [0x1F] MOVE_ENTITY: Update entity position (mode=1)
  3: 0x0287 [0x6F] WAIT_FRAME_DELAY: Yield until WaitTime reaches zero
  4: 0x0288 [0x4A] Fari-Wari (ID: 16986782/0x0103329E) looks at Wajran (ID: 16986828/0x010332CC)
  5: 0x0291 [0x00] END_REQSTACK()
```
