# 16986706 - Ashzal

## Common Data

| Field            | Value                     |
|------------------|---------------------------|
| Zone             | Wajaom Woodlands (ID: 51) |
| Block Size       | 276 bytes                 |
| Total Events     | 8                         |
| References Count | 26                        |

## List of Events

| Event ID                 | Entrypoint   |   Size |   Instructions |
|--------------------------|--------------|--------|----------------|
| [65535](#event-65535)    | 0x0000       |      1 |              1 |
| [511](#event-511)        | 0x0001       |      1 |              1 |
| [65535.1](#event-655351) | 0x0002       |     26 |              8 |
| [65535.2](#event-655352) | 0x001C       |     20 |              6 |
| [65535.3](#event-655353) | 0x0030       |     12 |              3 |
| [65535.4](#event-655354) | 0x003C       |     23 |              7 |
| [65535.5](#event-655355) | 0x0053       |     18 |              6 |
| [65535.6](#event-655356) | 0x0065       |     20 |              6 |

## DAT References (imed_data)

|   Index | Hex Value   |   Dec Value |
|---------|-------------|-------------|
|       0 | 0x0012      |          18 |
|       1 | 0x2BD9      |       11225 |
|       2 | 0xFFFE8B4C  |  4294871884 |
|       3 | 0x07CF      |        1999 |
|       4 | 0x53A1      |       21409 |
|       5 | 0xFFFE9810  |  4294875152 |
|       6 | 0x0000      |           0 |
|       7 | 0x000E      |          14 |
|       8 | 0x1D8D9     |      121049 |
|       9 | 0xFFFFF7EA  |  4294965226 |
|      10 | 0x4A2C      |       18988 |
|      11 | 0xFFFE909C  |  4294873244 |
|      12 | 0x00F2      |         242 |
|      13 | 0x08AD      |        2221 |
|      14 | 0x001E      |          30 |
|      15 | 0x000D      |          13 |
|      16 | 0x3E24      |       15908 |
|      17 | 0xFFFE8F1D  |  4294872861 |
|      18 | 0x0439      |        1081 |
|      19 | 0x000A      |          10 |
|      20 | 0x0028      |          40 |
|      21 | 0x4F5D      |       20317 |
|      22 | 0xFFFE9536  |  4294874422 |
|      23 | 0xFFFFFFFE  |  4294967294 |
|      24 | 0x2879      |       10361 |
|      25 | 0xFFFE7AD0  |  4294867664 |

## Events

### Event 65535

#### Metadata

| Field        | Value   |
|--------------|---------|
| Entrypoint   | 0x0000  |
| Data Size    | 1 bytes |
| Instructions | 1       |

```
      00 01 02 03 04 05 06 07  08 09 0A 0B 0C 0D 0E 0F
      -- -- -- -- -- -- -- --  -- -- -- -- -- -- -- --
0000: 00                                                .               
```

#### Opcodes

```
  0: 0x0000 [0x00] END_REQSTACK()
```

### Event 511

#### Metadata

| Field        | Value   |
|--------------|---------|
| Entrypoint   | 0x0001  |
| Data Size    | 1 bytes |
| Instructions | 1       |

```
      00 01 02 03 04 05 06 07  08 09 0A 0B 0C 0D 0E 0F
      -- -- -- -- -- -- -- --  -- -- -- -- -- -- -- --
0000:    00                                              .              
```

#### Opcodes

```
  0: 0x0001 [0x00] END_REQSTACK()
```

### Event 65535.1

#### Metadata

| Field        | Value    |
|--------------|----------|
| Entrypoint   | 0x0002   |
| Data Size    | 26 bytes |
| Instructions | 8        |

```
      00 01 02 03 04 05 06 07  08 09 0A 0B 0C 0D 0E 0F
      -- -- -- -- -- -- -- --  -- -- -- -- -- -- -- --
0000:       32 00 80 1F 00 01  80 02 80 03 80 1F 01 6F    2............o
0010: 1F 00 04 80 05 80 06 80  1F 01 6F 00              ..........o.    
```

#### Opcodes

```
  0: 0x0002 [0x32] ExtData[1]->MainSpeed = 18* * 0.1
  1: 0x0005 [0x1F] MOVE_ENTITY: EventEntity moves to X=11.225*, Z=-95.412*, Y=1.999*
  2: 0x000D [0x1F] MOVE_ENTITY: Update entity position (mode=1)
  3: 0x000F [0x6F] WAIT_FRAME_DELAY: Yield until WaitTime reaches zero
  4: 0x0010 [0x1F] MOVE_ENTITY: EventEntity moves to X=21.409*, Z=-92.144*, Y=0.000*
  5: 0x0018 [0x1F] MOVE_ENTITY: Update entity position (mode=1)
  6: 0x001A [0x6F] WAIT_FRAME_DELAY: Yield until WaitTime reaches zero
  7: 0x001B [0x00] END_REQSTACK()
```

### Event 65535.2

#### Metadata

| Field        | Value    |
|--------------|----------|
| Entrypoint   | 0x001C   |
| Data Size    | 20 bytes |
| Instructions | 6        |

```
      00 01 02 03 04 05 06 07  08 09 0A 0B 0C 0D 0E 0F
      -- -- -- -- -- -- -- --  -- -- -- -- -- -- -- --
0010:                                      32 07 80 1F              2...
0020: 00 08 80 09 80 06 80 1F  01 6F 1E 51 32 03 01 00  .........o.Q2...
```

#### Opcodes

```
  0: 0x001C [0x32] ExtData[1]->MainSpeed = 14* * 0.1
  1: 0x001F [0x1F] MOVE_ENTITY: EventEntity moves to X=121.049*, Z=-2.070*, Y=0.000*
  2: 0x0027 [0x1F] MOVE_ENTITY: Update entity position (mode=1)
  3: 0x0029 [0x6F] WAIT_FRAME_DELAY: Yield until WaitTime reaches zero
  4: 0x002A [0x1E] EventEntity looks at Halshaob (ID: 16986705/0x01033251) and starts talking
  5: 0x002F [0x00] END_REQSTACK()
```

### Event 65535.3

#### Metadata

| Field        | Value    |
|--------------|----------|
| Entrypoint   | 0x0030   |
| Data Size    | 12 bytes |
| Instructions | 3        |

```
      00 01 02 03 04 05 06 07  08 09 0A 0B 0C 0D 0E 0F
      -- -- -- -- -- -- -- --  -- -- -- -- -- -- -- --
0030: 33 01 37 0A 80 0B 80 0C  80 0D 80 00              3.7.........    
```

#### Opcodes

```
  0: 0x0030 [0x33] EventEntity->Render.Flags0 |= 0x200000 // Bit 21 (flag=0x01)
  1: 0x0032 [0x37] UPDATE_EVENT_POSITION_AND_DIR: x=18.988*, z=-94.052*, y=0.242*, direction=195.2°*
  2: 0x003B [0x00] END_REQSTACK()
```

### Event 65535.4

#### Metadata

| Field        | Value    |
|--------------|----------|
| Entrypoint   | 0x003C   |
| Data Size    | 23 bytes |
| Instructions | 7        |

```
      00 01 02 03 04 05 06 07  08 09 0A 0B 0C 0D 0E 0F
      -- -- -- -- -- -- -- --  -- -- -- -- -- -- -- --
0030:                                      1C 0E 80 32              ...2
0040: 0F 80 1F 00 10 80 11 80  12 80 1F 01 6F 1E 30 32  ............o.02
0050: 03 01 00                                          ...             
```

#### Opcodes

```
  0: 0x003C [0x1C] WAIT(30* ticks)
  1: 0x003F [0x32] ExtData[1]->MainSpeed = 13* * 0.1
  2: 0x0042 [0x1F] MOVE_ENTITY: EventEntity moves to X=15.908*, Z=-94.435*, Y=1.081*
  3: 0x004A [0x1F] MOVE_ENTITY: Update entity position (mode=1)
  4: 0x004C [0x6F] WAIT_FRAME_DELAY: Yield until WaitTime reaches zero
  5: 0x004D [0x1E] EventEntity looks at Zazarg (ID: 16986672/0x01033230) and starts talking
  6: 0x0052 [0x00] END_REQSTACK()
```

### Event 65535.5

#### Metadata

| Field        | Value    |
|--------------|----------|
| Entrypoint   | 0x0053   |
| Data Size    | 18 bytes |
| Instructions | 6        |

```
      00 01 02 03 04 05 06 07  08 09 0A 0B 0C 0D 0E 0F
      -- -- -- -- -- -- -- --  -- -- -- -- -- -- -- --
0050:          1C 13 80 32 14  80 1F 00 15 80 16 80 17     ...2.........
0060: 80 1F 01 6F 00                                    ...o.           
```

#### Opcodes

```
  0: 0x0053 [0x1C] WAIT(10* ticks)
  1: 0x0056 [0x32] ExtData[1]->MainSpeed = 40* * 0.1
  2: 0x0059 [0x1F] MOVE_ENTITY: EventEntity moves to X=20.317*, Z=-92.874*, Y=-0.002*
  3: 0x0061 [0x1F] MOVE_ENTITY: Update entity position (mode=1)
  4: 0x0063 [0x6F] WAIT_FRAME_DELAY: Yield until WaitTime reaches zero
  5: 0x0064 [0x00] END_REQSTACK()
```

### Event 65535.6

#### Metadata

| Field        | Value    |
|--------------|----------|
| Entrypoint   | 0x0065   |
| Data Size    | 20 bytes |
| Instructions | 6        |

```
      00 01 02 03 04 05 06 07  08 09 0A 0B 0C 0D 0E 0F
      -- -- -- -- -- -- -- --  -- -- -- -- -- -- -- --
0060:                32 0F 80  1F 00 18 80 19 80 03 80       2..........
0070: 1F 01 6F 1E 30 32 03 01  00                       ..o.02...       
```

#### Opcodes

```
  0: 0x0065 [0x32] ExtData[1]->MainSpeed = 13* * 0.1
  1: 0x0068 [0x1F] MOVE_ENTITY: EventEntity moves to X=10.361*, Z=-99.632*, Y=1.999*
  2: 0x0070 [0x1F] MOVE_ENTITY: Update entity position (mode=1)
  3: 0x0072 [0x6F] WAIT_FRAME_DELAY: Yield until WaitTime reaches zero
  4: 0x0073 [0x1E] EventEntity looks at Zazarg (ID: 16986672/0x01033230) and starts talking
  5: 0x0078 [0x00] END_REQSTACK()
```
