# 16986708 - Whamaad

## Common Data

| Field            | Value                     |
|------------------|---------------------------|
| Zone             | Wajaom Woodlands (ID: 51) |
| Block Size       | 128 bytes                 |
| Total Events     | 4                         |
| References Count | 11                        |

## List of Events

| Event ID                 | Entrypoint   |   Size |   Instructions |
|--------------------------|--------------|--------|----------------|
| [65535](#event-65535)    | 0x0000       |      1 |              1 |
| [511](#event-511)        | 0x0001       |      1 |              1 |
| [65535.1](#event-655351) | 0x0002       |     29 |              7 |
| [65535.2](#event-655352) | 0x001F       |     20 |              6 |

## DAT References (imed_data)

|   Index | Hex Value   |   Dec Value |
|---------|-------------|-------------|
|       0 | 0x1F62      |        8034 |
|       1 | 0xFFFEAA7D  |  4294879869 |
|       2 | 0x07CF      |        1999 |
|       3 | 0x0FA0      |        4000 |
|       4 | 0x0028      |          40 |
|       5 | 0x2841      |       10305 |
|       6 | 0xFFFE8E30  |  4294872624 |
|       7 | 0x000D      |          13 |
|       8 | 0xFFFEA36D  |  4294878061 |
|       9 | 0xFFFFED79  |  4294962553 |
|      10 | 0x0000      |           0 |

## Events

### Event 65535

#### Metadata

| Field        | Value   |
|--------------|---------|
| Entrypoint   | 0x0000  |
| Data Size    | 1 bytes |
| Instructions | 1       |

```
      00 01 02 03 04 05 06 07  08 09 0A 0B 0C 0D 0E 0F
      -- -- -- -- -- -- -- --  -- -- -- -- -- -- -- --
0000: 00                                                .               
```

#### Opcodes

```
  0: 0x0000 [0x00] END_REQSTACK()
```

### Event 511

#### Metadata

| Field        | Value   |
|--------------|---------|
| Entrypoint   | 0x0001  |
| Data Size    | 1 bytes |
| Instructions | 1       |

```
      00 01 02 03 04 05 06 07  08 09 0A 0B 0C 0D 0E 0F
      -- -- -- -- -- -- -- --  -- -- -- -- -- -- -- --
0000:    00                                              .              
```

#### Opcodes

```
  0: 0x0001 [0x00] END_REQSTACK()
```

### Event 65535.1

#### Metadata

| Field        | Value    |
|--------------|----------|
| Entrypoint   | 0x0002   |
| Data Size    | 29 bytes |
| Instructions | 7        |

```
      00 01 02 03 04 05 06 07  08 09 0A 0B 0C 0D 0E 0F
      -- -- -- -- -- -- -- --  -- -- -- -- -- -- -- --
0000:       37 00 80 01 80 02  80 03 80 32 04 80 1F 00    7........2....
0010: 05 80 06 80 02 80 1F 01  6F 1E 30 32 03 01 00     ........o.02... 
```

#### Opcodes

```
  0: 0x0002 [0x37] UPDATE_EVENT_POSITION_AND_DIR: x=8.034*, z=-87.427*, y=1.999*, direction=351.6°*
  1: 0x000B [0x32] ExtData[1]->MainSpeed = 40* * 0.1
  2: 0x000E [0x1F] MOVE_ENTITY: EventEntity moves to X=10.305*, Z=-94.672*, Y=1.999*
  3: 0x0016 [0x1F] MOVE_ENTITY: Update entity position (mode=1)
  4: 0x0018 [0x6F] WAIT_FRAME_DELAY: Yield until WaitTime reaches zero
  5: 0x0019 [0x1E] EventEntity looks at Zazarg (ID: 16986672/0x01033230) and starts talking
  6: 0x001E [0x00] END_REQSTACK()
```

### Event 65535.2

#### Metadata

| Field        | Value    |
|--------------|----------|
| Entrypoint   | 0x001F   |
| Data Size    | 20 bytes |
| Instructions | 6        |

```
      00 01 02 03 04 05 06 07  08 09 0A 0B 0C 0D 0E 0F
      -- -- -- -- -- -- -- --  -- -- -- -- -- -- -- --
0010:                                               32                 2
0020: 07 80 1F 00 08 80 09 80  0A 80 1F 01 6F 1E 30 32  ............o.02
0030: 03 01 00                                          ...             
```

#### Opcodes

```
  0: 0x001F [0x32] ExtData[1]->MainSpeed = 13* * 0.1
  1: 0x0022 [0x1F] MOVE_ENTITY: EventEntity moves to X=-89.235*, Z=-4.743*, Y=0.000*
  2: 0x002A [0x1F] MOVE_ENTITY: Update entity position (mode=1)
  3: 0x002C [0x6F] WAIT_FRAME_DELAY: Yield until WaitTime reaches zero
  4: 0x002D [0x1E] EventEntity looks at Zazarg (ID: 16986672/0x01033230) and starts talking
  5: 0x0032 [0x00] END_REQSTACK()
```
