# 16986829 - Camille

## Common Data

| Field            | Value                     |
|------------------|---------------------------|
| Zone             | Wajaom Woodlands (ID: 51) |
| Block Size       | 7788 bytes                |
| Total Events     | 6                         |
| References Count | 168                       |

## List of Events

| Event ID              | Entrypoint   |   Size |   Instructions |
|-----------------------|--------------|--------|----------------|
| [65535](#event-65535) | 0x0000       |      1 |              1 |
| [25](#event-25)       | 0x0001       |     29 |              7 |
| [628](#event-628)     | 0x001E       |    961 |            120 |
| [629](#event-629)     | 0x03DF       |   1504 |            194 |
| [630](#event-630)     | 0x09BF       |     47 |             15 |
| [23](#event-23)       | 0x09EE       |   4531 |            883 |

## DAT References (imed_data)

|   Index | Hex Value   |   Dec Value |
|---------|-------------|-------------|
|       0 | 0x001E      |          30 |
|       1 | 0x0013      |          19 |
|       2 | 0x256A      |        9578 |
|       3 | 0x00C8      |         200 |
|       4 | 0x0000      |           0 |
|       5 | 0xA6335     |      680757 |
|       6 | 0x38817     |      231447 |
|       7 | 0xFFFFC27A  |  4294951546 |
|       8 | 0x0188      |         392 |
|       9 | 0x022D      |         557 |
|      10 | 0x000F      |          15 |
|      11 | 0x256B      |        9579 |
|      12 | 0x256C      |        9580 |
|      13 | 0x256D      |        9581 |
|      14 | 0x01F4      |         500 |
|      15 | 0x256E      |        9582 |
|      16 | 0x256F      |        9583 |
|      17 | 0x2570      |        9584 |
|      18 | 0x2571      |        9585 |
|      19 | 0x003C      |          60 |
|      20 | 0x2572      |        9586 |
|      21 | 0x2573      |        9587 |
|      22 | 0x2578      |        9592 |
|      23 | 0x2579      |        9593 |
|      24 | 0x2574      |        9588 |
|      25 | 0x0078      |         120 |
|      26 | 0x2575      |        9589 |
|      27 | 0x0001      |           1 |
|      28 | 0x2576      |        9590 |
|      29 | 0x2577      |        9591 |
|      30 | 0x0002      |           2 |
|      31 | 0x257A      |        9594 |
|      32 | 0x080E      |        2062 |
|      33 | 0x257B      |        9595 |
|      34 | 0x0603      |        1539 |
|      35 | 0x257C      |        9596 |
|      36 | 0x2580      |        9600 |
|      37 | 0x2581      |        9601 |
|      38 | 0x2582      |        9602 |
|      39 | 0x2583      |        9603 |
|      40 | 0xA4771     |      673649 |
|      41 | 0x325FB     |      206331 |
|      42 | 0xFFFFC199  |  4294951321 |
|      43 | 0x0BD2      |        3026 |
|      44 | 0xA4AB7     |      674487 |
|      45 | 0x32113     |      205075 |
|      46 | 0xFFFFC174  |  4294951284 |
|      47 | 0xA4297     |      672407 |
|      48 | 0x32245     |      205381 |
|      49 | 0xFFFFC0B6  |  4294951094 |
|      50 | 0xA469A     |      673434 |
|      51 | 0x31EE8     |      204520 |
|      52 | 0xFFFFC08F  |  4294951055 |
|      53 | 0x0005      |           5 |
|      54 | 0x0064      |         100 |
|      55 | 0x2584      |        9604 |
|      56 | 0x00B9      |         185 |
|      57 | 0xA4CFB     |      675067 |
|      58 | 0x3633E     |      222014 |
|      59 | 0xFFFFC324  |  4294951716 |
|      60 | 0x0CAD      |        3245 |
|      61 | 0xA4EC4     |      675524 |
|      62 | 0x35F29     |      220969 |
|      63 | 0xFFFFC34A  |  4294951754 |
|      64 | 0x0CA7      |        3239 |
|      65 | 0xA4653     |      673363 |
|      66 | 0x362F5     |      221941 |
|      67 | 0xFFFFC192  |  4294951314 |
|      68 | 0x0D1C      |        3356 |
|      69 | 0xA46A4     |      673444 |
|      70 | 0x35C14     |      220180 |
|      71 | 0xFFFFC29D  |  4294951581 |
|      72 | 0x0D05      |        3333 |
|      73 | 0x2585      |        9605 |
|      74 | 0x2586      |        9606 |
|      75 | 0x2587      |        9607 |
|      76 | 0x0347      |         839 |
|      77 | 0x005A      |          90 |
|      78 | 0x2588      |        9608 |
|      79 | 0x2589      |        9609 |
|      80 | 0x258A      |        9610 |
|      81 | 0x258B      |        9611 |
|      82 | 0x000A      |          10 |
|      83 | 0x015E      |         350 |
|      84 | 0x0006      |           6 |
|      85 | 0x258C      |        9612 |
|      86 | 0x0095      |         149 |
|      87 | 0x258D      |        9613 |
|      88 | 0x258E      |        9614 |
|      89 | 0x0015      |          21 |
|      90 | 0x2590      |        9616 |
|      91 | 0x2591      |        9617 |
|      92 | 0x001A      |          26 |
|      93 | 0x2592      |        9618 |
|      94 | 0x0007      |           7 |
|      95 | 0x0008      |           8 |
|      96 | 0x000B      |          11 |
|      97 | 0x000E      |          14 |
|      98 | 0x0011      |          17 |
|      99 | 0x0012      |          18 |
|     100 | 0x0014      |          20 |
|     101 | 0x0017      |          23 |
|     102 | 0x0004      |           4 |
|     103 | 0x25B0      |        9648 |
|     104 | 0x25B1      |        9649 |
|     105 | 0x25B2      |        9650 |
|     106 | 0x0003      |           3 |
|     107 | 0x25B3      |        9651 |
|     108 | 0x25B4      |        9652 |
|     109 | 0x25B5      |        9653 |
|     110 | 0x25B6      |        9654 |
|     111 | 0x258F      |        9615 |
|     112 | 0x257D      |        9597 |
|     113 | 0x40000000  |  1073741824 |
|     114 | 0x257F      |        9599 |
|     115 | 0x257E      |        9598 |
|     116 | 0x0010      |          16 |
|     117 | 0x001F      |          31 |
|     118 | 0x2593      |        9619 |
|     119 | 0x2594      |        9620 |
|     120 | 0x2595      |        9621 |
|     121 | 0x2596      |        9622 |
|     122 | 0x2599      |        9625 |
|     123 | 0x0D6A      |        3434 |
|     124 | 0x0BB8      |        3000 |
|     125 | 0x0D6B      |        3435 |
|     126 | 0x0D6C      |        3436 |
|     127 | 0x06EE      |        1774 |
|     128 | 0xC350      |       50000 |
|     129 | 0x06F1      |        1777 |
|     130 | 0x249F0     |      150000 |
|     131 | 0x06F2      |        1778 |
|     132 | 0x073E      |        1854 |
|     133 | 0x073F      |        1855 |
|     134 | 0x0614      |        1556 |
|     135 | 0x50910     |      330000 |
|     136 | 0x0615      |        1557 |
|     137 | 0x0616      |        1558 |
|     138 | 0x0009      |           9 |
|     139 | 0x000C      |          12 |
|     140 | 0x000D      |          13 |
|     141 | 0x259A      |        9626 |
|     142 | 0x259B      |        9627 |
|     143 | 0x25AD      |        9645 |
|     144 | 0x25A2      |        9634 |
|     145 | 0x25A3      |        9635 |
|     146 | 0x25A4      |        9636 |
|     147 | 0x25A5      |        9637 |
|     148 | 0x25A6      |        9638 |
|     149 | 0x25A7      |        9639 |
|     150 | 0x25A8      |        9640 |
|     151 | 0x25A9      |        9641 |
|     152 | 0x259C      |        9628 |
|     153 | 0x259D      |        9629 |
|     154 | 0x0016      |          22 |
|     155 | 0x259E      |        9630 |
|     156 | 0x016E      |         366 |
|     157 | 0x016F      |         367 |
|     158 | 0x0170      |         368 |
|     159 | 0x0171      |         369 |
|     160 | 0x0172      |         370 |
|     161 | 0x0173      |         371 |
|     162 | 0x0174      |         372 |
|     163 | 0x0175      |         373 |
|     164 | 0x0176      |         374 |
|     165 | 0x0177      |         375 |
|     166 | 0x0178      |         376 |
|     167 | 0x0179      |         377 |

## String References

- **9578**: Well as I live an' breathe! An adventurer! Now I got some reeeal work t' be done, but yew'll need some meat on yer bones afore I let yew near it.
- **9579**: Well hi there, sugar! I do declare, those [bulging muscles/taut thighs] of yers look like they're [about to pop right out of yer armor/ready to choke a bear]. We could use a [guy/gal] like yew in the Voidwatch.
- **9580**: In case yew weren't aware, hon, Jeuno's put together a group called the Voidwatch, whose brave men an' women fight the good fight in this here war of Voidwalker aggression.
- **9581**: ...An' the fact we're here a-courtin' adventurers like yew says a barrelful about the Empire's predicament. Those trainer drips or whatchamacallsem are swarmin' these lands like flies on a dead chocobo, I tell yew what!
- **9582**: But Aht Urhgan's just too stubborn to pull its uppity head from the sand an' take a gander at its surroundings.
- **9583**: I s'spect Her Majesty's one of them po' folk as cain't breathe an' think at the same time, bless her heart... Makes me wish we could send a few airships--black as the night--to open up their ports an' give 'em some common sense.
- **9584**: Well, she was kind enough to let us officers into the country...after the negotiators we hired persuaded her. Either way, we've been doin' nothin' but watchin' the dust drift ever since we got here! It gets me soppin' mad just thinkin' about it!
- **9585**: I know they're a sovereign nation and all, but if they don't get pricked into action, those rascally Voidwalkers could knock the whole realm all cattywampus!
- **9586**: ...Or not. This wouldn't be the first time an apocalyptic vision fell flat on its face.
- **9587**: Anyway, what do yew say to layin' a thumpin' on these intruders from away? If that sounds like somethin' up yer alley, why not join the Voidwatch?
- **9588**: What will you do? [Nothing at all./Ask many a question./Participate in Voidwatch Ops./Request debriefing./Request $3./Check voidstone stock./Request reward issuance.]
- **9589**: I see where yew're comin' from. "Why help those who won't help themselves?" But this is us against them! Good versus evil! If yew're not part of the solution, yew're part of the problem!
- **9590**: Whoa, now! Stop pumpin' me with questions! I'm startin' to squirm like a skoffin in a snare!
- **9591**: If y'all go find one o' them there Voidwatch Officers, they'll set yew right as rain.
- **9592**: You're darn tootin' I'm angry! The Empire doesn't care a lick about the Voidwalker threat! We've got to do somethin', and soon...
- **9593**: Excuse me, but how'd yew like to throw a saddle on this challenge and ride it to fame and glory?
- **9594**: I knew a [true gent/loyal lady] like yew wouldn't [leave lil' ol' me to fend off those nasty beasts all on my lonesome/pass up a chance t' put some hurtin' on them as needs it]. If'n y'all wanna finish this here mission, yew'll need to brave the depths of Arrapago Reef, climb to dizzying heights on Mount Zhayolm, bushwhack yer way through Mamook, and keep from sinking into Caedarva Mire.
- **9595**: Oh, and yew'll need this $3 to get yew started on yer way to corrallin' those critters.
- **9596**: I hear pairin' them with $5 really gets the job done right, too. Anywho, y'all come back safe and sound from those battles now, y'hear?
- **9600**: Well now, I heard yew been workin' harder 'n a one-legged man at a tail-kickin' contest. Wonderful work, hon!
- **9601**: Don't forget though, Voidwalkers always come back with a vengeance like ornery garden weeds.
- **9602**: And since we haven't found their roots yet, all we can do is cut them down every time they pop back up.
- **9603**: Yew'll be up against some darn stiff competition, but an experienced adventurer like yew can soften it up in no time, ain't that right, hon?
- **9604**: By golly, what now? ...The Immortals?
- **9606**: I'm from there, but I don't take kindly to bein' called a wench, deary.
- **9609**: If yew want to talk to me about leaking, yew'd best check yer britches first. What do yew need, anyway?
- **9612**: Good gracious, that man scares me more than shears do a moogle! Those beady eyes, that twisted scowl...I wouldn't bat an eye if someone told me he was a Voidwalker himself. I could've sworn he was fixin' to unhinge his jaws and swallow me whole!
- **9613**: Look! He was even scary enough to make yer $3 turn all diff'rnt! At least he told us somethin' about a distortion in a dank cavern that gets invaded by outlaws every night.
- **9614**: What? He didn't say anythin' like that? Well, I guess I just had to fill in the gaps myself! His description was sparser'n the hairs on my pappy's head! Anyway, I reckon Aydeewa Subterrane's the only cavern 'round these parts...
- **9616**: So yew stuck it to those Voidwalker vermin an' came out on top? Congratulations, sugar!
- **9617**: Looks like ol' scary-face was tellin' the truth about that there cavern, then.
- **9618**: I'll let yew do the thankin' though, darlin'. I'm afeared he's like t' gimme a new pie hole if'n I ever got near t' him again.
- **9619**: How many would you like? [None./Just one./Fill me up!]
- **9626**: Exchange for what? (Cruor: $0) [Nothing right now./$1: $2./$3: $4./$5: $6./$7: $8./$9: $10./$11: $12./$13: $14./$15: $16./$3: $18./$3: $20./$3: $22./$3: $24./$3: $26./$3: $28./$3: $30./$3: $ .]
- **9629**: Proceed with exchange? (Cruor: $0) [Yes./No.]
- **9634**: This periapt allows the bearer to infuse an additional atmacite for each one possessed.
- **9635**: This periapt grants the bearer heightened insight into Voidwalker weaknesses against weapon skills and abilities.
- **9636**: This periapt grants the bearer heightened insight into Voidwalker weaknesses against magic.
- **9637**: This periapt enhances the effect granted by a periapt of guidance.
- **9638**: This periapt enhances the effect granted by a periapt of percipience.
- **9639**: A bewitching light shines forth from within the crystallized walls of this fragment ripped from a Voidwalker, as if beckoning its bearer to come hither.
- **9640**: A tantalizing light shines forth from within the crystallized walls of this fragment ripped from a Voidwalker, as if appealing to its bearer's most ardent desires.
- **9641**: A crazed light shines forth from within the crystallized walls of this fragment ripped from a Voidwalker, as if seeking to breach the bearer's last bastion of sanity.
- **9645**: %=Bp$77iHi$10$29$3N$3 [$3IFj/How many do you need? (Cruor: $0)/ [None, thank you./One ($1 cruor)./Three ($2 cruor)./Six ($3 cruor)./Nine ($4 cruor)./Twelve ($5 cruor).]
- **9648**: Voidwatch debug menu. [Exit./Alter participation status./Alter jurisdiction./Alter stratum./Alter abyssite receipt level.]
- **9649**: Participation status altered to ["Eff, yeah"/"Heck, no"].
- **9650**: Jurisdiction menu. [Back to the top./San d'Oria./Bastok./Windurst./Past San d'Oria./Past Bastok./Past Windurst.]
- **9651**: Jurisdiction changed to [San d'Oria/Bastok/Windurst/Past San d'Oria/Past Bastok/Past Windurst].
- **9652**: Stratum menu. [Back to the top./Stage 1./Stage 2./Stage 3./Stage 4.]
- **9653**: Stratum changed to [Stage 1/Stage 2/Stage 3/Stage 4].
- **9654**: Abyssite receipt level. [Back to the top./1st time./2nd time and onwards/Abyssite evolution./2nd abyssite evolution and onwards.]

## Events

### Event 65535

#### Metadata

| Field        | Value   |
|--------------|---------|
| Entrypoint   | 0x0000  |
| Data Size    | 1 bytes |
| Instructions | 1       |

```
      00 01 02 03 04 05 06 07  08 09 0A 0B 0C 0D 0E 0F
      -- -- -- -- -- -- -- --  -- -- -- -- -- -- -- --
0000: 00                                                .               
```

#### Opcodes

```
  0: 0x0000 [0x00] END_REQSTACK()
```

### Event 25

#### Metadata

| Field        | Value    |
|--------------|----------|
| Entrypoint   | 0x0001   |
| Data Size    | 29 bytes |
| Instructions | 7        |

```
      00 01 02 03 04 05 06 07  08 09 0A 0B 0C 0D 0E 0F
      -- -- -- -- -- -- -- --  -- -- -- -- -- -- -- --
0000:    1E F0 FF FF 7F 1C 00  80 66 01 80 F8 FF FF 7F   ........f......
0010: F8 FF FF 7F 74 6C 6B 30  1D 02 80 23 21 00        ....tlk0...#!.  
```

#### Opcodes

```
  0: 0x0001 [0x1E] EventEntity looks at LocalPlayer and starts talking
  1: 0x0006 [0x1C] WAIT(30* ticks)
  2: 0x0009 [0x66] LOAD_EXT_SCHEDULER_MAIN: Load scheduler "tlk0" with entities [EventEntity, EventEntity], work=19*
  3: 0x0018 [0x1D] PRINT_EVENT_MESSAGE(message_id=9578*)
    → "Well as I live an' breathe! An adventurer! Now I got some reeeal work t' be done, but yew'll need some meat on yer bones afore I let yew near it."
  4: 0x001B [0x23] WAIT_FOR_DIALOG_INTERACTION
  5: 0x001C [0x21] END_EVENT
  6: 0x001D [0x00] END_REQSTACK()
```

### Event 628

#### Metadata

| Field        | Value     |
|--------------|-----------|
| Entrypoint   | 0x001E    |
| Data Size    | 961 bytes |
| Instructions | 102       |

```
      00 01 02 03 04 05 06 07  08 09 0A 0B 0C 0D 0E 0F
      -- -- -- -- -- -- -- --  -- -- -- -- -- -- -- --
0010:                                            42 45                BE
0020: 03 80 F8 FF FF 7F F8 FF  FF 7F 66 64 6F 32 04 80  ..........fdo2..
0030: 55 03 80 F8 FF FF 7F F8  FF FF 7F 66 64 6F 32 46  U..........fdo2F
0040: 01 38 01 80 03 01 10 04  80 94 01 F0 FF FF 7F 94  .8..............
0050: 01 F8 FF FF 7F 94 01 D1  32 03 01 92 01 F8 FF FF  ........2.......
0060: 7F 92 01 D1 32 03 01 BA  F0 FF FF 7F 05 80 06 80  ....2...........
0070: 07 80 08 80 80 F0 FF FF  7F 80 F8 FF FF 7F 80 D1  ................
0080: 32 03 01 4A F0 FF FF 7F  F8 FF FF 7F 1E F0 FF FF  2..J............
0090: 7F 1C 00 80 02 02 10 04  80 00 EF 01 45 09 80 F0  ............E...
00A0: FF FF 7F F0 FF FF 7F 73  30 35 31 04 80 1C 0A 80  .......s051.....
00B0: 45 03 80 F0 FF FF 7F F0  FF FF 7F 66 64 69 31 04  E..........fdi1.
00C0: 80 1C 00 80 66 01 80 F8  FF FF 7F F8 FF FF 7F 74  ....f..........t
00D0: 6C 6B 30 1D 0B 80 23 52  09 80 F0 FF FF 7F F0 FF  lk0...#R........
00E0: FF 7F 73 30 35 31 45 09  80 F0 FF FF 7F F0 FF FF  ..s051E.........
00F0: 7F 73 30 35 32 04 80 1D  0C 80 23 1D 0D 80 23 66  .s052.....#...#f
0100: 01 80 F8 FF FF 7F F8 FF  FF 7F 74 6C 6B 31 52 09  ..........tlk1R.
0110: 80 F0 FF FF 7F F0 FF FF  7F 73 30 35 32 45 09 80  .........s052E..
0120: F0 FF FF 7F F0 FF FF 7F  73 30 35 33 04 80 4B CD  ........s053..K.
0130: 32 03 01 0E 80 1C 00 80  1D 0F 80 23 1D 10 80 23  2..........#...#
0140: 52 09 80 F0 FF FF 7F F0  FF FF 7F 73 30 35 33 45  R..........s053E
0150: 09 80 F0 FF FF 7F F0 FF  FF 7F 73 30 35 34 04 80  ..........s054..
0160: 4A CD 32 03 01 F0 FF FF  7F 1C 00 80 66 01 80 F8  J.2.........f...
0170: FF FF 7F F8 FF FF 7F 74  6C 6B 30 1D 11 80 23 66  .......tlk0...#f
0180: 01 80 F8 FF FF 7F F8 FF  FF 7F 74 6C 6B 31 52 09  ..........tlk1R.
0190: 80 F0 FF FF 7F F0 FF FF  7F 73 30 35 34 45 09 80  .........s054E..
01A0: F0 FF FF 7F F0 FF FF 7F  73 30 35 35 04 80 1D 12  ........s055....
01B0: 80 23 1C 13 80 1D 14 80  23 52 09 80 F0 FF FF 7F  .#......#R......
01C0: F0 FF FF 7F 73 30 35 35  45 09 80 F0 FF FF 7F F0  ....s055E.......
01D0: FF FF 7F 73 30 35 36 04  80 66 01 80 F8 FF FF 7F  ...s056..f......
01E0: F8 FF FF 7F 74 6C 6B 30  1D 15 80 23 01 4E 02 45  ....tlk0...#.N.E
01F0: 09 80 F0 FF FF 7F F0 FF  FF 7F 73 30 36 31 04 80  ..........s061..
0200: 1C 0A 80 45 03 80 F0 FF  FF 7F F0 FF FF 7F 66 64  ...E..........fd
0210: 69 31 04 80 1C 00 80 1D  16 80 23 52 09 80 F0 FF  i1........#R....
0220: FF 7F F0 FF FF 7F 73 30  36 31 45 09 80 F0 FF FF  ......s061E.....
0230: 7F F0 FF FF 7F 73 30 35  36 04 80 66 01 80 F8 FF  .....s056..f....
0240: FF 7F F8 FF FF 7F 74 6C  6B 30 1D 17 80 23 66 01  ......tlk0...#f.
0250: 80 F8 FF FF 7F F8 FF FF  7F 74 6C 6B 31 24 18 80  .........tlk1$..
0260: 04 80 19 80 25 02 00 10  04 80 00 94 02 52 09 80  ....%........R..
0270: F0 FF FF 7F F0 FF FF 7F  73 30 35 36 45 09 80 F0  ........s056E...
0280: FF FF 7F F0 FF FF 7F 73  30 35 37 04 80 1D 1A 80  .......s057.....
0290: 23 01 8C 03 02 00 10 1B  80 00 08 03 52 09 80 F0  #...........R...
02A0: FF FF 7F F0 FF FF 7F 73  30 35 36 45 09 80 F0 FF  .......s056E....
02B0: FF 7F F0 FF FF 7F 73 30  35 38 04 80 66 01 80 F8  ......s058..f...
02C0: FF FF 7F F8 FF FF 7F 74  68 6B 31 1D 1C 80 23 66  .......thk1...#f
02D0: 01 80 F8 FF FF 7F F8 FF  FF 7F 74 68 6B 32 1D 1D  ..........thk2..
02E0: 80 23 52 09 80 F0 FF FF  7F F0 FF FF 7F 73 30 35  .#R..........s05
02F0: 38 45 09 80 F0 FF FF 7F  F0 FF FF 7F 73 30 35 36  8E..........s056
0300: 04 80 01 5D 02 01 8C 03  02 00 10 1E 80 00 8C 03  ...]............
0310: 52 09 80 F0 FF FF 7F F0  FF FF 7F 73 30 35 36 45  R..........s056E
0320: 09 80 F0 FF FF 7F F0 FF  FF 7F 73 30 35 39 04 80  ..........s059..
0330: 66 01 80 F8 FF FF 7F F8  FF FF 7F 74 6C 6B 30 1D  f..........tlk0.
0340: 1F 80 23 03 02 10 20 80  1D 21 80 23 52 09 80 F0  ..#... ..!.#R...
0350: FF FF 7F F0 FF FF 7F 73  30 35 39 45 09 80 F0 FF  .......s059E....
0360: FF 7F F0 FF FF 7F 73 30  36 30 04 80 66 01 80 F8  ......s060..f...
0370: FF FF 7F F8 FF FF 7F 74  6C 6B 31 03 02 10 22 80  .......tlk1...".
0380: 1D 23 80 23 03 01 10 1B  80 01 8C 03 45 03 80 F8  .#.#........E...
0390: FF FF 7F F8 FF FF 7F 66  64 6F 32 04 80 55 03 80  .......fdo2..U..
03A0: F8 FF FF 7F F8 FF FF 7F  66 64 6F 32 52 09 80 F0  ........fdo2R...
03B0: FF FF 7F F0 FF FF 7F 73  30 35 37 52 09 80 F0 FF  .......s057R....
03C0: FF 7F F0 FF FF 7F 73 30  36 30 46 00 45 03 80 F0  ......s060F.E...
03D0: FF FF 7F F0 FF FF 7F 66  64 69 32 04 80 21 00     .......fdi2..!. 
```

#### Opcodes

```
  0: 0x001E [0x42] SET_CLI_EVENT_CANCEL_DATA()
  1: 0x001F [0x45] LOAD_SCHEDULED_TASK: Load scheduler "fdo2" with entities [EventEntity, EventEntity], work=[200*, 0*]
  2: 0x0030 [0x55] WAIT_LOAD_SCHEDULER: Wait for scheduler "fdo2" with entities [EventEntity, EventEntity], work=200*
  3: 0x003F [0x46] CAMERA_CONTROL: Disable user control
  4: 0x0041 [0x38] SET_CLIENT_EVENT_MODE(mode=19*)
  5: 0x0044 [0x03] Work_Zone[1] = 0*
  6: 0x0049 [0x94] LocalPlayer->Render.Flags3 ^= 0x01
  7: 0x004F [0x94] EventEntity->Render.Flags3 ^= 0x01
  8: 0x0055 [0x94] Atmacite Refiner (ID: 16986833/0x010332D1)->Render.Flags3 ^= 0x01
  9: 0x005B [0x92] EventEntity->Render.Flags3 ^= 0x01
 10: 0x0061 [0x92] Atmacite Refiner (ID: 16986833/0x010332D1)->Render.Flags3 ^= 0x01
 11: 0x0067 [0xBA] SET_ENTITY_POSITION(entity_id=LocalPlayer, pos_x=680.757*, pos_z=231.447*, pos_y=-15.750*, direction=34.5°*)
 12: 0x0074 [0x80] LOAD_WAIT(entity=LocalPlayer)
 13: 0x0079 [0x80] LOAD_WAIT(entity=EventEntity)
 14: 0x007E [0x80] LOAD_WAIT(entity=Atmacite Refiner (ID: 16986833/0x010332D1))
 15: 0x0083 [0x4A] LocalPlayer looks at EventEntity
 16: 0x008C [0x1E] EventEntity looks at LocalPlayer and starts talking
 17: 0x0091 [0x1C] WAIT(30* ticks)
 18: 0x0094 [0x02] IF !(Work_Zone[2] == 0*) GOTO 0x01EF
 19: 0x009C [0x45] LOAD_SCHEDULED_TASK: Load scheduler "s051" with entities [LocalPlayer, LocalPlayer], work=[557*, 0*]
 20: 0x00AD [0x1C] WAIT(15* ticks)
 21: 0x00B0 [0x45] LOAD_SCHEDULED_TASK: Load scheduler "fdi1" with entities [LocalPlayer, LocalPlayer], work=[200*, 0*]
 22: 0x00C1 [0x1C] WAIT(30* ticks)
 23: 0x00C4 [0x66] LOAD_EXT_SCHEDULER_MAIN: Load scheduler "tlk0" with entities [EventEntity, EventEntity], work=19*
 24: 0x00D3 [0x1D] PRINT_EVENT_MESSAGE(message_id=9579*)
    → "Well hi there, sugar! I do declare, those [bulging muscles/taut thighs] of yers look like they're [about to pop right out of yer armor/ready to choke a bear]. We could use a [guy/gal] like yew in the Voidwatch."
 25: 0x00D6 [0x23] WAIT_FOR_DIALOG_INTERACTION
 26: 0x00D7 [0x52] END_LOAD_SCHEDULER: End scheduler "s051" with entities [LocalPlayer, LocalPlayer], work=557*
 27: 0x00E6 [0x45] LOAD_SCHEDULED_TASK: Load scheduler "s052" with entities [LocalPlayer, LocalPlayer], work=[557*, 0*]
 28: 0x00F7 [0x1D] PRINT_EVENT_MESSAGE(message_id=9580*)
    → "In case yew weren't aware, hon, Jeuno's put together a group called the Voidwatch, whose brave men an' women fight the good fight in this here war of Voidwalker aggression."
 29: 0x00FA [0x23] WAIT_FOR_DIALOG_INTERACTION
 30: 0x00FB [0x1D] PRINT_EVENT_MESSAGE(message_id=9581*)
    → "...An' the fact we're here a-courtin' adventurers like yew says a barrelful about the Empire's predicament. Those trainer drips or whatchamacallsem are swarmin' these lands like flies on a dead chocobo, I tell yew what!"
 31: 0x00FE [0x23] WAIT_FOR_DIALOG_INTERACTION
 32: 0x00FF [0x66] LOAD_EXT_SCHEDULER_MAIN: Load scheduler "tlk1" with entities [EventEntity, EventEntity], work=19*
 33: 0x010E [0x52] END_LOAD_SCHEDULER: End scheduler "s052" with entities [LocalPlayer, LocalPlayer], work=557*
 34: 0x011D [0x45] LOAD_SCHEDULED_TASK: Load scheduler "s053" with entities [LocalPlayer, LocalPlayer], work=[557*, 0*]
 35: 0x012E [0x4B] UPDATE_ENTITY_YAW(entity=Camille (ID: 16986829/0x010332CD), yaw=2.7°*)
 36: 0x0135 [0x1C] WAIT(30* ticks)
 37: 0x0138 [0x1D] PRINT_EVENT_MESSAGE(message_id=9582*)
    → "But Aht Urhgan's just too stubborn to pull its uppity head from the sand an' take a gander at its surroundings."
 38: 0x013B [0x23] WAIT_FOR_DIALOG_INTERACTION
 39: 0x013C [0x1D] PRINT_EVENT_MESSAGE(message_id=9583*)
    → "I s'spect Her Majesty's one of them po' folk as cain't breathe an' think at the same time, bless her heart... Makes me wish we could send a few airships--black as the night--to open up their ports an' give 'em some common sense."
 40: 0x013F [0x23] WAIT_FOR_DIALOG_INTERACTION
 41: 0x0140 [0x52] END_LOAD_SCHEDULER: End scheduler "s053" with entities [LocalPlayer, LocalPlayer], work=557*
 42: 0x014F [0x45] LOAD_SCHEDULED_TASK: Load scheduler "s054" with entities [LocalPlayer, LocalPlayer], work=[557*, 0*]
 43: 0x0160 [0x4A] Camille (ID: 16986829/0x010332CD) looks at LocalPlayer
 44: 0x0169 [0x1C] WAIT(30* ticks)
 45: 0x016C [0x66] LOAD_EXT_SCHEDULER_MAIN: Load scheduler "tlk0" with entities [EventEntity, EventEntity], work=19*
 46: 0x017B [0x1D] PRINT_EVENT_MESSAGE(message_id=9584*)
    → "Well, she was kind enough to let us officers into the country...after the negotiators we hired persuaded her. Either way, we've been doin' nothin' but watchin' the dust drift ever since we got here! It gets me soppin' mad just thinkin' about it!"
 47: 0x017E [0x23] WAIT_FOR_DIALOG_INTERACTION
 48: 0x017F [0x66] LOAD_EXT_SCHEDULER_MAIN: Load scheduler "tlk1" with entities [EventEntity, EventEntity], work=19*
 49: 0x018E [0x52] END_LOAD_SCHEDULER: End scheduler "s054" with entities [LocalPlayer, LocalPlayer], work=557*
 50: 0x019D [0x45] LOAD_SCHEDULED_TASK: Load scheduler "s055" with entities [LocalPlayer, LocalPlayer], work=[557*, 0*]
 51: 0x01AE [0x1D] PRINT_EVENT_MESSAGE(message_id=9585*)
    → "I know they're a sovereign nation and all, but if they don't get pricked into action, those rascally Voidwalkers could knock the whole realm all cattywampus!"
 52: 0x01B1 [0x23] WAIT_FOR_DIALOG_INTERACTION
 53: 0x01B2 [0x1C] WAIT(60* ticks)
 54: 0x01B5 [0x1D] PRINT_EVENT_MESSAGE(message_id=9586*)
    → "...Or not. This wouldn't be the first time an apocalyptic vision fell flat on its face."
 55: 0x01B8 [0x23] WAIT_FOR_DIALOG_INTERACTION
 56: 0x01B9 [0x52] END_LOAD_SCHEDULER: End scheduler "s055" with entities [LocalPlayer, LocalPlayer], work=557*
 57: 0x01C8 [0x45] LOAD_SCHEDULED_TASK: Load scheduler "s056" with entities [LocalPlayer, LocalPlayer], work=[557*, 0*]
 58: 0x01D9 [0x66] LOAD_EXT_SCHEDULER_MAIN: Load scheduler "tlk0" with entities [EventEntity, EventEntity], work=19*
 59: 0x01E8 [0x1D] PRINT_EVENT_MESSAGE(message_id=9587*)
    → "Anyway, what do yew say to layin' a thumpin' on these intruders from away? If that sounds like somethin' up yer alley, why not join the Voidwatch?"
 60: 0x01EB [0x23] WAIT_FOR_DIALOG_INTERACTION
 61: 0x01EC [0x01] GOTO 0x024E
 62: 0x01EF [0x45] LOAD_SCHEDULED_TASK: Load scheduler "s061" with entities [LocalPlayer, LocalPlayer], work=[557*, 0*]
 63: 0x0200 [0x1C] WAIT(15* ticks)
 64: 0x0203 [0x45] LOAD_SCHEDULED_TASK: Load scheduler "fdi1" with entities [LocalPlayer, LocalPlayer], work=[200*, 0*]
 65: 0x0214 [0x1C] WAIT(30* ticks)
 66: 0x0217 [0x1D] PRINT_EVENT_MESSAGE(message_id=9592*)
    → "You're darn tootin' I'm angry! The Empire doesn't care a lick about the Voidwalker threat! We've got to do somethin', and soon..."
 67: 0x021A [0x23] WAIT_FOR_DIALOG_INTERACTION
 68: 0x021B [0x52] END_LOAD_SCHEDULER: End scheduler "s061" with entities [LocalPlayer, LocalPlayer], work=557*
 69: 0x022A [0x45] LOAD_SCHEDULED_TASK: Load scheduler "s056" with entities [LocalPlayer, LocalPlayer], work=[557*, 0*]
 70: 0x023B [0x66] LOAD_EXT_SCHEDULER_MAIN: Load scheduler "tlk0" with entities [EventEntity, EventEntity], work=19*
 71: 0x024A [0x1D] PRINT_EVENT_MESSAGE(message_id=9593*)
    → "Excuse me, but how'd yew like to throw a saddle on this challenge and ride it to fame and glory?"
 72: 0x024D [0x23] WAIT_FOR_DIALOG_INTERACTION

SUBROUTINE_024E:
 73: 0x024E [0x66] LOAD_EXT_SCHEDULER_MAIN: Load scheduler "tlk1" with entities [EventEntity, EventEntity], work=19*

SUBROUTINE_025D:
 74: 0x025D [0x24] CREATE_DIALOG(message_id=9588*, default_option=0*, option_flags=120*)
    → "What will you do? [Nothing at all./Ask many a question./Participate in Voidwatch Ops./Request debriefing./Request $3./Check voidstone stock./Request reward issuance.]"
 75: 0x0264 [0x25] WAIT_DIALOG_SELECT()
 76: 0x0265 [0x02] IF !(Work_Zone[0] == 0*) GOTO 0x0294
 77: 0x026D [0x52] END_LOAD_SCHEDULER: End scheduler "s056" with entities [LocalPlayer, LocalPlayer], work=557*
 78: 0x027C [0x45] LOAD_SCHEDULED_TASK: Load scheduler "s057" with entities [LocalPlayer, LocalPlayer], work=[557*, 0*]
 79: 0x028D [0x1D] PRINT_EVENT_MESSAGE(message_id=9589*)
    → "I see where yew're comin' from. "Why help those who won't help themselves?" But this is us against them! Good versus evil! If yew're not part of the solution, yew're part of the problem!"
 80: 0x0290 [0x23] WAIT_FOR_DIALOG_INTERACTION
 81: 0x0291 [0x01] GOTO 0x038C
 82: 0x0294 [0x02] IF !(Work_Zone[0] == 1*) GOTO 0x0308
 83: 0x029C [0x52] END_LOAD_SCHEDULER: End scheduler "s056" with entities [LocalPlayer, LocalPlayer], work=557*
 84: 0x02AB [0x45] LOAD_SCHEDULED_TASK: Load scheduler "s058" with entities [LocalPlayer, LocalPlayer], work=[557*, 0*]
 85: 0x02BC [0x66] LOAD_EXT_SCHEDULER_MAIN: Load scheduler "thk1" with entities [EventEntity, EventEntity], work=19*
 86: 0x02CB [0x1D] PRINT_EVENT_MESSAGE(message_id=9590*)
    → "Whoa, now! Stop pumpin' me with questions! I'm startin' to squirm like a skoffin in a snare!"
 87: 0x02CE [0x23] WAIT_FOR_DIALOG_INTERACTION
 88: 0x02CF [0x66] LOAD_EXT_SCHEDULER_MAIN: Load scheduler "thk2" with entities [EventEntity, EventEntity], work=19*
 89: 0x02DE [0x1D] PRINT_EVENT_MESSAGE(message_id=9591*)
    → "If y'all go find one o' them there Voidwatch Officers, they'll set yew right as rain."
 90: 0x02E1 [0x23] WAIT_FOR_DIALOG_INTERACTION
 91: 0x02E2 [0x52] END_LOAD_SCHEDULER: End scheduler "s058" with entities [LocalPlayer, LocalPlayer], work=557*
 92: 0x02F1 [0x45] LOAD_SCHEDULED_TASK: Load scheduler "s056" with entities [LocalPlayer, LocalPlayer], work=[557*, 0*]
 93: 0x0302 [0x01] GOTO 0x025D

SUBROUTINE_038C:
 94: 0x038C [0x45] LOAD_SCHEDULED_TASK: Load scheduler "fdo2" with entities [EventEntity, EventEntity], work=[200*, 0*]
 95: 0x039D [0x55] WAIT_LOAD_SCHEDULER: Wait for scheduler "fdo2" with entities [EventEntity, EventEntity], work=200*
 96: 0x03AC [0x52] END_LOAD_SCHEDULER: End scheduler "s057" with entities [LocalPlayer, LocalPlayer], work=557*
 97: 0x03BB [0x52] END_LOAD_SCHEDULER: End scheduler "s060" with entities [LocalPlayer, LocalPlayer], work=557*
 98: 0x03CA [0x46] CAMERA_CONTROL: Restore default settings
 99: 0x03CC [0x45] LOAD_SCHEDULED_TASK: Load scheduler "fdi2" with entities [LocalPlayer, LocalPlayer], work=[200*, 0*]
100: 0x03DD [0x21] END_EVENT
101: 0x03DE [0x00] END_REQSTACK()
```

#### Data or dead code:

```
# Dead code (unreachable instructions):
     0x0305 [0x01] GOTO 0x038C
```

### Event 629

#### Metadata

| Field        | Value      |
|--------------|------------|
| Entrypoint   | 0x03DF     |
| Data Size    | 1504 bytes |
| Instructions | 194        |

```
      00 01 02 03 04 05 06 07  08 09 0A 0B 0C 0D 0E 0F
      -- -- -- -- -- -- -- --  -- -- -- -- -- -- -- --
03D0:                                               42                 B
03E0: 45 03 80 F8 FF FF 7F F8  FF FF 7F 66 64 6F 32 04  E..........fdo2.
03F0: 80 55 03 80 F8 FF FF 7F  F8 FF FF 7F 66 64 6F 32  .U..........fdo2
0400: 46 01 38 01 80 94 01 F0  FF FF 7F 94 01 F8 FF FF  F.8.............
0410: 7F 94 01 D1 32 03 01 92  01 F8 FF FF 7F 92 01 D1  ....2...........
0420: 32 03 01 BA F0 FF FF 7F  05 80 06 80 07 80 08 80  2...............
0430: 80 F0 FF FF 7F 80 F8 FF  FF 7F 80 D1 32 03 01 4A  ............2..J
0440: F0 FF FF 7F F8 FF FF 7F  1E F0 FF FF 7F 1C 00 80  ................
0450: 45 09 80 F0 FF FF 7F F0  FF FF 7F 73 30 36 32 04  E..........s062.
0460: 80 1C 0A 80 45 03 80 F0  FF FF 7F F0 FF FF 7F 66  ....E..........f
0470: 64 69 31 04 80 1C 0A 80  66 01 80 F8 FF FF 7F F8  di1.....f.......
0480: FF FF 7F 74 6C 6B 30 1D  24 80 23 52 09 80 F0 FF  ...tlk0.$.#R....
0490: FF 7F F0 FF FF 7F 73 30  36 32 45 09 80 F0 FF FF  ......s062E.....
04A0: 7F F0 FF FF 7F 73 30 36  33 04 80 1D 25 80 23 1D  .....s063...%.#.
04B0: 26 80 23 1D 27 80 23 5D  04 80 19 80 66 01 80 F8  &.#.'.#]....f...
04C0: FF FF 7F F8 FF FF 7F 74  6C 6B 31 2F 00 96 32 03  .......tlk1/..2.
04D0: 01 2F 00 CE 32 03 01 2F  00 CF 32 03 01 2F 00 D0  ./..2../..2../..
04E0: 32 03 01 4E 00 96 32 03  01 4E 00 CE 32 03 01 4E  2..N..2..N..2..N
04F0: 00 CF 32 03 01 4E 00 D0  32 03 01 92 01 96 32 03  ..2..N..2.....2.
0500: 01 92 01 CE 32 03 01 92  01 CF 32 03 01 92 01 D0  ....2.....2.....
0510: 32 03 01 94 01 96 32 03  01 94 01 CE 32 03 01 94  2.....2.....2...
0520: 01 CF 32 03 01 94 01 D0  32 03 01 BA 96 32 03 01  ..2.....2....2..
0530: 28 80 29 80 2A 80 2B 80  BA CE 32 03 01 2C 80 2D  (.).*.+...2..,.-
0540: 80 2E 80 2B 80 BA CF 32  03 01 2F 80 30 80 31 80  ...+...2../.0.1.
0550: 2B 80 BA D0 32 03 01 32  80 33 80 34 80 2B 80 80  +...2..2.3.4.+..
0560: 96 32 03 01 80 CE 32 03  01 80 CF 32 03 01 80 D0  .2....2....2....
0570: 32 03 01 27 05 96 32 03  01 05 1C 35 80 27 05 CE  2..'..2....5.'..
0580: 32 03 01 02 1C 35 80 27  05 CF 32 03 01 02 1C 35  2....5.'..2....5
0590: 80 27 05 D0 32 03 01 02  1C 0A 80 52 09 80 F0 FF  .'..2......R....
05A0: FF 7F F0 FF FF 7F 73 30  36 33 45 09 80 F0 FF FF  ......s063E.....
05B0: 7F F0 FF FF 7F 73 30 36  35 04 80 1C 36 80 52 09  .....s065...6.R.
05C0: 80 F0 FF FF 7F F0 FF FF  7F 73 30 36 35 45 09 80  .........s065E..
05D0: F0 FF FF 7F F0 FF FF 7F  73 30 36 34 04 80 1C 13  ........s064....
05E0: 80 1E 96 32 03 01 7B F8  FF FF 7F 1C 00 80 52 09  ...2..{.......R.
05F0: 80 F0 FF FF 7F F0 FF FF  7F 73 30 36 34 45 09 80  .........s064E..
0600: F0 FF FF 7F F0 FF FF 7F  73 30 36 36 04 80 1C 0A  ........s066....
0610: 80 7A 00 96 32 03 01 7A  00 CE 32 03 01 7A 00 CF  .z..2..z..2..z..
0620: 32 03 01 7A 00 D0 32 03  01 1D 37 80 23 5C 00 38  2..z..2...7.#\.8
0630: 80 5C 01 38 80 9A BA 96  32 03 01 39 80 3A 80 3B  .\.8....2..9.:.;
0640: 80 3C 80 BA CE 32 03 01  3D 80 3E 80 3F 80 40 80  .<...2..=.>.?.@.
0650: BA CF 32 03 01 41 80 42  80 43 80 44 80 BA D0 32  ..2..A.B.C.D...2
0660: 03 01 45 80 46 80 47 80  48 80 80 96 32 03 01 80  ..E.F.G.H...2...
0670: CE 32 03 01 80 CF 32 03  01 80 D0 32 03 01 4A F0  .2....2....2..J.
0680: FF FF 7F 96 32 03 01 79  00 D1 32 03 01 96 32 03  ....2..y..2...2.
0690: 01 27 05 96 32 03 01 06  1C 35 80 27 05 CE 32 03  .'..2....5.'..2.
06A0: 01 03 1C 35 80 27 05 CF  32 03 01 03 1C 35 80 27  ...5.'..2....5.'
06B0: 05 D0 32 03 01 03 1C 0A  80 52 09 80 F0 FF FF 7F  ..2......R......
06C0: F0 FF FF 7F 73 30 36 36  45 09 80 F0 FF FF 7F F0  ....s066E.......
06D0: FF FF 7F 73 30 36 37 04  80 79 00 F8 FF FF 7F 96  ...s067..y......
06E0: 32 03 01 2A 05 96 32 03  01 52 09 80 F0 FF FF 7F  2..*..2..R......
06F0: F0 FF FF 7F 73 30 36 37  45 09 80 F0 FF FF 7F F0  ....s067E.......
0700: FF FF 7F 73 30 36 38 04  80 2B 96 32 03 01 49 80  ...s068..+.2..I.
0710: 23 52 09 80 F0 FF FF 7F  F0 FF FF 7F 73 30 36 38  #R..........s068
0720: 45 09 80 F0 FF FF 7F F0  FF FF 7F 73 30 36 39 04  E..........s069.
0730: 80 66 01 80 F8 FF FF 7F  F8 FF FF 7F 74 6C 6B 30  .f..........tlk0
0740: 1D 4A 80 23 66 01 80 F8  FF FF 7F F8 FF FF 7F 74  .J.#f..........t
0750: 6C 6B 31 52 09 80 F0 FF  FF 7F F0 FF FF 7F 73 30  lk1R..........s0
0760: 36 39 45 09 80 F0 FF FF  7F F0 FF FF 7F 73 30 37  69E..........s07
0770: 31 04 80 7B 96 32 03 01  2B CE 32 03 01 4B 80 23  1..{.2..+.2..K.#
0780: 5B 4C 80 96 32 03 01 96  32 03 01 6F 65 30 30 1C  [L..2...2..oe00.
0790: 4D 80 52 09 80 F0 FF FF  7F F0 FF FF 7F 73 30 37  M.R..........s07
07A0: 31 45 09 80 F0 FF FF 7F  F0 FF FF 7F 73 30 37 30  1E..........s070
07B0: 04 80 79 00 CE 32 03 01  96 32 03 01 2B 96 32 03  ..y..2...2..+.2.
07C0: 01 4E 80 23 53 96 32 03  01 96 32 03 01 6F 65 30  .N.#S.2...2..oe0
07D0: 30 52 09 80 F0 FF FF 7F  F0 FF FF 7F 73 30 37 30  0R..........s070
07E0: 45 09 80 F0 FF FF 7F F0  FF FF 7F 73 30 37 32 04  E..........s072.
07F0: 80 1C 0A 80 79 00 CE 32  03 01 F8 FF FF 7F 6B 69  ....y..2......ki
0800: 64 6C 30 96 32 03 01 1D  4F 80 23 52 09 80 F0 FF  dl0.2...O.#R....
0810: FF 7F F0 FF FF 7F 73 30  37 32 45 09 80 F0 FF FF  ......s072E.....
0820: 7F F0 FF FF 7F 73 30 37  33 04 80 2B 96 32 03 01  .....s073..+.2..
0830: 50 80 23 52 09 80 F0 FF  FF 7F F0 FF FF 7F 73 30  P.#R..........s0
0840: 37 33 45 09 80 F0 FF FF  7F F0 FF FF 7F 73 30 37  73E..........s07
0850: 34 04 80 2B 96 32 03 01  51 80 27 05 96 32 03 01  4..+.2..Q.'..2..
0860: 07 1C 52 80 27 05 D0 32  03 01 04 1C 52 80 27 05  ..R.'..2....R.'.
0870: CF 32 03 01 04 1C 35 80  27 05 CE 32 03 01 04 1C  .2....5.'..2....
0880: 53 80 5D 04 80 19 80 52  09 80 F0 FF FF 7F F0 FF  S.]....R........
0890: FF 7F 73 30 37 34 45 09  80 F0 FF FF 7F F0 FF FF  ..s074E.........
08A0: 7F 73 30 37 35 04 80 1C  19 80 52 09 80 F0 FF FF  .s075.....R.....
08B0: 7F F0 FF FF 7F 73 30 37  35 45 09 80 F0 FF FF 7F  .....s075E......
08C0: F0 FF FF 7F 73 30 37 36  04 80 1C 0A 80 7A 00 96  ....s076.....z..
08D0: 32 03 01 7A 00 CE 32 03  01 7A 00 CF 32 03 01 7A  2..z..2..z..2..z
08E0: 00 D0 32 03 01 6E F8 FF  FF 7F 54 80 99 F8 FF FF  ..2..n....T.....
08F0: 7F 1D 55 80 23 5C 00 56  80 5C 01 56 80 9A 52 09  ..U.#\.V.\.V..R.
0900: 80 F0 FF FF 7F F0 FF FF  7F 73 30 37 36 45 09 80  .........s076E..
0910: F0 FF FF 7F F0 FF FF 7F  73 30 37 37 04 80 1E F0  ........s077....
0920: FF FF 7F 1C 00 80 4A F0  FF FF 7F F8 FF FF 7F 66  ......J........f
0930: 01 80 F8 FF FF 7F F8 FF  FF 7F 74 6C 6B 30 03 02  ..........tlk0..
0940: 10 20 80 1D 57 80 23 66  01 80 F8 FF FF 7F F8 FF  . ..W.#f........
0950: FF 7F 74 6C 6B 31 1C 00  80 66 01 80 F8 FF FF 7F  ..tlk1...f......
0960: F8 FF FF 7F 74 68 6B 31  1D 58 80 23 45 03 80 F8  ....thk1.X.#E...
0970: FF FF 7F F8 FF FF 7F 66  64 6F 32 04 80 55 03 80  .......fdo2..U..
0980: F8 FF FF 7F F8 FF FF 7F  66 64 6F 32 52 09 80 F0  ........fdo2R...
0990: FF FF 7F F0 FF FF 7F 73  30 36 33 52 09 80 F0 FF  .......s063R....
09A0: FF 7F F0 FF FF 7F 73 30  37 37 46 00 45 03 80 F0  ......s077F.E...
09B0: FF FF 7F F0 FF FF 7F 66  64 69 32 04 80 21 00     .......fdi2..!. 
```

#### Opcodes

```
  0: 0x03DF [0x42] SET_CLI_EVENT_CANCEL_DATA()
  1: 0x03E0 [0x45] LOAD_SCHEDULED_TASK: Load scheduler "fdo2" with entities [EventEntity, EventEntity], work=[200*, 0*]
  2: 0x03F1 [0x55] WAIT_LOAD_SCHEDULER: Wait for scheduler "fdo2" with entities [EventEntity, EventEntity], work=200*
  3: 0x0400 [0x46] CAMERA_CONTROL: Disable user control
  4: 0x0402 [0x38] SET_CLIENT_EVENT_MODE(mode=19*)
  5: 0x0405 [0x94] LocalPlayer->Render.Flags3 ^= 0x01
  6: 0x040B [0x94] EventEntity->Render.Flags3 ^= 0x01
  7: 0x0411 [0x94] Atmacite Refiner (ID: 16986833/0x010332D1)->Render.Flags3 ^= 0x01
  8: 0x0417 [0x92] EventEntity->Render.Flags3 ^= 0x01
  9: 0x041D [0x92] Atmacite Refiner (ID: 16986833/0x010332D1)->Render.Flags3 ^= 0x01
 10: 0x0423 [0xBA] SET_ENTITY_POSITION(entity_id=LocalPlayer, pos_x=680.757*, pos_z=231.447*, pos_y=-15.750*, direction=34.5°*)
 11: 0x0430 [0x80] LOAD_WAIT(entity=LocalPlayer)
 12: 0x0435 [0x80] LOAD_WAIT(entity=EventEntity)
 13: 0x043A [0x80] LOAD_WAIT(entity=Atmacite Refiner (ID: 16986833/0x010332D1))
 14: 0x043F [0x4A] LocalPlayer looks at EventEntity
 15: 0x0448 [0x1E] EventEntity looks at LocalPlayer and starts talking
 16: 0x044D [0x1C] WAIT(30* ticks)
 17: 0x0450 [0x45] LOAD_SCHEDULED_TASK: Load scheduler "s062" with entities [LocalPlayer, LocalPlayer], work=[557*, 0*]
 18: 0x0461 [0x1C] WAIT(15* ticks)
 19: 0x0464 [0x45] LOAD_SCHEDULED_TASK: Load scheduler "fdi1" with entities [LocalPlayer, LocalPlayer], work=[200*, 0*]
 20: 0x0475 [0x1C] WAIT(15* ticks)
 21: 0x0478 [0x66] LOAD_EXT_SCHEDULER_MAIN: Load scheduler "tlk0" with entities [EventEntity, EventEntity], work=19*
 22: 0x0487 [0x1D] PRINT_EVENT_MESSAGE(message_id=9600*)
    → "Well now, I heard yew been workin' harder 'n a one-legged man at a tail-kickin' contest. Wonderful work, hon!"
 23: 0x048A [0x23] WAIT_FOR_DIALOG_INTERACTION
 24: 0x048B [0x52] END_LOAD_SCHEDULER: End scheduler "s062" with entities [LocalPlayer, LocalPlayer], work=557*
 25: 0x049A [0x45] LOAD_SCHEDULED_TASK: Load scheduler "s063" with entities [LocalPlayer, LocalPlayer], work=[557*, 0*]
 26: 0x04AB [0x1D] PRINT_EVENT_MESSAGE(message_id=9601*)
    → "Don't forget though, Voidwalkers always come back with a vengeance like ornery garden weeds."
 27: 0x04AE [0x23] WAIT_FOR_DIALOG_INTERACTION
 28: 0x04AF [0x1D] PRINT_EVENT_MESSAGE(message_id=9602*)
    → "And since we haven't found their roots yet, all we can do is cut them down every time they pop back up."
 29: 0x04B2 [0x23] WAIT_FOR_DIALOG_INTERACTION
 30: 0x04B3 [0x1D] PRINT_EVENT_MESSAGE(message_id=9603*)
    → "Yew'll be up against some darn stiff competition, but an experienced adventurer like yew can soften it up in no time, ain't that right, hon?"
 31: 0x04B6 [0x23] WAIT_FOR_DIALOG_INTERACTION
 32: 0x04B7 [0x5D] SET_MUSIC_VOLUME(volume=0*, fade_time=120*)
 33: 0x04BC [0x66] LOAD_EXT_SCHEDULER_MAIN: Load scheduler "tlk1" with entities [EventEntity, EventEntity], work=19*
 34: 0x04CB [0x2F] Raubahn (ID: 16986774/0x01033296)->Render.Flags0 &= ~0x80000 // Bit 19
 35: 0x04D1 [0x2F] Sajhaam (ID: 16986830/0x010332CE)->Render.Flags0 &= ~0x80000 // Bit 19
 36: 0x04D7 [0x2F] Unnamed NPC (ID: 16986831/0x010332CF)->Render.Flags0 &= ~0x80000 // Bit 19
 37: 0x04DD [0x2F] Unnamed NPC (ID: 16986832/0x010332D0)->Render.Flags0 &= ~0x80000 // Bit 19
 38: 0x04E3 [0x4E] SET_ENTITY_HIDE_FLAG: Show Raubahn (ID: 16986774/0x01033296)
 39: 0x04E9 [0x4E] SET_ENTITY_HIDE_FLAG: Show Sajhaam (ID: 16986830/0x010332CE)
 40: 0x04EF [0x4E] SET_ENTITY_HIDE_FLAG: Show Unnamed NPC (ID: 16986831/0x010332CF)
 41: 0x04F5 [0x4E] SET_ENTITY_HIDE_FLAG: Show Unnamed NPC (ID: 16986832/0x010332D0)
 42: 0x04FB [0x92] Raubahn (ID: 16986774/0x01033296)->Render.Flags3 ^= 0x01
 43: 0x0501 [0x92] Sajhaam (ID: 16986830/0x010332CE)->Render.Flags3 ^= 0x01
 44: 0x0507 [0x92] Unnamed NPC (ID: 16986831/0x010332CF)->Render.Flags3 ^= 0x01
 45: 0x050D [0x92] Unnamed NPC (ID: 16986832/0x010332D0)->Render.Flags3 ^= 0x01
 46: 0x0513 [0x94] Raubahn (ID: 16986774/0x01033296)->Render.Flags3 ^= 0x01
 47: 0x0519 [0x94] Sajhaam (ID: 16986830/0x010332CE)->Render.Flags3 ^= 0x01
 48: 0x051F [0x94] Unnamed NPC (ID: 16986831/0x010332CF)->Render.Flags3 ^= 0x01
 49: 0x0525 [0x94] Unnamed NPC (ID: 16986832/0x010332D0)->Render.Flags3 ^= 0x01
 50: 0x052B [0xBA] SET_ENTITY_POSITION(entity_id=Raubahn (ID: 16986774/0x01033296), pos_x=673.649*, pos_z=206.331*, pos_y=-15.975*, direction=265.9°*)
 51: 0x0538 [0xBA] SET_ENTITY_POSITION(entity_id=Sajhaam (ID: 16986830/0x010332CE), pos_x=674.487*, pos_z=205.075*, pos_y=-16.012*, direction=265.9°*)
 52: 0x0545 [0xBA] SET_ENTITY_POSITION(entity_id=Unnamed NPC (ID: 16986831/0x010332CF), pos_x=672.407*, pos_z=205.381*, pos_y=-16.202*, direction=265.9°*)
 53: 0x0552 [0xBA] SET_ENTITY_POSITION(entity_id=Unnamed NPC (ID: 16986832/0x010332D0), pos_x=673.434*, pos_z=204.520*, pos_y=-16.241*, direction=265.9°*)
 54: 0x055F [0x80] LOAD_WAIT(entity=Raubahn (ID: 16986774/0x01033296))
 55: 0x0564 [0x80] LOAD_WAIT(entity=Sajhaam (ID: 16986830/0x010332CE))
 56: 0x0569 [0x80] LOAD_WAIT(entity=Unnamed NPC (ID: 16986831/0x010332CF))
 57: 0x056E [0x80] LOAD_WAIT(entity=Unnamed NPC (ID: 16986832/0x010332D0))
 58: 0x0573 [0x27] REQ_SET(priority=0x05, entity_id=Raubahn (ID: 16986774/0x01033296), tag_num=0x05)
 59: 0x057A [0x1C] WAIT(5* ticks)
 60: 0x057D [0x27] REQ_SET(priority=0x05, entity_id=Sajhaam (ID: 16986830/0x010332CE), tag_num=0x02)
 61: 0x0584 [0x1C] WAIT(5* ticks)
 62: 0x0587 [0x27] REQ_SET(priority=0x05, entity_id=Unnamed NPC (ID: 16986831/0x010332CF), tag_num=0x02)
 63: 0x058E [0x1C] WAIT(5* ticks)
 64: 0x0591 [0x27] REQ_SET(priority=0x05, entity_id=Unnamed NPC (ID: 16986832/0x010332D0), tag_num=0x02)
 65: 0x0598 [0x1C] WAIT(15* ticks)
 66: 0x059B [0x52] END_LOAD_SCHEDULER: End scheduler "s063" with entities [LocalPlayer, LocalPlayer], work=557*
 67: 0x05AA [0x45] LOAD_SCHEDULED_TASK: Load scheduler "s065" with entities [LocalPlayer, LocalPlayer], work=[557*, 0*]
 68: 0x05BB [0x1C] WAIT(100* ticks)
 69: 0x05BE [0x52] END_LOAD_SCHEDULER: End scheduler "s065" with entities [LocalPlayer, LocalPlayer], work=557*
 70: 0x05CD [0x45] LOAD_SCHEDULED_TASK: Load scheduler "s064" with entities [LocalPlayer, LocalPlayer], work=[557*, 0*]
 71: 0x05DE [0x1C] WAIT(60* ticks)
 72: 0x05E1 [0x1E] EventEntity looks at Raubahn (ID: 16986774/0x01033296) and starts talking
 73: 0x05E6 [0x7B] EventEntity stops talking
 74: 0x05EB [0x1C] WAIT(30* ticks)
 75: 0x05EE [0x52] END_LOAD_SCHEDULER: End scheduler "s064" with entities [LocalPlayer, LocalPlayer], work=557*
 76: 0x05FD [0x45] LOAD_SCHEDULED_TASK: Load scheduler "s066" with entities [LocalPlayer, LocalPlayer], work=[557*, 0*]
 77: 0x060E [0x1C] WAIT(15* ticks)
 78: 0x0611 [0x7A] VM_CONTROL: Reset VM for Raubahn (ID: 16986774/0x01033296)
 79: 0x0617 [0x7A] VM_CONTROL: Reset VM for Sajhaam (ID: 16986830/0x010332CE)
 80: 0x061D [0x7A] VM_CONTROL: Reset VM for Unnamed NPC (ID: 16986831/0x010332CF)
 81: 0x0623 [0x7A] VM_CONTROL: Reset VM for Unnamed NPC (ID: 16986832/0x010332D0)
 82: 0x0629 [0x1D] PRINT_EVENT_MESSAGE(message_id=9604*)
    → "By golly, what now? ...The Immortals?"
 83: 0x062C [0x23] WAIT_FOR_DIALOG_INTERACTION
 84: 0x062D [0x5C] MUSIC_CONTROL: Set Idle (Day) music to song 185*
 85: 0x0631 [0x5C] MUSIC_CONTROL: Set Idle (Night) music to song 185*
 86: 0x0635 [0x9A] WAIT_MUSIC_SERVER()
 87: 0x0636 [0xBA] SET_ENTITY_POSITION(entity_id=Raubahn (ID: 16986774/0x01033296), pos_x=675.067*, pos_z=222.014*, pos_y=-15.580*, direction=285.2°*)
 88: 0x0643 [0xBA] SET_ENTITY_POSITION(entity_id=Sajhaam (ID: 16986830/0x010332CE), pos_x=675.524*, pos_z=220.969*, pos_y=-15.542*, direction=284.7°*)
 89: 0x0650 [0xBA] SET_ENTITY_POSITION(entity_id=Unnamed NPC (ID: 16986831/0x010332CF), pos_x=673.363*, pos_z=221.941*, pos_y=-15.982*, direction=295.0°*)
 90: 0x065D [0xBA] SET_ENTITY_POSITION(entity_id=Unnamed NPC (ID: 16986832/0x010332D0), pos_x=673.444*, pos_z=220.180*, pos_y=-15.715*, direction=292.9°*)
 91: 0x066A [0x80] LOAD_WAIT(entity=Raubahn (ID: 16986774/0x01033296))
 92: 0x066F [0x80] LOAD_WAIT(entity=Sajhaam (ID: 16986830/0x010332CE))
 93: 0x0674 [0x80] LOAD_WAIT(entity=Unnamed NPC (ID: 16986831/0x010332CF))
 94: 0x0679 [0x80] LOAD_WAIT(entity=Unnamed NPC (ID: 16986832/0x010332D0))
 95: 0x067E [0x4A] LocalPlayer looks at Raubahn (ID: 16986774/0x01033296)
 96: 0x0687 [0x79] Atmacite Refiner (ID: 16986833/0x010332D1) looks at Raubahn (ID: 16986774/0x01033296) (Basic look)
 97: 0x0691 [0x27] REQ_SET(priority=0x05, entity_id=Raubahn (ID: 16986774/0x01033296), tag_num=0x06)
 98: 0x0698 [0x1C] WAIT(5* ticks)
 99: 0x069B [0x27] REQ_SET(priority=0x05, entity_id=Sajhaam (ID: 16986830/0x010332CE), tag_num=0x03)
100: 0x06A2 [0x1C] WAIT(5* ticks)
101: 0x06A5 [0x27] REQ_SET(priority=0x05, entity_id=Unnamed NPC (ID: 16986831/0x010332CF), tag_num=0x03)
102: 0x06AC [0x1C] WAIT(5* ticks)
103: 0x06AF [0x27] REQ_SET(priority=0x05, entity_id=Unnamed NPC (ID: 16986832/0x010332D0), tag_num=0x03)
104: 0x06B6 [0x1C] WAIT(15* ticks)
105: 0x06B9 [0x52] END_LOAD_SCHEDULER: End scheduler "s066" with entities [LocalPlayer, LocalPlayer], work=557*
106: 0x06C8 [0x45] LOAD_SCHEDULED_TASK: Load scheduler "s067" with entities [LocalPlayer, LocalPlayer], work=[557*, 0*]
107: 0x06D9 [0x79] EventEntity looks at Raubahn (ID: 16986774/0x01033296) (Basic look)
108: 0x06E3 [0x2A] GET_REQ_LEVEL(level=5, entity_id=Raubahn (ID: 16986774/0x01033296))
109: 0x06E9 [0x52] END_LOAD_SCHEDULER: End scheduler "s067" with entities [LocalPlayer, LocalPlayer], work=557*
110: 0x06F8 [0x45] LOAD_SCHEDULED_TASK: Load scheduler "s068" with entities [LocalPlayer, LocalPlayer], work=[557*, 0*]
111: 0x0709 [0x2B] Raubahn (ID: 16986774/0x01033296) [9605*]:
    → "Are you that wench from the Middle Lands?"
112: 0x0710 [0x23] WAIT_FOR_DIALOG_INTERACTION
113: 0x0711 [0x52] END_LOAD_SCHEDULER: End scheduler "s068" with entities [LocalPlayer, LocalPlayer], work=557*
114: 0x0720 [0x45] LOAD_SCHEDULED_TASK: Load scheduler "s069" with entities [LocalPlayer, LocalPlayer], work=[557*, 0*]
115: 0x0731 [0x66] LOAD_EXT_SCHEDULER_MAIN: Load scheduler "tlk0" with entities [EventEntity, EventEntity], work=19*
116: 0x0740 [0x1D] PRINT_EVENT_MESSAGE(message_id=9606*)
    → "I'm from there, but I don't take kindly to bein' called a wench, deary."
117: 0x0743 [0x23] WAIT_FOR_DIALOG_INTERACTION
118: 0x0744 [0x66] LOAD_EXT_SCHEDULER_MAIN: Load scheduler "tlk1" with entities [EventEntity, EventEntity], work=19*
119: 0x0753 [0x52] END_LOAD_SCHEDULER: End scheduler "s069" with entities [LocalPlayer, LocalPlayer], work=557*
120: 0x0762 [0x45] LOAD_SCHEDULED_TASK: Load scheduler "s071" with entities [LocalPlayer, LocalPlayer], work=[557*, 0*]
121: 0x0773 [0x7B] Raubahn (ID: 16986774/0x01033296) stops talking
122: 0x0778 [0x2B] Sajhaam (ID: 16986830/0x010332CE) [9607*]:
    → "You should learn to keep those lips of yours sealed."
123: 0x077F [0x23] WAIT_FOR_DIALOG_INTERACTION
124: 0x0780 [0x5B] LOAD_EXT_SCHEDULER: Load scheduler "oe00" with entities [Raubahn (ID: 16986774/0x01033296), Raubahn (ID: 16986774/0x01033296)], work=839*
125: 0x078F [0x1C] WAIT(90* ticks)
126: 0x0792 [0x52] END_LOAD_SCHEDULER: End scheduler "s071" with entities [LocalPlayer, LocalPlayer], work=557*
127: 0x07A1 [0x45] LOAD_SCHEDULED_TASK: Load scheduler "s070" with entities [LocalPlayer, LocalPlayer], work=[557*, 0*]
128: 0x07B2 [0x79] Sajhaam (ID: 16986830/0x010332CE) looks at Raubahn (ID: 16986774/0x01033296) (Basic look)
129: 0x07BC [0x2B] Raubahn (ID: 16986774/0x01033296) [9608*]:
    → "Waste not your breath on this wench. We do not need any more secrets being leaked."
130: 0x07C3 [0x23] WAIT_FOR_DIALOG_INTERACTION
131: 0x07C4 [0x53] WAIT_SCHEDULER_TASK: Wait for scheduler "oe00" with entities [Raubahn (ID: 16986774/0x01033296), Raubahn (ID: 16986774/0x01033296)]
132: 0x07D1 [0x52] END_LOAD_SCHEDULER: End scheduler "s070" with entities [LocalPlayer, LocalPlayer], work=557*
133: 0x07E0 [0x45] LOAD_SCHEDULED_TASK: Load scheduler "s072" with entities [LocalPlayer, LocalPlayer], work=[557*, 0*]
134: 0x07F1 [0x1C] WAIT(15* ticks)
135: 0x07F4 [0x79] Sajhaam (ID: 16986830/0x010332CE) looks at EventEntity (Basic look)
136: 0x07FE [0x6B] STOP_AND_IDLE: Raubahn (ID: 16986774/0x01033296) stops current action and resets to idle (animation="idl0")
137: 0x0807 [0x1D] PRINT_EVENT_MESSAGE(message_id=9609*)
    → "If yew want to talk to me about leaking, yew'd best check yer britches first. What do yew need, anyway?"
138: 0x080A [0x23] WAIT_FOR_DIALOG_INTERACTION
139: 0x080B [0x52] END_LOAD_SCHEDULER: End scheduler "s072" with entities [LocalPlayer, LocalPlayer], work=557*
140: 0x081A [0x45] LOAD_SCHEDULED_TASK: Load scheduler "s073" with entities [LocalPlayer, LocalPlayer], work=[557*, 0*]
141: 0x082B [0x2B] Raubahn (ID: 16986774/0x01033296) [9610*]:
    → "A bizarre phenomenon has occurred in a nearby cavern. I believe you refer to them as..."planar rifts." Those are indeed what you seek, are they not?"
142: 0x0832 [0x23] WAIT_FOR_DIALOG_INTERACTION
143: 0x0833 [0x52] END_LOAD_SCHEDULER: End scheduler "s073" with entities [LocalPlayer, LocalPlayer], work=557*
144: 0x0842 [0x45] LOAD_SCHEDULED_TASK: Load scheduler "s074" with entities [LocalPlayer, LocalPlayer], work=[557*, 0*]
145: 0x0853 [0x2B] Raubahn (ID: 16986774/0x01033296) [9611*]:
    → "As you have no other business in Her Imperial Majesty's lands, you will deal with this menace immediately. That is all."
146: 0x085A [0x27] REQ_SET(priority=0x05, entity_id=Raubahn (ID: 16986774/0x01033296), tag_num=0x07)
147: 0x0861 [0x1C] WAIT(10* ticks)
148: 0x0864 [0x27] REQ_SET(priority=0x05, entity_id=Unnamed NPC (ID: 16986832/0x010332D0), tag_num=0x04)
149: 0x086B [0x1C] WAIT(10* ticks)
150: 0x086E [0x27] REQ_SET(priority=0x05, entity_id=Unnamed NPC (ID: 16986831/0x010332CF), tag_num=0x04)
151: 0x0875 [0x1C] WAIT(5* ticks)
152: 0x0878 [0x27] REQ_SET(priority=0x05, entity_id=Sajhaam (ID: 16986830/0x010332CE), tag_num=0x04)
153: 0x087F [0x1C] WAIT(350* ticks)
154: 0x0882 [0x5D] SET_MUSIC_VOLUME(volume=0*, fade_time=120*)
155: 0x0887 [0x52] END_LOAD_SCHEDULER: End scheduler "s074" with entities [LocalPlayer, LocalPlayer], work=557*
156: 0x0896 [0x45] LOAD_SCHEDULED_TASK: Load scheduler "s075" with entities [LocalPlayer, LocalPlayer], work=[557*, 0*]
157: 0x08A7 [0x1C] WAIT(120* ticks)
158: 0x08AA [0x52] END_LOAD_SCHEDULER: End scheduler "s075" with entities [LocalPlayer, LocalPlayer], work=557*
159: 0x08B9 [0x45] LOAD_SCHEDULED_TASK: Load scheduler "s076" with entities [LocalPlayer, LocalPlayer], work=[557*, 0*]
160: 0x08CA [0x1C] WAIT(15* ticks)
161: 0x08CD [0x7A] VM_CONTROL: Reset VM for Raubahn (ID: 16986774/0x01033296)
162: 0x08D3 [0x7A] VM_CONTROL: Reset VM for Sajhaam (ID: 16986830/0x010332CE)
163: 0x08D9 [0x7A] VM_CONTROL: Reset VM for Unnamed NPC (ID: 16986831/0x010332CF)
164: 0x08DF [0x7A] VM_CONTROL: Reset VM for Unnamed NPC (ID: 16986832/0x010332D0)
165: 0x08E5 [0x6E] EventEntity uses emote 6*
166: 0x08EC [0x99] Wait for EventEntity animation to complete
167: 0x08F1 [0x1D] PRINT_EVENT_MESSAGE(message_id=9612*)
    → "Good gracious, that man scares me more than shears do a moogle! Those beady eyes, that twisted scowl...I wouldn't bat an eye if someone told me he was a Voidwalker himself. I could've sworn he was fixin' to unhinge his jaws and swallow me whole!"
168: 0x08F4 [0x23] WAIT_FOR_DIALOG_INTERACTION
169: 0x08F5 [0x5C] MUSIC_CONTROL: Set Idle (Day) music to song 149*
170: 0x08F9 [0x5C] MUSIC_CONTROL: Set Idle (Night) music to song 149*
171: 0x08FD [0x9A] WAIT_MUSIC_SERVER()
172: 0x08FE [0x52] END_LOAD_SCHEDULER: End scheduler "s076" with entities [LocalPlayer, LocalPlayer], work=557*
173: 0x090D [0x45] LOAD_SCHEDULED_TASK: Load scheduler "s077" with entities [LocalPlayer, LocalPlayer], work=[557*, 0*]
174: 0x091E [0x1E] EventEntity looks at LocalPlayer and starts talking
175: 0x0923 [0x1C] WAIT(30* ticks)
176: 0x0926 [0x4A] LocalPlayer looks at EventEntity
177: 0x092F [0x66] LOAD_EXT_SCHEDULER_MAIN: Load scheduler "tlk0" with entities [EventEntity, EventEntity], work=19*
178: 0x093E [0x03] Work_Zone[2] = 2062*
179: 0x0943 [0x1D] PRINT_EVENT_MESSAGE(message_id=9613*)
    → "Look! He was even scary enough to make yer $3 turn all diff'rnt! At least he told us somethin' about a distortion in a dank cavern that gets invaded by outlaws every night."
180: 0x0946 [0x23] WAIT_FOR_DIALOG_INTERACTION
181: 0x0947 [0x66] LOAD_EXT_SCHEDULER_MAIN: Load scheduler "tlk1" with entities [EventEntity, EventEntity], work=19*
182: 0x0956 [0x1C] WAIT(30* ticks)
183: 0x0959 [0x66] LOAD_EXT_SCHEDULER_MAIN: Load scheduler "thk1" with entities [EventEntity, EventEntity], work=19*
184: 0x0968 [0x1D] PRINT_EVENT_MESSAGE(message_id=9614*)
    → "What? He didn't say anythin' like that? Well, I guess I just had to fill in the gaps myself! His description was sparser'n the hairs on my pappy's head! Anyway, I reckon Aydeewa Subterrane's the only cavern 'round these parts..."
185: 0x096B [0x23] WAIT_FOR_DIALOG_INTERACTION
186: 0x096C [0x45] LOAD_SCHEDULED_TASK: Load scheduler "fdo2" with entities [EventEntity, EventEntity], work=[200*, 0*]
187: 0x097D [0x55] WAIT_LOAD_SCHEDULER: Wait for scheduler "fdo2" with entities [EventEntity, EventEntity], work=200*
188: 0x098C [0x52] END_LOAD_SCHEDULER: End scheduler "s063" with entities [LocalPlayer, LocalPlayer], work=557*
189: 0x099B [0x52] END_LOAD_SCHEDULER: End scheduler "s077" with entities [LocalPlayer, LocalPlayer], work=557*
190: 0x09AA [0x46] CAMERA_CONTROL: Restore default settings
191: 0x09AC [0x45] LOAD_SCHEDULED_TASK: Load scheduler "fdi2" with entities [LocalPlayer, LocalPlayer], work=[200*, 0*]
192: 0x09BD [0x21] END_EVENT
193: 0x09BE [0x00] END_REQSTACK()
```

### Event 630

#### Metadata

| Field        | Value    |
|--------------|----------|
| Entrypoint   | 0x09BF   |
| Data Size    | 47 bytes |
| Instructions | 15       |

```
      00 01 02 03 04 05 06 07  08 09 0A 0B 0C 0D 0E 0F
      -- -- -- -- -- -- -- --  -- -- -- -- -- -- -- --
09B0:                                               42                 B
09C0: 1E F0 FF FF 7F 1C 00 80  6E F8 FF FF 7F 59 80 99  ........n....Y..
09D0: F8 FF FF 7F 1D 5A 80 23  1D 5B 80 23 6E F8 FF FF  .....Z.#.[.#n...
09E0: 7F 5C 80 99 F8 FF FF 7F  1D 5D 80 23 21 00        .\.......].#!.  
```

#### Opcodes

```
  0: 0x09BF [0x42] SET_CLI_EVENT_CANCEL_DATA()
  1: 0x09C0 [0x1E] EventEntity looks at LocalPlayer and starts talking
  2: 0x09C5 [0x1C] WAIT(30* ticks)
  3: 0x09C8 [0x6E] EventEntity uses emote 21*
  4: 0x09CF [0x99] Wait for EventEntity animation to complete
  5: 0x09D4 [0x1D] PRINT_EVENT_MESSAGE(message_id=9616*)
    → "So yew stuck it to those Voidwalker vermin an' came out on top? Congratulations, sugar!"
  6: 0x09D7 [0x23] WAIT_FOR_DIALOG_INTERACTION
  7: 0x09D8 [0x1D] PRINT_EVENT_MESSAGE(message_id=9617*)
    → "Looks like ol' scary-face was tellin' the truth about that there cavern, then."
  8: 0x09DB [0x23] WAIT_FOR_DIALOG_INTERACTION
  9: 0x09DC [0x6E] EventEntity uses emote 26*
 10: 0x09E3 [0x99] Wait for EventEntity animation to complete
 11: 0x09E8 [0x1D] PRINT_EVENT_MESSAGE(message_id=9618*)
    → "I'll let yew do the thankin' though, darlin'. I'm afeared he's like t' gimme a new pie hole if'n I ever got near t' him again."
 12: 0x09EB [0x23] WAIT_FOR_DIALOG_INTERACTION
 13: 0x09EC [0x21] END_EVENT
 14: 0x09ED [0x00] END_REQSTACK()
```

### Event 23

#### Metadata

| Field        | Value      |
|--------------|------------|
| Entrypoint   | 0x09EE     |
| Data Size    | 4531 bytes |
| Instructions | 731        |

```
      00 01 02 03 04 05 06 07  08 09 0A 0B 0C 0D 0E 0F
      -- -- -- -- -- -- -- --  -- -- -- -- -- -- -- --
09E0:                                            42 06                B.
09F0: 02 00 06 04 00 06 05 00  06 06 00 06 07 00 06 08  ................
0A00: 00 06 09 00 06 0A 00 06  0B 00 06 0D 00 06 0E 00  ................
0A10: 06 0F 00 06 10 00 06 11  00 06 12 00 06 0C 00 06  ................
0A20: 13 00 06 14 00 06 16 00  06 20 00 06 1F 00 03 1F  ......... ......
0A30: 00 08 10 41 04 80 04 80  02 10 03 00 41 1B 80 1B  ...A........A...
0A40: 80 02 10 04 00 41 1E 80  5E 80 02 10 05 00 41 5F  .....A..^.....A_
0A50: 80 52 80 02 10 06 00 41  60 80 61 80 02 10 07 00  .R.....A`.a.....
0A60: 41 0A 80 62 80 02 10 08  00 41 63 80 64 80 02 10  A..b.....Ac.d...
0A70: 09 00 41 59 80 65 80 02  10 0A 00 03 0C 00 03 10  ..AY.e..........
0A80: 41 04 80 04 80 04 10 16  00 41 1B 80 66 80 04 10  A........A..f...
0A90: 17 00 4A F0 FF FF 7F CD  32 03 01 4A CD 32 03 01  ..J.....2..J.2..
0AA0: F0 FF FF 7F 6F 76 CD 32  03 01 02 03 00 1B 80 00  ....ov.2........
0AB0: C3 0C 05 13 00 02 13 00  04 80 02 C3 0C 24 67 80  .............$g.
0AC0: 04 80 04 80 25 02 00 10  04 80 00 D3 0A 06 13 00  ....%...........
0AD0: 01 C0 0C 02 00 10 1B 80  00 01 0B 02 04 00 04 80  ................
0AE0: 00 F0 0A 03 04 00 1B 80  03 02 10 04 80 01 FA 0A  ................
0AF0: 03 04 00 04 80 03 02 10  1B 80 48 68 80 23 01 C0  ..........Hh.#..
0B00: 0C 02 00 10 1E 80 00 B2  0B 05 14 00 02 14 00 04  ................
0B10: 80 02 AF 0B 24 69 80 04  80 04 80 25 02 00 10 04  ....$i.....%....
0B20: 80 00 2A 0B 06 14 00 01  A8 0B 02 00 10 1B 80 00  ..*.............
0B30: 3F 0B 03 02 10 04 80 03  05 00 1B 80 01 A8 0B 02  ?...............
0B40: 00 10 1E 80 00 54 0B 03  02 10 1B 80 03 05 00 1E  .....T..........
0B50: 80 01 A8 0B 02 00 10 6A  80 00 69 0B 03 02 10 1E  .......j..i.....
0B60: 80 03 05 00 6A 80 01 A8  0B 02 00 10 66 80 00 7E  ....j.......f..~
0B70: 0B 03 02 10 6A 80 03 05  00 66 80 01 A8 0B 02 00  ....j....f......
0B80: 10 35 80 00 93 0B 03 02  10 66 80 03 05 00 35 80  .5.......f....5.
0B90: 01 A8 0B 02 00 10 54 80  00 A8 0B 03 02 10 35 80  ......T.......5.
0BA0: 03 05 00 54 80 01 A8 0B  48 6B 80 23 01 0C 0B 01  ...T....Hk.#....
0BB0: C0 0C 02 00 10 6A 80 00  39 0C 05 14 00 02 14 00  .....j..9.......
0BC0: 04 80 02 36 0C 24 6C 80  04 80 04 80 25 02 00 10  ...6.$l.....%...
0BD0: 04 80 00 DB 0B 06 14 00  01 2F 0C 02 00 10 1B 80  ........./......
0BE0: 00 F0 0B 03 02 10 04 80  03 07 00 1B 80 01 2F 0C  ............../.
0BF0: 02 00 10 1E 80 00 05 0C  03 02 10 1B 80 03 07 00  ................
0C00: 1E 80 01 2F 0C 02 00 10  6A 80 00 1A 0C 03 02 10  .../....j.......
0C10: 1E 80 03 07 00 6A 80 01  2F 0C 02 00 10 66 80 00  .....j../....f..
0C20: 2F 0C 03 02 10 6A 80 03  07 00 66 80 01 2F 0C 48  /....j....f../.H
0C30: 6D 80 23 01 BD 0B 01 C0  0C 02 00 10 66 80 00 C0  m.#.........f...
0C40: 0C 05 14 00 02 14 00 04  80 02 BD 0C 24 6E 80 04  ............$n..
0C50: 80 04 80 25 02 00 10 04  80 00 62 0C 06 14 00 01  ...%......b.....
0C60: B6 0C 02 00 10 1B 80 00  77 0C 03 02 10 04 80 03  ........w.......
0C70: 08 00 04 80 01 B6 0C 02  00 10 1E 80 00 8C 0C 03  ................
0C80: 02 10 1B 80 03 08 00 1B  80 01 B6 0C 02 00 10 6A  ...............j
0C90: 80 00 A1 0C 03 02 10 1E  80 03 08 00 1E 80 01 B6  ................
0CA0: 0C 02 00 10 66 80 00 B6  0C 03 02 10 6A 80 03 08  ....f.......j...
0CB0: 00 6A 80 01 B6 0C 48 6D  80 23 01 44 0C 01 C0 0C  .j....Hm.#.D....
0CC0: 01 B5 0A 02 05 00 1B 80  80 D3 0C 03 0B 00 04 80  ................
0CD0: 01 23 0D 02 05 00 1E 80  80 E3 0C 03 0B 00 04 80  .#..............
0CE0: 01 23 0D 02 05 00 6A 80  80 F3 0C 03 0B 00 04 80  .#....j.........
0CF0: 01 23 0D 02 05 00 66 80  80 03 0D 03 0B 00 1B 80  .#....f.........
0D00: 01 23 0D 02 05 00 35 80  80 13 0D 03 0B 00 1B 80  .#....5.........
0D10: 01 23 0D 02 05 00 54 80  80 23 0D 03 0B 00 1B 80  .#....T..#......
0D20: 01 23 0D 02 0B 00 04 80  00 33 0D 03 02 10 04 80  .#.......3......
0D30: 01 38 0D 03 02 10 1B 80  02 1F 00 1B 80 00 5A 0D  .8............Z.
0D40: 66 01 80 F8 FF FF 7F F8  FF FF 7F 74 68 6B 31 2B  f..........thk1+
0D50: CD 32 03 01 6F 80 23 01  62 0D 2B CD 32 03 01 70  .2..o.#.b.+.2..p
0D60: 80 23 05 0D 00 02 0D 00  04 80 02 62 16 3C 0E 00  .#.........b.<..
0D70: 1E 80 1B 80 03 02 10 22  80 1A 64 16 24 18 80 04  ......."..d.$...
0D80: 80 0E 00 25 02 00 10 04  80 00 97 0D 03 01 10 71  ...%...........q
0D90: 80 06 0D 00 01 5F 16 02  00 10 1B 80 00 B2 0D 2B  ....._.........+
0DA0: CD 32 03 01 1C 80 23 2B  CD 32 03 01 1D 80 23 01  .2....#+.2....#.
0DB0: 5F 16 02 00 10 6A 80 00  BC 0F 02 07 00 04 80 80  _....j..........
0DC0: B9 0F 3E 17 00 04 80 C8  0E 3E 17 00 1B 80 4F 0E  ..>......>....O.
0DD0: 3E 17 00 1E 80 12 0E 3E  17 00 6A 80 F3 0D 03 02  >......>..j.....
0DE0: 10 1F 00 08 02 10 1B 80  2B CD 32 03 01 72 80 23  ........+.2..r.#
0DF0: 01 0F 0E 03 02 10 6A 80  03 03 10 6A 80 03 04 10  ......j....j....
0E00: 6A 80 03 05 10 1E 80 2B  CD 32 03 01 73 80 23 01  j......+.2..s.#.
0E10: 4C 0E 3E 17 00 6A 80 30  0E 03 02 10 1E 80 03 03  L.>..j.0........
0E20: 10 6A 80 03 04 10 6A 80  03 05 10 1E 80 01 44 0E  .j....j.......D.
0E30: 03 02 10 1E 80 03 03 10  66 80 03 04 10 1B 80 03  ........f.......
0E40: 05 10 6A 80 2B CD 32 03  01 73 80 23 01 C5 0E 3E  ..j.+.2..s.#...>
0E50: 17 00 1E 80 8B 0E 3E 17  00 6A 80 74 0E 03 02 10  ......>..j.t....
0E60: 1B 80 03 03 10 6A 80 03  04 10 6A 80 03 05 10 1E  .....j....j.....
0E70: 80 01 88 0E 03 02 10 1B  80 03 03 10 66 80 03 04  ............f...
0E80: 10 1B 80 03 05 10 6A 80  01 BD 0E 3E 17 00 6A 80  ......j....>..j.
0E90: A9 0E 03 02 10 1B 80 03  03 10 66 80 03 04 10 04  ..........f.....
0EA0: 80 03 05 10 6A 80 01 BD  0E 03 02 10 1B 80 03 03  ....j...........
0EB0: 10 1B 80 03 04 10 1B 80  03 05 10 6A 80 2B CD 32  ...........j.+.2
0EC0: 03 01 73 80 23 01 B6 0F  3E 17 00 1B 80 40 0F 3E  ..s.#...>....@.>
0ED0: 17 00 1E 80 0B 0F 3E 17  00 6A 80 F4 0E 03 02 10  ......>..j......
0EE0: 04 80 03 03 10 6A 80 03  04 10 6A 80 03 05 10 1E  .....j....j.....
0EF0: 80 01 08 0F 03 02 10 04  80 03 03 10 66 80 03 04  ............f...
0F00: 10 1B 80 03 05 10 6A 80  01 3D 0F 3E 17 00 6A 80  ......j..=.>..j.
0F10: 29 0F 03 02 10 04 80 03  03 10 66 80 03 04 10 04  ).........f.....
0F20: 80 03 05 10 6A 80 01 3D  0F 03 02 10 04 80 03 03  ....j..=........
0F30: 10 1B 80 03 04 10 1B 80  03 05 10 6A 80 01 AE 0F  ...........j....
0F40: 3E 17 00 1E 80 7C 0F 3E  17 00 6A 80 65 0F 03 02  >....|.>..j.e...
0F50: 10 04 80 03 03 10 66 80  03 04 10 1E 80 03 05 10  ......f.........
0F60: 6A 80 01 79 0F 03 02 10  04 80 03 03 10 04 80 03  j..y............
0F70: 04 10 1B 80 03 05 10 6A  80 01 AE 0F 3E 17 00 6A  .......j....>..j
0F80: 80 9A 0F 03 02 10 04 80  03 03 10 04 80 03 04 10  ................
0F90: 04 80 03 05 10 6A 80 01  AE 0F 03 02 10 04 80 03  .....j..........
0FA0: 03 10 04 80 03 04 10 04  80 03 05 10 04 80 2B CD  ..............+.
0FB0: 32 03 01 73 80 23 01 B9  0F 01 5F 16 02 00 10 66  2..s.#...._....f
0FC0: 80 00 94 10 40 04 80 0A  80 01 10 6A 80 40 74 80  ....@......j.@t.
0FD0: 75 80 01 10 04 80 43 00  43 01 03 00 00 02 10 03  u.....C.C.......
0FE0: 01 00 03 10 02 00 00 04  80 02 72 10 02 09 00 0A  ..........r.....
0FF0: 00 02 62 10 03 00 00 04  80 24 76 80 04 80 04 80  ..b......$v.....
1000: 25 02 00 10 04 80 00 0C  10 01 3E 10 02 00 10 1B  %.........>.....
1010: 80 00 25 10 40 74 80 75  80 01 10 1B 80 03 00 00  ..%.@t.u........
1020: 1B 80 01 3E 10 02 00 10  1E 80 00 3E 10 40 74 80  ...>.......>.@t.
1030: 75 80 01 10 04 80 03 00  00 1B 80 01 3E 10 02 00  u...........>...
1040: 00 1B 80 00 5F 10 03 02  10 22 80 2B CD 32 03 01  ...._....".+.2..
1050: 77 80 23 40 04 80 0A 80  01 10 1B 80 06 0D 00 01  w.#@............
1060: 6F 10 03 02 10 0A 00 2B  CD 32 03 01 78 80 23 01  o......+.2..x.#.
1070: 91 10 15 01 00 13 80 02  01 00 1B 80 03 84 10 03  ................
1080: 01 00 1B 80 03 02 10 01  00 2B CD 32 03 01 79 80  .........+.2..y.
1090: 23 01 5F 16 02 00 10 35  80 00 CC 10 40 04 80 0A  #._....5....@...
10A0: 80 01 10 66 80 40 74 80  75 80 01 10 04 80 43 00  ...f.@t.u.....C.
10B0: 43 01 03 00 00 02 10 03  02 10 22 80 03 03 10 00  C.........".....
10C0: 00 2B CD 32 03 01 7A 80  23 01 5F 16 02 00 10 54  .+.2..z.#._....T
10D0: 80 00 5F 16 05 0F 00 02  0F 00 04 80 02 5C 16 03  .._..........\..
10E0: 15 00 04 80 03 02 00 04  80 03 02 10 0C 00 03 03  ................
10F0: 10 7B 80 03 04 10 7C 80  03 05 10 7D 80 03 06 10  .{....|....}....
1100: 7C 80 03 07 10 7E 80 03  08 10 7C 80 03 09 10 04  |....~....|.....
1110: 80 03 00 17 04 80 03 01  17 04 80 03 02 17 04 80  ................
1120: 03 03 17 04 80 03 04 17  04 80 03 05 17 04 80 03  ................
1130: 06 17 04 80 03 07 17 04  80 03 08 17 04 80 03 09  ................
1140: 17 7F 80 03 0A 17 80 80  03 0B 17 81 80 03 0C 17  ................
1150: 82 80 03 0D 17 83 80 03  0E 17 82 80 03 0F 17 84  ................
1160: 80 03 10 17 80 80 03 11  17 85 80 03 12 17 80 80  ................
1170: 03 13 17 86 80 03 14 17  87 80 03 15 17 88 80 03  ................
1180: 16 17 87 80 03 17 17 89  80 03 18 17 87 80 06 10  ................
1190: 00 02 03 10 04 80 00 A0  11 3C 10 00 1B 80 1B 80  .........<......
11A0: 02 05 10 04 80 00 AF 11  3C 10 00 1E 80 1B 80 02  ........<.......
11B0: 07 10 04 80 00 BE 11 3C  10 00 6A 80 1B 80 02 09  .......<..j.....
11C0: 10 04 80 00 CD 11 3C 10  00 66 80 1B 80 02 01 17  ......<..f......
11D0: 04 80 00 DC 11 3C 10 00  35 80 1B 80 02 03 17 04  .....<..5.......
11E0: 80 00 EB 11 3C 10 00 54  80 1B 80 02 05 17 04 80  ....<..T........
11F0: 00 FA 11 3C 10 00 5E 80  1B 80 02 07 17 04 80 00  ...<..^.........
1200: 09 12 3C 10 00 5F 80 1B  80 02 09 17 04 80 00 18  ..<.._..........
1210: 12 3C 10 00 8A 80 1B 80  02 0B 17 04 80 00 27 12  .<............'.
1220: 3C 10 00 52 80 1B 80 02  0D 17 04 80 00 36 12 3C  <..R.........6.<
1230: 10 00 60 80 1B 80 02 0F  17 04 80 00 45 12 3C 10  ..`.........E.<.
1240: 00 8B 80 1B 80 02 11 17  04 80 00 54 12 3C 10 00  ...........T.<..
1250: 8C 80 1B 80 02 13 17 04  80 00 63 12 3C 10 00 61  ..........c.<..a
1260: 80 1B 80 02 15 17 04 80  00 72 12 3C 10 00 0A 80  .........r.<....
1270: 1B 80 02 17 17 04 80 00  81 12 3C 10 00 74 80 1B  ..........<..t..
1280: 80 24 8D 80 04 80 10 00  25 02 00 10 04 80 00 97  .$......%.......
1290: 12 06 0F 00 01 87 14 02  00 10 1B 80 00 B6 12 03  ................
12A0: 11 00 7B 80 03 12 00 7C  80 03 15 00 04 80 03 02  ..{....|........
12B0: 00 1B 80 01 87 14 02 00  10 1E 80 00 D5 12 03 11  ................
12C0: 00 7D 80 03 12 00 7C 80  03 15 00 04 80 03 02 00  .}....|.........
12D0: 1E 80 01 87 14 02 00 10  6A 80 00 F4 12 03 11 00  ........j.......
12E0: 7E 80 03 12 00 7C 80 03  15 00 04 80 03 02 00 6A  ~....|.........j
12F0: 80 01 87 14 02 00 10 66  80 00 13 13 03 11 00 04  .......f........
1300: 80 03 12 00 04 80 03 15  00 04 80 03 02 00 66 80  ..............f.
1310: 01 87 14 02 00 10 35 80  00 32 13 03 11 00 04 80  ......5..2......
1320: 03 12 00 04 80 03 15 00  04 80 03 02 00 35 80 01  .............5..
1330: 87 14 02 00 10 54 80 00  51 13 03 11 00 04 80 03  .....T..Q.......
1340: 12 00 04 80 03 15 00 04  80 03 02 00 54 80 01 87  ............T...
1350: 14 02 00 10 5E 80 00 70  13 03 11 00 04 80 03 12  ....^..p........
1360: 00 04 80 03 15 00 04 80  03 02 00 5E 80 01 87 14  ...........^....
1370: 02 00 10 5F 80 00 8F 13  03 11 00 04 80 03 12 00  ..._............
1380: 04 80 03 15 00 04 80 03  02 00 5F 80 01 87 14 02  .........._.....
1390: 00 10 8A 80 00 AE 13 03  11 00 7F 80 03 12 00 80  ................
13A0: 80 03 15 00 1B 80 03 02  00 8A 80 01 87 14 02 00  ................
13B0: 10 52 80 00 CD 13 03 11  00 81 80 03 12 00 82 80  .R..............
13C0: 03 15 00 1B 80 03 02 00  52 80 01 87 14 02 00 10  ........R.......
13D0: 60 80 00 EC 13 03 11 00  83 80 03 12 00 82 80 03  `...............
13E0: 15 00 1B 80 03 02 00 60  80 01 87 14 02 00 10 8B  .......`........
13F0: 80 00 0B 14 03 11 00 84  80 03 12 00 80 80 03 15  ................
1400: 00 1B 80 03 02 00 8B 80  01 87 14 02 00 10 8C 80  ................
1410: 00 2A 14 03 11 00 85 80  03 12 00 80 80 03 15 00  .*..............
1420: 1B 80 03 02 00 8C 80 01  87 14 02 00 10 61 80 00  .............a..
1430: 49 14 03 11 00 86 80 03  12 00 87 80 03 15 00 1B  I...............
1440: 80 03 02 00 61 80 01 87  14 02 00 10 0A 80 00 68  ....a..........h
1450: 14 03 11 00 88 80 03 12  00 87 80 03 15 00 1B 80  ................
1460: 03 02 00 0A 80 01 87 14  02 00 10 74 80 00 87 14  ...........t....
1470: 03 11 00 89 80 03 12 00  87 80 03 15 00 1B 80 03  ................
1480: 02 00 74 80 01 87 14 02  02 00 04 80 02 59 16 02  ..t..........Y..
1490: 15 00 04 80 00 70 15 93  11 00 03 02 10 11 00 03  .....p..........
14A0: 03 10 12 00 2B CD 32 03  01 8E 80 23 93 04 80 02  ....+.2....#....
14B0: 02 00 6A 80 05 6D 15 03  02 10 0C 00 03 03 10 12  ..j..m..........
14C0: 00 03 04 10 12 00 14 04  10 6A 80 03 05 10 12 00  .........j......
14D0: 14 05 10 54 80 03 06 10  12 00 14 06 10 8A 80 03  ...T............
14E0: 07 10 12 00 14 07 10 8B  80 24 8F 80 04 80 04 80  .........$......
14F0: 25 02 00 10 04 80 00 FF  14 06 0F 00 01 68 15 02  %............h..
1500: 00 10 1B 80 00 14 15 03  12 00 03 10 03 20 00 1B  ............. ..
1510: 80 01 68 15 02 00 10 1E  80 00 29 15 03 12 00 04  ..h.......).....
1520: 10 03 20 00 6A 80 01 68  15 02 00 10 6A 80 00 3E  .. .j..h....j..>
1530: 15 03 12 00 05 10 03 20  00 54 80 01 68 15 02 00  ....... .T..h...
1540: 10 66 80 00 53 15 03 12  00 06 10 03 20 00 8A 80  .f..S....... ...
1550: 01 68 15 02 00 10 35 80  00 68 15 03 12 00 07 10  .h....5..h......
1560: 03 20 00 8B 80 01 68 15  03 03 10 12 00 01 FA 15  . ....h.........
1570: 02 02 00 8A 80 80 7F 15  48 90 80 23 01 E8 15 02  ........H..#....
1580: 02 00 52 80 80 8E 15 48  91 80 23 01 E8 15 02 02  ..R....H..#.....
1590: 00 60 80 80 9D 15 48 92  80 23 01 E8 15 02 02 00  .`....H..#......
15A0: 8B 80 80 AC 15 48 93 80  23 01 E8 15 02 02 00 8C  .....H..#.......
15B0: 80 80 BB 15 48 94 80 23  01 E8 15 02 02 00 61 80  ....H..#......a.
15C0: 80 CA 15 48 95 80 23 01  E8 15 02 02 00 0A 80 80  ...H..#.........
15D0: D9 15 48 96 80 23 01 E8  15 02 02 00 74 80 80 E8  ..H..#......t...
15E0: 15 48 97 80 23 01 E8 15  03 02 10 11 00 03 03 10  .H..#...........
15F0: 12 00 2B CD 32 03 01 98  80 23 02 0F 00 1B 80 00  ..+.2....#......
1600: 59 16 03 02 10 0C 00 24  99 80 1B 80 04 80 25 02  Y......$......%.
1610: 00 10 04 80 00 4E 16 02  0C 00 12 00 04 43 16 40  .....N.......C.@
1620: 04 80 0A 80 01 10 1E 80  40 74 80 59 80 01 10 02  ........@t.Y....
1630: 00 40 9A 80 75 80 01 10  20 00 06 0D 00 06 0F 00  .@..u... .......
1640: 01 4B 16 2B CD 32 03 01  9B 80 23 01 59 16 02 00  .K.+.2....#.Y...
1650: 10 1B 80 00 59 16 01 59  16 01 D7 10 01 5F 16 01  ....Y..Y....._..
1660: 65 0D 21 00 02 05 00 1B  80 80 BF 16 02 07 00 04  e.!.............
1670: 80 80 7C 16 03 00 00 9C  80 01 BC 16 02 07 00 1B  ..|.............
1680: 80 80 8C 16 03 00 00 9C  80 01 BC 16 02 07 00 1E  ................
1690: 80 80 9C 16 03 00 00 9D  80 01 BC 16 02 07 00 6A  ...............j
16A0: 80 80 AC 16 03 00 00 9E  80 01 BC 16 02 07 00 66  ...............f
16B0: 80 80 BC 16 03 00 00 9F  80 01 BC 16 01 86 18 02  ................
16C0: 05 00 1E 80 80 1A 17 02  07 00 04 80 80 D7 16 03  ................
16D0: 00 00 A0 80 01 17 17 02  07 00 1B 80 80 E7 16 03  ................
16E0: 00 00 A0 80 01 17 17 02  07 00 1E 80 80 F7 16 03  ................
16F0: 00 00 A1 80 01 17 17 02  07 00 6A 80 80 07 17 03  ..........j.....
1700: 00 00 A2 80 01 17 17 02  07 00 66 80 80 17 17 03  ..........f.....
1710: 00 00 A3 80 01 17 17 01  86 18 02 05 00 6A 80 80  .............j..
1720: 75 17 02 07 00 04 80 80  32 17 03 00 00 A4 80 01  u.......2.......
1730: 72 17 02 07 00 1B 80 80  42 17 03 00 00 A4 80 01  r.......B.......
1740: 72 17 02 07 00 1E 80 80  52 17 03 00 00 A5 80 01  r.......R.......
1750: 72 17 02 07 00 6A 80 80  62 17 03 00 00 A6 80 01  r....j..b.......
1760: 72 17 02 07 00 66 80 80  72 17 03 00 00 A7 80 01  r....f..r.......
1770: 72 17 01 86 18 02 05 00  66 80 80 D0 17 02 07 00  r.......f.......
1780: 04 80 80 8D 17 03 00 00  9C 80 01 CD 17 02 07 00  ................
1790: 1B 80 80 9D 17 03 00 00  9C 80 01 CD 17 02 07 00  ................
17A0: 1E 80 80 AD 17 03 00 00  9C 80 01 CD 17 02 07 00  ................
17B0: 6A 80 80 BD 17 03 00 00  9E 80 01 CD 17 02 07 00  j...............
17C0: 66 80 80 CD 17 03 00 00  9E 80 01 CD 17 01 86 18  f...............
17D0: 02 05 00 35 80 80 2B 18  02 07 00 04 80 80 E8 17  ...5..+.........
17E0: 03 00 00 A0 80 01 28 18  02 07 00 1B 80 80 F8 17  ......(.........
17F0: 03 00 00 A0 80 01 28 18  02 07 00 1E 80 80 08 18  ......(.........
1800: 03 00 00 A0 80 01 28 18  02 07 00 6A 80 80 18 18  ......(....j....
1810: 03 00 00 A2 80 01 28 18  02 07 00 66 80 80 28 18  ......(....f..(.
1820: 03 00 00 A2 80 01 28 18  01 86 18 02 05 00 54 80  ......(.......T.
1830: 80 86 18 02 07 00 04 80  80 43 18 03 00 00 A4 80  .........C......
1840: 01 83 18 02 07 00 1B 80  80 53 18 03 00 00 A4 80  .........S......
1850: 01 83 18 02 07 00 1E 80  80 63 18 03 00 00 A4 80  .........c......
1860: 01 83 18 02 07 00 6A 80  80 73 18 03 00 00 A6 80  ......j..s......
1870: 01 83 18 02 07 00 66 80  80 83 18 03 00 00 A6 80  ......f.........
1880: 01 83 18 01 86 18 1B 02  05 00 1B 80 80 FB 18 02  ................
1890: 07 00 04 80 80 A4 18 03  00 00 04 80 03 01 00 04  ................
18A0: 80 01 F8 18 02 07 00 1B  80 80 B9 18 03 00 00 04  ................
18B0: 80 03 01 00 04 80 01 F8  18 02 07 00 1E 80 80 CE  ................
18C0: 18 03 00 00 1E 80 03 01  00 04 80 01 F8 18 02 07  ................
18D0: 00 6A 80 80 E3 18 03 00  00 6A 80 03 01 00 04 80  .j.......j......
18E0: 01 F8 18 02 07 00 66 80  80 F8 18 03 00 00 35 80  ......f.......5.
18F0: 03 01 00 04 80 01 F8 18  01 3F 1B 02 05 00 1E 80  .........?......
1900: 80 6F 19 02 07 00 04 80  80 18 19 03 00 00 04 80  .o..............
1910: 03 01 00 04 80 01 6C 19  02 07 00 1B 80 80 2D 19  ......l.......-.
1920: 03 00 00 04 80 03 01 00  04 80 01 6C 19 02 07 00  ...........l....
1930: 1E 80 80 42 19 03 00 00  1E 80 03 01 00 04 80 01  ...B............
1940: 6C 19 02 07 00 6A 80 80  57 19 03 00 00 6A 80 03  l....j..W....j..
1950: 01 00 04 80 01 6C 19 02  07 00 66 80 80 6C 19 03  .....l....f..l..
1960: 00 00 35 80 03 01 00 04  80 01 6C 19 01 3F 1B 02  ..5.......l..?..
1970: 05 00 6A 80 80 E3 19 02  07 00 04 80 80 8C 19 03  ..j.............
1980: 00 00 04 80 03 01 00 04  80 01 E0 19 02 07 00 1B  ................
1990: 80 80 A1 19 03 00 00 04  80 03 01 00 04 80 01 E0  ................
19A0: 19 02 07 00 1E 80 80 B6  19 03 00 00 1E 80 03 01  ................
19B0: 00 04 80 01 E0 19 02 07  00 6A 80 80 CB 19 03 00  .........j......
19C0: 00 6A 80 03 01 00 04 80  01 E0 19 02 07 00 66 80  .j............f.
19D0: 80 E0 19 03 00 00 35 80  03 01 00 04 80 01 E0 19  ......5.........
19E0: 01 3F 1B 02 05 00 66 80  80 57 1A 02 07 00 04 80  .?....f..W......
19F0: 80 00 1A 03 00 00 1B 80  03 01 00 04 80 01 54 1A  ..............T.
1A00: 02 07 00 1B 80 80 15 1A  03 00 00 1B 80 03 01 00  ................
1A10: 04 80 01 54 1A 02 07 00  1E 80 80 2A 1A 03 00 00  ...T.......*....
1A20: 1B 80 03 01 00 1B 80 01  54 1A 02 07 00 6A 80 80  ........T....j..
1A30: 3F 1A 03 00 00 66 80 03  01 00 04 80 01 54 1A 02  ?....f.......T..
1A40: 07 00 66 80 80 54 1A 03  00 00 66 80 03 01 00 1B  ..f..T....f.....
1A50: 80 01 54 1A 01 3F 1B 02  05 00 35 80 80 CB 1A 02  ..T..?....5.....
1A60: 07 00 04 80 80 74 1A 03  00 00 1B 80 03 01 00 04  .....t..........
1A70: 80 01 C8 1A 02 07 00 1B  80 80 89 1A 03 00 00 1B  ................
1A80: 80 03 01 00 04 80 01 C8  1A 02 07 00 1E 80 80 9E  ................
1A90: 1A 03 00 00 1B 80 03 01  00 1B 80 01 C8 1A 02 07  ................
1AA0: 00 6A 80 80 B3 1A 03 00  00 66 80 03 01 00 04 80  .j.......f......
1AB0: 01 C8 1A 02 07 00 66 80  80 C8 1A 03 00 00 66 80  ......f.......f.
1AC0: 03 01 00 1B 80 01 C8 1A  01 3F 1B 02 05 00 54 80  .........?....T.
1AD0: 80 3F 1B 02 07 00 04 80  80 E8 1A 03 00 00 1B 80  .?..............
1AE0: 03 01 00 04 80 01 3C 1B  02 07 00 1B 80 80 FD 1A  ......<.........
1AF0: 03 00 00 1B 80 03 01 00  04 80 01 3C 1B 02 07 00  ...........<....
1B00: 1E 80 80 12 1B 03 00 00  1B 80 03 01 00 1B 80 01  ................
1B10: 3C 1B 02 07 00 6A 80 80  27 1B 03 00 00 66 80 03  <....j..'....f..
1B20: 01 00 04 80 01 3C 1B 02  07 00 66 80 80 3C 1B 03  .....<....f..<..
1B30: 00 00 66 80 03 01 00 1B  80 01 3C 1B 01 3F 1B 1B  ..f.......<..?..
1B40: 02 05 00 1B 80 80 50 1B  03 00 00 9C 80 01 A0 1B  ......P.........
1B50: 02 05 00 1E 80 80 60 1B  03 00 00 A0 80 01 A0 1B  ......`.........
1B60: 02 05 00 6A 80 80 70 1B  03 00 00 A4 80 01 A0 1B  ...j..p.........
1B70: 02 05 00 66 80 80 80 1B  03 00 00 9C 80 01 A0 1B  ...f............
1B80: 02 05 00 35 80 80 90 1B  03 00 00 A0 80 01 A0 1B  ...5............
1B90: 02 05 00 54 80 80 A0 1B  03 00 00 A4 80 01 A0 1B  ...T............
1BA0: 1B                                                .               
```

#### Opcodes

```
  0: 0x09EE [0x42] SET_CLI_EVENT_CANCEL_DATA()
  1: 0x09EF [0x06] ExtData[1]->WorkLocal[2] = 0
  2: 0x09F2 [0x06] ExtData[1]->WorkLocal[4] = 0
  3: 0x09F5 [0x06] ExtData[1]->WorkLocal[5] = 0
  4: 0x09F8 [0x06] ExtData[1]->WorkLocal[6] = 0
  5: 0x09FB [0x06] ExtData[1]->WorkLocal[7] = 0
  6: 0x09FE [0x06] ExtData[1]->WorkLocal[8] = 0
  7: 0x0A01 [0x06] ExtData[1]->WorkLocal[9] = 0
  8: 0x0A04 [0x06] ExtData[1]->WorkLocal[10] = 0
  9: 0x0A07 [0x06] ExtData[1]->WorkLocal[11] = 0
 10: 0x0A0A [0x06] ExtData[1]->WorkLocal[13] = 0
 11: 0x0A0D [0x06] ExtData[1]->WorkLocal[14] = 0
 12: 0x0A10 [0x06] ExtData[1]->WorkLocal[15] = 0
 13: 0x0A13 [0x06] ExtData[1]->WorkLocal[16] = 0
 14: 0x0A16 [0x06] ExtData[1]->WorkLocal[17] = 0
 15: 0x0A19 [0x06] ExtData[1]->WorkLocal[18] = 0
 16: 0x0A1C [0x06] ExtData[1]->WorkLocal[12] = 0
 17: 0x0A1F [0x06] ExtData[1]->WorkLocal[19] = 0
 18: 0x0A22 [0x06] ExtData[1]->WorkLocal[20] = 0
 19: 0x0A25 [0x06] ExtData[1]->WorkLocal[22] = 0
 20: 0x0A28 [0x06] ExtData[1]->WorkLocal[32] = 0
 21: 0x0A2B [0x06] ExtData[1]->WorkLocal[31] = 0
 22: 0x0A2E [0x03] ExtData[1]->WorkLocal[31] = Work_Zone[8]
 23: 0x0A33 [0x41] ExtData[1]->WorkLocal[3] = Work_Zone[2] (bits 0*-0*)
 24: 0x0A3C [0x41] ExtData[1]->WorkLocal[4] = Work_Zone[2] (bits 1*-1*)
 25: 0x0A45 [0x41] ExtData[1]->WorkLocal[5] = Work_Zone[2] (bits 2*-7*)
 26: 0x0A4E [0x41] ExtData[1]->WorkLocal[6] = Work_Zone[2] (bits 8*-10*)
 27: 0x0A57 [0x41] ExtData[1]->WorkLocal[7] = Work_Zone[2] (bits 11*-14*)
 28: 0x0A60 [0x41] ExtData[1]->WorkLocal[8] = Work_Zone[2] (bits 15*-17*)
 29: 0x0A69 [0x41] ExtData[1]->WorkLocal[9] = Work_Zone[2] (bits 18*-20*)
 30: 0x0A72 [0x41] ExtData[1]->WorkLocal[10] = Work_Zone[2] (bits 21*-23*)
 31: 0x0A7B [0x03] ExtData[1]->WorkLocal[12] = Work_Zone[3]
 32: 0x0A80 [0x41] ExtData[1]->WorkLocal[22] = Work_Zone[4] (bits 0*-0*)
 33: 0x0A89 [0x41] ExtData[1]->WorkLocal[23] = Work_Zone[4] (bits 1*-4*)
 34: 0x0A92 [0x4A] LocalPlayer looks at Camille (ID: 16986829/0x010332CD)
 35: 0x0A9B [0x4A] Camille (ID: 16986829/0x010332CD) looks at LocalPlayer
 36: 0x0AA4 [0x6F] WAIT_FRAME_DELAY: Yield until WaitTime reaches zero
 37: 0x0AA5 [0x76] CHECK_ENTITY_RENDER_FLAGS: Wait until Camille (ID: 16986829/0x010332CD) Render.Flags0 and Render.Flags3 conditions are met
 38: 0x0AAA [0x02] IF !(ExtData[1]->WorkLocal[3] == 1*) GOTO 0x0CC3
 39: 0x0AB2 [0x05] ExtData[1]->WorkLocal[19] = 1
 40: 0x0AB5 [0x02] IF !(ExtData[1]->WorkLocal[19] <= 0*) GOTO 0x0CC3
 41: 0x0ABD [0x24] CREATE_DIALOG(message_id=9648*, default_option=0*, option_flags=0*)
    → "Voidwatch debug menu. [Exit./Alter participation status./Alter jurisdiction./Alter stratum./Alter abyssite receipt level.]"
 42: 0x0AC4 [0x25] WAIT_DIALOG_SELECT()
 43: 0x0AC5 [0x02] IF !(Work_Zone[0] == 0*) GOTO 0x0AD3
 44: 0x0ACD [0x06] ExtData[1]->WorkLocal[19] = 0
 45: 0x0AD0 [0x01] GOTO 0x0CC0
 46: 0x0AD3 [0x02] IF !(Work_Zone[0] == 1*) GOTO 0x0B01
 47: 0x0ADB [0x02] IF !(ExtData[1]->WorkLocal[4] == 0*) GOTO 0x0AF0
 48: 0x0AE3 [0x03] ExtData[1]->WorkLocal[4] = 1*
 49: 0x0AE8 [0x03] Work_Zone[2] = 0*
 50: 0x0AED [0x01] GOTO 0x0AFA
 51: 0x0AF0 [0x03] ExtData[1]->WorkLocal[4] = 0*
 52: 0x0AF5 [0x03] Work_Zone[2] = 1*

SUBROUTINE_0AFA:
 53: 0x0AFA [0x48] [System] [9649*]:
    → "Participation status altered to ["Eff, yeah"/"Heck, no"]."
 54: 0x0AFD [0x23] WAIT_FOR_DIALOG_INTERACTION
 55: 0x0AFE [0x01] GOTO 0x0CC0
 56: 0x0B01 [0x02] IF !(Work_Zone[0] == 2*) GOTO 0x0BB2
 57: 0x0B09 [0x05] ExtData[1]->WorkLocal[20] = 1

SUBROUTINE_0B0C:
 58: 0x0B0C [0x02] IF !(ExtData[1]->WorkLocal[20] <= 0*) GOTO 0x0BAF
 59: 0x0B14 [0x24] CREATE_DIALOG(message_id=9650*, default_option=0*, option_flags=0*)
    → "Jurisdiction menu. [Back to the top./San d'Oria./Bastok./Windurst./Past San d'Oria./Past Bastok./Past Windurst.]"
 60: 0x0B1B [0x25] WAIT_DIALOG_SELECT()
 61: 0x0B1C [0x02] IF !(Work_Zone[0] == 0*) GOTO 0x0B2A
 62: 0x0B24 [0x06] ExtData[1]->WorkLocal[20] = 0
 63: 0x0B27 [0x01] GOTO 0x0BA8
 64: 0x0B2A [0x02] IF !(Work_Zone[0] == 1*) GOTO 0x0B3F
 65: 0x0B32 [0x03] Work_Zone[2] = 0*
 66: 0x0B37 [0x03] ExtData[1]->WorkLocal[5] = 1*
 67: 0x0B3C [0x01] GOTO 0x0BA8
 68: 0x0B3F [0x02] IF !(Work_Zone[0] == 2*) GOTO 0x0B54
 69: 0x0B47 [0x03] Work_Zone[2] = 1*
 70: 0x0B4C [0x03] ExtData[1]->WorkLocal[5] = 2*
 71: 0x0B51 [0x01] GOTO 0x0BA8
 72: 0x0B54 [0x02] IF !(Work_Zone[0] == 3*) GOTO 0x0B69
 73: 0x0B5C [0x03] Work_Zone[2] = 2*
 74: 0x0B61 [0x03] ExtData[1]->WorkLocal[5] = 3*
 75: 0x0B66 [0x01] GOTO 0x0BA8
 76: 0x0B69 [0x02] IF !(Work_Zone[0] == 4*) GOTO 0x0B7E
 77: 0x0B71 [0x03] Work_Zone[2] = 3*
 78: 0x0B76 [0x03] ExtData[1]->WorkLocal[5] = 4*
 79: 0x0B7B [0x01] GOTO 0x0BA8
 80: 0x0B7E [0x02] IF !(Work_Zone[0] == 5*) GOTO 0x0B93
 81: 0x0B86 [0x03] Work_Zone[2] = 4*
 82: 0x0B8B [0x03] ExtData[1]->WorkLocal[5] = 5*
 83: 0x0B90 [0x01] GOTO 0x0BA8
 84: 0x0B93 [0x02] IF !(Work_Zone[0] == 6*) GOTO 0x0BA8
 85: 0x0B9B [0x03] Work_Zone[2] = 5*
 86: 0x0BA0 [0x03] ExtData[1]->WorkLocal[5] = 6*
 87: 0x0BA5 [0x01] GOTO 0x0BA8

SUBROUTINE_0BA8:
 88: 0x0BA8 [0x48] [System] [9651*]:
    → "Jurisdiction changed to [San d'Oria/Bastok/Windurst/Past San d'Oria/Past Bastok/Past Windurst]."
 89: 0x0BAB [0x23] WAIT_FOR_DIALOG_INTERACTION
 90: 0x0BAC [0x01] GOTO 0x0B0C
 91: 0x0BAF [0x01] GOTO 0x0CC0
 92: 0x0BB2 [0x02] IF !(Work_Zone[0] == 3*) GOTO 0x0C39
 93: 0x0BBA [0x05] ExtData[1]->WorkLocal[20] = 1

SUBROUTINE_0BBD:
 94: 0x0BBD [0x02] IF !(ExtData[1]->WorkLocal[20] <= 0*) GOTO 0x0C36
 95: 0x0BC5 [0x24] CREATE_DIALOG(message_id=9652*, default_option=0*, option_flags=0*)
    → "Stratum menu. [Back to the top./Stage 1./Stage 2./Stage 3./Stage 4.]"
 96: 0x0BCC [0x25] WAIT_DIALOG_SELECT()
 97: 0x0BCD [0x02] IF !(Work_Zone[0] == 0*) GOTO 0x0BDB
 98: 0x0BD5 [0x06] ExtData[1]->WorkLocal[20] = 0
 99: 0x0BD8 [0x01] GOTO 0x0C2F
100: 0x0BDB [0x02] IF !(Work_Zone[0] == 1*) GOTO 0x0BF0
101: 0x0BE3 [0x03] Work_Zone[2] = 0*
102: 0x0BE8 [0x03] ExtData[1]->WorkLocal[7] = 1*
103: 0x0BED [0x01] GOTO 0x0C2F
104: 0x0BF0 [0x02] IF !(Work_Zone[0] == 2*) GOTO 0x0C05
105: 0x0BF8 [0x03] Work_Zone[2] = 1*
106: 0x0BFD [0x03] ExtData[1]->WorkLocal[7] = 2*
107: 0x0C02 [0x01] GOTO 0x0C2F
108: 0x0C05 [0x02] IF !(Work_Zone[0] == 3*) GOTO 0x0C1A
109: 0x0C0D [0x03] Work_Zone[2] = 2*
110: 0x0C12 [0x03] ExtData[1]->WorkLocal[7] = 3*
111: 0x0C17 [0x01] GOTO 0x0C2F
112: 0x0C1A [0x02] IF !(Work_Zone[0] == 4*) GOTO 0x0C2F
113: 0x0C22 [0x03] Work_Zone[2] = 3*
114: 0x0C27 [0x03] ExtData[1]->WorkLocal[7] = 4*
115: 0x0C2C [0x01] GOTO 0x0C2F

SUBROUTINE_0C2F:
116: 0x0C2F [0x48] [System] [9653*]:
    → "Stratum changed to [Stage 1/Stage 2/Stage 3/Stage 4]."
117: 0x0C32 [0x23] WAIT_FOR_DIALOG_INTERACTION
118: 0x0C33 [0x01] GOTO 0x0BBD
119: 0x0C36 [0x01] GOTO 0x0CC0
120: 0x0C39 [0x02] IF !(Work_Zone[0] == 4*) GOTO 0x0CC0
121: 0x0C41 [0x05] ExtData[1]->WorkLocal[20] = 1

SUBROUTINE_0C44:
122: 0x0C44 [0x02] IF !(ExtData[1]->WorkLocal[20] <= 0*) GOTO 0x0CBD
123: 0x0C4C [0x24] CREATE_DIALOG(message_id=9654*, default_option=0*, option_flags=0*)
    → "Abyssite receipt level. [Back to the top./1st time./2nd time and onwards/Abyssite evolution./2nd abyssite evolution and onwards.]"
124: 0x0C53 [0x25] WAIT_DIALOG_SELECT()
125: 0x0C54 [0x02] IF !(Work_Zone[0] == 0*) GOTO 0x0C62
126: 0x0C5C [0x06] ExtData[1]->WorkLocal[20] = 0
127: 0x0C5F [0x01] GOTO 0x0CB6
128: 0x0C62 [0x02] IF !(Work_Zone[0] == 1*) GOTO 0x0C77
129: 0x0C6A [0x03] Work_Zone[2] = 0*
130: 0x0C6F [0x03] ExtData[1]->WorkLocal[8] = 0*
131: 0x0C74 [0x01] GOTO 0x0CB6
132: 0x0C77 [0x02] IF !(Work_Zone[0] == 2*) GOTO 0x0C8C
133: 0x0C7F [0x03] Work_Zone[2] = 1*
134: 0x0C84 [0x03] ExtData[1]->WorkLocal[8] = 1*
135: 0x0C89 [0x01] GOTO 0x0CB6
136: 0x0C8C [0x02] IF !(Work_Zone[0] == 3*) GOTO 0x0CA1
137: 0x0C94 [0x03] Work_Zone[2] = 2*
138: 0x0C99 [0x03] ExtData[1]->WorkLocal[8] = 2*
139: 0x0C9E [0x01] GOTO 0x0CB6
140: 0x0CA1 [0x02] IF !(Work_Zone[0] == 4*) GOTO 0x0CB6
141: 0x0CA9 [0x03] Work_Zone[2] = 3*
142: 0x0CAE [0x03] ExtData[1]->WorkLocal[8] = 3*
143: 0x0CB3 [0x01] GOTO 0x0CB6

SUBROUTINE_0CB6:
144: 0x0CB6 [0x48] [System] [9653*]:
    → "Stratum changed to [Stage 1/Stage 2/Stage 3/Stage 4]."
145: 0x0CB9 [0x23] WAIT_FOR_DIALOG_INTERACTION
146: 0x0CBA [0x01] GOTO 0x0C44
147: 0x0CBD [0x01] GOTO 0x0CC0

SUBROUTINE_0CC0:
148: 0x0CC0 [0x01] GOTO 0x0AB5
149: 0x0CC3 [0x02] IF !(ExtData[1]->WorkLocal[5] == 1*) GOTO 0x0CD3
150: 0x0CCB [0x03] ExtData[1]->WorkLocal[11] = 0*
151: 0x0CD0 [0x01] GOTO 0x0D23
152: 0x0CD3 [0x02] IF !(ExtData[1]->WorkLocal[5] == 2*) GOTO 0x0CE3
153: 0x0CDB [0x03] ExtData[1]->WorkLocal[11] = 0*
154: 0x0CE0 [0x01] GOTO 0x0D23
155: 0x0CE3 [0x02] IF !(ExtData[1]->WorkLocal[5] == 3*) GOTO 0x0CF3
156: 0x0CEB [0x03] ExtData[1]->WorkLocal[11] = 0*
157: 0x0CF0 [0x01] GOTO 0x0D23
158: 0x0CF3 [0x02] IF !(ExtData[1]->WorkLocal[5] == 4*) GOTO 0x0D03
159: 0x0CFB [0x03] ExtData[1]->WorkLocal[11] = 1*
160: 0x0D00 [0x01] GOTO 0x0D23
161: 0x0D03 [0x02] IF !(ExtData[1]->WorkLocal[5] == 5*) GOTO 0x0D13
162: 0x0D0B [0x03] ExtData[1]->WorkLocal[11] = 1*
163: 0x0D10 [0x01] GOTO 0x0D23
164: 0x0D13 [0x02] IF !(ExtData[1]->WorkLocal[5] == 6*) GOTO 0x0D23
165: 0x0D1B [0x03] ExtData[1]->WorkLocal[11] = 1*
166: 0x0D20 [0x01] GOTO 0x0D23

SUBROUTINE_0D23:
167: 0x0D23 [0x02] IF !(ExtData[1]->WorkLocal[11] == 0*) GOTO 0x0D33
168: 0x0D2B [0x03] Work_Zone[2] = 0*
169: 0x0D30 [0x01] GOTO 0x0D38
170: 0x0D33 [0x03] Work_Zone[2] = 1*

SUBROUTINE_0D38:
171: 0x0D38 [0x02] IF !(ExtData[1]->WorkLocal[31] == 1*) GOTO 0x0D5A
172: 0x0D40 [0x66] LOAD_EXT_SCHEDULER_MAIN: Load scheduler "thk1" with entities [EventEntity, EventEntity], work=19*
173: 0x0D4F [0x2B] Camille (ID: 16986829/0x010332CD) [9615*]:
    → "The Immortals said they discovered a planar rift in a cave 'round these parts. I wonder if that's Aydeewa Subterrane..."
174: 0x0D56 [0x23] WAIT_FOR_DIALOG_INTERACTION
175: 0x0D57 [0x01] GOTO 0x0D62
176: 0x0D5A [0x2B] Camille (ID: 16986829/0x010332CD) [9597*]:
    → "If yew ever find that the goin's gittin' tough, I'll help yew git goin' again, hon. Come to me with any problem yew've got."
177: 0x0D61 [0x23] WAIT_FOR_DIALOG_INTERACTION

SUBROUTINE_0D62:
178: 0x0D62 [0x05] ExtData[1]->WorkLocal[13] = 1

SUBROUTINE_0D65:
179: 0x0D65 [0x02] IF !(ExtData[1]->WorkLocal[13] <= 0*) GOTO 0x1662
180: 0x0D6D [0x3C] SET_BIT_FLAG_CONDITIONAL(target_work_offset=ExtData[1]->WorkLocal[14], bit_index_work_offset=2*, condition_work_offset=1*)
181: 0x0D74 [0x03] Work_Zone[2] = 1539*
182: 0x0D79 [0x1A] CALL_SUBROUTINE(address=0x1664)
183: 0x0D7C [0x24] CREATE_DIALOG(message_id=9588*, default_option=0*, option_flags=ExtData[1]->WorkLocal[14])
    → "What will you do? [Nothing at all./Ask many a question./Participate in Voidwatch Ops./Request debriefing./Request $3./Check voidstone stock./Request reward issuance.]"
184: 0x0D83 [0x25] WAIT_DIALOG_SELECT()
185: 0x0D84 [0x02] IF !(Work_Zone[0] == 0*) GOTO 0x0D97
186: 0x0D8C [0x03] Work_Zone[1] = 1073741824*
187: 0x0D91 [0x06] ExtData[1]->WorkLocal[13] = 0
188: 0x0D94 [0x01] GOTO 0x165F
189: 0x0D97 [0x02] IF !(Work_Zone[0] == 1*) GOTO 0x0DB2
190: 0x0D9F [0x2B] Camille (ID: 16986829/0x010332CD) [9590*]:
    → "Whoa, now! Stop pumpin' me with questions! I'm startin' to squirm like a skoffin in a snare!"
191: 0x0DA6 [0x23] WAIT_FOR_DIALOG_INTERACTION
192: 0x0DA7 [0x2B] Camille (ID: 16986829/0x010332CD) [9591*]:
    → "If y'all go find one o' them there Voidwatch Officers, they'll set yew right as rain."
193: 0x0DAE [0x23] WAIT_FOR_DIALOG_INTERACTION
194: 0x0DAF [0x01] GOTO 0x165F
195: 0x0DB2 [0x02] IF !(Work_Zone[0] == 3*) GOTO 0x0FBC
196: 0x0DBA [0x02] IF !(ExtData[1]->WorkLocal[7] == 0*) GOTO 0x0FB9
197: 0x0DC2 [0x3E] IF !(ExtData[1]->WorkLocal[23] bit 0*) GOTO 0x0EC8
198: 0x0DC9 [0x3E] IF !(ExtData[1]->WorkLocal[23] bit 1*) GOTO 0x0E4F
199: 0x0DD0 [0x3E] IF !(ExtData[1]->WorkLocal[23] bit 2*) GOTO 0x0E12
200: 0x0DD7 [0x3E] IF !(ExtData[1]->WorkLocal[23] bit 3*) GOTO 0x0DF3
201: 0x0DDE [0x03] Work_Zone[2] = ExtData[1]->WorkLocal[31]
202: 0x0DE3 [0x08] Work_Zone[2] -= 1*
203: 0x0DE8 [0x2B] Camille (ID: 16986829/0x010332CD) [9599*]:
    → "Those wily Voidwalkers have come back to rustle up some trouble in Arrapago Reef, Mount Zhayolm, Mamook, [and Caedarva Mire/Caedarva Mire, and Aydeewa Subterrane]! Yew've taken care of them before, so this time should be as easy as fightin' yer way outta a straw heap."
204: 0x0DEF [0x23] WAIT_FOR_DIALOG_INTERACTION
205: 0x0DF0 [0x01] GOTO 0x0E0F
206: 0x0DF3 [0x03] Work_Zone[2] = 3*
207: 0x0DF8 [0x03] Work_Zone[3] = 3*
208: 0x0DFD [0x03] Work_Zone[4] = 3*
209: 0x0E02 [0x03] Work_Zone[5] = 2*
210: 0x0E07 [0x2B] Camille (ID: 16986829/0x010332CD) [9598*]:
    → "Yew still ain't put an end to yer operations. Hustle on over to [Arrapago Reef/Mount Zhayolm/Mamook/Caedarva Mire][, Mount Zhayolm/, Mamook/, Caedarva Mire/ fer yer final showdown./][, Mamook/, Caedarva Mire/, Mount Zhayolm/][, and Caedarva Mire.//You're almost there, hon./, and...I guess that does it.] Now quitcher lallygaggin' an' git back out there, <Player>!"
211: 0x0E0E [0x23] WAIT_FOR_DIALOG_INTERACTION

SUBROUTINE_0E0F:
212: 0x0E0F [0x01] GOTO 0x0E4C
213: 0x0E12 [0x3E] IF !(ExtData[1]->WorkLocal[23] bit 3*) GOTO 0x0E30
214: 0x0E19 [0x03] Work_Zone[2] = 2*
215: 0x0E1E [0x03] Work_Zone[3] = 3*
216: 0x0E23 [0x03] Work_Zone[4] = 3*
217: 0x0E28 [0x03] Work_Zone[5] = 2*
218: 0x0E2D [0x01] GOTO 0x0E44
219: 0x0E30 [0x03] Work_Zone[2] = 2*
220: 0x0E35 [0x03] Work_Zone[3] = 4*
221: 0x0E3A [0x03] Work_Zone[4] = 1*
222: 0x0E3F [0x03] Work_Zone[5] = 3*

SUBROUTINE_0E44:
223: 0x0E44 [0x2B] Camille (ID: 16986829/0x010332CD) [9598*]:
    → "Yew still ain't put an end to yer operations. Hustle on over to [Arrapago Reef/Mount Zhayolm/Mamook/Caedarva Mire][, Mount Zhayolm/, Mamook/, Caedarva Mire/ fer yer final showdown./][, Mamook/, Caedarva Mire/, Mount Zhayolm/][, and Caedarva Mire.//You're almost there, hon./, and...I guess that does it.] Now quitcher lallygaggin' an' git back out there, <Player>!"
224: 0x0E4B [0x23] WAIT_FOR_DIALOG_INTERACTION

SUBROUTINE_0E4C:
225: 0x0E4C [0x01] GOTO 0x0EC5
226: 0x0E4F [0x3E] IF !(ExtData[1]->WorkLocal[23] bit 2*) GOTO 0x0E8B
227: 0x0E56 [0x3E] IF !(ExtData[1]->WorkLocal[23] bit 3*) GOTO 0x0E74
228: 0x0E5D [0x03] Work_Zone[2] = 1*
229: 0x0E62 [0x03] Work_Zone[3] = 3*
230: 0x0E67 [0x03] Work_Zone[4] = 3*
231: 0x0E6C [0x03] Work_Zone[5] = 2*
232: 0x0E71 [0x01] GOTO 0x0E88
233: 0x0E74 [0x03] Work_Zone[2] = 1*
234: 0x0E79 [0x03] Work_Zone[3] = 4*
235: 0x0E7E [0x03] Work_Zone[4] = 1*
236: 0x0E83 [0x03] Work_Zone[5] = 3*

SUBROUTINE_0E88:
237: 0x0E88 [0x01] GOTO 0x0EBD
238: 0x0E8B [0x3E] IF !(ExtData[1]->WorkLocal[23] bit 3*) GOTO 0x0EA9
239: 0x0E92 [0x03] Work_Zone[2] = 1*
240: 0x0E97 [0x03] Work_Zone[3] = 4*
241: 0x0E9C [0x03] Work_Zone[4] = 0*
242: 0x0EA1 [0x03] Work_Zone[5] = 3*
243: 0x0EA6 [0x01] GOTO 0x0EBD
244: 0x0EA9 [0x03] Work_Zone[2] = 1*
245: 0x0EAE [0x03] Work_Zone[3] = 1*
246: 0x0EB3 [0x03] Work_Zone[4] = 1*
247: 0x0EB8 [0x03] Work_Zone[5] = 3*

SUBROUTINE_0EBD:
248: 0x0EBD [0x2B] Camille (ID: 16986829/0x010332CD) [9598*]:
    → "Yew still ain't put an end to yer operations. Hustle on over to [Arrapago Reef/Mount Zhayolm/Mamook/Caedarva Mire][, Mount Zhayolm/, Mamook/, Caedarva Mire/ fer yer final showdown./][, Mamook/, Caedarva Mire/, Mount Zhayolm/][, and Caedarva Mire.//You're almost there, hon./, and...I guess that does it.] Now quitcher lallygaggin' an' git back out there, <Player>!"
249: 0x0EC4 [0x23] WAIT_FOR_DIALOG_INTERACTION

SUBROUTINE_0EC5:
250: 0x0EC5 [0x01] GOTO 0x0FB6
251: 0x0EC8 [0x3E] IF !(ExtData[1]->WorkLocal[23] bit 1*) GOTO 0x0F40
252: 0x0ECF [0x3E] IF !(ExtData[1]->WorkLocal[23] bit 2*) GOTO 0x0F0B
253: 0x0ED6 [0x3E] IF !(ExtData[1]->WorkLocal[23] bit 3*) GOTO 0x0EF4
254: 0x0EDD [0x03] Work_Zone[2] = 0*
255: 0x0EE2 [0x03] Work_Zone[3] = 3*
256: 0x0EE7 [0x03] Work_Zone[4] = 3*
257: 0x0EEC [0x03] Work_Zone[5] = 2*
258: 0x0EF1 [0x01] GOTO 0x0F08
259: 0x0EF4 [0x03] Work_Zone[2] = 0*
260: 0x0EF9 [0x03] Work_Zone[3] = 4*
261: 0x0EFE [0x03] Work_Zone[4] = 1*
262: 0x0F03 [0x03] Work_Zone[5] = 3*

SUBROUTINE_0F08:
263: 0x0F08 [0x01] GOTO 0x0F3D
264: 0x0F0B [0x3E] IF !(ExtData[1]->WorkLocal[23] bit 3*) GOTO 0x0F29
265: 0x0F12 [0x03] Work_Zone[2] = 0*
266: 0x0F17 [0x03] Work_Zone[3] = 4*
267: 0x0F1C [0x03] Work_Zone[4] = 0*
268: 0x0F21 [0x03] Work_Zone[5] = 3*
269: 0x0F26 [0x01] GOTO 0x0F3D
270: 0x0F29 [0x03] Work_Zone[2] = 0*
271: 0x0F2E [0x03] Work_Zone[3] = 1*
272: 0x0F33 [0x03] Work_Zone[4] = 1*
273: 0x0F38 [0x03] Work_Zone[5] = 3*

SUBROUTINE_0F3D:
274: 0x0F3D [0x01] GOTO 0x0FAE
275: 0x0F40 [0x3E] IF !(ExtData[1]->WorkLocal[23] bit 2*) GOTO 0x0F7C
276: 0x0F47 [0x3E] IF !(ExtData[1]->WorkLocal[23] bit 3*) GOTO 0x0F65
277: 0x0F4E [0x03] Work_Zone[2] = 0*
278: 0x0F53 [0x03] Work_Zone[3] = 4*
279: 0x0F58 [0x03] Work_Zone[4] = 2*
280: 0x0F5D [0x03] Work_Zone[5] = 3*
281: 0x0F62 [0x01] GOTO 0x0F79
282: 0x0F65 [0x03] Work_Zone[2] = 0*
283: 0x0F6A [0x03] Work_Zone[3] = 0*
284: 0x0F6F [0x03] Work_Zone[4] = 1*
285: 0x0F74 [0x03] Work_Zone[5] = 3*

SUBROUTINE_0F79:
286: 0x0F79 [0x01] GOTO 0x0FAE
287: 0x0F7C [0x3E] IF !(ExtData[1]->WorkLocal[23] bit 3*) GOTO 0x0F9A
288: 0x0F83 [0x03] Work_Zone[2] = 0*
289: 0x0F88 [0x03] Work_Zone[3] = 0*
290: 0x0F8D [0x03] Work_Zone[4] = 0*
291: 0x0F92 [0x03] Work_Zone[5] = 3*
292: 0x0F97 [0x01] GOTO 0x0FAE
293: 0x0F9A [0x03] Work_Zone[2] = 0*
294: 0x0F9F [0x03] Work_Zone[3] = 0*
295: 0x0FA4 [0x03] Work_Zone[4] = 0*
296: 0x0FA9 [0x03] Work_Zone[5] = 0*

SUBROUTINE_0FAE:
297: 0x0FAE [0x2B] Camille (ID: 16986829/0x010332CD) [9598*]:
    → "Yew still ain't put an end to yer operations. Hustle on over to [Arrapago Reef/Mount Zhayolm/Mamook/Caedarva Mire][, Mount Zhayolm/, Mamook/, Caedarva Mire/ fer yer final showdown./][, Mamook/, Caedarva Mire/, Mount Zhayolm/][, and Caedarva Mire.//You're almost there, hon./, and...I guess that does it.] Now quitcher lallygaggin' an' git back out there, <Player>!"
298: 0x0FB5 [0x23] WAIT_FOR_DIALOG_INTERACTION

SUBROUTINE_0FB6:
299: 0x0FB6 [0x01] GOTO 0x0FB9

SUBROUTINE_0FB9:
300: 0x0FB9 [0x01] GOTO 0x165F
301: 0x0FBC [0x02] IF !(Work_Zone[0] == 4*) GOTO 0x1094
302: 0x0FC4 [0x40] SET_BIT_WORK_RANGE(start_bit=0*, end_bit=15*, target=Work_Zone[1], source=3*)
303: 0x0FCD [0x40] SET_BIT_WORK_RANGE(start_bit=16*, end_bit=31*, target=Work_Zone[1], source=0*)
304: 0x0FD6 [0x43] SEND_EVENT_UPDATE: Send pending tag to server (packet 0x005B)
305: 0x0FD8 [0x43] SEND_EVENT_UPDATE: Check pending flag (skip if not pending)
306: 0x0FDA [0x03] ExtData[1]->WorkLocal[0] = Work_Zone[2]
307: 0x0FDF [0x03] ExtData[1]->WorkLocal[1] = Work_Zone[3]
308: 0x0FE4 [0x02] IF !(ExtData[1]->WorkLocal[0] <= 0*) GOTO 0x1072
309: 0x0FEC [0x02] IF !(ExtData[1]->WorkLocal[9] <= ExtData[1]->WorkLocal[10]) GOTO 0x1062
310: 0x0FF4 [0x03] ExtData[1]->WorkLocal[0] = 0*
311: 0x0FF9 [0x24] CREATE_DIALOG(message_id=9619*, default_option=0*, option_flags=0*)
    → "How many would you like? [None./Just one./Fill me up!]"
312: 0x1000 [0x25] WAIT_DIALOG_SELECT()
313: 0x1001 [0x02] IF !(Work_Zone[0] == 0*) GOTO 0x100C
314: 0x1009 [0x01] GOTO 0x103E
315: 0x100C [0x02] IF !(Work_Zone[0] == 1*) GOTO 0x1025
316: 0x1014 [0x40] SET_BIT_WORK_RANGE(start_bit=16*, end_bit=31*, target=Work_Zone[1], source=1*)
317: 0x101D [0x03] ExtData[1]->WorkLocal[0] = 1*
318: 0x1022 [0x01] GOTO 0x103E
319: 0x1025 [0x02] IF !(Work_Zone[0] == 2*) GOTO 0x103E
320: 0x102D [0x40] SET_BIT_WORK_RANGE(start_bit=16*, end_bit=31*, target=Work_Zone[1], source=0*)
321: 0x1036 [0x03] ExtData[1]->WorkLocal[0] = 1*
322: 0x103B [0x01] GOTO 0x103E

SUBROUTINE_103E:
323: 0x103E [0x02] IF !(ExtData[1]->WorkLocal[0] == 1*) GOTO 0x105F
324: 0x1046 [0x03] Work_Zone[2] = 1539*
325: 0x104B [0x2B] Camille (ID: 16986829/0x010332CD) [9620*]:
    → "Here, as per your request. May you grasp victory in the palm of your hand."
326: 0x1052 [0x23] WAIT_FOR_DIALOG_INTERACTION
327: 0x1053 [0x40] SET_BIT_WORK_RANGE(start_bit=0*, end_bit=15*, target=Work_Zone[1], source=1*)
328: 0x105C [0x06] ExtData[1]->WorkLocal[13] = 0
329: 0x105F [0x01] GOTO 0x106F
330: 0x1062 [0x03] Work_Zone[2] = ExtData[1]->WorkLocal[10]
331: 0x1067 [0x2B] Camille (ID: 16986829/0x010332CD) [9621*]:
    → "According to my records, you already possess $0 stones. That should be more than enough to succeed in your endeavor."
332: 0x106E [0x23] WAIT_FOR_DIALOG_INTERACTION

SUBROUTINE_106F:
333: 0x106F [0x01] GOTO 0x1091
334: 0x1072 [0x15] ExtData[1]->WorkLocal[1] /= 60*
335: 0x1077 [0x02] IF !(ExtData[1]->WorkLocal[1] >= 1*) GOTO 0x1084
336: 0x107F [0x03] ExtData[1]->WorkLocal[1] = 1*
337: 0x1084 [0x03] Work_Zone[2] = ExtData[1]->WorkLocal[1]
