# 16986670 - Najelith

## Common Data

| Field            | Value                     |
|------------------|---------------------------|
| Zone             | Wajaom Woodlands (ID: 51) |
| Block Size       | 696 bytes                 |
| Total Events     | 22                        |
| References Count | 57                        |

## List of Events

| Event ID                   | Entrypoint   |   Size |   Instructions |
|----------------------------|--------------|--------|----------------|
| [65535](#event-65535)      | 0x0000       |      1 |              1 |
| [512](#event-512)          | 0x0001       |      1 |              1 |
| [65535.1](#event-655351)   | 0x0002       |     16 |              4 |
| [65535.2](#event-655352)   | 0x0012       |     12 |              3 |
| [65535.3](#event-655353)   | 0x001E       |     12 |              3 |
| [65535.4](#event-655354)   | 0x002A       |     16 |              4 |
| [65535.5](#event-655355)   | 0x003A       |      5 |              2 |
| [65535.6](#event-655356)   | 0x003F       |     15 |              5 |
| [65535.7](#event-655357)   | 0x004E       |      4 |              2 |
| [65535.8](#event-655358)   | 0x0052       |     24 |              6 |
| [65535.9](#event-655359)   | 0x006A       |     15 |              5 |
| [65535.10](#event-6553510) | 0x0079       |     15 |              5 |
| [65535.11](#event-6553511) | 0x0088       |     21 |              2 |
| [65535.12](#event-6553512) | 0x009D       |     21 |              2 |
| [65535.13](#event-6553513) | 0x00B2       |     21 |              2 |
| [65535.14](#event-6553514) | 0x00C7       |     34 |              8 |
| [65535.15](#event-6553515) | 0x00E9       |     15 |              5 |
| [65535.16](#event-6553516) | 0x00F8       |     15 |              5 |
| [65535.17](#event-6553517) | 0x0107       |     20 |              6 |
| [65535.18](#event-6553518) | 0x011B       |     15 |              5 |
| [65535.19](#event-6553519) | 0x012A       |     18 |              6 |
| [65535.20](#event-6553520) | 0x013C       |     45 |              6 |

## DAT References (imed_data)

|   Index | Hex Value   |   Dec Value |
|---------|-------------|-------------|
|       0 | 0xFFFAF1DC  |  4294635996 |
|       1 | 0x9E718     |      648984 |
|       2 | 0xFFFF492C  |  4294920492 |
|       3 | 0x02BC      |         700 |
|       4 | 0x005B      |          91 |
|       5 | 0xFFFAF146  |  4294635846 |
|       6 | 0xFFFF4832  |  4294920242 |
|       7 | 0x046E      |        1134 |
|       8 | 0xFFFAD74E  |  4294629198 |
|       9 | 0x9C784     |      640900 |
|      10 | 0xFFFF84F4  |  4294935796 |
|      11 | 0x0320      |         800 |
|      12 | 0x0000      |           0 |
|      13 | 0x0028      |          40 |
|      14 | 0xFFFAE3B8  |  4294632376 |
|      15 | 0x9AB39     |      633657 |
|      16 | 0xFFFF85CE  |  4294936014 |
|      17 | 0x02C6      |         710 |
|      18 | 0x000A      |          10 |
|      19 | 0xFFFF79F6  |  4294932982 |
|      20 | 0x0417      |        1047 |
|      21 | 0x000D      |          13 |
|      22 | 0x001E      |          30 |
|      23 | 0xFFFF2580  |  4294911360 |
|      24 | 0x000B      |          11 |
|      25 | 0x14A5A     |       84570 |
|      26 | 0xA3C1      |       41921 |
|      27 | 0xFFFF181A  |  4294907930 |
|      28 | 0x0002      |           2 |
|      29 | 0x0006      |           6 |
|      30 | 0x0027      |          39 |
|      31 | 0x0060      |          96 |
|      32 | 0x00B4      |         180 |
|      33 | 0x0087      |         135 |
|      34 | 0x0088      |         136 |
|      35 | 0x017B      |         379 |
|      36 | 0x00A1      |         161 |
|      37 | 0xFFFFFF4F  |  4294967119 |
|      38 | 0xFFFFDE18  |  4294958616 |
|      39 | 0x08CA      |        2250 |
|      40 | 0x09CD      |        2509 |
|      41 | 0xFFFFE41F  |  4294960159 |
|      42 | 0x074D      |        1869 |
|      43 | 0xFFFF95A5  |  4294940069 |
|      44 | 0x1159B     |       71067 |
|      45 | 0xFFFE0B31  |  4294839089 |
|      46 | 0xFFFFE890  |  4294961296 |
|      47 | 0x11860     |       71776 |
|      48 | 0xFFFE0957  |  4294838615 |
|      49 | 0xFFFFE891  |  4294961297 |
|      50 | 0x1264D     |       75341 |
|      51 | 0xFFFE1FA3  |  4294844323 |
|      52 | 0xFFFFE470  |  4294960240 |
|      53 | 0xFFFFFFDE  |  4294967262 |
|      54 | 0xB256      |       45654 |
|      55 | 0x0BEA      |        3050 |
|      56 | 0x03C4      |         964 |

## Events

### Event 65535

#### Metadata

| Field        | Value   |
|--------------|---------|
| Entrypoint   | 0x0000  |
| Data Size    | 1 bytes |
| Instructions | 1       |

```
      00 01 02 03 04 05 06 07  08 09 0A 0B 0C 0D 0E 0F
      -- -- -- -- -- -- -- --  -- -- -- -- -- -- -- --
0000: 00                                                .               
```

#### Opcodes

```
  0: 0x0000 [0x00] END_REQSTACK()
```

### Event 512

#### Metadata

| Field        | Value   |
|--------------|---------|
| Entrypoint   | 0x0001  |
| Data Size    | 1 bytes |
| Instructions | 1       |

```
      00 01 02 03 04 05 06 07  08 09 0A 0B 0C 0D 0E 0F
      -- -- -- -- -- -- -- --  -- -- -- -- -- -- -- --
0000:    00                                              .              
```

#### Opcodes

```
  0: 0x0001 [0x00] END_REQSTACK()
```

### Event 65535.1

#### Metadata

| Field        | Value    |
|--------------|----------|
| Entrypoint   | 0x0002   |
| Data Size    | 16 bytes |
| Instructions | 4        |

```
      00 01 02 03 04 05 06 07  08 09 0A 0B 0C 0D 0E 0F
      -- -- -- -- -- -- -- --  -- -- -- -- -- -- -- --
0000:       33 01 37 00 80 01  80 02 80 03 80 B6 0A 04    3.7...........
0010: 80 00                                             ..              
```

#### Opcodes

```
  0: 0x0002 [0x33] EventEntity->Render.Flags0 |= 0x200000 // Bit 21 (flag=0x01)
  1: 0x0004 [0x37] UPDATE_EVENT_POSITION_AND_DIR: x=-331.300*, z=648.984*, y=-46.804*, direction=61.5°*
  2: 0x000D [0xB6] ENTITY_APPEARANCE_HANDLER(case=Ranged, value=91*)
  3: 0x0011 [0x00] END_REQSTACK()
```

### Event 65535.2

#### Metadata

| Field        | Value    |
|--------------|----------|
| Entrypoint   | 0x0012   |
| Data Size    | 12 bytes |
| Instructions | 3        |

```
      00 01 02 03 04 05 06 07  08 09 0A 0B 0C 0D 0E 0F
      -- -- -- -- -- -- -- --  -- -- -- -- -- -- -- --
0010:       33 01 37 05 80 01  80 06 80 07 80 00          3.7.........  
```

#### Opcodes

```
  0: 0x0012 [0x33] EventEntity->Render.Flags0 |= 0x200000 // Bit 21 (flag=0x01)
  1: 0x0014 [0x37] UPDATE_EVENT_POSITION_AND_DIR: x=-331.450*, z=648.984*, y=-47.054*, direction=99.7°*
  2: 0x001D [0x00] END_REQSTACK()
```

### Event 65535.3

#### Metadata

| Field        | Value    |
|--------------|----------|
| Entrypoint   | 0x001E   |
| Data Size    | 12 bytes |
| Instructions | 3        |

```
      00 01 02 03 04 05 06 07  08 09 0A 0B 0C 0D 0E 0F
      -- -- -- -- -- -- -- --  -- -- -- -- -- -- -- --
0010:                                            33 01                3.
0020: 37 05 80 01 80 06 80 07  80 00                    7.........      
```

#### Opcodes

```
  0: 0x001E [0x33] EventEntity->Render.Flags0 |= 0x200000 // Bit 21 (flag=0x01)
  1: 0x0020 [0x37] UPDATE_EVENT_POSITION_AND_DIR: x=-331.450*, z=648.984*, y=-47.054*, direction=99.7°*
  2: 0x0029 [0x00] END_REQSTACK()
```

### Event 65535.4

#### Metadata

| Field        | Value    |
|--------------|----------|
| Entrypoint   | 0x002A   |
| Data Size    | 16 bytes |
| Instructions | 4        |

```
      00 01 02 03 04 05 06 07  08 09 0A 0B 0C 0D 0E 0F
      -- -- -- -- -- -- -- --  -- -- -- -- -- -- -- --
0020:                                33 00 37 08 80 09            3.7...
0030: 80 0A 80 0B 80 B6 0A 0C  80 00                    ..........      
```

#### Opcodes

```
  0: 0x002A [0x33] EventEntity->Render.Flags0 &= ~ 0x200000 // Bit 21 (flag=0x00)
  1: 0x002C [0x37] UPDATE_EVENT_POSITION_AND_DIR: x=-338.098*, z=640.900*, y=-31.500*, direction=70.3°*
  2: 0x0035 [0xB6] ENTITY_APPEARANCE_HANDLER(case=Ranged, value=0*)
  3: 0x0039 [0x00] END_REQSTACK()
```

### Event 65535.5

#### Metadata

| Field        | Value   |
|--------------|---------|
| Entrypoint   | 0x003A  |
| Data Size    | 5 bytes |
| Instructions | 2       |

```
      00 01 02 03 04 05 06 07  08 09 0A 0B 0C 0D 0E 0F
      -- -- -- -- -- -- -- --  -- -- -- -- -- -- -- --
0030:                                B6 0A 04 80 00               ..... 
```

#### Opcodes

```
  0: 0x003A [0xB6] ENTITY_APPEARANCE_HANDLER(case=Ranged, value=91*)
  1: 0x003E [0x00] END_REQSTACK()
```

### Event 65535.6

#### Metadata

| Field        | Value    |
|--------------|----------|
| Entrypoint   | 0x003F   |
| Data Size    | 15 bytes |
| Instructions | 5        |

```
      00 01 02 03 04 05 06 07  08 09 0A 0B 0C 0D 0E 0F
      -- -- -- -- -- -- -- --  -- -- -- -- -- -- -- --
0030:                                               32                 2
0040: 0D 80 1F 00 0E 80 0F 80  10 80 1F 01 6F 00        ............o.  
```

#### Opcodes

```
  0: 0x003F [0x32] ExtData[1]->MainSpeed = 40* * 0.1
  1: 0x0042 [0x1F] MOVE_ENTITY: EventEntity moves to X=-334.920*, Z=633.657*, Y=-31.282*
  2: 0x004A [0x1F] MOVE_ENTITY: Update entity position (mode=1)
  3: 0x004C [0x6F] WAIT_FRAME_DELAY: Yield until WaitTime reaches zero
  4: 0x004D [0x00] END_REQSTACK()
```

### Event 65535.7

#### Metadata

| Field        | Value   |
|--------------|---------|
| Entrypoint   | 0x004E  |
| Data Size    | 4 bytes |
| Instructions | 2       |

```
      00 01 02 03 04 05 06 07  08 09 0A 0B 0C 0D 0E 0F
      -- -- -- -- -- -- -- --  -- -- -- -- -- -- -- --
0040:                                            39 11                9.
0050: 80 00                                             ..              
```

#### Opcodes

```
  0: 0x004E [0x39] SET_ENTITY_DIRECTION(direction=3.9°*)
  1: 0x0051 [0x00] END_REQSTACK()
```

### Event 65535.8

#### Metadata

| Field        | Value    |
|--------------|----------|
| Entrypoint   | 0x0052   |
| Data Size    | 24 bytes |
| Instructions | 6        |

```
      00 01 02 03 04 05 06 07  08 09 0A 0B 0C 0D 0E 0F
      -- -- -- -- -- -- -- --  -- -- -- -- -- -- -- --
0050:       37 12 80 13 80 0C  80 14 80 32 15 80 1F 00    7........2....
0060: 16 80 17 80 0C 80 1F 01  6F 00                    ........o.      
```

#### Opcodes

```
  0: 0x0052 [0x37] UPDATE_EVENT_POSITION_AND_DIR: x=0.010*, z=-34.314*, y=0.000*, direction=92.0°*
  1: 0x005B [0x32] ExtData[1]->MainSpeed = 13* * 0.1
  2: 0x005E [0x1F] MOVE_ENTITY: EventEntity moves to X=0.030*, Z=-55.936*, Y=0.000*
  3: 0x0066 [0x1F] MOVE_ENTITY: Update entity position (mode=1)
  4: 0x0068 [0x6F] WAIT_FRAME_DELAY: Yield until WaitTime reaches zero
  5: 0x0069 [0x00] END_REQSTACK()
```

### Event 65535.9

#### Metadata

| Field        | Value    |
|--------------|----------|
| Entrypoint   | 0x006A   |
| Data Size    | 15 bytes |
| Instructions | 5        |

```
      00 01 02 03 04 05 06 07  08 09 0A 0B 0C 0D 0E 0F
      -- -- -- -- -- -- -- --  -- -- -- -- -- -- -- --
0060:                                32 18 80 1F 00 19            2.....
0070: 80 1A 80 0C 80 1F 01 6F  00                       .......o.       
```

#### Opcodes

```
  0: 0x006A [0x32] ExtData[1]->MainSpeed = 11* * 0.1
  1: 0x006D [0x1F] MOVE_ENTITY: EventEntity moves to X=84.570*, Z=41.921*, Y=0.000*
  2: 0x0075 [0x1F] MOVE_ENTITY: Update entity position (mode=1)
  3: 0x0077 [0x6F] WAIT_FRAME_DELAY: Yield until WaitTime reaches zero
  4: 0x0078 [0x00] END_REQSTACK()
```

### Event 65535.10

#### Metadata

| Field        | Value    |
|--------------|----------|
| Entrypoint   | 0x0079   |
| Data Size    | 15 bytes |
| Instructions | 5        |

```
      00 01 02 03 04 05 06 07  08 09 0A 0B 0C 0D 0E 0F
      -- -- -- -- -- -- -- --  -- -- -- -- -- -- -- --
0070:                             32 15 80 1F 00 0C 80           2......
0080: 1B 80 0C 80 1F 01 6F 00                           ......o.        
```

#### Opcodes

```
  0: 0x0079 [0x32] ExtData[1]->MainSpeed = 13* * 0.1
  1: 0x007C [0x1F] MOVE_ENTITY: EventEntity moves to X=0.000*, Z=-59.366*, Y=0.000*
  2: 0x0084 [0x1F] MOVE_ENTITY: Update entity position (mode=1)
  3: 0x0086 [0x6F] WAIT_FRAME_DELAY: Yield until WaitTime reaches zero
  4: 0x0087 [0x00] END_REQSTACK()
```

### Event 65535.11

#### Metadata

| Field        | Value    |
|--------------|----------|
| Entrypoint   | 0x0088   |
| Data Size    | 21 bytes |
| Instructions | 2        |

```
      00 01 02 03 04 05 06 07  08 09 0A 0B 0C 0D 0E 0F
      -- -- -- -- -- -- -- --  -- -- -- -- -- -- -- --
0080:                          B6 0B 1C 80 1D 80 0C 80          ........
0090: 1E 80 0C 80 1F 80 1F 80  0C 80 0C 80 00           .............   
```

#### Opcodes

```
  0: 0x0088 [0xB6] ENTITY_APPEARANCE_HANDLER(case=Full entity look, race=2*, hair=6*, head=0*, body=39*, hands=0*, legs=96*, feet=96*, main=0*, sub=0*)
  1: 0x009C [0x00] END_REQSTACK()
```

### Event 65535.12

#### Metadata

| Field        | Value    |
|--------------|----------|
| Entrypoint   | 0x009D   |
| Data Size    | 21 bytes |
| Instructions | 2        |

```
      00 01 02 03 04 05 06 07  08 09 0A 0B 0C 0D 0E 0F
      -- -- -- -- -- -- -- --  -- -- -- -- -- -- -- --
0090:                                         B6 0B 1C               ...
00A0: 80 1D 80 0C 80 20 80 21  80 22 80 22 80 23 80 0C  ..... .!.".".#..
00B0: 80 00                                             ..              
```

#### Opcodes

```
  0: 0x009D [0xB6] ENTITY_APPEARANCE_HANDLER(case=Full entity look, race=2*, hair=6*, head=0*, body=180*, hands=135*, legs=136*, feet=136*, main=379*, sub=0*)
  1: 0x00B1 [0x00] END_REQSTACK()
```

### Event 65535.13

#### Metadata

| Field        | Value    |
|--------------|----------|
| Entrypoint   | 0x00B2   |
| Data Size    | 21 bytes |
| Instructions | 2        |

```
      00 01 02 03 04 05 06 07  08 09 0A 0B 0C 0D 0E 0F
      -- -- -- -- -- -- -- --  -- -- -- -- -- -- -- --
00B0:       B6 0B 1C 80 1D 80  24 80 20 80 21 80 22 80    ......$. .!.".
00C0: 22 80 23 80 0C 80 00                              ".#....         
```

#### Opcodes

```
  0: 0x00B2 [0xB6] ENTITY_APPEARANCE_HANDLER(case=Full entity look, race=2*, hair=6*, head=161*, body=180*, hands=135*, legs=136*, feet=136*, main=379*, sub=0*)
  1: 0x00C6 [0x00] END_REQSTACK()
```

### Event 65535.14

#### Metadata

| Field        | Value    |
|--------------|----------|
| Entrypoint   | 0x00C7   |
| Data Size    | 34 bytes |
| Instructions | 8        |

```
      00 01 02 03 04 05 06 07  08 09 0A 0B 0C 0D 0E 0F
      -- -- -- -- -- -- -- --  -- -- -- -- -- -- -- --
00C0:                      1E  32 32 03 01 37 25 80 26         .22..7%.&
00D0: 80 0C 80 27 80 32 15 80  1F 00 28 80 29 80 0C 80  ...'.2....(.)...
00E0: 1F 01 6F 1E 32 32 03 01  00                       ..o.22...       
```

#### Opcodes

```
  0: 0x00C7 [0x1E] EventEntity looks at Azahma (ID: 16986674/0x01033232) and starts talking
  1: 0x00CC [0x37] UPDATE_EVENT_POSITION_AND_DIR: x=-0.177*, z=-8.680*, y=0.000*, direction=197.7°*
  2: 0x00D5 [0x32] ExtData[1]->MainSpeed = 13* * 0.1
  3: 0x00D8 [0x1F] MOVE_ENTITY: EventEntity moves to X=2.509*, Z=-7.137*, Y=0.000*
  4: 0x00E0 [0x1F] MOVE_ENTITY: Update entity position (mode=1)
  5: 0x00E2 [0x6F] WAIT_FRAME_DELAY: Yield until WaitTime reaches zero
  6: 0x00E3 [0x1E] EventEntity looks at Azahma (ID: 16986674/0x01033232) and starts talking
  7: 0x00E8 [0x00] END_REQSTACK()
```

### Event 65535.15

#### Metadata

| Field        | Value    |
|--------------|----------|
| Entrypoint   | 0x00E9   |
| Data Size    | 15 bytes |
| Instructions | 5        |

```
      00 01 02 03 04 05 06 07  08 09 0A 0B 0C 0D 0E 0F
      -- -- -- -- -- -- -- --  -- -- -- -- -- -- -- --
00E0:                             32 15 80 1F 00 2A 80           2....*.
00F0: 2B 80 0C 80 1F 01 6F 00                           +.....o.        
```

#### Opcodes

```
  0: 0x00E9 [0x32] ExtData[1]->MainSpeed = 13* * 0.1
  1: 0x00EC [0x1F] MOVE_ENTITY: EventEntity moves to X=1.869*, Z=-27.227*, Y=0.000*
  2: 0x00F4 [0x1F] MOVE_ENTITY: Update entity position (mode=1)
  3: 0x00F6 [0x6F] WAIT_FRAME_DELAY: Yield until WaitTime reaches zero
  4: 0x00F7 [0x00] END_REQSTACK()
```

### Event 65535.16

#### Metadata

| Field        | Value    |
|--------------|----------|
| Entrypoint   | 0x00F8   |
| Data Size    | 15 bytes |
| Instructions | 5        |

```
      00 01 02 03 04 05 06 07  08 09 0A 0B 0C 0D 0E 0F
      -- -- -- -- -- -- -- --  -- -- -- -- -- -- -- --
00F0:                          32 15 80 1F 00 2C 80 2D          2....,.-
0100: 80 2E 80 1F 01 6F 00                              .....o.         
```

#### Opcodes

```
  0: 0x00F8 [0x32] ExtData[1]->MainSpeed = 13* * 0.1
  1: 0x00FB [0x1F] MOVE_ENTITY: EventEntity moves to X=71.067*, Z=-128.207*, Y=-6.000*
  2: 0x0103 [0x1F] MOVE_ENTITY: Update entity position (mode=1)
  3: 0x0105 [0x6F] WAIT_FRAME_DELAY: Yield until WaitTime reaches zero
  4: 0x0106 [0x00] END_REQSTACK()
```

### Event 65535.17

#### Metadata

| Field        | Value    |
|--------------|----------|
| Entrypoint   | 0x0107   |
| Data Size    | 20 bytes |
| Instructions | 6        |

```
      00 01 02 03 04 05 06 07  08 09 0A 0B 0C 0D 0E 0F
      -- -- -- -- -- -- -- --  -- -- -- -- -- -- -- --
0100:                      32  12 80 1F 00 2F 80 30 80         2..../.0.
0110: 31 80 1F 01 6F 1E 39 32  03 01 00                 1...o.92...     
```

#### Opcodes

```
  0: 0x0107 [0x32] ExtData[1]->MainSpeed = 10* * 0.1
  1: 0x010A [0x1F] MOVE_ENTITY: EventEntity moves to X=71.776*, Z=-128.681*, Y=-5.999*
  2: 0x0112 [0x1F] MOVE_ENTITY: Update entity position (mode=1)
  3: 0x0114 [0x6F] WAIT_FRAME_DELAY: Yield until WaitTime reaches zero
  4: 0x0115 [0x1E] EventEntity looks at Ryaaf (ID: 16986681/0x01033239) and starts talking
  5: 0x011A [0x00] END_REQSTACK()
```

### Event 65535.18

#### Metadata

| Field        | Value    |
|--------------|----------|
| Entrypoint   | 0x011B   |
| Data Size    | 15 bytes |
| Instructions | 5        |

```
      00 01 02 03 04 05 06 07  08 09 0A 0B 0C 0D 0E 0F
      -- -- -- -- -- -- -- --  -- -- -- -- -- -- -- --
0110:                                   32 15 80 1F 00             2....
0120: 32 80 33 80 31 80 1F 01  6F 00                    2.3.1...o.      
```

#### Opcodes

```
  0: 0x011B [0x32] ExtData[1]->MainSpeed = 13* * 0.1
  1: 0x011E [0x1F] MOVE_ENTITY: EventEntity moves to X=75.341*, Z=-122.973*, Y=-5.999*
  2: 0x0126 [0x1F] MOVE_ENTITY: Update entity position (mode=1)
  3: 0x0128 [0x6F] WAIT_FRAME_DELAY: Yield until WaitTime reaches zero
  4: 0x0129 [0x00] END_REQSTACK()
```

### Event 65535.19

#### Metadata

| Field        | Value    |
|--------------|----------|
| Entrypoint   | 0x012A   |
| Data Size    | 18 bytes |
| Instructions | 6        |

```
      00 01 02 03 04 05 06 07  08 09 0A 0B 0C 0D 0E 0F
      -- -- -- -- -- -- -- --  -- -- -- -- -- -- -- --
0120:                                1C 16 80 32 15 80            ...2..
0130: 1F 00 28 80 34 80 0C 80  1F 01 6F 00              ..(.4.....o.    
```

#### Opcodes

```
  0: 0x012A [0x1C] WAIT(30* ticks)
  1: 0x012D [0x32] ExtData[1]->MainSpeed = 13* * 0.1
  2: 0x0130 [0x1F] MOVE_ENTITY: EventEntity moves to X=2.509*, Z=-7.056*, Y=0.000*
  3: 0x0138 [0x1F] MOVE_ENTITY: Update entity position (mode=1)
  4: 0x013A [0x6F] WAIT_FRAME_DELAY: Yield until WaitTime reaches zero
  5: 0x013B [0x00] END_REQSTACK()
```

### Event 65535.20

#### Metadata

| Field        | Value    |
|--------------|----------|
| Entrypoint   | 0x013C   |
| Data Size    | 45 bytes |
| Instructions | 6        |

```
      00 01 02 03 04 05 06 07  08 09 0A 0B 0C 0D 0E 0F
      -- -- -- -- -- -- -- --  -- -- -- -- -- -- -- --
0130:                                      37 35 80 36              75.6
0140: 80 0C 80 37 80 B6 0A 0C  80 1C 12 80 5B 38 80 2E  ...7........[8..
0150: 32 03 01 2E 32 03 01 73  65 69 30 53 2E 32 03 01  2...2..sei0S.2..
0160: 2E 32 03 01 73 65 69 30  00                       .2..sei0.       
```

#### Opcodes

```
  0: 0x013C [0x37] UPDATE_EVENT_POSITION_AND_DIR: x=-0.034*, z=45.654*, y=0.000*, direction=268.1°*
  1: 0x0145 [0xB6] ENTITY_APPEARANCE_HANDLER(case=Ranged, value=0*)
  2: 0x0149 [0x1C] WAIT(10* ticks)
  3: 0x014C [0x5B] LOAD_EXT_SCHEDULER: Load scheduler "sei0" with entities [Najelith (ID: 16986670/0x0103322E), Najelith (ID: 16986670/0x0103322E)], work=964*
  4: 0x015B [0x53] WAIT_SCHEDULER_TASK: Wait for scheduler "sei0" with entities [Najelith (ID: 16986670/0x0103322E), Najelith (ID: 16986670/0x0103322E)]
  5: 0x0168 [0x00] END_REQSTACK()
```
