# 16986759

## Common Data

| Field            | Value                     |
|------------------|---------------------------|
| Zone             | Wajaom Woodlands (ID: 51) |
| Block Size       | 6128 bytes                |
| Total Events     | 3                         |
| References Count | 117                       |

## List of Events

| Event ID              | Entrypoint   |   Size |   Instructions |
|-----------------------|--------------|--------|----------------|
| [65535](#event-65535) | 0x0000       |      1 |              1 |
| [20](#event-20)       | 0x0001       |    810 |            118 |
| [513](#event-513)     | 0x032B       |   4820 |            613 |

## DAT References (imed_data)

|   Index | Hex Value   |   Dec Value |
|---------|-------------|-------------|
|       0 | 0x0001      |           1 |
|       1 | 0x00C8      |         200 |
|       2 | 0x0000      |           0 |
|       3 | 0x0013      |          19 |
|       4 | 0x007B      |         123 |
|       5 | 0x35CD1     |      220369 |
|       6 | 0xFFFE87B7  |  4294870967 |
|       7 | 0xFFFF9D05  |  4294941957 |
|       8 | 0x0481      |        1153 |
|       9 | 0xA5C97     |      679063 |
|      10 | 0x327C1     |      206785 |
|      11 | 0xFFFFC22D  |  4294951469 |
|      12 | 0x046A      |        1130 |
|      13 | 0x0400      |        1024 |
|      14 | 0xA796C     |      686444 |
|      15 | 0x32849     |      206921 |
|      16 | 0xFFFFC27B  |  4294951547 |
|      17 | 0x07DD      |        2013 |
|      18 | 0x00FD      |         253 |
|      19 | 0x001E      |          30 |
|      20 | 0x011A      |         282 |
|      21 | 0x2021      |        8225 |
|      22 | 0x0002      |           2 |
|      23 | 0x0003      |           3 |
|      24 | 0x0004      |           4 |
|      25 | 0x0005      |           5 |
|      26 | 0x0006      |           6 |
|      27 | 0x0007      |           7 |
|      28 | 0x0008      |           8 |
|      29 | 0x003C      |          60 |
|      30 | 0x0095      |         149 |
|      31 | 0x0065      |         101 |
|      32 | 0x008A      |         138 |
|      33 | 0xA5FD2     |      679890 |
|      34 | 0x33C6C     |      212076 |
|      35 | 0xFFFFC27A  |  4294951546 |
|      36 | 0x1FD7      |        8151 |
|      37 | 0x1FD8      |        8152 |
|      38 | 0x1FD9      |        8153 |
|      39 | 0x005A      |          90 |
|      40 | 0x1FDA      |        8154 |
|      41 | 0x1FD2      |        8146 |
|      42 | 0x1FD3      |        8147 |
|      43 | 0x1FD4      |        8148 |
|      44 | 0x1FD5      |        8149 |
|      45 | 0x0020      |          32 |
|      46 | 0x1FD6      |        8150 |
|      47 | 0x00A3      |         163 |
|      48 | 0x1FDB      |        8155 |
|      49 | 0x0064      |         100 |
|      50 | 0x0032      |          50 |
|      51 | 0x0708      |        1800 |
|      52 | 0x0028      |          40 |
|      53 | 0x1FDC      |        8156 |
|      54 | 0x1FDD      |        8157 |
|      55 | 0x1FDE      |        8158 |
|      56 | 0x1FDF      |        8159 |
|      57 | 0x0021      |          33 |
|      58 | 0x1FE0      |        8160 |
|      59 | 0x1FE1      |        8161 |
|      60 | 0x1FE2      |        8162 |
|      61 | 0x1FE4      |        8164 |
|      62 | 0xFFFFFC00  |  4294966272 |
|      63 | 0x1FE5      |        8165 |
|      64 | 0x1FE7      |        8167 |
|      65 | 0x1FE3      |        8163 |
|      66 | 0x1FE6      |        8166 |
|      67 | 0x0600      |        1536 |
|      68 | 0x1FE8      |        8168 |
|      69 | 0x1FE9      |        8169 |
|      70 | 0x000A      |          10 |
|      71 | 0x00B4      |         180 |
|      72 | 0x007F      |         127 |
|      73 | 0x0190      |         400 |
|      74 | 0x1FEA      |        8170 |
|      75 | 0x1FEB      |        8171 |
|      76 | 0x0014      |          20 |
|      77 | 0x1FEC      |        8172 |
|      78 | 0x1FED      |        8173 |
|      79 | 0x1FEE      |        8174 |
|      80 | 0x1FEF      |        8175 |
|      81 | 0x1FF0      |        8176 |
|      82 | 0x1FF1      |        8177 |
|      83 | 0x1FF2      |        8178 |
|      84 | 0x1FF3      |        8179 |
|      85 | 0x1FF4      |        8180 |
|      86 | 0x1FF5      |        8181 |
|      87 | 0x1FF6      |        8182 |
|      88 | 0x1FF7      |        8183 |
|      89 | 0x1FF8      |        8184 |
|      90 | 0x1FF9      |        8185 |
|      91 | 0x1FFA      |        8186 |
|      92 | 0x1FFB      |        8187 |
|      93 | 0x1FFC      |        8188 |
|      94 | 0x1FFD      |        8189 |
|      95 | 0x1FFE      |        8190 |
|      96 | 0x1FFF      |        8191 |
|      97 | 0x2000      |        8192 |
|      98 | 0x2001      |        8193 |
|      99 | 0x2002      |        8194 |
|     100 | 0x2003      |        8195 |
|     101 | 0x2004      |        8196 |
|     102 | 0x2005      |        8197 |
|     103 | 0x2006      |        8198 |
|     104 | 0x2007      |        8199 |
|     105 | 0x2008      |        8200 |
|     106 | 0x2009      |        8201 |
|     107 | 0x200A      |        8202 |
|     108 | 0x200B      |        8203 |
|     109 | 0x200C      |        8204 |
|     110 | 0x200D      |        8205 |
|     111 | 0x200E      |        8206 |
|     112 | 0x200F      |        8207 |
|     113 | 0x0050      |          80 |
|     114 | 0x00C9      |         201 |
|     115 | 0x002D      |          45 |
|     116 | 0x00D7      |         215 |

## String References

- **8179**: I thought I saw... [A toad chasing a Poroggo!/A Tarutaru chasing a toad!/A Tarutaru chasing a Poroggo!]

## Events

### Event 65535

#### Metadata

| Field        | Value   |
|--------------|---------|
| Entrypoint   | 0x0000  |
| Data Size    | 1 bytes |
| Instructions | 1       |

```
      00 01 02 03 04 05 06 07  08 09 0A 0B 0C 0D 0E 0F
      -- -- -- -- -- -- -- --  -- -- -- -- -- -- -- --
0000: 00                                                .               
```

#### Opcodes

```
  0: 0x0000 [0x00] END_REQSTACK()
```

### Event 20

#### Metadata

| Field        | Value     |
|--------------|-----------|
| Entrypoint   | 0x0001    |
| Data Size    | 810 bytes |
| Instructions | 118       |

```
      00 01 02 03 04 05 06 07  08 09 0A 0B 0C 0D 0E 0F
      -- -- -- -- -- -- -- --  -- -- -- -- -- -- -- --
0000:    42 43 00 43 01 03 00  00 09 10 02 00 00 00 80   BC.C...........
0010: 00 27 00 45 01 80 F0 FF  FF 7F F0 FF FF 7F 66 64  .'.E..........fd
0020: 69 31 02 80 1A 13 14 46  01 38 03 80 4E 00 F0 FF  i1.....F.8..N...
0030: FF 7F 5C 00 04 80 5C 01  04 80 9A AB 09 AB 0F 92  ..\...\.........
0040: 01 8A 32 03 01 92 01 88  32 03 01 94 01 F0 FF FF  ..2.....2.......
0050: 7F BA F0 FF FF 7F 05 80  06 80 07 80 08 80 27 10  ..............'.
0060: 8A 32 03 01 01 27 10 88  32 03 01 01 80 8A 32 03  .2...'..2.....2.
0070: 01 80 88 32 03 01 27 10  8B 32 03 01 01 80 F0 FF  ...2..'..2......
0080: FF 7F BA F0 FF FF 7F 09  80 0A 80 0B 80 0C 80 4B  ...............K
0090: F0 FF FF 7F 0D 80 BA 8B  32 03 01 0E 80 0F 80 10  ........2.......
00A0: 80 11 80 80 8B 32 03 01  94 01 8B 32 03 01 73 12  .....2.....2..s.
00B0: 80 8B 32 03 01 F0 FF FF  7F 1C 13 80 29 10 F0 FF  ..2.........)...
00C0: FF 7F 25 02 02 10 00 80  80 05 01 45 14 80 F0 FF  ..%........E....
00D0: FF 7F F0 FF FF 7F 68 75  6D 35 02 80 1A F2 13 27  ......hum5.....'
00E0: 10 F0 FF FF 7F 38 2B 88  32 03 01 15 80 2A 10 F0  .....8+.2....*..
00F0: FF FF 7F 55 14 80 F0 FF  FF 7F F0 FF FF 7F 68 75  ...U..........hu
0100: 6D 35 01 D3 02 02 02 10  16 80 80 47 01 45 14 80  m5.........G.E..
0110: F0 FF FF 7F F0 FF FF 7F  68 6D 66 35 02 80 1A F2  ........hmf5....
0120: 13 27 10 F0 FF FF 7F 38  2B 88 32 03 01 15 80 2A  .'.....8+.2....*
0130: 10 F0 FF FF 7F 55 14 80  F0 FF FF 7F F0 FF FF 7F  .....U..........
0140: 68 6D 66 35 01 D3 02 02  02 10 17 80 80 89 01 45  hmf5...........E
0150: 14 80 F0 FF FF 7F F0 FF  FF 7F 65 6C 6D 35 02 80  ..........elm5..
0160: 1A F2 13 27 10 F0 FF FF  7F 38 2B 88 32 03 01 15  ...'.....8+.2...
0170: 80 2A 10 F0 FF FF 7F 55  14 80 F0 FF FF 7F F0 FF  .*.....U........
0180: FF 7F 65 6C 6D 35 01 D3  02 02 02 10 18 80 80 CB  ..elm5..........
0190: 01 45 14 80 F0 FF FF 7F  F0 FF FF 7F 65 6C 66 35  .E..........elf5
01A0: 02 80 1A F2 13 27 10 F0  FF FF 7F 38 2B 88 32 03  .....'.....8+.2.
01B0: 01 15 80 2A 10 F0 FF FF  7F 55 14 80 F0 FF FF 7F  ...*.....U......
01C0: F0 FF FF 7F 65 6C 66 35  01 D3 02 02 02 10 19 80  ....elf5........
01D0: 80 0D 02 45 14 80 F0 FF  FF 7F F0 FF FF 7F 74 61  ...E..........ta
01E0: 72 35 02 80 1A F2 13 27  10 F0 FF FF 7F 38 2B 88  r5.....'.....8+.
01F0: 32 03 01 15 80 2A 10 F0  FF FF 7F 55 14 80 F0 FF  2....*.....U....
0200: FF 7F F0 FF FF 7F 74 61  72 35 01 D3 02 02 02 10  ......tar5......
0210: 1A 80 80 4F 02 45 14 80  F0 FF FF 7F F0 FF FF 7F  ...O.E..........
0220: 74 61 72 35 02 80 1A F2  13 27 10 F0 FF FF 7F 38  tar5.....'.....8
0230: 2B 88 32 03 01 15 80 2A  10 F0 FF FF 7F 55 14 80  +.2....*.....U..
0240: F0 FF FF 7F F0 FF FF 7F  74 61 72 35 01 D3 02 02  ........tar5....
0250: 02 10 1B 80 80 91 02 45  14 80 F0 FF FF 7F F0 FF  .......E........
0260: FF 7F 6D 69 74 35 02 80  1A F2 13 27 10 F0 FF FF  ..mit5.....'....
0270: 7F 38 2B 88 32 03 01 15  80 2A 10 F0 FF FF 7F 55  .8+.2....*.....U
0280: 14 80 F0 FF FF 7F F0 FF  FF 7F 6D 69 74 35 01 D3  ..........mit5..
0290: 02 02 02 10 1C 80 80 D3  02 45 14 80 F0 FF FF 7F  .........E......
02A0: F0 FF FF 7F 67 61 6C 35  02 80 1A F2 13 27 10 F0  ....gal5.....'..
02B0: FF FF 7F 38 2B 88 32 03  01 15 80 2A 10 F0 FF FF  ...8+.2....*....
02C0: 7F 55 14 80 F0 FF FF 7F  F0 FF FF 7F 67 61 6C 35  .U..........gal5
02D0: 01 D3 02 1A 13 14 1C 13  80 45 14 80 F0 FF FF 7F  .........E......
02E0: F0 FF FF 7F 30 62 6C 66  02 80 1C 1D 80 AB 11 02  ....0blf........
02F0: 80 1C 00 80 02 00 00 02  80 00 FF 02 30 21 00 1A  ............0!..
0300: D1 13 1A F2 13 5C 00 1E  80 5C 01 1E 80 5C 02 1F  .....\...\...\..
0310: 80 5C 03 20 80 9A 46 00  45 01 80 F0 FF FF 7F F0  .\. ..F.E.......
0320: FF FF 7F 66 64 69 32 02  80 21 00                 ...fdi2..!.     
```

#### Opcodes

```
  0: 0x0001 [0x42] SET_CLI_EVENT_CANCEL_DATA()
  1: 0x0002 [0x43] SEND_EVENT_UPDATE: Send pending tag to server (packet 0x005B)
  2: 0x0004 [0x43] SEND_EVENT_UPDATE: Check pending flag (skip if not pending)
  3: 0x0006 [0x03] ExtData[1]->WorkLocal[0] = Work_Zone[9]
  4: 0x000B [0x02] IF !(ExtData[1]->WorkLocal[0] == 1*) GOTO 0x0027
  5: 0x0013 [0x45] LOAD_SCHEDULED_TASK: Load scheduler "fdi1" with entities [LocalPlayer, LocalPlayer], work=[200*, 0*]
  6: 0x0024 [0x1A] CALL_SUBROUTINE(address=0x1413)
  7: 0x0027 [0x46] CAMERA_CONTROL: Disable user control
  8: 0x0029 [0x38] SET_CLIENT_EVENT_MODE(mode=19*)
  9: 0x002C [0x4E] SET_ENTITY_HIDE_FLAG: Show LocalPlayer
 10: 0x0032 [0x5C] MUSIC_CONTROL: Set Idle (Day) music to song 123*
 11: 0x0036 [0x5C] MUSIC_CONTROL: Set Idle (Night) music to song 123*
 12: 0x003A [0x9A] WAIT_MUSIC_SERVER()
 13: 0x003B [0xAB] EventEntity->UnknownFlag = 1 // Enable unknown flag
 14: 0x003D [0xAB] EventEntity->CalibrationFlag = 1 // Set calibration flag
 15: 0x003F [0x92] Clavauert (ID: 16986762/0x0103328A)->Render.Flags3 ^= 0x01
 16: 0x0045 [0x92] Salwa-Molwa (ID: 16986760/0x01033288)->Render.Flags3 ^= 0x01
 17: 0x004B [0x94] LocalPlayer->Render.Flags3 ^= 0x01
 18: 0x0051 [0xBA] SET_ENTITY_POSITION(entity_id=LocalPlayer, pos_x=220.369*, pos_z=-96.329*, pos_y=-25.339*, direction=101.3°*)
 19: 0x005E [0x27] REQ_SET(priority=0x10, entity_id=Clavauert (ID: 16986762/0x0103328A), tag_num=0x01)
 20: 0x0065 [0x27] REQ_SET(priority=0x10, entity_id=Salwa-Molwa (ID: 16986760/0x01033288), tag_num=0x01)
 21: 0x006C [0x80] LOAD_WAIT(entity=Clavauert (ID: 16986762/0x0103328A))
 22: 0x0071 [0x80] LOAD_WAIT(entity=Salwa-Molwa (ID: 16986760/0x01033288))
 23: 0x0076 [0x27] REQ_SET(priority=0x10, entity_id=Unnamed NPC (ID: 16986763/0x0103328B), tag_num=0x01)
 24: 0x007D [0x80] LOAD_WAIT(entity=LocalPlayer)
 25: 0x0082 [0xBA] SET_ENTITY_POSITION(entity_id=LocalPlayer, pos_x=679.063*, pos_z=206.785*, pos_y=-15.827*, direction=99.3°*)
 26: 0x008F [0x4B] UPDATE_ENTITY_YAW(entity=LocalPlayer, yaw=5.6°*)
 27: 0x0096 [0xBA] SET_ENTITY_POSITION(entity_id=Unnamed NPC (ID: 16986763/0x0103328B), pos_x=686.444*, pos_z=206.921*, pos_y=-15.749*, direction=176.9°*)
 28: 0x00A3 [0x80] LOAD_WAIT(entity=Unnamed NPC (ID: 16986763/0x0103328B))
 29: 0x00A8 [0x94] Unnamed NPC (ID: 16986763/0x0103328B)->Render.Flags3 ^= 0x01
 30: 0x00AE [0x73] Unnamed NPC (ID: 16986763/0x0103328B) casts magic 253* on LocalPlayer
 31: 0x00B9 [0x1C] WAIT(30* ticks)
 32: 0x00BC [0x29] REQ_SET_WAIT(priority=0x10, entity_id=LocalPlayer, tag_num=0x25)
 33: 0x00C3 [0x02] IF !(Work_Zone[2] == 1*) GOTO 0x0105
 34: 0x00CB [0x45] LOAD_SCHEDULED_TASK: Load scheduler "hum5" with entities [LocalPlayer, LocalPlayer], work=[282*, 0*]
 35: 0x00DC [0x1A] CALL_SUBROUTINE(address=0x13F2)
 36: 0x00DF [0x27] REQ_SET(priority=0x10, entity_id=LocalPlayer, tag_num=0x38)
 37: 0x00E6 [0x2B] Salwa-Molwa (ID: 16986760/0x01033288) [8225*]:
    → "And I'd bet my grandma's subligar that it was the same one that put us to sleep!"
 38: 0x00ED [0x2A] GET_REQ_LEVEL(level=16, entity_id=LocalPlayer)
 39: 0x00F3 [0x55] WAIT_LOAD_SCHEDULER: Wait for scheduler "hum5" with entities [LocalPlayer, LocalPlayer], work=282*
 40: 0x0102 [0x01] GOTO 0x02D3
 41: 0x0105 [0x02] IF !(Work_Zone[2] == 2*) GOTO 0x0147
 42: 0x010D [0x45] LOAD_SCHEDULED_TASK: Load scheduler "hmf5" with entities [LocalPlayer, LocalPlayer], work=[282*, 0*]
 43: 0x011E [0x1A] CALL_SUBROUTINE(address=0x13F2)
 44: 0x0121 [0x27] REQ_SET(priority=0x10, entity_id=LocalPlayer, tag_num=0x38)
 45: 0x0128 [0x2B] Salwa-Molwa (ID: 16986760/0x01033288) [8225*]:
    → "And I'd bet my grandma's subligar that it was the same one that put us to sleep!"
 46: 0x012F [0x2A] GET_REQ_LEVEL(level=16, entity_id=LocalPlayer)
 47: 0x0135 [0x55] WAIT_LOAD_SCHEDULER: Wait for scheduler "hmf5" with entities [LocalPlayer, LocalPlayer], work=282*
 48: 0x0144 [0x01] GOTO 0x02D3
 49: 0x0147 [0x02] IF !(Work_Zone[2] == 3*) GOTO 0x0189
 50: 0x014F [0x45] LOAD_SCHEDULED_TASK: Load scheduler "elm5" with entities [LocalPlayer, LocalPlayer], work=[282*, 0*]
 51: 0x0160 [0x1A] CALL_SUBROUTINE(address=0x13F2)
 52: 0x0163 [0x27] REQ_SET(priority=0x10, entity_id=LocalPlayer, tag_num=0x38)
 53: 0x016A [0x2B] Salwa-Molwa (ID: 16986760/0x01033288) [8225*]:
    → "And I'd bet my grandma's subligar that it was the same one that put us to sleep!"
 54: 0x0171 [0x2A] GET_REQ_LEVEL(level=16, entity_id=LocalPlayer)
 55: 0x0177 [0x55] WAIT_LOAD_SCHEDULER: Wait for scheduler "elm5" with entities [LocalPlayer, LocalPlayer], work=282*
 56: 0x0186 [0x01] GOTO 0x02D3
 57: 0x0189 [0x02] IF !(Work_Zone[2] == 4*) GOTO 0x01CB
 58: 0x0191 [0x45] LOAD_SCHEDULED_TASK: Load scheduler "elf5" with entities [LocalPlayer, LocalPlayer], work=[282*, 0*]
 59: 0x01A2 [0x1A] CALL_SUBROUTINE(address=0x13F2)
 60: 0x01A5 [0x27] REQ_SET(priority=0x10, entity_id=LocalPlayer, tag_num=0x38)
 61: 0x01AC [0x2B] Salwa-Molwa (ID: 16986760/0x01033288) [8225*]:
    → "And I'd bet my grandma's subligar that it was the same one that put us to sleep!"
 62: 0x01B3 [0x2A] GET_REQ_LEVEL(level=16, entity_id=LocalPlayer)
 63: 0x01B9 [0x55] WAIT_LOAD_SCHEDULER: Wait for scheduler "elf5" with entities [LocalPlayer, LocalPlayer], work=282*
 64: 0x01C8 [0x01] GOTO 0x02D3
 65: 0x01CB [0x02] IF !(Work_Zone[2] == 5*) GOTO 0x020D
 66: 0x01D3 [0x45] LOAD_SCHEDULED_TASK: Load scheduler "tar5" with entities [LocalPlayer, LocalPlayer], work=[282*, 0*]
 67: 0x01E4 [0x1A] CALL_SUBROUTINE(address=0x13F2)
 68: 0x01E7 [0x27] REQ_SET(priority=0x10, entity_id=LocalPlayer, tag_num=0x38)
 69: 0x01EE [0x2B] Salwa-Molwa (ID: 16986760/0x01033288) [8225*]:
    → "And I'd bet my grandma's subligar that it was the same one that put us to sleep!"
 70: 0x01F5 [0x2A] GET_REQ_LEVEL(level=16, entity_id=LocalPlayer)
 71: 0x01FB [0x55] WAIT_LOAD_SCHEDULER: Wait for scheduler "tar5" with entities [LocalPlayer, LocalPlayer], work=282*
 72: 0x020A [0x01] GOTO 0x02D3
 73: 0x020D [0x02] IF !(Work_Zone[2] == 6*) GOTO 0x024F
 74: 0x0215 [0x45] LOAD_SCHEDULED_TASK: Load scheduler "tar5" with entities [LocalPlayer, LocalPlayer], work=[282*, 0*]
 75: 0x0226 [0x1A] CALL_SUBROUTINE(address=0x13F2)
 76: 0x0229 [0x27] REQ_SET(priority=0x10, entity_id=LocalPlayer, tag_num=0x38)
 77: 0x0230 [0x2B] Salwa-Molwa (ID: 16986760/0x01033288) [8225*]:
    → "And I'd bet my grandma's subligar that it was the same one that put us to sleep!"
 78: 0x0237 [0x2A] GET_REQ_LEVEL(level=16, entity_id=LocalPlayer)
 79: 0x023D [0x55] WAIT_LOAD_SCHEDULER: Wait for scheduler "tar5" with entities [LocalPlayer, LocalPlayer], work=282*
 80: 0x024C [0x01] GOTO 0x02D3
 81: 0x024F [0x02] IF !(Work_Zone[2] == 7*) GOTO 0x0291
 82: 0x0257 [0x45] LOAD_SCHEDULED_TASK: Load scheduler "mit5" with entities [LocalPlayer, LocalPlayer], work=[282*, 0*]
 83: 0x0268 [0x1A] CALL_SUBROUTINE(address=0x13F2)
 84: 0x026B [0x27] REQ_SET(priority=0x10, entity_id=LocalPlayer, tag_num=0x38)
 85: 0x0272 [0x2B] Salwa-Molwa (ID: 16986760/0x01033288) [8225*]:
    → "And I'd bet my grandma's subligar that it was the same one that put us to sleep!"
 86: 0x0279 [0x2A] GET_REQ_LEVEL(level=16, entity_id=LocalPlayer)
 87: 0x027F [0x55] WAIT_LOAD_SCHEDULER: Wait for scheduler "mit5" with entities [LocalPlayer, LocalPlayer], work=282*
 88: 0x028E [0x01] GOTO 0x02D3
 89: 0x0291 [0x02] IF !(Work_Zone[2] == 8*) GOTO 0x02D3
 90: 0x0299 [0x45] LOAD_SCHEDULED_TASK: Load scheduler "gal5" with entities [LocalPlayer, LocalPlayer], work=[282*, 0*]
 91: 0x02AA [0x1A] CALL_SUBROUTINE(address=0x13F2)
 92: 0x02AD [0x27] REQ_SET(priority=0x10, entity_id=LocalPlayer, tag_num=0x38)
 93: 0x02B4 [0x2B] Salwa-Molwa (ID: 16986760/0x01033288) [8225*]:
    → "And I'd bet my grandma's subligar that it was the same one that put us to sleep!"
 94: 0x02BB [0x2A] GET_REQ_LEVEL(level=16, entity_id=LocalPlayer)
 95: 0x02C1 [0x55] WAIT_LOAD_SCHEDULER: Wait for scheduler "gal5" with entities [LocalPlayer, LocalPlayer], work=282*
 96: 0x02D0 [0x01] GOTO 0x02D3

SUBROUTINE_02D3:
 97: 0x02D3 [0x1A] CALL_SUBROUTINE(address=0x1413)
 98: 0x02D6 [0x1C] WAIT(30* ticks)
 99: 0x02D9 [0x45] LOAD_SCHEDULED_TASK: Load scheduler "0blf" with entities [LocalPlayer, LocalPlayer], work=[282*, 0*]
100: 0x02EA [0x1C] WAIT(60* ticks)
101: 0x02ED [0xAB] EventEntity->DespawnValue = 0* // Set despawn value
102: 0x02F1 [0x1C] WAIT(1* ticks)
103: 0x02F4 [0x02] IF !(ExtData[1]->WorkLocal[0] == 0*) GOTO 0x02FF
104: 0x02FC [0x30] SET_UCOFF_CONTINUE_ZERO()
105: 0x02FD [0x21] END_EVENT
106: 0x02FE [0x00] END_REQSTACK()
107: 0x02FF [0x1A] CALL_SUBROUTINE(address=0x13D1)
108: 0x0302 [0x1A] CALL_SUBROUTINE(address=0x13F2)
109: 0x0305 [0x5C] MUSIC_CONTROL: Set Idle (Day) music to song 149*
110: 0x0309 [0x5C] MUSIC_CONTROL: Set Idle (Night) music to song 149*
111: 0x030D [0x5C] MUSIC_CONTROL: Set Combat (Solo) music to song 101*
112: 0x0311 [0x5C] MUSIC_CONTROL: Set Combat (Party) music to song 138*
113: 0x0315 [0x9A] WAIT_MUSIC_SERVER()
114: 0x0316 [0x46] CAMERA_CONTROL: Restore default settings
115: 0x0318 [0x45] LOAD_SCHEDULED_TASK: Load scheduler "fdi2" with entities [LocalPlayer, LocalPlayer], work=[200*, 0*]
116: 0x0329 [0x21] END_EVENT
117: 0x032A [0x00] END_REQSTACK()
```

### Event 513

#### Metadata

| Field        | Value      |
|--------------|------------|
| Entrypoint   | 0x032B     |
| Data Size    | 4820 bytes |
| Instructions | 564        |

```
      00 01 02 03 04 05 06 07  08 09 0A 0B 0C 0D 0E 0F
      -- -- -- -- -- -- -- --  -- -- -- -- -- -- -- --
0320:                                   42 43 00 43 01             BC.C.
0330: 1A D1 13 46 01 38 03 80  AB 09 4E 00 F0 FF FF 7F  ...F.8....N.....
0340: 92 01 8A 32 03 01 92 01  88 32 03 01 92 01 89 32  ...2.....2.....2
0350: 03 01 94 01 F0 FF FF 7F  BA F0 FF FF 7F 21 80 22  .............!."
0360: 80 23 80 0C 80 27 10 8A  32 03 01 01 27 10 8B 32  .#...'..2...'..2
0370: 03 01 01 27 10 8C 32 03  01 01 27 10 88 32 03 01  ...'..2...'..2..
0380: 01 27 10 89 32 03 01 01  29 10 8C 32 03 01 07 29  .'..2...)..2...)
0390: 10 88 32 03 01 06 29 10  89 32 03 01 04 29 10 8C  ..2...)..2...)..
03A0: 32 03 01 04 29 10 88 32  03 01 0E 29 10 89 32 03  2...)..2...)..2.
03B0: 01 05 29 10 8A 32 03 01  07 80 F0 FF FF 7F 80 8A  ..)..2..........
03C0: 32 03 01 80 8B 32 03 01  5C 00 02 80 5C 01 02 80  2....2..\...\...
03D0: 9A 1C 13 80 27 10 F0 FF  FF 7F 1C 45 14 80 F0 FF  ....'......E....
03E0: FF 7F F0 FF FF 7F 73 32  30 30 02 80 1A B0 13 2A  ......s200.....*
03F0: 10 F0 FF FF 7F 4A F0 FF  FF 7F 8A 32 03 01 52 14  .....J.....2..R.
0400: 80 F0 FF FF 7F F0 FF FF  7F 73 32 30 30 27 10 8A  .........s200'..
0410: 32 03 01 08 02 02 10 02  80 80 D0 04 45 14 80 F0  2...........E...
0420: FF FF 7F F0 FF FF 7F 73  32 30 32 02 80 2B 8A 32  .......s202..+.2
0430: 03 01 24 80 23 52 14 80  F0 FF FF 7F F0 FF FF 7F  ..$.#R..........
0440: 73 32 30 32 45 14 80 F0  FF FF 7F F0 FF FF 7F 73  s202E..........s
0450: 32 30 31 02 80 27 10 8A  32 03 01 04 2B 8A 32 03  201..'..2...+.2.
0460: 01 25 80 23 2A 10 8A 32  03 01 27 10 8A 32 03 01  .%.#*..2..'..2..
0470: 05 2B 8A 32 03 01 26 80  23 2A 10 8A 32 03 01 52  .+.2..&.#*..2..R
0480: 14 80 F0 FF FF 7F F0 FF  FF 7F 73 32 30 31 27 10  ..........s201'.
0490: 8A 32 03 01 0A 45 14 80  F0 FF FF 7F F0 FF FF 7F  .2...E..........
04A0: 73 32 30 33 02 80 1C 27  80 2B 8A 32 03 01 28 80  s203...'.+.2..(.
04B0: 23 2A 10 8A 32 03 01 52  14 80 F0 FF FF 7F F0 FF  #*..2..R........
04C0: FF 7F 73 32 30 33 27 10  F0 FF FF 7F 1D 01 8C 05  ..s203'.........
04D0: 02 02 10 00 80 80 8C 05  45 14 80 F0 FF FF 7F F0  ........E.......
04E0: FF FF 7F 73 32 30 32 02  80 2B 8A 32 03 01 29 80  ...s202..+.2..).
04F0: 23 52 14 80 F0 FF FF 7F  F0 FF FF 7F 73 32 30 32  #R..........s202
0500: 45 14 80 F0 FF FF 7F F0  FF FF 7F 73 32 30 31 02  E..........s201.
0510: 80 27 10 8A 32 03 01 03  2B 8A 32 03 01 2A 80 23  .'..2...+.2..*.#
0520: 2A 10 8A 32 03 01 27 10  8A 32 03 01 09 2B 8A 32  *..2..'..2...+.2
0530: 03 01 2B 80 23 2A 10 8A  32 03 01 52 14 80 F0 FF  ..+.#*..2..R....
0540: FF 7F F0 FF FF 7F 73 32  30 31 27 10 8A 32 03 01  ......s201'..2..
0550: 0A 45 14 80 F0 FF FF 7F  F0 FF FF 7F 73 32 30 33  .E..........s203
0560: 02 80 1C 27 80 2B 8A 32  03 01 2C 80 23 2A 10 8A  ...'.+.2..,.#*..
0570: 32 03 01 52 14 80 F0 FF  FF 7F F0 FF FF 7F 73 32  2..R..........s2
0580: 30 33 27 10 F0 FF FF 7F  1D 01 8C 05 45 14 80 F0  03'.........E...
0590: FF FF 7F F0 FF FF 7F 73  32 30 34 02 80 1C 01 80  .......s204.....
05A0: 1A D1 13 1C 1D 80 52 14  80 F0 FF FF 7F F0 FF FF  ......R.........
05B0: 7F 73 32 30 34 4A F0 FF  FF 7F 8A 32 03 01 45 14  .s204J.....2..E.
05C0: 80 F0 FF FF 7F F0 FF FF  7F 73 32 30 35 02 80 1A  .........s205...
05D0: B0 13 55 14 80 F0 FF FF  7F F0 FF FF 7F 73 32 30  ..U..........s20
05E0: 35 4A 8A 32 03 01 F0 FF  FF 7F 6E 8A 32 03 01 2D  5J.2......n.2..-
05F0: 80 99 8A 32 03 01 45 14  80 F0 FF FF 7F F0 FF FF  ...2..E.........
0600: 7F 73 32 30 36 02 80 2B  8A 32 03 01 2E 80 23 52  .s206..+.2....#R
0610: 14 80 F0 FF FF 7F F0 FF  FF 7F 73 32 30 36 5C 00  ..........s206\.
0620: 2F 80 5C 01 2F 80 9A 27  10 88 32 03 01 0F 80 88  /.\./..'..2.....
0630: 32 03 01 94 01 88 32 03  01 27 10 88 32 03 01 07  2.....2..'..2...
0640: 45 14 80 F0 FF FF 7F F0  FF FF 7F 73 32 30 37 02  E..........s207.
0650: 80 2B 88 32 03 01 30 80  2A 10 88 32 03 01 27 10  .+.2..0.*..2..'.
0660: 88 32 03 01 08 1C 1D 80  52 14 80 F0 FF FF 7F F0  .2......R.......
0670: FF FF 7F 73 32 30 37 45  14 80 F0 FF FF 7F F0 FF  ...s207E........
0680: FF 7F 73 32 30 38 02 80  4B F0 FF FF 7F 02 80 59  ..s208..K......Y
0690: 03 F0 FF FF 7F 01 80 79  00 F0 FF FF 7F 88 32 03  .......y......2.
06A0: 01 1C 31 80 52 14 80 F0  FF FF 7F F0 FF FF 7F 73  ..1.R..........s
06B0: 32 30 38 45 14 80 F0 FF  FF 7F F0 FF FF 7F 73 32  208E..........s2
06C0: 34 34 02 80 79 00 8A 32  03 01 88 32 03 01 2A 10  44..y..2...2..*.
06D0: 88 32 03 01 59 01 F0 FF  FF 7F 32 80 4A F0 FF FF  .2..Y.....2.J...
06E0: 7F 88 32 03 01 4B 88 32  03 01 33 80 6F 76 88 32  ..2..K.2..3.ov.2
06F0: 03 01 27 10 88 32 03 01  0A 1C 34 80 2B 88 32 03  ..'..2....4.+.2.
0700: 01 35 80 23 2A 10 88 32  03 01 2B 88 32 03 01 36  .5.#*..2..+.2..6
0710: 80 23 52 14 80 F0 FF FF  7F F0 FF FF 7F 73 32 34  .#R..........s24
0720: 34 59 03 88 32 03 01 01  80 79 02 88 32 03 01 02  4Y..2....y..2...
0730: 80 02 80 45 14 80 F0 FF  FF 7F F0 FF FF 7F 73 32  ...E..........s2
0740: 30 39 02 80 27 10 88 32  03 01 0B 2B 88 32 03 01  09..'..2...+.2..
0750: 37 80 23 2A 10 88 32 03  01 52 14 80 F0 FF FF 7F  7.#*..2..R......
0760: F0 FF FF 7F 73 32 30 39  27 10 88 32 03 01 0C 4A  ....s209'..2...J
0770: 8A 32 03 01 88 32 03 01  45 14 80 F0 FF FF 7F F0  .2...2..E.......
0780: FF FF 7F 73 32 31 30 02  80 2B 88 32 03 01 38 80  ...s210..+.2..8.
0790: 1C 27 80 6E 8A 32 03 01  39 80 99 8A 32 03 01 27  .'.n.2..9...2..'
07A0: 10 88 32 03 01 0D 1C 1D  80 52 14 80 F0 FF FF 7F  ..2......R......
07B0: F0 FF FF 7F 73 32 31 30  4A 88 32 03 01 8A 32 03  ....s210J.2...2.
07C0: 01 4A F0 FF FF 7F 8A 32  03 01 45 14 80 F0 FF FF  .J.....2..E.....
07D0: 7F F0 FF FF 7F 73 32 31  31 02 80 2B 8A 32 03 01  .....s211..+.2..
07E0: 3A 80 23 2A 10 88 32 03  01 55 14 80 F0 FF FF 7F  :.#*..2..U......
07F0: F0 FF FF 7F 73 32 31 31  27 10 8A 32 03 01 04 45  ....s211'..2...E
0800: 14 80 F0 FF FF 7F F0 FF  FF 7F 73 32 31 32 02 80  ..........s212..
0810: 2B 8A 32 03 01 3B 80 23  2A 10 8A 32 03 01 52 14  +.2..;.#*..2..R.
0820: 80 F0 FF FF 7F F0 FF FF  7F 73 32 31 32 45 14 80  .........s212E..
0830: F0 FF FF 7F F0 FF FF 7F  73 32 33 37 02 80 2B 8A  ........s237..+.
0840: 32 03 01 3C 80 23 52 14  80 F0 FF FF 7F F0 FF FF  2..<.#R.........
0850: 7F 73 32 33 37 02 02 10  02 80 80 00 09 45 14 80  .s237........E..
0860: F0 FF FF 7F F0 FF FF 7F  73 32 33 38 02 80 2B 8A  ........s238..+.
0870: 32 03 01 3D 80 23 52 14  80 F0 FF FF 7F F0 FF FF  2..=.#R.........
0880: 7F 73 32 33 38 59 03 88  32 03 01 32 80 79 02 88  .s238Y..2..2.y..
0890: 32 03 01 3E 80 02 80 45  14 80 F0 FF FF 7F F0 FF  2..>...E........
08A0: FF 7F 73 32 33 39 02 80  2B 88 32 03 01 3F 80 23  ..s239..+.2..?.#
08B0: 52 14 80 F0 FF FF 7F F0  FF FF 7F 73 32 33 39 27  R..........s239'
08C0: 10 8A 32 03 01 05 45 14  80 F0 FF FF 7F F0 FF FF  ..2...E.........
08D0: 7F 73 32 31 33 02 80 2B  8A 32 03 01 40 80 23 2A  .s213..+.2..@.#*
08E0: 10 8A 32 03 01 4A F0 FF  FF 7F 8A 32 03 01 52 14  ..2..J.....2..R.
08F0: 80 F0 FF FF 7F F0 FF FF  7F 73 32 31 33 01 54 0B  .........s213.T.
0900: 02 02 10 00 80 80 54 0B  29 10 F0 FF FF 7F 25 02  ......T.).....%.
0910: 02 10 00 80 80 42 09 45  14 80 F0 FF FF 7F F0 FF  .....B.E........
0920: FF 7F 68 75 6D 34 02 80  2B 8A 32 03 01 41 80 23  ..hum4..+.2..A.#
0930: 52 14 80 F0 FF FF 7F F0  FF FF 7F 68 75 6D 34 01  R..........hum4.
0940: A7 0A 02 02 10 16 80 80  75 09 45 14 80 F0 FF FF  ........u.E.....
0950: 7F F0 FF FF 7F 68 6D 66  34 02 80 2B 8A 32 03 01  .....hmf4..+.2..
0960: 41 80 23 52 14 80 F0 FF  FF 7F F0 FF FF 7F 68 6D  A.#R..........hm
0970: 66 34 01 A7 0A 02 02 10  17 80 80 A8 09 45 14 80  f4...........E..
0980: F0 FF FF 7F F0 FF FF 7F  65 6C 6D 34 02 80 2B 8A  ........elm4..+.
0990: 32 03 01 41 80 23 52 14  80 F0 FF FF 7F F0 FF FF  2..A.#R.........
09A0: 7F 65 6C 6D 34 01 A7 0A  02 02 10 18 80 80 DB 09  .elm4...........
09B0: 45 14 80 F0 FF FF 7F F0  FF FF 7F 65 6C 66 34 02  E..........elf4.
09C0: 80 2B 8A 32 03 01 41 80  23 52 14 80 F0 FF FF 7F  .+.2..A.#R......
09D0: F0 FF FF 7F 65 6C 66 34  01 A7 0A 02 02 10 19 80  ....elf4........
09E0: 80 0E 0A 45 14 80 F0 FF  FF 7F F0 FF FF 7F 74 61  ...E..........ta
09F0: 72 34 02 80 2B 8A 32 03  01 41 80 23 52 14 80 F0  r4..+.2..A.#R...
0A00: FF FF 7F F0 FF FF 7F 74  61 72 34 01 A7 0A 02 02  .......tar4.....
0A10: 10 1A 80 80 41 0A 45 14  80 F0 FF FF 7F F0 FF FF  ....A.E.........
0A20: 7F 74 61 72 34 02 80 2B  8A 32 03 01 41 80 23 52  .tar4..+.2..A.#R
0A30: 14 80 F0 FF FF 7F F0 FF  FF 7F 74 61 72 34 01 A7  ..........tar4..
0A40: 0A 02 02 10 1B 80 80 74  0A 45 14 80 F0 FF FF 7F  .......t.E......
0A50: F0 FF FF 7F 6D 69 74 34  02 80 2B 8A 32 03 01 41  ....mit4..+.2..A
0A60: 80 23 52 14 80 F0 FF FF  7F F0 FF FF 7F 6D 69 74  .#R..........mit
0A70: 34 01 A7 0A 02 02 10 1C  80 80 A7 0A 45 14 80 F0  4...........E...
0A80: FF FF 7F F0 FF FF 7F 67  61 6C 34 02 80 2B 8A 32  .......gal4..+.2
0A90: 03 01 41 80 23 52 14 80  F0 FF FF 7F F0 FF FF 7F  ..A.#R..........
0AA0: 67 61 6C 34 01 A7 0A 79  00 8A 32 03 01 88 32 03  gal4...y..2...2.
0AB0: 01 45 14 80 F0 FF FF 7F  F0 FF FF 7F 73 32 33 38  .E..........s238
0AC0: 02 80 2B 8A 32 03 01 3D  80 23 52 14 80 F0 FF FF  ..+.2..=.#R.....
0AD0: 7F F0 FF FF 7F 73 32 33  38 59 03 88 32 03 01 32  .....s238Y..2..2
0AE0: 80 79 02 88 32 03 01 3E  80 02 80 45 14 80 F0 FF  .y..2..>...E....
0AF0: FF 7F F0 FF FF 7F 73 32  33 39 02 80 2B 88 32 03  ......s239..+.2.
0B00: 01 3F 80 23 52 14 80 F0  FF FF 7F F0 FF FF 7F 73  .?.#R..........s
0B10: 32 33 39 27 10 8A 32 03  01 05 45 14 80 F0 FF FF  239'..2...E.....
0B20: 7F F0 FF FF 7F 73 32 31  33 02 80 2B 8A 32 03 01  .....s213..+.2..
0B30: 42 80 23 2A 10 8A 32 03  01 4A F0 FF FF 7F 8A 32  B.#*..2..J.....2
0B40: 03 01 52 14 80 F0 FF FF  7F F0 FF FF 7F 73 32 31  ..R..........s21
0B50: 33 01 54 0B 45 14 80 F0  FF FF 7F F0 FF FF 7F 73  3.T.E..........s
0B60: 32 31 34 02 80 4B 8A 32  03 01 43 80 79 00 88 32  214..K.2..C.y..2
0B70: 03 01 8A 32 03 01 2B 8A  32 03 01 44 80 23 52 14  ...2..+.2..D.#R.
0B80: 80 F0 FF FF 7F F0 FF FF  7F 73 32 31 34 6F 70 45  .........s214opE
0B90: 14 80 F0 FF FF 7F F0 FF  FF 7F 73 32 31 35 02 80  ..........s215..
0BA0: 2B 8A 32 03 01 45 80 27  10 89 32 03 01 06 94 01  +.2..E.'..2.....
0BB0: 89 32 03 01 27 10 89 32  03 01 07 27 10 8A 32 03  .2..'..2...'..2.
0BC0: 01 0B 1C 13 80 73 12 80  89 32 03 01 8A 32 03 01  .....s...2...2..
0BD0: 73 12 80 89 32 03 01 F0  FF FF 7F 73 12 80 89 32  s...2......s...2
0BE0: 03 01 88 32 03 01 1C 32  80 27 10 F0 FF FF 7F 1E  ...2...2.'......
0BF0: 27 10 F0 FF FF 7F 13 1C  46 80 27 10 8A 32 03 01  '.......F.'..2..
0C00: 0D 27 10 88 32 03 01 10  1C 47 80 1A D1 13 2A 10  .'..2....G....*.
0C10: F0 FF FF 7F 2A 10 8A 32  03 01 2A 10 88 32 03 01  ....*..2..*..2..
0C20: 52 14 80 F0 FF FF 7F F0  FF FF 7F 73 32 31 35 29  R..........s215)
0C30: 10 8C 32 03 01 05 80 8C  32 03 01 27 10 8D 32 03  ..2.....2..'..2.
0C40: 01 02 27 10 8B 32 03 01  01 29 10 8D 32 03 01 04  ..'..2...)..2...
0C50: 29 10 8B 32 03 01 04 80  8D 32 03 01 80 8B 32 03  )..2.....2....2.
0C60: 01 27 10 8C 32 03 01 06  29 10 88 32 03 01 11 1C  .'..2...)..2....
0C70: 1D 80 6C 88 32 03 01 13  80 00 80 1C 00 80 5C 00  ..l.2.........\.
0C80: 48 80 5C 01 48 80 9A 27  10 8C 32 03 01 08 27 10  H.\.H..'..2...'.
0C90: 8B 32 03 01 06 27 10 88  32 03 01 12 27 10 8D 32  .2...'..2...'..2
0CA0: 03 01 05 27 10 89 32 03  01 02 45 14 80 F0 FF FF  ...'..2...E.....
0CB0: 7F F0 FF FF 7F 73 32 31  37 02 80 1A B0 13 27 10  .....s217.....'.
0CC0: 8E 32 03 01 03 27 10 8F  32 03 01 02 27 10 90 32  .2...'..2...'..2
0CD0: 03 01 02 27 10 91 32 03  01 02 1C 49 80 29 10 F0  ...'..2....I.)..
0CE0: FF FF 7F 20 4A F0 FF FF  7F 8A 32 03 01 4A 8A 32  ... J.....2..J.2
0CF0: 03 01 F0 FF FF 7F 27 10  F0 FF FF 7F 13 27 10 8A  ......'......'..
0D00: 32 03 01 0D 2A 10 F0 FF  FF 7F 2A 10 8A 32 03 01  2...*.....*..2..
0D10: 55 14 80 F0 FF FF 7F F0  FF FF 7F 73 32 31 37 45  U..........s217E
0D20: 14 80 F0 FF FF 7F F0 FF  FF 7F 73 32 31 39 02 80  ..........s219..
0D30: 29 10 F0 FF FF 7F 14 27  10 F0 FF FF 7F 21 2B 8A  )......'.....!+.
0D40: 32 03 01 4A 80 23 27 10  88 32 03 01 04 27 10 8C  2..J.#'..2...'..
0D50: 32 03 01 02 27 10 8D 32  03 01 07 2A 10 F0 FF FF  2...'..2...*....
0D60: 7F 52 14 80 F0 FF FF 7F  F0 FF FF 7F 73 32 31 39  .R..........s219
0D70: 27 10 8A 32 03 01 0E 45  14 80 F0 FF FF 7F F0 FF  '..2...E........
0D80: FF 7F 73 32 31 38 02 80  2A 10 8A 32 03 01 6E 8A  ..s218..*..2..n.
0D90: 32 03 01 1A 80 99 8A 32  03 01 1C 1D 80 2B 8A 32  2......2.....+.2
0DA0: 03 01 4B 80 23 52 14 80  F0 FF FF 7F F0 FF FF 7F  ..K.#R..........
0DB0: 73 32 31 38 4B 8A 32 03  01 43 80 45 14 80 F0 FF  s218K.2..C.E....
0DC0: FF 7F F0 FF FF 7F 73 32  32 30 02 80 6F 76 8A 32  ......s220..ov.2
0DD0: 03 01 29 10 8A 32 03 01  11 7B 8A 32 03 01 27 10  ..)..2...{.2..'.
0DE0: 8A 32 03 01 0F 1C 4C 80  2B 8A 32 03 01 4D 80 23  .2....L.+.2..M.#
0DF0: 2A 10 8A 32 03 01 52 14  80 F0 FF FF 7F F0 FF FF  *..2..R.........
0E00: 7F 73 32 32 30 4A 8A 32  03 01 F0 FF FF 7F 45 14  .s220J.2......E.
0E10: 80 F0 FF FF 7F F0 FF FF  7F 73 32 32 33 02 80 6F  .........s223..o
0E20: 76 8A 32 03 01 27 10 8A  32 03 01 04 2B 8A 32 03  v.2..'..2...+.2.
0E30: 01 4E 80 23 2A 10 8A 32  03 01 6E 8A 32 03 01 1A  .N.#*..2..n.2...
0E40: 80 99 8A 32 03 01 99 8A  32 03 01 2B 8A 32 03 01  ...2....2..+.2..
0E50: 4F 80 23 52 14 80 F0 FF  FF 7F F0 FF FF 7F 73 32  O.#R..........s2
0E60: 32 33 45 14 80 F0 FF FF  7F F0 FF FF 7F 73 32 32  23E..........s22
0E70: 32 02 80 2B 8A 32 03 01  50 80 23 2B 8A 32 03 01  2..+.2..P.#+.2..
0E80: 51 80 23 27 10 8A 32 03  01 12 2B 8A 32 03 01 52  Q.#'..2...+.2..R
0E90: 80 23 2A 10 8A 32 03 01  52 14 80 F0 FF FF 7F F0  .#*..2..R.......
0EA0: FF FF 7F 73 32 32 32 45  14 80 F0 FF FF 7F F0 FF  ...s222E........
0EB0: FF 7F 73 32 32 31 02 80  27 10 8A 32 03 01 14 2B  ..s221..'..2...+
0EC0: 8A 32 03 01 53 80 23 29  10 8A 32 03 01 15 24 54  .2..S.#)..2...$T
0ED0: 80 02 80 02 80 25 02 00  10 02 80 00 4E 0F 03 02  .....%......N...
0EE0: 10 00 80 29 10 F0 FF FF  7F 23 1C 46 80 29 10 F0  ...).....#.F.)..
0EF0: FF FF 7F 24 52 14 80 F0  FF FF 7F F0 FF FF 7F 73  ...$R..........s
0F00: 32 32 31 27 10 8A 32 03  01 0F 1C 4C 80 45 14 80  221'..2....L.E..
0F10: F0 FF FF 7F F0 FF FF 7F  73 32 32 34 02 80 2B 8A  ........s224..+.
0F20: 32 03 01 55 80 23 2A 10  8A 32 03 01 2B 8A 32 03  2..U.#*..2..+.2.
0F30: 01 56 80 23 2B 8A 32 03  01 57 80 23 52 14 80 F0  .V.#+.2..W.#R...
0F40: FF FF 7F F0 FF FF 7F 73  32 32 34 01 7B 10 02 00  .......s224.{...
0F50: 10 00 80 00 03 10 03 02  10 16 80 29 10 F0 FF FF  ...........)....
0F60: 7F 23 1C 46 80 29 10 F0  FF FF 7F 24 52 14 80 F0  .#.F.).....$R...
0F70: FF FF 7F F0 FF FF 7F 73  32 32 31 27 10 8A 32 03  .......s221'..2.
0F80: 01 0F 1C 4C 80 45 14 80  F0 FF FF 7F F0 FF FF 7F  ...L.E..........
0F90: 73 32 32 34 02 80 2B 8A  32 03 01 58 80 23 2A 10  s224..+.2..X.#*.
0FA0: 8A 32 03 01 2B 8A 32 03  01 59 80 23 52 14 80 F0  .2..+.2..Y.#R...
0FB0: FF FF 7F F0 FF FF 7F 73  32 32 34 45 14 80 F0 FF  .......s224E....
0FC0: FF 7F F0 FF FF 7F 73 32  34 33 02 80 27 10 8A 32  ......s243..'..2
0FD0: 03 01 12 2B 8A 32 03 01  5A 80 23 2A 10 8A 32 03  ...+.2..Z.#*..2.
0FE0: 01 2B 8A 32 03 01 5B 80  23 2B 8A 32 03 01 5C 80  .+.2..[.#+.2..\.
0FF0: 23 52 14 80 F0 FF FF 7F  F0 FF FF 7F 73 32 34 33  #R..........s243
1000: 01 7B 10 02 00 10 16 80  00 7B 10 03 02 10 00 80  .{.......{......
1010: 29 10 F0 FF FF 7F 23 1C  46 80 29 10 F0 FF FF 7F  ).....#.F.).....
1020: 24 52 14 80 F0 FF FF 7F  F0 FF FF 7F 73 32 32 31  $R..........s221
1030: 27 10 8A 32 03 01 0F 1C  4C 80 45 14 80 F0 FF FF  '..2....L.E.....
1040: 7F F0 FF FF 7F 73 32 32  34 02 80 2B 8A 32 03 01  .....s224..+.2..
1050: 5D 80 23 2A 10 8A 32 03  01 2B 8A 32 03 01 5E 80  ].#*..2..+.2..^.
1060: 23 2B 8A 32 03 01 5F 80  23 52 14 80 F0 FF FF 7F  #+.2.._.#R......
1070: F0 FF FF 7F 73 32 32 34  01 7B 10 27 10 8A 32 03  ....s224.{.'..2.
1080: 01 10 45 14 80 F0 FF FF  7F F0 FF FF 7F 73 32 32  ..E..........s22
1090: 36 02 80 2B 8A 32 03 01  60 80 23 2A 10 8A 32 03  6..+.2..`.#*..2.
10A0: 01 2B 8A 32 03 01 61 80  23 52 14 80 F0 FF FF 7F  .+.2..a.#R......
10B0: F0 FF FF 7F 73 32 32 36  1A 8F 13 45 14 80 F0 FF  ....s226...E....
10C0: FF 7F F0 FF FF 7F 73 32  34 32 02 80 1A 6E 13 2B  ......s242...n.+
10D0: 8A 32 03 01 62 80 23 52  14 80 F0 FF FF 7F F0 FF  .2..b.#R........
10E0: FF 7F 73 32 34 32 45 14  80 F0 FF FF 7F F0 FF FF  ..s242E.........
10F0: 7F 73 32 34 31 02 80 2B  8A 32 03 01 63 80 23 52  .s241..+.2..c.#R
1100: 14 80 F0 FF FF 7F F0 FF  FF 7F 73 32 34 31 1A 8F  ..........s241..
1110: 13 27 10 F0 FF FF 7F 22  45 14 80 F0 FF FF 7F F0  .'....."E.......
1120: FF FF 7F 73 32 32 37 02  80 1A 6E 13 2B 8A 32 03  ...s227...n.+.2.
1130: 01 64 80 23 27 10 8A 32  03 01 12 2B 8A 32 03 01  .d.#'..2...+.2..
1140: 65 80 23 2A 10 8A 32 03  01 52 14 80 F0 FF FF 7F  e.#*..2..R......
1150: F0 FF FF 7F 73 32 32 37  2A 10 F0 FF FF 7F 5C 00  ....s227*.....\.
1160: 02 80 5C 01 02 80 9A 45  14 80 F0 FF FF 7F F0 FF  ..\....E........
1170: FF 7F 73 32 32 38 02 80  2B 8A 32 03 01 66 80 23  ..s228..+.2..f.#
1180: 52 14 80 F0 FF FF 7F F0  FF FF 7F 73 32 32 38 4A  R..........s228J
1190: F0 FF FF 7F 8A 32 03 01  4A 8A 32 03 01 F0 FF FF  .....2..J.2.....
11A0: 7F 45 14 80 F0 FF FF 7F  F0 FF FF 7F 73 32 32 39  .E..........s229
11B0: 02 80 6F 76 8A 32 03 01  2B 8A 32 03 01 67 80 23  ..ov.2..+.2..g.#
11C0: 2B 8A 32 03 01 68 80 23  52 14 80 F0 FF FF 7F F0  +.2..h.#R.......
11D0: FF FF 7F 73 32 32 39 27  10 8A 32 03 01 02 45 14  ...s229'..2...E.
11E0: 80 F0 FF FF 7F F0 FF FF  7F 73 32 33 30 02 80 2B  .........s230..+
11F0: 8A 32 03 01 69 80 23 2A  10 8A 32 03 01 52 14 80  .2..i.#*..2..R..
1200: F0 FF FF 7F F0 FF FF 7F  73 32 33 30 7B 8A 32 03  ........s230{.2.
1210: 01 1C 13 80 45 14 80 F0  FF FF 7F F0 FF FF 7F 73  ....E..........s
1220: 32 33 31 02 80 2B 8A 32  03 01 6A 80 23 52 14 80  231..+.2..j.#R..
1230: F0 FF FF 7F F0 FF FF 7F  73 32 33 31 45 14 80 F0  ........s231E...
1240: FF FF 7F F0 FF FF 7F 73  32 33 32 02 80 2B 8A 32  .......s232..+.2
1250: 03 01 6B 80 23 2B 8A 32  03 01 6C 80 23 52 14 80  ..k.#+.2..l.#R..
1260: F0 FF FF 7F F0 FF FF 7F  73 32 33 32 45 14 80 F0  ........s232E...
1270: FF FF 7F F0 FF FF 7F 73  32 33 33 02 80 29 10 8A  .......s233..)..
1280: 32 03 01 10 79 02 8A 32  03 01 3E 80 02 80 52 14  2...y..2..>...R.
1290: 80 F0 FF FF 7F F0 FF FF  7F 73 32 33 33 45 14 80  .........s233E..
12A0: F0 FF FF 7F F0 FF FF 7F  73 32 33 34 02 80 2B 8A  ........s234..+.
12B0: 32 03 01 6D 80 23 2B 8A  32 03 01 6E 80 23 7B 8A  2..m.#+.2..n.#{.
12C0: 32 03 01 52 14 80 F0 FF  FF 7F F0 FF FF 7F 73 32  2..R..........s2
12D0: 33 34 27 10 8A 32 03 01  03 1C 34 80 45 14 80 F0  34'..2....4.E...
12E0: FF FF 7F F0 FF FF 7F 73  32 33 35 02 80 2B 8A 32  .......s235..+.2
12F0: 03 01 6F 80 23 2A 10 8A  32 03 01 52 14 80 F0 FF  ..o.#*..2..R....
1300: FF 7F F0 FF FF 7F 73 32  33 35 6E 8A 32 03 01 02  ......s235n.2...
1310: 80 99 8A 32 03 01 1C 46  80 45 14 80 F0 FF FF 7F  ...2...F.E......
1320: F0 FF FF 7F 73 32 33 36  02 80 2B 8A 32 03 01 70  ....s236..+.2..p
1330: 80 1C 71 80 52 14 80 F0  FF FF 7F F0 FF FF 7F 73  ..q.R..........s
1340: 32 33 36 1A D1 13 1C 13  80 5C 00 1E 80 5C 01 1E  236......\...\..
1350: 80 9A AB 0A 46 00 45 01  80 F0 FF FF 7F F0 FF FF  ....F.E.........
1360: 7F 66 64 69 32 02 80 03  01 10 02 10 21 00 45 01  .fdi2.......!.E.
1370: 80 F0 FF FF 7F F0 FF FF  7F 66 64 69 30 02 80 55  .........fdi0..U
1380: 01 80 F0 FF FF 7F F0 FF  FF 7F 66 64 69 30 1B 45  ..........fdi0.E
1390: 01 80 F0 FF FF 7F F0 FF  FF 7F 66 64 6F 30 02 80  ..........fdo0..
13A0: 55 01 80 F0 FF FF 7F F0  FF FF 7F 66 64 6F 30 1B  U..........fdo0.
13B0: 45 01 80 F0 FF FF 7F F0  FF FF 7F 66 64 69 31 02  E..........fdi1.
13C0: 80 55 01 80 F0 FF FF 7F  F0 FF FF 7F 66 64 69 31  .U..........fdi1
13D0: 1B 45 01 80 F0 FF FF 7F  F0 FF FF 7F 66 64 6F 31  .E..........fdo1
13E0: 02 80 55 01 80 F0 FF FF  7F F0 FF FF 7F 66 64 6F  ..U..........fdo
13F0: 31 1B 45 72 80 F0 FF FF  7F F0 FF FF 7F 77 68 69  1.Er.........whi
1400: 31 02 80 55 72 80 F0 FF  FF 7F F0 FF FF 7F 77 68  1..Ur.........wh
1410: 69 31 1B 45 72 80 F0 FF  FF 7F F0 FF FF 7F 77 68  i1.Er.........wh
1420: 6F 31 02 80 55 72 80 F0  FF FF 7F F0 FF FF 7F 77  o1..Ur.........w
1430: 68 6F 31 1B 45 72 80 F0  FF FF 7F F0 FF FF 7F 77  ho1.Er.........w
1440: 68 6F 32 02 80 55 72 80  F0 FF FF 7F F0 FF FF 7F  ho2..Ur.........
1450: 77 68 6F 32 1B 45 72 80  F0 FF FF 7F F0 FF FF 7F  who2.Er.........
1460: 77 68 6F 33 02 80 55 72  80 F0 FF FF 7F F0 FF FF  who3..Ur........
1470: 7F 77 68 6F 33 1B 62 00  80 F0 FF FF 7F F0 FF FF  .who3.b.........
1480: 7F 6D 61 69 6E 02 80 1C  73 80 45 01 80 F0 FF FF  .main...s.E.....
1490: 7F F0 FF FF 7F 66 64 6F  31 02 80 55 01 80 F0 FF  .....fdo1..U....
14A0: FF 7F F0 FF FF 7F 66 64  6F 31 1B 45 01 80 F0 FF  ......fdo1.E....
14B0: FF 7F F0 FF FF 7F 66 64  69 31 02 80 62 16 80 F0  ......fdi1..b...
14C0: FF FF 7F F0 FF FF 7F 6D  61 69 6E 02 80 1C 13 80  .......main.....
14D0: 55 01 80 F0 FF FF 7F F0  FF FF 7F 66 64 69 31 1B  U..........fdi1.
14E0: 45 01 80 F0 FF FF 7F F0  FF FF 7F 62 6C 6F 6E 02  E..........blon.
14F0: 80 45 72 80 F0 FF FF 7F  F0 FF FF 7F 62 6C 6F 6E  .Er.........blon
1500: 02 80 1B 45 72 80 F0 FF  FF 7F F0 FF FF 7F 77 68  ...Er.........wh
1510: 69 30 02 80 55 72 80 F0  FF FF 7F F0 FF FF 7F 77  i0..Ur.........w
1520: 68 69 30 1B 45 72 80 F0  FF FF 7F F0 FF FF 7F 77  hi0.Er.........w
1530: 68 6F 30 02 80 55 72 80  F0 FF FF 7F F0 FF FF 7F  ho0..Ur.........
1540: 77 68 6F 30 1B 45 74 80  F0 FF FF 7F F0 FF FF 7F  who0.Et.........
1550: 65 66 6F 6E 02 80 55 74  80 F0 FF FF 7F F0 FF FF  efon..Ut........
1560: 7F 65 66 6F 6E 1B 45 01  80 F0 FF FF 7F F0 FF FF  .efon.E.........
1570: 7F 66 64 69 73 02 80 1B  45 01 80 F0 FF FF 7F F0  .fdis...E.......
1580: FF FF 7F 66 64 6F 73 02  80 55 01 80 F0 FF FF 7F  ...fdos..U......
1590: F0 FF FF 7F 66 64 6F 73  1B 45 01 80 F0 FF FF 7F  ....fdos.E......
15A0: F0 FF FF 7F 66 64 69 66  02 80 1B 45 01 80 F0 FF  ....fdif...E....
15B0: FF 7F F0 FF FF 7F 66 64  6F 66 02 80 55 01 80 F0  ......fdof..U...
15C0: FF FF 7F F0 FF FF 7F 66  64 6F 66 1B 45 01 80 F0  .......fdof.E...
15D0: FF FF 7F F0 FF FF 7F 66  64 69 70 02 80 1B 45 01  .......fdip...E.
15E0: 80 F0 FF FF 7F F0 FF FF  7F 66 64 6F 70 02 80 55  .........fdop..U
15F0: 01 80 F0 FF FF 7F F0 FF  FF 7F 66 64 6F 70 1B     ..........fdop. 
```

#### Opcodes

```
  0: 0x032B [0x42] SET_CLI_EVENT_CANCEL_DATA()
  1: 0x032C [0x43] SEND_EVENT_UPDATE: Send pending tag to server (packet 0x005B)
  2: 0x032E [0x43] SEND_EVENT_UPDATE: Check pending flag (skip if not pending)
  3: 0x0330 [0x1A] CALL_SUBROUTINE(address=0x13D1)
  4: 0x0333 [0x46] CAMERA_CONTROL: Disable user control
  5: 0x0335 [0x38] SET_CLIENT_EVENT_MODE(mode=19*)
  6: 0x0338 [0xAB] EventEntity->UnknownFlag = 1 // Enable unknown flag
  7: 0x033A [0x4E] SET_ENTITY_HIDE_FLAG: Show LocalPlayer
  8: 0x0340 [0x92] Clavauert (ID: 16986762/0x0103328A)->Render.Flags3 ^= 0x01
  9: 0x0346 [0x92] Salwa-Molwa (ID: 16986760/0x01033288)->Render.Flags3 ^= 0x01
 10: 0x034C [0x92] Mikilulu (ID: 16986761/0x01033289)->Render.Flags3 ^= 0x01
 11: 0x0352 [0x94] LocalPlayer->Render.Flags3 ^= 0x01
 12: 0x0358 [0xBA] SET_ENTITY_POSITION(entity_id=LocalPlayer, pos_x=679.890*, pos_z=212.076*, pos_y=-15.750*, direction=99.3°*)
 13: 0x0365 [0x27] REQ_SET(priority=0x10, entity_id=Clavauert (ID: 16986762/0x0103328A), tag_num=0x01)
 14: 0x036C [0x27] REQ_SET(priority=0x10, entity_id=Unnamed NPC (ID: 16986763/0x0103328B), tag_num=0x01)
 15: 0x0373 [0x27] REQ_SET(priority=0x10, entity_id=Unnamed NPC (ID: 16986764/0x0103328C), tag_num=0x01)
 16: 0x037A [0x27] REQ_SET(priority=0x10, entity_id=Salwa-Molwa (ID: 16986760/0x01033288), tag_num=0x01)
 17: 0x0381 [0x27] REQ_SET(priority=0x10, entity_id=Mikilulu (ID: 16986761/0x01033289), tag_num=0x01)
 18: 0x0388 [0x29] REQ_SET_WAIT(priority=0x10, entity_id=Unnamed NPC (ID: 16986764/0x0103328C), tag_num=0x07)
 19: 0x038F [0x29] REQ_SET_WAIT(priority=0x10, entity_id=Salwa-Molwa (ID: 16986760/0x01033288), tag_num=0x06)
 20: 0x0396 [0x29] REQ_SET_WAIT(priority=0x10, entity_id=Mikilulu (ID: 16986761/0x01033289), tag_num=0x04)
 21: 0x039D [0x29] REQ_SET_WAIT(priority=0x10, entity_id=Unnamed NPC (ID: 16986764/0x0103328C), tag_num=0x04)
 22: 0x03A4 [0x29] REQ_SET_WAIT(priority=0x10, entity_id=Salwa-Molwa (ID: 16986760/0x01033288), tag_num=0x0E)
 23: 0x03AB [0x29] REQ_SET_WAIT(priority=0x10, entity_id=Mikilulu (ID: 16986761/0x01033289), tag_num=0x05)
 24: 0x03B2 [0x29] REQ_SET_WAIT(priority=0x10, entity_id=Clavauert (ID: 16986762/0x0103328A), tag_num=0x07)
 25: 0x03B9 [0x80] LOAD_WAIT(entity=LocalPlayer)
 26: 0x03BE [0x80] LOAD_WAIT(entity=Clavauert (ID: 16986762/0x0103328A))
 27: 0x03C3 [0x80] LOAD_WAIT(entity=Unnamed NPC (ID: 16986763/0x0103328B))
 28: 0x03C8 [0x5C] MUSIC_CONTROL: Set Idle (Day) music to song 0*
 29: 0x03CC [0x5C] MUSIC_CONTROL: Set Idle (Night) music to song 0*
 30: 0x03D0 [0x9A] WAIT_MUSIC_SERVER()
 31: 0x03D1 [0x1C] WAIT(30* ticks)
 32: 0x03D4 [0x27] REQ_SET(priority=0x10, entity_id=LocalPlayer, tag_num=0x1C)
 33: 0x03DB [0x45] LOAD_SCHEDULED_TASK: Load scheduler "s200" with entities [LocalPlayer, LocalPlayer], work=[282*, 0*]
 34: 0x03EC [0x1A] CALL_SUBROUTINE(address=0x13B0)
 35: 0x03EF [0x2A] GET_REQ_LEVEL(level=16, entity_id=LocalPlayer)
 36: 0x03F5 [0x4A] LocalPlayer looks at Clavauert (ID: 16986762/0x0103328A)
 37: 0x03FE [0x52] END_LOAD_SCHEDULER: End scheduler "s200" with entities [LocalPlayer, LocalPlayer], work=282*
 38: 0x040D [0x27] REQ_SET(priority=0x10, entity_id=Clavauert (ID: 16986762/0x0103328A), tag_num=0x08)
 39: 0x0414 [0x02] IF !(Work_Zone[2] == 0*) GOTO 0x04D0
 40: 0x041C [0x45] LOAD_SCHEDULED_TASK: Load scheduler "s202" with entities [LocalPlayer, LocalPlayer], work=[282*, 0*]
 41: 0x042D [0x2B] Clavauert (ID: 16986762/0x0103328A) [8151*]:
    → "You're late, <Player>! "As laggard as a wamouracampa," one might say."
 42: 0x0434 [0x23] WAIT_FOR_DIALOG_INTERACTION
 43: 0x0435 [0x52] END_LOAD_SCHEDULER: End scheduler "s202" with entities [LocalPlayer, LocalPlayer], work=282*
 44: 0x0444 [0x45] LOAD_SCHEDULED_TASK: Load scheduler "s201" with entities [LocalPlayer, LocalPlayer], work=[282*, 0*]
 45: 0x0455 [0x27] REQ_SET(priority=0x10, entity_id=Clavauert (ID: 16986762/0x0103328A), tag_num=0x04)
 46: 0x045C [0x2B] Clavauert (ID: 16986762/0x0103328A) [8152*]:
    → "And you call yourself a mercenary... It is a wonder the Empire can thrive when protected by such a pitiful army of skivers."
 47: 0x0463 [0x23] WAIT_FOR_DIALOG_INTERACTION
 48: 0x0464 [0x2A] GET_REQ_LEVEL(level=16, entity_id=Clavauert (ID: 16986762/0x0103328A))
 49: 0x046A [0x27] REQ_SET(priority=0x10, entity_id=Clavauert (ID: 16986762/0x0103328A), tag_num=0x05)
 50: 0x0471 [0x2B] Clavauert (ID: 16986762/0x0103328A) [8153*]:
    → "If you were working with my research team, you'd be fired before you stepped in the door. Why, you even make that assistant of mine, Atelloune, look like the Goddess Herself!"
 51: 0x0478 [0x23] WAIT_FOR_DIALOG_INTERACTION
 52: 0x0479 [0x2A] GET_REQ_LEVEL(level=16, entity_id=Clavauert (ID: 16986762/0x0103328A))
 53: 0x047F [0x52] END_LOAD_SCHEDULER: End scheduler "s201" with entities [LocalPlayer, LocalPlayer], work=282*
 54: 0x048E [0x27] REQ_SET(priority=0x10, entity_id=Clavauert (ID: 16986762/0x0103328A), tag_num=0x0A)
 55: 0x0495 [0x45] LOAD_SCHEDULED_TASK: Load scheduler "s203" with entities [LocalPlayer, LocalPlayer], work=[282*, 0*]
 56: 0x04A6 [0x1C] WAIT(90* ticks)
 57: 0x04A9 [0x2B] Clavauert (ID: 16986762/0x0103328A) [8154*]:
    → "And it seems your tendency towards tardiness is not necessarily a unique trait..."
 58: 0x04B0 [0x23] WAIT_FOR_DIALOG_INTERACTION
 59: 0x04B1 [0x2A] GET_REQ_LEVEL(level=16, entity_id=Clavauert (ID: 16986762/0x0103328A))
 60: 0x04B7 [0x52] END_LOAD_SCHEDULER: End scheduler "s203" with entities [LocalPlayer, LocalPlayer], work=282*
 61: 0x04C6 [0x27] REQ_SET(priority=0x10, entity_id=LocalPlayer, tag_num=0x1D)
 62: 0x04CD [0x01] GOTO 0x058C
 63: 0x04D0 [0x02] IF !(Work_Zone[2] == 1*) GOTO 0x058C
 64: 0x04D8 [0x45] LOAD_SCHEDULED_TASK: Load scheduler "s202" with entities [LocalPlayer, LocalPlayer], work=[282*, 0*]
 65: 0x04E9 [0x2B] Clavauert (ID: 16986762/0x0103328A) [8146*]:
    → "Ah, quite punctual of you, <Player>."
 66: 0x04F0 [0x23] WAIT_FOR_DIALOG_INTERACTION
 67: 0x04F1 [0x52] END_LOAD_SCHEDULER: End scheduler "s202" with entities [LocalPlayer, LocalPlayer], work=282*
 68: 0x0500 [0x45] LOAD_SCHEDULED_TASK: Load scheduler "s201" with entities [LocalPlayer, LocalPlayer], work=[282*, 0*]
 69: 0x0511 [0x27] REQ_SET(priority=0x10, entity_id=Clavauert (ID: 16986762/0x0103328A), tag_num=0x03)
 70: 0x0518 [0x2B] Clavauert (ID: 16986762/0x0103328A) [8147*]:
    → ""As swift as a raptor," one might say."
 71: 0x051F [0x23] WAIT_FOR_DIALOG_INTERACTION
 72: 0x0520 [0x2A] GET_REQ_LEVEL(level=16, entity_id=Clavauert (ID: 16986762/0x0103328A))
 73: 0x0526 [0x27] REQ_SET(priority=0x10, entity_id=Clavauert (ID: 16986762/0x0103328A), tag_num=0x09)
 74: 0x052D [0x2B] Clavauert (ID: 16986762/0x0103328A) [8148*]:
    → "I should expect nothing less from a seasoned mercenary like yourself."
 75: 0x0534 [0x23] WAIT_FOR_DIALOG_INTERACTION
 76: 0x0535 [0x2A] GET_REQ_LEVEL(level=16, entity_id=Clavauert (ID: 16986762/0x0103328A))
 77: 0x053B [0x52] END_LOAD_SCHEDULER: End scheduler "s201" with entities [LocalPlayer, LocalPlayer], work=282*
 78: 0x054A [0x27] REQ_SET(priority=0x10, entity_id=Clavauert (ID: 16986762/0x0103328A), tag_num=0x0A)
 79: 0x0551 [0x45] LOAD_SCHEDULED_TASK: Load scheduler "s203" with entities [LocalPlayer, LocalPlayer], work=[282*, 0*]
 80: 0x0562 [0x1C] WAIT(90* ticks)
 81: 0x0565 [0x2B] Clavauert (ID: 16986762/0x0103328A) [8149*]:
    → "Now, if only all my help were as competent..."
 82: 0x056C [0x23] WAIT_FOR_DIALOG_INTERACTION
 83: 0x056D [0x2A] GET_REQ_LEVEL(level=16, entity_id=Clavauert (ID: 16986762/0x0103328A))
 84: 0x0573 [0x52] END_LOAD_SCHEDULER: End scheduler "s203" with entities [LocalPlayer, LocalPlayer], work=282*
 85: 0x0582 [0x27] REQ_SET(priority=0x10, entity_id=LocalPlayer, tag_num=0x1D)
 86: 0x0589 [0x01] GOTO 0x058C

SUBROUTINE_058C:
 87: 0x058C [0x45] LOAD_SCHEDULED_TASK: Load scheduler "s204" with entities [LocalPlayer, LocalPlayer], work=[282*, 0*]
 88: 0x059D [0x1C] WAIT(200* ticks)
 89: 0x05A0 [0x1A] CALL_SUBROUTINE(address=0x13D1)
 90: 0x05A3 [0x1C] WAIT(60* ticks)
 91: 0x05A6 [0x52] END_LOAD_SCHEDULER: End scheduler "s204" with entities [LocalPlayer, LocalPlayer], work=282*
 92: 0x05B5 [0x4A] LocalPlayer looks at Clavauert (ID: 16986762/0x0103328A)
 93: 0x05BE [0x45] LOAD_SCHEDULED_TASK: Load scheduler "s205" with entities [LocalPlayer, LocalPlayer], work=[282*, 0*]
 94: 0x05CF [0x1A] CALL_SUBROUTINE(address=0x13B0)
 95: 0x05D2 [0x55] WAIT_LOAD_SCHEDULER: Wait for scheduler "s205" with entities [LocalPlayer, LocalPlayer], work=282*
 96: 0x05E1 [0x4A] Clavauert (ID: 16986762/0x0103328A) looks at LocalPlayer
 97: 0x05EA [0x6E] Clavauert (ID: 16986762/0x0103328A) uses emote 32*
 98: 0x05F1 [0x99] Wait for Clavauert (ID: 16986762/0x0103328A) animation to complete
 99: 0x05F6 [0x45] LOAD_SCHEDULED_TASK: Load scheduler "s206" with entities [LocalPlayer, LocalPlayer], work=[282*, 0*]
100: 0x0607 [0x2B] Clavauert (ID: 16986762/0x0103328A) [8150*]:
    → "Where on Vana'diel could that nimwit be!?"
101: 0x060E [0x23] WAIT_FOR_DIALOG_INTERACTION
102: 0x060F [0x52] END_LOAD_SCHEDULER: End scheduler "s206" with entities [LocalPlayer, LocalPlayer], work=282*
103: 0x061E [0x5C] MUSIC_CONTROL: Set Idle (Day) music to song 163*
104: 0x0622 [0x5C] MUSIC_CONTROL: Set Idle (Night) music to song 163*
105: 0x0626 [0x9A] WAIT_MUSIC_SERVER()
106: 0x0627 [0x27] REQ_SET(priority=0x10, entity_id=Salwa-Molwa (ID: 16986760/0x01033288), tag_num=0x0F)
107: 0x062E [0x80] LOAD_WAIT(entity=Salwa-Molwa (ID: 16986760/0x01033288))
108: 0x0633 [0x94] Salwa-Molwa (ID: 16986760/0x01033288)->Render.Flags3 ^= 0x01
109: 0x0639 [0x27] REQ_SET(priority=0x10, entity_id=Salwa-Molwa (ID: 16986760/0x01033288), tag_num=0x07)
110: 0x0640 [0x45] LOAD_SCHEDULED_TASK: Load scheduler "s207" with entities [LocalPlayer, LocalPlayer], work=[282*, 0*]
111: 0x0651 [0x2B] Salwa-Molwa (ID: 16986760/0x01033288) [8155*]:
    → "Late! Late! Late! I'm gonna be lataru!"
112: 0x0658 [0x2A] GET_REQ_LEVEL(level=16, entity_id=Salwa-Molwa (ID: 16986760/0x01033288))
113: 0x065E [0x27] REQ_SET(priority=0x10, entity_id=Salwa-Molwa (ID: 16986760/0x01033288), tag_num=0x08)
114: 0x0665 [0x1C] WAIT(60* ticks)
115: 0x0668 [0x52] END_LOAD_SCHEDULER: End scheduler "s207" with entities [LocalPlayer, LocalPlayer], work=282*
116: 0x0677 [0x45] LOAD_SCHEDULED_TASK: Load scheduler "s208" with entities [LocalPlayer, LocalPlayer], work=[282*, 0*]
117: 0x0688 [0x4B] UPDATE_ENTITY_YAW(entity=LocalPlayer, yaw=0.0°*)
118: 0x068F [0x59] UPDATE_ENTITY_DATA: Set LocalPlayer turn speed head = 200*
119: 0x0697 [0x79] LocalPlayer looks at Salwa-Molwa (ID: 16986760/0x01033288) (Basic look)
120: 0x06A1 [0x1C] WAIT(100* ticks)
121: 0x06A4 [0x52] END_LOAD_SCHEDULER: End scheduler "s208" with entities [LocalPlayer, LocalPlayer], work=282*
122: 0x06B3 [0x45] LOAD_SCHEDULED_TASK: Load scheduler "s244" with entities [LocalPlayer, LocalPlayer], work=[282*, 0*]
123: 0x06C4 [0x79] Clavauert (ID: 16986762/0x0103328A) looks at Salwa-Molwa (ID: 16986760/0x01033288) (Basic look)
124: 0x06CE [0x2A] GET_REQ_LEVEL(level=16, entity_id=Salwa-Molwa (ID: 16986760/0x01033288))
125: 0x06D4 [0x59] UPDATE_ENTITY_DATA: Set LocalPlayer turn speed = 50*
126: 0x06DC [0x4A] LocalPlayer looks at Salwa-Molwa (ID: 16986760/0x01033288)
127: 0x06E5 [0x4B] UPDATE_ENTITY_YAW(entity=Salwa-Molwa (ID: 16986760/0x01033288), yaw=9.9°*)
128: 0x06EC [0x6F] WAIT_FRAME_DELAY: Yield until WaitTime reaches zero
129: 0x06ED [0x76] CHECK_ENTITY_RENDER_FLAGS: Wait until Salwa-Molwa (ID: 16986760/0x01033288) Render.Flags0 and Render.Flags3 conditions are met
130: 0x06F2 [0x27] REQ_SET(priority=0x10, entity_id=Salwa-Molwa (ID: 16986760/0x01033288), tag_num=0x0A)
131: 0x06F9 [0x1C] WAIT(40* ticks)
132: 0x06FC [0x2B] Salwa-Molwa (ID: 16986760/0x01033288) [8156*]:
    → "Ulp! You guys haven't been waiting too long for me, I hope."
133: 0x0703 [0x23] WAIT_FOR_DIALOG_INTERACTION
134: 0x0704 [0x2A] GET_REQ_LEVEL(level=16, entity_id=Salwa-Molwa (ID: 16986760/0x01033288))
135: 0x070A [0x2B] Salwa-Molwa (ID: 16986760/0x01033288) [8157*]:
    → "Ahem! I apologize deeply for my delayed arrival, and humbly beg your forgiveness."
136: 0x0711 [0x23] WAIT_FOR_DIALOG_INTERACTION
137: 0x0712 [0x52] END_LOAD_SCHEDULER: End scheduler "s244" with entities [LocalPlayer, LocalPlayer], work=282*
138: 0x0721 [0x59] UPDATE_ENTITY_DATA: Set Salwa-Molwa (ID: 16986760/0x01033288) turn speed head = 200*
139: 0x0729 [0x79] Salwa-Molwa (ID: 16986760/0x01033288) looks at Unknown NPC (ID: 2147647490/0x80028002) (Direct axis set)
140: 0x0733 [0x45] LOAD_SCHEDULED_TASK: Load scheduler "s209" with entities [LocalPlayer, LocalPlayer], work=[282*, 0*]
141: 0x0744 [0x27] REQ_SET(priority=0x10, entity_id=Salwa-Molwa (ID: 16986760/0x01033288), tag_num=0x0B)
142: 0x074B [0x2B] Salwa-Molwa (ID: 16986760/0x01033288) [8158*]:
    → "Salwa the Unworthy, at your service."
143: 0x0752 [0x23] WAIT_FOR_DIALOG_INTERACTION
144: 0x0753 [0x2A] GET_REQ_LEVEL(level=16, entity_id=Salwa-Molwa (ID: 16986760/0x01033288))
145: 0x0759 [0x52] END_LOAD_SCHEDULER: End scheduler "s209" with entities [LocalPlayer, LocalPlayer], work=282*
146: 0x0768 [0x27] REQ_SET(priority=0x10, entity_id=Salwa-Molwa (ID: 16986760/0x01033288), tag_num=0x0C)
147: 0x076F [0x4A] Clavauert (ID: 16986762/0x0103328A) looks at Salwa-Molwa (ID: 16986760/0x01033288)
148: 0x0778 [0x45] LOAD_SCHEDULED_TASK: Load scheduler "s210" with entities [LocalPlayer, LocalPlayer], work=[282*, 0*]
149: 0x0789 [0x2B] Salwa-Molwa (ID: 16986760/0x01033288) [8159*]:
    → "I would've been here earlier, but I thought we were supposed to meet at the exit to Bhaflau!"
150: 0x0790 [0x1C] WAIT(90* ticks)
151: 0x0793 [0x6E] Clavauert (ID: 16986762/0x0103328A) uses emote 33*
152: 0x079A [0x99] Wait for Clavauert (ID: 16986762/0x0103328A) animation to complete
153: 0x079F [0x27] REQ_SET(priority=0x10, entity_id=Salwa-Molwa (ID: 16986760/0x01033288), tag_num=0x0D)
154: 0x07A6 [0x1C] WAIT(60* ticks)
155: 0x07A9 [0x52] END_LOAD_SCHEDULER: End scheduler "s210" with entities [LocalPlayer, LocalPlayer], work=282*
156: 0x07B8 [0x4A] Salwa-Molwa (ID: 16986760/0x01033288) looks at Clavauert (ID: 16986762/0x0103328A)
157: 0x07C1 [0x4A] LocalPlayer looks at Clavauert (ID: 16986762/0x0103328A)
158: 0x07CA [0x45] LOAD_SCHEDULED_TASK: Load scheduler "s211" with entities [LocalPlayer, LocalPlayer], work=[282*, 0*]
159: 0x07DB [0x2B] Clavauert (ID: 16986762/0x0103328A) [8160*]:
    → "Fool!"
160: 0x07E2 [0x23] WAIT_FOR_DIALOG_INTERACTION
161: 0x07E3 [0x2A] GET_REQ_LEVEL(level=16, entity_id=Salwa-Molwa (ID: 16986760/0x01033288))
162: 0x07E9 [0x55] WAIT_LOAD_SCHEDULER: Wait for scheduler "s211" with entities [LocalPlayer, LocalPlayer], work=282*
163: 0x07F8 [0x27] REQ_SET(priority=0x10, entity_id=Clavauert (ID: 16986762/0x0103328A), tag_num=0x04)
164: 0x07FF [0x45] LOAD_SCHEDULED_TASK: Load scheduler "s212" with entities [LocalPlayer, LocalPlayer], work=[282*, 0*]
165: 0x0810 [0x2B] Clavauert (ID: 16986762/0x0103328A) [8161*]:
    → "How many times have I told you, I am not a man to be kept waiting!"
166: 0x0817 [0x23] WAIT_FOR_DIALOG_INTERACTION
167: 0x0818 [0x2A] GET_REQ_LEVEL(level=16, entity_id=Clavauert (ID: 16986762/0x0103328A))
168: 0x081E [0x52] END_LOAD_SCHEDULER: End scheduler "s212" with entities [LocalPlayer, LocalPlayer], work=282*
169: 0x082D [0x45] LOAD_SCHEDULED_TASK: Load scheduler "s237" with entities [LocalPlayer, LocalPlayer], work=[282*, 0*]
170: 0x083E [0x2B] Clavauert (ID: 16986762/0x0103328A) [8162*]:
    → "Or perhaps you thought we were going on a picnic to the countryside?"
171: 0x0845 [0x23] WAIT_FOR_DIALOG_INTERACTION
172: 0x0846 [0x52] END_LOAD_SCHEDULER: End scheduler "s237" with entities [LocalPlayer, LocalPlayer], work=282*
173: 0x0855 [0x02] IF !(Work_Zone[2] == 0*) GOTO 0x0900
174: 0x085D [0x45] LOAD_SCHEDULED_TASK: Load scheduler "s238" with entities [LocalPlayer, LocalPlayer], work=[282*, 0*]
175: 0x086E [0x2B] Clavauert (ID: 16986762/0x0103328A) [8164*]:
    → "Do not forget, Salwa-Molwa, there are thousands more Tarutaru where you came from. I'm sure I can find another to assist me!"
176: 0x0875 [0x23] WAIT_FOR_DIALOG_INTERACTION
177: 0x0876 [0x52] END_LOAD_SCHEDULER: End scheduler "s238" with entities [LocalPlayer, LocalPlayer], work=282*
178: 0x0885 [0x59] UPDATE_ENTITY_DATA: Set Salwa-Molwa (ID: 16986760/0x01033288) turn speed head = 50*
179: 0x088D [0x79] Salwa-Molwa (ID: 16986760/0x01033288) looks at Unknown NPC (ID: 2147647550/0x8002803E) (Direct axis set)
180: 0x0897 [0x45] LOAD_SCHEDULED_TASK: Load scheduler "s239" with entities [LocalPlayer, LocalPlayer], work=[282*, 0*]
181: 0x08A8 [0x2B] Salwa-Molwa (ID: 16986760/0x01033288) [8165*]:
    → "I-I'm sorry, Your Professorship! Please forgive me! It won't happen again!"
182: 0x08AF [0x23] WAIT_FOR_DIALOG_INTERACTION
183: 0x08B0 [0x52] END_LOAD_SCHEDULER: End scheduler "s239" with entities [LocalPlayer, LocalPlayer], work=282*
184: 0x08BF [0x27] REQ_SET(priority=0x10, entity_id=Clavauert (ID: 16986762/0x0103328A), tag_num=0x05)
185: 0x08C6 [0x45] LOAD_SCHEDULED_TASK: Load scheduler "s213" with entities [LocalPlayer, LocalPlayer], work=[282*, 0*]
186: 0x08D7 [0x2B] Clavauert (ID: 16986762/0x0103328A) [8167*]:
    → "I seriously worry about the success of my research..."
187: 0x08DE [0x23] WAIT_FOR_DIALOG_INTERACTION
188: 0x08DF [0x2A] GET_REQ_LEVEL(level=16, entity_id=Clavauert (ID: 16986762/0x0103328A))
189: 0x08E5 [0x4A] LocalPlayer looks at Clavauert (ID: 16986762/0x0103328A)
190: 0x08EE [0x52] END_LOAD_SCHEDULER: End scheduler "s213" with entities [LocalPlayer, LocalPlayer], work=282*
191: 0x08FD [0x01] GOTO 0x0B54
192: 0x0900 [0x02] IF !(Work_Zone[2] == 1*) GOTO 0x0B54
193: 0x0908 [0x29] REQ_SET_WAIT(priority=0x10, entity_id=LocalPlayer, tag_num=0x25)
194: 0x090F [0x02] IF !(Work_Zone[2] == 1*) GOTO 0x0942
195: 0x0917 [0x45] LOAD_SCHEDULED_TASK: Load scheduler "hum4" with entities [LocalPlayer, LocalPlayer], work=[282*, 0*]
196: 0x0928 [0x2B] Clavauert (ID: 16986762/0x0103328A) [8163*]:
    → "Look at this fine mercenary, all ready to embark on our important mission. At least one of you has some sense of responsibility."
197: 0x092F [0x23] WAIT_FOR_DIALOG_INTERACTION
198: 0x0930 [0x52] END_LOAD_SCHEDULER: End scheduler "hum4" with entities [LocalPlayer, LocalPlayer], work=282*
199: 0x093F [0x01] GOTO 0x0AA7
200: 0x0942 [0x02] IF !(Work_Zone[2] == 2*) GOTO 0x0975
201: 0x094A [0x45] LOAD_SCHEDULED_TASK: Load scheduler "hmf4" with entities [LocalPlayer, LocalPlayer], work=[282*, 0*]
202: 0x095B [0x2B] Clavauert (ID: 16986762/0x0103328A) [8163*]:
    → "Look at this fine mercenary, all ready to embark on our important mission. At least one of you has some sense of responsibility."
203: 0x0962 [0x23] WAIT_FOR_DIALOG_INTERACTION
204: 0x0963 [0x52] END_LOAD_SCHEDULER: End scheduler "hmf4" with entities [LocalPlayer, LocalPlayer], work=282*
205: 0x0972 [0x01] GOTO 0x0AA7
206: 0x0975 [0x02] IF !(Work_Zone[2] == 3*) GOTO 0x09A8
207: 0x097D [0x45] LOAD_SCHEDULED_TASK: Load scheduler "elm4" with entities [LocalPlayer, LocalPlayer], work=[282*, 0*]
208: 0x098E [0x2B] Clavauert (ID: 16986762/0x0103328A) [8163*]:
    → "Look at this fine mercenary, all ready to embark on our important mission. At least one of you has some sense of responsibility."
209: 0x0995 [0x23] WAIT_FOR_DIALOG_INTERACTION
210: 0x0996 [0x52] END_LOAD_SCHEDULER: End scheduler "elm4" with entities [LocalPlayer, LocalPlayer], work=282*
211: 0x09A5 [0x01] GOTO 0x0AA7
212: 0x09A8 [0x02] IF !(Work_Zone[2] == 4*) GOTO 0x09DB
213: 0x09B0 [0x45] LOAD_SCHEDULED_TASK: Load scheduler "elf4" with entities [LocalPlayer, LocalPlayer], work=[282*, 0*]
214: 0x09C1 [0x2B] Clavauert (ID: 16986762/0x0103328A) [8163*]:
    → "Look at this fine mercenary, all ready to embark on our important mission. At least one of you has some sense of responsibility."
215: 0x09C8 [0x23] WAIT_FOR_DIALOG_INTERACTION
216: 0x09C9 [0x52] END_LOAD_SCHEDULER: End scheduler "elf4" with entities [LocalPlayer, LocalPlayer], work=282*
217: 0x09D8 [0x01] GOTO 0x0AA7
218: 0x09DB [0x02] IF !(Work_Zone[2] == 5*) GOTO 0x0A0E
219: 0x09E3 [0x45] LOAD_SCHEDULED_TASK: Load scheduler "tar4" with entities [LocalPlayer, LocalPlayer], work=[282*, 0*]
220: 0x09F4 [0x2B] Clavauert (ID: 16986762/0x0103328A) [8163*]:
    → "Look at this fine mercenary, all ready to embark on our important mission. At least one of you has some sense of responsibility."
221: 0x09FB [0x23] WAIT_FOR_DIALOG_INTERACTION
222: 0x09FC [0x52] END_LOAD_SCHEDULER: End scheduler "tar4" with entities [LocalPlayer, LocalPlayer], work=282*
223: 0x0A0B [0x01] GOTO 0x0AA7
224: 0x0A0E [0x02] IF !(Work_Zone[2] == 6*) GOTO 0x0A41
225: 0x0A16 [0x45] LOAD_SCHEDULED_TASK: Load scheduler "tar4" with entities [LocalPlayer, LocalPlayer], work=[282*, 0*]
226: 0x0A27 [0x2B] Clavauert (ID: 16986762/0x0103328A) [8163*]:
    → "Look at this fine mercenary, all ready to embark on our important mission. At least one of you has some sense of responsibility."
227: 0x0A2E [0x23] WAIT_FOR_DIALOG_INTERACTION
228: 0x0A2F [0x52] END_LOAD_SCHEDULER: End scheduler "tar4" with entities [LocalPlayer, LocalPlayer], work=282*
229: 0x0A3E [0x01] GOTO 0x0AA7
230: 0x0A41 [0x02] IF !(Work_Zone[2] == 7*) GOTO 0x0A74
231: 0x0A49 [0x45] LOAD_SCHEDULED_TASK: Load scheduler "mit4" with entities [LocalPlayer, LocalPlayer], work=[282*, 0*]
232: 0x0A5A [0x2B] Clavauert (ID: 16986762/0x0103328A) [8163*]:
    → "Look at this fine mercenary, all ready to embark on our important mission. At least one of you has some sense of responsibility."
233: 0x0A61 [0x23] WAIT_FOR_DIALOG_INTERACTION
234: 0x0A62 [0x52] END_LOAD_SCHEDULER: End scheduler "mit4" with entities [LocalPlayer, LocalPlayer], work=282*
235: 0x0A71 [0x01] GOTO 0x0AA7
236: 0x0A74 [0x02] IF !(Work_Zone[2] == 8*) GOTO 0x0AA7
237: 0x0A7C [0x45] LOAD_SCHEDULED_TASK: Load scheduler "gal4" with entities [LocalPlayer, LocalPlayer], work=[282*, 0*]
238: 0x0A8D [0x2B] Clavauert (ID: 16986762/0x0103328A) [8163*]:
    → "Look at this fine mercenary, all ready to embark on our important mission. At least one of you has some sense of responsibility."
239: 0x0A94 [0x23] WAIT_FOR_DIALOG_INTERACTION
240: 0x0A95 [0x52] END_LOAD_SCHEDULER: End scheduler "gal4" with entities [LocalPlayer, LocalPlayer], work=282*
241: 0x0AA4 [0x01] GOTO 0x0AA7

SUBROUTINE_0AA7:
242: 0x0AA7 [0x79] Clavauert (ID: 16986762/0x0103328A) looks at Salwa-Molwa (ID: 16986760/0x01033288) (Basic look)
243: 0x0AB1 [0x45] LOAD_SCHEDULED_TASK: Load scheduler "s238" with entities [LocalPlayer, LocalPlayer], work=[282*, 0*]
244: 0x0AC2 [0x2B] Clavauert (ID: 16986762/0x0103328A) [8164*]:
    → "Do not forget, Salwa-Molwa, there are thousands more Tarutaru where you came from. I'm sure I can find another to assist me!"
245: 0x0AC9 [0x23] WAIT_FOR_DIALOG_INTERACTION
246: 0x0ACA [0x52] END_LOAD_SCHEDULER: End scheduler "s238" with entities [LocalPlayer, LocalPlayer], work=282*
247: 0x0AD9 [0x59] UPDATE_ENTITY_DATA: Set Salwa-Molwa (ID: 16986760/0x01033288) turn speed head = 50*
248: 0x0AE1 [0x79] Salwa-Molwa (ID: 16986760/0x01033288) looks at Unknown NPC (ID: 2147647550/0x8002803E) (Direct axis set)
249: 0x0AEB [0x45] LOAD_SCHEDULED_TASK: Load scheduler "s239" with entities [LocalPlayer, LocalPlayer], work=[282*, 0*]
250: 0x0AFC [0x2B] Salwa-Molwa (ID: 16986760/0x01033288) [8165*]:
    → "I-I'm sorry, Your Professorship! Please forgive me! It won't happen again!"
251: 0x0B03 [0x23] WAIT_FOR_DIALOG_INTERACTION
252: 0x0B04 [0x52] END_LOAD_SCHEDULER: End scheduler "s239" with entities [LocalPlayer, LocalPlayer], work=282*
253: 0x0B13 [0x27] REQ_SET(priority=0x10, entity_id=Clavauert (ID: 16986762/0x0103328A), tag_num=0x05)
254: 0x0B1A [0x45] LOAD_SCHEDULED_TASK: Load scheduler "s213" with entities [LocalPlayer, LocalPlayer], work=[282*, 0*]
255: 0x0B2B [0x2B] Clavauert (ID: 16986762/0x0103328A) [8166*]:
    → "You are lucky I don't bend you across my knee and give you a good flogging! Maybe that would teach you a lesson!"
256: 0x0B32 [0x23] WAIT_FOR_DIALOG_INTERACTION
257: 0x0B33 [0x2A] GET_REQ_LEVEL(level=16, entity_id=Clavauert (ID: 16986762/0x0103328A))
258: 0x0B39 [0x4A] LocalPlayer looks at Clavauert (ID: 16986762/0x0103328A)
259: 0x0B42 [0x52] END_LOAD_SCHEDULER: End scheduler "s213" with entities [LocalPlayer, LocalPlayer], work=282*
260: 0x0B51 [0x01] GOTO 0x0B54

SUBROUTINE_0B54:
261: 0x0B54 [0x45] LOAD_SCHEDULED_TASK: Load scheduler "s214" with entities [LocalPlayer, LocalPlayer], work=[282*, 0*]
262: 0x0B65 [0x4B] UPDATE_ENTITY_YAW(entity=Clavauert (ID: 16986762/0x0103328A), yaw=8.4°*)
263: 0x0B6C [0x79] Salwa-Molwa (ID: 16986760/0x01033288) looks at Clavauert (ID: 16986762/0x0103328A) (Basic look)
264: 0x0B76 [0x2B] Clavauert (ID: 16986762/0x0103328A) [8168*]:
    → "But enough of this idle chit-chat. I guess there is only one way to see if you have truly learned your lesson."
265: 0x0B7D [0x23] WAIT_FOR_DIALOG_INTERACTION
266: 0x0B7E [0x52] END_LOAD_SCHEDULER: End scheduler "s214" with entities [LocalPlayer, LocalPlayer], work=282*
267: 0x0B8D [0x6F] WAIT_FRAME_DELAY: Yield until WaitTime reaches zero
268: 0x0B8E [0x70] WAIT_ENTITY_RENDER_FLAG: Wait while EventEntity->Render.Flags3 bit 2 is set (cancel turn if not)
269: 0x0B8F [0x45] LOAD_SCHEDULED_TASK: Load scheduler "s215" with entities [LocalPlayer, LocalPlayer], work=[282*, 0*]
270: 0x0BA0 [0x2B] Clavauert (ID: 16986762/0x0103328A) [8169*]:
    → "<Player>. Am I safe to assume that you are familiar with the quickest route to Mamo--?"
271: 0x0BA7 [0x27] REQ_SET(priority=0x10, entity_id=Mikilulu (ID: 16986761/0x01033289), tag_num=0x06)
272: 0x0BAE [0x94] Mikilulu (ID: 16986761/0x01033289)->Render.Flags3 ^= 0x01
273: 0x0BB4 [0x27] REQ_SET(priority=0x10, entity_id=Mikilulu (ID: 16986761/0x01033289), tag_num=0x07)
274: 0x0BBB [0x27] REQ_SET(priority=0x10, entity_id=Clavauert (ID: 16986762/0x0103328A), tag_num=0x0B)
275: 0x0BC2 [0x1C] WAIT(30* ticks)
276: 0x0BC5 [0x73] Mikilulu (ID: 16986761/0x01033289) casts magic 253* on Clavauert (ID: 16986762/0x0103328A)
277: 0x0BD0 [0x73] Mikilulu (ID: 16986761/0x01033289) casts magic 253* on LocalPlayer
278: 0x0BDB [0x73] Mikilulu (ID: 16986761/0x01033289) casts magic 253* on Salwa-Molwa (ID: 16986760/0x01033288)
279: 0x0BE6 [0x1C] WAIT(50* ticks)
280: 0x0BE9 [0x27] REQ_SET(priority=0x10, entity_id=LocalPlayer, tag_num=0x1E)
281: 0x0BF0 [0x27] REQ_SET(priority=0x10, entity_id=LocalPlayer, tag_num=0x13)
282: 0x0BF7 [0x1C] WAIT(10* ticks)
283: 0x0BFA [0x27] REQ_SET(priority=0x10, entity_id=Clavauert (ID: 16986762/0x0103328A), tag_num=0x0D)
284: 0x0C01 [0x27] REQ_SET(priority=0x10, entity_id=Salwa-Molwa (ID: 16986760/0x01033288), tag_num=0x10)
285: 0x0C08 [0x1C] WAIT(180* ticks)
286: 0x0C0B [0x1A] CALL_SUBROUTINE(address=0x13D1)
287: 0x0C0E [0x2A] GET_REQ_LEVEL(level=16, entity_id=LocalPlayer)
288: 0x0C14 [0x2A] GET_REQ_LEVEL(level=16, entity_id=Clavauert (ID: 16986762/0x0103328A))
289: 0x0C1A [0x2A] GET_REQ_LEVEL(level=16, entity_id=Salwa-Molwa (ID: 16986760/0x01033288))
290: 0x0C20 [0x52] END_LOAD_SCHEDULER: End scheduler "s215" with entities [LocalPlayer, LocalPlayer], work=282*
291: 0x0C2F [0x29] REQ_SET_WAIT(priority=0x10, entity_id=Unnamed NPC (ID: 16986764/0x0103328C), tag_num=0x05)
292: 0x0C36 [0x80] LOAD_WAIT(entity=Unnamed NPC (ID: 16986764/0x0103328C))
293: 0x0C3B [0x27] REQ_SET(priority=0x10, entity_id=Unnamed NPC (ID: 16986765/0x0103328D), tag_num=0x02)
294: 0x0C42 [0x27] REQ_SET(priority=0x10, entity_id=Unnamed NPC (ID: 16986763/0x0103328B), tag_num=0x01)
295: 0x0C49 [0x29] REQ_SET_WAIT(priority=0x10, entity_id=Unnamed NPC (ID: 16986765/0x0103328D), tag_num=0x04)
296: 0x0C50 [0x29] REQ_SET_WAIT(priority=0x10, entity_id=Unnamed NPC (ID: 16986763/0x0103328B), tag_num=0x04)
297: 0x0C57 [0x80] LOAD_WAIT(entity=Unnamed NPC (ID: 16986765/0x0103328D))
298: 0x0C5C [0x80] LOAD_WAIT(entity=Unnamed NPC (ID: 16986763/0x0103328B))
299: 0x0C61 [0x27] REQ_SET(priority=0x10, entity_id=Unnamed NPC (ID: 16986764/0x0103328C), tag_num=0x06)
300: 0x0C68 [0x29] REQ_SET_WAIT(priority=0x10, entity_id=Salwa-Molwa (ID: 16986760/0x01033288), tag_num=0x11)
301: 0x0C6F [0x1C] WAIT(60* ticks)
302: 0x0C72 [0x6C] FADE_ENTITY_COLOR(entity_id=Salwa-Molwa (ID: 16986760/0x01033288), end_alpha=30*, fade_time=1*)
303: 0x0C7B [0x1C] WAIT(1* ticks)
304: 0x0C7E [0x5C] MUSIC_CONTROL: Set Idle (Day) music to song 127*
305: 0x0C82 [0x5C] MUSIC_CONTROL: Set Idle (Night) music to song 127*
306: 0x0C86 [0x9A] WAIT_MUSIC_SERVER()
307: 0x0C87 [0x27] REQ_SET(priority=0x10, entity_id=Unnamed NPC (ID: 16986764/0x0103328C), tag_num=0x08)
308: 0x0C8E [0x27] REQ_SET(priority=0x10, entity_id=Unnamed NPC (ID: 16986763/0x0103328B), tag_num=0x06)
309: 0x0C95 [0x27] REQ_SET(priority=0x10, entity_id=Salwa-Molwa (ID: 16986760/0x01033288), tag_num=0x12)
310: 0x0C9C [0x27] REQ_SET(priority=0x10, entity_id=Unnamed NPC (ID: 16986765/0x0103328D), tag_num=0x05)
311: 0x0CA3 [0x27] REQ_SET(priority=0x10, entity_id=Mikilulu (ID: 16986761/0x01033289), tag_num=0x02)
312: 0x0CAA [0x45] LOAD_SCHEDULED_TASK: Load scheduler "s217" with entities [LocalPlayer, LocalPlayer], work=[282*, 0*]
313: 0x0CBB [0x1A] CALL_SUBROUTINE(address=0x13B0)
314: 0x0CBE [0x27] REQ_SET(priority=0x10, entity_id=Unnamed NPC (ID: 16986766/0x0103328E), tag_num=0x03)
315: 0x0CC5 [0x27] REQ_SET(priority=0x10, entity_id=Unnamed NPC (ID: 16986767/0x0103328F), tag_num=0x02)
316: 0x0CCC [0x27] REQ_SET(priority=0x10, entity_id=Unnamed NPC (ID: 16986768/0x01033290), tag_num=0x02)
317: 0x0CD3 [0x27] REQ_SET(priority=0x10, entity_id=Unnamed NPC (ID: 16986769/0x01033291), tag_num=0x02)
318: 0x0CDA [0x1C] WAIT(400* ticks)
319: 0x0CDD [0x29] REQ_SET_WAIT(priority=0x10, entity_id=LocalPlayer, tag_num=0x20)
320: 0x0CE4 [0x4A] LocalPlayer looks at Clavauert (ID: 16986762/0x0103328A)
321: 0x0CED [0x4A] Clavauert (ID: 16986762/0x0103328A) looks at LocalPlayer
322: 0x0CF6 [0x27] REQ_SET(priority=0x10, entity_id=LocalPlayer, tag_num=0x13)
323: 0x0CFD [0x27] REQ_SET(priority=0x10, entity_id=Clavauert (ID: 16986762/0x0103328A), tag_num=0x0D)
324: 0x0D04 [0x2A] GET_REQ_LEVEL(level=16, entity_id=LocalPlayer)
325: 0x0D0A [0x2A] GET_REQ_LEVEL(level=16, entity_id=Clavauert (ID: 16986762/0x0103328A))
326: 0x0D10 [0x55] WAIT_LOAD_SCHEDULER: Wait for scheduler "s217" with entities [LocalPlayer, LocalPlayer], work=282*
327: 0x0D1F [0x45] LOAD_SCHEDULED_TASK: Load scheduler "s219" with entities [LocalPlayer, LocalPlayer], work=[282*, 0*]
328: 0x0D30 [0x29] REQ_SET_WAIT(priority=0x10, entity_id=LocalPlayer, tag_num=0x14)
329: 0x0D37 [0x27] REQ_SET(priority=0x10, entity_id=LocalPlayer, tag_num=0x21)
330: 0x0D3E [0x2B] Clavauert (ID: 16986762/0x0103328A) [8170*]:
    → "<Yawn>..."
331: 0x0D45 [0x23] WAIT_FOR_DIALOG_INTERACTION
332: 0x0D46 [0x27] REQ_SET(priority=0x10, entity_id=Salwa-Molwa (ID: 16986760/0x01033288), tag_num=0x04)
333: 0x0D4D [0x27] REQ_SET(priority=0x10, entity_id=Unnamed NPC (ID: 16986764/0x0103328C), tag_num=0x02)
334: 0x0D54 [0x27] REQ_SET(priority=0x10, entity_id=Unnamed NPC (ID: 16986765/0x0103328D), tag_num=0x07)
335: 0x0D5B [0x2A] GET_REQ_LEVEL(level=16, entity_id=LocalPlayer)
336: 0x0D61 [0x52] END_LOAD_SCHEDULER: End scheduler "s219" with entities [LocalPlayer, LocalPlayer], work=282*
337: 0x0D70 [0x27] REQ_SET(priority=0x10, entity_id=Clavauert (ID: 16986762/0x0103328A), tag_num=0x0E)
338: 0x0D77 [0x45] LOAD_SCHEDULED_TASK: Load scheduler "s218" with entities [LocalPlayer, LocalPlayer], work=[282*, 0*]
339: 0x0D88 [0x2A] GET_REQ_LEVEL(level=16, entity_id=Clavauert (ID: 16986762/0x0103328A))
340: 0x0D8E [0x6E] Clavauert (ID: 16986762/0x0103328A) uses emote 6*
341: 0x0D95 [0x99] Wait for Clavauert (ID: 16986762/0x0103328A) animation to complete
342: 0x0D9A [0x1C] WAIT(60* ticks)
343: 0x0D9D [0x2B] Clavauert (ID: 16986762/0x0103328A) [8171*]:
    → "What sort of enchantment is this?"
344: 0x0DA4 [0x23] WAIT_FOR_DIALOG_INTERACTION
345: 0x0DA5 [0x52] END_LOAD_SCHEDULER: End scheduler "s218" with entities [LocalPlayer, LocalPlayer], work=282*
346: 0x0DB4 [0x4B] UPDATE_ENTITY_YAW(entity=Clavauert (ID: 16986762/0x0103328A), yaw=8.4°*)
347: 0x0DBB [0x45] LOAD_SCHEDULED_TASK: Load scheduler "s220" with entities [LocalPlayer, LocalPlayer], work=[282*, 0*]
348: 0x0DCC [0x6F] WAIT_FRAME_DELAY: Yield until WaitTime reaches zero
349: 0x0DCD [0x76] CHECK_ENTITY_RENDER_FLAGS: Wait until Clavauert (ID: 16986762/0x0103328A) Render.Flags0 and Render.Flags3 conditions are met
350: 0x0DD2 [0x29] REQ_SET_WAIT(priority=0x10, entity_id=Clavauert (ID: 16986762/0x0103328A), tag_num=0x11)
351: 0x0DD9 [0x7B] Clavauert (ID: 16986762/0x0103328A) stops talking
352: 0x0DDE [0x27] REQ_SET(priority=0x10, entity_id=Clavauert (ID: 16986762/0x0103328A), tag_num=0x0F)
353: 0x0DE5 [0x1C] WAIT(20* ticks)
354: 0x0DE8 [0x2B] Clavauert (ID: 16986762/0x0103328A) [8172*]:
    → "Hm? Where is our little friend!?"
355: 0x0DEF [0x23] WAIT_FOR_DIALOG_INTERACTION
356: 0x0DF0 [0x2A] GET_REQ_LEVEL(level=16, entity_id=Clavauert (ID: 16986762/0x0103328A))
357: 0x0DF6 [0x52] END_LOAD_SCHEDULER: End scheduler "s220" with entities [LocalPlayer, LocalPlayer], work=282*
358: 0x0E05 [0x4A] Clavauert (ID: 16986762/0x0103328A) looks at LocalPlayer
359: 0x0E0E [0x45] LOAD_SCHEDULED_TASK: Load scheduler "s223" with entities [LocalPlayer, LocalPlayer], work=[282*, 0*]
360: 0x0E1F [0x6F] WAIT_FRAME_DELAY: Yield until WaitTime reaches zero
361: 0x0E20 [0x76] CHECK_ENTITY_RENDER_FLAGS: Wait until Clavauert (ID: 16986762/0x0103328A) Render.Flags0 and Render.Flags3 conditions are met
362: 0x0E25 [0x27] REQ_SET(priority=0x10, entity_id=Clavauert (ID: 16986762/0x0103328A), tag_num=0x04)
363: 0x0E2C [0x2B] Clavauert (ID: 16986762/0x0103328A) [8173*]:
    → "<Player>! And you call yourself a bodyguard! It has been less than an hour and you have already succeeded in losing one of my team!"
364: 0x0E33 [0x23] WAIT_FOR_DIALOG_INTERACTION
365: 0x0E34 [0x2A] GET_REQ_LEVEL(level=16, entity_id=Clavauert (ID: 16986762/0x0103328A))
366: 0x0E3A [0x6E] Clavauert (ID: 16986762/0x0103328A) uses emote 6*
367: 0x0E41 [0x99] Wait for Clavauert (ID: 16986762/0x0103328A) animation to complete
368: 0x0E46 [0x99] Wait for Clavauert (ID: 16986762/0x0103328A) animation to complete
369: 0x0E4B [0x2B] Clavauert (ID: 16986762/0x0103328A) [8174*]:
    → "Luckily it was just Salwa, but what if it had been me!?"
370: 0x0E52 [0x23] WAIT_FOR_DIALOG_INTERACTION
371: 0x0E53 [0x52] END_LOAD_SCHEDULER: End scheduler "s223" with entities [LocalPlayer, LocalPlayer], work=282*
372: 0x0E62 [0x45] LOAD_SCHEDULED_TASK: Load scheduler "s222" with entities [LocalPlayer, LocalPlayer], work=[282*, 0*]
373: 0x0E73 [0x2B] Clavauert (ID: 16986762/0x0103328A) [8175*]:
    → "While I do not like the idea of losing precious research time..."
374: 0x0E7A [0x23] WAIT_FOR_DIALOG_INTERACTION
375: 0x0E7B [0x2B] Clavauert (ID: 16986762/0x0103328A) [8176*]:
    → "...I suppose we should locate the lost chap."
376: 0x0E82 [0x23] WAIT_FOR_DIALOG_INTERACTION
377: 0x0E83 [0x27] REQ_SET(priority=0x10, entity_id=Clavauert (ID: 16986762/0x0103328A), tag_num=0x12)
378: 0x0E8A [0x2B] Clavauert (ID: 16986762/0x0103328A) [8177*]:
    → "However, I haven't the slightest of ideas where to begin searching."
379: 0x0E91 [0x23] WAIT_FOR_DIALOG_INTERACTION
380: 0x0E92 [0x2A] GET_REQ_LEVEL(level=16, entity_id=Clavauert (ID: 16986762/0x0103328A))
381: 0x0E98 [0x52] END_LOAD_SCHEDULER: End scheduler "s222" with entities [LocalPlayer, LocalPlayer], work=282*
382: 0x0EA7 [0x45] LOAD_SCHEDULED_TASK: Load scheduler "s221" with entities [LocalPlayer, LocalPlayer], work=[282*, 0*]
383: 0x0EB8 [0x27] REQ_SET(priority=0x10, entity_id=Clavauert (ID: 16986762/0x0103328A), tag_num=0x14)
384: 0x0EBF [0x2B] Clavauert (ID: 16986762/0x0103328A) [8178*]:
    → "What about you? Did you happen to see anything while you were lounging there on the leaves?"
385: 0x0EC6 [0x23] WAIT_FOR_DIALOG_INTERACTION
386: 0x0EC7 [0x29] REQ_SET_WAIT(priority=0x10, entity_id=Clavauert (ID: 16986762/0x0103328A), tag_num=0x15)
387: 0x0ECE [0x24] CREATE_DIALOG(message_id=8179*, default_option=0*, option_flags=0*)
    → "I thought I saw... [A toad chasing a Poroggo!/A Tarutaru chasing a toad!/A Tarutaru chasing a Poroggo!]"
388: 0x0ED5 [0x25] WAIT_DIALOG_SELECT()
389: 0x0ED6 [0x02] IF !(Work_Zone[0] == 0*) GOTO 0x0F4E
390: 0x0EDE [0x03] Work_Zone[2] = 1*
391: 0x0EE3 [0x29] REQ_SET_WAIT(priority=0x10, entity_id=LocalPlayer, tag_num=0x23)
392: 0x0EEA [0x1C] WAIT(10* ticks)
393: 0x0EED [0x29] REQ_SET_WAIT(priority=0x10, entity_id=LocalPlayer, tag_num=0x24)
394: 0x0EF4 [0x52] END_LOAD_SCHEDULER: End scheduler "s221" with entities [LocalPlayer, LocalPlayer], work=282*
395: 0x0F03 [0x27] REQ_SET(priority=0x10, entity_id=Clavauert (ID: 16986762/0x0103328A), tag_num=0x0F)
396: 0x0F0A [0x1C] WAIT(20* ticks)
397: 0x0F0D [0x45] LOAD_SCHEDULED_TASK: Load scheduler "s224" with entities [LocalPlayer, LocalPlayer], work=[282*, 0*]
398: 0x0F1E [0x2B] Clavauert (ID: 16986762/0x0103328A) [8180*]:
    → "Amazing! You say you saw an actual Poroggo!?"
399: 0x0F25 [0x23] WAIT_FOR_DIALOG_INTERACTION
400: 0x0F26 [0x2A] GET_REQ_LEVEL(level=16, entity_id=Clavauert (ID: 16986762/0x0103328A))
401: 0x0F2C [0x2B] Clavauert (ID: 16986762/0x0103328A) [8181*]:
    → "Let me see... Then we can assume the toad you saw chasing after it would be none other than Salwa-Molwa!"
402: 0x0F33 [0x23] WAIT_FOR_DIALOG_INTERACTION
403: 0x0F34 [0x2B] Clavauert (ID: 16986762/0x0103328A) [8182*]:
    → "...... How dare he go and transform without allowing me time to make my observations! If he is still expecting pay in full for this debacle, then he is gravely mistaken!"
404: 0x0F3B [0x23] WAIT_FOR_DIALOG_INTERACTION
405: 0x0F3C [0x52] END_LOAD_SCHEDULER: End scheduler "s224" with entities [LocalPlayer, LocalPlayer], work=282*
406: 0x0F4B [0x01] GOTO 0x107B
407: 0x0F4E [0x02] IF !(Work_Zone[0] == 1*) GOTO 0x1003
408: 0x0F56 [0x03] Work_Zone[2] = 2*
409: 0x0F5B [0x29] REQ_SET_WAIT(priority=0x10, entity_id=LocalPlayer, tag_num=0x23)
410: 0x0F62 [0x1C] WAIT(10* ticks)
411: 0x0F65 [0x29] REQ_SET_WAIT(priority=0x10, entity_id=LocalPlayer, tag_num=0x24)
412: 0x0F6C [0x52] END_LOAD_SCHEDULER: End scheduler "s221" with entities [LocalPlayer, LocalPlayer], work=282*
413: 0x0F7B [0x27] REQ_SET(priority=0x10, entity_id=Clavauert (ID: 16986762/0x0103328A), tag_num=0x0F)
414: 0x0F82 [0x1C] WAIT(20* ticks)
415: 0x0F85 [0x45] LOAD_SCHEDULED_TASK: Load scheduler "s224" with entities [LocalPlayer, LocalPlayer], work=[282*, 0*]
416: 0x0F96 [0x2B] Clavauert (ID: 16986762/0x0103328A) [8183*]:
    → "!? You say you witnessed a Tarutaru chasing a toad?"
417: 0x0F9D [0x23] WAIT_FOR_DIALOG_INTERACTION
418: 0x0F9E [0x2A] GET_REQ_LEVEL(level=16, entity_id=Clavauert (ID: 16986762/0x0103328A))
419: 0x0FA4 [0x2B] Clavauert (ID: 16986762/0x0103328A) [8184*]:
    → "We can assume that the Tarutaru was Salwa-Molwa. However, why in the world has he chosen to run off and leave us here?"
420: 0x0FAB [0x23] WAIT_FOR_DIALOG_INTERACTION
421: 0x0FAC [0x52] END_LOAD_SCHEDULER: End scheduler "s224" with entities [LocalPlayer, LocalPlayer], work=282*
422: 0x0FBB [0x45] LOAD_SCHEDULED_TASK: Load scheduler "s243" with entities [LocalPlayer, LocalPlayer], work=[282*, 0*]
423: 0x0FCC [0x27] REQ_SET(priority=0x10, entity_id=Clavauert (ID: 16986762/0x0103328A), tag_num=0x12)
424: 0x0FD3 [0x2B] Clavauert (ID: 16986762/0x0103328A) [8185*]:
    → "Perhaps the toad placed a powerful charm spell on him... But why would it do that?"
425: 0x0FDA [0x23] WAIT_FOR_DIALOG_INTERACTION
426: 0x0FDB [0x2A] GET_REQ_LEVEL(level=16, entity_id=Clavauert (ID: 16986762/0x0103328A))
427: 0x0FE1 [0x2B] Clavauert (ID: 16986762/0x0103328A) [8186*]:
    → "No... I believe this is the scheming of a Poroggo."
428: 0x0FE8 [0x23] WAIT_FOR_DIALOG_INTERACTION
429: 0x0FE9 [0x2B] Clavauert (ID: 16986762/0x0103328A) [8187*]:
    → "You must have simply mistaken the beastman for a common toad--an oversight easily understandable, coming from an uneducated lay[man/woman] such as yourself."
430: 0x0FF0 [0x23] WAIT_FOR_DIALOG_INTERACTION
431: 0x0FF1 [0x52] END_LOAD_SCHEDULER: End scheduler "s243" with entities [LocalPlayer, LocalPlayer], work=282*
432: 0x1000 [0x01] GOTO 0x107B
433: 0x1003 [0x02] IF !(Work_Zone[0] == 2*) GOTO 0x107B
434: 0x100B [0x03] Work_Zone[2] = 1*
435: 0x1010 [0x29] REQ_SET_WAIT(priority=0x10, entity_id=LocalPlayer, tag_num=0x23)
436: 0x1017 [0x1C] WAIT(10* ticks)
437: 0x101A [0x29] REQ_SET_WAIT(priority=0x10, entity_id=LocalPlayer, tag_num=0x24)
438: 0x1021 [0x52] END_LOAD_SCHEDULER: End scheduler "s221" with entities [LocalPlayer, LocalPlayer], work=282*
439: 0x1030 [0x27] REQ_SET(priority=0x10, entity_id=Clavauert (ID: 16986762/0x0103328A), tag_num=0x0F)
440: 0x1037 [0x1C] WAIT(20* ticks)
441: 0x103A [0x45] LOAD_SCHEDULED_TASK: Load scheduler "s224" with entities [LocalPlayer, LocalPlayer], work=[282*, 0*]
442: 0x104B [0x2B] Clavauert (ID: 16986762/0x0103328A) [8188*]:
    → "What is this!? You say you witnessed a Tarutaru pursuing a Poroggo!?"
443: 0x1052 [0x23] WAIT_FOR_DIALOG_INTERACTION
444: 0x1053 [0x2A] GET_REQ_LEVEL(level=16, entity_id=Clavauert (ID: 16986762/0x0103328A))
445: 0x1059 [0x2B] Clavauert (ID: 16986762/0x0103328A) [8189*]:
    → "We can safely assume that the Tarutaru was Salwa-Molwa. However, why in the world would he be chasing away the very beastman we seek?"
446: 0x1060 [0x23] WAIT_FOR_DIALOG_INTERACTION
447: 0x1061 [0x2B] Clavauert (ID: 16986762/0x0103328A) [8190*]:
    → "There is also the possibility that he was put under a powerful charm spell... But if that is indeed the case, why wasn't he transformed into a toad as well...?"
448: 0x1068 [0x23] WAIT_FOR_DIALOG_INTERACTION
449: 0x1069 [0x52] END_LOAD_SCHEDULER: End scheduler "s224" with entities [LocalPlayer, LocalPlayer], work=282*
450: 0x1078 [0x01] GOTO 0x107B

SUBROUTINE_107B:
451: 0x107B [0x27] REQ_SET(priority=0x10, entity_id=Clavauert (ID: 16986762/0x0103328A), tag_num=0x10)
452: 0x1082 [0x45] LOAD_SCHEDULED_TASK: Load scheduler "s226" with entities [LocalPlayer, LocalPlayer], work=[282*, 0*]
453: 0x1093 [0x2B] Clavauert (ID: 16986762/0x0103328A) [8191*]:
    → "Either way, it seems best if we continue our expedition as planned."
454: 0x109A [0x23] WAIT_FOR_DIALOG_INTERACTION
455: 0x109B [0x2A] GET_REQ_LEVEL(level=16, entity_id=Clavauert (ID: 16986762/0x0103328A))
456: 0x10A1 [0x2B] Clavauert (ID: 16986762/0x0103328A) [8192*]:
    → "If a Poroggo truly was involved in Salwa's disappearance, then we shall find both of them in Mamook."
457: 0x10A8 [0x23] WAIT_FOR_DIALOG_INTERACTION
458: 0x10A9 [0x52] END_LOAD_SCHEDULER: End scheduler "s226" with entities [LocalPlayer, LocalPlayer], work=282*
459: 0x10B8 [0x1A] CALL_SUBROUTINE(address=0x138F)
460: 0x10BB [0x45] LOAD_SCHEDULED_TASK: Load scheduler "s242" with entities [LocalPlayer, LocalPlayer], work=[282*, 0*]
461: 0x10CC [0x1A] CALL_SUBROUTINE(address=0x136E)
462: 0x10CF [0x2B] Clavauert (ID: 16986762/0x0103328A) [8193*]:
    → "My data tells us that the Poroggo mating grounds lie in an area accessible from an entrance located on the western side of this forest."
463: 0x10D6 [0x23] WAIT_FOR_DIALOG_INTERACTION
464: 0x10D7 [0x52] END_LOAD_SCHEDULER: End scheduler "s242" with entities [LocalPlayer, LocalPlayer], work=282*
465: 0x10E6 [0x45] LOAD_SCHEDULED_TASK: Load scheduler "s241" with entities [LocalPlayer, LocalPlayer], work=[282*, 0*]
466: 0x10F7 [0x2B] Clavauert (ID: 16986762/0x0103328A) [8194*]:
    → "Now let us make haste."
467: 0x10FE [0x23] WAIT_FOR_DIALOG_INTERACTION
468: 0x10FF [0x52] END_LOAD_SCHEDULER: End scheduler "s241" with entities [LocalPlayer, LocalPlayer], work=282*
469: 0x110E [0x1A] CALL_SUBROUTINE(address=0x138F)
470: 0x1111 [0x27] REQ_SET(priority=0x10, entity_id=LocalPlayer, tag_num=0x22)
471: 0x1118 [0x45] LOAD_SCHEDULED_TASK: Load scheduler "s227" with entities [LocalPlayer, LocalPlayer], work=[282*, 0*]
472: 0x1129 [0x1A] CALL_SUBROUTINE(address=0x136E)
473: 0x112C [0x2B] Clavauert (ID: 16986762/0x0103328A) [8195*]:
    → "<Sigh>... Perhaps this encounter with the Poroggo is a blessing in disguise."
474: 0x1133 [0x23] WAIT_FOR_DIALOG_INTERACTION
475: 0x1134 [0x27] REQ_SET(priority=0x10, entity_id=Clavauert (ID: 16986762/0x0103328A), tag_num=0x12)
476: 0x113B [0x2B] Clavauert (ID: 16986762/0x0103328A) [8196*]:
    → "However, if that is the case, why did they kidnap that useless Salwa?"
477: 0x1142 [0x23] WAIT_FOR_DIALOG_INTERACTION
478: 0x1143 [0x2A] GET_REQ_LEVEL(level=16, entity_id=Clavauert (ID: 16986762/0x0103328A))
479: 0x1149 [0x52] END_LOAD_SCHEDULER: End scheduler "s227" with entities [LocalPlayer, LocalPlayer], work=282*
480: 0x1158 [0x2A] GET_REQ_LEVEL(level=16, entity_id=LocalPlayer)
481: 0x115E [0x5C] MUSIC_CONTROL: Set Idle (Day) music to song 0*
482: 0x1162 [0x5C] MUSIC_CONTROL: Set Idle (Night) music to song 0*
483: 0x1166 [0x9A] WAIT_MUSIC_SERVER()
484: 0x1167 [0x45] LOAD_SCHEDULED_TASK: Load scheduler "s228" with entities [LocalPlayer, LocalPlayer], work=[282*, 0*]
485: 0x1178 [0x2B] Clavauert (ID: 16986762/0x0103328A) [8197*]:
    → "Hm!? This whole situation is quite similar to that old fairy tale..."
486: 0x117F [0x23] WAIT_FOR_DIALOG_INTERACTION
487: 0x1180 [0x52] END_LOAD_SCHEDULER: End scheduler "s228" with entities [LocalPlayer, LocalPlayer], work=282*
488: 0x118F [0x4A] LocalPlayer looks at Clavauert (ID: 16986762/0x0103328A)
489: 0x1198 [0x4A] Clavauert (ID: 16986762/0x0103328A) looks at LocalPlayer
490: 0x11A1 [0x45] LOAD_SCHEDULED_TASK: Load scheduler "s229" with entities [LocalPlayer, LocalPlayer], work=[282*, 0*]
491: 0x11B2 [0x6F] WAIT_FRAME_DELAY: Yield until WaitTime reaches zero
492: 0x11B3 [0x76] CHECK_ENTITY_RENDER_FLAGS: Wait until Clavauert (ID: 16986762/0x0103328A) Render.Flags0 and Render.Flags3 conditions are met
493: 0x11B8 [0x2B] Clavauert (ID: 16986762/0x0103328A) [8198*]:
    → "I'm sure you have heard of it: "Poroggo and the Prince.""
494: 0x11BF [0x23] WAIT_FOR_DIALOG_INTERACTION
495: 0x11C0 [0x2B] Clavauert (ID: 16986762/0x0103328A) [8199*]:
    → "One day, a young Tarutaru is in the forest collecting toadstools when the frog princess, Poroggo, falls in love with the poor boy and carries him away to her underwater kingdom."
496: 0x11C7 [0x23] WAIT_FOR_DIALOG_INTERACTION
497: 0x11C8 [0x52] END_LOAD_SCHEDULER: End scheduler "s229" with entities [LocalPlayer, LocalPlayer], work=282*
498: 0x11D7 [0x27] REQ_SET(priority=0x10, entity_id=Clavauert (ID: 16986762/0x0103328A), tag_num=0x02)
499: 0x11DE [0x45] LOAD_SCHEDULED_TASK: Load scheduler "s230" with entities [LocalPlayer, LocalPlayer], work=[282*, 0*]
500: 0x11EF [0x2B] Clavauert (ID: 16986762/0x0103328A) [8200*]:
    → "Though Salwa-Molwa is not exactly what you could call "young," I can't imagine anyone, even an amphibian, taking a fancy in that numbskull."
501: 0x11F6 [0x23] WAIT_FOR_DIALOG_INTERACTION
502: 0x11F7 [0x2A] GET_REQ_LEVEL(level=16, entity_id=Clavauert (ID: 16986762/0x0103328A))
503: 0x11FD [0x52] END_LOAD_SCHEDULER: End scheduler "s230" with entities [LocalPlayer, LocalPlayer], work=282*
504: 0x120C [0x7B] Clavauert (ID: 16986762/0x0103328A) stops talking
505: 0x1211 [0x1C] WAIT(30* ticks)
506: 0x1214 [0x45] LOAD_SCHEDULED_TASK: Load scheduler "s231" with entities [LocalPlayer, LocalPlayer], work=[282*, 0*]
507: 0x1225 [0x2B] Clavauert (ID: 16986762/0x0103328A) [8201*]:
    → "Oh, do not misunderstand me, <Player>."
508: 0x122C [0x23] WAIT_FOR_DIALOG_INTERACTION
509: 0x122D [0x52] END_LOAD_SCHEDULER: End scheduler "s231" with entities [LocalPlayer, LocalPlayer], work=282*
510: 0x123C [0x45] LOAD_SCHEDULED_TASK: Load scheduler "s232" with entities [LocalPlayer, LocalPlayer], work=[282*, 0*]
511: 0x124D [0x2B] Clavauert (ID: 16986762/0x0103328A) [8202*]:
    → "I'm not saying that this fairy tale has any basis in truth."
512: 0x1254 [0x23] WAIT_FOR_DIALOG_INTERACTION
513: 0x1255 [0x2B] Clavauert (ID: 16986762/0x0103328A) [8203*]:
    → "The act of mixing fact with fiction has no place in the world of science."
514: 0x125C [0x23] WAIT_FOR_DIALOG_INTERACTION
515: 0x125D [0x52] END_LOAD_SCHEDULER: End scheduler "s232" with entities [LocalPlayer, LocalPlayer], work=282*
516: 0x126C [0x45] LOAD_SCHEDULED_TASK: Load scheduler "s233" with entities [LocalPlayer, LocalPlayer], work=[282*, 0*]
517: 0x127D [0x29] REQ_SET_WAIT(priority=0x10, entity_id=Clavauert (ID: 16986762/0x0103328A), tag_num=0x10)
518: 0x1284 [0x79] Clavauert (ID: 16986762/0x0103328A) looks at Unknown NPC (ID: 2147647550/0x8002803E) (Direct axis set)
519: 0x128E [0x52] END_LOAD_SCHEDULER: End scheduler "s233" with entities [LocalPlayer, LocalPlayer], work=282*
520: 0x129D [0x45] LOAD_SCHEDULED_TASK: Load scheduler "s234" with entities [LocalPlayer, LocalPlayer], work=[282*, 0*]
521: 0x12AE [0x2B] Clavauert (ID: 16986762/0x0103328A) [8204*]:
    → "Truth can only be defined as what we can see with our own eyes, grasp with our own hands."
522: 0x12B5 [0x23] WAIT_FOR_DIALOG_INTERACTION
523: 0x12B6 [0x2B] Clavauert (ID: 16986762/0x0103328A) [8205*]:
    → "There must be a logical explanation for what happened to Salwa."
524: 0x12BD [0x23] WAIT_FOR_DIALOG_INTERACTION
525: 0x12BE [0x7B] Clavauert (ID: 16986762/0x0103328A) stops talking
526: 0x12C3 [0x52] END_LOAD_SCHEDULER: End scheduler "s234" with entities [LocalPlayer, LocalPlayer], work=282*
527: 0x12D2 [0x27] REQ_SET(priority=0x10, entity_id=Clavauert (ID: 16986762/0x0103328A), tag_num=0x03)
528: 0x12D9 [0x1C] WAIT(40* ticks)
529: 0x12DC [0x45] LOAD_SCHEDULED_TASK: Load scheduler "s235" with entities [LocalPlayer, LocalPlayer], work=[282*, 0*]
530: 0x12ED [0x2B] Clavauert (ID: 16986762/0x0103328A) [8206*]:
    → "It is just that we have yet to determine it."
531: 0x12F4 [0x23] WAIT_FOR_DIALOG_INTERACTION
532: 0x12F5 [0x2A] GET_REQ_LEVEL(level=16, entity_id=Clavauert (ID: 16986762/0x0103328A))
533: 0x12FB [0x52] END_LOAD_SCHEDULER: End scheduler "s235" with entities [LocalPlayer, LocalPlayer], work=282*
534: 0x130A [0x6E] Clavauert (ID: 16986762/0x0103328A) uses emote 0*
535: 0x1311 [0x99] Wait for Clavauert (ID: 16986762/0x0103328A) animation to complete
536: 0x1316 [0x1C] WAIT(10* ticks)
537: 0x1319 [0x45] LOAD_SCHEDULED_TASK: Load scheduler "s236" with entities [LocalPlayer, LocalPlayer], work=[282*, 0*]
538: 0x132A [0x2B] Clavauert (ID: 16986762/0x0103328A) [8207*]:
    → "Now, off to Mamook!"
539: 0x1331 [0x1C] WAIT(80* ticks)
540: 0x1334 [0x52] END_LOAD_SCHEDULER: End scheduler "s236" with entities [LocalPlayer, LocalPlayer], work=282*
541: 0x1343 [0x1A] CALL_SUBROUTINE(address=0x13D1)
542: 0x1346 [0x1C] WAIT(30* ticks)
543: 0x1349 [0x5C] MUSIC_CONTROL: Set Idle (Day) music to song 149*
544: 0x134D [0x5C] MUSIC_CONTROL: Set Idle (Night) music to song 149*
545: 0x1351 [0x9A] WAIT_MUSIC_SERVER()
546: 0x1352 [0xAB] EventEntity->UnknownFlag = 0 // Disable unknown flag
547: 0x1354 [0x46] CAMERA_CONTROL: Restore default settings
548: 0x1356 [0x45] LOAD_SCHEDULED_TASK: Load scheduler "fdi2" with entities [LocalPlayer, LocalPlayer], work=[200*, 0*]
549: 0x1367 [0x03] Work_Zone[1] = Work_Zone[2]
550: 0x136C [0x21] END_EVENT
551: 0x136D [0x00] END_REQSTACK()

SUBROUTINE_136E:
552: 0x136E [0x45] LOAD_SCHEDULED_TASK: Load scheduler "fdi0" with entities [LocalPlayer, LocalPlayer], work=[200*, 0*]
553: 0x137F [0x55] WAIT_LOAD_SCHEDULER: Wait for scheduler "fdi0" with entities [LocalPlayer, LocalPlayer], work=200*
554: 0x138E [0x1B] RETURN

SUBROUTINE_138F:
555: 0x138F [0x45] LOAD_SCHEDULED_TASK: Load scheduler "fdo0" with entities [LocalPlayer, LocalPlayer], work=[200*, 0*]
556: 0x13A0 [0x55] WAIT_LOAD_SCHEDULER: Wait for scheduler "fdo0" with entities [LocalPlayer, LocalPlayer], work=200*
557: 0x13AF [0x1B] RETURN

SUBROUTINE_13B0:
558: 0x13B0 [0x45] LOAD_SCHEDULED_TASK: Load scheduler "fdi1" with entities [LocalPlayer, LocalPlayer], work=[200*, 0*]
559: 0x13C1 [0x55] WAIT_LOAD_SCHEDULER: Wait for scheduler "fdi1" with entities [LocalPlayer, LocalPlayer], work=200*
560: 0x13D0 [0x1B] RETURN

SUBROUTINE_13D1:
561: 0x13D1 [0x45] LOAD_SCHEDULED_TASK: Load scheduler "fdo1" with entities [LocalPlayer, LocalPlayer], work=[200*, 0*]
562: 0x13E2 [0x55] WAIT_LOAD_SCHEDULER: Wait for scheduler "fdo1" with entities [LocalPlayer, LocalPlayer], work=200*
563: 0x13F1 [0x1B] RETURN
```

#### Data or dead code:

```
# Dead code (unreachable instructions):
     0x13F2 [0x45] LOAD_SCHEDULED_TASK: Load scheduler "whi1" with entities [LocalPlayer, LocalPlayer], work=[201*, 0*]
     0x1403 [0x55] WAIT_LOAD_SCHEDULER: Wait for scheduler "whi1" with entities [LocalPlayer, LocalPlayer], work=201*
     0x1412 [0x1B] RETURN
     0x1413 [0x45] LOAD_SCHEDULED_TASK: Load scheduler "who1" with entities [LocalPlayer, LocalPlayer], work=[201*, 0*]
     0x1424 [0x55] WAIT_LOAD_SCHEDULER: Wait for scheduler "who1" with entities [LocalPlayer, LocalPlayer], work=201*
     0x1433 [0x1B] RETURN
     0x1434 [0x45] LOAD_SCHEDULED_TASK: Load scheduler "who2" with entities [LocalPlayer, LocalPlayer], work=[201*, 0*]
     0x1445 [0x55] WAIT_LOAD_SCHEDULER: Wait for scheduler "who2" with entities [LocalPlayer, LocalPlayer], work=201*
     0x1454 [0x1B] RETURN
     0x1455 [0x45] LOAD_SCHEDULED_TASK: Load scheduler "who3" with entities [LocalPlayer, LocalPlayer], work=[201*, 0*]
     0x1466 [0x55] WAIT_LOAD_SCHEDULER: Wait for scheduler "who3" with entities [LocalPlayer, LocalPlayer], work=201*
     0x1475 [0x1B] RETURN
     0x1476 [0x62] LOAD_EVENT_SCHEDULER: Load scheduler "main" with entities [LocalPlayer, LocalPlayer], work=[1*, 0*]
     0x1487 [0x1C] WAIT(45* ticks)
     0x148A [0x45] LOAD_SCHEDULED_TASK: Load scheduler "fdo1" with entities [LocalPlayer, LocalPlayer], work=[200*, 0*]
     0x149B [0x55] WAIT_LOAD_SCHEDULER: Wait for scheduler "fdo1" with entities [LocalPlayer, LocalPlayer], work=200*
     0x14AA [0x1B] RETURN
     0x14AB [0x45] LOAD_SCHEDULED_TASK: Load scheduler "fdi1" with entities [LocalPlayer, LocalPlayer], work=[200*, 0*]
     0x14BC [0x62] LOAD_EVENT_SCHEDULER: Load scheduler "main" with entities [LocalPlayer, LocalPlayer], work=[2*, 0*]
     0x14CD [0x1C] WAIT(30* ticks)
     0x14D0 [0x55] WAIT_LOAD_SCHEDULER: Wait for scheduler "fdi1" with entities [LocalPlayer, LocalPlayer], work=200*
     0x14DF [0x1B] RETURN
     0x14E0 [0x45] LOAD_SCHEDULED_TASK: Load scheduler "blon" with entities [LocalPlayer, LocalPlayer], work=[200*, 0*]
     0x14F1 [0x45] LOAD_SCHEDULED_TASK: Load scheduler "blon" with entities [LocalPlayer, LocalPlayer], work=[201*, 0*]
     0x1502 [0x1B] RETURN
     0x1503 [0x45] LOAD_SCHEDULED_TASK: Load scheduler "whi0" with entities [LocalPlayer, LocalPlayer], work=[201*, 0*]
     0x1514 [0x55] WAIT_LOAD_SCHEDULER: Wait for scheduler "whi0" with entities [LocalPlayer, LocalPlayer], work=201*
     0x1523 [0x1B] RETURN
     0x1524 [0x45] LOAD_SCHEDULED_TASK: Load scheduler "who0" with entities [LocalPlayer, LocalPlayer], work=[201*, 0*]
     0x1535 [0x55] WAIT_LOAD_SCHEDULER: Wait for scheduler "who0" with entities [LocalPlayer, LocalPlayer], work=201*
     0x1544 [0x1B] RETURN
     0x1545 [0x45] LOAD_SCHEDULED_TASK: Load scheduler "efon" with entities [LocalPlayer, LocalPlayer], work=[215*, 0*]
     0x1556 [0x55] WAIT_LOAD_SCHEDULER: Wait for scheduler "efon" with entities [LocalPlayer, LocalPlayer], work=215*
     0x1565 [0x1B] RETURN
     0x1566 [0x45] LOAD_SCHEDULED_TASK: Load scheduler "fdis" with entities [LocalPlayer, LocalPlayer], work=[200*, 0*]
     0x1577 [0x1B] RETURN
     0x1578 [0x45] LOAD_SCHEDULED_TASK: Load scheduler "fdos" with entities [LocalPlayer, LocalPlayer], work=[200*, 0*]
     0x1589 [0x55] WAIT_LOAD_SCHEDULER: Wait for scheduler "fdos" with entities [LocalPlayer, LocalPlayer], work=200*
     0x1598 [0x1B] RETURN
     0x1599 [0x45] LOAD_SCHEDULED_TASK: Load scheduler "fdif" with entities [LocalPlayer, LocalPlayer], work=[200*, 0*]
     0x15AA [0x1B] RETURN
     0x15AB [0x45] LOAD_SCHEDULED_TASK: Load scheduler "fdof" with entities [LocalPlayer, LocalPlayer], work=[200*, 0*]
     0x15BC [0x55] WAIT_LOAD_SCHEDULER: Wait for scheduler "fdof" with entities [LocalPlayer, LocalPlayer], work=200*
     0x15CB [0x1B] RETURN
     0x15CC [0x45] LOAD_SCHEDULED_TASK: Load scheduler "fdip" with entities [LocalPlayer, LocalPlayer], work=[200*, 0*]
     0x15DD [0x1B] RETURN
     0x15DE [0x45] LOAD_SCHEDULED_TASK: Load scheduler "fdop" with entities [LocalPlayer, LocalPlayer], work=[200*, 0*]
     0x15EF [0x55] WAIT_LOAD_SCHEDULER: Wait for scheduler "fdop" with entities [LocalPlayer, LocalPlayer], work=200*
     0x15FE [0x1B] RETURN
```
