# 16986699 - Joaquin

## Common Data

| Field            | Value                     |
|------------------|---------------------------|
| Zone             | Wajaom Woodlands (ID: 51) |
| Block Size       | 200 bytes                 |
| Total Events     | 6                         |
| References Count | 18                        |

## List of Events

| Event ID                 | Entrypoint   |   Size |   Instructions |
|--------------------------|--------------|--------|----------------|
| [65535](#event-65535)    | 0x0000       |      1 |              1 |
| [511](#event-511)        | 0x0001       |      1 |              1 |
| [65535.1](#event-655351) | 0x0002       |     30 |              8 |
| [65535.2](#event-655352) | 0x0020       |     15 |              5 |
| [65535.3](#event-655353) | 0x002F       |     20 |              6 |
| [65535.4](#event-655354) | 0x0043       |     20 |              6 |

## DAT References (imed_data)

|   Index | Hex Value   |   Dec Value |
|---------|-------------|-------------|
|       0 | 0xFFFEC3F8  |  4294886392 |
|       1 | 0x14032     |       81970 |
|       2 | 0x07CF      |        1999 |
|       3 | 0x0DEB      |        3563 |
|       4 | 0x002B      |          43 |
|       5 | 0xFFFEDA21  |  4294892065 |
|       6 | 0x15457     |       87127 |
|       7 | 0x0005      |           5 |
|       8 | 0x0DDE      |        3550 |
|       9 | 0x000D      |          13 |
|      10 | 0xFFFEECFE  |  4294896894 |
|      11 | 0xFFFEFE60  |  4294901344 |
|      12 | 0xFFFFE890  |  4294961296 |
|      13 | 0xFFFEF58C  |  4294899084 |
|      14 | 0xFFFF0681  |  4294903425 |
|      15 | 0x0028      |          40 |
|      16 | 0xFFFEC870  |  4294887536 |
|      17 | 0x13E71     |       81521 |

## Events

### Event 65535

#### Metadata

| Field        | Value   |
|--------------|---------|
| Entrypoint   | 0x0000  |
| Data Size    | 1 bytes |
| Instructions | 1       |

```
      00 01 02 03 04 05 06 07  08 09 0A 0B 0C 0D 0E 0F
      -- -- -- -- -- -- -- --  -- -- -- -- -- -- -- --
0000: 00                                                .               
```

#### Opcodes

```
  0: 0x0000 [0x00] END_REQSTACK()
```

### Event 511

#### Metadata

| Field        | Value   |
|--------------|---------|
| Entrypoint   | 0x0001  |
| Data Size    | 1 bytes |
| Instructions | 1       |

```
      00 01 02 03 04 05 06 07  08 09 0A 0B 0C 0D 0E 0F
      -- -- -- -- -- -- -- --  -- -- -- -- -- -- -- --
0000:    00                                              .              
```

#### Opcodes

```
  0: 0x0001 [0x00] END_REQSTACK()
```

### Event 65535.1

#### Metadata

| Field        | Value    |
|--------------|----------|
| Entrypoint   | 0x0002   |
| Data Size    | 30 bytes |
| Instructions | 8        |

```
      00 01 02 03 04 05 06 07  08 09 0A 0B 0C 0D 0E 0F
      -- -- -- -- -- -- -- --  -- -- -- -- -- -- -- --
0000:       37 00 80 01 80 02  80 03 80 32 04 80 1F 00    7........2....
0010: 05 80 06 80 02 80 1F 01  6F 1C 07 80 39 08 80 00  ........o...9...
```

#### Opcodes

```
  0: 0x0002 [0x37] UPDATE_EVENT_POSITION_AND_DIR: x=-80.904*, z=81.970*, y=1.999*, direction=313.1°*
  1: 0x000B [0x32] ExtData[1]->MainSpeed = 43* * 0.1
  2: 0x000E [0x1F] MOVE_ENTITY: EventEntity moves to X=-75.231*, Z=87.127*, Y=1.999*
  3: 0x0016 [0x1F] MOVE_ENTITY: Update entity position (mode=1)
  4: 0x0018 [0x6F] WAIT_FRAME_DELAY: Yield until WaitTime reaches zero
  5: 0x0019 [0x1C] WAIT(5* ticks)
  6: 0x001C [0x39] SET_ENTITY_DIRECTION(direction=19.5°*)
  7: 0x001F [0x00] END_REQSTACK()
```

### Event 65535.2

#### Metadata

| Field        | Value    |
|--------------|----------|
| Entrypoint   | 0x0020   |
| Data Size    | 15 bytes |
| Instructions | 5        |

```
      00 01 02 03 04 05 06 07  08 09 0A 0B 0C 0D 0E 0F
      -- -- -- -- -- -- -- --  -- -- -- -- -- -- -- --
0020: 32 09 80 1F 00 0A 80 0B  80 0C 80 1F 01 6F 00     2............o. 
```

#### Opcodes

```
  0: 0x0020 [0x32] ExtData[1]->MainSpeed = 13* * 0.1
  1: 0x0023 [0x1F] MOVE_ENTITY: EventEntity moves to X=-70.402*, Z=-65.952*, Y=-6.000*
  2: 0x002B [0x1F] MOVE_ENTITY: Update entity position (mode=1)
  3: 0x002D [0x6F] WAIT_FRAME_DELAY: Yield until WaitTime reaches zero
  4: 0x002E [0x00] END_REQSTACK()
```

### Event 65535.3

#### Metadata

| Field        | Value    |
|--------------|----------|
| Entrypoint   | 0x002F   |
| Data Size    | 20 bytes |
| Instructions | 6        |

```
      00 01 02 03 04 05 06 07  08 09 0A 0B 0C 0D 0E 0F
      -- -- -- -- -- -- -- --  -- -- -- -- -- -- -- --
0020:                                               32                 2
0030: 09 80 1F 00 0D 80 0E 80  0C 80 1F 01 6F 1E 30 32  ............o.02
0040: 03 01 00                                          ...             
```

#### Opcodes

```
  0: 0x002F [0x32] ExtData[1]->MainSpeed = 13* * 0.1
  1: 0x0032 [0x1F] MOVE_ENTITY: EventEntity moves to X=-68.212*, Z=-63.871*, Y=-6.000*
  2: 0x003A [0x1F] MOVE_ENTITY: Update entity position (mode=1)
  3: 0x003C [0x6F] WAIT_FRAME_DELAY: Yield until WaitTime reaches zero
  4: 0x003D [0x1E] EventEntity looks at Zazarg (ID: 16986672/0x01033230) and starts talking
  5: 0x0042 [0x00] END_REQSTACK()
```

### Event 65535.4

#### Metadata

| Field        | Value    |
|--------------|----------|
| Entrypoint   | 0x0043   |
| Data Size    | 20 bytes |
| Instructions | 6        |

```
      00 01 02 03 04 05 06 07  08 09 0A 0B 0C 0D 0E 0F
      -- -- -- -- -- -- -- --  -- -- -- -- -- -- -- --
0040:          32 0F 80 1F 00  10 80 11 80 0C 80 1F 01     2............
0050: 6F 1E 30 32 03 01 00                              o.02...         
```

#### Opcodes

```
  0: 0x0043 [0x32] ExtData[1]->MainSpeed = 40* * 0.1
  1: 0x0046 [0x1F] MOVE_ENTITY: EventEntity moves to X=-79.760*, Z=81.521*, Y=-6.000*
  2: 0x004E [0x1F] MOVE_ENTITY: Update entity position (mode=1)
  3: 0x0050 [0x6F] WAIT_FRAME_DELAY: Yield until WaitTime reaches zero
  4: 0x0051 [0x1E] EventEntity looks at Zazarg (ID: 16986672/0x01033230) and starts talking
  5: 0x0056 [0x00] END_REQSTACK()
```
