# 16986659 - Yazquhl

## Common Data

| Field            | Value                     |
|------------------|---------------------------|
| Zone             | Wajaom Woodlands (ID: 51) |
| Block Size       | 128 bytes                 |
| Total Events     | 4                         |
| References Count | 12                        |

## List of Events

| Event ID                 | Entrypoint   |   Size |   Instructions |
|--------------------------|--------------|--------|----------------|
| [65535](#event-65535)    | 0x0000       |      1 |              1 |
| [508](#event-508)        | 0x0001       |      1 |              1 |
| [65535.1](#event-655351) | 0x0002       |     15 |              3 |
| [65535.2](#event-655352) | 0x0011       |     28 |              6 |

## DAT References (imed_data)

|   Index | Hex Value   |   Dec Value |
|---------|-------------|-------------|
|       0 | 0xFFFCBE86  |  4294753926 |
|       1 | 0x14EC2     |       85698 |
|       2 | 0xFFFFD7A3  |  4294956963 |
|       3 | 0x088F      |        2191 |
|       4 | 0xFFFCA302  |  4294746882 |
|       5 | 0x1492F     |       84271 |
|       6 | 0xFFFFD2A5  |  4294955685 |
|       7 | 0x0A62      |        2658 |
|       8 | 0x000D      |          13 |
|       9 | 0xFFFCBBE0  |  4294753248 |
|      10 | 0x14E4C     |       85580 |
|      11 | 0xFFFFD7B9  |  4294956985 |

## Events

### Event 65535

#### Metadata

| Field        | Value   |
|--------------|---------|
| Entrypoint   | 0x0000  |
| Data Size    | 1 bytes |
| Instructions | 1       |

```
      00 01 02 03 04 05 06 07  08 09 0A 0B 0C 0D 0E 0F
      -- -- -- -- -- -- -- --  -- -- -- -- -- -- -- --
0000: 00                                                .               
```

#### Opcodes

```
  0: 0x0000 [0x00] END_REQSTACK()
```

### Event 508

#### Metadata

| Field        | Value   |
|--------------|---------|
| Entrypoint   | 0x0001  |
| Data Size    | 1 bytes |
| Instructions | 1       |

```
      00 01 02 03 04 05 06 07  08 09 0A 0B 0C 0D 0E 0F
      -- -- -- -- -- -- -- --  -- -- -- -- -- -- -- --
0000:    00                                              .              
```

#### Opcodes

```
  0: 0x0001 [0x00] END_REQSTACK()
```

### Event 65535.1

#### Metadata

| Field        | Value    |
|--------------|----------|
| Entrypoint   | 0x0002   |
| Data Size    | 15 bytes |
| Instructions | 3        |

```
      00 01 02 03 04 05 06 07  08 09 0A 0B 0C 0D 0E 0F
      -- -- -- -- -- -- -- --  -- -- -- -- -- -- -- --
0000:       37 00 80 01 80 02  80 03 80 1E 21 32 03 01    7.........!2..
0010: 00                                                .               
```

#### Opcodes

```
  0: 0x0002 [0x37] UPDATE_EVENT_POSITION_AND_DIR: x=-213.370*, z=85.698*, y=-10.333*, direction=192.6°*
  1: 0x000B [0x1E] EventEntity looks at Qultada (ID: 16986657/0x01033221) and starts talking
  2: 0x0010 [0x00] END_REQSTACK()
```

### Event 65535.2

#### Metadata

| Field        | Value    |
|--------------|----------|
| Entrypoint   | 0x0011   |
| Data Size    | 28 bytes |
| Instructions | 6        |

```
      00 01 02 03 04 05 06 07  08 09 0A 0B 0C 0D 0E 0F
      -- -- -- -- -- -- -- --  -- -- -- -- -- -- -- --
0010:    37 04 80 05 80 06 80  07 80 32 08 80 1F 00 09   7........2.....
0020: 80 0A 80 0B 80 1F 01 1E  21 32 03 01 00           ........!2...   
```

#### Opcodes

```
  0: 0x0011 [0x37] UPDATE_EVENT_POSITION_AND_DIR: x=-220.414*, z=84.271*, y=-11.611*, direction=233.6°*
  1: 0x001A [0x32] ExtData[1]->MainSpeed = 13* * 0.1
  2: 0x001D [0x1F] MOVE_ENTITY: EventEntity moves to X=-214.048*, Z=85.580*, Y=-10.311*
  3: 0x0025 [0x1F] MOVE_ENTITY: Update entity position (mode=1)
  4: 0x0027 [0x1E] EventEntity looks at Qultada (ID: 16986657/0x01033221) and starts talking
  5: 0x002C [0x00] END_REQSTACK()
```
