# 16986707 - Hijamahl

## Common Data

| Field            | Value                     |
|------------------|---------------------------|
| Zone             | Wajaom Woodlands (ID: 51) |
| Block Size       | 120 bytes                 |
| Total Events     | 4                         |
| References Count | 10                        |

## List of Events

| Event ID                 | Entrypoint   |   Size |   Instructions |
|--------------------------|--------------|--------|----------------|
| [65535](#event-65535)    | 0x0000       |      1 |              1 |
| [511](#event-511)        | 0x0001       |      1 |              1 |
| [65535.1](#event-655351) | 0x0002       |     20 |              6 |
| [65535.2](#event-655352) | 0x0016       |     24 |              6 |

## DAT References (imed_data)

|   Index | Hex Value   |   Dec Value |
|---------|-------------|-------------|
|       0 | 0x0028      |          40 |
|       1 | 0xFFFEAF90  |  4294881168 |
|       2 | 0xFFFFF0A3  |  4294963363 |
|       3 | 0x0000      |           0 |
|       4 | 0x1F62      |        8034 |
|       5 | 0xFFFEAA7D  |  4294879869 |
|       6 | 0x07CF      |        1999 |
|       7 | 0x0FA0      |        4000 |
|       8 | 0x2C89      |       11401 |
|       9 | 0xFFFE8D45  |  4294872389 |

## Events

### Event 65535

#### Metadata

| Field        | Value   |
|--------------|---------|
| Entrypoint   | 0x0000  |
| Data Size    | 1 bytes |
| Instructions | 1       |

```
      00 01 02 03 04 05 06 07  08 09 0A 0B 0C 0D 0E 0F
      -- -- -- -- -- -- -- --  -- -- -- -- -- -- -- --
0000: 00                                                .               
```

#### Opcodes

```
  0: 0x0000 [0x00] END_REQSTACK()
```

### Event 511

#### Metadata

| Field        | Value   |
|--------------|---------|
| Entrypoint   | 0x0001  |
| Data Size    | 1 bytes |
| Instructions | 1       |

```
      00 01 02 03 04 05 06 07  08 09 0A 0B 0C 0D 0E 0F
      -- -- -- -- -- -- -- --  -- -- -- -- -- -- -- --
0000:    00                                              .              
```

#### Opcodes

```
  0: 0x0001 [0x00] END_REQSTACK()
```

### Event 65535.1

#### Metadata

| Field        | Value    |
|--------------|----------|
| Entrypoint   | 0x0002   |
| Data Size    | 20 bytes |
| Instructions | 6        |

```
      00 01 02 03 04 05 06 07  08 09 0A 0B 0C 0D 0E 0F
      -- -- -- -- -- -- -- --  -- -- -- -- -- -- -- --
0000:       32 00 80 1F 00 01  80 02 80 03 80 1F 01 6F    2............o
0010: 1E 30 32 03 01 00                                 .02...          
```

#### Opcodes

```
  0: 0x0002 [0x32] ExtData[1]->MainSpeed = 40* * 0.1
  1: 0x0005 [0x1F] MOVE_ENTITY: EventEntity moves to X=-86.128*, Z=-3.933*, Y=0.000*
  2: 0x000D [0x1F] MOVE_ENTITY: Update entity position (mode=1)
  3: 0x000F [0x6F] WAIT_FRAME_DELAY: Yield until WaitTime reaches zero
  4: 0x0010 [0x1E] EventEntity looks at Zazarg (ID: 16986672/0x01033230) and starts talking
  5: 0x0015 [0x00] END_REQSTACK()
```

### Event 65535.2

#### Metadata

| Field        | Value    |
|--------------|----------|
| Entrypoint   | 0x0016   |
| Data Size    | 24 bytes |
| Instructions | 6        |

```
      00 01 02 03 04 05 06 07  08 09 0A 0B 0C 0D 0E 0F
      -- -- -- -- -- -- -- --  -- -- -- -- -- -- -- --
0010:                   37 04  80 05 80 06 80 07 80 32        7........2
0020: 00 80 1F 00 08 80 09 80  06 80 1F 01 6F 00        ............o.  
```

#### Opcodes

```
  0: 0x0016 [0x37] UPDATE_EVENT_POSITION_AND_DIR: x=8.034*, z=-87.427*, y=1.999*, direction=351.6°*
  1: 0x001F [0x32] ExtData[1]->MainSpeed = 40* * 0.1
  2: 0x0022 [0x1F] MOVE_ENTITY: EventEntity moves to X=11.401*, Z=-94.907*, Y=1.999*
  3: 0x002A [0x1F] MOVE_ENTITY: Update entity position (mode=1)
  4: 0x002C [0x6F] WAIT_FRAME_DELAY: Yield until WaitTime reaches zero
  5: 0x002D [0x00] END_REQSTACK()
```
