# 16986678 - Zalwan

## Common Data

| Field            | Value                     |
|------------------|---------------------------|
| Zone             | Wajaom Woodlands (ID: 51) |
| Block Size       | 136 bytes                 |
| Total Events     | 5                         |
| References Count | 12                        |

## List of Events

| Event ID                 | Entrypoint   |   Size |   Instructions |
|--------------------------|--------------|--------|----------------|
| [65535](#event-65535)    | 0x0000       |      1 |              1 |
| [512](#event-512)        | 0x0001       |      1 |              1 |
| [65535.1](#event-655351) | 0x0002       |     12 |              3 |
| [65535.2](#event-655352) | 0x000E       |     17 |              4 |
| [65535.3](#event-655353) | 0x001F       |     20 |              6 |

## DAT References (imed_data)

|   Index | Hex Value   |   Dec Value |
|---------|-------------|-------------|
|       0 | 0xFFFAF423  |  4294636579 |
|       1 | 0x9E8FF     |      649471 |
|       2 | 0xFFFF4CD2  |  4294921426 |
|       3 | 0x047E      |        1150 |
|       4 | 0xFFFAD13C  |  4294627644 |
|       5 | 0x9C8C9     |      641225 |
|       6 | 0xFFFF84F5  |  4294935797 |
|       7 | 0x060E      |        1550 |
|       8 | 0x0028      |          40 |
|       9 | 0xFFFAD981  |  4294629761 |
|      10 | 0x9B42D     |      635949 |
|      11 | 0xFFFF84F4  |  4294935796 |

## Events

### Event 65535

#### Metadata

| Field        | Value   |
|--------------|---------|
| Entrypoint   | 0x0000  |
| Data Size    | 1 bytes |
| Instructions | 1       |

```
      00 01 02 03 04 05 06 07  08 09 0A 0B 0C 0D 0E 0F
      -- -- -- -- -- -- -- --  -- -- -- -- -- -- -- --
0000: 00                                                .               
```

#### Opcodes

```
  0: 0x0000 [0x00] END_REQSTACK()
```

### Event 512

#### Metadata

| Field        | Value   |
|--------------|---------|
| Entrypoint   | 0x0001  |
| Data Size    | 1 bytes |
| Instructions | 1       |

```
      00 01 02 03 04 05 06 07  08 09 0A 0B 0C 0D 0E 0F
      -- -- -- -- -- -- -- --  -- -- -- -- -- -- -- --
0000:    00                                              .              
```

#### Opcodes

```
  0: 0x0001 [0x00] END_REQSTACK()
```

### Event 65535.1

#### Metadata

| Field        | Value    |
|--------------|----------|
| Entrypoint   | 0x0002   |
| Data Size    | 12 bytes |
| Instructions | 3        |

```
      00 01 02 03 04 05 06 07  08 09 0A 0B 0C 0D 0E 0F
      -- -- -- -- -- -- -- --  -- -- -- -- -- -- -- --
0000:       33 01 37 00 80 01  80 02 80 03 80 00          3.7.........  
```

#### Opcodes

```
  0: 0x0002 [0x33] EventEntity->Render.Flags0 |= 0x200000 // Bit 21 (flag=0x01)
  1: 0x0004 [0x37] UPDATE_EVENT_POSITION_AND_DIR: x=-330.717*, z=649.471*, y=-45.870*, direction=101.1°*
  2: 0x000D [0x00] END_REQSTACK()
```

### Event 65535.2

#### Metadata

| Field        | Value    |
|--------------|----------|
| Entrypoint   | 0x000E   |
| Data Size    | 17 bytes |
| Instructions | 4        |

```
      00 01 02 03 04 05 06 07  08 09 0A 0B 0C 0D 0E 0F
      -- -- -- -- -- -- -- --  -- -- -- -- -- -- -- --
0000:                                            33 00                3.
0010: 37 04 80 05 80 06 80 07  80 7B F8 FF FF 7F 00     7........{..... 
```

#### Opcodes

```
  0: 0x000E [0x33] EventEntity->Render.Flags0 &= ~ 0x200000 // Bit 21 (flag=0x00)
  1: 0x0010 [0x37] UPDATE_EVENT_POSITION_AND_DIR: x=-339.652*, z=641.225*, y=-31.499*, direction=136.2°*
  2: 0x0019 [0x7B] EventEntity stops talking
  3: 0x001E [0x00] END_REQSTACK()
```

### Event 65535.3

#### Metadata

| Field        | Value    |
|--------------|----------|
| Entrypoint   | 0x001F   |
| Data Size    | 20 bytes |
| Instructions | 6        |

```
      00 01 02 03 04 05 06 07  08 09 0A 0B 0C 0D 0E 0F
      -- -- -- -- -- -- -- --  -- -- -- -- -- -- -- --
0010:                                               32                 2
0020: 08 80 1F 00 09 80 0A 80  0B 80 1F 01 6F 1E 2E 32  ............o..2
0030: 03 01 00                                          ...             
```

#### Opcodes

```
  0: 0x001F [0x32] ExtData[1]->MainSpeed = 40* * 0.1
  1: 0x0022 [0x1F] MOVE_ENTITY: EventEntity moves to X=-337.535*, Z=635.949*, Y=-31.500*
  2: 0x002A [0x1F] MOVE_ENTITY: Update entity position (mode=1)
  3: 0x002C [0x6F] WAIT_FRAME_DELAY: Yield until WaitTime reaches zero
  4: 0x002D [0x1E] EventEntity looks at Najelith (ID: 16986670/0x0103322E) and starts talking
  5: 0x0032 [0x00] END_REQSTACK()
```
