# 16986660 - Gowam

## Common Data

| Field            | Value                     |
|------------------|---------------------------|
| Zone             | Wajaom Woodlands (ID: 51) |
| Block Size       | 92 bytes                  |
| Total Events     | 3                         |
| References Count | 8                         |

## List of Events

| Event ID                 | Entrypoint   |   Size |   Instructions |
|--------------------------|--------------|--------|----------------|
| [65535](#event-65535)    | 0x0000       |      1 |              1 |
| [508](#event-508)        | 0x0001       |      1 |              1 |
| [65535.1](#event-655351) | 0x0002       |     28 |              6 |

## DAT References (imed_data)

|   Index | Hex Value   |   Dec Value |
|---------|-------------|-------------|
|       0 | 0xFFFCA4D6  |  4294747350 |
|       1 | 0x140A8     |       82088 |
|       2 | 0xFFFFD2EE  |  4294955758 |
|       3 | 0x0A62      |        2658 |
|       4 | 0x000D      |          13 |
|       5 | 0xFFFCC6F9  |  4294756089 |
|       6 | 0x14809     |       83977 |
|       7 | 0xFFFFD9DD  |  4294957533 |

## Events

### Event 65535

#### Metadata

| Field        | Value   |
|--------------|---------|
| Entrypoint   | 0x0000  |
| Data Size    | 1 bytes |
| Instructions | 1       |

```
      00 01 02 03 04 05 06 07  08 09 0A 0B 0C 0D 0E 0F
      -- -- -- -- -- -- -- --  -- -- -- -- -- -- -- --
0000: 00                                                .               
```

#### Opcodes

```
  0: 0x0000 [0x00] END_REQSTACK()
```

### Event 508

#### Metadata

| Field        | Value   |
|--------------|---------|
| Entrypoint   | 0x0001  |
| Data Size    | 1 bytes |
| Instructions | 1       |

```
      00 01 02 03 04 05 06 07  08 09 0A 0B 0C 0D 0E 0F
      -- -- -- -- -- -- -- --  -- -- -- -- -- -- -- --
0000:    00                                              .              
```

#### Opcodes

```
  0: 0x0001 [0x00] END_REQSTACK()
```

### Event 65535.1

#### Metadata

| Field        | Value    |
|--------------|----------|
| Entrypoint   | 0x0002   |
| Data Size    | 28 bytes |
| Instructions | 6        |

```
      00 01 02 03 04 05 06 07  08 09 0A 0B 0C 0D 0E 0F
      -- -- -- -- -- -- -- --  -- -- -- -- -- -- -- --
0000:       37 00 80 01 80 02  80 03 80 32 04 80 1F 00    7........2....
0010: 05 80 06 80 07 80 1F 01  1E 21 32 03 01 00        .........!2...  
```

#### Opcodes

```
  0: 0x0002 [0x37] UPDATE_EVENT_POSITION_AND_DIR: x=-219.946*, z=82.088*, y=-11.538*, direction=233.6°*
  1: 0x000B [0x32] ExtData[1]->MainSpeed = 13* * 0.1
  2: 0x000E [0x1F] MOVE_ENTITY: EventEntity moves to X=-211.207*, Z=83.977*, Y=-9.763*
  3: 0x0016 [0x1F] MOVE_ENTITY: Update entity position (mode=1)
  4: 0x0018 [0x1E] EventEntity looks at Qultada (ID: 16986657/0x01033221) and starts talking
  5: 0x001D [0x00] END_REQSTACK()
```
