# 16986838

## Common Data

| Field            | Value                     |
|------------------|---------------------------|
| Zone             | Wajaom Woodlands (ID: 51) |
| Block Size       | 8876 bytes                |
| Total Events     | 5                         |
| References Count | 148                       |

## List of Events

| Event ID              | Entrypoint   |   Size |   Instructions |
|-----------------------|--------------|--------|----------------|
| [65535](#event-65535) | 0x0000       |    658 |             62 |
| [518](#event-518)     | 0x0292       |   1041 |            138 |
| [519](#event-519)     | 0x06A3       |   3127 |            382 |
| [520](#event-520)     | 0x12DA       |   2803 |            325 |
| [521](#event-521)     | 0x1DCD       |    618 |             80 |

## DAT References (imed_data)

|   Index | Hex Value   |   Dec Value |
|---------|-------------|-------------|
|       0 | 0x00C8      |         200 |
|       1 | 0x0000      |           0 |
|       2 | 0x00C9      |         201 |
|       3 | 0x0001      |           1 |
|       4 | 0x002D      |          45 |
|       5 | 0x0002      |           2 |
|       6 | 0x001E      |          30 |
|       7 | 0x00D7      |         215 |
|       8 | 0x012C      |         300 |
|       9 | 0x0093      |         147 |
|      10 | 0xFFFEE247  |  4294894151 |
|      11 | 0xFFF64306  |  4294329094 |
|      12 | 0xFFFFDF55  |  4294958933 |
|      13 | 0x002A      |          42 |
|      14 | 0xFFFF1A8B  |  4294908555 |
|      15 | 0xFFF62BF3  |  4294323187 |
|      16 | 0xFFFFD219  |  4294955545 |
|      17 | 0x07B0      |        1968 |
|      18 | 0x0094      |         148 |
|      19 | 0x007F      |         127 |
|      20 | 0x0357      |         855 |
|      21 | 0x003C      |          60 |
|      22 | 0x010F      |         271 |
|      23 | 0x260E      |        9742 |
|      24 | 0x260F      |        9743 |
|      25 | 0x0003      |           3 |
|      26 | 0x0004      |           4 |
|      27 | 0x0005      |           5 |
|      28 | 0x0006      |           6 |
|      29 | 0x0008      |           8 |
|      30 | 0x0028      |          40 |
|      31 | 0x000A      |          10 |
|      32 | 0x08C4      |        2244 |
|      33 | 0x2610      |        9744 |
|      34 | 0x000F      |          15 |
|      35 | 0x0095      |         149 |
|      36 | 0x0065      |         101 |
|      37 | 0x008A      |         138 |
|      38 | 0xFFFF21B3  |  4294910387 |
|      39 | 0xFFF61EFB  |  4294319867 |
|      40 | 0xFFFFD0C2  |  4294955202 |
|      41 | 0x0E58      |        3672 |
|      42 | 0xFFFF2032  |  4294910002 |
|      43 | 0xFFF61E03  |  4294319619 |
|      44 | 0xFFFFD10B  |  4294955275 |
|      45 | 0xFFFFFF9C  |  4294967196 |
|      46 | 0xFFFF2B00  |  4294912768 |
|      47 | 0xFFF63805  |  4294326277 |
|      48 | 0xFFFFD026  |  4294955046 |
|      49 | 0x065F      |        1631 |
|      50 | 0xFFFF0EB1  |  4294905521 |
|      51 | 0xFFF61840  |  4294318144 |
|      52 | 0xFFFFD504  |  4294956292 |
|      53 | 0x0DE5      |        3557 |
|      54 | 0xFFFF0BAD  |  4294904749 |
|      55 | 0xFFF60EC3  |  4294315715 |
|      56 | 0xFFFFD5C0  |  4294956480 |
|      57 | 0x0603      |        1539 |
|      58 | 0x0049      |          73 |
|      59 | 0x2615      |        9749 |
|      60 | 0x2616      |        9750 |
|      61 | 0x005A      |          90 |
|      62 | 0xFFFFFF7E  |  4294967166 |
|      63 | 0x0017      |          23 |
|      64 | 0x0015      |          21 |
|      65 | 0x2617      |        9751 |
|      66 | 0x0080      |         128 |
|      67 | 0x2618      |        9752 |
|      68 | 0x2619      |        9753 |
|      69 | 0x261A      |        9754 |
|      70 | 0x0014      |          20 |
|      71 | 0x261B      |        9755 |
|      72 | 0x261C      |        9756 |
|      73 | 0x261D      |        9757 |
|      74 | 0x261E      |        9758 |
|      75 | 0x261F      |        9759 |
|      76 | 0x2620      |        9760 |
|      77 | 0x2621      |        9761 |
|      78 | 0x00DC      |         220 |
|      79 | 0x2622      |        9762 |
|      80 | 0x003B      |          59 |
|      81 | 0x0078      |         120 |
|      82 | 0xFFFCD6F4  |  4294760180 |
|      83 | 0x143D0     |       82896 |
|      84 | 0xFFFFDF34  |  4294958900 |
|      85 | 0x00DD      |         221 |
|      86 | 0xFFFC8F52  |  4294741842 |
|      87 | 0x161D5     |       90581 |
|      88 | 0xFFFFCE1A  |  4294954522 |
|      89 | 0x00D1      |         209 |
|      90 | 0xFFFC9520  |  4294743328 |
|      91 | 0x16817     |       92183 |
|      92 | 0xFFFFCFF9  |  4294955001 |
|      93 | 0xFFFC8C86  |  4294741126 |
|      94 | 0x15D22     |       89378 |
|      95 | 0xFFFFCD53  |  4294954323 |
|      96 | 0x00A8      |         168 |
|      97 | 0xFFFCAFA2  |  4294750114 |
|      98 | 0x14BCB     |       84939 |
|      99 | 0xFFFFD5B5  |  4294956469 |
|     100 | 0x0051      |          81 |
|     101 | 0x0020      |          32 |
|     102 | 0x0360      |         864 |
|     103 | 0x00F0      |         240 |
|     104 | 0x001A      |          26 |
|     105 | 0x2623      |        9763 |
|     106 | 0x00B4      |         180 |
|     107 | 0x2624      |        9764 |
|     108 | 0x2625      |        9765 |
|     109 | 0x2626      |        9766 |
|     110 | 0x034B      |         843 |
|     111 | 0x2627      |        9767 |
|     112 | 0x2628      |        9768 |
|     113 | 0x2629      |        9769 |
|     114 | 0x262A      |        9770 |
|     115 | 0x262B      |        9771 |
|     116 | 0x262C      |        9772 |
|     117 | 0x0371      |         881 |
|     118 | 0x262D      |        9773 |
|     119 | 0x262E      |        9774 |
|     120 | 0x262F      |        9775 |
|     121 | 0x2630      |        9776 |
|     122 | 0x2631      |        9777 |
|     123 | 0x2632      |        9778 |
|     124 | 0x2633      |        9779 |
|     125 | 0x2634      |        9780 |
|     126 | 0x0BC5      |        3013 |
|     127 | 0x2635      |        9781 |
|     128 | 0xFFFBF437  |  4294702135 |
|     129 | 0xFFFFD7C8  |  4294957000 |
|     130 | 0xFFFFA434  |  4294943796 |
|     131 | 0xFFFFFE0C  |  4294966796 |
|     132 | 0x0D3E      |        3390 |
|     133 | 0xFFFC0804  |  4294707204 |
|     134 | 0xFFFFD4EF  |  4294956271 |
|     135 | 0xFFFFA2B4  |  4294943412 |
|     136 | 0x086C      |        2156 |
|     137 | 0x001F      |          31 |
|     138 | 0x005E      |          94 |
|     139 | 0x010E      |         270 |
|     140 | 0x0010      |          16 |
|     141 | 0x0D3F      |        3391 |
|     142 | 0x001D      |          29 |
|     143 | 0x2637      |        9783 |
|     144 | 0x2638      |        9784 |
|     145 | 0x0D40      |        3392 |
|     146 | 0x0007      |           7 |
|     147 | 0x02DC      |         732 |

## String References

- **9749**: Take part of the body? [Yes./No.]
- **9755**: How do you respond? [I don't know./Please tell me./Thep ower of the blue.]
- **9783**: You received the aeropearl!
- **9784**: However, it appears to have been drained of its magical energy...

## Events

### Event 65535

#### Metadata

| Field        | Value     |
|--------------|-----------|
| Entrypoint   | 0x0000    |
| Data Size    | 658 bytes |
| Instructions | 1         |

```
      00 01 02 03 04 05 06 07  08 09 0A 0B 0C 0D 0E 0F
      -- -- -- -- -- -- -- --  -- -- -- -- -- -- -- --
0000: 00 45 00 80 F0 FF FF 7F  F0 FF FF 7F 66 64 69 30  .E..........fdi0
0010: 01 80 55 00 80 F0 FF FF  7F F0 FF FF 7F 66 64 69  ..U..........fdi
0020: 30 1B 45 00 80 F0 FF FF  7F F0 FF FF 7F 66 64 6F  0.E..........fdo
0030: 30 01 80 55 00 80 F0 FF  FF 7F F0 FF FF 7F 66 64  0..U..........fd
0040: 6F 30 1B 45 00 80 F0 FF  FF 7F F0 FF FF 7F 66 64  o0.E..........fd
0050: 69 31 01 80 55 00 80 F0  FF FF 7F F0 FF FF 7F 66  i1..U..........f
0060: 64 69 31 1B 45 00 80 F0  FF FF 7F F0 FF FF 7F 66  di1.E..........f
0070: 64 6F 31 01 80 55 00 80  F0 FF FF 7F F0 FF FF 7F  do1..U..........
0080: 66 64 6F 31 1B 45 02 80  F0 FF FF 7F F0 FF FF 7F  fdo1.E..........
0090: 77 68 69 31 01 80 55 02  80 F0 FF FF 7F F0 FF FF  whi1..U.........
00A0: 7F 77 68 69 31 1B 45 02  80 F0 FF FF 7F F0 FF FF  .whi1.E.........
00B0: 7F 77 68 6F 31 01 80 55  02 80 F0 FF FF 7F F0 FF  .who1..U........
00C0: FF 7F 77 68 6F 31 1B 45  02 80 F0 FF FF 7F F0 FF  ..who1.E........
00D0: FF 7F 77 68 6F 32 01 80  55 02 80 F0 FF FF 7F F0  ..who2..U.......
00E0: FF FF 7F 77 68 6F 32 1B  45 02 80 F0 FF FF 7F F0  ...who2.E.......
00F0: FF FF 7F 77 68 6F 33 01  80 55 02 80 F0 FF FF 7F  ...who3..U......
0100: F0 FF FF 7F 77 68 6F 33  1B 62 03 80 F0 FF FF 7F  ....who3.b......
0110: F0 FF FF 7F 6D 61 69 6E  01 80 1C 04 80 45 00 80  ....main.....E..
0120: F0 FF FF 7F F0 FF FF 7F  66 64 6F 31 01 80 55 00  ........fdo1..U.
0130: 80 F0 FF FF 7F F0 FF FF  7F 66 64 6F 31 1B 45 00  .........fdo1.E.
0140: 80 F0 FF FF 7F F0 FF FF  7F 66 64 69 31 01 80 62  .........fdi1..b
0150: 05 80 F0 FF FF 7F F0 FF  FF 7F 6D 61 69 6E 01 80  ..........main..
0160: 1C 06 80 55 00 80 F0 FF  FF 7F F0 FF FF 7F 66 64  ...U..........fd
0170: 69 31 1B 45 00 80 F0 FF  FF 7F F0 FF FF 7F 62 6C  i1.E..........bl
0180: 6F 6E 01 80 45 02 80 F0  FF FF 7F F0 FF FF 7F 62  on..E..........b
0190: 6C 6F 6E 01 80 1B 45 02  80 F0 FF FF 7F F0 FF FF  lon...E.........
01A0: 7F 77 68 69 30 01 80 55  02 80 F0 FF FF 7F F0 FF  .whi0..U........
01B0: FF 7F 77 68 69 30 1B 45  02 80 F0 FF FF 7F F0 FF  ..whi0.E........
01C0: FF 7F 77 68 6F 30 01 80  55 02 80 F0 FF FF 7F F0  ..who0..U.......
01D0: FF FF 7F 77 68 6F 30 1B  45 07 80 F0 FF FF 7F F0  ...who0.E.......
01E0: FF FF 7F 65 66 6F 6E 01  80 55 07 80 F0 FF FF 7F  ...efon..U......
01F0: F0 FF FF 7F 65 66 6F 6E  1B 45 00 80 F0 FF FF 7F  ....efon.E......
0200: F0 FF FF 7F 66 64 69 73  01 80 1B 45 00 80 F0 FF  ....fdis...E....
0210: FF 7F F0 FF FF 7F 66 64  6F 73 01 80 55 00 80 F0  ......fdos..U...
0220: FF FF 7F F0 FF FF 7F 66  64 6F 73 1B 45 00 80 F0  .......fdos.E...
0230: FF FF 7F F0 FF FF 7F 66  64 69 66 01 80 1B 45 00  .......fdif...E.
0240: 80 F0 FF FF 7F F0 FF FF  7F 66 64 6F 66 01 80 55  .........fdof..U
0250: 00 80 F0 FF FF 7F F0 FF  FF 7F 66 64 6F 66 1B 45  ..........fdof.E
0260: 00 80 F0 FF FF 7F F0 FF  FF 7F 66 64 69 70 01 80  ..........fdip..
0270: 1B 45 00 80 F0 FF FF 7F  F0 FF FF 7F 66 64 6F 70  .E..........fdop
0280: 01 80 55 00 80 F0 FF FF  7F F0 FF FF 7F 66 64 6F  ..U..........fdo
0290: 70 1B                                             p.              
```

#### Opcodes

```
  0: 0x0000 [0x00] END_REQSTACK()
```

#### Data or dead code:

```
# Dead code (unreachable instructions):
     0x0001 [0x45] LOAD_SCHEDULED_TASK: Load scheduler "fdi0" with entities [LocalPlayer, LocalPlayer], work=[200*, 0*]
     0x0012 [0x55] WAIT_LOAD_SCHEDULER: Wait for scheduler "fdi0" with entities [LocalPlayer, LocalPlayer], work=200*
     0x0021 [0x1B] RETURN
     0x0022 [0x45] LOAD_SCHEDULED_TASK: Load scheduler "fdo0" with entities [LocalPlayer, LocalPlayer], work=[200*, 0*]
     0x0033 [0x55] WAIT_LOAD_SCHEDULER: Wait for scheduler "fdo0" with entities [LocalPlayer, LocalPlayer], work=200*
     0x0042 [0x1B] RETURN
     0x0043 [0x45] LOAD_SCHEDULED_TASK: Load scheduler "fdi1" with entities [LocalPlayer, LocalPlayer], work=[200*, 0*]
     0x0054 [0x55] WAIT_LOAD_SCHEDULER: Wait for scheduler "fdi1" with entities [LocalPlayer, LocalPlayer], work=200*
     0x0063 [0x1B] RETURN
     0x0064 [0x45] LOAD_SCHEDULED_TASK: Load scheduler "fdo1" with entities [LocalPlayer, LocalPlayer], work=[200*, 0*]
     0x0075 [0x55] WAIT_LOAD_SCHEDULER: Wait for scheduler "fdo1" with entities [LocalPlayer, LocalPlayer], work=200*
     0x0084 [0x1B] RETURN
     0x0085 [0x45] LOAD_SCHEDULED_TASK: Load scheduler "whi1" with entities [LocalPlayer, LocalPlayer], work=[201*, 0*]
     0x0096 [0x55] WAIT_LOAD_SCHEDULER: Wait for scheduler "whi1" with entities [LocalPlayer, LocalPlayer], work=201*
     0x00A5 [0x1B] RETURN
     0x00A6 [0x45] LOAD_SCHEDULED_TASK: Load scheduler "who1" with entities [LocalPlayer, LocalPlayer], work=[201*, 0*]
     0x00B7 [0x55] WAIT_LOAD_SCHEDULER: Wait for scheduler "who1" with entities [LocalPlayer, LocalPlayer], work=201*
     0x00C6 [0x1B] RETURN
     0x00C7 [0x45] LOAD_SCHEDULED_TASK: Load scheduler "who2" with entities [LocalPlayer, LocalPlayer], work=[201*, 0*]
     0x00D8 [0x55] WAIT_LOAD_SCHEDULER: Wait for scheduler "who2" with entities [LocalPlayer, LocalPlayer], work=201*
     0x00E7 [0x1B] RETURN
     0x00E8 [0x45] LOAD_SCHEDULED_TASK: Load scheduler "who3" with entities [LocalPlayer, LocalPlayer], work=[201*, 0*]
     0x00F9 [0x55] WAIT_LOAD_SCHEDULER: Wait for scheduler "who3" with entities [LocalPlayer, LocalPlayer], work=201*
     0x0108 [0x1B] RETURN
     0x0109 [0x62] LOAD_EVENT_SCHEDULER: Load scheduler "main" with entities [LocalPlayer, LocalPlayer], work=[1*, 0*]
     0x011A [0x1C] WAIT(45* ticks)
     0x011D [0x45] LOAD_SCHEDULED_TASK: Load scheduler "fdo1" with entities [LocalPlayer, LocalPlayer], work=[200*, 0*]
     0x012E [0x55] WAIT_LOAD_SCHEDULER: Wait for scheduler "fdo1" with entities [LocalPlayer, LocalPlayer], work=200*
     0x013D [0x1B] RETURN
     0x013E [0x45] LOAD_SCHEDULED_TASK: Load scheduler "fdi1" with entities [LocalPlayer, LocalPlayer], work=[200*, 0*]
     0x014F [0x62] LOAD_EVENT_SCHEDULER: Load scheduler "main" with entities [LocalPlayer, LocalPlayer], work=[2*, 0*]
     0x0160 [0x1C] WAIT(30* ticks)
     0x0163 [0x55] WAIT_LOAD_SCHEDULER: Wait for scheduler "fdi1" with entities [LocalPlayer, LocalPlayer], work=200*
     0x0172 [0x1B] RETURN
     0x0173 [0x45] LOAD_SCHEDULED_TASK: Load scheduler "blon" with entities [LocalPlayer, LocalPlayer], work=[200*, 0*]
     0x0184 [0x45] LOAD_SCHEDULED_TASK: Load scheduler "blon" with entities [LocalPlayer, LocalPlayer], work=[201*, 0*]
     0x0195 [0x1B] RETURN
     0x0196 [0x45] LOAD_SCHEDULED_TASK: Load scheduler "whi0" with entities [LocalPlayer, LocalPlayer], work=[201*, 0*]
     0x01A7 [0x55] WAIT_LOAD_SCHEDULER: Wait for scheduler "whi0" with entities [LocalPlayer, LocalPlayer], work=201*
     0x01B6 [0x1B] RETURN
     0x01B7 [0x45] LOAD_SCHEDULED_TASK: Load scheduler "who0" with entities [LocalPlayer, LocalPlayer], work=[201*, 0*]
     0x01C8 [0x55] WAIT_LOAD_SCHEDULER: Wait for scheduler "who0" with entities [LocalPlayer, LocalPlayer], work=201*
     0x01D7 [0x1B] RETURN
     0x01D8 [0x45] LOAD_SCHEDULED_TASK: Load scheduler "efon" with entities [LocalPlayer, LocalPlayer], work=[215*, 0*]
     0x01E9 [0x55] WAIT_LOAD_SCHEDULER: Wait for scheduler "efon" with entities [LocalPlayer, LocalPlayer], work=215*
     0x01F8 [0x1B] RETURN
     0x01F9 [0x45] LOAD_SCHEDULED_TASK: Load scheduler "fdis" with entities [LocalPlayer, LocalPlayer], work=[200*, 0*]
     0x020A [0x1B] RETURN
     0x020B [0x45] LOAD_SCHEDULED_TASK: Load scheduler "fdos" with entities [LocalPlayer, LocalPlayer], work=[200*, 0*]
     0x021C [0x55] WAIT_LOAD_SCHEDULER: Wait for scheduler "fdos" with entities [LocalPlayer, LocalPlayer], work=200*
     0x022B [0x1B] RETURN
     0x022C [0x45] LOAD_SCHEDULED_TASK: Load scheduler "fdif" with entities [LocalPlayer, LocalPlayer], work=[200*, 0*]
     0x023D [0x1B] RETURN
     0x023E [0x45] LOAD_SCHEDULED_TASK: Load scheduler "fdof" with entities [LocalPlayer, LocalPlayer], work=[200*, 0*]
     0x024F [0x55] WAIT_LOAD_SCHEDULER: Wait for scheduler "fdof" with entities [LocalPlayer, LocalPlayer], work=200*
     0x025E [0x1B] RETURN
     0x025F [0x45] LOAD_SCHEDULED_TASK: Load scheduler "fdip" with entities [LocalPlayer, LocalPlayer], work=[200*, 0*]
     0x0270 [0x1B] RETURN
     0x0271 [0x45] LOAD_SCHEDULED_TASK: Load scheduler "fdop" with entities [LocalPlayer, LocalPlayer], work=[200*, 0*]
     0x0282 [0x55] WAIT_LOAD_SCHEDULER: Wait for scheduler "fdop" with entities [LocalPlayer, LocalPlayer], work=200*
     0x0291 [0x1B] RETURN
```

### Event 518

#### Metadata

| Field        | Value      |
|--------------|------------|
| Entrypoint   | 0x0292     |
| Data Size    | 1041 bytes |
| Instructions | 138        |

```
      00 01 02 03 04 05 06 07  08 09 0A 0B 0C 0D 0E 0F
      -- -- -- -- -- -- -- --  -- -- -- -- -- -- -- --
0290:       42 5D 01 80 08 80  1A 64 00 46 01 38 09 80    B].....d.F.8..
02A0: 02 09 10 01 80 01 AE 02  60 02 73 74 61 31 2F 00  ........`.sta1/.
02B0: D7 32 03 01 4E 00 D7 32  03 01 94 01 D7 32 03 01  .2..N..2.....2..
02C0: 94 01 F0 FF FF 7F BA D7  32 03 01 0A 80 0B 80 0C  ........2.......
02D0: 80 0D 80 BA F0 FF FF 7F  0E 80 0F 80 10 80 11 80  ................
02E0: 5C 00 12 80 5C 01 12 80  5C 02 12 80 5C 03 12 80  \...\...\...\...
02F0: 9A 5D 13 80 03 80 80 D7  32 03 01 80 F0 FF FF 7F  .]......2.......
0300: 29 0F F0 FF FF 7F 3C 27  0F D7 32 03 01 10 45 14  ).....<'..2...E.
0310: 80 F8 FF FF 7F F8 FF FF  7F 73 30 30 31 01 80 1A  .........s001...
0320: 43 00 1C 06 80 79 00 F0  FF FF 7F D7 32 03 01 1C  C....y......2...
0330: 15 80 27 0F F0 FF FF 7F  3D 1C 06 80 52 14 80 F8  ..'.....=...R...
0340: FF FF 7F F8 FF FF 7F 73  30 30 31 45 14 80 F8 FF  .......s001E....
0350: FF 7F F8 FF FF 7F 73 30  30 30 01 80 2A 0F D7 32  ......s000..*..2
0360: 03 01 4B D7 32 03 01 16  80 45 14 80 F8 FF FF 7F  ..K.2....E......
0370: F8 FF FF 7F 36 30 31 31  01 80 2B D7 32 03 01 17  ....6011..+.2...
0380: 80 23 6F 76 D7 32 03 01  52 14 80 F8 FF FF 7F F8  .#ov.2..R.......
0390: FF FF 7F 73 30 30 30 45  14 80 F8 FF FF 7F F8 FF  ...s000E........
03A0: FF 7F 73 30 30 32 01 80  45 14 80 F8 FF FF 7F F8  ..s002..E.......
03B0: FF FF 7F 38 31 36 30 01  80 27 0F D7 32 03 01 11  ...8160..'..2...
03C0: 7B F0 FF FF 7F 2B D7 32  03 01 18 80 1C 15 80 2A  {....+.2.......*
03D0: 0F F0 FF FF 7F 27 0F F0  FF FF 7F 3A 1C 06 80 52  .....'.....:...R
03E0: 14 80 F8 FF FF 7F F8 FF  FF 7F 73 30 30 32 02 09  ..........s002..
03F0: 10 03 80 00 0A 04 45 14  80 F8 FF FF 7F F8 FF FF  ......E.........
0400: 7F 73 30 30 38 01 80 01  A7 04 02 09 10 19 80 00  .s008...........
0410: 26 04 45 14 80 F8 FF FF  7F F8 FF FF 7F 73 30 30  &.E..........s00
0420: 34 01 80 01 A7 04 02 09  10 1A 80 00 42 04 45 14  4...........B.E.
0430: 80 F8 FF FF 7F F8 FF FF  7F 73 30 30 34 01 80 01  .........s004...
0440: A7 04 02 09 10 1B 80 00  5E 04 45 14 80 F8 FF FF  ........^.E.....
0450: 7F F8 FF FF 7F 73 30 30  37 01 80 01 A7 04 02 09  .....s007.......
0460: 10 1C 80 00 7A 04 45 14  80 F8 FF FF 7F F8 FF FF  ....z.E.........
0470: 7F 73 30 30 37 01 80 01  A7 04 02 09 10 1D 80 00  .s007...........
0480: 96 04 45 14 80 F8 FF FF  7F F8 FF FF 7F 73 30 30  ..E..........s00
0490: 34 01 80 01 A7 04 45 14  80 F8 FF FF 7F F8 FF FF  4.....E.........
04A0: 7F 73 30 30 39 01 80 1C  1E 80 2A 0F D7 32 03 01  .s009.....*..2..
04B0: 29 0F D7 32 03 01 05 1C  1F 80 02 09 10 03 80 00  )..2............
04C0: D6 04 45 14 80 F8 FF FF  7F F8 FF FF 7F 73 30 30  ..E..........s00
04D0: 38 01 80 01 67 05 02 09  10 19 80 00 F0 04 52 14  8...g.........R.
04E0: 80 F8 FF FF 7F F8 FF FF  7F 73 30 30 34 01 67 05  .........s004.g.
04F0: 02 09 10 1A 80 00 0A 05  52 14 80 F8 FF FF 7F F8  ........R.......
0500: FF FF 7F 73 30 30 34 01  67 05 02 09 10 1B 80 00  ...s004.g.......
0510: 24 05 52 14 80 F8 FF FF  7F F8 FF FF 7F 73 30 30  $.R..........s00
0520: 37 01 67 05 02 09 10 1C  80 00 3E 05 52 14 80 F8  7.g.......>.R...
0530: FF FF 7F F8 FF FF 7F 73  30 30 37 01 67 05 02 09  .......s007.g...
0540: 10 1D 80 00 58 05 52 14  80 F8 FF FF 7F F8 FF FF  ....X.R.........
0550: 7F 73 30 30 34 01 67 05  52 14 80 F8 FF FF 7F F8  .s004.g.R.......
0560: FF FF 7F 73 30 30 39 45  14 80 F8 FF FF 7F F8 FF  ...s009E........
0570: FF 7F 73 30 30 33 01 80  23 29 0F D7 32 03 01 07  ..s003..#)..2...
0580: 1C 05 80 4B F0 FF FF 7F  20 80 45 14 80 F8 FF FF  ...K.... .E.....
0590: 7F F8 FF FF 7F 36 30 30  34 01 80 2B D7 32 03 01  .....6004..+.2..
05A0: 21 80 1C 06 80 45 14 80  F8 FF FF 7F F8 FF FF 7F  !....E..........
05B0: 36 30 30 35 01 80 23 6F  76 F0 FF FF 7F 2A 0F F0  6005..#ov....*..
05C0: FF FF 7F 79 00 F0 FF FF  7F D7 32 03 01 7B D7 32  ...y......2..{.2
05D0: 03 01 52 14 80 F8 FF FF  7F F8 FF FF 7F 73 30 30  ..R..........s00
05E0: 33 45 14 80 F8 FF FF 7F  F8 FF FF 7F 73 30 30 35  3E..........s005
05F0: 01 80 5D 01 80 08 80 1C  06 80 1C 1F 80 52 14 80  ..]..........R..
0600: F8 FF FF 7F F8 FF FF 7F  73 30 30 35 45 14 80 F8  ........s005E...
0610: FF FF 7F F8 FF FF 7F 73  30 30 36 01 80 45 14 80  .......s006..E..
0620: F8 FF FF 7F F8 FF FF 7F  38 32 39 37 01 80 1C 06  ........8297....
0630: 80 27 0F F0 FF FF 7F 3E  1C 06 80 1A B7 01 1A 64  .'.....>.......d
0640: 00 1C 22 80 1A 96 01 52  14 80 F8 FF FF 7F F8 FF  .."....R........
0650: FF 7F 73 30 30 36 29 0F  F0 FF FF 7F 3B 45 14 80  ..s006).....;E..
0660: F8 FF FF 7F F8 FF FF 7F  62 72 6F 66 01 80 1C 05  ........brof....
0670: 80 5C 00 23 80 5C 01 23  80 5C 02 24 80 5C 03 25  .\.#.\.#.\.$.\.%
0680: 80 9A 5D 13 80 03 80 AB  11 01 80 1C 03 80 46 00  ..]...........F.
0690: 45 00 80 F8 FF FF 7F F8  FF FF 7F 66 64 69 32 01  E..........fdi2.
06A0: 80 21 00                                          .!.             
```

#### Opcodes

```
  0: 0x0292 [0x42] SET_CLI_EVENT_CANCEL_DATA()
  1: 0x0293 [0x5D] SET_MUSIC_VOLUME(volume=0*, fade_time=300*)
  2: 0x0298 [0x1A] CALL_SUBROUTINE(address=0x0064)
  3: 0x029B [0x46] CAMERA_CONTROL: Disable user control
  4: 0x029D [0x38] SET_CLIENT_EVENT_MODE(mode=147*)
  5: 0x02A0 [0x02] IF !(Work_Zone[9] == 0*) GOTO 0x02AE
  6: 0x02A8 [0x60] ZONE_SET_ACTION: Set zone action with param 0x31617473
  7: 0x02AE [0x2F] Returned Soulflayer (ID: 16986839/0x010332D7)->Render.Flags0 &= ~0x80000 // Bit 19
  8: 0x02B4 [0x4E] SET_ENTITY_HIDE_FLAG: Show Returned Soulflayer (ID: 16986839/0x010332D7)
  9: 0x02BA [0x94] Returned Soulflayer (ID: 16986839/0x010332D7)->Render.Flags3 ^= 0x01
 10: 0x02C0 [0x94] LocalPlayer->Render.Flags3 ^= 0x01
 11: 0x02C6 [0xBA] SET_ENTITY_POSITION(entity_id=Returned Soulflayer (ID: 16986839/0x010332D7), pos_x=-73.145*, pos_z=-638.202*, pos_y=-8.363*, direction=3.7°*)
 12: 0x02D3 [0xBA] SET_ENTITY_POSITION(entity_id=LocalPlayer, pos_x=-58.741*, pos_z=-644.109*, pos_y=-11.751*, direction=173.0°*)
 13: 0x02E0 [0x5C] MUSIC_CONTROL: Set Idle (Day) music to song 148*
 14: 0x02E4 [0x5C] MUSIC_CONTROL: Set Idle (Night) music to song 148*
 15: 0x02E8 [0x5C] MUSIC_CONTROL: Set Combat (Solo) music to song 148*
 16: 0x02EC [0x5C] MUSIC_CONTROL: Set Combat (Party) music to song 148*
 17: 0x02F0 [0x9A] WAIT_MUSIC_SERVER()
 18: 0x02F1 [0x5D] SET_MUSIC_VOLUME(volume=127*, fade_time=1*)
 19: 0x02F6 [0x80] LOAD_WAIT(entity=Returned Soulflayer (ID: 16986839/0x010332D7))
 20: 0x02FB [0x80] LOAD_WAIT(entity=LocalPlayer)
 21: 0x0300 [0x29] REQ_SET_WAIT(priority=0x0F, entity_id=LocalPlayer, tag_num=0x3C)
 22: 0x0307 [0x27] REQ_SET(priority=0x0F, entity_id=Returned Soulflayer (ID: 16986839/0x010332D7), tag_num=0x10)
 23: 0x030E [0x45] LOAD_SCHEDULED_TASK: Load scheduler "s001" with entities [EventEntity, EventEntity], work=[855*, 0*]
 24: 0x031F [0x1A] CALL_SUBROUTINE(address=0x0043)
 25: 0x0322 [0x1C] WAIT(30* ticks)
 26: 0x0325 [0x79] LocalPlayer looks at Returned Soulflayer (ID: 16986839/0x010332D7) (Basic look)
 27: 0x032F [0x1C] WAIT(60* ticks)
 28: 0x0332 [0x27] REQ_SET(priority=0x0F, entity_id=LocalPlayer, tag_num=0x3D)
 29: 0x0339 [0x1C] WAIT(30* ticks)
 30: 0x033C [0x52] END_LOAD_SCHEDULER: End scheduler "s001" with entities [EventEntity, EventEntity], work=855*
 31: 0x034B [0x45] LOAD_SCHEDULED_TASK: Load scheduler "s000" with entities [EventEntity, EventEntity], work=[855*, 0*]
 32: 0x035C [0x2A] GET_REQ_LEVEL(level=15, entity_id=Returned Soulflayer (ID: 16986839/0x010332D7))
 33: 0x0362 [0x4B] UPDATE_ENTITY_YAW(entity=Returned Soulflayer (ID: 16986839/0x010332D7), yaw=1.5°*)
 34: 0x0369 [0x45] LOAD_SCHEDULED_TASK: Load scheduler "6011" with entities [EventEntity, EventEntity], work=[855*, 0*]
 35: 0x037A [0x2B] Returned Soulflayer (ID: 16986839/0x010332D7) [9742*]:
    → "Do not...interefere..."
 36: 0x0381 [0x23] WAIT_FOR_DIALOG_INTERACTION
 37: 0x0382 [0x6F] WAIT_FRAME_DELAY: Yield until WaitTime reaches zero
 38: 0x0383 [0x76] CHECK_ENTITY_RENDER_FLAGS: Wait until Returned Soulflayer (ID: 16986839/0x010332D7) Render.Flags0 and Render.Flags3 conditions are met
 39: 0x0388 [0x52] END_LOAD_SCHEDULER: End scheduler "s000" with entities [EventEntity, EventEntity], work=855*
 40: 0x0397 [0x45] LOAD_SCHEDULED_TASK: Load scheduler "s002" with entities [EventEntity, EventEntity], work=[855*, 0*]
 41: 0x03A8 [0x45] LOAD_SCHEDULED_TASK: Load scheduler "8160" with entities [EventEntity, EventEntity], work=[855*, 0*]
 42: 0x03B9 [0x27] REQ_SET(priority=0x0F, entity_id=Returned Soulflayer (ID: 16986839/0x010332D7), tag_num=0x11)
 43: 0x03C0 [0x7B] LocalPlayer stops talking
 44: 0x03C5 [0x2B] Returned Soulflayer (ID: 16986839/0x010332D7) [9743*]:
    → "Falak's...seal..."
 45: 0x03CC [0x1C] WAIT(60* ticks)
 46: 0x03CF [0x2A] GET_REQ_LEVEL(level=15, entity_id=LocalPlayer)
 47: 0x03D5 [0x27] REQ_SET(priority=0x0F, entity_id=LocalPlayer, tag_num=0x3A)
 48: 0x03DC [0x1C] WAIT(30* ticks)
 49: 0x03DF [0x52] END_LOAD_SCHEDULER: End scheduler "s002" with entities [EventEntity, EventEntity], work=855*
 50: 0x03EE [0x02] IF !(Work_Zone[9] == 1*) GOTO 0x040A
 51: 0x03F6 [0x45] LOAD_SCHEDULED_TASK: Load scheduler "s008" with entities [EventEntity, EventEntity], work=[855*, 0*]
 52: 0x0407 [0x01] GOTO 0x04A7
 53: 0x040A [0x02] IF !(Work_Zone[9] == 3*) GOTO 0x0426
 54: 0x0412 [0x45] LOAD_SCHEDULED_TASK: Load scheduler "s004" with entities [EventEntity, EventEntity], work=[855*, 0*]
 55: 0x0423 [0x01] GOTO 0x04A7
 56: 0x0426 [0x02] IF !(Work_Zone[9] == 4*) GOTO 0x0442
 57: 0x042E [0x45] LOAD_SCHEDULED_TASK: Load scheduler "s004" with entities [EventEntity, EventEntity], work=[855*, 0*]
 58: 0x043F [0x01] GOTO 0x04A7
 59: 0x0442 [0x02] IF !(Work_Zone[9] == 5*) GOTO 0x045E
 60: 0x044A [0x45] LOAD_SCHEDULED_TASK: Load scheduler "s007" with entities [EventEntity, EventEntity], work=[855*, 0*]
 61: 0x045B [0x01] GOTO 0x04A7
 62: 0x045E [0x02] IF !(Work_Zone[9] == 6*) GOTO 0x047A
 63: 0x0466 [0x45] LOAD_SCHEDULED_TASK: Load scheduler "s007" with entities [EventEntity, EventEntity], work=[855*, 0*]
 64: 0x0477 [0x01] GOTO 0x04A7
 65: 0x047A [0x02] IF !(Work_Zone[9] == 8*) GOTO 0x0496
 66: 0x0482 [0x45] LOAD_SCHEDULED_TASK: Load scheduler "s004" with entities [EventEntity, EventEntity], work=[855*, 0*]
 67: 0x0493 [0x01] GOTO 0x04A7
 68: 0x0496 [0x45] LOAD_SCHEDULED_TASK: Load scheduler "s009" with entities [EventEntity, EventEntity], work=[855*, 0*]

SUBROUTINE_04A7:
 69: 0x04A7 [0x1C] WAIT(40* ticks)
 70: 0x04AA [0x2A] GET_REQ_LEVEL(level=15, entity_id=Returned Soulflayer (ID: 16986839/0x010332D7))
 71: 0x04B0 [0x29] REQ_SET_WAIT(priority=0x0F, entity_id=Returned Soulflayer (ID: 16986839/0x010332D7), tag_num=0x05)
 72: 0x04B7 [0x1C] WAIT(10* ticks)
 73: 0x04BA [0x02] IF !(Work_Zone[9] == 1*) GOTO 0x04D6
 74: 0x04C2 [0x45] LOAD_SCHEDULED_TASK: Load scheduler "s008" with entities [EventEntity, EventEntity], work=[855*, 0*]
 75: 0x04D3 [0x01] GOTO 0x0567
 76: 0x04D6 [0x02] IF !(Work_Zone[9] == 3*) GOTO 0x04F0
 77: 0x04DE [0x52] END_LOAD_SCHEDULER: End scheduler "s004" with entities [EventEntity, EventEntity], work=855*
 78: 0x04ED [0x01] GOTO 0x0567
 79: 0x04F0 [0x02] IF !(Work_Zone[9] == 4*) GOTO 0x050A
 80: 0x04F8 [0x52] END_LOAD_SCHEDULER: End scheduler "s004" with entities [EventEntity, EventEntity], work=855*
 81: 0x0507 [0x01] GOTO 0x0567
 82: 0x050A [0x02] IF !(Work_Zone[9] == 5*) GOTO 0x0524
 83: 0x0512 [0x52] END_LOAD_SCHEDULER: End scheduler "s007" with entities [EventEntity, EventEntity], work=855*
 84: 0x0521 [0x01] GOTO 0x0567
 85: 0x0524 [0x02] IF !(Work_Zone[9] == 6*) GOTO 0x053E
 86: 0x052C [0x52] END_LOAD_SCHEDULER: End scheduler "s007" with entities [EventEntity, EventEntity], work=855*
 87: 0x053B [0x01] GOTO 0x0567
 88: 0x053E [0x02] IF !(Work_Zone[9] == 8*) GOTO 0x0558
 89: 0x0546 [0x52] END_LOAD_SCHEDULER: End scheduler "s004" with entities [EventEntity, EventEntity], work=855*
 90: 0x0555 [0x01] GOTO 0x0567
 91: 0x0558 [0x52] END_LOAD_SCHEDULER: End scheduler "s009" with entities [EventEntity, EventEntity], work=855*

SUBROUTINE_0567:
 92: 0x0567 [0x45] LOAD_SCHEDULED_TASK: Load scheduler "s003" with entities [EventEntity, EventEntity], work=[855*, 0*]
 93: 0x0578 [0x23] WAIT_FOR_DIALOG_INTERACTION
 94: 0x0579 [0x29] REQ_SET_WAIT(priority=0x0F, entity_id=Returned Soulflayer (ID: 16986839/0x010332D7), tag_num=0x07)
 95: 0x0580 [0x1C] WAIT(2* ticks)
 96: 0x0583 [0x4B] UPDATE_ENTITY_YAW(entity=LocalPlayer, yaw=12.3°*)
 97: 0x058A [0x45] LOAD_SCHEDULED_TASK: Load scheduler "6004" with entities [EventEntity, EventEntity], work=[855*, 0*]
 98: 0x059B [0x2B] Returned Soulflayer (ID: 16986839/0x010332D7) [9744*]:
    → "Open...the gates...!"
 99: 0x05A2 [0x1C] WAIT(30* ticks)
100: 0x05A5 [0x45] LOAD_SCHEDULED_TASK: Load scheduler "6005" with entities [EventEntity, EventEntity], work=[855*, 0*]
101: 0x05B6 [0x23] WAIT_FOR_DIALOG_INTERACTION
102: 0x05B7 [0x6F] WAIT_FRAME_DELAY: Yield until WaitTime reaches zero
103: 0x05B8 [0x76] CHECK_ENTITY_RENDER_FLAGS: Wait until LocalPlayer Render.Flags0 and Render.Flags3 conditions are met
104: 0x05BD [0x2A] GET_REQ_LEVEL(level=15, entity_id=LocalPlayer)
105: 0x05C3 [0x79] LocalPlayer looks at Returned Soulflayer (ID: 16986839/0x010332D7) (Basic look)
106: 0x05CD [0x7B] Returned Soulflayer (ID: 16986839/0x010332D7) stops talking
107: 0x05D2 [0x52] END_LOAD_SCHEDULER: End scheduler "s003" with entities [EventEntity, EventEntity], work=855*
108: 0x05E1 [0x45] LOAD_SCHEDULED_TASK: Load scheduler "s005" with entities [EventEntity, EventEntity], work=[855*, 0*]
109: 0x05F2 [0x5D] SET_MUSIC_VOLUME(volume=0*, fade_time=300*)
110: 0x05F7 [0x1C] WAIT(30* ticks)
111: 0x05FA [0x1C] WAIT(10* ticks)
112: 0x05FD [0x52] END_LOAD_SCHEDULER: End scheduler "s005" with entities [EventEntity, EventEntity], work=855*
113: 0x060C [0x45] LOAD_SCHEDULED_TASK: Load scheduler "s006" with entities [EventEntity, EventEntity], work=[855*, 0*]
114: 0x061D [0x45] LOAD_SCHEDULED_TASK: Load scheduler "8297" with entities [EventEntity, EventEntity], work=[855*, 0*]
115: 0x062E [0x1C] WAIT(30* ticks)
116: 0x0631 [0x27] REQ_SET(priority=0x0F, entity_id=LocalPlayer, tag_num=0x3E)
117: 0x0638 [0x1C] WAIT(30* ticks)
118: 0x063B [0x1A] CALL_SUBROUTINE(address=0x01B7)
119: 0x063E [0x1A] CALL_SUBROUTINE(address=0x0064)
120: 0x0641 [0x1C] WAIT(15* ticks)
121: 0x0644 [0x1A] CALL_SUBROUTINE(address=0x0196)
122: 0x0647 [0x52] END_LOAD_SCHEDULER: End scheduler "s006" with entities [EventEntity, EventEntity], work=855*
123: 0x0656 [0x29] REQ_SET_WAIT(priority=0x0F, entity_id=LocalPlayer, tag_num=0x3B)
124: 0x065D [0x45] LOAD_SCHEDULED_TASK: Load scheduler "brof" with entities [EventEntity, EventEntity], work=[855*, 0*]
125: 0x066E [0x1C] WAIT(2* ticks)
126: 0x0671 [0x5C] MUSIC_CONTROL: Set Idle (Day) music to song 149*
127: 0x0675 [0x5C] MUSIC_CONTROL: Set Idle (Night) music to song 149*
128: 0x0679 [0x5C] MUSIC_CONTROL: Set Combat (Solo) music to song 101*
129: 0x067D [0x5C] MUSIC_CONTROL: Set Combat (Party) music to song 138*
130: 0x0681 [0x9A] WAIT_MUSIC_SERVER()
131: 0x0682 [0x5D] SET_MUSIC_VOLUME(volume=127*, fade_time=1*)
132: 0x0687 [0xAB] EventEntity->DespawnValue = 0* // Set despawn value
133: 0x068B [0x1C] WAIT(1* ticks)
134: 0x068E [0x46] CAMERA_CONTROL: Restore default settings
135: 0x0690 [0x45] LOAD_SCHEDULED_TASK: Load scheduler "fdi2" with entities [EventEntity, EventEntity], work=[200*, 0*]
136: 0x06A1 [0x21] END_EVENT
137: 0x06A2 [0x00] END_REQSTACK()
```

### Event 519

#### Metadata

| Field        | Value      |
|--------------|------------|
| Entrypoint   | 0x06A3     |
| Data Size    | 3127 bytes |
| Instructions | 382        |

```
      00 01 02 03 04 05 06 07  08 09 0A 0B 0C 0D 0E 0F
      -- -- -- -- -- -- -- --  -- -- -- -- -- -- -- --
06A0:          42 5D 01 80 08  80 03 01 00 03 10 1A 64     B]..........d
06B0: 00 46 01 38 09 80 02 09  10 01 80 01 C4 06 60 02  .F.8..........`.
06C0: 73 74 61 31 45 14 80 F8  FF FF 7F F8 FF FF 7F 73  sta1E..........s
06D0: 30 33 36 01 80 2F 00 D7  32 03 01 2F 00 D8 32 03  036../..2../..2.
06E0: 01 2F 00 AF 32 03 01 2F  00 96 32 03 01 4E 00 D7  ./..2../..2..N..
06F0: 32 03 01 4E 00 D8 32 03  01 4E 00 AF 32 03 01 4E  2..N..2..N..2..N
0700: 00 96 32 03 01 29 10 AF  32 03 01 09 94 01 D7 32  ..2..)..2......2
0710: 03 01 94 01 D8 32 03 01  94 01 AF 32 03 01 94 01  .....2.....2....
0720: 96 32 03 01 94 01 F0 FF  FF 7F BA F8 FF FF 7F 26  .2.............&
0730: 80 27 80 28 80 29 80 BA  D7 32 03 01 2A 80 2B 80  .'.(.)...2..*.+.
0740: 2C 80 00 80 BA D8 32 03  01 2A 80 2B 80 2C 80 00  ,.....2..*.+.,..
0750: 80 BA AF 32 03 01 2A 80  2B 80 2C 80 00 80 D8 03  ...2..*.+.,.....
0760: AF 32 03 01 2D 80 BA 96  32 03 01 2E 80 2F 80 30  .2..-...2..../.0
0770: 80 31 80 29 0F F0 FF FF  7F 3C 02 09 10 1B 80 00  .1.).....<......
0780: 92 07 BA F0 FF FF 7F 32  80 33 80 34 80 35 80 01  .......2.3.4.5..
0790: B7 07 02 09 10 1C 80 00  AA 07 BA F0 FF FF 7F 32  ...............2
07A0: 80 33 80 34 80 35 80 01  B7 07 BA F0 FF FF 7F 36  .3.4.5.........6
07B0: 80 37 80 38 80 39 80 80  D7 32 03 01 80 D8 32 03  .7.8.9...2....2.
07C0: 01 80 AF 32 03 01 80 96  32 03 01 80 F0 FF FF 7F  ...2....2.......
07D0: 1C 1B 80 2C D8 32 03 01  D8 32 03 01 63 6F 72 70  ...,.2...2..corp
07E0: 53 D8 32 03 01 D8 32 03  01 63 6F 72 70 66 3A 80  S.2...2..corpf:.
07F0: AF 32 03 01 AF 32 03 01  73 6C 70 30 53 AF 32 03  .2...2..slp0S.2.
0800: 01 AF 32 03 01 73 6C 70  30 6C D8 32 03 01 01 80  ..2..slp0l.2....
0810: 03 80 6C AF 32 03 01 01  80 03 80 6C 96 32 03 01  ..l.2......l.2..
0820: 01 80 03 80 4A F0 FF FF  7F D8 32 03 01 6F 76 F0  ....J.....2..ov.
0830: FF FF 7F 5C 00 12 80 5C  01 12 80 5C 02 12 80 5C  ...\...\...\...\
0840: 03 12 80 9A 5D 13 80 03  80 79 00 F0 FF FF 7F F8  ....]....y......
0850: FF FF 7F 2C D7 32 03 01  D7 32 03 01 64 65 61 64  ...,.2...2..dead
0860: 1C 1B 80 52 14 80 F8 FF  FF 7F F8 FF FF 7F 73 30  ...R..........s0
0870: 33 36 45 14 80 F8 FF FF  7F F8 FF FF 7F 73 30 31  36E..........s01
0880: 33 01 80 1A 43 00 45 14  80 F8 FF FF 7F F8 FF FF  3...C.E.........
0890: 7F 36 30 31 34 01 80 1C  15 80 52 14 80 F8 FF FF  .6014.....R.....
08A0: 7F F8 FF FF 7F 73 30 31  33 45 14 80 F8 FF FF 7F  .....s013E......
08B0: F8 FF FF 7F 73 30 31 32  01 80 1C 1E 80 52 14 80  ....s012.....R..
08C0: F8 FF FF 7F F8 FF FF 7F  73 30 31 32 45 14 80 F8  ........s012E...
08D0: FF FF 7F F8 FF FF 7F 73  30 31 31 01 80 1C 15 80  .......s011.....
08E0: 52 14 80 F8 FF FF 7F F8  FF FF 7F 73 30 31 31 02  R..........s011.
08F0: 09 10 1B 80 00 12 09 45  14 80 F8 FF FF 7F F8 FF  .......E........
0900: FF 7F 73 30 33 31 01 80  27 0F F0 FF FF 7F 42 01  ..s031..'.....B.
0910: 4D 09 02 09 10 1C 80 00  35 09 45 14 80 F8 FF FF  M.......5.E.....
0920: 7F F8 FF FF 7F 73 30 33  31 01 80 27 0F F0 FF FF  .....s031..'....
0930: 7F 42 01 4D 09 45 14 80  F8 FF FF 7F F8 FF FF 7F  .B.M.E..........
0940: 73 30 31 30 01 80 27 0F  F0 FF FF 7F 3F 53 D7 32  s010..'.....?S.2
0950: 03 01 D7 32 03 01 63 6F  72 70 1C 15 80 02 09 10  ...2..corp......
0960: 1B 80 00 6E 09 2A 0F F0  FF FF 7F 01 85 09 02 09  ...n.*..........
0970: 10 1C 80 00 7F 09 2A 0F  F0 FF FF 7F 01 85 09 2A  ......*........*
0980: 0F F0 FF FF 7F 27 0F F0  FF FF 7F 13 1C 06 80 02  .....'..........
0990: 09 10 1B 80 00 A9 09 52  14 80 F8 FF FF 7F F8 FF  .......R........
09A0: FF 7F 73 30 33 31 01 D2  09 02 09 10 1C 80 00 C3  ..s031..........
09B0: 09 52 14 80 F8 FF FF 7F  F8 FF FF 7F 73 30 33 31  .R..........s031
09C0: 01 D2 09 52 14 80 F8 FF  FF 7F F8 FF FF 7F 73 30  ...R..........s0
09D0: 31 30 45 14 80 F8 FF FF  7F F8 FF FF 7F 73 30 31  10E..........s01
09E0: 39 01 80 03 00 10 03 80  02 00 10 01 80 01 50 0A  9.............P.
09F0: 24 3B 80 01 80 01 80 25  02 00 10 03 80 00 4D 0A  $;.....%......M.
0A00: 52 14 80 F8 FF FF 7F F8  FF FF 7F 73 30 31 39 45  R..........s019E
0A10: 14 80 F8 FF FF 7F F8 FF  FF 7F 73 30 33 35 01 80  ..........s035..
0A20: 2B D7 32 03 01 3C 80 1C  3D 80 52 14 80 F8 FF FF  +.2..<..=.R.....
0A30: 7F F8 FF FF 7F 73 30 33  35 45 14 80 F8 FF FF 7F  .....s035E......
0A40: F8 FF FF 7F 73 30 31 39  01 80 01 4D 0A 01 E8 09  ....s019...M....
0A50: 1A 64 00 1C 06 80 D8 02  D7 32 03 01 3E 80 D8 02  .d.......2..>...
0A60: D8 32 03 01 3E 80 52 14  80 F8 FF FF 7F F8 FF FF  .2..>.R.........
0A70: 7F 73 30 31 39 45 14 80  F8 FF FF 7F F8 FF FF 7F  .s019E..........
0A80: 62 72 6F 66 01 80 2A 0F  F0 FF FF 7F 1C 1E 80 45  brof..*........E
0A90: 14 80 F8 FF FF 7F F8 FF  FF 7F 73 30 31 34 01 80  ..........s014..
0AA0: 27 0F F0 FF FF 7F 14 1A  43 00 2A 0F F0 FF FF 7F  '.......C.*.....
0AB0: 27 0F F0 FF FF 7F 40 1C  15 80 D0 3F 80 D7 32 03  '.....@....?..2.
0AC0: 01 D7 32 03 01 6F 30 30  32 01 80 2A 0F F0 FF FF  ..2..o002..*....
0AD0: 7F 4A F0 FF FF 7F D7 32  03 01 6F 76 F0 FF FF 7F  .J.....2..ov....
0AE0: 52 14 80 F8 FF FF 7F F8  FF FF 7F 73 30 31 34 45  R..........s014E
0AF0: 14 80 F8 FF FF 7F F8 FF  FF 7F 73 30 31 35 01 80  ..........s015..
0B00: 45 14 80 F8 FF FF 7F F8  FF FF 7F 38 32 39 37 01  E..........8297.
0B10: 80 D0 3F 80 D7 32 03 01  D7 32 03 01 6F 73 74 30  ..?..2...2..ost0
0B20: 01 80 D0 3F 80 D7 32 03  01 D7 32 03 01 6F 6B 6C  ...?..2...2..okl
0B30: 32 01 80 D0 3F 80 D7 32  03 01 D7 32 03 01 6F 30  2...?..2...2..o0
0B40: 30 33 01 80 27 10 D7 32  03 01 0F 27 10 D8 32 03  03..'..2...'..2.
0B50: 01 02 1C 15 80 6F 76 F0  FF FF 7F 6E F0 FF FF 7F  .....ov....n....
0B60: 40 80 99 F0 FF FF 7F 1C  15 80 55 14 80 F8 FF FF  @.........U.....
0B70: 7F F8 FF FF 7F 73 30 31  35 1C 15 80 45 14 80 F8  .....s015...E...
0B80: FF FF 7F F8 FF FF 7F 73  30 31 36 01 80 1C 15 80  .......s016.....
0B90: 1C 15 80 52 14 80 F8 FF  FF 7F F8 FF FF 7F 73 30  ...R..........s0
0BA0: 31 36 45 14 80 F8 FF FF  7F F8 FF FF 7F 73 30 31  16E..........s01
0BB0: 37 01 80 1C 15 80 27 10  D8 32 03 01 03 1C 15 80  7.....'..2......
0BC0: 27 10 AF 32 03 01 08 1C  15 80 6E F0 FF FF 7F 40  '..2......n....@
0BD0: 80 99 F0 FF FF 7F 1C 15  80 1C 15 80 1C 15 80 2B  ...............+
0BE0: AF 32 03 01 41 80 1C 15  80 6C 96 32 03 01 42 80  .2..A....l.2..B.
0BF0: 03 80 27 0F 96 32 03 01  43 1C 1D 80 52 14 80 F8  ..'..2..C...R...
0C00: FF FF 7F F8 FF FF 7F 73  30 31 37 45 14 80 F8 FF  .......s017E....
0C10: FF 7F F8 FF FF 7F 73 30  31 38 01 80 1C 3D 80 52  ......s018...=.R
0C20: 14 80 F8 FF FF 7F F8 FF  FF 7F 73 30 31 38 45 14  ..........s018E.
0C30: 80 F8 FF FF 7F F8 FF FF  7F 73 30 32 30 01 80 2B  .........s020..+
0C40: 96 32 03 01 43 80 23 2A  0F 96 32 03 01 52 14 80  .2..C.#*..2..R..
0C50: F8 FF FF 7F F8 FF FF 7F  73 30 32 30 45 14 80 F8  ........s020E...
0C60: FF FF 7F F8 FF FF 7F 73  30 32 31 01 80 4A F0 FF  .......s021..J..
0C70: FF 7F 96 32 03 01 4A 96  32 03 01 F0 FF FF 7F 29  ...2..J.2......)
0C80: 0F 96 32 03 01 23 2B 96  32 03 01 44 80 23 29 0F  ..2..#+.2..D.#).
0C90: 96 32 03 01 24 6F 76 F0  FF FF 7F 6F 76 96 32 03  .2..$ov....ov.2.
0CA0: 01 52 14 80 F8 FF FF 7F  F8 FF FF 7F 73 30 32 31  .R..........s021
0CB0: 02 09 10 1B 80 00 CC 0C  45 14 80 F8 FF FF 7F F8  ........E.......
0CC0: FF FF 7F 73 30 33 32 01  80 01 F9 0C 02 09 10 1C  ...s032.........
0CD0: 80 00 E8 0C 45 14 80 F8  FF FF 7F F8 FF FF 7F 73  ....E..........s
0CE0: 30 33 32 01 80 01 F9 0C  45 14 80 F8 FF FF 7F F8  032.....E.......
0CF0: FF FF 7F 73 30 32 32 01  80 02 01 00 03 80 00 0E  ...s022.........
0D00: 0D 79 00 96 32 03 01 F0  FF FF 7F 01 13 0D 7B 96  .y..2.........{.
0D10: 32 03 01 4E 01 D7 32 03  01 2B 96 32 03 01 45 80  2..N..2..+.2..E.
0D20: 1C 46 80 79 00 F0 FF FF  7F 96 32 03 01 23 81 00  .F.y......2..#..
0D30: 96 32 03 01 02 01 00 03  80 00 D6 10 24 47 80 01  .2..........$G..
0D40: 80 01 80 25 02 00 10 01  80 00 6D 0E 02 09 10 1B  ...%......m.....
0D50: 80 00 66 0D 52 14 80 F8  FF FF 7F F8 FF FF 7F 73  ..f.R..........s
0D60: 30 33 32 01 8F 0D 02 09  10 1C 80 00 80 0D 52 14  032...........R.
0D70: 80 F8 FF FF 7F F8 FF FF  7F 73 30 33 32 01 8F 0D  .........s032...
0D80: 52 14 80 F8 FF FF 7F F8  FF FF 7F 73 30 32 32 02  R..........s022.
0D90: 09 10 1B 80 00 AB 0D 45  14 80 F8 FF FF 7F F8 FF  .......E........
0DA0: FF 7F 73 30 33 33 01 80  01 D8 0D 02 09 10 1C 80  ..s033..........
0DB0: 00 C7 0D 45 14 80 F8 FF  FF 7F F8 FF FF 7F 73 30  ...E..........s0
0DC0: 33 33 01 80 01 D8 0D 45  14 80 F8 FF FF 7F F8 FF  33.....E........
0DD0: FF 7F 73 30 32 34 01 80  7B 96 32 03 01 6E F0 FF  ..s024..{.2..n..
0DE0: FF 7F 1C 80 99 F0 FF FF  7F 1C 3D 80 02 09 10 1B  ..........=.....
0DF0: 80 00 06 0E 52 14 80 F8  FF FF 7F F8 FF FF 7F 73  ....R..........s
0E00: 30 33 33 01 2F 0E 02 09  10 1C 80 00 20 0E 52 14  033./....... .R.
0E10: 80 F8 FF FF 7F F8 FF FF  7F 73 30 33 33 01 2F 0E  .........s033./.
0E20: 52 14 80 F8 FF FF 7F F8  FF FF 7F 73 30 32 34 45  R..........s024E
0E30: 14 80 F8 FF FF 7F F8 FF  FF 7F 73 30 32 33 01 80  ..........s023..
0E40: 7B 96 32 03 01 29 0F 96  32 03 01 29 2B 96 32 03  {.2..)..2..)+.2.
0E50: 01 48 80 23 29 0F 96 32  03 01 2A 52 14 80 F8 FF  .H.#)..2..*R....
0E60: FF 7F F8 FF FF 7F 73 30  32 33 01 D3 10 02 00 10  ......s023......
0E70: 03 80 00 95 0F 02 09 10  1B 80 00 8F 0E 52 14 80  .............R..
0E80: F8 FF FF 7F F8 FF FF 7F  73 30 33 32 01 B8 0E 02  ........s032....
0E90: 09 10 1C 80 00 A9 0E 52  14 80 F8 FF FF 7F F8 FF  .......R........
0EA0: FF 7F 73 30 33 32 01 B8  0E 52 14 80 F8 FF FF 7F  ..s032...R......
0EB0: F8 FF FF 7F 73 30 32 32  02 09 10 1B 80 00 D4 0E  ....s022........
0EC0: 45 14 80 F8 FF FF 7F F8  FF FF 7F 73 30 33 33 01  E..........s033.
0ED0: 80 01 01 0F 02 09 10 1C  80 00 F0 0E 45 14 80 F8  ............E...
0EE0: FF FF 7F F8 FF FF 7F 73  30 33 33 01 80 01 01 0F  .......s033.....
0EF0: 45 14 80 F8 FF FF 7F F8  FF FF 7F 73 30 32 34 01  E..........s024.
0F00: 80 7B 96 32 03 01 29 0F  F0 FF FF 7F 23 02 09 10  .{.2..).....#...
0F10: 1B 80 00 27 0F 52 14 80  F8 FF FF 7F F8 FF FF 7F  ...'.R..........
0F20: 73 30 33 33 01 50 0F 02  09 10 1C 80 00 41 0F 52  s033.P.......A.R
0F30: 14 80 F8 FF FF 7F F8 FF  FF 7F 73 30 33 33 01 50  ..........s033.P
0F40: 0F 52 14 80 F8 FF FF 7F  F8 FF FF 7F 73 30 32 34  .R..........s024
0F50: 45 14 80 F8 FF FF 7F F8  FF FF 7F 73 30 32 33 01  E..........s023.
0F60: 80 7B 96 32 03 01 29 0F  96 32 03 01 29 2B 96 32  .{.2..)..2..)+.2
0F70: 03 01 49 80 29 0F F0 FF  FF 7F 24 23 29 0F 96 32  ..I.).....$#)..2
0F80: 03 01 2A 52 14 80 F8 FF  FF 7F F8 FF FF 7F 73 30  ..*R..........s0
0F90: 32 33 01 D3 10 02 00 10  05 80 00 D3 10 02 09 10  23..............
0FA0: 1B 80 00 B7 0F 52 14 80  F8 FF FF 7F F8 FF FF 7F  .....R..........
0FB0: 73 30 33 32 01 E0 0F 02  09 10 1C 80 00 D1 0F 52  s032...........R
0FC0: 14 80 F8 FF FF 7F F8 FF  FF 7F 73 30 33 32 01 E0  ..........s032..
0FD0: 0F 52 14 80 F8 FF FF 7F  F8 FF FF 7F 73 30 32 32  .R..........s022
0FE0: 02 09 10 1B 80 00 FC 0F  45 14 80 F8 FF FF 7F F8  ........E.......
0FF0: FF FF 7F 73 30 33 34 01  80 01 29 10 02 09 10 1C  ...s034...).....
1000: 80 00 18 10 45 14 80 F8  FF FF 7F F8 FF FF 7F 73  ....E..........s
1010: 30 33 34 01 80 01 29 10  45 14 80 F8 FF FF 7F F8  034...).E.......
1020: FF FF 7F 73 30 32 34 01  80 7B 96 32 03 01 29 0F  ...s024..{.2..).
1030: F0 FF FF 7F 23 02 09 10  1B 80 00 4F 10 52 14 80  ....#......O.R..
1040: F8 FF FF 7F F8 FF FF 7F  73 30 33 34 01 78 10 02  ........s034.x..
1050: 09 10 1C 80 00 69 10 52  14 80 F8 FF FF 7F F8 FF  .....i.R........
1060: FF 7F 73 30 33 34 01 78  10 52 14 80 F8 FF FF 7F  ..s034.x.R......
1070: F8 FF FF 7F 73 30 32 34  45 14 80 F8 FF FF 7F F8  ....s024E.......
1080: FF FF 7F 73 30 33 30 01  80 7B 96 32 03 01 29 0F  ...s030..{.2..).
1090: 96 32 03 01 2B 2B 96 32  03 01 4A 80 23 29 0F 96  .2..++.2..J.#)..
10A0: 32 03 01 2C 29 0F F0 FF  FF 7F 24 29 0F 96 32 03  2..,).....$)..2.
10B0: 01 2D 2B 96 32 03 01 4B  80 23 29 0F 96 32 03 01  .-+.2..K.#)..2..
10C0: 2E 52 14 80 F8 FF FF 7F  F8 FF FF 7F 73 30 33 30  .R..........s030
10D0: 01 D3 10 01 54 11 02 09  10 1B 80 00 F0 10 52 14  ....T.........R.
10E0: 80 F8 FF FF 7F F8 FF FF  7F 73 30 33 32 01 19 11  .........s032...
10F0: 02 09 10 1C 80 00 0A 11  52 14 80 F8 FF FF 7F F8  ........R.......
1100: FF FF 7F 73 30 33 32 01  19 11 52 14 80 F8 FF FF  ...s032...R.....
1110: 7F F8 FF FF 7F 73 30 32  32 45 14 80 F8 FF FF 7F  .....s022E......
1120: F8 FF FF 7F 73 30 32 33  01 80 7B 96 32 03 01 29  ....s023..{.2..)
1130: 0F 96 32 03 01 29 2B 96  32 03 01 4C 80 23 29 0F  ..2..)+.2..L.#).
1140: 96 32 03 01 2A 52 14 80  F8 FF FF 7F F8 FF FF 7F  .2..*R..........
1150: 73 30 32 33 45 14 80 F8  FF FF 7F F8 FF FF 7F 73  s023E..........s
1160: 30 32 35 01 80 7B 96 32  03 01 2B 96 32 03 01 4D  025..{.2..+.2..M
1170: 80 1C 06 80 9F 4E 80 96  32 03 01 96 32 03 01 73  .....N..2...2..s
1180: 74 72 30 01 80 45 14 80  F0 FF FF 7F F0 FF FF 7F  tr0..E..........
1190: 6B 69 72 61 01 80 23 52  14 80 F8 FF FF 7F F8 FF  kira..#R........
11A0: FF 7F 73 30 32 35 45 14  80 F8 FF FF 7F F8 FF FF  ..s025E.........
11B0: 7F 73 30 32 37 01 80 2B  96 32 03 01 4F 80 23 52  .s027..+.2..O.#R
11C0: 14 80 F8 FF FF 7F F8 FF  FF 7F 73 30 32 37 45 14  ..........s027E.
11D0: 80 F8 FF FF 7F F8 FF FF  7F 73 30 32 36 01 80 81  .........s026...
11E0: 01 96 32 03 01 BB 50 80  96 32 03 01 AF 32 03 01  ..2...P..2...2..
11F0: 73 68 61 6F 01 80 29 0F  96 32 03 01 33 1C 15 80  shao..)..2..3...
1200: 52 14 80 F8 FF FF 7F F8  FF FF 7F 73 30 32 36 45  R..........s026E
1210: 14 80 F8 FF FF 7F F8 FF  FF 7F 73 30 32 38 01 80  ..........s028..
1220: 1C 51 80 5D 01 80 51 80  1A A6 00 52 14 80 F8 FF  .Q.]..Q....R....
1230: FF 7F F8 FF FF 7F 73 30  32 38 29 0F 96 32 03 01  ......s028)..2..
1240: 34 6C AF 32 03 01 01 80  03 80 6C 96 32 03 01 01  4l.2......l.2...
1250: 80 03 80 45 14 80 F8 FF  FF 7F F8 FF FF 7F 73 30  ...E..........s0
1260: 32 39 01 80 1A 85 00 6E  F0 FF FF 7F 40 80 99 F0  29.....n....@...
1270: FF FF 7F 1C 51 80 27 0F  F0 FF FF 7F 41 2A 0F F0  ....Q.'.....A*..
1280: FF FF 7F 1A 64 00 52 14  80 F8 FF FF 7F F8 FF FF  ....d.R.........
1290: 7F 73 30 32 39 D8 00 AF  32 03 01 1C 03 80 27 10  .s029...2.....'.
12A0: AF 32 03 01 0A 1C 22 80  5C 00 23 80 5C 01 23 80  .2....".\.#.\.#.
12B0: 5C 02 24 80 5C 03 25 80  9A 5D 13 80 03 80 AB 11  \.$.\.%..]......
12C0: 01 80 1C 03 80 46 00 45  00 80 F8 FF FF 7F F8 FF  .....F.E........
12D0: FF 7F 66 64 69 32 01 80  21 00                    ..fdi2..!.      
```

#### Opcodes

```
  0: 0x06A3 [0x42] SET_CLI_EVENT_CANCEL_DATA()
  1: 0x06A4 [0x5D] SET_MUSIC_VOLUME(volume=0*, fade_time=300*)
  2: 0x06A9 [0x03] ExtData[1]->WorkLocal[1] = Work_Zone[3]
  3: 0x06AE [0x1A] CALL_SUBROUTINE(address=0x0064)
  4: 0x06B1 [0x46] CAMERA_CONTROL: Disable user control
  5: 0x06B3 [0x38] SET_CLIENT_EVENT_MODE(mode=147*)
  6: 0x06B6 [0x02] IF !(Work_Zone[9] == 0*) GOTO 0x06C4
  7: 0x06BE [0x60] ZONE_SET_ACTION: Set zone action with param 0x31617473
  8: 0x06C4 [0x45] LOAD_SCHEDULED_TASK: Load scheduler "s036" with entities [EventEntity, EventEntity], work=[855*, 0*]
  9: 0x06D5 [0x2F] Returned Soulflayer (ID: 16986839/0x010332D7)->Render.Flags0 &= ~0x80000 // Bit 19
 10: 0x06DB [0x2F] Returned Soulflayer (ID: 16986840/0x010332D8)->Render.Flags0 &= ~0x80000 // Bit 19
 11: 0x06E1 [0x2F] Rishfee (ID: 16986799/0x010332AF)->Render.Flags0 &= ~0x80000 // Bit 19
 12: 0x06E7 [0x2F] Raubahn (ID: 16986774/0x01033296)->Render.Flags0 &= ~0x80000 // Bit 19
 13: 0x06ED [0x4E] SET_ENTITY_HIDE_FLAG: Show Returned Soulflayer (ID: 16986839/0x010332D7)
 14: 0x06F3 [0x4E] SET_ENTITY_HIDE_FLAG: Show Returned Soulflayer (ID: 16986840/0x010332D8)
 15: 0x06F9 [0x4E] SET_ENTITY_HIDE_FLAG: Show Rishfee (ID: 16986799/0x010332AF)
 16: 0x06FF [0x4E] SET_ENTITY_HIDE_FLAG: Show Raubahn (ID: 16986774/0x01033296)
 17: 0x0705 [0x29] REQ_SET_WAIT(priority=0x10, entity_id=Rishfee (ID: 16986799/0x010332AF), tag_num=0x09)
 18: 0x070C [0x94] Returned Soulflayer (ID: 16986839/0x010332D7)->Render.Flags3 ^= 0x01
 19: 0x0712 [0x94] Returned Soulflayer (ID: 16986840/0x010332D8)->Render.Flags3 ^= 0x01
 20: 0x0718 [0x94] Rishfee (ID: 16986799/0x010332AF)->Render.Flags3 ^= 0x01
 21: 0x071E [0x94] Raubahn (ID: 16986774/0x01033296)->Render.Flags3 ^= 0x01
 22: 0x0724 [0x94] LocalPlayer->Render.Flags3 ^= 0x01
 23: 0x072A [0xBA] SET_ENTITY_POSITION(entity_id=EventEntity, pos_x=-56.909*, pos_z=-647.429*, pos_y=-12.094*, direction=322.7°*)
 24: 0x0737 [0xBA] SET_ENTITY_POSITION(entity_id=Returned Soulflayer (ID: 16986839/0x010332D7), pos_x=-57.294*, pos_z=-647.677*, pos_y=-12.021*, direction=17.6°*)
 25: 0x0744 [0xBA] SET_ENTITY_POSITION(entity_id=Returned Soulflayer (ID: 16986840/0x010332D8), pos_x=-57.294*, pos_z=-647.677*, pos_y=-12.021*, direction=17.6°*)
 26: 0x0751 [0xBA] SET_ENTITY_POSITION(entity_id=Rishfee (ID: 16986799/0x010332AF), pos_x=-57.294*, pos_z=-647.677*, pos_y=-12.021*, direction=17.6°*)
 27: 0x075E [0xD8] SET_ENTITY_EVENT_DIR: Set Rishfee (ID: 16986799/0x010332AF) EventDir[2] = 4294967196*
 28: 0x0766 [0xBA] SET_ENTITY_POSITION(entity_id=Raubahn (ID: 16986774/0x01033296), pos_x=-54.528*, pos_z=-641.019*, pos_y=-12.250*, direction=143.3°*)
 29: 0x0773 [0x29] REQ_SET_WAIT(priority=0x0F, entity_id=LocalPlayer, tag_num=0x3C)
 30: 0x077A [0x02] IF !(Work_Zone[9] == 5*) GOTO 0x0792
 31: 0x0782 [0xBA] SET_ENTITY_POSITION(entity_id=LocalPlayer, pos_x=-61.775*, pos_z=-649.152*, pos_y=-11.004*, direction=312.6°*)
 32: 0x078F [0x01] GOTO 0x07B7
 33: 0x0792 [0x02] IF !(Work_Zone[9] == 6*) GOTO 0x07AA
 34: 0x079A [0xBA] SET_ENTITY_POSITION(entity_id=LocalPlayer, pos_x=-61.775*, pos_z=-649.152*, pos_y=-11.004*, direction=312.6°*)
 35: 0x07A7 [0x01] GOTO 0x07B7
 36: 0x07AA [0xBA] SET_ENTITY_POSITION(entity_id=LocalPlayer, pos_x=-62.547*, pos_z=-651.581*, pos_y=-10.816*, direction=135.3°*)

SUBROUTINE_07B7:
 37: 0x07B7 [0x80] LOAD_WAIT(entity=Returned Soulflayer (ID: 16986839/0x010332D7))
 38: 0x07BC [0x80] LOAD_WAIT(entity=Returned Soulflayer (ID: 16986840/0x010332D8))
 39: 0x07C1 [0x80] LOAD_WAIT(entity=Rishfee (ID: 16986799/0x010332AF))
 40: 0x07C6 [0x80] LOAD_WAIT(entity=Raubahn (ID: 16986774/0x01033296))
 41: 0x07CB [0x80] LOAD_WAIT(entity=LocalPlayer)
 42: 0x07D0 [0x1C] WAIT(5* ticks)
 43: 0x07D3 [0x2C] CREATE_SCHEDULER_TASK: Create scheduler "corp" with entities [Returned Soulflayer (ID: 16986840/0x010332D8), Returned Soulflayer (ID: 16986840/0x010332D8)]
 44: 0x07E0 [0x53] WAIT_SCHEDULER_TASK: Wait for scheduler "corp" with entities [Returned Soulflayer (ID: 16986840/0x010332D8), Returned Soulflayer (ID: 16986840/0x010332D8)]
 45: 0x07ED [0x66] LOAD_EXT_SCHEDULER_MAIN: Load scheduler "slp0" with entities [Rishfee (ID: 16986799/0x010332AF), Rishfee (ID: 16986799/0x010332AF)], work=73*
 46: 0x07FC [0x53] WAIT_SCHEDULER_TASK: Wait for scheduler "slp0" with entities [Rishfee (ID: 16986799/0x010332AF), Rishfee (ID: 16986799/0x010332AF)]
 47: 0x0809 [0x6C] FADE_ENTITY_COLOR(entity_id=Returned Soulflayer (ID: 16986840/0x010332D8), end_alpha=0*, fade_time=1*)
 48: 0x0812 [0x6C] FADE_ENTITY_COLOR(entity_id=Rishfee (ID: 16986799/0x010332AF), end_alpha=0*, fade_time=1*)
 49: 0x081B [0x6C] FADE_ENTITY_COLOR(entity_id=Raubahn (ID: 16986774/0x01033296), end_alpha=0*, fade_time=1*)
 50: 0x0824 [0x4A] LocalPlayer looks at Returned Soulflayer (ID: 16986840/0x010332D8)
 51: 0x082D [0x6F] WAIT_FRAME_DELAY: Yield until WaitTime reaches zero
 52: 0x082E [0x76] CHECK_ENTITY_RENDER_FLAGS: Wait until LocalPlayer Render.Flags0 and Render.Flags3 conditions are met
 53: 0x0833 [0x5C] MUSIC_CONTROL: Set Idle (Day) music to song 148*
 54: 0x0837 [0x5C] MUSIC_CONTROL: Set Idle (Night) music to song 148*
 55: 0x083B [0x5C] MUSIC_CONTROL: Set Combat (Solo) music to song 148*
 56: 0x083F [0x5C] MUSIC_CONTROL: Set Combat (Party) music to song 148*
 57: 0x0843 [0x9A] WAIT_MUSIC_SERVER()
 58: 0x0844 [0x5D] SET_MUSIC_VOLUME(volume=127*, fade_time=1*)
 59: 0x0849 [0x79] LocalPlayer looks at EventEntity (Basic look)
 60: 0x0853 [0x2C] CREATE_SCHEDULER_TASK: Create scheduler "dead" with entities [Returned Soulflayer (ID: 16986839/0x010332D7), Returned Soulflayer (ID: 16986839/0x010332D7)]
 61: 0x0860 [0x1C] WAIT(5* ticks)
 62: 0x0863 [0x52] END_LOAD_SCHEDULER: End scheduler "s036" with entities [EventEntity, EventEntity], work=855*
 63: 0x0872 [0x45] LOAD_SCHEDULED_TASK: Load scheduler "s013" with entities [EventEntity, EventEntity], work=[855*, 0*]
 64: 0x0883 [0x1A] CALL_SUBROUTINE(address=0x0043)
 65: 0x0886 [0x45] LOAD_SCHEDULED_TASK: Load scheduler "6014" with entities [EventEntity, EventEntity], work=[855*, 0*]
 66: 0x0897 [0x1C] WAIT(60* ticks)
 67: 0x089A [0x52] END_LOAD_SCHEDULER: End scheduler "s013" with entities [EventEntity, EventEntity], work=855*
 68: 0x08A9 [0x45] LOAD_SCHEDULED_TASK: Load scheduler "s012" with entities [EventEntity, EventEntity], work=[855*, 0*]
 69: 0x08BA [0x1C] WAIT(40* ticks)
 70: 0x08BD [0x52] END_LOAD_SCHEDULER: End scheduler "s012" with entities [EventEntity, EventEntity], work=855*
 71: 0x08CC [0x45] LOAD_SCHEDULED_TASK: Load scheduler "s011" with entities [EventEntity, EventEntity], work=[855*, 0*]
 72: 0x08DD [0x1C] WAIT(60* ticks)
 73: 0x08E0 [0x52] END_LOAD_SCHEDULER: End scheduler "s011" with entities [EventEntity, EventEntity], work=855*
 74: 0x08EF [0x02] IF !(Work_Zone[9] == 5*) GOTO 0x0912
 75: 0x08F7 [0x45] LOAD_SCHEDULED_TASK: Load scheduler "s031" with entities [EventEntity, EventEntity], work=[855*, 0*]
 76: 0x0908 [0x27] REQ_SET(priority=0x0F, entity_id=LocalPlayer, tag_num=0x42)
 77: 0x090F [0x01] GOTO 0x094D
 78: 0x0912 [0x02] IF !(Work_Zone[9] == 6*) GOTO 0x0935
 79: 0x091A [0x45] LOAD_SCHEDULED_TASK: Load scheduler "s031" with entities [EventEntity, EventEntity], work=[855*, 0*]
 80: 0x092B [0x27] REQ_SET(priority=0x0F, entity_id=LocalPlayer, tag_num=0x42)
 81: 0x0932 [0x01] GOTO 0x094D
 82: 0x0935 [0x45] LOAD_SCHEDULED_TASK: Load scheduler "s010" with entities [EventEntity, EventEntity], work=[855*, 0*]
 83: 0x0946 [0x27] REQ_SET(priority=0x0F, entity_id=LocalPlayer, tag_num=0x3F)

SUBROUTINE_094D:
 84: 0x094D [0x53] WAIT_SCHEDULER_TASK: Wait for scheduler "corp" with entities [Returned Soulflayer (ID: 16986839/0x010332D7), Returned Soulflayer (ID: 16986839/0x010332D7)]
 85: 0x095A [0x1C] WAIT(60* ticks)
 86: 0x095D [0x02] IF !(Work_Zone[9] == 5*) GOTO 0x096E
 87: 0x0965 [0x2A] GET_REQ_LEVEL(level=15, entity_id=LocalPlayer)
 88: 0x096B [0x01] GOTO 0x0985
 89: 0x096E [0x02] IF !(Work_Zone[9] == 6*) GOTO 0x097F
 90: 0x0976 [0x2A] GET_REQ_LEVEL(level=15, entity_id=LocalPlayer)
 91: 0x097C [0x01] GOTO 0x0985
 92: 0x097F [0x2A] GET_REQ_LEVEL(level=15, entity_id=LocalPlayer)

SUBROUTINE_0985:
 93: 0x0985 [0x27] REQ_SET(priority=0x0F, entity_id=LocalPlayer, tag_num=0x13)
 94: 0x098C [0x1C] WAIT(30* ticks)
 95: 0x098F [0x02] IF !(Work_Zone[9] == 5*) GOTO 0x09A9
 96: 0x0997 [0x52] END_LOAD_SCHEDULER: End scheduler "s031" with entities [EventEntity, EventEntity], work=855*
 97: 0x09A6 [0x01] GOTO 0x09D2
 98: 0x09A9 [0x02] IF !(Work_Zone[9] == 6*) GOTO 0x09C3
 99: 0x09B1 [0x52] END_LOAD_SCHEDULER: End scheduler "s031" with entities [EventEntity, EventEntity], work=855*
100: 0x09C0 [0x01] GOTO 0x09D2
101: 0x09C3 [0x52] END_LOAD_SCHEDULER: End scheduler "s010" with entities [EventEntity, EventEntity], work=855*

SUBROUTINE_09D2:
102: 0x09D2 [0x45] LOAD_SCHEDULED_TASK: Load scheduler "s019" with entities [EventEntity, EventEntity], work=[855*, 0*]
103: 0x09E3 [0x03] Work_Zone[0] = 1*

SUBROUTINE_09E8:
104: 0x09E8 [0x02] IF !(Work_Zone[0] == 0*) GOTO 0x0A50
105: 0x09F0 [0x24] CREATE_DIALOG(message_id=9749*, default_option=0*, option_flags=0*)
    → "Take part of the body? [Yes./No.]"
106: 0x09F7 [0x25] WAIT_DIALOG_SELECT()
107: 0x09F8 [0x02] IF !(Work_Zone[0] == 1*) GOTO 0x0A4D
108: 0x0A00 [0x52] END_LOAD_SCHEDULER: End scheduler "s019" with entities [EventEntity, EventEntity], work=855*
109: 0x0A0F [0x45] LOAD_SCHEDULED_TASK: Load scheduler "s035" with entities [EventEntity, EventEntity], work=[855*, 0*]
110: 0x0A20 [0x2B] Returned Soulflayer (ID: 16986839/0x010332D7) [9750*]:
    → "Urk..."
111: 0x0A27 [0x1C] WAIT(90* ticks)
112: 0x0A2A [0x52] END_LOAD_SCHEDULER: End scheduler "s035" with entities [EventEntity, EventEntity], work=855*
113: 0x0A39 [0x45] LOAD_SCHEDULED_TASK: Load scheduler "s019" with entities [EventEntity, EventEntity], work=[855*, 0*]
114: 0x0A4A [0x01] GOTO 0x0A4D

SUBROUTINE_0A4D:
115: 0x0A4D [0x01] GOTO 0x09E8
116: 0x0A50 [0x1A] CALL_SUBROUTINE(address=0x0064)
117: 0x0A53 [0x1C] WAIT(30* ticks)
118: 0x0A56 [0xD8] SET_ENTITY_EVENT_DIR: Set Returned Soulflayer (ID: 16986839/0x010332D7) EventDir[1] = 4294967166*
119: 0x0A5E [0xD8] SET_ENTITY_EVENT_DIR: Set Returned Soulflayer (ID: 16986840/0x010332D8) EventDir[1] = 4294967166*
120: 0x0A66 [0x52] END_LOAD_SCHEDULER: End scheduler "s019" with entities [EventEntity, EventEntity], work=855*
121: 0x0A75 [0x45] LOAD_SCHEDULED_TASK: Load scheduler "brof" with entities [EventEntity, EventEntity], work=[855*, 0*]
122: 0x0A86 [0x2A] GET_REQ_LEVEL(level=15, entity_id=LocalPlayer)
123: 0x0A8C [0x1C] WAIT(40* ticks)
124: 0x0A8F [0x45] LOAD_SCHEDULED_TASK: Load scheduler "s014" with entities [EventEntity, EventEntity], work=[855*, 0*]
125: 0x0AA0 [0x27] REQ_SET(priority=0x0F, entity_id=LocalPlayer, tag_num=0x14)
126: 0x0AA7 [0x1A] CALL_SUBROUTINE(address=0x0043)
127: 0x0AAA [0x2A] GET_REQ_LEVEL(level=15, entity_id=LocalPlayer)
128: 0x0AB0 [0x27] REQ_SET(priority=0x0F, entity_id=LocalPlayer, tag_num=0x40)
129: 0x0AB7 [0x1C] WAIT(60* ticks)
130: 0x0ABA [0xD0] LOAD_SCHEDULED_TASK_ALT5: Load scheduler "o002" with entities [Returned Soulflayer (ID: 16986839/0x010332D7), Returned Soulflayer (ID: 16986839/0x010332D7)], work=[23*, 0*]
131: 0x0ACB [0x2A] GET_REQ_LEVEL(level=15, entity_id=LocalPlayer)
132: 0x0AD1 [0x4A] LocalPlayer looks at Returned Soulflayer (ID: 16986839/0x010332D7)
133: 0x0ADA [0x6F] WAIT_FRAME_DELAY: Yield until WaitTime reaches zero
134: 0x0ADB [0x76] CHECK_ENTITY_RENDER_FLAGS: Wait until LocalPlayer Render.Flags0 and Render.Flags3 conditions are met
135: 0x0AE0 [0x52] END_LOAD_SCHEDULER: End scheduler "s014" with entities [EventEntity, EventEntity], work=855*
136: 0x0AEF [0x45] LOAD_SCHEDULED_TASK: Load scheduler "s015" with entities [EventEntity, EventEntity], work=[855*, 0*]
137: 0x0B00 [0x45] LOAD_SCHEDULED_TASK: Load scheduler "8297" with entities [EventEntity, EventEntity], work=[855*, 0*]
138: 0x0B11 [0xD0] LOAD_SCHEDULED_TASK_ALT5: Load scheduler "ost0" with entities [Returned Soulflayer (ID: 16986839/0x010332D7), Returned Soulflayer (ID: 16986839/0x010332D7)], work=[23*, 0*]
139: 0x0B22 [0xD0] LOAD_SCHEDULED_TASK_ALT5: Load scheduler "okl2" with entities [Returned Soulflayer (ID: 16986839/0x010332D7), Returned Soulflayer (ID: 16986839/0x010332D7)], work=[23*, 0*]
140: 0x0B33 [0xD0] LOAD_SCHEDULED_TASK_ALT5: Load scheduler "o003" with entities [Returned Soulflayer (ID: 16986839/0x010332D7), Returned Soulflayer (ID: 16986839/0x010332D7)], work=[23*, 0*]
141: 0x0B44 [0x27] REQ_SET(priority=0x10, entity_id=Returned Soulflayer (ID: 16986839/0x010332D7), tag_num=0x0F)
142: 0x0B4B [0x27] REQ_SET(priority=0x10, entity_id=Returned Soulflayer (ID: 16986840/0x010332D8), tag_num=0x02)
143: 0x0B52 [0x1C] WAIT(60* ticks)
144: 0x0B55 [0x6F] WAIT_FRAME_DELAY: Yield until WaitTime reaches zero
145: 0x0B56 [0x76] CHECK_ENTITY_RENDER_FLAGS: Wait until LocalPlayer Render.Flags0 and Render.Flags3 conditions are met
146: 0x0B5B [0x6E] LocalPlayer uses emote 21*
147: 0x0B62 [0x99] Wait for LocalPlayer animation to complete
148: 0x0B67 [0x1C] WAIT(60* ticks)
149: 0x0B6A [0x55] WAIT_LOAD_SCHEDULER: Wait for scheduler "s015" with entities [EventEntity, EventEntity], work=855*
150: 0x0B79 [0x1C] WAIT(60* ticks)
151: 0x0B7C [0x45] LOAD_SCHEDULED_TASK: Load scheduler "s016" with entities [EventEntity, EventEntity], work=[855*, 0*]
152: 0x0B8D [0x1C] WAIT(60* ticks)
153: 0x0B90 [0x1C] WAIT(60* ticks)
154: 0x0B93 [0x52] END_LOAD_SCHEDULER: End scheduler "s016" with entities [EventEntity, EventEntity], work=855*
155: 0x0BA2 [0x45] LOAD_SCHEDULED_TASK: Load scheduler "s017" with entities [EventEntity, EventEntity], work=[855*, 0*]
156: 0x0BB3 [0x1C] WAIT(60* ticks)
157: 0x0BB6 [0x27] REQ_SET(priority=0x10, entity_id=Returned Soulflayer (ID: 16986840/0x010332D8), tag_num=0x03)
158: 0x0BBD [0x1C] WAIT(60* ticks)
159: 0x0BC0 [0x27] REQ_SET(priority=0x10, entity_id=Rishfee (ID: 16986799/0x010332AF), tag_num=0x08)
160: 0x0BC7 [0x1C] WAIT(60* ticks)
161: 0x0BCA [0x6E] LocalPlayer uses emote 21*
162: 0x0BD1 [0x99] Wait for LocalPlayer animation to complete
163: 0x0BD6 [0x1C] WAIT(60* ticks)
164: 0x0BD9 [0x1C] WAIT(60* ticks)
165: 0x0BDC [0x1C] WAIT(60* ticks)
166: 0x0BDF [0x2B] Rishfee (ID: 16986799/0x010332AF) [9751*]:
    → "Oof..."
167: 0x0BE6 [0x1C] WAIT(60* ticks)
168: 0x0BE9 [0x6C] FADE_ENTITY_COLOR(entity_id=Raubahn (ID: 16986774/0x01033296), end_alpha=128*, fade_time=1*)
169: 0x0BF2 [0x27] REQ_SET(priority=0x0F, entity_id=Raubahn (ID: 16986774/0x01033296), tag_num=0x43)
170: 0x0BF9 [0x1C] WAIT(8* ticks)
171: 0x0BFC [0x52] END_LOAD_SCHEDULER: End scheduler "s017" with entities [EventEntity, EventEntity], work=855*
172: 0x0C0B [0x45] LOAD_SCHEDULED_TASK: Load scheduler "s018" with entities [EventEntity, EventEntity], work=[855*, 0*]
173: 0x0C1C [0x1C] WAIT(90* ticks)
174: 0x0C1F [0x52] END_LOAD_SCHEDULER: End scheduler "s018" with entities [EventEntity, EventEntity], work=855*
175: 0x0C2E [0x45] LOAD_SCHEDULED_TASK: Load scheduler "s020" with entities [EventEntity, EventEntity], work=[855*, 0*]
176: 0x0C3F [0x2B] Raubahn (ID: 16986774/0x01033296) [9752*]:
    → "Comrade."
177: 0x0C46 [0x23] WAIT_FOR_DIALOG_INTERACTION
178: 0x0C47 [0x2A] GET_REQ_LEVEL(level=15, entity_id=Raubahn (ID: 16986774/0x01033296))
179: 0x0C4D [0x52] END_LOAD_SCHEDULER: End scheduler "s020" with entities [EventEntity, EventEntity], work=855*
180: 0x0C5C [0x45] LOAD_SCHEDULED_TASK: Load scheduler "s021" with entities [EventEntity, EventEntity], work=[855*, 0*]
181: 0x0C6D [0x4A] LocalPlayer looks at Raubahn (ID: 16986774/0x01033296)
182: 0x0C76 [0x4A] Raubahn (ID: 16986774/0x01033296) looks at LocalPlayer
183: 0x0C7F [0x29] REQ_SET_WAIT(priority=0x0F, entity_id=Raubahn (ID: 16986774/0x01033296), tag_num=0x23)
184: 0x0C86 [0x2B] Raubahn (ID: 16986774/0x01033296) [9753*]:
    → "You died an honorable death, and were to have known peace at last."
185: 0x0C8D [0x23] WAIT_FOR_DIALOG_INTERACTION
186: 0x0C8E [0x29] REQ_SET_WAIT(priority=0x0F, entity_id=Raubahn (ID: 16986774/0x01033296), tag_num=0x24)
187: 0x0C95 [0x6F] WAIT_FRAME_DELAY: Yield until WaitTime reaches zero
188: 0x0C96 [0x76] CHECK_ENTITY_RENDER_FLAGS: Wait until LocalPlayer Render.Flags0 and Render.Flags3 conditions are met
189: 0x0C9B [0x6F] WAIT_FRAME_DELAY: Yield until WaitTime reaches zero
190: 0x0C9C [0x76] CHECK_ENTITY_RENDER_FLAGS: Wait until Raubahn (ID: 16986774/0x01033296) Render.Flags0 and Render.Flags3 conditions are met
191: 0x0CA1 [0x52] END_LOAD_SCHEDULER: End scheduler "s021" with entities [EventEntity, EventEntity], work=855*
192: 0x0CB0 [0x02] IF !(Work_Zone[9] == 5*) GOTO 0x0CCC
193: 0x0CB8 [0x45] LOAD_SCHEDULED_TASK: Load scheduler "s032" with entities [EventEntity, EventEntity], work=[855*, 0*]
194: 0x0CC9 [0x01] GOTO 0x0CF9
195: 0x0CCC [0x02] IF !(Work_Zone[9] == 6*) GOTO 0x0CE8
196: 0x0CD4 [0x45] LOAD_SCHEDULED_TASK: Load scheduler "s032" with entities [EventEntity, EventEntity], work=[855*, 0*]
197: 0x0CE5 [0x01] GOTO 0x0CF9
198: 0x0CE8 [0x45] LOAD_SCHEDULED_TASK: Load scheduler "s022" with entities [EventEntity, EventEntity], work=[855*, 0*]

SUBROUTINE_0CF9:
199: 0x0CF9 [0x02] IF !(ExtData[1]->WorkLocal[1] == 1*) GOTO 0x0D0E
200: 0x0D01 [0x79] Raubahn (ID: 16986774/0x01033296) looks at LocalPlayer (Basic look)
201: 0x0D0B [0x01] GOTO 0x0D13
202: 0x0D0E [0x7B] Raubahn (ID: 16986774/0x01033296) stops talking

SUBROUTINE_0D13:
203: 0x0D13 [0x4E] SET_ENTITY_HIDE_FLAG: Hide Returned Soulflayer (ID: 16986839/0x010332D7)
204: 0x0D19 [0x2B] Raubahn (ID: 16986774/0x01033296) [9754*]:
    → "Yet what has awoken you from your slumber?"
205: 0x0D20 [0x1C] WAIT(20* ticks)
206: 0x0D23 [0x79] LocalPlayer looks at Raubahn (ID: 16986774/0x01033296) (Basic look)
207: 0x0D2D [0x23] WAIT_FOR_DIALOG_INTERACTION
208: 0x0D2E [0x81] SET_ENTITY_BLINKING(blink_flag=0x00, entity=Raubahn (ID: 16986774/0x01033296))
209: 0x0D34 [0x02] IF !(ExtData[1]->WorkLocal[1] == 1*) GOTO 0x10D6
210: 0x0D3C [0x24] CREATE_DIALOG(message_id=9755*, default_option=0*, option_flags=0*)
    → "How do you respond? [I don't know./Please tell me./Thep ower of the blue.]"
211: 0x0D43 [0x25] WAIT_DIALOG_SELECT()
212: 0x0D44 [0x02] IF !(Work_Zone[0] == 0*) GOTO 0x0E6D
213: 0x0D4C [0x02] IF !(Work_Zone[9] == 5*) GOTO 0x0D66
214: 0x0D54 [0x52] END_LOAD_SCHEDULER: End scheduler "s032" with entities [EventEntity, EventEntity], work=855*
215: 0x0D63 [0x01] GOTO 0x0D8F
216: 0x0D66 [0x02] IF !(Work_Zone[9] == 6*) GOTO 0x0D80
217: 0x0D6E [0x52] END_LOAD_SCHEDULER: End scheduler "s032" with entities [EventEntity, EventEntity], work=855*
218: 0x0D7D [0x01] GOTO 0x0D8F
219: 0x0D80 [0x52] END_LOAD_SCHEDULER: End scheduler "s022" with entities [EventEntity, EventEntity], work=855*

SUBROUTINE_0D8F:
220: 0x0D8F [0x02] IF !(Work_Zone[9] == 5*) GOTO 0x0DAB
221: 0x0D97 [0x45] LOAD_SCHEDULED_TASK: Load scheduler "s033" with entities [EventEntity, EventEntity], work=[855*, 0*]
222: 0x0DA8 [0x01] GOTO 0x0DD8
223: 0x0DAB [0x02] IF !(Work_Zone[9] == 6*) GOTO 0x0DC7
224: 0x0DB3 [0x45] LOAD_SCHEDULED_TASK: Load scheduler "s033" with entities [EventEntity, EventEntity], work=[855*, 0*]
225: 0x0DC4 [0x01] GOTO 0x0DD8
226: 0x0DC7 [0x45] LOAD_SCHEDULED_TASK: Load scheduler "s024" with entities [EventEntity, EventEntity], work=[855*, 0*]

SUBROUTINE_0DD8:
227: 0x0DD8 [0x7B] Raubahn (ID: 16986774/0x01033296) stops talking
228: 0x0DDD [0x6E] LocalPlayer uses emote 6*
229: 0x0DE4 [0x99] Wait for LocalPlayer animation to complete
230: 0x0DE9 [0x1C] WAIT(90* ticks)
231: 0x0DEC [0x02] IF !(Work_Zone[9] == 5*) GOTO 0x0E06
232: 0x0DF4 [0x52] END_LOAD_SCHEDULER: End scheduler "s033" with entities [EventEntity, EventEntity], work=855*
233: 0x0E03 [0x01] GOTO 0x0E2F
234: 0x0E06 [0x02] IF !(Work_Zone[9] == 6*) GOTO 0x0E20
235: 0x0E0E [0x52] END_LOAD_SCHEDULER: End scheduler "s033" with entities [EventEntity, EventEntity], work=855*
236: 0x0E1D [0x01] GOTO 0x0E2F
237: 0x0E20 [0x52] END_LOAD_SCHEDULER: End scheduler "s024" with entities [EventEntity, EventEntity], work=855*

SUBROUTINE_0E2F:
238: 0x0E2F [0x45] LOAD_SCHEDULED_TASK: Load scheduler "s023" with entities [EventEntity, EventEntity], work=[855*, 0*]
239: 0x0E40 [0x7B] Raubahn (ID: 16986774/0x01033296) stops talking
240: 0x0E45 [0x29] REQ_SET_WAIT(priority=0x0F, entity_id=Raubahn (ID: 16986774/0x01033296), tag_num=0x29)
241: 0x0E4C [0x2B] Raubahn (ID: 16986774/0x01033296) [9756*]:
    → "The power of the blue...?"
242: 0x0E53 [0x23] WAIT_FOR_DIALOG_INTERACTION
243: 0x0E54 [0x29] REQ_SET_WAIT(priority=0x0F, entity_id=Raubahn (ID: 16986774/0x01033296), tag_num=0x2A)
244: 0x0E5B [0x52] END_LOAD_SCHEDULER: End scheduler "s023" with entities [EventEntity, EventEntity], work=855*
245: 0x0E6A [0x01] GOTO 0x10D3
246: 0x0E6D [0x02] IF !(Work_Zone[0] == 1*) GOTO 0x0F95
247: 0x0E75 [0x02] IF !(Work_Zone[9] == 5*) GOTO 0x0E8F
248: 0x0E7D [0x52] END_LOAD_SCHEDULER: End scheduler "s032" with entities [EventEntity, EventEntity], work=855*
249: 0x0E8C [0x01] GOTO 0x0EB8
250: 0x0E8F [0x02] IF !(Work_Zone[9] == 6*) GOTO 0x0EA9
251: 0x0E97 [0x52] END_LOAD_SCHEDULER: End scheduler "s032" with entities [EventEntity, EventEntity], work=855*
252: 0x0EA6 [0x01] GOTO 0x0EB8
253: 0x0EA9 [0x52] END_LOAD_SCHEDULER: End scheduler "s022" with entities [EventEntity, EventEntity], work=855*

SUBROUTINE_0EB8:
254: 0x0EB8 [0x02] IF !(Work_Zone[9] == 5*) GOTO 0x0ED4
255: 0x0EC0 [0x45] LOAD_SCHEDULED_TASK: Load scheduler "s033" with entities [EventEntity, EventEntity], work=[855*, 0*]
256: 0x0ED1 [0x01] GOTO 0x0F01
257: 0x0ED4 [0x02] IF !(Work_Zone[9] == 6*) GOTO 0x0EF0
258: 0x0EDC [0x45] LOAD_SCHEDULED_TASK: Load scheduler "s033" with entities [EventEntity, EventEntity], work=[855*, 0*]
259: 0x0EED [0x01] GOTO 0x0F01
260: 0x0EF0 [0x45] LOAD_SCHEDULED_TASK: Load scheduler "s024" with entities [EventEntity, EventEntity], work=[855*, 0*]

SUBROUTINE_0F01:
261: 0x0F01 [0x7B] Raubahn (ID: 16986774/0x01033296) stops talking
262: 0x0F06 [0x29] REQ_SET_WAIT(priority=0x0F, entity_id=LocalPlayer, tag_num=0x23)
263: 0x0F0D [0x02] IF !(Work_Zone[9] == 5*) GOTO 0x0F27
264: 0x0F15 [0x52] END_LOAD_SCHEDULER: End scheduler "s033" with entities [EventEntity, EventEntity], work=855*
265: 0x0F24 [0x01] GOTO 0x0F50
266: 0x0F27 [0x02] IF !(Work_Zone[9] == 6*) GOTO 0x0F41
267: 0x0F2F [0x52] END_LOAD_SCHEDULER: End scheduler "s033" with entities [EventEntity, EventEntity], work=855*
268: 0x0F3E [0x01] GOTO 0x0F50
269: 0x0F41 [0x52] END_LOAD_SCHEDULER: End scheduler "s024" with entities [EventEntity, EventEntity], work=855*

SUBROUTINE_0F50:
270: 0x0F50 [0x45] LOAD_SCHEDULED_TASK: Load scheduler "s023" with entities [EventEntity, EventEntity], work=[855*, 0*]
271: 0x0F61 [0x7B] Raubahn (ID: 16986774/0x01033296) stops talking
272: 0x0F66 [0x29] REQ_SET_WAIT(priority=0x0F, entity_id=Raubahn (ID: 16986774/0x01033296), tag_num=0x29)
273: 0x0F6D [0x2B] Raubahn (ID: 16986774/0x01033296) [9757*]:
    → "Could it be the power of the blue?"
274: 0x0F74 [0x29] REQ_SET_WAIT(priority=0x0F, entity_id=LocalPlayer, tag_num=0x24)
275: 0x0F7B [0x23] WAIT_FOR_DIALOG_INTERACTION
276: 0x0F7C [0x29] REQ_SET_WAIT(priority=0x0F, entity_id=Raubahn (ID: 16986774/0x01033296), tag_num=0x2A)
277: 0x0F83 [0x52] END_LOAD_SCHEDULER: End scheduler "s023" with entities [EventEntity, EventEntity], work=855*
278: 0x0F92 [0x01] GOTO 0x10D3
279: 0x0F95 [0x02] IF !(Work_Zone[0] == 2*) GOTO 0x10D3
280: 0x0F9D [0x02] IF !(Work_Zone[9] == 5*) GOTO 0x0FB7
281: 0x0FA5 [0x52] END_LOAD_SCHEDULER: End scheduler "s032" with entities [EventEntity, EventEntity], work=855*
282: 0x0FB4 [0x01] GOTO 0x0FE0
283: 0x0FB7 [0x02] IF !(Work_Zone[9] == 6*) GOTO 0x0FD1
284: 0x0FBF [0x52] END_LOAD_SCHEDULER: End scheduler "s032" with entities [EventEntity, EventEntity], work=855*
285: 0x0FCE [0x01] GOTO 0x0FE0
286: 0x0FD1 [0x52] END_LOAD_SCHEDULER: End scheduler "s022" with entities [EventEntity, EventEntity], work=855*

SUBROUTINE_0FE0:
287: 0x0FE0 [0x02] IF !(Work_Zone[9] == 5*) GOTO 0x0FFC
288: 0x0FE8 [0x45] LOAD_SCHEDULED_TASK: Load scheduler "s034" with entities [EventEntity, EventEntity], work=[855*, 0*]
289: 0x0FF9 [0x01] GOTO 0x1029
290: 0x0FFC [0x02] IF !(Work_Zone[9] == 6*) GOTO 0x1018
291: 0x1004 [0x45] LOAD_SCHEDULED_TASK: Load scheduler "s034" with entities [EventEntity, EventEntity], work=[855*, 0*]
292: 0x1015 [0x01] GOTO 0x1029
293: 0x1018 [0x45] LOAD_SCHEDULED_TASK: Load scheduler "s024" with entities [EventEntity, EventEntity], work=[855*, 0*]

SUBROUTINE_1029:
294: 0x1029 [0x7B] Raubahn (ID: 16986774/0x01033296) stops talking
295: 0x102E [0x29] REQ_SET_WAIT(priority=0x0F, entity_id=LocalPlayer, tag_num=0x23)
296: 0x1035 [0x02] IF !(Work_Zone[9] == 5*) GOTO 0x104F
297: 0x103D [0x52] END_LOAD_SCHEDULER: End scheduler "s034" with entities [EventEntity, EventEntity], work=855*
298: 0x104C [0x01] GOTO 0x1078
299: 0x104F [0x02] IF !(Work_Zone[9] == 6*) GOTO 0x1069
300: 0x1057 [0x52] END_LOAD_SCHEDULER: End scheduler "s034" with entities [EventEntity, EventEntity], work=855*
301: 0x1066 [0x01] GOTO 0x1078
302: 0x1069 [0x52] END_LOAD_SCHEDULER: End scheduler "s024" with entities [EventEntity, EventEntity], work=855*

SUBROUTINE_1078:
303: 0x1078 [0x45] LOAD_SCHEDULED_TASK: Load scheduler "s030" with entities [EventEntity, EventEntity], work=[855*, 0*]
304: 0x1089 [0x7B] Raubahn (ID: 16986774/0x01033296) stops talking
305: 0x108E [0x29] REQ_SET_WAIT(priority=0x0F, entity_id=Raubahn (ID: 16986774/0x01033296), tag_num=0x2B)
306: 0x1095 [0x2B] Raubahn (ID: 16986774/0x01033296) [9758*]:
    → "And it had invaded my dear comrade?"
307: 0x109C [0x23] WAIT_FOR_DIALOG_INTERACTION
308: 0x109D [0x29] REQ_SET_WAIT(priority=0x0F, entity_id=Raubahn (ID: 16986774/0x01033296), tag_num=0x2C)
309: 0x10A4 [0x29] REQ_SET_WAIT(priority=0x0F, entity_id=LocalPlayer, tag_num=0x24)
310: 0x10AB [0x29] REQ_SET_WAIT(priority=0x0F, entity_id=Raubahn (ID: 16986774/0x01033296), tag_num=0x2D)
311: 0x10B2 [0x2B] Raubahn (ID: 16986774/0x01033296) [9759*]:
    → "Even if that were true...what would be the purpose?"
312: 0x10B9 [0x23] WAIT_FOR_DIALOG_INTERACTION
313: 0x10BA [0x29] REQ_SET_WAIT(priority=0x0F, entity_id=Raubahn (ID: 16986774/0x01033296), tag_num=0x2E)
314: 0x10C1 [0x52] END_LOAD_SCHEDULER: End scheduler "s030" with entities [EventEntity, EventEntity], work=855*
315: 0x10D0 [0x01] GOTO 0x10D3

SUBROUTINE_10D3:
316: 0x10D3 [0x01] GOTO 0x1154
317: 0x10D6 [0x02] IF !(Work_Zone[9] == 5*) GOTO 0x10F0
318: 0x10DE [0x52] END_LOAD_SCHEDULER: End scheduler "s032" with entities [EventEntity, EventEntity], work=855*
319: 0x10ED [0x01] GOTO 0x1119
320: 0x10F0 [0x02] IF !(Work_Zone[9] == 6*) GOTO 0x110A
321: 0x10F8 [0x52] END_LOAD_SCHEDULER: End scheduler "s032" with entities [EventEntity, EventEntity], work=855*
322: 0x1107 [0x01] GOTO 0x1119
323: 0x110A [0x52] END_LOAD_SCHEDULER: End scheduler "s022" with entities [EventEntity, EventEntity], work=855*

SUBROUTINE_1119:
324: 0x1119 [0x45] LOAD_SCHEDULED_TASK: Load scheduler "s023" with entities [EventEntity, EventEntity], work=[855*, 0*]
325: 0x112A [0x7B] Raubahn (ID: 16986774/0x01033296) stops talking
326: 0x112F [0x29] REQ_SET_WAIT(priority=0x0F, entity_id=Raubahn (ID: 16986774/0x01033296), tag_num=0x29)
327: 0x1136 [0x2B] Raubahn (ID: 16986774/0x01033296) [9760*]:
    → "The power of the blue...?"
328: 0x113D [0x23] WAIT_FOR_DIALOG_INTERACTION
329: 0x113E [0x29] REQ_SET_WAIT(priority=0x0F, entity_id=Raubahn (ID: 16986774/0x01033296), tag_num=0x2A)
330: 0x1145 [0x52] END_LOAD_SCHEDULER: End scheduler "s023" with entities [EventEntity, EventEntity], work=855*

SUBROUTINE_1154:
331: 0x1154 [0x45] LOAD_SCHEDULED_TASK: Load scheduler "s025" with entities [EventEntity, EventEntity], work=[855*, 0*]
332: 0x1165 [0x7B] Raubahn (ID: 16986774/0x01033296) stops talking
333: 0x116A [0x2B] Raubahn (ID: 16986774/0x01033296) [9761*]:
    → "Perhpas further research could shed some insight into this."
334: 0x1171 [0x1C] WAIT(30* ticks)
335: 0x1174 [0x9F] LOAD_SCHEDULED_TASK_ALT: Load scheduler "str0" with entities [Raubahn (ID: 16986774/0x01033296), Raubahn (ID: 16986774/0x01033296)], work=[220*, 0*]
336: 0x1185 [0x45] LOAD_SCHEDULED_TASK: Load scheduler "kira" with entities [LocalPlayer, LocalPlayer], work=[855*, 0*]
337: 0x1196 [0x23] WAIT_FOR_DIALOG_INTERACTION
338: 0x1197 [0x52] END_LOAD_SCHEDULER: End scheduler "s025" with entities [EventEntity, EventEntity], work=855*
339: 0x11A6 [0x45] LOAD_SCHEDULED_TASK: Load scheduler "s027" with entities [EventEntity, EventEntity], work=[855*, 0*]
340: 0x11B7 [0x2B] Raubahn (ID: 16986774/0x01033296) [9762*]:
    → "Could this be the fate of those who aim to overcome death itself?c"
341: 0x11BE [0x23] WAIT_FOR_DIALOG_INTERACTION
342: 0x11BF [0x52] END_LOAD_SCHEDULER: End scheduler "s027" with entities [EventEntity, EventEntity], work=855*
343: 0x11CE [0x45] LOAD_SCHEDULED_TASK: Load scheduler "s026" with entities [EventEntity, EventEntity], work=[855*, 0*]
344: 0x11DF [0x81] SET_ENTITY_BLINKING(blink_flag=0x01, entity=Raubahn (ID: 16986774/0x01033296))
345: 0x11E5 [0xBB] LOAD_EVENT_SCHEDULER_ALT: Load scheduler "shao" with entities [Raubahn (ID: 16986774/0x01033296), Rishfee (ID: 16986799/0x010332AF)], work=[59*, 0*]
346: 0x11F6 [0x29] REQ_SET_WAIT(priority=0x0F, entity_id=Raubahn (ID: 16986774/0x01033296), tag_num=0x33)
347: 0x11FD [0x1C] WAIT(60* ticks)
348: 0x1200 [0x52] END_LOAD_SCHEDULER: End scheduler "s026" with entities [EventEntity, EventEntity], work=855*
349: 0x120F [0x45] LOAD_SCHEDULED_TASK: Load scheduler "s028" with entities [EventEntity, EventEntity], work=[855*, 0*]
350: 0x1220 [0x1C] WAIT(120* ticks)
351: 0x1223 [0x5D] SET_MUSIC_VOLUME(volume=0*, fade_time=120*)
352: 0x1228 [0x1A] CALL_SUBROUTINE(address=0x00A6)
353: 0x122B [0x52] END_LOAD_SCHEDULER: End scheduler "s028" with entities [EventEntity, EventEntity], work=855*
354: 0x123A [0x29] REQ_SET_WAIT(priority=0x0F, entity_id=Raubahn (ID: 16986774/0x01033296), tag_num=0x34)
355: 0x1241 [0x6C] FADE_ENTITY_COLOR(entity_id=Rishfee (ID: 16986799/0x010332AF), end_alpha=0*, fade_time=1*)
356: 0x124A [0x6C] FADE_ENTITY_COLOR(entity_id=Raubahn (ID: 16986774/0x01033296), end_alpha=0*, fade_time=1*)
357: 0x1253 [0x45] LOAD_SCHEDULED_TASK: Load scheduler "s029" with entities [EventEntity, EventEntity], work=[855*, 0*]
358: 0x1264 [0x1A] CALL_SUBROUTINE(address=0x0085)
359: 0x1267 [0x6E] LocalPlayer uses emote 21*
360: 0x126E [0x99] Wait for LocalPlayer animation to complete
361: 0x1273 [0x1C] WAIT(120* ticks)
362: 0x1276 [0x27] REQ_SET(priority=0x0F, entity_id=LocalPlayer, tag_num=0x41)
363: 0x127D [0x2A] GET_REQ_LEVEL(level=15, entity_id=LocalPlayer)
364: 0x1283 [0x1A] CALL_SUBROUTINE(address=0x0064)
365: 0x1286 [0x52] END_LOAD_SCHEDULER: End scheduler "s029" with entities [EventEntity, EventEntity], work=855*
366: 0x1295 [0xD8] SET_ENTITY_EVENT_DIR: Copy Rishfee (ID: 16986799/0x010332AF) LastPosition to EventDir
367: 0x129B [0x1C] WAIT(1* ticks)
368: 0x129E [0x27] REQ_SET(priority=0x10, entity_id=Rishfee (ID: 16986799/0x010332AF), tag_num=0x0A)
369: 0x12A5 [0x1C] WAIT(15* ticks)
370: 0x12A8 [0x5C] MUSIC_CONTROL: Set Idle (Day) music to song 149*
371: 0x12AC [0x5C] MUSIC_CONTROL: Set Idle (Night) music to song 149*
372: 0x12B0 [0x5C] MUSIC_CONTROL: Set Combat (Solo) music to song 101*
373: 0x12B4 [0x5C] MUSIC_CONTROL: Set Combat (Party) music to song 138*
374: 0x12B8 [0x9A] WAIT_MUSIC_SERVER()
375: 0x12B9 [0x5D] SET_MUSIC_VOLUME(volume=127*, fade_time=1*)
376: 0x12BE [0xAB] EventEntity->DespawnValue = 0* // Set despawn value
377: 0x12C2 [0x1C] WAIT(1* ticks)
378: 0x12C5 [0x46] CAMERA_CONTROL: Restore default settings
379: 0x12C7 [0x45] LOAD_SCHEDULED_TASK: Load scheduler "fdi2" with entities [EventEntity, EventEntity], work=[200*, 0*]
380: 0x12D8 [0x21] END_EVENT
381: 0x12D9 [0x00] END_REQSTACK()
```

### Event 520

#### Metadata

| Field        | Value      |
|--------------|------------|
| Entrypoint   | 0x12DA     |
| Data Size    | 2803 bytes |
| Instructions | 325        |

```
      00 01 02 03 04 05 06 07  08 09 0A 0B 0C 0D 0E 0F
      -- -- -- -- -- -- -- --  -- -- -- -- -- -- -- --
12D0:                                42 5D 01 80 08 80            B]....
12E0: 1A 64 00 46 01 38 09 80  2F 00 DA 32 03 01 2F 00  .d.F.8../..2../.
12F0: DB 32 03 01 2F 00 DC 32  03 01 2F 00 DD 32 03 01  .2../..2../..2..
1300: 4E 00 DA 32 03 01 4E 00  DB 32 03 01 4E 00 DC 32  N..2..N..2..N..2
1310: 03 01 4E 00 DD 32 03 01  94 01 DA 32 03 01 94 01  ..N..2.....2....
1320: DB 32 03 01 94 01 DC 32  03 01 94 01 DD 32 03 01  .2.....2.....2..
1330: 94 01 F0 FF FF 7F BA DA  32 03 01 52 80 53 80 54  ........2..R.S.T
1340: 80 55 80 BA DB 32 03 01  56 80 57 80 58 80 59 80  .U...2..V.W.X.Y.
1350: BA DC 32 03 01 5A 80 5B  80 5C 80 3F 80 BA DD 32  ..2..Z.[.\.?...2
1360: 03 01 5D 80 5E 80 5F 80  60 80 BA F0 FF FF 7F 61  ..].^._.`......a
1370: 80 62 80 63 80 64 80 80  DA 32 03 01 80 DB 32 03  .b.c.d...2....2.
1380: 01 80 DC 32 03 01 80 DD  32 03 01 80 F0 FF FF 7F  ...2....2.......
1390: 6C DB 32 03 01 01 80 03  80 6C DC 32 03 01 01 80  l.2......l.2....
13A0: 03 80 6C DD 32 03 01 01  80 03 80 4E 01 F0 FF FF  ..l.2......N....
13B0: 7F 66 23 80 DA 32 03 01  DA 32 03 01 74 68 6B 30  .f#..2...2..thk0
13C0: 53 DA 32 03 01 DA 32 03  01 74 68 6B 30 5C 00 65  S.2...2..thk0\.e
13D0: 80 5C 01 65 80 5C 02 65  80 5C 03 65 80 9A 45 66  .\.e.\.e.\.e..Ef
13E0: 80 F8 FF FF 7F F8 FF FF  7F 73 61 30 34 01 80 1A  .........sa04...
13F0: 43 00 1C 67 80 52 66 80  F8 FF FF 7F F8 FF FF 7F  C..g.Rf.........
1400: 73 61 30 34 45 66 80 F8  FF FF 7F F8 FF FF 7F 73  sa04Ef.........s
1410: 30 30 34 01 80 1C 08 80  52 66 80 F8 FF FF 7F F8  004.....Rf......
1420: FF FF 7F 73 30 30 34 45  66 80 F8 FF FF 7F F8 FF  ...s004Ef.......
1430: FF 7F 73 30 30 35 01 80  1C 06 80 66 23 80 DA 32  ..s005.....f#..2
1440: 03 01 DA 32 03 01 74 68  6B 31 53 DA 32 03 01 DA  ...2..thk1S.2...
1450: 32 03 01 74 68 6B 31 6E  DA 32 03 01 68 80 99 DA  2..thk1n.2..h...
1460: 32 03 01 2B DA 32 03 01  69 80 1C 6A 80 23 52 66  2..+.2..i..j.#Rf
1470: 80 F8 FF FF 7F F8 FF FF  7F 73 30 30 35 02 87 7F  .........s005...
1480: 19 80 80 99 14 45 66 80  F8 FF FF 7F F8 FF FF 7F  .....Ef.........
1490: 73 67 30 36 01 80 01 1A  15 02 87 7F 1A 80 80 B5  sg06............
14A0: 14 45 66 80 F8 FF FF 7F  F8 FF FF 7F 73 67 30 36  .Ef.........sg06
14B0: 01 80 01 1A 15 02 87 7F  1B 80 80 D1 14 45 66 80  .............Ef.
14C0: F8 FF FF 7F F8 FF FF 7F  73 74 30 36 01 80 01 1A  ........st06....
14D0: 15 02 87 7F 1C 80 80 ED  14 45 66 80 F8 FF FF 7F  .........Ef.....
14E0: F8 FF FF 7F 73 74 30 36  01 80 01 1A 15 02 87 7F  ....st06........
14F0: 1D 80 80 09 15 45 66 80  F8 FF FF 7F F8 FF FF 7F  .....Ef.........
1500: 73 67 30 36 01 80 01 1A  15 45 66 80 F8 FF FF 7F  sg06.....Ef.....
1510: F8 FF FF 7F 73 30 30 36  01 80 4E 00 F0 FF FF 7F  ....s006..N.....
1520: 27 10 F0 FF FF 7F 27 1C  6A 80 02 87 7F 19 80 80  '.....'.j.......
1530: 44 15 52 66 80 F8 FF FF  7F F8 FF FF 7F 73 67 30  D.Rf.........sg0
1540: 36 01 BB 15 02 87 7F 1A  80 80 5E 15 52 66 80 F8  6.........^.Rf..
1550: FF FF 7F F8 FF FF 7F 73  67 30 36 01 BB 15 02 87  .......sg06.....
1560: 7F 1B 80 80 78 15 52 66  80 F8 FF FF 7F F8 FF FF  ....x.Rf........
1570: 7F 73 74 30 36 01 BB 15  02 87 7F 1C 80 80 92 15  .st06...........
1580: 52 66 80 F8 FF FF 7F F8  FF FF 7F 73 74 30 36 01  Rf.........st06.
1590: BB 15 02 87 7F 1D 80 80  AC 15 52 66 80 F8 FF FF  ..........Rf....
15A0: 7F F8 FF FF 7F 73 67 30  36 01 BB 15 52 66 80 F8  .....sg06...Rf..
15B0: FF FF 7F F8 FF FF 7F 73  30 30 36 45 66 80 F8 FF  .......s006Ef...
15C0: FF 7F F8 FF FF 7F 73 30  30 37 01 80 2A 10 F0 FF  ......s007..*...
15D0: FF 7F 4A DA 32 03 01 F0  FF FF 7F 7B DA 32 03 01  ..J.2......{.2..
15E0: 6F 76 DA 32 03 01 2B DA  32 03 01 6B 80 2A 10 F0  ov.2..+.2..k.*..
15F0: FF FF 7F 23 79 00 DA 32  03 01 F0 FF FF 7F 52 66  ...#y..2......Rf
1600: 80 F8 FF FF 7F F8 FF FF  7F 73 30 30 37 02 87 7F  .........s007...
1610: 19 80 80 29 16 45 66 80  F8 FF FF 7F F8 FF FF 7F  ...).Ef.........
1620: 73 67 30 38 01 80 01 AA  16 02 87 7F 1A 80 80 45  sg08...........E
1630: 16 45 66 80 F8 FF FF 7F  F8 FF FF 7F 73 67 30 38  .Ef.........sg08
1640: 01 80 01 AA 16 02 87 7F  1B 80 80 61 16 45 66 80  ...........a.Ef.
1650: F8 FF FF 7F F8 FF FF 7F  73 74 30 38 01 80 01 AA  ........st08....
1660: 16 02 87 7F 1C 80 80 7D  16 45 66 80 F8 FF FF 7F  .......}.Ef.....
1670: F8 FF FF 7F 73 74 30 38  01 80 01 AA 16 02 87 7F  ....st08........
1680: 1D 80 80 99 16 45 66 80  F8 FF FF 7F F8 FF FF 7F  .....Ef.........
1690: 73 67 30 38 01 80 01 AA  16 45 66 80 F8 FF FF 7F  sg08.....Ef.....
16A0: F8 FF FF 7F 73 30 30 38  01 80 27 10 DA 32 03 01  ....s008..'..2..
16B0: 05 2B DA 32 03 01 6C 80  29 10 DA 32 03 01 06 23  .+.2..l.)..2...#
16C0: 27 10 DA 32 03 01 07 2B  DA 32 03 01 6D 80 1C 15  '..2...+.2..m...
16D0: 80 02 87 7F 19 80 80 EB  16 52 66 80 F8 FF FF 7F  .........Rf.....
16E0: F8 FF FF 7F 73 67 30 38  01 62 17 02 87 7F 1A 80  ....sg08.b......
16F0: 80 05 17 52 66 80 F8 FF  FF 7F F8 FF FF 7F 73 67  ...Rf.........sg
1700: 30 38 01 62 17 02 87 7F  1B 80 80 1F 17 52 66 80  08.b.........Rf.
1710: F8 FF FF 7F F8 FF FF 7F  73 74 30 38 01 62 17 02  ........st08.b..
1720: 87 7F 1C 80 80 39 17 52  66 80 F8 FF FF 7F F8 FF  .....9.Rf.......
1730: FF 7F 73 74 30 38 01 62  17 02 87 7F 1D 80 80 53  ..st08.b.......S
1740: 17 52 66 80 F8 FF FF 7F  F8 FF FF 7F 73 67 30 38  .Rf.........sg08
1750: 01 62 17 52 66 80 F8 FF  FF 7F F8 FF FF 7F 73 30  .b.Rf.........s0
1760: 30 38 45 66 80 F8 FF FF  7F F8 FF FF 7F 73 61 30  08Ef.........sa0
1770: 39 01 80 79 00 DA 32 03  01 DB 32 03 01 1C 3D 80  9..y..2...2...=.
1780: 6C DB 32 03 01 42 80 03  80 6C DC 32 03 01 42 80  l.2..B...l.2..B.
1790: 03 80 6C DD 32 03 01 42  80 03 80 27 10 DB 32 03  ..l.2..B...'..2.
17A0: 01 02 1C 1F 80 27 10 DC  32 03 01 02 27 10 DD 32  .....'..2...'..2
17B0: 03 01 02 1C 1B 80 23 52  66 80 F8 FF FF 7F F8 FF  ......#Rf.......
17C0: FF 7F 73 61 30 39 45 66  80 F8 FF FF 7F F8 FF FF  ..sa09Ef........
17D0: 7F 73 30 30 39 01 80 2A  10 DB 32 03 01 4A F0 FF  .s009..*..2..J..
17E0: FF 7F DB 32 03 01 1C 1F  80 52 66 80 F8 FF FF 7F  ...2.....Rf.....
17F0: F8 FF FF 7F 73 30 30 39  45 66 80 F8 FF FF 7F F8  ....s009Ef......
1800: FF FF 7F 73 30 31 30 01  80 1C 06 80 5B 6E 80 DB  ...s010.....[n..
1810: 32 03 01 DB 32 03 01 68  61 70 30 2B DB 32 03 01  2...2..hap0+.2..
1820: 6F 80 1C 06 80 45 66 80  F8 FF FF 7F F8 FF FF 7F  o....Ef.........
1830: 31 30 30 36 01 80 53 DB  32 03 01 DB 32 03 01 68  1006..S.2...2..h
1840: 61 70 30 23 5B 6E 80 DB  32 03 01 DB 32 03 01 74  ap0#[n..2...2..t
1850: 6C 62 30 2B DB 32 03 01  70 80 1C 06 80 45 66 80  lb0+.2..p....Ef.
1860: F8 FF FF 7F F8 FF FF 7F  31 30 31 33 01 80 23 2B  ........1013..#+
1870: DB 32 03 01 71 80 53 DB  32 03 01 DB 32 03 01 74  .2..q.S.2...2..t
1880: 6C 62 30 23 5B 6E 80 DB  32 03 01 DB 32 03 01 74  lb0#[n..2...2..t
1890: 6C 62 31 52 66 80 F8 FF  FF 7F F8 FF FF 7F 73 30  lb1Rf.........s0
18A0: 31 30 45 66 80 F8 FF FF  7F F8 FF FF 7F 73 30 31  10Ef.........s01
18B0: 31 01 80 5B 6E 80 DD 32  03 01 DD 32 03 01 74 6C  1..[n..2...2..tl
18C0: 62 30 2B DD 32 03 01 72  80 1C 06 80 45 66 80 F8  b0+.2..r....Ef..
18D0: FF FF 7F F8 FF FF 7F 31  30 31 32 01 80 23 2B DD  .......1012..#+.
18E0: 32 03 01 73 80 53 DD 32  03 01 DD 32 03 01 74 6C  2..s.S.2...2..tl
18F0: 62 30 23 5B 6E 80 DD 32  03 01 DD 32 03 01 74 6C  b0#[n..2...2..tl
1900: 62 31 52 66 80 F8 FF FF  7F F8 FF FF 7F 73 30 31  b1Rf.........s01
1910: 31 45 66 80 F8 FF FF 7F  F8 FF FF 7F 73 30 31 32  1Ef.........s012
1920: 01 80 27 10 DA 32 03 01  01 2B DA 32 03 01 74 80  ..'..2...+.2..t.
1930: 29 10 DA 32 03 01 02 23  27 10 DA 32 03 01 03 4A  )..2...#'..2...J
1940: DB 32 03 01 F0 FF FF 7F  7B DB 32 03 01 4A DC 32  .2......{.2..J.2
1950: 03 01 F0 FF FF 7F 7B DC  32 03 01 4A DD 32 03 01  ......{.2..J.2..
1960: F0 FF FF 7F 7B DD 32 03  01 79 00 F0 FF FF 7F DC  ....{.2..y......
1970: 32 03 01 52 66 80 F8 FF  FF 7F F8 FF FF 7F 73 30  2..Rf.........s0
1980: 31 32 45 66 80 F8 FF FF  7F F8 FF FF 7F 73 30 31  12Ef.........s01
1990: 33 01 80 5B 75 80 DC 32  03 01 DC 32 03 01 75 72  3..[u..2...2..ur
19A0: 61 30 2B DC 32 03 01 76  80 1C 06 80 45 66 80 F8  a0+.2..v....Ef..
19B0: FF FF 7F F8 FF FF 7F 31  30 31 34 01 80 23 2B DC  .......1014..#+.
19C0: 32 03 01 77 80 53 DC 32  03 01 DC 32 03 01 75 72  2..w.S.2...2..ur
19D0: 61 30 23 5B 75 80 DC 32  03 01 DC 32 03 01 75 72  a0#[u..2...2..ur
19E0: 61 31 79 00 F0 FF FF 7F  DB 32 03 01 52 66 80 F8  a1y......2..Rf..
19F0: FF FF 7F F8 FF FF 7F 73  30 31 33 02 87 7F 19 80  .......s013.....
1A00: 80 17 1A 45 66 80 F8 FF  FF 7F F8 FF FF 7F 73 67  ...Ef.........sg
1A10: 31 34 01 80 01 98 1A 02  87 7F 1A 80 80 33 1A 45  14...........3.E
1A20: 66 80 F8 FF FF 7F F8 FF  FF 7F 73 67 31 34 01 80  f.........sg14..
1A30: 01 98 1A 02 87 7F 1B 80  80 4F 1A 45 66 80 F8 FF  .........O.Ef...
1A40: FF 7F F8 FF FF 7F 73 74  31 34 01 80 01 98 1A 02  ......st14......
1A50: 87 7F 1C 80 80 6B 1A 45  66 80 F8 FF FF 7F F8 FF  .....k.Ef.......
1A60: FF 7F 73 74 31 34 01 80  01 98 1A 02 87 7F 1D 80  ..st14..........
1A70: 80 87 1A 45 66 80 F8 FF  FF 7F F8 FF FF 7F 73 67  ...Ef.........sg
1A80: 31 34 01 80 01 98 1A 45  66 80 F8 FF FF 7F F8 FF  14.....Ef.......
1A90: FF 7F 73 30 31 34 01 80  5B 6E 80 DB 32 03 01 DB  ..s014..[n..2...
1AA0: 32 03 01 70 6E 74 30 2B  DB 32 03 01 78 80 1C 06  2..pnt0+.2..x...
1AB0: 80 45 66 80 F8 FF FF 7F  F8 FF FF 7F 31 30 30 36  .Ef.........1006
1AC0: 01 80 53 DB 32 03 01 DB  32 03 01 70 6E 74 30 23  ..S.2...2..pnt0#
1AD0: 5B 6E 80 DB 32 03 01 DB  32 03 01 70 6E 74 31 02  [n..2...2..pnt1.
1AE0: 87 7F 19 80 80 F9 1A 52  66 80 F8 FF FF 7F F8 FF  .......Rf.......
1AF0: FF 7F 73 67 31 34 01 70  1B 02 87 7F 1A 80 80 13  ..sg14.p........
1B00: 1B 52 66 80 F8 FF FF 7F  F8 FF FF 7F 73 67 31 34  .Rf.........sg14
1B10: 01 70 1B 02 87 7F 1B 80  80 2D 1B 52 66 80 F8 FF  .p.......-.Rf...
1B20: FF 7F F8 FF FF 7F 73 74  31 34 01 70 1B 02 87 7F  ......st14.p....
1B30: 1C 80 80 47 1B 52 66 80  F8 FF FF 7F F8 FF FF 7F  ...G.Rf.........
1B40: 73 74 31 34 01 70 1B 02  87 7F 1D 80 80 61 1B 52  st14.p.......a.R
1B50: 66 80 F8 FF FF 7F F8 FF  FF 7F 73 67 31 34 01 70  f.........sg14.p
1B60: 1B 52 66 80 F8 FF FF 7F  F8 FF FF 7F 73 30 31 34  .Rf.........s014
1B70: 45 66 80 F8 FF FF 7F F8  FF FF 7F 73 30 31 35 01  Ef.........s015.
1B80: 80 5B 75 80 DC 32 03 01  DC 32 03 01 77 68 74 30  .[u..2...2..wht0
1B90: 2B DC 32 03 01 79 80 1C  06 80 45 66 80 F8 FF FF  +.2..y....Ef....
1BA0: 7F F8 FF FF 7F 31 30 30  31 01 80 53 DC 32 03 01  .....1001..S.2..
1BB0: DC 32 03 01 77 68 74 30  23 5B 75 80 DC 32 03 01  .2..wht0#[u..2..
1BC0: DC 32 03 01 77 68 74 31  52 66 80 F8 FF FF 7F F8  .2..wht1Rf......
1BD0: FF FF 7F 73 30 31 35 45  66 80 F8 FF FF 7F F8 FF  ...s015Ef.......
1BE0: FF 7F 73 30 31 36 01 80  5B 75 80 DD 32 03 01 DD  ..s016..[u..2...
1BF0: 32 03 01 77 68 74 30 2B  DD 32 03 01 7A 80 1C 06  2..wht0+.2..z...
1C00: 80 45 66 80 F8 FF FF 7F  F8 FF FF 7F 31 30 30 32  .Ef.........1002
1C10: 01 80 53 DD 32 03 01 DD  32 03 01 77 68 74 30 23  ..S.2...2..wht0#
1C20: 5B 75 80 DD 32 03 01 DD  32 03 01 77 68 74 31 7B  [u..2...2..wht1{
1C30: DA 32 03 01 66 23 80 DA  32 03 01 DA 32 03 01 74  .2..f#..2...2..t
1C40: 68 6B 30 1C 46 80 52 66  80 F8 FF FF 7F F8 FF FF  hk0.F.Rf........
1C50: 7F 73 30 31 36 45 66 80  F8 FF FF 7F F8 FF FF 7F  .s016Ef.........
1C60: 73 30 31 37 01 80 2B DA  32 03 01 7B 80 23 2B DA  s017..+.2..{.#+.
1C70: 32 03 01 7C 80 53 DA 32  03 01 DA 32 03 01 74 68  2..|.S.2...2..th
1C80: 6B 30 23 66 23 80 DA 32  03 01 DA 32 03 01 74 68  k0#f#..2...2..th
1C90: 6B 31 52 66 80 F8 FF FF  7F F8 FF FF 7F 73 30 31  k1Rf.........s01
1CA0: 37 45 66 80 F8 FF FF 7F  F8 FF FF 7F 73 30 31 38  7Ef.........s018
1CB0: 01 80 5B 6E 80 DB 32 03  01 DB 32 03 01 68 61 70  ..[n..2...2..hap
1CC0: 30 2B DB 32 03 01 7D 80  1C 06 80 45 66 80 F8 FF  0+.2..}....Ef...
1CD0: FF 7F F8 FF FF 7F 31 30  31 31 01 80 53 DB 32 03  ......1011..S.2.
1CE0: 01 DB 32 03 01 68 61 70  30 23 27 10 DB 32 03 01  ..2..hap0#'..2..
1CF0: 03 52 66 80 F8 FF FF 7F  F8 FF FF 7F 73 30 31 38  .Rf.........s018
1D00: 45 66 80 F8 FF FF 7F F8  FF FF 7F 73 30 31 39 01  Ef.........s019.
1D10: 80 1C 1F 80 27 10 DC 32  03 01 03 1C 1B 80 27 10  ....'..2......'.
1D20: DD 32 03 01 03 1C 08 80  81 00 DA 32 03 01 5B 7E  .2.........2..[~
1D30: 80 DA 32 03 01 DA 32 03  01 6E 6F 6B 30 1C 46 80  ..2...2..nok0.F.
1D40: 52 66 80 F8 FF FF 7F F8  FF FF 7F 73 30 31 39 45  Rf.........s019E
1D50: 66 80 F8 FF FF 7F F8 FF  FF 7F 73 30 32 30 01 80  f.........s020..
1D60: 2B DA 32 03 01 7F 80 1C  51 80 23 5D 01 80 08 80  +.2.....Q.#]....
1D70: 1C 15 80 1A 64 00 52 66  80 F8 FF FF 7F F8 FF FF  ....d.Rf........
1D80: 7F 73 30 32 30 81 01 DA  32 03 01 7A 00 DB 32 03  .s020...2..z..2.
1D90: 01 7A 00 DC 32 03 01 7A  00 DD 32 03 01 5C 00 23  .z..2..z..2..\.#
1DA0: 80 5C 01 23 80 5C 02 24  80 5C 03 25 80 9A 1C 22  .\.#.\.$.\.%..."
1DB0: 80 AB 11 01 80 1C 03 80  46 00 45 00 80 F8 FF FF  ........F.E.....
1DC0: 7F F8 FF FF 7F 66 64 69  32 01 80 21 00           .....fdi2..!.   
```

#### Opcodes

```
  0: 0x12DA [0x42] SET_CLI_EVENT_CANCEL_DATA()
  1: 0x12DB [0x5D] SET_MUSIC_VOLUME(volume=0*, fade_time=300*)
  2: 0x12E0 [0x1A] CALL_SUBROUTINE(address=0x0064)
  3: 0x12E3 [0x46] CAMERA_CONTROL: Disable user control
  4: 0x12E5 [0x38] SET_CLIENT_EVENT_MODE(mode=147*)
  5: 0x12E8 [0x2F] Mutihb (ID: 16986842/0x010332DA)->Render.Flags0 &= ~0x80000 // Bit 19
  6: 0x12EE [0x2F] Wawaroon (ID: 16986843/0x010332DB)->Render.Flags0 &= ~0x80000 // Bit 19
  7: 0x12F4 [0x2F] Vavaroon (ID: 16986844/0x010332DC)->Render.Flags0 &= ~0x80000 // Bit 19
  8: 0x12FA [0x2F] Gogoroon (ID: 16986845/0x010332DD)->Render.Flags0 &= ~0x80000 // Bit 19
  9: 0x1300 [0x4E] SET_ENTITY_HIDE_FLAG: Show Mutihb (ID: 16986842/0x010332DA)
 10: 0x1306 [0x4E] SET_ENTITY_HIDE_FLAG: Show Wawaroon (ID: 16986843/0x010332DB)
 11: 0x130C [0x4E] SET_ENTITY_HIDE_FLAG: Show Vavaroon (ID: 16986844/0x010332DC)
 12: 0x1312 [0x4E] SET_ENTITY_HIDE_FLAG: Show Gogoroon (ID: 16986845/0x010332DD)
 13: 0x1318 [0x94] Mutihb (ID: 16986842/0x010332DA)->Render.Flags3 ^= 0x01
 14: 0x131E [0x94] Wawaroon (ID: 16986843/0x010332DB)->Render.Flags3 ^= 0x01
 15: 0x1324 [0x94] Vavaroon (ID: 16986844/0x010332DC)->Render.Flags3 ^= 0x01
 16: 0x132A [0x94] Gogoroon (ID: 16986845/0x010332DD)->Render.Flags3 ^= 0x01
 17: 0x1330 [0x94] LocalPlayer->Render.Flags3 ^= 0x01
 18: 0x1336 [0xBA] SET_ENTITY_POSITION(entity_id=Mutihb (ID: 16986842/0x010332DA), pos_x=-207.116*, pos_z=82.896*, pos_y=-8.396*, direction=19.4°*)
 19: 0x1343 [0xBA] SET_ENTITY_POSITION(entity_id=Wawaroon (ID: 16986843/0x010332DB), pos_x=-225.454*, pos_z=90.581*, pos_y=-12.774*, direction=18.4°*)
 20: 0x1350 [0xBA] SET_ENTITY_POSITION(entity_id=Vavaroon (ID: 16986844/0x010332DC), pos_x=-223.968*, pos_z=92.183*, pos_y=-12.295*, direction=2.0°*)
 21: 0x135D [0xBA] SET_ENTITY_POSITION(entity_id=Gogoroon (ID: 16986845/0x010332DD), pos_x=-226.170*, pos_z=89.378*, pos_y=-12.973*, direction=14.8°*)
 22: 0x136A [0xBA] SET_ENTITY_POSITION(entity_id=LocalPlayer, pos_x=-217.182*, pos_z=84.939*, pos_y=-10.827*, direction=7.1°*)
 23: 0x1377 [0x80] LOAD_WAIT(entity=Mutihb (ID: 16986842/0x010332DA))
 24: 0x137C [0x80] LOAD_WAIT(entity=Wawaroon (ID: 16986843/0x010332DB))
 25: 0x1381 [0x80] LOAD_WAIT(entity=Vavaroon (ID: 16986844/0x010332DC))
 26: 0x1386 [0x80] LOAD_WAIT(entity=Gogoroon (ID: 16986845/0x010332DD))
 27: 0x138B [0x80] LOAD_WAIT(entity=LocalPlayer)
 28: 0x1390 [0x6C] FADE_ENTITY_COLOR(entity_id=Wawaroon (ID: 16986843/0x010332DB), end_alpha=0*, fade_time=1*)
 29: 0x1399 [0x6C] FADE_ENTITY_COLOR(entity_id=Vavaroon (ID: 16986844/0x010332DC), end_alpha=0*, fade_time=1*)
 30: 0x13A2 [0x6C] FADE_ENTITY_COLOR(entity_id=Gogoroon (ID: 16986845/0x010332DD), end_alpha=0*, fade_time=1*)
 31: 0x13AB [0x4E] SET_ENTITY_HIDE_FLAG: Hide LocalPlayer
 32: 0x13B1 [0x66] LOAD_EXT_SCHEDULER_MAIN: Load scheduler "thk0" with entities [Mutihb (ID: 16986842/0x010332DA), Mutihb (ID: 16986842/0x010332DA)], work=149*
 33: 0x13C0 [0x53] WAIT_SCHEDULER_TASK: Wait for scheduler "thk0" with entities [Mutihb (ID: 16986842/0x010332DA), Mutihb (ID: 16986842/0x010332DA)]
 34: 0x13CD [0x5C] MUSIC_CONTROL: Set Idle (Day) music to song 32*
 35: 0x13D1 [0x5C] MUSIC_CONTROL: Set Idle (Night) music to song 32*
 36: 0x13D5 [0x5C] MUSIC_CONTROL: Set Combat (Solo) music to song 32*
 37: 0x13D9 [0x5C] MUSIC_CONTROL: Set Combat (Party) music to song 32*
 38: 0x13DD [0x9A] WAIT_MUSIC_SERVER()
 39: 0x13DE [0x45] LOAD_SCHEDULED_TASK: Load scheduler "sa04" with entities [EventEntity, EventEntity], work=[864*, 0*]
 40: 0x13EF [0x1A] CALL_SUBROUTINE(address=0x0043)
 41: 0x13F2 [0x1C] WAIT(240* ticks)
 42: 0x13F5 [0x52] END_LOAD_SCHEDULER: End scheduler "sa04" with entities [EventEntity, EventEntity], work=864*
 43: 0x1404 [0x45] LOAD_SCHEDULED_TASK: Load scheduler "s004" with entities [EventEntity, EventEntity], work=[864*, 0*]
 44: 0x1415 [0x1C] WAIT(300* ticks)
 45: 0x1418 [0x52] END_LOAD_SCHEDULER: End scheduler "s004" with entities [EventEntity, EventEntity], work=864*
 46: 0x1427 [0x45] LOAD_SCHEDULED_TASK: Load scheduler "s005" with entities [EventEntity, EventEntity], work=[864*, 0*]
 47: 0x1438 [0x1C] WAIT(30* ticks)
 48: 0x143B [0x66] LOAD_EXT_SCHEDULER_MAIN: Load scheduler "thk1" with entities [Mutihb (ID: 16986842/0x010332DA), Mutihb (ID: 16986842/0x010332DA)], work=149*
 49: 0x144A [0x53] WAIT_SCHEDULER_TASK: Wait for scheduler "thk1" with entities [Mutihb (ID: 16986842/0x010332DA), Mutihb (ID: 16986842/0x010332DA)]
 50: 0x1457 [0x6E] Mutihb (ID: 16986842/0x010332DA) uses emote 26*
 51: 0x145E [0x99] Wait for Mutihb (ID: 16986842/0x010332DA) animation to complete
 52: 0x1463 [0x2B] Mutihb (ID: 16986842/0x010332DA) [9763*]:
    → "Hmph... We paid all of that clink clink to the Qiqirn and I still have no idea what to look for or how to find it."
 53: 0x146A [0x1C] WAIT(180* ticks)
 54: 0x146D [0x23] WAIT_FOR_DIALOG_INTERACTION
 55: 0x146E [0x52] END_LOAD_SCHEDULER: End scheduler "s005" with entities [EventEntity, EventEntity], work=864*
 56: 0x147D [0x02] IF !(LocalPlayer->Race == 3*) GOTO 0x1499
 57: 0x1485 [0x45] LOAD_SCHEDULED_TASK: Load scheduler "sg06" with entities [EventEntity, EventEntity], work=[864*, 0*]
 58: 0x1496 [0x01] GOTO 0x151A
 59: 0x1499 [0x02] IF !(LocalPlayer->Race == 4*) GOTO 0x14B5
 60: 0x14A1 [0x45] LOAD_SCHEDULED_TASK: Load scheduler "sg06" with entities [EventEntity, EventEntity], work=[864*, 0*]
 61: 0x14B2 [0x01] GOTO 0x151A
 62: 0x14B5 [0x02] IF !(LocalPlayer->Race == 5*) GOTO 0x14D1
 63: 0x14BD [0x45] LOAD_SCHEDULED_TASK: Load scheduler "st06" with entities [EventEntity, EventEntity], work=[864*, 0*]
 64: 0x14CE [0x01] GOTO 0x151A
 65: 0x14D1 [0x02] IF !(LocalPlayer->Race == 6*) GOTO 0x14ED
 66: 0x14D9 [0x45] LOAD_SCHEDULED_TASK: Load scheduler "st06" with entities [EventEntity, EventEntity], work=[864*, 0*]
 67: 0x14EA [0x01] GOTO 0x151A
 68: 0x14ED [0x02] IF !(LocalPlayer->Race == 8*) GOTO 0x1509
 69: 0x14F5 [0x45] LOAD_SCHEDULED_TASK: Load scheduler "sg06" with entities [EventEntity, EventEntity], work=[864*, 0*]
 70: 0x1506 [0x01] GOTO 0x151A
 71: 0x1509 [0x45] LOAD_SCHEDULED_TASK: Load scheduler "s006" with entities [EventEntity, EventEntity], work=[864*, 0*]

SUBROUTINE_151A:
 72: 0x151A [0x4E] SET_ENTITY_HIDE_FLAG: Show LocalPlayer
 73: 0x1520 [0x27] REQ_SET(priority=0x10, entity_id=LocalPlayer, tag_num=0x27)
 74: 0x1527 [0x1C] WAIT(180* ticks)
 75: 0x152A [0x02] IF !(LocalPlayer->Race == 3*) GOTO 0x1544
 76: 0x1532 [0x52] END_LOAD_SCHEDULER: End scheduler "sg06" with entities [EventEntity, EventEntity], work=864*
 77: 0x1541 [0x01] GOTO 0x15BB
 78: 0x1544 [0x02] IF !(LocalPlayer->Race == 4*) GOTO 0x155E
 79: 0x154C [0x52] END_LOAD_SCHEDULER: End scheduler "sg06" with entities [EventEntity, EventEntity], work=864*
 80: 0x155B [0x01] GOTO 0x15BB
 81: 0x155E [0x02] IF !(LocalPlayer->Race == 5*) GOTO 0x1578
 82: 0x1566 [0x52] END_LOAD_SCHEDULER: End scheduler "st06" with entities [EventEntity, EventEntity], work=864*
 83: 0x1575 [0x01] GOTO 0x15BB
 84: 0x1578 [0x02] IF !(LocalPlayer->Race == 6*) GOTO 0x1592
 85: 0x1580 [0x52] END_LOAD_SCHEDULER: End scheduler "st06" with entities [EventEntity, EventEntity], work=864*
 86: 0x158F [0x01] GOTO 0x15BB
 87: 0x1592 [0x02] IF !(LocalPlayer->Race == 8*) GOTO 0x15AC
 88: 0x159A [0x52] END_LOAD_SCHEDULER: End scheduler "sg06" with entities [EventEntity, EventEntity], work=864*
 89: 0x15A9 [0x01] GOTO 0x15BB
 90: 0x15AC [0x52] END_LOAD_SCHEDULER: End scheduler "s006" with entities [EventEntity, EventEntity], work=864*

SUBROUTINE_15BB:
 91: 0x15BB [0x45] LOAD_SCHEDULED_TASK: Load scheduler "s007" with entities [EventEntity, EventEntity], work=[864*, 0*]
 92: 0x15CC [0x2A] GET_REQ_LEVEL(level=16, entity_id=LocalPlayer)
 93: 0x15D2 [0x4A] Mutihb (ID: 16986842/0x010332DA) looks at LocalPlayer
 94: 0x15DB [0x7B] Mutihb (ID: 16986842/0x010332DA) stops talking
 95: 0x15E0 [0x6F] WAIT_FRAME_DELAY: Yield until WaitTime reaches zero
 96: 0x15E1 [0x76] CHECK_ENTITY_RENDER_FLAGS: Wait until Mutihb (ID: 16986842/0x010332DA) Render.Flags0 and Render.Flags3 conditions are met
 97: 0x15E6 [0x2B] Mutihb (ID: 16986842/0x010332DA) [9764*]:
    → "Hey, <Player>! I'm glad you made it!"
 98: 0x15ED [0x2A] GET_REQ_LEVEL(level=16, entity_id=LocalPlayer)
 99: 0x15F3 [0x23] WAIT_FOR_DIALOG_INTERACTION
100: 0x15F4 [0x79] Mutihb (ID: 16986842/0x010332DA) looks at LocalPlayer (Basic look)
101: 0x15FE [0x52] END_LOAD_SCHEDULER: End scheduler "s007" with entities [EventEntity, EventEntity], work=864*
102: 0x160D [0x02] IF !(LocalPlayer->Race == 3*) GOTO 0x1629
103: 0x1615 [0x45] LOAD_SCHEDULED_TASK: Load scheduler "sg08" with entities [EventEntity, EventEntity], work=[864*, 0*]
104: 0x1626 [0x01] GOTO 0x16AA
105: 0x1629 [0x02] IF !(LocalPlayer->Race == 4*) GOTO 0x1645
106: 0x1631 [0x45] LOAD_SCHEDULED_TASK: Load scheduler "sg08" with entities [EventEntity, EventEntity], work=[864*, 0*]
107: 0x1642 [0x01] GOTO 0x16AA
108: 0x1645 [0x02] IF !(LocalPlayer->Race == 5*) GOTO 0x1661
109: 0x164D [0x45] LOAD_SCHEDULED_TASK: Load scheduler "st08" with entities [EventEntity, EventEntity], work=[864*, 0*]
110: 0x165E [0x01] GOTO 0x16AA
