# 16986844 - Vavaroon

## Common Data

| Field            | Value                     |
|------------------|---------------------------|
| Zone             | Wajaom Woodlands (ID: 51) |
| Block Size       | 172 bytes                 |
| Total Events     | 4                         |
| References Count | 16                        |

## List of Events

| Event ID                 | Entrypoint   |   Size |   Instructions |
|--------------------------|--------------|--------|----------------|
| [65535](#event-65535)    | 0x0000       |      1 |              1 |
| [520](#event-520)        | 0x0001       |      7 |              2 |
| [65535.1](#event-655351) | 0x0008       |     24 |              6 |
| [65535.2](#event-655352) | 0x0020       |     44 |             10 |

## DAT References (imed_data)

|   Index | Hex Value   |   Dec Value |
|---------|-------------|-------------|
|       0 | 0x0028      |          40 |
|       1 | 0xFFFCAF62  |  4294750050 |
|       2 | 0x15AAE     |       88750 |
|       3 | 0xFFFFD33B  |  4294955835 |
|       4 | 0xFFFC9E35  |  4294745653 |
|       5 | 0x15947     |       88391 |
|       6 | 0xFFFFD10E  |  4294955278 |
|       7 | 0xFFFC8B46  |  4294740806 |
|       8 | 0x15306     |       86790 |
|       9 | 0xFFFFCCF1  |  4294954225 |
|      10 | 0xFFFC7036  |  4294733878 |
|      11 | 0x14F05     |       85765 |
|      12 | 0xFFFFC318  |  4294951704 |
|      13 | 0xFFFC2585  |  4294714757 |
|      14 | 0x143EF     |       82927 |
|      15 | 0xFFFFC29A  |  4294951578 |

## Events

### Event 65535

#### Metadata

| Field        | Value   |
|--------------|---------|
| Entrypoint   | 0x0000  |
| Data Size    | 1 bytes |
| Instructions | 1       |

```
      00 01 02 03 04 05 06 07  08 09 0A 0B 0C 0D 0E 0F
      -- -- -- -- -- -- -- --  -- -- -- -- -- -- -- --
0000: 00                                                .               
```

#### Opcodes

```
  0: 0x0000 [0x00] END_REQSTACK()
```

### Event 520

#### Metadata

| Field        | Value   |
|--------------|---------|
| Entrypoint   | 0x0001  |
| Data Size    | 7 bytes |
| Instructions | 2       |

```
      00 01 02 03 04 05 06 07  08 09 0A 0B 0C 0D 0E 0F
      -- -- -- -- -- -- -- --  -- -- -- -- -- -- -- --
0000:    92 01 F8 FF FF 7F 00                            .......        
```

#### Opcodes

```
  0: 0x0001 [0x92] EventEntity->Render.Flags3 ^= 0x01
  1: 0x0007 [0x00] END_REQSTACK()
```

### Event 65535.1

#### Metadata

| Field        | Value    |
|--------------|----------|
| Entrypoint   | 0x0008   |
| Data Size    | 24 bytes |
| Instructions | 6        |

```
      00 01 02 03 04 05 06 07  08 09 0A 0B 0C 0D 0E 0F
      -- -- -- -- -- -- -- --  -- -- -- -- -- -- -- --
0000:                          32 00 80 1F 00 01 80 02          2.......
0010: 80 03 80 1F 01 1E DA 32  03 01 7B F8 FF FF 7F 00  .......2..{.....
```

#### Opcodes

```
  0: 0x0008 [0x32] ExtData[1]->MainSpeed = 40* * 0.1
  1: 0x000B [0x1F] MOVE_ENTITY: EventEntity moves to X=-217.246*, Z=88.750*, Y=-11.461*
  2: 0x0013 [0x1F] MOVE_ENTITY: Update entity position (mode=1)
  3: 0x0015 [0x1E] EventEntity looks at Mutihb (ID: 16986842/0x010332DA) and starts talking
  4: 0x001A [0x7B] EventEntity stops talking
  5: 0x001F [0x00] END_REQSTACK()
```

### Event 65535.2

#### Metadata

| Field        | Value    |
|--------------|----------|
| Entrypoint   | 0x0020   |
| Data Size    | 44 bytes |
| Instructions | 10       |

```
      00 01 02 03 04 05 06 07  08 09 0A 0B 0C 0D 0E 0F
      -- -- -- -- -- -- -- --  -- -- -- -- -- -- -- --
0020: 32 00 80 1F 00 04 80 05  80 06 80 1F 01 1F 00 07  2...............
0030: 80 08 80 09 80 1F 01 1F  00 0A 80 0B 80 0C 80 1F  ................
0040: 01 1F 00 0D 80 0E 80 0F  80 1F 01 00              ............    
```

#### Opcodes

```
  0: 0x0020 [0x32] ExtData[1]->MainSpeed = 40* * 0.1
  1: 0x0023 [0x1F] MOVE_ENTITY: EventEntity moves to X=-221.643*, Z=88.391*, Y=-12.018*
  2: 0x002B [0x1F] MOVE_ENTITY: Update entity position (mode=1)
  3: 0x002D [0x1F] MOVE_ENTITY: EventEntity moves to X=-226.490*, Z=86.790*, Y=-13.071*
  4: 0x0035 [0x1F] MOVE_ENTITY: Update entity position (mode=1)
  5: 0x0037 [0x1F] MOVE_ENTITY: EventEntity moves to X=-233.418*, Z=85.765*, Y=-15.592*
  6: 0x003F [0x1F] MOVE_ENTITY: Update entity position (mode=1)
  7: 0x0041 [0x1F] MOVE_ENTITY: EventEntity moves to X=-252.539*, Z=82.927*, Y=-15.718*
  8: 0x0049 [0x1F] MOVE_ENTITY: Update entity position (mode=1)
  9: 0x004B [0x00] END_REQSTACK()
```
