# 16986714

## Common Data

| Field            | Value                     |
|------------------|---------------------------|
| Zone             | Wajaom Woodlands (ID: 51) |
| Block Size       | 96 bytes                  |
| Total Events     | 3                         |
| References Count | 7                         |

## List of Events

| Event ID                 | Entrypoint   |   Size |   Instructions |
|--------------------------|--------------|--------|----------------|
| [65535](#event-65535)    | 0x0000       |      1 |              1 |
| [511](#event-511)        | 0x0001       |      1 |              1 |
| [65535.1](#event-655351) | 0x0002       |     36 |              8 |

## DAT References (imed_data)

|   Index | Hex Value   |   Dec Value |
|---------|-------------|-------------|
|       0 | 0x0014      |          20 |
|       1 | 0x0028      |          40 |
|       2 | 0xFFFEEF29  |  4294897449 |
|       3 | 0x1A658     |      108120 |
|       4 | 0x07CF      |        1999 |
|       5 | 0x0003      |           3 |
|       6 | 0x033C      |         828 |

## Events

### Event 65535

#### Metadata

| Field        | Value   |
|--------------|---------|
| Entrypoint   | 0x0000  |
| Data Size    | 1 bytes |
| Instructions | 1       |

```
      00 01 02 03 04 05 06 07  08 09 0A 0B 0C 0D 0E 0F
      -- -- -- -- -- -- -- --  -- -- -- -- -- -- -- --
0000: 00                                                .               
```

#### Opcodes

```
  0: 0x0000 [0x00] END_REQSTACK()
```

### Event 511

#### Metadata

| Field        | Value   |
|--------------|---------|
| Entrypoint   | 0x0001  |
| Data Size    | 1 bytes |
| Instructions | 1       |

```
      00 01 02 03 04 05 06 07  08 09 0A 0B 0C 0D 0E 0F
      -- -- -- -- -- -- -- --  -- -- -- -- -- -- -- --
0000:    00                                              .              
```

#### Opcodes

```
  0: 0x0001 [0x00] END_REQSTACK()
```

### Event 65535.1

#### Metadata

| Field        | Value    |
|--------------|----------|
| Entrypoint   | 0x0002   |
| Data Size    | 36 bytes |
| Instructions | 8        |

```
      00 01 02 03 04 05 06 07  08 09 0A 0B 0C 0D 0E 0F
      -- -- -- -- -- -- -- --  -- -- -- -- -- -- -- --
0000:       1C 00 80 32 01 80  1F 00 02 80 03 80 04 80    ...2..........
0010: 1F 01 6F 1C 05 80 5B 06  80 5A 32 03 01 5A 32 03  ..o...[..Z2..Z2.
0020: 01 77 61 72 30 00                                 .war0.          
```

#### Opcodes

```
  0: 0x0002 [0x1C] WAIT(20* ticks)
  1: 0x0005 [0x32] ExtData[1]->MainSpeed = 40* * 0.1
  2: 0x0008 [0x1F] MOVE_ENTITY: EventEntity moves to X=-69.847*, Z=108.120*, Y=1.999*
  3: 0x0010 [0x1F] MOVE_ENTITY: Update entity position (mode=1)
  4: 0x0012 [0x6F] WAIT_FRAME_DELAY: Yield until WaitTime reaches zero
  5: 0x0013 [0x1C] WAIT(3* ticks)
  6: 0x0016 [0x5B] LOAD_EXT_SCHEDULER: Load scheduler "war0" with entities [Unnamed NPC (ID: 16986714/0x0103325A), Unnamed NPC (ID: 16986714/0x0103325A)], work=828*
  7: 0x0025 [0x00] END_REQSTACK()
```
