# 0x7FFFFFF0 - Zone Events

## Common Data

| Field            | Value                     |
|------------------|---------------------------|
| Zone             | Wajaom Woodlands (ID: 51) |
| Block Size       | 5116 bytes                |
| Total Events     | 67                        |
| References Count | 195                       |

## List of Events

| Event ID                   | Entrypoint   |   Size |   Instructions |
|----------------------------|--------------|--------|----------------|
| [65535](#event-65535)      | 0x0000       |      1 |              1 |
| [65534](#event-65534)      | 0x0001       |      1 |              1 |
| [500](#event-500)          | 0x0002       |     13 |              3 |
| [501](#event-501)          | 0x000F       |     14 |              4 |
| [65535.1](#event-655351)   | 0x001D       |     41 |              5 |
| [65535.2](#event-655352)   | 0x0046       |     41 |              5 |
| [503](#event-503)          | 0x006F       |    722 |             88 |
| [505](#event-505)          | 0x0341       |      6 |              4 |
| [506](#event-506)          | 0x0347       |      6 |              4 |
| [504](#event-504)          | 0x034D       |      1 |              1 |
| [65535.3](#event-655353)   | 0x034E       |     15 |              3 |
| [65535.4](#event-655354)   | 0x035D       |     14 |              4 |
| [65535.5](#event-655355)   | 0x036B       |     14 |              4 |
| [65535.6](#event-655356)   | 0x0379       |     10 |              2 |
| [65535.7](#event-655357)   | 0x0383       |     10 |              2 |
| [65535.8](#event-655358)   | 0x038D       |     17 |              3 |
| [65535.9](#event-655359)   | 0x039E       |     20 |              6 |
| [65535.10](#event-6553510) | 0x03B2       |     20 |              6 |
| [65535.11](#event-6553511) | 0x03C6       |     15 |              5 |
| [65535.12](#event-6553512) | 0x03D5       |     37 |              5 |
| [65535.13](#event-6553513) | 0x03FA       |     37 |              5 |
| [65535.14](#event-6553514) | 0x041F       |     21 |              3 |
| [65535.15](#event-6553515) | 0x0434       |     18 |              2 |
| [65535.16](#event-6553516) | 0x0446       |     41 |              5 |
| [65535.17](#event-6553517) | 0x046F       |     41 |              5 |
| [65535.18](#event-6553518) | 0x0498       |     36 |              4 |
| [65535.19](#event-6553519) | 0x04BC       |     41 |              5 |
| [65535.20](#event-6553520) | 0x04E5       |     10 |              2 |
| [65535.21](#event-6553521) | 0x04EF       |     15 |              5 |
| [65535.22](#event-6553522) | 0x04FE       |     10 |              4 |
| [65535.23](#event-6553523) | 0x0508       |     25 |              6 |
| [65535.24](#event-6553524) | 0x0521       |     27 |              3 |
| [65535.25](#event-6553525) | 0x053C       |      9 |              3 |
| [65535.26](#event-6553526) | 0x0545       |     24 |              4 |
| [65535.27](#event-6553527) | 0x055D       |     27 |              5 |
| [65535.28](#event-6553528) | 0x0578       |     37 |              5 |
| [65535.29](#event-6553529) | 0x059D       |     37 |              5 |
| [65535.30](#event-6553530) | 0x05C2       |    154 |             34 |
| [65535.31](#event-6553531) | 0x065C       |    353 |             41 |
| [65535.32](#event-6553532) | 0x07BD       |     14 |              4 |
| [508](#event-508)          | 0x07CB       |   1644 |            231 |
| [65535.33](#event-6553533) | 0x0E37       |     14 |              4 |
| [8](#event-8)              | 0x0E45       |      7 |              5 |
| [65535.34](#event-6553534) | 0x0E4C       |     14 |              4 |
| [65535.35](#event-6553535) | 0x0E5A       |     19 |              5 |
| [65535.36](#event-6553536) | 0x0E6D       |     14 |              4 |
| [65535.37](#event-6553537) | 0x0E7B       |     19 |              5 |
| [65535.38](#event-6553538) | 0x0E8E       |     14 |              4 |
| [65535.39](#event-6553539) | 0x0E9C       |     19 |              5 |
| [65535.40](#event-6553540) | 0x0EAF       |     22 |              6 |
| [65535.41](#event-6553541) | 0x0EC5       |     27 |              7 |
| [65535.42](#event-6553542) | 0x0EE0       |     13 |              3 |
| [65535.43](#event-6553543) | 0x0EED       |     27 |              7 |
| [65535.44](#event-6553544) | 0x0F08       |     20 |              6 |
| [65535.45](#event-6553545) | 0x0F1C       |     20 |              6 |
| [65535.46](#event-6553546) | 0x0F30       |      6 |              2 |
| [65535.47](#event-6553547) | 0x0F36       |     25 |              6 |
| [517](#event-517)          | 0x0F4F       |     10 |              4 |
| [65535.48](#event-6553548) | 0x0F59       |      7 |              3 |
| [65535.49](#event-6553549) | 0x0F60       |      7 |              3 |
| [65535.50](#event-6553550) | 0x0F67       |      6 |              2 |
| [65535.51](#event-6553551) | 0x0F6D       |     28 |              8 |
| [65535.52](#event-6553552) | 0x0F89       |     15 |              5 |
| [65535.53](#event-6553553) | 0x0F98       |     15 |              5 |
| [65535.54](#event-6553554) | 0x0FA7       |     15 |              5 |
| [65535.55](#event-6553555) | 0x0FB6       |     15 |              5 |
| [65535.56](#event-6553556) | 0x0FC5       |     15 |              5 |

## DAT References (imed_data)

|   Index | Hex Value   |   Dec Value |
|---------|-------------|-------------|
|       0 | 0xA8FD3     |      692179 |
|       1 | 0x35B7A     |      220026 |
|       2 | 0xFFFFB7C0  |  4294948800 |
|       3 | 0x0000      |           0 |
|       4 | 0x000D      |          13 |
|       5 | 0xAA2AD     |      697005 |
|       6 | 0x35B8C     |      220044 |
|       7 | 0x0001      |           1 |
|       8 | 0x008C      |         140 |
|       9 | 0x00C8      |         200 |
|      10 | 0x003C      |          60 |
|      11 | 0x0002      |           2 |
|      12 | 0x00AA      |         170 |
|      13 | 0x1CA3      |        7331 |
|      14 | 0x001B      |          27 |
|      15 | 0x00FD      |         253 |
|      16 | 0x1CA4      |        7332 |
|      17 | 0x1CA5      |        7333 |
|      18 | 0x1CA6      |        7334 |
|      19 | 0x1CA7      |        7335 |
|      20 | 0x0078      |         120 |
|      21 | 0x00FE      |         254 |
|      22 | 0x1CA8      |        7336 |
|      23 | 0x1CA9      |        7337 |
|      24 | 0x0003      |           3 |
|      25 | 0x1CAA      |        7338 |
|      26 | 0x1CAB      |        7339 |
|      27 | 0x1CAC      |        7340 |
|      28 | 0x78A0F     |      494095 |
|      29 | 0x44AF6     |      281334 |
|      30 | 0xFFFF91A6  |  4294939046 |
|      31 | 0x044A      |        1098 |
|      32 | 0x780BC     |      491708 |
|      33 | 0x427E3     |      272355 |
|      34 | 0xFFFF92F7  |  4294939383 |
|      35 | 0x0028      |          40 |
|      36 | 0x77923     |      489763 |
|      37 | 0x42D8F     |      273807 |
|      38 | 0xFFFF9004  |  4294938628 |
|      39 | 0xFFFCF29C  |  4294767260 |
|      40 | 0x1384C     |       79948 |
|      41 | 0xFFFFD8F0  |  4294957296 |
|      42 | 0x0FEC      |        4076 |
|      43 | 0xFFFCC9AA  |  4294756778 |
|      44 | 0x13280     |       78464 |
|      45 | 0xFFFFDAE1  |  4294957793 |
|      46 | 0x0FBF      |        4031 |
|      47 | 0x012C      |         300 |
|      48 | 0xFFFAD53C  |  4294628668 |
|      49 | 0x9D08E     |      643214 |
|      50 | 0xFFFF82FA  |  4294935290 |
|      51 | 0xFFFAD0D6  |  4294627542 |
|      52 | 0x9D31C     |      643868 |
|      53 | 0xFFFF81F6  |  4294935030 |
|      54 | 0xFFFAE5B2  |  4294632882 |
|      55 | 0x9BF56     |      638806 |
|      56 | 0xFFFF8490  |  4294935696 |
|      57 | 0x007F      |         127 |
|      58 | 0x00F0      |         240 |
|      59 | 0x0014      |          20 |
|      60 | 0x0055      |          85 |
|      61 | 0x0008      |           8 |
|      62 | 0x01C2      |         450 |
|      63 | 0x0124      |         292 |
|      64 | 0xA5C54     |      678996 |
|      65 | 0x343D3     |      213971 |
|      66 | 0xFFFFC2F4  |  4294951668 |
|      67 | 0x0545      |        1349 |
|      68 | 0xA5C97     |      679063 |
|      69 | 0x327C1     |      206785 |
|      70 | 0xFFFFC22D  |  4294951469 |
|      71 | 0x0E10      |        3600 |
|      72 | 0x0032      |          50 |
|      73 | 0x0200      |         512 |
|      74 | 0x0064      |         100 |
|      75 | 0x0005      |           5 |
|      76 | 0x000A      |          10 |
|      77 | 0x0009      |           9 |
|      78 | 0x0046      |          70 |
|      79 | 0x00D2      |         210 |
|      80 | 0x0095      |         149 |
|      81 | 0x009F      |         159 |
|      82 | 0x00A9      |         169 |
|      83 | 0x0004      |           4 |
|      84 | 0x00B3      |         179 |
|      85 | 0x00BD      |         189 |
|      86 | 0x0006      |           6 |
|      87 | 0x0007      |           7 |
|      88 | 0x00C7      |         199 |
|      89 | 0x00D1      |         209 |
|      90 | 0xFFFCBFCD  |  4294754253 |
|      91 | 0x1476C     |       83820 |
|      92 | 0x0013      |          19 |
|      93 | 0xFFFCF886  |  4294768774 |
|      94 | 0x15146     |       86342 |
|      95 | 0xFFFFDF96  |  4294958998 |
|      96 | 0x04B4      |        1204 |
|      97 | 0x0925      |        2341 |
|      98 | 0x001E      |          30 |
|      99 | 0x011D      |         285 |
|     100 | 0x1CBF      |        7359 |
|     101 | 0x0096      |         150 |
|     102 | 0x1CC0      |        7360 |
|     103 | 0x1CC1      |        7361 |
|     104 | 0x00AC      |         172 |
|     105 | 0x1CC2      |        7362 |
|     106 | 0x002D      |          45 |
|     107 | 0x1CC3      |        7363 |
|     108 | 0x0020      |          32 |
|     109 | 0x1CC4      |        7364 |
|     110 | 0x1CC5      |        7365 |
|     111 | 0x1CC6      |        7366 |
|     112 | 0x1CC7      |        7367 |
|     113 | 0x1CC8      |        7368 |
|     114 | 0x1CC9      |        7369 |
|     115 | 0x0019      |          25 |
|     116 | 0x1CCA      |        7370 |
|     117 | 0x1CCB      |        7371 |
|     118 | 0x1CCC      |        7372 |
|     119 | 0x1CCD      |        7373 |
|     120 | 0x0042      |          66 |
|     121 | 0x1CCE      |        7374 |
|     122 | 0x000F      |          15 |
|     123 | 0x1CCF      |        7375 |
|     124 | 0x1CD0      |        7376 |
|     125 | 0x1CD1      |        7377 |
|     126 | 0x1CD2      |        7378 |
|     127 | 0x1CD3      |        7379 |
|     128 | 0x1CD4      |        7380 |
|     129 | 0x1CD6      |        7382 |
|     130 | 0x1CD7      |        7383 |
|     131 | 0x1CD8      |        7384 |
|     132 | 0x005A      |          90 |
|     133 | 0x1CD9      |        7385 |
|     134 | 0x1CDA      |        7386 |
|     135 | 0x0016      |          22 |
|     136 | 0x1CDB      |        7387 |
|     137 | 0x1CDC      |        7388 |
|     138 | 0x1CDD      |        7389 |
|     139 | 0x000E      |          14 |
|     140 | 0x1CDF      |        7391 |
|     141 | 0x1CDE      |        7390 |
|     142 | 0x1CE0      |        7392 |
|     143 | 0x1CE1      |        7393 |
|     144 | 0xFFFCE055  |  4294762581 |
|     145 | 0x17050     |       94288 |
|     146 | 0xFFFFD83D  |  4294957117 |
|     147 | 0x1CFB      |        7419 |
|     148 | 0xA5BF0     |      678896 |
|     149 | 0x34167     |      213351 |
|     150 | 0xFFFFC2CD  |  4294951629 |
|     151 | 0x96BBC     |      617404 |
|     152 | 0x2C314     |      181012 |
|     153 | 0xFFFFBD98  |  4294950296 |
|     154 | 0x94F5F     |      610143 |
|     155 | 0x2C105     |      180485 |
|     156 | 0xFFFFB96B  |  4294949227 |
|     157 | 0x2B0EB     |      176363 |
|     158 | 0x44E08     |      282120 |
|     159 | 0xFFFFA434  |  4294943796 |
|     160 | 0x29803     |      169987 |
|     161 | 0x447F4     |      280564 |
|     162 | 0xFFFFA33B  |  4294943547 |
|     163 | 0x26722     |      157474 |
|     164 | 0x47653     |      292435 |
|     165 | 0xFFFFA354  |  4294943572 |
|     166 | 0x26647     |      157255 |
|     167 | 0x4EC30     |      322608 |
|     168 | 0xFFFFA241  |  4294943297 |
|     169 | 0x13BEE     |       80878 |
|     170 | 0xFFFDF9C2  |  4294834626 |
|     171 | 0xFFFFE890  |  4294961296 |
|     172 | 0x13D8B     |       81291 |
|     173 | 0xFFFDEED5  |  4294831829 |
|     174 | 0x13B5A     |       80730 |
|     175 | 0xFFFDEFE0  |  4294832096 |
|     176 | 0xFFFFE891  |  4294961297 |
|     177 | 0xFFFF19D9  |  4294908377 |
|     178 | 0xFFF634F6  |  4294325494 |
|     179 | 0xFFFFD23B  |  4294955579 |
|     180 | 0x098C      |        2444 |
|     181 | 0xFFFF0495  |  4294902933 |
|     182 | 0xFFF641BC  |  4294328764 |
|     183 | 0xFFFF193D  |  4294908221 |
|     184 | 0xFFF61A75  |  4294318709 |
|     185 | 0xFFFFD258  |  4294955608 |
|     186 | 0xFFFF146F  |  4294906991 |
|     187 | 0xFFF615C4  |  4294317508 |
|     188 | 0xFFFFD33F  |  4294955839 |
|     189 | 0xFFFF2032  |  4294910002 |
|     190 | 0xFFF61E03  |  4294319619 |
|     191 | 0xFFFFD10B  |  4294955275 |
|     192 | 0xFFFF180C  |  4294907916 |
|     193 | 0xFFF61CF5  |  4294319349 |
|     194 | 0xFFFFD292  |  4294955666 |

## String References

- **7331**: Choose a picture to take.
- **7332**: First scene.
- **7333**: Second scene.
- **7334**: Third scene.
- **7335**: Which picture will you take? [Show me again./First scene./Second scene./Third scene.]
- **7336**: <Player> records the first scene.
- **7337**: <Player> records the second scene.
- **7338**: <Player> records the third scene.
- **7339**: <Player> takes in the surrounding scenery. ...The view is breathtaking.
- **7340**: <Player> thinks back on Balakaf's words. ...Perhaps this is not the best time to record a picture.
- **7359**: The $0 is gone!
- **7366**: Did you? [Yes, I told him./How should I remember?]
- **7389**: Return to headquarters? [It's time to go./No, I can't leave you!]
- **7419**: Nothing happens. Could the power of the ruins have been drained...?

## Events

### Event 65535

#### Metadata

| Field        | Value   |
|--------------|---------|
| Entrypoint   | 0x0000  |
| Data Size    | 1 bytes |
| Instructions | 1       |

```
      00 01 02 03 04 05 06 07  08 09 0A 0B 0C 0D 0E 0F
      -- -- -- -- -- -- -- --  -- -- -- -- -- -- -- --
0000: 00                                                .               
```

#### Opcodes

```
  0: 0x0000 [0x00] END_REQSTACK()
```

### Event 65534

#### Metadata

| Field        | Value   |
|--------------|---------|
| Entrypoint   | 0x0001  |
| Data Size    | 1 bytes |
| Instructions | 1       |

```
      00 01 02 03 04 05 06 07  08 09 0A 0B 0C 0D 0E 0F
      -- -- -- -- -- -- -- --  -- -- -- -- -- -- -- --
0000:    00                                              .              
```

#### Opcodes

```
  0: 0x0001 [0x00] END_REQSTACK()
```

### Event 500

#### Metadata

| Field        | Value    |
|--------------|----------|
| Entrypoint   | 0x0002   |
| Data Size    | 13 bytes |
| Instructions | 3        |

```
      00 01 02 03 04 05 06 07  08 09 0A 0B 0C 0D 0E 0F
      -- -- -- -- -- -- -- --  -- -- -- -- -- -- -- --
0000:       47 00 00 80 01 80  02 80 03 80 47 01 00       G.........G.. 
```

#### Opcodes

```
  0: 0x0002 [0x47] UPDATE_PLAYER_POS(692.179*, 220.026*, -18.496*, yaw=0.0°*)
  1: 0x000C [0x47] WAIT_PLAYER_POS_UPDATE
  2: 0x000E [0x00] END_REQSTACK()
```

### Event 501

#### Metadata

| Field        | Value    |
|--------------|----------|
| Entrypoint   | 0x000F   |
| Data Size    | 14 bytes |
| Instructions | 4        |

```
      00 01 02 03 04 05 06 07  08 09 0A 0B 0C 0D 0E 0F
      -- -- -- -- -- -- -- --  -- -- -- -- -- -- -- --
0000:                                               32                 2
0010: 04 80 1F 00 05 80 06 80  02 80 1F 01 00           .............   
```

#### Opcodes

```
  0: 0x000F [0x32] ExtData[1]->MainSpeed = 13* * 0.1
  1: 0x0012 [0x1F] MOVE_ENTITY: EventEntity moves to X=697.005*, Z=220.044*, Y=-18.496*
  2: 0x001A [0x1F] MOVE_ENTITY: Update entity position (mode=1)
  3: 0x001C [0x00] END_REQSTACK()
```

### Event 65535.1

#### Metadata

| Field        | Value    |
|--------------|----------|
| Entrypoint   | 0x001D   |
| Data Size    | 41 bytes |
| Instructions | 5        |

```
      00 01 02 03 04 05 06 07  08 09 0A 0B 0C 0D 0E 0F
      -- -- -- -- -- -- -- --  -- -- -- -- -- -- -- --
0010:                                         62 07 80               b..
0020: F0 FF FF 7F F0 FF FF 7F  6D 61 69 6E 03 80 1C 08  ........main....
0030: 80 45 09 80 F0 FF FF 7F  F0 FF FF 7F 66 64 6F 31  .E..........fdo1
0040: 03 80 1C 0A 80 00                                 ......          
```

#### Opcodes

```
  0: 0x001D [0x62] LOAD_EVENT_SCHEDULER: Load scheduler "main" with entities [LocalPlayer, LocalPlayer], work=[1*, 0*]
  1: 0x002E [0x1C] WAIT(140* ticks)
  2: 0x0031 [0x45] LOAD_SCHEDULED_TASK: Load scheduler "fdo1" with entities [LocalPlayer, LocalPlayer], work=[200*, 0*]
  3: 0x0042 [0x1C] WAIT(60* ticks)
  4: 0x0045 [0x00] END_REQSTACK()
```

### Event 65535.2

#### Metadata

| Field        | Value    |
|--------------|----------|
| Entrypoint   | 0x0046   |
| Data Size    | 41 bytes |
| Instructions | 5        |

```
      00 01 02 03 04 05 06 07  08 09 0A 0B 0C 0D 0E 0F
      -- -- -- -- -- -- -- --  -- -- -- -- -- -- -- --
0040:                   45 09  80 F0 FF FF 7F F0 FF FF        E.........
0050: 7F 66 64 69 31 03 80 1C  0A 80 62 0B 80 F0 FF FF  .fdi1.....b.....
0060: 7F F0 FF FF 7F 6D 61 69  6E 03 80 1C 0C 80 00     .....main...... 
```

#### Opcodes

```
  0: 0x0046 [0x45] LOAD_SCHEDULED_TASK: Load scheduler "fdi1" with entities [LocalPlayer, LocalPlayer], work=[200*, 0*]
  1: 0x0057 [0x1C] WAIT(60* ticks)
  2: 0x005A [0x62] LOAD_EVENT_SCHEDULER: Load scheduler "main" with entities [LocalPlayer, LocalPlayer], work=[2*, 0*]
  3: 0x006B [0x1C] WAIT(170* ticks)
  4: 0x006E [0x00] END_REQSTACK()
```

### Event 503

#### Metadata

| Field        | Value     |
|--------------|-----------|
| Entrypoint   | 0x006F    |
| Data Size    | 722 bytes |
| Instructions | 88        |

```
      00 01 02 03 04 05 06 07  08 09 0A 0B 0C 0D 0E 0F
      -- -- -- -- -- -- -- --  -- -- -- -- -- -- -- --
0060:                                               42                 B
0070: 48 0D 80 23 45 09 80 F8  FF FF 7F F8 FF FF 7F 66  H..#E..........f
0080: 64 6F 31 03 80 55 09 80  F8 FF FF 7F F8 FF FF 7F  do1..U..........
0090: 66 64 6F 31 46 01 38 0E  80 4E 01 F0 FF FF 7F 03  fdo1F.8..N......
00A0: 00 00 03 80 02 00 00 03  80 00 29 03 45 0F 80 F8  ..........).E...
00B0: FF FF 7F F8 FF FF 7F 73  30 36 33 03 80 1C 0A 80  .......s063.....
00C0: 45 09 80 F8 FF FF 7F F8  FF FF 7F 66 64 69 31 03  E..........fdi1.
00D0: 80 1C 0A 80 48 10 80 23  45 09 80 F8 FF FF 7F F8  ....H..#E.......
00E0: FF FF 7F 66 64 6F 31 03  80 55 09 80 F8 FF FF 7F  ...fdo1..U......
00F0: F8 FF FF 7F 66 64 6F 31  52 0F 80 F8 FF FF 7F F8  ....fdo1R.......
0100: FF FF 7F 73 30 36 33 45  0F 80 F8 FF FF 7F F8 FF  ...s063E........
0110: FF 7F 73 30 36 34 03 80  1C 0A 80 45 09 80 F8 FF  ..s064.....E....
0120: FF 7F F8 FF FF 7F 66 64  69 31 03 80 1C 0A 80 48  ......fdi1.....H
0130: 11 80 23 45 09 80 F8 FF  FF 7F F8 FF FF 7F 66 64  ..#E..........fd
0140: 6F 31 03 80 55 09 80 F8  FF FF 7F F8 FF FF 7F 66  o1..U..........f
0150: 64 6F 31 52 0F 80 F8 FF  FF 7F F8 FF FF 7F 73 30  do1R..........s0
0160: 36 34 45 0F 80 F8 FF FF  7F F8 FF FF 7F 73 30 36  64E..........s06
0170: 35 03 80 1C 0A 80 45 09  80 F8 FF FF 7F F8 FF FF  5.....E.........
0180: 7F 66 64 69 31 03 80 1C  0A 80 48 12 80 23 24 13  .fdi1.....H..#$.
0190: 80 03 80 03 80 25 02 00  10 03 80 00 A1 01 01 D9  .....%..........
01A0: 02 02 00 10 07 80 00 25  02 45 09 80 F8 FF FF 7F  .......%.E......
01B0: F8 FF FF 7F 66 64 6F 31  03 80 55 09 80 F8 FF FF  ....fdo1..U.....
01C0: 7F F8 FF FF 7F 66 64 6F  31 52 0F 80 F8 FF FF 7F  .....fdo1R......
01D0: F8 FF FF 7F 73 30 36 35  45 0F 80 F8 FF FF 7F F8  ....s065E.......
01E0: FF FF 7F 73 30 36 33 03  80 1C 0A 80 45 09 80 F8  ...s063.....E...
01F0: FF FF 7F F8 FF FF 7F 66  64 69 31 03 80 1C 14 80  .......fdi1.....
0200: 45 15 80 F8 FF FF 7F F8  FF FF 7F 73 30 34 37 03  E..........s047.
0210: 80 1C 14 80 48 16 80 23  03 00 00 07 80 03 01 10  ....H..#........
0220: 07 80 01 D9 02 02 00 10  0B 80 00 A9 02 45 09 80  .............E..
0230: F8 FF FF 7F F8 FF FF 7F  66 64 6F 31 03 80 55 09  ........fdo1..U.
0240: 80 F8 FF FF 7F F8 FF FF  7F 66 64 6F 31 52 0F 80  .........fdo1R..
0250: F8 FF FF 7F F8 FF FF 7F  73 30 36 35 45 0F 80 F8  ........s065E...
0260: FF FF 7F F8 FF FF 7F 73  30 36 34 03 80 1C 0A 80  .......s064.....
0270: 45 09 80 F8 FF FF 7F F8  FF FF 7F 66 64 69 31 03  E..........fdi1.
0280: 80 1C 14 80 45 15 80 F8  FF FF 7F F8 FF FF 7F 73  ....E..........s
0290: 30 34 37 03 80 1C 14 80  48 17 80 23 03 00 00 07  047.....H..#....
02A0: 80 03 01 10 0B 80 01 D9  02 02 00 10 18 80 00 D9  ................
02B0: 02 1C 14 80 45 15 80 F8  FF FF 7F F8 FF FF 7F 73  ....E..........s
02C0: 30 34 37 03 80 1C 14 80  48 19 80 23 03 00 00 07  047.....H..#....
02D0: 80 03 01 10 18 80 01 D9  02 45 09 80 F8 FF FF 7F  .........E......
02E0: F8 FF FF 7F 66 64 6F 31  03 80 55 09 80 F8 FF FF  ....fdo1..U.....
02F0: 7F F8 FF FF 7F 66 64 6F  31 52 0F 80 F8 FF FF 7F  .....fdo1R......
0300: F8 FF FF 7F 73 30 36 33  52 0F 80 F8 FF FF 7F F8  ....s063R.......
0310: FF FF 7F 73 30 36 34 52  0F 80 F8 FF FF 7F F8 FF  ...s064R........
0320: FF 7F 73 30 36 35 01 A4  00 46 00 1C 0A 80 45 09  ..s065...F....E.
0330: 80 F8 FF FF 7F F8 FF FF  7F 66 64 69 31 03 80 21  .........fdi1..!
0340: 00                                                .               
```

#### Opcodes

```
  0: 0x006F [0x42] SET_CLI_EVENT_CANCEL_DATA()
  1: 0x0070 [0x48] [System] [7331*]:
    → "Choose a picture to take."
  2: 0x0073 [0x23] WAIT_FOR_DIALOG_INTERACTION
  3: 0x0074 [0x45] LOAD_SCHEDULED_TASK: Load scheduler "fdo1" with entities [EventEntity, EventEntity], work=[200*, 0*]
  4: 0x0085 [0x55] WAIT_LOAD_SCHEDULER: Wait for scheduler "fdo1" with entities [EventEntity, EventEntity], work=200*
  5: 0x0094 [0x46] CAMERA_CONTROL: Disable user control
  6: 0x0096 [0x38] SET_CLIENT_EVENT_MODE(mode=27*)
  7: 0x0099 [0x4E] SET_ENTITY_HIDE_FLAG: Hide LocalPlayer
  8: 0x009F [0x03] ExtData[1]->WorkLocal[0] = 0*
  9: 0x00A4 [0x02] IF !(ExtData[1]->WorkLocal[0] == 0*) GOTO 0x0329
 10: 0x00AC [0x45] LOAD_SCHEDULED_TASK: Load scheduler "s063" with entities [EventEntity, EventEntity], work=[253*, 0*]
 11: 0x00BD [0x1C] WAIT(60* ticks)
 12: 0x00C0 [0x45] LOAD_SCHEDULED_TASK: Load scheduler "fdi1" with entities [EventEntity, EventEntity], work=[200*, 0*]
 13: 0x00D1 [0x1C] WAIT(60* ticks)
 14: 0x00D4 [0x48] [System] [7332*]:
    → "First scene."
 15: 0x00D7 [0x23] WAIT_FOR_DIALOG_INTERACTION
 16: 0x00D8 [0x45] LOAD_SCHEDULED_TASK: Load scheduler "fdo1" with entities [EventEntity, EventEntity], work=[200*, 0*]
 17: 0x00E9 [0x55] WAIT_LOAD_SCHEDULER: Wait for scheduler "fdo1" with entities [EventEntity, EventEntity], work=200*
 18: 0x00F8 [0x52] END_LOAD_SCHEDULER: End scheduler "s063" with entities [EventEntity, EventEntity], work=253*
 19: 0x0107 [0x45] LOAD_SCHEDULED_TASK: Load scheduler "s064" with entities [EventEntity, EventEntity], work=[253*, 0*]
 20: 0x0118 [0x1C] WAIT(60* ticks)
 21: 0x011B [0x45] LOAD_SCHEDULED_TASK: Load scheduler "fdi1" with entities [EventEntity, EventEntity], work=[200*, 0*]
 22: 0x012C [0x1C] WAIT(60* ticks)
 23: 0x012F [0x48] [System] [7333*]:
    → "Second scene."
 24: 0x0132 [0x23] WAIT_FOR_DIALOG_INTERACTION
 25: 0x0133 [0x45] LOAD_SCHEDULED_TASK: Load scheduler "fdo1" with entities [EventEntity, EventEntity], work=[200*, 0*]
 26: 0x0144 [0x55] WAIT_LOAD_SCHEDULER: Wait for scheduler "fdo1" with entities [EventEntity, EventEntity], work=200*
 27: 0x0153 [0x52] END_LOAD_SCHEDULER: End scheduler "s064" with entities [EventEntity, EventEntity], work=253*
 28: 0x0162 [0x45] LOAD_SCHEDULED_TASK: Load scheduler "s065" with entities [EventEntity, EventEntity], work=[253*, 0*]
 29: 0x0173 [0x1C] WAIT(60* ticks)
 30: 0x0176 [0x45] LOAD_SCHEDULED_TASK: Load scheduler "fdi1" with entities [EventEntity, EventEntity], work=[200*, 0*]
 31: 0x0187 [0x1C] WAIT(60* ticks)
 32: 0x018A [0x48] [System] [7334*]:
    → "Third scene."
 33: 0x018D [0x23] WAIT_FOR_DIALOG_INTERACTION
 34: 0x018E [0x24] CREATE_DIALOG(message_id=7335*, default_option=0*, option_flags=0*)
    → "Which picture will you take? [Show me again./First scene./Second scene./Third scene.]"
 35: 0x0195 [0x25] WAIT_DIALOG_SELECT()
 36: 0x0196 [0x02] IF !(Work_Zone[0] == 0*) GOTO 0x01A1
 37: 0x019E [0x01] GOTO 0x02D9
 38: 0x01A1 [0x02] IF !(Work_Zone[0] == 1*) GOTO 0x0225
 39: 0x01A9 [0x45] LOAD_SCHEDULED_TASK: Load scheduler "fdo1" with entities [EventEntity, EventEntity], work=[200*, 0*]
 40: 0x01BA [0x55] WAIT_LOAD_SCHEDULER: Wait for scheduler "fdo1" with entities [EventEntity, EventEntity], work=200*
 41: 0x01C9 [0x52] END_LOAD_SCHEDULER: End scheduler "s065" with entities [EventEntity, EventEntity], work=253*
 42: 0x01D8 [0x45] LOAD_SCHEDULED_TASK: Load scheduler "s063" with entities [EventEntity, EventEntity], work=[253*, 0*]
 43: 0x01E9 [0x1C] WAIT(60* ticks)
 44: 0x01EC [0x45] LOAD_SCHEDULED_TASK: Load scheduler "fdi1" with entities [EventEntity, EventEntity], work=[200*, 0*]
 45: 0x01FD [0x1C] WAIT(120* ticks)
 46: 0x0200 [0x45] LOAD_SCHEDULED_TASK: Load scheduler "s047" with entities [EventEntity, EventEntity], work=[254*, 0*]
 47: 0x0211 [0x1C] WAIT(120* ticks)
 48: 0x0214 [0x48] [System] [7336*]:
    → "<Player> records the first scene."
 49: 0x0217 [0x23] WAIT_FOR_DIALOG_INTERACTION
 50: 0x0218 [0x03] ExtData[1]->WorkLocal[0] = 1*
 51: 0x021D [0x03] Work_Zone[1] = 1*
 52: 0x0222 [0x01] GOTO 0x02D9
 53: 0x0225 [0x02] IF !(Work_Zone[0] == 2*) GOTO 0x02A9
 54: 0x022D [0x45] LOAD_SCHEDULED_TASK: Load scheduler "fdo1" with entities [EventEntity, EventEntity], work=[200*, 0*]
 55: 0x023E [0x55] WAIT_LOAD_SCHEDULER: Wait for scheduler "fdo1" with entities [EventEntity, EventEntity], work=200*
 56: 0x024D [0x52] END_LOAD_SCHEDULER: End scheduler "s065" with entities [EventEntity, EventEntity], work=253*
 57: 0x025C [0x45] LOAD_SCHEDULED_TASK: Load scheduler "s064" with entities [EventEntity, EventEntity], work=[253*, 0*]
 58: 0x026D [0x1C] WAIT(60* ticks)
 59: 0x0270 [0x45] LOAD_SCHEDULED_TASK: Load scheduler "fdi1" with entities [EventEntity, EventEntity], work=[200*, 0*]
 60: 0x0281 [0x1C] WAIT(120* ticks)
 61: 0x0284 [0x45] LOAD_SCHEDULED_TASK: Load scheduler "s047" with entities [EventEntity, EventEntity], work=[254*, 0*]
 62: 0x0295 [0x1C] WAIT(120* ticks)
 63: 0x0298 [0x48] [System] [7337*]:
    → "<Player> records the second scene."
 64: 0x029B [0x23] WAIT_FOR_DIALOG_INTERACTION
 65: 0x029C [0x03] ExtData[1]->WorkLocal[0] = 1*
 66: 0x02A1 [0x03] Work_Zone[1] = 2*
 67: 0x02A6 [0x01] GOTO 0x02D9
 68: 0x02A9 [0x02] IF !(Work_Zone[0] == 3*) GOTO 0x02D9
 69: 0x02B1 [0x1C] WAIT(120* ticks)
 70: 0x02B4 [0x45] LOAD_SCHEDULED_TASK: Load scheduler "s047" with entities [EventEntity, EventEntity], work=[254*, 0*]
 71: 0x02C5 [0x1C] WAIT(120* ticks)
 72: 0x02C8 [0x48] [System] [7338*]:
    → "<Player> records the third scene."
 73: 0x02CB [0x23] WAIT_FOR_DIALOG_INTERACTION
 74: 0x02CC [0x03] ExtData[1]->WorkLocal[0] = 1*
 75: 0x02D1 [0x03] Work_Zone[1] = 3*
 76: 0x02D6 [0x01] GOTO 0x02D9

SUBROUTINE_02D9:
 77: 0x02D9 [0x45] LOAD_SCHEDULED_TASK: Load scheduler "fdo1" with entities [EventEntity, EventEntity], work=[200*, 0*]
 78: 0x02EA [0x55] WAIT_LOAD_SCHEDULER: Wait for scheduler "fdo1" with entities [EventEntity, EventEntity], work=200*
 79: 0x02F9 [0x52] END_LOAD_SCHEDULER: End scheduler "s063" with entities [EventEntity, EventEntity], work=253*
 80: 0x0308 [0x52] END_LOAD_SCHEDULER: End scheduler "s064" with entities [EventEntity, EventEntity], work=253*
 81: 0x0317 [0x52] END_LOAD_SCHEDULER: End scheduler "s065" with entities [EventEntity, EventEntity], work=253*
 82: 0x0326 [0x01] GOTO 0x00A4
 83: 0x0329 [0x46] CAMERA_CONTROL: Restore default settings
 84: 0x032B [0x1C] WAIT(60* ticks)
 85: 0x032E [0x45] LOAD_SCHEDULED_TASK: Load scheduler "fdi1" with entities [EventEntity, EventEntity], work=[200*, 0*]
 86: 0x033F [0x21] END_EVENT
 87: 0x0340 [0x00] END_REQSTACK()
```

### Event 505

#### Metadata

| Field        | Value   |
|--------------|---------|
| Entrypoint   | 0x0341  |
| Data Size    | 6 bytes |
| Instructions | 4       |

```
      00 01 02 03 04 05 06 07  08 09 0A 0B 0C 0D 0E 0F
      -- -- -- -- -- -- -- --  -- -- -- -- -- -- -- --
0340:    48 1A 80 23 21 00                               H..#!.         
```

#### Opcodes

```
  0: 0x0341 [0x48] [System] [7339*]:
    → "<Player> takes in the surrounding scenery. ...The view is breathtaking."
  1: 0x0344 [0x23] WAIT_FOR_DIALOG_INTERACTION
  2: 0x0345 [0x21] END_EVENT
  3: 0x0346 [0x00] END_REQSTACK()
```

### Event 506

#### Metadata

| Field        | Value   |
|--------------|---------|
| Entrypoint   | 0x0347  |
| Data Size    | 6 bytes |
| Instructions | 4       |

```
      00 01 02 03 04 05 06 07  08 09 0A 0B 0C 0D 0E 0F
      -- -- -- -- -- -- -- --  -- -- -- -- -- -- -- --
0340:                      48  1B 80 23 21 00                  H..#!.   
```

#### Opcodes

```
  0: 0x0347 [0x48] [System] [7340*]:
    → "<Player> thinks back on Balakaf's words. ...Perhaps this is not the best time to record a picture."
  1: 0x034A [0x23] WAIT_FOR_DIALOG_INTERACTION
  2: 0x034B [0x21] END_EVENT
  3: 0x034C [0x00] END_REQSTACK()
```

### Event 504

#### Metadata

| Field        | Value   |
|--------------|---------|
| Entrypoint   | 0x034D  |
| Data Size    | 1 bytes |
| Instructions | 1       |

```
      00 01 02 03 04 05 06 07  08 09 0A 0B 0C 0D 0E 0F
      -- -- -- -- -- -- -- --  -- -- -- -- -- -- -- --
0340:                                         00                     .  
```

#### Opcodes

```
  0: 0x034D [0x00] END_REQSTACK()
```

### Event 65535.3

#### Metadata

| Field        | Value    |
|--------------|----------|
| Entrypoint   | 0x034E   |
| Data Size    | 15 bytes |
| Instructions | 3        |

```
      00 01 02 03 04 05 06 07  08 09 0A 0B 0C 0D 0E 0F
      -- -- -- -- -- -- -- --  -- -- -- -- -- -- -- --
0340:                                            37 1C                7.
0350: 80 1D 80 1E 80 1F 80 80  F8 FF FF 7F 00           .............   
```

#### Opcodes

```
  0: 0x034E [0x37] UPDATE_EVENT_POSITION_AND_DIR: x=494.095*, z=281.334*, y=-28.250*, direction=96.5°*
  1: 0x0357 [0x80] LOAD_WAIT(entity=EventEntity)
  2: 0x035C [0x00] END_REQSTACK()
```

### Event 65535.4

#### Metadata

| Field        | Value    |
|--------------|----------|
| Entrypoint   | 0x035D   |
| Data Size    | 14 bytes |
| Instructions | 4        |

```
      00 01 02 03 04 05 06 07  08 09 0A 0B 0C 0D 0E 0F
      -- -- -- -- -- -- -- --  -- -- -- -- -- -- -- --
0350:                                         32 04 80               2..
0360: 1F 00 20 80 21 80 22 80  1F 01 00                 .. .!."....     
```

#### Opcodes

```
  0: 0x035D [0x32] ExtData[1]->MainSpeed = 13* * 0.1
  1: 0x0360 [0x1F] MOVE_ENTITY: EventEntity moves to X=491.708*, Z=272.355*, Y=-27.913*
  2: 0x0368 [0x1F] MOVE_ENTITY: Update entity position (mode=1)
  3: 0x036A [0x00] END_REQSTACK()
```

### Event 65535.5

#### Metadata

| Field        | Value    |
|--------------|----------|
| Entrypoint   | 0x036B   |
| Data Size    | 14 bytes |
| Instructions | 4        |

```
      00 01 02 03 04 05 06 07  08 09 0A 0B 0C 0D 0E 0F
      -- -- -- -- -- -- -- --  -- -- -- -- -- -- -- --
0360:                                   32 23 80 1F 00             2#...
0370: 24 80 25 80 26 80 1F 01  00                       $.%.&....       
```

#### Opcodes

```
  0: 0x036B [0x32] ExtData[1]->MainSpeed = 40* * 0.1
  1: 0x036E [0x1F] MOVE_ENTITY: EventEntity moves to X=489.763*, Z=273.807*, Y=-28.668*
  2: 0x0376 [0x1F] MOVE_ENTITY: Update entity position (mode=1)
  3: 0x0378 [0x00] END_REQSTACK()
```

### Event 65535.6

#### Metadata

| Field        | Value    |
|--------------|----------|
| Entrypoint   | 0x0379   |
| Data Size    | 10 bytes |
| Instructions | 2        |

```
      00 01 02 03 04 05 06 07  08 09 0A 0B 0C 0D 0E 0F
      -- -- -- -- -- -- -- --  -- -- -- -- -- -- -- --
0370:                             37 27 80 28 80 29 80           7'.(.).
0380: 2A 80 00                                          *..             
```

#### Opcodes

```
  0: 0x0379 [0x37] UPDATE_EVENT_POSITION_AND_DIR: x=-200.036*, z=79.948*, y=-10.000*, direction=358.2°*
  1: 0x0382 [0x00] END_REQSTACK()
```

### Event 65535.7

#### Metadata

| Field        | Value    |
|--------------|----------|
| Entrypoint   | 0x0383   |
| Data Size    | 10 bytes |
| Instructions | 2        |

```
      00 01 02 03 04 05 06 07  08 09 0A 0B 0C 0D 0E 0F
      -- -- -- -- -- -- -- --  -- -- -- -- -- -- -- --
0380:          37 2B 80 2C 80  2D 80 2E 80 00              7+.,.-....   
```

#### Opcodes

```
  0: 0x0383 [0x37] UPDATE_EVENT_POSITION_AND_DIR: x=-210.518*, z=78.464*, y=-9.503*, direction=354.3°*
  1: 0x038C [0x00] END_REQSTACK()
```

### Event 65535.8

#### Metadata

| Field        | Value    |
|--------------|----------|
| Entrypoint   | 0x038D   |
| Data Size    | 17 bytes |
| Instructions | 3        |

```
      00 01 02 03 04 05 06 07  08 09 0A 0B 0C 0D 0E 0F
      -- -- -- -- -- -- -- --  -- -- -- -- -- -- -- --
0380:                                         1C 2F 80               ./.
0390: 2C F8 FF FF 7F F8 FF FF  7F 64 65 61 64 00        ,........dead.  
```

#### Opcodes

```
  0: 0x038D [0x1C] WAIT(300* ticks)
  1: 0x0390 [0x2C] CREATE_SCHEDULER_TASK: Create scheduler "dead" with entities [EventEntity, EventEntity]
  2: 0x039D [0x00] END_REQSTACK()
```

### Event 65535.9

#### Metadata

| Field        | Value    |
|--------------|----------|
| Entrypoint   | 0x039E   |
| Data Size    | 20 bytes |
| Instructions | 6        |

```
      00 01 02 03 04 05 06 07  08 09 0A 0B 0C 0D 0E 0F
      -- -- -- -- -- -- -- --  -- -- -- -- -- -- -- --
0390:                                            32 04                2.
03A0: 80 1F 00 30 80 31 80 32  80 1F 01 6F 1E 2D 32 03  ...0.1.2...o.-2.
03B0: 01 00                                             ..              
```

#### Opcodes

```
  0: 0x039E [0x32] ExtData[1]->MainSpeed = 13* * 0.1
  1: 0x03A1 [0x1F] MOVE_ENTITY: EventEntity moves to X=-338.628*, Z=643.214*, Y=-32.006*
  2: 0x03A9 [0x1F] MOVE_ENTITY: Update entity position (mode=1)
  3: 0x03AB [0x6F] WAIT_FRAME_DELAY: Yield until WaitTime reaches zero
  4: 0x03AC [0x1E] EventEntity looks at Najelith (ID: 16986669/0x0103322D) and starts talking
  5: 0x03B1 [0x00] END_REQSTACK()
```

### Event 65535.10

#### Metadata

| Field        | Value    |
|--------------|----------|
| Entrypoint   | 0x03B2   |
| Data Size    | 20 bytes |
| Instructions | 6        |

```
      00 01 02 03 04 05 06 07  08 09 0A 0B 0C 0D 0E 0F
      -- -- -- -- -- -- -- --  -- -- -- -- -- -- -- --
03B0:       32 04 80 1F 00 33  80 34 80 35 80 1F 01 6F    2....3.4.5...o
03C0: 1E 2D 32 03 01 00                                 .-2...          
```

#### Opcodes

```
  0: 0x03B2 [0x32] ExtData[1]->MainSpeed = 13* * 0.1
  1: 0x03B5 [0x1F] MOVE_ENTITY: EventEntity moves to X=-339.754*, Z=643.868*, Y=-32.266*
  2: 0x03BD [0x1F] MOVE_ENTITY: Update entity position (mode=1)
  3: 0x03BF [0x6F] WAIT_FRAME_DELAY: Yield until WaitTime reaches zero
  4: 0x03C0 [0x1E] EventEntity looks at Najelith (ID: 16986669/0x0103322D) and starts talking
  5: 0x03C5 [0x00] END_REQSTACK()
```

### Event 65535.11

#### Metadata

| Field        | Value    |
|--------------|----------|
| Entrypoint   | 0x03C6   |
| Data Size    | 15 bytes |
| Instructions | 5        |

```
      00 01 02 03 04 05 06 07  08 09 0A 0B 0C 0D 0E 0F
      -- -- -- -- -- -- -- --  -- -- -- -- -- -- -- --
03C0:                   32 04  80 1F 00 36 80 37 80 38        2....6.7.8
03D0: 80 1F 01 6F 00                                    ...o.           
```

#### Opcodes

```
  0: 0x03C6 [0x32] ExtData[1]->MainSpeed = 13* * 0.1
  1: 0x03C9 [0x1F] MOVE_ENTITY: EventEntity moves to X=-334.414*, Z=638.806*, Y=-31.600*
  2: 0x03D1 [0x1F] MOVE_ENTITY: Update entity position (mode=1)
  3: 0x03D3 [0x6F] WAIT_FRAME_DELAY: Yield until WaitTime reaches zero
  4: 0x03D4 [0x00] END_REQSTACK()
```

### Event 65535.12

#### Metadata

| Field        | Value    |
|--------------|----------|
| Entrypoint   | 0x03D5   |
| Data Size    | 37 bytes |
| Instructions | 5        |

```
      00 01 02 03 04 05 06 07  08 09 0A 0B 0C 0D 0E 0F
      -- -- -- -- -- -- -- --  -- -- -- -- -- -- -- --
03D0:                03 07 00  07 7F 1A C8 05 66 08 00       ........f..
03E0: F8 FF FF 7F F8 FF FF 7F  73 68 61 30 53 F8 FF FF  ........sha0S...
03F0: 7F F8 FF FF 7F 73 68 61  30 00                    .....sha0.      
```

#### Opcodes

```
  0: 0x03D5 [0x03] ExtData[1]->WorkLocal[7] = Entity->Race
  1: 0x03DA [0x1A] CALL_SUBROUTINE(address=0x05C8)
  2: 0x03DD [0x66] LOAD_EXT_SCHEDULER_MAIN: Load scheduler "sha0" with entities [EventEntity, EventEntity], work=ExtData[1]->WorkLocal[8]
  3: 0x03EC [0x53] WAIT_SCHEDULER_TASK: Wait for scheduler "sha0" with entities [EventEntity, EventEntity]
  4: 0x03F9 [0x00] END_REQSTACK()
```

### Event 65535.13

#### Metadata

| Field        | Value    |
|--------------|----------|
| Entrypoint   | 0x03FA   |
| Data Size    | 37 bytes |
| Instructions | 5        |

```
      00 01 02 03 04 05 06 07  08 09 0A 0B 0C 0D 0E 0F
      -- -- -- -- -- -- -- --  -- -- -- -- -- -- -- --
03F0:                                03 07 00 07 7F 1A            ......
0400: C8 05 66 08 00 F8 FF FF  7F F8 FF FF 7F 73 68 61  ..f..........sha
0410: 31 53 F8 FF FF 7F F8 FF  FF 7F 73 68 61 31 00     1S........sha1. 
```

#### Opcodes

```
  0: 0x03FA [0x03] ExtData[1]->WorkLocal[7] = Entity->Race
  1: 0x03FF [0x1A] CALL_SUBROUTINE(address=0x05C8)
  2: 0x0402 [0x66] LOAD_EXT_SCHEDULER_MAIN: Load scheduler "sha1" with entities [EventEntity, EventEntity], work=ExtData[1]->WorkLocal[8]
  3: 0x0411 [0x53] WAIT_SCHEDULER_TASK: Wait for scheduler "sha1" with entities [EventEntity, EventEntity]
  4: 0x041E [0x00] END_REQSTACK()
```

### Event 65535.14

#### Metadata

| Field        | Value    |
|--------------|----------|
| Entrypoint   | 0x041F   |
| Data Size    | 21 bytes |
| Instructions | 3        |

```
      00 01 02 03 04 05 06 07  08 09 0A 0B 0C 0D 0E 0F
      -- -- -- -- -- -- -- --  -- -- -- -- -- -- -- --
0410:                                               1C                 .
0420: 0A 80 9F 39 80 F8 FF FF  7F F8 FF FF 7F 73 74 72  ...9.........str
0430: 30 03 80 00                                       0...            
```

#### Opcodes

```
  0: 0x041F [0x1C] WAIT(60* ticks)
  1: 0x0422 [0x9F] LOAD_SCHEDULED_TASK_ALT: Load scheduler "str0" with entities [EventEntity, EventEntity], work=[127*, 0*]
  2: 0x0433 [0x00] END_REQSTACK()
```

### Event 65535.15

#### Metadata

| Field        | Value    |
|--------------|----------|
| Entrypoint   | 0x0434   |
| Data Size    | 18 bytes |
| Instructions | 2        |

```
      00 01 02 03 04 05 06 07  08 09 0A 0B 0C 0D 0E 0F
      -- -- -- -- -- -- -- --  -- -- -- -- -- -- -- --
0430:             9F 39 80 F8  FF FF 7F F8 FF FF 7F 6B      .9.........k
0440: 69 6C 6C 03 80 00                                 ill...          
```

#### Opcodes

```
  0: 0x0434 [0x9F] LOAD_SCHEDULED_TASK_ALT: Load scheduler "kill" with entities [EventEntity, EventEntity], work=[127*, 0*]
  1: 0x0445 [0x00] END_REQSTACK()
```

### Event 65535.16

#### Metadata

| Field        | Value    |
|--------------|----------|
| Entrypoint   | 0x0446   |
| Data Size    | 41 bytes |
| Instructions | 5        |

```
      00 01 02 03 04 05 06 07  08 09 0A 0B 0C 0D 0E 0F
      -- -- -- -- -- -- -- --  -- -- -- -- -- -- -- --
0440:                   1C 3A  80 9F 39 80 F8 FF FF 7F        .:..9.....
0450: F8 FF FF 7F 73 74 72 30  03 80 1C 3B 80 9F 39 80  ....str0...;..9.
0460: F8 FF FF 7F F8 FF FF 7F  6B 69 6C 6C 03 80 00     ........kill... 
```

#### Opcodes

```
  0: 0x0446 [0x1C] WAIT(240* ticks)
  1: 0x0449 [0x9F] LOAD_SCHEDULED_TASK_ALT: Load scheduler "str0" with entities [EventEntity, EventEntity], work=[127*, 0*]
  2: 0x045A [0x1C] WAIT(20* ticks)
  3: 0x045D [0x9F] LOAD_SCHEDULED_TASK_ALT: Load scheduler "kill" with entities [EventEntity, EventEntity], work=[127*, 0*]
  4: 0x046E [0x00] END_REQSTACK()
```

### Event 65535.17

#### Metadata

| Field        | Value    |
|--------------|----------|
| Entrypoint   | 0x046F   |
| Data Size    | 41 bytes |
| Instructions | 5        |

```
      00 01 02 03 04 05 06 07  08 09 0A 0B 0C 0D 0E 0F
      -- -- -- -- -- -- -- --  -- -- -- -- -- -- -- --
0460:                                               1C                 .
0470: 3C 80 9F 39 80 F8 FF FF  7F F8 FF FF 7F 73 74 72  <..9.........str
0480: 30 03 80 1C 3D 80 9F 39  80 F8 FF FF 7F F8 FF FF  0...=..9........
0490: 7F 6B 69 6C 6C 03 80 00                           .kill...        
```

#### Opcodes

```
  0: 0x046F [0x1C] WAIT(85* ticks)
  1: 0x0472 [0x9F] LOAD_SCHEDULED_TASK_ALT: Load scheduler "str0" with entities [EventEntity, EventEntity], work=[127*, 0*]
  2: 0x0483 [0x1C] WAIT(8* ticks)
  3: 0x0486 [0x9F] LOAD_SCHEDULED_TASK_ALT: Load scheduler "kill" with entities [EventEntity, EventEntity], work=[127*, 0*]
  4: 0x0497 [0x00] END_REQSTACK()
```

### Event 65535.18

#### Metadata

| Field        | Value    |
|--------------|----------|
| Entrypoint   | 0x0498   |
| Data Size    | 36 bytes |
| Instructions | 4        |

```
      00 01 02 03 04 05 06 07  08 09 0A 0B 0C 0D 0E 0F
      -- -- -- -- -- -- -- --  -- -- -- -- -- -- -- --
0490:                          1C 3E 80 52 3F 80 F0 FF          .>.R?...
04A0: FF 7F F0 FF FF 7F 62 72  62 72 45 3F 80 F0 FF FF  ......brbrE?....
04B0: 7F F0 FF FF 7F 61 72 61  72 03 80 00              .....arar...    
```

#### Opcodes

```
  0: 0x0498 [0x1C] WAIT(450* ticks)
  1: 0x049B [0x52] END_LOAD_SCHEDULER: End scheduler "brbr" with entities [LocalPlayer, LocalPlayer], work=292*
  2: 0x04AA [0x45] LOAD_SCHEDULED_TASK: Load scheduler "arar" with entities [LocalPlayer, LocalPlayer], work=[292*, 0*]
  3: 0x04BB [0x00] END_REQSTACK()
```

### Event 65535.19

#### Metadata

| Field        | Value    |
|--------------|----------|
| Entrypoint   | 0x04BC   |
| Data Size    | 41 bytes |
| Instructions | 5        |

```
      00 01 02 03 04 05 06 07  08 09 0A 0B 0C 0D 0E 0F
      -- -- -- -- -- -- -- --  -- -- -- -- -- -- -- --
04B0:                                      1C 08 80 9F              ....
04C0: 39 80 F8 FF FF 7F F8 FF  FF 7F 73 74 72 30 03 80  9.........str0..
04D0: 1C 14 80 9F 39 80 F8 FF  FF 7F F8 FF FF 7F 6B 69  ....9.........ki
04E0: 6C 6C 03 80 00                                    ll...           
```

#### Opcodes

```
  0: 0x04BC [0x1C] WAIT(140* ticks)
  1: 0x04BF [0x9F] LOAD_SCHEDULED_TASK_ALT: Load scheduler "str0" with entities [EventEntity, EventEntity], work=[127*, 0*]
  2: 0x04D0 [0x1C] WAIT(120* ticks)
  3: 0x04D3 [0x9F] LOAD_SCHEDULED_TASK_ALT: Load scheduler "kill" with entities [EventEntity, EventEntity], work=[127*, 0*]
  4: 0x04E4 [0x00] END_REQSTACK()
```

### Event 65535.20

#### Metadata

| Field        | Value    |
|--------------|----------|
| Entrypoint   | 0x04E5   |
| Data Size    | 10 bytes |
| Instructions | 2        |

```
      00 01 02 03 04 05 06 07  08 09 0A 0B 0C 0D 0E 0F
      -- -- -- -- -- -- -- --  -- -- -- -- -- -- -- --
04E0:                37 40 80  41 80 42 80 43 80 00          7@.A.B.C.. 
```

#### Opcodes

```
  0: 0x04E5 [0x37] UPDATE_EVENT_POSITION_AND_DIR: x=678.996*, z=213.971*, y=-15.628*, direction=118.6°*
  1: 0x04EE [0x00] END_REQSTACK()
```

### Event 65535.21

#### Metadata

| Field        | Value    |
|--------------|----------|
| Entrypoint   | 0x04EF   |
| Data Size    | 15 bytes |
| Instructions | 5        |

```
      00 01 02 03 04 05 06 07  08 09 0A 0B 0C 0D 0E 0F
      -- -- -- -- -- -- -- --  -- -- -- -- -- -- -- --
04E0:                                               32                 2
04F0: 04 80 1F 00 44 80 45 80  46 80 1F 01 6F 00        ....D.E.F...o.  
```

#### Opcodes

```
  0: 0x04EF [0x32] ExtData[1]->MainSpeed = 13* * 0.1
  1: 0x04F2 [0x1F] MOVE_ENTITY: EventEntity moves to X=679.063*, Z=206.785*, Y=-15.827*
  2: 0x04FA [0x1F] MOVE_ENTITY: Update entity position (mode=1)
  3: 0x04FC [0x6F] WAIT_FRAME_DELAY: Yield until WaitTime reaches zero
  4: 0x04FD [0x00] END_REQSTACK()
```

### Event 65535.22

#### Metadata

| Field        | Value    |
|--------------|----------|
| Entrypoint   | 0x04FE   |
| Data Size    | 10 bytes |
| Instructions | 4        |

```
      00 01 02 03 04 05 06 07  08 09 0A 0B 0C 0D 0E 0F
      -- -- -- -- -- -- -- --  -- -- -- -- -- -- -- --
04F0:                                            4B F8                K.
0500: FF FF 7F 47 80 6F 70 00                           ...G.op.        
```

#### Opcodes

```
  0: 0x04FE [0x4B] UPDATE_ENTITY_YAW(entity=EventEntity, yaw=19.8°*)
  1: 0x0505 [0x6F] WAIT_FRAME_DELAY: Yield until WaitTime reaches zero
  2: 0x0506 [0x70] WAIT_ENTITY_RENDER_FLAG: Wait while EventEntity->Render.Flags3 bit 2 is set (cancel turn if not)
  3: 0x0507 [0x00] END_REQSTACK()
```

### Event 65535.23

#### Metadata

| Field        | Value    |
|--------------|----------|
| Entrypoint   | 0x0508   |
| Data Size    | 25 bytes |
| Instructions | 6        |

```
      00 01 02 03 04 05 06 07  08 09 0A 0B 0C 0D 0E 0F
      -- -- -- -- -- -- -- --  -- -- -- -- -- -- -- --
0500:                          1C 0A 80 59 01 F8 FF FF          ...Y....
0510: 7F 48 80 4B F8 FF FF 7F  49 80 6F 76 F8 FF FF 7F  .H.K....I.ov....
0520: 00                                                .               
```

#### Opcodes

```
  0: 0x0508 [0x1C] WAIT(60* ticks)
  1: 0x050B [0x59] UPDATE_ENTITY_DATA: Set EventEntity turn speed = 50*
  2: 0x0513 [0x4B] UPDATE_ENTITY_YAW(entity=EventEntity, yaw=2.8°*)
  3: 0x051A [0x6F] WAIT_FRAME_DELAY: Yield until WaitTime reaches zero
  4: 0x051B [0x76] CHECK_ENTITY_RENDER_FLAGS: Wait until EventEntity Render.Flags0 and Render.Flags3 conditions are met
  5: 0x0520 [0x00] END_REQSTACK()
```

### Event 65535.24

#### Metadata

| Field        | Value    |
|--------------|----------|
| Entrypoint   | 0x0521   |
| Data Size    | 27 bytes |
| Instructions | 3        |

```
      00 01 02 03 04 05 06 07  08 09 0A 0B 0C 0D 0E 0F
      -- -- -- -- -- -- -- --  -- -- -- -- -- -- -- --
0520:    2C F8 FF FF 7F F8 FF  FF 7F 63 6F 72 70 53 F8   ,........corpS.
0530: FF FF 7F F8 FF FF 7F 63  6F 72 70 00              .......corp.    
```

#### Opcodes

```
  0: 0x0521 [0x2C] CREATE_SCHEDULER_TASK: Create scheduler "corp" with entities [EventEntity, EventEntity]
  1: 0x052E [0x53] WAIT_SCHEDULER_TASK: Wait for scheduler "corp" with entities [EventEntity, EventEntity]
  2: 0x053B [0x00] END_REQSTACK()
```

### Event 65535.25

#### Metadata

| Field        | Value   |
|--------------|---------|
| Entrypoint   | 0x053C  |
| Data Size    | 9 bytes |
| Instructions | 3       |

```
      00 01 02 03 04 05 06 07  08 09 0A 0B 0C 0D 0E 0F
      -- -- -- -- -- -- -- --  -- -- -- -- -- -- -- --
0530:                                      5E 69 64 6C              ^idl
0540: 30 1C 0A 80 00                                    0....           
```

#### Opcodes

```
  0: 0x053C [0x5E] EventEntity goes idle (kills current action) (animation: "idl0")
  1: 0x0541 [0x1C] WAIT(60* ticks)
  2: 0x0544 [0x00] END_REQSTACK()
```

### Event 65535.26

#### Metadata

| Field        | Value    |
|--------------|----------|
| Entrypoint   | 0x0545   |
| Data Size    | 24 bytes |
| Instructions | 4        |

```
      00 01 02 03 04 05 06 07  08 09 0A 0B 0C 0D 0E 0F
      -- -- -- -- -- -- -- --  -- -- -- -- -- -- -- --
0540:                3B 8A 32  03 01 01 00 02 00 03 00       ;.2........
0550: 31 00 01 00 02 00 03 00  4A 80 31 01 00           1.......J.1..   
```

#### Opcodes

```
  0: 0x0545 [0x3B] GET_ENTITY_POSITION(entity=Clavauert (ID: 16986762/0x0103328A), x_destination=ExtData[1]->WorkLocal[1], y_destination=ExtData[1]->WorkLocal[2], z_destination=ExtData[1]->WorkLocal[3])
  1: 0x0550 [0x31] UPDATE_ENTITY_POSITION: Set EventEntity goal position to X=ExtData[1]->WorkLocal[1], Z=ExtData[1]->WorkLocal[2], Y=ExtData[1]->WorkLocal[3], Time=100*
  2: 0x055A [0x31] UPDATE_ENTITY_POSITION: Move EventEntity towards goal position
  3: 0x055C [0x00] END_REQSTACK()
```

### Event 65535.27

#### Metadata

| Field        | Value    |
|--------------|----------|
| Entrypoint   | 0x055D   |
| Data Size    | 27 bytes |
| Instructions | 5        |

```
      00 01 02 03 04 05 06 07  08 09 0A 0B 0C 0D 0E 0F
      -- -- -- -- -- -- -- --  -- -- -- -- -- -- -- --
0550:                                         3B 8A 32               ;.2
0560: 03 01 01 00 02 00 03 00  32 04 80 31 00 01 00 02  ........2..1....
0570: 00 03 00 4A 80 31 01 00                           ...J.1..        
```

#### Opcodes

```
  0: 0x055D [0x3B] GET_ENTITY_POSITION(entity=Clavauert (ID: 16986762/0x0103328A), x_destination=ExtData[1]->WorkLocal[1], y_destination=ExtData[1]->WorkLocal[2], z_destination=ExtData[1]->WorkLocal[3])
  1: 0x0568 [0x32] ExtData[1]->MainSpeed = 13* * 0.1
  2: 0x056B [0x31] UPDATE_ENTITY_POSITION: Set EventEntity goal position to X=ExtData[1]->WorkLocal[1], Z=ExtData[1]->WorkLocal[2], Y=ExtData[1]->WorkLocal[3], Time=100*
  3: 0x0575 [0x31] UPDATE_ENTITY_POSITION: Move EventEntity towards goal position
  4: 0x0577 [0x00] END_REQSTACK()
```

### Event 65535.28

#### Metadata

| Field        | Value    |
|--------------|----------|
| Entrypoint   | 0x0578   |
| Data Size    | 37 bytes |
| Instructions | 5        |

```
      00 01 02 03 04 05 06 07  08 09 0A 0B 0C 0D 0E 0F
      -- -- -- -- -- -- -- --  -- -- -- -- -- -- -- --
0570:                          03 07 00 07 7F 1A C8 05          ........
0580: 66 08 00 F8 FF FF 7F F8  FF FF 7F 74 6C 6B 30 53  f..........tlk0S
0590: F8 FF FF 7F F8 FF FF 7F  74 6C 6B 30 00           ........tlk0.   
```

#### Opcodes

```
  0: 0x0578 [0x03] ExtData[1]->WorkLocal[7] = Entity->Race
  1: 0x057D [0x1A] CALL_SUBROUTINE(address=0x05C8)
  2: 0x0580 [0x66] LOAD_EXT_SCHEDULER_MAIN: Load scheduler "tlk0" with entities [EventEntity, EventEntity], work=ExtData[1]->WorkLocal[8]
  3: 0x058F [0x53] WAIT_SCHEDULER_TASK: Wait for scheduler "tlk0" with entities [EventEntity, EventEntity]
  4: 0x059C [0x00] END_REQSTACK()
```

### Event 65535.29

#### Metadata

| Field        | Value    |
|--------------|----------|
| Entrypoint   | 0x059D   |
| Data Size    | 37 bytes |
| Instructions | 5        |

```
      00 01 02 03 04 05 06 07  08 09 0A 0B 0C 0D 0E 0F
      -- -- -- -- -- -- -- --  -- -- -- -- -- -- -- --
0590:                                         03 07 00               ...
05A0: 07 7F 1A C8 05 66 08 00  F8 FF FF 7F F8 FF FF 7F  .....f..........
05B0: 74 6C 6B 31 53 F8 FF FF  7F F8 FF FF 7F 74 6C 6B  tlk1S........tlk
05C0: 31 00                                             1.              
```

#### Opcodes

```
  0: 0x059D [0x03] ExtData[1]->WorkLocal[7] = Entity->Race
  1: 0x05A2 [0x1A] CALL_SUBROUTINE(address=0x05C8)
  2: 0x05A5 [0x66] LOAD_EXT_SCHEDULER_MAIN: Load scheduler "tlk1" with entities [EventEntity, EventEntity], work=ExtData[1]->WorkLocal[8]
  3: 0x05B4 [0x53] WAIT_SCHEDULER_TASK: Wait for scheduler "tlk1" with entities [EventEntity, EventEntity]
  4: 0x05C1 [0x00] END_REQSTACK()
```

### Event 65535.30

#### Metadata

| Field        | Value     |
|--------------|-----------|
| Entrypoint   | 0x05C2    |
| Data Size    | 154 bytes |
| Instructions | 2         |

```
      00 01 02 03 04 05 06 07  08 09 0A 0B 0C 0D 0E 0F
      -- -- -- -- -- -- -- --  -- -- -- -- -- -- -- --
05C0:       03 02 10 07 7F 00  03 08 00 07 00 02 08 00    ..............
05D0: 4B 80 05 DD 05 08 08 00  07 80 01 E2 05 08 08 00  K...............
05E0: 0B 80 14 08 00 4C 80 07  08 00 4D 80 1B 03 08 00  .....L....M.....
05F0: 07 00 02 08 00 4B 80 05  02 06 08 08 00 07 80 01  .....K..........
0600: 07 06 08 08 00 0B 80 14  08 00 4C 80 07 08 00 4E  ..........L....N
0610: 80 1B 03 08 00 07 00 02  08 00 4B 80 05 27 06 08  ..........K..'..
0620: 08 00 07 80 01 2C 06 08  08 00 0B 80 14 08 00 4C  .....,.........L
0630: 80 07 08 00 08 80 1B 03  08 00 07 00 02 08 00 4B  ...............K
0640: 80 05 4C 06 08 08 00 07  80 01 51 06 08 08 00 0B  ..L.......Q.....
0650: 80 14 08 00 4C 80 07 08  00 4F 80 1B              ....L....O..    
```

#### Opcodes

```
  0: 0x05C2 [0x03] Work_Zone[2] = Entity->Race
  1: 0x05C7 [0x00] END_REQSTACK()
```

#### Data or dead code:

```
# Dead code (unreachable instructions):
     0x05C8 [0x03] ExtData[1]->WorkLocal[8] = ExtData[1]->WorkLocal[7]
     0x05CD [0x02] IF !(ExtData[1]->WorkLocal[8] > 5*) GOTO 0x05DD
     0x05D5 [0x08] ExtData[1]->WorkLocal[8] -= 1*
     0x05DA [0x01] GOTO 0x05E2
     0x05DD [0x08] ExtData[1]->WorkLocal[8] -= 2*
     0x05E2 [0x14] ExtData[1]->WorkLocal[8] *= 10*
     0x05E7 [0x07] ExtData[1]->WorkLocal[8] += 9*
     0x05EC [0x1B] RETURN
     0x05ED [0x03] ExtData[1]->WorkLocal[8] = ExtData[1]->WorkLocal[7]
     0x05F2 [0x02] IF !(ExtData[1]->WorkLocal[8] > 5*) GOTO 0x0602
     0x05FA [0x08] ExtData[1]->WorkLocal[8] -= 1*
     0x05FF [0x01] GOTO 0x0607
     0x0602 [0x08] ExtData[1]->WorkLocal[8] -= 2*
     0x0607 [0x14] ExtData[1]->WorkLocal[8] *= 10*
     0x060C [0x07] ExtData[1]->WorkLocal[8] += 70*
     0x0611 [0x1B] RETURN
     0x0612 [0x03] ExtData[1]->WorkLocal[8] = ExtData[1]->WorkLocal[7]
     0x0617 [0x02] IF !(ExtData[1]->WorkLocal[8] > 5*) GOTO 0x0627
     0x061F [0x08] ExtData[1]->WorkLocal[8] -= 1*
     0x0624 [0x01] GOTO 0x062C
     0x0627 [0x08] ExtData[1]->WorkLocal[8] -= 2*
     0x062C [0x14] ExtData[1]->WorkLocal[8] *= 10*
     0x0631 [0x07] ExtData[1]->WorkLocal[8] += 140*
     0x0636 [0x1B] RETURN
     0x0637 [0x03] ExtData[1]->WorkLocal[8] = ExtData[1]->WorkLocal[7]
     0x063C [0x02] IF !(ExtData[1]->WorkLocal[8] > 5*) GOTO 0x064C
     0x0644 [0x08] ExtData[1]->WorkLocal[8] -= 1*
     0x0649 [0x01] GOTO 0x0651
     0x064C [0x08] ExtData[1]->WorkLocal[8] -= 2*
     0x0651 [0x14] ExtData[1]->WorkLocal[8] *= 10*
     0x0656 [0x07] ExtData[1]->WorkLocal[8] += 210*
     0x065B [0x1B] RETURN
```

### Event 65535.31

#### Metadata

| Field        | Value     |
|--------------|-----------|
| Entrypoint   | 0x065C    |
| Data Size    | 353 bytes |
| Instructions | 41        |

```
      00 01 02 03 04 05 06 07  08 09 0A 0B 0C 0D 0E 0F
      -- -- -- -- -- -- -- --  -- -- -- -- -- -- -- --
0650:                                      02 07 7F 07              ....
0660: 80 80 88 06 66 50 80 F8  FF FF 7F F8 FF FF 7F 74  ....fP.........t
0670: 6C 6B 30 1C 14 80 66 50  80 F8 FF FF 7F F8 FF FF  lk0...fP........
0680: 7F 74 6C 6B 31 01 BC 07  02 07 7F 0B 80 80 B4 06  .tlk1...........
0690: 66 51 80 F8 FF FF 7F F8  FF FF 7F 74 6C 6B 30 1C  fQ.........tlk0.
06A0: 14 80 66 51 80 F8 FF FF  7F F8 FF FF 7F 74 6C 6B  ..fQ.........tlk
06B0: 31 01 BC 07 02 07 7F 18  80 80 E0 06 66 52 80 F8  1...........fR..
06C0: FF FF 7F F8 FF FF 7F 74  6C 6B 30 1C 14 80 66 52  .......tlk0...fR
06D0: 80 F8 FF FF 7F F8 FF FF  7F 74 6C 6B 31 01 BC 07  .........tlk1...
06E0: 02 07 7F 53 80 80 0C 07  66 54 80 F8 FF FF 7F F8  ...S....fT......
06F0: FF FF 7F 74 6C 6B 30 1C  14 80 66 54 80 F8 FF FF  ...tlk0...fT....
0700: 7F F8 FF FF 7F 74 6C 6B  31 01 BC 07 02 07 7F 4B  .....tlk1......K
0710: 80 80 38 07 66 55 80 F8  FF FF 7F F8 FF FF 7F 74  ..8.fU.........t
0720: 6C 6B 30 1C 14 80 66 55  80 F8 FF FF 7F F8 FF FF  lk0...fU........
0730: 7F 74 6C 6B 31 01 BC 07  02 07 7F 56 80 80 64 07  .tlk1......V..d.
0740: 66 55 80 F8 FF FF 7F F8  FF FF 7F 74 6C 6B 30 1C  fU.........tlk0.
0750: 14 80 66 55 80 F8 FF FF  7F F8 FF FF 7F 74 6C 6B  ..fU.........tlk
0760: 31 01 BC 07 02 07 7F 57  80 80 90 07 66 58 80 F8  1......W....fX..
0770: FF FF 7F F8 FF FF 7F 74  6C 6B 30 1C 14 80 66 58  .......tlk0...fX
0780: 80 F8 FF FF 7F F8 FF FF  7F 74 6C 6B 31 01 BC 07  .........tlk1...
0790: 02 07 7F 3D 80 80 BC 07  66 59 80 F8 FF FF 7F F8  ...=....fY......
07A0: FF FF 7F 74 6C 6B 30 1C  14 80 66 59 80 F8 FF FF  ...tlk0...fY....
07B0: 7F F8 FF FF 7F 74 6C 6B  31 01 BC 07 00           .....tlk1....   
```

#### Opcodes

```
  0: 0x065C [0x02] IF !(Entity->Race == 1*) GOTO 0x0688
  1: 0x0664 [0x66] LOAD_EXT_SCHEDULER_MAIN: Load scheduler "tlk0" with entities [EventEntity, EventEntity], work=149*
  2: 0x0673 [0x1C] WAIT(120* ticks)
  3: 0x0676 [0x66] LOAD_EXT_SCHEDULER_MAIN: Load scheduler "tlk1" with entities [EventEntity, EventEntity], work=149*
  4: 0x0685 [0x01] GOTO 0x07BC
  5: 0x0688 [0x02] IF !(Entity->Race == 2*) GOTO 0x06B4
  6: 0x0690 [0x66] LOAD_EXT_SCHEDULER_MAIN: Load scheduler "tlk0" with entities [EventEntity, EventEntity], work=159*
  7: 0x069F [0x1C] WAIT(120* ticks)
  8: 0x06A2 [0x66] LOAD_EXT_SCHEDULER_MAIN: Load scheduler "tlk1" with entities [EventEntity, EventEntity], work=159*
  9: 0x06B1 [0x01] GOTO 0x07BC
 10: 0x06B4 [0x02] IF !(Entity->Race == 3*) GOTO 0x06E0
 11: 0x06BC [0x66] LOAD_EXT_SCHEDULER_MAIN: Load scheduler "tlk0" with entities [EventEntity, EventEntity], work=169*
 12: 0x06CB [0x1C] WAIT(120* ticks)
 13: 0x06CE [0x66] LOAD_EXT_SCHEDULER_MAIN: Load scheduler "tlk1" with entities [EventEntity, EventEntity], work=169*
 14: 0x06DD [0x01] GOTO 0x07BC
 15: 0x06E0 [0x02] IF !(Entity->Race == 4*) GOTO 0x070C
 16: 0x06E8 [0x66] LOAD_EXT_SCHEDULER_MAIN: Load scheduler "tlk0" with entities [EventEntity, EventEntity], work=179*
 17: 0x06F7 [0x1C] WAIT(120* ticks)
 18: 0x06FA [0x66] LOAD_EXT_SCHEDULER_MAIN: Load scheduler "tlk1" with entities [EventEntity, EventEntity], work=179*
 19: 0x0709 [0x01] GOTO 0x07BC
 20: 0x070C [0x02] IF !(Entity->Race == 5*) GOTO 0x0738
 21: 0x0714 [0x66] LOAD_EXT_SCHEDULER_MAIN: Load scheduler "tlk0" with entities [EventEntity, EventEntity], work=189*
 22: 0x0723 [0x1C] WAIT(120* ticks)
 23: 0x0726 [0x66] LOAD_EXT_SCHEDULER_MAIN: Load scheduler "tlk1" with entities [EventEntity, EventEntity], work=189*
 24: 0x0735 [0x01] GOTO 0x07BC
 25: 0x0738 [0x02] IF !(Entity->Race == 6*) GOTO 0x0764
 26: 0x0740 [0x66] LOAD_EXT_SCHEDULER_MAIN: Load scheduler "tlk0" with entities [EventEntity, EventEntity], work=189*
 27: 0x074F [0x1C] WAIT(120* ticks)
 28: 0x0752 [0x66] LOAD_EXT_SCHEDULER_MAIN: Load scheduler "tlk1" with entities [EventEntity, EventEntity], work=189*
 29: 0x0761 [0x01] GOTO 0x07BC
 30: 0x0764 [0x02] IF !(Entity->Race == 7*) GOTO 0x0790
 31: 0x076C [0x66] LOAD_EXT_SCHEDULER_MAIN: Load scheduler "tlk0" with entities [EventEntity, EventEntity], work=199*
 32: 0x077B [0x1C] WAIT(120* ticks)
 33: 0x077E [0x66] LOAD_EXT_SCHEDULER_MAIN: Load scheduler "tlk1" with entities [EventEntity, EventEntity], work=199*
 34: 0x078D [0x01] GOTO 0x07BC
 35: 0x0790 [0x02] IF !(Entity->Race == 8*) GOTO 0x07BC
 36: 0x0798 [0x66] LOAD_EXT_SCHEDULER_MAIN: Load scheduler "tlk0" with entities [EventEntity, EventEntity], work=209*
 37: 0x07A7 [0x1C] WAIT(120* ticks)
 38: 0x07AA [0x66] LOAD_EXT_SCHEDULER_MAIN: Load scheduler "tlk1" with entities [EventEntity, EventEntity], work=209*
 39: 0x07B9 [0x01] GOTO 0x07BC

SUBROUTINE_07BC:
 40: 0x07BC [0x00] END_REQSTACK()
```

### Event 65535.32

#### Metadata

| Field        | Value    |
|--------------|----------|
| Entrypoint   | 0x07BD   |
| Data Size    | 14 bytes |
| Instructions | 4        |

```
      00 01 02 03 04 05 06 07  08 09 0A 0B 0C 0D 0E 0F
      -- -- -- -- -- -- -- --  -- -- -- -- -- -- -- --
07B0:                                         32 04 80               2..
07C0: 1F 00 5A 80 5B 80 29 80  1F 01 00                 ..Z.[.)....     
```

#### Opcodes

```
  0: 0x07BD [0x32] ExtData[1]->MainSpeed = 13* * 0.1
  1: 0x07C0 [0x1F] MOVE_ENTITY: EventEntity moves to X=-213.043*, Z=83.820*, Y=-10.000*
  2: 0x07C8 [0x1F] MOVE_ENTITY: Update entity position (mode=1)
  3: 0x07CA [0x00] END_REQSTACK()
```

### Event 508

#### Metadata

| Field        | Value      |
|--------------|------------|
| Entrypoint   | 0x07CB     |
| Data Size    | 1644 bytes |
| Instructions | 230        |

```
      00 01 02 03 04 05 06 07  08 09 0A 0B 0C 0D 0E 0F
      -- -- -- -- -- -- -- --  -- -- -- -- -- -- -- --
07C0:                                   42 45 09 80 F8             BE...
07D0: FF FF 7F F8 FF FF 7F 66  64 6F 31 03 80 55 09 80  .......fdo1..U..
07E0: F8 FF FF 7F F8 FF FF 7F  66 64 6F 31 46 01 38 5C  ........fdo1F.8\
07F0: 80 37 5D 80 5E 80 5F 80  60 80 27 10 23 32 03 01  .7].^._.`.'.#2..
0800: 02 92 01 21 32 03 01 92  01 22 32 03 01 92 01 23  ...!2...."2....#
0810: 32 03 01 92 01 24 32 03  01 4E 00 22 32 03 01 2F  2....$2..N."2../
0820: 00 21 32 03 01 2F 00 22  32 03 01 2F 00 23 32 03  .!2../."2../.#2.
0830: 01 2F 00 24 32 03 01 80  21 32 03 01 80 22 32 03  ./.$2...!2..."2.
0840: 01 80 23 32 03 01 80 24  32 03 01 80 2A 32 03 01  ..#2...$2...*2..
0850: 94 01 22 32 03 01 94 01  21 32 03 01 94 01 F0 FF  .."2....!2......
0860: FF 7F 03 02 10 61 80 03  03 10 0B 7F 1C 62 80 45  .....a.......b.E
0870: 63 80 F0 FF FF 7F F0 FF  FF 7F 7A 30 30 30 03 80  c.........z000..
0880: 45 09 80 F8 FF FF 7F F8  FF FF 7F 66 64 69 31 03  E..........fdi1.
0890: 80 1C 0A 80 48 64 80 1C  65 80 2B 22 32 03 01 66  ....Hd..e.+"2..f
08A0: 80 23 1C 0A 80 52 63 80  F0 FF FF 7F F0 FF FF 7F  .#...Rc.........
08B0: 7A 30 30 30 45 63 80 F0  FF FF 7F F0 FF FF 7F 7A  z000Ec.........z
08C0: 30 30 31 03 80 1C 0A 80  4A F0 FF FF 7F 22 32 03  001.....J...."2.
08D0: 01 2B 22 32 03 01 67 80  23 5C 00 68 80 5C 01 68  .+"2..g.#\.h.\.h
08E0: 80 9A 27 10 22 32 03 01  02 1C 62 80 2B 22 32 03  ..'."2....b.+"2.
08F0: 01 69 80 23 1C 62 80 52  63 80 F0 FF FF 7F F0 FF  .i.#.b.Rc.......
0900: FF 7F 7A 30 30 31 45 63  80 F0 FF FF 7F F0 FF FF  ..z001Ec........
0910: 7F 7A 30 30 32 03 80 1C  6A 80 2B 22 32 03 01 6B  .z002...j.+"2..k
0920: 80 23 6E 22 32 03 01 6C  80 99 22 32 03 01 2B 22  .#n"2..l.."2..+"
0930: 32 03 01 6D 80 23 1C 0A  80 52 63 80 F0 FF FF 7F  2..m.#...Rc.....
0940: F0 FF FF 7F 7A 30 30 32  45 63 80 F0 FF FF 7F F0  ....z002Ec......
0950: FF FF 7F 7A 30 30 33 03  80 1C 62 80 2B 22 32 03  ...z003...b.+"2.
0960: 01 6E 80 23 4E 00 21 32  03 01 24 6F 80 03 80 03  .n.#N.!2..$o....
0970: 80 25 02 00 10 03 80 00  B9 09 52 63 80 F0 FF FF  .%........Rc....
0980: 7F F0 FF FF 7F 7A 30 30  33 45 63 80 F0 FF FF 7F  .....z003Ec.....
0990: F0 FF FF 7F 7A 30 30 34  03 80 2B 22 32 03 01 70  ....z004..+"2..p
09A0: 80 23 6E 22 32 03 01 6C  80 99 22 32 03 01 2B 22  .#n"2..l.."2..+"
09B0: 32 03 01 71 80 23 01 00  0A 02 00 10 07 80 00 00  2..q.#..........
09C0: 0A 52 63 80 F0 FF FF 7F  F0 FF FF 7F 7A 30 30 33  .Rc.........z003
09D0: 45 63 80 F0 FF FF 7F F0  FF FF 7F 7A 30 30 34 03  Ec.........z004.
09E0: 80 2B 22 32 03 01 72 80  23 6E 22 32 03 01 73 80  .+"2..r.#n"2..s.
09F0: 99 22 32 03 01 2B 22 32  03 01 74 80 23 01 00 0A  ."2..+"2..t.#...
0A00: 1C 14 80 2B 21 32 03 01  75 80 23 52 63 80 F0 FF  ...+!2..u.#Rc...
0A10: FF 7F F0 FF FF 7F 7A 30  30 34 45 63 80 F0 FF FF  ......z004Ec....
0A20: 7F F0 FF FF 7F 7A 30 30  35 03 80 79 00 21 32 03  .....z005..y.!2.
0A30: 01 22 32 03 01 29 10 21  32 03 01 02 4A 21 32 03  ."2..).!2...J!2.
0A40: 01 22 32 03 01 1C 0A 80  52 63 80 F0 FF FF 7F F0  ."2.....Rc......
0A50: FF FF 7F 7A 30 30 35 45  63 80 F0 FF FF 7F F0 FF  ...z005Ec.......
0A60: FF 7F 7A 30 30 36 03 80  1C 0A 80 2B 22 32 03 01  ..z006.....+"2..
0A70: 76 80 23 52 63 80 F0 FF  FF 7F F0 FF FF 7F 7A 30  v.#Rc.........z0
0A80: 30 36 45 63 80 F0 FF FF  7F F0 FF FF 7F 7A 30 30  06Ec.........z00
0A90: 37 03 80 1C 0A 80 4A 22  32 03 01 21 32 03 01 2B  7.....J"2..!2..+
0AA0: 21 32 03 01 77 80 23 66  78 80 21 32 03 01 21 32  !2..w.#fx.!2..!2
0AB0: 03 01 73 74 64 30 2B 21  32 03 01 79 80 23 1C 6A  ..std0+!2..y.#.j
0AC0: 80 52 63 80 F0 FF FF 7F  F0 FF FF 7F 7A 30 30 37  .Rc.........z007
0AD0: 45 63 80 F0 FF FF 7F F0  FF FF 7F 7A 30 30 38 03  Ec.........z008.
0AE0: 80 1C 7A 80 2B 22 32 03  01 7B 80 23 27 10 22 32  ..z.+"2..{.#'."2
0AF0: 03 01 03 1C 0A 80 2B 22  32 03 01 7C 80 23 1C 0A  ......+"2..|.#..
0B00: 80 2B 22 32 03 01 7D 80  23 1C 62 80 52 63 80 F0  .+"2..}.#.b.Rc..
0B10: FF FF 7F F0 FF FF 7F 7A  30 30 38 45 63 80 F0 FF  .......z008Ec...
0B20: FF 7F F0 FF FF 7F 7A 30  30 39 03 80 66 78 80 21  ......z009..fx.!
0B30: 32 03 01 21 32 03 01 73  74 64 31 1C 62 80 66 5C  2..!2..std1.b.f\
0B40: 80 22 32 03 01 22 32 03  01 74 6C 6B 30 2B 22 32  ."2.."2..tlk0+"2
0B50: 03 01 7E 80 23 1C 62 80  2B 22 32 03 01 7F 80 23  ..~.#.b.+"2....#
0B60: 66 5C 80 22 32 03 01 22  32 03 01 74 6C 6B 31 1C  f\."2.."2..tlk1.
0B70: 6A 80 2B 22 32 03 01 80  80 23 1C 62 80 52 63 80  j.+"2....#.b.Rc.
0B80: F0 FF FF 7F F0 FF FF 7F  7A 30 30 39 45 63 80 F0  ........z009Ec..
0B90: FF FF 7F F0 FF FF 7F 7A  30 34 34 03 80 1C 0A 80  .......z044.....
0BA0: 6E 22 32 03 01 03 80 99  22 32 03 01 2B 22 32 03  n"2....."2..+"2.
0BB0: 01 81 80 23 1C 62 80 52  63 80 F0 FF FF 7F F0 FF  ...#.b.Rc.......
0BC0: FF 7F 7A 30 34 34 45 63  80 F0 FF FF 7F F0 FF FF  ..z044Ec........
0BD0: 7F 7A 30 31 30 03 80 1C  0A 80 2B 21 32 03 01 82  .z010.....+!2...
0BE0: 80 23 1C 6A 80 2B 22 32  03 01 83 80 23 1C 62 80  .#.j.+"2....#.b.
0BF0: 52 63 80 F0 FF FF 7F F0  FF FF 7F 7A 30 31 30 45  Rc.........z010E
0C00: 63 80 F0 FF FF 7F F0 FF  FF 7F 7A 30 31 31 03 80  c.........z011..
0C10: 1C 84 80 2B 21 32 03 01  85 80 23 1C 0A 80 52 63  ...+!2....#...Rc
0C20: 80 F0 FF FF 7F F0 FF FF  7F 7A 30 31 31 45 63 80  .........z011Ec.
0C30: F0 FF FF 7F F0 FF FF 7F  7A 30 31 32 03 80 6E 22  ........z012..n"
0C40: 32 03 01 53 80 99 22 32  03 01 2B 22 32 03 01 86  2..S.."2..+"2...
0C50: 80 23 1C 62 80 52 63 80  F0 FF FF 7F F0 FF FF 7F  .#.b.Rc.........
0C60: 7A 30 31 32 45 63 80 F0  FF FF 7F F0 FF FF 7F 7A  z012Ec.........z
0C70: 30 31 33 03 80 1C 84 80  52 63 80 F0 FF FF 7F F0  013.....Rc......
0C80: FF FF 7F 7A 30 31 33 45  63 80 F0 FF FF 7F F0 FF  ...z013Ec.......
0C90: FF 7F 7A 30 34 33 03 80  1C 6A 80 6E 22 32 03 01  ..z043...j.n"2..
0CA0: 87 80 99 22 32 03 01 2B  21 32 03 01 88 80 23 1C  ..."2..+!2....#.
0CB0: 0A 80 52 63 80 F0 FF FF  7F F0 FF FF 7F 7A 30 34  ..Rc.........z04
0CC0: 33 45 63 80 F0 FF FF 7F  F0 FF FF 7F 7A 30 34 35  3Ec.........z045
0CD0: 03 80 7B 21 32 03 01 1C  62 80 2B 22 32 03 01 89  ..{!2...b.+"2...
0CE0: 80 23 1C 62 80 52 63 80  F0 FF FF 7F F0 FF FF 7F  .#.b.Rc.........
0CF0: 7A 30 34 35 45 63 80 F0  FF FF 7F F0 FF FF 7F 7A  z045Ec.........z
0D00: 30 34 36 03 80 24 8A 80  03 80 03 80 25 02 00 10  046..$......%...
0D10: 03 80 00 52 0D 52 63 80  F0 FF FF 7F F0 FF FF 7F  ...R.Rc.........
0D20: 7A 30 34 36 45 63 80 F0  FF FF 7F F0 FF FF 7F 7A  z046Ec.........z
0D30: 30 31 34 03 80 1C 6A 80  66 8B 80 22 32 03 01 22  014...j.f.."2.."
0D40: 32 03 01 63 72 30 35 2B  22 32 03 01 8C 80 23 01  2..cr05+"2....#.
0D50: 68 0D 02 00 10 07 80 00  68 0D 2B 21 32 03 01 8D  h.......h.+!2...
0D60: 80 23 01 05 0D 01 68 0D  29 10 F0 FF FF 7F 29 52  .#....h.).....)R
0D70: 63 80 F0 FF FF 7F F0 FF  FF 7F 7A 30 31 34 4E 01  c.........z014N.
0D80: F0 FF FF 7F 4E 00 23 32  03 01 4E 00 24 32 03 01  ....N.#2..N.$2..
0D90: 45 63 80 F0 FF FF 7F F0  FF FF 7F 7A 30 31 35 03  Ec.........z015.
0DA0: 80 1C 62 80 27 10 24 32  03 01 02 27 10 23 32 03  ..b.'.$2...'.#2.
0DB0: 01 03 1C 0A 80 2B 21 32  03 01 8E 80 23 66 78 80  .....+!2....#fx.
0DC0: 21 32 03 01 21 32 03 01  73 74 64 30 2B 21 32 03  !2..!2..std0+!2.
0DD0: 01 8F 80 1C 65 80 45 09  80 F8 FF FF 7F F8 FF FF  ....e.E.........
0DE0: 7F 66 64 6F 31 03 80 55  09 80 F8 FF FF 7F F8 FF  .fdo1..U........
0DF0: FF 7F 66 64 6F 31 1C 62  80 45 63 80 F0 FF FF 7F  ..fdo1.b.Ec.....
0E00: F0 FF FF 7F 62 6F 66 66  03 80 52 63 80 F0 FF FF  ....boff..Rc....
0E10: 7F F0 FF FF 7F 7A 30 31  35 5C 00 50 80 5C 01 50  .....z015\.P.\.P
0E20: 80 9A 46 00 45 09 80 F8  FF FF 7F F8 FF FF 7F 66  ..F.E..........f
0E30: 64 69 31 03 80 21 00                              di1..!.         
```

#### Opcodes

```
  0: 0x07CB [0x42] SET_CLI_EVENT_CANCEL_DATA()
  1: 0x07CC [0x45] LOAD_SCHEDULED_TASK: Load scheduler "fdo1" with entities [EventEntity, EventEntity], work=[200*, 0*]
  2: 0x07DD [0x55] WAIT_LOAD_SCHEDULER: Wait for scheduler "fdo1" with entities [EventEntity, EventEntity], work=200*
  3: 0x07EC [0x46] CAMERA_CONTROL: Disable user control
  4: 0x07EE [0x38] SET_CLIENT_EVENT_MODE(mode=19*)
  5: 0x07F1 [0x37] UPDATE_EVENT_POSITION_AND_DIR: x=-198.522*, z=86.342*, y=-8.298*, direction=105.8°*
  6: 0x07FA [0x27] REQ_SET(priority=0x10, entity_id=Yazquhl (ID: 16986659/0x01033223), tag_num=0x02)
  7: 0x0801 [0x92] Qultada (ID: 16986657/0x01033221)->Render.Flags3 ^= 0x01
  8: 0x0807 [0x92] Imutira (ID: 16986658/0x01033222)->Render.Flags3 ^= 0x01
  9: 0x080D [0x92] Yazquhl (ID: 16986659/0x01033223)->Render.Flags3 ^= 0x01
 10: 0x0813 [0x92] Gowam (ID: 16986660/0x01033224)->Render.Flags3 ^= 0x01
 11: 0x0819 [0x4E] SET_ENTITY_HIDE_FLAG: Show Imutira (ID: 16986658/0x01033222)
 12: 0x081F [0x2F] Qultada (ID: 16986657/0x01033221)->Render.Flags0 &= ~0x80000 // Bit 19
 13: 0x0825 [0x2F] Imutira (ID: 16986658/0x01033222)->Render.Flags0 &= ~0x80000 // Bit 19
 14: 0x082B [0x2F] Yazquhl (ID: 16986659/0x01033223)->Render.Flags0 &= ~0x80000 // Bit 19
 15: 0x0831 [0x2F] Gowam (ID: 16986660/0x01033224)->Render.Flags0 &= ~0x80000 // Bit 19
 16: 0x0837 [0x80] LOAD_WAIT(entity=Qultada (ID: 16986657/0x01033221))
 17: 0x083C [0x80] LOAD_WAIT(entity=Imutira (ID: 16986658/0x01033222))
 18: 0x0841 [0x80] LOAD_WAIT(entity=Yazquhl (ID: 16986659/0x01033223))
 19: 0x0846 [0x80] LOAD_WAIT(entity=Gowam (ID: 16986660/0x01033224))
 20: 0x084B [0x80] LOAD_WAIT(entity=Leypoint (ID: 16986666/0x0103322A))
 21: 0x0850 [0x94] Imutira (ID: 16986658/0x01033222)->Render.Flags3 ^= 0x01
 22: 0x0856 [0x94] Qultada (ID: 16986657/0x01033221)->Render.Flags3 ^= 0x01
 23: 0x085C [0x94] LocalPlayer->Render.Flags3 ^= 0x01
 24: 0x0862 [0x03] Work_Zone[2] = 2341*
 25: 0x0867 [0x03] Work_Zone[3] = (Entity->Render.Flags01 >> 25) & 1
 26: 0x086C [0x1C] WAIT(30* ticks)
 27: 0x086F [0x45] LOAD_SCHEDULED_TASK: Load scheduler "z000" with entities [LocalPlayer, LocalPlayer], work=[285*, 0*]
 28: 0x0880 [0x45] LOAD_SCHEDULED_TASK: Load scheduler "fdi1" with entities [EventEntity, EventEntity], work=[200*, 0*]
 29: 0x0891 [0x1C] WAIT(60* ticks)
 30: 0x0894 [0x48] [System] [7359*]:
    → "The $0 is gone!"
 31: 0x0897 [0x1C] WAIT(150* ticks)
 32: 0x089A [0x2B] Imutira (ID: 16986658/0x01033222) [7360*]:
    → "The $0 shows the ocean "as seen from the eyes of the seagull"... He used to love saying that..."
 33: 0x08A1 [0x23] WAIT_FOR_DIALOG_INTERACTION
 34: 0x08A2 [0x1C] WAIT(60* ticks)
 35: 0x08A5 [0x52] END_LOAD_SCHEDULER: End scheduler "z000" with entities [LocalPlayer, LocalPlayer], work=285*
 36: 0x08B4 [0x45] LOAD_SCHEDULED_TASK: Load scheduler "z001" with entities [LocalPlayer, LocalPlayer], work=[285*, 0*]
 37: 0x08C5 [0x1C] WAIT(60* ticks)
 38: 0x08C8 [0x4A] LocalPlayer looks at Imutira (ID: 16986658/0x01033222)
 39: 0x08D1 [0x2B] Imutira (ID: 16986658/0x01033222) [7361*]:
    → "Long time no see... I knew we'd meet again."
 40: 0x08D8 [0x23] WAIT_FOR_DIALOG_INTERACTION
 41: 0x08D9 [0x5C] MUSIC_CONTROL: Set Idle (Day) music to song 172*
 42: 0x08DD [0x5C] MUSIC_CONTROL: Set Idle (Night) music to song 172*
 43: 0x08E1 [0x9A] WAIT_MUSIC_SERVER()
 44: 0x08E2 [0x27] REQ_SET(priority=0x10, entity_id=Imutira (ID: 16986658/0x01033222), tag_num=0x02)
 45: 0x08E9 [0x1C] WAIT(30* ticks)
 46: 0x08EC [0x2B] Imutira (ID: 16986658/0x01033222) [7362*]:
    → "Hm? You buried something here? Why, I have no idea what you're talking about..."
 47: 0x08F3 [0x23] WAIT_FOR_DIALOG_INTERACTION
 48: 0x08F4 [0x1C] WAIT(30* ticks)
 49: 0x08F7 [0x52] END_LOAD_SCHEDULER: End scheduler "z001" with entities [LocalPlayer, LocalPlayer], work=285*
 50: 0x0906 [0x45] LOAD_SCHEDULED_TASK: Load scheduler "z002" with entities [LocalPlayer, LocalPlayer], work=[285*, 0*]
 51: 0x0917 [0x1C] WAIT(45* ticks)
 52: 0x091A [0x2B] Imutira (ID: 16986658/0x01033222) [7363*]:
    → "Oh, do you doubt me? How terrible...even though I was so nice to you earlier."
 53: 0x0921 [0x23] WAIT_FOR_DIALOG_INTERACTION
 54: 0x0922 [0x6E] Imutira (ID: 16986658/0x01033222) uses emote 32*
 55: 0x0929 [0x99] Wait for Imutira (ID: 16986658/0x01033222) animation to complete
 56: 0x092E [0x2B] Imutira (ID: 16986658/0x01033222) [7364*]:
    → "So the Seagull Phratrie is searching for the $0, is it? Looks like they're getting desperate now, aren't they?"
 57: 0x0935 [0x23] WAIT_FOR_DIALOG_INTERACTION
 58: 0x0936 [0x1C] WAIT(60* ticks)
 59: 0x0939 [0x52] END_LOAD_SCHEDULER: End scheduler "z002" with entities [LocalPlayer, LocalPlayer], work=285*
 60: 0x0948 [0x45] LOAD_SCHEDULED_TASK: Load scheduler "z003" with entities [LocalPlayer, LocalPlayer], work=[285*, 0*]
 61: 0x0959 [0x1C] WAIT(30* ticks)
 62: 0x095C [0x2B] Imutira (ID: 16986658/0x01033222) [7365*]:
    → "Oh yes... Did you say hello to Qultada for me?"
 63: 0x0963 [0x23] WAIT_FOR_DIALOG_INTERACTION
 64: 0x0964 [0x4E] SET_ENTITY_HIDE_FLAG: Show Qultada (ID: 16986657/0x01033221)
 65: 0x096A [0x24] CREATE_DIALOG(message_id=7366*, default_option=0*, option_flags=0*)
    → "Did you? [Yes, I told him./How should I remember?]"
 66: 0x0971 [0x25] WAIT_DIALOG_SELECT()
 67: 0x0972 [0x02] IF !(Work_Zone[0] == 0*) GOTO 0x09B9
 68: 0x097A [0x52] END_LOAD_SCHEDULER: End scheduler "z003" with entities [LocalPlayer, LocalPlayer], work=285*
 69: 0x0989 [0x45] LOAD_SCHEDULED_TASK: Load scheduler "z004" with entities [LocalPlayer, LocalPlayer], work=[285*, 0*]
 70: 0x099A [0x2B] Imutira (ID: 16986658/0x01033222) [7367*]:
    → "That's odd... I wonder why he hasn't shown his face yet, then..."
 71: 0x09A1 [0x23] WAIT_FOR_DIALOG_INTERACTION
 72: 0x09A2 [0x6E] Imutira (ID: 16986658/0x01033222) uses emote 32*
 73: 0x09A9 [0x99] Wait for Imutira (ID: 16986658/0x01033222) animation to complete
 74: 0x09AE [0x2B] Imutira (ID: 16986658/0x01033222) [7368*]:
    → "I guess I should have made myself a bit...clearer."
 75: 0x09B5 [0x23] WAIT_FOR_DIALOG_INTERACTION
 76: 0x09B6 [0x01] GOTO 0x0A00
 77: 0x09B9 [0x02] IF !(Work_Zone[0] == 1*) GOTO 0x0A00
 78: 0x09C1 [0x52] END_LOAD_SCHEDULER: End scheduler "z003" with entities [LocalPlayer, LocalPlayer], work=285*
 79: 0x09D0 [0x45] LOAD_SCHEDULED_TASK: Load scheduler "z004" with entities [LocalPlayer, LocalPlayer], work=[285*, 0*]
 80: 0x09E1 [0x2B] Imutira (ID: 16986658/0x01033222) [7369*]:
    → "I see you've got some nerve. You should watch your mouth, though..."
 81: 0x09E8 [0x23] WAIT_FOR_DIALOG_INTERACTION
 82: 0x09E9 [0x6E] Imutira (ID: 16986658/0x01033222) uses emote 25*
 83: 0x09F0 [0x99] Wait for Imutira (ID: 16986658/0x01033222) animation to complete
 84: 0x09F5 [0x2B] Imutira (ID: 16986658/0x01033222) [7370*]:
    → "Or you might end up swimming with the fishes in the Cyan Deep!"
 85: 0x09FC [0x23] WAIT_FOR_DIALOG_INTERACTION
 86: 0x09FD [0x01] GOTO 0x0A00

SUBROUTINE_0A00:
 87: 0x0A00 [0x1C] WAIT(120* ticks)
 88: 0x0A03 [0x2B] Qultada (ID: 16986657/0x01033221) [7371*]:
    → "You need to learn to stay out of Phratrie business."
 89: 0x0A0A [0x23] WAIT_FOR_DIALOG_INTERACTION
 90: 0x0A0B [0x52] END_LOAD_SCHEDULER: End scheduler "z004" with entities [LocalPlayer, LocalPlayer], work=285*
 91: 0x0A1A [0x45] LOAD_SCHEDULED_TASK: Load scheduler "z005" with entities [LocalPlayer, LocalPlayer], work=[285*, 0*]
 92: 0x0A2B [0x79] Qultada (ID: 16986657/0x01033221) looks at Imutira (ID: 16986658/0x01033222) (Basic look)
 93: 0x0A35 [0x29] REQ_SET_WAIT(priority=0x10, entity_id=Qultada (ID: 16986657/0x01033221), tag_num=0x02)
 94: 0x0A3C [0x4A] Qultada (ID: 16986657/0x01033221) looks at Imutira (ID: 16986658/0x01033222)
 95: 0x0A45 [0x1C] WAIT(60* ticks)
 96: 0x0A48 [0x52] END_LOAD_SCHEDULER: End scheduler "z005" with entities [LocalPlayer, LocalPlayer], work=285*
 97: 0x0A57 [0x45] LOAD_SCHEDULED_TASK: Load scheduler "z006" with entities [LocalPlayer, LocalPlayer], work=[285*, 0*]
 98: 0x0A68 [0x1C] WAIT(60* ticks)
 99: 0x0A6B [0x2B] Imutira (ID: 16986658/0x01033222) [7372*]:
    → "Well, well, it looks like the star has arrived. Nice to see you, Qultada."
100: 0x0A72 [0x23] WAIT_FOR_DIALOG_INTERACTION
101: 0x0A73 [0x52] END_LOAD_SCHEDULER: End scheduler "z006" with entities [LocalPlayer, LocalPlayer], work=285*
102: 0x0A82 [0x45] LOAD_SCHEDULED_TASK: Load scheduler "z007" with entities [LocalPlayer, LocalPlayer], work=[285*, 0*]
103: 0x0A93 [0x1C] WAIT(60* ticks)
104: 0x0A96 [0x4A] Imutira (ID: 16986658/0x01033222) looks at Qultada (ID: 16986657/0x01033221)
105: 0x0A9F [0x2B] Qultada (ID: 16986657/0x01033221) [7373*]:
    → "I heard your name from <Player> and followed [him/her] here. I did not think you would stoop this far, though..."
106: 0x0AA6 [0x23] WAIT_FOR_DIALOG_INTERACTION
107: 0x0AA7 [0x66] LOAD_EXT_SCHEDULER_MAIN: Load scheduler "std0" with entities [Qultada (ID: 16986657/0x01033221), Qultada (ID: 16986657/0x01033221)], work=66*
108: 0x0AB6 [0x2B] Qultada (ID: 16986657/0x01033221) [7374*]:
    → "Imutira, you promised never to show your face to the Seagull Phratrie again."
109: 0x0ABD [0x23] WAIT_FOR_DIALOG_INTERACTION
110: 0x0ABE [0x1C] WAIT(45* ticks)
111: 0x0AC1 [0x52] END_LOAD_SCHEDULER: End scheduler "z007" with entities [LocalPlayer, LocalPlayer], work=285*
112: 0x0AD0 [0x45] LOAD_SCHEDULED_TASK: Load scheduler "z008" with entities [LocalPlayer, LocalPlayer], work=[285*, 0*]
113: 0x0AE1 [0x1C] WAIT(15* ticks)
114: 0x0AE4 [0x2B] Imutira (ID: 16986658/0x01033222) [7375*]:
    → "Could you be wishing you put an end to me back then? How simply terrible of you."
115: 0x0AEB [0x23] WAIT_FOR_DIALOG_INTERACTION
116: 0x0AEC [0x27] REQ_SET(priority=0x10, entity_id=Imutira (ID: 16986658/0x01033222), tag_num=0x03)
117: 0x0AF3 [0x1C] WAIT(60* ticks)
118: 0x0AF6 [0x2B] Imutira (ID: 16986658/0x01033222) [7376*]:
    → "Let's forget about the past, shall we? We never knew each other."
119: 0x0AFD [0x23] WAIT_FOR_DIALOG_INTERACTION
120: 0x0AFE [0x1C] WAIT(60* ticks)
121: 0x0B01 [0x2B] Imutira (ID: 16986658/0x01033222) [7377*]:
    → "I just want to get along with everyone, you know."
122: 0x0B08 [0x23] WAIT_FOR_DIALOG_INTERACTION
123: 0x0B09 [0x1C] WAIT(30* ticks)
124: 0x0B0C [0x52] END_LOAD_SCHEDULER: End scheduler "z008" with entities [LocalPlayer, LocalPlayer], work=285*
125: 0x0B1B [0x45] LOAD_SCHEDULED_TASK: Load scheduler "z009" with entities [LocalPlayer, LocalPlayer], work=[285*, 0*]
126: 0x0B2C [0x66] LOAD_EXT_SCHEDULER_MAIN: Load scheduler "std1" with entities [Qultada (ID: 16986657/0x01033221), Qultada (ID: 16986657/0x01033221)], work=66*
127: 0x0B3B [0x1C] WAIT(30* ticks)
128: 0x0B3E [0x66] LOAD_EXT_SCHEDULER_MAIN: Load scheduler "tlk0" with entities [Imutira (ID: 16986658/0x01033222), Imutira (ID: 16986658/0x01033222)], work=19*
129: 0x0B4D [0x2B] Imutira (ID: 16986658/0x01033222) [7378*]:
    → "Also, Qultada... You need $0, don't you?"
130: 0x0B54 [0x23] WAIT_FOR_DIALOG_INTERACTION
131: 0x0B55 [0x1C] WAIT(30* ticks)
132: 0x0B58 [0x2B] Imutira (ID: 16986658/0x01033222) [7379*]:
    → "I just happen to have one right here. What a coincidence!"
133: 0x0B5F [0x23] WAIT_FOR_DIALOG_INTERACTION
134: 0x0B60 [0x66] LOAD_EXT_SCHEDULER_MAIN: Load scheduler "tlk1" with entities [Imutira (ID: 16986658/0x01033222), Imutira (ID: 16986658/0x01033222)], work=19*
135: 0x0B6F [0x1C] WAIT(45* ticks)
136: 0x0B72 [0x2B] Imutira (ID: 16986658/0x01033222) [7380*]:
    → "And, being the kind person I am, I'm thinking of giving it to my friends, the corsairs."
137: 0x0B79 [0x23] WAIT_FOR_DIALOG_INTERACTION
138: 0x0B7A [0x1C] WAIT(30* ticks)
139: 0x0B7D [0x52] END_LOAD_SCHEDULER: End scheduler "z009" with entities [LocalPlayer, LocalPlayer], work=285*
140: 0x0B8C [0x45] LOAD_SCHEDULED_TASK: Load scheduler "z044" with entities [LocalPlayer, LocalPlayer], work=[285*, 0*]
141: 0x0B9D [0x1C] WAIT(60* ticks)
142: 0x0BA0 [0x6E] Imutira (ID: 16986658/0x01033222) uses emote 0*
143: 0x0BA7 [0x99] Wait for Imutira (ID: 16986658/0x01033222) animation to complete
144: 0x0BAC [0x2B] Imutira (ID: 16986658/0x01033222) [7382*]:
    → "Of course, I require something of you first."
145: 0x0BB3 [0x23] WAIT_FOR_DIALOG_INTERACTION
146: 0x0BB4 [0x1C] WAIT(30* ticks)
147: 0x0BB7 [0x52] END_LOAD_SCHEDULER: End scheduler "z044" with entities [LocalPlayer, LocalPlayer], work=285*
148: 0x0BC6 [0x45] LOAD_SCHEDULED_TASK: Load scheduler "z010" with entities [LocalPlayer, LocalPlayer], work=[285*, 0*]
149: 0x0BD7 [0x1C] WAIT(60* ticks)
150: 0x0BDA [0x2B] Qultada (ID: 16986657/0x01033221) [7383*]:
    → "I knew it."
151: 0x0BE1 [0x23] WAIT_FOR_DIALOG_INTERACTION
152: 0x0BE2 [0x1C] WAIT(45* ticks)
153: 0x0BE5 [0x2B] Imutira (ID: 16986658/0x01033222) [7384*]:
    → "Well then..."
154: 0x0BEC [0x23] WAIT_FOR_DIALOG_INTERACTION
155: 0x0BED [0x1C] WAIT(30* ticks)
156: 0x0BF0 [0x52] END_LOAD_SCHEDULER: End scheduler "z010" with entities [LocalPlayer, LocalPlayer], work=285*
157: 0x0BFF [0x45] LOAD_SCHEDULED_TASK: Load scheduler "z011" with entities [LocalPlayer, LocalPlayer], work=[285*, 0*]
158: 0x0C10 [0x1C] WAIT(90* ticks)
159: 0x0C13 [0x2B] Qultada (ID: 16986657/0x01033221) [7385*]:
    → "What do you want?"
160: 0x0C1A [0x23] WAIT_FOR_DIALOG_INTERACTION
161: 0x0C1B [0x1C] WAIT(60* ticks)
162: 0x0C1E [0x52] END_LOAD_SCHEDULER: End scheduler "z011" with entities [LocalPlayer, LocalPlayer], work=285*
163: 0x0C2D [0x45] LOAD_SCHEDULED_TASK: Load scheduler "z012" with entities [LocalPlayer, LocalPlayer], work=[285*, 0*]
164: 0x0C3E [0x6E] Imutira (ID: 16986658/0x01033222) uses emote 4*
165: 0x0C45 [0x99] Wait for Imutira (ID: 16986658/0x01033222) animation to complete
166: 0x0C4A [0x2B] Imutira (ID: 16986658/0x01033222) [7386*]:
    → "Oh no, I can't tell you in front of others... I'm far too shy."
167: 0x0C51 [0x23] WAIT_FOR_DIALOG_INTERACTION
168: 0x0C52 [0x1C] WAIT(30* ticks)
169: 0x0C55 [0x52] END_LOAD_SCHEDULER: End scheduler "z012" with entities [LocalPlayer, LocalPlayer], work=285*
170: 0x0C64 [0x45] LOAD_SCHEDULED_TASK: Load scheduler "z013" with entities [LocalPlayer, LocalPlayer], work=[285*, 0*]
171: 0x0C75 [0x1C] WAIT(90* ticks)
172: 0x0C78 [0x52] END_LOAD_SCHEDULER: End scheduler "z013" with entities [LocalPlayer, LocalPlayer], work=285*
173: 0x0C87 [0x45] LOAD_SCHEDULED_TASK: Load scheduler "z043" with entities [LocalPlayer, LocalPlayer], work=[285*, 0*]
174: 0x0C98 [0x1C] WAIT(45* ticks)
175: 0x0C9B [0x6E] Imutira (ID: 16986658/0x01033222) uses emote 22*
176: 0x0CA2 [0x99] Wait for Imutira (ID: 16986658/0x01033222) animation to complete
177: 0x0CA7 [0x2B] Qultada (ID: 16986657/0x01033221) [7387*]:
    → "<Player>, return to Zweeha and tell her I'm going out on a little date, so I will be gone for a time."
178: 0x0CAE [0x23] WAIT_FOR_DIALOG_INTERACTION
179: 0x0CAF [0x1C] WAIT(60* ticks)
180: 0x0CB2 [0x52] END_LOAD_SCHEDULER: End scheduler "z043" with entities [LocalPlayer, LocalPlayer], work=285*
181: 0x0CC1 [0x45] LOAD_SCHEDULED_TASK: Load scheduler "z045" with entities [LocalPlayer, LocalPlayer], work=[285*, 0*]
182: 0x0CD2 [0x7B] Qultada (ID: 16986657/0x01033221) stops talking
183: 0x0CD7 [0x1C] WAIT(30* ticks)
184: 0x0CDA [0x2B] Imutira (ID: 16986658/0x01033222) [7388*]:
    → "Heheheh, my apologies."
185: 0x0CE1 [0x23] WAIT_FOR_DIALOG_INTERACTION
186: 0x0CE2 [0x1C] WAIT(30* ticks)
187: 0x0CE5 [0x52] END_LOAD_SCHEDULER: End scheduler "z045" with entities [LocalPlayer, LocalPlayer], work=285*
188: 0x0CF4 [0x45] LOAD_SCHEDULED_TASK: Load scheduler "z046" with entities [LocalPlayer, LocalPlayer], work=[285*, 0*]

SUBROUTINE_0D05:
189: 0x0D05 [0x24] CREATE_DIALOG(message_id=7389*, default_option=0*, option_flags=0*)
    → "Return to headquarters? [It's time to go./No, I can't leave you!]"
190: 0x0D0C [0x25] WAIT_DIALOG_SELECT()
191: 0x0D0D [0x02] IF !(Work_Zone[0] == 0*) GOTO 0x0D52
192: 0x0D15 [0x52] END_LOAD_SCHEDULER: End scheduler "z046" with entities [LocalPlayer, LocalPlayer], work=285*
193: 0x0D24 [0x45] LOAD_SCHEDULED_TASK: Load scheduler "z014" with entities [LocalPlayer, LocalPlayer], work=[285*, 0*]
194: 0x0D35 [0x1C] WAIT(45* ticks)
195: 0x0D38 [0x66] LOAD_EXT_SCHEDULER_MAIN: Load scheduler "cr05" with entities [Imutira (ID: 16986658/0x01033222), Imutira (ID: 16986658/0x01033222)], work=14*
196: 0x0D47 [0x2B] Imutira (ID: 16986658/0x01033222) [7391*]:
    → "That's right... Go home and spend some time with your moogle, child."
197: 0x0D4E [0x23] WAIT_FOR_DIALOG_INTERACTION
198: 0x0D4F [0x01] GOTO 0x0D68
199: 0x0D52 [0x02] IF !(Work_Zone[0] == 1*) GOTO 0x0D68
200: 0x0D5A [0x2B] Qultada (ID: 16986657/0x01033221) [7390*]:
    → "Go. Captain's orders!"
201: 0x0D61 [0x23] WAIT_FOR_DIALOG_INTERACTION
202: 0x0D62 [0x01] GOTO 0x0D05

SUBROUTINE_0D68:
203: 0x0D68 [0x29] REQ_SET_WAIT(priority=0x10, entity_id=LocalPlayer, tag_num=0x29)
204: 0x0D6F [0x52] END_LOAD_SCHEDULER: End scheduler "z014" with entities [LocalPlayer, LocalPlayer], work=285*
205: 0x0D7E [0x4E] SET_ENTITY_HIDE_FLAG: Hide LocalPlayer
206: 0x0D84 [0x4E] SET_ENTITY_HIDE_FLAG: Show Yazquhl (ID: 16986659/0x01033223)
207: 0x0D8A [0x4E] SET_ENTITY_HIDE_FLAG: Show Gowam (ID: 16986660/0x01033224)
208: 0x0D90 [0x45] LOAD_SCHEDULED_TASK: Load scheduler "z015" with entities [LocalPlayer, LocalPlayer], work=[285*, 0*]
209: 0x0DA1 [0x1C] WAIT(30* ticks)
210: 0x0DA4 [0x27] REQ_SET(priority=0x10, entity_id=Gowam (ID: 16986660/0x01033224), tag_num=0x02)
211: 0x0DAB [0x27] REQ_SET(priority=0x10, entity_id=Yazquhl (ID: 16986659/0x01033223), tag_num=0x03)
212: 0x0DB2 [0x1C] WAIT(60* ticks)
213: 0x0DB5 [0x2B] Qultada (ID: 16986657/0x01033221) [7392*]:
    → "Satisfied? Yes, I'm talking to you."
214: 0x0DBC [0x23] WAIT_FOR_DIALOG_INTERACTION
215: 0x0DBD [0x66] LOAD_EXT_SCHEDULER_MAIN: Load scheduler "std0" with entities [Qultada (ID: 16986657/0x01033221), Qultada (ID: 16986657/0x01033221)], work=66*
216: 0x0DCC [0x2B] Qultada (ID: 16986657/0x01033221) [7393*]:
    → "I knew I smelled a rat. You can't hide the stench of your dealings with the Immortals and the Imperial Army."
217: 0x0DD3 [0x1C] WAIT(150* ticks)
218: 0x0DD6 [0x45] LOAD_SCHEDULED_TASK: Load scheduler "fdo1" with entities [EventEntity, EventEntity], work=[200*, 0*]
219: 0x0DE7 [0x55] WAIT_LOAD_SCHEDULER: Wait for scheduler "fdo1" with entities [EventEntity, EventEntity], work=200*
220: 0x0DF6 [0x1C] WAIT(30* ticks)
221: 0x0DF9 [0x45] LOAD_SCHEDULED_TASK: Load scheduler "boff" with entities [LocalPlayer, LocalPlayer], work=[285*, 0*]
222: 0x0E0A [0x52] END_LOAD_SCHEDULER: End scheduler "z015" with entities [LocalPlayer, LocalPlayer], work=285*
223: 0x0E19 [0x5C] MUSIC_CONTROL: Set Idle (Day) music to song 149*
224: 0x0E1D [0x5C] MUSIC_CONTROL: Set Idle (Night) music to song 149*
225: 0x0E21 [0x9A] WAIT_MUSIC_SERVER()
226: 0x0E22 [0x46] CAMERA_CONTROL: Restore default settings
227: 0x0E24 [0x45] LOAD_SCHEDULED_TASK: Load scheduler "fdi1" with entities [EventEntity, EventEntity], work=[200*, 0*]
228: 0x0E35 [0x21] END_EVENT
229: 0x0E36 [0x00] END_REQSTACK()
```

#### Data or dead code:

```
# Dead code (unreachable instructions):
     0x0D65 [0x01] GOTO 0x0D68
```

### Event 65535.33

#### Metadata

| Field        | Value    |
|--------------|----------|
| Entrypoint   | 0x0E37   |
| Data Size    | 14 bytes |
| Instructions | 4        |

```
      00 01 02 03 04 05 06 07  08 09 0A 0B 0C 0D 0E 0F
      -- -- -- -- -- -- -- --  -- -- -- -- -- -- -- --
0E30:                      32  04 80 1F 00 90 80 91 80         2........
0E40: 92 80 1F 01 00                                    .....           
```

#### Opcodes

```
  0: 0x0E37 [0x32] ExtData[1]->MainSpeed = 13* * 0.1
  1: 0x0E3A [0x1F] MOVE_ENTITY: EventEntity moves to X=-204.715*, Z=94.288*, Y=-10.179*
  2: 0x0E42 [0x1F] MOVE_ENTITY: Update entity position (mode=1)
  3: 0x0E44 [0x00] END_REQSTACK()
```

### Event 8

#### Metadata

| Field        | Value   |
|--------------|---------|
| Entrypoint   | 0x0E45  |
| Data Size    | 7 bytes |
| Instructions | 5       |

```
      00 01 02 03 04 05 06 07  08 09 0A 0B 0C 0D 0E 0F
      -- -- -- -- -- -- -- --  -- -- -- -- -- -- -- --
0E40:                42 48 93  80 23 21 00                   BH..#!.    
```

#### Opcodes

```
  0: 0x0E45 [0x42] SET_CLI_EVENT_CANCEL_DATA()
  1: 0x0E46 [0x48] [System] [7419*]:
    → "Nothing happens. Could the power of the ruins have been drained...?"
  2: 0x0E49 [0x23] WAIT_FOR_DIALOG_INTERACTION
  3: 0x0E4A [0x21] END_EVENT
  4: 0x0E4B [0x00] END_REQSTACK()
```

### Event 65535.34

#### Metadata

| Field        | Value    |
|--------------|----------|
| Entrypoint   | 0x0E4C   |
| Data Size    | 14 bytes |
| Instructions | 4        |

```
      00 01 02 03 04 05 06 07  08 09 0A 0B 0C 0D 0E 0F
      -- -- -- -- -- -- -- --  -- -- -- -- -- -- -- --
0E40:                                      32 04 80 1F              2...
0E50: 00 94 80 95 80 96 80 1F  01 00                    ..........      
```

#### Opcodes

```
  0: 0x0E4C [0x32] ExtData[1]->MainSpeed = 13* * 0.1
  1: 0x0E4F [0x1F] MOVE_ENTITY: EventEntity moves to X=678.896*, Z=213.351*, Y=-15.667*
  2: 0x0E57 [0x1F] MOVE_ENTITY: Update entity position (mode=1)
  3: 0x0E59 [0x00] END_REQSTACK()
```

### Event 65535.35

#### Metadata

| Field        | Value    |
|--------------|----------|
| Entrypoint   | 0x0E5A   |
| Data Size    | 19 bytes |
| Instructions | 5        |

```
      00 01 02 03 04 05 06 07  08 09 0A 0B 0C 0D 0E 0F
      -- -- -- -- -- -- -- --  -- -- -- -- -- -- -- --
0E50:                                32 04 80 1F 00 97            2.....
0E60: 80 98 80 99 80 1F 01 1E  7D 32 03 01 00           ........}2...   
```

#### Opcodes

```
  0: 0x0E5A [0x32] ExtData[1]->MainSpeed = 13* * 0.1
  1: 0x0E5D [0x1F] MOVE_ENTITY: EventEntity moves to X=617.404*, Z=181.012*, Y=-17.000*
  2: 0x0E65 [0x1F] MOVE_ENTITY: Update entity position (mode=1)
  3: 0x0E67 [0x1E] EventEntity looks at Unnamed NPC (ID: 16986749/0x0103327D) and starts talking
  4: 0x0E6C [0x00] END_REQSTACK()
```

### Event 65535.36

#### Metadata

| Field        | Value    |
|--------------|----------|
| Entrypoint   | 0x0E6D   |
| Data Size    | 14 bytes |
| Instructions | 4        |

```
      00 01 02 03 04 05 06 07  08 09 0A 0B 0C 0D 0E 0F
      -- -- -- -- -- -- -- --  -- -- -- -- -- -- -- --
0E60:                                         32 04 80               2..
0E70: 1F 00 9A 80 9B 80 9C 80  1F 01 00                 ...........     
```

#### Opcodes

```
  0: 0x0E6D [0x32] ExtData[1]->MainSpeed = 13* * 0.1
  1: 0x0E70 [0x1F] MOVE_ENTITY: EventEntity moves to X=610.143*, Z=180.485*, Y=-18.069*
  2: 0x0E78 [0x1F] MOVE_ENTITY: Update entity position (mode=1)
  3: 0x0E7A [0x00] END_REQSTACK()
```

### Event 65535.37

#### Metadata

| Field        | Value    |
|--------------|----------|
| Entrypoint   | 0x0E7B   |
| Data Size    | 19 bytes |
| Instructions | 5        |

```
      00 01 02 03 04 05 06 07  08 09 0A 0B 0C 0D 0E 0F
      -- -- -- -- -- -- -- --  -- -- -- -- -- -- -- --
0E70:                                   32 04 80 1F 00             2....
0E80: 9D 80 9E 80 9F 80 1F 01  1E 7E 32 03 01 00        .........~2...  
```

#### Opcodes

```
  0: 0x0E7B [0x32] ExtData[1]->MainSpeed = 13* * 0.1
  1: 0x0E7E [0x1F] MOVE_ENTITY: EventEntity moves to X=176.363*, Z=282.120*, Y=-23.500*
  2: 0x0E86 [0x1F] MOVE_ENTITY: Update entity position (mode=1)
  3: 0x0E88 [0x1E] EventEntity looks at Unnamed NPC (ID: 16986750/0x0103327E) and starts talking
  4: 0x0E8D [0x00] END_REQSTACK()
```

### Event 65535.38

#### Metadata

| Field        | Value    |
|--------------|----------|
| Entrypoint   | 0x0E8E   |
| Data Size    | 14 bytes |
| Instructions | 4        |

```
      00 01 02 03 04 05 06 07  08 09 0A 0B 0C 0D 0E 0F
      -- -- -- -- -- -- -- --  -- -- -- -- -- -- -- --
0E80:                                            32 04                2.
0E90: 80 1F 00 A0 80 A1 80 A2  80 1F 01 00              ............    
```

#### Opcodes

```
  0: 0x0E8E [0x32] ExtData[1]->MainSpeed = 13* * 0.1
  1: 0x0E91 [0x1F] MOVE_ENTITY: EventEntity moves to X=169.987*, Z=280.564*, Y=-23.749*
  2: 0x0E99 [0x1F] MOVE_ENTITY: Update entity position (mode=1)
  3: 0x0E9B [0x00] END_REQSTACK()
```

### Event 65535.39

#### Metadata

| Field        | Value    |
|--------------|----------|
| Entrypoint   | 0x0E9C   |
| Data Size    | 19 bytes |
| Instructions | 5        |

```
      00 01 02 03 04 05 06 07  08 09 0A 0B 0C 0D 0E 0F
      -- -- -- -- -- -- -- --  -- -- -- -- -- -- -- --
0E90:                                      32 04 80 1F              2...
0EA0: 00 A3 80 A4 80 A5 80 1F  01 1E 80 32 03 01 00     ...........2... 
```

#### Opcodes

```
  0: 0x0E9C [0x32] ExtData[1]->MainSpeed = 13* * 0.1
  1: 0x0E9F [0x1F] MOVE_ENTITY: EventEntity moves to X=157.474*, Z=292.435*, Y=-23.724*
  2: 0x0EA7 [0x1F] MOVE_ENTITY: Update entity position (mode=1)
  3: 0x0EA9 [0x1E] EventEntity looks at Unnamed NPC (ID: 16986752/0x01033280) and starts talking
  4: 0x0EAE [0x00] END_REQSTACK()
```

### Event 65535.40

#### Metadata

| Field        | Value    |
|--------------|----------|
| Entrypoint   | 0x0EAF   |
| Data Size    | 22 bytes |
| Instructions | 6        |

```
      00 01 02 03 04 05 06 07  08 09 0A 0B 0C 0D 0E 0F
      -- -- -- -- -- -- -- --  -- -- -- -- -- -- -- --
0EA0:                                               32                 2
0EB0: 04 80 1F 00 A6 80 A7 80  A8 80 1F 01 1E 1E 32 03  ..............2.
0EC0: 01 1C 62 80 00                                    ..b..           
```

#### Opcodes

```
  0: 0x0EAF [0x32] ExtData[1]->MainSpeed = 13* * 0.1
  1: 0x0EB2 [0x1F] MOVE_ENTITY: EventEntity moves to X=157.255*, Z=322.608*, Y=-23.999*
  2: 0x0EBA [0x1F] MOVE_ENTITY: Update entity position (mode=1)
  3: 0x0EBC [0x1E] EventEntity looks at Foudeel (ID: 16986654/0x0103321E) and starts talking
  4: 0x0EC1 [0x1C] WAIT(30* ticks)
  5: 0x0EC4 [0x00] END_REQSTACK()
```

### Event 65535.41

#### Metadata

| Field        | Value    |
|--------------|----------|
| Entrypoint   | 0x0EC5   |
| Data Size    | 27 bytes |
| Instructions | 7        |

```
      00 01 02 03 04 05 06 07  08 09 0A 0B 0C 0D 0E 0F
      -- -- -- -- -- -- -- --  -- -- -- -- -- -- -- --
0EC0:                1F 00 A9  80 AA 80 AB 80 1F 01 6F       ..........o
0ED0: 4A F0 FF FF 7F 9E 32 03  01 6F 76 F0 FF FF 7F 00  J.....2..ov.....
```

#### Opcodes

```
  0: 0x0EC5 [0x1F] MOVE_ENTITY: EventEntity moves to X=80.878*, Z=-132.670*, Y=-6.000*
  1: 0x0ECD [0x1F] MOVE_ENTITY: Update entity position (mode=1)
  2: 0x0ECF [0x6F] WAIT_FRAME_DELAY: Yield until WaitTime reaches zero
  3: 0x0ED0 [0x4A] LocalPlayer looks at Fari-Wari (ID: 16986782/0x0103329E)
  4: 0x0ED9 [0x6F] WAIT_FRAME_DELAY: Yield until WaitTime reaches zero
  5: 0x0EDA [0x76] CHECK_ENTITY_RENDER_FLAGS: Wait until LocalPlayer Render.Flags0 and Render.Flags3 conditions are met
  6: 0x0EDF [0x00] END_REQSTACK()
```

### Event 65535.42

#### Metadata

| Field        | Value    |
|--------------|----------|
| Entrypoint   | 0x0EE0   |
| Data Size    | 13 bytes |
| Instructions | 3        |

```
      00 01 02 03 04 05 06 07  08 09 0A 0B 0C 0D 0E 0F
      -- -- -- -- -- -- -- --  -- -- -- -- -- -- -- --
0EE0: 1C 0A 80 4A F0 FF FF 7F  C5 32 03 01 00           ...J.....2...   
```

#### Opcodes

```
  0: 0x0EE0 [0x1C] WAIT(60* ticks)
  1: 0x0EE3 [0x4A] LocalPlayer looks at Shayadar (ID: 16986821/0x010332C5)
  2: 0x0EEC [0x00] END_REQSTACK()
```

### Event 65535.43

#### Metadata

| Field        | Value    |
|--------------|----------|
| Entrypoint   | 0x0EED   |
| Data Size    | 27 bytes |
| Instructions | 7        |

```
      00 01 02 03 04 05 06 07  08 09 0A 0B 0C 0D 0E 0F
      -- -- -- -- -- -- -- --  -- -- -- -- -- -- -- --
0EE0:                                         1F 00 AC               ...
0EF0: 80 AD 80 AB 80 1F 01 6F  4A F0 FF FF 7F 9E 32 03  .......oJ.....2.
0F00: 01 6F 76 F0 FF FF 7F 00                           .ov.....        
```

#### Opcodes

```
  0: 0x0EED [0x1F] MOVE_ENTITY: EventEntity moves to X=81.291*, Z=-135.467*, Y=-6.000*
  1: 0x0EF5 [0x1F] MOVE_ENTITY: Update entity position (mode=1)
  2: 0x0EF7 [0x6F] WAIT_FRAME_DELAY: Yield until WaitTime reaches zero
  3: 0x0EF8 [0x4A] LocalPlayer looks at Fari-Wari (ID: 16986782/0x0103329E)
  4: 0x0F01 [0x6F] WAIT_FRAME_DELAY: Yield until WaitTime reaches zero
  5: 0x0F02 [0x76] CHECK_ENTITY_RENDER_FLAGS: Wait until LocalPlayer Render.Flags0 and Render.Flags3 conditions are met
  6: 0x0F07 [0x00] END_REQSTACK()
```

### Event 65535.44

#### Metadata

| Field        | Value    |
|--------------|----------|
| Entrypoint   | 0x0F08   |
| Data Size    | 20 bytes |
| Instructions | 6        |

```
      00 01 02 03 04 05 06 07  08 09 0A 0B 0C 0D 0E 0F
      -- -- -- -- -- -- -- --  -- -- -- -- -- -- -- --
0F00:                          32 04 80 1F 00 A9 80 AA          2.......
0F10: 80 AB 80 1F 01 6F 1E 9E  32 03 01 00              .....o..2...    
```

#### Opcodes

```
  0: 0x0F08 [0x32] ExtData[1]->MainSpeed = 13* * 0.1
  1: 0x0F0B [0x1F] MOVE_ENTITY: EventEntity moves to X=80.878*, Z=-132.670*, Y=-6.000*
  2: 0x0F13 [0x1F] MOVE_ENTITY: Update entity position (mode=1)
  3: 0x0F15 [0x6F] WAIT_FRAME_DELAY: Yield until WaitTime reaches zero
  4: 0x0F16 [0x1E] EventEntity looks at Fari-Wari (ID: 16986782/0x0103329E) and starts talking
  5: 0x0F1B [0x00] END_REQSTACK()
```

### Event 65535.45

#### Metadata

| Field        | Value    |
|--------------|----------|
| Entrypoint   | 0x0F1C   |
| Data Size    | 20 bytes |
| Instructions | 6        |

```
      00 01 02 03 04 05 06 07  08 09 0A 0B 0C 0D 0E 0F
      -- -- -- -- -- -- -- --  -- -- -- -- -- -- -- --
0F10:                                      32 04 80 1F              2...
0F20: 00 AE 80 AF 80 B0 80 1F  01 6F 1E 9E 32 03 01 00  .........o..2...
```

#### Opcodes

```
  0: 0x0F1C [0x32] ExtData[1]->MainSpeed = 13* * 0.1
  1: 0x0F1F [0x1F] MOVE_ENTITY: EventEntity moves to X=80.730*, Z=-135.200*, Y=-5.999*
  2: 0x0F27 [0x1F] MOVE_ENTITY: Update entity position (mode=1)
  3: 0x0F29 [0x6F] WAIT_FRAME_DELAY: Yield until WaitTime reaches zero
  4: 0x0F2A [0x1E] EventEntity looks at Fari-Wari (ID: 16986782/0x0103329E) and starts talking
  5: 0x0F2F [0x00] END_REQSTACK()
```

### Event 65535.46

#### Metadata

| Field        | Value   |
|--------------|---------|
| Entrypoint   | 0x0F30  |
| Data Size    | 6 bytes |
| Instructions | 2       |

```
      00 01 02 03 04 05 06 07  08 09 0A 0B 0C 0D 0E 0F
      -- -- -- -- -- -- -- --  -- -- -- -- -- -- -- --
0F30: 03 02 10 0B 7F 00                                 ......          
```

#### Opcodes

```
  0: 0x0F30 [0x03] Work_Zone[2] = (Entity->Render.Flags01 >> 25) & 1
  1: 0x0F35 [0x00] END_REQSTACK()
```

### Event 65535.47

#### Metadata

| Field        | Value    |
|--------------|----------|
| Entrypoint   | 0x0F36   |
| Data Size    | 25 bytes |
| Instructions | 6        |

```
      00 01 02 03 04 05 06 07  08 09 0A 0B 0C 0D 0E 0F
      -- -- -- -- -- -- -- --  -- -- -- -- -- -- -- --
0F30:                   1C 3B  80 59 01 F8 FF FF 7F 48        .;.Y.....H
0F40: 80 4B F8 FF FF 7F 49 80  6F 76 F8 FF FF 7F 00     .K....I.ov..... 
```

#### Opcodes

```
  0: 0x0F36 [0x1C] WAIT(20* ticks)
  1: 0x0F39 [0x59] UPDATE_ENTITY_DATA: Set EventEntity turn speed = 50*
  2: 0x0F41 [0x4B] UPDATE_ENTITY_YAW(entity=EventEntity, yaw=2.8°*)
  3: 0x0F48 [0x6F] WAIT_FRAME_DELAY: Yield until WaitTime reaches zero
  4: 0x0F49 [0x76] CHECK_ENTITY_RENDER_FLAGS: Wait until EventEntity Render.Flags0 and Render.Flags3 conditions are met
  5: 0x0F4E [0x00] END_REQSTACK()
```

### Event 517

#### Metadata

| Field        | Value    |
|--------------|----------|
| Entrypoint   | 0x0F4F   |
| Data Size    | 10 bytes |
| Instructions | 4        |

```
      00 01 02 03 04 05 06 07  08 09 0A 0B 0C 0D 0E 0F
      -- -- -- -- -- -- -- --  -- -- -- -- -- -- -- --
0F40:                                               42                 B
0F50: 29 01 F0 FF FF 7F 04 21  00                       )......!.       
```

#### Opcodes

```
  0: 0x0F4F [0x42] SET_CLI_EVENT_CANCEL_DATA()
  1: 0x0F50 [0x29] REQ_SET_WAIT(priority=0x01, entity_id=LocalPlayer, tag_num=0x04)
  2: 0x0F57 [0x21] END_EVENT
  3: 0x0F58 [0x00] END_REQSTACK()
```

### Event 65535.48

#### Metadata

