# Event 225

## Metadata

| Field           | Value    |
|-----------------|----------|
| Event Index     | 5/8      |
| Offset          | 0x0059   |
| Data Size       | 32 bytes |
| Calculated Size | 32 bytes |
| Instructions    | 10       |

```
      00 01 02 03 04 05 06 07  08 09 0A 0B 0C 0D 0E 0F
      -- -- -- -- -- -- -- --  -- -- -- -- -- -- -- --
0050:                             1E F0 FF FF 7F 6F 70           .....op
0060: 66 00 80 F8 FF FF 7F F8  FF FF 7F 74 6C 6B 30 1D  f..........tlk0.
0070: 02 80 23 1D 04 80 23 21  00                       ..#...#!.       
```

## Opcodes

```
  0: 0x0059 [0x1E] EventEntity looks at LocalPlayer and starts talking
  1: 0x005E [0x6F] WAIT_FRAME_DELAY: Yield until WaitTime reaches zero
  2: 0x005F [0x70] WAIT_ENTITY_RENDER_FLAG: Wait while EventEntity->Render.Flags3 bit 2 is set (cancel turn if not)
  3: 0x0060 [0x66] LOAD_EXT_SCHEDULER_MAIN(work_offset=10*, entity1=EventEntity, entity2=EventEntity, action="tlk0")
  4: 0x006F [0x1D] PRINT_EVENT_MESSAGE(message_id=7037*)
    → "Sorry, exit only. Buy your tickets from the other counter.\u007F1\u0000\u0007"
  5: 0x0072 [0x23] WAIT_FOR_DIALOG_INTERACTION
  6: 0x0073 [0x1D] PRINT_EVENT_MESSAGE(message_id=7040*)
    → "The ship to Mhaura is approaching.\u007F1\u0000\u0007"
  7: 0x0076 [0x23] WAIT_FOR_DIALOG_INTERACTION
  8: 0x0077 [0x21] END_EVENT
  9: 0x0078 [0x00] END_REQSTACK()
```
