# Event 10013

## Metadata

| Field           | Value    |
|-----------------|----------|
| Event Index     | 6/14     |
| Offset          | 0x0197   |
| Data Size       | 64 bytes |
| Calculated Size | 64 bytes |
| Instructions    | 12       |

```
      00 01 02 03 04 05 06 07  08 09 0A 0B 0C 0D 0E 0F
      -- -- -- -- -- -- -- --  -- -- -- -- -- -- -- --
0190:                      20  01 42 62 10 80 F0 FF FF          .Bb.....
01A0: 7F F0 FF FF 7F 6D 61 69  6E 11 80 1C 12 80 47 00  .....main.....G.
01B0: 19 80 1F 80 15 80 1D 80  47 01 62 17 80 F0 FF FF  ........G.b.....
01C0: 7F F0 FF FF 7F 6D 61 69  6E 11 80 1C 12 80 20 00  .....main..... .
01D0: 03 01 10 20 80 21 00                              ... .!.         
```

## Opcodes

```
  0: 0x0197 [0x20] SET_CLI_EVENT_UC_FLAG: Lock player control
  1: 0x0199 [0x42] SET_CLI_EVENT_CANCEL_DATA()
  2: 0x019A [0x62] LOAD_EVENT_SCHEDULER (arg=5012): Load scheduler "main" with entities [LocalPlayer, LocalPlayer], work=[1*, 0*]
  3: 0x01AB [0x1C] WAIT(180* ticks)
  4: 0x01AE [0x47] UPDATE_PLAYER_POS(180.000*, -180.000*, 12.367*, yaw=270.0°*)
  5: 0x01B8 [0x47] WAIT_PLAYER_POS_UPDATE
  6: 0x01BA [0x62] LOAD_EVENT_SCHEDULER (arg=5012): Load scheduler "main" with entities [LocalPlayer, LocalPlayer], work=[2*, 0*]
  7: 0x01CB [0x1C] WAIT(180* ticks)
  8: 0x01CE [0x20] SET_CLI_EVENT_UC_FLAG: Unlock player control
  9: 0x01D0 [0x03] Work_Zone[1] = 1003*
 10: 0x01D5 [0x21] END_EVENT
 11: 0x01D6 [0x00] END_REQSTACK()
```
