# Event 10012

## Metadata

| Field           | Value    |
|-----------------|----------|
| Event Index     | 5/14     |
| Offset          | 0x0157   |
| Data Size       | 64 bytes |
| Calculated Size | 64 bytes |
| Instructions    | 12       |

```
      00 01 02 03 04 05 06 07  08 09 0A 0B 0C 0D 0E 0F
      -- -- -- -- -- -- -- --  -- -- -- -- -- -- -- --
0150:                      20  01 42 62 10 80 F0 FF FF          .Bb.....
0160: 7F F0 FF FF 7F 6D 61 69  6E 11 80 1C 12 80 47 00  .....main.....G.
0170: 13 80 1B 80 1C 80 1D 80  47 01 62 17 80 F0 FF FF  ........G.b.....
0180: 7F F0 FF FF 7F 6D 61 69  6E 11 80 1C 12 80 20 00  .....main..... .
0190: 03 01 10 1E 80 21 00                              .....!.         
```

## Opcodes

```
  0: 0x0157 [0x20] SET_CLI_EVENT_UC_FLAG: Lock player control
  1: 0x0159 [0x42] SET_CLI_EVENT_CANCEL_DATA()
  2: 0x015A [0x62] LOAD_EVENT_SCHEDULER (arg=5012): Load scheduler "main" with entities [LocalPlayer, LocalPlayer], work=[1*, 0*]
  3: 0x016B [0x1C] WAIT(180* ticks)
  4: 0x016E [0x47] UPDATE_PLAYER_POS(-220.000*, -185.000*, 12.466*, yaw=270.0°*)
  5: 0x0178 [0x47] WAIT_PLAYER_POS_UPDATE
  6: 0x017A [0x62] LOAD_EVENT_SCHEDULER (arg=5012): Load scheduler "main" with entities [LocalPlayer, LocalPlayer], work=[2*, 0*]
  7: 0x018B [0x1C] WAIT(180* ticks)
  8: 0x018E [0x20] SET_CLI_EVENT_UC_FLAG: Unlock player control
  9: 0x0190 [0x03] Work_Zone[1] = 1002*
 10: 0x0195 [0x21] END_EVENT
 11: 0x0196 [0x00] END_REQSTACK()
```
