# Event 10019

## Metadata

| Field           | Value    |
|-----------------|----------|
| Event Index     | 12/14    |
| Offset          | 0x0317   |
| Data Size       | 64 bytes |
| Calculated Size | 64 bytes |
| Instructions    | 12       |

```
      00 01 02 03 04 05 06 07  08 09 0A 0B 0C 0D 0E 0F
      -- -- -- -- -- -- -- --  -- -- -- -- -- -- -- --
0310:                      20  01 42 62 10 80 F0 FF FF          .Bb.....
0320: 7F F0 FF FF 7F 6D 61 69  6E 11 80 1C 12 80 47 00  .....main.....G.
0330: 13 80 25 80 23 80 1D 80  47 01 62 17 80 F0 FF FF  ..%.#...G.b.....
0340: 7F F0 FF FF 7F 6D 61 69  6E 11 80 1C 12 80 20 00  .....main..... .
0350: 03 01 10 2C 80 21 00                              ...,.!.         
```

## Opcodes

```
  0: 0x0317 [0x20] SET_CLI_EVENT_UC_FLAG: Lock player control
  1: 0x0319 [0x42] SET_CLI_EVENT_CANCEL_DATA()
  2: 0x031A [0x62] LOAD_EVENT_SCHEDULER (arg=5012): Load scheduler "main" with entities [LocalPlayer, LocalPlayer], work=[1*, 0*]
  3: 0x032B [0x1C] WAIT(180* ticks)
  4: 0x032E [0x47] UPDATE_PLAYER_POS(-220.000*, 332.000*, 12.000*, yaw=270.0°*)
  5: 0x0338 [0x47] WAIT_PLAYER_POS_UPDATE
  6: 0x033A [0x62] LOAD_EVENT_SCHEDULER (arg=5012): Load scheduler "main" with entities [LocalPlayer, LocalPlayer], work=[2*, 0*]
  7: 0x034B [0x1C] WAIT(180* ticks)
  8: 0x034E [0x20] SET_CLI_EVENT_UC_FLAG: Unlock player control
  9: 0x0350 [0x03] Work_Zone[1] = 1009*
 10: 0x0355 [0x21] END_EVENT
 11: 0x0356 [0x00] END_REQSTACK()
```
