# Event 10014

## Metadata

| Field           | Value    |
|-----------------|----------|
| Event Index     | 7/14     |
| Offset          | 0x01D7   |
| Data Size       | 64 bytes |
| Calculated Size | 64 bytes |
| Instructions    | 12       |

```
      00 01 02 03 04 05 06 07  08 09 0A 0B 0C 0D 0E 0F
      -- -- -- -- -- -- -- --  -- -- -- -- -- -- -- --
01D0:                      20  01 42 62 10 80 F0 FF FF          .Bb.....
01E0: 7F F0 FF FF 7F 6D 61 69  6E 11 80 1C 12 80 47 00  .....main.....G.
01F0: 21 80 22 80 23 80 16 80  47 01 62 17 80 F0 FF FF  !.".#...G.b.....
0200: 7F F0 FF FF 7F 6D 61 69  6E 11 80 1C 12 80 20 00  .....main..... .
0210: 03 01 10 24 80 21 00                              ...$.!.         
```

## Opcodes

```
  0: 0x01D7 [0x20] SET_CLI_EVENT_UC_FLAG: Lock player control
  1: 0x01D9 [0x42] SET_CLI_EVENT_CANCEL_DATA()
  2: 0x01DA [0x62] LOAD_EVENT_SCHEDULER: Load scheduler "main" with entities [LocalPlayer, LocalPlayer], work=[1*, 0*]
  3: 0x01EB [0x1C] WAIT(180* ticks)
  4: 0x01EE [0x47] UPDATE_PLAYER_POS(-20.000*, 68.000*, 12.000*, yaw=90.0°*)
  5: 0x01F8 [0x47] WAIT_PLAYER_POS_UPDATE
  6: 0x01FA [0x62] LOAD_EVENT_SCHEDULER: Load scheduler "main" with entities [LocalPlayer, LocalPlayer], work=[2*, 0*]
  7: 0x020B [0x1C] WAIT(180* ticks)
  8: 0x020E [0x20] SET_CLI_EVENT_UC_FLAG: Unlock player control
  9: 0x0210 [0x03] Work_Zone[1] = 1004*
 10: 0x0215 [0x21] END_EVENT
 11: 0x0216 [0x00] END_REQSTACK()
```
