# Event 10017

## Metadata

| Field           | Value    |
|-----------------|----------|
| Event Index     | 10/14    |
| Offset          | 0x0297   |
| Data Size       | 64 bytes |
| Calculated Size | 64 bytes |
| Instructions    | 12       |

```
      00 01 02 03 04 05 06 07  08 09 0A 0B 0C 0D 0E 0F
      -- -- -- -- -- -- -- --  -- -- -- -- -- -- -- --
0290:                      20  01 42 62 10 80 F0 FF FF          .Bb.....
02A0: 7F F0 FF FF 7F 6D 61 69  6E 11 80 1C 12 80 47 00  .....main.....G.
02B0: 13 80 29 80 23 80 16 80  47 01 62 17 80 F0 FF FF  ..).#...G.b.....
02C0: 7F F0 FF FF 7F 6D 61 69  6E 11 80 1C 12 80 20 00  .....main..... .
02D0: 03 01 10 2A 80 21 00                              ...*.!.         
```

## Opcodes

```
  0: 0x0297 [0x20] SET_CLI_EVENT_UC_FLAG: Lock player control
  1: 0x0299 [0x42] SET_CLI_EVENT_CANCEL_DATA()
  2: 0x029A [0x62] LOAD_EVENT_SCHEDULER: Load scheduler "main" with entities [LocalPlayer, LocalPlayer], work=[1*, 0*]
  3: 0x02AB [0x1C] WAIT(180* ticks)
  4: 0x02AE [0x47] UPDATE_PLAYER_POS(-220.000*, -255.000*, 12.000*, yaw=90.0°*)
  5: 0x02B8 [0x47] WAIT_PLAYER_POS_UPDATE
  6: 0x02BA [0x62] LOAD_EVENT_SCHEDULER: Load scheduler "main" with entities [LocalPlayer, LocalPlayer], work=[2*, 0*]
  7: 0x02CB [0x1C] WAIT(180* ticks)
  8: 0x02CE [0x20] SET_CLI_EVENT_UC_FLAG: Unlock player control
  9: 0x02D0 [0x03] Work_Zone[1] = 1007*
 10: 0x02D5 [0x21] END_EVENT
 11: 0x02D6 [0x00] END_REQSTACK()
```
