# Event 65535

## Metadata

| Field           | Value    |
|-----------------|----------|
| Event Index     | 21/48    |
| Offset          | 0x2ECA   |
| Data Size       | 99 bytes |
| Calculated Size | 99 bytes |
| Instructions    | 7        |

```
      00 01 02 03 04 05 06 07  08 09 0A 0B 0C 0D 0E 0F
      -- -- -- -- -- -- -- --  -- -- -- -- -- -- -- --
2EC0:                                45 6F 81 F0 FF FF            Eo....
2ED0: 7F F0 FF FF 7F 73 30 38  31 00 80 45 35 80 F0 FF  .....s081..E5...
2EE0: FF 7F F0 FF FF 7F 77 68  69 31 00 80 55 6F 81 F0  ......whi1..Uo..
2EF0: FF FF 7F F0 FF FF 7F 73  30 38 31 45 0E 80 F0 FF  .......s081E....
2F00: FF 7F F0 FF FF 7F 6F 76  6C 31 00 80 45 6F 81 F0  ......ovl1..Eo..
2F10: FF FF 7F F0 FF FF 7F 73  30 38 32 00 80 55 6F 81  .......s082..Uo.
2F20: F0 FF FF 7F F0 FF FF 7F  73 30 38 32 00           ........s082.   
```

## Opcodes

```
  0: 0x2ECA [0x45] LOAD_SCHEDULED_TASK: Load scheduler "s081" with entities [LocalPlayer, LocalPlayer], work=[70*, 0*]
  1: 0x2EDB [0x45] LOAD_SCHEDULED_TASK: Load scheduler "whi1" with entities [LocalPlayer, LocalPlayer], work=[201*, 0*]
  2: 0x2EEC [0x55] WAIT_LOAD_SCHEDULER: Wait for scheduler "s081" with entities [LocalPlayer, LocalPlayer], work=70*
  3: 0x2EFB [0x45] LOAD_SCHEDULED_TASK: Load scheduler "ovl1" with entities [LocalPlayer, LocalPlayer], work=[200*, 0*]
  4: 0x2F0C [0x45] LOAD_SCHEDULED_TASK: Load scheduler "s082" with entities [LocalPlayer, LocalPlayer], work=[70*, 0*]
  5: 0x2F1D [0x55] WAIT_LOAD_SCHEDULER: Wait for scheduler "s082" with entities [LocalPlayer, LocalPlayer], work=70*
  6: 0x2F2C [0x00] END_REQSTACK()
```
