# 17310123

## Common Data

| Field            | Value                    |
|------------------|--------------------------|
| Zone             | Ru'Aun Gardens (ID: 130) |
| Block Size       | 2420 bytes               |
| Total Events     | 2                        |
| References Count | 39                       |

## List of Events

| Event ID              | Entrypoint   |   Size |   Instructions |
|-----------------------|--------------|--------|----------------|
| [65535](#event-65535) | 0x0000       |      1 |              1 |
| [79](#event-79)       | 0x0001       |   2238 |            233 |

## DAT References (imed_data)

|   Index | Hex Value   |   Dec Value |
|---------|-------------|-------------|
|       0 | 0x0093      |         147 |
|       1 | 0x0000      |           0 |
|       2 | 0x1CB4      |        7348 |
|       3 | 0x0001      |           1 |
|       4 | 0x00C8      |         200 |
|       5 | 0x000C      |          12 |
|       6 | 0x0268      |         616 |
|       7 | 0x0012      |          18 |
|       8 | 0x0017      |          23 |
|       9 | 0x0010      |          16 |
|      10 | 0x00B4      |         180 |
|      11 | 0x003C      |          60 |
|      12 | 0x00C9      |         201 |
|      13 | 0x0066      |         102 |
|      14 | 0x57A45     |      358981 |
|      15 | 0x704A      |       28746 |
|      16 | 0x5DBF      |       23999 |
|      17 | 0x047F      |        1151 |
|      18 | 0x006A      |         106 |
|      19 | 0xFFFAD708  |  4294629128 |
|      20 | 0x679FA     |      424442 |
|      21 | 0xBC2F      |       48175 |
|      22 | 0x0DDF      |        3551 |
|      23 | 0xFFFACF38  |  4294627128 |
|      24 | 0x0073      |         115 |
|      25 | 0x287B1     |      165809 |
|      26 | 0x547C1     |      346049 |
|      27 | 0xFFFF627F  |  4294926975 |
|      28 | 0x088A      |        2186 |
|      29 | 0x0067      |         103 |
|      30 | 0xFFF57AED  |  4294277869 |
|      31 | 0x2B85F     |      178271 |
|      32 | 0xFFFFE0A3  |  4294959267 |
|      33 | 0x086B      |        2155 |
|      34 | 0x0096      |         150 |
|      35 | 0x0082      |         130 |
|      36 | 0x007F      |         127 |
|      37 | 0x0078      |         120 |
|      38 | 0x000F      |          15 |

## String References

- **7348**: Press the confirmation button.

## Events

### Event 65535

#### Metadata

| Field        | Value   |
|--------------|---------|
| Entrypoint   | 0x0000  |
| Data Size    | 1 bytes |
| Instructions | 1       |

```
      00 01 02 03 04 05 06 07  08 09 0A 0B 0C 0D 0E 0F
      -- -- -- -- -- -- -- --  -- -- -- -- -- -- -- --
0000: 00                                                .               
```

#### Opcodes

```
  0: 0x0000 [0x00] END_REQSTACK()
```

### Event 79

#### Metadata

| Field        | Value      |
|--------------|------------|
| Entrypoint   | 0x0001     |
| Data Size    | 2238 bytes |
| Instructions | 233        |

```
      00 01 02 03 04 05 06 07  08 09 0A 0B 0C 0D 0E 0F
      -- -- -- -- -- -- -- --  -- -- -- -- -- -- -- --
0000:    42 03 00 00 03 10 03  01 00 04 10 03 02 00 05   B..............
0010: 10 03 03 00 06 10 46 01  38 00 80 5D 01 80 01 80  ......F.8..]....
0020: 48 02 80 23 02 00 00 03  80 00 2F 00 01 50 00 02  H..#....../..P..
0030: 01 00 03 80 00 3A 00 01  DC 02 02 02 00 03 80 00  .....:..........
0040: 45 00 01 C2 04 02 03 00  03 80 00 50 00 01 D1 02  E..........P....
0050: 45 04 80 F0 FF FF 7F F0  FF FF 7F 66 64 6F 31 01  E..........fdo1.
0060: 80 55 04 80 F0 FF FF 7F  F0 FF FF 7F 66 64 6F 31  .U..........fdo1
0070: 77 05 80 03 80 45 06 80  F8 FF FF 7F F8 FF FF 7F  w....E..........
0080: 73 30 31 34 01 80 45 04  80 F0 FF FF 7F F0 FF FF  s014..E.........
0090: 7F 66 64 69 31 01 80 55  04 80 F0 FF FF 7F F0 FF  .fdi1..U........
00A0: FF 7F 66 64 69 31 55 06  80 F8 FF FF 7F F8 FF FF  ..fdi1U.........
00B0: 7F 73 30 31 34 48 02 80  23 45 04 80 F0 FF FF 7F  .s014H..#E......
00C0: F0 FF FF 7F 66 64 6F 31  01 80 55 04 80 F0 FF FF  ....fdo1..U.....
00D0: 7F F0 FF FF 7F 66 64 6F  31 77 07 80 03 80 45 06  .....fdo1w....E.
00E0: 80 F8 FF FF 7F F8 FF FF  7F 73 30 31 34 01 80 45  .........s014..E
00F0: 04 80 F0 FF FF 7F F0 FF  FF 7F 66 64 69 31 01 80  ..........fdi1..
0100: 55 04 80 F0 FF FF 7F F0  FF FF 7F 66 64 69 31 55  U..........fdi1U
0110: 06 80 F8 FF FF 7F F8 FF  FF 7F 73 30 31 34 48 02  ..........s014H.
0120: 80 23 45 04 80 F0 FF FF  7F F0 FF FF 7F 66 64 6F  .#E..........fdo
0130: 31 01 80 55 04 80 F0 FF  FF 7F F0 FF FF 7F 66 64  1..U..........fd
0140: 6F 31 77 08 80 09 80 45  06 80 F8 FF FF 7F F8 FF  o1w....E........
0150: FF 7F 73 30 31 34 01 80  45 04 80 F0 FF FF 7F F0  ..s014..E.......
0160: FF FF 7F 66 64 69 31 01  80 55 04 80 F0 FF FF 7F  ...fdi1..U......
0170: F0 FF FF 7F 66 64 69 31  55 06 80 F8 FF FF 7F F8  ....fdi1U.......
0180: FF FF 7F 73 30 31 34 48  02 80 23 45 04 80 F0 FF  ...s014H..#E....
0190: FF 7F F0 FF FF 7F 66 64  6F 31 01 80 55 04 80 F0  ......fdo1..U...
01A0: FF FF 7F F0 FF FF 7F 66  64 6F 31 77 05 80 03 80  .......fdo1w....
01B0: 45 06 80 F8 FF FF 7F F8  FF FF 7F 73 30 31 33 01  E..........s013.
01C0: 80 45 04 80 F0 FF FF 7F  F0 FF FF 7F 66 64 69 31  .E..........fdi1
01D0: 01 80 55 04 80 F0 FF FF  7F F0 FF FF 7F 66 64 69  ..U..........fdi
01E0: 31 55 06 80 F8 FF FF 7F  F8 FF FF 7F 73 30 31 33  1U..........s013
01F0: 48 02 80 23 45 04 80 F0  FF FF 7F F0 FF FF 7F 66  H..#E..........f
0200: 64 6F 31 01 80 55 04 80  F0 FF FF 7F F0 FF FF 7F  do1..U..........
0210: 66 64 6F 31 77 07 80 03  80 45 06 80 F8 FF FF 7F  fdo1w....E......
0220: F8 FF FF 7F 73 30 31 33  01 80 45 04 80 F0 FF FF  ....s013..E.....
0230: 7F F0 FF FF 7F 66 64 69  31 01 80 55 04 80 F0 FF  .....fdi1..U....
0240: FF 7F F0 FF FF 7F 66 64  69 31 55 06 80 F8 FF FF  ......fdi1U.....
0250: 7F F8 FF FF 7F 73 30 31  33 48 02 80 23 45 04 80  .....s013H..#E..
0260: F0 FF FF 7F F0 FF FF 7F  66 64 6F 31 01 80 55 04  ........fdo1..U.
0270: 80 F0 FF FF 7F F0 FF FF  7F 66 64 6F 31 77 08 80  .........fdo1w..
0280: 09 80 45 06 80 F8 FF FF  7F F8 FF FF 7F 73 30 31  ..E..........s01
0290: 33 01 80 45 04 80 F0 FF  FF 7F F0 FF FF 7F 66 64  3..E..........fd
02A0: 69 31 01 80 55 04 80 F0  FF FF 7F F0 FF FF 7F 66  i1..U..........f
02B0: 64 69 31 55 06 80 F8 FF  FF 7F F8 FF FF 7F 73 30  di1U..........s0
02C0: 31 33 48 02 80 23 02 00  00 03 80 00 D1 02 01 77  13H..#.........w
02D0: 08 02 03 00 03 80 00 DC  02 01 77 08 45 04 80 F0  ..........w.E...
02E0: FF FF 7F F0 FF FF 7F 66  64 6F 31 01 80 55 04 80  .......fdo1..U..
02F0: F0 FF FF 7F F0 FF FF 7F  66 64 6F 31 34 0A 80 77  ........fdo14..w
0300: 05 80 03 80 1C 0B 80 45  06 80 F8 FF FF 7F F8 FF  .......E........
0310: FF 7F 73 30 31 35 01 80  45 04 80 F0 FF FF 7F F0  ..s015..E.......
0320: FF FF 7F 66 64 69 31 01  80 55 04 80 F0 FF FF 7F  ...fdi1..U......
0330: F0 FF FF 7F 66 64 69 31  55 06 80 F8 FF FF 7F F8  ....fdi1U.......
0340: FF FF 7F 73 30 31 35 48  02 80 23 45 04 80 F0 FF  ...s015H..#E....
0350: FF 7F F0 FF FF 7F 66 64  6F 31 01 80 55 04 80 F0  ......fdo1..U...
0360: FF FF 7F F0 FF FF 7F 66  64 6F 31 45 06 80 F8 FF  .......fdo1E....
0370: FF 7F F8 FF FF 7F 73 30  31 36 01 80 45 04 80 F0  ......s016..E...
0380: FF FF 7F F0 FF FF 7F 66  64 69 31 01 80 55 04 80  .......fdi1..U..
0390: F0 FF FF 7F F0 FF FF 7F  66 64 69 31 55 06 80 F8  ........fdi1U...
03A0: FF FF 7F F8 FF FF 7F 73  30 31 36 48 02 80 23 45  .......s016H..#E
03B0: 0C 80 F0 FF FF 7F F0 FF  FF 7F 77 68 69 30 01 80  ..........whi0..
03C0: 55 0C 80 F0 FF FF 7F F0  FF FF 7F 77 68 69 30 45  U..........whi0E
03D0: 04 80 F0 FF FF 7F F0 FF  FF 7F 66 64 6F 31 01 80  ..........fdo1..
03E0: 55 04 80 F0 FF FF 7F F0  FF FF 7F 66 64 6F 31 45  U..........fdo1E
03F0: 06 80 F8 FF FF 7F F8 FF  FF 7F 73 30 31 37 01 80  ..........s017..
0400: 45 04 80 F0 FF FF 7F F0  FF FF 7F 66 64 69 31 01  E..........fdi1.
0410: 80 55 04 80 F0 FF FF 7F  F0 FF FF 7F 66 64 69 31  .U..........fdi1
0420: 55 06 80 F8 FF FF 7F F8  FF FF 7F 73 30 31 37 48  U..........s017H
0430: 02 80 23 45 04 80 F0 FF  FF 7F F0 FF FF 7F 66 64  ..#E..........fd
0440: 6F 31 01 80 55 04 80 F0  FF FF 7F F0 FF FF 7F 66  o1..U..........f
0450: 64 6F 31 45 06 80 F8 FF  FF 7F F8 FF FF 7F 73 30  do1E..........s0
0460: 31 38 01 80 45 04 80 F0  FF FF 7F F0 FF FF 7F 66  18..E..........f
0470: 64 69 31 01 80 55 04 80  F0 FF FF 7F F0 FF FF 7F  di1..U..........
0480: 66 64 69 31 55 06 80 F8  FF FF 7F F8 FF FF 7F 73  fdi1U..........s
0490: 30 31 38 48 02 80 23 45  0C 80 F0 FF FF 7F F0 FF  018H..#E........
04A0: FF 7F 77 68 69 30 01 80  55 0C 80 F0 FF FF 7F F0  ..whi0..U.......
04B0: FF FF 7F 77 68 69 30 02  01 00 03 80 00 C2 04 01  ...whi0.........
04C0: 77 08 45 04 80 F0 FF FF  7F F0 FF FF 7F 66 64 6F  w.E..........fdo
04D0: 31 01 80 55 04 80 F0 FF  FF 7F F0 FF FF 7F 66 64  1..U..........fd
04E0: 6F 31 34 0D 80 77 05 80  03 80 1C 0B 80 4E 00 AD  o14..w.......N..
04F0: 21 08 01 2F 00 AD 21 08  01 92 01 AD 21 08 01 94  !../..!.....!...
0500: 01 AD 21 08 01 BA AD 21  08 01 0E 80 0F 80 10 80  ..!....!........
0510: 11 80 80 AD 21 08 01 45  06 80 F8 FF FF 7F F8 FF  ....!..E........
0520: FF 7F 73 30 31 39 01 80  45 04 80 F0 FF FF 7F F0  ..s019..E.......
0530: FF FF 7F 66 64 69 31 01  80 55 04 80 F0 FF FF 7F  ...fdi1..U......
0540: F0 FF FF 7F 66 64 69 31  55 06 80 F8 FF FF 7F F8  ....fdi1U.......
0550: FF FF 7F 73 30 31 39 48  02 80 23 4E 01 AD 21 08  ...s019H..#N..!.
0560: 01 45 04 80 F0 FF FF 7F  F0 FF FF 7F 66 64 6F 31  .E..........fdo1
0570: 01 80 55 04 80 F0 FF FF  7F F0 FF FF 7F 66 64 6F  ..U..........fdo
0580: 31 4E 00 AC 21 08 01 2F  00 AC 21 08 01 2F 00 AD  1N..!../..!../..
0590: 21 08 01 92 01 AC 21 08  01 92 01 AD 21 08 01 94  !.....!.....!...
05A0: 01 AC 21 08 01 94 01 AD  21 08 01 BA AC 21 08 01  ..!.....!....!..
05B0: 0E 80 0F 80 10 80 11 80  BA AD 21 08 01 0E 80 0F  ..........!.....
05C0: 80 10 80 11 80 80 AD 21  08 01 45 06 80 F8 FF FF  .......!..E.....
05D0: 7F F8 FF FF 7F 73 30 32  33 01 80 45 04 80 F0 FF  .....s023..E....
05E0: FF 7F F0 FF FF 7F 66 64  69 31 01 80 55 04 80 F0  ......fdi1..U...
05F0: FF FF 7F F0 FF FF 7F 66  64 69 31 55 06 80 F8 FF  .......fdi1U....
0600: FF 7F F8 FF FF 7F 73 30  32 33 4E 01 AC 21 08 01  ......s023N..!..
0610: 4E 00 AD 21 08 01 45 06  80 F8 FF FF 7F F8 FF FF  N..!..E.........
0620: 7F 73 30 32 34 01 80 55  06 80 F8 FF FF 7F F8 FF  .s024..U........
0630: FF 7F 73 30 32 34 48 02  80 23 4E 01 AD 21 08 01  ..s024H..#N..!..
0640: 45 04 80 F0 FF FF 7F F0  FF FF 7F 66 64 6F 31 01  E..........fdo1.
0650: 80 55 04 80 F0 FF FF 7F  F0 FF FF 7F 66 64 6F 31  .U..........fdo1
0660: 34 12 80 77 05 80 03 80  1C 0B 80 4E 00 AF 21 08  4..w.......N..!.
0670: 01 2F 00 AF 21 08 01 92  01 AF 21 08 01 94 01 AF  ./..!.....!.....
0680: 21 08 01 BA AF 21 08 01  13 80 14 80 15 80 16 80  !....!..........
0690: BA B2 21 08 01 17 80 14  80 15 80 16 80 80 AF 21  ..!............!
06A0: 08 01 45 06 80 F8 FF FF  7F F8 FF FF 7F 73 30 32  ..E..........s02
06B0: 30 01 80 45 04 80 F0 FF  FF 7F F0 FF FF 7F 66 64  0..E..........fd
06C0: 69 31 01 80 55 04 80 F0  FF FF 7F F0 FF FF 7F 66  i1..U..........f
06D0: 64 69 31 C4 01 01 80 AF  21 08 01 B2 21 08 01 55  di1.....!...!..U
06E0: 06 80 F8 FF FF 7F F8 FF  FF 7F 73 30 32 30 48 02  ..........s020H.
06F0: 80 23 4E 01 AF 21 08 01  45 04 80 F0 FF FF 7F F0  .#N..!..E.......
0700: FF FF 7F 66 64 6F 31 01  80 55 04 80 F0 FF FF 7F  ...fdo1..U......
0710: F0 FF FF 7F 66 64 6F 31  34 18 80 77 05 80 03 80  ....fdo14..w....
0720: 1C 0B 80 4E 00 B0 21 08  01 2F 00 B0 21 08 01 92  ...N..!../..!...
0730: 01 B0 21 08 01 94 01 B0  21 08 01 BA B0 21 08 01  ..!.....!....!..
0740: 19 80 1A 80 1B 80 1C 80  80 B0 21 08 01 27 10 B0  ..........!..'..
0750: 21 08 01 02 45 06 80 F8  FF FF 7F F8 FF FF 7F 73  !...E..........s
0760: 30 32 31 01 80 45 04 80  F0 FF FF 7F F0 FF FF 7F  021..E..........
0770: 66 64 69 31 01 80 55 04  80 F0 FF FF 7F F0 FF FF  fdi1..U.........
0780: 7F 66 64 69 31 55 06 80  F8 FF FF 7F F8 FF FF 7F  .fdi1U..........
0790: 73 30 32 31 48 02 80 23  4E 01 B0 21 08 01 45 04  s021H..#N..!..E.
07A0: 80 F0 FF FF 7F F0 FF FF  7F 66 64 6F 31 01 80 55  .........fdo1..U
07B0: 04 80 F0 FF FF 7F F0 FF  FF 7F 66 64 6F 31 34 1D  ..........fdo14.
07C0: 80 77 05 80 03 80 1C 0B  80 4E 00 B1 21 08 01 2F  .w.......N..!../
07D0: 00 B1 21 08 01 92 01 B1  21 08 01 94 01 B1 21 08  ..!.....!.....!.
07E0: 01 BA B1 21 08 01 1E 80  1F 80 20 80 21 80 80 B1  ...!...... .!...
07F0: 21 08 01 C4 02 00 80 B1  21 08 01 B1 21 08 01 1C  !.......!...!...
0800: 22 80 45 06 80 F8 FF FF  7F F8 FF FF 7F 73 30 32  ".E..........s02
0810: 35 01 80 45 04 80 F0 FF  FF 7F F0 FF FF 7F 66 64  5..E..........fd
0820: 69 31 01 80 55 04 80 F0  FF FF 7F F0 FF FF 7F 66  i1..U..........f
0830: 64 69 31 55 06 80 F8 FF  FF 7F F8 FF FF 7F 73 30  di1U..........s0
0840: 32 35 45 06 80 F8 FF FF  7F F8 FF FF 7F 73 30 32  25E..........s02
0850: 32 01 80 55 06 80 F8 FF  FF 7F F8 FF FF 7F 73 30  2..U..........s0
0860: 32 32 48 02 80 23 4E 01  B1 21 08 01 02 02 00 03  22H..#N..!......
0870: 80 00 77 08 01 77 08 45  04 80 F0 FF FF 7F F0 FF  ..w..w.E........
0880: FF 7F 66 64 6F 31 01 80  55 04 80 F0 FF FF 7F F0  ..fdo1..U.......
0890: FF FF 7F 66 64 6F 31 35  23 80 78 5D 24 80 25 80  ...fdo15#.x]$.%.
08A0: 1C 26 80 AB 11 01 80 1C  03 80 46 00 45 04 80 F0  .&........F.E...
08B0: FF FF 7F F0 FF FF 7F 66  64 69 32 01 80 21 00     .......fdi2..!. 
```

#### Opcodes

```
  0: 0x0001 [0x42] SET_CLI_EVENT_CANCEL_DATA()
  1: 0x0002 [0x03] ExtData[1]->WorkLocal[0] = Work_Zone[3]
  2: 0x0007 [0x03] ExtData[1]->WorkLocal[1] = Work_Zone[4]
  3: 0x000C [0x03] ExtData[1]->WorkLocal[2] = Work_Zone[5]
  4: 0x0011 [0x03] ExtData[1]->WorkLocal[3] = Work_Zone[6]
  5: 0x0016 [0x46] CAMERA_CONTROL: Disable user control
  6: 0x0018 [0x38] SET_CLIENT_EVENT_MODE(mode=147*)
  7: 0x001B [0x5D] SET_MUSIC_VOLUME(volume=0*, fade_time=0*)
  8: 0x0020 [0x48] [System] [7348*]:
    → "Press the confirmation button."
  9: 0x0023 [0x23] WAIT_FOR_DIALOG_INTERACTION
 10: 0x0024 [0x02] IF !(ExtData[1]->WorkLocal[0] == 1*) GOTO 0x002F
 11: 0x002C [0x01] GOTO 0x0050
 12: 0x002F [0x02] IF !(ExtData[1]->WorkLocal[1] == 1*) GOTO 0x003A
 13: 0x0037 [0x01] GOTO 0x02DC
 14: 0x003A [0x02] IF !(ExtData[1]->WorkLocal[2] == 1*) GOTO 0x0045
 15: 0x0042 [0x01] GOTO 0x04C2
 16: 0x0045 [0x02] IF !(ExtData[1]->WorkLocal[3] == 1*) GOTO 0x0050
 17: 0x004D [0x01] GOTO 0x02D1

SUBROUTINE_0050:
 18: 0x0050 [0x45] LOAD_SCHEDULED_TASK: Load scheduler "fdo1" with entities [LocalPlayer, LocalPlayer], work=[200*, 0*]
 19: 0x0061 [0x55] WAIT_LOAD_SCHEDULER: Wait for scheduler "fdo1" with entities [LocalPlayer, LocalPlayer], work=200*
 20: 0x0070 [0x77] SET_EVENT_TIME_WEATHER(hour=12*, weather=1*)
 21: 0x0075 [0x45] LOAD_SCHEDULED_TASK: Load scheduler "s014" with entities [EventEntity, EventEntity], work=[616*, 0*]
 22: 0x0086 [0x45] LOAD_SCHEDULED_TASK: Load scheduler "fdi1" with entities [LocalPlayer, LocalPlayer], work=[200*, 0*]
 23: 0x0097 [0x55] WAIT_LOAD_SCHEDULER: Wait for scheduler "fdi1" with entities [LocalPlayer, LocalPlayer], work=200*
 24: 0x00A6 [0x55] WAIT_LOAD_SCHEDULER: Wait for scheduler "s014" with entities [EventEntity, EventEntity], work=616*
 25: 0x00B5 [0x48] [System] [7348*]:
    → "Press the confirmation button."
 26: 0x00B8 [0x23] WAIT_FOR_DIALOG_INTERACTION
 27: 0x00B9 [0x45] LOAD_SCHEDULED_TASK: Load scheduler "fdo1" with entities [LocalPlayer, LocalPlayer], work=[200*, 0*]
 28: 0x00CA [0x55] WAIT_LOAD_SCHEDULER: Wait for scheduler "fdo1" with entities [LocalPlayer, LocalPlayer], work=200*
 29: 0x00D9 [0x77] SET_EVENT_TIME_WEATHER(hour=18*, weather=1*)
 30: 0x00DE [0x45] LOAD_SCHEDULED_TASK: Load scheduler "s014" with entities [EventEntity, EventEntity], work=[616*, 0*]
 31: 0x00EF [0x45] LOAD_SCHEDULED_TASK: Load scheduler "fdi1" with entities [LocalPlayer, LocalPlayer], work=[200*, 0*]
 32: 0x0100 [0x55] WAIT_LOAD_SCHEDULER: Wait for scheduler "fdi1" with entities [LocalPlayer, LocalPlayer], work=200*
 33: 0x010F [0x55] WAIT_LOAD_SCHEDULER: Wait for scheduler "s014" with entities [EventEntity, EventEntity], work=616*
 34: 0x011E [0x48] [System] [7348*]:
    → "Press the confirmation button."
 35: 0x0121 [0x23] WAIT_FOR_DIALOG_INTERACTION
 36: 0x0122 [0x45] LOAD_SCHEDULED_TASK: Load scheduler "fdo1" with entities [LocalPlayer, LocalPlayer], work=[200*, 0*]
 37: 0x0133 [0x55] WAIT_LOAD_SCHEDULER: Wait for scheduler "fdo1" with entities [LocalPlayer, LocalPlayer], work=200*
 38: 0x0142 [0x77] SET_EVENT_TIME_WEATHER(hour=23*, weather=16*)
 39: 0x0147 [0x45] LOAD_SCHEDULED_TASK: Load scheduler "s014" with entities [EventEntity, EventEntity], work=[616*, 0*]
 40: 0x0158 [0x45] LOAD_SCHEDULED_TASK: Load scheduler "fdi1" with entities [LocalPlayer, LocalPlayer], work=[200*, 0*]
 41: 0x0169 [0x55] WAIT_LOAD_SCHEDULER: Wait for scheduler "fdi1" with entities [LocalPlayer, LocalPlayer], work=200*
 42: 0x0178 [0x55] WAIT_LOAD_SCHEDULER: Wait for scheduler "s014" with entities [EventEntity, EventEntity], work=616*
 43: 0x0187 [0x48] [System] [7348*]:
    → "Press the confirmation button."
 44: 0x018A [0x23] WAIT_FOR_DIALOG_INTERACTION
 45: 0x018B [0x45] LOAD_SCHEDULED_TASK: Load scheduler "fdo1" with entities [LocalPlayer, LocalPlayer], work=[200*, 0*]
 46: 0x019C [0x55] WAIT_LOAD_SCHEDULER: Wait for scheduler "fdo1" with entities [LocalPlayer, LocalPlayer], work=200*
 47: 0x01AB [0x77] SET_EVENT_TIME_WEATHER(hour=12*, weather=1*)
 48: 0x01B0 [0x45] LOAD_SCHEDULED_TASK: Load scheduler "s013" with entities [EventEntity, EventEntity], work=[616*, 0*]
 49: 0x01C1 [0x45] LOAD_SCHEDULED_TASK: Load scheduler "fdi1" with entities [LocalPlayer, LocalPlayer], work=[200*, 0*]
 50: 0x01D2 [0x55] WAIT_LOAD_SCHEDULER: Wait for scheduler "fdi1" with entities [LocalPlayer, LocalPlayer], work=200*
 51: 0x01E1 [0x55] WAIT_LOAD_SCHEDULER: Wait for scheduler "s013" with entities [EventEntity, EventEntity], work=616*
 52: 0x01F0 [0x48] [System] [7348*]:
    → "Press the confirmation button."
 53: 0x01F3 [0x23] WAIT_FOR_DIALOG_INTERACTION
 54: 0x01F4 [0x45] LOAD_SCHEDULED_TASK: Load scheduler "fdo1" with entities [LocalPlayer, LocalPlayer], work=[200*, 0*]
 55: 0x0205 [0x55] WAIT_LOAD_SCHEDULER: Wait for scheduler "fdo1" with entities [LocalPlayer, LocalPlayer], work=200*
 56: 0x0214 [0x77] SET_EVENT_TIME_WEATHER(hour=18*, weather=1*)
 57: 0x0219 [0x45] LOAD_SCHEDULED_TASK: Load scheduler "s013" with entities [EventEntity, EventEntity], work=[616*, 0*]
 58: 0x022A [0x45] LOAD_SCHEDULED_TASK: Load scheduler "fdi1" with entities [LocalPlayer, LocalPlayer], work=[200*, 0*]
 59: 0x023B [0x55] WAIT_LOAD_SCHEDULER: Wait for scheduler "fdi1" with entities [LocalPlayer, LocalPlayer], work=200*
 60: 0x024A [0x55] WAIT_LOAD_SCHEDULER: Wait for scheduler "s013" with entities [EventEntity, EventEntity], work=616*
 61: 0x0259 [0x48] [System] [7348*]:
    → "Press the confirmation button."
 62: 0x025C [0x23] WAIT_FOR_DIALOG_INTERACTION
 63: 0x025D [0x45] LOAD_SCHEDULED_TASK: Load scheduler "fdo1" with entities [LocalPlayer, LocalPlayer], work=[200*, 0*]
 64: 0x026E [0x55] WAIT_LOAD_SCHEDULER: Wait for scheduler "fdo1" with entities [LocalPlayer, LocalPlayer], work=200*
 65: 0x027D [0x77] SET_EVENT_TIME_WEATHER(hour=23*, weather=16*)
 66: 0x0282 [0x45] LOAD_SCHEDULED_TASK: Load scheduler "s013" with entities [EventEntity, EventEntity], work=[616*, 0*]
 67: 0x0293 [0x45] LOAD_SCHEDULED_TASK: Load scheduler "fdi1" with entities [LocalPlayer, LocalPlayer], work=[200*, 0*]
 68: 0x02A4 [0x55] WAIT_LOAD_SCHEDULER: Wait for scheduler "fdi1" with entities [LocalPlayer, LocalPlayer], work=200*
 69: 0x02B3 [0x55] WAIT_LOAD_SCHEDULER: Wait for scheduler "s013" with entities [EventEntity, EventEntity], work=616*
 70: 0x02C2 [0x48] [System] [7348*]:
    → "Press the confirmation button."
 71: 0x02C5 [0x23] WAIT_FOR_DIALOG_INTERACTION
 72: 0x02C6 [0x02] IF !(ExtData[1]->WorkLocal[0] == 1*) GOTO 0x02D1
 73: 0x02CE [0x01] GOTO 0x0877

SUBROUTINE_02D1:
 74: 0x02D1 [0x02] IF !(ExtData[1]->WorkLocal[3] == 1*) GOTO 0x02DC
 75: 0x02D9 [0x01] GOTO 0x0877

SUBROUTINE_02DC:
 76: 0x02DC [0x45] LOAD_SCHEDULED_TASK: Load scheduler "fdo1" with entities [LocalPlayer, LocalPlayer], work=[200*, 0*]
 77: 0x02ED [0x55] WAIT_LOAD_SCHEDULER: Wait for scheduler "fdo1" with entities [LocalPlayer, LocalPlayer], work=200*
 78: 0x02FC [0x34] LOAD_UNLOAD_ZONE(zone_id=180*)
 79: 0x02FF [0x77] SET_EVENT_TIME_WEATHER(hour=12*, weather=1*)
 80: 0x0304 [0x1C] WAIT(60* ticks)
 81: 0x0307 [0x45] LOAD_SCHEDULED_TASK: Load scheduler "s015" with entities [EventEntity, EventEntity], work=[616*, 0*]
 82: 0x0318 [0x45] LOAD_SCHEDULED_TASK: Load scheduler "fdi1" with entities [LocalPlayer, LocalPlayer], work=[200*, 0*]
 83: 0x0329 [0x55] WAIT_LOAD_SCHEDULER: Wait for scheduler "fdi1" with entities [LocalPlayer, LocalPlayer], work=200*
 84: 0x0338 [0x55] WAIT_LOAD_SCHEDULER: Wait for scheduler "s015" with entities [EventEntity, EventEntity], work=616*
 85: 0x0347 [0x48] [System] [7348*]:
    → "Press the confirmation button."
 86: 0x034A [0x23] WAIT_FOR_DIALOG_INTERACTION
 87: 0x034B [0x45] LOAD_SCHEDULED_TASK: Load scheduler "fdo1" with entities [LocalPlayer, LocalPlayer], work=[200*, 0*]
 88: 0x035C [0x55] WAIT_LOAD_SCHEDULER: Wait for scheduler "fdo1" with entities [LocalPlayer, LocalPlayer], work=200*
 89: 0x036B [0x45] LOAD_SCHEDULED_TASK: Load scheduler "s016" with entities [EventEntity, EventEntity], work=[616*, 0*]
 90: 0x037C [0x45] LOAD_SCHEDULED_TASK: Load scheduler "fdi1" with entities [LocalPlayer, LocalPlayer], work=[200*, 0*]
 91: 0x038D [0x55] WAIT_LOAD_SCHEDULER: Wait for scheduler "fdi1" with entities [LocalPlayer, LocalPlayer], work=200*
 92: 0x039C [0x55] WAIT_LOAD_SCHEDULER: Wait for scheduler "s016" with entities [EventEntity, EventEntity], work=616*
 93: 0x03AB [0x48] [System] [7348*]:
    → "Press the confirmation button."
 94: 0x03AE [0x23] WAIT_FOR_DIALOG_INTERACTION
 95: 0x03AF [0x45] LOAD_SCHEDULED_TASK: Load scheduler "whi0" with entities [LocalPlayer, LocalPlayer], work=[201*, 0*]
 96: 0x03C0 [0x55] WAIT_LOAD_SCHEDULER: Wait for scheduler "whi0" with entities [LocalPlayer, LocalPlayer], work=201*
 97: 0x03CF [0x45] LOAD_SCHEDULED_TASK: Load scheduler "fdo1" with entities [LocalPlayer, LocalPlayer], work=[200*, 0*]
 98: 0x03E0 [0x55] WAIT_LOAD_SCHEDULER: Wait for scheduler "fdo1" with entities [LocalPlayer, LocalPlayer], work=200*
 99: 0x03EF [0x45] LOAD_SCHEDULED_TASK: Load scheduler "s017" with entities [EventEntity, EventEntity], work=[616*, 0*]
100: 0x0400 [0x45] LOAD_SCHEDULED_TASK: Load scheduler "fdi1" with entities [LocalPlayer, LocalPlayer], work=[200*, 0*]
101: 0x0411 [0x55] WAIT_LOAD_SCHEDULER: Wait for scheduler "fdi1" with entities [LocalPlayer, LocalPlayer], work=200*
102: 0x0420 [0x55] WAIT_LOAD_SCHEDULER: Wait for scheduler "s017" with entities [EventEntity, EventEntity], work=616*
103: 0x042F [0x48] [System] [7348*]:
    → "Press the confirmation button."
104: 0x0432 [0x23] WAIT_FOR_DIALOG_INTERACTION
105: 0x0433 [0x45] LOAD_SCHEDULED_TASK: Load scheduler "fdo1" with entities [LocalPlayer, LocalPlayer], work=[200*, 0*]
106: 0x0444 [0x55] WAIT_LOAD_SCHEDULER: Wait for scheduler "fdo1" with entities [LocalPlayer, LocalPlayer], work=200*
107: 0x0453 [0x45] LOAD_SCHEDULED_TASK: Load scheduler "s018" with entities [EventEntity, EventEntity], work=[616*, 0*]
108: 0x0464 [0x45] LOAD_SCHEDULED_TASK: Load scheduler "fdi1" with entities [LocalPlayer, LocalPlayer], work=[200*, 0*]
109: 0x0475 [0x55] WAIT_LOAD_SCHEDULER: Wait for scheduler "fdi1" with entities [LocalPlayer, LocalPlayer], work=200*
110: 0x0484 [0x55] WAIT_LOAD_SCHEDULER: Wait for scheduler "s018" with entities [EventEntity, EventEntity], work=616*
111: 0x0493 [0x48] [System] [7348*]:
    → "Press the confirmation button."
112: 0x0496 [0x23] WAIT_FOR_DIALOG_INTERACTION
113: 0x0497 [0x45] LOAD_SCHEDULED_TASK: Load scheduler "whi0" with entities [LocalPlayer, LocalPlayer], work=[201*, 0*]
114: 0x04A8 [0x55] WAIT_LOAD_SCHEDULER: Wait for scheduler "whi0" with entities [LocalPlayer, LocalPlayer], work=201*
115: 0x04B7 [0x02] IF !(ExtData[1]->WorkLocal[1] == 1*) GOTO 0x04C2
116: 0x04BF [0x01] GOTO 0x0877

SUBROUTINE_04C2:
117: 0x04C2 [0x45] LOAD_SCHEDULED_TASK: Load scheduler "fdo1" with entities [LocalPlayer, LocalPlayer], work=[200*, 0*]
118: 0x04D3 [0x55] WAIT_LOAD_SCHEDULER: Wait for scheduler "fdo1" with entities [LocalPlayer, LocalPlayer], work=200*
119: 0x04E2 [0x34] LOAD_UNLOAD_ZONE(zone_id=102*)
120: 0x04E5 [0x77] SET_EVENT_TIME_WEATHER(hour=12*, weather=1*)
121: 0x04EA [0x1C] WAIT(60* ticks)
122: 0x04ED [0x4E] SET_ENTITY_HIDE_FLAG: Show Unnamed NPC (ID: 17310125/0x010821AD)
123: 0x04F3 [0x2F] Unnamed NPC (ID: 17310125/0x010821AD)->Render.Flags0 &= ~0x80000 // Bit 19
124: 0x04F9 [0x92] Unnamed NPC (ID: 17310125/0x010821AD)->Render.Flags3 ^= 0x01
125: 0x04FF [0x94] Unnamed NPC (ID: 17310125/0x010821AD)->Render.Flags3 ^= 0x01
126: 0x0505 [0xBA] SET_ENTITY_POSITION(entity_id=Unnamed NPC (ID: 17310125/0x010821AD), pos_x=358.981*, pos_z=28.746*, pos_y=23.999*, direction=101.2°*)
127: 0x0512 [0x80] LOAD_WAIT(entity=Unnamed NPC (ID: 17310125/0x010821AD))
128: 0x0517 [0x45] LOAD_SCHEDULED_TASK: Load scheduler "s019" with entities [EventEntity, EventEntity], work=[616*, 0*]
129: 0x0528 [0x45] LOAD_SCHEDULED_TASK: Load scheduler "fdi1" with entities [LocalPlayer, LocalPlayer], work=[200*, 0*]
130: 0x0539 [0x55] WAIT_LOAD_SCHEDULER: Wait for scheduler "fdi1" with entities [LocalPlayer, LocalPlayer], work=200*
131: 0x0548 [0x55] WAIT_LOAD_SCHEDULER: Wait for scheduler "s019" with entities [EventEntity, EventEntity], work=616*
132: 0x0557 [0x48] [System] [7348*]:
    → "Press the confirmation button."
133: 0x055A [0x23] WAIT_FOR_DIALOG_INTERACTION
134: 0x055B [0x4E] SET_ENTITY_HIDE_FLAG: Hide Unnamed NPC (ID: 17310125/0x010821AD)
135: 0x0561 [0x45] LOAD_SCHEDULED_TASK: Load scheduler "fdo1" with entities [LocalPlayer, LocalPlayer], work=[200*, 0*]
136: 0x0572 [0x55] WAIT_LOAD_SCHEDULER: Wait for scheduler "fdo1" with entities [LocalPlayer, LocalPlayer], work=200*
137: 0x0581 [0x4E] SET_ENTITY_HIDE_FLAG: Show Unnamed NPC (ID: 17310124/0x010821AC)
138: 0x0587 [0x2F] Unnamed NPC (ID: 17310124/0x010821AC)->Render.Flags0 &= ~0x80000 // Bit 19
139: 0x058D [0x2F] Unnamed NPC (ID: 17310125/0x010821AD)->Render.Flags0 &= ~0x80000 // Bit 19
140: 0x0593 [0x92] Unnamed NPC (ID: 17310124/0x010821AC)->Render.Flags3 ^= 0x01
141: 0x0599 [0x92] Unnamed NPC (ID: 17310125/0x010821AD)->Render.Flags3 ^= 0x01
142: 0x059F [0x94] Unnamed NPC (ID: 17310124/0x010821AC)->Render.Flags3 ^= 0x01
143: 0x05A5 [0x94] Unnamed NPC (ID: 17310125/0x010821AD)->Render.Flags3 ^= 0x01
144: 0x05AB [0xBA] SET_ENTITY_POSITION(entity_id=Unnamed NPC (ID: 17310124/0x010821AC), pos_x=358.981*, pos_z=28.746*, pos_y=23.999*, direction=101.2°*)
145: 0x05B8 [0xBA] SET_ENTITY_POSITION(entity_id=Unnamed NPC (ID: 17310125/0x010821AD), pos_x=358.981*, pos_z=28.746*, pos_y=23.999*, direction=101.2°*)
146: 0x05C5 [0x80] LOAD_WAIT(entity=Unnamed NPC (ID: 17310125/0x010821AD))
147: 0x05CA [0x45] LOAD_SCHEDULED_TASK: Load scheduler "s023" with entities [EventEntity, EventEntity], work=[616*, 0*]
148: 0x05DB [0x45] LOAD_SCHEDULED_TASK: Load scheduler "fdi1" with entities [LocalPlayer, LocalPlayer], work=[200*, 0*]
149: 0x05EC [0x55] WAIT_LOAD_SCHEDULER: Wait for scheduler "fdi1" with entities [LocalPlayer, LocalPlayer], work=200*
150: 0x05FB [0x55] WAIT_LOAD_SCHEDULER: Wait for scheduler "s023" with entities [EventEntity, EventEntity], work=616*
151: 0x060A [0x4E] SET_ENTITY_HIDE_FLAG: Hide Unnamed NPC (ID: 17310124/0x010821AC)
152: 0x0610 [0x4E] SET_ENTITY_HIDE_FLAG: Show Unnamed NPC (ID: 17310125/0x010821AD)
153: 0x0616 [0x45] LOAD_SCHEDULED_TASK: Load scheduler "s024" with entities [EventEntity, EventEntity], work=[616*, 0*]
154: 0x0627 [0x55] WAIT_LOAD_SCHEDULER: Wait for scheduler "s024" with entities [EventEntity, EventEntity], work=616*
155: 0x0636 [0x48] [System] [7348*]:
    → "Press the confirmation button."
156: 0x0639 [0x23] WAIT_FOR_DIALOG_INTERACTION
157: 0x063A [0x4E] SET_ENTITY_HIDE_FLAG: Hide Unnamed NPC (ID: 17310125/0x010821AD)
158: 0x0640 [0x45] LOAD_SCHEDULED_TASK: Load scheduler "fdo1" with entities [LocalPlayer, LocalPlayer], work=[200*, 0*]
159: 0x0651 [0x55] WAIT_LOAD_SCHEDULER: Wait for scheduler "fdo1" with entities [LocalPlayer, LocalPlayer], work=200*
160: 0x0660 [0x34] LOAD_UNLOAD_ZONE(zone_id=106*)
161: 0x0663 [0x77] SET_EVENT_TIME_WEATHER(hour=12*, weather=1*)
162: 0x0668 [0x1C] WAIT(60* ticks)
163: 0x066B [0x4E] SET_ENTITY_HIDE_FLAG: Show Unnamed NPC (ID: 17310127/0x010821AF)
164: 0x0671 [0x2F] Unnamed NPC (ID: 17310127/0x010821AF)->Render.Flags0 &= ~0x80000 // Bit 19
165: 0x0677 [0x92] Unnamed NPC (ID: 17310127/0x010821AF)->Render.Flags3 ^= 0x01
166: 0x067D [0x94] Unnamed NPC (ID: 17310127/0x010821AF)->Render.Flags3 ^= 0x01
167: 0x0683 [0xBA] SET_ENTITY_POSITION(entity_id=Unnamed NPC (ID: 17310127/0x010821AF), pos_x=-338.168*, pos_z=424.442*, pos_y=48.175*, direction=312.1°*)
168: 0x0690 [0xBA] SET_ENTITY_POSITION(entity_id=Unnamed NPC (ID: 17310130/0x010821B2), pos_x=-340.168*, pos_z=424.442*, pos_y=48.175*, direction=312.1°*)
169: 0x069D [0x80] LOAD_WAIT(entity=Unnamed NPC (ID: 17310127/0x010821AF))
170: 0x06A2 [0x45] LOAD_SCHEDULED_TASK: Load scheduler "s020" with entities [EventEntity, EventEntity], work=[616*, 0*]
171: 0x06B3 [0x45] LOAD_SCHEDULED_TASK: Load scheduler "fdi1" with entities [LocalPlayer, LocalPlayer], work=[200*, 0*]
172: 0x06C4 [0x55] WAIT_LOAD_SCHEDULER: Wait for scheduler "fdi1" with entities [LocalPlayer, LocalPlayer], work=200*
173: 0x06D3 [0xC4] SCHEDULE_MAGIC_CASTING_ALT (arg=17): Unnamed NPC (ID: 17310127/0x010821AF) casts magic 0* on Unnamed NPC (ID: 17310130/0x010821B2)
174: 0x06DF [0x55] WAIT_LOAD_SCHEDULER: Wait for scheduler "s020" with entities [EventEntity, EventEntity], work=616*
175: 0x06EE [0x48] [System] [7348*]:
    → "Press the confirmation button."
176: 0x06F1 [0x23] WAIT_FOR_DIALOG_INTERACTION
177: 0x06F2 [0x4E] SET_ENTITY_HIDE_FLAG: Hide Unnamed NPC (ID: 17310127/0x010821AF)
178: 0x06F8 [0x45] LOAD_SCHEDULED_TASK: Load scheduler "fdo1" with entities [LocalPlayer, LocalPlayer], work=[200*, 0*]
179: 0x0709 [0x55] WAIT_LOAD_SCHEDULER: Wait for scheduler "fdo1" with entities [LocalPlayer, LocalPlayer], work=200*
180: 0x0718 [0x34] LOAD_UNLOAD_ZONE(zone_id=115*)
181: 0x071B [0x77] SET_EVENT_TIME_WEATHER(hour=12*, weather=1*)
182: 0x0720 [0x1C] WAIT(60* ticks)
183: 0x0723 [0x4E] SET_ENTITY_HIDE_FLAG: Show Unnamed NPC (ID: 17310128/0x010821B0)
184: 0x0729 [0x2F] Unnamed NPC (ID: 17310128/0x010821B0)->Render.Flags0 &= ~0x80000 // Bit 19
185: 0x072F [0x92] Unnamed NPC (ID: 17310128/0x010821B0)->Render.Flags3 ^= 0x01
186: 0x0735 [0x94] Unnamed NPC (ID: 17310128/0x010821B0)->Render.Flags3 ^= 0x01
187: 0x073B [0xBA] SET_ENTITY_POSITION(entity_id=Unnamed NPC (ID: 17310128/0x010821B0), pos_x=165.809*, pos_z=346.049*, pos_y=-40.321*, direction=192.1°*)
188: 0x0748 [0x80] LOAD_WAIT(entity=Unnamed NPC (ID: 17310128/0x010821B0))
189: 0x074D [0x27] REQ_SET(priority=0x10, entity_id=Unnamed NPC (ID: 17310128/0x010821B0), tag_num=0x02)
190: 0x0754 [0x45] LOAD_SCHEDULED_TASK: Load scheduler "s021" with entities [EventEntity, EventEntity], work=[616*, 0*]
191: 0x0765 [0x45] LOAD_SCHEDULED_TASK: Load scheduler "fdi1" with entities [LocalPlayer, LocalPlayer], work=[200*, 0*]
192: 0x0776 [0x55] WAIT_LOAD_SCHEDULER: Wait for scheduler "fdi1" with entities [LocalPlayer, LocalPlayer], work=200*
193: 0x0785 [0x55] WAIT_LOAD_SCHEDULER: Wait for scheduler "s021" with entities [EventEntity, EventEntity], work=616*
194: 0x0794 [0x48] [System] [7348*]:
    → "Press the confirmation button."
195: 0x0797 [0x23] WAIT_FOR_DIALOG_INTERACTION
196: 0x0798 [0x4E] SET_ENTITY_HIDE_FLAG: Hide Unnamed NPC (ID: 17310128/0x010821B0)
197: 0x079E [0x45] LOAD_SCHEDULED_TASK: Load scheduler "fdo1" with entities [LocalPlayer, LocalPlayer], work=[200*, 0*]
198: 0x07AF [0x55] WAIT_LOAD_SCHEDULER: Wait for scheduler "fdo1" with entities [LocalPlayer, LocalPlayer], work=200*
199: 0x07BE [0x34] LOAD_UNLOAD_ZONE(zone_id=103*)
200: 0x07C1 [0x77] SET_EVENT_TIME_WEATHER(hour=12*, weather=1*)
201: 0x07C6 [0x1C] WAIT(60* ticks)
202: 0x07C9 [0x4E] SET_ENTITY_HIDE_FLAG: Show Unnamed NPC (ID: 17310129/0x010821B1)
203: 0x07CF [0x2F] Unnamed NPC (ID: 17310129/0x010821B1)->Render.Flags0 &= ~0x80000 // Bit 19
204: 0x07D5 [0x92] Unnamed NPC (ID: 17310129/0x010821B1)->Render.Flags3 ^= 0x01
205: 0x07DB [0x94] Unnamed NPC (ID: 17310129/0x010821B1)->Render.Flags3 ^= 0x01
206: 0x07E1 [0xBA] SET_ENTITY_POSITION(entity_id=Unnamed NPC (ID: 17310129/0x010821B1), pos_x=-689.427*, pos_z=178.271*, pos_y=-8.029*, direction=189.4°*)
207: 0x07EE [0x80] LOAD_WAIT(entity=Unnamed NPC (ID: 17310129/0x010821B1))
208: 0x07F3 [0xC4] SCHEDULE_MAGIC_CASTING_ALT (arg=18): Unnamed NPC (ID: 17310129/0x010821B1) casts magic 147* on Unnamed NPC (ID: 17310129/0x010821B1)
209: 0x07FF [0x1C] WAIT(150* ticks)
210: 0x0802 [0x45] LOAD_SCHEDULED_TASK: Load scheduler "s025" with entities [EventEntity, EventEntity], work=[616*, 0*]
211: 0x0813 [0x45] LOAD_SCHEDULED_TASK: Load scheduler "fdi1" with entities [LocalPlayer, LocalPlayer], work=[200*, 0*]
212: 0x0824 [0x55] WAIT_LOAD_SCHEDULER: Wait for scheduler "fdi1" with entities [LocalPlayer, LocalPlayer], work=200*
213: 0x0833 [0x55] WAIT_LOAD_SCHEDULER: Wait for scheduler "s025" with entities [EventEntity, EventEntity], work=616*
214: 0x0842 [0x45] LOAD_SCHEDULED_TASK: Load scheduler "s022" with entities [EventEntity, EventEntity], work=[616*, 0*]
215: 0x0853 [0x55] WAIT_LOAD_SCHEDULER: Wait for scheduler "s022" with entities [EventEntity, EventEntity], work=616*
216: 0x0862 [0x48] [System] [7348*]:
    → "Press the confirmation button."
217: 0x0865 [0x23] WAIT_FOR_DIALOG_INTERACTION
218: 0x0866 [0x4E] SET_ENTITY_HIDE_FLAG: Hide Unnamed NPC (ID: 17310129/0x010821B1)
219: 0x086C [0x02] IF !(ExtData[1]->WorkLocal[2] == 1*) GOTO 0x0877
220: 0x0874 [0x01] GOTO 0x0877

SUBROUTINE_0877:
221: 0x0877 [0x45] LOAD_SCHEDULED_TASK: Load scheduler "fdo1" with entities [LocalPlayer, LocalPlayer], work=[200*, 0*]
222: 0x0888 [0x55] WAIT_LOAD_SCHEDULER: Wait for scheduler "fdo1" with entities [LocalPlayer, LocalPlayer], work=200*
223: 0x0897 [0x35] LOAD_ZONE_NO_CLOSE(zone_id=130*)
224: 0x089A [0x78] ENABLE_GAME_TIMER_RESET_WEATHER()
225: 0x089B [0x5D] SET_MUSIC_VOLUME(volume=127*, fade_time=120*)
226: 0x08A0 [0x1C] WAIT(15* ticks)
227: 0x08A3 [0xAB] EventEntity->DespawnValue = 0* // Set despawn value
228: 0x08A7 [0x1C] WAIT(1* ticks)
229: 0x08AA [0x46] CAMERA_CONTROL: Restore default settings
230: 0x08AC [0x45] LOAD_SCHEDULED_TASK: Load scheduler "fdi2" with entities [LocalPlayer, LocalPlayer], work=[200*, 0*]
231: 0x08BD [0x21] END_EVENT
232: 0x08BE [0x00] END_REQSTACK()
```
